{
	"anonimity/1-ETH-Anonymity.sol": {
		"MerkleTreeWithHistory": {
			"abi": [
				{
					"inputs": [],
					"payable": false,
					"stateMutability": "nonpayable",
					"type": "constructor"
				},
				{
					"constant": true,
					"inputs": [],
					"name": "FIELD_SIZE",
					"outputs": [
						{
							"internalType": "uint256",
							"name": "",
							"type": "uint256"
						}
					],
					"payable": false,
					"stateMutability": "view",
					"type": "function"
				},
				{
					"constant": true,
					"inputs": [],
					"name": "ROOT_HISTORY_SIZE",
					"outputs": [
						{
							"internalType": "uint32",
							"name": "",
							"type": "uint32"
						}
					],
					"payable": false,
					"stateMutability": "view",
					"type": "function"
				},
				{
					"constant": true,
					"inputs": [],
					"name": "ZERO_VALUE",
					"outputs": [
						{
							"internalType": "uint256",
							"name": "",
							"type": "uint256"
						}
					],
					"payable": false,
					"stateMutability": "view",
					"type": "function"
				},
				{
					"constant": true,
					"inputs": [],
					"name": "currentRootIndex",
					"outputs": [
						{
							"internalType": "uint32",
							"name": "",
							"type": "uint32"
						}
					],
					"payable": false,
					"stateMutability": "view",
					"type": "function"
				},
				{
					"constant": true,
					"inputs": [
						{
							"internalType": "uint256",
							"name": "",
							"type": "uint256"
						}
					],
					"name": "filledSubtrees",
					"outputs": [
						{
							"internalType": "bytes32",
							"name": "",
							"type": "bytes32"
						}
					],
					"payable": false,
					"stateMutability": "view",
					"type": "function"
				},
				{
					"constant": true,
					"inputs": [],
					"name": "getLastRoot",
					"outputs": [
						{
							"internalType": "bytes32",
							"name": "",
							"type": "bytes32"
						}
					],
					"payable": false,
					"stateMutability": "view",
					"type": "function"
				},
				{
					"constant": true,
					"inputs": [
						{
							"internalType": "bytes32",
							"name": "_left",
							"type": "bytes32"
						},
						{
							"internalType": "bytes32",
							"name": "_right",
							"type": "bytes32"
						}
					],
					"name": "hashLeftRight",
					"outputs": [
						{
							"internalType": "bytes32",
							"name": "",
							"type": "bytes32"
						}
					],
					"payable": false,
					"stateMutability": "view",
					"type": "function"
				},
				{
					"constant": true,
					"inputs": [
						{
							"internalType": "bytes32",
							"name": "_root",
							"type": "bytes32"
						}
					],
					"name": "isKnownRoot",
					"outputs": [
						{
							"internalType": "bool",
							"name": "",
							"type": "bool"
						}
					],
					"payable": false,
					"stateMutability": "view",
					"type": "function"
				},
				{
					"constant": true,
					"inputs": [],
					"name": "levels",
					"outputs": [
						{
							"internalType": "uint32",
							"name": "",
							"type": "uint32"
						}
					],
					"payable": false,
					"stateMutability": "view",
					"type": "function"
				},
				{
					"constant": true,
					"inputs": [],
					"name": "nextIndex",
					"outputs": [
						{
							"internalType": "uint32",
							"name": "",
							"type": "uint32"
						}
					],
					"payable": false,
					"stateMutability": "view",
					"type": "function"
				},
				{
					"constant": true,
					"inputs": [
						{
							"internalType": "uint256",
							"name": "",
							"type": "uint256"
						}
					],
					"name": "roots",
					"outputs": [
						{
							"internalType": "bytes32",
							"name": "",
							"type": "bytes32"
						}
					],
					"payable": false,
					"stateMutability": "view",
					"type": "function"
				},
				{
					"constant": true,
					"inputs": [
						{
							"internalType": "uint256",
							"name": "",
							"type": "uint256"
						}
					],
					"name": "zeros",
					"outputs": [
						{
							"internalType": "bytes32",
							"name": "",
							"type": "bytes32"
						}
					],
					"payable": false,
					"stateMutability": "view",
					"type": "function"
				}
			],
			"devdoc": {
				"methods": {
					"getLastRoot()": {
						"details": "Returns the last root"
					},
					"hashLeftRight(bytes32,bytes32)": {
						"details": "Hash 2 tree leaves, returns MiMC(_left, _right)"
					},
					"isKnownRoot(bytes32)": {
						"details": "Whether the root is present in the root history"
					}
				}
			},
			"evm": {
				"assembly": "    /* \"anonimity/1-ETH-Anonymity.sol\":8142:11117  contract MerkleTreeWithHistory {... */\n  mstore(0x40, 0x80)\n    /* \"anonimity/1-ETH-Anonymity.sol\":8707:8708  0 */\n  0x00\n    /* \"anonimity/1-ETH-Anonymity.sol\":8674:8708  uint32 public currentRootIndex = 0 */\n  0x03\n  exp(0x0100, 0x00)\n  dup2\n  sload\n  dup2\n  0xffffffff\n  mul\n  not\n  and\n  swap1\n  dup4\n  0xffffffff\n  and\n  mul\n  or\n  swap1\n  sstore\n  pop\n    /* \"anonimity/1-ETH-Anonymity.sol\":8738:8739  0 */\n  0x00\n    /* \"anonimity/1-ETH-Anonymity.sol\":8712:8739  uint32 public nextIndex = 0 */\n  0x03\n  exp(0x0100, 0x04)\n  dup2\n  sload\n  dup2\n  0xffffffff\n  mul\n  not\n  and\n  swap1\n  dup4\n  0xffffffff\n  and\n  mul\n  or\n  swap1\n  sstore\n  pop\n    /* \"anonimity/1-ETH-Anonymity.sol\":8837:9239  constructor() public {... */\n  callvalue\n    /* \"--CODEGEN--\":8:17   */\n  dup1\n    /* \"--CODEGEN--\":5:7   */\n  iszero\n  tag_1\n  jumpi\n    /* \"--CODEGEN--\":30:31   */\n  0x00\n    /* \"--CODEGEN--\":27:28   */\n  dup1\n    /* \"--CODEGEN--\":20:32   */\n  revert\n    /* \"--CODEGEN--\":5:7   */\ntag_1:\n    /* \"anonimity/1-ETH-Anonymity.sol\":8837:9239  constructor() public {... */\n  pop\n    /* \"anonimity/1-ETH-Anonymity.sol\":8873:8875  20 */\n  0x14\n    /* \"anonimity/1-ETH-Anonymity.sol\":8864:8870  levels */\n  0x00\n  dup1\n    /* \"anonimity/1-ETH-Anonymity.sol\":8864:8875  levels = 20 */\n  0x0100\n  exp\n  dup2\n  sload\n  dup2\n  0xffffffff\n  mul\n  not\n  and\n  swap1\n  dup4\n  0xffffffff\n  and\n  mul\n  or\n  swap1\n  sstore\n  pop\n    /* \"anonimity/1-ETH-Anonymity.sol\":8882:8901  bytes32 currentZero */\n  0x00\n    /* \"anonimity/1-ETH-Anonymity.sol\":8332:8409  21663839004416932945382355908790599225266501822907911457504978515578255421292 */\n  0x2fe54c60d3acabf3343a35b6eba15db4821b340f76e741e2249685ed4899af6c\n    /* \"anonimity/1-ETH-Anonymity.sol\":8904:8923  bytes32(ZERO_VALUE) */\n  0x00\n  shl\n    /* \"anonimity/1-ETH-Anonymity.sol\":8882:8923  bytes32 currentZero = bytes32(ZERO_VALUE) */\n  swap1\n  pop\n    /* \"anonimity/1-ETH-Anonymity.sol\":8929:8934  zeros */\n  0x02\n    /* \"anonimity/1-ETH-Anonymity.sol\":8940:8951  currentZero */\n  dup2\n    /* \"anonimity/1-ETH-Anonymity.sol\":8929:8952  zeros.push(currentZero) */\n  swap1\n  dup1\n    /* \"--CODEGEN--\":39:40   */\n  0x01\n    /* \"--CODEGEN--\":33:36   */\n  dup2\n    /* \"--CODEGEN--\":27:37   */\n  sload\n    /* \"--CODEGEN--\":23:41   */\n  add\n    /* \"--CODEGEN--\":57:67   */\n  dup1\n    /* \"--CODEGEN--\":52:55   */\n  dup3\n    /* \"--CODEGEN--\":45:68   */\n  sstore\n    /* \"--CODEGEN--\":79:89   */\n  dup1\n    /* \"--CODEGEN--\":72:89   */\n  swap2\n  pop\n    /* \"--CODEGEN--\":0:93   */\n  pop\n    /* \"anonimity/1-ETH-Anonymity.sol\":8929:8952  zeros.push(currentZero) */\n  swap1\n  0x01\n  dup3\n  sub\n  swap1\n  0x00\n  mstore\n  keccak256(0x00, 0x20)\n  add\n  0x00\n  swap1\n  swap2\n  swap3\n  swap1\n  swap2\n  swap1\n  swap2\n  pop\n  sstore\n  pop\n    /* \"anonimity/1-ETH-Anonymity.sol\":8958:8972  filledSubtrees */\n  0x01\n    /* \"anonimity/1-ETH-Anonymity.sol\":8978:8989  currentZero */\n  dup2\n    /* \"anonimity/1-ETH-Anonymity.sol\":8958:8990  filledSubtrees.push(currentZero) */\n  swap1\n  dup1\n    /* \"--CODEGEN--\":39:40   */\n  0x01\n    /* \"--CODEGEN--\":33:36   */\n  dup2\n    /* \"--CODEGEN--\":27:37   */\n  sload\n    /* \"--CODEGEN--\":23:41   */\n  add\n    /* \"--CODEGEN--\":57:67   */\n  dup1\n    /* \"--CODEGEN--\":52:55   */\n  dup3\n    /* \"--CODEGEN--\":45:68   */\n  sstore\n    /* \"--CODEGEN--\":79:89   */\n  dup1\n    /* \"--CODEGEN--\":72:89   */\n  swap2\n  pop\n    /* \"--CODEGEN--\":0:93   */\n  pop\n    /* \"anonimity/1-ETH-Anonymity.sol\":8958:8990  filledSubtrees.push(currentZero) */\n  swap1\n  0x01\n  dup3\n  sub\n  swap1\n  0x00\n  mstore\n  keccak256(0x00, 0x20)\n  add\n  0x00\n  swap1\n  swap2\n  swap3\n  swap1\n  swap2\n  swap1\n  swap2\n  pop\n  sstore\n  pop\n    /* \"anonimity/1-ETH-Anonymity.sol\":9002:9010  uint32 i */\n  0x00\n    /* \"anonimity/1-ETH-Anonymity.sol\":9013:9014  1 */\n  0x01\n    /* \"anonimity/1-ETH-Anonymity.sol\":9002:9014  uint32 i = 1 */\n  swap1\n  pop\n    /* \"anonimity/1-ETH-Anonymity.sol\":8997:9175  for (uint32 i = 1; i < levels; i++) {... */\ntag_6:\n    /* \"anonimity/1-ETH-Anonymity.sol\":9020:9026  levels */\n  0x00\n  dup1\n  swap1\n  sload\n  swap1\n  0x0100\n  exp\n  swap1\n  div\n  0xffffffff\n  and\n    /* \"anonimity/1-ETH-Anonymity.sol\":9016:9026  i < levels */\n  0xffffffff\n  and\n    /* \"anonimity/1-ETH-Anonymity.sol\":9016:9017  i */\n  dup2\n    /* \"anonimity/1-ETH-Anonymity.sol\":9016:9026  i < levels */\n  0xffffffff\n  and\n  lt\n    /* \"anonimity/1-ETH-Anonymity.sol\":8997:9175  for (uint32 i = 1; i < levels; i++) {... */\n  iszero\n  tag_7\n  jumpi\n    /* \"anonimity/1-ETH-Anonymity.sol\":9105:9110  zeros */\n  0x02\n    /* \"anonimity/1-ETH-Anonymity.sol\":9116:9127  currentZero */\n  dup3\n    /* \"anonimity/1-ETH-Anonymity.sol\":9105:9128  zeros.push(currentZero) */\n  swap1\n  dup1\n    /* \"--CODEGEN--\":39:40   */\n  0x01\n    /* \"--CODEGEN--\":33:36   */\n  dup2\n    /* \"--CODEGEN--\":27:37   */\n  sload\n    /* \"--CODEGEN--\":23:41   */\n  add\n    /* \"--CODEGEN--\":57:67   */\n  dup1\n    /* \"--CODEGEN--\":52:55   */\n  dup3\n    /* \"--CODEGEN--\":45:68   */\n  sstore\n    /* \"--CODEGEN--\":79:89   */\n  dup1\n    /* \"--CODEGEN--\":72:89   */\n  swap2\n  pop\n    /* \"--CODEGEN--\":0:93   */\n  pop\n    /* \"anonimity/1-ETH-Anonymity.sol\":9105:9128  zeros.push(currentZero) */\n  swap1\n  0x01\n  dup3\n  sub\n  swap1\n  0x00\n  mstore\n  keccak256(0x00, 0x20)\n  add\n  0x00\n  swap1\n  swap2\n  swap3\n  swap1\n  swap2\n  swap1\n  swap2\n  pop\n  sstore\n  pop\n    /* \"anonimity/1-ETH-Anonymity.sol\":9136:9150  filledSubtrees */\n  0x01\n    /* \"anonimity/1-ETH-Anonymity.sol\":9156:9167  currentZero */\n  dup3\n    /* \"anonimity/1-ETH-Anonymity.sol\":9136:9168  filledSubtrees.push(currentZero) */\n  swap1\n  dup1\n    /* \"--CODEGEN--\":39:40   */\n  0x01\n    /* \"--CODEGEN--\":33:36   */\n  dup2\n    /* \"--CODEGEN--\":27:37   */\n  sload\n    /* \"--CODEGEN--\":23:41   */\n  add\n    /* \"--CODEGEN--\":57:67   */\n  dup1\n    /* \"--CODEGEN--\":52:55   */\n  dup3\n    /* \"--CODEGEN--\":45:68   */\n  sstore\n    /* \"--CODEGEN--\":79:89   */\n  dup1\n    /* \"--CODEGEN--\":72:89   */\n  swap2\n  pop\n    /* \"--CODEGEN--\":0:93   */\n  pop\n    /* \"anonimity/1-ETH-Anonymity.sol\":9136:9168  filledSubtrees.push(currentZero) */\n  swap1\n  0x01\n  dup3\n  sub\n  swap1\n  0x00\n  mstore\n  keccak256(0x00, 0x20)\n  add\n  0x00\n  swap1\n  swap2\n  swap3\n  swap1\n  swap2\n  swap1\n  swap2\n  pop\n  sstore\n  pop\n    /* \"anonimity/1-ETH-Anonymity.sol\":9028:9031  i++ */\n  dup1\n  dup1\n  0x01\n  add\n  swap2\n  pop\n  pop\n    /* \"anonimity/1-ETH-Anonymity.sol\":8997:9175  for (uint32 i = 1; i < levels; i++) {... */\n  jump(tag_6)\ntag_7:\n  pop\n    /* \"anonimity/1-ETH-Anonymity.sol\":8837:9239  constructor() public {... */\n  pop\n    /* \"anonimity/1-ETH-Anonymity.sol\":8142:11117  contract MerkleTreeWithHistory {... */\n  dataSize(sub_0)\n  dup1\n  dataOffset(sub_0)\n  0x00\n  codecopy\n  0x00\n  return\nstop\n\nsub_0: assembly {\n        /* \"anonimity/1-ETH-Anonymity.sol\":8142:11117  contract MerkleTreeWithHistory {... */\n      mstore(0x40, 0x80)\n      callvalue\n        /* \"--CODEGEN--\":8:17   */\n      dup1\n        /* \"--CODEGEN--\":5:7   */\n      iszero\n      tag_1\n      jumpi\n        /* \"--CODEGEN--\":30:31   */\n      0x00\n        /* \"--CODEGEN--\":27:28   */\n      dup1\n        /* \"--CODEGEN--\":20:32   */\n      revert\n        /* \"--CODEGEN--\":5:7   */\n    tag_1:\n        /* \"anonimity/1-ETH-Anonymity.sol\":8142:11117  contract MerkleTreeWithHistory {... */\n      pop\n      jumpi(tag_2, lt(calldatasize, 0x04))\n      shr(0xe0, calldataload(0x00))\n      dup1\n      0xc2b40ae4\n      gt\n      tag_15\n      jumpi\n      dup1\n      0xc2b40ae4\n      eq\n      tag_9\n      jumpi\n      dup1\n      0xcd87a3b4\n      eq\n      tag_10\n      jumpi\n      dup1\n      0xe8295588\n      eq\n      tag_11\n      jumpi\n      dup1\n      0xec732959\n      eq\n      tag_12\n      jumpi\n      dup1\n      0xf178e47c\n      eq\n      tag_13\n      jumpi\n      dup1\n      0xfc7e9c6f\n      eq\n      tag_14\n      jumpi\n      jump(tag_2)\n    tag_15:\n      dup1\n      0x38bf282e\n      eq\n      tag_3\n      jumpi\n      dup1\n      0x414a37ba\n      eq\n      tag_4\n      jumpi\n      dup1\n      0x4ecf518b\n      eq\n      tag_5\n      jumpi\n      dup1\n      0x6d9833e3\n      eq\n      tag_6\n      jumpi\n      dup1\n      0x90eeb02b\n      eq\n      tag_7\n      jumpi\n      dup1\n      0xba70f757\n      eq\n      tag_8\n      jumpi\n    tag_2:\n      0x00\n      dup1\n      revert\n        /* \"anonimity/1-ETH-Anonymity.sol\":9311:9756  function hashLeftRight(bytes32 _left, bytes32 _right) public pure returns (bytes32) {... */\n    tag_3:\n      tag_16\n      0x04\n      dup1\n      calldatasize\n      sub\n        /* \"--CODEGEN--\":13:15   */\n      0x40\n        /* \"--CODEGEN--\":8:11   */\n      dup2\n        /* \"--CODEGEN--\":5:16   */\n      lt\n        /* \"--CODEGEN--\":2:4   */\n      iszero\n      tag_17\n      jumpi\n        /* \"--CODEGEN--\":29:30   */\n      0x00\n        /* \"--CODEGEN--\":26:27   */\n      dup1\n        /* \"--CODEGEN--\":19:31   */\n      revert\n        /* \"--CODEGEN--\":2:4   */\n    tag_17:\n        /* \"anonimity/1-ETH-Anonymity.sol\":9311:9756  function hashLeftRight(bytes32 _left, bytes32 _right) public pure returns (bytes32) {... */\n      dup2\n      add\n      swap1\n      dup1\n      dup1\n      calldataload\n      swap1\n      0x20\n      add\n      swap1\n      swap3\n      swap2\n      swap1\n      dup1\n      calldataload\n      swap1\n      0x20\n      add\n      swap1\n      swap3\n      swap2\n      swap1\n      pop\n      pop\n      pop\n      tag_18\n      jump\t// in\n    tag_16:\n      mload(0x40)\n      dup1\n      dup3\n      dup2\n      mstore\n      0x20\n      add\n      swap2\n      pop\n      pop\n      mload(0x40)\n      dup1\n      swap2\n      sub\n      swap1\n      return\n        /* \"anonimity/1-ETH-Anonymity.sol\":8177:8291  uint256 public constant FIELD_SIZE = 21888242871839275222246405745257275088548364400416034343698204186575808495617 */\n    tag_4:\n      tag_19\n      tag_20\n      jump\t// in\n    tag_19:\n      mload(0x40)\n      dup1\n      dup3\n      dup2\n      mstore\n      0x20\n      add\n      swap2\n      pop\n      pop\n      mload(0x40)\n      dup1\n      swap2\n      sub\n      swap1\n      return\n        /* \"anonimity/1-ETH-Anonymity.sol\":8453:8473  uint32 public levels */\n    tag_5:\n      tag_21\n      tag_22\n      jump\t// in\n    tag_21:\n      mload(0x40)\n      dup1\n      dup3\n      0xffffffff\n      and\n      0xffffffff\n      and\n      dup2\n      mstore\n      0x20\n      add\n      swap2\n      pop\n      pop\n      mload(0x40)\n      dup1\n      swap2\n      sub\n      swap1\n      return\n        /* \"anonimity/1-ETH-Anonymity.sol\":10634:10976  function isKnownRoot(bytes32 _root) public view returns(bool) {... */\n    tag_6:\n      tag_23\n      0x04\n      dup1\n      calldatasize\n      sub\n        /* \"--CODEGEN--\":13:15   */\n      0x20\n        /* \"--CODEGEN--\":8:11   */\n      dup2\n        /* \"--CODEGEN--\":5:16   */\n      lt\n        /* \"--CODEGEN--\":2:4   */\n      iszero\n      tag_24\n      jumpi\n        /* \"--CODEGEN--\":29:30   */\n      0x00\n        /* \"--CODEGEN--\":26:27   */\n      dup1\n        /* \"--CODEGEN--\":19:31   */\n      revert\n        /* \"--CODEGEN--\":2:4   */\n    tag_24:\n        /* \"anonimity/1-ETH-Anonymity.sol\":10634:10976  function isKnownRoot(bytes32 _root) public view returns(bool) {... */\n      dup2\n      add\n      swap1\n      dup1\n      dup1\n      calldataload\n      swap1\n      0x20\n      add\n      swap1\n      swap3\n      swap2\n      swap1\n      pop\n      pop\n      pop\n      tag_25\n      jump\t// in\n    tag_23:\n      mload(0x40)\n      dup1\n      dup3\n      iszero\n      iszero\n      iszero\n      iszero\n      dup2\n      mstore\n      0x20\n      add\n      swap2\n      pop\n      pop\n      mload(0x40)\n      dup1\n      swap2\n      sub\n      swap1\n      return\n        /* \"anonimity/1-ETH-Anonymity.sol\":8674:8708  uint32 public currentRootIndex = 0 */\n    tag_7:\n      tag_26\n      tag_27\n      jump\t// in\n    tag_26:\n      mload(0x40)\n      dup1\n      dup3\n      0xffffffff\n      and\n      0xffffffff\n      and\n      dup2\n      mstore\n      0x20\n      add\n      swap2\n      pop\n      pop\n      mload(0x40)\n      dup1\n      swap2\n      sub\n      swap1\n      return\n        /* \"anonimity/1-ETH-Anonymity.sol\":11022:11115  function getLastRoot() public view returns(bytes32) {... */\n    tag_8:\n      tag_28\n      tag_29\n      jump\t// in\n    tag_28:\n      mload(0x40)\n      dup1\n      dup3\n      dup2\n      mstore\n      0x20\n      add\n      swap2\n      pop\n      pop\n      mload(0x40)\n      dup1\n      swap2\n      sub\n      swap1\n      return\n        /* \"anonimity/1-ETH-Anonymity.sol\":8793:8832  bytes32[ROOT_HISTORY_SIZE] public roots */\n    tag_9:\n      tag_30\n      0x04\n      dup1\n      calldatasize\n      sub\n        /* \"--CODEGEN--\":13:15   */\n      0x20\n        /* \"--CODEGEN--\":8:11   */\n      dup2\n        /* \"--CODEGEN--\":5:16   */\n      lt\n        /* \"--CODEGEN--\":2:4   */\n      iszero\n      tag_31\n      jumpi\n        /* \"--CODEGEN--\":29:30   */\n      0x00\n        /* \"--CODEGEN--\":26:27   */\n      dup1\n        /* \"--CODEGEN--\":19:31   */\n      revert\n        /* \"--CODEGEN--\":2:4   */\n    tag_31:\n        /* \"anonimity/1-ETH-Anonymity.sol\":8793:8832  bytes32[ROOT_HISTORY_SIZE] public roots */\n      dup2\n      add\n      swap1\n      dup1\n      dup1\n      calldataload\n      swap1\n      0x20\n      add\n      swap1\n      swap3\n      swap2\n      swap1\n      pop\n      pop\n      pop\n      tag_32\n      jump\t// in\n    tag_30:\n      mload(0x40)\n      dup1\n      dup3\n      dup2\n      mstore\n      0x20\n      add\n      swap2\n      pop\n      pop\n      mload(0x40)\n      dup1\n      swap2\n      sub\n      swap1\n      return\n        /* \"anonimity/1-ETH-Anonymity.sol\":8743:8789  uint32 public constant ROOT_HISTORY_SIZE = 100 */\n    tag_10:\n      tag_33\n      tag_34\n      jump\t// in\n    tag_33:\n      mload(0x40)\n      dup1\n      dup3\n      0xffffffff\n      and\n      0xffffffff\n      and\n      dup2\n      mstore\n      0x20\n      add\n      swap2\n      pop\n      pop\n      mload(0x40)\n      dup1\n      swap2\n      sub\n      swap1\n      return\n        /* \"anonimity/1-ETH-Anonymity.sol\":8648:8670  bytes32[] public zeros */\n    tag_11:\n      tag_35\n      0x04\n      dup1\n      calldatasize\n      sub\n        /* \"--CODEGEN--\":13:15   */\n      0x20\n        /* \"--CODEGEN--\":8:11   */\n      dup2\n        /* \"--CODEGEN--\":5:16   */\n      lt\n        /* \"--CODEGEN--\":2:4   */\n      iszero\n      tag_36\n      jumpi\n        /* \"--CODEGEN--\":29:30   */\n      0x00\n        /* \"--CODEGEN--\":26:27   */\n      dup1\n        /* \"--CODEGEN--\":19:31   */\n      revert\n        /* \"--CODEGEN--\":2:4   */\n    tag_36:\n        /* \"anonimity/1-ETH-Anonymity.sol\":8648:8670  bytes32[] public zeros */\n      dup2\n      add\n      swap1\n      dup1\n      dup1\n      calldataload\n      swap1\n      0x20\n      add\n      swap1\n      swap3\n      swap2\n      swap1\n      pop\n      pop\n      pop\n      tag_37\n      jump\t// in\n    tag_35:\n      mload(0x40)\n      dup1\n      dup3\n      dup2\n      mstore\n      0x20\n      add\n      swap2\n      pop\n      pop\n      mload(0x40)\n      dup1\n      swap2\n      sub\n      swap1\n      return\n        /* \"anonimity/1-ETH-Anonymity.sol\":8295:8409  uint256 public constant ZERO_VALUE = 21663839004416932945382355908790599225266501822907911457504978515578255421292 */\n    tag_12:\n      tag_38\n      tag_39\n      jump\t// in\n    tag_38:\n      mload(0x40)\n      dup1\n      dup3\n      dup2\n      mstore\n      0x20\n      add\n      swap2\n      pop\n      pop\n      mload(0x40)\n      dup1\n      swap2\n      sub\n      swap1\n      return\n        /* \"anonimity/1-ETH-Anonymity.sol\":8613:8644  bytes32[] public filledSubtrees */\n    tag_13:\n      tag_40\n      0x04\n      dup1\n      calldatasize\n      sub\n        /* \"--CODEGEN--\":13:15   */\n      0x20\n        /* \"--CODEGEN--\":8:11   */\n      dup2\n        /* \"--CODEGEN--\":5:16   */\n      lt\n        /* \"--CODEGEN--\":2:4   */\n      iszero\n      tag_41\n      jumpi\n        /* \"--CODEGEN--\":29:30   */\n      0x00\n        /* \"--CODEGEN--\":26:27   */\n      dup1\n        /* \"--CODEGEN--\":19:31   */\n      revert\n        /* \"--CODEGEN--\":2:4   */\n    tag_41:\n        /* \"anonimity/1-ETH-Anonymity.sol\":8613:8644  bytes32[] public filledSubtrees */\n      dup2\n      add\n      swap1\n      dup1\n      dup1\n      calldataload\n      swap1\n      0x20\n      add\n      swap1\n      swap3\n      swap2\n      swap1\n      pop\n      pop\n      pop\n      tag_42\n      jump\t// in\n    tag_40:\n      mload(0x40)\n      dup1\n      dup3\n      dup2\n      mstore\n      0x20\n      add\n      swap2\n      pop\n      pop\n      mload(0x40)\n      dup1\n      swap2\n      sub\n      swap1\n      return\n        /* \"anonimity/1-ETH-Anonymity.sol\":8712:8739  uint32 public nextIndex = 0 */\n    tag_14:\n      tag_43\n      tag_44\n      jump\t// in\n    tag_43:\n      mload(0x40)\n      dup1\n      dup3\n      0xffffffff\n      and\n      0xffffffff\n      and\n      dup2\n      mstore\n      0x20\n      add\n      swap2\n      pop\n      pop\n      mload(0x40)\n      dup1\n      swap2\n      sub\n      swap1\n      return\n        /* \"anonimity/1-ETH-Anonymity.sol\":9311:9756  function hashLeftRight(bytes32 _left, bytes32 _right) public pure returns (bytes32) {... */\n    tag_18:\n        /* \"anonimity/1-ETH-Anonymity.sol\":9386:9393  bytes32 */\n      0x00\n        /* \"anonimity/1-ETH-Anonymity.sol\":8214:8291  21888242871839275222246405745257275088548364400416034343698204186575808495617 */\n      0x30644e72e131a029b85045b68181585d2833e84879b9709143e1f593f0000001\n        /* \"anonimity/1-ETH-Anonymity.sol\":9417:9422  _left */\n      dup4\n        /* \"anonimity/1-ETH-Anonymity.sol\":9409:9423  uint256(_left) */\n      0x00\n      shr\n        /* \"anonimity/1-ETH-Anonymity.sol\":9409:9436  uint256(_left) < FIELD_SIZE */\n      lt\n        /* \"anonimity/1-ETH-Anonymity.sol\":9401:9473  require(uint256(_left) < FIELD_SIZE, \"_left should be inside the field\") */\n      tag_46\n      jumpi\n      mload(0x40)\n      0x08c379a000000000000000000000000000000000000000000000000000000000\n      dup2\n      mstore\n      0x04\n      add\n      dup1\n      dup1\n      0x20\n      add\n      dup3\n      dup2\n      sub\n      dup3\n      mstore\n      0x20\n      dup2\n      mstore\n      0x20\n      add\n      dup1\n      0x5f6c6566742073686f756c6420626520696e7369646520746865206669656c64\n      dup2\n      mstore\n      pop\n      0x20\n      add\n      swap2\n      pop\n      pop\n      mload(0x40)\n      dup1\n      swap2\n      sub\n      swap1\n      revert\n    tag_46:\n        /* \"anonimity/1-ETH-Anonymity.sol\":8214:8291  21888242871839275222246405745257275088548364400416034343698204186575808495617 */\n      0x30644e72e131a029b85045b68181585d2833e84879b9709143e1f593f0000001\n        /* \"anonimity/1-ETH-Anonymity.sol\":9495:9501  _right */\n      dup3\n        /* \"anonimity/1-ETH-Anonymity.sol\":9487:9502  uint256(_right) */\n      0x00\n      shr\n        /* \"anonimity/1-ETH-Anonymity.sol\":9487:9515  uint256(_right) < FIELD_SIZE */\n      lt\n        /* \"anonimity/1-ETH-Anonymity.sol\":9479:9553  require(uint256(_right) < FIELD_SIZE, \"_right should be inside the field\") */\n      tag_47\n      jumpi\n      mload(0x40)\n      0x08c379a000000000000000000000000000000000000000000000000000000000\n      dup2\n      mstore\n      0x04\n      add\n      dup1\n      dup1\n      0x20\n      add\n      dup3\n      dup2\n      sub\n      dup3\n      mstore\n      0x21\n      dup2\n      mstore\n      0x20\n      add\n      dup1\n      data_6542fa7ce511fbc255ce93f94c5fe79a03559888b6c0d6b4bd92b57ef65f3b4e\n      0x21\n      swap2\n      codecopy\n      0x40\n      add\n      swap2\n      pop\n      pop\n      mload(0x40)\n      dup1\n      swap2\n      sub\n      swap1\n      revert\n    tag_47:\n        /* \"anonimity/1-ETH-Anonymity.sol\":9559:9568  uint256 R */\n      0x00\n        /* \"anonimity/1-ETH-Anonymity.sol\":9579:9584  _left */\n      dup4\n        /* \"anonimity/1-ETH-Anonymity.sol\":9571:9585  uint256(_left) */\n      0x00\n      shr\n        /* \"anonimity/1-ETH-Anonymity.sol\":9559:9585  uint256 R = uint256(_left) */\n      swap1\n      pop\n        /* \"anonimity/1-ETH-Anonymity.sol\":9591:9600  uint256 C */\n      0x00\n        /* \"anonimity/1-ETH-Anonymity.sol\":9603:9604  0 */\n      dup1\n        /* \"anonimity/1-ETH-Anonymity.sol\":9591:9604  uint256 C = 0 */\n      swap1\n      pop\n        /* \"anonimity/1-ETH-Anonymity.sol\":9619:9625  Hasher */\n      linkerSymbol(\"b1d08b67b448c1738aa9c5efeb68bcb22194bda08022125c8b5ea581d01e7937\")\n        /* \"anonimity/1-ETH-Anonymity.sol\":9619:9636  Hasher.MiMCSponge */\n      0xf47d33b5\n        /* \"anonimity/1-ETH-Anonymity.sol\":9637:9638  R */\n      dup4\n        /* \"anonimity/1-ETH-Anonymity.sol\":9640:9641  C */\n      dup4\n        /* \"anonimity/1-ETH-Anonymity.sol\":9619:9642  Hasher.MiMCSponge(R, C) */\n      mload(0x40)\n      dup4\n      0xffffffff\n      and\n      0xe0\n      shl\n      dup2\n      mstore\n      0x04\n      add\n      dup1\n      dup4\n      dup2\n      mstore\n      0x20\n      add\n      dup3\n      dup2\n      mstore\n      0x20\n      add\n      swap3\n      pop\n      pop\n      pop\n      0x40\n      dup1\n      mload\n      dup1\n      dup4\n      sub\n      dup2\n      dup7\n      dup1\n      extcodesize\n      iszero\n        /* \"--CODEGEN--\":8:17   */\n      dup1\n        /* \"--CODEGEN--\":5:7   */\n      iszero\n      tag_48\n      jumpi\n        /* \"--CODEGEN--\":30:31   */\n      0x00\n        /* \"--CODEGEN--\":27:28   */\n      dup1\n        /* \"--CODEGEN--\":20:32   */\n      revert\n        /* \"--CODEGEN--\":5:7   */\n    tag_48:\n        /* \"anonimity/1-ETH-Anonymity.sol\":9619:9642  Hasher.MiMCSponge(R, C) */\n      pop\n      gas\n      delegatecall\n      iszero\n        /* \"--CODEGEN--\":8:17   */\n      dup1\n        /* \"--CODEGEN--\":5:7   */\n      iszero\n      tag_49\n      jumpi\n        /* \"--CODEGEN--\":45:61   */\n      returndatasize\n        /* \"--CODEGEN--\":42:43   */\n      0x00\n        /* \"--CODEGEN--\":39:40   */\n      dup1\n        /* \"--CODEGEN--\":24:62   */\n      returndatacopy\n        /* \"--CODEGEN--\":77:93   */\n      returndatasize\n        /* \"--CODEGEN--\":74:75   */\n      0x00\n        /* \"--CODEGEN--\":67:94   */\n      revert\n        /* \"--CODEGEN--\":5:7   */\n    tag_49:\n        /* \"anonimity/1-ETH-Anonymity.sol\":9619:9642  Hasher.MiMCSponge(R, C) */\n      pop\n      pop\n      pop\n      pop\n      mload(0x40)\n      returndatasize\n        /* \"--CODEGEN--\":13:15   */\n      0x40\n        /* \"--CODEGEN--\":8:11   */\n      dup2\n        /* \"--CODEGEN--\":5:16   */\n      lt\n        /* \"--CODEGEN--\":2:4   */\n      iszero\n      tag_50\n      jumpi\n        /* \"--CODEGEN--\":29:30   */\n      0x00\n        /* \"--CODEGEN--\":26:27   */\n      dup1\n        /* \"--CODEGEN--\":19:31   */\n      revert\n        /* \"--CODEGEN--\":2:4   */\n    tag_50:\n        /* \"anonimity/1-ETH-Anonymity.sol\":9619:9642  Hasher.MiMCSponge(R, C) */\n      dup2\n      add\n      swap1\n      dup1\n      dup1\n      mload\n      swap1\n      0x20\n      add\n      swap1\n      swap3\n      swap2\n      swap1\n      dup1\n      mload\n      swap1\n      0x20\n      add\n      swap1\n      swap3\n      swap2\n      swap1\n      pop\n      pop\n      pop\n        /* \"anonimity/1-ETH-Anonymity.sol\":9610:9642  (R, C) = Hasher.MiMCSponge(R, C) */\n      dup1\n      swap3\n      pop\n      dup2\n      swap4\n      pop\n      pop\n      pop\n        /* \"anonimity/1-ETH-Anonymity.sol\":8214:8291  21888242871839275222246405745257275088548364400416034343698204186575808495617 */\n      0x30644e72e131a029b85045b68181585d2833e84879b9709143e1f593f0000001\n        /* \"anonimity/1-ETH-Anonymity.sol\":9652:9690  addmod(R, uint256(_right), FIELD_SIZE) */\n      dup1\n      tag_51\n      jumpi\n      invalid\n    tag_51:\n        /* \"anonimity/1-ETH-Anonymity.sol\":9670:9676  _right */\n      dup5\n        /* \"anonimity/1-ETH-Anonymity.sol\":9662:9677  uint256(_right) */\n      0x00\n      shr\n        /* \"anonimity/1-ETH-Anonymity.sol\":9659:9660  R */\n      dup4\n        /* \"anonimity/1-ETH-Anonymity.sol\":9652:9690  addmod(R, uint256(_right), FIELD_SIZE) */\n      addmod\n        /* \"anonimity/1-ETH-Anonymity.sol\":9648:9690  R = addmod(R, uint256(_right), FIELD_SIZE) */\n      swap2\n      pop\n        /* \"anonimity/1-ETH-Anonymity.sol\":9705:9711  Hasher */\n      linkerSymbol(\"b1d08b67b448c1738aa9c5efeb68bcb22194bda08022125c8b5ea581d01e7937\")\n        /* \"anonimity/1-ETH-Anonymity.sol\":9705:9722  Hasher.MiMCSponge */\n      0xf47d33b5\n        /* \"anonimity/1-ETH-Anonymity.sol\":9723:9724  R */\n      dup4\n        /* \"anonimity/1-ETH-Anonymity.sol\":9726:9727  C */\n      dup4\n        /* \"anonimity/1-ETH-Anonymity.sol\":9705:9728  Hasher.MiMCSponge(R, C) */\n      mload(0x40)\n      dup4\n      0xffffffff\n      and\n      0xe0\n      shl\n      dup2\n      mstore\n      0x04\n      add\n      dup1\n      dup4\n      dup2\n      mstore\n      0x20\n      add\n      dup3\n      dup2\n      mstore\n      0x20\n      add\n      swap3\n      pop\n      pop\n      pop\n      0x40\n      dup1\n      mload\n      dup1\n      dup4\n      sub\n      dup2\n      dup7\n      dup1\n      extcodesize\n      iszero\n        /* \"--CODEGEN--\":8:17   */\n      dup1\n        /* \"--CODEGEN--\":5:7   */\n      iszero\n      tag_52\n      jumpi\n        /* \"--CODEGEN--\":30:31   */\n      0x00\n        /* \"--CODEGEN--\":27:28   */\n      dup1\n        /* \"--CODEGEN--\":20:32   */\n      revert\n        /* \"--CODEGEN--\":5:7   */\n    tag_52:\n        /* \"anonimity/1-ETH-Anonymity.sol\":9705:9728  Hasher.MiMCSponge(R, C) */\n      pop\n      gas\n      delegatecall\n      iszero\n        /* \"--CODEGEN--\":8:17   */\n      dup1\n        /* \"--CODEGEN--\":5:7   */\n      iszero\n      tag_53\n      jumpi\n        /* \"--CODEGEN--\":45:61   */\n      returndatasize\n        /* \"--CODEGEN--\":42:43   */\n      0x00\n        /* \"--CODEGEN--\":39:40   */\n      dup1\n        /* \"--CODEGEN--\":24:62   */\n      returndatacopy\n        /* \"--CODEGEN--\":77:93   */\n      returndatasize\n        /* \"--CODEGEN--\":74:75   */\n      0x00\n        /* \"--CODEGEN--\":67:94   */\n      revert\n        /* \"--CODEGEN--\":5:7   */\n    tag_53:\n        /* \"anonimity/1-ETH-Anonymity.sol\":9705:9728  Hasher.MiMCSponge(R, C) */\n      pop\n      pop\n      pop\n      pop\n      mload(0x40)\n      returndatasize\n        /* \"--CODEGEN--\":13:15   */\n      0x40\n        /* \"--CODEGEN--\":8:11   */\n      dup2\n        /* \"--CODEGEN--\":5:16   */\n      lt\n        /* \"--CODEGEN--\":2:4   */\n      iszero\n      tag_54\n      jumpi\n        /* \"--CODEGEN--\":29:30   */\n      0x00\n        /* \"--CODEGEN--\":26:27   */\n      dup1\n        /* \"--CODEGEN--\":19:31   */\n      revert\n        /* \"--CODEGEN--\":2:4   */\n    tag_54:\n        /* \"anonimity/1-ETH-Anonymity.sol\":9705:9728  Hasher.MiMCSponge(R, C) */\n      dup2\n      add\n      swap1\n      dup1\n      dup1\n      mload\n      swap1\n      0x20\n      add\n      swap1\n      swap3\n      swap2\n      swap1\n      dup1\n      mload\n      swap1\n      0x20\n      add\n      swap1\n      swap3\n      swap2\n      swap1\n      pop\n      pop\n      pop\n        /* \"anonimity/1-ETH-Anonymity.sol\":9696:9728  (R, C) = Hasher.MiMCSponge(R, C) */\n      dup1\n      swap3\n      pop\n      dup2\n      swap4\n      pop\n      pop\n      pop\n        /* \"anonimity/1-ETH-Anonymity.sol\":9749:9750  R */\n      dup2\n        /* \"anonimity/1-ETH-Anonymity.sol\":9741:9751  bytes32(R) */\n      0x00\n      shl\n        /* \"anonimity/1-ETH-Anonymity.sol\":9734:9751  return bytes32(R) */\n      swap3\n      pop\n      pop\n      pop\n        /* \"anonimity/1-ETH-Anonymity.sol\":9311:9756  function hashLeftRight(bytes32 _left, bytes32 _right) public pure returns (bytes32) {... */\n      swap3\n      swap2\n      pop\n      pop\n      jump\t// out\n        /* \"anonimity/1-ETH-Anonymity.sol\":8177:8291  uint256 public constant FIELD_SIZE = 21888242871839275222246405745257275088548364400416034343698204186575808495617 */\n    tag_20:\n        /* \"anonimity/1-ETH-Anonymity.sol\":8214:8291  21888242871839275222246405745257275088548364400416034343698204186575808495617 */\n      0x30644e72e131a029b85045b68181585d2833e84879b9709143e1f593f0000001\n        /* \"anonimity/1-ETH-Anonymity.sol\":8177:8291  uint256 public constant FIELD_SIZE = 21888242871839275222246405745257275088548364400416034343698204186575808495617 */\n      dup2\n      jump\t// out\n        /* \"anonimity/1-ETH-Anonymity.sol\":8453:8473  uint32 public levels */\n    tag_22:\n      0x00\n      dup1\n      swap1\n      sload\n      swap1\n      0x0100\n      exp\n      swap1\n      div\n      0xffffffff\n      and\n      dup2\n      jump\t// out\n        /* \"anonimity/1-ETH-Anonymity.sol\":10634:10976  function isKnownRoot(bytes32 _root) public view returns(bool) {... */\n    tag_25:\n        /* \"anonimity/1-ETH-Anonymity.sol\":10690:10694  bool */\n      0x00\n        /* \"anonimity/1-ETH-Anonymity.sol\":10715:10716  0 */\n      dup1\n        /* \"anonimity/1-ETH-Anonymity.sol\":10706:10716  _root == 0 */\n      0x00\n      shl\n        /* \"anonimity/1-ETH-Anonymity.sol\":10706:10711  _root */\n      dup3\n        /* \"anonimity/1-ETH-Anonymity.sol\":10706:10716  _root == 0 */\n      eq\n        /* \"anonimity/1-ETH-Anonymity.sol\":10702:10745  if (_root == 0) {... */\n      iszero\n      tag_56\n      jumpi\n        /* \"anonimity/1-ETH-Anonymity.sol\":10733:10738  false */\n      0x00\n        /* \"anonimity/1-ETH-Anonymity.sol\":10726:10738  return false */\n      swap1\n      pop\n      jump(tag_55)\n        /* \"anonimity/1-ETH-Anonymity.sol\":10702:10745  if (_root == 0) {... */\n    tag_56:\n        /* \"anonimity/1-ETH-Anonymity.sol\":10750:10758  uint32 i */\n      0x00\n        /* \"anonimity/1-ETH-Anonymity.sol\":10761:10777  currentRootIndex */\n      0x03\n      0x00\n      swap1\n      sload\n      swap1\n      0x0100\n      exp\n      swap1\n      div\n      0xffffffff\n      and\n        /* \"anonimity/1-ETH-Anonymity.sol\":10750:10777  uint32 i = currentRootIndex */\n      swap1\n      pop\n        /* \"anonimity/1-ETH-Anonymity.sol\":10783:10954  do {... */\n    tag_57:\n        /* \"anonimity/1-ETH-Anonymity.sol\":10807:10812  roots */\n      0x04\n        /* \"anonimity/1-ETH-Anonymity.sol\":10813:10814  i */\n      dup2\n        /* \"anonimity/1-ETH-Anonymity.sol\":10807:10815  roots[i] */\n      0xffffffff\n      and\n      0x64\n      dup2\n      lt\n      tag_60\n      jumpi\n      invalid\n    tag_60:\n      add\n      sload\n        /* \"anonimity/1-ETH-Anonymity.sol\":10798:10803  _root */\n      dup4\n        /* \"anonimity/1-ETH-Anonymity.sol\":10798:10815  _root == roots[i] */\n      eq\n        /* \"anonimity/1-ETH-Anonymity.sol\":10794:10847  if (_root == roots[i]) {... */\n      iszero\n      tag_62\n      jumpi\n        /* \"anonimity/1-ETH-Anonymity.sol\":10834:10838  true */\n      0x01\n        /* \"anonimity/1-ETH-Anonymity.sol\":10827:10838  return true */\n      swap2\n      pop\n      pop\n      jump(tag_55)\n        /* \"anonimity/1-ETH-Anonymity.sol\":10794:10847  if (_root == roots[i]) {... */\n    tag_62:\n        /* \"anonimity/1-ETH-Anonymity.sol\":10863:10864  0 */\n      0x00\n        /* \"anonimity/1-ETH-Anonymity.sol\":10858:10859  i */\n      dup2\n        /* \"anonimity/1-ETH-Anonymity.sol\":10858:10864  i == 0 */\n      0xffffffff\n      and\n      eq\n        /* \"anonimity/1-ETH-Anonymity.sol\":10854:10906  if (i == 0) {... */\n      iszero\n      tag_63\n      jumpi\n        /* \"anonimity/1-ETH-Anonymity.sol\":8786:8789  100 */\n      0x64\n        /* \"anonimity/1-ETH-Anonymity.sol\":10876:10897  i = ROOT_HISTORY_SIZE */\n      swap1\n      pop\n        /* \"anonimity/1-ETH-Anonymity.sol\":10854:10906  if (i == 0) {... */\n    tag_63:\n        /* \"anonimity/1-ETH-Anonymity.sol\":10913:10916  i-- */\n      dup1\n      dup1\n      0x01\n      swap1\n      sub\n      swap2\n      pop\n      pop\n        /* \"anonimity/1-ETH-Anonymity.sol\":10936:10952  currentRootIndex */\n      0x03\n      0x00\n      swap1\n      sload\n      swap1\n      0x0100\n      exp\n      swap1\n      div\n      0xffffffff\n      and\n        /* \"anonimity/1-ETH-Anonymity.sol\":10931:10952  i != currentRootIndex */\n      0xffffffff\n      and\n        /* \"anonimity/1-ETH-Anonymity.sol\":10931:10932  i */\n      dup2\n        /* \"anonimity/1-ETH-Anonymity.sol\":10931:10952  i != currentRootIndex */\n      0xffffffff\n      and\n      eq\n      iszero\n        /* \"anonimity/1-ETH-Anonymity.sol\":10783:10954  do {... */\n      tag_57\n      jumpi\n        /* \"anonimity/1-ETH-Anonymity.sol\":10966:10971  false */\n      0x00\n        /* \"anonimity/1-ETH-Anonymity.sol\":10959:10971  return false */\n      swap2\n      pop\n      pop\n        /* \"anonimity/1-ETH-Anonymity.sol\":10634:10976  function isKnownRoot(bytes32 _root) public view returns(bool) {... */\n    tag_55:\n      swap2\n      swap1\n      pop\n      jump\t// out\n        /* \"anonimity/1-ETH-Anonymity.sol\":8674:8708  uint32 public currentRootIndex = 0 */\n    tag_27:\n      0x03\n      0x00\n      swap1\n      sload\n      swap1\n      0x0100\n      exp\n      swap1\n      div\n      0xffffffff\n      and\n      dup2\n      jump\t// out\n        /* \"anonimity/1-ETH-Anonymity.sol\":11022:11115  function getLastRoot() public view returns(bytes32) {... */\n    tag_29:\n        /* \"anonimity/1-ETH-Anonymity.sol\":11065:11072  bytes32 */\n      0x00\n        /* \"anonimity/1-ETH-Anonymity.sol\":11087:11092  roots */\n      0x04\n        /* \"anonimity/1-ETH-Anonymity.sol\":11093:11109  currentRootIndex */\n      0x03\n      0x00\n      swap1\n      sload\n      swap1\n      0x0100\n      exp\n      swap1\n      div\n      0xffffffff\n      and\n        /* \"anonimity/1-ETH-Anonymity.sol\":11087:11110  roots[currentRootIndex] */\n      0xffffffff\n      and\n      0x64\n      dup2\n      lt\n      tag_65\n      jumpi\n      invalid\n    tag_65:\n      add\n      sload\n        /* \"anonimity/1-ETH-Anonymity.sol\":11080:11110  return roots[currentRootIndex] */\n      swap1\n      pop\n        /* \"anonimity/1-ETH-Anonymity.sol\":11022:11115  function getLastRoot() public view returns(bytes32) {... */\n      swap1\n      jump\t// out\n        /* \"anonimity/1-ETH-Anonymity.sol\":8793:8832  bytes32[ROOT_HISTORY_SIZE] public roots */\n    tag_32:\n      0x04\n      dup2\n      0x64\n      dup2\n      lt\n      tag_67\n      jumpi\n      invalid\n    tag_67:\n      add\n      0x00\n      swap2\n      pop\n      swap1\n      pop\n      sload\n      dup2\n      jump\t// out\n        /* \"anonimity/1-ETH-Anonymity.sol\":8743:8789  uint32 public constant ROOT_HISTORY_SIZE = 100 */\n    tag_34:\n        /* \"anonimity/1-ETH-Anonymity.sol\":8786:8789  100 */\n      0x64\n        /* \"anonimity/1-ETH-Anonymity.sol\":8743:8789  uint32 public constant ROOT_HISTORY_SIZE = 100 */\n      dup2\n      jump\t// out\n        /* \"anonimity/1-ETH-Anonymity.sol\":8648:8670  bytes32[] public zeros */\n    tag_37:\n      0x02\n      dup2\n      dup2\n      sload\n      dup2\n      lt\n      tag_69\n      jumpi\n      invalid\n    tag_69:\n      swap1\n      0x00\n      mstore\n      keccak256(0x00, 0x20)\n      add\n      0x00\n      swap2\n      pop\n      swap1\n      pop\n      sload\n      dup2\n      jump\t// out\n        /* \"anonimity/1-ETH-Anonymity.sol\":8295:8409  uint256 public constant ZERO_VALUE = 21663839004416932945382355908790599225266501822907911457504978515578255421292 */\n    tag_39:\n        /* \"anonimity/1-ETH-Anonymity.sol\":8332:8409  21663839004416932945382355908790599225266501822907911457504978515578255421292 */\n      0x2fe54c60d3acabf3343a35b6eba15db4821b340f76e741e2249685ed4899af6c\n        /* \"anonimity/1-ETH-Anonymity.sol\":8295:8409  uint256 public constant ZERO_VALUE = 21663839004416932945382355908790599225266501822907911457504978515578255421292 */\n      dup2\n      jump\t// out\n        /* \"anonimity/1-ETH-Anonymity.sol\":8613:8644  bytes32[] public filledSubtrees */\n    tag_42:\n      0x01\n      dup2\n      dup2\n      sload\n      dup2\n      lt\n      tag_71\n      jumpi\n      invalid\n    tag_71:\n      swap1\n      0x00\n      mstore\n      keccak256(0x00, 0x20)\n      add\n      0x00\n      swap2\n      pop\n      swap1\n      pop\n      sload\n      dup2\n      jump\t// out\n        /* \"anonimity/1-ETH-Anonymity.sol\":8712:8739  uint32 public nextIndex = 0 */\n    tag_44:\n      0x03\n      0x04\n      swap1\n      sload\n      swap1\n      0x0100\n      exp\n      swap1\n      div\n      0xffffffff\n      and\n      dup2\n      jump\t// out\n    stop\n    data_6542fa7ce511fbc255ce93f94c5fe79a03559888b6c0d6b4bd92b57ef65f3b4e 5f72696768742073686f756c6420626520696e7369646520746865206669656c64\n\n    auxdata: 0xa265627a7a7231582036979861f0ced40d19da2d9bbd701d3e02cec28e9b78b5a4ecb7d0134558902364736f6c63430005110032\n}\n",
				"bytecode": {
					"linkReferences": {
						"anonimity/1-ETH-Anonymity.sol": {
							"Hasher": [
								{
									"length": 20,
									"start": 1487
								},
								{
									"length": 20,
									"start": 1698
								}
							]
						}
					},
					"object": "60806040526000600360006101000a81548163ffffffff021916908363ffffffff1602179055506000600360046101000a81548163ffffffff021916908363ffffffff16021790555034801561005457600080fd5b5060146000806101000a81548163ffffffff021916908363ffffffff16021790555060007f2fe54c60d3acabf3343a35b6eba15db4821b340f76e741e2249685ed4899af6c60001b9050600281908060018154018082558091505090600182039060005260206000200160009091929091909150555060018190806001815401808255809150509060018203906000526020600020016000909192909190915055506000600190505b6000809054906101000a900463ffffffff1663ffffffff168163ffffffff161015610187576002829080600181540180825580915050906001820390600052602060002001600090919290919091505550600182908060018154018082558091505090600182039060005260206000200160009091929091909150555080806001019150506100fd565b50506107c7806101986000396000f3fe608060405234801561001057600080fd5b50600436106100b45760003560e01c8063c2b40ae411610071578063c2b40ae4146101db578063cd87a3b41461021d578063e829558814610247578063ec73295914610289578063f178e47c146102a7578063fc7e9c6f146102e9576100b4565b806338bf282e146100b9578063414a37ba146101055780634ecf518b146101235780636d9833e31461014d57806390eeb02b14610193578063ba70f757146101bd575b600080fd5b6100ef600480360360408110156100cf57600080fd5b810190808035906020019092919080359060200190929190505050610313565b6040518082815260200191505060405180910390f35b61010d6105b9565b6040518082815260200191505060405180910390f35b61012b6105dd565b604051808263ffffffff1663ffffffff16815260200191505060405180910390f35b6101796004803603602081101561016357600080fd5b81019080803590602001909291905050506105f2565b604051808215151515815260200191505060405180910390f35b61019b610694565b604051808263ffffffff1663ffffffff16815260200191505060405180910390f35b6101c56106aa565b6040518082815260200191505060405180910390f35b610207600480360360208110156101f157600080fd5b81019080803590602001909291905050506106d8565b6040518082815260200191505060405180910390f35b6102256106f0565b604051808263ffffffff1663ffffffff16815260200191505060405180910390f35b6102736004803603602081101561025d57600080fd5b81019080803590602001909291905050506106f5565b6040518082815260200191505060405180910390f35b610291610716565b6040518082815260200191505060405180910390f35b6102d3600480360360208110156102bd57600080fd5b810190808035906020019092919050505061073a565b6040518082815260200191505060405180910390f35b6102f161075b565b604051808263ffffffff1663ffffffff16815260200191505060405180910390f35b60007f30644e72e131a029b85045b68181585d2833e84879b9709143e1f593f00000018360001c106103ad576040517f08c379a00000000000000000000000000000000000000000000000000000000081526004018080602001828103825260208152602001807f5f6c6566742073686f756c6420626520696e7369646520746865206669656c6481525060200191505060405180910390fd5b7f30644e72e131a029b85045b68181585d2833e84879b9709143e1f593f00000018260001c10610428576040517f08c379a00000000000000000000000000000000000000000000000000000000081526004018080602001828103825260218152602001806107726021913960400191505060405180910390fd5b60008360001c9050600080905073__$b1d08b67b448c1738aa9c5efeb68bcb221$__63f47d33b583836040518363ffffffff1660e01b81526004018083815260200182815260200192505050604080518083038186803b15801561048b57600080fd5b505af415801561049f573d6000803e3d6000fd5b505050506040513d60408110156104b557600080fd5b81019080805190602001909291908051906020019092919050505080925081935050507f30644e72e131a029b85045b68181585d2833e84879b9709143e1f593f00000018061050057fe5b8460001c8308915073__$b1d08b67b448c1738aa9c5efeb68bcb221$__63f47d33b583836040518363ffffffff1660e01b81526004018083815260200182815260200192505050604080518083038186803b15801561055e57600080fd5b505af4158015610572573d6000803e3d6000fd5b505050506040513d604081101561058857600080fd5b81019080805190602001909291908051906020019092919050505080925081935050508160001b9250505092915050565b7f30644e72e131a029b85045b68181585d2833e84879b9709143e1f593f000000181565b6000809054906101000a900463ffffffff1681565b60008060001b821415610608576000905061068f565b6000600360009054906101000a900463ffffffff1690505b60048163ffffffff166064811061063357fe5b015483141561064657600191505061068f565b60008163ffffffff16141561065a57606490505b808060019003915050600360009054906101000a900463ffffffff1663ffffffff168163ffffffff1614156106205760009150505b919050565b600360009054906101000a900463ffffffff1681565b60006004600360009054906101000a900463ffffffff1663ffffffff16606481106106d157fe5b0154905090565b600481606481106106e557fe5b016000915090505481565b606481565b6002818154811061070257fe5b906000526020600020016000915090505481565b7f2fe54c60d3acabf3343a35b6eba15db4821b340f76e741e2249685ed4899af6c81565b6001818154811061074757fe5b906000526020600020016000915090505481565b600360049054906101000a900463ffffffff168156fe5f72696768742073686f756c6420626520696e7369646520746865206669656c64a265627a7a7231582036979861f0ced40d19da2d9bbd701d3e02cec28e9b78b5a4ecb7d0134558902364736f6c63430005110032",
					"opcodes": "PUSH1 0x80 PUSH1 0x40 MSTORE PUSH1 0x0 PUSH1 0x3 PUSH1 0x0 PUSH2 0x100 EXP DUP2 SLOAD DUP2 PUSH4 0xFFFFFFFF MUL NOT AND SWAP1 DUP4 PUSH4 0xFFFFFFFF AND MUL OR SWAP1 SSTORE POP PUSH1 0x0 PUSH1 0x3 PUSH1 0x4 PUSH2 0x100 EXP DUP2 SLOAD DUP2 PUSH4 0xFFFFFFFF MUL NOT AND SWAP1 DUP4 PUSH4 0xFFFFFFFF AND MUL OR SWAP1 SSTORE POP CALLVALUE DUP1 ISZERO PUSH2 0x54 JUMPI PUSH1 0x0 DUP1 REVERT JUMPDEST POP PUSH1 0x14 PUSH1 0x0 DUP1 PUSH2 0x100 EXP DUP2 SLOAD DUP2 PUSH4 0xFFFFFFFF MUL NOT AND SWAP1 DUP4 PUSH4 0xFFFFFFFF AND MUL OR SWAP1 SSTORE POP PUSH1 0x0 PUSH32 0x2FE54C60D3ACABF3343A35B6EBA15DB4821B340F76E741E2249685ED4899AF6C PUSH1 0x0 SHL SWAP1 POP PUSH1 0x2 DUP2 SWAP1 DUP1 PUSH1 0x1 DUP2 SLOAD ADD DUP1 DUP3 SSTORE DUP1 SWAP2 POP POP SWAP1 PUSH1 0x1 DUP3 SUB SWAP1 PUSH1 0x0 MSTORE PUSH1 0x20 PUSH1 0x0 KECCAK256 ADD PUSH1 0x0 SWAP1 SWAP2 SWAP3 SWAP1 SWAP2 SWAP1 SWAP2 POP SSTORE POP PUSH1 0x1 DUP2 SWAP1 DUP1 PUSH1 0x1 DUP2 SLOAD ADD DUP1 DUP3 SSTORE DUP1 SWAP2 POP POP SWAP1 PUSH1 0x1 DUP3 SUB SWAP1 PUSH1 0x0 MSTORE PUSH1 0x20 PUSH1 0x0 KECCAK256 ADD PUSH1 0x0 SWAP1 SWAP2 SWAP3 SWAP1 SWAP2 SWAP1 SWAP2 POP SSTORE POP PUSH1 0x0 PUSH1 0x1 SWAP1 POP JUMPDEST PUSH1 0x0 DUP1 SWAP1 SLOAD SWAP1 PUSH2 0x100 EXP SWAP1 DIV PUSH4 0xFFFFFFFF AND PUSH4 0xFFFFFFFF AND DUP2 PUSH4 0xFFFFFFFF AND LT ISZERO PUSH2 0x187 JUMPI PUSH1 0x2 DUP3 SWAP1 DUP1 PUSH1 0x1 DUP2 SLOAD ADD DUP1 DUP3 SSTORE DUP1 SWAP2 POP POP SWAP1 PUSH1 0x1 DUP3 SUB SWAP1 PUSH1 0x0 MSTORE PUSH1 0x20 PUSH1 0x0 KECCAK256 ADD PUSH1 0x0 SWAP1 SWAP2 SWAP3 SWAP1 SWAP2 SWAP1 SWAP2 POP SSTORE POP PUSH1 0x1 DUP3 SWAP1 DUP1 PUSH1 0x1 DUP2 SLOAD ADD DUP1 DUP3 SSTORE DUP1 SWAP2 POP POP SWAP1 PUSH1 0x1 DUP3 SUB SWAP1 PUSH1 0x0 MSTORE PUSH1 0x20 PUSH1 0x0 KECCAK256 ADD PUSH1 0x0 SWAP1 SWAP2 SWAP3 SWAP1 SWAP2 SWAP1 SWAP2 POP SSTORE POP DUP1 DUP1 PUSH1 0x1 ADD SWAP2 POP POP PUSH2 0xFD JUMP JUMPDEST POP POP PUSH2 0x7C7 DUP1 PUSH2 0x198 PUSH1 0x0 CODECOPY PUSH1 0x0 RETURN INVALID PUSH1 0x80 PUSH1 0x40 MSTORE CALLVALUE DUP1 ISZERO PUSH2 0x10 JUMPI PUSH1 0x0 DUP1 REVERT JUMPDEST POP PUSH1 0x4 CALLDATASIZE LT PUSH2 0xB4 JUMPI PUSH1 0x0 CALLDATALOAD PUSH1 0xE0 SHR DUP1 PUSH4 0xC2B40AE4 GT PUSH2 0x71 JUMPI DUP1 PUSH4 0xC2B40AE4 EQ PUSH2 0x1DB JUMPI DUP1 PUSH4 0xCD87A3B4 EQ PUSH2 0x21D JUMPI DUP1 PUSH4 0xE8295588 EQ PUSH2 0x247 JUMPI DUP1 PUSH4 0xEC732959 EQ PUSH2 0x289 JUMPI DUP1 PUSH4 0xF178E47C EQ PUSH2 0x2A7 JUMPI DUP1 PUSH4 0xFC7E9C6F EQ PUSH2 0x2E9 JUMPI PUSH2 0xB4 JUMP JUMPDEST DUP1 PUSH4 0x38BF282E EQ PUSH2 0xB9 JUMPI DUP1 PUSH4 0x414A37BA EQ PUSH2 0x105 JUMPI DUP1 PUSH4 0x4ECF518B EQ PUSH2 0x123 JUMPI DUP1 PUSH4 0x6D9833E3 EQ PUSH2 0x14D JUMPI DUP1 PUSH4 0x90EEB02B EQ PUSH2 0x193 JUMPI DUP1 PUSH4 0xBA70F757 EQ PUSH2 0x1BD JUMPI JUMPDEST PUSH1 0x0 DUP1 REVERT JUMPDEST PUSH2 0xEF PUSH1 0x4 DUP1 CALLDATASIZE SUB PUSH1 0x40 DUP2 LT ISZERO PUSH2 0xCF JUMPI PUSH1 0x0 DUP1 REVERT JUMPDEST DUP2 ADD SWAP1 DUP1 DUP1 CALLDATALOAD SWAP1 PUSH1 0x20 ADD SWAP1 SWAP3 SWAP2 SWAP1 DUP1 CALLDATALOAD SWAP1 PUSH1 0x20 ADD SWAP1 SWAP3 SWAP2 SWAP1 POP POP POP PUSH2 0x313 JUMP JUMPDEST PUSH1 0x40 MLOAD DUP1 DUP3 DUP2 MSTORE PUSH1 0x20 ADD SWAP2 POP POP PUSH1 0x40 MLOAD DUP1 SWAP2 SUB SWAP1 RETURN JUMPDEST PUSH2 0x10D PUSH2 0x5B9 JUMP JUMPDEST PUSH1 0x40 MLOAD DUP1 DUP3 DUP2 MSTORE PUSH1 0x20 ADD SWAP2 POP POP PUSH1 0x40 MLOAD DUP1 SWAP2 SUB SWAP1 RETURN JUMPDEST PUSH2 0x12B PUSH2 0x5DD JUMP JUMPDEST PUSH1 0x40 MLOAD DUP1 DUP3 PUSH4 0xFFFFFFFF AND PUSH4 0xFFFFFFFF AND DUP2 MSTORE PUSH1 0x20 ADD SWAP2 POP POP PUSH1 0x40 MLOAD DUP1 SWAP2 SUB SWAP1 RETURN JUMPDEST PUSH2 0x179 PUSH1 0x4 DUP1 CALLDATASIZE SUB PUSH1 0x20 DUP2 LT ISZERO PUSH2 0x163 JUMPI PUSH1 0x0 DUP1 REVERT JUMPDEST DUP2 ADD SWAP1 DUP1 DUP1 CALLDATALOAD SWAP1 PUSH1 0x20 ADD SWAP1 SWAP3 SWAP2 SWAP1 POP POP POP PUSH2 0x5F2 JUMP JUMPDEST PUSH1 0x40 MLOAD DUP1 DUP3 ISZERO ISZERO ISZERO ISZERO DUP2 MSTORE PUSH1 0x20 ADD SWAP2 POP POP PUSH1 0x40 MLOAD DUP1 SWAP2 SUB SWAP1 RETURN JUMPDEST PUSH2 0x19B PUSH2 0x694 JUMP JUMPDEST PUSH1 0x40 MLOAD DUP1 DUP3 PUSH4 0xFFFFFFFF AND PUSH4 0xFFFFFFFF AND DUP2 MSTORE PUSH1 0x20 ADD SWAP2 POP POP PUSH1 0x40 MLOAD DUP1 SWAP2 SUB SWAP1 RETURN JUMPDEST PUSH2 0x1C5 PUSH2 0x6AA JUMP JUMPDEST PUSH1 0x40 MLOAD DUP1 DUP3 DUP2 MSTORE PUSH1 0x20 ADD SWAP2 POP POP PUSH1 0x40 MLOAD DUP1 SWAP2 SUB SWAP1 RETURN JUMPDEST PUSH2 0x207 PUSH1 0x4 DUP1 CALLDATASIZE SUB PUSH1 0x20 DUP2 LT ISZERO PUSH2 0x1F1 JUMPI PUSH1 0x0 DUP1 REVERT JUMPDEST DUP2 ADD SWAP1 DUP1 DUP1 CALLDATALOAD SWAP1 PUSH1 0x20 ADD SWAP1 SWAP3 SWAP2 SWAP1 POP POP POP PUSH2 0x6D8 JUMP JUMPDEST PUSH1 0x40 MLOAD DUP1 DUP3 DUP2 MSTORE PUSH1 0x20 ADD SWAP2 POP POP PUSH1 0x40 MLOAD DUP1 SWAP2 SUB SWAP1 RETURN JUMPDEST PUSH2 0x225 PUSH2 0x6F0 JUMP JUMPDEST PUSH1 0x40 MLOAD DUP1 DUP3 PUSH4 0xFFFFFFFF AND PUSH4 0xFFFFFFFF AND DUP2 MSTORE PUSH1 0x20 ADD SWAP2 POP POP PUSH1 0x40 MLOAD DUP1 SWAP2 SUB SWAP1 RETURN JUMPDEST PUSH2 0x273 PUSH1 0x4 DUP1 CALLDATASIZE SUB PUSH1 0x20 DUP2 LT ISZERO PUSH2 0x25D JUMPI PUSH1 0x0 DUP1 REVERT JUMPDEST DUP2 ADD SWAP1 DUP1 DUP1 CALLDATALOAD SWAP1 PUSH1 0x20 ADD SWAP1 SWAP3 SWAP2 SWAP1 POP POP POP PUSH2 0x6F5 JUMP JUMPDEST PUSH1 0x40 MLOAD DUP1 DUP3 DUP2 MSTORE PUSH1 0x20 ADD SWAP2 POP POP PUSH1 0x40 MLOAD DUP1 SWAP2 SUB SWAP1 RETURN JUMPDEST PUSH2 0x291 PUSH2 0x716 JUMP JUMPDEST PUSH1 0x40 MLOAD DUP1 DUP3 DUP2 MSTORE PUSH1 0x20 ADD SWAP2 POP POP PUSH1 0x40 MLOAD DUP1 SWAP2 SUB SWAP1 RETURN JUMPDEST PUSH2 0x2D3 PUSH1 0x4 DUP1 CALLDATASIZE SUB PUSH1 0x20 DUP2 LT ISZERO PUSH2 0x2BD JUMPI PUSH1 0x0 DUP1 REVERT JUMPDEST DUP2 ADD SWAP1 DUP1 DUP1 CALLDATALOAD SWAP1 PUSH1 0x20 ADD SWAP1 SWAP3 SWAP2 SWAP1 POP POP POP PUSH2 0x73A JUMP JUMPDEST PUSH1 0x40 MLOAD DUP1 DUP3 DUP2 MSTORE PUSH1 0x20 ADD SWAP2 POP POP PUSH1 0x40 MLOAD DUP1 SWAP2 SUB SWAP1 RETURN JUMPDEST PUSH2 0x2F1 PUSH2 0x75B JUMP JUMPDEST PUSH1 0x40 MLOAD DUP1 DUP3 PUSH4 0xFFFFFFFF AND PUSH4 0xFFFFFFFF AND DUP2 MSTORE PUSH1 0x20 ADD SWAP2 POP POP PUSH1 0x40 MLOAD DUP1 SWAP2 SUB SWAP1 RETURN JUMPDEST PUSH1 0x0 PUSH32 0x30644E72E131A029B85045B68181585D2833E84879B9709143E1F593F0000001 DUP4 PUSH1 0x0 SHR LT PUSH2 0x3AD JUMPI PUSH1 0x40 MLOAD PUSH32 0x8C379A000000000000000000000000000000000000000000000000000000000 DUP2 MSTORE PUSH1 0x4 ADD DUP1 DUP1 PUSH1 0x20 ADD DUP3 DUP2 SUB DUP3 MSTORE PUSH1 0x20 DUP2 MSTORE PUSH1 0x20 ADD DUP1 PUSH32 0x5F6C6566742073686F756C6420626520696E7369646520746865206669656C64 DUP2 MSTORE POP PUSH1 0x20 ADD SWAP2 POP POP PUSH1 0x40 MLOAD DUP1 SWAP2 SUB SWAP1 REVERT JUMPDEST PUSH32 0x30644E72E131A029B85045B68181585D2833E84879B9709143E1F593F0000001 DUP3 PUSH1 0x0 SHR LT PUSH2 0x428 JUMPI PUSH1 0x40 MLOAD PUSH32 0x8C379A000000000000000000000000000000000000000000000000000000000 DUP2 MSTORE PUSH1 0x4 ADD DUP1 DUP1 PUSH1 0x20 ADD DUP3 DUP2 SUB DUP3 MSTORE PUSH1 0x21 DUP2 MSTORE PUSH1 0x20 ADD DUP1 PUSH2 0x772 PUSH1 0x21 SWAP2 CODECOPY PUSH1 0x40 ADD SWAP2 POP POP PUSH1 0x40 MLOAD DUP1 SWAP2 SUB SWAP1 REVERT JUMPDEST PUSH1 0x0 DUP4 PUSH1 0x0 SHR SWAP1 POP PUSH1 0x0 DUP1 SWAP1 POP PUSH20 0x0 PUSH4 0xF47D33B5 DUP4 DUP4 PUSH1 0x40 MLOAD DUP4 PUSH4 0xFFFFFFFF AND PUSH1 0xE0 SHL DUP2 MSTORE PUSH1 0x4 ADD DUP1 DUP4 DUP2 MSTORE PUSH1 0x20 ADD DUP3 DUP2 MSTORE PUSH1 0x20 ADD SWAP3 POP POP POP PUSH1 0x40 DUP1 MLOAD DUP1 DUP4 SUB DUP2 DUP7 DUP1 EXTCODESIZE ISZERO DUP1 ISZERO PUSH2 0x48B JUMPI PUSH1 0x0 DUP1 REVERT JUMPDEST POP GAS DELEGATECALL ISZERO DUP1 ISZERO PUSH2 0x49F JUMPI RETURNDATASIZE PUSH1 0x0 DUP1 RETURNDATACOPY RETURNDATASIZE PUSH1 0x0 REVERT JUMPDEST POP POP POP POP PUSH1 0x40 MLOAD RETURNDATASIZE PUSH1 0x40 DUP2 LT ISZERO PUSH2 0x4B5 JUMPI PUSH1 0x0 DUP1 REVERT JUMPDEST DUP2 ADD SWAP1 DUP1 DUP1 MLOAD SWAP1 PUSH1 0x20 ADD SWAP1 SWAP3 SWAP2 SWAP1 DUP1 MLOAD SWAP1 PUSH1 0x20 ADD SWAP1 SWAP3 SWAP2 SWAP1 POP POP POP DUP1 SWAP3 POP DUP2 SWAP4 POP POP POP PUSH32 0x30644E72E131A029B85045B68181585D2833E84879B9709143E1F593F0000001 DUP1 PUSH2 0x500 JUMPI INVALID JUMPDEST DUP5 PUSH1 0x0 SHR DUP4 ADDMOD SWAP2 POP PUSH20 0x0 PUSH4 0xF47D33B5 DUP4 DUP4 PUSH1 0x40 MLOAD DUP4 PUSH4 0xFFFFFFFF AND PUSH1 0xE0 SHL DUP2 MSTORE PUSH1 0x4 ADD DUP1 DUP4 DUP2 MSTORE PUSH1 0x20 ADD DUP3 DUP2 MSTORE PUSH1 0x20 ADD SWAP3 POP POP POP PUSH1 0x40 DUP1 MLOAD DUP1 DUP4 SUB DUP2 DUP7 DUP1 EXTCODESIZE ISZERO DUP1 ISZERO PUSH2 0x55E JUMPI PUSH1 0x0 DUP1 REVERT JUMPDEST POP GAS DELEGATECALL ISZERO DUP1 ISZERO PUSH2 0x572 JUMPI RETURNDATASIZE PUSH1 0x0 DUP1 RETURNDATACOPY RETURNDATASIZE PUSH1 0x0 REVERT JUMPDEST POP POP POP POP PUSH1 0x40 MLOAD RETURNDATASIZE PUSH1 0x40 DUP2 LT ISZERO PUSH2 0x588 JUMPI PUSH1 0x0 DUP1 REVERT JUMPDEST DUP2 ADD SWAP1 DUP1 DUP1 MLOAD SWAP1 PUSH1 0x20 ADD SWAP1 SWAP3 SWAP2 SWAP1 DUP1 MLOAD SWAP1 PUSH1 0x20 ADD SWAP1 SWAP3 SWAP2 SWAP1 POP POP POP DUP1 SWAP3 POP DUP2 SWAP4 POP POP POP DUP2 PUSH1 0x0 SHL SWAP3 POP POP POP SWAP3 SWAP2 POP POP JUMP JUMPDEST PUSH32 0x30644E72E131A029B85045B68181585D2833E84879B9709143E1F593F0000001 DUP2 JUMP JUMPDEST PUSH1 0x0 DUP1 SWAP1 SLOAD SWAP1 PUSH2 0x100 EXP SWAP1 DIV PUSH4 0xFFFFFFFF AND DUP2 JUMP JUMPDEST PUSH1 0x0 DUP1 PUSH1 0x0 SHL DUP3 EQ ISZERO PUSH2 0x608 JUMPI PUSH1 0x0 SWAP1 POP PUSH2 0x68F JUMP JUMPDEST PUSH1 0x0 PUSH1 0x3 PUSH1 0x0 SWAP1 SLOAD SWAP1 PUSH2 0x100 EXP SWAP1 DIV PUSH4 0xFFFFFFFF AND SWAP1 POP JUMPDEST PUSH1 0x4 DUP2 PUSH4 0xFFFFFFFF AND PUSH1 0x64 DUP2 LT PUSH2 0x633 JUMPI INVALID JUMPDEST ADD SLOAD DUP4 EQ ISZERO PUSH2 0x646 JUMPI PUSH1 0x1 SWAP2 POP POP PUSH2 0x68F JUMP JUMPDEST PUSH1 0x0 DUP2 PUSH4 0xFFFFFFFF AND EQ ISZERO PUSH2 0x65A JUMPI PUSH1 0x64 SWAP1 POP JUMPDEST DUP1 DUP1 PUSH1 0x1 SWAP1 SUB SWAP2 POP POP PUSH1 0x3 PUSH1 0x0 SWAP1 SLOAD SWAP1 PUSH2 0x100 EXP SWAP1 DIV PUSH4 0xFFFFFFFF AND PUSH4 0xFFFFFFFF AND DUP2 PUSH4 0xFFFFFFFF AND EQ ISZERO PUSH2 0x620 JUMPI PUSH1 0x0 SWAP2 POP POP JUMPDEST SWAP2 SWAP1 POP JUMP JUMPDEST PUSH1 0x3 PUSH1 0x0 SWAP1 SLOAD SWAP1 PUSH2 0x100 EXP SWAP1 DIV PUSH4 0xFFFFFFFF AND DUP2 JUMP JUMPDEST PUSH1 0x0 PUSH1 0x4 PUSH1 0x3 PUSH1 0x0 SWAP1 SLOAD SWAP1 PUSH2 0x100 EXP SWAP1 DIV PUSH4 0xFFFFFFFF AND PUSH4 0xFFFFFFFF AND PUSH1 0x64 DUP2 LT PUSH2 0x6D1 JUMPI INVALID JUMPDEST ADD SLOAD SWAP1 POP SWAP1 JUMP JUMPDEST PUSH1 0x4 DUP2 PUSH1 0x64 DUP2 LT PUSH2 0x6E5 JUMPI INVALID JUMPDEST ADD PUSH1 0x0 SWAP2 POP SWAP1 POP SLOAD DUP2 JUMP JUMPDEST PUSH1 0x64 DUP2 JUMP JUMPDEST PUSH1 0x2 DUP2 DUP2 SLOAD DUP2 LT PUSH2 0x702 JUMPI INVALID JUMPDEST SWAP1 PUSH1 0x0 MSTORE PUSH1 0x20 PUSH1 0x0 KECCAK256 ADD PUSH1 0x0 SWAP2 POP SWAP1 POP SLOAD DUP2 JUMP JUMPDEST PUSH32 0x2FE54C60D3ACABF3343A35B6EBA15DB4821B340F76E741E2249685ED4899AF6C DUP2 JUMP JUMPDEST PUSH1 0x1 DUP2 DUP2 SLOAD DUP2 LT PUSH2 0x747 JUMPI INVALID JUMPDEST SWAP1 PUSH1 0x0 MSTORE PUSH1 0x20 PUSH1 0x0 KECCAK256 ADD PUSH1 0x0 SWAP2 POP SWAP1 POP SLOAD DUP2 JUMP JUMPDEST PUSH1 0x3 PUSH1 0x4 SWAP1 SLOAD SWAP1 PUSH2 0x100 EXP SWAP1 DIV PUSH4 0xFFFFFFFF AND DUP2 JUMP INVALID 0x5F PUSH19 0x696768742073686F756C6420626520696E7369 PUSH5 0x6520746865 KECCAK256 PUSH7 0x69656C64A26562 PUSH27 0x7A7231582036979861F0CED40D19DA2D9BBD701D3E02CEC28E9B78 0xB5 LOG4 0xEC 0xB7 0xD0 SGT GASLIMIT PC SWAP1 0x23 PUSH5 0x736F6C6343 STOP SDIV GT STOP ORIGIN "
				},
				"gasEstimates": {
					"creation": {
						"codeDepositCost": "398200",
						"executionCost": "infinite",
						"totalCost": "infinite"
					},
					"external": {
						"FIELD_SIZE()": "228",
						"ROOT_HISTORY_SIZE()": "239",
						"ZERO_VALUE()": "271",
						"currentRootIndex()": "1142",
						"filledSubtrees(uint256)": "2068",
						"getLastRoot()": "1995",
						"hashLeftRight(bytes32,bytes32)": "infinite",
						"isKnownRoot(bytes32)": "infinite",
						"levels()": "1098",
						"nextIndex()": "1213",
						"roots(uint256)": "1129",
						"zeros(uint256)": "2024"
					},
					"internal": {
						"_insert(bytes32)": "infinite"
					}
				},
				"methodIdentifiers": {
					"FIELD_SIZE()": "414a37ba",
					"ROOT_HISTORY_SIZE()": "cd87a3b4",
					"ZERO_VALUE()": "ec732959",
					"currentRootIndex()": "90eeb02b",
					"filledSubtrees(uint256)": "f178e47c",
					"getLastRoot()": "ba70f757",
					"hashLeftRight(bytes32,bytes32)": "38bf282e",
					"isKnownRoot(bytes32)": "6d9833e3",
					"levels()": "4ecf518b",
					"nextIndex()": "fc7e9c6f",
					"roots(uint256)": "c2b40ae4",
					"zeros(uint256)": "e8295588"
				}
			},
			"storageLayout": {
				"storage": [
					{
						"astId": 425,
						"contract": "anonimity/1-ETH-Anonymity.sol:MerkleTreeWithHistory",
						"label": "levels",
						"offset": 0,
						"slot": "0",
						"type": "t_uint32"
					},
					{
						"astId": 428,
						"contract": "anonimity/1-ETH-Anonymity.sol:MerkleTreeWithHistory",
						"label": "filledSubtrees",
						"offset": 0,
						"slot": "1",
						"type": "t_array(t_bytes32)dyn_storage"
					},
					{
						"astId": 431,
						"contract": "anonimity/1-ETH-Anonymity.sol:MerkleTreeWithHistory",
						"label": "zeros",
						"offset": 0,
						"slot": "2",
						"type": "t_array(t_bytes32)dyn_storage"
					},
					{
						"astId": 434,
						"contract": "anonimity/1-ETH-Anonymity.sol:MerkleTreeWithHistory",
						"label": "currentRootIndex",
						"offset": 0,
						"slot": "3",
						"type": "t_uint32"
					},
					{
						"astId": 437,
						"contract": "anonimity/1-ETH-Anonymity.sol:MerkleTreeWithHistory",
						"label": "nextIndex",
						"offset": 4,
						"slot": "3",
						"type": "t_uint32"
					},
					{
						"astId": 444,
						"contract": "anonimity/1-ETH-Anonymity.sol:MerkleTreeWithHistory",
						"label": "roots",
						"offset": 0,
						"slot": "4",
						"type": "t_array(t_bytes32)100_storage"
					}
				],
				"types": {
					"t_array(t_bytes32)100_storage": {
						"base": "t_bytes32",
						"encoding": "inplace",
						"label": "bytes32[100]",
						"numberOfBytes": "3200"
					},
					"t_array(t_bytes32)dyn_storage": {
						"base": "t_bytes32",
						"encoding": "dynamic_array",
						"label": "bytes32[]",
						"numberOfBytes": "32"
					},
					"t_bytes32": {
						"encoding": "inplace",
						"label": "bytes32",
						"numberOfBytes": "32"
					},
					"t_uint32": {
						"encoding": "inplace",
						"label": "uint32",
						"numberOfBytes": "4"
					}
				}
			},
			"userdoc": {
				"methods": {}
			}
		}
	}
}