{
	"anonimity/1-ETH-Anonymity.sol": {
		"MerkleTreeWithHistory": {
			"abi": [
				{
					"inputs": [],
					"payable": false,
					"stateMutability": "nonpayable",
					"type": "constructor"
				},
				{
					"constant": true,
					"inputs": [],
					"name": "FIELD_SIZE",
					"outputs": [
						{
							"internalType": "uint256",
							"name": "",
							"type": "uint256"
						}
					],
					"payable": false,
					"stateMutability": "view",
					"type": "function"
				},
				{
					"constant": true,
					"inputs": [],
					"name": "ROOT_HISTORY_SIZE",
					"outputs": [
						{
							"internalType": "uint32",
							"name": "",
							"type": "uint32"
						}
					],
					"payable": false,
					"stateMutability": "view",
					"type": "function"
				},
				{
					"constant": true,
					"inputs": [],
					"name": "ZERO_VALUE",
					"outputs": [
						{
							"internalType": "uint256",
							"name": "",
							"type": "uint256"
						}
					],
					"payable": false,
					"stateMutability": "view",
					"type": "function"
				},
				{
					"constant": true,
					"inputs": [],
					"name": "currentRootIndex",
					"outputs": [
						{
							"internalType": "uint32",
							"name": "",
							"type": "uint32"
						}
					],
					"payable": false,
					"stateMutability": "view",
					"type": "function"
				},
				{
					"constant": true,
					"inputs": [
						{
							"internalType": "uint256",
							"name": "",
							"type": "uint256"
						}
					],
					"name": "filledSubtrees",
					"outputs": [
						{
							"internalType": "bytes32",
							"name": "",
							"type": "bytes32"
						}
					],
					"payable": false,
					"stateMutability": "view",
					"type": "function"
				},
				{
					"constant": true,
					"inputs": [],
					"name": "getLastRoot",
					"outputs": [
						{
							"internalType": "bytes32",
							"name": "",
							"type": "bytes32"
						}
					],
					"payable": false,
					"stateMutability": "view",
					"type": "function"
				},
				{
					"constant": true,
					"inputs": [
						{
							"internalType": "bytes32",
							"name": "_left",
							"type": "bytes32"
						},
						{
							"internalType": "bytes32",
							"name": "_right",
							"type": "bytes32"
						}
					],
					"name": "hashLeftRight",
					"outputs": [
						{
							"internalType": "bytes32",
							"name": "",
							"type": "bytes32"
						}
					],
					"payable": false,
					"stateMutability": "view",
					"type": "function"
				},
				{
					"constant": true,
					"inputs": [
						{
							"internalType": "bytes32",
							"name": "_root",
							"type": "bytes32"
						}
					],
					"name": "isKnownRoot",
					"outputs": [
						{
							"internalType": "bool",
							"name": "",
							"type": "bool"
						}
					],
					"payable": false,
					"stateMutability": "view",
					"type": "function"
				},
				{
					"constant": true,
					"inputs": [],
					"name": "levels",
					"outputs": [
						{
							"internalType": "uint32",
							"name": "",
							"type": "uint32"
						}
					],
					"payable": false,
					"stateMutability": "view",
					"type": "function"
				},
				{
					"constant": true,
					"inputs": [],
					"name": "nextIndex",
					"outputs": [
						{
							"internalType": "uint32",
							"name": "",
							"type": "uint32"
						}
					],
					"payable": false,
					"stateMutability": "view",
					"type": "function"
				},
				{
					"constant": true,
					"inputs": [
						{
							"internalType": "uint256",
							"name": "",
							"type": "uint256"
						}
					],
					"name": "roots",
					"outputs": [
						{
							"internalType": "bytes32",
							"name": "",
							"type": "bytes32"
						}
					],
					"payable": false,
					"stateMutability": "view",
					"type": "function"
				},
				{
					"constant": true,
					"inputs": [
						{
							"internalType": "uint256",
							"name": "",
							"type": "uint256"
						}
					],
					"name": "zeros",
					"outputs": [
						{
							"internalType": "bytes32",
							"name": "",
							"type": "bytes32"
						}
					],
					"payable": false,
					"stateMutability": "view",
					"type": "function"
				}
			],
			"devdoc": {
				"methods": {
					"getLastRoot()": {
						"details": "Returns the last root"
					},
					"hashLeftRight(bytes32,bytes32)": {
						"details": "Hash 2 tree leaves, returns MiMC(_left, _right)"
					},
					"isKnownRoot(bytes32)": {
						"details": "Whether the root is present in the root history"
					}
				}
			},
			"evm": {
				"assembly": "    /* \"anonimity/1-ETH-Anonymity.sol\":8142:11111  contract MerkleTreeWithHistory {... */\n  mstore(0x40, 0x80)\n    /* \"anonimity/1-ETH-Anonymity.sol\":8707:8708  0 */\n  0x00\n    /* \"anonimity/1-ETH-Anonymity.sol\":8674:8708  uint32 public currentRootIndex = 0 */\n  0x03\n  exp(0x0100, 0x00)\n  dup2\n  sload\n  dup2\n  0xffffffff\n  mul\n  not\n  and\n  swap1\n  dup4\n  0xffffffff\n  and\n  mul\n  or\n  swap1\n  sstore\n  pop\n    /* \"anonimity/1-ETH-Anonymity.sol\":8738:8739  0 */\n  0x00\n    /* \"anonimity/1-ETH-Anonymity.sol\":8712:8739  uint32 public nextIndex = 0 */\n  0x03\n  exp(0x0100, 0x04)\n  dup2\n  sload\n  dup2\n  0xffffffff\n  mul\n  not\n  and\n  swap1\n  dup4\n  0xffffffff\n  and\n  mul\n  or\n  swap1\n  sstore\n  pop\n    /* \"anonimity/1-ETH-Anonymity.sol\":8837:9233  constructor() public {... */\n  callvalue\n    /* \"--CODEGEN--\":8:17   */\n  dup1\n    /* \"--CODEGEN--\":5:7   */\n  iszero\n  tag_1\n  jumpi\n    /* \"--CODEGEN--\":30:31   */\n  0x00\n    /* \"--CODEGEN--\":27:28   */\n  dup1\n    /* \"--CODEGEN--\":20:32   */\n  revert\n    /* \"--CODEGEN--\":5:7   */\ntag_1:\n    /* \"anonimity/1-ETH-Anonymity.sol\":8837:9233  constructor() public {... */\n  pop\n    /* \"anonimity/1-ETH-Anonymity.sol\":8873:8875  20 */\n  0x14\n    /* \"anonimity/1-ETH-Anonymity.sol\":8864:8870  levels */\n  0x00\n  dup1\n    /* \"anonimity/1-ETH-Anonymity.sol\":8864:8875  levels = 20 */\n  0x0100\n  exp\n  dup2\n  sload\n  dup2\n  0xffffffff\n  mul\n  not\n  and\n  swap1\n  dup4\n  0xffffffff\n  and\n  mul\n  or\n  swap1\n  sstore\n  pop\n    /* \"anonimity/1-ETH-Anonymity.sol\":8882:8901  bytes32 currentZero */\n  0x00\n    /* \"anonimity/1-ETH-Anonymity.sol\":8332:8409  21663839004416932945382355908790599225266501822907911457504978515578255421292 */\n  0x2fe54c60d3acabf3343a35b6eba15db4821b340f76e741e2249685ed4899af6c\n    /* \"anonimity/1-ETH-Anonymity.sol\":8904:8923  bytes32(ZERO_VALUE) */\n  0x00\n  shl\n    /* \"anonimity/1-ETH-Anonymity.sol\":8882:8923  bytes32 currentZero = bytes32(ZERO_VALUE) */\n  swap1\n  pop\n    /* \"anonimity/1-ETH-Anonymity.sol\":8929:8934  zeros */\n  0x02\n    /* \"anonimity/1-ETH-Anonymity.sol\":8940:8951  currentZero */\n  dup2\n    /* \"anonimity/1-ETH-Anonymity.sol\":8929:8952  zeros.push(currentZero) */\n  swap1\n  dup1\n    /* \"--CODEGEN--\":39:40   */\n  0x01\n    /* \"--CODEGEN--\":33:36   */\n  dup2\n    /* \"--CODEGEN--\":27:37   */\n  sload\n    /* \"--CODEGEN--\":23:41   */\n  add\n    /* \"--CODEGEN--\":57:67   */\n  dup1\n    /* \"--CODEGEN--\":52:55   */\n  dup3\n    /* \"--CODEGEN--\":45:68   */\n  sstore\n    /* \"--CODEGEN--\":79:89   */\n  dup1\n    /* \"--CODEGEN--\":72:89   */\n  swap2\n  pop\n    /* \"--CODEGEN--\":0:93   */\n  pop\n    /* \"anonimity/1-ETH-Anonymity.sol\":8929:8952  zeros.push(currentZero) */\n  swap1\n  0x01\n  dup3\n  sub\n  swap1\n  0x00\n  mstore\n  keccak256(0x00, 0x20)\n  add\n  0x00\n  swap1\n  swap2\n  swap3\n  swap1\n  swap2\n  swap1\n  swap2\n  pop\n  sstore\n  pop\n    /* \"anonimity/1-ETH-Anonymity.sol\":8958:8972  filledSubtrees */\n  0x01\n    /* \"anonimity/1-ETH-Anonymity.sol\":8978:8989  currentZero */\n  dup2\n    /* \"anonimity/1-ETH-Anonymity.sol\":8958:8990  filledSubtrees.push(currentZero) */\n  swap1\n  dup1\n    /* \"--CODEGEN--\":39:40   */\n  0x01\n    /* \"--CODEGEN--\":33:36   */\n  dup2\n    /* \"--CODEGEN--\":27:37   */\n  sload\n    /* \"--CODEGEN--\":23:41   */\n  add\n    /* \"--CODEGEN--\":57:67   */\n  dup1\n    /* \"--CODEGEN--\":52:55   */\n  dup3\n    /* \"--CODEGEN--\":45:68   */\n  sstore\n    /* \"--CODEGEN--\":79:89   */\n  dup1\n    /* \"--CODEGEN--\":72:89   */\n  swap2\n  pop\n    /* \"--CODEGEN--\":0:93   */\n  pop\n    /* \"anonimity/1-ETH-Anonymity.sol\":8958:8990  filledSubtrees.push(currentZero) */\n  swap1\n  0x01\n  dup3\n  sub\n  swap1\n  0x00\n  mstore\n  keccak256(0x00, 0x20)\n  add\n  0x00\n  swap1\n  swap2\n  swap3\n  swap1\n  swap2\n  swap1\n  swap2\n  pop\n  sstore\n  pop\n    /* \"anonimity/1-ETH-Anonymity.sol\":9002:9010  uint32 i */\n  0x00\n    /* \"anonimity/1-ETH-Anonymity.sol\":9013:9014  1 */\n  0x01\n    /* \"anonimity/1-ETH-Anonymity.sol\":9002:9014  uint32 i = 1 */\n  swap1\n  pop\n    /* \"anonimity/1-ETH-Anonymity.sol\":8997:9172  for (uint32 i = 1; i < levels; i++) {... */\ntag_6:\n    /* \"anonimity/1-ETH-Anonymity.sol\":9020:9026  levels */\n  0x00\n  dup1\n  swap1\n  sload\n  swap1\n  0x0100\n  exp\n  swap1\n  div\n  0xffffffff\n  and\n    /* \"anonimity/1-ETH-Anonymity.sol\":9016:9026  i < levels */\n  0xffffffff\n  and\n    /* \"anonimity/1-ETH-Anonymity.sol\":9016:9017  i */\n  dup2\n    /* \"anonimity/1-ETH-Anonymity.sol\":9016:9026  i < levels */\n  0xffffffff\n  and\n  lt\n    /* \"anonimity/1-ETH-Anonymity.sol\":8997:9172  for (uint32 i = 1; i < levels; i++) {... */\n  iszero\n  tag_7\n  jumpi\n    /* \"anonimity/1-ETH-Anonymity.sol\":9055:9094  hashLeftRight(currentZero, currentZero) */\n  tag_9\n    /* \"anonimity/1-ETH-Anonymity.sol\":9069:9080  currentZero */\n  dup3\n    /* \"anonimity/1-ETH-Anonymity.sol\":9082:9093  currentZero */\n  dup4\n    /* \"anonimity/1-ETH-Anonymity.sol\":9055:9068  hashLeftRight */\n  shl(0x20, tag_10)\n    /* \"anonimity/1-ETH-Anonymity.sol\":9055:9094  hashLeftRight(currentZero, currentZero) */\n  0x20\n  shr\n  jump\t// in\ntag_9:\n    /* \"anonimity/1-ETH-Anonymity.sol\":9041:9094  currentZero = hashLeftRight(currentZero, currentZero) */\n  swap2\n  pop\n    /* \"anonimity/1-ETH-Anonymity.sol\":9102:9107  zeros */\n  0x02\n    /* \"anonimity/1-ETH-Anonymity.sol\":9113:9124  currentZero */\n  dup3\n    /* \"anonimity/1-ETH-Anonymity.sol\":9102:9125  zeros.push(currentZero) */\n  swap1\n  dup1\n    /* \"--CODEGEN--\":39:40   */\n  0x01\n    /* \"--CODEGEN--\":33:36   */\n  dup2\n    /* \"--CODEGEN--\":27:37   */\n  sload\n    /* \"--CODEGEN--\":23:41   */\n  add\n    /* \"--CODEGEN--\":57:67   */\n  dup1\n    /* \"--CODEGEN--\":52:55   */\n  dup3\n    /* \"--CODEGEN--\":45:68   */\n  sstore\n    /* \"--CODEGEN--\":79:89   */\n  dup1\n    /* \"--CODEGEN--\":72:89   */\n  swap2\n  pop\n    /* \"--CODEGEN--\":0:93   */\n  pop\n    /* \"anonimity/1-ETH-Anonymity.sol\":9102:9125  zeros.push(currentZero) */\n  swap1\n  0x01\n  dup3\n  sub\n  swap1\n  0x00\n  mstore\n  keccak256(0x00, 0x20)\n  add\n  0x00\n  swap1\n  swap2\n  swap3\n  swap1\n  swap2\n  swap1\n  swap2\n  pop\n  sstore\n  pop\n    /* \"anonimity/1-ETH-Anonymity.sol\":9133:9147  filledSubtrees */\n  0x01\n    /* \"anonimity/1-ETH-Anonymity.sol\":9153:9164  currentZero */\n  dup3\n    /* \"anonimity/1-ETH-Anonymity.sol\":9133:9165  filledSubtrees.push(currentZero) */\n  swap1\n  dup1\n    /* \"--CODEGEN--\":39:40   */\n  0x01\n    /* \"--CODEGEN--\":33:36   */\n  dup2\n    /* \"--CODEGEN--\":27:37   */\n  sload\n    /* \"--CODEGEN--\":23:41   */\n  add\n    /* \"--CODEGEN--\":57:67   */\n  dup1\n    /* \"--CODEGEN--\":52:55   */\n  dup3\n    /* \"--CODEGEN--\":45:68   */\n  sstore\n    /* \"--CODEGEN--\":79:89   */\n  dup1\n    /* \"--CODEGEN--\":72:89   */\n  swap2\n  pop\n    /* \"--CODEGEN--\":0:93   */\n  pop\n    /* \"anonimity/1-ETH-Anonymity.sol\":9133:9165  filledSubtrees.push(currentZero) */\n  swap1\n  0x01\n  dup3\n  sub\n  swap1\n  0x00\n  mstore\n  keccak256(0x00, 0x20)\n  add\n  0x00\n  swap1\n  swap2\n  swap3\n  swap1\n  swap2\n  swap1\n  swap2\n  pop\n  sstore\n  pop\n    /* \"anonimity/1-ETH-Anonymity.sol\":9028:9031  i++ */\n  dup1\n  dup1\n  0x01\n  add\n  swap2\n  pop\n  pop\n    /* \"anonimity/1-ETH-Anonymity.sol\":8997:9172  for (uint32 i = 1; i < levels; i++) {... */\n  jump(tag_6)\ntag_7:\n  pop\n    /* \"anonimity/1-ETH-Anonymity.sol\":9189:9228  hashLeftRight(currentZero, currentZero) */\n  tag_13\n    /* \"anonimity/1-ETH-Anonymity.sol\":9203:9214  currentZero */\n  dup2\n    /* \"anonimity/1-ETH-Anonymity.sol\":9216:9227  currentZero */\n  dup3\n    /* \"anonimity/1-ETH-Anonymity.sol\":9189:9202  hashLeftRight */\n  shl(0x20, tag_10)\n    /* \"anonimity/1-ETH-Anonymity.sol\":9189:9228  hashLeftRight(currentZero, currentZero) */\n  0x20\n  shr\n  jump\t// in\ntag_13:\n    /* \"anonimity/1-ETH-Anonymity.sol\":9178:9183  roots */\n  0x04\n    /* \"anonimity/1-ETH-Anonymity.sol\":9184:9185  0 */\n  0x00\n    /* \"anonimity/1-ETH-Anonymity.sol\":9178:9186  roots[0] */\n  0x64\n  dup2\n  lt\n  tag_14\n  jumpi\n  invalid\ntag_14:\n  add\n    /* \"anonimity/1-ETH-Anonymity.sol\":9178:9228  roots[0] = hashLeftRight(currentZero, currentZero) */\n  dup2\n  swap1\n  sstore\n  pop\n    /* \"anonimity/1-ETH-Anonymity.sol\":8837:9233  constructor() public {... */\n  pop\n    /* \"anonimity/1-ETH-Anonymity.sol\":8142:11111  contract MerkleTreeWithHistory {... */\n  jump(tag_16)\n    /* \"anonimity/1-ETH-Anonymity.sol\":9305:9750  function hashLeftRight(bytes32 _left, bytes32 _right) public pure returns (bytes32) {... */\ntag_10:\n    /* \"anonimity/1-ETH-Anonymity.sol\":9380:9387  bytes32 */\n  0x00\n    /* \"anonimity/1-ETH-Anonymity.sol\":8214:8291  21888242871839275222246405745257275088548364400416034343698204186575808495617 */\n  0x30644e72e131a029b85045b68181585d2833e84879b9709143e1f593f0000001\n    /* \"anonimity/1-ETH-Anonymity.sol\":9411:9416  _left */\n  dup4\n    /* \"anonimity/1-ETH-Anonymity.sol\":9403:9417  uint256(_left) */\n  0x00\n  shr\n    /* \"anonimity/1-ETH-Anonymity.sol\":9403:9430  uint256(_left) < FIELD_SIZE */\n  lt\n    /* \"anonimity/1-ETH-Anonymity.sol\":9395:9467  require(uint256(_left) < FIELD_SIZE, \"_left should be inside the field\") */\n  tag_18\n  jumpi\n  mload(0x40)\n  0x08c379a000000000000000000000000000000000000000000000000000000000\n  dup2\n  mstore\n  0x04\n  add\n  dup1\n  dup1\n  0x20\n  add\n  dup3\n  dup2\n  sub\n  dup3\n  mstore\n  0x20\n  dup2\n  mstore\n  0x20\n  add\n  dup1\n  0x5f6c6566742073686f756c6420626520696e7369646520746865206669656c64\n  dup2\n  mstore\n  pop\n  0x20\n  add\n  swap2\n  pop\n  pop\n  mload(0x40)\n  dup1\n  swap2\n  sub\n  swap1\n  revert\ntag_18:\n    /* \"anonimity/1-ETH-Anonymity.sol\":8214:8291  21888242871839275222246405745257275088548364400416034343698204186575808495617 */\n  0x30644e72e131a029b85045b68181585d2833e84879b9709143e1f593f0000001\n    /* \"anonimity/1-ETH-Anonymity.sol\":9489:9495  _right */\n  dup3\n    /* \"anonimity/1-ETH-Anonymity.sol\":9481:9496  uint256(_right) */\n  0x00\n  shr\n    /* \"anonimity/1-ETH-Anonymity.sol\":9481:9509  uint256(_right) < FIELD_SIZE */\n  lt\n    /* \"anonimity/1-ETH-Anonymity.sol\":9473:9547  require(uint256(_right) < FIELD_SIZE, \"_right should be inside the field\") */\n  tag_19\n  jumpi\n  mload(0x40)\n  0x08c379a000000000000000000000000000000000000000000000000000000000\n  dup2\n  mstore\n  0x04\n  add\n  dup1\n  dup1\n  0x20\n  add\n  dup3\n  dup2\n  sub\n  dup3\n  mstore\n  0x21\n  dup2\n  mstore\n  0x20\n  add\n  dup1\n  data_6542fa7ce511fbc255ce93f94c5fe79a03559888b6c0d6b4bd92b57ef65f3b4e\n  0x21\n  swap2\n  codecopy\n  0x40\n  add\n  swap2\n  pop\n  pop\n  mload(0x40)\n  dup1\n  swap2\n  sub\n  swap1\n  revert\ntag_19:\n    /* \"anonimity/1-ETH-Anonymity.sol\":9553:9562  uint256 R */\n  0x00\n    /* \"anonimity/1-ETH-Anonymity.sol\":9573:9578  _left */\n  dup4\n    /* \"anonimity/1-ETH-Anonymity.sol\":9565:9579  uint256(_left) */\n  0x00\n  shr\n    /* \"anonimity/1-ETH-Anonymity.sol\":9553:9579  uint256 R = uint256(_left) */\n  swap1\n  pop\n    /* \"anonimity/1-ETH-Anonymity.sol\":9585:9594  uint256 C */\n  0x00\n    /* \"anonimity/1-ETH-Anonymity.sol\":9597:9598  0 */\n  dup1\n    /* \"anonimity/1-ETH-Anonymity.sol\":9585:9598  uint256 C = 0 */\n  swap1\n  pop\n    /* \"anonimity/1-ETH-Anonymity.sol\":9613:9619  Hasher */\n  linkerSymbol(\"b1d08b67b448c1738aa9c5efeb68bcb22194bda08022125c8b5ea581d01e7937\")\n    /* \"anonimity/1-ETH-Anonymity.sol\":9613:9630  Hasher.MiMCSponge */\n  0xf47d33b5\n    /* \"anonimity/1-ETH-Anonymity.sol\":9631:9632  R */\n  dup4\n    /* \"anonimity/1-ETH-Anonymity.sol\":9634:9635  C */\n  dup4\n    /* \"anonimity/1-ETH-Anonymity.sol\":9613:9636  Hasher.MiMCSponge(R, C) */\n  mload(0x40)\n  dup4\n  0xffffffff\n  and\n  0xe0\n  shl\n  dup2\n  mstore\n  0x04\n  add\n  dup1\n  dup4\n  dup2\n  mstore\n  0x20\n  add\n  dup3\n  dup2\n  mstore\n  0x20\n  add\n  swap3\n  pop\n  pop\n  pop\n  0x40\n  dup1\n  mload\n  dup1\n  dup4\n  sub\n  dup2\n  dup7\n  dup1\n  extcodesize\n  iszero\n    /* \"--CODEGEN--\":8:17   */\n  dup1\n    /* \"--CODEGEN--\":5:7   */\n  iszero\n  tag_20\n  jumpi\n    /* \"--CODEGEN--\":30:31   */\n  0x00\n    /* \"--CODEGEN--\":27:28   */\n  dup1\n    /* \"--CODEGEN--\":20:32   */\n  revert\n    /* \"--CODEGEN--\":5:7   */\ntag_20:\n    /* \"anonimity/1-ETH-Anonymity.sol\":9613:9636  Hasher.MiMCSponge(R, C) */\n  pop\n  gas\n  delegatecall\n  iszero\n    /* \"--CODEGEN--\":8:17   */\n  dup1\n    /* \"--CODEGEN--\":5:7   */\n  iszero\n  tag_21\n  jumpi\n    /* \"--CODEGEN--\":45:61   */\n  returndatasize\n    /* \"--CODEGEN--\":42:43   */\n  0x00\n    /* \"--CODEGEN--\":39:40   */\n  dup1\n    /* \"--CODEGEN--\":24:62   */\n  returndatacopy\n    /* \"--CODEGEN--\":77:93   */\n  returndatasize\n    /* \"--CODEGEN--\":74:75   */\n  0x00\n    /* \"--CODEGEN--\":67:94   */\n  revert\n    /* \"--CODEGEN--\":5:7   */\ntag_21:\n    /* \"anonimity/1-ETH-Anonymity.sol\":9613:9636  Hasher.MiMCSponge(R, C) */\n  pop\n  pop\n  pop\n  pop\n  mload(0x40)\n  returndatasize\n    /* \"--CODEGEN--\":13:15   */\n  0x40\n    /* \"--CODEGEN--\":8:11   */\n  dup2\n    /* \"--CODEGEN--\":5:16   */\n  lt\n    /* \"--CODEGEN--\":2:4   */\n  iszero\n  tag_22\n  jumpi\n    /* \"--CODEGEN--\":29:30   */\n  0x00\n    /* \"--CODEGEN--\":26:27   */\n  dup1\n    /* \"--CODEGEN--\":19:31   */\n  revert\n    /* \"--CODEGEN--\":2:4   */\ntag_22:\n    /* \"anonimity/1-ETH-Anonymity.sol\":9613:9636  Hasher.MiMCSponge(R, C) */\n  dup2\n  add\n  swap1\n  dup1\n  dup1\n  mload\n  swap1\n  0x20\n  add\n  swap1\n  swap3\n  swap2\n  swap1\n  dup1\n  mload\n  swap1\n  0x20\n  add\n  swap1\n  swap3\n  swap2\n  swap1\n  pop\n  pop\n  pop\n    /* \"anonimity/1-ETH-Anonymity.sol\":9604:9636  (R, C) = Hasher.MiMCSponge(R, C) */\n  dup1\n  swap3\n  pop\n  dup2\n  swap4\n  pop\n  pop\n  pop\n    /* \"anonimity/1-ETH-Anonymity.sol\":8214:8291  21888242871839275222246405745257275088548364400416034343698204186575808495617 */\n  0x30644e72e131a029b85045b68181585d2833e84879b9709143e1f593f0000001\n    /* \"anonimity/1-ETH-Anonymity.sol\":9646:9684  addmod(R, uint256(_right), FIELD_SIZE) */\n  dup1\n  tag_23\n  jumpi\n  invalid\ntag_23:\n    /* \"anonimity/1-ETH-Anonymity.sol\":9664:9670  _right */\n  dup5\n    /* \"anonimity/1-ETH-Anonymity.sol\":9656:9671  uint256(_right) */\n  0x00\n  shr\n    /* \"anonimity/1-ETH-Anonymity.sol\":9653:9654  R */\n  dup4\n    /* \"anonimity/1-ETH-Anonymity.sol\":9646:9684  addmod(R, uint256(_right), FIELD_SIZE) */\n  addmod\n    /* \"anonimity/1-ETH-Anonymity.sol\":9642:9684  R = addmod(R, uint256(_right), FIELD_SIZE) */\n  swap2\n  pop\n    /* \"anonimity/1-ETH-Anonymity.sol\":9699:9705  Hasher */\n  linkerSymbol(\"b1d08b67b448c1738aa9c5efeb68bcb22194bda08022125c8b5ea581d01e7937\")\n    /* \"anonimity/1-ETH-Anonymity.sol\":9699:9716  Hasher.MiMCSponge */\n  0xf47d33b5\n    /* \"anonimity/1-ETH-Anonymity.sol\":9717:9718  R */\n  dup4\n    /* \"anonimity/1-ETH-Anonymity.sol\":9720:9721  C */\n  dup4\n    /* \"anonimity/1-ETH-Anonymity.sol\":9699:9722  Hasher.MiMCSponge(R, C) */\n  mload(0x40)\n  dup4\n  0xffffffff\n  and\n  0xe0\n  shl\n  dup2\n  mstore\n  0x04\n  add\n  dup1\n  dup4\n  dup2\n  mstore\n  0x20\n  add\n  dup3\n  dup2\n  mstore\n  0x20\n  add\n  swap3\n  pop\n  pop\n  pop\n  0x40\n  dup1\n  mload\n  dup1\n  dup4\n  sub\n  dup2\n  dup7\n  dup1\n  extcodesize\n  iszero\n    /* \"--CODEGEN--\":8:17   */\n  dup1\n    /* \"--CODEGEN--\":5:7   */\n  iszero\n  tag_24\n  jumpi\n    /* \"--CODEGEN--\":30:31   */\n  0x00\n    /* \"--CODEGEN--\":27:28   */\n  dup1\n    /* \"--CODEGEN--\":20:32   */\n  revert\n    /* \"--CODEGEN--\":5:7   */\ntag_24:\n    /* \"anonimity/1-ETH-Anonymity.sol\":9699:9722  Hasher.MiMCSponge(R, C) */\n  pop\n  gas\n  delegatecall\n  iszero\n    /* \"--CODEGEN--\":8:17   */\n  dup1\n    /* \"--CODEGEN--\":5:7   */\n  iszero\n  tag_25\n  jumpi\n    /* \"--CODEGEN--\":45:61   */\n  returndatasize\n    /* \"--CODEGEN--\":42:43   */\n  0x00\n    /* \"--CODEGEN--\":39:40   */\n  dup1\n    /* \"--CODEGEN--\":24:62   */\n  returndatacopy\n    /* \"--CODEGEN--\":77:93   */\n  returndatasize\n    /* \"--CODEGEN--\":74:75   */\n  0x00\n    /* \"--CODEGEN--\":67:94   */\n  revert\n    /* \"--CODEGEN--\":5:7   */\ntag_25:\n    /* \"anonimity/1-ETH-Anonymity.sol\":9699:9722  Hasher.MiMCSponge(R, C) */\n  pop\n  pop\n  pop\n  pop\n  mload(0x40)\n  returndatasize\n    /* \"--CODEGEN--\":13:15   */\n  0x40\n    /* \"--CODEGEN--\":8:11   */\n  dup2\n    /* \"--CODEGEN--\":5:16   */\n  lt\n    /* \"--CODEGEN--\":2:4   */\n  iszero\n  tag_26\n  jumpi\n    /* \"--CODEGEN--\":29:30   */\n  0x00\n    /* \"--CODEGEN--\":26:27   */\n  dup1\n    /* \"--CODEGEN--\":19:31   */\n  revert\n    /* \"--CODEGEN--\":2:4   */\ntag_26:\n    /* \"anonimity/1-ETH-Anonymity.sol\":9699:9722  Hasher.MiMCSponge(R, C) */\n  dup2\n  add\n  swap1\n  dup1\n  dup1\n  mload\n  swap1\n  0x20\n  add\n  swap1\n  swap3\n  swap2\n  swap1\n  dup1\n  mload\n  swap1\n  0x20\n  add\n  swap1\n  swap3\n  swap2\n  swap1\n  pop\n  pop\n  pop\n    /* \"anonimity/1-ETH-Anonymity.sol\":9690:9722  (R, C) = Hasher.MiMCSponge(R, C) */\n  dup1\n  swap3\n  pop\n  dup2\n  swap4\n  pop\n  pop\n  pop\n    /* \"anonimity/1-ETH-Anonymity.sol\":9743:9744  R */\n  dup2\n    /* \"anonimity/1-ETH-Anonymity.sol\":9735:9745  bytes32(R) */\n  0x00\n  shl\n    /* \"anonimity/1-ETH-Anonymity.sol\":9728:9745  return bytes32(R) */\n  swap3\n  pop\n  pop\n  pop\n    /* \"anonimity/1-ETH-Anonymity.sol\":9305:9750  function hashLeftRight(bytes32 _left, bytes32 _right) public pure returns (bytes32) {... */\n  swap3\n  swap2\n  pop\n  pop\n  jump\t// out\n    /* \"anonimity/1-ETH-Anonymity.sol\":8142:11111  contract MerkleTreeWithHistory {... */\ntag_16:\n  dataSize(sub_0)\n  dup1\n  dataOffset(sub_0)\n  0x00\n  codecopy\n  0x00\n  return\nstop\ndata_6542fa7ce511fbc255ce93f94c5fe79a03559888b6c0d6b4bd92b57ef65f3b4e 5f72696768742073686f756c6420626520696e7369646520746865206669656c64\n\nsub_0: assembly {\n        /* \"anonimity/1-ETH-Anonymity.sol\":8142:11111  contract MerkleTreeWithHistory {... */\n      mstore(0x40, 0x80)\n      callvalue\n        /* \"--CODEGEN--\":8:17   */\n      dup1\n        /* \"--CODEGEN--\":5:7   */\n      iszero\n      tag_1\n      jumpi\n        /* \"--CODEGEN--\":30:31   */\n      0x00\n        /* \"--CODEGEN--\":27:28   */\n      dup1\n        /* \"--CODEGEN--\":20:32   */\n      revert\n        /* \"--CODEGEN--\":5:7   */\n    tag_1:\n        /* \"anonimity/1-ETH-Anonymity.sol\":8142:11111  contract MerkleTreeWithHistory {... */\n      pop\n      jumpi(tag_2, lt(calldatasize, 0x04))\n      shr(0xe0, calldataload(0x00))\n      dup1\n      0xc2b40ae4\n      gt\n      tag_15\n      jumpi\n      dup1\n      0xc2b40ae4\n      eq\n      tag_9\n      jumpi\n      dup1\n      0xcd87a3b4\n      eq\n      tag_10\n      jumpi\n      dup1\n      0xe8295588\n      eq\n      tag_11\n      jumpi\n      dup1\n      0xec732959\n      eq\n      tag_12\n      jumpi\n      dup1\n      0xf178e47c\n      eq\n      tag_13\n      jumpi\n      dup1\n      0xfc7e9c6f\n      eq\n      tag_14\n      jumpi\n      jump(tag_2)\n    tag_15:\n      dup1\n      0x38bf282e\n      eq\n      tag_3\n      jumpi\n      dup1\n      0x414a37ba\n      eq\n      tag_4\n      jumpi\n      dup1\n      0x4ecf518b\n      eq\n      tag_5\n      jumpi\n      dup1\n      0x6d9833e3\n      eq\n      tag_6\n      jumpi\n      dup1\n      0x90eeb02b\n      eq\n      tag_7\n      jumpi\n      dup1\n      0xba70f757\n      eq\n      tag_8\n      jumpi\n    tag_2:\n      0x00\n      dup1\n      revert\n        /* \"anonimity/1-ETH-Anonymity.sol\":9305:9750  function hashLeftRight(bytes32 _left, bytes32 _right) public pure returns (bytes32) {... */\n    tag_3:\n      tag_16\n      0x04\n      dup1\n      calldatasize\n      sub\n        /* \"--CODEGEN--\":13:15   */\n      0x40\n        /* \"--CODEGEN--\":8:11   */\n      dup2\n        /* \"--CODEGEN--\":5:16   */\n      lt\n        /* \"--CODEGEN--\":2:4   */\n      iszero\n      tag_17\n      jumpi\n        /* \"--CODEGEN--\":29:30   */\n      0x00\n        /* \"--CODEGEN--\":26:27   */\n      dup1\n        /* \"--CODEGEN--\":19:31   */\n      revert\n        /* \"--CODEGEN--\":2:4   */\n    tag_17:\n        /* \"anonimity/1-ETH-Anonymity.sol\":9305:9750  function hashLeftRight(bytes32 _left, bytes32 _right) public pure returns (bytes32) {... */\n      dup2\n      add\n      swap1\n      dup1\n      dup1\n      calldataload\n      swap1\n      0x20\n      add\n      swap1\n      swap3\n      swap2\n      swap1\n      dup1\n      calldataload\n      swap1\n      0x20\n      add\n      swap1\n      swap3\n      swap2\n      swap1\n      pop\n      pop\n      pop\n      tag_18\n      jump\t// in\n    tag_16:\n      mload(0x40)\n      dup1\n      dup3\n      dup2\n      mstore\n      0x20\n      add\n      swap2\n      pop\n      pop\n      mload(0x40)\n      dup1\n      swap2\n      sub\n      swap1\n      return\n        /* \"anonimity/1-ETH-Anonymity.sol\":8177:8291  uint256 public constant FIELD_SIZE = 21888242871839275222246405745257275088548364400416034343698204186575808495617 */\n    tag_4:\n      tag_19\n      tag_20\n      jump\t// in\n    tag_19:\n      mload(0x40)\n      dup1\n      dup3\n      dup2\n      mstore\n      0x20\n      add\n      swap2\n      pop\n      pop\n      mload(0x40)\n      dup1\n      swap2\n      sub\n      swap1\n      return\n        /* \"anonimity/1-ETH-Anonymity.sol\":8453:8473  uint32 public levels */\n    tag_5:\n      tag_21\n      tag_22\n      jump\t// in\n    tag_21:\n      mload(0x40)\n      dup1\n      dup3\n      0xffffffff\n      and\n      0xffffffff\n      and\n      dup2\n      mstore\n      0x20\n      add\n      swap2\n      pop\n      pop\n      mload(0x40)\n      dup1\n      swap2\n      sub\n      swap1\n      return\n        /* \"anonimity/1-ETH-Anonymity.sol\":10628:10970  function isKnownRoot(bytes32 _root) public view returns(bool) {... */\n    tag_6:\n      tag_23\n      0x04\n      dup1\n      calldatasize\n      sub\n        /* \"--CODEGEN--\":13:15   */\n      0x20\n        /* \"--CODEGEN--\":8:11   */\n      dup2\n        /* \"--CODEGEN--\":5:16   */\n      lt\n        /* \"--CODEGEN--\":2:4   */\n      iszero\n      tag_24\n      jumpi\n        /* \"--CODEGEN--\":29:30   */\n      0x00\n        /* \"--CODEGEN--\":26:27   */\n      dup1\n        /* \"--CODEGEN--\":19:31   */\n      revert\n        /* \"--CODEGEN--\":2:4   */\n    tag_24:\n        /* \"anonimity/1-ETH-Anonymity.sol\":10628:10970  function isKnownRoot(bytes32 _root) public view returns(bool) {... */\n      dup2\n      add\n      swap1\n      dup1\n      dup1\n      calldataload\n      swap1\n      0x20\n      add\n      swap1\n      swap3\n      swap2\n      swap1\n      pop\n      pop\n      pop\n      tag_25\n      jump\t// in\n    tag_23:\n      mload(0x40)\n      dup1\n      dup3\n      iszero\n      iszero\n      iszero\n      iszero\n      dup2\n      mstore\n      0x20\n      add\n      swap2\n      pop\n      pop\n      mload(0x40)\n      dup1\n      swap2\n      sub\n      swap1\n      return\n        /* \"anonimity/1-ETH-Anonymity.sol\":8674:8708  uint32 public currentRootIndex = 0 */\n    tag_7:\n      tag_26\n      tag_27\n      jump\t// in\n    tag_26:\n      mload(0x40)\n      dup1\n      dup3\n      0xffffffff\n      and\n      0xffffffff\n      and\n      dup2\n      mstore\n      0x20\n      add\n      swap2\n      pop\n      pop\n      mload(0x40)\n      dup1\n      swap2\n      sub\n      swap1\n      return\n        /* \"anonimity/1-ETH-Anonymity.sol\":11016:11109  function getLastRoot() public view returns(bytes32) {... */\n    tag_8:\n      tag_28\n      tag_29\n      jump\t// in\n    tag_28:\n      mload(0x40)\n      dup1\n      dup3\n      dup2\n      mstore\n      0x20\n      add\n      swap2\n      pop\n      pop\n      mload(0x40)\n      dup1\n      swap2\n      sub\n      swap1\n      return\n        /* \"anonimity/1-ETH-Anonymity.sol\":8793:8832  bytes32[ROOT_HISTORY_SIZE] public roots */\n    tag_9:\n      tag_30\n      0x04\n      dup1\n      calldatasize\n      sub\n        /* \"--CODEGEN--\":13:15   */\n      0x20\n        /* \"--CODEGEN--\":8:11   */\n      dup2\n        /* \"--CODEGEN--\":5:16   */\n      lt\n        /* \"--CODEGEN--\":2:4   */\n      iszero\n      tag_31\n      jumpi\n        /* \"--CODEGEN--\":29:30   */\n      0x00\n        /* \"--CODEGEN--\":26:27   */\n      dup1\n        /* \"--CODEGEN--\":19:31   */\n      revert\n        /* \"--CODEGEN--\":2:4   */\n    tag_31:\n        /* \"anonimity/1-ETH-Anonymity.sol\":8793:8832  bytes32[ROOT_HISTORY_SIZE] public roots */\n      dup2\n      add\n      swap1\n      dup1\n      dup1\n      calldataload\n      swap1\n      0x20\n      add\n      swap1\n      swap3\n      swap2\n      swap1\n      pop\n      pop\n      pop\n      tag_32\n      jump\t// in\n    tag_30:\n      mload(0x40)\n      dup1\n      dup3\n      dup2\n      mstore\n      0x20\n      add\n      swap2\n      pop\n      pop\n      mload(0x40)\n      dup1\n      swap2\n      sub\n      swap1\n      return\n        /* \"anonimity/1-ETH-Anonymity.sol\":8743:8789  uint32 public constant ROOT_HISTORY_SIZE = 100 */\n    tag_10:\n      tag_33\n      tag_34\n      jump\t// in\n    tag_33:\n      mload(0x40)\n      dup1\n      dup3\n      0xffffffff\n      and\n      0xffffffff\n      and\n      dup2\n      mstore\n      0x20\n      add\n      swap2\n      pop\n      pop\n      mload(0x40)\n      dup1\n      swap2\n      sub\n      swap1\n      return\n        /* \"anonimity/1-ETH-Anonymity.sol\":8648:8670  bytes32[] public zeros */\n    tag_11:\n      tag_35\n      0x04\n      dup1\n      calldatasize\n      sub\n        /* \"--CODEGEN--\":13:15   */\n      0x20\n        /* \"--CODEGEN--\":8:11   */\n      dup2\n        /* \"--CODEGEN--\":5:16   */\n      lt\n        /* \"--CODEGEN--\":2:4   */\n      iszero\n      tag_36\n      jumpi\n        /* \"--CODEGEN--\":29:30   */\n      0x00\n        /* \"--CODEGEN--\":26:27   */\n      dup1\n        /* \"--CODEGEN--\":19:31   */\n      revert\n        /* \"--CODEGEN--\":2:4   */\n    tag_36:\n        /* \"anonimity/1-ETH-Anonymity.sol\":8648:8670  bytes32[] public zeros */\n      dup2\n      add\n      swap1\n      dup1\n      dup1\n      calldataload\n      swap1\n      0x20\n      add\n      swap1\n      swap3\n      swap2\n      swap1\n      pop\n      pop\n      pop\n      tag_37\n      jump\t// in\n    tag_35:\n      mload(0x40)\n      dup1\n      dup3\n      dup2\n      mstore\n      0x20\n      add\n      swap2\n      pop\n      pop\n      mload(0x40)\n      dup1\n      swap2\n      sub\n      swap1\n      return\n        /* \"anonimity/1-ETH-Anonymity.sol\":8295:8409  uint256 public constant ZERO_VALUE = 21663839004416932945382355908790599225266501822907911457504978515578255421292 */\n    tag_12:\n      tag_38\n      tag_39\n      jump\t// in\n    tag_38:\n      mload(0x40)\n      dup1\n      dup3\n      dup2\n      mstore\n      0x20\n      add\n      swap2\n      pop\n      pop\n      mload(0x40)\n      dup1\n      swap2\n      sub\n      swap1\n      return\n        /* \"anonimity/1-ETH-Anonymity.sol\":8613:8644  bytes32[] public filledSubtrees */\n    tag_13:\n      tag_40\n      0x04\n      dup1\n      calldatasize\n      sub\n        /* \"--CODEGEN--\":13:15   */\n      0x20\n        /* \"--CODEGEN--\":8:11   */\n      dup2\n        /* \"--CODEGEN--\":5:16   */\n      lt\n        /* \"--CODEGEN--\":2:4   */\n      iszero\n      tag_41\n      jumpi\n        /* \"--CODEGEN--\":29:30   */\n      0x00\n        /* \"--CODEGEN--\":26:27   */\n      dup1\n        /* \"--CODEGEN--\":19:31   */\n      revert\n        /* \"--CODEGEN--\":2:4   */\n    tag_41:\n        /* \"anonimity/1-ETH-Anonymity.sol\":8613:8644  bytes32[] public filledSubtrees */\n      dup2\n      add\n      swap1\n      dup1\n      dup1\n      calldataload\n      swap1\n      0x20\n      add\n      swap1\n      swap3\n      swap2\n      swap1\n      pop\n      pop\n      pop\n      tag_42\n      jump\t// in\n    tag_40:\n      mload(0x40)\n      dup1\n      dup3\n      dup2\n      mstore\n      0x20\n      add\n      swap2\n      pop\n      pop\n      mload(0x40)\n      dup1\n      swap2\n      sub\n      swap1\n      return\n        /* \"anonimity/1-ETH-Anonymity.sol\":8712:8739  uint32 public nextIndex = 0 */\n    tag_14:\n      tag_43\n      tag_44\n      jump\t// in\n    tag_43:\n      mload(0x40)\n      dup1\n      dup3\n      0xffffffff\n      and\n      0xffffffff\n      and\n      dup2\n      mstore\n      0x20\n      add\n      swap2\n      pop\n      pop\n      mload(0x40)\n      dup1\n      swap2\n      sub\n      swap1\n      return\n        /* \"anonimity/1-ETH-Anonymity.sol\":9305:9750  function hashLeftRight(bytes32 _left, bytes32 _right) public pure returns (bytes32) {... */\n    tag_18:\n        /* \"anonimity/1-ETH-Anonymity.sol\":9380:9387  bytes32 */\n      0x00\n        /* \"anonimity/1-ETH-Anonymity.sol\":8214:8291  21888242871839275222246405745257275088548364400416034343698204186575808495617 */\n      0x30644e72e131a029b85045b68181585d2833e84879b9709143e1f593f0000001\n        /* \"anonimity/1-ETH-Anonymity.sol\":9411:9416  _left */\n      dup4\n        /* \"anonimity/1-ETH-Anonymity.sol\":9403:9417  uint256(_left) */\n      0x00\n      shr\n        /* \"anonimity/1-ETH-Anonymity.sol\":9403:9430  uint256(_left) < FIELD_SIZE */\n      lt\n        /* \"anonimity/1-ETH-Anonymity.sol\":9395:9467  require(uint256(_left) < FIELD_SIZE, \"_left should be inside the field\") */\n      tag_46\n      jumpi\n      mload(0x40)\n      0x08c379a000000000000000000000000000000000000000000000000000000000\n      dup2\n      mstore\n      0x04\n      add\n      dup1\n      dup1\n      0x20\n      add\n      dup3\n      dup2\n      sub\n      dup3\n      mstore\n      0x20\n      dup2\n      mstore\n      0x20\n      add\n      dup1\n      0x5f6c6566742073686f756c6420626520696e7369646520746865206669656c64\n      dup2\n      mstore\n      pop\n      0x20\n      add\n      swap2\n      pop\n      pop\n      mload(0x40)\n      dup1\n      swap2\n      sub\n      swap1\n      revert\n    tag_46:\n        /* \"anonimity/1-ETH-Anonymity.sol\":8214:8291  21888242871839275222246405745257275088548364400416034343698204186575808495617 */\n      0x30644e72e131a029b85045b68181585d2833e84879b9709143e1f593f0000001\n        /* \"anonimity/1-ETH-Anonymity.sol\":9489:9495  _right */\n      dup3\n        /* \"anonimity/1-ETH-Anonymity.sol\":9481:9496  uint256(_right) */\n      0x00\n      shr\n        /* \"anonimity/1-ETH-Anonymity.sol\":9481:9509  uint256(_right) < FIELD_SIZE */\n      lt\n        /* \"anonimity/1-ETH-Anonymity.sol\":9473:9547  require(uint256(_right) < FIELD_SIZE, \"_right should be inside the field\") */\n      tag_47\n      jumpi\n      mload(0x40)\n      0x08c379a000000000000000000000000000000000000000000000000000000000\n      dup2\n      mstore\n      0x04\n      add\n      dup1\n      dup1\n      0x20\n      add\n      dup3\n      dup2\n      sub\n      dup3\n      mstore\n      0x21\n      dup2\n      mstore\n      0x20\n      add\n      dup1\n      data_6542fa7ce511fbc255ce93f94c5fe79a03559888b6c0d6b4bd92b57ef65f3b4e\n      0x21\n      swap2\n      codecopy\n      0x40\n      add\n      swap2\n      pop\n      pop\n      mload(0x40)\n      dup1\n      swap2\n      sub\n      swap1\n      revert\n    tag_47:\n        /* \"anonimity/1-ETH-Anonymity.sol\":9553:9562  uint256 R */\n      0x00\n        /* \"anonimity/1-ETH-Anonymity.sol\":9573:9578  _left */\n      dup4\n        /* \"anonimity/1-ETH-Anonymity.sol\":9565:9579  uint256(_left) */\n      0x00\n      shr\n        /* \"anonimity/1-ETH-Anonymity.sol\":9553:9579  uint256 R = uint256(_left) */\n      swap1\n      pop\n        /* \"anonimity/1-ETH-Anonymity.sol\":9585:9594  uint256 C */\n      0x00\n        /* \"anonimity/1-ETH-Anonymity.sol\":9597:9598  0 */\n      dup1\n        /* \"anonimity/1-ETH-Anonymity.sol\":9585:9598  uint256 C = 0 */\n      swap1\n      pop\n        /* \"anonimity/1-ETH-Anonymity.sol\":9613:9619  Hasher */\n      linkerSymbol(\"b1d08b67b448c1738aa9c5efeb68bcb22194bda08022125c8b5ea581d01e7937\")\n        /* \"anonimity/1-ETH-Anonymity.sol\":9613:9630  Hasher.MiMCSponge */\n      0xf47d33b5\n        /* \"anonimity/1-ETH-Anonymity.sol\":9631:9632  R */\n      dup4\n        /* \"anonimity/1-ETH-Anonymity.sol\":9634:9635  C */\n      dup4\n        /* \"anonimity/1-ETH-Anonymity.sol\":9613:9636  Hasher.MiMCSponge(R, C) */\n      mload(0x40)\n      dup4\n      0xffffffff\n      and\n      0xe0\n      shl\n      dup2\n      mstore\n      0x04\n      add\n      dup1\n      dup4\n      dup2\n      mstore\n      0x20\n      add\n      dup3\n      dup2\n      mstore\n      0x20\n      add\n      swap3\n      pop\n      pop\n      pop\n      0x40\n      dup1\n      mload\n      dup1\n      dup4\n      sub\n      dup2\n      dup7\n      dup1\n      extcodesize\n      iszero\n        /* \"--CODEGEN--\":8:17   */\n      dup1\n        /* \"--CODEGEN--\":5:7   */\n      iszero\n      tag_48\n      jumpi\n        /* \"--CODEGEN--\":30:31   */\n      0x00\n        /* \"--CODEGEN--\":27:28   */\n      dup1\n        /* \"--CODEGEN--\":20:32   */\n      revert\n        /* \"--CODEGEN--\":5:7   */\n    tag_48:\n        /* \"anonimity/1-ETH-Anonymity.sol\":9613:9636  Hasher.MiMCSponge(R, C) */\n      pop\n      gas\n      delegatecall\n      iszero\n        /* \"--CODEGEN--\":8:17   */\n      dup1\n        /* \"--CODEGEN--\":5:7   */\n      iszero\n      tag_49\n      jumpi\n        /* \"--CODEGEN--\":45:61   */\n      returndatasize\n        /* \"--CODEGEN--\":42:43   */\n      0x00\n        /* \"--CODEGEN--\":39:40   */\n      dup1\n        /* \"--CODEGEN--\":24:62   */\n      returndatacopy\n        /* \"--CODEGEN--\":77:93   */\n      returndatasize\n        /* \"--CODEGEN--\":74:75   */\n      0x00\n        /* \"--CODEGEN--\":67:94   */\n      revert\n        /* \"--CODEGEN--\":5:7   */\n    tag_49:\n        /* \"anonimity/1-ETH-Anonymity.sol\":9613:9636  Hasher.MiMCSponge(R, C) */\n      pop\n      pop\n      pop\n      pop\n      mload(0x40)\n      returndatasize\n        /* \"--CODEGEN--\":13:15   */\n      0x40\n        /* \"--CODEGEN--\":8:11   */\n      dup2\n        /* \"--CODEGEN--\":5:16   */\n      lt\n        /* \"--CODEGEN--\":2:4   */\n      iszero\n      tag_50\n      jumpi\n        /* \"--CODEGEN--\":29:30   */\n      0x00\n        /* \"--CODEGEN--\":26:27   */\n      dup1\n        /* \"--CODEGEN--\":19:31   */\n      revert\n        /* \"--CODEGEN--\":2:4   */\n    tag_50:\n        /* \"anonimity/1-ETH-Anonymity.sol\":9613:9636  Hasher.MiMCSponge(R, C) */\n      dup2\n      add\n      swap1\n      dup1\n      dup1\n      mload\n      swap1\n      0x20\n      add\n      swap1\n      swap3\n      swap2\n      swap1\n      dup1\n      mload\n      swap1\n      0x20\n      add\n      swap1\n      swap3\n      swap2\n      swap1\n      pop\n      pop\n      pop\n        /* \"anonimity/1-ETH-Anonymity.sol\":9604:9636  (R, C) = Hasher.MiMCSponge(R, C) */\n      dup1\n      swap3\n      pop\n      dup2\n      swap4\n      pop\n      pop\n      pop\n        /* \"anonimity/1-ETH-Anonymity.sol\":8214:8291  21888242871839275222246405745257275088548364400416034343698204186575808495617 */\n      0x30644e72e131a029b85045b68181585d2833e84879b9709143e1f593f0000001\n        /* \"anonimity/1-ETH-Anonymity.sol\":9646:9684  addmod(R, uint256(_right), FIELD_SIZE) */\n      dup1\n      tag_51\n      jumpi\n      invalid\n    tag_51:\n        /* \"anonimity/1-ETH-Anonymity.sol\":9664:9670  _right */\n      dup5\n        /* \"anonimity/1-ETH-Anonymity.sol\":9656:9671  uint256(_right) */\n      0x00\n      shr\n        /* \"anonimity/1-ETH-Anonymity.sol\":9653:9654  R */\n      dup4\n        /* \"anonimity/1-ETH-Anonymity.sol\":9646:9684  addmod(R, uint256(_right), FIELD_SIZE) */\n      addmod\n        /* \"anonimity/1-ETH-Anonymity.sol\":9642:9684  R = addmod(R, uint256(_right), FIELD_SIZE) */\n      swap2\n      pop\n        /* \"anonimity/1-ETH-Anonymity.sol\":9699:9705  Hasher */\n      linkerSymbol(\"b1d08b67b448c1738aa9c5efeb68bcb22194bda08022125c8b5ea581d01e7937\")\n        /* \"anonimity/1-ETH-Anonymity.sol\":9699:9716  Hasher.MiMCSponge */\n      0xf47d33b5\n        /* \"anonimity/1-ETH-Anonymity.sol\":9717:9718  R */\n      dup4\n        /* \"anonimity/1-ETH-Anonymity.sol\":9720:9721  C */\n      dup4\n        /* \"anonimity/1-ETH-Anonymity.sol\":9699:9722  Hasher.MiMCSponge(R, C) */\n      mload(0x40)\n      dup4\n      0xffffffff\n      and\n      0xe0\n      shl\n      dup2\n      mstore\n      0x04\n      add\n      dup1\n      dup4\n      dup2\n      mstore\n      0x20\n      add\n      dup3\n      dup2\n      mstore\n      0x20\n      add\n      swap3\n      pop\n      pop\n      pop\n      0x40\n      dup1\n      mload\n      dup1\n      dup4\n      sub\n      dup2\n      dup7\n      dup1\n      extcodesize\n      iszero\n        /* \"--CODEGEN--\":8:17   */\n      dup1\n        /* \"--CODEGEN--\":5:7   */\n      iszero\n      tag_52\n      jumpi\n        /* \"--CODEGEN--\":30:31   */\n      0x00\n        /* \"--CODEGEN--\":27:28   */\n      dup1\n        /* \"--CODEGEN--\":20:32   */\n      revert\n        /* \"--CODEGEN--\":5:7   */\n    tag_52:\n        /* \"anonimity/1-ETH-Anonymity.sol\":9699:9722  Hasher.MiMCSponge(R, C) */\n      pop\n      gas\n      delegatecall\n      iszero\n        /* \"--CODEGEN--\":8:17   */\n      dup1\n        /* \"--CODEGEN--\":5:7   */\n      iszero\n      tag_53\n      jumpi\n        /* \"--CODEGEN--\":45:61   */\n      returndatasize\n        /* \"--CODEGEN--\":42:43   */\n      0x00\n        /* \"--CODEGEN--\":39:40   */\n      dup1\n        /* \"--CODEGEN--\":24:62   */\n      returndatacopy\n        /* \"--CODEGEN--\":77:93   */\n      returndatasize\n        /* \"--CODEGEN--\":74:75   */\n      0x00\n        /* \"--CODEGEN--\":67:94   */\n      revert\n        /* \"--CODEGEN--\":5:7   */\n    tag_53:\n        /* \"anonimity/1-ETH-Anonymity.sol\":9699:9722  Hasher.MiMCSponge(R, C) */\n      pop\n      pop\n      pop\n      pop\n      mload(0x40)\n      returndatasize\n        /* \"--CODEGEN--\":13:15   */\n      0x40\n        /* \"--CODEGEN--\":8:11   */\n      dup2\n        /* \"--CODEGEN--\":5:16   */\n      lt\n        /* \"--CODEGEN--\":2:4   */\n      iszero\n      tag_54\n      jumpi\n        /* \"--CODEGEN--\":29:30   */\n      0x00\n        /* \"--CODEGEN--\":26:27   */\n      dup1\n        /* \"--CODEGEN--\":19:31   */\n      revert\n        /* \"--CODEGEN--\":2:4   */\n    tag_54:\n        /* \"anonimity/1-ETH-Anonymity.sol\":9699:9722  Hasher.MiMCSponge(R, C) */\n      dup2\n      add\n      swap1\n      dup1\n      dup1\n      mload\n      swap1\n      0x20\n      add\n      swap1\n      swap3\n      swap2\n      swap1\n      dup1\n      mload\n      swap1\n      0x20\n      add\n      swap1\n      swap3\n      swap2\n      swap1\n      pop\n      pop\n      pop\n        /* \"anonimity/1-ETH-Anonymity.sol\":9690:9722  (R, C) = Hasher.MiMCSponge(R, C) */\n      dup1\n      swap3\n      pop\n      dup2\n      swap4\n      pop\n      pop\n      pop\n        /* \"anonimity/1-ETH-Anonymity.sol\":9743:9744  R */\n      dup2\n        /* \"anonimity/1-ETH-Anonymity.sol\":9735:9745  bytes32(R) */\n      0x00\n      shl\n        /* \"anonimity/1-ETH-Anonymity.sol\":9728:9745  return bytes32(R) */\n      swap3\n      pop\n      pop\n      pop\n        /* \"anonimity/1-ETH-Anonymity.sol\":9305:9750  function hashLeftRight(bytes32 _left, bytes32 _right) public pure returns (bytes32) {... */\n      swap3\n      swap2\n      pop\n      pop\n      jump\t// out\n        /* \"anonimity/1-ETH-Anonymity.sol\":8177:8291  uint256 public constant FIELD_SIZE = 21888242871839275222246405745257275088548364400416034343698204186575808495617 */\n    tag_20:\n        /* \"anonimity/1-ETH-Anonymity.sol\":8214:8291  21888242871839275222246405745257275088548364400416034343698204186575808495617 */\n      0x30644e72e131a029b85045b68181585d2833e84879b9709143e1f593f0000001\n        /* \"anonimity/1-ETH-Anonymity.sol\":8177:8291  uint256 public constant FIELD_SIZE = 21888242871839275222246405745257275088548364400416034343698204186575808495617 */\n      dup2\n      jump\t// out\n        /* \"anonimity/1-ETH-Anonymity.sol\":8453:8473  uint32 public levels */\n    tag_22:\n      0x00\n      dup1\n      swap1\n      sload\n      swap1\n      0x0100\n      exp\n      swap1\n      div\n      0xffffffff\n      and\n      dup2\n      jump\t// out\n        /* \"anonimity/1-ETH-Anonymity.sol\":10628:10970  function isKnownRoot(bytes32 _root) public view returns(bool) {... */\n    tag_25:\n        /* \"anonimity/1-ETH-Anonymity.sol\":10684:10688  bool */\n      0x00\n        /* \"anonimity/1-ETH-Anonymity.sol\":10709:10710  0 */\n      dup1\n        /* \"anonimity/1-ETH-Anonymity.sol\":10700:10710  _root == 0 */\n      0x00\n      shl\n        /* \"anonimity/1-ETH-Anonymity.sol\":10700:10705  _root */\n      dup3\n        /* \"anonimity/1-ETH-Anonymity.sol\":10700:10710  _root == 0 */\n      eq\n        /* \"anonimity/1-ETH-Anonymity.sol\":10696:10739  if (_root == 0) {... */\n      iszero\n      tag_56\n      jumpi\n        /* \"anonimity/1-ETH-Anonymity.sol\":10727:10732  false */\n      0x00\n        /* \"anonimity/1-ETH-Anonymity.sol\":10720:10732  return false */\n      swap1\n      pop\n      jump(tag_55)\n        /* \"anonimity/1-ETH-Anonymity.sol\":10696:10739  if (_root == 0) {... */\n    tag_56:\n        /* \"anonimity/1-ETH-Anonymity.sol\":10744:10752  uint32 i */\n      0x00\n        /* \"anonimity/1-ETH-Anonymity.sol\":10755:10771  currentRootIndex */\n      0x03\n      0x00\n      swap1\n      sload\n      swap1\n      0x0100\n      exp\n      swap1\n      div\n      0xffffffff\n      and\n        /* \"anonimity/1-ETH-Anonymity.sol\":10744:10771  uint32 i = currentRootIndex */\n      swap1\n      pop\n        /* \"anonimity/1-ETH-Anonymity.sol\":10777:10948  do {... */\n    tag_57:\n        /* \"anonimity/1-ETH-Anonymity.sol\":10801:10806  roots */\n      0x04\n        /* \"anonimity/1-ETH-Anonymity.sol\":10807:10808  i */\n      dup2\n        /* \"anonimity/1-ETH-Anonymity.sol\":10801:10809  roots[i] */\n      0xffffffff\n      and\n      0x64\n      dup2\n      lt\n      tag_60\n      jumpi\n      invalid\n    tag_60:\n      add\n      sload\n        /* \"anonimity/1-ETH-Anonymity.sol\":10792:10797  _root */\n      dup4\n        /* \"anonimity/1-ETH-Anonymity.sol\":10792:10809  _root == roots[i] */\n      eq\n        /* \"anonimity/1-ETH-Anonymity.sol\":10788:10841  if (_root == roots[i]) {... */\n      iszero\n      tag_62\n      jumpi\n        /* \"anonimity/1-ETH-Anonymity.sol\":10828:10832  true */\n      0x01\n        /* \"anonimity/1-ETH-Anonymity.sol\":10821:10832  return true */\n      swap2\n      pop\n      pop\n      jump(tag_55)\n        /* \"anonimity/1-ETH-Anonymity.sol\":10788:10841  if (_root == roots[i]) {... */\n    tag_62:\n        /* \"anonimity/1-ETH-Anonymity.sol\":10857:10858  0 */\n      0x00\n        /* \"anonimity/1-ETH-Anonymity.sol\":10852:10853  i */\n      dup2\n        /* \"anonimity/1-ETH-Anonymity.sol\":10852:10858  i == 0 */\n      0xffffffff\n      and\n      eq\n        /* \"anonimity/1-ETH-Anonymity.sol\":10848:10900  if (i == 0) {... */\n      iszero\n      tag_63\n      jumpi\n        /* \"anonimity/1-ETH-Anonymity.sol\":8786:8789  100 */\n      0x64\n        /* \"anonimity/1-ETH-Anonymity.sol\":10870:10891  i = ROOT_HISTORY_SIZE */\n      swap1\n      pop\n        /* \"anonimity/1-ETH-Anonymity.sol\":10848:10900  if (i == 0) {... */\n    tag_63:\n        /* \"anonimity/1-ETH-Anonymity.sol\":10907:10910  i-- */\n      dup1\n      dup1\n      0x01\n      swap1\n      sub\n      swap2\n      pop\n      pop\n        /* \"anonimity/1-ETH-Anonymity.sol\":10930:10946  currentRootIndex */\n      0x03\n      0x00\n      swap1\n      sload\n      swap1\n      0x0100\n      exp\n      swap1\n      div\n      0xffffffff\n      and\n        /* \"anonimity/1-ETH-Anonymity.sol\":10925:10946  i != currentRootIndex */\n      0xffffffff\n      and\n        /* \"anonimity/1-ETH-Anonymity.sol\":10925:10926  i */\n      dup2\n        /* \"anonimity/1-ETH-Anonymity.sol\":10925:10946  i != currentRootIndex */\n      0xffffffff\n      and\n      eq\n      iszero\n        /* \"anonimity/1-ETH-Anonymity.sol\":10777:10948  do {... */\n      tag_57\n      jumpi\n        /* \"anonimity/1-ETH-Anonymity.sol\":10960:10965  false */\n      0x00\n        /* \"anonimity/1-ETH-Anonymity.sol\":10953:10965  return false */\n      swap2\n      pop\n      pop\n        /* \"anonimity/1-ETH-Anonymity.sol\":10628:10970  function isKnownRoot(bytes32 _root) public view returns(bool) {... */\n    tag_55:\n      swap2\n      swap1\n      pop\n      jump\t// out\n        /* \"anonimity/1-ETH-Anonymity.sol\":8674:8708  uint32 public currentRootIndex = 0 */\n    tag_27:\n      0x03\n      0x00\n      swap1\n      sload\n      swap1\n      0x0100\n      exp\n      swap1\n      div\n      0xffffffff\n      and\n      dup2\n      jump\t// out\n        /* \"anonimity/1-ETH-Anonymity.sol\":11016:11109  function getLastRoot() public view returns(bytes32) {... */\n    tag_29:\n        /* \"anonimity/1-ETH-Anonymity.sol\":11059:11066  bytes32 */\n      0x00\n        /* \"anonimity/1-ETH-Anonymity.sol\":11081:11086  roots */\n      0x04\n        /* \"anonimity/1-ETH-Anonymity.sol\":11087:11103  currentRootIndex */\n      0x03\n      0x00\n      swap1\n      sload\n      swap1\n      0x0100\n      exp\n      swap1\n      div\n      0xffffffff\n      and\n        /* \"anonimity/1-ETH-Anonymity.sol\":11081:11104  roots[currentRootIndex] */\n      0xffffffff\n      and\n      0x64\n      dup2\n      lt\n      tag_65\n      jumpi\n      invalid\n    tag_65:\n      add\n      sload\n        /* \"anonimity/1-ETH-Anonymity.sol\":11074:11104  return roots[currentRootIndex] */\n      swap1\n      pop\n        /* \"anonimity/1-ETH-Anonymity.sol\":11016:11109  function getLastRoot() public view returns(bytes32) {... */\n      swap1\n      jump\t// out\n        /* \"anonimity/1-ETH-Anonymity.sol\":8793:8832  bytes32[ROOT_HISTORY_SIZE] public roots */\n    tag_32:\n      0x04\n      dup2\n      0x64\n      dup2\n      lt\n      tag_67\n      jumpi\n      invalid\n    tag_67:\n      add\n      0x00\n      swap2\n      pop\n      swap1\n      pop\n      sload\n      dup2\n      jump\t// out\n        /* \"anonimity/1-ETH-Anonymity.sol\":8743:8789  uint32 public constant ROOT_HISTORY_SIZE = 100 */\n    tag_34:\n        /* \"anonimity/1-ETH-Anonymity.sol\":8786:8789  100 */\n      0x64\n        /* \"anonimity/1-ETH-Anonymity.sol\":8743:8789  uint32 public constant ROOT_HISTORY_SIZE = 100 */\n      dup2\n      jump\t// out\n        /* \"anonimity/1-ETH-Anonymity.sol\":8648:8670  bytes32[] public zeros */\n    tag_37:\n      0x02\n      dup2\n      dup2\n      sload\n      dup2\n      lt\n      tag_69\n      jumpi\n      invalid\n    tag_69:\n      swap1\n      0x00\n      mstore\n      keccak256(0x00, 0x20)\n      add\n      0x00\n      swap2\n      pop\n      swap1\n      pop\n      sload\n      dup2\n      jump\t// out\n        /* \"anonimity/1-ETH-Anonymity.sol\":8295:8409  uint256 public constant ZERO_VALUE = 21663839004416932945382355908790599225266501822907911457504978515578255421292 */\n    tag_39:\n        /* \"anonimity/1-ETH-Anonymity.sol\":8332:8409  21663839004416932945382355908790599225266501822907911457504978515578255421292 */\n      0x2fe54c60d3acabf3343a35b6eba15db4821b340f76e741e2249685ed4899af6c\n        /* \"anonimity/1-ETH-Anonymity.sol\":8295:8409  uint256 public constant ZERO_VALUE = 21663839004416932945382355908790599225266501822907911457504978515578255421292 */\n      dup2\n      jump\t// out\n        /* \"anonimity/1-ETH-Anonymity.sol\":8613:8644  bytes32[] public filledSubtrees */\n    tag_42:\n      0x01\n      dup2\n      dup2\n      sload\n      dup2\n      lt\n      tag_71\n      jumpi\n      invalid\n    tag_71:\n      swap1\n      0x00\n      mstore\n      keccak256(0x00, 0x20)\n      add\n      0x00\n      swap2\n      pop\n      swap1\n      pop\n      sload\n      dup2\n      jump\t// out\n        /* \"anonimity/1-ETH-Anonymity.sol\":8712:8739  uint32 public nextIndex = 0 */\n    tag_44:\n      0x03\n      0x04\n      swap1\n      sload\n      swap1\n      0x0100\n      exp\n      swap1\n      div\n      0xffffffff\n      and\n      dup2\n      jump\t// out\n    stop\n    data_6542fa7ce511fbc255ce93f94c5fe79a03559888b6c0d6b4bd92b57ef65f3b4e 5f72696768742073686f756c6420626520696e7369646520746865206669656c64\n\n    auxdata: 0xa265627a7a72315820ac0c17acb817f31e211db0ccc6f924b37e9b2bb9f42bd7f43fc00769f1a41fa864736f6c63430005110032\n}\n",
				"bytecode": {
					"linkReferences": {
						"anonimity/1-ETH-Anonymity.sol": {
							"Hasher": [
								{
									"length": 20,
									"start": 743
								},
								{
									"length": 20,
									"start": 954
								},
								{
									"length": 20,
									"start": 2223
								},
								{
									"length": 20,
									"start": 2434
								}
							]
						}
					},
					"object": "60806040526000600360006101000a81548163ffffffff021916908363ffffffff1602179055506000600360046101000a81548163ffffffff021916908363ffffffff16021790555034801561005457600080fd5b5060146000806101000a81548163ffffffff021916908363ffffffff16021790555060007f2fe54c60d3acabf3343a35b6eba15db4821b340f76e741e2249685ed4899af6c60001b9050600281908060018154018082558091505090600182039060005260206000200160009091929091909150555060018190806001815401808255809150509060018203906000526020600020016000909192909190915055506000600190505b6000809054906101000a900463ffffffff1663ffffffff168163ffffffff1610156101995761013282836101c360201b60201c565b91506002829080600181540180825580915050906001820390600052602060002001600090919290919091505550600182908060018154018082558091505090600182039060005260206000200160009091929091909150555080806001019150506100fd565b506101aa81826101c360201b60201c565b60046000606481106101b857fe5b018190555050610469565b60007f30644e72e131a029b85045b68181585d2833e84879b9709143e1f593f00000018360001c1061025d576040517f08c379a00000000000000000000000000000000000000000000000000000000081526004018080602001828103825260208152602001807f5f6c6566742073686f756c6420626520696e7369646520746865206669656c6481525060200191505060405180910390fd5b7f30644e72e131a029b85045b68181585d2833e84879b9709143e1f593f00000018260001c106102d8576040517f08c379a0000000000000000000000000000000000000000000000000000000008152600401808060200182810382526021815260200180610c3f6021913960400191505060405180910390fd5b60008360001c9050600080905073__$b1d08b67b448c1738aa9c5efeb68bcb221$__63f47d33b583836040518363ffffffff1660e01b81526004018083815260200182815260200192505050604080518083038186803b15801561033b57600080fd5b505af415801561034f573d6000803e3d6000fd5b505050506040513d604081101561036557600080fd5b81019080805190602001909291908051906020019092919050505080925081935050507f30644e72e131a029b85045b68181585d2833e84879b9709143e1f593f0000001806103b057fe5b8460001c8308915073__$b1d08b67b448c1738aa9c5efeb68bcb221$__63f47d33b583836040518363ffffffff1660e01b81526004018083815260200182815260200192505050604080518083038186803b15801561040e57600080fd5b505af4158015610422573d6000803e3d6000fd5b505050506040513d604081101561043857600080fd5b81019080805190602001909291908051906020019092919050505080925081935050508160001b9250505092915050565b6107c7806104786000396000f3fe608060405234801561001057600080fd5b50600436106100b45760003560e01c8063c2b40ae411610071578063c2b40ae4146101db578063cd87a3b41461021d578063e829558814610247578063ec73295914610289578063f178e47c146102a7578063fc7e9c6f146102e9576100b4565b806338bf282e146100b9578063414a37ba146101055780634ecf518b146101235780636d9833e31461014d57806390eeb02b14610193578063ba70f757146101bd575b600080fd5b6100ef600480360360408110156100cf57600080fd5b810190808035906020019092919080359060200190929190505050610313565b6040518082815260200191505060405180910390f35b61010d6105b9565b6040518082815260200191505060405180910390f35b61012b6105dd565b604051808263ffffffff1663ffffffff16815260200191505060405180910390f35b6101796004803603602081101561016357600080fd5b81019080803590602001909291905050506105f2565b604051808215151515815260200191505060405180910390f35b61019b610694565b604051808263ffffffff1663ffffffff16815260200191505060405180910390f35b6101c56106aa565b6040518082815260200191505060405180910390f35b610207600480360360208110156101f157600080fd5b81019080803590602001909291905050506106d8565b6040518082815260200191505060405180910390f35b6102256106f0565b604051808263ffffffff1663ffffffff16815260200191505060405180910390f35b6102736004803603602081101561025d57600080fd5b81019080803590602001909291905050506106f5565b6040518082815260200191505060405180910390f35b610291610716565b6040518082815260200191505060405180910390f35b6102d3600480360360208110156102bd57600080fd5b810190808035906020019092919050505061073a565b6040518082815260200191505060405180910390f35b6102f161075b565b604051808263ffffffff1663ffffffff16815260200191505060405180910390f35b60007f30644e72e131a029b85045b68181585d2833e84879b9709143e1f593f00000018360001c106103ad576040517f08c379a00000000000000000000000000000000000000000000000000000000081526004018080602001828103825260208152602001807f5f6c6566742073686f756c6420626520696e7369646520746865206669656c6481525060200191505060405180910390fd5b7f30644e72e131a029b85045b68181585d2833e84879b9709143e1f593f00000018260001c10610428576040517f08c379a00000000000000000000000000000000000000000000000000000000081526004018080602001828103825260218152602001806107726021913960400191505060405180910390fd5b60008360001c9050600080905073__$b1d08b67b448c1738aa9c5efeb68bcb221$__63f47d33b583836040518363ffffffff1660e01b81526004018083815260200182815260200192505050604080518083038186803b15801561048b57600080fd5b505af415801561049f573d6000803e3d6000fd5b505050506040513d60408110156104b557600080fd5b81019080805190602001909291908051906020019092919050505080925081935050507f30644e72e131a029b85045b68181585d2833e84879b9709143e1f593f00000018061050057fe5b8460001c8308915073__$b1d08b67b448c1738aa9c5efeb68bcb221$__63f47d33b583836040518363ffffffff1660e01b81526004018083815260200182815260200192505050604080518083038186803b15801561055e57600080fd5b505af4158015610572573d6000803e3d6000fd5b505050506040513d604081101561058857600080fd5b81019080805190602001909291908051906020019092919050505080925081935050508160001b9250505092915050565b7f30644e72e131a029b85045b68181585d2833e84879b9709143e1f593f000000181565b6000809054906101000a900463ffffffff1681565b60008060001b821415610608576000905061068f565b6000600360009054906101000a900463ffffffff1690505b60048163ffffffff166064811061063357fe5b015483141561064657600191505061068f565b60008163ffffffff16141561065a57606490505b808060019003915050600360009054906101000a900463ffffffff1663ffffffff168163ffffffff1614156106205760009150505b919050565b600360009054906101000a900463ffffffff1681565b60006004600360009054906101000a900463ffffffff1663ffffffff16606481106106d157fe5b0154905090565b600481606481106106e557fe5b016000915090505481565b606481565b6002818154811061070257fe5b906000526020600020016000915090505481565b7f2fe54c60d3acabf3343a35b6eba15db4821b340f76e741e2249685ed4899af6c81565b6001818154811061074757fe5b906000526020600020016000915090505481565b600360049054906101000a900463ffffffff168156fe5f72696768742073686f756c6420626520696e7369646520746865206669656c64a265627a7a72315820ac0c17acb817f31e211db0ccc6f924b37e9b2bb9f42bd7f43fc00769f1a41fa864736f6c634300051100325f72696768742073686f756c6420626520696e7369646520746865206669656c64",
					"opcodes": "PUSH1 0x80 PUSH1 0x40 MSTORE PUSH1 0x0 PUSH1 0x3 PUSH1 0x0 PUSH2 0x100 EXP DUP2 SLOAD DUP2 PUSH4 0xFFFFFFFF MUL NOT AND SWAP1 DUP4 PUSH4 0xFFFFFFFF AND MUL OR SWAP1 SSTORE POP PUSH1 0x0 PUSH1 0x3 PUSH1 0x4 PUSH2 0x100 EXP DUP2 SLOAD DUP2 PUSH4 0xFFFFFFFF MUL NOT AND SWAP1 DUP4 PUSH4 0xFFFFFFFF AND MUL OR SWAP1 SSTORE POP CALLVALUE DUP1 ISZERO PUSH2 0x54 JUMPI PUSH1 0x0 DUP1 REVERT JUMPDEST POP PUSH1 0x14 PUSH1 0x0 DUP1 PUSH2 0x100 EXP DUP2 SLOAD DUP2 PUSH4 0xFFFFFFFF MUL NOT AND SWAP1 DUP4 PUSH4 0xFFFFFFFF AND MUL OR SWAP1 SSTORE POP PUSH1 0x0 PUSH32 0x2FE54C60D3ACABF3343A35B6EBA15DB4821B340F76E741E2249685ED4899AF6C PUSH1 0x0 SHL SWAP1 POP PUSH1 0x2 DUP2 SWAP1 DUP1 PUSH1 0x1 DUP2 SLOAD ADD DUP1 DUP3 SSTORE DUP1 SWAP2 POP POP SWAP1 PUSH1 0x1 DUP3 SUB SWAP1 PUSH1 0x0 MSTORE PUSH1 0x20 PUSH1 0x0 KECCAK256 ADD PUSH1 0x0 SWAP1 SWAP2 SWAP3 SWAP1 SWAP2 SWAP1 SWAP2 POP SSTORE POP PUSH1 0x1 DUP2 SWAP1 DUP1 PUSH1 0x1 DUP2 SLOAD ADD DUP1 DUP3 SSTORE DUP1 SWAP2 POP POP SWAP1 PUSH1 0x1 DUP3 SUB SWAP1 PUSH1 0x0 MSTORE PUSH1 0x20 PUSH1 0x0 KECCAK256 ADD PUSH1 0x0 SWAP1 SWAP2 SWAP3 SWAP1 SWAP2 SWAP1 SWAP2 POP SSTORE POP PUSH1 0x0 PUSH1 0x1 SWAP1 POP JUMPDEST PUSH1 0x0 DUP1 SWAP1 SLOAD SWAP1 PUSH2 0x100 EXP SWAP1 DIV PUSH4 0xFFFFFFFF AND PUSH4 0xFFFFFFFF AND DUP2 PUSH4 0xFFFFFFFF AND LT ISZERO PUSH2 0x199 JUMPI PUSH2 0x132 DUP3 DUP4 PUSH2 0x1C3 PUSH1 0x20 SHL PUSH1 0x20 SHR JUMP JUMPDEST SWAP2 POP PUSH1 0x2 DUP3 SWAP1 DUP1 PUSH1 0x1 DUP2 SLOAD ADD DUP1 DUP3 SSTORE DUP1 SWAP2 POP POP SWAP1 PUSH1 0x1 DUP3 SUB SWAP1 PUSH1 0x0 MSTORE PUSH1 0x20 PUSH1 0x0 KECCAK256 ADD PUSH1 0x0 SWAP1 SWAP2 SWAP3 SWAP1 SWAP2 SWAP1 SWAP2 POP SSTORE POP PUSH1 0x1 DUP3 SWAP1 DUP1 PUSH1 0x1 DUP2 SLOAD ADD DUP1 DUP3 SSTORE DUP1 SWAP2 POP POP SWAP1 PUSH1 0x1 DUP3 SUB SWAP1 PUSH1 0x0 MSTORE PUSH1 0x20 PUSH1 0x0 KECCAK256 ADD PUSH1 0x0 SWAP1 SWAP2 SWAP3 SWAP1 SWAP2 SWAP1 SWAP2 POP SSTORE POP DUP1 DUP1 PUSH1 0x1 ADD SWAP2 POP POP PUSH2 0xFD JUMP JUMPDEST POP PUSH2 0x1AA DUP2 DUP3 PUSH2 0x1C3 PUSH1 0x20 SHL PUSH1 0x20 SHR JUMP JUMPDEST PUSH1 0x4 PUSH1 0x0 PUSH1 0x64 DUP2 LT PUSH2 0x1B8 JUMPI INVALID JUMPDEST ADD DUP2 SWAP1 SSTORE POP POP PUSH2 0x469 JUMP JUMPDEST PUSH1 0x0 PUSH32 0x30644E72E131A029B85045B68181585D2833E84879B9709143E1F593F0000001 DUP4 PUSH1 0x0 SHR LT PUSH2 0x25D JUMPI PUSH1 0x40 MLOAD PUSH32 0x8C379A000000000000000000000000000000000000000000000000000000000 DUP2 MSTORE PUSH1 0x4 ADD DUP1 DUP1 PUSH1 0x20 ADD DUP3 DUP2 SUB DUP3 MSTORE PUSH1 0x20 DUP2 MSTORE PUSH1 0x20 ADD DUP1 PUSH32 0x5F6C6566742073686F756C6420626520696E7369646520746865206669656C64 DUP2 MSTORE POP PUSH1 0x20 ADD SWAP2 POP POP PUSH1 0x40 MLOAD DUP1 SWAP2 SUB SWAP1 REVERT JUMPDEST PUSH32 0x30644E72E131A029B85045B68181585D2833E84879B9709143E1F593F0000001 DUP3 PUSH1 0x0 SHR LT PUSH2 0x2D8 JUMPI PUSH1 0x40 MLOAD PUSH32 0x8C379A000000000000000000000000000000000000000000000000000000000 DUP2 MSTORE PUSH1 0x4 ADD DUP1 DUP1 PUSH1 0x20 ADD DUP3 DUP2 SUB DUP3 MSTORE PUSH1 0x21 DUP2 MSTORE PUSH1 0x20 ADD DUP1 PUSH2 0xC3F PUSH1 0x21 SWAP2 CODECOPY PUSH1 0x40 ADD SWAP2 POP POP PUSH1 0x40 MLOAD DUP1 SWAP2 SUB SWAP1 REVERT JUMPDEST PUSH1 0x0 DUP4 PUSH1 0x0 SHR SWAP1 POP PUSH1 0x0 DUP1 SWAP1 POP PUSH20 0x0 PUSH4 0xF47D33B5 DUP4 DUP4 PUSH1 0x40 MLOAD DUP4 PUSH4 0xFFFFFFFF AND PUSH1 0xE0 SHL DUP2 MSTORE PUSH1 0x4 ADD DUP1 DUP4 DUP2 MSTORE PUSH1 0x20 ADD DUP3 DUP2 MSTORE PUSH1 0x20 ADD SWAP3 POP POP POP PUSH1 0x40 DUP1 MLOAD DUP1 DUP4 SUB DUP2 DUP7 DUP1 EXTCODESIZE ISZERO DUP1 ISZERO PUSH2 0x33B JUMPI PUSH1 0x0 DUP1 REVERT JUMPDEST POP GAS DELEGATECALL ISZERO DUP1 ISZERO PUSH2 0x34F JUMPI RETURNDATASIZE PUSH1 0x0 DUP1 RETURNDATACOPY RETURNDATASIZE PUSH1 0x0 REVERT JUMPDEST POP POP POP POP PUSH1 0x40 MLOAD RETURNDATASIZE PUSH1 0x40 DUP2 LT ISZERO PUSH2 0x365 JUMPI PUSH1 0x0 DUP1 REVERT JUMPDEST DUP2 ADD SWAP1 DUP1 DUP1 MLOAD SWAP1 PUSH1 0x20 ADD SWAP1 SWAP3 SWAP2 SWAP1 DUP1 MLOAD SWAP1 PUSH1 0x20 ADD SWAP1 SWAP3 SWAP2 SWAP1 POP POP POP DUP1 SWAP3 POP DUP2 SWAP4 POP POP POP PUSH32 0x30644E72E131A029B85045B68181585D2833E84879B9709143E1F593F0000001 DUP1 PUSH2 0x3B0 JUMPI INVALID JUMPDEST DUP5 PUSH1 0x0 SHR DUP4 ADDMOD SWAP2 POP PUSH20 0x0 PUSH4 0xF47D33B5 DUP4 DUP4 PUSH1 0x40 MLOAD DUP4 PUSH4 0xFFFFFFFF AND PUSH1 0xE0 SHL DUP2 MSTORE PUSH1 0x4 ADD DUP1 DUP4 DUP2 MSTORE PUSH1 0x20 ADD DUP3 DUP2 MSTORE PUSH1 0x20 ADD SWAP3 POP POP POP PUSH1 0x40 DUP1 MLOAD DUP1 DUP4 SUB DUP2 DUP7 DUP1 EXTCODESIZE ISZERO DUP1 ISZERO PUSH2 0x40E JUMPI PUSH1 0x0 DUP1 REVERT JUMPDEST POP GAS DELEGATECALL ISZERO DUP1 ISZERO PUSH2 0x422 JUMPI RETURNDATASIZE PUSH1 0x0 DUP1 RETURNDATACOPY RETURNDATASIZE PUSH1 0x0 REVERT JUMPDEST POP POP POP POP PUSH1 0x40 MLOAD RETURNDATASIZE PUSH1 0x40 DUP2 LT ISZERO PUSH2 0x438 JUMPI PUSH1 0x0 DUP1 REVERT JUMPDEST DUP2 ADD SWAP1 DUP1 DUP1 MLOAD SWAP1 PUSH1 0x20 ADD SWAP1 SWAP3 SWAP2 SWAP1 DUP1 MLOAD SWAP1 PUSH1 0x20 ADD SWAP1 SWAP3 SWAP2 SWAP1 POP POP POP DUP1 SWAP3 POP DUP2 SWAP4 POP POP POP DUP2 PUSH1 0x0 SHL SWAP3 POP POP POP SWAP3 SWAP2 POP POP JUMP JUMPDEST PUSH2 0x7C7 DUP1 PUSH2 0x478 PUSH1 0x0 CODECOPY PUSH1 0x0 RETURN INVALID PUSH1 0x80 PUSH1 0x40 MSTORE CALLVALUE DUP1 ISZERO PUSH2 0x10 JUMPI PUSH1 0x0 DUP1 REVERT JUMPDEST POP PUSH1 0x4 CALLDATASIZE LT PUSH2 0xB4 JUMPI PUSH1 0x0 CALLDATALOAD PUSH1 0xE0 SHR DUP1 PUSH4 0xC2B40AE4 GT PUSH2 0x71 JUMPI DUP1 PUSH4 0xC2B40AE4 EQ PUSH2 0x1DB JUMPI DUP1 PUSH4 0xCD87A3B4 EQ PUSH2 0x21D JUMPI DUP1 PUSH4 0xE8295588 EQ PUSH2 0x247 JUMPI DUP1 PUSH4 0xEC732959 EQ PUSH2 0x289 JUMPI DUP1 PUSH4 0xF178E47C EQ PUSH2 0x2A7 JUMPI DUP1 PUSH4 0xFC7E9C6F EQ PUSH2 0x2E9 JUMPI PUSH2 0xB4 JUMP JUMPDEST DUP1 PUSH4 0x38BF282E EQ PUSH2 0xB9 JUMPI DUP1 PUSH4 0x414A37BA EQ PUSH2 0x105 JUMPI DUP1 PUSH4 0x4ECF518B EQ PUSH2 0x123 JUMPI DUP1 PUSH4 0x6D9833E3 EQ PUSH2 0x14D JUMPI DUP1 PUSH4 0x90EEB02B EQ PUSH2 0x193 JUMPI DUP1 PUSH4 0xBA70F757 EQ PUSH2 0x1BD JUMPI JUMPDEST PUSH1 0x0 DUP1 REVERT JUMPDEST PUSH2 0xEF PUSH1 0x4 DUP1 CALLDATASIZE SUB PUSH1 0x40 DUP2 LT ISZERO PUSH2 0xCF JUMPI PUSH1 0x0 DUP1 REVERT JUMPDEST DUP2 ADD SWAP1 DUP1 DUP1 CALLDATALOAD SWAP1 PUSH1 0x20 ADD SWAP1 SWAP3 SWAP2 SWAP1 DUP1 CALLDATALOAD SWAP1 PUSH1 0x20 ADD SWAP1 SWAP3 SWAP2 SWAP1 POP POP POP PUSH2 0x313 JUMP JUMPDEST PUSH1 0x40 MLOAD DUP1 DUP3 DUP2 MSTORE PUSH1 0x20 ADD SWAP2 POP POP PUSH1 0x40 MLOAD DUP1 SWAP2 SUB SWAP1 RETURN JUMPDEST PUSH2 0x10D PUSH2 0x5B9 JUMP JUMPDEST PUSH1 0x40 MLOAD DUP1 DUP3 DUP2 MSTORE PUSH1 0x20 ADD SWAP2 POP POP PUSH1 0x40 MLOAD DUP1 SWAP2 SUB SWAP1 RETURN JUMPDEST PUSH2 0x12B PUSH2 0x5DD JUMP JUMPDEST PUSH1 0x40 MLOAD DUP1 DUP3 PUSH4 0xFFFFFFFF AND PUSH4 0xFFFFFFFF AND DUP2 MSTORE PUSH1 0x20 ADD SWAP2 POP POP PUSH1 0x40 MLOAD DUP1 SWAP2 SUB SWAP1 RETURN JUMPDEST PUSH2 0x179 PUSH1 0x4 DUP1 CALLDATASIZE SUB PUSH1 0x20 DUP2 LT ISZERO PUSH2 0x163 JUMPI PUSH1 0x0 DUP1 REVERT JUMPDEST DUP2 ADD SWAP1 DUP1 DUP1 CALLDATALOAD SWAP1 PUSH1 0x20 ADD SWAP1 SWAP3 SWAP2 SWAP1 POP POP POP PUSH2 0x5F2 JUMP JUMPDEST PUSH1 0x40 MLOAD DUP1 DUP3 ISZERO ISZERO ISZERO ISZERO DUP2 MSTORE PUSH1 0x20 ADD SWAP2 POP POP PUSH1 0x40 MLOAD DUP1 SWAP2 SUB SWAP1 RETURN JUMPDEST PUSH2 0x19B PUSH2 0x694 JUMP JUMPDEST PUSH1 0x40 MLOAD DUP1 DUP3 PUSH4 0xFFFFFFFF AND PUSH4 0xFFFFFFFF AND DUP2 MSTORE PUSH1 0x20 ADD SWAP2 POP POP PUSH1 0x40 MLOAD DUP1 SWAP2 SUB SWAP1 RETURN JUMPDEST PUSH2 0x1C5 PUSH2 0x6AA JUMP JUMPDEST PUSH1 0x40 MLOAD DUP1 DUP3 DUP2 MSTORE PUSH1 0x20 ADD SWAP2 POP POP PUSH1 0x40 MLOAD DUP1 SWAP2 SUB SWAP1 RETURN JUMPDEST PUSH2 0x207 PUSH1 0x4 DUP1 CALLDATASIZE SUB PUSH1 0x20 DUP2 LT ISZERO PUSH2 0x1F1 JUMPI PUSH1 0x0 DUP1 REVERT JUMPDEST DUP2 ADD SWAP1 DUP1 DUP1 CALLDATALOAD SWAP1 PUSH1 0x20 ADD SWAP1 SWAP3 SWAP2 SWAP1 POP POP POP PUSH2 0x6D8 JUMP JUMPDEST PUSH1 0x40 MLOAD DUP1 DUP3 DUP2 MSTORE PUSH1 0x20 ADD SWAP2 POP POP PUSH1 0x40 MLOAD DUP1 SWAP2 SUB SWAP1 RETURN JUMPDEST PUSH2 0x225 PUSH2 0x6F0 JUMP JUMPDEST PUSH1 0x40 MLOAD DUP1 DUP3 PUSH4 0xFFFFFFFF AND PUSH4 0xFFFFFFFF AND DUP2 MSTORE PUSH1 0x20 ADD SWAP2 POP POP PUSH1 0x40 MLOAD DUP1 SWAP2 SUB SWAP1 RETURN JUMPDEST PUSH2 0x273 PUSH1 0x4 DUP1 CALLDATASIZE SUB PUSH1 0x20 DUP2 LT ISZERO PUSH2 0x25D JUMPI PUSH1 0x0 DUP1 REVERT JUMPDEST DUP2 ADD SWAP1 DUP1 DUP1 CALLDATALOAD SWAP1 PUSH1 0x20 ADD SWAP1 SWAP3 SWAP2 SWAP1 POP POP POP PUSH2 0x6F5 JUMP JUMPDEST PUSH1 0x40 MLOAD DUP1 DUP3 DUP2 MSTORE PUSH1 0x20 ADD SWAP2 POP POP PUSH1 0x40 MLOAD DUP1 SWAP2 SUB SWAP1 RETURN JUMPDEST PUSH2 0x291 PUSH2 0x716 JUMP JUMPDEST PUSH1 0x40 MLOAD DUP1 DUP3 DUP2 MSTORE PUSH1 0x20 ADD SWAP2 POP POP PUSH1 0x40 MLOAD DUP1 SWAP2 SUB SWAP1 RETURN JUMPDEST PUSH2 0x2D3 PUSH1 0x4 DUP1 CALLDATASIZE SUB PUSH1 0x20 DUP2 LT ISZERO PUSH2 0x2BD JUMPI PUSH1 0x0 DUP1 REVERT JUMPDEST DUP2 ADD SWAP1 DUP1 DUP1 CALLDATALOAD SWAP1 PUSH1 0x20 ADD SWAP1 SWAP3 SWAP2 SWAP1 POP POP POP PUSH2 0x73A JUMP JUMPDEST PUSH1 0x40 MLOAD DUP1 DUP3 DUP2 MSTORE PUSH1 0x20 ADD SWAP2 POP POP PUSH1 0x40 MLOAD DUP1 SWAP2 SUB SWAP1 RETURN JUMPDEST PUSH2 0x2F1 PUSH2 0x75B JUMP JUMPDEST PUSH1 0x40 MLOAD DUP1 DUP3 PUSH4 0xFFFFFFFF AND PUSH4 0xFFFFFFFF AND DUP2 MSTORE PUSH1 0x20 ADD SWAP2 POP POP PUSH1 0x40 MLOAD DUP1 SWAP2 SUB SWAP1 RETURN JUMPDEST PUSH1 0x0 PUSH32 0x30644E72E131A029B85045B68181585D2833E84879B9709143E1F593F0000001 DUP4 PUSH1 0x0 SHR LT PUSH2 0x3AD JUMPI PUSH1 0x40 MLOAD PUSH32 0x8C379A000000000000000000000000000000000000000000000000000000000 DUP2 MSTORE PUSH1 0x4 ADD DUP1 DUP1 PUSH1 0x20 ADD DUP3 DUP2 SUB DUP3 MSTORE PUSH1 0x20 DUP2 MSTORE PUSH1 0x20 ADD DUP1 PUSH32 0x5F6C6566742073686F756C6420626520696E7369646520746865206669656C64 DUP2 MSTORE POP PUSH1 0x20 ADD SWAP2 POP POP PUSH1 0x40 MLOAD DUP1 SWAP2 SUB SWAP1 REVERT JUMPDEST PUSH32 0x30644E72E131A029B85045B68181585D2833E84879B9709143E1F593F0000001 DUP3 PUSH1 0x0 SHR LT PUSH2 0x428 JUMPI PUSH1 0x40 MLOAD PUSH32 0x8C379A000000000000000000000000000000000000000000000000000000000 DUP2 MSTORE PUSH1 0x4 ADD DUP1 DUP1 PUSH1 0x20 ADD DUP3 DUP2 SUB DUP3 MSTORE PUSH1 0x21 DUP2 MSTORE PUSH1 0x20 ADD DUP1 PUSH2 0x772 PUSH1 0x21 SWAP2 CODECOPY PUSH1 0x40 ADD SWAP2 POP POP PUSH1 0x40 MLOAD DUP1 SWAP2 SUB SWAP1 REVERT JUMPDEST PUSH1 0x0 DUP4 PUSH1 0x0 SHR SWAP1 POP PUSH1 0x0 DUP1 SWAP1 POP PUSH20 0x0 PUSH4 0xF47D33B5 DUP4 DUP4 PUSH1 0x40 MLOAD DUP4 PUSH4 0xFFFFFFFF AND PUSH1 0xE0 SHL DUP2 MSTORE PUSH1 0x4 ADD DUP1 DUP4 DUP2 MSTORE PUSH1 0x20 ADD DUP3 DUP2 MSTORE PUSH1 0x20 ADD SWAP3 POP POP POP PUSH1 0x40 DUP1 MLOAD DUP1 DUP4 SUB DUP2 DUP7 DUP1 EXTCODESIZE ISZERO DUP1 ISZERO PUSH2 0x48B JUMPI PUSH1 0x0 DUP1 REVERT JUMPDEST POP GAS DELEGATECALL ISZERO DUP1 ISZERO PUSH2 0x49F JUMPI RETURNDATASIZE PUSH1 0x0 DUP1 RETURNDATACOPY RETURNDATASIZE PUSH1 0x0 REVERT JUMPDEST POP POP POP POP PUSH1 0x40 MLOAD RETURNDATASIZE PUSH1 0x40 DUP2 LT ISZERO PUSH2 0x4B5 JUMPI PUSH1 0x0 DUP1 REVERT JUMPDEST DUP2 ADD SWAP1 DUP1 DUP1 MLOAD SWAP1 PUSH1 0x20 ADD SWAP1 SWAP3 SWAP2 SWAP1 DUP1 MLOAD SWAP1 PUSH1 0x20 ADD SWAP1 SWAP3 SWAP2 SWAP1 POP POP POP DUP1 SWAP3 POP DUP2 SWAP4 POP POP POP PUSH32 0x30644E72E131A029B85045B68181585D2833E84879B9709143E1F593F0000001 DUP1 PUSH2 0x500 JUMPI INVALID JUMPDEST DUP5 PUSH1 0x0 SHR DUP4 ADDMOD SWAP2 POP PUSH20 0x0 PUSH4 0xF47D33B5 DUP4 DUP4 PUSH1 0x40 MLOAD DUP4 PUSH4 0xFFFFFFFF AND PUSH1 0xE0 SHL DUP2 MSTORE PUSH1 0x4 ADD DUP1 DUP4 DUP2 MSTORE PUSH1 0x20 ADD DUP3 DUP2 MSTORE PUSH1 0x20 ADD SWAP3 POP POP POP PUSH1 0x40 DUP1 MLOAD DUP1 DUP4 SUB DUP2 DUP7 DUP1 EXTCODESIZE ISZERO DUP1 ISZERO PUSH2 0x55E JUMPI PUSH1 0x0 DUP1 REVERT JUMPDEST POP GAS DELEGATECALL ISZERO DUP1 ISZERO PUSH2 0x572 JUMPI RETURNDATASIZE PUSH1 0x0 DUP1 RETURNDATACOPY RETURNDATASIZE PUSH1 0x0 REVERT JUMPDEST POP POP POP POP PUSH1 0x40 MLOAD RETURNDATASIZE PUSH1 0x40 DUP2 LT ISZERO PUSH2 0x588 JUMPI PUSH1 0x0 DUP1 REVERT JUMPDEST DUP2 ADD SWAP1 DUP1 DUP1 MLOAD SWAP1 PUSH1 0x20 ADD SWAP1 SWAP3 SWAP2 SWAP1 DUP1 MLOAD SWAP1 PUSH1 0x20 ADD SWAP1 SWAP3 SWAP2 SWAP1 POP POP POP DUP1 SWAP3 POP DUP2 SWAP4 POP POP POP DUP2 PUSH1 0x0 SHL SWAP3 POP POP POP SWAP3 SWAP2 POP POP JUMP JUMPDEST PUSH32 0x30644E72E131A029B85045B68181585D2833E84879B9709143E1F593F0000001 DUP2 JUMP JUMPDEST PUSH1 0x0 DUP1 SWAP1 SLOAD SWAP1 PUSH2 0x100 EXP SWAP1 DIV PUSH4 0xFFFFFFFF AND DUP2 JUMP JUMPDEST PUSH1 0x0 DUP1 PUSH1 0x0 SHL DUP3 EQ ISZERO PUSH2 0x608 JUMPI PUSH1 0x0 SWAP1 POP PUSH2 0x68F JUMP JUMPDEST PUSH1 0x0 PUSH1 0x3 PUSH1 0x0 SWAP1 SLOAD SWAP1 PUSH2 0x100 EXP SWAP1 DIV PUSH4 0xFFFFFFFF AND SWAP1 POP JUMPDEST PUSH1 0x4 DUP2 PUSH4 0xFFFFFFFF AND PUSH1 0x64 DUP2 LT PUSH2 0x633 JUMPI INVALID JUMPDEST ADD SLOAD DUP4 EQ ISZERO PUSH2 0x646 JUMPI PUSH1 0x1 SWAP2 POP POP PUSH2 0x68F JUMP JUMPDEST PUSH1 0x0 DUP2 PUSH4 0xFFFFFFFF AND EQ ISZERO PUSH2 0x65A JUMPI PUSH1 0x64 SWAP1 POP JUMPDEST DUP1 DUP1 PUSH1 0x1 SWAP1 SUB SWAP2 POP POP PUSH1 0x3 PUSH1 0x0 SWAP1 SLOAD SWAP1 PUSH2 0x100 EXP SWAP1 DIV PUSH4 0xFFFFFFFF AND PUSH4 0xFFFFFFFF AND DUP2 PUSH4 0xFFFFFFFF AND EQ ISZERO PUSH2 0x620 JUMPI PUSH1 0x0 SWAP2 POP POP JUMPDEST SWAP2 SWAP1 POP JUMP JUMPDEST PUSH1 0x3 PUSH1 0x0 SWAP1 SLOAD SWAP1 PUSH2 0x100 EXP SWAP1 DIV PUSH4 0xFFFFFFFF AND DUP2 JUMP JUMPDEST PUSH1 0x0 PUSH1 0x4 PUSH1 0x3 PUSH1 0x0 SWAP1 SLOAD SWAP1 PUSH2 0x100 EXP SWAP1 DIV PUSH4 0xFFFFFFFF AND PUSH4 0xFFFFFFFF AND PUSH1 0x64 DUP2 LT PUSH2 0x6D1 JUMPI INVALID JUMPDEST ADD SLOAD SWAP1 POP SWAP1 JUMP JUMPDEST PUSH1 0x4 DUP2 PUSH1 0x64 DUP2 LT PUSH2 0x6E5 JUMPI INVALID JUMPDEST ADD PUSH1 0x0 SWAP2 POP SWAP1 POP SLOAD DUP2 JUMP JUMPDEST PUSH1 0x64 DUP2 JUMP JUMPDEST PUSH1 0x2 DUP2 DUP2 SLOAD DUP2 LT PUSH2 0x702 JUMPI INVALID JUMPDEST SWAP1 PUSH1 0x0 MSTORE PUSH1 0x20 PUSH1 0x0 KECCAK256 ADD PUSH1 0x0 SWAP2 POP SWAP1 POP SLOAD DUP2 JUMP JUMPDEST PUSH32 0x2FE54C60D3ACABF3343A35B6EBA15DB4821B340F76E741E2249685ED4899AF6C DUP2 JUMP JUMPDEST PUSH1 0x1 DUP2 DUP2 SLOAD DUP2 LT PUSH2 0x747 JUMPI INVALID JUMPDEST SWAP1 PUSH1 0x0 MSTORE PUSH1 0x20 PUSH1 0x0 KECCAK256 ADD PUSH1 0x0 SWAP2 POP SWAP1 POP SLOAD DUP2 JUMP JUMPDEST PUSH1 0x3 PUSH1 0x4 SWAP1 SLOAD SWAP1 PUSH2 0x100 EXP SWAP1 DIV PUSH4 0xFFFFFFFF AND DUP2 JUMP INVALID 0x5F PUSH19 0x696768742073686F756C6420626520696E7369 PUSH5 0x6520746865 KECCAK256 PUSH7 0x69656C64A26562 PUSH27 0x7A72315820AC0C17ACB817F31E211DB0CCC6F924B37E9B2BB9F42B 0xD7 DELEGATECALL EXTCODEHASH 0xC0 SMOD PUSH10 0xF1A41FA864736F6C6343 STOP SDIV GT STOP ORIGIN 0x5F PUSH19 0x696768742073686F756C6420626520696E7369 PUSH5 0x6520746865 KECCAK256 PUSH7 0x69656C64000000 "
				},
				"gasEstimates": {
					"creation": {
						"codeDepositCost": "398200",
						"executionCost": "infinite",
						"totalCost": "infinite"
					},
					"external": {
						"FIELD_SIZE()": "228",
						"ROOT_HISTORY_SIZE()": "239",
						"ZERO_VALUE()": "271",
						"currentRootIndex()": "1142",
						"filledSubtrees(uint256)": "2068",
						"getLastRoot()": "1995",
						"hashLeftRight(bytes32,bytes32)": "infinite",
						"isKnownRoot(bytes32)": "infinite",
						"levels()": "1098",
						"nextIndex()": "1213",
						"roots(uint256)": "1129",
						"zeros(uint256)": "2024"
					},
					"internal": {
						"_insert(bytes32)": "infinite"
					}
				},
				"methodIdentifiers": {
					"FIELD_SIZE()": "414a37ba",
					"ROOT_HISTORY_SIZE()": "cd87a3b4",
					"ZERO_VALUE()": "ec732959",
					"currentRootIndex()": "90eeb02b",
					"filledSubtrees(uint256)": "f178e47c",
					"getLastRoot()": "ba70f757",
					"hashLeftRight(bytes32,bytes32)": "38bf282e",
					"isKnownRoot(bytes32)": "6d9833e3",
					"levels()": "4ecf518b",
					"nextIndex()": "fc7e9c6f",
					"roots(uint256)": "c2b40ae4",
					"zeros(uint256)": "e8295588"
				}
			},
			"storageLayout": {
				"storage": [
					{
						"astId": 425,
						"contract": "anonimity/1-ETH-Anonymity.sol:MerkleTreeWithHistory",
						"label": "levels",
						"offset": 0,
						"slot": "0",
						"type": "t_uint32"
					},
					{
						"astId": 428,
						"contract": "anonimity/1-ETH-Anonymity.sol:MerkleTreeWithHistory",
						"label": "filledSubtrees",
						"offset": 0,
						"slot": "1",
						"type": "t_array(t_bytes32)dyn_storage"
					},
					{
						"astId": 431,
						"contract": "anonimity/1-ETH-Anonymity.sol:MerkleTreeWithHistory",
						"label": "zeros",
						"offset": 0,
						"slot": "2",
						"type": "t_array(t_bytes32)dyn_storage"
					},
					{
						"astId": 434,
						"contract": "anonimity/1-ETH-Anonymity.sol:MerkleTreeWithHistory",
						"label": "currentRootIndex",
						"offset": 0,
						"slot": "3",
						"type": "t_uint32"
					},
					{
						"astId": 437,
						"contract": "anonimity/1-ETH-Anonymity.sol:MerkleTreeWithHistory",
						"label": "nextIndex",
						"offset": 4,
						"slot": "3",
						"type": "t_uint32"
					},
					{
						"astId": 444,
						"contract": "anonimity/1-ETH-Anonymity.sol:MerkleTreeWithHistory",
						"label": "roots",
						"offset": 0,
						"slot": "4",
						"type": "t_array(t_bytes32)100_storage"
					}
				],
				"types": {
					"t_array(t_bytes32)100_storage": {
						"base": "t_bytes32",
						"encoding": "inplace",
						"label": "bytes32[100]",
						"numberOfBytes": "3200"
					},
					"t_array(t_bytes32)dyn_storage": {
						"base": "t_bytes32",
						"encoding": "dynamic_array",
						"label": "bytes32[]",
						"numberOfBytes": "32"
					},
					"t_bytes32": {
						"encoding": "inplace",
						"label": "bytes32",
						"numberOfBytes": "32"
					},
					"t_uint32": {
						"encoding": "inplace",
						"label": "uint32",
						"numberOfBytes": "4"
					}
				}
			},
			"userdoc": {
				"methods": {}
			}
		}
	}
}