{
	"anonimity/1-ETH-Anonymity.sol": {
		"MessierAnonymity": {
			"abi": [
				{
					"inputs": [],
					"payable": false,
					"stateMutability": "nonpayable",
					"type": "constructor"
				},
				{
					"anonymous": false,
					"inputs": [
						{
							"indexed": false,
							"internalType": "uint256",
							"name": "oldValue",
							"type": "uint256"
						},
						{
							"indexed": false,
							"internalType": "uint256",
							"name": "newValue",
							"type": "uint256"
						}
					],
					"name": "AnonymityFeeUpdated",
					"type": "event"
				},
				{
					"anonymous": false,
					"inputs": [
						{
							"indexed": true,
							"internalType": "bytes32",
							"name": "commitment",
							"type": "bytes32"
						},
						{
							"indexed": false,
							"internalType": "uint32",
							"name": "leafIndex",
							"type": "uint32"
						},
						{
							"indexed": false,
							"internalType": "uint256",
							"name": "timestamp",
							"type": "uint256"
						},
						{
							"indexed": false,
							"internalType": "uint256",
							"name": "M87Denomination",
							"type": "uint256"
						},
						{
							"indexed": false,
							"internalType": "uint256",
							"name": "anonymityFee",
							"type": "uint256"
						}
					],
					"name": "Deposit",
					"type": "event"
				},
				{
					"anonymous": false,
					"inputs": [
						{
							"indexed": false,
							"internalType": "uint256",
							"name": "oldValue",
							"type": "uint256"
						},
						{
							"indexed": false,
							"internalType": "uint256",
							"name": "newValue",
							"type": "uint256"
						}
					],
					"name": "RewardPerBlockUpdated",
					"type": "event"
				},
				{
					"anonymous": false,
					"inputs": [
						{
							"indexed": false,
							"internalType": "address",
							"name": "to",
							"type": "address"
						},
						{
							"indexed": false,
							"internalType": "bytes32",
							"name": "nullifierHash",
							"type": "bytes32"
						},
						{
							"indexed": true,
							"internalType": "address",
							"name": "relayer",
							"type": "address"
						},
						{
							"indexed": false,
							"internalType": "uint256",
							"name": "reward",
							"type": "uint256"
						},
						{
							"indexed": false,
							"internalType": "uint256",
							"name": "relayerFee",
							"type": "uint256"
						}
					],
					"name": "Withdrawal",
					"type": "event"
				},
				{
					"constant": true,
					"inputs": [],
					"name": "FIELD_SIZE",
					"outputs": [
						{
							"internalType": "uint256",
							"name": "",
							"type": "uint256"
						}
					],
					"payable": false,
					"stateMutability": "view",
					"type": "function"
				},
				{
					"constant": true,
					"inputs": [],
					"name": "M87Denomination",
					"outputs": [
						{
							"internalType": "uint256",
							"name": "",
							"type": "uint256"
						}
					],
					"payable": false,
					"stateMutability": "view",
					"type": "function"
				},
				{
					"constant": true,
					"inputs": [],
					"name": "M87Token",
					"outputs": [
						{
							"internalType": "contract IERC20",
							"name": "",
							"type": "address"
						}
					],
					"payable": false,
					"stateMutability": "view",
					"type": "function"
				},
				{
					"constant": true,
					"inputs": [],
					"name": "ROOT_HISTORY_SIZE",
					"outputs": [
						{
							"internalType": "uint32",
							"name": "",
							"type": "uint32"
						}
					],
					"payable": false,
					"stateMutability": "view",
					"type": "function"
				},
				{
					"constant": true,
					"inputs": [],
					"name": "ZERO_VALUE",
					"outputs": [
						{
							"internalType": "uint256",
							"name": "",
							"type": "uint256"
						}
					],
					"payable": false,
					"stateMutability": "view",
					"type": "function"
				},
				{
					"constant": true,
					"inputs": [],
					"name": "accumulateM87",
					"outputs": [
						{
							"internalType": "uint256",
							"name": "",
							"type": "uint256"
						}
					],
					"payable": false,
					"stateMutability": "view",
					"type": "function"
				},
				{
					"constant": true,
					"inputs": [],
					"name": "anonymityFee",
					"outputs": [
						{
							"internalType": "uint256",
							"name": "",
							"type": "uint256"
						}
					],
					"payable": false,
					"stateMutability": "view",
					"type": "function"
				},
				{
					"constant": false,
					"inputs": [
						{
							"internalType": "address",
							"name": "_newOwner",
							"type": "address"
						}
					],
					"name": "changeMessierOwner",
					"outputs": [],
					"payable": false,
					"stateMutability": "nonpayable",
					"type": "function"
				},
				{
					"constant": false,
					"inputs": [
						{
							"internalType": "address",
							"name": "_newTreasury",
							"type": "address"
						}
					],
					"name": "changeTreasury",
					"outputs": [],
					"payable": false,
					"stateMutability": "nonpayable",
					"type": "function"
				},
				{
					"constant": true,
					"inputs": [],
					"name": "coinDenomination",
					"outputs": [
						{
							"internalType": "uint256",
							"name": "",
							"type": "uint256"
						}
					],
					"payable": false,
					"stateMutability": "view",
					"type": "function"
				},
				{
					"constant": true,
					"inputs": [],
					"name": "collectedFee",
					"outputs": [
						{
							"internalType": "uint256",
							"name": "",
							"type": "uint256"
						}
					],
					"payable": false,
					"stateMutability": "view",
					"type": "function"
				},
				{
					"constant": true,
					"inputs": [
						{
							"internalType": "bytes32",
							"name": "",
							"type": "bytes32"
						}
					],
					"name": "commitments",
					"outputs": [
						{
							"internalType": "bool",
							"name": "",
							"type": "bool"
						}
					],
					"payable": false,
					"stateMutability": "view",
					"type": "function"
				},
				{
					"constant": true,
					"inputs": [],
					"name": "curPoolIndex",
					"outputs": [
						{
							"internalType": "uint256",
							"name": "",
							"type": "uint256"
						}
					],
					"payable": false,
					"stateMutability": "view",
					"type": "function"
				},
				{
					"constant": true,
					"inputs": [],
					"name": "currentRootIndex",
					"outputs": [
						{
							"internalType": "uint32",
							"name": "",
							"type": "uint32"
						}
					],
					"payable": false,
					"stateMutability": "view",
					"type": "function"
				},
				{
					"constant": false,
					"inputs": [
						{
							"internalType": "bytes32",
							"name": "_commitment",
							"type": "bytes32"
						}
					],
					"name": "deposit",
					"outputs": [
						{
							"internalType": "bytes32",
							"name": "commitment",
							"type": "bytes32"
						},
						{
							"internalType": "uint32",
							"name": "insertedIndex",
							"type": "uint32"
						},
						{
							"internalType": "uint256",
							"name": "blocktime",
							"type": "uint256"
						},
						{
							"internalType": "uint256",
							"name": "M87Deno",
							"type": "uint256"
						},
						{
							"internalType": "uint256",
							"name": "fee",
							"type": "uint256"
						}
					],
					"payable": true,
					"stateMutability": "payable",
					"type": "function"
				},
				{
					"constant": true,
					"inputs": [],
					"name": "feeToCollectAmount",
					"outputs": [
						{
							"internalType": "uint256",
							"name": "",
							"type": "uint256"
						}
					],
					"payable": false,
					"stateMutability": "view",
					"type": "function"
				},
				{
					"constant": true,
					"inputs": [],
					"name": "feeToCollectPercent",
					"outputs": [
						{
							"internalType": "uint256",
							"name": "",
							"type": "uint256"
						}
					],
					"payable": false,
					"stateMutability": "view",
					"type": "function"
				},
				{
					"constant": true,
					"inputs": [
						{
							"internalType": "uint256",
							"name": "",
							"type": "uint256"
						}
					],
					"name": "filledSubtrees",
					"outputs": [
						{
							"internalType": "bytes32",
							"name": "",
							"type": "bytes32"
						}
					],
					"payable": false,
					"stateMutability": "view",
					"type": "function"
				},
				{
					"constant": false,
					"inputs": [],
					"name": "forceSwapAndShare",
					"outputs": [],
					"payable": false,
					"stateMutability": "nonpayable",
					"type": "function"
				},
				{
					"constant": true,
					"inputs": [],
					"name": "getAccumulateM87",
					"outputs": [
						{
							"internalType": "uint256",
							"name": "",
							"type": "uint256"
						}
					],
					"payable": false,
					"stateMutability": "view",
					"type": "function"
				},
				{
					"constant": true,
					"inputs": [],
					"name": "getLastRoot",
					"outputs": [
						{
							"internalType": "bytes32",
							"name": "",
							"type": "bytes32"
						}
					],
					"payable": false,
					"stateMutability": "view",
					"type": "function"
				},
				{
					"constant": true,
					"inputs": [
						{
							"internalType": "bytes32",
							"name": "_left",
							"type": "bytes32"
						},
						{
							"internalType": "bytes32",
							"name": "_right",
							"type": "bytes32"
						}
					],
					"name": "hashLeftRight",
					"outputs": [
						{
							"internalType": "bytes32",
							"name": "",
							"type": "bytes32"
						}
					],
					"payable": false,
					"stateMutability": "view",
					"type": "function"
				},
				{
					"constant": true,
					"inputs": [],
					"name": "initM87Denomination",
					"outputs": [
						{
							"internalType": "uint256",
							"name": "",
							"type": "uint256"
						}
					],
					"payable": false,
					"stateMutability": "view",
					"type": "function"
				},
				{
					"constant": true,
					"inputs": [
						{
							"internalType": "bytes32",
							"name": "_root",
							"type": "bytes32"
						}
					],
					"name": "isKnownRoot",
					"outputs": [
						{
							"internalType": "bool",
							"name": "",
							"type": "bool"
						}
					],
					"payable": false,
					"stateMutability": "view",
					"type": "function"
				},
				{
					"constant": true,
					"inputs": [],
					"name": "lastRewardBlock",
					"outputs": [
						{
							"internalType": "uint256",
							"name": "",
							"type": "uint256"
						}
					],
					"payable": false,
					"stateMutability": "view",
					"type": "function"
				},
				{
					"constant": true,
					"inputs": [],
					"name": "levels",
					"outputs": [
						{
							"internalType": "uint32",
							"name": "",
							"type": "uint32"
						}
					],
					"payable": false,
					"stateMutability": "view",
					"type": "function"
				},
				{
					"constant": true,
					"inputs": [],
					"name": "messier_owner",
					"outputs": [
						{
							"internalType": "address",
							"name": "",
							"type": "address"
						}
					],
					"payable": false,
					"stateMutability": "view",
					"type": "function"
				},
				{
					"constant": true,
					"inputs": [],
					"name": "nextIndex",
					"outputs": [
						{
							"internalType": "uint32",
							"name": "",
							"type": "uint32"
						}
					],
					"payable": false,
					"stateMutability": "view",
					"type": "function"
				},
				{
					"constant": true,
					"inputs": [],
					"name": "numOfShares",
					"outputs": [
						{
							"internalType": "uint256",
							"name": "",
							"type": "uint256"
						}
					],
					"payable": false,
					"stateMutability": "view",
					"type": "function"
				},
				{
					"constant": true,
					"inputs": [],
					"name": "overMinEth",
					"outputs": [
						{
							"internalType": "uint256",
							"name": "",
							"type": "uint256"
						}
					],
					"payable": false,
					"stateMutability": "view",
					"type": "function"
				},
				{
					"constant": true,
					"inputs": [
						{
							"internalType": "uint256",
							"name": "",
							"type": "uint256"
						}
					],
					"name": "poolList",
					"outputs": [
						{
							"internalType": "address",
							"name": "",
							"type": "address"
						}
					],
					"payable": false,
					"stateMutability": "view",
					"type": "function"
				},
				{
					"constant": true,
					"inputs": [
						{
							"internalType": "uint256",
							"name": "",
							"type": "uint256"
						}
					],
					"name": "rewardAmounts",
					"outputs": [
						{
							"internalType": "uint256",
							"name": "",
							"type": "uint256"
						}
					],
					"payable": false,
					"stateMutability": "view",
					"type": "function"
				},
				{
					"constant": true,
					"inputs": [],
					"name": "rewardPerBlock",
					"outputs": [
						{
							"internalType": "uint256",
							"name": "",
							"type": "uint256"
						}
					],
					"payable": false,
					"stateMutability": "view",
					"type": "function"
				},
				{
					"constant": true,
					"inputs": [
						{
							"internalType": "uint256",
							"name": "",
							"type": "uint256"
						}
					],
					"name": "roots",
					"outputs": [
						{
							"internalType": "bytes32",
							"name": "",
							"type": "bytes32"
						}
					],
					"payable": false,
					"stateMutability": "view",
					"type": "function"
				},
				{
					"constant": false,
					"inputs": [
						{
							"internalType": "uint256",
							"name": "_fee",
							"type": "uint256"
						}
					],
					"name": "setAnonymityFee",
					"outputs": [],
					"payable": false,
					"stateMutability": "nonpayable",
					"type": "function"
				},
				{
					"constant": false,
					"inputs": [
						{
							"internalType": "uint256",
							"name": "_duration",
							"type": "uint256"
						}
					],
					"name": "setDuration",
					"outputs": [],
					"payable": false,
					"stateMutability": "nonpayable",
					"type": "function"
				},
				{
					"constant": false,
					"inputs": [
						{
							"internalType": "uint256",
							"name": "_fee",
							"type": "uint256"
						}
					],
					"name": "setFeePercent",
					"outputs": [],
					"payable": false,
					"stateMutability": "nonpayable",
					"type": "function"
				},
				{
					"constant": false,
					"inputs": [
						{
							"internalType": "uint256",
							"name": "_overMinEth",
							"type": "uint256"
						}
					],
					"name": "setOverMinETH",
					"outputs": [],
					"payable": false,
					"stateMutability": "nonpayable",
					"type": "function"
				},
				{
					"constant": false,
					"inputs": [
						{
							"internalType": "uint256",
							"name": "burnFee",
							"type": "uint256"
						},
						{
							"internalType": "uint256",
							"name": "fee1",
							"type": "uint256"
						},
						{
							"internalType": "uint256",
							"name": "fee2",
							"type": "uint256"
						},
						{
							"internalType": "uint256",
							"name": "fee3",
							"type": "uint256"
						},
						{
							"internalType": "uint256",
							"name": "fee4",
							"type": "uint256"
						}
					],
					"name": "setPoolFee",
					"outputs": [],
					"payable": false,
					"stateMutability": "nonpayable",
					"type": "function"
				},
				{
					"constant": false,
					"inputs": [
						{
							"internalType": "address",
							"name": "addr1",
							"type": "address"
						},
						{
							"internalType": "address",
							"name": "addr2",
							"type": "address"
						},
						{
							"internalType": "address",
							"name": "addr3",
							"type": "address"
						},
						{
							"internalType": "address",
							"name": "addr4",
							"type": "address"
						}
					],
					"name": "setPoolList",
					"outputs": [],
					"payable": false,
					"stateMutability": "nonpayable",
					"type": "function"
				},
				{
					"constant": true,
					"inputs": [
						{
							"internalType": "uint256",
							"name": "",
							"type": "uint256"
						}
					],
					"name": "shareOfReward",
					"outputs": [
						{
							"internalType": "uint256",
							"name": "",
							"type": "uint256"
						}
					],
					"payable": false,
					"stateMutability": "view",
					"type": "function"
				},
				{
					"constant": true,
					"inputs": [],
					"name": "token",
					"outputs": [
						{
							"internalType": "contract IERC20",
							"name": "",
							"type": "address"
						}
					],
					"payable": false,
					"stateMutability": "view",
					"type": "function"
				},
				{
					"constant": true,
					"inputs": [],
					"name": "tokenDenomination",
					"outputs": [
						{
							"internalType": "uint256",
							"name": "",
							"type": "uint256"
						}
					],
					"payable": false,
					"stateMutability": "view",
					"type": "function"
				},
				{
					"constant": true,
					"inputs": [],
					"name": "treasury",
					"outputs": [
						{
							"internalType": "address",
							"name": "",
							"type": "address"
						}
					],
					"payable": false,
					"stateMutability": "view",
					"type": "function"
				},
				{
					"constant": true,
					"inputs": [],
					"name": "uniswapV2Router",
					"outputs": [
						{
							"internalType": "contract IUniswapV2Router02",
							"name": "",
							"type": "address"
						}
					],
					"payable": false,
					"stateMutability": "view",
					"type": "function"
				},
				{
					"constant": false,
					"inputs": [],
					"name": "updateBlockReward",
					"outputs": [],
					"payable": false,
					"stateMutability": "nonpayable",
					"type": "function"
				},
				{
					"constant": false,
					"inputs": [
						{
							"internalType": "address",
							"name": "_newToken",
							"type": "address"
						}
					],
					"name": "updateM87Token",
					"outputs": [],
					"payable": false,
					"stateMutability": "nonpayable",
					"type": "function"
				},
				{
					"constant": false,
					"inputs": [
						{
							"internalType": "address",
							"name": "_newVerifier",
							"type": "address"
						}
					],
					"name": "updateVerifier",
					"outputs": [],
					"payable": false,
					"stateMutability": "nonpayable",
					"type": "function"
				},
				{
					"constant": true,
					"inputs": [],
					"name": "verifier",
					"outputs": [
						{
							"internalType": "contract IVerifier",
							"name": "",
							"type": "address"
						}
					],
					"payable": false,
					"stateMutability": "view",
					"type": "function"
				},
				{
					"constant": true,
					"inputs": [],
					"name": "version",
					"outputs": [
						{
							"internalType": "string",
							"name": "",
							"type": "string"
						}
					],
					"payable": false,
					"stateMutability": "view",
					"type": "function"
				},
				{
					"constant": false,
					"inputs": [
						{
							"internalType": "bytes",
							"name": "_proof",
							"type": "bytes"
						},
						{
							"internalType": "bytes32",
							"name": "_root",
							"type": "bytes32"
						},
						{
							"internalType": "bytes32",
							"name": "_nullifierHash",
							"type": "bytes32"
						},
						{
							"internalType": "address payable",
							"name": "_recipient",
							"type": "address"
						},
						{
							"internalType": "address payable",
							"name": "_relayer",
							"type": "address"
						},
						{
							"internalType": "uint256",
							"name": "_relayerFee",
							"type": "uint256"
						},
						{
							"internalType": "uint256",
							"name": "_refund",
							"type": "uint256"
						}
					],
					"name": "withdraw",
					"outputs": [],
					"payable": true,
					"stateMutability": "payable",
					"type": "function"
				},
				{
					"constant": true,
					"inputs": [
						{
							"internalType": "uint256",
							"name": "",
							"type": "uint256"
						}
					],
					"name": "zeros",
					"outputs": [
						{
							"internalType": "bytes32",
							"name": "",
							"type": "bytes32"
						}
					],
					"payable": false,
					"stateMutability": "view",
					"type": "function"
				}
			],
			"devdoc": {
				"methods": {
					"deposit(bytes32)": {
						"details": "Deposit funds into the contract. The caller must send (for Coin) or approve (for ERC20) value equal to or `denomination` of this instance.",
						"params": {
							"_commitment": "the note commitment, which is PedersenHash(nullifier + secret)"
						}
					},
					"getLastRoot()": {
						"details": "Returns the last root"
					},
					"hashLeftRight(bytes32,bytes32)": {
						"details": "Hash 2 tree leaves, returns MiMC(_left, _right)"
					},
					"isKnownRoot(bytes32)": {
						"details": "Whether the root is present in the root history"
					}
				}
			},
			"evm": {
				"assembly": "    /* \"anonimity/1-ETH-Anonymity.sol\":13392:24179  contract MessierAnonymity is MerkleTreeWithHistory, ReentrancyGuard {... */\n  mstore(0x40, 0x80)\n    /* \"anonimity/1-ETH-Anonymity.sol\":8824:8825  0 */\n  0x00\n    /* \"anonimity/1-ETH-Anonymity.sol\":8791:8825  uint32 public currentRootIndex = 0 */\n  0x03\n  exp(0x0100, 0x00)\n  dup2\n  sload\n  dup2\n  0xffffffff\n  mul\n  not\n  and\n  swap1\n  dup4\n  0xffffffff\n  and\n  mul\n  or\n  swap1\n  sstore\n  pop\n    /* \"anonimity/1-ETH-Anonymity.sol\":8855:8856  0 */\n  0x00\n    /* \"anonimity/1-ETH-Anonymity.sol\":8829:8856  uint32 public nextIndex = 0 */\n  0x03\n  exp(0x0100, 0x04)\n  dup2\n  sload\n  dup2\n  0xffffffff\n  mul\n  not\n  and\n  swap1\n  dup4\n  0xffffffff\n  and\n  mul\n  or\n  swap1\n  sstore\n  pop\n    /* \"anonimity/1-ETH-Anonymity.sol\":14115:14116  0 */\n  0x00\n    /* \"anonimity/1-ETH-Anonymity.sol\":14085:14116  uint256 public anonymityFee = 0 */\n  0x76\n  sstore\n    /* \"anonimity/1-ETH-Anonymity.sol\":14147:14150  365 */\n  0x016d\n    /* \"anonimity/1-ETH-Anonymity.sol\":14120:14150  uint256 private duration = 365 */\n  0x77\n  sstore\n    /* \"anonimity/1-ETH-Anonymity.sol\":14211:14212  4 */\n  0x04\n    /* \"anonimity/1-ETH-Anonymity.sol\":14206:14208  60 */\n  0x3c\n    /* \"anonimity/1-ETH-Anonymity.sol\":14201:14203  24 */\n  0x18\n    /* \"anonimity/1-ETH-Anonymity.sol\":14190:14198  duration */\n  sload(0x77)\n    /* \"anonimity/1-ETH-Anonymity.sol\":14190:14203  duration * 24 */\n  mul\n    /* \"anonimity/1-ETH-Anonymity.sol\":14190:14208  duration * 24 * 60 */\n  mul\n    /* \"anonimity/1-ETH-Anonymity.sol\":14190:14212  duration * 24 * 60 * 4 */\n  mul\n    /* \"anonimity/1-ETH-Anonymity.sol\":14154:14212  uint256 private numDurationBlocks = duration * 24 * 60 * 4 */\n  0x78\n  sstore\n    /* \"anonimity/1-ETH-Anonymity.sol\":14216:14267  uint256[5] public shareOfReward = [30, 0, 70, 0, 0] */\n  mload(0x40)\n  dup1\n  0xa0\n  add\n  0x40\n  mstore\n  dup1\n    /* \"anonimity/1-ETH-Anonymity.sol\":14251:14253  30 */\n  0x1e\n    /* \"anonimity/1-ETH-Anonymity.sol\":14216:14267  uint256[5] public shareOfReward = [30, 0, 70, 0, 0] */\n  0xff\n  and\n  dup2\n  mstore\n  0x20\n  add\n    /* \"anonimity/1-ETH-Anonymity.sol\":14255:14256  0 */\n  0x00\n    /* \"anonimity/1-ETH-Anonymity.sol\":14216:14267  uint256[5] public shareOfReward = [30, 0, 70, 0, 0] */\n  0xff\n  and\n  dup2\n  mstore\n  0x20\n  add\n    /* \"anonimity/1-ETH-Anonymity.sol\":14258:14260  70 */\n  0x46\n    /* \"anonimity/1-ETH-Anonymity.sol\":14216:14267  uint256[5] public shareOfReward = [30, 0, 70, 0, 0] */\n  0xff\n  and\n  dup2\n  mstore\n  0x20\n  add\n    /* \"anonimity/1-ETH-Anonymity.sol\":14262:14263  0 */\n  0x00\n    /* \"anonimity/1-ETH-Anonymity.sol\":14216:14267  uint256[5] public shareOfReward = [30, 0, 70, 0, 0] */\n  0xff\n  and\n  dup2\n  mstore\n  0x20\n  add\n    /* \"anonimity/1-ETH-Anonymity.sol\":14265:14266  0 */\n  0x00\n    /* \"anonimity/1-ETH-Anonymity.sol\":14216:14267  uint256[5] public shareOfReward = [30, 0, 70, 0, 0] */\n  0xff\n  and\n  dup2\n  mstore\n  pop\n  0x79\n  swap1\n  0x05\n  tag_1\n  swap3\n  swap2\n  swap1\n  tag_2\n  jump\t// in\ntag_1:\n  pop\n    /* \"anonimity/1-ETH-Anonymity.sol\":14404:14405  4 */\n  0x04\n    /* \"anonimity/1-ETH-Anonymity.sol\":14367:14405  uint256 public feeToCollectPercent = 4 */\n  0x87\n  sstore\n    /* \"anonimity/1-ETH-Anonymity.sol\":14474:14492  250000000000000000 */\n  0x03782dace9d90000\n    /* \"anonimity/1-ETH-Anonymity.sol\":14446:14492  uint256 public overMinEth = 250000000000000000 */\n  0x89\n  sstore\n    /* \"anonimity/1-ETH-Anonymity.sol\":15066:15834  constructor() public {... */\n  callvalue\n    /* \"--CODEGEN--\":8:17   */\n  dup1\n    /* \"--CODEGEN--\":5:7   */\n  iszero\n  tag_3\n  jumpi\n    /* \"--CODEGEN--\":30:31   */\n  0x00\n    /* \"--CODEGEN--\":27:28   */\n  dup1\n    /* \"--CODEGEN--\":20:32   */\n  revert\n    /* \"--CODEGEN--\":5:7   */\ntag_3:\n    /* \"anonimity/1-ETH-Anonymity.sol\":15066:15834  constructor() public {... */\n  pop\n    /* \"anonimity/1-ETH-Anonymity.sol\":8990:8992  20 */\n  0x14\n    /* \"anonimity/1-ETH-Anonymity.sol\":8981:8987  levels */\n  0x00\n  dup1\n    /* \"anonimity/1-ETH-Anonymity.sol\":8981:8992  levels = 20 */\n  0x0100\n  exp\n  dup2\n  sload\n  dup2\n  0xffffffff\n  mul\n  not\n  and\n  swap1\n  dup4\n  0xffffffff\n  and\n  mul\n  or\n  swap1\n  sstore\n  pop\n    /* \"anonimity/1-ETH-Anonymity.sol\":8999:9018  bytes32 currentZero */\n  0x00\n    /* \"anonimity/1-ETH-Anonymity.sol\":8449:8526  21663839004416932945382355908790599225266501822907911457504978515578255421292 */\n  0x2fe54c60d3acabf3343a35b6eba15db4821b340f76e741e2249685ed4899af6c\n    /* \"anonimity/1-ETH-Anonymity.sol\":9021:9040  bytes32(ZERO_VALUE) */\n  0x00\n  shl\n    /* \"anonimity/1-ETH-Anonymity.sol\":8999:9040  bytes32 currentZero = bytes32(ZERO_VALUE) */\n  swap1\n  pop\n    /* \"anonimity/1-ETH-Anonymity.sol\":9046:9051  zeros */\n  0x02\n    /* \"anonimity/1-ETH-Anonymity.sol\":9057:9068  currentZero */\n  dup2\n    /* \"anonimity/1-ETH-Anonymity.sol\":9046:9069  zeros.push(currentZero) */\n  swap1\n  dup1\n    /* \"--CODEGEN--\":39:40   */\n  0x01\n    /* \"--CODEGEN--\":33:36   */\n  dup2\n    /* \"--CODEGEN--\":27:37   */\n  sload\n    /* \"--CODEGEN--\":23:41   */\n  add\n    /* \"--CODEGEN--\":57:67   */\n  dup1\n    /* \"--CODEGEN--\":52:55   */\n  dup3\n    /* \"--CODEGEN--\":45:68   */\n  sstore\n    /* \"--CODEGEN--\":79:89   */\n  dup1\n    /* \"--CODEGEN--\":72:89   */\n  swap2\n  pop\n    /* \"--CODEGEN--\":0:93   */\n  pop\n    /* \"anonimity/1-ETH-Anonymity.sol\":9046:9069  zeros.push(currentZero) */\n  swap1\n  0x01\n  dup3\n  sub\n  swap1\n  0x00\n  mstore\n  keccak256(0x00, 0x20)\n  add\n  0x00\n  swap1\n  swap2\n  swap3\n  swap1\n  swap2\n  swap1\n  swap2\n  pop\n  sstore\n  pop\n    /* \"anonimity/1-ETH-Anonymity.sol\":9075:9089  filledSubtrees */\n  0x01\n    /* \"anonimity/1-ETH-Anonymity.sol\":9095:9106  currentZero */\n  dup2\n    /* \"anonimity/1-ETH-Anonymity.sol\":9075:9107  filledSubtrees.push(currentZero) */\n  swap1\n  dup1\n    /* \"--CODEGEN--\":39:40   */\n  0x01\n    /* \"--CODEGEN--\":33:36   */\n  dup2\n    /* \"--CODEGEN--\":27:37   */\n  sload\n    /* \"--CODEGEN--\":23:41   */\n  add\n    /* \"--CODEGEN--\":57:67   */\n  dup1\n    /* \"--CODEGEN--\":52:55   */\n  dup3\n    /* \"--CODEGEN--\":45:68   */\n  sstore\n    /* \"--CODEGEN--\":79:89   */\n  dup1\n    /* \"--CODEGEN--\":72:89   */\n  swap2\n  pop\n    /* \"--CODEGEN--\":0:93   */\n  pop\n    /* \"anonimity/1-ETH-Anonymity.sol\":9075:9107  filledSubtrees.push(currentZero) */\n  swap1\n  0x01\n  dup3\n  sub\n  swap1\n  0x00\n  mstore\n  keccak256(0x00, 0x20)\n  add\n  0x00\n  swap1\n  swap2\n  swap3\n  swap1\n  swap2\n  swap1\n  swap2\n  pop\n  sstore\n  pop\n    /* \"anonimity/1-ETH-Anonymity.sol\":9119:9127  uint32 i */\n  0x00\n    /* \"anonimity/1-ETH-Anonymity.sol\":9130:9131  1 */\n  0x01\n    /* \"anonimity/1-ETH-Anonymity.sol\":9119:9131  uint32 i = 1 */\n  swap1\n  pop\n    /* \"anonimity/1-ETH-Anonymity.sol\":9114:9289  for (uint32 i = 1; i < levels; i++) {... */\ntag_10:\n    /* \"anonimity/1-ETH-Anonymity.sol\":9137:9143  levels */\n  0x00\n  dup1\n  swap1\n  sload\n  swap1\n  0x0100\n  exp\n  swap1\n  div\n  0xffffffff\n  and\n    /* \"anonimity/1-ETH-Anonymity.sol\":9133:9143  i < levels */\n  0xffffffff\n  and\n    /* \"anonimity/1-ETH-Anonymity.sol\":9133:9134  i */\n  dup2\n    /* \"anonimity/1-ETH-Anonymity.sol\":9133:9143  i < levels */\n  0xffffffff\n  and\n  lt\n    /* \"anonimity/1-ETH-Anonymity.sol\":9114:9289  for (uint32 i = 1; i < levels; i++) {... */\n  iszero\n  tag_11\n  jumpi\n    /* \"anonimity/1-ETH-Anonymity.sol\":9172:9211  hashLeftRight(currentZero, currentZero) */\n  tag_13\n    /* \"anonimity/1-ETH-Anonymity.sol\":9186:9197  currentZero */\n  dup3\n    /* \"anonimity/1-ETH-Anonymity.sol\":9199:9210  currentZero */\n  dup4\n    /* \"anonimity/1-ETH-Anonymity.sol\":9172:9185  hashLeftRight */\n  shl(0x20, tag_14)\n    /* \"anonimity/1-ETH-Anonymity.sol\":9172:9211  hashLeftRight(currentZero, currentZero) */\n  0x20\n  shr\n  jump\t// in\ntag_13:\n    /* \"anonimity/1-ETH-Anonymity.sol\":9158:9211  currentZero = hashLeftRight(currentZero, currentZero) */\n  swap2\n  pop\n    /* \"anonimity/1-ETH-Anonymity.sol\":9219:9224  zeros */\n  0x02\n    /* \"anonimity/1-ETH-Anonymity.sol\":9230:9241  currentZero */\n  dup3\n    /* \"anonimity/1-ETH-Anonymity.sol\":9219:9242  zeros.push(currentZero) */\n  swap1\n  dup1\n    /* \"--CODEGEN--\":39:40   */\n  0x01\n    /* \"--CODEGEN--\":33:36   */\n  dup2\n    /* \"--CODEGEN--\":27:37   */\n  sload\n    /* \"--CODEGEN--\":23:41   */\n  add\n    /* \"--CODEGEN--\":57:67   */\n  dup1\n    /* \"--CODEGEN--\":52:55   */\n  dup3\n    /* \"--CODEGEN--\":45:68   */\n  sstore\n    /* \"--CODEGEN--\":79:89   */\n  dup1\n    /* \"--CODEGEN--\":72:89   */\n  swap2\n  pop\n    /* \"--CODEGEN--\":0:93   */\n  pop\n    /* \"anonimity/1-ETH-Anonymity.sol\":9219:9242  zeros.push(currentZero) */\n  swap1\n  0x01\n  dup3\n  sub\n  swap1\n  0x00\n  mstore\n  keccak256(0x00, 0x20)\n  add\n  0x00\n  swap1\n  swap2\n  swap3\n  swap1\n  swap2\n  swap1\n  swap2\n  pop\n  sstore\n  pop\n    /* \"anonimity/1-ETH-Anonymity.sol\":9250:9264  filledSubtrees */\n  0x01\n    /* \"anonimity/1-ETH-Anonymity.sol\":9270:9281  currentZero */\n  dup3\n    /* \"anonimity/1-ETH-Anonymity.sol\":9250:9282  filledSubtrees.push(currentZero) */\n  swap1\n  dup1\n    /* \"--CODEGEN--\":39:40   */\n  0x01\n    /* \"--CODEGEN--\":33:36   */\n  dup2\n    /* \"--CODEGEN--\":27:37   */\n  sload\n    /* \"--CODEGEN--\":23:41   */\n  add\n    /* \"--CODEGEN--\":57:67   */\n  dup1\n    /* \"--CODEGEN--\":52:55   */\n  dup3\n    /* \"--CODEGEN--\":45:68   */\n  sstore\n    /* \"--CODEGEN--\":79:89   */\n  dup1\n    /* \"--CODEGEN--\":72:89   */\n  swap2\n  pop\n    /* \"--CODEGEN--\":0:93   */\n  pop\n    /* \"anonimity/1-ETH-Anonymity.sol\":9250:9282  filledSubtrees.push(currentZero) */\n  swap1\n  0x01\n  dup3\n  sub\n  swap1\n  0x00\n  mstore\n  keccak256(0x00, 0x20)\n  add\n  0x00\n  swap1\n  swap2\n  swap3\n  swap1\n  swap2\n  swap1\n  swap2\n  pop\n  sstore\n  pop\n    /* \"anonimity/1-ETH-Anonymity.sol\":9145:9148  i++ */\n  dup1\n  dup1\n  0x01\n  add\n  swap2\n  pop\n  pop\n    /* \"anonimity/1-ETH-Anonymity.sol\":9114:9289  for (uint32 i = 1; i < levels; i++) {... */\n  jump(tag_10)\ntag_11:\n  pop\n    /* \"anonimity/1-ETH-Anonymity.sol\":9306:9345  hashLeftRight(currentZero, currentZero) */\n  tag_17\n    /* \"anonimity/1-ETH-Anonymity.sol\":9320:9331  currentZero */\n  dup2\n    /* \"anonimity/1-ETH-Anonymity.sol\":9333:9344  currentZero */\n  dup3\n    /* \"anonimity/1-ETH-Anonymity.sol\":9306:9319  hashLeftRight */\n  shl(0x20, tag_14)\n    /* \"anonimity/1-ETH-Anonymity.sol\":9306:9345  hashLeftRight(currentZero, currentZero) */\n  0x20\n  shr\n  jump\t// in\ntag_17:\n    /* \"anonimity/1-ETH-Anonymity.sol\":9295:9300  roots */\n  0x04\n    /* \"anonimity/1-ETH-Anonymity.sol\":9301:9302  0 */\n  0x00\n    /* \"anonimity/1-ETH-Anonymity.sol\":9295:9303  roots[0] */\n  0x64\n  dup2\n  lt\n  tag_18\n  jumpi\n  invalid\ntag_18:\n  add\n    /* \"anonimity/1-ETH-Anonymity.sol\":9295:9345  roots[0] = hashLeftRight(currentZero, currentZero) */\n  dup2\n  swap1\n  sstore\n  pop\n    /* \"anonimity/1-ETH-Anonymity.sol\":8954:9350  constructor() public {... */\n  pop\n    /* \"anonimity/1-ETH-Anonymity.sol\":12421:12422  1 */\n  0x01\n    /* \"anonimity/1-ETH-Anonymity.sol\":12405:12418  _guardCounter */\n  0x68\n    /* \"anonimity/1-ETH-Anonymity.sol\":12405:12422  _guardCounter = 1 */\n  dup2\n  swap1\n  sstore\n  pop\n    /* \"anonimity/1-ETH-Anonymity.sol\":15177:15187  msg.sender */\n  caller\n    /* \"anonimity/1-ETH-Anonymity.sol\":15166:15174  treasury */\n  0x70\n  0x00\n    /* \"anonimity/1-ETH-Anonymity.sol\":15166:15187  treasury = msg.sender */\n  0x0100\n  exp\n  dup2\n  sload\n  dup2\n  0xffffffffffffffffffffffffffffffffffffffff\n  mul\n  not\n  and\n  swap1\n  dup4\n  0xffffffffffffffffffffffffffffffffffffffff\n  and\n  mul\n  or\n  swap1\n  sstore\n  pop\n    /* \"anonimity/1-ETH-Anonymity.sol\":15346:15356  msg.sender */\n  caller\n    /* \"anonimity/1-ETH-Anonymity.sol\":15330:15343  messier_owner */\n  0x71\n  0x00\n    /* \"anonimity/1-ETH-Anonymity.sol\":15330:15356  messier_owner = msg.sender */\n  0x0100\n  exp\n  dup2\n  sload\n  dup2\n  0xffffffffffffffffffffffffffffffffffffffff\n  mul\n  not\n  and\n  swap1\n  dup4\n  0xffffffffffffffffffffffffffffffffffffffff\n  and\n  mul\n  or\n  swap1\n  sstore\n  pop\n    /* \"anonimity/1-ETH-Anonymity.sol\":15380:15392  block.number */\n  number\n    /* \"anonimity/1-ETH-Anonymity.sol\":15362:15377  lastRewardBlock */\n  0x73\n    /* \"anonimity/1-ETH-Anonymity.sol\":15362:15392  lastRewardBlock = block.number */\n  dup2\n  swap1\n  sstore\n  pop\n    /* \"anonimity/1-ETH-Anonymity.sol\":15420:15421  0 */\n  0x00\n    /* \"anonimity/1-ETH-Anonymity.sol\":15398:15417  initM87Denomination */\n  0x6b\n    /* \"anonimity/1-ETH-Anonymity.sol\":15398:15421  initM87Denomination = 0 */\n  dup2\n  swap1\n  sstore\n  pop\n    /* \"anonimity/1-ETH-Anonymity.sol\":15446:15465  1000000000000000000 */\n  0x0de0b6b3a7640000\n    /* \"anonimity/1-ETH-Anonymity.sol\":15427:15443  coinDenomination */\n  0x6a\n    /* \"anonimity/1-ETH-Anonymity.sol\":15427:15465  coinDenomination = 1000000000000000000 */\n  dup2\n  swap1\n  sstore\n  pop\n    /* \"anonimity/1-ETH-Anonymity.sol\":15491:15492  0 */\n  0x00\n    /* \"anonimity/1-ETH-Anonymity.sol\":15471:15488  tokenDenomination */\n  0x69\n    /* \"anonimity/1-ETH-Anonymity.sol\":15471:15492  tokenDenomination = 0 */\n  dup2\n  swap1\n  sstore\n  pop\n    /* \"anonimity/1-ETH-Anonymity.sol\":15498:15533  IUniswapV2Router02 _uniswapV2Router */\n  0x00\n    /* \"anonimity/1-ETH-Anonymity.sol\":15555:15597  0x7a250d5630B4cF539739dF2C5dAcb4c659F2488D */\n  0x7a250d5630b4cf539739df2c5dacb4c659f2488d\n    /* \"anonimity/1-ETH-Anonymity.sol\":15498:15598  IUniswapV2Router02 _uniswapV2Router = IUniswapV2Router02(0x7a250d5630B4cF539739dF2C5dAcb4c659F2488D) */\n  swap1\n  pop\n    /* \"anonimity/1-ETH-Anonymity.sol\":15622:15638  _uniswapV2Router */\n  dup1\n    /* \"anonimity/1-ETH-Anonymity.sol\":15604:15619  uniswapV2Router */\n  0x8a\n  0x00\n    /* \"anonimity/1-ETH-Anonymity.sol\":15604:15638  uniswapV2Router = _uniswapV2Router */\n  0x0100\n  exp\n  dup2\n  sload\n  dup2\n  0xffffffffffffffffffffffffffffffffffffffff\n  mul\n  not\n  and\n  swap1\n  dup4\n  0xffffffffffffffffffffffffffffffffffffffff\n  and\n  mul\n  or\n  swap1\n  sstore\n  pop\n    /* \"anonimity/1-ETH-Anonymity.sol\":15714:15718  1000 */\n  0x03e8\n    /* \"anonimity/1-ETH-Anonymity.sol\":15684:15703  feeToCollectPercent */\n  sload(0x87)\n    /* \"anonimity/1-ETH-Anonymity.sol\":15665:15681  coinDenomination */\n  sload(0x6a)\n    /* \"anonimity/1-ETH-Anonymity.sol\":15665:15703  coinDenomination * feeToCollectPercent */\n  mul\n    /* \"anonimity/1-ETH-Anonymity.sol\":15665:15719  coinDenomination * feeToCollectPercent / uint256(1000) */\n  dup2\n  tag_22\n  jumpi\n  invalid\ntag_22:\n  div\n    /* \"anonimity/1-ETH-Anonymity.sol\":15644:15662  feeToCollectAmount */\n  0x88\n    /* \"anonimity/1-ETH-Anonymity.sol\":15644:15719  feeToCollectAmount = coinDenomination * feeToCollectPercent / uint256(1000) */\n  dup2\n  swap1\n  sstore\n  pop\n    /* \"anonimity/1-ETH-Anonymity.sol\":15725:15784  poolList = [address(0), address(0), address(0), address(0)] */\n  mload(0x40)\n  dup1\n  0x80\n  add\n  0x40\n  mstore\n  dup1\n    /* \"anonimity/1-ETH-Anonymity.sol\":15745:15746  0 */\n  0x00\n    /* \"anonimity/1-ETH-Anonymity.sol\":15725:15784  poolList = [address(0), address(0), address(0), address(0)] */\n  0xffffffffffffffffffffffffffffffffffffffff\n  and\n  0xffffffffffffffffffffffffffffffffffffffff\n  and\n  dup2\n  mstore\n  0x20\n  add\n    /* \"anonimity/1-ETH-Anonymity.sol\":15757:15758  0 */\n  0x00\n    /* \"anonimity/1-ETH-Anonymity.sol\":15725:15784  poolList = [address(0), address(0), address(0), address(0)] */\n  0xffffffffffffffffffffffffffffffffffffffff\n  and\n  0xffffffffffffffffffffffffffffffffffffffff\n  and\n  dup2\n  mstore\n  0x20\n  add\n    /* \"anonimity/1-ETH-Anonymity.sol\":15769:15770  0 */\n  0x00\n    /* \"anonimity/1-ETH-Anonymity.sol\":15725:15784  poolList = [address(0), address(0), address(0), address(0)] */\n  0xffffffffffffffffffffffffffffffffffffffff\n  and\n  0xffffffffffffffffffffffffffffffffffffffff\n  and\n  dup2\n  mstore\n  0x20\n  add\n    /* \"anonimity/1-ETH-Anonymity.sol\":15781:15782  0 */\n  0x00\n    /* \"anonimity/1-ETH-Anonymity.sol\":15725:15784  poolList = [address(0), address(0), address(0), address(0)] */\n  0xffffffffffffffffffffffffffffffffffffffff\n  and\n  0xffffffffffffffffffffffffffffffffffffffff\n  and\n  dup2\n  mstore\n  pop\n    /* \"anonimity/1-ETH-Anonymity.sol\":15725:15733  poolList */\n  0x7e\n    /* \"anonimity/1-ETH-Anonymity.sol\":15725:15784  poolList = [address(0), address(0), address(0), address(0)] */\n  swap1\n  0x04\n  tag_23\n  swap3\n  swap2\n  swap1\n  tag_24\n  jump\t// in\ntag_23:\n  pop\n    /* \"anonimity/1-ETH-Anonymity.sol\":15066:15834  constructor() public {... */\n  pop\n    /* \"anonimity/1-ETH-Anonymity.sol\":13392:24179  contract MessierAnonymity is MerkleTreeWithHistory, ReentrancyGuard {... */\n  jump(tag_25)\n    /* \"anonimity/1-ETH-Anonymity.sol\":9422:9867  function hashLeftRight(bytes32 _left, bytes32 _right) public pure returns (bytes32) {... */\ntag_14:\n    /* \"anonimity/1-ETH-Anonymity.sol\":9497:9504  bytes32 */\n  0x00\n    /* \"anonimity/1-ETH-Anonymity.sol\":8331:8408  21888242871839275222246405745257275088548364400416034343698204186575808495617 */\n  0x30644e72e131a029b85045b68181585d2833e84879b9709143e1f593f0000001\n    /* \"anonimity/1-ETH-Anonymity.sol\":9528:9533  _left */\n  dup4\n    /* \"anonimity/1-ETH-Anonymity.sol\":9520:9534  uint256(_left) */\n  0x00\n  shr\n    /* \"anonimity/1-ETH-Anonymity.sol\":9520:9547  uint256(_left) < FIELD_SIZE */\n  lt\n    /* \"anonimity/1-ETH-Anonymity.sol\":9512:9584  require(uint256(_left) < FIELD_SIZE, \"_left should be inside the field\") */\n  tag_27\n  jumpi\n  mload(0x40)\n  0x08c379a000000000000000000000000000000000000000000000000000000000\n  dup2\n  mstore\n  0x04\n  add\n  dup1\n  dup1\n  0x20\n  add\n  dup3\n  dup2\n  sub\n  dup3\n  mstore\n  0x20\n  dup2\n  mstore\n  0x20\n  add\n  dup1\n  0x5f6c6566742073686f756c6420626520696e7369646520746865206669656c64\n  dup2\n  mstore\n  pop\n  0x20\n  add\n  swap2\n  pop\n  pop\n  mload(0x40)\n  dup1\n  swap2\n  sub\n  swap1\n  revert\ntag_27:\n    /* \"anonimity/1-ETH-Anonymity.sol\":8331:8408  21888242871839275222246405745257275088548364400416034343698204186575808495617 */\n  0x30644e72e131a029b85045b68181585d2833e84879b9709143e1f593f0000001\n    /* \"anonimity/1-ETH-Anonymity.sol\":9606:9612  _right */\n  dup3\n    /* \"anonimity/1-ETH-Anonymity.sol\":9598:9613  uint256(_right) */\n  0x00\n  shr\n    /* \"anonimity/1-ETH-Anonymity.sol\":9598:9626  uint256(_right) < FIELD_SIZE */\n  lt\n    /* \"anonimity/1-ETH-Anonymity.sol\":9590:9664  require(uint256(_right) < FIELD_SIZE, \"_right should be inside the field\") */\n  tag_28\n  jumpi\n  mload(0x40)\n  0x08c379a000000000000000000000000000000000000000000000000000000000\n  dup2\n  mstore\n  0x04\n  add\n  dup1\n  dup1\n  0x20\n  add\n  dup3\n  dup2\n  sub\n  dup3\n  mstore\n  0x21\n  dup2\n  mstore\n  0x20\n  add\n  dup1\n  data_6542fa7ce511fbc255ce93f94c5fe79a03559888b6c0d6b4bd92b57ef65f3b4e\n  0x21\n  swap2\n  codecopy\n  0x40\n  add\n  swap2\n  pop\n  pop\n  mload(0x40)\n  dup1\n  swap2\n  sub\n  swap1\n  revert\ntag_28:\n    /* \"anonimity/1-ETH-Anonymity.sol\":9670:9679  uint256 R */\n  0x00\n    /* \"anonimity/1-ETH-Anonymity.sol\":9690:9695  _left */\n  dup4\n    /* \"anonimity/1-ETH-Anonymity.sol\":9682:9696  uint256(_left) */\n  0x00\n  shr\n    /* \"anonimity/1-ETH-Anonymity.sol\":9670:9696  uint256 R = uint256(_left) */\n  swap1\n  pop\n    /* \"anonimity/1-ETH-Anonymity.sol\":9702:9711  uint256 C */\n  0x00\n    /* \"anonimity/1-ETH-Anonymity.sol\":9714:9715  0 */\n  dup1\n    /* \"anonimity/1-ETH-Anonymity.sol\":9702:9715  uint256 C = 0 */\n  swap1\n  pop\n    /* \"anonimity/1-ETH-Anonymity.sol\":9730:9736  Hasher */\n  linkerSymbol(\"b1d08b67b448c1738aa9c5efeb68bcb22194bda08022125c8b5ea581d01e7937\")\n    /* \"anonimity/1-ETH-Anonymity.sol\":9730:9747  Hasher.MiMCSponge */\n  0xf47d33b5\n    /* \"anonimity/1-ETH-Anonymity.sol\":9748:9749  R */\n  dup4\n    /* \"anonimity/1-ETH-Anonymity.sol\":9751:9752  C */\n  dup4\n    /* \"anonimity/1-ETH-Anonymity.sol\":9730:9753  Hasher.MiMCSponge(R, C) */\n  mload(0x40)\n  dup4\n  0xffffffff\n  and\n  0xe0\n  shl\n  dup2\n  mstore\n  0x04\n  add\n  dup1\n  dup4\n  dup2\n  mstore\n  0x20\n  add\n  dup3\n  dup2\n  mstore\n  0x20\n  add\n  swap3\n  pop\n  pop\n  pop\n  0x40\n  dup1\n  mload\n  dup1\n  dup4\n  sub\n  dup2\n  dup7\n  dup1\n  extcodesize\n  iszero\n    /* \"--CODEGEN--\":8:17   */\n  dup1\n    /* \"--CODEGEN--\":5:7   */\n  iszero\n  tag_29\n  jumpi\n    /* \"--CODEGEN--\":30:31   */\n  0x00\n    /* \"--CODEGEN--\":27:28   */\n  dup1\n    /* \"--CODEGEN--\":20:32   */\n  revert\n    /* \"--CODEGEN--\":5:7   */\ntag_29:\n    /* \"anonimity/1-ETH-Anonymity.sol\":9730:9753  Hasher.MiMCSponge(R, C) */\n  pop\n  gas\n  delegatecall\n  iszero\n    /* \"--CODEGEN--\":8:17   */\n  dup1\n    /* \"--CODEGEN--\":5:7   */\n  iszero\n  tag_30\n  jumpi\n    /* \"--CODEGEN--\":45:61   */\n  returndatasize\n    /* \"--CODEGEN--\":42:43   */\n  0x00\n    /* \"--CODEGEN--\":39:40   */\n  dup1\n    /* \"--CODEGEN--\":24:62   */\n  returndatacopy\n    /* \"--CODEGEN--\":77:93   */\n  returndatasize\n    /* \"--CODEGEN--\":74:75   */\n  0x00\n    /* \"--CODEGEN--\":67:94   */\n  revert\n    /* \"--CODEGEN--\":5:7   */\ntag_30:\n    /* \"anonimity/1-ETH-Anonymity.sol\":9730:9753  Hasher.MiMCSponge(R, C) */\n  pop\n  pop\n  pop\n  pop\n  mload(0x40)\n  returndatasize\n    /* \"--CODEGEN--\":13:15   */\n  0x40\n    /* \"--CODEGEN--\":8:11   */\n  dup2\n    /* \"--CODEGEN--\":5:16   */\n  lt\n    /* \"--CODEGEN--\":2:4   */\n  iszero\n  tag_31\n  jumpi\n    /* \"--CODEGEN--\":29:30   */\n  0x00\n    /* \"--CODEGEN--\":26:27   */\n  dup1\n    /* \"--CODEGEN--\":19:31   */\n  revert\n    /* \"--CODEGEN--\":2:4   */\ntag_31:\n    /* \"anonimity/1-ETH-Anonymity.sol\":9730:9753  Hasher.MiMCSponge(R, C) */\n  dup2\n  add\n  swap1\n  dup1\n  dup1\n  mload\n  swap1\n  0x20\n  add\n  swap1\n  swap3\n  swap2\n  swap1\n  dup1\n  mload\n  swap1\n  0x20\n  add\n  swap1\n  swap3\n  swap2\n  swap1\n  pop\n  pop\n  pop\n    /* \"anonimity/1-ETH-Anonymity.sol\":9721:9753  (R, C) = Hasher.MiMCSponge(R, C) */\n  dup1\n  swap3\n  pop\n  dup2\n  swap4\n  pop\n  pop\n  pop\n    /* \"anonimity/1-ETH-Anonymity.sol\":8331:8408  21888242871839275222246405745257275088548364400416034343698204186575808495617 */\n  0x30644e72e131a029b85045b68181585d2833e84879b9709143e1f593f0000001\n    /* \"anonimity/1-ETH-Anonymity.sol\":9763:9801  addmod(R, uint256(_right), FIELD_SIZE) */\n  dup1\n  tag_32\n  jumpi\n  invalid\ntag_32:\n    /* \"anonimity/1-ETH-Anonymity.sol\":9781:9787  _right */\n  dup5\n    /* \"anonimity/1-ETH-Anonymity.sol\":9773:9788  uint256(_right) */\n  0x00\n  shr\n    /* \"anonimity/1-ETH-Anonymity.sol\":9770:9771  R */\n  dup4\n    /* \"anonimity/1-ETH-Anonymity.sol\":9763:9801  addmod(R, uint256(_right), FIELD_SIZE) */\n  addmod\n    /* \"anonimity/1-ETH-Anonymity.sol\":9759:9801  R = addmod(R, uint256(_right), FIELD_SIZE) */\n  swap2\n  pop\n    /* \"anonimity/1-ETH-Anonymity.sol\":9816:9822  Hasher */\n  linkerSymbol(\"b1d08b67b448c1738aa9c5efeb68bcb22194bda08022125c8b5ea581d01e7937\")\n    /* \"anonimity/1-ETH-Anonymity.sol\":9816:9833  Hasher.MiMCSponge */\n  0xf47d33b5\n    /* \"anonimity/1-ETH-Anonymity.sol\":9834:9835  R */\n  dup4\n    /* \"anonimity/1-ETH-Anonymity.sol\":9837:9838  C */\n  dup4\n    /* \"anonimity/1-ETH-Anonymity.sol\":9816:9839  Hasher.MiMCSponge(R, C) */\n  mload(0x40)\n  dup4\n  0xffffffff\n  and\n  0xe0\n  shl\n  dup2\n  mstore\n  0x04\n  add\n  dup1\n  dup4\n  dup2\n  mstore\n  0x20\n  add\n  dup3\n  dup2\n  mstore\n  0x20\n  add\n  swap3\n  pop\n  pop\n  pop\n  0x40\n  dup1\n  mload\n  dup1\n  dup4\n  sub\n  dup2\n  dup7\n  dup1\n  extcodesize\n  iszero\n    /* \"--CODEGEN--\":8:17   */\n  dup1\n    /* \"--CODEGEN--\":5:7   */\n  iszero\n  tag_33\n  jumpi\n    /* \"--CODEGEN--\":30:31   */\n  0x00\n    /* \"--CODEGEN--\":27:28   */\n  dup1\n    /* \"--CODEGEN--\":20:32   */\n  revert\n    /* \"--CODEGEN--\":5:7   */\ntag_33:\n    /* \"anonimity/1-ETH-Anonymity.sol\":9816:9839  Hasher.MiMCSponge(R, C) */\n  pop\n  gas\n  delegatecall\n  iszero\n    /* \"--CODEGEN--\":8:17   */\n  dup1\n    /* \"--CODEGEN--\":5:7   */\n  iszero\n  tag_34\n  jumpi\n    /* \"--CODEGEN--\":45:61   */\n  returndatasize\n    /* \"--CODEGEN--\":42:43   */\n  0x00\n    /* \"--CODEGEN--\":39:40   */\n  dup1\n    /* \"--CODEGEN--\":24:62   */\n  returndatacopy\n    /* \"--CODEGEN--\":77:93   */\n  returndatasize\n    /* \"--CODEGEN--\":74:75   */\n  0x00\n    /* \"--CODEGEN--\":67:94   */\n  revert\n    /* \"--CODEGEN--\":5:7   */\ntag_34:\n    /* \"anonimity/1-ETH-Anonymity.sol\":9816:9839  Hasher.MiMCSponge(R, C) */\n  pop\n  pop\n  pop\n  pop\n  mload(0x40)\n  returndatasize\n    /* \"--CODEGEN--\":13:15   */\n  0x40\n    /* \"--CODEGEN--\":8:11   */\n  dup2\n    /* \"--CODEGEN--\":5:16   */\n  lt\n    /* \"--CODEGEN--\":2:4   */\n  iszero\n  tag_35\n  jumpi\n    /* \"--CODEGEN--\":29:30   */\n  0x00\n    /* \"--CODEGEN--\":26:27   */\n  dup1\n    /* \"--CODEGEN--\":19:31   */\n  revert\n    /* \"--CODEGEN--\":2:4   */\ntag_35:\n    /* \"anonimity/1-ETH-Anonymity.sol\":9816:9839  Hasher.MiMCSponge(R, C) */\n  dup2\n  add\n  swap1\n  dup1\n  dup1\n  mload\n  swap1\n  0x20\n  add\n  swap1\n  swap3\n  swap2\n  swap1\n  dup1\n  mload\n  swap1\n  0x20\n  add\n  swap1\n  swap3\n  swap2\n  swap1\n  pop\n  pop\n  pop\n    /* \"anonimity/1-ETH-Anonymity.sol\":9807:9839  (R, C) = Hasher.MiMCSponge(R, C) */\n  dup1\n  swap3\n  pop\n  dup2\n  swap4\n  pop\n  pop\n  pop\n    /* \"anonimity/1-ETH-Anonymity.sol\":9860:9861  R */\n  dup2\n    /* \"anonimity/1-ETH-Anonymity.sol\":9852:9862  bytes32(R) */\n  0x00\n  shl\n    /* \"anonimity/1-ETH-Anonymity.sol\":9845:9862  return bytes32(R) */\n  swap3\n  pop\n  pop\n  pop\n    /* \"anonimity/1-ETH-Anonymity.sol\":9422:9867  function hashLeftRight(bytes32 _left, bytes32 _right) public pure returns (bytes32) {... */\n  swap3\n  swap2\n  pop\n  pop\n  jump\t// out\n    /* \"anonimity/1-ETH-Anonymity.sol\":13392:24179  contract MessierAnonymity is MerkleTreeWithHistory, ReentrancyGuard {... */\ntag_2:\n  dup3\n  0x05\n  dup2\n  add\n  swap3\n  dup3\n  iszero\n  tag_36\n  jumpi\n  swap2\n  0x20\n  mul\n  dup3\n  add\ntag_37:\n  dup3\n  dup2\n  gt\n  iszero\n  tag_38\n  jumpi\n  dup3\n  mload\n  dup3\n  swap1\n  0xff\n  and\n  swap1\n  sstore\n  swap2\n  0x20\n  add\n  swap2\n  swap1\n  0x01\n  add\n  swap1\n  jump(tag_37)\ntag_38:\ntag_36:\n  pop\n  swap1\n  pop\n  tag_39\n  swap2\n  swap1\n  tag_40\n  jump\t// in\ntag_39:\n  pop\n  swap1\n  jump\t// out\ntag_24:\n  dup3\n  0x04\n  dup2\n  add\n  swap3\n  dup3\n  iszero\n  tag_41\n  jumpi\n  swap2\n  0x20\n  mul\n  dup3\n  add\ntag_42:\n  dup3\n  dup2\n  gt\n  iszero\n  tag_43\n  jumpi\n  dup3\n  mload\n  dup3\n  exp(0x0100, 0x00)\n  dup2\n  sload\n  dup2\n  0xffffffffffffffffffffffffffffffffffffffff\n  mul\n  not\n  and\n  swap1\n  dup4\n  0xffffffffffffffffffffffffffffffffffffffff\n  and\n  mul\n  or\n  swap1\n  sstore\n  pop\n  swap2\n  0x20\n  add\n  swap2\n  swap1\n  0x01\n  add\n  swap1\n  jump(tag_42)\ntag_43:\ntag_41:\n  pop\n  swap1\n  pop\n  tag_44\n  swap2\n  swap1\n  tag_45\n  jump\t// in\ntag_44:\n  pop\n  swap1\n  jump\t// out\ntag_40:\n  tag_46\n  swap2\n  swap1\ntag_47:\n  dup1\n  dup3\n  gt\n  iszero\n  tag_48\n  jumpi\n  0x00\n  dup2\n  0x00\n  swap1\n  sstore\n  pop\n  0x01\n  add\n  jump(tag_47)\ntag_48:\n  pop\n  swap1\n  jump\ntag_46:\n  swap1\n  jump\t// out\ntag_45:\n  tag_49\n  swap2\n  swap1\ntag_50:\n  dup1\n  dup3\n  gt\n  iszero\n  tag_51\n  jumpi\n  0x00\n  dup2\n  dup2\n  0x0100\n  exp\n  dup2\n  sload\n  swap1\n  0xffffffffffffffffffffffffffffffffffffffff\n  mul\n  not\n  and\n  swap1\n  sstore\n  pop\n  0x01\n  add\n  jump(tag_50)\ntag_51:\n  pop\n  swap1\n  jump\ntag_49:\n  swap1\n  jump\t// out\ntag_25:\n  dataSize(sub_0)\n  dup1\n  dataOffset(sub_0)\n  0x00\n  codecopy\n  0x00\n  return\nstop\ndata_6542fa7ce511fbc255ce93f94c5fe79a03559888b6c0d6b4bd92b57ef65f3b4e 5f72696768742073686f756c6420626520696e7369646520746865206669656c64\n\nsub_0: assembly {\n        /* \"anonimity/1-ETH-Anonymity.sol\":13392:24179  contract MessierAnonymity is MerkleTreeWithHistory, ReentrancyGuard {... */\n      mstore(0x40, 0x80)\n      jumpi(tag_1, lt(calldatasize, 0x04))\n      shr(0xe0, calldataload(0x00))\n      dup1\n      0x8d949d4b\n      gt\n      tag_54\n      jumpi\n      dup1\n      0xca093047\n      gt\n      tag_55\n      jumpi\n      dup1\n      0xe8295588\n      gt\n      tag_56\n      jumpi\n      dup1\n      0xf178e47c\n      gt\n      tag_57\n      jumpi\n      dup1\n      0xf178e47c\n      eq\n      tag_50\n      jumpi\n      dup1\n      0xf6be71d1\n      eq\n      tag_51\n      jumpi\n      dup1\n      0xfc0c546a\n      eq\n      tag_52\n      jumpi\n      dup1\n      0xfc7e9c6f\n      eq\n      tag_53\n      jumpi\n      jump(tag_1)\n    tag_57:\n      dup1\n      0xe8295588\n      eq\n      tag_47\n      jumpi\n      dup1\n      0xec732959\n      eq\n      tag_48\n      jumpi\n      dup1\n      0xecaa6503\n      eq\n      tag_49\n      jumpi\n      jump(tag_1)\n    tag_56:\n      dup1\n      0xca093047\n      eq\n      tag_41\n      jumpi\n      dup1\n      0xca13d4e6\n      eq\n      tag_42\n      jumpi\n      dup1\n      0xcd87a3b4\n      eq\n      tag_43\n      jumpi\n      dup1\n      0xd27c1824\n      eq\n      tag_44\n      jumpi\n      dup1\n      0xd3129be4\n      eq\n      tag_45\n      jumpi\n      dup1\n      0xe811f50a\n      eq\n      tag_46\n      jumpi\n      jump(tag_1)\n    tag_55:\n      dup1\n      0xa9f8d181\n      gt\n      tag_58\n      jumpi\n      dup1\n      0xb214faa5\n      gt\n      tag_59\n      jumpi\n      dup1\n      0xb214faa5\n      eq\n      tag_37\n      jumpi\n      dup1\n      0xb4a61faa\n      eq\n      tag_38\n      jumpi\n      dup1\n      0xba70f757\n      eq\n      tag_39\n      jumpi\n      dup1\n      0xc2b40ae4\n      eq\n      tag_40\n      jumpi\n      jump(tag_1)\n    tag_59:\n      dup1\n      0xa9f8d181\n      eq\n      tag_34\n      jumpi\n      dup1\n      0xaf324076\n      eq\n      tag_35\n      jumpi\n      dup1\n      0xb14f2a39\n      eq\n      tag_36\n      jumpi\n      jump(tag_1)\n    tag_58:\n      dup1\n      0x8d949d4b\n      eq\n      tag_28\n      jumpi\n      dup1\n      0x8daac0df\n      eq\n      tag_29\n      jumpi\n      dup1\n      0x90eeb02b\n      eq\n      tag_30\n      jumpi\n      dup1\n      0x9709a6fd\n      eq\n      tag_31\n      jumpi\n      dup1\n      0x97fc007c\n      eq\n      tag_32\n      jumpi\n      dup1\n      0x997318ec\n      eq\n      tag_33\n      jumpi\n      jump(tag_1)\n    tag_54:\n      dup1\n      0x445cd696\n      gt\n      tag_60\n      jumpi\n      dup1\n      0x6c081396\n      gt\n      tag_61\n      jumpi\n      dup1\n      0x75ddc9ed\n      gt\n      tag_62\n      jumpi\n      dup1\n      0x75ddc9ed\n      eq\n      tag_24\n      jumpi\n      dup1\n      0x7ce3489b\n      eq\n      tag_25\n      jumpi\n      dup1\n      0x839df945\n      eq\n      tag_26\n      jumpi\n      dup1\n      0x8ae39cac\n      eq\n      tag_27\n      jumpi\n      jump(tag_1)\n    tag_62:\n      dup1\n      0x6c081396\n      eq\n      tag_21\n      jumpi\n      dup1\n      0x6c23cd68\n      eq\n      tag_22\n      jumpi\n      dup1\n      0x6d9833e3\n      eq\n      tag_23\n      jumpi\n      jump(tag_1)\n    tag_61:\n      dup1\n      0x445cd696\n      eq\n      tag_15\n      jumpi\n      dup1\n      0x4b3e7811\n      eq\n      tag_16\n      jumpi\n      dup1\n      0x4ecf518b\n      eq\n      tag_17\n      jumpi\n      dup1\n      0x5129b3e1\n      eq\n      tag_18\n      jumpi\n      dup1\n      0x54fd4d50\n      eq\n      tag_19\n      jumpi\n      dup1\n      0x61d027b3\n      eq\n      tag_20\n      jumpi\n      jump(tag_1)\n    tag_60:\n      dup1\n      0x2d0ec0ff\n      gt\n      tag_63\n      jumpi\n      dup1\n      0x34d6a7bf\n      gt\n      tag_64\n      jumpi\n      dup1\n      0x34d6a7bf\n      eq\n      tag_11\n      jumpi\n      dup1\n      0x38bf282e\n      eq\n      tag_12\n      jumpi\n      dup1\n      0x3b406fb7\n      eq\n      tag_13\n      jumpi\n      dup1\n      0x414a37ba\n      eq\n      tag_14\n      jumpi\n      jump(tag_1)\n    tag_64:\n      dup1\n      0x2d0ec0ff\n      eq\n      tag_8\n      jumpi\n      dup1\n      0x3409038c\n      eq\n      tag_9\n      jumpi\n      dup1\n      0x34749d22\n      eq\n      tag_10\n      jumpi\n      jump(tag_1)\n    tag_63:\n      dup1\n      0x1694505e\n      eq\n      tag_2\n      jumpi\n      dup1\n      0x21a0adb6\n      eq\n      tag_3\n      jumpi\n      dup1\n      0x22217cd3\n      eq\n      tag_4\n      jumpi\n      dup1\n      0x29a5967e\n      eq\n      tag_5\n      jumpi\n      dup1\n      0x2a48235b\n      eq\n      tag_6\n      jumpi\n      dup1\n      0x2b7ac3f3\n      eq\n      tag_7\n      jumpi\n    tag_1:\n      0x00\n      dup1\n      revert\n        /* \"anonimity/1-ETH-Anonymity.sol\":14496:14537  IUniswapV2Router02 public uniswapV2Router */\n    tag_2:\n      callvalue\n        /* \"--CODEGEN--\":8:17   */\n      dup1\n        /* \"--CODEGEN--\":5:7   */\n      iszero\n      tag_65\n      jumpi\n        /* \"--CODEGEN--\":30:31   */\n      0x00\n        /* \"--CODEGEN--\":27:28   */\n      dup1\n        /* \"--CODEGEN--\":20:32   */\n      revert\n        /* \"--CODEGEN--\":5:7   */\n    tag_65:\n        /* \"anonimity/1-ETH-Anonymity.sol\":14496:14537  IUniswapV2Router02 public uniswapV2Router */\n      pop\n      tag_66\n      tag_67\n      jump\t// in\n    tag_66:\n      mload(0x40)\n      dup1\n      dup3\n      0xffffffffffffffffffffffffffffffffffffffff\n      and\n      0xffffffffffffffffffffffffffffffffffffffff\n      and\n      dup2\n      mstore\n      0x20\n      add\n      swap2\n      pop\n      pop\n      mload(0x40)\n      dup1\n      swap2\n      sub\n      swap1\n      return\n        /* \"anonimity/1-ETH-Anonymity.sol\":18572:20119  function withdraw(bytes calldata _proof, bytes32 _root, bytes32 _nullifierHash, address payable _recipient, address payable _relayer, uint256 _relayerFee, uint256 _refund) external payable nonReentrant {... */\n    tag_3:\n      tag_68\n      0x04\n      dup1\n      calldatasize\n      sub\n        /* \"--CODEGEN--\":13:16   */\n      0xe0\n        /* \"--CODEGEN--\":8:11   */\n      dup2\n        /* \"--CODEGEN--\":5:17   */\n      lt\n        /* \"--CODEGEN--\":2:4   */\n      iszero\n      tag_69\n      jumpi\n        /* \"--CODEGEN--\":30:31   */\n      0x00\n        /* \"--CODEGEN--\":27:28   */\n      dup1\n        /* \"--CODEGEN--\":20:32   */\n      revert\n        /* \"--CODEGEN--\":2:4   */\n    tag_69:\n        /* \"anonimity/1-ETH-Anonymity.sol\":18572:20119  function withdraw(bytes calldata _proof, bytes32 _root, bytes32 _nullifierHash, address payable _recipient, address payable _relayer, uint256 _relayerFee, uint256 _refund) external payable nonReentrant {... */\n      dup2\n      add\n      swap1\n      dup1\n      dup1\n      calldataload\n      swap1\n      0x20\n      add\n      swap1\n        /* \"--CODEGEN--\":21:32   */\n      0x0100000000\n        /* \"--CODEGEN--\":8:19   */\n      dup2\n        /* \"--CODEGEN--\":5:33   */\n      gt\n        /* \"--CODEGEN--\":2:4   */\n      iszero\n      tag_70\n      jumpi\n        /* \"--CODEGEN--\":46:47   */\n      0x00\n        /* \"--CODEGEN--\":43:44   */\n      dup1\n        /* \"--CODEGEN--\":36:48   */\n      revert\n        /* \"--CODEGEN--\":2:4   */\n    tag_70:\n        /* \"anonimity/1-ETH-Anonymity.sol\":18572:20119  function withdraw(bytes calldata _proof, bytes32 _root, bytes32 _nullifierHash, address payable _recipient, address payable _relayer, uint256 _relayerFee, uint256 _refund) external payable nonReentrant {... */\n      dup3\n      add\n        /* \"--CODEGEN--\":35:44   */\n      dup4\n        /* \"--CODEGEN--\":28:32   */\n      0x20\n        /* \"--CODEGEN--\":12:26   */\n      dup3\n        /* \"--CODEGEN--\":8:33   */\n      add\n        /* \"--CODEGEN--\":5:45   */\n      gt\n        /* \"--CODEGEN--\":2:4   */\n      iszero\n      tag_71\n      jumpi\n        /* \"--CODEGEN--\":58:59   */\n      0x00\n        /* \"--CODEGEN--\":55:56   */\n      dup1\n        /* \"--CODEGEN--\":48:60   */\n      revert\n        /* \"--CODEGEN--\":2:4   */\n    tag_71:\n        /* \"anonimity/1-ETH-Anonymity.sol\":18572:20119  function withdraw(bytes calldata _proof, bytes32 _root, bytes32 _nullifierHash, address payable _recipient, address payable _relayer, uint256 _relayerFee, uint256 _refund) external payable nonReentrant {... */\n      dup1\n      calldataload\n      swap1\n      0x20\n      add\n      swap2\n        /* \"--CODEGEN--\":100:109   */\n      dup5\n        /* \"--CODEGEN--\":95:96   */\n      0x01\n        /* \"--CODEGEN--\":81:93   */\n      dup4\n        /* \"--CODEGEN--\":77:97   */\n      mul\n        /* \"--CODEGEN--\":67:75   */\n      dup5\n        /* \"--CODEGEN--\":63:98   */\n      add\n        /* \"--CODEGEN--\":60:110   */\n      gt\n        /* \"--CODEGEN--\":39:50   */\n      0x0100000000\n        /* \"--CODEGEN--\":25:37   */\n      dup4\n        /* \"--CODEGEN--\":22:51   */\n      gt\n        /* \"--CODEGEN--\":11:118   */\n      or\n        /* \"--CODEGEN--\":8:10   */\n      iszero\n      tag_72\n      jumpi\n        /* \"--CODEGEN--\":131:132   */\n      0x00\n        /* \"--CODEGEN--\":128:129   */\n      dup1\n        /* \"--CODEGEN--\":121:133   */\n      revert\n        /* \"--CODEGEN--\":8:10   */\n    tag_72:\n        /* \"anonimity/1-ETH-Anonymity.sol\":18572:20119  function withdraw(bytes calldata _proof, bytes32 _root, bytes32 _nullifierHash, address payable _recipient, address payable _relayer, uint256 _relayerFee, uint256 _refund) external payable nonReentrant {... */\n      swap1\n      swap2\n      swap3\n      swap4\n      swap2\n      swap3\n      swap4\n      swap1\n      dup1\n      calldataload\n      swap1\n      0x20\n      add\n      swap1\n      swap3\n      swap2\n      swap1\n      dup1\n      calldataload\n      swap1\n      0x20\n      add\n      swap1\n      swap3\n      swap2\n      swap1\n      dup1\n      calldataload\n      0xffffffffffffffffffffffffffffffffffffffff\n      and\n      swap1\n      0x20\n      add\n      swap1\n      swap3\n      swap2\n      swap1\n      dup1\n      calldataload\n      0xffffffffffffffffffffffffffffffffffffffff\n      and\n      swap1\n      0x20\n      add\n      swap1\n      swap3\n      swap2\n      swap1\n      dup1\n      calldataload\n      swap1\n      0x20\n      add\n      swap1\n      swap3\n      swap2\n      swap1\n      dup1\n      calldataload\n      swap1\n      0x20\n      add\n      swap1\n      swap3\n      swap2\n      swap1\n      pop\n      pop\n      pop\n      tag_73\n      jump\t// in\n    tag_68:\n      stop\n        /* \"anonimity/1-ETH-Anonymity.sol\":16809:17232  function M87Denomination() public view returns (uint256) {... */\n    tag_4:\n      callvalue\n        /* \"--CODEGEN--\":8:17   */\n      dup1\n        /* \"--CODEGEN--\":5:7   */\n      iszero\n      tag_74\n      jumpi\n        /* \"--CODEGEN--\":30:31   */\n      0x00\n        /* \"--CODEGEN--\":27:28   */\n      dup1\n        /* \"--CODEGEN--\":20:32   */\n      revert\n        /* \"--CODEGEN--\":5:7   */\n    tag_74:\n        /* \"anonimity/1-ETH-Anonymity.sol\":16809:17232  function M87Denomination() public view returns (uint256) {... */\n      pop\n      tag_75\n      tag_76\n      jump\t// in\n    tag_75:\n      mload(0x40)\n      dup1\n      dup3\n      dup2\n      mstore\n      0x20\n      add\n      swap2\n      pop\n      pop\n      mload(0x40)\n      dup1\n      swap2\n      sub\n      swap1\n      return\n        /* \"anonimity/1-ETH-Anonymity.sol\":21620:21716  function setOverMinETH(uint256 _overMinEth) public onlyOwner {... */\n    tag_5:\n      callvalue\n        /* \"--CODEGEN--\":8:17   */\n      dup1\n        /* \"--CODEGEN--\":5:7   */\n      iszero\n      tag_77\n      jumpi\n        /* \"--CODEGEN--\":30:31   */\n      0x00\n        /* \"--CODEGEN--\":27:28   */\n      dup1\n        /* \"--CODEGEN--\":20:32   */\n      revert\n        /* \"--CODEGEN--\":5:7   */\n    tag_77:\n        /* \"anonimity/1-ETH-Anonymity.sol\":21620:21716  function setOverMinETH(uint256 _overMinEth) public onlyOwner {... */\n      pop\n      tag_78\n      0x04\n      dup1\n      calldatasize\n      sub\n        /* \"--CODEGEN--\":13:15   */\n      0x20\n        /* \"--CODEGEN--\":8:11   */\n      dup2\n        /* \"--CODEGEN--\":5:16   */\n      lt\n        /* \"--CODEGEN--\":2:4   */\n      iszero\n      tag_79\n      jumpi\n        /* \"--CODEGEN--\":29:30   */\n      0x00\n        /* \"--CODEGEN--\":26:27   */\n      dup1\n        /* \"--CODEGEN--\":19:31   */\n      revert\n        /* \"--CODEGEN--\":2:4   */\n    tag_79:\n        /* \"anonimity/1-ETH-Anonymity.sol\":21620:21716  function setOverMinETH(uint256 _overMinEth) public onlyOwner {... */\n      dup2\n      add\n      swap1\n      dup1\n      dup1\n      calldataload\n      swap1\n      0x20\n      add\n      swap1\n      swap3\n      swap2\n      swap1\n      pop\n      pop\n      pop\n      tag_80\n      jump\t// in\n    tag_78:\n      stop\n        /* \"anonimity/1-ETH-Anonymity.sol\":14271:14297  address[4] public poolList */\n    tag_6:\n      callvalue\n        /* \"--CODEGEN--\":8:17   */\n      dup1\n        /* \"--CODEGEN--\":5:7   */\n      iszero\n      tag_81\n      jumpi\n        /* \"--CODEGEN--\":30:31   */\n      0x00\n        /* \"--CODEGEN--\":27:28   */\n      dup1\n        /* \"--CODEGEN--\":20:32   */\n      revert\n        /* \"--CODEGEN--\":5:7   */\n    tag_81:\n        /* \"anonimity/1-ETH-Anonymity.sol\":14271:14297  address[4] public poolList */\n      pop\n      tag_82\n      0x04\n      dup1\n      calldatasize\n      sub\n        /* \"--CODEGEN--\":13:15   */\n      0x20\n        /* \"--CODEGEN--\":8:11   */\n      dup2\n        /* \"--CODEGEN--\":5:16   */\n      lt\n        /* \"--CODEGEN--\":2:4   */\n      iszero\n      tag_83\n      jumpi\n        /* \"--CODEGEN--\":29:30   */\n      0x00\n        /* \"--CODEGEN--\":26:27   */\n      dup1\n        /* \"--CODEGEN--\":19:31   */\n      revert\n        /* \"--CODEGEN--\":2:4   */\n    tag_83:\n        /* \"anonimity/1-ETH-Anonymity.sol\":14271:14297  address[4] public poolList */\n      dup2\n      add\n      swap1\n      dup1\n      dup1\n      calldataload\n      swap1\n      0x20\n      add\n      swap1\n      swap3\n      swap2\n      swap1\n      pop\n      pop\n      pop\n      tag_84\n      jump\t// in\n    tag_82:\n      mload(0x40)\n      dup1\n      dup3\n      0xffffffffffffffffffffffffffffffffffffffff\n      and\n      0xffffffffffffffffffffffffffffffffffffffff\n      and\n      dup2\n      mstore\n      0x20\n      add\n      swap2\n      pop\n      pop\n      mload(0x40)\n      dup1\n      swap2\n      sub\n      swap1\n      return\n        /* \"anonimity/1-ETH-Anonymity.sol\":13819:13844  IVerifier public verifier */\n    tag_7:\n      callvalue\n        /* \"--CODEGEN--\":8:17   */\n      dup1\n        /* \"--CODEGEN--\":5:7   */\n      iszero\n      tag_85\n      jumpi\n        /* \"--CODEGEN--\":30:31   */\n      0x00\n        /* \"--CODEGEN--\":27:28   */\n      dup1\n        /* \"--CODEGEN--\":20:32   */\n      revert\n        /* \"--CODEGEN--\":5:7   */\n    tag_85:\n        /* \"anonimity/1-ETH-Anonymity.sol\":13819:13844  IVerifier public verifier */\n      pop\n      tag_86\n      tag_87\n      jump\t// in\n    tag_86:\n      mload(0x40)\n      dup1\n      dup3\n      0xffffffffffffffffffffffffffffffffffffffff\n      and\n      0xffffffffffffffffffffffffffffffffffffffff\n      and\n      dup2\n      mstore\n      0x20\n      add\n      swap2\n      pop\n      pop\n      mload(0x40)\n      dup1\n      swap2\n      sub\n      swap1\n      return\n        /* \"anonimity/1-ETH-Anonymity.sol\":14409:14442  uint256 public feeToCollectAmount */\n    tag_8:\n      callvalue\n        /* \"--CODEGEN--\":8:17   */\n      dup1\n        /* \"--CODEGEN--\":5:7   */\n      iszero\n      tag_88\n      jumpi\n        /* \"--CODEGEN--\":30:31   */\n      0x00\n        /* \"--CODEGEN--\":27:28   */\n      dup1\n        /* \"--CODEGEN--\":20:32   */\n      revert\n        /* \"--CODEGEN--\":5:7   */\n    tag_88:\n        /* \"anonimity/1-ETH-Anonymity.sol\":14409:14442  uint256 public feeToCollectAmount */\n      pop\n      tag_89\n      tag_90\n      jump\t// in\n    tag_89:\n      mload(0x40)\n      dup1\n      dup3\n      dup2\n      mstore\n      0x20\n      add\n      swap2\n      pop\n      pop\n      mload(0x40)\n      dup1\n      swap2\n      sub\n      swap1\n      return\n        /* \"anonimity/1-ETH-Anonymity.sol\":13956:13982  uint256 public numOfShares */\n    tag_9:\n      callvalue\n        /* \"--CODEGEN--\":8:17   */\n      dup1\n        /* \"--CODEGEN--\":5:7   */\n      iszero\n      tag_91\n      jumpi\n        /* \"--CODEGEN--\":30:31   */\n      0x00\n        /* \"--CODEGEN--\":27:28   */\n      dup1\n        /* \"--CODEGEN--\":20:32   */\n      revert\n        /* \"--CODEGEN--\":5:7   */\n    tag_91:\n        /* \"anonimity/1-ETH-Anonymity.sol\":13956:13982  uint256 public numOfShares */\n      pop\n      tag_92\n      tag_93\n      jump\t// in\n    tag_92:\n      mload(0x40)\n      dup1\n      dup3\n      dup2\n      mstore\n      0x20\n      add\n      swap2\n      pop\n      pop\n      mload(0x40)\n      dup1\n      swap2\n      sub\n      swap1\n      return\n        /* \"anonimity/1-ETH-Anonymity.sol\":23662:23733  function forceSwapAndShare() public onlyOwner {... */\n    tag_10:\n      callvalue\n        /* \"--CODEGEN--\":8:17   */\n      dup1\n        /* \"--CODEGEN--\":5:7   */\n      iszero\n      tag_94\n      jumpi\n        /* \"--CODEGEN--\":30:31   */\n      0x00\n        /* \"--CODEGEN--\":27:28   */\n      dup1\n        /* \"--CODEGEN--\":20:32   */\n      revert\n        /* \"--CODEGEN--\":5:7   */\n    tag_94:\n        /* \"anonimity/1-ETH-Anonymity.sol\":23662:23733  function forceSwapAndShare() public onlyOwner {... */\n      pop\n      tag_95\n      tag_96\n      jump\t// in\n    tag_95:\n      stop\n        /* \"anonimity/1-ETH-Anonymity.sol\":13924:13952  address public messier_owner */\n    tag_11:\n      callvalue\n        /* \"--CODEGEN--\":8:17   */\n      dup1\n        /* \"--CODEGEN--\":5:7   */\n      iszero\n      tag_97\n      jumpi\n        /* \"--CODEGEN--\":30:31   */\n      0x00\n        /* \"--CODEGEN--\":27:28   */\n      dup1\n        /* \"--CODEGEN--\":20:32   */\n      revert\n        /* \"--CODEGEN--\":5:7   */\n    tag_97:\n        /* \"anonimity/1-ETH-Anonymity.sol\":13924:13952  address public messier_owner */\n      pop\n      tag_98\n      tag_99\n      jump\t// in\n    tag_98:\n      mload(0x40)\n      dup1\n      dup3\n      0xffffffffffffffffffffffffffffffffffffffff\n      and\n      0xffffffffffffffffffffffffffffffffffffffff\n      and\n      dup2\n      mstore\n      0x20\n      add\n      swap2\n      pop\n      pop\n      mload(0x40)\n      dup1\n      swap2\n      sub\n      swap1\n      return\n        /* \"anonimity/1-ETH-Anonymity.sol\":9422:9867  function hashLeftRight(bytes32 _left, bytes32 _right) public pure returns (bytes32) {... */\n    tag_12:\n      callvalue\n        /* \"--CODEGEN--\":8:17   */\n      dup1\n        /* \"--CODEGEN--\":5:7   */\n      iszero\n      tag_100\n      jumpi\n        /* \"--CODEGEN--\":30:31   */\n      0x00\n        /* \"--CODEGEN--\":27:28   */\n      dup1\n        /* \"--CODEGEN--\":20:32   */\n      revert\n        /* \"--CODEGEN--\":5:7   */\n    tag_100:\n        /* \"anonimity/1-ETH-Anonymity.sol\":9422:9867  function hashLeftRight(bytes32 _left, bytes32 _right) public pure returns (bytes32) {... */\n      pop\n      tag_101\n      0x04\n      dup1\n      calldatasize\n      sub\n        /* \"--CODEGEN--\":13:15   */\n      0x40\n        /* \"--CODEGEN--\":8:11   */\n      dup2\n        /* \"--CODEGEN--\":5:16   */\n      lt\n        /* \"--CODEGEN--\":2:4   */\n      iszero\n      tag_102\n      jumpi\n        /* \"--CODEGEN--\":29:30   */\n      0x00\n        /* \"--CODEGEN--\":26:27   */\n      dup1\n        /* \"--CODEGEN--\":19:31   */\n      revert\n        /* \"--CODEGEN--\":2:4   */\n    tag_102:\n        /* \"anonimity/1-ETH-Anonymity.sol\":9422:9867  function hashLeftRight(bytes32 _left, bytes32 _right) public pure returns (bytes32) {... */\n      dup2\n      add\n      swap1\n      dup1\n      dup1\n      calldataload\n      swap1\n      0x20\n      add\n      swap1\n      swap3\n      swap2\n      swap1\n      dup1\n      calldataload\n      swap1\n      0x20\n      add\n      swap1\n      swap3\n      swap2\n      swap1\n      pop\n      pop\n      pop\n      tag_103\n      jump\t// in\n    tag_101:\n      mload(0x40)\n      dup1\n      dup3\n      dup2\n      mstore\n      0x20\n      add\n      swap2\n      pop\n      pop\n      mload(0x40)\n      dup1\n      swap2\n      sub\n      swap1\n      return\n        /* \"anonimity/1-ETH-Anonymity.sol\":14085:14116  uint256 public anonymityFee = 0 */\n    tag_13:\n      callvalue\n        /* \"--CODEGEN--\":8:17   */\n      dup1\n        /* \"--CODEGEN--\":5:7   */\n      iszero\n      tag_104\n      jumpi\n        /* \"--CODEGEN--\":30:31   */\n      0x00\n        /* \"--CODEGEN--\":27:28   */\n      dup1\n        /* \"--CODEGEN--\":20:32   */\n      revert\n        /* \"--CODEGEN--\":5:7   */\n    tag_104:\n        /* \"anonimity/1-ETH-Anonymity.sol\":14085:14116  uint256 public anonymityFee = 0 */\n      pop\n      tag_105\n      tag_106\n      jump\t// in\n    tag_105:\n      mload(0x40)\n      dup1\n      dup3\n      dup2\n      mstore\n      0x20\n      add\n      swap2\n      pop\n      pop\n      mload(0x40)\n      dup1\n      swap2\n      sub\n      swap1\n      return\n        /* \"anonimity/1-ETH-Anonymity.sol\":8294:8408  uint256 public constant FIELD_SIZE = 21888242871839275222246405745257275088548364400416034343698204186575808495617 */\n    tag_14:\n      callvalue\n        /* \"--CODEGEN--\":8:17   */\n      dup1\n        /* \"--CODEGEN--\":5:7   */\n      iszero\n      tag_107\n      jumpi\n        /* \"--CODEGEN--\":30:31   */\n      0x00\n        /* \"--CODEGEN--\":27:28   */\n      dup1\n        /* \"--CODEGEN--\":20:32   */\n      revert\n        /* \"--CODEGEN--\":5:7   */\n    tag_107:\n        /* \"anonimity/1-ETH-Anonymity.sol\":8294:8408  uint256 public constant FIELD_SIZE = 21888242871839275222246405745257275088548364400416034343698204186575808495617 */\n      pop\n      tag_108\n      tag_109\n      jump\t// in\n    tag_108:\n      mload(0x40)\n      dup1\n      dup3\n      dup2\n      mstore\n      0x20\n      add\n      swap2\n      pop\n      pop\n      mload(0x40)\n      dup1\n      swap2\n      sub\n      swap1\n      return\n        /* \"anonimity/1-ETH-Anonymity.sol\":14216:14267  uint256[5] public shareOfReward = [30, 0, 70, 0, 0] */\n    tag_15:\n      callvalue\n        /* \"--CODEGEN--\":8:17   */\n      dup1\n        /* \"--CODEGEN--\":5:7   */\n      iszero\n      tag_110\n      jumpi\n        /* \"--CODEGEN--\":30:31   */\n      0x00\n        /* \"--CODEGEN--\":27:28   */\n      dup1\n        /* \"--CODEGEN--\":20:32   */\n      revert\n        /* \"--CODEGEN--\":5:7   */\n    tag_110:\n        /* \"anonimity/1-ETH-Anonymity.sol\":14216:14267  uint256[5] public shareOfReward = [30, 0, 70, 0, 0] */\n      pop\n      tag_111\n      0x04\n      dup1\n      calldatasize\n      sub\n        /* \"--CODEGEN--\":13:15   */\n      0x20\n        /* \"--CODEGEN--\":8:11   */\n      dup2\n        /* \"--CODEGEN--\":5:16   */\n      lt\n        /* \"--CODEGEN--\":2:4   */\n      iszero\n      tag_112\n      jumpi\n        /* \"--CODEGEN--\":29:30   */\n      0x00\n        /* \"--CODEGEN--\":26:27   */\n      dup1\n        /* \"--CODEGEN--\":19:31   */\n      revert\n        /* \"--CODEGEN--\":2:4   */\n    tag_112:\n        /* \"anonimity/1-ETH-Anonymity.sol\":14216:14267  uint256[5] public shareOfReward = [30, 0, 70, 0, 0] */\n      dup2\n      add\n      swap1\n      dup1\n      dup1\n      calldataload\n      swap1\n      0x20\n      add\n      swap1\n      swap3\n      swap2\n      swap1\n      pop\n      pop\n      pop\n      tag_113\n      jump\t// in\n    tag_111:\n      mload(0x40)\n      dup1\n      dup3\n      dup2\n      mstore\n      0x20\n      add\n      swap2\n      pop\n      pop\n      mload(0x40)\n      dup1\n      swap2\n      sub\n      swap1\n      return\n        /* \"anonimity/1-ETH-Anonymity.sol\":21376:21616  function setPoolFee(uint256 burnFee, uint256 fee1, uint256 fee2, uint256 fee3, uint256 fee4) public onlyOwner {... */\n    tag_16:\n      callvalue\n        /* \"--CODEGEN--\":8:17   */\n      dup1\n        /* \"--CODEGEN--\":5:7   */\n      iszero\n      tag_114\n      jumpi\n        /* \"--CODEGEN--\":30:31   */\n      0x00\n        /* \"--CODEGEN--\":27:28   */\n      dup1\n        /* \"--CODEGEN--\":20:32   */\n      revert\n        /* \"--CODEGEN--\":5:7   */\n    tag_114:\n        /* \"anonimity/1-ETH-Anonymity.sol\":21376:21616  function setPoolFee(uint256 burnFee, uint256 fee1, uint256 fee2, uint256 fee3, uint256 fee4) public onlyOwner {... */\n      pop\n      tag_115\n      0x04\n      dup1\n      calldatasize\n      sub\n        /* \"--CODEGEN--\":13:16   */\n      0xa0\n        /* \"--CODEGEN--\":8:11   */\n      dup2\n        /* \"--CODEGEN--\":5:17   */\n      lt\n        /* \"--CODEGEN--\":2:4   */\n      iszero\n      tag_116\n      jumpi\n        /* \"--CODEGEN--\":30:31   */\n      0x00\n        /* \"--CODEGEN--\":27:28   */\n      dup1\n        /* \"--CODEGEN--\":20:32   */\n      revert\n        /* \"--CODEGEN--\":2:4   */\n    tag_116:\n        /* \"anonimity/1-ETH-Anonymity.sol\":21376:21616  function setPoolFee(uint256 burnFee, uint256 fee1, uint256 fee2, uint256 fee3, uint256 fee4) public onlyOwner {... */\n      dup2\n      add\n      swap1\n      dup1\n      dup1\n      calldataload\n      swap1\n      0x20\n      add\n      swap1\n      swap3\n      swap2\n      swap1\n      dup1\n      calldataload\n      swap1\n      0x20\n      add\n      swap1\n      swap3\n      swap2\n      swap1\n      dup1\n      calldataload\n      swap1\n      0x20\n      add\n      swap1\n      swap3\n      swap2\n      swap1\n      dup1\n      calldataload\n      swap1\n      0x20\n      add\n      swap1\n      swap3\n      swap2\n      swap1\n      dup1\n      calldataload\n      swap1\n      0x20\n      add\n      swap1\n      swap3\n      swap2\n      swap1\n      pop\n      pop\n      pop\n      tag_117\n      jump\t// in\n    tag_115:\n      stop\n        /* \"anonimity/1-ETH-Anonymity.sol\":8570:8590  uint32 public levels */\n    tag_17:\n      callvalue\n        /* \"--CODEGEN--\":8:17   */\n      dup1\n        /* \"--CODEGEN--\":5:7   */\n      iszero\n      tag_118\n      jumpi\n        /* \"--CODEGEN--\":30:31   */\n      0x00\n        /* \"--CODEGEN--\":27:28   */\n      dup1\n        /* \"--CODEGEN--\":20:32   */\n      revert\n        /* \"--CODEGEN--\":5:7   */\n    tag_118:\n        /* \"anonimity/1-ETH-Anonymity.sol\":8570:8590  uint32 public levels */\n      pop\n      tag_119\n      tag_120\n      jump\t// in\n    tag_119:\n      mload(0x40)\n      dup1\n      dup3\n      0xffffffff\n      and\n      0xffffffff\n      and\n      dup2\n      mstore\n      0x20\n      add\n      swap2\n      pop\n      pop\n      mload(0x40)\n      dup1\n      swap2\n      sub\n      swap1\n      return\n        /* \"anonimity/1-ETH-Anonymity.sol\":13573:13605  uint256 public tokenDenomination */\n    tag_18:\n      callvalue\n        /* \"--CODEGEN--\":8:17   */\n      dup1\n        /* \"--CODEGEN--\":5:7   */\n      iszero\n      tag_121\n      jumpi\n        /* \"--CODEGEN--\":30:31   */\n      0x00\n        /* \"--CODEGEN--\":27:28   */\n      dup1\n        /* \"--CODEGEN--\":20:32   */\n      revert\n        /* \"--CODEGEN--\":5:7   */\n    tag_121:\n        /* \"anonimity/1-ETH-Anonymity.sol\":13573:13605  uint256 public tokenDenomination */\n      pop\n      tag_122\n      tag_123\n      jump\t// in\n    tag_122:\n      mload(0x40)\n      dup1\n      dup3\n      dup2\n      mstore\n      0x20\n      add\n      swap2\n      pop\n      pop\n      mload(0x40)\n      dup1\n      swap2\n      sub\n      swap1\n      return\n        /* \"anonimity/1-ETH-Anonymity.sol\":24100:24177  function version() public pure returns(string memory) {... */\n    tag_19:\n      callvalue\n        /* \"--CODEGEN--\":8:17   */\n      dup1\n        /* \"--CODEGEN--\":5:7   */\n      iszero\n      tag_124\n      jumpi\n        /* \"--CODEGEN--\":30:31   */\n      0x00\n        /* \"--CODEGEN--\":27:28   */\n      dup1\n        /* \"--CODEGEN--\":20:32   */\n      revert\n        /* \"--CODEGEN--\":5:7   */\n    tag_124:\n        /* \"anonimity/1-ETH-Anonymity.sol\":24100:24177  function version() public pure returns(string memory) {... */\n      pop\n      tag_125\n      tag_126\n      jump\t// in\n    tag_125:\n      mload(0x40)\n      dup1\n      dup1\n      0x20\n      add\n      dup3\n      dup2\n      sub\n      dup3\n      mstore\n      dup4\n      dup2\n      dup2\n      mload\n      dup2\n      mstore\n      0x20\n      add\n      swap2\n      pop\n      dup1\n      mload\n      swap1\n      0x20\n      add\n      swap1\n      dup1\n      dup4\n      dup4\n        /* \"--CODEGEN--\":23:24   */\n      0x00\n        /* \"--CODEGEN--\":8:108   */\n    tag_127:\n        /* \"--CODEGEN--\":33:36   */\n      dup4\n        /* \"--CODEGEN--\":30:31   */\n      dup2\n        /* \"--CODEGEN--\":27:37   */\n      lt\n        /* \"--CODEGEN--\":8:108   */\n      iszero\n      tag_129\n      jumpi\n        /* \"--CODEGEN--\":99:100   */\n      dup1\n        /* \"--CODEGEN--\":94:97   */\n      dup3\n        /* \"--CODEGEN--\":90:101   */\n      add\n        /* \"--CODEGEN--\":84:102   */\n      mload\n        /* \"--CODEGEN--\":80:81   */\n      dup2\n        /* \"--CODEGEN--\":75:78   */\n      dup5\n        /* \"--CODEGEN--\":71:82   */\n      add\n        /* \"--CODEGEN--\":64:103   */\n      mstore\n        /* \"--CODEGEN--\":52:54   */\n      0x20\n        /* \"--CODEGEN--\":49:50   */\n      dup2\n        /* \"--CODEGEN--\":45:55   */\n      add\n        /* \"--CODEGEN--\":40:55   */\n      swap1\n      pop\n        /* \"--CODEGEN--\":8:108   */\n      jump(tag_127)\n    tag_129:\n        /* \"--CODEGEN--\":12:26   */\n      pop\n        /* \"anonimity/1-ETH-Anonymity.sol\":24100:24177  function version() public pure returns(string memory) {... */\n      pop\n      pop\n      pop\n      swap1\n      pop\n      swap1\n      dup2\n      add\n      swap1\n      0x1f\n      and\n      dup1\n      iszero\n      tag_130\n      jumpi\n      dup1\n      dup3\n      sub\n      dup1\n      mload\n      0x01\n      dup4\n      0x20\n      sub\n      0x0100\n      exp\n      sub\n      not\n      and\n      dup2\n      mstore\n      0x20\n      add\n      swap2\n      pop\n    tag_130:\n      pop\n      swap3\n      pop\n      pop\n      pop\n      mload(0x40)\n      dup1\n      swap2\n      sub\n      swap1\n      return\n        /* \"anonimity/1-ETH-Anonymity.sol\":13897:13920  address public treasury */\n    tag_20:\n      callvalue\n        /* \"--CODEGEN--\":8:17   */\n      dup1\n        /* \"--CODEGEN--\":5:7   */\n      iszero\n      tag_131\n      jumpi\n        /* \"--CODEGEN--\":30:31   */\n      0x00\n        /* \"--CODEGEN--\":27:28   */\n      dup1\n        /* \"--CODEGEN--\":20:32   */\n      revert\n        /* \"--CODEGEN--\":5:7   */\n    tag_131:\n        /* \"anonimity/1-ETH-Anonymity.sol\":13897:13920  address public treasury */\n      pop\n      tag_132\n      tag_133\n      jump\t// in\n    tag_132:\n      mload(0x40)\n      dup1\n      dup3\n      0xffffffffffffffffffffffffffffffffffffffff\n      and\n      0xffffffffffffffffffffffffffffffffffffffff\n      and\n      dup2\n      mstore\n      0x20\n      add\n      swap2\n      pop\n      pop\n      mload(0x40)\n      dup1\n      swap2\n      sub\n      swap1\n      return\n        /* \"anonimity/1-ETH-Anonymity.sol\":21100:21372  function setPoolList(address addr1, address addr2, address addr3, address addr4) public onlyOwner {... */\n    tag_21:\n      callvalue\n        /* \"--CODEGEN--\":8:17   */\n      dup1\n        /* \"--CODEGEN--\":5:7   */\n      iszero\n      tag_134\n      jumpi\n        /* \"--CODEGEN--\":30:31   */\n      0x00\n        /* \"--CODEGEN--\":27:28   */\n      dup1\n        /* \"--CODEGEN--\":20:32   */\n      revert\n        /* \"--CODEGEN--\":5:7   */\n    tag_134:\n        /* \"anonimity/1-ETH-Anonymity.sol\":21100:21372  function setPoolList(address addr1, address addr2, address addr3, address addr4) public onlyOwner {... */\n      pop\n      tag_135\n      0x04\n      dup1\n      calldatasize\n      sub\n        /* \"--CODEGEN--\":13:16   */\n      0x80\n        /* \"--CODEGEN--\":8:11   */\n      dup2\n        /* \"--CODEGEN--\":5:17   */\n      lt\n        /* \"--CODEGEN--\":2:4   */\n      iszero\n      tag_136\n      jumpi\n        /* \"--CODEGEN--\":30:31   */\n      0x00\n        /* \"--CODEGEN--\":27:28   */\n      dup1\n        /* \"--CODEGEN--\":20:32   */\n      revert\n        /* \"--CODEGEN--\":2:4   */\n    tag_136:\n        /* \"anonimity/1-ETH-Anonymity.sol\":21100:21372  function setPoolList(address addr1, address addr2, address addr3, address addr4) public onlyOwner {... */\n      dup2\n      add\n      swap1\n      dup1\n      dup1\n      calldataload\n      0xffffffffffffffffffffffffffffffffffffffff\n      and\n      swap1\n      0x20\n      add\n      swap1\n      swap3\n      swap2\n      swap1\n      dup1\n      calldataload\n      0xffffffffffffffffffffffffffffffffffffffff\n      and\n      swap1\n      0x20\n      add\n      swap1\n      swap3\n      swap2\n      swap1\n      dup1\n      calldataload\n      0xffffffffffffffffffffffffffffffffffffffff\n      and\n      swap1\n      0x20\n      add\n      swap1\n      swap3\n      swap2\n      swap1\n      dup1\n      calldataload\n      0xffffffffffffffffffffffffffffffffffffffff\n      and\n      swap1\n      0x20\n      add\n      swap1\n      swap3\n      swap2\n      swap1\n      pop\n      pop\n      pop\n      tag_137\n      jump\t// in\n    tag_135:\n      stop\n        /* \"anonimity/1-ETH-Anonymity.sol\":14541:14568  uint256 public curPoolIndex */\n    tag_22:\n      callvalue\n        /* \"--CODEGEN--\":8:17   */\n      dup1\n        /* \"--CODEGEN--\":5:7   */\n      iszero\n      tag_138\n      jumpi\n        /* \"--CODEGEN--\":30:31   */\n      0x00\n        /* \"--CODEGEN--\":27:28   */\n      dup1\n        /* \"--CODEGEN--\":20:32   */\n      revert\n        /* \"--CODEGEN--\":5:7   */\n    tag_138:\n        /* \"anonimity/1-ETH-Anonymity.sol\":14541:14568  uint256 public curPoolIndex */\n      pop\n      tag_139\n      tag_140\n      jump\t// in\n    tag_139:\n      mload(0x40)\n      dup1\n      dup3\n      dup2\n      mstore\n      0x20\n      add\n      swap2\n      pop\n      pop\n      mload(0x40)\n      dup1\n      swap2\n      sub\n      swap1\n      return\n        /* \"anonimity/1-ETH-Anonymity.sol\":10745:11087  function isKnownRoot(bytes32 _root) public view returns(bool) {... */\n    tag_23:\n      callvalue\n        /* \"--CODEGEN--\":8:17   */\n      dup1\n        /* \"--CODEGEN--\":5:7   */\n      iszero\n      tag_141\n      jumpi\n        /* \"--CODEGEN--\":30:31   */\n      0x00\n        /* \"--CODEGEN--\":27:28   */\n      dup1\n        /* \"--CODEGEN--\":20:32   */\n      revert\n        /* \"--CODEGEN--\":5:7   */\n    tag_141:\n        /* \"anonimity/1-ETH-Anonymity.sol\":10745:11087  function isKnownRoot(bytes32 _root) public view returns(bool) {... */\n      pop\n      tag_142\n      0x04\n      dup1\n      calldatasize\n      sub\n        /* \"--CODEGEN--\":13:15   */\n      0x20\n        /* \"--CODEGEN--\":8:11   */\n      dup2\n        /* \"--CODEGEN--\":5:16   */\n      lt\n        /* \"--CODEGEN--\":2:4   */\n      iszero\n      tag_143\n      jumpi\n        /* \"--CODEGEN--\":29:30   */\n      0x00\n        /* \"--CODEGEN--\":26:27   */\n      dup1\n        /* \"--CODEGEN--\":19:31   */\n      revert\n        /* \"--CODEGEN--\":2:4   */\n    tag_143:\n        /* \"anonimity/1-ETH-Anonymity.sol\":10745:11087  function isKnownRoot(bytes32 _root) public view returns(bool) {... */\n      dup2\n      add\n      swap1\n      dup1\n      dup1\n      calldataload\n      swap1\n      0x20\n      add\n      swap1\n      swap3\n      swap2\n      swap1\n      pop\n      pop\n      pop\n      tag_144\n      jump\t// in\n    tag_142:\n      mload(0x40)\n      dup1\n      dup3\n      iszero\n      iszero\n      iszero\n      iszero\n      dup2\n      mstore\n      0x20\n      add\n      swap2\n      pop\n      pop\n      mload(0x40)\n      dup1\n      swap2\n      sub\n      swap1\n      return\n        /* \"anonimity/1-ETH-Anonymity.sol\":13871:13893  IERC20 public M87Token */\n    tag_24:\n      callvalue\n        /* \"--CODEGEN--\":8:17   */\n      dup1\n        /* \"--CODEGEN--\":5:7   */\n      iszero\n      tag_145\n      jumpi\n        /* \"--CODEGEN--\":30:31   */\n      0x00\n        /* \"--CODEGEN--\":27:28   */\n      dup1\n        /* \"--CODEGEN--\":20:32   */\n      revert\n        /* \"--CODEGEN--\":5:7   */\n    tag_145:\n        /* \"anonimity/1-ETH-Anonymity.sol\":13871:13893  IERC20 public M87Token */\n      pop\n      tag_146\n      tag_147\n      jump\t// in\n    tag_146:\n      mload(0x40)\n      dup1\n      dup3\n      0xffffffffffffffffffffffffffffffffffffffff\n      and\n      0xffffffffffffffffffffffffffffffffffffffff\n      and\n      dup2\n      mstore\n      0x20\n      add\n      swap2\n      pop\n      pop\n      mload(0x40)\n      dup1\n      swap2\n      sub\n      swap1\n      return\n        /* \"anonimity/1-ETH-Anonymity.sol\":23877:24096  function setFeePercent(uint256 _fee) public onlyOwner {... */\n    tag_25:\n      callvalue\n        /* \"--CODEGEN--\":8:17   */\n      dup1\n        /* \"--CODEGEN--\":5:7   */\n      iszero\n      tag_148\n      jumpi\n        /* \"--CODEGEN--\":30:31   */\n      0x00\n        /* \"--CODEGEN--\":27:28   */\n      dup1\n        /* \"--CODEGEN--\":20:32   */\n      revert\n        /* \"--CODEGEN--\":5:7   */\n    tag_148:\n        /* \"anonimity/1-ETH-Anonymity.sol\":23877:24096  function setFeePercent(uint256 _fee) public onlyOwner {... */\n      pop\n      tag_149\n      0x04\n      dup1\n      calldatasize\n      sub\n        /* \"--CODEGEN--\":13:15   */\n      0x20\n        /* \"--CODEGEN--\":8:11   */\n      dup2\n        /* \"--CODEGEN--\":5:16   */\n      lt\n        /* \"--CODEGEN--\":2:4   */\n      iszero\n      tag_150\n      jumpi\n        /* \"--CODEGEN--\":29:30   */\n      0x00\n        /* \"--CODEGEN--\":26:27   */\n      dup1\n        /* \"--CODEGEN--\":19:31   */\n      revert\n        /* \"--CODEGEN--\":2:4   */\n    tag_150:\n        /* \"anonimity/1-ETH-Anonymity.sol\":23877:24096  function setFeePercent(uint256 _fee) public onlyOwner {... */\n      dup2\n      add\n      swap1\n      dup1\n      dup1\n      calldataload\n      swap1\n      0x20\n      add\n      swap1\n      swap3\n      swap2\n      swap1\n      pop\n      pop\n      pop\n      tag_151\n      jump\t// in\n    tag_149:\n      stop\n        /* \"anonimity/1-ETH-Anonymity.sol\":13683:13726  mapping(bytes32 => bool) public commitments */\n    tag_26:\n      callvalue\n        /* \"--CODEGEN--\":8:17   */\n      dup1\n        /* \"--CODEGEN--\":5:7   */\n      iszero\n      tag_152\n      jumpi\n        /* \"--CODEGEN--\":30:31   */\n      0x00\n        /* \"--CODEGEN--\":27:28   */\n      dup1\n        /* \"--CODEGEN--\":20:32   */\n      revert\n        /* \"--CODEGEN--\":5:7   */\n    tag_152:\n        /* \"anonimity/1-ETH-Anonymity.sol\":13683:13726  mapping(bytes32 => bool) public commitments */\n      pop\n      tag_153\n      0x04\n      dup1\n      calldatasize\n      sub\n        /* \"--CODEGEN--\":13:15   */\n      0x20\n        /* \"--CODEGEN--\":8:11   */\n      dup2\n        /* \"--CODEGEN--\":5:16   */\n      lt\n        /* \"--CODEGEN--\":2:4   */\n      iszero\n      tag_154\n      jumpi\n        /* \"--CODEGEN--\":29:30   */\n      0x00\n        /* \"--CODEGEN--\":26:27   */\n      dup1\n        /* \"--CODEGEN--\":19:31   */\n      revert\n        /* \"--CODEGEN--\":2:4   */\n    tag_154:\n        /* \"anonimity/1-ETH-Anonymity.sol\":13683:13726  mapping(bytes32 => bool) public commitments */\n      dup2\n      add\n      swap1\n      dup1\n      dup1\n      calldataload\n      swap1\n      0x20\n      add\n      swap1\n      swap3\n      swap2\n      swap1\n      pop\n      pop\n      pop\n      tag_155\n      jump\t// in\n    tag_153:\n      mload(0x40)\n      dup1\n      dup3\n      iszero\n      iszero\n      iszero\n      iszero\n      dup2\n      mstore\n      0x20\n      add\n      swap2\n      pop\n      pop\n      mload(0x40)\n      dup1\n      swap2\n      sub\n      swap1\n      return\n        /* \"anonimity/1-ETH-Anonymity.sol\":14020:14049  uint256 public rewardPerBlock */\n    tag_27:\n      callvalue\n        /* \"--CODEGEN--\":8:17   */\n      dup1\n        /* \"--CODEGEN--\":5:7   */\n      iszero\n      tag_156\n      jumpi\n        /* \"--CODEGEN--\":30:31   */\n      0x00\n        /* \"--CODEGEN--\":27:28   */\n      dup1\n        /* \"--CODEGEN--\":20:32   */\n      revert\n        /* \"--CODEGEN--\":5:7   */\n    tag_156:\n        /* \"anonimity/1-ETH-Anonymity.sol\":14020:14049  uint256 public rewardPerBlock */\n      pop\n      tag_157\n      tag_158\n      jump\t// in\n    tag_157:\n      mload(0x40)\n      dup1\n      dup3\n      dup2\n      mstore\n      0x20\n      add\n      swap2\n      pop\n      pop\n      mload(0x40)\n      dup1\n      swap2\n      sub\n      swap1\n      return\n        /* \"anonimity/1-ETH-Anonymity.sol\":16172:16590  function updateBlockReward() public {... */\n    tag_28:\n      callvalue\n        /* \"--CODEGEN--\":8:17   */\n      dup1\n        /* \"--CODEGEN--\":5:7   */\n      iszero\n      tag_159\n      jumpi\n        /* \"--CODEGEN--\":30:31   */\n      0x00\n        /* \"--CODEGEN--\":27:28   */\n      dup1\n        /* \"--CODEGEN--\":20:32   */\n      revert\n        /* \"--CODEGEN--\":5:7   */\n    tag_159:\n        /* \"anonimity/1-ETH-Anonymity.sol\":16172:16590  function updateBlockReward() public {... */\n      pop\n      tag_160\n      tag_161\n      jump\t// in\n    tag_160:\n      stop\n        /* \"anonimity/1-ETH-Anonymity.sol\":20593:20729  function setAnonymityFee(uint256 _fee) public onlyOwner {... */\n    tag_29:\n      callvalue\n        /* \"--CODEGEN--\":8:17   */\n      dup1\n        /* \"--CODEGEN--\":5:7   */\n      iszero\n      tag_162\n      jumpi\n        /* \"--CODEGEN--\":30:31   */\n      0x00\n        /* \"--CODEGEN--\":27:28   */\n      dup1\n        /* \"--CODEGEN--\":20:32   */\n      revert\n        /* \"--CODEGEN--\":5:7   */\n    tag_162:\n        /* \"anonimity/1-ETH-Anonymity.sol\":20593:20729  function setAnonymityFee(uint256 _fee) public onlyOwner {... */\n      pop\n      tag_163\n      0x04\n      dup1\n      calldatasize\n      sub\n        /* \"--CODEGEN--\":13:15   */\n      0x20\n        /* \"--CODEGEN--\":8:11   */\n      dup2\n        /* \"--CODEGEN--\":5:16   */\n      lt\n        /* \"--CODEGEN--\":2:4   */\n      iszero\n      tag_164\n      jumpi\n        /* \"--CODEGEN--\":29:30   */\n      0x00\n        /* \"--CODEGEN--\":26:27   */\n      dup1\n        /* \"--CODEGEN--\":19:31   */\n      revert\n        /* \"--CODEGEN--\":2:4   */\n    tag_164:\n        /* \"anonimity/1-ETH-Anonymity.sol\":20593:20729  function setAnonymityFee(uint256 _fee) public onlyOwner {... */\n      dup2\n      add\n      swap1\n      dup1\n      dup1\n      calldataload\n      swap1\n      0x20\n      add\n      swap1\n      swap3\n      swap2\n      swap1\n      pop\n      pop\n      pop\n      tag_165\n      jump\t// in\n    tag_163:\n      stop\n        /* \"anonimity/1-ETH-Anonymity.sol\":8791:8825  uint32 public currentRootIndex = 0 */\n    tag_30:\n      callvalue\n        /* \"--CODEGEN--\":8:17   */\n      dup1\n        /* \"--CODEGEN--\":5:7   */\n      iszero\n      tag_166\n      jumpi\n        /* \"--CODEGEN--\":30:31   */\n      0x00\n        /* \"--CODEGEN--\":27:28   */\n      dup1\n        /* \"--CODEGEN--\":20:32   */\n      revert\n        /* \"--CODEGEN--\":5:7   */\n    tag_166:\n        /* \"anonimity/1-ETH-Anonymity.sol\":8791:8825  uint32 public currentRootIndex = 0 */\n      pop\n      tag_167\n      tag_168\n      jump\t// in\n    tag_167:\n      mload(0x40)\n      dup1\n      dup3\n      0xffffffff\n      and\n      0xffffffff\n      and\n      dup2\n      mstore\n      0x20\n      add\n      swap2\n      pop\n      pop\n      mload(0x40)\n      dup1\n      swap2\n      sub\n      swap1\n      return\n        /* \"anonimity/1-ETH-Anonymity.sol\":16594:16805  function getAccumulateM87() public view returns (uint256) {... */\n    tag_31:\n      callvalue\n        /* \"--CODEGEN--\":8:17   */\n      dup1\n        /* \"--CODEGEN--\":5:7   */\n      iszero\n      tag_169\n      jumpi\n        /* \"--CODEGEN--\":30:31   */\n      0x00\n        /* \"--CODEGEN--\":27:28   */\n      dup1\n        /* \"--CODEGEN--\":20:32   */\n      revert\n        /* \"--CODEGEN--\":5:7   */\n    tag_169:\n        /* \"anonimity/1-ETH-Anonymity.sol\":16594:16805  function getAccumulateM87() public view returns (uint256) {... */\n      pop\n      tag_170\n      tag_171\n      jump\t// in\n    tag_170:\n      mload(0x40)\n      dup1\n      dup3\n      dup2\n      mstore\n      0x20\n      add\n      swap2\n      pop\n      pop\n      mload(0x40)\n      dup1\n      swap2\n      sub\n      swap1\n      return\n        /* \"anonimity/1-ETH-Anonymity.sol\":20123:20233  function updateVerifier(address _newVerifier) external onlyOwner {... */\n    tag_32:\n      callvalue\n        /* \"--CODEGEN--\":8:17   */\n      dup1\n        /* \"--CODEGEN--\":5:7   */\n      iszero\n      tag_172\n      jumpi\n        /* \"--CODEGEN--\":30:31   */\n      0x00\n        /* \"--CODEGEN--\":27:28   */\n      dup1\n        /* \"--CODEGEN--\":20:32   */\n      revert\n        /* \"--CODEGEN--\":5:7   */\n    tag_172:\n        /* \"anonimity/1-ETH-Anonymity.sol\":20123:20233  function updateVerifier(address _newVerifier) external onlyOwner {... */\n      pop\n      tag_173\n      0x04\n      dup1\n      calldatasize\n      sub\n        /* \"--CODEGEN--\":13:15   */\n      0x20\n        /* \"--CODEGEN--\":8:11   */\n      dup2\n        /* \"--CODEGEN--\":5:16   */\n      lt\n        /* \"--CODEGEN--\":2:4   */\n      iszero\n      tag_174\n      jumpi\n        /* \"--CODEGEN--\":29:30   */\n      0x00\n        /* \"--CODEGEN--\":26:27   */\n      dup1\n        /* \"--CODEGEN--\":19:31   */\n      revert\n        /* \"--CODEGEN--\":2:4   */\n    tag_174:\n        /* \"anonimity/1-ETH-Anonymity.sol\":20123:20233  function updateVerifier(address _newVerifier) external onlyOwner {... */\n      dup2\n      add\n      swap1\n      dup1\n      dup1\n      calldataload\n      0xffffffffffffffffffffffffffffffffffffffff\n      and\n      swap1\n      0x20\n      add\n      swap1\n      swap3\n      swap2\n      swap1\n      pop\n      pop\n      pop\n      tag_175\n      jump\t// in\n    tag_173:\n      stop\n        /* \"anonimity/1-ETH-Anonymity.sol\":13610:13641  uint256 public coinDenomination */\n    tag_33:\n      callvalue\n        /* \"--CODEGEN--\":8:17   */\n      dup1\n        /* \"--CODEGEN--\":5:7   */\n      iszero\n      tag_176\n      jumpi\n        /* \"--CODEGEN--\":30:31   */\n      0x00\n        /* \"--CODEGEN--\":27:28   */\n      dup1\n        /* \"--CODEGEN--\":20:32   */\n      revert\n        /* \"--CODEGEN--\":5:7   */\n    tag_176:\n        /* \"anonimity/1-ETH-Anonymity.sol\":13610:13641  uint256 public coinDenomination */\n      pop\n      tag_177\n      tag_178\n      jump\t// in\n    tag_177:\n      mload(0x40)\n      dup1\n      dup3\n      dup2\n      mstore\n      0x20\n      add\n      swap2\n      pop\n      pop\n      mload(0x40)\n      dup1\n      swap2\n      sub\n      swap1\n      return\n        /* \"anonimity/1-ETH-Anonymity.sol\":13986:14016  uint256 public lastRewardBlock */\n    tag_34:\n      callvalue\n        /* \"--CODEGEN--\":8:17   */\n      dup1\n        /* \"--CODEGEN--\":5:7   */\n      iszero\n      tag_179\n      jumpi\n        /* \"--CODEGEN--\":30:31   */\n      0x00\n        /* \"--CODEGEN--\":27:28   */\n      dup1\n        /* \"--CODEGEN--\":20:32   */\n      revert\n        /* \"--CODEGEN--\":5:7   */\n    tag_179:\n        /* \"anonimity/1-ETH-Anonymity.sol\":13986:14016  uint256 public lastRewardBlock */\n      pop\n      tag_180\n      tag_181\n      jump\t// in\n    tag_180:\n      mload(0x40)\n      dup1\n      dup3\n      dup2\n      mstore\n      0x20\n      add\n      swap2\n      pop\n      pop\n      mload(0x40)\n      dup1\n      swap2\n      sub\n      swap1\n      return\n        /* \"anonimity/1-ETH-Anonymity.sol\":13645:13679  uint256 public initM87Denomination */\n    tag_35:\n      callvalue\n        /* \"--CODEGEN--\":8:17   */\n      dup1\n        /* \"--CODEGEN--\":5:7   */\n      iszero\n      tag_182\n      jumpi\n        /* \"--CODEGEN--\":30:31   */\n      0x00\n        /* \"--CODEGEN--\":27:28   */\n      dup1\n        /* \"--CODEGEN--\":20:32   */\n      revert\n        /* \"--CODEGEN--\":5:7   */\n    tag_182:\n        /* \"anonimity/1-ETH-Anonymity.sol\":13645:13679  uint256 public initM87Denomination */\n      pop\n      tag_183\n      tag_184\n      jump\t// in\n    tag_183:\n      mload(0x40)\n      dup1\n      dup3\n      dup2\n      mstore\n      0x20\n      add\n      swap2\n      pop\n      pop\n      mload(0x40)\n      dup1\n      swap2\n      sub\n      swap1\n      return\n        /* \"anonimity/1-ETH-Anonymity.sol\":20490:20589  function changeTreasury(address _newTreasury) external onlyOwner {... */\n    tag_36:\n      callvalue\n        /* \"--CODEGEN--\":8:17   */\n      dup1\n        /* \"--CODEGEN--\":5:7   */\n      iszero\n      tag_185\n      jumpi\n        /* \"--CODEGEN--\":30:31   */\n      0x00\n        /* \"--CODEGEN--\":27:28   */\n      dup1\n        /* \"--CODEGEN--\":20:32   */\n      revert\n        /* \"--CODEGEN--\":5:7   */\n    tag_185:\n        /* \"anonimity/1-ETH-Anonymity.sol\":20490:20589  function changeTreasury(address _newTreasury) external onlyOwner {... */\n      pop\n      tag_186\n      0x04\n      dup1\n      calldatasize\n      sub\n        /* \"--CODEGEN--\":13:15   */\n      0x20\n        /* \"--CODEGEN--\":8:11   */\n      dup2\n        /* \"--CODEGEN--\":5:16   */\n      lt\n        /* \"--CODEGEN--\":2:4   */\n      iszero\n      tag_187\n      jumpi\n        /* \"--CODEGEN--\":29:30   */\n      0x00\n        /* \"--CODEGEN--\":26:27   */\n      dup1\n        /* \"--CODEGEN--\":19:31   */\n      revert\n        /* \"--CODEGEN--\":2:4   */\n    tag_187:\n        /* \"anonimity/1-ETH-Anonymity.sol\":20490:20589  function changeTreasury(address _newTreasury) external onlyOwner {... */\n      dup2\n      add\n      swap1\n      dup1\n      dup1\n      calldataload\n      0xffffffffffffffffffffffffffffffffffffffff\n      and\n      swap1\n      0x20\n      add\n      swap1\n      swap3\n      swap2\n      swap1\n      pop\n      pop\n      pop\n      tag_188\n      jump\t// in\n    tag_186:\n      stop\n        /* \"anonimity/1-ETH-Anonymity.sol\":17481:18568  function deposit(bytes32 _commitment) external payable nonReentrant returns (bytes32 commitment, uint32 insertedIndex, uint256 blocktime, uint256 M87Deno, uint256 fee){... */\n    tag_37:\n      tag_189\n      0x04\n      dup1\n      calldatasize\n      sub\n        /* \"--CODEGEN--\":13:15   */\n      0x20\n        /* \"--CODEGEN--\":8:11   */\n      dup2\n        /* \"--CODEGEN--\":5:16   */\n      lt\n        /* \"--CODEGEN--\":2:4   */\n      iszero\n      tag_190\n      jumpi\n        /* \"--CODEGEN--\":29:30   */\n      0x00\n        /* \"--CODEGEN--\":26:27   */\n      dup1\n        /* \"--CODEGEN--\":19:31   */\n      revert\n        /* \"--CODEGEN--\":2:4   */\n    tag_190:\n        /* \"anonimity/1-ETH-Anonymity.sol\":17481:18568  function deposit(bytes32 _commitment) external payable nonReentrant returns (bytes32 commitment, uint32 insertedIndex, uint256 blocktime, uint256 M87Deno, uint256 fee){... */\n      dup2\n      add\n      swap1\n      dup1\n      dup1\n      calldataload\n      swap1\n      0x20\n      add\n      swap1\n      swap3\n      swap2\n      swap1\n      pop\n      pop\n      pop\n      tag_191\n      jump\t// in\n    tag_189:\n      mload(0x40)\n      dup1\n      dup7\n      dup2\n      mstore\n      0x20\n      add\n      dup6\n      0xffffffff\n      and\n      0xffffffff\n      and\n      dup2\n      mstore\n      0x20\n      add\n      dup5\n      dup2\n      mstore\n      0x20\n      add\n      dup4\n      dup2\n      mstore\n      0x20\n      add\n      dup3\n      dup2\n      mstore\n      0x20\n      add\n      swap6\n      pop\n      pop\n      pop\n      pop\n      pop\n      pop\n      mload(0x40)\n      dup1\n      swap2\n      sub\n      swap1\n      return\n        /* \"anonimity/1-ETH-Anonymity.sol\":14053:14081  uint256 public accumulateM87 */\n    tag_38:\n      callvalue\n        /* \"--CODEGEN--\":8:17   */\n      dup1\n        /* \"--CODEGEN--\":5:7   */\n      iszero\n      tag_192\n      jumpi\n        /* \"--CODEGEN--\":30:31   */\n      0x00\n        /* \"--CODEGEN--\":27:28   */\n      dup1\n        /* \"--CODEGEN--\":20:32   */\n      revert\n        /* \"--CODEGEN--\":5:7   */\n    tag_192:\n        /* \"anonimity/1-ETH-Anonymity.sol\":14053:14081  uint256 public accumulateM87 */\n      pop\n      tag_193\n      tag_194\n      jump\t// in\n    tag_193:\n      mload(0x40)\n      dup1\n      dup3\n      dup2\n      mstore\n      0x20\n      add\n      swap2\n      pop\n      pop\n      mload(0x40)\n      dup1\n      swap2\n      sub\n      swap1\n      return\n        /* \"anonimity/1-ETH-Anonymity.sol\":11133:11226  function getLastRoot() public view returns(bytes32) {... */\n    tag_39:\n      callvalue\n        /* \"--CODEGEN--\":8:17   */\n      dup1\n        /* \"--CODEGEN--\":5:7   */\n      iszero\n      tag_195\n      jumpi\n        /* \"--CODEGEN--\":30:31   */\n      0x00\n        /* \"--CODEGEN--\":27:28   */\n      dup1\n        /* \"--CODEGEN--\":20:32   */\n      revert\n        /* \"--CODEGEN--\":5:7   */\n    tag_195:\n        /* \"anonimity/1-ETH-Anonymity.sol\":11133:11226  function getLastRoot() public view returns(bytes32) {... */\n      pop\n      tag_196\n      tag_197\n      jump\t// in\n    tag_196:\n      mload(0x40)\n      dup1\n      dup3\n      dup2\n      mstore\n      0x20\n      add\n      swap2\n      pop\n      pop\n      mload(0x40)\n      dup1\n      swap2\n      sub\n      swap1\n      return\n        /* \"anonimity/1-ETH-Anonymity.sol\":8910:8949  bytes32[ROOT_HISTORY_SIZE] public roots */\n    tag_40:\n      callvalue\n        /* \"--CODEGEN--\":8:17   */\n      dup1\n        /* \"--CODEGEN--\":5:7   */\n      iszero\n      tag_198\n      jumpi\n        /* \"--CODEGEN--\":30:31   */\n      0x00\n        /* \"--CODEGEN--\":27:28   */\n      dup1\n        /* \"--CODEGEN--\":20:32   */\n      revert\n        /* \"--CODEGEN--\":5:7   */\n    tag_198:\n        /* \"anonimity/1-ETH-Anonymity.sol\":8910:8949  bytes32[ROOT_HISTORY_SIZE] public roots */\n      pop\n      tag_199\n      0x04\n      dup1\n      calldatasize\n      sub\n        /* \"--CODEGEN--\":13:15   */\n      0x20\n        /* \"--CODEGEN--\":8:11   */\n      dup2\n        /* \"--CODEGEN--\":5:16   */\n      lt\n        /* \"--CODEGEN--\":2:4   */\n      iszero\n      tag_200\n      jumpi\n        /* \"--CODEGEN--\":29:30   */\n      0x00\n        /* \"--CODEGEN--\":26:27   */\n      dup1\n        /* \"--CODEGEN--\":19:31   */\n      revert\n        /* \"--CODEGEN--\":2:4   */\n    tag_200:\n        /* \"anonimity/1-ETH-Anonymity.sol\":8910:8949  bytes32[ROOT_HISTORY_SIZE] public roots */\n      dup2\n      add\n      swap1\n      dup1\n      dup1\n      calldataload\n      swap1\n      0x20\n      add\n      swap1\n      swap3\n      swap2\n      swap1\n      pop\n      pop\n      pop\n      tag_201\n      jump\t// in\n    tag_199:\n      mload(0x40)\n      dup1\n      dup3\n      dup2\n      mstore\n      0x20\n      add\n      swap2\n      pop\n      pop\n      mload(0x40)\n      dup1\n      swap2\n      sub\n      swap1\n      return\n        /* \"anonimity/1-ETH-Anonymity.sol\":14301:14332  uint256[4] public rewardAmounts */\n    tag_41:\n      callvalue\n        /* \"--CODEGEN--\":8:17   */\n      dup1\n        /* \"--CODEGEN--\":5:7   */\n      iszero\n      tag_202\n      jumpi\n        /* \"--CODEGEN--\":30:31   */\n      0x00\n        /* \"--CODEGEN--\":27:28   */\n      dup1\n        /* \"--CODEGEN--\":20:32   */\n      revert\n        /* \"--CODEGEN--\":5:7   */\n    tag_202:\n        /* \"anonimity/1-ETH-Anonymity.sol\":14301:14332  uint256[4] public rewardAmounts */\n      pop\n      tag_203\n      0x04\n      dup1\n      calldatasize\n      sub\n        /* \"--CODEGEN--\":13:15   */\n      0x20\n        /* \"--CODEGEN--\":8:11   */\n      dup2\n        /* \"--CODEGEN--\":5:16   */\n      lt\n        /* \"--CODEGEN--\":2:4   */\n      iszero\n      tag_204\n      jumpi\n        /* \"--CODEGEN--\":29:30   */\n      0x00\n        /* \"--CODEGEN--\":26:27   */\n      dup1\n        /* \"--CODEGEN--\":19:31   */\n      revert\n        /* \"--CODEGEN--\":2:4   */\n    tag_204:\n        /* \"anonimity/1-ETH-Anonymity.sol\":14301:14332  uint256[4] public rewardAmounts */\n      dup2\n      add\n      swap1\n      dup1\n      dup1\n      calldataload\n      swap1\n      0x20\n      add\n      swap1\n      swap3\n      swap2\n      swap1\n      pop\n      pop\n      pop\n      tag_205\n      jump\t// in\n    tag_203:\n      mload(0x40)\n      dup1\n      dup3\n      dup2\n      mstore\n      0x20\n      add\n      swap2\n      pop\n      pop\n      mload(0x40)\n      dup1\n      swap2\n      sub\n      swap1\n      return\n        /* \"anonimity/1-ETH-Anonymity.sol\":20237:20380  function updateM87Token(address _newToken) external onlyOwner {... */\n    tag_42:\n      callvalue\n        /* \"--CODEGEN--\":8:17   */\n      dup1\n        /* \"--CODEGEN--\":5:7   */\n      iszero\n      tag_206\n      jumpi\n        /* \"--CODEGEN--\":30:31   */\n      0x00\n        /* \"--CODEGEN--\":27:28   */\n      dup1\n        /* \"--CODEGEN--\":20:32   */\n      revert\n        /* \"--CODEGEN--\":5:7   */\n    tag_206:\n        /* \"anonimity/1-ETH-Anonymity.sol\":20237:20380  function updateM87Token(address _newToken) external onlyOwner {... */\n      pop\n      tag_207\n      0x04\n      dup1\n      calldatasize\n      sub\n        /* \"--CODEGEN--\":13:15   */\n      0x20\n        /* \"--CODEGEN--\":8:11   */\n      dup2\n        /* \"--CODEGEN--\":5:16   */\n      lt\n        /* \"--CODEGEN--\":2:4   */\n      iszero\n      tag_208\n      jumpi\n        /* \"--CODEGEN--\":29:30   */\n      0x00\n        /* \"--CODEGEN--\":26:27   */\n      dup1\n        /* \"--CODEGEN--\":19:31   */\n      revert\n        /* \"--CODEGEN--\":2:4   */\n    tag_208:\n        /* \"anonimity/1-ETH-Anonymity.sol\":20237:20380  function updateM87Token(address _newToken) external onlyOwner {... */\n      dup2\n      add\n      swap1\n      dup1\n      dup1\n      calldataload\n      0xffffffffffffffffffffffffffffffffffffffff\n      and\n      swap1\n      0x20\n      add\n      swap1\n      swap3\n      swap2\n      swap1\n      pop\n      pop\n      pop\n      tag_209\n      jump\t// in\n    tag_207:\n      stop\n        /* \"anonimity/1-ETH-Anonymity.sol\":8860:8906  uint32 public constant ROOT_HISTORY_SIZE = 100 */\n    tag_43:\n      callvalue\n        /* \"--CODEGEN--\":8:17   */\n      dup1\n        /* \"--CODEGEN--\":5:7   */\n      iszero\n      tag_210\n      jumpi\n        /* \"--CODEGEN--\":30:31   */\n      0x00\n        /* \"--CODEGEN--\":27:28   */\n      dup1\n        /* \"--CODEGEN--\":20:32   */\n      revert\n        /* \"--CODEGEN--\":5:7   */\n    tag_210:\n        /* \"anonimity/1-ETH-Anonymity.sol\":8860:8906  uint32 public constant ROOT_HISTORY_SIZE = 100 */\n      pop\n      tag_211\n      tag_212\n      jump\t// in\n    tag_211:\n      mload(0x40)\n      dup1\n      dup3\n      0xffffffff\n      and\n      0xffffffff\n      and\n      dup2\n      mstore\n      0x20\n      add\n      swap2\n      pop\n      pop\n      mload(0x40)\n      dup1\n      swap2\n      sub\n      swap1\n      return\n        /* \"anonimity/1-ETH-Anonymity.sol\":14446:14492  uint256 public overMinEth = 250000000000000000 */\n    tag_44:\n      callvalue\n        /* \"--CODEGEN--\":8:17   */\n      dup1\n        /* \"--CODEGEN--\":5:7   */\n      iszero\n      tag_213\n      jumpi\n        /* \"--CODEGEN--\":30:31   */\n      0x00\n        /* \"--CODEGEN--\":27:28   */\n      dup1\n        /* \"--CODEGEN--\":20:32   */\n      revert\n        /* \"--CODEGEN--\":5:7   */\n    tag_213:\n        /* \"anonimity/1-ETH-Anonymity.sol\":14446:14492  uint256 public overMinEth = 250000000000000000 */\n      pop\n      tag_214\n      tag_215\n      jump\t// in\n    tag_214:\n      mload(0x40)\n      dup1\n      dup3\n      dup2\n      mstore\n      0x20\n      add\n      swap2\n      pop\n      pop\n      mload(0x40)\n      dup1\n      swap2\n      sub\n      swap1\n      return\n        /* \"anonimity/1-ETH-Anonymity.sol\":20384:20486  function changeMessierOwner(address _newOwner) external onlyOwner {... */\n    tag_45:\n      callvalue\n        /* \"--CODEGEN--\":8:17   */\n      dup1\n        /* \"--CODEGEN--\":5:7   */\n      iszero\n      tag_216\n      jumpi\n        /* \"--CODEGEN--\":30:31   */\n      0x00\n        /* \"--CODEGEN--\":27:28   */\n      dup1\n        /* \"--CODEGEN--\":20:32   */\n      revert\n        /* \"--CODEGEN--\":5:7   */\n    tag_216:\n        /* \"anonimity/1-ETH-Anonymity.sol\":20384:20486  function changeMessierOwner(address _newOwner) external onlyOwner {... */\n      pop\n      tag_217\n      0x04\n      dup1\n      calldatasize\n      sub\n        /* \"--CODEGEN--\":13:15   */\n      0x20\n        /* \"--CODEGEN--\":8:11   */\n      dup2\n        /* \"--CODEGEN--\":5:16   */\n      lt\n        /* \"--CODEGEN--\":2:4   */\n      iszero\n      tag_218\n      jumpi\n        /* \"--CODEGEN--\":29:30   */\n      0x00\n        /* \"--CODEGEN--\":26:27   */\n      dup1\n        /* \"--CODEGEN--\":19:31   */\n      revert\n        /* \"--CODEGEN--\":2:4   */\n    tag_218:\n        /* \"anonimity/1-ETH-Anonymity.sol\":20384:20486  function changeMessierOwner(address _newOwner) external onlyOwner {... */\n      dup2\n      add\n      swap1\n      dup1\n      dup1\n      calldataload\n      0xffffffffffffffffffffffffffffffffffffffff\n      and\n      swap1\n      0x20\n      add\n      swap1\n      swap3\n      swap2\n      swap1\n      pop\n      pop\n      pop\n      tag_219\n      jump\t// in\n    tag_217:\n      stop\n        /* \"anonimity/1-ETH-Anonymity.sol\":14336:14363  uint256 public collectedFee */\n    tag_46:\n      callvalue\n        /* \"--CODEGEN--\":8:17   */\n      dup1\n        /* \"--CODEGEN--\":5:7   */\n      iszero\n      tag_220\n      jumpi\n        /* \"--CODEGEN--\":30:31   */\n      0x00\n        /* \"--CODEGEN--\":27:28   */\n      dup1\n        /* \"--CODEGEN--\":20:32   */\n      revert\n        /* \"--CODEGEN--\":5:7   */\n    tag_220:\n        /* \"anonimity/1-ETH-Anonymity.sol\":14336:14363  uint256 public collectedFee */\n      pop\n      tag_221\n      tag_222\n      jump\t// in\n    tag_221:\n      mload(0x40)\n      dup1\n      dup3\n      dup2\n      mstore\n      0x20\n      add\n      swap2\n      pop\n      pop\n      mload(0x40)\n      dup1\n      swap2\n      sub\n      swap1\n      return\n        /* \"anonimity/1-ETH-Anonymity.sol\":8765:8787  bytes32[] public zeros */\n    tag_47:\n      callvalue\n        /* \"--CODEGEN--\":8:17   */\n      dup1\n        /* \"--CODEGEN--\":5:7   */\n      iszero\n      tag_223\n      jumpi\n        /* \"--CODEGEN--\":30:31   */\n      0x00\n        /* \"--CODEGEN--\":27:28   */\n      dup1\n        /* \"--CODEGEN--\":20:32   */\n      revert\n        /* \"--CODEGEN--\":5:7   */\n    tag_223:\n        /* \"anonimity/1-ETH-Anonymity.sol\":8765:8787  bytes32[] public zeros */\n      pop\n      tag_224\n      0x04\n      dup1\n      calldatasize\n      sub\n        /* \"--CODEGEN--\":13:15   */\n      0x20\n        /* \"--CODEGEN--\":8:11   */\n      dup2\n        /* \"--CODEGEN--\":5:16   */\n      lt\n        /* \"--CODEGEN--\":2:4   */\n      iszero\n      tag_225\n      jumpi\n        /* \"--CODEGEN--\":29:30   */\n      0x00\n        /* \"--CODEGEN--\":26:27   */\n      dup1\n        /* \"--CODEGEN--\":19:31   */\n      revert\n        /* \"--CODEGEN--\":2:4   */\n    tag_225:\n        /* \"anonimity/1-ETH-Anonymity.sol\":8765:8787  bytes32[] public zeros */\n      dup2\n      add\n      swap1\n      dup1\n      dup1\n      calldataload\n      swap1\n      0x20\n      add\n      swap1\n      swap3\n      swap2\n      swap1\n      pop\n      pop\n      pop\n      tag_226\n      jump\t// in\n    tag_224:\n      mload(0x40)\n      dup1\n      dup3\n      dup2\n      mstore\n      0x20\n      add\n      swap2\n      pop\n      pop\n      mload(0x40)\n      dup1\n      swap2\n      sub\n      swap1\n      return\n        /* \"anonimity/1-ETH-Anonymity.sol\":8412:8526  uint256 public constant ZERO_VALUE = 21663839004416932945382355908790599225266501822907911457504978515578255421292 */\n    tag_48:\n      callvalue\n        /* \"--CODEGEN--\":8:17   */\n      dup1\n        /* \"--CODEGEN--\":5:7   */\n      iszero\n      tag_227\n      jumpi\n        /* \"--CODEGEN--\":30:31   */\n      0x00\n        /* \"--CODEGEN--\":27:28   */\n      dup1\n        /* \"--CODEGEN--\":20:32   */\n      revert\n        /* \"--CODEGEN--\":5:7   */\n    tag_227:\n        /* \"anonimity/1-ETH-Anonymity.sol\":8412:8526  uint256 public constant ZERO_VALUE = 21663839004416932945382355908790599225266501822907911457504978515578255421292 */\n      pop\n      tag_228\n      tag_229\n      jump\t// in\n    tag_228:\n      mload(0x40)\n      dup1\n      dup3\n      dup2\n      mstore\n      0x20\n      add\n      swap2\n      pop\n      pop\n      mload(0x40)\n      dup1\n      swap2\n      sub\n      swap1\n      return\n        /* \"anonimity/1-ETH-Anonymity.sol\":14367:14405  uint256 public feeToCollectPercent = 4 */\n    tag_49:\n      callvalue\n        /* \"--CODEGEN--\":8:17   */\n      dup1\n        /* \"--CODEGEN--\":5:7   */\n      iszero\n      tag_230\n      jumpi\n        /* \"--CODEGEN--\":30:31   */\n      0x00\n        /* \"--CODEGEN--\":27:28   */\n      dup1\n        /* \"--CODEGEN--\":20:32   */\n      revert\n        /* \"--CODEGEN--\":5:7   */\n    tag_230:\n        /* \"anonimity/1-ETH-Anonymity.sol\":14367:14405  uint256 public feeToCollectPercent = 4 */\n      pop\n      tag_231\n      tag_232\n      jump\t// in\n    tag_231:\n      mload(0x40)\n      dup1\n      dup3\n      dup2\n      mstore\n      0x20\n      add\n      swap2\n      pop\n      pop\n      mload(0x40)\n      dup1\n      swap2\n      sub\n      swap1\n      return\n        /* \"anonimity/1-ETH-Anonymity.sol\":8730:8761  bytes32[] public filledSubtrees */\n    tag_50:\n      callvalue\n        /* \"--CODEGEN--\":8:17   */\n      dup1\n        /* \"--CODEGEN--\":5:7   */\n      iszero\n      tag_233\n      jumpi\n        /* \"--CODEGEN--\":30:31   */\n      0x00\n        /* \"--CODEGEN--\":27:28   */\n      dup1\n        /* \"--CODEGEN--\":20:32   */\n      revert\n        /* \"--CODEGEN--\":5:7   */\n    tag_233:\n        /* \"anonimity/1-ETH-Anonymity.sol\":8730:8761  bytes32[] public filledSubtrees */\n      pop\n      tag_234\n      0x04\n      dup1\n      calldatasize\n      sub\n        /* \"--CODEGEN--\":13:15   */\n      0x20\n        /* \"--CODEGEN--\":8:11   */\n      dup2\n        /* \"--CODEGEN--\":5:16   */\n      lt\n        /* \"--CODEGEN--\":2:4   */\n      iszero\n      tag_235\n      jumpi\n        /* \"--CODEGEN--\":29:30   */\n      0x00\n        /* \"--CODEGEN--\":26:27   */\n      dup1\n        /* \"--CODEGEN--\":19:31   */\n      revert\n        /* \"--CODEGEN--\":2:4   */\n    tag_235:\n        /* \"anonimity/1-ETH-Anonymity.sol\":8730:8761  bytes32[] public filledSubtrees */\n      dup2\n      add\n      swap1\n      dup1\n      dup1\n      calldataload\n      swap1\n      0x20\n      add\n      swap1\n      swap3\n      swap2\n      swap1\n      pop\n      pop\n      pop\n      tag_236\n      jump\t// in\n    tag_234:\n      mload(0x40)\n      dup1\n      dup3\n      dup2\n      mstore\n      0x20\n      add\n      swap2\n      pop\n      pop\n      mload(0x40)\n      dup1\n      swap2\n      sub\n      swap1\n      return\n        /* \"anonimity/1-ETH-Anonymity.sol\":23737:23873  function setDuration(uint256 _duration) public onlyOwner {... */\n    tag_51:\n      callvalue\n        /* \"--CODEGEN--\":8:17   */\n      dup1\n        /* \"--CODEGEN--\":5:7   */\n      iszero\n      tag_237\n      jumpi\n        /* \"--CODEGEN--\":30:31   */\n      0x00\n        /* \"--CODEGEN--\":27:28   */\n      dup1\n        /* \"--CODEGEN--\":20:32   */\n      revert\n        /* \"--CODEGEN--\":5:7   */\n    tag_237:\n        /* \"anonimity/1-ETH-Anonymity.sol\":23737:23873  function setDuration(uint256 _duration) public onlyOwner {... */\n      pop\n      tag_238\n      0x04\n      dup1\n      calldatasize\n      sub\n        /* \"--CODEGEN--\":13:15   */\n      0x20\n        /* \"--CODEGEN--\":8:11   */\n      dup2\n        /* \"--CODEGEN--\":5:16   */\n      lt\n        /* \"--CODEGEN--\":2:4   */\n      iszero\n      tag_239\n      jumpi\n        /* \"--CODEGEN--\":29:30   */\n      0x00\n        /* \"--CODEGEN--\":26:27   */\n      dup1\n        /* \"--CODEGEN--\":19:31   */\n      revert\n        /* \"--CODEGEN--\":2:4   */\n    tag_239:\n        /* \"anonimity/1-ETH-Anonymity.sol\":23737:23873  function setDuration(uint256 _duration) public onlyOwner {... */\n      dup2\n      add\n      swap1\n      dup1\n      dup1\n      calldataload\n      swap1\n      0x20\n      add\n      swap1\n      swap3\n      swap2\n      swap1\n      pop\n      pop\n      pop\n      tag_240\n      jump\t// in\n    tag_238:\n      stop\n        /* \"anonimity/1-ETH-Anonymity.sol\":13848:13867  IERC20 public token */\n    tag_52:\n      callvalue\n        /* \"--CODEGEN--\":8:17   */\n      dup1\n        /* \"--CODEGEN--\":5:7   */\n      iszero\n      tag_241\n      jumpi\n        /* \"--CODEGEN--\":30:31   */\n      0x00\n        /* \"--CODEGEN--\":27:28   */\n      dup1\n        /* \"--CODEGEN--\":20:32   */\n      revert\n        /* \"--CODEGEN--\":5:7   */\n    tag_241:\n        /* \"anonimity/1-ETH-Anonymity.sol\":13848:13867  IERC20 public token */\n      pop\n      tag_242\n      tag_243\n      jump\t// in\n    tag_242:\n      mload(0x40)\n      dup1\n      dup3\n      0xffffffffffffffffffffffffffffffffffffffff\n      and\n      0xffffffffffffffffffffffffffffffffffffffff\n      and\n      dup2\n      mstore\n      0x20\n      add\n      swap2\n      pop\n      pop\n      mload(0x40)\n      dup1\n      swap2\n      sub\n      swap1\n      return\n        /* \"anonimity/1-ETH-Anonymity.sol\":8829:8856  uint32 public nextIndex = 0 */\n    tag_53:\n      callvalue\n        /* \"--CODEGEN--\":8:17   */\n      dup1\n        /* \"--CODEGEN--\":5:7   */\n      iszero\n      tag_244\n      jumpi\n        /* \"--CODEGEN--\":30:31   */\n      0x00\n        /* \"--CODEGEN--\":27:28   */\n      dup1\n        /* \"--CODEGEN--\":20:32   */\n      revert\n        /* \"--CODEGEN--\":5:7   */\n    tag_244:\n        /* \"anonimity/1-ETH-Anonymity.sol\":8829:8856  uint32 public nextIndex = 0 */\n      pop\n      tag_245\n      tag_246\n      jump\t// in\n    tag_245:\n      mload(0x40)\n      dup1\n      dup3\n      0xffffffff\n      and\n      0xffffffff\n      and\n      dup2\n      mstore\n      0x20\n      add\n      swap2\n      pop\n      pop\n      mload(0x40)\n      dup1\n      swap2\n      sub\n      swap1\n      return\n        /* \"anonimity/1-ETH-Anonymity.sol\":14496:14537  IUniswapV2Router02 public uniswapV2Router */\n    tag_67:\n      0x8a\n      0x00\n      swap1\n      sload\n      swap1\n      0x0100\n      exp\n      swap1\n      div\n      0xffffffffffffffffffffffffffffffffffffffff\n      and\n      dup2\n      jump\t// out\n        /* \"anonimity/1-ETH-Anonymity.sol\":18572:20119  function withdraw(bytes calldata _proof, bytes32 _root, bytes32 _nullifierHash, address payable _recipient, address payable _relayer, uint256 _relayerFee, uint256 _refund) external payable nonReentrant {... */\n    tag_73:\n        /* \"anonimity/1-ETH-Anonymity.sol\":12855:12856  1 */\n      0x01\n        /* \"anonimity/1-ETH-Anonymity.sol\":12838:12851  _guardCounter */\n      0x68\n      0x00\n        /* \"anonimity/1-ETH-Anonymity.sol\":12838:12856  _guardCounter += 1 */\n      dup3\n      dup3\n      sload\n      add\n      swap3\n      pop\n      pop\n      dup2\n      swap1\n      sstore\n      pop\n        /* \"anonimity/1-ETH-Anonymity.sol\":12866:12886  uint256 localCounter */\n      0x00\n        /* \"anonimity/1-ETH-Anonymity.sol\":12889:12902  _guardCounter */\n      sload(0x68)\n        /* \"anonimity/1-ETH-Anonymity.sol\":12866:12902  uint256 localCounter = _guardCounter */\n      swap1\n      pop\n        /* \"anonimity/1-ETH-Anonymity.sol\":18799:18800  0 */\n      0x00\n        /* \"anonimity/1-ETH-Anonymity.sol\":18788:18795  _refund */\n      dup3\n        /* \"anonimity/1-ETH-Anonymity.sol\":18788:18800  _refund == 0 */\n      eq\n        /* \"anonimity/1-ETH-Anonymity.sol\":18780:18823  require(_refund == 0, \"refund is not zero\") */\n      tag_249\n      jumpi\n      mload(0x40)\n      0x08c379a000000000000000000000000000000000000000000000000000000000\n      dup2\n      mstore\n      0x04\n      add\n      dup1\n      dup1\n      0x20\n      add\n      dup3\n      dup2\n      sub\n      dup3\n      mstore\n      0x12\n      dup2\n      mstore\n      0x20\n      add\n      dup1\n      0x726566756e64206973206e6f74207a65726f0000000000000000000000000000\n      dup2\n      mstore\n      pop\n      0x20\n      add\n      swap2\n      pop\n      pop\n      mload(0x40)\n      dup1\n      swap2\n      sub\n      swap1\n      revert\n    tag_249:\n        /* \"anonimity/1-ETH-Anonymity.sol\":18838:18868  Address.isContract(_recipient) */\n      tag_250\n        /* \"anonimity/1-ETH-Anonymity.sol\":18857:18867  _recipient */\n      dup6\n        /* \"anonimity/1-ETH-Anonymity.sol\":18838:18856  Address.isContract */\n      tag_251\n        /* \"anonimity/1-ETH-Anonymity.sol\":18838:18868  Address.isContract(_recipient) */\n      jump\t// in\n    tag_250:\n        /* \"anonimity/1-ETH-Anonymity.sol\":18837:18868  !Address.isContract(_recipient) */\n      iszero\n        /* \"anonimity/1-ETH-Anonymity.sol\":18829:18904  require(!Address.isContract(_recipient), \"recipient of cannot be contract\") */\n      tag_252\n      jumpi\n      mload(0x40)\n      0x08c379a000000000000000000000000000000000000000000000000000000000\n      dup2\n      mstore\n      0x04\n      add\n      dup1\n      dup1\n      0x20\n      add\n      dup3\n      dup2\n      sub\n      dup3\n      mstore\n      0x1f\n      dup2\n      mstore\n      0x20\n      add\n      dup1\n      0x726563697069656e74206f662063616e6e6f7420626520636f6e747261637400\n      dup2\n      mstore\n      pop\n      0x20\n      add\n      swap2\n      pop\n      pop\n      mload(0x40)\n      dup1\n      swap2\n      sub\n      swap1\n      revert\n    tag_252:\n        /* \"anonimity/1-ETH-Anonymity.sol\":18918:18936  isKnownRoot(_root) */\n      tag_253\n        /* \"anonimity/1-ETH-Anonymity.sol\":18930:18935  _root */\n      dup8\n        /* \"anonimity/1-ETH-Anonymity.sol\":18918:18929  isKnownRoot */\n      tag_144\n        /* \"anonimity/1-ETH-Anonymity.sol\":18918:18936  isKnownRoot(_root) */\n      jump\t// in\n    tag_253:\n        /* \"anonimity/1-ETH-Anonymity.sol\":18910:18969  require(isKnownRoot(_root), \"Cannot find your merkle root\") */\n      tag_254\n      jumpi\n      mload(0x40)\n      0x08c379a000000000000000000000000000000000000000000000000000000000\n      dup2\n      mstore\n      0x04\n      add\n      dup1\n      dup1\n      0x20\n      add\n      dup3\n      dup2\n      sub\n      dup3\n      mstore\n      0x1c\n      dup2\n      mstore\n      0x20\n      add\n      dup1\n      0x43616e6e6f742066696e6420796f7572206d65726b6c6520726f6f7400000000\n      dup2\n      mstore\n      pop\n      0x20\n      add\n      swap2\n      pop\n      pop\n      mload(0x40)\n      dup1\n      swap2\n      sub\n      swap1\n      revert\n    tag_254:\n        /* \"anonimity/1-ETH-Anonymity.sol\":19016:19024  verifier */\n      0x6d\n      0x00\n      swap1\n      sload\n      swap1\n      0x0100\n      exp\n      swap1\n      div\n      0xffffffffffffffffffffffffffffffffffffffff\n      and\n        /* \"anonimity/1-ETH-Anonymity.sol\":19016:19036  verifier.verifyProof */\n      0xffffffffffffffffffffffffffffffffffffffff\n      and\n      0x695ef6f9\n        /* \"anonimity/1-ETH-Anonymity.sol\":19037:19043  _proof */\n      dup11\n      dup11\n        /* \"anonimity/1-ETH-Anonymity.sol\":19016:19149  verifier.verifyProof(_proof, [uint256(_root), uint256(_nullifierHash), uint256(_recipient), uint256(_relayer), _relayerFee, _refund]) */\n      mload(0x40)\n      dup1\n      0xc0\n      add\n      0x40\n      mstore\n      dup1\n        /* \"anonimity/1-ETH-Anonymity.sol\":19054:19059  _root */\n      dup13\n        /* \"anonimity/1-ETH-Anonymity.sol\":19046:19060  uint256(_root) */\n      0x00\n      shr\n        /* \"anonimity/1-ETH-Anonymity.sol\":19016:19149  verifier.verifyProof(_proof, [uint256(_root), uint256(_nullifierHash), uint256(_recipient), uint256(_relayer), _relayerFee, _refund]) */\n      dup2\n      mstore\n      0x20\n      add\n        /* \"anonimity/1-ETH-Anonymity.sol\":19070:19084  _nullifierHash */\n      dup12\n        /* \"anonimity/1-ETH-Anonymity.sol\":19062:19085  uint256(_nullifierHash) */\n      0x00\n      shr\n        /* \"anonimity/1-ETH-Anonymity.sol\":19016:19149  verifier.verifyProof(_proof, [uint256(_root), uint256(_nullifierHash), uint256(_recipient), uint256(_relayer), _relayerFee, _refund]) */\n      dup2\n      mstore\n      0x20\n      add\n        /* \"anonimity/1-ETH-Anonymity.sol\":19095:19105  _recipient */\n      dup11\n        /* \"anonimity/1-ETH-Anonymity.sol\":19087:19106  uint256(_recipient) */\n      0xffffffffffffffffffffffffffffffffffffffff\n      and\n        /* \"anonimity/1-ETH-Anonymity.sol\":19016:19149  verifier.verifyProof(_proof, [uint256(_root), uint256(_nullifierHash), uint256(_recipient), uint256(_relayer), _relayerFee, _refund]) */\n      dup2\n      mstore\n      0x20\n      add\n        /* \"anonimity/1-ETH-Anonymity.sol\":19116:19124  _relayer */\n      dup10\n        /* \"anonimity/1-ETH-Anonymity.sol\":19108:19125  uint256(_relayer) */\n      0xffffffffffffffffffffffffffffffffffffffff\n      and\n        /* \"anonimity/1-ETH-Anonymity.sol\":19016:19149  verifier.verifyProof(_proof, [uint256(_root), uint256(_nullifierHash), uint256(_recipient), uint256(_relayer), _relayerFee, _refund]) */\n      dup2\n      mstore\n      0x20\n      add\n        /* \"anonimity/1-ETH-Anonymity.sol\":19127:19138  _relayerFee */\n      dup9\n        /* \"anonimity/1-ETH-Anonymity.sol\":19016:19149  verifier.verifyProof(_proof, [uint256(_root), uint256(_nullifierHash), uint256(_recipient), uint256(_relayer), _relayerFee, _refund]) */\n      dup2\n      mstore\n      0x20\n      add\n        /* \"anonimity/1-ETH-Anonymity.sol\":19140:19147  _refund */\n      dup8\n        /* \"anonimity/1-ETH-Anonymity.sol\":19016:19149  verifier.verifyProof(_proof, [uint256(_root), uint256(_nullifierHash), uint256(_recipient), uint256(_relayer), _relayerFee, _refund]) */\n      dup2\n      mstore\n      pop\n      mload(0x40)\n      dup5\n      0xffffffff\n      and\n      0xe0\n      shl\n      dup2\n      mstore\n      0x04\n      add\n      dup1\n      dup1\n      0x20\n      add\n      dup4\n      mul(0x20, 0x06)\n      dup1\n      dup4\n      dup4\n        /* \"--CODEGEN--\":23:24   */\n      0x00\n        /* \"--CODEGEN--\":8:108   */\n    tag_255:\n        /* \"--CODEGEN--\":33:36   */\n      dup4\n        /* \"--CODEGEN--\":30:31   */\n      dup2\n        /* \"--CODEGEN--\":27:37   */\n      lt\n        /* \"--CODEGEN--\":8:108   */\n      iszero\n      tag_257\n      jumpi\n        /* \"--CODEGEN--\":99:100   */\n      dup1\n        /* \"--CODEGEN--\":94:97   */\n      dup3\n        /* \"--CODEGEN--\":90:101   */\n      add\n        /* \"--CODEGEN--\":84:102   */\n      mload\n        /* \"--CODEGEN--\":80:81   */\n      dup2\n        /* \"--CODEGEN--\":75:78   */\n      dup5\n        /* \"--CODEGEN--\":71:82   */\n      add\n        /* \"--CODEGEN--\":64:103   */\n      mstore\n        /* \"--CODEGEN--\":52:54   */\n      0x20\n        /* \"--CODEGEN--\":49:50   */\n      dup2\n        /* \"--CODEGEN--\":45:55   */\n      add\n        /* \"--CODEGEN--\":40:55   */\n      swap1\n      pop\n        /* \"--CODEGEN--\":8:108   */\n      jump(tag_255)\n    tag_257:\n        /* \"--CODEGEN--\":12:26   */\n      pop\n        /* \"anonimity/1-ETH-Anonymity.sol\":19016:19149  verifier.verifyProof(_proof, [uint256(_root), uint256(_nullifierHash), uint256(_recipient), uint256(_relayer), _relayerFee, _refund]) */\n      pop\n      pop\n      pop\n      swap1\n      pop\n      add\n      dup3\n      dup2\n      sub\n      dup3\n      mstore\n      dup6\n      dup6\n      dup3\n      dup2\n      dup2\n      mstore\n      0x20\n      add\n      swap3\n      pop\n        /* \"--CODEGEN--\":30:33   */\n      dup1\n        /* \"--CODEGEN--\":22:28   */\n      dup3\n        /* \"--CODEGEN--\":14:20   */\n      dup5\n        /* \"--CODEGEN--\":1:34   */\n      calldatacopy\n        /* \"--CODEGEN--\":99:100   */\n      0x00\n        /* \"--CODEGEN--\":93:96   */\n      dup2\n        /* \"--CODEGEN--\":85:91   */\n      dup5\n        /* \"--CODEGEN--\":81:97   */\n      add\n        /* \"--CODEGEN--\":74:101   */\n      mstore\n        /* \"--CODEGEN--\":137:141   */\n      0x1f\n        /* \"--CODEGEN--\":133:142   */\n      not\n        /* \"--CODEGEN--\":126:130   */\n      0x1f\n        /* \"--CODEGEN--\":121:124   */\n      dup3\n        /* \"--CODEGEN--\":117:131   */\n      add\n        /* \"--CODEGEN--\":113:143   */\n      and\n        /* \"--CODEGEN--\":106:143   */\n      swap1\n      pop\n        /* \"--CODEGEN--\":169:172   */\n      dup1\n        /* \"--CODEGEN--\":161:167   */\n      dup4\n        /* \"--CODEGEN--\":157:173   */\n      add\n        /* \"--CODEGEN--\":147:173   */\n      swap3\n      pop\n        /* \"anonimity/1-ETH-Anonymity.sol\":19016:19149  verifier.verifyProof(_proof, [uint256(_root), uint256(_nullifierHash), uint256(_recipient), uint256(_relayer), _relayerFee, _refund]) */\n      pop\n      pop\n      swap5\n      pop\n      pop\n      pop\n      pop\n      pop\n      0x20\n      mload(0x40)\n      dup1\n      dup4\n      sub\n      dup2\n      0x00\n      dup8\n      dup1\n      extcodesize\n      iszero\n        /* \"--CODEGEN--\":8:17   */\n      dup1\n        /* \"--CODEGEN--\":5:7   */\n      iszero\n      tag_258\n      jumpi\n        /* \"--CODEGEN--\":30:31   */\n      0x00\n        /* \"--CODEGEN--\":27:28   */\n      dup1\n        /* \"--CODEGEN--\":20:32   */\n      revert\n        /* \"--CODEGEN--\":5:7   */\n    tag_258:\n        /* \"anonimity/1-ETH-Anonymity.sol\":19016:19149  verifier.verifyProof(_proof, [uint256(_root), uint256(_nullifierHash), uint256(_recipient), uint256(_relayer), _relayerFee, _refund]) */\n      pop\n      gas\n      call\n      iszero\n        /* \"--CODEGEN--\":8:17   */\n      dup1\n        /* \"--CODEGEN--\":5:7   */\n      iszero\n      tag_259\n      jumpi\n        /* \"--CODEGEN--\":45:61   */\n      returndatasize\n        /* \"--CODEGEN--\":42:43   */\n      0x00\n        /* \"--CODEGEN--\":39:40   */\n      dup1\n        /* \"--CODEGEN--\":24:62   */\n      returndatacopy\n        /* \"--CODEGEN--\":77:93   */\n      returndatasize\n        /* \"--CODEGEN--\":74:75   */\n      0x00\n        /* \"--CODEGEN--\":67:94   */\n      revert\n        /* \"--CODEGEN--\":5:7   */\n    tag_259:\n        /* \"anonimity/1-ETH-Anonymity.sol\":19016:19149  verifier.verifyProof(_proof, [uint256(_root), uint256(_nullifierHash), uint256(_recipient), uint256(_relayer), _relayerFee, _refund]) */\n      pop\n      pop\n      pop\n      pop\n      mload(0x40)\n      returndatasize\n        /* \"--CODEGEN--\":13:15   */\n      0x20\n        /* \"--CODEGEN--\":8:11   */\n      dup2\n        /* \"--CODEGEN--\":5:16   */\n      lt\n        /* \"--CODEGEN--\":2:4   */\n      iszero\n      tag_260\n      jumpi\n        /* \"--CODEGEN--\":29:30   */\n      0x00\n        /* \"--CODEGEN--\":26:27   */\n      dup1\n        /* \"--CODEGEN--\":19:31   */\n      revert\n        /* \"--CODEGEN--\":2:4   */\n    tag_260:\n        /* \"anonimity/1-ETH-Anonymity.sol\":19016:19149  verifier.verifyProof(_proof, [uint256(_root), uint256(_nullifierHash), uint256(_recipient), uint256(_relayer), _relayerFee, _refund]) */\n      dup2\n      add\n      swap1\n      dup1\n      dup1\n      mload\n      swap1\n      0x20\n      add\n      swap1\n      swap3\n      swap2\n      swap1\n      pop\n      pop\n      pop\n        /* \"anonimity/1-ETH-Anonymity.sol\":19008:19176  require(verifier.verifyProof(_proof, [uint256(_root), uint256(_nullifierHash), uint256(_recipient), uint256(_relayer), _relayerFee, _refund]), \"Invalid withdraw proof\") */\n      tag_261\n      jumpi\n      mload(0x40)\n      0x08c379a000000000000000000000000000000000000000000000000000000000\n      dup2\n      mstore\n      0x04\n      add\n      dup1\n      dup1\n      0x20\n      add\n      dup3\n      dup2\n      sub\n      dup3\n      mstore\n      0x16\n      dup2\n      mstore\n      0x20\n      add\n      dup1\n      0x496e76616c69642077697468647261772070726f6f6600000000000000000000\n      dup2\n      mstore\n      pop\n      0x20\n      add\n      swap2\n      pop\n      pop\n      mload(0x40)\n      dup1\n      swap2\n      sub\n      swap1\n      revert\n    tag_261:\n        /* \"anonimity/1-ETH-Anonymity.sol\":19183:19191  verifier */\n      0x6d\n      0x00\n      swap1\n      sload\n      swap1\n      0x0100\n      exp\n      swap1\n      div\n      0xffffffffffffffffffffffffffffffffffffffff\n      and\n        /* \"anonimity/1-ETH-Anonymity.sol\":19183:19207  verifier.verifyNullifier */\n      0xffffffffffffffffffffffffffffffffffffffff\n      and\n      0x32ab8c92\n        /* \"anonimity/1-ETH-Anonymity.sol\":19208:19222  _nullifierHash */\n      dup8\n        /* \"anonimity/1-ETH-Anonymity.sol\":19183:19223  verifier.verifyNullifier(_nullifierHash) */\n      mload(0x40)\n      dup3\n      0xffffffff\n      and\n      0xe0\n      shl\n      dup2\n      mstore\n      0x04\n      add\n      dup1\n      dup3\n      dup2\n      mstore\n      0x20\n      add\n      swap2\n      pop\n      pop\n      0x00\n      mload(0x40)\n      dup1\n      dup4\n      sub\n      dup2\n      0x00\n      dup8\n      dup1\n      extcodesize\n      iszero\n        /* \"--CODEGEN--\":8:17   */\n      dup1\n        /* \"--CODEGEN--\":5:7   */\n      iszero\n      tag_262\n      jumpi\n        /* \"--CODEGEN--\":30:31   */\n      0x00\n        /* \"--CODEGEN--\":27:28   */\n      dup1\n        /* \"--CODEGEN--\":20:32   */\n      revert\n        /* \"--CODEGEN--\":5:7   */\n    tag_262:\n        /* \"anonimity/1-ETH-Anonymity.sol\":19183:19223  verifier.verifyNullifier(_nullifierHash) */\n      pop\n      gas\n      call\n      iszero\n        /* \"--CODEGEN--\":8:17   */\n      dup1\n        /* \"--CODEGEN--\":5:7   */\n      iszero\n      tag_263\n      jumpi\n        /* \"--CODEGEN--\":45:61   */\n      returndatasize\n        /* \"--CODEGEN--\":42:43   */\n      0x00\n        /* \"--CODEGEN--\":39:40   */\n      dup1\n        /* \"--CODEGEN--\":24:62   */\n      returndatacopy\n        /* \"--CODEGEN--\":77:93   */\n      returndatasize\n        /* \"--CODEGEN--\":74:75   */\n      0x00\n        /* \"--CODEGEN--\":67:94   */\n      revert\n        /* \"--CODEGEN--\":5:7   */\n    tag_263:\n        /* \"anonimity/1-ETH-Anonymity.sol\":19183:19223  verifier.verifyNullifier(_nullifierHash) */\n      pop\n      pop\n      pop\n      pop\n        /* \"anonimity/1-ETH-Anonymity.sol\":19229:19239  uint256 td */\n      0x00\n        /* \"anonimity/1-ETH-Anonymity.sol\":19242:19259  tokenDenomination */\n      sload(0x69)\n        /* \"anonimity/1-ETH-Anonymity.sol\":19229:19259  uint256 td = tokenDenomination */\n      swap1\n      pop\n        /* \"anonimity/1-ETH-Anonymity.sol\":19274:19275  0 */\n      0x00\n        /* \"anonimity/1-ETH-Anonymity.sol\":19269:19271  td */\n      dup2\n        /* \"anonimity/1-ETH-Anonymity.sol\":19269:19275  td > 0 */\n      gt\n        /* \"anonimity/1-ETH-Anonymity.sol\":19265:19327  if (td > 0) {... */\n      iszero\n      tag_264\n      jumpi\n        /* \"anonimity/1-ETH-Anonymity.sol\":19285:19320  safeTransfer(token, _recipient, td) */\n      tag_265\n        /* \"anonimity/1-ETH-Anonymity.sol\":19298:19303  token */\n      0x6e\n      0x00\n      swap1\n      sload\n      swap1\n      0x0100\n      exp\n      swap1\n      div\n      0xffffffffffffffffffffffffffffffffffffffff\n      and\n        /* \"anonimity/1-ETH-Anonymity.sol\":19305:19315  _recipient */\n      dup8\n        /* \"anonimity/1-ETH-Anonymity.sol\":19317:19319  td */\n      dup4\n        /* \"anonimity/1-ETH-Anonymity.sol\":19285:19297  safeTransfer */\n      tag_266\n        /* \"anonimity/1-ETH-Anonymity.sol\":19285:19320  safeTransfer(token, _recipient, td) */\n      jump\t// in\n    tag_265:\n        /* \"anonimity/1-ETH-Anonymity.sol\":19265:19327  if (td > 0) {... */\n    tag_264:\n        /* \"anonimity/1-ETH-Anonymity.sol\":19332:19351  updateBlockReward() */\n      tag_267\n        /* \"anonimity/1-ETH-Anonymity.sol\":19332:19349  updateBlockReward */\n      tag_161\n        /* \"anonimity/1-ETH-Anonymity.sol\":19332:19351  updateBlockReward() */\n      jump\t// in\n    tag_267:\n        /* \"anonimity/1-ETH-Anonymity.sol\":19357:19375  uint256 relayerFee */\n      0x00\n        /* \"anonimity/1-ETH-Anonymity.sol\":19378:19379  0 */\n      dup1\n        /* \"anonimity/1-ETH-Anonymity.sol\":19357:19379  uint256 relayerFee = 0 */\n      swap1\n      pop\n        /* \"anonimity/1-ETH-Anonymity.sol\":19428:19443  uint256 M87Deno */\n      0x00\n        /* \"anonimity/1-ETH-Anonymity.sol\":19446:19481  getAccumulateM87().div(numOfShares) */\n      tag_268\n        /* \"anonimity/1-ETH-Anonymity.sol\":19469:19480  numOfShares */\n      sload(0x72)\n        /* \"anonimity/1-ETH-Anonymity.sol\":19446:19464  getAccumulateM87() */\n      tag_269\n        /* \"anonimity/1-ETH-Anonymity.sol\":19446:19462  getAccumulateM87 */\n      tag_171\n        /* \"anonimity/1-ETH-Anonymity.sol\":19446:19464  getAccumulateM87() */\n      jump\t// in\n    tag_269:\n        /* \"anonimity/1-ETH-Anonymity.sol\":19446:19468  getAccumulateM87().div */\n      tag_270\n      swap1\n        /* \"anonimity/1-ETH-Anonymity.sol\":19446:19481  getAccumulateM87().div(numOfShares) */\n      swap2\n      swap1\n      0xffffffff\n      and\n      jump\t// in\n    tag_268:\n        /* \"anonimity/1-ETH-Anonymity.sol\":19428:19481  uint256 M87Deno = getAccumulateM87().div(numOfShares) */\n      swap1\n      pop\n        /* \"anonimity/1-ETH-Anonymity.sol\":19501:19502  0 */\n      0x00\n        /* \"anonimity/1-ETH-Anonymity.sol\":19491:19498  M87Deno */\n      dup2\n        /* \"anonimity/1-ETH-Anonymity.sol\":19491:19502  M87Deno > 0 */\n      gt\n        /* \"anonimity/1-ETH-Anonymity.sol\":19487:19594  if (M87Deno > 0) {... */\n      iszero\n      tag_271\n      jumpi\n        /* \"anonimity/1-ETH-Anonymity.sol\":19529:19536  M87Deno */\n      dup1\n        /* \"anonimity/1-ETH-Anonymity.sol\":19512:19525  accumulateM87 */\n      0x75\n      0x00\n        /* \"anonimity/1-ETH-Anonymity.sol\":19512:19536  accumulateM87 -= M87Deno */\n      dup3\n      dup3\n      sload\n      sub\n      swap3\n      pop\n      pop\n      dup2\n      swap1\n      sstore\n      pop\n        /* \"anonimity/1-ETH-Anonymity.sol\":19544:19587  safeTransfer(M87Token, _recipient, M87Deno) */\n      tag_272\n        /* \"anonimity/1-ETH-Anonymity.sol\":19557:19565  M87Token */\n      0x6f\n      0x00\n      swap1\n      sload\n      swap1\n      0x0100\n      exp\n      swap1\n      div\n      0xffffffffffffffffffffffffffffffffffffffff\n      and\n        /* \"anonimity/1-ETH-Anonymity.sol\":19567:19577  _recipient */\n      dup10\n        /* \"anonimity/1-ETH-Anonymity.sol\":19579:19586  M87Deno */\n      dup4\n        /* \"anonimity/1-ETH-Anonymity.sol\":19544:19556  safeTransfer */\n      tag_266\n        /* \"anonimity/1-ETH-Anonymity.sol\":19544:19587  safeTransfer(M87Token, _recipient, M87Deno) */\n      jump\t// in\n    tag_272:\n        /* \"anonimity/1-ETH-Anonymity.sol\":19487:19594  if (M87Deno > 0) {... */\n    tag_271:\n        /* \"anonimity/1-ETH-Anonymity.sol\":19599:19609  uint256 cd */\n      0x00\n        /* \"anonimity/1-ETH-Anonymity.sol\":19631:19649  feeToCollectAmount */\n      sload(0x88)\n        /* \"anonimity/1-ETH-Anonymity.sol\":19612:19628  coinDenomination */\n      sload(0x6a)\n        /* \"anonimity/1-ETH-Anonymity.sol\":19612:19649  coinDenomination - feeToCollectAmount */\n      sub\n        /* \"anonimity/1-ETH-Anonymity.sol\":19599:19649  uint256 cd = coinDenomination - feeToCollectAmount */\n      swap1\n      pop\n        /* \"anonimity/1-ETH-Anonymity.sol\":19673:19675  cd */\n      dup1\n        /* \"anonimity/1-ETH-Anonymity.sol\":19659:19670  _relayerFee */\n      dup8\n        /* \"anonimity/1-ETH-Anonymity.sol\":19659:19675  _relayerFee > cd */\n      gt\n        /* \"anonimity/1-ETH-Anonymity.sol\":19655:19708  if (_relayerFee > cd) {... */\n      iszero\n      tag_273\n      jumpi\n        /* \"anonimity/1-ETH-Anonymity.sol\":19699:19701  cd */\n      dup1\n        /* \"anonimity/1-ETH-Anonymity.sol\":19685:19701  _relayerFee = cd */\n      swap7\n      pop\n        /* \"anonimity/1-ETH-Anonymity.sol\":19655:19708  if (_relayerFee > cd) {... */\n    tag_273:\n        /* \"anonimity/1-ETH-Anonymity.sol\":19731:19732  0 */\n      0x00\n        /* \"anonimity/1-ETH-Anonymity.sol\":19717:19728  _relayerFee */\n      dup8\n        /* \"anonimity/1-ETH-Anonymity.sol\":19717:19732  _relayerFee > 0 */\n      gt\n        /* \"anonimity/1-ETH-Anonymity.sol\":19713:19882  if (_relayerFee > 0) {... */\n      iszero\n      tag_274\n      jumpi\n        /* \"anonimity/1-ETH-Anonymity.sol\":19743:19755  bool success */\n      0x00\n        /* \"anonimity/1-ETH-Anonymity.sol\":19760:19768  _relayer */\n      dup9\n        /* \"anonimity/1-ETH-Anonymity.sol\":19760:19773  _relayer.call */\n      0xffffffffffffffffffffffffffffffffffffffff\n      and\n        /* \"anonimity/1-ETH-Anonymity.sol\":19780:19791  _relayerFee */\n      dup9\n        /* \"anonimity/1-ETH-Anonymity.sol\":19760:19796  _relayer.call.value(_relayerFee)(\"\") */\n      mload(0x40)\n      dup1\n      0x00\n      add\n      swap1\n      pop\n      0x00\n      mload(0x40)\n      dup1\n      dup4\n      sub\n      dup2\n      dup6\n      dup8\n      gas\n      call\n      swap3\n      pop\n      pop\n      pop\n      returndatasize\n        /* \"--CODEGEN--\":14:15   */\n      dup1\n        /* \"--CODEGEN--\":21:22   */\n      0x00\n        /* \"--CODEGEN--\":16:47   */\n      dup2\n      eq\n      tag_276\n      jumpi\n        /* \"--CODEGEN--\":75:79   */\n      0x40\n        /* \"--CODEGEN--\":69:80   */\n      mload\n        /* \"--CODEGEN--\":64:80   */\n      swap2\n      pop\n        /* \"--CODEGEN--\":144:148   */\n      0x1f\n        /* \"--CODEGEN--\":140:149   */\n      not\n        /* \"--CODEGEN--\":133:137   */\n      0x3f\n        /* \"--CODEGEN--\":115:131   */\n      returndatasize\n        /* \"--CODEGEN--\":111:138   */\n      add\n        /* \"--CODEGEN--\":107:150   */\n      and\n        /* \"--CODEGEN--\":104:105   */\n      dup3\n        /* \"--CODEGEN--\":100:151   */\n      add\n        /* \"--CODEGEN--\":94:98   */\n      0x40\n        /* \"--CODEGEN--\":87:152   */\n      mstore\n        /* \"--CODEGEN--\":169:185   */\n      returndatasize\n        /* \"--CODEGEN--\":166:167   */\n      dup3\n        /* \"--CODEGEN--\":159:186   */\n      mstore\n        /* \"--CODEGEN--\":225:241   */\n      returndatasize\n        /* \"--CODEGEN--\":222:223   */\n      0x00\n        /* \"--CODEGEN--\":215:219   */\n      0x20\n        /* \"--CODEGEN--\":212:213   */\n      dup5\n        /* \"--CODEGEN--\":208:220   */\n      add\n        /* \"--CODEGEN--\":193:242   */\n      returndatacopy\n        /* \"--CODEGEN--\":7:249   */\n      jump(tag_275)\n        /* \"--CODEGEN--\":16:47   */\n    tag_276:\n        /* \"--CODEGEN--\":36:40   */\n      0x60\n        /* \"--CODEGEN--\":31:40   */\n      swap2\n      pop\n        /* \"--CODEGEN--\":7:249   */\n    tag_275:\n      pop\n        /* \"anonimity/1-ETH-Anonymity.sol\":19742:19796  (bool success,) = _relayer.call.value(_relayerFee)(\"\") */\n      pop\n      swap1\n      pop\n        /* \"anonimity/1-ETH-Anonymity.sol\":19812:19819  success */\n      dup1\n        /* \"anonimity/1-ETH-Anonymity.sol\":19804:19850  require(success, \"failed to send relayer fee\") */\n      tag_277\n      jumpi\n      mload(0x40)\n      0x08c379a000000000000000000000000000000000000000000000000000000000\n      dup2\n      mstore\n      0x04\n      add\n      dup1\n      dup1\n      0x20\n      add\n      dup3\n      dup2\n      sub\n      dup3\n      mstore\n      0x1a\n      dup2\n      mstore\n      0x20\n      add\n      dup1\n      0x6661696c656420746f2073656e642072656c6179657220666565000000000000\n      dup2\n      mstore\n      pop\n      0x20\n      add\n      swap2\n      pop\n      pop\n      mload(0x40)\n      dup1\n      swap2\n      sub\n      swap1\n      revert\n    tag_277:\n        /* \"anonimity/1-ETH-Anonymity.sol\":19864:19875  _relayerFee */\n      dup8\n        /* \"anonimity/1-ETH-Anonymity.sol\":19858:19875  cd -= _relayerFee */\n      dup3\n      sub\n      swap2\n      pop\n        /* \"anonimity/1-ETH-Anonymity.sol\":19713:19882  if (_relayerFee > 0) {... */\n      pop\n    tag_274:\n        /* \"anonimity/1-ETH-Anonymity.sol\":19896:19897  0 */\n      0x00\n        /* \"anonimity/1-ETH-Anonymity.sol\":19891:19893  cd */\n      dup2\n        /* \"anonimity/1-ETH-Anonymity.sol\":19891:19897  cd > 0 */\n      gt\n        /* \"anonimity/1-ETH-Anonymity.sol\":19887:20012  if (cd > 0) {... */\n      iszero\n      tag_278\n      jumpi\n        /* \"anonimity/1-ETH-Anonymity.sol\":19908:19920  bool success */\n      0x00\n        /* \"anonimity/1-ETH-Anonymity.sol\":19925:19935  _recipient */\n      dup10\n        /* \"anonimity/1-ETH-Anonymity.sol\":19925:19940  _recipient.call */\n      0xffffffffffffffffffffffffffffffffffffffff\n      and\n        /* \"anonimity/1-ETH-Anonymity.sol\":19947:19949  cd */\n      dup3\n        /* \"anonimity/1-ETH-Anonymity.sol\":19925:19954  _recipient.call.value(cd)(\"\") */\n      mload(0x40)\n      dup1\n      0x00\n      add\n      swap1\n      pop\n      0x00\n      mload(0x40)\n      dup1\n      dup4\n      sub\n      dup2\n      dup6\n      dup8\n      gas\n      call\n      swap3\n      pop\n      pop\n      pop\n      returndatasize\n        /* \"--CODEGEN--\":14:15   */\n      dup1\n        /* \"--CODEGEN--\":21:22   */\n      0x00\n        /* \"--CODEGEN--\":16:47   */\n      dup2\n      eq\n      tag_280\n      jumpi\n        /* \"--CODEGEN--\":75:79   */\n      0x40\n        /* \"--CODEGEN--\":69:80   */\n      mload\n        /* \"--CODEGEN--\":64:80   */\n      swap2\n      pop\n        /* \"--CODEGEN--\":144:148   */\n      0x1f\n        /* \"--CODEGEN--\":140:149   */\n      not\n        /* \"--CODEGEN--\":133:137   */\n      0x3f\n        /* \"--CODEGEN--\":115:131   */\n      returndatasize\n        /* \"--CODEGEN--\":111:138   */\n      add\n        /* \"--CODEGEN--\":107:150   */\n      and\n        /* \"--CODEGEN--\":104:105   */\n      dup3\n        /* \"--CODEGEN--\":100:151   */\n      add\n        /* \"--CODEGEN--\":94:98   */\n      0x40\n        /* \"--CODEGEN--\":87:152   */\n      mstore\n        /* \"--CODEGEN--\":169:185   */\n      returndatasize\n        /* \"--CODEGEN--\":166:167   */\n      dup3\n        /* \"--CODEGEN--\":159:186   */\n      mstore\n        /* \"--CODEGEN--\":225:241   */\n      returndatasize\n        /* \"--CODEGEN--\":222:223   */\n      0x00\n        /* \"--CODEGEN--\":215:219   */\n      0x20\n        /* \"--CODEGEN--\":212:213   */\n      dup5\n        /* \"--CODEGEN--\":208:220   */\n      add\n        /* \"--CODEGEN--\":193:242   */\n      returndatacopy\n        /* \"--CODEGEN--\":7:249   */\n      jump(tag_279)\n        /* \"--CODEGEN--\":16:47   */\n    tag_280:\n        /* \"--CODEGEN--\":36:40   */\n      0x60\n        /* \"--CODEGEN--\":31:40   */\n      swap2\n      pop\n        /* \"--CODEGEN--\":7:249   */\n    tag_279:\n      pop\n        /* \"anonimity/1-ETH-Anonymity.sol\":19907:19954  (bool success,) = _recipient.call.value(cd)(\"\") */\n      pop\n      swap1\n      pop\n        /* \"anonimity/1-ETH-Anonymity.sol\":19970:19977  success */\n      dup1\n        /* \"anonimity/1-ETH-Anonymity.sol\":19962:20005  require(success, \"failed to withdraw coin\") */\n      tag_281\n      jumpi\n      mload(0x40)\n      0x08c379a000000000000000000000000000000000000000000000000000000000\n      dup2\n      mstore\n      0x04\n      add\n      dup1\n      dup1\n      0x20\n      add\n      dup3\n      dup2\n      sub\n      dup3\n      mstore\n      0x17\n      dup2\n      mstore\n      0x20\n      add\n      dup1\n      0x6661696c656420746f20776974686472617720636f696e000000000000000000\n      dup2\n      mstore\n      pop\n      0x20\n      add\n      swap2\n      pop\n      pop\n      mload(0x40)\n      dup1\n      swap2\n      sub\n      swap1\n      revert\n    tag_281:\n        /* \"anonimity/1-ETH-Anonymity.sol\":19887:20012  if (cd > 0) {... */\n      pop\n    tag_278:\n        /* \"anonimity/1-ETH-Anonymity.sol\":20032:20033  1 */\n      0x01\n        /* \"anonimity/1-ETH-Anonymity.sol\":20017:20028  numOfShares */\n      0x72\n      0x00\n        /* \"anonimity/1-ETH-Anonymity.sol\":20017:20033  numOfShares -= 1 */\n      dup3\n      dup3\n      sload\n      sub\n      swap3\n      pop\n      pop\n      dup2\n      swap1\n      sstore\n      pop\n        /* \"anonimity/1-ETH-Anonymity.sol\":20084:20092  _relayer */\n      dup8\n        /* \"anonimity/1-ETH-Anonymity.sol\":20045:20114  Withdrawal(_recipient, _nullifierHash, _relayer, M87Deno, relayerFee) */\n      0xffffffffffffffffffffffffffffffffffffffff\n      and\n      0x6d7aac54bd3d1c91db3b1fd7b8d6cb45324ad6b5e373c0f0ea4d7b2606c4c2c8\n        /* \"anonimity/1-ETH-Anonymity.sol\":20056:20066  _recipient */\n      dup11\n        /* \"anonimity/1-ETH-Anonymity.sol\":20068:20082  _nullifierHash */\n      dup13\n        /* \"anonimity/1-ETH-Anonymity.sol\":20094:20101  M87Deno */\n      dup6\n        /* \"anonimity/1-ETH-Anonymity.sol\":20103:20113  relayerFee */\n      dup8\n        /* \"anonimity/1-ETH-Anonymity.sol\":20045:20114  Withdrawal(_recipient, _nullifierHash, _relayer, M87Deno, relayerFee) */\n      mload(0x40)\n      dup1\n      dup6\n      0xffffffffffffffffffffffffffffffffffffffff\n      and\n      0xffffffffffffffffffffffffffffffffffffffff\n      and\n      dup2\n      mstore\n      0x20\n      add\n      dup5\n      dup2\n      mstore\n      0x20\n      add\n      dup4\n      dup2\n      mstore\n      0x20\n      add\n      dup3\n      dup2\n      mstore\n      0x20\n      add\n      swap5\n      pop\n      pop\n      pop\n      pop\n      pop\n      mload(0x40)\n      dup1\n      swap2\n      sub\n      swap1\n      log2\n        /* \"anonimity/1-ETH-Anonymity.sol\":12912:12913  _ */\n      pop\n      pop\n      pop\n      pop\n        /* \"anonimity/1-ETH-Anonymity.sol\":12947:12960  _guardCounter */\n      sload(0x68)\n        /* \"anonimity/1-ETH-Anonymity.sol\":12931:12943  localCounter */\n      dup2\n        /* \"anonimity/1-ETH-Anonymity.sol\":12931:12960  localCounter == _guardCounter */\n      eq\n        /* \"anonimity/1-ETH-Anonymity.sol\":12923:12996  require(localCounter == _guardCounter, \"ReentrancyGuard: reentrant call\") */\n      tag_282\n      jumpi\n      mload(0x40)\n      0x08c379a000000000000000000000000000000000000000000000000000000000\n      dup2\n      mstore\n      0x04\n      add\n      dup1\n      dup1\n      0x20\n      add\n      dup3\n      dup2\n      sub\n      dup3\n      mstore\n      0x1f\n      dup2\n      mstore\n      0x20\n      add\n      dup1\n      0x5265656e7472616e637947756172643a207265656e7472616e742063616c6c00\n      dup2\n      mstore\n      pop\n      0x20\n      add\n      swap2\n      pop\n      pop\n      mload(0x40)\n      dup1\n      swap2\n      sub\n      swap1\n      revert\n    tag_282:\n        /* \"anonimity/1-ETH-Anonymity.sol\":18572:20119  function withdraw(bytes calldata _proof, bytes32 _root, bytes32 _nullifierHash, address payable _recipient, address payable _relayer, uint256 _relayerFee, uint256 _refund) external payable nonReentrant {... */\n      pop\n      pop\n      pop\n      pop\n      pop\n      pop\n      pop\n      pop\n      pop\n      jump\t// out\n        /* \"anonimity/1-ETH-Anonymity.sol\":16809:17232  function M87Denomination() public view returns (uint256) {... */\n    tag_76:\n        /* \"anonimity/1-ETH-Anonymity.sol\":16857:16864  uint256 */\n      0x00\n        /* \"anonimity/1-ETH-Anonymity.sol\":16890:16900  overMinEth */\n      sload(0x89)\n        /* \"anonimity/1-ETH-Anonymity.sol\":16875:16887  collectedFee */\n      sload(0x86)\n        /* \"anonimity/1-ETH-Anonymity.sol\":16875:16900  collectedFee > overMinEth */\n      gt\n        /* \"anonimity/1-ETH-Anonymity.sol\":16872:16916  if(collectedFee > overMinEth)... */\n      iszero\n      tag_284\n      jumpi\n        /* \"anonimity/1-ETH-Anonymity.sol\":16915:16916  0 */\n      0x00\n        /* \"anonimity/1-ETH-Anonymity.sol\":16908:16916  return 0 */\n      swap1\n      pop\n      jump(tag_283)\n        /* \"anonimity/1-ETH-Anonymity.sol\":16872:16916  if(collectedFee > overMinEth)... */\n    tag_284:\n        /* \"anonimity/1-ETH-Anonymity.sol\":16941:16942  0 */\n      0x00\n        /* \"anonimity/1-ETH-Anonymity.sol\":16926:16937  numOfShares */\n      sload(0x72)\n        /* \"anonimity/1-ETH-Anonymity.sol\":16926:16942  numOfShares == 0 */\n      eq\n        /* \"anonimity/1-ETH-Anonymity.sol\":16922:16985  if (numOfShares == 0) {... */\n      iszero\n      tag_285\n      jumpi\n        /* \"anonimity/1-ETH-Anonymity.sol\":16959:16978  initM87Denomination */\n      sload(0x6b)\n        /* \"anonimity/1-ETH-Anonymity.sol\":16952:16978  return initM87Denomination */\n      swap1\n      pop\n      jump(tag_283)\n        /* \"anonimity/1-ETH-Anonymity.sol\":16922:16985  if (numOfShares == 0) {... */\n    tag_285:\n        /* \"anonimity/1-ETH-Anonymity.sol\":16990:17009  uint256 blockNumber */\n      0x00\n        /* \"anonimity/1-ETH-Anonymity.sol\":17012:17024  block.number */\n      number\n        /* \"anonimity/1-ETH-Anonymity.sol\":16990:17024  uint256 blockNumber = block.number */\n      swap1\n      pop\n        /* \"anonimity/1-ETH-Anonymity.sol\":17030:17044  uint256 accM87 */\n      0x00\n        /* \"anonimity/1-ETH-Anonymity.sol\":17047:17065  getAccumulateM87() */\n      tag_286\n        /* \"anonimity/1-ETH-Anonymity.sol\":17047:17063  getAccumulateM87 */\n      tag_171\n        /* \"anonimity/1-ETH-Anonymity.sol\":17047:17065  getAccumulateM87() */\n      jump\t// in\n    tag_286:\n        /* \"anonimity/1-ETH-Anonymity.sol\":17030:17065  uint256 accM87 = getAccumulateM87() */\n      swap1\n      pop\n        /* \"anonimity/1-ETH-Anonymity.sol\":17089:17104  lastRewardBlock */\n      sload(0x73)\n        /* \"anonimity/1-ETH-Anonymity.sol\":17075:17086  blockNumber */\n      dup3\n        /* \"anonimity/1-ETH-Anonymity.sol\":17075:17104  blockNumber > lastRewardBlock */\n      gt\n        /* \"anonimity/1-ETH-Anonymity.sol\":17075:17126  blockNumber > lastRewardBlock && rewardPerBlock > 0 */\n      dup1\n      iszero\n      tag_287\n      jumpi\n      pop\n        /* \"anonimity/1-ETH-Anonymity.sol\":17125:17126  0 */\n      0x00\n        /* \"anonimity/1-ETH-Anonymity.sol\":17108:17122  rewardPerBlock */\n      sload(0x74)\n        /* \"anonimity/1-ETH-Anonymity.sol\":17108:17126  rewardPerBlock > 0 */\n      gt\n        /* \"anonimity/1-ETH-Anonymity.sol\":17075:17126  blockNumber > lastRewardBlock && rewardPerBlock > 0 */\n    tag_287:\n        /* \"anonimity/1-ETH-Anonymity.sol\":17071:17171  if (blockNumber > lastRewardBlock && rewardPerBlock > 0) {... */\n      iszero\n      tag_288\n      jumpi\n        /* \"anonimity/1-ETH-Anonymity.sol\":17145:17164  calcAccumulateM87() */\n      tag_289\n        /* \"anonimity/1-ETH-Anonymity.sol\":17145:17162  calcAccumulateM87 */\n      tag_290\n        /* \"anonimity/1-ETH-Anonymity.sol\":17145:17164  calcAccumulateM87() */\n      jump\t// in\n    tag_289:\n        /* \"anonimity/1-ETH-Anonymity.sol\":17136:17164  accM87 = calcAccumulateM87() */\n      swap1\n      pop\n        /* \"anonimity/1-ETH-Anonymity.sol\":17071:17171  if (blockNumber > lastRewardBlock && rewardPerBlock > 0) {... */\n    tag_288:\n        /* \"anonimity/1-ETH-Anonymity.sol\":17183:17227  accM87.add(numOfShares - 1).div(numOfShares) */\n      tag_291\n        /* \"anonimity/1-ETH-Anonymity.sol\":17215:17226  numOfShares */\n      sload(0x72)\n        /* \"anonimity/1-ETH-Anonymity.sol\":17183:17210  accM87.add(numOfShares - 1) */\n      tag_292\n        /* \"anonimity/1-ETH-Anonymity.sol\":17208:17209  1 */\n      0x01\n        /* \"anonimity/1-ETH-Anonymity.sol\":17194:17205  numOfShares */\n      sload(0x72)\n        /* \"anonimity/1-ETH-Anonymity.sol\":17194:17209  numOfShares - 1 */\n      sub\n        /* \"anonimity/1-ETH-Anonymity.sol\":17183:17189  accM87 */\n      dup5\n        /* \"anonimity/1-ETH-Anonymity.sol\":17183:17193  accM87.add */\n      tag_293\n      swap1\n        /* \"anonimity/1-ETH-Anonymity.sol\":17183:17210  accM87.add(numOfShares - 1) */\n      swap2\n      swap1\n      0xffffffff\n      and\n      jump\t// in\n    tag_292:\n        /* \"anonimity/1-ETH-Anonymity.sol\":17183:17214  accM87.add(numOfShares - 1).div */\n      tag_270\n      swap1\n        /* \"anonimity/1-ETH-Anonymity.sol\":17183:17227  accM87.add(numOfShares - 1).div(numOfShares) */\n      swap2\n      swap1\n      0xffffffff\n      and\n      jump\t// in\n    tag_291:\n        /* \"anonimity/1-ETH-Anonymity.sol\":17176:17227  return accM87.add(numOfShares - 1).div(numOfShares) */\n      swap3\n      pop\n      pop\n      pop\n        /* \"anonimity/1-ETH-Anonymity.sol\":16809:17232  function M87Denomination() public view returns (uint256) {... */\n    tag_283:\n      swap1\n      jump\t// out\n        /* \"anonimity/1-ETH-Anonymity.sol\":21620:21716  function setOverMinETH(uint256 _overMinEth) public onlyOwner {... */\n    tag_80:\n        /* \"anonimity/1-ETH-Anonymity.sol\":14620:14633  messier_owner */\n      0x71\n      0x00\n      swap1\n      sload\n      swap1\n      0x0100\n      exp\n      swap1\n      div\n      0xffffffffffffffffffffffffffffffffffffffff\n      and\n        /* \"anonimity/1-ETH-Anonymity.sol\":14606:14633  msg.sender == messier_owner */\n      0xffffffffffffffffffffffffffffffffffffffff\n      and\n        /* \"anonimity/1-ETH-Anonymity.sol\":14606:14616  msg.sender */\n      caller\n        /* \"anonimity/1-ETH-Anonymity.sol\":14606:14633  msg.sender == messier_owner */\n      0xffffffffffffffffffffffffffffffffffffffff\n      and\n      eq\n        /* \"anonimity/1-ETH-Anonymity.sol\":14598:14672  require(msg.sender == messier_owner, \"Only Owner can call this function.\") */\n      tag_295\n      jumpi\n      mload(0x40)\n      0x08c379a000000000000000000000000000000000000000000000000000000000\n      dup2\n      mstore\n      0x04\n      add\n      dup1\n      dup1\n      0x20\n      add\n      dup3\n      dup2\n      sub\n      dup3\n      mstore\n      0x22\n      dup2\n      mstore\n      0x20\n      add\n      dup1\n      data_0e71a241197b393744b5df81fa847ab1c2bee75202755ee59d1abfcc113d1380\n      0x22\n      swap2\n      codecopy\n      0x40\n      add\n      swap2\n      pop\n      pop\n      mload(0x40)\n      dup1\n      swap2\n      sub\n      swap1\n      revert\n    tag_295:\n        /* \"anonimity/1-ETH-Anonymity.sol\":21700:21711  _overMinEth */\n      dup1\n        /* \"anonimity/1-ETH-Anonymity.sol\":21687:21697  overMinEth */\n      0x89\n        /* \"anonimity/1-ETH-Anonymity.sol\":21687:21711  overMinEth = _overMinEth */\n      dup2\n      swap1\n      sstore\n      pop\n        /* \"anonimity/1-ETH-Anonymity.sol\":21620:21716  function setOverMinETH(uint256 _overMinEth) public onlyOwner {... */\n      pop\n      jump\t// out\n        /* \"anonimity/1-ETH-Anonymity.sol\":14271:14297  address[4] public poolList */\n    tag_84:\n      0x7e\n      dup2\n      0x04\n      dup2\n      lt\n      tag_297\n      jumpi\n      invalid\n    tag_297:\n      add\n      0x00\n      swap2\n      pop\n      sload\n      swap1\n      0x0100\n      exp\n      swap1\n      div\n      0xffffffffffffffffffffffffffffffffffffffff\n      and\n      dup2\n      jump\t// out\n        /* \"anonimity/1-ETH-Anonymity.sol\":13819:13844  IVerifier public verifier */\n    tag_87:\n      0x6d\n      0x00\n      swap1\n      sload\n      swap1\n      0x0100\n      exp\n      swap1\n      div\n      0xffffffffffffffffffffffffffffffffffffffff\n      and\n      dup2\n      jump\t// out\n        /* \"anonimity/1-ETH-Anonymity.sol\":14409:14442  uint256 public feeToCollectAmount */\n    tag_90:\n      sload(0x88)\n      dup2\n      jump\t// out\n        /* \"anonimity/1-ETH-Anonymity.sol\":13956:13982  uint256 public numOfShares */\n    tag_93:\n      sload(0x72)\n      dup2\n      jump\t// out\n        /* \"anonimity/1-ETH-Anonymity.sol\":23662:23733  function forceSwapAndShare() public onlyOwner {... */\n    tag_96:\n        /* \"anonimity/1-ETH-Anonymity.sol\":14620:14633  messier_owner */\n      0x71\n      0x00\n      swap1\n      sload\n      swap1\n      0x0100\n      exp\n      swap1\n      div\n      0xffffffffffffffffffffffffffffffffffffffff\n      and\n        /* \"anonimity/1-ETH-Anonymity.sol\":14606:14633  msg.sender == messier_owner */\n      0xffffffffffffffffffffffffffffffffffffffff\n      and\n        /* \"anonimity/1-ETH-Anonymity.sol\":14606:14616  msg.sender */\n      caller\n        /* \"anonimity/1-ETH-Anonymity.sol\":14606:14633  msg.sender == messier_owner */\n      0xffffffffffffffffffffffffffffffffffffffff\n      and\n      eq\n        /* \"anonimity/1-ETH-Anonymity.sol\":14598:14672  require(msg.sender == messier_owner, \"Only Owner can call this function.\") */\n      tag_300\n      jumpi\n      mload(0x40)\n      0x08c379a000000000000000000000000000000000000000000000000000000000\n      dup2\n      mstore\n      0x04\n      add\n      dup1\n      dup1\n      0x20\n      add\n      dup3\n      dup2\n      sub\n      dup3\n      mstore\n      0x22\n      dup2\n      mstore\n      0x20\n      add\n      dup1\n      data_0e71a241197b393744b5df81fa847ab1c2bee75202755ee59d1abfcc113d1380\n      0x22\n      swap2\n      codecopy\n      0x40\n      add\n      swap2\n      pop\n      pop\n      mload(0x40)\n      dup1\n      swap2\n      sub\n      swap1\n      revert\n    tag_300:\n        /* \"anonimity/1-ETH-Anonymity.sol\":23714:23728  swapAndShare() */\n      tag_302\n        /* \"anonimity/1-ETH-Anonymity.sol\":23714:23726  swapAndShare */\n      tag_303\n        /* \"anonimity/1-ETH-Anonymity.sol\":23714:23728  swapAndShare() */\n      jump\t// in\n    tag_302:\n        /* \"anonimity/1-ETH-Anonymity.sol\":23662:23733  function forceSwapAndShare() public onlyOwner {... */\n      jump\t// out\n        /* \"anonimity/1-ETH-Anonymity.sol\":13924:13952  address public messier_owner */\n    tag_99:\n      0x71\n      0x00\n      swap1\n      sload\n      swap1\n      0x0100\n      exp\n      swap1\n      div\n      0xffffffffffffffffffffffffffffffffffffffff\n      and\n      dup2\n      jump\t// out\n        /* \"anonimity/1-ETH-Anonymity.sol\":9422:9867  function hashLeftRight(bytes32 _left, bytes32 _right) public pure returns (bytes32) {... */\n    tag_103:\n        /* \"anonimity/1-ETH-Anonymity.sol\":9497:9504  bytes32 */\n      0x00\n        /* \"anonimity/1-ETH-Anonymity.sol\":8331:8408  21888242871839275222246405745257275088548364400416034343698204186575808495617 */\n      0x30644e72e131a029b85045b68181585d2833e84879b9709143e1f593f0000001\n        /* \"anonimity/1-ETH-Anonymity.sol\":9528:9533  _left */\n      dup4\n        /* \"anonimity/1-ETH-Anonymity.sol\":9520:9534  uint256(_left) */\n      0x00\n      shr\n        /* \"anonimity/1-ETH-Anonymity.sol\":9520:9547  uint256(_left) < FIELD_SIZE */\n      lt\n        /* \"anonimity/1-ETH-Anonymity.sol\":9512:9584  require(uint256(_left) < FIELD_SIZE, \"_left should be inside the field\") */\n      tag_305\n      jumpi\n      mload(0x40)\n      0x08c379a000000000000000000000000000000000000000000000000000000000\n      dup2\n      mstore\n      0x04\n      add\n      dup1\n      dup1\n      0x20\n      add\n      dup3\n      dup2\n      sub\n      dup3\n      mstore\n      0x20\n      dup2\n      mstore\n      0x20\n      add\n      dup1\n      0x5f6c6566742073686f756c6420626520696e7369646520746865206669656c64\n      dup2\n      mstore\n      pop\n      0x20\n      add\n      swap2\n      pop\n      pop\n      mload(0x40)\n      dup1\n      swap2\n      sub\n      swap1\n      revert\n    tag_305:\n        /* \"anonimity/1-ETH-Anonymity.sol\":8331:8408  21888242871839275222246405745257275088548364400416034343698204186575808495617 */\n      0x30644e72e131a029b85045b68181585d2833e84879b9709143e1f593f0000001\n        /* \"anonimity/1-ETH-Anonymity.sol\":9606:9612  _right */\n      dup3\n        /* \"anonimity/1-ETH-Anonymity.sol\":9598:9613  uint256(_right) */\n      0x00\n      shr\n        /* \"anonimity/1-ETH-Anonymity.sol\":9598:9626  uint256(_right) < FIELD_SIZE */\n      lt\n        /* \"anonimity/1-ETH-Anonymity.sol\":9590:9664  require(uint256(_right) < FIELD_SIZE, \"_right should be inside the field\") */\n      tag_306\n      jumpi\n      mload(0x40)\n      0x08c379a000000000000000000000000000000000000000000000000000000000\n      dup2\n      mstore\n      0x04\n      add\n      dup1\n      dup1\n      0x20\n      add\n      dup3\n      dup2\n      sub\n      dup3\n      mstore\n      0x21\n      dup2\n      mstore\n      0x20\n      add\n      dup1\n      data_6542fa7ce511fbc255ce93f94c5fe79a03559888b6c0d6b4bd92b57ef65f3b4e\n      0x21\n      swap2\n      codecopy\n      0x40\n      add\n      swap2\n      pop\n      pop\n      mload(0x40)\n      dup1\n      swap2\n      sub\n      swap1\n      revert\n    tag_306:\n        /* \"anonimity/1-ETH-Anonymity.sol\":9670:9679  uint256 R */\n      0x00\n        /* \"anonimity/1-ETH-Anonymity.sol\":9690:9695  _left */\n      dup4\n        /* \"anonimity/1-ETH-Anonymity.sol\":9682:9696  uint256(_left) */\n      0x00\n      shr\n        /* \"anonimity/1-ETH-Anonymity.sol\":9670:9696  uint256 R = uint256(_left) */\n      swap1\n      pop\n        /* \"anonimity/1-ETH-Anonymity.sol\":9702:9711  uint256 C */\n      0x00\n        /* \"anonimity/1-ETH-Anonymity.sol\":9714:9715  0 */\n      dup1\n        /* \"anonimity/1-ETH-Anonymity.sol\":9702:9715  uint256 C = 0 */\n      swap1\n      pop\n        /* \"anonimity/1-ETH-Anonymity.sol\":9730:9736  Hasher */\n      linkerSymbol(\"b1d08b67b448c1738aa9c5efeb68bcb22194bda08022125c8b5ea581d01e7937\")\n        /* \"anonimity/1-ETH-Anonymity.sol\":9730:9747  Hasher.MiMCSponge */\n      0xf47d33b5\n        /* \"anonimity/1-ETH-Anonymity.sol\":9748:9749  R */\n      dup4\n        /* \"anonimity/1-ETH-Anonymity.sol\":9751:9752  C */\n      dup4\n        /* \"anonimity/1-ETH-Anonymity.sol\":9730:9753  Hasher.MiMCSponge(R, C) */\n      mload(0x40)\n      dup4\n      0xffffffff\n      and\n      0xe0\n      shl\n      dup2\n      mstore\n      0x04\n      add\n      dup1\n      dup4\n      dup2\n      mstore\n      0x20\n      add\n      dup3\n      dup2\n      mstore\n      0x20\n      add\n      swap3\n      pop\n      pop\n      pop\n      0x40\n      dup1\n      mload\n      dup1\n      dup4\n      sub\n      dup2\n      dup7\n      dup1\n      extcodesize\n      iszero\n        /* \"--CODEGEN--\":8:17   */\n      dup1\n        /* \"--CODEGEN--\":5:7   */\n      iszero\n      tag_307\n      jumpi\n        /* \"--CODEGEN--\":30:31   */\n      0x00\n        /* \"--CODEGEN--\":27:28   */\n      dup1\n        /* \"--CODEGEN--\":20:32   */\n      revert\n        /* \"--CODEGEN--\":5:7   */\n    tag_307:\n        /* \"anonimity/1-ETH-Anonymity.sol\":9730:9753  Hasher.MiMCSponge(R, C) */\n      pop\n      gas\n      delegatecall\n      iszero\n        /* \"--CODEGEN--\":8:17   */\n      dup1\n        /* \"--CODEGEN--\":5:7   */\n      iszero\n      tag_308\n      jumpi\n        /* \"--CODEGEN--\":45:61   */\n      returndatasize\n        /* \"--CODEGEN--\":42:43   */\n      0x00\n        /* \"--CODEGEN--\":39:40   */\n      dup1\n        /* \"--CODEGEN--\":24:62   */\n      returndatacopy\n        /* \"--CODEGEN--\":77:93   */\n      returndatasize\n        /* \"--CODEGEN--\":74:75   */\n      0x00\n        /* \"--CODEGEN--\":67:94   */\n      revert\n        /* \"--CODEGEN--\":5:7   */\n    tag_308:\n        /* \"anonimity/1-ETH-Anonymity.sol\":9730:9753  Hasher.MiMCSponge(R, C) */\n      pop\n      pop\n      pop\n      pop\n      mload(0x40)\n      returndatasize\n        /* \"--CODEGEN--\":13:15   */\n      0x40\n        /* \"--CODEGEN--\":8:11   */\n      dup2\n        /* \"--CODEGEN--\":5:16   */\n      lt\n        /* \"--CODEGEN--\":2:4   */\n      iszero\n      tag_309\n      jumpi\n        /* \"--CODEGEN--\":29:30   */\n      0x00\n        /* \"--CODEGEN--\":26:27   */\n      dup1\n        /* \"--CODEGEN--\":19:31   */\n      revert\n        /* \"--CODEGEN--\":2:4   */\n    tag_309:\n        /* \"anonimity/1-ETH-Anonymity.sol\":9730:9753  Hasher.MiMCSponge(R, C) */\n      dup2\n      add\n      swap1\n      dup1\n      dup1\n      mload\n      swap1\n      0x20\n      add\n      swap1\n      swap3\n      swap2\n      swap1\n      dup1\n      mload\n      swap1\n      0x20\n      add\n      swap1\n      swap3\n      swap2\n      swap1\n      pop\n      pop\n      pop\n        /* \"anonimity/1-ETH-Anonymity.sol\":9721:9753  (R, C) = Hasher.MiMCSponge(R, C) */\n      dup1\n      swap3\n      pop\n      dup2\n      swap4\n      pop\n      pop\n      pop\n        /* \"anonimity/1-ETH-Anonymity.sol\":8331:8408  21888242871839275222246405745257275088548364400416034343698204186575808495617 */\n      0x30644e72e131a029b85045b68181585d2833e84879b9709143e1f593f0000001\n        /* \"anonimity/1-ETH-Anonymity.sol\":9763:9801  addmod(R, uint256(_right), FIELD_SIZE) */\n      dup1\n      tag_310\n      jumpi\n      invalid\n    tag_310:\n        /* \"anonimity/1-ETH-Anonymity.sol\":9781:9787  _right */\n      dup5\n        /* \"anonimity/1-ETH-Anonymity.sol\":9773:9788  uint256(_right) */\n      0x00\n      shr\n        /* \"anonimity/1-ETH-Anonymity.sol\":9770:9771  R */\n      dup4\n        /* \"anonimity/1-ETH-Anonymity.sol\":9763:9801  addmod(R, uint256(_right), FIELD_SIZE) */\n      addmod\n        /* \"anonimity/1-ETH-Anonymity.sol\":9759:9801  R = addmod(R, uint256(_right), FIELD_SIZE) */\n      swap2\n      pop\n        /* \"anonimity/1-ETH-Anonymity.sol\":9816:9822  Hasher */\n      linkerSymbol(\"b1d08b67b448c1738aa9c5efeb68bcb22194bda08022125c8b5ea581d01e7937\")\n        /* \"anonimity/1-ETH-Anonymity.sol\":9816:9833  Hasher.MiMCSponge */\n      0xf47d33b5\n        /* \"anonimity/1-ETH-Anonymity.sol\":9834:9835  R */\n      dup4\n        /* \"anonimity/1-ETH-Anonymity.sol\":9837:9838  C */\n      dup4\n        /* \"anonimity/1-ETH-Anonymity.sol\":9816:9839  Hasher.MiMCSponge(R, C) */\n      mload(0x40)\n      dup4\n      0xffffffff\n      and\n      0xe0\n      shl\n      dup2\n      mstore\n      0x04\n      add\n      dup1\n      dup4\n      dup2\n      mstore\n      0x20\n      add\n      dup3\n      dup2\n      mstore\n      0x20\n      add\n      swap3\n      pop\n      pop\n      pop\n      0x40\n      dup1\n      mload\n      dup1\n      dup4\n      sub\n      dup2\n      dup7\n      dup1\n      extcodesize\n      iszero\n        /* \"--CODEGEN--\":8:17   */\n      dup1\n        /* \"--CODEGEN--\":5:7   */\n      iszero\n      tag_311\n      jumpi\n        /* \"--CODEGEN--\":30:31   */\n      0x00\n        /* \"--CODEGEN--\":27:28   */\n      dup1\n        /* \"--CODEGEN--\":20:32   */\n      revert\n        /* \"--CODEGEN--\":5:7   */\n    tag_311:\n        /* \"anonimity/1-ETH-Anonymity.sol\":9816:9839  Hasher.MiMCSponge(R, C) */\n      pop\n      gas\n      delegatecall\n      iszero\n        /* \"--CODEGEN--\":8:17   */\n      dup1\n        /* \"--CODEGEN--\":5:7   */\n      iszero\n      tag_312\n      jumpi\n        /* \"--CODEGEN--\":45:61   */\n      returndatasize\n        /* \"--CODEGEN--\":42:43   */\n      0x00\n        /* \"--CODEGEN--\":39:40   */\n      dup1\n        /* \"--CODEGEN--\":24:62   */\n      returndatacopy\n        /* \"--CODEGEN--\":77:93   */\n      returndatasize\n        /* \"--CODEGEN--\":74:75   */\n      0x00\n        /* \"--CODEGEN--\":67:94   */\n      revert\n        /* \"--CODEGEN--\":5:7   */\n    tag_312:\n        /* \"anonimity/1-ETH-Anonymity.sol\":9816:9839  Hasher.MiMCSponge(R, C) */\n      pop\n      pop\n      pop\n      pop\n      mload(0x40)\n      returndatasize\n        /* \"--CODEGEN--\":13:15   */\n      0x40\n        /* \"--CODEGEN--\":8:11   */\n      dup2\n        /* \"--CODEGEN--\":5:16   */\n      lt\n        /* \"--CODEGEN--\":2:4   */\n      iszero\n      tag_313\n      jumpi\n        /* \"--CODEGEN--\":29:30   */\n      0x00\n        /* \"--CODEGEN--\":26:27   */\n      dup1\n        /* \"--CODEGEN--\":19:31   */\n      revert\n        /* \"--CODEGEN--\":2:4   */\n    tag_313:\n        /* \"anonimity/1-ETH-Anonymity.sol\":9816:9839  Hasher.MiMCSponge(R, C) */\n      dup2\n      add\n      swap1\n      dup1\n      dup1\n      mload\n      swap1\n      0x20\n      add\n      swap1\n      swap3\n      swap2\n      swap1\n      dup1\n      mload\n      swap1\n      0x20\n      add\n      swap1\n      swap3\n      swap2\n      swap1\n      pop\n      pop\n      pop\n        /* \"anonimity/1-ETH-Anonymity.sol\":9807:9839  (R, C) = Hasher.MiMCSponge(R, C) */\n      dup1\n      swap3\n      pop\n      dup2\n      swap4\n      pop\n      pop\n      pop\n        /* \"anonimity/1-ETH-Anonymity.sol\":9860:9861  R */\n      dup2\n        /* \"anonimity/1-ETH-Anonymity.sol\":9852:9862  bytes32(R) */\n      0x00\n      shl\n        /* \"anonimity/1-ETH-Anonymity.sol\":9845:9862  return bytes32(R) */\n      swap3\n      pop\n      pop\n      pop\n        /* \"anonimity/1-ETH-Anonymity.sol\":9422:9867  function hashLeftRight(bytes32 _left, bytes32 _right) public pure returns (bytes32) {... */\n      swap3\n      swap2\n      pop\n      pop\n      jump\t// out\n        /* \"anonimity/1-ETH-Anonymity.sol\":14085:14116  uint256 public anonymityFee = 0 */\n    tag_106:\n      sload(0x76)\n      dup2\n      jump\t// out\n        /* \"anonimity/1-ETH-Anonymity.sol\":8294:8408  uint256 public constant FIELD_SIZE = 21888242871839275222246405745257275088548364400416034343698204186575808495617 */\n    tag_109:\n        /* \"anonimity/1-ETH-Anonymity.sol\":8331:8408  21888242871839275222246405745257275088548364400416034343698204186575808495617 */\n      0x30644e72e131a029b85045b68181585d2833e84879b9709143e1f593f0000001\n        /* \"anonimity/1-ETH-Anonymity.sol\":8294:8408  uint256 public constant FIELD_SIZE = 21888242871839275222246405745257275088548364400416034343698204186575808495617 */\n      dup2\n      jump\t// out\n        /* \"anonimity/1-ETH-Anonymity.sol\":14216:14267  uint256[5] public shareOfReward = [30, 0, 70, 0, 0] */\n    tag_113:\n      0x79\n      dup2\n      0x05\n      dup2\n      lt\n      tag_314\n      jumpi\n      invalid\n    tag_314:\n      add\n      0x00\n      swap2\n      pop\n      swap1\n      pop\n      sload\n      dup2\n      jump\t// out\n        /* \"anonimity/1-ETH-Anonymity.sol\":21376:21616  function setPoolFee(uint256 burnFee, uint256 fee1, uint256 fee2, uint256 fee3, uint256 fee4) public onlyOwner {... */\n    tag_117:\n        /* \"anonimity/1-ETH-Anonymity.sol\":14620:14633  messier_owner */\n      0x71\n      0x00\n      swap1\n      sload\n      swap1\n      0x0100\n      exp\n      swap1\n      div\n      0xffffffffffffffffffffffffffffffffffffffff\n      and\n        /* \"anonimity/1-ETH-Anonymity.sol\":14606:14633  msg.sender == messier_owner */\n      0xffffffffffffffffffffffffffffffffffffffff\n      and\n        /* \"anonimity/1-ETH-Anonymity.sol\":14606:14616  msg.sender */\n      caller\n        /* \"anonimity/1-ETH-Anonymity.sol\":14606:14633  msg.sender == messier_owner */\n      0xffffffffffffffffffffffffffffffffffffffff\n      and\n      eq\n        /* \"anonimity/1-ETH-Anonymity.sol\":14598:14672  require(msg.sender == messier_owner, \"Only Owner can call this function.\") */\n      tag_317\n      jumpi\n      mload(0x40)\n      0x08c379a000000000000000000000000000000000000000000000000000000000\n      dup2\n      mstore\n      0x04\n      add\n      dup1\n      dup1\n      0x20\n      add\n      dup3\n      dup2\n      sub\n      dup3\n      mstore\n      0x22\n      dup2\n      mstore\n      0x20\n      add\n      dup1\n      data_0e71a241197b393744b5df81fa847ab1c2bee75202755ee59d1abfcc113d1380\n      0x22\n      swap2\n      codecopy\n      0x40\n      add\n      swap2\n      pop\n      pop\n      mload(0x40)\n      dup1\n      swap2\n      sub\n      swap1\n      revert\n    tag_317:\n        /* \"anonimity/1-ETH-Anonymity.sol\":21540:21543  100 */\n      0x64\n        /* \"anonimity/1-ETH-Anonymity.sol\":21532:21536  fee4 */\n      dup2\n        /* \"anonimity/1-ETH-Anonymity.sol\":21525:21529  fee3 */\n      dup4\n        /* \"anonimity/1-ETH-Anonymity.sol\":21518:21522  fee2 */\n      dup6\n        /* \"anonimity/1-ETH-Anonymity.sol\":21511:21515  fee1 */\n      dup8\n        /* \"anonimity/1-ETH-Anonymity.sol\":21501:21508  burnFee */\n      dup10\n        /* \"anonimity/1-ETH-Anonymity.sol\":21501:21515  burnFee + fee1 */\n      add\n        /* \"anonimity/1-ETH-Anonymity.sol\":21501:21522  burnFee + fee1 + fee2 */\n      add\n        /* \"anonimity/1-ETH-Anonymity.sol\":21501:21529  burnFee + fee1 + fee2 + fee3 */\n      add\n        /* \"anonimity/1-ETH-Anonymity.sol\":21501:21536  burnFee + fee1 + fee2 + fee3 + fee4 */\n      add\n        /* \"anonimity/1-ETH-Anonymity.sol\":21501:21543  burnFee + fee1 + fee2 + fee3 + fee4 == 100 */\n      eq\n        /* \"anonimity/1-ETH-Anonymity.sol\":21492:21556  require( burnFee + fee1 + fee2 + fee3 + fee4 == 100, \"Invalid\" ) */\n      tag_319\n      jumpi\n      mload(0x40)\n      0x08c379a000000000000000000000000000000000000000000000000000000000\n      dup2\n      mstore\n      0x04\n      add\n      dup1\n      dup1\n      0x20\n      add\n      dup3\n      dup2\n      sub\n      dup3\n      mstore\n      0x07\n      dup2\n      mstore\n      0x20\n      add\n      dup1\n      0x496e76616c696400000000000000000000000000000000000000000000000000\n      dup2\n      mstore\n      pop\n      0x20\n      add\n      swap2\n      pop\n      pop\n      mload(0x40)\n      dup1\n      swap2\n      sub\n      swap1\n      revert\n    tag_319:\n        /* \"anonimity/1-ETH-Anonymity.sol\":21562:21611  shareOfReward = [burnFee, fee1, fee2, fee3, fee4] */\n      mload(0x40)\n      dup1\n      0xa0\n      add\n      0x40\n      mstore\n      dup1\n        /* \"anonimity/1-ETH-Anonymity.sol\":21579:21586  burnFee */\n      dup7\n        /* \"anonimity/1-ETH-Anonymity.sol\":21562:21611  shareOfReward = [burnFee, fee1, fee2, fee3, fee4] */\n      dup2\n      mstore\n      0x20\n      add\n        /* \"anonimity/1-ETH-Anonymity.sol\":21588:21592  fee1 */\n      dup6\n        /* \"anonimity/1-ETH-Anonymity.sol\":21562:21611  shareOfReward = [burnFee, fee1, fee2, fee3, fee4] */\n      dup2\n      mstore\n      0x20\n      add\n        /* \"anonimity/1-ETH-Anonymity.sol\":21594:21598  fee2 */\n      dup5\n        /* \"anonimity/1-ETH-Anonymity.sol\":21562:21611  shareOfReward = [burnFee, fee1, fee2, fee3, fee4] */\n      dup2\n      mstore\n      0x20\n      add\n        /* \"anonimity/1-ETH-Anonymity.sol\":21600:21604  fee3 */\n      dup4\n        /* \"anonimity/1-ETH-Anonymity.sol\":21562:21611  shareOfReward = [burnFee, fee1, fee2, fee3, fee4] */\n      dup2\n      mstore\n      0x20\n      add\n        /* \"anonimity/1-ETH-Anonymity.sol\":21606:21610  fee4 */\n      dup3\n        /* \"anonimity/1-ETH-Anonymity.sol\":21562:21611  shareOfReward = [burnFee, fee1, fee2, fee3, fee4] */\n      dup2\n      mstore\n      pop\n        /* \"anonimity/1-ETH-Anonymity.sol\":21562:21575  shareOfReward */\n      0x79\n        /* \"anonimity/1-ETH-Anonymity.sol\":21562:21611  shareOfReward = [burnFee, fee1, fee2, fee3, fee4] */\n      swap1\n      0x05\n      tag_320\n      swap3\n      swap2\n      swap1\n      tag_321\n      jump\t// in\n    tag_320:\n      pop\n        /* \"anonimity/1-ETH-Anonymity.sol\":21376:21616  function setPoolFee(uint256 burnFee, uint256 fee1, uint256 fee2, uint256 fee3, uint256 fee4) public onlyOwner {... */\n      pop\n      pop\n      pop\n      pop\n      pop\n      jump\t// out\n        /* \"anonimity/1-ETH-Anonymity.sol\":8570:8590  uint32 public levels */\n    tag_120:\n      0x00\n      dup1\n      swap1\n      sload\n      swap1\n      0x0100\n      exp\n      swap1\n      div\n      0xffffffff\n      and\n      dup2\n      jump\t// out\n        /* \"anonimity/1-ETH-Anonymity.sol\":13573:13605  uint256 public tokenDenomination */\n    tag_123:\n      sload(0x69)\n      dup2\n      jump\t// out\n        /* \"anonimity/1-ETH-Anonymity.sol\":24100:24177  function version() public pure returns(string memory) {... */\n    tag_126:\n        /* \"anonimity/1-ETH-Anonymity.sol\":24139:24152  string memory */\n      0x60\n        /* \"anonimity/1-ETH-Anonymity.sol\":24160:24172  return \"2.3\" */\n      mload(0x40)\n      dup1\n      0x40\n      add\n      0x40\n      mstore\n      dup1\n      0x03\n      dup2\n      mstore\n      0x20\n      add\n      0x322e330000000000000000000000000000000000000000000000000000000000\n      dup2\n      mstore\n      pop\n      swap1\n      pop\n        /* \"anonimity/1-ETH-Anonymity.sol\":24100:24177  function version() public pure returns(string memory) {... */\n      swap1\n      jump\t// out\n        /* \"anonimity/1-ETH-Anonymity.sol\":13897:13920  address public treasury */\n    tag_133:\n      0x70\n      0x00\n      swap1\n      sload\n      swap1\n      0x0100\n      exp\n      swap1\n      div\n      0xffffffffffffffffffffffffffffffffffffffff\n      and\n      dup2\n      jump\t// out\n        /* \"anonimity/1-ETH-Anonymity.sol\":21100:21372  function setPoolList(address addr1, address addr2, address addr3, address addr4) public onlyOwner {... */\n    tag_137:\n        /* \"anonimity/1-ETH-Anonymity.sol\":14620:14633  messier_owner */\n      0x71\n      0x00\n      swap1\n      sload\n      swap1\n      0x0100\n      exp\n      swap1\n      div\n      0xffffffffffffffffffffffffffffffffffffffff\n      and\n        /* \"anonimity/1-ETH-Anonymity.sol\":14606:14633  msg.sender == messier_owner */\n      0xffffffffffffffffffffffffffffffffffffffff\n      and\n        /* \"anonimity/1-ETH-Anonymity.sol\":14606:14616  msg.sender */\n      caller\n        /* \"anonimity/1-ETH-Anonymity.sol\":14606:14633  msg.sender == messier_owner */\n      0xffffffffffffffffffffffffffffffffffffffff\n      and\n      eq\n        /* \"anonimity/1-ETH-Anonymity.sol\":14598:14672  require(msg.sender == messier_owner, \"Only Owner can call this function.\") */\n      tag_324\n      jumpi\n      mload(0x40)\n      0x08c379a000000000000000000000000000000000000000000000000000000000\n      dup2\n      mstore\n      0x04\n      add\n      dup1\n      dup1\n      0x20\n      add\n      dup3\n      dup2\n      sub\n      dup3\n      mstore\n      0x22\n      dup2\n      mstore\n      0x20\n      add\n      dup1\n      data_0e71a241197b393744b5df81fa847ab1c2bee75202755ee59d1abfcc113d1380\n      0x22\n      swap2\n      codecopy\n      0x40\n      add\n      swap2\n      pop\n      pop\n      mload(0x40)\n      dup1\n      swap2\n      sub\n      swap1\n      revert\n    tag_324:\n        /* \"anonimity/1-ETH-Anonymity.sol\":21230:21231  0 */\n      0x00\n        /* \"anonimity/1-ETH-Anonymity.sol\":21213:21232  addr1 != address(0) */\n      0xffffffffffffffffffffffffffffffffffffffff\n      and\n        /* \"anonimity/1-ETH-Anonymity.sol\":21213:21218  addr1 */\n      dup5\n        /* \"anonimity/1-ETH-Anonymity.sol\":21213:21232  addr1 != address(0) */\n      0xffffffffffffffffffffffffffffffffffffffff\n      and\n      eq\n      iszero\n        /* \"anonimity/1-ETH-Anonymity.sol\":21213:21255  addr1 != address(0) && addr2 != address(0) */\n      dup1\n      iszero\n      tag_326\n      jumpi\n      pop\n        /* \"anonimity/1-ETH-Anonymity.sol\":21253:21254  0 */\n      0x00\n        /* \"anonimity/1-ETH-Anonymity.sol\":21236:21255  addr2 != address(0) */\n      0xffffffffffffffffffffffffffffffffffffffff\n      and\n        /* \"anonimity/1-ETH-Anonymity.sol\":21236:21241  addr2 */\n      dup4\n        /* \"anonimity/1-ETH-Anonymity.sol\":21236:21255  addr2 != address(0) */\n      0xffffffffffffffffffffffffffffffffffffffff\n      and\n      eq\n      iszero\n        /* \"anonimity/1-ETH-Anonymity.sol\":21213:21255  addr1 != address(0) && addr2 != address(0) */\n    tag_326:\n        /* \"anonimity/1-ETH-Anonymity.sol\":21213:21278  addr1 != address(0) && addr2 != address(0) && addr3 != address(0) */\n      dup1\n      iszero\n      tag_327\n      jumpi\n      pop\n        /* \"anonimity/1-ETH-Anonymity.sol\":21276:21277  0 */\n      0x00\n        /* \"anonimity/1-ETH-Anonymity.sol\":21259:21278  addr3 != address(0) */\n      0xffffffffffffffffffffffffffffffffffffffff\n      and\n        /* \"anonimity/1-ETH-Anonymity.sol\":21259:21264  addr3 */\n      dup3\n        /* \"anonimity/1-ETH-Anonymity.sol\":21259:21278  addr3 != address(0) */\n      0xffffffffffffffffffffffffffffffffffffffff\n      and\n      eq\n      iszero\n        /* \"anonimity/1-ETH-Anonymity.sol\":21213:21278  addr1 != address(0) && addr2 != address(0) && addr3 != address(0) */\n    tag_327:\n        /* \"anonimity/1-ETH-Anonymity.sol\":21213:21301  addr1 != address(0) && addr2 != address(0) && addr3 != address(0) && addr4 != address(0) */\n      dup1\n      iszero\n      tag_328\n      jumpi\n      pop\n        /* \"anonimity/1-ETH-Anonymity.sol\":21299:21300  0 */\n      0x00\n        /* \"anonimity/1-ETH-Anonymity.sol\":21282:21301  addr4 != address(0) */\n      0xffffffffffffffffffffffffffffffffffffffff\n      and\n        /* \"anonimity/1-ETH-Anonymity.sol\":21282:21287  addr4 */\n      dup2\n        /* \"anonimity/1-ETH-Anonymity.sol\":21282:21301  addr4 != address(0) */\n      0xffffffffffffffffffffffffffffffffffffffff\n      and\n      eq\n      iszero\n        /* \"anonimity/1-ETH-Anonymity.sol\":21213:21301  addr1 != address(0) && addr2 != address(0) && addr3 != address(0) && addr4 != address(0) */\n    tag_328:\n        /* \"anonimity/1-ETH-Anonymity.sol\":21204:21322  require( addr1 != address(0) && addr2 != address(0) && addr3 != address(0) && addr4 != address(0), \"Not Zero Address\") */\n      tag_329\n      jumpi\n      mload(0x40)\n      0x08c379a000000000000000000000000000000000000000000000000000000000\n      dup2\n      mstore\n      0x04\n      add\n      dup1\n      dup1\n      0x20\n      add\n      dup3\n      dup2\n      sub\n      dup3\n      mstore\n      0x10\n      dup2\n      mstore\n      0x20\n      add\n      dup1\n      0x4e6f74205a65726f204164647265737300000000000000000000000000000000\n      dup2\n      mstore\n      pop\n      0x20\n      add\n      swap2\n      pop\n      pop\n      mload(0x40)\n      dup1\n      swap2\n      sub\n      swap1\n      revert\n    tag_329:\n        /* \"anonimity/1-ETH-Anonymity.sol\":21328:21367  poolList = [addr1, addr2, addr3, addr4] */\n      mload(0x40)\n      dup1\n      0x80\n      add\n      0x40\n      mstore\n      dup1\n        /* \"anonimity/1-ETH-Anonymity.sol\":21340:21345  addr1 */\n      dup6\n        /* \"anonimity/1-ETH-Anonymity.sol\":21328:21367  poolList = [addr1, addr2, addr3, addr4] */\n      0xffffffffffffffffffffffffffffffffffffffff\n      and\n      0xffffffffffffffffffffffffffffffffffffffff\n      and\n      dup2\n      mstore\n      0x20\n      add\n        /* \"anonimity/1-ETH-Anonymity.sol\":21347:21352  addr2 */\n      dup5\n        /* \"anonimity/1-ETH-Anonymity.sol\":21328:21367  poolList = [addr1, addr2, addr3, addr4] */\n      0xffffffffffffffffffffffffffffffffffffffff\n      and\n      0xffffffffffffffffffffffffffffffffffffffff\n      and\n      dup2\n      mstore\n      0x20\n      add\n        /* \"anonimity/1-ETH-Anonymity.sol\":21354:21359  addr3 */\n      dup4\n        /* \"anonimity/1-ETH-Anonymity.sol\":21328:21367  poolList = [addr1, addr2, addr3, addr4] */\n      0xffffffffffffffffffffffffffffffffffffffff\n      and\n      0xffffffffffffffffffffffffffffffffffffffff\n      and\n      dup2\n      mstore\n      0x20\n      add\n        /* \"anonimity/1-ETH-Anonymity.sol\":21361:21366  addr4 */\n      dup3\n        /* \"anonimity/1-ETH-Anonymity.sol\":21328:21367  poolList = [addr1, addr2, addr3, addr4] */\n      0xffffffffffffffffffffffffffffffffffffffff\n      and\n      0xffffffffffffffffffffffffffffffffffffffff\n      and\n      dup2\n      mstore\n      pop\n        /* \"anonimity/1-ETH-Anonymity.sol\":21328:21336  poolList */\n      0x7e\n        /* \"anonimity/1-ETH-Anonymity.sol\":21328:21367  poolList = [addr1, addr2, addr3, addr4] */\n      swap1\n      0x04\n      tag_330\n      swap3\n      swap2\n      swap1\n      tag_331\n      jump\t// in\n    tag_330:\n      pop\n        /* \"anonimity/1-ETH-Anonymity.sol\":21100:21372  function setPoolList(address addr1, address addr2, address addr3, address addr4) public onlyOwner {... */\n      pop\n      pop\n      pop\n      pop\n      jump\t// out\n        /* \"anonimity/1-ETH-Anonymity.sol\":14541:14568  uint256 public curPoolIndex */\n    tag_140:\n      sload(0x8b)\n      dup2\n      jump\t// out\n        /* \"anonimity/1-ETH-Anonymity.sol\":10745:11087  function isKnownRoot(bytes32 _root) public view returns(bool) {... */\n    tag_144:\n        /* \"anonimity/1-ETH-Anonymity.sol\":10801:10805  bool */\n      0x00\n        /* \"anonimity/1-ETH-Anonymity.sol\":10826:10827  0 */\n      dup1\n        /* \"anonimity/1-ETH-Anonymity.sol\":10817:10827  _root == 0 */\n      0x00\n      shl\n        /* \"anonimity/1-ETH-Anonymity.sol\":10817:10822  _root */\n      dup3\n        /* \"anonimity/1-ETH-Anonymity.sol\":10817:10827  _root == 0 */\n      eq\n        /* \"anonimity/1-ETH-Anonymity.sol\":10813:10856  if (_root == 0) {... */\n      iszero\n      tag_333\n      jumpi\n        /* \"anonimity/1-ETH-Anonymity.sol\":10844:10849  false */\n      0x00\n        /* \"anonimity/1-ETH-Anonymity.sol\":10837:10849  return false */\n      swap1\n      pop\n      jump(tag_332)\n        /* \"anonimity/1-ETH-Anonymity.sol\":10813:10856  if (_root == 0) {... */\n    tag_333:\n        /* \"anonimity/1-ETH-Anonymity.sol\":10861:10869  uint32 i */\n      0x00\n        /* \"anonimity/1-ETH-Anonymity.sol\":10872:10888  currentRootIndex */\n      0x03\n      0x00\n      swap1\n      sload\n      swap1\n      0x0100\n      exp\n      swap1\n      div\n      0xffffffff\n      and\n        /* \"anonimity/1-ETH-Anonymity.sol\":10861:10888  uint32 i = currentRootIndex */\n      swap1\n      pop\n        /* \"anonimity/1-ETH-Anonymity.sol\":10894:11065  do {... */\n    tag_334:\n        /* \"anonimity/1-ETH-Anonymity.sol\":10918:10923  roots */\n      0x04\n        /* \"anonimity/1-ETH-Anonymity.sol\":10924:10925  i */\n      dup2\n        /* \"anonimity/1-ETH-Anonymity.sol\":10918:10926  roots[i] */\n      0xffffffff\n      and\n      0x64\n      dup2\n      lt\n      tag_337\n      jumpi\n      invalid\n    tag_337:\n      add\n      sload\n        /* \"anonimity/1-ETH-Anonymity.sol\":10909:10914  _root */\n      dup4\n        /* \"anonimity/1-ETH-Anonymity.sol\":10909:10926  _root == roots[i] */\n      eq\n        /* \"anonimity/1-ETH-Anonymity.sol\":10905:10958  if (_root == roots[i]) {... */\n      iszero\n      tag_339\n      jumpi\n        /* \"anonimity/1-ETH-Anonymity.sol\":10945:10949  true */\n      0x01\n        /* \"anonimity/1-ETH-Anonymity.sol\":10938:10949  return true */\n      swap2\n      pop\n      pop\n      jump(tag_332)\n        /* \"anonimity/1-ETH-Anonymity.sol\":10905:10958  if (_root == roots[i]) {... */\n    tag_339:\n        /* \"anonimity/1-ETH-Anonymity.sol\":10974:10975  0 */\n      0x00\n        /* \"anonimity/1-ETH-Anonymity.sol\":10969:10970  i */\n      dup2\n        /* \"anonimity/1-ETH-Anonymity.sol\":10969:10975  i == 0 */\n      0xffffffff\n      and\n      eq\n        /* \"anonimity/1-ETH-Anonymity.sol\":10965:11017  if (i == 0) {... */\n      iszero\n      tag_340\n      jumpi\n        /* \"anonimity/1-ETH-Anonymity.sol\":8903:8906  100 */\n      0x64\n        /* \"anonimity/1-ETH-Anonymity.sol\":10987:11008  i = ROOT_HISTORY_SIZE */\n      swap1\n      pop\n        /* \"anonimity/1-ETH-Anonymity.sol\":10965:11017  if (i == 0) {... */\n    tag_340:\n        /* \"anonimity/1-ETH-Anonymity.sol\":11024:11027  i-- */\n      dup1\n      dup1\n      0x01\n      swap1\n      sub\n      swap2\n      pop\n      pop\n        /* \"anonimity/1-ETH-Anonymity.sol\":11047:11063  currentRootIndex */\n      0x03\n      0x00\n      swap1\n      sload\n      swap1\n      0x0100\n      exp\n      swap1\n      div\n      0xffffffff\n      and\n        /* \"anonimity/1-ETH-Anonymity.sol\":11042:11063  i != currentRootIndex */\n      0xffffffff\n      and\n        /* \"anonimity/1-ETH-Anonymity.sol\":11042:11043  i */\n      dup2\n        /* \"anonimity/1-ETH-Anonymity.sol\":11042:11063  i != currentRootIndex */\n      0xffffffff\n      and\n      eq\n      iszero\n        /* \"anonimity/1-ETH-Anonymity.sol\":10894:11065  do {... */\n      tag_334\n      jumpi\n        /* \"anonimity/1-ETH-Anonymity.sol\":11077:11082  false */\n      0x00\n        /* \"anonimity/1-ETH-Anonymity.sol\":11070:11082  return false */\n      swap2\n      pop\n      pop\n        /* \"anonimity/1-ETH-Anonymity.sol\":10745:11087  function isKnownRoot(bytes32 _root) public view returns(bool) {... */\n    tag_332:\n      swap2\n      swap1\n      pop\n      jump\t// out\n        /* \"anonimity/1-ETH-Anonymity.sol\":13871:13893  IERC20 public M87Token */\n    tag_147:\n      0x6f\n      0x00\n      swap1\n      sload\n      swap1\n      0x0100\n      exp\n      swap1\n      div\n      0xffffffffffffffffffffffffffffffffffffffff\n      and\n      dup2\n      jump\t// out\n        /* \"anonimity/1-ETH-Anonymity.sol\":23877:24096  function setFeePercent(uint256 _fee) public onlyOwner {... */\n    tag_151:\n        /* \"anonimity/1-ETH-Anonymity.sol\":14620:14633  messier_owner */\n      0x71\n      0x00\n      swap1\n      sload\n      swap1\n      0x0100\n      exp\n      swap1\n      div\n      0xffffffffffffffffffffffffffffffffffffffff\n      and\n        /* \"anonimity/1-ETH-Anonymity.sol\":14606:14633  msg.sender == messier_owner */\n      0xffffffffffffffffffffffffffffffffffffffff\n      and\n        /* \"anonimity/1-ETH-Anonymity.sol\":14606:14616  msg.sender */\n      caller\n        /* \"anonimity/1-ETH-Anonymity.sol\":14606:14633  msg.sender == messier_owner */\n      0xffffffffffffffffffffffffffffffffffffffff\n      and\n      eq\n        /* \"anonimity/1-ETH-Anonymity.sol\":14598:14672  require(msg.sender == messier_owner, \"Only Owner can call this function.\") */\n      tag_342\n      jumpi\n      mload(0x40)\n      0x08c379a000000000000000000000000000000000000000000000000000000000\n      dup2\n      mstore\n      0x04\n      add\n      dup1\n      dup1\n      0x20\n      add\n      dup3\n      dup2\n      sub\n      dup3\n      mstore\n      0x22\n      dup2\n      mstore\n      0x20\n      add\n      dup1\n      data_0e71a241197b393744b5df81fa847ab1c2bee75202755ee59d1abfcc113d1380\n      0x22\n      swap2\n      codecopy\n      0x40\n      add\n      swap2\n      pop\n      pop\n      mload(0x40)\n      dup1\n      swap2\n      sub\n      swap1\n      revert\n    tag_342:\n        /* \"anonimity/1-ETH-Anonymity.sol\":23952:23954  10 */\n      0x0a\n        /* \"anonimity/1-ETH-Anonymity.sol\":23945:23949  _fee */\n      dup2\n        /* \"anonimity/1-ETH-Anonymity.sol\":23945:23954  _fee < 10 */\n      lt\n        /* \"anonimity/1-ETH-Anonymity.sol\":23937:23978  require(_fee < 10, \"Fee can't exceed 1%\") */\n      tag_344\n      jumpi\n      mload(0x40)\n      0x08c379a000000000000000000000000000000000000000000000000000000000\n      dup2\n      mstore\n      0x04\n      add\n      dup1\n      dup1\n      0x20\n      add\n      dup3\n      dup2\n      sub\n      dup3\n      mstore\n      0x13\n      dup2\n      mstore\n      0x20\n      add\n      dup1\n      0x4665652063616e27742065786365656420312500000000000000000000000000\n      dup2\n      mstore\n      pop\n      0x20\n      add\n      swap2\n      pop\n      pop\n      mload(0x40)\n      dup1\n      swap2\n      sub\n      swap1\n      revert\n    tag_344:\n        /* \"anonimity/1-ETH-Anonymity.sol\":24006:24010  _fee */\n      dup1\n        /* \"anonimity/1-ETH-Anonymity.sol\":23984:24003  feeToCollectPercent */\n      0x87\n        /* \"anonimity/1-ETH-Anonymity.sol\":23984:24010  feeToCollectPercent = _fee */\n      dup2\n      swap1\n      sstore\n      pop\n        /* \"anonimity/1-ETH-Anonymity.sol\":24086:24090  1000 */\n      0x03e8\n        /* \"anonimity/1-ETH-Anonymity.sol\":24056:24075  feeToCollectPercent */\n      sload(0x87)\n        /* \"anonimity/1-ETH-Anonymity.sol\":24037:24053  coinDenomination */\n      sload(0x6a)\n        /* \"anonimity/1-ETH-Anonymity.sol\":24037:24075  coinDenomination * feeToCollectPercent */\n      mul\n        /* \"anonimity/1-ETH-Anonymity.sol\":24037:24091  coinDenomination * feeToCollectPercent / uint256(1000) */\n      dup2\n      tag_345\n      jumpi\n      invalid\n    tag_345:\n      div\n        /* \"anonimity/1-ETH-Anonymity.sol\":24016:24034  feeToCollectAmount */\n      0x88\n        /* \"anonimity/1-ETH-Anonymity.sol\":24016:24091  feeToCollectAmount = coinDenomination * feeToCollectPercent / uint256(1000) */\n      dup2\n      swap1\n      sstore\n      pop\n        /* \"anonimity/1-ETH-Anonymity.sol\":23877:24096  function setFeePercent(uint256 _fee) public onlyOwner {... */\n      pop\n      jump\t// out\n        /* \"anonimity/1-ETH-Anonymity.sol\":13683:13726  mapping(bytes32 => bool) public commitments */\n    tag_155:\n      mstore(0x20, 0x6c)\n      dup1\n      0x00\n      mstore\n      keccak256(0x00, 0x40)\n      0x00\n      swap2\n      pop\n      sload\n      swap1\n      0x0100\n      exp\n      swap1\n      div\n      0xff\n      and\n      dup2\n      jump\t// out\n        /* \"anonimity/1-ETH-Anonymity.sol\":14020:14049  uint256 public rewardPerBlock */\n    tag_158:\n      sload(0x74)\n      dup2\n      jump\t// out\n        /* \"anonimity/1-ETH-Anonymity.sol\":16172:16590  function updateBlockReward() public {... */\n    tag_161:\n        /* \"anonimity/1-ETH-Anonymity.sol\":16214:16233  uint256 blockNumber */\n      0x00\n        /* \"anonimity/1-ETH-Anonymity.sol\":16236:16248  block.number */\n      number\n        /* \"anonimity/1-ETH-Anonymity.sol\":16214:16248  uint256 blockNumber = block.number */\n      swap1\n      pop\n        /* \"anonimity/1-ETH-Anonymity.sol\":16273:16288  lastRewardBlock */\n      sload(0x73)\n        /* \"anonimity/1-ETH-Anonymity.sol\":16258:16269  blockNumber */\n      dup2\n        /* \"anonimity/1-ETH-Anonymity.sol\":16258:16288  blockNumber <= lastRewardBlock */\n      gt\n        /* \"anonimity/1-ETH-Anonymity.sol\":16254:16311  if (blockNumber <= lastRewardBlock) {... */\n      tag_347\n      jumpi\n        /* \"anonimity/1-ETH-Anonymity.sol\":16298:16305  return; */\n      pop\n      jump(tag_346)\n        /* \"anonimity/1-ETH-Anonymity.sol\":16254:16311  if (blockNumber <= lastRewardBlock) {... */\n    tag_347:\n        /* \"anonimity/1-ETH-Anonymity.sol\":16333:16389  M87Token.balanceOf(address(this)).div(numDurationBlocks) */\n      tag_348\n        /* \"anonimity/1-ETH-Anonymity.sol\":16371:16388  numDurationBlocks */\n      sload(0x78)\n        /* \"anonimity/1-ETH-Anonymity.sol\":16333:16341  M87Token */\n      0x6f\n      0x00\n      swap1\n      sload\n      swap1\n      0x0100\n      exp\n      swap1\n      div\n      0xffffffffffffffffffffffffffffffffffffffff\n      and\n        /* \"anonimity/1-ETH-Anonymity.sol\":16333:16351  M87Token.balanceOf */\n      0xffffffffffffffffffffffffffffffffffffffff\n      and\n      0x70a08231\n        /* \"anonimity/1-ETH-Anonymity.sol\":16360:16364  this */\n      address\n        /* \"anonimity/1-ETH-Anonymity.sol\":16333:16366  M87Token.balanceOf(address(this)) */\n      mload(0x40)\n      dup3\n      0xffffffff\n      and\n      0xe0\n      shl\n      dup2\n      mstore\n      0x04\n      add\n      dup1\n      dup3\n      0xffffffffffffffffffffffffffffffffffffffff\n      and\n      0xffffffffffffffffffffffffffffffffffffffff\n      and\n      dup2\n      mstore\n      0x20\n      add\n      swap2\n      pop\n      pop\n      0x20\n      mload(0x40)\n      dup1\n      dup4\n      sub\n      dup2\n      dup7\n      dup1\n      extcodesize\n      iszero\n        /* \"--CODEGEN--\":8:17   */\n      dup1\n        /* \"--CODEGEN--\":5:7   */\n      iszero\n      tag_349\n      jumpi\n        /* \"--CODEGEN--\":30:31   */\n      0x00\n        /* \"--CODEGEN--\":27:28   */\n      dup1\n        /* \"--CODEGEN--\":20:32   */\n      revert\n        /* \"--CODEGEN--\":5:7   */\n    tag_349:\n        /* \"anonimity/1-ETH-Anonymity.sol\":16333:16366  M87Token.balanceOf(address(this)) */\n      pop\n      gas\n      staticcall\n      iszero\n        /* \"--CODEGEN--\":8:17   */\n      dup1\n        /* \"--CODEGEN--\":5:7   */\n      iszero\n      tag_350\n      jumpi\n        /* \"--CODEGEN--\":45:61   */\n      returndatasize\n        /* \"--CODEGEN--\":42:43   */\n      0x00\n        /* \"--CODEGEN--\":39:40   */\n      dup1\n        /* \"--CODEGEN--\":24:62   */\n      returndatacopy\n        /* \"--CODEGEN--\":77:93   */\n      returndatasize\n        /* \"--CODEGEN--\":74:75   */\n      0x00\n        /* \"--CODEGEN--\":67:94   */\n      revert\n        /* \"--CODEGEN--\":5:7   */\n    tag_350:\n        /* \"anonimity/1-ETH-Anonymity.sol\":16333:16366  M87Token.balanceOf(address(this)) */\n      pop\n      pop\n      pop\n      pop\n      mload(0x40)\n      returndatasize\n        /* \"--CODEGEN--\":13:15   */\n      0x20\n        /* \"--CODEGEN--\":8:11   */\n      dup2\n        /* \"--CODEGEN--\":5:16   */\n      lt\n        /* \"--CODEGEN--\":2:4   */\n      iszero\n      tag_351\n      jumpi\n        /* \"--CODEGEN--\":29:30   */\n      0x00\n        /* \"--CODEGEN--\":26:27   */\n      dup1\n        /* \"--CODEGEN--\":19:31   */\n      revert\n        /* \"--CODEGEN--\":2:4   */\n    tag_351:\n        /* \"anonimity/1-ETH-Anonymity.sol\":16333:16366  M87Token.balanceOf(address(this)) */\n      dup2\n      add\n      swap1\n      dup1\n      dup1\n      mload\n      swap1\n      0x20\n      add\n      swap1\n      swap3\n      swap2\n      swap1\n      pop\n      pop\n      pop\n        /* \"anonimity/1-ETH-Anonymity.sol\":16333:16370  M87Token.balanceOf(address(this)).div */\n      tag_270\n      swap1\n        /* \"anonimity/1-ETH-Anonymity.sol\":16333:16389  M87Token.balanceOf(address(this)).div(numDurationBlocks) */\n      swap2\n      swap1\n      0xffffffff\n      and\n      jump\t// in\n    tag_348:\n        /* \"anonimity/1-ETH-Anonymity.sol\":16316:16330  rewardPerBlock */\n      0x74\n        /* \"anonimity/1-ETH-Anonymity.sol\":16316:16389  rewardPerBlock = M87Token.balanceOf(address(this)).div(numDurationBlocks) */\n      dup2\n      swap1\n      sstore\n      pop\n        /* \"anonimity/1-ETH-Anonymity.sol\":16417:16418  0 */\n      0x00\n        /* \"anonimity/1-ETH-Anonymity.sol\":16399:16413  rewardPerBlock */\n      sload(0x74)\n        /* \"anonimity/1-ETH-Anonymity.sol\":16399:16418  rewardPerBlock != 0 */\n      eq\n        /* \"anonimity/1-ETH-Anonymity.sol\":16395:16470  if (rewardPerBlock != 0) {... */\n      tag_352\n      jumpi\n        /* \"anonimity/1-ETH-Anonymity.sol\":16444:16463  calcAccumulateM87() */\n      tag_353\n        /* \"anonimity/1-ETH-Anonymity.sol\":16444:16461  calcAccumulateM87 */\n      tag_290\n        /* \"anonimity/1-ETH-Anonymity.sol\":16444:16463  calcAccumulateM87() */\n      jump\t// in\n    tag_353:\n        /* \"anonimity/1-ETH-Anonymity.sol\":16428:16441  accumulateM87 */\n      0x75\n        /* \"anonimity/1-ETH-Anonymity.sol\":16428:16463  accumulateM87 = calcAccumulateM87() */\n      dup2\n      swap1\n      sstore\n      pop\n        /* \"anonimity/1-ETH-Anonymity.sol\":16395:16470  if (rewardPerBlock != 0) {... */\n    tag_352:\n        /* \"anonimity/1-ETH-Anonymity.sol\":16574:16585  blockNumber */\n      dup1\n        /* \"anonimity/1-ETH-Anonymity.sol\":16556:16571  lastRewardBlock */\n      0x73\n        /* \"anonimity/1-ETH-Anonymity.sol\":16556:16585  lastRewardBlock = blockNumber */\n      dup2\n      swap1\n      sstore\n      pop\n        /* \"anonimity/1-ETH-Anonymity.sol\":16172:16590  function updateBlockReward() public {... */\n      pop\n    tag_346:\n      jump\t// out\n        /* \"anonimity/1-ETH-Anonymity.sol\":20593:20729  function setAnonymityFee(uint256 _fee) public onlyOwner {... */\n    tag_165:\n        /* \"anonimity/1-ETH-Anonymity.sol\":14620:14633  messier_owner */\n      0x71\n      0x00\n      swap1\n      sload\n      swap1\n      0x0100\n      exp\n      swap1\n      div\n      0xffffffffffffffffffffffffffffffffffffffff\n      and\n        /* \"anonimity/1-ETH-Anonymity.sol\":14606:14633  msg.sender == messier_owner */\n      0xffffffffffffffffffffffffffffffffffffffff\n      and\n        /* \"anonimity/1-ETH-Anonymity.sol\":14606:14616  msg.sender */\n      caller\n        /* \"anonimity/1-ETH-Anonymity.sol\":14606:14633  msg.sender == messier_owner */\n      0xffffffffffffffffffffffffffffffffffffffff\n      and\n      eq\n        /* \"anonimity/1-ETH-Anonymity.sol\":14598:14672  require(msg.sender == messier_owner, \"Only Owner can call this function.\") */\n      tag_355\n      jumpi\n      mload(0x40)\n      0x08c379a000000000000000000000000000000000000000000000000000000000\n      dup2\n      mstore\n      0x04\n      add\n      dup1\n      dup1\n      0x20\n      add\n      dup3\n      dup2\n      sub\n      dup3\n      mstore\n      0x22\n      dup2\n      mstore\n      0x20\n      add\n      dup1\n      data_0e71a241197b393744b5df81fa847ab1c2bee75202755ee59d1abfcc113d1380\n      0x22\n      swap2\n      codecopy\n      0x40\n      add\n      swap2\n      pop\n      pop\n      mload(0x40)\n      dup1\n      swap2\n      sub\n      swap1\n      revert\n    tag_355:\n        /* \"anonimity/1-ETH-Anonymity.sol\":20660:20699  AnonymityFeeUpdated(anonymityFee, _fee) */\n      0xf077eec825bf8719ab7021daf299e3feb4cb33472ac3f1e661657fd9701a3e7e\n        /* \"anonimity/1-ETH-Anonymity.sol\":20680:20692  anonymityFee */\n      sload(0x76)\n        /* \"anonimity/1-ETH-Anonymity.sol\":20694:20698  _fee */\n      dup3\n        /* \"anonimity/1-ETH-Anonymity.sol\":20660:20699  AnonymityFeeUpdated(anonymityFee, _fee) */\n      mload(0x40)\n      dup1\n      dup4\n      dup2\n      mstore\n      0x20\n      add\n      dup3\n      dup2\n      mstore\n      0x20\n      add\n      swap3\n      pop\n      pop\n      pop\n      mload(0x40)\n      dup1\n      swap2\n      sub\n      swap1\n      log1\n        /* \"anonimity/1-ETH-Anonymity.sol\":20720:20724  _fee */\n      dup1\n        /* \"anonimity/1-ETH-Anonymity.sol\":20705:20717  anonymityFee */\n      0x76\n        /* \"anonimity/1-ETH-Anonymity.sol\":20705:20724  anonymityFee = _fee */\n      dup2\n      swap1\n      sstore\n      pop\n        /* \"anonimity/1-ETH-Anonymity.sol\":20593:20729  function setAnonymityFee(uint256 _fee) public onlyOwner {... */\n      pop\n      jump\t// out\n        /* \"anonimity/1-ETH-Anonymity.sol\":8791:8825  uint32 public currentRootIndex = 0 */\n    tag_168:\n      0x03\n      0x00\n      swap1\n      sload\n      swap1\n      0x0100\n      exp\n      swap1\n      div\n      0xffffffff\n      and\n      dup2\n      jump\t// out\n        /* \"anonimity/1-ETH-Anonymity.sol\":16594:16805  function getAccumulateM87() public view returns (uint256) {... */\n    tag_171:\n        /* \"anonimity/1-ETH-Anonymity.sol\":16643:16650  uint256 */\n      0x00\n        /* \"anonimity/1-ETH-Anonymity.sol\":16658:16676  uint256 curBalance */\n      dup1\n        /* \"anonimity/1-ETH-Anonymity.sol\":16679:16687  M87Token */\n      0x6f\n      0x00\n      swap1\n      sload\n      swap1\n      0x0100\n      exp\n      swap1\n      div\n      0xffffffffffffffffffffffffffffffffffffffff\n      and\n        /* \"anonimity/1-ETH-Anonymity.sol\":16679:16697  M87Token.balanceOf */\n      0xffffffffffffffffffffffffffffffffffffffff\n      and\n      0x70a08231\n        /* \"anonimity/1-ETH-Anonymity.sol\":16706:16710  this */\n      address\n        /* \"anonimity/1-ETH-Anonymity.sol\":16679:16712  M87Token.balanceOf(address(this)) */\n      mload(0x40)\n      dup3\n      0xffffffff\n      and\n      0xe0\n      shl\n      dup2\n      mstore\n      0x04\n      add\n      dup1\n      dup3\n      0xffffffffffffffffffffffffffffffffffffffff\n      and\n      0xffffffffffffffffffffffffffffffffffffffff\n      and\n      dup2\n      mstore\n      0x20\n      add\n      swap2\n      pop\n      pop\n      0x20\n      mload(0x40)\n      dup1\n      dup4\n      sub\n      dup2\n      dup7\n      dup1\n      extcodesize\n      iszero\n        /* \"--CODEGEN--\":8:17   */\n      dup1\n        /* \"--CODEGEN--\":5:7   */\n      iszero\n      tag_358\n      jumpi\n        /* \"--CODEGEN--\":30:31   */\n      0x00\n        /* \"--CODEGEN--\":27:28   */\n      dup1\n        /* \"--CODEGEN--\":20:32   */\n      revert\n        /* \"--CODEGEN--\":5:7   */\n    tag_358:\n        /* \"anonimity/1-ETH-Anonymity.sol\":16679:16712  M87Token.balanceOf(address(this)) */\n      pop\n      gas\n      staticcall\n      iszero\n        /* \"--CODEGEN--\":8:17   */\n      dup1\n        /* \"--CODEGEN--\":5:7   */\n      iszero\n      tag_359\n      jumpi\n        /* \"--CODEGEN--\":45:61   */\n      returndatasize\n        /* \"--CODEGEN--\":42:43   */\n      0x00\n        /* \"--CODEGEN--\":39:40   */\n      dup1\n        /* \"--CODEGEN--\":24:62   */\n      returndatacopy\n        /* \"--CODEGEN--\":77:93   */\n      returndatasize\n        /* \"--CODEGEN--\":74:75   */\n      0x00\n        /* \"--CODEGEN--\":67:94   */\n      revert\n        /* \"--CODEGEN--\":5:7   */\n    tag_359:\n        /* \"anonimity/1-ETH-Anonymity.sol\":16679:16712  M87Token.balanceOf(address(this)) */\n      pop\n      pop\n      pop\n      pop\n      mload(0x40)\n      returndatasize\n        /* \"--CODEGEN--\":13:15   */\n      0x20\n        /* \"--CODEGEN--\":8:11   */\n      dup2\n        /* \"--CODEGEN--\":5:16   */\n      lt\n        /* \"--CODEGEN--\":2:4   */\n      iszero\n      tag_360\n      jumpi\n        /* \"--CODEGEN--\":29:30   */\n      0x00\n        /* \"--CODEGEN--\":26:27   */\n      dup1\n        /* \"--CODEGEN--\":19:31   */\n      revert\n        /* \"--CODEGEN--\":2:4   */\n    tag_360:\n        /* \"anonimity/1-ETH-Anonymity.sol\":16679:16712  M87Token.balanceOf(address(this)) */\n      dup2\n      add\n      swap1\n      dup1\n      dup1\n      mload\n      swap1\n      0x20\n      add\n      swap1\n      swap3\n      swap2\n      swap1\n      pop\n      pop\n      pop\n        /* \"anonimity/1-ETH-Anonymity.sol\":16658:16712  uint256 curBalance = M87Token.balanceOf(address(this)) */\n      swap1\n      pop\n        /* \"anonimity/1-ETH-Anonymity.sol\":16735:16748  accumulateM87 */\n      sload(0x75)\n        /* \"anonimity/1-ETH-Anonymity.sol\":16722:16732  curBalance */\n      dup2\n        /* \"anonimity/1-ETH-Anonymity.sol\":16722:16748  curBalance < accumulateM87 */\n      lt\n        /* \"anonimity/1-ETH-Anonymity.sol\":16718:16774  if( curBalance < accumulateM87 )... */\n      iszero\n      tag_361\n      jumpi\n        /* \"anonimity/1-ETH-Anonymity.sol\":16764:16774  curBalance */\n      dup1\n        /* \"anonimity/1-ETH-Anonymity.sol\":16757:16774  return curBalance */\n      swap2\n      pop\n      pop\n      jump(tag_357)\n        /* \"anonimity/1-ETH-Anonymity.sol\":16718:16774  if( curBalance < accumulateM87 )... */\n    tag_361:\n        /* \"anonimity/1-ETH-Anonymity.sol\":16787:16800  accumulateM87 */\n      sload(0x75)\n        /* \"anonimity/1-ETH-Anonymity.sol\":16780:16800  return accumulateM87 */\n      swap2\n      pop\n      pop\n        /* \"anonimity/1-ETH-Anonymity.sol\":16594:16805  function getAccumulateM87() public view returns (uint256) {... */\n    tag_357:\n      swap1\n      jump\t// out\n        /* \"anonimity/1-ETH-Anonymity.sol\":20123:20233  function updateVerifier(address _newVerifier) external onlyOwner {... */\n    tag_175:\n        /* \"anonimity/1-ETH-Anonymity.sol\":14620:14633  messier_owner */\n      0x71\n      0x00\n      swap1\n      sload\n      swap1\n      0x0100\n      exp\n      swap1\n      div\n      0xffffffffffffffffffffffffffffffffffffffff\n      and\n        /* \"anonimity/1-ETH-Anonymity.sol\":14606:14633  msg.sender == messier_owner */\n      0xffffffffffffffffffffffffffffffffffffffff\n      and\n        /* \"anonimity/1-ETH-Anonymity.sol\":14606:14616  msg.sender */\n      caller\n        /* \"anonimity/1-ETH-Anonymity.sol\":14606:14633  msg.sender == messier_owner */\n      0xffffffffffffffffffffffffffffffffffffffff\n      and\n      eq\n        /* \"anonimity/1-ETH-Anonymity.sol\":14598:14672  require(msg.sender == messier_owner, \"Only Owner can call this function.\") */\n      tag_363\n      jumpi\n      mload(0x40)\n      0x08c379a000000000000000000000000000000000000000000000000000000000\n      dup2\n      mstore\n      0x04\n      add\n      dup1\n      dup1\n      0x20\n      add\n      dup3\n      dup2\n      sub\n      dup3\n      mstore\n      0x22\n      dup2\n      mstore\n      0x20\n      add\n      dup1\n      data_0e71a241197b393744b5df81fa847ab1c2bee75202755ee59d1abfcc113d1380\n      0x22\n      swap2\n      codecopy\n      0x40\n      add\n      swap2\n      pop\n      pop\n      mload(0x40)\n      dup1\n      swap2\n      sub\n      swap1\n      revert\n    tag_363:\n        /* \"anonimity/1-ETH-Anonymity.sol\":20215:20227  _newVerifier */\n      dup1\n        /* \"anonimity/1-ETH-Anonymity.sol\":20194:20202  verifier */\n      0x6d\n      0x00\n        /* \"anonimity/1-ETH-Anonymity.sol\":20194:20228  verifier = IVerifier(_newVerifier) */\n      0x0100\n      exp\n      dup2\n      sload\n      dup2\n      0xffffffffffffffffffffffffffffffffffffffff\n      mul\n      not\n      and\n      swap1\n      dup4\n      0xffffffffffffffffffffffffffffffffffffffff\n      and\n      mul\n      or\n      swap1\n      sstore\n      pop\n        /* \"anonimity/1-ETH-Anonymity.sol\":20123:20233  function updateVerifier(address _newVerifier) external onlyOwner {... */\n      pop\n      jump\t// out\n        /* \"anonimity/1-ETH-Anonymity.sol\":13610:13641  uint256 public coinDenomination */\n    tag_178:\n      sload(0x6a)\n      dup2\n      jump\t// out\n        /* \"anonimity/1-ETH-Anonymity.sol\":13986:14016  uint256 public lastRewardBlock */\n    tag_181:\n      sload(0x73)\n      dup2\n      jump\t// out\n        /* \"anonimity/1-ETH-Anonymity.sol\":13645:13679  uint256 public initM87Denomination */\n    tag_184:\n      sload(0x6b)\n      dup2\n      jump\t// out\n        /* \"anonimity/1-ETH-Anonymity.sol\":20490:20589  function changeTreasury(address _newTreasury) external onlyOwner {... */\n    tag_188:\n        /* \"anonimity/1-ETH-Anonymity.sol\":14620:14633  messier_owner */\n      0x71\n      0x00\n      swap1\n      sload\n      swap1\n      0x0100\n      exp\n      swap1\n      div\n      0xffffffffffffffffffffffffffffffffffffffff\n      and\n        /* \"anonimity/1-ETH-Anonymity.sol\":14606:14633  msg.sender == messier_owner */\n      0xffffffffffffffffffffffffffffffffffffffff\n      and\n        /* \"anonimity/1-ETH-Anonymity.sol\":14606:14616  msg.sender */\n      caller\n        /* \"anonimity/1-ETH-Anonymity.sol\":14606:14633  msg.sender == messier_owner */\n      0xffffffffffffffffffffffffffffffffffffffff\n      and\n      eq\n        /* \"anonimity/1-ETH-Anonymity.sol\":14598:14672  require(msg.sender == messier_owner, \"Only Owner can call this function.\") */\n      tag_366\n      jumpi\n      mload(0x40)\n      0x08c379a000000000000000000000000000000000000000000000000000000000\n      dup2\n      mstore\n      0x04\n      add\n      dup1\n      dup1\n      0x20\n      add\n      dup3\n      dup2\n      sub\n      dup3\n      mstore\n      0x22\n      dup2\n      mstore\n      0x20\n      add\n      dup1\n      data_0e71a241197b393744b5df81fa847ab1c2bee75202755ee59d1abfcc113d1380\n      0x22\n      swap2\n      codecopy\n      0x40\n      add\n      swap2\n      pop\n      pop\n      mload(0x40)\n      dup1\n      swap2\n      sub\n      swap1\n      revert\n    tag_366:\n        /* \"anonimity/1-ETH-Anonymity.sol\":20572:20584  _newTreasury */\n      dup1\n        /* \"anonimity/1-ETH-Anonymity.sol\":20561:20569  treasury */\n      0x70\n      0x00\n        /* \"anonimity/1-ETH-Anonymity.sol\":20561:20584  treasury = _newTreasury */\n      0x0100\n      exp\n      dup2\n      sload\n      dup2\n      0xffffffffffffffffffffffffffffffffffffffff\n      mul\n      not\n      and\n      swap1\n      dup4\n      0xffffffffffffffffffffffffffffffffffffffff\n      and\n      mul\n      or\n      swap1\n      sstore\n      pop\n        /* \"anonimity/1-ETH-Anonymity.sol\":20490:20589  function changeTreasury(address _newTreasury) external onlyOwner {... */\n      pop\n      jump\t// out\n        /* \"anonimity/1-ETH-Anonymity.sol\":17481:18568  function deposit(bytes32 _commitment) external payable nonReentrant returns (bytes32 commitment, uint32 insertedIndex, uint256 blocktime, uint256 M87Deno, uint256 fee){... */\n    tag_191:\n        /* \"anonimity/1-ETH-Anonymity.sol\":17558:17576  bytes32 commitment */\n      0x00\n        /* \"anonimity/1-ETH-Anonymity.sol\":17578:17598  uint32 insertedIndex */\n      dup1\n        /* \"anonimity/1-ETH-Anonymity.sol\":17600:17617  uint256 blocktime */\n      0x00\n        /* \"anonimity/1-ETH-Anonymity.sol\":17619:17634  uint256 M87Deno */\n      dup1\n        /* \"anonimity/1-ETH-Anonymity.sol\":17636:17647  uint256 fee */\n      0x00\n        /* \"anonimity/1-ETH-Anonymity.sol\":12855:12856  1 */\n      0x01\n        /* \"anonimity/1-ETH-Anonymity.sol\":12838:12851  _guardCounter */\n      0x68\n      0x00\n        /* \"anonimity/1-ETH-Anonymity.sol\":12838:12856  _guardCounter += 1 */\n      dup3\n      dup3\n      sload\n      add\n      swap3\n      pop\n      pop\n      dup2\n      swap1\n      sstore\n      pop\n        /* \"anonimity/1-ETH-Anonymity.sol\":12866:12886  uint256 localCounter */\n      0x00\n        /* \"anonimity/1-ETH-Anonymity.sol\":12889:12902  _guardCounter */\n      sload(0x68)\n        /* \"anonimity/1-ETH-Anonymity.sol\":12866:12902  uint256 localCounter = _guardCounter */\n      swap1\n      pop\n        /* \"anonimity/1-ETH-Anonymity.sol\":17663:17674  commitments */\n      0x6c\n        /* \"anonimity/1-ETH-Anonymity.sol\":17663:17687  commitments[_commitment] */\n      0x00\n        /* \"anonimity/1-ETH-Anonymity.sol\":17675:17686  _commitment */\n      dup9\n        /* \"anonimity/1-ETH-Anonymity.sol\":17663:17687  commitments[_commitment] */\n      dup2\n      mstore\n      0x20\n      add\n      swap1\n      dup2\n      mstore\n      0x20\n      add\n      0x00\n      keccak256\n      0x00\n      swap1\n      sload\n      swap1\n      0x0100\n      exp\n      swap1\n      div\n      0xff\n      and\n        /* \"anonimity/1-ETH-Anonymity.sol\":17662:17687  !commitments[_commitment] */\n      iszero\n        /* \"anonimity/1-ETH-Anonymity.sol\":17654:17725  require(!commitments[_commitment], \"The commitment has been submitted\") */\n      tag_370\n      jumpi\n      mload(0x40)\n      0x08c379a000000000000000000000000000000000000000000000000000000000\n      dup2\n      mstore\n      0x04\n      add\n      dup1\n      dup1\n      0x20\n      add\n      dup3\n      dup2\n      sub\n      dup3\n      mstore\n      0x21\n      dup2\n      mstore\n      0x20\n      add\n      dup1\n      data_ae5f231636554c1cb3bf839359e4dfbb338ccb221c7c5dbdf2da91ddc6e2ee6b\n      0x21\n      swap2\n      codecopy\n      0x40\n      add\n      swap2\n      pop\n      pop\n      mload(0x40)\n      dup1\n      swap2\n      sub\n      swap1\n      revert\n    tag_370:\n        /* \"anonimity/1-ETH-Anonymity.sol\":17752:17768  coinDenomination */\n      sload(0x6a)\n        /* \"anonimity/1-ETH-Anonymity.sol\":17739:17748  msg.value */\n      callvalue\n        /* \"anonimity/1-ETH-Anonymity.sol\":17739:17768  msg.value >= coinDenomination */\n      lt\n      iszero\n        /* \"anonimity/1-ETH-Anonymity.sol\":17731:17797  require(msg.value >= coinDenomination, \"insufficient coin amount\") */\n      tag_371\n      jumpi\n      mload(0x40)\n      0x08c379a000000000000000000000000000000000000000000000000000000000\n      dup2\n      mstore\n      0x04\n      add\n      dup1\n      dup1\n      0x20\n      add\n      dup3\n      dup2\n      sub\n      dup3\n      mstore\n      0x18\n      dup2\n      mstore\n      0x20\n      add\n      dup1\n      0x696e73756666696369656e7420636f696e20616d6f756e740000000000000000\n      dup2\n      mstore\n      pop\n      0x20\n      add\n      swap2\n      pop\n      pop\n      mload(0x40)\n      dup1\n      swap2\n      sub\n      swap1\n      revert\n    tag_371:\n        /* \"anonimity/1-ETH-Anonymity.sol\":17817:17828  _commitment */\n      dup7\n        /* \"anonimity/1-ETH-Anonymity.sol\":17804:17828  commitment = _commitment */\n      swap6\n      pop\n        /* \"anonimity/1-ETH-Anonymity.sol\":17846:17861  block.timestamp */\n      timestamp\n        /* \"anonimity/1-ETH-Anonymity.sol\":17834:17861  blocktime = block.timestamp */\n      swap4\n      pop\n        /* \"anonimity/1-ETH-Anonymity.sol\":17867:17881  uint256 refund */\n      0x00\n        /* \"anonimity/1-ETH-Anonymity.sol\":17896:17912  coinDenomination */\n      sload(0x6a)\n        /* \"anonimity/1-ETH-Anonymity.sol\":17884:17893  msg.value */\n      callvalue\n        /* \"anonimity/1-ETH-Anonymity.sol\":17884:17912  msg.value - coinDenomination */\n      sub\n        /* \"anonimity/1-ETH-Anonymity.sol\":17867:17912  uint256 refund = msg.value - coinDenomination */\n      swap1\n      pop\n        /* \"anonimity/1-ETH-Anonymity.sol\":17934:17954  _insert(_commitment) */\n      tag_372\n        /* \"anonimity/1-ETH-Anonymity.sol\":17942:17953  _commitment */\n      dup9\n        /* \"anonimity/1-ETH-Anonymity.sol\":17934:17941  _insert */\n      tag_373\n        /* \"anonimity/1-ETH-Anonymity.sol\":17934:17954  _insert(_commitment) */\n      jump\t// in\n    tag_372:\n        /* \"anonimity/1-ETH-Anonymity.sol\":17918:17954  insertedIndex = _insert(_commitment) */\n      swap6\n      pop\n        /* \"anonimity/1-ETH-Anonymity.sol\":17987:17991  true */\n      0x01\n        /* \"anonimity/1-ETH-Anonymity.sol\":17960:17971  commitments */\n      0x6c\n        /* \"anonimity/1-ETH-Anonymity.sol\":17960:17984  commitments[_commitment] */\n      0x00\n        /* \"anonimity/1-ETH-Anonymity.sol\":17972:17983  _commitment */\n      dup11\n        /* \"anonimity/1-ETH-Anonymity.sol\":17960:17984  commitments[_commitment] */\n      dup2\n      mstore\n      0x20\n      add\n      swap1\n      dup2\n      mstore\n      0x20\n      add\n      0x00\n      keccak256\n      0x00\n        /* \"anonimity/1-ETH-Anonymity.sol\":17960:17991  commitments[_commitment] = true */\n      0x0100\n      exp\n      dup2\n      sload\n      dup2\n      0xff\n      mul\n      not\n      and\n      swap1\n      dup4\n      iszero\n      iszero\n      mul\n      or\n      swap1\n      sstore\n      pop\n        /* \"anonimity/1-ETH-Anonymity.sol\":18007:18024  M87Denomination() */\n      tag_374\n        /* \"anonimity/1-ETH-Anonymity.sol\":18007:18022  M87Denomination */\n      tag_76\n        /* \"anonimity/1-ETH-Anonymity.sol\":18007:18024  M87Denomination() */\n      jump\t// in\n    tag_374:\n        /* \"anonimity/1-ETH-Anonymity.sol\":17997:18024  M87Deno = M87Denomination() */\n      swap4\n      pop\n        /* \"anonimity/1-ETH-Anonymity.sol\":18036:18048  anonymityFee */\n      sload(0x76)\n        /* \"anonimity/1-ETH-Anonymity.sol\":18030:18048  fee = anonymityFee */\n      swap3\n      pop\n        /* \"anonimity/1-ETH-Anonymity.sol\":18054:18064  uint256 td */\n      0x00\n        /* \"anonimity/1-ETH-Anonymity.sol\":18067:18084  tokenDenomination */\n      sload(0x69)\n        /* \"anonimity/1-ETH-Anonymity.sol\":18054:18084  uint256 td = tokenDenomination */\n      swap1\n      pop\n        /* \"anonimity/1-ETH-Anonymity.sol\":18099:18100  0 */\n      0x00\n        /* \"anonimity/1-ETH-Anonymity.sol\":18094:18096  td */\n      dup2\n        /* \"anonimity/1-ETH-Anonymity.sol\":18094:18100  td > 0 */\n      gt\n        /* \"anonimity/1-ETH-Anonymity.sol\":18090:18170  if (td > 0) {... */\n      iszero\n      tag_375\n      jumpi\n        /* \"anonimity/1-ETH-Anonymity.sol\":18110:18163  token.safeTransferFrom(msg.sender, address(this), td) */\n      tag_376\n        /* \"anonimity/1-ETH-Anonymity.sol\":18133:18143  msg.sender */\n      caller\n        /* \"anonimity/1-ETH-Anonymity.sol\":18153:18157  this */\n      address\n        /* \"anonimity/1-ETH-Anonymity.sol\":18160:18162  td */\n      dup4\n        /* \"anonimity/1-ETH-Anonymity.sol\":18110:18115  token */\n      0x6e\n      0x00\n      swap1\n      sload\n      swap1\n      0x0100\n      exp\n      swap1\n      div\n      0xffffffffffffffffffffffffffffffffffffffff\n      and\n        /* \"anonimity/1-ETH-Anonymity.sol\":18110:18132  token.safeTransferFrom */\n      0xffffffffffffffffffffffffffffffffffffffff\n      and\n      tag_377\n      swap1\n        /* \"anonimity/1-ETH-Anonymity.sol\":18110:18163  token.safeTransferFrom(msg.sender, address(this), td) */\n      swap4\n      swap3\n      swap2\n      swap1\n      0xffffffff\n      and\n      jump\t// in\n    tag_376:\n        /* \"anonimity/1-ETH-Anonymity.sol\":18090:18170  if (td > 0) {... */\n    tag_375:\n        /* \"anonimity/1-ETH-Anonymity.sol\":18192:18199  M87Deno */\n      dup5\n        /* \"anonimity/1-ETH-Anonymity.sol\":18175:18188  accumulateM87 */\n      0x75\n      0x00\n        /* \"anonimity/1-ETH-Anonymity.sol\":18175:18199  accumulateM87 += M87Deno */\n      dup3\n      dup3\n      sload\n      add\n      swap3\n      pop\n      pop\n      dup2\n      swap1\n      sstore\n      pop\n        /* \"anonimity/1-ETH-Anonymity.sol\":18220:18221  1 */\n      0x01\n        /* \"anonimity/1-ETH-Anonymity.sol\":18205:18216  numOfShares */\n      0x72\n      0x00\n        /* \"anonimity/1-ETH-Anonymity.sol\":18205:18221  numOfShares += 1 */\n      dup3\n      dup3\n      sload\n      add\n      swap3\n      pop\n      pop\n      dup2\n      swap1\n      sstore\n      pop\n        /* \"anonimity/1-ETH-Anonymity.sol\":18240:18241  0 */\n      0x00\n        /* \"anonimity/1-ETH-Anonymity.sol\":18231:18237  refund */\n      dup3\n        /* \"anonimity/1-ETH-Anonymity.sol\":18231:18241  refund > 0 */\n      gt\n        /* \"anonimity/1-ETH-Anonymity.sol\":18227:18354  if (refund > 0) {... */\n      iszero\n      tag_378\n      jumpi\n        /* \"anonimity/1-ETH-Anonymity.sol\":18252:18264  bool success */\n      0x00\n        /* \"anonimity/1-ETH-Anonymity.sol\":18270:18280  msg.sender */\n      caller\n        /* \"anonimity/1-ETH-Anonymity.sol\":18270:18285  msg.sender.call */\n      0xffffffffffffffffffffffffffffffffffffffff\n      and\n        /* \"anonimity/1-ETH-Anonymity.sol\":18292:18298  refund */\n      dup4\n        /* \"anonimity/1-ETH-Anonymity.sol\":18270:18303  msg.sender.call.value(refund)(\"\") */\n      mload(0x40)\n      dup1\n      0x00\n      add\n      swap1\n      pop\n      0x00\n      mload(0x40)\n      dup1\n      dup4\n      sub\n      dup2\n      dup6\n      dup8\n      gas\n      call\n      swap3\n      pop\n      pop\n      pop\n      returndatasize\n        /* \"--CODEGEN--\":14:15   */\n      dup1\n        /* \"--CODEGEN--\":21:22   */\n      0x00\n        /* \"--CODEGEN--\":16:47   */\n      dup2\n      eq\n      tag_380\n      jumpi\n        /* \"--CODEGEN--\":75:79   */\n      0x40\n        /* \"--CODEGEN--\":69:80   */\n      mload\n        /* \"--CODEGEN--\":64:80   */\n      swap2\n      pop\n        /* \"--CODEGEN--\":144:148   */\n      0x1f\n        /* \"--CODEGEN--\":140:149   */\n      not\n        /* \"--CODEGEN--\":133:137   */\n      0x3f\n        /* \"--CODEGEN--\":115:131   */\n      returndatasize\n        /* \"--CODEGEN--\":111:138   */\n      add\n        /* \"--CODEGEN--\":107:150   */\n      and\n        /* \"--CODEGEN--\":104:105   */\n      dup3\n        /* \"--CODEGEN--\":100:151   */\n      add\n        /* \"--CODEGEN--\":94:98   */\n      0x40\n        /* \"--CODEGEN--\":87:152   */\n      mstore\n        /* \"--CODEGEN--\":169:185   */\n      returndatasize\n        /* \"--CODEGEN--\":166:167   */\n      dup3\n        /* \"--CODEGEN--\":159:186   */\n      mstore\n        /* \"--CODEGEN--\":225:241   */\n      returndatasize\n        /* \"--CODEGEN--\":222:223   */\n      0x00\n        /* \"--CODEGEN--\":215:219   */\n      0x20\n        /* \"--CODEGEN--\":212:213   */\n      dup5\n        /* \"--CODEGEN--\":208:220   */\n      add\n        /* \"--CODEGEN--\":193:242   */\n      returndatacopy\n        /* \"--CODEGEN--\":7:249   */\n      jump(tag_379)\n        /* \"--CODEGEN--\":16:47   */\n    tag_380:\n        /* \"--CODEGEN--\":36:40   */\n      0x60\n        /* \"--CODEGEN--\":31:40   */\n      swap2\n      pop\n        /* \"--CODEGEN--\":7:249   */\n    tag_379:\n      pop\n        /* \"anonimity/1-ETH-Anonymity.sol\":18251:18303  (bool success, ) = msg.sender.call.value(refund)(\"\") */\n      pop\n      swap1\n      pop\n        /* \"anonimity/1-ETH-Anonymity.sol\":18319:18326  success */\n      dup1\n        /* \"anonimity/1-ETH-Anonymity.sol\":18311:18347  require(success, \"failed to refund\") */\n      tag_381\n      jumpi\n      mload(0x40)\n      0x08c379a000000000000000000000000000000000000000000000000000000000\n      dup2\n      mstore\n      0x04\n      add\n      dup1\n      dup1\n      0x20\n      add\n      dup3\n      dup2\n      sub\n      dup3\n      mstore\n      0x10\n      dup2\n      mstore\n      0x20\n      add\n      dup1\n      0x6661696c656420746f20726566756e6400000000000000000000000000000000\n      dup2\n      mstore\n      pop\n      0x20\n      add\n      swap2\n      pop\n      pop\n      mload(0x40)\n      dup1\n      swap2\n      sub\n      swap1\n      revert\n    tag_381:\n        /* \"anonimity/1-ETH-Anonymity.sol\":18227:18354  if (refund > 0) {... */\n      pop\n    tag_378:\n        /* \"anonimity/1-ETH-Anonymity.sol\":18376:18394  feeToCollectAmount */\n      sload(0x88)\n        /* \"anonimity/1-ETH-Anonymity.sol\":18360:18372  collectedFee */\n      0x86\n      0x00\n        /* \"anonimity/1-ETH-Anonymity.sol\":18360:18394  collectedFee += feeToCollectAmount */\n      dup3\n      dup3\n      sload\n      add\n      swap3\n      pop\n      pop\n      dup2\n      swap1\n      sstore\n      pop\n        /* \"anonimity/1-ETH-Anonymity.sol\":18418:18428  overMinEth */\n      sload(0x89)\n        /* \"anonimity/1-ETH-Anonymity.sol\":18403:18415  collectedFee */\n      sload(0x86)\n        /* \"anonimity/1-ETH-Anonymity.sol\":18403:18428  collectedFee > overMinEth */\n      gt\n        /* \"anonimity/1-ETH-Anonymity.sol\":18400:18459  if(collectedFee > overMinEth) {... */\n      iszero\n      tag_382\n      jumpi\n        /* \"anonimity/1-ETH-Anonymity.sol\":18438:18452  swapAndShare() */\n      tag_383\n        /* \"anonimity/1-ETH-Anonymity.sol\":18438:18450  swapAndShare */\n      tag_303\n        /* \"anonimity/1-ETH-Anonymity.sol\":18438:18452  swapAndShare() */\n      jump\t// in\n    tag_383:\n        /* \"anonimity/1-ETH-Anonymity.sol\":18400:18459  if(collectedFee > overMinEth) {... */\n    tag_382:\n        /* \"anonimity/1-ETH-Anonymity.sol\":18465:18484  updateBlockReward() */\n      tag_384\n        /* \"anonimity/1-ETH-Anonymity.sol\":18465:18482  updateBlockReward */\n      tag_161\n        /* \"anonimity/1-ETH-Anonymity.sol\":18465:18484  updateBlockReward() */\n      jump\t// in\n    tag_384:\n        /* \"anonimity/1-ETH-Anonymity.sol\":18505:18516  _commitment */\n      dup9\n        /* \"anonimity/1-ETH-Anonymity.sol\":18497:18563  Deposit(_commitment, insertedIndex, block.timestamp, M87Deno, fee) */\n      0xcb186cc0add5be357ae2d3845e42be2ffbed8cb23b60f1b058ea371adff0a363\n        /* \"anonimity/1-ETH-Anonymity.sol\":18518:18531  insertedIndex */\n      dup9\n        /* \"anonimity/1-ETH-Anonymity.sol\":18533:18548  block.timestamp */\n      timestamp\n        /* \"anonimity/1-ETH-Anonymity.sol\":18550:18557  M87Deno */\n      dup9\n        /* \"anonimity/1-ETH-Anonymity.sol\":18559:18562  fee */\n      dup9\n        /* \"anonimity/1-ETH-Anonymity.sol\":18497:18563  Deposit(_commitment, insertedIndex, block.timestamp, M87Deno, fee) */\n      mload(0x40)\n      dup1\n      dup6\n      0xffffffff\n      and\n      0xffffffff\n      and\n      dup2\n      mstore\n      0x20\n      add\n      dup5\n      dup2\n      mstore\n      0x20\n      add\n      dup4\n      dup2\n      mstore\n      0x20\n      add\n      dup3\n      dup2\n      mstore\n      0x20\n      add\n      swap5\n      pop\n      pop\n      pop\n      pop\n      pop\n      mload(0x40)\n      dup1\n      swap2\n      sub\n      swap1\n      log2\n        /* \"anonimity/1-ETH-Anonymity.sol\":12912:12913  _ */\n      pop\n      pop\n        /* \"anonimity/1-ETH-Anonymity.sol\":12947:12960  _guardCounter */\n      sload(0x68)\n        /* \"anonimity/1-ETH-Anonymity.sol\":12931:12943  localCounter */\n      dup2\n        /* \"anonimity/1-ETH-Anonymity.sol\":12931:12960  localCounter == _guardCounter */\n      eq\n        /* \"anonimity/1-ETH-Anonymity.sol\":12923:12996  require(localCounter == _guardCounter, \"ReentrancyGuard: reentrant call\") */\n      tag_385\n      jumpi\n      mload(0x40)\n      0x08c379a000000000000000000000000000000000000000000000000000000000\n      dup2\n      mstore\n      0x04\n      add\n      dup1\n      dup1\n      0x20\n      add\n      dup3\n      dup2\n      sub\n      dup3\n      mstore\n      0x1f\n      dup2\n      mstore\n      0x20\n      add\n      dup1\n      0x5265656e7472616e637947756172643a207265656e7472616e742063616c6c00\n      dup2\n      mstore\n      pop\n      0x20\n      add\n      swap2\n      pop\n      pop\n      mload(0x40)\n      dup1\n      swap2\n      sub\n      swap1\n      revert\n    tag_385:\n        /* \"anonimity/1-ETH-Anonymity.sol\":17481:18568  function deposit(bytes32 _commitment) external payable nonReentrant returns (bytes32 commitment, uint32 insertedIndex, uint256 blocktime, uint256 M87Deno, uint256 fee){... */\n      pop\n      swap2\n      swap4\n      swap6\n      swap1\n      swap3\n      swap5\n      pop\n      jump\t// out\n        /* \"anonimity/1-ETH-Anonymity.sol\":14053:14081  uint256 public accumulateM87 */\n    tag_194:\n      sload(0x75)\n      dup2\n      jump\t// out\n        /* \"anonimity/1-ETH-Anonymity.sol\":11133:11226  function getLastRoot() public view returns(bytes32) {... */\n    tag_197:\n        /* \"anonimity/1-ETH-Anonymity.sol\":11176:11183  bytes32 */\n      0x00\n        /* \"anonimity/1-ETH-Anonymity.sol\":11198:11203  roots */\n      0x04\n        /* \"anonimity/1-ETH-Anonymity.sol\":11204:11220  currentRootIndex */\n      0x03\n      0x00\n      swap1\n      sload\n      swap1\n      0x0100\n      exp\n      swap1\n      div\n      0xffffffff\n      and\n        /* \"anonimity/1-ETH-Anonymity.sol\":11198:11221  roots[currentRootIndex] */\n      0xffffffff\n      and\n      0x64\n      dup2\n      lt\n      tag_387\n      jumpi\n      invalid\n    tag_387:\n      add\n      sload\n        /* \"anonimity/1-ETH-Anonymity.sol\":11191:11221  return roots[currentRootIndex] */\n      swap1\n      pop\n        /* \"anonimity/1-ETH-Anonymity.sol\":11133:11226  function getLastRoot() public view returns(bytes32) {... */\n      swap1\n      jump\t// out\n        /* \"anonimity/1-ETH-Anonymity.sol\":8910:8949  bytes32[ROOT_HISTORY_SIZE] public roots */\n    tag_201:\n      0x04\n      dup2\n      0x64\n      dup2\n      lt\n      tag_389\n      jumpi\n      invalid\n    tag_389:\n      add\n      0x00\n      swap2\n      pop\n      swap1\n      pop\n      sload\n      dup2\n      jump\t// out\n        /* \"anonimity/1-ETH-Anonymity.sol\":14301:14332  uint256[4] public rewardAmounts */\n    tag_205:\n      0x82\n      dup2\n      0x04\n      dup2\n      lt\n      tag_391\n      jumpi\n      invalid\n    tag_391:\n      add\n      0x00\n      swap2\n      pop\n      swap1\n      pop\n      sload\n      dup2\n      jump\t// out\n        /* \"anonimity/1-ETH-Anonymity.sol\":20237:20380  function updateM87Token(address _newToken) external onlyOwner {... */\n    tag_209:\n        /* \"anonimity/1-ETH-Anonymity.sol\":14620:14633  messier_owner */\n      0x71\n      0x00\n      swap1\n      sload\n      swap1\n      0x0100\n      exp\n      swap1\n      div\n      0xffffffffffffffffffffffffffffffffffffffff\n      and\n        /* \"anonimity/1-ETH-Anonymity.sol\":14606:14633  msg.sender == messier_owner */\n      0xffffffffffffffffffffffffffffffffffffffff\n      and\n        /* \"anonimity/1-ETH-Anonymity.sol\":14606:14616  msg.sender */\n      caller\n        /* \"anonimity/1-ETH-Anonymity.sol\":14606:14633  msg.sender == messier_owner */\n      0xffffffffffffffffffffffffffffffffffffffff\n      and\n      eq\n        /* \"anonimity/1-ETH-Anonymity.sol\":14598:14672  require(msg.sender == messier_owner, \"Only Owner can call this function.\") */\n      tag_394\n      jumpi\n      mload(0x40)\n      0x08c379a000000000000000000000000000000000000000000000000000000000\n      dup2\n      mstore\n      0x04\n      add\n      dup1\n      dup1\n      0x20\n      add\n      dup3\n      dup2\n      sub\n      dup3\n      mstore\n      0x22\n      dup2\n      mstore\n      0x20\n      add\n      dup1\n      data_0e71a241197b393744b5df81fa847ab1c2bee75202755ee59d1abfcc113d1380\n      0x22\n      swap2\n      codecopy\n      0x40\n      add\n      swap2\n      pop\n      pop\n      mload(0x40)\n      dup1\n      swap2\n      sub\n      swap1\n      revert\n    tag_394:\n        /* \"anonimity/1-ETH-Anonymity.sol\":20323:20332  _newToken */\n      dup1\n        /* \"anonimity/1-ETH-Anonymity.sol\":20305:20313  M87Token */\n      0x6f\n      0x00\n        /* \"anonimity/1-ETH-Anonymity.sol\":20305:20333  M87Token = IERC20(_newToken) */\n      0x0100\n      exp\n      dup2\n      sload\n      dup2\n      0xffffffffffffffffffffffffffffffffffffffff\n      mul\n      not\n      and\n      swap1\n      dup4\n      0xffffffffffffffffffffffffffffffffffffffff\n      and\n      mul\n      or\n      swap1\n      sstore\n      pop\n        /* \"anonimity/1-ETH-Anonymity.sol\":20339:20347  M87Token */\n      0x6f\n      0x00\n      swap1\n      sload\n      swap1\n      0x0100\n      exp\n      swap1\n      div\n      0xffffffffffffffffffffffffffffffffffffffff\n      and\n        /* \"anonimity/1-ETH-Anonymity.sol\":20339:20355  M87Token.approve */\n      0xffffffffffffffffffffffffffffffffffffffff\n      and\n      0x095ea7b3\n        /* \"anonimity/1-ETH-Anonymity.sol\":20356:20369  messier_owner */\n      0x71\n      0x00\n      swap1\n      sload\n      swap1\n      0x0100\n      exp\n      swap1\n      div\n      0xffffffffffffffffffffffffffffffffffffffff\n      and\n        /* \"anonimity/1-ETH-Anonymity.sol\":13566:13567  0 */\n      0x00\n        /* \"anonimity/1-ETH-Anonymity.sol\":13557:13568  ~uint256(0) */\n      not\n        /* \"anonimity/1-ETH-Anonymity.sol\":20339:20375  M87Token.approve(messier_owner, MAX) */\n      mload(0x40)\n      dup4\n      0xffffffff\n      and\n      0xe0\n      shl\n      dup2\n      mstore\n      0x04\n      add\n      dup1\n      dup4\n      0xffffffffffffffffffffffffffffffffffffffff\n      and\n      0xffffffffffffffffffffffffffffffffffffffff\n      and\n      dup2\n      mstore\n      0x20\n      add\n      dup3\n      dup2\n      mstore\n      0x20\n      add\n      swap3\n      pop\n      pop\n      pop\n      0x20\n      mload(0x40)\n      dup1\n      dup4\n      sub\n      dup2\n      0x00\n      dup8\n      dup1\n      extcodesize\n      iszero\n        /* \"--CODEGEN--\":8:17   */\n      dup1\n        /* \"--CODEGEN--\":5:7   */\n      iszero\n      tag_396\n      jumpi\n        /* \"--CODEGEN--\":30:31   */\n      0x00\n        /* \"--CODEGEN--\":27:28   */\n      dup1\n        /* \"--CODEGEN--\":20:32   */\n      revert\n        /* \"--CODEGEN--\":5:7   */\n    tag_396:\n        /* \"anonimity/1-ETH-Anonymity.sol\":20339:20375  M87Token.approve(messier_owner, MAX) */\n      pop\n      gas\n      call\n      iszero\n        /* \"--CODEGEN--\":8:17   */\n      dup1\n        /* \"--CODEGEN--\":5:7   */\n      iszero\n      tag_397\n      jumpi\n        /* \"--CODEGEN--\":45:61   */\n      returndatasize\n        /* \"--CODEGEN--\":42:43   */\n      0x00\n        /* \"--CODEGEN--\":39:40   */\n      dup1\n        /* \"--CODEGEN--\":24:62   */\n      returndatacopy\n        /* \"--CODEGEN--\":77:93   */\n      returndatasize\n        /* \"--CODEGEN--\":74:75   */\n      0x00\n        /* \"--CODEGEN--\":67:94   */\n      revert\n        /* \"--CODEGEN--\":5:7   */\n    tag_397:\n        /* \"anonimity/1-ETH-Anonymity.sol\":20339:20375  M87Token.approve(messier_owner, MAX) */\n      pop\n      pop\n      pop\n      pop\n      mload(0x40)\n      returndatasize\n        /* \"--CODEGEN--\":13:15   */\n      0x20\n        /* \"--CODEGEN--\":8:11   */\n      dup2\n        /* \"--CODEGEN--\":5:16   */\n      lt\n        /* \"--CODEGEN--\":2:4   */\n      iszero\n      tag_398\n      jumpi\n        /* \"--CODEGEN--\":29:30   */\n      0x00\n        /* \"--CODEGEN--\":26:27   */\n      dup1\n        /* \"--CODEGEN--\":19:31   */\n      revert\n        /* \"--CODEGEN--\":2:4   */\n    tag_398:\n        /* \"anonimity/1-ETH-Anonymity.sol\":20339:20375  M87Token.approve(messier_owner, MAX) */\n      dup2\n      add\n      swap1\n      dup1\n      dup1\n      mload\n      swap1\n      0x20\n      add\n      swap1\n      swap3\n      swap2\n      swap1\n      pop\n      pop\n      pop\n      pop\n        /* \"anonimity/1-ETH-Anonymity.sol\":20237:20380  function updateM87Token(address _newToken) external onlyOwner {... */\n      pop\n      jump\t// out\n        /* \"anonimity/1-ETH-Anonymity.sol\":8860:8906  uint32 public constant ROOT_HISTORY_SIZE = 100 */\n    tag_212:\n        /* \"anonimity/1-ETH-Anonymity.sol\":8903:8906  100 */\n      0x64\n        /* \"anonimity/1-ETH-Anonymity.sol\":8860:8906  uint32 public constant ROOT_HISTORY_SIZE = 100 */\n      dup2\n      jump\t// out\n        /* \"anonimity/1-ETH-Anonymity.sol\":14446:14492  uint256 public overMinEth = 250000000000000000 */\n    tag_215:\n      sload(0x89)\n      dup2\n      jump\t// out\n        /* \"anonimity/1-ETH-Anonymity.sol\":20384:20486  function changeMessierOwner(address _newOwner) external onlyOwner {... */\n    tag_219:\n        /* \"anonimity/1-ETH-Anonymity.sol\":14620:14633  messier_owner */\n      0x71\n      0x00\n      swap1\n      sload\n      swap1\n      0x0100\n      exp\n      swap1\n      div\n      0xffffffffffffffffffffffffffffffffffffffff\n      and\n        /* \"anonimity/1-ETH-Anonymity.sol\":14606:14633  msg.sender == messier_owner */\n      0xffffffffffffffffffffffffffffffffffffffff\n      and\n        /* \"anonimity/1-ETH-Anonymity.sol\":14606:14616  msg.sender */\n      caller\n        /* \"anonimity/1-ETH-Anonymity.sol\":14606:14633  msg.sender == messier_owner */\n      0xffffffffffffffffffffffffffffffffffffffff\n      and\n      eq\n        /* \"anonimity/1-ETH-Anonymity.sol\":14598:14672  require(msg.sender == messier_owner, \"Only Owner can call this function.\") */\n      tag_400\n      jumpi\n      mload(0x40)\n      0x08c379a000000000000000000000000000000000000000000000000000000000\n      dup2\n      mstore\n      0x04\n      add\n      dup1\n      dup1\n      0x20\n      add\n      dup3\n      dup2\n      sub\n      dup3\n      mstore\n      0x22\n      dup2\n      mstore\n      0x20\n      add\n      dup1\n      data_0e71a241197b393744b5df81fa847ab1c2bee75202755ee59d1abfcc113d1380\n      0x22\n      swap2\n      codecopy\n      0x40\n      add\n      swap2\n      pop\n      pop\n      mload(0x40)\n      dup1\n      swap2\n      sub\n      swap1\n      revert\n    tag_400:\n        /* \"anonimity/1-ETH-Anonymity.sol\":20472:20481  _newOwner */\n      dup1\n        /* \"anonimity/1-ETH-Anonymity.sol\":20456:20469  messier_owner */\n      0x71\n      0x00\n        /* \"anonimity/1-ETH-Anonymity.sol\":20456:20481  messier_owner = _newOwner */\n      0x0100\n      exp\n      dup2\n      sload\n      dup2\n      0xffffffffffffffffffffffffffffffffffffffff\n      mul\n      not\n      and\n      swap1\n      dup4\n      0xffffffffffffffffffffffffffffffffffffffff\n      and\n      mul\n      or\n      swap1\n      sstore\n      pop\n        /* \"anonimity/1-ETH-Anonymity.sol\":20384:20486  function changeMessierOwner(address _newOwner) external onlyOwner {... */\n      pop\n      jump\t// out\n        /* \"anonimity/1-ETH-Anonymity.sol\":14336:14363  uint256 public collectedFee */\n    tag_222:\n      sload(0x86)\n      dup2\n      jump\t// out\n        /* \"anonimity/1-ETH-Anonymity.sol\":8765:8787  bytes32[] public zeros */\n    tag_226:\n      0x02\n      dup2\n      dup2\n      sload\n      dup2\n      lt\n      tag_402\n      jumpi\n      invalid\n    tag_402:\n      swap1\n      0x00\n      mstore\n      keccak256(0x00, 0x20)\n      add\n      0x00\n      swap2\n      pop\n      swap1\n      pop\n      sload\n      dup2\n      jump\t// out\n        /* \"anonimity/1-ETH-Anonymity.sol\":8412:8526  uint256 public constant ZERO_VALUE = 21663839004416932945382355908790599225266501822907911457504978515578255421292 */\n    tag_229:\n        /* \"anonimity/1-ETH-Anonymity.sol\":8449:8526  21663839004416932945382355908790599225266501822907911457504978515578255421292 */\n      0x2fe54c60d3acabf3343a35b6eba15db4821b340f76e741e2249685ed4899af6c\n        /* \"anonimity/1-ETH-Anonymity.sol\":8412:8526  uint256 public constant ZERO_VALUE = 21663839004416932945382355908790599225266501822907911457504978515578255421292 */\n      dup2\n      jump\t// out\n        /* \"anonimity/1-ETH-Anonymity.sol\":14367:14405  uint256 public feeToCollectPercent = 4 */\n    tag_232:\n      sload(0x87)\n      dup2\n      jump\t// out\n        /* \"anonimity/1-ETH-Anonymity.sol\":8730:8761  bytes32[] public filledSubtrees */\n    tag_236:\n      0x01\n      dup2\n      dup2\n      sload\n      dup2\n      lt\n      tag_404\n      jumpi\n      invalid\n    tag_404:\n      swap1\n      0x00\n      mstore\n      keccak256(0x00, 0x20)\n      add\n      0x00\n      swap2\n      pop\n      swap1\n      pop\n      sload\n      dup2\n      jump\t// out\n        /* \"anonimity/1-ETH-Anonymity.sol\":23737:23873  function setDuration(uint256 _duration) public onlyOwner {... */\n    tag_240:\n        /* \"anonimity/1-ETH-Anonymity.sol\":14620:14633  messier_owner */\n      0x71\n      0x00\n      swap1\n      sload\n      swap1\n      0x0100\n      exp\n      swap1\n      div\n      0xffffffffffffffffffffffffffffffffffffffff\n      and\n        /* \"anonimity/1-ETH-Anonymity.sol\":14606:14633  msg.sender == messier_owner */\n      0xffffffffffffffffffffffffffffffffffffffff\n      and\n        /* \"anonimity/1-ETH-Anonymity.sol\":14606:14616  msg.sender */\n      caller\n        /* \"anonimity/1-ETH-Anonymity.sol\":14606:14633  msg.sender == messier_owner */\n      0xffffffffffffffffffffffffffffffffffffffff\n      and\n      eq\n        /* \"anonimity/1-ETH-Anonymity.sol\":14598:14672  require(msg.sender == messier_owner, \"Only Owner can call this function.\") */\n      tag_407\n      jumpi\n      mload(0x40)\n      0x08c379a000000000000000000000000000000000000000000000000000000000\n      dup2\n      mstore\n      0x04\n      add\n      dup1\n      dup1\n      0x20\n      add\n      dup3\n      dup2\n      sub\n      dup3\n      mstore\n      0x22\n      dup2\n      mstore\n      0x20\n      add\n      dup1\n      data_0e71a241197b393744b5df81fa847ab1c2bee75202755ee59d1abfcc113d1380\n      0x22\n      swap2\n      codecopy\n      0x40\n      add\n      swap2\n      pop\n      pop\n      mload(0x40)\n      dup1\n      swap2\n      sub\n      swap1\n      revert\n    tag_407:\n        /* \"anonimity/1-ETH-Anonymity.sol\":23811:23820  _duration */\n      dup1\n        /* \"anonimity/1-ETH-Anonymity.sol\":23800:23808  duration */\n      0x77\n        /* \"anonimity/1-ETH-Anonymity.sol\":23800:23820  duration = _duration */\n      dup2\n      swap1\n      sstore\n      pop\n        /* \"anonimity/1-ETH-Anonymity.sol\":23867:23868  4 */\n      0x04\n        /* \"anonimity/1-ETH-Anonymity.sol\":23862:23864  60 */\n      0x3c\n        /* \"anonimity/1-ETH-Anonymity.sol\":23857:23859  24 */\n      0x18\n        /* \"anonimity/1-ETH-Anonymity.sol\":23846:23854  duration */\n      sload(0x77)\n        /* \"anonimity/1-ETH-Anonymity.sol\":23846:23859  duration * 24 */\n      mul\n        /* \"anonimity/1-ETH-Anonymity.sol\":23846:23864  duration * 24 * 60 */\n      mul\n        /* \"anonimity/1-ETH-Anonymity.sol\":23846:23868  duration * 24 * 60 * 4 */\n      mul\n        /* \"anonimity/1-ETH-Anonymity.sol\":23826:23843  numDurationBlocks */\n      0x78\n        /* \"anonimity/1-ETH-Anonymity.sol\":23826:23868  numDurationBlocks = duration * 24 * 60 * 4 */\n      dup2\n      swap1\n      sstore\n      pop\n        /* \"anonimity/1-ETH-Anonymity.sol\":23737:23873  function setDuration(uint256 _duration) public onlyOwner {... */\n      pop\n      jump\t// out\n        /* \"anonimity/1-ETH-Anonymity.sol\":13848:13867  IERC20 public token */\n    tag_243:\n      0x6e\n      0x00\n      swap1\n      sload\n      swap1\n      0x0100\n      exp\n      swap1\n      div\n      0xffffffffffffffffffffffffffffffffffffffff\n      and\n      dup2\n      jump\t// out\n        /* \"anonimity/1-ETH-Anonymity.sol\":8829:8856  uint32 public nextIndex = 0 */\n    tag_246:\n      0x03\n      0x04\n      swap1\n      sload\n      swap1\n      0x0100\n      exp\n      swap1\n      div\n      0xffffffff\n      and\n      dup2\n      jump\t// out\n        /* \"anonimity/1-ETH-Anonymity.sol\":3966:4379  function isContract(address account) internal view returns (bool) {... */\n    tag_251:\n        /* \"anonimity/1-ETH-Anonymity.sol\":4026:4030  bool */\n      0x00\n        /* \"anonimity/1-ETH-Anonymity.sol\":4229:4241  uint256 size */\n      dup1\n        /* \"anonimity/1-ETH-Anonymity.sol\":4338:4345  account */\n      dup3\n        /* \"anonimity/1-ETH-Anonymity.sol\":4326:4346  extcodesize(account) */\n      extcodesize\n        /* \"anonimity/1-ETH-Anonymity.sol\":4318:4346  size := extcodesize(account) */\n      swap1\n      pop\n        /* \"anonimity/1-ETH-Anonymity.sol\":4371:4372  0 */\n      0x00\n        /* \"anonimity/1-ETH-Anonymity.sol\":4364:4368  size */\n      dup2\n        /* \"anonimity/1-ETH-Anonymity.sol\":4364:4372  size > 0 */\n      gt\n        /* \"anonimity/1-ETH-Anonymity.sol\":4357:4372  return size > 0 */\n      swap2\n      pop\n      pop\n        /* \"anonimity/1-ETH-Anonymity.sol\":3966:4379  function isContract(address account) internal view returns (bool) {... */\n      swap2\n      swap1\n      pop\n      jump\t// out\n        /* \"anonimity/1-ETH-Anonymity.sol\":20830:21096  function safeTransfer(IERC20 _token, address _to, uint256 _amount) internal {... */\n    tag_266:\n        /* \"anonimity/1-ETH-Anonymity.sol\":20912:20927  uint256 balance */\n      0x00\n        /* \"anonimity/1-ETH-Anonymity.sol\":20930:20936  _token */\n      dup4\n        /* \"anonimity/1-ETH-Anonymity.sol\":20930:20946  _token.balanceOf */\n      0xffffffffffffffffffffffffffffffffffffffff\n      and\n      0x70a08231\n        /* \"anonimity/1-ETH-Anonymity.sol\":20955:20959  this */\n      address\n        /* \"anonimity/1-ETH-Anonymity.sol\":20930:20961  _token.balanceOf(address(this)) */\n      mload(0x40)\n      dup3\n      0xffffffff\n      and\n      0xe0\n      shl\n      dup2\n      mstore\n      0x04\n      add\n      dup1\n      dup3\n      0xffffffffffffffffffffffffffffffffffffffff\n      and\n      0xffffffffffffffffffffffffffffffffffffffff\n      and\n      dup2\n      mstore\n      0x20\n      add\n      swap2\n      pop\n      pop\n      0x20\n      mload(0x40)\n      dup1\n      dup4\n      sub\n      dup2\n      dup7\n      dup1\n      extcodesize\n      iszero\n        /* \"--CODEGEN--\":8:17   */\n      dup1\n        /* \"--CODEGEN--\":5:7   */\n      iszero\n      tag_411\n      jumpi\n        /* \"--CODEGEN--\":30:31   */\n      0x00\n        /* \"--CODEGEN--\":27:28   */\n      dup1\n        /* \"--CODEGEN--\":20:32   */\n      revert\n        /* \"--CODEGEN--\":5:7   */\n    tag_411:\n        /* \"anonimity/1-ETH-Anonymity.sol\":20930:20961  _token.balanceOf(address(this)) */\n      pop\n      gas\n      staticcall\n      iszero\n        /* \"--CODEGEN--\":8:17   */\n      dup1\n        /* \"--CODEGEN--\":5:7   */\n      iszero\n      tag_412\n      jumpi\n        /* \"--CODEGEN--\":45:61   */\n      returndatasize\n        /* \"--CODEGEN--\":42:43   */\n      0x00\n        /* \"--CODEGEN--\":39:40   */\n      dup1\n        /* \"--CODEGEN--\":24:62   */\n      returndatacopy\n        /* \"--CODEGEN--\":77:93   */\n      returndatasize\n        /* \"--CODEGEN--\":74:75   */\n      0x00\n        /* \"--CODEGEN--\":67:94   */\n      revert\n        /* \"--CODEGEN--\":5:7   */\n    tag_412:\n        /* \"anonimity/1-ETH-Anonymity.sol\":20930:20961  _token.balanceOf(address(this)) */\n      pop\n      pop\n      pop\n      pop\n      mload(0x40)\n      returndatasize\n        /* \"--CODEGEN--\":13:15   */\n      0x20\n        /* \"--CODEGEN--\":8:11   */\n      dup2\n        /* \"--CODEGEN--\":5:16   */\n      lt\n        /* \"--CODEGEN--\":2:4   */\n      iszero\n      tag_413\n      jumpi\n        /* \"--CODEGEN--\":29:30   */\n      0x00\n        /* \"--CODEGEN--\":26:27   */\n      dup1\n        /* \"--CODEGEN--\":19:31   */\n      revert\n        /* \"--CODEGEN--\":2:4   */\n    tag_413:\n        /* \"anonimity/1-ETH-Anonymity.sol\":20930:20961  _token.balanceOf(address(this)) */\n      dup2\n      add\n      swap1\n      dup1\n      dup1\n      mload\n      swap1\n      0x20\n      add\n      swap1\n      swap3\n      swap2\n      swap1\n      pop\n      pop\n      pop\n        /* \"anonimity/1-ETH-Anonymity.sol\":20912:20961  uint256 balance = _token.balanceOf(address(this)) */\n      swap1\n      pop\n        /* \"anonimity/1-ETH-Anonymity.sol\":20981:20988  balance */\n      dup1\n        /* \"anonimity/1-ETH-Anonymity.sol\":20971:20978  _amount */\n      dup3\n        /* \"anonimity/1-ETH-Anonymity.sol\":20971:20988  _amount > balance */\n      gt\n        /* \"anonimity/1-ETH-Anonymity.sol\":20967:21092  if (_amount > balance) {... */\n      iszero\n      tag_414\n      jumpi\n        /* \"anonimity/1-ETH-Anonymity.sol\":20998:21031  _token.safeTransfer(_to, balance) */\n      tag_415\n        /* \"anonimity/1-ETH-Anonymity.sol\":21018:21021  _to */\n      dup4\n        /* \"anonimity/1-ETH-Anonymity.sol\":21023:21030  balance */\n      dup3\n        /* \"anonimity/1-ETH-Anonymity.sol\":20998:21004  _token */\n      dup7\n        /* \"anonimity/1-ETH-Anonymity.sol\":20998:21017  _token.safeTransfer */\n      0xffffffffffffffffffffffffffffffffffffffff\n      and\n      tag_416\n      swap1\n        /* \"anonimity/1-ETH-Anonymity.sol\":20998:21031  _token.safeTransfer(_to, balance) */\n      swap3\n      swap2\n      swap1\n      0xffffffff\n      and\n      jump\t// in\n    tag_415:\n        /* \"anonimity/1-ETH-Anonymity.sol\":20967:21092  if (_amount > balance) {... */\n      jump(tag_417)\n    tag_414:\n        /* \"anonimity/1-ETH-Anonymity.sol\":21052:21085  _token.safeTransfer(_to, _amount) */\n      tag_418\n        /* \"anonimity/1-ETH-Anonymity.sol\":21072:21075  _to */\n      dup4\n        /* \"anonimity/1-ETH-Anonymity.sol\":21077:21084  _amount */\n      dup4\n        /* \"anonimity/1-ETH-Anonymity.sol\":21052:21058  _token */\n      dup7\n        /* \"anonimity/1-ETH-Anonymity.sol\":21052:21071  _token.safeTransfer */\n      0xffffffffffffffffffffffffffffffffffffffff\n      and\n      tag_416\n      swap1\n        /* \"anonimity/1-ETH-Anonymity.sol\":21052:21085  _token.safeTransfer(_to, _amount) */\n      swap3\n      swap2\n      swap1\n      0xffffffff\n      and\n      jump\t// in\n    tag_418:\n        /* \"anonimity/1-ETH-Anonymity.sol\":20967:21092  if (_amount > balance) {... */\n    tag_417:\n        /* \"anonimity/1-ETH-Anonymity.sol\":20830:21096  function safeTransfer(IERC20 _token, address _to, uint256 _amount) internal {... */\n      pop\n      pop\n      pop\n      pop\n      jump\t// out\n        /* \"anonimity/1-ETH-Anonymity.sol\":1163:1435  function div(uint256 a, uint256 b) internal pure returns (uint256) {... */\n    tag_270:\n        /* \"anonimity/1-ETH-Anonymity.sol\":1221:1228  uint256 */\n      0x00\n        /* \"anonimity/1-ETH-Anonymity.sol\":1429:1430  b */\n      dup2\n        /* \"anonimity/1-ETH-Anonymity.sol\":1425:1426  a */\n      dup4\n        /* \"anonimity/1-ETH-Anonymity.sol\":1425:1430  a / b */\n      dup2\n      tag_420\n      jumpi\n      invalid\n    tag_420:\n      div\n        /* \"anonimity/1-ETH-Anonymity.sol\":1418:1430  return a / b */\n      swap1\n      pop\n        /* \"anonimity/1-ETH-Anonymity.sol\":1163:1435  function div(uint256 a, uint256 b) internal pure returns (uint256) {... */\n      swap3\n      swap2\n      pop\n      pop\n      jump\t// out\n        /* \"anonimity/1-ETH-Anonymity.sol\":15838:16168  function calcAccumulateM87() internal view returns (uint256) {... */\n    tag_290:\n        /* \"anonimity/1-ETH-Anonymity.sol\":15890:15897  uint256 */\n      0x00\n        /* \"anonimity/1-ETH-Anonymity.sol\":15905:15919  uint256 reward */\n      dup1\n        /* \"anonimity/1-ETH-Anonymity.sol\":15922:15975  block.number.sub(lastRewardBlock).mul(rewardPerBlock) */\n      tag_422\n        /* \"anonimity/1-ETH-Anonymity.sol\":15960:15974  rewardPerBlock */\n      sload(0x74)\n        /* \"anonimity/1-ETH-Anonymity.sol\":15922:15955  block.number.sub(lastRewardBlock) */\n      tag_423\n        /* \"anonimity/1-ETH-Anonymity.sol\":15939:15954  lastRewardBlock */\n      sload(0x73)\n        /* \"anonimity/1-ETH-Anonymity.sol\":15922:15934  block.number */\n      number\n        /* \"anonimity/1-ETH-Anonymity.sol\":15922:15938  block.number.sub */\n      tag_424\n      swap1\n        /* \"anonimity/1-ETH-Anonymity.sol\":15922:15955  block.number.sub(lastRewardBlock) */\n      swap2\n      swap1\n      0xffffffff\n      and\n      jump\t// in\n    tag_423:\n        /* \"anonimity/1-ETH-Anonymity.sol\":15922:15959  block.number.sub(lastRewardBlock).mul */\n      tag_425\n      swap1\n        /* \"anonimity/1-ETH-Anonymity.sol\":15922:15975  block.number.sub(lastRewardBlock).mul(rewardPerBlock) */\n      swap2\n      swap1\n      0xffffffff\n      and\n      jump\t// in\n    tag_422:\n        /* \"anonimity/1-ETH-Anonymity.sol\":15905:15975  uint256 reward = block.number.sub(lastRewardBlock).mul(rewardPerBlock) */\n      swap1\n      pop\n        /* \"anonimity/1-ETH-Anonymity.sol\":15981:15998  uint256 remaining */\n      0x00\n        /* \"anonimity/1-ETH-Anonymity.sol\":16001:16058  M87Token.balanceOf(address(this)).sub(getAccumulateM87()) */\n      tag_426\n        /* \"anonimity/1-ETH-Anonymity.sol\":16039:16057  getAccumulateM87() */\n      tag_427\n        /* \"anonimity/1-ETH-Anonymity.sol\":16039:16055  getAccumulateM87 */\n      tag_171\n        /* \"anonimity/1-ETH-Anonymity.sol\":16039:16057  getAccumulateM87() */\n      jump\t// in\n    tag_427:\n        /* \"anonimity/1-ETH-Anonymity.sol\":16001:16009  M87Token */\n      0x6f\n      0x00\n      swap1\n      sload\n      swap1\n      0x0100\n      exp\n      swap1\n      div\n      0xffffffffffffffffffffffffffffffffffffffff\n      and\n        /* \"anonimity/1-ETH-Anonymity.sol\":16001:16019  M87Token.balanceOf */\n      0xffffffffffffffffffffffffffffffffffffffff\n      and\n      0x70a08231\n        /* \"anonimity/1-ETH-Anonymity.sol\":16028:16032  this */\n      address\n        /* \"anonimity/1-ETH-Anonymity.sol\":16001:16034  M87Token.balanceOf(address(this)) */\n      mload(0x40)\n      dup3\n      0xffffffff\n      and\n      0xe0\n      shl\n      dup2\n      mstore\n      0x04\n      add\n      dup1\n      dup3\n      0xffffffffffffffffffffffffffffffffffffffff\n      and\n      0xffffffffffffffffffffffffffffffffffffffff\n      and\n      dup2\n      mstore\n      0x20\n      add\n      swap2\n      pop\n      pop\n      0x20\n      mload(0x40)\n      dup1\n      dup4\n      sub\n      dup2\n      dup7\n      dup1\n      extcodesize\n      iszero\n        /* \"--CODEGEN--\":8:17   */\n      dup1\n        /* \"--CODEGEN--\":5:7   */\n      iszero\n      tag_428\n      jumpi\n        /* \"--CODEGEN--\":30:31   */\n      0x00\n        /* \"--CODEGEN--\":27:28   */\n      dup1\n        /* \"--CODEGEN--\":20:32   */\n      revert\n        /* \"--CODEGEN--\":5:7   */\n    tag_428:\n        /* \"anonimity/1-ETH-Anonymity.sol\":16001:16034  M87Token.balanceOf(address(this)) */\n      pop\n      gas\n      staticcall\n      iszero\n        /* \"--CODEGEN--\":8:17   */\n      dup1\n        /* \"--CODEGEN--\":5:7   */\n      iszero\n      tag_429\n      jumpi\n        /* \"--CODEGEN--\":45:61   */\n      returndatasize\n        /* \"--CODEGEN--\":42:43   */\n      0x00\n        /* \"--CODEGEN--\":39:40   */\n      dup1\n        /* \"--CODEGEN--\":24:62   */\n      returndatacopy\n        /* \"--CODEGEN--\":77:93   */\n      returndatasize\n        /* \"--CODEGEN--\":74:75   */\n      0x00\n        /* \"--CODEGEN--\":67:94   */\n      revert\n        /* \"--CODEGEN--\":5:7   */\n    tag_429:\n        /* \"anonimity/1-ETH-Anonymity.sol\":16001:16034  M87Token.balanceOf(address(this)) */\n      pop\n      pop\n      pop\n      pop\n      mload(0x40)\n      returndatasize\n        /* \"--CODEGEN--\":13:15   */\n      0x20\n        /* \"--CODEGEN--\":8:11   */\n      dup2\n        /* \"--CODEGEN--\":5:16   */\n      lt\n        /* \"--CODEGEN--\":2:4   */\n      iszero\n      tag_430\n      jumpi\n        /* \"--CODEGEN--\":29:30   */\n      0x00\n        /* \"--CODEGEN--\":26:27   */\n      dup1\n        /* \"--CODEGEN--\":19:31   */\n      revert\n        /* \"--CODEGEN--\":2:4   */\n    tag_430:\n        /* \"anonimity/1-ETH-Anonymity.sol\":16001:16034  M87Token.balanceOf(address(this)) */\n      dup2\n      add\n      swap1\n      dup1\n      dup1\n      mload\n      swap1\n      0x20\n      add\n      swap1\n      swap3\n      swap2\n      swap1\n      pop\n      pop\n      pop\n        /* \"anonimity/1-ETH-Anonymity.sol\":16001:16038  M87Token.balanceOf(address(this)).sub */\n      tag_424\n      swap1\n        /* \"anonimity/1-ETH-Anonymity.sol\":16001:16058  M87Token.balanceOf(address(this)).sub(getAccumulateM87()) */\n      swap2\n      swap1\n      0xffffffff\n      and\n      jump\t// in\n    tag_426:\n        /* \"anonimity/1-ETH-Anonymity.sol\":15981:16058  uint256 remaining = M87Token.balanceOf(address(this)).sub(getAccumulateM87()) */\n      swap1\n      pop\n        /* \"anonimity/1-ETH-Anonymity.sol\":16080:16086  reward */\n      dup2\n        /* \"anonimity/1-ETH-Anonymity.sol\":16068:16077  remaining */\n      dup2\n        /* \"anonimity/1-ETH-Anonymity.sol\":16068:16086  remaining < reward */\n      lt\n        /* \"anonimity/1-ETH-Anonymity.sol\":16064:16121  if (remaining < reward) {... */\n      iszero\n      tag_431\n      jumpi\n        /* \"anonimity/1-ETH-Anonymity.sol\":16105:16114  remaining */\n      dup1\n        /* \"anonimity/1-ETH-Anonymity.sol\":16096:16114  reward = remaining */\n      swap2\n      pop\n        /* \"anonimity/1-ETH-Anonymity.sol\":16064:16121  if (remaining < reward) {... */\n    tag_431:\n        /* \"anonimity/1-ETH-Anonymity.sol\":16133:16163  getAccumulateM87().add(reward) */\n      tag_432\n        /* \"anonimity/1-ETH-Anonymity.sol\":16156:16162  reward */\n      dup3\n        /* \"anonimity/1-ETH-Anonymity.sol\":16133:16151  getAccumulateM87() */\n      tag_433\n        /* \"anonimity/1-ETH-Anonymity.sol\":16133:16149  getAccumulateM87 */\n      tag_171\n        /* \"anonimity/1-ETH-Anonymity.sol\":16133:16151  getAccumulateM87() */\n      jump\t// in\n    tag_433:\n        /* \"anonimity/1-ETH-Anonymity.sol\":16133:16155  getAccumulateM87().add */\n      tag_293\n      swap1\n        /* \"anonimity/1-ETH-Anonymity.sol\":16133:16163  getAccumulateM87().add(reward) */\n      swap2\n      swap1\n      0xffffffff\n      and\n      jump\t// in\n    tag_432:\n        /* \"anonimity/1-ETH-Anonymity.sol\":16126:16163  return getAccumulateM87().add(reward) */\n      swap3\n      pop\n      pop\n      pop\n        /* \"anonimity/1-ETH-Anonymity.sol\":15838:16168  function calcAccumulateM87() internal view returns (uint256) {... */\n      swap1\n      jump\t// out\n        /* \"anonimity/1-ETH-Anonymity.sol\":2168:2291  function add(uint256 a, uint256 b) internal pure returns (uint256 c) {... */\n    tag_293:\n        /* \"anonimity/1-ETH-Anonymity.sol\":2226:2235  uint256 c */\n      0x00\n        /* \"anonimity/1-ETH-Anonymity.sol\":2251:2252  b */\n      dup2\n        /* \"anonimity/1-ETH-Anonymity.sol\":2247:2248  a */\n      dup4\n        /* \"anonimity/1-ETH-Anonymity.sol\":2247:2252  a + b */\n      add\n        /* \"anonimity/1-ETH-Anonymity.sol\":2243:2252  c = a + b */\n      swap1\n      pop\n        /* \"anonimity/1-ETH-Anonymity.sol\":2270:2271  a */\n      dup3\n        /* \"anonimity/1-ETH-Anonymity.sol\":2265:2266  c */\n      dup2\n        /* \"anonimity/1-ETH-Anonymity.sol\":2265:2271  c >= a */\n      lt\n      iszero\n        /* \"anonimity/1-ETH-Anonymity.sol\":2258:2272  assert(c >= a) */\n      tag_435\n      jumpi\n      invalid\n    tag_435:\n        /* \"anonimity/1-ETH-Anonymity.sol\":2285:2286  c */\n      dup1\n        /* \"anonimity/1-ETH-Anonymity.sol\":2278:2286  return c */\n      swap1\n      pop\n        /* \"anonimity/1-ETH-Anonymity.sol\":2168:2291  function add(uint256 a, uint256 b) internal pure returns (uint256 c) {... */\n      swap3\n      swap2\n      pop\n      pop\n      jump\t// out\n        /* \"anonimity/1-ETH-Anonymity.sol\":21720:23658  function swapAndShare() private {... */\n    tag_303:\n        /* \"anonimity/1-ETH-Anonymity.sol\":21781:21782  0 */\n      0x00\n        /* \"anonimity/1-ETH-Anonymity.sol\":21766:21778  collectedFee */\n      sload(0x86)\n        /* \"anonimity/1-ETH-Anonymity.sol\":21766:21782  collectedFee > 0 */\n      gt\n        /* \"anonimity/1-ETH-Anonymity.sol\":21758:21806  require(collectedFee > 0, \"Insufficient Amount\") */\n      tag_437\n      jumpi\n      mload(0x40)\n      0x08c379a000000000000000000000000000000000000000000000000000000000\n      dup2\n      mstore\n      0x04\n      add\n      dup1\n      dup1\n      0x20\n      add\n      dup3\n      dup2\n      sub\n      dup3\n      mstore\n      0x13\n      dup2\n      mstore\n      0x20\n      add\n      dup1\n      0x496e73756666696369656e7420416d6f756e7400000000000000000000000000\n      dup2\n      mstore\n      pop\n      0x20\n      add\n      swap2\n      pop\n      pop\n      mload(0x40)\n      dup1\n      swap2\n      sub\n      swap1\n      revert\n    tag_437:\n        /* \"anonimity/1-ETH-Anonymity.sol\":21812:21834  uint256 initialBalance */\n      0x00\n        /* \"anonimity/1-ETH-Anonymity.sol\":21837:21845  M87Token */\n      0x6f\n      0x00\n      swap1\n      sload\n      swap1\n      0x0100\n      exp\n      swap1\n      div\n      0xffffffffffffffffffffffffffffffffffffffff\n      and\n        /* \"anonimity/1-ETH-Anonymity.sol\":21837:21855  M87Token.balanceOf */\n      0xffffffffffffffffffffffffffffffffffffffff\n      and\n      0x70a08231\n        /* \"anonimity/1-ETH-Anonymity.sol\":21864:21868  this */\n      address\n        /* \"anonimity/1-ETH-Anonymity.sol\":21837:21870  M87Token.balanceOf(address(this)) */\n      mload(0x40)\n      dup3\n      0xffffffff\n      and\n      0xe0\n      shl\n      dup2\n      mstore\n      0x04\n      add\n      dup1\n      dup3\n      0xffffffffffffffffffffffffffffffffffffffff\n      and\n      0xffffffffffffffffffffffffffffffffffffffff\n      and\n      dup2\n      mstore\n      0x20\n      add\n      swap2\n      pop\n      pop\n      0x20\n      mload(0x40)\n      dup1\n      dup4\n      sub\n      dup2\n      dup7\n      dup1\n      extcodesize\n      iszero\n        /* \"--CODEGEN--\":8:17   */\n      dup1\n        /* \"--CODEGEN--\":5:7   */\n      iszero\n      tag_438\n      jumpi\n        /* \"--CODEGEN--\":30:31   */\n      0x00\n        /* \"--CODEGEN--\":27:28   */\n      dup1\n        /* \"--CODEGEN--\":20:32   */\n      revert\n        /* \"--CODEGEN--\":5:7   */\n    tag_438:\n        /* \"anonimity/1-ETH-Anonymity.sol\":21837:21870  M87Token.balanceOf(address(this)) */\n      pop\n      gas\n      staticcall\n      iszero\n        /* \"--CODEGEN--\":8:17   */\n      dup1\n        /* \"--CODEGEN--\":5:7   */\n      iszero\n      tag_439\n      jumpi\n        /* \"--CODEGEN--\":45:61   */\n      returndatasize\n        /* \"--CODEGEN--\":42:43   */\n      0x00\n        /* \"--CODEGEN--\":39:40   */\n      dup1\n        /* \"--CODEGEN--\":24:62   */\n      returndatacopy\n        /* \"--CODEGEN--\":77:93   */\n      returndatasize\n        /* \"--CODEGEN--\":74:75   */\n      0x00\n        /* \"--CODEGEN--\":67:94   */\n      revert\n        /* \"--CODEGEN--\":5:7   */\n    tag_439:\n        /* \"anonimity/1-ETH-Anonymity.sol\":21837:21870  M87Token.balanceOf(address(this)) */\n      pop\n      pop\n      pop\n      pop\n      mload(0x40)\n      returndatasize\n        /* \"--CODEGEN--\":13:15   */\n      0x20\n        /* \"--CODEGEN--\":8:11   */\n      dup2\n        /* \"--CODEGEN--\":5:16   */\n      lt\n        /* \"--CODEGEN--\":2:4   */\n      iszero\n      tag_440\n      jumpi\n        /* \"--CODEGEN--\":29:30   */\n      0x00\n        /* \"--CODEGEN--\":26:27   */\n      dup1\n        /* \"--CODEGEN--\":19:31   */\n      revert\n        /* \"--CODEGEN--\":2:4   */\n    tag_440:\n        /* \"anonimity/1-ETH-Anonymity.sol\":21837:21870  M87Token.balanceOf(address(this)) */\n      dup2\n      add\n      swap1\n      dup1\n      dup1\n      mload\n      swap1\n      0x20\n      add\n      swap1\n      swap3\n      swap2\n      swap1\n      pop\n      pop\n      pop\n        /* \"anonimity/1-ETH-Anonymity.sol\":21812:21870  uint256 initialBalance = M87Token.balanceOf(address(this)) */\n      swap1\n      pop\n        /* \"anonimity/1-ETH-Anonymity.sol\":21914:21935  address[] memory path */\n      0x60\n        /* \"anonimity/1-ETH-Anonymity.sol\":21952:21953  2 */\n      0x02\n        /* \"anonimity/1-ETH-Anonymity.sol\":21938:21954  new address[](2) */\n      mload(0x40)\n      swap1\n      dup1\n      dup3\n      mstore\n      dup1\n      0x20\n      mul\n      0x20\n      add\n      dup3\n      add\n      0x40\n      mstore\n      dup1\n      iszero\n      tag_441\n      jumpi\n      dup2\n      0x20\n      add\n        /* \"--CODEGEN--\":29:31   */\n      0x20\n        /* \"--CODEGEN--\":21:27   */\n      dup3\n        /* \"--CODEGEN--\":17:32   */\n      mul\n        /* \"--CODEGEN--\":117:121   */\n      dup1\n        /* \"--CODEGEN--\":105:115   */\n      codesize\n        /* \"--CODEGEN--\":97:103   */\n      dup4\n        /* \"--CODEGEN--\":88:122   */\n      codecopy\n        /* \"--CODEGEN--\":148:152   */\n      dup1\n        /* \"--CODEGEN--\":140:146   */\n      dup3\n        /* \"--CODEGEN--\":136:153   */\n      add\n        /* \"--CODEGEN--\":126:153   */\n      swap2\n      pop\n        /* \"--CODEGEN--\":0:157   */\n      pop\n        /* \"anonimity/1-ETH-Anonymity.sol\":21938:21954  new address[](2) */\n      swap1\n      pop\n    tag_441:\n      pop\n        /* \"anonimity/1-ETH-Anonymity.sol\":21914:21954  address[] memory path = new address[](2) */\n      swap1\n      pop\n        /* \"anonimity/1-ETH-Anonymity.sol\":21970:21985  uniswapV2Router */\n      0x8a\n      0x00\n      swap1\n      sload\n      swap1\n      0x0100\n      exp\n      swap1\n      div\n      0xffffffffffffffffffffffffffffffffffffffff\n      and\n        /* \"anonimity/1-ETH-Anonymity.sol\":21970:21990  uniswapV2Router.WETH */\n      0xffffffffffffffffffffffffffffffffffffffff\n      and\n      0xad5c4648\n        /* \"anonimity/1-ETH-Anonymity.sol\":21970:21992  uniswapV2Router.WETH() */\n      mload(0x40)\n      dup2\n      0xffffffff\n      and\n      0xe0\n      shl\n      dup2\n      mstore\n      0x04\n      add\n      0x20\n      mload(0x40)\n      dup1\n      dup4\n      sub\n      dup2\n      dup7\n      dup1\n      extcodesize\n      iszero\n        /* \"--CODEGEN--\":8:17   */\n      dup1\n        /* \"--CODEGEN--\":5:7   */\n      iszero\n      tag_442\n      jumpi\n        /* \"--CODEGEN--\":30:31   */\n      0x00\n        /* \"--CODEGEN--\":27:28   */\n      dup1\n        /* \"--CODEGEN--\":20:32   */\n      revert\n        /* \"--CODEGEN--\":5:7   */\n    tag_442:\n        /* \"anonimity/1-ETH-Anonymity.sol\":21970:21992  uniswapV2Router.WETH() */\n      pop\n      gas\n      staticcall\n      iszero\n        /* \"--CODEGEN--\":8:17   */\n      dup1\n        /* \"--CODEGEN--\":5:7   */\n      iszero\n      tag_443\n      jumpi\n        /* \"--CODEGEN--\":45:61   */\n      returndatasize\n        /* \"--CODEGEN--\":42:43   */\n      0x00\n        /* \"--CODEGEN--\":39:40   */\n      dup1\n        /* \"--CODEGEN--\":24:62   */\n      returndatacopy\n        /* \"--CODEGEN--\":77:93   */\n      returndatasize\n        /* \"--CODEGEN--\":74:75   */\n      0x00\n        /* \"--CODEGEN--\":67:94   */\n      revert\n        /* \"--CODEGEN--\":5:7   */\n    tag_443:\n        /* \"anonimity/1-ETH-Anonymity.sol\":21970:21992  uniswapV2Router.WETH() */\n      pop\n      pop\n      pop\n      pop\n      mload(0x40)\n      returndatasize\n        /* \"--CODEGEN--\":13:15   */\n      0x20\n        /* \"--CODEGEN--\":8:11   */\n      dup2\n        /* \"--CODEGEN--\":5:16   */\n      lt\n        /* \"--CODEGEN--\":2:4   */\n      iszero\n      tag_444\n      jumpi\n        /* \"--CODEGEN--\":29:30   */\n      0x00\n        /* \"--CODEGEN--\":26:27   */\n      dup1\n        /* \"--CODEGEN--\":19:31   */\n      revert\n        /* \"--CODEGEN--\":2:4   */\n    tag_444:\n        /* \"anonimity/1-ETH-Anonymity.sol\":21970:21992  uniswapV2Router.WETH() */\n      dup2\n      add\n      swap1\n      dup1\n      dup1\n      mload\n      swap1\n      0x20\n      add\n      swap1\n      swap3\n      swap2\n      swap1\n      pop\n      pop\n      pop\n        /* \"anonimity/1-ETH-Anonymity.sol\":21960:21964  path */\n      dup2\n        /* \"anonimity/1-ETH-Anonymity.sol\":21965:21966  0 */\n      0x00\n        /* \"anonimity/1-ETH-Anonymity.sol\":21960:21967  path[0] */\n      dup2\n      mload\n      dup2\n      lt\n      tag_445\n      jumpi\n      invalid\n    tag_445:\n      0x20\n      mul\n      0x20\n      add\n      add\n        /* \"anonimity/1-ETH-Anonymity.sol\":21960:21992  path[0] = uniswapV2Router.WETH() */\n      swap1\n      0xffffffffffffffffffffffffffffffffffffffff\n      and\n      swap1\n      dup2\n      0xffffffffffffffffffffffffffffffffffffffff\n      and\n      dup2\n      mstore\n      pop\n      pop\n        /* \"anonimity/1-ETH-Anonymity.sol\":22016:22024  M87Token */\n      0x6f\n      0x00\n      swap1\n      sload\n      swap1\n      0x0100\n      exp\n      swap1\n      div\n      0xffffffffffffffffffffffffffffffffffffffff\n      and\n        /* \"anonimity/1-ETH-Anonymity.sol\":21998:22002  path */\n      dup2\n        /* \"anonimity/1-ETH-Anonymity.sol\":22003:22004  1 */\n      0x01\n        /* \"anonimity/1-ETH-Anonymity.sol\":21998:22005  path[1] */\n      dup2\n      mload\n      dup2\n      lt\n      tag_446\n      jumpi\n      invalid\n    tag_446:\n      0x20\n      mul\n      0x20\n      add\n      add\n        /* \"anonimity/1-ETH-Anonymity.sol\":21998:22025  path[1] = address(M87Token) */\n      swap1\n      0xffffffffffffffffffffffffffffffffffffffff\n      and\n      swap1\n      dup2\n      0xffffffffffffffffffffffffffffffffffffffff\n      and\n      dup2\n      mstore\n      pop\n      pop\n        /* \"anonimity/1-ETH-Anonymity.sol\":22052:22067  uniswapV2Router */\n      0x8a\n      0x00\n      swap1\n      sload\n      swap1\n      0x0100\n      exp\n      swap1\n      div\n      0xffffffffffffffffffffffffffffffffffffffff\n      and\n        /* \"anonimity/1-ETH-Anonymity.sol\":22052:22118  uniswapV2Router.swapExactETHForTokensSupportingFeeOnTransferTokens */\n      0xffffffffffffffffffffffffffffffffffffffff\n      and\n      0xb6f9de95\n        /* \"anonimity/1-ETH-Anonymity.sol\":22125:22137  collectedFee */\n      sload(0x86)\n        /* \"anonimity/1-ETH-Anonymity.sol\":22151:22152  0 */\n      0x00\n        /* \"anonimity/1-ETH-Anonymity.sol\":22188:22192  path */\n      dup5\n        /* \"anonimity/1-ETH-Anonymity.sol\":22208:22212  this */\n      address\n        /* \"anonimity/1-ETH-Anonymity.sol\":22221:22243  block.timestamp.mul(2) */\n      tag_447\n        /* \"anonimity/1-ETH-Anonymity.sol\":22241:22242  2 */\n      0x02\n        /* \"anonimity/1-ETH-Anonymity.sol\":22221:22236  block.timestamp */\n      timestamp\n        /* \"anonimity/1-ETH-Anonymity.sol\":22221:22240  block.timestamp.mul */\n      tag_425\n      swap1\n        /* \"anonimity/1-ETH-Anonymity.sol\":22221:22243  block.timestamp.mul(2) */\n      swap2\n      swap1\n      0xffffffff\n      and\n      jump\t// in\n    tag_447:\n        /* \"anonimity/1-ETH-Anonymity.sol\":22052:22249  uniswapV2Router.swapExactETHForTokensSupportingFeeOnTransferTokens.value(collectedFee)... */\n      mload(0x40)\n      dup7\n      0xffffffff\n      and\n      0xe0\n      shl\n      dup2\n      mstore\n      0x04\n      add\n      dup1\n      dup6\n      dup2\n      mstore\n      0x20\n      add\n      dup1\n      0x20\n      add\n      dup5\n      0xffffffffffffffffffffffffffffffffffffffff\n      and\n      0xffffffffffffffffffffffffffffffffffffffff\n      and\n      dup2\n      mstore\n      0x20\n      add\n      dup4\n      dup2\n      mstore\n      0x20\n      add\n      dup3\n      dup2\n      sub\n      dup3\n      mstore\n      dup6\n      dup2\n      dup2\n      mload\n      dup2\n      mstore\n      0x20\n      add\n      swap2\n      pop\n      dup1\n      mload\n      swap1\n      0x20\n      add\n      swap1\n      0x20\n      mul\n      dup1\n      dup4\n      dup4\n        /* \"--CODEGEN--\":23:24   */\n      0x00\n        /* \"--CODEGEN--\":8:108   */\n    tag_448:\n        /* \"--CODEGEN--\":33:36   */\n      dup4\n        /* \"--CODEGEN--\":30:31   */\n      dup2\n        /* \"--CODEGEN--\":27:37   */\n      lt\n        /* \"--CODEGEN--\":8:108   */\n      iszero\n      tag_450\n      jumpi\n        /* \"--CODEGEN--\":99:100   */\n      dup1\n        /* \"--CODEGEN--\":94:97   */\n      dup3\n        /* \"--CODEGEN--\":90:101   */\n      add\n        /* \"--CODEGEN--\":84:102   */\n      mload\n        /* \"--CODEGEN--\":80:81   */\n      dup2\n        /* \"--CODEGEN--\":75:78   */\n      dup5\n        /* \"--CODEGEN--\":71:82   */\n      add\n        /* \"--CODEGEN--\":64:103   */\n      mstore\n        /* \"--CODEGEN--\":52:54   */\n      0x20\n        /* \"--CODEGEN--\":49:50   */\n      dup2\n        /* \"--CODEGEN--\":45:55   */\n      add\n        /* \"--CODEGEN--\":40:55   */\n      swap1\n      pop\n        /* \"--CODEGEN--\":8:108   */\n      jump(tag_448)\n    tag_450:\n        /* \"--CODEGEN--\":12:26   */\n      pop\n        /* \"anonimity/1-ETH-Anonymity.sol\":22052:22249  uniswapV2Router.swapExactETHForTokensSupportingFeeOnTransferTokens.value(collectedFee)... */\n      pop\n      pop\n      pop\n      swap1\n      pop\n      add\n      swap6\n      pop\n      pop\n      pop\n      pop\n      pop\n      pop\n      0x00\n      mload(0x40)\n      dup1\n      dup4\n      sub\n      dup2\n      dup6\n      dup9\n      dup1\n      extcodesize\n      iszero\n        /* \"--CODEGEN--\":8:17   */\n      dup1\n        /* \"--CODEGEN--\":5:7   */\n      iszero\n      tag_451\n      jumpi\n        /* \"--CODEGEN--\":30:31   */\n      0x00\n        /* \"--CODEGEN--\":27:28   */\n      dup1\n        /* \"--CODEGEN--\":20:32   */\n      revert\n        /* \"--CODEGEN--\":5:7   */\n    tag_451:\n        /* \"anonimity/1-ETH-Anonymity.sol\":22052:22249  uniswapV2Router.swapExactETHForTokensSupportingFeeOnTransferTokens.value(collectedFee)... */\n      pop\n      gas\n      call\n      iszero\n        /* \"--CODEGEN--\":8:17   */\n      dup1\n        /* \"--CODEGEN--\":5:7   */\n      iszero\n      tag_452\n      jumpi\n        /* \"--CODEGEN--\":45:61   */\n      returndatasize\n        /* \"--CODEGEN--\":42:43   */\n      0x00\n        /* \"--CODEGEN--\":39:40   */\n      dup1\n        /* \"--CODEGEN--\":24:62   */\n      returndatacopy\n        /* \"--CODEGEN--\":77:93   */\n      returndatasize\n        /* \"--CODEGEN--\":74:75   */\n      0x00\n        /* \"--CODEGEN--\":67:94   */\n      revert\n        /* \"--CODEGEN--\":5:7   */\n    tag_452:\n        /* \"anonimity/1-ETH-Anonymity.sol\":22052:22249  uniswapV2Router.swapExactETHForTokensSupportingFeeOnTransferTokens.value(collectedFee)... */\n      pop\n      pop\n      pop\n      pop\n      pop\n        /* \"anonimity/1-ETH-Anonymity.sol\":22292:22293  0 */\n      0x00\n        /* \"anonimity/1-ETH-Anonymity.sol\":22277:22289  collectedFee */\n      0x86\n        /* \"anonimity/1-ETH-Anonymity.sol\":22277:22293  collectedFee = 0 */\n      dup2\n      swap1\n      sstore\n      pop\n        /* \"anonimity/1-ETH-Anonymity.sol\":22300:22318  uint256 newBalance */\n      0x00\n        /* \"anonimity/1-ETH-Anonymity.sol\":22321:22374  M87Token.balanceOf(address(this)).sub(initialBalance) */\n      tag_453\n        /* \"anonimity/1-ETH-Anonymity.sol\":22359:22373  initialBalance */\n      dup4\n        /* \"anonimity/1-ETH-Anonymity.sol\":22321:22329  M87Token */\n      0x6f\n      0x00\n      swap1\n      sload\n      swap1\n      0x0100\n      exp\n      swap1\n      div\n      0xffffffffffffffffffffffffffffffffffffffff\n      and\n        /* \"anonimity/1-ETH-Anonymity.sol\":22321:22339  M87Token.balanceOf */\n      0xffffffffffffffffffffffffffffffffffffffff\n      and\n      0x70a08231\n        /* \"anonimity/1-ETH-Anonymity.sol\":22348:22352  this */\n      address\n        /* \"anonimity/1-ETH-Anonymity.sol\":22321:22354  M87Token.balanceOf(address(this)) */\n      mload(0x40)\n      dup3\n      0xffffffff\n      and\n      0xe0\n      shl\n      dup2\n      mstore\n      0x04\n      add\n      dup1\n      dup3\n      0xffffffffffffffffffffffffffffffffffffffff\n      and\n      0xffffffffffffffffffffffffffffffffffffffff\n      and\n      dup2\n      mstore\n      0x20\n      add\n      swap2\n      pop\n      pop\n      0x20\n      mload(0x40)\n      dup1\n      dup4\n      sub\n      dup2\n      dup7\n      dup1\n      extcodesize\n      iszero\n        /* \"--CODEGEN--\":8:17   */\n      dup1\n        /* \"--CODEGEN--\":5:7   */\n      iszero\n      tag_454\n      jumpi\n        /* \"--CODEGEN--\":30:31   */\n      0x00\n        /* \"--CODEGEN--\":27:28   */\n      dup1\n        /* \"--CODEGEN--\":20:32   */\n      revert\n        /* \"--CODEGEN--\":5:7   */\n    tag_454:\n        /* \"anonimity/1-ETH-Anonymity.sol\":22321:22354  M87Token.balanceOf(address(this)) */\n      pop\n      gas\n      staticcall\n      iszero\n        /* \"--CODEGEN--\":8:17   */\n      dup1\n        /* \"--CODEGEN--\":5:7   */\n      iszero\n      tag_455\n      jumpi\n        /* \"--CODEGEN--\":45:61   */\n      returndatasize\n        /* \"--CODEGEN--\":42:43   */\n      0x00\n        /* \"--CODEGEN--\":39:40   */\n      dup1\n        /* \"--CODEGEN--\":24:62   */\n      returndatacopy\n        /* \"--CODEGEN--\":77:93   */\n      returndatasize\n        /* \"--CODEGEN--\":74:75   */\n      0x00\n        /* \"--CODEGEN--\":67:94   */\n      revert\n        /* \"--CODEGEN--\":5:7   */\n    tag_455:\n        /* \"anonimity/1-ETH-Anonymity.sol\":22321:22354  M87Token.balanceOf(address(this)) */\n      pop\n      pop\n      pop\n      pop\n      mload(0x40)\n      returndatasize\n        /* \"--CODEGEN--\":13:15   */\n      0x20\n        /* \"--CODEGEN--\":8:11   */\n      dup2\n        /* \"--CODEGEN--\":5:16   */\n      lt\n        /* \"--CODEGEN--\":2:4   */\n      iszero\n      tag_456\n      jumpi\n        /* \"--CODEGEN--\":29:30   */\n      0x00\n        /* \"--CODEGEN--\":26:27   */\n      dup1\n        /* \"--CODEGEN--\":19:31   */\n      revert\n        /* \"--CODEGEN--\":2:4   */\n    tag_456:\n        /* \"anonimity/1-ETH-Anonymity.sol\":22321:22354  M87Token.balanceOf(address(this)) */\n      dup2\n      add\n      swap1\n      dup1\n      dup1\n      mload\n      swap1\n      0x20\n      add\n      swap1\n      swap3\n      swap2\n      swap1\n      pop\n      pop\n      pop\n        /* \"anonimity/1-ETH-Anonymity.sol\":22321:22358  M87Token.balanceOf(address(this)).sub */\n      tag_424\n      swap1\n        /* \"anonimity/1-ETH-Anonymity.sol\":22321:22374  M87Token.balanceOf(address(this)).sub(initialBalance) */\n      swap2\n      swap1\n      0xffffffff\n      and\n      jump\t// in\n    tag_453:\n        /* \"anonimity/1-ETH-Anonymity.sol\":22300:22374  uint256 newBalance = M87Token.balanceOf(address(this)).sub(initialBalance) */\n      swap1\n      pop\n        /* \"anonimity/1-ETH-Anonymity.sol\":22404:22405  0 */\n      0x00\n        /* \"anonimity/1-ETH-Anonymity.sol\":22385:22398  shareOfReward */\n      0x79\n        /* \"anonimity/1-ETH-Anonymity.sol\":22399:22400  0 */\n      0x00\n        /* \"anonimity/1-ETH-Anonymity.sol\":22385:22401  shareOfReward[0] */\n      0x05\n      dup2\n      lt\n      tag_457\n      jumpi\n      invalid\n    tag_457:\n      add\n      sload\n        /* \"anonimity/1-ETH-Anonymity.sol\":22385:22405  shareOfReward[0] > 0 */\n      gt\n        /* \"anonimity/1-ETH-Anonymity.sol\":22381:22538  if( shareOfReward[0] > 0 ) {... */\n      iszero\n      tag_459\n      jumpi\n        /* \"anonimity/1-ETH-Anonymity.sol\":22416:22424  M87Token */\n      0x6f\n      0x00\n      swap1\n      sload\n      swap1\n      0x0100\n      exp\n      swap1\n      div\n      0xffffffffffffffffffffffffffffffffffffffff\n      and\n        /* \"anonimity/1-ETH-Anonymity.sol\":22416:22433  M87Token.transfer */\n      0xffffffffffffffffffffffffffffffffffffffff\n      and\n      0xa9059cbb\n        /* \"anonimity/1-ETH-Anonymity.sol\":22443:22485  0x000000000000000000000000000000000000dEaD */\n      0xdead\n        /* \"anonimity/1-ETH-Anonymity.sol\":22488:22529  newBalance.mul(shareOfReward[0]).div(100) */\n      tag_460\n        /* \"anonimity/1-ETH-Anonymity.sol\":22525:22528  100 */\n      0x64\n        /* \"anonimity/1-ETH-Anonymity.sol\":22488:22520  newBalance.mul(shareOfReward[0]) */\n      tag_461\n        /* \"anonimity/1-ETH-Anonymity.sol\":22503:22516  shareOfReward */\n      0x79\n        /* \"anonimity/1-ETH-Anonymity.sol\":22517:22518  0 */\n      0x00\n        /* \"anonimity/1-ETH-Anonymity.sol\":22503:22519  shareOfReward[0] */\n      0x05\n      dup2\n      lt\n      tag_462\n      jumpi\n      invalid\n    tag_462:\n      add\n      sload\n        /* \"anonimity/1-ETH-Anonymity.sol\":22488:22498  newBalance */\n      dup8\n        /* \"anonimity/1-ETH-Anonymity.sol\":22488:22502  newBalance.mul */\n      tag_425\n      swap1\n        /* \"anonimity/1-ETH-Anonymity.sol\":22488:22520  newBalance.mul(shareOfReward[0]) */\n      swap2\n      swap1\n      0xffffffff\n      and\n      jump\t// in\n    tag_461:\n        /* \"anonimity/1-ETH-Anonymity.sol\":22488:22524  newBalance.mul(shareOfReward[0]).div */\n      tag_270\n      swap1\n        /* \"anonimity/1-ETH-Anonymity.sol\":22488:22529  newBalance.mul(shareOfReward[0]).div(100) */\n      swap2\n      swap1\n      0xffffffff\n      and\n      jump\t// in\n    tag_460:\n        /* \"anonimity/1-ETH-Anonymity.sol\":22416:22531  M87Token.transfer( address(0x000000000000000000000000000000000000dEaD), newBalance.mul(shareOfReward[0]).div(100) ) */\n      mload(0x40)\n      dup4\n      0xffffffff\n      and\n      0xe0\n      shl\n      dup2\n      mstore\n      0x04\n      add\n      dup1\n      dup4\n      0xffffffffffffffffffffffffffffffffffffffff\n      and\n      0xffffffffffffffffffffffffffffffffffffffff\n      and\n      dup2\n      mstore\n      0x20\n      add\n      dup3\n      dup2\n      mstore\n      0x20\n      add\n      swap3\n      pop\n      pop\n      pop\n      0x20\n      mload(0x40)\n      dup1\n      dup4\n      sub\n      dup2\n      0x00\n      dup8\n      dup1\n      extcodesize\n      iszero\n        /* \"--CODEGEN--\":8:17   */\n      dup1\n        /* \"--CODEGEN--\":5:7   */\n      iszero\n      tag_464\n      jumpi\n        /* \"--CODEGEN--\":30:31   */\n      0x00\n        /* \"--CODEGEN--\":27:28   */\n      dup1\n        /* \"--CODEGEN--\":20:32   */\n      revert\n        /* \"--CODEGEN--\":5:7   */\n    tag_464:\n        /* \"anonimity/1-ETH-Anonymity.sol\":22416:22531  M87Token.transfer( address(0x000000000000000000000000000000000000dEaD), newBalance.mul(shareOfReward[0]).div(100) ) */\n      pop\n      gas\n      call\n      iszero\n        /* \"--CODEGEN--\":8:17   */\n      dup1\n        /* \"--CODEGEN--\":5:7   */\n      iszero\n      tag_465\n      jumpi\n        /* \"--CODEGEN--\":45:61   */\n      returndatasize\n        /* \"--CODEGEN--\":42:43   */\n      0x00\n        /* \"--CODEGEN--\":39:40   */\n      dup1\n        /* \"--CODEGEN--\":24:62   */\n      returndatacopy\n        /* \"--CODEGEN--\":77:93   */\n      returndatasize\n        /* \"--CODEGEN--\":74:75   */\n      0x00\n        /* \"--CODEGEN--\":67:94   */\n      revert\n        /* \"--CODEGEN--\":5:7   */\n    tag_465:\n        /* \"anonimity/1-ETH-Anonymity.sol\":22416:22531  M87Token.transfer( address(0x000000000000000000000000000000000000dEaD), newBalance.mul(shareOfReward[0]).div(100) ) */\n      pop\n      pop\n      pop\n      pop\n      mload(0x40)\n      returndatasize\n        /* \"--CODEGEN--\":13:15   */\n      0x20\n        /* \"--CODEGEN--\":8:11   */\n      dup2\n        /* \"--CODEGEN--\":5:16   */\n      lt\n        /* \"--CODEGEN--\":2:4   */\n      iszero\n      tag_466\n      jumpi\n        /* \"--CODEGEN--\":29:30   */\n      0x00\n        /* \"--CODEGEN--\":26:27   */\n      dup1\n        /* \"--CODEGEN--\":19:31   */\n      revert\n        /* \"--CODEGEN--\":2:4   */\n    tag_466:\n        /* \"anonimity/1-ETH-Anonymity.sol\":22416:22531  M87Token.transfer( address(0x000000000000000000000000000000000000dEaD), newBalance.mul(shareOfReward[0]).div(100) ) */\n      dup2\n      add\n      swap1\n      dup1\n      dup1\n      mload\n      swap1\n      0x20\n      add\n      swap1\n      swap3\n      swap2\n      swap1\n      pop\n      pop\n      pop\n      pop\n        /* \"anonimity/1-ETH-Anonymity.sol\":22381:22538  if( shareOfReward[0] > 0 ) {... */\n    tag_459:\n        /* \"anonimity/1-ETH-Anonymity.sol\":22571:22572  0 */\n      0x00\n        /* \"anonimity/1-ETH-Anonymity.sol\":22548:22573  poolList[0] != address(0) */\n      0xffffffffffffffffffffffffffffffffffffffff\n      and\n        /* \"anonimity/1-ETH-Anonymity.sol\":22548:22556  poolList */\n      0x7e\n        /* \"anonimity/1-ETH-Anonymity.sol\":22557:22558  0 */\n      0x00\n        /* \"anonimity/1-ETH-Anonymity.sol\":22548:22559  poolList[0] */\n      0x04\n      dup2\n      lt\n      tag_467\n      jumpi\n      invalid\n    tag_467:\n      add\n      0x00\n      swap1\n      sload\n      swap1\n      0x0100\n      exp\n      swap1\n      div\n      0xffffffffffffffffffffffffffffffffffffffff\n      and\n        /* \"anonimity/1-ETH-Anonymity.sol\":22548:22573  poolList[0] != address(0) */\n      0xffffffffffffffffffffffffffffffffffffffff\n      and\n      eq\n      iszero\n        /* \"anonimity/1-ETH-Anonymity.sol\":22548:22597  poolList[0] != address(0) && shareOfReward[1] > 0 */\n      dup1\n      iszero\n      tag_469\n      jumpi\n      pop\n        /* \"anonimity/1-ETH-Anonymity.sol\":22596:22597  0 */\n      0x00\n        /* \"anonimity/1-ETH-Anonymity.sol\":22577:22590  shareOfReward */\n      0x79\n        /* \"anonimity/1-ETH-Anonymity.sol\":22591:22592  1 */\n      0x01\n        /* \"anonimity/1-ETH-Anonymity.sol\":22577:22593  shareOfReward[1] */\n      0x05\n      dup2\n      lt\n      tag_470\n      jumpi\n      invalid\n    tag_470:\n      add\n      sload\n        /* \"anonimity/1-ETH-Anonymity.sol\":22577:22597  shareOfReward[1] > 0 */\n      gt\n        /* \"anonimity/1-ETH-Anonymity.sol\":22548:22597  poolList[0] != address(0) && shareOfReward[1] > 0 */\n    tag_469:\n        /* \"anonimity/1-ETH-Anonymity.sol\":22548:22629  poolList[0] != address(0) && shareOfReward[1] > 0 && poolList[0] != address(this) */\n      dup1\n      iszero\n      tag_472\n      jumpi\n      pop\n        /* \"anonimity/1-ETH-Anonymity.sol\":22624:22628  this */\n      address\n        /* \"anonimity/1-ETH-Anonymity.sol\":22601:22629  poolList[0] != address(this) */\n      0xffffffffffffffffffffffffffffffffffffffff\n      and\n        /* \"anonimity/1-ETH-Anonymity.sol\":22601:22609  poolList */\n      0x7e\n        /* \"anonimity/1-ETH-Anonymity.sol\":22610:22611  0 */\n      0x00\n        /* \"anonimity/1-ETH-Anonymity.sol\":22601:22612  poolList[0] */\n      0x04\n      dup2\n      lt\n      tag_473\n      jumpi\n      invalid\n    tag_473:\n      add\n      0x00\n      swap1\n      sload\n      swap1\n      0x0100\n      exp\n      swap1\n      div\n      0xffffffffffffffffffffffffffffffffffffffff\n      and\n        /* \"anonimity/1-ETH-Anonymity.sol\":22601:22629  poolList[0] != address(this) */\n      0xffffffffffffffffffffffffffffffffffffffff\n      and\n      eq\n      iszero\n        /* \"anonimity/1-ETH-Anonymity.sol\":22548:22629  poolList[0] != address(0) && shareOfReward[1] > 0 && poolList[0] != address(this) */\n    tag_472:\n        /* \"anonimity/1-ETH-Anonymity.sol\":22544:22817  if( poolList[0] != address(0) && shareOfReward[1] > 0 && poolList[0] != address(this) ) {... */\n      iszero\n      tag_475\n      jumpi\n        /* \"anonimity/1-ETH-Anonymity.sol\":22659:22724  rewardAmounts[0].add( newBalance.mul(shareOfReward[1]).div(100) ) */\n      tag_476\n        /* \"anonimity/1-ETH-Anonymity.sol\":22681:22722  newBalance.mul(shareOfReward[1]).div(100) */\n      tag_477\n        /* \"anonimity/1-ETH-Anonymity.sol\":22718:22721  100 */\n      0x64\n        /* \"anonimity/1-ETH-Anonymity.sol\":22681:22713  newBalance.mul(shareOfReward[1]) */\n      tag_478\n        /* \"anonimity/1-ETH-Anonymity.sol\":22696:22709  shareOfReward */\n      0x79\n        /* \"anonimity/1-ETH-Anonymity.sol\":22710:22711  1 */\n      0x01\n        /* \"anonimity/1-ETH-Anonymity.sol\":22696:22712  shareOfReward[1] */\n      0x05\n      dup2\n      lt\n      tag_479\n      jumpi\n      invalid\n    tag_479:\n      add\n      sload\n        /* \"anonimity/1-ETH-Anonymity.sol\":22681:22691  newBalance */\n      dup6\n        /* \"anonimity/1-ETH-Anonymity.sol\":22681:22695  newBalance.mul */\n      tag_425\n      swap1\n        /* \"anonimity/1-ETH-Anonymity.sol\":22681:22713  newBalance.mul(shareOfReward[1]) */\n      swap2\n      swap1\n      0xffffffff\n      and\n      jump\t// in\n    tag_478:\n        /* \"anonimity/1-ETH-Anonymity.sol\":22681:22717  newBalance.mul(shareOfReward[1]).div */\n      tag_270\n      swap1\n        /* \"anonimity/1-ETH-Anonymity.sol\":22681:22722  newBalance.mul(shareOfReward[1]).div(100) */\n      swap2\n      swap1\n      0xffffffff\n      and\n      jump\t// in\n    tag_477:\n        /* \"anonimity/1-ETH-Anonymity.sol\":22659:22672  rewardAmounts */\n      0x82\n        /* \"anonimity/1-ETH-Anonymity.sol\":22673:22674  0 */\n      0x00\n        /* \"anonimity/1-ETH-Anonymity.sol\":22659:22675  rewardAmounts[0] */\n      0x04\n      dup2\n      lt\n      tag_481\n      jumpi\n      invalid\n    tag_481:\n      add\n      sload\n        /* \"anonimity/1-ETH-Anonymity.sol\":22659:22679  rewardAmounts[0].add */\n      tag_293\n      swap1\n        /* \"anonimity/1-ETH-Anonymity.sol\":22659:22724  rewardAmounts[0].add( newBalance.mul(shareOfReward[1]).div(100) ) */\n      swap2\n      swap1\n      0xffffffff\n      and\n      jump\t// in\n    tag_476:\n        /* \"anonimity/1-ETH-Anonymity.sol\":22640:22653  rewardAmounts */\n      0x82\n        /* \"anonimity/1-ETH-Anonymity.sol\":22654:22655  0 */\n      0x00\n        /* \"anonimity/1-ETH-Anonymity.sol\":22640:22656  rewardAmounts[0] */\n      0x04\n      dup2\n      lt\n      tag_483\n      jumpi\n      invalid\n    tag_483:\n      add\n        /* \"anonimity/1-ETH-Anonymity.sol\":22640:22724  rewardAmounts[0] = rewardAmounts[0].add( newBalance.mul(shareOfReward[1]).div(100) ) */\n      dup2\n      swap1\n      sstore\n      pop\n        /* \"anonimity/1-ETH-Anonymity.sol\":22544:22817  if( poolList[0] != address(0) && shareOfReward[1] > 0 && poolList[0] != address(this) ) {... */\n    tag_475:\n        /* \"anonimity/1-ETH-Anonymity.sol\":22850:22851  0 */\n      0x00\n        /* \"anonimity/1-ETH-Anonymity.sol\":22827:22852  poolList[1] != address(0) */\n      0xffffffffffffffffffffffffffffffffffffffff\n      and\n        /* \"anonimity/1-ETH-Anonymity.sol\":22827:22835  poolList */\n      0x7e\n        /* \"anonimity/1-ETH-Anonymity.sol\":22836:22837  1 */\n      0x01\n        /* \"anonimity/1-ETH-Anonymity.sol\":22827:22838  poolList[1] */\n      0x04\n      dup2\n      lt\n      tag_485\n      jumpi\n      invalid\n    tag_485:\n      add\n      0x00\n      swap1\n      sload\n      swap1\n      0x0100\n      exp\n      swap1\n      div\n      0xffffffffffffffffffffffffffffffffffffffff\n      and\n        /* \"anonimity/1-ETH-Anonymity.sol\":22827:22852  poolList[1] != address(0) */\n      0xffffffffffffffffffffffffffffffffffffffff\n      and\n      eq\n      iszero\n        /* \"anonimity/1-ETH-Anonymity.sol\":22827:22876  poolList[1] != address(0) && shareOfReward[2] > 0 */\n      dup1\n      iszero\n      tag_487\n      jumpi\n      pop\n        /* \"anonimity/1-ETH-Anonymity.sol\":22875:22876  0 */\n      0x00\n        /* \"anonimity/1-ETH-Anonymity.sol\":22856:22869  shareOfReward */\n      0x79\n        /* \"anonimity/1-ETH-Anonymity.sol\":22870:22871  2 */\n      0x02\n        /* \"anonimity/1-ETH-Anonymity.sol\":22856:22872  shareOfReward[2] */\n      0x05\n      dup2\n      lt\n      tag_488\n      jumpi\n      invalid\n    tag_488:\n      add\n      sload\n        /* \"anonimity/1-ETH-Anonymity.sol\":22856:22876  shareOfReward[2] > 0 */\n      gt\n        /* \"anonimity/1-ETH-Anonymity.sol\":22827:22876  poolList[1] != address(0) && shareOfReward[2] > 0 */\n    tag_487:\n        /* \"anonimity/1-ETH-Anonymity.sol\":22827:22908  poolList[1] != address(0) && shareOfReward[2] > 0 && poolList[1] != address(this) */\n      dup1\n      iszero\n      tag_490\n      jumpi\n      pop\n        /* \"anonimity/1-ETH-Anonymity.sol\":22903:22907  this */\n      address\n        /* \"anonimity/1-ETH-Anonymity.sol\":22880:22908  poolList[1] != address(this) */\n      0xffffffffffffffffffffffffffffffffffffffff\n      and\n        /* \"anonimity/1-ETH-Anonymity.sol\":22880:22888  poolList */\n      0x7e\n        /* \"anonimity/1-ETH-Anonymity.sol\":22889:22890  1 */\n      0x01\n        /* \"anonimity/1-ETH-Anonymity.sol\":22880:22891  poolList[1] */\n      0x04\n      dup2\n      lt\n      tag_491\n      jumpi\n      invalid\n    tag_491:\n      add\n      0x00\n      swap1\n      sload\n      swap1\n      0x0100\n      exp\n      swap1\n      div\n      0xffffffffffffffffffffffffffffffffffffffff\n      and\n        /* \"anonimity/1-ETH-Anonymity.sol\":22880:22908  poolList[1] != address(this) */\n      0xffffffffffffffffffffffffffffffffffffffff\n      and\n      eq\n      iszero\n        /* \"anonimity/1-ETH-Anonymity.sol\":22827:22908  poolList[1] != address(0) && shareOfReward[2] > 0 && poolList[1] != address(this) */\n    tag_490:\n        /* \"anonimity/1-ETH-Anonymity.sol\":22823:23096  if( poolList[1] != address(0) && shareOfReward[2] > 0 && poolList[1] != address(this) ) {... */\n      iszero\n      tag_493\n      jumpi\n        /* \"anonimity/1-ETH-Anonymity.sol\":22938:23003  rewardAmounts[1].add( newBalance.mul(shareOfReward[2]).div(100) ) */\n      tag_494\n        /* \"anonimity/1-ETH-Anonymity.sol\":22960:23001  newBalance.mul(shareOfReward[2]).div(100) */\n      tag_495\n        /* \"anonimity/1-ETH-Anonymity.sol\":22997:23000  100 */\n      0x64\n        /* \"anonimity/1-ETH-Anonymity.sol\":22960:22992  newBalance.mul(shareOfReward[2]) */\n      tag_496\n        /* \"anonimity/1-ETH-Anonymity.sol\":22975:22988  shareOfReward */\n      0x79\n        /* \"anonimity/1-ETH-Anonymity.sol\":22989:22990  2 */\n      0x02\n        /* \"anonimity/1-ETH-Anonymity.sol\":22975:22991  shareOfReward[2] */\n      0x05\n      dup2\n      lt\n      tag_497\n      jumpi\n      invalid\n    tag_497:\n      add\n      sload\n        /* \"anonimity/1-ETH-Anonymity.sol\":22960:22970  newBalance */\n      dup6\n        /* \"anonimity/1-ETH-Anonymity.sol\":22960:22974  newBalance.mul */\n      tag_425\n      swap1\n        /* \"anonimity/1-ETH-Anonymity.sol\":22960:22992  newBalance.mul(shareOfReward[2]) */\n      swap2\n      swap1\n      0xffffffff\n      and\n      jump\t// in\n    tag_496:\n        /* \"anonimity/1-ETH-Anonymity.sol\":22960:22996  newBalance.mul(shareOfReward[2]).div */\n      tag_270\n      swap1\n        /* \"anonimity/1-ETH-Anonymity.sol\":22960:23001  newBalance.mul(shareOfReward[2]).div(100) */\n      swap2\n      swap1\n      0xffffffff\n      and\n      jump\t// in\n    tag_495:\n        /* \"anonimity/1-ETH-Anonymity.sol\":22938:22951  rewardAmounts */\n      0x82\n        /* \"anonimity/1-ETH-Anonymity.sol\":22952:22953  1 */\n      0x01\n        /* \"anonimity/1-ETH-Anonymity.sol\":22938:22954  rewardAmounts[1] */\n      0x04\n      dup2\n      lt\n      tag_499\n      jumpi\n      invalid\n    tag_499:\n      add\n      sload\n        /* \"anonimity/1-ETH-Anonymity.sol\":22938:22958  rewardAmounts[1].add */\n      tag_293\n      swap1\n        /* \"anonimity/1-ETH-Anonymity.sol\":22938:23003  rewardAmounts[1].add( newBalance.mul(shareOfReward[2]).div(100) ) */\n      swap2\n      swap1\n      0xffffffff\n      and\n      jump\t// in\n    tag_494:\n        /* \"anonimity/1-ETH-Anonymity.sol\":22919:22932  rewardAmounts */\n      0x82\n        /* \"anonimity/1-ETH-Anonymity.sol\":22933:22934  1 */\n      0x01\n        /* \"anonimity/1-ETH-Anonymity.sol\":22919:22935  rewardAmounts[1] */\n      0x04\n      dup2\n      lt\n      tag_501\n      jumpi\n      invalid\n    tag_501:\n      add\n        /* \"anonimity/1-ETH-Anonymity.sol\":22919:23003  rewardAmounts[1] = rewardAmounts[1].add( newBalance.mul(shareOfReward[2]).div(100) ) */\n      dup2\n      swap1\n      sstore\n      pop\n        /* \"anonimity/1-ETH-Anonymity.sol\":22823:23096  if( poolList[1] != address(0) && shareOfReward[2] > 0 && poolList[1] != address(this) ) {... */\n    tag_493:\n        /* \"anonimity/1-ETH-Anonymity.sol\":23129:23130  0 */\n      0x00\n        /* \"anonimity/1-ETH-Anonymity.sol\":23106:23131  poolList[2] != address(0) */\n      0xffffffffffffffffffffffffffffffffffffffff\n      and\n        /* \"anonimity/1-ETH-Anonymity.sol\":23106:23114  poolList */\n      0x7e\n        /* \"anonimity/1-ETH-Anonymity.sol\":23115:23116  2 */\n      0x02\n        /* \"anonimity/1-ETH-Anonymity.sol\":23106:23117  poolList[2] */\n      0x04\n      dup2\n      lt\n      tag_503\n      jumpi\n      invalid\n    tag_503:\n      add\n      0x00\n      swap1\n      sload\n      swap1\n      0x0100\n      exp\n      swap1\n      div\n      0xffffffffffffffffffffffffffffffffffffffff\n      and\n        /* \"anonimity/1-ETH-Anonymity.sol\":23106:23131  poolList[2] != address(0) */\n      0xffffffffffffffffffffffffffffffffffffffff\n      and\n      eq\n      iszero\n        /* \"anonimity/1-ETH-Anonymity.sol\":23106:23155  poolList[2] != address(0) && shareOfReward[3] > 0 */\n      dup1\n      iszero\n      tag_505\n      jumpi\n      pop\n        /* \"anonimity/1-ETH-Anonymity.sol\":23154:23155  0 */\n      0x00\n        /* \"anonimity/1-ETH-Anonymity.sol\":23135:23148  shareOfReward */\n      0x79\n        /* \"anonimity/1-ETH-Anonymity.sol\":23149:23150  3 */\n      0x03\n        /* \"anonimity/1-ETH-Anonymity.sol\":23135:23151  shareOfReward[3] */\n      0x05\n      dup2\n      lt\n      tag_506\n      jumpi\n      invalid\n    tag_506:\n      add\n      sload\n        /* \"anonimity/1-ETH-Anonymity.sol\":23135:23155  shareOfReward[3] > 0 */\n      gt\n        /* \"anonimity/1-ETH-Anonymity.sol\":23106:23155  poolList[2] != address(0) && shareOfReward[3] > 0 */\n    tag_505:\n        /* \"anonimity/1-ETH-Anonymity.sol\":23106:23187  poolList[2] != address(0) && shareOfReward[3] > 0 && poolList[2] != address(this) */\n      dup1\n      iszero\n      tag_508\n      jumpi\n      pop\n        /* \"anonimity/1-ETH-Anonymity.sol\":23182:23186  this */\n      address\n        /* \"anonimity/1-ETH-Anonymity.sol\":23159:23187  poolList[2] != address(this) */\n      0xffffffffffffffffffffffffffffffffffffffff\n      and\n        /* \"anonimity/1-ETH-Anonymity.sol\":23159:23167  poolList */\n      0x7e\n        /* \"anonimity/1-ETH-Anonymity.sol\":23168:23169  2 */\n      0x02\n        /* \"anonimity/1-ETH-Anonymity.sol\":23159:23170  poolList[2] */\n      0x04\n      dup2\n      lt\n      tag_509\n      jumpi\n      invalid\n    tag_509:\n      add\n      0x00\n      swap1\n      sload\n      swap1\n      0x0100\n      exp\n      swap1\n      div\n      0xffffffffffffffffffffffffffffffffffffffff\n      and\n        /* \"anonimity/1-ETH-Anonymity.sol\":23159:23187  poolList[2] != address(this) */\n      0xffffffffffffffffffffffffffffffffffffffff\n      and\n      eq\n      iszero\n        /* \"anonimity/1-ETH-Anonymity.sol\":23106:23187  poolList[2] != address(0) && shareOfReward[3] > 0 && poolList[2] != address(this) */\n    tag_508:\n        /* \"anonimity/1-ETH-Anonymity.sol\":23102:23375  if( poolList[2] != address(0) && shareOfReward[3] > 0 && poolList[2] != address(this) ) {... */\n      iszero\n      tag_511\n      jumpi\n        /* \"anonimity/1-ETH-Anonymity.sol\":23217:23282  rewardAmounts[2].add( newBalance.mul(shareOfReward[3]).div(100) ) */\n      tag_512\n        /* \"anonimity/1-ETH-Anonymity.sol\":23239:23280  newBalance.mul(shareOfReward[3]).div(100) */\n      tag_513\n        /* \"anonimity/1-ETH-Anonymity.sol\":23276:23279  100 */\n      0x64\n        /* \"anonimity/1-ETH-Anonymity.sol\":23239:23271  newBalance.mul(shareOfReward[3]) */\n      tag_514\n        /* \"anonimity/1-ETH-Anonymity.sol\":23254:23267  shareOfReward */\n      0x79\n        /* \"anonimity/1-ETH-Anonymity.sol\":23268:23269  3 */\n      0x03\n        /* \"anonimity/1-ETH-Anonymity.sol\":23254:23270  shareOfReward[3] */\n      0x05\n      dup2\n      lt\n      tag_515\n      jumpi\n      invalid\n    tag_515:\n      add\n      sload\n        /* \"anonimity/1-ETH-Anonymity.sol\":23239:23249  newBalance */\n      dup6\n        /* \"anonimity/1-ETH-Anonymity.sol\":23239:23253  newBalance.mul */\n      tag_425\n      swap1\n        /* \"anonimity/1-ETH-Anonymity.sol\":23239:23271  newBalance.mul(shareOfReward[3]) */\n      swap2\n      swap1\n      0xffffffff\n      and\n      jump\t// in\n    tag_514:\n        /* \"anonimity/1-ETH-Anonymity.sol\":23239:23275  newBalance.mul(shareOfReward[3]).div */\n      tag_270\n      swap1\n        /* \"anonimity/1-ETH-Anonymity.sol\":23239:23280  newBalance.mul(shareOfReward[3]).div(100) */\n      swap2\n      swap1\n      0xffffffff\n      and\n      jump\t// in\n    tag_513:\n        /* \"anonimity/1-ETH-Anonymity.sol\":23217:23230  rewardAmounts */\n      0x82\n        /* \"anonimity/1-ETH-Anonymity.sol\":23231:23232  2 */\n      0x02\n        /* \"anonimity/1-ETH-Anonymity.sol\":23217:23233  rewardAmounts[2] */\n      0x04\n      dup2\n      lt\n      tag_517\n      jumpi\n      invalid\n    tag_517:\n      add\n      sload\n        /* \"anonimity/1-ETH-Anonymity.sol\":23217:23237  rewardAmounts[2].add */\n      tag_293\n      swap1\n        /* \"anonimity/1-ETH-Anonymity.sol\":23217:23282  rewardAmounts[2].add( newBalance.mul(shareOfReward[3]).div(100) ) */\n      swap2\n      swap1\n      0xffffffff\n      and\n      jump\t// in\n    tag_512:\n        /* \"anonimity/1-ETH-Anonymity.sol\":23198:23211  rewardAmounts */\n      0x82\n        /* \"anonimity/1-ETH-Anonymity.sol\":23212:23213  2 */\n      0x02\n        /* \"anonimity/1-ETH-Anonymity.sol\":23198:23214  rewardAmounts[2] */\n      0x04\n      dup2\n      lt\n      tag_519\n      jumpi\n      invalid\n    tag_519:\n      add\n        /* \"anonimity/1-ETH-Anonymity.sol\":23198:23282  rewardAmounts[2] = rewardAmounts[2].add( newBalance.mul(shareOfReward[3]).div(100) ) */\n      dup2\n      swap1\n      sstore\n      pop\n        /* \"anonimity/1-ETH-Anonymity.sol\":23102:23375  if( poolList[2] != address(0) && shareOfReward[3] > 0 && poolList[2] != address(this) ) {... */\n    tag_511:\n        /* \"anonimity/1-ETH-Anonymity.sol\":23408:23409  0 */\n      0x00\n        /* \"anonimity/1-ETH-Anonymity.sol\":23385:23410  poolList[3] != address(0) */\n      0xffffffffffffffffffffffffffffffffffffffff\n      and\n        /* \"anonimity/1-ETH-Anonymity.sol\":23385:23393  poolList */\n      0x7e\n        /* \"anonimity/1-ETH-Anonymity.sol\":23394:23395  3 */\n      0x03\n        /* \"anonimity/1-ETH-Anonymity.sol\":23385:23396  poolList[3] */\n      0x04\n      dup2\n      lt\n      tag_521\n      jumpi\n      invalid\n    tag_521:\n      add\n      0x00\n      swap1\n      sload\n      swap1\n      0x0100\n      exp\n      swap1\n      div\n      0xffffffffffffffffffffffffffffffffffffffff\n      and\n        /* \"anonimity/1-ETH-Anonymity.sol\":23385:23410  poolList[3] != address(0) */\n      0xffffffffffffffffffffffffffffffffffffffff\n      and\n      eq\n      iszero\n        /* \"anonimity/1-ETH-Anonymity.sol\":23385:23434  poolList[3] != address(0) && shareOfReward[4] > 0 */\n      dup1\n      iszero\n      tag_523\n      jumpi\n      pop\n        /* \"anonimity/1-ETH-Anonymity.sol\":23433:23434  0 */\n      0x00\n        /* \"anonimity/1-ETH-Anonymity.sol\":23414:23427  shareOfReward */\n      0x79\n        /* \"anonimity/1-ETH-Anonymity.sol\":23428:23429  4 */\n      0x04\n        /* \"anonimity/1-ETH-Anonymity.sol\":23414:23430  shareOfReward[4] */\n      0x05\n      dup2\n      lt\n      tag_524\n      jumpi\n      invalid\n    tag_524:\n      add\n      sload\n        /* \"anonimity/1-ETH-Anonymity.sol\":23414:23434  shareOfReward[4] > 0 */\n      gt\n        /* \"anonimity/1-ETH-Anonymity.sol\":23385:23434  poolList[3] != address(0) && shareOfReward[4] > 0 */\n    tag_523:\n        /* \"anonimity/1-ETH-Anonymity.sol\":23385:23466  poolList[3] != address(0) && shareOfReward[4] > 0 && poolList[3] != address(this) */\n      dup1\n      iszero\n      tag_526\n      jumpi\n      pop\n        /* \"anonimity/1-ETH-Anonymity.sol\":23461:23465  this */\n      address\n        /* \"anonimity/1-ETH-Anonymity.sol\":23438:23466  poolList[3] != address(this) */\n      0xffffffffffffffffffffffffffffffffffffffff\n      and\n        /* \"anonimity/1-ETH-Anonymity.sol\":23438:23446  poolList */\n      0x7e\n        /* \"anonimity/1-ETH-Anonymity.sol\":23447:23448  3 */\n      0x03\n        /* \"anonimity/1-ETH-Anonymity.sol\":23438:23449  poolList[3] */\n      0x04\n      dup2\n      lt\n      tag_527\n      jumpi\n      invalid\n    tag_527:\n      add\n      0x00\n      swap1\n      sload\n      swap1\n      0x0100\n      exp\n      swap1\n      div\n      0xffffffffffffffffffffffffffffffffffffffff\n      and\n        /* \"anonimity/1-ETH-Anonymity.sol\":23438:23466  poolList[3] != address(this) */\n      0xffffffffffffffffffffffffffffffffffffffff\n      and\n      eq\n      iszero\n        /* \"anonimity/1-ETH-Anonymity.sol\":23385:23466  poolList[3] != address(0) && shareOfReward[4] > 0 && poolList[3] != address(this) */\n    tag_526:\n        /* \"anonimity/1-ETH-Anonymity.sol\":23381:23654  if( poolList[3] != address(0) && shareOfReward[4] > 0 && poolList[3] != address(this) ) {... */\n      iszero\n      tag_529\n      jumpi\n        /* \"anonimity/1-ETH-Anonymity.sol\":23496:23561  rewardAmounts[3].add( newBalance.mul(shareOfReward[4]).div(100) ) */\n      tag_530\n        /* \"anonimity/1-ETH-Anonymity.sol\":23518:23559  newBalance.mul(shareOfReward[4]).div(100) */\n      tag_531\n        /* \"anonimity/1-ETH-Anonymity.sol\":23555:23558  100 */\n      0x64\n        /* \"anonimity/1-ETH-Anonymity.sol\":23518:23550  newBalance.mul(shareOfReward[4]) */\n      tag_532\n        /* \"anonimity/1-ETH-Anonymity.sol\":23533:23546  shareOfReward */\n      0x79\n        /* \"anonimity/1-ETH-Anonymity.sol\":23547:23548  4 */\n      0x04\n        /* \"anonimity/1-ETH-Anonymity.sol\":23533:23549  shareOfReward[4] */\n      0x05\n      dup2\n      lt\n      tag_533\n      jumpi\n      invalid\n    tag_533:\n      add\n      sload\n        /* \"anonimity/1-ETH-Anonymity.sol\":23518:23528  newBalance */\n      dup6\n        /* \"anonimity/1-ETH-Anonymity.sol\":23518:23532  newBalance.mul */\n      tag_425\n      swap1\n        /* \"anonimity/1-ETH-Anonymity.sol\":23518:23550  newBalance.mul(shareOfReward[4]) */\n      swap2\n      swap1\n      0xffffffff\n      and\n      jump\t// in\n    tag_532:\n        /* \"anonimity/1-ETH-Anonymity.sol\":23518:23554  newBalance.mul(shareOfReward[4]).div */\n      tag_270\n      swap1\n        /* \"anonimity/1-ETH-Anonymity.sol\":23518:23559  newBalance.mul(shareOfReward[4]).div(100) */\n      swap2\n      swap1\n      0xffffffff\n      and\n      jump\t// in\n    tag_531:\n        /* \"anonimity/1-ETH-Anonymity.sol\":23496:23509  rewardAmounts */\n      0x82\n        /* \"anonimity/1-ETH-Anonymity.sol\":23510:23511  3 */\n      0x03\n        /* \"anonimity/1-ETH-Anonymity.sol\":23496:23512  rewardAmounts[3] */\n      0x04\n      dup2\n      lt\n      tag_535\n      jumpi\n      invalid\n    tag_535:\n      add\n      sload\n        /* \"anonimity/1-ETH-Anonymity.sol\":23496:23516  rewardAmounts[3].add */\n      tag_293\n      swap1\n        /* \"anonimity/1-ETH-Anonymity.sol\":23496:23561  rewardAmounts[3].add( newBalance.mul(shareOfReward[4]).div(100) ) */\n      swap2\n      swap1\n      0xffffffff\n      and\n      jump\t// in\n    tag_530:\n        /* \"anonimity/1-ETH-Anonymity.sol\":23477:23490  rewardAmounts */\n      0x82\n        /* \"anonimity/1-ETH-Anonymity.sol\":23491:23492  3 */\n      0x03\n        /* \"anonimity/1-ETH-Anonymity.sol\":23477:23493  rewardAmounts[3] */\n      0x04\n      dup2\n      lt\n      tag_537\n      jumpi\n      invalid\n    tag_537:\n      add\n        /* \"anonimity/1-ETH-Anonymity.sol\":23477:23561  rewardAmounts[3] = rewardAmounts[3].add( newBalance.mul(shareOfReward[4]).div(100) ) */\n      dup2\n      swap1\n      sstore\n      pop\n        /* \"anonimity/1-ETH-Anonymity.sol\":23381:23654  if( poolList[3] != address(0) && shareOfReward[4] > 0 && poolList[3] != address(this) ) {... */\n    tag_529:\n        /* \"anonimity/1-ETH-Anonymity.sol\":21720:23658  function swapAndShare() private {... */\n      pop\n      pop\n      pop\n      jump\t// out\n        /* \"anonimity/1-ETH-Anonymity.sol\":9871:10673  function _insert(bytes32 _leaf) internal returns(uint32 index) {... */\n    tag_373:\n        /* \"anonimity/1-ETH-Anonymity.sol\":9920:9932  uint32 index */\n      0x00\n        /* \"anonimity/1-ETH-Anonymity.sol\":9940:9959  uint32 currentIndex */\n      dup1\n        /* \"anonimity/1-ETH-Anonymity.sol\":9962:9971  nextIndex */\n      0x03\n      0x04\n      swap1\n      sload\n      swap1\n      0x0100\n      exp\n      swap1\n      div\n      0xffffffff\n      and\n        /* \"anonimity/1-ETH-Anonymity.sol\":9940:9971  uint32 currentIndex = nextIndex */\n      swap1\n      pop\n        /* \"anonimity/1-ETH-Anonymity.sol\":10012:10018  levels */\n      0x00\n      dup1\n      swap1\n      sload\n      swap1\n      0x0100\n      exp\n      swap1\n      div\n      0xffffffff\n      and\n        /* \"anonimity/1-ETH-Anonymity.sol\":10001:10018  uint32(2)**levels */\n      0xffffffff\n      and\n        /* \"anonimity/1-ETH-Anonymity.sol\":10008:10009  2 */\n      0x02\n        /* \"anonimity/1-ETH-Anonymity.sol\":10001:10018  uint32(2)**levels */\n      0xffffffff\n      and\n      exp\n        /* \"anonimity/1-ETH-Anonymity.sol\":9985:10018  currentIndex != uint32(2)**levels */\n      0xffffffff\n      and\n        /* \"anonimity/1-ETH-Anonymity.sol\":9985:9997  currentIndex */\n      dup2\n        /* \"anonimity/1-ETH-Anonymity.sol\":9985:10018  currentIndex != uint32(2)**levels */\n      0xffffffff\n      and\n      eq\n      iszero\n        /* \"anonimity/1-ETH-Anonymity.sol\":9977:10070  require(currentIndex != uint32(2)**levels, \"Merkle tree is full. No more leafs can be added\") */\n      tag_540\n      jumpi\n      mload(0x40)\n      0x08c379a000000000000000000000000000000000000000000000000000000000\n      dup2\n      mstore\n      0x04\n      add\n      dup1\n      dup1\n      0x20\n      add\n      dup3\n      dup2\n      sub\n      dup3\n      mstore\n      0x2f\n      dup2\n      mstore\n      0x20\n      add\n      dup1\n      data_1e762b0ffd82a14d53d4a3d5addc53879bd99e19a39147aacdc9448aa2cb9be3\n      0x2f\n      swap2\n      codecopy\n      0x40\n      add\n      swap2\n      pop\n      pop\n      mload(0x40)\n      dup1\n      swap2\n      sub\n      swap1\n      revert\n    tag_540:\n        /* \"anonimity/1-ETH-Anonymity.sol\":10089:10090  1 */\n      0x01\n        /* \"anonimity/1-ETH-Anonymity.sol\":10076:10085  nextIndex */\n      0x03\n      0x04\n        /* \"anonimity/1-ETH-Anonymity.sol\":10076:10090  nextIndex += 1 */\n      dup3\n      dup3\n      dup3\n      swap1\n      sload\n      swap1\n      0x0100\n      exp\n      swap1\n      div\n      0xffffffff\n      and\n      add\n      swap3\n      pop\n      0x0100\n      exp\n      dup2\n      sload\n      dup2\n      0xffffffff\n      mul\n      not\n      and\n      swap1\n      dup4\n      0xffffffff\n      and\n      mul\n      or\n      swap1\n      sstore\n      pop\n        /* \"anonimity/1-ETH-Anonymity.sol\":10096:10120  bytes32 currentLevelHash */\n      0x00\n        /* \"anonimity/1-ETH-Anonymity.sol\":10123:10128  _leaf */\n      dup4\n        /* \"anonimity/1-ETH-Anonymity.sol\":10096:10128  bytes32 currentLevelHash = _leaf */\n      swap1\n      pop\n        /* \"anonimity/1-ETH-Anonymity.sol\":10134:10146  bytes32 left */\n      0x00\n        /* \"anonimity/1-ETH-Anonymity.sol\":10152:10165  bytes32 right */\n      dup1\n        /* \"anonimity/1-ETH-Anonymity.sol\":10177:10185  uint32 i */\n      0x00\n        /* \"anonimity/1-ETH-Anonymity.sol\":10188:10189  0 */\n      dup1\n        /* \"anonimity/1-ETH-Anonymity.sol\":10177:10189  uint32 i = 0 */\n      swap1\n      pop\n        /* \"anonimity/1-ETH-Anonymity.sol\":10172:10527  for (uint32 i = 0; i < levels; i++) {... */\n    tag_541:\n        /* \"anonimity/1-ETH-Anonymity.sol\":10195:10201  levels */\n      0x00\n      dup1\n      swap1\n      sload\n      swap1\n      0x0100\n      exp\n      swap1\n      div\n      0xffffffff\n      and\n        /* \"anonimity/1-ETH-Anonymity.sol\":10191:10201  i < levels */\n      0xffffffff\n      and\n        /* \"anonimity/1-ETH-Anonymity.sol\":10191:10192  i */\n      dup2\n        /* \"anonimity/1-ETH-Anonymity.sol\":10191:10201  i < levels */\n      0xffffffff\n      and\n      lt\n        /* \"anonimity/1-ETH-Anonymity.sol\":10172:10527  for (uint32 i = 0; i < levels; i++) {... */\n      iszero\n      tag_542\n      jumpi\n        /* \"anonimity/1-ETH-Anonymity.sol\":10240:10241  0 */\n      0x00\n        /* \"anonimity/1-ETH-Anonymity.sol\":10235:10236  2 */\n      0x02\n        /* \"anonimity/1-ETH-Anonymity.sol\":10220:10232  currentIndex */\n      dup7\n        /* \"anonimity/1-ETH-Anonymity.sol\":10220:10236  currentIndex % 2 */\n      0xffffffff\n      and\n      dup2\n      tag_544\n      jumpi\n      invalid\n    tag_544:\n      mod\n        /* \"anonimity/1-ETH-Anonymity.sol\":10220:10241  currentIndex % 2 == 0 */\n      0xffffffff\n      and\n      eq\n        /* \"anonimity/1-ETH-Anonymity.sol\":10216:10441  if (currentIndex % 2 == 0) {... */\n      iszero\n      tag_545\n      jumpi\n        /* \"anonimity/1-ETH-Anonymity.sol\":10260:10276  currentLevelHash */\n      dup4\n        /* \"anonimity/1-ETH-Anonymity.sol\":10253:10276  left = currentLevelHash */\n      swap3\n      pop\n        /* \"anonimity/1-ETH-Anonymity.sol\":10294:10299  zeros */\n      0x02\n        /* \"anonimity/1-ETH-Anonymity.sol\":10300:10301  i */\n      dup2\n        /* \"anonimity/1-ETH-Anonymity.sol\":10294:10302  zeros[i] */\n      0xffffffff\n      and\n      dup2\n      sload\n      dup2\n      lt\n      tag_546\n      jumpi\n      invalid\n    tag_546:\n      swap1\n      0x00\n      mstore\n      keccak256(0x00, 0x20)\n      add\n      sload\n        /* \"anonimity/1-ETH-Anonymity.sol\":10286:10302  right = zeros[i] */\n      swap2\n      pop\n        /* \"anonimity/1-ETH-Anonymity.sol\":10333:10349  currentLevelHash */\n      dup4\n        /* \"anonimity/1-ETH-Anonymity.sol\":10313:10327  filledSubtrees */\n      0x01\n        /* \"anonimity/1-ETH-Anonymity.sol\":10328:10329  i */\n      dup3\n        /* \"anonimity/1-ETH-Anonymity.sol\":10313:10330  filledSubtrees[i] */\n      0xffffffff\n      and\n      dup2\n      sload\n      dup2\n      lt\n      tag_548\n      jumpi\n      invalid\n    tag_548:\n      swap1\n      0x00\n      mstore\n      keccak256(0x00, 0x20)\n      add\n        /* \"anonimity/1-ETH-Anonymity.sol\":10313:10349  filledSubtrees[i] = currentLevelHash */\n      dup2\n      swap1\n      sstore\n      pop\n        /* \"anonimity/1-ETH-Anonymity.sol\":10216:10441  if (currentIndex % 2 == 0) {... */\n      jump(tag_550)\n    tag_545:\n        /* \"anonimity/1-ETH-Anonymity.sol\":10381:10395  filledSubtrees */\n      0x01\n        /* \"anonimity/1-ETH-Anonymity.sol\":10396:10397  i */\n      dup2\n        /* \"anonimity/1-ETH-Anonymity.sol\":10381:10398  filledSubtrees[i] */\n      0xffffffff\n      and\n      dup2\n      sload\n      dup2\n      lt\n      tag_551\n      jumpi\n      invalid\n    tag_551:\n      swap1\n      0x00\n      mstore\n      keccak256(0x00, 0x20)\n      add\n      sload\n        /* \"anonimity/1-ETH-Anonymity.sol\":10374:10398  left = filledSubtrees[i] */\n      swap3\n      pop\n        /* \"anonimity/1-ETH-Anonymity.sol\":10416:10432  currentLevelHash */\n      dup4\n        /* \"anonimity/1-ETH-Anonymity.sol\":10408:10432  right = currentLevelHash */\n      swap2\n      pop\n        /* \"anonimity/1-ETH-Anonymity.sol\":10216:10441  if (currentIndex % 2 == 0) {... */\n    tag_550:\n        /* \"anonimity/1-ETH-Anonymity.sol\":10468:10494  hashLeftRight(left, right) */\n      tag_553\n        /* \"anonimity/1-ETH-Anonymity.sol\":10482:10486  left */\n      dup4\n        /* \"anonimity/1-ETH-Anonymity.sol\":10488:10493  right */\n      dup4\n        /* \"anonimity/1-ETH-Anonymity.sol\":10468:10481  hashLeftRight */\n      tag_103\n        /* \"anonimity/1-ETH-Anonymity.sol\":10468:10494  hashLeftRight(left, right) */\n      jump\t// in\n    tag_553:\n        /* \"anonimity/1-ETH-Anonymity.sol\":10449:10494  currentLevelHash = hashLeftRight(left, right) */\n      swap4\n      pop\n        /* \"anonimity/1-ETH-Anonymity.sol\":10519:10520  2 */\n      0x02\n        /* \"anonimity/1-ETH-Anonymity.sol\":10503:10520  currentIndex /= 2 */\n      dup6\n      0xffffffff\n      and\n      dup2\n      tag_554\n      jumpi\n      invalid\n    tag_554:\n      div\n      swap5\n      pop\n        /* \"anonimity/1-ETH-Anonymity.sol\":10203:10206  i++ */\n      dup1\n      dup1\n      0x01\n      add\n      swap2\n      pop\n      pop\n        /* \"anonimity/1-ETH-Anonymity.sol\":10172:10527  for (uint32 i = 0; i < levels; i++) {... */\n      jump(tag_541)\n    tag_542:\n      pop\n        /* \"anonimity/1-ETH-Anonymity.sol\":8903:8906  100 */\n      0x64\n        /* \"anonimity/1-ETH-Anonymity.sol\":10552:10594  (currentRootIndex + 1) % ROOT_HISTORY_SIZE */\n      0xffffffff\n      and\n        /* \"anonimity/1-ETH-Anonymity.sol\":10572:10573  1 */\n      0x01\n        /* \"anonimity/1-ETH-Anonymity.sol\":10553:10569  currentRootIndex */\n      0x03\n      0x00\n      swap1\n      sload\n      swap1\n      0x0100\n      exp\n      swap1\n      div\n      0xffffffff\n      and\n        /* \"anonimity/1-ETH-Anonymity.sol\":10553:10573  currentRootIndex + 1 */\n      add\n        /* \"anonimity/1-ETH-Anonymity.sol\":10552:10594  (currentRootIndex + 1) % ROOT_HISTORY_SIZE */\n      0xffffffff\n      and\n      dup2\n      tag_555\n      jumpi\n      invalid\n    tag_555:\n      mod\n        /* \"anonimity/1-ETH-Anonymity.sol\":10533:10549  currentRootIndex */\n      0x03\n      0x00\n        /* \"anonimity/1-ETH-Anonymity.sol\":10533:10594  currentRootIndex = (currentRootIndex + 1) % ROOT_HISTORY_SIZE */\n      0x0100\n      exp\n      dup2\n      sload\n      dup2\n      0xffffffff\n      mul\n      not\n      and\n      swap1\n      dup4\n      0xffffffff\n      and\n      mul\n      or\n      swap1\n      sstore\n      pop\n        /* \"anonimity/1-ETH-Anonymity.sol\":10626:10642  currentLevelHash */\n      dup3\n        /* \"anonimity/1-ETH-Anonymity.sol\":10600:10605  roots */\n      0x04\n        /* \"anonimity/1-ETH-Anonymity.sol\":10606:10622  currentRootIndex */\n      0x03\n      0x00\n      swap1\n      sload\n      swap1\n      0x0100\n      exp\n      swap1\n      div\n      0xffffffff\n      and\n        /* \"anonimity/1-ETH-Anonymity.sol\":10600:10623  roots[currentRootIndex] */\n      0xffffffff\n      and\n      0x64\n      dup2\n      lt\n      tag_556\n      jumpi\n      invalid\n    tag_556:\n      add\n        /* \"anonimity/1-ETH-Anonymity.sol\":10600:10642  roots[currentRootIndex] = currentLevelHash */\n      dup2\n      swap1\n      sstore\n      pop\n        /* \"anonimity/1-ETH-Anonymity.sol\":10667:10668  1 */\n      0x01\n        /* \"anonimity/1-ETH-Anonymity.sol\":10655:10664  nextIndex */\n      0x03\n      0x04\n      swap1\n      sload\n      swap1\n      0x0100\n      exp\n      swap1\n      div\n      0xffffffff\n      and\n        /* \"anonimity/1-ETH-Anonymity.sol\":10655:10668  nextIndex - 1 */\n      sub\n        /* \"anonimity/1-ETH-Anonymity.sol\":10648:10668  return nextIndex - 1 */\n      swap5\n      pop\n      pop\n      pop\n      pop\n      pop\n        /* \"anonimity/1-ETH-Anonymity.sol\":9871:10673  function _insert(bytes32 _leaf) internal returns(uint32 index) {... */\n      swap2\n      swap1\n      pop\n      jump\t// out\n        /* \"anonimity/1-ETH-Anonymity.sol\":5174:5376  function safeTransferFrom(IERC20 token, address from, address to, uint256 value) internal {... */\n    tag_377:\n        /* \"anonimity/1-ETH-Anonymity.sol\":5274:5369  callOptionalReturn(token, abi.encodeWithSelector(token.transferFrom.selector, from, to, value)) */\n      tag_559\n        /* \"anonimity/1-ETH-Anonymity.sol\":5293:5298  token */\n      dup5\n        /* \"anonimity/1-ETH-Anonymity.sol\":5323:5328  token */\n      dup6\n        /* \"anonimity/1-ETH-Anonymity.sol\":5323:5341  token.transferFrom */\n      0xffffffffffffffffffffffffffffffffffffffff\n      and\n      0x23b872dd\n        /* \"anonimity/1-ETH-Anonymity.sol\":5323:5350  token.transferFrom.selector */\n      swap1\n      pop\n      0xe0\n      shl\n        /* \"anonimity/1-ETH-Anonymity.sol\":5352:5356  from */\n      dup6\n        /* \"anonimity/1-ETH-Anonymity.sol\":5358:5360  to */\n      dup6\n        /* \"anonimity/1-ETH-Anonymity.sol\":5362:5367  value */\n      dup6\n        /* \"anonimity/1-ETH-Anonymity.sol\":5300:5368  abi.encodeWithSelector(token.transferFrom.selector, from, to, value) */\n      add(0x24, mload(0x40))\n      dup1\n      dup5\n      0xffffffffffffffffffffffffffffffffffffffff\n      and\n      0xffffffffffffffffffffffffffffffffffffffff\n      and\n      dup2\n      mstore\n      0x20\n      add\n      dup4\n      0xffffffffffffffffffffffffffffffffffffffff\n      and\n      0xffffffffffffffffffffffffffffffffffffffff\n      and\n      dup2\n      mstore\n      0x20\n      add\n      dup3\n      dup2\n      mstore\n      0x20\n      add\n      swap4\n      pop\n      pop\n      pop\n      pop\n      mload(0x40)\n        /* \"--CODEGEN--\":49:53   */\n      0x20\n        /* \"--CODEGEN--\":39:46   */\n      dup2\n        /* \"--CODEGEN--\":30:37   */\n      dup4\n        /* \"--CODEGEN--\":26:47   */\n      sub\n        /* \"--CODEGEN--\":22:54   */\n      sub\n        /* \"--CODEGEN--\":13:20   */\n      dup2\n        /* \"--CODEGEN--\":6:55   */\n      mstore\n        /* \"anonimity/1-ETH-Anonymity.sol\":5300:5368  abi.encodeWithSelector(token.transferFrom.selector, from, to, value) */\n      swap1\n      0x40\n      mstore\n      swap1\n      not(0xffffffffffffffffffffffffffffffffffffffffffffffffffffffff)\n      and\n        /* \"--CODEGEN--\":38:42   */\n      0x20\n        /* \"--CODEGEN--\":29:36   */\n      dup3\n        /* \"--CODEGEN--\":25:43   */\n      add\n        /* \"--CODEGEN--\":67:77   */\n      dup1\n        /* \"--CODEGEN--\":61:78   */\n      mload\n        /* \"--CODEGEN--\":96:154   */\n      0xffffffffffffffffffffffffffffffffffffffffffffffffffffffff\n        /* \"--CODEGEN--\":199:207   */\n      dup4\n        /* \"--CODEGEN--\":192:196   */\n      dup2\n        /* \"--CODEGEN--\":186:190   */\n      dup4\n        /* \"--CODEGEN--\":182:197   */\n      and\n        /* \"--CODEGEN--\":179:208   */\n      or\n        /* \"--CODEGEN--\":167:177   */\n      dup4\n        /* \"--CODEGEN--\":160:209   */\n      mstore\n        /* \"--CODEGEN--\":0:215   */\n      pop\n      pop\n      pop\n        /* \"anonimity/1-ETH-Anonymity.sol\":5300:5368  abi.encodeWithSelector(token.transferFrom.selector, from, to, value) */\n      pop\n        /* \"anonimity/1-ETH-Anonymity.sol\":5274:5292  callOptionalReturn */\n      tag_560\n        /* \"anonimity/1-ETH-Anonymity.sol\":5274:5369  callOptionalReturn(token, abi.encodeWithSelector(token.transferFrom.selector, from, to, value)) */\n      jump\t// in\n    tag_559:\n        /* \"anonimity/1-ETH-Anonymity.sol\":5174:5376  function safeTransferFrom(IERC20 token, address from, address to, uint256 value) internal {... */\n      pop\n      pop\n      pop\n      pop\n      jump\t// out\n        /* \"anonimity/1-ETH-Anonymity.sol\":4994:5168  function safeTransfer(IERC20 token, address to, uint256 value) internal {... */\n    tag_416:\n        /* \"anonimity/1-ETH-Anonymity.sol\":5076:5161  callOptionalReturn(token, abi.encodeWithSelector(token.transfer.selector, to, value)) */\n      tag_562\n        /* \"anonimity/1-ETH-Anonymity.sol\":5095:5100  token */\n      dup4\n        /* \"anonimity/1-ETH-Anonymity.sol\":5125:5130  token */\n      dup5\n        /* \"anonimity/1-ETH-Anonymity.sol\":5125:5139  token.transfer */\n      0xffffffffffffffffffffffffffffffffffffffff\n      and\n      0xa9059cbb\n        /* \"anonimity/1-ETH-Anonymity.sol\":5125:5148  token.transfer.selector */\n      swap1\n      pop\n      0xe0\n      shl\n        /* \"anonimity/1-ETH-Anonymity.sol\":5150:5152  to */\n      dup5\n        /* \"anonimity/1-ETH-Anonymity.sol\":5154:5159  value */\n      dup5\n        /* \"anonimity/1-ETH-Anonymity.sol\":5102:5160  abi.encodeWithSelector(token.transfer.selector, to, value) */\n      add(0x24, mload(0x40))\n      dup1\n      dup4\n      0xffffffffffffffffffffffffffffffffffffffff\n      and\n      0xffffffffffffffffffffffffffffffffffffffff\n      and\n      dup2\n      mstore\n      0x20\n      add\n      dup3\n      dup2\n      mstore\n      0x20\n      add\n      swap3\n      pop\n      pop\n      pop\n      mload(0x40)\n        /* \"--CODEGEN--\":49:53   */\n      0x20\n        /* \"--CODEGEN--\":39:46   */\n      dup2\n        /* \"--CODEGEN--\":30:37   */\n      dup4\n        /* \"--CODEGEN--\":26:47   */\n      sub\n        /* \"--CODEGEN--\":22:54   */\n      sub\n        /* \"--CODEGEN--\":13:20   */\n      dup2\n        /* \"--CODEGEN--\":6:55   */\n      mstore\n        /* \"anonimity/1-ETH-Anonymity.sol\":5102:5160  abi.encodeWithSelector(token.transfer.selector, to, value) */\n      swap1\n      0x40\n      mstore\n      swap1\n      not(0xffffffffffffffffffffffffffffffffffffffffffffffffffffffff)\n      and\n        /* \"--CODEGEN--\":38:42   */\n      0x20\n        /* \"--CODEGEN--\":29:36   */\n      dup3\n        /* \"--CODEGEN--\":25:43   */\n      add\n        /* \"--CODEGEN--\":67:77   */\n      dup1\n        /* \"--CODEGEN--\":61:78   */\n      mload\n        /* \"--CODEGEN--\":96:154   */\n      0xffffffffffffffffffffffffffffffffffffffffffffffffffffffff\n        /* \"--CODEGEN--\":199:207   */\n      dup4\n        /* \"--CODEGEN--\":192:196   */\n      dup2\n        /* \"--CODEGEN--\":186:190   */\n      dup4\n        /* \"--CODEGEN--\":182:197   */\n      and\n        /* \"--CODEGEN--\":179:208   */\n      or\n        /* \"--CODEGEN--\":167:177   */\n      dup4\n        /* \"--CODEGEN--\":160:209   */\n      mstore\n        /* \"--CODEGEN--\":0:215   */\n      pop\n      pop\n      pop\n        /* \"anonimity/1-ETH-Anonymity.sol\":5102:5160  abi.encodeWithSelector(token.transfer.selector, to, value) */\n      pop\n        /* \"anonimity/1-ETH-Anonymity.sol\":5076:5094  callOptionalReturn */\n      tag_560\n        /* \"anonimity/1-ETH-Anonymity.sol\":5076:5161  callOptionalReturn(token, abi.encodeWithSelector(token.transfer.selector, to, value)) */\n      jump\t// in\n    tag_562:\n        /* \"anonimity/1-ETH-Anonymity.sol\":4994:5168  function safeTransfer(IERC20 token, address to, uint256 value) internal {... */\n      pop\n      pop\n      pop\n      jump\t// out\n        /* \"anonimity/1-ETH-Anonymity.sol\":1783:1893  function sub(uint256 a, uint256 b) internal pure returns (uint256) {... */\n    tag_424:\n        /* \"anonimity/1-ETH-Anonymity.sol\":1841:1848  uint256 */\n      0x00\n        /* \"anonimity/1-ETH-Anonymity.sol\":1868:1869  a */\n      dup3\n        /* \"anonimity/1-ETH-Anonymity.sol\":1863:1864  b */\n      dup3\n        /* \"anonimity/1-ETH-Anonymity.sol\":1863:1869  b <= a */\n      gt\n      iszero\n        /* \"anonimity/1-ETH-Anonymity.sol\":1856:1870  assert(b <= a) */\n      tag_564\n      jumpi\n      invalid\n    tag_564:\n        /* \"anonimity/1-ETH-Anonymity.sol\":1887:1888  b */\n      dup2\n        /* \"anonimity/1-ETH-Anonymity.sol\":1883:1884  a */\n      dup4\n        /* \"anonimity/1-ETH-Anonymity.sol\":1883:1888  a - b */\n      sub\n        /* \"anonimity/1-ETH-Anonymity.sol\":1876:1888  return a - b */\n      swap1\n      pop\n        /* \"anonimity/1-ETH-Anonymity.sol\":1783:1893  function sub(uint256 a, uint256 b) internal pure returns (uint256) {... */\n      swap3\n      swap2\n      pop\n      pop\n      jump\t// out\n        /* \"anonimity/1-ETH-Anonymity.sol\":662:829  function mul(uint256 a, uint256 b) internal pure returns (uint256 c) {... */\n    tag_425:\n        /* \"anonimity/1-ETH-Anonymity.sol\":720:729  uint256 c */\n      0x00\n        /* \"anonimity/1-ETH-Anonymity.sol\":746:747  0 */\n      dup1\n        /* \"anonimity/1-ETH-Anonymity.sol\":741:742  a */\n      dup4\n        /* \"anonimity/1-ETH-Anonymity.sol\":741:747  a == 0 */\n      eq\n        /* \"anonimity/1-ETH-Anonymity.sol\":737:772  if (a == 0) {... */\n      iszero\n      tag_566\n      jumpi\n        /* \"anonimity/1-ETH-Anonymity.sol\":764:765  0 */\n      0x00\n        /* \"anonimity/1-ETH-Anonymity.sol\":757:765  return 0 */\n      swap1\n      pop\n      jump(tag_565)\n        /* \"anonimity/1-ETH-Anonymity.sol\":737:772  if (a == 0) {... */\n    tag_566:\n        /* \"anonimity/1-ETH-Anonymity.sol\":785:786  b */\n      dup2\n        /* \"anonimity/1-ETH-Anonymity.sol\":781:782  a */\n      dup4\n        /* \"anonimity/1-ETH-Anonymity.sol\":781:786  a * b */\n      mul\n        /* \"anonimity/1-ETH-Anonymity.sol\":777:786  c = a * b */\n      swap1\n      pop\n        /* \"anonimity/1-ETH-Anonymity.sol\":808:809  b */\n      dup2\n        /* \"anonimity/1-ETH-Anonymity.sol\":803:804  a */\n      dup4\n        /* \"anonimity/1-ETH-Anonymity.sol\":799:800  c */\n      dup3\n        /* \"anonimity/1-ETH-Anonymity.sol\":799:804  c / a */\n      dup2\n      tag_567\n      jumpi\n      invalid\n    tag_567:\n      div\n        /* \"anonimity/1-ETH-Anonymity.sol\":799:809  c / a == b */\n      eq\n        /* \"anonimity/1-ETH-Anonymity.sol\":792:810  assert(c / a == b) */\n      tag_568\n      jumpi\n      invalid\n    tag_568:\n        /* \"anonimity/1-ETH-Anonymity.sol\":823:824  c */\n      dup1\n        /* \"anonimity/1-ETH-Anonymity.sol\":816:824  return c */\n      swap1\n      pop\n        /* \"anonimity/1-ETH-Anonymity.sol\":662:829  function mul(uint256 a, uint256 b) internal pure returns (uint256 c) {... */\n    tag_565:\n      swap3\n      swap2\n      pop\n      pop\n      jump\t// out\n        /* \"anonimity/1-ETH-Anonymity.sol\":6953:8048  function callOptionalReturn(IERC20 token, bytes memory data) private {... */\n    tag_560:\n        /* \"anonimity/1-ETH-Anonymity.sol\":7548:7575  address(token).isContract() */\n      tag_570\n        /* \"anonimity/1-ETH-Anonymity.sol\":7556:7561  token */\n      dup3\n        /* \"anonimity/1-ETH-Anonymity.sol\":7548:7573  address(token).isContract */\n      0xffffffffffffffffffffffffffffffffffffffff\n      and\n      tag_251\n        /* \"anonimity/1-ETH-Anonymity.sol\":7548:7575  address(token).isContract() */\n      jump\t// in\n    tag_570:\n        /* \"anonimity/1-ETH-Anonymity.sol\":7540:7611  require(address(token).isContract(), \"SafeERC20: call to non-contract\") */\n      tag_571\n      jumpi\n      mload(0x40)\n      0x08c379a000000000000000000000000000000000000000000000000000000000\n      dup2\n      mstore\n      0x04\n      add\n      dup1\n      dup1\n      0x20\n      add\n      dup3\n      dup2\n      sub\n      dup3\n      mstore\n      0x1f\n      dup2\n      mstore\n      0x20\n      add\n      dup1\n      0x5361666545524332303a2063616c6c20746f206e6f6e2d636f6e747261637400\n      dup2\n      mstore\n      pop\n      0x20\n      add\n      swap2\n      pop\n      pop\n      mload(0x40)\n      dup1\n      swap2\n      sub\n      swap1\n      revert\n    tag_571:\n        /* \"anonimity/1-ETH-Anonymity.sol\":7682:7694  bool success */\n      0x00\n        /* \"anonimity/1-ETH-Anonymity.sol\":7696:7719  bytes memory returndata */\n      0x60\n        /* \"anonimity/1-ETH-Anonymity.sol\":7731:7736  token */\n      dup4\n        /* \"anonimity/1-ETH-Anonymity.sol\":7723:7742  address(token).call */\n      0xffffffffffffffffffffffffffffffffffffffff\n      and\n        /* \"anonimity/1-ETH-Anonymity.sol\":7743:7747  data */\n      dup4\n        /* \"anonimity/1-ETH-Anonymity.sol\":7723:7748  address(token).call(data) */\n      mload(0x40)\n      dup1\n      dup3\n      dup1\n      mload\n      swap1\n      0x20\n      add\n      swap1\n      dup1\n      dup4\n      dup4\n        /* \"--CODEGEN--\":36:189   */\n    tag_572:\n        /* \"--CODEGEN--\":66:68   */\n      0x20\n        /* \"--CODEGEN--\":61:64   */\n      dup4\n        /* \"--CODEGEN--\":58:69   */\n      lt\n        /* \"--CODEGEN--\":36:189   */\n      tag_574\n      jumpi\n        /* \"--CODEGEN--\":182:185   */\n      dup1\n        /* \"--CODEGEN--\":176:186   */\n      mload\n        /* \"--CODEGEN--\":171:174   */\n      dup3\n        /* \"--CODEGEN--\":164:187   */\n      mstore\n        /* \"--CODEGEN--\":98:100   */\n      0x20\n        /* \"--CODEGEN--\":93:96   */\n      dup3\n        /* \"--CODEGEN--\":89:101   */\n      add\n        /* \"--CODEGEN--\":82:101   */\n      swap2\n      pop\n        /* \"--CODEGEN--\":123:125   */\n      0x20\n        /* \"--CODEGEN--\":118:121   */\n      dup2\n        /* \"--CODEGEN--\":114:126   */\n      add\n        /* \"--CODEGEN--\":107:126   */\n      swap1\n      pop\n        /* \"--CODEGEN--\":148:150   */\n      0x20\n        /* \"--CODEGEN--\":143:146   */\n      dup4\n        /* \"--CODEGEN--\":139:151   */\n      sub\n        /* \"--CODEGEN--\":132:151   */\n      swap3\n      pop\n        /* \"--CODEGEN--\":36:189   */\n      jump(tag_572)\n    tag_574:\n        /* \"--CODEGEN--\":274:275   */\n      0x01\n        /* \"--CODEGEN--\":267:270   */\n      dup4\n        /* \"--CODEGEN--\":263:265   */\n      0x20\n        /* \"--CODEGEN--\":259:271   */\n      sub\n        /* \"--CODEGEN--\":254:257   */\n      0x0100\n        /* \"--CODEGEN--\":250:272   */\n      exp\n        /* \"--CODEGEN--\":246:276   */\n      sub\n        /* \"--CODEGEN--\":315:319   */\n      dup1\n        /* \"--CODEGEN--\":311:320   */\n      not\n        /* \"--CODEGEN--\":305:308   */\n      dup3\n        /* \"--CODEGEN--\":299:309   */\n      mload\n        /* \"--CODEGEN--\":295:321   */\n      and\n        /* \"--CODEGEN--\":356:360   */\n      dup2\n        /* \"--CODEGEN--\":350:353   */\n      dup5\n        /* \"--CODEGEN--\":344:354   */\n      mload\n        /* \"--CODEGEN--\":340:361   */\n      and\n        /* \"--CODEGEN--\":389:396   */\n      dup1\n        /* \"--CODEGEN--\":380:387   */\n      dup3\n        /* \"--CODEGEN--\":377:397   */\n      or\n        /* \"--CODEGEN--\":372:375   */\n      dup6\n        /* \"--CODEGEN--\":365:398   */\n      mstore\n        /* \"--CODEGEN--\":3:402   */\n      pop\n      pop\n      pop\n        /* \"anonimity/1-ETH-Anonymity.sol\":7723:7748  address(token).call(data) */\n      pop\n      pop\n      pop\n      swap1\n      pop\n      add\n      swap2\n      pop\n      pop\n      0x00\n      mload(0x40)\n      dup1\n      dup4\n      sub\n      dup2\n      0x00\n      dup7\n      gas\n      call\n      swap2\n      pop\n      pop\n      returndatasize\n        /* \"--CODEGEN--\":14:15   */\n      dup1\n        /* \"--CODEGEN--\":21:22   */\n      0x00\n        /* \"--CODEGEN--\":16:47   */\n      dup2\n      eq\n      tag_576\n      jumpi\n        /* \"--CODEGEN--\":75:79   */\n      0x40\n        /* \"--CODEGEN--\":69:80   */\n      mload\n        /* \"--CODEGEN--\":64:80   */\n      swap2\n      pop\n        /* \"--CODEGEN--\":144:148   */\n      0x1f\n        /* \"--CODEGEN--\":140:149   */\n      not\n        /* \"--CODEGEN--\":133:137   */\n      0x3f\n        /* \"--CODEGEN--\":115:131   */\n      returndatasize\n        /* \"--CODEGEN--\":111:138   */\n      add\n        /* \"--CODEGEN--\":107:150   */\n      and\n        /* \"--CODEGEN--\":104:105   */\n      dup3\n        /* \"--CODEGEN--\":100:151   */\n      add\n        /* \"--CODEGEN--\":94:98   */\n      0x40\n        /* \"--CODEGEN--\":87:152   */\n      mstore\n        /* \"--CODEGEN--\":169:185   */\n      returndatasize\n        /* \"--CODEGEN--\":166:167   */\n      dup3\n        /* \"--CODEGEN--\":159:186   */\n      mstore\n        /* \"--CODEGEN--\":225:241   */\n      returndatasize\n        /* \"--CODEGEN--\":222:223   */\n      0x00\n        /* \"--CODEGEN--\":215:219   */\n      0x20\n        /* \"--CODEGEN--\":212:213   */\n      dup5\n        /* \"--CODEGEN--\":208:220   */\n      add\n        /* \"--CODEGEN--\":193:242   */\n      returndatacopy\n        /* \"--CODEGEN--\":7:249   */\n      jump(tag_575)\n        /* \"--CODEGEN--\":16:47   */\n    tag_576:\n        /* \"--CODEGEN--\":36:40   */\n      0x60\n        /* \"--CODEGEN--\":31:40   */\n      swap2\n      pop\n        /* \"--CODEGEN--\":7:249   */\n    tag_575:\n      pop\n        /* \"anonimity/1-ETH-Anonymity.sol\":7681:7748  (bool success, bytes memory returndata) = address(token).call(data) */\n      swap2\n      pop\n      swap2\n      pop\n        /* \"anonimity/1-ETH-Anonymity.sol\":7766:7773  success */\n      dup2\n        /* \"anonimity/1-ETH-Anonymity.sol\":7758:7810  require(success, \"SafeERC20: low-level call failed\") */\n      tag_577\n      jumpi\n      mload(0x40)\n      0x08c379a000000000000000000000000000000000000000000000000000000000\n      dup2\n      mstore\n      0x04\n      add\n      dup1\n      dup1\n      0x20\n      add\n      dup3\n      dup2\n      sub\n      dup3\n      mstore\n      0x20\n      dup2\n      mstore\n      0x20\n      add\n      dup1\n      0x5361666545524332303a206c6f772d6c6576656c2063616c6c206661696c6564\n      dup2\n      mstore\n      pop\n      0x20\n      add\n      swap2\n      pop\n      pop\n      mload(0x40)\n      dup1\n      swap2\n      sub\n      swap1\n      revert\n    tag_577:\n        /* \"anonimity/1-ETH-Anonymity.sol\":7845:7846  0 */\n      0x00\n        /* \"anonimity/1-ETH-Anonymity.sol\":7825:7835  returndata */\n      dup2\n        /* \"anonimity/1-ETH-Anonymity.sol\":7825:7842  returndata.length */\n      mload\n        /* \"anonimity/1-ETH-Anonymity.sol\":7825:7846  returndata.length > 0 */\n      gt\n        /* \"anonimity/1-ETH-Anonymity.sol\":7821:8042  if (returndata.length > 0) { // Return data is optional... */\n      iszero\n      tag_578\n      jumpi\n        /* \"anonimity/1-ETH-Anonymity.sol\":7965:7975  returndata */\n      dup1\n        /* \"anonimity/1-ETH-Anonymity.sol\":7954:7984  abi.decode(returndata, (bool)) */\n      dup1\n      0x20\n      add\n      swap1\n      mload\n        /* \"--CODEGEN--\":13:15   */\n      0x20\n        /* \"--CODEGEN--\":8:11   */\n      dup2\n        /* \"--CODEGEN--\":5:16   */\n      lt\n        /* \"--CODEGEN--\":2:4   */\n      iszero\n      tag_579\n      jumpi\n        /* \"--CODEGEN--\":29:30   */\n      0x00\n        /* \"--CODEGEN--\":26:27   */\n      dup1\n        /* \"--CODEGEN--\":19:31   */\n      revert\n        /* \"--CODEGEN--\":2:4   */\n    tag_579:\n        /* \"anonimity/1-ETH-Anonymity.sol\":7954:7984  abi.decode(returndata, (bool)) */\n      dup2\n      add\n      swap1\n      dup1\n      dup1\n      mload\n      swap1\n      0x20\n      add\n      swap1\n      swap3\n      swap2\n      swap1\n      pop\n      pop\n      pop\n        /* \"anonimity/1-ETH-Anonymity.sol\":7946:8031  require(abi.decode(returndata, (bool)), \"SafeERC20: ERC20 operation did not succeed\") */\n      tag_580\n      jumpi\n      mload(0x40)\n      0x08c379a000000000000000000000000000000000000000000000000000000000\n      dup2\n      mstore\n      0x04\n      add\n      dup1\n      dup1\n      0x20\n      add\n      dup3\n      dup2\n      sub\n      dup3\n      mstore\n      0x2a\n      dup2\n      mstore\n      0x20\n      add\n      dup1\n      data_e11ad79d1e4a7f2e5f376964cb99e8e8f7904e3fc16a109f7a7ecb9aa7956dcd\n      0x2a\n      swap2\n      codecopy\n      0x40\n      add\n      swap2\n      pop\n      pop\n      mload(0x40)\n      dup1\n      swap2\n      sub\n      swap1\n      revert\n    tag_580:\n        /* \"anonimity/1-ETH-Anonymity.sol\":7821:8042  if (returndata.length > 0) { // Return data is optional... */\n    tag_578:\n        /* \"anonimity/1-ETH-Anonymity.sol\":6953:8048  function callOptionalReturn(IERC20 token, bytes memory data) private {... */\n      pop\n      pop\n      pop\n      pop\n      jump\t// out\n        /* \"anonimity/1-ETH-Anonymity.sol\":13392:24179  contract MessierAnonymity is MerkleTreeWithHistory, ReentrancyGuard {... */\n    tag_321:\n      dup3\n      0x05\n      dup2\n      add\n      swap3\n      dup3\n      iszero\n      tag_581\n      jumpi\n      swap2\n      0x20\n      mul\n      dup3\n      add\n    tag_582:\n      dup3\n      dup2\n      gt\n      iszero\n      tag_583\n      jumpi\n      dup3\n      mload\n      dup3\n      sstore\n      swap2\n      0x20\n      add\n      swap2\n      swap1\n      0x01\n      add\n      swap1\n      jump(tag_582)\n    tag_583:\n    tag_581:\n      pop\n      swap1\n      pop\n      tag_584\n      swap2\n      swap1\n      tag_585\n      jump\t// in\n    tag_584:\n      pop\n      swap1\n      jump\t// out\n    tag_331:\n      dup3\n      0x04\n      dup2\n      add\n      swap3\n      dup3\n      iszero\n      tag_586\n      jumpi\n      swap2\n      0x20\n      mul\n      dup3\n      add\n    tag_587:\n      dup3\n      dup2\n      gt\n      iszero\n      tag_588\n      jumpi\n      dup3\n      mload\n      dup3\n      exp(0x0100, 0x00)\n      dup2\n      sload\n      dup2\n      0xffffffffffffffffffffffffffffffffffffffff\n      mul\n      not\n      and\n      swap1\n      dup4\n      0xffffffffffffffffffffffffffffffffffffffff\n      and\n      mul\n      or\n      swap1\n      sstore\n      pop\n      swap2\n      0x20\n      add\n      swap2\n      swap1\n      0x01\n      add\n      swap1\n      jump(tag_587)\n    tag_588:\n    tag_586:\n      pop\n      swap1\n      pop\n      tag_589\n      swap2\n      swap1\n      tag_590\n      jump\t// in\n    tag_589:\n      pop\n      swap1\n      jump\t// out\n    tag_585:\n      tag_591\n      swap2\n      swap1\n    tag_592:\n      dup1\n      dup3\n      gt\n      iszero\n      tag_593\n      jumpi\n      0x00\n      dup2\n      0x00\n      swap1\n      sstore\n      pop\n      0x01\n      add\n      jump(tag_592)\n    tag_593:\n      pop\n      swap1\n      jump\n    tag_591:\n      swap1\n      jump\t// out\n    tag_590:\n      tag_594\n      swap2\n      swap1\n    tag_595:\n      dup1\n      dup3\n      gt\n      iszero\n      tag_596\n      jumpi\n      0x00\n      dup2\n      dup2\n      0x0100\n      exp\n      dup2\n      sload\n      swap1\n      0xffffffffffffffffffffffffffffffffffffffff\n      mul\n      not\n      and\n      swap1\n      sstore\n      pop\n      0x01\n      add\n      jump(tag_595)\n    tag_596:\n      pop\n      swap1\n      jump\n    tag_594:\n      swap1\n      jump\t// out\n    stop\n    data_0e71a241197b393744b5df81fa847ab1c2bee75202755ee59d1abfcc113d1380 4f6e6c79204f776e65722063616e2063616c6c20746869732066756e6374696f6e2e\n    data_1e762b0ffd82a14d53d4a3d5addc53879bd99e19a39147aacdc9448aa2cb9be3 4d65726b6c6520747265652069732066756c6c2e204e6f206d6f7265206c656166732063616e206265206164646564\n    data_6542fa7ce511fbc255ce93f94c5fe79a03559888b6c0d6b4bd92b57ef65f3b4e 5f72696768742073686f756c6420626520696e7369646520746865206669656c64\n    data_ae5f231636554c1cb3bf839359e4dfbb338ccb221c7c5dbdf2da91ddc6e2ee6b 54686520636f6d6d69746d656e7420686173206265656e207375626d6974746564\n    data_e11ad79d1e4a7f2e5f376964cb99e8e8f7904e3fc16a109f7a7ecb9aa7956dcd 5361666545524332303a204552433230206f7065726174696f6e20646964206e6f742073756363656564\n\n    auxdata: 0xa265627a7a72315820d540efa7eb4fec9096c908c5949eecb1e842d11f7e9a6336419cb6e860f1317c64736f6c63430005110032\n}\n",
				"bytecode": {
					"linkReferences": {
						"anonimity/1-ETH-Anonymity.sol": {
							"Hasher": [
								{
									"length": 20,
									"start": 1400
								},
								{
									"length": 20,
									"start": 1615
								},
								{
									"length": 20,
									"start": 9481
								},
								{
									"length": 20,
									"start": 9692
								}
							]
						}
					},
					"object": "60806040526000600360006101000a81548163ffffffff021916908363ffffffff1602179055506000600360046101000a81548163ffffffff021916908363ffffffff160217905550600060765561016d6077556004603c60186077540202026078556040518060a00160405280601e60ff168152602001600060ff168152602001604660ff168152602001600060ff168152602001600060ff168152506079906005620000af92919062000701565b5060046087556703782dace9d90000608955348015620000ce57600080fd5b5060146000806101000a81548163ffffffff021916908363ffffffff16021790555060007f2fe54c60d3acabf3343a35b6eba15db4821b340f76e741e2249685ed4899af6c60001b9050600281908060018154018082558091505090600182039060005260206000200160009091929091909150555060018190806001815401808255809150509060018203906000526020600020016000909192909190915055506000600190505b6000809054906101000a900463ffffffff1663ffffffff168163ffffffff1610156200021757620001af82836200045160201b60201c565b915060028290806001815401808255809150509060018203906000526020600020016000909192909190915055506001829080600181540180825580915050906001820390600052602060002001600090919290919091505550808060010191505062000177565b506200022a81826200045160201b60201c565b60046000606481106200023957fe5b018190555050600160688190555033607060006101000a81548173ffffffffffffffffffffffffffffffffffffffff021916908373ffffffffffffffffffffffffffffffffffffffff16021790555033607160006101000a81548173ffffffffffffffffffffffffffffffffffffffff021916908373ffffffffffffffffffffffffffffffffffffffff160217905550436073819055506000606b81905550670de0b6b3a7640000606a8190555060006069819055506000737a250d5630b4cf539739df2c5dacb4c659f2488d905080608a60006101000a81548173ffffffffffffffffffffffffffffffffffffffff021916908373ffffffffffffffffffffffffffffffffffffffff1602179055506103e8608754606a5402816200035b57fe5b046088819055506040518060800160405280600073ffffffffffffffffffffffffffffffffffffffff1673ffffffffffffffffffffffffffffffffffffffff168152602001600073ffffffffffffffffffffffffffffffffffffffff1673ffffffffffffffffffffffffffffffffffffffff168152602001600073ffffffffffffffffffffffffffffffffffffffff1673ffffffffffffffffffffffffffffffffffffffff168152602001600073ffffffffffffffffffffffffffffffffffffffff1673ffffffffffffffffffffffffffffffffffffffff16815250607e906004620004499291906200074b565b50506200083b565b60007f30644e72e131a029b85045b68181585d2833e84879b9709143e1f593f00000018360001c10620004ec576040517f08c379a00000000000000000000000000000000000000000000000000000000081526004018080602001828103825260208152602001807f5f6c6566742073686f756c6420626520696e7369646520746865206669656c6481525060200191505060405180910390fd5b7f30644e72e131a029b85045b68181585d2833e84879b9709143e1f593f00000018260001c1062000569576040517f08c379a00000000000000000000000000000000000000000000000000000000081526004018080602001828103825260218152602001806200527a6021913960400191505060405180910390fd5b60008360001c9050600080905073__$b1d08b67b448c1738aa9c5efeb68bcb221$__63f47d33b583836040518363ffffffff1660e01b81526004018083815260200182815260200192505050604080518083038186803b158015620005cd57600080fd5b505af4158015620005e2573d6000803e3d6000fd5b505050506040513d6040811015620005f957600080fd5b81019080805190602001909291908051906020019092919050505080925081935050507f30644e72e131a029b85045b68181585d2833e84879b9709143e1f593f0000001806200064557fe5b8460001c8308915073__$b1d08b67b448c1738aa9c5efeb68bcb221$__63f47d33b583836040518363ffffffff1660e01b81526004018083815260200182815260200192505050604080518083038186803b158015620006a457600080fd5b505af4158015620006b9573d6000803e3d6000fd5b505050506040513d6040811015620006d057600080fd5b81019080805190602001909291908051906020019092919050505080925081935050508160001b9250505092915050565b826005810192821562000738579160200282015b8281111562000737578251829060ff1690559160200191906001019062000715565b5b509050620007479190620007cd565b5090565b8260048101928215620007ba579160200282015b82811115620007b95782518260006101000a81548173ffffffffffffffffffffffffffffffffffffffff021916908373ffffffffffffffffffffffffffffffffffffffff160217905550916020019190600101906200075f565b5b509050620007c99190620007f5565b5090565b620007f291905b80821115620007ee576000816000905550600101620007d4565b5090565b90565b6200083891905b808211156200083457600081816101000a81549073ffffffffffffffffffffffffffffffffffffffff021916905550600101620007fc565b5090565b90565b614a2f806200084b6000396000f3fe6080604052600436106102ff5760003560e01c80638d949d4b11610190578063ca093047116100dc578063e829558811610095578063f178e47c1161006f578063f178e47c1461102a578063f6be71d114611079578063fc0c546a146110b4578063fc7e9c6f1461110b576102ff565b8063e829558814610f85578063ec73295914610fd4578063ecaa650314610fff576102ff565b8063ca09304714610e07578063ca13d4e614610e56578063cd87a3b414610ea7578063d27c182414610ede578063d3129be414610f09578063e811f50a14610f5a576102ff565b8063a9f8d18111610149578063b214faa511610123578063b214faa514610cf8578063b4a61faa14610d62578063ba70f75714610d8d578063c2b40ae414610db8576102ff565b8063a9f8d18114610c51578063af32407614610c7c578063b14f2a3914610ca7576102ff565b80638d949d4b14610b215780638daac0df14610b3857806390eeb02b14610b735780639709a6fd14610baa57806397fc007c14610bd5578063997318ec14610c26576102ff565b8063445cd6961161024f5780636c0813961161020857806375ddc9ed116101e257806375ddc9ed14610a115780637ce3489b14610a68578063839df94514610aa35780638ae39cac14610af6576102ff565b80636c081396146108e25780636c23cd68146109935780636d9833e3146109be576102ff565b8063445cd696146106e75780634b3e7811146107365780634ecf518b146107995780635129b3e1146107d057806354fd4d50146107fb57806361d027b31461088b576102ff565b80632d0ec0ff116102bc57806334d6a7bf1161029657806334d6a7bf146105e157806338bf282e146106385780633b406fb714610691578063414a37ba146106bc576102ff565b80632d0ec0ff146105745780633409038c1461059f57806334749d22146105ca576102ff565b80631694505e1461030457806321a0adb61461035b57806322217cd31461043c57806329a5967e146104675780632a48235b146104a25780632b7ac3f31461051d575b600080fd5b34801561031057600080fd5b50610319611142565b604051808273ffffffffffffffffffffffffffffffffffffffff1673ffffffffffffffffffffffffffffffffffffffff16815260200191505060405180910390f35b61043a600480360360e081101561037157600080fd5b810190808035906020019064010000000081111561038e57600080fd5b8201836020820111156103a057600080fd5b803590602001918460018302840111640100000000831117156103c257600080fd5b90919293919293908035906020019092919080359060200190929190803573ffffffffffffffffffffffffffffffffffffffff169060200190929190803573ffffffffffffffffffffffffffffffffffffffff1690602001909291908035906020019092919080359060200190929190505050611168565b005b34801561044857600080fd5b5061045161191b565b6040518082815260200191505060405180910390f35b34801561047357600080fd5b506104a06004803603602081101561048a57600080fd5b81019080803590602001909291905050506119af565b005b3480156104ae57600080fd5b506104db600480360360208110156104c557600080fd5b8101908080359060200190929190505050611a5f565b604051808273ffffffffffffffffffffffffffffffffffffffff1673ffffffffffffffffffffffffffffffffffffffff16815260200191505060405180910390f35b34801561052957600080fd5b50610532611a92565b604051808273ffffffffffffffffffffffffffffffffffffffff1673ffffffffffffffffffffffffffffffffffffffff16815260200191505060405180910390f35b34801561058057600080fd5b50610589611ab8565b6040518082815260200191505060405180910390f35b3480156105ab57600080fd5b506105b4611abe565b6040518082815260200191505060405180910390f35b3480156105d657600080fd5b506105df611ac4565b005b3480156105ed57600080fd5b506105f6611b74565b604051808273ffffffffffffffffffffffffffffffffffffffff1673ffffffffffffffffffffffffffffffffffffffff16815260200191505060405180910390f35b34801561064457600080fd5b5061067b6004803603604081101561065b57600080fd5b810190808035906020019092919080359060200190929190505050611b9a565b6040518082815260200191505060405180910390f35b34801561069d57600080fd5b506106a6611e40565b6040518082815260200191505060405180910390f35b3480156106c857600080fd5b506106d1611e46565b6040518082815260200191505060405180910390f35b3480156106f357600080fd5b506107206004803603602081101561070a57600080fd5b8101908080359060200190929190505050611e6a565b6040518082815260200191505060405180910390f35b34801561074257600080fd5b50610797600480360360a081101561075957600080fd5b810190808035906020019092919080359060200190929190803590602001909291908035906020019092919080359060200190929190505050611e82565b005b3480156107a557600080fd5b506107ae611fe5565b604051808263ffffffff1663ffffffff16815260200191505060405180910390f35b3480156107dc57600080fd5b506107e5611ffa565b6040518082815260200191505060405180910390f35b34801561080757600080fd5b50610810612000565b6040518080602001828103825283818151815260200191508051906020019080838360005b83811015610850578082015181840152602081019050610835565b50505050905090810190601f16801561087d5780820380516001836020036101000a031916815260200191505b509250505060405180910390f35b34801561089757600080fd5b506108a061203d565b604051808273ffffffffffffffffffffffffffffffffffffffff1673ffffffffffffffffffffffffffffffffffffffff16815260200191505060405180910390f35b3480156108ee57600080fd5b506109916004803603608081101561090557600080fd5b81019080803573ffffffffffffffffffffffffffffffffffffffff169060200190929190803573ffffffffffffffffffffffffffffffffffffffff169060200190929190803573ffffffffffffffffffffffffffffffffffffffff169060200190929190803573ffffffffffffffffffffffffffffffffffffffff169060200190929190505050612063565b005b34801561099f57600080fd5b506109a861233f565b6040518082815260200191505060405180910390f35b3480156109ca57600080fd5b506109f7600480360360208110156109e157600080fd5b8101908080359060200190929190505050612345565b604051808215151515815260200191505060405180910390f35b348015610a1d57600080fd5b50610a266123e7565b604051808273ffffffffffffffffffffffffffffffffffffffff1673ffffffffffffffffffffffffffffffffffffffff16815260200191505060405180910390f35b348015610a7457600080fd5b50610aa160048036036020811015610a8b57600080fd5b810190808035906020019092919050505061240d565b005b348015610aaf57600080fd5b50610adc60048036036020811015610ac657600080fd5b810190808035906020019092919050505061254b565b604051808215151515815260200191505060405180910390f35b348015610b0257600080fd5b50610b0b61256b565b6040518082815260200191505060405180910390f35b348015610b2d57600080fd5b50610b36612571565b005b348015610b4457600080fd5b50610b7160048036036020811015610b5b57600080fd5b810190808035906020019092919050505061269d565b005b348015610b7f57600080fd5b50610b8861278e565b604051808263ffffffff1663ffffffff16815260200191505060405180910390f35b348015610bb657600080fd5b50610bbf6127a4565b6040518082815260200191505060405180910390f35b348015610be157600080fd5b50610c2460048036036020811015610bf857600080fd5b81019080803573ffffffffffffffffffffffffffffffffffffffff1690602001909291905050506128a0565b005b348015610c3257600080fd5b50610c3b61298a565b6040518082815260200191505060405180910390f35b348015610c5d57600080fd5b50610c66612990565b6040518082815260200191505060405180910390f35b348015610c8857600080fd5b50610c91612996565b6040518082815260200191505060405180910390f35b348015610cb357600080fd5b50610cf660048036036020811015610cca57600080fd5b81019080803573ffffffffffffffffffffffffffffffffffffffff16906020019092919050505061299c565b005b610d2460048036036020811015610d0e57600080fd5b8101908080359060200190929190505050612a86565b604051808681526020018563ffffffff1663ffffffff1681526020018481526020018381526020018281526020019550505050505060405180910390f35b348015610d6e57600080fd5b50610d77612e60565b6040518082815260200191505060405180910390f35b348015610d9957600080fd5b50610da2612e66565b6040518082815260200191505060405180910390f35b348015610dc457600080fd5b50610df160048036036020811015610ddb57600080fd5b8101908080359060200190929190505050612e94565b6040518082815260200191505060405180910390f35b348015610e1357600080fd5b50610e4060048036036020811015610e2a57600080fd5b8101908080359060200190929190505050612eac565b6040518082815260200191505060405180910390f35b348015610e6257600080fd5b50610ea560048036036020811015610e7957600080fd5b81019080803573ffffffffffffffffffffffffffffffffffffffff169060200190929190505050612ec4565b005b348015610eb357600080fd5b50610ebc6130b7565b604051808263ffffffff1663ffffffff16815260200191505060405180910390f35b348015610eea57600080fd5b50610ef36130bc565b6040518082815260200191505060405180910390f35b348015610f1557600080fd5b50610f5860048036036020811015610f2c57600080fd5b81019080803573ffffffffffffffffffffffffffffffffffffffff1690602001909291905050506130c2565b005b348015610f6657600080fd5b50610f6f6131ac565b6040518082815260200191505060405180910390f35b348015610f9157600080fd5b50610fbe60048036036020811015610fa857600080fd5b81019080803590602001909291905050506131b2565b6040518082815260200191505060405180910390f35b348015610fe057600080fd5b50610fe96131d3565b6040518082815260200191505060405180910390f35b34801561100b57600080fd5b506110146131f7565b6040518082815260200191505060405180910390f35b34801561103657600080fd5b506110636004803603602081101561104d57600080fd5b81019080803590602001909291905050506131fd565b6040518082815260200191505060405180910390f35b34801561108557600080fd5b506110b26004803603602081101561109c57600080fd5b810190808035906020019092919050505061321e565b005b3480156110c057600080fd5b506110c96132e0565b604051808273ffffffffffffffffffffffffffffffffffffffff1673ffffffffffffffffffffffffffffffffffffffff16815260200191505060405180910390f35b34801561111757600080fd5b50611120613306565b604051808263ffffffff1663ffffffff16815260200191505060405180910390f35b608a60009054906101000a900473ffffffffffffffffffffffffffffffffffffffff1681565b600160686000828254019250508190555060006068549050600082146111f6576040517f08c379a00000000000000000000000000000000000000000000000000000000081526004018080602001828103825260128152602001807f726566756e64206973206e6f74207a65726f000000000000000000000000000081525060200191505060405180910390fd5b6111ff8561331c565b15611272576040517f08c379a000000000000000000000000000000000000000000000000000000000815260040180806020018281038252601f8152602001807f726563697069656e74206f662063616e6e6f7420626520636f6e74726163740081525060200191505060405180910390fd5b61127b87612345565b6112ed576040517f08c379a000000000000000000000000000000000000000000000000000000000815260040180806020018281038252601c8152602001807f43616e6e6f742066696e6420796f7572206d65726b6c6520726f6f740000000081525060200191505060405180910390fd5b606d60009054906101000a900473ffffffffffffffffffffffffffffffffffffffff1673ffffffffffffffffffffffffffffffffffffffff1663695ef6f98a8a6040518060c001604052808c60001c81526020018b60001c81526020018a73ffffffffffffffffffffffffffffffffffffffff1681526020018973ffffffffffffffffffffffffffffffffffffffff168152602001888152602001878152506040518463ffffffff1660e01b8152600401808060200183600660200280838360005b838110156113ca5780820151818401526020810190506113af565b505050509050018281038252858582818152602001925080828437600081840152601f19601f820116905080830192505050945050505050602060405180830381600087803b15801561141c57600080fd5b505af1158015611430573d6000803e3d6000fd5b505050506040513d602081101561144657600080fd5b81019080805190602001909291905050506114c9576040517f08c379a00000000000000000000000000000000000000000000000000000000081526004018080602001828103825260168152602001807f496e76616c69642077697468647261772070726f6f660000000000000000000081525060200191505060405180910390fd5b606d60009054906101000a900473ffffffffffffffffffffffffffffffffffffffff1673ffffffffffffffffffffffffffffffffffffffff166332ab8c92876040518263ffffffff1660e01b815260040180828152602001915050600060405180830381600087803b15801561153e57600080fd5b505af1158015611552573d6000803e3d6000fd5b5050505060006069549050600081111561159457611593606e60009054906101000a900473ffffffffffffffffffffffffffffffffffffffff16878361332f565b5b61159c612571565b600080905060006115bf6072546115b16127a4565b61345590919063ffffffff16565b905060008111156116085780607560008282540392505081905550611607606f60009054906101000a900473ffffffffffffffffffffffffffffffffffffffff16898361332f565b5b6000608854606a540390508087111561161f578096505b600087111561170b5760008873ffffffffffffffffffffffffffffffffffffffff168860405180600001905060006040518083038185875af1925050503d8060008114611688576040519150601f19603f3d011682016040523d82523d6000602084013e61168d565b606091505b5050905080611704576040517f08c379a000000000000000000000000000000000000000000000000000000000815260040180806020018281038252601a8152602001807f6661696c656420746f2073656e642072656c617965722066656500000000000081525060200191505060405180910390fd5b8782039150505b60008111156117f25760008973ffffffffffffffffffffffffffffffffffffffff168260405180600001905060006040518083038185875af1925050503d8060008114611774576040519150601f19603f3d011682016040523d82523d6000602084013e611779565b606091505b50509050806117f0576040517f08c379a00000000000000000000000000000000000000000000000000000000081526004018080602001828103825260178152602001807f6661696c656420746f20776974686472617720636f696e00000000000000000081525060200191505060405180910390fd5b505b60016072600082825403925050819055508773ffffffffffffffffffffffffffffffffffffffff167f6d7aac54bd3d1c91db3b1fd7b8d6cb45324ad6b5e373c0f0ea4d7b2606c4c2c88a8c8587604051808573ffffffffffffffffffffffffffffffffffffffff1673ffffffffffffffffffffffffffffffffffffffff16815260200184815260200183815260200182815260200194505050505060405180910390a2505050506068548114611910576040517f08c379a000000000000000000000000000000000000000000000000000000000815260040180806020018281038252601f8152602001807f5265656e7472616e637947756172643a207265656e7472616e742063616c6c0081525060200191505060405180910390fd5b505050505050505050565b6000608954608654111561193257600090506119ac565b6000607254141561194757606b5490506119ac565b600043905060006119566127a4565b90506073548211801561196b57506000607454115b1561197b57611978613469565b90505b6119a7607254611999600160725403846135bb90919063ffffffff16565b61345590919063ffffffff16565b925050505b90565b607160009054906101000a900473ffffffffffffffffffffffffffffffffffffffff1673ffffffffffffffffffffffffffffffffffffffff163373ffffffffffffffffffffffffffffffffffffffff1614611a55576040517f08c379a000000000000000000000000000000000000000000000000000000000815260040180806020018281038252602281526020018061493e6022913960400191505060405180910390fd5b8060898190555050565b607e8160048110611a6c57fe5b016000915054906101000a900473ffffffffffffffffffffffffffffffffffffffff1681565b606d60009054906101000a900473ffffffffffffffffffffffffffffffffffffffff1681565b60885481565b60725481565b607160009054906101000a900473ffffffffffffffffffffffffffffffffffffffff1673ffffffffffffffffffffffffffffffffffffffff163373ffffffffffffffffffffffffffffffffffffffff1614611b6a576040517f08c379a000000000000000000000000000000000000000000000000000000000815260040180806020018281038252602281526020018061493e6022913960400191505060405180910390fd5b611b726135d5565b565b607160009054906101000a900473ffffffffffffffffffffffffffffffffffffffff1681565b60007f30644e72e131a029b85045b68181585d2833e84879b9709143e1f593f00000018360001c10611c34576040517f08c379a00000000000000000000000000000000000000000000000000000000081526004018080602001828103825260208152602001807f5f6c6566742073686f756c6420626520696e7369646520746865206669656c6481525060200191505060405180910390fd5b7f30644e72e131a029b85045b68181585d2833e84879b9709143e1f593f00000018260001c10611caf576040517f08c379a000000000000000000000000000000000000000000000000000000000815260040180806020018281038252602181526020018061498f6021913960400191505060405180910390fd5b60008360001c9050600080905073__$b1d08b67b448c1738aa9c5efeb68bcb221$__63f47d33b583836040518363ffffffff1660e01b81526004018083815260200182815260200192505050604080518083038186803b158015611d1257600080fd5b505af4158015611d26573d6000803e3d6000fd5b505050506040513d6040811015611d3c57600080fd5b81019080805190602001909291908051906020019092919050505080925081935050507f30644e72e131a029b85045b68181585d2833e84879b9709143e1f593f000000180611d8757fe5b8460001c8308915073__$b1d08b67b448c1738aa9c5efeb68bcb221$__63f47d33b583836040518363ffffffff1660e01b81526004018083815260200182815260200192505050604080518083038186803b158015611de557600080fd5b505af4158015611df9573d6000803e3d6000fd5b505050506040513d6040811015611e0f57600080fd5b81019080805190602001909291908051906020019092919050505080925081935050508160001b9250505092915050565b60765481565b7f30644e72e131a029b85045b68181585d2833e84879b9709143e1f593f000000181565b60798160058110611e7757fe5b016000915090505481565b607160009054906101000a900473ffffffffffffffffffffffffffffffffffffffff1673ffffffffffffffffffffffffffffffffffffffff163373ffffffffffffffffffffffffffffffffffffffff1614611f28576040517f08c379a000000000000000000000000000000000000000000000000000000000815260040180806020018281038252602281526020018061493e6022913960400191505060405180910390fd5b606481838587890101010114611fa6576040517f08c379a00000000000000000000000000000000000000000000000000000000081526004018080602001828103825260078152602001807f496e76616c69640000000000000000000000000000000000000000000000000081525060200191505060405180910390fd5b6040518060a00160405280868152602001858152602001848152602001838152602001828152506079906005611fdd929190614818565b505050505050565b6000809054906101000a900463ffffffff1681565b60695481565b60606040518060400160405280600381526020017f322e330000000000000000000000000000000000000000000000000000000000815250905090565b607060009054906101000a900473ffffffffffffffffffffffffffffffffffffffff1681565b607160009054906101000a900473ffffffffffffffffffffffffffffffffffffffff1673ffffffffffffffffffffffffffffffffffffffff163373ffffffffffffffffffffffffffffffffffffffff1614612109576040517f08c379a000000000000000000000000000000000000000000000000000000000815260040180806020018281038252602281526020018061493e6022913960400191505060405180910390fd5b600073ffffffffffffffffffffffffffffffffffffffff168473ffffffffffffffffffffffffffffffffffffffff16141580156121735750600073ffffffffffffffffffffffffffffffffffffffff168373ffffffffffffffffffffffffffffffffffffffff1614155b80156121ac5750600073ffffffffffffffffffffffffffffffffffffffff168273ffffffffffffffffffffffffffffffffffffffff1614155b80156121e55750600073ffffffffffffffffffffffffffffffffffffffff168173ffffffffffffffffffffffffffffffffffffffff1614155b612257576040517f08c379a00000000000000000000000000000000000000000000000000000000081526004018080602001828103825260108152602001807f4e6f74205a65726f20416464726573730000000000000000000000000000000081525060200191505060405180910390fd5b60405180608001604052808573ffffffffffffffffffffffffffffffffffffffff1673ffffffffffffffffffffffffffffffffffffffff1681526020018473ffffffffffffffffffffffffffffffffffffffff1673ffffffffffffffffffffffffffffffffffffffff1681526020018373ffffffffffffffffffffffffffffffffffffffff1673ffffffffffffffffffffffffffffffffffffffff1681526020018273ffffffffffffffffffffffffffffffffffffffff1673ffffffffffffffffffffffffffffffffffffffff16815250607e906004612338929190614858565b5050505050565b608b5481565b60008060001b82141561235b57600090506123e2565b6000600360009054906101000a900463ffffffff1690505b60048163ffffffff166064811061238657fe5b01548314156123995760019150506123e2565b60008163ffffffff1614156123ad57606490505b808060019003915050600360009054906101000a900463ffffffff1663ffffffff168163ffffffff1614156123735760009150505b919050565b606f60009054906101000a900473ffffffffffffffffffffffffffffffffffffffff1681565b607160009054906101000a900473ffffffffffffffffffffffffffffffffffffffff1673ffffffffffffffffffffffffffffffffffffffff163373ffffffffffffffffffffffffffffffffffffffff16146124b3576040517f08c379a000000000000000000000000000000000000000000000000000000000815260040180806020018281038252602281526020018061493e6022913960400191505060405180910390fd5b600a8110612529576040517f08c379a00000000000000000000000000000000000000000000000000000000081526004018080602001828103825260138152602001807f4665652063616e2774206578636565642031250000000000000000000000000081525060200191505060405180910390fd5b806087819055506103e8608754606a54028161254157fe5b0460888190555050565b606c6020528060005260406000206000915054906101000a900460ff1681565b60745481565b60004390506073548111612585575061269b565b612673607854606f60009054906101000a900473ffffffffffffffffffffffffffffffffffffffff1673ffffffffffffffffffffffffffffffffffffffff166370a08231306040518263ffffffff1660e01b8152600401808273ffffffffffffffffffffffffffffffffffffffff1673ffffffffffffffffffffffffffffffffffffffff16815260200191505060206040518083038186803b15801561262a57600080fd5b505afa15801561263e573d6000803e3d6000fd5b505050506040513d602081101561265457600080fd5b810190808051906020019092919050505061345590919063ffffffff16565b6074819055506000607454146126925761268b613469565b6075819055505b80607381905550505b565b607160009054906101000a900473ffffffffffffffffffffffffffffffffffffffff1673ffffffffffffffffffffffffffffffffffffffff163373ffffffffffffffffffffffffffffffffffffffff1614612743576040517f08c379a000000000000000000000000000000000000000000000000000000000815260040180806020018281038252602281526020018061493e6022913960400191505060405180910390fd5b7ff077eec825bf8719ab7021daf299e3feb4cb33472ac3f1e661657fd9701a3e7e60765482604051808381526020018281526020019250505060405180910390a18060768190555050565b600360009054906101000a900463ffffffff1681565b600080606f60009054906101000a900473ffffffffffffffffffffffffffffffffffffffff1673ffffffffffffffffffffffffffffffffffffffff166370a08231306040518263ffffffff1660e01b8152600401808273ffffffffffffffffffffffffffffffffffffffff1673ffffffffffffffffffffffffffffffffffffffff16815260200191505060206040518083038186803b15801561284657600080fd5b505afa15801561285a573d6000803e3d6000fd5b505050506040513d602081101561287057600080fd5b81019080805190602001909291905050509050607554811015612896578091505061289d565b6075549150505b90565b607160009054906101000a900473ffffffffffffffffffffffffffffffffffffffff1673ffffffffffffffffffffffffffffffffffffffff163373ffffffffffffffffffffffffffffffffffffffff1614612946576040517f08c379a000000000000000000000000000000000000000000000000000000000815260040180806020018281038252602281526020018061493e6022913960400191505060405180910390fd5b80606d60006101000a81548173ffffffffffffffffffffffffffffffffffffffff021916908373ffffffffffffffffffffffffffffffffffffffff16021790555050565b606a5481565b60735481565b606b5481565b607160009054906101000a900473ffffffffffffffffffffffffffffffffffffffff1673ffffffffffffffffffffffffffffffffffffffff163373ffffffffffffffffffffffffffffffffffffffff1614612a42576040517f08c379a000000000000000000000000000000000000000000000000000000000815260040180806020018281038252602281526020018061493e6022913960400191505060405180910390fd5b80607060006101000a81548173ffffffffffffffffffffffffffffffffffffffff021916908373ffffffffffffffffffffffffffffffffffffffff16021790555050565b6000806000806000600160686000828254019250508190555060006068549050606c600088815260200190815260200160002060009054906101000a900460ff1615612b1d576040517f08c379a00000000000000000000000000000000000000000000000000000000081526004018080602001828103825260218152602001806149b06021913960400191505060405180910390fd5b606a54341015612b95576040517f08c379a00000000000000000000000000000000000000000000000000000000081526004018080602001828103825260188152602001807f696e73756666696369656e7420636f696e20616d6f756e74000000000000000081525060200191505060405180910390fd5b8695504293506000606a5434039050612bad88614152565b95506001606c60008a815260200190815260200160002060006101000a81548160ff021916908315150217905550612be361191b565b93506076549250600060695490506000811115612c4a57612c49333083606e60009054906101000a900473ffffffffffffffffffffffffffffffffffffffff1673ffffffffffffffffffffffffffffffffffffffff166143ab909392919063ffffffff16565b5b8460756000828254019250508190555060016072600082825401925050819055506000821115612d525760003373ffffffffffffffffffffffffffffffffffffffff168360405180600001905060006040518083038185875af1925050503d8060008114612cd4576040519150601f19603f3d011682016040523d82523d6000602084013e612cd9565b606091505b5050905080612d50576040517f08c379a00000000000000000000000000000000000000000000000000000000081526004018080602001828103825260108152602001807f6661696c656420746f20726566756e640000000000000000000000000000000081525060200191505060405180910390fd5b505b6088546086600082825401925050819055506089546086541115612d7957612d786135d5565b5b612d81612571565b887fcb186cc0add5be357ae2d3845e42be2ffbed8cb23b60f1b058ea371adff0a36388428888604051808563ffffffff1663ffffffff16815260200184815260200183815260200182815260200194505050505060405180910390a250506068548114612e56576040517f08c379a000000000000000000000000000000000000000000000000000000000815260040180806020018281038252601f8152602001807f5265656e7472616e637947756172643a207265656e7472616e742063616c6c0081525060200191505060405180910390fd5b5091939590929450565b60755481565b60006004600360009054906101000a900463ffffffff1663ffffffff1660648110612e8d57fe5b0154905090565b60048160648110612ea157fe5b016000915090505481565b60828160048110612eb957fe5b016000915090505481565b607160009054906101000a900473ffffffffffffffffffffffffffffffffffffffff1673ffffffffffffffffffffffffffffffffffffffff163373ffffffffffffffffffffffffffffffffffffffff1614612f6a576040517f08c379a000000000000000000000000000000000000000000000000000000000815260040180806020018281038252602281526020018061493e6022913960400191505060405180910390fd5b80606f60006101000a81548173ffffffffffffffffffffffffffffffffffffffff021916908373ffffffffffffffffffffffffffffffffffffffff160217905550606f60009054906101000a900473ffffffffffffffffffffffffffffffffffffffff1673ffffffffffffffffffffffffffffffffffffffff1663095ea7b3607160009054906101000a900473ffffffffffffffffffffffffffffffffffffffff166000196040518363ffffffff1660e01b8152600401808373ffffffffffffffffffffffffffffffffffffffff1673ffffffffffffffffffffffffffffffffffffffff16815260200182815260200192505050602060405180830381600087803b15801561307857600080fd5b505af115801561308c573d6000803e3d6000fd5b505050506040513d60208110156130a257600080fd5b81019080805190602001909291905050505050565b606481565b60895481565b607160009054906101000a900473ffffffffffffffffffffffffffffffffffffffff1673ffffffffffffffffffffffffffffffffffffffff163373ffffffffffffffffffffffffffffffffffffffff1614613168576040517f08c379a000000000000000000000000000000000000000000000000000000000815260040180806020018281038252602281526020018061493e6022913960400191505060405180910390fd5b80607160006101000a81548173ffffffffffffffffffffffffffffffffffffffff021916908373ffffffffffffffffffffffffffffffffffffffff16021790555050565b60865481565b600281815481106131bf57fe5b906000526020600020016000915090505481565b7f2fe54c60d3acabf3343a35b6eba15db4821b340f76e741e2249685ed4899af6c81565b60875481565b6001818154811061320a57fe5b906000526020600020016000915090505481565b607160009054906101000a900473ffffffffffffffffffffffffffffffffffffffff1673ffffffffffffffffffffffffffffffffffffffff163373ffffffffffffffffffffffffffffffffffffffff16146132c4576040517f08c379a000000000000000000000000000000000000000000000000000000000815260040180806020018281038252602281526020018061493e6022913960400191505060405180910390fd5b806077819055506004603c601860775402020260788190555050565b606e60009054906101000a900473ffffffffffffffffffffffffffffffffffffffff1681565b600360049054906101000a900463ffffffff1681565b600080823b905060008111915050919050565b60008373ffffffffffffffffffffffffffffffffffffffff166370a08231306040518263ffffffff1660e01b8152600401808273ffffffffffffffffffffffffffffffffffffffff1673ffffffffffffffffffffffffffffffffffffffff16815260200191505060206040518083038186803b1580156133ae57600080fd5b505afa1580156133c2573d6000803e3d6000fd5b505050506040513d60208110156133d857600080fd5b81019080805190602001909291905050509050808211156134235761341e83828673ffffffffffffffffffffffffffffffffffffffff166144b19092919063ffffffff16565b61344f565b61344e83838673ffffffffffffffffffffffffffffffffffffffff166144b19092919063ffffffff16565b5b50505050565b600081838161346057fe5b04905092915050565b6000806134956074546134876073544361458290919063ffffffff16565b61459990919063ffffffff16565b9050600061358c6134a46127a4565b606f60009054906101000a900473ffffffffffffffffffffffffffffffffffffffff1673ffffffffffffffffffffffffffffffffffffffff166370a08231306040518263ffffffff1660e01b8152600401808273ffffffffffffffffffffffffffffffffffffffff1673ffffffffffffffffffffffffffffffffffffffff16815260200191505060206040518083038186803b15801561354357600080fd5b505afa158015613557573d6000803e3d6000fd5b505050506040513d602081101561356d57600080fd5b810190808051906020019092919050505061458290919063ffffffff16565b90508181101561359a578091505b6135b4826135a66127a4565b6135bb90919063ffffffff16565b9250505090565b60008183019050828110156135cc57fe5b80905092915050565b60006086541161364d576040517f08c379a00000000000000000000000000000000000000000000000000000000081526004018080602001828103825260138152602001807f496e73756666696369656e7420416d6f756e740000000000000000000000000081525060200191505060405180910390fd5b6000606f60009054906101000a900473ffffffffffffffffffffffffffffffffffffffff1673ffffffffffffffffffffffffffffffffffffffff166370a08231306040518263ffffffff1660e01b8152600401808273ffffffffffffffffffffffffffffffffffffffff1673ffffffffffffffffffffffffffffffffffffffff16815260200191505060206040518083038186803b1580156136ee57600080fd5b505afa158015613702573d6000803e3d6000fd5b505050506040513d602081101561371857600080fd5b810190808051906020019092919050505090506060600260405190808252806020026020018201604052801561375d5781602001602082028038833980820191505090505b509050608a60009054906101000a900473ffffffffffffffffffffffffffffffffffffffff1673ffffffffffffffffffffffffffffffffffffffff1663ad5c46486040518163ffffffff1660e01b815260040160206040518083038186803b1580156137c857600080fd5b505afa1580156137dc573d6000803e3d6000fd5b505050506040513d60208110156137f257600080fd5b81019080805190602001909291905050508160008151811061381057fe5b602002602001019073ffffffffffffffffffffffffffffffffffffffff16908173ffffffffffffffffffffffffffffffffffffffff1681525050606f60009054906101000a900473ffffffffffffffffffffffffffffffffffffffff168160018151811061387a57fe5b602002602001019073ffffffffffffffffffffffffffffffffffffffff16908173ffffffffffffffffffffffffffffffffffffffff1681525050608a60009054906101000a900473ffffffffffffffffffffffffffffffffffffffff1673ffffffffffffffffffffffffffffffffffffffff1663b6f9de956086546000843061390d60024261459990919063ffffffff16565b6040518663ffffffff1660e01b815260040180858152602001806020018473ffffffffffffffffffffffffffffffffffffffff1673ffffffffffffffffffffffffffffffffffffffff168152602001838152602001828103825285818151815260200191508051906020019060200280838360005b8381101561399d578082015181840152602081019050613982565b50505050905001955050505050506000604051808303818588803b1580156139c457600080fd5b505af11580156139d8573d6000803e3d6000fd5b505050505060006086819055506000613ad383606f60009054906101000a900473ffffffffffffffffffffffffffffffffffffffff1673ffffffffffffffffffffffffffffffffffffffff166370a08231306040518263ffffffff1660e01b8152600401808273ffffffffffffffffffffffffffffffffffffffff1673ffffffffffffffffffffffffffffffffffffffff16815260200191505060206040518083038186803b158015613a8a57600080fd5b505afa158015613a9e573d6000803e3d6000fd5b505050506040513d6020811015613ab457600080fd5b810190808051906020019092919050505061458290919063ffffffff16565b905060006079600060058110613ae557fe5b01541115613c0957606f60009054906101000a900473ffffffffffffffffffffffffffffffffffffffff1673ffffffffffffffffffffffffffffffffffffffff1663a9059cbb61dead613b636064613b556079600060058110613b4457fe5b01548761459990919063ffffffff16565b61345590919063ffffffff16565b6040518363ffffffff1660e01b8152600401808373ffffffffffffffffffffffffffffffffffffffff1673ffffffffffffffffffffffffffffffffffffffff16815260200182815260200192505050602060405180830381600087803b158015613bcc57600080fd5b505af1158015613be0573d6000803e3d6000fd5b505050506040513d6020811015613bf657600080fd5b8101908080519060200190929190505050505b600073ffffffffffffffffffffffffffffffffffffffff16607e600060048110613c2f57fe5b0160009054906101000a900473ffffffffffffffffffffffffffffffffffffffff1673ffffffffffffffffffffffffffffffffffffffff1614158015613c84575060006079600160058110613c8057fe5b0154115b8015613ceb57503073ffffffffffffffffffffffffffffffffffffffff16607e600060048110613cb057fe5b0160009054906101000a900473ffffffffffffffffffffffffffffffffffffffff1673ffffffffffffffffffffffffffffffffffffffff1614155b15613d5a57613d46613d286064613d1a6079600160058110613d0957fe5b01548561459990919063ffffffff16565b61345590919063ffffffff16565b6082600060048110613d3657fe5b01546135bb90919063ffffffff16565b6082600060048110613d5457fe5b01819055505b600073ffffffffffffffffffffffffffffffffffffffff16607e600160048110613d8057fe5b0160009054906101000a900473ffffffffffffffffffffffffffffffffffffffff1673ffffffffffffffffffffffffffffffffffffffff1614158015613dd5575060006079600260058110613dd157fe5b0154115b8015613e3c57503073ffffffffffffffffffffffffffffffffffffffff16607e600160048110613e0157fe5b0160009054906101000a900473ffffffffffffffffffffffffffffffffffffffff1673ffffffffffffffffffffffffffffffffffffffff1614155b15613eab57613e97613e796064613e6b6079600260058110613e5a57fe5b01548561459990919063ffffffff16565b61345590919063ffffffff16565b6082600160048110613e8757fe5b01546135bb90919063ffffffff16565b6082600160048110613ea557fe5b01819055505b600073ffffffffffffffffffffffffffffffffffffffff16607e600260048110613ed157fe5b0160009054906101000a900473ffffffffffffffffffffffffffffffffffffffff1673ffffffffffffffffffffffffffffffffffffffff1614158015613f26575060006079600360058110613f2257fe5b0154115b8015613f8d57503073ffffffffffffffffffffffffffffffffffffffff16607e600260048110613f5257fe5b0160009054906101000a900473ffffffffffffffffffffffffffffffffffffffff1673ffffffffffffffffffffffffffffffffffffffff1614155b15613ffc57613fe8613fca6064613fbc6079600360058110613fab57fe5b01548561459990919063ffffffff16565b61345590919063ffffffff16565b6082600260048110613fd857fe5b01546135bb90919063ffffffff16565b6082600260048110613ff657fe5b01819055505b600073ffffffffffffffffffffffffffffffffffffffff16607e60036004811061402257fe5b0160009054906101000a900473ffffffffffffffffffffffffffffffffffffffff1673ffffffffffffffffffffffffffffffffffffffff161415801561407757506000607960046005811061407357fe5b0154115b80156140de57503073ffffffffffffffffffffffffffffffffffffffff16607e6003600481106140a357fe5b0160009054906101000a900473ffffffffffffffffffffffffffffffffffffffff1673ffffffffffffffffffffffffffffffffffffffff1614155b1561414d5761413961411b606461410d60796004600581106140fc57fe5b01548561459990919063ffffffff16565b61345590919063ffffffff16565b608260036004811061412957fe5b01546135bb90919063ffffffff16565b608260036004811061414757fe5b01819055505b505050565b600080600360049054906101000a900463ffffffff1690506000809054906101000a900463ffffffff1663ffffffff16600263ffffffff160a63ffffffff168163ffffffff1614156141ef576040517f08c379a000000000000000000000000000000000000000000000000000000000815260040180806020018281038252602f815260200180614960602f913960400191505060405180910390fd5b6001600360048282829054906101000a900463ffffffff160192506101000a81548163ffffffff021916908363ffffffff160217905550600083905060008060008090505b6000809054906101000a900463ffffffff1663ffffffff168163ffffffff16101561431257600060028663ffffffff168161426b57fe5b0663ffffffff1614156142c25783925060028163ffffffff168154811061428e57fe5b906000526020600020015491508360018263ffffffff16815481106142af57fe5b90600052602060002001819055506142e6565b60018163ffffffff16815481106142d557fe5b906000526020600020015492508391505b6142f08383611b9a565b935060028563ffffffff168161430257fe5b0494508080600101915050614234565b50606463ffffffff166001600360009054906101000a900463ffffffff160163ffffffff168161433e57fe5b06600360006101000a81548163ffffffff021916908363ffffffff160217905550826004600360009054906101000a900463ffffffff1663ffffffff166064811061438557fe5b01819055506001600360049054906101000a900463ffffffff1603945050505050919050565b6144ab848573ffffffffffffffffffffffffffffffffffffffff166323b872dd905060e01b858585604051602401808473ffffffffffffffffffffffffffffffffffffffff1673ffffffffffffffffffffffffffffffffffffffff1681526020018373ffffffffffffffffffffffffffffffffffffffff1673ffffffffffffffffffffffffffffffffffffffff1681526020018281526020019350505050604051602081830303815290604052907bffffffffffffffffffffffffffffffffffffffffffffffffffffffff19166020820180517bffffffffffffffffffffffffffffffffffffffffffffffffffffffff83818316178352505050506145cd565b50505050565b61457d838473ffffffffffffffffffffffffffffffffffffffff1663a9059cbb905060e01b8484604051602401808373ffffffffffffffffffffffffffffffffffffffff1673ffffffffffffffffffffffffffffffffffffffff16815260200182815260200192505050604051602081830303815290604052907bffffffffffffffffffffffffffffffffffffffffffffffffffffffff19166020820180517bffffffffffffffffffffffffffffffffffffffffffffffffffffffff83818316178352505050506145cd565b505050565b60008282111561458e57fe5b818303905092915050565b6000808314156145ac57600090506145c7565b8183029050818382816145bb57fe5b04146145c357fe5b8090505b92915050565b6145ec8273ffffffffffffffffffffffffffffffffffffffff1661331c565b61465e576040517f08c379a000000000000000000000000000000000000000000000000000000000815260040180806020018281038252601f8152602001807f5361666545524332303a2063616c6c20746f206e6f6e2d636f6e74726163740081525060200191505060405180910390fd5b600060608373ffffffffffffffffffffffffffffffffffffffff16836040518082805190602001908083835b602083106146ad578051825260208201915060208101905060208303925061468a565b6001836020036101000a0380198251168184511680821785525050505050509050019150506000604051808303816000865af19150503d806000811461470f576040519150601f19603f3d011682016040523d82523d6000602084013e614714565b606091505b50915091508161478c576040517f08c379a00000000000000000000000000000000000000000000000000000000081526004018080602001828103825260208152602001807f5361666545524332303a206c6f772d6c6576656c2063616c6c206661696c656481525060200191505060405180910390fd5b600081511115614812578080602001905160208110156147ab57600080fd5b8101908080519060200190929190505050614811576040517f08c379a000000000000000000000000000000000000000000000000000000000815260040180806020018281038252602a8152602001806149d1602a913960400191505060405180910390fd5b5b50505050565b8260058101928215614847579160200282015b8281111561484657825182559160200191906001019061482b565b5b50905061485491906148d5565b5090565b82600481019282156148c4579160200282015b828111156148c35782518260006101000a81548173ffffffffffffffffffffffffffffffffffffffff021916908373ffffffffffffffffffffffffffffffffffffffff1602179055509160200191906001019061486b565b5b5090506148d191906148fa565b5090565b6148f791905b808211156148f35760008160009055506001016148db565b5090565b90565b61493a91905b8082111561493657600081816101000a81549073ffffffffffffffffffffffffffffffffffffffff021916905550600101614900565b5090565b9056fe4f6e6c79204f776e65722063616e2063616c6c20746869732066756e6374696f6e2e4d65726b6c6520747265652069732066756c6c2e204e6f206d6f7265206c656166732063616e2062652061646465645f72696768742073686f756c6420626520696e7369646520746865206669656c6454686520636f6d6d69746d656e7420686173206265656e207375626d69747465645361666545524332303a204552433230206f7065726174696f6e20646964206e6f742073756363656564a265627a7a72315820d540efa7eb4fec9096c908c5949eecb1e842d11f7e9a6336419cb6e860f1317c64736f6c634300051100325f72696768742073686f756c6420626520696e7369646520746865206669656c64",
					"opcodes": "PUSH1 0x80 PUSH1 0x40 MSTORE PUSH1 0x0 PUSH1 0x3 PUSH1 0x0 PUSH2 0x100 EXP DUP2 SLOAD DUP2 PUSH4 0xFFFFFFFF MUL NOT AND SWAP1 DUP4 PUSH4 0xFFFFFFFF AND MUL OR SWAP1 SSTORE POP PUSH1 0x0 PUSH1 0x3 PUSH1 0x4 PUSH2 0x100 EXP DUP2 SLOAD DUP2 PUSH4 0xFFFFFFFF MUL NOT AND SWAP1 DUP4 PUSH4 0xFFFFFFFF AND MUL OR SWAP1 SSTORE POP PUSH1 0x0 PUSH1 0x76 SSTORE PUSH2 0x16D PUSH1 0x77 SSTORE PUSH1 0x4 PUSH1 0x3C PUSH1 0x18 PUSH1 0x77 SLOAD MUL MUL MUL PUSH1 0x78 SSTORE PUSH1 0x40 MLOAD DUP1 PUSH1 0xA0 ADD PUSH1 0x40 MSTORE DUP1 PUSH1 0x1E PUSH1 0xFF AND DUP2 MSTORE PUSH1 0x20 ADD PUSH1 0x0 PUSH1 0xFF AND DUP2 MSTORE PUSH1 0x20 ADD PUSH1 0x46 PUSH1 0xFF AND DUP2 MSTORE PUSH1 0x20 ADD PUSH1 0x0 PUSH1 0xFF AND DUP2 MSTORE PUSH1 0x20 ADD PUSH1 0x0 PUSH1 0xFF AND DUP2 MSTORE POP PUSH1 0x79 SWAP1 PUSH1 0x5 PUSH3 0xAF SWAP3 SWAP2 SWAP1 PUSH3 0x701 JUMP JUMPDEST POP PUSH1 0x4 PUSH1 0x87 SSTORE PUSH8 0x3782DACE9D90000 PUSH1 0x89 SSTORE CALLVALUE DUP1 ISZERO PUSH3 0xCE JUMPI PUSH1 0x0 DUP1 REVERT JUMPDEST POP PUSH1 0x14 PUSH1 0x0 DUP1 PUSH2 0x100 EXP DUP2 SLOAD DUP2 PUSH4 0xFFFFFFFF MUL NOT AND SWAP1 DUP4 PUSH4 0xFFFFFFFF AND MUL OR SWAP1 SSTORE POP PUSH1 0x0 PUSH32 0x2FE54C60D3ACABF3343A35B6EBA15DB4821B340F76E741E2249685ED4899AF6C PUSH1 0x0 SHL SWAP1 POP PUSH1 0x2 DUP2 SWAP1 DUP1 PUSH1 0x1 DUP2 SLOAD ADD DUP1 DUP3 SSTORE DUP1 SWAP2 POP POP SWAP1 PUSH1 0x1 DUP3 SUB SWAP1 PUSH1 0x0 MSTORE PUSH1 0x20 PUSH1 0x0 KECCAK256 ADD PUSH1 0x0 SWAP1 SWAP2 SWAP3 SWAP1 SWAP2 SWAP1 SWAP2 POP SSTORE POP PUSH1 0x1 DUP2 SWAP1 DUP1 PUSH1 0x1 DUP2 SLOAD ADD DUP1 DUP3 SSTORE DUP1 SWAP2 POP POP SWAP1 PUSH1 0x1 DUP3 SUB SWAP1 PUSH1 0x0 MSTORE PUSH1 0x20 PUSH1 0x0 KECCAK256 ADD PUSH1 0x0 SWAP1 SWAP2 SWAP3 SWAP1 SWAP2 SWAP1 SWAP2 POP SSTORE POP PUSH1 0x0 PUSH1 0x1 SWAP1 POP JUMPDEST PUSH1 0x0 DUP1 SWAP1 SLOAD SWAP1 PUSH2 0x100 EXP SWAP1 DIV PUSH4 0xFFFFFFFF AND PUSH4 0xFFFFFFFF AND DUP2 PUSH4 0xFFFFFFFF AND LT ISZERO PUSH3 0x217 JUMPI PUSH3 0x1AF DUP3 DUP4 PUSH3 0x451 PUSH1 0x20 SHL PUSH1 0x20 SHR JUMP JUMPDEST SWAP2 POP PUSH1 0x2 DUP3 SWAP1 DUP1 PUSH1 0x1 DUP2 SLOAD ADD DUP1 DUP3 SSTORE DUP1 SWAP2 POP POP SWAP1 PUSH1 0x1 DUP3 SUB SWAP1 PUSH1 0x0 MSTORE PUSH1 0x20 PUSH1 0x0 KECCAK256 ADD PUSH1 0x0 SWAP1 SWAP2 SWAP3 SWAP1 SWAP2 SWAP1 SWAP2 POP SSTORE POP PUSH1 0x1 DUP3 SWAP1 DUP1 PUSH1 0x1 DUP2 SLOAD ADD DUP1 DUP3 SSTORE DUP1 SWAP2 POP POP SWAP1 PUSH1 0x1 DUP3 SUB SWAP1 PUSH1 0x0 MSTORE PUSH1 0x20 PUSH1 0x0 KECCAK256 ADD PUSH1 0x0 SWAP1 SWAP2 SWAP3 SWAP1 SWAP2 SWAP1 SWAP2 POP SSTORE POP DUP1 DUP1 PUSH1 0x1 ADD SWAP2 POP POP PUSH3 0x177 JUMP JUMPDEST POP PUSH3 0x22A DUP2 DUP3 PUSH3 0x451 PUSH1 0x20 SHL PUSH1 0x20 SHR JUMP JUMPDEST PUSH1 0x4 PUSH1 0x0 PUSH1 0x64 DUP2 LT PUSH3 0x239 JUMPI INVALID JUMPDEST ADD DUP2 SWAP1 SSTORE POP POP PUSH1 0x1 PUSH1 0x68 DUP2 SWAP1 SSTORE POP CALLER PUSH1 0x70 PUSH1 0x0 PUSH2 0x100 EXP DUP2 SLOAD DUP2 PUSH20 0xFFFFFFFFFFFFFFFFFFFFFFFFFFFFFFFFFFFFFFFF MUL NOT AND SWAP1 DUP4 PUSH20 0xFFFFFFFFFFFFFFFFFFFFFFFFFFFFFFFFFFFFFFFF AND MUL OR SWAP1 SSTORE POP CALLER PUSH1 0x71 PUSH1 0x0 PUSH2 0x100 EXP DUP2 SLOAD DUP2 PUSH20 0xFFFFFFFFFFFFFFFFFFFFFFFFFFFFFFFFFFFFFFFF MUL NOT AND SWAP1 DUP4 PUSH20 0xFFFFFFFFFFFFFFFFFFFFFFFFFFFFFFFFFFFFFFFF AND MUL OR SWAP1 SSTORE POP NUMBER PUSH1 0x73 DUP2 SWAP1 SSTORE POP PUSH1 0x0 PUSH1 0x6B DUP2 SWAP1 SSTORE POP PUSH8 0xDE0B6B3A7640000 PUSH1 0x6A DUP2 SWAP1 SSTORE POP PUSH1 0x0 PUSH1 0x69 DUP2 SWAP1 SSTORE POP PUSH1 0x0 PUSH20 0x7A250D5630B4CF539739DF2C5DACB4C659F2488D SWAP1 POP DUP1 PUSH1 0x8A PUSH1 0x0 PUSH2 0x100 EXP DUP2 SLOAD DUP2 PUSH20 0xFFFFFFFFFFFFFFFFFFFFFFFFFFFFFFFFFFFFFFFF MUL NOT AND SWAP1 DUP4 PUSH20 0xFFFFFFFFFFFFFFFFFFFFFFFFFFFFFFFFFFFFFFFF AND MUL OR SWAP1 SSTORE POP PUSH2 0x3E8 PUSH1 0x87 SLOAD PUSH1 0x6A SLOAD MUL DUP2 PUSH3 0x35B JUMPI INVALID JUMPDEST DIV PUSH1 0x88 DUP2 SWAP1 SSTORE POP PUSH1 0x40 MLOAD DUP1 PUSH1 0x80 ADD PUSH1 0x40 MSTORE DUP1 PUSH1 0x0 PUSH20 0xFFFFFFFFFFFFFFFFFFFFFFFFFFFFFFFFFFFFFFFF AND PUSH20 0xFFFFFFFFFFFFFFFFFFFFFFFFFFFFFFFFFFFFFFFF AND DUP2 MSTORE PUSH1 0x20 ADD PUSH1 0x0 PUSH20 0xFFFFFFFFFFFFFFFFFFFFFFFFFFFFFFFFFFFFFFFF AND PUSH20 0xFFFFFFFFFFFFFFFFFFFFFFFFFFFFFFFFFFFFFFFF AND DUP2 MSTORE PUSH1 0x20 ADD PUSH1 0x0 PUSH20 0xFFFFFFFFFFFFFFFFFFFFFFFFFFFFFFFFFFFFFFFF AND PUSH20 0xFFFFFFFFFFFFFFFFFFFFFFFFFFFFFFFFFFFFFFFF AND DUP2 MSTORE PUSH1 0x20 ADD PUSH1 0x0 PUSH20 0xFFFFFFFFFFFFFFFFFFFFFFFFFFFFFFFFFFFFFFFF AND PUSH20 0xFFFFFFFFFFFFFFFFFFFFFFFFFFFFFFFFFFFFFFFF AND DUP2 MSTORE POP PUSH1 0x7E SWAP1 PUSH1 0x4 PUSH3 0x449 SWAP3 SWAP2 SWAP1 PUSH3 0x74B JUMP JUMPDEST POP POP PUSH3 0x83B JUMP JUMPDEST PUSH1 0x0 PUSH32 0x30644E72E131A029B85045B68181585D2833E84879B9709143E1F593F0000001 DUP4 PUSH1 0x0 SHR LT PUSH3 0x4EC JUMPI PUSH1 0x40 MLOAD PUSH32 0x8C379A000000000000000000000000000000000000000000000000000000000 DUP2 MSTORE PUSH1 0x4 ADD DUP1 DUP1 PUSH1 0x20 ADD DUP3 DUP2 SUB DUP3 MSTORE PUSH1 0x20 DUP2 MSTORE PUSH1 0x20 ADD DUP1 PUSH32 0x5F6C6566742073686F756C6420626520696E7369646520746865206669656C64 DUP2 MSTORE POP PUSH1 0x20 ADD SWAP2 POP POP PUSH1 0x40 MLOAD DUP1 SWAP2 SUB SWAP1 REVERT JUMPDEST PUSH32 0x30644E72E131A029B85045B68181585D2833E84879B9709143E1F593F0000001 DUP3 PUSH1 0x0 SHR LT PUSH3 0x569 JUMPI PUSH1 0x40 MLOAD PUSH32 0x8C379A000000000000000000000000000000000000000000000000000000000 DUP2 MSTORE PUSH1 0x4 ADD DUP1 DUP1 PUSH1 0x20 ADD DUP3 DUP2 SUB DUP3 MSTORE PUSH1 0x21 DUP2 MSTORE PUSH1 0x20 ADD DUP1 PUSH3 0x527A PUSH1 0x21 SWAP2 CODECOPY PUSH1 0x40 ADD SWAP2 POP POP PUSH1 0x40 MLOAD DUP1 SWAP2 SUB SWAP1 REVERT JUMPDEST PUSH1 0x0 DUP4 PUSH1 0x0 SHR SWAP1 POP PUSH1 0x0 DUP1 SWAP1 POP PUSH20 0x0 PUSH4 0xF47D33B5 DUP4 DUP4 PUSH1 0x40 MLOAD DUP4 PUSH4 0xFFFFFFFF AND PUSH1 0xE0 SHL DUP2 MSTORE PUSH1 0x4 ADD DUP1 DUP4 DUP2 MSTORE PUSH1 0x20 ADD DUP3 DUP2 MSTORE PUSH1 0x20 ADD SWAP3 POP POP POP PUSH1 0x40 DUP1 MLOAD DUP1 DUP4 SUB DUP2 DUP7 DUP1 EXTCODESIZE ISZERO DUP1 ISZERO PUSH3 0x5CD JUMPI PUSH1 0x0 DUP1 REVERT JUMPDEST POP GAS DELEGATECALL ISZERO DUP1 ISZERO PUSH3 0x5E2 JUMPI RETURNDATASIZE PUSH1 0x0 DUP1 RETURNDATACOPY RETURNDATASIZE PUSH1 0x0 REVERT JUMPDEST POP POP POP POP PUSH1 0x40 MLOAD RETURNDATASIZE PUSH1 0x40 DUP2 LT ISZERO PUSH3 0x5F9 JUMPI PUSH1 0x0 DUP1 REVERT JUMPDEST DUP2 ADD SWAP1 DUP1 DUP1 MLOAD SWAP1 PUSH1 0x20 ADD SWAP1 SWAP3 SWAP2 SWAP1 DUP1 MLOAD SWAP1 PUSH1 0x20 ADD SWAP1 SWAP3 SWAP2 SWAP1 POP POP POP DUP1 SWAP3 POP DUP2 SWAP4 POP POP POP PUSH32 0x30644E72E131A029B85045B68181585D2833E84879B9709143E1F593F0000001 DUP1 PUSH3 0x645 JUMPI INVALID JUMPDEST DUP5 PUSH1 0x0 SHR DUP4 ADDMOD SWAP2 POP PUSH20 0x0 PUSH4 0xF47D33B5 DUP4 DUP4 PUSH1 0x40 MLOAD DUP4 PUSH4 0xFFFFFFFF AND PUSH1 0xE0 SHL DUP2 MSTORE PUSH1 0x4 ADD DUP1 DUP4 DUP2 MSTORE PUSH1 0x20 ADD DUP3 DUP2 MSTORE PUSH1 0x20 ADD SWAP3 POP POP POP PUSH1 0x40 DUP1 MLOAD DUP1 DUP4 SUB DUP2 DUP7 DUP1 EXTCODESIZE ISZERO DUP1 ISZERO PUSH3 0x6A4 JUMPI PUSH1 0x0 DUP1 REVERT JUMPDEST POP GAS DELEGATECALL ISZERO DUP1 ISZERO PUSH3 0x6B9 JUMPI RETURNDATASIZE PUSH1 0x0 DUP1 RETURNDATACOPY RETURNDATASIZE PUSH1 0x0 REVERT JUMPDEST POP POP POP POP PUSH1 0x40 MLOAD RETURNDATASIZE PUSH1 0x40 DUP2 LT ISZERO PUSH3 0x6D0 JUMPI PUSH1 0x0 DUP1 REVERT JUMPDEST DUP2 ADD SWAP1 DUP1 DUP1 MLOAD SWAP1 PUSH1 0x20 ADD SWAP1 SWAP3 SWAP2 SWAP1 DUP1 MLOAD SWAP1 PUSH1 0x20 ADD SWAP1 SWAP3 SWAP2 SWAP1 POP POP POP DUP1 SWAP3 POP DUP2 SWAP4 POP POP POP DUP2 PUSH1 0x0 SHL SWAP3 POP POP POP SWAP3 SWAP2 POP POP JUMP JUMPDEST DUP3 PUSH1 0x5 DUP2 ADD SWAP3 DUP3 ISZERO PUSH3 0x738 JUMPI SWAP2 PUSH1 0x20 MUL DUP3 ADD JUMPDEST DUP3 DUP2 GT ISZERO PUSH3 0x737 JUMPI DUP3 MLOAD DUP3 SWAP1 PUSH1 0xFF AND SWAP1 SSTORE SWAP2 PUSH1 0x20 ADD SWAP2 SWAP1 PUSH1 0x1 ADD SWAP1 PUSH3 0x715 JUMP JUMPDEST JUMPDEST POP SWAP1 POP PUSH3 0x747 SWAP2 SWAP1 PUSH3 0x7CD JUMP JUMPDEST POP SWAP1 JUMP JUMPDEST DUP3 PUSH1 0x4 DUP2 ADD SWAP3 DUP3 ISZERO PUSH3 0x7BA JUMPI SWAP2 PUSH1 0x20 MUL DUP3 ADD JUMPDEST DUP3 DUP2 GT ISZERO PUSH3 0x7B9 JUMPI DUP3 MLOAD DUP3 PUSH1 0x0 PUSH2 0x100 EXP DUP2 SLOAD DUP2 PUSH20 0xFFFFFFFFFFFFFFFFFFFFFFFFFFFFFFFFFFFFFFFF MUL NOT AND SWAP1 DUP4 PUSH20 0xFFFFFFFFFFFFFFFFFFFFFFFFFFFFFFFFFFFFFFFF AND MUL OR SWAP1 SSTORE POP SWAP2 PUSH1 0x20 ADD SWAP2 SWAP1 PUSH1 0x1 ADD SWAP1 PUSH3 0x75F JUMP JUMPDEST JUMPDEST POP SWAP1 POP PUSH3 0x7C9 SWAP2 SWAP1 PUSH3 0x7F5 JUMP JUMPDEST POP SWAP1 JUMP JUMPDEST PUSH3 0x7F2 SWAP2 SWAP1 JUMPDEST DUP1 DUP3 GT ISZERO PUSH3 0x7EE JUMPI PUSH1 0x0 DUP2 PUSH1 0x0 SWAP1 SSTORE POP PUSH1 0x1 ADD PUSH3 0x7D4 JUMP JUMPDEST POP SWAP1 JUMP JUMPDEST SWAP1 JUMP JUMPDEST PUSH3 0x838 SWAP2 SWAP1 JUMPDEST DUP1 DUP3 GT ISZERO PUSH3 0x834 JUMPI PUSH1 0x0 DUP2 DUP2 PUSH2 0x100 EXP DUP2 SLOAD SWAP1 PUSH20 0xFFFFFFFFFFFFFFFFFFFFFFFFFFFFFFFFFFFFFFFF MUL NOT AND SWAP1 SSTORE POP PUSH1 0x1 ADD PUSH3 0x7FC JUMP JUMPDEST POP SWAP1 JUMP JUMPDEST SWAP1 JUMP JUMPDEST PUSH2 0x4A2F DUP1 PUSH3 0x84B PUSH1 0x0 CODECOPY PUSH1 0x0 RETURN INVALID PUSH1 0x80 PUSH1 0x40 MSTORE PUSH1 0x4 CALLDATASIZE LT PUSH2 0x2FF JUMPI PUSH1 0x0 CALLDATALOAD PUSH1 0xE0 SHR DUP1 PUSH4 0x8D949D4B GT PUSH2 0x190 JUMPI DUP1 PUSH4 0xCA093047 GT PUSH2 0xDC JUMPI DUP1 PUSH4 0xE8295588 GT PUSH2 0x95 JUMPI DUP1 PUSH4 0xF178E47C GT PUSH2 0x6F JUMPI DUP1 PUSH4 0xF178E47C EQ PUSH2 0x102A JUMPI DUP1 PUSH4 0xF6BE71D1 EQ PUSH2 0x1079 JUMPI DUP1 PUSH4 0xFC0C546A EQ PUSH2 0x10B4 JUMPI DUP1 PUSH4 0xFC7E9C6F EQ PUSH2 0x110B JUMPI PUSH2 0x2FF JUMP JUMPDEST DUP1 PUSH4 0xE8295588 EQ PUSH2 0xF85 JUMPI DUP1 PUSH4 0xEC732959 EQ PUSH2 0xFD4 JUMPI DUP1 PUSH4 0xECAA6503 EQ PUSH2 0xFFF JUMPI PUSH2 0x2FF JUMP JUMPDEST DUP1 PUSH4 0xCA093047 EQ PUSH2 0xE07 JUMPI DUP1 PUSH4 0xCA13D4E6 EQ PUSH2 0xE56 JUMPI DUP1 PUSH4 0xCD87A3B4 EQ PUSH2 0xEA7 JUMPI DUP1 PUSH4 0xD27C1824 EQ PUSH2 0xEDE JUMPI DUP1 PUSH4 0xD3129BE4 EQ PUSH2 0xF09 JUMPI DUP1 PUSH4 0xE811F50A EQ PUSH2 0xF5A JUMPI PUSH2 0x2FF JUMP JUMPDEST DUP1 PUSH4 0xA9F8D181 GT PUSH2 0x149 JUMPI DUP1 PUSH4 0xB214FAA5 GT PUSH2 0x123 JUMPI DUP1 PUSH4 0xB214FAA5 EQ PUSH2 0xCF8 JUMPI DUP1 PUSH4 0xB4A61FAA EQ PUSH2 0xD62 JUMPI DUP1 PUSH4 0xBA70F757 EQ PUSH2 0xD8D JUMPI DUP1 PUSH4 0xC2B40AE4 EQ PUSH2 0xDB8 JUMPI PUSH2 0x2FF JUMP JUMPDEST DUP1 PUSH4 0xA9F8D181 EQ PUSH2 0xC51 JUMPI DUP1 PUSH4 0xAF324076 EQ PUSH2 0xC7C JUMPI DUP1 PUSH4 0xB14F2A39 EQ PUSH2 0xCA7 JUMPI PUSH2 0x2FF JUMP JUMPDEST DUP1 PUSH4 0x8D949D4B EQ PUSH2 0xB21 JUMPI DUP1 PUSH4 0x8DAAC0DF EQ PUSH2 0xB38 JUMPI DUP1 PUSH4 0x90EEB02B EQ PUSH2 0xB73 JUMPI DUP1 PUSH4 0x9709A6FD EQ PUSH2 0xBAA JUMPI DUP1 PUSH4 0x97FC007C EQ PUSH2 0xBD5 JUMPI DUP1 PUSH4 0x997318EC EQ PUSH2 0xC26 JUMPI PUSH2 0x2FF JUMP JUMPDEST DUP1 PUSH4 0x445CD696 GT PUSH2 0x24F JUMPI DUP1 PUSH4 0x6C081396 GT PUSH2 0x208 JUMPI DUP1 PUSH4 0x75DDC9ED GT PUSH2 0x1E2 JUMPI DUP1 PUSH4 0x75DDC9ED EQ PUSH2 0xA11 JUMPI DUP1 PUSH4 0x7CE3489B EQ PUSH2 0xA68 JUMPI DUP1 PUSH4 0x839DF945 EQ PUSH2 0xAA3 JUMPI DUP1 PUSH4 0x8AE39CAC EQ PUSH2 0xAF6 JUMPI PUSH2 0x2FF JUMP JUMPDEST DUP1 PUSH4 0x6C081396 EQ PUSH2 0x8E2 JUMPI DUP1 PUSH4 0x6C23CD68 EQ PUSH2 0x993 JUMPI DUP1 PUSH4 0x6D9833E3 EQ PUSH2 0x9BE JUMPI PUSH2 0x2FF JUMP JUMPDEST DUP1 PUSH4 0x445CD696 EQ PUSH2 0x6E7 JUMPI DUP1 PUSH4 0x4B3E7811 EQ PUSH2 0x736 JUMPI DUP1 PUSH4 0x4ECF518B EQ PUSH2 0x799 JUMPI DUP1 PUSH4 0x5129B3E1 EQ PUSH2 0x7D0 JUMPI DUP1 PUSH4 0x54FD4D50 EQ PUSH2 0x7FB JUMPI DUP1 PUSH4 0x61D027B3 EQ PUSH2 0x88B JUMPI PUSH2 0x2FF JUMP JUMPDEST DUP1 PUSH4 0x2D0EC0FF GT PUSH2 0x2BC JUMPI DUP1 PUSH4 0x34D6A7BF GT PUSH2 0x296 JUMPI DUP1 PUSH4 0x34D6A7BF EQ PUSH2 0x5E1 JUMPI DUP1 PUSH4 0x38BF282E EQ PUSH2 0x638 JUMPI DUP1 PUSH4 0x3B406FB7 EQ PUSH2 0x691 JUMPI DUP1 PUSH4 0x414A37BA EQ PUSH2 0x6BC JUMPI PUSH2 0x2FF JUMP JUMPDEST DUP1 PUSH4 0x2D0EC0FF EQ PUSH2 0x574 JUMPI DUP1 PUSH4 0x3409038C EQ PUSH2 0x59F JUMPI DUP1 PUSH4 0x34749D22 EQ PUSH2 0x5CA JUMPI PUSH2 0x2FF JUMP JUMPDEST DUP1 PUSH4 0x1694505E EQ PUSH2 0x304 JUMPI DUP1 PUSH4 0x21A0ADB6 EQ PUSH2 0x35B JUMPI DUP1 PUSH4 0x22217CD3 EQ PUSH2 0x43C JUMPI DUP1 PUSH4 0x29A5967E EQ PUSH2 0x467 JUMPI DUP1 PUSH4 0x2A48235B EQ PUSH2 0x4A2 JUMPI DUP1 PUSH4 0x2B7AC3F3 EQ PUSH2 0x51D JUMPI JUMPDEST PUSH1 0x0 DUP1 REVERT JUMPDEST CALLVALUE DUP1 ISZERO PUSH2 0x310 JUMPI PUSH1 0x0 DUP1 REVERT JUMPDEST POP PUSH2 0x319 PUSH2 0x1142 JUMP JUMPDEST PUSH1 0x40 MLOAD DUP1 DUP3 PUSH20 0xFFFFFFFFFFFFFFFFFFFFFFFFFFFFFFFFFFFFFFFF AND PUSH20 0xFFFFFFFFFFFFFFFFFFFFFFFFFFFFFFFFFFFFFFFF AND DUP2 MSTORE PUSH1 0x20 ADD SWAP2 POP POP PUSH1 0x40 MLOAD DUP1 SWAP2 SUB SWAP1 RETURN JUMPDEST PUSH2 0x43A PUSH1 0x4 DUP1 CALLDATASIZE SUB PUSH1 0xE0 DUP2 LT ISZERO PUSH2 0x371 JUMPI PUSH1 0x0 DUP1 REVERT JUMPDEST DUP2 ADD SWAP1 DUP1 DUP1 CALLDATALOAD SWAP1 PUSH1 0x20 ADD SWAP1 PUSH5 0x100000000 DUP2 GT ISZERO PUSH2 0x38E JUMPI PUSH1 0x0 DUP1 REVERT JUMPDEST DUP3 ADD DUP4 PUSH1 0x20 DUP3 ADD GT ISZERO PUSH2 0x3A0 JUMPI PUSH1 0x0 DUP1 REVERT JUMPDEST DUP1 CALLDATALOAD SWAP1 PUSH1 0x20 ADD SWAP2 DUP5 PUSH1 0x1 DUP4 MUL DUP5 ADD GT PUSH5 0x100000000 DUP4 GT OR ISZERO PUSH2 0x3C2 JUMPI PUSH1 0x0 DUP1 REVERT JUMPDEST SWAP1 SWAP2 SWAP3 SWAP4 SWAP2 SWAP3 SWAP4 SWAP1 DUP1 CALLDATALOAD SWAP1 PUSH1 0x20 ADD SWAP1 SWAP3 SWAP2 SWAP1 DUP1 CALLDATALOAD SWAP1 PUSH1 0x20 ADD SWAP1 SWAP3 SWAP2 SWAP1 DUP1 CALLDATALOAD PUSH20 0xFFFFFFFFFFFFFFFFFFFFFFFFFFFFFFFFFFFFFFFF AND SWAP1 PUSH1 0x20 ADD SWAP1 SWAP3 SWAP2 SWAP1 DUP1 CALLDATALOAD PUSH20 0xFFFFFFFFFFFFFFFFFFFFFFFFFFFFFFFFFFFFFFFF AND SWAP1 PUSH1 0x20 ADD SWAP1 SWAP3 SWAP2 SWAP1 DUP1 CALLDATALOAD SWAP1 PUSH1 0x20 ADD SWAP1 SWAP3 SWAP2 SWAP1 DUP1 CALLDATALOAD SWAP1 PUSH1 0x20 ADD SWAP1 SWAP3 SWAP2 SWAP1 POP POP POP PUSH2 0x1168 JUMP JUMPDEST STOP JUMPDEST CALLVALUE DUP1 ISZERO PUSH2 0x448 JUMPI PUSH1 0x0 DUP1 REVERT JUMPDEST POP PUSH2 0x451 PUSH2 0x191B JUMP JUMPDEST PUSH1 0x40 MLOAD DUP1 DUP3 DUP2 MSTORE PUSH1 0x20 ADD SWAP2 POP POP PUSH1 0x40 MLOAD DUP1 SWAP2 SUB SWAP1 RETURN JUMPDEST CALLVALUE DUP1 ISZERO PUSH2 0x473 JUMPI PUSH1 0x0 DUP1 REVERT JUMPDEST POP PUSH2 0x4A0 PUSH1 0x4 DUP1 CALLDATASIZE SUB PUSH1 0x20 DUP2 LT ISZERO PUSH2 0x48A JUMPI PUSH1 0x0 DUP1 REVERT JUMPDEST DUP2 ADD SWAP1 DUP1 DUP1 CALLDATALOAD SWAP1 PUSH1 0x20 ADD SWAP1 SWAP3 SWAP2 SWAP1 POP POP POP PUSH2 0x19AF JUMP JUMPDEST STOP JUMPDEST CALLVALUE DUP1 ISZERO PUSH2 0x4AE JUMPI PUSH1 0x0 DUP1 REVERT JUMPDEST POP PUSH2 0x4DB PUSH1 0x4 DUP1 CALLDATASIZE SUB PUSH1 0x20 DUP2 LT ISZERO PUSH2 0x4C5 JUMPI PUSH1 0x0 DUP1 REVERT JUMPDEST DUP2 ADD SWAP1 DUP1 DUP1 CALLDATALOAD SWAP1 PUSH1 0x20 ADD SWAP1 SWAP3 SWAP2 SWAP1 POP POP POP PUSH2 0x1A5F JUMP JUMPDEST PUSH1 0x40 MLOAD DUP1 DUP3 PUSH20 0xFFFFFFFFFFFFFFFFFFFFFFFFFFFFFFFFFFFFFFFF AND PUSH20 0xFFFFFFFFFFFFFFFFFFFFFFFFFFFFFFFFFFFFFFFF AND DUP2 MSTORE PUSH1 0x20 ADD SWAP2 POP POP PUSH1 0x40 MLOAD DUP1 SWAP2 SUB SWAP1 RETURN JUMPDEST CALLVALUE DUP1 ISZERO PUSH2 0x529 JUMPI PUSH1 0x0 DUP1 REVERT JUMPDEST POP PUSH2 0x532 PUSH2 0x1A92 JUMP JUMPDEST PUSH1 0x40 MLOAD DUP1 DUP3 PUSH20 0xFFFFFFFFFFFFFFFFFFFFFFFFFFFFFFFFFFFFFFFF AND PUSH20 0xFFFFFFFFFFFFFFFFFFFFFFFFFFFFFFFFFFFFFFFF AND DUP2 MSTORE PUSH1 0x20 ADD SWAP2 POP POP PUSH1 0x40 MLOAD DUP1 SWAP2 SUB SWAP1 RETURN JUMPDEST CALLVALUE DUP1 ISZERO PUSH2 0x580 JUMPI PUSH1 0x0 DUP1 REVERT JUMPDEST POP PUSH2 0x589 PUSH2 0x1AB8 JUMP JUMPDEST PUSH1 0x40 MLOAD DUP1 DUP3 DUP2 MSTORE PUSH1 0x20 ADD SWAP2 POP POP PUSH1 0x40 MLOAD DUP1 SWAP2 SUB SWAP1 RETURN JUMPDEST CALLVALUE DUP1 ISZERO PUSH2 0x5AB JUMPI PUSH1 0x0 DUP1 REVERT JUMPDEST POP PUSH2 0x5B4 PUSH2 0x1ABE JUMP JUMPDEST PUSH1 0x40 MLOAD DUP1 DUP3 DUP2 MSTORE PUSH1 0x20 ADD SWAP2 POP POP PUSH1 0x40 MLOAD DUP1 SWAP2 SUB SWAP1 RETURN JUMPDEST CALLVALUE DUP1 ISZERO PUSH2 0x5D6 JUMPI PUSH1 0x0 DUP1 REVERT JUMPDEST POP PUSH2 0x5DF PUSH2 0x1AC4 JUMP JUMPDEST STOP JUMPDEST CALLVALUE DUP1 ISZERO PUSH2 0x5ED JUMPI PUSH1 0x0 DUP1 REVERT JUMPDEST POP PUSH2 0x5F6 PUSH2 0x1B74 JUMP JUMPDEST PUSH1 0x40 MLOAD DUP1 DUP3 PUSH20 0xFFFFFFFFFFFFFFFFFFFFFFFFFFFFFFFFFFFFFFFF AND PUSH20 0xFFFFFFFFFFFFFFFFFFFFFFFFFFFFFFFFFFFFFFFF AND DUP2 MSTORE PUSH1 0x20 ADD SWAP2 POP POP PUSH1 0x40 MLOAD DUP1 SWAP2 SUB SWAP1 RETURN JUMPDEST CALLVALUE DUP1 ISZERO PUSH2 0x644 JUMPI PUSH1 0x0 DUP1 REVERT JUMPDEST POP PUSH2 0x67B PUSH1 0x4 DUP1 CALLDATASIZE SUB PUSH1 0x40 DUP2 LT ISZERO PUSH2 0x65B JUMPI PUSH1 0x0 DUP1 REVERT JUMPDEST DUP2 ADD SWAP1 DUP1 DUP1 CALLDATALOAD SWAP1 PUSH1 0x20 ADD SWAP1 SWAP3 SWAP2 SWAP1 DUP1 CALLDATALOAD SWAP1 PUSH1 0x20 ADD SWAP1 SWAP3 SWAP2 SWAP1 POP POP POP PUSH2 0x1B9A JUMP JUMPDEST PUSH1 0x40 MLOAD DUP1 DUP3 DUP2 MSTORE PUSH1 0x20 ADD SWAP2 POP POP PUSH1 0x40 MLOAD DUP1 SWAP2 SUB SWAP1 RETURN JUMPDEST CALLVALUE DUP1 ISZERO PUSH2 0x69D JUMPI PUSH1 0x0 DUP1 REVERT JUMPDEST POP PUSH2 0x6A6 PUSH2 0x1E40 JUMP JUMPDEST PUSH1 0x40 MLOAD DUP1 DUP3 DUP2 MSTORE PUSH1 0x20 ADD SWAP2 POP POP PUSH1 0x40 MLOAD DUP1 SWAP2 SUB SWAP1 RETURN JUMPDEST CALLVALUE DUP1 ISZERO PUSH2 0x6C8 JUMPI PUSH1 0x0 DUP1 REVERT JUMPDEST POP PUSH2 0x6D1 PUSH2 0x1E46 JUMP JUMPDEST PUSH1 0x40 MLOAD DUP1 DUP3 DUP2 MSTORE PUSH1 0x20 ADD SWAP2 POP POP PUSH1 0x40 MLOAD DUP1 SWAP2 SUB SWAP1 RETURN JUMPDEST CALLVALUE DUP1 ISZERO PUSH2 0x6F3 JUMPI PUSH1 0x0 DUP1 REVERT JUMPDEST POP PUSH2 0x720 PUSH1 0x4 DUP1 CALLDATASIZE SUB PUSH1 0x20 DUP2 LT ISZERO PUSH2 0x70A JUMPI PUSH1 0x0 DUP1 REVERT JUMPDEST DUP2 ADD SWAP1 DUP1 DUP1 CALLDATALOAD SWAP1 PUSH1 0x20 ADD SWAP1 SWAP3 SWAP2 SWAP1 POP POP POP PUSH2 0x1E6A JUMP JUMPDEST PUSH1 0x40 MLOAD DUP1 DUP3 DUP2 MSTORE PUSH1 0x20 ADD SWAP2 POP POP PUSH1 0x40 MLOAD DUP1 SWAP2 SUB SWAP1 RETURN JUMPDEST CALLVALUE DUP1 ISZERO PUSH2 0x742 JUMPI PUSH1 0x0 DUP1 REVERT JUMPDEST POP PUSH2 0x797 PUSH1 0x4 DUP1 CALLDATASIZE SUB PUSH1 0xA0 DUP2 LT ISZERO PUSH2 0x759 JUMPI PUSH1 0x0 DUP1 REVERT JUMPDEST DUP2 ADD SWAP1 DUP1 DUP1 CALLDATALOAD SWAP1 PUSH1 0x20 ADD SWAP1 SWAP3 SWAP2 SWAP1 DUP1 CALLDATALOAD SWAP1 PUSH1 0x20 ADD SWAP1 SWAP3 SWAP2 SWAP1 DUP1 CALLDATALOAD SWAP1 PUSH1 0x20 ADD SWAP1 SWAP3 SWAP2 SWAP1 DUP1 CALLDATALOAD SWAP1 PUSH1 0x20 ADD SWAP1 SWAP3 SWAP2 SWAP1 DUP1 CALLDATALOAD SWAP1 PUSH1 0x20 ADD SWAP1 SWAP3 SWAP2 SWAP1 POP POP POP PUSH2 0x1E82 JUMP JUMPDEST STOP JUMPDEST CALLVALUE DUP1 ISZERO PUSH2 0x7A5 JUMPI PUSH1 0x0 DUP1 REVERT JUMPDEST POP PUSH2 0x7AE PUSH2 0x1FE5 JUMP JUMPDEST PUSH1 0x40 MLOAD DUP1 DUP3 PUSH4 0xFFFFFFFF AND PUSH4 0xFFFFFFFF AND DUP2 MSTORE PUSH1 0x20 ADD SWAP2 POP POP PUSH1 0x40 MLOAD DUP1 SWAP2 SUB SWAP1 RETURN JUMPDEST CALLVALUE DUP1 ISZERO PUSH2 0x7DC JUMPI PUSH1 0x0 DUP1 REVERT JUMPDEST POP PUSH2 0x7E5 PUSH2 0x1FFA JUMP JUMPDEST PUSH1 0x40 MLOAD DUP1 DUP3 DUP2 MSTORE PUSH1 0x20 ADD SWAP2 POP POP PUSH1 0x40 MLOAD DUP1 SWAP2 SUB SWAP1 RETURN JUMPDEST CALLVALUE DUP1 ISZERO PUSH2 0x807 JUMPI PUSH1 0x0 DUP1 REVERT JUMPDEST POP PUSH2 0x810 PUSH2 0x2000 JUMP JUMPDEST PUSH1 0x40 MLOAD DUP1 DUP1 PUSH1 0x20 ADD DUP3 DUP2 SUB DUP3 MSTORE DUP4 DUP2 DUP2 MLOAD DUP2 MSTORE PUSH1 0x20 ADD SWAP2 POP DUP1 MLOAD SWAP1 PUSH1 0x20 ADD SWAP1 DUP1 DUP4 DUP4 PUSH1 0x0 JUMPDEST DUP4 DUP2 LT ISZERO PUSH2 0x850 JUMPI DUP1 DUP3 ADD MLOAD DUP2 DUP5 ADD MSTORE PUSH1 0x20 DUP2 ADD SWAP1 POP PUSH2 0x835 JUMP JUMPDEST POP POP POP POP SWAP1 POP SWAP1 DUP2 ADD SWAP1 PUSH1 0x1F AND DUP1 ISZERO PUSH2 0x87D JUMPI DUP1 DUP3 SUB DUP1 MLOAD PUSH1 0x1 DUP4 PUSH1 0x20 SUB PUSH2 0x100 EXP SUB NOT AND DUP2 MSTORE PUSH1 0x20 ADD SWAP2 POP JUMPDEST POP SWAP3 POP POP POP PUSH1 0x40 MLOAD DUP1 SWAP2 SUB SWAP1 RETURN JUMPDEST CALLVALUE DUP1 ISZERO PUSH2 0x897 JUMPI PUSH1 0x0 DUP1 REVERT JUMPDEST POP PUSH2 0x8A0 PUSH2 0x203D JUMP JUMPDEST PUSH1 0x40 MLOAD DUP1 DUP3 PUSH20 0xFFFFFFFFFFFFFFFFFFFFFFFFFFFFFFFFFFFFFFFF AND PUSH20 0xFFFFFFFFFFFFFFFFFFFFFFFFFFFFFFFFFFFFFFFF AND DUP2 MSTORE PUSH1 0x20 ADD SWAP2 POP POP PUSH1 0x40 MLOAD DUP1 SWAP2 SUB SWAP1 RETURN JUMPDEST CALLVALUE DUP1 ISZERO PUSH2 0x8EE JUMPI PUSH1 0x0 DUP1 REVERT JUMPDEST POP PUSH2 0x991 PUSH1 0x4 DUP1 CALLDATASIZE SUB PUSH1 0x80 DUP2 LT ISZERO PUSH2 0x905 JUMPI PUSH1 0x0 DUP1 REVERT JUMPDEST DUP2 ADD SWAP1 DUP1 DUP1 CALLDATALOAD PUSH20 0xFFFFFFFFFFFFFFFFFFFFFFFFFFFFFFFFFFFFFFFF AND SWAP1 PUSH1 0x20 ADD SWAP1 SWAP3 SWAP2 SWAP1 DUP1 CALLDATALOAD PUSH20 0xFFFFFFFFFFFFFFFFFFFFFFFFFFFFFFFFFFFFFFFF AND SWAP1 PUSH1 0x20 ADD SWAP1 SWAP3 SWAP2 SWAP1 DUP1 CALLDATALOAD PUSH20 0xFFFFFFFFFFFFFFFFFFFFFFFFFFFFFFFFFFFFFFFF AND SWAP1 PUSH1 0x20 ADD SWAP1 SWAP3 SWAP2 SWAP1 DUP1 CALLDATALOAD PUSH20 0xFFFFFFFFFFFFFFFFFFFFFFFFFFFFFFFFFFFFFFFF AND SWAP1 PUSH1 0x20 ADD SWAP1 SWAP3 SWAP2 SWAP1 POP POP POP PUSH2 0x2063 JUMP JUMPDEST STOP JUMPDEST CALLVALUE DUP1 ISZERO PUSH2 0x99F JUMPI PUSH1 0x0 DUP1 REVERT JUMPDEST POP PUSH2 0x9A8 PUSH2 0x233F JUMP JUMPDEST PUSH1 0x40 MLOAD DUP1 DUP3 DUP2 MSTORE PUSH1 0x20 ADD SWAP2 POP POP PUSH1 0x40 MLOAD DUP1 SWAP2 SUB SWAP1 RETURN JUMPDEST CALLVALUE DUP1 ISZERO PUSH2 0x9CA JUMPI PUSH1 0x0 DUP1 REVERT JUMPDEST POP PUSH2 0x9F7 PUSH1 0x4 DUP1 CALLDATASIZE SUB PUSH1 0x20 DUP2 LT ISZERO PUSH2 0x9E1 JUMPI PUSH1 0x0 DUP1 REVERT JUMPDEST DUP2 ADD SWAP1 DUP1 DUP1 CALLDATALOAD SWAP1 PUSH1 0x20 ADD SWAP1 SWAP3 SWAP2 SWAP1 POP POP POP PUSH2 0x2345 JUMP JUMPDEST PUSH1 0x40 MLOAD DUP1 DUP3 ISZERO ISZERO ISZERO ISZERO DUP2 MSTORE PUSH1 0x20 ADD SWAP2 POP POP PUSH1 0x40 MLOAD DUP1 SWAP2 SUB SWAP1 RETURN JUMPDEST CALLVALUE DUP1 ISZERO PUSH2 0xA1D JUMPI PUSH1 0x0 DUP1 REVERT JUMPDEST POP PUSH2 0xA26 PUSH2 0x23E7 JUMP JUMPDEST PUSH1 0x40 MLOAD DUP1 DUP3 PUSH20 0xFFFFFFFFFFFFFFFFFFFFFFFFFFFFFFFFFFFFFFFF AND PUSH20 0xFFFFFFFFFFFFFFFFFFFFFFFFFFFFFFFFFFFFFFFF AND DUP2 MSTORE PUSH1 0x20 ADD SWAP2 POP POP PUSH1 0x40 MLOAD DUP1 SWAP2 SUB SWAP1 RETURN JUMPDEST CALLVALUE DUP1 ISZERO PUSH2 0xA74 JUMPI PUSH1 0x0 DUP1 REVERT JUMPDEST POP PUSH2 0xAA1 PUSH1 0x4 DUP1 CALLDATASIZE SUB PUSH1 0x20 DUP2 LT ISZERO PUSH2 0xA8B JUMPI PUSH1 0x0 DUP1 REVERT JUMPDEST DUP2 ADD SWAP1 DUP1 DUP1 CALLDATALOAD SWAP1 PUSH1 0x20 ADD SWAP1 SWAP3 SWAP2 SWAP1 POP POP POP PUSH2 0x240D JUMP JUMPDEST STOP JUMPDEST CALLVALUE DUP1 ISZERO PUSH2 0xAAF JUMPI PUSH1 0x0 DUP1 REVERT JUMPDEST POP PUSH2 0xADC PUSH1 0x4 DUP1 CALLDATASIZE SUB PUSH1 0x20 DUP2 LT ISZERO PUSH2 0xAC6 JUMPI PUSH1 0x0 DUP1 REVERT JUMPDEST DUP2 ADD SWAP1 DUP1 DUP1 CALLDATALOAD SWAP1 PUSH1 0x20 ADD SWAP1 SWAP3 SWAP2 SWAP1 POP POP POP PUSH2 0x254B JUMP JUMPDEST PUSH1 0x40 MLOAD DUP1 DUP3 ISZERO ISZERO ISZERO ISZERO DUP2 MSTORE PUSH1 0x20 ADD SWAP2 POP POP PUSH1 0x40 MLOAD DUP1 SWAP2 SUB SWAP1 RETURN JUMPDEST CALLVALUE DUP1 ISZERO PUSH2 0xB02 JUMPI PUSH1 0x0 DUP1 REVERT JUMPDEST POP PUSH2 0xB0B PUSH2 0x256B JUMP JUMPDEST PUSH1 0x40 MLOAD DUP1 DUP3 DUP2 MSTORE PUSH1 0x20 ADD SWAP2 POP POP PUSH1 0x40 MLOAD DUP1 SWAP2 SUB SWAP1 RETURN JUMPDEST CALLVALUE DUP1 ISZERO PUSH2 0xB2D JUMPI PUSH1 0x0 DUP1 REVERT JUMPDEST POP PUSH2 0xB36 PUSH2 0x2571 JUMP JUMPDEST STOP JUMPDEST CALLVALUE DUP1 ISZERO PUSH2 0xB44 JUMPI PUSH1 0x0 DUP1 REVERT JUMPDEST POP PUSH2 0xB71 PUSH1 0x4 DUP1 CALLDATASIZE SUB PUSH1 0x20 DUP2 LT ISZERO PUSH2 0xB5B JUMPI PUSH1 0x0 DUP1 REVERT JUMPDEST DUP2 ADD SWAP1 DUP1 DUP1 CALLDATALOAD SWAP1 PUSH1 0x20 ADD SWAP1 SWAP3 SWAP2 SWAP1 POP POP POP PUSH2 0x269D JUMP JUMPDEST STOP JUMPDEST CALLVALUE DUP1 ISZERO PUSH2 0xB7F JUMPI PUSH1 0x0 DUP1 REVERT JUMPDEST POP PUSH2 0xB88 PUSH2 0x278E JUMP JUMPDEST PUSH1 0x40 MLOAD DUP1 DUP3 PUSH4 0xFFFFFFFF AND PUSH4 0xFFFFFFFF AND DUP2 MSTORE PUSH1 0x20 ADD SWAP2 POP POP PUSH1 0x40 MLOAD DUP1 SWAP2 SUB SWAP1 RETURN JUMPDEST CALLVALUE DUP1 ISZERO PUSH2 0xBB6 JUMPI PUSH1 0x0 DUP1 REVERT JUMPDEST POP PUSH2 0xBBF PUSH2 0x27A4 JUMP JUMPDEST PUSH1 0x40 MLOAD DUP1 DUP3 DUP2 MSTORE PUSH1 0x20 ADD SWAP2 POP POP PUSH1 0x40 MLOAD DUP1 SWAP2 SUB SWAP1 RETURN JUMPDEST CALLVALUE DUP1 ISZERO PUSH2 0xBE1 JUMPI PUSH1 0x0 DUP1 REVERT JUMPDEST POP PUSH2 0xC24 PUSH1 0x4 DUP1 CALLDATASIZE SUB PUSH1 0x20 DUP2 LT ISZERO PUSH2 0xBF8 JUMPI PUSH1 0x0 DUP1 REVERT JUMPDEST DUP2 ADD SWAP1 DUP1 DUP1 CALLDATALOAD PUSH20 0xFFFFFFFFFFFFFFFFFFFFFFFFFFFFFFFFFFFFFFFF AND SWAP1 PUSH1 0x20 ADD SWAP1 SWAP3 SWAP2 SWAP1 POP POP POP PUSH2 0x28A0 JUMP JUMPDEST STOP JUMPDEST CALLVALUE DUP1 ISZERO PUSH2 0xC32 JUMPI PUSH1 0x0 DUP1 REVERT JUMPDEST POP PUSH2 0xC3B PUSH2 0x298A JUMP JUMPDEST PUSH1 0x40 MLOAD DUP1 DUP3 DUP2 MSTORE PUSH1 0x20 ADD SWAP2 POP POP PUSH1 0x40 MLOAD DUP1 SWAP2 SUB SWAP1 RETURN JUMPDEST CALLVALUE DUP1 ISZERO PUSH2 0xC5D JUMPI PUSH1 0x0 DUP1 REVERT JUMPDEST POP PUSH2 0xC66 PUSH2 0x2990 JUMP JUMPDEST PUSH1 0x40 MLOAD DUP1 DUP3 DUP2 MSTORE PUSH1 0x20 ADD SWAP2 POP POP PUSH1 0x40 MLOAD DUP1 SWAP2 SUB SWAP1 RETURN JUMPDEST CALLVALUE DUP1 ISZERO PUSH2 0xC88 JUMPI PUSH1 0x0 DUP1 REVERT JUMPDEST POP PUSH2 0xC91 PUSH2 0x2996 JUMP JUMPDEST PUSH1 0x40 MLOAD DUP1 DUP3 DUP2 MSTORE PUSH1 0x20 ADD SWAP2 POP POP PUSH1 0x40 MLOAD DUP1 SWAP2 SUB SWAP1 RETURN JUMPDEST CALLVALUE DUP1 ISZERO PUSH2 0xCB3 JUMPI PUSH1 0x0 DUP1 REVERT JUMPDEST POP PUSH2 0xCF6 PUSH1 0x4 DUP1 CALLDATASIZE SUB PUSH1 0x20 DUP2 LT ISZERO PUSH2 0xCCA JUMPI PUSH1 0x0 DUP1 REVERT JUMPDEST DUP2 ADD SWAP1 DUP1 DUP1 CALLDATALOAD PUSH20 0xFFFFFFFFFFFFFFFFFFFFFFFFFFFFFFFFFFFFFFFF AND SWAP1 PUSH1 0x20 ADD SWAP1 SWAP3 SWAP2 SWAP1 POP POP POP PUSH2 0x299C JUMP JUMPDEST STOP JUMPDEST PUSH2 0xD24 PUSH1 0x4 DUP1 CALLDATASIZE SUB PUSH1 0x20 DUP2 LT ISZERO PUSH2 0xD0E JUMPI PUSH1 0x0 DUP1 REVERT JUMPDEST DUP2 ADD SWAP1 DUP1 DUP1 CALLDATALOAD SWAP1 PUSH1 0x20 ADD SWAP1 SWAP3 SWAP2 SWAP1 POP POP POP PUSH2 0x2A86 JUMP JUMPDEST PUSH1 0x40 MLOAD DUP1 DUP7 DUP2 MSTORE PUSH1 0x20 ADD DUP6 PUSH4 0xFFFFFFFF AND PUSH4 0xFFFFFFFF AND DUP2 MSTORE PUSH1 0x20 ADD DUP5 DUP2 MSTORE PUSH1 0x20 ADD DUP4 DUP2 MSTORE PUSH1 0x20 ADD DUP3 DUP2 MSTORE PUSH1 0x20 ADD SWAP6 POP POP POP POP POP POP PUSH1 0x40 MLOAD DUP1 SWAP2 SUB SWAP1 RETURN JUMPDEST CALLVALUE DUP1 ISZERO PUSH2 0xD6E JUMPI PUSH1 0x0 DUP1 REVERT JUMPDEST POP PUSH2 0xD77 PUSH2 0x2E60 JUMP JUMPDEST PUSH1 0x40 MLOAD DUP1 DUP3 DUP2 MSTORE PUSH1 0x20 ADD SWAP2 POP POP PUSH1 0x40 MLOAD DUP1 SWAP2 SUB SWAP1 RETURN JUMPDEST CALLVALUE DUP1 ISZERO PUSH2 0xD99 JUMPI PUSH1 0x0 DUP1 REVERT JUMPDEST POP PUSH2 0xDA2 PUSH2 0x2E66 JUMP JUMPDEST PUSH1 0x40 MLOAD DUP1 DUP3 DUP2 MSTORE PUSH1 0x20 ADD SWAP2 POP POP PUSH1 0x40 MLOAD DUP1 SWAP2 SUB SWAP1 RETURN JUMPDEST CALLVALUE DUP1 ISZERO PUSH2 0xDC4 JUMPI PUSH1 0x0 DUP1 REVERT JUMPDEST POP PUSH2 0xDF1 PUSH1 0x4 DUP1 CALLDATASIZE SUB PUSH1 0x20 DUP2 LT ISZERO PUSH2 0xDDB JUMPI PUSH1 0x0 DUP1 REVERT JUMPDEST DUP2 ADD SWAP1 DUP1 DUP1 CALLDATALOAD SWAP1 PUSH1 0x20 ADD SWAP1 SWAP3 SWAP2 SWAP1 POP POP POP PUSH2 0x2E94 JUMP JUMPDEST PUSH1 0x40 MLOAD DUP1 DUP3 DUP2 MSTORE PUSH1 0x20 ADD SWAP2 POP POP PUSH1 0x40 MLOAD DUP1 SWAP2 SUB SWAP1 RETURN JUMPDEST CALLVALUE DUP1 ISZERO PUSH2 0xE13 JUMPI PUSH1 0x0 DUP1 REVERT JUMPDEST POP PUSH2 0xE40 PUSH1 0x4 DUP1 CALLDATASIZE SUB PUSH1 0x20 DUP2 LT ISZERO PUSH2 0xE2A JUMPI PUSH1 0x0 DUP1 REVERT JUMPDEST DUP2 ADD SWAP1 DUP1 DUP1 CALLDATALOAD SWAP1 PUSH1 0x20 ADD SWAP1 SWAP3 SWAP2 SWAP1 POP POP POP PUSH2 0x2EAC JUMP JUMPDEST PUSH1 0x40 MLOAD DUP1 DUP3 DUP2 MSTORE PUSH1 0x20 ADD SWAP2 POP POP PUSH1 0x40 MLOAD DUP1 SWAP2 SUB SWAP1 RETURN JUMPDEST CALLVALUE DUP1 ISZERO PUSH2 0xE62 JUMPI PUSH1 0x0 DUP1 REVERT JUMPDEST POP PUSH2 0xEA5 PUSH1 0x4 DUP1 CALLDATASIZE SUB PUSH1 0x20 DUP2 LT ISZERO PUSH2 0xE79 JUMPI PUSH1 0x0 DUP1 REVERT JUMPDEST DUP2 ADD SWAP1 DUP1 DUP1 CALLDATALOAD PUSH20 0xFFFFFFFFFFFFFFFFFFFFFFFFFFFFFFFFFFFFFFFF AND SWAP1 PUSH1 0x20 ADD SWAP1 SWAP3 SWAP2 SWAP1 POP POP POP PUSH2 0x2EC4 JUMP JUMPDEST STOP JUMPDEST CALLVALUE DUP1 ISZERO PUSH2 0xEB3 JUMPI PUSH1 0x0 DUP1 REVERT JUMPDEST POP PUSH2 0xEBC PUSH2 0x30B7 JUMP JUMPDEST PUSH1 0x40 MLOAD DUP1 DUP3 PUSH4 0xFFFFFFFF AND PUSH4 0xFFFFFFFF AND DUP2 MSTORE PUSH1 0x20 ADD SWAP2 POP POP PUSH1 0x40 MLOAD DUP1 SWAP2 SUB SWAP1 RETURN JUMPDEST CALLVALUE DUP1 ISZERO PUSH2 0xEEA JUMPI PUSH1 0x0 DUP1 REVERT JUMPDEST POP PUSH2 0xEF3 PUSH2 0x30BC JUMP JUMPDEST PUSH1 0x40 MLOAD DUP1 DUP3 DUP2 MSTORE PUSH1 0x20 ADD SWAP2 POP POP PUSH1 0x40 MLOAD DUP1 SWAP2 SUB SWAP1 RETURN JUMPDEST CALLVALUE DUP1 ISZERO PUSH2 0xF15 JUMPI PUSH1 0x0 DUP1 REVERT JUMPDEST POP PUSH2 0xF58 PUSH1 0x4 DUP1 CALLDATASIZE SUB PUSH1 0x20 DUP2 LT ISZERO PUSH2 0xF2C JUMPI PUSH1 0x0 DUP1 REVERT JUMPDEST DUP2 ADD SWAP1 DUP1 DUP1 CALLDATALOAD PUSH20 0xFFFFFFFFFFFFFFFFFFFFFFFFFFFFFFFFFFFFFFFF AND SWAP1 PUSH1 0x20 ADD SWAP1 SWAP3 SWAP2 SWAP1 POP POP POP PUSH2 0x30C2 JUMP JUMPDEST STOP JUMPDEST CALLVALUE DUP1 ISZERO PUSH2 0xF66 JUMPI PUSH1 0x0 DUP1 REVERT JUMPDEST POP PUSH2 0xF6F PUSH2 0x31AC JUMP JUMPDEST PUSH1 0x40 MLOAD DUP1 DUP3 DUP2 MSTORE PUSH1 0x20 ADD SWAP2 POP POP PUSH1 0x40 MLOAD DUP1 SWAP2 SUB SWAP1 RETURN JUMPDEST CALLVALUE DUP1 ISZERO PUSH2 0xF91 JUMPI PUSH1 0x0 DUP1 REVERT JUMPDEST POP PUSH2 0xFBE PUSH1 0x4 DUP1 CALLDATASIZE SUB PUSH1 0x20 DUP2 LT ISZERO PUSH2 0xFA8 JUMPI PUSH1 0x0 DUP1 REVERT JUMPDEST DUP2 ADD SWAP1 DUP1 DUP1 CALLDATALOAD SWAP1 PUSH1 0x20 ADD SWAP1 SWAP3 SWAP2 SWAP1 POP POP POP PUSH2 0x31B2 JUMP JUMPDEST PUSH1 0x40 MLOAD DUP1 DUP3 DUP2 MSTORE PUSH1 0x20 ADD SWAP2 POP POP PUSH1 0x40 MLOAD DUP1 SWAP2 SUB SWAP1 RETURN JUMPDEST CALLVALUE DUP1 ISZERO PUSH2 0xFE0 JUMPI PUSH1 0x0 DUP1 REVERT JUMPDEST POP PUSH2 0xFE9 PUSH2 0x31D3 JUMP JUMPDEST PUSH1 0x40 MLOAD DUP1 DUP3 DUP2 MSTORE PUSH1 0x20 ADD SWAP2 POP POP PUSH1 0x40 MLOAD DUP1 SWAP2 SUB SWAP1 RETURN JUMPDEST CALLVALUE DUP1 ISZERO PUSH2 0x100B JUMPI PUSH1 0x0 DUP1 REVERT JUMPDEST POP PUSH2 0x1014 PUSH2 0x31F7 JUMP JUMPDEST PUSH1 0x40 MLOAD DUP1 DUP3 DUP2 MSTORE PUSH1 0x20 ADD SWAP2 POP POP PUSH1 0x40 MLOAD DUP1 SWAP2 SUB SWAP1 RETURN JUMPDEST CALLVALUE DUP1 ISZERO PUSH2 0x1036 JUMPI PUSH1 0x0 DUP1 REVERT JUMPDEST POP PUSH2 0x1063 PUSH1 0x4 DUP1 CALLDATASIZE SUB PUSH1 0x20 DUP2 LT ISZERO PUSH2 0x104D JUMPI PUSH1 0x0 DUP1 REVERT JUMPDEST DUP2 ADD SWAP1 DUP1 DUP1 CALLDATALOAD SWAP1 PUSH1 0x20 ADD SWAP1 SWAP3 SWAP2 SWAP1 POP POP POP PUSH2 0x31FD JUMP JUMPDEST PUSH1 0x40 MLOAD DUP1 DUP3 DUP2 MSTORE PUSH1 0x20 ADD SWAP2 POP POP PUSH1 0x40 MLOAD DUP1 SWAP2 SUB SWAP1 RETURN JUMPDEST CALLVALUE DUP1 ISZERO PUSH2 0x1085 JUMPI PUSH1 0x0 DUP1 REVERT JUMPDEST POP PUSH2 0x10B2 PUSH1 0x4 DUP1 CALLDATASIZE SUB PUSH1 0x20 DUP2 LT ISZERO PUSH2 0x109C JUMPI PUSH1 0x0 DUP1 REVERT JUMPDEST DUP2 ADD SWAP1 DUP1 DUP1 CALLDATALOAD SWAP1 PUSH1 0x20 ADD SWAP1 SWAP3 SWAP2 SWAP1 POP POP POP PUSH2 0x321E JUMP JUMPDEST STOP JUMPDEST CALLVALUE DUP1 ISZERO PUSH2 0x10C0 JUMPI PUSH1 0x0 DUP1 REVERT JUMPDEST POP PUSH2 0x10C9 PUSH2 0x32E0 JUMP JUMPDEST PUSH1 0x40 MLOAD DUP1 DUP3 PUSH20 0xFFFFFFFFFFFFFFFFFFFFFFFFFFFFFFFFFFFFFFFF AND PUSH20 0xFFFFFFFFFFFFFFFFFFFFFFFFFFFFFFFFFFFFFFFF AND DUP2 MSTORE PUSH1 0x20 ADD SWAP2 POP POP PUSH1 0x40 MLOAD DUP1 SWAP2 SUB SWAP1 RETURN JUMPDEST CALLVALUE DUP1 ISZERO PUSH2 0x1117 JUMPI PUSH1 0x0 DUP1 REVERT JUMPDEST POP PUSH2 0x1120 PUSH2 0x3306 JUMP JUMPDEST PUSH1 0x40 MLOAD DUP1 DUP3 PUSH4 0xFFFFFFFF AND PUSH4 0xFFFFFFFF AND DUP2 MSTORE PUSH1 0x20 ADD SWAP2 POP POP PUSH1 0x40 MLOAD DUP1 SWAP2 SUB SWAP1 RETURN JUMPDEST PUSH1 0x8A PUSH1 0x0 SWAP1 SLOAD SWAP1 PUSH2 0x100 EXP SWAP1 DIV PUSH20 0xFFFFFFFFFFFFFFFFFFFFFFFFFFFFFFFFFFFFFFFF AND DUP2 JUMP JUMPDEST PUSH1 0x1 PUSH1 0x68 PUSH1 0x0 DUP3 DUP3 SLOAD ADD SWAP3 POP POP DUP2 SWAP1 SSTORE POP PUSH1 0x0 PUSH1 0x68 SLOAD SWAP1 POP PUSH1 0x0 DUP3 EQ PUSH2 0x11F6 JUMPI PUSH1 0x40 MLOAD PUSH32 0x8C379A000000000000000000000000000000000000000000000000000000000 DUP2 MSTORE PUSH1 0x4 ADD DUP1 DUP1 PUSH1 0x20 ADD DUP3 DUP2 SUB DUP3 MSTORE PUSH1 0x12 DUP2 MSTORE PUSH1 0x20 ADD DUP1 PUSH32 0x726566756E64206973206E6F74207A65726F0000000000000000000000000000 DUP2 MSTORE POP PUSH1 0x20 ADD SWAP2 POP POP PUSH1 0x40 MLOAD DUP1 SWAP2 SUB SWAP1 REVERT JUMPDEST PUSH2 0x11FF DUP6 PUSH2 0x331C JUMP JUMPDEST ISZERO PUSH2 0x1272 JUMPI PUSH1 0x40 MLOAD PUSH32 0x8C379A000000000000000000000000000000000000000000000000000000000 DUP2 MSTORE PUSH1 0x4 ADD DUP1 DUP1 PUSH1 0x20 ADD DUP3 DUP2 SUB DUP3 MSTORE PUSH1 0x1F DUP2 MSTORE PUSH1 0x20 ADD DUP1 PUSH32 0x726563697069656E74206F662063616E6E6F7420626520636F6E747261637400 DUP2 MSTORE POP PUSH1 0x20 ADD SWAP2 POP POP PUSH1 0x40 MLOAD DUP1 SWAP2 SUB SWAP1 REVERT JUMPDEST PUSH2 0x127B DUP8 PUSH2 0x2345 JUMP JUMPDEST PUSH2 0x12ED JUMPI PUSH1 0x40 MLOAD PUSH32 0x8C379A000000000000000000000000000000000000000000000000000000000 DUP2 MSTORE PUSH1 0x4 ADD DUP1 DUP1 PUSH1 0x20 ADD DUP3 DUP2 SUB DUP3 MSTORE PUSH1 0x1C DUP2 MSTORE PUSH1 0x20 ADD DUP1 PUSH32 0x43616E6E6F742066696E6420796F7572206D65726B6C6520726F6F7400000000 DUP2 MSTORE POP PUSH1 0x20 ADD SWAP2 POP POP PUSH1 0x40 MLOAD DUP1 SWAP2 SUB SWAP1 REVERT JUMPDEST PUSH1 0x6D PUSH1 0x0 SWAP1 SLOAD SWAP1 PUSH2 0x100 EXP SWAP1 DIV PUSH20 0xFFFFFFFFFFFFFFFFFFFFFFFFFFFFFFFFFFFFFFFF AND PUSH20 0xFFFFFFFFFFFFFFFFFFFFFFFFFFFFFFFFFFFFFFFF AND PUSH4 0x695EF6F9 DUP11 DUP11 PUSH1 0x40 MLOAD DUP1 PUSH1 0xC0 ADD PUSH1 0x40 MSTORE DUP1 DUP13 PUSH1 0x0 SHR DUP2 MSTORE PUSH1 0x20 ADD DUP12 PUSH1 0x0 SHR DUP2 MSTORE PUSH1 0x20 ADD DUP11 PUSH20 0xFFFFFFFFFFFFFFFFFFFFFFFFFFFFFFFFFFFFFFFF AND DUP2 MSTORE PUSH1 0x20 ADD DUP10 PUSH20 0xFFFFFFFFFFFFFFFFFFFFFFFFFFFFFFFFFFFFFFFF AND DUP2 MSTORE PUSH1 0x20 ADD DUP9 DUP2 MSTORE PUSH1 0x20 ADD DUP8 DUP2 MSTORE POP PUSH1 0x40 MLOAD DUP5 PUSH4 0xFFFFFFFF AND PUSH1 0xE0 SHL DUP2 MSTORE PUSH1 0x4 ADD DUP1 DUP1 PUSH1 0x20 ADD DUP4 PUSH1 0x6 PUSH1 0x20 MUL DUP1 DUP4 DUP4 PUSH1 0x0 JUMPDEST DUP4 DUP2 LT ISZERO PUSH2 0x13CA JUMPI DUP1 DUP3 ADD MLOAD DUP2 DUP5 ADD MSTORE PUSH1 0x20 DUP2 ADD SWAP1 POP PUSH2 0x13AF JUMP JUMPDEST POP POP POP POP SWAP1 POP ADD DUP3 DUP2 SUB DUP3 MSTORE DUP6 DUP6 DUP3 DUP2 DUP2 MSTORE PUSH1 0x20 ADD SWAP3 POP DUP1 DUP3 DUP5 CALLDATACOPY PUSH1 0x0 DUP2 DUP5 ADD MSTORE PUSH1 0x1F NOT PUSH1 0x1F DUP3 ADD AND SWAP1 POP DUP1 DUP4 ADD SWAP3 POP POP POP SWAP5 POP POP POP POP POP PUSH1 0x20 PUSH1 0x40 MLOAD DUP1 DUP4 SUB DUP2 PUSH1 0x0 DUP8 DUP1 EXTCODESIZE ISZERO DUP1 ISZERO PUSH2 0x141C JUMPI PUSH1 0x0 DUP1 REVERT JUMPDEST POP GAS CALL ISZERO DUP1 ISZERO PUSH2 0x1430 JUMPI RETURNDATASIZE PUSH1 0x0 DUP1 RETURNDATACOPY RETURNDATASIZE PUSH1 0x0 REVERT JUMPDEST POP POP POP POP PUSH1 0x40 MLOAD RETURNDATASIZE PUSH1 0x20 DUP2 LT ISZERO PUSH2 0x1446 JUMPI PUSH1 0x0 DUP1 REVERT JUMPDEST DUP2 ADD SWAP1 DUP1 DUP1 MLOAD SWAP1 PUSH1 0x20 ADD SWAP1 SWAP3 SWAP2 SWAP1 POP POP POP PUSH2 0x14C9 JUMPI PUSH1 0x40 MLOAD PUSH32 0x8C379A000000000000000000000000000000000000000000000000000000000 DUP2 MSTORE PUSH1 0x4 ADD DUP1 DUP1 PUSH1 0x20 ADD DUP3 DUP2 SUB DUP3 MSTORE PUSH1 0x16 DUP2 MSTORE PUSH1 0x20 ADD DUP1 PUSH32 0x496E76616C69642077697468647261772070726F6F6600000000000000000000 DUP2 MSTORE POP PUSH1 0x20 ADD SWAP2 POP POP PUSH1 0x40 MLOAD DUP1 SWAP2 SUB SWAP1 REVERT JUMPDEST PUSH1 0x6D PUSH1 0x0 SWAP1 SLOAD SWAP1 PUSH2 0x100 EXP SWAP1 DIV PUSH20 0xFFFFFFFFFFFFFFFFFFFFFFFFFFFFFFFFFFFFFFFF AND PUSH20 0xFFFFFFFFFFFFFFFFFFFFFFFFFFFFFFFFFFFFFFFF AND PUSH4 0x32AB8C92 DUP8 PUSH1 0x40 MLOAD DUP3 PUSH4 0xFFFFFFFF AND PUSH1 0xE0 SHL DUP2 MSTORE PUSH1 0x4 ADD DUP1 DUP3 DUP2 MSTORE PUSH1 0x20 ADD SWAP2 POP POP PUSH1 0x0 PUSH1 0x40 MLOAD DUP1 DUP4 SUB DUP2 PUSH1 0x0 DUP8 DUP1 EXTCODESIZE ISZERO DUP1 ISZERO PUSH2 0x153E JUMPI PUSH1 0x0 DUP1 REVERT JUMPDEST POP GAS CALL ISZERO DUP1 ISZERO PUSH2 0x1552 JUMPI RETURNDATASIZE PUSH1 0x0 DUP1 RETURNDATACOPY RETURNDATASIZE PUSH1 0x0 REVERT JUMPDEST POP POP POP POP PUSH1 0x0 PUSH1 0x69 SLOAD SWAP1 POP PUSH1 0x0 DUP2 GT ISZERO PUSH2 0x1594 JUMPI PUSH2 0x1593 PUSH1 0x6E PUSH1 0x0 SWAP1 SLOAD SWAP1 PUSH2 0x100 EXP SWAP1 DIV PUSH20 0xFFFFFFFFFFFFFFFFFFFFFFFFFFFFFFFFFFFFFFFF AND DUP8 DUP4 PUSH2 0x332F JUMP JUMPDEST JUMPDEST PUSH2 0x159C PUSH2 0x2571 JUMP JUMPDEST PUSH1 0x0 DUP1 SWAP1 POP PUSH1 0x0 PUSH2 0x15BF PUSH1 0x72 SLOAD PUSH2 0x15B1 PUSH2 0x27A4 JUMP JUMPDEST PUSH2 0x3455 SWAP1 SWAP2 SWAP1 PUSH4 0xFFFFFFFF AND JUMP JUMPDEST SWAP1 POP PUSH1 0x0 DUP2 GT ISZERO PUSH2 0x1608 JUMPI DUP1 PUSH1 0x75 PUSH1 0x0 DUP3 DUP3 SLOAD SUB SWAP3 POP POP DUP2 SWAP1 SSTORE POP PUSH2 0x1607 PUSH1 0x6F PUSH1 0x0 SWAP1 SLOAD SWAP1 PUSH2 0x100 EXP SWAP1 DIV PUSH20 0xFFFFFFFFFFFFFFFFFFFFFFFFFFFFFFFFFFFFFFFF AND DUP10 DUP4 PUSH2 0x332F JUMP JUMPDEST JUMPDEST PUSH1 0x0 PUSH1 0x88 SLOAD PUSH1 0x6A SLOAD SUB SWAP1 POP DUP1 DUP8 GT ISZERO PUSH2 0x161F JUMPI DUP1 SWAP7 POP JUMPDEST PUSH1 0x0 DUP8 GT ISZERO PUSH2 0x170B JUMPI PUSH1 0x0 DUP9 PUSH20 0xFFFFFFFFFFFFFFFFFFFFFFFFFFFFFFFFFFFFFFFF AND DUP9 PUSH1 0x40 MLOAD DUP1 PUSH1 0x0 ADD SWAP1 POP PUSH1 0x0 PUSH1 0x40 MLOAD DUP1 DUP4 SUB DUP2 DUP6 DUP8 GAS CALL SWAP3 POP POP POP RETURNDATASIZE DUP1 PUSH1 0x0 DUP2 EQ PUSH2 0x1688 JUMPI PUSH1 0x40 MLOAD SWAP2 POP PUSH1 0x1F NOT PUSH1 0x3F RETURNDATASIZE ADD AND DUP3 ADD PUSH1 0x40 MSTORE RETURNDATASIZE DUP3 MSTORE RETURNDATASIZE PUSH1 0x0 PUSH1 0x20 DUP5 ADD RETURNDATACOPY PUSH2 0x168D JUMP JUMPDEST PUSH1 0x60 SWAP2 POP JUMPDEST POP POP SWAP1 POP DUP1 PUSH2 0x1704 JUMPI PUSH1 0x40 MLOAD PUSH32 0x8C379A000000000000000000000000000000000000000000000000000000000 DUP2 MSTORE PUSH1 0x4 ADD DUP1 DUP1 PUSH1 0x20 ADD DUP3 DUP2 SUB DUP3 MSTORE PUSH1 0x1A DUP2 MSTORE PUSH1 0x20 ADD DUP1 PUSH32 0x6661696C656420746F2073656E642072656C6179657220666565000000000000 DUP2 MSTORE POP PUSH1 0x20 ADD SWAP2 POP POP PUSH1 0x40 MLOAD DUP1 SWAP2 SUB SWAP1 REVERT JUMPDEST DUP8 DUP3 SUB SWAP2 POP POP JUMPDEST PUSH1 0x0 DUP2 GT ISZERO PUSH2 0x17F2 JUMPI PUSH1 0x0 DUP10 PUSH20 0xFFFFFFFFFFFFFFFFFFFFFFFFFFFFFFFFFFFFFFFF AND DUP3 PUSH1 0x40 MLOAD DUP1 PUSH1 0x0 ADD SWAP1 POP PUSH1 0x0 PUSH1 0x40 MLOAD DUP1 DUP4 SUB DUP2 DUP6 DUP8 GAS CALL SWAP3 POP POP POP RETURNDATASIZE DUP1 PUSH1 0x0 DUP2 EQ PUSH2 0x1774 JUMPI PUSH1 0x40 MLOAD SWAP2 POP PUSH1 0x1F NOT PUSH1 0x3F RETURNDATASIZE ADD AND DUP3 ADD PUSH1 0x40 MSTORE RETURNDATASIZE DUP3 MSTORE RETURNDATASIZE PUSH1 0x0 PUSH1 0x20 DUP5 ADD RETURNDATACOPY PUSH2 0x1779 JUMP JUMPDEST PUSH1 0x60 SWAP2 POP JUMPDEST POP POP SWAP1 POP DUP1 PUSH2 0x17F0 JUMPI PUSH1 0x40 MLOAD PUSH32 0x8C379A000000000000000000000000000000000000000000000000000000000 DUP2 MSTORE PUSH1 0x4 ADD DUP1 DUP1 PUSH1 0x20 ADD DUP3 DUP2 SUB DUP3 MSTORE PUSH1 0x17 DUP2 MSTORE PUSH1 0x20 ADD DUP1 PUSH32 0x6661696C656420746F20776974686472617720636F696E000000000000000000 DUP2 MSTORE POP PUSH1 0x20 ADD SWAP2 POP POP PUSH1 0x40 MLOAD DUP1 SWAP2 SUB SWAP1 REVERT JUMPDEST POP JUMPDEST PUSH1 0x1 PUSH1 0x72 PUSH1 0x0 DUP3 DUP3 SLOAD SUB SWAP3 POP POP DUP2 SWAP1 SSTORE POP DUP8 PUSH20 0xFFFFFFFFFFFFFFFFFFFFFFFFFFFFFFFFFFFFFFFF AND PUSH32 0x6D7AAC54BD3D1C91DB3B1FD7B8D6CB45324AD6B5E373C0F0EA4D7B2606C4C2C8 DUP11 DUP13 DUP6 DUP8 PUSH1 0x40 MLOAD DUP1 DUP6 PUSH20 0xFFFFFFFFFFFFFFFFFFFFFFFFFFFFFFFFFFFFFFFF AND PUSH20 0xFFFFFFFFFFFFFFFFFFFFFFFFFFFFFFFFFFFFFFFF AND DUP2 MSTORE PUSH1 0x20 ADD DUP5 DUP2 MSTORE PUSH1 0x20 ADD DUP4 DUP2 MSTORE PUSH1 0x20 ADD DUP3 DUP2 MSTORE PUSH1 0x20 ADD SWAP5 POP POP POP POP POP PUSH1 0x40 MLOAD DUP1 SWAP2 SUB SWAP1 LOG2 POP POP POP POP PUSH1 0x68 SLOAD DUP2 EQ PUSH2 0x1910 JUMPI PUSH1 0x40 MLOAD PUSH32 0x8C379A000000000000000000000000000000000000000000000000000000000 DUP2 MSTORE PUSH1 0x4 ADD DUP1 DUP1 PUSH1 0x20 ADD DUP3 DUP2 SUB DUP3 MSTORE PUSH1 0x1F DUP2 MSTORE PUSH1 0x20 ADD DUP1 PUSH32 0x5265656E7472616E637947756172643A207265656E7472616E742063616C6C00 DUP2 MSTORE POP PUSH1 0x20 ADD SWAP2 POP POP PUSH1 0x40 MLOAD DUP1 SWAP2 SUB SWAP1 REVERT JUMPDEST POP POP POP POP POP POP POP POP POP JUMP JUMPDEST PUSH1 0x0 PUSH1 0x89 SLOAD PUSH1 0x86 SLOAD GT ISZERO PUSH2 0x1932 JUMPI PUSH1 0x0 SWAP1 POP PUSH2 0x19AC JUMP JUMPDEST PUSH1 0x0 PUSH1 0x72 SLOAD EQ ISZERO PUSH2 0x1947 JUMPI PUSH1 0x6B SLOAD SWAP1 POP PUSH2 0x19AC JUMP JUMPDEST PUSH1 0x0 NUMBER SWAP1 POP PUSH1 0x0 PUSH2 0x1956 PUSH2 0x27A4 JUMP JUMPDEST SWAP1 POP PUSH1 0x73 SLOAD DUP3 GT DUP1 ISZERO PUSH2 0x196B JUMPI POP PUSH1 0x0 PUSH1 0x74 SLOAD GT JUMPDEST ISZERO PUSH2 0x197B JUMPI PUSH2 0x1978 PUSH2 0x3469 JUMP JUMPDEST SWAP1 POP JUMPDEST PUSH2 0x19A7 PUSH1 0x72 SLOAD PUSH2 0x1999 PUSH1 0x1 PUSH1 0x72 SLOAD SUB DUP5 PUSH2 0x35BB SWAP1 SWAP2 SWAP1 PUSH4 0xFFFFFFFF AND JUMP JUMPDEST PUSH2 0x3455 SWAP1 SWAP2 SWAP1 PUSH4 0xFFFFFFFF AND JUMP JUMPDEST SWAP3 POP POP POP JUMPDEST SWAP1 JUMP JUMPDEST PUSH1 0x71 PUSH1 0x0 SWAP1 SLOAD SWAP1 PUSH2 0x100 EXP SWAP1 DIV PUSH20 0xFFFFFFFFFFFFFFFFFFFFFFFFFFFFFFFFFFFFFFFF AND PUSH20 0xFFFFFFFFFFFFFFFFFFFFFFFFFFFFFFFFFFFFFFFF AND CALLER PUSH20 0xFFFFFFFFFFFFFFFFFFFFFFFFFFFFFFFFFFFFFFFF AND EQ PUSH2 0x1A55 JUMPI PUSH1 0x40 MLOAD PUSH32 0x8C379A000000000000000000000000000000000000000000000000000000000 DUP2 MSTORE PUSH1 0x4 ADD DUP1 DUP1 PUSH1 0x20 ADD DUP3 DUP2 SUB DUP3 MSTORE PUSH1 0x22 DUP2 MSTORE PUSH1 0x20 ADD DUP1 PUSH2 0x493E PUSH1 0x22 SWAP2 CODECOPY PUSH1 0x40 ADD SWAP2 POP POP PUSH1 0x40 MLOAD DUP1 SWAP2 SUB SWAP1 REVERT JUMPDEST DUP1 PUSH1 0x89 DUP2 SWAP1 SSTORE POP POP JUMP JUMPDEST PUSH1 0x7E DUP2 PUSH1 0x4 DUP2 LT PUSH2 0x1A6C JUMPI INVALID JUMPDEST ADD PUSH1 0x0 SWAP2 POP SLOAD SWAP1 PUSH2 0x100 EXP SWAP1 DIV PUSH20 0xFFFFFFFFFFFFFFFFFFFFFFFFFFFFFFFFFFFFFFFF AND DUP2 JUMP JUMPDEST PUSH1 0x6D PUSH1 0x0 SWAP1 SLOAD SWAP1 PUSH2 0x100 EXP SWAP1 DIV PUSH20 0xFFFFFFFFFFFFFFFFFFFFFFFFFFFFFFFFFFFFFFFF AND DUP2 JUMP JUMPDEST PUSH1 0x88 SLOAD DUP2 JUMP JUMPDEST PUSH1 0x72 SLOAD DUP2 JUMP JUMPDEST PUSH1 0x71 PUSH1 0x0 SWAP1 SLOAD SWAP1 PUSH2 0x100 EXP SWAP1 DIV PUSH20 0xFFFFFFFFFFFFFFFFFFFFFFFFFFFFFFFFFFFFFFFF AND PUSH20 0xFFFFFFFFFFFFFFFFFFFFFFFFFFFFFFFFFFFFFFFF AND CALLER PUSH20 0xFFFFFFFFFFFFFFFFFFFFFFFFFFFFFFFFFFFFFFFF AND EQ PUSH2 0x1B6A JUMPI PUSH1 0x40 MLOAD PUSH32 0x8C379A000000000000000000000000000000000000000000000000000000000 DUP2 MSTORE PUSH1 0x4 ADD DUP1 DUP1 PUSH1 0x20 ADD DUP3 DUP2 SUB DUP3 MSTORE PUSH1 0x22 DUP2 MSTORE PUSH1 0x20 ADD DUP1 PUSH2 0x493E PUSH1 0x22 SWAP2 CODECOPY PUSH1 0x40 ADD SWAP2 POP POP PUSH1 0x40 MLOAD DUP1 SWAP2 SUB SWAP1 REVERT JUMPDEST PUSH2 0x1B72 PUSH2 0x35D5 JUMP JUMPDEST JUMP JUMPDEST PUSH1 0x71 PUSH1 0x0 SWAP1 SLOAD SWAP1 PUSH2 0x100 EXP SWAP1 DIV PUSH20 0xFFFFFFFFFFFFFFFFFFFFFFFFFFFFFFFFFFFFFFFF AND DUP2 JUMP JUMPDEST PUSH1 0x0 PUSH32 0x30644E72E131A029B85045B68181585D2833E84879B9709143E1F593F0000001 DUP4 PUSH1 0x0 SHR LT PUSH2 0x1C34 JUMPI PUSH1 0x40 MLOAD PUSH32 0x8C379A000000000000000000000000000000000000000000000000000000000 DUP2 MSTORE PUSH1 0x4 ADD DUP1 DUP1 PUSH1 0x20 ADD DUP3 DUP2 SUB DUP3 MSTORE PUSH1 0x20 DUP2 MSTORE PUSH1 0x20 ADD DUP1 PUSH32 0x5F6C6566742073686F756C6420626520696E7369646520746865206669656C64 DUP2 MSTORE POP PUSH1 0x20 ADD SWAP2 POP POP PUSH1 0x40 MLOAD DUP1 SWAP2 SUB SWAP1 REVERT JUMPDEST PUSH32 0x30644E72E131A029B85045B68181585D2833E84879B9709143E1F593F0000001 DUP3 PUSH1 0x0 SHR LT PUSH2 0x1CAF JUMPI PUSH1 0x40 MLOAD PUSH32 0x8C379A000000000000000000000000000000000000000000000000000000000 DUP2 MSTORE PUSH1 0x4 ADD DUP1 DUP1 PUSH1 0x20 ADD DUP3 DUP2 SUB DUP3 MSTORE PUSH1 0x21 DUP2 MSTORE PUSH1 0x20 ADD DUP1 PUSH2 0x498F PUSH1 0x21 SWAP2 CODECOPY PUSH1 0x40 ADD SWAP2 POP POP PUSH1 0x40 MLOAD DUP1 SWAP2 SUB SWAP1 REVERT JUMPDEST PUSH1 0x0 DUP4 PUSH1 0x0 SHR SWAP1 POP PUSH1 0x0 DUP1 SWAP1 POP PUSH20 0x0 PUSH4 0xF47D33B5 DUP4 DUP4 PUSH1 0x40 MLOAD DUP4 PUSH4 0xFFFFFFFF AND PUSH1 0xE0 SHL DUP2 MSTORE PUSH1 0x4 ADD DUP1 DUP4 DUP2 MSTORE PUSH1 0x20 ADD DUP3 DUP2 MSTORE PUSH1 0x20 ADD SWAP3 POP POP POP PUSH1 0x40 DUP1 MLOAD DUP1 DUP4 SUB DUP2 DUP7 DUP1 EXTCODESIZE ISZERO DUP1 ISZERO PUSH2 0x1D12 JUMPI PUSH1 0x0 DUP1 REVERT JUMPDEST POP GAS DELEGATECALL ISZERO DUP1 ISZERO PUSH2 0x1D26 JUMPI RETURNDATASIZE PUSH1 0x0 DUP1 RETURNDATACOPY RETURNDATASIZE PUSH1 0x0 REVERT JUMPDEST POP POP POP POP PUSH1 0x40 MLOAD RETURNDATASIZE PUSH1 0x40 DUP2 LT ISZERO PUSH2 0x1D3C JUMPI PUSH1 0x0 DUP1 REVERT JUMPDEST DUP2 ADD SWAP1 DUP1 DUP1 MLOAD SWAP1 PUSH1 0x20 ADD SWAP1 SWAP3 SWAP2 SWAP1 DUP1 MLOAD SWAP1 PUSH1 0x20 ADD SWAP1 SWAP3 SWAP2 SWAP1 POP POP POP DUP1 SWAP3 POP DUP2 SWAP4 POP POP POP PUSH32 0x30644E72E131A029B85045B68181585D2833E84879B9709143E1F593F0000001 DUP1 PUSH2 0x1D87 JUMPI INVALID JUMPDEST DUP5 PUSH1 0x0 SHR DUP4 ADDMOD SWAP2 POP PUSH20 0x0 PUSH4 0xF47D33B5 DUP4 DUP4 PUSH1 0x40 MLOAD DUP4 PUSH4 0xFFFFFFFF AND PUSH1 0xE0 SHL DUP2 MSTORE PUSH1 0x4 ADD DUP1 DUP4 DUP2 MSTORE PUSH1 0x20 ADD DUP3 DUP2 MSTORE PUSH1 0x20 ADD SWAP3 POP POP POP PUSH1 0x40 DUP1 MLOAD DUP1 DUP4 SUB DUP2 DUP7 DUP1 EXTCODESIZE ISZERO DUP1 ISZERO PUSH2 0x1DE5 JUMPI PUSH1 0x0 DUP1 REVERT JUMPDEST POP GAS DELEGATECALL ISZERO DUP1 ISZERO PUSH2 0x1DF9 JUMPI RETURNDATASIZE PUSH1 0x0 DUP1 RETURNDATACOPY RETURNDATASIZE PUSH1 0x0 REVERT JUMPDEST POP POP POP POP PUSH1 0x40 MLOAD RETURNDATASIZE PUSH1 0x40 DUP2 LT ISZERO PUSH2 0x1E0F JUMPI PUSH1 0x0 DUP1 REVERT JUMPDEST DUP2 ADD SWAP1 DUP1 DUP1 MLOAD SWAP1 PUSH1 0x20 ADD SWAP1 SWAP3 SWAP2 SWAP1 DUP1 MLOAD SWAP1 PUSH1 0x20 ADD SWAP1 SWAP3 SWAP2 SWAP1 POP POP POP DUP1 SWAP3 POP DUP2 SWAP4 POP POP POP DUP2 PUSH1 0x0 SHL SWAP3 POP POP POP SWAP3 SWAP2 POP POP JUMP JUMPDEST PUSH1 0x76 SLOAD DUP2 JUMP JUMPDEST PUSH32 0x30644E72E131A029B85045B68181585D2833E84879B9709143E1F593F0000001 DUP2 JUMP JUMPDEST PUSH1 0x79 DUP2 PUSH1 0x5 DUP2 LT PUSH2 0x1E77 JUMPI INVALID JUMPDEST ADD PUSH1 0x0 SWAP2 POP SWAP1 POP SLOAD DUP2 JUMP JUMPDEST PUSH1 0x71 PUSH1 0x0 SWAP1 SLOAD SWAP1 PUSH2 0x100 EXP SWAP1 DIV PUSH20 0xFFFFFFFFFFFFFFFFFFFFFFFFFFFFFFFFFFFFFFFF AND PUSH20 0xFFFFFFFFFFFFFFFFFFFFFFFFFFFFFFFFFFFFFFFF AND CALLER PUSH20 0xFFFFFFFFFFFFFFFFFFFFFFFFFFFFFFFFFFFFFFFF AND EQ PUSH2 0x1F28 JUMPI PUSH1 0x40 MLOAD PUSH32 0x8C379A000000000000000000000000000000000000000000000000000000000 DUP2 MSTORE PUSH1 0x4 ADD DUP1 DUP1 PUSH1 0x20 ADD DUP3 DUP2 SUB DUP3 MSTORE PUSH1 0x22 DUP2 MSTORE PUSH1 0x20 ADD DUP1 PUSH2 0x493E PUSH1 0x22 SWAP2 CODECOPY PUSH1 0x40 ADD SWAP2 POP POP PUSH1 0x40 MLOAD DUP1 SWAP2 SUB SWAP1 REVERT JUMPDEST PUSH1 0x64 DUP2 DUP4 DUP6 DUP8 DUP10 ADD ADD ADD ADD EQ PUSH2 0x1FA6 JUMPI PUSH1 0x40 MLOAD PUSH32 0x8C379A000000000000000000000000000000000000000000000000000000000 DUP2 MSTORE PUSH1 0x4 ADD DUP1 DUP1 PUSH1 0x20 ADD DUP3 DUP2 SUB DUP3 MSTORE PUSH1 0x7 DUP2 MSTORE PUSH1 0x20 ADD DUP1 PUSH32 0x496E76616C696400000000000000000000000000000000000000000000000000 DUP2 MSTORE POP PUSH1 0x20 ADD SWAP2 POP POP PUSH1 0x40 MLOAD DUP1 SWAP2 SUB SWAP1 REVERT JUMPDEST PUSH1 0x40 MLOAD DUP1 PUSH1 0xA0 ADD PUSH1 0x40 MSTORE DUP1 DUP7 DUP2 MSTORE PUSH1 0x20 ADD DUP6 DUP2 MSTORE PUSH1 0x20 ADD DUP5 DUP2 MSTORE PUSH1 0x20 ADD DUP4 DUP2 MSTORE PUSH1 0x20 ADD DUP3 DUP2 MSTORE POP PUSH1 0x79 SWAP1 PUSH1 0x5 PUSH2 0x1FDD SWAP3 SWAP2 SWAP1 PUSH2 0x4818 JUMP JUMPDEST POP POP POP POP POP POP JUMP JUMPDEST PUSH1 0x0 DUP1 SWAP1 SLOAD SWAP1 PUSH2 0x100 EXP SWAP1 DIV PUSH4 0xFFFFFFFF AND DUP2 JUMP JUMPDEST PUSH1 0x69 SLOAD DUP2 JUMP JUMPDEST PUSH1 0x60 PUSH1 0x40 MLOAD DUP1 PUSH1 0x40 ADD PUSH1 0x40 MSTORE DUP1 PUSH1 0x3 DUP2 MSTORE PUSH1 0x20 ADD PUSH32 0x322E330000000000000000000000000000000000000000000000000000000000 DUP2 MSTORE POP SWAP1 POP SWAP1 JUMP JUMPDEST PUSH1 0x70 PUSH1 0x0 SWAP1 SLOAD SWAP1 PUSH2 0x100 EXP SWAP1 DIV PUSH20 0xFFFFFFFFFFFFFFFFFFFFFFFFFFFFFFFFFFFFFFFF AND DUP2 JUMP JUMPDEST PUSH1 0x71 PUSH1 0x0 SWAP1 SLOAD SWAP1 PUSH2 0x100 EXP SWAP1 DIV PUSH20 0xFFFFFFFFFFFFFFFFFFFFFFFFFFFFFFFFFFFFFFFF AND PUSH20 0xFFFFFFFFFFFFFFFFFFFFFFFFFFFFFFFFFFFFFFFF AND CALLER PUSH20 0xFFFFFFFFFFFFFFFFFFFFFFFFFFFFFFFFFFFFFFFF AND EQ PUSH2 0x2109 JUMPI PUSH1 0x40 MLOAD PUSH32 0x8C379A000000000000000000000000000000000000000000000000000000000 DUP2 MSTORE PUSH1 0x4 ADD DUP1 DUP1 PUSH1 0x20 ADD DUP3 DUP2 SUB DUP3 MSTORE PUSH1 0x22 DUP2 MSTORE PUSH1 0x20 ADD DUP1 PUSH2 0x493E PUSH1 0x22 SWAP2 CODECOPY PUSH1 0x40 ADD SWAP2 POP POP PUSH1 0x40 MLOAD DUP1 SWAP2 SUB SWAP1 REVERT JUMPDEST PUSH1 0x0 PUSH20 0xFFFFFFFFFFFFFFFFFFFFFFFFFFFFFFFFFFFFFFFF AND DUP5 PUSH20 0xFFFFFFFFFFFFFFFFFFFFFFFFFFFFFFFFFFFFFFFF AND EQ ISZERO DUP1 ISZERO PUSH2 0x2173 JUMPI POP PUSH1 0x0 PUSH20 0xFFFFFFFFFFFFFFFFFFFFFFFFFFFFFFFFFFFFFFFF AND DUP4 PUSH20 0xFFFFFFFFFFFFFFFFFFFFFFFFFFFFFFFFFFFFFFFF AND EQ ISZERO JUMPDEST DUP1 ISZERO PUSH2 0x21AC JUMPI POP PUSH1 0x0 PUSH20 0xFFFFFFFFFFFFFFFFFFFFFFFFFFFFFFFFFFFFFFFF AND DUP3 PUSH20 0xFFFFFFFFFFFFFFFFFFFFFFFFFFFFFFFFFFFFFFFF AND EQ ISZERO JUMPDEST DUP1 ISZERO PUSH2 0x21E5 JUMPI POP PUSH1 0x0 PUSH20 0xFFFFFFFFFFFFFFFFFFFFFFFFFFFFFFFFFFFFFFFF AND DUP2 PUSH20 0xFFFFFFFFFFFFFFFFFFFFFFFFFFFFFFFFFFFFFFFF AND EQ ISZERO JUMPDEST PUSH2 0x2257 JUMPI PUSH1 0x40 MLOAD PUSH32 0x8C379A000000000000000000000000000000000000000000000000000000000 DUP2 MSTORE PUSH1 0x4 ADD DUP1 DUP1 PUSH1 0x20 ADD DUP3 DUP2 SUB DUP3 MSTORE PUSH1 0x10 DUP2 MSTORE PUSH1 0x20 ADD DUP1 PUSH32 0x4E6F74205A65726F204164647265737300000000000000000000000000000000 DUP2 MSTORE POP PUSH1 0x20 ADD SWAP2 POP POP PUSH1 0x40 MLOAD DUP1 SWAP2 SUB SWAP1 REVERT JUMPDEST PUSH1 0x40 MLOAD DUP1 PUSH1 0x80 ADD PUSH1 0x40 MSTORE DUP1 DUP6 PUSH20 0xFFFFFFFFFFFFFFFFFFFFFFFFFFFFFFFFFFFFFFFF AND PUSH20 0xFFFFFFFFFFFFFFFFFFFFFFFFFFFFFFFFFFFFFFFF AND DUP2 MSTORE PUSH1 0x20 ADD DUP5 PUSH20 0xFFFFFFFFFFFFFFFFFFFFFFFFFFFFFFFFFFFFFFFF AND PUSH20 0xFFFFFFFFFFFFFFFFFFFFFFFFFFFFFFFFFFFFFFFF AND DUP2 MSTORE PUSH1 0x20 ADD DUP4 PUSH20 0xFFFFFFFFFFFFFFFFFFFFFFFFFFFFFFFFFFFFFFFF AND PUSH20 0xFFFFFFFFFFFFFFFFFFFFFFFFFFFFFFFFFFFFFFFF AND DUP2 MSTORE PUSH1 0x20 ADD DUP3 PUSH20 0xFFFFFFFFFFFFFFFFFFFFFFFFFFFFFFFFFFFFFFFF AND PUSH20 0xFFFFFFFFFFFFFFFFFFFFFFFFFFFFFFFFFFFFFFFF AND DUP2 MSTORE POP PUSH1 0x7E SWAP1 PUSH1 0x4 PUSH2 0x2338 SWAP3 SWAP2 SWAP1 PUSH2 0x4858 JUMP JUMPDEST POP POP POP POP POP JUMP JUMPDEST PUSH1 0x8B SLOAD DUP2 JUMP JUMPDEST PUSH1 0x0 DUP1 PUSH1 0x0 SHL DUP3 EQ ISZERO PUSH2 0x235B JUMPI PUSH1 0x0 SWAP1 POP PUSH2 0x23E2 JUMP JUMPDEST PUSH1 0x0 PUSH1 0x3 PUSH1 0x0 SWAP1 SLOAD SWAP1 PUSH2 0x100 EXP SWAP1 DIV PUSH4 0xFFFFFFFF AND SWAP1 POP JUMPDEST PUSH1 0x4 DUP2 PUSH4 0xFFFFFFFF AND PUSH1 0x64 DUP2 LT PUSH2 0x2386 JUMPI INVALID JUMPDEST ADD SLOAD DUP4 EQ ISZERO PUSH2 0x2399 JUMPI PUSH1 0x1 SWAP2 POP POP PUSH2 0x23E2 JUMP JUMPDEST PUSH1 0x0 DUP2 PUSH4 0xFFFFFFFF AND EQ ISZERO PUSH2 0x23AD JUMPI PUSH1 0x64 SWAP1 POP JUMPDEST DUP1 DUP1 PUSH1 0x1 SWAP1 SUB SWAP2 POP POP PUSH1 0x3 PUSH1 0x0 SWAP1 SLOAD SWAP1 PUSH2 0x100 EXP SWAP1 DIV PUSH4 0xFFFFFFFF AND PUSH4 0xFFFFFFFF AND DUP2 PUSH4 0xFFFFFFFF AND EQ ISZERO PUSH2 0x2373 JUMPI PUSH1 0x0 SWAP2 POP POP JUMPDEST SWAP2 SWAP1 POP JUMP JUMPDEST PUSH1 0x6F PUSH1 0x0 SWAP1 SLOAD SWAP1 PUSH2 0x100 EXP SWAP1 DIV PUSH20 0xFFFFFFFFFFFFFFFFFFFFFFFFFFFFFFFFFFFFFFFF AND DUP2 JUMP JUMPDEST PUSH1 0x71 PUSH1 0x0 SWAP1 SLOAD SWAP1 PUSH2 0x100 EXP SWAP1 DIV PUSH20 0xFFFFFFFFFFFFFFFFFFFFFFFFFFFFFFFFFFFFFFFF AND PUSH20 0xFFFFFFFFFFFFFFFFFFFFFFFFFFFFFFFFFFFFFFFF AND CALLER PUSH20 0xFFFFFFFFFFFFFFFFFFFFFFFFFFFFFFFFFFFFFFFF AND EQ PUSH2 0x24B3 JUMPI PUSH1 0x40 MLOAD PUSH32 0x8C379A000000000000000000000000000000000000000000000000000000000 DUP2 MSTORE PUSH1 0x4 ADD DUP1 DUP1 PUSH1 0x20 ADD DUP3 DUP2 SUB DUP3 MSTORE PUSH1 0x22 DUP2 MSTORE PUSH1 0x20 ADD DUP1 PUSH2 0x493E PUSH1 0x22 SWAP2 CODECOPY PUSH1 0x40 ADD SWAP2 POP POP PUSH1 0x40 MLOAD DUP1 SWAP2 SUB SWAP1 REVERT JUMPDEST PUSH1 0xA DUP2 LT PUSH2 0x2529 JUMPI PUSH1 0x40 MLOAD PUSH32 0x8C379A000000000000000000000000000000000000000000000000000000000 DUP2 MSTORE PUSH1 0x4 ADD DUP1 DUP1 PUSH1 0x20 ADD DUP3 DUP2 SUB DUP3 MSTORE PUSH1 0x13 DUP2 MSTORE PUSH1 0x20 ADD DUP1 PUSH32 0x4665652063616E27742065786365656420312500000000000000000000000000 DUP2 MSTORE POP PUSH1 0x20 ADD SWAP2 POP POP PUSH1 0x40 MLOAD DUP1 SWAP2 SUB SWAP1 REVERT JUMPDEST DUP1 PUSH1 0x87 DUP2 SWAP1 SSTORE POP PUSH2 0x3E8 PUSH1 0x87 SLOAD PUSH1 0x6A SLOAD MUL DUP2 PUSH2 0x2541 JUMPI INVALID JUMPDEST DIV PUSH1 0x88 DUP2 SWAP1 SSTORE POP POP JUMP JUMPDEST PUSH1 0x6C PUSH1 0x20 MSTORE DUP1 PUSH1 0x0 MSTORE PUSH1 0x40 PUSH1 0x0 KECCAK256 PUSH1 0x0 SWAP2 POP SLOAD SWAP1 PUSH2 0x100 EXP SWAP1 DIV PUSH1 0xFF AND DUP2 JUMP JUMPDEST PUSH1 0x74 SLOAD DUP2 JUMP JUMPDEST PUSH1 0x0 NUMBER SWAP1 POP PUSH1 0x73 SLOAD DUP2 GT PUSH2 0x2585 JUMPI POP PUSH2 0x269B JUMP JUMPDEST PUSH2 0x2673 PUSH1 0x78 SLOAD PUSH1 0x6F PUSH1 0x0 SWAP1 SLOAD SWAP1 PUSH2 0x100 EXP SWAP1 DIV PUSH20 0xFFFFFFFFFFFFFFFFFFFFFFFFFFFFFFFFFFFFFFFF AND PUSH20 0xFFFFFFFFFFFFFFFFFFFFFFFFFFFFFFFFFFFFFFFF AND PUSH4 0x70A08231 ADDRESS PUSH1 0x40 MLOAD DUP3 PUSH4 0xFFFFFFFF AND PUSH1 0xE0 SHL DUP2 MSTORE PUSH1 0x4 ADD DUP1 DUP3 PUSH20 0xFFFFFFFFFFFFFFFFFFFFFFFFFFFFFFFFFFFFFFFF AND PUSH20 0xFFFFFFFFFFFFFFFFFFFFFFFFFFFFFFFFFFFFFFFF AND DUP2 MSTORE PUSH1 0x20 ADD SWAP2 POP POP PUSH1 0x20 PUSH1 0x40 MLOAD DUP1 DUP4 SUB DUP2 DUP7 DUP1 EXTCODESIZE ISZERO DUP1 ISZERO PUSH2 0x262A JUMPI PUSH1 0x0 DUP1 REVERT JUMPDEST POP GAS STATICCALL ISZERO DUP1 ISZERO PUSH2 0x263E JUMPI RETURNDATASIZE PUSH1 0x0 DUP1 RETURNDATACOPY RETURNDATASIZE PUSH1 0x0 REVERT JUMPDEST POP POP POP POP PUSH1 0x40 MLOAD RETURNDATASIZE PUSH1 0x20 DUP2 LT ISZERO PUSH2 0x2654 JUMPI PUSH1 0x0 DUP1 REVERT JUMPDEST DUP2 ADD SWAP1 DUP1 DUP1 MLOAD SWAP1 PUSH1 0x20 ADD SWAP1 SWAP3 SWAP2 SWAP1 POP POP POP PUSH2 0x3455 SWAP1 SWAP2 SWAP1 PUSH4 0xFFFFFFFF AND JUMP JUMPDEST PUSH1 0x74 DUP2 SWAP1 SSTORE POP PUSH1 0x0 PUSH1 0x74 SLOAD EQ PUSH2 0x2692 JUMPI PUSH2 0x268B PUSH2 0x3469 JUMP JUMPDEST PUSH1 0x75 DUP2 SWAP1 SSTORE POP JUMPDEST DUP1 PUSH1 0x73 DUP2 SWAP1 SSTORE POP POP JUMPDEST JUMP JUMPDEST PUSH1 0x71 PUSH1 0x0 SWAP1 SLOAD SWAP1 PUSH2 0x100 EXP SWAP1 DIV PUSH20 0xFFFFFFFFFFFFFFFFFFFFFFFFFFFFFFFFFFFFFFFF AND PUSH20 0xFFFFFFFFFFFFFFFFFFFFFFFFFFFFFFFFFFFFFFFF AND CALLER PUSH20 0xFFFFFFFFFFFFFFFFFFFFFFFFFFFFFFFFFFFFFFFF AND EQ PUSH2 0x2743 JUMPI PUSH1 0x40 MLOAD PUSH32 0x8C379A000000000000000000000000000000000000000000000000000000000 DUP2 MSTORE PUSH1 0x4 ADD DUP1 DUP1 PUSH1 0x20 ADD DUP3 DUP2 SUB DUP3 MSTORE PUSH1 0x22 DUP2 MSTORE PUSH1 0x20 ADD DUP1 PUSH2 0x493E PUSH1 0x22 SWAP2 CODECOPY PUSH1 0x40 ADD SWAP2 POP POP PUSH1 0x40 MLOAD DUP1 SWAP2 SUB SWAP1 REVERT JUMPDEST PUSH32 0xF077EEC825BF8719AB7021DAF299E3FEB4CB33472AC3F1E661657FD9701A3E7E PUSH1 0x76 SLOAD DUP3 PUSH1 0x40 MLOAD DUP1 DUP4 DUP2 MSTORE PUSH1 0x20 ADD DUP3 DUP2 MSTORE PUSH1 0x20 ADD SWAP3 POP POP POP PUSH1 0x40 MLOAD DUP1 SWAP2 SUB SWAP1 LOG1 DUP1 PUSH1 0x76 DUP2 SWAP1 SSTORE POP POP JUMP JUMPDEST PUSH1 0x3 PUSH1 0x0 SWAP1 SLOAD SWAP1 PUSH2 0x100 EXP SWAP1 DIV PUSH4 0xFFFFFFFF AND DUP2 JUMP JUMPDEST PUSH1 0x0 DUP1 PUSH1 0x6F PUSH1 0x0 SWAP1 SLOAD SWAP1 PUSH2 0x100 EXP SWAP1 DIV PUSH20 0xFFFFFFFFFFFFFFFFFFFFFFFFFFFFFFFFFFFFFFFF AND PUSH20 0xFFFFFFFFFFFFFFFFFFFFFFFFFFFFFFFFFFFFFFFF AND PUSH4 0x70A08231 ADDRESS PUSH1 0x40 MLOAD DUP3 PUSH4 0xFFFFFFFF AND PUSH1 0xE0 SHL DUP2 MSTORE PUSH1 0x4 ADD DUP1 DUP3 PUSH20 0xFFFFFFFFFFFFFFFFFFFFFFFFFFFFFFFFFFFFFFFF AND PUSH20 0xFFFFFFFFFFFFFFFFFFFFFFFFFFFFFFFFFFFFFFFF AND DUP2 MSTORE PUSH1 0x20 ADD SWAP2 POP POP PUSH1 0x20 PUSH1 0x40 MLOAD DUP1 DUP4 SUB DUP2 DUP7 DUP1 EXTCODESIZE ISZERO DUP1 ISZERO PUSH2 0x2846 JUMPI PUSH1 0x0 DUP1 REVERT JUMPDEST POP GAS STATICCALL ISZERO DUP1 ISZERO PUSH2 0x285A JUMPI RETURNDATASIZE PUSH1 0x0 DUP1 RETURNDATACOPY RETURNDATASIZE PUSH1 0x0 REVERT JUMPDEST POP POP POP POP PUSH1 0x40 MLOAD RETURNDATASIZE PUSH1 0x20 DUP2 LT ISZERO PUSH2 0x2870 JUMPI PUSH1 0x0 DUP1 REVERT JUMPDEST DUP2 ADD SWAP1 DUP1 DUP1 MLOAD SWAP1 PUSH1 0x20 ADD SWAP1 SWAP3 SWAP2 SWAP1 POP POP POP SWAP1 POP PUSH1 0x75 SLOAD DUP2 LT ISZERO PUSH2 0x2896 JUMPI DUP1 SWAP2 POP POP PUSH2 0x289D JUMP JUMPDEST PUSH1 0x75 SLOAD SWAP2 POP POP JUMPDEST SWAP1 JUMP JUMPDEST PUSH1 0x71 PUSH1 0x0 SWAP1 SLOAD SWAP1 PUSH2 0x100 EXP SWAP1 DIV PUSH20 0xFFFFFFFFFFFFFFFFFFFFFFFFFFFFFFFFFFFFFFFF AND PUSH20 0xFFFFFFFFFFFFFFFFFFFFFFFFFFFFFFFFFFFFFFFF AND CALLER PUSH20 0xFFFFFFFFFFFFFFFFFFFFFFFFFFFFFFFFFFFFFFFF AND EQ PUSH2 0x2946 JUMPI PUSH1 0x40 MLOAD PUSH32 0x8C379A000000000000000000000000000000000000000000000000000000000 DUP2 MSTORE PUSH1 0x4 ADD DUP1 DUP1 PUSH1 0x20 ADD DUP3 DUP2 SUB DUP3 MSTORE PUSH1 0x22 DUP2 MSTORE PUSH1 0x20 ADD DUP1 PUSH2 0x493E PUSH1 0x22 SWAP2 CODECOPY PUSH1 0x40 ADD SWAP2 POP POP PUSH1 0x40 MLOAD DUP1 SWAP2 SUB SWAP1 REVERT JUMPDEST DUP1 PUSH1 0x6D PUSH1 0x0 PUSH2 0x100 EXP DUP2 SLOAD DUP2 PUSH20 0xFFFFFFFFFFFFFFFFFFFFFFFFFFFFFFFFFFFFFFFF MUL NOT AND SWAP1 DUP4 PUSH20 0xFFFFFFFFFFFFFFFFFFFFFFFFFFFFFFFFFFFFFFFF AND MUL OR SWAP1 SSTORE POP POP JUMP JUMPDEST PUSH1 0x6A SLOAD DUP2 JUMP JUMPDEST PUSH1 0x73 SLOAD DUP2 JUMP JUMPDEST PUSH1 0x6B SLOAD DUP2 JUMP JUMPDEST PUSH1 0x71 PUSH1 0x0 SWAP1 SLOAD SWAP1 PUSH2 0x100 EXP SWAP1 DIV PUSH20 0xFFFFFFFFFFFFFFFFFFFFFFFFFFFFFFFFFFFFFFFF AND PUSH20 0xFFFFFFFFFFFFFFFFFFFFFFFFFFFFFFFFFFFFFFFF AND CALLER PUSH20 0xFFFFFFFFFFFFFFFFFFFFFFFFFFFFFFFFFFFFFFFF AND EQ PUSH2 0x2A42 JUMPI PUSH1 0x40 MLOAD PUSH32 0x8C379A000000000000000000000000000000000000000000000000000000000 DUP2 MSTORE PUSH1 0x4 ADD DUP1 DUP1 PUSH1 0x20 ADD DUP3 DUP2 SUB DUP3 MSTORE PUSH1 0x22 DUP2 MSTORE PUSH1 0x20 ADD DUP1 PUSH2 0x493E PUSH1 0x22 SWAP2 CODECOPY PUSH1 0x40 ADD SWAP2 POP POP PUSH1 0x40 MLOAD DUP1 SWAP2 SUB SWAP1 REVERT JUMPDEST DUP1 PUSH1 0x70 PUSH1 0x0 PUSH2 0x100 EXP DUP2 SLOAD DUP2 PUSH20 0xFFFFFFFFFFFFFFFFFFFFFFFFFFFFFFFFFFFFFFFF MUL NOT AND SWAP1 DUP4 PUSH20 0xFFFFFFFFFFFFFFFFFFFFFFFFFFFFFFFFFFFFFFFF AND MUL OR SWAP1 SSTORE POP POP JUMP JUMPDEST PUSH1 0x0 DUP1 PUSH1 0x0 DUP1 PUSH1 0x0 PUSH1 0x1 PUSH1 0x68 PUSH1 0x0 DUP3 DUP3 SLOAD ADD SWAP3 POP POP DUP2 SWAP1 SSTORE POP PUSH1 0x0 PUSH1 0x68 SLOAD SWAP1 POP PUSH1 0x6C PUSH1 0x0 DUP9 DUP2 MSTORE PUSH1 0x20 ADD SWAP1 DUP2 MSTORE PUSH1 0x20 ADD PUSH1 0x0 KECCAK256 PUSH1 0x0 SWAP1 SLOAD SWAP1 PUSH2 0x100 EXP SWAP1 DIV PUSH1 0xFF AND ISZERO PUSH2 0x2B1D JUMPI PUSH1 0x40 MLOAD PUSH32 0x8C379A000000000000000000000000000000000000000000000000000000000 DUP2 MSTORE PUSH1 0x4 ADD DUP1 DUP1 PUSH1 0x20 ADD DUP3 DUP2 SUB DUP3 MSTORE PUSH1 0x21 DUP2 MSTORE PUSH1 0x20 ADD DUP1 PUSH2 0x49B0 PUSH1 0x21 SWAP2 CODECOPY PUSH1 0x40 ADD SWAP2 POP POP PUSH1 0x40 MLOAD DUP1 SWAP2 SUB SWAP1 REVERT JUMPDEST PUSH1 0x6A SLOAD CALLVALUE LT ISZERO PUSH2 0x2B95 JUMPI PUSH1 0x40 MLOAD PUSH32 0x8C379A000000000000000000000000000000000000000000000000000000000 DUP2 MSTORE PUSH1 0x4 ADD DUP1 DUP1 PUSH1 0x20 ADD DUP3 DUP2 SUB DUP3 MSTORE PUSH1 0x18 DUP2 MSTORE PUSH1 0x20 ADD DUP1 PUSH32 0x696E73756666696369656E7420636F696E20616D6F756E740000000000000000 DUP2 MSTORE POP PUSH1 0x20 ADD SWAP2 POP POP PUSH1 0x40 MLOAD DUP1 SWAP2 SUB SWAP1 REVERT JUMPDEST DUP7 SWAP6 POP TIMESTAMP SWAP4 POP PUSH1 0x0 PUSH1 0x6A SLOAD CALLVALUE SUB SWAP1 POP PUSH2 0x2BAD DUP9 PUSH2 0x4152 JUMP JUMPDEST SWAP6 POP PUSH1 0x1 PUSH1 0x6C PUSH1 0x0 DUP11 DUP2 MSTORE PUSH1 0x20 ADD SWAP1 DUP2 MSTORE PUSH1 0x20 ADD PUSH1 0x0 KECCAK256 PUSH1 0x0 PUSH2 0x100 EXP DUP2 SLOAD DUP2 PUSH1 0xFF MUL NOT AND SWAP1 DUP4 ISZERO ISZERO MUL OR SWAP1 SSTORE POP PUSH2 0x2BE3 PUSH2 0x191B JUMP JUMPDEST SWAP4 POP PUSH1 0x76 SLOAD SWAP3 POP PUSH1 0x0 PUSH1 0x69 SLOAD SWAP1 POP PUSH1 0x0 DUP2 GT ISZERO PUSH2 0x2C4A JUMPI PUSH2 0x2C49 CALLER ADDRESS DUP4 PUSH1 0x6E PUSH1 0x0 SWAP1 SLOAD SWAP1 PUSH2 0x100 EXP SWAP1 DIV PUSH20 0xFFFFFFFFFFFFFFFFFFFFFFFFFFFFFFFFFFFFFFFF AND PUSH20 0xFFFFFFFFFFFFFFFFFFFFFFFFFFFFFFFFFFFFFFFF AND PUSH2 0x43AB SWAP1 SWAP4 SWAP3 SWAP2 SWAP1 PUSH4 0xFFFFFFFF AND JUMP JUMPDEST JUMPDEST DUP5 PUSH1 0x75 PUSH1 0x0 DUP3 DUP3 SLOAD ADD SWAP3 POP POP DUP2 SWAP1 SSTORE POP PUSH1 0x1 PUSH1 0x72 PUSH1 0x0 DUP3 DUP3 SLOAD ADD SWAP3 POP POP DUP2 SWAP1 SSTORE POP PUSH1 0x0 DUP3 GT ISZERO PUSH2 0x2D52 JUMPI PUSH1 0x0 CALLER PUSH20 0xFFFFFFFFFFFFFFFFFFFFFFFFFFFFFFFFFFFFFFFF AND DUP4 PUSH1 0x40 MLOAD DUP1 PUSH1 0x0 ADD SWAP1 POP PUSH1 0x0 PUSH1 0x40 MLOAD DUP1 DUP4 SUB DUP2 DUP6 DUP8 GAS CALL SWAP3 POP POP POP RETURNDATASIZE DUP1 PUSH1 0x0 DUP2 EQ PUSH2 0x2CD4 JUMPI PUSH1 0x40 MLOAD SWAP2 POP PUSH1 0x1F NOT PUSH1 0x3F RETURNDATASIZE ADD AND DUP3 ADD PUSH1 0x40 MSTORE RETURNDATASIZE DUP3 MSTORE RETURNDATASIZE PUSH1 0x0 PUSH1 0x20 DUP5 ADD RETURNDATACOPY PUSH2 0x2CD9 JUMP JUMPDEST PUSH1 0x60 SWAP2 POP JUMPDEST POP POP SWAP1 POP DUP1 PUSH2 0x2D50 JUMPI PUSH1 0x40 MLOAD PUSH32 0x8C379A000000000000000000000000000000000000000000000000000000000 DUP2 MSTORE PUSH1 0x4 ADD DUP1 DUP1 PUSH1 0x20 ADD DUP3 DUP2 SUB DUP3 MSTORE PUSH1 0x10 DUP2 MSTORE PUSH1 0x20 ADD DUP1 PUSH32 0x6661696C656420746F20726566756E6400000000000000000000000000000000 DUP2 MSTORE POP PUSH1 0x20 ADD SWAP2 POP POP PUSH1 0x40 MLOAD DUP1 SWAP2 SUB SWAP1 REVERT JUMPDEST POP JUMPDEST PUSH1 0x88 SLOAD PUSH1 0x86 PUSH1 0x0 DUP3 DUP3 SLOAD ADD SWAP3 POP POP DUP2 SWAP1 SSTORE POP PUSH1 0x89 SLOAD PUSH1 0x86 SLOAD GT ISZERO PUSH2 0x2D79 JUMPI PUSH2 0x2D78 PUSH2 0x35D5 JUMP JUMPDEST JUMPDEST PUSH2 0x2D81 PUSH2 0x2571 JUMP JUMPDEST DUP9 PUSH32 0xCB186CC0ADD5BE357AE2D3845E42BE2FFBED8CB23B60F1B058EA371ADFF0A363 DUP9 TIMESTAMP DUP9 DUP9 PUSH1 0x40 MLOAD DUP1 DUP6 PUSH4 0xFFFFFFFF AND PUSH4 0xFFFFFFFF AND DUP2 MSTORE PUSH1 0x20 ADD DUP5 DUP2 MSTORE PUSH1 0x20 ADD DUP4 DUP2 MSTORE PUSH1 0x20 ADD DUP3 DUP2 MSTORE PUSH1 0x20 ADD SWAP5 POP POP POP POP POP PUSH1 0x40 MLOAD DUP1 SWAP2 SUB SWAP1 LOG2 POP POP PUSH1 0x68 SLOAD DUP2 EQ PUSH2 0x2E56 JUMPI PUSH1 0x40 MLOAD PUSH32 0x8C379A000000000000000000000000000000000000000000000000000000000 DUP2 MSTORE PUSH1 0x4 ADD DUP1 DUP1 PUSH1 0x20 ADD DUP3 DUP2 SUB DUP3 MSTORE PUSH1 0x1F DUP2 MSTORE PUSH1 0x20 ADD DUP1 PUSH32 0x5265656E7472616E637947756172643A207265656E7472616E742063616C6C00 DUP2 MSTORE POP PUSH1 0x20 ADD SWAP2 POP POP PUSH1 0x40 MLOAD DUP1 SWAP2 SUB SWAP1 REVERT JUMPDEST POP SWAP2 SWAP4 SWAP6 SWAP1 SWAP3 SWAP5 POP JUMP JUMPDEST PUSH1 0x75 SLOAD DUP2 JUMP JUMPDEST PUSH1 0x0 PUSH1 0x4 PUSH1 0x3 PUSH1 0x0 SWAP1 SLOAD SWAP1 PUSH2 0x100 EXP SWAP1 DIV PUSH4 0xFFFFFFFF AND PUSH4 0xFFFFFFFF AND PUSH1 0x64 DUP2 LT PUSH2 0x2E8D JUMPI INVALID JUMPDEST ADD SLOAD SWAP1 POP SWAP1 JUMP JUMPDEST PUSH1 0x4 DUP2 PUSH1 0x64 DUP2 LT PUSH2 0x2EA1 JUMPI INVALID JUMPDEST ADD PUSH1 0x0 SWAP2 POP SWAP1 POP SLOAD DUP2 JUMP JUMPDEST PUSH1 0x82 DUP2 PUSH1 0x4 DUP2 LT PUSH2 0x2EB9 JUMPI INVALID JUMPDEST ADD PUSH1 0x0 SWAP2 POP SWAP1 POP SLOAD DUP2 JUMP JUMPDEST PUSH1 0x71 PUSH1 0x0 SWAP1 SLOAD SWAP1 PUSH2 0x100 EXP SWAP1 DIV PUSH20 0xFFFFFFFFFFFFFFFFFFFFFFFFFFFFFFFFFFFFFFFF AND PUSH20 0xFFFFFFFFFFFFFFFFFFFFFFFFFFFFFFFFFFFFFFFF AND CALLER PUSH20 0xFFFFFFFFFFFFFFFFFFFFFFFFFFFFFFFFFFFFFFFF AND EQ PUSH2 0x2F6A JUMPI PUSH1 0x40 MLOAD PUSH32 0x8C379A000000000000000000000000000000000000000000000000000000000 DUP2 MSTORE PUSH1 0x4 ADD DUP1 DUP1 PUSH1 0x20 ADD DUP3 DUP2 SUB DUP3 MSTORE PUSH1 0x22 DUP2 MSTORE PUSH1 0x20 ADD DUP1 PUSH2 0x493E PUSH1 0x22 SWAP2 CODECOPY PUSH1 0x40 ADD SWAP2 POP POP PUSH1 0x40 MLOAD DUP1 SWAP2 SUB SWAP1 REVERT JUMPDEST DUP1 PUSH1 0x6F PUSH1 0x0 PUSH2 0x100 EXP DUP2 SLOAD DUP2 PUSH20 0xFFFFFFFFFFFFFFFFFFFFFFFFFFFFFFFFFFFFFFFF MUL NOT AND SWAP1 DUP4 PUSH20 0xFFFFFFFFFFFFFFFFFFFFFFFFFFFFFFFFFFFFFFFF AND MUL OR SWAP1 SSTORE POP PUSH1 0x6F PUSH1 0x0 SWAP1 SLOAD SWAP1 PUSH2 0x100 EXP SWAP1 DIV PUSH20 0xFFFFFFFFFFFFFFFFFFFFFFFFFFFFFFFFFFFFFFFF AND PUSH20 0xFFFFFFFFFFFFFFFFFFFFFFFFFFFFFFFFFFFFFFFF AND PUSH4 0x95EA7B3 PUSH1 0x71 PUSH1 0x0 SWAP1 SLOAD SWAP1 PUSH2 0x100 EXP SWAP1 DIV PUSH20 0xFFFFFFFFFFFFFFFFFFFFFFFFFFFFFFFFFFFFFFFF AND PUSH1 0x0 NOT PUSH1 0x40 MLOAD DUP4 PUSH4 0xFFFFFFFF AND PUSH1 0xE0 SHL DUP2 MSTORE PUSH1 0x4 ADD DUP1 DUP4 PUSH20 0xFFFFFFFFFFFFFFFFFFFFFFFFFFFFFFFFFFFFFFFF AND PUSH20 0xFFFFFFFFFFFFFFFFFFFFFFFFFFFFFFFFFFFFFFFF AND DUP2 MSTORE PUSH1 0x20 ADD DUP3 DUP2 MSTORE PUSH1 0x20 ADD SWAP3 POP POP POP PUSH1 0x20 PUSH1 0x40 MLOAD DUP1 DUP4 SUB DUP2 PUSH1 0x0 DUP8 DUP1 EXTCODESIZE ISZERO DUP1 ISZERO PUSH2 0x3078 JUMPI PUSH1 0x0 DUP1 REVERT JUMPDEST POP GAS CALL ISZERO DUP1 ISZERO PUSH2 0x308C JUMPI RETURNDATASIZE PUSH1 0x0 DUP1 RETURNDATACOPY RETURNDATASIZE PUSH1 0x0 REVERT JUMPDEST POP POP POP POP PUSH1 0x40 MLOAD RETURNDATASIZE PUSH1 0x20 DUP2 LT ISZERO PUSH2 0x30A2 JUMPI PUSH1 0x0 DUP1 REVERT JUMPDEST DUP2 ADD SWAP1 DUP1 DUP1 MLOAD SWAP1 PUSH1 0x20 ADD SWAP1 SWAP3 SWAP2 SWAP1 POP POP POP POP POP JUMP JUMPDEST PUSH1 0x64 DUP2 JUMP JUMPDEST PUSH1 0x89 SLOAD DUP2 JUMP JUMPDEST PUSH1 0x71 PUSH1 0x0 SWAP1 SLOAD SWAP1 PUSH2 0x100 EXP SWAP1 DIV PUSH20 0xFFFFFFFFFFFFFFFFFFFFFFFFFFFFFFFFFFFFFFFF AND PUSH20 0xFFFFFFFFFFFFFFFFFFFFFFFFFFFFFFFFFFFFFFFF AND CALLER PUSH20 0xFFFFFFFFFFFFFFFFFFFFFFFFFFFFFFFFFFFFFFFF AND EQ PUSH2 0x3168 JUMPI PUSH1 0x40 MLOAD PUSH32 0x8C379A000000000000000000000000000000000000000000000000000000000 DUP2 MSTORE PUSH1 0x4 ADD DUP1 DUP1 PUSH1 0x20 ADD DUP3 DUP2 SUB DUP3 MSTORE PUSH1 0x22 DUP2 MSTORE PUSH1 0x20 ADD DUP1 PUSH2 0x493E PUSH1 0x22 SWAP2 CODECOPY PUSH1 0x40 ADD SWAP2 POP POP PUSH1 0x40 MLOAD DUP1 SWAP2 SUB SWAP1 REVERT JUMPDEST DUP1 PUSH1 0x71 PUSH1 0x0 PUSH2 0x100 EXP DUP2 SLOAD DUP2 PUSH20 0xFFFFFFFFFFFFFFFFFFFFFFFFFFFFFFFFFFFFFFFF MUL NOT AND SWAP1 DUP4 PUSH20 0xFFFFFFFFFFFFFFFFFFFFFFFFFFFFFFFFFFFFFFFF AND MUL OR SWAP1 SSTORE POP POP JUMP JUMPDEST PUSH1 0x86 SLOAD DUP2 JUMP JUMPDEST PUSH1 0x2 DUP2 DUP2 SLOAD DUP2 LT PUSH2 0x31BF JUMPI INVALID JUMPDEST SWAP1 PUSH1 0x0 MSTORE PUSH1 0x20 PUSH1 0x0 KECCAK256 ADD PUSH1 0x0 SWAP2 POP SWAP1 POP SLOAD DUP2 JUMP JUMPDEST PUSH32 0x2FE54C60D3ACABF3343A35B6EBA15DB4821B340F76E741E2249685ED4899AF6C DUP2 JUMP JUMPDEST PUSH1 0x87 SLOAD DUP2 JUMP JUMPDEST PUSH1 0x1 DUP2 DUP2 SLOAD DUP2 LT PUSH2 0x320A JUMPI INVALID JUMPDEST SWAP1 PUSH1 0x0 MSTORE PUSH1 0x20 PUSH1 0x0 KECCAK256 ADD PUSH1 0x0 SWAP2 POP SWAP1 POP SLOAD DUP2 JUMP JUMPDEST PUSH1 0x71 PUSH1 0x0 SWAP1 SLOAD SWAP1 PUSH2 0x100 EXP SWAP1 DIV PUSH20 0xFFFFFFFFFFFFFFFFFFFFFFFFFFFFFFFFFFFFFFFF AND PUSH20 0xFFFFFFFFFFFFFFFFFFFFFFFFFFFFFFFFFFFFFFFF AND CALLER PUSH20 0xFFFFFFFFFFFFFFFFFFFFFFFFFFFFFFFFFFFFFFFF AND EQ PUSH2 0x32C4 JUMPI PUSH1 0x40 MLOAD PUSH32 0x8C379A000000000000000000000000000000000000000000000000000000000 DUP2 MSTORE PUSH1 0x4 ADD DUP1 DUP1 PUSH1 0x20 ADD DUP3 DUP2 SUB DUP3 MSTORE PUSH1 0x22 DUP2 MSTORE PUSH1 0x20 ADD DUP1 PUSH2 0x493E PUSH1 0x22 SWAP2 CODECOPY PUSH1 0x40 ADD SWAP2 POP POP PUSH1 0x40 MLOAD DUP1 SWAP2 SUB SWAP1 REVERT JUMPDEST DUP1 PUSH1 0x77 DUP2 SWAP1 SSTORE POP PUSH1 0x4 PUSH1 0x3C PUSH1 0x18 PUSH1 0x77 SLOAD MUL MUL MUL PUSH1 0x78 DUP2 SWAP1 SSTORE POP POP JUMP JUMPDEST PUSH1 0x6E PUSH1 0x0 SWAP1 SLOAD SWAP1 PUSH2 0x100 EXP SWAP1 DIV PUSH20 0xFFFFFFFFFFFFFFFFFFFFFFFFFFFFFFFFFFFFFFFF AND DUP2 JUMP JUMPDEST PUSH1 0x3 PUSH1 0x4 SWAP1 SLOAD SWAP1 PUSH2 0x100 EXP SWAP1 DIV PUSH4 0xFFFFFFFF AND DUP2 JUMP JUMPDEST PUSH1 0x0 DUP1 DUP3 EXTCODESIZE SWAP1 POP PUSH1 0x0 DUP2 GT SWAP2 POP POP SWAP2 SWAP1 POP JUMP JUMPDEST PUSH1 0x0 DUP4 PUSH20 0xFFFFFFFFFFFFFFFFFFFFFFFFFFFFFFFFFFFFFFFF AND PUSH4 0x70A08231 ADDRESS PUSH1 0x40 MLOAD DUP3 PUSH4 0xFFFFFFFF AND PUSH1 0xE0 SHL DUP2 MSTORE PUSH1 0x4 ADD DUP1 DUP3 PUSH20 0xFFFFFFFFFFFFFFFFFFFFFFFFFFFFFFFFFFFFFFFF AND PUSH20 0xFFFFFFFFFFFFFFFFFFFFFFFFFFFFFFFFFFFFFFFF AND DUP2 MSTORE PUSH1 0x20 ADD SWAP2 POP POP PUSH1 0x20 PUSH1 0x40 MLOAD DUP1 DUP4 SUB DUP2 DUP7 DUP1 EXTCODESIZE ISZERO DUP1 ISZERO PUSH2 0x33AE JUMPI PUSH1 0x0 DUP1 REVERT JUMPDEST POP GAS STATICCALL ISZERO DUP1 ISZERO PUSH2 0x33C2 JUMPI RETURNDATASIZE PUSH1 0x0 DUP1 RETURNDATACOPY RETURNDATASIZE PUSH1 0x0 REVERT JUMPDEST POP POP POP POP PUSH1 0x40 MLOAD RETURNDATASIZE PUSH1 0x20 DUP2 LT ISZERO PUSH2 0x33D8 JUMPI PUSH1 0x0 DUP1 REVERT JUMPDEST DUP2 ADD SWAP1 DUP1 DUP1 MLOAD SWAP1 PUSH1 0x20 ADD SWAP1 SWAP3 SWAP2 SWAP1 POP POP POP SWAP1 POP DUP1 DUP3 GT ISZERO PUSH2 0x3423 JUMPI PUSH2 0x341E DUP4 DUP3 DUP7 PUSH20 0xFFFFFFFFFFFFFFFFFFFFFFFFFFFFFFFFFFFFFFFF AND PUSH2 0x44B1 SWAP1 SWAP3 SWAP2 SWAP1 PUSH4 0xFFFFFFFF AND JUMP JUMPDEST PUSH2 0x344F JUMP JUMPDEST PUSH2 0x344E DUP4 DUP4 DUP7 PUSH20 0xFFFFFFFFFFFFFFFFFFFFFFFFFFFFFFFFFFFFFFFF AND PUSH2 0x44B1 SWAP1 SWAP3 SWAP2 SWAP1 PUSH4 0xFFFFFFFF AND JUMP JUMPDEST JUMPDEST POP POP POP POP JUMP JUMPDEST PUSH1 0x0 DUP2 DUP4 DUP2 PUSH2 0x3460 JUMPI INVALID JUMPDEST DIV SWAP1 POP SWAP3 SWAP2 POP POP JUMP JUMPDEST PUSH1 0x0 DUP1 PUSH2 0x3495 PUSH1 0x74 SLOAD PUSH2 0x3487 PUSH1 0x73 SLOAD NUMBER PUSH2 0x4582 SWAP1 SWAP2 SWAP1 PUSH4 0xFFFFFFFF AND JUMP JUMPDEST PUSH2 0x4599 SWAP1 SWAP2 SWAP1 PUSH4 0xFFFFFFFF AND JUMP JUMPDEST SWAP1 POP PUSH1 0x0 PUSH2 0x358C PUSH2 0x34A4 PUSH2 0x27A4 JUMP JUMPDEST PUSH1 0x6F PUSH1 0x0 SWAP1 SLOAD SWAP1 PUSH2 0x100 EXP SWAP1 DIV PUSH20 0xFFFFFFFFFFFFFFFFFFFFFFFFFFFFFFFFFFFFFFFF AND PUSH20 0xFFFFFFFFFFFFFFFFFFFFFFFFFFFFFFFFFFFFFFFF AND PUSH4 0x70A08231 ADDRESS PUSH1 0x40 MLOAD DUP3 PUSH4 0xFFFFFFFF AND PUSH1 0xE0 SHL DUP2 MSTORE PUSH1 0x4 ADD DUP1 DUP3 PUSH20 0xFFFFFFFFFFFFFFFFFFFFFFFFFFFFFFFFFFFFFFFF AND PUSH20 0xFFFFFFFFFFFFFFFFFFFFFFFFFFFFFFFFFFFFFFFF AND DUP2 MSTORE PUSH1 0x20 ADD SWAP2 POP POP PUSH1 0x20 PUSH1 0x40 MLOAD DUP1 DUP4 SUB DUP2 DUP7 DUP1 EXTCODESIZE ISZERO DUP1 ISZERO PUSH2 0x3543 JUMPI PUSH1 0x0 DUP1 REVERT JUMPDEST POP GAS STATICCALL ISZERO DUP1 ISZERO PUSH2 0x3557 JUMPI RETURNDATASIZE PUSH1 0x0 DUP1 RETURNDATACOPY RETURNDATASIZE PUSH1 0x0 REVERT JUMPDEST POP POP POP POP PUSH1 0x40 MLOAD RETURNDATASIZE PUSH1 0x20 DUP2 LT ISZERO PUSH2 0x356D JUMPI PUSH1 0x0 DUP1 REVERT JUMPDEST DUP2 ADD SWAP1 DUP1 DUP1 MLOAD SWAP1 PUSH1 0x20 ADD SWAP1 SWAP3 SWAP2 SWAP1 POP POP POP PUSH2 0x4582 SWAP1 SWAP2 SWAP1 PUSH4 0xFFFFFFFF AND JUMP JUMPDEST SWAP1 POP DUP2 DUP2 LT ISZERO PUSH2 0x359A JUMPI DUP1 SWAP2 POP JUMPDEST PUSH2 0x35B4 DUP3 PUSH2 0x35A6 PUSH2 0x27A4 JUMP JUMPDEST PUSH2 0x35BB SWAP1 SWAP2 SWAP1 PUSH4 0xFFFFFFFF AND JUMP JUMPDEST SWAP3 POP POP POP SWAP1 JUMP JUMPDEST PUSH1 0x0 DUP2 DUP4 ADD SWAP1 POP DUP3 DUP2 LT ISZERO PUSH2 0x35CC JUMPI INVALID JUMPDEST DUP1 SWAP1 POP SWAP3 SWAP2 POP POP JUMP JUMPDEST PUSH1 0x0 PUSH1 0x86 SLOAD GT PUSH2 0x364D JUMPI PUSH1 0x40 MLOAD PUSH32 0x8C379A000000000000000000000000000000000000000000000000000000000 DUP2 MSTORE PUSH1 0x4 ADD DUP1 DUP1 PUSH1 0x20 ADD DUP3 DUP2 SUB DUP3 MSTORE PUSH1 0x13 DUP2 MSTORE PUSH1 0x20 ADD DUP1 PUSH32 0x496E73756666696369656E7420416D6F756E7400000000000000000000000000 DUP2 MSTORE POP PUSH1 0x20 ADD SWAP2 POP POP PUSH1 0x40 MLOAD DUP1 SWAP2 SUB SWAP1 REVERT JUMPDEST PUSH1 0x0 PUSH1 0x6F PUSH1 0x0 SWAP1 SLOAD SWAP1 PUSH2 0x100 EXP SWAP1 DIV PUSH20 0xFFFFFFFFFFFFFFFFFFFFFFFFFFFFFFFFFFFFFFFF AND PUSH20 0xFFFFFFFFFFFFFFFFFFFFFFFFFFFFFFFFFFFFFFFF AND PUSH4 0x70A08231 ADDRESS PUSH1 0x40 MLOAD DUP3 PUSH4 0xFFFFFFFF AND PUSH1 0xE0 SHL DUP2 MSTORE PUSH1 0x4 ADD DUP1 DUP3 PUSH20 0xFFFFFFFFFFFFFFFFFFFFFFFFFFFFFFFFFFFFFFFF AND PUSH20 0xFFFFFFFFFFFFFFFFFFFFFFFFFFFFFFFFFFFFFFFF AND DUP2 MSTORE PUSH1 0x20 ADD SWAP2 POP POP PUSH1 0x20 PUSH1 0x40 MLOAD DUP1 DUP4 SUB DUP2 DUP7 DUP1 EXTCODESIZE ISZERO DUP1 ISZERO PUSH2 0x36EE JUMPI PUSH1 0x0 DUP1 REVERT JUMPDEST POP GAS STATICCALL ISZERO DUP1 ISZERO PUSH2 0x3702 JUMPI RETURNDATASIZE PUSH1 0x0 DUP1 RETURNDATACOPY RETURNDATASIZE PUSH1 0x0 REVERT JUMPDEST POP POP POP POP PUSH1 0x40 MLOAD RETURNDATASIZE PUSH1 0x20 DUP2 LT ISZERO PUSH2 0x3718 JUMPI PUSH1 0x0 DUP1 REVERT JUMPDEST DUP2 ADD SWAP1 DUP1 DUP1 MLOAD SWAP1 PUSH1 0x20 ADD SWAP1 SWAP3 SWAP2 SWAP1 POP POP POP SWAP1 POP PUSH1 0x60 PUSH1 0x2 PUSH1 0x40 MLOAD SWAP1 DUP1 DUP3 MSTORE DUP1 PUSH1 0x20 MUL PUSH1 0x20 ADD DUP3 ADD PUSH1 0x40 MSTORE DUP1 ISZERO PUSH2 0x375D JUMPI DUP2 PUSH1 0x20 ADD PUSH1 0x20 DUP3 MUL DUP1 CODESIZE DUP4 CODECOPY DUP1 DUP3 ADD SWAP2 POP POP SWAP1 POP JUMPDEST POP SWAP1 POP PUSH1 0x8A PUSH1 0x0 SWAP1 SLOAD SWAP1 PUSH2 0x100 EXP SWAP1 DIV PUSH20 0xFFFFFFFFFFFFFFFFFFFFFFFFFFFFFFFFFFFFFFFF AND PUSH20 0xFFFFFFFFFFFFFFFFFFFFFFFFFFFFFFFFFFFFFFFF AND PUSH4 0xAD5C4648 PUSH1 0x40 MLOAD DUP2 PUSH4 0xFFFFFFFF AND PUSH1 0xE0 SHL DUP2 MSTORE PUSH1 0x4 ADD PUSH1 0x20 PUSH1 0x40 MLOAD DUP1 DUP4 SUB DUP2 DUP7 DUP1 EXTCODESIZE ISZERO DUP1 ISZERO PUSH2 0x37C8 JUMPI PUSH1 0x0 DUP1 REVERT JUMPDEST POP GAS STATICCALL ISZERO DUP1 ISZERO PUSH2 0x37DC JUMPI RETURNDATASIZE PUSH1 0x0 DUP1 RETURNDATACOPY RETURNDATASIZE PUSH1 0x0 REVERT JUMPDEST POP POP POP POP PUSH1 0x40 MLOAD RETURNDATASIZE PUSH1 0x20 DUP2 LT ISZERO PUSH2 0x37F2 JUMPI PUSH1 0x0 DUP1 REVERT JUMPDEST DUP2 ADD SWAP1 DUP1 DUP1 MLOAD SWAP1 PUSH1 0x20 ADD SWAP1 SWAP3 SWAP2 SWAP1 POP POP POP DUP2 PUSH1 0x0 DUP2 MLOAD DUP2 LT PUSH2 0x3810 JUMPI INVALID JUMPDEST PUSH1 0x20 MUL PUSH1 0x20 ADD ADD SWAP1 PUSH20 0xFFFFFFFFFFFFFFFFFFFFFFFFFFFFFFFFFFFFFFFF AND SWAP1 DUP2 PUSH20 0xFFFFFFFFFFFFFFFFFFFFFFFFFFFFFFFFFFFFFFFF AND DUP2 MSTORE POP POP PUSH1 0x6F PUSH1 0x0 SWAP1 SLOAD SWAP1 PUSH2 0x100 EXP SWAP1 DIV PUSH20 0xFFFFFFFFFFFFFFFFFFFFFFFFFFFFFFFFFFFFFFFF AND DUP2 PUSH1 0x1 DUP2 MLOAD DUP2 LT PUSH2 0x387A JUMPI INVALID JUMPDEST PUSH1 0x20 MUL PUSH1 0x20 ADD ADD SWAP1 PUSH20 0xFFFFFFFFFFFFFFFFFFFFFFFFFFFFFFFFFFFFFFFF AND SWAP1 DUP2 PUSH20 0xFFFFFFFFFFFFFFFFFFFFFFFFFFFFFFFFFFFFFFFF AND DUP2 MSTORE POP POP PUSH1 0x8A PUSH1 0x0 SWAP1 SLOAD SWAP1 PUSH2 0x100 EXP SWAP1 DIV PUSH20 0xFFFFFFFFFFFFFFFFFFFFFFFFFFFFFFFFFFFFFFFF AND PUSH20 0xFFFFFFFFFFFFFFFFFFFFFFFFFFFFFFFFFFFFFFFF AND PUSH4 0xB6F9DE95 PUSH1 0x86 SLOAD PUSH1 0x0 DUP5 ADDRESS PUSH2 0x390D PUSH1 0x2 TIMESTAMP PUSH2 0x4599 SWAP1 SWAP2 SWAP1 PUSH4 0xFFFFFFFF AND JUMP JUMPDEST PUSH1 0x40 MLOAD DUP7 PUSH4 0xFFFFFFFF AND PUSH1 0xE0 SHL DUP2 MSTORE PUSH1 0x4 ADD DUP1 DUP6 DUP2 MSTORE PUSH1 0x20 ADD DUP1 PUSH1 0x20 ADD DUP5 PUSH20 0xFFFFFFFFFFFFFFFFFFFFFFFFFFFFFFFFFFFFFFFF AND PUSH20 0xFFFFFFFFFFFFFFFFFFFFFFFFFFFFFFFFFFFFFFFF AND DUP2 MSTORE PUSH1 0x20 ADD DUP4 DUP2 MSTORE PUSH1 0x20 ADD DUP3 DUP2 SUB DUP3 MSTORE DUP6 DUP2 DUP2 MLOAD DUP2 MSTORE PUSH1 0x20 ADD SWAP2 POP DUP1 MLOAD SWAP1 PUSH1 0x20 ADD SWAP1 PUSH1 0x20 MUL DUP1 DUP4 DUP4 PUSH1 0x0 JUMPDEST DUP4 DUP2 LT ISZERO PUSH2 0x399D JUMPI DUP1 DUP3 ADD MLOAD DUP2 DUP5 ADD MSTORE PUSH1 0x20 DUP2 ADD SWAP1 POP PUSH2 0x3982 JUMP JUMPDEST POP POP POP POP SWAP1 POP ADD SWAP6 POP POP POP POP POP POP PUSH1 0x0 PUSH1 0x40 MLOAD DUP1 DUP4 SUB DUP2 DUP6 DUP9 DUP1 EXTCODESIZE ISZERO DUP1 ISZERO PUSH2 0x39C4 JUMPI PUSH1 0x0 DUP1 REVERT JUMPDEST POP GAS CALL ISZERO DUP1 ISZERO PUSH2 0x39D8 JUMPI RETURNDATASIZE PUSH1 0x0 DUP1 RETURNDATACOPY RETURNDATASIZE PUSH1 0x0 REVERT JUMPDEST POP POP POP POP POP PUSH1 0x0 PUSH1 0x86 DUP2 SWAP1 SSTORE POP PUSH1 0x0 PUSH2 0x3AD3 DUP4 PUSH1 0x6F PUSH1 0x0 SWAP1 SLOAD SWAP1 PUSH2 0x100 EXP SWAP1 DIV PUSH20 0xFFFFFFFFFFFFFFFFFFFFFFFFFFFFFFFFFFFFFFFF AND PUSH20 0xFFFFFFFFFFFFFFFFFFFFFFFFFFFFFFFFFFFFFFFF AND PUSH4 0x70A08231 ADDRESS PUSH1 0x40 MLOAD DUP3 PUSH4 0xFFFFFFFF AND PUSH1 0xE0 SHL DUP2 MSTORE PUSH1 0x4 ADD DUP1 DUP3 PUSH20 0xFFFFFFFFFFFFFFFFFFFFFFFFFFFFFFFFFFFFFFFF AND PUSH20 0xFFFFFFFFFFFFFFFFFFFFFFFFFFFFFFFFFFFFFFFF AND DUP2 MSTORE PUSH1 0x20 ADD SWAP2 POP POP PUSH1 0x20 PUSH1 0x40 MLOAD DUP1 DUP4 SUB DUP2 DUP7 DUP1 EXTCODESIZE ISZERO DUP1 ISZERO PUSH2 0x3A8A JUMPI PUSH1 0x0 DUP1 REVERT JUMPDEST POP GAS STATICCALL ISZERO DUP1 ISZERO PUSH2 0x3A9E JUMPI RETURNDATASIZE PUSH1 0x0 DUP1 RETURNDATACOPY RETURNDATASIZE PUSH1 0x0 REVERT JUMPDEST POP POP POP POP PUSH1 0x40 MLOAD RETURNDATASIZE PUSH1 0x20 DUP2 LT ISZERO PUSH2 0x3AB4 JUMPI PUSH1 0x0 DUP1 REVERT JUMPDEST DUP2 ADD SWAP1 DUP1 DUP1 MLOAD SWAP1 PUSH1 0x20 ADD SWAP1 SWAP3 SWAP2 SWAP1 POP POP POP PUSH2 0x4582 SWAP1 SWAP2 SWAP1 PUSH4 0xFFFFFFFF AND JUMP JUMPDEST SWAP1 POP PUSH1 0x0 PUSH1 0x79 PUSH1 0x0 PUSH1 0x5 DUP2 LT PUSH2 0x3AE5 JUMPI INVALID JUMPDEST ADD SLOAD GT ISZERO PUSH2 0x3C09 JUMPI PUSH1 0x6F PUSH1 0x0 SWAP1 SLOAD SWAP1 PUSH2 0x100 EXP SWAP1 DIV PUSH20 0xFFFFFFFFFFFFFFFFFFFFFFFFFFFFFFFFFFFFFFFF AND PUSH20 0xFFFFFFFFFFFFFFFFFFFFFFFFFFFFFFFFFFFFFFFF AND PUSH4 0xA9059CBB PUSH2 0xDEAD PUSH2 0x3B63 PUSH1 0x64 PUSH2 0x3B55 PUSH1 0x79 PUSH1 0x0 PUSH1 0x5 DUP2 LT PUSH2 0x3B44 JUMPI INVALID JUMPDEST ADD SLOAD DUP8 PUSH2 0x4599 SWAP1 SWAP2 SWAP1 PUSH4 0xFFFFFFFF AND JUMP JUMPDEST PUSH2 0x3455 SWAP1 SWAP2 SWAP1 PUSH4 0xFFFFFFFF AND JUMP JUMPDEST PUSH1 0x40 MLOAD DUP4 PUSH4 0xFFFFFFFF AND PUSH1 0xE0 SHL DUP2 MSTORE PUSH1 0x4 ADD DUP1 DUP4 PUSH20 0xFFFFFFFFFFFFFFFFFFFFFFFFFFFFFFFFFFFFFFFF AND PUSH20 0xFFFFFFFFFFFFFFFFFFFFFFFFFFFFFFFFFFFFFFFF AND DUP2 MSTORE PUSH1 0x20 ADD DUP3 DUP2 MSTORE PUSH1 0x20 ADD SWAP3 POP POP POP PUSH1 0x20 PUSH1 0x40 MLOAD DUP1 DUP4 SUB DUP2 PUSH1 0x0 DUP8 DUP1 EXTCODESIZE ISZERO DUP1 ISZERO PUSH2 0x3BCC JUMPI PUSH1 0x0 DUP1 REVERT JUMPDEST POP GAS CALL ISZERO DUP1 ISZERO PUSH2 0x3BE0 JUMPI RETURNDATASIZE PUSH1 0x0 DUP1 RETURNDATACOPY RETURNDATASIZE PUSH1 0x0 REVERT JUMPDEST POP POP POP POP PUSH1 0x40 MLOAD RETURNDATASIZE PUSH1 0x20 DUP2 LT ISZERO PUSH2 0x3BF6 JUMPI PUSH1 0x0 DUP1 REVERT JUMPDEST DUP2 ADD SWAP1 DUP1 DUP1 MLOAD SWAP1 PUSH1 0x20 ADD SWAP1 SWAP3 SWAP2 SWAP1 POP POP POP POP JUMPDEST PUSH1 0x0 PUSH20 0xFFFFFFFFFFFFFFFFFFFFFFFFFFFFFFFFFFFFFFFF AND PUSH1 0x7E PUSH1 0x0 PUSH1 0x4 DUP2 LT PUSH2 0x3C2F JUMPI INVALID JUMPDEST ADD PUSH1 0x0 SWAP1 SLOAD SWAP1 PUSH2 0x100 EXP SWAP1 DIV PUSH20 0xFFFFFFFFFFFFFFFFFFFFFFFFFFFFFFFFFFFFFFFF AND PUSH20 0xFFFFFFFFFFFFFFFFFFFFFFFFFFFFFFFFFFFFFFFF AND EQ ISZERO DUP1 ISZERO PUSH2 0x3C84 JUMPI POP PUSH1 0x0 PUSH1 0x79 PUSH1 0x1 PUSH1 0x5 DUP2 LT PUSH2 0x3C80 JUMPI INVALID JUMPDEST ADD SLOAD GT JUMPDEST DUP1 ISZERO PUSH2 0x3CEB JUMPI POP ADDRESS PUSH20 0xFFFFFFFFFFFFFFFFFFFFFFFFFFFFFFFFFFFFFFFF AND PUSH1 0x7E PUSH1 0x0 PUSH1 0x4 DUP2 LT PUSH2 0x3CB0 JUMPI INVALID JUMPDEST ADD PUSH1 0x0 SWAP1 SLOAD SWAP1 PUSH2 0x100 EXP SWAP1 DIV PUSH20 0xFFFFFFFFFFFFFFFFFFFFFFFFFFFFFFFFFFFFFFFF AND PUSH20 0xFFFFFFFFFFFFFFFFFFFFFFFFFFFFFFFFFFFFFFFF AND EQ ISZERO JUMPDEST ISZERO PUSH2 0x3D5A JUMPI PUSH2 0x3D46 PUSH2 0x3D28 PUSH1 0x64 PUSH2 0x3D1A PUSH1 0x79 PUSH1 0x1 PUSH1 0x5 DUP2 LT PUSH2 0x3D09 JUMPI INVALID JUMPDEST ADD SLOAD DUP6 PUSH2 0x4599 SWAP1 SWAP2 SWAP1 PUSH4 0xFFFFFFFF AND JUMP JUMPDEST PUSH2 0x3455 SWAP1 SWAP2 SWAP1 PUSH4 0xFFFFFFFF AND JUMP JUMPDEST PUSH1 0x82 PUSH1 0x0 PUSH1 0x4 DUP2 LT PUSH2 0x3D36 JUMPI INVALID JUMPDEST ADD SLOAD PUSH2 0x35BB SWAP1 SWAP2 SWAP1 PUSH4 0xFFFFFFFF AND JUMP JUMPDEST PUSH1 0x82 PUSH1 0x0 PUSH1 0x4 DUP2 LT PUSH2 0x3D54 JUMPI INVALID JUMPDEST ADD DUP2 SWAP1 SSTORE POP JUMPDEST PUSH1 0x0 PUSH20 0xFFFFFFFFFFFFFFFFFFFFFFFFFFFFFFFFFFFFFFFF AND PUSH1 0x7E PUSH1 0x1 PUSH1 0x4 DUP2 LT PUSH2 0x3D80 JUMPI INVALID JUMPDEST ADD PUSH1 0x0 SWAP1 SLOAD SWAP1 PUSH2 0x100 EXP SWAP1 DIV PUSH20 0xFFFFFFFFFFFFFFFFFFFFFFFFFFFFFFFFFFFFFFFF AND PUSH20 0xFFFFFFFFFFFFFFFFFFFFFFFFFFFFFFFFFFFFFFFF AND EQ ISZERO DUP1 ISZERO PUSH2 0x3DD5 JUMPI POP PUSH1 0x0 PUSH1 0x79 PUSH1 0x2 PUSH1 0x5 DUP2 LT PUSH2 0x3DD1 JUMPI INVALID JUMPDEST ADD SLOAD GT JUMPDEST DUP1 ISZERO PUSH2 0x3E3C JUMPI POP ADDRESS PUSH20 0xFFFFFFFFFFFFFFFFFFFFFFFFFFFFFFFFFFFFFFFF AND PUSH1 0x7E PUSH1 0x1 PUSH1 0x4 DUP2 LT PUSH2 0x3E01 JUMPI INVALID JUMPDEST ADD PUSH1 0x0 SWAP1 SLOAD SWAP1 PUSH2 0x100 EXP SWAP1 DIV PUSH20 0xFFFFFFFFFFFFFFFFFFFFFFFFFFFFFFFFFFFFFFFF AND PUSH20 0xFFFFFFFFFFFFFFFFFFFFFFFFFFFFFFFFFFFFFFFF AND EQ ISZERO JUMPDEST ISZERO PUSH2 0x3EAB JUMPI PUSH2 0x3E97 PUSH2 0x3E79 PUSH1 0x64 PUSH2 0x3E6B PUSH1 0x79 PUSH1 0x2 PUSH1 0x5 DUP2 LT PUSH2 0x3E5A JUMPI INVALID JUMPDEST ADD SLOAD DUP6 PUSH2 0x4599 SWAP1 SWAP2 SWAP1 PUSH4 0xFFFFFFFF AND JUMP JUMPDEST PUSH2 0x3455 SWAP1 SWAP2 SWAP1 PUSH4 0xFFFFFFFF AND JUMP JUMPDEST PUSH1 0x82 PUSH1 0x1 PUSH1 0x4 DUP2 LT PUSH2 0x3E87 JUMPI INVALID JUMPDEST ADD SLOAD PUSH2 0x35BB SWAP1 SWAP2 SWAP1 PUSH4 0xFFFFFFFF AND JUMP JUMPDEST PUSH1 0x82 PUSH1 0x1 PUSH1 0x4 DUP2 LT PUSH2 0x3EA5 JUMPI INVALID JUMPDEST ADD DUP2 SWAP1 SSTORE POP JUMPDEST PUSH1 0x0 PUSH20 0xFFFFFFFFFFFFFFFFFFFFFFFFFFFFFFFFFFFFFFFF AND PUSH1 0x7E PUSH1 0x2 PUSH1 0x4 DUP2 LT PUSH2 0x3ED1 JUMPI INVALID JUMPDEST ADD PUSH1 0x0 SWAP1 SLOAD SWAP1 PUSH2 0x100 EXP SWAP1 DIV PUSH20 0xFFFFFFFFFFFFFFFFFFFFFFFFFFFFFFFFFFFFFFFF AND PUSH20 0xFFFFFFFFFFFFFFFFFFFFFFFFFFFFFFFFFFFFFFFF AND EQ ISZERO DUP1 ISZERO PUSH2 0x3F26 JUMPI POP PUSH1 0x0 PUSH1 0x79 PUSH1 0x3 PUSH1 0x5 DUP2 LT PUSH2 0x3F22 JUMPI INVALID JUMPDEST ADD SLOAD GT JUMPDEST DUP1 ISZERO PUSH2 0x3F8D JUMPI POP ADDRESS PUSH20 0xFFFFFFFFFFFFFFFFFFFFFFFFFFFFFFFFFFFFFFFF AND PUSH1 0x7E PUSH1 0x2 PUSH1 0x4 DUP2 LT PUSH2 0x3F52 JUMPI INVALID JUMPDEST ADD PUSH1 0x0 SWAP1 SLOAD SWAP1 PUSH2 0x100 EXP SWAP1 DIV PUSH20 0xFFFFFFFFFFFFFFFFFFFFFFFFFFFFFFFFFFFFFFFF AND PUSH20 0xFFFFFFFFFFFFFFFFFFFFFFFFFFFFFFFFFFFFFFFF AND EQ ISZERO JUMPDEST ISZERO PUSH2 0x3FFC JUMPI PUSH2 0x3FE8 PUSH2 0x3FCA PUSH1 0x64 PUSH2 0x3FBC PUSH1 0x79 PUSH1 0x3 PUSH1 0x5 DUP2 LT PUSH2 0x3FAB JUMPI INVALID JUMPDEST ADD SLOAD DUP6 PUSH2 0x4599 SWAP1 SWAP2 SWAP1 PUSH4 0xFFFFFFFF AND JUMP JUMPDEST PUSH2 0x3455 SWAP1 SWAP2 SWAP1 PUSH4 0xFFFFFFFF AND JUMP JUMPDEST PUSH1 0x82 PUSH1 0x2 PUSH1 0x4 DUP2 LT PUSH2 0x3FD8 JUMPI INVALID JUMPDEST ADD SLOAD PUSH2 0x35BB SWAP1 SWAP2 SWAP1 PUSH4 0xFFFFFFFF AND JUMP JUMPDEST PUSH1 0x82 PUSH1 0x2 PUSH1 0x4 DUP2 LT PUSH2 0x3FF6 JUMPI INVALID JUMPDEST ADD DUP2 SWAP1 SSTORE POP JUMPDEST PUSH1 0x0 PUSH20 0xFFFFFFFFFFFFFFFFFFFFFFFFFFFFFFFFFFFFFFFF AND PUSH1 0x7E PUSH1 0x3 PUSH1 0x4 DUP2 LT PUSH2 0x4022 JUMPI INVALID JUMPDEST ADD PUSH1 0x0 SWAP1 SLOAD SWAP1 PUSH2 0x100 EXP SWAP1 DIV PUSH20 0xFFFFFFFFFFFFFFFFFFFFFFFFFFFFFFFFFFFFFFFF AND PUSH20 0xFFFFFFFFFFFFFFFFFFFFFFFFFFFFFFFFFFFFFFFF AND EQ ISZERO DUP1 ISZERO PUSH2 0x4077 JUMPI POP PUSH1 0x0 PUSH1 0x79 PUSH1 0x4 PUSH1 0x5 DUP2 LT PUSH2 0x4073 JUMPI INVALID JUMPDEST ADD SLOAD GT JUMPDEST DUP1 ISZERO PUSH2 0x40DE JUMPI POP ADDRESS PUSH20 0xFFFFFFFFFFFFFFFFFFFFFFFFFFFFFFFFFFFFFFFF AND PUSH1 0x7E PUSH1 0x3 PUSH1 0x4 DUP2 LT PUSH2 0x40A3 JUMPI INVALID JUMPDEST ADD PUSH1 0x0 SWAP1 SLOAD SWAP1 PUSH2 0x100 EXP SWAP1 DIV PUSH20 0xFFFFFFFFFFFFFFFFFFFFFFFFFFFFFFFFFFFFFFFF AND PUSH20 0xFFFFFFFFFFFFFFFFFFFFFFFFFFFFFFFFFFFFFFFF AND EQ ISZERO JUMPDEST ISZERO PUSH2 0x414D JUMPI PUSH2 0x4139 PUSH2 0x411B PUSH1 0x64 PUSH2 0x410D PUSH1 0x79 PUSH1 0x4 PUSH1 0x5 DUP2 LT PUSH2 0x40FC JUMPI INVALID JUMPDEST ADD SLOAD DUP6 PUSH2 0x4599 SWAP1 SWAP2 SWAP1 PUSH4 0xFFFFFFFF AND JUMP JUMPDEST PUSH2 0x3455 SWAP1 SWAP2 SWAP1 PUSH4 0xFFFFFFFF AND JUMP JUMPDEST PUSH1 0x82 PUSH1 0x3 PUSH1 0x4 DUP2 LT PUSH2 0x4129 JUMPI INVALID JUMPDEST ADD SLOAD PUSH2 0x35BB SWAP1 SWAP2 SWAP1 PUSH4 0xFFFFFFFF AND JUMP JUMPDEST PUSH1 0x82 PUSH1 0x3 PUSH1 0x4 DUP2 LT PUSH2 0x4147 JUMPI INVALID JUMPDEST ADD DUP2 SWAP1 SSTORE POP JUMPDEST POP POP POP JUMP JUMPDEST PUSH1 0x0 DUP1 PUSH1 0x3 PUSH1 0x4 SWAP1 SLOAD SWAP1 PUSH2 0x100 EXP SWAP1 DIV PUSH4 0xFFFFFFFF AND SWAP1 POP PUSH1 0x0 DUP1 SWAP1 SLOAD SWAP1 PUSH2 0x100 EXP SWAP1 DIV PUSH4 0xFFFFFFFF AND PUSH4 0xFFFFFFFF AND PUSH1 0x2 PUSH4 0xFFFFFFFF AND EXP PUSH4 0xFFFFFFFF AND DUP2 PUSH4 0xFFFFFFFF AND EQ ISZERO PUSH2 0x41EF JUMPI PUSH1 0x40 MLOAD PUSH32 0x8C379A000000000000000000000000000000000000000000000000000000000 DUP2 MSTORE PUSH1 0x4 ADD DUP1 DUP1 PUSH1 0x20 ADD DUP3 DUP2 SUB DUP3 MSTORE PUSH1 0x2F DUP2 MSTORE PUSH1 0x20 ADD DUP1 PUSH2 0x4960 PUSH1 0x2F SWAP2 CODECOPY PUSH1 0x40 ADD SWAP2 POP POP PUSH1 0x40 MLOAD DUP1 SWAP2 SUB SWAP1 REVERT JUMPDEST PUSH1 0x1 PUSH1 0x3 PUSH1 0x4 DUP3 DUP3 DUP3 SWAP1 SLOAD SWAP1 PUSH2 0x100 EXP SWAP1 DIV PUSH4 0xFFFFFFFF AND ADD SWAP3 POP PUSH2 0x100 EXP DUP2 SLOAD DUP2 PUSH4 0xFFFFFFFF MUL NOT AND SWAP1 DUP4 PUSH4 0xFFFFFFFF AND MUL OR SWAP1 SSTORE POP PUSH1 0x0 DUP4 SWAP1 POP PUSH1 0x0 DUP1 PUSH1 0x0 DUP1 SWAP1 POP JUMPDEST PUSH1 0x0 DUP1 SWAP1 SLOAD SWAP1 PUSH2 0x100 EXP SWAP1 DIV PUSH4 0xFFFFFFFF AND PUSH4 0xFFFFFFFF AND DUP2 PUSH4 0xFFFFFFFF AND LT ISZERO PUSH2 0x4312 JUMPI PUSH1 0x0 PUSH1 0x2 DUP7 PUSH4 0xFFFFFFFF AND DUP2 PUSH2 0x426B JUMPI INVALID JUMPDEST MOD PUSH4 0xFFFFFFFF AND EQ ISZERO PUSH2 0x42C2 JUMPI DUP4 SWAP3 POP PUSH1 0x2 DUP2 PUSH4 0xFFFFFFFF AND DUP2 SLOAD DUP2 LT PUSH2 0x428E JUMPI INVALID JUMPDEST SWAP1 PUSH1 0x0 MSTORE PUSH1 0x20 PUSH1 0x0 KECCAK256 ADD SLOAD SWAP2 POP DUP4 PUSH1 0x1 DUP3 PUSH4 0xFFFFFFFF AND DUP2 SLOAD DUP2 LT PUSH2 0x42AF JUMPI INVALID JUMPDEST SWAP1 PUSH1 0x0 MSTORE PUSH1 0x20 PUSH1 0x0 KECCAK256 ADD DUP2 SWAP1 SSTORE POP PUSH2 0x42E6 JUMP JUMPDEST PUSH1 0x1 DUP2 PUSH4 0xFFFFFFFF AND DUP2 SLOAD DUP2 LT PUSH2 0x42D5 JUMPI INVALID JUMPDEST SWAP1 PUSH1 0x0 MSTORE PUSH1 0x20 PUSH1 0x0 KECCAK256 ADD SLOAD SWAP3 POP DUP4 SWAP2 POP JUMPDEST PUSH2 0x42F0 DUP4 DUP4 PUSH2 0x1B9A JUMP JUMPDEST SWAP4 POP PUSH1 0x2 DUP6 PUSH4 0xFFFFFFFF AND DUP2 PUSH2 0x4302 JUMPI INVALID JUMPDEST DIV SWAP5 POP DUP1 DUP1 PUSH1 0x1 ADD SWAP2 POP POP PUSH2 0x4234 JUMP JUMPDEST POP PUSH1 0x64 PUSH4 0xFFFFFFFF AND PUSH1 0x1 PUSH1 0x3 PUSH1 0x0 SWAP1 SLOAD SWAP1 PUSH2 0x100 EXP SWAP1 DIV PUSH4 0xFFFFFFFF AND ADD PUSH4 0xFFFFFFFF AND DUP2 PUSH2 0x433E JUMPI INVALID JUMPDEST MOD PUSH1 0x3 PUSH1 0x0 PUSH2 0x100 EXP DUP2 SLOAD DUP2 PUSH4 0xFFFFFFFF MUL NOT AND SWAP1 DUP4 PUSH4 0xFFFFFFFF AND MUL OR SWAP1 SSTORE POP DUP3 PUSH1 0x4 PUSH1 0x3 PUSH1 0x0 SWAP1 SLOAD SWAP1 PUSH2 0x100 EXP SWAP1 DIV PUSH4 0xFFFFFFFF AND PUSH4 0xFFFFFFFF AND PUSH1 0x64 DUP2 LT PUSH2 0x4385 JUMPI INVALID JUMPDEST ADD DUP2 SWAP1 SSTORE POP PUSH1 0x1 PUSH1 0x3 PUSH1 0x4 SWAP1 SLOAD SWAP1 PUSH2 0x100 EXP SWAP1 DIV PUSH4 0xFFFFFFFF AND SUB SWAP5 POP POP POP POP POP SWAP2 SWAP1 POP JUMP JUMPDEST PUSH2 0x44AB DUP5 DUP6 PUSH20 0xFFFFFFFFFFFFFFFFFFFFFFFFFFFFFFFFFFFFFFFF AND PUSH4 0x23B872DD SWAP1 POP PUSH1 0xE0 SHL DUP6 DUP6 DUP6 PUSH1 0x40 MLOAD PUSH1 0x24 ADD DUP1 DUP5 PUSH20 0xFFFFFFFFFFFFFFFFFFFFFFFFFFFFFFFFFFFFFFFF AND PUSH20 0xFFFFFFFFFFFFFFFFFFFFFFFFFFFFFFFFFFFFFFFF AND DUP2 MSTORE PUSH1 0x20 ADD DUP4 PUSH20 0xFFFFFFFFFFFFFFFFFFFFFFFFFFFFFFFFFFFFFFFF AND PUSH20 0xFFFFFFFFFFFFFFFFFFFFFFFFFFFFFFFFFFFFFFFF AND DUP2 MSTORE PUSH1 0x20 ADD DUP3 DUP2 MSTORE PUSH1 0x20 ADD SWAP4 POP POP POP POP PUSH1 0x40 MLOAD PUSH1 0x20 DUP2 DUP4 SUB SUB DUP2 MSTORE SWAP1 PUSH1 0x40 MSTORE SWAP1 PUSH28 0xFFFFFFFFFFFFFFFFFFFFFFFFFFFFFFFFFFFFFFFFFFFFFFFFFFFFFFFF NOT AND PUSH1 0x20 DUP3 ADD DUP1 MLOAD PUSH28 0xFFFFFFFFFFFFFFFFFFFFFFFFFFFFFFFFFFFFFFFFFFFFFFFFFFFFFFFF DUP4 DUP2 DUP4 AND OR DUP4 MSTORE POP POP POP POP PUSH2 0x45CD JUMP JUMPDEST POP POP POP POP JUMP JUMPDEST PUSH2 0x457D DUP4 DUP5 PUSH20 0xFFFFFFFFFFFFFFFFFFFFFFFFFFFFFFFFFFFFFFFF AND PUSH4 0xA9059CBB SWAP1 POP PUSH1 0xE0 SHL DUP5 DUP5 PUSH1 0x40 MLOAD PUSH1 0x24 ADD DUP1 DUP4 PUSH20 0xFFFFFFFFFFFFFFFFFFFFFFFFFFFFFFFFFFFFFFFF AND PUSH20 0xFFFFFFFFFFFFFFFFFFFFFFFFFFFFFFFFFFFFFFFF AND DUP2 MSTORE PUSH1 0x20 ADD DUP3 DUP2 MSTORE PUSH1 0x20 ADD SWAP3 POP POP POP PUSH1 0x40 MLOAD PUSH1 0x20 DUP2 DUP4 SUB SUB DUP2 MSTORE SWAP1 PUSH1 0x40 MSTORE SWAP1 PUSH28 0xFFFFFFFFFFFFFFFFFFFFFFFFFFFFFFFFFFFFFFFFFFFFFFFFFFFFFFFF NOT AND PUSH1 0x20 DUP3 ADD DUP1 MLOAD PUSH28 0xFFFFFFFFFFFFFFFFFFFFFFFFFFFFFFFFFFFFFFFFFFFFFFFFFFFFFFFF DUP4 DUP2 DUP4 AND OR DUP4 MSTORE POP POP POP POP PUSH2 0x45CD JUMP JUMPDEST POP POP POP JUMP JUMPDEST PUSH1 0x0 DUP3 DUP3 GT ISZERO PUSH2 0x458E JUMPI INVALID JUMPDEST DUP2 DUP4 SUB SWAP1 POP SWAP3 SWAP2 POP POP JUMP JUMPDEST PUSH1 0x0 DUP1 DUP4 EQ ISZERO PUSH2 0x45AC JUMPI PUSH1 0x0 SWAP1 POP PUSH2 0x45C7 JUMP JUMPDEST DUP2 DUP4 MUL SWAP1 POP DUP2 DUP4 DUP3 DUP2 PUSH2 0x45BB JUMPI INVALID JUMPDEST DIV EQ PUSH2 0x45C3 JUMPI INVALID JUMPDEST DUP1 SWAP1 POP JUMPDEST SWAP3 SWAP2 POP POP JUMP JUMPDEST PUSH2 0x45EC DUP3 PUSH20 0xFFFFFFFFFFFFFFFFFFFFFFFFFFFFFFFFFFFFFFFF AND PUSH2 0x331C JUMP JUMPDEST PUSH2 0x465E JUMPI PUSH1 0x40 MLOAD PUSH32 0x8C379A000000000000000000000000000000000000000000000000000000000 DUP2 MSTORE PUSH1 0x4 ADD DUP1 DUP1 PUSH1 0x20 ADD DUP3 DUP2 SUB DUP3 MSTORE PUSH1 0x1F DUP2 MSTORE PUSH1 0x20 ADD DUP1 PUSH32 0x5361666545524332303A2063616C6C20746F206E6F6E2D636F6E747261637400 DUP2 MSTORE POP PUSH1 0x20 ADD SWAP2 POP POP PUSH1 0x40 MLOAD DUP1 SWAP2 SUB SWAP1 REVERT JUMPDEST PUSH1 0x0 PUSH1 0x60 DUP4 PUSH20 0xFFFFFFFFFFFFFFFFFFFFFFFFFFFFFFFFFFFFFFFF AND DUP4 PUSH1 0x40 MLOAD DUP1 DUP3 DUP1 MLOAD SWAP1 PUSH1 0x20 ADD SWAP1 DUP1 DUP4 DUP4 JUMPDEST PUSH1 0x20 DUP4 LT PUSH2 0x46AD JUMPI DUP1 MLOAD DUP3 MSTORE PUSH1 0x20 DUP3 ADD SWAP2 POP PUSH1 0x20 DUP2 ADD SWAP1 POP PUSH1 0x20 DUP4 SUB SWAP3 POP PUSH2 0x468A JUMP JUMPDEST PUSH1 0x1 DUP4 PUSH1 0x20 SUB PUSH2 0x100 EXP SUB DUP1 NOT DUP3 MLOAD AND DUP2 DUP5 MLOAD AND DUP1 DUP3 OR DUP6 MSTORE POP POP POP POP POP POP SWAP1 POP ADD SWAP2 POP POP PUSH1 0x0 PUSH1 0x40 MLOAD DUP1 DUP4 SUB DUP2 PUSH1 0x0 DUP7 GAS CALL SWAP2 POP POP RETURNDATASIZE DUP1 PUSH1 0x0 DUP2 EQ PUSH2 0x470F JUMPI PUSH1 0x40 MLOAD SWAP2 POP PUSH1 0x1F NOT PUSH1 0x3F RETURNDATASIZE ADD AND DUP3 ADD PUSH1 0x40 MSTORE RETURNDATASIZE DUP3 MSTORE RETURNDATASIZE PUSH1 0x0 PUSH1 0x20 DUP5 ADD RETURNDATACOPY PUSH2 0x4714 JUMP JUMPDEST PUSH1 0x60 SWAP2 POP JUMPDEST POP SWAP2 POP SWAP2 POP DUP2 PUSH2 0x478C JUMPI PUSH1 0x40 MLOAD PUSH32 0x8C379A000000000000000000000000000000000000000000000000000000000 DUP2 MSTORE PUSH1 0x4 ADD DUP1 DUP1 PUSH1 0x20 ADD DUP3 DUP2 SUB DUP3 MSTORE PUSH1 0x20 DUP2 MSTORE PUSH1 0x20 ADD DUP1 PUSH32 0x5361666545524332303A206C6F772D6C6576656C2063616C6C206661696C6564 DUP2 MSTORE POP PUSH1 0x20 ADD SWAP2 POP POP PUSH1 0x40 MLOAD DUP1 SWAP2 SUB SWAP1 REVERT JUMPDEST PUSH1 0x0 DUP2 MLOAD GT ISZERO PUSH2 0x4812 JUMPI DUP1 DUP1 PUSH1 0x20 ADD SWAP1 MLOAD PUSH1 0x20 DUP2 LT ISZERO PUSH2 0x47AB JUMPI PUSH1 0x0 DUP1 REVERT JUMPDEST DUP2 ADD SWAP1 DUP1 DUP1 MLOAD SWAP1 PUSH1 0x20 ADD SWAP1 SWAP3 SWAP2 SWAP1 POP POP POP PUSH2 0x4811 JUMPI PUSH1 0x40 MLOAD PUSH32 0x8C379A000000000000000000000000000000000000000000000000000000000 DUP2 MSTORE PUSH1 0x4 ADD DUP1 DUP1 PUSH1 0x20 ADD DUP3 DUP2 SUB DUP3 MSTORE PUSH1 0x2A DUP2 MSTORE PUSH1 0x20 ADD DUP1 PUSH2 0x49D1 PUSH1 0x2A SWAP2 CODECOPY PUSH1 0x40 ADD SWAP2 POP POP PUSH1 0x40 MLOAD DUP1 SWAP2 SUB SWAP1 REVERT JUMPDEST JUMPDEST POP POP POP POP JUMP JUMPDEST DUP3 PUSH1 0x5 DUP2 ADD SWAP3 DUP3 ISZERO PUSH2 0x4847 JUMPI SWAP2 PUSH1 0x20 MUL DUP3 ADD JUMPDEST DUP3 DUP2 GT ISZERO PUSH2 0x4846 JUMPI DUP3 MLOAD DUP3 SSTORE SWAP2 PUSH1 0x20 ADD SWAP2 SWAP1 PUSH1 0x1 ADD SWAP1 PUSH2 0x482B JUMP JUMPDEST JUMPDEST POP SWAP1 POP PUSH2 0x4854 SWAP2 SWAP1 PUSH2 0x48D5 JUMP JUMPDEST POP SWAP1 JUMP JUMPDEST DUP3 PUSH1 0x4 DUP2 ADD SWAP3 DUP3 ISZERO PUSH2 0x48C4 JUMPI SWAP2 PUSH1 0x20 MUL DUP3 ADD JUMPDEST DUP3 DUP2 GT ISZERO PUSH2 0x48C3 JUMPI DUP3 MLOAD DUP3 PUSH1 0x0 PUSH2 0x100 EXP DUP2 SLOAD DUP2 PUSH20 0xFFFFFFFFFFFFFFFFFFFFFFFFFFFFFFFFFFFFFFFF MUL NOT AND SWAP1 DUP4 PUSH20 0xFFFFFFFFFFFFFFFFFFFFFFFFFFFFFFFFFFFFFFFF AND MUL OR SWAP1 SSTORE POP SWAP2 PUSH1 0x20 ADD SWAP2 SWAP1 PUSH1 0x1 ADD SWAP1 PUSH2 0x486B JUMP JUMPDEST JUMPDEST POP SWAP1 POP PUSH2 0x48D1 SWAP2 SWAP1 PUSH2 0x48FA JUMP JUMPDEST POP SWAP1 JUMP JUMPDEST PUSH2 0x48F7 SWAP2 SWAP1 JUMPDEST DUP1 DUP3 GT ISZERO PUSH2 0x48F3 JUMPI PUSH1 0x0 DUP2 PUSH1 0x0 SWAP1 SSTORE POP PUSH1 0x1 ADD PUSH2 0x48DB JUMP JUMPDEST POP SWAP1 JUMP JUMPDEST SWAP1 JUMP JUMPDEST PUSH2 0x493A SWAP2 SWAP1 JUMPDEST DUP1 DUP3 GT ISZERO PUSH2 0x4936 JUMPI PUSH1 0x0 DUP2 DUP2 PUSH2 0x100 EXP DUP2 SLOAD SWAP1 PUSH20 0xFFFFFFFFFFFFFFFFFFFFFFFFFFFFFFFFFFFFFFFF MUL NOT AND SWAP1 SSTORE POP PUSH1 0x1 ADD PUSH2 0x4900 JUMP JUMPDEST POP SWAP1 JUMP JUMPDEST SWAP1 JUMP INVALID 0x4F PUSH15 0x6C79204F776E65722063616E206361 PUSH13 0x6C20746869732066756E637469 PUSH16 0x6E2E4D65726B6C652074726565206973 KECCAK256 PUSH7 0x756C6C2E204E6F KECCAK256 PUSH14 0x6F7265206C656166732063616E20 PUSH3 0x652061 PUSH5 0x6465645F72 PUSH10 0x6768742073686F756C64 KECCAK256 PUSH3 0x652069 PUSH15 0x7369646520746865206669656C6454 PUSH9 0x6520636F6D6D69746D PUSH6 0x6E7420686173 KECCAK256 PUSH3 0x65656E KECCAK256 PUSH20 0x75626D69747465645361666545524332303A2045 MSTORE NUMBER ORIGIN ADDRESS KECCAK256 PUSH16 0x7065726174696F6E20646964206E6F74 KECCAK256 PUSH20 0x756363656564A265627A7A72315820D540EFA7EB 0x4F 0xEC SWAP1 SWAP7 0xC9 ADDMOD 0xC5 SWAP5 SWAP15 0xEC 0xB1 0xE8 TIMESTAMP 0xD1 0x1F PUSH31 0x9A6336419CB6E860F1317C64736F6C634300051100325F7269676874207368 PUSH16 0x756C6420626520696E73696465207468 PUSH6 0x206669656C64 "
				},
				"gasEstimates": {
					"creation": {
						"codeDepositCost": "3798200",
						"executionCost": "infinite",
						"totalCost": "infinite"
					},
					"external": {
						"FIELD_SIZE()": "339",
						"M87Denomination()": "infinite",
						"M87Token()": "1120",
						"ROOT_HISTORY_SIZE()": "306",
						"ZERO_VALUE()": "294",
						"accumulateM87()": "1094",
						"anonymityFee()": "1117",
						"changeMessierOwner(address)": "infinite",
						"changeTreasury(address)": "infinite",
						"coinDenomination()": "1161",
						"collectedFee()": "1160",
						"commitments(bytes32)": "1311",
						"curPoolIndex()": "1095",
						"currentRootIndex()": "1143",
						"deposit(bytes32)": "infinite",
						"feeToCollectAmount()": "1074",
						"feeToCollectPercent()": "1116",
						"filledSubtrees(uint256)": "2046",
						"forceSwapAndShare()": "infinite",
						"getAccumulateM87()": "infinite",
						"getLastRoot()": "1995",
						"hashLeftRight(bytes32,bytes32)": "infinite",
						"initM87Denomination()": "1095",
						"isKnownRoot(bytes32)": "infinite",
						"lastRewardBlock()": "1073",
						"levels()": "1143",
						"messier_owner()": "1121",
						"nextIndex()": "1235",
						"numOfShares()": "1096",
						"overMinEth()": "1116",
						"poolList(uint256)": "1301",
						"rewardAmounts(uint256)": "1174",
						"rewardPerBlock()": "1138",
						"roots(uint256)": "1262",
						"setAnonymityFee(uint256)": "infinite",
						"setDuration(uint256)": "infinite",
						"setFeePercent(uint256)": "infinite",
						"setOverMinETH(uint256)": "infinite",
						"setPoolFee(uint256,uint256,uint256,uint256,uint256)": "infinite",
						"setPoolList(address,address,address,address)": "infinite",
						"shareOfReward(uint256)": "1175",
						"token()": "1163",
						"tokenDenomination()": "1117",
						"treasury()": "1209",
						"uniswapV2Router()": "1100",
						"updateBlockReward()": "infinite",
						"updateM87Token(address)": "infinite",
						"updateVerifier(address)": "infinite",
						"verifier()": "1210",
						"version()": "infinite",
						"withdraw(bytes,bytes32,bytes32,address,address,uint256,uint256)": "infinite",
						"zeros(uint256)": "2047"
					},
					"internal": {
						"calcAccumulateM87()": "infinite",
						"safeTransfer(contract IERC20,address,uint256)": "infinite",
						"swapAndShare()": "infinite"
					}
				},
				"methodIdentifiers": {
					"FIELD_SIZE()": "414a37ba",
					"M87Denomination()": "22217cd3",
					"M87Token()": "75ddc9ed",
					"ROOT_HISTORY_SIZE()": "cd87a3b4",
					"ZERO_VALUE()": "ec732959",
					"accumulateM87()": "b4a61faa",
					"anonymityFee()": "3b406fb7",
					"changeMessierOwner(address)": "d3129be4",
					"changeTreasury(address)": "b14f2a39",
					"coinDenomination()": "997318ec",
					"collectedFee()": "e811f50a",
					"commitments(bytes32)": "839df945",
					"curPoolIndex()": "6c23cd68",
					"currentRootIndex()": "90eeb02b",
					"deposit(bytes32)": "b214faa5",
					"feeToCollectAmount()": "2d0ec0ff",
					"feeToCollectPercent()": "ecaa6503",
					"filledSubtrees(uint256)": "f178e47c",
					"forceSwapAndShare()": "34749d22",
					"getAccumulateM87()": "9709a6fd",
					"getLastRoot()": "ba70f757",
					"hashLeftRight(bytes32,bytes32)": "38bf282e",
					"initM87Denomination()": "af324076",
					"isKnownRoot(bytes32)": "6d9833e3",
					"lastRewardBlock()": "a9f8d181",
					"levels()": "4ecf518b",
					"messier_owner()": "34d6a7bf",
					"nextIndex()": "fc7e9c6f",
					"numOfShares()": "3409038c",
					"overMinEth()": "d27c1824",
					"poolList(uint256)": "2a48235b",
					"rewardAmounts(uint256)": "ca093047",
					"rewardPerBlock()": "8ae39cac",
					"roots(uint256)": "c2b40ae4",
					"setAnonymityFee(uint256)": "8daac0df",
					"setDuration(uint256)": "f6be71d1",
					"setFeePercent(uint256)": "7ce3489b",
					"setOverMinETH(uint256)": "29a5967e",
					"setPoolFee(uint256,uint256,uint256,uint256,uint256)": "4b3e7811",
					"setPoolList(address,address,address,address)": "6c081396",
					"shareOfReward(uint256)": "445cd696",
					"token()": "fc0c546a",
					"tokenDenomination()": "5129b3e1",
					"treasury()": "61d027b3",
					"uniswapV2Router()": "1694505e",
					"updateBlockReward()": "8d949d4b",
					"updateM87Token(address)": "ca13d4e6",
					"updateVerifier(address)": "97fc007c",
					"verifier()": "2b7ac3f3",
					"version()": "54fd4d50",
					"withdraw(bytes,bytes32,bytes32,address,address,uint256,uint256)": "21a0adb6",
					"zeros(uint256)": "e8295588"
				}
			},
			"storageLayout": {
				"storage": [
					{
						"astId": 429,
						"contract": "anonimity/1-ETH-Anonymity.sol:MessierAnonymity",
						"label": "levels",
						"offset": 0,
						"slot": "0",
						"type": "t_uint32"
					},
					{
						"astId": 432,
						"contract": "anonimity/1-ETH-Anonymity.sol:MessierAnonymity",
						"label": "filledSubtrees",
						"offset": 0,
						"slot": "1",
						"type": "t_array(t_bytes32)dyn_storage"
					},
					{
						"astId": 435,
						"contract": "anonimity/1-ETH-Anonymity.sol:MessierAnonymity",
						"label": "zeros",
						"offset": 0,
						"slot": "2",
						"type": "t_array(t_bytes32)dyn_storage"
					},
					{
						"astId": 438,
						"contract": "anonimity/1-ETH-Anonymity.sol:MessierAnonymity",
						"label": "currentRootIndex",
						"offset": 0,
						"slot": "3",
						"type": "t_uint32"
					},
					{
						"astId": 441,
						"contract": "anonimity/1-ETH-Anonymity.sol:MessierAnonymity",
						"label": "nextIndex",
						"offset": 4,
						"slot": "3",
						"type": "t_uint32"
					},
					{
						"astId": 448,
						"contract": "anonimity/1-ETH-Anonymity.sol:MessierAnonymity",
						"label": "roots",
						"offset": 0,
						"slot": "4",
						"type": "t_array(t_bytes32)100_storage"
					},
					{
						"astId": 778,
						"contract": "anonimity/1-ETH-Anonymity.sol:MessierAnonymity",
						"label": "_guardCounter",
						"offset": 0,
						"slot": "104",
						"type": "t_uint256"
					},
					{
						"astId": 844,
						"contract": "anonimity/1-ETH-Anonymity.sol:MessierAnonymity",
						"label": "tokenDenomination",
						"offset": 0,
						"slot": "105",
						"type": "t_uint256"
					},
					{
						"astId": 846,
						"contract": "anonimity/1-ETH-Anonymity.sol:MessierAnonymity",
						"label": "coinDenomination",
						"offset": 0,
						"slot": "106",
						"type": "t_uint256"
					},
					{
						"astId": 848,
						"contract": "anonimity/1-ETH-Anonymity.sol:MessierAnonymity",
						"label": "initM87Denomination",
						"offset": 0,
						"slot": "107",
						"type": "t_uint256"
					},
					{
						"astId": 852,
						"contract": "anonimity/1-ETH-Anonymity.sol:MessierAnonymity",
						"label": "commitments",
						"offset": 0,
						"slot": "108",
						"type": "t_mapping(t_bytes32,t_bool)"
					},
					{
						"astId": 854,
						"contract": "anonimity/1-ETH-Anonymity.sol:MessierAnonymity",
						"label": "verifier",
						"offset": 0,
						"slot": "109",
						"type": "t_contract(IVerifier)775"
					},
					{
						"astId": 856,
						"contract": "anonimity/1-ETH-Anonymity.sol:MessierAnonymity",
						"label": "token",
						"offset": 0,
						"slot": "110",
						"type": "t_contract(IERC20)175"
					},
					{
						"astId": 858,
						"contract": "anonimity/1-ETH-Anonymity.sol:MessierAnonymity",
						"label": "M87Token",
						"offset": 0,
						"slot": "111",
						"type": "t_contract(IERC20)175"
					},
					{
						"astId": 860,
						"contract": "anonimity/1-ETH-Anonymity.sol:MessierAnonymity",
						"label": "treasury",
						"offset": 0,
						"slot": "112",
						"type": "t_address"
					},
					{
						"astId": 862,
						"contract": "anonimity/1-ETH-Anonymity.sol:MessierAnonymity",
						"label": "messier_owner",
						"offset": 0,
						"slot": "113",
						"type": "t_address"
					},
					{
						"astId": 864,
						"contract": "anonimity/1-ETH-Anonymity.sol:MessierAnonymity",
						"label": "numOfShares",
						"offset": 0,
						"slot": "114",
						"type": "t_uint256"
					},
					{
						"astId": 866,
						"contract": "anonimity/1-ETH-Anonymity.sol:MessierAnonymity",
						"label": "lastRewardBlock",
						"offset": 0,
						"slot": "115",
						"type": "t_uint256"
					},
					{
						"astId": 868,
						"contract": "anonimity/1-ETH-Anonymity.sol:MessierAnonymity",
						"label": "rewardPerBlock",
						"offset": 0,
						"slot": "116",
						"type": "t_uint256"
					},
					{
						"astId": 870,
						"contract": "anonimity/1-ETH-Anonymity.sol:MessierAnonymity",
						"label": "accumulateM87",
						"offset": 0,
						"slot": "117",
						"type": "t_uint256"
					},
					{
						"astId": 873,
						"contract": "anonimity/1-ETH-Anonymity.sol:MessierAnonymity",
						"label": "anonymityFee",
						"offset": 0,
						"slot": "118",
						"type": "t_uint256"
					},
					{
						"astId": 876,
						"contract": "anonimity/1-ETH-Anonymity.sol:MessierAnonymity",
						"label": "duration",
						"offset": 0,
						"slot": "119",
						"type": "t_uint256"
					},
					{
						"astId": 885,
						"contract": "anonimity/1-ETH-Anonymity.sol:MessierAnonymity",
						"label": "numDurationBlocks",
						"offset": 0,
						"slot": "120",
						"type": "t_uint256"
					},
					{
						"astId": 895,
						"contract": "anonimity/1-ETH-Anonymity.sol:MessierAnonymity",
						"label": "shareOfReward",
						"offset": 0,
						"slot": "121",
						"type": "t_array(t_uint256)5_storage"
					},
					{
						"astId": 899,
						"contract": "anonimity/1-ETH-Anonymity.sol:MessierAnonymity",
						"label": "poolList",
						"offset": 0,
						"slot": "126",
						"type": "t_array(t_address)4_storage"
					},
					{
						"astId": 903,
						"contract": "anonimity/1-ETH-Anonymity.sol:MessierAnonymity",
						"label": "rewardAmounts",
						"offset": 0,
						"slot": "130",
						"type": "t_array(t_uint256)4_storage"
					},
					{
						"astId": 905,
						"contract": "anonimity/1-ETH-Anonymity.sol:MessierAnonymity",
						"label": "collectedFee",
						"offset": 0,
						"slot": "134",
						"type": "t_uint256"
					},
					{
						"astId": 908,
						"contract": "anonimity/1-ETH-Anonymity.sol:MessierAnonymity",
						"label": "feeToCollectPercent",
						"offset": 0,
						"slot": "135",
						"type": "t_uint256"
					},
					{
						"astId": 910,
						"contract": "anonimity/1-ETH-Anonymity.sol:MessierAnonymity",
						"label": "feeToCollectAmount",
						"offset": 0,
						"slot": "136",
						"type": "t_uint256"
					},
					{
						"astId": 913,
						"contract": "anonimity/1-ETH-Anonymity.sol:MessierAnonymity",
						"label": "overMinEth",
						"offset": 0,
						"slot": "137",
						"type": "t_uint256"
					},
					{
						"astId": 915,
						"contract": "anonimity/1-ETH-Anonymity.sol:MessierAnonymity",
						"label": "uniswapV2Router",
						"offset": 0,
						"slot": "138",
						"type": "t_contract(IUniswapV2Router02)825"
					},
					{
						"astId": 917,
						"contract": "anonimity/1-ETH-Anonymity.sol:MessierAnonymity",
						"label": "curPoolIndex",
						"offset": 0,
						"slot": "139",
						"type": "t_uint256"
					}
				],
				"types": {
					"t_address": {
						"encoding": "inplace",
						"label": "address",
						"numberOfBytes": "20"
					},
					"t_array(t_address)4_storage": {
						"base": "t_address",
						"encoding": "inplace",
						"label": "address[4]",
						"numberOfBytes": "128"
					},
					"t_array(t_bytes32)100_storage": {
						"base": "t_bytes32",
						"encoding": "inplace",
						"label": "bytes32[100]",
						"numberOfBytes": "3200"
					},
					"t_array(t_bytes32)dyn_storage": {
						"base": "t_bytes32",
						"encoding": "dynamic_array",
						"label": "bytes32[]",
						"numberOfBytes": "32"
					},
					"t_array(t_uint256)4_storage": {
						"base": "t_uint256",
						"encoding": "inplace",
						"label": "uint256[4]",
						"numberOfBytes": "128"
					},
					"t_array(t_uint256)5_storage": {
						"base": "t_uint256",
						"encoding": "inplace",
						"label": "uint256[5]",
						"numberOfBytes": "160"
					},
					"t_bool": {
						"encoding": "inplace",
						"label": "bool",
						"numberOfBytes": "1"
					},
					"t_bytes32": {
						"encoding": "inplace",
						"label": "bytes32",
						"numberOfBytes": "32"
					},
					"t_contract(IERC20)175": {
						"encoding": "inplace",
						"label": "contract IERC20",
						"numberOfBytes": "20"
					},
					"t_contract(IUniswapV2Router02)825": {
						"encoding": "inplace",
						"label": "contract IUniswapV2Router02",
						"numberOfBytes": "20"
					},
					"t_contract(IVerifier)775": {
						"encoding": "inplace",
						"label": "contract IVerifier",
						"numberOfBytes": "20"
					},
					"t_mapping(t_bytes32,t_bool)": {
						"encoding": "mapping",
						"key": "t_bytes32",
						"label": "mapping(bytes32 => bool)",
						"numberOfBytes": "32",
						"value": "t_bool"
					},
					"t_uint256": {
						"encoding": "inplace",
						"label": "uint256",
						"numberOfBytes": "32"
					},
					"t_uint32": {
						"encoding": "inplace",
						"label": "uint32",
						"numberOfBytes": "4"
					}
				}
			},
			"userdoc": {
				"methods": {}
			}
		}
	}
}