{
	"anonimity/0.1-ETH-Anonymity.sol": {
		"MessierAnonymity": {
			"abi": [
				{
					"inputs": [],
					"payable": false,
					"stateMutability": "nonpayable",
					"type": "constructor"
				},
				{
					"anonymous": false,
					"inputs": [
						{
							"indexed": false,
							"internalType": "uint256",
							"name": "oldValue",
							"type": "uint256"
						},
						{
							"indexed": false,
							"internalType": "uint256",
							"name": "newValue",
							"type": "uint256"
						}
					],
					"name": "AnonymityFeeUpdated",
					"type": "event"
				},
				{
					"anonymous": false,
					"inputs": [
						{
							"indexed": true,
							"internalType": "bytes32",
							"name": "commitment",
							"type": "bytes32"
						},
						{
							"indexed": false,
							"internalType": "uint32",
							"name": "leafIndex",
							"type": "uint32"
						},
						{
							"indexed": false,
							"internalType": "uint256",
							"name": "timestamp",
							"type": "uint256"
						},
						{
							"indexed": false,
							"internalType": "uint256",
							"name": "M87Denomination",
							"type": "uint256"
						},
						{
							"indexed": false,
							"internalType": "uint256",
							"name": "anonymityFee",
							"type": "uint256"
						}
					],
					"name": "Deposit",
					"type": "event"
				},
				{
					"anonymous": false,
					"inputs": [
						{
							"indexed": false,
							"internalType": "uint256",
							"name": "oldValue",
							"type": "uint256"
						},
						{
							"indexed": false,
							"internalType": "uint256",
							"name": "newValue",
							"type": "uint256"
						}
					],
					"name": "RewardPerBlockUpdated",
					"type": "event"
				},
				{
					"anonymous": false,
					"inputs": [
						{
							"indexed": false,
							"internalType": "address",
							"name": "to",
							"type": "address"
						},
						{
							"indexed": false,
							"internalType": "bytes32",
							"name": "nullifierHash",
							"type": "bytes32"
						},
						{
							"indexed": true,
							"internalType": "address",
							"name": "relayer",
							"type": "address"
						},
						{
							"indexed": false,
							"internalType": "uint256",
							"name": "reward",
							"type": "uint256"
						},
						{
							"indexed": false,
							"internalType": "uint256",
							"name": "relayerFee",
							"type": "uint256"
						}
					],
					"name": "Withdrawal",
					"type": "event"
				},
				{
					"constant": true,
					"inputs": [],
					"name": "FIELD_SIZE",
					"outputs": [
						{
							"internalType": "uint256",
							"name": "",
							"type": "uint256"
						}
					],
					"payable": false,
					"stateMutability": "view",
					"type": "function"
				},
				{
					"constant": true,
					"inputs": [],
					"name": "M87Denomination",
					"outputs": [
						{
							"internalType": "uint256",
							"name": "",
							"type": "uint256"
						}
					],
					"payable": false,
					"stateMutability": "view",
					"type": "function"
				},
				{
					"constant": true,
					"inputs": [],
					"name": "M87Token",
					"outputs": [
						{
							"internalType": "contract IERC20",
							"name": "",
							"type": "address"
						}
					],
					"payable": false,
					"stateMutability": "view",
					"type": "function"
				},
				{
					"constant": true,
					"inputs": [],
					"name": "ROOT_HISTORY_SIZE",
					"outputs": [
						{
							"internalType": "uint32",
							"name": "",
							"type": "uint32"
						}
					],
					"payable": false,
					"stateMutability": "view",
					"type": "function"
				},
				{
					"constant": true,
					"inputs": [],
					"name": "ZERO_VALUE",
					"outputs": [
						{
							"internalType": "uint256",
							"name": "",
							"type": "uint256"
						}
					],
					"payable": false,
					"stateMutability": "view",
					"type": "function"
				},
				{
					"constant": true,
					"inputs": [],
					"name": "accumulateM87",
					"outputs": [
						{
							"internalType": "uint256",
							"name": "",
							"type": "uint256"
						}
					],
					"payable": false,
					"stateMutability": "view",
					"type": "function"
				},
				{
					"constant": true,
					"inputs": [],
					"name": "anonymityFee",
					"outputs": [
						{
							"internalType": "uint256",
							"name": "",
							"type": "uint256"
						}
					],
					"payable": false,
					"stateMutability": "view",
					"type": "function"
				},
				{
					"constant": false,
					"inputs": [
						{
							"internalType": "address",
							"name": "_newOwner",
							"type": "address"
						}
					],
					"name": "changeMessierOwner",
					"outputs": [],
					"payable": false,
					"stateMutability": "nonpayable",
					"type": "function"
				},
				{
					"constant": false,
					"inputs": [
						{
							"internalType": "address",
							"name": "_newTreasury",
							"type": "address"
						}
					],
					"name": "changeTreasury",
					"outputs": [],
					"payable": false,
					"stateMutability": "nonpayable",
					"type": "function"
				},
				{
					"constant": true,
					"inputs": [],
					"name": "coinDenomination",
					"outputs": [
						{
							"internalType": "uint256",
							"name": "",
							"type": "uint256"
						}
					],
					"payable": false,
					"stateMutability": "view",
					"type": "function"
				},
				{
					"constant": true,
					"inputs": [],
					"name": "collectedFee",
					"outputs": [
						{
							"internalType": "uint256",
							"name": "",
							"type": "uint256"
						}
					],
					"payable": false,
					"stateMutability": "view",
					"type": "function"
				},
				{
					"constant": true,
					"inputs": [
						{
							"internalType": "bytes32",
							"name": "",
							"type": "bytes32"
						}
					],
					"name": "commitments",
					"outputs": [
						{
							"internalType": "bool",
							"name": "",
							"type": "bool"
						}
					],
					"payable": false,
					"stateMutability": "view",
					"type": "function"
				},
				{
					"constant": true,
					"inputs": [],
					"name": "curPoolIndex",
					"outputs": [
						{
							"internalType": "uint256",
							"name": "",
							"type": "uint256"
						}
					],
					"payable": false,
					"stateMutability": "view",
					"type": "function"
				},
				{
					"constant": true,
					"inputs": [],
					"name": "currentRootIndex",
					"outputs": [
						{
							"internalType": "uint32",
							"name": "",
							"type": "uint32"
						}
					],
					"payable": false,
					"stateMutability": "view",
					"type": "function"
				},
				{
					"constant": false,
					"inputs": [
						{
							"internalType": "bytes32",
							"name": "_commitment",
							"type": "bytes32"
						}
					],
					"name": "deposit",
					"outputs": [
						{
							"internalType": "bytes32",
							"name": "commitment",
							"type": "bytes32"
						},
						{
							"internalType": "uint32",
							"name": "insertedIndex",
							"type": "uint32"
						},
						{
							"internalType": "uint256",
							"name": "blocktime",
							"type": "uint256"
						},
						{
							"internalType": "uint256",
							"name": "M87Deno",
							"type": "uint256"
						},
						{
							"internalType": "uint256",
							"name": "fee",
							"type": "uint256"
						}
					],
					"payable": true,
					"stateMutability": "payable",
					"type": "function"
				},
				{
					"constant": true,
					"inputs": [],
					"name": "feeToCollectAmount",
					"outputs": [
						{
							"internalType": "uint256",
							"name": "",
							"type": "uint256"
						}
					],
					"payable": false,
					"stateMutability": "view",
					"type": "function"
				},
				{
					"constant": true,
					"inputs": [],
					"name": "feeToCollectPercent",
					"outputs": [
						{
							"internalType": "uint256",
							"name": "",
							"type": "uint256"
						}
					],
					"payable": false,
					"stateMutability": "view",
					"type": "function"
				},
				{
					"constant": true,
					"inputs": [
						{
							"internalType": "uint256",
							"name": "",
							"type": "uint256"
						}
					],
					"name": "filledSubtrees",
					"outputs": [
						{
							"internalType": "bytes32",
							"name": "",
							"type": "bytes32"
						}
					],
					"payable": false,
					"stateMutability": "view",
					"type": "function"
				},
				{
					"constant": false,
					"inputs": [],
					"name": "forceSwapAndShare",
					"outputs": [],
					"payable": false,
					"stateMutability": "nonpayable",
					"type": "function"
				},
				{
					"constant": true,
					"inputs": [],
					"name": "getAccumulateM87",
					"outputs": [
						{
							"internalType": "uint256",
							"name": "",
							"type": "uint256"
						}
					],
					"payable": false,
					"stateMutability": "view",
					"type": "function"
				},
				{
					"constant": true,
					"inputs": [],
					"name": "getLastRoot",
					"outputs": [
						{
							"internalType": "bytes32",
							"name": "",
							"type": "bytes32"
						}
					],
					"payable": false,
					"stateMutability": "view",
					"type": "function"
				},
				{
					"constant": true,
					"inputs": [
						{
							"internalType": "bytes32",
							"name": "_left",
							"type": "bytes32"
						},
						{
							"internalType": "bytes32",
							"name": "_right",
							"type": "bytes32"
						}
					],
					"name": "hashLeftRight",
					"outputs": [
						{
							"internalType": "bytes32",
							"name": "",
							"type": "bytes32"
						}
					],
					"payable": false,
					"stateMutability": "view",
					"type": "function"
				},
				{
					"constant": true,
					"inputs": [],
					"name": "initM87Denomination",
					"outputs": [
						{
							"internalType": "uint256",
							"name": "",
							"type": "uint256"
						}
					],
					"payable": false,
					"stateMutability": "view",
					"type": "function"
				},
				{
					"constant": true,
					"inputs": [
						{
							"internalType": "bytes32",
							"name": "_root",
							"type": "bytes32"
						}
					],
					"name": "isKnownRoot",
					"outputs": [
						{
							"internalType": "bool",
							"name": "",
							"type": "bool"
						}
					],
					"payable": false,
					"stateMutability": "view",
					"type": "function"
				},
				{
					"constant": true,
					"inputs": [],
					"name": "lastRewardBlock",
					"outputs": [
						{
							"internalType": "uint256",
							"name": "",
							"type": "uint256"
						}
					],
					"payable": false,
					"stateMutability": "view",
					"type": "function"
				},
				{
					"constant": true,
					"inputs": [],
					"name": "levels",
					"outputs": [
						{
							"internalType": "uint32",
							"name": "",
							"type": "uint32"
						}
					],
					"payable": false,
					"stateMutability": "view",
					"type": "function"
				},
				{
					"constant": true,
					"inputs": [],
					"name": "messier_owner",
					"outputs": [
						{
							"internalType": "address",
							"name": "",
							"type": "address"
						}
					],
					"payable": false,
					"stateMutability": "view",
					"type": "function"
				},
				{
					"constant": true,
					"inputs": [],
					"name": "nextIndex",
					"outputs": [
						{
							"internalType": "uint32",
							"name": "",
							"type": "uint32"
						}
					],
					"payable": false,
					"stateMutability": "view",
					"type": "function"
				},
				{
					"constant": true,
					"inputs": [],
					"name": "numOfShares",
					"outputs": [
						{
							"internalType": "uint256",
							"name": "",
							"type": "uint256"
						}
					],
					"payable": false,
					"stateMutability": "view",
					"type": "function"
				},
				{
					"constant": true,
					"inputs": [],
					"name": "overMinEth",
					"outputs": [
						{
							"internalType": "uint256",
							"name": "",
							"type": "uint256"
						}
					],
					"payable": false,
					"stateMutability": "view",
					"type": "function"
				},
				{
					"constant": true,
					"inputs": [
						{
							"internalType": "uint256",
							"name": "",
							"type": "uint256"
						}
					],
					"name": "poolList",
					"outputs": [
						{
							"internalType": "address",
							"name": "",
							"type": "address"
						}
					],
					"payable": false,
					"stateMutability": "view",
					"type": "function"
				},
				{
					"constant": true,
					"inputs": [
						{
							"internalType": "uint256",
							"name": "",
							"type": "uint256"
						}
					],
					"name": "rewardAmounts",
					"outputs": [
						{
							"internalType": "uint256",
							"name": "",
							"type": "uint256"
						}
					],
					"payable": false,
					"stateMutability": "view",
					"type": "function"
				},
				{
					"constant": true,
					"inputs": [],
					"name": "rewardPerBlock",
					"outputs": [
						{
							"internalType": "uint256",
							"name": "",
							"type": "uint256"
						}
					],
					"payable": false,
					"stateMutability": "view",
					"type": "function"
				},
				{
					"constant": true,
					"inputs": [
						{
							"internalType": "uint256",
							"name": "",
							"type": "uint256"
						}
					],
					"name": "roots",
					"outputs": [
						{
							"internalType": "bytes32",
							"name": "",
							"type": "bytes32"
						}
					],
					"payable": false,
					"stateMutability": "view",
					"type": "function"
				},
				{
					"constant": false,
					"inputs": [
						{
							"internalType": "uint256",
							"name": "_fee",
							"type": "uint256"
						}
					],
					"name": "setAnonymityFee",
					"outputs": [],
					"payable": false,
					"stateMutability": "nonpayable",
					"type": "function"
				},
				{
					"constant": false,
					"inputs": [
						{
							"internalType": "uint256",
							"name": "_duration",
							"type": "uint256"
						}
					],
					"name": "setDuration",
					"outputs": [],
					"payable": false,
					"stateMutability": "nonpayable",
					"type": "function"
				},
				{
					"constant": false,
					"inputs": [
						{
							"internalType": "uint256",
							"name": "_fee",
							"type": "uint256"
						}
					],
					"name": "setFeePercent",
					"outputs": [],
					"payable": false,
					"stateMutability": "nonpayable",
					"type": "function"
				},
				{
					"constant": false,
					"inputs": [
						{
							"internalType": "uint256",
							"name": "_overMinEth",
							"type": "uint256"
						}
					],
					"name": "setOverMinETH",
					"outputs": [],
					"payable": false,
					"stateMutability": "nonpayable",
					"type": "function"
				},
				{
					"constant": false,
					"inputs": [
						{
							"internalType": "uint256",
							"name": "burnFee",
							"type": "uint256"
						},
						{
							"internalType": "uint256",
							"name": "fee1",
							"type": "uint256"
						},
						{
							"internalType": "uint256",
							"name": "fee2",
							"type": "uint256"
						},
						{
							"internalType": "uint256",
							"name": "fee3",
							"type": "uint256"
						},
						{
							"internalType": "uint256",
							"name": "fee4",
							"type": "uint256"
						}
					],
					"name": "setPoolFee",
					"outputs": [],
					"payable": false,
					"stateMutability": "nonpayable",
					"type": "function"
				},
				{
					"constant": false,
					"inputs": [
						{
							"internalType": "address",
							"name": "addr1",
							"type": "address"
						},
						{
							"internalType": "address",
							"name": "addr2",
							"type": "address"
						},
						{
							"internalType": "address",
							"name": "addr3",
							"type": "address"
						},
						{
							"internalType": "address",
							"name": "addr4",
							"type": "address"
						}
					],
					"name": "setPoolList",
					"outputs": [],
					"payable": false,
					"stateMutability": "nonpayable",
					"type": "function"
				},
				{
					"constant": true,
					"inputs": [
						{
							"internalType": "uint256",
							"name": "",
							"type": "uint256"
						}
					],
					"name": "shareOfReward",
					"outputs": [
						{
							"internalType": "uint256",
							"name": "",
							"type": "uint256"
						}
					],
					"payable": false,
					"stateMutability": "view",
					"type": "function"
				},
				{
					"constant": true,
					"inputs": [],
					"name": "token",
					"outputs": [
						{
							"internalType": "contract IERC20",
							"name": "",
							"type": "address"
						}
					],
					"payable": false,
					"stateMutability": "view",
					"type": "function"
				},
				{
					"constant": true,
					"inputs": [],
					"name": "tokenDenomination",
					"outputs": [
						{
							"internalType": "uint256",
							"name": "",
							"type": "uint256"
						}
					],
					"payable": false,
					"stateMutability": "view",
					"type": "function"
				},
				{
					"constant": true,
					"inputs": [],
					"name": "treasury",
					"outputs": [
						{
							"internalType": "address",
							"name": "",
							"type": "address"
						}
					],
					"payable": false,
					"stateMutability": "view",
					"type": "function"
				},
				{
					"constant": true,
					"inputs": [],
					"name": "uniswapV2Router",
					"outputs": [
						{
							"internalType": "contract IUniswapV2Router02",
							"name": "",
							"type": "address"
						}
					],
					"payable": false,
					"stateMutability": "view",
					"type": "function"
				},
				{
					"constant": false,
					"inputs": [],
					"name": "updateBlockReward",
					"outputs": [],
					"payable": false,
					"stateMutability": "nonpayable",
					"type": "function"
				},
				{
					"constant": false,
					"inputs": [
						{
							"internalType": "address",
							"name": "_newToken",
							"type": "address"
						}
					],
					"name": "updateM87Token",
					"outputs": [],
					"payable": false,
					"stateMutability": "nonpayable",
					"type": "function"
				},
				{
					"constant": false,
					"inputs": [
						{
							"internalType": "address",
							"name": "_newVerifier",
							"type": "address"
						}
					],
					"name": "updateVerifier",
					"outputs": [],
					"payable": false,
					"stateMutability": "nonpayable",
					"type": "function"
				},
				{
					"constant": true,
					"inputs": [],
					"name": "verifier",
					"outputs": [
						{
							"internalType": "contract IVerifier",
							"name": "",
							"type": "address"
						}
					],
					"payable": false,
					"stateMutability": "view",
					"type": "function"
				},
				{
					"constant": true,
					"inputs": [],
					"name": "version",
					"outputs": [
						{
							"internalType": "string",
							"name": "",
							"type": "string"
						}
					],
					"payable": false,
					"stateMutability": "view",
					"type": "function"
				},
				{
					"constant": false,
					"inputs": [
						{
							"internalType": "bytes",
							"name": "_proof",
							"type": "bytes"
						},
						{
							"internalType": "bytes32",
							"name": "_root",
							"type": "bytes32"
						},
						{
							"internalType": "bytes32",
							"name": "_nullifierHash",
							"type": "bytes32"
						},
						{
							"internalType": "address payable",
							"name": "_recipient",
							"type": "address"
						},
						{
							"internalType": "address payable",
							"name": "_relayer",
							"type": "address"
						},
						{
							"internalType": "uint256",
							"name": "_relayerFee",
							"type": "uint256"
						},
						{
							"internalType": "uint256",
							"name": "_refund",
							"type": "uint256"
						}
					],
					"name": "withdraw",
					"outputs": [],
					"payable": true,
					"stateMutability": "payable",
					"type": "function"
				},
				{
					"constant": true,
					"inputs": [
						{
							"internalType": "uint256",
							"name": "",
							"type": "uint256"
						}
					],
					"name": "zeros",
					"outputs": [
						{
							"internalType": "bytes32",
							"name": "",
							"type": "bytes32"
						}
					],
					"payable": false,
					"stateMutability": "view",
					"type": "function"
				}
			],
			"devdoc": {
				"methods": {
					"deposit(bytes32)": {
						"details": "Deposit funds into the contract. The caller must send (for Coin) or approve (for ERC20) value equal to or `denomination` of this instance.",
						"params": {
							"_commitment": "the note commitment, which is PedersenHash(nullifier + secret)"
						}
					},
					"getLastRoot()": {
						"details": "Returns the last root"
					},
					"hashLeftRight(bytes32,bytes32)": {
						"details": "Hash 2 tree leaves, returns MiMC(_left, _right)"
					},
					"isKnownRoot(bytes32)": {
						"details": "Whether the root is present in the root history"
					}
				}
			},
			"evm": {
				"assembly": "    /* \"anonimity/0.1-ETH-Anonymity.sol\":13258:24374  contract MessierAnonymity is MerkleTreeWithHistory, ReentrancyGuard {... */\n  mstore(0x40, 0x80)\n    /* \"anonimity/0.1-ETH-Anonymity.sol\":8690:8691  0 */\n  0x00\n    /* \"anonimity/0.1-ETH-Anonymity.sol\":8657:8691  uint32 public currentRootIndex = 0 */\n  0x03\n  exp(0x0100, 0x00)\n  dup2\n  sload\n  dup2\n  0xffffffff\n  mul\n  not\n  and\n  swap1\n  dup4\n  0xffffffff\n  and\n  mul\n  or\n  swap1\n  sstore\n  pop\n    /* \"anonimity/0.1-ETH-Anonymity.sol\":8721:8722  0 */\n  0x00\n    /* \"anonimity/0.1-ETH-Anonymity.sol\":8695:8722  uint32 public nextIndex = 0 */\n  0x03\n  exp(0x0100, 0x04)\n  dup2\n  sload\n  dup2\n  0xffffffff\n  mul\n  not\n  and\n  swap1\n  dup4\n  0xffffffff\n  and\n  mul\n  or\n  swap1\n  sstore\n  pop\n    /* \"anonimity/0.1-ETH-Anonymity.sol\":13981:13982  0 */\n  0x00\n    /* \"anonimity/0.1-ETH-Anonymity.sol\":13951:13982  uint256 public anonymityFee = 0 */\n  0x76\n  sstore\n    /* \"anonimity/0.1-ETH-Anonymity.sol\":14013:14016  365 */\n  0x016d\n    /* \"anonimity/0.1-ETH-Anonymity.sol\":13986:14016  uint256 private duration = 365 */\n  0x77\n  sstore\n    /* \"anonimity/0.1-ETH-Anonymity.sol\":14077:14078  4 */\n  0x04\n    /* \"anonimity/0.1-ETH-Anonymity.sol\":14072:14074  60 */\n  0x3c\n    /* \"anonimity/0.1-ETH-Anonymity.sol\":14067:14069  24 */\n  0x18\n    /* \"anonimity/0.1-ETH-Anonymity.sol\":14056:14064  duration */\n  sload(0x77)\n    /* \"anonimity/0.1-ETH-Anonymity.sol\":14056:14069  duration * 24 */\n  mul\n    /* \"anonimity/0.1-ETH-Anonymity.sol\":14056:14074  duration * 24 * 60 */\n  mul\n    /* \"anonimity/0.1-ETH-Anonymity.sol\":14056:14078  duration * 24 * 60 * 4 */\n  mul\n    /* \"anonimity/0.1-ETH-Anonymity.sol\":14020:14078  uint256 private numDurationBlocks = duration * 24 * 60 * 4 */\n  0x78\n  sstore\n    /* \"anonimity/0.1-ETH-Anonymity.sol\":14082:14134  uint256[5] public shareOfReward = [30, 0, 30, 40, 0] */\n  mload(0x40)\n  dup1\n  0xa0\n  add\n  0x40\n  mstore\n  dup1\n    /* \"anonimity/0.1-ETH-Anonymity.sol\":14117:14119  30 */\n  0x1e\n    /* \"anonimity/0.1-ETH-Anonymity.sol\":14082:14134  uint256[5] public shareOfReward = [30, 0, 30, 40, 0] */\n  0xff\n  and\n  dup2\n  mstore\n  0x20\n  add\n    /* \"anonimity/0.1-ETH-Anonymity.sol\":14121:14122  0 */\n  0x00\n    /* \"anonimity/0.1-ETH-Anonymity.sol\":14082:14134  uint256[5] public shareOfReward = [30, 0, 30, 40, 0] */\n  0xff\n  and\n  dup2\n  mstore\n  0x20\n  add\n    /* \"anonimity/0.1-ETH-Anonymity.sol\":14124:14126  30 */\n  0x1e\n    /* \"anonimity/0.1-ETH-Anonymity.sol\":14082:14134  uint256[5] public shareOfReward = [30, 0, 30, 40, 0] */\n  0xff\n  and\n  dup2\n  mstore\n  0x20\n  add\n    /* \"anonimity/0.1-ETH-Anonymity.sol\":14128:14130  40 */\n  0x28\n    /* \"anonimity/0.1-ETH-Anonymity.sol\":14082:14134  uint256[5] public shareOfReward = [30, 0, 30, 40, 0] */\n  0xff\n  and\n  dup2\n  mstore\n  0x20\n  add\n    /* \"anonimity/0.1-ETH-Anonymity.sol\":14132:14133  0 */\n  0x00\n    /* \"anonimity/0.1-ETH-Anonymity.sol\":14082:14134  uint256[5] public shareOfReward = [30, 0, 30, 40, 0] */\n  0xff\n  and\n  dup2\n  mstore\n  pop\n  0x79\n  swap1\n  0x05\n  tag_1\n  swap3\n  swap2\n  swap1\n  tag_2\n  jump\t// in\ntag_1:\n  pop\n    /* \"anonimity/0.1-ETH-Anonymity.sol\":14271:14272  2 */\n  0x02\n    /* \"anonimity/0.1-ETH-Anonymity.sol\":14234:14272  uint256 public feeToCollectPercent = 2 */\n  0x87\n  sstore\n    /* \"anonimity/0.1-ETH-Anonymity.sol\":14341:14359  250000000000000000 */\n  0x03782dace9d90000\n    /* \"anonimity/0.1-ETH-Anonymity.sol\":14313:14359  uint256 public overMinEth = 250000000000000000 */\n  0x89\n  sstore\n    /* \"anonimity/0.1-ETH-Anonymity.sol\":14933:15706  constructor() public {... */\n  callvalue\n    /* \"--CODEGEN--\":8:17   */\n  dup1\n    /* \"--CODEGEN--\":5:7   */\n  iszero\n  tag_3\n  jumpi\n    /* \"--CODEGEN--\":30:31   */\n  0x00\n    /* \"--CODEGEN--\":27:28   */\n  dup1\n    /* \"--CODEGEN--\":20:32   */\n  revert\n    /* \"--CODEGEN--\":5:7   */\ntag_3:\n    /* \"anonimity/0.1-ETH-Anonymity.sol\":14933:15706  constructor() public {... */\n  pop\n    /* \"anonimity/0.1-ETH-Anonymity.sol\":8856:8858  20 */\n  0x14\n    /* \"anonimity/0.1-ETH-Anonymity.sol\":8847:8853  levels */\n  0x00\n  dup1\n    /* \"anonimity/0.1-ETH-Anonymity.sol\":8847:8858  levels = 20 */\n  0x0100\n  exp\n  dup2\n  sload\n  dup2\n  0xffffffff\n  mul\n  not\n  and\n  swap1\n  dup4\n  0xffffffff\n  and\n  mul\n  or\n  swap1\n  sstore\n  pop\n    /* \"anonimity/0.1-ETH-Anonymity.sol\":8865:8884  bytes32 currentZero */\n  0x00\n    /* \"anonimity/0.1-ETH-Anonymity.sol\":8315:8392  21663839004416932945382355908790599225266501822907911457504978515578255421292 */\n  0x2fe54c60d3acabf3343a35b6eba15db4821b340f76e741e2249685ed4899af6c\n    /* \"anonimity/0.1-ETH-Anonymity.sol\":8887:8906  bytes32(ZERO_VALUE) */\n  0x00\n  shl\n    /* \"anonimity/0.1-ETH-Anonymity.sol\":8865:8906  bytes32 currentZero = bytes32(ZERO_VALUE) */\n  swap1\n  pop\n    /* \"anonimity/0.1-ETH-Anonymity.sol\":8912:8917  zeros */\n  0x02\n    /* \"anonimity/0.1-ETH-Anonymity.sol\":8923:8934  currentZero */\n  dup2\n    /* \"anonimity/0.1-ETH-Anonymity.sol\":8912:8935  zeros.push(currentZero) */\n  swap1\n  dup1\n    /* \"--CODEGEN--\":39:40   */\n  0x01\n    /* \"--CODEGEN--\":33:36   */\n  dup2\n    /* \"--CODEGEN--\":27:37   */\n  sload\n    /* \"--CODEGEN--\":23:41   */\n  add\n    /* \"--CODEGEN--\":57:67   */\n  dup1\n    /* \"--CODEGEN--\":52:55   */\n  dup3\n    /* \"--CODEGEN--\":45:68   */\n  sstore\n    /* \"--CODEGEN--\":79:89   */\n  dup1\n    /* \"--CODEGEN--\":72:89   */\n  swap2\n  pop\n    /* \"--CODEGEN--\":0:93   */\n  pop\n    /* \"anonimity/0.1-ETH-Anonymity.sol\":8912:8935  zeros.push(currentZero) */\n  swap1\n  0x01\n  dup3\n  sub\n  swap1\n  0x00\n  mstore\n  keccak256(0x00, 0x20)\n  add\n  0x00\n  swap1\n  swap2\n  swap3\n  swap1\n  swap2\n  swap1\n  swap2\n  pop\n  sstore\n  pop\n    /* \"anonimity/0.1-ETH-Anonymity.sol\":8941:8955  filledSubtrees */\n  0x01\n    /* \"anonimity/0.1-ETH-Anonymity.sol\":8961:8972  currentZero */\n  dup2\n    /* \"anonimity/0.1-ETH-Anonymity.sol\":8941:8973  filledSubtrees.push(currentZero) */\n  swap1\n  dup1\n    /* \"--CODEGEN--\":39:40   */\n  0x01\n    /* \"--CODEGEN--\":33:36   */\n  dup2\n    /* \"--CODEGEN--\":27:37   */\n  sload\n    /* \"--CODEGEN--\":23:41   */\n  add\n    /* \"--CODEGEN--\":57:67   */\n  dup1\n    /* \"--CODEGEN--\":52:55   */\n  dup3\n    /* \"--CODEGEN--\":45:68   */\n  sstore\n    /* \"--CODEGEN--\":79:89   */\n  dup1\n    /* \"--CODEGEN--\":72:89   */\n  swap2\n  pop\n    /* \"--CODEGEN--\":0:93   */\n  pop\n    /* \"anonimity/0.1-ETH-Anonymity.sol\":8941:8973  filledSubtrees.push(currentZero) */\n  swap1\n  0x01\n  dup3\n  sub\n  swap1\n  0x00\n  mstore\n  keccak256(0x00, 0x20)\n  add\n  0x00\n  swap1\n  swap2\n  swap3\n  swap1\n  swap2\n  swap1\n  swap2\n  pop\n  sstore\n  pop\n    /* \"anonimity/0.1-ETH-Anonymity.sol\":8985:8993  uint32 i */\n  0x00\n    /* \"anonimity/0.1-ETH-Anonymity.sol\":8996:8997  1 */\n  0x01\n    /* \"anonimity/0.1-ETH-Anonymity.sol\":8985:8997  uint32 i = 1 */\n  swap1\n  pop\n    /* \"anonimity/0.1-ETH-Anonymity.sol\":8980:9155  for (uint32 i = 1; i < levels; i++) {... */\ntag_10:\n    /* \"anonimity/0.1-ETH-Anonymity.sol\":9003:9009  levels */\n  0x00\n  dup1\n  swap1\n  sload\n  swap1\n  0x0100\n  exp\n  swap1\n  div\n  0xffffffff\n  and\n    /* \"anonimity/0.1-ETH-Anonymity.sol\":8999:9009  i < levels */\n  0xffffffff\n  and\n    /* \"anonimity/0.1-ETH-Anonymity.sol\":8999:9000  i */\n  dup2\n    /* \"anonimity/0.1-ETH-Anonymity.sol\":8999:9009  i < levels */\n  0xffffffff\n  and\n  lt\n    /* \"anonimity/0.1-ETH-Anonymity.sol\":8980:9155  for (uint32 i = 1; i < levels; i++) {... */\n  iszero\n  tag_11\n  jumpi\n    /* \"anonimity/0.1-ETH-Anonymity.sol\":9038:9077  hashLeftRight(currentZero, currentZero) */\n  tag_13\n    /* \"anonimity/0.1-ETH-Anonymity.sol\":9052:9063  currentZero */\n  dup3\n    /* \"anonimity/0.1-ETH-Anonymity.sol\":9065:9076  currentZero */\n  dup4\n    /* \"anonimity/0.1-ETH-Anonymity.sol\":9038:9051  hashLeftRight */\n  shl(0x20, tag_14)\n    /* \"anonimity/0.1-ETH-Anonymity.sol\":9038:9077  hashLeftRight(currentZero, currentZero) */\n  0x20\n  shr\n  jump\t// in\ntag_13:\n    /* \"anonimity/0.1-ETH-Anonymity.sol\":9024:9077  currentZero = hashLeftRight(currentZero, currentZero) */\n  swap2\n  pop\n    /* \"anonimity/0.1-ETH-Anonymity.sol\":9085:9090  zeros */\n  0x02\n    /* \"anonimity/0.1-ETH-Anonymity.sol\":9096:9107  currentZero */\n  dup3\n    /* \"anonimity/0.1-ETH-Anonymity.sol\":9085:9108  zeros.push(currentZero) */\n  swap1\n  dup1\n    /* \"--CODEGEN--\":39:40   */\n  0x01\n    /* \"--CODEGEN--\":33:36   */\n  dup2\n    /* \"--CODEGEN--\":27:37   */\n  sload\n    /* \"--CODEGEN--\":23:41   */\n  add\n    /* \"--CODEGEN--\":57:67   */\n  dup1\n    /* \"--CODEGEN--\":52:55   */\n  dup3\n    /* \"--CODEGEN--\":45:68   */\n  sstore\n    /* \"--CODEGEN--\":79:89   */\n  dup1\n    /* \"--CODEGEN--\":72:89   */\n  swap2\n  pop\n    /* \"--CODEGEN--\":0:93   */\n  pop\n    /* \"anonimity/0.1-ETH-Anonymity.sol\":9085:9108  zeros.push(currentZero) */\n  swap1\n  0x01\n  dup3\n  sub\n  swap1\n  0x00\n  mstore\n  keccak256(0x00, 0x20)\n  add\n  0x00\n  swap1\n  swap2\n  swap3\n  swap1\n  swap2\n  swap1\n  swap2\n  pop\n  sstore\n  pop\n    /* \"anonimity/0.1-ETH-Anonymity.sol\":9116:9130  filledSubtrees */\n  0x01\n    /* \"anonimity/0.1-ETH-Anonymity.sol\":9136:9147  currentZero */\n  dup3\n    /* \"anonimity/0.1-ETH-Anonymity.sol\":9116:9148  filledSubtrees.push(currentZero) */\n  swap1\n  dup1\n    /* \"--CODEGEN--\":39:40   */\n  0x01\n    /* \"--CODEGEN--\":33:36   */\n  dup2\n    /* \"--CODEGEN--\":27:37   */\n  sload\n    /* \"--CODEGEN--\":23:41   */\n  add\n    /* \"--CODEGEN--\":57:67   */\n  dup1\n    /* \"--CODEGEN--\":52:55   */\n  dup3\n    /* \"--CODEGEN--\":45:68   */\n  sstore\n    /* \"--CODEGEN--\":79:89   */\n  dup1\n    /* \"--CODEGEN--\":72:89   */\n  swap2\n  pop\n    /* \"--CODEGEN--\":0:93   */\n  pop\n    /* \"anonimity/0.1-ETH-Anonymity.sol\":9116:9148  filledSubtrees.push(currentZero) */\n  swap1\n  0x01\n  dup3\n  sub\n  swap1\n  0x00\n  mstore\n  keccak256(0x00, 0x20)\n  add\n  0x00\n  swap1\n  swap2\n  swap3\n  swap1\n  swap2\n  swap1\n  swap2\n  pop\n  sstore\n  pop\n    /* \"anonimity/0.1-ETH-Anonymity.sol\":9011:9014  i++ */\n  dup1\n  dup1\n  0x01\n  add\n  swap2\n  pop\n  pop\n    /* \"anonimity/0.1-ETH-Anonymity.sol\":8980:9155  for (uint32 i = 1; i < levels; i++) {... */\n  jump(tag_10)\ntag_11:\n  pop\n    /* \"anonimity/0.1-ETH-Anonymity.sol\":9172:9211  hashLeftRight(currentZero, currentZero) */\n  tag_17\n    /* \"anonimity/0.1-ETH-Anonymity.sol\":9186:9197  currentZero */\n  dup2\n    /* \"anonimity/0.1-ETH-Anonymity.sol\":9199:9210  currentZero */\n  dup3\n    /* \"anonimity/0.1-ETH-Anonymity.sol\":9172:9185  hashLeftRight */\n  shl(0x20, tag_14)\n    /* \"anonimity/0.1-ETH-Anonymity.sol\":9172:9211  hashLeftRight(currentZero, currentZero) */\n  0x20\n  shr\n  jump\t// in\ntag_17:\n    /* \"anonimity/0.1-ETH-Anonymity.sol\":9161:9166  roots */\n  0x04\n    /* \"anonimity/0.1-ETH-Anonymity.sol\":9167:9168  0 */\n  0x00\n    /* \"anonimity/0.1-ETH-Anonymity.sol\":9161:9169  roots[0] */\n  0x64\n  dup2\n  lt\n  tag_18\n  jumpi\n  invalid\ntag_18:\n  add\n    /* \"anonimity/0.1-ETH-Anonymity.sol\":9161:9211  roots[0] = hashLeftRight(currentZero, currentZero) */\n  dup2\n  swap1\n  sstore\n  pop\n    /* \"anonimity/0.1-ETH-Anonymity.sol\":8820:9216  constructor() public {... */\n  pop\n    /* \"anonimity/0.1-ETH-Anonymity.sol\":12287:12288  1 */\n  0x01\n    /* \"anonimity/0.1-ETH-Anonymity.sol\":12271:12284  _guardCounter */\n  0x68\n    /* \"anonimity/0.1-ETH-Anonymity.sol\":12271:12288  _guardCounter = 1 */\n  dup2\n  swap1\n  sstore\n  pop\n    /* \"anonimity/0.1-ETH-Anonymity.sol\":15044:15054  msg.sender */\n  caller\n    /* \"anonimity/0.1-ETH-Anonymity.sol\":15033:15041  treasury */\n  0x70\n  0x00\n    /* \"anonimity/0.1-ETH-Anonymity.sol\":15033:15054  treasury = msg.sender */\n  0x0100\n  exp\n  dup2\n  sload\n  dup2\n  0xffffffffffffffffffffffffffffffffffffffff\n  mul\n  not\n  and\n  swap1\n  dup4\n  0xffffffffffffffffffffffffffffffffffffffff\n  and\n  mul\n  or\n  swap1\n  sstore\n  pop\n    /* \"anonimity/0.1-ETH-Anonymity.sol\":15213:15223  msg.sender */\n  caller\n    /* \"anonimity/0.1-ETH-Anonymity.sol\":15197:15210  messier_owner */\n  0x71\n  0x00\n    /* \"anonimity/0.1-ETH-Anonymity.sol\":15197:15223  messier_owner = msg.sender */\n  0x0100\n  exp\n  dup2\n  sload\n  dup2\n  0xffffffffffffffffffffffffffffffffffffffff\n  mul\n  not\n  and\n  swap1\n  dup4\n  0xffffffffffffffffffffffffffffffffffffffff\n  and\n  mul\n  or\n  swap1\n  sstore\n  pop\n    /* \"anonimity/0.1-ETH-Anonymity.sol\":15247:15259  block.number */\n  number\n    /* \"anonimity/0.1-ETH-Anonymity.sol\":15229:15244  lastRewardBlock */\n  0x73\n    /* \"anonimity/0.1-ETH-Anonymity.sol\":15229:15259  lastRewardBlock = block.number */\n  dup2\n  swap1\n  sstore\n  pop\n    /* \"anonimity/0.1-ETH-Anonymity.sol\":15287:15288  0 */\n  0x00\n    /* \"anonimity/0.1-ETH-Anonymity.sol\":15265:15284  initM87Denomination */\n  0x6b\n    /* \"anonimity/0.1-ETH-Anonymity.sol\":15265:15288  initM87Denomination = 0 */\n  dup2\n  swap1\n  sstore\n  pop\n    /* \"anonimity/0.1-ETH-Anonymity.sol\":15313:15331  100000000000000000 */\n  0x016345785d8a0000\n    /* \"anonimity/0.1-ETH-Anonymity.sol\":15294:15310  coinDenomination */\n  0x6a\n    /* \"anonimity/0.1-ETH-Anonymity.sol\":15294:15331  coinDenomination = 100000000000000000 */\n  dup2\n  swap1\n  sstore\n  pop\n    /* \"anonimity/0.1-ETH-Anonymity.sol\":15357:15358  0 */\n  0x00\n    /* \"anonimity/0.1-ETH-Anonymity.sol\":15337:15354  tokenDenomination */\n  0x69\n    /* \"anonimity/0.1-ETH-Anonymity.sol\":15337:15358  tokenDenomination = 0 */\n  dup2\n  swap1\n  sstore\n  pop\n    /* \"anonimity/0.1-ETH-Anonymity.sol\":15586:15590  1000 */\n  0x03e8\n    /* \"anonimity/0.1-ETH-Anonymity.sol\":15556:15575  feeToCollectPercent */\n  sload(0x87)\n    /* \"anonimity/0.1-ETH-Anonymity.sol\":15537:15553  coinDenomination */\n  sload(0x6a)\n    /* \"anonimity/0.1-ETH-Anonymity.sol\":15537:15575  coinDenomination * feeToCollectPercent */\n  mul\n    /* \"anonimity/0.1-ETH-Anonymity.sol\":15537:15591  coinDenomination * feeToCollectPercent / uint256(1000) */\n  dup2\n  tag_22\n  jumpi\n  invalid\ntag_22:\n  div\n    /* \"anonimity/0.1-ETH-Anonymity.sol\":15516:15534  feeToCollectAmount */\n  0x88\n    /* \"anonimity/0.1-ETH-Anonymity.sol\":15516:15591  feeToCollectAmount = coinDenomination * feeToCollectPercent / uint256(1000) */\n  dup2\n  swap1\n  sstore\n  pop\n    /* \"anonimity/0.1-ETH-Anonymity.sol\":15597:15656  poolList = [address(0), address(0), address(0), address(0)] */\n  mload(0x40)\n  dup1\n  0x80\n  add\n  0x40\n  mstore\n  dup1\n    /* \"anonimity/0.1-ETH-Anonymity.sol\":15617:15618  0 */\n  0x00\n    /* \"anonimity/0.1-ETH-Anonymity.sol\":15597:15656  poolList = [address(0), address(0), address(0), address(0)] */\n  0xffffffffffffffffffffffffffffffffffffffff\n  and\n  0xffffffffffffffffffffffffffffffffffffffff\n  and\n  dup2\n  mstore\n  0x20\n  add\n    /* \"anonimity/0.1-ETH-Anonymity.sol\":15629:15630  0 */\n  0x00\n    /* \"anonimity/0.1-ETH-Anonymity.sol\":15597:15656  poolList = [address(0), address(0), address(0), address(0)] */\n  0xffffffffffffffffffffffffffffffffffffffff\n  and\n  0xffffffffffffffffffffffffffffffffffffffff\n  and\n  dup2\n  mstore\n  0x20\n  add\n    /* \"anonimity/0.1-ETH-Anonymity.sol\":15641:15642  0 */\n  0x00\n    /* \"anonimity/0.1-ETH-Anonymity.sol\":15597:15656  poolList = [address(0), address(0), address(0), address(0)] */\n  0xffffffffffffffffffffffffffffffffffffffff\n  and\n  0xffffffffffffffffffffffffffffffffffffffff\n  and\n  dup2\n  mstore\n  0x20\n  add\n    /* \"anonimity/0.1-ETH-Anonymity.sol\":15653:15654  0 */\n  0x00\n    /* \"anonimity/0.1-ETH-Anonymity.sol\":15597:15656  poolList = [address(0), address(0), address(0), address(0)] */\n  0xffffffffffffffffffffffffffffffffffffffff\n  and\n  0xffffffffffffffffffffffffffffffffffffffff\n  and\n  dup2\n  mstore\n  pop\n    /* \"anonimity/0.1-ETH-Anonymity.sol\":15597:15605  poolList */\n  0x7e\n    /* \"anonimity/0.1-ETH-Anonymity.sol\":15597:15656  poolList = [address(0), address(0), address(0), address(0)] */\n  swap1\n  0x04\n  tag_23\n  swap3\n  swap2\n  swap1\n  tag_24\n  jump\t// in\ntag_23:\n  pop\n    /* \"anonimity/0.1-ETH-Anonymity.sol\":13258:24374  contract MessierAnonymity is MerkleTreeWithHistory, ReentrancyGuard {... */\n  jump(tag_25)\n    /* \"anonimity/0.1-ETH-Anonymity.sol\":9288:9733  function hashLeftRight(bytes32 _left, bytes32 _right) public pure returns (bytes32) {... */\ntag_14:\n    /* \"anonimity/0.1-ETH-Anonymity.sol\":9363:9370  bytes32 */\n  0x00\n    /* \"anonimity/0.1-ETH-Anonymity.sol\":8197:8274  21888242871839275222246405745257275088548364400416034343698204186575808495617 */\n  0x30644e72e131a029b85045b68181585d2833e84879b9709143e1f593f0000001\n    /* \"anonimity/0.1-ETH-Anonymity.sol\":9394:9399  _left */\n  dup4\n    /* \"anonimity/0.1-ETH-Anonymity.sol\":9386:9400  uint256(_left) */\n  0x00\n  shr\n    /* \"anonimity/0.1-ETH-Anonymity.sol\":9386:9413  uint256(_left) < FIELD_SIZE */\n  lt\n    /* \"anonimity/0.1-ETH-Anonymity.sol\":9378:9450  require(uint256(_left) < FIELD_SIZE, \"_left should be inside the field\") */\n  tag_27\n  jumpi\n  mload(0x40)\n  0x08c379a000000000000000000000000000000000000000000000000000000000\n  dup2\n  mstore\n  0x04\n  add\n  dup1\n  dup1\n  0x20\n  add\n  dup3\n  dup2\n  sub\n  dup3\n  mstore\n  0x20\n  dup2\n  mstore\n  0x20\n  add\n  dup1\n  0x5f6c6566742073686f756c6420626520696e7369646520746865206669656c64\n  dup2\n  mstore\n  pop\n  0x20\n  add\n  swap2\n  pop\n  pop\n  mload(0x40)\n  dup1\n  swap2\n  sub\n  swap1\n  revert\ntag_27:\n    /* \"anonimity/0.1-ETH-Anonymity.sol\":8197:8274  21888242871839275222246405745257275088548364400416034343698204186575808495617 */\n  0x30644e72e131a029b85045b68181585d2833e84879b9709143e1f593f0000001\n    /* \"anonimity/0.1-ETH-Anonymity.sol\":9472:9478  _right */\n  dup3\n    /* \"anonimity/0.1-ETH-Anonymity.sol\":9464:9479  uint256(_right) */\n  0x00\n  shr\n    /* \"anonimity/0.1-ETH-Anonymity.sol\":9464:9492  uint256(_right) < FIELD_SIZE */\n  lt\n    /* \"anonimity/0.1-ETH-Anonymity.sol\":9456:9530  require(uint256(_right) < FIELD_SIZE, \"_right should be inside the field\") */\n  tag_28\n  jumpi\n  mload(0x40)\n  0x08c379a000000000000000000000000000000000000000000000000000000000\n  dup2\n  mstore\n  0x04\n  add\n  dup1\n  dup1\n  0x20\n  add\n  dup3\n  dup2\n  sub\n  dup3\n  mstore\n  0x21\n  dup2\n  mstore\n  0x20\n  add\n  dup1\n  data_6542fa7ce511fbc255ce93f94c5fe79a03559888b6c0d6b4bd92b57ef65f3b4e\n  0x21\n  swap2\n  codecopy\n  0x40\n  add\n  swap2\n  pop\n  pop\n  mload(0x40)\n  dup1\n  swap2\n  sub\n  swap1\n  revert\ntag_28:\n    /* \"anonimity/0.1-ETH-Anonymity.sol\":9536:9545  uint256 R */\n  0x00\n    /* \"anonimity/0.1-ETH-Anonymity.sol\":9556:9561  _left */\n  dup4\n    /* \"anonimity/0.1-ETH-Anonymity.sol\":9548:9562  uint256(_left) */\n  0x00\n  shr\n    /* \"anonimity/0.1-ETH-Anonymity.sol\":9536:9562  uint256 R = uint256(_left) */\n  swap1\n  pop\n    /* \"anonimity/0.1-ETH-Anonymity.sol\":9568:9577  uint256 C */\n  0x00\n    /* \"anonimity/0.1-ETH-Anonymity.sol\":9580:9581  0 */\n  dup1\n    /* \"anonimity/0.1-ETH-Anonymity.sol\":9568:9581  uint256 C = 0 */\n  swap1\n  pop\n    /* \"anonimity/0.1-ETH-Anonymity.sol\":9596:9602  Hasher */\n  linkerSymbol(\"de0ded22c4fea8da78ac8a9fb8fbda03664ae40d47b41fbd8088c9f214be0991\")\n    /* \"anonimity/0.1-ETH-Anonymity.sol\":9596:9613  Hasher.MiMCSponge */\n  0xf47d33b5\n    /* \"anonimity/0.1-ETH-Anonymity.sol\":9614:9615  R */\n  dup4\n    /* \"anonimity/0.1-ETH-Anonymity.sol\":9617:9618  C */\n  dup4\n    /* \"anonimity/0.1-ETH-Anonymity.sol\":9596:9619  Hasher.MiMCSponge(R, C) */\n  mload(0x40)\n  dup4\n  0xffffffff\n  and\n  0xe0\n  shl\n  dup2\n  mstore\n  0x04\n  add\n  dup1\n  dup4\n  dup2\n  mstore\n  0x20\n  add\n  dup3\n  dup2\n  mstore\n  0x20\n  add\n  swap3\n  pop\n  pop\n  pop\n  0x40\n  dup1\n  mload\n  dup1\n  dup4\n  sub\n  dup2\n  dup7\n  dup1\n  extcodesize\n  iszero\n    /* \"--CODEGEN--\":8:17   */\n  dup1\n    /* \"--CODEGEN--\":5:7   */\n  iszero\n  tag_29\n  jumpi\n    /* \"--CODEGEN--\":30:31   */\n  0x00\n    /* \"--CODEGEN--\":27:28   */\n  dup1\n    /* \"--CODEGEN--\":20:32   */\n  revert\n    /* \"--CODEGEN--\":5:7   */\ntag_29:\n    /* \"anonimity/0.1-ETH-Anonymity.sol\":9596:9619  Hasher.MiMCSponge(R, C) */\n  pop\n  gas\n  delegatecall\n  iszero\n    /* \"--CODEGEN--\":8:17   */\n  dup1\n    /* \"--CODEGEN--\":5:7   */\n  iszero\n  tag_30\n  jumpi\n    /* \"--CODEGEN--\":45:61   */\n  returndatasize\n    /* \"--CODEGEN--\":42:43   */\n  0x00\n    /* \"--CODEGEN--\":39:40   */\n  dup1\n    /* \"--CODEGEN--\":24:62   */\n  returndatacopy\n    /* \"--CODEGEN--\":77:93   */\n  returndatasize\n    /* \"--CODEGEN--\":74:75   */\n  0x00\n    /* \"--CODEGEN--\":67:94   */\n  revert\n    /* \"--CODEGEN--\":5:7   */\ntag_30:\n    /* \"anonimity/0.1-ETH-Anonymity.sol\":9596:9619  Hasher.MiMCSponge(R, C) */\n  pop\n  pop\n  pop\n  pop\n  mload(0x40)\n  returndatasize\n    /* \"--CODEGEN--\":13:15   */\n  0x40\n    /* \"--CODEGEN--\":8:11   */\n  dup2\n    /* \"--CODEGEN--\":5:16   */\n  lt\n    /* \"--CODEGEN--\":2:4   */\n  iszero\n  tag_31\n  jumpi\n    /* \"--CODEGEN--\":29:30   */\n  0x00\n    /* \"--CODEGEN--\":26:27   */\n  dup1\n    /* \"--CODEGEN--\":19:31   */\n  revert\n    /* \"--CODEGEN--\":2:4   */\ntag_31:\n    /* \"anonimity/0.1-ETH-Anonymity.sol\":9596:9619  Hasher.MiMCSponge(R, C) */\n  dup2\n  add\n  swap1\n  dup1\n  dup1\n  mload\n  swap1\n  0x20\n  add\n  swap1\n  swap3\n  swap2\n  swap1\n  dup1\n  mload\n  swap1\n  0x20\n  add\n  swap1\n  swap3\n  swap2\n  swap1\n  pop\n  pop\n  pop\n    /* \"anonimity/0.1-ETH-Anonymity.sol\":9587:9619  (R, C) = Hasher.MiMCSponge(R, C) */\n  dup1\n  swap3\n  pop\n  dup2\n  swap4\n  pop\n  pop\n  pop\n    /* \"anonimity/0.1-ETH-Anonymity.sol\":8197:8274  21888242871839275222246405745257275088548364400416034343698204186575808495617 */\n  0x30644e72e131a029b85045b68181585d2833e84879b9709143e1f593f0000001\n    /* \"anonimity/0.1-ETH-Anonymity.sol\":9629:9667  addmod(R, uint256(_right), FIELD_SIZE) */\n  dup1\n  tag_32\n  jumpi\n  invalid\ntag_32:\n    /* \"anonimity/0.1-ETH-Anonymity.sol\":9647:9653  _right */\n  dup5\n    /* \"anonimity/0.1-ETH-Anonymity.sol\":9639:9654  uint256(_right) */\n  0x00\n  shr\n    /* \"anonimity/0.1-ETH-Anonymity.sol\":9636:9637  R */\n  dup4\n    /* \"anonimity/0.1-ETH-Anonymity.sol\":9629:9667  addmod(R, uint256(_right), FIELD_SIZE) */\n  addmod\n    /* \"anonimity/0.1-ETH-Anonymity.sol\":9625:9667  R = addmod(R, uint256(_right), FIELD_SIZE) */\n  swap2\n  pop\n    /* \"anonimity/0.1-ETH-Anonymity.sol\":9682:9688  Hasher */\n  linkerSymbol(\"de0ded22c4fea8da78ac8a9fb8fbda03664ae40d47b41fbd8088c9f214be0991\")\n    /* \"anonimity/0.1-ETH-Anonymity.sol\":9682:9699  Hasher.MiMCSponge */\n  0xf47d33b5\n    /* \"anonimity/0.1-ETH-Anonymity.sol\":9700:9701  R */\n  dup4\n    /* \"anonimity/0.1-ETH-Anonymity.sol\":9703:9704  C */\n  dup4\n    /* \"anonimity/0.1-ETH-Anonymity.sol\":9682:9705  Hasher.MiMCSponge(R, C) */\n  mload(0x40)\n  dup4\n  0xffffffff\n  and\n  0xe0\n  shl\n  dup2\n  mstore\n  0x04\n  add\n  dup1\n  dup4\n  dup2\n  mstore\n  0x20\n  add\n  dup3\n  dup2\n  mstore\n  0x20\n  add\n  swap3\n  pop\n  pop\n  pop\n  0x40\n  dup1\n  mload\n  dup1\n  dup4\n  sub\n  dup2\n  dup7\n  dup1\n  extcodesize\n  iszero\n    /* \"--CODEGEN--\":8:17   */\n  dup1\n    /* \"--CODEGEN--\":5:7   */\n  iszero\n  tag_33\n  jumpi\n    /* \"--CODEGEN--\":30:31   */\n  0x00\n    /* \"--CODEGEN--\":27:28   */\n  dup1\n    /* \"--CODEGEN--\":20:32   */\n  revert\n    /* \"--CODEGEN--\":5:7   */\ntag_33:\n    /* \"anonimity/0.1-ETH-Anonymity.sol\":9682:9705  Hasher.MiMCSponge(R, C) */\n  pop\n  gas\n  delegatecall\n  iszero\n    /* \"--CODEGEN--\":8:17   */\n  dup1\n    /* \"--CODEGEN--\":5:7   */\n  iszero\n  tag_34\n  jumpi\n    /* \"--CODEGEN--\":45:61   */\n  returndatasize\n    /* \"--CODEGEN--\":42:43   */\n  0x00\n    /* \"--CODEGEN--\":39:40   */\n  dup1\n    /* \"--CODEGEN--\":24:62   */\n  returndatacopy\n    /* \"--CODEGEN--\":77:93   */\n  returndatasize\n    /* \"--CODEGEN--\":74:75   */\n  0x00\n    /* \"--CODEGEN--\":67:94   */\n  revert\n    /* \"--CODEGEN--\":5:7   */\ntag_34:\n    /* \"anonimity/0.1-ETH-Anonymity.sol\":9682:9705  Hasher.MiMCSponge(R, C) */\n  pop\n  pop\n  pop\n  pop\n  mload(0x40)\n  returndatasize\n    /* \"--CODEGEN--\":13:15   */\n  0x40\n    /* \"--CODEGEN--\":8:11   */\n  dup2\n    /* \"--CODEGEN--\":5:16   */\n  lt\n    /* \"--CODEGEN--\":2:4   */\n  iszero\n  tag_35\n  jumpi\n    /* \"--CODEGEN--\":29:30   */\n  0x00\n    /* \"--CODEGEN--\":26:27   */\n  dup1\n    /* \"--CODEGEN--\":19:31   */\n  revert\n    /* \"--CODEGEN--\":2:4   */\ntag_35:\n    /* \"anonimity/0.1-ETH-Anonymity.sol\":9682:9705  Hasher.MiMCSponge(R, C) */\n  dup2\n  add\n  swap1\n  dup1\n  dup1\n  mload\n  swap1\n  0x20\n  add\n  swap1\n  swap3\n  swap2\n  swap1\n  dup1\n  mload\n  swap1\n  0x20\n  add\n  swap1\n  swap3\n  swap2\n  swap1\n  pop\n  pop\n  pop\n    /* \"anonimity/0.1-ETH-Anonymity.sol\":9673:9705  (R, C) = Hasher.MiMCSponge(R, C) */\n  dup1\n  swap3\n  pop\n  dup2\n  swap4\n  pop\n  pop\n  pop\n    /* \"anonimity/0.1-ETH-Anonymity.sol\":9726:9727  R */\n  dup2\n    /* \"anonimity/0.1-ETH-Anonymity.sol\":9718:9728  bytes32(R) */\n  0x00\n  shl\n    /* \"anonimity/0.1-ETH-Anonymity.sol\":9711:9728  return bytes32(R) */\n  swap3\n  pop\n  pop\n  pop\n    /* \"anonimity/0.1-ETH-Anonymity.sol\":9288:9733  function hashLeftRight(bytes32 _left, bytes32 _right) public pure returns (bytes32) {... */\n  swap3\n  swap2\n  pop\n  pop\n  jump\t// out\n    /* \"anonimity/0.1-ETH-Anonymity.sol\":13258:24374  contract MessierAnonymity is MerkleTreeWithHistory, ReentrancyGuard {... */\ntag_2:\n  dup3\n  0x05\n  dup2\n  add\n  swap3\n  dup3\n  iszero\n  tag_36\n  jumpi\n  swap2\n  0x20\n  mul\n  dup3\n  add\ntag_37:\n  dup3\n  dup2\n  gt\n  iszero\n  tag_38\n  jumpi\n  dup3\n  mload\n  dup3\n  swap1\n  0xff\n  and\n  swap1\n  sstore\n  swap2\n  0x20\n  add\n  swap2\n  swap1\n  0x01\n  add\n  swap1\n  jump(tag_37)\ntag_38:\ntag_36:\n  pop\n  swap1\n  pop\n  tag_39\n  swap2\n  swap1\n  tag_40\n  jump\t// in\ntag_39:\n  pop\n  swap1\n  jump\t// out\ntag_24:\n  dup3\n  0x04\n  dup2\n  add\n  swap3\n  dup3\n  iszero\n  tag_41\n  jumpi\n  swap2\n  0x20\n  mul\n  dup3\n  add\ntag_42:\n  dup3\n  dup2\n  gt\n  iszero\n  tag_43\n  jumpi\n  dup3\n  mload\n  dup3\n  exp(0x0100, 0x00)\n  dup2\n  sload\n  dup2\n  0xffffffffffffffffffffffffffffffffffffffff\n  mul\n  not\n  and\n  swap1\n  dup4\n  0xffffffffffffffffffffffffffffffffffffffff\n  and\n  mul\n  or\n  swap1\n  sstore\n  pop\n  swap2\n  0x20\n  add\n  swap2\n  swap1\n  0x01\n  add\n  swap1\n  jump(tag_42)\ntag_43:\ntag_41:\n  pop\n  swap1\n  pop\n  tag_44\n  swap2\n  swap1\n  tag_45\n  jump\t// in\ntag_44:\n  pop\n  swap1\n  jump\t// out\ntag_40:\n  tag_46\n  swap2\n  swap1\ntag_47:\n  dup1\n  dup3\n  gt\n  iszero\n  tag_48\n  jumpi\n  0x00\n  dup2\n  0x00\n  swap1\n  sstore\n  pop\n  0x01\n  add\n  jump(tag_47)\ntag_48:\n  pop\n  swap1\n  jump\ntag_46:\n  swap1\n  jump\t// out\ntag_45:\n  tag_49\n  swap2\n  swap1\ntag_50:\n  dup1\n  dup3\n  gt\n  iszero\n  tag_51\n  jumpi\n  0x00\n  dup2\n  dup2\n  0x0100\n  exp\n  dup2\n  sload\n  swap1\n  0xffffffffffffffffffffffffffffffffffffffff\n  mul\n  not\n  and\n  swap1\n  sstore\n  pop\n  0x01\n  add\n  jump(tag_50)\ntag_51:\n  pop\n  swap1\n  jump\ntag_49:\n  swap1\n  jump\t// out\ntag_25:\n  dataSize(sub_0)\n  dup1\n  dataOffset(sub_0)\n  0x00\n  codecopy\n  0x00\n  return\nstop\ndata_6542fa7ce511fbc255ce93f94c5fe79a03559888b6c0d6b4bd92b57ef65f3b4e 5f72696768742073686f756c6420626520696e7369646520746865206669656c64\n\nsub_0: assembly {\n        /* \"anonimity/0.1-ETH-Anonymity.sol\":13258:24374  contract MessierAnonymity is MerkleTreeWithHistory, ReentrancyGuard {... */\n      mstore(0x40, 0x80)\n      jumpi(tag_1, lt(calldatasize, 0x04))\n      shr(0xe0, calldataload(0x00))\n      dup1\n      0x8d949d4b\n      gt\n      tag_54\n      jumpi\n      dup1\n      0xca093047\n      gt\n      tag_55\n      jumpi\n      dup1\n      0xe8295588\n      gt\n      tag_56\n      jumpi\n      dup1\n      0xf178e47c\n      gt\n      tag_57\n      jumpi\n      dup1\n      0xf178e47c\n      eq\n      tag_50\n      jumpi\n      dup1\n      0xf6be71d1\n      eq\n      tag_51\n      jumpi\n      dup1\n      0xfc0c546a\n      eq\n      tag_52\n      jumpi\n      dup1\n      0xfc7e9c6f\n      eq\n      tag_53\n      jumpi\n      jump(tag_1)\n    tag_57:\n      dup1\n      0xe8295588\n      eq\n      tag_47\n      jumpi\n      dup1\n      0xec732959\n      eq\n      tag_48\n      jumpi\n      dup1\n      0xecaa6503\n      eq\n      tag_49\n      jumpi\n      jump(tag_1)\n    tag_56:\n      dup1\n      0xca093047\n      eq\n      tag_41\n      jumpi\n      dup1\n      0xca13d4e6\n      eq\n      tag_42\n      jumpi\n      dup1\n      0xcd87a3b4\n      eq\n      tag_43\n      jumpi\n      dup1\n      0xd27c1824\n      eq\n      tag_44\n      jumpi\n      dup1\n      0xd3129be4\n      eq\n      tag_45\n      jumpi\n      dup1\n      0xe811f50a\n      eq\n      tag_46\n      jumpi\n      jump(tag_1)\n    tag_55:\n      dup1\n      0xa9f8d181\n      gt\n      tag_58\n      jumpi\n      dup1\n      0xb214faa5\n      gt\n      tag_59\n      jumpi\n      dup1\n      0xb214faa5\n      eq\n      tag_37\n      jumpi\n      dup1\n      0xb4a61faa\n      eq\n      tag_38\n      jumpi\n      dup1\n      0xba70f757\n      eq\n      tag_39\n      jumpi\n      dup1\n      0xc2b40ae4\n      eq\n      tag_40\n      jumpi\n      jump(tag_1)\n    tag_59:\n      dup1\n      0xa9f8d181\n      eq\n      tag_34\n      jumpi\n      dup1\n      0xaf324076\n      eq\n      tag_35\n      jumpi\n      dup1\n      0xb14f2a39\n      eq\n      tag_36\n      jumpi\n      jump(tag_1)\n    tag_58:\n      dup1\n      0x8d949d4b\n      eq\n      tag_28\n      jumpi\n      dup1\n      0x8daac0df\n      eq\n      tag_29\n      jumpi\n      dup1\n      0x90eeb02b\n      eq\n      tag_30\n      jumpi\n      dup1\n      0x9709a6fd\n      eq\n      tag_31\n      jumpi\n      dup1\n      0x97fc007c\n      eq\n      tag_32\n      jumpi\n      dup1\n      0x997318ec\n      eq\n      tag_33\n      jumpi\n      jump(tag_1)\n    tag_54:\n      dup1\n      0x445cd696\n      gt\n      tag_60\n      jumpi\n      dup1\n      0x6c081396\n      gt\n      tag_61\n      jumpi\n      dup1\n      0x75ddc9ed\n      gt\n      tag_62\n      jumpi\n      dup1\n      0x75ddc9ed\n      eq\n      tag_24\n      jumpi\n      dup1\n      0x7ce3489b\n      eq\n      tag_25\n      jumpi\n      dup1\n      0x839df945\n      eq\n      tag_26\n      jumpi\n      dup1\n      0x8ae39cac\n      eq\n      tag_27\n      jumpi\n      jump(tag_1)\n    tag_62:\n      dup1\n      0x6c081396\n      eq\n      tag_21\n      jumpi\n      dup1\n      0x6c23cd68\n      eq\n      tag_22\n      jumpi\n      dup1\n      0x6d9833e3\n      eq\n      tag_23\n      jumpi\n      jump(tag_1)\n    tag_61:\n      dup1\n      0x445cd696\n      eq\n      tag_15\n      jumpi\n      dup1\n      0x4b3e7811\n      eq\n      tag_16\n      jumpi\n      dup1\n      0x4ecf518b\n      eq\n      tag_17\n      jumpi\n      dup1\n      0x5129b3e1\n      eq\n      tag_18\n      jumpi\n      dup1\n      0x54fd4d50\n      eq\n      tag_19\n      jumpi\n      dup1\n      0x61d027b3\n      eq\n      tag_20\n      jumpi\n      jump(tag_1)\n    tag_60:\n      dup1\n      0x2d0ec0ff\n      gt\n      tag_63\n      jumpi\n      dup1\n      0x34d6a7bf\n      gt\n      tag_64\n      jumpi\n      dup1\n      0x34d6a7bf\n      eq\n      tag_11\n      jumpi\n      dup1\n      0x38bf282e\n      eq\n      tag_12\n      jumpi\n      dup1\n      0x3b406fb7\n      eq\n      tag_13\n      jumpi\n      dup1\n      0x414a37ba\n      eq\n      tag_14\n      jumpi\n      jump(tag_1)\n    tag_64:\n      dup1\n      0x2d0ec0ff\n      eq\n      tag_8\n      jumpi\n      dup1\n      0x3409038c\n      eq\n      tag_9\n      jumpi\n      dup1\n      0x34749d22\n      eq\n      tag_10\n      jumpi\n      jump(tag_1)\n    tag_63:\n      dup1\n      0x1694505e\n      eq\n      tag_2\n      jumpi\n      dup1\n      0x21a0adb6\n      eq\n      tag_3\n      jumpi\n      dup1\n      0x22217cd3\n      eq\n      tag_4\n      jumpi\n      dup1\n      0x29a5967e\n      eq\n      tag_5\n      jumpi\n      dup1\n      0x2a48235b\n      eq\n      tag_6\n      jumpi\n      dup1\n      0x2b7ac3f3\n      eq\n      tag_7\n      jumpi\n    tag_1:\n      0x00\n      dup1\n      revert\n        /* \"anonimity/0.1-ETH-Anonymity.sol\":14363:14404  IUniswapV2Router02 public uniswapV2Router */\n    tag_2:\n      callvalue\n        /* \"--CODEGEN--\":8:17   */\n      dup1\n        /* \"--CODEGEN--\":5:7   */\n      iszero\n      tag_65\n      jumpi\n        /* \"--CODEGEN--\":30:31   */\n      0x00\n        /* \"--CODEGEN--\":27:28   */\n      dup1\n        /* \"--CODEGEN--\":20:32   */\n      revert\n        /* \"--CODEGEN--\":5:7   */\n    tag_65:\n        /* \"anonimity/0.1-ETH-Anonymity.sol\":14363:14404  IUniswapV2Router02 public uniswapV2Router */\n      pop\n      tag_66\n      tag_67\n      jump\t// in\n    tag_66:\n      mload(0x40)\n      dup1\n      dup3\n      0xffffffffffffffffffffffffffffffffffffffff\n      and\n      0xffffffffffffffffffffffffffffffffffffffff\n      and\n      dup2\n      mstore\n      0x20\n      add\n      swap2\n      pop\n      pop\n      mload(0x40)\n      dup1\n      swap2\n      sub\n      swap1\n      return\n        /* \"anonimity/0.1-ETH-Anonymity.sol\":18382:19954  function withdraw(bytes calldata _proof, bytes32 _root, bytes32 _nullifierHash, address payable _recipient, address payable _relayer, uint256 _relayerFee, uint256 _refund) external payable nonReentrant {... */\n    tag_3:\n      tag_68\n      0x04\n      dup1\n      calldatasize\n      sub\n        /* \"--CODEGEN--\":13:16   */\n      0xe0\n        /* \"--CODEGEN--\":8:11   */\n      dup2\n        /* \"--CODEGEN--\":5:17   */\n      lt\n        /* \"--CODEGEN--\":2:4   */\n      iszero\n      tag_69\n      jumpi\n        /* \"--CODEGEN--\":30:31   */\n      0x00\n        /* \"--CODEGEN--\":27:28   */\n      dup1\n        /* \"--CODEGEN--\":20:32   */\n      revert\n        /* \"--CODEGEN--\":2:4   */\n    tag_69:\n        /* \"anonimity/0.1-ETH-Anonymity.sol\":18382:19954  function withdraw(bytes calldata _proof, bytes32 _root, bytes32 _nullifierHash, address payable _recipient, address payable _relayer, uint256 _relayerFee, uint256 _refund) external payable nonReentrant {... */\n      dup2\n      add\n      swap1\n      dup1\n      dup1\n      calldataload\n      swap1\n      0x20\n      add\n      swap1\n        /* \"--CODEGEN--\":21:32   */\n      0x0100000000\n        /* \"--CODEGEN--\":8:19   */\n      dup2\n        /* \"--CODEGEN--\":5:33   */\n      gt\n        /* \"--CODEGEN--\":2:4   */\n      iszero\n      tag_70\n      jumpi\n        /* \"--CODEGEN--\":46:47   */\n      0x00\n        /* \"--CODEGEN--\":43:44   */\n      dup1\n        /* \"--CODEGEN--\":36:48   */\n      revert\n        /* \"--CODEGEN--\":2:4   */\n    tag_70:\n        /* \"anonimity/0.1-ETH-Anonymity.sol\":18382:19954  function withdraw(bytes calldata _proof, bytes32 _root, bytes32 _nullifierHash, address payable _recipient, address payable _relayer, uint256 _relayerFee, uint256 _refund) external payable nonReentrant {... */\n      dup3\n      add\n        /* \"--CODEGEN--\":35:44   */\n      dup4\n        /* \"--CODEGEN--\":28:32   */\n      0x20\n        /* \"--CODEGEN--\":12:26   */\n      dup3\n        /* \"--CODEGEN--\":8:33   */\n      add\n        /* \"--CODEGEN--\":5:45   */\n      gt\n        /* \"--CODEGEN--\":2:4   */\n      iszero\n      tag_71\n      jumpi\n        /* \"--CODEGEN--\":58:59   */\n      0x00\n        /* \"--CODEGEN--\":55:56   */\n      dup1\n        /* \"--CODEGEN--\":48:60   */\n      revert\n        /* \"--CODEGEN--\":2:4   */\n    tag_71:\n        /* \"anonimity/0.1-ETH-Anonymity.sol\":18382:19954  function withdraw(bytes calldata _proof, bytes32 _root, bytes32 _nullifierHash, address payable _recipient, address payable _relayer, uint256 _relayerFee, uint256 _refund) external payable nonReentrant {... */\n      dup1\n      calldataload\n      swap1\n      0x20\n      add\n      swap2\n        /* \"--CODEGEN--\":100:109   */\n      dup5\n        /* \"--CODEGEN--\":95:96   */\n      0x01\n        /* \"--CODEGEN--\":81:93   */\n      dup4\n        /* \"--CODEGEN--\":77:97   */\n      mul\n        /* \"--CODEGEN--\":67:75   */\n      dup5\n        /* \"--CODEGEN--\":63:98   */\n      add\n        /* \"--CODEGEN--\":60:110   */\n      gt\n        /* \"--CODEGEN--\":39:50   */\n      0x0100000000\n        /* \"--CODEGEN--\":25:37   */\n      dup4\n        /* \"--CODEGEN--\":22:51   */\n      gt\n        /* \"--CODEGEN--\":11:118   */\n      or\n        /* \"--CODEGEN--\":8:10   */\n      iszero\n      tag_72\n      jumpi\n        /* \"--CODEGEN--\":131:132   */\n      0x00\n        /* \"--CODEGEN--\":128:129   */\n      dup1\n        /* \"--CODEGEN--\":121:133   */\n      revert\n        /* \"--CODEGEN--\":8:10   */\n    tag_72:\n        /* \"anonimity/0.1-ETH-Anonymity.sol\":18382:19954  function withdraw(bytes calldata _proof, bytes32 _root, bytes32 _nullifierHash, address payable _recipient, address payable _relayer, uint256 _relayerFee, uint256 _refund) external payable nonReentrant {... */\n      swap1\n      swap2\n      swap3\n      swap4\n      swap2\n      swap3\n      swap4\n      swap1\n      dup1\n      calldataload\n      swap1\n      0x20\n      add\n      swap1\n      swap3\n      swap2\n      swap1\n      dup1\n      calldataload\n      swap1\n      0x20\n      add\n      swap1\n      swap3\n      swap2\n      swap1\n      dup1\n      calldataload\n      0xffffffffffffffffffffffffffffffffffffffff\n      and\n      swap1\n      0x20\n      add\n      swap1\n      swap3\n      swap2\n      swap1\n      dup1\n      calldataload\n      0xffffffffffffffffffffffffffffffffffffffff\n      and\n      swap1\n      0x20\n      add\n      swap1\n      swap3\n      swap2\n      swap1\n      dup1\n      calldataload\n      swap1\n      0x20\n      add\n      swap1\n      swap3\n      swap2\n      swap1\n      dup1\n      calldataload\n      swap1\n      0x20\n      add\n      swap1\n      swap3\n      swap2\n      swap1\n      pop\n      pop\n      pop\n      tag_73\n      jump\t// in\n    tag_68:\n      stop\n        /* \"anonimity/0.1-ETH-Anonymity.sol\":16602:16975  function M87Denomination() public view returns (uint256) {... */\n    tag_4:\n      callvalue\n        /* \"--CODEGEN--\":8:17   */\n      dup1\n        /* \"--CODEGEN--\":5:7   */\n      iszero\n      tag_74\n      jumpi\n        /* \"--CODEGEN--\":30:31   */\n      0x00\n        /* \"--CODEGEN--\":27:28   */\n      dup1\n        /* \"--CODEGEN--\":20:32   */\n      revert\n        /* \"--CODEGEN--\":5:7   */\n    tag_74:\n        /* \"anonimity/0.1-ETH-Anonymity.sol\":16602:16975  function M87Denomination() public view returns (uint256) {... */\n      pop\n      tag_75\n      tag_76\n      jump\t// in\n    tag_75:\n      mload(0x40)\n      dup1\n      dup3\n      dup2\n      mstore\n      0x20\n      add\n      swap2\n      pop\n      pop\n      mload(0x40)\n      dup1\n      swap2\n      sub\n      swap1\n      return\n        /* \"anonimity/0.1-ETH-Anonymity.sol\":21455:21551  function setOverMinETH(uint256 _overMinEth) public onlyOwner {... */\n    tag_5:\n      callvalue\n        /* \"--CODEGEN--\":8:17   */\n      dup1\n        /* \"--CODEGEN--\":5:7   */\n      iszero\n      tag_77\n      jumpi\n        /* \"--CODEGEN--\":30:31   */\n      0x00\n        /* \"--CODEGEN--\":27:28   */\n      dup1\n        /* \"--CODEGEN--\":20:32   */\n      revert\n        /* \"--CODEGEN--\":5:7   */\n    tag_77:\n        /* \"anonimity/0.1-ETH-Anonymity.sol\":21455:21551  function setOverMinETH(uint256 _overMinEth) public onlyOwner {... */\n      pop\n      tag_78\n      0x04\n      dup1\n      calldatasize\n      sub\n        /* \"--CODEGEN--\":13:15   */\n      0x20\n        /* \"--CODEGEN--\":8:11   */\n      dup2\n        /* \"--CODEGEN--\":5:16   */\n      lt\n        /* \"--CODEGEN--\":2:4   */\n      iszero\n      tag_79\n      jumpi\n        /* \"--CODEGEN--\":29:30   */\n      0x00\n        /* \"--CODEGEN--\":26:27   */\n      dup1\n        /* \"--CODEGEN--\":19:31   */\n      revert\n        /* \"--CODEGEN--\":2:4   */\n    tag_79:\n        /* \"anonimity/0.1-ETH-Anonymity.sol\":21455:21551  function setOverMinETH(uint256 _overMinEth) public onlyOwner {... */\n      dup2\n      add\n      swap1\n      dup1\n      dup1\n      calldataload\n      swap1\n      0x20\n      add\n      swap1\n      swap3\n      swap2\n      swap1\n      pop\n      pop\n      pop\n      tag_80\n      jump\t// in\n    tag_78:\n      stop\n        /* \"anonimity/0.1-ETH-Anonymity.sol\":14138:14164  address[4] public poolList */\n    tag_6:\n      callvalue\n        /* \"--CODEGEN--\":8:17   */\n      dup1\n        /* \"--CODEGEN--\":5:7   */\n      iszero\n      tag_81\n      jumpi\n        /* \"--CODEGEN--\":30:31   */\n      0x00\n        /* \"--CODEGEN--\":27:28   */\n      dup1\n        /* \"--CODEGEN--\":20:32   */\n      revert\n        /* \"--CODEGEN--\":5:7   */\n    tag_81:\n        /* \"anonimity/0.1-ETH-Anonymity.sol\":14138:14164  address[4] public poolList */\n      pop\n      tag_82\n      0x04\n      dup1\n      calldatasize\n      sub\n        /* \"--CODEGEN--\":13:15   */\n      0x20\n        /* \"--CODEGEN--\":8:11   */\n      dup2\n        /* \"--CODEGEN--\":5:16   */\n      lt\n        /* \"--CODEGEN--\":2:4   */\n      iszero\n      tag_83\n      jumpi\n        /* \"--CODEGEN--\":29:30   */\n      0x00\n        /* \"--CODEGEN--\":26:27   */\n      dup1\n        /* \"--CODEGEN--\":19:31   */\n      revert\n        /* \"--CODEGEN--\":2:4   */\n    tag_83:\n        /* \"anonimity/0.1-ETH-Anonymity.sol\":14138:14164  address[4] public poolList */\n      dup2\n      add\n      swap1\n      dup1\n      dup1\n      calldataload\n      swap1\n      0x20\n      add\n      swap1\n      swap3\n      swap2\n      swap1\n      pop\n      pop\n      pop\n      tag_84\n      jump\t// in\n    tag_82:\n      mload(0x40)\n      dup1\n      dup3\n      0xffffffffffffffffffffffffffffffffffffffff\n      and\n      0xffffffffffffffffffffffffffffffffffffffff\n      and\n      dup2\n      mstore\n      0x20\n      add\n      swap2\n      pop\n      pop\n      mload(0x40)\n      dup1\n      swap2\n      sub\n      swap1\n      return\n        /* \"anonimity/0.1-ETH-Anonymity.sol\":13685:13710  IVerifier public verifier */\n    tag_7:\n      callvalue\n        /* \"--CODEGEN--\":8:17   */\n      dup1\n        /* \"--CODEGEN--\":5:7   */\n      iszero\n      tag_85\n      jumpi\n        /* \"--CODEGEN--\":30:31   */\n      0x00\n        /* \"--CODEGEN--\":27:28   */\n      dup1\n        /* \"--CODEGEN--\":20:32   */\n      revert\n        /* \"--CODEGEN--\":5:7   */\n    tag_85:\n        /* \"anonimity/0.1-ETH-Anonymity.sol\":13685:13710  IVerifier public verifier */\n      pop\n      tag_86\n      tag_87\n      jump\t// in\n    tag_86:\n      mload(0x40)\n      dup1\n      dup3\n      0xffffffffffffffffffffffffffffffffffffffff\n      and\n      0xffffffffffffffffffffffffffffffffffffffff\n      and\n      dup2\n      mstore\n      0x20\n      add\n      swap2\n      pop\n      pop\n      mload(0x40)\n      dup1\n      swap2\n      sub\n      swap1\n      return\n        /* \"anonimity/0.1-ETH-Anonymity.sol\":14276:14309  uint256 public feeToCollectAmount */\n    tag_8:\n      callvalue\n        /* \"--CODEGEN--\":8:17   */\n      dup1\n        /* \"--CODEGEN--\":5:7   */\n      iszero\n      tag_88\n      jumpi\n        /* \"--CODEGEN--\":30:31   */\n      0x00\n        /* \"--CODEGEN--\":27:28   */\n      dup1\n        /* \"--CODEGEN--\":20:32   */\n      revert\n        /* \"--CODEGEN--\":5:7   */\n    tag_88:\n        /* \"anonimity/0.1-ETH-Anonymity.sol\":14276:14309  uint256 public feeToCollectAmount */\n      pop\n      tag_89\n      tag_90\n      jump\t// in\n    tag_89:\n      mload(0x40)\n      dup1\n      dup3\n      dup2\n      mstore\n      0x20\n      add\n      swap2\n      pop\n      pop\n      mload(0x40)\n      dup1\n      swap2\n      sub\n      swap1\n      return\n        /* \"anonimity/0.1-ETH-Anonymity.sol\":13822:13848  uint256 public numOfShares */\n    tag_9:\n      callvalue\n        /* \"--CODEGEN--\":8:17   */\n      dup1\n        /* \"--CODEGEN--\":5:7   */\n      iszero\n      tag_91\n      jumpi\n        /* \"--CODEGEN--\":30:31   */\n      0x00\n        /* \"--CODEGEN--\":27:28   */\n      dup1\n        /* \"--CODEGEN--\":20:32   */\n      revert\n        /* \"--CODEGEN--\":5:7   */\n    tag_91:\n        /* \"anonimity/0.1-ETH-Anonymity.sol\":13822:13848  uint256 public numOfShares */\n      pop\n      tag_92\n      tag_93\n      jump\t// in\n    tag_92:\n      mload(0x40)\n      dup1\n      dup3\n      dup2\n      mstore\n      0x20\n      add\n      swap2\n      pop\n      pop\n      mload(0x40)\n      dup1\n      swap2\n      sub\n      swap1\n      return\n        /* \"anonimity/0.1-ETH-Anonymity.sol\":23857:23928  function forceSwapAndShare() public onlyOwner {... */\n    tag_10:\n      callvalue\n        /* \"--CODEGEN--\":8:17   */\n      dup1\n        /* \"--CODEGEN--\":5:7   */\n      iszero\n      tag_94\n      jumpi\n        /* \"--CODEGEN--\":30:31   */\n      0x00\n        /* \"--CODEGEN--\":27:28   */\n      dup1\n        /* \"--CODEGEN--\":20:32   */\n      revert\n        /* \"--CODEGEN--\":5:7   */\n    tag_94:\n        /* \"anonimity/0.1-ETH-Anonymity.sol\":23857:23928  function forceSwapAndShare() public onlyOwner {... */\n      pop\n      tag_95\n      tag_96\n      jump\t// in\n    tag_95:\n      stop\n        /* \"anonimity/0.1-ETH-Anonymity.sol\":13790:13818  address public messier_owner */\n    tag_11:\n      callvalue\n        /* \"--CODEGEN--\":8:17   */\n      dup1\n        /* \"--CODEGEN--\":5:7   */\n      iszero\n      tag_97\n      jumpi\n        /* \"--CODEGEN--\":30:31   */\n      0x00\n        /* \"--CODEGEN--\":27:28   */\n      dup1\n        /* \"--CODEGEN--\":20:32   */\n      revert\n        /* \"--CODEGEN--\":5:7   */\n    tag_97:\n        /* \"anonimity/0.1-ETH-Anonymity.sol\":13790:13818  address public messier_owner */\n      pop\n      tag_98\n      tag_99\n      jump\t// in\n    tag_98:\n      mload(0x40)\n      dup1\n      dup3\n      0xffffffffffffffffffffffffffffffffffffffff\n      and\n      0xffffffffffffffffffffffffffffffffffffffff\n      and\n      dup2\n      mstore\n      0x20\n      add\n      swap2\n      pop\n      pop\n      mload(0x40)\n      dup1\n      swap2\n      sub\n      swap1\n      return\n        /* \"anonimity/0.1-ETH-Anonymity.sol\":9288:9733  function hashLeftRight(bytes32 _left, bytes32 _right) public pure returns (bytes32) {... */\n    tag_12:\n      callvalue\n        /* \"--CODEGEN--\":8:17   */\n      dup1\n        /* \"--CODEGEN--\":5:7   */\n      iszero\n      tag_100\n      jumpi\n        /* \"--CODEGEN--\":30:31   */\n      0x00\n        /* \"--CODEGEN--\":27:28   */\n      dup1\n        /* \"--CODEGEN--\":20:32   */\n      revert\n        /* \"--CODEGEN--\":5:7   */\n    tag_100:\n        /* \"anonimity/0.1-ETH-Anonymity.sol\":9288:9733  function hashLeftRight(bytes32 _left, bytes32 _right) public pure returns (bytes32) {... */\n      pop\n      tag_101\n      0x04\n      dup1\n      calldatasize\n      sub\n        /* \"--CODEGEN--\":13:15   */\n      0x40\n        /* \"--CODEGEN--\":8:11   */\n      dup2\n        /* \"--CODEGEN--\":5:16   */\n      lt\n        /* \"--CODEGEN--\":2:4   */\n      iszero\n      tag_102\n      jumpi\n        /* \"--CODEGEN--\":29:30   */\n      0x00\n        /* \"--CODEGEN--\":26:27   */\n      dup1\n        /* \"--CODEGEN--\":19:31   */\n      revert\n        /* \"--CODEGEN--\":2:4   */\n    tag_102:\n        /* \"anonimity/0.1-ETH-Anonymity.sol\":9288:9733  function hashLeftRight(bytes32 _left, bytes32 _right) public pure returns (bytes32) {... */\n      dup2\n      add\n      swap1\n      dup1\n      dup1\n      calldataload\n      swap1\n      0x20\n      add\n      swap1\n      swap3\n      swap2\n      swap1\n      dup1\n      calldataload\n      swap1\n      0x20\n      add\n      swap1\n      swap3\n      swap2\n      swap1\n      pop\n      pop\n      pop\n      tag_103\n      jump\t// in\n    tag_101:\n      mload(0x40)\n      dup1\n      dup3\n      dup2\n      mstore\n      0x20\n      add\n      swap2\n      pop\n      pop\n      mload(0x40)\n      dup1\n      swap2\n      sub\n      swap1\n      return\n        /* \"anonimity/0.1-ETH-Anonymity.sol\":13951:13982  uint256 public anonymityFee = 0 */\n    tag_13:\n      callvalue\n        /* \"--CODEGEN--\":8:17   */\n      dup1\n        /* \"--CODEGEN--\":5:7   */\n      iszero\n      tag_104\n      jumpi\n        /* \"--CODEGEN--\":30:31   */\n      0x00\n        /* \"--CODEGEN--\":27:28   */\n      dup1\n        /* \"--CODEGEN--\":20:32   */\n      revert\n        /* \"--CODEGEN--\":5:7   */\n    tag_104:\n        /* \"anonimity/0.1-ETH-Anonymity.sol\":13951:13982  uint256 public anonymityFee = 0 */\n      pop\n      tag_105\n      tag_106\n      jump\t// in\n    tag_105:\n      mload(0x40)\n      dup1\n      dup3\n      dup2\n      mstore\n      0x20\n      add\n      swap2\n      pop\n      pop\n      mload(0x40)\n      dup1\n      swap2\n      sub\n      swap1\n      return\n        /* \"anonimity/0.1-ETH-Anonymity.sol\":8160:8274  uint256 public constant FIELD_SIZE = 21888242871839275222246405745257275088548364400416034343698204186575808495617 */\n    tag_14:\n      callvalue\n        /* \"--CODEGEN--\":8:17   */\n      dup1\n        /* \"--CODEGEN--\":5:7   */\n      iszero\n      tag_107\n      jumpi\n        /* \"--CODEGEN--\":30:31   */\n      0x00\n        /* \"--CODEGEN--\":27:28   */\n      dup1\n        /* \"--CODEGEN--\":20:32   */\n      revert\n        /* \"--CODEGEN--\":5:7   */\n    tag_107:\n        /* \"anonimity/0.1-ETH-Anonymity.sol\":8160:8274  uint256 public constant FIELD_SIZE = 21888242871839275222246405745257275088548364400416034343698204186575808495617 */\n      pop\n      tag_108\n      tag_109\n      jump\t// in\n    tag_108:\n      mload(0x40)\n      dup1\n      dup3\n      dup2\n      mstore\n      0x20\n      add\n      swap2\n      pop\n      pop\n      mload(0x40)\n      dup1\n      swap2\n      sub\n      swap1\n      return\n        /* \"anonimity/0.1-ETH-Anonymity.sol\":14082:14134  uint256[5] public shareOfReward = [30, 0, 30, 40, 0] */\n    tag_15:\n      callvalue\n        /* \"--CODEGEN--\":8:17   */\n      dup1\n        /* \"--CODEGEN--\":5:7   */\n      iszero\n      tag_110\n      jumpi\n        /* \"--CODEGEN--\":30:31   */\n      0x00\n        /* \"--CODEGEN--\":27:28   */\n      dup1\n        /* \"--CODEGEN--\":20:32   */\n      revert\n        /* \"--CODEGEN--\":5:7   */\n    tag_110:\n        /* \"anonimity/0.1-ETH-Anonymity.sol\":14082:14134  uint256[5] public shareOfReward = [30, 0, 30, 40, 0] */\n      pop\n      tag_111\n      0x04\n      dup1\n      calldatasize\n      sub\n        /* \"--CODEGEN--\":13:15   */\n      0x20\n        /* \"--CODEGEN--\":8:11   */\n      dup2\n        /* \"--CODEGEN--\":5:16   */\n      lt\n        /* \"--CODEGEN--\":2:4   */\n      iszero\n      tag_112\n      jumpi\n        /* \"--CODEGEN--\":29:30   */\n      0x00\n        /* \"--CODEGEN--\":26:27   */\n      dup1\n        /* \"--CODEGEN--\":19:31   */\n      revert\n        /* \"--CODEGEN--\":2:4   */\n    tag_112:\n        /* \"anonimity/0.1-ETH-Anonymity.sol\":14082:14134  uint256[5] public shareOfReward = [30, 0, 30, 40, 0] */\n      dup2\n      add\n      swap1\n      dup1\n      dup1\n      calldataload\n      swap1\n      0x20\n      add\n      swap1\n      swap3\n      swap2\n      swap1\n      pop\n      pop\n      pop\n      tag_113\n      jump\t// in\n    tag_111:\n      mload(0x40)\n      dup1\n      dup3\n      dup2\n      mstore\n      0x20\n      add\n      swap2\n      pop\n      pop\n      mload(0x40)\n      dup1\n      swap2\n      sub\n      swap1\n      return\n        /* \"anonimity/0.1-ETH-Anonymity.sol\":21211:21451  function setPoolFee(uint256 burnFee, uint256 fee1, uint256 fee2, uint256 fee3, uint256 fee4) public onlyOwner {... */\n    tag_16:\n      callvalue\n        /* \"--CODEGEN--\":8:17   */\n      dup1\n        /* \"--CODEGEN--\":5:7   */\n      iszero\n      tag_114\n      jumpi\n        /* \"--CODEGEN--\":30:31   */\n      0x00\n        /* \"--CODEGEN--\":27:28   */\n      dup1\n        /* \"--CODEGEN--\":20:32   */\n      revert\n        /* \"--CODEGEN--\":5:7   */\n    tag_114:\n        /* \"anonimity/0.1-ETH-Anonymity.sol\":21211:21451  function setPoolFee(uint256 burnFee, uint256 fee1, uint256 fee2, uint256 fee3, uint256 fee4) public onlyOwner {... */\n      pop\n      tag_115\n      0x04\n      dup1\n      calldatasize\n      sub\n        /* \"--CODEGEN--\":13:16   */\n      0xa0\n        /* \"--CODEGEN--\":8:11   */\n      dup2\n        /* \"--CODEGEN--\":5:17   */\n      lt\n        /* \"--CODEGEN--\":2:4   */\n      iszero\n      tag_116\n      jumpi\n        /* \"--CODEGEN--\":30:31   */\n      0x00\n        /* \"--CODEGEN--\":27:28   */\n      dup1\n        /* \"--CODEGEN--\":20:32   */\n      revert\n        /* \"--CODEGEN--\":2:4   */\n    tag_116:\n        /* \"anonimity/0.1-ETH-Anonymity.sol\":21211:21451  function setPoolFee(uint256 burnFee, uint256 fee1, uint256 fee2, uint256 fee3, uint256 fee4) public onlyOwner {... */\n      dup2\n      add\n      swap1\n      dup1\n      dup1\n      calldataload\n      swap1\n      0x20\n      add\n      swap1\n      swap3\n      swap2\n      swap1\n      dup1\n      calldataload\n      swap1\n      0x20\n      add\n      swap1\n      swap3\n      swap2\n      swap1\n      dup1\n      calldataload\n      swap1\n      0x20\n      add\n      swap1\n      swap3\n      swap2\n      swap1\n      dup1\n      calldataload\n      swap1\n      0x20\n      add\n      swap1\n      swap3\n      swap2\n      swap1\n      dup1\n      calldataload\n      swap1\n      0x20\n      add\n      swap1\n      swap3\n      swap2\n      swap1\n      pop\n      pop\n      pop\n      tag_117\n      jump\t// in\n    tag_115:\n      stop\n        /* \"anonimity/0.1-ETH-Anonymity.sol\":8436:8456  uint32 public levels */\n    tag_17:\n      callvalue\n        /* \"--CODEGEN--\":8:17   */\n      dup1\n        /* \"--CODEGEN--\":5:7   */\n      iszero\n      tag_118\n      jumpi\n        /* \"--CODEGEN--\":30:31   */\n      0x00\n        /* \"--CODEGEN--\":27:28   */\n      dup1\n        /* \"--CODEGEN--\":20:32   */\n      revert\n        /* \"--CODEGEN--\":5:7   */\n    tag_118:\n        /* \"anonimity/0.1-ETH-Anonymity.sol\":8436:8456  uint32 public levels */\n      pop\n      tag_119\n      tag_120\n      jump\t// in\n    tag_119:\n      mload(0x40)\n      dup1\n      dup3\n      0xffffffff\n      and\n      0xffffffff\n      and\n      dup2\n      mstore\n      0x20\n      add\n      swap2\n      pop\n      pop\n      mload(0x40)\n      dup1\n      swap2\n      sub\n      swap1\n      return\n        /* \"anonimity/0.1-ETH-Anonymity.sol\":13439:13471  uint256 public tokenDenomination */\n    tag_18:\n      callvalue\n        /* \"--CODEGEN--\":8:17   */\n      dup1\n        /* \"--CODEGEN--\":5:7   */\n      iszero\n      tag_121\n      jumpi\n        /* \"--CODEGEN--\":30:31   */\n      0x00\n        /* \"--CODEGEN--\":27:28   */\n      dup1\n        /* \"--CODEGEN--\":20:32   */\n      revert\n        /* \"--CODEGEN--\":5:7   */\n    tag_121:\n        /* \"anonimity/0.1-ETH-Anonymity.sol\":13439:13471  uint256 public tokenDenomination */\n      pop\n      tag_122\n      tag_123\n      jump\t// in\n    tag_122:\n      mload(0x40)\n      dup1\n      dup3\n      dup2\n      mstore\n      0x20\n      add\n      swap2\n      pop\n      pop\n      mload(0x40)\n      dup1\n      swap2\n      sub\n      swap1\n      return\n        /* \"anonimity/0.1-ETH-Anonymity.sol\":24295:24372  function version() public pure returns(string memory) {... */\n    tag_19:\n      callvalue\n        /* \"--CODEGEN--\":8:17   */\n      dup1\n        /* \"--CODEGEN--\":5:7   */\n      iszero\n      tag_124\n      jumpi\n        /* \"--CODEGEN--\":30:31   */\n      0x00\n        /* \"--CODEGEN--\":27:28   */\n      dup1\n        /* \"--CODEGEN--\":20:32   */\n      revert\n        /* \"--CODEGEN--\":5:7   */\n    tag_124:\n        /* \"anonimity/0.1-ETH-Anonymity.sol\":24295:24372  function version() public pure returns(string memory) {... */\n      pop\n      tag_125\n      tag_126\n      jump\t// in\n    tag_125:\n      mload(0x40)\n      dup1\n      dup1\n      0x20\n      add\n      dup3\n      dup2\n      sub\n      dup3\n      mstore\n      dup4\n      dup2\n      dup2\n      mload\n      dup2\n      mstore\n      0x20\n      add\n      swap2\n      pop\n      dup1\n      mload\n      swap1\n      0x20\n      add\n      swap1\n      dup1\n      dup4\n      dup4\n        /* \"--CODEGEN--\":23:24   */\n      0x00\n        /* \"--CODEGEN--\":8:108   */\n    tag_127:\n        /* \"--CODEGEN--\":33:36   */\n      dup4\n        /* \"--CODEGEN--\":30:31   */\n      dup2\n        /* \"--CODEGEN--\":27:37   */\n      lt\n        /* \"--CODEGEN--\":8:108   */\n      iszero\n      tag_129\n      jumpi\n        /* \"--CODEGEN--\":99:100   */\n      dup1\n        /* \"--CODEGEN--\":94:97   */\n      dup3\n        /* \"--CODEGEN--\":90:101   */\n      add\n        /* \"--CODEGEN--\":84:102   */\n      mload\n        /* \"--CODEGEN--\":80:81   */\n      dup2\n        /* \"--CODEGEN--\":75:78   */\n      dup5\n        /* \"--CODEGEN--\":71:82   */\n      add\n        /* \"--CODEGEN--\":64:103   */\n      mstore\n        /* \"--CODEGEN--\":52:54   */\n      0x20\n        /* \"--CODEGEN--\":49:50   */\n      dup2\n        /* \"--CODEGEN--\":45:55   */\n      add\n        /* \"--CODEGEN--\":40:55   */\n      swap1\n      pop\n        /* \"--CODEGEN--\":8:108   */\n      jump(tag_127)\n    tag_129:\n        /* \"--CODEGEN--\":12:26   */\n      pop\n        /* \"anonimity/0.1-ETH-Anonymity.sol\":24295:24372  function version() public pure returns(string memory) {... */\n      pop\n      pop\n      pop\n      swap1\n      pop\n      swap1\n      dup2\n      add\n      swap1\n      0x1f\n      and\n      dup1\n      iszero\n      tag_130\n      jumpi\n      dup1\n      dup3\n      sub\n      dup1\n      mload\n      0x01\n      dup4\n      0x20\n      sub\n      0x0100\n      exp\n      sub\n      not\n      and\n      dup2\n      mstore\n      0x20\n      add\n      swap2\n      pop\n    tag_130:\n      pop\n      swap3\n      pop\n      pop\n      pop\n      mload(0x40)\n      dup1\n      swap2\n      sub\n      swap1\n      return\n        /* \"anonimity/0.1-ETH-Anonymity.sol\":13763:13786  address public treasury */\n    tag_20:\n      callvalue\n        /* \"--CODEGEN--\":8:17   */\n      dup1\n        /* \"--CODEGEN--\":5:7   */\n      iszero\n      tag_131\n      jumpi\n        /* \"--CODEGEN--\":30:31   */\n      0x00\n        /* \"--CODEGEN--\":27:28   */\n      dup1\n        /* \"--CODEGEN--\":20:32   */\n      revert\n        /* \"--CODEGEN--\":5:7   */\n    tag_131:\n        /* \"anonimity/0.1-ETH-Anonymity.sol\":13763:13786  address public treasury */\n      pop\n      tag_132\n      tag_133\n      jump\t// in\n    tag_132:\n      mload(0x40)\n      dup1\n      dup3\n      0xffffffffffffffffffffffffffffffffffffffff\n      and\n      0xffffffffffffffffffffffffffffffffffffffff\n      and\n      dup2\n      mstore\n      0x20\n      add\n      swap2\n      pop\n      pop\n      mload(0x40)\n      dup1\n      swap2\n      sub\n      swap1\n      return\n        /* \"anonimity/0.1-ETH-Anonymity.sol\":20935:21207  function setPoolList(address addr1, address addr2, address addr3, address addr4) public onlyOwner {... */\n    tag_21:\n      callvalue\n        /* \"--CODEGEN--\":8:17   */\n      dup1\n        /* \"--CODEGEN--\":5:7   */\n      iszero\n      tag_134\n      jumpi\n        /* \"--CODEGEN--\":30:31   */\n      0x00\n        /* \"--CODEGEN--\":27:28   */\n      dup1\n        /* \"--CODEGEN--\":20:32   */\n      revert\n        /* \"--CODEGEN--\":5:7   */\n    tag_134:\n        /* \"anonimity/0.1-ETH-Anonymity.sol\":20935:21207  function setPoolList(address addr1, address addr2, address addr3, address addr4) public onlyOwner {... */\n      pop\n      tag_135\n      0x04\n      dup1\n      calldatasize\n      sub\n        /* \"--CODEGEN--\":13:16   */\n      0x80\n        /* \"--CODEGEN--\":8:11   */\n      dup2\n        /* \"--CODEGEN--\":5:17   */\n      lt\n        /* \"--CODEGEN--\":2:4   */\n      iszero\n      tag_136\n      jumpi\n        /* \"--CODEGEN--\":30:31   */\n      0x00\n        /* \"--CODEGEN--\":27:28   */\n      dup1\n        /* \"--CODEGEN--\":20:32   */\n      revert\n        /* \"--CODEGEN--\":2:4   */\n    tag_136:\n        /* \"anonimity/0.1-ETH-Anonymity.sol\":20935:21207  function setPoolList(address addr1, address addr2, address addr3, address addr4) public onlyOwner {... */\n      dup2\n      add\n      swap1\n      dup1\n      dup1\n      calldataload\n      0xffffffffffffffffffffffffffffffffffffffff\n      and\n      swap1\n      0x20\n      add\n      swap1\n      swap3\n      swap2\n      swap1\n      dup1\n      calldataload\n      0xffffffffffffffffffffffffffffffffffffffff\n      and\n      swap1\n      0x20\n      add\n      swap1\n      swap3\n      swap2\n      swap1\n      dup1\n      calldataload\n      0xffffffffffffffffffffffffffffffffffffffff\n      and\n      swap1\n      0x20\n      add\n      swap1\n      swap3\n      swap2\n      swap1\n      dup1\n      calldataload\n      0xffffffffffffffffffffffffffffffffffffffff\n      and\n      swap1\n      0x20\n      add\n      swap1\n      swap3\n      swap2\n      swap1\n      pop\n      pop\n      pop\n      tag_137\n      jump\t// in\n    tag_135:\n      stop\n        /* \"anonimity/0.1-ETH-Anonymity.sol\":14408:14435  uint256 public curPoolIndex */\n    tag_22:\n      callvalue\n        /* \"--CODEGEN--\":8:17   */\n      dup1\n        /* \"--CODEGEN--\":5:7   */\n      iszero\n      tag_138\n      jumpi\n        /* \"--CODEGEN--\":30:31   */\n      0x00\n        /* \"--CODEGEN--\":27:28   */\n      dup1\n        /* \"--CODEGEN--\":20:32   */\n      revert\n        /* \"--CODEGEN--\":5:7   */\n    tag_138:\n        /* \"anonimity/0.1-ETH-Anonymity.sol\":14408:14435  uint256 public curPoolIndex */\n      pop\n      tag_139\n      tag_140\n      jump\t// in\n    tag_139:\n      mload(0x40)\n      dup1\n      dup3\n      dup2\n      mstore\n      0x20\n      add\n      swap2\n      pop\n      pop\n      mload(0x40)\n      dup1\n      swap2\n      sub\n      swap1\n      return\n        /* \"anonimity/0.1-ETH-Anonymity.sol\":10611:10953  function isKnownRoot(bytes32 _root) public view returns(bool) {... */\n    tag_23:\n      callvalue\n        /* \"--CODEGEN--\":8:17   */\n      dup1\n        /* \"--CODEGEN--\":5:7   */\n      iszero\n      tag_141\n      jumpi\n        /* \"--CODEGEN--\":30:31   */\n      0x00\n        /* \"--CODEGEN--\":27:28   */\n      dup1\n        /* \"--CODEGEN--\":20:32   */\n      revert\n        /* \"--CODEGEN--\":5:7   */\n    tag_141:\n        /* \"anonimity/0.1-ETH-Anonymity.sol\":10611:10953  function isKnownRoot(bytes32 _root) public view returns(bool) {... */\n      pop\n      tag_142\n      0x04\n      dup1\n      calldatasize\n      sub\n        /* \"--CODEGEN--\":13:15   */\n      0x20\n        /* \"--CODEGEN--\":8:11   */\n      dup2\n        /* \"--CODEGEN--\":5:16   */\n      lt\n        /* \"--CODEGEN--\":2:4   */\n      iszero\n      tag_143\n      jumpi\n        /* \"--CODEGEN--\":29:30   */\n      0x00\n        /* \"--CODEGEN--\":26:27   */\n      dup1\n        /* \"--CODEGEN--\":19:31   */\n      revert\n        /* \"--CODEGEN--\":2:4   */\n    tag_143:\n        /* \"anonimity/0.1-ETH-Anonymity.sol\":10611:10953  function isKnownRoot(bytes32 _root) public view returns(bool) {... */\n      dup2\n      add\n      swap1\n      dup1\n      dup1\n      calldataload\n      swap1\n      0x20\n      add\n      swap1\n      swap3\n      swap2\n      swap1\n      pop\n      pop\n      pop\n      tag_144\n      jump\t// in\n    tag_142:\n      mload(0x40)\n      dup1\n      dup3\n      iszero\n      iszero\n      iszero\n      iszero\n      dup2\n      mstore\n      0x20\n      add\n      swap2\n      pop\n      pop\n      mload(0x40)\n      dup1\n      swap2\n      sub\n      swap1\n      return\n        /* \"anonimity/0.1-ETH-Anonymity.sol\":13737:13759  IERC20 public M87Token */\n    tag_24:\n      callvalue\n        /* \"--CODEGEN--\":8:17   */\n      dup1\n        /* \"--CODEGEN--\":5:7   */\n      iszero\n      tag_145\n      jumpi\n        /* \"--CODEGEN--\":30:31   */\n      0x00\n        /* \"--CODEGEN--\":27:28   */\n      dup1\n        /* \"--CODEGEN--\":20:32   */\n      revert\n        /* \"--CODEGEN--\":5:7   */\n    tag_145:\n        /* \"anonimity/0.1-ETH-Anonymity.sol\":13737:13759  IERC20 public M87Token */\n      pop\n      tag_146\n      tag_147\n      jump\t// in\n    tag_146:\n      mload(0x40)\n      dup1\n      dup3\n      0xffffffffffffffffffffffffffffffffffffffff\n      and\n      0xffffffffffffffffffffffffffffffffffffffff\n      and\n      dup2\n      mstore\n      0x20\n      add\n      swap2\n      pop\n      pop\n      mload(0x40)\n      dup1\n      swap2\n      sub\n      swap1\n      return\n        /* \"anonimity/0.1-ETH-Anonymity.sol\":24072:24291  function setFeePercent(uint256 _fee) public onlyOwner {... */\n    tag_25:\n      callvalue\n        /* \"--CODEGEN--\":8:17   */\n      dup1\n        /* \"--CODEGEN--\":5:7   */\n      iszero\n      tag_148\n      jumpi\n        /* \"--CODEGEN--\":30:31   */\n      0x00\n        /* \"--CODEGEN--\":27:28   */\n      dup1\n        /* \"--CODEGEN--\":20:32   */\n      revert\n        /* \"--CODEGEN--\":5:7   */\n    tag_148:\n        /* \"anonimity/0.1-ETH-Anonymity.sol\":24072:24291  function setFeePercent(uint256 _fee) public onlyOwner {... */\n      pop\n      tag_149\n      0x04\n      dup1\n      calldatasize\n      sub\n        /* \"--CODEGEN--\":13:15   */\n      0x20\n        /* \"--CODEGEN--\":8:11   */\n      dup2\n        /* \"--CODEGEN--\":5:16   */\n      lt\n        /* \"--CODEGEN--\":2:4   */\n      iszero\n      tag_150\n      jumpi\n        /* \"--CODEGEN--\":29:30   */\n      0x00\n        /* \"--CODEGEN--\":26:27   */\n      dup1\n        /* \"--CODEGEN--\":19:31   */\n      revert\n        /* \"--CODEGEN--\":2:4   */\n    tag_150:\n        /* \"anonimity/0.1-ETH-Anonymity.sol\":24072:24291  function setFeePercent(uint256 _fee) public onlyOwner {... */\n      dup2\n      add\n      swap1\n      dup1\n      dup1\n      calldataload\n      swap1\n      0x20\n      add\n      swap1\n      swap3\n      swap2\n      swap1\n      pop\n      pop\n      pop\n      tag_151\n      jump\t// in\n    tag_149:\n      stop\n        /* \"anonimity/0.1-ETH-Anonymity.sol\":13549:13592  mapping(bytes32 => bool) public commitments */\n    tag_26:\n      callvalue\n        /* \"--CODEGEN--\":8:17   */\n      dup1\n        /* \"--CODEGEN--\":5:7   */\n      iszero\n      tag_152\n      jumpi\n        /* \"--CODEGEN--\":30:31   */\n      0x00\n        /* \"--CODEGEN--\":27:28   */\n      dup1\n        /* \"--CODEGEN--\":20:32   */\n      revert\n        /* \"--CODEGEN--\":5:7   */\n    tag_152:\n        /* \"anonimity/0.1-ETH-Anonymity.sol\":13549:13592  mapping(bytes32 => bool) public commitments */\n      pop\n      tag_153\n      0x04\n      dup1\n      calldatasize\n      sub\n        /* \"--CODEGEN--\":13:15   */\n      0x20\n        /* \"--CODEGEN--\":8:11   */\n      dup2\n        /* \"--CODEGEN--\":5:16   */\n      lt\n        /* \"--CODEGEN--\":2:4   */\n      iszero\n      tag_154\n      jumpi\n        /* \"--CODEGEN--\":29:30   */\n      0x00\n        /* \"--CODEGEN--\":26:27   */\n      dup1\n        /* \"--CODEGEN--\":19:31   */\n      revert\n        /* \"--CODEGEN--\":2:4   */\n    tag_154:\n        /* \"anonimity/0.1-ETH-Anonymity.sol\":13549:13592  mapping(bytes32 => bool) public commitments */\n      dup2\n      add\n      swap1\n      dup1\n      dup1\n      calldataload\n      swap1\n      0x20\n      add\n      swap1\n      swap3\n      swap2\n      swap1\n      pop\n      pop\n      pop\n      tag_155\n      jump\t// in\n    tag_153:\n      mload(0x40)\n      dup1\n      dup3\n      iszero\n      iszero\n      iszero\n      iszero\n      dup2\n      mstore\n      0x20\n      add\n      swap2\n      pop\n      pop\n      mload(0x40)\n      dup1\n      swap2\n      sub\n      swap1\n      return\n        /* \"anonimity/0.1-ETH-Anonymity.sol\":13886:13915  uint256 public rewardPerBlock */\n    tag_27:\n      callvalue\n        /* \"--CODEGEN--\":8:17   */\n      dup1\n        /* \"--CODEGEN--\":5:7   */\n      iszero\n      tag_156\n      jumpi\n        /* \"--CODEGEN--\":30:31   */\n      0x00\n        /* \"--CODEGEN--\":27:28   */\n      dup1\n        /* \"--CODEGEN--\":20:32   */\n      revert\n        /* \"--CODEGEN--\":5:7   */\n    tag_156:\n        /* \"anonimity/0.1-ETH-Anonymity.sol\":13886:13915  uint256 public rewardPerBlock */\n      pop\n      tag_157\n      tag_158\n      jump\t// in\n    tag_157:\n      mload(0x40)\n      dup1\n      dup3\n      dup2\n      mstore\n      0x20\n      add\n      swap2\n      pop\n      pop\n      mload(0x40)\n      dup1\n      swap2\n      sub\n      swap1\n      return\n        /* \"anonimity/0.1-ETH-Anonymity.sol\":16044:16383  function updateBlockReward() public {... */\n    tag_28:\n      callvalue\n        /* \"--CODEGEN--\":8:17   */\n      dup1\n        /* \"--CODEGEN--\":5:7   */\n      iszero\n      tag_159\n      jumpi\n        /* \"--CODEGEN--\":30:31   */\n      0x00\n        /* \"--CODEGEN--\":27:28   */\n      dup1\n        /* \"--CODEGEN--\":20:32   */\n      revert\n        /* \"--CODEGEN--\":5:7   */\n    tag_159:\n        /* \"anonimity/0.1-ETH-Anonymity.sol\":16044:16383  function updateBlockReward() public {... */\n      pop\n      tag_160\n      tag_161\n      jump\t// in\n    tag_160:\n      stop\n        /* \"anonimity/0.1-ETH-Anonymity.sol\":20428:20564  function setAnonymityFee(uint256 _fee) public onlyOwner {... */\n    tag_29:\n      callvalue\n        /* \"--CODEGEN--\":8:17   */\n      dup1\n        /* \"--CODEGEN--\":5:7   */\n      iszero\n      tag_162\n      jumpi\n        /* \"--CODEGEN--\":30:31   */\n      0x00\n        /* \"--CODEGEN--\":27:28   */\n      dup1\n        /* \"--CODEGEN--\":20:32   */\n      revert\n        /* \"--CODEGEN--\":5:7   */\n    tag_162:\n        /* \"anonimity/0.1-ETH-Anonymity.sol\":20428:20564  function setAnonymityFee(uint256 _fee) public onlyOwner {... */\n      pop\n      tag_163\n      0x04\n      dup1\n      calldatasize\n      sub\n        /* \"--CODEGEN--\":13:15   */\n      0x20\n        /* \"--CODEGEN--\":8:11   */\n      dup2\n        /* \"--CODEGEN--\":5:16   */\n      lt\n        /* \"--CODEGEN--\":2:4   */\n      iszero\n      tag_164\n      jumpi\n        /* \"--CODEGEN--\":29:30   */\n      0x00\n        /* \"--CODEGEN--\":26:27   */\n      dup1\n        /* \"--CODEGEN--\":19:31   */\n      revert\n        /* \"--CODEGEN--\":2:4   */\n    tag_164:\n        /* \"anonimity/0.1-ETH-Anonymity.sol\":20428:20564  function setAnonymityFee(uint256 _fee) public onlyOwner {... */\n      dup2\n      add\n      swap1\n      dup1\n      dup1\n      calldataload\n      swap1\n      0x20\n      add\n      swap1\n      swap3\n      swap2\n      swap1\n      pop\n      pop\n      pop\n      tag_165\n      jump\t// in\n    tag_163:\n      stop\n        /* \"anonimity/0.1-ETH-Anonymity.sol\":8657:8691  uint32 public currentRootIndex = 0 */\n    tag_30:\n      callvalue\n        /* \"--CODEGEN--\":8:17   */\n      dup1\n        /* \"--CODEGEN--\":5:7   */\n      iszero\n      tag_166\n      jumpi\n        /* \"--CODEGEN--\":30:31   */\n      0x00\n        /* \"--CODEGEN--\":27:28   */\n      dup1\n        /* \"--CODEGEN--\":20:32   */\n      revert\n        /* \"--CODEGEN--\":5:7   */\n    tag_166:\n        /* \"anonimity/0.1-ETH-Anonymity.sol\":8657:8691  uint32 public currentRootIndex = 0 */\n      pop\n      tag_167\n      tag_168\n      jump\t// in\n    tag_167:\n      mload(0x40)\n      dup1\n      dup3\n      0xffffffff\n      and\n      0xffffffff\n      and\n      dup2\n      mstore\n      0x20\n      add\n      swap2\n      pop\n      pop\n      mload(0x40)\n      dup1\n      swap2\n      sub\n      swap1\n      return\n        /* \"anonimity/0.1-ETH-Anonymity.sol\":16387:16598  function getAccumulateM87() public view returns (uint256) {... */\n    tag_31:\n      callvalue\n        /* \"--CODEGEN--\":8:17   */\n      dup1\n        /* \"--CODEGEN--\":5:7   */\n      iszero\n      tag_169\n      jumpi\n        /* \"--CODEGEN--\":30:31   */\n      0x00\n        /* \"--CODEGEN--\":27:28   */\n      dup1\n        /* \"--CODEGEN--\":20:32   */\n      revert\n        /* \"--CODEGEN--\":5:7   */\n    tag_169:\n        /* \"anonimity/0.1-ETH-Anonymity.sol\":16387:16598  function getAccumulateM87() public view returns (uint256) {... */\n      pop\n      tag_170\n      tag_171\n      jump\t// in\n    tag_170:\n      mload(0x40)\n      dup1\n      dup3\n      dup2\n      mstore\n      0x20\n      add\n      swap2\n      pop\n      pop\n      mload(0x40)\n      dup1\n      swap2\n      sub\n      swap1\n      return\n        /* \"anonimity/0.1-ETH-Anonymity.sol\":19958:20068  function updateVerifier(address _newVerifier) external onlyOwner {... */\n    tag_32:\n      callvalue\n        /* \"--CODEGEN--\":8:17   */\n      dup1\n        /* \"--CODEGEN--\":5:7   */\n      iszero\n      tag_172\n      jumpi\n        /* \"--CODEGEN--\":30:31   */\n      0x00\n        /* \"--CODEGEN--\":27:28   */\n      dup1\n        /* \"--CODEGEN--\":20:32   */\n      revert\n        /* \"--CODEGEN--\":5:7   */\n    tag_172:\n        /* \"anonimity/0.1-ETH-Anonymity.sol\":19958:20068  function updateVerifier(address _newVerifier) external onlyOwner {... */\n      pop\n      tag_173\n      0x04\n      dup1\n      calldatasize\n      sub\n        /* \"--CODEGEN--\":13:15   */\n      0x20\n        /* \"--CODEGEN--\":8:11   */\n      dup2\n        /* \"--CODEGEN--\":5:16   */\n      lt\n        /* \"--CODEGEN--\":2:4   */\n      iszero\n      tag_174\n      jumpi\n        /* \"--CODEGEN--\":29:30   */\n      0x00\n        /* \"--CODEGEN--\":26:27   */\n      dup1\n        /* \"--CODEGEN--\":19:31   */\n      revert\n        /* \"--CODEGEN--\":2:4   */\n    tag_174:\n        /* \"anonimity/0.1-ETH-Anonymity.sol\":19958:20068  function updateVerifier(address _newVerifier) external onlyOwner {... */\n      dup2\n      add\n      swap1\n      dup1\n      dup1\n      calldataload\n      0xffffffffffffffffffffffffffffffffffffffff\n      and\n      swap1\n      0x20\n      add\n      swap1\n      swap3\n      swap2\n      swap1\n      pop\n      pop\n      pop\n      tag_175\n      jump\t// in\n    tag_173:\n      stop\n        /* \"anonimity/0.1-ETH-Anonymity.sol\":13476:13507  uint256 public coinDenomination */\n    tag_33:\n      callvalue\n        /* \"--CODEGEN--\":8:17   */\n      dup1\n        /* \"--CODEGEN--\":5:7   */\n      iszero\n      tag_176\n      jumpi\n        /* \"--CODEGEN--\":30:31   */\n      0x00\n        /* \"--CODEGEN--\":27:28   */\n      dup1\n        /* \"--CODEGEN--\":20:32   */\n      revert\n        /* \"--CODEGEN--\":5:7   */\n    tag_176:\n        /* \"anonimity/0.1-ETH-Anonymity.sol\":13476:13507  uint256 public coinDenomination */\n      pop\n      tag_177\n      tag_178\n      jump\t// in\n    tag_177:\n      mload(0x40)\n      dup1\n      dup3\n      dup2\n      mstore\n      0x20\n      add\n      swap2\n      pop\n      pop\n      mload(0x40)\n      dup1\n      swap2\n      sub\n      swap1\n      return\n        /* \"anonimity/0.1-ETH-Anonymity.sol\":13852:13882  uint256 public lastRewardBlock */\n    tag_34:\n      callvalue\n        /* \"--CODEGEN--\":8:17   */\n      dup1\n        /* \"--CODEGEN--\":5:7   */\n      iszero\n      tag_179\n      jumpi\n        /* \"--CODEGEN--\":30:31   */\n      0x00\n        /* \"--CODEGEN--\":27:28   */\n      dup1\n        /* \"--CODEGEN--\":20:32   */\n      revert\n        /* \"--CODEGEN--\":5:7   */\n    tag_179:\n        /* \"anonimity/0.1-ETH-Anonymity.sol\":13852:13882  uint256 public lastRewardBlock */\n      pop\n      tag_180\n      tag_181\n      jump\t// in\n    tag_180:\n      mload(0x40)\n      dup1\n      dup3\n      dup2\n      mstore\n      0x20\n      add\n      swap2\n      pop\n      pop\n      mload(0x40)\n      dup1\n      swap2\n      sub\n      swap1\n      return\n        /* \"anonimity/0.1-ETH-Anonymity.sol\":13511:13545  uint256 public initM87Denomination */\n    tag_35:\n      callvalue\n        /* \"--CODEGEN--\":8:17   */\n      dup1\n        /* \"--CODEGEN--\":5:7   */\n      iszero\n      tag_182\n      jumpi\n        /* \"--CODEGEN--\":30:31   */\n      0x00\n        /* \"--CODEGEN--\":27:28   */\n      dup1\n        /* \"--CODEGEN--\":20:32   */\n      revert\n        /* \"--CODEGEN--\":5:7   */\n    tag_182:\n        /* \"anonimity/0.1-ETH-Anonymity.sol\":13511:13545  uint256 public initM87Denomination */\n      pop\n      tag_183\n      tag_184\n      jump\t// in\n    tag_183:\n      mload(0x40)\n      dup1\n      dup3\n      dup2\n      mstore\n      0x20\n      add\n      swap2\n      pop\n      pop\n      mload(0x40)\n      dup1\n      swap2\n      sub\n      swap1\n      return\n        /* \"anonimity/0.1-ETH-Anonymity.sol\":20325:20424  function changeTreasury(address _newTreasury) external onlyOwner {... */\n    tag_36:\n      callvalue\n        /* \"--CODEGEN--\":8:17   */\n      dup1\n        /* \"--CODEGEN--\":5:7   */\n      iszero\n      tag_185\n      jumpi\n        /* \"--CODEGEN--\":30:31   */\n      0x00\n        /* \"--CODEGEN--\":27:28   */\n      dup1\n        /* \"--CODEGEN--\":20:32   */\n      revert\n        /* \"--CODEGEN--\":5:7   */\n    tag_185:\n        /* \"anonimity/0.1-ETH-Anonymity.sol\":20325:20424  function changeTreasury(address _newTreasury) external onlyOwner {... */\n      pop\n      tag_186\n      0x04\n      dup1\n      calldatasize\n      sub\n        /* \"--CODEGEN--\":13:15   */\n      0x20\n        /* \"--CODEGEN--\":8:11   */\n      dup2\n        /* \"--CODEGEN--\":5:16   */\n      lt\n        /* \"--CODEGEN--\":2:4   */\n      iszero\n      tag_187\n      jumpi\n        /* \"--CODEGEN--\":29:30   */\n      0x00\n        /* \"--CODEGEN--\":26:27   */\n      dup1\n        /* \"--CODEGEN--\":19:31   */\n      revert\n        /* \"--CODEGEN--\":2:4   */\n    tag_187:\n        /* \"anonimity/0.1-ETH-Anonymity.sol\":20325:20424  function changeTreasury(address _newTreasury) external onlyOwner {... */\n      dup2\n      add\n      swap1\n      dup1\n      dup1\n      calldataload\n      0xffffffffffffffffffffffffffffffffffffffff\n      and\n      swap1\n      0x20\n      add\n      swap1\n      swap3\n      swap2\n      swap1\n      pop\n      pop\n      pop\n      tag_188\n      jump\t// in\n    tag_186:\n      stop\n        /* \"anonimity/0.1-ETH-Anonymity.sol\":17224:18378  function deposit(bytes32 _commitment) external payable nonReentrant returns (bytes32 commitment, uint32 insertedIndex, uint256 blocktime, uint256 M87Deno, uint256 fee){... */\n    tag_37:\n      tag_189\n      0x04\n      dup1\n      calldatasize\n      sub\n        /* \"--CODEGEN--\":13:15   */\n      0x20\n        /* \"--CODEGEN--\":8:11   */\n      dup2\n        /* \"--CODEGEN--\":5:16   */\n      lt\n        /* \"--CODEGEN--\":2:4   */\n      iszero\n      tag_190\n      jumpi\n        /* \"--CODEGEN--\":29:30   */\n      0x00\n        /* \"--CODEGEN--\":26:27   */\n      dup1\n        /* \"--CODEGEN--\":19:31   */\n      revert\n        /* \"--CODEGEN--\":2:4   */\n    tag_190:\n        /* \"anonimity/0.1-ETH-Anonymity.sol\":17224:18378  function deposit(bytes32 _commitment) external payable nonReentrant returns (bytes32 commitment, uint32 insertedIndex, uint256 blocktime, uint256 M87Deno, uint256 fee){... */\n      dup2\n      add\n      swap1\n      dup1\n      dup1\n      calldataload\n      swap1\n      0x20\n      add\n      swap1\n      swap3\n      swap2\n      swap1\n      pop\n      pop\n      pop\n      tag_191\n      jump\t// in\n    tag_189:\n      mload(0x40)\n      dup1\n      dup7\n      dup2\n      mstore\n      0x20\n      add\n      dup6\n      0xffffffff\n      and\n      0xffffffff\n      and\n      dup2\n      mstore\n      0x20\n      add\n      dup5\n      dup2\n      mstore\n      0x20\n      add\n      dup4\n      dup2\n      mstore\n      0x20\n      add\n      dup3\n      dup2\n      mstore\n      0x20\n      add\n      swap6\n      pop\n      pop\n      pop\n      pop\n      pop\n      pop\n      mload(0x40)\n      dup1\n      swap2\n      sub\n      swap1\n      return\n        /* \"anonimity/0.1-ETH-Anonymity.sol\":13919:13947  uint256 public accumulateM87 */\n    tag_38:\n      callvalue\n        /* \"--CODEGEN--\":8:17   */\n      dup1\n        /* \"--CODEGEN--\":5:7   */\n      iszero\n      tag_192\n      jumpi\n        /* \"--CODEGEN--\":30:31   */\n      0x00\n        /* \"--CODEGEN--\":27:28   */\n      dup1\n        /* \"--CODEGEN--\":20:32   */\n      revert\n        /* \"--CODEGEN--\":5:7   */\n    tag_192:\n        /* \"anonimity/0.1-ETH-Anonymity.sol\":13919:13947  uint256 public accumulateM87 */\n      pop\n      tag_193\n      tag_194\n      jump\t// in\n    tag_193:\n      mload(0x40)\n      dup1\n      dup3\n      dup2\n      mstore\n      0x20\n      add\n      swap2\n      pop\n      pop\n      mload(0x40)\n      dup1\n      swap2\n      sub\n      swap1\n      return\n        /* \"anonimity/0.1-ETH-Anonymity.sol\":10999:11092  function getLastRoot() public view returns(bytes32) {... */\n    tag_39:\n      callvalue\n        /* \"--CODEGEN--\":8:17   */\n      dup1\n        /* \"--CODEGEN--\":5:7   */\n      iszero\n      tag_195\n      jumpi\n        /* \"--CODEGEN--\":30:31   */\n      0x00\n        /* \"--CODEGEN--\":27:28   */\n      dup1\n        /* \"--CODEGEN--\":20:32   */\n      revert\n        /* \"--CODEGEN--\":5:7   */\n    tag_195:\n        /* \"anonimity/0.1-ETH-Anonymity.sol\":10999:11092  function getLastRoot() public view returns(bytes32) {... */\n      pop\n      tag_196\n      tag_197\n      jump\t// in\n    tag_196:\n      mload(0x40)\n      dup1\n      dup3\n      dup2\n      mstore\n      0x20\n      add\n      swap2\n      pop\n      pop\n      mload(0x40)\n      dup1\n      swap2\n      sub\n      swap1\n      return\n        /* \"anonimity/0.1-ETH-Anonymity.sol\":8776:8815  bytes32[ROOT_HISTORY_SIZE] public roots */\n    tag_40:\n      callvalue\n        /* \"--CODEGEN--\":8:17   */\n      dup1\n        /* \"--CODEGEN--\":5:7   */\n      iszero\n      tag_198\n      jumpi\n        /* \"--CODEGEN--\":30:31   */\n      0x00\n        /* \"--CODEGEN--\":27:28   */\n      dup1\n        /* \"--CODEGEN--\":20:32   */\n      revert\n        /* \"--CODEGEN--\":5:7   */\n    tag_198:\n        /* \"anonimity/0.1-ETH-Anonymity.sol\":8776:8815  bytes32[ROOT_HISTORY_SIZE] public roots */\n      pop\n      tag_199\n      0x04\n      dup1\n      calldatasize\n      sub\n        /* \"--CODEGEN--\":13:15   */\n      0x20\n        /* \"--CODEGEN--\":8:11   */\n      dup2\n        /* \"--CODEGEN--\":5:16   */\n      lt\n        /* \"--CODEGEN--\":2:4   */\n      iszero\n      tag_200\n      jumpi\n        /* \"--CODEGEN--\":29:30   */\n      0x00\n        /* \"--CODEGEN--\":26:27   */\n      dup1\n        /* \"--CODEGEN--\":19:31   */\n      revert\n        /* \"--CODEGEN--\":2:4   */\n    tag_200:\n        /* \"anonimity/0.1-ETH-Anonymity.sol\":8776:8815  bytes32[ROOT_HISTORY_SIZE] public roots */\n      dup2\n      add\n      swap1\n      dup1\n      dup1\n      calldataload\n      swap1\n      0x20\n      add\n      swap1\n      swap3\n      swap2\n      swap1\n      pop\n      pop\n      pop\n      tag_201\n      jump\t// in\n    tag_199:\n      mload(0x40)\n      dup1\n      dup3\n      dup2\n      mstore\n      0x20\n      add\n      swap2\n      pop\n      pop\n      mload(0x40)\n      dup1\n      swap2\n      sub\n      swap1\n      return\n        /* \"anonimity/0.1-ETH-Anonymity.sol\":14168:14199  uint256[4] public rewardAmounts */\n    tag_41:\n      callvalue\n        /* \"--CODEGEN--\":8:17   */\n      dup1\n        /* \"--CODEGEN--\":5:7   */\n      iszero\n      tag_202\n      jumpi\n        /* \"--CODEGEN--\":30:31   */\n      0x00\n        /* \"--CODEGEN--\":27:28   */\n      dup1\n        /* \"--CODEGEN--\":20:32   */\n      revert\n        /* \"--CODEGEN--\":5:7   */\n    tag_202:\n        /* \"anonimity/0.1-ETH-Anonymity.sol\":14168:14199  uint256[4] public rewardAmounts */\n      pop\n      tag_203\n      0x04\n      dup1\n      calldatasize\n      sub\n        /* \"--CODEGEN--\":13:15   */\n      0x20\n        /* \"--CODEGEN--\":8:11   */\n      dup2\n        /* \"--CODEGEN--\":5:16   */\n      lt\n        /* \"--CODEGEN--\":2:4   */\n      iszero\n      tag_204\n      jumpi\n        /* \"--CODEGEN--\":29:30   */\n      0x00\n        /* \"--CODEGEN--\":26:27   */\n      dup1\n        /* \"--CODEGEN--\":19:31   */\n      revert\n        /* \"--CODEGEN--\":2:4   */\n    tag_204:\n        /* \"anonimity/0.1-ETH-Anonymity.sol\":14168:14199  uint256[4] public rewardAmounts */\n      dup2\n      add\n      swap1\n      dup1\n      dup1\n      calldataload\n      swap1\n      0x20\n      add\n      swap1\n      swap3\n      swap2\n      swap1\n      pop\n      pop\n      pop\n      tag_205\n      jump\t// in\n    tag_203:\n      mload(0x40)\n      dup1\n      dup3\n      dup2\n      mstore\n      0x20\n      add\n      swap2\n      pop\n      pop\n      mload(0x40)\n      dup1\n      swap2\n      sub\n      swap1\n      return\n        /* \"anonimity/0.1-ETH-Anonymity.sol\":20072:20215  function updateM87Token(address _newToken) external onlyOwner {... */\n    tag_42:\n      callvalue\n        /* \"--CODEGEN--\":8:17   */\n      dup1\n        /* \"--CODEGEN--\":5:7   */\n      iszero\n      tag_206\n      jumpi\n        /* \"--CODEGEN--\":30:31   */\n      0x00\n        /* \"--CODEGEN--\":27:28   */\n      dup1\n        /* \"--CODEGEN--\":20:32   */\n      revert\n        /* \"--CODEGEN--\":5:7   */\n    tag_206:\n        /* \"anonimity/0.1-ETH-Anonymity.sol\":20072:20215  function updateM87Token(address _newToken) external onlyOwner {... */\n      pop\n      tag_207\n      0x04\n      dup1\n      calldatasize\n      sub\n        /* \"--CODEGEN--\":13:15   */\n      0x20\n        /* \"--CODEGEN--\":8:11   */\n      dup2\n        /* \"--CODEGEN--\":5:16   */\n      lt\n        /* \"--CODEGEN--\":2:4   */\n      iszero\n      tag_208\n      jumpi\n        /* \"--CODEGEN--\":29:30   */\n      0x00\n        /* \"--CODEGEN--\":26:27   */\n      dup1\n        /* \"--CODEGEN--\":19:31   */\n      revert\n        /* \"--CODEGEN--\":2:4   */\n    tag_208:\n        /* \"anonimity/0.1-ETH-Anonymity.sol\":20072:20215  function updateM87Token(address _newToken) external onlyOwner {... */\n      dup2\n      add\n      swap1\n      dup1\n      dup1\n      calldataload\n      0xffffffffffffffffffffffffffffffffffffffff\n      and\n      swap1\n      0x20\n      add\n      swap1\n      swap3\n      swap2\n      swap1\n      pop\n      pop\n      pop\n      tag_209\n      jump\t// in\n    tag_207:\n      stop\n        /* \"anonimity/0.1-ETH-Anonymity.sol\":8726:8772  uint32 public constant ROOT_HISTORY_SIZE = 100 */\n    tag_43:\n      callvalue\n        /* \"--CODEGEN--\":8:17   */\n      dup1\n        /* \"--CODEGEN--\":5:7   */\n      iszero\n      tag_210\n      jumpi\n        /* \"--CODEGEN--\":30:31   */\n      0x00\n        /* \"--CODEGEN--\":27:28   */\n      dup1\n        /* \"--CODEGEN--\":20:32   */\n      revert\n        /* \"--CODEGEN--\":5:7   */\n    tag_210:\n        /* \"anonimity/0.1-ETH-Anonymity.sol\":8726:8772  uint32 public constant ROOT_HISTORY_SIZE = 100 */\n      pop\n      tag_211\n      tag_212\n      jump\t// in\n    tag_211:\n      mload(0x40)\n      dup1\n      dup3\n      0xffffffff\n      and\n      0xffffffff\n      and\n      dup2\n      mstore\n      0x20\n      add\n      swap2\n      pop\n      pop\n      mload(0x40)\n      dup1\n      swap2\n      sub\n      swap1\n      return\n        /* \"anonimity/0.1-ETH-Anonymity.sol\":14313:14359  uint256 public overMinEth = 250000000000000000 */\n    tag_44:\n      callvalue\n        /* \"--CODEGEN--\":8:17   */\n      dup1\n        /* \"--CODEGEN--\":5:7   */\n      iszero\n      tag_213\n      jumpi\n        /* \"--CODEGEN--\":30:31   */\n      0x00\n        /* \"--CODEGEN--\":27:28   */\n      dup1\n        /* \"--CODEGEN--\":20:32   */\n      revert\n        /* \"--CODEGEN--\":5:7   */\n    tag_213:\n        /* \"anonimity/0.1-ETH-Anonymity.sol\":14313:14359  uint256 public overMinEth = 250000000000000000 */\n      pop\n      tag_214\n      tag_215\n      jump\t// in\n    tag_214:\n      mload(0x40)\n      dup1\n      dup3\n      dup2\n      mstore\n      0x20\n      add\n      swap2\n      pop\n      pop\n      mload(0x40)\n      dup1\n      swap2\n      sub\n      swap1\n      return\n        /* \"anonimity/0.1-ETH-Anonymity.sol\":20219:20321  function changeMessierOwner(address _newOwner) external onlyOwner {... */\n    tag_45:\n      callvalue\n        /* \"--CODEGEN--\":8:17   */\n      dup1\n        /* \"--CODEGEN--\":5:7   */\n      iszero\n      tag_216\n      jumpi\n        /* \"--CODEGEN--\":30:31   */\n      0x00\n        /* \"--CODEGEN--\":27:28   */\n      dup1\n        /* \"--CODEGEN--\":20:32   */\n      revert\n        /* \"--CODEGEN--\":5:7   */\n    tag_216:\n        /* \"anonimity/0.1-ETH-Anonymity.sol\":20219:20321  function changeMessierOwner(address _newOwner) external onlyOwner {... */\n      pop\n      tag_217\n      0x04\n      dup1\n      calldatasize\n      sub\n        /* \"--CODEGEN--\":13:15   */\n      0x20\n        /* \"--CODEGEN--\":8:11   */\n      dup2\n        /* \"--CODEGEN--\":5:16   */\n      lt\n        /* \"--CODEGEN--\":2:4   */\n      iszero\n      tag_218\n      jumpi\n        /* \"--CODEGEN--\":29:30   */\n      0x00\n        /* \"--CODEGEN--\":26:27   */\n      dup1\n        /* \"--CODEGEN--\":19:31   */\n      revert\n        /* \"--CODEGEN--\":2:4   */\n    tag_218:\n        /* \"anonimity/0.1-ETH-Anonymity.sol\":20219:20321  function changeMessierOwner(address _newOwner) external onlyOwner {... */\n      dup2\n      add\n      swap1\n      dup1\n      dup1\n      calldataload\n      0xffffffffffffffffffffffffffffffffffffffff\n      and\n      swap1\n      0x20\n      add\n      swap1\n      swap3\n      swap2\n      swap1\n      pop\n      pop\n      pop\n      tag_219\n      jump\t// in\n    tag_217:\n      stop\n        /* \"anonimity/0.1-ETH-Anonymity.sol\":14203:14230  uint256 public collectedFee */\n    tag_46:\n      callvalue\n        /* \"--CODEGEN--\":8:17   */\n      dup1\n        /* \"--CODEGEN--\":5:7   */\n      iszero\n      tag_220\n      jumpi\n        /* \"--CODEGEN--\":30:31   */\n      0x00\n        /* \"--CODEGEN--\":27:28   */\n      dup1\n        /* \"--CODEGEN--\":20:32   */\n      revert\n        /* \"--CODEGEN--\":5:7   */\n    tag_220:\n        /* \"anonimity/0.1-ETH-Anonymity.sol\":14203:14230  uint256 public collectedFee */\n      pop\n      tag_221\n      tag_222\n      jump\t// in\n    tag_221:\n      mload(0x40)\n      dup1\n      dup3\n      dup2\n      mstore\n      0x20\n      add\n      swap2\n      pop\n      pop\n      mload(0x40)\n      dup1\n      swap2\n      sub\n      swap1\n      return\n        /* \"anonimity/0.1-ETH-Anonymity.sol\":8631:8653  bytes32[] public zeros */\n    tag_47:\n      callvalue\n        /* \"--CODEGEN--\":8:17   */\n      dup1\n        /* \"--CODEGEN--\":5:7   */\n      iszero\n      tag_223\n      jumpi\n        /* \"--CODEGEN--\":30:31   */\n      0x00\n        /* \"--CODEGEN--\":27:28   */\n      dup1\n        /* \"--CODEGEN--\":20:32   */\n      revert\n        /* \"--CODEGEN--\":5:7   */\n    tag_223:\n        /* \"anonimity/0.1-ETH-Anonymity.sol\":8631:8653  bytes32[] public zeros */\n      pop\n      tag_224\n      0x04\n      dup1\n      calldatasize\n      sub\n        /* \"--CODEGEN--\":13:15   */\n      0x20\n        /* \"--CODEGEN--\":8:11   */\n      dup2\n        /* \"--CODEGEN--\":5:16   */\n      lt\n        /* \"--CODEGEN--\":2:4   */\n      iszero\n      tag_225\n      jumpi\n        /* \"--CODEGEN--\":29:30   */\n      0x00\n        /* \"--CODEGEN--\":26:27   */\n      dup1\n        /* \"--CODEGEN--\":19:31   */\n      revert\n        /* \"--CODEGEN--\":2:4   */\n    tag_225:\n        /* \"anonimity/0.1-ETH-Anonymity.sol\":8631:8653  bytes32[] public zeros */\n      dup2\n      add\n      swap1\n      dup1\n      dup1\n      calldataload\n      swap1\n      0x20\n      add\n      swap1\n      swap3\n      swap2\n      swap1\n      pop\n      pop\n      pop\n      tag_226\n      jump\t// in\n    tag_224:\n      mload(0x40)\n      dup1\n      dup3\n      dup2\n      mstore\n      0x20\n      add\n      swap2\n      pop\n      pop\n      mload(0x40)\n      dup1\n      swap2\n      sub\n      swap1\n      return\n        /* \"anonimity/0.1-ETH-Anonymity.sol\":8278:8392  uint256 public constant ZERO_VALUE = 21663839004416932945382355908790599225266501822907911457504978515578255421292 */\n    tag_48:\n      callvalue\n        /* \"--CODEGEN--\":8:17   */\n      dup1\n        /* \"--CODEGEN--\":5:7   */\n      iszero\n      tag_227\n      jumpi\n        /* \"--CODEGEN--\":30:31   */\n      0x00\n        /* \"--CODEGEN--\":27:28   */\n      dup1\n        /* \"--CODEGEN--\":20:32   */\n      revert\n        /* \"--CODEGEN--\":5:7   */\n    tag_227:\n        /* \"anonimity/0.1-ETH-Anonymity.sol\":8278:8392  uint256 public constant ZERO_VALUE = 21663839004416932945382355908790599225266501822907911457504978515578255421292 */\n      pop\n      tag_228\n      tag_229\n      jump\t// in\n    tag_228:\n      mload(0x40)\n      dup1\n      dup3\n      dup2\n      mstore\n      0x20\n      add\n      swap2\n      pop\n      pop\n      mload(0x40)\n      dup1\n      swap2\n      sub\n      swap1\n      return\n        /* \"anonimity/0.1-ETH-Anonymity.sol\":14234:14272  uint256 public feeToCollectPercent = 2 */\n    tag_49:\n      callvalue\n        /* \"--CODEGEN--\":8:17   */\n      dup1\n        /* \"--CODEGEN--\":5:7   */\n      iszero\n      tag_230\n      jumpi\n        /* \"--CODEGEN--\":30:31   */\n      0x00\n        /* \"--CODEGEN--\":27:28   */\n      dup1\n        /* \"--CODEGEN--\":20:32   */\n      revert\n        /* \"--CODEGEN--\":5:7   */\n    tag_230:\n        /* \"anonimity/0.1-ETH-Anonymity.sol\":14234:14272  uint256 public feeToCollectPercent = 2 */\n      pop\n      tag_231\n      tag_232\n      jump\t// in\n    tag_231:\n      mload(0x40)\n      dup1\n      dup3\n      dup2\n      mstore\n      0x20\n      add\n      swap2\n      pop\n      pop\n      mload(0x40)\n      dup1\n      swap2\n      sub\n      swap1\n      return\n        /* \"anonimity/0.1-ETH-Anonymity.sol\":8596:8627  bytes32[] public filledSubtrees */\n    tag_50:\n      callvalue\n        /* \"--CODEGEN--\":8:17   */\n      dup1\n        /* \"--CODEGEN--\":5:7   */\n      iszero\n      tag_233\n      jumpi\n        /* \"--CODEGEN--\":30:31   */\n      0x00\n        /* \"--CODEGEN--\":27:28   */\n      dup1\n        /* \"--CODEGEN--\":20:32   */\n      revert\n        /* \"--CODEGEN--\":5:7   */\n    tag_233:\n        /* \"anonimity/0.1-ETH-Anonymity.sol\":8596:8627  bytes32[] public filledSubtrees */\n      pop\n      tag_234\n      0x04\n      dup1\n      calldatasize\n      sub\n        /* \"--CODEGEN--\":13:15   */\n      0x20\n        /* \"--CODEGEN--\":8:11   */\n      dup2\n        /* \"--CODEGEN--\":5:16   */\n      lt\n        /* \"--CODEGEN--\":2:4   */\n      iszero\n      tag_235\n      jumpi\n        /* \"--CODEGEN--\":29:30   */\n      0x00\n        /* \"--CODEGEN--\":26:27   */\n      dup1\n        /* \"--CODEGEN--\":19:31   */\n      revert\n        /* \"--CODEGEN--\":2:4   */\n    tag_235:\n        /* \"anonimity/0.1-ETH-Anonymity.sol\":8596:8627  bytes32[] public filledSubtrees */\n      dup2\n      add\n      swap1\n      dup1\n      dup1\n      calldataload\n      swap1\n      0x20\n      add\n      swap1\n      swap3\n      swap2\n      swap1\n      pop\n      pop\n      pop\n      tag_236\n      jump\t// in\n    tag_234:\n      mload(0x40)\n      dup1\n      dup3\n      dup2\n      mstore\n      0x20\n      add\n      swap2\n      pop\n      pop\n      mload(0x40)\n      dup1\n      swap2\n      sub\n      swap1\n      return\n        /* \"anonimity/0.1-ETH-Anonymity.sol\":23932:24068  function setDuration(uint256 _duration) public onlyOwner {... */\n    tag_51:\n      callvalue\n        /* \"--CODEGEN--\":8:17   */\n      dup1\n        /* \"--CODEGEN--\":5:7   */\n      iszero\n      tag_237\n      jumpi\n        /* \"--CODEGEN--\":30:31   */\n      0x00\n        /* \"--CODEGEN--\":27:28   */\n      dup1\n        /* \"--CODEGEN--\":20:32   */\n      revert\n        /* \"--CODEGEN--\":5:7   */\n    tag_237:\n        /* \"anonimity/0.1-ETH-Anonymity.sol\":23932:24068  function setDuration(uint256 _duration) public onlyOwner {... */\n      pop\n      tag_238\n      0x04\n      dup1\n      calldatasize\n      sub\n        /* \"--CODEGEN--\":13:15   */\n      0x20\n        /* \"--CODEGEN--\":8:11   */\n      dup2\n        /* \"--CODEGEN--\":5:16   */\n      lt\n        /* \"--CODEGEN--\":2:4   */\n      iszero\n      tag_239\n      jumpi\n        /* \"--CODEGEN--\":29:30   */\n      0x00\n        /* \"--CODEGEN--\":26:27   */\n      dup1\n        /* \"--CODEGEN--\":19:31   */\n      revert\n        /* \"--CODEGEN--\":2:4   */\n    tag_239:\n        /* \"anonimity/0.1-ETH-Anonymity.sol\":23932:24068  function setDuration(uint256 _duration) public onlyOwner {... */\n      dup2\n      add\n      swap1\n      dup1\n      dup1\n      calldataload\n      swap1\n      0x20\n      add\n      swap1\n      swap3\n      swap2\n      swap1\n      pop\n      pop\n      pop\n      tag_240\n      jump\t// in\n    tag_238:\n      stop\n        /* \"anonimity/0.1-ETH-Anonymity.sol\":13714:13733  IERC20 public token */\n    tag_52:\n      callvalue\n        /* \"--CODEGEN--\":8:17   */\n      dup1\n        /* \"--CODEGEN--\":5:7   */\n      iszero\n      tag_241\n      jumpi\n        /* \"--CODEGEN--\":30:31   */\n      0x00\n        /* \"--CODEGEN--\":27:28   */\n      dup1\n        /* \"--CODEGEN--\":20:32   */\n      revert\n        /* \"--CODEGEN--\":5:7   */\n    tag_241:\n        /* \"anonimity/0.1-ETH-Anonymity.sol\":13714:13733  IERC20 public token */\n      pop\n      tag_242\n      tag_243\n      jump\t// in\n    tag_242:\n      mload(0x40)\n      dup1\n      dup3\n      0xffffffffffffffffffffffffffffffffffffffff\n      and\n      0xffffffffffffffffffffffffffffffffffffffff\n      and\n      dup2\n      mstore\n      0x20\n      add\n      swap2\n      pop\n      pop\n      mload(0x40)\n      dup1\n      swap2\n      sub\n      swap1\n      return\n        /* \"anonimity/0.1-ETH-Anonymity.sol\":8695:8722  uint32 public nextIndex = 0 */\n    tag_53:\n      callvalue\n        /* \"--CODEGEN--\":8:17   */\n      dup1\n        /* \"--CODEGEN--\":5:7   */\n      iszero\n      tag_244\n      jumpi\n        /* \"--CODEGEN--\":30:31   */\n      0x00\n        /* \"--CODEGEN--\":27:28   */\n      dup1\n        /* \"--CODEGEN--\":20:32   */\n      revert\n        /* \"--CODEGEN--\":5:7   */\n    tag_244:\n        /* \"anonimity/0.1-ETH-Anonymity.sol\":8695:8722  uint32 public nextIndex = 0 */\n      pop\n      tag_245\n      tag_246\n      jump\t// in\n    tag_245:\n      mload(0x40)\n      dup1\n      dup3\n      0xffffffff\n      and\n      0xffffffff\n      and\n      dup2\n      mstore\n      0x20\n      add\n      swap2\n      pop\n      pop\n      mload(0x40)\n      dup1\n      swap2\n      sub\n      swap1\n      return\n        /* \"anonimity/0.1-ETH-Anonymity.sol\":14363:14404  IUniswapV2Router02 public uniswapV2Router */\n    tag_67:\n      0x8a\n      0x00\n      swap1\n      sload\n      swap1\n      0x0100\n      exp\n      swap1\n      div\n      0xffffffffffffffffffffffffffffffffffffffff\n      and\n      dup2\n      jump\t// out\n        /* \"anonimity/0.1-ETH-Anonymity.sol\":18382:19954  function withdraw(bytes calldata _proof, bytes32 _root, bytes32 _nullifierHash, address payable _recipient, address payable _relayer, uint256 _relayerFee, uint256 _refund) external payable nonReentrant {... */\n    tag_73:\n        /* \"anonimity/0.1-ETH-Anonymity.sol\":12721:12722  1 */\n      0x01\n        /* \"anonimity/0.1-ETH-Anonymity.sol\":12704:12717  _guardCounter */\n      0x68\n      0x00\n        /* \"anonimity/0.1-ETH-Anonymity.sol\":12704:12722  _guardCounter += 1 */\n      dup3\n      dup3\n      sload\n      add\n      swap3\n      pop\n      pop\n      dup2\n      swap1\n      sstore\n      pop\n        /* \"anonimity/0.1-ETH-Anonymity.sol\":12732:12752  uint256 localCounter */\n      0x00\n        /* \"anonimity/0.1-ETH-Anonymity.sol\":12755:12768  _guardCounter */\n      sload(0x68)\n        /* \"anonimity/0.1-ETH-Anonymity.sol\":12732:12768  uint256 localCounter = _guardCounter */\n      swap1\n      pop\n        /* \"anonimity/0.1-ETH-Anonymity.sol\":18609:18610  0 */\n      0x00\n        /* \"anonimity/0.1-ETH-Anonymity.sol\":18598:18605  _refund */\n      dup3\n        /* \"anonimity/0.1-ETH-Anonymity.sol\":18598:18610  _refund == 0 */\n      eq\n        /* \"anonimity/0.1-ETH-Anonymity.sol\":18590:18633  require(_refund == 0, \"refund is not zero\") */\n      tag_249\n      jumpi\n      mload(0x40)\n      0x08c379a000000000000000000000000000000000000000000000000000000000\n      dup2\n      mstore\n      0x04\n      add\n      dup1\n      dup1\n      0x20\n      add\n      dup3\n      dup2\n      sub\n      dup3\n      mstore\n      0x12\n      dup2\n      mstore\n      0x20\n      add\n      dup1\n      0x726566756e64206973206e6f74207a65726f0000000000000000000000000000\n      dup2\n      mstore\n      pop\n      0x20\n      add\n      swap2\n      pop\n      pop\n      mload(0x40)\n      dup1\n      swap2\n      sub\n      swap1\n      revert\n    tag_249:\n        /* \"anonimity/0.1-ETH-Anonymity.sol\":18648:18678  Address.isContract(_recipient) */\n      tag_250\n        /* \"anonimity/0.1-ETH-Anonymity.sol\":18667:18677  _recipient */\n      dup6\n        /* \"anonimity/0.1-ETH-Anonymity.sol\":18648:18666  Address.isContract */\n      tag_251\n        /* \"anonimity/0.1-ETH-Anonymity.sol\":18648:18678  Address.isContract(_recipient) */\n      jump\t// in\n    tag_250:\n        /* \"anonimity/0.1-ETH-Anonymity.sol\":18647:18678  !Address.isContract(_recipient) */\n      iszero\n        /* \"anonimity/0.1-ETH-Anonymity.sol\":18639:18714  require(!Address.isContract(_recipient), \"recipient of cannot be contract\") */\n      tag_252\n      jumpi\n      mload(0x40)\n      0x08c379a000000000000000000000000000000000000000000000000000000000\n      dup2\n      mstore\n      0x04\n      add\n      dup1\n      dup1\n      0x20\n      add\n      dup3\n      dup2\n      sub\n      dup3\n      mstore\n      0x1f\n      dup2\n      mstore\n      0x20\n      add\n      dup1\n      0x726563697069656e74206f662063616e6e6f7420626520636f6e747261637400\n      dup2\n      mstore\n      pop\n      0x20\n      add\n      swap2\n      pop\n      pop\n      mload(0x40)\n      dup1\n      swap2\n      sub\n      swap1\n      revert\n    tag_252:\n        /* \"anonimity/0.1-ETH-Anonymity.sol\":18728:18746  isKnownRoot(_root) */\n      tag_253\n        /* \"anonimity/0.1-ETH-Anonymity.sol\":18740:18745  _root */\n      dup8\n        /* \"anonimity/0.1-ETH-Anonymity.sol\":18728:18739  isKnownRoot */\n      tag_144\n        /* \"anonimity/0.1-ETH-Anonymity.sol\":18728:18746  isKnownRoot(_root) */\n      jump\t// in\n    tag_253:\n        /* \"anonimity/0.1-ETH-Anonymity.sol\":18720:18779  require(isKnownRoot(_root), \"Cannot find your merkle root\") */\n      tag_254\n      jumpi\n      mload(0x40)\n      0x08c379a000000000000000000000000000000000000000000000000000000000\n      dup2\n      mstore\n      0x04\n      add\n      dup1\n      dup1\n      0x20\n      add\n      dup3\n      dup2\n      sub\n      dup3\n      mstore\n      0x1c\n      dup2\n      mstore\n      0x20\n      add\n      dup1\n      0x43616e6e6f742066696e6420796f7572206d65726b6c6520726f6f7400000000\n      dup2\n      mstore\n      pop\n      0x20\n      add\n      swap2\n      pop\n      pop\n      mload(0x40)\n      dup1\n      swap2\n      sub\n      swap1\n      revert\n    tag_254:\n        /* \"anonimity/0.1-ETH-Anonymity.sol\":18826:18834  verifier */\n      0x6d\n      0x00\n      swap1\n      sload\n      swap1\n      0x0100\n      exp\n      swap1\n      div\n      0xffffffffffffffffffffffffffffffffffffffff\n      and\n        /* \"anonimity/0.1-ETH-Anonymity.sol\":18826:18846  verifier.verifyProof */\n      0xffffffffffffffffffffffffffffffffffffffff\n      and\n      0x695ef6f9\n        /* \"anonimity/0.1-ETH-Anonymity.sol\":18847:18853  _proof */\n      dup11\n      dup11\n        /* \"anonimity/0.1-ETH-Anonymity.sol\":18826:18959  verifier.verifyProof(_proof, [uint256(_root), uint256(_nullifierHash), uint256(_recipient), uint256(_relayer), _relayerFee, _refund]) */\n      mload(0x40)\n      dup1\n      0xc0\n      add\n      0x40\n      mstore\n      dup1\n        /* \"anonimity/0.1-ETH-Anonymity.sol\":18864:18869  _root */\n      dup13\n        /* \"anonimity/0.1-ETH-Anonymity.sol\":18856:18870  uint256(_root) */\n      0x00\n      shr\n        /* \"anonimity/0.1-ETH-Anonymity.sol\":18826:18959  verifier.verifyProof(_proof, [uint256(_root), uint256(_nullifierHash), uint256(_recipient), uint256(_relayer), _relayerFee, _refund]) */\n      dup2\n      mstore\n      0x20\n      add\n        /* \"anonimity/0.1-ETH-Anonymity.sol\":18880:18894  _nullifierHash */\n      dup12\n        /* \"anonimity/0.1-ETH-Anonymity.sol\":18872:18895  uint256(_nullifierHash) */\n      0x00\n      shr\n        /* \"anonimity/0.1-ETH-Anonymity.sol\":18826:18959  verifier.verifyProof(_proof, [uint256(_root), uint256(_nullifierHash), uint256(_recipient), uint256(_relayer), _relayerFee, _refund]) */\n      dup2\n      mstore\n      0x20\n      add\n        /* \"anonimity/0.1-ETH-Anonymity.sol\":18905:18915  _recipient */\n      dup11\n        /* \"anonimity/0.1-ETH-Anonymity.sol\":18897:18916  uint256(_recipient) */\n      0xffffffffffffffffffffffffffffffffffffffff\n      and\n        /* \"anonimity/0.1-ETH-Anonymity.sol\":18826:18959  verifier.verifyProof(_proof, [uint256(_root), uint256(_nullifierHash), uint256(_recipient), uint256(_relayer), _relayerFee, _refund]) */\n      dup2\n      mstore\n      0x20\n      add\n        /* \"anonimity/0.1-ETH-Anonymity.sol\":18926:18934  _relayer */\n      dup10\n        /* \"anonimity/0.1-ETH-Anonymity.sol\":18918:18935  uint256(_relayer) */\n      0xffffffffffffffffffffffffffffffffffffffff\n      and\n        /* \"anonimity/0.1-ETH-Anonymity.sol\":18826:18959  verifier.verifyProof(_proof, [uint256(_root), uint256(_nullifierHash), uint256(_recipient), uint256(_relayer), _relayerFee, _refund]) */\n      dup2\n      mstore\n      0x20\n      add\n        /* \"anonimity/0.1-ETH-Anonymity.sol\":18937:18948  _relayerFee */\n      dup9\n        /* \"anonimity/0.1-ETH-Anonymity.sol\":18826:18959  verifier.verifyProof(_proof, [uint256(_root), uint256(_nullifierHash), uint256(_recipient), uint256(_relayer), _relayerFee, _refund]) */\n      dup2\n      mstore\n      0x20\n      add\n        /* \"anonimity/0.1-ETH-Anonymity.sol\":18950:18957  _refund */\n      dup8\n        /* \"anonimity/0.1-ETH-Anonymity.sol\":18826:18959  verifier.verifyProof(_proof, [uint256(_root), uint256(_nullifierHash), uint256(_recipient), uint256(_relayer), _relayerFee, _refund]) */\n      dup2\n      mstore\n      pop\n      mload(0x40)\n      dup5\n      0xffffffff\n      and\n      0xe0\n      shl\n      dup2\n      mstore\n      0x04\n      add\n      dup1\n      dup1\n      0x20\n      add\n      dup4\n      mul(0x20, 0x06)\n      dup1\n      dup4\n      dup4\n        /* \"--CODEGEN--\":23:24   */\n      0x00\n        /* \"--CODEGEN--\":8:108   */\n    tag_255:\n        /* \"--CODEGEN--\":33:36   */\n      dup4\n        /* \"--CODEGEN--\":30:31   */\n      dup2\n        /* \"--CODEGEN--\":27:37   */\n      lt\n        /* \"--CODEGEN--\":8:108   */\n      iszero\n      tag_257\n      jumpi\n        /* \"--CODEGEN--\":99:100   */\n      dup1\n        /* \"--CODEGEN--\":94:97   */\n      dup3\n        /* \"--CODEGEN--\":90:101   */\n      add\n        /* \"--CODEGEN--\":84:102   */\n      mload\n        /* \"--CODEGEN--\":80:81   */\n      dup2\n        /* \"--CODEGEN--\":75:78   */\n      dup5\n        /* \"--CODEGEN--\":71:82   */\n      add\n        /* \"--CODEGEN--\":64:103   */\n      mstore\n        /* \"--CODEGEN--\":52:54   */\n      0x20\n        /* \"--CODEGEN--\":49:50   */\n      dup2\n        /* \"--CODEGEN--\":45:55   */\n      add\n        /* \"--CODEGEN--\":40:55   */\n      swap1\n      pop\n        /* \"--CODEGEN--\":8:108   */\n      jump(tag_255)\n    tag_257:\n        /* \"--CODEGEN--\":12:26   */\n      pop\n        /* \"anonimity/0.1-ETH-Anonymity.sol\":18826:18959  verifier.verifyProof(_proof, [uint256(_root), uint256(_nullifierHash), uint256(_recipient), uint256(_relayer), _relayerFee, _refund]) */\n      pop\n      pop\n      pop\n      swap1\n      pop\n      add\n      dup3\n      dup2\n      sub\n      dup3\n      mstore\n      dup6\n      dup6\n      dup3\n      dup2\n      dup2\n      mstore\n      0x20\n      add\n      swap3\n      pop\n        /* \"--CODEGEN--\":30:33   */\n      dup1\n        /* \"--CODEGEN--\":22:28   */\n      dup3\n        /* \"--CODEGEN--\":14:20   */\n      dup5\n        /* \"--CODEGEN--\":1:34   */\n      calldatacopy\n        /* \"--CODEGEN--\":99:100   */\n      0x00\n        /* \"--CODEGEN--\":93:96   */\n      dup2\n        /* \"--CODEGEN--\":85:91   */\n      dup5\n        /* \"--CODEGEN--\":81:97   */\n      add\n        /* \"--CODEGEN--\":74:101   */\n      mstore\n        /* \"--CODEGEN--\":137:141   */\n      0x1f\n        /* \"--CODEGEN--\":133:142   */\n      not\n        /* \"--CODEGEN--\":126:130   */\n      0x1f\n        /* \"--CODEGEN--\":121:124   */\n      dup3\n        /* \"--CODEGEN--\":117:131   */\n      add\n        /* \"--CODEGEN--\":113:143   */\n      and\n        /* \"--CODEGEN--\":106:143   */\n      swap1\n      pop\n        /* \"--CODEGEN--\":169:172   */\n      dup1\n        /* \"--CODEGEN--\":161:167   */\n      dup4\n        /* \"--CODEGEN--\":157:173   */\n      add\n        /* \"--CODEGEN--\":147:173   */\n      swap3\n      pop\n        /* \"anonimity/0.1-ETH-Anonymity.sol\":18826:18959  verifier.verifyProof(_proof, [uint256(_root), uint256(_nullifierHash), uint256(_recipient), uint256(_relayer), _relayerFee, _refund]) */\n      pop\n      pop\n      swap5\n      pop\n      pop\n      pop\n      pop\n      pop\n      0x20\n      mload(0x40)\n      dup1\n      dup4\n      sub\n      dup2\n      0x00\n      dup8\n      dup1\n      extcodesize\n      iszero\n        /* \"--CODEGEN--\":8:17   */\n      dup1\n        /* \"--CODEGEN--\":5:7   */\n      iszero\n      tag_258\n      jumpi\n        /* \"--CODEGEN--\":30:31   */\n      0x00\n        /* \"--CODEGEN--\":27:28   */\n      dup1\n        /* \"--CODEGEN--\":20:32   */\n      revert\n        /* \"--CODEGEN--\":5:7   */\n    tag_258:\n        /* \"anonimity/0.1-ETH-Anonymity.sol\":18826:18959  verifier.verifyProof(_proof, [uint256(_root), uint256(_nullifierHash), uint256(_recipient), uint256(_relayer), _relayerFee, _refund]) */\n      pop\n      gas\n      call\n      iszero\n        /* \"--CODEGEN--\":8:17   */\n      dup1\n        /* \"--CODEGEN--\":5:7   */\n      iszero\n      tag_259\n      jumpi\n        /* \"--CODEGEN--\":45:61   */\n      returndatasize\n        /* \"--CODEGEN--\":42:43   */\n      0x00\n        /* \"--CODEGEN--\":39:40   */\n      dup1\n        /* \"--CODEGEN--\":24:62   */\n      returndatacopy\n        /* \"--CODEGEN--\":77:93   */\n      returndatasize\n        /* \"--CODEGEN--\":74:75   */\n      0x00\n        /* \"--CODEGEN--\":67:94   */\n      revert\n        /* \"--CODEGEN--\":5:7   */\n    tag_259:\n        /* \"anonimity/0.1-ETH-Anonymity.sol\":18826:18959  verifier.verifyProof(_proof, [uint256(_root), uint256(_nullifierHash), uint256(_recipient), uint256(_relayer), _relayerFee, _refund]) */\n      pop\n      pop\n      pop\n      pop\n      mload(0x40)\n      returndatasize\n        /* \"--CODEGEN--\":13:15   */\n      0x20\n        /* \"--CODEGEN--\":8:11   */\n      dup2\n        /* \"--CODEGEN--\":5:16   */\n      lt\n        /* \"--CODEGEN--\":2:4   */\n      iszero\n      tag_260\n      jumpi\n        /* \"--CODEGEN--\":29:30   */\n      0x00\n        /* \"--CODEGEN--\":26:27   */\n      dup1\n        /* \"--CODEGEN--\":19:31   */\n      revert\n        /* \"--CODEGEN--\":2:4   */\n    tag_260:\n        /* \"anonimity/0.1-ETH-Anonymity.sol\":18826:18959  verifier.verifyProof(_proof, [uint256(_root), uint256(_nullifierHash), uint256(_recipient), uint256(_relayer), _relayerFee, _refund]) */\n      dup2\n      add\n      swap1\n      dup1\n      dup1\n      mload\n      swap1\n      0x20\n      add\n      swap1\n      swap3\n      swap2\n      swap1\n      pop\n      pop\n      pop\n        /* \"anonimity/0.1-ETH-Anonymity.sol\":18818:18986  require(verifier.verifyProof(_proof, [uint256(_root), uint256(_nullifierHash), uint256(_recipient), uint256(_relayer), _relayerFee, _refund]), \"Invalid withdraw proof\") */\n      tag_261\n      jumpi\n      mload(0x40)\n      0x08c379a000000000000000000000000000000000000000000000000000000000\n      dup2\n      mstore\n      0x04\n      add\n      dup1\n      dup1\n      0x20\n      add\n      dup3\n      dup2\n      sub\n      dup3\n      mstore\n      0x16\n      dup2\n      mstore\n      0x20\n      add\n      dup1\n      0x496e76616c69642077697468647261772070726f6f6600000000000000000000\n      dup2\n      mstore\n      pop\n      0x20\n      add\n      swap2\n      pop\n      pop\n      mload(0x40)\n      dup1\n      swap2\n      sub\n      swap1\n      revert\n    tag_261:\n        /* \"anonimity/0.1-ETH-Anonymity.sol\":18993:19001  verifier */\n      0x6d\n      0x00\n      swap1\n      sload\n      swap1\n      0x0100\n      exp\n      swap1\n      div\n      0xffffffffffffffffffffffffffffffffffffffff\n      and\n        /* \"anonimity/0.1-ETH-Anonymity.sol\":18993:19017  verifier.verifyNullifier */\n      0xffffffffffffffffffffffffffffffffffffffff\n      and\n      0x32ab8c92\n        /* \"anonimity/0.1-ETH-Anonymity.sol\":19018:19032  _nullifierHash */\n      dup8\n        /* \"anonimity/0.1-ETH-Anonymity.sol\":18993:19033  verifier.verifyNullifier(_nullifierHash) */\n      mload(0x40)\n      dup3\n      0xffffffff\n      and\n      0xe0\n      shl\n      dup2\n      mstore\n      0x04\n      add\n      dup1\n      dup3\n      dup2\n      mstore\n      0x20\n      add\n      swap2\n      pop\n      pop\n      0x00\n      mload(0x40)\n      dup1\n      dup4\n      sub\n      dup2\n      0x00\n      dup8\n      dup1\n      extcodesize\n      iszero\n        /* \"--CODEGEN--\":8:17   */\n      dup1\n        /* \"--CODEGEN--\":5:7   */\n      iszero\n      tag_262\n      jumpi\n        /* \"--CODEGEN--\":30:31   */\n      0x00\n        /* \"--CODEGEN--\":27:28   */\n      dup1\n        /* \"--CODEGEN--\":20:32   */\n      revert\n        /* \"--CODEGEN--\":5:7   */\n    tag_262:\n        /* \"anonimity/0.1-ETH-Anonymity.sol\":18993:19033  verifier.verifyNullifier(_nullifierHash) */\n      pop\n      gas\n      call\n      iszero\n        /* \"--CODEGEN--\":8:17   */\n      dup1\n        /* \"--CODEGEN--\":5:7   */\n      iszero\n      tag_263\n      jumpi\n        /* \"--CODEGEN--\":45:61   */\n      returndatasize\n        /* \"--CODEGEN--\":42:43   */\n      0x00\n        /* \"--CODEGEN--\":39:40   */\n      dup1\n        /* \"--CODEGEN--\":24:62   */\n      returndatacopy\n        /* \"--CODEGEN--\":77:93   */\n      returndatasize\n        /* \"--CODEGEN--\":74:75   */\n      0x00\n        /* \"--CODEGEN--\":67:94   */\n      revert\n        /* \"--CODEGEN--\":5:7   */\n    tag_263:\n        /* \"anonimity/0.1-ETH-Anonymity.sol\":18993:19033  verifier.verifyNullifier(_nullifierHash) */\n      pop\n      pop\n      pop\n      pop\n        /* \"anonimity/0.1-ETH-Anonymity.sol\":19039:19049  uint256 td */\n      0x00\n        /* \"anonimity/0.1-ETH-Anonymity.sol\":19052:19069  tokenDenomination */\n      sload(0x69)\n        /* \"anonimity/0.1-ETH-Anonymity.sol\":19039:19069  uint256 td = tokenDenomination */\n      swap1\n      pop\n        /* \"anonimity/0.1-ETH-Anonymity.sol\":19084:19085  0 */\n      0x00\n        /* \"anonimity/0.1-ETH-Anonymity.sol\":19079:19081  td */\n      dup2\n        /* \"anonimity/0.1-ETH-Anonymity.sol\":19079:19085  td > 0 */\n      gt\n        /* \"anonimity/0.1-ETH-Anonymity.sol\":19075:19137  if (td > 0) {... */\n      iszero\n      tag_264\n      jumpi\n        /* \"anonimity/0.1-ETH-Anonymity.sol\":19095:19130  safeTransfer(token, _recipient, td) */\n      tag_265\n        /* \"anonimity/0.1-ETH-Anonymity.sol\":19108:19113  token */\n      0x6e\n      0x00\n      swap1\n      sload\n      swap1\n      0x0100\n      exp\n      swap1\n      div\n      0xffffffffffffffffffffffffffffffffffffffff\n      and\n        /* \"anonimity/0.1-ETH-Anonymity.sol\":19115:19125  _recipient */\n      dup8\n        /* \"anonimity/0.1-ETH-Anonymity.sol\":19127:19129  td */\n      dup4\n        /* \"anonimity/0.1-ETH-Anonymity.sol\":19095:19107  safeTransfer */\n      tag_266\n        /* \"anonimity/0.1-ETH-Anonymity.sol\":19095:19130  safeTransfer(token, _recipient, td) */\n      jump\t// in\n    tag_265:\n        /* \"anonimity/0.1-ETH-Anonymity.sol\":19075:19137  if (td > 0) {... */\n    tag_264:\n        /* \"anonimity/0.1-ETH-Anonymity.sol\":19142:19161  updateBlockReward() */\n      tag_267\n        /* \"anonimity/0.1-ETH-Anonymity.sol\":19142:19159  updateBlockReward */\n      tag_161\n        /* \"anonimity/0.1-ETH-Anonymity.sol\":19142:19161  updateBlockReward() */\n      jump\t// in\n    tag_267:\n        /* \"anonimity/0.1-ETH-Anonymity.sol\":19167:19185  uint256 relayerFee */\n      0x00\n        /* \"anonimity/0.1-ETH-Anonymity.sol\":19188:19189  0 */\n      dup1\n        /* \"anonimity/0.1-ETH-Anonymity.sol\":19167:19189  uint256 relayerFee = 0 */\n      swap1\n      pop\n        /* \"anonimity/0.1-ETH-Anonymity.sol\":19238:19253  uint256 M87Deno */\n      0x00\n        /* \"anonimity/0.1-ETH-Anonymity.sol\":19256:19291  getAccumulateM87().div(numOfShares) */\n      tag_268\n        /* \"anonimity/0.1-ETH-Anonymity.sol\":19279:19290  numOfShares */\n      sload(0x72)\n        /* \"anonimity/0.1-ETH-Anonymity.sol\":19256:19274  getAccumulateM87() */\n      tag_269\n        /* \"anonimity/0.1-ETH-Anonymity.sol\":19256:19272  getAccumulateM87 */\n      tag_171\n        /* \"anonimity/0.1-ETH-Anonymity.sol\":19256:19274  getAccumulateM87() */\n      jump\t// in\n    tag_269:\n        /* \"anonimity/0.1-ETH-Anonymity.sol\":19256:19278  getAccumulateM87().div */\n      tag_270\n      swap1\n        /* \"anonimity/0.1-ETH-Anonymity.sol\":19256:19291  getAccumulateM87().div(numOfShares) */\n      swap2\n      swap1\n      0xffffffff\n      and\n      jump\t// in\n    tag_268:\n        /* \"anonimity/0.1-ETH-Anonymity.sol\":19238:19291  uint256 M87Deno = getAccumulateM87().div(numOfShares) */\n      swap1\n      pop\n        /* \"anonimity/0.1-ETH-Anonymity.sol\":19311:19312  0 */\n      0x00\n        /* \"anonimity/0.1-ETH-Anonymity.sol\":19301:19308  M87Deno */\n      dup2\n        /* \"anonimity/0.1-ETH-Anonymity.sol\":19301:19312  M87Deno > 0 */\n      gt\n        /* \"anonimity/0.1-ETH-Anonymity.sol\":19297:19404  if (M87Deno > 0) {... */\n      iszero\n      tag_271\n      jumpi\n        /* \"anonimity/0.1-ETH-Anonymity.sol\":19339:19346  M87Deno */\n      dup1\n        /* \"anonimity/0.1-ETH-Anonymity.sol\":19322:19335  accumulateM87 */\n      0x75\n      0x00\n        /* \"anonimity/0.1-ETH-Anonymity.sol\":19322:19346  accumulateM87 -= M87Deno */\n      dup3\n      dup3\n      sload\n      sub\n      swap3\n      pop\n      pop\n      dup2\n      swap1\n      sstore\n      pop\n        /* \"anonimity/0.1-ETH-Anonymity.sol\":19354:19397  safeTransfer(M87Token, _recipient, M87Deno) */\n      tag_272\n        /* \"anonimity/0.1-ETH-Anonymity.sol\":19367:19375  M87Token */\n      0x6f\n      0x00\n      swap1\n      sload\n      swap1\n      0x0100\n      exp\n      swap1\n      div\n      0xffffffffffffffffffffffffffffffffffffffff\n      and\n        /* \"anonimity/0.1-ETH-Anonymity.sol\":19377:19387  _recipient */\n      dup10\n        /* \"anonimity/0.1-ETH-Anonymity.sol\":19389:19396  M87Deno */\n      dup4\n        /* \"anonimity/0.1-ETH-Anonymity.sol\":19354:19366  safeTransfer */\n      tag_266\n        /* \"anonimity/0.1-ETH-Anonymity.sol\":19354:19397  safeTransfer(M87Token, _recipient, M87Deno) */\n      jump\t// in\n    tag_272:\n        /* \"anonimity/0.1-ETH-Anonymity.sol\":19297:19404  if (M87Deno > 0) {... */\n    tag_271:\n        /* \"anonimity/0.1-ETH-Anonymity.sol\":19409:19419  uint256 cd */\n      0x00\n        /* \"anonimity/0.1-ETH-Anonymity.sol\":19441:19459  feeToCollectAmount */\n      sload(0x88)\n        /* \"anonimity/0.1-ETH-Anonymity.sol\":19422:19438  coinDenomination */\n      sload(0x6a)\n        /* \"anonimity/0.1-ETH-Anonymity.sol\":19422:19459  coinDenomination - feeToCollectAmount */\n      sub\n        /* \"anonimity/0.1-ETH-Anonymity.sol\":19409:19459  uint256 cd = coinDenomination - feeToCollectAmount */\n      swap1\n      pop\n        /* \"anonimity/0.1-ETH-Anonymity.sol\":19483:19485  cd */\n      dup1\n        /* \"anonimity/0.1-ETH-Anonymity.sol\":19469:19480  _relayerFee */\n      dup8\n        /* \"anonimity/0.1-ETH-Anonymity.sol\":19469:19485  _relayerFee > cd */\n      gt\n        /* \"anonimity/0.1-ETH-Anonymity.sol\":19465:19518  if (_relayerFee > cd) {... */\n      iszero\n      tag_273\n      jumpi\n        /* \"anonimity/0.1-ETH-Anonymity.sol\":19509:19511  cd */\n      dup1\n        /* \"anonimity/0.1-ETH-Anonymity.sol\":19495:19511  _relayerFee = cd */\n      swap7\n      pop\n        /* \"anonimity/0.1-ETH-Anonymity.sol\":19465:19518  if (_relayerFee > cd) {... */\n    tag_273:\n        /* \"anonimity/0.1-ETH-Anonymity.sol\":19541:19542  0 */\n      0x00\n        /* \"anonimity/0.1-ETH-Anonymity.sol\":19527:19538  _relayerFee */\n      dup8\n        /* \"anonimity/0.1-ETH-Anonymity.sol\":19527:19542  _relayerFee > 0 */\n      gt\n        /* \"anonimity/0.1-ETH-Anonymity.sol\":19523:19692  if (_relayerFee > 0) {... */\n      iszero\n      tag_274\n      jumpi\n        /* \"anonimity/0.1-ETH-Anonymity.sol\":19553:19565  bool success */\n      0x00\n        /* \"anonimity/0.1-ETH-Anonymity.sol\":19570:19578  _relayer */\n      dup9\n        /* \"anonimity/0.1-ETH-Anonymity.sol\":19570:19583  _relayer.call */\n      0xffffffffffffffffffffffffffffffffffffffff\n      and\n        /* \"anonimity/0.1-ETH-Anonymity.sol\":19590:19601  _relayerFee */\n      dup9\n        /* \"anonimity/0.1-ETH-Anonymity.sol\":19570:19606  _relayer.call.value(_relayerFee)(\"\") */\n      mload(0x40)\n      dup1\n      0x00\n      add\n      swap1\n      pop\n      0x00\n      mload(0x40)\n      dup1\n      dup4\n      sub\n      dup2\n      dup6\n      dup8\n      gas\n      call\n      swap3\n      pop\n      pop\n      pop\n      returndatasize\n        /* \"--CODEGEN--\":14:15   */\n      dup1\n        /* \"--CODEGEN--\":21:22   */\n      0x00\n        /* \"--CODEGEN--\":16:47   */\n      dup2\n      eq\n      tag_276\n      jumpi\n        /* \"--CODEGEN--\":75:79   */\n      0x40\n        /* \"--CODEGEN--\":69:80   */\n      mload\n        /* \"--CODEGEN--\":64:80   */\n      swap2\n      pop\n        /* \"--CODEGEN--\":144:148   */\n      0x1f\n        /* \"--CODEGEN--\":140:149   */\n      not\n        /* \"--CODEGEN--\":133:137   */\n      0x3f\n        /* \"--CODEGEN--\":115:131   */\n      returndatasize\n        /* \"--CODEGEN--\":111:138   */\n      add\n        /* \"--CODEGEN--\":107:150   */\n      and\n        /* \"--CODEGEN--\":104:105   */\n      dup3\n        /* \"--CODEGEN--\":100:151   */\n      add\n        /* \"--CODEGEN--\":94:98   */\n      0x40\n        /* \"--CODEGEN--\":87:152   */\n      mstore\n        /* \"--CODEGEN--\":169:185   */\n      returndatasize\n        /* \"--CODEGEN--\":166:167   */\n      dup3\n        /* \"--CODEGEN--\":159:186   */\n      mstore\n        /* \"--CODEGEN--\":225:241   */\n      returndatasize\n        /* \"--CODEGEN--\":222:223   */\n      0x00\n        /* \"--CODEGEN--\":215:219   */\n      0x20\n        /* \"--CODEGEN--\":212:213   */\n      dup5\n        /* \"--CODEGEN--\":208:220   */\n      add\n        /* \"--CODEGEN--\":193:242   */\n      returndatacopy\n        /* \"--CODEGEN--\":7:249   */\n      jump(tag_275)\n        /* \"--CODEGEN--\":16:47   */\n    tag_276:\n        /* \"--CODEGEN--\":36:40   */\n      0x60\n        /* \"--CODEGEN--\":31:40   */\n      swap2\n      pop\n        /* \"--CODEGEN--\":7:249   */\n    tag_275:\n      pop\n        /* \"anonimity/0.1-ETH-Anonymity.sol\":19552:19606  (bool success,) = _relayer.call.value(_relayerFee)(\"\") */\n      pop\n      swap1\n      pop\n        /* \"anonimity/0.1-ETH-Anonymity.sol\":19622:19629  success */\n      dup1\n        /* \"anonimity/0.1-ETH-Anonymity.sol\":19614:19660  require(success, \"failed to send relayer fee\") */\n      tag_277\n      jumpi\n      mload(0x40)\n      0x08c379a000000000000000000000000000000000000000000000000000000000\n      dup2\n      mstore\n      0x04\n      add\n      dup1\n      dup1\n      0x20\n      add\n      dup3\n      dup2\n      sub\n      dup3\n      mstore\n      0x1a\n      dup2\n      mstore\n      0x20\n      add\n      dup1\n      0x6661696c656420746f2073656e642072656c6179657220666565000000000000\n      dup2\n      mstore\n      pop\n      0x20\n      add\n      swap2\n      pop\n      pop\n      mload(0x40)\n      dup1\n      swap2\n      sub\n      swap1\n      revert\n    tag_277:\n        /* \"anonimity/0.1-ETH-Anonymity.sol\":19674:19685  _relayerFee */\n      dup8\n        /* \"anonimity/0.1-ETH-Anonymity.sol\":19668:19685  cd -= _relayerFee */\n      dup3\n      sub\n      swap2\n      pop\n        /* \"anonimity/0.1-ETH-Anonymity.sol\":19523:19692  if (_relayerFee > 0) {... */\n      pop\n    tag_274:\n        /* \"anonimity/0.1-ETH-Anonymity.sol\":19706:19707  0 */\n      0x00\n        /* \"anonimity/0.1-ETH-Anonymity.sol\":19701:19703  cd */\n      dup2\n        /* \"anonimity/0.1-ETH-Anonymity.sol\":19701:19707  cd > 0 */\n      gt\n        /* \"anonimity/0.1-ETH-Anonymity.sol\":19697:19822  if (cd > 0) {... */\n      iszero\n      tag_278\n      jumpi\n        /* \"anonimity/0.1-ETH-Anonymity.sol\":19718:19730  bool success */\n      0x00\n        /* \"anonimity/0.1-ETH-Anonymity.sol\":19735:19745  _recipient */\n      dup10\n        /* \"anonimity/0.1-ETH-Anonymity.sol\":19735:19750  _recipient.call */\n      0xffffffffffffffffffffffffffffffffffffffff\n      and\n        /* \"anonimity/0.1-ETH-Anonymity.sol\":19757:19759  cd */\n      dup3\n        /* \"anonimity/0.1-ETH-Anonymity.sol\":19735:19764  _recipient.call.value(cd)(\"\") */\n      mload(0x40)\n      dup1\n      0x00\n      add\n      swap1\n      pop\n      0x00\n      mload(0x40)\n      dup1\n      dup4\n      sub\n      dup2\n      dup6\n      dup8\n      gas\n      call\n      swap3\n      pop\n      pop\n      pop\n      returndatasize\n        /* \"--CODEGEN--\":14:15   */\n      dup1\n        /* \"--CODEGEN--\":21:22   */\n      0x00\n        /* \"--CODEGEN--\":16:47   */\n      dup2\n      eq\n      tag_280\n      jumpi\n        /* \"--CODEGEN--\":75:79   */\n      0x40\n        /* \"--CODEGEN--\":69:80   */\n      mload\n        /* \"--CODEGEN--\":64:80   */\n      swap2\n      pop\n        /* \"--CODEGEN--\":144:148   */\n      0x1f\n        /* \"--CODEGEN--\":140:149   */\n      not\n        /* \"--CODEGEN--\":133:137   */\n      0x3f\n        /* \"--CODEGEN--\":115:131   */\n      returndatasize\n        /* \"--CODEGEN--\":111:138   */\n      add\n        /* \"--CODEGEN--\":107:150   */\n      and\n        /* \"--CODEGEN--\":104:105   */\n      dup3\n        /* \"--CODEGEN--\":100:151   */\n      add\n        /* \"--CODEGEN--\":94:98   */\n      0x40\n        /* \"--CODEGEN--\":87:152   */\n      mstore\n        /* \"--CODEGEN--\":169:185   */\n      returndatasize\n        /* \"--CODEGEN--\":166:167   */\n      dup3\n        /* \"--CODEGEN--\":159:186   */\n      mstore\n        /* \"--CODEGEN--\":225:241   */\n      returndatasize\n        /* \"--CODEGEN--\":222:223   */\n      0x00\n        /* \"--CODEGEN--\":215:219   */\n      0x20\n        /* \"--CODEGEN--\":212:213   */\n      dup5\n        /* \"--CODEGEN--\":208:220   */\n      add\n        /* \"--CODEGEN--\":193:242   */\n      returndatacopy\n        /* \"--CODEGEN--\":7:249   */\n      jump(tag_279)\n        /* \"--CODEGEN--\":16:47   */\n    tag_280:\n        /* \"--CODEGEN--\":36:40   */\n      0x60\n        /* \"--CODEGEN--\":31:40   */\n      swap2\n      pop\n        /* \"--CODEGEN--\":7:249   */\n    tag_279:\n      pop\n        /* \"anonimity/0.1-ETH-Anonymity.sol\":19717:19764  (bool success,) = _recipient.call.value(cd)(\"\") */\n      pop\n      swap1\n      pop\n        /* \"anonimity/0.1-ETH-Anonymity.sol\":19780:19787  success */\n      dup1\n        /* \"anonimity/0.1-ETH-Anonymity.sol\":19772:19815  require(success, \"failed to withdraw coin\") */\n      tag_281\n      jumpi\n      mload(0x40)\n      0x08c379a000000000000000000000000000000000000000000000000000000000\n      dup2\n      mstore\n      0x04\n      add\n      dup1\n      dup1\n      0x20\n      add\n      dup3\n      dup2\n      sub\n      dup3\n      mstore\n      0x17\n      dup2\n      mstore\n      0x20\n      add\n      dup1\n      0x6661696c656420746f20776974686472617720636f696e000000000000000000\n      dup2\n      mstore\n      pop\n      0x20\n      add\n      swap2\n      pop\n      pop\n      mload(0x40)\n      dup1\n      swap2\n      sub\n      swap1\n      revert\n    tag_281:\n        /* \"anonimity/0.1-ETH-Anonymity.sol\":19697:19822  if (cd > 0) {... */\n      pop\n    tag_278:\n        /* \"anonimity/0.1-ETH-Anonymity.sol\":19842:19843  1 */\n      0x01\n        /* \"anonimity/0.1-ETH-Anonymity.sol\":19827:19838  numOfShares */\n      0x72\n      0x00\n        /* \"anonimity/0.1-ETH-Anonymity.sol\":19827:19843  numOfShares -= 1 */\n      dup3\n      dup3\n      sload\n      sub\n      swap3\n      pop\n      pop\n      dup2\n      swap1\n      sstore\n      pop\n        /* \"anonimity/0.1-ETH-Anonymity.sol\":19850:19868  sendRewardtoPool() */\n      tag_282\n        /* \"anonimity/0.1-ETH-Anonymity.sol\":19850:19866  sendRewardtoPool */\n      tag_283\n        /* \"anonimity/0.1-ETH-Anonymity.sol\":19850:19868  sendRewardtoPool() */\n      jump\t// in\n    tag_282:\n        /* \"anonimity/0.1-ETH-Anonymity.sol\":19919:19927  _relayer */\n      dup8\n        /* \"anonimity/0.1-ETH-Anonymity.sol\":19880:19949  Withdrawal(_recipient, _nullifierHash, _relayer, M87Deno, relayerFee) */\n      0xffffffffffffffffffffffffffffffffffffffff\n      and\n      0x6d7aac54bd3d1c91db3b1fd7b8d6cb45324ad6b5e373c0f0ea4d7b2606c4c2c8\n        /* \"anonimity/0.1-ETH-Anonymity.sol\":19891:19901  _recipient */\n      dup11\n        /* \"anonimity/0.1-ETH-Anonymity.sol\":19903:19917  _nullifierHash */\n      dup13\n        /* \"anonimity/0.1-ETH-Anonymity.sol\":19929:19936  M87Deno */\n      dup6\n        /* \"anonimity/0.1-ETH-Anonymity.sol\":19938:19948  relayerFee */\n      dup8\n        /* \"anonimity/0.1-ETH-Anonymity.sol\":19880:19949  Withdrawal(_recipient, _nullifierHash, _relayer, M87Deno, relayerFee) */\n      mload(0x40)\n      dup1\n      dup6\n      0xffffffffffffffffffffffffffffffffffffffff\n      and\n      0xffffffffffffffffffffffffffffffffffffffff\n      and\n      dup2\n      mstore\n      0x20\n      add\n      dup5\n      dup2\n      mstore\n      0x20\n      add\n      dup4\n      dup2\n      mstore\n      0x20\n      add\n      dup3\n      dup2\n      mstore\n      0x20\n      add\n      swap5\n      pop\n      pop\n      pop\n      pop\n      pop\n      mload(0x40)\n      dup1\n      swap2\n      sub\n      swap1\n      log2\n        /* \"anonimity/0.1-ETH-Anonymity.sol\":12778:12779  _ */\n      pop\n      pop\n      pop\n      pop\n        /* \"anonimity/0.1-ETH-Anonymity.sol\":12813:12826  _guardCounter */\n      sload(0x68)\n        /* \"anonimity/0.1-ETH-Anonymity.sol\":12797:12809  localCounter */\n      dup2\n        /* \"anonimity/0.1-ETH-Anonymity.sol\":12797:12826  localCounter == _guardCounter */\n      eq\n        /* \"anonimity/0.1-ETH-Anonymity.sol\":12789:12862  require(localCounter == _guardCounter, \"ReentrancyGuard: reentrant call\") */\n      tag_284\n      jumpi\n      mload(0x40)\n      0x08c379a000000000000000000000000000000000000000000000000000000000\n      dup2\n      mstore\n      0x04\n      add\n      dup1\n      dup1\n      0x20\n      add\n      dup3\n      dup2\n      sub\n      dup3\n      mstore\n      0x1f\n      dup2\n      mstore\n      0x20\n      add\n      dup1\n      0x5265656e7472616e637947756172643a207265656e7472616e742063616c6c00\n      dup2\n      mstore\n      pop\n      0x20\n      add\n      swap2\n      pop\n      pop\n      mload(0x40)\n      dup1\n      swap2\n      sub\n      swap1\n      revert\n    tag_284:\n        /* \"anonimity/0.1-ETH-Anonymity.sol\":18382:19954  function withdraw(bytes calldata _proof, bytes32 _root, bytes32 _nullifierHash, address payable _recipient, address payable _relayer, uint256 _relayerFee, uint256 _refund) external payable nonReentrant {... */\n      pop\n      pop\n      pop\n      pop\n      pop\n      pop\n      pop\n      pop\n      pop\n      jump\t// out\n        /* \"anonimity/0.1-ETH-Anonymity.sol\":16602:16975  function M87Denomination() public view returns (uint256) {... */\n    tag_76:\n        /* \"anonimity/0.1-ETH-Anonymity.sol\":16650:16657  uint256 */\n      0x00\n        /* \"anonimity/0.1-ETH-Anonymity.sol\":16684:16685  0 */\n      dup1\n        /* \"anonimity/0.1-ETH-Anonymity.sol\":16669:16680  numOfShares */\n      sload(0x72)\n        /* \"anonimity/0.1-ETH-Anonymity.sol\":16669:16685  numOfShares == 0 */\n      eq\n        /* \"anonimity/0.1-ETH-Anonymity.sol\":16665:16728  if (numOfShares == 0) {... */\n      iszero\n      tag_286\n      jumpi\n        /* \"anonimity/0.1-ETH-Anonymity.sol\":16702:16721  initM87Denomination */\n      sload(0x6b)\n        /* \"anonimity/0.1-ETH-Anonymity.sol\":16695:16721  return initM87Denomination */\n      swap1\n      pop\n      jump(tag_285)\n        /* \"anonimity/0.1-ETH-Anonymity.sol\":16665:16728  if (numOfShares == 0) {... */\n    tag_286:\n        /* \"anonimity/0.1-ETH-Anonymity.sol\":16733:16752  uint256 blockNumber */\n      0x00\n        /* \"anonimity/0.1-ETH-Anonymity.sol\":16755:16767  block.number */\n      number\n        /* \"anonimity/0.1-ETH-Anonymity.sol\":16733:16767  uint256 blockNumber = block.number */\n      swap1\n      pop\n        /* \"anonimity/0.1-ETH-Anonymity.sol\":16773:16787  uint256 accM87 */\n      0x00\n        /* \"anonimity/0.1-ETH-Anonymity.sol\":16790:16808  getAccumulateM87() */\n      tag_287\n        /* \"anonimity/0.1-ETH-Anonymity.sol\":16790:16806  getAccumulateM87 */\n      tag_171\n        /* \"anonimity/0.1-ETH-Anonymity.sol\":16790:16808  getAccumulateM87() */\n      jump\t// in\n    tag_287:\n        /* \"anonimity/0.1-ETH-Anonymity.sol\":16773:16808  uint256 accM87 = getAccumulateM87() */\n      swap1\n      pop\n        /* \"anonimity/0.1-ETH-Anonymity.sol\":16832:16847  lastRewardBlock */\n      sload(0x73)\n        /* \"anonimity/0.1-ETH-Anonymity.sol\":16818:16829  blockNumber */\n      dup3\n        /* \"anonimity/0.1-ETH-Anonymity.sol\":16818:16847  blockNumber > lastRewardBlock */\n      gt\n        /* \"anonimity/0.1-ETH-Anonymity.sol\":16818:16869  blockNumber > lastRewardBlock && rewardPerBlock > 0 */\n      dup1\n      iszero\n      tag_288\n      jumpi\n      pop\n        /* \"anonimity/0.1-ETH-Anonymity.sol\":16868:16869  0 */\n      0x00\n        /* \"anonimity/0.1-ETH-Anonymity.sol\":16851:16865  rewardPerBlock */\n      sload(0x74)\n        /* \"anonimity/0.1-ETH-Anonymity.sol\":16851:16869  rewardPerBlock > 0 */\n      gt\n        /* \"anonimity/0.1-ETH-Anonymity.sol\":16818:16869  blockNumber > lastRewardBlock && rewardPerBlock > 0 */\n    tag_288:\n        /* \"anonimity/0.1-ETH-Anonymity.sol\":16814:16914  if (blockNumber > lastRewardBlock && rewardPerBlock > 0) {... */\n      iszero\n      tag_289\n      jumpi\n        /* \"anonimity/0.1-ETH-Anonymity.sol\":16888:16907  calcAccumulateM87() */\n      tag_290\n        /* \"anonimity/0.1-ETH-Anonymity.sol\":16888:16905  calcAccumulateM87 */\n      tag_291\n        /* \"anonimity/0.1-ETH-Anonymity.sol\":16888:16907  calcAccumulateM87() */\n      jump\t// in\n    tag_290:\n        /* \"anonimity/0.1-ETH-Anonymity.sol\":16879:16907  accM87 = calcAccumulateM87() */\n      swap1\n      pop\n        /* \"anonimity/0.1-ETH-Anonymity.sol\":16814:16914  if (blockNumber > lastRewardBlock && rewardPerBlock > 0) {... */\n    tag_289:\n        /* \"anonimity/0.1-ETH-Anonymity.sol\":16926:16970  accM87.add(numOfShares - 1).div(numOfShares) */\n      tag_292\n        /* \"anonimity/0.1-ETH-Anonymity.sol\":16958:16969  numOfShares */\n      sload(0x72)\n        /* \"anonimity/0.1-ETH-Anonymity.sol\":16926:16953  accM87.add(numOfShares - 1) */\n      tag_293\n        /* \"anonimity/0.1-ETH-Anonymity.sol\":16951:16952  1 */\n      0x01\n        /* \"anonimity/0.1-ETH-Anonymity.sol\":16937:16948  numOfShares */\n      sload(0x72)\n        /* \"anonimity/0.1-ETH-Anonymity.sol\":16937:16952  numOfShares - 1 */\n      sub\n        /* \"anonimity/0.1-ETH-Anonymity.sol\":16926:16932  accM87 */\n      dup5\n        /* \"anonimity/0.1-ETH-Anonymity.sol\":16926:16936  accM87.add */\n      tag_294\n      swap1\n        /* \"anonimity/0.1-ETH-Anonymity.sol\":16926:16953  accM87.add(numOfShares - 1) */\n      swap2\n      swap1\n      0xffffffff\n      and\n      jump\t// in\n    tag_293:\n        /* \"anonimity/0.1-ETH-Anonymity.sol\":16926:16957  accM87.add(numOfShares - 1).div */\n      tag_270\n      swap1\n        /* \"anonimity/0.1-ETH-Anonymity.sol\":16926:16970  accM87.add(numOfShares - 1).div(numOfShares) */\n      swap2\n      swap1\n      0xffffffff\n      and\n      jump\t// in\n    tag_292:\n        /* \"anonimity/0.1-ETH-Anonymity.sol\":16919:16970  return accM87.add(numOfShares - 1).div(numOfShares) */\n      swap3\n      pop\n      pop\n      pop\n        /* \"anonimity/0.1-ETH-Anonymity.sol\":16602:16975  function M87Denomination() public view returns (uint256) {... */\n    tag_285:\n      swap1\n      jump\t// out\n        /* \"anonimity/0.1-ETH-Anonymity.sol\":21455:21551  function setOverMinETH(uint256 _overMinEth) public onlyOwner {... */\n    tag_80:\n        /* \"anonimity/0.1-ETH-Anonymity.sol\":14487:14500  messier_owner */\n      0x71\n      0x00\n      swap1\n      sload\n      swap1\n      0x0100\n      exp\n      swap1\n      div\n      0xffffffffffffffffffffffffffffffffffffffff\n      and\n        /* \"anonimity/0.1-ETH-Anonymity.sol\":14473:14500  msg.sender == messier_owner */\n      0xffffffffffffffffffffffffffffffffffffffff\n      and\n        /* \"anonimity/0.1-ETH-Anonymity.sol\":14473:14483  msg.sender */\n      caller\n        /* \"anonimity/0.1-ETH-Anonymity.sol\":14473:14500  msg.sender == messier_owner */\n      0xffffffffffffffffffffffffffffffffffffffff\n      and\n      eq\n        /* \"anonimity/0.1-ETH-Anonymity.sol\":14465:14539  require(msg.sender == messier_owner, \"Only Owner can call this function.\") */\n      tag_296\n      jumpi\n      mload(0x40)\n      0x08c379a000000000000000000000000000000000000000000000000000000000\n      dup2\n      mstore\n      0x04\n      add\n      dup1\n      dup1\n      0x20\n      add\n      dup3\n      dup2\n      sub\n      dup3\n      mstore\n      0x22\n      dup2\n      mstore\n      0x20\n      add\n      dup1\n      data_0e71a241197b393744b5df81fa847ab1c2bee75202755ee59d1abfcc113d1380\n      0x22\n      swap2\n      codecopy\n      0x40\n      add\n      swap2\n      pop\n      pop\n      mload(0x40)\n      dup1\n      swap2\n      sub\n      swap1\n      revert\n    tag_296:\n        /* \"anonimity/0.1-ETH-Anonymity.sol\":21535:21546  _overMinEth */\n      dup1\n        /* \"anonimity/0.1-ETH-Anonymity.sol\":21522:21532  overMinEth */\n      0x89\n        /* \"anonimity/0.1-ETH-Anonymity.sol\":21522:21546  overMinEth = _overMinEth */\n      dup2\n      swap1\n      sstore\n      pop\n        /* \"anonimity/0.1-ETH-Anonymity.sol\":21455:21551  function setOverMinETH(uint256 _overMinEth) public onlyOwner {... */\n      pop\n      jump\t// out\n        /* \"anonimity/0.1-ETH-Anonymity.sol\":14138:14164  address[4] public poolList */\n    tag_84:\n      0x7e\n      dup2\n      0x04\n      dup2\n      lt\n      tag_298\n      jumpi\n      invalid\n    tag_298:\n      add\n      0x00\n      swap2\n      pop\n      sload\n      swap1\n      0x0100\n      exp\n      swap1\n      div\n      0xffffffffffffffffffffffffffffffffffffffff\n      and\n      dup2\n      jump\t// out\n        /* \"anonimity/0.1-ETH-Anonymity.sol\":13685:13710  IVerifier public verifier */\n    tag_87:\n      0x6d\n      0x00\n      swap1\n      sload\n      swap1\n      0x0100\n      exp\n      swap1\n      div\n      0xffffffffffffffffffffffffffffffffffffffff\n      and\n      dup2\n      jump\t// out\n        /* \"anonimity/0.1-ETH-Anonymity.sol\":14276:14309  uint256 public feeToCollectAmount */\n    tag_90:\n      sload(0x88)\n      dup2\n      jump\t// out\n        /* \"anonimity/0.1-ETH-Anonymity.sol\":13822:13848  uint256 public numOfShares */\n    tag_93:\n      sload(0x72)\n      dup2\n      jump\t// out\n        /* \"anonimity/0.1-ETH-Anonymity.sol\":23857:23928  function forceSwapAndShare() public onlyOwner {... */\n    tag_96:\n        /* \"anonimity/0.1-ETH-Anonymity.sol\":14487:14500  messier_owner */\n      0x71\n      0x00\n      swap1\n      sload\n      swap1\n      0x0100\n      exp\n      swap1\n      div\n      0xffffffffffffffffffffffffffffffffffffffff\n      and\n        /* \"anonimity/0.1-ETH-Anonymity.sol\":14473:14500  msg.sender == messier_owner */\n      0xffffffffffffffffffffffffffffffffffffffff\n      and\n        /* \"anonimity/0.1-ETH-Anonymity.sol\":14473:14483  msg.sender */\n      caller\n        /* \"anonimity/0.1-ETH-Anonymity.sol\":14473:14500  msg.sender == messier_owner */\n      0xffffffffffffffffffffffffffffffffffffffff\n      and\n      eq\n        /* \"anonimity/0.1-ETH-Anonymity.sol\":14465:14539  require(msg.sender == messier_owner, \"Only Owner can call this function.\") */\n      tag_301\n      jumpi\n      mload(0x40)\n      0x08c379a000000000000000000000000000000000000000000000000000000000\n      dup2\n      mstore\n      0x04\n      add\n      dup1\n      dup1\n      0x20\n      add\n      dup3\n      dup2\n      sub\n      dup3\n      mstore\n      0x22\n      dup2\n      mstore\n      0x20\n      add\n      dup1\n      data_0e71a241197b393744b5df81fa847ab1c2bee75202755ee59d1abfcc113d1380\n      0x22\n      swap2\n      codecopy\n      0x40\n      add\n      swap2\n      pop\n      pop\n      mload(0x40)\n      dup1\n      swap2\n      sub\n      swap1\n      revert\n    tag_301:\n        /* \"anonimity/0.1-ETH-Anonymity.sol\":23909:23923  swapAndShare() */\n      tag_303\n        /* \"anonimity/0.1-ETH-Anonymity.sol\":23909:23921  swapAndShare */\n      tag_304\n        /* \"anonimity/0.1-ETH-Anonymity.sol\":23909:23923  swapAndShare() */\n      jump\t// in\n    tag_303:\n        /* \"anonimity/0.1-ETH-Anonymity.sol\":23857:23928  function forceSwapAndShare() public onlyOwner {... */\n      jump\t// out\n        /* \"anonimity/0.1-ETH-Anonymity.sol\":13790:13818  address public messier_owner */\n    tag_99:\n      0x71\n      0x00\n      swap1\n      sload\n      swap1\n      0x0100\n      exp\n      swap1\n      div\n      0xffffffffffffffffffffffffffffffffffffffff\n      and\n      dup2\n      jump\t// out\n        /* \"anonimity/0.1-ETH-Anonymity.sol\":9288:9733  function hashLeftRight(bytes32 _left, bytes32 _right) public pure returns (bytes32) {... */\n    tag_103:\n        /* \"anonimity/0.1-ETH-Anonymity.sol\":9363:9370  bytes32 */\n      0x00\n        /* \"anonimity/0.1-ETH-Anonymity.sol\":8197:8274  21888242871839275222246405745257275088548364400416034343698204186575808495617 */\n      0x30644e72e131a029b85045b68181585d2833e84879b9709143e1f593f0000001\n        /* \"anonimity/0.1-ETH-Anonymity.sol\":9394:9399  _left */\n      dup4\n        /* \"anonimity/0.1-ETH-Anonymity.sol\":9386:9400  uint256(_left) */\n      0x00\n      shr\n        /* \"anonimity/0.1-ETH-Anonymity.sol\":9386:9413  uint256(_left) < FIELD_SIZE */\n      lt\n        /* \"anonimity/0.1-ETH-Anonymity.sol\":9378:9450  require(uint256(_left) < FIELD_SIZE, \"_left should be inside the field\") */\n      tag_306\n      jumpi\n      mload(0x40)\n      0x08c379a000000000000000000000000000000000000000000000000000000000\n      dup2\n      mstore\n      0x04\n      add\n      dup1\n      dup1\n      0x20\n      add\n      dup3\n      dup2\n      sub\n      dup3\n      mstore\n      0x20\n      dup2\n      mstore\n      0x20\n      add\n      dup1\n      0x5f6c6566742073686f756c6420626520696e7369646520746865206669656c64\n      dup2\n      mstore\n      pop\n      0x20\n      add\n      swap2\n      pop\n      pop\n      mload(0x40)\n      dup1\n      swap2\n      sub\n      swap1\n      revert\n    tag_306:\n        /* \"anonimity/0.1-ETH-Anonymity.sol\":8197:8274  21888242871839275222246405745257275088548364400416034343698204186575808495617 */\n      0x30644e72e131a029b85045b68181585d2833e84879b9709143e1f593f0000001\n        /* \"anonimity/0.1-ETH-Anonymity.sol\":9472:9478  _right */\n      dup3\n        /* \"anonimity/0.1-ETH-Anonymity.sol\":9464:9479  uint256(_right) */\n      0x00\n      shr\n        /* \"anonimity/0.1-ETH-Anonymity.sol\":9464:9492  uint256(_right) < FIELD_SIZE */\n      lt\n        /* \"anonimity/0.1-ETH-Anonymity.sol\":9456:9530  require(uint256(_right) < FIELD_SIZE, \"_right should be inside the field\") */\n      tag_307\n      jumpi\n      mload(0x40)\n      0x08c379a000000000000000000000000000000000000000000000000000000000\n      dup2\n      mstore\n      0x04\n      add\n      dup1\n      dup1\n      0x20\n      add\n      dup3\n      dup2\n      sub\n      dup3\n      mstore\n      0x21\n      dup2\n      mstore\n      0x20\n      add\n      dup1\n      data_6542fa7ce511fbc255ce93f94c5fe79a03559888b6c0d6b4bd92b57ef65f3b4e\n      0x21\n      swap2\n      codecopy\n      0x40\n      add\n      swap2\n      pop\n      pop\n      mload(0x40)\n      dup1\n      swap2\n      sub\n      swap1\n      revert\n    tag_307:\n        /* \"anonimity/0.1-ETH-Anonymity.sol\":9536:9545  uint256 R */\n      0x00\n        /* \"anonimity/0.1-ETH-Anonymity.sol\":9556:9561  _left */\n      dup4\n        /* \"anonimity/0.1-ETH-Anonymity.sol\":9548:9562  uint256(_left) */\n      0x00\n      shr\n        /* \"anonimity/0.1-ETH-Anonymity.sol\":9536:9562  uint256 R = uint256(_left) */\n      swap1\n      pop\n        /* \"anonimity/0.1-ETH-Anonymity.sol\":9568:9577  uint256 C */\n      0x00\n        /* \"anonimity/0.1-ETH-Anonymity.sol\":9580:9581  0 */\n      dup1\n        /* \"anonimity/0.1-ETH-Anonymity.sol\":9568:9581  uint256 C = 0 */\n      swap1\n      pop\n        /* \"anonimity/0.1-ETH-Anonymity.sol\":9596:9602  Hasher */\n      linkerSymbol(\"de0ded22c4fea8da78ac8a9fb8fbda03664ae40d47b41fbd8088c9f214be0991\")\n        /* \"anonimity/0.1-ETH-Anonymity.sol\":9596:9613  Hasher.MiMCSponge */\n      0xf47d33b5\n        /* \"anonimity/0.1-ETH-Anonymity.sol\":9614:9615  R */\n      dup4\n        /* \"anonimity/0.1-ETH-Anonymity.sol\":9617:9618  C */\n      dup4\n        /* \"anonimity/0.1-ETH-Anonymity.sol\":9596:9619  Hasher.MiMCSponge(R, C) */\n      mload(0x40)\n      dup4\n      0xffffffff\n      and\n      0xe0\n      shl\n      dup2\n      mstore\n      0x04\n      add\n      dup1\n      dup4\n      dup2\n      mstore\n      0x20\n      add\n      dup3\n      dup2\n      mstore\n      0x20\n      add\n      swap3\n      pop\n      pop\n      pop\n      0x40\n      dup1\n      mload\n      dup1\n      dup4\n      sub\n      dup2\n      dup7\n      dup1\n      extcodesize\n      iszero\n        /* \"--CODEGEN--\":8:17   */\n      dup1\n        /* \"--CODEGEN--\":5:7   */\n      iszero\n      tag_308\n      jumpi\n        /* \"--CODEGEN--\":30:31   */\n      0x00\n        /* \"--CODEGEN--\":27:28   */\n      dup1\n        /* \"--CODEGEN--\":20:32   */\n      revert\n        /* \"--CODEGEN--\":5:7   */\n    tag_308:\n        /* \"anonimity/0.1-ETH-Anonymity.sol\":9596:9619  Hasher.MiMCSponge(R, C) */\n      pop\n      gas\n      delegatecall\n      iszero\n        /* \"--CODEGEN--\":8:17   */\n      dup1\n        /* \"--CODEGEN--\":5:7   */\n      iszero\n      tag_309\n      jumpi\n        /* \"--CODEGEN--\":45:61   */\n      returndatasize\n        /* \"--CODEGEN--\":42:43   */\n      0x00\n        /* \"--CODEGEN--\":39:40   */\n      dup1\n        /* \"--CODEGEN--\":24:62   */\n      returndatacopy\n        /* \"--CODEGEN--\":77:93   */\n      returndatasize\n        /* \"--CODEGEN--\":74:75   */\n      0x00\n        /* \"--CODEGEN--\":67:94   */\n      revert\n        /* \"--CODEGEN--\":5:7   */\n    tag_309:\n        /* \"anonimity/0.1-ETH-Anonymity.sol\":9596:9619  Hasher.MiMCSponge(R, C) */\n      pop\n      pop\n      pop\n      pop\n      mload(0x40)\n      returndatasize\n        /* \"--CODEGEN--\":13:15   */\n      0x40\n        /* \"--CODEGEN--\":8:11   */\n      dup2\n        /* \"--CODEGEN--\":5:16   */\n      lt\n        /* \"--CODEGEN--\":2:4   */\n      iszero\n      tag_310\n      jumpi\n        /* \"--CODEGEN--\":29:30   */\n      0x00\n        /* \"--CODEGEN--\":26:27   */\n      dup1\n        /* \"--CODEGEN--\":19:31   */\n      revert\n        /* \"--CODEGEN--\":2:4   */\n    tag_310:\n        /* \"anonimity/0.1-ETH-Anonymity.sol\":9596:9619  Hasher.MiMCSponge(R, C) */\n      dup2\n      add\n      swap1\n      dup1\n      dup1\n      mload\n      swap1\n      0x20\n      add\n      swap1\n      swap3\n      swap2\n      swap1\n      dup1\n      mload\n      swap1\n      0x20\n      add\n      swap1\n      swap3\n      swap2\n      swap1\n      pop\n      pop\n      pop\n        /* \"anonimity/0.1-ETH-Anonymity.sol\":9587:9619  (R, C) = Hasher.MiMCSponge(R, C) */\n      dup1\n      swap3\n      pop\n      dup2\n      swap4\n      pop\n      pop\n      pop\n        /* \"anonimity/0.1-ETH-Anonymity.sol\":8197:8274  21888242871839275222246405745257275088548364400416034343698204186575808495617 */\n      0x30644e72e131a029b85045b68181585d2833e84879b9709143e1f593f0000001\n        /* \"anonimity/0.1-ETH-Anonymity.sol\":9629:9667  addmod(R, uint256(_right), FIELD_SIZE) */\n      dup1\n      tag_311\n      jumpi\n      invalid\n    tag_311:\n        /* \"anonimity/0.1-ETH-Anonymity.sol\":9647:9653  _right */\n      dup5\n        /* \"anonimity/0.1-ETH-Anonymity.sol\":9639:9654  uint256(_right) */\n      0x00\n      shr\n        /* \"anonimity/0.1-ETH-Anonymity.sol\":9636:9637  R */\n      dup4\n        /* \"anonimity/0.1-ETH-Anonymity.sol\":9629:9667  addmod(R, uint256(_right), FIELD_SIZE) */\n      addmod\n        /* \"anonimity/0.1-ETH-Anonymity.sol\":9625:9667  R = addmod(R, uint256(_right), FIELD_SIZE) */\n      swap2\n      pop\n        /* \"anonimity/0.1-ETH-Anonymity.sol\":9682:9688  Hasher */\n      linkerSymbol(\"de0ded22c4fea8da78ac8a9fb8fbda03664ae40d47b41fbd8088c9f214be0991\")\n        /* \"anonimity/0.1-ETH-Anonymity.sol\":9682:9699  Hasher.MiMCSponge */\n      0xf47d33b5\n        /* \"anonimity/0.1-ETH-Anonymity.sol\":9700:9701  R */\n      dup4\n        /* \"anonimity/0.1-ETH-Anonymity.sol\":9703:9704  C */\n      dup4\n        /* \"anonimity/0.1-ETH-Anonymity.sol\":9682:9705  Hasher.MiMCSponge(R, C) */\n      mload(0x40)\n      dup4\n      0xffffffff\n      and\n      0xe0\n      shl\n      dup2\n      mstore\n      0x04\n      add\n      dup1\n      dup4\n      dup2\n      mstore\n      0x20\n      add\n      dup3\n      dup2\n      mstore\n      0x20\n      add\n      swap3\n      pop\n      pop\n      pop\n      0x40\n      dup1\n      mload\n      dup1\n      dup4\n      sub\n      dup2\n      dup7\n      dup1\n      extcodesize\n      iszero\n        /* \"--CODEGEN--\":8:17   */\n      dup1\n        /* \"--CODEGEN--\":5:7   */\n      iszero\n      tag_312\n      jumpi\n        /* \"--CODEGEN--\":30:31   */\n      0x00\n        /* \"--CODEGEN--\":27:28   */\n      dup1\n        /* \"--CODEGEN--\":20:32   */\n      revert\n        /* \"--CODEGEN--\":5:7   */\n    tag_312:\n        /* \"anonimity/0.1-ETH-Anonymity.sol\":9682:9705  Hasher.MiMCSponge(R, C) */\n      pop\n      gas\n      delegatecall\n      iszero\n        /* \"--CODEGEN--\":8:17   */\n      dup1\n        /* \"--CODEGEN--\":5:7   */\n      iszero\n      tag_313\n      jumpi\n        /* \"--CODEGEN--\":45:61   */\n      returndatasize\n        /* \"--CODEGEN--\":42:43   */\n      0x00\n        /* \"--CODEGEN--\":39:40   */\n      dup1\n        /* \"--CODEGEN--\":24:62   */\n      returndatacopy\n        /* \"--CODEGEN--\":77:93   */\n      returndatasize\n        /* \"--CODEGEN--\":74:75   */\n      0x00\n        /* \"--CODEGEN--\":67:94   */\n      revert\n        /* \"--CODEGEN--\":5:7   */\n    tag_313:\n        /* \"anonimity/0.1-ETH-Anonymity.sol\":9682:9705  Hasher.MiMCSponge(R, C) */\n      pop\n      pop\n      pop\n      pop\n      mload(0x40)\n      returndatasize\n        /* \"--CODEGEN--\":13:15   */\n      0x40\n        /* \"--CODEGEN--\":8:11   */\n      dup2\n        /* \"--CODEGEN--\":5:16   */\n      lt\n        /* \"--CODEGEN--\":2:4   */\n      iszero\n      tag_314\n      jumpi\n        /* \"--CODEGEN--\":29:30   */\n      0x00\n        /* \"--CODEGEN--\":26:27   */\n      dup1\n        /* \"--CODEGEN--\":19:31   */\n      revert\n        /* \"--CODEGEN--\":2:4   */\n    tag_314:\n        /* \"anonimity/0.1-ETH-Anonymity.sol\":9682:9705  Hasher.MiMCSponge(R, C) */\n      dup2\n      add\n      swap1\n      dup1\n      dup1\n      mload\n      swap1\n      0x20\n      add\n      swap1\n      swap3\n      swap2\n      swap1\n      dup1\n      mload\n      swap1\n      0x20\n      add\n      swap1\n      swap3\n      swap2\n      swap1\n      pop\n      pop\n      pop\n        /* \"anonimity/0.1-ETH-Anonymity.sol\":9673:9705  (R, C) = Hasher.MiMCSponge(R, C) */\n      dup1\n      swap3\n      pop\n      dup2\n      swap4\n      pop\n      pop\n      pop\n        /* \"anonimity/0.1-ETH-Anonymity.sol\":9726:9727  R */\n      dup2\n        /* \"anonimity/0.1-ETH-Anonymity.sol\":9718:9728  bytes32(R) */\n      0x00\n      shl\n        /* \"anonimity/0.1-ETH-Anonymity.sol\":9711:9728  return bytes32(R) */\n      swap3\n      pop\n      pop\n      pop\n        /* \"anonimity/0.1-ETH-Anonymity.sol\":9288:9733  function hashLeftRight(bytes32 _left, bytes32 _right) public pure returns (bytes32) {... */\n      swap3\n      swap2\n      pop\n      pop\n      jump\t// out\n        /* \"anonimity/0.1-ETH-Anonymity.sol\":13951:13982  uint256 public anonymityFee = 0 */\n    tag_106:\n      sload(0x76)\n      dup2\n      jump\t// out\n        /* \"anonimity/0.1-ETH-Anonymity.sol\":8160:8274  uint256 public constant FIELD_SIZE = 21888242871839275222246405745257275088548364400416034343698204186575808495617 */\n    tag_109:\n        /* \"anonimity/0.1-ETH-Anonymity.sol\":8197:8274  21888242871839275222246405745257275088548364400416034343698204186575808495617 */\n      0x30644e72e131a029b85045b68181585d2833e84879b9709143e1f593f0000001\n        /* \"anonimity/0.1-ETH-Anonymity.sol\":8160:8274  uint256 public constant FIELD_SIZE = 21888242871839275222246405745257275088548364400416034343698204186575808495617 */\n      dup2\n      jump\t// out\n        /* \"anonimity/0.1-ETH-Anonymity.sol\":14082:14134  uint256[5] public shareOfReward = [30, 0, 30, 40, 0] */\n    tag_113:\n      0x79\n      dup2\n      0x05\n      dup2\n      lt\n      tag_315\n      jumpi\n      invalid\n    tag_315:\n      add\n      0x00\n      swap2\n      pop\n      swap1\n      pop\n      sload\n      dup2\n      jump\t// out\n        /* \"anonimity/0.1-ETH-Anonymity.sol\":21211:21451  function setPoolFee(uint256 burnFee, uint256 fee1, uint256 fee2, uint256 fee3, uint256 fee4) public onlyOwner {... */\n    tag_117:\n        /* \"anonimity/0.1-ETH-Anonymity.sol\":14487:14500  messier_owner */\n      0x71\n      0x00\n      swap1\n      sload\n      swap1\n      0x0100\n      exp\n      swap1\n      div\n      0xffffffffffffffffffffffffffffffffffffffff\n      and\n        /* \"anonimity/0.1-ETH-Anonymity.sol\":14473:14500  msg.sender == messier_owner */\n      0xffffffffffffffffffffffffffffffffffffffff\n      and\n        /* \"anonimity/0.1-ETH-Anonymity.sol\":14473:14483  msg.sender */\n      caller\n        /* \"anonimity/0.1-ETH-Anonymity.sol\":14473:14500  msg.sender == messier_owner */\n      0xffffffffffffffffffffffffffffffffffffffff\n      and\n      eq\n        /* \"anonimity/0.1-ETH-Anonymity.sol\":14465:14539  require(msg.sender == messier_owner, \"Only Owner can call this function.\") */\n      tag_318\n      jumpi\n      mload(0x40)\n      0x08c379a000000000000000000000000000000000000000000000000000000000\n      dup2\n      mstore\n      0x04\n      add\n      dup1\n      dup1\n      0x20\n      add\n      dup3\n      dup2\n      sub\n      dup3\n      mstore\n      0x22\n      dup2\n      mstore\n      0x20\n      add\n      dup1\n      data_0e71a241197b393744b5df81fa847ab1c2bee75202755ee59d1abfcc113d1380\n      0x22\n      swap2\n      codecopy\n      0x40\n      add\n      swap2\n      pop\n      pop\n      mload(0x40)\n      dup1\n      swap2\n      sub\n      swap1\n      revert\n    tag_318:\n        /* \"anonimity/0.1-ETH-Anonymity.sol\":21375:21378  100 */\n      0x64\n        /* \"anonimity/0.1-ETH-Anonymity.sol\":21367:21371  fee4 */\n      dup2\n        /* \"anonimity/0.1-ETH-Anonymity.sol\":21360:21364  fee3 */\n      dup4\n        /* \"anonimity/0.1-ETH-Anonymity.sol\":21353:21357  fee2 */\n      dup6\n        /* \"anonimity/0.1-ETH-Anonymity.sol\":21346:21350  fee1 */\n      dup8\n        /* \"anonimity/0.1-ETH-Anonymity.sol\":21336:21343  burnFee */\n      dup10\n        /* \"anonimity/0.1-ETH-Anonymity.sol\":21336:21350  burnFee + fee1 */\n      add\n        /* \"anonimity/0.1-ETH-Anonymity.sol\":21336:21357  burnFee + fee1 + fee2 */\n      add\n        /* \"anonimity/0.1-ETH-Anonymity.sol\":21336:21364  burnFee + fee1 + fee2 + fee3 */\n      add\n        /* \"anonimity/0.1-ETH-Anonymity.sol\":21336:21371  burnFee + fee1 + fee2 + fee3 + fee4 */\n      add\n        /* \"anonimity/0.1-ETH-Anonymity.sol\":21336:21378  burnFee + fee1 + fee2 + fee3 + fee4 == 100 */\n      eq\n        /* \"anonimity/0.1-ETH-Anonymity.sol\":21327:21391  require( burnFee + fee1 + fee2 + fee3 + fee4 == 100, \"Invalid\" ) */\n      tag_320\n      jumpi\n      mload(0x40)\n      0x08c379a000000000000000000000000000000000000000000000000000000000\n      dup2\n      mstore\n      0x04\n      add\n      dup1\n      dup1\n      0x20\n      add\n      dup3\n      dup2\n      sub\n      dup3\n      mstore\n      0x07\n      dup2\n      mstore\n      0x20\n      add\n      dup1\n      0x496e76616c696400000000000000000000000000000000000000000000000000\n      dup2\n      mstore\n      pop\n      0x20\n      add\n      swap2\n      pop\n      pop\n      mload(0x40)\n      dup1\n      swap2\n      sub\n      swap1\n      revert\n    tag_320:\n        /* \"anonimity/0.1-ETH-Anonymity.sol\":21397:21446  shareOfReward = [burnFee, fee1, fee2, fee3, fee4] */\n      mload(0x40)\n      dup1\n      0xa0\n      add\n      0x40\n      mstore\n      dup1\n        /* \"anonimity/0.1-ETH-Anonymity.sol\":21414:21421  burnFee */\n      dup7\n        /* \"anonimity/0.1-ETH-Anonymity.sol\":21397:21446  shareOfReward = [burnFee, fee1, fee2, fee3, fee4] */\n      dup2\n      mstore\n      0x20\n      add\n        /* \"anonimity/0.1-ETH-Anonymity.sol\":21423:21427  fee1 */\n      dup6\n        /* \"anonimity/0.1-ETH-Anonymity.sol\":21397:21446  shareOfReward = [burnFee, fee1, fee2, fee3, fee4] */\n      dup2\n      mstore\n      0x20\n      add\n        /* \"anonimity/0.1-ETH-Anonymity.sol\":21429:21433  fee2 */\n      dup5\n        /* \"anonimity/0.1-ETH-Anonymity.sol\":21397:21446  shareOfReward = [burnFee, fee1, fee2, fee3, fee4] */\n      dup2\n      mstore\n      0x20\n      add\n        /* \"anonimity/0.1-ETH-Anonymity.sol\":21435:21439  fee3 */\n      dup4\n        /* \"anonimity/0.1-ETH-Anonymity.sol\":21397:21446  shareOfReward = [burnFee, fee1, fee2, fee3, fee4] */\n      dup2\n      mstore\n      0x20\n      add\n        /* \"anonimity/0.1-ETH-Anonymity.sol\":21441:21445  fee4 */\n      dup3\n        /* \"anonimity/0.1-ETH-Anonymity.sol\":21397:21446  shareOfReward = [burnFee, fee1, fee2, fee3, fee4] */\n      dup2\n      mstore\n      pop\n        /* \"anonimity/0.1-ETH-Anonymity.sol\":21397:21410  shareOfReward */\n      0x79\n        /* \"anonimity/0.1-ETH-Anonymity.sol\":21397:21446  shareOfReward = [burnFee, fee1, fee2, fee3, fee4] */\n      swap1\n      0x05\n      tag_321\n      swap3\n      swap2\n      swap1\n      tag_322\n      jump\t// in\n    tag_321:\n      pop\n        /* \"anonimity/0.1-ETH-Anonymity.sol\":21211:21451  function setPoolFee(uint256 burnFee, uint256 fee1, uint256 fee2, uint256 fee3, uint256 fee4) public onlyOwner {... */\n      pop\n      pop\n      pop\n      pop\n      pop\n      jump\t// out\n        /* \"anonimity/0.1-ETH-Anonymity.sol\":8436:8456  uint32 public levels */\n    tag_120:\n      0x00\n      dup1\n      swap1\n      sload\n      swap1\n      0x0100\n      exp\n      swap1\n      div\n      0xffffffff\n      and\n      dup2\n      jump\t// out\n        /* \"anonimity/0.1-ETH-Anonymity.sol\":13439:13471  uint256 public tokenDenomination */\n    tag_123:\n      sload(0x69)\n      dup2\n      jump\t// out\n        /* \"anonimity/0.1-ETH-Anonymity.sol\":24295:24372  function version() public pure returns(string memory) {... */\n    tag_126:\n        /* \"anonimity/0.1-ETH-Anonymity.sol\":24334:24347  string memory */\n      0x60\n        /* \"anonimity/0.1-ETH-Anonymity.sol\":24355:24367  return \"2.3\" */\n      mload(0x40)\n      dup1\n      0x40\n      add\n      0x40\n      mstore\n      dup1\n      0x03\n      dup2\n      mstore\n      0x20\n      add\n      0x322e330000000000000000000000000000000000000000000000000000000000\n      dup2\n      mstore\n      pop\n      swap1\n      pop\n        /* \"anonimity/0.1-ETH-Anonymity.sol\":24295:24372  function version() public pure returns(string memory) {... */\n      swap1\n      jump\t// out\n        /* \"anonimity/0.1-ETH-Anonymity.sol\":13763:13786  address public treasury */\n    tag_133:\n      0x70\n      0x00\n      swap1\n      sload\n      swap1\n      0x0100\n      exp\n      swap1\n      div\n      0xffffffffffffffffffffffffffffffffffffffff\n      and\n      dup2\n      jump\t// out\n        /* \"anonimity/0.1-ETH-Anonymity.sol\":20935:21207  function setPoolList(address addr1, address addr2, address addr3, address addr4) public onlyOwner {... */\n    tag_137:\n        /* \"anonimity/0.1-ETH-Anonymity.sol\":14487:14500  messier_owner */\n      0x71\n      0x00\n      swap1\n      sload\n      swap1\n      0x0100\n      exp\n      swap1\n      div\n      0xffffffffffffffffffffffffffffffffffffffff\n      and\n        /* \"anonimity/0.1-ETH-Anonymity.sol\":14473:14500  msg.sender == messier_owner */\n      0xffffffffffffffffffffffffffffffffffffffff\n      and\n        /* \"anonimity/0.1-ETH-Anonymity.sol\":14473:14483  msg.sender */\n      caller\n        /* \"anonimity/0.1-ETH-Anonymity.sol\":14473:14500  msg.sender == messier_owner */\n      0xffffffffffffffffffffffffffffffffffffffff\n      and\n      eq\n        /* \"anonimity/0.1-ETH-Anonymity.sol\":14465:14539  require(msg.sender == messier_owner, \"Only Owner can call this function.\") */\n      tag_325\n      jumpi\n      mload(0x40)\n      0x08c379a000000000000000000000000000000000000000000000000000000000\n      dup2\n      mstore\n      0x04\n      add\n      dup1\n      dup1\n      0x20\n      add\n      dup3\n      dup2\n      sub\n      dup3\n      mstore\n      0x22\n      dup2\n      mstore\n      0x20\n      add\n      dup1\n      data_0e71a241197b393744b5df81fa847ab1c2bee75202755ee59d1abfcc113d1380\n      0x22\n      swap2\n      codecopy\n      0x40\n      add\n      swap2\n      pop\n      pop\n      mload(0x40)\n      dup1\n      swap2\n      sub\n      swap1\n      revert\n    tag_325:\n        /* \"anonimity/0.1-ETH-Anonymity.sol\":21065:21066  0 */\n      0x00\n        /* \"anonimity/0.1-ETH-Anonymity.sol\":21048:21067  addr1 != address(0) */\n      0xffffffffffffffffffffffffffffffffffffffff\n      and\n        /* \"anonimity/0.1-ETH-Anonymity.sol\":21048:21053  addr1 */\n      dup5\n        /* \"anonimity/0.1-ETH-Anonymity.sol\":21048:21067  addr1 != address(0) */\n      0xffffffffffffffffffffffffffffffffffffffff\n      and\n      eq\n      iszero\n        /* \"anonimity/0.1-ETH-Anonymity.sol\":21048:21090  addr1 != address(0) && addr2 != address(0) */\n      dup1\n      iszero\n      tag_327\n      jumpi\n      pop\n        /* \"anonimity/0.1-ETH-Anonymity.sol\":21088:21089  0 */\n      0x00\n        /* \"anonimity/0.1-ETH-Anonymity.sol\":21071:21090  addr2 != address(0) */\n      0xffffffffffffffffffffffffffffffffffffffff\n      and\n        /* \"anonimity/0.1-ETH-Anonymity.sol\":21071:21076  addr2 */\n      dup4\n        /* \"anonimity/0.1-ETH-Anonymity.sol\":21071:21090  addr2 != address(0) */\n      0xffffffffffffffffffffffffffffffffffffffff\n      and\n      eq\n      iszero\n        /* \"anonimity/0.1-ETH-Anonymity.sol\":21048:21090  addr1 != address(0) && addr2 != address(0) */\n    tag_327:\n        /* \"anonimity/0.1-ETH-Anonymity.sol\":21048:21113  addr1 != address(0) && addr2 != address(0) && addr3 != address(0) */\n      dup1\n      iszero\n      tag_328\n      jumpi\n      pop\n        /* \"anonimity/0.1-ETH-Anonymity.sol\":21111:21112  0 */\n      0x00\n        /* \"anonimity/0.1-ETH-Anonymity.sol\":21094:21113  addr3 != address(0) */\n      0xffffffffffffffffffffffffffffffffffffffff\n      and\n        /* \"anonimity/0.1-ETH-Anonymity.sol\":21094:21099  addr3 */\n      dup3\n        /* \"anonimity/0.1-ETH-Anonymity.sol\":21094:21113  addr3 != address(0) */\n      0xffffffffffffffffffffffffffffffffffffffff\n      and\n      eq\n      iszero\n        /* \"anonimity/0.1-ETH-Anonymity.sol\":21048:21113  addr1 != address(0) && addr2 != address(0) && addr3 != address(0) */\n    tag_328:\n        /* \"anonimity/0.1-ETH-Anonymity.sol\":21048:21136  addr1 != address(0) && addr2 != address(0) && addr3 != address(0) && addr4 != address(0) */\n      dup1\n      iszero\n      tag_329\n      jumpi\n      pop\n        /* \"anonimity/0.1-ETH-Anonymity.sol\":21134:21135  0 */\n      0x00\n        /* \"anonimity/0.1-ETH-Anonymity.sol\":21117:21136  addr4 != address(0) */\n      0xffffffffffffffffffffffffffffffffffffffff\n      and\n        /* \"anonimity/0.1-ETH-Anonymity.sol\":21117:21122  addr4 */\n      dup2\n        /* \"anonimity/0.1-ETH-Anonymity.sol\":21117:21136  addr4 != address(0) */\n      0xffffffffffffffffffffffffffffffffffffffff\n      and\n      eq\n      iszero\n        /* \"anonimity/0.1-ETH-Anonymity.sol\":21048:21136  addr1 != address(0) && addr2 != address(0) && addr3 != address(0) && addr4 != address(0) */\n    tag_329:\n        /* \"anonimity/0.1-ETH-Anonymity.sol\":21039:21157  require( addr1 != address(0) && addr2 != address(0) && addr3 != address(0) && addr4 != address(0), \"Not Zero Address\") */\n      tag_330\n      jumpi\n      mload(0x40)\n      0x08c379a000000000000000000000000000000000000000000000000000000000\n      dup2\n      mstore\n      0x04\n      add\n      dup1\n      dup1\n      0x20\n      add\n      dup3\n      dup2\n      sub\n      dup3\n      mstore\n      0x10\n      dup2\n      mstore\n      0x20\n      add\n      dup1\n      0x4e6f74205a65726f204164647265737300000000000000000000000000000000\n      dup2\n      mstore\n      pop\n      0x20\n      add\n      swap2\n      pop\n      pop\n      mload(0x40)\n      dup1\n      swap2\n      sub\n      swap1\n      revert\n    tag_330:\n        /* \"anonimity/0.1-ETH-Anonymity.sol\":21163:21202  poolList = [addr1, addr2, addr3, addr4] */\n      mload(0x40)\n      dup1\n      0x80\n      add\n      0x40\n      mstore\n      dup1\n        /* \"anonimity/0.1-ETH-Anonymity.sol\":21175:21180  addr1 */\n      dup6\n        /* \"anonimity/0.1-ETH-Anonymity.sol\":21163:21202  poolList = [addr1, addr2, addr3, addr4] */\n      0xffffffffffffffffffffffffffffffffffffffff\n      and\n      0xffffffffffffffffffffffffffffffffffffffff\n      and\n      dup2\n      mstore\n      0x20\n      add\n        /* \"anonimity/0.1-ETH-Anonymity.sol\":21182:21187  addr2 */\n      dup5\n        /* \"anonimity/0.1-ETH-Anonymity.sol\":21163:21202  poolList = [addr1, addr2, addr3, addr4] */\n      0xffffffffffffffffffffffffffffffffffffffff\n      and\n      0xffffffffffffffffffffffffffffffffffffffff\n      and\n      dup2\n      mstore\n      0x20\n      add\n        /* \"anonimity/0.1-ETH-Anonymity.sol\":21189:21194  addr3 */\n      dup4\n        /* \"anonimity/0.1-ETH-Anonymity.sol\":21163:21202  poolList = [addr1, addr2, addr3, addr4] */\n      0xffffffffffffffffffffffffffffffffffffffff\n      and\n      0xffffffffffffffffffffffffffffffffffffffff\n      and\n      dup2\n      mstore\n      0x20\n      add\n        /* \"anonimity/0.1-ETH-Anonymity.sol\":21196:21201  addr4 */\n      dup3\n        /* \"anonimity/0.1-ETH-Anonymity.sol\":21163:21202  poolList = [addr1, addr2, addr3, addr4] */\n      0xffffffffffffffffffffffffffffffffffffffff\n      and\n      0xffffffffffffffffffffffffffffffffffffffff\n      and\n      dup2\n      mstore\n      pop\n        /* \"anonimity/0.1-ETH-Anonymity.sol\":21163:21171  poolList */\n      0x7e\n        /* \"anonimity/0.1-ETH-Anonymity.sol\":21163:21202  poolList = [addr1, addr2, addr3, addr4] */\n      swap1\n      0x04\n      tag_331\n      swap3\n      swap2\n      swap1\n      tag_332\n      jump\t// in\n    tag_331:\n      pop\n        /* \"anonimity/0.1-ETH-Anonymity.sol\":20935:21207  function setPoolList(address addr1, address addr2, address addr3, address addr4) public onlyOwner {... */\n      pop\n      pop\n      pop\n      pop\n      jump\t// out\n        /* \"anonimity/0.1-ETH-Anonymity.sol\":14408:14435  uint256 public curPoolIndex */\n    tag_140:\n      sload(0x8b)\n      dup2\n      jump\t// out\n        /* \"anonimity/0.1-ETH-Anonymity.sol\":10611:10953  function isKnownRoot(bytes32 _root) public view returns(bool) {... */\n    tag_144:\n        /* \"anonimity/0.1-ETH-Anonymity.sol\":10667:10671  bool */\n      0x00\n        /* \"anonimity/0.1-ETH-Anonymity.sol\":10692:10693  0 */\n      dup1\n        /* \"anonimity/0.1-ETH-Anonymity.sol\":10683:10693  _root == 0 */\n      0x00\n      shl\n        /* \"anonimity/0.1-ETH-Anonymity.sol\":10683:10688  _root */\n      dup3\n        /* \"anonimity/0.1-ETH-Anonymity.sol\":10683:10693  _root == 0 */\n      eq\n        /* \"anonimity/0.1-ETH-Anonymity.sol\":10679:10722  if (_root == 0) {... */\n      iszero\n      tag_334\n      jumpi\n        /* \"anonimity/0.1-ETH-Anonymity.sol\":10710:10715  false */\n      0x00\n        /* \"anonimity/0.1-ETH-Anonymity.sol\":10703:10715  return false */\n      swap1\n      pop\n      jump(tag_333)\n        /* \"anonimity/0.1-ETH-Anonymity.sol\":10679:10722  if (_root == 0) {... */\n    tag_334:\n        /* \"anonimity/0.1-ETH-Anonymity.sol\":10727:10735  uint32 i */\n      0x00\n        /* \"anonimity/0.1-ETH-Anonymity.sol\":10738:10754  currentRootIndex */\n      0x03\n      0x00\n      swap1\n      sload\n      swap1\n      0x0100\n      exp\n      swap1\n      div\n      0xffffffff\n      and\n        /* \"anonimity/0.1-ETH-Anonymity.sol\":10727:10754  uint32 i = currentRootIndex */\n      swap1\n      pop\n        /* \"anonimity/0.1-ETH-Anonymity.sol\":10760:10931  do {... */\n    tag_335:\n        /* \"anonimity/0.1-ETH-Anonymity.sol\":10784:10789  roots */\n      0x04\n        /* \"anonimity/0.1-ETH-Anonymity.sol\":10790:10791  i */\n      dup2\n        /* \"anonimity/0.1-ETH-Anonymity.sol\":10784:10792  roots[i] */\n      0xffffffff\n      and\n      0x64\n      dup2\n      lt\n      tag_338\n      jumpi\n      invalid\n    tag_338:\n      add\n      sload\n        /* \"anonimity/0.1-ETH-Anonymity.sol\":10775:10780  _root */\n      dup4\n        /* \"anonimity/0.1-ETH-Anonymity.sol\":10775:10792  _root == roots[i] */\n      eq\n        /* \"anonimity/0.1-ETH-Anonymity.sol\":10771:10824  if (_root == roots[i]) {... */\n      iszero\n      tag_340\n      jumpi\n        /* \"anonimity/0.1-ETH-Anonymity.sol\":10811:10815  true */\n      0x01\n        /* \"anonimity/0.1-ETH-Anonymity.sol\":10804:10815  return true */\n      swap2\n      pop\n      pop\n      jump(tag_333)\n        /* \"anonimity/0.1-ETH-Anonymity.sol\":10771:10824  if (_root == roots[i]) {... */\n    tag_340:\n        /* \"anonimity/0.1-ETH-Anonymity.sol\":10840:10841  0 */\n      0x00\n        /* \"anonimity/0.1-ETH-Anonymity.sol\":10835:10836  i */\n      dup2\n        /* \"anonimity/0.1-ETH-Anonymity.sol\":10835:10841  i == 0 */\n      0xffffffff\n      and\n      eq\n        /* \"anonimity/0.1-ETH-Anonymity.sol\":10831:10883  if (i == 0) {... */\n      iszero\n      tag_341\n      jumpi\n        /* \"anonimity/0.1-ETH-Anonymity.sol\":8769:8772  100 */\n      0x64\n        /* \"anonimity/0.1-ETH-Anonymity.sol\":10853:10874  i = ROOT_HISTORY_SIZE */\n      swap1\n      pop\n        /* \"anonimity/0.1-ETH-Anonymity.sol\":10831:10883  if (i == 0) {... */\n    tag_341:\n        /* \"anonimity/0.1-ETH-Anonymity.sol\":10890:10893  i-- */\n      dup1\n      dup1\n      0x01\n      swap1\n      sub\n      swap2\n      pop\n      pop\n        /* \"anonimity/0.1-ETH-Anonymity.sol\":10913:10929  currentRootIndex */\n      0x03\n      0x00\n      swap1\n      sload\n      swap1\n      0x0100\n      exp\n      swap1\n      div\n      0xffffffff\n      and\n        /* \"anonimity/0.1-ETH-Anonymity.sol\":10908:10929  i != currentRootIndex */\n      0xffffffff\n      and\n        /* \"anonimity/0.1-ETH-Anonymity.sol\":10908:10909  i */\n      dup2\n        /* \"anonimity/0.1-ETH-Anonymity.sol\":10908:10929  i != currentRootIndex */\n      0xffffffff\n      and\n      eq\n      iszero\n        /* \"anonimity/0.1-ETH-Anonymity.sol\":10760:10931  do {... */\n      tag_335\n      jumpi\n        /* \"anonimity/0.1-ETH-Anonymity.sol\":10943:10948  false */\n      0x00\n        /* \"anonimity/0.1-ETH-Anonymity.sol\":10936:10948  return false */\n      swap2\n      pop\n      pop\n        /* \"anonimity/0.1-ETH-Anonymity.sol\":10611:10953  function isKnownRoot(bytes32 _root) public view returns(bool) {... */\n    tag_333:\n      swap2\n      swap1\n      pop\n      jump\t// out\n        /* \"anonimity/0.1-ETH-Anonymity.sol\":13737:13759  IERC20 public M87Token */\n    tag_147:\n      0x6f\n      0x00\n      swap1\n      sload\n      swap1\n      0x0100\n      exp\n      swap1\n      div\n      0xffffffffffffffffffffffffffffffffffffffff\n      and\n      dup2\n      jump\t// out\n        /* \"anonimity/0.1-ETH-Anonymity.sol\":24072:24291  function setFeePercent(uint256 _fee) public onlyOwner {... */\n    tag_151:\n        /* \"anonimity/0.1-ETH-Anonymity.sol\":14487:14500  messier_owner */\n      0x71\n      0x00\n      swap1\n      sload\n      swap1\n      0x0100\n      exp\n      swap1\n      div\n      0xffffffffffffffffffffffffffffffffffffffff\n      and\n        /* \"anonimity/0.1-ETH-Anonymity.sol\":14473:14500  msg.sender == messier_owner */\n      0xffffffffffffffffffffffffffffffffffffffff\n      and\n        /* \"anonimity/0.1-ETH-Anonymity.sol\":14473:14483  msg.sender */\n      caller\n        /* \"anonimity/0.1-ETH-Anonymity.sol\":14473:14500  msg.sender == messier_owner */\n      0xffffffffffffffffffffffffffffffffffffffff\n      and\n      eq\n        /* \"anonimity/0.1-ETH-Anonymity.sol\":14465:14539  require(msg.sender == messier_owner, \"Only Owner can call this function.\") */\n      tag_343\n      jumpi\n      mload(0x40)\n      0x08c379a000000000000000000000000000000000000000000000000000000000\n      dup2\n      mstore\n      0x04\n      add\n      dup1\n      dup1\n      0x20\n      add\n      dup3\n      dup2\n      sub\n      dup3\n      mstore\n      0x22\n      dup2\n      mstore\n      0x20\n      add\n      dup1\n      data_0e71a241197b393744b5df81fa847ab1c2bee75202755ee59d1abfcc113d1380\n      0x22\n      swap2\n      codecopy\n      0x40\n      add\n      swap2\n      pop\n      pop\n      mload(0x40)\n      dup1\n      swap2\n      sub\n      swap1\n      revert\n    tag_343:\n        /* \"anonimity/0.1-ETH-Anonymity.sol\":24147:24149  10 */\n      0x0a\n        /* \"anonimity/0.1-ETH-Anonymity.sol\":24140:24144  _fee */\n      dup2\n        /* \"anonimity/0.1-ETH-Anonymity.sol\":24140:24149  _fee < 10 */\n      lt\n        /* \"anonimity/0.1-ETH-Anonymity.sol\":24132:24173  require(_fee < 10, \"Fee can't exceed 1%\") */\n      tag_345\n      jumpi\n      mload(0x40)\n      0x08c379a000000000000000000000000000000000000000000000000000000000\n      dup2\n      mstore\n      0x04\n      add\n      dup1\n      dup1\n      0x20\n      add\n      dup3\n      dup2\n      sub\n      dup3\n      mstore\n      0x13\n      dup2\n      mstore\n      0x20\n      add\n      dup1\n      0x4665652063616e27742065786365656420312500000000000000000000000000\n      dup2\n      mstore\n      pop\n      0x20\n      add\n      swap2\n      pop\n      pop\n      mload(0x40)\n      dup1\n      swap2\n      sub\n      swap1\n      revert\n    tag_345:\n        /* \"anonimity/0.1-ETH-Anonymity.sol\":24201:24205  _fee */\n      dup1\n        /* \"anonimity/0.1-ETH-Anonymity.sol\":24179:24198  feeToCollectPercent */\n      0x87\n        /* \"anonimity/0.1-ETH-Anonymity.sol\":24179:24205  feeToCollectPercent = _fee */\n      dup2\n      swap1\n      sstore\n      pop\n        /* \"anonimity/0.1-ETH-Anonymity.sol\":24281:24285  1000 */\n      0x03e8\n        /* \"anonimity/0.1-ETH-Anonymity.sol\":24251:24270  feeToCollectPercent */\n      sload(0x87)\n        /* \"anonimity/0.1-ETH-Anonymity.sol\":24232:24248  coinDenomination */\n      sload(0x6a)\n        /* \"anonimity/0.1-ETH-Anonymity.sol\":24232:24270  coinDenomination * feeToCollectPercent */\n      mul\n        /* \"anonimity/0.1-ETH-Anonymity.sol\":24232:24286  coinDenomination * feeToCollectPercent / uint256(1000) */\n      dup2\n      tag_346\n      jumpi\n      invalid\n    tag_346:\n      div\n        /* \"anonimity/0.1-ETH-Anonymity.sol\":24211:24229  feeToCollectAmount */\n      0x88\n        /* \"anonimity/0.1-ETH-Anonymity.sol\":24211:24286  feeToCollectAmount = coinDenomination * feeToCollectPercent / uint256(1000) */\n      dup2\n      swap1\n      sstore\n      pop\n        /* \"anonimity/0.1-ETH-Anonymity.sol\":24072:24291  function setFeePercent(uint256 _fee) public onlyOwner {... */\n      pop\n      jump\t// out\n        /* \"anonimity/0.1-ETH-Anonymity.sol\":13549:13592  mapping(bytes32 => bool) public commitments */\n    tag_155:\n      mstore(0x20, 0x6c)\n      dup1\n      0x00\n      mstore\n      keccak256(0x00, 0x40)\n      0x00\n      swap2\n      pop\n      sload\n      swap1\n      0x0100\n      exp\n      swap1\n      div\n      0xff\n      and\n      dup2\n      jump\t// out\n        /* \"anonimity/0.1-ETH-Anonymity.sol\":13886:13915  uint256 public rewardPerBlock */\n    tag_158:\n      sload(0x74)\n      dup2\n      jump\t// out\n        /* \"anonimity/0.1-ETH-Anonymity.sol\":16044:16383  function updateBlockReward() public {... */\n    tag_161:\n        /* \"anonimity/0.1-ETH-Anonymity.sol\":16086:16105  uint256 blockNumber */\n      0x00\n        /* \"anonimity/0.1-ETH-Anonymity.sol\":16108:16120  block.number */\n      number\n        /* \"anonimity/0.1-ETH-Anonymity.sol\":16086:16120  uint256 blockNumber = block.number */\n      swap1\n      pop\n        /* \"anonimity/0.1-ETH-Anonymity.sol\":16145:16160  lastRewardBlock */\n      sload(0x73)\n        /* \"anonimity/0.1-ETH-Anonymity.sol\":16130:16141  blockNumber */\n      dup2\n        /* \"anonimity/0.1-ETH-Anonymity.sol\":16130:16160  blockNumber <= lastRewardBlock */\n      gt\n        /* \"anonimity/0.1-ETH-Anonymity.sol\":16126:16183  if (blockNumber <= lastRewardBlock) {... */\n      tag_348\n      jumpi\n        /* \"anonimity/0.1-ETH-Anonymity.sol\":16170:16177  return; */\n      pop\n      jump(tag_347)\n        /* \"anonimity/0.1-ETH-Anonymity.sol\":16126:16183  if (blockNumber <= lastRewardBlock) {... */\n    tag_348:\n        /* \"anonimity/0.1-ETH-Anonymity.sol\":16210:16211  0 */\n      0x00\n        /* \"anonimity/0.1-ETH-Anonymity.sol\":16192:16206  rewardPerBlock */\n      sload(0x74)\n        /* \"anonimity/0.1-ETH-Anonymity.sol\":16192:16211  rewardPerBlock != 0 */\n      eq\n        /* \"anonimity/0.1-ETH-Anonymity.sol\":16188:16263  if (rewardPerBlock != 0) {... */\n      tag_349\n      jumpi\n        /* \"anonimity/0.1-ETH-Anonymity.sol\":16237:16256  calcAccumulateM87() */\n      tag_350\n        /* \"anonimity/0.1-ETH-Anonymity.sol\":16237:16254  calcAccumulateM87 */\n      tag_291\n        /* \"anonimity/0.1-ETH-Anonymity.sol\":16237:16256  calcAccumulateM87() */\n      jump\t// in\n    tag_350:\n        /* \"anonimity/0.1-ETH-Anonymity.sol\":16221:16234  accumulateM87 */\n      0x75\n        /* \"anonimity/0.1-ETH-Anonymity.sol\":16221:16256  accumulateM87 = calcAccumulateM87() */\n      dup2\n      swap1\n      sstore\n      pop\n        /* \"anonimity/0.1-ETH-Anonymity.sol\":16188:16263  if (rewardPerBlock != 0) {... */\n    tag_349:\n        /* \"anonimity/0.1-ETH-Anonymity.sol\":16367:16378  blockNumber */\n      dup1\n        /* \"anonimity/0.1-ETH-Anonymity.sol\":16349:16364  lastRewardBlock */\n      0x73\n        /* \"anonimity/0.1-ETH-Anonymity.sol\":16349:16378  lastRewardBlock = blockNumber */\n      dup2\n      swap1\n      sstore\n      pop\n        /* \"anonimity/0.1-ETH-Anonymity.sol\":16044:16383  function updateBlockReward() public {... */\n      pop\n    tag_347:\n      jump\t// out\n        /* \"anonimity/0.1-ETH-Anonymity.sol\":20428:20564  function setAnonymityFee(uint256 _fee) public onlyOwner {... */\n    tag_165:\n        /* \"anonimity/0.1-ETH-Anonymity.sol\":14487:14500  messier_owner */\n      0x71\n      0x00\n      swap1\n      sload\n      swap1\n      0x0100\n      exp\n      swap1\n      div\n      0xffffffffffffffffffffffffffffffffffffffff\n      and\n        /* \"anonimity/0.1-ETH-Anonymity.sol\":14473:14500  msg.sender == messier_owner */\n      0xffffffffffffffffffffffffffffffffffffffff\n      and\n        /* \"anonimity/0.1-ETH-Anonymity.sol\":14473:14483  msg.sender */\n      caller\n        /* \"anonimity/0.1-ETH-Anonymity.sol\":14473:14500  msg.sender == messier_owner */\n      0xffffffffffffffffffffffffffffffffffffffff\n      and\n      eq\n        /* \"anonimity/0.1-ETH-Anonymity.sol\":14465:14539  require(msg.sender == messier_owner, \"Only Owner can call this function.\") */\n      tag_352\n      jumpi\n      mload(0x40)\n      0x08c379a000000000000000000000000000000000000000000000000000000000\n      dup2\n      mstore\n      0x04\n      add\n      dup1\n      dup1\n      0x20\n      add\n      dup3\n      dup2\n      sub\n      dup3\n      mstore\n      0x22\n      dup2\n      mstore\n      0x20\n      add\n      dup1\n      data_0e71a241197b393744b5df81fa847ab1c2bee75202755ee59d1abfcc113d1380\n      0x22\n      swap2\n      codecopy\n      0x40\n      add\n      swap2\n      pop\n      pop\n      mload(0x40)\n      dup1\n      swap2\n      sub\n      swap1\n      revert\n    tag_352:\n        /* \"anonimity/0.1-ETH-Anonymity.sol\":20495:20534  AnonymityFeeUpdated(anonymityFee, _fee) */\n      0xf077eec825bf8719ab7021daf299e3feb4cb33472ac3f1e661657fd9701a3e7e\n        /* \"anonimity/0.1-ETH-Anonymity.sol\":20515:20527  anonymityFee */\n      sload(0x76)\n        /* \"anonimity/0.1-ETH-Anonymity.sol\":20529:20533  _fee */\n      dup3\n        /* \"anonimity/0.1-ETH-Anonymity.sol\":20495:20534  AnonymityFeeUpdated(anonymityFee, _fee) */\n      mload(0x40)\n      dup1\n      dup4\n      dup2\n      mstore\n      0x20\n      add\n      dup3\n      dup2\n      mstore\n      0x20\n      add\n      swap3\n      pop\n      pop\n      pop\n      mload(0x40)\n      dup1\n      swap2\n      sub\n      swap1\n      log1\n        /* \"anonimity/0.1-ETH-Anonymity.sol\":20555:20559  _fee */\n      dup1\n        /* \"anonimity/0.1-ETH-Anonymity.sol\":20540:20552  anonymityFee */\n      0x76\n        /* \"anonimity/0.1-ETH-Anonymity.sol\":20540:20559  anonymityFee = _fee */\n      dup2\n      swap1\n      sstore\n      pop\n        /* \"anonimity/0.1-ETH-Anonymity.sol\":20428:20564  function setAnonymityFee(uint256 _fee) public onlyOwner {... */\n      pop\n      jump\t// out\n        /* \"anonimity/0.1-ETH-Anonymity.sol\":8657:8691  uint32 public currentRootIndex = 0 */\n    tag_168:\n      0x03\n      0x00\n      swap1\n      sload\n      swap1\n      0x0100\n      exp\n      swap1\n      div\n      0xffffffff\n      and\n      dup2\n      jump\t// out\n        /* \"anonimity/0.1-ETH-Anonymity.sol\":16387:16598  function getAccumulateM87() public view returns (uint256) {... */\n    tag_171:\n        /* \"anonimity/0.1-ETH-Anonymity.sol\":16436:16443  uint256 */\n      0x00\n        /* \"anonimity/0.1-ETH-Anonymity.sol\":16451:16469  uint256 curBalance */\n      dup1\n        /* \"anonimity/0.1-ETH-Anonymity.sol\":16472:16480  M87Token */\n      0x6f\n      0x00\n      swap1\n      sload\n      swap1\n      0x0100\n      exp\n      swap1\n      div\n      0xffffffffffffffffffffffffffffffffffffffff\n      and\n        /* \"anonimity/0.1-ETH-Anonymity.sol\":16472:16490  M87Token.balanceOf */\n      0xffffffffffffffffffffffffffffffffffffffff\n      and\n      0x70a08231\n        /* \"anonimity/0.1-ETH-Anonymity.sol\":16499:16503  this */\n      address\n        /* \"anonimity/0.1-ETH-Anonymity.sol\":16472:16505  M87Token.balanceOf(address(this)) */\n      mload(0x40)\n      dup3\n      0xffffffff\n      and\n      0xe0\n      shl\n      dup2\n      mstore\n      0x04\n      add\n      dup1\n      dup3\n      0xffffffffffffffffffffffffffffffffffffffff\n      and\n      0xffffffffffffffffffffffffffffffffffffffff\n      and\n      dup2\n      mstore\n      0x20\n      add\n      swap2\n      pop\n      pop\n      0x20\n      mload(0x40)\n      dup1\n      dup4\n      sub\n      dup2\n      dup7\n      dup1\n      extcodesize\n      iszero\n        /* \"--CODEGEN--\":8:17   */\n      dup1\n        /* \"--CODEGEN--\":5:7   */\n      iszero\n      tag_355\n      jumpi\n        /* \"--CODEGEN--\":30:31   */\n      0x00\n        /* \"--CODEGEN--\":27:28   */\n      dup1\n        /* \"--CODEGEN--\":20:32   */\n      revert\n        /* \"--CODEGEN--\":5:7   */\n    tag_355:\n        /* \"anonimity/0.1-ETH-Anonymity.sol\":16472:16505  M87Token.balanceOf(address(this)) */\n      pop\n      gas\n      staticcall\n      iszero\n        /* \"--CODEGEN--\":8:17   */\n      dup1\n        /* \"--CODEGEN--\":5:7   */\n      iszero\n      tag_356\n      jumpi\n        /* \"--CODEGEN--\":45:61   */\n      returndatasize\n        /* \"--CODEGEN--\":42:43   */\n      0x00\n        /* \"--CODEGEN--\":39:40   */\n      dup1\n        /* \"--CODEGEN--\":24:62   */\n      returndatacopy\n        /* \"--CODEGEN--\":77:93   */\n      returndatasize\n        /* \"--CODEGEN--\":74:75   */\n      0x00\n        /* \"--CODEGEN--\":67:94   */\n      revert\n        /* \"--CODEGEN--\":5:7   */\n    tag_356:\n        /* \"anonimity/0.1-ETH-Anonymity.sol\":16472:16505  M87Token.balanceOf(address(this)) */\n      pop\n      pop\n      pop\n      pop\n      mload(0x40)\n      returndatasize\n        /* \"--CODEGEN--\":13:15   */\n      0x20\n        /* \"--CODEGEN--\":8:11   */\n      dup2\n        /* \"--CODEGEN--\":5:16   */\n      lt\n        /* \"--CODEGEN--\":2:4   */\n      iszero\n      tag_357\n      jumpi\n        /* \"--CODEGEN--\":29:30   */\n      0x00\n        /* \"--CODEGEN--\":26:27   */\n      dup1\n        /* \"--CODEGEN--\":19:31   */\n      revert\n        /* \"--CODEGEN--\":2:4   */\n    tag_357:\n        /* \"anonimity/0.1-ETH-Anonymity.sol\":16472:16505  M87Token.balanceOf(address(this)) */\n      dup2\n      add\n      swap1\n      dup1\n      dup1\n      mload\n      swap1\n      0x20\n      add\n      swap1\n      swap3\n      swap2\n      swap1\n      pop\n      pop\n      pop\n        /* \"anonimity/0.1-ETH-Anonymity.sol\":16451:16505  uint256 curBalance = M87Token.balanceOf(address(this)) */\n      swap1\n      pop\n        /* \"anonimity/0.1-ETH-Anonymity.sol\":16528:16541  accumulateM87 */\n      sload(0x75)\n        /* \"anonimity/0.1-ETH-Anonymity.sol\":16515:16525  curBalance */\n      dup2\n        /* \"anonimity/0.1-ETH-Anonymity.sol\":16515:16541  curBalance < accumulateM87 */\n      lt\n        /* \"anonimity/0.1-ETH-Anonymity.sol\":16511:16567  if( curBalance < accumulateM87 )... */\n      iszero\n      tag_358\n      jumpi\n        /* \"anonimity/0.1-ETH-Anonymity.sol\":16557:16567  curBalance */\n      dup1\n        /* \"anonimity/0.1-ETH-Anonymity.sol\":16550:16567  return curBalance */\n      swap2\n      pop\n      pop\n      jump(tag_354)\n        /* \"anonimity/0.1-ETH-Anonymity.sol\":16511:16567  if( curBalance < accumulateM87 )... */\n    tag_358:\n        /* \"anonimity/0.1-ETH-Anonymity.sol\":16580:16593  accumulateM87 */\n      sload(0x75)\n        /* \"anonimity/0.1-ETH-Anonymity.sol\":16573:16593  return accumulateM87 */\n      swap2\n      pop\n      pop\n        /* \"anonimity/0.1-ETH-Anonymity.sol\":16387:16598  function getAccumulateM87() public view returns (uint256) {... */\n    tag_354:\n      swap1\n      jump\t// out\n        /* \"anonimity/0.1-ETH-Anonymity.sol\":19958:20068  function updateVerifier(address _newVerifier) external onlyOwner {... */\n    tag_175:\n        /* \"anonimity/0.1-ETH-Anonymity.sol\":14487:14500  messier_owner */\n      0x71\n      0x00\n      swap1\n      sload\n      swap1\n      0x0100\n      exp\n      swap1\n      div\n      0xffffffffffffffffffffffffffffffffffffffff\n      and\n        /* \"anonimity/0.1-ETH-Anonymity.sol\":14473:14500  msg.sender == messier_owner */\n      0xffffffffffffffffffffffffffffffffffffffff\n      and\n        /* \"anonimity/0.1-ETH-Anonymity.sol\":14473:14483  msg.sender */\n      caller\n        /* \"anonimity/0.1-ETH-Anonymity.sol\":14473:14500  msg.sender == messier_owner */\n      0xffffffffffffffffffffffffffffffffffffffff\n      and\n      eq\n        /* \"anonimity/0.1-ETH-Anonymity.sol\":14465:14539  require(msg.sender == messier_owner, \"Only Owner can call this function.\") */\n      tag_360\n      jumpi\n      mload(0x40)\n      0x08c379a000000000000000000000000000000000000000000000000000000000\n      dup2\n      mstore\n      0x04\n      add\n      dup1\n      dup1\n      0x20\n      add\n      dup3\n      dup2\n      sub\n      dup3\n      mstore\n      0x22\n      dup2\n      mstore\n      0x20\n      add\n      dup1\n      data_0e71a241197b393744b5df81fa847ab1c2bee75202755ee59d1abfcc113d1380\n      0x22\n      swap2\n      codecopy\n      0x40\n      add\n      swap2\n      pop\n      pop\n      mload(0x40)\n      dup1\n      swap2\n      sub\n      swap1\n      revert\n    tag_360:\n        /* \"anonimity/0.1-ETH-Anonymity.sol\":20050:20062  _newVerifier */\n      dup1\n        /* \"anonimity/0.1-ETH-Anonymity.sol\":20029:20037  verifier */\n      0x6d\n      0x00\n        /* \"anonimity/0.1-ETH-Anonymity.sol\":20029:20063  verifier = IVerifier(_newVerifier) */\n      0x0100\n      exp\n      dup2\n      sload\n      dup2\n      0xffffffffffffffffffffffffffffffffffffffff\n      mul\n      not\n      and\n      swap1\n      dup4\n      0xffffffffffffffffffffffffffffffffffffffff\n      and\n      mul\n      or\n      swap1\n      sstore\n      pop\n        /* \"anonimity/0.1-ETH-Anonymity.sol\":19958:20068  function updateVerifier(address _newVerifier) external onlyOwner {... */\n      pop\n      jump\t// out\n        /* \"anonimity/0.1-ETH-Anonymity.sol\":13476:13507  uint256 public coinDenomination */\n    tag_178:\n      sload(0x6a)\n      dup2\n      jump\t// out\n        /* \"anonimity/0.1-ETH-Anonymity.sol\":13852:13882  uint256 public lastRewardBlock */\n    tag_181:\n      sload(0x73)\n      dup2\n      jump\t// out\n        /* \"anonimity/0.1-ETH-Anonymity.sol\":13511:13545  uint256 public initM87Denomination */\n    tag_184:\n      sload(0x6b)\n      dup2\n      jump\t// out\n        /* \"anonimity/0.1-ETH-Anonymity.sol\":20325:20424  function changeTreasury(address _newTreasury) external onlyOwner {... */\n    tag_188:\n        /* \"anonimity/0.1-ETH-Anonymity.sol\":14487:14500  messier_owner */\n      0x71\n      0x00\n      swap1\n      sload\n      swap1\n      0x0100\n      exp\n      swap1\n      div\n      0xffffffffffffffffffffffffffffffffffffffff\n      and\n        /* \"anonimity/0.1-ETH-Anonymity.sol\":14473:14500  msg.sender == messier_owner */\n      0xffffffffffffffffffffffffffffffffffffffff\n      and\n        /* \"anonimity/0.1-ETH-Anonymity.sol\":14473:14483  msg.sender */\n      caller\n        /* \"anonimity/0.1-ETH-Anonymity.sol\":14473:14500  msg.sender == messier_owner */\n      0xffffffffffffffffffffffffffffffffffffffff\n      and\n      eq\n        /* \"anonimity/0.1-ETH-Anonymity.sol\":14465:14539  require(msg.sender == messier_owner, \"Only Owner can call this function.\") */\n      tag_363\n      jumpi\n      mload(0x40)\n      0x08c379a000000000000000000000000000000000000000000000000000000000\n      dup2\n      mstore\n      0x04\n      add\n      dup1\n      dup1\n      0x20\n      add\n      dup3\n      dup2\n      sub\n      dup3\n      mstore\n      0x22\n      dup2\n      mstore\n      0x20\n      add\n      dup1\n      data_0e71a241197b393744b5df81fa847ab1c2bee75202755ee59d1abfcc113d1380\n      0x22\n      swap2\n      codecopy\n      0x40\n      add\n      swap2\n      pop\n      pop\n      mload(0x40)\n      dup1\n      swap2\n      sub\n      swap1\n      revert\n    tag_363:\n        /* \"anonimity/0.1-ETH-Anonymity.sol\":20407:20419  _newTreasury */\n      dup1\n        /* \"anonimity/0.1-ETH-Anonymity.sol\":20396:20404  treasury */\n      0x70\n      0x00\n        /* \"anonimity/0.1-ETH-Anonymity.sol\":20396:20419  treasury = _newTreasury */\n      0x0100\n      exp\n      dup2\n      sload\n      dup2\n      0xffffffffffffffffffffffffffffffffffffffff\n      mul\n      not\n      and\n      swap1\n      dup4\n      0xffffffffffffffffffffffffffffffffffffffff\n      and\n      mul\n      or\n      swap1\n      sstore\n      pop\n        /* \"anonimity/0.1-ETH-Anonymity.sol\":20325:20424  function changeTreasury(address _newTreasury) external onlyOwner {... */\n      pop\n      jump\t// out\n        /* \"anonimity/0.1-ETH-Anonymity.sol\":17224:18378  function deposit(bytes32 _commitment) external payable nonReentrant returns (bytes32 commitment, uint32 insertedIndex, uint256 blocktime, uint256 M87Deno, uint256 fee){... */\n    tag_191:\n        /* \"anonimity/0.1-ETH-Anonymity.sol\":17301:17319  bytes32 commitment */\n      0x00\n        /* \"anonimity/0.1-ETH-Anonymity.sol\":17321:17341  uint32 insertedIndex */\n      dup1\n        /* \"anonimity/0.1-ETH-Anonymity.sol\":17343:17360  uint256 blocktime */\n      0x00\n        /* \"anonimity/0.1-ETH-Anonymity.sol\":17362:17377  uint256 M87Deno */\n      dup1\n        /* \"anonimity/0.1-ETH-Anonymity.sol\":17379:17390  uint256 fee */\n      0x00\n        /* \"anonimity/0.1-ETH-Anonymity.sol\":12721:12722  1 */\n      0x01\n        /* \"anonimity/0.1-ETH-Anonymity.sol\":12704:12717  _guardCounter */\n      0x68\n      0x00\n        /* \"anonimity/0.1-ETH-Anonymity.sol\":12704:12722  _guardCounter += 1 */\n      dup3\n      dup3\n      sload\n      add\n      swap3\n      pop\n      pop\n      dup2\n      swap1\n      sstore\n      pop\n        /* \"anonimity/0.1-ETH-Anonymity.sol\":12732:12752  uint256 localCounter */\n      0x00\n        /* \"anonimity/0.1-ETH-Anonymity.sol\":12755:12768  _guardCounter */\n      sload(0x68)\n        /* \"anonimity/0.1-ETH-Anonymity.sol\":12732:12768  uint256 localCounter = _guardCounter */\n      swap1\n      pop\n        /* \"anonimity/0.1-ETH-Anonymity.sol\":17406:17417  commitments */\n      0x6c\n        /* \"anonimity/0.1-ETH-Anonymity.sol\":17406:17430  commitments[_commitment] */\n      0x00\n        /* \"anonimity/0.1-ETH-Anonymity.sol\":17418:17429  _commitment */\n      dup9\n        /* \"anonimity/0.1-ETH-Anonymity.sol\":17406:17430  commitments[_commitment] */\n      dup2\n      mstore\n      0x20\n      add\n      swap1\n      dup2\n      mstore\n      0x20\n      add\n      0x00\n      keccak256\n      0x00\n      swap1\n      sload\n      swap1\n      0x0100\n      exp\n      swap1\n      div\n      0xff\n      and\n        /* \"anonimity/0.1-ETH-Anonymity.sol\":17405:17430  !commitments[_commitment] */\n      iszero\n        /* \"anonimity/0.1-ETH-Anonymity.sol\":17397:17468  require(!commitments[_commitment], \"The commitment has been submitted\") */\n      tag_367\n      jumpi\n      mload(0x40)\n      0x08c379a000000000000000000000000000000000000000000000000000000000\n      dup2\n      mstore\n      0x04\n      add\n      dup1\n      dup1\n      0x20\n      add\n      dup3\n      dup2\n      sub\n      dup3\n      mstore\n      0x21\n      dup2\n      mstore\n      0x20\n      add\n      dup1\n      data_ae5f231636554c1cb3bf839359e4dfbb338ccb221c7c5dbdf2da91ddc6e2ee6b\n      0x21\n      swap2\n      codecopy\n      0x40\n      add\n      swap2\n      pop\n      pop\n      mload(0x40)\n      dup1\n      swap2\n      sub\n      swap1\n      revert\n    tag_367:\n        /* \"anonimity/0.1-ETH-Anonymity.sol\":17495:17511  coinDenomination */\n      sload(0x6a)\n        /* \"anonimity/0.1-ETH-Anonymity.sol\":17482:17491  msg.value */\n      callvalue\n        /* \"anonimity/0.1-ETH-Anonymity.sol\":17482:17511  msg.value >= coinDenomination */\n      lt\n      iszero\n        /* \"anonimity/0.1-ETH-Anonymity.sol\":17474:17540  require(msg.value >= coinDenomination, \"insufficient coin amount\") */\n      tag_368\n      jumpi\n      mload(0x40)\n      0x08c379a000000000000000000000000000000000000000000000000000000000\n      dup2\n      mstore\n      0x04\n      add\n      dup1\n      dup1\n      0x20\n      add\n      dup3\n      dup2\n      sub\n      dup3\n      mstore\n      0x18\n      dup2\n      mstore\n      0x20\n      add\n      dup1\n      0x696e73756666696369656e7420636f696e20616d6f756e740000000000000000\n      dup2\n      mstore\n      pop\n      0x20\n      add\n      swap2\n      pop\n      pop\n      mload(0x40)\n      dup1\n      swap2\n      sub\n      swap1\n      revert\n    tag_368:\n        /* \"anonimity/0.1-ETH-Anonymity.sol\":17560:17571  _commitment */\n      dup7\n        /* \"anonimity/0.1-ETH-Anonymity.sol\":17547:17571  commitment = _commitment */\n      swap6\n      pop\n        /* \"anonimity/0.1-ETH-Anonymity.sol\":17589:17604  block.timestamp */\n      timestamp\n        /* \"anonimity/0.1-ETH-Anonymity.sol\":17577:17604  blocktime = block.timestamp */\n      swap4\n      pop\n        /* \"anonimity/0.1-ETH-Anonymity.sol\":17610:17624  uint256 refund */\n      0x00\n        /* \"anonimity/0.1-ETH-Anonymity.sol\":17639:17655  coinDenomination */\n      sload(0x6a)\n        /* \"anonimity/0.1-ETH-Anonymity.sol\":17627:17636  msg.value */\n      callvalue\n        /* \"anonimity/0.1-ETH-Anonymity.sol\":17627:17655  msg.value - coinDenomination */\n      sub\n        /* \"anonimity/0.1-ETH-Anonymity.sol\":17610:17655  uint256 refund = msg.value - coinDenomination */\n      swap1\n      pop\n        /* \"anonimity/0.1-ETH-Anonymity.sol\":17677:17697  _insert(_commitment) */\n      tag_369\n        /* \"anonimity/0.1-ETH-Anonymity.sol\":17685:17696  _commitment */\n      dup9\n        /* \"anonimity/0.1-ETH-Anonymity.sol\":17677:17684  _insert */\n      tag_370\n        /* \"anonimity/0.1-ETH-Anonymity.sol\":17677:17697  _insert(_commitment) */\n      jump\t// in\n    tag_369:\n        /* \"anonimity/0.1-ETH-Anonymity.sol\":17661:17697  insertedIndex = _insert(_commitment) */\n      swap6\n      pop\n        /* \"anonimity/0.1-ETH-Anonymity.sol\":17730:17734  true */\n      0x01\n        /* \"anonimity/0.1-ETH-Anonymity.sol\":17703:17714  commitments */\n      0x6c\n        /* \"anonimity/0.1-ETH-Anonymity.sol\":17703:17727  commitments[_commitment] */\n      0x00\n        /* \"anonimity/0.1-ETH-Anonymity.sol\":17715:17726  _commitment */\n      dup11\n        /* \"anonimity/0.1-ETH-Anonymity.sol\":17703:17727  commitments[_commitment] */\n      dup2\n      mstore\n      0x20\n      add\n      swap1\n      dup2\n      mstore\n      0x20\n      add\n      0x00\n      keccak256\n      0x00\n        /* \"anonimity/0.1-ETH-Anonymity.sol\":17703:17734  commitments[_commitment] = true */\n      0x0100\n      exp\n      dup2\n      sload\n      dup2\n      0xff\n      mul\n      not\n      and\n      swap1\n      dup4\n      iszero\n      iszero\n      mul\n      or\n      swap1\n      sstore\n      pop\n        /* \"anonimity/0.1-ETH-Anonymity.sol\":18007:18008  0 */\n      0x00\n        /* \"anonimity/0.1-ETH-Anonymity.sol\":17998:18004  refund */\n      dup2\n        /* \"anonimity/0.1-ETH-Anonymity.sol\":17998:18008  refund > 0 */\n      gt\n        /* \"anonimity/0.1-ETH-Anonymity.sol\":17994:18121  if (refund > 0) {... */\n      iszero\n      tag_371\n      jumpi\n        /* \"anonimity/0.1-ETH-Anonymity.sol\":18019:18031  bool success */\n      0x00\n        /* \"anonimity/0.1-ETH-Anonymity.sol\":18037:18047  msg.sender */\n      caller\n        /* \"anonimity/0.1-ETH-Anonymity.sol\":18037:18052  msg.sender.call */\n      0xffffffffffffffffffffffffffffffffffffffff\n      and\n        /* \"anonimity/0.1-ETH-Anonymity.sol\":18059:18065  refund */\n      dup3\n        /* \"anonimity/0.1-ETH-Anonymity.sol\":18037:18070  msg.sender.call.value(refund)(\"\") */\n      mload(0x40)\n      dup1\n      0x00\n      add\n      swap1\n      pop\n      0x00\n      mload(0x40)\n      dup1\n      dup4\n      sub\n      dup2\n      dup6\n      dup8\n      gas\n      call\n      swap3\n      pop\n      pop\n      pop\n      returndatasize\n        /* \"--CODEGEN--\":14:15   */\n      dup1\n        /* \"--CODEGEN--\":21:22   */\n      0x00\n        /* \"--CODEGEN--\":16:47   */\n      dup2\n      eq\n      tag_373\n      jumpi\n        /* \"--CODEGEN--\":75:79   */\n      0x40\n        /* \"--CODEGEN--\":69:80   */\n      mload\n        /* \"--CODEGEN--\":64:80   */\n      swap2\n      pop\n        /* \"--CODEGEN--\":144:148   */\n      0x1f\n        /* \"--CODEGEN--\":140:149   */\n      not\n        /* \"--CODEGEN--\":133:137   */\n      0x3f\n        /* \"--CODEGEN--\":115:131   */\n      returndatasize\n        /* \"--CODEGEN--\":111:138   */\n      add\n        /* \"--CODEGEN--\":107:150   */\n      and\n        /* \"--CODEGEN--\":104:105   */\n      dup3\n        /* \"--CODEGEN--\":100:151   */\n      add\n        /* \"--CODEGEN--\":94:98   */\n      0x40\n        /* \"--CODEGEN--\":87:152   */\n      mstore\n        /* \"--CODEGEN--\":169:185   */\n      returndatasize\n        /* \"--CODEGEN--\":166:167   */\n      dup3\n        /* \"--CODEGEN--\":159:186   */\n      mstore\n        /* \"--CODEGEN--\":225:241   */\n      returndatasize\n        /* \"--CODEGEN--\":222:223   */\n      0x00\n        /* \"--CODEGEN--\":215:219   */\n      0x20\n        /* \"--CODEGEN--\":212:213   */\n      dup5\n        /* \"--CODEGEN--\":208:220   */\n      add\n        /* \"--CODEGEN--\":193:242   */\n      returndatacopy\n        /* \"--CODEGEN--\":7:249   */\n      jump(tag_372)\n        /* \"--CODEGEN--\":16:47   */\n    tag_373:\n        /* \"--CODEGEN--\":36:40   */\n      0x60\n        /* \"--CODEGEN--\":31:40   */\n      swap2\n      pop\n        /* \"--CODEGEN--\":7:249   */\n    tag_372:\n      pop\n        /* \"anonimity/0.1-ETH-Anonymity.sol\":18018:18070  (bool success, ) = msg.sender.call.value(refund)(\"\") */\n      pop\n      swap1\n      pop\n        /* \"anonimity/0.1-ETH-Anonymity.sol\":18086:18093  success */\n      dup1\n        /* \"anonimity/0.1-ETH-Anonymity.sol\":18078:18114  require(success, \"failed to refund\") */\n      tag_374\n      jumpi\n      mload(0x40)\n      0x08c379a000000000000000000000000000000000000000000000000000000000\n      dup2\n      mstore\n      0x04\n      add\n      dup1\n      dup1\n      0x20\n      add\n      dup3\n      dup2\n      sub\n      dup3\n      mstore\n      0x10\n      dup2\n      mstore\n      0x20\n      add\n      dup1\n      0x6661696c656420746f20726566756e6400000000000000000000000000000000\n      dup2\n      mstore\n      pop\n      0x20\n      add\n      swap2\n      pop\n      pop\n      mload(0x40)\n      dup1\n      swap2\n      sub\n      swap1\n      revert\n    tag_374:\n        /* \"anonimity/0.1-ETH-Anonymity.sol\":17994:18121  if (refund > 0) {... */\n      pop\n    tag_371:\n        /* \"anonimity/0.1-ETH-Anonymity.sol\":18143:18161  feeToCollectAmount */\n      sload(0x88)\n        /* \"anonimity/0.1-ETH-Anonymity.sol\":18127:18139  collectedFee */\n      0x86\n      0x00\n        /* \"anonimity/0.1-ETH-Anonymity.sol\":18127:18161  collectedFee += feeToCollectAmount */\n      dup3\n      dup3\n      sload\n      add\n      swap3\n      pop\n      pop\n      dup2\n      swap1\n      sstore\n      pop\n        /* \"anonimity/0.1-ETH-Anonymity.sol\":18185:18195  overMinEth */\n      sload(0x89)\n        /* \"anonimity/0.1-ETH-Anonymity.sol\":18170:18182  collectedFee */\n      sload(0x86)\n        /* \"anonimity/0.1-ETH-Anonymity.sol\":18170:18195  collectedFee > overMinEth */\n      gt\n        /* \"anonimity/0.1-ETH-Anonymity.sol\":18167:18269  if(collectedFee > overMinEth) {... */\n      iszero\n      tag_375\n      jumpi\n        /* \"anonimity/0.1-ETH-Anonymity.sol\":18205:18219  swapAndShare() */\n      tag_376\n        /* \"anonimity/0.1-ETH-Anonymity.sol\":18205:18217  swapAndShare */\n      tag_304\n        /* \"anonimity/0.1-ETH-Anonymity.sol\":18205:18219  swapAndShare() */\n      jump\t// in\n    tag_376:\n        /* \"anonimity/0.1-ETH-Anonymity.sol\":18167:18269  if(collectedFee > overMinEth) {... */\n      jump(tag_377)\n    tag_375:\n        /* \"anonimity/0.1-ETH-Anonymity.sol\":18244:18262  sendRewardtoPool() */\n      tag_378\n        /* \"anonimity/0.1-ETH-Anonymity.sol\":18244:18260  sendRewardtoPool */\n      tag_283\n        /* \"anonimity/0.1-ETH-Anonymity.sol\":18244:18262  sendRewardtoPool() */\n      jump\t// in\n    tag_378:\n        /* \"anonimity/0.1-ETH-Anonymity.sol\":18167:18269  if(collectedFee > overMinEth) {... */\n    tag_377:\n        /* \"anonimity/0.1-ETH-Anonymity.sol\":18275:18294  updateBlockReward() */\n      tag_379\n        /* \"anonimity/0.1-ETH-Anonymity.sol\":18275:18292  updateBlockReward */\n      tag_161\n        /* \"anonimity/0.1-ETH-Anonymity.sol\":18275:18294  updateBlockReward() */\n      jump\t// in\n    tag_379:\n        /* \"anonimity/0.1-ETH-Anonymity.sol\":18315:18326  _commitment */\n      dup8\n        /* \"anonimity/0.1-ETH-Anonymity.sol\":18307:18373  Deposit(_commitment, insertedIndex, block.timestamp, M87Deno, fee) */\n      0xcb186cc0add5be357ae2d3845e42be2ffbed8cb23b60f1b058ea371adff0a363\n        /* \"anonimity/0.1-ETH-Anonymity.sol\":18328:18341  insertedIndex */\n      dup8\n        /* \"anonimity/0.1-ETH-Anonymity.sol\":18343:18358  block.timestamp */\n      timestamp\n        /* \"anonimity/0.1-ETH-Anonymity.sol\":18360:18367  M87Deno */\n      dup8\n        /* \"anonimity/0.1-ETH-Anonymity.sol\":18369:18372  fee */\n      dup8\n        /* \"anonimity/0.1-ETH-Anonymity.sol\":18307:18373  Deposit(_commitment, insertedIndex, block.timestamp, M87Deno, fee) */\n      mload(0x40)\n      dup1\n      dup6\n      0xffffffff\n      and\n      0xffffffff\n      and\n      dup2\n      mstore\n      0x20\n      add\n      dup5\n      dup2\n      mstore\n      0x20\n      add\n      dup4\n      dup2\n      mstore\n      0x20\n      add\n      dup3\n      dup2\n      mstore\n      0x20\n      add\n      swap5\n      pop\n      pop\n      pop\n      pop\n      pop\n      mload(0x40)\n      dup1\n      swap2\n      sub\n      swap1\n      log2\n        /* \"anonimity/0.1-ETH-Anonymity.sol\":12778:12779  _ */\n      pop\n        /* \"anonimity/0.1-ETH-Anonymity.sol\":12813:12826  _guardCounter */\n      sload(0x68)\n        /* \"anonimity/0.1-ETH-Anonymity.sol\":12797:12809  localCounter */\n      dup2\n        /* \"anonimity/0.1-ETH-Anonymity.sol\":12797:12826  localCounter == _guardCounter */\n      eq\n        /* \"anonimity/0.1-ETH-Anonymity.sol\":12789:12862  require(localCounter == _guardCounter, \"ReentrancyGuard: reentrant call\") */\n      tag_380\n      jumpi\n      mload(0x40)\n      0x08c379a000000000000000000000000000000000000000000000000000000000\n      dup2\n      mstore\n      0x04\n      add\n      dup1\n      dup1\n      0x20\n      add\n      dup3\n      dup2\n      sub\n      dup3\n      mstore\n      0x1f\n      dup2\n      mstore\n      0x20\n      add\n      dup1\n      0x5265656e7472616e637947756172643a207265656e7472616e742063616c6c00\n      dup2\n      mstore\n      pop\n      0x20\n      add\n      swap2\n      pop\n      pop\n      mload(0x40)\n      dup1\n      swap2\n      sub\n      swap1\n      revert\n    tag_380:\n        /* \"anonimity/0.1-ETH-Anonymity.sol\":17224:18378  function deposit(bytes32 _commitment) external payable nonReentrant returns (bytes32 commitment, uint32 insertedIndex, uint256 blocktime, uint256 M87Deno, uint256 fee){... */\n      pop\n      swap2\n      swap4\n      swap6\n      swap1\n      swap3\n      swap5\n      pop\n      jump\t// out\n        /* \"anonimity/0.1-ETH-Anonymity.sol\":13919:13947  uint256 public accumulateM87 */\n    tag_194:\n      sload(0x75)\n      dup2\n      jump\t// out\n        /* \"anonimity/0.1-ETH-Anonymity.sol\":10999:11092  function getLastRoot() public view returns(bytes32) {... */\n    tag_197:\n        /* \"anonimity/0.1-ETH-Anonymity.sol\":11042:11049  bytes32 */\n      0x00\n        /* \"anonimity/0.1-ETH-Anonymity.sol\":11064:11069  roots */\n      0x04\n        /* \"anonimity/0.1-ETH-Anonymity.sol\":11070:11086  currentRootIndex */\n      0x03\n      0x00\n      swap1\n      sload\n      swap1\n      0x0100\n      exp\n      swap1\n      div\n      0xffffffff\n      and\n        /* \"anonimity/0.1-ETH-Anonymity.sol\":11064:11087  roots[currentRootIndex] */\n      0xffffffff\n      and\n      0x64\n      dup2\n      lt\n      tag_382\n      jumpi\n      invalid\n    tag_382:\n      add\n      sload\n        /* \"anonimity/0.1-ETH-Anonymity.sol\":11057:11087  return roots[currentRootIndex] */\n      swap1\n      pop\n        /* \"anonimity/0.1-ETH-Anonymity.sol\":10999:11092  function getLastRoot() public view returns(bytes32) {... */\n      swap1\n      jump\t// out\n        /* \"anonimity/0.1-ETH-Anonymity.sol\":8776:8815  bytes32[ROOT_HISTORY_SIZE] public roots */\n    tag_201:\n      0x04\n      dup2\n      0x64\n      dup2\n      lt\n      tag_384\n      jumpi\n      invalid\n    tag_384:\n      add\n      0x00\n      swap2\n      pop\n      swap1\n      pop\n      sload\n      dup2\n      jump\t// out\n        /* \"anonimity/0.1-ETH-Anonymity.sol\":14168:14199  uint256[4] public rewardAmounts */\n    tag_205:\n      0x82\n      dup2\n      0x04\n      dup2\n      lt\n      tag_386\n      jumpi\n      invalid\n    tag_386:\n      add\n      0x00\n      swap2\n      pop\n      swap1\n      pop\n      sload\n      dup2\n      jump\t// out\n        /* \"anonimity/0.1-ETH-Anonymity.sol\":20072:20215  function updateM87Token(address _newToken) external onlyOwner {... */\n    tag_209:\n        /* \"anonimity/0.1-ETH-Anonymity.sol\":14487:14500  messier_owner */\n      0x71\n      0x00\n      swap1\n      sload\n      swap1\n      0x0100\n      exp\n      swap1\n      div\n      0xffffffffffffffffffffffffffffffffffffffff\n      and\n        /* \"anonimity/0.1-ETH-Anonymity.sol\":14473:14500  msg.sender == messier_owner */\n      0xffffffffffffffffffffffffffffffffffffffff\n      and\n        /* \"anonimity/0.1-ETH-Anonymity.sol\":14473:14483  msg.sender */\n      caller\n        /* \"anonimity/0.1-ETH-Anonymity.sol\":14473:14500  msg.sender == messier_owner */\n      0xffffffffffffffffffffffffffffffffffffffff\n      and\n      eq\n        /* \"anonimity/0.1-ETH-Anonymity.sol\":14465:14539  require(msg.sender == messier_owner, \"Only Owner can call this function.\") */\n      tag_389\n      jumpi\n      mload(0x40)\n      0x08c379a000000000000000000000000000000000000000000000000000000000\n      dup2\n      mstore\n      0x04\n      add\n      dup1\n      dup1\n      0x20\n      add\n      dup3\n      dup2\n      sub\n      dup3\n      mstore\n      0x22\n      dup2\n      mstore\n      0x20\n      add\n      dup1\n      data_0e71a241197b393744b5df81fa847ab1c2bee75202755ee59d1abfcc113d1380\n      0x22\n      swap2\n      codecopy\n      0x40\n      add\n      swap2\n      pop\n      pop\n      mload(0x40)\n      dup1\n      swap2\n      sub\n      swap1\n      revert\n    tag_389:\n        /* \"anonimity/0.1-ETH-Anonymity.sol\":20158:20167  _newToken */\n      dup1\n        /* \"anonimity/0.1-ETH-Anonymity.sol\":20140:20148  M87Token */\n      0x6f\n      0x00\n        /* \"anonimity/0.1-ETH-Anonymity.sol\":20140:20168  M87Token = IERC20(_newToken) */\n      0x0100\n      exp\n      dup2\n      sload\n      dup2\n      0xffffffffffffffffffffffffffffffffffffffff\n      mul\n      not\n      and\n      swap1\n      dup4\n      0xffffffffffffffffffffffffffffffffffffffff\n      and\n      mul\n      or\n      swap1\n      sstore\n      pop\n        /* \"anonimity/0.1-ETH-Anonymity.sol\":20174:20182  M87Token */\n      0x6f\n      0x00\n      swap1\n      sload\n      swap1\n      0x0100\n      exp\n      swap1\n      div\n      0xffffffffffffffffffffffffffffffffffffffff\n      and\n        /* \"anonimity/0.1-ETH-Anonymity.sol\":20174:20190  M87Token.approve */\n      0xffffffffffffffffffffffffffffffffffffffff\n      and\n      0x095ea7b3\n        /* \"anonimity/0.1-ETH-Anonymity.sol\":20191:20204  messier_owner */\n      0x71\n      0x00\n      swap1\n      sload\n      swap1\n      0x0100\n      exp\n      swap1\n      div\n      0xffffffffffffffffffffffffffffffffffffffff\n      and\n        /* \"anonimity/0.1-ETH-Anonymity.sol\":13432:13433  0 */\n      0x00\n        /* \"anonimity/0.1-ETH-Anonymity.sol\":13423:13434  ~uint256(0) */\n      not\n        /* \"anonimity/0.1-ETH-Anonymity.sol\":20174:20210  M87Token.approve(messier_owner, MAX) */\n      mload(0x40)\n      dup4\n      0xffffffff\n      and\n      0xe0\n      shl\n      dup2\n      mstore\n      0x04\n      add\n      dup1\n      dup4\n      0xffffffffffffffffffffffffffffffffffffffff\n      and\n      0xffffffffffffffffffffffffffffffffffffffff\n      and\n      dup2\n      mstore\n      0x20\n      add\n      dup3\n      dup2\n      mstore\n      0x20\n      add\n      swap3\n      pop\n      pop\n      pop\n      0x20\n      mload(0x40)\n      dup1\n      dup4\n      sub\n      dup2\n      0x00\n      dup8\n      dup1\n      extcodesize\n      iszero\n        /* \"--CODEGEN--\":8:17   */\n      dup1\n        /* \"--CODEGEN--\":5:7   */\n      iszero\n      tag_391\n      jumpi\n        /* \"--CODEGEN--\":30:31   */\n      0x00\n        /* \"--CODEGEN--\":27:28   */\n      dup1\n        /* \"--CODEGEN--\":20:32   */\n      revert\n        /* \"--CODEGEN--\":5:7   */\n    tag_391:\n        /* \"anonimity/0.1-ETH-Anonymity.sol\":20174:20210  M87Token.approve(messier_owner, MAX) */\n      pop\n      gas\n      call\n      iszero\n        /* \"--CODEGEN--\":8:17   */\n      dup1\n        /* \"--CODEGEN--\":5:7   */\n      iszero\n      tag_392\n      jumpi\n        /* \"--CODEGEN--\":45:61   */\n      returndatasize\n        /* \"--CODEGEN--\":42:43   */\n      0x00\n        /* \"--CODEGEN--\":39:40   */\n      dup1\n        /* \"--CODEGEN--\":24:62   */\n      returndatacopy\n        /* \"--CODEGEN--\":77:93   */\n      returndatasize\n        /* \"--CODEGEN--\":74:75   */\n      0x00\n        /* \"--CODEGEN--\":67:94   */\n      revert\n        /* \"--CODEGEN--\":5:7   */\n    tag_392:\n        /* \"anonimity/0.1-ETH-Anonymity.sol\":20174:20210  M87Token.approve(messier_owner, MAX) */\n      pop\n      pop\n      pop\n      pop\n      mload(0x40)\n      returndatasize\n        /* \"--CODEGEN--\":13:15   */\n      0x20\n        /* \"--CODEGEN--\":8:11   */\n      dup2\n        /* \"--CODEGEN--\":5:16   */\n      lt\n        /* \"--CODEGEN--\":2:4   */\n      iszero\n      tag_393\n      jumpi\n        /* \"--CODEGEN--\":29:30   */\n      0x00\n        /* \"--CODEGEN--\":26:27   */\n      dup1\n        /* \"--CODEGEN--\":19:31   */\n      revert\n        /* \"--CODEGEN--\":2:4   */\n    tag_393:\n        /* \"anonimity/0.1-ETH-Anonymity.sol\":20174:20210  M87Token.approve(messier_owner, MAX) */\n      dup2\n      add\n      swap1\n      dup1\n      dup1\n      mload\n      swap1\n      0x20\n      add\n      swap1\n      swap3\n      swap2\n      swap1\n      pop\n      pop\n      pop\n      pop\n        /* \"anonimity/0.1-ETH-Anonymity.sol\":20072:20215  function updateM87Token(address _newToken) external onlyOwner {... */\n      pop\n      jump\t// out\n        /* \"anonimity/0.1-ETH-Anonymity.sol\":8726:8772  uint32 public constant ROOT_HISTORY_SIZE = 100 */\n    tag_212:\n        /* \"anonimity/0.1-ETH-Anonymity.sol\":8769:8772  100 */\n      0x64\n        /* \"anonimity/0.1-ETH-Anonymity.sol\":8726:8772  uint32 public constant ROOT_HISTORY_SIZE = 100 */\n      dup2\n      jump\t// out\n        /* \"anonimity/0.1-ETH-Anonymity.sol\":14313:14359  uint256 public overMinEth = 250000000000000000 */\n    tag_215:\n      sload(0x89)\n      dup2\n      jump\t// out\n        /* \"anonimity/0.1-ETH-Anonymity.sol\":20219:20321  function changeMessierOwner(address _newOwner) external onlyOwner {... */\n    tag_219:\n        /* \"anonimity/0.1-ETH-Anonymity.sol\":14487:14500  messier_owner */\n      0x71\n      0x00\n      swap1\n      sload\n      swap1\n      0x0100\n      exp\n      swap1\n      div\n      0xffffffffffffffffffffffffffffffffffffffff\n      and\n        /* \"anonimity/0.1-ETH-Anonymity.sol\":14473:14500  msg.sender == messier_owner */\n      0xffffffffffffffffffffffffffffffffffffffff\n      and\n        /* \"anonimity/0.1-ETH-Anonymity.sol\":14473:14483  msg.sender */\n      caller\n        /* \"anonimity/0.1-ETH-Anonymity.sol\":14473:14500  msg.sender == messier_owner */\n      0xffffffffffffffffffffffffffffffffffffffff\n      and\n      eq\n        /* \"anonimity/0.1-ETH-Anonymity.sol\":14465:14539  require(msg.sender == messier_owner, \"Only Owner can call this function.\") */\n      tag_395\n      jumpi\n      mload(0x40)\n      0x08c379a000000000000000000000000000000000000000000000000000000000\n      dup2\n      mstore\n      0x04\n      add\n      dup1\n      dup1\n      0x20\n      add\n      dup3\n      dup2\n      sub\n      dup3\n      mstore\n      0x22\n      dup2\n      mstore\n      0x20\n      add\n      dup1\n      data_0e71a241197b393744b5df81fa847ab1c2bee75202755ee59d1abfcc113d1380\n      0x22\n      swap2\n      codecopy\n      0x40\n      add\n      swap2\n      pop\n      pop\n      mload(0x40)\n      dup1\n      swap2\n      sub\n      swap1\n      revert\n    tag_395:\n        /* \"anonimity/0.1-ETH-Anonymity.sol\":20307:20316  _newOwner */\n      dup1\n        /* \"anonimity/0.1-ETH-Anonymity.sol\":20291:20304  messier_owner */\n      0x71\n      0x00\n        /* \"anonimity/0.1-ETH-Anonymity.sol\":20291:20316  messier_owner = _newOwner */\n      0x0100\n      exp\n      dup2\n      sload\n      dup2\n      0xffffffffffffffffffffffffffffffffffffffff\n      mul\n      not\n      and\n      swap1\n      dup4\n      0xffffffffffffffffffffffffffffffffffffffff\n      and\n      mul\n      or\n      swap1\n      sstore\n      pop\n        /* \"anonimity/0.1-ETH-Anonymity.sol\":20219:20321  function changeMessierOwner(address _newOwner) external onlyOwner {... */\n      pop\n      jump\t// out\n        /* \"anonimity/0.1-ETH-Anonymity.sol\":14203:14230  uint256 public collectedFee */\n    tag_222:\n      sload(0x86)\n      dup2\n      jump\t// out\n        /* \"anonimity/0.1-ETH-Anonymity.sol\":8631:8653  bytes32[] public zeros */\n    tag_226:\n      0x02\n      dup2\n      dup2\n      sload\n      dup2\n      lt\n      tag_397\n      jumpi\n      invalid\n    tag_397:\n      swap1\n      0x00\n      mstore\n      keccak256(0x00, 0x20)\n      add\n      0x00\n      swap2\n      pop\n      swap1\n      pop\n      sload\n      dup2\n      jump\t// out\n        /* \"anonimity/0.1-ETH-Anonymity.sol\":8278:8392  uint256 public constant ZERO_VALUE = 21663839004416932945382355908790599225266501822907911457504978515578255421292 */\n    tag_229:\n        /* \"anonimity/0.1-ETH-Anonymity.sol\":8315:8392  21663839004416932945382355908790599225266501822907911457504978515578255421292 */\n      0x2fe54c60d3acabf3343a35b6eba15db4821b340f76e741e2249685ed4899af6c\n        /* \"anonimity/0.1-ETH-Anonymity.sol\":8278:8392  uint256 public constant ZERO_VALUE = 21663839004416932945382355908790599225266501822907911457504978515578255421292 */\n      dup2\n      jump\t// out\n        /* \"anonimity/0.1-ETH-Anonymity.sol\":14234:14272  uint256 public feeToCollectPercent = 2 */\n    tag_232:\n      sload(0x87)\n      dup2\n      jump\t// out\n        /* \"anonimity/0.1-ETH-Anonymity.sol\":8596:8627  bytes32[] public filledSubtrees */\n    tag_236:\n      0x01\n      dup2\n      dup2\n      sload\n      dup2\n      lt\n      tag_399\n      jumpi\n      invalid\n    tag_399:\n      swap1\n      0x00\n      mstore\n      keccak256(0x00, 0x20)\n      add\n      0x00\n      swap2\n      pop\n      swap1\n      pop\n      sload\n      dup2\n      jump\t// out\n        /* \"anonimity/0.1-ETH-Anonymity.sol\":23932:24068  function setDuration(uint256 _duration) public onlyOwner {... */\n    tag_240:\n        /* \"anonimity/0.1-ETH-Anonymity.sol\":14487:14500  messier_owner */\n      0x71\n      0x00\n      swap1\n      sload\n      swap1\n      0x0100\n      exp\n      swap1\n      div\n      0xffffffffffffffffffffffffffffffffffffffff\n      and\n        /* \"anonimity/0.1-ETH-Anonymity.sol\":14473:14500  msg.sender == messier_owner */\n      0xffffffffffffffffffffffffffffffffffffffff\n      and\n        /* \"anonimity/0.1-ETH-Anonymity.sol\":14473:14483  msg.sender */\n      caller\n        /* \"anonimity/0.1-ETH-Anonymity.sol\":14473:14500  msg.sender == messier_owner */\n      0xffffffffffffffffffffffffffffffffffffffff\n      and\n      eq\n        /* \"anonimity/0.1-ETH-Anonymity.sol\":14465:14539  require(msg.sender == messier_owner, \"Only Owner can call this function.\") */\n      tag_402\n      jumpi\n      mload(0x40)\n      0x08c379a000000000000000000000000000000000000000000000000000000000\n      dup2\n      mstore\n      0x04\n      add\n      dup1\n      dup1\n      0x20\n      add\n      dup3\n      dup2\n      sub\n      dup3\n      mstore\n      0x22\n      dup2\n      mstore\n      0x20\n      add\n      dup1\n      data_0e71a241197b393744b5df81fa847ab1c2bee75202755ee59d1abfcc113d1380\n      0x22\n      swap2\n      codecopy\n      0x40\n      add\n      swap2\n      pop\n      pop\n      mload(0x40)\n      dup1\n      swap2\n      sub\n      swap1\n      revert\n    tag_402:\n        /* \"anonimity/0.1-ETH-Anonymity.sol\":24006:24015  _duration */\n      dup1\n        /* \"anonimity/0.1-ETH-Anonymity.sol\":23995:24003  duration */\n      0x77\n        /* \"anonimity/0.1-ETH-Anonymity.sol\":23995:24015  duration = _duration */\n      dup2\n      swap1\n      sstore\n      pop\n        /* \"anonimity/0.1-ETH-Anonymity.sol\":24062:24063  4 */\n      0x04\n        /* \"anonimity/0.1-ETH-Anonymity.sol\":24057:24059  60 */\n      0x3c\n        /* \"anonimity/0.1-ETH-Anonymity.sol\":24052:24054  24 */\n      0x18\n        /* \"anonimity/0.1-ETH-Anonymity.sol\":24041:24049  duration */\n      sload(0x77)\n        /* \"anonimity/0.1-ETH-Anonymity.sol\":24041:24054  duration * 24 */\n      mul\n        /* \"anonimity/0.1-ETH-Anonymity.sol\":24041:24059  duration * 24 * 60 */\n      mul\n        /* \"anonimity/0.1-ETH-Anonymity.sol\":24041:24063  duration * 24 * 60 * 4 */\n      mul\n        /* \"anonimity/0.1-ETH-Anonymity.sol\":24021:24038  numDurationBlocks */\n      0x78\n        /* \"anonimity/0.1-ETH-Anonymity.sol\":24021:24063  numDurationBlocks = duration * 24 * 60 * 4 */\n      dup2\n      swap1\n      sstore\n      pop\n        /* \"anonimity/0.1-ETH-Anonymity.sol\":23932:24068  function setDuration(uint256 _duration) public onlyOwner {... */\n      pop\n      jump\t// out\n        /* \"anonimity/0.1-ETH-Anonymity.sol\":13714:13733  IERC20 public token */\n    tag_243:\n      0x6e\n      0x00\n      swap1\n      sload\n      swap1\n      0x0100\n      exp\n      swap1\n      div\n      0xffffffffffffffffffffffffffffffffffffffff\n      and\n      dup2\n      jump\t// out\n        /* \"anonimity/0.1-ETH-Anonymity.sol\":8695:8722  uint32 public nextIndex = 0 */\n    tag_246:\n      0x03\n      0x04\n      swap1\n      sload\n      swap1\n      0x0100\n      exp\n      swap1\n      div\n      0xffffffff\n      and\n      dup2\n      jump\t// out\n        /* \"anonimity/0.1-ETH-Anonymity.sol\":3832:4245  function isContract(address account) internal view returns (bool) {... */\n    tag_251:\n        /* \"anonimity/0.1-ETH-Anonymity.sol\":3892:3896  bool */\n      0x00\n        /* \"anonimity/0.1-ETH-Anonymity.sol\":4095:4107  uint256 size */\n      dup1\n        /* \"anonimity/0.1-ETH-Anonymity.sol\":4204:4211  account */\n      dup3\n        /* \"anonimity/0.1-ETH-Anonymity.sol\":4192:4212  extcodesize(account) */\n      extcodesize\n        /* \"anonimity/0.1-ETH-Anonymity.sol\":4184:4212  size := extcodesize(account) */\n      swap1\n      pop\n        /* \"anonimity/0.1-ETH-Anonymity.sol\":4237:4238  0 */\n      0x00\n        /* \"anonimity/0.1-ETH-Anonymity.sol\":4230:4234  size */\n      dup2\n        /* \"anonimity/0.1-ETH-Anonymity.sol\":4230:4238  size > 0 */\n      gt\n        /* \"anonimity/0.1-ETH-Anonymity.sol\":4223:4238  return size > 0 */\n      swap2\n      pop\n      pop\n        /* \"anonimity/0.1-ETH-Anonymity.sol\":3832:4245  function isContract(address account) internal view returns (bool) {... */\n      swap2\n      swap1\n      pop\n      jump\t// out\n        /* \"anonimity/0.1-ETH-Anonymity.sol\":20665:20931  function safeTransfer(IERC20 _token, address _to, uint256 _amount) internal {... */\n    tag_266:\n        /* \"anonimity/0.1-ETH-Anonymity.sol\":20747:20762  uint256 balance */\n      0x00\n        /* \"anonimity/0.1-ETH-Anonymity.sol\":20765:20771  _token */\n      dup4\n        /* \"anonimity/0.1-ETH-Anonymity.sol\":20765:20781  _token.balanceOf */\n      0xffffffffffffffffffffffffffffffffffffffff\n      and\n      0x70a08231\n        /* \"anonimity/0.1-ETH-Anonymity.sol\":20790:20794  this */\n      address\n        /* \"anonimity/0.1-ETH-Anonymity.sol\":20765:20796  _token.balanceOf(address(this)) */\n      mload(0x40)\n      dup3\n      0xffffffff\n      and\n      0xe0\n      shl\n      dup2\n      mstore\n      0x04\n      add\n      dup1\n      dup3\n      0xffffffffffffffffffffffffffffffffffffffff\n      and\n      0xffffffffffffffffffffffffffffffffffffffff\n      and\n      dup2\n      mstore\n      0x20\n      add\n      swap2\n      pop\n      pop\n      0x20\n      mload(0x40)\n      dup1\n      dup4\n      sub\n      dup2\n      dup7\n      dup1\n      extcodesize\n      iszero\n        /* \"--CODEGEN--\":8:17   */\n      dup1\n        /* \"--CODEGEN--\":5:7   */\n      iszero\n      tag_406\n      jumpi\n        /* \"--CODEGEN--\":30:31   */\n      0x00\n        /* \"--CODEGEN--\":27:28   */\n      dup1\n        /* \"--CODEGEN--\":20:32   */\n      revert\n        /* \"--CODEGEN--\":5:7   */\n    tag_406:\n        /* \"anonimity/0.1-ETH-Anonymity.sol\":20765:20796  _token.balanceOf(address(this)) */\n      pop\n      gas\n      staticcall\n      iszero\n        /* \"--CODEGEN--\":8:17   */\n      dup1\n        /* \"--CODEGEN--\":5:7   */\n      iszero\n      tag_407\n      jumpi\n        /* \"--CODEGEN--\":45:61   */\n      returndatasize\n        /* \"--CODEGEN--\":42:43   */\n      0x00\n        /* \"--CODEGEN--\":39:40   */\n      dup1\n        /* \"--CODEGEN--\":24:62   */\n      returndatacopy\n        /* \"--CODEGEN--\":77:93   */\n      returndatasize\n        /* \"--CODEGEN--\":74:75   */\n      0x00\n        /* \"--CODEGEN--\":67:94   */\n      revert\n        /* \"--CODEGEN--\":5:7   */\n    tag_407:\n        /* \"anonimity/0.1-ETH-Anonymity.sol\":20765:20796  _token.balanceOf(address(this)) */\n      pop\n      pop\n      pop\n      pop\n      mload(0x40)\n      returndatasize\n        /* \"--CODEGEN--\":13:15   */\n      0x20\n        /* \"--CODEGEN--\":8:11   */\n      dup2\n        /* \"--CODEGEN--\":5:16   */\n      lt\n        /* \"--CODEGEN--\":2:4   */\n      iszero\n      tag_408\n      jumpi\n        /* \"--CODEGEN--\":29:30   */\n      0x00\n        /* \"--CODEGEN--\":26:27   */\n      dup1\n        /* \"--CODEGEN--\":19:31   */\n      revert\n        /* \"--CODEGEN--\":2:4   */\n    tag_408:\n        /* \"anonimity/0.1-ETH-Anonymity.sol\":20765:20796  _token.balanceOf(address(this)) */\n      dup2\n      add\n      swap1\n      dup1\n      dup1\n      mload\n      swap1\n      0x20\n      add\n      swap1\n      swap3\n      swap2\n      swap1\n      pop\n      pop\n      pop\n        /* \"anonimity/0.1-ETH-Anonymity.sol\":20747:20796  uint256 balance = _token.balanceOf(address(this)) */\n      swap1\n      pop\n        /* \"anonimity/0.1-ETH-Anonymity.sol\":20816:20823  balance */\n      dup1\n        /* \"anonimity/0.1-ETH-Anonymity.sol\":20806:20813  _amount */\n      dup3\n        /* \"anonimity/0.1-ETH-Anonymity.sol\":20806:20823  _amount > balance */\n      gt\n        /* \"anonimity/0.1-ETH-Anonymity.sol\":20802:20927  if (_amount > balance) {... */\n      iszero\n      tag_409\n      jumpi\n        /* \"anonimity/0.1-ETH-Anonymity.sol\":20833:20866  _token.safeTransfer(_to, balance) */\n      tag_410\n        /* \"anonimity/0.1-ETH-Anonymity.sol\":20853:20856  _to */\n      dup4\n        /* \"anonimity/0.1-ETH-Anonymity.sol\":20858:20865  balance */\n      dup3\n        /* \"anonimity/0.1-ETH-Anonymity.sol\":20833:20839  _token */\n      dup7\n        /* \"anonimity/0.1-ETH-Anonymity.sol\":20833:20852  _token.safeTransfer */\n      0xffffffffffffffffffffffffffffffffffffffff\n      and\n      tag_411\n      swap1\n        /* \"anonimity/0.1-ETH-Anonymity.sol\":20833:20866  _token.safeTransfer(_to, balance) */\n      swap3\n      swap2\n      swap1\n      0xffffffff\n      and\n      jump\t// in\n    tag_410:\n        /* \"anonimity/0.1-ETH-Anonymity.sol\":20802:20927  if (_amount > balance) {... */\n      jump(tag_412)\n    tag_409:\n        /* \"anonimity/0.1-ETH-Anonymity.sol\":20887:20920  _token.safeTransfer(_to, _amount) */\n      tag_413\n        /* \"anonimity/0.1-ETH-Anonymity.sol\":20907:20910  _to */\n      dup4\n        /* \"anonimity/0.1-ETH-Anonymity.sol\":20912:20919  _amount */\n      dup4\n        /* \"anonimity/0.1-ETH-Anonymity.sol\":20887:20893  _token */\n      dup7\n        /* \"anonimity/0.1-ETH-Anonymity.sol\":20887:20906  _token.safeTransfer */\n      0xffffffffffffffffffffffffffffffffffffffff\n      and\n      tag_411\n      swap1\n        /* \"anonimity/0.1-ETH-Anonymity.sol\":20887:20920  _token.safeTransfer(_to, _amount) */\n      swap3\n      swap2\n      swap1\n      0xffffffff\n      and\n      jump\t// in\n    tag_413:\n        /* \"anonimity/0.1-ETH-Anonymity.sol\":20802:20927  if (_amount > balance) {... */\n    tag_412:\n        /* \"anonimity/0.1-ETH-Anonymity.sol\":20665:20931  function safeTransfer(IERC20 _token, address _to, uint256 _amount) internal {... */\n      pop\n      pop\n      pop\n      pop\n      jump\t// out\n        /* \"anonimity/0.1-ETH-Anonymity.sol\":1029:1301  function div(uint256 a, uint256 b) internal pure returns (uint256) {... */\n    tag_270:\n        /* \"anonimity/0.1-ETH-Anonymity.sol\":1087:1094  uint256 */\n      0x00\n        /* \"anonimity/0.1-ETH-Anonymity.sol\":1295:1296  b */\n      dup2\n        /* \"anonimity/0.1-ETH-Anonymity.sol\":1291:1292  a */\n      dup4\n        /* \"anonimity/0.1-ETH-Anonymity.sol\":1291:1296  a / b */\n      dup2\n      tag_415\n      jumpi\n      invalid\n    tag_415:\n      div\n        /* \"anonimity/0.1-ETH-Anonymity.sol\":1284:1296  return a / b */\n      swap1\n      pop\n        /* \"anonimity/0.1-ETH-Anonymity.sol\":1029:1301  function div(uint256 a, uint256 b) internal pure returns (uint256) {... */\n      swap3\n      swap2\n      pop\n      pop\n      jump\t// out\n        /* \"anonimity/0.1-ETH-Anonymity.sol\":23497:23853  function sendRewardtoPool() private {... */\n    tag_283:\n        /* \"anonimity/0.1-ETH-Anonymity.sol\":23543:23552  uint256 i */\n      0x00\n        /* \"anonimity/0.1-ETH-Anonymity.sol\":23539:23849  for(uint256 i; i < 4; i ++) {... */\n    tag_417:\n        /* \"anonimity/0.1-ETH-Anonymity.sol\":23558:23559  4 */\n      0x04\n        /* \"anonimity/0.1-ETH-Anonymity.sol\":23554:23555  i */\n      dup2\n        /* \"anonimity/0.1-ETH-Anonymity.sol\":23554:23559  i < 4 */\n      lt\n        /* \"anonimity/0.1-ETH-Anonymity.sol\":23539:23849  for(uint256 i; i < 4; i ++) {... */\n      iszero\n      tag_418\n      jumpi\n        /* \"anonimity/0.1-ETH-Anonymity.sol\":23575:23587  curPoolIndex */\n      0x8b\n      0x00\n        /* \"anonimity/0.1-ETH-Anonymity.sol\":23575:23590  curPoolIndex ++ */\n      dup2\n      sload\n      dup1\n      swap3\n      swap2\n      swap1\n      0x01\n      add\n      swap2\n      swap1\n      pop\n      sstore\n      pop\n        /* \"anonimity/0.1-ETH-Anonymity.sol\":23629:23630  4 */\n      0x04\n        /* \"anonimity/0.1-ETH-Anonymity.sol\":23613:23625  curPoolIndex */\n      sload(0x8b)\n        /* \"anonimity/0.1-ETH-Anonymity.sol\":23613:23630  curPoolIndex == 4 */\n      eq\n        /* \"anonimity/0.1-ETH-Anonymity.sol\":23613:23649  curPoolIndex == 4 ? 0 : curPoolIndex */\n      tag_420\n      jumpi\n        /* \"anonimity/0.1-ETH-Anonymity.sol\":23637:23649  curPoolIndex */\n      sload(0x8b)\n        /* \"anonimity/0.1-ETH-Anonymity.sol\":23613:23649  curPoolIndex == 4 ? 0 : curPoolIndex */\n      jump(tag_421)\n    tag_420:\n        /* \"anonimity/0.1-ETH-Anonymity.sol\":23633:23634  0 */\n      0x00\n        /* \"anonimity/0.1-ETH-Anonymity.sol\":23613:23649  curPoolIndex == 4 ? 0 : curPoolIndex */\n    tag_421:\n        /* \"anonimity/0.1-ETH-Anonymity.sol\":23598:23610  curPoolIndex */\n      0x8b\n        /* \"anonimity/0.1-ETH-Anonymity.sol\":23598:23649  curPoolIndex = curPoolIndex == 4 ? 0 : curPoolIndex */\n      dup2\n      swap1\n      sstore\n      pop\n        /* \"anonimity/0.1-ETH-Anonymity.sol\":23691:23692  0 */\n      0x00\n        /* \"anonimity/0.1-ETH-Anonymity.sol\":23661:23674  rewardAmounts */\n      0x82\n        /* \"anonimity/0.1-ETH-Anonymity.sol\":23675:23687  curPoolIndex */\n      sload(0x8b)\n        /* \"anonimity/0.1-ETH-Anonymity.sol\":23661:23688  rewardAmounts[curPoolIndex] */\n      0x04\n      dup2\n      lt\n      tag_422\n      jumpi\n      invalid\n    tag_422:\n      add\n      sload\n        /* \"anonimity/0.1-ETH-Anonymity.sol\":23661:23692  rewardAmounts[curPoolIndex] > 0 */\n      gt\n        /* \"anonimity/0.1-ETH-Anonymity.sol\":23657:23843  if( rewardAmounts[curPoolIndex] > 0 ) {... */\n      iszero\n      tag_424\n      jumpi\n        /* \"anonimity/0.1-ETH-Anonymity.sol\":23705:23713  M87Token */\n      0x6f\n      0x00\n      swap1\n      sload\n      swap1\n      0x0100\n      exp\n      swap1\n      div\n      0xffffffffffffffffffffffffffffffffffffffff\n      and\n        /* \"anonimity/0.1-ETH-Anonymity.sol\":23705:23722  M87Token.transfer */\n      0xffffffffffffffffffffffffffffffffffffffff\n      and\n      0xa9059cbb\n        /* \"anonimity/0.1-ETH-Anonymity.sol\":23724:23732  poolList */\n      0x7e\n        /* \"anonimity/0.1-ETH-Anonymity.sol\":23733:23745  curPoolIndex */\n      sload(0x8b)\n        /* \"anonimity/0.1-ETH-Anonymity.sol\":23724:23746  poolList[curPoolIndex] */\n      0x04\n      dup2\n      lt\n      tag_425\n      jumpi\n      invalid\n    tag_425:\n      add\n      0x00\n      swap1\n      sload\n      swap1\n      0x0100\n      exp\n      swap1\n      div\n      0xffffffffffffffffffffffffffffffffffffffff\n      and\n        /* \"anonimity/0.1-ETH-Anonymity.sol\":23748:23761  rewardAmounts */\n      0x82\n        /* \"anonimity/0.1-ETH-Anonymity.sol\":23762:23774  curPoolIndex */\n      sload(0x8b)\n        /* \"anonimity/0.1-ETH-Anonymity.sol\":23748:23775  rewardAmounts[curPoolIndex] */\n      0x04\n      dup2\n      lt\n      tag_427\n      jumpi\n      invalid\n    tag_427:\n      add\n      sload\n        /* \"anonimity/0.1-ETH-Anonymity.sol\":23705:23777  M87Token.transfer( poolList[curPoolIndex], rewardAmounts[curPoolIndex] ) */\n      mload(0x40)\n      dup4\n      0xffffffff\n      and\n      0xe0\n      shl\n      dup2\n      mstore\n      0x04\n      add\n      dup1\n      dup4\n      0xffffffffffffffffffffffffffffffffffffffff\n      and\n      0xffffffffffffffffffffffffffffffffffffffff\n      and\n      dup2\n      mstore\n      0x20\n      add\n      dup3\n      dup2\n      mstore\n      0x20\n      add\n      swap3\n      pop\n      pop\n      pop\n      0x20\n      mload(0x40)\n      dup1\n      dup4\n      sub\n      dup2\n      0x00\n      dup8\n      dup1\n      extcodesize\n      iszero\n        /* \"--CODEGEN--\":8:17   */\n      dup1\n        /* \"--CODEGEN--\":5:7   */\n      iszero\n      tag_429\n      jumpi\n        /* \"--CODEGEN--\":30:31   */\n      0x00\n        /* \"--CODEGEN--\":27:28   */\n      dup1\n        /* \"--CODEGEN--\":20:32   */\n      revert\n        /* \"--CODEGEN--\":5:7   */\n    tag_429:\n        /* \"anonimity/0.1-ETH-Anonymity.sol\":23705:23777  M87Token.transfer( poolList[curPoolIndex], rewardAmounts[curPoolIndex] ) */\n      pop\n      gas\n      call\n      iszero\n        /* \"--CODEGEN--\":8:17   */\n      dup1\n        /* \"--CODEGEN--\":5:7   */\n      iszero\n      tag_430\n      jumpi\n        /* \"--CODEGEN--\":45:61   */\n      returndatasize\n        /* \"--CODEGEN--\":42:43   */\n      0x00\n        /* \"--CODEGEN--\":39:40   */\n      dup1\n        /* \"--CODEGEN--\":24:62   */\n      returndatacopy\n        /* \"--CODEGEN--\":77:93   */\n      returndatasize\n        /* \"--CODEGEN--\":74:75   */\n      0x00\n        /* \"--CODEGEN--\":67:94   */\n      revert\n        /* \"--CODEGEN--\":5:7   */\n    tag_430:\n        /* \"anonimity/0.1-ETH-Anonymity.sol\":23705:23777  M87Token.transfer( poolList[curPoolIndex], rewardAmounts[curPoolIndex] ) */\n      pop\n      pop\n      pop\n      pop\n      mload(0x40)\n      returndatasize\n        /* \"--CODEGEN--\":13:15   */\n      0x20\n        /* \"--CODEGEN--\":8:11   */\n      dup2\n        /* \"--CODEGEN--\":5:16   */\n      lt\n        /* \"--CODEGEN--\":2:4   */\n      iszero\n      tag_431\n      jumpi\n        /* \"--CODEGEN--\":29:30   */\n      0x00\n        /* \"--CODEGEN--\":26:27   */\n      dup1\n        /* \"--CODEGEN--\":19:31   */\n      revert\n        /* \"--CODEGEN--\":2:4   */\n    tag_431:\n        /* \"anonimity/0.1-ETH-Anonymity.sol\":23705:23777  M87Token.transfer( poolList[curPoolIndex], rewardAmounts[curPoolIndex] ) */\n      dup2\n      add\n      swap1\n      dup1\n      dup1\n      mload\n      swap1\n      0x20\n      add\n      swap1\n      swap3\n      swap2\n      swap1\n      pop\n      pop\n      pop\n      pop\n        /* \"anonimity/0.1-ETH-Anonymity.sol\":23817:23818  0 */\n      0x00\n        /* \"anonimity/0.1-ETH-Anonymity.sol\":23787:23800  rewardAmounts */\n      0x82\n        /* \"anonimity/0.1-ETH-Anonymity.sol\":23801:23813  curPoolIndex */\n      sload(0x8b)\n        /* \"anonimity/0.1-ETH-Anonymity.sol\":23787:23814  rewardAmounts[curPoolIndex] */\n      0x04\n      dup2\n      lt\n      tag_432\n      jumpi\n      invalid\n    tag_432:\n      add\n        /* \"anonimity/0.1-ETH-Anonymity.sol\":23787:23818  rewardAmounts[curPoolIndex] = 0 */\n      dup2\n      swap1\n      sstore\n      pop\n        /* \"anonimity/0.1-ETH-Anonymity.sol\":23828:23835  return; */\n      pop\n      jump(tag_416)\n        /* \"anonimity/0.1-ETH-Anonymity.sol\":23657:23843  if( rewardAmounts[curPoolIndex] > 0 ) {... */\n    tag_424:\n        /* \"anonimity/0.1-ETH-Anonymity.sol\":23561:23565  i ++ */\n      dup1\n      dup1\n      0x01\n      add\n      swap2\n      pop\n      pop\n        /* \"anonimity/0.1-ETH-Anonymity.sol\":23539:23849  for(uint256 i; i < 4; i ++) {... */\n      jump(tag_417)\n    tag_418:\n      pop\n        /* \"anonimity/0.1-ETH-Anonymity.sol\":23497:23853  function sendRewardtoPool() private {... */\n    tag_416:\n      jump\t// out\n        /* \"anonimity/0.1-ETH-Anonymity.sol\":15710:16040  function calcAccumulateM87() internal view returns (uint256) {... */\n    tag_291:\n        /* \"anonimity/0.1-ETH-Anonymity.sol\":15762:15769  uint256 */\n      0x00\n        /* \"anonimity/0.1-ETH-Anonymity.sol\":15777:15791  uint256 reward */\n      dup1\n        /* \"anonimity/0.1-ETH-Anonymity.sol\":15794:15847  block.number.sub(lastRewardBlock).mul(rewardPerBlock) */\n      tag_435\n        /* \"anonimity/0.1-ETH-Anonymity.sol\":15832:15846  rewardPerBlock */\n      sload(0x74)\n        /* \"anonimity/0.1-ETH-Anonymity.sol\":15794:15827  block.number.sub(lastRewardBlock) */\n      tag_436\n        /* \"anonimity/0.1-ETH-Anonymity.sol\":15811:15826  lastRewardBlock */\n      sload(0x73)\n        /* \"anonimity/0.1-ETH-Anonymity.sol\":15794:15806  block.number */\n      number\n        /* \"anonimity/0.1-ETH-Anonymity.sol\":15794:15810  block.number.sub */\n      tag_437\n      swap1\n        /* \"anonimity/0.1-ETH-Anonymity.sol\":15794:15827  block.number.sub(lastRewardBlock) */\n      swap2\n      swap1\n      0xffffffff\n      and\n      jump\t// in\n    tag_436:\n        /* \"anonimity/0.1-ETH-Anonymity.sol\":15794:15831  block.number.sub(lastRewardBlock).mul */\n      tag_438\n      swap1\n        /* \"anonimity/0.1-ETH-Anonymity.sol\":15794:15847  block.number.sub(lastRewardBlock).mul(rewardPerBlock) */\n      swap2\n      swap1\n      0xffffffff\n      and\n      jump\t// in\n    tag_435:\n        /* \"anonimity/0.1-ETH-Anonymity.sol\":15777:15847  uint256 reward = block.number.sub(lastRewardBlock).mul(rewardPerBlock) */\n      swap1\n      pop\n        /* \"anonimity/0.1-ETH-Anonymity.sol\":15853:15870  uint256 remaining */\n      0x00\n        /* \"anonimity/0.1-ETH-Anonymity.sol\":15873:15930  M87Token.balanceOf(address(this)).sub(getAccumulateM87()) */\n      tag_439\n        /* \"anonimity/0.1-ETH-Anonymity.sol\":15911:15929  getAccumulateM87() */\n      tag_440\n        /* \"anonimity/0.1-ETH-Anonymity.sol\":15911:15927  getAccumulateM87 */\n      tag_171\n        /* \"anonimity/0.1-ETH-Anonymity.sol\":15911:15929  getAccumulateM87() */\n      jump\t// in\n    tag_440:\n        /* \"anonimity/0.1-ETH-Anonymity.sol\":15873:15881  M87Token */\n      0x6f\n      0x00\n      swap1\n      sload\n      swap1\n      0x0100\n      exp\n      swap1\n      div\n      0xffffffffffffffffffffffffffffffffffffffff\n      and\n        /* \"anonimity/0.1-ETH-Anonymity.sol\":15873:15891  M87Token.balanceOf */\n      0xffffffffffffffffffffffffffffffffffffffff\n      and\n      0x70a08231\n        /* \"anonimity/0.1-ETH-Anonymity.sol\":15900:15904  this */\n      address\n        /* \"anonimity/0.1-ETH-Anonymity.sol\":15873:15906  M87Token.balanceOf(address(this)) */\n      mload(0x40)\n      dup3\n      0xffffffff\n      and\n      0xe0\n      shl\n      dup2\n      mstore\n      0x04\n      add\n      dup1\n      dup3\n      0xffffffffffffffffffffffffffffffffffffffff\n      and\n      0xffffffffffffffffffffffffffffffffffffffff\n      and\n      dup2\n      mstore\n      0x20\n      add\n      swap2\n      pop\n      pop\n      0x20\n      mload(0x40)\n      dup1\n      dup4\n      sub\n      dup2\n      dup7\n      dup1\n      extcodesize\n      iszero\n        /* \"--CODEGEN--\":8:17   */\n      dup1\n        /* \"--CODEGEN--\":5:7   */\n      iszero\n      tag_441\n      jumpi\n        /* \"--CODEGEN--\":30:31   */\n      0x00\n        /* \"--CODEGEN--\":27:28   */\n      dup1\n        /* \"--CODEGEN--\":20:32   */\n      revert\n        /* \"--CODEGEN--\":5:7   */\n    tag_441:\n        /* \"anonimity/0.1-ETH-Anonymity.sol\":15873:15906  M87Token.balanceOf(address(this)) */\n      pop\n      gas\n      staticcall\n      iszero\n        /* \"--CODEGEN--\":8:17   */\n      dup1\n        /* \"--CODEGEN--\":5:7   */\n      iszero\n      tag_442\n      jumpi\n        /* \"--CODEGEN--\":45:61   */\n      returndatasize\n        /* \"--CODEGEN--\":42:43   */\n      0x00\n        /* \"--CODEGEN--\":39:40   */\n      dup1\n        /* \"--CODEGEN--\":24:62   */\n      returndatacopy\n        /* \"--CODEGEN--\":77:93   */\n      returndatasize\n        /* \"--CODEGEN--\":74:75   */\n      0x00\n        /* \"--CODEGEN--\":67:94   */\n      revert\n        /* \"--CODEGEN--\":5:7   */\n    tag_442:\n        /* \"anonimity/0.1-ETH-Anonymity.sol\":15873:15906  M87Token.balanceOf(address(this)) */\n      pop\n      pop\n      pop\n      pop\n      mload(0x40)\n      returndatasize\n        /* \"--CODEGEN--\":13:15   */\n      0x20\n        /* \"--CODEGEN--\":8:11   */\n      dup2\n        /* \"--CODEGEN--\":5:16   */\n      lt\n        /* \"--CODEGEN--\":2:4   */\n      iszero\n      tag_443\n      jumpi\n        /* \"--CODEGEN--\":29:30   */\n      0x00\n        /* \"--CODEGEN--\":26:27   */\n      dup1\n        /* \"--CODEGEN--\":19:31   */\n      revert\n        /* \"--CODEGEN--\":2:4   */\n    tag_443:\n        /* \"anonimity/0.1-ETH-Anonymity.sol\":15873:15906  M87Token.balanceOf(address(this)) */\n      dup2\n      add\n      swap1\n      dup1\n      dup1\n      mload\n      swap1\n      0x20\n      add\n      swap1\n      swap3\n      swap2\n      swap1\n      pop\n      pop\n      pop\n        /* \"anonimity/0.1-ETH-Anonymity.sol\":15873:15910  M87Token.balanceOf(address(this)).sub */\n      tag_437\n      swap1\n        /* \"anonimity/0.1-ETH-Anonymity.sol\":15873:15930  M87Token.balanceOf(address(this)).sub(getAccumulateM87()) */\n      swap2\n      swap1\n      0xffffffff\n      and\n      jump\t// in\n    tag_439:\n        /* \"anonimity/0.1-ETH-Anonymity.sol\":15853:15930  uint256 remaining = M87Token.balanceOf(address(this)).sub(getAccumulateM87()) */\n      swap1\n      pop\n        /* \"anonimity/0.1-ETH-Anonymity.sol\":15952:15958  reward */\n      dup2\n        /* \"anonimity/0.1-ETH-Anonymity.sol\":15940:15949  remaining */\n      dup2\n        /* \"anonimity/0.1-ETH-Anonymity.sol\":15940:15958  remaining < reward */\n      lt\n        /* \"anonimity/0.1-ETH-Anonymity.sol\":15936:15993  if (remaining < reward) {... */\n      iszero\n      tag_444\n      jumpi\n        /* \"anonimity/0.1-ETH-Anonymity.sol\":15977:15986  remaining */\n      dup1\n        /* \"anonimity/0.1-ETH-Anonymity.sol\":15968:15986  reward = remaining */\n      swap2\n      pop\n        /* \"anonimity/0.1-ETH-Anonymity.sol\":15936:15993  if (remaining < reward) {... */\n    tag_444:\n        /* \"anonimity/0.1-ETH-Anonymity.sol\":16005:16035  getAccumulateM87().add(reward) */\n      tag_445\n        /* \"anonimity/0.1-ETH-Anonymity.sol\":16028:16034  reward */\n      dup3\n        /* \"anonimity/0.1-ETH-Anonymity.sol\":16005:16023  getAccumulateM87() */\n      tag_446\n        /* \"anonimity/0.1-ETH-Anonymity.sol\":16005:16021  getAccumulateM87 */\n      tag_171\n        /* \"anonimity/0.1-ETH-Anonymity.sol\":16005:16023  getAccumulateM87() */\n      jump\t// in\n    tag_446:\n        /* \"anonimity/0.1-ETH-Anonymity.sol\":16005:16027  getAccumulateM87().add */\n      tag_294\n      swap1\n        /* \"anonimity/0.1-ETH-Anonymity.sol\":16005:16035  getAccumulateM87().add(reward) */\n      swap2\n      swap1\n      0xffffffff\n      and\n      jump\t// in\n    tag_445:\n        /* \"anonimity/0.1-ETH-Anonymity.sol\":15998:16035  return getAccumulateM87().add(reward) */\n      swap3\n      pop\n      pop\n      pop\n        /* \"anonimity/0.1-ETH-Anonymity.sol\":15710:16040  function calcAccumulateM87() internal view returns (uint256) {... */\n      swap1\n      jump\t// out\n        /* \"anonimity/0.1-ETH-Anonymity.sol\":2034:2157  function add(uint256 a, uint256 b) internal pure returns (uint256 c) {... */\n    tag_294:\n        /* \"anonimity/0.1-ETH-Anonymity.sol\":2092:2101  uint256 c */\n      0x00\n        /* \"anonimity/0.1-ETH-Anonymity.sol\":2117:2118  b */\n      dup2\n        /* \"anonimity/0.1-ETH-Anonymity.sol\":2113:2114  a */\n      dup4\n        /* \"anonimity/0.1-ETH-Anonymity.sol\":2113:2118  a + b */\n      add\n        /* \"anonimity/0.1-ETH-Anonymity.sol\":2109:2118  c = a + b */\n      swap1\n      pop\n        /* \"anonimity/0.1-ETH-Anonymity.sol\":2136:2137  a */\n      dup3\n        /* \"anonimity/0.1-ETH-Anonymity.sol\":2131:2132  c */\n      dup2\n        /* \"anonimity/0.1-ETH-Anonymity.sol\":2131:2137  c >= a */\n      lt\n      iszero\n        /* \"anonimity/0.1-ETH-Anonymity.sol\":2124:2138  assert(c >= a) */\n      tag_448\n      jumpi\n      invalid\n    tag_448:\n        /* \"anonimity/0.1-ETH-Anonymity.sol\":2151:2152  c */\n      dup1\n        /* \"anonimity/0.1-ETH-Anonymity.sol\":2144:2152  return c */\n      swap1\n      pop\n        /* \"anonimity/0.1-ETH-Anonymity.sol\":2034:2157  function add(uint256 a, uint256 b) internal pure returns (uint256 c) {... */\n      swap3\n      swap2\n      pop\n      pop\n      jump\t// out\n        /* \"anonimity/0.1-ETH-Anonymity.sol\":21555:23493  function swapAndShare() private {... */\n    tag_304:\n        /* \"anonimity/0.1-ETH-Anonymity.sol\":21616:21617  0 */\n      0x00\n        /* \"anonimity/0.1-ETH-Anonymity.sol\":21601:21613  collectedFee */\n      sload(0x86)\n        /* \"anonimity/0.1-ETH-Anonymity.sol\":21601:21617  collectedFee > 0 */\n      gt\n        /* \"anonimity/0.1-ETH-Anonymity.sol\":21593:21641  require(collectedFee > 0, \"Insufficient Amount\") */\n      tag_450\n      jumpi\n      mload(0x40)\n      0x08c379a000000000000000000000000000000000000000000000000000000000\n      dup2\n      mstore\n      0x04\n      add\n      dup1\n      dup1\n      0x20\n      add\n      dup3\n      dup2\n      sub\n      dup3\n      mstore\n      0x13\n      dup2\n      mstore\n      0x20\n      add\n      dup1\n      0x496e73756666696369656e7420416d6f756e7400000000000000000000000000\n      dup2\n      mstore\n      pop\n      0x20\n      add\n      swap2\n      pop\n      pop\n      mload(0x40)\n      dup1\n      swap2\n      sub\n      swap1\n      revert\n    tag_450:\n        /* \"anonimity/0.1-ETH-Anonymity.sol\":21647:21669  uint256 initialBalance */\n      0x00\n        /* \"anonimity/0.1-ETH-Anonymity.sol\":21672:21680  M87Token */\n      0x6f\n      0x00\n      swap1\n      sload\n      swap1\n      0x0100\n      exp\n      swap1\n      div\n      0xffffffffffffffffffffffffffffffffffffffff\n      and\n        /* \"anonimity/0.1-ETH-Anonymity.sol\":21672:21690  M87Token.balanceOf */\n      0xffffffffffffffffffffffffffffffffffffffff\n      and\n      0x70a08231\n        /* \"anonimity/0.1-ETH-Anonymity.sol\":21699:21703  this */\n      address\n        /* \"anonimity/0.1-ETH-Anonymity.sol\":21672:21705  M87Token.balanceOf(address(this)) */\n      mload(0x40)\n      dup3\n      0xffffffff\n      and\n      0xe0\n      shl\n      dup2\n      mstore\n      0x04\n      add\n      dup1\n      dup3\n      0xffffffffffffffffffffffffffffffffffffffff\n      and\n      0xffffffffffffffffffffffffffffffffffffffff\n      and\n      dup2\n      mstore\n      0x20\n      add\n      swap2\n      pop\n      pop\n      0x20\n      mload(0x40)\n      dup1\n      dup4\n      sub\n      dup2\n      dup7\n      dup1\n      extcodesize\n      iszero\n        /* \"--CODEGEN--\":8:17   */\n      dup1\n        /* \"--CODEGEN--\":5:7   */\n      iszero\n      tag_451\n      jumpi\n        /* \"--CODEGEN--\":30:31   */\n      0x00\n        /* \"--CODEGEN--\":27:28   */\n      dup1\n        /* \"--CODEGEN--\":20:32   */\n      revert\n        /* \"--CODEGEN--\":5:7   */\n    tag_451:\n        /* \"anonimity/0.1-ETH-Anonymity.sol\":21672:21705  M87Token.balanceOf(address(this)) */\n      pop\n      gas\n      staticcall\n      iszero\n        /* \"--CODEGEN--\":8:17   */\n      dup1\n        /* \"--CODEGEN--\":5:7   */\n      iszero\n      tag_452\n      jumpi\n        /* \"--CODEGEN--\":45:61   */\n      returndatasize\n        /* \"--CODEGEN--\":42:43   */\n      0x00\n        /* \"--CODEGEN--\":39:40   */\n      dup1\n        /* \"--CODEGEN--\":24:62   */\n      returndatacopy\n        /* \"--CODEGEN--\":77:93   */\n      returndatasize\n        /* \"--CODEGEN--\":74:75   */\n      0x00\n        /* \"--CODEGEN--\":67:94   */\n      revert\n        /* \"--CODEGEN--\":5:7   */\n    tag_452:\n        /* \"anonimity/0.1-ETH-Anonymity.sol\":21672:21705  M87Token.balanceOf(address(this)) */\n      pop\n      pop\n      pop\n      pop\n      mload(0x40)\n      returndatasize\n        /* \"--CODEGEN--\":13:15   */\n      0x20\n        /* \"--CODEGEN--\":8:11   */\n      dup2\n        /* \"--CODEGEN--\":5:16   */\n      lt\n        /* \"--CODEGEN--\":2:4   */\n      iszero\n      tag_453\n      jumpi\n        /* \"--CODEGEN--\":29:30   */\n      0x00\n        /* \"--CODEGEN--\":26:27   */\n      dup1\n        /* \"--CODEGEN--\":19:31   */\n      revert\n        /* \"--CODEGEN--\":2:4   */\n    tag_453:\n        /* \"anonimity/0.1-ETH-Anonymity.sol\":21672:21705  M87Token.balanceOf(address(this)) */\n      dup2\n      add\n      swap1\n      dup1\n      dup1\n      mload\n      swap1\n      0x20\n      add\n      swap1\n      swap3\n      swap2\n      swap1\n      pop\n      pop\n      pop\n        /* \"anonimity/0.1-ETH-Anonymity.sol\":21647:21705  uint256 initialBalance = M87Token.balanceOf(address(this)) */\n      swap1\n      pop\n        /* \"anonimity/0.1-ETH-Anonymity.sol\":21749:21770  address[] memory path */\n      0x60\n        /* \"anonimity/0.1-ETH-Anonymity.sol\":21787:21788  2 */\n      0x02\n        /* \"anonimity/0.1-ETH-Anonymity.sol\":21773:21789  new address[](2) */\n      mload(0x40)\n      swap1\n      dup1\n      dup3\n      mstore\n      dup1\n      0x20\n      mul\n      0x20\n      add\n      dup3\n      add\n      0x40\n      mstore\n      dup1\n      iszero\n      tag_454\n      jumpi\n      dup2\n      0x20\n      add\n        /* \"--CODEGEN--\":29:31   */\n      0x20\n        /* \"--CODEGEN--\":21:27   */\n      dup3\n        /* \"--CODEGEN--\":17:32   */\n      mul\n        /* \"--CODEGEN--\":117:121   */\n      dup1\n        /* \"--CODEGEN--\":105:115   */\n      codesize\n        /* \"--CODEGEN--\":97:103   */\n      dup4\n        /* \"--CODEGEN--\":88:122   */\n      codecopy\n        /* \"--CODEGEN--\":148:152   */\n      dup1\n        /* \"--CODEGEN--\":140:146   */\n      dup3\n        /* \"--CODEGEN--\":136:153   */\n      add\n        /* \"--CODEGEN--\":126:153   */\n      swap2\n      pop\n        /* \"--CODEGEN--\":0:157   */\n      pop\n        /* \"anonimity/0.1-ETH-Anonymity.sol\":21773:21789  new address[](2) */\n      swap1\n      pop\n    tag_454:\n      pop\n        /* \"anonimity/0.1-ETH-Anonymity.sol\":21749:21789  address[] memory path = new address[](2) */\n      swap1\n      pop\n        /* \"anonimity/0.1-ETH-Anonymity.sol\":21805:21820  uniswapV2Router */\n      0x8a\n      0x00\n      swap1\n      sload\n      swap1\n      0x0100\n      exp\n      swap1\n      div\n      0xffffffffffffffffffffffffffffffffffffffff\n      and\n        /* \"anonimity/0.1-ETH-Anonymity.sol\":21805:21825  uniswapV2Router.WETH */\n      0xffffffffffffffffffffffffffffffffffffffff\n      and\n      0xad5c4648\n        /* \"anonimity/0.1-ETH-Anonymity.sol\":21805:21827  uniswapV2Router.WETH() */\n      mload(0x40)\n      dup2\n      0xffffffff\n      and\n      0xe0\n      shl\n      dup2\n      mstore\n      0x04\n      add\n      0x20\n      mload(0x40)\n      dup1\n      dup4\n      sub\n      dup2\n      dup7\n      dup1\n      extcodesize\n      iszero\n        /* \"--CODEGEN--\":8:17   */\n      dup1\n        /* \"--CODEGEN--\":5:7   */\n      iszero\n      tag_455\n      jumpi\n        /* \"--CODEGEN--\":30:31   */\n      0x00\n        /* \"--CODEGEN--\":27:28   */\n      dup1\n        /* \"--CODEGEN--\":20:32   */\n      revert\n        /* \"--CODEGEN--\":5:7   */\n    tag_455:\n        /* \"anonimity/0.1-ETH-Anonymity.sol\":21805:21827  uniswapV2Router.WETH() */\n      pop\n      gas\n      staticcall\n      iszero\n        /* \"--CODEGEN--\":8:17   */\n      dup1\n        /* \"--CODEGEN--\":5:7   */\n      iszero\n      tag_456\n      jumpi\n        /* \"--CODEGEN--\":45:61   */\n      returndatasize\n        /* \"--CODEGEN--\":42:43   */\n      0x00\n        /* \"--CODEGEN--\":39:40   */\n      dup1\n        /* \"--CODEGEN--\":24:62   */\n      returndatacopy\n        /* \"--CODEGEN--\":77:93   */\n      returndatasize\n        /* \"--CODEGEN--\":74:75   */\n      0x00\n        /* \"--CODEGEN--\":67:94   */\n      revert\n        /* \"--CODEGEN--\":5:7   */\n    tag_456:\n        /* \"anonimity/0.1-ETH-Anonymity.sol\":21805:21827  uniswapV2Router.WETH() */\n      pop\n      pop\n      pop\n      pop\n      mload(0x40)\n      returndatasize\n        /* \"--CODEGEN--\":13:15   */\n      0x20\n        /* \"--CODEGEN--\":8:11   */\n      dup2\n        /* \"--CODEGEN--\":5:16   */\n      lt\n        /* \"--CODEGEN--\":2:4   */\n      iszero\n      tag_457\n      jumpi\n        /* \"--CODEGEN--\":29:30   */\n      0x00\n        /* \"--CODEGEN--\":26:27   */\n      dup1\n        /* \"--CODEGEN--\":19:31   */\n      revert\n        /* \"--CODEGEN--\":2:4   */\n    tag_457:\n        /* \"anonimity/0.1-ETH-Anonymity.sol\":21805:21827  uniswapV2Router.WETH() */\n      dup2\n      add\n      swap1\n      dup1\n      dup1\n      mload\n      swap1\n      0x20\n      add\n      swap1\n      swap3\n      swap2\n      swap1\n      pop\n      pop\n      pop\n        /* \"anonimity/0.1-ETH-Anonymity.sol\":21795:21799  path */\n      dup2\n        /* \"anonimity/0.1-ETH-Anonymity.sol\":21800:21801  0 */\n      0x00\n        /* \"anonimity/0.1-ETH-Anonymity.sol\":21795:21802  path[0] */\n      dup2\n      mload\n      dup2\n      lt\n      tag_458\n      jumpi\n      invalid\n    tag_458:\n      0x20\n      mul\n      0x20\n      add\n      add\n        /* \"anonimity/0.1-ETH-Anonymity.sol\":21795:21827  path[0] = uniswapV2Router.WETH() */\n      swap1\n      0xffffffffffffffffffffffffffffffffffffffff\n      and\n      swap1\n      dup2\n      0xffffffffffffffffffffffffffffffffffffffff\n      and\n      dup2\n      mstore\n      pop\n      pop\n        /* \"anonimity/0.1-ETH-Anonymity.sol\":21851:21859  M87Token */\n      0x6f\n      0x00\n      swap1\n      sload\n      swap1\n      0x0100\n      exp\n      swap1\n      div\n      0xffffffffffffffffffffffffffffffffffffffff\n      and\n        /* \"anonimity/0.1-ETH-Anonymity.sol\":21833:21837  path */\n      dup2\n        /* \"anonimity/0.1-ETH-Anonymity.sol\":21838:21839  1 */\n      0x01\n        /* \"anonimity/0.1-ETH-Anonymity.sol\":21833:21840  path[1] */\n      dup2\n      mload\n      dup2\n      lt\n      tag_459\n      jumpi\n      invalid\n    tag_459:\n      0x20\n      mul\n      0x20\n      add\n      add\n        /* \"anonimity/0.1-ETH-Anonymity.sol\":21833:21860  path[1] = address(M87Token) */\n      swap1\n      0xffffffffffffffffffffffffffffffffffffffff\n      and\n      swap1\n      dup2\n      0xffffffffffffffffffffffffffffffffffffffff\n      and\n      dup2\n      mstore\n      pop\n      pop\n        /* \"anonimity/0.1-ETH-Anonymity.sol\":21887:21902  uniswapV2Router */\n      0x8a\n      0x00\n      swap1\n      sload\n      swap1\n      0x0100\n      exp\n      swap1\n      div\n      0xffffffffffffffffffffffffffffffffffffffff\n      and\n        /* \"anonimity/0.1-ETH-Anonymity.sol\":21887:21953  uniswapV2Router.swapExactETHForTokensSupportingFeeOnTransferTokens */\n      0xffffffffffffffffffffffffffffffffffffffff\n      and\n      0xb6f9de95\n        /* \"anonimity/0.1-ETH-Anonymity.sol\":21960:21972  collectedFee */\n      sload(0x86)\n        /* \"anonimity/0.1-ETH-Anonymity.sol\":21986:21987  0 */\n      0x00\n        /* \"anonimity/0.1-ETH-Anonymity.sol\":22023:22027  path */\n      dup5\n        /* \"anonimity/0.1-ETH-Anonymity.sol\":22043:22047  this */\n      address\n        /* \"anonimity/0.1-ETH-Anonymity.sol\":22056:22078  block.timestamp.mul(2) */\n      tag_460\n        /* \"anonimity/0.1-ETH-Anonymity.sol\":22076:22077  2 */\n      0x02\n        /* \"anonimity/0.1-ETH-Anonymity.sol\":22056:22071  block.timestamp */\n      timestamp\n        /* \"anonimity/0.1-ETH-Anonymity.sol\":22056:22075  block.timestamp.mul */\n      tag_438\n      swap1\n        /* \"anonimity/0.1-ETH-Anonymity.sol\":22056:22078  block.timestamp.mul(2) */\n      swap2\n      swap1\n      0xffffffff\n      and\n      jump\t// in\n    tag_460:\n        /* \"anonimity/0.1-ETH-Anonymity.sol\":21887:22084  uniswapV2Router.swapExactETHForTokensSupportingFeeOnTransferTokens.value(collectedFee)... */\n      mload(0x40)\n      dup7\n      0xffffffff\n      and\n      0xe0\n      shl\n      dup2\n      mstore\n      0x04\n      add\n      dup1\n      dup6\n      dup2\n      mstore\n      0x20\n      add\n      dup1\n      0x20\n      add\n      dup5\n      0xffffffffffffffffffffffffffffffffffffffff\n      and\n      0xffffffffffffffffffffffffffffffffffffffff\n      and\n      dup2\n      mstore\n      0x20\n      add\n      dup4\n      dup2\n      mstore\n      0x20\n      add\n      dup3\n      dup2\n      sub\n      dup3\n      mstore\n      dup6\n      dup2\n      dup2\n      mload\n      dup2\n      mstore\n      0x20\n      add\n      swap2\n      pop\n      dup1\n      mload\n      swap1\n      0x20\n      add\n      swap1\n      0x20\n      mul\n      dup1\n      dup4\n      dup4\n        /* \"--CODEGEN--\":23:24   */\n      0x00\n        /* \"--CODEGEN--\":8:108   */\n    tag_461:\n        /* \"--CODEGEN--\":33:36   */\n      dup4\n        /* \"--CODEGEN--\":30:31   */\n      dup2\n        /* \"--CODEGEN--\":27:37   */\n      lt\n        /* \"--CODEGEN--\":8:108   */\n      iszero\n      tag_463\n      jumpi\n        /* \"--CODEGEN--\":99:100   */\n      dup1\n        /* \"--CODEGEN--\":94:97   */\n      dup3\n        /* \"--CODEGEN--\":90:101   */\n      add\n        /* \"--CODEGEN--\":84:102   */\n      mload\n        /* \"--CODEGEN--\":80:81   */\n      dup2\n        /* \"--CODEGEN--\":75:78   */\n      dup5\n        /* \"--CODEGEN--\":71:82   */\n      add\n        /* \"--CODEGEN--\":64:103   */\n      mstore\n        /* \"--CODEGEN--\":52:54   */\n      0x20\n        /* \"--CODEGEN--\":49:50   */\n      dup2\n        /* \"--CODEGEN--\":45:55   */\n      add\n        /* \"--CODEGEN--\":40:55   */\n      swap1\n      pop\n        /* \"--CODEGEN--\":8:108   */\n      jump(tag_461)\n    tag_463:\n        /* \"--CODEGEN--\":12:26   */\n      pop\n        /* \"anonimity/0.1-ETH-Anonymity.sol\":21887:22084  uniswapV2Router.swapExactETHForTokensSupportingFeeOnTransferTokens.value(collectedFee)... */\n      pop\n      pop\n      pop\n      swap1\n      pop\n      add\n      swap6\n      pop\n      pop\n      pop\n      pop\n      pop\n      pop\n      0x00\n      mload(0x40)\n      dup1\n      dup4\n      sub\n      dup2\n      dup6\n      dup9\n      dup1\n      extcodesize\n      iszero\n        /* \"--CODEGEN--\":8:17   */\n      dup1\n        /* \"--CODEGEN--\":5:7   */\n      iszero\n      tag_464\n      jumpi\n        /* \"--CODEGEN--\":30:31   */\n      0x00\n        /* \"--CODEGEN--\":27:28   */\n      dup1\n        /* \"--CODEGEN--\":20:32   */\n      revert\n        /* \"--CODEGEN--\":5:7   */\n    tag_464:\n        /* \"anonimity/0.1-ETH-Anonymity.sol\":21887:22084  uniswapV2Router.swapExactETHForTokensSupportingFeeOnTransferTokens.value(collectedFee)... */\n      pop\n      gas\n      call\n      iszero\n        /* \"--CODEGEN--\":8:17   */\n      dup1\n        /* \"--CODEGEN--\":5:7   */\n      iszero\n      tag_465\n      jumpi\n        /* \"--CODEGEN--\":45:61   */\n      returndatasize\n        /* \"--CODEGEN--\":42:43   */\n      0x00\n        /* \"--CODEGEN--\":39:40   */\n      dup1\n        /* \"--CODEGEN--\":24:62   */\n      returndatacopy\n        /* \"--CODEGEN--\":77:93   */\n      returndatasize\n        /* \"--CODEGEN--\":74:75   */\n      0x00\n        /* \"--CODEGEN--\":67:94   */\n      revert\n        /* \"--CODEGEN--\":5:7   */\n    tag_465:\n        /* \"anonimity/0.1-ETH-Anonymity.sol\":21887:22084  uniswapV2Router.swapExactETHForTokensSupportingFeeOnTransferTokens.value(collectedFee)... */\n      pop\n      pop\n      pop\n      pop\n      pop\n        /* \"anonimity/0.1-ETH-Anonymity.sol\":22127:22128  0 */\n      0x00\n        /* \"anonimity/0.1-ETH-Anonymity.sol\":22112:22124  collectedFee */\n      0x86\n        /* \"anonimity/0.1-ETH-Anonymity.sol\":22112:22128  collectedFee = 0 */\n      dup2\n      swap1\n      sstore\n      pop\n        /* \"anonimity/0.1-ETH-Anonymity.sol\":22135:22153  uint256 newBalance */\n      0x00\n        /* \"anonimity/0.1-ETH-Anonymity.sol\":22156:22209  M87Token.balanceOf(address(this)).sub(initialBalance) */\n      tag_466\n        /* \"anonimity/0.1-ETH-Anonymity.sol\":22194:22208  initialBalance */\n      dup4\n        /* \"anonimity/0.1-ETH-Anonymity.sol\":22156:22164  M87Token */\n      0x6f\n      0x00\n      swap1\n      sload\n      swap1\n      0x0100\n      exp\n      swap1\n      div\n      0xffffffffffffffffffffffffffffffffffffffff\n      and\n        /* \"anonimity/0.1-ETH-Anonymity.sol\":22156:22174  M87Token.balanceOf */\n      0xffffffffffffffffffffffffffffffffffffffff\n      and\n      0x70a08231\n        /* \"anonimity/0.1-ETH-Anonymity.sol\":22183:22187  this */\n      address\n        /* \"anonimity/0.1-ETH-Anonymity.sol\":22156:22189  M87Token.balanceOf(address(this)) */\n      mload(0x40)\n      dup3\n      0xffffffff\n      and\n      0xe0\n      shl\n      dup2\n      mstore\n      0x04\n      add\n      dup1\n      dup3\n      0xffffffffffffffffffffffffffffffffffffffff\n      and\n      0xffffffffffffffffffffffffffffffffffffffff\n      and\n      dup2\n      mstore\n      0x20\n      add\n      swap2\n      pop\n      pop\n      0x20\n      mload(0x40)\n      dup1\n      dup4\n      sub\n      dup2\n      dup7\n      dup1\n      extcodesize\n      iszero\n        /* \"--CODEGEN--\":8:17   */\n      dup1\n        /* \"--CODEGEN--\":5:7   */\n      iszero\n      tag_467\n      jumpi\n        /* \"--CODEGEN--\":30:31   */\n      0x00\n        /* \"--CODEGEN--\":27:28   */\n      dup1\n        /* \"--CODEGEN--\":20:32   */\n      revert\n        /* \"--CODEGEN--\":5:7   */\n    tag_467:\n        /* \"anonimity/0.1-ETH-Anonymity.sol\":22156:22189  M87Token.balanceOf(address(this)) */\n      pop\n      gas\n      staticcall\n      iszero\n        /* \"--CODEGEN--\":8:17   */\n      dup1\n        /* \"--CODEGEN--\":5:7   */\n      iszero\n      tag_468\n      jumpi\n        /* \"--CODEGEN--\":45:61   */\n      returndatasize\n        /* \"--CODEGEN--\":42:43   */\n      0x00\n        /* \"--CODEGEN--\":39:40   */\n      dup1\n        /* \"--CODEGEN--\":24:62   */\n      returndatacopy\n        /* \"--CODEGEN--\":77:93   */\n      returndatasize\n        /* \"--CODEGEN--\":74:75   */\n      0x00\n        /* \"--CODEGEN--\":67:94   */\n      revert\n        /* \"--CODEGEN--\":5:7   */\n    tag_468:\n        /* \"anonimity/0.1-ETH-Anonymity.sol\":22156:22189  M87Token.balanceOf(address(this)) */\n      pop\n      pop\n      pop\n      pop\n      mload(0x40)\n      returndatasize\n        /* \"--CODEGEN--\":13:15   */\n      0x20\n        /* \"--CODEGEN--\":8:11   */\n      dup2\n        /* \"--CODEGEN--\":5:16   */\n      lt\n        /* \"--CODEGEN--\":2:4   */\n      iszero\n      tag_469\n      jumpi\n        /* \"--CODEGEN--\":29:30   */\n      0x00\n        /* \"--CODEGEN--\":26:27   */\n      dup1\n        /* \"--CODEGEN--\":19:31   */\n      revert\n        /* \"--CODEGEN--\":2:4   */\n    tag_469:\n        /* \"anonimity/0.1-ETH-Anonymity.sol\":22156:22189  M87Token.balanceOf(address(this)) */\n      dup2\n      add\n      swap1\n      dup1\n      dup1\n      mload\n      swap1\n      0x20\n      add\n      swap1\n      swap3\n      swap2\n      swap1\n      pop\n      pop\n      pop\n        /* \"anonimity/0.1-ETH-Anonymity.sol\":22156:22193  M87Token.balanceOf(address(this)).sub */\n      tag_437\n      swap1\n        /* \"anonimity/0.1-ETH-Anonymity.sol\":22156:22209  M87Token.balanceOf(address(this)).sub(initialBalance) */\n      swap2\n      swap1\n      0xffffffff\n      and\n      jump\t// in\n    tag_466:\n        /* \"anonimity/0.1-ETH-Anonymity.sol\":22135:22209  uint256 newBalance = M87Token.balanceOf(address(this)).sub(initialBalance) */\n      swap1\n      pop\n        /* \"anonimity/0.1-ETH-Anonymity.sol\":22239:22240  0 */\n      0x00\n        /* \"anonimity/0.1-ETH-Anonymity.sol\":22220:22233  shareOfReward */\n      0x79\n        /* \"anonimity/0.1-ETH-Anonymity.sol\":22234:22235  0 */\n      0x00\n        /* \"anonimity/0.1-ETH-Anonymity.sol\":22220:22236  shareOfReward[0] */\n      0x05\n      dup2\n      lt\n      tag_470\n      jumpi\n      invalid\n    tag_470:\n      add\n      sload\n        /* \"anonimity/0.1-ETH-Anonymity.sol\":22220:22240  shareOfReward[0] > 0 */\n      gt\n        /* \"anonimity/0.1-ETH-Anonymity.sol\":22216:22373  if( shareOfReward[0] > 0 ) {... */\n      iszero\n      tag_472\n      jumpi\n        /* \"anonimity/0.1-ETH-Anonymity.sol\":22251:22259  M87Token */\n      0x6f\n      0x00\n      swap1\n      sload\n      swap1\n      0x0100\n      exp\n      swap1\n      div\n      0xffffffffffffffffffffffffffffffffffffffff\n      and\n        /* \"anonimity/0.1-ETH-Anonymity.sol\":22251:22268  M87Token.transfer */\n      0xffffffffffffffffffffffffffffffffffffffff\n      and\n      0xa9059cbb\n        /* \"anonimity/0.1-ETH-Anonymity.sol\":22278:22320  0x000000000000000000000000000000000000dEaD */\n      0xdead\n        /* \"anonimity/0.1-ETH-Anonymity.sol\":22323:22364  newBalance.mul(shareOfReward[0]).div(100) */\n      tag_473\n        /* \"anonimity/0.1-ETH-Anonymity.sol\":22360:22363  100 */\n      0x64\n        /* \"anonimity/0.1-ETH-Anonymity.sol\":22323:22355  newBalance.mul(shareOfReward[0]) */\n      tag_474\n        /* \"anonimity/0.1-ETH-Anonymity.sol\":22338:22351  shareOfReward */\n      0x79\n        /* \"anonimity/0.1-ETH-Anonymity.sol\":22352:22353  0 */\n      0x00\n        /* \"anonimity/0.1-ETH-Anonymity.sol\":22338:22354  shareOfReward[0] */\n      0x05\n      dup2\n      lt\n      tag_475\n      jumpi\n      invalid\n    tag_475:\n      add\n      sload\n        /* \"anonimity/0.1-ETH-Anonymity.sol\":22323:22333  newBalance */\n      dup8\n        /* \"anonimity/0.1-ETH-Anonymity.sol\":22323:22337  newBalance.mul */\n      tag_438\n      swap1\n        /* \"anonimity/0.1-ETH-Anonymity.sol\":22323:22355  newBalance.mul(shareOfReward[0]) */\n      swap2\n      swap1\n      0xffffffff\n      and\n      jump\t// in\n    tag_474:\n        /* \"anonimity/0.1-ETH-Anonymity.sol\":22323:22359  newBalance.mul(shareOfReward[0]).div */\n      tag_270\n      swap1\n        /* \"anonimity/0.1-ETH-Anonymity.sol\":22323:22364  newBalance.mul(shareOfReward[0]).div(100) */\n      swap2\n      swap1\n      0xffffffff\n      and\n      jump\t// in\n    tag_473:\n        /* \"anonimity/0.1-ETH-Anonymity.sol\":22251:22366  M87Token.transfer( address(0x000000000000000000000000000000000000dEaD), newBalance.mul(shareOfReward[0]).div(100) ) */\n      mload(0x40)\n      dup4\n      0xffffffff\n      and\n      0xe0\n      shl\n      dup2\n      mstore\n      0x04\n      add\n      dup1\n      dup4\n      0xffffffffffffffffffffffffffffffffffffffff\n      and\n      0xffffffffffffffffffffffffffffffffffffffff\n      and\n      dup2\n      mstore\n      0x20\n      add\n      dup3\n      dup2\n      mstore\n      0x20\n      add\n      swap3\n      pop\n      pop\n      pop\n      0x20\n      mload(0x40)\n      dup1\n      dup4\n      sub\n      dup2\n      0x00\n      dup8\n      dup1\n      extcodesize\n      iszero\n        /* \"--CODEGEN--\":8:17   */\n      dup1\n        /* \"--CODEGEN--\":5:7   */\n      iszero\n      tag_477\n      jumpi\n        /* \"--CODEGEN--\":30:31   */\n      0x00\n        /* \"--CODEGEN--\":27:28   */\n      dup1\n        /* \"--CODEGEN--\":20:32   */\n      revert\n        /* \"--CODEGEN--\":5:7   */\n    tag_477:\n        /* \"anonimity/0.1-ETH-Anonymity.sol\":22251:22366  M87Token.transfer( address(0x000000000000000000000000000000000000dEaD), newBalance.mul(shareOfReward[0]).div(100) ) */\n      pop\n      gas\n      call\n      iszero\n        /* \"--CODEGEN--\":8:17   */\n      dup1\n        /* \"--CODEGEN--\":5:7   */\n      iszero\n      tag_478\n      jumpi\n        /* \"--CODEGEN--\":45:61   */\n      returndatasize\n        /* \"--CODEGEN--\":42:43   */\n      0x00\n        /* \"--CODEGEN--\":39:40   */\n      dup1\n        /* \"--CODEGEN--\":24:62   */\n      returndatacopy\n        /* \"--CODEGEN--\":77:93   */\n      returndatasize\n        /* \"--CODEGEN--\":74:75   */\n      0x00\n        /* \"--CODEGEN--\":67:94   */\n      revert\n        /* \"--CODEGEN--\":5:7   */\n    tag_478:\n        /* \"anonimity/0.1-ETH-Anonymity.sol\":22251:22366  M87Token.transfer( address(0x000000000000000000000000000000000000dEaD), newBalance.mul(shareOfReward[0]).div(100) ) */\n      pop\n      pop\n      pop\n      pop\n      mload(0x40)\n      returndatasize\n        /* \"--CODEGEN--\":13:15   */\n      0x20\n        /* \"--CODEGEN--\":8:11   */\n      dup2\n        /* \"--CODEGEN--\":5:16   */\n      lt\n        /* \"--CODEGEN--\":2:4   */\n      iszero\n      tag_479\n      jumpi\n        /* \"--CODEGEN--\":29:30   */\n      0x00\n        /* \"--CODEGEN--\":26:27   */\n      dup1\n        /* \"--CODEGEN--\":19:31   */\n      revert\n        /* \"--CODEGEN--\":2:4   */\n    tag_479:\n        /* \"anonimity/0.1-ETH-Anonymity.sol\":22251:22366  M87Token.transfer( address(0x000000000000000000000000000000000000dEaD), newBalance.mul(shareOfReward[0]).div(100) ) */\n      dup2\n      add\n      swap1\n      dup1\n      dup1\n      mload\n      swap1\n      0x20\n      add\n      swap1\n      swap3\n      swap2\n      swap1\n      pop\n      pop\n      pop\n      pop\n        /* \"anonimity/0.1-ETH-Anonymity.sol\":22216:22373  if( shareOfReward[0] > 0 ) {... */\n    tag_472:\n        /* \"anonimity/0.1-ETH-Anonymity.sol\":22406:22407  0 */\n      0x00\n        /* \"anonimity/0.1-ETH-Anonymity.sol\":22383:22408  poolList[0] != address(0) */\n      0xffffffffffffffffffffffffffffffffffffffff\n      and\n        /* \"anonimity/0.1-ETH-Anonymity.sol\":22383:22391  poolList */\n      0x7e\n        /* \"anonimity/0.1-ETH-Anonymity.sol\":22392:22393  0 */\n      0x00\n        /* \"anonimity/0.1-ETH-Anonymity.sol\":22383:22394  poolList[0] */\n      0x04\n      dup2\n      lt\n      tag_480\n      jumpi\n      invalid\n    tag_480:\n      add\n      0x00\n      swap1\n      sload\n      swap1\n      0x0100\n      exp\n      swap1\n      div\n      0xffffffffffffffffffffffffffffffffffffffff\n      and\n        /* \"anonimity/0.1-ETH-Anonymity.sol\":22383:22408  poolList[0] != address(0) */\n      0xffffffffffffffffffffffffffffffffffffffff\n      and\n      eq\n      iszero\n        /* \"anonimity/0.1-ETH-Anonymity.sol\":22383:22432  poolList[0] != address(0) && shareOfReward[1] > 0 */\n      dup1\n      iszero\n      tag_482\n      jumpi\n      pop\n        /* \"anonimity/0.1-ETH-Anonymity.sol\":22431:22432  0 */\n      0x00\n        /* \"anonimity/0.1-ETH-Anonymity.sol\":22412:22425  shareOfReward */\n      0x79\n        /* \"anonimity/0.1-ETH-Anonymity.sol\":22426:22427  1 */\n      0x01\n        /* \"anonimity/0.1-ETH-Anonymity.sol\":22412:22428  shareOfReward[1] */\n      0x05\n      dup2\n      lt\n      tag_483\n      jumpi\n      invalid\n    tag_483:\n      add\n      sload\n        /* \"anonimity/0.1-ETH-Anonymity.sol\":22412:22432  shareOfReward[1] > 0 */\n      gt\n        /* \"anonimity/0.1-ETH-Anonymity.sol\":22383:22432  poolList[0] != address(0) && shareOfReward[1] > 0 */\n    tag_482:\n        /* \"anonimity/0.1-ETH-Anonymity.sol\":22383:22464  poolList[0] != address(0) && shareOfReward[1] > 0 && poolList[0] != address(this) */\n      dup1\n      iszero\n      tag_485\n      jumpi\n      pop\n        /* \"anonimity/0.1-ETH-Anonymity.sol\":22459:22463  this */\n      address\n        /* \"anonimity/0.1-ETH-Anonymity.sol\":22436:22464  poolList[0] != address(this) */\n      0xffffffffffffffffffffffffffffffffffffffff\n      and\n        /* \"anonimity/0.1-ETH-Anonymity.sol\":22436:22444  poolList */\n      0x7e\n        /* \"anonimity/0.1-ETH-Anonymity.sol\":22445:22446  0 */\n      0x00\n        /* \"anonimity/0.1-ETH-Anonymity.sol\":22436:22447  poolList[0] */\n      0x04\n      dup2\n      lt\n      tag_486\n      jumpi\n      invalid\n    tag_486:\n      add\n      0x00\n      swap1\n      sload\n      swap1\n      0x0100\n      exp\n      swap1\n      div\n      0xffffffffffffffffffffffffffffffffffffffff\n      and\n        /* \"anonimity/0.1-ETH-Anonymity.sol\":22436:22464  poolList[0] != address(this) */\n      0xffffffffffffffffffffffffffffffffffffffff\n      and\n      eq\n      iszero\n        /* \"anonimity/0.1-ETH-Anonymity.sol\":22383:22464  poolList[0] != address(0) && shareOfReward[1] > 0 && poolList[0] != address(this) */\n    tag_485:\n        /* \"anonimity/0.1-ETH-Anonymity.sol\":22379:22652  if( poolList[0] != address(0) && shareOfReward[1] > 0 && poolList[0] != address(this) ) {... */\n      iszero\n      tag_488\n      jumpi\n        /* \"anonimity/0.1-ETH-Anonymity.sol\":22494:22559  rewardAmounts[0].add( newBalance.mul(shareOfReward[1]).div(100) ) */\n      tag_489\n        /* \"anonimity/0.1-ETH-Anonymity.sol\":22516:22557  newBalance.mul(shareOfReward[1]).div(100) */\n      tag_490\n        /* \"anonimity/0.1-ETH-Anonymity.sol\":22553:22556  100 */\n      0x64\n        /* \"anonimity/0.1-ETH-Anonymity.sol\":22516:22548  newBalance.mul(shareOfReward[1]) */\n      tag_491\n        /* \"anonimity/0.1-ETH-Anonymity.sol\":22531:22544  shareOfReward */\n      0x79\n        /* \"anonimity/0.1-ETH-Anonymity.sol\":22545:22546  1 */\n      0x01\n        /* \"anonimity/0.1-ETH-Anonymity.sol\":22531:22547  shareOfReward[1] */\n      0x05\n      dup2\n      lt\n      tag_492\n      jumpi\n      invalid\n    tag_492:\n      add\n      sload\n        /* \"anonimity/0.1-ETH-Anonymity.sol\":22516:22526  newBalance */\n      dup6\n        /* \"anonimity/0.1-ETH-Anonymity.sol\":22516:22530  newBalance.mul */\n      tag_438\n      swap1\n        /* \"anonimity/0.1-ETH-Anonymity.sol\":22516:22548  newBalance.mul(shareOfReward[1]) */\n      swap2\n      swap1\n      0xffffffff\n      and\n      jump\t// in\n    tag_491:\n        /* \"anonimity/0.1-ETH-Anonymity.sol\":22516:22552  newBalance.mul(shareOfReward[1]).div */\n      tag_270\n      swap1\n        /* \"anonimity/0.1-ETH-Anonymity.sol\":22516:22557  newBalance.mul(shareOfReward[1]).div(100) */\n      swap2\n      swap1\n      0xffffffff\n      and\n      jump\t// in\n    tag_490:\n        /* \"anonimity/0.1-ETH-Anonymity.sol\":22494:22507  rewardAmounts */\n      0x82\n        /* \"anonimity/0.1-ETH-Anonymity.sol\":22508:22509  0 */\n      0x00\n        /* \"anonimity/0.1-ETH-Anonymity.sol\":22494:22510  rewardAmounts[0] */\n      0x04\n      dup2\n      lt\n      tag_494\n      jumpi\n      invalid\n    tag_494:\n      add\n      sload\n        /* \"anonimity/0.1-ETH-Anonymity.sol\":22494:22514  rewardAmounts[0].add */\n      tag_294\n      swap1\n        /* \"anonimity/0.1-ETH-Anonymity.sol\":22494:22559  rewardAmounts[0].add( newBalance.mul(shareOfReward[1]).div(100) ) */\n      swap2\n      swap1\n      0xffffffff\n      and\n      jump\t// in\n    tag_489:\n        /* \"anonimity/0.1-ETH-Anonymity.sol\":22475:22488  rewardAmounts */\n      0x82\n        /* \"anonimity/0.1-ETH-Anonymity.sol\":22489:22490  0 */\n      0x00\n        /* \"anonimity/0.1-ETH-Anonymity.sol\":22475:22491  rewardAmounts[0] */\n      0x04\n      dup2\n      lt\n      tag_496\n      jumpi\n      invalid\n    tag_496:\n      add\n        /* \"anonimity/0.1-ETH-Anonymity.sol\":22475:22559  rewardAmounts[0] = rewardAmounts[0].add( newBalance.mul(shareOfReward[1]).div(100) ) */\n      dup2\n      swap1\n      sstore\n      pop\n        /* \"anonimity/0.1-ETH-Anonymity.sol\":22379:22652  if( poolList[0] != address(0) && shareOfReward[1] > 0 && poolList[0] != address(this) ) {... */\n    tag_488:\n        /* \"anonimity/0.1-ETH-Anonymity.sol\":22685:22686  0 */\n      0x00\n        /* \"anonimity/0.1-ETH-Anonymity.sol\":22662:22687  poolList[1] != address(0) */\n      0xffffffffffffffffffffffffffffffffffffffff\n      and\n        /* \"anonimity/0.1-ETH-Anonymity.sol\":22662:22670  poolList */\n      0x7e\n        /* \"anonimity/0.1-ETH-Anonymity.sol\":22671:22672  1 */\n      0x01\n        /* \"anonimity/0.1-ETH-Anonymity.sol\":22662:22673  poolList[1] */\n      0x04\n      dup2\n      lt\n      tag_498\n      jumpi\n      invalid\n    tag_498:\n      add\n      0x00\n      swap1\n      sload\n      swap1\n      0x0100\n      exp\n      swap1\n      div\n      0xffffffffffffffffffffffffffffffffffffffff\n      and\n        /* \"anonimity/0.1-ETH-Anonymity.sol\":22662:22687  poolList[1] != address(0) */\n      0xffffffffffffffffffffffffffffffffffffffff\n      and\n      eq\n      iszero\n        /* \"anonimity/0.1-ETH-Anonymity.sol\":22662:22711  poolList[1] != address(0) && shareOfReward[2] > 0 */\n      dup1\n      iszero\n      tag_500\n      jumpi\n      pop\n        /* \"anonimity/0.1-ETH-Anonymity.sol\":22710:22711  0 */\n      0x00\n        /* \"anonimity/0.1-ETH-Anonymity.sol\":22691:22704  shareOfReward */\n      0x79\n        /* \"anonimity/0.1-ETH-Anonymity.sol\":22705:22706  2 */\n      0x02\n        /* \"anonimity/0.1-ETH-Anonymity.sol\":22691:22707  shareOfReward[2] */\n      0x05\n      dup2\n      lt\n      tag_501\n      jumpi\n      invalid\n    tag_501:\n      add\n      sload\n        /* \"anonimity/0.1-ETH-Anonymity.sol\":22691:22711  shareOfReward[2] > 0 */\n      gt\n        /* \"anonimity/0.1-ETH-Anonymity.sol\":22662:22711  poolList[1] != address(0) && shareOfReward[2] > 0 */\n    tag_500:\n        /* \"anonimity/0.1-ETH-Anonymity.sol\":22662:22743  poolList[1] != address(0) && shareOfReward[2] > 0 && poolList[1] != address(this) */\n      dup1\n      iszero\n      tag_503\n      jumpi\n      pop\n        /* \"anonimity/0.1-ETH-Anonymity.sol\":22738:22742  this */\n      address\n        /* \"anonimity/0.1-ETH-Anonymity.sol\":22715:22743  poolList[1] != address(this) */\n      0xffffffffffffffffffffffffffffffffffffffff\n      and\n        /* \"anonimity/0.1-ETH-Anonymity.sol\":22715:22723  poolList */\n      0x7e\n        /* \"anonimity/0.1-ETH-Anonymity.sol\":22724:22725  1 */\n      0x01\n        /* \"anonimity/0.1-ETH-Anonymity.sol\":22715:22726  poolList[1] */\n      0x04\n      dup2\n      lt\n      tag_504\n      jumpi\n      invalid\n    tag_504:\n      add\n      0x00\n      swap1\n      sload\n      swap1\n      0x0100\n      exp\n      swap1\n      div\n      0xffffffffffffffffffffffffffffffffffffffff\n      and\n        /* \"anonimity/0.1-ETH-Anonymity.sol\":22715:22743  poolList[1] != address(this) */\n      0xffffffffffffffffffffffffffffffffffffffff\n      and\n      eq\n      iszero\n        /* \"anonimity/0.1-ETH-Anonymity.sol\":22662:22743  poolList[1] != address(0) && shareOfReward[2] > 0 && poolList[1] != address(this) */\n    tag_503:\n        /* \"anonimity/0.1-ETH-Anonymity.sol\":22658:22931  if( poolList[1] != address(0) && shareOfReward[2] > 0 && poolList[1] != address(this) ) {... */\n      iszero\n      tag_506\n      jumpi\n        /* \"anonimity/0.1-ETH-Anonymity.sol\":22773:22838  rewardAmounts[1].add( newBalance.mul(shareOfReward[2]).div(100) ) */\n      tag_507\n        /* \"anonimity/0.1-ETH-Anonymity.sol\":22795:22836  newBalance.mul(shareOfReward[2]).div(100) */\n      tag_508\n        /* \"anonimity/0.1-ETH-Anonymity.sol\":22832:22835  100 */\n      0x64\n        /* \"anonimity/0.1-ETH-Anonymity.sol\":22795:22827  newBalance.mul(shareOfReward[2]) */\n      tag_509\n        /* \"anonimity/0.1-ETH-Anonymity.sol\":22810:22823  shareOfReward */\n      0x79\n        /* \"anonimity/0.1-ETH-Anonymity.sol\":22824:22825  2 */\n      0x02\n        /* \"anonimity/0.1-ETH-Anonymity.sol\":22810:22826  shareOfReward[2] */\n      0x05\n      dup2\n      lt\n      tag_510\n      jumpi\n      invalid\n    tag_510:\n      add\n      sload\n        /* \"anonimity/0.1-ETH-Anonymity.sol\":22795:22805  newBalance */\n      dup6\n        /* \"anonimity/0.1-ETH-Anonymity.sol\":22795:22809  newBalance.mul */\n      tag_438\n      swap1\n        /* \"anonimity/0.1-ETH-Anonymity.sol\":22795:22827  newBalance.mul(shareOfReward[2]) */\n      swap2\n      swap1\n      0xffffffff\n      and\n      jump\t// in\n    tag_509:\n        /* \"anonimity/0.1-ETH-Anonymity.sol\":22795:22831  newBalance.mul(shareOfReward[2]).div */\n      tag_270\n      swap1\n        /* \"anonimity/0.1-ETH-Anonymity.sol\":22795:22836  newBalance.mul(shareOfReward[2]).div(100) */\n      swap2\n      swap1\n      0xffffffff\n      and\n      jump\t// in\n    tag_508:\n        /* \"anonimity/0.1-ETH-Anonymity.sol\":22773:22786  rewardAmounts */\n      0x82\n        /* \"anonimity/0.1-ETH-Anonymity.sol\":22787:22788  1 */\n      0x01\n        /* \"anonimity/0.1-ETH-Anonymity.sol\":22773:22789  rewardAmounts[1] */\n      0x04\n      dup2\n      lt\n      tag_512\n      jumpi\n      invalid\n    tag_512:\n      add\n      sload\n        /* \"anonimity/0.1-ETH-Anonymity.sol\":22773:22793  rewardAmounts[1].add */\n      tag_294\n      swap1\n        /* \"anonimity/0.1-ETH-Anonymity.sol\":22773:22838  rewardAmounts[1].add( newBalance.mul(shareOfReward[2]).div(100) ) */\n      swap2\n      swap1\n      0xffffffff\n      and\n      jump\t// in\n    tag_507:\n        /* \"anonimity/0.1-ETH-Anonymity.sol\":22754:22767  rewardAmounts */\n      0x82\n        /* \"anonimity/0.1-ETH-Anonymity.sol\":22768:22769  1 */\n      0x01\n        /* \"anonimity/0.1-ETH-Anonymity.sol\":22754:22770  rewardAmounts[1] */\n      0x04\n      dup2\n      lt\n      tag_514\n      jumpi\n      invalid\n    tag_514:\n      add\n        /* \"anonimity/0.1-ETH-Anonymity.sol\":22754:22838  rewardAmounts[1] = rewardAmounts[1].add( newBalance.mul(shareOfReward[2]).div(100) ) */\n      dup2\n      swap1\n      sstore\n      pop\n        /* \"anonimity/0.1-ETH-Anonymity.sol\":22658:22931  if( poolList[1] != address(0) && shareOfReward[2] > 0 && poolList[1] != address(this) ) {... */\n    tag_506:\n        /* \"anonimity/0.1-ETH-Anonymity.sol\":22964:22965  0 */\n      0x00\n        /* \"anonimity/0.1-ETH-Anonymity.sol\":22941:22966  poolList[2] != address(0) */\n      0xffffffffffffffffffffffffffffffffffffffff\n      and\n        /* \"anonimity/0.1-ETH-Anonymity.sol\":22941:22949  poolList */\n      0x7e\n        /* \"anonimity/0.1-ETH-Anonymity.sol\":22950:22951  2 */\n      0x02\n        /* \"anonimity/0.1-ETH-Anonymity.sol\":22941:22952  poolList[2] */\n      0x04\n      dup2\n      lt\n      tag_516\n      jumpi\n      invalid\n    tag_516:\n      add\n      0x00\n      swap1\n      sload\n      swap1\n      0x0100\n      exp\n      swap1\n      div\n      0xffffffffffffffffffffffffffffffffffffffff\n      and\n        /* \"anonimity/0.1-ETH-Anonymity.sol\":22941:22966  poolList[2] != address(0) */\n      0xffffffffffffffffffffffffffffffffffffffff\n      and\n      eq\n      iszero\n        /* \"anonimity/0.1-ETH-Anonymity.sol\":22941:22990  poolList[2] != address(0) && shareOfReward[3] > 0 */\n      dup1\n      iszero\n      tag_518\n      jumpi\n      pop\n        /* \"anonimity/0.1-ETH-Anonymity.sol\":22989:22990  0 */\n      0x00\n        /* \"anonimity/0.1-ETH-Anonymity.sol\":22970:22983  shareOfReward */\n      0x79\n        /* \"anonimity/0.1-ETH-Anonymity.sol\":22984:22985  3 */\n      0x03\n        /* \"anonimity/0.1-ETH-Anonymity.sol\":22970:22986  shareOfReward[3] */\n      0x05\n      dup2\n      lt\n      tag_519\n      jumpi\n      invalid\n    tag_519:\n      add\n      sload\n        /* \"anonimity/0.1-ETH-Anonymity.sol\":22970:22990  shareOfReward[3] > 0 */\n      gt\n        /* \"anonimity/0.1-ETH-Anonymity.sol\":22941:22990  poolList[2] != address(0) && shareOfReward[3] > 0 */\n    tag_518:\n        /* \"anonimity/0.1-ETH-Anonymity.sol\":22941:23022  poolList[2] != address(0) && shareOfReward[3] > 0 && poolList[2] != address(this) */\n      dup1\n      iszero\n      tag_521\n      jumpi\n      pop\n        /* \"anonimity/0.1-ETH-Anonymity.sol\":23017:23021  this */\n      address\n        /* \"anonimity/0.1-ETH-Anonymity.sol\":22994:23022  poolList[2] != address(this) */\n      0xffffffffffffffffffffffffffffffffffffffff\n      and\n        /* \"anonimity/0.1-ETH-Anonymity.sol\":22994:23002  poolList */\n      0x7e\n        /* \"anonimity/0.1-ETH-Anonymity.sol\":23003:23004  2 */\n      0x02\n        /* \"anonimity/0.1-ETH-Anonymity.sol\":22994:23005  poolList[2] */\n      0x04\n      dup2\n      lt\n      tag_522\n      jumpi\n      invalid\n    tag_522:\n      add\n      0x00\n      swap1\n      sload\n      swap1\n      0x0100\n      exp\n      swap1\n      div\n      0xffffffffffffffffffffffffffffffffffffffff\n      and\n        /* \"anonimity/0.1-ETH-Anonymity.sol\":22994:23022  poolList[2] != address(this) */\n      0xffffffffffffffffffffffffffffffffffffffff\n      and\n      eq\n      iszero\n        /* \"anonimity/0.1-ETH-Anonymity.sol\":22941:23022  poolList[2] != address(0) && shareOfReward[3] > 0 && poolList[2] != address(this) */\n    tag_521:\n        /* \"anonimity/0.1-ETH-Anonymity.sol\":22937:23210  if( poolList[2] != address(0) && shareOfReward[3] > 0 && poolList[2] != address(this) ) {... */\n      iszero\n      tag_524\n      jumpi\n        /* \"anonimity/0.1-ETH-Anonymity.sol\":23052:23117  rewardAmounts[2].add( newBalance.mul(shareOfReward[3]).div(100) ) */\n      tag_525\n        /* \"anonimity/0.1-ETH-Anonymity.sol\":23074:23115  newBalance.mul(shareOfReward[3]).div(100) */\n      tag_526\n        /* \"anonimity/0.1-ETH-Anonymity.sol\":23111:23114  100 */\n      0x64\n        /* \"anonimity/0.1-ETH-Anonymity.sol\":23074:23106  newBalance.mul(shareOfReward[3]) */\n      tag_527\n        /* \"anonimity/0.1-ETH-Anonymity.sol\":23089:23102  shareOfReward */\n      0x79\n        /* \"anonimity/0.1-ETH-Anonymity.sol\":23103:23104  3 */\n      0x03\n        /* \"anonimity/0.1-ETH-Anonymity.sol\":23089:23105  shareOfReward[3] */\n      0x05\n      dup2\n      lt\n      tag_528\n      jumpi\n      invalid\n    tag_528:\n      add\n      sload\n        /* \"anonimity/0.1-ETH-Anonymity.sol\":23074:23084  newBalance */\n      dup6\n        /* \"anonimity/0.1-ETH-Anonymity.sol\":23074:23088  newBalance.mul */\n      tag_438\n      swap1\n        /* \"anonimity/0.1-ETH-Anonymity.sol\":23074:23106  newBalance.mul(shareOfReward[3]) */\n      swap2\n      swap1\n      0xffffffff\n      and\n      jump\t// in\n    tag_527:\n        /* \"anonimity/0.1-ETH-Anonymity.sol\":23074:23110  newBalance.mul(shareOfReward[3]).div */\n      tag_270\n      swap1\n        /* \"anonimity/0.1-ETH-Anonymity.sol\":23074:23115  newBalance.mul(shareOfReward[3]).div(100) */\n      swap2\n      swap1\n      0xffffffff\n      and\n      jump\t// in\n    tag_526:\n        /* \"anonimity/0.1-ETH-Anonymity.sol\":23052:23065  rewardAmounts */\n      0x82\n        /* \"anonimity/0.1-ETH-Anonymity.sol\":23066:23067  2 */\n      0x02\n        /* \"anonimity/0.1-ETH-Anonymity.sol\":23052:23068  rewardAmounts[2] */\n      0x04\n      dup2\n      lt\n      tag_530\n      jumpi\n      invalid\n    tag_530:\n      add\n      sload\n        /* \"anonimity/0.1-ETH-Anonymity.sol\":23052:23072  rewardAmounts[2].add */\n      tag_294\n      swap1\n        /* \"anonimity/0.1-ETH-Anonymity.sol\":23052:23117  rewardAmounts[2].add( newBalance.mul(shareOfReward[3]).div(100) ) */\n      swap2\n      swap1\n      0xffffffff\n      and\n      jump\t// in\n    tag_525:\n        /* \"anonimity/0.1-ETH-Anonymity.sol\":23033:23046  rewardAmounts */\n      0x82\n        /* \"anonimity/0.1-ETH-Anonymity.sol\":23047:23048  2 */\n      0x02\n        /* \"anonimity/0.1-ETH-Anonymity.sol\":23033:23049  rewardAmounts[2] */\n      0x04\n      dup2\n      lt\n      tag_532\n      jumpi\n      invalid\n    tag_532:\n      add\n        /* \"anonimity/0.1-ETH-Anonymity.sol\":23033:23117  rewardAmounts[2] = rewardAmounts[2].add( newBalance.mul(shareOfReward[3]).div(100) ) */\n      dup2\n      swap1\n      sstore\n      pop\n        /* \"anonimity/0.1-ETH-Anonymity.sol\":22937:23210  if( poolList[2] != address(0) && shareOfReward[3] > 0 && poolList[2] != address(this) ) {... */\n    tag_524:\n        /* \"anonimity/0.1-ETH-Anonymity.sol\":23243:23244  0 */\n      0x00\n        /* \"anonimity/0.1-ETH-Anonymity.sol\":23220:23245  poolList[3] != address(0) */\n      0xffffffffffffffffffffffffffffffffffffffff\n      and\n        /* \"anonimity/0.1-ETH-Anonymity.sol\":23220:23228  poolList */\n      0x7e\n        /* \"anonimity/0.1-ETH-Anonymity.sol\":23229:23230  3 */\n      0x03\n        /* \"anonimity/0.1-ETH-Anonymity.sol\":23220:23231  poolList[3] */\n      0x04\n      dup2\n      lt\n      tag_534\n      jumpi\n      invalid\n    tag_534:\n      add\n      0x00\n      swap1\n      sload\n      swap1\n      0x0100\n      exp\n      swap1\n      div\n      0xffffffffffffffffffffffffffffffffffffffff\n      and\n        /* \"anonimity/0.1-ETH-Anonymity.sol\":23220:23245  poolList[3] != address(0) */\n      0xffffffffffffffffffffffffffffffffffffffff\n      and\n      eq\n      iszero\n        /* \"anonimity/0.1-ETH-Anonymity.sol\":23220:23269  poolList[3] != address(0) && shareOfReward[4] > 0 */\n      dup1\n      iszero\n      tag_536\n      jumpi\n      pop\n        /* \"anonimity/0.1-ETH-Anonymity.sol\":23268:23269  0 */\n      0x00\n        /* \"anonimity/0.1-ETH-Anonymity.sol\":23249:23262  shareOfReward */\n      0x79\n        /* \"anonimity/0.1-ETH-Anonymity.sol\":23263:23264  4 */\n      0x04\n        /* \"anonimity/0.1-ETH-Anonymity.sol\":23249:23265  shareOfReward[4] */\n      0x05\n      dup2\n      lt\n      tag_537\n      jumpi\n      invalid\n    tag_537:\n      add\n      sload\n        /* \"anonimity/0.1-ETH-Anonymity.sol\":23249:23269  shareOfReward[4] > 0 */\n      gt\n        /* \"anonimity/0.1-ETH-Anonymity.sol\":23220:23269  poolList[3] != address(0) && shareOfReward[4] > 0 */\n    tag_536:\n        /* \"anonimity/0.1-ETH-Anonymity.sol\":23220:23301  poolList[3] != address(0) && shareOfReward[4] > 0 && poolList[3] != address(this) */\n      dup1\n      iszero\n      tag_539\n      jumpi\n      pop\n        /* \"anonimity/0.1-ETH-Anonymity.sol\":23296:23300  this */\n      address\n        /* \"anonimity/0.1-ETH-Anonymity.sol\":23273:23301  poolList[3] != address(this) */\n      0xffffffffffffffffffffffffffffffffffffffff\n      and\n        /* \"anonimity/0.1-ETH-Anonymity.sol\":23273:23281  poolList */\n      0x7e\n        /* \"anonimity/0.1-ETH-Anonymity.sol\":23282:23283  3 */\n      0x03\n        /* \"anonimity/0.1-ETH-Anonymity.sol\":23273:23284  poolList[3] */\n      0x04\n      dup2\n      lt\n      tag_540\n      jumpi\n      invalid\n    tag_540:\n      add\n      0x00\n      swap1\n      sload\n      swap1\n      0x0100\n      exp\n      swap1\n      div\n      0xffffffffffffffffffffffffffffffffffffffff\n      and\n        /* \"anonimity/0.1-ETH-Anonymity.sol\":23273:23301  poolList[3] != address(this) */\n      0xffffffffffffffffffffffffffffffffffffffff\n      and\n      eq\n      iszero\n        /* \"anonimity/0.1-ETH-Anonymity.sol\":23220:23301  poolList[3] != address(0) && shareOfReward[4] > 0 && poolList[3] != address(this) */\n    tag_539:\n        /* \"anonimity/0.1-ETH-Anonymity.sol\":23216:23489  if( poolList[3] != address(0) && shareOfReward[4] > 0 && poolList[3] != address(this) ) {... */\n      iszero\n      tag_542\n      jumpi\n        /* \"anonimity/0.1-ETH-Anonymity.sol\":23331:23396  rewardAmounts[3].add( newBalance.mul(shareOfReward[4]).div(100) ) */\n      tag_543\n        /* \"anonimity/0.1-ETH-Anonymity.sol\":23353:23394  newBalance.mul(shareOfReward[4]).div(100) */\n      tag_544\n        /* \"anonimity/0.1-ETH-Anonymity.sol\":23390:23393  100 */\n      0x64\n        /* \"anonimity/0.1-ETH-Anonymity.sol\":23353:23385  newBalance.mul(shareOfReward[4]) */\n      tag_545\n        /* \"anonimity/0.1-ETH-Anonymity.sol\":23368:23381  shareOfReward */\n      0x79\n        /* \"anonimity/0.1-ETH-Anonymity.sol\":23382:23383  4 */\n      0x04\n        /* \"anonimity/0.1-ETH-Anonymity.sol\":23368:23384  shareOfReward[4] */\n      0x05\n      dup2\n      lt\n      tag_546\n      jumpi\n      invalid\n    tag_546:\n      add\n      sload\n        /* \"anonimity/0.1-ETH-Anonymity.sol\":23353:23363  newBalance */\n      dup6\n        /* \"anonimity/0.1-ETH-Anonymity.sol\":23353:23367  newBalance.mul */\n      tag_438\n      swap1\n        /* \"anonimity/0.1-ETH-Anonymity.sol\":23353:23385  newBalance.mul(shareOfReward[4]) */\n      swap2\n      swap1\n      0xffffffff\n      and\n      jump\t// in\n    tag_545:\n        /* \"anonimity/0.1-ETH-Anonymity.sol\":23353:23389  newBalance.mul(shareOfReward[4]).div */\n      tag_270\n      swap1\n        /* \"anonimity/0.1-ETH-Anonymity.sol\":23353:23394  newBalance.mul(shareOfReward[4]).div(100) */\n      swap2\n      swap1\n      0xffffffff\n      and\n      jump\t// in\n    tag_544:\n        /* \"anonimity/0.1-ETH-Anonymity.sol\":23331:23344  rewardAmounts */\n      0x82\n        /* \"anonimity/0.1-ETH-Anonymity.sol\":23345:23346  3 */\n      0x03\n        /* \"anonimity/0.1-ETH-Anonymity.sol\":23331:23347  rewardAmounts[3] */\n      0x04\n      dup2\n      lt\n      tag_548\n      jumpi\n      invalid\n    tag_548:\n      add\n      sload\n        /* \"anonimity/0.1-ETH-Anonymity.sol\":23331:23351  rewardAmounts[3].add */\n      tag_294\n      swap1\n        /* \"anonimity/0.1-ETH-Anonymity.sol\":23331:23396  rewardAmounts[3].add( newBalance.mul(shareOfReward[4]).div(100) ) */\n      swap2\n      swap1\n      0xffffffff\n      and\n      jump\t// in\n    tag_543:\n        /* \"anonimity/0.1-ETH-Anonymity.sol\":23312:23325  rewardAmounts */\n      0x82\n        /* \"anonimity/0.1-ETH-Anonymity.sol\":23326:23327  3 */\n      0x03\n        /* \"anonimity/0.1-ETH-Anonymity.sol\":23312:23328  rewardAmounts[3] */\n      0x04\n      dup2\n      lt\n      tag_550\n      jumpi\n      invalid\n    tag_550:\n      add\n        /* \"anonimity/0.1-ETH-Anonymity.sol\":23312:23396  rewardAmounts[3] = rewardAmounts[3].add( newBalance.mul(shareOfReward[4]).div(100) ) */\n      dup2\n      swap1\n      sstore\n      pop\n        /* \"anonimity/0.1-ETH-Anonymity.sol\":23216:23489  if( poolList[3] != address(0) && shareOfReward[4] > 0 && poolList[3] != address(this) ) {... */\n    tag_542:\n        /* \"anonimity/0.1-ETH-Anonymity.sol\":21555:23493  function swapAndShare() private {... */\n      pop\n      pop\n      pop\n      jump\t// out\n        /* \"anonimity/0.1-ETH-Anonymity.sol\":9737:10539  function _insert(bytes32 _leaf) internal returns(uint32 index) {... */\n    tag_370:\n        /* \"anonimity/0.1-ETH-Anonymity.sol\":9786:9798  uint32 index */\n      0x00\n        /* \"anonimity/0.1-ETH-Anonymity.sol\":9806:9825  uint32 currentIndex */\n      dup1\n        /* \"anonimity/0.1-ETH-Anonymity.sol\":9828:9837  nextIndex */\n      0x03\n      0x04\n      swap1\n      sload\n      swap1\n      0x0100\n      exp\n      swap1\n      div\n      0xffffffff\n      and\n        /* \"anonimity/0.1-ETH-Anonymity.sol\":9806:9837  uint32 currentIndex = nextIndex */\n      swap1\n      pop\n        /* \"anonimity/0.1-ETH-Anonymity.sol\":9878:9884  levels */\n      0x00\n      dup1\n      swap1\n      sload\n      swap1\n      0x0100\n      exp\n      swap1\n      div\n      0xffffffff\n      and\n        /* \"anonimity/0.1-ETH-Anonymity.sol\":9867:9884  uint32(2)**levels */\n      0xffffffff\n      and\n        /* \"anonimity/0.1-ETH-Anonymity.sol\":9874:9875  2 */\n      0x02\n        /* \"anonimity/0.1-ETH-Anonymity.sol\":9867:9884  uint32(2)**levels */\n      0xffffffff\n      and\n      exp\n        /* \"anonimity/0.1-ETH-Anonymity.sol\":9851:9884  currentIndex != uint32(2)**levels */\n      0xffffffff\n      and\n        /* \"anonimity/0.1-ETH-Anonymity.sol\":9851:9863  currentIndex */\n      dup2\n        /* \"anonimity/0.1-ETH-Anonymity.sol\":9851:9884  currentIndex != uint32(2)**levels */\n      0xffffffff\n      and\n      eq\n      iszero\n        /* \"anonimity/0.1-ETH-Anonymity.sol\":9843:9936  require(currentIndex != uint32(2)**levels, \"Merkle tree is full. No more leafs can be added\") */\n      tag_553\n      jumpi\n      mload(0x40)\n      0x08c379a000000000000000000000000000000000000000000000000000000000\n      dup2\n      mstore\n      0x04\n      add\n      dup1\n      dup1\n      0x20\n      add\n      dup3\n      dup2\n      sub\n      dup3\n      mstore\n      0x2f\n      dup2\n      mstore\n      0x20\n      add\n      dup1\n      data_1e762b0ffd82a14d53d4a3d5addc53879bd99e19a39147aacdc9448aa2cb9be3\n      0x2f\n      swap2\n      codecopy\n      0x40\n      add\n      swap2\n      pop\n      pop\n      mload(0x40)\n      dup1\n      swap2\n      sub\n      swap1\n      revert\n    tag_553:\n        /* \"anonimity/0.1-ETH-Anonymity.sol\":9955:9956  1 */\n      0x01\n        /* \"anonimity/0.1-ETH-Anonymity.sol\":9942:9951  nextIndex */\n      0x03\n      0x04\n        /* \"anonimity/0.1-ETH-Anonymity.sol\":9942:9956  nextIndex += 1 */\n      dup3\n      dup3\n      dup3\n      swap1\n      sload\n      swap1\n      0x0100\n      exp\n      swap1\n      div\n      0xffffffff\n      and\n      add\n      swap3\n      pop\n      0x0100\n      exp\n      dup2\n      sload\n      dup2\n      0xffffffff\n      mul\n      not\n      and\n      swap1\n      dup4\n      0xffffffff\n      and\n      mul\n      or\n      swap1\n      sstore\n      pop\n        /* \"anonimity/0.1-ETH-Anonymity.sol\":9962:9986  bytes32 currentLevelHash */\n      0x00\n        /* \"anonimity/0.1-ETH-Anonymity.sol\":9989:9994  _leaf */\n      dup4\n        /* \"anonimity/0.1-ETH-Anonymity.sol\":9962:9994  bytes32 currentLevelHash = _leaf */\n      swap1\n      pop\n        /* \"anonimity/0.1-ETH-Anonymity.sol\":10000:10012  bytes32 left */\n      0x00\n        /* \"anonimity/0.1-ETH-Anonymity.sol\":10018:10031  bytes32 right */\n      dup1\n        /* \"anonimity/0.1-ETH-Anonymity.sol\":10043:10051  uint32 i */\n      0x00\n        /* \"anonimity/0.1-ETH-Anonymity.sol\":10054:10055  0 */\n      dup1\n        /* \"anonimity/0.1-ETH-Anonymity.sol\":10043:10055  uint32 i = 0 */\n      swap1\n      pop\n        /* \"anonimity/0.1-ETH-Anonymity.sol\":10038:10393  for (uint32 i = 0; i < levels; i++) {... */\n    tag_554:\n        /* \"anonimity/0.1-ETH-Anonymity.sol\":10061:10067  levels */\n      0x00\n      dup1\n      swap1\n      sload\n      swap1\n      0x0100\n      exp\n      swap1\n      div\n      0xffffffff\n      and\n        /* \"anonimity/0.1-ETH-Anonymity.sol\":10057:10067  i < levels */\n      0xffffffff\n      and\n        /* \"anonimity/0.1-ETH-Anonymity.sol\":10057:10058  i */\n      dup2\n        /* \"anonimity/0.1-ETH-Anonymity.sol\":10057:10067  i < levels */\n      0xffffffff\n      and\n      lt\n        /* \"anonimity/0.1-ETH-Anonymity.sol\":10038:10393  for (uint32 i = 0; i < levels; i++) {... */\n      iszero\n      tag_555\n      jumpi\n        /* \"anonimity/0.1-ETH-Anonymity.sol\":10106:10107  0 */\n      0x00\n        /* \"anonimity/0.1-ETH-Anonymity.sol\":10101:10102  2 */\n      0x02\n        /* \"anonimity/0.1-ETH-Anonymity.sol\":10086:10098  currentIndex */\n      dup7\n        /* \"anonimity/0.1-ETH-Anonymity.sol\":10086:10102  currentIndex % 2 */\n      0xffffffff\n      and\n      dup2\n      tag_557\n      jumpi\n      invalid\n    tag_557:\n      mod\n        /* \"anonimity/0.1-ETH-Anonymity.sol\":10086:10107  currentIndex % 2 == 0 */\n      0xffffffff\n      and\n      eq\n        /* \"anonimity/0.1-ETH-Anonymity.sol\":10082:10307  if (currentIndex % 2 == 0) {... */\n      iszero\n      tag_558\n      jumpi\n        /* \"anonimity/0.1-ETH-Anonymity.sol\":10126:10142  currentLevelHash */\n      dup4\n        /* \"anonimity/0.1-ETH-Anonymity.sol\":10119:10142  left = currentLevelHash */\n      swap3\n      pop\n        /* \"anonimity/0.1-ETH-Anonymity.sol\":10160:10165  zeros */\n      0x02\n        /* \"anonimity/0.1-ETH-Anonymity.sol\":10166:10167  i */\n      dup2\n        /* \"anonimity/0.1-ETH-Anonymity.sol\":10160:10168  zeros[i] */\n      0xffffffff\n      and\n      dup2\n      sload\n      dup2\n      lt\n      tag_559\n      jumpi\n      invalid\n    tag_559:\n      swap1\n      0x00\n      mstore\n      keccak256(0x00, 0x20)\n      add\n      sload\n        /* \"anonimity/0.1-ETH-Anonymity.sol\":10152:10168  right = zeros[i] */\n      swap2\n      pop\n        /* \"anonimity/0.1-ETH-Anonymity.sol\":10199:10215  currentLevelHash */\n      dup4\n        /* \"anonimity/0.1-ETH-Anonymity.sol\":10179:10193  filledSubtrees */\n      0x01\n        /* \"anonimity/0.1-ETH-Anonymity.sol\":10194:10195  i */\n      dup3\n        /* \"anonimity/0.1-ETH-Anonymity.sol\":10179:10196  filledSubtrees[i] */\n      0xffffffff\n      and\n      dup2\n      sload\n      dup2\n      lt\n      tag_561\n      jumpi\n      invalid\n    tag_561:\n      swap1\n      0x00\n      mstore\n      keccak256(0x00, 0x20)\n      add\n        /* \"anonimity/0.1-ETH-Anonymity.sol\":10179:10215  filledSubtrees[i] = currentLevelHash */\n      dup2\n      swap1\n      sstore\n      pop\n        /* \"anonimity/0.1-ETH-Anonymity.sol\":10082:10307  if (currentIndex % 2 == 0) {... */\n      jump(tag_563)\n    tag_558:\n        /* \"anonimity/0.1-ETH-Anonymity.sol\":10247:10261  filledSubtrees */\n      0x01\n        /* \"anonimity/0.1-ETH-Anonymity.sol\":10262:10263  i */\n      dup2\n        /* \"anonimity/0.1-ETH-Anonymity.sol\":10247:10264  filledSubtrees[i] */\n      0xffffffff\n      and\n      dup2\n      sload\n      dup2\n      lt\n      tag_564\n      jumpi\n      invalid\n    tag_564:\n      swap1\n      0x00\n      mstore\n      keccak256(0x00, 0x20)\n      add\n      sload\n        /* \"anonimity/0.1-ETH-Anonymity.sol\":10240:10264  left = filledSubtrees[i] */\n      swap3\n      pop\n        /* \"anonimity/0.1-ETH-Anonymity.sol\":10282:10298  currentLevelHash */\n      dup4\n        /* \"anonimity/0.1-ETH-Anonymity.sol\":10274:10298  right = currentLevelHash */\n      swap2\n      pop\n        /* \"anonimity/0.1-ETH-Anonymity.sol\":10082:10307  if (currentIndex % 2 == 0) {... */\n    tag_563:\n        /* \"anonimity/0.1-ETH-Anonymity.sol\":10334:10360  hashLeftRight(left, right) */\n      tag_566\n        /* \"anonimity/0.1-ETH-Anonymity.sol\":10348:10352  left */\n      dup4\n        /* \"anonimity/0.1-ETH-Anonymity.sol\":10354:10359  right */\n      dup4\n        /* \"anonimity/0.1-ETH-Anonymity.sol\":10334:10347  hashLeftRight */\n      tag_103\n        /* \"anonimity/0.1-ETH-Anonymity.sol\":10334:10360  hashLeftRight(left, right) */\n      jump\t// in\n    tag_566:\n        /* \"anonimity/0.1-ETH-Anonymity.sol\":10315:10360  currentLevelHash = hashLeftRight(left, right) */\n      swap4\n      pop\n        /* \"anonimity/0.1-ETH-Anonymity.sol\":10385:10386  2 */\n      0x02\n        /* \"anonimity/0.1-ETH-Anonymity.sol\":10369:10386  currentIndex /= 2 */\n      dup6\n      0xffffffff\n      and\n      dup2\n      tag_567\n      jumpi\n      invalid\n    tag_567:\n      div\n      swap5\n      pop\n        /* \"anonimity/0.1-ETH-Anonymity.sol\":10069:10072  i++ */\n      dup1\n      dup1\n      0x01\n      add\n      swap2\n      pop\n      pop\n        /* \"anonimity/0.1-ETH-Anonymity.sol\":10038:10393  for (uint32 i = 0; i < levels; i++) {... */\n      jump(tag_554)\n    tag_555:\n      pop\n        /* \"anonimity/0.1-ETH-Anonymity.sol\":8769:8772  100 */\n      0x64\n        /* \"anonimity/0.1-ETH-Anonymity.sol\":10418:10460  (currentRootIndex + 1) % ROOT_HISTORY_SIZE */\n      0xffffffff\n      and\n        /* \"anonimity/0.1-ETH-Anonymity.sol\":10438:10439  1 */\n      0x01\n        /* \"anonimity/0.1-ETH-Anonymity.sol\":10419:10435  currentRootIndex */\n      0x03\n      0x00\n      swap1\n      sload\n      swap1\n      0x0100\n      exp\n      swap1\n      div\n      0xffffffff\n      and\n        /* \"anonimity/0.1-ETH-Anonymity.sol\":10419:10439  currentRootIndex + 1 */\n      add\n        /* \"anonimity/0.1-ETH-Anonymity.sol\":10418:10460  (currentRootIndex + 1) % ROOT_HISTORY_SIZE */\n      0xffffffff\n      and\n      dup2\n      tag_568\n      jumpi\n      invalid\n    tag_568:\n      mod\n        /* \"anonimity/0.1-ETH-Anonymity.sol\":10399:10415  currentRootIndex */\n      0x03\n      0x00\n        /* \"anonimity/0.1-ETH-Anonymity.sol\":10399:10460  currentRootIndex = (currentRootIndex + 1) % ROOT_HISTORY_SIZE */\n      0x0100\n      exp\n      dup2\n      sload\n      dup2\n      0xffffffff\n      mul\n      not\n      and\n      swap1\n      dup4\n      0xffffffff\n      and\n      mul\n      or\n      swap1\n      sstore\n      pop\n        /* \"anonimity/0.1-ETH-Anonymity.sol\":10492:10508  currentLevelHash */\n      dup3\n        /* \"anonimity/0.1-ETH-Anonymity.sol\":10466:10471  roots */\n      0x04\n        /* \"anonimity/0.1-ETH-Anonymity.sol\":10472:10488  currentRootIndex */\n      0x03\n      0x00\n      swap1\n      sload\n      swap1\n      0x0100\n      exp\n      swap1\n      div\n      0xffffffff\n      and\n        /* \"anonimity/0.1-ETH-Anonymity.sol\":10466:10489  roots[currentRootIndex] */\n      0xffffffff\n      and\n      0x64\n      dup2\n      lt\n      tag_569\n      jumpi\n      invalid\n    tag_569:\n      add\n        /* \"anonimity/0.1-ETH-Anonymity.sol\":10466:10508  roots[currentRootIndex] = currentLevelHash */\n      dup2\n      swap1\n      sstore\n      pop\n        /* \"anonimity/0.1-ETH-Anonymity.sol\":10533:10534  1 */\n      0x01\n        /* \"anonimity/0.1-ETH-Anonymity.sol\":10521:10530  nextIndex */\n      0x03\n      0x04\n      swap1\n      sload\n      swap1\n      0x0100\n      exp\n      swap1\n      div\n      0xffffffff\n      and\n        /* \"anonimity/0.1-ETH-Anonymity.sol\":10521:10534  nextIndex - 1 */\n      sub\n        /* \"anonimity/0.1-ETH-Anonymity.sol\":10514:10534  return nextIndex - 1 */\n      swap5\n      pop\n      pop\n      pop\n      pop\n      pop\n        /* \"anonimity/0.1-ETH-Anonymity.sol\":9737:10539  function _insert(bytes32 _leaf) internal returns(uint32 index) {... */\n      swap2\n      swap1\n      pop\n      jump\t// out\n        /* \"anonimity/0.1-ETH-Anonymity.sol\":4860:5034  function safeTransfer(IERC20 token, address to, uint256 value) internal {... */\n    tag_411:\n        /* \"anonimity/0.1-ETH-Anonymity.sol\":4942:5027  callOptionalReturn(token, abi.encodeWithSelector(token.transfer.selector, to, value)) */\n      tag_572\n        /* \"anonimity/0.1-ETH-Anonymity.sol\":4961:4966  token */\n      dup4\n        /* \"anonimity/0.1-ETH-Anonymity.sol\":4991:4996  token */\n      dup5\n        /* \"anonimity/0.1-ETH-Anonymity.sol\":4991:5005  token.transfer */\n      0xffffffffffffffffffffffffffffffffffffffff\n      and\n      0xa9059cbb\n        /* \"anonimity/0.1-ETH-Anonymity.sol\":4991:5014  token.transfer.selector */\n      swap1\n      pop\n      0xe0\n      shl\n        /* \"anonimity/0.1-ETH-Anonymity.sol\":5016:5018  to */\n      dup5\n        /* \"anonimity/0.1-ETH-Anonymity.sol\":5020:5025  value */\n      dup5\n        /* \"anonimity/0.1-ETH-Anonymity.sol\":4968:5026  abi.encodeWithSelector(token.transfer.selector, to, value) */\n      add(0x24, mload(0x40))\n      dup1\n      dup4\n      0xffffffffffffffffffffffffffffffffffffffff\n      and\n      0xffffffffffffffffffffffffffffffffffffffff\n      and\n      dup2\n      mstore\n      0x20\n      add\n      dup3\n      dup2\n      mstore\n      0x20\n      add\n      swap3\n      pop\n      pop\n      pop\n      mload(0x40)\n        /* \"--CODEGEN--\":49:53   */\n      0x20\n        /* \"--CODEGEN--\":39:46   */\n      dup2\n        /* \"--CODEGEN--\":30:37   */\n      dup4\n        /* \"--CODEGEN--\":26:47   */\n      sub\n        /* \"--CODEGEN--\":22:54   */\n      sub\n        /* \"--CODEGEN--\":13:20   */\n      dup2\n        /* \"--CODEGEN--\":6:55   */\n      mstore\n        /* \"anonimity/0.1-ETH-Anonymity.sol\":4968:5026  abi.encodeWithSelector(token.transfer.selector, to, value) */\n      swap1\n      0x40\n      mstore\n      swap1\n      not(0xffffffffffffffffffffffffffffffffffffffffffffffffffffffff)\n      and\n        /* \"--CODEGEN--\":38:42   */\n      0x20\n        /* \"--CODEGEN--\":29:36   */\n      dup3\n        /* \"--CODEGEN--\":25:43   */\n      add\n        /* \"--CODEGEN--\":67:77   */\n      dup1\n        /* \"--CODEGEN--\":61:78   */\n      mload\n        /* \"--CODEGEN--\":96:154   */\n      0xffffffffffffffffffffffffffffffffffffffffffffffffffffffff\n        /* \"--CODEGEN--\":199:207   */\n      dup4\n        /* \"--CODEGEN--\":192:196   */\n      dup2\n        /* \"--CODEGEN--\":186:190   */\n      dup4\n        /* \"--CODEGEN--\":182:197   */\n      and\n        /* \"--CODEGEN--\":179:208   */\n      or\n        /* \"--CODEGEN--\":167:177   */\n      dup4\n        /* \"--CODEGEN--\":160:209   */\n      mstore\n        /* \"--CODEGEN--\":0:215   */\n      pop\n      pop\n      pop\n        /* \"anonimity/0.1-ETH-Anonymity.sol\":4968:5026  abi.encodeWithSelector(token.transfer.selector, to, value) */\n      pop\n        /* \"anonimity/0.1-ETH-Anonymity.sol\":4942:4960  callOptionalReturn */\n      tag_573\n        /* \"anonimity/0.1-ETH-Anonymity.sol\":4942:5027  callOptionalReturn(token, abi.encodeWithSelector(token.transfer.selector, to, value)) */\n      jump\t// in\n    tag_572:\n        /* \"anonimity/0.1-ETH-Anonymity.sol\":4860:5034  function safeTransfer(IERC20 token, address to, uint256 value) internal {... */\n      pop\n      pop\n      pop\n      jump\t// out\n        /* \"anonimity/0.1-ETH-Anonymity.sol\":1649:1759  function sub(uint256 a, uint256 b) internal pure returns (uint256) {... */\n    tag_437:\n        /* \"anonimity/0.1-ETH-Anonymity.sol\":1707:1714  uint256 */\n      0x00\n        /* \"anonimity/0.1-ETH-Anonymity.sol\":1734:1735  a */\n      dup3\n        /* \"anonimity/0.1-ETH-Anonymity.sol\":1729:1730  b */\n      dup3\n        /* \"anonimity/0.1-ETH-Anonymity.sol\":1729:1735  b <= a */\n      gt\n      iszero\n        /* \"anonimity/0.1-ETH-Anonymity.sol\":1722:1736  assert(b <= a) */\n      tag_575\n      jumpi\n      invalid\n    tag_575:\n        /* \"anonimity/0.1-ETH-Anonymity.sol\":1753:1754  b */\n      dup2\n        /* \"anonimity/0.1-ETH-Anonymity.sol\":1749:1750  a */\n      dup4\n        /* \"anonimity/0.1-ETH-Anonymity.sol\":1749:1754  a - b */\n      sub\n        /* \"anonimity/0.1-ETH-Anonymity.sol\":1742:1754  return a - b */\n      swap1\n      pop\n        /* \"anonimity/0.1-ETH-Anonymity.sol\":1649:1759  function sub(uint256 a, uint256 b) internal pure returns (uint256) {... */\n      swap3\n      swap2\n      pop\n      pop\n      jump\t// out\n        /* \"anonimity/0.1-ETH-Anonymity.sol\":528:695  function mul(uint256 a, uint256 b) internal pure returns (uint256 c) {... */\n    tag_438:\n        /* \"anonimity/0.1-ETH-Anonymity.sol\":586:595  uint256 c */\n      0x00\n        /* \"anonimity/0.1-ETH-Anonymity.sol\":612:613  0 */\n      dup1\n        /* \"anonimity/0.1-ETH-Anonymity.sol\":607:608  a */\n      dup4\n        /* \"anonimity/0.1-ETH-Anonymity.sol\":607:613  a == 0 */\n      eq\n        /* \"anonimity/0.1-ETH-Anonymity.sol\":603:638  if (a == 0) {... */\n      iszero\n      tag_577\n      jumpi\n        /* \"anonimity/0.1-ETH-Anonymity.sol\":630:631  0 */\n      0x00\n        /* \"anonimity/0.1-ETH-Anonymity.sol\":623:631  return 0 */\n      swap1\n      pop\n      jump(tag_576)\n        /* \"anonimity/0.1-ETH-Anonymity.sol\":603:638  if (a == 0) {... */\n    tag_577:\n        /* \"anonimity/0.1-ETH-Anonymity.sol\":651:652  b */\n      dup2\n        /* \"anonimity/0.1-ETH-Anonymity.sol\":647:648  a */\n      dup4\n        /* \"anonimity/0.1-ETH-Anonymity.sol\":647:652  a * b */\n      mul\n        /* \"anonimity/0.1-ETH-Anonymity.sol\":643:652  c = a * b */\n      swap1\n      pop\n        /* \"anonimity/0.1-ETH-Anonymity.sol\":674:675  b */\n      dup2\n        /* \"anonimity/0.1-ETH-Anonymity.sol\":669:670  a */\n      dup4\n        /* \"anonimity/0.1-ETH-Anonymity.sol\":665:666  c */\n      dup3\n        /* \"anonimity/0.1-ETH-Anonymity.sol\":665:670  c / a */\n      dup2\n      tag_578\n      jumpi\n      invalid\n    tag_578:\n      div\n        /* \"anonimity/0.1-ETH-Anonymity.sol\":665:675  c / a == b */\n      eq\n        /* \"anonimity/0.1-ETH-Anonymity.sol\":658:676  assert(c / a == b) */\n      tag_579\n      jumpi\n      invalid\n    tag_579:\n        /* \"anonimity/0.1-ETH-Anonymity.sol\":689:690  c */\n      dup1\n        /* \"anonimity/0.1-ETH-Anonymity.sol\":682:690  return c */\n      swap1\n      pop\n        /* \"anonimity/0.1-ETH-Anonymity.sol\":528:695  function mul(uint256 a, uint256 b) internal pure returns (uint256 c) {... */\n    tag_576:\n      swap3\n      swap2\n      pop\n      pop\n      jump\t// out\n        /* \"anonimity/0.1-ETH-Anonymity.sol\":6819:7914  function callOptionalReturn(IERC20 token, bytes memory data) private {... */\n    tag_573:\n        /* \"anonimity/0.1-ETH-Anonymity.sol\":7414:7441  address(token).isContract() */\n      tag_581\n        /* \"anonimity/0.1-ETH-Anonymity.sol\":7422:7427  token */\n      dup3\n        /* \"anonimity/0.1-ETH-Anonymity.sol\":7414:7439  address(token).isContract */\n      0xffffffffffffffffffffffffffffffffffffffff\n      and\n      tag_251\n        /* \"anonimity/0.1-ETH-Anonymity.sol\":7414:7441  address(token).isContract() */\n      jump\t// in\n    tag_581:\n        /* \"anonimity/0.1-ETH-Anonymity.sol\":7406:7477  require(address(token).isContract(), \"SafeERC20: call to non-contract\") */\n      tag_582\n      jumpi\n      mload(0x40)\n      0x08c379a000000000000000000000000000000000000000000000000000000000\n      dup2\n      mstore\n      0x04\n      add\n      dup1\n      dup1\n      0x20\n      add\n      dup3\n      dup2\n      sub\n      dup3\n      mstore\n      0x1f\n      dup2\n      mstore\n      0x20\n      add\n      dup1\n      0x5361666545524332303a2063616c6c20746f206e6f6e2d636f6e747261637400\n      dup2\n      mstore\n      pop\n      0x20\n      add\n      swap2\n      pop\n      pop\n      mload(0x40)\n      dup1\n      swap2\n      sub\n      swap1\n      revert\n    tag_582:\n        /* \"anonimity/0.1-ETH-Anonymity.sol\":7548:7560  bool success */\n      0x00\n        /* \"anonimity/0.1-ETH-Anonymity.sol\":7562:7585  bytes memory returndata */\n      0x60\n        /* \"anonimity/0.1-ETH-Anonymity.sol\":7597:7602  token */\n      dup4\n        /* \"anonimity/0.1-ETH-Anonymity.sol\":7589:7608  address(token).call */\n      0xffffffffffffffffffffffffffffffffffffffff\n      and\n        /* \"anonimity/0.1-ETH-Anonymity.sol\":7609:7613  data */\n      dup4\n        /* \"anonimity/0.1-ETH-Anonymity.sol\":7589:7614  address(token).call(data) */\n      mload(0x40)\n      dup1\n      dup3\n      dup1\n      mload\n      swap1\n      0x20\n      add\n      swap1\n      dup1\n      dup4\n      dup4\n        /* \"--CODEGEN--\":36:189   */\n    tag_583:\n        /* \"--CODEGEN--\":66:68   */\n      0x20\n        /* \"--CODEGEN--\":61:64   */\n      dup4\n        /* \"--CODEGEN--\":58:69   */\n      lt\n        /* \"--CODEGEN--\":36:189   */\n      tag_585\n      jumpi\n        /* \"--CODEGEN--\":182:185   */\n      dup1\n        /* \"--CODEGEN--\":176:186   */\n      mload\n        /* \"--CODEGEN--\":171:174   */\n      dup3\n        /* \"--CODEGEN--\":164:187   */\n      mstore\n        /* \"--CODEGEN--\":98:100   */\n      0x20\n        /* \"--CODEGEN--\":93:96   */\n      dup3\n        /* \"--CODEGEN--\":89:101   */\n      add\n        /* \"--CODEGEN--\":82:101   */\n      swap2\n      pop\n        /* \"--CODEGEN--\":123:125   */\n      0x20\n        /* \"--CODEGEN--\":118:121   */\n      dup2\n        /* \"--CODEGEN--\":114:126   */\n      add\n        /* \"--CODEGEN--\":107:126   */\n      swap1\n      pop\n        /* \"--CODEGEN--\":148:150   */\n      0x20\n        /* \"--CODEGEN--\":143:146   */\n      dup4\n        /* \"--CODEGEN--\":139:151   */\n      sub\n        /* \"--CODEGEN--\":132:151   */\n      swap3\n      pop\n        /* \"--CODEGEN--\":36:189   */\n      jump(tag_583)\n    tag_585:\n        /* \"--CODEGEN--\":274:275   */\n      0x01\n        /* \"--CODEGEN--\":267:270   */\n      dup4\n        /* \"--CODEGEN--\":263:265   */\n      0x20\n        /* \"--CODEGEN--\":259:271   */\n      sub\n        /* \"--CODEGEN--\":254:257   */\n      0x0100\n        /* \"--CODEGEN--\":250:272   */\n      exp\n        /* \"--CODEGEN--\":246:276   */\n      sub\n        /* \"--CODEGEN--\":315:319   */\n      dup1\n        /* \"--CODEGEN--\":311:320   */\n      not\n        /* \"--CODEGEN--\":305:308   */\n      dup3\n        /* \"--CODEGEN--\":299:309   */\n      mload\n        /* \"--CODEGEN--\":295:321   */\n      and\n        /* \"--CODEGEN--\":356:360   */\n      dup2\n        /* \"--CODEGEN--\":350:353   */\n      dup5\n        /* \"--CODEGEN--\":344:354   */\n      mload\n        /* \"--CODEGEN--\":340:361   */\n      and\n        /* \"--CODEGEN--\":389:396   */\n      dup1\n        /* \"--CODEGEN--\":380:387   */\n      dup3\n        /* \"--CODEGEN--\":377:397   */\n      or\n        /* \"--CODEGEN--\":372:375   */\n      dup6\n        /* \"--CODEGEN--\":365:398   */\n      mstore\n        /* \"--CODEGEN--\":3:402   */\n      pop\n      pop\n      pop\n        /* \"anonimity/0.1-ETH-Anonymity.sol\":7589:7614  address(token).call(data) */\n      pop\n      pop\n      pop\n      swap1\n      pop\n      add\n      swap2\n      pop\n      pop\n      0x00\n      mload(0x40)\n      dup1\n      dup4\n      sub\n      dup2\n      0x00\n      dup7\n      gas\n      call\n      swap2\n      pop\n      pop\n      returndatasize\n        /* \"--CODEGEN--\":14:15   */\n      dup1\n        /* \"--CODEGEN--\":21:22   */\n      0x00\n        /* \"--CODEGEN--\":16:47   */\n      dup2\n      eq\n      tag_587\n      jumpi\n        /* \"--CODEGEN--\":75:79   */\n      0x40\n        /* \"--CODEGEN--\":69:80   */\n      mload\n        /* \"--CODEGEN--\":64:80   */\n      swap2\n      pop\n        /* \"--CODEGEN--\":144:148   */\n      0x1f\n        /* \"--CODEGEN--\":140:149   */\n      not\n        /* \"--CODEGEN--\":133:137   */\n      0x3f\n        /* \"--CODEGEN--\":115:131   */\n      returndatasize\n        /* \"--CODEGEN--\":111:138   */\n      add\n        /* \"--CODEGEN--\":107:150   */\n      and\n        /* \"--CODEGEN--\":104:105   */\n      dup3\n        /* \"--CODEGEN--\":100:151   */\n      add\n        /* \"--CODEGEN--\":94:98   */\n      0x40\n        /* \"--CODEGEN--\":87:152   */\n      mstore\n        /* \"--CODEGEN--\":169:185   */\n      returndatasize\n        /* \"--CODEGEN--\":166:167   */\n      dup3\n        /* \"--CODEGEN--\":159:186   */\n      mstore\n        /* \"--CODEGEN--\":225:241   */\n      returndatasize\n        /* \"--CODEGEN--\":222:223   */\n      0x00\n        /* \"--CODEGEN--\":215:219   */\n      0x20\n        /* \"--CODEGEN--\":212:213   */\n      dup5\n        /* \"--CODEGEN--\":208:220   */\n      add\n        /* \"--CODEGEN--\":193:242   */\n      returndatacopy\n        /* \"--CODEGEN--\":7:249   */\n      jump(tag_586)\n        /* \"--CODEGEN--\":16:47   */\n    tag_587:\n        /* \"--CODEGEN--\":36:40   */\n      0x60\n        /* \"--CODEGEN--\":31:40   */\n      swap2\n      pop\n        /* \"--CODEGEN--\":7:249   */\n    tag_586:\n      pop\n        /* \"anonimity/0.1-ETH-Anonymity.sol\":7547:7614  (bool success, bytes memory returndata) = address(token).call(data) */\n      swap2\n      pop\n      swap2\n      pop\n        /* \"anonimity/0.1-ETH-Anonymity.sol\":7632:7639  success */\n      dup2\n        /* \"anonimity/0.1-ETH-Anonymity.sol\":7624:7676  require(success, \"SafeERC20: low-level call failed\") */\n      tag_588\n      jumpi\n      mload(0x40)\n      0x08c379a000000000000000000000000000000000000000000000000000000000\n      dup2\n      mstore\n      0x04\n      add\n      dup1\n      dup1\n      0x20\n      add\n      dup3\n      dup2\n      sub\n      dup3\n      mstore\n      0x20\n      dup2\n      mstore\n      0x20\n      add\n      dup1\n      0x5361666545524332303a206c6f772d6c6576656c2063616c6c206661696c6564\n      dup2\n      mstore\n      pop\n      0x20\n      add\n      swap2\n      pop\n      pop\n      mload(0x40)\n      dup1\n      swap2\n      sub\n      swap1\n      revert\n    tag_588:\n        /* \"anonimity/0.1-ETH-Anonymity.sol\":7711:7712  0 */\n      0x00\n        /* \"anonimity/0.1-ETH-Anonymity.sol\":7691:7701  returndata */\n      dup2\n        /* \"anonimity/0.1-ETH-Anonymity.sol\":7691:7708  returndata.length */\n      mload\n        /* \"anonimity/0.1-ETH-Anonymity.sol\":7691:7712  returndata.length > 0 */\n      gt\n        /* \"anonimity/0.1-ETH-Anonymity.sol\":7687:7908  if (returndata.length > 0) { // Return data is optional... */\n      iszero\n      tag_589\n      jumpi\n        /* \"anonimity/0.1-ETH-Anonymity.sol\":7831:7841  returndata */\n      dup1\n        /* \"anonimity/0.1-ETH-Anonymity.sol\":7820:7850  abi.decode(returndata, (bool)) */\n      dup1\n      0x20\n      add\n      swap1\n      mload\n        /* \"--CODEGEN--\":13:15   */\n      0x20\n        /* \"--CODEGEN--\":8:11   */\n      dup2\n        /* \"--CODEGEN--\":5:16   */\n      lt\n        /* \"--CODEGEN--\":2:4   */\n      iszero\n      tag_590\n      jumpi\n        /* \"--CODEGEN--\":29:30   */\n      0x00\n        /* \"--CODEGEN--\":26:27   */\n      dup1\n        /* \"--CODEGEN--\":19:31   */\n      revert\n        /* \"--CODEGEN--\":2:4   */\n    tag_590:\n        /* \"anonimity/0.1-ETH-Anonymity.sol\":7820:7850  abi.decode(returndata, (bool)) */\n      dup2\n      add\n      swap1\n      dup1\n      dup1\n      mload\n      swap1\n      0x20\n      add\n      swap1\n      swap3\n      swap2\n      swap1\n      pop\n      pop\n      pop\n        /* \"anonimity/0.1-ETH-Anonymity.sol\":7812:7897  require(abi.decode(returndata, (bool)), \"SafeERC20: ERC20 operation did not succeed\") */\n      tag_591\n      jumpi\n      mload(0x40)\n      0x08c379a000000000000000000000000000000000000000000000000000000000\n      dup2\n      mstore\n      0x04\n      add\n      dup1\n      dup1\n      0x20\n      add\n      dup3\n      dup2\n      sub\n      dup3\n      mstore\n      0x2a\n      dup2\n      mstore\n      0x20\n      add\n      dup1\n      data_e11ad79d1e4a7f2e5f376964cb99e8e8f7904e3fc16a109f7a7ecb9aa7956dcd\n      0x2a\n      swap2\n      codecopy\n      0x40\n      add\n      swap2\n      pop\n      pop\n      mload(0x40)\n      dup1\n      swap2\n      sub\n      swap1\n      revert\n    tag_591:\n        /* \"anonimity/0.1-ETH-Anonymity.sol\":7687:7908  if (returndata.length > 0) { // Return data is optional... */\n    tag_589:\n        /* \"anonimity/0.1-ETH-Anonymity.sol\":6819:7914  function callOptionalReturn(IERC20 token, bytes memory data) private {... */\n      pop\n      pop\n      pop\n      pop\n      jump\t// out\n        /* \"anonimity/0.1-ETH-Anonymity.sol\":13258:24374  contract MessierAnonymity is MerkleTreeWithHistory, ReentrancyGuard {... */\n    tag_322:\n      dup3\n      0x05\n      dup2\n      add\n      swap3\n      dup3\n      iszero\n      tag_592\n      jumpi\n      swap2\n      0x20\n      mul\n      dup3\n      add\n    tag_593:\n      dup3\n      dup2\n      gt\n      iszero\n      tag_594\n      jumpi\n      dup3\n      mload\n      dup3\n      sstore\n      swap2\n      0x20\n      add\n      swap2\n      swap1\n      0x01\n      add\n      swap1\n      jump(tag_593)\n    tag_594:\n    tag_592:\n      pop\n      swap1\n      pop\n      tag_595\n      swap2\n      swap1\n      tag_596\n      jump\t// in\n    tag_595:\n      pop\n      swap1\n      jump\t// out\n    tag_332:\n      dup3\n      0x04\n      dup2\n      add\n      swap3\n      dup3\n      iszero\n      tag_597\n      jumpi\n      swap2\n      0x20\n      mul\n      dup3\n      add\n    tag_598:\n      dup3\n      dup2\n      gt\n      iszero\n      tag_599\n      jumpi\n      dup3\n      mload\n      dup3\n      exp(0x0100, 0x00)\n      dup2\n      sload\n      dup2\n      0xffffffffffffffffffffffffffffffffffffffff\n      mul\n      not\n      and\n      swap1\n      dup4\n      0xffffffffffffffffffffffffffffffffffffffff\n      and\n      mul\n      or\n      swap1\n      sstore\n      pop\n      swap2\n      0x20\n      add\n      swap2\n      swap1\n      0x01\n      add\n      swap1\n      jump(tag_598)\n    tag_599:\n    tag_597:\n      pop\n      swap1\n      pop\n      tag_600\n      swap2\n      swap1\n      tag_601\n      jump\t// in\n    tag_600:\n      pop\n      swap1\n      jump\t// out\n    tag_596:\n      tag_602\n      swap2\n      swap1\n    tag_603:\n      dup1\n      dup3\n      gt\n      iszero\n      tag_604\n      jumpi\n      0x00\n      dup2\n      0x00\n      swap1\n      sstore\n      pop\n      0x01\n      add\n      jump(tag_603)\n    tag_604:\n      pop\n      swap1\n      jump\n    tag_602:\n      swap1\n      jump\t// out\n    tag_601:\n      tag_605\n      swap2\n      swap1\n    tag_606:\n      dup1\n      dup3\n      gt\n      iszero\n      tag_607\n      jumpi\n      0x00\n      dup2\n      dup2\n      0x0100\n      exp\n      dup2\n      sload\n      swap1\n      0xffffffffffffffffffffffffffffffffffffffff\n      mul\n      not\n      and\n      swap1\n      sstore\n      pop\n      0x01\n      add\n      jump(tag_606)\n    tag_607:\n      pop\n      swap1\n      jump\n    tag_605:\n      swap1\n      jump\t// out\n    stop\n    data_0e71a241197b393744b5df81fa847ab1c2bee75202755ee59d1abfcc113d1380 4f6e6c79204f776e65722063616e2063616c6c20746869732066756e6374696f6e2e\n    data_1e762b0ffd82a14d53d4a3d5addc53879bd99e19a39147aacdc9448aa2cb9be3 4d65726b6c6520747265652069732066756c6c2e204e6f206d6f7265206c656166732063616e206265206164646564\n    data_6542fa7ce511fbc255ce93f94c5fe79a03559888b6c0d6b4bd92b57ef65f3b4e 5f72696768742073686f756c6420626520696e7369646520746865206669656c64\n    data_ae5f231636554c1cb3bf839359e4dfbb338ccb221c7c5dbdf2da91ddc6e2ee6b 54686520636f6d6d69746d656e7420686173206265656e207375626d6974746564\n    data_e11ad79d1e4a7f2e5f376964cb99e8e8f7904e3fc16a109f7a7ecb9aa7956dcd 5361666545524332303a204552433230206f7065726174696f6e20646964206e6f742073756363656564\n\n    auxdata: 0xa265627a7a7231582020ec8aa275622b11eca7fcd8602524899deedcb9b703b594c83b158d326c953964736f6c63430005110032\n}\n",
				"bytecode": {
					"linkReferences": {
						"anonimity/0.1-ETH-Anonymity.sol": {
							"Hasher": [
								{
									"length": 20,
									"start": 1309
								},
								{
									"length": 20,
									"start": 1524
								},
								{
									"length": 20,
									"start": 9376
								},
								{
									"length": 20,
									"start": 9587
								}
							]
						}
					},
					"object": "60806040526000600360006101000a81548163ffffffff021916908363ffffffff1602179055506000600360046101000a81548163ffffffff021916908363ffffffff160217905550600060765561016d6077556004603c60186077540202026078556040518060a00160405280601e60ff168152602001600060ff168152602001601e60ff168152602001602860ff168152602001600060ff168152506079906005620000af929190620006a6565b5060026087556703782dace9d90000608955348015620000ce57600080fd5b5060146000806101000a81548163ffffffff021916908363ffffffff16021790555060007f2fe54c60d3acabf3343a35b6eba15db4821b340f76e741e2249685ed4899af6c60001b9050600281908060018154018082558091505090600182039060005260206000200160009091929091909150555060018190806001815401808255809150509060018203906000526020600020016000909192909190915055506000600190505b6000809054906101000a900463ffffffff1663ffffffff168163ffffffff1610156200021757620001af8283620003f660201b60201c565b915060028290806001815401808255809150509060018203906000526020600020016000909192909190915055506001829080600181540180825580915050906001820390600052602060002001600090919290919091505550808060010191505062000177565b506200022a8182620003f660201b60201c565b60046000606481106200023957fe5b018190555050600160688190555033607060006101000a81548173ffffffffffffffffffffffffffffffffffffffff021916908373ffffffffffffffffffffffffffffffffffffffff16021790555033607160006101000a81548173ffffffffffffffffffffffffffffffffffffffff021916908373ffffffffffffffffffffffffffffffffffffffff160217905550436073819055506000606b8190555067016345785d8a0000606a8190555060006069819055506103e8608754606a5402816200030157fe5b046088819055506040518060800160405280600073ffffffffffffffffffffffffffffffffffffffff1673ffffffffffffffffffffffffffffffffffffffff168152602001600073ffffffffffffffffffffffffffffffffffffffff1673ffffffffffffffffffffffffffffffffffffffff168152602001600073ffffffffffffffffffffffffffffffffffffffff1673ffffffffffffffffffffffffffffffffffffffff168152602001600073ffffffffffffffffffffffffffffffffffffffff1673ffffffffffffffffffffffffffffffffffffffff16815250607e906004620003ef929190620006f0565b50620007e0565b60007f30644e72e131a029b85045b68181585d2833e84879b9709143e1f593f00000018360001c1062000491576040517f08c379a00000000000000000000000000000000000000000000000000000000081526004018080602001828103825260208152602001807f5f6c6566742073686f756c6420626520696e7369646520746865206669656c6481525060200191505060405180910390fd5b7f30644e72e131a029b85045b68181585d2833e84879b9709143e1f593f00000018260001c106200050e576040517f08c379a0000000000000000000000000000000000000000000000000000000008152600401808060200182810382526021815260200180620051376021913960400191505060405180910390fd5b60008360001c9050600080905073__$de0ded22c4fea8da78ac8a9fb8fbda0366$__63f47d33b583836040518363ffffffff1660e01b81526004018083815260200182815260200192505050604080518083038186803b1580156200057257600080fd5b505af415801562000587573d6000803e3d6000fd5b505050506040513d60408110156200059e57600080fd5b81019080805190602001909291908051906020019092919050505080925081935050507f30644e72e131a029b85045b68181585d2833e84879b9709143e1f593f000000180620005ea57fe5b8460001c8308915073__$de0ded22c4fea8da78ac8a9fb8fbda0366$__63f47d33b583836040518363ffffffff1660e01b81526004018083815260200182815260200192505050604080518083038186803b1580156200064957600080fd5b505af41580156200065e573d6000803e3d6000fd5b505050506040513d60408110156200067557600080fd5b81019080805190602001909291908051906020019092919050505080925081935050508160001b9250505092915050565b8260058101928215620006dd579160200282015b82811115620006dc578251829060ff16905591602001919060010190620006ba565b5b509050620006ec919062000772565b5090565b82600481019282156200075f579160200282015b828111156200075e5782518260006101000a81548173ffffffffffffffffffffffffffffffffffffffff021916908373ffffffffffffffffffffffffffffffffffffffff1602179055509160200191906001019062000704565b5b5090506200076e91906200079a565b5090565b6200079791905b808211156200079357600081600090555060010162000779565b5090565b90565b620007dd91905b80821115620007d957600081816101000a81549073ffffffffffffffffffffffffffffffffffffffff021916905550600101620007a1565b5090565b90565b61494780620007f06000396000f3fe6080604052600436106102ff5760003560e01c80638d949d4b11610190578063ca093047116100dc578063e829558811610095578063f178e47c1161006f578063f178e47c1461102a578063f6be71d114611079578063fc0c546a146110b4578063fc7e9c6f1461110b576102ff565b8063e829558814610f85578063ec73295914610fd4578063ecaa650314610fff576102ff565b8063ca09304714610e07578063ca13d4e614610e56578063cd87a3b414610ea7578063d27c182414610ede578063d3129be414610f09578063e811f50a14610f5a576102ff565b8063a9f8d18111610149578063b214faa511610123578063b214faa514610cf8578063b4a61faa14610d62578063ba70f75714610d8d578063c2b40ae414610db8576102ff565b8063a9f8d18114610c51578063af32407614610c7c578063b14f2a3914610ca7576102ff565b80638d949d4b14610b215780638daac0df14610b3857806390eeb02b14610b735780639709a6fd14610baa57806397fc007c14610bd5578063997318ec14610c26576102ff565b8063445cd6961161024f5780636c0813961161020857806375ddc9ed116101e257806375ddc9ed14610a115780637ce3489b14610a68578063839df94514610aa35780638ae39cac14610af6576102ff565b80636c081396146108e25780636c23cd68146109935780636d9833e3146109be576102ff565b8063445cd696146106e75780634b3e7811146107365780634ecf518b146107995780635129b3e1146107d057806354fd4d50146107fb57806361d027b31461088b576102ff565b80632d0ec0ff116102bc57806334d6a7bf1161029657806334d6a7bf146105e157806338bf282e146106385780633b406fb714610691578063414a37ba146106bc576102ff565b80632d0ec0ff146105745780633409038c1461059f57806334749d22146105ca576102ff565b80631694505e1461030457806321a0adb61461035b57806322217cd31461043c57806329a5967e146104675780632a48235b146104a25780632b7ac3f31461051d575b600080fd5b34801561031057600080fd5b50610319611142565b604051808273ffffffffffffffffffffffffffffffffffffffff1673ffffffffffffffffffffffffffffffffffffffff16815260200191505060405180910390f35b61043a600480360360e081101561037157600080fd5b810190808035906020019064010000000081111561038e57600080fd5b8201836020820111156103a057600080fd5b803590602001918460018302840111640100000000831117156103c257600080fd5b90919293919293908035906020019092919080359060200190929190803573ffffffffffffffffffffffffffffffffffffffff169060200190929190803573ffffffffffffffffffffffffffffffffffffffff1690602001909291908035906020019092919080359060200190929190505050611168565b005b34801561044857600080fd5b50610451611923565b6040518082815260200191505060405180910390f35b34801561047357600080fd5b506104a06004803603602081101561048a57600080fd5b81019080803590602001909291905050506119a1565b005b3480156104ae57600080fd5b506104db600480360360208110156104c557600080fd5b8101908080359060200190929190505050611a51565b604051808273ffffffffffffffffffffffffffffffffffffffff1673ffffffffffffffffffffffffffffffffffffffff16815260200191505060405180910390f35b34801561052957600080fd5b50610532611a84565b604051808273ffffffffffffffffffffffffffffffffffffffff1673ffffffffffffffffffffffffffffffffffffffff16815260200191505060405180910390f35b34801561058057600080fd5b50610589611aaa565b6040518082815260200191505060405180910390f35b3480156105ab57600080fd5b506105b4611ab0565b6040518082815260200191505060405180910390f35b3480156105d657600080fd5b506105df611ab6565b005b3480156105ed57600080fd5b506105f6611b66565b604051808273ffffffffffffffffffffffffffffffffffffffff1673ffffffffffffffffffffffffffffffffffffffff16815260200191505060405180910390f35b34801561064457600080fd5b5061067b6004803603604081101561065b57600080fd5b810190808035906020019092919080359060200190929190505050611b8c565b6040518082815260200191505060405180910390f35b34801561069d57600080fd5b506106a6611e32565b6040518082815260200191505060405180910390f35b3480156106c857600080fd5b506106d1611e38565b6040518082815260200191505060405180910390f35b3480156106f357600080fd5b506107206004803603602081101561070a57600080fd5b8101908080359060200190929190505050611e5c565b6040518082815260200191505060405180910390f35b34801561074257600080fd5b50610797600480360360a081101561075957600080fd5b810190808035906020019092919080359060200190929190803590602001909291908035906020019092919080359060200190929190505050611e74565b005b3480156107a557600080fd5b506107ae611fd7565b604051808263ffffffff1663ffffffff16815260200191505060405180910390f35b3480156107dc57600080fd5b506107e5611fec565b6040518082815260200191505060405180910390f35b34801561080757600080fd5b50610810611ff2565b6040518080602001828103825283818151815260200191508051906020019080838360005b83811015610850578082015181840152602081019050610835565b50505050905090810190601f16801561087d5780820380516001836020036101000a031916815260200191505b509250505060405180910390f35b34801561089757600080fd5b506108a061202f565b604051808273ffffffffffffffffffffffffffffffffffffffff1673ffffffffffffffffffffffffffffffffffffffff16815260200191505060405180910390f35b3480156108ee57600080fd5b506109916004803603608081101561090557600080fd5b81019080803573ffffffffffffffffffffffffffffffffffffffff169060200190929190803573ffffffffffffffffffffffffffffffffffffffff169060200190929190803573ffffffffffffffffffffffffffffffffffffffff169060200190929190803573ffffffffffffffffffffffffffffffffffffffff169060200190929190505050612055565b005b34801561099f57600080fd5b506109a8612331565b6040518082815260200191505060405180910390f35b3480156109ca57600080fd5b506109f7600480360360208110156109e157600080fd5b8101908080359060200190929190505050612337565b604051808215151515815260200191505060405180910390f35b348015610a1d57600080fd5b50610a266123d9565b604051808273ffffffffffffffffffffffffffffffffffffffff1673ffffffffffffffffffffffffffffffffffffffff16815260200191505060405180910390f35b348015610a7457600080fd5b50610aa160048036036020811015610a8b57600080fd5b81019080803590602001909291905050506123ff565b005b348015610aaf57600080fd5b50610adc60048036036020811015610ac657600080fd5b810190808035906020019092919050505061253d565b604051808215151515815260200191505060405180910390f35b348015610b0257600080fd5b50610b0b61255d565b6040518082815260200191505060405180910390f35b348015610b2d57600080fd5b50610b36612563565b005b348015610b4457600080fd5b50610b7160048036036020811015610b5b57600080fd5b810190808035906020019092919050505061259b565b005b348015610b7f57600080fd5b50610b8861268c565b604051808263ffffffff1663ffffffff16815260200191505060405180910390f35b348015610bb657600080fd5b50610bbf6126a2565b6040518082815260200191505060405180910390f35b348015610be157600080fd5b50610c2460048036036020811015610bf857600080fd5b81019080803573ffffffffffffffffffffffffffffffffffffffff16906020019092919050505061279e565b005b348015610c3257600080fd5b50610c3b612888565b6040518082815260200191505060405180910390f35b348015610c5d57600080fd5b50610c6661288e565b6040518082815260200191505060405180910390f35b348015610c8857600080fd5b50610c91612894565b6040518082815260200191505060405180910390f35b348015610cb357600080fd5b50610cf660048036036020811015610cca57600080fd5b81019080803573ffffffffffffffffffffffffffffffffffffffff16906020019092919050505061289a565b005b610d2460048036036020811015610d0e57600080fd5b8101908080359060200190929190505050612984565b604051808681526020018563ffffffff1663ffffffff1681526020018481526020018381526020018281526020019550505050505060405180910390f35b348015610d6e57600080fd5b50610d77612cda565b6040518082815260200191505060405180910390f35b348015610d9957600080fd5b50610da2612ce0565b6040518082815260200191505060405180910390f35b348015610dc457600080fd5b50610df160048036036020811015610ddb57600080fd5b8101908080359060200190929190505050612d0e565b6040518082815260200191505060405180910390f35b348015610e1357600080fd5b50610e4060048036036020811015610e2a57600080fd5b8101908080359060200190929190505050612d26565b6040518082815260200191505060405180910390f35b348015610e6257600080fd5b50610ea560048036036020811015610e7957600080fd5b81019080803573ffffffffffffffffffffffffffffffffffffffff169060200190929190505050612d3e565b005b348015610eb357600080fd5b50610ebc612f31565b604051808263ffffffff1663ffffffff16815260200191505060405180910390f35b348015610eea57600080fd5b50610ef3612f36565b6040518082815260200191505060405180910390f35b348015610f1557600080fd5b50610f5860048036036020811015610f2c57600080fd5b81019080803573ffffffffffffffffffffffffffffffffffffffff169060200190929190505050612f3c565b005b348015610f6657600080fd5b50610f6f613026565b6040518082815260200191505060405180910390f35b348015610f9157600080fd5b50610fbe60048036036020811015610fa857600080fd5b810190808035906020019092919050505061302c565b6040518082815260200191505060405180910390f35b348015610fe057600080fd5b50610fe961304d565b6040518082815260200191505060405180910390f35b34801561100b57600080fd5b50611014613071565b6040518082815260200191505060405180910390f35b34801561103657600080fd5b506110636004803603602081101561104d57600080fd5b8101908080359060200190929190505050613077565b6040518082815260200191505060405180910390f35b34801561108557600080fd5b506110b26004803603602081101561109c57600080fd5b8101908080359060200190929190505050613098565b005b3480156110c057600080fd5b506110c961315a565b604051808273ffffffffffffffffffffffffffffffffffffffff1673ffffffffffffffffffffffffffffffffffffffff16815260200191505060405180910390f35b34801561111757600080fd5b50611120613180565b604051808263ffffffff1663ffffffff16815260200191505060405180910390f35b608a60009054906101000a900473ffffffffffffffffffffffffffffffffffffffff1681565b600160686000828254019250508190555060006068549050600082146111f6576040517f08c379a00000000000000000000000000000000000000000000000000000000081526004018080602001828103825260128152602001807f726566756e64206973206e6f74207a65726f000000000000000000000000000081525060200191505060405180910390fd5b6111ff85613196565b15611272576040517f08c379a000000000000000000000000000000000000000000000000000000000815260040180806020018281038252601f8152602001807f726563697069656e74206f662063616e6e6f7420626520636f6e74726163740081525060200191505060405180910390fd5b61127b87612337565b6112ed576040517f08c379a000000000000000000000000000000000000000000000000000000000815260040180806020018281038252601c8152602001807f43616e6e6f742066696e6420796f7572206d65726b6c6520726f6f740000000081525060200191505060405180910390fd5b606d60009054906101000a900473ffffffffffffffffffffffffffffffffffffffff1673ffffffffffffffffffffffffffffffffffffffff1663695ef6f98a8a6040518060c001604052808c60001c81526020018b60001c81526020018a73ffffffffffffffffffffffffffffffffffffffff1681526020018973ffffffffffffffffffffffffffffffffffffffff168152602001888152602001878152506040518463ffffffff1660e01b8152600401808060200183600660200280838360005b838110156113ca5780820151818401526020810190506113af565b505050509050018281038252858582818152602001925080828437600081840152601f19601f820116905080830192505050945050505050602060405180830381600087803b15801561141c57600080fd5b505af1158015611430573d6000803e3d6000fd5b505050506040513d602081101561144657600080fd5b81019080805190602001909291905050506114c9576040517f08c379a00000000000000000000000000000000000000000000000000000000081526004018080602001828103825260168152602001807f496e76616c69642077697468647261772070726f6f660000000000000000000081525060200191505060405180910390fd5b606d60009054906101000a900473ffffffffffffffffffffffffffffffffffffffff1673ffffffffffffffffffffffffffffffffffffffff166332ab8c92876040518263ffffffff1660e01b815260040180828152602001915050600060405180830381600087803b15801561153e57600080fd5b505af1158015611552573d6000803e3d6000fd5b5050505060006069549050600081111561159457611593606e60009054906101000a900473ffffffffffffffffffffffffffffffffffffffff1687836131a9565b5b61159c612563565b600080905060006115bf6072546115b16126a2565b6132cf90919063ffffffff16565b905060008111156116085780607560008282540392505081905550611607606f60009054906101000a900473ffffffffffffffffffffffffffffffffffffffff1689836131a9565b5b6000608854606a540390508087111561161f578096505b600087111561170b5760008873ffffffffffffffffffffffffffffffffffffffff168860405180600001905060006040518083038185875af1925050503d8060008114611688576040519150601f19603f3d011682016040523d82523d6000602084013e61168d565b606091505b5050905080611704576040517f08c379a000000000000000000000000000000000000000000000000000000000815260040180806020018281038252601a8152602001807f6661696c656420746f2073656e642072656c617965722066656500000000000081525060200191505060405180910390fd5b8782039150505b60008111156117f25760008973ffffffffffffffffffffffffffffffffffffffff168260405180600001905060006040518083038185875af1925050503d8060008114611774576040519150601f19603f3d011682016040523d82523d6000602084013e611779565b606091505b50509050806117f0576040517f08c379a00000000000000000000000000000000000000000000000000000000081526004018080602001828103825260178152602001807f6661696c656420746f20776974686472617720636f696e00000000000000000081525060200191505060405180910390fd5b505b600160726000828254039250508190555061180b6132e3565b8773ffffffffffffffffffffffffffffffffffffffff167f6d7aac54bd3d1c91db3b1fd7b8d6cb45324ad6b5e373c0f0ea4d7b2606c4c2c88a8c8587604051808573ffffffffffffffffffffffffffffffffffffffff1673ffffffffffffffffffffffffffffffffffffffff16815260200184815260200183815260200182815260200194505050505060405180910390a2505050506068548114611918576040517f08c379a000000000000000000000000000000000000000000000000000000000815260040180806020018281038252601f8152602001807f5265656e7472616e637947756172643a207265656e7472616e742063616c6c0081525060200191505060405180910390fd5b505050505050505050565b600080607254141561193957606b54905061199e565b600043905060006119486126a2565b90506073548211801561195d57506000607454115b1561196d5761196a613487565b90505b61199960725461198b600160725403846135d990919063ffffffff16565b6132cf90919063ffffffff16565b925050505b90565b607160009054906101000a900473ffffffffffffffffffffffffffffffffffffffff1673ffffffffffffffffffffffffffffffffffffffff163373ffffffffffffffffffffffffffffffffffffffff1614611a47576040517f08c379a00000000000000000000000000000000000000000000000000000000081526004018080602001828103825260228152602001806148566022913960400191505060405180910390fd5b8060898190555050565b607e8160048110611a5e57fe5b016000915054906101000a900473ffffffffffffffffffffffffffffffffffffffff1681565b606d60009054906101000a900473ffffffffffffffffffffffffffffffffffffffff1681565b60885481565b60725481565b607160009054906101000a900473ffffffffffffffffffffffffffffffffffffffff1673ffffffffffffffffffffffffffffffffffffffff163373ffffffffffffffffffffffffffffffffffffffff1614611b5c576040517f08c379a00000000000000000000000000000000000000000000000000000000081526004018080602001828103825260228152602001806148566022913960400191505060405180910390fd5b611b646135f3565b565b607160009054906101000a900473ffffffffffffffffffffffffffffffffffffffff1681565b60007f30644e72e131a029b85045b68181585d2833e84879b9709143e1f593f00000018360001c10611c26576040517f08c379a00000000000000000000000000000000000000000000000000000000081526004018080602001828103825260208152602001807f5f6c6566742073686f756c6420626520696e7369646520746865206669656c6481525060200191505060405180910390fd5b7f30644e72e131a029b85045b68181585d2833e84879b9709143e1f593f00000018260001c10611ca1576040517f08c379a00000000000000000000000000000000000000000000000000000000081526004018080602001828103825260218152602001806148a76021913960400191505060405180910390fd5b60008360001c9050600080905073__$de0ded22c4fea8da78ac8a9fb8fbda0366$__63f47d33b583836040518363ffffffff1660e01b81526004018083815260200182815260200192505050604080518083038186803b158015611d0457600080fd5b505af4158015611d18573d6000803e3d6000fd5b505050506040513d6040811015611d2e57600080fd5b81019080805190602001909291908051906020019092919050505080925081935050507f30644e72e131a029b85045b68181585d2833e84879b9709143e1f593f000000180611d7957fe5b8460001c8308915073__$de0ded22c4fea8da78ac8a9fb8fbda0366$__63f47d33b583836040518363ffffffff1660e01b81526004018083815260200182815260200192505050604080518083038186803b158015611dd757600080fd5b505af4158015611deb573d6000803e3d6000fd5b505050506040513d6040811015611e0157600080fd5b81019080805190602001909291908051906020019092919050505080925081935050508160001b9250505092915050565b60765481565b7f30644e72e131a029b85045b68181585d2833e84879b9709143e1f593f000000181565b60798160058110611e6957fe5b016000915090505481565b607160009054906101000a900473ffffffffffffffffffffffffffffffffffffffff1673ffffffffffffffffffffffffffffffffffffffff163373ffffffffffffffffffffffffffffffffffffffff1614611f1a576040517f08c379a00000000000000000000000000000000000000000000000000000000081526004018080602001828103825260228152602001806148566022913960400191505060405180910390fd5b606481838587890101010114611f98576040517f08c379a00000000000000000000000000000000000000000000000000000000081526004018080602001828103825260078152602001807f496e76616c69640000000000000000000000000000000000000000000000000081525060200191505060405180910390fd5b6040518060a00160405280868152602001858152602001848152602001838152602001828152506079906005611fcf929190614730565b505050505050565b6000809054906101000a900463ffffffff1681565b60695481565b60606040518060400160405280600381526020017f322e330000000000000000000000000000000000000000000000000000000000815250905090565b607060009054906101000a900473ffffffffffffffffffffffffffffffffffffffff1681565b607160009054906101000a900473ffffffffffffffffffffffffffffffffffffffff1673ffffffffffffffffffffffffffffffffffffffff163373ffffffffffffffffffffffffffffffffffffffff16146120fb576040517f08c379a00000000000000000000000000000000000000000000000000000000081526004018080602001828103825260228152602001806148566022913960400191505060405180910390fd5b600073ffffffffffffffffffffffffffffffffffffffff168473ffffffffffffffffffffffffffffffffffffffff16141580156121655750600073ffffffffffffffffffffffffffffffffffffffff168373ffffffffffffffffffffffffffffffffffffffff1614155b801561219e5750600073ffffffffffffffffffffffffffffffffffffffff168273ffffffffffffffffffffffffffffffffffffffff1614155b80156121d75750600073ffffffffffffffffffffffffffffffffffffffff168173ffffffffffffffffffffffffffffffffffffffff1614155b612249576040517f08c379a00000000000000000000000000000000000000000000000000000000081526004018080602001828103825260108152602001807f4e6f74205a65726f20416464726573730000000000000000000000000000000081525060200191505060405180910390fd5b60405180608001604052808573ffffffffffffffffffffffffffffffffffffffff1673ffffffffffffffffffffffffffffffffffffffff1681526020018473ffffffffffffffffffffffffffffffffffffffff1673ffffffffffffffffffffffffffffffffffffffff1681526020018373ffffffffffffffffffffffffffffffffffffffff1673ffffffffffffffffffffffffffffffffffffffff1681526020018273ffffffffffffffffffffffffffffffffffffffff1673ffffffffffffffffffffffffffffffffffffffff16815250607e90600461232a929190614770565b5050505050565b608b5481565b60008060001b82141561234d57600090506123d4565b6000600360009054906101000a900463ffffffff1690505b60048163ffffffff166064811061237857fe5b015483141561238b5760019150506123d4565b60008163ffffffff16141561239f57606490505b808060019003915050600360009054906101000a900463ffffffff1663ffffffff168163ffffffff1614156123655760009150505b919050565b606f60009054906101000a900473ffffffffffffffffffffffffffffffffffffffff1681565b607160009054906101000a900473ffffffffffffffffffffffffffffffffffffffff1673ffffffffffffffffffffffffffffffffffffffff163373ffffffffffffffffffffffffffffffffffffffff16146124a5576040517f08c379a00000000000000000000000000000000000000000000000000000000081526004018080602001828103825260228152602001806148566022913960400191505060405180910390fd5b600a811061251b576040517f08c379a00000000000000000000000000000000000000000000000000000000081526004018080602001828103825260138152602001807f4665652063616e2774206578636565642031250000000000000000000000000081525060200191505060405180910390fd5b806087819055506103e8608754606a54028161253357fe5b0460888190555050565b606c6020528060005260406000206000915054906101000a900460ff1681565b60745481565b600043905060735481116125775750612599565b60006074541461259057612589613487565b6075819055505b80607381905550505b565b607160009054906101000a900473ffffffffffffffffffffffffffffffffffffffff1673ffffffffffffffffffffffffffffffffffffffff163373ffffffffffffffffffffffffffffffffffffffff1614612641576040517f08c379a00000000000000000000000000000000000000000000000000000000081526004018080602001828103825260228152602001806148566022913960400191505060405180910390fd5b7ff077eec825bf8719ab7021daf299e3feb4cb33472ac3f1e661657fd9701a3e7e60765482604051808381526020018281526020019250505060405180910390a18060768190555050565b600360009054906101000a900463ffffffff1681565b600080606f60009054906101000a900473ffffffffffffffffffffffffffffffffffffffff1673ffffffffffffffffffffffffffffffffffffffff166370a08231306040518263ffffffff1660e01b8152600401808273ffffffffffffffffffffffffffffffffffffffff1673ffffffffffffffffffffffffffffffffffffffff16815260200191505060206040518083038186803b15801561274457600080fd5b505afa158015612758573d6000803e3d6000fd5b505050506040513d602081101561276e57600080fd5b81019080805190602001909291905050509050607554811015612794578091505061279b565b6075549150505b90565b607160009054906101000a900473ffffffffffffffffffffffffffffffffffffffff1673ffffffffffffffffffffffffffffffffffffffff163373ffffffffffffffffffffffffffffffffffffffff1614612844576040517f08c379a00000000000000000000000000000000000000000000000000000000081526004018080602001828103825260228152602001806148566022913960400191505060405180910390fd5b80606d60006101000a81548173ffffffffffffffffffffffffffffffffffffffff021916908373ffffffffffffffffffffffffffffffffffffffff16021790555050565b606a5481565b60735481565b606b5481565b607160009054906101000a900473ffffffffffffffffffffffffffffffffffffffff1673ffffffffffffffffffffffffffffffffffffffff163373ffffffffffffffffffffffffffffffffffffffff1614612940576040517f08c379a00000000000000000000000000000000000000000000000000000000081526004018080602001828103825260228152602001806148566022913960400191505060405180910390fd5b80607060006101000a81548173ffffffffffffffffffffffffffffffffffffffff021916908373ffffffffffffffffffffffffffffffffffffffff16021790555050565b6000806000806000600160686000828254019250508190555060006068549050606c600088815260200190815260200160002060009054906101000a900460ff1615612a1b576040517f08c379a00000000000000000000000000000000000000000000000000000000081526004018080602001828103825260218152602001806148c86021913960400191505060405180910390fd5b606a54341015612a93576040517f08c379a00000000000000000000000000000000000000000000000000000000081526004018080602001828103825260188152602001807f696e73756666696369656e7420636f696e20616d6f756e74000000000000000081525060200191505060405180910390fd5b8695504293506000606a5434039050612aab88614170565b95506001606c60008a815260200190815260200160002060006101000a81548160ff0219169083151502179055506000811115612bc05760003373ffffffffffffffffffffffffffffffffffffffff168260405180600001905060006040518083038185875af1925050503d8060008114612b42576040519150601f19603f3d011682016040523d82523d6000602084013e612b47565b606091505b5050905080612bbe576040517f08c379a00000000000000000000000000000000000000000000000000000000081526004018080602001828103825260108152602001807f6661696c656420746f20726566756e640000000000000000000000000000000081525060200191505060405180910390fd5b505b6088546086600082825401925050819055506089546086541115612beb57612be66135f3565b612bf4565b612bf36132e3565b5b612bfc612563565b877fcb186cc0add5be357ae2d3845e42be2ffbed8cb23b60f1b058ea371adff0a36387428787604051808563ffffffff1663ffffffff16815260200184815260200183815260200182815260200194505050505060405180910390a2506068548114612cd0576040517f08c379a000000000000000000000000000000000000000000000000000000000815260040180806020018281038252601f8152602001807f5265656e7472616e637947756172643a207265656e7472616e742063616c6c0081525060200191505060405180910390fd5b5091939590929450565b60755481565b60006004600360009054906101000a900463ffffffff1663ffffffff1660648110612d0757fe5b0154905090565b60048160648110612d1b57fe5b016000915090505481565b60828160048110612d3357fe5b016000915090505481565b607160009054906101000a900473ffffffffffffffffffffffffffffffffffffffff1673ffffffffffffffffffffffffffffffffffffffff163373ffffffffffffffffffffffffffffffffffffffff1614612de4576040517f08c379a00000000000000000000000000000000000000000000000000000000081526004018080602001828103825260228152602001806148566022913960400191505060405180910390fd5b80606f60006101000a81548173ffffffffffffffffffffffffffffffffffffffff021916908373ffffffffffffffffffffffffffffffffffffffff160217905550606f60009054906101000a900473ffffffffffffffffffffffffffffffffffffffff1673ffffffffffffffffffffffffffffffffffffffff1663095ea7b3607160009054906101000a900473ffffffffffffffffffffffffffffffffffffffff166000196040518363ffffffff1660e01b8152600401808373ffffffffffffffffffffffffffffffffffffffff1673ffffffffffffffffffffffffffffffffffffffff16815260200182815260200192505050602060405180830381600087803b158015612ef257600080fd5b505af1158015612f06573d6000803e3d6000fd5b505050506040513d6020811015612f1c57600080fd5b81019080805190602001909291905050505050565b606481565b60895481565b607160009054906101000a900473ffffffffffffffffffffffffffffffffffffffff1673ffffffffffffffffffffffffffffffffffffffff163373ffffffffffffffffffffffffffffffffffffffff1614612fe2576040517f08c379a00000000000000000000000000000000000000000000000000000000081526004018080602001828103825260228152602001806148566022913960400191505060405180910390fd5b80607160006101000a81548173ffffffffffffffffffffffffffffffffffffffff021916908373ffffffffffffffffffffffffffffffffffffffff16021790555050565b60865481565b6002818154811061303957fe5b906000526020600020016000915090505481565b7f2fe54c60d3acabf3343a35b6eba15db4821b340f76e741e2249685ed4899af6c81565b60875481565b6001818154811061308457fe5b906000526020600020016000915090505481565b607160009054906101000a900473ffffffffffffffffffffffffffffffffffffffff1673ffffffffffffffffffffffffffffffffffffffff163373ffffffffffffffffffffffffffffffffffffffff161461313e576040517f08c379a00000000000000000000000000000000000000000000000000000000081526004018080602001828103825260228152602001806148566022913960400191505060405180910390fd5b806077819055506004603c601860775402020260788190555050565b606e60009054906101000a900473ffffffffffffffffffffffffffffffffffffffff1681565b600360049054906101000a900463ffffffff1681565b600080823b905060008111915050919050565b60008373ffffffffffffffffffffffffffffffffffffffff166370a08231306040518263ffffffff1660e01b8152600401808273ffffffffffffffffffffffffffffffffffffffff1673ffffffffffffffffffffffffffffffffffffffff16815260200191505060206040518083038186803b15801561322857600080fd5b505afa15801561323c573d6000803e3d6000fd5b505050506040513d602081101561325257600080fd5b810190808051906020019092919050505090508082111561329d5761329883828673ffffffffffffffffffffffffffffffffffffffff166143c99092919063ffffffff16565b6132c9565b6132c883838673ffffffffffffffffffffffffffffffffffffffff166143c99092919063ffffffff16565b5b50505050565b60008183816132da57fe5b04905092915050565b60005b600481101561348357608b600081548092919060010191905055506004608b541461331357608b54613316565b60005b608b8190555060006082608b546004811061332d57fe5b0154111561347657606f60009054906101000a900473ffffffffffffffffffffffffffffffffffffffff1673ffffffffffffffffffffffffffffffffffffffff1663a9059cbb607e608b546004811061338257fe5b0160009054906101000a900473ffffffffffffffffffffffffffffffffffffffff166082608b54600481106133b357fe5b01546040518363ffffffff1660e01b8152600401808373ffffffffffffffffffffffffffffffffffffffff1673ffffffffffffffffffffffffffffffffffffffff16815260200182815260200192505050602060405180830381600087803b15801561341e57600080fd5b505af1158015613432573d6000803e3d6000fd5b505050506040513d602081101561344857600080fd5b81019080805190602001909291905050505060006082608b546004811061346b57fe5b018190555050613485565b80806001019150506132e6565b505b565b6000806134b36074546134a56073544361449a90919063ffffffff16565b6144b190919063ffffffff16565b905060006135aa6134c26126a2565b606f60009054906101000a900473ffffffffffffffffffffffffffffffffffffffff1673ffffffffffffffffffffffffffffffffffffffff166370a08231306040518263ffffffff1660e01b8152600401808273ffffffffffffffffffffffffffffffffffffffff1673ffffffffffffffffffffffffffffffffffffffff16815260200191505060206040518083038186803b15801561356157600080fd5b505afa158015613575573d6000803e3d6000fd5b505050506040513d602081101561358b57600080fd5b810190808051906020019092919050505061449a90919063ffffffff16565b9050818110156135b8578091505b6135d2826135c46126a2565b6135d990919063ffffffff16565b9250505090565b60008183019050828110156135ea57fe5b80905092915050565b60006086541161366b576040517f08c379a00000000000000000000000000000000000000000000000000000000081526004018080602001828103825260138152602001807f496e73756666696369656e7420416d6f756e740000000000000000000000000081525060200191505060405180910390fd5b6000606f60009054906101000a900473ffffffffffffffffffffffffffffffffffffffff1673ffffffffffffffffffffffffffffffffffffffff166370a08231306040518263ffffffff1660e01b8152600401808273ffffffffffffffffffffffffffffffffffffffff1673ffffffffffffffffffffffffffffffffffffffff16815260200191505060206040518083038186803b15801561370c57600080fd5b505afa158015613720573d6000803e3d6000fd5b505050506040513d602081101561373657600080fd5b810190808051906020019092919050505090506060600260405190808252806020026020018201604052801561377b5781602001602082028038833980820191505090505b509050608a60009054906101000a900473ffffffffffffffffffffffffffffffffffffffff1673ffffffffffffffffffffffffffffffffffffffff1663ad5c46486040518163ffffffff1660e01b815260040160206040518083038186803b1580156137e657600080fd5b505afa1580156137fa573d6000803e3d6000fd5b505050506040513d602081101561381057600080fd5b81019080805190602001909291905050508160008151811061382e57fe5b602002602001019073ffffffffffffffffffffffffffffffffffffffff16908173ffffffffffffffffffffffffffffffffffffffff1681525050606f60009054906101000a900473ffffffffffffffffffffffffffffffffffffffff168160018151811061389857fe5b602002602001019073ffffffffffffffffffffffffffffffffffffffff16908173ffffffffffffffffffffffffffffffffffffffff1681525050608a60009054906101000a900473ffffffffffffffffffffffffffffffffffffffff1673ffffffffffffffffffffffffffffffffffffffff1663b6f9de956086546000843061392b6002426144b190919063ffffffff16565b6040518663ffffffff1660e01b815260040180858152602001806020018473ffffffffffffffffffffffffffffffffffffffff1673ffffffffffffffffffffffffffffffffffffffff168152602001838152602001828103825285818151815260200191508051906020019060200280838360005b838110156139bb5780820151818401526020810190506139a0565b50505050905001955050505050506000604051808303818588803b1580156139e257600080fd5b505af11580156139f6573d6000803e3d6000fd5b505050505060006086819055506000613af183606f60009054906101000a900473ffffffffffffffffffffffffffffffffffffffff1673ffffffffffffffffffffffffffffffffffffffff166370a08231306040518263ffffffff1660e01b8152600401808273ffffffffffffffffffffffffffffffffffffffff1673ffffffffffffffffffffffffffffffffffffffff16815260200191505060206040518083038186803b158015613aa857600080fd5b505afa158015613abc573d6000803e3d6000fd5b505050506040513d6020811015613ad257600080fd5b810190808051906020019092919050505061449a90919063ffffffff16565b905060006079600060058110613b0357fe5b01541115613c2757606f60009054906101000a900473ffffffffffffffffffffffffffffffffffffffff1673ffffffffffffffffffffffffffffffffffffffff1663a9059cbb61dead613b816064613b736079600060058110613b6257fe5b0154876144b190919063ffffffff16565b6132cf90919063ffffffff16565b6040518363ffffffff1660e01b8152600401808373ffffffffffffffffffffffffffffffffffffffff1673ffffffffffffffffffffffffffffffffffffffff16815260200182815260200192505050602060405180830381600087803b158015613bea57600080fd5b505af1158015613bfe573d6000803e3d6000fd5b505050506040513d6020811015613c1457600080fd5b8101908080519060200190929190505050505b600073ffffffffffffffffffffffffffffffffffffffff16607e600060048110613c4d57fe5b0160009054906101000a900473ffffffffffffffffffffffffffffffffffffffff1673ffffffffffffffffffffffffffffffffffffffff1614158015613ca2575060006079600160058110613c9e57fe5b0154115b8015613d0957503073ffffffffffffffffffffffffffffffffffffffff16607e600060048110613cce57fe5b0160009054906101000a900473ffffffffffffffffffffffffffffffffffffffff1673ffffffffffffffffffffffffffffffffffffffff1614155b15613d7857613d64613d466064613d386079600160058110613d2757fe5b0154856144b190919063ffffffff16565b6132cf90919063ffffffff16565b6082600060048110613d5457fe5b01546135d990919063ffffffff16565b6082600060048110613d7257fe5b01819055505b600073ffffffffffffffffffffffffffffffffffffffff16607e600160048110613d9e57fe5b0160009054906101000a900473ffffffffffffffffffffffffffffffffffffffff1673ffffffffffffffffffffffffffffffffffffffff1614158015613df3575060006079600260058110613def57fe5b0154115b8015613e5a57503073ffffffffffffffffffffffffffffffffffffffff16607e600160048110613e1f57fe5b0160009054906101000a900473ffffffffffffffffffffffffffffffffffffffff1673ffffffffffffffffffffffffffffffffffffffff1614155b15613ec957613eb5613e976064613e896079600260058110613e7857fe5b0154856144b190919063ffffffff16565b6132cf90919063ffffffff16565b6082600160048110613ea557fe5b01546135d990919063ffffffff16565b6082600160048110613ec357fe5b01819055505b600073ffffffffffffffffffffffffffffffffffffffff16607e600260048110613eef57fe5b0160009054906101000a900473ffffffffffffffffffffffffffffffffffffffff1673ffffffffffffffffffffffffffffffffffffffff1614158015613f44575060006079600360058110613f4057fe5b0154115b8015613fab57503073ffffffffffffffffffffffffffffffffffffffff16607e600260048110613f7057fe5b0160009054906101000a900473ffffffffffffffffffffffffffffffffffffffff1673ffffffffffffffffffffffffffffffffffffffff1614155b1561401a57614006613fe86064613fda6079600360058110613fc957fe5b0154856144b190919063ffffffff16565b6132cf90919063ffffffff16565b6082600260048110613ff657fe5b01546135d990919063ffffffff16565b608260026004811061401457fe5b01819055505b600073ffffffffffffffffffffffffffffffffffffffff16607e60036004811061404057fe5b0160009054906101000a900473ffffffffffffffffffffffffffffffffffffffff1673ffffffffffffffffffffffffffffffffffffffff161415801561409557506000607960046005811061409157fe5b0154115b80156140fc57503073ffffffffffffffffffffffffffffffffffffffff16607e6003600481106140c157fe5b0160009054906101000a900473ffffffffffffffffffffffffffffffffffffffff1673ffffffffffffffffffffffffffffffffffffffff1614155b1561416b57614157614139606461412b607960046005811061411a57fe5b0154856144b190919063ffffffff16565b6132cf90919063ffffffff16565b608260036004811061414757fe5b01546135d990919063ffffffff16565b608260036004811061416557fe5b01819055505b505050565b600080600360049054906101000a900463ffffffff1690506000809054906101000a900463ffffffff1663ffffffff16600263ffffffff160a63ffffffff168163ffffffff16141561420d576040517f08c379a000000000000000000000000000000000000000000000000000000000815260040180806020018281038252602f815260200180614878602f913960400191505060405180910390fd5b6001600360048282829054906101000a900463ffffffff160192506101000a81548163ffffffff021916908363ffffffff160217905550600083905060008060008090505b6000809054906101000a900463ffffffff1663ffffffff168163ffffffff16101561433057600060028663ffffffff168161428957fe5b0663ffffffff1614156142e05783925060028163ffffffff16815481106142ac57fe5b906000526020600020015491508360018263ffffffff16815481106142cd57fe5b9060005260206000200181905550614304565b60018163ffffffff16815481106142f357fe5b906000526020600020015492508391505b61430e8383611b8c565b935060028563ffffffff168161432057fe5b0494508080600101915050614252565b50606463ffffffff166001600360009054906101000a900463ffffffff160163ffffffff168161435c57fe5b06600360006101000a81548163ffffffff021916908363ffffffff160217905550826004600360009054906101000a900463ffffffff1663ffffffff16606481106143a357fe5b01819055506001600360049054906101000a900463ffffffff1603945050505050919050565b614495838473ffffffffffffffffffffffffffffffffffffffff1663a9059cbb905060e01b8484604051602401808373ffffffffffffffffffffffffffffffffffffffff1673ffffffffffffffffffffffffffffffffffffffff16815260200182815260200192505050604051602081830303815290604052907bffffffffffffffffffffffffffffffffffffffffffffffffffffffff19166020820180517bffffffffffffffffffffffffffffffffffffffffffffffffffffffff83818316178352505050506144e5565b505050565b6000828211156144a657fe5b818303905092915050565b6000808314156144c457600090506144df565b8183029050818382816144d357fe5b04146144db57fe5b8090505b92915050565b6145048273ffffffffffffffffffffffffffffffffffffffff16613196565b614576576040517f08c379a000000000000000000000000000000000000000000000000000000000815260040180806020018281038252601f8152602001807f5361666545524332303a2063616c6c20746f206e6f6e2d636f6e74726163740081525060200191505060405180910390fd5b600060608373ffffffffffffffffffffffffffffffffffffffff16836040518082805190602001908083835b602083106145c557805182526020820191506020810190506020830392506145a2565b6001836020036101000a0380198251168184511680821785525050505050509050019150506000604051808303816000865af19150503d8060008114614627576040519150601f19603f3d011682016040523d82523d6000602084013e61462c565b606091505b5091509150816146a4576040517f08c379a00000000000000000000000000000000000000000000000000000000081526004018080602001828103825260208152602001807f5361666545524332303a206c6f772d6c6576656c2063616c6c206661696c656481525060200191505060405180910390fd5b60008151111561472a578080602001905160208110156146c357600080fd5b8101908080519060200190929190505050614729576040517f08c379a000000000000000000000000000000000000000000000000000000000815260040180806020018281038252602a8152602001806148e9602a913960400191505060405180910390fd5b5b50505050565b826005810192821561475f579160200282015b8281111561475e578251825591602001919060010190614743565b5b50905061476c91906147ed565b5090565b82600481019282156147dc579160200282015b828111156147db5782518260006101000a81548173ffffffffffffffffffffffffffffffffffffffff021916908373ffffffffffffffffffffffffffffffffffffffff16021790555091602001919060010190614783565b5b5090506147e99190614812565b5090565b61480f91905b8082111561480b5760008160009055506001016147f3565b5090565b90565b61485291905b8082111561484e57600081816101000a81549073ffffffffffffffffffffffffffffffffffffffff021916905550600101614818565b5090565b9056fe4f6e6c79204f776e65722063616e2063616c6c20746869732066756e6374696f6e2e4d65726b6c6520747265652069732066756c6c2e204e6f206d6f7265206c656166732063616e2062652061646465645f72696768742073686f756c6420626520696e7369646520746865206669656c6454686520636f6d6d69746d656e7420686173206265656e207375626d69747465645361666545524332303a204552433230206f7065726174696f6e20646964206e6f742073756363656564a265627a7a7231582020ec8aa275622b11eca7fcd8602524899deedcb9b703b594c83b158d326c953964736f6c634300051100325f72696768742073686f756c6420626520696e7369646520746865206669656c64",
					"opcodes": "PUSH1 0x80 PUSH1 0x40 MSTORE PUSH1 0x0 PUSH1 0x3 PUSH1 0x0 PUSH2 0x100 EXP DUP2 SLOAD DUP2 PUSH4 0xFFFFFFFF MUL NOT AND SWAP1 DUP4 PUSH4 0xFFFFFFFF AND MUL OR SWAP1 SSTORE POP PUSH1 0x0 PUSH1 0x3 PUSH1 0x4 PUSH2 0x100 EXP DUP2 SLOAD DUP2 PUSH4 0xFFFFFFFF MUL NOT AND SWAP1 DUP4 PUSH4 0xFFFFFFFF AND MUL OR SWAP1 SSTORE POP PUSH1 0x0 PUSH1 0x76 SSTORE PUSH2 0x16D PUSH1 0x77 SSTORE PUSH1 0x4 PUSH1 0x3C PUSH1 0x18 PUSH1 0x77 SLOAD MUL MUL MUL PUSH1 0x78 SSTORE PUSH1 0x40 MLOAD DUP1 PUSH1 0xA0 ADD PUSH1 0x40 MSTORE DUP1 PUSH1 0x1E PUSH1 0xFF AND DUP2 MSTORE PUSH1 0x20 ADD PUSH1 0x0 PUSH1 0xFF AND DUP2 MSTORE PUSH1 0x20 ADD PUSH1 0x1E PUSH1 0xFF AND DUP2 MSTORE PUSH1 0x20 ADD PUSH1 0x28 PUSH1 0xFF AND DUP2 MSTORE PUSH1 0x20 ADD PUSH1 0x0 PUSH1 0xFF AND DUP2 MSTORE POP PUSH1 0x79 SWAP1 PUSH1 0x5 PUSH3 0xAF SWAP3 SWAP2 SWAP1 PUSH3 0x6A6 JUMP JUMPDEST POP PUSH1 0x2 PUSH1 0x87 SSTORE PUSH8 0x3782DACE9D90000 PUSH1 0x89 SSTORE CALLVALUE DUP1 ISZERO PUSH3 0xCE JUMPI PUSH1 0x0 DUP1 REVERT JUMPDEST POP PUSH1 0x14 PUSH1 0x0 DUP1 PUSH2 0x100 EXP DUP2 SLOAD DUP2 PUSH4 0xFFFFFFFF MUL NOT AND SWAP1 DUP4 PUSH4 0xFFFFFFFF AND MUL OR SWAP1 SSTORE POP PUSH1 0x0 PUSH32 0x2FE54C60D3ACABF3343A35B6EBA15DB4821B340F76E741E2249685ED4899AF6C PUSH1 0x0 SHL SWAP1 POP PUSH1 0x2 DUP2 SWAP1 DUP1 PUSH1 0x1 DUP2 SLOAD ADD DUP1 DUP3 SSTORE DUP1 SWAP2 POP POP SWAP1 PUSH1 0x1 DUP3 SUB SWAP1 PUSH1 0x0 MSTORE PUSH1 0x20 PUSH1 0x0 KECCAK256 ADD PUSH1 0x0 SWAP1 SWAP2 SWAP3 SWAP1 SWAP2 SWAP1 SWAP2 POP SSTORE POP PUSH1 0x1 DUP2 SWAP1 DUP1 PUSH1 0x1 DUP2 SLOAD ADD DUP1 DUP3 SSTORE DUP1 SWAP2 POP POP SWAP1 PUSH1 0x1 DUP3 SUB SWAP1 PUSH1 0x0 MSTORE PUSH1 0x20 PUSH1 0x0 KECCAK256 ADD PUSH1 0x0 SWAP1 SWAP2 SWAP3 SWAP1 SWAP2 SWAP1 SWAP2 POP SSTORE POP PUSH1 0x0 PUSH1 0x1 SWAP1 POP JUMPDEST PUSH1 0x0 DUP1 SWAP1 SLOAD SWAP1 PUSH2 0x100 EXP SWAP1 DIV PUSH4 0xFFFFFFFF AND PUSH4 0xFFFFFFFF AND DUP2 PUSH4 0xFFFFFFFF AND LT ISZERO PUSH3 0x217 JUMPI PUSH3 0x1AF DUP3 DUP4 PUSH3 0x3F6 PUSH1 0x20 SHL PUSH1 0x20 SHR JUMP JUMPDEST SWAP2 POP PUSH1 0x2 DUP3 SWAP1 DUP1 PUSH1 0x1 DUP2 SLOAD ADD DUP1 DUP3 SSTORE DUP1 SWAP2 POP POP SWAP1 PUSH1 0x1 DUP3 SUB SWAP1 PUSH1 0x0 MSTORE PUSH1 0x20 PUSH1 0x0 KECCAK256 ADD PUSH1 0x0 SWAP1 SWAP2 SWAP3 SWAP1 SWAP2 SWAP1 SWAP2 POP SSTORE POP PUSH1 0x1 DUP3 SWAP1 DUP1 PUSH1 0x1 DUP2 SLOAD ADD DUP1 DUP3 SSTORE DUP1 SWAP2 POP POP SWAP1 PUSH1 0x1 DUP3 SUB SWAP1 PUSH1 0x0 MSTORE PUSH1 0x20 PUSH1 0x0 KECCAK256 ADD PUSH1 0x0 SWAP1 SWAP2 SWAP3 SWAP1 SWAP2 SWAP1 SWAP2 POP SSTORE POP DUP1 DUP1 PUSH1 0x1 ADD SWAP2 POP POP PUSH3 0x177 JUMP JUMPDEST POP PUSH3 0x22A DUP2 DUP3 PUSH3 0x3F6 PUSH1 0x20 SHL PUSH1 0x20 SHR JUMP JUMPDEST PUSH1 0x4 PUSH1 0x0 PUSH1 0x64 DUP2 LT PUSH3 0x239 JUMPI INVALID JUMPDEST ADD DUP2 SWAP1 SSTORE POP POP PUSH1 0x1 PUSH1 0x68 DUP2 SWAP1 SSTORE POP CALLER PUSH1 0x70 PUSH1 0x0 PUSH2 0x100 EXP DUP2 SLOAD DUP2 PUSH20 0xFFFFFFFFFFFFFFFFFFFFFFFFFFFFFFFFFFFFFFFF MUL NOT AND SWAP1 DUP4 PUSH20 0xFFFFFFFFFFFFFFFFFFFFFFFFFFFFFFFFFFFFFFFF AND MUL OR SWAP1 SSTORE POP CALLER PUSH1 0x71 PUSH1 0x0 PUSH2 0x100 EXP DUP2 SLOAD DUP2 PUSH20 0xFFFFFFFFFFFFFFFFFFFFFFFFFFFFFFFFFFFFFFFF MUL NOT AND SWAP1 DUP4 PUSH20 0xFFFFFFFFFFFFFFFFFFFFFFFFFFFFFFFFFFFFFFFF AND MUL OR SWAP1 SSTORE POP NUMBER PUSH1 0x73 DUP2 SWAP1 SSTORE POP PUSH1 0x0 PUSH1 0x6B DUP2 SWAP1 SSTORE POP PUSH8 0x16345785D8A0000 PUSH1 0x6A DUP2 SWAP1 SSTORE POP PUSH1 0x0 PUSH1 0x69 DUP2 SWAP1 SSTORE POP PUSH2 0x3E8 PUSH1 0x87 SLOAD PUSH1 0x6A SLOAD MUL DUP2 PUSH3 0x301 JUMPI INVALID JUMPDEST DIV PUSH1 0x88 DUP2 SWAP1 SSTORE POP PUSH1 0x40 MLOAD DUP1 PUSH1 0x80 ADD PUSH1 0x40 MSTORE DUP1 PUSH1 0x0 PUSH20 0xFFFFFFFFFFFFFFFFFFFFFFFFFFFFFFFFFFFFFFFF AND PUSH20 0xFFFFFFFFFFFFFFFFFFFFFFFFFFFFFFFFFFFFFFFF AND DUP2 MSTORE PUSH1 0x20 ADD PUSH1 0x0 PUSH20 0xFFFFFFFFFFFFFFFFFFFFFFFFFFFFFFFFFFFFFFFF AND PUSH20 0xFFFFFFFFFFFFFFFFFFFFFFFFFFFFFFFFFFFFFFFF AND DUP2 MSTORE PUSH1 0x20 ADD PUSH1 0x0 PUSH20 0xFFFFFFFFFFFFFFFFFFFFFFFFFFFFFFFFFFFFFFFF AND PUSH20 0xFFFFFFFFFFFFFFFFFFFFFFFFFFFFFFFFFFFFFFFF AND DUP2 MSTORE PUSH1 0x20 ADD PUSH1 0x0 PUSH20 0xFFFFFFFFFFFFFFFFFFFFFFFFFFFFFFFFFFFFFFFF AND PUSH20 0xFFFFFFFFFFFFFFFFFFFFFFFFFFFFFFFFFFFFFFFF AND DUP2 MSTORE POP PUSH1 0x7E SWAP1 PUSH1 0x4 PUSH3 0x3EF SWAP3 SWAP2 SWAP1 PUSH3 0x6F0 JUMP JUMPDEST POP PUSH3 0x7E0 JUMP JUMPDEST PUSH1 0x0 PUSH32 0x30644E72E131A029B85045B68181585D2833E84879B9709143E1F593F0000001 DUP4 PUSH1 0x0 SHR LT PUSH3 0x491 JUMPI PUSH1 0x40 MLOAD PUSH32 0x8C379A000000000000000000000000000000000000000000000000000000000 DUP2 MSTORE PUSH1 0x4 ADD DUP1 DUP1 PUSH1 0x20 ADD DUP3 DUP2 SUB DUP3 MSTORE PUSH1 0x20 DUP2 MSTORE PUSH1 0x20 ADD DUP1 PUSH32 0x5F6C6566742073686F756C6420626520696E7369646520746865206669656C64 DUP2 MSTORE POP PUSH1 0x20 ADD SWAP2 POP POP PUSH1 0x40 MLOAD DUP1 SWAP2 SUB SWAP1 REVERT JUMPDEST PUSH32 0x30644E72E131A029B85045B68181585D2833E84879B9709143E1F593F0000001 DUP3 PUSH1 0x0 SHR LT PUSH3 0x50E JUMPI PUSH1 0x40 MLOAD PUSH32 0x8C379A000000000000000000000000000000000000000000000000000000000 DUP2 MSTORE PUSH1 0x4 ADD DUP1 DUP1 PUSH1 0x20 ADD DUP3 DUP2 SUB DUP3 MSTORE PUSH1 0x21 DUP2 MSTORE PUSH1 0x20 ADD DUP1 PUSH3 0x5137 PUSH1 0x21 SWAP2 CODECOPY PUSH1 0x40 ADD SWAP2 POP POP PUSH1 0x40 MLOAD DUP1 SWAP2 SUB SWAP1 REVERT JUMPDEST PUSH1 0x0 DUP4 PUSH1 0x0 SHR SWAP1 POP PUSH1 0x0 DUP1 SWAP1 POP PUSH20 0x0 PUSH4 0xF47D33B5 DUP4 DUP4 PUSH1 0x40 MLOAD DUP4 PUSH4 0xFFFFFFFF AND PUSH1 0xE0 SHL DUP2 MSTORE PUSH1 0x4 ADD DUP1 DUP4 DUP2 MSTORE PUSH1 0x20 ADD DUP3 DUP2 MSTORE PUSH1 0x20 ADD SWAP3 POP POP POP PUSH1 0x40 DUP1 MLOAD DUP1 DUP4 SUB DUP2 DUP7 DUP1 EXTCODESIZE ISZERO DUP1 ISZERO PUSH3 0x572 JUMPI PUSH1 0x0 DUP1 REVERT JUMPDEST POP GAS DELEGATECALL ISZERO DUP1 ISZERO PUSH3 0x587 JUMPI RETURNDATASIZE PUSH1 0x0 DUP1 RETURNDATACOPY RETURNDATASIZE PUSH1 0x0 REVERT JUMPDEST POP POP POP POP PUSH1 0x40 MLOAD RETURNDATASIZE PUSH1 0x40 DUP2 LT ISZERO PUSH3 0x59E JUMPI PUSH1 0x0 DUP1 REVERT JUMPDEST DUP2 ADD SWAP1 DUP1 DUP1 MLOAD SWAP1 PUSH1 0x20 ADD SWAP1 SWAP3 SWAP2 SWAP1 DUP1 MLOAD SWAP1 PUSH1 0x20 ADD SWAP1 SWAP3 SWAP2 SWAP1 POP POP POP DUP1 SWAP3 POP DUP2 SWAP4 POP POP POP PUSH32 0x30644E72E131A029B85045B68181585D2833E84879B9709143E1F593F0000001 DUP1 PUSH3 0x5EA JUMPI INVALID JUMPDEST DUP5 PUSH1 0x0 SHR DUP4 ADDMOD SWAP2 POP PUSH20 0x0 PUSH4 0xF47D33B5 DUP4 DUP4 PUSH1 0x40 MLOAD DUP4 PUSH4 0xFFFFFFFF AND PUSH1 0xE0 SHL DUP2 MSTORE PUSH1 0x4 ADD DUP1 DUP4 DUP2 MSTORE PUSH1 0x20 ADD DUP3 DUP2 MSTORE PUSH1 0x20 ADD SWAP3 POP POP POP PUSH1 0x40 DUP1 MLOAD DUP1 DUP4 SUB DUP2 DUP7 DUP1 EXTCODESIZE ISZERO DUP1 ISZERO PUSH3 0x649 JUMPI PUSH1 0x0 DUP1 REVERT JUMPDEST POP GAS DELEGATECALL ISZERO DUP1 ISZERO PUSH3 0x65E JUMPI RETURNDATASIZE PUSH1 0x0 DUP1 RETURNDATACOPY RETURNDATASIZE PUSH1 0x0 REVERT JUMPDEST POP POP POP POP PUSH1 0x40 MLOAD RETURNDATASIZE PUSH1 0x40 DUP2 LT ISZERO PUSH3 0x675 JUMPI PUSH1 0x0 DUP1 REVERT JUMPDEST DUP2 ADD SWAP1 DUP1 DUP1 MLOAD SWAP1 PUSH1 0x20 ADD SWAP1 SWAP3 SWAP2 SWAP1 DUP1 MLOAD SWAP1 PUSH1 0x20 ADD SWAP1 SWAP3 SWAP2 SWAP1 POP POP POP DUP1 SWAP3 POP DUP2 SWAP4 POP POP POP DUP2 PUSH1 0x0 SHL SWAP3 POP POP POP SWAP3 SWAP2 POP POP JUMP JUMPDEST DUP3 PUSH1 0x5 DUP2 ADD SWAP3 DUP3 ISZERO PUSH3 0x6DD JUMPI SWAP2 PUSH1 0x20 MUL DUP3 ADD JUMPDEST DUP3 DUP2 GT ISZERO PUSH3 0x6DC JUMPI DUP3 MLOAD DUP3 SWAP1 PUSH1 0xFF AND SWAP1 SSTORE SWAP2 PUSH1 0x20 ADD SWAP2 SWAP1 PUSH1 0x1 ADD SWAP1 PUSH3 0x6BA JUMP JUMPDEST JUMPDEST POP SWAP1 POP PUSH3 0x6EC SWAP2 SWAP1 PUSH3 0x772 JUMP JUMPDEST POP SWAP1 JUMP JUMPDEST DUP3 PUSH1 0x4 DUP2 ADD SWAP3 DUP3 ISZERO PUSH3 0x75F JUMPI SWAP2 PUSH1 0x20 MUL DUP3 ADD JUMPDEST DUP3 DUP2 GT ISZERO PUSH3 0x75E JUMPI DUP3 MLOAD DUP3 PUSH1 0x0 PUSH2 0x100 EXP DUP2 SLOAD DUP2 PUSH20 0xFFFFFFFFFFFFFFFFFFFFFFFFFFFFFFFFFFFFFFFF MUL NOT AND SWAP1 DUP4 PUSH20 0xFFFFFFFFFFFFFFFFFFFFFFFFFFFFFFFFFFFFFFFF AND MUL OR SWAP1 SSTORE POP SWAP2 PUSH1 0x20 ADD SWAP2 SWAP1 PUSH1 0x1 ADD SWAP1 PUSH3 0x704 JUMP JUMPDEST JUMPDEST POP SWAP1 POP PUSH3 0x76E SWAP2 SWAP1 PUSH3 0x79A JUMP JUMPDEST POP SWAP1 JUMP JUMPDEST PUSH3 0x797 SWAP2 SWAP1 JUMPDEST DUP1 DUP3 GT ISZERO PUSH3 0x793 JUMPI PUSH1 0x0 DUP2 PUSH1 0x0 SWAP1 SSTORE POP PUSH1 0x1 ADD PUSH3 0x779 JUMP JUMPDEST POP SWAP1 JUMP JUMPDEST SWAP1 JUMP JUMPDEST PUSH3 0x7DD SWAP2 SWAP1 JUMPDEST DUP1 DUP3 GT ISZERO PUSH3 0x7D9 JUMPI PUSH1 0x0 DUP2 DUP2 PUSH2 0x100 EXP DUP2 SLOAD SWAP1 PUSH20 0xFFFFFFFFFFFFFFFFFFFFFFFFFFFFFFFFFFFFFFFF MUL NOT AND SWAP1 SSTORE POP PUSH1 0x1 ADD PUSH3 0x7A1 JUMP JUMPDEST POP SWAP1 JUMP JUMPDEST SWAP1 JUMP JUMPDEST PUSH2 0x4947 DUP1 PUSH3 0x7F0 PUSH1 0x0 CODECOPY PUSH1 0x0 RETURN INVALID PUSH1 0x80 PUSH1 0x40 MSTORE PUSH1 0x4 CALLDATASIZE LT PUSH2 0x2FF JUMPI PUSH1 0x0 CALLDATALOAD PUSH1 0xE0 SHR DUP1 PUSH4 0x8D949D4B GT PUSH2 0x190 JUMPI DUP1 PUSH4 0xCA093047 GT PUSH2 0xDC JUMPI DUP1 PUSH4 0xE8295588 GT PUSH2 0x95 JUMPI DUP1 PUSH4 0xF178E47C GT PUSH2 0x6F JUMPI DUP1 PUSH4 0xF178E47C EQ PUSH2 0x102A JUMPI DUP1 PUSH4 0xF6BE71D1 EQ PUSH2 0x1079 JUMPI DUP1 PUSH4 0xFC0C546A EQ PUSH2 0x10B4 JUMPI DUP1 PUSH4 0xFC7E9C6F EQ PUSH2 0x110B JUMPI PUSH2 0x2FF JUMP JUMPDEST DUP1 PUSH4 0xE8295588 EQ PUSH2 0xF85 JUMPI DUP1 PUSH4 0xEC732959 EQ PUSH2 0xFD4 JUMPI DUP1 PUSH4 0xECAA6503 EQ PUSH2 0xFFF JUMPI PUSH2 0x2FF JUMP JUMPDEST DUP1 PUSH4 0xCA093047 EQ PUSH2 0xE07 JUMPI DUP1 PUSH4 0xCA13D4E6 EQ PUSH2 0xE56 JUMPI DUP1 PUSH4 0xCD87A3B4 EQ PUSH2 0xEA7 JUMPI DUP1 PUSH4 0xD27C1824 EQ PUSH2 0xEDE JUMPI DUP1 PUSH4 0xD3129BE4 EQ PUSH2 0xF09 JUMPI DUP1 PUSH4 0xE811F50A EQ PUSH2 0xF5A JUMPI PUSH2 0x2FF JUMP JUMPDEST DUP1 PUSH4 0xA9F8D181 GT PUSH2 0x149 JUMPI DUP1 PUSH4 0xB214FAA5 GT PUSH2 0x123 JUMPI DUP1 PUSH4 0xB214FAA5 EQ PUSH2 0xCF8 JUMPI DUP1 PUSH4 0xB4A61FAA EQ PUSH2 0xD62 JUMPI DUP1 PUSH4 0xBA70F757 EQ PUSH2 0xD8D JUMPI DUP1 PUSH4 0xC2B40AE4 EQ PUSH2 0xDB8 JUMPI PUSH2 0x2FF JUMP JUMPDEST DUP1 PUSH4 0xA9F8D181 EQ PUSH2 0xC51 JUMPI DUP1 PUSH4 0xAF324076 EQ PUSH2 0xC7C JUMPI DUP1 PUSH4 0xB14F2A39 EQ PUSH2 0xCA7 JUMPI PUSH2 0x2FF JUMP JUMPDEST DUP1 PUSH4 0x8D949D4B EQ PUSH2 0xB21 JUMPI DUP1 PUSH4 0x8DAAC0DF EQ PUSH2 0xB38 JUMPI DUP1 PUSH4 0x90EEB02B EQ PUSH2 0xB73 JUMPI DUP1 PUSH4 0x9709A6FD EQ PUSH2 0xBAA JUMPI DUP1 PUSH4 0x97FC007C EQ PUSH2 0xBD5 JUMPI DUP1 PUSH4 0x997318EC EQ PUSH2 0xC26 JUMPI PUSH2 0x2FF JUMP JUMPDEST DUP1 PUSH4 0x445CD696 GT PUSH2 0x24F JUMPI DUP1 PUSH4 0x6C081396 GT PUSH2 0x208 JUMPI DUP1 PUSH4 0x75DDC9ED GT PUSH2 0x1E2 JUMPI DUP1 PUSH4 0x75DDC9ED EQ PUSH2 0xA11 JUMPI DUP1 PUSH4 0x7CE3489B EQ PUSH2 0xA68 JUMPI DUP1 PUSH4 0x839DF945 EQ PUSH2 0xAA3 JUMPI DUP1 PUSH4 0x8AE39CAC EQ PUSH2 0xAF6 JUMPI PUSH2 0x2FF JUMP JUMPDEST DUP1 PUSH4 0x6C081396 EQ PUSH2 0x8E2 JUMPI DUP1 PUSH4 0x6C23CD68 EQ PUSH2 0x993 JUMPI DUP1 PUSH4 0x6D9833E3 EQ PUSH2 0x9BE JUMPI PUSH2 0x2FF JUMP JUMPDEST DUP1 PUSH4 0x445CD696 EQ PUSH2 0x6E7 JUMPI DUP1 PUSH4 0x4B3E7811 EQ PUSH2 0x736 JUMPI DUP1 PUSH4 0x4ECF518B EQ PUSH2 0x799 JUMPI DUP1 PUSH4 0x5129B3E1 EQ PUSH2 0x7D0 JUMPI DUP1 PUSH4 0x54FD4D50 EQ PUSH2 0x7FB JUMPI DUP1 PUSH4 0x61D027B3 EQ PUSH2 0x88B JUMPI PUSH2 0x2FF JUMP JUMPDEST DUP1 PUSH4 0x2D0EC0FF GT PUSH2 0x2BC JUMPI DUP1 PUSH4 0x34D6A7BF GT PUSH2 0x296 JUMPI DUP1 PUSH4 0x34D6A7BF EQ PUSH2 0x5E1 JUMPI DUP1 PUSH4 0x38BF282E EQ PUSH2 0x638 JUMPI DUP1 PUSH4 0x3B406FB7 EQ PUSH2 0x691 JUMPI DUP1 PUSH4 0x414A37BA EQ PUSH2 0x6BC JUMPI PUSH2 0x2FF JUMP JUMPDEST DUP1 PUSH4 0x2D0EC0FF EQ PUSH2 0x574 JUMPI DUP1 PUSH4 0x3409038C EQ PUSH2 0x59F JUMPI DUP1 PUSH4 0x34749D22 EQ PUSH2 0x5CA JUMPI PUSH2 0x2FF JUMP JUMPDEST DUP1 PUSH4 0x1694505E EQ PUSH2 0x304 JUMPI DUP1 PUSH4 0x21A0ADB6 EQ PUSH2 0x35B JUMPI DUP1 PUSH4 0x22217CD3 EQ PUSH2 0x43C JUMPI DUP1 PUSH4 0x29A5967E EQ PUSH2 0x467 JUMPI DUP1 PUSH4 0x2A48235B EQ PUSH2 0x4A2 JUMPI DUP1 PUSH4 0x2B7AC3F3 EQ PUSH2 0x51D JUMPI JUMPDEST PUSH1 0x0 DUP1 REVERT JUMPDEST CALLVALUE DUP1 ISZERO PUSH2 0x310 JUMPI PUSH1 0x0 DUP1 REVERT JUMPDEST POP PUSH2 0x319 PUSH2 0x1142 JUMP JUMPDEST PUSH1 0x40 MLOAD DUP1 DUP3 PUSH20 0xFFFFFFFFFFFFFFFFFFFFFFFFFFFFFFFFFFFFFFFF AND PUSH20 0xFFFFFFFFFFFFFFFFFFFFFFFFFFFFFFFFFFFFFFFF AND DUP2 MSTORE PUSH1 0x20 ADD SWAP2 POP POP PUSH1 0x40 MLOAD DUP1 SWAP2 SUB SWAP1 RETURN JUMPDEST PUSH2 0x43A PUSH1 0x4 DUP1 CALLDATASIZE SUB PUSH1 0xE0 DUP2 LT ISZERO PUSH2 0x371 JUMPI PUSH1 0x0 DUP1 REVERT JUMPDEST DUP2 ADD SWAP1 DUP1 DUP1 CALLDATALOAD SWAP1 PUSH1 0x20 ADD SWAP1 PUSH5 0x100000000 DUP2 GT ISZERO PUSH2 0x38E JUMPI PUSH1 0x0 DUP1 REVERT JUMPDEST DUP3 ADD DUP4 PUSH1 0x20 DUP3 ADD GT ISZERO PUSH2 0x3A0 JUMPI PUSH1 0x0 DUP1 REVERT JUMPDEST DUP1 CALLDATALOAD SWAP1 PUSH1 0x20 ADD SWAP2 DUP5 PUSH1 0x1 DUP4 MUL DUP5 ADD GT PUSH5 0x100000000 DUP4 GT OR ISZERO PUSH2 0x3C2 JUMPI PUSH1 0x0 DUP1 REVERT JUMPDEST SWAP1 SWAP2 SWAP3 SWAP4 SWAP2 SWAP3 SWAP4 SWAP1 DUP1 CALLDATALOAD SWAP1 PUSH1 0x20 ADD SWAP1 SWAP3 SWAP2 SWAP1 DUP1 CALLDATALOAD SWAP1 PUSH1 0x20 ADD SWAP1 SWAP3 SWAP2 SWAP1 DUP1 CALLDATALOAD PUSH20 0xFFFFFFFFFFFFFFFFFFFFFFFFFFFFFFFFFFFFFFFF AND SWAP1 PUSH1 0x20 ADD SWAP1 SWAP3 SWAP2 SWAP1 DUP1 CALLDATALOAD PUSH20 0xFFFFFFFFFFFFFFFFFFFFFFFFFFFFFFFFFFFFFFFF AND SWAP1 PUSH1 0x20 ADD SWAP1 SWAP3 SWAP2 SWAP1 DUP1 CALLDATALOAD SWAP1 PUSH1 0x20 ADD SWAP1 SWAP3 SWAP2 SWAP1 DUP1 CALLDATALOAD SWAP1 PUSH1 0x20 ADD SWAP1 SWAP3 SWAP2 SWAP1 POP POP POP PUSH2 0x1168 JUMP JUMPDEST STOP JUMPDEST CALLVALUE DUP1 ISZERO PUSH2 0x448 JUMPI PUSH1 0x0 DUP1 REVERT JUMPDEST POP PUSH2 0x451 PUSH2 0x1923 JUMP JUMPDEST PUSH1 0x40 MLOAD DUP1 DUP3 DUP2 MSTORE PUSH1 0x20 ADD SWAP2 POP POP PUSH1 0x40 MLOAD DUP1 SWAP2 SUB SWAP1 RETURN JUMPDEST CALLVALUE DUP1 ISZERO PUSH2 0x473 JUMPI PUSH1 0x0 DUP1 REVERT JUMPDEST POP PUSH2 0x4A0 PUSH1 0x4 DUP1 CALLDATASIZE SUB PUSH1 0x20 DUP2 LT ISZERO PUSH2 0x48A JUMPI PUSH1 0x0 DUP1 REVERT JUMPDEST DUP2 ADD SWAP1 DUP1 DUP1 CALLDATALOAD SWAP1 PUSH1 0x20 ADD SWAP1 SWAP3 SWAP2 SWAP1 POP POP POP PUSH2 0x19A1 JUMP JUMPDEST STOP JUMPDEST CALLVALUE DUP1 ISZERO PUSH2 0x4AE JUMPI PUSH1 0x0 DUP1 REVERT JUMPDEST POP PUSH2 0x4DB PUSH1 0x4 DUP1 CALLDATASIZE SUB PUSH1 0x20 DUP2 LT ISZERO PUSH2 0x4C5 JUMPI PUSH1 0x0 DUP1 REVERT JUMPDEST DUP2 ADD SWAP1 DUP1 DUP1 CALLDATALOAD SWAP1 PUSH1 0x20 ADD SWAP1 SWAP3 SWAP2 SWAP1 POP POP POP PUSH2 0x1A51 JUMP JUMPDEST PUSH1 0x40 MLOAD DUP1 DUP3 PUSH20 0xFFFFFFFFFFFFFFFFFFFFFFFFFFFFFFFFFFFFFFFF AND PUSH20 0xFFFFFFFFFFFFFFFFFFFFFFFFFFFFFFFFFFFFFFFF AND DUP2 MSTORE PUSH1 0x20 ADD SWAP2 POP POP PUSH1 0x40 MLOAD DUP1 SWAP2 SUB SWAP1 RETURN JUMPDEST CALLVALUE DUP1 ISZERO PUSH2 0x529 JUMPI PUSH1 0x0 DUP1 REVERT JUMPDEST POP PUSH2 0x532 PUSH2 0x1A84 JUMP JUMPDEST PUSH1 0x40 MLOAD DUP1 DUP3 PUSH20 0xFFFFFFFFFFFFFFFFFFFFFFFFFFFFFFFFFFFFFFFF AND PUSH20 0xFFFFFFFFFFFFFFFFFFFFFFFFFFFFFFFFFFFFFFFF AND DUP2 MSTORE PUSH1 0x20 ADD SWAP2 POP POP PUSH1 0x40 MLOAD DUP1 SWAP2 SUB SWAP1 RETURN JUMPDEST CALLVALUE DUP1 ISZERO PUSH2 0x580 JUMPI PUSH1 0x0 DUP1 REVERT JUMPDEST POP PUSH2 0x589 PUSH2 0x1AAA JUMP JUMPDEST PUSH1 0x40 MLOAD DUP1 DUP3 DUP2 MSTORE PUSH1 0x20 ADD SWAP2 POP POP PUSH1 0x40 MLOAD DUP1 SWAP2 SUB SWAP1 RETURN JUMPDEST CALLVALUE DUP1 ISZERO PUSH2 0x5AB JUMPI PUSH1 0x0 DUP1 REVERT JUMPDEST POP PUSH2 0x5B4 PUSH2 0x1AB0 JUMP JUMPDEST PUSH1 0x40 MLOAD DUP1 DUP3 DUP2 MSTORE PUSH1 0x20 ADD SWAP2 POP POP PUSH1 0x40 MLOAD DUP1 SWAP2 SUB SWAP1 RETURN JUMPDEST CALLVALUE DUP1 ISZERO PUSH2 0x5D6 JUMPI PUSH1 0x0 DUP1 REVERT JUMPDEST POP PUSH2 0x5DF PUSH2 0x1AB6 JUMP JUMPDEST STOP JUMPDEST CALLVALUE DUP1 ISZERO PUSH2 0x5ED JUMPI PUSH1 0x0 DUP1 REVERT JUMPDEST POP PUSH2 0x5F6 PUSH2 0x1B66 JUMP JUMPDEST PUSH1 0x40 MLOAD DUP1 DUP3 PUSH20 0xFFFFFFFFFFFFFFFFFFFFFFFFFFFFFFFFFFFFFFFF AND PUSH20 0xFFFFFFFFFFFFFFFFFFFFFFFFFFFFFFFFFFFFFFFF AND DUP2 MSTORE PUSH1 0x20 ADD SWAP2 POP POP PUSH1 0x40 MLOAD DUP1 SWAP2 SUB SWAP1 RETURN JUMPDEST CALLVALUE DUP1 ISZERO PUSH2 0x644 JUMPI PUSH1 0x0 DUP1 REVERT JUMPDEST POP PUSH2 0x67B PUSH1 0x4 DUP1 CALLDATASIZE SUB PUSH1 0x40 DUP2 LT ISZERO PUSH2 0x65B JUMPI PUSH1 0x0 DUP1 REVERT JUMPDEST DUP2 ADD SWAP1 DUP1 DUP1 CALLDATALOAD SWAP1 PUSH1 0x20 ADD SWAP1 SWAP3 SWAP2 SWAP1 DUP1 CALLDATALOAD SWAP1 PUSH1 0x20 ADD SWAP1 SWAP3 SWAP2 SWAP1 POP POP POP PUSH2 0x1B8C JUMP JUMPDEST PUSH1 0x40 MLOAD DUP1 DUP3 DUP2 MSTORE PUSH1 0x20 ADD SWAP2 POP POP PUSH1 0x40 MLOAD DUP1 SWAP2 SUB SWAP1 RETURN JUMPDEST CALLVALUE DUP1 ISZERO PUSH2 0x69D JUMPI PUSH1 0x0 DUP1 REVERT JUMPDEST POP PUSH2 0x6A6 PUSH2 0x1E32 JUMP JUMPDEST PUSH1 0x40 MLOAD DUP1 DUP3 DUP2 MSTORE PUSH1 0x20 ADD SWAP2 POP POP PUSH1 0x40 MLOAD DUP1 SWAP2 SUB SWAP1 RETURN JUMPDEST CALLVALUE DUP1 ISZERO PUSH2 0x6C8 JUMPI PUSH1 0x0 DUP1 REVERT JUMPDEST POP PUSH2 0x6D1 PUSH2 0x1E38 JUMP JUMPDEST PUSH1 0x40 MLOAD DUP1 DUP3 DUP2 MSTORE PUSH1 0x20 ADD SWAP2 POP POP PUSH1 0x40 MLOAD DUP1 SWAP2 SUB SWAP1 RETURN JUMPDEST CALLVALUE DUP1 ISZERO PUSH2 0x6F3 JUMPI PUSH1 0x0 DUP1 REVERT JUMPDEST POP PUSH2 0x720 PUSH1 0x4 DUP1 CALLDATASIZE SUB PUSH1 0x20 DUP2 LT ISZERO PUSH2 0x70A JUMPI PUSH1 0x0 DUP1 REVERT JUMPDEST DUP2 ADD SWAP1 DUP1 DUP1 CALLDATALOAD SWAP1 PUSH1 0x20 ADD SWAP1 SWAP3 SWAP2 SWAP1 POP POP POP PUSH2 0x1E5C JUMP JUMPDEST PUSH1 0x40 MLOAD DUP1 DUP3 DUP2 MSTORE PUSH1 0x20 ADD SWAP2 POP POP PUSH1 0x40 MLOAD DUP1 SWAP2 SUB SWAP1 RETURN JUMPDEST CALLVALUE DUP1 ISZERO PUSH2 0x742 JUMPI PUSH1 0x0 DUP1 REVERT JUMPDEST POP PUSH2 0x797 PUSH1 0x4 DUP1 CALLDATASIZE SUB PUSH1 0xA0 DUP2 LT ISZERO PUSH2 0x759 JUMPI PUSH1 0x0 DUP1 REVERT JUMPDEST DUP2 ADD SWAP1 DUP1 DUP1 CALLDATALOAD SWAP1 PUSH1 0x20 ADD SWAP1 SWAP3 SWAP2 SWAP1 DUP1 CALLDATALOAD SWAP1 PUSH1 0x20 ADD SWAP1 SWAP3 SWAP2 SWAP1 DUP1 CALLDATALOAD SWAP1 PUSH1 0x20 ADD SWAP1 SWAP3 SWAP2 SWAP1 DUP1 CALLDATALOAD SWAP1 PUSH1 0x20 ADD SWAP1 SWAP3 SWAP2 SWAP1 DUP1 CALLDATALOAD SWAP1 PUSH1 0x20 ADD SWAP1 SWAP3 SWAP2 SWAP1 POP POP POP PUSH2 0x1E74 JUMP JUMPDEST STOP JUMPDEST CALLVALUE DUP1 ISZERO PUSH2 0x7A5 JUMPI PUSH1 0x0 DUP1 REVERT JUMPDEST POP PUSH2 0x7AE PUSH2 0x1FD7 JUMP JUMPDEST PUSH1 0x40 MLOAD DUP1 DUP3 PUSH4 0xFFFFFFFF AND PUSH4 0xFFFFFFFF AND DUP2 MSTORE PUSH1 0x20 ADD SWAP2 POP POP PUSH1 0x40 MLOAD DUP1 SWAP2 SUB SWAP1 RETURN JUMPDEST CALLVALUE DUP1 ISZERO PUSH2 0x7DC JUMPI PUSH1 0x0 DUP1 REVERT JUMPDEST POP PUSH2 0x7E5 PUSH2 0x1FEC JUMP JUMPDEST PUSH1 0x40 MLOAD DUP1 DUP3 DUP2 MSTORE PUSH1 0x20 ADD SWAP2 POP POP PUSH1 0x40 MLOAD DUP1 SWAP2 SUB SWAP1 RETURN JUMPDEST CALLVALUE DUP1 ISZERO PUSH2 0x807 JUMPI PUSH1 0x0 DUP1 REVERT JUMPDEST POP PUSH2 0x810 PUSH2 0x1FF2 JUMP JUMPDEST PUSH1 0x40 MLOAD DUP1 DUP1 PUSH1 0x20 ADD DUP3 DUP2 SUB DUP3 MSTORE DUP4 DUP2 DUP2 MLOAD DUP2 MSTORE PUSH1 0x20 ADD SWAP2 POP DUP1 MLOAD SWAP1 PUSH1 0x20 ADD SWAP1 DUP1 DUP4 DUP4 PUSH1 0x0 JUMPDEST DUP4 DUP2 LT ISZERO PUSH2 0x850 JUMPI DUP1 DUP3 ADD MLOAD DUP2 DUP5 ADD MSTORE PUSH1 0x20 DUP2 ADD SWAP1 POP PUSH2 0x835 JUMP JUMPDEST POP POP POP POP SWAP1 POP SWAP1 DUP2 ADD SWAP1 PUSH1 0x1F AND DUP1 ISZERO PUSH2 0x87D JUMPI DUP1 DUP3 SUB DUP1 MLOAD PUSH1 0x1 DUP4 PUSH1 0x20 SUB PUSH2 0x100 EXP SUB NOT AND DUP2 MSTORE PUSH1 0x20 ADD SWAP2 POP JUMPDEST POP SWAP3 POP POP POP PUSH1 0x40 MLOAD DUP1 SWAP2 SUB SWAP1 RETURN JUMPDEST CALLVALUE DUP1 ISZERO PUSH2 0x897 JUMPI PUSH1 0x0 DUP1 REVERT JUMPDEST POP PUSH2 0x8A0 PUSH2 0x202F JUMP JUMPDEST PUSH1 0x40 MLOAD DUP1 DUP3 PUSH20 0xFFFFFFFFFFFFFFFFFFFFFFFFFFFFFFFFFFFFFFFF AND PUSH20 0xFFFFFFFFFFFFFFFFFFFFFFFFFFFFFFFFFFFFFFFF AND DUP2 MSTORE PUSH1 0x20 ADD SWAP2 POP POP PUSH1 0x40 MLOAD DUP1 SWAP2 SUB SWAP1 RETURN JUMPDEST CALLVALUE DUP1 ISZERO PUSH2 0x8EE JUMPI PUSH1 0x0 DUP1 REVERT JUMPDEST POP PUSH2 0x991 PUSH1 0x4 DUP1 CALLDATASIZE SUB PUSH1 0x80 DUP2 LT ISZERO PUSH2 0x905 JUMPI PUSH1 0x0 DUP1 REVERT JUMPDEST DUP2 ADD SWAP1 DUP1 DUP1 CALLDATALOAD PUSH20 0xFFFFFFFFFFFFFFFFFFFFFFFFFFFFFFFFFFFFFFFF AND SWAP1 PUSH1 0x20 ADD SWAP1 SWAP3 SWAP2 SWAP1 DUP1 CALLDATALOAD PUSH20 0xFFFFFFFFFFFFFFFFFFFFFFFFFFFFFFFFFFFFFFFF AND SWAP1 PUSH1 0x20 ADD SWAP1 SWAP3 SWAP2 SWAP1 DUP1 CALLDATALOAD PUSH20 0xFFFFFFFFFFFFFFFFFFFFFFFFFFFFFFFFFFFFFFFF AND SWAP1 PUSH1 0x20 ADD SWAP1 SWAP3 SWAP2 SWAP1 DUP1 CALLDATALOAD PUSH20 0xFFFFFFFFFFFFFFFFFFFFFFFFFFFFFFFFFFFFFFFF AND SWAP1 PUSH1 0x20 ADD SWAP1 SWAP3 SWAP2 SWAP1 POP POP POP PUSH2 0x2055 JUMP JUMPDEST STOP JUMPDEST CALLVALUE DUP1 ISZERO PUSH2 0x99F JUMPI PUSH1 0x0 DUP1 REVERT JUMPDEST POP PUSH2 0x9A8 PUSH2 0x2331 JUMP JUMPDEST PUSH1 0x40 MLOAD DUP1 DUP3 DUP2 MSTORE PUSH1 0x20 ADD SWAP2 POP POP PUSH1 0x40 MLOAD DUP1 SWAP2 SUB SWAP1 RETURN JUMPDEST CALLVALUE DUP1 ISZERO PUSH2 0x9CA JUMPI PUSH1 0x0 DUP1 REVERT JUMPDEST POP PUSH2 0x9F7 PUSH1 0x4 DUP1 CALLDATASIZE SUB PUSH1 0x20 DUP2 LT ISZERO PUSH2 0x9E1 JUMPI PUSH1 0x0 DUP1 REVERT JUMPDEST DUP2 ADD SWAP1 DUP1 DUP1 CALLDATALOAD SWAP1 PUSH1 0x20 ADD SWAP1 SWAP3 SWAP2 SWAP1 POP POP POP PUSH2 0x2337 JUMP JUMPDEST PUSH1 0x40 MLOAD DUP1 DUP3 ISZERO ISZERO ISZERO ISZERO DUP2 MSTORE PUSH1 0x20 ADD SWAP2 POP POP PUSH1 0x40 MLOAD DUP1 SWAP2 SUB SWAP1 RETURN JUMPDEST CALLVALUE DUP1 ISZERO PUSH2 0xA1D JUMPI PUSH1 0x0 DUP1 REVERT JUMPDEST POP PUSH2 0xA26 PUSH2 0x23D9 JUMP JUMPDEST PUSH1 0x40 MLOAD DUP1 DUP3 PUSH20 0xFFFFFFFFFFFFFFFFFFFFFFFFFFFFFFFFFFFFFFFF AND PUSH20 0xFFFFFFFFFFFFFFFFFFFFFFFFFFFFFFFFFFFFFFFF AND DUP2 MSTORE PUSH1 0x20 ADD SWAP2 POP POP PUSH1 0x40 MLOAD DUP1 SWAP2 SUB SWAP1 RETURN JUMPDEST CALLVALUE DUP1 ISZERO PUSH2 0xA74 JUMPI PUSH1 0x0 DUP1 REVERT JUMPDEST POP PUSH2 0xAA1 PUSH1 0x4 DUP1 CALLDATASIZE SUB PUSH1 0x20 DUP2 LT ISZERO PUSH2 0xA8B JUMPI PUSH1 0x0 DUP1 REVERT JUMPDEST DUP2 ADD SWAP1 DUP1 DUP1 CALLDATALOAD SWAP1 PUSH1 0x20 ADD SWAP1 SWAP3 SWAP2 SWAP1 POP POP POP PUSH2 0x23FF JUMP JUMPDEST STOP JUMPDEST CALLVALUE DUP1 ISZERO PUSH2 0xAAF JUMPI PUSH1 0x0 DUP1 REVERT JUMPDEST POP PUSH2 0xADC PUSH1 0x4 DUP1 CALLDATASIZE SUB PUSH1 0x20 DUP2 LT ISZERO PUSH2 0xAC6 JUMPI PUSH1 0x0 DUP1 REVERT JUMPDEST DUP2 ADD SWAP1 DUP1 DUP1 CALLDATALOAD SWAP1 PUSH1 0x20 ADD SWAP1 SWAP3 SWAP2 SWAP1 POP POP POP PUSH2 0x253D JUMP JUMPDEST PUSH1 0x40 MLOAD DUP1 DUP3 ISZERO ISZERO ISZERO ISZERO DUP2 MSTORE PUSH1 0x20 ADD SWAP2 POP POP PUSH1 0x40 MLOAD DUP1 SWAP2 SUB SWAP1 RETURN JUMPDEST CALLVALUE DUP1 ISZERO PUSH2 0xB02 JUMPI PUSH1 0x0 DUP1 REVERT JUMPDEST POP PUSH2 0xB0B PUSH2 0x255D JUMP JUMPDEST PUSH1 0x40 MLOAD DUP1 DUP3 DUP2 MSTORE PUSH1 0x20 ADD SWAP2 POP POP PUSH1 0x40 MLOAD DUP1 SWAP2 SUB SWAP1 RETURN JUMPDEST CALLVALUE DUP1 ISZERO PUSH2 0xB2D JUMPI PUSH1 0x0 DUP1 REVERT JUMPDEST POP PUSH2 0xB36 PUSH2 0x2563 JUMP JUMPDEST STOP JUMPDEST CALLVALUE DUP1 ISZERO PUSH2 0xB44 JUMPI PUSH1 0x0 DUP1 REVERT JUMPDEST POP PUSH2 0xB71 PUSH1 0x4 DUP1 CALLDATASIZE SUB PUSH1 0x20 DUP2 LT ISZERO PUSH2 0xB5B JUMPI PUSH1 0x0 DUP1 REVERT JUMPDEST DUP2 ADD SWAP1 DUP1 DUP1 CALLDATALOAD SWAP1 PUSH1 0x20 ADD SWAP1 SWAP3 SWAP2 SWAP1 POP POP POP PUSH2 0x259B JUMP JUMPDEST STOP JUMPDEST CALLVALUE DUP1 ISZERO PUSH2 0xB7F JUMPI PUSH1 0x0 DUP1 REVERT JUMPDEST POP PUSH2 0xB88 PUSH2 0x268C JUMP JUMPDEST PUSH1 0x40 MLOAD DUP1 DUP3 PUSH4 0xFFFFFFFF AND PUSH4 0xFFFFFFFF AND DUP2 MSTORE PUSH1 0x20 ADD SWAP2 POP POP PUSH1 0x40 MLOAD DUP1 SWAP2 SUB SWAP1 RETURN JUMPDEST CALLVALUE DUP1 ISZERO PUSH2 0xBB6 JUMPI PUSH1 0x0 DUP1 REVERT JUMPDEST POP PUSH2 0xBBF PUSH2 0x26A2 JUMP JUMPDEST PUSH1 0x40 MLOAD DUP1 DUP3 DUP2 MSTORE PUSH1 0x20 ADD SWAP2 POP POP PUSH1 0x40 MLOAD DUP1 SWAP2 SUB SWAP1 RETURN JUMPDEST CALLVALUE DUP1 ISZERO PUSH2 0xBE1 JUMPI PUSH1 0x0 DUP1 REVERT JUMPDEST POP PUSH2 0xC24 PUSH1 0x4 DUP1 CALLDATASIZE SUB PUSH1 0x20 DUP2 LT ISZERO PUSH2 0xBF8 JUMPI PUSH1 0x0 DUP1 REVERT JUMPDEST DUP2 ADD SWAP1 DUP1 DUP1 CALLDATALOAD PUSH20 0xFFFFFFFFFFFFFFFFFFFFFFFFFFFFFFFFFFFFFFFF AND SWAP1 PUSH1 0x20 ADD SWAP1 SWAP3 SWAP2 SWAP1 POP POP POP PUSH2 0x279E JUMP JUMPDEST STOP JUMPDEST CALLVALUE DUP1 ISZERO PUSH2 0xC32 JUMPI PUSH1 0x0 DUP1 REVERT JUMPDEST POP PUSH2 0xC3B PUSH2 0x2888 JUMP JUMPDEST PUSH1 0x40 MLOAD DUP1 DUP3 DUP2 MSTORE PUSH1 0x20 ADD SWAP2 POP POP PUSH1 0x40 MLOAD DUP1 SWAP2 SUB SWAP1 RETURN JUMPDEST CALLVALUE DUP1 ISZERO PUSH2 0xC5D JUMPI PUSH1 0x0 DUP1 REVERT JUMPDEST POP PUSH2 0xC66 PUSH2 0x288E JUMP JUMPDEST PUSH1 0x40 MLOAD DUP1 DUP3 DUP2 MSTORE PUSH1 0x20 ADD SWAP2 POP POP PUSH1 0x40 MLOAD DUP1 SWAP2 SUB SWAP1 RETURN JUMPDEST CALLVALUE DUP1 ISZERO PUSH2 0xC88 JUMPI PUSH1 0x0 DUP1 REVERT JUMPDEST POP PUSH2 0xC91 PUSH2 0x2894 JUMP JUMPDEST PUSH1 0x40 MLOAD DUP1 DUP3 DUP2 MSTORE PUSH1 0x20 ADD SWAP2 POP POP PUSH1 0x40 MLOAD DUP1 SWAP2 SUB SWAP1 RETURN JUMPDEST CALLVALUE DUP1 ISZERO PUSH2 0xCB3 JUMPI PUSH1 0x0 DUP1 REVERT JUMPDEST POP PUSH2 0xCF6 PUSH1 0x4 DUP1 CALLDATASIZE SUB PUSH1 0x20 DUP2 LT ISZERO PUSH2 0xCCA JUMPI PUSH1 0x0 DUP1 REVERT JUMPDEST DUP2 ADD SWAP1 DUP1 DUP1 CALLDATALOAD PUSH20 0xFFFFFFFFFFFFFFFFFFFFFFFFFFFFFFFFFFFFFFFF AND SWAP1 PUSH1 0x20 ADD SWAP1 SWAP3 SWAP2 SWAP1 POP POP POP PUSH2 0x289A JUMP JUMPDEST STOP JUMPDEST PUSH2 0xD24 PUSH1 0x4 DUP1 CALLDATASIZE SUB PUSH1 0x20 DUP2 LT ISZERO PUSH2 0xD0E JUMPI PUSH1 0x0 DUP1 REVERT JUMPDEST DUP2 ADD SWAP1 DUP1 DUP1 CALLDATALOAD SWAP1 PUSH1 0x20 ADD SWAP1 SWAP3 SWAP2 SWAP1 POP POP POP PUSH2 0x2984 JUMP JUMPDEST PUSH1 0x40 MLOAD DUP1 DUP7 DUP2 MSTORE PUSH1 0x20 ADD DUP6 PUSH4 0xFFFFFFFF AND PUSH4 0xFFFFFFFF AND DUP2 MSTORE PUSH1 0x20 ADD DUP5 DUP2 MSTORE PUSH1 0x20 ADD DUP4 DUP2 MSTORE PUSH1 0x20 ADD DUP3 DUP2 MSTORE PUSH1 0x20 ADD SWAP6 POP POP POP POP POP POP PUSH1 0x40 MLOAD DUP1 SWAP2 SUB SWAP1 RETURN JUMPDEST CALLVALUE DUP1 ISZERO PUSH2 0xD6E JUMPI PUSH1 0x0 DUP1 REVERT JUMPDEST POP PUSH2 0xD77 PUSH2 0x2CDA JUMP JUMPDEST PUSH1 0x40 MLOAD DUP1 DUP3 DUP2 MSTORE PUSH1 0x20 ADD SWAP2 POP POP PUSH1 0x40 MLOAD DUP1 SWAP2 SUB SWAP1 RETURN JUMPDEST CALLVALUE DUP1 ISZERO PUSH2 0xD99 JUMPI PUSH1 0x0 DUP1 REVERT JUMPDEST POP PUSH2 0xDA2 PUSH2 0x2CE0 JUMP JUMPDEST PUSH1 0x40 MLOAD DUP1 DUP3 DUP2 MSTORE PUSH1 0x20 ADD SWAP2 POP POP PUSH1 0x40 MLOAD DUP1 SWAP2 SUB SWAP1 RETURN JUMPDEST CALLVALUE DUP1 ISZERO PUSH2 0xDC4 JUMPI PUSH1 0x0 DUP1 REVERT JUMPDEST POP PUSH2 0xDF1 PUSH1 0x4 DUP1 CALLDATASIZE SUB PUSH1 0x20 DUP2 LT ISZERO PUSH2 0xDDB JUMPI PUSH1 0x0 DUP1 REVERT JUMPDEST DUP2 ADD SWAP1 DUP1 DUP1 CALLDATALOAD SWAP1 PUSH1 0x20 ADD SWAP1 SWAP3 SWAP2 SWAP1 POP POP POP PUSH2 0x2D0E JUMP JUMPDEST PUSH1 0x40 MLOAD DUP1 DUP3 DUP2 MSTORE PUSH1 0x20 ADD SWAP2 POP POP PUSH1 0x40 MLOAD DUP1 SWAP2 SUB SWAP1 RETURN JUMPDEST CALLVALUE DUP1 ISZERO PUSH2 0xE13 JUMPI PUSH1 0x0 DUP1 REVERT JUMPDEST POP PUSH2 0xE40 PUSH1 0x4 DUP1 CALLDATASIZE SUB PUSH1 0x20 DUP2 LT ISZERO PUSH2 0xE2A JUMPI PUSH1 0x0 DUP1 REVERT JUMPDEST DUP2 ADD SWAP1 DUP1 DUP1 CALLDATALOAD SWAP1 PUSH1 0x20 ADD SWAP1 SWAP3 SWAP2 SWAP1 POP POP POP PUSH2 0x2D26 JUMP JUMPDEST PUSH1 0x40 MLOAD DUP1 DUP3 DUP2 MSTORE PUSH1 0x20 ADD SWAP2 POP POP PUSH1 0x40 MLOAD DUP1 SWAP2 SUB SWAP1 RETURN JUMPDEST CALLVALUE DUP1 ISZERO PUSH2 0xE62 JUMPI PUSH1 0x0 DUP1 REVERT JUMPDEST POP PUSH2 0xEA5 PUSH1 0x4 DUP1 CALLDATASIZE SUB PUSH1 0x20 DUP2 LT ISZERO PUSH2 0xE79 JUMPI PUSH1 0x0 DUP1 REVERT JUMPDEST DUP2 ADD SWAP1 DUP1 DUP1 CALLDATALOAD PUSH20 0xFFFFFFFFFFFFFFFFFFFFFFFFFFFFFFFFFFFFFFFF AND SWAP1 PUSH1 0x20 ADD SWAP1 SWAP3 SWAP2 SWAP1 POP POP POP PUSH2 0x2D3E JUMP JUMPDEST STOP JUMPDEST CALLVALUE DUP1 ISZERO PUSH2 0xEB3 JUMPI PUSH1 0x0 DUP1 REVERT JUMPDEST POP PUSH2 0xEBC PUSH2 0x2F31 JUMP JUMPDEST PUSH1 0x40 MLOAD DUP1 DUP3 PUSH4 0xFFFFFFFF AND PUSH4 0xFFFFFFFF AND DUP2 MSTORE PUSH1 0x20 ADD SWAP2 POP POP PUSH1 0x40 MLOAD DUP1 SWAP2 SUB SWAP1 RETURN JUMPDEST CALLVALUE DUP1 ISZERO PUSH2 0xEEA JUMPI PUSH1 0x0 DUP1 REVERT JUMPDEST POP PUSH2 0xEF3 PUSH2 0x2F36 JUMP JUMPDEST PUSH1 0x40 MLOAD DUP1 DUP3 DUP2 MSTORE PUSH1 0x20 ADD SWAP2 POP POP PUSH1 0x40 MLOAD DUP1 SWAP2 SUB SWAP1 RETURN JUMPDEST CALLVALUE DUP1 ISZERO PUSH2 0xF15 JUMPI PUSH1 0x0 DUP1 REVERT JUMPDEST POP PUSH2 0xF58 PUSH1 0x4 DUP1 CALLDATASIZE SUB PUSH1 0x20 DUP2 LT ISZERO PUSH2 0xF2C JUMPI PUSH1 0x0 DUP1 REVERT JUMPDEST DUP2 ADD SWAP1 DUP1 DUP1 CALLDATALOAD PUSH20 0xFFFFFFFFFFFFFFFFFFFFFFFFFFFFFFFFFFFFFFFF AND SWAP1 PUSH1 0x20 ADD SWAP1 SWAP3 SWAP2 SWAP1 POP POP POP PUSH2 0x2F3C JUMP JUMPDEST STOP JUMPDEST CALLVALUE DUP1 ISZERO PUSH2 0xF66 JUMPI PUSH1 0x0 DUP1 REVERT JUMPDEST POP PUSH2 0xF6F PUSH2 0x3026 JUMP JUMPDEST PUSH1 0x40 MLOAD DUP1 DUP3 DUP2 MSTORE PUSH1 0x20 ADD SWAP2 POP POP PUSH1 0x40 MLOAD DUP1 SWAP2 SUB SWAP1 RETURN JUMPDEST CALLVALUE DUP1 ISZERO PUSH2 0xF91 JUMPI PUSH1 0x0 DUP1 REVERT JUMPDEST POP PUSH2 0xFBE PUSH1 0x4 DUP1 CALLDATASIZE SUB PUSH1 0x20 DUP2 LT ISZERO PUSH2 0xFA8 JUMPI PUSH1 0x0 DUP1 REVERT JUMPDEST DUP2 ADD SWAP1 DUP1 DUP1 CALLDATALOAD SWAP1 PUSH1 0x20 ADD SWAP1 SWAP3 SWAP2 SWAP1 POP POP POP PUSH2 0x302C JUMP JUMPDEST PUSH1 0x40 MLOAD DUP1 DUP3 DUP2 MSTORE PUSH1 0x20 ADD SWAP2 POP POP PUSH1 0x40 MLOAD DUP1 SWAP2 SUB SWAP1 RETURN JUMPDEST CALLVALUE DUP1 ISZERO PUSH2 0xFE0 JUMPI PUSH1 0x0 DUP1 REVERT JUMPDEST POP PUSH2 0xFE9 PUSH2 0x304D JUMP JUMPDEST PUSH1 0x40 MLOAD DUP1 DUP3 DUP2 MSTORE PUSH1 0x20 ADD SWAP2 POP POP PUSH1 0x40 MLOAD DUP1 SWAP2 SUB SWAP1 RETURN JUMPDEST CALLVALUE DUP1 ISZERO PUSH2 0x100B JUMPI PUSH1 0x0 DUP1 REVERT JUMPDEST POP PUSH2 0x1014 PUSH2 0x3071 JUMP JUMPDEST PUSH1 0x40 MLOAD DUP1 DUP3 DUP2 MSTORE PUSH1 0x20 ADD SWAP2 POP POP PUSH1 0x40 MLOAD DUP1 SWAP2 SUB SWAP1 RETURN JUMPDEST CALLVALUE DUP1 ISZERO PUSH2 0x1036 JUMPI PUSH1 0x0 DUP1 REVERT JUMPDEST POP PUSH2 0x1063 PUSH1 0x4 DUP1 CALLDATASIZE SUB PUSH1 0x20 DUP2 LT ISZERO PUSH2 0x104D JUMPI PUSH1 0x0 DUP1 REVERT JUMPDEST DUP2 ADD SWAP1 DUP1 DUP1 CALLDATALOAD SWAP1 PUSH1 0x20 ADD SWAP1 SWAP3 SWAP2 SWAP1 POP POP POP PUSH2 0x3077 JUMP JUMPDEST PUSH1 0x40 MLOAD DUP1 DUP3 DUP2 MSTORE PUSH1 0x20 ADD SWAP2 POP POP PUSH1 0x40 MLOAD DUP1 SWAP2 SUB SWAP1 RETURN JUMPDEST CALLVALUE DUP1 ISZERO PUSH2 0x1085 JUMPI PUSH1 0x0 DUP1 REVERT JUMPDEST POP PUSH2 0x10B2 PUSH1 0x4 DUP1 CALLDATASIZE SUB PUSH1 0x20 DUP2 LT ISZERO PUSH2 0x109C JUMPI PUSH1 0x0 DUP1 REVERT JUMPDEST DUP2 ADD SWAP1 DUP1 DUP1 CALLDATALOAD SWAP1 PUSH1 0x20 ADD SWAP1 SWAP3 SWAP2 SWAP1 POP POP POP PUSH2 0x3098 JUMP JUMPDEST STOP JUMPDEST CALLVALUE DUP1 ISZERO PUSH2 0x10C0 JUMPI PUSH1 0x0 DUP1 REVERT JUMPDEST POP PUSH2 0x10C9 PUSH2 0x315A JUMP JUMPDEST PUSH1 0x40 MLOAD DUP1 DUP3 PUSH20 0xFFFFFFFFFFFFFFFFFFFFFFFFFFFFFFFFFFFFFFFF AND PUSH20 0xFFFFFFFFFFFFFFFFFFFFFFFFFFFFFFFFFFFFFFFF AND DUP2 MSTORE PUSH1 0x20 ADD SWAP2 POP POP PUSH1 0x40 MLOAD DUP1 SWAP2 SUB SWAP1 RETURN JUMPDEST CALLVALUE DUP1 ISZERO PUSH2 0x1117 JUMPI PUSH1 0x0 DUP1 REVERT JUMPDEST POP PUSH2 0x1120 PUSH2 0x3180 JUMP JUMPDEST PUSH1 0x40 MLOAD DUP1 DUP3 PUSH4 0xFFFFFFFF AND PUSH4 0xFFFFFFFF AND DUP2 MSTORE PUSH1 0x20 ADD SWAP2 POP POP PUSH1 0x40 MLOAD DUP1 SWAP2 SUB SWAP1 RETURN JUMPDEST PUSH1 0x8A PUSH1 0x0 SWAP1 SLOAD SWAP1 PUSH2 0x100 EXP SWAP1 DIV PUSH20 0xFFFFFFFFFFFFFFFFFFFFFFFFFFFFFFFFFFFFFFFF AND DUP2 JUMP JUMPDEST PUSH1 0x1 PUSH1 0x68 PUSH1 0x0 DUP3 DUP3 SLOAD ADD SWAP3 POP POP DUP2 SWAP1 SSTORE POP PUSH1 0x0 PUSH1 0x68 SLOAD SWAP1 POP PUSH1 0x0 DUP3 EQ PUSH2 0x11F6 JUMPI PUSH1 0x40 MLOAD PUSH32 0x8C379A000000000000000000000000000000000000000000000000000000000 DUP2 MSTORE PUSH1 0x4 ADD DUP1 DUP1 PUSH1 0x20 ADD DUP3 DUP2 SUB DUP3 MSTORE PUSH1 0x12 DUP2 MSTORE PUSH1 0x20 ADD DUP1 PUSH32 0x726566756E64206973206E6F74207A65726F0000000000000000000000000000 DUP2 MSTORE POP PUSH1 0x20 ADD SWAP2 POP POP PUSH1 0x40 MLOAD DUP1 SWAP2 SUB SWAP1 REVERT JUMPDEST PUSH2 0x11FF DUP6 PUSH2 0x3196 JUMP JUMPDEST ISZERO PUSH2 0x1272 JUMPI PUSH1 0x40 MLOAD PUSH32 0x8C379A000000000000000000000000000000000000000000000000000000000 DUP2 MSTORE PUSH1 0x4 ADD DUP1 DUP1 PUSH1 0x20 ADD DUP3 DUP2 SUB DUP3 MSTORE PUSH1 0x1F DUP2 MSTORE PUSH1 0x20 ADD DUP1 PUSH32 0x726563697069656E74206F662063616E6E6F7420626520636F6E747261637400 DUP2 MSTORE POP PUSH1 0x20 ADD SWAP2 POP POP PUSH1 0x40 MLOAD DUP1 SWAP2 SUB SWAP1 REVERT JUMPDEST PUSH2 0x127B DUP8 PUSH2 0x2337 JUMP JUMPDEST PUSH2 0x12ED JUMPI PUSH1 0x40 MLOAD PUSH32 0x8C379A000000000000000000000000000000000000000000000000000000000 DUP2 MSTORE PUSH1 0x4 ADD DUP1 DUP1 PUSH1 0x20 ADD DUP3 DUP2 SUB DUP3 MSTORE PUSH1 0x1C DUP2 MSTORE PUSH1 0x20 ADD DUP1 PUSH32 0x43616E6E6F742066696E6420796F7572206D65726B6C6520726F6F7400000000 DUP2 MSTORE POP PUSH1 0x20 ADD SWAP2 POP POP PUSH1 0x40 MLOAD DUP1 SWAP2 SUB SWAP1 REVERT JUMPDEST PUSH1 0x6D PUSH1 0x0 SWAP1 SLOAD SWAP1 PUSH2 0x100 EXP SWAP1 DIV PUSH20 0xFFFFFFFFFFFFFFFFFFFFFFFFFFFFFFFFFFFFFFFF AND PUSH20 0xFFFFFFFFFFFFFFFFFFFFFFFFFFFFFFFFFFFFFFFF AND PUSH4 0x695EF6F9 DUP11 DUP11 PUSH1 0x40 MLOAD DUP1 PUSH1 0xC0 ADD PUSH1 0x40 MSTORE DUP1 DUP13 PUSH1 0x0 SHR DUP2 MSTORE PUSH1 0x20 ADD DUP12 PUSH1 0x0 SHR DUP2 MSTORE PUSH1 0x20 ADD DUP11 PUSH20 0xFFFFFFFFFFFFFFFFFFFFFFFFFFFFFFFFFFFFFFFF AND DUP2 MSTORE PUSH1 0x20 ADD DUP10 PUSH20 0xFFFFFFFFFFFFFFFFFFFFFFFFFFFFFFFFFFFFFFFF AND DUP2 MSTORE PUSH1 0x20 ADD DUP9 DUP2 MSTORE PUSH1 0x20 ADD DUP8 DUP2 MSTORE POP PUSH1 0x40 MLOAD DUP5 PUSH4 0xFFFFFFFF AND PUSH1 0xE0 SHL DUP2 MSTORE PUSH1 0x4 ADD DUP1 DUP1 PUSH1 0x20 ADD DUP4 PUSH1 0x6 PUSH1 0x20 MUL DUP1 DUP4 DUP4 PUSH1 0x0 JUMPDEST DUP4 DUP2 LT ISZERO PUSH2 0x13CA JUMPI DUP1 DUP3 ADD MLOAD DUP2 DUP5 ADD MSTORE PUSH1 0x20 DUP2 ADD SWAP1 POP PUSH2 0x13AF JUMP JUMPDEST POP POP POP POP SWAP1 POP ADD DUP3 DUP2 SUB DUP3 MSTORE DUP6 DUP6 DUP3 DUP2 DUP2 MSTORE PUSH1 0x20 ADD SWAP3 POP DUP1 DUP3 DUP5 CALLDATACOPY PUSH1 0x0 DUP2 DUP5 ADD MSTORE PUSH1 0x1F NOT PUSH1 0x1F DUP3 ADD AND SWAP1 POP DUP1 DUP4 ADD SWAP3 POP POP POP SWAP5 POP POP POP POP POP PUSH1 0x20 PUSH1 0x40 MLOAD DUP1 DUP4 SUB DUP2 PUSH1 0x0 DUP8 DUP1 EXTCODESIZE ISZERO DUP1 ISZERO PUSH2 0x141C JUMPI PUSH1 0x0 DUP1 REVERT JUMPDEST POP GAS CALL ISZERO DUP1 ISZERO PUSH2 0x1430 JUMPI RETURNDATASIZE PUSH1 0x0 DUP1 RETURNDATACOPY RETURNDATASIZE PUSH1 0x0 REVERT JUMPDEST POP POP POP POP PUSH1 0x40 MLOAD RETURNDATASIZE PUSH1 0x20 DUP2 LT ISZERO PUSH2 0x1446 JUMPI PUSH1 0x0 DUP1 REVERT JUMPDEST DUP2 ADD SWAP1 DUP1 DUP1 MLOAD SWAP1 PUSH1 0x20 ADD SWAP1 SWAP3 SWAP2 SWAP1 POP POP POP PUSH2 0x14C9 JUMPI PUSH1 0x40 MLOAD PUSH32 0x8C379A000000000000000000000000000000000000000000000000000000000 DUP2 MSTORE PUSH1 0x4 ADD DUP1 DUP1 PUSH1 0x20 ADD DUP3 DUP2 SUB DUP3 MSTORE PUSH1 0x16 DUP2 MSTORE PUSH1 0x20 ADD DUP1 PUSH32 0x496E76616C69642077697468647261772070726F6F6600000000000000000000 DUP2 MSTORE POP PUSH1 0x20 ADD SWAP2 POP POP PUSH1 0x40 MLOAD DUP1 SWAP2 SUB SWAP1 REVERT JUMPDEST PUSH1 0x6D PUSH1 0x0 SWAP1 SLOAD SWAP1 PUSH2 0x100 EXP SWAP1 DIV PUSH20 0xFFFFFFFFFFFFFFFFFFFFFFFFFFFFFFFFFFFFFFFF AND PUSH20 0xFFFFFFFFFFFFFFFFFFFFFFFFFFFFFFFFFFFFFFFF AND PUSH4 0x32AB8C92 DUP8 PUSH1 0x40 MLOAD DUP3 PUSH4 0xFFFFFFFF AND PUSH1 0xE0 SHL DUP2 MSTORE PUSH1 0x4 ADD DUP1 DUP3 DUP2 MSTORE PUSH1 0x20 ADD SWAP2 POP POP PUSH1 0x0 PUSH1 0x40 MLOAD DUP1 DUP4 SUB DUP2 PUSH1 0x0 DUP8 DUP1 EXTCODESIZE ISZERO DUP1 ISZERO PUSH2 0x153E JUMPI PUSH1 0x0 DUP1 REVERT JUMPDEST POP GAS CALL ISZERO DUP1 ISZERO PUSH2 0x1552 JUMPI RETURNDATASIZE PUSH1 0x0 DUP1 RETURNDATACOPY RETURNDATASIZE PUSH1 0x0 REVERT JUMPDEST POP POP POP POP PUSH1 0x0 PUSH1 0x69 SLOAD SWAP1 POP PUSH1 0x0 DUP2 GT ISZERO PUSH2 0x1594 JUMPI PUSH2 0x1593 PUSH1 0x6E PUSH1 0x0 SWAP1 SLOAD SWAP1 PUSH2 0x100 EXP SWAP1 DIV PUSH20 0xFFFFFFFFFFFFFFFFFFFFFFFFFFFFFFFFFFFFFFFF AND DUP8 DUP4 PUSH2 0x31A9 JUMP JUMPDEST JUMPDEST PUSH2 0x159C PUSH2 0x2563 JUMP JUMPDEST PUSH1 0x0 DUP1 SWAP1 POP PUSH1 0x0 PUSH2 0x15BF PUSH1 0x72 SLOAD PUSH2 0x15B1 PUSH2 0x26A2 JUMP JUMPDEST PUSH2 0x32CF SWAP1 SWAP2 SWAP1 PUSH4 0xFFFFFFFF AND JUMP JUMPDEST SWAP1 POP PUSH1 0x0 DUP2 GT ISZERO PUSH2 0x1608 JUMPI DUP1 PUSH1 0x75 PUSH1 0x0 DUP3 DUP3 SLOAD SUB SWAP3 POP POP DUP2 SWAP1 SSTORE POP PUSH2 0x1607 PUSH1 0x6F PUSH1 0x0 SWAP1 SLOAD SWAP1 PUSH2 0x100 EXP SWAP1 DIV PUSH20 0xFFFFFFFFFFFFFFFFFFFFFFFFFFFFFFFFFFFFFFFF AND DUP10 DUP4 PUSH2 0x31A9 JUMP JUMPDEST JUMPDEST PUSH1 0x0 PUSH1 0x88 SLOAD PUSH1 0x6A SLOAD SUB SWAP1 POP DUP1 DUP8 GT ISZERO PUSH2 0x161F JUMPI DUP1 SWAP7 POP JUMPDEST PUSH1 0x0 DUP8 GT ISZERO PUSH2 0x170B JUMPI PUSH1 0x0 DUP9 PUSH20 0xFFFFFFFFFFFFFFFFFFFFFFFFFFFFFFFFFFFFFFFF AND DUP9 PUSH1 0x40 MLOAD DUP1 PUSH1 0x0 ADD SWAP1 POP PUSH1 0x0 PUSH1 0x40 MLOAD DUP1 DUP4 SUB DUP2 DUP6 DUP8 GAS CALL SWAP3 POP POP POP RETURNDATASIZE DUP1 PUSH1 0x0 DUP2 EQ PUSH2 0x1688 JUMPI PUSH1 0x40 MLOAD SWAP2 POP PUSH1 0x1F NOT PUSH1 0x3F RETURNDATASIZE ADD AND DUP3 ADD PUSH1 0x40 MSTORE RETURNDATASIZE DUP3 MSTORE RETURNDATASIZE PUSH1 0x0 PUSH1 0x20 DUP5 ADD RETURNDATACOPY PUSH2 0x168D JUMP JUMPDEST PUSH1 0x60 SWAP2 POP JUMPDEST POP POP SWAP1 POP DUP1 PUSH2 0x1704 JUMPI PUSH1 0x40 MLOAD PUSH32 0x8C379A000000000000000000000000000000000000000000000000000000000 DUP2 MSTORE PUSH1 0x4 ADD DUP1 DUP1 PUSH1 0x20 ADD DUP3 DUP2 SUB DUP3 MSTORE PUSH1 0x1A DUP2 MSTORE PUSH1 0x20 ADD DUP1 PUSH32 0x6661696C656420746F2073656E642072656C6179657220666565000000000000 DUP2 MSTORE POP PUSH1 0x20 ADD SWAP2 POP POP PUSH1 0x40 MLOAD DUP1 SWAP2 SUB SWAP1 REVERT JUMPDEST DUP8 DUP3 SUB SWAP2 POP POP JUMPDEST PUSH1 0x0 DUP2 GT ISZERO PUSH2 0x17F2 JUMPI PUSH1 0x0 DUP10 PUSH20 0xFFFFFFFFFFFFFFFFFFFFFFFFFFFFFFFFFFFFFFFF AND DUP3 PUSH1 0x40 MLOAD DUP1 PUSH1 0x0 ADD SWAP1 POP PUSH1 0x0 PUSH1 0x40 MLOAD DUP1 DUP4 SUB DUP2 DUP6 DUP8 GAS CALL SWAP3 POP POP POP RETURNDATASIZE DUP1 PUSH1 0x0 DUP2 EQ PUSH2 0x1774 JUMPI PUSH1 0x40 MLOAD SWAP2 POP PUSH1 0x1F NOT PUSH1 0x3F RETURNDATASIZE ADD AND DUP3 ADD PUSH1 0x40 MSTORE RETURNDATASIZE DUP3 MSTORE RETURNDATASIZE PUSH1 0x0 PUSH1 0x20 DUP5 ADD RETURNDATACOPY PUSH2 0x1779 JUMP JUMPDEST PUSH1 0x60 SWAP2 POP JUMPDEST POP POP SWAP1 POP DUP1 PUSH2 0x17F0 JUMPI PUSH1 0x40 MLOAD PUSH32 0x8C379A000000000000000000000000000000000000000000000000000000000 DUP2 MSTORE PUSH1 0x4 ADD DUP1 DUP1 PUSH1 0x20 ADD DUP3 DUP2 SUB DUP3 MSTORE PUSH1 0x17 DUP2 MSTORE PUSH1 0x20 ADD DUP1 PUSH32 0x6661696C656420746F20776974686472617720636F696E000000000000000000 DUP2 MSTORE POP PUSH1 0x20 ADD SWAP2 POP POP PUSH1 0x40 MLOAD DUP1 SWAP2 SUB SWAP1 REVERT JUMPDEST POP JUMPDEST PUSH1 0x1 PUSH1 0x72 PUSH1 0x0 DUP3 DUP3 SLOAD SUB SWAP3 POP POP DUP2 SWAP1 SSTORE POP PUSH2 0x180B PUSH2 0x32E3 JUMP JUMPDEST DUP8 PUSH20 0xFFFFFFFFFFFFFFFFFFFFFFFFFFFFFFFFFFFFFFFF AND PUSH32 0x6D7AAC54BD3D1C91DB3B1FD7B8D6CB45324AD6B5E373C0F0EA4D7B2606C4C2C8 DUP11 DUP13 DUP6 DUP8 PUSH1 0x40 MLOAD DUP1 DUP6 PUSH20 0xFFFFFFFFFFFFFFFFFFFFFFFFFFFFFFFFFFFFFFFF AND PUSH20 0xFFFFFFFFFFFFFFFFFFFFFFFFFFFFFFFFFFFFFFFF AND DUP2 MSTORE PUSH1 0x20 ADD DUP5 DUP2 MSTORE PUSH1 0x20 ADD DUP4 DUP2 MSTORE PUSH1 0x20 ADD DUP3 DUP2 MSTORE PUSH1 0x20 ADD SWAP5 POP POP POP POP POP PUSH1 0x40 MLOAD DUP1 SWAP2 SUB SWAP1 LOG2 POP POP POP POP PUSH1 0x68 SLOAD DUP2 EQ PUSH2 0x1918 JUMPI PUSH1 0x40 MLOAD PUSH32 0x8C379A000000000000000000000000000000000000000000000000000000000 DUP2 MSTORE PUSH1 0x4 ADD DUP1 DUP1 PUSH1 0x20 ADD DUP3 DUP2 SUB DUP3 MSTORE PUSH1 0x1F DUP2 MSTORE PUSH1 0x20 ADD DUP1 PUSH32 0x5265656E7472616E637947756172643A207265656E7472616E742063616C6C00 DUP2 MSTORE POP PUSH1 0x20 ADD SWAP2 POP POP PUSH1 0x40 MLOAD DUP1 SWAP2 SUB SWAP1 REVERT JUMPDEST POP POP POP POP POP POP POP POP POP JUMP JUMPDEST PUSH1 0x0 DUP1 PUSH1 0x72 SLOAD EQ ISZERO PUSH2 0x1939 JUMPI PUSH1 0x6B SLOAD SWAP1 POP PUSH2 0x199E JUMP JUMPDEST PUSH1 0x0 NUMBER SWAP1 POP PUSH1 0x0 PUSH2 0x1948 PUSH2 0x26A2 JUMP JUMPDEST SWAP1 POP PUSH1 0x73 SLOAD DUP3 GT DUP1 ISZERO PUSH2 0x195D JUMPI POP PUSH1 0x0 PUSH1 0x74 SLOAD GT JUMPDEST ISZERO PUSH2 0x196D JUMPI PUSH2 0x196A PUSH2 0x3487 JUMP JUMPDEST SWAP1 POP JUMPDEST PUSH2 0x1999 PUSH1 0x72 SLOAD PUSH2 0x198B PUSH1 0x1 PUSH1 0x72 SLOAD SUB DUP5 PUSH2 0x35D9 SWAP1 SWAP2 SWAP1 PUSH4 0xFFFFFFFF AND JUMP JUMPDEST PUSH2 0x32CF SWAP1 SWAP2 SWAP1 PUSH4 0xFFFFFFFF AND JUMP JUMPDEST SWAP3 POP POP POP JUMPDEST SWAP1 JUMP JUMPDEST PUSH1 0x71 PUSH1 0x0 SWAP1 SLOAD SWAP1 PUSH2 0x100 EXP SWAP1 DIV PUSH20 0xFFFFFFFFFFFFFFFFFFFFFFFFFFFFFFFFFFFFFFFF AND PUSH20 0xFFFFFFFFFFFFFFFFFFFFFFFFFFFFFFFFFFFFFFFF AND CALLER PUSH20 0xFFFFFFFFFFFFFFFFFFFFFFFFFFFFFFFFFFFFFFFF AND EQ PUSH2 0x1A47 JUMPI PUSH1 0x40 MLOAD PUSH32 0x8C379A000000000000000000000000000000000000000000000000000000000 DUP2 MSTORE PUSH1 0x4 ADD DUP1 DUP1 PUSH1 0x20 ADD DUP3 DUP2 SUB DUP3 MSTORE PUSH1 0x22 DUP2 MSTORE PUSH1 0x20 ADD DUP1 PUSH2 0x4856 PUSH1 0x22 SWAP2 CODECOPY PUSH1 0x40 ADD SWAP2 POP POP PUSH1 0x40 MLOAD DUP1 SWAP2 SUB SWAP1 REVERT JUMPDEST DUP1 PUSH1 0x89 DUP2 SWAP1 SSTORE POP POP JUMP JUMPDEST PUSH1 0x7E DUP2 PUSH1 0x4 DUP2 LT PUSH2 0x1A5E JUMPI INVALID JUMPDEST ADD PUSH1 0x0 SWAP2 POP SLOAD SWAP1 PUSH2 0x100 EXP SWAP1 DIV PUSH20 0xFFFFFFFFFFFFFFFFFFFFFFFFFFFFFFFFFFFFFFFF AND DUP2 JUMP JUMPDEST PUSH1 0x6D PUSH1 0x0 SWAP1 SLOAD SWAP1 PUSH2 0x100 EXP SWAP1 DIV PUSH20 0xFFFFFFFFFFFFFFFFFFFFFFFFFFFFFFFFFFFFFFFF AND DUP2 JUMP JUMPDEST PUSH1 0x88 SLOAD DUP2 JUMP JUMPDEST PUSH1 0x72 SLOAD DUP2 JUMP JUMPDEST PUSH1 0x71 PUSH1 0x0 SWAP1 SLOAD SWAP1 PUSH2 0x100 EXP SWAP1 DIV PUSH20 0xFFFFFFFFFFFFFFFFFFFFFFFFFFFFFFFFFFFFFFFF AND PUSH20 0xFFFFFFFFFFFFFFFFFFFFFFFFFFFFFFFFFFFFFFFF AND CALLER PUSH20 0xFFFFFFFFFFFFFFFFFFFFFFFFFFFFFFFFFFFFFFFF AND EQ PUSH2 0x1B5C JUMPI PUSH1 0x40 MLOAD PUSH32 0x8C379A000000000000000000000000000000000000000000000000000000000 DUP2 MSTORE PUSH1 0x4 ADD DUP1 DUP1 PUSH1 0x20 ADD DUP3 DUP2 SUB DUP3 MSTORE PUSH1 0x22 DUP2 MSTORE PUSH1 0x20 ADD DUP1 PUSH2 0x4856 PUSH1 0x22 SWAP2 CODECOPY PUSH1 0x40 ADD SWAP2 POP POP PUSH1 0x40 MLOAD DUP1 SWAP2 SUB SWAP1 REVERT JUMPDEST PUSH2 0x1B64 PUSH2 0x35F3 JUMP JUMPDEST JUMP JUMPDEST PUSH1 0x71 PUSH1 0x0 SWAP1 SLOAD SWAP1 PUSH2 0x100 EXP SWAP1 DIV PUSH20 0xFFFFFFFFFFFFFFFFFFFFFFFFFFFFFFFFFFFFFFFF AND DUP2 JUMP JUMPDEST PUSH1 0x0 PUSH32 0x30644E72E131A029B85045B68181585D2833E84879B9709143E1F593F0000001 DUP4 PUSH1 0x0 SHR LT PUSH2 0x1C26 JUMPI PUSH1 0x40 MLOAD PUSH32 0x8C379A000000000000000000000000000000000000000000000000000000000 DUP2 MSTORE PUSH1 0x4 ADD DUP1 DUP1 PUSH1 0x20 ADD DUP3 DUP2 SUB DUP3 MSTORE PUSH1 0x20 DUP2 MSTORE PUSH1 0x20 ADD DUP1 PUSH32 0x5F6C6566742073686F756C6420626520696E7369646520746865206669656C64 DUP2 MSTORE POP PUSH1 0x20 ADD SWAP2 POP POP PUSH1 0x40 MLOAD DUP1 SWAP2 SUB SWAP1 REVERT JUMPDEST PUSH32 0x30644E72E131A029B85045B68181585D2833E84879B9709143E1F593F0000001 DUP3 PUSH1 0x0 SHR LT PUSH2 0x1CA1 JUMPI PUSH1 0x40 MLOAD PUSH32 0x8C379A000000000000000000000000000000000000000000000000000000000 DUP2 MSTORE PUSH1 0x4 ADD DUP1 DUP1 PUSH1 0x20 ADD DUP3 DUP2 SUB DUP3 MSTORE PUSH1 0x21 DUP2 MSTORE PUSH1 0x20 ADD DUP1 PUSH2 0x48A7 PUSH1 0x21 SWAP2 CODECOPY PUSH1 0x40 ADD SWAP2 POP POP PUSH1 0x40 MLOAD DUP1 SWAP2 SUB SWAP1 REVERT JUMPDEST PUSH1 0x0 DUP4 PUSH1 0x0 SHR SWAP1 POP PUSH1 0x0 DUP1 SWAP1 POP PUSH20 0x0 PUSH4 0xF47D33B5 DUP4 DUP4 PUSH1 0x40 MLOAD DUP4 PUSH4 0xFFFFFFFF AND PUSH1 0xE0 SHL DUP2 MSTORE PUSH1 0x4 ADD DUP1 DUP4 DUP2 MSTORE PUSH1 0x20 ADD DUP3 DUP2 MSTORE PUSH1 0x20 ADD SWAP3 POP POP POP PUSH1 0x40 DUP1 MLOAD DUP1 DUP4 SUB DUP2 DUP7 DUP1 EXTCODESIZE ISZERO DUP1 ISZERO PUSH2 0x1D04 JUMPI PUSH1 0x0 DUP1 REVERT JUMPDEST POP GAS DELEGATECALL ISZERO DUP1 ISZERO PUSH2 0x1D18 JUMPI RETURNDATASIZE PUSH1 0x0 DUP1 RETURNDATACOPY RETURNDATASIZE PUSH1 0x0 REVERT JUMPDEST POP POP POP POP PUSH1 0x40 MLOAD RETURNDATASIZE PUSH1 0x40 DUP2 LT ISZERO PUSH2 0x1D2E JUMPI PUSH1 0x0 DUP1 REVERT JUMPDEST DUP2 ADD SWAP1 DUP1 DUP1 MLOAD SWAP1 PUSH1 0x20 ADD SWAP1 SWAP3 SWAP2 SWAP1 DUP1 MLOAD SWAP1 PUSH1 0x20 ADD SWAP1 SWAP3 SWAP2 SWAP1 POP POP POP DUP1 SWAP3 POP DUP2 SWAP4 POP POP POP PUSH32 0x30644E72E131A029B85045B68181585D2833E84879B9709143E1F593F0000001 DUP1 PUSH2 0x1D79 JUMPI INVALID JUMPDEST DUP5 PUSH1 0x0 SHR DUP4 ADDMOD SWAP2 POP PUSH20 0x0 PUSH4 0xF47D33B5 DUP4 DUP4 PUSH1 0x40 MLOAD DUP4 PUSH4 0xFFFFFFFF AND PUSH1 0xE0 SHL DUP2 MSTORE PUSH1 0x4 ADD DUP1 DUP4 DUP2 MSTORE PUSH1 0x20 ADD DUP3 DUP2 MSTORE PUSH1 0x20 ADD SWAP3 POP POP POP PUSH1 0x40 DUP1 MLOAD DUP1 DUP4 SUB DUP2 DUP7 DUP1 EXTCODESIZE ISZERO DUP1 ISZERO PUSH2 0x1DD7 JUMPI PUSH1 0x0 DUP1 REVERT JUMPDEST POP GAS DELEGATECALL ISZERO DUP1 ISZERO PUSH2 0x1DEB JUMPI RETURNDATASIZE PUSH1 0x0 DUP1 RETURNDATACOPY RETURNDATASIZE PUSH1 0x0 REVERT JUMPDEST POP POP POP POP PUSH1 0x40 MLOAD RETURNDATASIZE PUSH1 0x40 DUP2 LT ISZERO PUSH2 0x1E01 JUMPI PUSH1 0x0 DUP1 REVERT JUMPDEST DUP2 ADD SWAP1 DUP1 DUP1 MLOAD SWAP1 PUSH1 0x20 ADD SWAP1 SWAP3 SWAP2 SWAP1 DUP1 MLOAD SWAP1 PUSH1 0x20 ADD SWAP1 SWAP3 SWAP2 SWAP1 POP POP POP DUP1 SWAP3 POP DUP2 SWAP4 POP POP POP DUP2 PUSH1 0x0 SHL SWAP3 POP POP POP SWAP3 SWAP2 POP POP JUMP JUMPDEST PUSH1 0x76 SLOAD DUP2 JUMP JUMPDEST PUSH32 0x30644E72E131A029B85045B68181585D2833E84879B9709143E1F593F0000001 DUP2 JUMP JUMPDEST PUSH1 0x79 DUP2 PUSH1 0x5 DUP2 LT PUSH2 0x1E69 JUMPI INVALID JUMPDEST ADD PUSH1 0x0 SWAP2 POP SWAP1 POP SLOAD DUP2 JUMP JUMPDEST PUSH1 0x71 PUSH1 0x0 SWAP1 SLOAD SWAP1 PUSH2 0x100 EXP SWAP1 DIV PUSH20 0xFFFFFFFFFFFFFFFFFFFFFFFFFFFFFFFFFFFFFFFF AND PUSH20 0xFFFFFFFFFFFFFFFFFFFFFFFFFFFFFFFFFFFFFFFF AND CALLER PUSH20 0xFFFFFFFFFFFFFFFFFFFFFFFFFFFFFFFFFFFFFFFF AND EQ PUSH2 0x1F1A JUMPI PUSH1 0x40 MLOAD PUSH32 0x8C379A000000000000000000000000000000000000000000000000000000000 DUP2 MSTORE PUSH1 0x4 ADD DUP1 DUP1 PUSH1 0x20 ADD DUP3 DUP2 SUB DUP3 MSTORE PUSH1 0x22 DUP2 MSTORE PUSH1 0x20 ADD DUP1 PUSH2 0x4856 PUSH1 0x22 SWAP2 CODECOPY PUSH1 0x40 ADD SWAP2 POP POP PUSH1 0x40 MLOAD DUP1 SWAP2 SUB SWAP1 REVERT JUMPDEST PUSH1 0x64 DUP2 DUP4 DUP6 DUP8 DUP10 ADD ADD ADD ADD EQ PUSH2 0x1F98 JUMPI PUSH1 0x40 MLOAD PUSH32 0x8C379A000000000000000000000000000000000000000000000000000000000 DUP2 MSTORE PUSH1 0x4 ADD DUP1 DUP1 PUSH1 0x20 ADD DUP3 DUP2 SUB DUP3 MSTORE PUSH1 0x7 DUP2 MSTORE PUSH1 0x20 ADD DUP1 PUSH32 0x496E76616C696400000000000000000000000000000000000000000000000000 DUP2 MSTORE POP PUSH1 0x20 ADD SWAP2 POP POP PUSH1 0x40 MLOAD DUP1 SWAP2 SUB SWAP1 REVERT JUMPDEST PUSH1 0x40 MLOAD DUP1 PUSH1 0xA0 ADD PUSH1 0x40 MSTORE DUP1 DUP7 DUP2 MSTORE PUSH1 0x20 ADD DUP6 DUP2 MSTORE PUSH1 0x20 ADD DUP5 DUP2 MSTORE PUSH1 0x20 ADD DUP4 DUP2 MSTORE PUSH1 0x20 ADD DUP3 DUP2 MSTORE POP PUSH1 0x79 SWAP1 PUSH1 0x5 PUSH2 0x1FCF SWAP3 SWAP2 SWAP1 PUSH2 0x4730 JUMP JUMPDEST POP POP POP POP POP POP JUMP JUMPDEST PUSH1 0x0 DUP1 SWAP1 SLOAD SWAP1 PUSH2 0x100 EXP SWAP1 DIV PUSH4 0xFFFFFFFF AND DUP2 JUMP JUMPDEST PUSH1 0x69 SLOAD DUP2 JUMP JUMPDEST PUSH1 0x60 PUSH1 0x40 MLOAD DUP1 PUSH1 0x40 ADD PUSH1 0x40 MSTORE DUP1 PUSH1 0x3 DUP2 MSTORE PUSH1 0x20 ADD PUSH32 0x322E330000000000000000000000000000000000000000000000000000000000 DUP2 MSTORE POP SWAP1 POP SWAP1 JUMP JUMPDEST PUSH1 0x70 PUSH1 0x0 SWAP1 SLOAD SWAP1 PUSH2 0x100 EXP SWAP1 DIV PUSH20 0xFFFFFFFFFFFFFFFFFFFFFFFFFFFFFFFFFFFFFFFF AND DUP2 JUMP JUMPDEST PUSH1 0x71 PUSH1 0x0 SWAP1 SLOAD SWAP1 PUSH2 0x100 EXP SWAP1 DIV PUSH20 0xFFFFFFFFFFFFFFFFFFFFFFFFFFFFFFFFFFFFFFFF AND PUSH20 0xFFFFFFFFFFFFFFFFFFFFFFFFFFFFFFFFFFFFFFFF AND CALLER PUSH20 0xFFFFFFFFFFFFFFFFFFFFFFFFFFFFFFFFFFFFFFFF AND EQ PUSH2 0x20FB JUMPI PUSH1 0x40 MLOAD PUSH32 0x8C379A000000000000000000000000000000000000000000000000000000000 DUP2 MSTORE PUSH1 0x4 ADD DUP1 DUP1 PUSH1 0x20 ADD DUP3 DUP2 SUB DUP3 MSTORE PUSH1 0x22 DUP2 MSTORE PUSH1 0x20 ADD DUP1 PUSH2 0x4856 PUSH1 0x22 SWAP2 CODECOPY PUSH1 0x40 ADD SWAP2 POP POP PUSH1 0x40 MLOAD DUP1 SWAP2 SUB SWAP1 REVERT JUMPDEST PUSH1 0x0 PUSH20 0xFFFFFFFFFFFFFFFFFFFFFFFFFFFFFFFFFFFFFFFF AND DUP5 PUSH20 0xFFFFFFFFFFFFFFFFFFFFFFFFFFFFFFFFFFFFFFFF AND EQ ISZERO DUP1 ISZERO PUSH2 0x2165 JUMPI POP PUSH1 0x0 PUSH20 0xFFFFFFFFFFFFFFFFFFFFFFFFFFFFFFFFFFFFFFFF AND DUP4 PUSH20 0xFFFFFFFFFFFFFFFFFFFFFFFFFFFFFFFFFFFFFFFF AND EQ ISZERO JUMPDEST DUP1 ISZERO PUSH2 0x219E JUMPI POP PUSH1 0x0 PUSH20 0xFFFFFFFFFFFFFFFFFFFFFFFFFFFFFFFFFFFFFFFF AND DUP3 PUSH20 0xFFFFFFFFFFFFFFFFFFFFFFFFFFFFFFFFFFFFFFFF AND EQ ISZERO JUMPDEST DUP1 ISZERO PUSH2 0x21D7 JUMPI POP PUSH1 0x0 PUSH20 0xFFFFFFFFFFFFFFFFFFFFFFFFFFFFFFFFFFFFFFFF AND DUP2 PUSH20 0xFFFFFFFFFFFFFFFFFFFFFFFFFFFFFFFFFFFFFFFF AND EQ ISZERO JUMPDEST PUSH2 0x2249 JUMPI PUSH1 0x40 MLOAD PUSH32 0x8C379A000000000000000000000000000000000000000000000000000000000 DUP2 MSTORE PUSH1 0x4 ADD DUP1 DUP1 PUSH1 0x20 ADD DUP3 DUP2 SUB DUP3 MSTORE PUSH1 0x10 DUP2 MSTORE PUSH1 0x20 ADD DUP1 PUSH32 0x4E6F74205A65726F204164647265737300000000000000000000000000000000 DUP2 MSTORE POP PUSH1 0x20 ADD SWAP2 POP POP PUSH1 0x40 MLOAD DUP1 SWAP2 SUB SWAP1 REVERT JUMPDEST PUSH1 0x40 MLOAD DUP1 PUSH1 0x80 ADD PUSH1 0x40 MSTORE DUP1 DUP6 PUSH20 0xFFFFFFFFFFFFFFFFFFFFFFFFFFFFFFFFFFFFFFFF AND PUSH20 0xFFFFFFFFFFFFFFFFFFFFFFFFFFFFFFFFFFFFFFFF AND DUP2 MSTORE PUSH1 0x20 ADD DUP5 PUSH20 0xFFFFFFFFFFFFFFFFFFFFFFFFFFFFFFFFFFFFFFFF AND PUSH20 0xFFFFFFFFFFFFFFFFFFFFFFFFFFFFFFFFFFFFFFFF AND DUP2 MSTORE PUSH1 0x20 ADD DUP4 PUSH20 0xFFFFFFFFFFFFFFFFFFFFFFFFFFFFFFFFFFFFFFFF AND PUSH20 0xFFFFFFFFFFFFFFFFFFFFFFFFFFFFFFFFFFFFFFFF AND DUP2 MSTORE PUSH1 0x20 ADD DUP3 PUSH20 0xFFFFFFFFFFFFFFFFFFFFFFFFFFFFFFFFFFFFFFFF AND PUSH20 0xFFFFFFFFFFFFFFFFFFFFFFFFFFFFFFFFFFFFFFFF AND DUP2 MSTORE POP PUSH1 0x7E SWAP1 PUSH1 0x4 PUSH2 0x232A SWAP3 SWAP2 SWAP1 PUSH2 0x4770 JUMP JUMPDEST POP POP POP POP POP JUMP JUMPDEST PUSH1 0x8B SLOAD DUP2 JUMP JUMPDEST PUSH1 0x0 DUP1 PUSH1 0x0 SHL DUP3 EQ ISZERO PUSH2 0x234D JUMPI PUSH1 0x0 SWAP1 POP PUSH2 0x23D4 JUMP JUMPDEST PUSH1 0x0 PUSH1 0x3 PUSH1 0x0 SWAP1 SLOAD SWAP1 PUSH2 0x100 EXP SWAP1 DIV PUSH4 0xFFFFFFFF AND SWAP1 POP JUMPDEST PUSH1 0x4 DUP2 PUSH4 0xFFFFFFFF AND PUSH1 0x64 DUP2 LT PUSH2 0x2378 JUMPI INVALID JUMPDEST ADD SLOAD DUP4 EQ ISZERO PUSH2 0x238B JUMPI PUSH1 0x1 SWAP2 POP POP PUSH2 0x23D4 JUMP JUMPDEST PUSH1 0x0 DUP2 PUSH4 0xFFFFFFFF AND EQ ISZERO PUSH2 0x239F JUMPI PUSH1 0x64 SWAP1 POP JUMPDEST DUP1 DUP1 PUSH1 0x1 SWAP1 SUB SWAP2 POP POP PUSH1 0x3 PUSH1 0x0 SWAP1 SLOAD SWAP1 PUSH2 0x100 EXP SWAP1 DIV PUSH4 0xFFFFFFFF AND PUSH4 0xFFFFFFFF AND DUP2 PUSH4 0xFFFFFFFF AND EQ ISZERO PUSH2 0x2365 JUMPI PUSH1 0x0 SWAP2 POP POP JUMPDEST SWAP2 SWAP1 POP JUMP JUMPDEST PUSH1 0x6F PUSH1 0x0 SWAP1 SLOAD SWAP1 PUSH2 0x100 EXP SWAP1 DIV PUSH20 0xFFFFFFFFFFFFFFFFFFFFFFFFFFFFFFFFFFFFFFFF AND DUP2 JUMP JUMPDEST PUSH1 0x71 PUSH1 0x0 SWAP1 SLOAD SWAP1 PUSH2 0x100 EXP SWAP1 DIV PUSH20 0xFFFFFFFFFFFFFFFFFFFFFFFFFFFFFFFFFFFFFFFF AND PUSH20 0xFFFFFFFFFFFFFFFFFFFFFFFFFFFFFFFFFFFFFFFF AND CALLER PUSH20 0xFFFFFFFFFFFFFFFFFFFFFFFFFFFFFFFFFFFFFFFF AND EQ PUSH2 0x24A5 JUMPI PUSH1 0x40 MLOAD PUSH32 0x8C379A000000000000000000000000000000000000000000000000000000000 DUP2 MSTORE PUSH1 0x4 ADD DUP1 DUP1 PUSH1 0x20 ADD DUP3 DUP2 SUB DUP3 MSTORE PUSH1 0x22 DUP2 MSTORE PUSH1 0x20 ADD DUP1 PUSH2 0x4856 PUSH1 0x22 SWAP2 CODECOPY PUSH1 0x40 ADD SWAP2 POP POP PUSH1 0x40 MLOAD DUP1 SWAP2 SUB SWAP1 REVERT JUMPDEST PUSH1 0xA DUP2 LT PUSH2 0x251B JUMPI PUSH1 0x40 MLOAD PUSH32 0x8C379A000000000000000000000000000000000000000000000000000000000 DUP2 MSTORE PUSH1 0x4 ADD DUP1 DUP1 PUSH1 0x20 ADD DUP3 DUP2 SUB DUP3 MSTORE PUSH1 0x13 DUP2 MSTORE PUSH1 0x20 ADD DUP1 PUSH32 0x4665652063616E27742065786365656420312500000000000000000000000000 DUP2 MSTORE POP PUSH1 0x20 ADD SWAP2 POP POP PUSH1 0x40 MLOAD DUP1 SWAP2 SUB SWAP1 REVERT JUMPDEST DUP1 PUSH1 0x87 DUP2 SWAP1 SSTORE POP PUSH2 0x3E8 PUSH1 0x87 SLOAD PUSH1 0x6A SLOAD MUL DUP2 PUSH2 0x2533 JUMPI INVALID JUMPDEST DIV PUSH1 0x88 DUP2 SWAP1 SSTORE POP POP JUMP JUMPDEST PUSH1 0x6C PUSH1 0x20 MSTORE DUP1 PUSH1 0x0 MSTORE PUSH1 0x40 PUSH1 0x0 KECCAK256 PUSH1 0x0 SWAP2 POP SLOAD SWAP1 PUSH2 0x100 EXP SWAP1 DIV PUSH1 0xFF AND DUP2 JUMP JUMPDEST PUSH1 0x74 SLOAD DUP2 JUMP JUMPDEST PUSH1 0x0 NUMBER SWAP1 POP PUSH1 0x73 SLOAD DUP2 GT PUSH2 0x2577 JUMPI POP PUSH2 0x2599 JUMP JUMPDEST PUSH1 0x0 PUSH1 0x74 SLOAD EQ PUSH2 0x2590 JUMPI PUSH2 0x2589 PUSH2 0x3487 JUMP JUMPDEST PUSH1 0x75 DUP2 SWAP1 SSTORE POP JUMPDEST DUP1 PUSH1 0x73 DUP2 SWAP1 SSTORE POP POP JUMPDEST JUMP JUMPDEST PUSH1 0x71 PUSH1 0x0 SWAP1 SLOAD SWAP1 PUSH2 0x100 EXP SWAP1 DIV PUSH20 0xFFFFFFFFFFFFFFFFFFFFFFFFFFFFFFFFFFFFFFFF AND PUSH20 0xFFFFFFFFFFFFFFFFFFFFFFFFFFFFFFFFFFFFFFFF AND CALLER PUSH20 0xFFFFFFFFFFFFFFFFFFFFFFFFFFFFFFFFFFFFFFFF AND EQ PUSH2 0x2641 JUMPI PUSH1 0x40 MLOAD PUSH32 0x8C379A000000000000000000000000000000000000000000000000000000000 DUP2 MSTORE PUSH1 0x4 ADD DUP1 DUP1 PUSH1 0x20 ADD DUP3 DUP2 SUB DUP3 MSTORE PUSH1 0x22 DUP2 MSTORE PUSH1 0x20 ADD DUP1 PUSH2 0x4856 PUSH1 0x22 SWAP2 CODECOPY PUSH1 0x40 ADD SWAP2 POP POP PUSH1 0x40 MLOAD DUP1 SWAP2 SUB SWAP1 REVERT JUMPDEST PUSH32 0xF077EEC825BF8719AB7021DAF299E3FEB4CB33472AC3F1E661657FD9701A3E7E PUSH1 0x76 SLOAD DUP3 PUSH1 0x40 MLOAD DUP1 DUP4 DUP2 MSTORE PUSH1 0x20 ADD DUP3 DUP2 MSTORE PUSH1 0x20 ADD SWAP3 POP POP POP PUSH1 0x40 MLOAD DUP1 SWAP2 SUB SWAP1 LOG1 DUP1 PUSH1 0x76 DUP2 SWAP1 SSTORE POP POP JUMP JUMPDEST PUSH1 0x3 PUSH1 0x0 SWAP1 SLOAD SWAP1 PUSH2 0x100 EXP SWAP1 DIV PUSH4 0xFFFFFFFF AND DUP2 JUMP JUMPDEST PUSH1 0x0 DUP1 PUSH1 0x6F PUSH1 0x0 SWAP1 SLOAD SWAP1 PUSH2 0x100 EXP SWAP1 DIV PUSH20 0xFFFFFFFFFFFFFFFFFFFFFFFFFFFFFFFFFFFFFFFF AND PUSH20 0xFFFFFFFFFFFFFFFFFFFFFFFFFFFFFFFFFFFFFFFF AND PUSH4 0x70A08231 ADDRESS PUSH1 0x40 MLOAD DUP3 PUSH4 0xFFFFFFFF AND PUSH1 0xE0 SHL DUP2 MSTORE PUSH1 0x4 ADD DUP1 DUP3 PUSH20 0xFFFFFFFFFFFFFFFFFFFFFFFFFFFFFFFFFFFFFFFF AND PUSH20 0xFFFFFFFFFFFFFFFFFFFFFFFFFFFFFFFFFFFFFFFF AND DUP2 MSTORE PUSH1 0x20 ADD SWAP2 POP POP PUSH1 0x20 PUSH1 0x40 MLOAD DUP1 DUP4 SUB DUP2 DUP7 DUP1 EXTCODESIZE ISZERO DUP1 ISZERO PUSH2 0x2744 JUMPI PUSH1 0x0 DUP1 REVERT JUMPDEST POP GAS STATICCALL ISZERO DUP1 ISZERO PUSH2 0x2758 JUMPI RETURNDATASIZE PUSH1 0x0 DUP1 RETURNDATACOPY RETURNDATASIZE PUSH1 0x0 REVERT JUMPDEST POP POP POP POP PUSH1 0x40 MLOAD RETURNDATASIZE PUSH1 0x20 DUP2 LT ISZERO PUSH2 0x276E JUMPI PUSH1 0x0 DUP1 REVERT JUMPDEST DUP2 ADD SWAP1 DUP1 DUP1 MLOAD SWAP1 PUSH1 0x20 ADD SWAP1 SWAP3 SWAP2 SWAP1 POP POP POP SWAP1 POP PUSH1 0x75 SLOAD DUP2 LT ISZERO PUSH2 0x2794 JUMPI DUP1 SWAP2 POP POP PUSH2 0x279B JUMP JUMPDEST PUSH1 0x75 SLOAD SWAP2 POP POP JUMPDEST SWAP1 JUMP JUMPDEST PUSH1 0x71 PUSH1 0x0 SWAP1 SLOAD SWAP1 PUSH2 0x100 EXP SWAP1 DIV PUSH20 0xFFFFFFFFFFFFFFFFFFFFFFFFFFFFFFFFFFFFFFFF AND PUSH20 0xFFFFFFFFFFFFFFFFFFFFFFFFFFFFFFFFFFFFFFFF AND CALLER PUSH20 0xFFFFFFFFFFFFFFFFFFFFFFFFFFFFFFFFFFFFFFFF AND EQ PUSH2 0x2844 JUMPI PUSH1 0x40 MLOAD PUSH32 0x8C379A000000000000000000000000000000000000000000000000000000000 DUP2 MSTORE PUSH1 0x4 ADD DUP1 DUP1 PUSH1 0x20 ADD DUP3 DUP2 SUB DUP3 MSTORE PUSH1 0x22 DUP2 MSTORE PUSH1 0x20 ADD DUP1 PUSH2 0x4856 PUSH1 0x22 SWAP2 CODECOPY PUSH1 0x40 ADD SWAP2 POP POP PUSH1 0x40 MLOAD DUP1 SWAP2 SUB SWAP1 REVERT JUMPDEST DUP1 PUSH1 0x6D PUSH1 0x0 PUSH2 0x100 EXP DUP2 SLOAD DUP2 PUSH20 0xFFFFFFFFFFFFFFFFFFFFFFFFFFFFFFFFFFFFFFFF MUL NOT AND SWAP1 DUP4 PUSH20 0xFFFFFFFFFFFFFFFFFFFFFFFFFFFFFFFFFFFFFFFF AND MUL OR SWAP1 SSTORE POP POP JUMP JUMPDEST PUSH1 0x6A SLOAD DUP2 JUMP JUMPDEST PUSH1 0x73 SLOAD DUP2 JUMP JUMPDEST PUSH1 0x6B SLOAD DUP2 JUMP JUMPDEST PUSH1 0x71 PUSH1 0x0 SWAP1 SLOAD SWAP1 PUSH2 0x100 EXP SWAP1 DIV PUSH20 0xFFFFFFFFFFFFFFFFFFFFFFFFFFFFFFFFFFFFFFFF AND PUSH20 0xFFFFFFFFFFFFFFFFFFFFFFFFFFFFFFFFFFFFFFFF AND CALLER PUSH20 0xFFFFFFFFFFFFFFFFFFFFFFFFFFFFFFFFFFFFFFFF AND EQ PUSH2 0x2940 JUMPI PUSH1 0x40 MLOAD PUSH32 0x8C379A000000000000000000000000000000000000000000000000000000000 DUP2 MSTORE PUSH1 0x4 ADD DUP1 DUP1 PUSH1 0x20 ADD DUP3 DUP2 SUB DUP3 MSTORE PUSH1 0x22 DUP2 MSTORE PUSH1 0x20 ADD DUP1 PUSH2 0x4856 PUSH1 0x22 SWAP2 CODECOPY PUSH1 0x40 ADD SWAP2 POP POP PUSH1 0x40 MLOAD DUP1 SWAP2 SUB SWAP1 REVERT JUMPDEST DUP1 PUSH1 0x70 PUSH1 0x0 PUSH2 0x100 EXP DUP2 SLOAD DUP2 PUSH20 0xFFFFFFFFFFFFFFFFFFFFFFFFFFFFFFFFFFFFFFFF MUL NOT AND SWAP1 DUP4 PUSH20 0xFFFFFFFFFFFFFFFFFFFFFFFFFFFFFFFFFFFFFFFF AND MUL OR SWAP1 SSTORE POP POP JUMP JUMPDEST PUSH1 0x0 DUP1 PUSH1 0x0 DUP1 PUSH1 0x0 PUSH1 0x1 PUSH1 0x68 PUSH1 0x0 DUP3 DUP3 SLOAD ADD SWAP3 POP POP DUP2 SWAP1 SSTORE POP PUSH1 0x0 PUSH1 0x68 SLOAD SWAP1 POP PUSH1 0x6C PUSH1 0x0 DUP9 DUP2 MSTORE PUSH1 0x20 ADD SWAP1 DUP2 MSTORE PUSH1 0x20 ADD PUSH1 0x0 KECCAK256 PUSH1 0x0 SWAP1 SLOAD SWAP1 PUSH2 0x100 EXP SWAP1 DIV PUSH1 0xFF AND ISZERO PUSH2 0x2A1B JUMPI PUSH1 0x40 MLOAD PUSH32 0x8C379A000000000000000000000000000000000000000000000000000000000 DUP2 MSTORE PUSH1 0x4 ADD DUP1 DUP1 PUSH1 0x20 ADD DUP3 DUP2 SUB DUP3 MSTORE PUSH1 0x21 DUP2 MSTORE PUSH1 0x20 ADD DUP1 PUSH2 0x48C8 PUSH1 0x21 SWAP2 CODECOPY PUSH1 0x40 ADD SWAP2 POP POP PUSH1 0x40 MLOAD DUP1 SWAP2 SUB SWAP1 REVERT JUMPDEST PUSH1 0x6A SLOAD CALLVALUE LT ISZERO PUSH2 0x2A93 JUMPI PUSH1 0x40 MLOAD PUSH32 0x8C379A000000000000000000000000000000000000000000000000000000000 DUP2 MSTORE PUSH1 0x4 ADD DUP1 DUP1 PUSH1 0x20 ADD DUP3 DUP2 SUB DUP3 MSTORE PUSH1 0x18 DUP2 MSTORE PUSH1 0x20 ADD DUP1 PUSH32 0x696E73756666696369656E7420636F696E20616D6F756E740000000000000000 DUP2 MSTORE POP PUSH1 0x20 ADD SWAP2 POP POP PUSH1 0x40 MLOAD DUP1 SWAP2 SUB SWAP1 REVERT JUMPDEST DUP7 SWAP6 POP TIMESTAMP SWAP4 POP PUSH1 0x0 PUSH1 0x6A SLOAD CALLVALUE SUB SWAP1 POP PUSH2 0x2AAB DUP9 PUSH2 0x4170 JUMP JUMPDEST SWAP6 POP PUSH1 0x1 PUSH1 0x6C PUSH1 0x0 DUP11 DUP2 MSTORE PUSH1 0x20 ADD SWAP1 DUP2 MSTORE PUSH1 0x20 ADD PUSH1 0x0 KECCAK256 PUSH1 0x0 PUSH2 0x100 EXP DUP2 SLOAD DUP2 PUSH1 0xFF MUL NOT AND SWAP1 DUP4 ISZERO ISZERO MUL OR SWAP1 SSTORE POP PUSH1 0x0 DUP2 GT ISZERO PUSH2 0x2BC0 JUMPI PUSH1 0x0 CALLER PUSH20 0xFFFFFFFFFFFFFFFFFFFFFFFFFFFFFFFFFFFFFFFF AND DUP3 PUSH1 0x40 MLOAD DUP1 PUSH1 0x0 ADD SWAP1 POP PUSH1 0x0 PUSH1 0x40 MLOAD DUP1 DUP4 SUB DUP2 DUP6 DUP8 GAS CALL SWAP3 POP POP POP RETURNDATASIZE DUP1 PUSH1 0x0 DUP2 EQ PUSH2 0x2B42 JUMPI PUSH1 0x40 MLOAD SWAP2 POP PUSH1 0x1F NOT PUSH1 0x3F RETURNDATASIZE ADD AND DUP3 ADD PUSH1 0x40 MSTORE RETURNDATASIZE DUP3 MSTORE RETURNDATASIZE PUSH1 0x0 PUSH1 0x20 DUP5 ADD RETURNDATACOPY PUSH2 0x2B47 JUMP JUMPDEST PUSH1 0x60 SWAP2 POP JUMPDEST POP POP SWAP1 POP DUP1 PUSH2 0x2BBE JUMPI PUSH1 0x40 MLOAD PUSH32 0x8C379A000000000000000000000000000000000000000000000000000000000 DUP2 MSTORE PUSH1 0x4 ADD DUP1 DUP1 PUSH1 0x20 ADD DUP3 DUP2 SUB DUP3 MSTORE PUSH1 0x10 DUP2 MSTORE PUSH1 0x20 ADD DUP1 PUSH32 0x6661696C656420746F20726566756E6400000000000000000000000000000000 DUP2 MSTORE POP PUSH1 0x20 ADD SWAP2 POP POP PUSH1 0x40 MLOAD DUP1 SWAP2 SUB SWAP1 REVERT JUMPDEST POP JUMPDEST PUSH1 0x88 SLOAD PUSH1 0x86 PUSH1 0x0 DUP3 DUP3 SLOAD ADD SWAP3 POP POP DUP2 SWAP1 SSTORE POP PUSH1 0x89 SLOAD PUSH1 0x86 SLOAD GT ISZERO PUSH2 0x2BEB JUMPI PUSH2 0x2BE6 PUSH2 0x35F3 JUMP JUMPDEST PUSH2 0x2BF4 JUMP JUMPDEST PUSH2 0x2BF3 PUSH2 0x32E3 JUMP JUMPDEST JUMPDEST PUSH2 0x2BFC PUSH2 0x2563 JUMP JUMPDEST DUP8 PUSH32 0xCB186CC0ADD5BE357AE2D3845E42BE2FFBED8CB23B60F1B058EA371ADFF0A363 DUP8 TIMESTAMP DUP8 DUP8 PUSH1 0x40 MLOAD DUP1 DUP6 PUSH4 0xFFFFFFFF AND PUSH4 0xFFFFFFFF AND DUP2 MSTORE PUSH1 0x20 ADD DUP5 DUP2 MSTORE PUSH1 0x20 ADD DUP4 DUP2 MSTORE PUSH1 0x20 ADD DUP3 DUP2 MSTORE PUSH1 0x20 ADD SWAP5 POP POP POP POP POP PUSH1 0x40 MLOAD DUP1 SWAP2 SUB SWAP1 LOG2 POP PUSH1 0x68 SLOAD DUP2 EQ PUSH2 0x2CD0 JUMPI PUSH1 0x40 MLOAD PUSH32 0x8C379A000000000000000000000000000000000000000000000000000000000 DUP2 MSTORE PUSH1 0x4 ADD DUP1 DUP1 PUSH1 0x20 ADD DUP3 DUP2 SUB DUP3 MSTORE PUSH1 0x1F DUP2 MSTORE PUSH1 0x20 ADD DUP1 PUSH32 0x5265656E7472616E637947756172643A207265656E7472616E742063616C6C00 DUP2 MSTORE POP PUSH1 0x20 ADD SWAP2 POP POP PUSH1 0x40 MLOAD DUP1 SWAP2 SUB SWAP1 REVERT JUMPDEST POP SWAP2 SWAP4 SWAP6 SWAP1 SWAP3 SWAP5 POP JUMP JUMPDEST PUSH1 0x75 SLOAD DUP2 JUMP JUMPDEST PUSH1 0x0 PUSH1 0x4 PUSH1 0x3 PUSH1 0x0 SWAP1 SLOAD SWAP1 PUSH2 0x100 EXP SWAP1 DIV PUSH4 0xFFFFFFFF AND PUSH4 0xFFFFFFFF AND PUSH1 0x64 DUP2 LT PUSH2 0x2D07 JUMPI INVALID JUMPDEST ADD SLOAD SWAP1 POP SWAP1 JUMP JUMPDEST PUSH1 0x4 DUP2 PUSH1 0x64 DUP2 LT PUSH2 0x2D1B JUMPI INVALID JUMPDEST ADD PUSH1 0x0 SWAP2 POP SWAP1 POP SLOAD DUP2 JUMP JUMPDEST PUSH1 0x82 DUP2 PUSH1 0x4 DUP2 LT PUSH2 0x2D33 JUMPI INVALID JUMPDEST ADD PUSH1 0x0 SWAP2 POP SWAP1 POP SLOAD DUP2 JUMP JUMPDEST PUSH1 0x71 PUSH1 0x0 SWAP1 SLOAD SWAP1 PUSH2 0x100 EXP SWAP1 DIV PUSH20 0xFFFFFFFFFFFFFFFFFFFFFFFFFFFFFFFFFFFFFFFF AND PUSH20 0xFFFFFFFFFFFFFFFFFFFFFFFFFFFFFFFFFFFFFFFF AND CALLER PUSH20 0xFFFFFFFFFFFFFFFFFFFFFFFFFFFFFFFFFFFFFFFF AND EQ PUSH2 0x2DE4 JUMPI PUSH1 0x40 MLOAD PUSH32 0x8C379A000000000000000000000000000000000000000000000000000000000 DUP2 MSTORE PUSH1 0x4 ADD DUP1 DUP1 PUSH1 0x20 ADD DUP3 DUP2 SUB DUP3 MSTORE PUSH1 0x22 DUP2 MSTORE PUSH1 0x20 ADD DUP1 PUSH2 0x4856 PUSH1 0x22 SWAP2 CODECOPY PUSH1 0x40 ADD SWAP2 POP POP PUSH1 0x40 MLOAD DUP1 SWAP2 SUB SWAP1 REVERT JUMPDEST DUP1 PUSH1 0x6F PUSH1 0x0 PUSH2 0x100 EXP DUP2 SLOAD DUP2 PUSH20 0xFFFFFFFFFFFFFFFFFFFFFFFFFFFFFFFFFFFFFFFF MUL NOT AND SWAP1 DUP4 PUSH20 0xFFFFFFFFFFFFFFFFFFFFFFFFFFFFFFFFFFFFFFFF AND MUL OR SWAP1 SSTORE POP PUSH1 0x6F PUSH1 0x0 SWAP1 SLOAD SWAP1 PUSH2 0x100 EXP SWAP1 DIV PUSH20 0xFFFFFFFFFFFFFFFFFFFFFFFFFFFFFFFFFFFFFFFF AND PUSH20 0xFFFFFFFFFFFFFFFFFFFFFFFFFFFFFFFFFFFFFFFF AND PUSH4 0x95EA7B3 PUSH1 0x71 PUSH1 0x0 SWAP1 SLOAD SWAP1 PUSH2 0x100 EXP SWAP1 DIV PUSH20 0xFFFFFFFFFFFFFFFFFFFFFFFFFFFFFFFFFFFFFFFF AND PUSH1 0x0 NOT PUSH1 0x40 MLOAD DUP4 PUSH4 0xFFFFFFFF AND PUSH1 0xE0 SHL DUP2 MSTORE PUSH1 0x4 ADD DUP1 DUP4 PUSH20 0xFFFFFFFFFFFFFFFFFFFFFFFFFFFFFFFFFFFFFFFF AND PUSH20 0xFFFFFFFFFFFFFFFFFFFFFFFFFFFFFFFFFFFFFFFF AND DUP2 MSTORE PUSH1 0x20 ADD DUP3 DUP2 MSTORE PUSH1 0x20 ADD SWAP3 POP POP POP PUSH1 0x20 PUSH1 0x40 MLOAD DUP1 DUP4 SUB DUP2 PUSH1 0x0 DUP8 DUP1 EXTCODESIZE ISZERO DUP1 ISZERO PUSH2 0x2EF2 JUMPI PUSH1 0x0 DUP1 REVERT JUMPDEST POP GAS CALL ISZERO DUP1 ISZERO PUSH2 0x2F06 JUMPI RETURNDATASIZE PUSH1 0x0 DUP1 RETURNDATACOPY RETURNDATASIZE PUSH1 0x0 REVERT JUMPDEST POP POP POP POP PUSH1 0x40 MLOAD RETURNDATASIZE PUSH1 0x20 DUP2 LT ISZERO PUSH2 0x2F1C JUMPI PUSH1 0x0 DUP1 REVERT JUMPDEST DUP2 ADD SWAP1 DUP1 DUP1 MLOAD SWAP1 PUSH1 0x20 ADD SWAP1 SWAP3 SWAP2 SWAP1 POP POP POP POP POP JUMP JUMPDEST PUSH1 0x64 DUP2 JUMP JUMPDEST PUSH1 0x89 SLOAD DUP2 JUMP JUMPDEST PUSH1 0x71 PUSH1 0x0 SWAP1 SLOAD SWAP1 PUSH2 0x100 EXP SWAP1 DIV PUSH20 0xFFFFFFFFFFFFFFFFFFFFFFFFFFFFFFFFFFFFFFFF AND PUSH20 0xFFFFFFFFFFFFFFFFFFFFFFFFFFFFFFFFFFFFFFFF AND CALLER PUSH20 0xFFFFFFFFFFFFFFFFFFFFFFFFFFFFFFFFFFFFFFFF AND EQ PUSH2 0x2FE2 JUMPI PUSH1 0x40 MLOAD PUSH32 0x8C379A000000000000000000000000000000000000000000000000000000000 DUP2 MSTORE PUSH1 0x4 ADD DUP1 DUP1 PUSH1 0x20 ADD DUP3 DUP2 SUB DUP3 MSTORE PUSH1 0x22 DUP2 MSTORE PUSH1 0x20 ADD DUP1 PUSH2 0x4856 PUSH1 0x22 SWAP2 CODECOPY PUSH1 0x40 ADD SWAP2 POP POP PUSH1 0x40 MLOAD DUP1 SWAP2 SUB SWAP1 REVERT JUMPDEST DUP1 PUSH1 0x71 PUSH1 0x0 PUSH2 0x100 EXP DUP2 SLOAD DUP2 PUSH20 0xFFFFFFFFFFFFFFFFFFFFFFFFFFFFFFFFFFFFFFFF MUL NOT AND SWAP1 DUP4 PUSH20 0xFFFFFFFFFFFFFFFFFFFFFFFFFFFFFFFFFFFFFFFF AND MUL OR SWAP1 SSTORE POP POP JUMP JUMPDEST PUSH1 0x86 SLOAD DUP2 JUMP JUMPDEST PUSH1 0x2 DUP2 DUP2 SLOAD DUP2 LT PUSH2 0x3039 JUMPI INVALID JUMPDEST SWAP1 PUSH1 0x0 MSTORE PUSH1 0x20 PUSH1 0x0 KECCAK256 ADD PUSH1 0x0 SWAP2 POP SWAP1 POP SLOAD DUP2 JUMP JUMPDEST PUSH32 0x2FE54C60D3ACABF3343A35B6EBA15DB4821B340F76E741E2249685ED4899AF6C DUP2 JUMP JUMPDEST PUSH1 0x87 SLOAD DUP2 JUMP JUMPDEST PUSH1 0x1 DUP2 DUP2 SLOAD DUP2 LT PUSH2 0x3084 JUMPI INVALID JUMPDEST SWAP1 PUSH1 0x0 MSTORE PUSH1 0x20 PUSH1 0x0 KECCAK256 ADD PUSH1 0x0 SWAP2 POP SWAP1 POP SLOAD DUP2 JUMP JUMPDEST PUSH1 0x71 PUSH1 0x0 SWAP1 SLOAD SWAP1 PUSH2 0x100 EXP SWAP1 DIV PUSH20 0xFFFFFFFFFFFFFFFFFFFFFFFFFFFFFFFFFFFFFFFF AND PUSH20 0xFFFFFFFFFFFFFFFFFFFFFFFFFFFFFFFFFFFFFFFF AND CALLER PUSH20 0xFFFFFFFFFFFFFFFFFFFFFFFFFFFFFFFFFFFFFFFF AND EQ PUSH2 0x313E JUMPI PUSH1 0x40 MLOAD PUSH32 0x8C379A000000000000000000000000000000000000000000000000000000000 DUP2 MSTORE PUSH1 0x4 ADD DUP1 DUP1 PUSH1 0x20 ADD DUP3 DUP2 SUB DUP3 MSTORE PUSH1 0x22 DUP2 MSTORE PUSH1 0x20 ADD DUP1 PUSH2 0x4856 PUSH1 0x22 SWAP2 CODECOPY PUSH1 0x40 ADD SWAP2 POP POP PUSH1 0x40 MLOAD DUP1 SWAP2 SUB SWAP1 REVERT JUMPDEST DUP1 PUSH1 0x77 DUP2 SWAP1 SSTORE POP PUSH1 0x4 PUSH1 0x3C PUSH1 0x18 PUSH1 0x77 SLOAD MUL MUL MUL PUSH1 0x78 DUP2 SWAP1 SSTORE POP POP JUMP JUMPDEST PUSH1 0x6E PUSH1 0x0 SWAP1 SLOAD SWAP1 PUSH2 0x100 EXP SWAP1 DIV PUSH20 0xFFFFFFFFFFFFFFFFFFFFFFFFFFFFFFFFFFFFFFFF AND DUP2 JUMP JUMPDEST PUSH1 0x3 PUSH1 0x4 SWAP1 SLOAD SWAP1 PUSH2 0x100 EXP SWAP1 DIV PUSH4 0xFFFFFFFF AND DUP2 JUMP JUMPDEST PUSH1 0x0 DUP1 DUP3 EXTCODESIZE SWAP1 POP PUSH1 0x0 DUP2 GT SWAP2 POP POP SWAP2 SWAP1 POP JUMP JUMPDEST PUSH1 0x0 DUP4 PUSH20 0xFFFFFFFFFFFFFFFFFFFFFFFFFFFFFFFFFFFFFFFF AND PUSH4 0x70A08231 ADDRESS PUSH1 0x40 MLOAD DUP3 PUSH4 0xFFFFFFFF AND PUSH1 0xE0 SHL DUP2 MSTORE PUSH1 0x4 ADD DUP1 DUP3 PUSH20 0xFFFFFFFFFFFFFFFFFFFFFFFFFFFFFFFFFFFFFFFF AND PUSH20 0xFFFFFFFFFFFFFFFFFFFFFFFFFFFFFFFFFFFFFFFF AND DUP2 MSTORE PUSH1 0x20 ADD SWAP2 POP POP PUSH1 0x20 PUSH1 0x40 MLOAD DUP1 DUP4 SUB DUP2 DUP7 DUP1 EXTCODESIZE ISZERO DUP1 ISZERO PUSH2 0x3228 JUMPI PUSH1 0x0 DUP1 REVERT JUMPDEST POP GAS STATICCALL ISZERO DUP1 ISZERO PUSH2 0x323C JUMPI RETURNDATASIZE PUSH1 0x0 DUP1 RETURNDATACOPY RETURNDATASIZE PUSH1 0x0 REVERT JUMPDEST POP POP POP POP PUSH1 0x40 MLOAD RETURNDATASIZE PUSH1 0x20 DUP2 LT ISZERO PUSH2 0x3252 JUMPI PUSH1 0x0 DUP1 REVERT JUMPDEST DUP2 ADD SWAP1 DUP1 DUP1 MLOAD SWAP1 PUSH1 0x20 ADD SWAP1 SWAP3 SWAP2 SWAP1 POP POP POP SWAP1 POP DUP1 DUP3 GT ISZERO PUSH2 0x329D JUMPI PUSH2 0x3298 DUP4 DUP3 DUP7 PUSH20 0xFFFFFFFFFFFFFFFFFFFFFFFFFFFFFFFFFFFFFFFF AND PUSH2 0x43C9 SWAP1 SWAP3 SWAP2 SWAP1 PUSH4 0xFFFFFFFF AND JUMP JUMPDEST PUSH2 0x32C9 JUMP JUMPDEST PUSH2 0x32C8 DUP4 DUP4 DUP7 PUSH20 0xFFFFFFFFFFFFFFFFFFFFFFFFFFFFFFFFFFFFFFFF AND PUSH2 0x43C9 SWAP1 SWAP3 SWAP2 SWAP1 PUSH4 0xFFFFFFFF AND JUMP JUMPDEST JUMPDEST POP POP POP POP JUMP JUMPDEST PUSH1 0x0 DUP2 DUP4 DUP2 PUSH2 0x32DA JUMPI INVALID JUMPDEST DIV SWAP1 POP SWAP3 SWAP2 POP POP JUMP JUMPDEST PUSH1 0x0 JUMPDEST PUSH1 0x4 DUP2 LT ISZERO PUSH2 0x3483 JUMPI PUSH1 0x8B PUSH1 0x0 DUP2 SLOAD DUP1 SWAP3 SWAP2 SWAP1 PUSH1 0x1 ADD SWAP2 SWAP1 POP SSTORE POP PUSH1 0x4 PUSH1 0x8B SLOAD EQ PUSH2 0x3313 JUMPI PUSH1 0x8B SLOAD PUSH2 0x3316 JUMP JUMPDEST PUSH1 0x0 JUMPDEST PUSH1 0x8B DUP2 SWAP1 SSTORE POP PUSH1 0x0 PUSH1 0x82 PUSH1 0x8B SLOAD PUSH1 0x4 DUP2 LT PUSH2 0x332D JUMPI INVALID JUMPDEST ADD SLOAD GT ISZERO PUSH2 0x3476 JUMPI PUSH1 0x6F PUSH1 0x0 SWAP1 SLOAD SWAP1 PUSH2 0x100 EXP SWAP1 DIV PUSH20 0xFFFFFFFFFFFFFFFFFFFFFFFFFFFFFFFFFFFFFFFF AND PUSH20 0xFFFFFFFFFFFFFFFFFFFFFFFFFFFFFFFFFFFFFFFF AND PUSH4 0xA9059CBB PUSH1 0x7E PUSH1 0x8B SLOAD PUSH1 0x4 DUP2 LT PUSH2 0x3382 JUMPI INVALID JUMPDEST ADD PUSH1 0x0 SWAP1 SLOAD SWAP1 PUSH2 0x100 EXP SWAP1 DIV PUSH20 0xFFFFFFFFFFFFFFFFFFFFFFFFFFFFFFFFFFFFFFFF AND PUSH1 0x82 PUSH1 0x8B SLOAD PUSH1 0x4 DUP2 LT PUSH2 0x33B3 JUMPI INVALID JUMPDEST ADD SLOAD PUSH1 0x40 MLOAD DUP4 PUSH4 0xFFFFFFFF AND PUSH1 0xE0 SHL DUP2 MSTORE PUSH1 0x4 ADD DUP1 DUP4 PUSH20 0xFFFFFFFFFFFFFFFFFFFFFFFFFFFFFFFFFFFFFFFF AND PUSH20 0xFFFFFFFFFFFFFFFFFFFFFFFFFFFFFFFFFFFFFFFF AND DUP2 MSTORE PUSH1 0x20 ADD DUP3 DUP2 MSTORE PUSH1 0x20 ADD SWAP3 POP POP POP PUSH1 0x20 PUSH1 0x40 MLOAD DUP1 DUP4 SUB DUP2 PUSH1 0x0 DUP8 DUP1 EXTCODESIZE ISZERO DUP1 ISZERO PUSH2 0x341E JUMPI PUSH1 0x0 DUP1 REVERT JUMPDEST POP GAS CALL ISZERO DUP1 ISZERO PUSH2 0x3432 JUMPI RETURNDATASIZE PUSH1 0x0 DUP1 RETURNDATACOPY RETURNDATASIZE PUSH1 0x0 REVERT JUMPDEST POP POP POP POP PUSH1 0x40 MLOAD RETURNDATASIZE PUSH1 0x20 DUP2 LT ISZERO PUSH2 0x3448 JUMPI PUSH1 0x0 DUP1 REVERT JUMPDEST DUP2 ADD SWAP1 DUP1 DUP1 MLOAD SWAP1 PUSH1 0x20 ADD SWAP1 SWAP3 SWAP2 SWAP1 POP POP POP POP PUSH1 0x0 PUSH1 0x82 PUSH1 0x8B SLOAD PUSH1 0x4 DUP2 LT PUSH2 0x346B JUMPI INVALID JUMPDEST ADD DUP2 SWAP1 SSTORE POP POP PUSH2 0x3485 JUMP JUMPDEST DUP1 DUP1 PUSH1 0x1 ADD SWAP2 POP POP PUSH2 0x32E6 JUMP JUMPDEST POP JUMPDEST JUMP JUMPDEST PUSH1 0x0 DUP1 PUSH2 0x34B3 PUSH1 0x74 SLOAD PUSH2 0x34A5 PUSH1 0x73 SLOAD NUMBER PUSH2 0x449A SWAP1 SWAP2 SWAP1 PUSH4 0xFFFFFFFF AND JUMP JUMPDEST PUSH2 0x44B1 SWAP1 SWAP2 SWAP1 PUSH4 0xFFFFFFFF AND JUMP JUMPDEST SWAP1 POP PUSH1 0x0 PUSH2 0x35AA PUSH2 0x34C2 PUSH2 0x26A2 JUMP JUMPDEST PUSH1 0x6F PUSH1 0x0 SWAP1 SLOAD SWAP1 PUSH2 0x100 EXP SWAP1 DIV PUSH20 0xFFFFFFFFFFFFFFFFFFFFFFFFFFFFFFFFFFFFFFFF AND PUSH20 0xFFFFFFFFFFFFFFFFFFFFFFFFFFFFFFFFFFFFFFFF AND PUSH4 0x70A08231 ADDRESS PUSH1 0x40 MLOAD DUP3 PUSH4 0xFFFFFFFF AND PUSH1 0xE0 SHL DUP2 MSTORE PUSH1 0x4 ADD DUP1 DUP3 PUSH20 0xFFFFFFFFFFFFFFFFFFFFFFFFFFFFFFFFFFFFFFFF AND PUSH20 0xFFFFFFFFFFFFFFFFFFFFFFFFFFFFFFFFFFFFFFFF AND DUP2 MSTORE PUSH1 0x20 ADD SWAP2 POP POP PUSH1 0x20 PUSH1 0x40 MLOAD DUP1 DUP4 SUB DUP2 DUP7 DUP1 EXTCODESIZE ISZERO DUP1 ISZERO PUSH2 0x3561 JUMPI PUSH1 0x0 DUP1 REVERT JUMPDEST POP GAS STATICCALL ISZERO DUP1 ISZERO PUSH2 0x3575 JUMPI RETURNDATASIZE PUSH1 0x0 DUP1 RETURNDATACOPY RETURNDATASIZE PUSH1 0x0 REVERT JUMPDEST POP POP POP POP PUSH1 0x40 MLOAD RETURNDATASIZE PUSH1 0x20 DUP2 LT ISZERO PUSH2 0x358B JUMPI PUSH1 0x0 DUP1 REVERT JUMPDEST DUP2 ADD SWAP1 DUP1 DUP1 MLOAD SWAP1 PUSH1 0x20 ADD SWAP1 SWAP3 SWAP2 SWAP1 POP POP POP PUSH2 0x449A SWAP1 SWAP2 SWAP1 PUSH4 0xFFFFFFFF AND JUMP JUMPDEST SWAP1 POP DUP2 DUP2 LT ISZERO PUSH2 0x35B8 JUMPI DUP1 SWAP2 POP JUMPDEST PUSH2 0x35D2 DUP3 PUSH2 0x35C4 PUSH2 0x26A2 JUMP JUMPDEST PUSH2 0x35D9 SWAP1 SWAP2 SWAP1 PUSH4 0xFFFFFFFF AND JUMP JUMPDEST SWAP3 POP POP POP SWAP1 JUMP JUMPDEST PUSH1 0x0 DUP2 DUP4 ADD SWAP1 POP DUP3 DUP2 LT ISZERO PUSH2 0x35EA JUMPI INVALID JUMPDEST DUP1 SWAP1 POP SWAP3 SWAP2 POP POP JUMP JUMPDEST PUSH1 0x0 PUSH1 0x86 SLOAD GT PUSH2 0x366B JUMPI PUSH1 0x40 MLOAD PUSH32 0x8C379A000000000000000000000000000000000000000000000000000000000 DUP2 MSTORE PUSH1 0x4 ADD DUP1 DUP1 PUSH1 0x20 ADD DUP3 DUP2 SUB DUP3 MSTORE PUSH1 0x13 DUP2 MSTORE PUSH1 0x20 ADD DUP1 PUSH32 0x496E73756666696369656E7420416D6F756E7400000000000000000000000000 DUP2 MSTORE POP PUSH1 0x20 ADD SWAP2 POP POP PUSH1 0x40 MLOAD DUP1 SWAP2 SUB SWAP1 REVERT JUMPDEST PUSH1 0x0 PUSH1 0x6F PUSH1 0x0 SWAP1 SLOAD SWAP1 PUSH2 0x100 EXP SWAP1 DIV PUSH20 0xFFFFFFFFFFFFFFFFFFFFFFFFFFFFFFFFFFFFFFFF AND PUSH20 0xFFFFFFFFFFFFFFFFFFFFFFFFFFFFFFFFFFFFFFFF AND PUSH4 0x70A08231 ADDRESS PUSH1 0x40 MLOAD DUP3 PUSH4 0xFFFFFFFF AND PUSH1 0xE0 SHL DUP2 MSTORE PUSH1 0x4 ADD DUP1 DUP3 PUSH20 0xFFFFFFFFFFFFFFFFFFFFFFFFFFFFFFFFFFFFFFFF AND PUSH20 0xFFFFFFFFFFFFFFFFFFFFFFFFFFFFFFFFFFFFFFFF AND DUP2 MSTORE PUSH1 0x20 ADD SWAP2 POP POP PUSH1 0x20 PUSH1 0x40 MLOAD DUP1 DUP4 SUB DUP2 DUP7 DUP1 EXTCODESIZE ISZERO DUP1 ISZERO PUSH2 0x370C JUMPI PUSH1 0x0 DUP1 REVERT JUMPDEST POP GAS STATICCALL ISZERO DUP1 ISZERO PUSH2 0x3720 JUMPI RETURNDATASIZE PUSH1 0x0 DUP1 RETURNDATACOPY RETURNDATASIZE PUSH1 0x0 REVERT JUMPDEST POP POP POP POP PUSH1 0x40 MLOAD RETURNDATASIZE PUSH1 0x20 DUP2 LT ISZERO PUSH2 0x3736 JUMPI PUSH1 0x0 DUP1 REVERT JUMPDEST DUP2 ADD SWAP1 DUP1 DUP1 MLOAD SWAP1 PUSH1 0x20 ADD SWAP1 SWAP3 SWAP2 SWAP1 POP POP POP SWAP1 POP PUSH1 0x60 PUSH1 0x2 PUSH1 0x40 MLOAD SWAP1 DUP1 DUP3 MSTORE DUP1 PUSH1 0x20 MUL PUSH1 0x20 ADD DUP3 ADD PUSH1 0x40 MSTORE DUP1 ISZERO PUSH2 0x377B JUMPI DUP2 PUSH1 0x20 ADD PUSH1 0x20 DUP3 MUL DUP1 CODESIZE DUP4 CODECOPY DUP1 DUP3 ADD SWAP2 POP POP SWAP1 POP JUMPDEST POP SWAP1 POP PUSH1 0x8A PUSH1 0x0 SWAP1 SLOAD SWAP1 PUSH2 0x100 EXP SWAP1 DIV PUSH20 0xFFFFFFFFFFFFFFFFFFFFFFFFFFFFFFFFFFFFFFFF AND PUSH20 0xFFFFFFFFFFFFFFFFFFFFFFFFFFFFFFFFFFFFFFFF AND PUSH4 0xAD5C4648 PUSH1 0x40 MLOAD DUP2 PUSH4 0xFFFFFFFF AND PUSH1 0xE0 SHL DUP2 MSTORE PUSH1 0x4 ADD PUSH1 0x20 PUSH1 0x40 MLOAD DUP1 DUP4 SUB DUP2 DUP7 DUP1 EXTCODESIZE ISZERO DUP1 ISZERO PUSH2 0x37E6 JUMPI PUSH1 0x0 DUP1 REVERT JUMPDEST POP GAS STATICCALL ISZERO DUP1 ISZERO PUSH2 0x37FA JUMPI RETURNDATASIZE PUSH1 0x0 DUP1 RETURNDATACOPY RETURNDATASIZE PUSH1 0x0 REVERT JUMPDEST POP POP POP POP PUSH1 0x40 MLOAD RETURNDATASIZE PUSH1 0x20 DUP2 LT ISZERO PUSH2 0x3810 JUMPI PUSH1 0x0 DUP1 REVERT JUMPDEST DUP2 ADD SWAP1 DUP1 DUP1 MLOAD SWAP1 PUSH1 0x20 ADD SWAP1 SWAP3 SWAP2 SWAP1 POP POP POP DUP2 PUSH1 0x0 DUP2 MLOAD DUP2 LT PUSH2 0x382E JUMPI INVALID JUMPDEST PUSH1 0x20 MUL PUSH1 0x20 ADD ADD SWAP1 PUSH20 0xFFFFFFFFFFFFFFFFFFFFFFFFFFFFFFFFFFFFFFFF AND SWAP1 DUP2 PUSH20 0xFFFFFFFFFFFFFFFFFFFFFFFFFFFFFFFFFFFFFFFF AND DUP2 MSTORE POP POP PUSH1 0x6F PUSH1 0x0 SWAP1 SLOAD SWAP1 PUSH2 0x100 EXP SWAP1 DIV PUSH20 0xFFFFFFFFFFFFFFFFFFFFFFFFFFFFFFFFFFFFFFFF AND DUP2 PUSH1 0x1 DUP2 MLOAD DUP2 LT PUSH2 0x3898 JUMPI INVALID JUMPDEST PUSH1 0x20 MUL PUSH1 0x20 ADD ADD SWAP1 PUSH20 0xFFFFFFFFFFFFFFFFFFFFFFFFFFFFFFFFFFFFFFFF AND SWAP1 DUP2 PUSH20 0xFFFFFFFFFFFFFFFFFFFFFFFFFFFFFFFFFFFFFFFF AND DUP2 MSTORE POP POP PUSH1 0x8A PUSH1 0x0 SWAP1 SLOAD SWAP1 PUSH2 0x100 EXP SWAP1 DIV PUSH20 0xFFFFFFFFFFFFFFFFFFFFFFFFFFFFFFFFFFFFFFFF AND PUSH20 0xFFFFFFFFFFFFFFFFFFFFFFFFFFFFFFFFFFFFFFFF AND PUSH4 0xB6F9DE95 PUSH1 0x86 SLOAD PUSH1 0x0 DUP5 ADDRESS PUSH2 0x392B PUSH1 0x2 TIMESTAMP PUSH2 0x44B1 SWAP1 SWAP2 SWAP1 PUSH4 0xFFFFFFFF AND JUMP JUMPDEST PUSH1 0x40 MLOAD DUP7 PUSH4 0xFFFFFFFF AND PUSH1 0xE0 SHL DUP2 MSTORE PUSH1 0x4 ADD DUP1 DUP6 DUP2 MSTORE PUSH1 0x20 ADD DUP1 PUSH1 0x20 ADD DUP5 PUSH20 0xFFFFFFFFFFFFFFFFFFFFFFFFFFFFFFFFFFFFFFFF AND PUSH20 0xFFFFFFFFFFFFFFFFFFFFFFFFFFFFFFFFFFFFFFFF AND DUP2 MSTORE PUSH1 0x20 ADD DUP4 DUP2 MSTORE PUSH1 0x20 ADD DUP3 DUP2 SUB DUP3 MSTORE DUP6 DUP2 DUP2 MLOAD DUP2 MSTORE PUSH1 0x20 ADD SWAP2 POP DUP1 MLOAD SWAP1 PUSH1 0x20 ADD SWAP1 PUSH1 0x20 MUL DUP1 DUP4 DUP4 PUSH1 0x0 JUMPDEST DUP4 DUP2 LT ISZERO PUSH2 0x39BB JUMPI DUP1 DUP3 ADD MLOAD DUP2 DUP5 ADD MSTORE PUSH1 0x20 DUP2 ADD SWAP1 POP PUSH2 0x39A0 JUMP JUMPDEST POP POP POP POP SWAP1 POP ADD SWAP6 POP POP POP POP POP POP PUSH1 0x0 PUSH1 0x40 MLOAD DUP1 DUP4 SUB DUP2 DUP6 DUP9 DUP1 EXTCODESIZE ISZERO DUP1 ISZERO PUSH2 0x39E2 JUMPI PUSH1 0x0 DUP1 REVERT JUMPDEST POP GAS CALL ISZERO DUP1 ISZERO PUSH2 0x39F6 JUMPI RETURNDATASIZE PUSH1 0x0 DUP1 RETURNDATACOPY RETURNDATASIZE PUSH1 0x0 REVERT JUMPDEST POP POP POP POP POP PUSH1 0x0 PUSH1 0x86 DUP2 SWAP1 SSTORE POP PUSH1 0x0 PUSH2 0x3AF1 DUP4 PUSH1 0x6F PUSH1 0x0 SWAP1 SLOAD SWAP1 PUSH2 0x100 EXP SWAP1 DIV PUSH20 0xFFFFFFFFFFFFFFFFFFFFFFFFFFFFFFFFFFFFFFFF AND PUSH20 0xFFFFFFFFFFFFFFFFFFFFFFFFFFFFFFFFFFFFFFFF AND PUSH4 0x70A08231 ADDRESS PUSH1 0x40 MLOAD DUP3 PUSH4 0xFFFFFFFF AND PUSH1 0xE0 SHL DUP2 MSTORE PUSH1 0x4 ADD DUP1 DUP3 PUSH20 0xFFFFFFFFFFFFFFFFFFFFFFFFFFFFFFFFFFFFFFFF AND PUSH20 0xFFFFFFFFFFFFFFFFFFFFFFFFFFFFFFFFFFFFFFFF AND DUP2 MSTORE PUSH1 0x20 ADD SWAP2 POP POP PUSH1 0x20 PUSH1 0x40 MLOAD DUP1 DUP4 SUB DUP2 DUP7 DUP1 EXTCODESIZE ISZERO DUP1 ISZERO PUSH2 0x3AA8 JUMPI PUSH1 0x0 DUP1 REVERT JUMPDEST POP GAS STATICCALL ISZERO DUP1 ISZERO PUSH2 0x3ABC JUMPI RETURNDATASIZE PUSH1 0x0 DUP1 RETURNDATACOPY RETURNDATASIZE PUSH1 0x0 REVERT JUMPDEST POP POP POP POP PUSH1 0x40 MLOAD RETURNDATASIZE PUSH1 0x20 DUP2 LT ISZERO PUSH2 0x3AD2 JUMPI PUSH1 0x0 DUP1 REVERT JUMPDEST DUP2 ADD SWAP1 DUP1 DUP1 MLOAD SWAP1 PUSH1 0x20 ADD SWAP1 SWAP3 SWAP2 SWAP1 POP POP POP PUSH2 0x449A SWAP1 SWAP2 SWAP1 PUSH4 0xFFFFFFFF AND JUMP JUMPDEST SWAP1 POP PUSH1 0x0 PUSH1 0x79 PUSH1 0x0 PUSH1 0x5 DUP2 LT PUSH2 0x3B03 JUMPI INVALID JUMPDEST ADD SLOAD GT ISZERO PUSH2 0x3C27 JUMPI PUSH1 0x6F PUSH1 0x0 SWAP1 SLOAD SWAP1 PUSH2 0x100 EXP SWAP1 DIV PUSH20 0xFFFFFFFFFFFFFFFFFFFFFFFFFFFFFFFFFFFFFFFF AND PUSH20 0xFFFFFFFFFFFFFFFFFFFFFFFFFFFFFFFFFFFFFFFF AND PUSH4 0xA9059CBB PUSH2 0xDEAD PUSH2 0x3B81 PUSH1 0x64 PUSH2 0x3B73 PUSH1 0x79 PUSH1 0x0 PUSH1 0x5 DUP2 LT PUSH2 0x3B62 JUMPI INVALID JUMPDEST ADD SLOAD DUP8 PUSH2 0x44B1 SWAP1 SWAP2 SWAP1 PUSH4 0xFFFFFFFF AND JUMP JUMPDEST PUSH2 0x32CF SWAP1 SWAP2 SWAP1 PUSH4 0xFFFFFFFF AND JUMP JUMPDEST PUSH1 0x40 MLOAD DUP4 PUSH4 0xFFFFFFFF AND PUSH1 0xE0 SHL DUP2 MSTORE PUSH1 0x4 ADD DUP1 DUP4 PUSH20 0xFFFFFFFFFFFFFFFFFFFFFFFFFFFFFFFFFFFFFFFF AND PUSH20 0xFFFFFFFFFFFFFFFFFFFFFFFFFFFFFFFFFFFFFFFF AND DUP2 MSTORE PUSH1 0x20 ADD DUP3 DUP2 MSTORE PUSH1 0x20 ADD SWAP3 POP POP POP PUSH1 0x20 PUSH1 0x40 MLOAD DUP1 DUP4 SUB DUP2 PUSH1 0x0 DUP8 DUP1 EXTCODESIZE ISZERO DUP1 ISZERO PUSH2 0x3BEA JUMPI PUSH1 0x0 DUP1 REVERT JUMPDEST POP GAS CALL ISZERO DUP1 ISZERO PUSH2 0x3BFE JUMPI RETURNDATASIZE PUSH1 0x0 DUP1 RETURNDATACOPY RETURNDATASIZE PUSH1 0x0 REVERT JUMPDEST POP POP POP POP PUSH1 0x40 MLOAD RETURNDATASIZE PUSH1 0x20 DUP2 LT ISZERO PUSH2 0x3C14 JUMPI PUSH1 0x0 DUP1 REVERT JUMPDEST DUP2 ADD SWAP1 DUP1 DUP1 MLOAD SWAP1 PUSH1 0x20 ADD SWAP1 SWAP3 SWAP2 SWAP1 POP POP POP POP JUMPDEST PUSH1 0x0 PUSH20 0xFFFFFFFFFFFFFFFFFFFFFFFFFFFFFFFFFFFFFFFF AND PUSH1 0x7E PUSH1 0x0 PUSH1 0x4 DUP2 LT PUSH2 0x3C4D JUMPI INVALID JUMPDEST ADD PUSH1 0x0 SWAP1 SLOAD SWAP1 PUSH2 0x100 EXP SWAP1 DIV PUSH20 0xFFFFFFFFFFFFFFFFFFFFFFFFFFFFFFFFFFFFFFFF AND PUSH20 0xFFFFFFFFFFFFFFFFFFFFFFFFFFFFFFFFFFFFFFFF AND EQ ISZERO DUP1 ISZERO PUSH2 0x3CA2 JUMPI POP PUSH1 0x0 PUSH1 0x79 PUSH1 0x1 PUSH1 0x5 DUP2 LT PUSH2 0x3C9E JUMPI INVALID JUMPDEST ADD SLOAD GT JUMPDEST DUP1 ISZERO PUSH2 0x3D09 JUMPI POP ADDRESS PUSH20 0xFFFFFFFFFFFFFFFFFFFFFFFFFFFFFFFFFFFFFFFF AND PUSH1 0x7E PUSH1 0x0 PUSH1 0x4 DUP2 LT PUSH2 0x3CCE JUMPI INVALID JUMPDEST ADD PUSH1 0x0 SWAP1 SLOAD SWAP1 PUSH2 0x100 EXP SWAP1 DIV PUSH20 0xFFFFFFFFFFFFFFFFFFFFFFFFFFFFFFFFFFFFFFFF AND PUSH20 0xFFFFFFFFFFFFFFFFFFFFFFFFFFFFFFFFFFFFFFFF AND EQ ISZERO JUMPDEST ISZERO PUSH2 0x3D78 JUMPI PUSH2 0x3D64 PUSH2 0x3D46 PUSH1 0x64 PUSH2 0x3D38 PUSH1 0x79 PUSH1 0x1 PUSH1 0x5 DUP2 LT PUSH2 0x3D27 JUMPI INVALID JUMPDEST ADD SLOAD DUP6 PUSH2 0x44B1 SWAP1 SWAP2 SWAP1 PUSH4 0xFFFFFFFF AND JUMP JUMPDEST PUSH2 0x32CF SWAP1 SWAP2 SWAP1 PUSH4 0xFFFFFFFF AND JUMP JUMPDEST PUSH1 0x82 PUSH1 0x0 PUSH1 0x4 DUP2 LT PUSH2 0x3D54 JUMPI INVALID JUMPDEST ADD SLOAD PUSH2 0x35D9 SWAP1 SWAP2 SWAP1 PUSH4 0xFFFFFFFF AND JUMP JUMPDEST PUSH1 0x82 PUSH1 0x0 PUSH1 0x4 DUP2 LT PUSH2 0x3D72 JUMPI INVALID JUMPDEST ADD DUP2 SWAP1 SSTORE POP JUMPDEST PUSH1 0x0 PUSH20 0xFFFFFFFFFFFFFFFFFFFFFFFFFFFFFFFFFFFFFFFF AND PUSH1 0x7E PUSH1 0x1 PUSH1 0x4 DUP2 LT PUSH2 0x3D9E JUMPI INVALID JUMPDEST ADD PUSH1 0x0 SWAP1 SLOAD SWAP1 PUSH2 0x100 EXP SWAP1 DIV PUSH20 0xFFFFFFFFFFFFFFFFFFFFFFFFFFFFFFFFFFFFFFFF AND PUSH20 0xFFFFFFFFFFFFFFFFFFFFFFFFFFFFFFFFFFFFFFFF AND EQ ISZERO DUP1 ISZERO PUSH2 0x3DF3 JUMPI POP PUSH1 0x0 PUSH1 0x79 PUSH1 0x2 PUSH1 0x5 DUP2 LT PUSH2 0x3DEF JUMPI INVALID JUMPDEST ADD SLOAD GT JUMPDEST DUP1 ISZERO PUSH2 0x3E5A JUMPI POP ADDRESS PUSH20 0xFFFFFFFFFFFFFFFFFFFFFFFFFFFFFFFFFFFFFFFF AND PUSH1 0x7E PUSH1 0x1 PUSH1 0x4 DUP2 LT PUSH2 0x3E1F JUMPI INVALID JUMPDEST ADD PUSH1 0x0 SWAP1 SLOAD SWAP1 PUSH2 0x100 EXP SWAP1 DIV PUSH20 0xFFFFFFFFFFFFFFFFFFFFFFFFFFFFFFFFFFFFFFFF AND PUSH20 0xFFFFFFFFFFFFFFFFFFFFFFFFFFFFFFFFFFFFFFFF AND EQ ISZERO JUMPDEST ISZERO PUSH2 0x3EC9 JUMPI PUSH2 0x3EB5 PUSH2 0x3E97 PUSH1 0x64 PUSH2 0x3E89 PUSH1 0x79 PUSH1 0x2 PUSH1 0x5 DUP2 LT PUSH2 0x3E78 JUMPI INVALID JUMPDEST ADD SLOAD DUP6 PUSH2 0x44B1 SWAP1 SWAP2 SWAP1 PUSH4 0xFFFFFFFF AND JUMP JUMPDEST PUSH2 0x32CF SWAP1 SWAP2 SWAP1 PUSH4 0xFFFFFFFF AND JUMP JUMPDEST PUSH1 0x82 PUSH1 0x1 PUSH1 0x4 DUP2 LT PUSH2 0x3EA5 JUMPI INVALID JUMPDEST ADD SLOAD PUSH2 0x35D9 SWAP1 SWAP2 SWAP1 PUSH4 0xFFFFFFFF AND JUMP JUMPDEST PUSH1 0x82 PUSH1 0x1 PUSH1 0x4 DUP2 LT PUSH2 0x3EC3 JUMPI INVALID JUMPDEST ADD DUP2 SWAP1 SSTORE POP JUMPDEST PUSH1 0x0 PUSH20 0xFFFFFFFFFFFFFFFFFFFFFFFFFFFFFFFFFFFFFFFF AND PUSH1 0x7E PUSH1 0x2 PUSH1 0x4 DUP2 LT PUSH2 0x3EEF JUMPI INVALID JUMPDEST ADD PUSH1 0x0 SWAP1 SLOAD SWAP1 PUSH2 0x100 EXP SWAP1 DIV PUSH20 0xFFFFFFFFFFFFFFFFFFFFFFFFFFFFFFFFFFFFFFFF AND PUSH20 0xFFFFFFFFFFFFFFFFFFFFFFFFFFFFFFFFFFFFFFFF AND EQ ISZERO DUP1 ISZERO PUSH2 0x3F44 JUMPI POP PUSH1 0x0 PUSH1 0x79 PUSH1 0x3 PUSH1 0x5 DUP2 LT PUSH2 0x3F40 JUMPI INVALID JUMPDEST ADD SLOAD GT JUMPDEST DUP1 ISZERO PUSH2 0x3FAB JUMPI POP ADDRESS PUSH20 0xFFFFFFFFFFFFFFFFFFFFFFFFFFFFFFFFFFFFFFFF AND PUSH1 0x7E PUSH1 0x2 PUSH1 0x4 DUP2 LT PUSH2 0x3F70 JUMPI INVALID JUMPDEST ADD PUSH1 0x0 SWAP1 SLOAD SWAP1 PUSH2 0x100 EXP SWAP1 DIV PUSH20 0xFFFFFFFFFFFFFFFFFFFFFFFFFFFFFFFFFFFFFFFF AND PUSH20 0xFFFFFFFFFFFFFFFFFFFFFFFFFFFFFFFFFFFFFFFF AND EQ ISZERO JUMPDEST ISZERO PUSH2 0x401A JUMPI PUSH2 0x4006 PUSH2 0x3FE8 PUSH1 0x64 PUSH2 0x3FDA PUSH1 0x79 PUSH1 0x3 PUSH1 0x5 DUP2 LT PUSH2 0x3FC9 JUMPI INVALID JUMPDEST ADD SLOAD DUP6 PUSH2 0x44B1 SWAP1 SWAP2 SWAP1 PUSH4 0xFFFFFFFF AND JUMP JUMPDEST PUSH2 0x32CF SWAP1 SWAP2 SWAP1 PUSH4 0xFFFFFFFF AND JUMP JUMPDEST PUSH1 0x82 PUSH1 0x2 PUSH1 0x4 DUP2 LT PUSH2 0x3FF6 JUMPI INVALID JUMPDEST ADD SLOAD PUSH2 0x35D9 SWAP1 SWAP2 SWAP1 PUSH4 0xFFFFFFFF AND JUMP JUMPDEST PUSH1 0x82 PUSH1 0x2 PUSH1 0x4 DUP2 LT PUSH2 0x4014 JUMPI INVALID JUMPDEST ADD DUP2 SWAP1 SSTORE POP JUMPDEST PUSH1 0x0 PUSH20 0xFFFFFFFFFFFFFFFFFFFFFFFFFFFFFFFFFFFFFFFF AND PUSH1 0x7E PUSH1 0x3 PUSH1 0x4 DUP2 LT PUSH2 0x4040 JUMPI INVALID JUMPDEST ADD PUSH1 0x0 SWAP1 SLOAD SWAP1 PUSH2 0x100 EXP SWAP1 DIV PUSH20 0xFFFFFFFFFFFFFFFFFFFFFFFFFFFFFFFFFFFFFFFF AND PUSH20 0xFFFFFFFFFFFFFFFFFFFFFFFFFFFFFFFFFFFFFFFF AND EQ ISZERO DUP1 ISZERO PUSH2 0x4095 JUMPI POP PUSH1 0x0 PUSH1 0x79 PUSH1 0x4 PUSH1 0x5 DUP2 LT PUSH2 0x4091 JUMPI INVALID JUMPDEST ADD SLOAD GT JUMPDEST DUP1 ISZERO PUSH2 0x40FC JUMPI POP ADDRESS PUSH20 0xFFFFFFFFFFFFFFFFFFFFFFFFFFFFFFFFFFFFFFFF AND PUSH1 0x7E PUSH1 0x3 PUSH1 0x4 DUP2 LT PUSH2 0x40C1 JUMPI INVALID JUMPDEST ADD PUSH1 0x0 SWAP1 SLOAD SWAP1 PUSH2 0x100 EXP SWAP1 DIV PUSH20 0xFFFFFFFFFFFFFFFFFFFFFFFFFFFFFFFFFFFFFFFF AND PUSH20 0xFFFFFFFFFFFFFFFFFFFFFFFFFFFFFFFFFFFFFFFF AND EQ ISZERO JUMPDEST ISZERO PUSH2 0x416B JUMPI PUSH2 0x4157 PUSH2 0x4139 PUSH1 0x64 PUSH2 0x412B PUSH1 0x79 PUSH1 0x4 PUSH1 0x5 DUP2 LT PUSH2 0x411A JUMPI INVALID JUMPDEST ADD SLOAD DUP6 PUSH2 0x44B1 SWAP1 SWAP2 SWAP1 PUSH4 0xFFFFFFFF AND JUMP JUMPDEST PUSH2 0x32CF SWAP1 SWAP2 SWAP1 PUSH4 0xFFFFFFFF AND JUMP JUMPDEST PUSH1 0x82 PUSH1 0x3 PUSH1 0x4 DUP2 LT PUSH2 0x4147 JUMPI INVALID JUMPDEST ADD SLOAD PUSH2 0x35D9 SWAP1 SWAP2 SWAP1 PUSH4 0xFFFFFFFF AND JUMP JUMPDEST PUSH1 0x82 PUSH1 0x3 PUSH1 0x4 DUP2 LT PUSH2 0x4165 JUMPI INVALID JUMPDEST ADD DUP2 SWAP1 SSTORE POP JUMPDEST POP POP POP JUMP JUMPDEST PUSH1 0x0 DUP1 PUSH1 0x3 PUSH1 0x4 SWAP1 SLOAD SWAP1 PUSH2 0x100 EXP SWAP1 DIV PUSH4 0xFFFFFFFF AND SWAP1 POP PUSH1 0x0 DUP1 SWAP1 SLOAD SWAP1 PUSH2 0x100 EXP SWAP1 DIV PUSH4 0xFFFFFFFF AND PUSH4 0xFFFFFFFF AND PUSH1 0x2 PUSH4 0xFFFFFFFF AND EXP PUSH4 0xFFFFFFFF AND DUP2 PUSH4 0xFFFFFFFF AND EQ ISZERO PUSH2 0x420D JUMPI PUSH1 0x40 MLOAD PUSH32 0x8C379A000000000000000000000000000000000000000000000000000000000 DUP2 MSTORE PUSH1 0x4 ADD DUP1 DUP1 PUSH1 0x20 ADD DUP3 DUP2 SUB DUP3 MSTORE PUSH1 0x2F DUP2 MSTORE PUSH1 0x20 ADD DUP1 PUSH2 0x4878 PUSH1 0x2F SWAP2 CODECOPY PUSH1 0x40 ADD SWAP2 POP POP PUSH1 0x40 MLOAD DUP1 SWAP2 SUB SWAP1 REVERT JUMPDEST PUSH1 0x1 PUSH1 0x3 PUSH1 0x4 DUP3 DUP3 DUP3 SWAP1 SLOAD SWAP1 PUSH2 0x100 EXP SWAP1 DIV PUSH4 0xFFFFFFFF AND ADD SWAP3 POP PUSH2 0x100 EXP DUP2 SLOAD DUP2 PUSH4 0xFFFFFFFF MUL NOT AND SWAP1 DUP4 PUSH4 0xFFFFFFFF AND MUL OR SWAP1 SSTORE POP PUSH1 0x0 DUP4 SWAP1 POP PUSH1 0x0 DUP1 PUSH1 0x0 DUP1 SWAP1 POP JUMPDEST PUSH1 0x0 DUP1 SWAP1 SLOAD SWAP1 PUSH2 0x100 EXP SWAP1 DIV PUSH4 0xFFFFFFFF AND PUSH4 0xFFFFFFFF AND DUP2 PUSH4 0xFFFFFFFF AND LT ISZERO PUSH2 0x4330 JUMPI PUSH1 0x0 PUSH1 0x2 DUP7 PUSH4 0xFFFFFFFF AND DUP2 PUSH2 0x4289 JUMPI INVALID JUMPDEST MOD PUSH4 0xFFFFFFFF AND EQ ISZERO PUSH2 0x42E0 JUMPI DUP4 SWAP3 POP PUSH1 0x2 DUP2 PUSH4 0xFFFFFFFF AND DUP2 SLOAD DUP2 LT PUSH2 0x42AC JUMPI INVALID JUMPDEST SWAP1 PUSH1 0x0 MSTORE PUSH1 0x20 PUSH1 0x0 KECCAK256 ADD SLOAD SWAP2 POP DUP4 PUSH1 0x1 DUP3 PUSH4 0xFFFFFFFF AND DUP2 SLOAD DUP2 LT PUSH2 0x42CD JUMPI INVALID JUMPDEST SWAP1 PUSH1 0x0 MSTORE PUSH1 0x20 PUSH1 0x0 KECCAK256 ADD DUP2 SWAP1 SSTORE POP PUSH2 0x4304 JUMP JUMPDEST PUSH1 0x1 DUP2 PUSH4 0xFFFFFFFF AND DUP2 SLOAD DUP2 LT PUSH2 0x42F3 JUMPI INVALID JUMPDEST SWAP1 PUSH1 0x0 MSTORE PUSH1 0x20 PUSH1 0x0 KECCAK256 ADD SLOAD SWAP3 POP DUP4 SWAP2 POP JUMPDEST PUSH2 0x430E DUP4 DUP4 PUSH2 0x1B8C JUMP JUMPDEST SWAP4 POP PUSH1 0x2 DUP6 PUSH4 0xFFFFFFFF AND DUP2 PUSH2 0x4320 JUMPI INVALID JUMPDEST DIV SWAP5 POP DUP1 DUP1 PUSH1 0x1 ADD SWAP2 POP POP PUSH2 0x4252 JUMP JUMPDEST POP PUSH1 0x64 PUSH4 0xFFFFFFFF AND PUSH1 0x1 PUSH1 0x3 PUSH1 0x0 SWAP1 SLOAD SWAP1 PUSH2 0x100 EXP SWAP1 DIV PUSH4 0xFFFFFFFF AND ADD PUSH4 0xFFFFFFFF AND DUP2 PUSH2 0x435C JUMPI INVALID JUMPDEST MOD PUSH1 0x3 PUSH1 0x0 PUSH2 0x100 EXP DUP2 SLOAD DUP2 PUSH4 0xFFFFFFFF MUL NOT AND SWAP1 DUP4 PUSH4 0xFFFFFFFF AND MUL OR SWAP1 SSTORE POP DUP3 PUSH1 0x4 PUSH1 0x3 PUSH1 0x0 SWAP1 SLOAD SWAP1 PUSH2 0x100 EXP SWAP1 DIV PUSH4 0xFFFFFFFF AND PUSH4 0xFFFFFFFF AND PUSH1 0x64 DUP2 LT PUSH2 0x43A3 JUMPI INVALID JUMPDEST ADD DUP2 SWAP1 SSTORE POP PUSH1 0x1 PUSH1 0x3 PUSH1 0x4 SWAP1 SLOAD SWAP1 PUSH2 0x100 EXP SWAP1 DIV PUSH4 0xFFFFFFFF AND SUB SWAP5 POP POP POP POP POP SWAP2 SWAP1 POP JUMP JUMPDEST PUSH2 0x4495 DUP4 DUP5 PUSH20 0xFFFFFFFFFFFFFFFFFFFFFFFFFFFFFFFFFFFFFFFF AND PUSH4 0xA9059CBB SWAP1 POP PUSH1 0xE0 SHL DUP5 DUP5 PUSH1 0x40 MLOAD PUSH1 0x24 ADD DUP1 DUP4 PUSH20 0xFFFFFFFFFFFFFFFFFFFFFFFFFFFFFFFFFFFFFFFF AND PUSH20 0xFFFFFFFFFFFFFFFFFFFFFFFFFFFFFFFFFFFFFFFF AND DUP2 MSTORE PUSH1 0x20 ADD DUP3 DUP2 MSTORE PUSH1 0x20 ADD SWAP3 POP POP POP PUSH1 0x40 MLOAD PUSH1 0x20 DUP2 DUP4 SUB SUB DUP2 MSTORE SWAP1 PUSH1 0x40 MSTORE SWAP1 PUSH28 0xFFFFFFFFFFFFFFFFFFFFFFFFFFFFFFFFFFFFFFFFFFFFFFFFFFFFFFFF NOT AND PUSH1 0x20 DUP3 ADD DUP1 MLOAD PUSH28 0xFFFFFFFFFFFFFFFFFFFFFFFFFFFFFFFFFFFFFFFFFFFFFFFFFFFFFFFF DUP4 DUP2 DUP4 AND OR DUP4 MSTORE POP POP POP POP PUSH2 0x44E5 JUMP JUMPDEST POP POP POP JUMP JUMPDEST PUSH1 0x0 DUP3 DUP3 GT ISZERO PUSH2 0x44A6 JUMPI INVALID JUMPDEST DUP2 DUP4 SUB SWAP1 POP SWAP3 SWAP2 POP POP JUMP JUMPDEST PUSH1 0x0 DUP1 DUP4 EQ ISZERO PUSH2 0x44C4 JUMPI PUSH1 0x0 SWAP1 POP PUSH2 0x44DF JUMP JUMPDEST DUP2 DUP4 MUL SWAP1 POP DUP2 DUP4 DUP3 DUP2 PUSH2 0x44D3 JUMPI INVALID JUMPDEST DIV EQ PUSH2 0x44DB JUMPI INVALID JUMPDEST DUP1 SWAP1 POP JUMPDEST SWAP3 SWAP2 POP POP JUMP JUMPDEST PUSH2 0x4504 DUP3 PUSH20 0xFFFFFFFFFFFFFFFFFFFFFFFFFFFFFFFFFFFFFFFF AND PUSH2 0x3196 JUMP JUMPDEST PUSH2 0x4576 JUMPI PUSH1 0x40 MLOAD PUSH32 0x8C379A000000000000000000000000000000000000000000000000000000000 DUP2 MSTORE PUSH1 0x4 ADD DUP1 DUP1 PUSH1 0x20 ADD DUP3 DUP2 SUB DUP3 MSTORE PUSH1 0x1F DUP2 MSTORE PUSH1 0x20 ADD DUP1 PUSH32 0x5361666545524332303A2063616C6C20746F206E6F6E2D636F6E747261637400 DUP2 MSTORE POP PUSH1 0x20 ADD SWAP2 POP POP PUSH1 0x40 MLOAD DUP1 SWAP2 SUB SWAP1 REVERT JUMPDEST PUSH1 0x0 PUSH1 0x60 DUP4 PUSH20 0xFFFFFFFFFFFFFFFFFFFFFFFFFFFFFFFFFFFFFFFF AND DUP4 PUSH1 0x40 MLOAD DUP1 DUP3 DUP1 MLOAD SWAP1 PUSH1 0x20 ADD SWAP1 DUP1 DUP4 DUP4 JUMPDEST PUSH1 0x20 DUP4 LT PUSH2 0x45C5 JUMPI DUP1 MLOAD DUP3 MSTORE PUSH1 0x20 DUP3 ADD SWAP2 POP PUSH1 0x20 DUP2 ADD SWAP1 POP PUSH1 0x20 DUP4 SUB SWAP3 POP PUSH2 0x45A2 JUMP JUMPDEST PUSH1 0x1 DUP4 PUSH1 0x20 SUB PUSH2 0x100 EXP SUB DUP1 NOT DUP3 MLOAD AND DUP2 DUP5 MLOAD AND DUP1 DUP3 OR DUP6 MSTORE POP POP POP POP POP POP SWAP1 POP ADD SWAP2 POP POP PUSH1 0x0 PUSH1 0x40 MLOAD DUP1 DUP4 SUB DUP2 PUSH1 0x0 DUP7 GAS CALL SWAP2 POP POP RETURNDATASIZE DUP1 PUSH1 0x0 DUP2 EQ PUSH2 0x4627 JUMPI PUSH1 0x40 MLOAD SWAP2 POP PUSH1 0x1F NOT PUSH1 0x3F RETURNDATASIZE ADD AND DUP3 ADD PUSH1 0x40 MSTORE RETURNDATASIZE DUP3 MSTORE RETURNDATASIZE PUSH1 0x0 PUSH1 0x20 DUP5 ADD RETURNDATACOPY PUSH2 0x462C JUMP JUMPDEST PUSH1 0x60 SWAP2 POP JUMPDEST POP SWAP2 POP SWAP2 POP DUP2 PUSH2 0x46A4 JUMPI PUSH1 0x40 MLOAD PUSH32 0x8C379A000000000000000000000000000000000000000000000000000000000 DUP2 MSTORE PUSH1 0x4 ADD DUP1 DUP1 PUSH1 0x20 ADD DUP3 DUP2 SUB DUP3 MSTORE PUSH1 0x20 DUP2 MSTORE PUSH1 0x20 ADD DUP1 PUSH32 0x5361666545524332303A206C6F772D6C6576656C2063616C6C206661696C6564 DUP2 MSTORE POP PUSH1 0x20 ADD SWAP2 POP POP PUSH1 0x40 MLOAD DUP1 SWAP2 SUB SWAP1 REVERT JUMPDEST PUSH1 0x0 DUP2 MLOAD GT ISZERO PUSH2 0x472A JUMPI DUP1 DUP1 PUSH1 0x20 ADD SWAP1 MLOAD PUSH1 0x20 DUP2 LT ISZERO PUSH2 0x46C3 JUMPI PUSH1 0x0 DUP1 REVERT JUMPDEST DUP2 ADD SWAP1 DUP1 DUP1 MLOAD SWAP1 PUSH1 0x20 ADD SWAP1 SWAP3 SWAP2 SWAP1 POP POP POP PUSH2 0x4729 JUMPI PUSH1 0x40 MLOAD PUSH32 0x8C379A000000000000000000000000000000000000000000000000000000000 DUP2 MSTORE PUSH1 0x4 ADD DUP1 DUP1 PUSH1 0x20 ADD DUP3 DUP2 SUB DUP3 MSTORE PUSH1 0x2A DUP2 MSTORE PUSH1 0x20 ADD DUP1 PUSH2 0x48E9 PUSH1 0x2A SWAP2 CODECOPY PUSH1 0x40 ADD SWAP2 POP POP PUSH1 0x40 MLOAD DUP1 SWAP2 SUB SWAP1 REVERT JUMPDEST JUMPDEST POP POP POP POP JUMP JUMPDEST DUP3 PUSH1 0x5 DUP2 ADD SWAP3 DUP3 ISZERO PUSH2 0x475F JUMPI SWAP2 PUSH1 0x20 MUL DUP3 ADD JUMPDEST DUP3 DUP2 GT ISZERO PUSH2 0x475E JUMPI DUP3 MLOAD DUP3 SSTORE SWAP2 PUSH1 0x20 ADD SWAP2 SWAP1 PUSH1 0x1 ADD SWAP1 PUSH2 0x4743 JUMP JUMPDEST JUMPDEST POP SWAP1 POP PUSH2 0x476C SWAP2 SWAP1 PUSH2 0x47ED JUMP JUMPDEST POP SWAP1 JUMP JUMPDEST DUP3 PUSH1 0x4 DUP2 ADD SWAP3 DUP3 ISZERO PUSH2 0x47DC JUMPI SWAP2 PUSH1 0x20 MUL DUP3 ADD JUMPDEST DUP3 DUP2 GT ISZERO PUSH2 0x47DB JUMPI DUP3 MLOAD DUP3 PUSH1 0x0 PUSH2 0x100 EXP DUP2 SLOAD DUP2 PUSH20 0xFFFFFFFFFFFFFFFFFFFFFFFFFFFFFFFFFFFFFFFF MUL NOT AND SWAP1 DUP4 PUSH20 0xFFFFFFFFFFFFFFFFFFFFFFFFFFFFFFFFFFFFFFFF AND MUL OR SWAP1 SSTORE POP SWAP2 PUSH1 0x20 ADD SWAP2 SWAP1 PUSH1 0x1 ADD SWAP1 PUSH2 0x4783 JUMP JUMPDEST JUMPDEST POP SWAP1 POP PUSH2 0x47E9 SWAP2 SWAP1 PUSH2 0x4812 JUMP JUMPDEST POP SWAP1 JUMP JUMPDEST PUSH2 0x480F SWAP2 SWAP1 JUMPDEST DUP1 DUP3 GT ISZERO PUSH2 0x480B JUMPI PUSH1 0x0 DUP2 PUSH1 0x0 SWAP1 SSTORE POP PUSH1 0x1 ADD PUSH2 0x47F3 JUMP JUMPDEST POP SWAP1 JUMP JUMPDEST SWAP1 JUMP JUMPDEST PUSH2 0x4852 SWAP2 SWAP1 JUMPDEST DUP1 DUP3 GT ISZERO PUSH2 0x484E JUMPI PUSH1 0x0 DUP2 DUP2 PUSH2 0x100 EXP DUP2 SLOAD SWAP1 PUSH20 0xFFFFFFFFFFFFFFFFFFFFFFFFFFFFFFFFFFFFFFFF MUL NOT AND SWAP1 SSTORE POP PUSH1 0x1 ADD PUSH2 0x4818 JUMP JUMPDEST POP SWAP1 JUMP JUMPDEST SWAP1 JUMP INVALID 0x4F PUSH15 0x6C79204F776E65722063616E206361 PUSH13 0x6C20746869732066756E637469 PUSH16 0x6E2E4D65726B6C652074726565206973 KECCAK256 PUSH7 0x756C6C2E204E6F KECCAK256 PUSH14 0x6F7265206C656166732063616E20 PUSH3 0x652061 PUSH5 0x6465645F72 PUSH10 0x6768742073686F756C64 KECCAK256 PUSH3 0x652069 PUSH15 0x7369646520746865206669656C6454 PUSH9 0x6520636F6D6D69746D PUSH6 0x6E7420686173 KECCAK256 PUSH3 0x65656E KECCAK256 PUSH20 0x75626D69747465645361666545524332303A2045 MSTORE NUMBER ORIGIN ADDRESS KECCAK256 PUSH16 0x7065726174696F6E20646964206E6F74 KECCAK256 PUSH20 0x756363656564A265627A7A7231582020EC8AA275 PUSH3 0x2B11EC 0xA7 0xFC 0xD8 PUSH1 0x25 0x24 DUP10 SWAP14 0xEE 0xDC 0xB9 0xB7 SUB 0xB5 SWAP5 0xC8 EXTCODESIZE ISZERO DUP14 ORIGIN PUSH13 0x953964736F6C63430005110032 0x5F PUSH19 0x696768742073686F756C6420626520696E7369 PUSH5 0x6520746865 KECCAK256 PUSH7 0x69656C64000000 "
				},
				"gasEstimates": {
					"creation": {
						"codeDepositCost": "3751800",
						"executionCost": "infinite",
						"totalCost": "infinite"
					},
					"external": {
						"FIELD_SIZE()": "339",
						"M87Denomination()": "infinite",
						"M87Token()": "1120",
						"ROOT_HISTORY_SIZE()": "306",
						"ZERO_VALUE()": "294",
						"accumulateM87()": "1094",
						"anonymityFee()": "1117",
						"changeMessierOwner(address)": "infinite",
						"changeTreasury(address)": "infinite",
						"coinDenomination()": "1161",
						"collectedFee()": "1160",
						"commitments(bytes32)": "1311",
						"curPoolIndex()": "1095",
						"currentRootIndex()": "1143",
						"deposit(bytes32)": "infinite",
						"feeToCollectAmount()": "1074",
						"feeToCollectPercent()": "1116",
						"filledSubtrees(uint256)": "2046",
						"forceSwapAndShare()": "infinite",
						"getAccumulateM87()": "infinite",
						"getLastRoot()": "1995",
						"hashLeftRight(bytes32,bytes32)": "infinite",
						"initM87Denomination()": "1095",
						"isKnownRoot(bytes32)": "infinite",
						"lastRewardBlock()": "1073",
						"levels()": "1143",
						"messier_owner()": "1121",
						"nextIndex()": "1235",
						"numOfShares()": "1096",
						"overMinEth()": "1116",
						"poolList(uint256)": "1301",
						"rewardAmounts(uint256)": "1174",
						"rewardPerBlock()": "1138",
						"roots(uint256)": "1262",
						"setAnonymityFee(uint256)": "infinite",
						"setDuration(uint256)": "infinite",
						"setFeePercent(uint256)": "infinite",
						"setOverMinETH(uint256)": "infinite",
						"setPoolFee(uint256,uint256,uint256,uint256,uint256)": "infinite",
						"setPoolList(address,address,address,address)": "infinite",
						"shareOfReward(uint256)": "1175",
						"token()": "1163",
						"tokenDenomination()": "1117",
						"treasury()": "1209",
						"uniswapV2Router()": "1100",
						"updateBlockReward()": "infinite",
						"updateM87Token(address)": "infinite",
						"updateVerifier(address)": "infinite",
						"verifier()": "1210",
						"version()": "infinite",
						"withdraw(bytes,bytes32,bytes32,address,address,uint256,uint256)": "infinite",
						"zeros(uint256)": "2047"
					},
					"internal": {
						"calcAccumulateM87()": "infinite",
						"safeTransfer(contract IERC20,address,uint256)": "infinite",
						"sendRewardtoPool()": "infinite",
						"swapAndShare()": "infinite"
					}
				},
				"methodIdentifiers": {
					"FIELD_SIZE()": "414a37ba",
					"M87Denomination()": "22217cd3",
					"M87Token()": "75ddc9ed",
					"ROOT_HISTORY_SIZE()": "cd87a3b4",
					"ZERO_VALUE()": "ec732959",
					"accumulateM87()": "b4a61faa",
					"anonymityFee()": "3b406fb7",
					"changeMessierOwner(address)": "d3129be4",
					"changeTreasury(address)": "b14f2a39",
					"coinDenomination()": "997318ec",
					"collectedFee()": "e811f50a",
					"commitments(bytes32)": "839df945",
					"curPoolIndex()": "6c23cd68",
					"currentRootIndex()": "90eeb02b",
					"deposit(bytes32)": "b214faa5",
					"feeToCollectAmount()": "2d0ec0ff",
					"feeToCollectPercent()": "ecaa6503",
					"filledSubtrees(uint256)": "f178e47c",
					"forceSwapAndShare()": "34749d22",
					"getAccumulateM87()": "9709a6fd",
					"getLastRoot()": "ba70f757",
					"hashLeftRight(bytes32,bytes32)": "38bf282e",
					"initM87Denomination()": "af324076",
					"isKnownRoot(bytes32)": "6d9833e3",
					"lastRewardBlock()": "a9f8d181",
					"levels()": "4ecf518b",
					"messier_owner()": "34d6a7bf",
					"nextIndex()": "fc7e9c6f",
					"numOfShares()": "3409038c",
					"overMinEth()": "d27c1824",
					"poolList(uint256)": "2a48235b",
					"rewardAmounts(uint256)": "ca093047",
					"rewardPerBlock()": "8ae39cac",
					"roots(uint256)": "c2b40ae4",
					"setAnonymityFee(uint256)": "8daac0df",
					"setDuration(uint256)": "f6be71d1",
					"setFeePercent(uint256)": "7ce3489b",
					"setOverMinETH(uint256)": "29a5967e",
					"setPoolFee(uint256,uint256,uint256,uint256,uint256)": "4b3e7811",
					"setPoolList(address,address,address,address)": "6c081396",
					"shareOfReward(uint256)": "445cd696",
					"token()": "fc0c546a",
					"tokenDenomination()": "5129b3e1",
					"treasury()": "61d027b3",
					"uniswapV2Router()": "1694505e",
					"updateBlockReward()": "8d949d4b",
					"updateM87Token(address)": "ca13d4e6",
					"updateVerifier(address)": "97fc007c",
					"verifier()": "2b7ac3f3",
					"version()": "54fd4d50",
					"withdraw(bytes,bytes32,bytes32,address,address,uint256,uint256)": "21a0adb6",
					"zeros(uint256)": "e8295588"
				}
			},
			"storageLayout": {
				"storage": [
					{
						"astId": 429,
						"contract": "anonimity/0.1-ETH-Anonymity.sol:MessierAnonymity",
						"label": "levels",
						"offset": 0,
						"slot": "0",
						"type": "t_uint32"
					},
					{
						"astId": 432,
						"contract": "anonimity/0.1-ETH-Anonymity.sol:MessierAnonymity",
						"label": "filledSubtrees",
						"offset": 0,
						"slot": "1",
						"type": "t_array(t_bytes32)dyn_storage"
					},
					{
						"astId": 435,
						"contract": "anonimity/0.1-ETH-Anonymity.sol:MessierAnonymity",
						"label": "zeros",
						"offset": 0,
						"slot": "2",
						"type": "t_array(t_bytes32)dyn_storage"
					},
					{
						"astId": 438,
						"contract": "anonimity/0.1-ETH-Anonymity.sol:MessierAnonymity",
						"label": "currentRootIndex",
						"offset": 0,
						"slot": "3",
						"type": "t_uint32"
					},
					{
						"astId": 441,
						"contract": "anonimity/0.1-ETH-Anonymity.sol:MessierAnonymity",
						"label": "nextIndex",
						"offset": 4,
						"slot": "3",
						"type": "t_uint32"
					},
					{
						"astId": 448,
						"contract": "anonimity/0.1-ETH-Anonymity.sol:MessierAnonymity",
						"label": "roots",
						"offset": 0,
						"slot": "4",
						"type": "t_array(t_bytes32)100_storage"
					},
					{
						"astId": 778,
						"contract": "anonimity/0.1-ETH-Anonymity.sol:MessierAnonymity",
						"label": "_guardCounter",
						"offset": 0,
						"slot": "104",
						"type": "t_uint256"
					},
					{
						"astId": 844,
						"contract": "anonimity/0.1-ETH-Anonymity.sol:MessierAnonymity",
						"label": "tokenDenomination",
						"offset": 0,
						"slot": "105",
						"type": "t_uint256"
					},
					{
						"astId": 846,
						"contract": "anonimity/0.1-ETH-Anonymity.sol:MessierAnonymity",
						"label": "coinDenomination",
						"offset": 0,
						"slot": "106",
						"type": "t_uint256"
					},
					{
						"astId": 848,
						"contract": "anonimity/0.1-ETH-Anonymity.sol:MessierAnonymity",
						"label": "initM87Denomination",
						"offset": 0,
						"slot": "107",
						"type": "t_uint256"
					},
					{
						"astId": 852,
						"contract": "anonimity/0.1-ETH-Anonymity.sol:MessierAnonymity",
						"label": "commitments",
						"offset": 0,
						"slot": "108",
						"type": "t_mapping(t_bytes32,t_bool)"
					},
					{
						"astId": 854,
						"contract": "anonimity/0.1-ETH-Anonymity.sol:MessierAnonymity",
						"label": "verifier",
						"offset": 0,
						"slot": "109",
						"type": "t_contract(IVerifier)775"
					},
					{
						"astId": 856,
						"contract": "anonimity/0.1-ETH-Anonymity.sol:MessierAnonymity",
						"label": "token",
						"offset": 0,
						"slot": "110",
						"type": "t_contract(IERC20)175"
					},
					{
						"astId": 858,
						"contract": "anonimity/0.1-ETH-Anonymity.sol:MessierAnonymity",
						"label": "M87Token",
						"offset": 0,
						"slot": "111",
						"type": "t_contract(IERC20)175"
					},
					{
						"astId": 860,
						"contract": "anonimity/0.1-ETH-Anonymity.sol:MessierAnonymity",
						"label": "treasury",
						"offset": 0,
						"slot": "112",
						"type": "t_address"
					},
					{
						"astId": 862,
						"contract": "anonimity/0.1-ETH-Anonymity.sol:MessierAnonymity",
						"label": "messier_owner",
						"offset": 0,
						"slot": "113",
						"type": "t_address"
					},
					{
						"astId": 864,
						"contract": "anonimity/0.1-ETH-Anonymity.sol:MessierAnonymity",
						"label": "numOfShares",
						"offset": 0,
						"slot": "114",
						"type": "t_uint256"
					},
					{
						"astId": 866,
						"contract": "anonimity/0.1-ETH-Anonymity.sol:MessierAnonymity",
						"label": "lastRewardBlock",
						"offset": 0,
						"slot": "115",
						"type": "t_uint256"
					},
					{
						"astId": 868,
						"contract": "anonimity/0.1-ETH-Anonymity.sol:MessierAnonymity",
						"label": "rewardPerBlock",
						"offset": 0,
						"slot": "116",
						"type": "t_uint256"
					},
					{
						"astId": 870,
						"contract": "anonimity/0.1-ETH-Anonymity.sol:MessierAnonymity",
						"label": "accumulateM87",
						"offset": 0,
						"slot": "117",
						"type": "t_uint256"
					},
					{
						"astId": 873,
						"contract": "anonimity/0.1-ETH-Anonymity.sol:MessierAnonymity",
						"label": "anonymityFee",
						"offset": 0,
						"slot": "118",
						"type": "t_uint256"
					},
					{
						"astId": 876,
						"contract": "anonimity/0.1-ETH-Anonymity.sol:MessierAnonymity",
						"label": "duration",
						"offset": 0,
						"slot": "119",
						"type": "t_uint256"
					},
					{
						"astId": 885,
						"contract": "anonimity/0.1-ETH-Anonymity.sol:MessierAnonymity",
						"label": "numDurationBlocks",
						"offset": 0,
						"slot": "120",
						"type": "t_uint256"
					},
					{
						"astId": 895,
						"contract": "anonimity/0.1-ETH-Anonymity.sol:MessierAnonymity",
						"label": "shareOfReward",
						"offset": 0,
						"slot": "121",
						"type": "t_array(t_uint256)5_storage"
					},
					{
						"astId": 899,
						"contract": "anonimity/0.1-ETH-Anonymity.sol:MessierAnonymity",
						"label": "poolList",
						"offset": 0,
						"slot": "126",
						"type": "t_array(t_address)4_storage"
					},
					{
						"astId": 903,
						"contract": "anonimity/0.1-ETH-Anonymity.sol:MessierAnonymity",
						"label": "rewardAmounts",
						"offset": 0,
						"slot": "130",
						"type": "t_array(t_uint256)4_storage"
					},
					{
						"astId": 905,
						"contract": "anonimity/0.1-ETH-Anonymity.sol:MessierAnonymity",
						"label": "collectedFee",
						"offset": 0,
						"slot": "134",
						"type": "t_uint256"
					},
					{
						"astId": 908,
						"contract": "anonimity/0.1-ETH-Anonymity.sol:MessierAnonymity",
						"label": "feeToCollectPercent",
						"offset": 0,
						"slot": "135",
						"type": "t_uint256"
					},
					{
						"astId": 910,
						"contract": "anonimity/0.1-ETH-Anonymity.sol:MessierAnonymity",
						"label": "feeToCollectAmount",
						"offset": 0,
						"slot": "136",
						"type": "t_uint256"
					},
					{
						"astId": 913,
						"contract": "anonimity/0.1-ETH-Anonymity.sol:MessierAnonymity",
						"label": "overMinEth",
						"offset": 0,
						"slot": "137",
						"type": "t_uint256"
					},
					{
						"astId": 915,
						"contract": "anonimity/0.1-ETH-Anonymity.sol:MessierAnonymity",
						"label": "uniswapV2Router",
						"offset": 0,
						"slot": "138",
						"type": "t_contract(IUniswapV2Router02)825"
					},
					{
						"astId": 917,
						"contract": "anonimity/0.1-ETH-Anonymity.sol:MessierAnonymity",
						"label": "curPoolIndex",
						"offset": 0,
						"slot": "139",
						"type": "t_uint256"
					}
				],
				"types": {
					"t_address": {
						"encoding": "inplace",
						"label": "address",
						"numberOfBytes": "20"
					},
					"t_array(t_address)4_storage": {
						"base": "t_address",
						"encoding": "inplace",
						"label": "address[4]",
						"numberOfBytes": "128"
					},
					"t_array(t_bytes32)100_storage": {
						"base": "t_bytes32",
						"encoding": "inplace",
						"label": "bytes32[100]",
						"numberOfBytes": "3200"
					},
					"t_array(t_bytes32)dyn_storage": {
						"base": "t_bytes32",
						"encoding": "dynamic_array",
						"label": "bytes32[]",
						"numberOfBytes": "32"
					},
					"t_array(t_uint256)4_storage": {
						"base": "t_uint256",
						"encoding": "inplace",
						"label": "uint256[4]",
						"numberOfBytes": "128"
					},
					"t_array(t_uint256)5_storage": {
						"base": "t_uint256",
						"encoding": "inplace",
						"label": "uint256[5]",
						"numberOfBytes": "160"
					},
					"t_bool": {
						"encoding": "inplace",
						"label": "bool",
						"numberOfBytes": "1"
					},
					"t_bytes32": {
						"encoding": "inplace",
						"label": "bytes32",
						"numberOfBytes": "32"
					},
					"t_contract(IERC20)175": {
						"encoding": "inplace",
						"label": "contract IERC20",
						"numberOfBytes": "20"
					},
					"t_contract(IUniswapV2Router02)825": {
						"encoding": "inplace",
						"label": "contract IUniswapV2Router02",
						"numberOfBytes": "20"
					},
					"t_contract(IVerifier)775": {
						"encoding": "inplace",
						"label": "contract IVerifier",
						"numberOfBytes": "20"
					},
					"t_mapping(t_bytes32,t_bool)": {
						"encoding": "mapping",
						"key": "t_bytes32",
						"label": "mapping(bytes32 => bool)",
						"numberOfBytes": "32",
						"value": "t_bool"
					},
					"t_uint256": {
						"encoding": "inplace",
						"label": "uint256",
						"numberOfBytes": "32"
					},
					"t_uint32": {
						"encoding": "inplace",
						"label": "uint32",
						"numberOfBytes": "4"
					}
				}
			},
			"userdoc": {
				"methods": {}
			}
		}
	}
}