{
	"contracts/stake_reward_MLM.sol": {
		"Invest": {
			"abi": [
				{
					"inputs": [],
					"stateMutability": "nonpayable",
					"type": "constructor"
				},
				{
					"inputs": [],
					"name": "DUSDReferralsList",
					"outputs": [
						{
							"internalType": "address[]",
							"name": "",
							"type": "address[]"
						}
					],
					"stateMutability": "view",
					"type": "function"
				},
				{
					"inputs": [],
					"name": "DUSDTotalReferrals",
					"outputs": [
						{
							"internalType": "uint256",
							"name": "",
							"type": "uint256"
						}
					],
					"stateMutability": "view",
					"type": "function"
				},
				{
					"inputs": [
						{
							"internalType": "address",
							"name": "",
							"type": "address"
						}
					],
					"name": "DUSDinvestor",
					"outputs": [
						{
							"internalType": "address",
							"name": "referralFrom",
							"type": "address"
						},
						{
							"internalType": "uint256",
							"name": "reward",
							"type": "uint256"
						},
						{
							"internalType": "uint256",
							"name": "noOfInvestment",
							"type": "uint256"
						},
						{
							"internalType": "uint256",
							"name": "totalInvestment",
							"type": "uint256"
						},
						{
							"internalType": "uint256",
							"name": "totalWithdraw_reward",
							"type": "uint256"
						},
						{
							"internalType": "bool",
							"name": "investBefore",
							"type": "bool"
						}
					],
					"stateMutability": "view",
					"type": "function"
				},
				{
					"inputs": [
						{
							"internalType": "uint256",
							"name": "_investedamount",
							"type": "uint256"
						},
						{
							"internalType": "address",
							"name": "_referral",
							"type": "address"
						}
					],
					"name": "Stake",
					"outputs": [
						{
							"internalType": "bool",
							"name": "success",
							"type": "bool"
						}
					],
					"stateMutability": "nonpayable",
					"type": "function"
				},
				{
					"inputs": [],
					"name": "getAllDUSDinvestments",
					"outputs": [
						{
							"components": [
								{
									"internalType": "uint256",
									"name": "investedAmount",
									"type": "uint256"
								},
								{
									"internalType": "uint256",
									"name": "withdrawnTime",
									"type": "uint256"
								},
								{
									"internalType": "uint256",
									"name": "DepositTime",
									"type": "uint256"
								},
								{
									"internalType": "uint256",
									"name": "investmentNum",
									"type": "uint256"
								}
							],
							"internalType": "struct Invest.allInvestments[]",
							"name": "",
							"type": "tuple[]"
						}
					],
					"stateMutability": "view",
					"type": "function"
				},
				{
					"inputs": [],
					"name": "getReward",
					"outputs": [
						{
							"internalType": "uint256",
							"name": "",
							"type": "uint256"
						}
					],
					"stateMutability": "view",
					"type": "function"
				},
				{
					"inputs": [],
					"name": "getTotalInvestmentDUSD",
					"outputs": [
						{
							"internalType": "uint256",
							"name": "",
							"type": "uint256"
						}
					],
					"stateMutability": "view",
					"type": "function"
				},
				{
					"inputs": [],
					"name": "owner",
					"outputs": [
						{
							"internalType": "address",
							"name": "",
							"type": "address"
						}
					],
					"stateMutability": "view",
					"type": "function"
				},
				{
					"inputs": [],
					"name": "referralLevel_count",
					"outputs": [
						{
							"internalType": "uint256[]",
							"name": "arr",
							"type": "uint256[]"
						}
					],
					"stateMutability": "view",
					"type": "function"
				},
				{
					"inputs": [],
					"name": "referralLevel_earning",
					"outputs": [
						{
							"internalType": "uint256[]",
							"name": "arr",
							"type": "uint256[]"
						}
					],
					"stateMutability": "view",
					"type": "function"
				},
				{
					"inputs": [],
					"name": "rewardToken",
					"outputs": [
						{
							"internalType": "uint256",
							"name": "",
							"type": "uint256"
						}
					],
					"stateMutability": "view",
					"type": "function"
				},
				{
					"inputs": [
						{
							"internalType": "uint256",
							"name": "_amount",
							"type": "uint256"
						}
					],
					"name": "setReward",
					"outputs": [],
					"stateMutability": "nonpayable",
					"type": "function"
				},
				{
					"inputs": [
						{
							"internalType": "uint256",
							"name": "_amount",
							"type": "uint256"
						}
					],
					"name": "set_max_Stake_amount",
					"outputs": [],
					"stateMutability": "nonpayable",
					"type": "function"
				},
				{
					"inputs": [
						{
							"internalType": "uint256",
							"name": "_amount",
							"type": "uint256"
						}
					],
					"name": "set_min_Stake_amount",
					"outputs": [],
					"stateMutability": "nonpayable",
					"type": "function"
				},
				{
					"inputs": [
						{
							"internalType": "uint256",
							"name": "min_stake",
							"type": "uint256"
						},
						{
							"internalType": "uint256",
							"name": "max_stake",
							"type": "uint256"
						},
						{
							"internalType": "uint256",
							"name": "reward_per_day",
							"type": "uint256"
						}
					],
					"name": "set_values",
					"outputs": [],
					"stateMutability": "nonpayable",
					"type": "function"
				},
				{
					"inputs": [],
					"name": "totalDUSDInvestors",
					"outputs": [
						{
							"internalType": "uint256",
							"name": "",
							"type": "uint256"
						}
					],
					"stateMutability": "view",
					"type": "function"
				},
				{
					"inputs": [
						{
							"internalType": "address",
							"name": "_owner",
							"type": "address"
						}
					],
					"name": "transferOwnership",
					"outputs": [],
					"stateMutability": "nonpayable",
					"type": "function"
				},
				{
					"inputs": [
						{
							"internalType": "uint256",
							"name": "_id",
							"type": "uint256"
						}
					],
					"name": "unStake",
					"outputs": [
						{
							"internalType": "bool",
							"name": "success",
							"type": "bool"
						}
					],
					"stateMutability": "nonpayable",
					"type": "function"
				},
				{
					"inputs": [],
					"name": "withdrawReward",
					"outputs": [
						{
							"internalType": "bool",
							"name": "success",
							"type": "bool"
						}
					],
					"stateMutability": "nonpayable",
					"type": "function"
				}
			],
			"devdoc": {
				"kind": "dev",
				"methods": {},
				"version": 1
			},
			"evm": {
				"assembly": "    /* \"contracts/stake_reward_MLM.sol\":262:10774  contract Invest... */\n  mstore(0x40, 0x80)\n    /* \"contracts/stake_reward_MLM.sol\":351:393  0x63c0F4F599EFcFD747ddEa897117b5293E139BcD */\n  0x63c0f4f599efcfd747ddea897117b5293e139bcd\n    /* \"contracts/stake_reward_MLM.sol\":331:393  address SMCcontract=0x63c0F4F599EFcFD747ddEa897117b5293E139BcD */\n  0x01\n  exp(0x0100, 0x00)\n  dup2\n  sload\n  dup2\n  0xffffffffffffffffffffffffffffffffffffffff\n  mul\n  not\n  and\n  swap1\n  dup4\n  0xffffffffffffffffffffffffffffffffffffffff\n  and\n  mul\n  or\n  swap1\n  sstore\n  pop\n    /* \"contracts/stake_reward_MLM.sol\":424:466  0xB5047153afCc59523F7f6D6F492f716a21B04681 */\n  0xb5047153afcc59523f7f6d6f492f716a21b04681\n    /* \"contracts/stake_reward_MLM.sol\":403:466  address BUSDcontract=0xB5047153afCc59523F7f6D6F492f716a21B04681 */\n  0x02\n  exp(0x0100, 0x00)\n  dup2\n  sload\n  dup2\n  0xffffffffffffffffffffffffffffffffffffffff\n  mul\n  not\n  and\n  swap1\n  dup4\n  0xffffffffffffffffffffffffffffffffffffffff\n  and\n  mul\n  or\n  swap1\n  sstore\n  pop\n    /* \"contracts/stake_reward_MLM.sol\":540:558  500000000000000000 */\n  0x06f05b59d3b20000\n    /* \"contracts/stake_reward_MLM.sol\":516:558  uint public rewardToken=500000000000000000 */\n  0x04\n  sstore\n    /* \"contracts/stake_reward_MLM.sol\":590:595  10000 */\n  0x2710\n    /* \"contracts/stake_reward_MLM.sol\":568:595  uint min_Stake_amount=10000 */\n  0x05\n  sstore\n    /* \"contracts/stake_reward_MLM.sol\":654:679  5000000000000000000000000 */\n  0x0422ca8b0a00a425000000\n    /* \"contracts/stake_reward_MLM.sol\":632:679  uint max_Stake_amount=5000000000000000000000000 */\n  0x06\n  sstore\n    /* \"contracts/stake_reward_MLM.sol\":739:747  300 days */\n  0x018b8200\n    /* \"contracts/stake_reward_MLM.sol\":717:747  uint investmentPeriod=300 days */\n  0x07\n  sstore\n    /* \"contracts/stake_reward_MLM.sol\":1443:1573  constructor(){... */\n  callvalue\n  dup1\n  iszero\n  tag_1\n  jumpi\n  0x00\n  dup1\n  revert\ntag_1:\n  pop\n    /* \"contracts/stake_reward_MLM.sol\":1489:1499  msg.sender */\n  caller\n    /* \"contracts/stake_reward_MLM.sol\":1483:1488  owner */\n  0x00\n  dup1\n    /* \"contracts/stake_reward_MLM.sol\":1483:1499  owner=msg.sender */\n  0x0100\n  exp\n  dup2\n  sload\n  dup2\n  0xffffffffffffffffffffffffffffffffffffffff\n  mul\n  not\n  and\n  swap1\n  dup4\n  0xffffffffffffffffffffffffffffffffffffffff\n  and\n  mul\n  or\n  swap1\n  sstore\n  pop\n    /* \"contracts/stake_reward_MLM.sol\":262:10774  contract Invest... */\n  dataSize(sub_0)\n  dup1\n  dataOffset(sub_0)\n  0x00\n  codecopy\n  0x00\n  return\nstop\n\nsub_0: assembly {\n        /* \"contracts/stake_reward_MLM.sol\":262:10774  contract Invest... */\n      mstore(0x40, 0x80)\n      callvalue\n      dup1\n      iszero\n      tag_1\n      jumpi\n      0x00\n      dup1\n      revert\n    tag_1:\n      pop\n      jumpi(tag_2, lt(calldatasize, 0x04))\n      shr(0xe0, calldataload(0x00))\n      dup1\n      0x5d3eea91\n      gt\n      tag_22\n      jumpi\n      dup1\n      0xce10db0a\n      gt\n      tag_23\n      jumpi\n      dup1\n      0xce10db0a\n      eq\n      tag_17\n      jumpi\n      dup1\n      0xd3560ee8\n      eq\n      tag_18\n      jumpi\n      dup1\n      0xf2fde38b\n      eq\n      tag_19\n      jumpi\n      dup1\n      0xf790b81a\n      eq\n      tag_20\n      jumpi\n      dup1\n      0xf7c618c1\n      eq\n      tag_21\n      jumpi\n      jump(tag_2)\n    tag_23:\n      dup1\n      0x5d3eea91\n      eq\n      tag_12\n      jumpi\n      dup1\n      0x8da5cb5b\n      eq\n      tag_13\n      jumpi\n      dup1\n      0x929f6bbe\n      eq\n      tag_14\n      jumpi\n      dup1\n      0xa61be99d\n      eq\n      tag_15\n      jumpi\n      dup1\n      0xc885bc58\n      eq\n      tag_16\n      jumpi\n      jump(tag_2)\n    tag_22:\n      dup1\n      0x2bccdce6\n      gt\n      tag_24\n      jumpi\n      dup1\n      0x2bccdce6\n      eq\n      tag_7\n      jumpi\n      dup1\n      0x32d4e783\n      eq\n      tag_8\n      jumpi\n      dup1\n      0x3a1e0833\n      eq\n      tag_9\n      jumpi\n      dup1\n      0x3d18b912\n      eq\n      tag_10\n      jumpi\n      dup1\n      0x500cb85f\n      eq\n      tag_11\n      jumpi\n      jump(tag_2)\n    tag_24:\n      dup1\n      0x0c5f58f4\n      eq\n      tag_3\n      jumpi\n      dup1\n      0x10cde60a\n      eq\n      tag_4\n      jumpi\n      dup1\n      0x1e8aba35\n      eq\n      tag_5\n      jumpi\n      dup1\n      0x293be456\n      eq\n      tag_6\n      jumpi\n    tag_2:\n      0x00\n      dup1\n      revert\n        /* \"contracts/stake_reward_MLM.sol\":8651:8860  function DUSDReferralsList() public view returns(address[] memory){ //this function is to get the all investors list with there account number... */\n    tag_3:\n      tag_25\n      tag_26\n      jump\t// in\n    tag_25:\n      mload(0x40)\n      tag_27\n      swap2\n      swap1\n      tag_28\n      jump\t// in\n    tag_27:\n      mload(0x40)\n      dup1\n      swap2\n      sub\n      swap1\n      return\n        /* \"contracts/stake_reward_MLM.sol\":476:506  uint public totalDUSDInvestors */\n    tag_4:\n      tag_29\n      tag_30\n      jump\t// in\n    tag_29:\n      mload(0x40)\n      tag_31\n      swap2\n      swap1\n      tag_32\n      jump\t// in\n    tag_31:\n      mload(0x40)\n      dup1\n      swap2\n      sub\n      swap1\n      return\n        /* \"contracts/stake_reward_MLM.sol\":8450:8641  function DUSDTotalReferrals() public view returns(uint){ // this function is to get the total number of referrals ... */\n    tag_5:\n      tag_33\n      tag_34\n      jump\t// in\n    tag_33:\n      mload(0x40)\n      tag_35\n      swap2\n      swap1\n      tag_32\n      jump\t// in\n    tag_35:\n      mload(0x40)\n      dup1\n      swap2\n      sub\n      swap1\n      return\n        /* \"contracts/stake_reward_MLM.sol\":8869:8964  function setReward(uint _amount) public ... */\n    tag_6:\n      tag_36\n      0x04\n      dup1\n      calldatasize\n      sub\n      dup2\n      add\n      swap1\n      tag_37\n      swap2\n      swap1\n      tag_38\n      jump\t// in\n    tag_37:\n      tag_39\n      jump\t// in\n    tag_36:\n      stop\n        /* \"contracts/stake_reward_MLM.sol\":3117:4938  function Stake(uint _investedamount,address _referral) external returns(bool success){... */\n    tag_7:\n      tag_40\n      0x04\n      dup1\n      calldatasize\n      sub\n      dup2\n      add\n      swap1\n      tag_41\n      swap2\n      swap1\n      tag_42\n      jump\t// in\n    tag_41:\n      tag_43\n      jump\t// in\n    tag_40:\n      mload(0x40)\n      tag_44\n      swap2\n      swap1\n      tag_45\n      jump\t// in\n    tag_44:\n      mload(0x40)\n      dup1\n      swap2\n      sub\n      swap1\n      return\n        /* \"contracts/stake_reward_MLM.sol\":8973:9084  function set_min_Stake_amount(uint _amount) public ... */\n    tag_8:\n      tag_46\n      0x04\n      dup1\n      calldatasize\n      sub\n      dup2\n      add\n      swap1\n      tag_47\n      swap2\n      swap1\n      tag_38\n      jump\t// in\n    tag_47:\n      tag_48\n      jump\t// in\n    tag_46:\n      stop\n        /* \"contracts/stake_reward_MLM.sol\":6764:7747  function getAllDUSDinvestments() public view returns (allInvestments[] memory) { //this function will return the all investments of the investor and withware date... */\n    tag_9:\n      tag_49\n      tag_50\n      jump\t// in\n    tag_49:\n      mload(0x40)\n      tag_51\n      swap2\n      swap1\n      tag_52\n      jump\t// in\n    tag_51:\n      mload(0x40)\n      dup1\n      swap2\n      sub\n      swap1\n      return\n        /* \"contracts/stake_reward_MLM.sol\":7757:8440  function getReward() view public returns(uint){ //this function is get the total reward balance of the investor... */\n    tag_10:\n      tag_53\n      tag_54\n      jump\t// in\n    tag_53:\n      mload(0x40)\n      tag_55\n      swap2\n      swap1\n      tag_32\n      jump\t// in\n    tag_55:\n      mload(0x40)\n      dup1\n      swap2\n      sub\n      swap1\n      return\n        /* \"contracts/stake_reward_MLM.sol\":9093:9204  function set_max_Stake_amount(uint _amount) public ... */\n    tag_11:\n      tag_56\n      0x04\n      dup1\n      calldatasize\n      sub\n      dup2\n      add\n      swap1\n      tag_57\n      swap2\n      swap1\n      tag_38\n      jump\t// in\n    tag_57:\n      tag_58\n      jump\t// in\n    tag_56:\n      stop\n        /* \"contracts/stake_reward_MLM.sol\":5438:6534  function unStake(uint _id) external  returns (bool success){... */\n    tag_12:\n      tag_59\n      0x04\n      dup1\n      calldatasize\n      sub\n      dup2\n      add\n      swap1\n      tag_60\n      swap2\n      swap1\n      tag_38\n      jump\t// in\n    tag_60:\n      tag_61\n      jump\t// in\n    tag_59:\n      mload(0x40)\n      tag_62\n      swap2\n      swap1\n      tag_45\n      jump\t// in\n    tag_62:\n      mload(0x40)\n      dup1\n      swap2\n      sub\n      swap1\n      return\n        /* \"contracts/stake_reward_MLM.sol\":300:321  address  public owner */\n    tag_13:\n      tag_63\n      tag_64\n      jump\t// in\n    tag_63:\n      mload(0x40)\n      tag_65\n      swap2\n      swap1\n      tag_66\n      jump\t// in\n    tag_65:\n      mload(0x40)\n      dup1\n      swap2\n      sub\n      swap1\n      return\n        /* \"contracts/stake_reward_MLM.sol\":6544:6754  function getTotalInvestmentDUSD() public view returns(uint) {   //this function is to get the total investment of the ivestor... */\n    tag_14:\n      tag_67\n      tag_68\n      jump\t// in\n    tag_67:\n      mload(0x40)\n      tag_69\n      swap2\n      swap1\n      tag_32\n      jump\t// in\n    tag_69:\n      mload(0x40)\n      dup1\n      swap2\n      sub\n      swap1\n      return\n        /* \"contracts/stake_reward_MLM.sol\":9630:10195  function referralLevel_earning() public view returns( uint[] memory arr )... */\n    tag_15:\n      tag_70\n      tag_71\n      jump\t// in\n    tag_70:\n      mload(0x40)\n      tag_72\n      swap2\n      swap1\n      tag_73\n      jump\t// in\n    tag_72:\n      mload(0x40)\n      dup1\n      swap2\n      sub\n      swap1\n      return\n        /* \"contracts/stake_reward_MLM.sol\":4949:5427  function withdrawReward() external returns (bool success){... */\n    tag_16:\n      tag_74\n      tag_75\n      jump\t// in\n    tag_74:\n      mload(0x40)\n      tag_76\n      swap2\n      swap1\n      tag_45\n      jump\t// in\n    tag_76:\n      mload(0x40)\n      dup1\n      swap2\n      sub\n      swap1\n      return\n        /* \"contracts/stake_reward_MLM.sol\":9213:9437  function set_values(uint min_stake,uint max_stake,uint reward_per_day) public ... */\n    tag_17:\n      tag_77\n      0x04\n      dup1\n      calldatasize\n      sub\n      dup2\n      add\n      swap1\n      tag_78\n      swap2\n      swap1\n      tag_79\n      jump\t// in\n    tag_78:\n      tag_80\n      jump\t// in\n    tag_77:\n      stop\n        /* \"contracts/stake_reward_MLM.sol\":1390:1432  mapping(address=>Data) public DUSDinvestor */\n    tag_18:\n      tag_81\n      0x04\n      dup1\n      calldatasize\n      sub\n      dup2\n      add\n      swap1\n      tag_82\n      swap2\n      swap1\n      tag_83\n      jump\t// in\n    tag_82:\n      tag_84\n      jump\t// in\n    tag_81:\n      mload(0x40)\n      tag_85\n      swap7\n      swap6\n      swap5\n      swap4\n      swap3\n      swap2\n      swap1\n      tag_86\n      jump\t// in\n    tag_85:\n      mload(0x40)\n      dup1\n      swap2\n      sub\n      swap1\n      return\n        /* \"contracts/stake_reward_MLM.sol\":9446:9620  function transferOwnership(address _owner)  public... */\n    tag_19:\n      tag_87\n      0x04\n      dup1\n      calldatasize\n      sub\n      dup2\n      add\n      swap1\n      tag_88\n      swap2\n      swap1\n      tag_83\n      jump\t// in\n    tag_88:\n      tag_89\n      jump\t// in\n    tag_87:\n      stop\n        /* \"contracts/stake_reward_MLM.sol\":10204:10765  function referralLevel_count() public view returns( uint[] memory arr )... */\n    tag_20:\n      tag_90\n      tag_91\n      jump\t// in\n    tag_90:\n      mload(0x40)\n      tag_92\n      swap2\n      swap1\n      tag_73\n      jump\t// in\n    tag_92:\n      mload(0x40)\n      dup1\n      swap2\n      sub\n      swap1\n      return\n        /* \"contracts/stake_reward_MLM.sol\":516:558  uint public rewardToken=500000000000000000 */\n    tag_21:\n      tag_93\n      tag_94\n      jump\t// in\n    tag_93:\n      mload(0x40)\n      tag_95\n      swap2\n      swap1\n      tag_32\n      jump\t// in\n    tag_95:\n      mload(0x40)\n      dup1\n      swap2\n      sub\n      swap1\n      return\n        /* \"contracts/stake_reward_MLM.sol\":8651:8860  function DUSDReferralsList() public view returns(address[] memory){ //this function is to get the all investors list with there account number... */\n    tag_26:\n        /* \"contracts/stake_reward_MLM.sol\":8700:8716  address[] memory */\n      0x60\n        /* \"contracts/stake_reward_MLM.sol\":8812:8824  DUSDinvestor */\n      0x08\n        /* \"contracts/stake_reward_MLM.sol\":8812:8836  DUSDinvestor[msg.sender] */\n      0x00\n        /* \"contracts/stake_reward_MLM.sol\":8825:8835  msg.sender */\n      caller\n        /* \"contracts/stake_reward_MLM.sol\":8812:8836  DUSDinvestor[msg.sender] */\n      0xffffffffffffffffffffffffffffffffffffffff\n      and\n      0xffffffffffffffffffffffffffffffffffffffff\n      and\n      dup2\n      mstore\n      0x20\n      add\n      swap1\n      dup2\n      mstore\n      0x20\n      add\n      0x00\n      keccak256\n        /* \"contracts/stake_reward_MLM.sol\":8812:8849  DUSDinvestor[msg.sender].hisReferrals */\n      0x01\n      add\n        /* \"contracts/stake_reward_MLM.sol\":8805:8849  return DUSDinvestor[msg.sender].hisReferrals */\n      dup1\n      sload\n      dup1\n      0x20\n      mul\n      0x20\n      add\n      mload(0x40)\n      swap1\n      dup2\n      add\n      0x40\n      mstore\n      dup1\n      swap3\n      swap2\n      swap1\n      dup2\n      dup2\n      mstore\n      0x20\n      add\n      dup3\n      dup1\n      sload\n      dup1\n      iszero\n      tag_97\n      jumpi\n      0x20\n      mul\n      dup3\n      add\n      swap2\n      swap1\n      0x00\n      mstore\n      keccak256(0x00, 0x20)\n      swap1\n    tag_98:\n      dup2\n      0x00\n      swap1\n      sload\n      swap1\n      0x0100\n      exp\n      swap1\n      div\n      0xffffffffffffffffffffffffffffffffffffffff\n      and\n      0xffffffffffffffffffffffffffffffffffffffff\n      and\n      dup2\n      mstore\n      0x20\n      add\n      swap1\n      0x01\n      add\n      swap1\n      dup1\n      dup4\n      gt\n      tag_98\n      jumpi\n    tag_97:\n      pop\n      pop\n      pop\n      pop\n      pop\n      swap1\n      pop\n        /* \"contracts/stake_reward_MLM.sol\":8651:8860  function DUSDReferralsList() public view returns(address[] memory){ //this function is to get the all investors list with there account number... */\n      swap1\n      jump\t// out\n        /* \"contracts/stake_reward_MLM.sol\":476:506  uint public totalDUSDInvestors */\n    tag_30:\n      sload(0x03)\n      dup2\n      jump\t// out\n        /* \"contracts/stake_reward_MLM.sol\":8450:8641  function DUSDTotalReferrals() public view returns(uint){ // this function is to get the total number of referrals ... */\n    tag_34:\n        /* \"contracts/stake_reward_MLM.sol\":8500:8504  uint */\n      0x00\n        /* \"contracts/stake_reward_MLM.sol\":8585:8597  DUSDinvestor */\n      0x08\n        /* \"contracts/stake_reward_MLM.sol\":8585:8609  DUSDinvestor[msg.sender] */\n      0x00\n        /* \"contracts/stake_reward_MLM.sol\":8598:8608  msg.sender */\n      caller\n        /* \"contracts/stake_reward_MLM.sol\":8585:8609  DUSDinvestor[msg.sender] */\n      0xffffffffffffffffffffffffffffffffffffffff\n      and\n      0xffffffffffffffffffffffffffffffffffffffff\n      and\n      dup2\n      mstore\n      0x20\n      add\n      swap1\n      dup2\n      mstore\n      0x20\n      add\n      0x00\n      keccak256\n        /* \"contracts/stake_reward_MLM.sol\":8585:8622  DUSDinvestor[msg.sender].hisReferrals */\n      0x01\n      add\n        /* \"contracts/stake_reward_MLM.sol\":8584:8630  (DUSDinvestor[msg.sender].hisReferrals).length */\n      dup1\n      sload\n      swap1\n      pop\n        /* \"contracts/stake_reward_MLM.sol\":8577:8630  return (DUSDinvestor[msg.sender].hisReferrals).length */\n      swap1\n      pop\n        /* \"contracts/stake_reward_MLM.sol\":8450:8641  function DUSDTotalReferrals() public view returns(uint){ // this function is to get the total number of referrals ... */\n      swap1\n      jump\t// out\n        /* \"contracts/stake_reward_MLM.sol\":8869:8964  function setReward(uint _amount) public ... */\n    tag_39:\n        /* \"contracts/stake_reward_MLM.sol\":8946:8953  _amount */\n      dup1\n        /* \"contracts/stake_reward_MLM.sol\":8932:8943  rewardToken */\n      0x04\n        /* \"contracts/stake_reward_MLM.sol\":8932:8953  rewardToken = _amount */\n      dup2\n      swap1\n      sstore\n      pop\n        /* \"contracts/stake_reward_MLM.sol\":8869:8964  function setReward(uint _amount) public ... */\n      pop\n      jump\t// out\n        /* \"contracts/stake_reward_MLM.sol\":3117:4938  function Stake(uint _investedamount,address _referral) external returns(bool success){... */\n    tag_43:\n        /* \"contracts/stake_reward_MLM.sol\":3189:3201  bool success */\n      0x00\n        /* \"contracts/stake_reward_MLM.sol\":3243:3259  min_Stake_amount */\n      sload(0x05)\n        /* \"contracts/stake_reward_MLM.sol\":3224:3239  _investedamount */\n      dup4\n        /* \"contracts/stake_reward_MLM.sol\":3224:3259  _investedamount >= min_Stake_amount */\n      lt\n      iszero\n        /* \"contracts/stake_reward_MLM.sol\":3216:3294  require(_investedamount >= min_Stake_amount,\"value is not greater than 10000\") */\n      tag_102\n      jumpi\n      mload(0x40)\n      0x08c379a000000000000000000000000000000000000000000000000000000000\n      dup2\n      mstore\n      0x04\n      add\n      tag_103\n      swap1\n      tag_104\n      jump\t// in\n    tag_103:\n      mload(0x40)\n      dup1\n      swap2\n      sub\n      swap1\n      revert\n    tag_102:\n        /* \"contracts/stake_reward_MLM.sol\":3423:3428  false */\n      0x00\n        /* \"contracts/stake_reward_MLM.sol\":3382:3428  DUSDinvestor[msg.sender].investBefore == false */\n      iszero\n      iszero\n        /* \"contracts/stake_reward_MLM.sol\":3382:3394  DUSDinvestor */\n      0x08\n        /* \"contracts/stake_reward_MLM.sol\":3382:3406  DUSDinvestor[msg.sender] */\n      0x00\n        /* \"contracts/stake_reward_MLM.sol\":3395:3405  msg.sender */\n      caller\n        /* \"contracts/stake_reward_MLM.sol\":3382:3406  DUSDinvestor[msg.sender] */\n      0xffffffffffffffffffffffffffffffffffffffff\n      and\n      0xffffffffffffffffffffffffffffffffffffffff\n      and\n      dup2\n      mstore\n      0x20\n      add\n      swap1\n      dup2\n      mstore\n      0x20\n      add\n      0x00\n      keccak256\n        /* \"contracts/stake_reward_MLM.sol\":3382:3419  DUSDinvestor[msg.sender].investBefore */\n      0x08\n      add\n      0x00\n      swap1\n      sload\n      swap1\n      0x0100\n      exp\n      swap1\n      div\n      0xff\n      and\n        /* \"contracts/stake_reward_MLM.sol\":3382:3428  DUSDinvestor[msg.sender].investBefore == false */\n      iszero\n      iszero\n      eq\n        /* \"contracts/stake_reward_MLM.sol\":3379:3533  if(DUSDinvestor[msg.sender].investBefore == false)... */\n      iszero\n      tag_105\n      jumpi\n        /* \"contracts/stake_reward_MLM.sol\":3461:3479  totalDUSDInvestors */\n      0x03\n      0x00\n        /* \"contracts/stake_reward_MLM.sol\":3461:3481  totalDUSDInvestors++ */\n      dup2\n      sload\n      dup1\n      swap3\n      swap2\n      swap1\n      tag_106\n      swap1\n      tag_107\n      jump\t// in\n    tag_106:\n      swap2\n      swap1\n      pop\n      sstore\n      pop\n        /* \"contracts/stake_reward_MLM.sol\":3379:3533  if(DUSDinvestor[msg.sender].investBefore == false)... */\n    tag_105:\n        /* \"contracts/stake_reward_MLM.sol\":3546:3554  uint num */\n      0x00\n        /* \"contracts/stake_reward_MLM.sol\":3557:3569  DUSDinvestor */\n      0x08\n        /* \"contracts/stake_reward_MLM.sol\":3557:3581  DUSDinvestor[msg.sender] */\n      0x00\n        /* \"contracts/stake_reward_MLM.sol\":3570:3580  msg.sender */\n      caller\n        /* \"contracts/stake_reward_MLM.sol\":3557:3581  DUSDinvestor[msg.sender] */\n      0xffffffffffffffffffffffffffffffffffffffff\n      and\n      0xffffffffffffffffffffffffffffffffffffffff\n      and\n      dup2\n      mstore\n      0x20\n      add\n      swap1\n      dup2\n      mstore\n      0x20\n      add\n      0x00\n      keccak256\n        /* \"contracts/stake_reward_MLM.sol\":3557:3596  DUSDinvestor[msg.sender].noOfInvestment */\n      0x05\n      add\n      sload\n        /* \"contracts/stake_reward_MLM.sol\":3546:3596  uint num = DUSDinvestor[msg.sender].noOfInvestment */\n      swap1\n      pop\n        /* \"contracts/stake_reward_MLM.sol\":3667:3682  _investedamount */\n      dup4\n        /* \"contracts/stake_reward_MLM.sol\":3610:3622  DUSDinvestor */\n      0x08\n        /* \"contracts/stake_reward_MLM.sol\":3610:3634  DUSDinvestor[msg.sender] */\n      0x00\n        /* \"contracts/stake_reward_MLM.sol\":3623:3633  msg.sender */\n      caller\n        /* \"contracts/stake_reward_MLM.sol\":3610:3634  DUSDinvestor[msg.sender] */\n      0xffffffffffffffffffffffffffffffffffffffff\n      and\n      0xffffffffffffffffffffffffffffffffffffffff\n      and\n      dup2\n      mstore\n      0x20\n      add\n      swap1\n      dup2\n      mstore\n      0x20\n      add\n      0x00\n      keccak256\n        /* \"contracts/stake_reward_MLM.sol\":3610:3645  DUSDinvestor[msg.sender].investment */\n      0x00\n      add\n        /* \"contracts/stake_reward_MLM.sol\":3610:3650  DUSDinvestor[msg.sender].investment[num] */\n      0x00\n        /* \"contracts/stake_reward_MLM.sol\":3646:3649  num */\n      dup4\n        /* \"contracts/stake_reward_MLM.sol\":3610:3650  DUSDinvestor[msg.sender].investment[num] */\n      dup2\n      mstore\n      0x20\n      add\n      swap1\n      dup2\n      mstore\n      0x20\n      add\n      0x00\n      keccak256\n        /* \"contracts/stake_reward_MLM.sol\":3610:3665  DUSDinvestor[msg.sender].investment[num].investedAmount */\n      0x00\n      add\n        /* \"contracts/stake_reward_MLM.sol\":3610:3682  DUSDinvestor[msg.sender].investment[num].investedAmount =_investedamount */\n      dup2\n      swap1\n      sstore\n      pop\n        /* \"contracts/stake_reward_MLM.sol\":3749:3764  block.timestamp */\n      timestamp\n        /* \"contracts/stake_reward_MLM.sol\":3696:3708  DUSDinvestor */\n      0x08\n        /* \"contracts/stake_reward_MLM.sol\":3696:3720  DUSDinvestor[msg.sender] */\n      0x00\n        /* \"contracts/stake_reward_MLM.sol\":3709:3719  msg.sender */\n      caller\n        /* \"contracts/stake_reward_MLM.sol\":3696:3720  DUSDinvestor[msg.sender] */\n      0xffffffffffffffffffffffffffffffffffffffff\n      and\n      0xffffffffffffffffffffffffffffffffffffffff\n      and\n      dup2\n      mstore\n      0x20\n      add\n      swap1\n      dup2\n      mstore\n      0x20\n      add\n      0x00\n      keccak256\n        /* \"contracts/stake_reward_MLM.sol\":3696:3731  DUSDinvestor[msg.sender].investment */\n      0x00\n      add\n        /* \"contracts/stake_reward_MLM.sol\":3696:3736  DUSDinvestor[msg.sender].investment[num] */\n      0x00\n        /* \"contracts/stake_reward_MLM.sol\":3732:3735  num */\n      dup4\n        /* \"contracts/stake_reward_MLM.sol\":3696:3736  DUSDinvestor[msg.sender].investment[num] */\n      dup2\n      mstore\n      0x20\n      add\n      swap1\n      dup2\n      mstore\n      0x20\n      add\n      0x00\n      keccak256\n        /* \"contracts/stake_reward_MLM.sol\":3696:3748  DUSDinvestor[msg.sender].investment[num].DepositTime */\n      0x02\n      add\n        /* \"contracts/stake_reward_MLM.sol\":3696:3764  DUSDinvestor[msg.sender].investment[num].DepositTime=block.timestamp */\n      dup2\n      swap1\n      sstore\n      pop\n        /* \"contracts/stake_reward_MLM.sol\":3851:3867  investmentPeriod */\n      sload(0x07)\n        /* \"contracts/stake_reward_MLM.sol\":3833:3848  block.timestamp */\n      timestamp\n        /* \"contracts/stake_reward_MLM.sol\":3833:3867  block.timestamp + investmentPeriod */\n      tag_108\n      swap2\n      swap1\n      tag_109\n      jump\t// in\n    tag_108:\n        /* \"contracts/stake_reward_MLM.sol\":3778:3790  DUSDinvestor */\n      0x08\n        /* \"contracts/stake_reward_MLM.sol\":3778:3802  DUSDinvestor[msg.sender] */\n      0x00\n        /* \"contracts/stake_reward_MLM.sol\":3791:3801  msg.sender */\n      caller\n        /* \"contracts/stake_reward_MLM.sol\":3778:3802  DUSDinvestor[msg.sender] */\n      0xffffffffffffffffffffffffffffffffffffffff\n      and\n      0xffffffffffffffffffffffffffffffffffffffff\n      and\n      dup2\n      mstore\n      0x20\n      add\n      swap1\n      dup2\n      mstore\n      0x20\n      add\n      0x00\n      keccak256\n        /* \"contracts/stake_reward_MLM.sol\":3778:3813  DUSDinvestor[msg.sender].investment */\n      0x00\n      add\n        /* \"contracts/stake_reward_MLM.sol\":3778:3818  DUSDinvestor[msg.sender].investment[num] */\n      0x00\n        /* \"contracts/stake_reward_MLM.sol\":3814:3817  num */\n      dup4\n        /* \"contracts/stake_reward_MLM.sol\":3778:3818  DUSDinvestor[msg.sender].investment[num] */\n      dup2\n      mstore\n      0x20\n      add\n      swap1\n      dup2\n      mstore\n      0x20\n      add\n      0x00\n      keccak256\n        /* \"contracts/stake_reward_MLM.sol\":3778:3832  DUSDinvestor[msg.sender].investment[num].withdrawnTime */\n      0x01\n      add\n        /* \"contracts/stake_reward_MLM.sol\":3778:3867  DUSDinvestor[msg.sender].investment[num].withdrawnTime=block.timestamp + investmentPeriod */\n      dup2\n      swap1\n      sstore\n      pop\n        /* \"contracts/stake_reward_MLM.sol\":3950:3953  num */\n      dup1\n        /* \"contracts/stake_reward_MLM.sol\":3895:3907  DUSDinvestor */\n      0x08\n        /* \"contracts/stake_reward_MLM.sol\":3895:3919  DUSDinvestor[msg.sender] */\n      0x00\n        /* \"contracts/stake_reward_MLM.sol\":3908:3918  msg.sender */\n      caller\n        /* \"contracts/stake_reward_MLM.sol\":3895:3919  DUSDinvestor[msg.sender] */\n      0xffffffffffffffffffffffffffffffffffffffff\n      and\n      0xffffffffffffffffffffffffffffffffffffffff\n      and\n      dup2\n      mstore\n      0x20\n      add\n      swap1\n      dup2\n      mstore\n      0x20\n      add\n      0x00\n      keccak256\n        /* \"contracts/stake_reward_MLM.sol\":3895:3930  DUSDinvestor[msg.sender].investment */\n      0x00\n      add\n        /* \"contracts/stake_reward_MLM.sol\":3895:3935  DUSDinvestor[msg.sender].investment[num] */\n      0x00\n        /* \"contracts/stake_reward_MLM.sol\":3931:3934  num */\n      dup4\n        /* \"contracts/stake_reward_MLM.sol\":3895:3935  DUSDinvestor[msg.sender].investment[num] */\n      dup2\n      mstore\n      0x20\n      add\n      swap1\n      dup2\n      mstore\n      0x20\n      add\n      0x00\n      keccak256\n        /* \"contracts/stake_reward_MLM.sol\":3895:3949  DUSDinvestor[msg.sender].investment[num].investmentNum */\n      0x03\n      add\n        /* \"contracts/stake_reward_MLM.sol\":3895:3953  DUSDinvestor[msg.sender].investment[num].investmentNum=num */\n      dup2\n      swap1\n      sstore\n      pop\n        /* \"contracts/stake_reward_MLM.sol\":4009:4024  _investedamount */\n      dup4\n        /* \"contracts/stake_reward_MLM.sol\":3967:3979  DUSDinvestor */\n      0x08\n        /* \"contracts/stake_reward_MLM.sol\":3967:3991  DUSDinvestor[msg.sender] */\n      0x00\n        /* \"contracts/stake_reward_MLM.sol\":3980:3990  msg.sender */\n      caller\n        /* \"contracts/stake_reward_MLM.sol\":3967:3991  DUSDinvestor[msg.sender] */\n      0xffffffffffffffffffffffffffffffffffffffff\n      and\n      0xffffffffffffffffffffffffffffffffffffffff\n      and\n      dup2\n      mstore\n      0x20\n      add\n      swap1\n      dup2\n      mstore\n      0x20\n      add\n      0x00\n      keccak256\n        /* \"contracts/stake_reward_MLM.sol\":3967:4007  DUSDinvestor[msg.sender].totalInvestment */\n      0x06\n      add\n      0x00\n        /* \"contracts/stake_reward_MLM.sol\":3967:4024  DUSDinvestor[msg.sender].totalInvestment+=_investedamount */\n      dup3\n      dup3\n      sload\n      tag_110\n      swap2\n      swap1\n      tag_109\n      jump\t// in\n    tag_110:\n      swap3\n      pop\n      pop\n      dup2\n      swap1\n      sstore\n      pop\n        /* \"contracts/stake_reward_MLM.sol\":4038:4050  DUSDinvestor */\n      0x08\n        /* \"contracts/stake_reward_MLM.sol\":4038:4062  DUSDinvestor[msg.sender] */\n      0x00\n        /* \"contracts/stake_reward_MLM.sol\":4051:4061  msg.sender */\n      caller\n        /* \"contracts/stake_reward_MLM.sol\":4038:4062  DUSDinvestor[msg.sender] */\n      0xffffffffffffffffffffffffffffffffffffffff\n      and\n      0xffffffffffffffffffffffffffffffffffffffff\n      and\n      dup2\n      mstore\n      0x20\n      add\n      swap1\n      dup2\n      mstore\n      0x20\n      add\n      0x00\n      keccak256\n        /* \"contracts/stake_reward_MLM.sol\":4038:4077  DUSDinvestor[msg.sender].noOfInvestment */\n      0x05\n      add\n      0x00\n        /* \"contracts/stake_reward_MLM.sol\":4038:4079  DUSDinvestor[msg.sender].noOfInvestment++ */\n      dup2\n      sload\n      dup1\n      swap3\n      swap2\n      swap1\n      tag_111\n      swap1\n      tag_107\n      jump\t// in\n    tag_111:\n      swap2\n      swap1\n      pop\n      sstore\n      pop\n        /* \"contracts/stake_reward_MLM.sol\":4212:4213  0 */\n      0x00\n        /* \"contracts/stake_reward_MLM.sol\":4193:4214  _referral==address(0) */\n      0xffffffffffffffffffffffffffffffffffffffff\n      and\n        /* \"contracts/stake_reward_MLM.sol\":4193:4202  _referral */\n      dup4\n        /* \"contracts/stake_reward_MLM.sol\":4193:4214  _referral==address(0) */\n      0xffffffffffffffffffffffffffffffffffffffff\n      and\n      eq\n        /* \"contracts/stake_reward_MLM.sol\":4193:4239  _referral==address(0) || _referral==msg.sender */\n      dup1\n      tag_112\n      jumpi\n      pop\n        /* \"contracts/stake_reward_MLM.sol\":4229:4239  msg.sender */\n      caller\n        /* \"contracts/stake_reward_MLM.sol\":4218:4239  _referral==msg.sender */\n      0xffffffffffffffffffffffffffffffffffffffff\n      and\n        /* \"contracts/stake_reward_MLM.sol\":4218:4227  _referral */\n      dup4\n        /* \"contracts/stake_reward_MLM.sol\":4218:4239  _referral==msg.sender */\n      0xffffffffffffffffffffffffffffffffffffffff\n      and\n      eq\n        /* \"contracts/stake_reward_MLM.sol\":4193:4239  _referral==address(0) || _referral==msg.sender */\n    tag_112:\n        /* \"contracts/stake_reward_MLM.sol\":4193:4286  _referral==address(0) || _referral==msg.sender || DUSDinvestor[msg.sender].investBefore==true */\n      dup1\n      tag_113\n      jumpi\n      pop\n        /* \"contracts/stake_reward_MLM.sol\":4282:4286  true */\n      0x01\n        /* \"contracts/stake_reward_MLM.sol\":4243:4286  DUSDinvestor[msg.sender].investBefore==true */\n      iszero\n      iszero\n        /* \"contracts/stake_reward_MLM.sol\":4243:4255  DUSDinvestor */\n      0x08\n        /* \"contracts/stake_reward_MLM.sol\":4243:4267  DUSDinvestor[msg.sender] */\n      0x00\n        /* \"contracts/stake_reward_MLM.sol\":4256:4266  msg.sender */\n      caller\n        /* \"contracts/stake_reward_MLM.sol\":4243:4267  DUSDinvestor[msg.sender] */\n      0xffffffffffffffffffffffffffffffffffffffff\n      and\n      0xffffffffffffffffffffffffffffffffffffffff\n      and\n      dup2\n      mstore\n      0x20\n      add\n      swap1\n      dup2\n      mstore\n      0x20\n      add\n      0x00\n      keccak256\n        /* \"contracts/stake_reward_MLM.sol\":4243:4280  DUSDinvestor[msg.sender].investBefore */\n      0x08\n      add\n      0x00\n      swap1\n      sload\n      swap1\n      0x0100\n      exp\n      swap1\n      div\n      0xff\n      and\n        /* \"contracts/stake_reward_MLM.sol\":4243:4286  DUSDinvestor[msg.sender].investBefore==true */\n      iszero\n      iszero\n      eq\n        /* \"contracts/stake_reward_MLM.sol\":4193:4286  _referral==address(0) || _referral==msg.sender || DUSDinvestor[msg.sender].investBefore==true */\n    tag_113:\n        /* \"contracts/stake_reward_MLM.sol\":4190:4833  if(_referral==address(0) || _referral==msg.sender || DUSDinvestor[msg.sender].investBefore==true)                                         //checking that investor comes from the referral link or not... */\n      iszero\n      tag_114\n      jumpi\n        /* \"contracts/stake_reward_MLM.sol\":4468:4469  0 */\n      0x00\n        /* \"contracts/stake_reward_MLM.sol\":4420:4432  DUSDinvestor */\n      0x08\n        /* \"contracts/stake_reward_MLM.sol\":4420:4444  DUSDinvestor[msg.sender] */\n      0x00\n        /* \"contracts/stake_reward_MLM.sol\":4433:4443  msg.sender */\n      caller\n        /* \"contracts/stake_reward_MLM.sol\":4420:4444  DUSDinvestor[msg.sender] */\n      0xffffffffffffffffffffffffffffffffffffffff\n      and\n      0xffffffffffffffffffffffffffffffffffffffff\n      and\n      dup2\n      mstore\n      0x20\n      add\n      swap1\n      dup2\n      mstore\n      0x20\n      add\n      0x00\n      keccak256\n        /* \"contracts/stake_reward_MLM.sol\":4420:4457  DUSDinvestor[msg.sender].referralFrom */\n      0x02\n      add\n      0x00\n        /* \"contracts/stake_reward_MLM.sol\":4420:4470  DUSDinvestor[msg.sender].referralFrom = address(0) */\n      0x0100\n      exp\n      dup2\n      sload\n      dup2\n      0xffffffffffffffffffffffffffffffffffffffff\n      mul\n      not\n      and\n      swap1\n      dup4\n      0xffffffffffffffffffffffffffffffffffffffff\n      and\n      mul\n      or\n      swap1\n      sstore\n      pop\n        /* \"contracts/stake_reward_MLM.sol\":4190:4833  if(_referral==address(0) || _referral==msg.sender || DUSDinvestor[msg.sender].investBefore==true)                                         //checking that investor comes from the referral link or not... */\n      jump(tag_115)\n    tag_114:\n        /* \"contracts/stake_reward_MLM.sol\":4573:4582  _referral */\n      dup3\n        /* \"contracts/stake_reward_MLM.sol\":4533:4545  DUSDinvestor */\n      0x08\n        /* \"contracts/stake_reward_MLM.sol\":4533:4557  DUSDinvestor[msg.sender] */\n      0x00\n        /* \"contracts/stake_reward_MLM.sol\":4546:4556  msg.sender */\n      caller\n        /* \"contracts/stake_reward_MLM.sol\":4533:4557  DUSDinvestor[msg.sender] */\n      0xffffffffffffffffffffffffffffffffffffffff\n      and\n      0xffffffffffffffffffffffffffffffffffffffff\n      and\n      dup2\n      mstore\n      0x20\n      add\n      swap1\n      dup2\n      mstore\n      0x20\n      add\n      0x00\n      keccak256\n        /* \"contracts/stake_reward_MLM.sol\":4533:4570  DUSDinvestor[msg.sender].referralFrom */\n      0x02\n      add\n      0x00\n        /* \"contracts/stake_reward_MLM.sol\":4533:4582  DUSDinvestor[msg.sender].referralFrom = _referral */\n      0x0100\n      exp\n      dup2\n      sload\n      dup2\n      0xffffffffffffffffffffffffffffffffffffffff\n      mul\n      not\n      and\n      swap1\n      dup4\n      0xffffffffffffffffffffffffffffffffffffffff\n      and\n      mul\n      or\n      swap1\n      sstore\n      pop\n        /* \"contracts/stake_reward_MLM.sol\":4600:4612  DUSDinvestor */\n      0x08\n        /* \"contracts/stake_reward_MLM.sol\":4600:4623  DUSDinvestor[_referral] */\n      0x00\n        /* \"contracts/stake_reward_MLM.sol\":4613:4622  _referral */\n      dup5\n        /* \"contracts/stake_reward_MLM.sol\":4600:4623  DUSDinvestor[_referral] */\n      0xffffffffffffffffffffffffffffffffffffffff\n      and\n      0xffffffffffffffffffffffffffffffffffffffff\n      and\n      dup2\n      mstore\n      0x20\n      add\n      swap1\n      dup2\n      mstore\n      0x20\n      add\n      0x00\n      keccak256\n        /* \"contracts/stake_reward_MLM.sol\":4600:4636  DUSDinvestor[_referral].hisReferrals */\n      0x01\n      add\n        /* \"contracts/stake_reward_MLM.sol\":4642:4652  msg.sender */\n      caller\n        /* \"contracts/stake_reward_MLM.sol\":4600:4653  DUSDinvestor[_referral].hisReferrals.push(msg.sender) */\n      swap1\n      dup1\n      0x01\n      dup2\n      sload\n      add\n      dup1\n      dup3\n      sstore\n      dup1\n      swap2\n      pop\n      pop\n      0x01\n      swap1\n      sub\n      swap1\n      0x00\n      mstore\n      keccak256(0x00, 0x20)\n      add\n      0x00\n      swap1\n      swap2\n      swap1\n      swap2\n      swap1\n      swap2\n      0x0100\n      exp\n      dup2\n      sload\n      dup2\n      0xffffffffffffffffffffffffffffffffffffffff\n      mul\n      not\n      and\n      swap1\n      dup4\n      0xffffffffffffffffffffffffffffffffffffffff\n      and\n      mul\n      or\n      swap1\n      sstore\n      pop\n        /* \"contracts/stake_reward_MLM.sol\":4671:4724  sendRewardToDUSDReferrals(msg.sender,_investedamount) */\n      tag_117\n        /* \"contracts/stake_reward_MLM.sol\":4697:4707  msg.sender */\n      caller\n        /* \"contracts/stake_reward_MLM.sol\":4708:4723  _investedamount */\n      dup6\n        /* \"contracts/stake_reward_MLM.sol\":4671:4696  sendRewardToDUSDReferrals */\n      tag_118\n        /* \"contracts/stake_reward_MLM.sol\":4671:4724  sendRewardToDUSDReferrals(msg.sender,_investedamount) */\n      jump\t// in\n    tag_117:\n        /* \"contracts/stake_reward_MLM.sol\":4190:4833  if(_referral==address(0) || _referral==msg.sender || DUSDinvestor[msg.sender].investBefore==true)                                         //checking that investor comes from the referral link or not... */\n    tag_115:\n        /* \"contracts/stake_reward_MLM.sol\":4884:4888  true */\n      0x01\n        /* \"contracts/stake_reward_MLM.sol\":4846:4858  DUSDinvestor */\n      0x08\n        /* \"contracts/stake_reward_MLM.sol\":4846:4870  DUSDinvestor[msg.sender] */\n      0x00\n        /* \"contracts/stake_reward_MLM.sol\":4859:4869  msg.sender */\n      caller\n        /* \"contracts/stake_reward_MLM.sol\":4846:4870  DUSDinvestor[msg.sender] */\n      0xffffffffffffffffffffffffffffffffffffffff\n      and\n      0xffffffffffffffffffffffffffffffffffffffff\n      and\n      dup2\n      mstore\n      0x20\n      add\n      swap1\n      dup2\n      mstore\n      0x20\n      add\n      0x00\n      keccak256\n        /* \"contracts/stake_reward_MLM.sol\":4846:4883  DUSDinvestor[msg.sender].investBefore */\n      0x08\n      add\n      0x00\n        /* \"contracts/stake_reward_MLM.sol\":4846:4888  DUSDinvestor[msg.sender].investBefore=true */\n      0x0100\n      exp\n      dup2\n      sload\n      dup2\n      0xff\n      mul\n      not\n      and\n      swap1\n      dup4\n      iszero\n      iszero\n      mul\n      or\n      swap1\n      sstore\n      pop\n        /* \"contracts/stake_reward_MLM.sol\":4910:4914  true */\n      0x01\n        /* \"contracts/stake_reward_MLM.sol\":4903:4914  return true */\n      swap2\n      pop\n      pop\n        /* \"contracts/stake_reward_MLM.sol\":3117:4938  function Stake(uint _investedamount,address _referral) external returns(bool success){... */\n      swap3\n      swap2\n      pop\n      pop\n      jump\t// out\n        /* \"contracts/stake_reward_MLM.sol\":8973:9084  function set_min_Stake_amount(uint _amount) public ... */\n    tag_48:\n        /* \"contracts/stake_reward_MLM.sol\":9066:9073  _amount */\n      dup1\n        /* \"contracts/stake_reward_MLM.sol\":9047:9063  min_Stake_amount */\n      0x05\n        /* \"contracts/stake_reward_MLM.sol\":9047:9073  min_Stake_amount = _amount */\n      dup2\n      swap1\n      sstore\n      pop\n        /* \"contracts/stake_reward_MLM.sol\":8973:9084  function set_min_Stake_amount(uint _amount) public ... */\n      pop\n      jump\t// out\n        /* \"contracts/stake_reward_MLM.sol\":6764:7747  function getAllDUSDinvestments() public view returns (allInvestments[] memory) { //this function will return the all investments of the investor and withware date... */\n    tag_50:\n        /* \"contracts/stake_reward_MLM.sol\":6818:6841  allInvestments[] memory */\n      0x60\n        /* \"contracts/stake_reward_MLM.sol\":6939:6947  uint num */\n      0x00\n        /* \"contracts/stake_reward_MLM.sol\":6950:6962  DUSDinvestor */\n      0x08\n        /* \"contracts/stake_reward_MLM.sol\":6950:6974  DUSDinvestor[msg.sender] */\n      0x00\n        /* \"contracts/stake_reward_MLM.sol\":6963:6973  msg.sender */\n      caller\n        /* \"contracts/stake_reward_MLM.sol\":6950:6974  DUSDinvestor[msg.sender] */\n      0xffffffffffffffffffffffffffffffffffffffff\n      and\n      0xffffffffffffffffffffffffffffffffffffffff\n      and\n      dup2\n      mstore\n      0x20\n      add\n      swap1\n      dup2\n      mstore\n      0x20\n      add\n      0x00\n      keccak256\n        /* \"contracts/stake_reward_MLM.sol\":6950:6989  DUSDinvestor[msg.sender].noOfInvestment */\n      0x05\n      add\n      sload\n        /* \"contracts/stake_reward_MLM.sol\":6939:6989  uint num = DUSDinvestor[msg.sender].noOfInvestment */\n      swap1\n      pop\n        /* \"contracts/stake_reward_MLM.sol\":7003:7012  uint temp */\n      0x00\n        /* \"contracts/stake_reward_MLM.sol\":7026:7043  uint currentIndex */\n      dup1\n        /* \"contracts/stake_reward_MLM.sol\":7074:7080  uint i */\n      0x00\n        /* \"contracts/stake_reward_MLM.sol\":7070:7246  for(uint i=0;i<num;i++)... */\n    tag_121:\n        /* \"contracts/stake_reward_MLM.sol\":7085:7088  num */\n      dup4\n        /* \"contracts/stake_reward_MLM.sol\":7083:7084  i */\n      dup2\n        /* \"contracts/stake_reward_MLM.sol\":7083:7088  i<num */\n      lt\n        /* \"contracts/stake_reward_MLM.sol\":7070:7246  for(uint i=0;i<num;i++)... */\n      iszero\n      tag_122\n      jumpi\n        /* \"contracts/stake_reward_MLM.sol\":7183:7184  0 */\n      0x00\n        /* \"contracts/stake_reward_MLM.sol\":7127:7139  DUSDinvestor */\n      0x08\n        /* \"contracts/stake_reward_MLM.sol\":7127:7151  DUSDinvestor[msg.sender] */\n      0x00\n        /* \"contracts/stake_reward_MLM.sol\":7140:7150  msg.sender */\n      caller\n        /* \"contracts/stake_reward_MLM.sol\":7127:7151  DUSDinvestor[msg.sender] */\n      0xffffffffffffffffffffffffffffffffffffffff\n      and\n      0xffffffffffffffffffffffffffffffffffffffff\n      and\n      dup2\n      mstore\n      0x20\n      add\n      swap1\n      dup2\n      mstore\n      0x20\n      add\n      0x00\n      keccak256\n        /* \"contracts/stake_reward_MLM.sol\":7127:7162  DUSDinvestor[msg.sender].investment */\n      0x00\n      add\n        /* \"contracts/stake_reward_MLM.sol\":7127:7165  DUSDinvestor[msg.sender].investment[i] */\n      0x00\n        /* \"contracts/stake_reward_MLM.sol\":7163:7164  i */\n      dup4\n        /* \"contracts/stake_reward_MLM.sol\":7127:7165  DUSDinvestor[msg.sender].investment[i] */\n      dup2\n      mstore\n      0x20\n      add\n      swap1\n      dup2\n      mstore\n      0x20\n      add\n      0x00\n      keccak256\n        /* \"contracts/stake_reward_MLM.sol\":7127:7180  DUSDinvestor[msg.sender].investment[i].investedAmount */\n      0x00\n      add\n      sload\n        /* \"contracts/stake_reward_MLM.sol\":7127:7184  DUSDinvestor[msg.sender].investment[i].investedAmount > 0 */\n      gt\n        /* \"contracts/stake_reward_MLM.sol\":7123:7231  if( DUSDinvestor[msg.sender].investment[i].investedAmount > 0 ){... */\n      iszero\n      tag_124\n      jumpi\n        /* \"contracts/stake_reward_MLM.sol\":7207:7213  temp++ */\n      dup3\n      dup1\n      tag_125\n      swap1\n      tag_107\n      jump\t// in\n    tag_125:\n      swap4\n      pop\n      pop\n        /* \"contracts/stake_reward_MLM.sol\":7123:7231  if( DUSDinvestor[msg.sender].investment[i].investedAmount > 0 ){... */\n    tag_124:\n        /* \"contracts/stake_reward_MLM.sol\":7089:7092  i++ */\n      dup1\n      dup1\n      tag_126\n      swap1\n      tag_107\n      jump\t// in\n    tag_126:\n      swap2\n      pop\n      pop\n        /* \"contracts/stake_reward_MLM.sol\":7070:7246  for(uint i=0;i<num;i++)... */\n      jump(tag_121)\n    tag_122:\n      pop\n        /* \"contracts/stake_reward_MLM.sol\":7269:7301  allInvestments[] memory Invested */\n      0x00\n        /* \"contracts/stake_reward_MLM.sol\":7326:7330  temp */\n      dup3\n        /* \"contracts/stake_reward_MLM.sol\":7305:7331  new allInvestments[](temp) */\n      0xffffffffffffffff\n      dup2\n      gt\n      iszero\n      tag_127\n      jumpi\n      tag_128\n      tag_129\n      jump\t// in\n    tag_128:\n    tag_127:\n      mload(0x40)\n      swap1\n      dup1\n      dup3\n      mstore\n      dup1\n      0x20\n      mul\n      0x20\n      add\n      dup3\n      add\n      0x40\n      mstore\n      dup1\n      iszero\n      tag_130\n      jumpi\n      dup2\n      0x20\n      add\n    tag_131:\n      tag_132\n      tag_133\n      jump\t// in\n    tag_132:\n      dup2\n      mstore\n      0x20\n      add\n      swap1\n      0x01\n      swap1\n      sub\n      swap1\n      dup2\n      tag_131\n      jumpi\n      swap1\n      pop\n    tag_130:\n      pop\n        /* \"contracts/stake_reward_MLM.sol\":7269:7331  allInvestments[] memory Invested =  new allInvestments[](temp) */\n      swap1\n      pop\n        /* \"contracts/stake_reward_MLM.sol\":7351:7357  uint i */\n      0x00\n        /* \"contracts/stake_reward_MLM.sol\":7347:7707  for(uint i=0;i<num;i++)... */\n    tag_134:\n        /* \"contracts/stake_reward_MLM.sol\":7362:7365  num */\n      dup5\n        /* \"contracts/stake_reward_MLM.sol\":7360:7361  i */\n      dup2\n        /* \"contracts/stake_reward_MLM.sol\":7360:7365  i<num */\n      lt\n        /* \"contracts/stake_reward_MLM.sol\":7347:7707  for(uint i=0;i<num;i++)... */\n      iszero\n      tag_135\n      jumpi\n        /* \"contracts/stake_reward_MLM.sol\":7460:7461  0 */\n      0x00\n        /* \"contracts/stake_reward_MLM.sol\":7404:7416  DUSDinvestor */\n      0x08\n        /* \"contracts/stake_reward_MLM.sol\":7404:7428  DUSDinvestor[msg.sender] */\n      0x00\n        /* \"contracts/stake_reward_MLM.sol\":7417:7427  msg.sender */\n      caller\n        /* \"contracts/stake_reward_MLM.sol\":7404:7428  DUSDinvestor[msg.sender] */\n      0xffffffffffffffffffffffffffffffffffffffff\n      and\n      0xffffffffffffffffffffffffffffffffffffffff\n      and\n      dup2\n      mstore\n      0x20\n      add\n      swap1\n      dup2\n      mstore\n      0x20\n      add\n      0x00\n      keccak256\n        /* \"contracts/stake_reward_MLM.sol\":7404:7439  DUSDinvestor[msg.sender].investment */\n      0x00\n      add\n        /* \"contracts/stake_reward_MLM.sol\":7404:7442  DUSDinvestor[msg.sender].investment[i] */\n      0x00\n        /* \"contracts/stake_reward_MLM.sol\":7440:7441  i */\n      dup4\n        /* \"contracts/stake_reward_MLM.sol\":7404:7442  DUSDinvestor[msg.sender].investment[i] */\n      dup2\n      mstore\n      0x20\n      add\n      swap1\n      dup2\n      mstore\n      0x20\n      add\n      0x00\n      keccak256\n        /* \"contracts/stake_reward_MLM.sol\":7404:7457  DUSDinvestor[msg.sender].investment[i].investedAmount */\n      0x00\n      add\n      sload\n        /* \"contracts/stake_reward_MLM.sol\":7404:7461  DUSDinvestor[msg.sender].investment[i].investedAmount > 0 */\n      gt\n        /* \"contracts/stake_reward_MLM.sol\":7400:7692  if( DUSDinvestor[msg.sender].investment[i].investedAmount > 0 ){... */\n      iszero\n      tag_137\n      jumpi\n        /* \"contracts/stake_reward_MLM.sol\":7601:7613  DUSDinvestor */\n      0x08\n        /* \"contracts/stake_reward_MLM.sol\":7601:7625  DUSDinvestor[msg.sender] */\n      0x00\n        /* \"contracts/stake_reward_MLM.sol\":7614:7624  msg.sender */\n      caller\n        /* \"contracts/stake_reward_MLM.sol\":7601:7625  DUSDinvestor[msg.sender] */\n      0xffffffffffffffffffffffffffffffffffffffff\n      and\n      0xffffffffffffffffffffffffffffffffffffffff\n      and\n      dup2\n      mstore\n      0x20\n      add\n      swap1\n      dup2\n      mstore\n      0x20\n      add\n      0x00\n      keccak256\n        /* \"contracts/stake_reward_MLM.sol\":7601:7636  DUSDinvestor[msg.sender].investment */\n      0x00\n      add\n        /* \"contracts/stake_reward_MLM.sol\":7601:7639  DUSDinvestor[msg.sender].investment[i] */\n      0x00\n        /* \"contracts/stake_reward_MLM.sol\":7637:7638  i */\n      dup3\n        /* \"contracts/stake_reward_MLM.sol\":7601:7639  DUSDinvestor[msg.sender].investment[i] */\n      dup2\n      mstore\n      0x20\n      add\n      swap1\n      dup2\n      mstore\n      0x20\n      add\n      0x00\n      keccak256\n        /* \"contracts/stake_reward_MLM.sol\":7578:7639  Invested[currentIndex]=DUSDinvestor[msg.sender].investment[i] */\n      mload(0x40)\n      dup1\n      0x80\n      add\n      0x40\n      mstore\n      swap1\n      dup2\n      0x00\n      dup3\n      add\n      sload\n      dup2\n      mstore\n      0x20\n      add\n      0x01\n      dup3\n      add\n      sload\n      dup2\n      mstore\n      0x20\n      add\n      0x02\n      dup3\n      add\n      sload\n      dup2\n      mstore\n      0x20\n      add\n      0x03\n      dup3\n      add\n      sload\n      dup2\n      mstore\n      pop\n      pop\n        /* \"contracts/stake_reward_MLM.sol\":7578:7586  Invested */\n      dup3\n        /* \"contracts/stake_reward_MLM.sol\":7587:7599  currentIndex */\n      dup5\n        /* \"contracts/stake_reward_MLM.sol\":7578:7600  Invested[currentIndex] */\n      dup2\n      mload\n      dup2\n      lt\n      tag_138\n      jumpi\n      tag_139\n      tag_140\n      jump\t// in\n    tag_139:\n    tag_138:\n      0x20\n      mul\n      0x20\n      add\n      add\n        /* \"contracts/stake_reward_MLM.sol\":7578:7639  Invested[currentIndex]=DUSDinvestor[msg.sender].investment[i] */\n      dup2\n      swap1\n      mstore\n      pop\n        /* \"contracts/stake_reward_MLM.sol\":7660:7674  currentIndex++ */\n      dup3\n      dup1\n      tag_141\n      swap1\n      tag_107\n      jump\t// in\n    tag_141:\n      swap4\n      pop\n      pop\n        /* \"contracts/stake_reward_MLM.sol\":7400:7692  if( DUSDinvestor[msg.sender].investment[i].investedAmount > 0 ){... */\n    tag_137:\n        /* \"contracts/stake_reward_MLM.sol\":7366:7369  i++ */\n      dup1\n      dup1\n      tag_142\n      swap1\n      tag_107\n      jump\t// in\n    tag_142:\n      swap2\n      pop\n      pop\n        /* \"contracts/stake_reward_MLM.sol\":7347:7707  for(uint i=0;i<num;i++)... */\n      jump(tag_134)\n    tag_135:\n      pop\n        /* \"contracts/stake_reward_MLM.sol\":7727:7735  Invested */\n      dup1\n        /* \"contracts/stake_reward_MLM.sol\":7720:7735  return Invested */\n      swap5\n      pop\n      pop\n      pop\n      pop\n      pop\n        /* \"contracts/stake_reward_MLM.sol\":6764:7747  function getAllDUSDinvestments() public view returns (allInvestments[] memory) { //this function will return the all investments of the investor and withware date... */\n      swap1\n      jump\t// out\n        /* \"contracts/stake_reward_MLM.sol\":7757:8440  function getReward() view public returns(uint){ //this function is get the total reward balance of the investor... */\n    tag_54:\n        /* \"contracts/stake_reward_MLM.sol\":7798:7802  uint */\n      0x00\n        /* \"contracts/stake_reward_MLM.sol\":7881:7897  uint totalReward */\n      dup1\n        /* \"contracts/stake_reward_MLM.sol\":7911:7923  uint depTime */\n      0x00\n        /* \"contracts/stake_reward_MLM.sol\":7937:7946  uint temp */\n      dup1\n        /* \"contracts/stake_reward_MLM.sol\":7949:7961  DUSDinvestor */\n      0x08\n        /* \"contracts/stake_reward_MLM.sol\":7949:7973  DUSDinvestor[msg.sender] */\n      0x00\n        /* \"contracts/stake_reward_MLM.sol\":7962:7972  msg.sender */\n      caller\n        /* \"contracts/stake_reward_MLM.sol\":7949:7973  DUSDinvestor[msg.sender] */\n      0xffffffffffffffffffffffffffffffffffffffff\n      and\n      0xffffffffffffffffffffffffffffffffffffffff\n      and\n      dup2\n      mstore\n      0x20\n      add\n      swap1\n      dup2\n      mstore\n      0x20\n      add\n      0x00\n      keccak256\n        /* \"contracts/stake_reward_MLM.sol\":7949:7988  DUSDinvestor[msg.sender].noOfInvestment */\n      0x05\n      add\n      sload\n        /* \"contracts/stake_reward_MLM.sol\":7937:7988  uint temp = DUSDinvestor[msg.sender].noOfInvestment */\n      swap1\n      pop\n        /* \"contracts/stake_reward_MLM.sol\":8006:8012  uint i */\n      0x00\n        /* \"contracts/stake_reward_MLM.sol\":8002:8398  for(uint i=0;i < temp;i++)... */\n    tag_144:\n        /* \"contracts/stake_reward_MLM.sol\":8019:8023  temp */\n      dup2\n        /* \"contracts/stake_reward_MLM.sol\":8015:8016  i */\n      dup2\n        /* \"contracts/stake_reward_MLM.sol\":8015:8023  i < temp */\n      lt\n        /* \"contracts/stake_reward_MLM.sol\":8002:8398  for(uint i=0;i < temp;i++)... */\n      iszero\n      tag_145\n      jumpi\n        /* \"contracts/stake_reward_MLM.sol\":8089:8101  DUSDinvestor */\n      0x08\n        /* \"contracts/stake_reward_MLM.sol\":8089:8113  DUSDinvestor[msg.sender] */\n      0x00\n        /* \"contracts/stake_reward_MLM.sol\":8102:8112  msg.sender */\n      caller\n        /* \"contracts/stake_reward_MLM.sol\":8089:8113  DUSDinvestor[msg.sender] */\n      0xffffffffffffffffffffffffffffffffffffffff\n      and\n      0xffffffffffffffffffffffffffffffffffffffff\n      and\n      dup2\n      mstore\n      0x20\n      add\n      swap1\n      dup2\n      mstore\n      0x20\n      add\n      0x00\n      keccak256\n        /* \"contracts/stake_reward_MLM.sol\":8089:8124  DUSDinvestor[msg.sender].investment */\n      0x00\n      add\n        /* \"contracts/stake_reward_MLM.sol\":8089:8127  DUSDinvestor[msg.sender].investment[i] */\n      0x00\n        /* \"contracts/stake_reward_MLM.sol\":8125:8126  i */\n      dup3\n        /* \"contracts/stake_reward_MLM.sol\":8089:8127  DUSDinvestor[msg.sender].investment[i] */\n      dup2\n      mstore\n      0x20\n      add\n      swap1\n      dup2\n      mstore\n      0x20\n      add\n      0x00\n      keccak256\n        /* \"contracts/stake_reward_MLM.sol\":8089:8139  DUSDinvestor[msg.sender].investment[i].DepositTime */\n      0x02\n      add\n      sload\n        /* \"contracts/stake_reward_MLM.sol\":8071:8086  block.timestamp */\n      timestamp\n        /* \"contracts/stake_reward_MLM.sol\":8071:8139  block.timestamp - DUSDinvestor[msg.sender].investment[i].DepositTime */\n      tag_147\n      swap2\n      swap1\n      tag_148\n      jump\t// in\n    tag_147:\n        /* \"contracts/stake_reward_MLM.sol\":8062:8139  depTime =block.timestamp - DUSDinvestor[msg.sender].investment[i].DepositTime */\n      swap3\n      pop\n        /* \"contracts/stake_reward_MLM.sol\":8173:8175  60 */\n      0x3c\n        /* \"contracts/stake_reward_MLM.sol\":8165:8172  depTime */\n      dup4\n        /* \"contracts/stake_reward_MLM.sol\":8165:8175  depTime/60 */\n      tag_149\n      swap2\n      swap1\n      tag_150\n      jump\t// in\n    tag_149:\n        /* \"contracts/stake_reward_MLM.sol\":8157:8175  depTime=depTime/60 */\n      swap3\n      pop\n        /* \"contracts/stake_reward_MLM.sol\":8212:8213  0 */\n      0x00\n        /* \"contracts/stake_reward_MLM.sol\":8204:8211  depTime */\n      dup4\n        /* \"contracts/stake_reward_MLM.sol\":8204:8213  depTime>0 */\n      gt\n        /* \"contracts/stake_reward_MLM.sol\":8201:8306  if(depTime>0)... */\n      iszero\n      tag_151\n      jumpi\n        /* \"contracts/stake_reward_MLM.sol\":8276:8287  rewardToken */\n      sload(0x04)\n        /* \"contracts/stake_reward_MLM.sol\":8266:8273  depTime */\n      dup4\n        /* \"contracts/stake_reward_MLM.sol\":8266:8287  depTime * rewardToken */\n      tag_152\n      swap2\n      swap1\n      tag_153\n      jump\t// in\n    tag_152:\n        /* \"contracts/stake_reward_MLM.sol\":8252:8287  totalReward = depTime * rewardToken */\n      swap4\n      pop\n        /* \"contracts/stake_reward_MLM.sol\":8201:8306  if(depTime>0)... */\n    tag_151:\n        /* \"contracts/stake_reward_MLM.sol\":8337:8349  DUSDinvestor */\n      0x08\n        /* \"contracts/stake_reward_MLM.sol\":8337:8361  DUSDinvestor[msg.sender] */\n      0x00\n        /* \"contracts/stake_reward_MLM.sol\":8350:8360  msg.sender */\n      caller\n        /* \"contracts/stake_reward_MLM.sol\":8337:8361  DUSDinvestor[msg.sender] */\n      0xffffffffffffffffffffffffffffffffffffffff\n      and\n      0xffffffffffffffffffffffffffffffffffffffff\n      and\n      dup2\n      mstore\n      0x20\n      add\n      swap1\n      dup2\n      mstore\n      0x20\n      add\n      0x00\n      keccak256\n        /* \"contracts/stake_reward_MLM.sol\":8337:8382  DUSDinvestor[msg.sender].totalWithdraw_reward */\n      0x07\n      add\n      sload\n        /* \"contracts/stake_reward_MLM.sol\":8323:8382  totalReward -=DUSDinvestor[msg.sender].totalWithdraw_reward */\n      dup5\n      tag_154\n      swap2\n      swap1\n      tag_148\n      jump\t// in\n    tag_154:\n      swap4\n      pop\n        /* \"contracts/stake_reward_MLM.sol\":8024:8027  i++ */\n      dup1\n      dup1\n      tag_155\n      swap1\n      tag_107\n      jump\t// in\n    tag_155:\n      swap2\n      pop\n      pop\n        /* \"contracts/stake_reward_MLM.sol\":8002:8398  for(uint i=0;i < temp;i++)... */\n      jump(tag_144)\n    tag_145:\n      pop\n        /* \"contracts/stake_reward_MLM.sol\":8418:8429  totalReward */\n      dup3\n        /* \"contracts/stake_reward_MLM.sol\":8411:8429  return totalReward */\n      swap4\n      pop\n      pop\n      pop\n      pop\n        /* \"contracts/stake_reward_MLM.sol\":7757:8440  function getReward() view public returns(uint){ //this function is get the total reward balance of the investor... */\n      swap1\n      jump\t// out\n        /* \"contracts/stake_reward_MLM.sol\":9093:9204  function set_max_Stake_amount(uint _amount) public ... */\n    tag_58:\n        /* \"contracts/stake_reward_MLM.sol\":9186:9193  _amount */\n      dup1\n        /* \"contracts/stake_reward_MLM.sol\":9167:9183  max_Stake_amount */\n      0x06\n        /* \"contracts/stake_reward_MLM.sol\":9167:9193  max_Stake_amount = _amount */\n      dup2\n      swap1\n      sstore\n      pop\n        /* \"contracts/stake_reward_MLM.sol\":9093:9204  function set_max_Stake_amount(uint _amount) public ... */\n      pop\n      jump\t// out\n        /* \"contracts/stake_reward_MLM.sol\":5438:6534  function unStake(uint _id) external  returns (bool success){... */\n    tag_61:\n        /* \"contracts/stake_reward_MLM.sol\":5484:5496  bool success */\n      0x00\n        /* \"contracts/stake_reward_MLM.sol\":5575:5576  0 */\n      dup1\n        /* \"contracts/stake_reward_MLM.sol\":5519:5531  DUSDinvestor */\n      0x08\n        /* \"contracts/stake_reward_MLM.sol\":5519:5543  DUSDinvestor[msg.sender] */\n      0x00\n        /* \"contracts/stake_reward_MLM.sol\":5532:5542  msg.sender */\n      caller\n        /* \"contracts/stake_reward_MLM.sol\":5519:5543  DUSDinvestor[msg.sender] */\n      0xffffffffffffffffffffffffffffffffffffffff\n      and\n      0xffffffffffffffffffffffffffffffffffffffff\n      and\n      dup2\n      mstore\n      0x20\n      add\n      swap1\n      dup2\n      mstore\n      0x20\n      add\n      0x00\n      keccak256\n        /* \"contracts/stake_reward_MLM.sol\":5519:5554  DUSDinvestor[msg.sender].investment */\n      0x00\n      add\n        /* \"contracts/stake_reward_MLM.sol\":5519:5559  DUSDinvestor[msg.sender].investment[_id] */\n      0x00\n        /* \"contracts/stake_reward_MLM.sol\":5555:5558  _id */\n      dup5\n        /* \"contracts/stake_reward_MLM.sol\":5519:5559  DUSDinvestor[msg.sender].investment[_id] */\n      dup2\n      mstore\n      0x20\n      add\n      swap1\n      dup2\n      mstore\n      0x20\n      add\n      0x00\n      keccak256\n        /* \"contracts/stake_reward_MLM.sol\":5519:5574  DUSDinvestor[msg.sender].investment[_id].investedAmount */\n      0x00\n      add\n      sload\n        /* \"contracts/stake_reward_MLM.sol\":5519:5576  DUSDinvestor[msg.sender].investment[_id].investedAmount>0 */\n      gt\n        /* \"contracts/stake_reward_MLM.sol\":5511:5617  require(DUSDinvestor[msg.sender].investment[_id].investedAmount>0,\"you dont have investment to withdrawn\") */\n      tag_158\n      jumpi\n      mload(0x40)\n      0x08c379a000000000000000000000000000000000000000000000000000000000\n      dup2\n      mstore\n      0x04\n      add\n      tag_159\n      swap1\n      tag_160\n      jump\t// in\n    tag_159:\n      mload(0x40)\n      dup1\n      swap2\n      sub\n      swap1\n      revert\n    tag_158:\n        /* \"contracts/stake_reward_MLM.sol\":5689:5700  uint amount */\n      0x00\n        /* \"contracts/stake_reward_MLM.sol\":5701:5713  DUSDinvestor */\n      0x08\n        /* \"contracts/stake_reward_MLM.sol\":5701:5725  DUSDinvestor[msg.sender] */\n      0x00\n        /* \"contracts/stake_reward_MLM.sol\":5714:5724  msg.sender */\n      caller\n        /* \"contracts/stake_reward_MLM.sol\":5701:5725  DUSDinvestor[msg.sender] */\n      0xffffffffffffffffffffffffffffffffffffffff\n      and\n      0xffffffffffffffffffffffffffffffffffffffff\n      and\n      dup2\n      mstore\n      0x20\n      add\n      swap1\n      dup2\n      mstore\n      0x20\n      add\n      0x00\n      keccak256\n        /* \"contracts/stake_reward_MLM.sol\":5701:5736  DUSDinvestor[msg.sender].investment */\n      0x00\n      add\n        /* \"contracts/stake_reward_MLM.sol\":5701:5741  DUSDinvestor[msg.sender].investment[_id] */\n      0x00\n        /* \"contracts/stake_reward_MLM.sol\":5737:5740  _id */\n      dup5\n        /* \"contracts/stake_reward_MLM.sol\":5701:5741  DUSDinvestor[msg.sender].investment[_id] */\n      dup2\n      mstore\n      0x20\n      add\n      swap1\n      dup2\n      mstore\n      0x20\n      add\n      0x00\n      keccak256\n        /* \"contracts/stake_reward_MLM.sol\":5701:5756  DUSDinvestor[msg.sender].investment[_id].investedAmount */\n      0x00\n      add\n      sload\n        /* \"contracts/stake_reward_MLM.sol\":5689:5756  uint amount=DUSDinvestor[msg.sender].investment[_id].investedAmount */\n      swap1\n      pop\n        /* \"contracts/stake_reward_MLM.sol\":5830:5845  block.timestamp */\n      timestamp\n        /* \"contracts/stake_reward_MLM.sol\":5773:5785  DUSDinvestor */\n      0x08\n        /* \"contracts/stake_reward_MLM.sol\":5773:5797  DUSDinvestor[msg.sender] */\n      0x00\n        /* \"contracts/stake_reward_MLM.sol\":5786:5796  msg.sender */\n      caller\n        /* \"contracts/stake_reward_MLM.sol\":5773:5797  DUSDinvestor[msg.sender] */\n      0xffffffffffffffffffffffffffffffffffffffff\n      and\n      0xffffffffffffffffffffffffffffffffffffffff\n      and\n      dup2\n      mstore\n      0x20\n      add\n      swap1\n      dup2\n      mstore\n      0x20\n      add\n      0x00\n      keccak256\n        /* \"contracts/stake_reward_MLM.sol\":5773:5808  DUSDinvestor[msg.sender].investment */\n      0x00\n      add\n        /* \"contracts/stake_reward_MLM.sol\":5773:5813  DUSDinvestor[msg.sender].investment[_id] */\n      0x00\n        /* \"contracts/stake_reward_MLM.sol\":5809:5812  _id */\n      dup6\n        /* \"contracts/stake_reward_MLM.sol\":5773:5813  DUSDinvestor[msg.sender].investment[_id] */\n      dup2\n      mstore\n      0x20\n      add\n      swap1\n      dup2\n      mstore\n      0x20\n      add\n      0x00\n      keccak256\n        /* \"contracts/stake_reward_MLM.sol\":5773:5827  DUSDinvestor[msg.sender].investment[_id].withdrawnTime */\n      0x01\n      add\n      sload\n        /* \"contracts/stake_reward_MLM.sol\":5773:5845  DUSDinvestor[msg.sender].investment[_id].withdrawnTime > block.timestamp */\n      gt\n        /* \"contracts/stake_reward_MLM.sol\":5770:5909  if(DUSDinvestor[msg.sender].investment[_id].withdrawnTime > block.timestamp)... */\n      iszero\n      tag_161\n      jumpi\n        /* \"contracts/stake_reward_MLM.sol\":5893:5894  2 */\n      0x02\n        /* \"contracts/stake_reward_MLM.sol\":5886:5892  amount */\n      dup2\n        /* \"contracts/stake_reward_MLM.sol\":5886:5894  amount/2 */\n      tag_162\n      swap2\n      swap1\n      tag_150\n      jump\t// in\n    tag_162:\n        /* \"contracts/stake_reward_MLM.sol\":5877:5894  amount = amount/2 */\n      swap1\n      pop\n        /* \"contracts/stake_reward_MLM.sol\":5770:5909  if(DUSDinvestor[msg.sender].investment[_id].withdrawnTime > block.timestamp)... */\n    tag_161:\n        /* \"contracts/stake_reward_MLM.sol\":5940:5951  SMCcontract */\n      0x01\n      0x00\n      swap1\n      sload\n      swap1\n      0x0100\n      exp\n      swap1\n      div\n      0xffffffffffffffffffffffffffffffffffffffff\n      and\n        /* \"contracts/stake_reward_MLM.sol\":5935:5961  DUSD(SMCcontract).transfer */\n      0xffffffffffffffffffffffffffffffffffffffff\n      and\n      0xa9059cbb\n        /* \"contracts/stake_reward_MLM.sol\":5962:5972  msg.sender */\n      caller\n        /* \"contracts/stake_reward_MLM.sol\":5973:5979  amount */\n      dup4\n        /* \"contracts/stake_reward_MLM.sol\":5935:5980  DUSD(SMCcontract).transfer(msg.sender,amount) */\n      mload(0x40)\n      dup4\n      0xffffffff\n      and\n      0xe0\n      shl\n      dup2\n      mstore\n      0x04\n      add\n      tag_163\n      swap3\n      swap2\n      swap1\n      tag_164\n      jump\t// in\n    tag_163:\n      0x20\n      mload(0x40)\n      dup1\n      dup4\n      sub\n      dup2\n      0x00\n      dup8\n      dup1\n      extcodesize\n      iszero\n      dup1\n      iszero\n      tag_165\n      jumpi\n      0x00\n      dup1\n      revert\n    tag_165:\n      pop\n      gas\n      call\n      iszero\n      dup1\n      iszero\n      tag_167\n      jumpi\n      returndatasize\n      0x00\n      dup1\n      returndatacopy\n      revert(0x00, returndatasize)\n    tag_167:\n      pop\n      pop\n      pop\n      pop\n      mload(0x40)\n      returndatasize\n      not(0x1f)\n      0x1f\n      dup3\n      add\n      and\n      dup3\n      add\n      dup1\n      0x40\n      mstore\n      pop\n      dup2\n      add\n      swap1\n      tag_168\n      swap2\n      swap1\n      tag_169\n      jump\t// in\n    tag_168:\n      pop\n        /* \"contracts/stake_reward_MLM.sol\":6067:6078  SMCcontract */\n      0x01\n      0x00\n      swap1\n      sload\n      swap1\n      0x0100\n      exp\n      swap1\n      div\n      0xffffffffffffffffffffffffffffffffffffffff\n      and\n        /* \"contracts/stake_reward_MLM.sol\":6062:6088  DUSD(SMCcontract).transfer */\n      0xffffffffffffffffffffffffffffffffffffffff\n      and\n      0xa9059cbb\n        /* \"contracts/stake_reward_MLM.sol\":6089:6094  owner */\n      0x00\n      dup1\n      sload\n      swap1\n      0x0100\n      exp\n      swap1\n      div\n      0xffffffffffffffffffffffffffffffffffffffff\n      and\n        /* \"contracts/stake_reward_MLM.sol\":6095:6101  amount */\n      dup4\n        /* \"contracts/stake_reward_MLM.sol\":6062:6102  DUSD(SMCcontract).transfer(owner,amount) */\n      mload(0x40)\n      dup4\n      0xffffffff\n      and\n      0xe0\n      shl\n      dup2\n      mstore\n      0x04\n      add\n      tag_170\n      swap3\n      swap2\n      swap1\n      tag_164\n      jump\t// in\n    tag_170:\n      0x20\n      mload(0x40)\n      dup1\n      dup4\n      sub\n      dup2\n      0x00\n      dup8\n      dup1\n      extcodesize\n      iszero\n      dup1\n      iszero\n      tag_171\n      jumpi\n      0x00\n      dup1\n      revert\n    tag_171:\n      pop\n      gas\n      call\n      iszero\n      dup1\n      iszero\n      tag_173\n      jumpi\n      returndatasize\n      0x00\n      dup1\n      returndatacopy\n      revert(0x00, returndatasize)\n    tag_173:\n      pop\n      pop\n      pop\n      pop\n      mload(0x40)\n      returndatasize\n      not(0x1f)\n      0x1f\n      dup3\n      add\n      and\n      dup3\n      add\n      dup1\n      0x40\n      mstore\n      pop\n      dup2\n      add\n      swap1\n      tag_174\n      swap2\n      swap1\n      tag_169\n      jump\t// in\n    tag_174:\n      pop\n        /* \"contracts/stake_reward_MLM.sol\":6241:6242  0 */\n      0x00\n        /* \"contracts/stake_reward_MLM.sol\":6185:6197  DUSDinvestor */\n      0x08\n        /* \"contracts/stake_reward_MLM.sol\":6185:6209  DUSDinvestor[msg.sender] */\n      0x00\n        /* \"contracts/stake_reward_MLM.sol\":6198:6208  msg.sender */\n      caller\n        /* \"contracts/stake_reward_MLM.sol\":6185:6209  DUSDinvestor[msg.sender] */\n      0xffffffffffffffffffffffffffffffffffffffff\n      and\n      0xffffffffffffffffffffffffffffffffffffffff\n      and\n      dup2\n      mstore\n      0x20\n      add\n      swap1\n      dup2\n      mstore\n      0x20\n      add\n      0x00\n      keccak256\n        /* \"contracts/stake_reward_MLM.sol\":6185:6220  DUSDinvestor[msg.sender].investment */\n      0x00\n      add\n        /* \"contracts/stake_reward_MLM.sol\":6185:6225  DUSDinvestor[msg.sender].investment[_id] */\n      0x00\n        /* \"contracts/stake_reward_MLM.sol\":6221:6224  _id */\n      dup6\n        /* \"contracts/stake_reward_MLM.sol\":6185:6225  DUSDinvestor[msg.sender].investment[_id] */\n      dup2\n      mstore\n      0x20\n      add\n      swap1\n      dup2\n      mstore\n      0x20\n      add\n      0x00\n      keccak256\n        /* \"contracts/stake_reward_MLM.sol\":6185:6240  DUSDinvestor[msg.sender].investment[_id].investedAmount */\n      0x00\n      add\n        /* \"contracts/stake_reward_MLM.sol\":6185:6242  DUSDinvestor[msg.sender].investment[_id].investedAmount=0 */\n      dup2\n      swap1\n      sstore\n      pop\n        /* \"contracts/stake_reward_MLM.sol\":6421:6427  amount */\n      dup1\n        /* \"contracts/stake_reward_MLM.sol\":6379:6391  DUSDinvestor */\n      0x08\n        /* \"contracts/stake_reward_MLM.sol\":6379:6403  DUSDinvestor[msg.sender] */\n      0x00\n        /* \"contracts/stake_reward_MLM.sol\":6392:6402  msg.sender */\n      caller\n        /* \"contracts/stake_reward_MLM.sol\":6379:6403  DUSDinvestor[msg.sender] */\n      0xffffffffffffffffffffffffffffffffffffffff\n      and\n      0xffffffffffffffffffffffffffffffffffffffff\n      and\n      dup2\n      mstore\n      0x20\n      add\n      swap1\n      dup2\n      mstore\n      0x20\n      add\n      0x00\n      keccak256\n        /* \"contracts/stake_reward_MLM.sol\":6379:6419  DUSDinvestor[msg.sender].totalInvestment */\n      0x06\n      add\n      0x00\n        /* \"contracts/stake_reward_MLM.sol\":6379:6427  DUSDinvestor[msg.sender].totalInvestment-=amount */\n      dup3\n      dup3\n      sload\n      tag_175\n      swap2\n      swap1\n      tag_148\n      jump\t// in\n    tag_175:\n      swap3\n      pop\n      pop\n      dup2\n      swap1\n      sstore\n      pop\n        /* \"contracts/stake_reward_MLM.sol\":6518:6522  true */\n      0x01\n        /* \"contracts/stake_reward_MLM.sol\":6511:6522  return true */\n      swap2\n      pop\n      pop\n        /* \"contracts/stake_reward_MLM.sol\":5438:6534  function unStake(uint _id) external  returns (bool success){... */\n      swap2\n      swap1\n      pop\n      jump\t// out\n        /* \"contracts/stake_reward_MLM.sol\":300:321  address  public owner */\n    tag_64:\n      0x00\n      dup1\n      sload\n      swap1\n      0x0100\n      exp\n      swap1\n      div\n      0xffffffffffffffffffffffffffffffffffffffff\n      and\n      dup2\n      jump\t// out\n        /* \"contracts/stake_reward_MLM.sol\":6544:6754  function getTotalInvestmentDUSD() public view returns(uint) {   //this function is to get the total investment of the ivestor... */\n    tag_68:\n        /* \"contracts/stake_reward_MLM.sol\":6598:6602  uint */\n      0x00\n        /* \"contracts/stake_reward_MLM.sol\":6702:6714  DUSDinvestor */\n      0x08\n        /* \"contracts/stake_reward_MLM.sol\":6702:6726  DUSDinvestor[msg.sender] */\n      0x00\n        /* \"contracts/stake_reward_MLM.sol\":6715:6725  msg.sender */\n      caller\n        /* \"contracts/stake_reward_MLM.sol\":6702:6726  DUSDinvestor[msg.sender] */\n      0xffffffffffffffffffffffffffffffffffffffff\n      and\n      0xffffffffffffffffffffffffffffffffffffffff\n      and\n      dup2\n      mstore\n      0x20\n      add\n      swap1\n      dup2\n      mstore\n      0x20\n      add\n      0x00\n      keccak256\n        /* \"contracts/stake_reward_MLM.sol\":6702:6742  DUSDinvestor[msg.sender].totalInvestment */\n      0x06\n      add\n      sload\n        /* \"contracts/stake_reward_MLM.sol\":6695:6742  return DUSDinvestor[msg.sender].totalInvestment */\n      swap1\n      pop\n        /* \"contracts/stake_reward_MLM.sol\":6544:6754  function getTotalInvestmentDUSD() public view returns(uint) {   //this function is to get the total investment of the ivestor... */\n      swap1\n      jump\t// out\n        /* \"contracts/stake_reward_MLM.sol\":9630:10195  function referralLevel_earning() public view returns( uint[] memory arr )... */\n    tag_71:\n        /* \"contracts/stake_reward_MLM.sol\":9684:9701  uint[] memory arr */\n      0x60\n        /* \"contracts/stake_reward_MLM.sol\":9726:9761  uint[] memory referralLevels_reward */\n      0x00\n        /* \"contracts/stake_reward_MLM.sol\":9773:9775  20 */\n      0x14\n        /* \"contracts/stake_reward_MLM.sol\":9762:9776  new uint[](20) */\n      0xffffffffffffffff\n      dup2\n      gt\n      iszero\n      tag_178\n      jumpi\n      tag_179\n      tag_129\n      jump\t// in\n    tag_179:\n    tag_178:\n      mload(0x40)\n      swap1\n      dup1\n      dup3\n      mstore\n      dup1\n      0x20\n      mul\n      0x20\n      add\n      dup3\n      add\n      0x40\n      mstore\n      dup1\n      iszero\n      tag_180\n      jumpi\n      dup2\n      0x20\n      add\n      0x20\n      dup3\n      mul\n      dup1\n      calldatasize\n      dup4\n      calldatacopy\n      dup1\n      dup3\n      add\n      swap2\n      pop\n      pop\n      swap1\n      pop\n    tag_180:\n      pop\n        /* \"contracts/stake_reward_MLM.sol\":9726:9776  uint[] memory referralLevels_reward=new uint[](20) */\n      swap1\n      pop\n        /* \"contracts/stake_reward_MLM.sol\":9794:9800  uint i */\n      0x00\n        /* \"contracts/stake_reward_MLM.sol\":9790:10140  for(uint i=0;i<20;i++)... */\n    tag_181:\n        /* \"contracts/stake_reward_MLM.sol\":9805:9807  20 */\n      0x14\n        /* \"contracts/stake_reward_MLM.sol\":9803:9804  i */\n      dup2\n        /* \"contracts/stake_reward_MLM.sol\":9803:9807  i<20 */\n      lt\n        /* \"contracts/stake_reward_MLM.sol\":9790:10140  for(uint i=0;i<20;i++)... */\n      iszero\n      tag_182\n      jumpi\n        /* \"contracts/stake_reward_MLM.sol\":9895:9896  0 */\n      0x00\n        /* \"contracts/stake_reward_MLM.sol\":9846:9858  DUSDinvestor */\n      0x08\n        /* \"contracts/stake_reward_MLM.sol\":9846:9870  DUSDinvestor[msg.sender] */\n      0x00\n        /* \"contracts/stake_reward_MLM.sol\":9859:9869  msg.sender */\n      caller\n        /* \"contracts/stake_reward_MLM.sol\":9846:9870  DUSDinvestor[msg.sender] */\n      0xffffffffffffffffffffffffffffffffffffffff\n      and\n      0xffffffffffffffffffffffffffffffffffffffff\n      and\n      dup2\n      mstore\n      0x20\n      add\n      swap1\n      dup2\n      mstore\n      0x20\n      add\n      0x00\n      keccak256\n        /* \"contracts/stake_reward_MLM.sol\":9846:9884  DUSDinvestor[msg.sender].referralLevel */\n      0x03\n      add\n        /* \"contracts/stake_reward_MLM.sol\":9846:9887  DUSDinvestor[msg.sender].referralLevel[i] */\n      0x00\n        /* \"contracts/stake_reward_MLM.sol\":9885:9886  i */\n      dup4\n        /* \"contracts/stake_reward_MLM.sol\":9846:9887  DUSDinvestor[msg.sender].referralLevel[i] */\n      dup2\n      mstore\n      0x20\n      add\n      swap1\n      dup2\n      mstore\n      0x20\n      add\n      0x00\n      keccak256\n        /* \"contracts/stake_reward_MLM.sol\":9846:9894  DUSDinvestor[msg.sender].referralLevel[i].reward */\n      0x00\n      add\n      sload\n        /* \"contracts/stake_reward_MLM.sol\":9846:9896  DUSDinvestor[msg.sender].referralLevel[i].reward>0 */\n      gt\n        /* \"contracts/stake_reward_MLM.sol\":9843:10124  if(DUSDinvestor[msg.sender].referralLevel[i].reward>0)... */\n      iszero\n      tag_184\n      jumpi\n        /* \"contracts/stake_reward_MLM.sol\":9963:9975  DUSDinvestor */\n      0x08\n        /* \"contracts/stake_reward_MLM.sol\":9963:9987  DUSDinvestor[msg.sender] */\n      0x00\n        /* \"contracts/stake_reward_MLM.sol\":9976:9986  msg.sender */\n      caller\n        /* \"contracts/stake_reward_MLM.sol\":9963:9987  DUSDinvestor[msg.sender] */\n      0xffffffffffffffffffffffffffffffffffffffff\n      and\n      0xffffffffffffffffffffffffffffffffffffffff\n      and\n      dup2\n      mstore\n      0x20\n      add\n      swap1\n      dup2\n      mstore\n      0x20\n      add\n      0x00\n      keccak256\n        /* \"contracts/stake_reward_MLM.sol\":9963:10001  DUSDinvestor[msg.sender].referralLevel */\n      0x03\n      add\n        /* \"contracts/stake_reward_MLM.sol\":9963:10004  DUSDinvestor[msg.sender].referralLevel[i] */\n      0x00\n        /* \"contracts/stake_reward_MLM.sol\":10002:10003  i */\n      dup3\n        /* \"contracts/stake_reward_MLM.sol\":9963:10004  DUSDinvestor[msg.sender].referralLevel[i] */\n      dup2\n      mstore\n      0x20\n      add\n      swap1\n      dup2\n      mstore\n      0x20\n      add\n      0x00\n      keccak256\n        /* \"contracts/stake_reward_MLM.sol\":9963:10011  DUSDinvestor[msg.sender].referralLevel[i].reward */\n      0x00\n      add\n      sload\n        /* \"contracts/stake_reward_MLM.sol\":9936:9957  referralLevels_reward */\n      dup3\n        /* \"contracts/stake_reward_MLM.sol\":9958:9959  i */\n      dup3\n        /* \"contracts/stake_reward_MLM.sol\":9936:9960  referralLevels_reward[i] */\n      dup2\n      mload\n      dup2\n      lt\n      tag_185\n      jumpi\n      tag_186\n      tag_140\n      jump\t// in\n    tag_186:\n    tag_185:\n      0x20\n      mul\n      0x20\n      add\n      add\n        /* \"contracts/stake_reward_MLM.sol\":9936:10011  referralLevels_reward[i] = DUSDinvestor[msg.sender].referralLevel[i].reward */\n      dup2\n      dup2\n      mstore\n      pop\n      pop\n        /* \"contracts/stake_reward_MLM.sol\":9843:10124  if(DUSDinvestor[msg.sender].referralLevel[i].reward>0)... */\n      jump(tag_187)\n    tag_184:\n        /* \"contracts/stake_reward_MLM.sol\":10103:10104  0 */\n      0x00\n        /* \"contracts/stake_reward_MLM.sol\":10076:10097  referralLevels_reward */\n      dup3\n        /* \"contracts/stake_reward_MLM.sol\":10098:10099  i */\n      dup3\n        /* \"contracts/stake_reward_MLM.sol\":10076:10100  referralLevels_reward[i] */\n      dup2\n      mload\n      dup2\n      lt\n      tag_188\n      jumpi\n      tag_189\n      tag_140\n      jump\t// in\n    tag_189:\n    tag_188:\n      0x20\n      mul\n      0x20\n      add\n      add\n        /* \"contracts/stake_reward_MLM.sol\":10076:10104  referralLevels_reward[i] = 0 */\n      dup2\n      dup2\n      mstore\n      pop\n      pop\n        /* \"contracts/stake_reward_MLM.sol\":9843:10124  if(DUSDinvestor[msg.sender].referralLevel[i].reward>0)... */\n    tag_187:\n        /* \"contracts/stake_reward_MLM.sol\":9808:9811  i++ */\n      dup1\n      dup1\n      tag_190\n      swap1\n      tag_107\n      jump\t// in\n    tag_190:\n      swap2\n      pop\n      pop\n        /* \"contracts/stake_reward_MLM.sol\":9790:10140  for(uint i=0;i<20;i++)... */\n      jump(tag_181)\n    tag_182:\n      pop\n        /* \"contracts/stake_reward_MLM.sol\":10160:10181  referralLevels_reward */\n      dup1\n        /* \"contracts/stake_reward_MLM.sol\":10153:10181  return referralLevels_reward */\n      swap2\n      pop\n      pop\n        /* \"contracts/stake_reward_MLM.sol\":9630:10195  function referralLevel_earning() public view returns( uint[] memory arr )... */\n      swap1\n      jump\t// out\n        /* \"contracts/stake_reward_MLM.sol\":4949:5427  function withdrawReward() external returns (bool success){... */\n    tag_75:\n        /* \"contracts/stake_reward_MLM.sol\":4993:5005  bool success */\n      0x00\n        /* \"contracts/stake_reward_MLM.sol\":5020:5037  uint Total_reward */\n      dup1\n        /* \"contracts/stake_reward_MLM.sol\":5040:5051  getReward() */\n      tag_192\n        /* \"contracts/stake_reward_MLM.sol\":5040:5049  getReward */\n      tag_54\n        /* \"contracts/stake_reward_MLM.sol\":5040:5051  getReward() */\n      jump\t// in\n    tag_192:\n        /* \"contracts/stake_reward_MLM.sol\":5020:5051  uint Total_reward = getReward() */\n      swap1\n      pop\n        /* \"contracts/stake_reward_MLM.sol\":5086:5087  0 */\n      0x00\n        /* \"contracts/stake_reward_MLM.sol\":5073:5085  Total_reward */\n      dup2\n        /* \"contracts/stake_reward_MLM.sol\":5073:5087  Total_reward>0 */\n      gt\n        /* \"contracts/stake_reward_MLM.sol\":5065:5125  require(Total_reward>0,\"you dont have rewards to withdrawn\") */\n      tag_193\n      jumpi\n      mload(0x40)\n      0x08c379a000000000000000000000000000000000000000000000000000000000\n      dup2\n      mstore\n      0x04\n      add\n      tag_194\n      swap1\n      tag_195\n      jump\t// in\n    tag_194:\n      mload(0x40)\n      dup1\n      swap2\n      sub\n      swap1\n      revert\n    tag_193:\n        /* \"contracts/stake_reward_MLM.sol\":5209:5220  SMCcontract */\n      0x01\n      0x00\n      swap1\n      sload\n      swap1\n      0x0100\n      exp\n      swap1\n      div\n      0xffffffffffffffffffffffffffffffffffffffff\n      and\n        /* \"contracts/stake_reward_MLM.sol\":5204:5230  DUSD(SMCcontract).transfer */\n      0xffffffffffffffffffffffffffffffffffffffff\n      and\n      0xa9059cbb\n        /* \"contracts/stake_reward_MLM.sol\":5231:5241  msg.sender */\n      caller\n        /* \"contracts/stake_reward_MLM.sol\":5242:5254  Total_reward */\n      dup4\n        /* \"contracts/stake_reward_MLM.sol\":5204:5255  DUSD(SMCcontract).transfer(msg.sender,Total_reward) */\n      mload(0x40)\n      dup4\n      0xffffffff\n      and\n      0xe0\n      shl\n      dup2\n      mstore\n      0x04\n      add\n      tag_196\n      swap3\n      swap2\n      swap1\n      tag_164\n      jump\t// in\n    tag_196:\n      0x20\n      mload(0x40)\n      dup1\n      dup4\n      sub\n      dup2\n      0x00\n      dup8\n      dup1\n      extcodesize\n      iszero\n      dup1\n      iszero\n      tag_197\n      jumpi\n      0x00\n      dup1\n      revert\n    tag_197:\n      pop\n      gas\n      call\n      iszero\n      dup1\n      iszero\n      tag_199\n      jumpi\n      returndatasize\n      0x00\n      dup1\n      returndatacopy\n      revert(0x00, returndatasize)\n    tag_199:\n      pop\n      pop\n      pop\n      pop\n      mload(0x40)\n      returndatasize\n      not(0x1f)\n      0x1f\n      dup3\n      add\n      and\n      dup3\n      add\n      dup1\n      0x40\n      mstore\n      pop\n      dup2\n      add\n      swap1\n      tag_200\n      swap2\n      swap1\n      tag_169\n      jump\t// in\n    tag_200:\n      pop\n        /* \"contracts/stake_reward_MLM.sol\":5378:5390  Total_reward */\n      dup1\n        /* \"contracts/stake_reward_MLM.sol\":5332:5344  DUSDinvestor */\n      0x08\n        /* \"contracts/stake_reward_MLM.sol\":5332:5356  DUSDinvestor[msg.sender] */\n      0x00\n        /* \"contracts/stake_reward_MLM.sol\":5345:5355  msg.sender */\n      caller\n        /* \"contracts/stake_reward_MLM.sol\":5332:5356  DUSDinvestor[msg.sender] */\n      0xffffffffffffffffffffffffffffffffffffffff\n      and\n      0xffffffffffffffffffffffffffffffffffffffff\n      and\n      dup2\n      mstore\n      0x20\n      add\n      swap1\n      dup2\n      mstore\n      0x20\n      add\n      0x00\n      keccak256\n        /* \"contracts/stake_reward_MLM.sol\":5332:5377  DUSDinvestor[msg.sender].totalWithdraw_reward */\n      0x07\n      add\n        /* \"contracts/stake_reward_MLM.sol\":5332:5390  DUSDinvestor[msg.sender].totalWithdraw_reward=Total_reward */\n      dup2\n      swap1\n      sstore\n      pop\n        /* \"contracts/stake_reward_MLM.sol\":5411:5415  true */\n      0x01\n        /* \"contracts/stake_reward_MLM.sol\":5404:5415  return true */\n      swap2\n      pop\n      pop\n        /* \"contracts/stake_reward_MLM.sol\":4949:5427  function withdrawReward() external returns (bool success){... */\n      swap1\n      jump\t// out\n        /* \"contracts/stake_reward_MLM.sol\":9213:9437  function set_values(uint min_stake,uint max_stake,uint reward_per_day) public ... */\n    tag_80:\n        /* \"contracts/stake_reward_MLM.sol\":9333:9342  max_stake */\n      dup2\n        /* \"contracts/stake_reward_MLM.sol\":9314:9330  max_Stake_amount */\n      0x06\n        /* \"contracts/stake_reward_MLM.sol\":9314:9342  max_Stake_amount = max_stake */\n      dup2\n      swap1\n      sstore\n      pop\n        /* \"contracts/stake_reward_MLM.sol\":9375:9384  min_stake */\n      dup3\n        /* \"contracts/stake_reward_MLM.sol\":9356:9372  min_Stake_amount */\n      0x05\n        /* \"contracts/stake_reward_MLM.sol\":9356:9384  min_Stake_amount = min_stake */\n      dup2\n      swap1\n      sstore\n      pop\n        /* \"contracts/stake_reward_MLM.sol\":9412:9426  reward_per_day */\n      dup1\n        /* \"contracts/stake_reward_MLM.sol\":9398:9409  rewardToken */\n      0x04\n        /* \"contracts/stake_reward_MLM.sol\":9398:9426  rewardToken = reward_per_day */\n      dup2\n      swap1\n      sstore\n      pop\n        /* \"contracts/stake_reward_MLM.sol\":9213:9437  function set_values(uint min_stake,uint max_stake,uint reward_per_day) public ... */\n      pop\n      pop\n      pop\n      jump\t// out\n        /* \"contracts/stake_reward_MLM.sol\":1390:1432  mapping(address=>Data) public DUSDinvestor */\n    tag_84:\n      mstore(0x20, 0x08)\n      dup1\n      0x00\n      mstore\n      keccak256(0x00, 0x40)\n      0x00\n      swap2\n      pop\n      swap1\n      pop\n      dup1\n      0x02\n      add\n      0x00\n      swap1\n      sload\n      swap1\n      0x0100\n      exp\n      swap1\n      div\n      0xffffffffffffffffffffffffffffffffffffffff\n      and\n      swap1\n      dup1\n      0x04\n      add\n      sload\n      swap1\n      dup1\n      0x05\n      add\n      sload\n      swap1\n      dup1\n      0x06\n      add\n      sload\n      swap1\n      dup1\n      0x07\n      add\n      sload\n      swap1\n      dup1\n      0x08\n      add\n      0x00\n      swap1\n      sload\n      swap1\n      0x0100\n      exp\n      swap1\n      div\n      0xff\n      and\n      swap1\n      pop\n      dup7\n      jump\t// out\n        /* \"contracts/stake_reward_MLM.sol\":9446:9620  function transferOwnership(address _owner)  public... */\n    tag_89:\n        /* \"contracts/stake_reward_MLM.sol\":9539:9544  owner */\n      0x00\n      dup1\n      sload\n      swap1\n      0x0100\n      exp\n      swap1\n      div\n      0xffffffffffffffffffffffffffffffffffffffff\n      and\n        /* \"contracts/stake_reward_MLM.sol\":9527:9544  msg.sender==owner */\n      0xffffffffffffffffffffffffffffffffffffffff\n      and\n        /* \"contracts/stake_reward_MLM.sol\":9527:9537  msg.sender */\n      caller\n        /* \"contracts/stake_reward_MLM.sol\":9527:9544  msg.sender==owner */\n      0xffffffffffffffffffffffffffffffffffffffff\n      and\n      eq\n        /* \"contracts/stake_reward_MLM.sol\":9519:9581  require(msg.sender==owner,\"only Owner can call this function\") */\n      tag_203\n      jumpi\n      mload(0x40)\n      0x08c379a000000000000000000000000000000000000000000000000000000000\n      dup2\n      mstore\n      0x04\n      add\n      tag_204\n      swap1\n      tag_205\n      jump\t// in\n    tag_204:\n      mload(0x40)\n      dup1\n      swap2\n      sub\n      swap1\n      revert\n    tag_203:\n        /* \"contracts/stake_reward_MLM.sol\":9603:9609  _owner */\n      dup1\n        /* \"contracts/stake_reward_MLM.sol\":9595:9600  owner */\n      0x00\n      dup1\n        /* \"contracts/stake_reward_MLM.sol\":9595:9609  owner = _owner */\n      0x0100\n      exp\n      dup2\n      sload\n      dup2\n      0xffffffffffffffffffffffffffffffffffffffff\n      mul\n      not\n      and\n      swap1\n      dup4\n      0xffffffffffffffffffffffffffffffffffffffff\n      and\n      mul\n      or\n      swap1\n      sstore\n      pop\n        /* \"contracts/stake_reward_MLM.sol\":9446:9620  function transferOwnership(address _owner)  public... */\n      pop\n      jump\t// out\n        /* \"contracts/stake_reward_MLM.sol\":10204:10765  function referralLevel_count() public view returns( uint[] memory arr )... */\n    tag_91:\n        /* \"contracts/stake_reward_MLM.sol\":10256:10273  uint[] memory arr */\n      0x60\n        /* \"contracts/stake_reward_MLM.sol\":10298:10333  uint[] memory referralLevels_reward */\n      0x00\n        /* \"contracts/stake_reward_MLM.sol\":10345:10347  20 */\n      0x14\n        /* \"contracts/stake_reward_MLM.sol\":10334:10348  new uint[](20) */\n      0xffffffffffffffff\n      dup2\n      gt\n      iszero\n      tag_207\n      jumpi\n      tag_208\n      tag_129\n      jump\t// in\n    tag_208:\n    tag_207:\n      mload(0x40)\n      swap1\n      dup1\n      dup3\n      mstore\n      dup1\n      0x20\n      mul\n      0x20\n      add\n      dup3\n      add\n      0x40\n      mstore\n      dup1\n      iszero\n      tag_209\n      jumpi\n      dup2\n      0x20\n      add\n      0x20\n      dup3\n      mul\n      dup1\n      calldatasize\n      dup4\n      calldatacopy\n      dup1\n      dup3\n      add\n      swap2\n      pop\n      pop\n      swap1\n      pop\n    tag_209:\n      pop\n        /* \"contracts/stake_reward_MLM.sol\":10298:10348  uint[] memory referralLevels_reward=new uint[](20) */\n      swap1\n      pop\n        /* \"contracts/stake_reward_MLM.sol\":10366:10372  uint i */\n      0x00\n        /* \"contracts/stake_reward_MLM.sol\":10362:10710  for(uint i=0;i<20;i++)... */\n    tag_210:\n        /* \"contracts/stake_reward_MLM.sol\":10377:10379  20 */\n      0x14\n        /* \"contracts/stake_reward_MLM.sol\":10375:10376  i */\n      dup2\n        /* \"contracts/stake_reward_MLM.sol\":10375:10379  i<20 */\n      lt\n        /* \"contracts/stake_reward_MLM.sol\":10362:10710  for(uint i=0;i<20;i++)... */\n      iszero\n      tag_211\n      jumpi\n        /* \"contracts/stake_reward_MLM.sol\":10467:10468  0 */\n      0x00\n        /* \"contracts/stake_reward_MLM.sol\":10418:10430  DUSDinvestor */\n      0x08\n        /* \"contracts/stake_reward_MLM.sol\":10418:10442  DUSDinvestor[msg.sender] */\n      0x00\n        /* \"contracts/stake_reward_MLM.sol\":10431:10441  msg.sender */\n      caller\n        /* \"contracts/stake_reward_MLM.sol\":10418:10442  DUSDinvestor[msg.sender] */\n      0xffffffffffffffffffffffffffffffffffffffff\n      and\n      0xffffffffffffffffffffffffffffffffffffffff\n      and\n      dup2\n      mstore\n      0x20\n      add\n      swap1\n      dup2\n      mstore\n      0x20\n      add\n      0x00\n      keccak256\n        /* \"contracts/stake_reward_MLM.sol\":10418:10456  DUSDinvestor[msg.sender].referralLevel */\n      0x03\n      add\n        /* \"contracts/stake_reward_MLM.sol\":10418:10459  DUSDinvestor[msg.sender].referralLevel[i] */\n      0x00\n        /* \"contracts/stake_reward_MLM.sol\":10457:10458  i */\n      dup4\n        /* \"contracts/stake_reward_MLM.sol\":10418:10459  DUSDinvestor[msg.sender].referralLevel[i] */\n      dup2\n      mstore\n      0x20\n      add\n      swap1\n      dup2\n      mstore\n      0x20\n      add\n      0x00\n      keccak256\n        /* \"contracts/stake_reward_MLM.sol\":10418:10466  DUSDinvestor[msg.sender].referralLevel[i].reward */\n      0x00\n      add\n      sload\n        /* \"contracts/stake_reward_MLM.sol\":10418:10468  DUSDinvestor[msg.sender].referralLevel[i].reward>0 */\n      gt\n        /* \"contracts/stake_reward_MLM.sol\":10415:10694  if(DUSDinvestor[msg.sender].referralLevel[i].reward>0)... */\n      iszero\n      tag_213\n      jumpi\n        /* \"contracts/stake_reward_MLM.sol\":10535:10547  DUSDinvestor */\n      0x08\n        /* \"contracts/stake_reward_MLM.sol\":10535:10559  DUSDinvestor[msg.sender] */\n      0x00\n        /* \"contracts/stake_reward_MLM.sol\":10548:10558  msg.sender */\n      caller\n        /* \"contracts/stake_reward_MLM.sol\":10535:10559  DUSDinvestor[msg.sender] */\n      0xffffffffffffffffffffffffffffffffffffffff\n      and\n      0xffffffffffffffffffffffffffffffffffffffff\n      and\n      dup2\n      mstore\n      0x20\n      add\n      swap1\n      dup2\n      mstore\n      0x20\n      add\n      0x00\n      keccak256\n        /* \"contracts/stake_reward_MLM.sol\":10535:10573  DUSDinvestor[msg.sender].referralLevel */\n      0x03\n      add\n        /* \"contracts/stake_reward_MLM.sol\":10535:10576  DUSDinvestor[msg.sender].referralLevel[i] */\n      0x00\n        /* \"contracts/stake_reward_MLM.sol\":10574:10575  i */\n      dup3\n        /* \"contracts/stake_reward_MLM.sol\":10535:10576  DUSDinvestor[msg.sender].referralLevel[i] */\n      dup2\n      mstore\n      0x20\n      add\n      swap1\n      dup2\n      mstore\n      0x20\n      add\n      0x00\n      keccak256\n        /* \"contracts/stake_reward_MLM.sol\":10535:10582  DUSDinvestor[msg.sender].referralLevel[i].count */\n      0x01\n      add\n      sload\n        /* \"contracts/stake_reward_MLM.sol\":10508:10529  referralLevels_reward */\n      dup3\n        /* \"contracts/stake_reward_MLM.sol\":10530:10531  i */\n      dup3\n        /* \"contracts/stake_reward_MLM.sol\":10508:10532  referralLevels_reward[i] */\n      dup2\n      mload\n      dup2\n      lt\n      tag_214\n      jumpi\n      tag_215\n      tag_140\n      jump\t// in\n    tag_215:\n    tag_214:\n      0x20\n      mul\n      0x20\n      add\n      add\n        /* \"contracts/stake_reward_MLM.sol\":10508:10582  referralLevels_reward[i] = DUSDinvestor[msg.sender].referralLevel[i].count */\n      dup2\n      dup2\n      mstore\n      pop\n      pop\n        /* \"contracts/stake_reward_MLM.sol\":10415:10694  if(DUSDinvestor[msg.sender].referralLevel[i].reward>0)... */\n      jump(tag_216)\n    tag_213:\n        /* \"contracts/stake_reward_MLM.sol\":10673:10674  0 */\n      0x00\n        /* \"contracts/stake_reward_MLM.sol\":10646:10667  referralLevels_reward */\n      dup3\n        /* \"contracts/stake_reward_MLM.sol\":10668:10669  i */\n      dup3\n        /* \"contracts/stake_reward_MLM.sol\":10646:10670  referralLevels_reward[i] */\n      dup2\n      mload\n      dup2\n      lt\n      tag_217\n      jumpi\n      tag_218\n      tag_140\n      jump\t// in\n    tag_218:\n    tag_217:\n      0x20\n      mul\n      0x20\n      add\n      add\n        /* \"contracts/stake_reward_MLM.sol\":10646:10674  referralLevels_reward[i] = 0 */\n      dup2\n      dup2\n      mstore\n      pop\n      pop\n        /* \"contracts/stake_reward_MLM.sol\":10415:10694  if(DUSDinvestor[msg.sender].referralLevel[i].reward>0)... */\n    tag_216:\n        /* \"contracts/stake_reward_MLM.sol\":10380:10383  i++ */\n      dup1\n      dup1\n      tag_219\n      swap1\n      tag_107\n      jump\t// in\n    tag_219:\n      swap2\n      pop\n      pop\n        /* \"contracts/stake_reward_MLM.sol\":10362:10710  for(uint i=0;i<20;i++)... */\n      jump(tag_210)\n    tag_211:\n      pop\n        /* \"contracts/stake_reward_MLM.sol\":10730:10751  referralLevels_reward */\n      dup1\n        /* \"contracts/stake_reward_MLM.sol\":10723:10751  return referralLevels_reward */\n      swap2\n      pop\n      pop\n        /* \"contracts/stake_reward_MLM.sol\":10204:10765  function referralLevel_count() public view returns( uint[] memory arr )... */\n      swap1\n      jump\t// out\n        /* \"contracts/stake_reward_MLM.sol\":516:558  uint public rewardToken=500000000000000000 */\n    tag_94:\n      sload(0x04)\n      dup2\n      jump\t// out\n        /* \"contracts/stake_reward_MLM.sol\":1583:3106  function sendRewardToDUSDReferrals(address investor,uint _investedAmount)  internal  //this is the freferral function to transfer the reawards to referrals... */\n    tag_118:\n        /* \"contracts/stake_reward_MLM.sol\":1763:1775  address temp */\n      0x00\n        /* \"contracts/stake_reward_MLM.sol\":1778:1786  investor */\n      dup3\n        /* \"contracts/stake_reward_MLM.sol\":1763:1786  address temp = investor */\n      swap1\n      pop\n        /* \"contracts/stake_reward_MLM.sol\":1807:1831  uint[] memory percentage */\n      0x00\n        /* \"contracts/stake_reward_MLM.sol\":1845:1846  5 */\n      0x05\n        /* \"contracts/stake_reward_MLM.sol\":1834:1847  new uint[](5) */\n      0xffffffffffffffff\n      dup2\n      gt\n      iszero\n      tag_221\n      jumpi\n      tag_222\n      tag_129\n      jump\t// in\n    tag_222:\n    tag_221:\n      mload(0x40)\n      swap1\n      dup1\n      dup3\n      mstore\n      dup1\n      0x20\n      mul\n      0x20\n      add\n      dup3\n      add\n      0x40\n      mstore\n      dup1\n      iszero\n      tag_223\n      jumpi\n      dup2\n      0x20\n      add\n      0x20\n      dup3\n      mul\n      dup1\n      calldatasize\n      dup4\n      calldatacopy\n      dup1\n      dup3\n      add\n      swap2\n      pop\n      pop\n      swap1\n      pop\n    tag_223:\n      pop\n        /* \"contracts/stake_reward_MLM.sol\":1807:1847  uint[] memory percentage = new uint[](5) */\n      swap1\n      pop\n        /* \"contracts/stake_reward_MLM.sol\":1877:1884  5 ether */\n      0x4563918244f40000\n        /* \"contracts/stake_reward_MLM.sol\":1861:1871  percentage */\n      dup2\n        /* \"contracts/stake_reward_MLM.sol\":1872:1873  0 */\n      0x00\n        /* \"contracts/stake_reward_MLM.sol\":1861:1874  percentage[0] */\n      dup2\n      mload\n      dup2\n      lt\n      tag_224\n      jumpi\n      tag_225\n      tag_140\n      jump\t// in\n    tag_225:\n    tag_224:\n      0x20\n      mul\n      0x20\n      add\n      add\n        /* \"contracts/stake_reward_MLM.sol\":1861:1884  percentage[0] = 5 ether */\n      dup2\n      dup2\n      mstore\n      pop\n      pop\n        /* \"contracts/stake_reward_MLM.sol\":1914:1921  3 ether */\n      0x29a2241af62c0000\n        /* \"contracts/stake_reward_MLM.sol\":1898:1908  percentage */\n      dup2\n        /* \"contracts/stake_reward_MLM.sol\":1909:1910  1 */\n      0x01\n        /* \"contracts/stake_reward_MLM.sol\":1898:1911  percentage[1] */\n      dup2\n      mload\n      dup2\n      lt\n      tag_226\n      jumpi\n      tag_227\n      tag_140\n      jump\t// in\n    tag_227:\n    tag_226:\n      0x20\n      mul\n      0x20\n      add\n      add\n        /* \"contracts/stake_reward_MLM.sol\":1898:1921  percentage[1] = 3 ether */\n      dup2\n      dup2\n      mstore\n      pop\n      pop\n        /* \"contracts/stake_reward_MLM.sol\":1951:1958  2 ether */\n      0x1bc16d674ec80000\n        /* \"contracts/stake_reward_MLM.sol\":1935:1945  percentage */\n      dup2\n        /* \"contracts/stake_reward_MLM.sol\":1946:1947  2 */\n      0x02\n        /* \"contracts/stake_reward_MLM.sol\":1935:1948  percentage[2] */\n      dup2\n      mload\n      dup2\n      lt\n      tag_228\n      jumpi\n      tag_229\n      tag_140\n      jump\t// in\n    tag_229:\n    tag_228:\n      0x20\n      mul\n      0x20\n      add\n      add\n        /* \"contracts/stake_reward_MLM.sol\":1935:1958  percentage[2] = 2 ether */\n      dup2\n      dup2\n      mstore\n      pop\n      pop\n        /* \"contracts/stake_reward_MLM.sol\":1988:1995  1 ether */\n      0x0de0b6b3a7640000\n        /* \"contracts/stake_reward_MLM.sol\":1972:1982  percentage */\n      dup2\n        /* \"contracts/stake_reward_MLM.sol\":1983:1984  3 */\n      0x03\n        /* \"contracts/stake_reward_MLM.sol\":1972:1985  percentage[3] */\n      dup2\n      mload\n      dup2\n      lt\n      tag_230\n      jumpi\n      tag_231\n      tag_140\n      jump\t// in\n    tag_231:\n    tag_230:\n      0x20\n      mul\n      0x20\n      add\n      add\n        /* \"contracts/stake_reward_MLM.sol\":1972:1995  percentage[3] = 1 ether */\n      dup2\n      dup2\n      mstore\n      pop\n      pop\n        /* \"contracts/stake_reward_MLM.sol\":2025:2034  0.5 ether */\n      0x06f05b59d3b20000\n        /* \"contracts/stake_reward_MLM.sol\":2009:2019  percentage */\n      dup2\n        /* \"contracts/stake_reward_MLM.sol\":2020:2021  4 */\n      0x04\n        /* \"contracts/stake_reward_MLM.sol\":2009:2022  percentage[4] */\n      dup2\n      mload\n      dup2\n      lt\n      tag_232\n      jumpi\n      tag_233\n      tag_140\n      jump\t// in\n    tag_233:\n    tag_232:\n      0x20\n      mul\n      0x20\n      add\n      add\n        /* \"contracts/stake_reward_MLM.sol\":2009:2034  percentage[4] = 0.5 ether */\n      dup2\n      dup2\n      mstore\n      pop\n      pop\n        /* \"contracts/stake_reward_MLM.sol\":2050:2056  uint j */\n      0x00\n        /* \"contracts/stake_reward_MLM.sol\":2077:2083  uint i */\n      dup1\n        /* \"contracts/stake_reward_MLM.sol\":2084:2085  0 */\n      0x00\n        /* \"contracts/stake_reward_MLM.sol\":2077:2085  uint i=0 */\n      swap1\n      pop\n        /* \"contracts/stake_reward_MLM.sol\":2073:3095  for(uint i=0;i<10;i++)... */\n    tag_234:\n        /* \"contracts/stake_reward_MLM.sol\":2088:2090  10 */\n      0x0a\n        /* \"contracts/stake_reward_MLM.sol\":2086:2087  i */\n      dup2\n        /* \"contracts/stake_reward_MLM.sol\":2086:2090  i<10 */\n      lt\n        /* \"contracts/stake_reward_MLM.sol\":2073:3095  for(uint i=0;i<10;i++)... */\n      iszero\n      tag_235\n      jumpi\n        /* \"contracts/stake_reward_MLM.sol\":2133:2134  0 */\n      0x00\n        /* \"contracts/stake_reward_MLM.sol\":2130:2131  i */\n      dup2\n        /* \"contracts/stake_reward_MLM.sol\":2130:2134  i==0 */\n      eq\n        /* \"contracts/stake_reward_MLM.sol\":2127:2559  if(i==0)... */\n      iszero\n      tag_237\n      jumpi\n        /* \"contracts/stake_reward_MLM.sol\":2176:2177  0 */\n      0x00\n        /* \"contracts/stake_reward_MLM.sol\":2174:2177  j=0 */\n      swap2\n      pop\n        /* \"contracts/stake_reward_MLM.sol\":2127:2559  if(i==0)... */\n      jump(tag_238)\n    tag_237:\n        /* \"contracts/stake_reward_MLM.sol\":2224:2225  1 */\n      0x01\n        /* \"contracts/stake_reward_MLM.sol\":2221:2222  i */\n      dup2\n        /* \"contracts/stake_reward_MLM.sol\":2221:2225  i==1 */\n      eq\n        /* \"contracts/stake_reward_MLM.sol\":2218:2559  if(i==1)... */\n      iszero\n      tag_239\n      jumpi\n        /* \"contracts/stake_reward_MLM.sol\":2267:2268  1 */\n      0x01\n        /* \"contracts/stake_reward_MLM.sol\":2265:2268  j=1 */\n      swap2\n      pop\n        /* \"contracts/stake_reward_MLM.sol\":2218:2559  if(i==1)... */\n      jump(tag_240)\n    tag_239:\n        /* \"contracts/stake_reward_MLM.sol\":2315:2316  2 */\n      0x02\n        /* \"contracts/stake_reward_MLM.sol\":2312:2313  i */\n      dup2\n        /* \"contracts/stake_reward_MLM.sol\":2312:2316  i==2 */\n      eq\n        /* \"contracts/stake_reward_MLM.sol\":2309:2559  if(i==2)... */\n      iszero\n      tag_241\n      jumpi\n        /* \"contracts/stake_reward_MLM.sol\":2358:2359  2 */\n      0x02\n        /* \"contracts/stake_reward_MLM.sol\":2356:2359  j=2 */\n      swap2\n      pop\n        /* \"contracts/stake_reward_MLM.sol\":2309:2559  if(i==2)... */\n      jump(tag_242)\n    tag_241:\n        /* \"contracts/stake_reward_MLM.sol\":2406:2407  2 */\n      0x02\n        /* \"contracts/stake_reward_MLM.sol\":2404:2405  i */\n      dup2\n        /* \"contracts/stake_reward_MLM.sol\":2404:2407  i>2 */\n      gt\n        /* \"contracts/stake_reward_MLM.sol\":2401:2559  if(i>2)... */\n      iszero\n      tag_243\n      jumpi\n        /* \"contracts/stake_reward_MLM.sol\":2449:2450  3 */\n      0x03\n        /* \"contracts/stake_reward_MLM.sol\":2447:2450  j=3 */\n      swap2\n      pop\n        /* \"contracts/stake_reward_MLM.sol\":2401:2559  if(i>2)... */\n      jump(tag_244)\n    tag_243:\n        /* \"contracts/stake_reward_MLM.sol\":2496:2497  7 */\n      0x07\n        /* \"contracts/stake_reward_MLM.sol\":2494:2495  i */\n      dup2\n        /* \"contracts/stake_reward_MLM.sol\":2494:2497  i>7 */\n      gt\n        /* \"contracts/stake_reward_MLM.sol\":2491:2559  if(i>7)... */\n      iszero\n      tag_245\n      jumpi\n        /* \"contracts/stake_reward_MLM.sol\":2539:2540  4 */\n      0x04\n        /* \"contracts/stake_reward_MLM.sol\":2537:2540  j=4 */\n      swap2\n      pop\n        /* \"contracts/stake_reward_MLM.sol\":2491:2559  if(i>7)... */\n    tag_245:\n        /* \"contracts/stake_reward_MLM.sol\":2401:2559  if(i>2)... */\n    tag_244:\n        /* \"contracts/stake_reward_MLM.sol\":2309:2559  if(i==2)... */\n    tag_242:\n        /* \"contracts/stake_reward_MLM.sol\":2218:2559  if(i==1)... */\n    tag_240:\n        /* \"contracts/stake_reward_MLM.sol\":2127:2559  if(i==0)... */\n    tag_238:\n        /* \"contracts/stake_reward_MLM.sol\":2637:2638  0 */\n      0x00\n        /* \"contracts/stake_reward_MLM.sol\":2596:2639  DUSDinvestor[temp].referralFrom!=address(0) */\n      0xffffffffffffffffffffffffffffffffffffffff\n      and\n        /* \"contracts/stake_reward_MLM.sol\":2596:2608  DUSDinvestor */\n      0x08\n        /* \"contracts/stake_reward_MLM.sol\":2596:2614  DUSDinvestor[temp] */\n      0x00\n        /* \"contracts/stake_reward_MLM.sol\":2609:2613  temp */\n      dup7\n        /* \"contracts/stake_reward_MLM.sol\":2596:2614  DUSDinvestor[temp] */\n      0xffffffffffffffffffffffffffffffffffffffff\n      and\n      0xffffffffffffffffffffffffffffffffffffffff\n      and\n      dup2\n      mstore\n      0x20\n      add\n      swap1\n      dup2\n      mstore\n      0x20\n      add\n      0x00\n      keccak256\n        /* \"contracts/stake_reward_MLM.sol\":2596:2627  DUSDinvestor[temp].referralFrom */\n      0x02\n      add\n      0x00\n      swap1\n      sload\n      swap1\n      0x0100\n      exp\n      swap1\n      div\n      0xffffffffffffffffffffffffffffffffffffffff\n      and\n        /* \"contracts/stake_reward_MLM.sol\":2596:2639  DUSDinvestor[temp].referralFrom!=address(0) */\n      0xffffffffffffffffffffffffffffffffffffffff\n      and\n      eq\n        /* \"contracts/stake_reward_MLM.sol\":2593:3080  if(DUSDinvestor[temp].referralFrom!=address(0))... */\n      tag_246\n      jumpi\n        /* \"contracts/stake_reward_MLM.sol\":2685:2697  DUSDinvestor */\n      0x08\n        /* \"contracts/stake_reward_MLM.sol\":2685:2703  DUSDinvestor[temp] */\n      0x00\n        /* \"contracts/stake_reward_MLM.sol\":2698:2702  temp */\n      dup6\n        /* \"contracts/stake_reward_MLM.sol\":2685:2703  DUSDinvestor[temp] */\n      0xffffffffffffffffffffffffffffffffffffffff\n      and\n      0xffffffffffffffffffffffffffffffffffffffff\n      and\n      dup2\n      mstore\n      0x20\n      add\n      swap1\n      dup2\n      mstore\n      0x20\n      add\n      0x00\n      keccak256\n        /* \"contracts/stake_reward_MLM.sol\":2685:2716  DUSDinvestor[temp].referralFrom */\n      0x02\n      add\n      0x00\n      swap1\n      sload\n      swap1\n      0x0100\n      exp\n      swap1\n      div\n      0xffffffffffffffffffffffffffffffffffffffff\n      and\n        /* \"contracts/stake_reward_MLM.sol\":2680:2716  temp=DUSDinvestor[temp].referralFrom */\n      swap4\n      pop\n        /* \"contracts/stake_reward_MLM.sol\":2738:2750  uint reward1 */\n      0x00\n        /* \"contracts/stake_reward_MLM.sol\":2788:2791  100 */\n      0x64\n        /* \"contracts/stake_reward_MLM.sol\":2771:2786  _investedAmount */\n      dup7\n        /* \"contracts/stake_reward_MLM.sol\":2755:2765  percentage */\n      dup6\n        /* \"contracts/stake_reward_MLM.sol\":2766:2767  j */\n      dup6\n        /* \"contracts/stake_reward_MLM.sol\":2755:2768  percentage[j] */\n      dup2\n      mload\n      dup2\n      lt\n      tag_247\n      jumpi\n      tag_248\n      tag_140\n      jump\t// in\n    tag_248:\n    tag_247:\n      0x20\n      mul\n      0x20\n      add\n      add\n      mload\n        /* \"contracts/stake_reward_MLM.sol\":2755:2786  percentage[j] * _investedAmount */\n      tag_249\n      swap2\n      swap1\n      tag_153\n      jump\t// in\n    tag_249:\n        /* \"contracts/stake_reward_MLM.sol\":2754:2791  (percentage[j] * _investedAmount)/100 */\n      tag_250\n      swap2\n      swap1\n      tag_150\n      jump\t// in\n    tag_250:\n        /* \"contracts/stake_reward_MLM.sol\":2738:2792  uint reward1 = ((percentage[j] * _investedAmount)/100) */\n      swap1\n      pop\n        /* \"contracts/stake_reward_MLM.sol\":2819:2830  SMCcontract */\n      0x01\n      0x00\n      swap1\n      sload\n      swap1\n      0x0100\n      exp\n      swap1\n      div\n      0xffffffffffffffffffffffffffffffffffffffff\n      and\n        /* \"contracts/stake_reward_MLM.sol\":2814:2840  DUSD(SMCcontract).transfer */\n      0xffffffffffffffffffffffffffffffffffffffff\n      and\n      0xa9059cbb\n        /* \"contracts/stake_reward_MLM.sol\":2841:2845  temp */\n      dup7\n        /* \"contracts/stake_reward_MLM.sol\":2846:2853  reward1 */\n      dup4\n        /* \"contracts/stake_reward_MLM.sol\":2814:2854  DUSD(SMCcontract).transfer(temp,reward1) */\n      mload(0x40)\n      dup4\n      0xffffffff\n      and\n      0xe0\n      shl\n      dup2\n      mstore\n      0x04\n      add\n      tag_251\n      swap3\n      swap2\n      swap1\n      tag_164\n      jump\t// in\n    tag_251:\n      0x20\n      mload(0x40)\n      dup1\n      dup4\n      sub\n      dup2\n      0x00\n      dup8\n      dup1\n      extcodesize\n      iszero\n      dup1\n      iszero\n      tag_252\n      jumpi\n      0x00\n      dup1\n      revert\n    tag_252:\n      pop\n      gas\n      call\n      iszero\n      dup1\n      iszero\n      tag_254\n      jumpi\n      returndatasize\n      0x00\n      dup1\n      returndatacopy\n      revert(0x00, returndatasize)\n    tag_254:\n      pop\n      pop\n      pop\n      pop\n      mload(0x40)\n      returndatasize\n      not(0x1f)\n      0x1f\n      dup3\n      add\n      and\n      dup3\n      add\n      dup1\n      0x40\n      mstore\n      pop\n      dup2\n      add\n      swap1\n      tag_255\n      swap2\n      swap1\n      tag_169\n      jump\t// in\n    tag_255:\n      pop\n        /* \"contracts/stake_reward_MLM.sol\":2920:2927  reward1 */\n      dup1\n        /* \"contracts/stake_reward_MLM.sol\":2876:2888  DUSDinvestor */\n      0x08\n        /* \"contracts/stake_reward_MLM.sol\":2876:2894  DUSDinvestor[temp] */\n      0x00\n        /* \"contracts/stake_reward_MLM.sol\":2889:2893  temp */\n      dup8\n        /* \"contracts/stake_reward_MLM.sol\":2876:2894  DUSDinvestor[temp] */\n      0xffffffffffffffffffffffffffffffffffffffff\n      and\n      0xffffffffffffffffffffffffffffffffffffffff\n      and\n      dup2\n      mstore\n      0x20\n      add\n      swap1\n      dup2\n      mstore\n      0x20\n      add\n      0x00\n      keccak256\n        /* \"contracts/stake_reward_MLM.sol\":2876:2908  DUSDinvestor[temp].referralLevel */\n      0x03\n      add\n        /* \"contracts/stake_reward_MLM.sol\":2876:2911  DUSDinvestor[temp].referralLevel[i] */\n      0x00\n        /* \"contracts/stake_reward_MLM.sol\":2909:2910  i */\n      dup5\n        /* \"contracts/stake_reward_MLM.sol\":2876:2911  DUSDinvestor[temp].referralLevel[i] */\n      dup2\n      mstore\n      0x20\n      add\n      swap1\n      dup2\n      mstore\n      0x20\n      add\n      0x00\n      keccak256\n        /* \"contracts/stake_reward_MLM.sol\":2876:2918  DUSDinvestor[temp].referralLevel[i].reward */\n      0x00\n      add\n      0x00\n        /* \"contracts/stake_reward_MLM.sol\":2876:2927  DUSDinvestor[temp].referralLevel[i].reward+=reward1 */\n      dup3\n      dup3\n      sload\n      tag_256\n      swap2\n      swap1\n      tag_109\n      jump\t// in\n    tag_256:\n      swap3\n      pop\n      pop\n      dup2\n      swap1\n      sstore\n      pop\n        /* \"contracts/stake_reward_MLM.sol\":2949:2961  DUSDinvestor */\n      0x08\n        /* \"contracts/stake_reward_MLM.sol\":2949:2967  DUSDinvestor[temp] */\n      0x00\n        /* \"contracts/stake_reward_MLM.sol\":2962:2966  temp */\n      dup7\n        /* \"contracts/stake_reward_MLM.sol\":2949:2967  DUSDinvestor[temp] */\n      0xffffffffffffffffffffffffffffffffffffffff\n      and\n      0xffffffffffffffffffffffffffffffffffffffff\n      and\n      dup2\n      mstore\n      0x20\n      add\n      swap1\n      dup2\n      mstore\n      0x20\n      add\n      0x00\n      keccak256\n        /* \"contracts/stake_reward_MLM.sol\":2949:2981  DUSDinvestor[temp].referralLevel */\n      0x03\n      add\n        /* \"contracts/stake_reward_MLM.sol\":2949:2984  DUSDinvestor[temp].referralLevel[i] */\n      0x00\n        /* \"contracts/stake_reward_MLM.sol\":2982:2983  i */\n      dup4\n        /* \"contracts/stake_reward_MLM.sol\":2949:2984  DUSDinvestor[temp].referralLevel[i] */\n      dup2\n      mstore\n      0x20\n      add\n      swap1\n      dup2\n      mstore\n      0x20\n      add\n      0x00\n      keccak256\n        /* \"contracts/stake_reward_MLM.sol\":2949:2990  DUSDinvestor[temp].referralLevel[i].count */\n      0x01\n      add\n      0x00\n        /* \"contracts/stake_reward_MLM.sol\":2949:2992  DUSDinvestor[temp].referralLevel[i].count++ */\n      dup2\n      sload\n      dup1\n      swap3\n      swap2\n      swap1\n      tag_257\n      swap1\n      tag_107\n      jump\t// in\n    tag_257:\n      swap2\n      swap1\n      pop\n      sstore\n      pop\n        /* \"contracts/stake_reward_MLM.sol\":2657:3012  {... */\n      pop\n        /* \"contracts/stake_reward_MLM.sol\":2593:3080  if(DUSDinvestor[temp].referralFrom!=address(0))... */\n      jump(tag_258)\n    tag_246:\n        /* \"contracts/stake_reward_MLM.sol\":3056:3061  break */\n      jump(tag_235)\n        /* \"contracts/stake_reward_MLM.sol\":2593:3080  if(DUSDinvestor[temp].referralFrom!=address(0))... */\n    tag_258:\n        /* \"contracts/stake_reward_MLM.sol\":2091:2094  i++ */\n      dup1\n      dup1\n      tag_259\n      swap1\n      tag_107\n      jump\t// in\n    tag_259:\n      swap2\n      pop\n      pop\n        /* \"contracts/stake_reward_MLM.sol\":2073:3095  for(uint i=0;i<10;i++)... */\n      jump(tag_234)\n    tag_235:\n      pop\n        /* \"contracts/stake_reward_MLM.sol\":1747:3106  { ... */\n      pop\n      pop\n      pop\n        /* \"contracts/stake_reward_MLM.sol\":1583:3106  function sendRewardToDUSDReferrals(address investor,uint _investedAmount)  internal  //this is the freferral function to transfer the reawards to referrals... */\n      pop\n      pop\n      jump\t// out\n    tag_133:\n      mload(0x40)\n      dup1\n      0x80\n      add\n      0x40\n      mstore\n      dup1\n      0x00\n      dup2\n      mstore\n      0x20\n      add\n      0x00\n      dup2\n      mstore\n      0x20\n      add\n      0x00\n      dup2\n      mstore\n      0x20\n      add\n      0x00\n      dup2\n      mstore\n      pop\n      swap1\n      jump\t// out\n        /* \"#utility.yul\":7:146   */\n    tag_261:\n        /* \"#utility.yul\":53:58   */\n      0x00\n        /* \"#utility.yul\":91:97   */\n      dup2\n        /* \"#utility.yul\":78:98   */\n      calldataload\n        /* \"#utility.yul\":69:98   */\n      swap1\n      pop\n        /* \"#utility.yul\":107:140   */\n      tag_263\n        /* \"#utility.yul\":134:139   */\n      dup2\n        /* \"#utility.yul\":107:140   */\n      tag_264\n      jump\t// in\n    tag_263:\n        /* \"#utility.yul\":7:146   */\n      swap3\n      swap2\n      pop\n      pop\n      jump\t// out\n        /* \"#utility.yul\":152:289   */\n    tag_265:\n        /* \"#utility.yul\":206:211   */\n      0x00\n        /* \"#utility.yul\":237:243   */\n      dup2\n        /* \"#utility.yul\":231:244   */\n      mload\n        /* \"#utility.yul\":222:244   */\n      swap1\n      pop\n        /* \"#utility.yul\":253:283   */\n      tag_267\n        /* \"#utility.yul\":277:282   */\n      dup2\n        /* \"#utility.yul\":253:283   */\n      tag_268\n      jump\t// in\n    tag_267:\n        /* \"#utility.yul\":152:289   */\n      swap3\n      swap2\n      pop\n      pop\n      jump\t// out\n        /* \"#utility.yul\":295:434   */\n    tag_269:\n        /* \"#utility.yul\":341:346   */\n      0x00\n        /* \"#utility.yul\":379:385   */\n      dup2\n        /* \"#utility.yul\":366:386   */\n      calldataload\n        /* \"#utility.yul\":357:386   */\n      swap1\n      pop\n        /* \"#utility.yul\":395:428   */\n      tag_271\n        /* \"#utility.yul\":422:427   */\n      dup2\n        /* \"#utility.yul\":395:428   */\n      tag_272\n      jump\t// in\n    tag_271:\n        /* \"#utility.yul\":295:434   */\n      swap3\n      swap2\n      pop\n      pop\n      jump\t// out\n        /* \"#utility.yul\":440:769   */\n    tag_83:\n        /* \"#utility.yul\":499:505   */\n      0x00\n        /* \"#utility.yul\":548:550   */\n      0x20\n        /* \"#utility.yul\":536:545   */\n      dup3\n        /* \"#utility.yul\":527:534   */\n      dup5\n        /* \"#utility.yul\":523:546   */\n      sub\n        /* \"#utility.yul\":519:551   */\n      slt\n        /* \"#utility.yul\":516:635   */\n      iszero\n      tag_274\n      jumpi\n        /* \"#utility.yul\":554:633   */\n      tag_275\n      tag_276\n      jump\t// in\n    tag_275:\n        /* \"#utility.yul\":516:635   */\n    tag_274:\n        /* \"#utility.yul\":674:675   */\n      0x00\n        /* \"#utility.yul\":699:752   */\n      tag_277\n        /* \"#utility.yul\":744:751   */\n      dup5\n        /* \"#utility.yul\":735:741   */\n      dup3\n        /* \"#utility.yul\":724:733   */\n      dup6\n        /* \"#utility.yul\":720:742   */\n      add\n        /* \"#utility.yul\":699:752   */\n      tag_261\n      jump\t// in\n    tag_277:\n        /* \"#utility.yul\":689:752   */\n      swap2\n      pop\n        /* \"#utility.yul\":645:762   */\n      pop\n        /* \"#utility.yul\":440:769   */\n      swap3\n      swap2\n      pop\n      pop\n      jump\t// out\n        /* \"#utility.yul\":775:1120   */\n    tag_169:\n        /* \"#utility.yul\":842:848   */\n      0x00\n        /* \"#utility.yul\":891:893   */\n      0x20\n        /* \"#utility.yul\":879:888   */\n      dup3\n        /* \"#utility.yul\":870:877   */\n      dup5\n        /* \"#utility.yul\":866:889   */\n      sub\n        /* \"#utility.yul\":862:894   */\n      slt\n        /* \"#utility.yul\":859:978   */\n      iszero\n      tag_279\n      jumpi\n        /* \"#utility.yul\":897:976   */\n      tag_280\n      tag_276\n      jump\t// in\n    tag_280:\n        /* \"#utility.yul\":859:978   */\n    tag_279:\n        /* \"#utility.yul\":1017:1018   */\n      0x00\n        /* \"#utility.yul\":1042:1103   */\n      tag_281\n        /* \"#utility.yul\":1095:1102   */\n      dup5\n        /* \"#utility.yul\":1086:1092   */\n      dup3\n        /* \"#utility.yul\":1075:1084   */\n      dup6\n        /* \"#utility.yul\":1071:1093   */\n      add\n        /* \"#utility.yul\":1042:1103   */\n      tag_265\n      jump\t// in\n    tag_281:\n        /* \"#utility.yul\":1032:1103   */\n      swap2\n      pop\n        /* \"#utility.yul\":988:1113   */\n      pop\n        /* \"#utility.yul\":775:1120   */\n      swap3\n      swap2\n      pop\n      pop\n      jump\t// out\n        /* \"#utility.yul\":1126:1455   */\n    tag_38:\n        /* \"#utility.yul\":1185:1191   */\n      0x00\n        /* \"#utility.yul\":1234:1236   */\n      0x20\n        /* \"#utility.yul\":1222:1231   */\n      dup3\n        /* \"#utility.yul\":1213:1220   */\n      dup5\n        /* \"#utility.yul\":1209:1232   */\n      sub\n        /* \"#utility.yul\":1205:1237   */\n      slt\n        /* \"#utility.yul\":1202:1321   */\n      iszero\n      tag_283\n      jumpi\n        /* \"#utility.yul\":1240:1319   */\n      tag_284\n      tag_276\n      jump\t// in\n    tag_284:\n        /* \"#utility.yul\":1202:1321   */\n    tag_283:\n        /* \"#utility.yul\":1360:1361   */\n      0x00\n        /* \"#utility.yul\":1385:1438   */\n      tag_285\n        /* \"#utility.yul\":1430:1437   */\n      dup5\n        /* \"#utility.yul\":1421:1427   */\n      dup3\n        /* \"#utility.yul\":1410:1419   */\n      dup6\n        /* \"#utility.yul\":1406:1428   */\n      add\n        /* \"#utility.yul\":1385:1438   */\n      tag_269\n      jump\t// in\n    tag_285:\n        /* \"#utility.yul\":1375:1438   */\n      swap2\n      pop\n        /* \"#utility.yul\":1331:1448   */\n      pop\n        /* \"#utility.yul\":1126:1455   */\n      swap3\n      swap2\n      pop\n      pop\n      jump\t// out\n        /* \"#utility.yul\":1461:1935   */\n    tag_42:\n        /* \"#utility.yul\":1529:1535   */\n      0x00\n        /* \"#utility.yul\":1537:1543   */\n      dup1\n        /* \"#utility.yul\":1586:1588   */\n      0x40\n        /* \"#utility.yul\":1574:1583   */\n      dup4\n        /* \"#utility.yul\":1565:1572   */\n      dup6\n        /* \"#utility.yul\":1561:1584   */\n      sub\n        /* \"#utility.yul\":1557:1589   */\n      slt\n        /* \"#utility.yul\":1554:1673   */\n      iszero\n      tag_287\n      jumpi\n        /* \"#utility.yul\":1592:1671   */\n      tag_288\n      tag_276\n      jump\t// in\n    tag_288:\n        /* \"#utility.yul\":1554:1673   */\n    tag_287:\n        /* \"#utility.yul\":1712:1713   */\n      0x00\n        /* \"#utility.yul\":1737:1790   */\n      tag_289\n        /* \"#utility.yul\":1782:1789   */\n      dup6\n        /* \"#utility.yul\":1773:1779   */\n      dup3\n        /* \"#utility.yul\":1762:1771   */\n      dup7\n        /* \"#utility.yul\":1758:1780   */\n      add\n        /* \"#utility.yul\":1737:1790   */\n      tag_269\n      jump\t// in\n    tag_289:\n        /* \"#utility.yul\":1727:1790   */\n      swap3\n      pop\n        /* \"#utility.yul\":1683:1800   */\n      pop\n        /* \"#utility.yul\":1839:1841   */\n      0x20\n        /* \"#utility.yul\":1865:1918   */\n      tag_290\n        /* \"#utility.yul\":1910:1917   */\n      dup6\n        /* \"#utility.yul\":1901:1907   */\n      dup3\n        /* \"#utility.yul\":1890:1899   */\n      dup7\n        /* \"#utility.yul\":1886:1908   */\n      add\n        /* \"#utility.yul\":1865:1918   */\n      tag_261\n      jump\t// in\n    tag_290:\n        /* \"#utility.yul\":1855:1918   */\n      swap2\n      pop\n        /* \"#utility.yul\":1810:1928   */\n      pop\n        /* \"#utility.yul\":1461:1935   */\n      swap3\n      pop\n      swap3\n      swap1\n      pop\n      jump\t// out\n        /* \"#utility.yul\":1941:2560   */\n    tag_79:\n        /* \"#utility.yul\":2018:2024   */\n      0x00\n        /* \"#utility.yul\":2026:2032   */\n      dup1\n        /* \"#utility.yul\":2034:2040   */\n      0x00\n        /* \"#utility.yul\":2083:2085   */\n      0x60\n        /* \"#utility.yul\":2071:2080   */\n      dup5\n        /* \"#utility.yul\":2062:2069   */\n      dup7\n        /* \"#utility.yul\":2058:2081   */\n      sub\n        /* \"#utility.yul\":2054:2086   */\n      slt\n        /* \"#utility.yul\":2051:2170   */\n      iszero\n      tag_292\n      jumpi\n        /* \"#utility.yul\":2089:2168   */\n      tag_293\n      tag_276\n      jump\t// in\n    tag_293:\n        /* \"#utility.yul\":2051:2170   */\n    tag_292:\n        /* \"#utility.yul\":2209:2210   */\n      0x00\n        /* \"#utility.yul\":2234:2287   */\n      tag_294\n        /* \"#utility.yul\":2279:2286   */\n      dup7\n        /* \"#utility.yul\":2270:2276   */\n      dup3\n        /* \"#utility.yul\":2259:2268   */\n      dup8\n        /* \"#utility.yul\":2255:2277   */\n      add\n        /* \"#utility.yul\":2234:2287   */\n      tag_269\n      jump\t// in\n    tag_294:\n        /* \"#utility.yul\":2224:2287   */\n      swap4\n      pop\n        /* \"#utility.yul\":2180:2297   */\n      pop\n        /* \"#utility.yul\":2336:2338   */\n      0x20\n        /* \"#utility.yul\":2362:2415   */\n      tag_295\n        /* \"#utility.yul\":2407:2414   */\n      dup7\n        /* \"#utility.yul\":2398:2404   */\n      dup3\n        /* \"#utility.yul\":2387:2396   */\n      dup8\n        /* \"#utility.yul\":2383:2405   */\n      add\n        /* \"#utility.yul\":2362:2415   */\n      tag_269\n      jump\t// in\n    tag_295:\n        /* \"#utility.yul\":2352:2415   */\n      swap3\n      pop\n        /* \"#utility.yul\":2307:2425   */\n      pop\n        /* \"#utility.yul\":2464:2466   */\n      0x40\n        /* \"#utility.yul\":2490:2543   */\n      tag_296\n        /* \"#utility.yul\":2535:2542   */\n      dup7\n        /* \"#utility.yul\":2526:2532   */\n      dup3\n        /* \"#utility.yul\":2515:2524   */\n      dup8\n        /* \"#utility.yul\":2511:2533   */\n      add\n        /* \"#utility.yul\":2490:2543   */\n      tag_269\n      jump\t// in\n    tag_296:\n        /* \"#utility.yul\":2480:2543   */\n      swap2\n      pop\n        /* \"#utility.yul\":2435:2553   */\n      pop\n        /* \"#utility.yul\":1941:2560   */\n      swap3\n      pop\n      swap3\n      pop\n      swap3\n      jump\t// out\n        /* \"#utility.yul\":2566:2745   */\n    tag_297:\n        /* \"#utility.yul\":2635:2645   */\n      0x00\n        /* \"#utility.yul\":2656:2702   */\n      tag_299\n        /* \"#utility.yul\":2698:2701   */\n      dup4\n        /* \"#utility.yul\":2690:2696   */\n      dup4\n        /* \"#utility.yul\":2656:2702   */\n      tag_300\n      jump\t// in\n    tag_299:\n        /* \"#utility.yul\":2734:2738   */\n      0x20\n        /* \"#utility.yul\":2729:2732   */\n      dup4\n        /* \"#utility.yul\":2725:2739   */\n      add\n        /* \"#utility.yul\":2711:2739   */\n      swap1\n      pop\n        /* \"#utility.yul\":2566:2745   */\n      swap3\n      swap2\n      pop\n      pop\n      jump\t// out\n        /* \"#utility.yul\":2751:3050   */\n    tag_301:\n        /* \"#utility.yul\":2880:2890   */\n      0x00\n        /* \"#utility.yul\":2901:3007   */\n      tag_303\n        /* \"#utility.yul\":3003:3006   */\n      dup4\n        /* \"#utility.yul\":2995:3001   */\n      dup4\n        /* \"#utility.yul\":2901:3007   */\n      tag_304\n      jump\t// in\n    tag_303:\n        /* \"#utility.yul\":3039:3043   */\n      0x80\n        /* \"#utility.yul\":3034:3037   */\n      dup4\n        /* \"#utility.yul\":3030:3044   */\n      add\n        /* \"#utility.yul\":3016:3044   */\n      swap1\n      pop\n        /* \"#utility.yul\":2751:3050   */\n      swap3\n      swap2\n      pop\n      pop\n      jump\t// out\n        /* \"#utility.yul\":3056:3235   */\n    tag_305:\n        /* \"#utility.yul\":3125:3135   */\n      0x00\n        /* \"#utility.yul\":3146:3192   */\n      tag_307\n        /* \"#utility.yul\":3188:3191   */\n      dup4\n        /* \"#utility.yul\":3180:3186   */\n      dup4\n        /* \"#utility.yul\":3146:3192   */\n      tag_308\n      jump\t// in\n    tag_307:\n        /* \"#utility.yul\":3224:3228   */\n      0x20\n        /* \"#utility.yul\":3219:3222   */\n      dup4\n        /* \"#utility.yul\":3215:3229   */\n      add\n        /* \"#utility.yul\":3201:3229   */\n      swap1\n      pop\n        /* \"#utility.yul\":3056:3235   */\n      swap3\n      swap2\n      pop\n      pop\n      jump\t// out\n        /* \"#utility.yul\":3241:3349   */\n    tag_300:\n        /* \"#utility.yul\":3318:3342   */\n      tag_310\n        /* \"#utility.yul\":3336:3341   */\n      dup2\n        /* \"#utility.yul\":3318:3342   */\n      tag_311\n      jump\t// in\n    tag_310:\n        /* \"#utility.yul\":3313:3316   */\n      dup3\n        /* \"#utility.yul\":3306:3343   */\n      mstore\n        /* \"#utility.yul\":3241:3349   */\n      pop\n      pop\n      jump\t// out\n        /* \"#utility.yul\":3355:3473   */\n    tag_312:\n        /* \"#utility.yul\":3442:3466   */\n      tag_314\n        /* \"#utility.yul\":3460:3465   */\n      dup2\n        /* \"#utility.yul\":3442:3466   */\n      tag_311\n      jump\t// in\n    tag_314:\n        /* \"#utility.yul\":3437:3440   */\n      dup3\n        /* \"#utility.yul\":3430:3467   */\n      mstore\n        /* \"#utility.yul\":3355:3473   */\n      pop\n      pop\n      jump\t// out\n        /* \"#utility.yul\":3509:4241   */\n    tag_315:\n        /* \"#utility.yul\":3628:3631   */\n      0x00\n        /* \"#utility.yul\":3657:3711   */\n      tag_317\n        /* \"#utility.yul\":3705:3710   */\n      dup3\n        /* \"#utility.yul\":3657:3711   */\n      tag_318\n      jump\t// in\n    tag_317:\n        /* \"#utility.yul\":3727:3813   */\n      tag_319\n        /* \"#utility.yul\":3806:3812   */\n      dup2\n        /* \"#utility.yul\":3801:3804   */\n      dup6\n        /* \"#utility.yul\":3727:3813   */\n      tag_320\n      jump\t// in\n    tag_319:\n        /* \"#utility.yul\":3720:3813   */\n      swap4\n      pop\n        /* \"#utility.yul\":3837:3893   */\n      tag_321\n        /* \"#utility.yul\":3887:3892   */\n      dup4\n        /* \"#utility.yul\":3837:3893   */\n      tag_322\n      jump\t// in\n    tag_321:\n        /* \"#utility.yul\":3916:3923   */\n      dup1\n        /* \"#utility.yul\":3947:3948   */\n      0x00\n        /* \"#utility.yul\":3932:4216   */\n    tag_323:\n        /* \"#utility.yul\":3957:3963   */\n      dup4\n        /* \"#utility.yul\":3954:3955   */\n      dup2\n        /* \"#utility.yul\":3951:3964   */\n      lt\n        /* \"#utility.yul\":3932:4216   */\n      iszero\n      tag_325\n      jumpi\n        /* \"#utility.yul\":4033:4039   */\n      dup2\n        /* \"#utility.yul\":4027:4040   */\n      mload\n        /* \"#utility.yul\":4060:4123   */\n      tag_326\n        /* \"#utility.yul\":4119:4122   */\n      dup9\n        /* \"#utility.yul\":4104:4117   */\n      dup3\n        /* \"#utility.yul\":4060:4123   */\n      tag_297\n      jump\t// in\n    tag_326:\n        /* \"#utility.yul\":4053:4123   */\n      swap8\n      pop\n        /* \"#utility.yul\":4146:4206   */\n      tag_327\n        /* \"#utility.yul\":4199:4205   */\n      dup4\n        /* \"#utility.yul\":4146:4206   */\n      tag_328\n      jump\t// in\n    tag_327:\n        /* \"#utility.yul\":4136:4206   */\n      swap3\n      pop\n        /* \"#utility.yul\":3992:4216   */\n      pop\n        /* \"#utility.yul\":3979:3980   */\n      0x01\n        /* \"#utility.yul\":3976:3977   */\n      dup2\n        /* \"#utility.yul\":3972:3981   */\n      add\n        /* \"#utility.yul\":3967:3981   */\n      swap1\n      pop\n        /* \"#utility.yul\":3932:4216   */\n      jump(tag_323)\n    tag_325:\n        /* \"#utility.yul\":3936:3950   */\n      pop\n        /* \"#utility.yul\":4232:4235   */\n      dup6\n        /* \"#utility.yul\":4225:4235   */\n      swap4\n      pop\n        /* \"#utility.yul\":3633:4241   */\n      pop\n      pop\n      pop\n        /* \"#utility.yul\":3509:4241   */\n      swap3\n      swap2\n      pop\n      pop\n      jump\t// out\n        /* \"#utility.yul\":4319:5291   */\n    tag_329:\n        /* \"#utility.yul\":4498:4501   */\n      0x00\n        /* \"#utility.yul\":4527:4611   */\n      tag_331\n        /* \"#utility.yul\":4605:4610   */\n      dup3\n        /* \"#utility.yul\":4527:4611   */\n      tag_332\n      jump\t// in\n    tag_331:\n        /* \"#utility.yul\":4627:4743   */\n      tag_333\n        /* \"#utility.yul\":4736:4742   */\n      dup2\n        /* \"#utility.yul\":4731:4734   */\n      dup6\n        /* \"#utility.yul\":4627:4743   */\n      tag_334\n      jump\t// in\n    tag_333:\n        /* \"#utility.yul\":4620:4743   */\n      swap4\n      pop\n        /* \"#utility.yul\":4767:4853   */\n      tag_335\n        /* \"#utility.yul\":4847:4852   */\n      dup4\n        /* \"#utility.yul\":4767:4853   */\n      tag_336\n      jump\t// in\n    tag_335:\n        /* \"#utility.yul\":4876:4883   */\n      dup1\n        /* \"#utility.yul\":4907:4908   */\n      0x00\n        /* \"#utility.yul\":4892:5266   */\n    tag_337:\n        /* \"#utility.yul\":4917:4923   */\n      dup4\n        /* \"#utility.yul\":4914:4915   */\n      dup2\n        /* \"#utility.yul\":4911:4924   */\n      lt\n        /* \"#utility.yul\":4892:5266   */\n      iszero\n      tag_339\n      jumpi\n        /* \"#utility.yul\":4993:4999   */\n      dup2\n        /* \"#utility.yul\":4987:5000   */\n      mload\n        /* \"#utility.yul\":5020:5143   */\n      tag_340\n        /* \"#utility.yul\":5139:5142   */\n      dup9\n        /* \"#utility.yul\":5124:5137   */\n      dup3\n        /* \"#utility.yul\":5020:5143   */\n      tag_301\n      jump\t// in\n    tag_340:\n        /* \"#utility.yul\":5013:5143   */\n      swap8\n      pop\n        /* \"#utility.yul\":5166:5256   */\n      tag_341\n        /* \"#utility.yul\":5249:5255   */\n      dup4\n        /* \"#utility.yul\":5166:5256   */\n      tag_342\n      jump\t// in\n    tag_341:\n        /* \"#utility.yul\":5156:5256   */\n      swap3\n      pop\n        /* \"#utility.yul\":4952:5266   */\n      pop\n        /* \"#utility.yul\":4939:4940   */\n      0x01\n        /* \"#utility.yul\":4936:4937   */\n      dup2\n        /* \"#utility.yul\":4932:4941   */\n      add\n        /* \"#utility.yul\":4927:4941   */\n      swap1\n      pop\n        /* \"#utility.yul\":4892:5266   */\n      jump(tag_337)\n    tag_339:\n        /* \"#utility.yul\":4896:4910   */\n      pop\n        /* \"#utility.yul\":5282:5285   */\n      dup6\n        /* \"#utility.yul\":5275:5285   */\n      swap4\n      pop\n        /* \"#utility.yul\":4503:5291   */\n      pop\n      pop\n      pop\n        /* \"#utility.yul\":4319:5291   */\n      swap3\n      swap2\n      pop\n      pop\n      jump\t// out\n        /* \"#utility.yul\":5327:6059   */\n    tag_343:\n        /* \"#utility.yul\":5446:5449   */\n      0x00\n        /* \"#utility.yul\":5475:5529   */\n      tag_345\n        /* \"#utility.yul\":5523:5528   */\n      dup3\n        /* \"#utility.yul\":5475:5529   */\n      tag_346\n      jump\t// in\n    tag_345:\n        /* \"#utility.yul\":5545:5631   */\n      tag_347\n        /* \"#utility.yul\":5624:5630   */\n      dup2\n        /* \"#utility.yul\":5619:5622   */\n      dup6\n        /* \"#utility.yul\":5545:5631   */\n      tag_348\n      jump\t// in\n    tag_347:\n        /* \"#utility.yul\":5538:5631   */\n      swap4\n      pop\n        /* \"#utility.yul\":5655:5711   */\n      tag_349\n        /* \"#utility.yul\":5705:5710   */\n      dup4\n        /* \"#utility.yul\":5655:5711   */\n      tag_350\n      jump\t// in\n    tag_349:\n        /* \"#utility.yul\":5734:5741   */\n      dup1\n        /* \"#utility.yul\":5765:5766   */\n      0x00\n        /* \"#utility.yul\":5750:6034   */\n    tag_351:\n        /* \"#utility.yul\":5775:5781   */\n      dup4\n        /* \"#utility.yul\":5772:5773   */\n      dup2\n        /* \"#utility.yul\":5769:5782   */\n      lt\n        /* \"#utility.yul\":5750:6034   */\n      iszero\n      tag_353\n      jumpi\n        /* \"#utility.yul\":5851:5857   */\n      dup2\n        /* \"#utility.yul\":5845:5858   */\n      mload\n        /* \"#utility.yul\":5878:5941   */\n      tag_354\n        /* \"#utility.yul\":5937:5940   */\n      dup9\n        /* \"#utility.yul\":5922:5935   */\n      dup3\n        /* \"#utility.yul\":5878:5941   */\n      tag_305\n      jump\t// in\n    tag_354:\n        /* \"#utility.yul\":5871:5941   */\n      swap8\n      pop\n        /* \"#utility.yul\":5964:6024   */\n      tag_355\n        /* \"#utility.yul\":6017:6023   */\n      dup4\n        /* \"#utility.yul\":5964:6024   */\n      tag_356\n      jump\t// in\n    tag_355:\n        /* \"#utility.yul\":5954:6024   */\n      swap3\n      pop\n        /* \"#utility.yul\":5810:6034   */\n      pop\n        /* \"#utility.yul\":5797:5798   */\n      0x01\n        /* \"#utility.yul\":5794:5795   */\n      dup2\n        /* \"#utility.yul\":5790:5799   */\n      add\n        /* \"#utility.yul\":5785:5799   */\n      swap1\n      pop\n        /* \"#utility.yul\":5750:6034   */\n      jump(tag_351)\n    tag_353:\n        /* \"#utility.yul\":5754:5768   */\n      pop\n        /* \"#utility.yul\":6050:6053   */\n      dup6\n        /* \"#utility.yul\":6043:6053   */\n      swap4\n      pop\n        /* \"#utility.yul\":5451:6059   */\n      pop\n      pop\n      pop\n        /* \"#utility.yul\":5327:6059   */\n      swap3\n      swap2\n      pop\n      pop\n      jump\t// out\n        /* \"#utility.yul\":6065:6174   */\n    tag_357:\n        /* \"#utility.yul\":6146:6167   */\n      tag_359\n        /* \"#utility.yul\":6161:6166   */\n      dup2\n        /* \"#utility.yul\":6146:6167   */\n      tag_360\n      jump\t// in\n    tag_359:\n        /* \"#utility.yul\":6141:6144   */\n      dup3\n        /* \"#utility.yul\":6134:6168   */\n      mstore\n        /* \"#utility.yul\":6065:6174   */\n      pop\n      pop\n      jump\t// out\n        /* \"#utility.yul\":6180:6546   */\n    tag_361:\n        /* \"#utility.yul\":6322:6325   */\n      0x00\n        /* \"#utility.yul\":6343:6410   */\n      tag_363\n        /* \"#utility.yul\":6407:6409   */\n      0x25\n        /* \"#utility.yul\":6402:6405   */\n      dup4\n        /* \"#utility.yul\":6343:6410   */\n      tag_364\n      jump\t// in\n    tag_363:\n        /* \"#utility.yul\":6336:6410   */\n      swap2\n      pop\n        /* \"#utility.yul\":6419:6512   */\n      tag_365\n        /* \"#utility.yul\":6508:6511   */\n      dup3\n        /* \"#utility.yul\":6419:6512   */\n      tag_366\n      jump\t// in\n    tag_365:\n        /* \"#utility.yul\":6537:6539   */\n      0x40\n        /* \"#utility.yul\":6532:6535   */\n      dup3\n        /* \"#utility.yul\":6528:6540   */\n      add\n        /* \"#utility.yul\":6521:6540   */\n      swap1\n      pop\n        /* \"#utility.yul\":6180:6546   */\n      swap2\n      swap1\n      pop\n      jump\t// out\n        /* \"#utility.yul\":6552:6918   */\n    tag_367:\n        /* \"#utility.yul\":6694:6697   */\n      0x00\n        /* \"#utility.yul\":6715:6782   */\n      tag_369\n        /* \"#utility.yul\":6779:6781   */\n      0x22\n        /* \"#utility.yul\":6774:6777   */\n      dup4\n        /* \"#utility.yul\":6715:6782   */\n      tag_364\n      jump\t// in\n    tag_369:\n        /* \"#utility.yul\":6708:6782   */\n      swap2\n      pop\n        /* \"#utility.yul\":6791:6884   */\n      tag_370\n        /* \"#utility.yul\":6880:6883   */\n      dup3\n        /* \"#utility.yul\":6791:6884   */\n      tag_371\n      jump\t// in\n    tag_370:\n        /* \"#utility.yul\":6909:6911   */\n      0x40\n        /* \"#utility.yul\":6904:6907   */\n      dup3\n        /* \"#utility.yul\":6900:6912   */\n      add\n        /* \"#utility.yul\":6893:6912   */\n      swap1\n      pop\n        /* \"#utility.yul\":6552:6918   */\n      swap2\n      swap1\n      pop\n      jump\t// out\n        /* \"#utility.yul\":6924:7290   */\n    tag_372:\n        /* \"#utility.yul\":7066:7069   */\n      0x00\n        /* \"#utility.yul\":7087:7154   */\n      tag_374\n        /* \"#utility.yul\":7151:7153   */\n      0x21\n        /* \"#utility.yul\":7146:7149   */\n      dup4\n        /* \"#utility.yul\":7087:7154   */\n      tag_364\n      jump\t// in\n    tag_374:\n        /* \"#utility.yul\":7080:7154   */\n      swap2\n      pop\n        /* \"#utility.yul\":7163:7256   */\n      tag_375\n        /* \"#utility.yul\":7252:7255   */\n      dup3\n        /* \"#utility.yul\":7163:7256   */\n      tag_376\n      jump\t// in\n    tag_375:\n        /* \"#utility.yul\":7281:7283   */\n      0x40\n        /* \"#utility.yul\":7276:7279   */\n      dup3\n        /* \"#utility.yul\":7272:7284   */\n      add\n        /* \"#utility.yul\":7265:7284   */\n      swap1\n      pop\n        /* \"#utility.yul\":6924:7290   */\n      swap2\n      swap1\n      pop\n      jump\t// out\n        /* \"#utility.yul\":7296:7662   */\n    tag_377:\n        /* \"#utility.yul\":7438:7441   */\n      0x00\n        /* \"#utility.yul\":7459:7526   */\n      tag_379\n        /* \"#utility.yul\":7523:7525   */\n      0x1f\n        /* \"#utility.yul\":7518:7521   */\n      dup4\n        /* \"#utility.yul\":7459:7526   */\n      tag_364\n      jump\t// in\n    tag_379:\n        /* \"#utility.yul\":7452:7526   */\n      swap2\n      pop\n        /* \"#utility.yul\":7535:7628   */\n      tag_380\n        /* \"#utility.yul\":7624:7627   */\n      dup3\n        /* \"#utility.yul\":7535:7628   */\n      tag_381\n      jump\t// in\n    tag_380:\n        /* \"#utility.yul\":7653:7655   */\n      0x20\n        /* \"#utility.yul\":7648:7651   */\n      dup3\n        /* \"#utility.yul\":7644:7656   */\n      add\n        /* \"#utility.yul\":7637:7656   */\n      swap1\n      pop\n        /* \"#utility.yul\":7296:7662   */\n      swap2\n      swap1\n      pop\n      jump\t// out\n        /* \"#utility.yul\":7736:8626   */\n    tag_304:\n        /* \"#utility.yul\":7883:7887   */\n      0x80\n        /* \"#utility.yul\":7878:7881   */\n      dup3\n        /* \"#utility.yul\":7874:7888   */\n      add\n        /* \"#utility.yul\":7980:7984   */\n      0x00\n        /* \"#utility.yul\":7973:7978   */\n      dup3\n        /* \"#utility.yul\":7969:7985   */\n      add\n        /* \"#utility.yul\":7963:7986   */\n      mload\n        /* \"#utility.yul\":7999:8062   */\n      tag_383\n        /* \"#utility.yul\":8056:8060   */\n      0x00\n        /* \"#utility.yul\":8051:8054   */\n      dup6\n        /* \"#utility.yul\":8047:8061   */\n      add\n        /* \"#utility.yul\":8033:8045   */\n      dup3\n        /* \"#utility.yul\":7999:8062   */\n      tag_308\n      jump\t// in\n    tag_383:\n        /* \"#utility.yul\":7898:8072   */\n      pop\n        /* \"#utility.yul\":8163:8167   */\n      0x20\n        /* \"#utility.yul\":8156:8161   */\n      dup3\n        /* \"#utility.yul\":8152:8168   */\n      add\n        /* \"#utility.yul\":8146:8169   */\n      mload\n        /* \"#utility.yul\":8182:8245   */\n      tag_384\n        /* \"#utility.yul\":8239:8243   */\n      0x20\n        /* \"#utility.yul\":8234:8237   */\n      dup6\n        /* \"#utility.yul\":8230:8244   */\n      add\n        /* \"#utility.yul\":8216:8228   */\n      dup3\n        /* \"#utility.yul\":8182:8245   */\n      tag_308\n      jump\t// in\n    tag_384:\n        /* \"#utility.yul\":8082:8255   */\n      pop\n        /* \"#utility.yul\":8344:8348   */\n      0x40\n        /* \"#utility.yul\":8337:8342   */\n      dup3\n        /* \"#utility.yul\":8333:8349   */\n      add\n        /* \"#utility.yul\":8327:8350   */\n      mload\n        /* \"#utility.yul\":8363:8426   */\n      tag_385\n        /* \"#utility.yul\":8420:8424   */\n      0x40\n        /* \"#utility.yul\":8415:8418   */\n      dup6\n        /* \"#utility.yul\":8411:8425   */\n      add\n        /* \"#utility.yul\":8397:8409   */\n      dup3\n        /* \"#utility.yul\":8363:8426   */\n      tag_308\n      jump\t// in\n    tag_385:\n        /* \"#utility.yul\":8265:8436   */\n      pop\n        /* \"#utility.yul\":8527:8531   */\n      0x60\n        /* \"#utility.yul\":8520:8525   */\n      dup3\n        /* \"#utility.yul\":8516:8532   */\n      add\n        /* \"#utility.yul\":8510:8533   */\n      mload\n        /* \"#utility.yul\":8546:8609   */\n      tag_386\n        /* \"#utility.yul\":8603:8607   */\n      0x60\n        /* \"#utility.yul\":8598:8601   */\n      dup6\n        /* \"#utility.yul\":8594:8608   */\n      add\n        /* \"#utility.yul\":8580:8592   */\n      dup3\n        /* \"#utility.yul\":8546:8609   */\n      tag_308\n      jump\t// in\n    tag_386:\n        /* \"#utility.yul\":8446:8619   */\n      pop\n        /* \"#utility.yul\":7852:8626   */\n      pop\n        /* \"#utility.yul\":7736:8626   */\n      pop\n      pop\n      jump\t// out\n        /* \"#utility.yul\":8632:8740   */\n    tag_308:\n        /* \"#utility.yul\":8709:8733   */\n      tag_388\n        /* \"#utility.yul\":8727:8732   */\n      dup2\n        /* \"#utility.yul\":8709:8733   */\n      tag_389\n      jump\t// in\n    tag_388:\n        /* \"#utility.yul\":8704:8707   */\n      dup3\n        /* \"#utility.yul\":8697:8734   */\n      mstore\n        /* \"#utility.yul\":8632:8740   */\n      pop\n      pop\n      jump\t// out\n        /* \"#utility.yul\":8746:8864   */\n    tag_390:\n        /* \"#utility.yul\":8833:8857   */\n      tag_392\n        /* \"#utility.yul\":8851:8856   */\n      dup2\n        /* \"#utility.yul\":8833:8857   */\n      tag_389\n      jump\t// in\n    tag_392:\n        /* \"#utility.yul\":8828:8831   */\n      dup3\n        /* \"#utility.yul\":8821:8858   */\n      mstore\n        /* \"#utility.yul\":8746:8864   */\n      pop\n      pop\n      jump\t// out\n        /* \"#utility.yul\":8870:9092   */\n    tag_66:\n        /* \"#utility.yul\":8963:8967   */\n      0x00\n        /* \"#utility.yul\":9001:9003   */\n      0x20\n        /* \"#utility.yul\":8990:8999   */\n      dup3\n        /* \"#utility.yul\":8986:9004   */\n      add\n        /* \"#utility.yul\":8978:9004   */\n      swap1\n      pop\n        /* \"#utility.yul\":9014:9085   */\n      tag_394\n        /* \"#utility.yul\":9082:9083   */\n      0x00\n        /* \"#utility.yul\":9071:9080   */\n      dup4\n        /* \"#utility.yul\":9067:9084   */\n      add\n        /* \"#utility.yul\":9058:9064   */\n      dup5\n        /* \"#utility.yul\":9014:9085   */\n      tag_312\n      jump\t// in\n    tag_394:\n        /* \"#utility.yul\":8870:9092   */\n      swap3\n      swap2\n      pop\n      pop\n      jump\t// out\n        /* \"#utility.yul\":9098:9430   */\n    tag_164:\n        /* \"#utility.yul\":9219:9223   */\n      0x00\n        /* \"#utility.yul\":9257:9259   */\n      0x40\n        /* \"#utility.yul\":9246:9255   */\n      dup3\n        /* \"#utility.yul\":9242:9260   */\n      add\n        /* \"#utility.yul\":9234:9260   */\n      swap1\n      pop\n        /* \"#utility.yul\":9270:9341   */\n      tag_396\n        /* \"#utility.yul\":9338:9339   */\n      0x00\n        /* \"#utility.yul\":9327:9336   */\n      dup4\n        /* \"#utility.yul\":9323:9340   */\n      add\n        /* \"#utility.yul\":9314:9320   */\n      dup6\n        /* \"#utility.yul\":9270:9341   */\n      tag_312\n      jump\t// in\n    tag_396:\n        /* \"#utility.yul\":9351:9423   */\n      tag_397\n        /* \"#utility.yul\":9419:9421   */\n      0x20\n        /* \"#utility.yul\":9408:9417   */\n      dup4\n        /* \"#utility.yul\":9404:9422   */\n      add\n        /* \"#utility.yul\":9395:9401   */\n      dup5\n        /* \"#utility.yul\":9351:9423   */\n      tag_390\n      jump\t// in\n    tag_397:\n        /* \"#utility.yul\":9098:9430   */\n      swap4\n      swap3\n      pop\n      pop\n      pop\n      jump\t// out\n        /* \"#utility.yul\":9436:10199   */\n    tag_86:\n        /* \"#utility.yul\":9663:9667   */\n      0x00\n        /* \"#utility.yul\":9701:9704   */\n      0xc0\n        /* \"#utility.yul\":9690:9699   */\n      dup3\n        /* \"#utility.yul\":9686:9705   */\n      add\n        /* \"#utility.yul\":9678:9705   */\n      swap1\n      pop\n        /* \"#utility.yul\":9715:9786   */\n      tag_399\n        /* \"#utility.yul\":9783:9784   */\n      0x00\n        /* \"#utility.yul\":9772:9781   */\n      dup4\n        /* \"#utility.yul\":9768:9785   */\n      add\n        /* \"#utility.yul\":9759:9765   */\n      dup10\n        /* \"#utility.yul\":9715:9786   */\n      tag_312\n      jump\t// in\n    tag_399:\n        /* \"#utility.yul\":9796:9868   */\n      tag_400\n        /* \"#utility.yul\":9864:9866   */\n      0x20\n        /* \"#utility.yul\":9853:9862   */\n      dup4\n        /* \"#utility.yul\":9849:9867   */\n      add\n        /* \"#utility.yul\":9840:9846   */\n      dup9\n        /* \"#utility.yul\":9796:9868   */\n      tag_390\n      jump\t// in\n    tag_400:\n        /* \"#utility.yul\":9878:9950   */\n      tag_401\n        /* \"#utility.yul\":9946:9948   */\n      0x40\n        /* \"#utility.yul\":9935:9944   */\n      dup4\n        /* \"#utility.yul\":9931:9949   */\n      add\n        /* \"#utility.yul\":9922:9928   */\n      dup8\n        /* \"#utility.yul\":9878:9950   */\n      tag_390\n      jump\t// in\n    tag_401:\n        /* \"#utility.yul\":9960:10032   */\n      tag_402\n        /* \"#utility.yul\":10028:10030   */\n      0x60\n        /* \"#utility.yul\":10017:10026   */\n      dup4\n        /* \"#utility.yul\":10013:10031   */\n      add\n        /* \"#utility.yul\":10004:10010   */\n      dup7\n        /* \"#utility.yul\":9960:10032   */\n      tag_390\n      jump\t// in\n    tag_402:\n        /* \"#utility.yul\":10042:10115   */\n      tag_403\n        /* \"#utility.yul\":10110:10113   */\n      0x80\n        /* \"#utility.yul\":10099:10108   */\n      dup4\n        /* \"#utility.yul\":10095:10114   */\n      add\n        /* \"#utility.yul\":10086:10092   */\n      dup6\n        /* \"#utility.yul\":10042:10115   */\n      tag_390\n      jump\t// in\n    tag_403:\n        /* \"#utility.yul\":10125:10192   */\n      tag_404\n        /* \"#utility.yul\":10187:10190   */\n      0xa0\n        /* \"#utility.yul\":10176:10185   */\n      dup4\n        /* \"#utility.yul\":10172:10191   */\n      add\n        /* \"#utility.yul\":10163:10169   */\n      dup5\n        /* \"#utility.yul\":10125:10192   */\n      tag_357\n      jump\t// in\n    tag_404:\n        /* \"#utility.yul\":9436:10199   */\n      swap8\n      swap7\n      pop\n      pop\n      pop\n      pop\n      pop\n      pop\n      pop\n      jump\t// out\n        /* \"#utility.yul\":10205:10578   */\n    tag_28:\n        /* \"#utility.yul\":10348:10352   */\n      0x00\n        /* \"#utility.yul\":10386:10388   */\n      0x20\n        /* \"#utility.yul\":10375:10384   */\n      dup3\n        /* \"#utility.yul\":10371:10389   */\n      add\n        /* \"#utility.yul\":10363:10389   */\n      swap1\n      pop\n        /* \"#utility.yul\":10435:10444   */\n      dup2\n        /* \"#utility.yul\":10429:10433   */\n      dup2\n        /* \"#utility.yul\":10425:10445   */\n      sub\n        /* \"#utility.yul\":10421:10422   */\n      0x00\n        /* \"#utility.yul\":10410:10419   */\n      dup4\n        /* \"#utility.yul\":10406:10423   */\n      add\n        /* \"#utility.yul\":10399:10446   */\n      mstore\n        /* \"#utility.yul\":10463:10571   */\n      tag_406\n        /* \"#utility.yul\":10566:10570   */\n      dup2\n        /* \"#utility.yul\":10557:10563   */\n      dup5\n        /* \"#utility.yul\":10463:10571   */\n      tag_315\n      jump\t// in\n    tag_406:\n        /* \"#utility.yul\":10455:10571   */\n      swap1\n      pop\n        /* \"#utility.yul\":10205:10578   */\n      swap3\n      swap2\n      pop\n      pop\n      jump\t// out\n        /* \"#utility.yul\":10584:11077   */\n    tag_52:\n        /* \"#utility.yul\":10787:10791   */\n      0x00\n        /* \"#utility.yul\":10825:10827   */\n      0x20\n        /* \"#utility.yul\":10814:10823   */\n      dup3\n        /* \"#utility.yul\":10810:10828   */\n      add\n        /* \"#utility.yul\":10802:10828   */\n      swap1\n      pop\n        /* \"#utility.yul\":10874:10883   */\n      dup2\n        /* \"#utility.yul\":10868:10872   */\n      dup2\n        /* \"#utility.yul\":10864:10884   */\n      sub\n        /* \"#utility.yul\":10860:10861   */\n      0x00\n        /* \"#utility.yul\":10849:10858   */\n      dup4\n        /* \"#utility.yul\":10845:10862   */\n      add\n        /* \"#utility.yul\":10838:10885   */\n      mstore\n        /* \"#utility.yul\":10902:11070   */\n      tag_408\n        /* \"#utility.yul\":11065:11069   */\n      dup2\n        /* \"#utility.yul\":11056:11062   */\n      dup5\n        /* \"#utility.yul\":10902:11070   */\n      tag_329\n      jump\t// in\n    tag_408:\n        /* \"#utility.yul\":10894:11070   */\n      swap1\n      pop\n        /* \"#utility.yul\":10584:11077   */\n      swap3\n      swap2\n      pop\n      pop\n      jump\t// out\n        /* \"#utility.yul\":11083:11456   */\n    tag_73:\n        /* \"#utility.yul\":11226:11230   */\n      0x00\n        /* \"#utility.yul\":11264:11266   */\n      0x20\n        /* \"#utility.yul\":11253:11262   */\n      dup3\n        /* \"#utility.yul\":11249:11267   */\n      add\n        /* \"#utility.yul\":11241:11267   */\n      swap1\n      pop\n        /* \"#utility.yul\":11313:11322   */\n      dup2\n        /* \"#utility.yul\":11307:11311   */\n      dup2\n        /* \"#utility.yul\":11303:11323   */\n      sub\n        /* \"#utility.yul\":11299:11300   */\n      0x00\n        /* \"#utility.yul\":11288:11297   */\n      dup4\n        /* \"#utility.yul\":11284:11301   */\n      add\n        /* \"#utility.yul\":11277:11324   */\n      mstore\n        /* \"#utility.yul\":11341:11449   */\n      tag_410\n        /* \"#utility.yul\":11444:11448   */\n      dup2\n        /* \"#utility.yul\":11435:11441   */\n      dup5\n        /* \"#utility.yul\":11341:11449   */\n      tag_343\n      jump\t// in\n    tag_410:\n        /* \"#utility.yul\":11333:11449   */\n      swap1\n      pop\n        /* \"#utility.yul\":11083:11456   */\n      swap3\n      swap2\n      pop\n      pop\n      jump\t// out\n        /* \"#utility.yul\":11462:11672   */\n    tag_45:\n        /* \"#utility.yul\":11549:11553   */\n      0x00\n        /* \"#utility.yul\":11587:11589   */\n      0x20\n        /* \"#utility.yul\":11576:11585   */\n      dup3\n        /* \"#utility.yul\":11572:11590   */\n      add\n        /* \"#utility.yul\":11564:11590   */\n      swap1\n      pop\n        /* \"#utility.yul\":11600:11665   */\n      tag_412\n        /* \"#utility.yul\":11662:11663   */\n      0x00\n        /* \"#utility.yul\":11651:11660   */\n      dup4\n        /* \"#utility.yul\":11647:11664   */\n      add\n        /* \"#utility.yul\":11638:11644   */\n      dup5\n        /* \"#utility.yul\":11600:11665   */\n      tag_357\n      jump\t// in\n    tag_412:\n        /* \"#utility.yul\":11462:11672   */\n      swap3\n      swap2\n      pop\n      pop\n      jump\t// out\n        /* \"#utility.yul\":11678:12097   */\n    tag_160:\n        /* \"#utility.yul\":11844:11848   */\n      0x00\n        /* \"#utility.yul\":11882:11884   */\n      0x20\n        /* \"#utility.yul\":11871:11880   */\n      dup3\n        /* \"#utility.yul\":11867:11885   */\n      add\n        /* \"#utility.yul\":11859:11885   */\n      swap1\n      pop\n        /* \"#utility.yul\":11931:11940   */\n      dup2\n        /* \"#utility.yul\":11925:11929   */\n      dup2\n        /* \"#utility.yul\":11921:11941   */\n      sub\n        /* \"#utility.yul\":11917:11918   */\n      0x00\n        /* \"#utility.yul\":11906:11915   */\n      dup4\n        /* \"#utility.yul\":11902:11919   */\n      add\n        /* \"#utility.yul\":11895:11942   */\n      mstore\n        /* \"#utility.yul\":11959:12090   */\n      tag_414\n        /* \"#utility.yul\":12085:12089   */\n      dup2\n        /* \"#utility.yul\":11959:12090   */\n      tag_361\n      jump\t// in\n    tag_414:\n        /* \"#utility.yul\":11951:12090   */\n      swap1\n      pop\n        /* \"#utility.yul\":11678:12097   */\n      swap2\n      swap1\n      pop\n      jump\t// out\n        /* \"#utility.yul\":12103:12522   */\n    tag_195:\n        /* \"#utility.yul\":12269:12273   */\n      0x00\n        /* \"#utility.yul\":12307:12309   */\n      0x20\n        /* \"#utility.yul\":12296:12305   */\n      dup3\n        /* \"#utility.yul\":12292:12310   */\n      add\n        /* \"#utility.yul\":12284:12310   */\n      swap1\n      pop\n        /* \"#utility.yul\":12356:12365   */\n      dup2\n        /* \"#utility.yul\":12350:12354   */\n      dup2\n        /* \"#utility.yul\":12346:12366   */\n      sub\n        /* \"#utility.yul\":12342:12343   */\n      0x00\n        /* \"#utility.yul\":12331:12340   */\n      dup4\n        /* \"#utility.yul\":12327:12344   */\n      add\n        /* \"#utility.yul\":12320:12367   */\n      mstore\n        /* \"#utility.yul\":12384:12515   */\n      tag_416\n        /* \"#utility.yul\":12510:12514   */\n      dup2\n        /* \"#utility.yul\":12384:12515   */\n      tag_367\n      jump\t// in\n    tag_416:\n        /* \"#utility.yul\":12376:12515   */\n      swap1\n      pop\n        /* \"#utility.yul\":12103:12522   */\n      swap2\n      swap1\n      pop\n      jump\t// out\n        /* \"#utility.yul\":12528:12947   */\n    tag_205:\n        /* \"#utility.yul\":12694:12698   */\n      0x00\n        /* \"#utility.yul\":12732:12734   */\n      0x20\n        /* \"#utility.yul\":12721:12730   */\n      dup3\n        /* \"#utility.yul\":12717:12735   */\n      add\n        /* \"#utility.yul\":12709:12735   */\n      swap1\n      pop\n        /* \"#utility.yul\":12781:12790   */\n      dup2\n        /* \"#utility.yul\":12775:12779   */\n      dup2\n        /* \"#utility.yul\":12771:12791   */\n      sub\n        /* \"#utility.yul\":12767:12768   */\n      0x00\n        /* \"#utility.yul\":12756:12765   */\n      dup4\n        /* \"#utility.yul\":12752:12769   */\n      add\n        /* \"#utility.yul\":12745:12792   */\n      mstore\n        /* \"#utility.yul\":12809:12940   */\n      tag_418\n        /* \"#utility.yul\":12935:12939   */\n      dup2\n        /* \"#utility.yul\":12809:12940   */\n      tag_372\n      jump\t// in\n    tag_418:\n        /* \"#utility.yul\":12801:12940   */\n      swap1\n      pop\n        /* \"#utility.yul\":12528:12947   */\n      swap2\n      swap1\n      pop\n      jump\t// out\n        /* \"#utility.yul\":12953:13372   */\n    tag_104:\n        /* \"#utility.yul\":13119:13123   */\n      0x00\n        /* \"#utility.yul\":13157:13159   */\n      0x20\n        /* \"#utility.yul\":13146:13155   */\n      dup3\n        /* \"#utility.yul\":13142:13160   */\n      add\n        /* \"#utility.yul\":13134:13160   */\n      swap1\n      pop\n        /* \"#utility.yul\":13206:13215   */\n      dup2\n        /* \"#utility.yul\":13200:13204   */\n      dup2\n        /* \"#utility.yul\":13196:13216   */\n      sub\n        /* \"#utility.yul\":13192:13193   */\n      0x00\n        /* \"#utility.yul\":13181:13190   */\n      dup4\n        /* \"#utility.yul\":13177:13194   */\n      add\n        /* \"#utility.yul\":13170:13217   */\n      mstore\n        /* \"#utility.yul\":13234:13365   */\n      tag_420\n        /* \"#utility.yul\":13360:13364   */\n      dup2\n        /* \"#utility.yul\":13234:13365   */\n      tag_377\n      jump\t// in\n    tag_420:\n        /* \"#utility.yul\":13226:13365   */\n      swap1\n      pop\n        /* \"#utility.yul\":12953:13372   */\n      swap2\n      swap1\n      pop\n      jump\t// out\n        /* \"#utility.yul\":13378:13600   */\n    tag_32:\n        /* \"#utility.yul\":13471:13475   */\n      0x00\n        /* \"#utility.yul\":13509:13511   */\n      0x20\n        /* \"#utility.yul\":13498:13507   */\n      dup3\n        /* \"#utility.yul\":13494:13512   */\n      add\n        /* \"#utility.yul\":13486:13512   */\n      swap1\n      pop\n        /* \"#utility.yul\":13522:13593   */\n      tag_422\n        /* \"#utility.yul\":13590:13591   */\n      0x00\n        /* \"#utility.yul\":13579:13588   */\n      dup4\n        /* \"#utility.yul\":13575:13592   */\n      add\n        /* \"#utility.yul\":13566:13572   */\n      dup5\n        /* \"#utility.yul\":13522:13593   */\n      tag_390\n      jump\t// in\n    tag_422:\n        /* \"#utility.yul\":13378:13600   */\n      swap3\n      swap2\n      pop\n      pop\n      jump\t// out\n        /* \"#utility.yul\":13687:13819   */\n    tag_322:\n        /* \"#utility.yul\":13754:13758   */\n      0x00\n        /* \"#utility.yul\":13777:13780   */\n      dup2\n        /* \"#utility.yul\":13769:13780   */\n      swap1\n      pop\n        /* \"#utility.yul\":13807:13811   */\n      0x20\n        /* \"#utility.yul\":13802:13805   */\n      dup3\n        /* \"#utility.yul\":13798:13812   */\n      add\n        /* \"#utility.yul\":13790:13812   */\n      swap1\n      pop\n        /* \"#utility.yul\":13687:13819   */\n      swap2\n      swap1\n      pop\n      jump\t// out\n        /* \"#utility.yul\":13825:13987   */\n    tag_336:\n        /* \"#utility.yul\":13922:13926   */\n      0x00\n        /* \"#utility.yul\":13945:13948   */\n      dup2\n        /* \"#utility.yul\":13937:13948   */\n      swap1\n      pop\n        /* \"#utility.yul\":13975:13979   */\n      0x20\n        /* \"#utility.yul\":13970:13973   */\n      dup3\n        /* \"#utility.yul\":13966:13980   */\n      add\n        /* \"#utility.yul\":13958:13980   */\n      swap1\n      pop\n        /* \"#utility.yul\":13825:13987   */\n      swap2\n      swap1\n      pop\n      jump\t// out\n        /* \"#utility.yul\":13993:14125   */\n    tag_350:\n        /* \"#utility.yul\":14060:14064   */\n      0x00\n        /* \"#utility.yul\":14083:14086   */\n      dup2\n        /* \"#utility.yul\":14075:14086   */\n      swap1\n      pop\n        /* \"#utility.yul\":14113:14117   */\n      0x20\n        /* \"#utility.yul\":14108:14111   */\n      dup3\n        /* \"#utility.yul\":14104:14118   */\n      add\n        /* \"#utility.yul\":14096:14118   */\n      swap1\n      pop\n        /* \"#utility.yul\":13993:14125   */\n      swap2\n      swap1\n      pop\n      jump\t// out\n        /* \"#utility.yul\":14131:14245   */\n    tag_318:\n        /* \"#utility.yul\":14198:14204   */\n      0x00\n        /* \"#utility.yul\":14232:14237   */\n      dup2\n        /* \"#utility.yul\":14226:14238   */\n      mload\n        /* \"#utility.yul\":14216:14238   */\n      swap1\n      pop\n        /* \"#utility.yul\":14131:14245   */\n      swap2\n      swap1\n      pop\n      jump\t// out\n        /* \"#utility.yul\":14251:14395   */\n    tag_332:\n        /* \"#utility.yul\":14348:14354   */\n      0x00\n        /* \"#utility.yul\":14382:14387   */\n      dup2\n        /* \"#utility.yul\":14376:14388   */\n      mload\n        /* \"#utility.yul\":14366:14388   */\n      swap1\n      pop\n        /* \"#utility.yul\":14251:14395   */\n      swap2\n      swap1\n      pop\n      jump\t// out\n        /* \"#utility.yul\":14401:14515   */\n    tag_346:\n        /* \"#utility.yul\":14468:14474   */\n      0x00\n        /* \"#utility.yul\":14502:14507   */\n      dup2\n        /* \"#utility.yul\":14496:14508   */\n      mload\n        /* \"#utility.yul\":14486:14508   */\n      swap1\n      pop\n        /* \"#utility.yul\":14401:14515   */\n      swap2\n      swap1\n      pop\n      jump\t// out\n        /* \"#utility.yul\":14521:14634   */\n    tag_328:\n        /* \"#utility.yul\":14591:14595   */\n      0x00\n        /* \"#utility.yul\":14623:14627   */\n      0x20\n        /* \"#utility.yul\":14618:14621   */\n      dup3\n        /* \"#utility.yul\":14614:14628   */\n      add\n        /* \"#utility.yul\":14606:14628   */\n      swap1\n      pop\n        /* \"#utility.yul\":14521:14634   */\n      swap2\n      swap1\n      pop\n      jump\t// out\n        /* \"#utility.yul\":14640:14783   */\n    tag_342:\n        /* \"#utility.yul\":14740:14744   */\n      0x00\n        /* \"#utility.yul\":14772:14776   */\n      0x20\n        /* \"#utility.yul\":14767:14770   */\n      dup3\n        /* \"#utility.yul\":14763:14777   */\n      add\n        /* \"#utility.yul\":14755:14777   */\n      swap1\n      pop\n        /* \"#utility.yul\":14640:14783   */\n      swap2\n      swap1\n      pop\n      jump\t// out\n        /* \"#utility.yul\":14789:14902   */\n    tag_356:\n        /* \"#utility.yul\":14859:14863   */\n      0x00\n        /* \"#utility.yul\":14891:14895   */\n      0x20\n        /* \"#utility.yul\":14886:14889   */\n      dup3\n        /* \"#utility.yul\":14882:14896   */\n      add\n        /* \"#utility.yul\":14874:14896   */\n      swap1\n      pop\n        /* \"#utility.yul\":14789:14902   */\n      swap2\n      swap1\n      pop\n      jump\t// out\n        /* \"#utility.yul\":14908:15092   */\n    tag_320:\n        /* \"#utility.yul\":15007:15018   */\n      0x00\n        /* \"#utility.yul\":15041:15047   */\n      dup3\n        /* \"#utility.yul\":15036:15039   */\n      dup3\n        /* \"#utility.yul\":15029:15048   */\n      mstore\n        /* \"#utility.yul\":15081:15085   */\n      0x20\n        /* \"#utility.yul\":15076:15079   */\n      dup3\n        /* \"#utility.yul\":15072:15086   */\n      add\n        /* \"#utility.yul\":15057:15086   */\n      swap1\n      pop\n        /* \"#utility.yul\":14908:15092   */\n      swap3\n      swap2\n      pop\n      pop\n      jump\t// out\n        /* \"#utility.yul\":15098:15312   */\n    tag_334:\n        /* \"#utility.yul\":15227:15238   */\n      0x00\n        /* \"#utility.yul\":15261:15267   */\n      dup3\n        /* \"#utility.yul\":15256:15259   */\n      dup3\n        /* \"#utility.yul\":15249:15268   */\n      mstore\n        /* \"#utility.yul\":15301:15305   */\n      0x20\n        /* \"#utility.yul\":15296:15299   */\n      dup3\n        /* \"#utility.yul\":15292:15306   */\n      add\n        /* \"#utility.yul\":15277:15306   */\n      swap1\n      pop\n        /* \"#utility.yul\":15098:15312   */\n      swap3\n      swap2\n      pop\n      pop\n      jump\t// out\n        /* \"#utility.yul\":15318:15502   */\n    tag_348:\n        /* \"#utility.yul\":15417:15428   */\n      0x00\n        /* \"#utility.yul\":15451:15457   */\n      dup3\n        /* \"#utility.yul\":15446:15449   */\n      dup3\n        /* \"#utility.yul\":15439:15458   */\n      mstore\n        /* \"#utility.yul\":15491:15495   */\n      0x20\n        /* \"#utility.yul\":15486:15489   */\n      dup3\n        /* \"#utility.yul\":15482:15496   */\n      add\n        /* \"#utility.yul\":15467:15496   */\n      swap1\n      pop\n        /* \"#utility.yul\":15318:15502   */\n      swap3\n      swap2\n      pop\n      pop\n      jump\t// out\n        /* \"#utility.yul\":15508:15677   */\n    tag_364:\n        /* \"#utility.yul\":15592:15603   */\n      0x00\n        /* \"#utility.yul\":15626:15632   */\n      dup3\n        /* \"#utility.yul\":15621:15624   */\n      dup3\n        /* \"#utility.yul\":15614:15633   */\n      mstore\n        /* \"#utility.yul\":15666:15670   */\n      0x20\n        /* \"#utility.yul\":15661:15664   */\n      dup3\n        /* \"#utility.yul\":15657:15671   */\n      add\n        /* \"#utility.yul\":15642:15671   */\n      swap1\n      pop\n        /* \"#utility.yul\":15508:15677   */\n      swap3\n      swap2\n      pop\n      pop\n      jump\t// out\n        /* \"#utility.yul\":15683:15988   */\n    tag_109:\n        /* \"#utility.yul\":15723:15726   */\n      0x00\n        /* \"#utility.yul\":15742:15762   */\n      tag_439\n        /* \"#utility.yul\":15760:15761   */\n      dup3\n        /* \"#utility.yul\":15742:15762   */\n      tag_389\n      jump\t// in\n    tag_439:\n        /* \"#utility.yul\":15737:15762   */\n      swap2\n      pop\n        /* \"#utility.yul\":15776:15796   */\n      tag_440\n        /* \"#utility.yul\":15794:15795   */\n      dup4\n        /* \"#utility.yul\":15776:15796   */\n      tag_389\n      jump\t// in\n    tag_440:\n        /* \"#utility.yul\":15771:15796   */\n      swap3\n      pop\n        /* \"#utility.yul\":15930:15931   */\n      dup3\n        /* \"#utility.yul\":15862:15928   */\n      0xffffffffffffffffffffffffffffffffffffffffffffffffffffffffffffffff\n        /* \"#utility.yul\":15858:15932   */\n      sub\n        /* \"#utility.yul\":15855:15856   */\n      dup3\n        /* \"#utility.yul\":15852:15933   */\n      gt\n        /* \"#utility.yul\":15849:15956   */\n      iszero\n      tag_441\n      jumpi\n        /* \"#utility.yul\":15936:15954   */\n      tag_442\n      tag_443\n      jump\t// in\n    tag_442:\n        /* \"#utility.yul\":15849:15956   */\n    tag_441:\n        /* \"#utility.yul\":15980:15981   */\n      dup3\n        /* \"#utility.yul\":15977:15978   */\n      dup3\n        /* \"#utility.yul\":15973:15982   */\n      add\n        /* \"#utility.yul\":15966:15982   */\n      swap1\n      pop\n        /* \"#utility.yul\":15683:15988   */\n      swap3\n      swap2\n      pop\n      pop\n      jump\t// out\n        /* \"#utility.yul\":15994:16179   */\n    tag_150:\n        /* \"#utility.yul\":16034:16035   */\n      0x00\n        /* \"#utility.yul\":16051:16071   */\n      tag_445\n        /* \"#utility.yul\":16069:16070   */\n      dup3\n        /* \"#utility.yul\":16051:16071   */\n      tag_389\n      jump\t// in\n    tag_445:\n        /* \"#utility.yul\":16046:16071   */\n      swap2\n      pop\n        /* \"#utility.yul\":16085:16105   */\n      tag_446\n        /* \"#utility.yul\":16103:16104   */\n      dup4\n        /* \"#utility.yul\":16085:16105   */\n      tag_389\n      jump\t// in\n    tag_446:\n        /* \"#utility.yul\":16080:16105   */\n      swap3\n      pop\n        /* \"#utility.yul\":16124:16125   */\n      dup3\n        /* \"#utility.yul\":16114:16149   */\n      tag_447\n      jumpi\n        /* \"#utility.yul\":16129:16147   */\n      tag_448\n      tag_449\n      jump\t// in\n    tag_448:\n        /* \"#utility.yul\":16114:16149   */\n    tag_447:\n        /* \"#utility.yul\":16171:16172   */\n      dup3\n        /* \"#utility.yul\":16168:16169   */\n      dup3\n        /* \"#utility.yul\":16164:16173   */\n      div\n        /* \"#utility.yul\":16159:16173   */\n      swap1\n      pop\n        /* \"#utility.yul\":15994:16179   */\n      swap3\n      swap2\n      pop\n      pop\n      jump\t// out\n        /* \"#utility.yul\":16185:16533   */\n    tag_153:\n        /* \"#utility.yul\":16225:16232   */\n      0x00\n        /* \"#utility.yul\":16248:16268   */\n      tag_451\n        /* \"#utility.yul\":16266:16267   */\n      dup3\n        /* \"#utility.yul\":16248:16268   */\n      tag_389\n      jump\t// in\n    tag_451:\n        /* \"#utility.yul\":16243:16268   */\n      swap2\n      pop\n        /* \"#utility.yul\":16282:16302   */\n      tag_452\n        /* \"#utility.yul\":16300:16301   */\n      dup4\n        /* \"#utility.yul\":16282:16302   */\n      tag_389\n      jump\t// in\n    tag_452:\n        /* \"#utility.yul\":16277:16302   */\n      swap3\n      pop\n        /* \"#utility.yul\":16470:16471   */\n      dup2\n        /* \"#utility.yul\":16402:16468   */\n      0xffffffffffffffffffffffffffffffffffffffffffffffffffffffffffffffff\n        /* \"#utility.yul\":16398:16472   */\n      div\n        /* \"#utility.yul\":16395:16396   */\n      dup4\n        /* \"#utility.yul\":16392:16473   */\n      gt\n        /* \"#utility.yul\":16387:16388   */\n      dup3\n        /* \"#utility.yul\":16380:16389   */\n      iszero\n        /* \"#utility.yul\":16373:16390   */\n      iszero\n        /* \"#utility.yul\":16369:16474   */\n      and\n        /* \"#utility.yul\":16366:16497   */\n      iszero\n      tag_453\n      jumpi\n        /* \"#utility.yul\":16477:16495   */\n      tag_454\n      tag_443\n      jump\t// in\n    tag_454:\n        /* \"#utility.yul\":16366:16497   */\n    tag_453:\n        /* \"#utility.yul\":16525:16526   */\n      dup3\n        /* \"#utility.yul\":16522:16523   */\n      dup3\n        /* \"#utility.yul\":16518:16527   */\n      mul\n        /* \"#utility.yul\":16507:16527   */\n      swap1\n      pop\n        /* \"#utility.yul\":16185:16533   */\n      swap3\n      swap2\n      pop\n      pop\n      jump\t// out\n        /* \"#utility.yul\":16539:16730   */\n    tag_148:\n        /* \"#utility.yul\":16579:16583   */\n      0x00\n        /* \"#utility.yul\":16599:16619   */\n      tag_456\n        /* \"#utility.yul\":16617:16618   */\n      dup3\n        /* \"#utility.yul\":16599:16619   */\n      tag_389\n      jump\t// in\n    tag_456:\n        /* \"#utility.yul\":16594:16619   */\n      swap2\n      pop\n        /* \"#utility.yul\":16633:16653   */\n      tag_457\n        /* \"#utility.yul\":16651:16652   */\n      dup4\n        /* \"#utility.yul\":16633:16653   */\n      tag_389\n      jump\t// in\n    tag_457:\n        /* \"#utility.yul\":16628:16653   */\n      swap3\n      pop\n        /* \"#utility.yul\":16672:16673   */\n      dup3\n        /* \"#utility.yul\":16669:16670   */\n      dup3\n        /* \"#utility.yul\":16666:16674   */\n      lt\n        /* \"#utility.yul\":16663:16697   */\n      iszero\n      tag_458\n      jumpi\n        /* \"#utility.yul\":16677:16695   */\n      tag_459\n      tag_443\n      jump\t// in\n    tag_459:\n        /* \"#utility.yul\":16663:16697   */\n    tag_458:\n        /* \"#utility.yul\":16722:16723   */\n      dup3\n        /* \"#utility.yul\":16719:16720   */\n      dup3\n        /* \"#utility.yul\":16715:16724   */\n      sub\n        /* \"#utility.yul\":16707:16724   */\n      swap1\n      pop\n        /* \"#utility.yul\":16539:16730   */\n      swap3\n      swap2\n      pop\n      pop\n      jump\t// out\n        /* \"#utility.yul\":16736:16832   */\n    tag_311:\n        /* \"#utility.yul\":16773:16780   */\n      0x00\n        /* \"#utility.yul\":16802:16826   */\n      tag_461\n        /* \"#utility.yul\":16820:16825   */\n      dup3\n        /* \"#utility.yul\":16802:16826   */\n      tag_462\n      jump\t// in\n    tag_461:\n        /* \"#utility.yul\":16791:16826   */\n      swap1\n      pop\n        /* \"#utility.yul\":16736:16832   */\n      swap2\n      swap1\n      pop\n      jump\t// out\n        /* \"#utility.yul\":16838:16928   */\n    tag_360:\n        /* \"#utility.yul\":16872:16879   */\n      0x00\n        /* \"#utility.yul\":16915:16920   */\n      dup2\n        /* \"#utility.yul\":16908:16921   */\n      iszero\n        /* \"#utility.yul\":16901:16922   */\n      iszero\n        /* \"#utility.yul\":16890:16922   */\n      swap1\n      pop\n        /* \"#utility.yul\":16838:16928   */\n      swap2\n      swap1\n      pop\n      jump\t// out\n        /* \"#utility.yul\":16934:17060   */\n    tag_462:\n        /* \"#utility.yul\":16971:16978   */\n      0x00\n        /* \"#utility.yul\":17011:17053   */\n      0xffffffffffffffffffffffffffffffffffffffff\n        /* \"#utility.yul\":17004:17009   */\n      dup3\n        /* \"#utility.yul\":17000:17054   */\n      and\n        /* \"#utility.yul\":16989:17054   */\n      swap1\n      pop\n        /* \"#utility.yul\":16934:17060   */\n      swap2\n      swap1\n      pop\n      jump\t// out\n        /* \"#utility.yul\":17066:17143   */\n    tag_389:\n        /* \"#utility.yul\":17103:17110   */\n      0x00\n        /* \"#utility.yul\":17132:17137   */\n      dup2\n        /* \"#utility.yul\":17121:17137   */\n      swap1\n      pop\n        /* \"#utility.yul\":17066:17143   */\n      swap2\n      swap1\n      pop\n      jump\t// out\n        /* \"#utility.yul\":17149:17382   */\n    tag_107:\n        /* \"#utility.yul\":17188:17191   */\n      0x00\n        /* \"#utility.yul\":17211:17235   */\n      tag_467\n        /* \"#utility.yul\":17229:17234   */\n      dup3\n        /* \"#utility.yul\":17211:17235   */\n      tag_389\n      jump\t// in\n    tag_467:\n        /* \"#utility.yul\":17202:17235   */\n      swap2\n      pop\n        /* \"#utility.yul\":17257:17323   */\n      0xffffffffffffffffffffffffffffffffffffffffffffffffffffffffffffffff\n        /* \"#utility.yul\":17250:17255   */\n      dup3\n        /* \"#utility.yul\":17247:17324   */\n      eq\n        /* \"#utility.yul\":17244:17347   */\n      iszero\n      tag_468\n      jumpi\n        /* \"#utility.yul\":17327:17345   */\n      tag_469\n      tag_443\n      jump\t// in\n    tag_469:\n        /* \"#utility.yul\":17244:17347   */\n    tag_468:\n        /* \"#utility.yul\":17374:17375   */\n      0x01\n        /* \"#utility.yul\":17367:17372   */\n      dup3\n        /* \"#utility.yul\":17363:17376   */\n      add\n        /* \"#utility.yul\":17356:17376   */\n      swap1\n      pop\n        /* \"#utility.yul\":17149:17382   */\n      swap2\n      swap1\n      pop\n      jump\t// out\n        /* \"#utility.yul\":17388:17568   */\n    tag_443:\n        /* \"#utility.yul\":17436:17513   */\n      0x4e487b7100000000000000000000000000000000000000000000000000000000\n        /* \"#utility.yul\":17433:17434   */\n      0x00\n        /* \"#utility.yul\":17426:17514   */\n      mstore\n        /* \"#utility.yul\":17533:17537   */\n      0x11\n        /* \"#utility.yul\":17530:17531   */\n      0x04\n        /* \"#utility.yul\":17523:17538   */\n      mstore\n        /* \"#utility.yul\":17557:17561   */\n      0x24\n        /* \"#utility.yul\":17554:17555   */\n      0x00\n        /* \"#utility.yul\":17547:17562   */\n      revert\n        /* \"#utility.yul\":17574:17754   */\n    tag_449:\n        /* \"#utility.yul\":17622:17699   */\n      0x4e487b7100000000000000000000000000000000000000000000000000000000\n        /* \"#utility.yul\":17619:17620   */\n      0x00\n        /* \"#utility.yul\":17612:17700   */\n      mstore\n        /* \"#utility.yul\":17719:17723   */\n      0x12\n        /* \"#utility.yul\":17716:17717   */\n      0x04\n        /* \"#utility.yul\":17709:17724   */\n      mstore\n        /* \"#utility.yul\":17743:17747   */\n      0x24\n        /* \"#utility.yul\":17740:17741   */\n      0x00\n        /* \"#utility.yul\":17733:17748   */\n      revert\n        /* \"#utility.yul\":17760:17940   */\n    tag_140:\n        /* \"#utility.yul\":17808:17885   */\n      0x4e487b7100000000000000000000000000000000000000000000000000000000\n        /* \"#utility.yul\":17805:17806   */\n      0x00\n        /* \"#utility.yul\":17798:17886   */\n      mstore\n        /* \"#utility.yul\":17905:17909   */\n      0x32\n        /* \"#utility.yul\":17902:17903   */\n      0x04\n        /* \"#utility.yul\":17895:17910   */\n      mstore\n        /* \"#utility.yul\":17929:17933   */\n      0x24\n        /* \"#utility.yul\":17926:17927   */\n      0x00\n        /* \"#utility.yul\":17919:17934   */\n      revert\n        /* \"#utility.yul\":17946:18126   */\n    tag_129:\n        /* \"#utility.yul\":17994:18071   */\n      0x4e487b7100000000000000000000000000000000000000000000000000000000\n        /* \"#utility.yul\":17991:17992   */\n      0x00\n        /* \"#utility.yul\":17984:18072   */\n      mstore\n        /* \"#utility.yul\":18091:18095   */\n      0x41\n        /* \"#utility.yul\":18088:18089   */\n      0x04\n        /* \"#utility.yul\":18081:18096   */\n      mstore\n        /* \"#utility.yul\":18115:18119   */\n      0x24\n        /* \"#utility.yul\":18112:18113   */\n      0x00\n        /* \"#utility.yul\":18105:18120   */\n      revert\n        /* \"#utility.yul\":18255:18372   */\n    tag_276:\n        /* \"#utility.yul\":18364:18365   */\n      0x00\n        /* \"#utility.yul\":18361:18362   */\n      dup1\n        /* \"#utility.yul\":18354:18366   */\n      revert\n        /* \"#utility.yul\":18378:18602   */\n    tag_366:\n        /* \"#utility.yul\":18518:18552   */\n      0x796f7520646f6e74206861766520696e766573746d656e7420746f2077697468\n        /* \"#utility.yul\":18514:18515   */\n      0x00\n        /* \"#utility.yul\":18506:18512   */\n      dup3\n        /* \"#utility.yul\":18502:18516   */\n      add\n        /* \"#utility.yul\":18495:18553   */\n      mstore\n        /* \"#utility.yul\":18587:18594   */\n      0x647261776e000000000000000000000000000000000000000000000000000000\n        /* \"#utility.yul\":18582:18584   */\n      0x20\n        /* \"#utility.yul\":18574:18580   */\n      dup3\n        /* \"#utility.yul\":18570:18585   */\n      add\n        /* \"#utility.yul\":18563:18595   */\n      mstore\n        /* \"#utility.yul\":18378:18602   */\n      pop\n      jump\t// out\n        /* \"#utility.yul\":18608:18829   */\n    tag_371:\n        /* \"#utility.yul\":18748:18782   */\n      0x796f7520646f6e742068617665207265776172647320746f2077697468647261\n        /* \"#utility.yul\":18744:18745   */\n      0x00\n        /* \"#utility.yul\":18736:18742   */\n      dup3\n        /* \"#utility.yul\":18732:18746   */\n      add\n        /* \"#utility.yul\":18725:18783   */\n      mstore\n        /* \"#utility.yul\":18817:18821   */\n      0x776e000000000000000000000000000000000000000000000000000000000000\n        /* \"#utility.yul\":18812:18814   */\n      0x20\n        /* \"#utility.yul\":18804:18810   */\n      dup3\n        /* \"#utility.yul\":18800:18815   */\n      add\n        /* \"#utility.yul\":18793:18822   */\n      mstore\n        /* \"#utility.yul\":18608:18829   */\n      pop\n      jump\t// out\n        /* \"#utility.yul\":18835:19055   */\n    tag_376:\n        /* \"#utility.yul\":18975:19009   */\n      0x6f6e6c79204f776e65722063616e2063616c6c20746869732066756e6374696f\n        /* \"#utility.yul\":18971:18972   */\n      0x00\n        /* \"#utility.yul\":18963:18969   */\n      dup3\n        /* \"#utility.yul\":18959:18973   */\n      add\n        /* \"#utility.yul\":18952:19010   */\n      mstore\n        /* \"#utility.yul\":19044:19047   */\n      0x6e00000000000000000000000000000000000000000000000000000000000000\n        /* \"#utility.yul\":19039:19041   */\n      0x20\n        /* \"#utility.yul\":19031:19037   */\n      dup3\n        /* \"#utility.yul\":19027:19042   */\n      add\n        /* \"#utility.yul\":19020:19048   */\n      mstore\n        /* \"#utility.yul\":18835:19055   */\n      pop\n      jump\t// out\n        /* \"#utility.yul\":19061:19242   */\n    tag_381:\n        /* \"#utility.yul\":19201:19234   */\n      0x76616c7565206973206e6f742067726561746572207468616e20313030303000\n        /* \"#utility.yul\":19197:19198   */\n      0x00\n        /* \"#utility.yul\":19189:19195   */\n      dup3\n        /* \"#utility.yul\":19185:19199   */\n      add\n        /* \"#utility.yul\":19178:19235   */\n      mstore\n        /* \"#utility.yul\":19061:19242   */\n      pop\n      jump\t// out\n        /* \"#utility.yul\":19248:19370   */\n    tag_264:\n        /* \"#utility.yul\":19321:19345   */\n      tag_482\n        /* \"#utility.yul\":19339:19344   */\n      dup2\n        /* \"#utility.yul\":19321:19345   */\n      tag_311\n      jump\t// in\n    tag_482:\n        /* \"#utility.yul\":19314:19319   */\n      dup2\n        /* \"#utility.yul\":19311:19346   */\n      eq\n        /* \"#utility.yul\":19301:19364   */\n      tag_483\n      jumpi\n        /* \"#utility.yul\":19360:19361   */\n      0x00\n        /* \"#utility.yul\":19357:19358   */\n      dup1\n        /* \"#utility.yul\":19350:19362   */\n      revert\n        /* \"#utility.yul\":19301:19364   */\n    tag_483:\n        /* \"#utility.yul\":19248:19370   */\n      pop\n      jump\t// out\n        /* \"#utility.yul\":19376:19492   */\n    tag_268:\n        /* \"#utility.yul\":19446:19467   */\n      tag_485\n        /* \"#utility.yul\":19461:19466   */\n      dup2\n        /* \"#utility.yul\":19446:19467   */\n      tag_360\n      jump\t// in\n    tag_485:\n        /* \"#utility.yul\":19439:19444   */\n      dup2\n        /* \"#utility.yul\":19436:19468   */\n      eq\n        /* \"#utility.yul\":19426:19486   */\n      tag_486\n      jumpi\n        /* \"#utility.yul\":19482:19483   */\n      0x00\n        /* \"#utility.yul\":19479:19480   */\n      dup1\n        /* \"#utility.yul\":19472:19484   */\n      revert\n        /* \"#utility.yul\":19426:19486   */\n    tag_486:\n        /* \"#utility.yul\":19376:19492   */\n      pop\n      jump\t// out\n        /* \"#utility.yul\":19498:19620   */\n    tag_272:\n        /* \"#utility.yul\":19571:19595   */\n      tag_488\n        /* \"#utility.yul\":19589:19594   */\n      dup2\n        /* \"#utility.yul\":19571:19595   */\n      tag_389\n      jump\t// in\n    tag_488:\n        /* \"#utility.yul\":19564:19569   */\n      dup2\n        /* \"#utility.yul\":19561:19596   */\n      eq\n        /* \"#utility.yul\":19551:19614   */\n      tag_489\n      jumpi\n        /* \"#utility.yul\":19610:19611   */\n      0x00\n        /* \"#utility.yul\":19607:19608   */\n      dup1\n        /* \"#utility.yul\":19600:19612   */\n      revert\n        /* \"#utility.yul\":19551:19614   */\n    tag_489:\n        /* \"#utility.yul\":19498:19620   */\n      pop\n      jump\t// out\n\n    auxdata: 0xa2646970667358221220be325765fd0c23bcd41caf0bdc3d44af49908d3cfbb154c0da2d2cc129838db364736f6c63430008070033\n}\n",
				"bytecode": {
					"linkReferences": {},
					"object": "60806040527363c0f4f599efcfd747ddea897117b5293e139bcd600160006101000a81548173ffffffffffffffffffffffffffffffffffffffff021916908373ffffffffffffffffffffffffffffffffffffffff16021790555073b5047153afcc59523f7f6d6f492f716a21b04681600260006101000a81548173ffffffffffffffffffffffffffffffffffffffff021916908373ffffffffffffffffffffffffffffffffffffffff1602179055506706f05b59d3b200006004556127106005556a0422ca8b0a00a42500000060065563018b82006007553480156100e357600080fd5b50336000806101000a81548173ffffffffffffffffffffffffffffffffffffffff021916908373ffffffffffffffffffffffffffffffffffffffff16021790555061272c806101336000396000f3fe608060405234801561001057600080fd5b50600436106101215760003560e01c80635d3eea91116100ad578063ce10db0a11610071578063ce10db0a146102e8578063d3560ee814610304578063f2fde38b14610339578063f790b81a14610355578063f7c618c11461037357610121565b80635d3eea91146102405780638da5cb5b14610270578063929f6bbe1461028e578063a61be99d146102ac578063c885bc58146102ca57610121565b80632bccdce6116100f45780632bccdce61461019c57806332d4e783146101cc5780633a1e0833146101e85780633d18b91214610206578063500cb85f1461022457610121565b80630c5f58f41461012657806310cde60a146101445780631e8aba3514610162578063293be45614610180575b600080fd5b61012e610391565b60405161013b919061215c565b60405180910390f35b61014c61045f565b604051610159919061225d565b60405180910390f35b61016a610465565b604051610177919061225d565b60405180910390f35b61019a60048036038101906101959190611d69565b6104b2565b005b6101b660048036038101906101b19190611d96565b6104bc565b6040516101c391906121c2565b60405180910390f35b6101e660048036038101906101e19190611d69565b610ace565b005b6101f0610ad8565b6040516101fd919061217e565b60405180910390f35b61020e610d44565b60405161021b919061225d565b60405180910390f35b61023e60048036038101906102399190611d69565b610e94565b005b61025a60048036038101906102559190611d69565b610e9e565b60405161026791906121c2565b60405180910390f35b610278611240565b60405161028591906120b7565b60405180910390f35b610296611264565b6040516102a3919061225d565b60405180910390f35b6102b46112ae565b6040516102c191906121a0565b60405180910390f35b6102d2611421565b6040516102df91906121c2565b60405180910390f35b61030260048036038101906102fd9190611dd6565b611570565b005b61031e60048036038101906103199190611d0f565b61158a565b604051610330969594939291906120fb565b60405180910390f35b610353600480360381019061034e9190611d0f565b6115f3565b005b61035d6116c4565b60405161036a91906121a0565b60405180910390f35b61037b611837565b604051610388919061225d565b60405180910390f35b6060600860003373ffffffffffffffffffffffffffffffffffffffff1673ffffffffffffffffffffffffffffffffffffffff16815260200190815260200160002060010180548060200260200160405190810160405280929190818152602001828054801561045557602002820191906000526020600020905b8160009054906101000a900473ffffffffffffffffffffffffffffffffffffffff1673ffffffffffffffffffffffffffffffffffffffff168152602001906001019080831161040b575b5050505050905090565b60035481565b6000600860003373ffffffffffffffffffffffffffffffffffffffff1673ffffffffffffffffffffffffffffffffffffffff16815260200190815260200160002060010180549050905090565b8060048190555050565b6000600554831015610503576040517f08c379a00000000000000000000000000000000000000000000000000000000081526004016104fa9061223d565b60405180910390fd5b60001515600860003373ffffffffffffffffffffffffffffffffffffffff1673ffffffffffffffffffffffffffffffffffffffff16815260200190815260200160002060080160009054906101000a900460ff1615151415610578576003600081548092919061057290612491565b91905055505b6000600860003373ffffffffffffffffffffffffffffffffffffffff1673ffffffffffffffffffffffffffffffffffffffff16815260200190815260200160002060050154905083600860003373ffffffffffffffffffffffffffffffffffffffff1673ffffffffffffffffffffffffffffffffffffffff16815260200190815260200160002060000160008381526020019081526020016000206000018190555042600860003373ffffffffffffffffffffffffffffffffffffffff1673ffffffffffffffffffffffffffffffffffffffff168152602001908152602001600020600001600083815260200190815260200160002060020181905550600754426106839190612334565b600860003373ffffffffffffffffffffffffffffffffffffffff1673ffffffffffffffffffffffffffffffffffffffff16815260200190815260200160002060000160008381526020019081526020016000206001018190555080600860003373ffffffffffffffffffffffffffffffffffffffff1673ffffffffffffffffffffffffffffffffffffffff16815260200190815260200160002060000160008381526020019081526020016000206003018190555083600860003373ffffffffffffffffffffffffffffffffffffffff1673ffffffffffffffffffffffffffffffffffffffff168152602001908152602001600020600601600082825461078a9190612334565b92505081905550600860003373ffffffffffffffffffffffffffffffffffffffff1673ffffffffffffffffffffffffffffffffffffffff16815260200190815260200160002060050160008154809291906107e490612491565b9190505550600073ffffffffffffffffffffffffffffffffffffffff168373ffffffffffffffffffffffffffffffffffffffff16148061084f57503373ffffffffffffffffffffffffffffffffffffffff168373ffffffffffffffffffffffffffffffffffffffff16145b806108ad575060011515600860003373ffffffffffffffffffffffffffffffffffffffff1673ffffffffffffffffffffffffffffffffffffffff16815260200190815260200160002060080160009054906101000a900460ff161515145b15610939576000600860003373ffffffffffffffffffffffffffffffffffffffff1673ffffffffffffffffffffffffffffffffffffffff16815260200190815260200160002060020160006101000a81548173ffffffffffffffffffffffffffffffffffffffff021916908373ffffffffffffffffffffffffffffffffffffffff160217905550610a68565b82600860003373ffffffffffffffffffffffffffffffffffffffff1673ffffffffffffffffffffffffffffffffffffffff16815260200190815260200160002060020160006101000a81548173ffffffffffffffffffffffffffffffffffffffff021916908373ffffffffffffffffffffffffffffffffffffffff160217905550600860008473ffffffffffffffffffffffffffffffffffffffff1673ffffffffffffffffffffffffffffffffffffffff168152602001908152602001600020600101339080600181540180825580915050600190039060005260206000200160009091909190916101000a81548173ffffffffffffffffffffffffffffffffffffffff021916908373ffffffffffffffffffffffffffffffffffffffff160217905550610a67338561183d565b5b6001600860003373ffffffffffffffffffffffffffffffffffffffff1673ffffffffffffffffffffffffffffffffffffffff16815260200190815260200160002060080160006101000a81548160ff021916908315150217905550600191505092915050565b8060058190555050565b60606000600860003373ffffffffffffffffffffffffffffffffffffffff1673ffffffffffffffffffffffffffffffffffffffff16815260200190815260200160002060050154905060008060005b83811015610bb0576000600860003373ffffffffffffffffffffffffffffffffffffffff1673ffffffffffffffffffffffffffffffffffffffff1681526020019081526020016000206000016000838152602001908152602001600020600001541115610b9d578280610b9990612491565b9350505b8080610ba890612491565b915050610b27565b5060008267ffffffffffffffff811115610bcd57610bcc612567565b5b604051908082528060200260200182016040528015610c0657816020015b610bf3611ca8565b815260200190600190039081610beb5790505b50905060005b84811015610d39576000600860003373ffffffffffffffffffffffffffffffffffffffff1673ffffffffffffffffffffffffffffffffffffffff1681526020019081526020016000206000016000838152602001908152602001600020600001541115610d2657600860003373ffffffffffffffffffffffffffffffffffffffff1673ffffffffffffffffffffffffffffffffffffffff1681526020019081526020016000206000016000828152602001908152602001600020604051806080016040529081600082015481526020016001820154815260200160028201548152602001600382015481525050828481518110610d0c57610d0b612538565b5b60200260200101819052508280610d2290612491565b9350505b8080610d3190612491565b915050610c0c565b508094505050505090565b600080600080600860003373ffffffffffffffffffffffffffffffffffffffff1673ffffffffffffffffffffffffffffffffffffffff16815260200190815260200160002060050154905060005b81811015610e8a57600860003373ffffffffffffffffffffffffffffffffffffffff1673ffffffffffffffffffffffffffffffffffffffff16815260200190815260200160002060000160008281526020019081526020016000206002015442610dfc9190612415565b9250603c83610e0b919061238a565b92506000831115610e275760045483610e2491906123bb565b93505b600860003373ffffffffffffffffffffffffffffffffffffffff1673ffffffffffffffffffffffffffffffffffffffff1681526020019081526020016000206007015484610e759190612415565b93508080610e8290612491565b915050610d92565b5082935050505090565b8060068190555050565b600080600860003373ffffffffffffffffffffffffffffffffffffffff1673ffffffffffffffffffffffffffffffffffffffff16815260200190815260200160002060000160008481526020019081526020016000206000015411610f38576040517f08c379a0000000000000000000000000000000000000000000000000000000008152600401610f2f906121dd565b60405180910390fd5b6000600860003373ffffffffffffffffffffffffffffffffffffffff1673ffffffffffffffffffffffffffffffffffffffff168152602001908152602001600020600001600084815260200190815260200160002060000154905042600860003373ffffffffffffffffffffffffffffffffffffffff1673ffffffffffffffffffffffffffffffffffffffff168152602001908152602001600020600001600085815260200190815260200160002060010154111561100157600281610ffe919061238a565b90505b600160009054906101000a900473ffffffffffffffffffffffffffffffffffffffff1673ffffffffffffffffffffffffffffffffffffffff1663a9059cbb33836040518363ffffffff1660e01b815260040161105e9291906120d2565b602060405180830381600087803b15801561107857600080fd5b505af115801561108c573d6000803e3d6000fd5b505050506040513d601f19601f820116820180604052508101906110b09190611d3c565b50600160009054906101000a900473ffffffffffffffffffffffffffffffffffffffff1673ffffffffffffffffffffffffffffffffffffffff1663a9059cbb60008054906101000a900473ffffffffffffffffffffffffffffffffffffffff16836040518363ffffffff1660e01b815260040161112e9291906120d2565b602060405180830381600087803b15801561114857600080fd5b505af115801561115c573d6000803e3d6000fd5b505050506040513d601f19601f820116820180604052508101906111809190611d3c565b506000600860003373ffffffffffffffffffffffffffffffffffffffff1673ffffffffffffffffffffffffffffffffffffffff16815260200190815260200160002060000160008581526020019081526020016000206000018190555080600860003373ffffffffffffffffffffffffffffffffffffffff1673ffffffffffffffffffffffffffffffffffffffff168152602001908152602001600020600601600082825461122f9190612415565b925050819055506001915050919050565b60008054906101000a900473ffffffffffffffffffffffffffffffffffffffff1681565b6000600860003373ffffffffffffffffffffffffffffffffffffffff1673ffffffffffffffffffffffffffffffffffffffff16815260200190815260200160002060060154905090565b60606000601467ffffffffffffffff8111156112cd576112cc612567565b5b6040519080825280602002602001820160405280156112fb5781602001602082028036833780820191505090505b50905060005b6014811015611419576000600860003373ffffffffffffffffffffffffffffffffffffffff1673ffffffffffffffffffffffffffffffffffffffff16815260200190815260200160002060030160008381526020019081526020016000206000015411156113e457600860003373ffffffffffffffffffffffffffffffffffffffff1673ffffffffffffffffffffffffffffffffffffffff1681526020019081526020016000206003016000828152602001908152602001600020600001548282815181106113d3576113d2612538565b5b602002602001018181525050611406565b60008282815181106113f9576113f8612538565b5b6020026020010181815250505b808061141190612491565b915050611301565b508091505090565b60008061142c610d44565b905060008111611471576040517f08c379a0000000000000000000000000000000000000000000000000000000008152600401611468906121fd565b60405180910390fd5b600160009054906101000a900473ffffffffffffffffffffffffffffffffffffffff1673ffffffffffffffffffffffffffffffffffffffff1663a9059cbb33836040518363ffffffff1660e01b81526004016114ce9291906120d2565b602060405180830381600087803b1580156114e857600080fd5b505af11580156114fc573d6000803e3d6000fd5b505050506040513d601f19601f820116820180604052508101906115209190611d3c565b5080600860003373ffffffffffffffffffffffffffffffffffffffff1673ffffffffffffffffffffffffffffffffffffffff16815260200190815260200160002060070181905550600191505090565b816006819055508260058190555080600481905550505050565b60086020528060005260406000206000915090508060020160009054906101000a900473ffffffffffffffffffffffffffffffffffffffff16908060040154908060050154908060060154908060070154908060080160009054906101000a900460ff16905086565b60008054906101000a900473ffffffffffffffffffffffffffffffffffffffff1673ffffffffffffffffffffffffffffffffffffffff163373ffffffffffffffffffffffffffffffffffffffff1614611681576040517f08c379a00000000000000000000000000000000000000000000000000000000081526004016116789061221d565b60405180910390fd5b806000806101000a81548173ffffffffffffffffffffffffffffffffffffffff021916908373ffffffffffffffffffffffffffffffffffffffff16021790555050565b60606000601467ffffffffffffffff8111156116e3576116e2612567565b5b6040519080825280602002602001820160405280156117115781602001602082028036833780820191505090505b50905060005b601481101561182f576000600860003373ffffffffffffffffffffffffffffffffffffffff1673ffffffffffffffffffffffffffffffffffffffff16815260200190815260200160002060030160008381526020019081526020016000206000015411156117fa57600860003373ffffffffffffffffffffffffffffffffffffffff1673ffffffffffffffffffffffffffffffffffffffff1681526020019081526020016000206003016000828152602001908152602001600020600101548282815181106117e9576117e8612538565b5b60200260200101818152505061181c565b600082828151811061180f5761180e612538565b5b6020026020010181815250505b808061182790612491565b915050611717565b508091505090565b60045481565b60008290506000600567ffffffffffffffff81111561185f5761185e612567565b5b60405190808252806020026020018201604052801561188d5781602001602082028036833780820191505090505b509050674563918244f40000816000815181106118ad576118ac612538565b5b6020026020010181815250506729a2241af62c0000816001815181106118d6576118d5612538565b5b602002602001018181525050671bc16d674ec80000816002815181106118ff576118fe612538565b5b602002602001018181525050670de0b6b3a76400008160038151811061192857611927612538565b5b6020026020010181815250506706f05b59d3b200008160048151811061195157611950612538565b5b602002602001018181525050600080600090505b600a811015611ca057600081141561198057600091506119c8565b600181141561199257600191506119c7565b60028114156119a457600291506119c6565b60028111156119b657600391506119c5565b60078111156119c457600491505b5b5b5b5b600073ffffffffffffffffffffffffffffffffffffffff16600860008673ffffffffffffffffffffffffffffffffffffffff1673ffffffffffffffffffffffffffffffffffffffff16815260200190815260200160002060020160009054906101000a900473ffffffffffffffffffffffffffffffffffffffff1673ffffffffffffffffffffffffffffffffffffffff1614611c8857600860008573ffffffffffffffffffffffffffffffffffffffff1673ffffffffffffffffffffffffffffffffffffffff16815260200190815260200160002060020160009054906101000a900473ffffffffffffffffffffffffffffffffffffffff1693506000606486858581518110611adb57611ada612538565b5b6020026020010151611aed91906123bb565b611af7919061238a565b9050600160009054906101000a900473ffffffffffffffffffffffffffffffffffffffff1673ffffffffffffffffffffffffffffffffffffffff1663a9059cbb86836040518363ffffffff1660e01b8152600401611b569291906120d2565b602060405180830381600087803b158015611b7057600080fd5b505af1158015611b84573d6000803e3d6000fd5b505050506040513d601f19601f82011682018060405250810190611ba89190611d3c565b5080600860008773ffffffffffffffffffffffffffffffffffffffff1673ffffffffffffffffffffffffffffffffffffffff16815260200190815260200160002060030160008481526020019081526020016000206000016000828254611c0f9190612334565b92505081905550600860008673ffffffffffffffffffffffffffffffffffffffff1673ffffffffffffffffffffffffffffffffffffffff16815260200190815260200160002060030160008381526020019081526020016000206001016000815480929190611c7d90612491565b919050555050611c8d565b611ca0565b8080611c9890612491565b915050611965565b505050505050565b6040518060800160405280600081526020016000815260200160008152602001600081525090565b600081359050611cdf816126b1565b92915050565b600081519050611cf4816126c8565b92915050565b600081359050611d09816126df565b92915050565b600060208284031215611d2557611d24612596565b5b6000611d3384828501611cd0565b91505092915050565b600060208284031215611d5257611d51612596565b5b6000611d6084828501611ce5565b91505092915050565b600060208284031215611d7f57611d7e612596565b5b6000611d8d84828501611cfa565b91505092915050565b60008060408385031215611dad57611dac612596565b5b6000611dbb85828601611cfa565b9250506020611dcc85828601611cd0565b9150509250929050565b600080600060608486031215611def57611dee612596565b5b6000611dfd86828701611cfa565b9350506020611e0e86828701611cfa565b9250506040611e1f86828701611cfa565b9150509250925092565b6000611e358383611e71565b60208301905092915050565b6000611e4d8383612044565b60808301905092915050565b6000611e658383612099565b60208301905092915050565b611e7a81612449565b82525050565b611e8981612449565b82525050565b6000611e9a826122a8565b611ea481856122f0565b9350611eaf83612278565b8060005b83811015611ee0578151611ec78882611e29565b9750611ed2836122c9565b925050600181019050611eb3565b5085935050505092915050565b6000611ef8826122b3565b611f028185612301565b9350611f0d83612288565b8060005b83811015611f3e578151611f258882611e41565b9750611f30836122d6565b925050600181019050611f11565b5085935050505092915050565b6000611f56826122be565b611f608185612312565b9350611f6b83612298565b8060005b83811015611f9c578151611f838882611e59565b9750611f8e836122e3565b925050600181019050611f6f565b5085935050505092915050565b611fb28161245b565b82525050565b6000611fc5602583612323565b9150611fd08261259b565b604082019050919050565b6000611fe8602283612323565b9150611ff3826125ea565b604082019050919050565b600061200b602183612323565b915061201682612639565b604082019050919050565b600061202e601f83612323565b915061203982612688565b602082019050919050565b60808201600082015161205a6000850182612099565b50602082015161206d6020850182612099565b5060408201516120806040850182612099565b5060608201516120936060850182612099565b50505050565b6120a281612487565b82525050565b6120b181612487565b82525050565b60006020820190506120cc6000830184611e80565b92915050565b60006040820190506120e76000830185611e80565b6120f460208301846120a8565b9392505050565b600060c0820190506121106000830189611e80565b61211d60208301886120a8565b61212a60408301876120a8565b61213760608301866120a8565b61214460808301856120a8565b61215160a0830184611fa9565b979650505050505050565b600060208201905081810360008301526121768184611e8f565b905092915050565b600060208201905081810360008301526121988184611eed565b905092915050565b600060208201905081810360008301526121ba8184611f4b565b905092915050565b60006020820190506121d76000830184611fa9565b92915050565b600060208201905081810360008301526121f681611fb8565b9050919050565b6000602082019050818103600083015261221681611fdb565b9050919050565b6000602082019050818103600083015261223681611ffe565b9050919050565b6000602082019050818103600083015261225681612021565b9050919050565b600060208201905061227260008301846120a8565b92915050565b6000819050602082019050919050565b6000819050602082019050919050565b6000819050602082019050919050565b600081519050919050565b600081519050919050565b600081519050919050565b6000602082019050919050565b6000602082019050919050565b6000602082019050919050565b600082825260208201905092915050565b600082825260208201905092915050565b600082825260208201905092915050565b600082825260208201905092915050565b600061233f82612487565b915061234a83612487565b9250827fffffffffffffffffffffffffffffffffffffffffffffffffffffffffffffffff0382111561237f5761237e6124da565b5b828201905092915050565b600061239582612487565b91506123a083612487565b9250826123b0576123af612509565b5b828204905092915050565b60006123c682612487565b91506123d183612487565b9250817fffffffffffffffffffffffffffffffffffffffffffffffffffffffffffffffff048311821515161561240a576124096124da565b5b828202905092915050565b600061242082612487565b915061242b83612487565b92508282101561243e5761243d6124da565b5b828203905092915050565b600061245482612467565b9050919050565b60008115159050919050565b600073ffffffffffffffffffffffffffffffffffffffff82169050919050565b6000819050919050565b600061249c82612487565b91507fffffffffffffffffffffffffffffffffffffffffffffffffffffffffffffffff8214156124cf576124ce6124da565b5b600182019050919050565b7f4e487b7100000000000000000000000000000000000000000000000000000000600052601160045260246000fd5b7f4e487b7100000000000000000000000000000000000000000000000000000000600052601260045260246000fd5b7f4e487b7100000000000000000000000000000000000000000000000000000000600052603260045260246000fd5b7f4e487b7100000000000000000000000000000000000000000000000000000000600052604160045260246000fd5b600080fd5b7f796f7520646f6e74206861766520696e766573746d656e7420746f207769746860008201527f647261776e000000000000000000000000000000000000000000000000000000602082015250565b7f796f7520646f6e742068617665207265776172647320746f207769746864726160008201527f776e000000000000000000000000000000000000000000000000000000000000602082015250565b7f6f6e6c79204f776e65722063616e2063616c6c20746869732066756e6374696f60008201527f6e00000000000000000000000000000000000000000000000000000000000000602082015250565b7f76616c7565206973206e6f742067726561746572207468616e20313030303000600082015250565b6126ba81612449565b81146126c557600080fd5b50565b6126d18161245b565b81146126dc57600080fd5b50565b6126e881612487565b81146126f357600080fd5b5056fea2646970667358221220be325765fd0c23bcd41caf0bdc3d44af49908d3cfbb154c0da2d2cc129838db364736f6c63430008070033",
					"opcodes": "PUSH1 0x80 PUSH1 0x40 MSTORE PUSH20 0x63C0F4F599EFCFD747DDEA897117B5293E139BCD PUSH1 0x1 PUSH1 0x0 PUSH2 0x100 EXP DUP2 SLOAD DUP2 PUSH20 0xFFFFFFFFFFFFFFFFFFFFFFFFFFFFFFFFFFFFFFFF MUL NOT AND SWAP1 DUP4 PUSH20 0xFFFFFFFFFFFFFFFFFFFFFFFFFFFFFFFFFFFFFFFF AND MUL OR SWAP1 SSTORE POP PUSH20 0xB5047153AFCC59523F7F6D6F492F716A21B04681 PUSH1 0x2 PUSH1 0x0 PUSH2 0x100 EXP DUP2 SLOAD DUP2 PUSH20 0xFFFFFFFFFFFFFFFFFFFFFFFFFFFFFFFFFFFFFFFF MUL NOT AND SWAP1 DUP4 PUSH20 0xFFFFFFFFFFFFFFFFFFFFFFFFFFFFFFFFFFFFFFFF AND MUL OR SWAP1 SSTORE POP PUSH8 0x6F05B59D3B20000 PUSH1 0x4 SSTORE PUSH2 0x2710 PUSH1 0x5 SSTORE PUSH11 0x422CA8B0A00A425000000 PUSH1 0x6 SSTORE PUSH4 0x18B8200 PUSH1 0x7 SSTORE CALLVALUE DUP1 ISZERO PUSH2 0xE3 JUMPI PUSH1 0x0 DUP1 REVERT JUMPDEST POP CALLER PUSH1 0x0 DUP1 PUSH2 0x100 EXP DUP2 SLOAD DUP2 PUSH20 0xFFFFFFFFFFFFFFFFFFFFFFFFFFFFFFFFFFFFFFFF MUL NOT AND SWAP1 DUP4 PUSH20 0xFFFFFFFFFFFFFFFFFFFFFFFFFFFFFFFFFFFFFFFF AND MUL OR SWAP1 SSTORE POP PUSH2 0x272C DUP1 PUSH2 0x133 PUSH1 0x0 CODECOPY PUSH1 0x0 RETURN INVALID PUSH1 0x80 PUSH1 0x40 MSTORE CALLVALUE DUP1 ISZERO PUSH2 0x10 JUMPI PUSH1 0x0 DUP1 REVERT JUMPDEST POP PUSH1 0x4 CALLDATASIZE LT PUSH2 0x121 JUMPI PUSH1 0x0 CALLDATALOAD PUSH1 0xE0 SHR DUP1 PUSH4 0x5D3EEA91 GT PUSH2 0xAD JUMPI DUP1 PUSH4 0xCE10DB0A GT PUSH2 0x71 JUMPI DUP1 PUSH4 0xCE10DB0A EQ PUSH2 0x2E8 JUMPI DUP1 PUSH4 0xD3560EE8 EQ PUSH2 0x304 JUMPI DUP1 PUSH4 0xF2FDE38B EQ PUSH2 0x339 JUMPI DUP1 PUSH4 0xF790B81A EQ PUSH2 0x355 JUMPI DUP1 PUSH4 0xF7C618C1 EQ PUSH2 0x373 JUMPI PUSH2 0x121 JUMP JUMPDEST DUP1 PUSH4 0x5D3EEA91 EQ PUSH2 0x240 JUMPI DUP1 PUSH4 0x8DA5CB5B EQ PUSH2 0x270 JUMPI DUP1 PUSH4 0x929F6BBE EQ PUSH2 0x28E JUMPI DUP1 PUSH4 0xA61BE99D EQ PUSH2 0x2AC JUMPI DUP1 PUSH4 0xC885BC58 EQ PUSH2 0x2CA JUMPI PUSH2 0x121 JUMP JUMPDEST DUP1 PUSH4 0x2BCCDCE6 GT PUSH2 0xF4 JUMPI DUP1 PUSH4 0x2BCCDCE6 EQ PUSH2 0x19C JUMPI DUP1 PUSH4 0x32D4E783 EQ PUSH2 0x1CC JUMPI DUP1 PUSH4 0x3A1E0833 EQ PUSH2 0x1E8 JUMPI DUP1 PUSH4 0x3D18B912 EQ PUSH2 0x206 JUMPI DUP1 PUSH4 0x500CB85F EQ PUSH2 0x224 JUMPI PUSH2 0x121 JUMP JUMPDEST DUP1 PUSH4 0xC5F58F4 EQ PUSH2 0x126 JUMPI DUP1 PUSH4 0x10CDE60A EQ PUSH2 0x144 JUMPI DUP1 PUSH4 0x1E8ABA35 EQ PUSH2 0x162 JUMPI DUP1 PUSH4 0x293BE456 EQ PUSH2 0x180 JUMPI JUMPDEST PUSH1 0x0 DUP1 REVERT JUMPDEST PUSH2 0x12E PUSH2 0x391 JUMP JUMPDEST PUSH1 0x40 MLOAD PUSH2 0x13B SWAP2 SWAP1 PUSH2 0x215C JUMP JUMPDEST PUSH1 0x40 MLOAD DUP1 SWAP2 SUB SWAP1 RETURN JUMPDEST PUSH2 0x14C PUSH2 0x45F JUMP JUMPDEST PUSH1 0x40 MLOAD PUSH2 0x159 SWAP2 SWAP1 PUSH2 0x225D JUMP JUMPDEST PUSH1 0x40 MLOAD DUP1 SWAP2 SUB SWAP1 RETURN JUMPDEST PUSH2 0x16A PUSH2 0x465 JUMP JUMPDEST PUSH1 0x40 MLOAD PUSH2 0x177 SWAP2 SWAP1 PUSH2 0x225D JUMP JUMPDEST PUSH1 0x40 MLOAD DUP1 SWAP2 SUB SWAP1 RETURN JUMPDEST PUSH2 0x19A PUSH1 0x4 DUP1 CALLDATASIZE SUB DUP2 ADD SWAP1 PUSH2 0x195 SWAP2 SWAP1 PUSH2 0x1D69 JUMP JUMPDEST PUSH2 0x4B2 JUMP JUMPDEST STOP JUMPDEST PUSH2 0x1B6 PUSH1 0x4 DUP1 CALLDATASIZE SUB DUP2 ADD SWAP1 PUSH2 0x1B1 SWAP2 SWAP1 PUSH2 0x1D96 JUMP JUMPDEST PUSH2 0x4BC JUMP JUMPDEST PUSH1 0x40 MLOAD PUSH2 0x1C3 SWAP2 SWAP1 PUSH2 0x21C2 JUMP JUMPDEST PUSH1 0x40 MLOAD DUP1 SWAP2 SUB SWAP1 RETURN JUMPDEST PUSH2 0x1E6 PUSH1 0x4 DUP1 CALLDATASIZE SUB DUP2 ADD SWAP1 PUSH2 0x1E1 SWAP2 SWAP1 PUSH2 0x1D69 JUMP JUMPDEST PUSH2 0xACE JUMP JUMPDEST STOP JUMPDEST PUSH2 0x1F0 PUSH2 0xAD8 JUMP JUMPDEST PUSH1 0x40 MLOAD PUSH2 0x1FD SWAP2 SWAP1 PUSH2 0x217E JUMP JUMPDEST PUSH1 0x40 MLOAD DUP1 SWAP2 SUB SWAP1 RETURN JUMPDEST PUSH2 0x20E PUSH2 0xD44 JUMP JUMPDEST PUSH1 0x40 MLOAD PUSH2 0x21B SWAP2 SWAP1 PUSH2 0x225D JUMP JUMPDEST PUSH1 0x40 MLOAD DUP1 SWAP2 SUB SWAP1 RETURN JUMPDEST PUSH2 0x23E PUSH1 0x4 DUP1 CALLDATASIZE SUB DUP2 ADD SWAP1 PUSH2 0x239 SWAP2 SWAP1 PUSH2 0x1D69 JUMP JUMPDEST PUSH2 0xE94 JUMP JUMPDEST STOP JUMPDEST PUSH2 0x25A PUSH1 0x4 DUP1 CALLDATASIZE SUB DUP2 ADD SWAP1 PUSH2 0x255 SWAP2 SWAP1 PUSH2 0x1D69 JUMP JUMPDEST PUSH2 0xE9E JUMP JUMPDEST PUSH1 0x40 MLOAD PUSH2 0x267 SWAP2 SWAP1 PUSH2 0x21C2 JUMP JUMPDEST PUSH1 0x40 MLOAD DUP1 SWAP2 SUB SWAP1 RETURN JUMPDEST PUSH2 0x278 PUSH2 0x1240 JUMP JUMPDEST PUSH1 0x40 MLOAD PUSH2 0x285 SWAP2 SWAP1 PUSH2 0x20B7 JUMP JUMPDEST PUSH1 0x40 MLOAD DUP1 SWAP2 SUB SWAP1 RETURN JUMPDEST PUSH2 0x296 PUSH2 0x1264 JUMP JUMPDEST PUSH1 0x40 MLOAD PUSH2 0x2A3 SWAP2 SWAP1 PUSH2 0x225D JUMP JUMPDEST PUSH1 0x40 MLOAD DUP1 SWAP2 SUB SWAP1 RETURN JUMPDEST PUSH2 0x2B4 PUSH2 0x12AE JUMP JUMPDEST PUSH1 0x40 MLOAD PUSH2 0x2C1 SWAP2 SWAP1 PUSH2 0x21A0 JUMP JUMPDEST PUSH1 0x40 MLOAD DUP1 SWAP2 SUB SWAP1 RETURN JUMPDEST PUSH2 0x2D2 PUSH2 0x1421 JUMP JUMPDEST PUSH1 0x40 MLOAD PUSH2 0x2DF SWAP2 SWAP1 PUSH2 0x21C2 JUMP JUMPDEST PUSH1 0x40 MLOAD DUP1 SWAP2 SUB SWAP1 RETURN JUMPDEST PUSH2 0x302 PUSH1 0x4 DUP1 CALLDATASIZE SUB DUP2 ADD SWAP1 PUSH2 0x2FD SWAP2 SWAP1 PUSH2 0x1DD6 JUMP JUMPDEST PUSH2 0x1570 JUMP JUMPDEST STOP JUMPDEST PUSH2 0x31E PUSH1 0x4 DUP1 CALLDATASIZE SUB DUP2 ADD SWAP1 PUSH2 0x319 SWAP2 SWAP1 PUSH2 0x1D0F JUMP JUMPDEST PUSH2 0x158A JUMP JUMPDEST PUSH1 0x40 MLOAD PUSH2 0x330 SWAP7 SWAP6 SWAP5 SWAP4 SWAP3 SWAP2 SWAP1 PUSH2 0x20FB JUMP JUMPDEST PUSH1 0x40 MLOAD DUP1 SWAP2 SUB SWAP1 RETURN JUMPDEST PUSH2 0x353 PUSH1 0x4 DUP1 CALLDATASIZE SUB DUP2 ADD SWAP1 PUSH2 0x34E SWAP2 SWAP1 PUSH2 0x1D0F JUMP JUMPDEST PUSH2 0x15F3 JUMP JUMPDEST STOP JUMPDEST PUSH2 0x35D PUSH2 0x16C4 JUMP JUMPDEST PUSH1 0x40 MLOAD PUSH2 0x36A SWAP2 SWAP1 PUSH2 0x21A0 JUMP JUMPDEST PUSH1 0x40 MLOAD DUP1 SWAP2 SUB SWAP1 RETURN JUMPDEST PUSH2 0x37B PUSH2 0x1837 JUMP JUMPDEST PUSH1 0x40 MLOAD PUSH2 0x388 SWAP2 SWAP1 PUSH2 0x225D JUMP JUMPDEST PUSH1 0x40 MLOAD DUP1 SWAP2 SUB SWAP1 RETURN JUMPDEST PUSH1 0x60 PUSH1 0x8 PUSH1 0x0 CALLER PUSH20 0xFFFFFFFFFFFFFFFFFFFFFFFFFFFFFFFFFFFFFFFF AND PUSH20 0xFFFFFFFFFFFFFFFFFFFFFFFFFFFFFFFFFFFFFFFF AND DUP2 MSTORE PUSH1 0x20 ADD SWAP1 DUP2 MSTORE PUSH1 0x20 ADD PUSH1 0x0 KECCAK256 PUSH1 0x1 ADD DUP1 SLOAD DUP1 PUSH1 0x20 MUL PUSH1 0x20 ADD PUSH1 0x40 MLOAD SWAP1 DUP2 ADD PUSH1 0x40 MSTORE DUP1 SWAP3 SWAP2 SWAP1 DUP2 DUP2 MSTORE PUSH1 0x20 ADD DUP3 DUP1 SLOAD DUP1 ISZERO PUSH2 0x455 JUMPI PUSH1 0x20 MUL DUP3 ADD SWAP2 SWAP1 PUSH1 0x0 MSTORE PUSH1 0x20 PUSH1 0x0 KECCAK256 SWAP1 JUMPDEST DUP2 PUSH1 0x0 SWAP1 SLOAD SWAP1 PUSH2 0x100 EXP SWAP1 DIV PUSH20 0xFFFFFFFFFFFFFFFFFFFFFFFFFFFFFFFFFFFFFFFF AND PUSH20 0xFFFFFFFFFFFFFFFFFFFFFFFFFFFFFFFFFFFFFFFF AND DUP2 MSTORE PUSH1 0x20 ADD SWAP1 PUSH1 0x1 ADD SWAP1 DUP1 DUP4 GT PUSH2 0x40B JUMPI JUMPDEST POP POP POP POP POP SWAP1 POP SWAP1 JUMP JUMPDEST PUSH1 0x3 SLOAD DUP2 JUMP JUMPDEST PUSH1 0x0 PUSH1 0x8 PUSH1 0x0 CALLER PUSH20 0xFFFFFFFFFFFFFFFFFFFFFFFFFFFFFFFFFFFFFFFF AND PUSH20 0xFFFFFFFFFFFFFFFFFFFFFFFFFFFFFFFFFFFFFFFF AND DUP2 MSTORE PUSH1 0x20 ADD SWAP1 DUP2 MSTORE PUSH1 0x20 ADD PUSH1 0x0 KECCAK256 PUSH1 0x1 ADD DUP1 SLOAD SWAP1 POP SWAP1 POP SWAP1 JUMP JUMPDEST DUP1 PUSH1 0x4 DUP2 SWAP1 SSTORE POP POP JUMP JUMPDEST PUSH1 0x0 PUSH1 0x5 SLOAD DUP4 LT ISZERO PUSH2 0x503 JUMPI PUSH1 0x40 MLOAD PUSH32 0x8C379A000000000000000000000000000000000000000000000000000000000 DUP2 MSTORE PUSH1 0x4 ADD PUSH2 0x4FA SWAP1 PUSH2 0x223D JUMP JUMPDEST PUSH1 0x40 MLOAD DUP1 SWAP2 SUB SWAP1 REVERT JUMPDEST PUSH1 0x0 ISZERO ISZERO PUSH1 0x8 PUSH1 0x0 CALLER PUSH20 0xFFFFFFFFFFFFFFFFFFFFFFFFFFFFFFFFFFFFFFFF AND PUSH20 0xFFFFFFFFFFFFFFFFFFFFFFFFFFFFFFFFFFFFFFFF AND DUP2 MSTORE PUSH1 0x20 ADD SWAP1 DUP2 MSTORE PUSH1 0x20 ADD PUSH1 0x0 KECCAK256 PUSH1 0x8 ADD PUSH1 0x0 SWAP1 SLOAD SWAP1 PUSH2 0x100 EXP SWAP1 DIV PUSH1 0xFF AND ISZERO ISZERO EQ ISZERO PUSH2 0x578 JUMPI PUSH1 0x3 PUSH1 0x0 DUP2 SLOAD DUP1 SWAP3 SWAP2 SWAP1 PUSH2 0x572 SWAP1 PUSH2 0x2491 JUMP JUMPDEST SWAP2 SWAP1 POP SSTORE POP JUMPDEST PUSH1 0x0 PUSH1 0x8 PUSH1 0x0 CALLER PUSH20 0xFFFFFFFFFFFFFFFFFFFFFFFFFFFFFFFFFFFFFFFF AND PUSH20 0xFFFFFFFFFFFFFFFFFFFFFFFFFFFFFFFFFFFFFFFF AND DUP2 MSTORE PUSH1 0x20 ADD SWAP1 DUP2 MSTORE PUSH1 0x20 ADD PUSH1 0x0 KECCAK256 PUSH1 0x5 ADD SLOAD SWAP1 POP DUP4 PUSH1 0x8 PUSH1 0x0 CALLER PUSH20 0xFFFFFFFFFFFFFFFFFFFFFFFFFFFFFFFFFFFFFFFF AND PUSH20 0xFFFFFFFFFFFFFFFFFFFFFFFFFFFFFFFFFFFFFFFF AND DUP2 MSTORE PUSH1 0x20 ADD SWAP1 DUP2 MSTORE PUSH1 0x20 ADD PUSH1 0x0 KECCAK256 PUSH1 0x0 ADD PUSH1 0x0 DUP4 DUP2 MSTORE PUSH1 0x20 ADD SWAP1 DUP2 MSTORE PUSH1 0x20 ADD PUSH1 0x0 KECCAK256 PUSH1 0x0 ADD DUP2 SWAP1 SSTORE POP TIMESTAMP PUSH1 0x8 PUSH1 0x0 CALLER PUSH20 0xFFFFFFFFFFFFFFFFFFFFFFFFFFFFFFFFFFFFFFFF AND PUSH20 0xFFFFFFFFFFFFFFFFFFFFFFFFFFFFFFFFFFFFFFFF AND DUP2 MSTORE PUSH1 0x20 ADD SWAP1 DUP2 MSTORE PUSH1 0x20 ADD PUSH1 0x0 KECCAK256 PUSH1 0x0 ADD PUSH1 0x0 DUP4 DUP2 MSTORE PUSH1 0x20 ADD SWAP1 DUP2 MSTORE PUSH1 0x20 ADD PUSH1 0x0 KECCAK256 PUSH1 0x2 ADD DUP2 SWAP1 SSTORE POP PUSH1 0x7 SLOAD TIMESTAMP PUSH2 0x683 SWAP2 SWAP1 PUSH2 0x2334 JUMP JUMPDEST PUSH1 0x8 PUSH1 0x0 CALLER PUSH20 0xFFFFFFFFFFFFFFFFFFFFFFFFFFFFFFFFFFFFFFFF AND PUSH20 0xFFFFFFFFFFFFFFFFFFFFFFFFFFFFFFFFFFFFFFFF AND DUP2 MSTORE PUSH1 0x20 ADD SWAP1 DUP2 MSTORE PUSH1 0x20 ADD PUSH1 0x0 KECCAK256 PUSH1 0x0 ADD PUSH1 0x0 DUP4 DUP2 MSTORE PUSH1 0x20 ADD SWAP1 DUP2 MSTORE PUSH1 0x20 ADD PUSH1 0x0 KECCAK256 PUSH1 0x1 ADD DUP2 SWAP1 SSTORE POP DUP1 PUSH1 0x8 PUSH1 0x0 CALLER PUSH20 0xFFFFFFFFFFFFFFFFFFFFFFFFFFFFFFFFFFFFFFFF AND PUSH20 0xFFFFFFFFFFFFFFFFFFFFFFFFFFFFFFFFFFFFFFFF AND DUP2 MSTORE PUSH1 0x20 ADD SWAP1 DUP2 MSTORE PUSH1 0x20 ADD PUSH1 0x0 KECCAK256 PUSH1 0x0 ADD PUSH1 0x0 DUP4 DUP2 MSTORE PUSH1 0x20 ADD SWAP1 DUP2 MSTORE PUSH1 0x20 ADD PUSH1 0x0 KECCAK256 PUSH1 0x3 ADD DUP2 SWAP1 SSTORE POP DUP4 PUSH1 0x8 PUSH1 0x0 CALLER PUSH20 0xFFFFFFFFFFFFFFFFFFFFFFFFFFFFFFFFFFFFFFFF AND PUSH20 0xFFFFFFFFFFFFFFFFFFFFFFFFFFFFFFFFFFFFFFFF AND DUP2 MSTORE PUSH1 0x20 ADD SWAP1 DUP2 MSTORE PUSH1 0x20 ADD PUSH1 0x0 KECCAK256 PUSH1 0x6 ADD PUSH1 0x0 DUP3 DUP3 SLOAD PUSH2 0x78A SWAP2 SWAP1 PUSH2 0x2334 JUMP JUMPDEST SWAP3 POP POP DUP2 SWAP1 SSTORE POP PUSH1 0x8 PUSH1 0x0 CALLER PUSH20 0xFFFFFFFFFFFFFFFFFFFFFFFFFFFFFFFFFFFFFFFF AND PUSH20 0xFFFFFFFFFFFFFFFFFFFFFFFFFFFFFFFFFFFFFFFF AND DUP2 MSTORE PUSH1 0x20 ADD SWAP1 DUP2 MSTORE PUSH1 0x20 ADD PUSH1 0x0 KECCAK256 PUSH1 0x5 ADD PUSH1 0x0 DUP2 SLOAD DUP1 SWAP3 SWAP2 SWAP1 PUSH2 0x7E4 SWAP1 PUSH2 0x2491 JUMP JUMPDEST SWAP2 SWAP1 POP SSTORE POP PUSH1 0x0 PUSH20 0xFFFFFFFFFFFFFFFFFFFFFFFFFFFFFFFFFFFFFFFF AND DUP4 PUSH20 0xFFFFFFFFFFFFFFFFFFFFFFFFFFFFFFFFFFFFFFFF AND EQ DUP1 PUSH2 0x84F JUMPI POP CALLER PUSH20 0xFFFFFFFFFFFFFFFFFFFFFFFFFFFFFFFFFFFFFFFF AND DUP4 PUSH20 0xFFFFFFFFFFFFFFFFFFFFFFFFFFFFFFFFFFFFFFFF AND EQ JUMPDEST DUP1 PUSH2 0x8AD JUMPI POP PUSH1 0x1 ISZERO ISZERO PUSH1 0x8 PUSH1 0x0 CALLER PUSH20 0xFFFFFFFFFFFFFFFFFFFFFFFFFFFFFFFFFFFFFFFF AND PUSH20 0xFFFFFFFFFFFFFFFFFFFFFFFFFFFFFFFFFFFFFFFF AND DUP2 MSTORE PUSH1 0x20 ADD SWAP1 DUP2 MSTORE PUSH1 0x20 ADD PUSH1 0x0 KECCAK256 PUSH1 0x8 ADD PUSH1 0x0 SWAP1 SLOAD SWAP1 PUSH2 0x100 EXP SWAP1 DIV PUSH1 0xFF AND ISZERO ISZERO EQ JUMPDEST ISZERO PUSH2 0x939 JUMPI PUSH1 0x0 PUSH1 0x8 PUSH1 0x0 CALLER PUSH20 0xFFFFFFFFFFFFFFFFFFFFFFFFFFFFFFFFFFFFFFFF AND PUSH20 0xFFFFFFFFFFFFFFFFFFFFFFFFFFFFFFFFFFFFFFFF AND DUP2 MSTORE PUSH1 0x20 ADD SWAP1 DUP2 MSTORE PUSH1 0x20 ADD PUSH1 0x0 KECCAK256 PUSH1 0x2 ADD PUSH1 0x0 PUSH2 0x100 EXP DUP2 SLOAD DUP2 PUSH20 0xFFFFFFFFFFFFFFFFFFFFFFFFFFFFFFFFFFFFFFFF MUL NOT AND SWAP1 DUP4 PUSH20 0xFFFFFFFFFFFFFFFFFFFFFFFFFFFFFFFFFFFFFFFF AND MUL OR SWAP1 SSTORE POP PUSH2 0xA68 JUMP JUMPDEST DUP3 PUSH1 0x8 PUSH1 0x0 CALLER PUSH20 0xFFFFFFFFFFFFFFFFFFFFFFFFFFFFFFFFFFFFFFFF AND PUSH20 0xFFFFFFFFFFFFFFFFFFFFFFFFFFFFFFFFFFFFFFFF AND DUP2 MSTORE PUSH1 0x20 ADD SWAP1 DUP2 MSTORE PUSH1 0x20 ADD PUSH1 0x0 KECCAK256 PUSH1 0x2 ADD PUSH1 0x0 PUSH2 0x100 EXP DUP2 SLOAD DUP2 PUSH20 0xFFFFFFFFFFFFFFFFFFFFFFFFFFFFFFFFFFFFFFFF MUL NOT AND SWAP1 DUP4 PUSH20 0xFFFFFFFFFFFFFFFFFFFFFFFFFFFFFFFFFFFFFFFF AND MUL OR SWAP1 SSTORE POP PUSH1 0x8 PUSH1 0x0 DUP5 PUSH20 0xFFFFFFFFFFFFFFFFFFFFFFFFFFFFFFFFFFFFFFFF AND PUSH20 0xFFFFFFFFFFFFFFFFFFFFFFFFFFFFFFFFFFFFFFFF AND DUP2 MSTORE PUSH1 0x20 ADD SWAP1 DUP2 MSTORE PUSH1 0x20 ADD PUSH1 0x0 KECCAK256 PUSH1 0x1 ADD CALLER SWAP1 DUP1 PUSH1 0x1 DUP2 SLOAD ADD DUP1 DUP3 SSTORE DUP1 SWAP2 POP POP PUSH1 0x1 SWAP1 SUB SWAP1 PUSH1 0x0 MSTORE PUSH1 0x20 PUSH1 0x0 KECCAK256 ADD PUSH1 0x0 SWAP1 SWAP2 SWAP1 SWAP2 SWAP1 SWAP2 PUSH2 0x100 EXP DUP2 SLOAD DUP2 PUSH20 0xFFFFFFFFFFFFFFFFFFFFFFFFFFFFFFFFFFFFFFFF MUL NOT AND SWAP1 DUP4 PUSH20 0xFFFFFFFFFFFFFFFFFFFFFFFFFFFFFFFFFFFFFFFF AND MUL OR SWAP1 SSTORE POP PUSH2 0xA67 CALLER DUP6 PUSH2 0x183D JUMP JUMPDEST JUMPDEST PUSH1 0x1 PUSH1 0x8 PUSH1 0x0 CALLER PUSH20 0xFFFFFFFFFFFFFFFFFFFFFFFFFFFFFFFFFFFFFFFF AND PUSH20 0xFFFFFFFFFFFFFFFFFFFFFFFFFFFFFFFFFFFFFFFF AND DUP2 MSTORE PUSH1 0x20 ADD SWAP1 DUP2 MSTORE PUSH1 0x20 ADD PUSH1 0x0 KECCAK256 PUSH1 0x8 ADD PUSH1 0x0 PUSH2 0x100 EXP DUP2 SLOAD DUP2 PUSH1 0xFF MUL NOT AND SWAP1 DUP4 ISZERO ISZERO MUL OR SWAP1 SSTORE POP PUSH1 0x1 SWAP2 POP POP SWAP3 SWAP2 POP POP JUMP JUMPDEST DUP1 PUSH1 0x5 DUP2 SWAP1 SSTORE POP POP JUMP JUMPDEST PUSH1 0x60 PUSH1 0x0 PUSH1 0x8 PUSH1 0x0 CALLER PUSH20 0xFFFFFFFFFFFFFFFFFFFFFFFFFFFFFFFFFFFFFFFF AND PUSH20 0xFFFFFFFFFFFFFFFFFFFFFFFFFFFFFFFFFFFFFFFF AND DUP2 MSTORE PUSH1 0x20 ADD SWAP1 DUP2 MSTORE PUSH1 0x20 ADD PUSH1 0x0 KECCAK256 PUSH1 0x5 ADD SLOAD SWAP1 POP PUSH1 0x0 DUP1 PUSH1 0x0 JUMPDEST DUP4 DUP2 LT ISZERO PUSH2 0xBB0 JUMPI PUSH1 0x0 PUSH1 0x8 PUSH1 0x0 CALLER PUSH20 0xFFFFFFFFFFFFFFFFFFFFFFFFFFFFFFFFFFFFFFFF AND PUSH20 0xFFFFFFFFFFFFFFFFFFFFFFFFFFFFFFFFFFFFFFFF AND DUP2 MSTORE PUSH1 0x20 ADD SWAP1 DUP2 MSTORE PUSH1 0x20 ADD PUSH1 0x0 KECCAK256 PUSH1 0x0 ADD PUSH1 0x0 DUP4 DUP2 MSTORE PUSH1 0x20 ADD SWAP1 DUP2 MSTORE PUSH1 0x20 ADD PUSH1 0x0 KECCAK256 PUSH1 0x0 ADD SLOAD GT ISZERO PUSH2 0xB9D JUMPI DUP3 DUP1 PUSH2 0xB99 SWAP1 PUSH2 0x2491 JUMP JUMPDEST SWAP4 POP POP JUMPDEST DUP1 DUP1 PUSH2 0xBA8 SWAP1 PUSH2 0x2491 JUMP JUMPDEST SWAP2 POP POP PUSH2 0xB27 JUMP JUMPDEST POP PUSH1 0x0 DUP3 PUSH8 0xFFFFFFFFFFFFFFFF DUP2 GT ISZERO PUSH2 0xBCD JUMPI PUSH2 0xBCC PUSH2 0x2567 JUMP JUMPDEST JUMPDEST PUSH1 0x40 MLOAD SWAP1 DUP1 DUP3 MSTORE DUP1 PUSH1 0x20 MUL PUSH1 0x20 ADD DUP3 ADD PUSH1 0x40 MSTORE DUP1 ISZERO PUSH2 0xC06 JUMPI DUP2 PUSH1 0x20 ADD JUMPDEST PUSH2 0xBF3 PUSH2 0x1CA8 JUMP JUMPDEST DUP2 MSTORE PUSH1 0x20 ADD SWAP1 PUSH1 0x1 SWAP1 SUB SWAP1 DUP2 PUSH2 0xBEB JUMPI SWAP1 POP JUMPDEST POP SWAP1 POP PUSH1 0x0 JUMPDEST DUP5 DUP2 LT ISZERO PUSH2 0xD39 JUMPI PUSH1 0x0 PUSH1 0x8 PUSH1 0x0 CALLER PUSH20 0xFFFFFFFFFFFFFFFFFFFFFFFFFFFFFFFFFFFFFFFF AND PUSH20 0xFFFFFFFFFFFFFFFFFFFFFFFFFFFFFFFFFFFFFFFF AND DUP2 MSTORE PUSH1 0x20 ADD SWAP1 DUP2 MSTORE PUSH1 0x20 ADD PUSH1 0x0 KECCAK256 PUSH1 0x0 ADD PUSH1 0x0 DUP4 DUP2 MSTORE PUSH1 0x20 ADD SWAP1 DUP2 MSTORE PUSH1 0x20 ADD PUSH1 0x0 KECCAK256 PUSH1 0x0 ADD SLOAD GT ISZERO PUSH2 0xD26 JUMPI PUSH1 0x8 PUSH1 0x0 CALLER PUSH20 0xFFFFFFFFFFFFFFFFFFFFFFFFFFFFFFFFFFFFFFFF AND PUSH20 0xFFFFFFFFFFFFFFFFFFFFFFFFFFFFFFFFFFFFFFFF AND DUP2 MSTORE PUSH1 0x20 ADD SWAP1 DUP2 MSTORE PUSH1 0x20 ADD PUSH1 0x0 KECCAK256 PUSH1 0x0 ADD PUSH1 0x0 DUP3 DUP2 MSTORE PUSH1 0x20 ADD SWAP1 DUP2 MSTORE PUSH1 0x20 ADD PUSH1 0x0 KECCAK256 PUSH1 0x40 MLOAD DUP1 PUSH1 0x80 ADD PUSH1 0x40 MSTORE SWAP1 DUP2 PUSH1 0x0 DUP3 ADD SLOAD DUP2 MSTORE PUSH1 0x20 ADD PUSH1 0x1 DUP3 ADD SLOAD DUP2 MSTORE PUSH1 0x20 ADD PUSH1 0x2 DUP3 ADD SLOAD DUP2 MSTORE PUSH1 0x20 ADD PUSH1 0x3 DUP3 ADD SLOAD DUP2 MSTORE POP POP DUP3 DUP5 DUP2 MLOAD DUP2 LT PUSH2 0xD0C JUMPI PUSH2 0xD0B PUSH2 0x2538 JUMP JUMPDEST JUMPDEST PUSH1 0x20 MUL PUSH1 0x20 ADD ADD DUP2 SWAP1 MSTORE POP DUP3 DUP1 PUSH2 0xD22 SWAP1 PUSH2 0x2491 JUMP JUMPDEST SWAP4 POP POP JUMPDEST DUP1 DUP1 PUSH2 0xD31 SWAP1 PUSH2 0x2491 JUMP JUMPDEST SWAP2 POP POP PUSH2 0xC0C JUMP JUMPDEST POP DUP1 SWAP5 POP POP POP POP POP SWAP1 JUMP JUMPDEST PUSH1 0x0 DUP1 PUSH1 0x0 DUP1 PUSH1 0x8 PUSH1 0x0 CALLER PUSH20 0xFFFFFFFFFFFFFFFFFFFFFFFFFFFFFFFFFFFFFFFF AND PUSH20 0xFFFFFFFFFFFFFFFFFFFFFFFFFFFFFFFFFFFFFFFF AND DUP2 MSTORE PUSH1 0x20 ADD SWAP1 DUP2 MSTORE PUSH1 0x20 ADD PUSH1 0x0 KECCAK256 PUSH1 0x5 ADD SLOAD SWAP1 POP PUSH1 0x0 JUMPDEST DUP2 DUP2 LT ISZERO PUSH2 0xE8A JUMPI PUSH1 0x8 PUSH1 0x0 CALLER PUSH20 0xFFFFFFFFFFFFFFFFFFFFFFFFFFFFFFFFFFFFFFFF AND PUSH20 0xFFFFFFFFFFFFFFFFFFFFFFFFFFFFFFFFFFFFFFFF AND DUP2 MSTORE PUSH1 0x20 ADD SWAP1 DUP2 MSTORE PUSH1 0x20 ADD PUSH1 0x0 KECCAK256 PUSH1 0x0 ADD PUSH1 0x0 DUP3 DUP2 MSTORE PUSH1 0x20 ADD SWAP1 DUP2 MSTORE PUSH1 0x20 ADD PUSH1 0x0 KECCAK256 PUSH1 0x2 ADD SLOAD TIMESTAMP PUSH2 0xDFC SWAP2 SWAP1 PUSH2 0x2415 JUMP JUMPDEST SWAP3 POP PUSH1 0x3C DUP4 PUSH2 0xE0B SWAP2 SWAP1 PUSH2 0x238A JUMP JUMPDEST SWAP3 POP PUSH1 0x0 DUP4 GT ISZERO PUSH2 0xE27 JUMPI PUSH1 0x4 SLOAD DUP4 PUSH2 0xE24 SWAP2 SWAP1 PUSH2 0x23BB JUMP JUMPDEST SWAP4 POP JUMPDEST PUSH1 0x8 PUSH1 0x0 CALLER PUSH20 0xFFFFFFFFFFFFFFFFFFFFFFFFFFFFFFFFFFFFFFFF AND PUSH20 0xFFFFFFFFFFFFFFFFFFFFFFFFFFFFFFFFFFFFFFFF AND DUP2 MSTORE PUSH1 0x20 ADD SWAP1 DUP2 MSTORE PUSH1 0x20 ADD PUSH1 0x0 KECCAK256 PUSH1 0x7 ADD SLOAD DUP5 PUSH2 0xE75 SWAP2 SWAP1 PUSH2 0x2415 JUMP JUMPDEST SWAP4 POP DUP1 DUP1 PUSH2 0xE82 SWAP1 PUSH2 0x2491 JUMP JUMPDEST SWAP2 POP POP PUSH2 0xD92 JUMP JUMPDEST POP DUP3 SWAP4 POP POP POP POP SWAP1 JUMP JUMPDEST DUP1 PUSH1 0x6 DUP2 SWAP1 SSTORE POP POP JUMP JUMPDEST PUSH1 0x0 DUP1 PUSH1 0x8 PUSH1 0x0 CALLER PUSH20 0xFFFFFFFFFFFFFFFFFFFFFFFFFFFFFFFFFFFFFFFF AND PUSH20 0xFFFFFFFFFFFFFFFFFFFFFFFFFFFFFFFFFFFFFFFF AND DUP2 MSTORE PUSH1 0x20 ADD SWAP1 DUP2 MSTORE PUSH1 0x20 ADD PUSH1 0x0 KECCAK256 PUSH1 0x0 ADD PUSH1 0x0 DUP5 DUP2 MSTORE PUSH1 0x20 ADD SWAP1 DUP2 MSTORE PUSH1 0x20 ADD PUSH1 0x0 KECCAK256 PUSH1 0x0 ADD SLOAD GT PUSH2 0xF38 JUMPI PUSH1 0x40 MLOAD PUSH32 0x8C379A000000000000000000000000000000000000000000000000000000000 DUP2 MSTORE PUSH1 0x4 ADD PUSH2 0xF2F SWAP1 PUSH2 0x21DD JUMP JUMPDEST PUSH1 0x40 MLOAD DUP1 SWAP2 SUB SWAP1 REVERT JUMPDEST PUSH1 0x0 PUSH1 0x8 PUSH1 0x0 CALLER PUSH20 0xFFFFFFFFFFFFFFFFFFFFFFFFFFFFFFFFFFFFFFFF AND PUSH20 0xFFFFFFFFFFFFFFFFFFFFFFFFFFFFFFFFFFFFFFFF AND DUP2 MSTORE PUSH1 0x20 ADD SWAP1 DUP2 MSTORE PUSH1 0x20 ADD PUSH1 0x0 KECCAK256 PUSH1 0x0 ADD PUSH1 0x0 DUP5 DUP2 MSTORE PUSH1 0x20 ADD SWAP1 DUP2 MSTORE PUSH1 0x20 ADD PUSH1 0x0 KECCAK256 PUSH1 0x0 ADD SLOAD SWAP1 POP TIMESTAMP PUSH1 0x8 PUSH1 0x0 CALLER PUSH20 0xFFFFFFFFFFFFFFFFFFFFFFFFFFFFFFFFFFFFFFFF AND PUSH20 0xFFFFFFFFFFFFFFFFFFFFFFFFFFFFFFFFFFFFFFFF AND DUP2 MSTORE PUSH1 0x20 ADD SWAP1 DUP2 MSTORE PUSH1 0x20 ADD PUSH1 0x0 KECCAK256 PUSH1 0x0 ADD PUSH1 0x0 DUP6 DUP2 MSTORE PUSH1 0x20 ADD SWAP1 DUP2 MSTORE PUSH1 0x20 ADD PUSH1 0x0 KECCAK256 PUSH1 0x1 ADD SLOAD GT ISZERO PUSH2 0x1001 JUMPI PUSH1 0x2 DUP2 PUSH2 0xFFE SWAP2 SWAP1 PUSH2 0x238A JUMP JUMPDEST SWAP1 POP JUMPDEST PUSH1 0x1 PUSH1 0x0 SWAP1 SLOAD SWAP1 PUSH2 0x100 EXP SWAP1 DIV PUSH20 0xFFFFFFFFFFFFFFFFFFFFFFFFFFFFFFFFFFFFFFFF AND PUSH20 0xFFFFFFFFFFFFFFFFFFFFFFFFFFFFFFFFFFFFFFFF AND PUSH4 0xA9059CBB CALLER DUP4 PUSH1 0x40 MLOAD DUP4 PUSH4 0xFFFFFFFF AND PUSH1 0xE0 SHL DUP2 MSTORE PUSH1 0x4 ADD PUSH2 0x105E SWAP3 SWAP2 SWAP1 PUSH2 0x20D2 JUMP JUMPDEST PUSH1 0x20 PUSH1 0x40 MLOAD DUP1 DUP4 SUB DUP2 PUSH1 0x0 DUP8 DUP1 EXTCODESIZE ISZERO DUP1 ISZERO PUSH2 0x1078 JUMPI PUSH1 0x0 DUP1 REVERT JUMPDEST POP GAS CALL ISZERO DUP1 ISZERO PUSH2 0x108C JUMPI RETURNDATASIZE PUSH1 0x0 DUP1 RETURNDATACOPY RETURNDATASIZE PUSH1 0x0 REVERT JUMPDEST POP POP POP POP PUSH1 0x40 MLOAD RETURNDATASIZE PUSH1 0x1F NOT PUSH1 0x1F DUP3 ADD AND DUP3 ADD DUP1 PUSH1 0x40 MSTORE POP DUP2 ADD SWAP1 PUSH2 0x10B0 SWAP2 SWAP1 PUSH2 0x1D3C JUMP JUMPDEST POP PUSH1 0x1 PUSH1 0x0 SWAP1 SLOAD SWAP1 PUSH2 0x100 EXP SWAP1 DIV PUSH20 0xFFFFFFFFFFFFFFFFFFFFFFFFFFFFFFFFFFFFFFFF AND PUSH20 0xFFFFFFFFFFFFFFFFFFFFFFFFFFFFFFFFFFFFFFFF AND PUSH4 0xA9059CBB PUSH1 0x0 DUP1 SLOAD SWAP1 PUSH2 0x100 EXP SWAP1 DIV PUSH20 0xFFFFFFFFFFFFFFFFFFFFFFFFFFFFFFFFFFFFFFFF AND DUP4 PUSH1 0x40 MLOAD DUP4 PUSH4 0xFFFFFFFF AND PUSH1 0xE0 SHL DUP2 MSTORE PUSH1 0x4 ADD PUSH2 0x112E SWAP3 SWAP2 SWAP1 PUSH2 0x20D2 JUMP JUMPDEST PUSH1 0x20 PUSH1 0x40 MLOAD DUP1 DUP4 SUB DUP2 PUSH1 0x0 DUP8 DUP1 EXTCODESIZE ISZERO DUP1 ISZERO PUSH2 0x1148 JUMPI PUSH1 0x0 DUP1 REVERT JUMPDEST POP GAS CALL ISZERO DUP1 ISZERO PUSH2 0x115C JUMPI RETURNDATASIZE PUSH1 0x0 DUP1 RETURNDATACOPY RETURNDATASIZE PUSH1 0x0 REVERT JUMPDEST POP POP POP POP PUSH1 0x40 MLOAD RETURNDATASIZE PUSH1 0x1F NOT PUSH1 0x1F DUP3 ADD AND DUP3 ADD DUP1 PUSH1 0x40 MSTORE POP DUP2 ADD SWAP1 PUSH2 0x1180 SWAP2 SWAP1 PUSH2 0x1D3C JUMP JUMPDEST POP PUSH1 0x0 PUSH1 0x8 PUSH1 0x0 CALLER PUSH20 0xFFFFFFFFFFFFFFFFFFFFFFFFFFFFFFFFFFFFFFFF AND PUSH20 0xFFFFFFFFFFFFFFFFFFFFFFFFFFFFFFFFFFFFFFFF AND DUP2 MSTORE PUSH1 0x20 ADD SWAP1 DUP2 MSTORE PUSH1 0x20 ADD PUSH1 0x0 KECCAK256 PUSH1 0x0 ADD PUSH1 0x0 DUP6 DUP2 MSTORE PUSH1 0x20 ADD SWAP1 DUP2 MSTORE PUSH1 0x20 ADD PUSH1 0x0 KECCAK256 PUSH1 0x0 ADD DUP2 SWAP1 SSTORE POP DUP1 PUSH1 0x8 PUSH1 0x0 CALLER PUSH20 0xFFFFFFFFFFFFFFFFFFFFFFFFFFFFFFFFFFFFFFFF AND PUSH20 0xFFFFFFFFFFFFFFFFFFFFFFFFFFFFFFFFFFFFFFFF AND DUP2 MSTORE PUSH1 0x20 ADD SWAP1 DUP2 MSTORE PUSH1 0x20 ADD PUSH1 0x0 KECCAK256 PUSH1 0x6 ADD PUSH1 0x0 DUP3 DUP3 SLOAD PUSH2 0x122F SWAP2 SWAP1 PUSH2 0x2415 JUMP JUMPDEST SWAP3 POP POP DUP2 SWAP1 SSTORE POP PUSH1 0x1 SWAP2 POP POP SWAP2 SWAP1 POP JUMP JUMPDEST PUSH1 0x0 DUP1 SLOAD SWAP1 PUSH2 0x100 EXP SWAP1 DIV PUSH20 0xFFFFFFFFFFFFFFFFFFFFFFFFFFFFFFFFFFFFFFFF AND DUP2 JUMP JUMPDEST PUSH1 0x0 PUSH1 0x8 PUSH1 0x0 CALLER PUSH20 0xFFFFFFFFFFFFFFFFFFFFFFFFFFFFFFFFFFFFFFFF AND PUSH20 0xFFFFFFFFFFFFFFFFFFFFFFFFFFFFFFFFFFFFFFFF AND DUP2 MSTORE PUSH1 0x20 ADD SWAP1 DUP2 MSTORE PUSH1 0x20 ADD PUSH1 0x0 KECCAK256 PUSH1 0x6 ADD SLOAD SWAP1 POP SWAP1 JUMP JUMPDEST PUSH1 0x60 PUSH1 0x0 PUSH1 0x14 PUSH8 0xFFFFFFFFFFFFFFFF DUP2 GT ISZERO PUSH2 0x12CD JUMPI PUSH2 0x12CC PUSH2 0x2567 JUMP JUMPDEST JUMPDEST PUSH1 0x40 MLOAD SWAP1 DUP1 DUP3 MSTORE DUP1 PUSH1 0x20 MUL PUSH1 0x20 ADD DUP3 ADD PUSH1 0x40 MSTORE DUP1 ISZERO PUSH2 0x12FB JUMPI DUP2 PUSH1 0x20 ADD PUSH1 0x20 DUP3 MUL DUP1 CALLDATASIZE DUP4 CALLDATACOPY DUP1 DUP3 ADD SWAP2 POP POP SWAP1 POP JUMPDEST POP SWAP1 POP PUSH1 0x0 JUMPDEST PUSH1 0x14 DUP2 LT ISZERO PUSH2 0x1419 JUMPI PUSH1 0x0 PUSH1 0x8 PUSH1 0x0 CALLER PUSH20 0xFFFFFFFFFFFFFFFFFFFFFFFFFFFFFFFFFFFFFFFF AND PUSH20 0xFFFFFFFFFFFFFFFFFFFFFFFFFFFFFFFFFFFFFFFF AND DUP2 MSTORE PUSH1 0x20 ADD SWAP1 DUP2 MSTORE PUSH1 0x20 ADD PUSH1 0x0 KECCAK256 PUSH1 0x3 ADD PUSH1 0x0 DUP4 DUP2 MSTORE PUSH1 0x20 ADD SWAP1 DUP2 MSTORE PUSH1 0x20 ADD PUSH1 0x0 KECCAK256 PUSH1 0x0 ADD SLOAD GT ISZERO PUSH2 0x13E4 JUMPI PUSH1 0x8 PUSH1 0x0 CALLER PUSH20 0xFFFFFFFFFFFFFFFFFFFFFFFFFFFFFFFFFFFFFFFF AND PUSH20 0xFFFFFFFFFFFFFFFFFFFFFFFFFFFFFFFFFFFFFFFF AND DUP2 MSTORE PUSH1 0x20 ADD SWAP1 DUP2 MSTORE PUSH1 0x20 ADD PUSH1 0x0 KECCAK256 PUSH1 0x3 ADD PUSH1 0x0 DUP3 DUP2 MSTORE PUSH1 0x20 ADD SWAP1 DUP2 MSTORE PUSH1 0x20 ADD PUSH1 0x0 KECCAK256 PUSH1 0x0 ADD SLOAD DUP3 DUP3 DUP2 MLOAD DUP2 LT PUSH2 0x13D3 JUMPI PUSH2 0x13D2 PUSH2 0x2538 JUMP JUMPDEST JUMPDEST PUSH1 0x20 MUL PUSH1 0x20 ADD ADD DUP2 DUP2 MSTORE POP POP PUSH2 0x1406 JUMP JUMPDEST PUSH1 0x0 DUP3 DUP3 DUP2 MLOAD DUP2 LT PUSH2 0x13F9 JUMPI PUSH2 0x13F8 PUSH2 0x2538 JUMP JUMPDEST JUMPDEST PUSH1 0x20 MUL PUSH1 0x20 ADD ADD DUP2 DUP2 MSTORE POP POP JUMPDEST DUP1 DUP1 PUSH2 0x1411 SWAP1 PUSH2 0x2491 JUMP JUMPDEST SWAP2 POP POP PUSH2 0x1301 JUMP JUMPDEST POP DUP1 SWAP2 POP POP SWAP1 JUMP JUMPDEST PUSH1 0x0 DUP1 PUSH2 0x142C PUSH2 0xD44 JUMP JUMPDEST SWAP1 POP PUSH1 0x0 DUP2 GT PUSH2 0x1471 JUMPI PUSH1 0x40 MLOAD PUSH32 0x8C379A000000000000000000000000000000000000000000000000000000000 DUP2 MSTORE PUSH1 0x4 ADD PUSH2 0x1468 SWAP1 PUSH2 0x21FD JUMP JUMPDEST PUSH1 0x40 MLOAD DUP1 SWAP2 SUB SWAP1 REVERT JUMPDEST PUSH1 0x1 PUSH1 0x0 SWAP1 SLOAD SWAP1 PUSH2 0x100 EXP SWAP1 DIV PUSH20 0xFFFFFFFFFFFFFFFFFFFFFFFFFFFFFFFFFFFFFFFF AND PUSH20 0xFFFFFFFFFFFFFFFFFFFFFFFFFFFFFFFFFFFFFFFF AND PUSH4 0xA9059CBB CALLER DUP4 PUSH1 0x40 MLOAD DUP4 PUSH4 0xFFFFFFFF AND PUSH1 0xE0 SHL DUP2 MSTORE PUSH1 0x4 ADD PUSH2 0x14CE SWAP3 SWAP2 SWAP1 PUSH2 0x20D2 JUMP JUMPDEST PUSH1 0x20 PUSH1 0x40 MLOAD DUP1 DUP4 SUB DUP2 PUSH1 0x0 DUP8 DUP1 EXTCODESIZE ISZERO DUP1 ISZERO PUSH2 0x14E8 JUMPI PUSH1 0x0 DUP1 REVERT JUMPDEST POP GAS CALL ISZERO DUP1 ISZERO PUSH2 0x14FC JUMPI RETURNDATASIZE PUSH1 0x0 DUP1 RETURNDATACOPY RETURNDATASIZE PUSH1 0x0 REVERT JUMPDEST POP POP POP POP PUSH1 0x40 MLOAD RETURNDATASIZE PUSH1 0x1F NOT PUSH1 0x1F DUP3 ADD AND DUP3 ADD DUP1 PUSH1 0x40 MSTORE POP DUP2 ADD SWAP1 PUSH2 0x1520 SWAP2 SWAP1 PUSH2 0x1D3C JUMP JUMPDEST POP DUP1 PUSH1 0x8 PUSH1 0x0 CALLER PUSH20 0xFFFFFFFFFFFFFFFFFFFFFFFFFFFFFFFFFFFFFFFF AND PUSH20 0xFFFFFFFFFFFFFFFFFFFFFFFFFFFFFFFFFFFFFFFF AND DUP2 MSTORE PUSH1 0x20 ADD SWAP1 DUP2 MSTORE PUSH1 0x20 ADD PUSH1 0x0 KECCAK256 PUSH1 0x7 ADD DUP2 SWAP1 SSTORE POP PUSH1 0x1 SWAP2 POP POP SWAP1 JUMP JUMPDEST DUP2 PUSH1 0x6 DUP2 SWAP1 SSTORE POP DUP3 PUSH1 0x5 DUP2 SWAP1 SSTORE POP DUP1 PUSH1 0x4 DUP2 SWAP1 SSTORE POP POP POP POP JUMP JUMPDEST PUSH1 0x8 PUSH1 0x20 MSTORE DUP1 PUSH1 0x0 MSTORE PUSH1 0x40 PUSH1 0x0 KECCAK256 PUSH1 0x0 SWAP2 POP SWAP1 POP DUP1 PUSH1 0x2 ADD PUSH1 0x0 SWAP1 SLOAD SWAP1 PUSH2 0x100 EXP SWAP1 DIV PUSH20 0xFFFFFFFFFFFFFFFFFFFFFFFFFFFFFFFFFFFFFFFF AND SWAP1 DUP1 PUSH1 0x4 ADD SLOAD SWAP1 DUP1 PUSH1 0x5 ADD SLOAD SWAP1 DUP1 PUSH1 0x6 ADD SLOAD SWAP1 DUP1 PUSH1 0x7 ADD SLOAD SWAP1 DUP1 PUSH1 0x8 ADD PUSH1 0x0 SWAP1 SLOAD SWAP1 PUSH2 0x100 EXP SWAP1 DIV PUSH1 0xFF AND SWAP1 POP DUP7 JUMP JUMPDEST PUSH1 0x0 DUP1 SLOAD SWAP1 PUSH2 0x100 EXP SWAP1 DIV PUSH20 0xFFFFFFFFFFFFFFFFFFFFFFFFFFFFFFFFFFFFFFFF AND PUSH20 0xFFFFFFFFFFFFFFFFFFFFFFFFFFFFFFFFFFFFFFFF AND CALLER PUSH20 0xFFFFFFFFFFFFFFFFFFFFFFFFFFFFFFFFFFFFFFFF AND EQ PUSH2 0x1681 JUMPI PUSH1 0x40 MLOAD PUSH32 0x8C379A000000000000000000000000000000000000000000000000000000000 DUP2 MSTORE PUSH1 0x4 ADD PUSH2 0x1678 SWAP1 PUSH2 0x221D JUMP JUMPDEST PUSH1 0x40 MLOAD DUP1 SWAP2 SUB SWAP1 REVERT JUMPDEST DUP1 PUSH1 0x0 DUP1 PUSH2 0x100 EXP DUP2 SLOAD DUP2 PUSH20 0xFFFFFFFFFFFFFFFFFFFFFFFFFFFFFFFFFFFFFFFF MUL NOT AND SWAP1 DUP4 PUSH20 0xFFFFFFFFFFFFFFFFFFFFFFFFFFFFFFFFFFFFFFFF AND MUL OR SWAP1 SSTORE POP POP JUMP JUMPDEST PUSH1 0x60 PUSH1 0x0 PUSH1 0x14 PUSH8 0xFFFFFFFFFFFFFFFF DUP2 GT ISZERO PUSH2 0x16E3 JUMPI PUSH2 0x16E2 PUSH2 0x2567 JUMP JUMPDEST JUMPDEST PUSH1 0x40 MLOAD SWAP1 DUP1 DUP3 MSTORE DUP1 PUSH1 0x20 MUL PUSH1 0x20 ADD DUP3 ADD PUSH1 0x40 MSTORE DUP1 ISZERO PUSH2 0x1711 JUMPI DUP2 PUSH1 0x20 ADD PUSH1 0x20 DUP3 MUL DUP1 CALLDATASIZE DUP4 CALLDATACOPY DUP1 DUP3 ADD SWAP2 POP POP SWAP1 POP JUMPDEST POP SWAP1 POP PUSH1 0x0 JUMPDEST PUSH1 0x14 DUP2 LT ISZERO PUSH2 0x182F JUMPI PUSH1 0x0 PUSH1 0x8 PUSH1 0x0 CALLER PUSH20 0xFFFFFFFFFFFFFFFFFFFFFFFFFFFFFFFFFFFFFFFF AND PUSH20 0xFFFFFFFFFFFFFFFFFFFFFFFFFFFFFFFFFFFFFFFF AND DUP2 MSTORE PUSH1 0x20 ADD SWAP1 DUP2 MSTORE PUSH1 0x20 ADD PUSH1 0x0 KECCAK256 PUSH1 0x3 ADD PUSH1 0x0 DUP4 DUP2 MSTORE PUSH1 0x20 ADD SWAP1 DUP2 MSTORE PUSH1 0x20 ADD PUSH1 0x0 KECCAK256 PUSH1 0x0 ADD SLOAD GT ISZERO PUSH2 0x17FA JUMPI PUSH1 0x8 PUSH1 0x0 CALLER PUSH20 0xFFFFFFFFFFFFFFFFFFFFFFFFFFFFFFFFFFFFFFFF AND PUSH20 0xFFFFFFFFFFFFFFFFFFFFFFFFFFFFFFFFFFFFFFFF AND DUP2 MSTORE PUSH1 0x20 ADD SWAP1 DUP2 MSTORE PUSH1 0x20 ADD PUSH1 0x0 KECCAK256 PUSH1 0x3 ADD PUSH1 0x0 DUP3 DUP2 MSTORE PUSH1 0x20 ADD SWAP1 DUP2 MSTORE PUSH1 0x20 ADD PUSH1 0x0 KECCAK256 PUSH1 0x1 ADD SLOAD DUP3 DUP3 DUP2 MLOAD DUP2 LT PUSH2 0x17E9 JUMPI PUSH2 0x17E8 PUSH2 0x2538 JUMP JUMPDEST JUMPDEST PUSH1 0x20 MUL PUSH1 0x20 ADD ADD DUP2 DUP2 MSTORE POP POP PUSH2 0x181C JUMP JUMPDEST PUSH1 0x0 DUP3 DUP3 DUP2 MLOAD DUP2 LT PUSH2 0x180F JUMPI PUSH2 0x180E PUSH2 0x2538 JUMP JUMPDEST JUMPDEST PUSH1 0x20 MUL PUSH1 0x20 ADD ADD DUP2 DUP2 MSTORE POP POP JUMPDEST DUP1 DUP1 PUSH2 0x1827 SWAP1 PUSH2 0x2491 JUMP JUMPDEST SWAP2 POP POP PUSH2 0x1717 JUMP JUMPDEST POP DUP1 SWAP2 POP POP SWAP1 JUMP JUMPDEST PUSH1 0x4 SLOAD DUP2 JUMP JUMPDEST PUSH1 0x0 DUP3 SWAP1 POP PUSH1 0x0 PUSH1 0x5 PUSH8 0xFFFFFFFFFFFFFFFF DUP2 GT ISZERO PUSH2 0x185F JUMPI PUSH2 0x185E PUSH2 0x2567 JUMP JUMPDEST JUMPDEST PUSH1 0x40 MLOAD SWAP1 DUP1 DUP3 MSTORE DUP1 PUSH1 0x20 MUL PUSH1 0x20 ADD DUP3 ADD PUSH1 0x40 MSTORE DUP1 ISZERO PUSH2 0x188D JUMPI DUP2 PUSH1 0x20 ADD PUSH1 0x20 DUP3 MUL DUP1 CALLDATASIZE DUP4 CALLDATACOPY DUP1 DUP3 ADD SWAP2 POP POP SWAP1 POP JUMPDEST POP SWAP1 POP PUSH8 0x4563918244F40000 DUP2 PUSH1 0x0 DUP2 MLOAD DUP2 LT PUSH2 0x18AD JUMPI PUSH2 0x18AC PUSH2 0x2538 JUMP JUMPDEST JUMPDEST PUSH1 0x20 MUL PUSH1 0x20 ADD ADD DUP2 DUP2 MSTORE POP POP PUSH8 0x29A2241AF62C0000 DUP2 PUSH1 0x1 DUP2 MLOAD DUP2 LT PUSH2 0x18D6 JUMPI PUSH2 0x18D5 PUSH2 0x2538 JUMP JUMPDEST JUMPDEST PUSH1 0x20 MUL PUSH1 0x20 ADD ADD DUP2 DUP2 MSTORE POP POP PUSH8 0x1BC16D674EC80000 DUP2 PUSH1 0x2 DUP2 MLOAD DUP2 LT PUSH2 0x18FF JUMPI PUSH2 0x18FE PUSH2 0x2538 JUMP JUMPDEST JUMPDEST PUSH1 0x20 MUL PUSH1 0x20 ADD ADD DUP2 DUP2 MSTORE POP POP PUSH8 0xDE0B6B3A7640000 DUP2 PUSH1 0x3 DUP2 MLOAD DUP2 LT PUSH2 0x1928 JUMPI PUSH2 0x1927 PUSH2 0x2538 JUMP JUMPDEST JUMPDEST PUSH1 0x20 MUL PUSH1 0x20 ADD ADD DUP2 DUP2 MSTORE POP POP PUSH8 0x6F05B59D3B20000 DUP2 PUSH1 0x4 DUP2 MLOAD DUP2 LT PUSH2 0x1951 JUMPI PUSH2 0x1950 PUSH2 0x2538 JUMP JUMPDEST JUMPDEST PUSH1 0x20 MUL PUSH1 0x20 ADD ADD DUP2 DUP2 MSTORE POP POP PUSH1 0x0 DUP1 PUSH1 0x0 SWAP1 POP JUMPDEST PUSH1 0xA DUP2 LT ISZERO PUSH2 0x1CA0 JUMPI PUSH1 0x0 DUP2 EQ ISZERO PUSH2 0x1980 JUMPI PUSH1 0x0 SWAP2 POP PUSH2 0x19C8 JUMP JUMPDEST PUSH1 0x1 DUP2 EQ ISZERO PUSH2 0x1992 JUMPI PUSH1 0x1 SWAP2 POP PUSH2 0x19C7 JUMP JUMPDEST PUSH1 0x2 DUP2 EQ ISZERO PUSH2 0x19A4 JUMPI PUSH1 0x2 SWAP2 POP PUSH2 0x19C6 JUMP JUMPDEST PUSH1 0x2 DUP2 GT ISZERO PUSH2 0x19B6 JUMPI PUSH1 0x3 SWAP2 POP PUSH2 0x19C5 JUMP JUMPDEST PUSH1 0x7 DUP2 GT ISZERO PUSH2 0x19C4 JUMPI PUSH1 0x4 SWAP2 POP JUMPDEST JUMPDEST JUMPDEST JUMPDEST JUMPDEST PUSH1 0x0 PUSH20 0xFFFFFFFFFFFFFFFFFFFFFFFFFFFFFFFFFFFFFFFF AND PUSH1 0x8 PUSH1 0x0 DUP7 PUSH20 0xFFFFFFFFFFFFFFFFFFFFFFFFFFFFFFFFFFFFFFFF AND PUSH20 0xFFFFFFFFFFFFFFFFFFFFFFFFFFFFFFFFFFFFFFFF AND DUP2 MSTORE PUSH1 0x20 ADD SWAP1 DUP2 MSTORE PUSH1 0x20 ADD PUSH1 0x0 KECCAK256 PUSH1 0x2 ADD PUSH1 0x0 SWAP1 SLOAD SWAP1 PUSH2 0x100 EXP SWAP1 DIV PUSH20 0xFFFFFFFFFFFFFFFFFFFFFFFFFFFFFFFFFFFFFFFF AND PUSH20 0xFFFFFFFFFFFFFFFFFFFFFFFFFFFFFFFFFFFFFFFF AND EQ PUSH2 0x1C88 JUMPI PUSH1 0x8 PUSH1 0x0 DUP6 PUSH20 0xFFFFFFFFFFFFFFFFFFFFFFFFFFFFFFFFFFFFFFFF AND PUSH20 0xFFFFFFFFFFFFFFFFFFFFFFFFFFFFFFFFFFFFFFFF AND DUP2 MSTORE PUSH1 0x20 ADD SWAP1 DUP2 MSTORE PUSH1 0x20 ADD PUSH1 0x0 KECCAK256 PUSH1 0x2 ADD PUSH1 0x0 SWAP1 SLOAD SWAP1 PUSH2 0x100 EXP SWAP1 DIV PUSH20 0xFFFFFFFFFFFFFFFFFFFFFFFFFFFFFFFFFFFFFFFF AND SWAP4 POP PUSH1 0x0 PUSH1 0x64 DUP7 DUP6 DUP6 DUP2 MLOAD DUP2 LT PUSH2 0x1ADB JUMPI PUSH2 0x1ADA PUSH2 0x2538 JUMP JUMPDEST JUMPDEST PUSH1 0x20 MUL PUSH1 0x20 ADD ADD MLOAD PUSH2 0x1AED SWAP2 SWAP1 PUSH2 0x23BB JUMP JUMPDEST PUSH2 0x1AF7 SWAP2 SWAP1 PUSH2 0x238A JUMP JUMPDEST SWAP1 POP PUSH1 0x1 PUSH1 0x0 SWAP1 SLOAD SWAP1 PUSH2 0x100 EXP SWAP1 DIV PUSH20 0xFFFFFFFFFFFFFFFFFFFFFFFFFFFFFFFFFFFFFFFF AND PUSH20 0xFFFFFFFFFFFFFFFFFFFFFFFFFFFFFFFFFFFFFFFF AND PUSH4 0xA9059CBB DUP7 DUP4 PUSH1 0x40 MLOAD DUP4 PUSH4 0xFFFFFFFF AND PUSH1 0xE0 SHL DUP2 MSTORE PUSH1 0x4 ADD PUSH2 0x1B56 SWAP3 SWAP2 SWAP1 PUSH2 0x20D2 JUMP JUMPDEST PUSH1 0x20 PUSH1 0x40 MLOAD DUP1 DUP4 SUB DUP2 PUSH1 0x0 DUP8 DUP1 EXTCODESIZE ISZERO DUP1 ISZERO PUSH2 0x1B70 JUMPI PUSH1 0x0 DUP1 REVERT JUMPDEST POP GAS CALL ISZERO DUP1 ISZERO PUSH2 0x1B84 JUMPI RETURNDATASIZE PUSH1 0x0 DUP1 RETURNDATACOPY RETURNDATASIZE PUSH1 0x0 REVERT JUMPDEST POP POP POP POP PUSH1 0x40 MLOAD RETURNDATASIZE PUSH1 0x1F NOT PUSH1 0x1F DUP3 ADD AND DUP3 ADD DUP1 PUSH1 0x40 MSTORE POP DUP2 ADD SWAP1 PUSH2 0x1BA8 SWAP2 SWAP1 PUSH2 0x1D3C JUMP JUMPDEST POP DUP1 PUSH1 0x8 PUSH1 0x0 DUP8 PUSH20 0xFFFFFFFFFFFFFFFFFFFFFFFFFFFFFFFFFFFFFFFF AND PUSH20 0xFFFFFFFFFFFFFFFFFFFFFFFFFFFFFFFFFFFFFFFF AND DUP2 MSTORE PUSH1 0x20 ADD SWAP1 DUP2 MSTORE PUSH1 0x20 ADD PUSH1 0x0 KECCAK256 PUSH1 0x3 ADD PUSH1 0x0 DUP5 DUP2 MSTORE PUSH1 0x20 ADD SWAP1 DUP2 MSTORE PUSH1 0x20 ADD PUSH1 0x0 KECCAK256 PUSH1 0x0 ADD PUSH1 0x0 DUP3 DUP3 SLOAD PUSH2 0x1C0F SWAP2 SWAP1 PUSH2 0x2334 JUMP JUMPDEST SWAP3 POP POP DUP2 SWAP1 SSTORE POP PUSH1 0x8 PUSH1 0x0 DUP7 PUSH20 0xFFFFFFFFFFFFFFFFFFFFFFFFFFFFFFFFFFFFFFFF AND PUSH20 0xFFFFFFFFFFFFFFFFFFFFFFFFFFFFFFFFFFFFFFFF AND DUP2 MSTORE PUSH1 0x20 ADD SWAP1 DUP2 MSTORE PUSH1 0x20 ADD PUSH1 0x0 KECCAK256 PUSH1 0x3 ADD PUSH1 0x0 DUP4 DUP2 MSTORE PUSH1 0x20 ADD SWAP1 DUP2 MSTORE PUSH1 0x20 ADD PUSH1 0x0 KECCAK256 PUSH1 0x1 ADD PUSH1 0x0 DUP2 SLOAD DUP1 SWAP3 SWAP2 SWAP1 PUSH2 0x1C7D SWAP1 PUSH2 0x2491 JUMP JUMPDEST SWAP2 SWAP1 POP SSTORE POP POP PUSH2 0x1C8D JUMP JUMPDEST PUSH2 0x1CA0 JUMP JUMPDEST DUP1 DUP1 PUSH2 0x1C98 SWAP1 PUSH2 0x2491 JUMP JUMPDEST SWAP2 POP POP PUSH2 0x1965 JUMP JUMPDEST POP POP POP POP POP POP JUMP JUMPDEST PUSH1 0x40 MLOAD DUP1 PUSH1 0x80 ADD PUSH1 0x40 MSTORE DUP1 PUSH1 0x0 DUP2 MSTORE PUSH1 0x20 ADD PUSH1 0x0 DUP2 MSTORE PUSH1 0x20 ADD PUSH1 0x0 DUP2 MSTORE PUSH1 0x20 ADD PUSH1 0x0 DUP2 MSTORE POP SWAP1 JUMP JUMPDEST PUSH1 0x0 DUP2 CALLDATALOAD SWAP1 POP PUSH2 0x1CDF DUP2 PUSH2 0x26B1 JUMP JUMPDEST SWAP3 SWAP2 POP POP JUMP JUMPDEST PUSH1 0x0 DUP2 MLOAD SWAP1 POP PUSH2 0x1CF4 DUP2 PUSH2 0x26C8 JUMP JUMPDEST SWAP3 SWAP2 POP POP JUMP JUMPDEST PUSH1 0x0 DUP2 CALLDATALOAD SWAP1 POP PUSH2 0x1D09 DUP2 PUSH2 0x26DF JUMP JUMPDEST SWAP3 SWAP2 POP POP JUMP JUMPDEST PUSH1 0x0 PUSH1 0x20 DUP3 DUP5 SUB SLT ISZERO PUSH2 0x1D25 JUMPI PUSH2 0x1D24 PUSH2 0x2596 JUMP JUMPDEST JUMPDEST PUSH1 0x0 PUSH2 0x1D33 DUP5 DUP3 DUP6 ADD PUSH2 0x1CD0 JUMP JUMPDEST SWAP2 POP POP SWAP3 SWAP2 POP POP JUMP JUMPDEST PUSH1 0x0 PUSH1 0x20 DUP3 DUP5 SUB SLT ISZERO PUSH2 0x1D52 JUMPI PUSH2 0x1D51 PUSH2 0x2596 JUMP JUMPDEST JUMPDEST PUSH1 0x0 PUSH2 0x1D60 DUP5 DUP3 DUP6 ADD PUSH2 0x1CE5 JUMP JUMPDEST SWAP2 POP POP SWAP3 SWAP2 POP POP JUMP JUMPDEST PUSH1 0x0 PUSH1 0x20 DUP3 DUP5 SUB SLT ISZERO PUSH2 0x1D7F JUMPI PUSH2 0x1D7E PUSH2 0x2596 JUMP JUMPDEST JUMPDEST PUSH1 0x0 PUSH2 0x1D8D DUP5 DUP3 DUP6 ADD PUSH2 0x1CFA JUMP JUMPDEST SWAP2 POP POP SWAP3 SWAP2 POP POP JUMP JUMPDEST PUSH1 0x0 DUP1 PUSH1 0x40 DUP4 DUP6 SUB SLT ISZERO PUSH2 0x1DAD JUMPI PUSH2 0x1DAC PUSH2 0x2596 JUMP JUMPDEST JUMPDEST PUSH1 0x0 PUSH2 0x1DBB DUP6 DUP3 DUP7 ADD PUSH2 0x1CFA JUMP JUMPDEST SWAP3 POP POP PUSH1 0x20 PUSH2 0x1DCC DUP6 DUP3 DUP7 ADD PUSH2 0x1CD0 JUMP JUMPDEST SWAP2 POP POP SWAP3 POP SWAP3 SWAP1 POP JUMP JUMPDEST PUSH1 0x0 DUP1 PUSH1 0x0 PUSH1 0x60 DUP5 DUP7 SUB SLT ISZERO PUSH2 0x1DEF JUMPI PUSH2 0x1DEE PUSH2 0x2596 JUMP JUMPDEST JUMPDEST PUSH1 0x0 PUSH2 0x1DFD DUP7 DUP3 DUP8 ADD PUSH2 0x1CFA JUMP JUMPDEST SWAP4 POP POP PUSH1 0x20 PUSH2 0x1E0E DUP7 DUP3 DUP8 ADD PUSH2 0x1CFA JUMP JUMPDEST SWAP3 POP POP PUSH1 0x40 PUSH2 0x1E1F DUP7 DUP3 DUP8 ADD PUSH2 0x1CFA JUMP JUMPDEST SWAP2 POP POP SWAP3 POP SWAP3 POP SWAP3 JUMP JUMPDEST PUSH1 0x0 PUSH2 0x1E35 DUP4 DUP4 PUSH2 0x1E71 JUMP JUMPDEST PUSH1 0x20 DUP4 ADD SWAP1 POP SWAP3 SWAP2 POP POP JUMP JUMPDEST PUSH1 0x0 PUSH2 0x1E4D DUP4 DUP4 PUSH2 0x2044 JUMP JUMPDEST PUSH1 0x80 DUP4 ADD SWAP1 POP SWAP3 SWAP2 POP POP JUMP JUMPDEST PUSH1 0x0 PUSH2 0x1E65 DUP4 DUP4 PUSH2 0x2099 JUMP JUMPDEST PUSH1 0x20 DUP4 ADD SWAP1 POP SWAP3 SWAP2 POP POP JUMP JUMPDEST PUSH2 0x1E7A DUP2 PUSH2 0x2449 JUMP JUMPDEST DUP3 MSTORE POP POP JUMP JUMPDEST PUSH2 0x1E89 DUP2 PUSH2 0x2449 JUMP JUMPDEST DUP3 MSTORE POP POP JUMP JUMPDEST PUSH1 0x0 PUSH2 0x1E9A DUP3 PUSH2 0x22A8 JUMP JUMPDEST PUSH2 0x1EA4 DUP2 DUP6 PUSH2 0x22F0 JUMP JUMPDEST SWAP4 POP PUSH2 0x1EAF DUP4 PUSH2 0x2278 JUMP JUMPDEST DUP1 PUSH1 0x0 JUMPDEST DUP4 DUP2 LT ISZERO PUSH2 0x1EE0 JUMPI DUP2 MLOAD PUSH2 0x1EC7 DUP9 DUP3 PUSH2 0x1E29 JUMP JUMPDEST SWAP8 POP PUSH2 0x1ED2 DUP4 PUSH2 0x22C9 JUMP JUMPDEST SWAP3 POP POP PUSH1 0x1 DUP2 ADD SWAP1 POP PUSH2 0x1EB3 JUMP JUMPDEST POP DUP6 SWAP4 POP POP POP POP SWAP3 SWAP2 POP POP JUMP JUMPDEST PUSH1 0x0 PUSH2 0x1EF8 DUP3 PUSH2 0x22B3 JUMP JUMPDEST PUSH2 0x1F02 DUP2 DUP6 PUSH2 0x2301 JUMP JUMPDEST SWAP4 POP PUSH2 0x1F0D DUP4 PUSH2 0x2288 JUMP JUMPDEST DUP1 PUSH1 0x0 JUMPDEST DUP4 DUP2 LT ISZERO PUSH2 0x1F3E JUMPI DUP2 MLOAD PUSH2 0x1F25 DUP9 DUP3 PUSH2 0x1E41 JUMP JUMPDEST SWAP8 POP PUSH2 0x1F30 DUP4 PUSH2 0x22D6 JUMP JUMPDEST SWAP3 POP POP PUSH1 0x1 DUP2 ADD SWAP1 POP PUSH2 0x1F11 JUMP JUMPDEST POP DUP6 SWAP4 POP POP POP POP SWAP3 SWAP2 POP POP JUMP JUMPDEST PUSH1 0x0 PUSH2 0x1F56 DUP3 PUSH2 0x22BE JUMP JUMPDEST PUSH2 0x1F60 DUP2 DUP6 PUSH2 0x2312 JUMP JUMPDEST SWAP4 POP PUSH2 0x1F6B DUP4 PUSH2 0x2298 JUMP JUMPDEST DUP1 PUSH1 0x0 JUMPDEST DUP4 DUP2 LT ISZERO PUSH2 0x1F9C JUMPI DUP2 MLOAD PUSH2 0x1F83 DUP9 DUP3 PUSH2 0x1E59 JUMP JUMPDEST SWAP8 POP PUSH2 0x1F8E DUP4 PUSH2 0x22E3 JUMP JUMPDEST SWAP3 POP POP PUSH1 0x1 DUP2 ADD SWAP1 POP PUSH2 0x1F6F JUMP JUMPDEST POP DUP6 SWAP4 POP POP POP POP SWAP3 SWAP2 POP POP JUMP JUMPDEST PUSH2 0x1FB2 DUP2 PUSH2 0x245B JUMP JUMPDEST DUP3 MSTORE POP POP JUMP JUMPDEST PUSH1 0x0 PUSH2 0x1FC5 PUSH1 0x25 DUP4 PUSH2 0x2323 JUMP JUMPDEST SWAP2 POP PUSH2 0x1FD0 DUP3 PUSH2 0x259B JUMP JUMPDEST PUSH1 0x40 DUP3 ADD SWAP1 POP SWAP2 SWAP1 POP JUMP JUMPDEST PUSH1 0x0 PUSH2 0x1FE8 PUSH1 0x22 DUP4 PUSH2 0x2323 JUMP JUMPDEST SWAP2 POP PUSH2 0x1FF3 DUP3 PUSH2 0x25EA JUMP JUMPDEST PUSH1 0x40 DUP3 ADD SWAP1 POP SWAP2 SWAP1 POP JUMP JUMPDEST PUSH1 0x0 PUSH2 0x200B PUSH1 0x21 DUP4 PUSH2 0x2323 JUMP JUMPDEST SWAP2 POP PUSH2 0x2016 DUP3 PUSH2 0x2639 JUMP JUMPDEST PUSH1 0x40 DUP3 ADD SWAP1 POP SWAP2 SWAP1 POP JUMP JUMPDEST PUSH1 0x0 PUSH2 0x202E PUSH1 0x1F DUP4 PUSH2 0x2323 JUMP JUMPDEST SWAP2 POP PUSH2 0x2039 DUP3 PUSH2 0x2688 JUMP JUMPDEST PUSH1 0x20 DUP3 ADD SWAP1 POP SWAP2 SWAP1 POP JUMP JUMPDEST PUSH1 0x80 DUP3 ADD PUSH1 0x0 DUP3 ADD MLOAD PUSH2 0x205A PUSH1 0x0 DUP6 ADD DUP3 PUSH2 0x2099 JUMP JUMPDEST POP PUSH1 0x20 DUP3 ADD MLOAD PUSH2 0x206D PUSH1 0x20 DUP6 ADD DUP3 PUSH2 0x2099 JUMP JUMPDEST POP PUSH1 0x40 DUP3 ADD MLOAD PUSH2 0x2080 PUSH1 0x40 DUP6 ADD DUP3 PUSH2 0x2099 JUMP JUMPDEST POP PUSH1 0x60 DUP3 ADD MLOAD PUSH2 0x2093 PUSH1 0x60 DUP6 ADD DUP3 PUSH2 0x2099 JUMP JUMPDEST POP POP POP POP JUMP JUMPDEST PUSH2 0x20A2 DUP2 PUSH2 0x2487 JUMP JUMPDEST DUP3 MSTORE POP POP JUMP JUMPDEST PUSH2 0x20B1 DUP2 PUSH2 0x2487 JUMP JUMPDEST DUP3 MSTORE POP POP JUMP JUMPDEST PUSH1 0x0 PUSH1 0x20 DUP3 ADD SWAP1 POP PUSH2 0x20CC PUSH1 0x0 DUP4 ADD DUP5 PUSH2 0x1E80 JUMP JUMPDEST SWAP3 SWAP2 POP POP JUMP JUMPDEST PUSH1 0x0 PUSH1 0x40 DUP3 ADD SWAP1 POP PUSH2 0x20E7 PUSH1 0x0 DUP4 ADD DUP6 PUSH2 0x1E80 JUMP JUMPDEST PUSH2 0x20F4 PUSH1 0x20 DUP4 ADD DUP5 PUSH2 0x20A8 JUMP JUMPDEST SWAP4 SWAP3 POP POP POP JUMP JUMPDEST PUSH1 0x0 PUSH1 0xC0 DUP3 ADD SWAP1 POP PUSH2 0x2110 PUSH1 0x0 DUP4 ADD DUP10 PUSH2 0x1E80 JUMP JUMPDEST PUSH2 0x211D PUSH1 0x20 DUP4 ADD DUP9 PUSH2 0x20A8 JUMP JUMPDEST PUSH2 0x212A PUSH1 0x40 DUP4 ADD DUP8 PUSH2 0x20A8 JUMP JUMPDEST PUSH2 0x2137 PUSH1 0x60 DUP4 ADD DUP7 PUSH2 0x20A8 JUMP JUMPDEST PUSH2 0x2144 PUSH1 0x80 DUP4 ADD DUP6 PUSH2 0x20A8 JUMP JUMPDEST PUSH2 0x2151 PUSH1 0xA0 DUP4 ADD DUP5 PUSH2 0x1FA9 JUMP JUMPDEST SWAP8 SWAP7 POP POP POP POP POP POP POP JUMP JUMPDEST PUSH1 0x0 PUSH1 0x20 DUP3 ADD SWAP1 POP DUP2 DUP2 SUB PUSH1 0x0 DUP4 ADD MSTORE PUSH2 0x2176 DUP2 DUP5 PUSH2 0x1E8F JUMP JUMPDEST SWAP1 POP SWAP3 SWAP2 POP POP JUMP JUMPDEST PUSH1 0x0 PUSH1 0x20 DUP3 ADD SWAP1 POP DUP2 DUP2 SUB PUSH1 0x0 DUP4 ADD MSTORE PUSH2 0x2198 DUP2 DUP5 PUSH2 0x1EED JUMP JUMPDEST SWAP1 POP SWAP3 SWAP2 POP POP JUMP JUMPDEST PUSH1 0x0 PUSH1 0x20 DUP3 ADD SWAP1 POP DUP2 DUP2 SUB PUSH1 0x0 DUP4 ADD MSTORE PUSH2 0x21BA DUP2 DUP5 PUSH2 0x1F4B JUMP JUMPDEST SWAP1 POP SWAP3 SWAP2 POP POP JUMP JUMPDEST PUSH1 0x0 PUSH1 0x20 DUP3 ADD SWAP1 POP PUSH2 0x21D7 PUSH1 0x0 DUP4 ADD DUP5 PUSH2 0x1FA9 JUMP JUMPDEST SWAP3 SWAP2 POP POP JUMP JUMPDEST PUSH1 0x0 PUSH1 0x20 DUP3 ADD SWAP1 POP DUP2 DUP2 SUB PUSH1 0x0 DUP4 ADD MSTORE PUSH2 0x21F6 DUP2 PUSH2 0x1FB8 JUMP JUMPDEST SWAP1 POP SWAP2 SWAP1 POP JUMP JUMPDEST PUSH1 0x0 PUSH1 0x20 DUP3 ADD SWAP1 POP DUP2 DUP2 SUB PUSH1 0x0 DUP4 ADD MSTORE PUSH2 0x2216 DUP2 PUSH2 0x1FDB JUMP JUMPDEST SWAP1 POP SWAP2 SWAP1 POP JUMP JUMPDEST PUSH1 0x0 PUSH1 0x20 DUP3 ADD SWAP1 POP DUP2 DUP2 SUB PUSH1 0x0 DUP4 ADD MSTORE PUSH2 0x2236 DUP2 PUSH2 0x1FFE JUMP JUMPDEST SWAP1 POP SWAP2 SWAP1 POP JUMP JUMPDEST PUSH1 0x0 PUSH1 0x20 DUP3 ADD SWAP1 POP DUP2 DUP2 SUB PUSH1 0x0 DUP4 ADD MSTORE PUSH2 0x2256 DUP2 PUSH2 0x2021 JUMP JUMPDEST SWAP1 POP SWAP2 SWAP1 POP JUMP JUMPDEST PUSH1 0x0 PUSH1 0x20 DUP3 ADD SWAP1 POP PUSH2 0x2272 PUSH1 0x0 DUP4 ADD DUP5 PUSH2 0x20A8 JUMP JUMPDEST SWAP3 SWAP2 POP POP JUMP JUMPDEST PUSH1 0x0 DUP2 SWAP1 POP PUSH1 0x20 DUP3 ADD SWAP1 POP SWAP2 SWAP1 POP JUMP JUMPDEST PUSH1 0x0 DUP2 SWAP1 POP PUSH1 0x20 DUP3 ADD SWAP1 POP SWAP2 SWAP1 POP JUMP JUMPDEST PUSH1 0x0 DUP2 SWAP1 POP PUSH1 0x20 DUP3 ADD SWAP1 POP SWAP2 SWAP1 POP JUMP JUMPDEST PUSH1 0x0 DUP2 MLOAD SWAP1 POP SWAP2 SWAP1 POP JUMP JUMPDEST PUSH1 0x0 DUP2 MLOAD SWAP1 POP SWAP2 SWAP1 POP JUMP JUMPDEST PUSH1 0x0 DUP2 MLOAD SWAP1 POP SWAP2 SWAP1 POP JUMP JUMPDEST PUSH1 0x0 PUSH1 0x20 DUP3 ADD SWAP1 POP SWAP2 SWAP1 POP JUMP JUMPDEST PUSH1 0x0 PUSH1 0x20 DUP3 ADD SWAP1 POP SWAP2 SWAP1 POP JUMP JUMPDEST PUSH1 0x0 PUSH1 0x20 DUP3 ADD SWAP1 POP SWAP2 SWAP1 POP JUMP JUMPDEST PUSH1 0x0 DUP3 DUP3 MSTORE PUSH1 0x20 DUP3 ADD SWAP1 POP SWAP3 SWAP2 POP POP JUMP JUMPDEST PUSH1 0x0 DUP3 DUP3 MSTORE PUSH1 0x20 DUP3 ADD SWAP1 POP SWAP3 SWAP2 POP POP JUMP JUMPDEST PUSH1 0x0 DUP3 DUP3 MSTORE PUSH1 0x20 DUP3 ADD SWAP1 POP SWAP3 SWAP2 POP POP JUMP JUMPDEST PUSH1 0x0 DUP3 DUP3 MSTORE PUSH1 0x20 DUP3 ADD SWAP1 POP SWAP3 SWAP2 POP POP JUMP JUMPDEST PUSH1 0x0 PUSH2 0x233F DUP3 PUSH2 0x2487 JUMP JUMPDEST SWAP2 POP PUSH2 0x234A DUP4 PUSH2 0x2487 JUMP JUMPDEST SWAP3 POP DUP3 PUSH32 0xFFFFFFFFFFFFFFFFFFFFFFFFFFFFFFFFFFFFFFFFFFFFFFFFFFFFFFFFFFFFFFFF SUB DUP3 GT ISZERO PUSH2 0x237F JUMPI PUSH2 0x237E PUSH2 0x24DA JUMP JUMPDEST JUMPDEST DUP3 DUP3 ADD SWAP1 POP SWAP3 SWAP2 POP POP JUMP JUMPDEST PUSH1 0x0 PUSH2 0x2395 DUP3 PUSH2 0x2487 JUMP JUMPDEST SWAP2 POP PUSH2 0x23A0 DUP4 PUSH2 0x2487 JUMP JUMPDEST SWAP3 POP DUP3 PUSH2 0x23B0 JUMPI PUSH2 0x23AF PUSH2 0x2509 JUMP JUMPDEST JUMPDEST DUP3 DUP3 DIV SWAP1 POP SWAP3 SWAP2 POP POP JUMP JUMPDEST PUSH1 0x0 PUSH2 0x23C6 DUP3 PUSH2 0x2487 JUMP JUMPDEST SWAP2 POP PUSH2 0x23D1 DUP4 PUSH2 0x2487 JUMP JUMPDEST SWAP3 POP DUP2 PUSH32 0xFFFFFFFFFFFFFFFFFFFFFFFFFFFFFFFFFFFFFFFFFFFFFFFFFFFFFFFFFFFFFFFF DIV DUP4 GT DUP3 ISZERO ISZERO AND ISZERO PUSH2 0x240A JUMPI PUSH2 0x2409 PUSH2 0x24DA JUMP JUMPDEST JUMPDEST DUP3 DUP3 MUL SWAP1 POP SWAP3 SWAP2 POP POP JUMP JUMPDEST PUSH1 0x0 PUSH2 0x2420 DUP3 PUSH2 0x2487 JUMP JUMPDEST SWAP2 POP PUSH2 0x242B DUP4 PUSH2 0x2487 JUMP JUMPDEST SWAP3 POP DUP3 DUP3 LT ISZERO PUSH2 0x243E JUMPI PUSH2 0x243D PUSH2 0x24DA JUMP JUMPDEST JUMPDEST DUP3 DUP3 SUB SWAP1 POP SWAP3 SWAP2 POP POP JUMP JUMPDEST PUSH1 0x0 PUSH2 0x2454 DUP3 PUSH2 0x2467 JUMP JUMPDEST SWAP1 POP SWAP2 SWAP1 POP JUMP JUMPDEST PUSH1 0x0 DUP2 ISZERO ISZERO SWAP1 POP SWAP2 SWAP1 POP JUMP JUMPDEST PUSH1 0x0 PUSH20 0xFFFFFFFFFFFFFFFFFFFFFFFFFFFFFFFFFFFFFFFF DUP3 AND SWAP1 POP SWAP2 SWAP1 POP JUMP JUMPDEST PUSH1 0x0 DUP2 SWAP1 POP SWAP2 SWAP1 POP JUMP JUMPDEST PUSH1 0x0 PUSH2 0x249C DUP3 PUSH2 0x2487 JUMP JUMPDEST SWAP2 POP PUSH32 0xFFFFFFFFFFFFFFFFFFFFFFFFFFFFFFFFFFFFFFFFFFFFFFFFFFFFFFFFFFFFFFFF DUP3 EQ ISZERO PUSH2 0x24CF JUMPI PUSH2 0x24CE PUSH2 0x24DA JUMP JUMPDEST JUMPDEST PUSH1 0x1 DUP3 ADD SWAP1 POP SWAP2 SWAP1 POP JUMP JUMPDEST PUSH32 0x4E487B7100000000000000000000000000000000000000000000000000000000 PUSH1 0x0 MSTORE PUSH1 0x11 PUSH1 0x4 MSTORE PUSH1 0x24 PUSH1 0x0 REVERT JUMPDEST PUSH32 0x4E487B7100000000000000000000000000000000000000000000000000000000 PUSH1 0x0 MSTORE PUSH1 0x12 PUSH1 0x4 MSTORE PUSH1 0x24 PUSH1 0x0 REVERT JUMPDEST PUSH32 0x4E487B7100000000000000000000000000000000000000000000000000000000 PUSH1 0x0 MSTORE PUSH1 0x32 PUSH1 0x4 MSTORE PUSH1 0x24 PUSH1 0x0 REVERT JUMPDEST PUSH32 0x4E487B7100000000000000000000000000000000000000000000000000000000 PUSH1 0x0 MSTORE PUSH1 0x41 PUSH1 0x4 MSTORE PUSH1 0x24 PUSH1 0x0 REVERT JUMPDEST PUSH1 0x0 DUP1 REVERT JUMPDEST PUSH32 0x796F7520646F6E74206861766520696E766573746D656E7420746F2077697468 PUSH1 0x0 DUP3 ADD MSTORE PUSH32 0x647261776E000000000000000000000000000000000000000000000000000000 PUSH1 0x20 DUP3 ADD MSTORE POP JUMP JUMPDEST PUSH32 0x796F7520646F6E742068617665207265776172647320746F2077697468647261 PUSH1 0x0 DUP3 ADD MSTORE PUSH32 0x776E000000000000000000000000000000000000000000000000000000000000 PUSH1 0x20 DUP3 ADD MSTORE POP JUMP JUMPDEST PUSH32 0x6F6E6C79204F776E65722063616E2063616C6C20746869732066756E6374696F PUSH1 0x0 DUP3 ADD MSTORE PUSH32 0x6E00000000000000000000000000000000000000000000000000000000000000 PUSH1 0x20 DUP3 ADD MSTORE POP JUMP JUMPDEST PUSH32 0x76616C7565206973206E6F742067726561746572207468616E20313030303000 PUSH1 0x0 DUP3 ADD MSTORE POP JUMP JUMPDEST PUSH2 0x26BA DUP2 PUSH2 0x2449 JUMP JUMPDEST DUP2 EQ PUSH2 0x26C5 JUMPI PUSH1 0x0 DUP1 REVERT JUMPDEST POP JUMP JUMPDEST PUSH2 0x26D1 DUP2 PUSH2 0x245B JUMP JUMPDEST DUP2 EQ PUSH2 0x26DC JUMPI PUSH1 0x0 DUP1 REVERT JUMPDEST POP JUMP JUMPDEST PUSH2 0x26E8 DUP2 PUSH2 0x2487 JUMP JUMPDEST DUP2 EQ PUSH2 0x26F3 JUMPI PUSH1 0x0 DUP1 REVERT JUMPDEST POP JUMP INVALID LOG2 PUSH5 0x6970667358 0x22 SLT KECCAK256 0xBE ORIGIN JUMPI PUSH6 0xFD0C23BCD41C 0xAF SIGNEXTEND 0xDC RETURNDATASIZE DIFFICULTY 0xAF 0x49 SWAP1 DUP14 EXTCODECOPY 0xFB 0xB1 SLOAD 0xC0 0xDA 0x2D 0x2C 0xC1 0x29 DUP4 DUP14 0xB3 PUSH5 0x736F6C6343 STOP ADDMOD SMOD STOP CALLER "
				},
				"gasEstimates": {
					"creation": {
						"codeDepositCost": "2005600",
						"executionCost": "163351",
						"totalCost": "2168951"
					},
					"external": {
						"DUSDReferralsList()": "infinite",
						"DUSDTotalReferrals()": "2608",
						"DUSDinvestor(address)": "infinite",
						"Stake(uint256,address)": "infinite",
						"getAllDUSDinvestments()": "infinite",
						"getReward()": "infinite",
						"getTotalInvestmentDUSD()": "2599",
						"owner()": "2556",
						"referralLevel_count()": "infinite",
						"referralLevel_earning()": "infinite",
						"rewardToken()": "2539",
						"setReward(uint256)": "22610",
						"set_max_Stake_amount(uint256)": "22631",
						"set_min_Stake_amount(uint256)": "22565",
						"set_values(uint256,uint256,uint256)": "infinite",
						"totalDUSDInvestors()": "2475",
						"transferOwnership(address)": "26955",
						"unStake(uint256)": "infinite",
						"withdrawReward()": "infinite"
					},
					"internal": {
						"sendRewardToDUSDReferrals(address,uint256)": "infinite"
					}
				},
				"methodIdentifiers": {
					"DUSDReferralsList()": "0c5f58f4",
					"DUSDTotalReferrals()": "1e8aba35",
					"DUSDinvestor(address)": "d3560ee8",
					"Stake(uint256,address)": "2bccdce6",
					"getAllDUSDinvestments()": "3a1e0833",
					"getReward()": "3d18b912",
					"getTotalInvestmentDUSD()": "929f6bbe",
					"owner()": "8da5cb5b",
					"referralLevel_count()": "f790b81a",
					"referralLevel_earning()": "a61be99d",
					"rewardToken()": "f7c618c1",
					"setReward(uint256)": "293be456",
					"set_max_Stake_amount(uint256)": "500cb85f",
					"set_min_Stake_amount(uint256)": "32d4e783",
					"set_values(uint256,uint256,uint256)": "ce10db0a",
					"totalDUSDInvestors()": "10cde60a",
					"transferOwnership(address)": "f2fde38b",
					"unStake(uint256)": "5d3eea91",
					"withdrawReward()": "c885bc58"
				}
			},
			"storageLayout": {
				"storage": [
					{
						"astId": 24,
						"contract": "contracts/stake_reward_MLM.sol:Invest",
						"label": "owner",
						"offset": 0,
						"slot": "0",
						"type": "t_address"
					},
					{
						"astId": 27,
						"contract": "contracts/stake_reward_MLM.sol:Invest",
						"label": "SMCcontract",
						"offset": 0,
						"slot": "1",
						"type": "t_address"
					},
					{
						"astId": 30,
						"contract": "contracts/stake_reward_MLM.sol:Invest",
						"label": "BUSDcontract",
						"offset": 0,
						"slot": "2",
						"type": "t_address"
					},
					{
						"astId": 32,
						"contract": "contracts/stake_reward_MLM.sol:Invest",
						"label": "totalDUSDInvestors",
						"offset": 0,
						"slot": "3",
						"type": "t_uint256"
					},
					{
						"astId": 35,
						"contract": "contracts/stake_reward_MLM.sol:Invest",
						"label": "rewardToken",
						"offset": 0,
						"slot": "4",
						"type": "t_uint256"
					},
					{
						"astId": 38,
						"contract": "contracts/stake_reward_MLM.sol:Invest",
						"label": "min_Stake_amount",
						"offset": 0,
						"slot": "5",
						"type": "t_uint256"
					},
					{
						"astId": 41,
						"contract": "contracts/stake_reward_MLM.sol:Invest",
						"label": "max_Stake_amount",
						"offset": 0,
						"slot": "6",
						"type": "t_uint256"
					},
					{
						"astId": 44,
						"contract": "contracts/stake_reward_MLM.sol:Invest",
						"label": "investmentPeriod",
						"offset": 0,
						"slot": "7",
						"type": "t_uint256"
					},
					{
						"astId": 89,
						"contract": "contracts/stake_reward_MLM.sol:Invest",
						"label": "DUSDinvestor",
						"offset": 0,
						"slot": "8",
						"type": "t_mapping(t_address,t_struct(Data)84_storage)"
					}
				],
				"types": {
					"t_address": {
						"encoding": "inplace",
						"label": "address",
						"numberOfBytes": "20"
					},
					"t_array(t_address)dyn_storage": {
						"base": "t_address",
						"encoding": "dynamic_array",
						"label": "address[]",
						"numberOfBytes": "32"
					},
					"t_bool": {
						"encoding": "inplace",
						"label": "bool",
						"numberOfBytes": "1"
					},
					"t_mapping(t_address,t_struct(Data)84_storage)": {
						"encoding": "mapping",
						"key": "t_address",
						"label": "mapping(address => struct Invest.Data)",
						"numberOfBytes": "32",
						"value": "t_struct(Data)84_storage"
					},
					"t_mapping(t_uint256,t_struct(allInvestments)53_storage)": {
						"encoding": "mapping",
						"key": "t_uint256",
						"label": "mapping(uint256 => struct Invest.allInvestments)",
						"numberOfBytes": "32",
						"value": "t_struct(allInvestments)53_storage"
					},
					"t_mapping(t_uint256,t_struct(ref_data)58_storage)": {
						"encoding": "mapping",
						"key": "t_uint256",
						"label": "mapping(uint256 => struct Invest.ref_data)",
						"numberOfBytes": "32",
						"value": "t_struct(ref_data)58_storage"
					},
					"t_struct(Data)84_storage": {
						"encoding": "inplace",
						"label": "struct Invest.Data",
						"members": [
							{
								"astId": 63,
								"contract": "contracts/stake_reward_MLM.sol:Invest",
								"label": "investment",
								"offset": 0,
								"slot": "0",
								"type": "t_mapping(t_uint256,t_struct(allInvestments)53_storage)"
							},
							{
								"astId": 66,
								"contract": "contracts/stake_reward_MLM.sol:Invest",
								"label": "hisReferrals",
								"offset": 0,
								"slot": "1",
								"type": "t_array(t_address)dyn_storage"
							},
							{
								"astId": 68,
								"contract": "contracts/stake_reward_MLM.sol:Invest",
								"label": "referralFrom",
								"offset": 0,
								"slot": "2",
								"type": "t_address"
							},
							{
								"astId": 73,
								"contract": "contracts/stake_reward_MLM.sol:Invest",
								"label": "referralLevel",
								"offset": 0,
								"slot": "3",
								"type": "t_mapping(t_uint256,t_struct(ref_data)58_storage)"
							},
							{
								"astId": 75,
								"contract": "contracts/stake_reward_MLM.sol:Invest",
								"label": "reward",
								"offset": 0,
								"slot": "4",
								"type": "t_uint256"
							},
							{
								"astId": 77,
								"contract": "contracts/stake_reward_MLM.sol:Invest",
								"label": "noOfInvestment",
								"offset": 0,
								"slot": "5",
								"type": "t_uint256"
							},
							{
								"astId": 79,
								"contract": "contracts/stake_reward_MLM.sol:Invest",
								"label": "totalInvestment",
								"offset": 0,
								"slot": "6",
								"type": "t_uint256"
							},
							{
								"astId": 81,
								"contract": "contracts/stake_reward_MLM.sol:Invest",
								"label": "totalWithdraw_reward",
								"offset": 0,
								"slot": "7",
								"type": "t_uint256"
							},
							{
								"astId": 83,
								"contract": "contracts/stake_reward_MLM.sol:Invest",
								"label": "investBefore",
								"offset": 0,
								"slot": "8",
								"type": "t_bool"
							}
						],
						"numberOfBytes": "288"
					},
					"t_struct(allInvestments)53_storage": {
						"encoding": "inplace",
						"label": "struct Invest.allInvestments",
						"members": [
							{
								"astId": 46,
								"contract": "contracts/stake_reward_MLM.sol:Invest",
								"label": "investedAmount",
								"offset": 0,
								"slot": "0",
								"type": "t_uint256"
							},
							{
								"astId": 48,
								"contract": "contracts/stake_reward_MLM.sol:Invest",
								"label": "withdrawnTime",
								"offset": 0,
								"slot": "1",
								"type": "t_uint256"
							},
							{
								"astId": 50,
								"contract": "contracts/stake_reward_MLM.sol:Invest",
								"label": "DepositTime",
								"offset": 0,
								"slot": "2",
								"type": "t_uint256"
							},
							{
								"astId": 52,
								"contract": "contracts/stake_reward_MLM.sol:Invest",
								"label": "investmentNum",
								"offset": 0,
								"slot": "3",
								"type": "t_uint256"
							}
						],
						"numberOfBytes": "128"
					},
					"t_struct(ref_data)58_storage": {
						"encoding": "inplace",
						"label": "struct Invest.ref_data",
						"members": [
							{
								"astId": 55,
								"contract": "contracts/stake_reward_MLM.sol:Invest",
								"label": "reward",
								"offset": 0,
								"slot": "0",
								"type": "t_uint256"
							},
							{
								"astId": 57,
								"contract": "contracts/stake_reward_MLM.sol:Invest",
								"label": "count",
								"offset": 0,
								"slot": "1",
								"type": "t_uint256"
							}
						],
						"numberOfBytes": "64"
					},
					"t_uint256": {
						"encoding": "inplace",
						"label": "uint256",
						"numberOfBytes": "32"
					}
				}
			},
			"userdoc": {
				"kind": "user",
				"methods": {},
				"version": 1
			}
		}
	}
}