{
	"contracts/stake_reward_MLM.sol": {
		"Invest": {
			"abi": [
				{
					"inputs": [],
					"stateMutability": "nonpayable",
					"type": "constructor"
				},
				{
					"inputs": [],
					"name": "DUSDReferralsList",
					"outputs": [
						{
							"internalType": "address[]",
							"name": "",
							"type": "address[]"
						}
					],
					"stateMutability": "view",
					"type": "function"
				},
				{
					"inputs": [],
					"name": "DUSDTotalReferrals",
					"outputs": [
						{
							"internalType": "uint256",
							"name": "",
							"type": "uint256"
						}
					],
					"stateMutability": "view",
					"type": "function"
				},
				{
					"inputs": [
						{
							"internalType": "address",
							"name": "",
							"type": "address"
						}
					],
					"name": "DUSDinvestor",
					"outputs": [
						{
							"internalType": "address",
							"name": "referralFrom",
							"type": "address"
						},
						{
							"internalType": "uint256",
							"name": "reward",
							"type": "uint256"
						},
						{
							"internalType": "uint256",
							"name": "noOfInvestment",
							"type": "uint256"
						},
						{
							"internalType": "uint256",
							"name": "totalInvestment",
							"type": "uint256"
						},
						{
							"internalType": "uint256",
							"name": "totalWithdraw_reward",
							"type": "uint256"
						},
						{
							"internalType": "bool",
							"name": "investBefore",
							"type": "bool"
						}
					],
					"stateMutability": "view",
					"type": "function"
				},
				{
					"inputs": [
						{
							"internalType": "uint256",
							"name": "_investedamount",
							"type": "uint256"
						},
						{
							"internalType": "address",
							"name": "_referral",
							"type": "address"
						}
					],
					"name": "Stake",
					"outputs": [
						{
							"internalType": "bool",
							"name": "success",
							"type": "bool"
						}
					],
					"stateMutability": "nonpayable",
					"type": "function"
				},
				{
					"inputs": [],
					"name": "getAllDUSDinvestments",
					"outputs": [
						{
							"components": [
								{
									"internalType": "uint256",
									"name": "investedAmount",
									"type": "uint256"
								},
								{
									"internalType": "uint256",
									"name": "withdrawnTime",
									"type": "uint256"
								},
								{
									"internalType": "uint256",
									"name": "DepositTime",
									"type": "uint256"
								},
								{
									"internalType": "uint256",
									"name": "investmentNum",
									"type": "uint256"
								},
								{
									"internalType": "bool",
									"name": "unstake",
									"type": "bool"
								}
							],
							"internalType": "struct Invest.allInvestments[]",
							"name": "",
							"type": "tuple[]"
						}
					],
					"stateMutability": "view",
					"type": "function"
				},
				{
					"inputs": [],
					"name": "getReward",
					"outputs": [
						{
							"internalType": "uint256",
							"name": "",
							"type": "uint256"
						}
					],
					"stateMutability": "view",
					"type": "function"
				},
				{
					"inputs": [],
					"name": "getTotalInvestmentDUSD",
					"outputs": [
						{
							"internalType": "uint256",
							"name": "",
							"type": "uint256"
						}
					],
					"stateMutability": "view",
					"type": "function"
				},
				{
					"inputs": [],
					"name": "investmentPeriod",
					"outputs": [
						{
							"internalType": "uint256",
							"name": "",
							"type": "uint256"
						}
					],
					"stateMutability": "view",
					"type": "function"
				},
				{
					"inputs": [],
					"name": "max_Stake_amount",
					"outputs": [
						{
							"internalType": "uint256",
							"name": "",
							"type": "uint256"
						}
					],
					"stateMutability": "view",
					"type": "function"
				},
				{
					"inputs": [],
					"name": "min_Stake_amount",
					"outputs": [
						{
							"internalType": "uint256",
							"name": "",
							"type": "uint256"
						}
					],
					"stateMutability": "view",
					"type": "function"
				},
				{
					"inputs": [],
					"name": "owner",
					"outputs": [
						{
							"internalType": "address",
							"name": "",
							"type": "address"
						}
					],
					"stateMutability": "view",
					"type": "function"
				},
				{
					"inputs": [],
					"name": "referralLevel_count",
					"outputs": [
						{
							"internalType": "uint256[]",
							"name": "arr",
							"type": "uint256[]"
						}
					],
					"stateMutability": "view",
					"type": "function"
				},
				{
					"inputs": [],
					"name": "referralLevel_earning",
					"outputs": [
						{
							"internalType": "uint256[]",
							"name": "arr",
							"type": "uint256[]"
						}
					],
					"stateMutability": "view",
					"type": "function"
				},
				{
					"inputs": [],
					"name": "rewardToken",
					"outputs": [
						{
							"internalType": "uint256",
							"name": "",
							"type": "uint256"
						}
					],
					"stateMutability": "view",
					"type": "function"
				},
				{
					"inputs": [
						{
							"internalType": "uint256",
							"name": "_amount",
							"type": "uint256"
						}
					],
					"name": "setReward",
					"outputs": [],
					"stateMutability": "nonpayable",
					"type": "function"
				},
				{
					"inputs": [
						{
							"internalType": "uint256",
							"name": "_amount",
							"type": "uint256"
						}
					],
					"name": "set_max_Stake_amount",
					"outputs": [],
					"stateMutability": "nonpayable",
					"type": "function"
				},
				{
					"inputs": [
						{
							"internalType": "uint256",
							"name": "_amount",
							"type": "uint256"
						}
					],
					"name": "set_min_Stake_amount",
					"outputs": [],
					"stateMutability": "nonpayable",
					"type": "function"
				},
				{
					"inputs": [
						{
							"internalType": "uint256",
							"name": "min_stake",
							"type": "uint256"
						},
						{
							"internalType": "uint256",
							"name": "max_stake",
							"type": "uint256"
						},
						{
							"internalType": "uint256",
							"name": "reward_per_day",
							"type": "uint256"
						}
					],
					"name": "set_values",
					"outputs": [],
					"stateMutability": "nonpayable",
					"type": "function"
				},
				{
					"inputs": [],
					"name": "totalDUSDInvestors",
					"outputs": [
						{
							"internalType": "uint256",
							"name": "",
							"type": "uint256"
						}
					],
					"stateMutability": "view",
					"type": "function"
				},
				{
					"inputs": [],
					"name": "totalbusiness",
					"outputs": [
						{
							"internalType": "uint256",
							"name": "",
							"type": "uint256"
						}
					],
					"stateMutability": "view",
					"type": "function"
				},
				{
					"inputs": [
						{
							"internalType": "address",
							"name": "_owner",
							"type": "address"
						}
					],
					"name": "transferOwnership",
					"outputs": [],
					"stateMutability": "nonpayable",
					"type": "function"
				},
				{
					"inputs": [],
					"name": "unStake",
					"outputs": [
						{
							"internalType": "bool",
							"name": "success",
							"type": "bool"
						}
					],
					"stateMutability": "nonpayable",
					"type": "function"
				},
				{
					"inputs": [],
					"name": "withdrawReward",
					"outputs": [
						{
							"internalType": "bool",
							"name": "success",
							"type": "bool"
						}
					],
					"stateMutability": "nonpayable",
					"type": "function"
				}
			],
			"devdoc": {
				"kind": "dev",
				"methods": {},
				"version": 1
			},
			"evm": {
				"assembly": "    /* \"contracts/stake_reward_MLM.sol\":262:11355  contract Invest... */\n  mstore(0x40, 0x80)\n    /* \"contracts/stake_reward_MLM.sol\":351:393  0x63c0F4F599EFcFD747ddEa897117b5293E139BcD */\n  0x63c0f4f599efcfd747ddea897117b5293e139bcd\n    /* \"contracts/stake_reward_MLM.sol\":331:393  address SMCcontract=0x63c0F4F599EFcFD747ddEa897117b5293E139BcD */\n  0x01\n  exp(0x0100, 0x00)\n  dup2\n  sload\n  dup2\n  0xffffffffffffffffffffffffffffffffffffffff\n  mul\n  not\n  and\n  swap1\n  dup4\n  0xffffffffffffffffffffffffffffffffffffffff\n  and\n  mul\n  or\n  swap1\n  sstore\n  pop\n    /* \"contracts/stake_reward_MLM.sol\":424:466  0x63c0F4F599EFcFD747ddEa897117b5293E139BcD */\n  0x63c0f4f599efcfd747ddea897117b5293e139bcd\n    /* \"contracts/stake_reward_MLM.sol\":403:466  address BUSDcontract=0x63c0F4F599EFcFD747ddEa897117b5293E139BcD */\n  0x02\n  exp(0x0100, 0x00)\n  dup2\n  sload\n  dup2\n  0xffffffffffffffffffffffffffffffffffffffff\n  mul\n  not\n  and\n  swap1\n  dup4\n  0xffffffffffffffffffffffffffffffffffffffff\n  and\n  mul\n  or\n  swap1\n  sstore\n  pop\n    /* \"contracts/stake_reward_MLM.sol\":540:558  500000000000000000 */\n  0x06f05b59d3b20000\n    /* \"contracts/stake_reward_MLM.sol\":516:558  uint public rewardToken=500000000000000000 */\n  0x04\n  sstore\n    /* \"contracts/stake_reward_MLM.sol\":597:602  10000 */\n  0x2710\n    /* \"contracts/stake_reward_MLM.sol\":568:602  uint public min_Stake_amount=10000 */\n  0x05\n  sstore\n    /* \"contracts/stake_reward_MLM.sol\":668:675  5000000 */\n  0x4c4b40\n    /* \"contracts/stake_reward_MLM.sol\":639:675  uint public max_Stake_amount=5000000 */\n  0x06\n  sstore\n    /* \"contracts/stake_reward_MLM.sol\":742:750  300 days */\n  0x018b8200\n    /* \"contracts/stake_reward_MLM.sol\":713:750  uint public investmentPeriod=300 days */\n  0x07\n  sstore\n    /* \"contracts/stake_reward_MLM.sol\":1508:1638  constructor(){... */\n  callvalue\n  dup1\n  iszero\n  tag_1\n  jumpi\n  0x00\n  dup1\n  revert\ntag_1:\n  pop\n    /* \"contracts/stake_reward_MLM.sol\":1554:1564  msg.sender */\n  caller\n    /* \"contracts/stake_reward_MLM.sol\":1548:1553  owner */\n  0x00\n  dup1\n    /* \"contracts/stake_reward_MLM.sol\":1548:1564  owner=msg.sender */\n  0x0100\n  exp\n  dup2\n  sload\n  dup2\n  0xffffffffffffffffffffffffffffffffffffffff\n  mul\n  not\n  and\n  swap1\n  dup4\n  0xffffffffffffffffffffffffffffffffffffffff\n  and\n  mul\n  or\n  swap1\n  sstore\n  pop\n    /* \"contracts/stake_reward_MLM.sol\":262:11355  contract Invest... */\n  dataSize(sub_0)\n  dup1\n  dataOffset(sub_0)\n  0x00\n  codecopy\n  0x00\n  return\nstop\n\nsub_0: assembly {\n        /* \"contracts/stake_reward_MLM.sol\":262:11355  contract Invest... */\n      mstore(0x40, 0x80)\n      callvalue\n      dup1\n      iszero\n      tag_1\n      jumpi\n      0x00\n      dup1\n      revert\n    tag_1:\n      pop\n      jumpi(tag_2, lt(calldatasize, 0x04))\n      shr(0xe0, calldataload(0x00))\n      dup1\n      0x8da5cb5b\n      gt\n      tag_26\n      jumpi\n      dup1\n      0xd3560ee8\n      gt\n      tag_27\n      jumpi\n      dup1\n      0xd3560ee8\n      eq\n      tag_20\n      jumpi\n      dup1\n      0xe2033fcb\n      eq\n      tag_21\n      jumpi\n      dup1\n      0xf2fde38b\n      eq\n      tag_22\n      jumpi\n      dup1\n      0xf790b81a\n      eq\n      tag_23\n      jumpi\n      dup1\n      0xf7c618c1\n      eq\n      tag_24\n      jumpi\n      dup1\n      0xfae730bc\n      eq\n      tag_25\n      jumpi\n      jump(tag_2)\n    tag_27:\n      dup1\n      0x8da5cb5b\n      eq\n      tag_14\n      jumpi\n      dup1\n      0x929f6bbe\n      eq\n      tag_15\n      jumpi\n      dup1\n      0xa61be99d\n      eq\n      tag_16\n      jumpi\n      dup1\n      0xbc67eaff\n      eq\n      tag_17\n      jumpi\n      dup1\n      0xc885bc58\n      eq\n      tag_18\n      jumpi\n      dup1\n      0xce10db0a\n      eq\n      tag_19\n      jumpi\n      jump(tag_2)\n    tag_26:\n      dup1\n      0x32d4e783\n      gt\n      tag_28\n      jumpi\n      dup1\n      0x32d4e783\n      eq\n      tag_8\n      jumpi\n      dup1\n      0x3a1e0833\n      eq\n      tag_9\n      jumpi\n      dup1\n      0x3d18b912\n      eq\n      tag_10\n      jumpi\n      dup1\n      0x500cb85f\n      eq\n      tag_11\n      jumpi\n      dup1\n      0x523cddfe\n      eq\n      tag_12\n      jumpi\n      dup1\n      0x73cf575a\n      eq\n      tag_13\n      jumpi\n      jump(tag_2)\n    tag_28:\n      dup1\n      0x0c5f58f4\n      eq\n      tag_3\n      jumpi\n      dup1\n      0x10cde60a\n      eq\n      tag_4\n      jumpi\n      dup1\n      0x1e8aba35\n      eq\n      tag_5\n      jumpi\n      dup1\n      0x293be456\n      eq\n      tag_6\n      jumpi\n      dup1\n      0x2bccdce6\n      eq\n      tag_7\n      jumpi\n    tag_2:\n      0x00\n      dup1\n      revert\n        /* \"contracts/stake_reward_MLM.sol\":9232:9441  function DUSDReferralsList() public view returns(address[] memory){ //this function is to get the all investors list with there account number... */\n    tag_3:\n      tag_29\n      tag_30\n      jump\t// in\n    tag_29:\n      mload(0x40)\n      tag_31\n      swap2\n      swap1\n      tag_32\n      jump\t// in\n    tag_31:\n      mload(0x40)\n      dup1\n      swap2\n      sub\n      swap1\n      return\n        /* \"contracts/stake_reward_MLM.sol\":476:506  uint public totalDUSDInvestors */\n    tag_4:\n      tag_33\n      tag_34\n      jump\t// in\n    tag_33:\n      mload(0x40)\n      tag_35\n      swap2\n      swap1\n      tag_36\n      jump\t// in\n    tag_35:\n      mload(0x40)\n      dup1\n      swap2\n      sub\n      swap1\n      return\n        /* \"contracts/stake_reward_MLM.sol\":9031:9222  function DUSDTotalReferrals() public view returns(uint){ // this function is to get the total number of referrals ... */\n    tag_5:\n      tag_37\n      tag_38\n      jump\t// in\n    tag_37:\n      mload(0x40)\n      tag_39\n      swap2\n      swap1\n      tag_36\n      jump\t// in\n    tag_39:\n      mload(0x40)\n      dup1\n      swap2\n      sub\n      swap1\n      return\n        /* \"contracts/stake_reward_MLM.sol\":9450:9545  function setReward(uint _amount) public ... */\n    tag_6:\n      tag_40\n      0x04\n      dup1\n      calldatasize\n      sub\n      dup2\n      add\n      swap1\n      tag_41\n      swap2\n      swap1\n      tag_42\n      jump\t// in\n    tag_41:\n      tag_43\n      jump\t// in\n    tag_40:\n      stop\n        /* \"contracts/stake_reward_MLM.sol\":3241:5165  function Stake(uint _investedamount,address _referral) external returns(bool success){... */\n    tag_7:\n      tag_44\n      0x04\n      dup1\n      calldatasize\n      sub\n      dup2\n      add\n      swap1\n      tag_45\n      swap2\n      swap1\n      tag_46\n      jump\t// in\n    tag_45:\n      tag_47\n      jump\t// in\n    tag_44:\n      mload(0x40)\n      tag_48\n      swap2\n      swap1\n      tag_49\n      jump\t// in\n    tag_48:\n      mload(0x40)\n      dup1\n      swap2\n      sub\n      swap1\n      return\n        /* \"contracts/stake_reward_MLM.sol\":9554:9665  function set_min_Stake_amount(uint _amount) public ... */\n    tag_8:\n      tag_50\n      0x04\n      dup1\n      calldatasize\n      sub\n      dup2\n      add\n      swap1\n      tag_51\n      swap2\n      swap1\n      tag_42\n      jump\t// in\n    tag_51:\n      tag_52\n      jump\t// in\n    tag_50:\n      stop\n        /* \"contracts/stake_reward_MLM.sol\":8036:9019  function getAllDUSDinvestments() public view returns (allInvestments[] memory) { //this function will return the all investments of the investor and withware date... */\n    tag_9:\n      tag_53\n      tag_54\n      jump\t// in\n    tag_53:\n      mload(0x40)\n      tag_55\n      swap2\n      swap1\n      tag_56\n      jump\t// in\n    tag_55:\n      mload(0x40)\n      dup1\n      swap2\n      sub\n      swap1\n      return\n        /* \"contracts/stake_reward_MLM.sol\":5174:5860  function getReward() view public returns(uint){ //this function is get the total reward balance of the investor... */\n    tag_10:\n      tag_57\n      tag_58\n      jump\t// in\n    tag_57:\n      mload(0x40)\n      tag_59\n      swap2\n      swap1\n      tag_36\n      jump\t// in\n    tag_59:\n      mload(0x40)\n      dup1\n      swap2\n      sub\n      swap1\n      return\n        /* \"contracts/stake_reward_MLM.sol\":9674:9785  function set_max_Stake_amount(uint _amount) public ... */\n    tag_11:\n      tag_60\n      0x04\n      dup1\n      calldatasize\n      sub\n      dup2\n      add\n      swap1\n      tag_61\n      swap2\n      swap1\n      tag_42\n      jump\t// in\n    tag_61:\n      tag_62\n      jump\t// in\n    tag_60:\n      stop\n        /* \"contracts/stake_reward_MLM.sol\":713:750  uint public investmentPeriod=300 days */\n    tag_12:\n      tag_63\n      tag_64\n      jump\t// in\n    tag_63:\n      mload(0x40)\n      tag_65\n      swap2\n      swap1\n      tag_36\n      jump\t// in\n    tag_65:\n      mload(0x40)\n      dup1\n      swap2\n      sub\n      swap1\n      return\n        /* \"contracts/stake_reward_MLM.sol\":6362:7806  function unStake() external  returns (bool success){... */\n    tag_13:\n      tag_66\n      tag_67\n      jump\t// in\n    tag_66:\n      mload(0x40)\n      tag_68\n      swap2\n      swap1\n      tag_49\n      jump\t// in\n    tag_68:\n      mload(0x40)\n      dup1\n      swap2\n      sub\n      swap1\n      return\n        /* \"contracts/stake_reward_MLM.sol\":300:321  address  public owner */\n    tag_14:\n      tag_69\n      tag_70\n      jump\t// in\n    tag_69:\n      mload(0x40)\n      tag_71\n      swap2\n      swap1\n      tag_72\n      jump\t// in\n    tag_71:\n      mload(0x40)\n      dup1\n      swap2\n      sub\n      swap1\n      return\n        /* \"contracts/stake_reward_MLM.sol\":7816:8026  function getTotalInvestmentDUSD() public view returns(uint) {   //this function is to get the total investment of the ivestor... */\n    tag_15:\n      tag_73\n      tag_74\n      jump\t// in\n    tag_73:\n      mload(0x40)\n      tag_75\n      swap2\n      swap1\n      tag_36\n      jump\t// in\n    tag_75:\n      mload(0x40)\n      dup1\n      swap2\n      sub\n      swap1\n      return\n        /* \"contracts/stake_reward_MLM.sol\":10211:10776  function referralLevel_earning() public view returns( uint[] memory arr )... */\n    tag_16:\n      tag_76\n      tag_77\n      jump\t// in\n    tag_76:\n      mload(0x40)\n      tag_78\n      swap2\n      swap1\n      tag_79\n      jump\t// in\n    tag_78:\n      mload(0x40)\n      dup1\n      swap2\n      sub\n      swap1\n      return\n        /* \"contracts/stake_reward_MLM.sol\":568:602  uint public min_Stake_amount=10000 */\n    tag_17:\n      tag_80\n      tag_81\n      jump\t// in\n    tag_80:\n      mload(0x40)\n      tag_82\n      swap2\n      swap1\n      tag_36\n      jump\t// in\n    tag_82:\n      mload(0x40)\n      dup1\n      swap2\n      sub\n      swap1\n      return\n        /* \"contracts/stake_reward_MLM.sol\":5870:6351  function withdrawReward() external returns (bool success){... */\n    tag_18:\n      tag_83\n      tag_84\n      jump\t// in\n    tag_83:\n      mload(0x40)\n      tag_85\n      swap2\n      swap1\n      tag_49\n      jump\t// in\n    tag_85:\n      mload(0x40)\n      dup1\n      swap2\n      sub\n      swap1\n      return\n        /* \"contracts/stake_reward_MLM.sol\":9794:10018  function set_values(uint min_stake,uint max_stake,uint reward_per_day) public ... */\n    tag_19:\n      tag_86\n      0x04\n      dup1\n      calldatasize\n      sub\n      dup2\n      add\n      swap1\n      tag_87\n      swap2\n      swap1\n      tag_88\n      jump\t// in\n    tag_87:\n      tag_89\n      jump\t// in\n    tag_86:\n      stop\n        /* \"contracts/stake_reward_MLM.sol\":1455:1497  mapping(address=>Data) public DUSDinvestor */\n    tag_20:\n      tag_90\n      0x04\n      dup1\n      calldatasize\n      sub\n      dup2\n      add\n      swap1\n      tag_91\n      swap2\n      swap1\n      tag_92\n      jump\t// in\n    tag_91:\n      tag_93\n      jump\t// in\n    tag_90:\n      mload(0x40)\n      tag_94\n      swap7\n      swap6\n      swap5\n      swap4\n      swap3\n      swap2\n      swap1\n      tag_95\n      jump\t// in\n    tag_94:\n      mload(0x40)\n      dup1\n      swap2\n      sub\n      swap1\n      return\n        /* \"contracts/stake_reward_MLM.sol\":760:785  uint public totalbusiness */\n    tag_21:\n      tag_96\n      tag_97\n      jump\t// in\n    tag_96:\n      mload(0x40)\n      tag_98\n      swap2\n      swap1\n      tag_36\n      jump\t// in\n    tag_98:\n      mload(0x40)\n      dup1\n      swap2\n      sub\n      swap1\n      return\n        /* \"contracts/stake_reward_MLM.sol\":10027:10201  function transferOwnership(address _owner)  public... */\n    tag_22:\n      tag_99\n      0x04\n      dup1\n      calldatasize\n      sub\n      dup2\n      add\n      swap1\n      tag_100\n      swap2\n      swap1\n      tag_92\n      jump\t// in\n    tag_100:\n      tag_101\n      jump\t// in\n    tag_99:\n      stop\n        /* \"contracts/stake_reward_MLM.sol\":10785:11346  function referralLevel_count() public view returns( uint[] memory arr )... */\n    tag_23:\n      tag_102\n      tag_103\n      jump\t// in\n    tag_102:\n      mload(0x40)\n      tag_104\n      swap2\n      swap1\n      tag_79\n      jump\t// in\n    tag_104:\n      mload(0x40)\n      dup1\n      swap2\n      sub\n      swap1\n      return\n        /* \"contracts/stake_reward_MLM.sol\":516:558  uint public rewardToken=500000000000000000 */\n    tag_24:\n      tag_105\n      tag_106\n      jump\t// in\n    tag_105:\n      mload(0x40)\n      tag_107\n      swap2\n      swap1\n      tag_36\n      jump\t// in\n    tag_107:\n      mload(0x40)\n      dup1\n      swap2\n      sub\n      swap1\n      return\n        /* \"contracts/stake_reward_MLM.sol\":639:675  uint public max_Stake_amount=5000000 */\n    tag_25:\n      tag_108\n      tag_109\n      jump\t// in\n    tag_108:\n      mload(0x40)\n      tag_110\n      swap2\n      swap1\n      tag_36\n      jump\t// in\n    tag_110:\n      mload(0x40)\n      dup1\n      swap2\n      sub\n      swap1\n      return\n        /* \"contracts/stake_reward_MLM.sol\":9232:9441  function DUSDReferralsList() public view returns(address[] memory){ //this function is to get the all investors list with there account number... */\n    tag_30:\n        /* \"contracts/stake_reward_MLM.sol\":9281:9297  address[] memory */\n      0x60\n        /* \"contracts/stake_reward_MLM.sol\":9393:9405  DUSDinvestor */\n      0x09\n        /* \"contracts/stake_reward_MLM.sol\":9393:9417  DUSDinvestor[msg.sender] */\n      0x00\n        /* \"contracts/stake_reward_MLM.sol\":9406:9416  msg.sender */\n      caller\n        /* \"contracts/stake_reward_MLM.sol\":9393:9417  DUSDinvestor[msg.sender] */\n      0xffffffffffffffffffffffffffffffffffffffff\n      and\n      0xffffffffffffffffffffffffffffffffffffffff\n      and\n      dup2\n      mstore\n      0x20\n      add\n      swap1\n      dup2\n      mstore\n      0x20\n      add\n      0x00\n      keccak256\n        /* \"contracts/stake_reward_MLM.sol\":9393:9430  DUSDinvestor[msg.sender].hisReferrals */\n      0x01\n      add\n        /* \"contracts/stake_reward_MLM.sol\":9386:9430  return DUSDinvestor[msg.sender].hisReferrals */\n      dup1\n      sload\n      dup1\n      0x20\n      mul\n      0x20\n      add\n      mload(0x40)\n      swap1\n      dup2\n      add\n      0x40\n      mstore\n      dup1\n      swap3\n      swap2\n      swap1\n      dup2\n      dup2\n      mstore\n      0x20\n      add\n      dup3\n      dup1\n      sload\n      dup1\n      iszero\n      tag_112\n      jumpi\n      0x20\n      mul\n      dup3\n      add\n      swap2\n      swap1\n      0x00\n      mstore\n      keccak256(0x00, 0x20)\n      swap1\n    tag_113:\n      dup2\n      0x00\n      swap1\n      sload\n      swap1\n      0x0100\n      exp\n      swap1\n      div\n      0xffffffffffffffffffffffffffffffffffffffff\n      and\n      0xffffffffffffffffffffffffffffffffffffffff\n      and\n      dup2\n      mstore\n      0x20\n      add\n      swap1\n      0x01\n      add\n      swap1\n      dup1\n      dup4\n      gt\n      tag_113\n      jumpi\n    tag_112:\n      pop\n      pop\n      pop\n      pop\n      pop\n      swap1\n      pop\n        /* \"contracts/stake_reward_MLM.sol\":9232:9441  function DUSDReferralsList() public view returns(address[] memory){ //this function is to get the all investors list with there account number... */\n      swap1\n      jump\t// out\n        /* \"contracts/stake_reward_MLM.sol\":476:506  uint public totalDUSDInvestors */\n    tag_34:\n      sload(0x03)\n      dup2\n      jump\t// out\n        /* \"contracts/stake_reward_MLM.sol\":9031:9222  function DUSDTotalReferrals() public view returns(uint){ // this function is to get the total number of referrals ... */\n    tag_38:\n        /* \"contracts/stake_reward_MLM.sol\":9081:9085  uint */\n      0x00\n        /* \"contracts/stake_reward_MLM.sol\":9166:9178  DUSDinvestor */\n      0x09\n        /* \"contracts/stake_reward_MLM.sol\":9166:9190  DUSDinvestor[msg.sender] */\n      0x00\n        /* \"contracts/stake_reward_MLM.sol\":9179:9189  msg.sender */\n      caller\n        /* \"contracts/stake_reward_MLM.sol\":9166:9190  DUSDinvestor[msg.sender] */\n      0xffffffffffffffffffffffffffffffffffffffff\n      and\n      0xffffffffffffffffffffffffffffffffffffffff\n      and\n      dup2\n      mstore\n      0x20\n      add\n      swap1\n      dup2\n      mstore\n      0x20\n      add\n      0x00\n      keccak256\n        /* \"contracts/stake_reward_MLM.sol\":9166:9203  DUSDinvestor[msg.sender].hisReferrals */\n      0x01\n      add\n        /* \"contracts/stake_reward_MLM.sol\":9165:9211  (DUSDinvestor[msg.sender].hisReferrals).length */\n      dup1\n      sload\n      swap1\n      pop\n        /* \"contracts/stake_reward_MLM.sol\":9158:9211  return (DUSDinvestor[msg.sender].hisReferrals).length */\n      swap1\n      pop\n        /* \"contracts/stake_reward_MLM.sol\":9031:9222  function DUSDTotalReferrals() public view returns(uint){ // this function is to get the total number of referrals ... */\n      swap1\n      jump\t// out\n        /* \"contracts/stake_reward_MLM.sol\":9450:9545  function setReward(uint _amount) public ... */\n    tag_43:\n        /* \"contracts/stake_reward_MLM.sol\":9527:9534  _amount */\n      dup1\n        /* \"contracts/stake_reward_MLM.sol\":9513:9524  rewardToken */\n      0x04\n        /* \"contracts/stake_reward_MLM.sol\":9513:9534  rewardToken = _amount */\n      dup2\n      swap1\n      sstore\n      pop\n        /* \"contracts/stake_reward_MLM.sol\":9450:9545  function setReward(uint _amount) public ... */\n      pop\n      jump\t// out\n        /* \"contracts/stake_reward_MLM.sol\":3241:5165  function Stake(uint _investedamount,address _referral) external returns(bool success){... */\n    tag_47:\n        /* \"contracts/stake_reward_MLM.sol\":3313:3325  bool success */\n      0x00\n        /* \"contracts/stake_reward_MLM.sol\":3367:3383  min_Stake_amount */\n      sload(0x05)\n        /* \"contracts/stake_reward_MLM.sol\":3348:3363  _investedamount */\n      dup4\n        /* \"contracts/stake_reward_MLM.sol\":3348:3383  _investedamount >= min_Stake_amount */\n      lt\n      iszero\n        /* \"contracts/stake_reward_MLM.sol\":3348:3422  _investedamount >= min_Stake_amount && _investedamount <= max_Stake_amount */\n      dup1\n      iszero\n      tag_117\n      jumpi\n      pop\n        /* \"contracts/stake_reward_MLM.sol\":3406:3422  max_Stake_amount */\n      sload(0x06)\n        /* \"contracts/stake_reward_MLM.sol\":3387:3402  _investedamount */\n      dup4\n        /* \"contracts/stake_reward_MLM.sol\":3387:3422  _investedamount <= max_Stake_amount */\n      gt\n      iszero\n        /* \"contracts/stake_reward_MLM.sol\":3348:3422  _investedamount >= min_Stake_amount && _investedamount <= max_Stake_amount */\n    tag_117:\n        /* \"contracts/stake_reward_MLM.sol\":3340:3479  require(_investedamount >= min_Stake_amount && _investedamount <= max_Stake_amount,\"value is not greater than 10000 and less than 5000000\") */\n      tag_118\n      jumpi\n      mload(0x40)\n      0x08c379a000000000000000000000000000000000000000000000000000000000\n      dup2\n      mstore\n      0x04\n      add\n      tag_119\n      swap1\n      tag_120\n      jump\t// in\n    tag_119:\n      mload(0x40)\n      dup1\n      swap2\n      sub\n      swap1\n      revert\n    tag_118:\n        /* \"contracts/stake_reward_MLM.sol\":3608:3613  false */\n      0x00\n        /* \"contracts/stake_reward_MLM.sol\":3567:3613  DUSDinvestor[msg.sender].investBefore == false */\n      iszero\n      iszero\n        /* \"contracts/stake_reward_MLM.sol\":3567:3579  DUSDinvestor */\n      0x09\n        /* \"contracts/stake_reward_MLM.sol\":3567:3591  DUSDinvestor[msg.sender] */\n      0x00\n        /* \"contracts/stake_reward_MLM.sol\":3580:3590  msg.sender */\n      caller\n        /* \"contracts/stake_reward_MLM.sol\":3567:3591  DUSDinvestor[msg.sender] */\n      0xffffffffffffffffffffffffffffffffffffffff\n      and\n      0xffffffffffffffffffffffffffffffffffffffff\n      and\n      dup2\n      mstore\n      0x20\n      add\n      swap1\n      dup2\n      mstore\n      0x20\n      add\n      0x00\n      keccak256\n        /* \"contracts/stake_reward_MLM.sol\":3567:3604  DUSDinvestor[msg.sender].investBefore */\n      0x08\n      add\n      0x00\n      swap1\n      sload\n      swap1\n      0x0100\n      exp\n      swap1\n      div\n      0xff\n      and\n        /* \"contracts/stake_reward_MLM.sol\":3567:3613  DUSDinvestor[msg.sender].investBefore == false */\n      iszero\n      iszero\n      sub\n        /* \"contracts/stake_reward_MLM.sol\":3564:3718  if(DUSDinvestor[msg.sender].investBefore == false)... */\n      tag_121\n      jumpi\n        /* \"contracts/stake_reward_MLM.sol\":3646:3664  totalDUSDInvestors */\n      0x03\n      0x00\n        /* \"contracts/stake_reward_MLM.sol\":3646:3666  totalDUSDInvestors++ */\n      dup2\n      sload\n      dup1\n      swap3\n      swap2\n      swap1\n      tag_122\n      swap1\n      tag_123\n      jump\t// in\n    tag_122:\n      swap2\n      swap1\n      pop\n      sstore\n      pop\n        /* \"contracts/stake_reward_MLM.sol\":3564:3718  if(DUSDinvestor[msg.sender].investBefore == false)... */\n    tag_121:\n        /* \"contracts/stake_reward_MLM.sol\":3732:3740  uint num */\n      0x00\n        /* \"contracts/stake_reward_MLM.sol\":3743:3755  DUSDinvestor */\n      0x09\n        /* \"contracts/stake_reward_MLM.sol\":3743:3767  DUSDinvestor[msg.sender] */\n      0x00\n        /* \"contracts/stake_reward_MLM.sol\":3756:3766  msg.sender */\n      caller\n        /* \"contracts/stake_reward_MLM.sol\":3743:3767  DUSDinvestor[msg.sender] */\n      0xffffffffffffffffffffffffffffffffffffffff\n      and\n      0xffffffffffffffffffffffffffffffffffffffff\n      and\n      dup2\n      mstore\n      0x20\n      add\n      swap1\n      dup2\n      mstore\n      0x20\n      add\n      0x00\n      keccak256\n        /* \"contracts/stake_reward_MLM.sol\":3743:3782  DUSDinvestor[msg.sender].noOfInvestment */\n      0x05\n      add\n      sload\n        /* \"contracts/stake_reward_MLM.sol\":3732:3782  uint num = DUSDinvestor[msg.sender].noOfInvestment */\n      swap1\n      pop\n        /* \"contracts/stake_reward_MLM.sol\":3853:3868  _investedamount */\n      dup4\n        /* \"contracts/stake_reward_MLM.sol\":3796:3808  DUSDinvestor */\n      0x09\n        /* \"contracts/stake_reward_MLM.sol\":3796:3820  DUSDinvestor[msg.sender] */\n      0x00\n        /* \"contracts/stake_reward_MLM.sol\":3809:3819  msg.sender */\n      caller\n        /* \"contracts/stake_reward_MLM.sol\":3796:3820  DUSDinvestor[msg.sender] */\n      0xffffffffffffffffffffffffffffffffffffffff\n      and\n      0xffffffffffffffffffffffffffffffffffffffff\n      and\n      dup2\n      mstore\n      0x20\n      add\n      swap1\n      dup2\n      mstore\n      0x20\n      add\n      0x00\n      keccak256\n        /* \"contracts/stake_reward_MLM.sol\":3796:3831  DUSDinvestor[msg.sender].investment */\n      0x00\n      add\n        /* \"contracts/stake_reward_MLM.sol\":3796:3836  DUSDinvestor[msg.sender].investment[num] */\n      0x00\n        /* \"contracts/stake_reward_MLM.sol\":3832:3835  num */\n      dup4\n        /* \"contracts/stake_reward_MLM.sol\":3796:3836  DUSDinvestor[msg.sender].investment[num] */\n      dup2\n      mstore\n      0x20\n      add\n      swap1\n      dup2\n      mstore\n      0x20\n      add\n      0x00\n      keccak256\n        /* \"contracts/stake_reward_MLM.sol\":3796:3851  DUSDinvestor[msg.sender].investment[num].investedAmount */\n      0x00\n      add\n        /* \"contracts/stake_reward_MLM.sol\":3796:3868  DUSDinvestor[msg.sender].investment[num].investedAmount =_investedamount */\n      dup2\n      swap1\n      sstore\n      pop\n        /* \"contracts/stake_reward_MLM.sol\":3935:3950  block.timestamp */\n      timestamp\n        /* \"contracts/stake_reward_MLM.sol\":3882:3894  DUSDinvestor */\n      0x09\n        /* \"contracts/stake_reward_MLM.sol\":3882:3906  DUSDinvestor[msg.sender] */\n      0x00\n        /* \"contracts/stake_reward_MLM.sol\":3895:3905  msg.sender */\n      caller\n        /* \"contracts/stake_reward_MLM.sol\":3882:3906  DUSDinvestor[msg.sender] */\n      0xffffffffffffffffffffffffffffffffffffffff\n      and\n      0xffffffffffffffffffffffffffffffffffffffff\n      and\n      dup2\n      mstore\n      0x20\n      add\n      swap1\n      dup2\n      mstore\n      0x20\n      add\n      0x00\n      keccak256\n        /* \"contracts/stake_reward_MLM.sol\":3882:3917  DUSDinvestor[msg.sender].investment */\n      0x00\n      add\n        /* \"contracts/stake_reward_MLM.sol\":3882:3922  DUSDinvestor[msg.sender].investment[num] */\n      0x00\n        /* \"contracts/stake_reward_MLM.sol\":3918:3921  num */\n      dup4\n        /* \"contracts/stake_reward_MLM.sol\":3882:3922  DUSDinvestor[msg.sender].investment[num] */\n      dup2\n      mstore\n      0x20\n      add\n      swap1\n      dup2\n      mstore\n      0x20\n      add\n      0x00\n      keccak256\n        /* \"contracts/stake_reward_MLM.sol\":3882:3934  DUSDinvestor[msg.sender].investment[num].DepositTime */\n      0x02\n      add\n        /* \"contracts/stake_reward_MLM.sol\":3882:3950  DUSDinvestor[msg.sender].investment[num].DepositTime=block.timestamp */\n      dup2\n      swap1\n      sstore\n      pop\n        /* \"contracts/stake_reward_MLM.sol\":4037:4053  investmentPeriod */\n      sload(0x07)\n        /* \"contracts/stake_reward_MLM.sol\":4019:4034  block.timestamp */\n      timestamp\n        /* \"contracts/stake_reward_MLM.sol\":4019:4053  block.timestamp + investmentPeriod */\n      tag_124\n      swap2\n      swap1\n      tag_125\n      jump\t// in\n    tag_124:\n        /* \"contracts/stake_reward_MLM.sol\":3964:3976  DUSDinvestor */\n      0x09\n        /* \"contracts/stake_reward_MLM.sol\":3964:3988  DUSDinvestor[msg.sender] */\n      0x00\n        /* \"contracts/stake_reward_MLM.sol\":3977:3987  msg.sender */\n      caller\n        /* \"contracts/stake_reward_MLM.sol\":3964:3988  DUSDinvestor[msg.sender] */\n      0xffffffffffffffffffffffffffffffffffffffff\n      and\n      0xffffffffffffffffffffffffffffffffffffffff\n      and\n      dup2\n      mstore\n      0x20\n      add\n      swap1\n      dup2\n      mstore\n      0x20\n      add\n      0x00\n      keccak256\n        /* \"contracts/stake_reward_MLM.sol\":3964:3999  DUSDinvestor[msg.sender].investment */\n      0x00\n      add\n        /* \"contracts/stake_reward_MLM.sol\":3964:4004  DUSDinvestor[msg.sender].investment[num] */\n      0x00\n        /* \"contracts/stake_reward_MLM.sol\":4000:4003  num */\n      dup4\n        /* \"contracts/stake_reward_MLM.sol\":3964:4004  DUSDinvestor[msg.sender].investment[num] */\n      dup2\n      mstore\n      0x20\n      add\n      swap1\n      dup2\n      mstore\n      0x20\n      add\n      0x00\n      keccak256\n        /* \"contracts/stake_reward_MLM.sol\":3964:4018  DUSDinvestor[msg.sender].investment[num].withdrawnTime */\n      0x01\n      add\n        /* \"contracts/stake_reward_MLM.sol\":3964:4053  DUSDinvestor[msg.sender].investment[num].withdrawnTime=block.timestamp + investmentPeriod */\n      dup2\n      swap1\n      sstore\n      pop\n        /* \"contracts/stake_reward_MLM.sol\":4136:4139  num */\n      dup1\n        /* \"contracts/stake_reward_MLM.sol\":4081:4093  DUSDinvestor */\n      0x09\n        /* \"contracts/stake_reward_MLM.sol\":4081:4105  DUSDinvestor[msg.sender] */\n      0x00\n        /* \"contracts/stake_reward_MLM.sol\":4094:4104  msg.sender */\n      caller\n        /* \"contracts/stake_reward_MLM.sol\":4081:4105  DUSDinvestor[msg.sender] */\n      0xffffffffffffffffffffffffffffffffffffffff\n      and\n      0xffffffffffffffffffffffffffffffffffffffff\n      and\n      dup2\n      mstore\n      0x20\n      add\n      swap1\n      dup2\n      mstore\n      0x20\n      add\n      0x00\n      keccak256\n        /* \"contracts/stake_reward_MLM.sol\":4081:4116  DUSDinvestor[msg.sender].investment */\n      0x00\n      add\n        /* \"contracts/stake_reward_MLM.sol\":4081:4121  DUSDinvestor[msg.sender].investment[num] */\n      0x00\n        /* \"contracts/stake_reward_MLM.sol\":4117:4120  num */\n      dup4\n        /* \"contracts/stake_reward_MLM.sol\":4081:4121  DUSDinvestor[msg.sender].investment[num] */\n      dup2\n      mstore\n      0x20\n      add\n      swap1\n      dup2\n      mstore\n      0x20\n      add\n      0x00\n      keccak256\n        /* \"contracts/stake_reward_MLM.sol\":4081:4135  DUSDinvestor[msg.sender].investment[num].investmentNum */\n      0x03\n      add\n        /* \"contracts/stake_reward_MLM.sol\":4081:4139  DUSDinvestor[msg.sender].investment[num].investmentNum=num */\n      dup2\n      swap1\n      sstore\n      pop\n        /* \"contracts/stake_reward_MLM.sol\":4195:4210  _investedamount */\n      dup4\n        /* \"contracts/stake_reward_MLM.sol\":4153:4165  DUSDinvestor */\n      0x09\n        /* \"contracts/stake_reward_MLM.sol\":4153:4177  DUSDinvestor[msg.sender] */\n      0x00\n        /* \"contracts/stake_reward_MLM.sol\":4166:4176  msg.sender */\n      caller\n        /* \"contracts/stake_reward_MLM.sol\":4153:4177  DUSDinvestor[msg.sender] */\n      0xffffffffffffffffffffffffffffffffffffffff\n      and\n      0xffffffffffffffffffffffffffffffffffffffff\n      and\n      dup2\n      mstore\n      0x20\n      add\n      swap1\n      dup2\n      mstore\n      0x20\n      add\n      0x00\n      keccak256\n        /* \"contracts/stake_reward_MLM.sol\":4153:4193  DUSDinvestor[msg.sender].totalInvestment */\n      0x06\n      add\n      0x00\n        /* \"contracts/stake_reward_MLM.sol\":4153:4210  DUSDinvestor[msg.sender].totalInvestment+=_investedamount */\n      dup3\n      dup3\n      sload\n      tag_126\n      swap2\n      swap1\n      tag_125\n      jump\t// in\n    tag_126:\n      swap3\n      pop\n      pop\n      dup2\n      swap1\n      sstore\n      pop\n        /* \"contracts/stake_reward_MLM.sol\":4224:4236  DUSDinvestor */\n      0x09\n        /* \"contracts/stake_reward_MLM.sol\":4224:4248  DUSDinvestor[msg.sender] */\n      0x00\n        /* \"contracts/stake_reward_MLM.sol\":4237:4247  msg.sender */\n      caller\n        /* \"contracts/stake_reward_MLM.sol\":4224:4248  DUSDinvestor[msg.sender] */\n      0xffffffffffffffffffffffffffffffffffffffff\n      and\n      0xffffffffffffffffffffffffffffffffffffffff\n      and\n      dup2\n      mstore\n      0x20\n      add\n      swap1\n      dup2\n      mstore\n      0x20\n      add\n      0x00\n      keccak256\n        /* \"contracts/stake_reward_MLM.sol\":4224:4263  DUSDinvestor[msg.sender].noOfInvestment */\n      0x05\n      add\n      0x00\n        /* \"contracts/stake_reward_MLM.sol\":4224:4265  DUSDinvestor[msg.sender].noOfInvestment++ */\n      dup2\n      sload\n      dup1\n      swap3\n      swap2\n      swap1\n      tag_127\n      swap1\n      tag_123\n      jump\t// in\n    tag_127:\n      swap2\n      swap1\n      pop\n      sstore\n      pop\n        /* \"contracts/stake_reward_MLM.sol\":4294:4309  _investedamount */\n      dup4\n        /* \"contracts/stake_reward_MLM.sol\":4279:4292  totalbusiness */\n      0x08\n      0x00\n        /* \"contracts/stake_reward_MLM.sol\":4279:4309  totalbusiness+=_investedamount */\n      dup3\n      dup3\n      sload\n      tag_128\n      swap2\n      swap1\n      tag_125\n      jump\t// in\n    tag_128:\n      swap3\n      pop\n      pop\n      dup2\n      swap1\n      sstore\n      pop\n        /* \"contracts/stake_reward_MLM.sol\":4328:4339  SMCcontract */\n      0x01\n      0x00\n      swap1\n      sload\n      swap1\n      0x0100\n      exp\n      swap1\n      div\n      0xffffffffffffffffffffffffffffffffffffffff\n      and\n        /* \"contracts/stake_reward_MLM.sol\":4323:4353  DUSD(SMCcontract).transferFrom */\n      0xffffffffffffffffffffffffffffffffffffffff\n      and\n      0x23b872dd\n        /* \"contracts/stake_reward_MLM.sol\":4354:4364  msg.sender */\n      caller\n        /* \"contracts/stake_reward_MLM.sol\":4373:4377  this */\n      address\n        /* \"contracts/stake_reward_MLM.sol\":4395:4401  10**18 */\n      0x0de0b6b3a7640000\n        /* \"contracts/stake_reward_MLM.sol\":4379:4394  _investedamount */\n      dup9\n        /* \"contracts/stake_reward_MLM.sol\":4379:4401  _investedamount*10**18 */\n      tag_129\n      swap2\n      swap1\n      tag_130\n      jump\t// in\n    tag_129:\n        /* \"contracts/stake_reward_MLM.sol\":4323:4402  DUSD(SMCcontract).transferFrom(msg.sender,address(this),_investedamount*10**18) */\n      mload(0x40)\n      dup5\n      0xffffffff\n      and\n      0xe0\n      shl\n      dup2\n      mstore\n      0x04\n      add\n      tag_131\n      swap4\n      swap3\n      swap2\n      swap1\n      tag_132\n      jump\t// in\n    tag_131:\n      0x20\n      mload(0x40)\n      dup1\n      dup4\n      sub\n      dup2\n      0x00\n      dup8\n      gas\n      call\n      iszero\n      dup1\n      iszero\n      tag_134\n      jumpi\n      returndatasize\n      0x00\n      dup1\n      returndatacopy\n      revert(0x00, returndatasize)\n    tag_134:\n      pop\n      pop\n      pop\n      pop\n      mload(0x40)\n      returndatasize\n      not(0x1f)\n      0x1f\n      dup3\n      add\n      and\n      dup3\n      add\n      dup1\n      0x40\n      mstore\n      pop\n      dup2\n      add\n      swap1\n      tag_135\n      swap2\n      swap1\n      tag_136\n      jump\t// in\n    tag_135:\n      pop\n        /* \"contracts/stake_reward_MLM.sol\":4439:4440  0 */\n      0x00\n        /* \"contracts/stake_reward_MLM.sol\":4420:4441  _referral==address(0) */\n      0xffffffffffffffffffffffffffffffffffffffff\n      and\n        /* \"contracts/stake_reward_MLM.sol\":4420:4429  _referral */\n      dup4\n        /* \"contracts/stake_reward_MLM.sol\":4420:4441  _referral==address(0) */\n      0xffffffffffffffffffffffffffffffffffffffff\n      and\n      eq\n        /* \"contracts/stake_reward_MLM.sol\":4420:4466  _referral==address(0) || _referral==msg.sender */\n      dup1\n      tag_137\n      jumpi\n      pop\n        /* \"contracts/stake_reward_MLM.sol\":4456:4466  msg.sender */\n      caller\n        /* \"contracts/stake_reward_MLM.sol\":4445:4466  _referral==msg.sender */\n      0xffffffffffffffffffffffffffffffffffffffff\n      and\n        /* \"contracts/stake_reward_MLM.sol\":4445:4454  _referral */\n      dup4\n        /* \"contracts/stake_reward_MLM.sol\":4445:4466  _referral==msg.sender */\n      0xffffffffffffffffffffffffffffffffffffffff\n      and\n      eq\n        /* \"contracts/stake_reward_MLM.sol\":4420:4466  _referral==address(0) || _referral==msg.sender */\n    tag_137:\n        /* \"contracts/stake_reward_MLM.sol\":4420:4513  _referral==address(0) || _referral==msg.sender || DUSDinvestor[msg.sender].investBefore==true */\n      dup1\n      tag_138\n      jumpi\n      pop\n        /* \"contracts/stake_reward_MLM.sol\":4509:4513  true */\n      0x01\n        /* \"contracts/stake_reward_MLM.sol\":4470:4513  DUSDinvestor[msg.sender].investBefore==true */\n      iszero\n      iszero\n        /* \"contracts/stake_reward_MLM.sol\":4470:4482  DUSDinvestor */\n      0x09\n        /* \"contracts/stake_reward_MLM.sol\":4470:4494  DUSDinvestor[msg.sender] */\n      0x00\n        /* \"contracts/stake_reward_MLM.sol\":4483:4493  msg.sender */\n      caller\n        /* \"contracts/stake_reward_MLM.sol\":4470:4494  DUSDinvestor[msg.sender] */\n      0xffffffffffffffffffffffffffffffffffffffff\n      and\n      0xffffffffffffffffffffffffffffffffffffffff\n      and\n      dup2\n      mstore\n      0x20\n      add\n      swap1\n      dup2\n      mstore\n      0x20\n      add\n      0x00\n      keccak256\n        /* \"contracts/stake_reward_MLM.sol\":4470:4507  DUSDinvestor[msg.sender].investBefore */\n      0x08\n      add\n      0x00\n      swap1\n      sload\n      swap1\n      0x0100\n      exp\n      swap1\n      div\n      0xff\n      and\n        /* \"contracts/stake_reward_MLM.sol\":4470:4513  DUSDinvestor[msg.sender].investBefore==true */\n      iszero\n      iszero\n      eq\n        /* \"contracts/stake_reward_MLM.sol\":4420:4513  _referral==address(0) || _referral==msg.sender || DUSDinvestor[msg.sender].investBefore==true */\n    tag_138:\n        /* \"contracts/stake_reward_MLM.sol\":4417:5060  if(_referral==address(0) || _referral==msg.sender || DUSDinvestor[msg.sender].investBefore==true)                                         //checking that investor comes from the referral link or not... */\n      iszero\n      tag_139\n      jumpi\n        /* \"contracts/stake_reward_MLM.sol\":4695:4696  0 */\n      0x00\n        /* \"contracts/stake_reward_MLM.sol\":4647:4659  DUSDinvestor */\n      0x09\n        /* \"contracts/stake_reward_MLM.sol\":4647:4671  DUSDinvestor[msg.sender] */\n      0x00\n        /* \"contracts/stake_reward_MLM.sol\":4660:4670  msg.sender */\n      caller\n        /* \"contracts/stake_reward_MLM.sol\":4647:4671  DUSDinvestor[msg.sender] */\n      0xffffffffffffffffffffffffffffffffffffffff\n      and\n      0xffffffffffffffffffffffffffffffffffffffff\n      and\n      dup2\n      mstore\n      0x20\n      add\n      swap1\n      dup2\n      mstore\n      0x20\n      add\n      0x00\n      keccak256\n        /* \"contracts/stake_reward_MLM.sol\":4647:4684  DUSDinvestor[msg.sender].referralFrom */\n      0x02\n      add\n      0x00\n        /* \"contracts/stake_reward_MLM.sol\":4647:4697  DUSDinvestor[msg.sender].referralFrom = address(0) */\n      0x0100\n      exp\n      dup2\n      sload\n      dup2\n      0xffffffffffffffffffffffffffffffffffffffff\n      mul\n      not\n      and\n      swap1\n      dup4\n      0xffffffffffffffffffffffffffffffffffffffff\n      and\n      mul\n      or\n      swap1\n      sstore\n      pop\n        /* \"contracts/stake_reward_MLM.sol\":4417:5060  if(_referral==address(0) || _referral==msg.sender || DUSDinvestor[msg.sender].investBefore==true)                                         //checking that investor comes from the referral link or not... */\n      jump(tag_140)\n    tag_139:\n        /* \"contracts/stake_reward_MLM.sol\":4800:4809  _referral */\n      dup3\n        /* \"contracts/stake_reward_MLM.sol\":4760:4772  DUSDinvestor */\n      0x09\n        /* \"contracts/stake_reward_MLM.sol\":4760:4784  DUSDinvestor[msg.sender] */\n      0x00\n        /* \"contracts/stake_reward_MLM.sol\":4773:4783  msg.sender */\n      caller\n        /* \"contracts/stake_reward_MLM.sol\":4760:4784  DUSDinvestor[msg.sender] */\n      0xffffffffffffffffffffffffffffffffffffffff\n      and\n      0xffffffffffffffffffffffffffffffffffffffff\n      and\n      dup2\n      mstore\n      0x20\n      add\n      swap1\n      dup2\n      mstore\n      0x20\n      add\n      0x00\n      keccak256\n        /* \"contracts/stake_reward_MLM.sol\":4760:4797  DUSDinvestor[msg.sender].referralFrom */\n      0x02\n      add\n      0x00\n        /* \"contracts/stake_reward_MLM.sol\":4760:4809  DUSDinvestor[msg.sender].referralFrom = _referral */\n      0x0100\n      exp\n      dup2\n      sload\n      dup2\n      0xffffffffffffffffffffffffffffffffffffffff\n      mul\n      not\n      and\n      swap1\n      dup4\n      0xffffffffffffffffffffffffffffffffffffffff\n      and\n      mul\n      or\n      swap1\n      sstore\n      pop\n        /* \"contracts/stake_reward_MLM.sol\":4827:4839  DUSDinvestor */\n      0x09\n        /* \"contracts/stake_reward_MLM.sol\":4827:4850  DUSDinvestor[_referral] */\n      0x00\n        /* \"contracts/stake_reward_MLM.sol\":4840:4849  _referral */\n      dup5\n        /* \"contracts/stake_reward_MLM.sol\":4827:4850  DUSDinvestor[_referral] */\n      0xffffffffffffffffffffffffffffffffffffffff\n      and\n      0xffffffffffffffffffffffffffffffffffffffff\n      and\n      dup2\n      mstore\n      0x20\n      add\n      swap1\n      dup2\n      mstore\n      0x20\n      add\n      0x00\n      keccak256\n        /* \"contracts/stake_reward_MLM.sol\":4827:4863  DUSDinvestor[_referral].hisReferrals */\n      0x01\n      add\n        /* \"contracts/stake_reward_MLM.sol\":4869:4879  msg.sender */\n      caller\n        /* \"contracts/stake_reward_MLM.sol\":4827:4880  DUSDinvestor[_referral].hisReferrals.push(msg.sender) */\n      swap1\n      dup1\n      0x01\n      dup2\n      sload\n      add\n      dup1\n      dup3\n      sstore\n      dup1\n      swap2\n      pop\n      pop\n      0x01\n      swap1\n      sub\n      swap1\n      0x00\n      mstore\n      keccak256(0x00, 0x20)\n      add\n      0x00\n      swap1\n      swap2\n      swap1\n      swap2\n      swap1\n      swap2\n      0x0100\n      exp\n      dup2\n      sload\n      dup2\n      0xffffffffffffffffffffffffffffffffffffffff\n      mul\n      not\n      and\n      swap1\n      dup4\n      0xffffffffffffffffffffffffffffffffffffffff\n      and\n      mul\n      or\n      swap1\n      sstore\n      pop\n        /* \"contracts/stake_reward_MLM.sol\":4898:4951  sendRewardToDUSDReferrals(msg.sender,_investedamount) */\n      tag_142\n        /* \"contracts/stake_reward_MLM.sol\":4924:4934  msg.sender */\n      caller\n        /* \"contracts/stake_reward_MLM.sol\":4935:4950  _investedamount */\n      dup6\n        /* \"contracts/stake_reward_MLM.sol\":4898:4923  sendRewardToDUSDReferrals */\n      tag_143\n        /* \"contracts/stake_reward_MLM.sol\":4898:4951  sendRewardToDUSDReferrals(msg.sender,_investedamount) */\n      jump\t// in\n    tag_142:\n        /* \"contracts/stake_reward_MLM.sol\":4417:5060  if(_referral==address(0) || _referral==msg.sender || DUSDinvestor[msg.sender].investBefore==true)                                         //checking that investor comes from the referral link or not... */\n    tag_140:\n        /* \"contracts/stake_reward_MLM.sol\":5111:5115  true */\n      0x01\n        /* \"contracts/stake_reward_MLM.sol\":5073:5085  DUSDinvestor */\n      0x09\n        /* \"contracts/stake_reward_MLM.sol\":5073:5097  DUSDinvestor[msg.sender] */\n      0x00\n        /* \"contracts/stake_reward_MLM.sol\":5086:5096  msg.sender */\n      caller\n        /* \"contracts/stake_reward_MLM.sol\":5073:5097  DUSDinvestor[msg.sender] */\n      0xffffffffffffffffffffffffffffffffffffffff\n      and\n      0xffffffffffffffffffffffffffffffffffffffff\n      and\n      dup2\n      mstore\n      0x20\n      add\n      swap1\n      dup2\n      mstore\n      0x20\n      add\n      0x00\n      keccak256\n        /* \"contracts/stake_reward_MLM.sol\":5073:5110  DUSDinvestor[msg.sender].investBefore */\n      0x08\n      add\n      0x00\n        /* \"contracts/stake_reward_MLM.sol\":5073:5115  DUSDinvestor[msg.sender].investBefore=true */\n      0x0100\n      exp\n      dup2\n      sload\n      dup2\n      0xff\n      mul\n      not\n      and\n      swap1\n      dup4\n      iszero\n      iszero\n      mul\n      or\n      swap1\n      sstore\n      pop\n        /* \"contracts/stake_reward_MLM.sol\":5137:5141  true */\n      0x01\n        /* \"contracts/stake_reward_MLM.sol\":5130:5141  return true */\n      swap2\n      pop\n      pop\n        /* \"contracts/stake_reward_MLM.sol\":3241:5165  function Stake(uint _investedamount,address _referral) external returns(bool success){... */\n      swap3\n      swap2\n      pop\n      pop\n      jump\t// out\n        /* \"contracts/stake_reward_MLM.sol\":9554:9665  function set_min_Stake_amount(uint _amount) public ... */\n    tag_52:\n        /* \"contracts/stake_reward_MLM.sol\":9647:9654  _amount */\n      dup1\n        /* \"contracts/stake_reward_MLM.sol\":9628:9644  min_Stake_amount */\n      0x05\n        /* \"contracts/stake_reward_MLM.sol\":9628:9654  min_Stake_amount = _amount */\n      dup2\n      swap1\n      sstore\n      pop\n        /* \"contracts/stake_reward_MLM.sol\":9554:9665  function set_min_Stake_amount(uint _amount) public ... */\n      pop\n      jump\t// out\n        /* \"contracts/stake_reward_MLM.sol\":8036:9019  function getAllDUSDinvestments() public view returns (allInvestments[] memory) { //this function will return the all investments of the investor and withware date... */\n    tag_54:\n        /* \"contracts/stake_reward_MLM.sol\":8090:8113  allInvestments[] memory */\n      0x60\n        /* \"contracts/stake_reward_MLM.sol\":8211:8219  uint num */\n      0x00\n        /* \"contracts/stake_reward_MLM.sol\":8222:8234  DUSDinvestor */\n      0x09\n        /* \"contracts/stake_reward_MLM.sol\":8222:8246  DUSDinvestor[msg.sender] */\n      0x00\n        /* \"contracts/stake_reward_MLM.sol\":8235:8245  msg.sender */\n      caller\n        /* \"contracts/stake_reward_MLM.sol\":8222:8246  DUSDinvestor[msg.sender] */\n      0xffffffffffffffffffffffffffffffffffffffff\n      and\n      0xffffffffffffffffffffffffffffffffffffffff\n      and\n      dup2\n      mstore\n      0x20\n      add\n      swap1\n      dup2\n      mstore\n      0x20\n      add\n      0x00\n      keccak256\n        /* \"contracts/stake_reward_MLM.sol\":8222:8261  DUSDinvestor[msg.sender].noOfInvestment */\n      0x05\n      add\n      sload\n        /* \"contracts/stake_reward_MLM.sol\":8211:8261  uint num = DUSDinvestor[msg.sender].noOfInvestment */\n      swap1\n      pop\n        /* \"contracts/stake_reward_MLM.sol\":8275:8284  uint temp */\n      0x00\n        /* \"contracts/stake_reward_MLM.sol\":8298:8315  uint currentIndex */\n      dup1\n        /* \"contracts/stake_reward_MLM.sol\":8346:8352  uint i */\n      0x00\n        /* \"contracts/stake_reward_MLM.sol\":8342:8518  for(uint i=0;i<num;i++)... */\n    tag_146:\n        /* \"contracts/stake_reward_MLM.sol\":8357:8360  num */\n      dup4\n        /* \"contracts/stake_reward_MLM.sol\":8355:8356  i */\n      dup2\n        /* \"contracts/stake_reward_MLM.sol\":8355:8360  i<num */\n      lt\n        /* \"contracts/stake_reward_MLM.sol\":8342:8518  for(uint i=0;i<num;i++)... */\n      iszero\n      tag_147\n      jumpi\n        /* \"contracts/stake_reward_MLM.sol\":8455:8456  0 */\n      0x00\n        /* \"contracts/stake_reward_MLM.sol\":8399:8411  DUSDinvestor */\n      0x09\n        /* \"contracts/stake_reward_MLM.sol\":8399:8423  DUSDinvestor[msg.sender] */\n      0x00\n        /* \"contracts/stake_reward_MLM.sol\":8412:8422  msg.sender */\n      caller\n        /* \"contracts/stake_reward_MLM.sol\":8399:8423  DUSDinvestor[msg.sender] */\n      0xffffffffffffffffffffffffffffffffffffffff\n      and\n      0xffffffffffffffffffffffffffffffffffffffff\n      and\n      dup2\n      mstore\n      0x20\n      add\n      swap1\n      dup2\n      mstore\n      0x20\n      add\n      0x00\n      keccak256\n        /* \"contracts/stake_reward_MLM.sol\":8399:8434  DUSDinvestor[msg.sender].investment */\n      0x00\n      add\n        /* \"contracts/stake_reward_MLM.sol\":8399:8437  DUSDinvestor[msg.sender].investment[i] */\n      0x00\n        /* \"contracts/stake_reward_MLM.sol\":8435:8436  i */\n      dup4\n        /* \"contracts/stake_reward_MLM.sol\":8399:8437  DUSDinvestor[msg.sender].investment[i] */\n      dup2\n      mstore\n      0x20\n      add\n      swap1\n      dup2\n      mstore\n      0x20\n      add\n      0x00\n      keccak256\n        /* \"contracts/stake_reward_MLM.sol\":8399:8452  DUSDinvestor[msg.sender].investment[i].investedAmount */\n      0x00\n      add\n      sload\n        /* \"contracts/stake_reward_MLM.sol\":8399:8456  DUSDinvestor[msg.sender].investment[i].investedAmount > 0 */\n      gt\n        /* \"contracts/stake_reward_MLM.sol\":8395:8503  if( DUSDinvestor[msg.sender].investment[i].investedAmount > 0 ){... */\n      iszero\n      tag_149\n      jumpi\n        /* \"contracts/stake_reward_MLM.sol\":8479:8485  temp++ */\n      dup3\n      dup1\n      tag_150\n      swap1\n      tag_123\n      jump\t// in\n    tag_150:\n      swap4\n      pop\n      pop\n        /* \"contracts/stake_reward_MLM.sol\":8395:8503  if( DUSDinvestor[msg.sender].investment[i].investedAmount > 0 ){... */\n    tag_149:\n        /* \"contracts/stake_reward_MLM.sol\":8361:8364  i++ */\n      dup1\n      dup1\n      tag_151\n      swap1\n      tag_123\n      jump\t// in\n    tag_151:\n      swap2\n      pop\n      pop\n        /* \"contracts/stake_reward_MLM.sol\":8342:8518  for(uint i=0;i<num;i++)... */\n      jump(tag_146)\n    tag_147:\n      pop\n        /* \"contracts/stake_reward_MLM.sol\":8541:8573  allInvestments[] memory Invested */\n      0x00\n        /* \"contracts/stake_reward_MLM.sol\":8598:8602  temp */\n      dup3\n        /* \"contracts/stake_reward_MLM.sol\":8577:8603  new allInvestments[](temp) */\n      0xffffffffffffffff\n      dup2\n      gt\n      iszero\n      tag_152\n      jumpi\n      tag_153\n      tag_154\n      jump\t// in\n    tag_153:\n    tag_152:\n      mload(0x40)\n      swap1\n      dup1\n      dup3\n      mstore\n      dup1\n      0x20\n      mul\n      0x20\n      add\n      dup3\n      add\n      0x40\n      mstore\n      dup1\n      iszero\n      tag_155\n      jumpi\n      dup2\n      0x20\n      add\n    tag_156:\n      tag_157\n      tag_158\n      jump\t// in\n    tag_157:\n      dup2\n      mstore\n      0x20\n      add\n      swap1\n      0x01\n      swap1\n      sub\n      swap1\n      dup2\n      tag_156\n      jumpi\n      swap1\n      pop\n    tag_155:\n      pop\n        /* \"contracts/stake_reward_MLM.sol\":8541:8603  allInvestments[] memory Invested =  new allInvestments[](temp) */\n      swap1\n      pop\n        /* \"contracts/stake_reward_MLM.sol\":8623:8629  uint i */\n      0x00\n        /* \"contracts/stake_reward_MLM.sol\":8619:8979  for(uint i=0;i<num;i++)... */\n    tag_159:\n        /* \"contracts/stake_reward_MLM.sol\":8634:8637  num */\n      dup5\n        /* \"contracts/stake_reward_MLM.sol\":8632:8633  i */\n      dup2\n        /* \"contracts/stake_reward_MLM.sol\":8632:8637  i<num */\n      lt\n        /* \"contracts/stake_reward_MLM.sol\":8619:8979  for(uint i=0;i<num;i++)... */\n      iszero\n      tag_160\n      jumpi\n        /* \"contracts/stake_reward_MLM.sol\":8732:8733  0 */\n      0x00\n        /* \"contracts/stake_reward_MLM.sol\":8676:8688  DUSDinvestor */\n      0x09\n        /* \"contracts/stake_reward_MLM.sol\":8676:8700  DUSDinvestor[msg.sender] */\n      0x00\n        /* \"contracts/stake_reward_MLM.sol\":8689:8699  msg.sender */\n      caller\n        /* \"contracts/stake_reward_MLM.sol\":8676:8700  DUSDinvestor[msg.sender] */\n      0xffffffffffffffffffffffffffffffffffffffff\n      and\n      0xffffffffffffffffffffffffffffffffffffffff\n      and\n      dup2\n      mstore\n      0x20\n      add\n      swap1\n      dup2\n      mstore\n      0x20\n      add\n      0x00\n      keccak256\n        /* \"contracts/stake_reward_MLM.sol\":8676:8711  DUSDinvestor[msg.sender].investment */\n      0x00\n      add\n        /* \"contracts/stake_reward_MLM.sol\":8676:8714  DUSDinvestor[msg.sender].investment[i] */\n      0x00\n        /* \"contracts/stake_reward_MLM.sol\":8712:8713  i */\n      dup4\n        /* \"contracts/stake_reward_MLM.sol\":8676:8714  DUSDinvestor[msg.sender].investment[i] */\n      dup2\n      mstore\n      0x20\n      add\n      swap1\n      dup2\n      mstore\n      0x20\n      add\n      0x00\n      keccak256\n        /* \"contracts/stake_reward_MLM.sol\":8676:8729  DUSDinvestor[msg.sender].investment[i].investedAmount */\n      0x00\n      add\n      sload\n        /* \"contracts/stake_reward_MLM.sol\":8676:8733  DUSDinvestor[msg.sender].investment[i].investedAmount > 0 */\n      gt\n        /* \"contracts/stake_reward_MLM.sol\":8672:8964  if( DUSDinvestor[msg.sender].investment[i].investedAmount > 0 ){... */\n      iszero\n      tag_162\n      jumpi\n        /* \"contracts/stake_reward_MLM.sol\":8873:8885  DUSDinvestor */\n      0x09\n        /* \"contracts/stake_reward_MLM.sol\":8873:8897  DUSDinvestor[msg.sender] */\n      0x00\n        /* \"contracts/stake_reward_MLM.sol\":8886:8896  msg.sender */\n      caller\n        /* \"contracts/stake_reward_MLM.sol\":8873:8897  DUSDinvestor[msg.sender] */\n      0xffffffffffffffffffffffffffffffffffffffff\n      and\n      0xffffffffffffffffffffffffffffffffffffffff\n      and\n      dup2\n      mstore\n      0x20\n      add\n      swap1\n      dup2\n      mstore\n      0x20\n      add\n      0x00\n      keccak256\n        /* \"contracts/stake_reward_MLM.sol\":8873:8908  DUSDinvestor[msg.sender].investment */\n      0x00\n      add\n        /* \"contracts/stake_reward_MLM.sol\":8873:8911  DUSDinvestor[msg.sender].investment[i] */\n      0x00\n        /* \"contracts/stake_reward_MLM.sol\":8909:8910  i */\n      dup3\n        /* \"contracts/stake_reward_MLM.sol\":8873:8911  DUSDinvestor[msg.sender].investment[i] */\n      dup2\n      mstore\n      0x20\n      add\n      swap1\n      dup2\n      mstore\n      0x20\n      add\n      0x00\n      keccak256\n        /* \"contracts/stake_reward_MLM.sol\":8850:8911  Invested[currentIndex]=DUSDinvestor[msg.sender].investment[i] */\n      mload(0x40)\n      dup1\n      0xa0\n      add\n      0x40\n      mstore\n      swap1\n      dup2\n      0x00\n      dup3\n      add\n      sload\n      dup2\n      mstore\n      0x20\n      add\n      0x01\n      dup3\n      add\n      sload\n      dup2\n      mstore\n      0x20\n      add\n      0x02\n      dup3\n      add\n      sload\n      dup2\n      mstore\n      0x20\n      add\n      0x03\n      dup3\n      add\n      sload\n      dup2\n      mstore\n      0x20\n      add\n      0x04\n      dup3\n      add\n      0x00\n      swap1\n      sload\n      swap1\n      0x0100\n      exp\n      swap1\n      div\n      0xff\n      and\n      iszero\n      iszero\n      iszero\n      iszero\n      dup2\n      mstore\n      pop\n      pop\n        /* \"contracts/stake_reward_MLM.sol\":8850:8858  Invested */\n      dup3\n        /* \"contracts/stake_reward_MLM.sol\":8859:8871  currentIndex */\n      dup5\n        /* \"contracts/stake_reward_MLM.sol\":8850:8872  Invested[currentIndex] */\n      dup2\n      mload\n      dup2\n      lt\n      tag_163\n      jumpi\n      tag_164\n      tag_165\n      jump\t// in\n    tag_164:\n    tag_163:\n      0x20\n      mul\n      0x20\n      add\n      add\n        /* \"contracts/stake_reward_MLM.sol\":8850:8911  Invested[currentIndex]=DUSDinvestor[msg.sender].investment[i] */\n      dup2\n      swap1\n      mstore\n      pop\n        /* \"contracts/stake_reward_MLM.sol\":8932:8946  currentIndex++ */\n      dup3\n      dup1\n      tag_166\n      swap1\n      tag_123\n      jump\t// in\n    tag_166:\n      swap4\n      pop\n      pop\n        /* \"contracts/stake_reward_MLM.sol\":8672:8964  if( DUSDinvestor[msg.sender].investment[i].investedAmount > 0 ){... */\n    tag_162:\n        /* \"contracts/stake_reward_MLM.sol\":8638:8641  i++ */\n      dup1\n      dup1\n      tag_167\n      swap1\n      tag_123\n      jump\t// in\n    tag_167:\n      swap2\n      pop\n      pop\n        /* \"contracts/stake_reward_MLM.sol\":8619:8979  for(uint i=0;i<num;i++)... */\n      jump(tag_159)\n    tag_160:\n      pop\n        /* \"contracts/stake_reward_MLM.sol\":8999:9007  Invested */\n      dup1\n        /* \"contracts/stake_reward_MLM.sol\":8992:9007  return Invested */\n      swap5\n      pop\n      pop\n      pop\n      pop\n      pop\n        /* \"contracts/stake_reward_MLM.sol\":8036:9019  function getAllDUSDinvestments() public view returns (allInvestments[] memory) { //this function will return the all investments of the investor and withware date... */\n      swap1\n      jump\t// out\n        /* \"contracts/stake_reward_MLM.sol\":5174:5860  function getReward() view public returns(uint){ //this function is get the total reward balance of the investor... */\n    tag_58:\n        /* \"contracts/stake_reward_MLM.sol\":5215:5219  uint */\n      0x00\n        /* \"contracts/stake_reward_MLM.sol\":5298:5314  uint totalReward */\n      dup1\n        /* \"contracts/stake_reward_MLM.sol\":5328:5340  uint depTime */\n      0x00\n        /* \"contracts/stake_reward_MLM.sol\":5354:5363  uint temp */\n      dup1\n        /* \"contracts/stake_reward_MLM.sol\":5366:5378  DUSDinvestor */\n      0x09\n        /* \"contracts/stake_reward_MLM.sol\":5366:5390  DUSDinvestor[msg.sender] */\n      0x00\n        /* \"contracts/stake_reward_MLM.sol\":5379:5389  msg.sender */\n      caller\n        /* \"contracts/stake_reward_MLM.sol\":5366:5390  DUSDinvestor[msg.sender] */\n      0xffffffffffffffffffffffffffffffffffffffff\n      and\n      0xffffffffffffffffffffffffffffffffffffffff\n      and\n      dup2\n      mstore\n      0x20\n      add\n      swap1\n      dup2\n      mstore\n      0x20\n      add\n      0x00\n      keccak256\n        /* \"contracts/stake_reward_MLM.sol\":5366:5405  DUSDinvestor[msg.sender].noOfInvestment */\n      0x05\n      add\n      sload\n        /* \"contracts/stake_reward_MLM.sol\":5354:5405  uint temp = DUSDinvestor[msg.sender].noOfInvestment */\n      swap1\n      pop\n        /* \"contracts/stake_reward_MLM.sol\":5424:5430  uint i */\n      0x00\n        /* \"contracts/stake_reward_MLM.sol\":5419:5818  for( uint i = 0;i < temp;i++)... */\n    tag_169:\n        /* \"contracts/stake_reward_MLM.sol\":5439:5443  temp */\n      dup2\n        /* \"contracts/stake_reward_MLM.sol\":5435:5436  i */\n      dup2\n        /* \"contracts/stake_reward_MLM.sol\":5435:5443  i < temp */\n      lt\n        /* \"contracts/stake_reward_MLM.sol\":5419:5818  for( uint i = 0;i < temp;i++)... */\n      iszero\n      tag_170\n      jumpi\n        /* \"contracts/stake_reward_MLM.sol\":5509:5521  DUSDinvestor */\n      0x09\n        /* \"contracts/stake_reward_MLM.sol\":5509:5533  DUSDinvestor[msg.sender] */\n      0x00\n        /* \"contracts/stake_reward_MLM.sol\":5522:5532  msg.sender */\n      caller\n        /* \"contracts/stake_reward_MLM.sol\":5509:5533  DUSDinvestor[msg.sender] */\n      0xffffffffffffffffffffffffffffffffffffffff\n      and\n      0xffffffffffffffffffffffffffffffffffffffff\n      and\n      dup2\n      mstore\n      0x20\n      add\n      swap1\n      dup2\n      mstore\n      0x20\n      add\n      0x00\n      keccak256\n        /* \"contracts/stake_reward_MLM.sol\":5509:5544  DUSDinvestor[msg.sender].investment */\n      0x00\n      add\n        /* \"contracts/stake_reward_MLM.sol\":5509:5547  DUSDinvestor[msg.sender].investment[i] */\n      0x00\n        /* \"contracts/stake_reward_MLM.sol\":5545:5546  i */\n      dup3\n        /* \"contracts/stake_reward_MLM.sol\":5509:5547  DUSDinvestor[msg.sender].investment[i] */\n      dup2\n      mstore\n      0x20\n      add\n      swap1\n      dup2\n      mstore\n      0x20\n      add\n      0x00\n      keccak256\n        /* \"contracts/stake_reward_MLM.sol\":5509:5559  DUSDinvestor[msg.sender].investment[i].DepositTime */\n      0x02\n      add\n      sload\n        /* \"contracts/stake_reward_MLM.sol\":5491:5506  block.timestamp */\n      timestamp\n        /* \"contracts/stake_reward_MLM.sol\":5491:5559  block.timestamp - DUSDinvestor[msg.sender].investment[i].DepositTime */\n      tag_172\n      swap2\n      swap1\n      tag_173\n      jump\t// in\n    tag_172:\n        /* \"contracts/stake_reward_MLM.sol\":5482:5559  depTime =block.timestamp - DUSDinvestor[msg.sender].investment[i].DepositTime */\n      swap3\n      pop\n        /* \"contracts/stake_reward_MLM.sol\":5593:5595  60 */\n      0x3c\n        /* \"contracts/stake_reward_MLM.sol\":5585:5592  depTime */\n      dup4\n        /* \"contracts/stake_reward_MLM.sol\":5585:5595  depTime/60 */\n      tag_174\n      swap2\n      swap1\n      tag_175\n      jump\t// in\n    tag_174:\n        /* \"contracts/stake_reward_MLM.sol\":5577:5595  depTime=depTime/60 */\n      swap3\n      pop\n        /* \"contracts/stake_reward_MLM.sol\":5632:5633  0 */\n      0x00\n        /* \"contracts/stake_reward_MLM.sol\":5624:5631  depTime */\n      dup4\n        /* \"contracts/stake_reward_MLM.sol\":5624:5633  depTime>0 */\n      gt\n        /* \"contracts/stake_reward_MLM.sol\":5621:5726  if(depTime>0)... */\n      iszero\n      tag_176\n      jumpi\n        /* \"contracts/stake_reward_MLM.sol\":5696:5707  rewardToken */\n      sload(0x04)\n        /* \"contracts/stake_reward_MLM.sol\":5686:5693  depTime */\n      dup4\n        /* \"contracts/stake_reward_MLM.sol\":5686:5707  depTime * rewardToken */\n      tag_177\n      swap2\n      swap1\n      tag_130\n      jump\t// in\n    tag_177:\n        /* \"contracts/stake_reward_MLM.sol\":5672:5707  totalReward = depTime * rewardToken */\n      swap4\n      pop\n        /* \"contracts/stake_reward_MLM.sol\":5621:5726  if(depTime>0)... */\n    tag_176:\n        /* \"contracts/stake_reward_MLM.sol\":5757:5769  DUSDinvestor */\n      0x09\n        /* \"contracts/stake_reward_MLM.sol\":5757:5781  DUSDinvestor[msg.sender] */\n      0x00\n        /* \"contracts/stake_reward_MLM.sol\":5770:5780  msg.sender */\n      caller\n        /* \"contracts/stake_reward_MLM.sol\":5757:5781  DUSDinvestor[msg.sender] */\n      0xffffffffffffffffffffffffffffffffffffffff\n      and\n      0xffffffffffffffffffffffffffffffffffffffff\n      and\n      dup2\n      mstore\n      0x20\n      add\n      swap1\n      dup2\n      mstore\n      0x20\n      add\n      0x00\n      keccak256\n        /* \"contracts/stake_reward_MLM.sol\":5757:5802  DUSDinvestor[msg.sender].totalWithdraw_reward */\n      0x07\n      add\n      sload\n        /* \"contracts/stake_reward_MLM.sol\":5743:5802  totalReward -=DUSDinvestor[msg.sender].totalWithdraw_reward */\n      dup5\n      tag_178\n      swap2\n      swap1\n      tag_173\n      jump\t// in\n    tag_178:\n      swap4\n      pop\n        /* \"contracts/stake_reward_MLM.sol\":5444:5447  i++ */\n      dup1\n      dup1\n      tag_179\n      swap1\n      tag_123\n      jump\t// in\n    tag_179:\n      swap2\n      pop\n      pop\n        /* \"contracts/stake_reward_MLM.sol\":5419:5818  for( uint i = 0;i < temp;i++)... */\n      jump(tag_169)\n    tag_170:\n      pop\n        /* \"contracts/stake_reward_MLM.sol\":5838:5849  totalReward */\n      dup3\n        /* \"contracts/stake_reward_MLM.sol\":5831:5849  return totalReward */\n      swap4\n      pop\n      pop\n      pop\n      pop\n        /* \"contracts/stake_reward_MLM.sol\":5174:5860  function getReward() view public returns(uint){ //this function is get the total reward balance of the investor... */\n      swap1\n      jump\t// out\n        /* \"contracts/stake_reward_MLM.sol\":9674:9785  function set_max_Stake_amount(uint _amount) public ... */\n    tag_62:\n        /* \"contracts/stake_reward_MLM.sol\":9767:9774  _amount */\n      dup1\n        /* \"contracts/stake_reward_MLM.sol\":9748:9764  max_Stake_amount */\n      0x06\n        /* \"contracts/stake_reward_MLM.sol\":9748:9774  max_Stake_amount = _amount */\n      dup2\n      swap1\n      sstore\n      pop\n        /* \"contracts/stake_reward_MLM.sol\":9674:9785  function set_max_Stake_amount(uint _amount) public ... */\n      pop\n      jump\t// out\n        /* \"contracts/stake_reward_MLM.sol\":713:750  uint public investmentPeriod=300 days */\n    tag_64:\n      sload(0x07)\n      dup2\n      jump\t// out\n        /* \"contracts/stake_reward_MLM.sol\":6362:7806  function unStake() external  returns (bool success){... */\n    tag_67:\n        /* \"contracts/stake_reward_MLM.sol\":6400:6412  bool success */\n      0x00\n        /* \"contracts/stake_reward_MLM.sol\":6476:6477  0 */\n      dup1\n        /* \"contracts/stake_reward_MLM.sol\":6435:6447  DUSDinvestor */\n      0x09\n        /* \"contracts/stake_reward_MLM.sol\":6435:6459  DUSDinvestor[msg.sender] */\n      0x00\n        /* \"contracts/stake_reward_MLM.sol\":6448:6458  msg.sender */\n      caller\n        /* \"contracts/stake_reward_MLM.sol\":6435:6459  DUSDinvestor[msg.sender] */\n      0xffffffffffffffffffffffffffffffffffffffff\n      and\n      0xffffffffffffffffffffffffffffffffffffffff\n      and\n      dup2\n      mstore\n      0x20\n      add\n      swap1\n      dup2\n      mstore\n      0x20\n      add\n      0x00\n      keccak256\n        /* \"contracts/stake_reward_MLM.sol\":6435:6475  DUSDinvestor[msg.sender].totalInvestment */\n      0x06\n      add\n      sload\n        /* \"contracts/stake_reward_MLM.sol\":6435:6477  DUSDinvestor[msg.sender].totalInvestment>0 */\n      gt\n        /* \"contracts/stake_reward_MLM.sol\":6427:6518  require(DUSDinvestor[msg.sender].totalInvestment>0,\"you dont have investment to withdrawn\") */\n      tag_182\n      jumpi\n      mload(0x40)\n      0x08c379a000000000000000000000000000000000000000000000000000000000\n      dup2\n      mstore\n      0x04\n      add\n      tag_183\n      swap1\n      tag_184\n      jump\t// in\n    tag_183:\n      mload(0x40)\n      dup1\n      swap2\n      sub\n      swap1\n      revert\n    tag_182:\n        /* \"contracts/stake_reward_MLM.sol\":6590:6601  uint amount */\n      0x00\n        /* \"contracts/stake_reward_MLM.sol\":6602:6614  DUSDinvestor */\n      0x09\n        /* \"contracts/stake_reward_MLM.sol\":6602:6626  DUSDinvestor[msg.sender] */\n      0x00\n        /* \"contracts/stake_reward_MLM.sol\":6615:6625  msg.sender */\n      caller\n        /* \"contracts/stake_reward_MLM.sol\":6602:6626  DUSDinvestor[msg.sender] */\n      0xffffffffffffffffffffffffffffffffffffffff\n      and\n      0xffffffffffffffffffffffffffffffffffffffff\n      and\n      dup2\n      mstore\n      0x20\n      add\n      swap1\n      dup2\n      mstore\n      0x20\n      add\n      0x00\n      keccak256\n        /* \"contracts/stake_reward_MLM.sol\":6602:6642  DUSDinvestor[msg.sender].totalInvestment */\n      0x06\n      add\n      sload\n        /* \"contracts/stake_reward_MLM.sol\":6590:6642  uint amount=DUSDinvestor[msg.sender].totalInvestment */\n      swap1\n      pop\n        /* \"contracts/stake_reward_MLM.sol\":6656:6665  uint temp */\n      0x00\n        /* \"contracts/stake_reward_MLM.sol\":6668:6680  DUSDinvestor */\n      0x09\n        /* \"contracts/stake_reward_MLM.sol\":6668:6692  DUSDinvestor[msg.sender] */\n      0x00\n        /* \"contracts/stake_reward_MLM.sol\":6681:6691  msg.sender */\n      caller\n        /* \"contracts/stake_reward_MLM.sol\":6668:6692  DUSDinvestor[msg.sender] */\n      0xffffffffffffffffffffffffffffffffffffffff\n      and\n      0xffffffffffffffffffffffffffffffffffffffff\n      and\n      dup2\n      mstore\n      0x20\n      add\n      swap1\n      dup2\n      mstore\n      0x20\n      add\n      0x00\n      keccak256\n        /* \"contracts/stake_reward_MLM.sol\":6668:6707  DUSDinvestor[msg.sender].noOfInvestment */\n      0x05\n      add\n      sload\n        /* \"contracts/stake_reward_MLM.sol\":6656:6707  uint temp = DUSDinvestor[msg.sender].noOfInvestment */\n      swap1\n      pop\n        /* \"contracts/stake_reward_MLM.sol\":6722:6735  uint amount30 */\n      0x00\n        /* \"contracts/stake_reward_MLM.sol\":6749:6762  uint amount70 */\n      dup1\n        /* \"contracts/stake_reward_MLM.sol\":6776:6784  uint num */\n      0x00\n        /* \"contracts/stake_reward_MLM.sol\":6787:6799  DUSDinvestor */\n      0x09\n        /* \"contracts/stake_reward_MLM.sol\":6787:6811  DUSDinvestor[msg.sender] */\n      0x00\n        /* \"contracts/stake_reward_MLM.sol\":6800:6810  msg.sender */\n      caller\n        /* \"contracts/stake_reward_MLM.sol\":6787:6811  DUSDinvestor[msg.sender] */\n      0xffffffffffffffffffffffffffffffffffffffff\n      and\n      0xffffffffffffffffffffffffffffffffffffffff\n      and\n      dup2\n      mstore\n      0x20\n      add\n      swap1\n      dup2\n      mstore\n      0x20\n      add\n      0x00\n      keccak256\n        /* \"contracts/stake_reward_MLM.sol\":6787:6826  DUSDinvestor[msg.sender].noOfInvestment */\n      0x05\n      add\n      sload\n        /* \"contracts/stake_reward_MLM.sol\":6776:6826  uint num = DUSDinvestor[msg.sender].noOfInvestment */\n      swap1\n      pop\n        /* \"contracts/stake_reward_MLM.sol\":6902:6917  block.timestamp */\n      timestamp\n        /* \"contracts/stake_reward_MLM.sol\":6843:6855  DUSDinvestor */\n      0x09\n        /* \"contracts/stake_reward_MLM.sol\":6843:6867  DUSDinvestor[msg.sender] */\n      0x00\n        /* \"contracts/stake_reward_MLM.sol\":6856:6866  msg.sender */\n      caller\n        /* \"contracts/stake_reward_MLM.sol\":6843:6867  DUSDinvestor[msg.sender] */\n      0xffffffffffffffffffffffffffffffffffffffff\n      and\n      0xffffffffffffffffffffffffffffffffffffffff\n      and\n      dup2\n      mstore\n      0x20\n      add\n      swap1\n      dup2\n      mstore\n      0x20\n      add\n      0x00\n      keccak256\n        /* \"contracts/stake_reward_MLM.sol\":6843:6878  DUSDinvestor[msg.sender].investment */\n      0x00\n      add\n        /* \"contracts/stake_reward_MLM.sol\":6843:6885  DUSDinvestor[msg.sender].investment[num-1] */\n      0x00\n        /* \"contracts/stake_reward_MLM.sol\":6883:6884  1 */\n      0x01\n        /* \"contracts/stake_reward_MLM.sol\":6879:6882  num */\n      dup5\n        /* \"contracts/stake_reward_MLM.sol\":6879:6884  num-1 */\n      tag_185\n      swap2\n      swap1\n      tag_173\n      jump\t// in\n    tag_185:\n        /* \"contracts/stake_reward_MLM.sol\":6843:6885  DUSDinvestor[msg.sender].investment[num-1] */\n      dup2\n      mstore\n      0x20\n      add\n      swap1\n      dup2\n      mstore\n      0x20\n      add\n      0x00\n      keccak256\n        /* \"contracts/stake_reward_MLM.sol\":6843:6899  DUSDinvestor[msg.sender].investment[num-1].withdrawnTime */\n      0x01\n      add\n      sload\n        /* \"contracts/stake_reward_MLM.sol\":6843:6917  DUSDinvestor[msg.sender].investment[num-1].withdrawnTime > block.timestamp */\n      gt\n        /* \"contracts/stake_reward_MLM.sol\":6840:7424  if(DUSDinvestor[msg.sender].investment[num-1].withdrawnTime > block.timestamp)... */\n      iszero\n      tag_186\n      jumpi\n        /* \"contracts/stake_reward_MLM.sol\":6973:6975  30 */\n      0x1e\n        /* \"contracts/stake_reward_MLM.sol\":6968:6971  100 */\n      0x64\n        /* \"contracts/stake_reward_MLM.sol\":6961:6967  amount */\n      dup7\n        /* \"contracts/stake_reward_MLM.sol\":6961:6971  amount/100 */\n      tag_187\n      swap2\n      swap1\n      tag_175\n      jump\t// in\n    tag_187:\n        /* \"contracts/stake_reward_MLM.sol\":6960:6975  (amount/100)*30 */\n      tag_188\n      swap2\n      swap1\n      tag_130\n      jump\t// in\n    tag_188:\n        /* \"contracts/stake_reward_MLM.sol\":6949:6975  amount30 = (amount/100)*30 */\n      swap3\n      pop\n        /* \"contracts/stake_reward_MLM.sol\":7017:7019  70 */\n      0x46\n        /* \"contracts/stake_reward_MLM.sol\":7012:7015  100 */\n      0x64\n        /* \"contracts/stake_reward_MLM.sol\":7005:7011  amount */\n      dup7\n        /* \"contracts/stake_reward_MLM.sol\":7005:7015  amount/100 */\n      tag_189\n      swap2\n      swap1\n      tag_175\n      jump\t// in\n    tag_189:\n        /* \"contracts/stake_reward_MLM.sol\":7004:7019  (amount/100)*70 */\n      tag_190\n      swap2\n      swap1\n      tag_130\n      jump\t// in\n    tag_190:\n        /* \"contracts/stake_reward_MLM.sol\":6993:7019  amount70 = (amount/100)*70 */\n      swap2\n      pop\n        /* \"contracts/stake_reward_MLM.sol\":7042:7053  SMCcontract */\n      0x01\n      0x00\n      swap1\n      sload\n      swap1\n      0x0100\n      exp\n      swap1\n      div\n      0xffffffffffffffffffffffffffffffffffffffff\n      and\n        /* \"contracts/stake_reward_MLM.sol\":7037:7063  DUSD(SMCcontract).transfer */\n      0xffffffffffffffffffffffffffffffffffffffff\n      and\n      0xa9059cbb\n        /* \"contracts/stake_reward_MLM.sol\":7064:7074  msg.sender */\n      caller\n        /* \"contracts/stake_reward_MLM.sol\":7086:7093  1 ether */\n      0x0de0b6b3a7640000\n        /* \"contracts/stake_reward_MLM.sol\":7075:7083  amount30 */\n      dup7\n        /* \"contracts/stake_reward_MLM.sol\":7075:7093  amount30 * 1 ether */\n      tag_191\n      swap2\n      swap1\n      tag_130\n      jump\t// in\n    tag_191:\n        /* \"contracts/stake_reward_MLM.sol\":7037:7094  DUSD(SMCcontract).transfer(msg.sender,amount30 * 1 ether) */\n      mload(0x40)\n      dup4\n      0xffffffff\n      and\n      0xe0\n      shl\n      dup2\n      mstore\n      0x04\n      add\n      tag_192\n      swap3\n      swap2\n      swap1\n      tag_193\n      jump\t// in\n    tag_192:\n      0x20\n      mload(0x40)\n      dup1\n      dup4\n      sub\n      dup2\n      0x00\n      dup8\n      gas\n      call\n      iszero\n      dup1\n      iszero\n      tag_195\n      jumpi\n      returndatasize\n      0x00\n      dup1\n      returndatacopy\n      revert(0x00, returndatasize)\n    tag_195:\n      pop\n      pop\n      pop\n      pop\n      mload(0x40)\n      returndatasize\n      not(0x1f)\n      0x1f\n      dup3\n      add\n      and\n      dup3\n      add\n      dup1\n      0x40\n      mstore\n      pop\n      dup2\n      add\n      swap1\n      tag_196\n      swap2\n      swap1\n      tag_136\n      jump\t// in\n    tag_196:\n      pop\n        /* \"contracts/stake_reward_MLM.sol\":7185:7196  SMCcontract */\n      0x01\n      0x00\n      swap1\n      sload\n      swap1\n      0x0100\n      exp\n      swap1\n      div\n      0xffffffffffffffffffffffffffffffffffffffff\n      and\n        /* \"contracts/stake_reward_MLM.sol\":7180:7206  DUSD(SMCcontract).transfer */\n      0xffffffffffffffffffffffffffffffffffffffff\n      and\n      0xa9059cbb\n        /* \"contracts/stake_reward_MLM.sol\":7207:7212  owner */\n      0x00\n      dup1\n      sload\n      swap1\n      0x0100\n      exp\n      swap1\n      div\n      0xffffffffffffffffffffffffffffffffffffffff\n      and\n        /* \"contracts/stake_reward_MLM.sol\":7224:7231  1 ether */\n      0x0de0b6b3a7640000\n        /* \"contracts/stake_reward_MLM.sol\":7213:7221  amount70 */\n      dup6\n        /* \"contracts/stake_reward_MLM.sol\":7213:7231  amount70 * 1 ether */\n      tag_197\n      swap2\n      swap1\n      tag_130\n      jump\t// in\n    tag_197:\n        /* \"contracts/stake_reward_MLM.sol\":7180:7232  DUSD(SMCcontract).transfer(owner,amount70 * 1 ether) */\n      mload(0x40)\n      dup4\n      0xffffffff\n      and\n      0xe0\n      shl\n      dup2\n      mstore\n      0x04\n      add\n      tag_198\n      swap3\n      swap2\n      swap1\n      tag_193\n      jump\t// in\n    tag_198:\n      0x20\n      mload(0x40)\n      dup1\n      dup4\n      sub\n      dup2\n      0x00\n      dup8\n      gas\n      call\n      iszero\n      dup1\n      iszero\n      tag_200\n      jumpi\n      returndatasize\n      0x00\n      dup1\n      returndatacopy\n      revert(0x00, returndatasize)\n    tag_200:\n      pop\n      pop\n      pop\n      pop\n      mload(0x40)\n      returndatasize\n      not(0x1f)\n      0x1f\n      dup3\n      add\n      and\n      dup3\n      add\n      dup1\n      0x40\n      mstore\n      pop\n      dup2\n      add\n      swap1\n      tag_201\n      swap2\n      swap1\n      tag_136\n      jump\t// in\n    tag_201:\n      pop\n        /* \"contracts/stake_reward_MLM.sol\":6840:7424  if(DUSDinvestor[msg.sender].investment[num-1].withdrawnTime > block.timestamp)... */\n      jump(tag_202)\n    tag_186:\n        /* \"contracts/stake_reward_MLM.sol\":7292:7303  SMCcontract */\n      0x01\n      0x00\n      swap1\n      sload\n      swap1\n      0x0100\n      exp\n      swap1\n      div\n      0xffffffffffffffffffffffffffffffffffffffff\n      and\n        /* \"contracts/stake_reward_MLM.sol\":7287:7313  DUSD(SMCcontract).transfer */\n      0xffffffffffffffffffffffffffffffffffffffff\n      and\n      0xa9059cbb\n        /* \"contracts/stake_reward_MLM.sol\":7314:7324  msg.sender */\n      caller\n        /* \"contracts/stake_reward_MLM.sol\":7333:7340  1 ether */\n      0x0de0b6b3a7640000\n        /* \"contracts/stake_reward_MLM.sol\":7325:7331  amount */\n      dup9\n        /* \"contracts/stake_reward_MLM.sol\":7325:7340  amount* 1 ether */\n      tag_203\n      swap2\n      swap1\n      tag_130\n      jump\t// in\n    tag_203:\n        /* \"contracts/stake_reward_MLM.sol\":7287:7341  DUSD(SMCcontract).transfer(msg.sender,amount* 1 ether) */\n      mload(0x40)\n      dup4\n      0xffffffff\n      and\n      0xe0\n      shl\n      dup2\n      mstore\n      0x04\n      add\n      tag_204\n      swap3\n      swap2\n      swap1\n      tag_193\n      jump\t// in\n    tag_204:\n      0x20\n      mload(0x40)\n      dup1\n      dup4\n      sub\n      dup2\n      0x00\n      dup8\n      gas\n      call\n      iszero\n      dup1\n      iszero\n      tag_206\n      jumpi\n      returndatasize\n      0x00\n      dup1\n      returndatacopy\n      revert(0x00, returndatasize)\n    tag_206:\n      pop\n      pop\n      pop\n      pop\n      mload(0x40)\n      returndatasize\n      not(0x1f)\n      0x1f\n      dup3\n      add\n      and\n      dup3\n      add\n      dup1\n      0x40\n      mstore\n      pop\n      dup2\n      add\n      swap1\n      tag_207\n      swap2\n      swap1\n      tag_136\n      jump\t// in\n    tag_207:\n      pop\n        /* \"contracts/stake_reward_MLM.sol\":6840:7424  if(DUSDinvestor[msg.sender].investment[num-1].withdrawnTime > block.timestamp)... */\n    tag_202:\n        /* \"contracts/stake_reward_MLM.sol\":7442:7448  uint i */\n      0x00\n        /* \"contracts/stake_reward_MLM.sol\":7437:7582  for( uint i=0;i < temp;i++)... */\n    tag_208:\n        /* \"contracts/stake_reward_MLM.sol\":7455:7459  temp */\n      dup5\n        /* \"contracts/stake_reward_MLM.sol\":7451:7452  i */\n      dup2\n        /* \"contracts/stake_reward_MLM.sol\":7451:7459  i < temp */\n      lt\n        /* \"contracts/stake_reward_MLM.sol\":7437:7582  for( uint i=0;i < temp;i++)... */\n      iszero\n      tag_209\n      jumpi\n        /* \"contracts/stake_reward_MLM.sol\":7546:7550  true */\n      0x01\n        /* \"contracts/stake_reward_MLM.sol\":7498:7510  DUSDinvestor */\n      0x09\n        /* \"contracts/stake_reward_MLM.sol\":7498:7522  DUSDinvestor[msg.sender] */\n      0x00\n        /* \"contracts/stake_reward_MLM.sol\":7511:7521  msg.sender */\n      caller\n        /* \"contracts/stake_reward_MLM.sol\":7498:7522  DUSDinvestor[msg.sender] */\n      0xffffffffffffffffffffffffffffffffffffffff\n      and\n      0xffffffffffffffffffffffffffffffffffffffff\n      and\n      dup2\n      mstore\n      0x20\n      add\n      swap1\n      dup2\n      mstore\n      0x20\n      add\n      0x00\n      keccak256\n        /* \"contracts/stake_reward_MLM.sol\":7498:7533  DUSDinvestor[msg.sender].investment */\n      0x00\n      add\n        /* \"contracts/stake_reward_MLM.sol\":7498:7536  DUSDinvestor[msg.sender].investment[i] */\n      0x00\n        /* \"contracts/stake_reward_MLM.sol\":7534:7535  i */\n      dup4\n        /* \"contracts/stake_reward_MLM.sol\":7498:7536  DUSDinvestor[msg.sender].investment[i] */\n      dup2\n      mstore\n      0x20\n      add\n      swap1\n      dup2\n      mstore\n      0x20\n      add\n      0x00\n      keccak256\n        /* \"contracts/stake_reward_MLM.sol\":7498:7544  DUSDinvestor[msg.sender].investment[i].unstake */\n      0x04\n      add\n      0x00\n        /* \"contracts/stake_reward_MLM.sol\":7498:7550  DUSDinvestor[msg.sender].investment[i].unstake =true */\n      0x0100\n      exp\n      dup2\n      sload\n      dup2\n      0xff\n      mul\n      not\n      and\n      swap1\n      dup4\n      iszero\n      iszero\n      mul\n      or\n      swap1\n      sstore\n      pop\n        /* \"contracts/stake_reward_MLM.sol\":7460:7463  i++ */\n      dup1\n      dup1\n      tag_211\n      swap1\n      tag_123\n      jump\t// in\n    tag_211:\n      swap2\n      pop\n      pop\n        /* \"contracts/stake_reward_MLM.sol\":7437:7582  for( uint i=0;i < temp;i++)... */\n      jump(tag_208)\n    tag_209:\n      pop\n        /* \"contracts/stake_reward_MLM.sol\":7698:7699  0 */\n      0x00\n        /* \"contracts/stake_reward_MLM.sol\":7657:7669  DUSDinvestor */\n      0x09\n        /* \"contracts/stake_reward_MLM.sol\":7657:7681  DUSDinvestor[msg.sender] */\n      0x00\n        /* \"contracts/stake_reward_MLM.sol\":7670:7680  msg.sender */\n      caller\n        /* \"contracts/stake_reward_MLM.sol\":7657:7681  DUSDinvestor[msg.sender] */\n      0xffffffffffffffffffffffffffffffffffffffff\n      and\n      0xffffffffffffffffffffffffffffffffffffffff\n      and\n      dup2\n      mstore\n      0x20\n      add\n      swap1\n      dup2\n      mstore\n      0x20\n      add\n      0x00\n      keccak256\n        /* \"contracts/stake_reward_MLM.sol\":7657:7697  DUSDinvestor[msg.sender].totalInvestment */\n      0x06\n      add\n        /* \"contracts/stake_reward_MLM.sol\":7657:7699  DUSDinvestor[msg.sender].totalInvestment=0 */\n      dup2\n      swap1\n      sstore\n      pop\n        /* \"contracts/stake_reward_MLM.sol\":7790:7794  true */\n      0x01\n        /* \"contracts/stake_reward_MLM.sol\":7783:7794  return true */\n      swap6\n      pop\n      pop\n      pop\n      pop\n      pop\n      pop\n        /* \"contracts/stake_reward_MLM.sol\":6362:7806  function unStake() external  returns (bool success){... */\n      swap1\n      jump\t// out\n        /* \"contracts/stake_reward_MLM.sol\":300:321  address  public owner */\n    tag_70:\n      0x00\n      dup1\n      sload\n      swap1\n      0x0100\n      exp\n      swap1\n      div\n      0xffffffffffffffffffffffffffffffffffffffff\n      and\n      dup2\n      jump\t// out\n        /* \"contracts/stake_reward_MLM.sol\":7816:8026  function getTotalInvestmentDUSD() public view returns(uint) {   //this function is to get the total investment of the ivestor... */\n    tag_74:\n        /* \"contracts/stake_reward_MLM.sol\":7870:7874  uint */\n      0x00\n        /* \"contracts/stake_reward_MLM.sol\":7974:7986  DUSDinvestor */\n      0x09\n        /* \"contracts/stake_reward_MLM.sol\":7974:7998  DUSDinvestor[msg.sender] */\n      0x00\n        /* \"contracts/stake_reward_MLM.sol\":7987:7997  msg.sender */\n      caller\n        /* \"contracts/stake_reward_MLM.sol\":7974:7998  DUSDinvestor[msg.sender] */\n      0xffffffffffffffffffffffffffffffffffffffff\n      and\n      0xffffffffffffffffffffffffffffffffffffffff\n      and\n      dup2\n      mstore\n      0x20\n      add\n      swap1\n      dup2\n      mstore\n      0x20\n      add\n      0x00\n      keccak256\n        /* \"contracts/stake_reward_MLM.sol\":7974:8014  DUSDinvestor[msg.sender].totalInvestment */\n      0x06\n      add\n      sload\n        /* \"contracts/stake_reward_MLM.sol\":7967:8014  return DUSDinvestor[msg.sender].totalInvestment */\n      swap1\n      pop\n        /* \"contracts/stake_reward_MLM.sol\":7816:8026  function getTotalInvestmentDUSD() public view returns(uint) {   //this function is to get the total investment of the ivestor... */\n      swap1\n      jump\t// out\n        /* \"contracts/stake_reward_MLM.sol\":10211:10776  function referralLevel_earning() public view returns( uint[] memory arr )... */\n    tag_77:\n        /* \"contracts/stake_reward_MLM.sol\":10265:10282  uint[] memory arr */\n      0x60\n        /* \"contracts/stake_reward_MLM.sol\":10307:10342  uint[] memory referralLevels_reward */\n      0x00\n        /* \"contracts/stake_reward_MLM.sol\":10354:10356  20 */\n      0x14\n        /* \"contracts/stake_reward_MLM.sol\":10343:10357  new uint[](20) */\n      0xffffffffffffffff\n      dup2\n      gt\n      iszero\n      tag_214\n      jumpi\n      tag_215\n      tag_154\n      jump\t// in\n    tag_215:\n    tag_214:\n      mload(0x40)\n      swap1\n      dup1\n      dup3\n      mstore\n      dup1\n      0x20\n      mul\n      0x20\n      add\n      dup3\n      add\n      0x40\n      mstore\n      dup1\n      iszero\n      tag_216\n      jumpi\n      dup2\n      0x20\n      add\n      0x20\n      dup3\n      mul\n      dup1\n      calldatasize\n      dup4\n      calldatacopy\n      dup1\n      dup3\n      add\n      swap2\n      pop\n      pop\n      swap1\n      pop\n    tag_216:\n      pop\n        /* \"contracts/stake_reward_MLM.sol\":10307:10357  uint[] memory referralLevels_reward=new uint[](20) */\n      swap1\n      pop\n        /* \"contracts/stake_reward_MLM.sol\":10375:10381  uint i */\n      0x00\n        /* \"contracts/stake_reward_MLM.sol\":10371:10721  for(uint i=0;i<20;i++)... */\n    tag_217:\n        /* \"contracts/stake_reward_MLM.sol\":10386:10388  20 */\n      0x14\n        /* \"contracts/stake_reward_MLM.sol\":10384:10385  i */\n      dup2\n        /* \"contracts/stake_reward_MLM.sol\":10384:10388  i<20 */\n      lt\n        /* \"contracts/stake_reward_MLM.sol\":10371:10721  for(uint i=0;i<20;i++)... */\n      iszero\n      tag_218\n      jumpi\n        /* \"contracts/stake_reward_MLM.sol\":10476:10477  0 */\n      0x00\n        /* \"contracts/stake_reward_MLM.sol\":10427:10439  DUSDinvestor */\n      0x09\n        /* \"contracts/stake_reward_MLM.sol\":10427:10451  DUSDinvestor[msg.sender] */\n      0x00\n        /* \"contracts/stake_reward_MLM.sol\":10440:10450  msg.sender */\n      caller\n        /* \"contracts/stake_reward_MLM.sol\":10427:10451  DUSDinvestor[msg.sender] */\n      0xffffffffffffffffffffffffffffffffffffffff\n      and\n      0xffffffffffffffffffffffffffffffffffffffff\n      and\n      dup2\n      mstore\n      0x20\n      add\n      swap1\n      dup2\n      mstore\n      0x20\n      add\n      0x00\n      keccak256\n        /* \"contracts/stake_reward_MLM.sol\":10427:10465  DUSDinvestor[msg.sender].referralLevel */\n      0x03\n      add\n        /* \"contracts/stake_reward_MLM.sol\":10427:10468  DUSDinvestor[msg.sender].referralLevel[i] */\n      0x00\n        /* \"contracts/stake_reward_MLM.sol\":10466:10467  i */\n      dup4\n        /* \"contracts/stake_reward_MLM.sol\":10427:10468  DUSDinvestor[msg.sender].referralLevel[i] */\n      dup2\n      mstore\n      0x20\n      add\n      swap1\n      dup2\n      mstore\n      0x20\n      add\n      0x00\n      keccak256\n        /* \"contracts/stake_reward_MLM.sol\":10427:10475  DUSDinvestor[msg.sender].referralLevel[i].reward */\n      0x00\n      add\n      sload\n        /* \"contracts/stake_reward_MLM.sol\":10427:10477  DUSDinvestor[msg.sender].referralLevel[i].reward>0 */\n      gt\n        /* \"contracts/stake_reward_MLM.sol\":10424:10705  if(DUSDinvestor[msg.sender].referralLevel[i].reward>0)... */\n      iszero\n      tag_220\n      jumpi\n        /* \"contracts/stake_reward_MLM.sol\":10544:10556  DUSDinvestor */\n      0x09\n        /* \"contracts/stake_reward_MLM.sol\":10544:10568  DUSDinvestor[msg.sender] */\n      0x00\n        /* \"contracts/stake_reward_MLM.sol\":10557:10567  msg.sender */\n      caller\n        /* \"contracts/stake_reward_MLM.sol\":10544:10568  DUSDinvestor[msg.sender] */\n      0xffffffffffffffffffffffffffffffffffffffff\n      and\n      0xffffffffffffffffffffffffffffffffffffffff\n      and\n      dup2\n      mstore\n      0x20\n      add\n      swap1\n      dup2\n      mstore\n      0x20\n      add\n      0x00\n      keccak256\n        /* \"contracts/stake_reward_MLM.sol\":10544:10582  DUSDinvestor[msg.sender].referralLevel */\n      0x03\n      add\n        /* \"contracts/stake_reward_MLM.sol\":10544:10585  DUSDinvestor[msg.sender].referralLevel[i] */\n      0x00\n        /* \"contracts/stake_reward_MLM.sol\":10583:10584  i */\n      dup3\n        /* \"contracts/stake_reward_MLM.sol\":10544:10585  DUSDinvestor[msg.sender].referralLevel[i] */\n      dup2\n      mstore\n      0x20\n      add\n      swap1\n      dup2\n      mstore\n      0x20\n      add\n      0x00\n      keccak256\n        /* \"contracts/stake_reward_MLM.sol\":10544:10592  DUSDinvestor[msg.sender].referralLevel[i].reward */\n      0x00\n      add\n      sload\n        /* \"contracts/stake_reward_MLM.sol\":10517:10538  referralLevels_reward */\n      dup3\n        /* \"contracts/stake_reward_MLM.sol\":10539:10540  i */\n      dup3\n        /* \"contracts/stake_reward_MLM.sol\":10517:10541  referralLevels_reward[i] */\n      dup2\n      mload\n      dup2\n      lt\n      tag_221\n      jumpi\n      tag_222\n      tag_165\n      jump\t// in\n    tag_222:\n    tag_221:\n      0x20\n      mul\n      0x20\n      add\n      add\n        /* \"contracts/stake_reward_MLM.sol\":10517:10592  referralLevels_reward[i] = DUSDinvestor[msg.sender].referralLevel[i].reward */\n      dup2\n      dup2\n      mstore\n      pop\n      pop\n        /* \"contracts/stake_reward_MLM.sol\":10424:10705  if(DUSDinvestor[msg.sender].referralLevel[i].reward>0)... */\n      jump(tag_223)\n    tag_220:\n        /* \"contracts/stake_reward_MLM.sol\":10684:10685  0 */\n      0x00\n        /* \"contracts/stake_reward_MLM.sol\":10657:10678  referralLevels_reward */\n      dup3\n        /* \"contracts/stake_reward_MLM.sol\":10679:10680  i */\n      dup3\n        /* \"contracts/stake_reward_MLM.sol\":10657:10681  referralLevels_reward[i] */\n      dup2\n      mload\n      dup2\n      lt\n      tag_224\n      jumpi\n      tag_225\n      tag_165\n      jump\t// in\n    tag_225:\n    tag_224:\n      0x20\n      mul\n      0x20\n      add\n      add\n        /* \"contracts/stake_reward_MLM.sol\":10657:10685  referralLevels_reward[i] = 0 */\n      dup2\n      dup2\n      mstore\n      pop\n      pop\n        /* \"contracts/stake_reward_MLM.sol\":10424:10705  if(DUSDinvestor[msg.sender].referralLevel[i].reward>0)... */\n    tag_223:\n        /* \"contracts/stake_reward_MLM.sol\":10389:10392  i++ */\n      dup1\n      dup1\n      tag_226\n      swap1\n      tag_123\n      jump\t// in\n    tag_226:\n      swap2\n      pop\n      pop\n        /* \"contracts/stake_reward_MLM.sol\":10371:10721  for(uint i=0;i<20;i++)... */\n      jump(tag_217)\n    tag_218:\n      pop\n        /* \"contracts/stake_reward_MLM.sol\":10741:10762  referralLevels_reward */\n      dup1\n        /* \"contracts/stake_reward_MLM.sol\":10734:10762  return referralLevels_reward */\n      swap2\n      pop\n      pop\n        /* \"contracts/stake_reward_MLM.sol\":10211:10776  function referralLevel_earning() public view returns( uint[] memory arr )... */\n      swap1\n      jump\t// out\n        /* \"contracts/stake_reward_MLM.sol\":568:602  uint public min_Stake_amount=10000 */\n    tag_81:\n      sload(0x05)\n      dup2\n      jump\t// out\n        /* \"contracts/stake_reward_MLM.sol\":5870:6351  function withdrawReward() external returns (bool success){... */\n    tag_84:\n        /* \"contracts/stake_reward_MLM.sol\":5914:5926  bool success */\n      0x00\n        /* \"contracts/stake_reward_MLM.sol\":5941:5958  uint Total_reward */\n      dup1\n        /* \"contracts/stake_reward_MLM.sol\":5961:5972  getReward() */\n      tag_228\n        /* \"contracts/stake_reward_MLM.sol\":5961:5970  getReward */\n      tag_58\n        /* \"contracts/stake_reward_MLM.sol\":5961:5972  getReward() */\n      jump\t// in\n    tag_228:\n        /* \"contracts/stake_reward_MLM.sol\":5941:5972  uint Total_reward = getReward() */\n      swap1\n      pop\n        /* \"contracts/stake_reward_MLM.sol\":6007:6008  0 */\n      0x00\n        /* \"contracts/stake_reward_MLM.sol\":5994:6006  Total_reward */\n      dup2\n        /* \"contracts/stake_reward_MLM.sol\":5994:6008  Total_reward>0 */\n      gt\n        /* \"contracts/stake_reward_MLM.sol\":5986:6046  require(Total_reward>0,\"you dont have rewards to withdrawn\") */\n      tag_229\n      jumpi\n      mload(0x40)\n      0x08c379a000000000000000000000000000000000000000000000000000000000\n      dup2\n      mstore\n      0x04\n      add\n      tag_230\n      swap1\n      tag_231\n      jump\t// in\n    tag_230:\n      mload(0x40)\n      dup1\n      swap2\n      sub\n      swap1\n      revert\n    tag_229:\n        /* \"contracts/stake_reward_MLM.sol\":6130:6142  BUSDcontract */\n      0x02\n      0x00\n      swap1\n      sload\n      swap1\n      0x0100\n      exp\n      swap1\n      div\n      0xffffffffffffffffffffffffffffffffffffffff\n      and\n        /* \"contracts/stake_reward_MLM.sol\":6125:6152  DUSD(BUSDcontract).transfer */\n      0xffffffffffffffffffffffffffffffffffffffff\n      and\n      0xa9059cbb\n        /* \"contracts/stake_reward_MLM.sol\":6153:6163  msg.sender */\n      caller\n        /* \"contracts/stake_reward_MLM.sol\":6164:6176  Total_reward */\n      dup4\n        /* \"contracts/stake_reward_MLM.sol\":6125:6177  DUSD(BUSDcontract).transfer(msg.sender,Total_reward) */\n      mload(0x40)\n      dup4\n      0xffffffff\n      and\n      0xe0\n      shl\n      dup2\n      mstore\n      0x04\n      add\n      tag_232\n      swap3\n      swap2\n      swap1\n      tag_193\n      jump\t// in\n    tag_232:\n      0x20\n      mload(0x40)\n      dup1\n      dup4\n      sub\n      dup2\n      0x00\n      dup8\n      gas\n      call\n      iszero\n      dup1\n      iszero\n      tag_234\n      jumpi\n      returndatasize\n      0x00\n      dup1\n      returndatacopy\n      revert(0x00, returndatasize)\n    tag_234:\n      pop\n      pop\n      pop\n      pop\n      mload(0x40)\n      returndatasize\n      not(0x1f)\n      0x1f\n      dup3\n      add\n      and\n      dup3\n      add\n      dup1\n      0x40\n      mstore\n      pop\n      dup2\n      add\n      swap1\n      tag_235\n      swap2\n      swap1\n      tag_136\n      jump\t// in\n    tag_235:\n      pop\n        /* \"contracts/stake_reward_MLM.sol\":6301:6313  Total_reward */\n      dup1\n        /* \"contracts/stake_reward_MLM.sol\":6254:6266  DUSDinvestor */\n      0x09\n        /* \"contracts/stake_reward_MLM.sol\":6254:6278  DUSDinvestor[msg.sender] */\n      0x00\n        /* \"contracts/stake_reward_MLM.sol\":6267:6277  msg.sender */\n      caller\n        /* \"contracts/stake_reward_MLM.sol\":6254:6278  DUSDinvestor[msg.sender] */\n      0xffffffffffffffffffffffffffffffffffffffff\n      and\n      0xffffffffffffffffffffffffffffffffffffffff\n      and\n      dup2\n      mstore\n      0x20\n      add\n      swap1\n      dup2\n      mstore\n      0x20\n      add\n      0x00\n      keccak256\n        /* \"contracts/stake_reward_MLM.sol\":6254:6299  DUSDinvestor[msg.sender].totalWithdraw_reward */\n      0x07\n      add\n      0x00\n        /* \"contracts/stake_reward_MLM.sol\":6254:6313  DUSDinvestor[msg.sender].totalWithdraw_reward+=Total_reward */\n      dup3\n      dup3\n      sload\n      tag_236\n      swap2\n      swap1\n      tag_125\n      jump\t// in\n    tag_236:\n      swap3\n      pop\n      pop\n      dup2\n      swap1\n      sstore\n      pop\n        /* \"contracts/stake_reward_MLM.sol\":6335:6339  true */\n      0x01\n        /* \"contracts/stake_reward_MLM.sol\":6328:6339  return true */\n      swap2\n      pop\n      pop\n        /* \"contracts/stake_reward_MLM.sol\":5870:6351  function withdrawReward() external returns (bool success){... */\n      swap1\n      jump\t// out\n        /* \"contracts/stake_reward_MLM.sol\":9794:10018  function set_values(uint min_stake,uint max_stake,uint reward_per_day) public ... */\n    tag_89:\n        /* \"contracts/stake_reward_MLM.sol\":9914:9923  max_stake */\n      dup2\n        /* \"contracts/stake_reward_MLM.sol\":9895:9911  max_Stake_amount */\n      0x06\n        /* \"contracts/stake_reward_MLM.sol\":9895:9923  max_Stake_amount = max_stake */\n      dup2\n      swap1\n      sstore\n      pop\n        /* \"contracts/stake_reward_MLM.sol\":9956:9965  min_stake */\n      dup3\n        /* \"contracts/stake_reward_MLM.sol\":9937:9953  min_Stake_amount */\n      0x05\n        /* \"contracts/stake_reward_MLM.sol\":9937:9965  min_Stake_amount = min_stake */\n      dup2\n      swap1\n      sstore\n      pop\n        /* \"contracts/stake_reward_MLM.sol\":9993:10007  reward_per_day */\n      dup1\n        /* \"contracts/stake_reward_MLM.sol\":9979:9990  rewardToken */\n      0x04\n        /* \"contracts/stake_reward_MLM.sol\":9979:10007  rewardToken = reward_per_day */\n      dup2\n      swap1\n      sstore\n      pop\n        /* \"contracts/stake_reward_MLM.sol\":9794:10018  function set_values(uint min_stake,uint max_stake,uint reward_per_day) public ... */\n      pop\n      pop\n      pop\n      jump\t// out\n        /* \"contracts/stake_reward_MLM.sol\":1455:1497  mapping(address=>Data) public DUSDinvestor */\n    tag_93:\n      mstore(0x20, 0x09)\n      dup1\n      0x00\n      mstore\n      keccak256(0x00, 0x40)\n      0x00\n      swap2\n      pop\n      swap1\n      pop\n      dup1\n      0x02\n      add\n      0x00\n      swap1\n      sload\n      swap1\n      0x0100\n      exp\n      swap1\n      div\n      0xffffffffffffffffffffffffffffffffffffffff\n      and\n      swap1\n      dup1\n      0x04\n      add\n      sload\n      swap1\n      dup1\n      0x05\n      add\n      sload\n      swap1\n      dup1\n      0x06\n      add\n      sload\n      swap1\n      dup1\n      0x07\n      add\n      sload\n      swap1\n      dup1\n      0x08\n      add\n      0x00\n      swap1\n      sload\n      swap1\n      0x0100\n      exp\n      swap1\n      div\n      0xff\n      and\n      swap1\n      pop\n      dup7\n      jump\t// out\n        /* \"contracts/stake_reward_MLM.sol\":760:785  uint public totalbusiness */\n    tag_97:\n      sload(0x08)\n      dup2\n      jump\t// out\n        /* \"contracts/stake_reward_MLM.sol\":10027:10201  function transferOwnership(address _owner)  public... */\n    tag_101:\n        /* \"contracts/stake_reward_MLM.sol\":10120:10125  owner */\n      0x00\n      dup1\n      sload\n      swap1\n      0x0100\n      exp\n      swap1\n      div\n      0xffffffffffffffffffffffffffffffffffffffff\n      and\n        /* \"contracts/stake_reward_MLM.sol\":10108:10125  msg.sender==owner */\n      0xffffffffffffffffffffffffffffffffffffffff\n      and\n        /* \"contracts/stake_reward_MLM.sol\":10108:10118  msg.sender */\n      caller\n        /* \"contracts/stake_reward_MLM.sol\":10108:10125  msg.sender==owner */\n      0xffffffffffffffffffffffffffffffffffffffff\n      and\n      eq\n        /* \"contracts/stake_reward_MLM.sol\":10100:10162  require(msg.sender==owner,\"only Owner can call this function\") */\n      tag_239\n      jumpi\n      mload(0x40)\n      0x08c379a000000000000000000000000000000000000000000000000000000000\n      dup2\n      mstore\n      0x04\n      add\n      tag_240\n      swap1\n      tag_241\n      jump\t// in\n    tag_240:\n      mload(0x40)\n      dup1\n      swap2\n      sub\n      swap1\n      revert\n    tag_239:\n        /* \"contracts/stake_reward_MLM.sol\":10184:10190  _owner */\n      dup1\n        /* \"contracts/stake_reward_MLM.sol\":10176:10181  owner */\n      0x00\n      dup1\n        /* \"contracts/stake_reward_MLM.sol\":10176:10190  owner = _owner */\n      0x0100\n      exp\n      dup2\n      sload\n      dup2\n      0xffffffffffffffffffffffffffffffffffffffff\n      mul\n      not\n      and\n      swap1\n      dup4\n      0xffffffffffffffffffffffffffffffffffffffff\n      and\n      mul\n      or\n      swap1\n      sstore\n      pop\n        /* \"contracts/stake_reward_MLM.sol\":10027:10201  function transferOwnership(address _owner)  public... */\n      pop\n      jump\t// out\n        /* \"contracts/stake_reward_MLM.sol\":10785:11346  function referralLevel_count() public view returns( uint[] memory arr )... */\n    tag_103:\n        /* \"contracts/stake_reward_MLM.sol\":10837:10854  uint[] memory arr */\n      0x60\n        /* \"contracts/stake_reward_MLM.sol\":10879:10914  uint[] memory referralLevels_reward */\n      0x00\n        /* \"contracts/stake_reward_MLM.sol\":10926:10928  20 */\n      0x14\n        /* \"contracts/stake_reward_MLM.sol\":10915:10929  new uint[](20) */\n      0xffffffffffffffff\n      dup2\n      gt\n      iszero\n      tag_243\n      jumpi\n      tag_244\n      tag_154\n      jump\t// in\n    tag_244:\n    tag_243:\n      mload(0x40)\n      swap1\n      dup1\n      dup3\n      mstore\n      dup1\n      0x20\n      mul\n      0x20\n      add\n      dup3\n      add\n      0x40\n      mstore\n      dup1\n      iszero\n      tag_245\n      jumpi\n      dup2\n      0x20\n      add\n      0x20\n      dup3\n      mul\n      dup1\n      calldatasize\n      dup4\n      calldatacopy\n      dup1\n      dup3\n      add\n      swap2\n      pop\n      pop\n      swap1\n      pop\n    tag_245:\n      pop\n        /* \"contracts/stake_reward_MLM.sol\":10879:10929  uint[] memory referralLevels_reward=new uint[](20) */\n      swap1\n      pop\n        /* \"contracts/stake_reward_MLM.sol\":10947:10953  uint i */\n      0x00\n        /* \"contracts/stake_reward_MLM.sol\":10943:11291  for(uint i=0;i<20;i++)... */\n    tag_246:\n        /* \"contracts/stake_reward_MLM.sol\":10958:10960  20 */\n      0x14\n        /* \"contracts/stake_reward_MLM.sol\":10956:10957  i */\n      dup2\n        /* \"contracts/stake_reward_MLM.sol\":10956:10960  i<20 */\n      lt\n        /* \"contracts/stake_reward_MLM.sol\":10943:11291  for(uint i=0;i<20;i++)... */\n      iszero\n      tag_247\n      jumpi\n        /* \"contracts/stake_reward_MLM.sol\":11048:11049  0 */\n      0x00\n        /* \"contracts/stake_reward_MLM.sol\":10999:11011  DUSDinvestor */\n      0x09\n        /* \"contracts/stake_reward_MLM.sol\":10999:11023  DUSDinvestor[msg.sender] */\n      0x00\n        /* \"contracts/stake_reward_MLM.sol\":11012:11022  msg.sender */\n      caller\n        /* \"contracts/stake_reward_MLM.sol\":10999:11023  DUSDinvestor[msg.sender] */\n      0xffffffffffffffffffffffffffffffffffffffff\n      and\n      0xffffffffffffffffffffffffffffffffffffffff\n      and\n      dup2\n      mstore\n      0x20\n      add\n      swap1\n      dup2\n      mstore\n      0x20\n      add\n      0x00\n      keccak256\n        /* \"contracts/stake_reward_MLM.sol\":10999:11037  DUSDinvestor[msg.sender].referralLevel */\n      0x03\n      add\n        /* \"contracts/stake_reward_MLM.sol\":10999:11040  DUSDinvestor[msg.sender].referralLevel[i] */\n      0x00\n        /* \"contracts/stake_reward_MLM.sol\":11038:11039  i */\n      dup4\n        /* \"contracts/stake_reward_MLM.sol\":10999:11040  DUSDinvestor[msg.sender].referralLevel[i] */\n      dup2\n      mstore\n      0x20\n      add\n      swap1\n      dup2\n      mstore\n      0x20\n      add\n      0x00\n      keccak256\n        /* \"contracts/stake_reward_MLM.sol\":10999:11047  DUSDinvestor[msg.sender].referralLevel[i].reward */\n      0x00\n      add\n      sload\n        /* \"contracts/stake_reward_MLM.sol\":10999:11049  DUSDinvestor[msg.sender].referralLevel[i].reward>0 */\n      gt\n        /* \"contracts/stake_reward_MLM.sol\":10996:11275  if(DUSDinvestor[msg.sender].referralLevel[i].reward>0)... */\n      iszero\n      tag_249\n      jumpi\n        /* \"contracts/stake_reward_MLM.sol\":11116:11128  DUSDinvestor */\n      0x09\n        /* \"contracts/stake_reward_MLM.sol\":11116:11140  DUSDinvestor[msg.sender] */\n      0x00\n        /* \"contracts/stake_reward_MLM.sol\":11129:11139  msg.sender */\n      caller\n        /* \"contracts/stake_reward_MLM.sol\":11116:11140  DUSDinvestor[msg.sender] */\n      0xffffffffffffffffffffffffffffffffffffffff\n      and\n      0xffffffffffffffffffffffffffffffffffffffff\n      and\n      dup2\n      mstore\n      0x20\n      add\n      swap1\n      dup2\n      mstore\n      0x20\n      add\n      0x00\n      keccak256\n        /* \"contracts/stake_reward_MLM.sol\":11116:11154  DUSDinvestor[msg.sender].referralLevel */\n      0x03\n      add\n        /* \"contracts/stake_reward_MLM.sol\":11116:11157  DUSDinvestor[msg.sender].referralLevel[i] */\n      0x00\n        /* \"contracts/stake_reward_MLM.sol\":11155:11156  i */\n      dup3\n        /* \"contracts/stake_reward_MLM.sol\":11116:11157  DUSDinvestor[msg.sender].referralLevel[i] */\n      dup2\n      mstore\n      0x20\n      add\n      swap1\n      dup2\n      mstore\n      0x20\n      add\n      0x00\n      keccak256\n        /* \"contracts/stake_reward_MLM.sol\":11116:11163  DUSDinvestor[msg.sender].referralLevel[i].count */\n      0x01\n      add\n      sload\n        /* \"contracts/stake_reward_MLM.sol\":11089:11110  referralLevels_reward */\n      dup3\n        /* \"contracts/stake_reward_MLM.sol\":11111:11112  i */\n      dup3\n        /* \"contracts/stake_reward_MLM.sol\":11089:11113  referralLevels_reward[i] */\n      dup2\n      mload\n      dup2\n      lt\n      tag_250\n      jumpi\n      tag_251\n      tag_165\n      jump\t// in\n    tag_251:\n    tag_250:\n      0x20\n      mul\n      0x20\n      add\n      add\n        /* \"contracts/stake_reward_MLM.sol\":11089:11163  referralLevels_reward[i] = DUSDinvestor[msg.sender].referralLevel[i].count */\n      dup2\n      dup2\n      mstore\n      pop\n      pop\n        /* \"contracts/stake_reward_MLM.sol\":10996:11275  if(DUSDinvestor[msg.sender].referralLevel[i].reward>0)... */\n      jump(tag_252)\n    tag_249:\n        /* \"contracts/stake_reward_MLM.sol\":11254:11255  0 */\n      0x00\n        /* \"contracts/stake_reward_MLM.sol\":11227:11248  referralLevels_reward */\n      dup3\n        /* \"contracts/stake_reward_MLM.sol\":11249:11250  i */\n      dup3\n        /* \"contracts/stake_reward_MLM.sol\":11227:11251  referralLevels_reward[i] */\n      dup2\n      mload\n      dup2\n      lt\n      tag_253\n      jumpi\n      tag_254\n      tag_165\n      jump\t// in\n    tag_254:\n    tag_253:\n      0x20\n      mul\n      0x20\n      add\n      add\n        /* \"contracts/stake_reward_MLM.sol\":11227:11255  referralLevels_reward[i] = 0 */\n      dup2\n      dup2\n      mstore\n      pop\n      pop\n        /* \"contracts/stake_reward_MLM.sol\":10996:11275  if(DUSDinvestor[msg.sender].referralLevel[i].reward>0)... */\n    tag_252:\n        /* \"contracts/stake_reward_MLM.sol\":10961:10964  i++ */\n      dup1\n      dup1\n      tag_255\n      swap1\n      tag_123\n      jump\t// in\n    tag_255:\n      swap2\n      pop\n      pop\n        /* \"contracts/stake_reward_MLM.sol\":10943:11291  for(uint i=0;i<20;i++)... */\n      jump(tag_246)\n    tag_247:\n      pop\n        /* \"contracts/stake_reward_MLM.sol\":11311:11332  referralLevels_reward */\n      dup1\n        /* \"contracts/stake_reward_MLM.sol\":11304:11332  return referralLevels_reward */\n      swap2\n      pop\n      pop\n        /* \"contracts/stake_reward_MLM.sol\":10785:11346  function referralLevel_count() public view returns( uint[] memory arr )... */\n      swap1\n      jump\t// out\n        /* \"contracts/stake_reward_MLM.sol\":516:558  uint public rewardToken=500000000000000000 */\n    tag_106:\n      sload(0x04)\n      dup2\n      jump\t// out\n        /* \"contracts/stake_reward_MLM.sol\":639:675  uint public max_Stake_amount=5000000 */\n    tag_109:\n      sload(0x06)\n      dup2\n      jump\t// out\n        /* \"contracts/stake_reward_MLM.sol\":1648:3230  function sendRewardToDUSDReferrals(address investor,uint _investedAmount)  internal  //this is the freferral function to transfer the reawards to referrals... */\n    tag_143:\n        /* \"contracts/stake_reward_MLM.sol\":1828:1840  address temp */\n      0x00\n        /* \"contracts/stake_reward_MLM.sol\":1843:1851  investor */\n      dup3\n        /* \"contracts/stake_reward_MLM.sol\":1828:1851  address temp = investor */\n      swap1\n      pop\n        /* \"contracts/stake_reward_MLM.sol\":1872:1896  uint[] memory percentage */\n      0x00\n        /* \"contracts/stake_reward_MLM.sol\":1910:1911  5 */\n      0x05\n        /* \"contracts/stake_reward_MLM.sol\":1899:1912  new uint[](5) */\n      0xffffffffffffffff\n      dup2\n      gt\n      iszero\n      tag_257\n      jumpi\n      tag_258\n      tag_154\n      jump\t// in\n    tag_258:\n    tag_257:\n      mload(0x40)\n      swap1\n      dup1\n      dup3\n      mstore\n      dup1\n      0x20\n      mul\n      0x20\n      add\n      dup3\n      add\n      0x40\n      mstore\n      dup1\n      iszero\n      tag_259\n      jumpi\n      dup2\n      0x20\n      add\n      0x20\n      dup3\n      mul\n      dup1\n      calldatasize\n      dup4\n      calldatacopy\n      dup1\n      dup3\n      add\n      swap2\n      pop\n      pop\n      swap1\n      pop\n    tag_259:\n      pop\n        /* \"contracts/stake_reward_MLM.sol\":1872:1912  uint[] memory percentage = new uint[](5) */\n      swap1\n      pop\n        /* \"contracts/stake_reward_MLM.sol\":1942:1949  5 ether */\n      0x4563918244f40000\n        /* \"contracts/stake_reward_MLM.sol\":1926:1936  percentage */\n      dup2\n        /* \"contracts/stake_reward_MLM.sol\":1937:1938  0 */\n      0x00\n        /* \"contracts/stake_reward_MLM.sol\":1926:1939  percentage[0] */\n      dup2\n      mload\n      dup2\n      lt\n      tag_260\n      jumpi\n      tag_261\n      tag_165\n      jump\t// in\n    tag_261:\n    tag_260:\n      0x20\n      mul\n      0x20\n      add\n      add\n        /* \"contracts/stake_reward_MLM.sol\":1926:1949  percentage[0] = 5 ether */\n      dup2\n      dup2\n      mstore\n      pop\n      pop\n        /* \"contracts/stake_reward_MLM.sol\":1980:1987  3 ether */\n      0x29a2241af62c0000\n        /* \"contracts/stake_reward_MLM.sol\":1964:1974  percentage */\n      dup2\n        /* \"contracts/stake_reward_MLM.sol\":1975:1976  1 */\n      0x01\n        /* \"contracts/stake_reward_MLM.sol\":1964:1977  percentage[1] */\n      dup2\n      mload\n      dup2\n      lt\n      tag_262\n      jumpi\n      tag_263\n      tag_165\n      jump\t// in\n    tag_263:\n    tag_262:\n      0x20\n      mul\n      0x20\n      add\n      add\n        /* \"contracts/stake_reward_MLM.sol\":1964:1987  percentage[1] = 3 ether */\n      dup2\n      dup2\n      mstore\n      pop\n      pop\n        /* \"contracts/stake_reward_MLM.sol\":2017:2024  2 ether */\n      0x1bc16d674ec80000\n        /* \"contracts/stake_reward_MLM.sol\":2001:2011  percentage */\n      dup2\n        /* \"contracts/stake_reward_MLM.sol\":2012:2013  2 */\n      0x02\n        /* \"contracts/stake_reward_MLM.sol\":2001:2014  percentage[2] */\n      dup2\n      mload\n      dup2\n      lt\n      tag_264\n      jumpi\n      tag_265\n      tag_165\n      jump\t// in\n    tag_265:\n    tag_264:\n      0x20\n      mul\n      0x20\n      add\n      add\n        /* \"contracts/stake_reward_MLM.sol\":2001:2024  percentage[2] = 2 ether */\n      dup2\n      dup2\n      mstore\n      pop\n      pop\n        /* \"contracts/stake_reward_MLM.sol\":2054:2061  1 ether */\n      0x0de0b6b3a7640000\n        /* \"contracts/stake_reward_MLM.sol\":2038:2048  percentage */\n      dup2\n        /* \"contracts/stake_reward_MLM.sol\":2049:2050  3 */\n      0x03\n        /* \"contracts/stake_reward_MLM.sol\":2038:2051  percentage[3] */\n      dup2\n      mload\n      dup2\n      lt\n      tag_266\n      jumpi\n      tag_267\n      tag_165\n      jump\t// in\n    tag_267:\n    tag_266:\n      0x20\n      mul\n      0x20\n      add\n      add\n        /* \"contracts/stake_reward_MLM.sol\":2038:2061  percentage[3] = 1 ether */\n      dup2\n      dup2\n      mstore\n      pop\n      pop\n        /* \"contracts/stake_reward_MLM.sol\":2091:2100  0.5 ether */\n      0x06f05b59d3b20000\n        /* \"contracts/stake_reward_MLM.sol\":2075:2085  percentage */\n      dup2\n        /* \"contracts/stake_reward_MLM.sol\":2086:2087  4 */\n      0x04\n        /* \"contracts/stake_reward_MLM.sol\":2075:2088  percentage[4] */\n      dup2\n      mload\n      dup2\n      lt\n      tag_268\n      jumpi\n      tag_269\n      tag_165\n      jump\t// in\n    tag_269:\n    tag_268:\n      0x20\n      mul\n      0x20\n      add\n      add\n        /* \"contracts/stake_reward_MLM.sol\":2075:2100  percentage[4] = 0.5 ether */\n      dup2\n      dup2\n      mstore\n      pop\n      pop\n        /* \"contracts/stake_reward_MLM.sol\":2116:2122  uint j */\n      0x00\n        /* \"contracts/stake_reward_MLM.sol\":2153:2160  1 ether */\n      0x0de0b6b3a7640000\n        /* \"contracts/stake_reward_MLM.sol\":2136:2160  _investedAmount*=1 ether */\n      dup5\n      tag_270\n      swap2\n      swap1\n      tag_130\n      jump\t// in\n    tag_270:\n      swap4\n      pop\n        /* \"contracts/stake_reward_MLM.sol\":2181:2187  uint i */\n      0x00\n        /* \"contracts/stake_reward_MLM.sol\":2177:3219  for(uint i=0;i<10;i++)... */\n    tag_271:\n        /* \"contracts/stake_reward_MLM.sol\":2192:2194  10 */\n      0x0a\n        /* \"contracts/stake_reward_MLM.sol\":2190:2191  i */\n      dup2\n        /* \"contracts/stake_reward_MLM.sol\":2190:2194  i<10 */\n      lt\n        /* \"contracts/stake_reward_MLM.sol\":2177:3219  for(uint i=0;i<10;i++)... */\n      iszero\n      tag_272\n      jumpi\n        /* \"contracts/stake_reward_MLM.sol\":2237:2238  0 */\n      0x00\n        /* \"contracts/stake_reward_MLM.sol\":2234:2235  i */\n      dup2\n        /* \"contracts/stake_reward_MLM.sol\":2234:2238  i==0 */\n      sub\n        /* \"contracts/stake_reward_MLM.sol\":2231:2663  if(i==0)... */\n      tag_274\n      jumpi\n        /* \"contracts/stake_reward_MLM.sol\":2280:2281  0 */\n      0x00\n        /* \"contracts/stake_reward_MLM.sol\":2278:2281  j=0 */\n      swap2\n      pop\n        /* \"contracts/stake_reward_MLM.sol\":2231:2663  if(i==0)... */\n      jump(tag_275)\n    tag_274:\n        /* \"contracts/stake_reward_MLM.sol\":2328:2329  1 */\n      0x01\n        /* \"contracts/stake_reward_MLM.sol\":2325:2326  i */\n      dup2\n        /* \"contracts/stake_reward_MLM.sol\":2325:2329  i==1 */\n      sub\n        /* \"contracts/stake_reward_MLM.sol\":2322:2663  if(i==1)... */\n      tag_276\n      jumpi\n        /* \"contracts/stake_reward_MLM.sol\":2371:2372  1 */\n      0x01\n        /* \"contracts/stake_reward_MLM.sol\":2369:2372  j=1 */\n      swap2\n      pop\n        /* \"contracts/stake_reward_MLM.sol\":2322:2663  if(i==1)... */\n      jump(tag_277)\n    tag_276:\n        /* \"contracts/stake_reward_MLM.sol\":2419:2420  2 */\n      0x02\n        /* \"contracts/stake_reward_MLM.sol\":2416:2417  i */\n      dup2\n        /* \"contracts/stake_reward_MLM.sol\":2416:2420  i==2 */\n      sub\n        /* \"contracts/stake_reward_MLM.sol\":2413:2663  if(i==2)... */\n      tag_278\n      jumpi\n        /* \"contracts/stake_reward_MLM.sol\":2462:2463  2 */\n      0x02\n        /* \"contracts/stake_reward_MLM.sol\":2460:2463  j=2 */\n      swap2\n      pop\n        /* \"contracts/stake_reward_MLM.sol\":2413:2663  if(i==2)... */\n      jump(tag_279)\n    tag_278:\n        /* \"contracts/stake_reward_MLM.sol\":2510:2511  2 */\n      0x02\n        /* \"contracts/stake_reward_MLM.sol\":2508:2509  i */\n      dup2\n        /* \"contracts/stake_reward_MLM.sol\":2508:2511  i>2 */\n      gt\n        /* \"contracts/stake_reward_MLM.sol\":2505:2663  if(i>2)... */\n      iszero\n      tag_280\n      jumpi\n        /* \"contracts/stake_reward_MLM.sol\":2553:2554  3 */\n      0x03\n        /* \"contracts/stake_reward_MLM.sol\":2551:2554  j=3 */\n      swap2\n      pop\n        /* \"contracts/stake_reward_MLM.sol\":2505:2663  if(i>2)... */\n      jump(tag_281)\n    tag_280:\n        /* \"contracts/stake_reward_MLM.sol\":2600:2601  7 */\n      0x07\n        /* \"contracts/stake_reward_MLM.sol\":2598:2599  i */\n      dup2\n        /* \"contracts/stake_reward_MLM.sol\":2598:2601  i>7 */\n      gt\n        /* \"contracts/stake_reward_MLM.sol\":2595:2663  if(i>7)... */\n      iszero\n      tag_282\n      jumpi\n        /* \"contracts/stake_reward_MLM.sol\":2643:2644  4 */\n      0x04\n        /* \"contracts/stake_reward_MLM.sol\":2641:2644  j=4 */\n      swap2\n      pop\n        /* \"contracts/stake_reward_MLM.sol\":2595:2663  if(i>7)... */\n    tag_282:\n        /* \"contracts/stake_reward_MLM.sol\":2505:2663  if(i>2)... */\n    tag_281:\n        /* \"contracts/stake_reward_MLM.sol\":2413:2663  if(i==2)... */\n    tag_279:\n        /* \"contracts/stake_reward_MLM.sol\":2322:2663  if(i==1)... */\n    tag_277:\n        /* \"contracts/stake_reward_MLM.sol\":2231:2663  if(i==0)... */\n    tag_275:\n        /* \"contracts/stake_reward_MLM.sol\":2741:2742  0 */\n      0x00\n        /* \"contracts/stake_reward_MLM.sol\":2700:2743  DUSDinvestor[temp].referralFrom!=address(0) */\n      0xffffffffffffffffffffffffffffffffffffffff\n      and\n        /* \"contracts/stake_reward_MLM.sol\":2700:2712  DUSDinvestor */\n      0x09\n        /* \"contracts/stake_reward_MLM.sol\":2700:2718  DUSDinvestor[temp] */\n      0x00\n        /* \"contracts/stake_reward_MLM.sol\":2713:2717  temp */\n      dup7\n        /* \"contracts/stake_reward_MLM.sol\":2700:2718  DUSDinvestor[temp] */\n      0xffffffffffffffffffffffffffffffffffffffff\n      and\n      0xffffffffffffffffffffffffffffffffffffffff\n      and\n      dup2\n      mstore\n      0x20\n      add\n      swap1\n      dup2\n      mstore\n      0x20\n      add\n      0x00\n      keccak256\n        /* \"contracts/stake_reward_MLM.sol\":2700:2731  DUSDinvestor[temp].referralFrom */\n      0x02\n      add\n      0x00\n      swap1\n      sload\n      swap1\n      0x0100\n      exp\n      swap1\n      div\n      0xffffffffffffffffffffffffffffffffffffffff\n      and\n        /* \"contracts/stake_reward_MLM.sol\":2700:2743  DUSDinvestor[temp].referralFrom!=address(0) */\n      0xffffffffffffffffffffffffffffffffffffffff\n      and\n      eq\n        /* \"contracts/stake_reward_MLM.sol\":2697:3204  if(DUSDinvestor[temp].referralFrom!=address(0))... */\n      tag_283\n      jumpi\n        /* \"contracts/stake_reward_MLM.sol\":2789:2801  DUSDinvestor */\n      0x09\n        /* \"contracts/stake_reward_MLM.sol\":2789:2807  DUSDinvestor[temp] */\n      0x00\n        /* \"contracts/stake_reward_MLM.sol\":2802:2806  temp */\n      dup6\n        /* \"contracts/stake_reward_MLM.sol\":2789:2807  DUSDinvestor[temp] */\n      0xffffffffffffffffffffffffffffffffffffffff\n      and\n      0xffffffffffffffffffffffffffffffffffffffff\n      and\n      dup2\n      mstore\n      0x20\n      add\n      swap1\n      dup2\n      mstore\n      0x20\n      add\n      0x00\n      keccak256\n        /* \"contracts/stake_reward_MLM.sol\":2789:2820  DUSDinvestor[temp].referralFrom */\n      0x02\n      add\n      0x00\n      swap1\n      sload\n      swap1\n      0x0100\n      exp\n      swap1\n      div\n      0xffffffffffffffffffffffffffffffffffffffff\n      and\n        /* \"contracts/stake_reward_MLM.sol\":2784:2820  temp=DUSDinvestor[temp].referralFrom */\n      swap4\n      pop\n        /* \"contracts/stake_reward_MLM.sol\":2842:2854  uint reward1 */\n      0x00\n        /* \"contracts/stake_reward_MLM.sol\":2891:2912  100000000000000000000 */\n      0x056bc75e2d63100000\n        /* \"contracts/stake_reward_MLM.sol\":2875:2890  _investedAmount */\n      dup7\n        /* \"contracts/stake_reward_MLM.sol\":2875:2912  _investedAmount/100000000000000000000 */\n      tag_284\n      swap2\n      swap1\n      tag_175\n      jump\t// in\n    tag_284:\n        /* \"contracts/stake_reward_MLM.sol\":2858:2868  percentage */\n      dup5\n        /* \"contracts/stake_reward_MLM.sol\":2869:2870  j */\n      dup5\n        /* \"contracts/stake_reward_MLM.sol\":2858:2871  percentage[j] */\n      dup2\n      mload\n      dup2\n      lt\n      tag_285\n      jumpi\n      tag_286\n      tag_165\n      jump\t// in\n    tag_286:\n    tag_285:\n      0x20\n      mul\n      0x20\n      add\n      add\n      mload\n        /* \"contracts/stake_reward_MLM.sol\":2858:2913  percentage[j] * (_investedAmount/100000000000000000000) */\n      tag_287\n      swap2\n      swap1\n      tag_130\n      jump\t// in\n    tag_287:\n        /* \"contracts/stake_reward_MLM.sol\":2842:2914  uint reward1 = (percentage[j] * (_investedAmount/100000000000000000000)) */\n      swap1\n      pop\n        /* \"contracts/stake_reward_MLM.sol\":2942:2953  SMCcontract */\n      0x01\n      0x00\n      swap1\n      sload\n      swap1\n      0x0100\n      exp\n      swap1\n      div\n      0xffffffffffffffffffffffffffffffffffffffff\n      and\n        /* \"contracts/stake_reward_MLM.sol\":2937:2963  DUSD(SMCcontract).transfer */\n      0xffffffffffffffffffffffffffffffffffffffff\n      and\n      0xa9059cbb\n        /* \"contracts/stake_reward_MLM.sol\":2964:2968  temp */\n      dup7\n        /* \"contracts/stake_reward_MLM.sol\":2969:2976  reward1 */\n      dup4\n        /* \"contracts/stake_reward_MLM.sol\":2937:2977  DUSD(SMCcontract).transfer(temp,reward1) */\n      mload(0x40)\n      dup4\n      0xffffffff\n      and\n      0xe0\n      shl\n      dup2\n      mstore\n      0x04\n      add\n      tag_288\n      swap3\n      swap2\n      swap1\n      tag_193\n      jump\t// in\n    tag_288:\n      0x20\n      mload(0x40)\n      dup1\n      dup4\n      sub\n      dup2\n      0x00\n      dup8\n      gas\n      call\n      iszero\n      dup1\n      iszero\n      tag_290\n      jumpi\n      returndatasize\n      0x00\n      dup1\n      returndatacopy\n      revert(0x00, returndatasize)\n    tag_290:\n      pop\n      pop\n      pop\n      pop\n      mload(0x40)\n      returndatasize\n      not(0x1f)\n      0x1f\n      dup3\n      add\n      and\n      dup3\n      add\n      dup1\n      0x40\n      mstore\n      pop\n      dup2\n      add\n      swap1\n      tag_291\n      swap2\n      swap1\n      tag_136\n      jump\t// in\n    tag_291:\n      pop\n        /* \"contracts/stake_reward_MLM.sol\":3043:3050  reward1 */\n      dup1\n        /* \"contracts/stake_reward_MLM.sol\":2999:3011  DUSDinvestor */\n      0x09\n        /* \"contracts/stake_reward_MLM.sol\":2999:3017  DUSDinvestor[temp] */\n      0x00\n        /* \"contracts/stake_reward_MLM.sol\":3012:3016  temp */\n      dup8\n        /* \"contracts/stake_reward_MLM.sol\":2999:3017  DUSDinvestor[temp] */\n      0xffffffffffffffffffffffffffffffffffffffff\n      and\n      0xffffffffffffffffffffffffffffffffffffffff\n      and\n      dup2\n      mstore\n      0x20\n      add\n      swap1\n      dup2\n      mstore\n      0x20\n      add\n      0x00\n      keccak256\n        /* \"contracts/stake_reward_MLM.sol\":2999:3031  DUSDinvestor[temp].referralLevel */\n      0x03\n      add\n        /* \"contracts/stake_reward_MLM.sol\":2999:3034  DUSDinvestor[temp].referralLevel[i] */\n      0x00\n        /* \"contracts/stake_reward_MLM.sol\":3032:3033  i */\n      dup5\n        /* \"contracts/stake_reward_MLM.sol\":2999:3034  DUSDinvestor[temp].referralLevel[i] */\n      dup2\n      mstore\n      0x20\n      add\n      swap1\n      dup2\n      mstore\n      0x20\n      add\n      0x00\n      keccak256\n        /* \"contracts/stake_reward_MLM.sol\":2999:3041  DUSDinvestor[temp].referralLevel[i].reward */\n      0x00\n      add\n      0x00\n        /* \"contracts/stake_reward_MLM.sol\":2999:3050  DUSDinvestor[temp].referralLevel[i].reward+=reward1 */\n      dup3\n      dup3\n      sload\n      tag_292\n      swap2\n      swap1\n      tag_125\n      jump\t// in\n    tag_292:\n      swap3\n      pop\n      pop\n      dup2\n      swap1\n      sstore\n      pop\n        /* \"contracts/stake_reward_MLM.sol\":3072:3084  DUSDinvestor */\n      0x09\n        /* \"contracts/stake_reward_MLM.sol\":3072:3090  DUSDinvestor[temp] */\n      0x00\n        /* \"contracts/stake_reward_MLM.sol\":3085:3089  temp */\n      dup7\n        /* \"contracts/stake_reward_MLM.sol\":3072:3090  DUSDinvestor[temp] */\n      0xffffffffffffffffffffffffffffffffffffffff\n      and\n      0xffffffffffffffffffffffffffffffffffffffff\n      and\n      dup2\n      mstore\n      0x20\n      add\n      swap1\n      dup2\n      mstore\n      0x20\n      add\n      0x00\n      keccak256\n        /* \"contracts/stake_reward_MLM.sol\":3072:3104  DUSDinvestor[temp].referralLevel */\n      0x03\n      add\n        /* \"contracts/stake_reward_MLM.sol\":3072:3107  DUSDinvestor[temp].referralLevel[i] */\n      0x00\n        /* \"contracts/stake_reward_MLM.sol\":3105:3106  i */\n      dup4\n        /* \"contracts/stake_reward_MLM.sol\":3072:3107  DUSDinvestor[temp].referralLevel[i] */\n      dup2\n      mstore\n      0x20\n      add\n      swap1\n      dup2\n      mstore\n      0x20\n      add\n      0x00\n      keccak256\n        /* \"contracts/stake_reward_MLM.sol\":3072:3113  DUSDinvestor[temp].referralLevel[i].count */\n      0x01\n      add\n      0x00\n        /* \"contracts/stake_reward_MLM.sol\":3072:3115  DUSDinvestor[temp].referralLevel[i].count++ */\n      dup2\n      sload\n      dup1\n      swap3\n      swap2\n      swap1\n      tag_293\n      swap1\n      tag_123\n      jump\t// in\n    tag_293:\n      swap2\n      swap1\n      pop\n      sstore\n      pop\n        /* \"contracts/stake_reward_MLM.sol\":2761:3136  {... */\n      pop\n        /* \"contracts/stake_reward_MLM.sol\":2697:3204  if(DUSDinvestor[temp].referralFrom!=address(0))... */\n      jump(tag_294)\n    tag_283:\n        /* \"contracts/stake_reward_MLM.sol\":3180:3185  break */\n      jump(tag_272)\n        /* \"contracts/stake_reward_MLM.sol\":2697:3204  if(DUSDinvestor[temp].referralFrom!=address(0))... */\n    tag_294:\n        /* \"contracts/stake_reward_MLM.sol\":2195:2198  i++ */\n      dup1\n      dup1\n      tag_295\n      swap1\n      tag_123\n      jump\t// in\n    tag_295:\n      swap2\n      pop\n      pop\n        /* \"contracts/stake_reward_MLM.sol\":2177:3219  for(uint i=0;i<10;i++)... */\n      jump(tag_271)\n    tag_272:\n      pop\n        /* \"contracts/stake_reward_MLM.sol\":1812:3230  { ... */\n      pop\n      pop\n      pop\n        /* \"contracts/stake_reward_MLM.sol\":1648:3230  function sendRewardToDUSDReferrals(address investor,uint _investedAmount)  internal  //this is the freferral function to transfer the reawards to referrals... */\n      pop\n      pop\n      jump\t// out\n    tag_158:\n      mload(0x40)\n      dup1\n      0xa0\n      add\n      0x40\n      mstore\n      dup1\n      0x00\n      dup2\n      mstore\n      0x20\n      add\n      0x00\n      dup2\n      mstore\n      0x20\n      add\n      0x00\n      dup2\n      mstore\n      0x20\n      add\n      0x00\n      dup2\n      mstore\n      0x20\n      add\n      iszero(iszero(0x00))\n      dup2\n      mstore\n      pop\n      swap1\n      jump\t// out\n        /* \"#utility.yul\":7:121   */\n    tag_296:\n        /* \"#utility.yul\":74:80   */\n      0x00\n        /* \"#utility.yul\":108:113   */\n      dup2\n        /* \"#utility.yul\":102:114   */\n      mload\n        /* \"#utility.yul\":92:114   */\n      swap1\n      pop\n        /* \"#utility.yul\":7:121   */\n      swap2\n      swap1\n      pop\n      jump\t// out\n        /* \"#utility.yul\":127:311   */\n    tag_297:\n        /* \"#utility.yul\":226:237   */\n      0x00\n        /* \"#utility.yul\":260:266   */\n      dup3\n        /* \"#utility.yul\":255:258   */\n      dup3\n        /* \"#utility.yul\":248:267   */\n      mstore\n        /* \"#utility.yul\":300:304   */\n      0x20\n        /* \"#utility.yul\":295:298   */\n      dup3\n        /* \"#utility.yul\":291:305   */\n      add\n        /* \"#utility.yul\":276:305   */\n      swap1\n      pop\n        /* \"#utility.yul\":127:311   */\n      swap3\n      swap2\n      pop\n      pop\n      jump\t// out\n        /* \"#utility.yul\":317:449   */\n    tag_298:\n        /* \"#utility.yul\":384:388   */\n      0x00\n        /* \"#utility.yul\":407:410   */\n      dup2\n        /* \"#utility.yul\":399:410   */\n      swap1\n      pop\n        /* \"#utility.yul\":437:441   */\n      0x20\n        /* \"#utility.yul\":432:435   */\n      dup3\n        /* \"#utility.yul\":428:442   */\n      add\n        /* \"#utility.yul\":420:442   */\n      swap1\n      pop\n        /* \"#utility.yul\":317:449   */\n      swap2\n      swap1\n      pop\n      jump\t// out\n        /* \"#utility.yul\":455:581   */\n    tag_299:\n        /* \"#utility.yul\":492:499   */\n      0x00\n        /* \"#utility.yul\":532:574   */\n      0xffffffffffffffffffffffffffffffffffffffff\n        /* \"#utility.yul\":525:530   */\n      dup3\n        /* \"#utility.yul\":521:575   */\n      and\n        /* \"#utility.yul\":510:575   */\n      swap1\n      pop\n        /* \"#utility.yul\":455:581   */\n      swap2\n      swap1\n      pop\n      jump\t// out\n        /* \"#utility.yul\":587:683   */\n    tag_300:\n        /* \"#utility.yul\":624:631   */\n      0x00\n        /* \"#utility.yul\":653:677   */\n      tag_351\n        /* \"#utility.yul\":671:676   */\n      dup3\n        /* \"#utility.yul\":653:677   */\n      tag_299\n      jump\t// in\n    tag_351:\n        /* \"#utility.yul\":642:677   */\n      swap1\n      pop\n        /* \"#utility.yul\":587:683   */\n      swap2\n      swap1\n      pop\n      jump\t// out\n        /* \"#utility.yul\":689:797   */\n    tag_301:\n        /* \"#utility.yul\":766:790   */\n      tag_353\n        /* \"#utility.yul\":784:789   */\n      dup2\n        /* \"#utility.yul\":766:790   */\n      tag_300\n      jump\t// in\n    tag_353:\n        /* \"#utility.yul\":761:764   */\n      dup3\n        /* \"#utility.yul\":754:791   */\n      mstore\n        /* \"#utility.yul\":689:797   */\n      pop\n      pop\n      jump\t// out\n        /* \"#utility.yul\":803:982   */\n    tag_302:\n        /* \"#utility.yul\":872:882   */\n      0x00\n        /* \"#utility.yul\":893:939   */\n      tag_355\n        /* \"#utility.yul\":935:938   */\n      dup4\n        /* \"#utility.yul\":927:933   */\n      dup4\n        /* \"#utility.yul\":893:939   */\n      tag_301\n      jump\t// in\n    tag_355:\n        /* \"#utility.yul\":971:975   */\n      0x20\n        /* \"#utility.yul\":966:969   */\n      dup4\n        /* \"#utility.yul\":962:976   */\n      add\n        /* \"#utility.yul\":948:976   */\n      swap1\n      pop\n        /* \"#utility.yul\":803:982   */\n      swap3\n      swap2\n      pop\n      pop\n      jump\t// out\n        /* \"#utility.yul\":988:1101   */\n    tag_303:\n        /* \"#utility.yul\":1058:1062   */\n      0x00\n        /* \"#utility.yul\":1090:1094   */\n      0x20\n        /* \"#utility.yul\":1085:1088   */\n      dup3\n        /* \"#utility.yul\":1081:1095   */\n      add\n        /* \"#utility.yul\":1073:1095   */\n      swap1\n      pop\n        /* \"#utility.yul\":988:1101   */\n      swap2\n      swap1\n      pop\n      jump\t// out\n        /* \"#utility.yul\":1137:1869   */\n    tag_304:\n        /* \"#utility.yul\":1256:1259   */\n      0x00\n        /* \"#utility.yul\":1285:1339   */\n      tag_358\n        /* \"#utility.yul\":1333:1338   */\n      dup3\n        /* \"#utility.yul\":1285:1339   */\n      tag_296\n      jump\t// in\n    tag_358:\n        /* \"#utility.yul\":1355:1441   */\n      tag_359\n        /* \"#utility.yul\":1434:1440   */\n      dup2\n        /* \"#utility.yul\":1429:1432   */\n      dup6\n        /* \"#utility.yul\":1355:1441   */\n      tag_297\n      jump\t// in\n    tag_359:\n        /* \"#utility.yul\":1348:1441   */\n      swap4\n      pop\n        /* \"#utility.yul\":1465:1521   */\n      tag_360\n        /* \"#utility.yul\":1515:1520   */\n      dup4\n        /* \"#utility.yul\":1465:1521   */\n      tag_298\n      jump\t// in\n    tag_360:\n        /* \"#utility.yul\":1544:1551   */\n      dup1\n        /* \"#utility.yul\":1575:1576   */\n      0x00\n        /* \"#utility.yul\":1560:1844   */\n    tag_361:\n        /* \"#utility.yul\":1585:1591   */\n      dup4\n        /* \"#utility.yul\":1582:1583   */\n      dup2\n        /* \"#utility.yul\":1579:1592   */\n      lt\n        /* \"#utility.yul\":1560:1844   */\n      iszero\n      tag_363\n      jumpi\n        /* \"#utility.yul\":1661:1667   */\n      dup2\n        /* \"#utility.yul\":1655:1668   */\n      mload\n        /* \"#utility.yul\":1688:1751   */\n      tag_364\n        /* \"#utility.yul\":1747:1750   */\n      dup9\n        /* \"#utility.yul\":1732:1745   */\n      dup3\n        /* \"#utility.yul\":1688:1751   */\n      tag_302\n      jump\t// in\n    tag_364:\n        /* \"#utility.yul\":1681:1751   */\n      swap8\n      pop\n        /* \"#utility.yul\":1774:1834   */\n      tag_365\n        /* \"#utility.yul\":1827:1833   */\n      dup4\n        /* \"#utility.yul\":1774:1834   */\n      tag_303\n      jump\t// in\n    tag_365:\n        /* \"#utility.yul\":1764:1834   */\n      swap3\n      pop\n        /* \"#utility.yul\":1620:1844   */\n      pop\n        /* \"#utility.yul\":1607:1608   */\n      0x01\n        /* \"#utility.yul\":1604:1605   */\n      dup2\n        /* \"#utility.yul\":1600:1609   */\n      add\n        /* \"#utility.yul\":1595:1609   */\n      swap1\n      pop\n        /* \"#utility.yul\":1560:1844   */\n      jump(tag_361)\n    tag_363:\n        /* \"#utility.yul\":1564:1578   */\n      pop\n        /* \"#utility.yul\":1860:1863   */\n      dup6\n        /* \"#utility.yul\":1853:1863   */\n      swap4\n      pop\n        /* \"#utility.yul\":1261:1869   */\n      pop\n      pop\n      pop\n        /* \"#utility.yul\":1137:1869   */\n      swap3\n      swap2\n      pop\n      pop\n      jump\t// out\n        /* \"#utility.yul\":1875:2248   */\n    tag_32:\n        /* \"#utility.yul\":2018:2022   */\n      0x00\n        /* \"#utility.yul\":2056:2058   */\n      0x20\n        /* \"#utility.yul\":2045:2054   */\n      dup3\n        /* \"#utility.yul\":2041:2059   */\n      add\n        /* \"#utility.yul\":2033:2059   */\n      swap1\n      pop\n        /* \"#utility.yul\":2105:2114   */\n      dup2\n        /* \"#utility.yul\":2099:2103   */\n      dup2\n        /* \"#utility.yul\":2095:2115   */\n      sub\n        /* \"#utility.yul\":2091:2092   */\n      0x00\n        /* \"#utility.yul\":2080:2089   */\n      dup4\n        /* \"#utility.yul\":2076:2093   */\n      add\n        /* \"#utility.yul\":2069:2116   */\n      mstore\n        /* \"#utility.yul\":2133:2241   */\n      tag_367\n        /* \"#utility.yul\":2236:2240   */\n      dup2\n        /* \"#utility.yul\":2227:2233   */\n      dup5\n        /* \"#utility.yul\":2133:2241   */\n      tag_304\n      jump\t// in\n    tag_367:\n        /* \"#utility.yul\":2125:2241   */\n      swap1\n      pop\n        /* \"#utility.yul\":1875:2248   */\n      swap3\n      swap2\n      pop\n      pop\n      jump\t// out\n        /* \"#utility.yul\":2254:2331   */\n    tag_305:\n        /* \"#utility.yul\":2291:2298   */\n      0x00\n        /* \"#utility.yul\":2320:2325   */\n      dup2\n        /* \"#utility.yul\":2309:2325   */\n      swap1\n      pop\n        /* \"#utility.yul\":2254:2331   */\n      swap2\n      swap1\n      pop\n      jump\t// out\n        /* \"#utility.yul\":2337:2455   */\n    tag_306:\n        /* \"#utility.yul\":2424:2448   */\n      tag_370\n        /* \"#utility.yul\":2442:2447   */\n      dup2\n        /* \"#utility.yul\":2424:2448   */\n      tag_305\n      jump\t// in\n    tag_370:\n        /* \"#utility.yul\":2419:2422   */\n      dup3\n        /* \"#utility.yul\":2412:2449   */\n      mstore\n        /* \"#utility.yul\":2337:2455   */\n      pop\n      pop\n      jump\t// out\n        /* \"#utility.yul\":2461:2683   */\n    tag_36:\n        /* \"#utility.yul\":2554:2558   */\n      0x00\n        /* \"#utility.yul\":2592:2594   */\n      0x20\n        /* \"#utility.yul\":2581:2590   */\n      dup3\n        /* \"#utility.yul\":2577:2595   */\n      add\n        /* \"#utility.yul\":2569:2595   */\n      swap1\n      pop\n        /* \"#utility.yul\":2605:2676   */\n      tag_372\n        /* \"#utility.yul\":2673:2674   */\n      0x00\n        /* \"#utility.yul\":2662:2671   */\n      dup4\n        /* \"#utility.yul\":2658:2675   */\n      add\n        /* \"#utility.yul\":2649:2655   */\n      dup5\n        /* \"#utility.yul\":2605:2676   */\n      tag_306\n      jump\t// in\n    tag_372:\n        /* \"#utility.yul\":2461:2683   */\n      swap3\n      swap2\n      pop\n      pop\n      jump\t// out\n        /* \"#utility.yul\":2770:2887   */\n    tag_308:\n        /* \"#utility.yul\":2879:2880   */\n      0x00\n        /* \"#utility.yul\":2876:2877   */\n      dup1\n        /* \"#utility.yul\":2869:2881   */\n      revert\n        /* \"#utility.yul\":3016:3138   */\n    tag_310:\n        /* \"#utility.yul\":3089:3113   */\n      tag_377\n        /* \"#utility.yul\":3107:3112   */\n      dup2\n        /* \"#utility.yul\":3089:3113   */\n      tag_305\n      jump\t// in\n    tag_377:\n        /* \"#utility.yul\":3082:3087   */\n      dup2\n        /* \"#utility.yul\":3079:3114   */\n      eq\n        /* \"#utility.yul\":3069:3132   */\n      tag_378\n      jumpi\n        /* \"#utility.yul\":3128:3129   */\n      0x00\n        /* \"#utility.yul\":3125:3126   */\n      dup1\n        /* \"#utility.yul\":3118:3130   */\n      revert\n        /* \"#utility.yul\":3069:3132   */\n    tag_378:\n        /* \"#utility.yul\":3016:3138   */\n      pop\n      jump\t// out\n        /* \"#utility.yul\":3144:3283   */\n    tag_311:\n        /* \"#utility.yul\":3190:3195   */\n      0x00\n        /* \"#utility.yul\":3228:3234   */\n      dup2\n        /* \"#utility.yul\":3215:3235   */\n      calldataload\n        /* \"#utility.yul\":3206:3235   */\n      swap1\n      pop\n        /* \"#utility.yul\":3244:3277   */\n      tag_380\n        /* \"#utility.yul\":3271:3276   */\n      dup2\n        /* \"#utility.yul\":3244:3277   */\n      tag_310\n      jump\t// in\n    tag_380:\n        /* \"#utility.yul\":3144:3283   */\n      swap3\n      swap2\n      pop\n      pop\n      jump\t// out\n        /* \"#utility.yul\":3289:3618   */\n    tag_42:\n        /* \"#utility.yul\":3348:3354   */\n      0x00\n        /* \"#utility.yul\":3397:3399   */\n      0x20\n        /* \"#utility.yul\":3385:3394   */\n      dup3\n        /* \"#utility.yul\":3376:3383   */\n      dup5\n        /* \"#utility.yul\":3372:3395   */\n      sub\n        /* \"#utility.yul\":3368:3400   */\n      slt\n        /* \"#utility.yul\":3365:3484   */\n      iszero\n      tag_382\n      jumpi\n        /* \"#utility.yul\":3403:3482   */\n      tag_383\n      tag_308\n      jump\t// in\n    tag_383:\n        /* \"#utility.yul\":3365:3484   */\n    tag_382:\n        /* \"#utility.yul\":3523:3524   */\n      0x00\n        /* \"#utility.yul\":3548:3601   */\n      tag_384\n        /* \"#utility.yul\":3593:3600   */\n      dup5\n        /* \"#utility.yul\":3584:3590   */\n      dup3\n        /* \"#utility.yul\":3573:3582   */\n      dup6\n        /* \"#utility.yul\":3569:3591   */\n      add\n        /* \"#utility.yul\":3548:3601   */\n      tag_311\n      jump\t// in\n    tag_384:\n        /* \"#utility.yul\":3538:3601   */\n      swap2\n      pop\n        /* \"#utility.yul\":3494:3611   */\n      pop\n        /* \"#utility.yul\":3289:3618   */\n      swap3\n      swap2\n      pop\n      pop\n      jump\t// out\n        /* \"#utility.yul\":3624:3746   */\n    tag_312:\n        /* \"#utility.yul\":3697:3721   */\n      tag_386\n        /* \"#utility.yul\":3715:3720   */\n      dup2\n        /* \"#utility.yul\":3697:3721   */\n      tag_300\n      jump\t// in\n    tag_386:\n        /* \"#utility.yul\":3690:3695   */\n      dup2\n        /* \"#utility.yul\":3687:3722   */\n      eq\n        /* \"#utility.yul\":3677:3740   */\n      tag_387\n      jumpi\n        /* \"#utility.yul\":3736:3737   */\n      0x00\n        /* \"#utility.yul\":3733:3734   */\n      dup1\n        /* \"#utility.yul\":3726:3738   */\n      revert\n        /* \"#utility.yul\":3677:3740   */\n    tag_387:\n        /* \"#utility.yul\":3624:3746   */\n      pop\n      jump\t// out\n        /* \"#utility.yul\":3752:3891   */\n    tag_313:\n        /* \"#utility.yul\":3798:3803   */\n      0x00\n        /* \"#utility.yul\":3836:3842   */\n      dup2\n        /* \"#utility.yul\":3823:3843   */\n      calldataload\n        /* \"#utility.yul\":3814:3843   */\n      swap1\n      pop\n        /* \"#utility.yul\":3852:3885   */\n      tag_389\n        /* \"#utility.yul\":3879:3884   */\n      dup2\n        /* \"#utility.yul\":3852:3885   */\n      tag_312\n      jump\t// in\n    tag_389:\n        /* \"#utility.yul\":3752:3891   */\n      swap3\n      swap2\n      pop\n      pop\n      jump\t// out\n        /* \"#utility.yul\":3897:4371   */\n    tag_46:\n        /* \"#utility.yul\":3965:3971   */\n      0x00\n        /* \"#utility.yul\":3973:3979   */\n      dup1\n        /* \"#utility.yul\":4022:4024   */\n      0x40\n        /* \"#utility.yul\":4010:4019   */\n      dup4\n        /* \"#utility.yul\":4001:4008   */\n      dup6\n        /* \"#utility.yul\":3997:4020   */\n      sub\n        /* \"#utility.yul\":3993:4025   */\n      slt\n        /* \"#utility.yul\":3990:4109   */\n      iszero\n      tag_391\n      jumpi\n        /* \"#utility.yul\":4028:4107   */\n      tag_392\n      tag_308\n      jump\t// in\n    tag_392:\n        /* \"#utility.yul\":3990:4109   */\n    tag_391:\n        /* \"#utility.yul\":4148:4149   */\n      0x00\n        /* \"#utility.yul\":4173:4226   */\n      tag_393\n        /* \"#utility.yul\":4218:4225   */\n      dup6\n        /* \"#utility.yul\":4209:4215   */\n      dup3\n        /* \"#utility.yul\":4198:4207   */\n      dup7\n        /* \"#utility.yul\":4194:4216   */\n      add\n        /* \"#utility.yul\":4173:4226   */\n      tag_311\n      jump\t// in\n    tag_393:\n        /* \"#utility.yul\":4163:4226   */\n      swap3\n      pop\n        /* \"#utility.yul\":4119:4236   */\n      pop\n        /* \"#utility.yul\":4275:4277   */\n      0x20\n        /* \"#utility.yul\":4301:4354   */\n      tag_394\n        /* \"#utility.yul\":4346:4353   */\n      dup6\n        /* \"#utility.yul\":4337:4343   */\n      dup3\n        /* \"#utility.yul\":4326:4335   */\n      dup7\n        /* \"#utility.yul\":4322:4344   */\n      add\n        /* \"#utility.yul\":4301:4354   */\n      tag_313\n      jump\t// in\n    tag_394:\n        /* \"#utility.yul\":4291:4354   */\n      swap2\n      pop\n        /* \"#utility.yul\":4246:4364   */\n      pop\n        /* \"#utility.yul\":3897:4371   */\n      swap3\n      pop\n      swap3\n      swap1\n      pop\n      jump\t// out\n        /* \"#utility.yul\":4377:4467   */\n    tag_314:\n        /* \"#utility.yul\":4411:4418   */\n      0x00\n        /* \"#utility.yul\":4454:4459   */\n      dup2\n        /* \"#utility.yul\":4447:4460   */\n      iszero\n        /* \"#utility.yul\":4440:4461   */\n      iszero\n        /* \"#utility.yul\":4429:4461   */\n      swap1\n      pop\n        /* \"#utility.yul\":4377:4467   */\n      swap2\n      swap1\n      pop\n      jump\t// out\n        /* \"#utility.yul\":4473:4582   */\n    tag_315:\n        /* \"#utility.yul\":4554:4575   */\n      tag_397\n        /* \"#utility.yul\":4569:4574   */\n      dup2\n        /* \"#utility.yul\":4554:4575   */\n      tag_314\n      jump\t// in\n    tag_397:\n        /* \"#utility.yul\":4549:4552   */\n      dup3\n        /* \"#utility.yul\":4542:4576   */\n      mstore\n        /* \"#utility.yul\":4473:4582   */\n      pop\n      pop\n      jump\t// out\n        /* \"#utility.yul\":4588:4798   */\n    tag_49:\n        /* \"#utility.yul\":4675:4679   */\n      0x00\n        /* \"#utility.yul\":4713:4715   */\n      0x20\n        /* \"#utility.yul\":4702:4711   */\n      dup3\n        /* \"#utility.yul\":4698:4716   */\n      add\n        /* \"#utility.yul\":4690:4716   */\n      swap1\n      pop\n        /* \"#utility.yul\":4726:4791   */\n      tag_399\n        /* \"#utility.yul\":4788:4789   */\n      0x00\n        /* \"#utility.yul\":4777:4786   */\n      dup4\n        /* \"#utility.yul\":4773:4790   */\n      add\n        /* \"#utility.yul\":4764:4770   */\n      dup5\n        /* \"#utility.yul\":4726:4791   */\n      tag_315\n      jump\t// in\n    tag_399:\n        /* \"#utility.yul\":4588:4798   */\n      swap3\n      swap2\n      pop\n      pop\n      jump\t// out\n        /* \"#utility.yul\":4804:4948   */\n    tag_316:\n        /* \"#utility.yul\":4901:4907   */\n      0x00\n        /* \"#utility.yul\":4935:4940   */\n      dup2\n        /* \"#utility.yul\":4929:4941   */\n      mload\n        /* \"#utility.yul\":4919:4941   */\n      swap1\n      pop\n        /* \"#utility.yul\":4804:4948   */\n      swap2\n      swap1\n      pop\n      jump\t// out\n        /* \"#utility.yul\":4954:5168   */\n    tag_317:\n        /* \"#utility.yul\":5083:5094   */\n      0x00\n        /* \"#utility.yul\":5117:5123   */\n      dup3\n        /* \"#utility.yul\":5112:5115   */\n      dup3\n        /* \"#utility.yul\":5105:5124   */\n      mstore\n        /* \"#utility.yul\":5157:5161   */\n      0x20\n        /* \"#utility.yul\":5152:5155   */\n      dup3\n        /* \"#utility.yul\":5148:5162   */\n      add\n        /* \"#utility.yul\":5133:5162   */\n      swap1\n      pop\n        /* \"#utility.yul\":4954:5168   */\n      swap3\n      swap2\n      pop\n      pop\n      jump\t// out\n        /* \"#utility.yul\":5174:5336   */\n    tag_318:\n        /* \"#utility.yul\":5271:5275   */\n      0x00\n        /* \"#utility.yul\":5294:5297   */\n      dup2\n        /* \"#utility.yul\":5286:5297   */\n      swap1\n      pop\n        /* \"#utility.yul\":5324:5328   */\n      0x20\n        /* \"#utility.yul\":5319:5322   */\n      dup3\n        /* \"#utility.yul\":5315:5329   */\n      add\n        /* \"#utility.yul\":5307:5329   */\n      swap1\n      pop\n        /* \"#utility.yul\":5174:5336   */\n      swap2\n      swap1\n      pop\n      jump\t// out\n        /* \"#utility.yul\":5342:5450   */\n    tag_319:\n        /* \"#utility.yul\":5419:5443   */\n      tag_404\n        /* \"#utility.yul\":5437:5442   */\n      dup2\n        /* \"#utility.yul\":5419:5443   */\n      tag_305\n      jump\t// in\n    tag_404:\n        /* \"#utility.yul\":5414:5417   */\n      dup3\n        /* \"#utility.yul\":5407:5444   */\n      mstore\n        /* \"#utility.yul\":5342:5450   */\n      pop\n      pop\n      jump\t// out\n        /* \"#utility.yul\":5456:5555   */\n    tag_320:\n        /* \"#utility.yul\":5527:5548   */\n      tag_406\n        /* \"#utility.yul\":5542:5547   */\n      dup2\n        /* \"#utility.yul\":5527:5548   */\n      tag_314\n      jump\t// in\n    tag_406:\n        /* \"#utility.yul\":5522:5525   */\n      dup3\n        /* \"#utility.yul\":5515:5549   */\n      mstore\n        /* \"#utility.yul\":5456:5555   */\n      pop\n      pop\n      jump\t// out\n        /* \"#utility.yul\":5629:6690   */\n    tag_321:\n        /* \"#utility.yul\":5776:5780   */\n      0xa0\n        /* \"#utility.yul\":5771:5774   */\n      dup3\n        /* \"#utility.yul\":5767:5781   */\n      add\n        /* \"#utility.yul\":5873:5877   */\n      0x00\n        /* \"#utility.yul\":5866:5871   */\n      dup3\n        /* \"#utility.yul\":5862:5878   */\n      add\n        /* \"#utility.yul\":5856:5879   */\n      mload\n        /* \"#utility.yul\":5892:5955   */\n      tag_408\n        /* \"#utility.yul\":5949:5953   */\n      0x00\n        /* \"#utility.yul\":5944:5947   */\n      dup6\n        /* \"#utility.yul\":5940:5954   */\n      add\n        /* \"#utility.yul\":5926:5938   */\n      dup3\n        /* \"#utility.yul\":5892:5955   */\n      tag_319\n      jump\t// in\n    tag_408:\n        /* \"#utility.yul\":5791:5965   */\n      pop\n        /* \"#utility.yul\":6056:6060   */\n      0x20\n        /* \"#utility.yul\":6049:6054   */\n      dup3\n        /* \"#utility.yul\":6045:6061   */\n      add\n        /* \"#utility.yul\":6039:6062   */\n      mload\n        /* \"#utility.yul\":6075:6138   */\n      tag_409\n        /* \"#utility.yul\":6132:6136   */\n      0x20\n        /* \"#utility.yul\":6127:6130   */\n      dup6\n        /* \"#utility.yul\":6123:6137   */\n      add\n        /* \"#utility.yul\":6109:6121   */\n      dup3\n        /* \"#utility.yul\":6075:6138   */\n      tag_319\n      jump\t// in\n    tag_409:\n        /* \"#utility.yul\":5975:6148   */\n      pop\n        /* \"#utility.yul\":6237:6241   */\n      0x40\n        /* \"#utility.yul\":6230:6235   */\n      dup3\n        /* \"#utility.yul\":6226:6242   */\n      add\n        /* \"#utility.yul\":6220:6243   */\n      mload\n        /* \"#utility.yul\":6256:6319   */\n      tag_410\n        /* \"#utility.yul\":6313:6317   */\n      0x40\n        /* \"#utility.yul\":6308:6311   */\n      dup6\n        /* \"#utility.yul\":6304:6318   */\n      add\n        /* \"#utility.yul\":6290:6302   */\n      dup3\n        /* \"#utility.yul\":6256:6319   */\n      tag_319\n      jump\t// in\n    tag_410:\n        /* \"#utility.yul\":6158:6329   */\n      pop\n        /* \"#utility.yul\":6420:6424   */\n      0x60\n        /* \"#utility.yul\":6413:6418   */\n      dup3\n        /* \"#utility.yul\":6409:6425   */\n      add\n        /* \"#utility.yul\":6403:6426   */\n      mload\n        /* \"#utility.yul\":6439:6502   */\n      tag_411\n        /* \"#utility.yul\":6496:6500   */\n      0x60\n        /* \"#utility.yul\":6491:6494   */\n      dup6\n        /* \"#utility.yul\":6487:6501   */\n      add\n        /* \"#utility.yul\":6473:6485   */\n      dup3\n        /* \"#utility.yul\":6439:6502   */\n      tag_319\n      jump\t// in\n    tag_411:\n        /* \"#utility.yul\":6339:6512   */\n      pop\n        /* \"#utility.yul\":6597:6601   */\n      0x80\n        /* \"#utility.yul\":6590:6595   */\n      dup3\n        /* \"#utility.yul\":6586:6602   */\n      add\n        /* \"#utility.yul\":6580:6603   */\n      mload\n        /* \"#utility.yul\":6616:6673   */\n      tag_412\n        /* \"#utility.yul\":6667:6671   */\n      0x80\n        /* \"#utility.yul\":6662:6665   */\n      dup6\n        /* \"#utility.yul\":6658:6672   */\n      add\n        /* \"#utility.yul\":6644:6656   */\n      dup3\n        /* \"#utility.yul\":6616:6673   */\n      tag_320\n      jump\t// in\n    tag_412:\n        /* \"#utility.yul\":6522:6683   */\n      pop\n        /* \"#utility.yul\":5745:6690   */\n      pop\n        /* \"#utility.yul\":5629:6690   */\n      pop\n      pop\n      jump\t// out\n        /* \"#utility.yul\":6696:6995   */\n    tag_322:\n        /* \"#utility.yul\":6825:6835   */\n      0x00\n        /* \"#utility.yul\":6846:6952   */\n      tag_414\n        /* \"#utility.yul\":6948:6951   */\n      dup4\n        /* \"#utility.yul\":6940:6946   */\n      dup4\n        /* \"#utility.yul\":6846:6952   */\n      tag_321\n      jump\t// in\n    tag_414:\n        /* \"#utility.yul\":6984:6988   */\n      0xa0\n        /* \"#utility.yul\":6979:6982   */\n      dup4\n        /* \"#utility.yul\":6975:6989   */\n      add\n        /* \"#utility.yul\":6961:6989   */\n      swap1\n      pop\n        /* \"#utility.yul\":6696:6995   */\n      swap3\n      swap2\n      pop\n      pop\n      jump\t// out\n        /* \"#utility.yul\":7001:7144   */\n    tag_323:\n        /* \"#utility.yul\":7101:7105   */\n      0x00\n        /* \"#utility.yul\":7133:7137   */\n      0x20\n        /* \"#utility.yul\":7128:7131   */\n      dup3\n        /* \"#utility.yul\":7124:7138   */\n      add\n        /* \"#utility.yul\":7116:7138   */\n      swap1\n      pop\n        /* \"#utility.yul\":7001:7144   */\n      swap2\n      swap1\n      pop\n      jump\t// out\n        /* \"#utility.yul\":7222:8194   */\n    tag_324:\n        /* \"#utility.yul\":7401:7404   */\n      0x00\n        /* \"#utility.yul\":7430:7514   */\n      tag_417\n        /* \"#utility.yul\":7508:7513   */\n      dup3\n        /* \"#utility.yul\":7430:7514   */\n      tag_316\n      jump\t// in\n    tag_417:\n        /* \"#utility.yul\":7530:7646   */\n      tag_418\n        /* \"#utility.yul\":7639:7645   */\n      dup2\n        /* \"#utility.yul\":7634:7637   */\n      dup6\n        /* \"#utility.yul\":7530:7646   */\n      tag_317\n      jump\t// in\n    tag_418:\n        /* \"#utility.yul\":7523:7646   */\n      swap4\n      pop\n        /* \"#utility.yul\":7670:7756   */\n      tag_419\n        /* \"#utility.yul\":7750:7755   */\n      dup4\n        /* \"#utility.yul\":7670:7756   */\n      tag_318\n      jump\t// in\n    tag_419:\n        /* \"#utility.yul\":7779:7786   */\n      dup1\n        /* \"#utility.yul\":7810:7811   */\n      0x00\n        /* \"#utility.yul\":7795:8169   */\n    tag_420:\n        /* \"#utility.yul\":7820:7826   */\n      dup4\n        /* \"#utility.yul\":7817:7818   */\n      dup2\n        /* \"#utility.yul\":7814:7827   */\n      lt\n        /* \"#utility.yul\":7795:8169   */\n      iszero\n      tag_422\n      jumpi\n        /* \"#utility.yul\":7896:7902   */\n      dup2\n        /* \"#utility.yul\":7890:7903   */\n      mload\n        /* \"#utility.yul\":7923:8046   */\n      tag_423\n        /* \"#utility.yul\":8042:8045   */\n      dup9\n        /* \"#utility.yul\":8027:8040   */\n      dup3\n        /* \"#utility.yul\":7923:8046   */\n      tag_322\n      jump\t// in\n    tag_423:\n        /* \"#utility.yul\":7916:8046   */\n      swap8\n      pop\n        /* \"#utility.yul\":8069:8159   */\n      tag_424\n        /* \"#utility.yul\":8152:8158   */\n      dup4\n        /* \"#utility.yul\":8069:8159   */\n      tag_323\n      jump\t// in\n    tag_424:\n        /* \"#utility.yul\":8059:8159   */\n      swap3\n      pop\n        /* \"#utility.yul\":7855:8169   */\n      pop\n        /* \"#utility.yul\":7842:7843   */\n      0x01\n        /* \"#utility.yul\":7839:7840   */\n      dup2\n        /* \"#utility.yul\":7835:7844   */\n      add\n        /* \"#utility.yul\":7830:7844   */\n      swap1\n      pop\n        /* \"#utility.yul\":7795:8169   */\n      jump(tag_420)\n    tag_422:\n        /* \"#utility.yul\":7799:7813   */\n      pop\n        /* \"#utility.yul\":8185:8188   */\n      dup6\n        /* \"#utility.yul\":8178:8188   */\n      swap4\n      pop\n        /* \"#utility.yul\":7406:8194   */\n      pop\n      pop\n      pop\n        /* \"#utility.yul\":7222:8194   */\n      swap3\n      swap2\n      pop\n      pop\n      jump\t// out\n        /* \"#utility.yul\":8200:8693   */\n    tag_56:\n        /* \"#utility.yul\":8403:8407   */\n      0x00\n        /* \"#utility.yul\":8441:8443   */\n      0x20\n        /* \"#utility.yul\":8430:8439   */\n      dup3\n        /* \"#utility.yul\":8426:8444   */\n      add\n        /* \"#utility.yul\":8418:8444   */\n      swap1\n      pop\n        /* \"#utility.yul\":8490:8499   */\n      dup2\n        /* \"#utility.yul\":8484:8488   */\n      dup2\n        /* \"#utility.yul\":8480:8500   */\n      sub\n        /* \"#utility.yul\":8476:8477   */\n      0x00\n        /* \"#utility.yul\":8465:8474   */\n      dup4\n        /* \"#utility.yul\":8461:8478   */\n      add\n        /* \"#utility.yul\":8454:8501   */\n      mstore\n        /* \"#utility.yul\":8518:8686   */\n      tag_426\n        /* \"#utility.yul\":8681:8685   */\n      dup2\n        /* \"#utility.yul\":8672:8678   */\n      dup5\n        /* \"#utility.yul\":8518:8686   */\n      tag_324\n      jump\t// in\n    tag_426:\n        /* \"#utility.yul\":8510:8686   */\n      swap1\n      pop\n        /* \"#utility.yul\":8200:8693   */\n      swap3\n      swap2\n      pop\n      pop\n      jump\t// out\n        /* \"#utility.yul\":8699:8817   */\n    tag_325:\n        /* \"#utility.yul\":8786:8810   */\n      tag_428\n        /* \"#utility.yul\":8804:8809   */\n      dup2\n        /* \"#utility.yul\":8786:8810   */\n      tag_300\n      jump\t// in\n    tag_428:\n        /* \"#utility.yul\":8781:8784   */\n      dup3\n        /* \"#utility.yul\":8774:8811   */\n      mstore\n        /* \"#utility.yul\":8699:8817   */\n      pop\n      pop\n      jump\t// out\n        /* \"#utility.yul\":8823:9045   */\n    tag_72:\n        /* \"#utility.yul\":8916:8920   */\n      0x00\n        /* \"#utility.yul\":8954:8956   */\n      0x20\n        /* \"#utility.yul\":8943:8952   */\n      dup3\n        /* \"#utility.yul\":8939:8957   */\n      add\n        /* \"#utility.yul\":8931:8957   */\n      swap1\n      pop\n        /* \"#utility.yul\":8967:9038   */\n      tag_430\n        /* \"#utility.yul\":9035:9036   */\n      0x00\n        /* \"#utility.yul\":9024:9033   */\n      dup4\n        /* \"#utility.yul\":9020:9037   */\n      add\n        /* \"#utility.yul\":9011:9017   */\n      dup5\n        /* \"#utility.yul\":8967:9038   */\n      tag_325\n      jump\t// in\n    tag_430:\n        /* \"#utility.yul\":8823:9045   */\n      swap3\n      swap2\n      pop\n      pop\n      jump\t// out\n        /* \"#utility.yul\":9051:9165   */\n    tag_326:\n        /* \"#utility.yul\":9118:9124   */\n      0x00\n        /* \"#utility.yul\":9152:9157   */\n      dup2\n        /* \"#utility.yul\":9146:9158   */\n      mload\n        /* \"#utility.yul\":9136:9158   */\n      swap1\n      pop\n        /* \"#utility.yul\":9051:9165   */\n      swap2\n      swap1\n      pop\n      jump\t// out\n        /* \"#utility.yul\":9171:9355   */\n    tag_327:\n        /* \"#utility.yul\":9270:9281   */\n      0x00\n        /* \"#utility.yul\":9304:9310   */\n      dup3\n        /* \"#utility.yul\":9299:9302   */\n      dup3\n        /* \"#utility.yul\":9292:9311   */\n      mstore\n        /* \"#utility.yul\":9344:9348   */\n      0x20\n        /* \"#utility.yul\":9339:9342   */\n      dup3\n        /* \"#utility.yul\":9335:9349   */\n      add\n        /* \"#utility.yul\":9320:9349   */\n      swap1\n      pop\n        /* \"#utility.yul\":9171:9355   */\n      swap3\n      swap2\n      pop\n      pop\n      jump\t// out\n        /* \"#utility.yul\":9361:9493   */\n    tag_328:\n        /* \"#utility.yul\":9428:9432   */\n      0x00\n        /* \"#utility.yul\":9451:9454   */\n      dup2\n        /* \"#utility.yul\":9443:9454   */\n      swap1\n      pop\n        /* \"#utility.yul\":9481:9485   */\n      0x20\n        /* \"#utility.yul\":9476:9479   */\n      dup3\n        /* \"#utility.yul\":9472:9486   */\n      add\n        /* \"#utility.yul\":9464:9486   */\n      swap1\n      pop\n        /* \"#utility.yul\":9361:9493   */\n      swap2\n      swap1\n      pop\n      jump\t// out\n        /* \"#utility.yul\":9499:9678   */\n    tag_329:\n        /* \"#utility.yul\":9568:9578   */\n      0x00\n        /* \"#utility.yul\":9589:9635   */\n      tag_435\n        /* \"#utility.yul\":9631:9634   */\n      dup4\n        /* \"#utility.yul\":9623:9629   */\n      dup4\n        /* \"#utility.yul\":9589:9635   */\n      tag_319\n      jump\t// in\n    tag_435:\n        /* \"#utility.yul\":9667:9671   */\n      0x20\n        /* \"#utility.yul\":9662:9665   */\n      dup4\n        /* \"#utility.yul\":9658:9672   */\n      add\n        /* \"#utility.yul\":9644:9672   */\n      swap1\n      pop\n        /* \"#utility.yul\":9499:9678   */\n      swap3\n      swap2\n      pop\n      pop\n      jump\t// out\n        /* \"#utility.yul\":9684:9797   */\n    tag_330:\n        /* \"#utility.yul\":9754:9758   */\n      0x00\n        /* \"#utility.yul\":9786:9790   */\n      0x20\n        /* \"#utility.yul\":9781:9784   */\n      dup3\n        /* \"#utility.yul\":9777:9791   */\n      add\n        /* \"#utility.yul\":9769:9791   */\n      swap1\n      pop\n        /* \"#utility.yul\":9684:9797   */\n      swap2\n      swap1\n      pop\n      jump\t// out\n        /* \"#utility.yul\":9833:10565   */\n    tag_331:\n        /* \"#utility.yul\":9952:9955   */\n      0x00\n        /* \"#utility.yul\":9981:10035   */\n      tag_438\n        /* \"#utility.yul\":10029:10034   */\n      dup3\n        /* \"#utility.yul\":9981:10035   */\n      tag_326\n      jump\t// in\n    tag_438:\n        /* \"#utility.yul\":10051:10137   */\n      tag_439\n        /* \"#utility.yul\":10130:10136   */\n      dup2\n        /* \"#utility.yul\":10125:10128   */\n      dup6\n        /* \"#utility.yul\":10051:10137   */\n      tag_327\n      jump\t// in\n    tag_439:\n        /* \"#utility.yul\":10044:10137   */\n      swap4\n      pop\n        /* \"#utility.yul\":10161:10217   */\n      tag_440\n        /* \"#utility.yul\":10211:10216   */\n      dup4\n        /* \"#utility.yul\":10161:10217   */\n      tag_328\n      jump\t// in\n    tag_440:\n        /* \"#utility.yul\":10240:10247   */\n      dup1\n        /* \"#utility.yul\":10271:10272   */\n      0x00\n        /* \"#utility.yul\":10256:10540   */\n    tag_441:\n        /* \"#utility.yul\":10281:10287   */\n      dup4\n        /* \"#utility.yul\":10278:10279   */\n      dup2\n        /* \"#utility.yul\":10275:10288   */\n      lt\n        /* \"#utility.yul\":10256:10540   */\n      iszero\n      tag_443\n      jumpi\n        /* \"#utility.yul\":10357:10363   */\n      dup2\n        /* \"#utility.yul\":10351:10364   */\n      mload\n        /* \"#utility.yul\":10384:10447   */\n      tag_444\n        /* \"#utility.yul\":10443:10446   */\n      dup9\n        /* \"#utility.yul\":10428:10441   */\n      dup3\n        /* \"#utility.yul\":10384:10447   */\n      tag_329\n      jump\t// in\n    tag_444:\n        /* \"#utility.yul\":10377:10447   */\n      swap8\n      pop\n        /* \"#utility.yul\":10470:10530   */\n      tag_445\n        /* \"#utility.yul\":10523:10529   */\n      dup4\n        /* \"#utility.yul\":10470:10530   */\n      tag_330\n      jump\t// in\n    tag_445:\n        /* \"#utility.yul\":10460:10530   */\n      swap3\n      pop\n        /* \"#utility.yul\":10316:10540   */\n      pop\n        /* \"#utility.yul\":10303:10304   */\n      0x01\n        /* \"#utility.yul\":10300:10301   */\n      dup2\n        /* \"#utility.yul\":10296:10305   */\n      add\n        /* \"#utility.yul\":10291:10305   */\n      swap1\n      pop\n        /* \"#utility.yul\":10256:10540   */\n      jump(tag_441)\n    tag_443:\n        /* \"#utility.yul\":10260:10274   */\n      pop\n        /* \"#utility.yul\":10556:10559   */\n      dup6\n        /* \"#utility.yul\":10549:10559   */\n      swap4\n      pop\n        /* \"#utility.yul\":9957:10565   */\n      pop\n      pop\n      pop\n        /* \"#utility.yul\":9833:10565   */\n      swap3\n      swap2\n      pop\n      pop\n      jump\t// out\n        /* \"#utility.yul\":10571:10944   */\n    tag_79:\n        /* \"#utility.yul\":10714:10718   */\n      0x00\n        /* \"#utility.yul\":10752:10754   */\n      0x20\n        /* \"#utility.yul\":10741:10750   */\n      dup3\n        /* \"#utility.yul\":10737:10755   */\n      add\n        /* \"#utility.yul\":10729:10755   */\n      swap1\n      pop\n        /* \"#utility.yul\":10801:10810   */\n      dup2\n        /* \"#utility.yul\":10795:10799   */\n      dup2\n        /* \"#utility.yul\":10791:10811   */\n      sub\n        /* \"#utility.yul\":10787:10788   */\n      0x00\n        /* \"#utility.yul\":10776:10785   */\n      dup4\n        /* \"#utility.yul\":10772:10789   */\n      add\n        /* \"#utility.yul\":10765:10812   */\n      mstore\n        /* \"#utility.yul\":10829:10937   */\n      tag_447\n        /* \"#utility.yul\":10932:10936   */\n      dup2\n        /* \"#utility.yul\":10923:10929   */\n      dup5\n        /* \"#utility.yul\":10829:10937   */\n      tag_331\n      jump\t// in\n    tag_447:\n        /* \"#utility.yul\":10821:10937   */\n      swap1\n      pop\n        /* \"#utility.yul\":10571:10944   */\n      swap3\n      swap2\n      pop\n      pop\n      jump\t// out\n        /* \"#utility.yul\":10950:11569   */\n    tag_88:\n        /* \"#utility.yul\":11027:11033   */\n      0x00\n        /* \"#utility.yul\":11035:11041   */\n      dup1\n        /* \"#utility.yul\":11043:11049   */\n      0x00\n        /* \"#utility.yul\":11092:11094   */\n      0x60\n        /* \"#utility.yul\":11080:11089   */\n      dup5\n        /* \"#utility.yul\":11071:11078   */\n      dup7\n        /* \"#utility.yul\":11067:11090   */\n      sub\n        /* \"#utility.yul\":11063:11095   */\n      slt\n        /* \"#utility.yul\":11060:11179   */\n      iszero\n      tag_449\n      jumpi\n        /* \"#utility.yul\":11098:11177   */\n      tag_450\n      tag_308\n      jump\t// in\n    tag_450:\n        /* \"#utility.yul\":11060:11179   */\n    tag_449:\n        /* \"#utility.yul\":11218:11219   */\n      0x00\n        /* \"#utility.yul\":11243:11296   */\n      tag_451\n        /* \"#utility.yul\":11288:11295   */\n      dup7\n        /* \"#utility.yul\":11279:11285   */\n      dup3\n        /* \"#utility.yul\":11268:11277   */\n      dup8\n        /* \"#utility.yul\":11264:11286   */\n      add\n        /* \"#utility.yul\":11243:11296   */\n      tag_311\n      jump\t// in\n    tag_451:\n        /* \"#utility.yul\":11233:11296   */\n      swap4\n      pop\n        /* \"#utility.yul\":11189:11306   */\n      pop\n        /* \"#utility.yul\":11345:11347   */\n      0x20\n        /* \"#utility.yul\":11371:11424   */\n      tag_452\n        /* \"#utility.yul\":11416:11423   */\n      dup7\n        /* \"#utility.yul\":11407:11413   */\n      dup3\n        /* \"#utility.yul\":11396:11405   */\n      dup8\n        /* \"#utility.yul\":11392:11414   */\n      add\n        /* \"#utility.yul\":11371:11424   */\n      tag_311\n      jump\t// in\n    tag_452:\n        /* \"#utility.yul\":11361:11424   */\n      swap3\n      pop\n        /* \"#utility.yul\":11316:11434   */\n      pop\n        /* \"#utility.yul\":11473:11475   */\n      0x40\n        /* \"#utility.yul\":11499:11552   */\n      tag_453\n        /* \"#utility.yul\":11544:11551   */\n      dup7\n        /* \"#utility.yul\":11535:11541   */\n      dup3\n        /* \"#utility.yul\":11524:11533   */\n      dup8\n        /* \"#utility.yul\":11520:11542   */\n      add\n        /* \"#utility.yul\":11499:11552   */\n      tag_311\n      jump\t// in\n    tag_453:\n        /* \"#utility.yul\":11489:11552   */\n      swap2\n      pop\n        /* \"#utility.yul\":11444:11562   */\n      pop\n        /* \"#utility.yul\":10950:11569   */\n      swap3\n      pop\n      swap3\n      pop\n      swap3\n      jump\t// out\n        /* \"#utility.yul\":11575:11904   */\n    tag_92:\n        /* \"#utility.yul\":11634:11640   */\n      0x00\n        /* \"#utility.yul\":11683:11685   */\n      0x20\n        /* \"#utility.yul\":11671:11680   */\n      dup3\n        /* \"#utility.yul\":11662:11669   */\n      dup5\n        /* \"#utility.yul\":11658:11681   */\n      sub\n        /* \"#utility.yul\":11654:11686   */\n      slt\n        /* \"#utility.yul\":11651:11770   */\n      iszero\n      tag_455\n      jumpi\n        /* \"#utility.yul\":11689:11768   */\n      tag_456\n      tag_308\n      jump\t// in\n    tag_456:\n        /* \"#utility.yul\":11651:11770   */\n    tag_455:\n        /* \"#utility.yul\":11809:11810   */\n      0x00\n        /* \"#utility.yul\":11834:11887   */\n      tag_457\n        /* \"#utility.yul\":11879:11886   */\n      dup5\n        /* \"#utility.yul\":11870:11876   */\n      dup3\n        /* \"#utility.yul\":11859:11868   */\n      dup6\n        /* \"#utility.yul\":11855:11877   */\n      add\n        /* \"#utility.yul\":11834:11887   */\n      tag_313\n      jump\t// in\n    tag_457:\n        /* \"#utility.yul\":11824:11887   */\n      swap2\n      pop\n        /* \"#utility.yul\":11780:11897   */\n      pop\n        /* \"#utility.yul\":11575:11904   */\n      swap3\n      swap2\n      pop\n      pop\n      jump\t// out\n        /* \"#utility.yul\":11910:12673   */\n    tag_95:\n        /* \"#utility.yul\":12137:12141   */\n      0x00\n        /* \"#utility.yul\":12175:12178   */\n      0xc0\n        /* \"#utility.yul\":12164:12173   */\n      dup3\n        /* \"#utility.yul\":12160:12179   */\n      add\n        /* \"#utility.yul\":12152:12179   */\n      swap1\n      pop\n        /* \"#utility.yul\":12189:12260   */\n      tag_459\n        /* \"#utility.yul\":12257:12258   */\n      0x00\n        /* \"#utility.yul\":12246:12255   */\n      dup4\n        /* \"#utility.yul\":12242:12259   */\n      add\n        /* \"#utility.yul\":12233:12239   */\n      dup10\n        /* \"#utility.yul\":12189:12260   */\n      tag_325\n      jump\t// in\n    tag_459:\n        /* \"#utility.yul\":12270:12342   */\n      tag_460\n        /* \"#utility.yul\":12338:12340   */\n      0x20\n        /* \"#utility.yul\":12327:12336   */\n      dup4\n        /* \"#utility.yul\":12323:12341   */\n      add\n        /* \"#utility.yul\":12314:12320   */\n      dup9\n        /* \"#utility.yul\":12270:12342   */\n      tag_306\n      jump\t// in\n    tag_460:\n        /* \"#utility.yul\":12352:12424   */\n      tag_461\n        /* \"#utility.yul\":12420:12422   */\n      0x40\n        /* \"#utility.yul\":12409:12418   */\n      dup4\n        /* \"#utility.yul\":12405:12423   */\n      add\n        /* \"#utility.yul\":12396:12402   */\n      dup8\n        /* \"#utility.yul\":12352:12424   */\n      tag_306\n      jump\t// in\n    tag_461:\n        /* \"#utility.yul\":12434:12506   */\n      tag_462\n        /* \"#utility.yul\":12502:12504   */\n      0x60\n        /* \"#utility.yul\":12491:12500   */\n      dup4\n        /* \"#utility.yul\":12487:12505   */\n      add\n        /* \"#utility.yul\":12478:12484   */\n      dup7\n        /* \"#utility.yul\":12434:12506   */\n      tag_306\n      jump\t// in\n    tag_462:\n        /* \"#utility.yul\":12516:12589   */\n      tag_463\n        /* \"#utility.yul\":12584:12587   */\n      0x80\n        /* \"#utility.yul\":12573:12582   */\n      dup4\n        /* \"#utility.yul\":12569:12588   */\n      add\n        /* \"#utility.yul\":12560:12566   */\n      dup6\n        /* \"#utility.yul\":12516:12589   */\n      tag_306\n      jump\t// in\n    tag_463:\n        /* \"#utility.yul\":12599:12666   */\n      tag_464\n        /* \"#utility.yul\":12661:12664   */\n      0xa0\n        /* \"#utility.yul\":12650:12659   */\n      dup4\n        /* \"#utility.yul\":12646:12665   */\n      add\n        /* \"#utility.yul\":12637:12643   */\n      dup5\n        /* \"#utility.yul\":12599:12666   */\n      tag_315\n      jump\t// in\n    tag_464:\n        /* \"#utility.yul\":11910:12673   */\n      swap8\n      swap7\n      pop\n      pop\n      pop\n      pop\n      pop\n      pop\n      pop\n      jump\t// out\n        /* \"#utility.yul\":12679:12848   */\n    tag_332:\n        /* \"#utility.yul\":12763:12774   */\n      0x00\n        /* \"#utility.yul\":12797:12803   */\n      dup3\n        /* \"#utility.yul\":12792:12795   */\n      dup3\n        /* \"#utility.yul\":12785:12804   */\n      mstore\n        /* \"#utility.yul\":12837:12841   */\n      0x20\n        /* \"#utility.yul\":12832:12835   */\n      dup3\n        /* \"#utility.yul\":12828:12842   */\n      add\n        /* \"#utility.yul\":12813:12842   */\n      swap1\n      pop\n        /* \"#utility.yul\":12679:12848   */\n      swap3\n      swap2\n      pop\n      pop\n      jump\t// out\n        /* \"#utility.yul\":12854:13094   */\n    tag_333:\n        /* \"#utility.yul\":12994:13028   */\n      0x76616c7565206973206e6f742067726561746572207468616e20313030303020\n        /* \"#utility.yul\":12990:12991   */\n      0x00\n        /* \"#utility.yul\":12982:12988   */\n      dup3\n        /* \"#utility.yul\":12978:12992   */\n      add\n        /* \"#utility.yul\":12971:13029   */\n      mstore\n        /* \"#utility.yul\":13063:13086   */\n      0x616e64206c657373207468616e20353030303030300000000000000000000000\n        /* \"#utility.yul\":13058:13060   */\n      0x20\n        /* \"#utility.yul\":13050:13056   */\n      dup3\n        /* \"#utility.yul\":13046:13061   */\n      add\n        /* \"#utility.yul\":13039:13087   */\n      mstore\n        /* \"#utility.yul\":12854:13094   */\n      pop\n      jump\t// out\n        /* \"#utility.yul\":13100:13466   */\n    tag_334:\n        /* \"#utility.yul\":13242:13245   */\n      0x00\n        /* \"#utility.yul\":13263:13330   */\n      tag_468\n        /* \"#utility.yul\":13327:13329   */\n      0x35\n        /* \"#utility.yul\":13322:13325   */\n      dup4\n        /* \"#utility.yul\":13263:13330   */\n      tag_332\n      jump\t// in\n    tag_468:\n        /* \"#utility.yul\":13256:13330   */\n      swap2\n      pop\n        /* \"#utility.yul\":13339:13432   */\n      tag_469\n        /* \"#utility.yul\":13428:13431   */\n      dup3\n        /* \"#utility.yul\":13339:13432   */\n      tag_333\n      jump\t// in\n    tag_469:\n        /* \"#utility.yul\":13457:13459   */\n      0x40\n        /* \"#utility.yul\":13452:13455   */\n      dup3\n        /* \"#utility.yul\":13448:13460   */\n      add\n        /* \"#utility.yul\":13441:13460   */\n      swap1\n      pop\n        /* \"#utility.yul\":13100:13466   */\n      swap2\n      swap1\n      pop\n      jump\t// out\n        /* \"#utility.yul\":13472:13891   */\n    tag_120:\n        /* \"#utility.yul\":13638:13642   */\n      0x00\n        /* \"#utility.yul\":13676:13678   */\n      0x20\n        /* \"#utility.yul\":13665:13674   */\n      dup3\n        /* \"#utility.yul\":13661:13679   */\n      add\n        /* \"#utility.yul\":13653:13679   */\n      swap1\n      pop\n        /* \"#utility.yul\":13725:13734   */\n      dup2\n        /* \"#utility.yul\":13719:13723   */\n      dup2\n        /* \"#utility.yul\":13715:13735   */\n      sub\n        /* \"#utility.yul\":13711:13712   */\n      0x00\n        /* \"#utility.yul\":13700:13709   */\n      dup4\n        /* \"#utility.yul\":13696:13713   */\n      add\n        /* \"#utility.yul\":13689:13736   */\n      mstore\n        /* \"#utility.yul\":13753:13884   */\n      tag_471\n        /* \"#utility.yul\":13879:13883   */\n      dup2\n        /* \"#utility.yul\":13753:13884   */\n      tag_334\n      jump\t// in\n    tag_471:\n        /* \"#utility.yul\":13745:13884   */\n      swap1\n      pop\n        /* \"#utility.yul\":13472:13891   */\n      swap2\n      swap1\n      pop\n      jump\t// out\n        /* \"#utility.yul\":13897:14077   */\n    tag_335:\n        /* \"#utility.yul\":13945:14022   */\n      0x4e487b7100000000000000000000000000000000000000000000000000000000\n        /* \"#utility.yul\":13942:13943   */\n      0x00\n        /* \"#utility.yul\":13935:14023   */\n      mstore\n        /* \"#utility.yul\":14042:14046   */\n      0x11\n        /* \"#utility.yul\":14039:14040   */\n      0x04\n        /* \"#utility.yul\":14032:14047   */\n      mstore\n        /* \"#utility.yul\":14066:14070   */\n      0x24\n        /* \"#utility.yul\":14063:14064   */\n      0x00\n        /* \"#utility.yul\":14056:14071   */\n      revert\n        /* \"#utility.yul\":14083:14316   */\n    tag_123:\n        /* \"#utility.yul\":14122:14125   */\n      0x00\n        /* \"#utility.yul\":14145:14169   */\n      tag_474\n        /* \"#utility.yul\":14163:14168   */\n      dup3\n        /* \"#utility.yul\":14145:14169   */\n      tag_305\n      jump\t// in\n    tag_474:\n        /* \"#utility.yul\":14136:14169   */\n      swap2\n      pop\n        /* \"#utility.yul\":14191:14257   */\n      0xffffffffffffffffffffffffffffffffffffffffffffffffffffffffffffffff\n        /* \"#utility.yul\":14184:14189   */\n      dup3\n        /* \"#utility.yul\":14181:14258   */\n      sub\n        /* \"#utility.yul\":14178:14281   */\n      tag_475\n      jumpi\n        /* \"#utility.yul\":14261:14279   */\n      tag_476\n      tag_335\n      jump\t// in\n    tag_476:\n        /* \"#utility.yul\":14178:14281   */\n    tag_475:\n        /* \"#utility.yul\":14308:14309   */\n      0x01\n        /* \"#utility.yul\":14301:14306   */\n      dup3\n        /* \"#utility.yul\":14297:14310   */\n      add\n        /* \"#utility.yul\":14290:14310   */\n      swap1\n      pop\n        /* \"#utility.yul\":14083:14316   */\n      swap2\n      swap1\n      pop\n      jump\t// out\n        /* \"#utility.yul\":14322:14627   */\n    tag_125:\n        /* \"#utility.yul\":14362:14365   */\n      0x00\n        /* \"#utility.yul\":14381:14401   */\n      tag_478\n        /* \"#utility.yul\":14399:14400   */\n      dup3\n        /* \"#utility.yul\":14381:14401   */\n      tag_305\n      jump\t// in\n    tag_478:\n        /* \"#utility.yul\":14376:14401   */\n      swap2\n      pop\n        /* \"#utility.yul\":14415:14435   */\n      tag_479\n        /* \"#utility.yul\":14433:14434   */\n      dup4\n        /* \"#utility.yul\":14415:14435   */\n      tag_305\n      jump\t// in\n    tag_479:\n        /* \"#utility.yul\":14410:14435   */\n      swap3\n      pop\n        /* \"#utility.yul\":14569:14570   */\n      dup3\n        /* \"#utility.yul\":14501:14567   */\n      0xffffffffffffffffffffffffffffffffffffffffffffffffffffffffffffffff\n        /* \"#utility.yul\":14497:14571   */\n      sub\n        /* \"#utility.yul\":14494:14495   */\n      dup3\n        /* \"#utility.yul\":14491:14572   */\n      gt\n        /* \"#utility.yul\":14488:14595   */\n      iszero\n      tag_480\n      jumpi\n        /* \"#utility.yul\":14575:14593   */\n      tag_481\n      tag_335\n      jump\t// in\n    tag_481:\n        /* \"#utility.yul\":14488:14595   */\n    tag_480:\n        /* \"#utility.yul\":14619:14620   */\n      dup3\n        /* \"#utility.yul\":14616:14617   */\n      dup3\n        /* \"#utility.yul\":14612:14621   */\n      add\n        /* \"#utility.yul\":14605:14621   */\n      swap1\n      pop\n        /* \"#utility.yul\":14322:14627   */\n      swap3\n      swap2\n      pop\n      pop\n      jump\t// out\n        /* \"#utility.yul\":14633:14981   */\n    tag_130:\n        /* \"#utility.yul\":14673:14680   */\n      0x00\n        /* \"#utility.yul\":14696:14716   */\n      tag_483\n        /* \"#utility.yul\":14714:14715   */\n      dup3\n        /* \"#utility.yul\":14696:14716   */\n      tag_305\n      jump\t// in\n    tag_483:\n        /* \"#utility.yul\":14691:14716   */\n      swap2\n      pop\n        /* \"#utility.yul\":14730:14750   */\n      tag_484\n        /* \"#utility.yul\":14748:14749   */\n      dup4\n        /* \"#utility.yul\":14730:14750   */\n      tag_305\n      jump\t// in\n    tag_484:\n        /* \"#utility.yul\":14725:14750   */\n      swap3\n      pop\n        /* \"#utility.yul\":14918:14919   */\n      dup2\n        /* \"#utility.yul\":14850:14916   */\n      0xffffffffffffffffffffffffffffffffffffffffffffffffffffffffffffffff\n        /* \"#utility.yul\":14846:14920   */\n      div\n        /* \"#utility.yul\":14843:14844   */\n      dup4\n        /* \"#utility.yul\":14840:14921   */\n      gt\n        /* \"#utility.yul\":14835:14836   */\n      dup3\n        /* \"#utility.yul\":14828:14837   */\n      iszero\n        /* \"#utility.yul\":14821:14838   */\n      iszero\n        /* \"#utility.yul\":14817:14922   */\n      and\n        /* \"#utility.yul\":14814:14945   */\n      iszero\n      tag_485\n      jumpi\n        /* \"#utility.yul\":14925:14943   */\n      tag_486\n      tag_335\n      jump\t// in\n    tag_486:\n        /* \"#utility.yul\":14814:14945   */\n    tag_485:\n        /* \"#utility.yul\":14973:14974   */\n      dup3\n        /* \"#utility.yul\":14970:14971   */\n      dup3\n        /* \"#utility.yul\":14966:14975   */\n      mul\n        /* \"#utility.yul\":14955:14975   */\n      swap1\n      pop\n        /* \"#utility.yul\":14633:14981   */\n      swap3\n      swap2\n      pop\n      pop\n      jump\t// out\n        /* \"#utility.yul\":14987:15429   */\n    tag_132:\n        /* \"#utility.yul\":15136:15140   */\n      0x00\n        /* \"#utility.yul\":15174:15176   */\n      0x60\n        /* \"#utility.yul\":15163:15172   */\n      dup3\n        /* \"#utility.yul\":15159:15177   */\n      add\n        /* \"#utility.yul\":15151:15177   */\n      swap1\n      pop\n        /* \"#utility.yul\":15187:15258   */\n      tag_488\n        /* \"#utility.yul\":15255:15256   */\n      0x00\n        /* \"#utility.yul\":15244:15253   */\n      dup4\n        /* \"#utility.yul\":15240:15257   */\n      add\n        /* \"#utility.yul\":15231:15237   */\n      dup7\n        /* \"#utility.yul\":15187:15258   */\n      tag_325\n      jump\t// in\n    tag_488:\n        /* \"#utility.yul\":15268:15340   */\n      tag_489\n        /* \"#utility.yul\":15336:15338   */\n      0x20\n        /* \"#utility.yul\":15325:15334   */\n      dup4\n        /* \"#utility.yul\":15321:15339   */\n      add\n        /* \"#utility.yul\":15312:15318   */\n      dup6\n        /* \"#utility.yul\":15268:15340   */\n      tag_325\n      jump\t// in\n    tag_489:\n        /* \"#utility.yul\":15350:15422   */\n      tag_490\n        /* \"#utility.yul\":15418:15420   */\n      0x40\n        /* \"#utility.yul\":15407:15416   */\n      dup4\n        /* \"#utility.yul\":15403:15421   */\n      add\n        /* \"#utility.yul\":15394:15400   */\n      dup5\n        /* \"#utility.yul\":15350:15422   */\n      tag_306\n      jump\t// in\n    tag_490:\n        /* \"#utility.yul\":14987:15429   */\n      swap5\n      swap4\n      pop\n      pop\n      pop\n      pop\n      jump\t// out\n        /* \"#utility.yul\":15435:15551   */\n    tag_336:\n        /* \"#utility.yul\":15505:15526   */\n      tag_492\n        /* \"#utility.yul\":15520:15525   */\n      dup2\n        /* \"#utility.yul\":15505:15526   */\n      tag_314\n      jump\t// in\n    tag_492:\n        /* \"#utility.yul\":15498:15503   */\n      dup2\n        /* \"#utility.yul\":15495:15527   */\n      eq\n        /* \"#utility.yul\":15485:15545   */\n      tag_493\n      jumpi\n        /* \"#utility.yul\":15541:15542   */\n      0x00\n        /* \"#utility.yul\":15538:15539   */\n      dup1\n        /* \"#utility.yul\":15531:15543   */\n      revert\n        /* \"#utility.yul\":15485:15545   */\n    tag_493:\n        /* \"#utility.yul\":15435:15551   */\n      pop\n      jump\t// out\n        /* \"#utility.yul\":15557:15694   */\n    tag_337:\n        /* \"#utility.yul\":15611:15616   */\n      0x00\n        /* \"#utility.yul\":15642:15648   */\n      dup2\n        /* \"#utility.yul\":15636:15649   */\n      mload\n        /* \"#utility.yul\":15627:15649   */\n      swap1\n      pop\n        /* \"#utility.yul\":15658:15688   */\n      tag_495\n        /* \"#utility.yul\":15682:15687   */\n      dup2\n        /* \"#utility.yul\":15658:15688   */\n      tag_336\n      jump\t// in\n    tag_495:\n        /* \"#utility.yul\":15557:15694   */\n      swap3\n      swap2\n      pop\n      pop\n      jump\t// out\n        /* \"#utility.yul\":15700:16045   */\n    tag_136:\n        /* \"#utility.yul\":15767:15773   */\n      0x00\n        /* \"#utility.yul\":15816:15818   */\n      0x20\n        /* \"#utility.yul\":15804:15813   */\n      dup3\n        /* \"#utility.yul\":15795:15802   */\n      dup5\n        /* \"#utility.yul\":15791:15814   */\n      sub\n        /* \"#utility.yul\":15787:15819   */\n      slt\n        /* \"#utility.yul\":15784:15903   */\n      iszero\n      tag_497\n      jumpi\n        /* \"#utility.yul\":15822:15901   */\n      tag_498\n      tag_308\n      jump\t// in\n    tag_498:\n        /* \"#utility.yul\":15784:15903   */\n    tag_497:\n        /* \"#utility.yul\":15942:15943   */\n      0x00\n        /* \"#utility.yul\":15967:16028   */\n      tag_499\n        /* \"#utility.yul\":16020:16027   */\n      dup5\n        /* \"#utility.yul\":16011:16017   */\n      dup3\n        /* \"#utility.yul\":16000:16009   */\n      dup6\n        /* \"#utility.yul\":15996:16018   */\n      add\n        /* \"#utility.yul\":15967:16028   */\n      tag_337\n      jump\t// in\n    tag_499:\n        /* \"#utility.yul\":15957:16028   */\n      swap2\n      pop\n        /* \"#utility.yul\":15913:16038   */\n      pop\n        /* \"#utility.yul\":15700:16045   */\n      swap3\n      swap2\n      pop\n      pop\n      jump\t// out\n        /* \"#utility.yul\":16051:16231   */\n    tag_154:\n        /* \"#utility.yul\":16099:16176   */\n      0x4e487b7100000000000000000000000000000000000000000000000000000000\n        /* \"#utility.yul\":16096:16097   */\n      0x00\n        /* \"#utility.yul\":16089:16177   */\n      mstore\n        /* \"#utility.yul\":16196:16200   */\n      0x41\n        /* \"#utility.yul\":16193:16194   */\n      0x04\n        /* \"#utility.yul\":16186:16201   */\n      mstore\n        /* \"#utility.yul\":16220:16224   */\n      0x24\n        /* \"#utility.yul\":16217:16218   */\n      0x00\n        /* \"#utility.yul\":16210:16225   */\n      revert\n        /* \"#utility.yul\":16237:16417   */\n    tag_165:\n        /* \"#utility.yul\":16285:16362   */\n      0x4e487b7100000000000000000000000000000000000000000000000000000000\n        /* \"#utility.yul\":16282:16283   */\n      0x00\n        /* \"#utility.yul\":16275:16363   */\n      mstore\n        /* \"#utility.yul\":16382:16386   */\n      0x32\n        /* \"#utility.yul\":16379:16380   */\n      0x04\n        /* \"#utility.yul\":16372:16387   */\n      mstore\n        /* \"#utility.yul\":16406:16410   */\n      0x24\n        /* \"#utility.yul\":16403:16404   */\n      0x00\n        /* \"#utility.yul\":16396:16411   */\n      revert\n        /* \"#utility.yul\":16423:16614   */\n    tag_173:\n        /* \"#utility.yul\":16463:16467   */\n      0x00\n        /* \"#utility.yul\":16483:16503   */\n      tag_503\n        /* \"#utility.yul\":16501:16502   */\n      dup3\n        /* \"#utility.yul\":16483:16503   */\n      tag_305\n      jump\t// in\n    tag_503:\n        /* \"#utility.yul\":16478:16503   */\n      swap2\n      pop\n        /* \"#utility.yul\":16517:16537   */\n      tag_504\n        /* \"#utility.yul\":16535:16536   */\n      dup4\n        /* \"#utility.yul\":16517:16537   */\n      tag_305\n      jump\t// in\n    tag_504:\n        /* \"#utility.yul\":16512:16537   */\n      swap3\n      pop\n        /* \"#utility.yul\":16556:16557   */\n      dup3\n        /* \"#utility.yul\":16553:16554   */\n      dup3\n        /* \"#utility.yul\":16550:16558   */\n      lt\n        /* \"#utility.yul\":16547:16581   */\n      iszero\n      tag_505\n      jumpi\n        /* \"#utility.yul\":16561:16579   */\n      tag_506\n      tag_335\n      jump\t// in\n    tag_506:\n        /* \"#utility.yul\":16547:16581   */\n    tag_505:\n        /* \"#utility.yul\":16606:16607   */\n      dup3\n        /* \"#utility.yul\":16603:16604   */\n      dup3\n        /* \"#utility.yul\":16599:16608   */\n      sub\n        /* \"#utility.yul\":16591:16608   */\n      swap1\n      pop\n        /* \"#utility.yul\":16423:16614   */\n      swap3\n      swap2\n      pop\n      pop\n      jump\t// out\n        /* \"#utility.yul\":16620:16800   */\n    tag_338:\n        /* \"#utility.yul\":16668:16745   */\n      0x4e487b7100000000000000000000000000000000000000000000000000000000\n        /* \"#utility.yul\":16665:16666   */\n      0x00\n        /* \"#utility.yul\":16658:16746   */\n      mstore\n        /* \"#utility.yul\":16765:16769   */\n      0x12\n        /* \"#utility.yul\":16762:16763   */\n      0x04\n        /* \"#utility.yul\":16755:16770   */\n      mstore\n        /* \"#utility.yul\":16789:16793   */\n      0x24\n        /* \"#utility.yul\":16786:16787   */\n      0x00\n        /* \"#utility.yul\":16779:16794   */\n      revert\n        /* \"#utility.yul\":16806:16991   */\n    tag_175:\n        /* \"#utility.yul\":16846:16847   */\n      0x00\n        /* \"#utility.yul\":16863:16883   */\n      tag_509\n        /* \"#utility.yul\":16881:16882   */\n      dup3\n        /* \"#utility.yul\":16863:16883   */\n      tag_305\n      jump\t// in\n    tag_509:\n        /* \"#utility.yul\":16858:16883   */\n      swap2\n      pop\n        /* \"#utility.yul\":16897:16917   */\n      tag_510\n        /* \"#utility.yul\":16915:16916   */\n      dup4\n        /* \"#utility.yul\":16897:16917   */\n      tag_305\n      jump\t// in\n    tag_510:\n        /* \"#utility.yul\":16892:16917   */\n      swap3\n      pop\n        /* \"#utility.yul\":16936:16937   */\n      dup3\n        /* \"#utility.yul\":16926:16961   */\n      tag_511\n      jumpi\n        /* \"#utility.yul\":16941:16959   */\n      tag_512\n      tag_338\n      jump\t// in\n    tag_512:\n        /* \"#utility.yul\":16926:16961   */\n    tag_511:\n        /* \"#utility.yul\":16983:16984   */\n      dup3\n        /* \"#utility.yul\":16980:16981   */\n      dup3\n        /* \"#utility.yul\":16976:16985   */\n      div\n        /* \"#utility.yul\":16971:16985   */\n      swap1\n      pop\n        /* \"#utility.yul\":16806:16991   */\n      swap3\n      swap2\n      pop\n      pop\n      jump\t// out\n        /* \"#utility.yul\":16997:17221   */\n    tag_339:\n        /* \"#utility.yul\":17137:17171   */\n      0x796f7520646f6e74206861766520696e766573746d656e7420746f2077697468\n        /* \"#utility.yul\":17133:17134   */\n      0x00\n        /* \"#utility.yul\":17125:17131   */\n      dup3\n        /* \"#utility.yul\":17121:17135   */\n      add\n        /* \"#utility.yul\":17114:17172   */\n      mstore\n        /* \"#utility.yul\":17206:17213   */\n      0x647261776e000000000000000000000000000000000000000000000000000000\n        /* \"#utility.yul\":17201:17203   */\n      0x20\n        /* \"#utility.yul\":17193:17199   */\n      dup3\n        /* \"#utility.yul\":17189:17204   */\n      add\n        /* \"#utility.yul\":17182:17214   */\n      mstore\n        /* \"#utility.yul\":16997:17221   */\n      pop\n      jump\t// out\n        /* \"#utility.yul\":17227:17593   */\n    tag_340:\n        /* \"#utility.yul\":17369:17372   */\n      0x00\n        /* \"#utility.yul\":17390:17457   */\n      tag_515\n        /* \"#utility.yul\":17454:17456   */\n      0x25\n        /* \"#utility.yul\":17449:17452   */\n      dup4\n        /* \"#utility.yul\":17390:17457   */\n      tag_332\n      jump\t// in\n    tag_515:\n        /* \"#utility.yul\":17383:17457   */\n      swap2\n      pop\n        /* \"#utility.yul\":17466:17559   */\n      tag_516\n        /* \"#utility.yul\":17555:17558   */\n      dup3\n        /* \"#utility.yul\":17466:17559   */\n      tag_339\n      jump\t// in\n    tag_516:\n        /* \"#utility.yul\":17584:17586   */\n      0x40\n        /* \"#utility.yul\":17579:17582   */\n      dup3\n        /* \"#utility.yul\":17575:17587   */\n      add\n        /* \"#utility.yul\":17568:17587   */\n      swap1\n      pop\n        /* \"#utility.yul\":17227:17593   */\n      swap2\n      swap1\n      pop\n      jump\t// out\n        /* \"#utility.yul\":17599:18018   */\n    tag_184:\n        /* \"#utility.yul\":17765:17769   */\n      0x00\n        /* \"#utility.yul\":17803:17805   */\n      0x20\n        /* \"#utility.yul\":17792:17801   */\n      dup3\n        /* \"#utility.yul\":17788:17806   */\n      add\n        /* \"#utility.yul\":17780:17806   */\n      swap1\n      pop\n        /* \"#utility.yul\":17852:17861   */\n      dup2\n        /* \"#utility.yul\":17846:17850   */\n      dup2\n        /* \"#utility.yul\":17842:17862   */\n      sub\n        /* \"#utility.yul\":17838:17839   */\n      0x00\n        /* \"#utility.yul\":17827:17836   */\n      dup4\n        /* \"#utility.yul\":17823:17840   */\n      add\n        /* \"#utility.yul\":17816:17863   */\n      mstore\n        /* \"#utility.yul\":17880:18011   */\n      tag_518\n        /* \"#utility.yul\":18006:18010   */\n      dup2\n        /* \"#utility.yul\":17880:18011   */\n      tag_340\n      jump\t// in\n    tag_518:\n        /* \"#utility.yul\":17872:18011   */\n      swap1\n      pop\n        /* \"#utility.yul\":17599:18018   */\n      swap2\n      swap1\n      pop\n      jump\t// out\n        /* \"#utility.yul\":18024:18356   */\n    tag_193:\n        /* \"#utility.yul\":18145:18149   */\n      0x00\n        /* \"#utility.yul\":18183:18185   */\n      0x40\n        /* \"#utility.yul\":18172:18181   */\n      dup3\n        /* \"#utility.yul\":18168:18186   */\n      add\n        /* \"#utility.yul\":18160:18186   */\n      swap1\n      pop\n        /* \"#utility.yul\":18196:18267   */\n      tag_520\n        /* \"#utility.yul\":18264:18265   */\n      0x00\n        /* \"#utility.yul\":18253:18262   */\n      dup4\n        /* \"#utility.yul\":18249:18266   */\n      add\n        /* \"#utility.yul\":18240:18246   */\n      dup6\n        /* \"#utility.yul\":18196:18267   */\n      tag_325\n      jump\t// in\n    tag_520:\n        /* \"#utility.yul\":18277:18349   */\n      tag_521\n        /* \"#utility.yul\":18345:18347   */\n      0x20\n        /* \"#utility.yul\":18334:18343   */\n      dup4\n        /* \"#utility.yul\":18330:18348   */\n      add\n        /* \"#utility.yul\":18321:18327   */\n      dup5\n        /* \"#utility.yul\":18277:18349   */\n      tag_306\n      jump\t// in\n    tag_521:\n        /* \"#utility.yul\":18024:18356   */\n      swap4\n      swap3\n      pop\n      pop\n      pop\n      jump\t// out\n        /* \"#utility.yul\":18362:18583   */\n    tag_341:\n        /* \"#utility.yul\":18502:18536   */\n      0x796f7520646f6e742068617665207265776172647320746f2077697468647261\n        /* \"#utility.yul\":18498:18499   */\n      0x00\n        /* \"#utility.yul\":18490:18496   */\n      dup3\n        /* \"#utility.yul\":18486:18500   */\n      add\n        /* \"#utility.yul\":18479:18537   */\n      mstore\n        /* \"#utility.yul\":18571:18575   */\n      0x776e000000000000000000000000000000000000000000000000000000000000\n        /* \"#utility.yul\":18566:18568   */\n      0x20\n        /* \"#utility.yul\":18558:18564   */\n      dup3\n        /* \"#utility.yul\":18554:18569   */\n      add\n        /* \"#utility.yul\":18547:18576   */\n      mstore\n        /* \"#utility.yul\":18362:18583   */\n      pop\n      jump\t// out\n        /* \"#utility.yul\":18589:18955   */\n    tag_342:\n        /* \"#utility.yul\":18731:18734   */\n      0x00\n        /* \"#utility.yul\":18752:18819   */\n      tag_524\n        /* \"#utility.yul\":18816:18818   */\n      0x22\n        /* \"#utility.yul\":18811:18814   */\n      dup4\n        /* \"#utility.yul\":18752:18819   */\n      tag_332\n      jump\t// in\n    tag_524:\n        /* \"#utility.yul\":18745:18819   */\n      swap2\n      pop\n        /* \"#utility.yul\":18828:18921   */\n      tag_525\n        /* \"#utility.yul\":18917:18920   */\n      dup3\n        /* \"#utility.yul\":18828:18921   */\n      tag_341\n      jump\t// in\n    tag_525:\n        /* \"#utility.yul\":18946:18948   */\n      0x40\n        /* \"#utility.yul\":18941:18944   */\n      dup3\n        /* \"#utility.yul\":18937:18949   */\n      add\n        /* \"#utility.yul\":18930:18949   */\n      swap1\n      pop\n        /* \"#utility.yul\":18589:18955   */\n      swap2\n      swap1\n      pop\n      jump\t// out\n        /* \"#utility.yul\":18961:19380   */\n    tag_231:\n        /* \"#utility.yul\":19127:19131   */\n      0x00\n        /* \"#utility.yul\":19165:19167   */\n      0x20\n        /* \"#utility.yul\":19154:19163   */\n      dup3\n        /* \"#utility.yul\":19150:19168   */\n      add\n        /* \"#utility.yul\":19142:19168   */\n      swap1\n      pop\n        /* \"#utility.yul\":19214:19223   */\n      dup2\n        /* \"#utility.yul\":19208:19212   */\n      dup2\n        /* \"#utility.yul\":19204:19224   */\n      sub\n        /* \"#utility.yul\":19200:19201   */\n      0x00\n        /* \"#utility.yul\":19189:19198   */\n      dup4\n        /* \"#utility.yul\":19185:19202   */\n      add\n        /* \"#utility.yul\":19178:19225   */\n      mstore\n        /* \"#utility.yul\":19242:19373   */\n      tag_527\n        /* \"#utility.yul\":19368:19372   */\n      dup2\n        /* \"#utility.yul\":19242:19373   */\n      tag_342\n      jump\t// in\n    tag_527:\n        /* \"#utility.yul\":19234:19373   */\n      swap1\n      pop\n        /* \"#utility.yul\":18961:19380   */\n      swap2\n      swap1\n      pop\n      jump\t// out\n        /* \"#utility.yul\":19386:19606   */\n    tag_343:\n        /* \"#utility.yul\":19526:19560   */\n      0x6f6e6c79204f776e65722063616e2063616c6c20746869732066756e6374696f\n        /* \"#utility.yul\":19522:19523   */\n      0x00\n        /* \"#utility.yul\":19514:19520   */\n      dup3\n        /* \"#utility.yul\":19510:19524   */\n      add\n        /* \"#utility.yul\":19503:19561   */\n      mstore\n        /* \"#utility.yul\":19595:19598   */\n      0x6e00000000000000000000000000000000000000000000000000000000000000\n        /* \"#utility.yul\":19590:19592   */\n      0x20\n        /* \"#utility.yul\":19582:19588   */\n      dup3\n        /* \"#utility.yul\":19578:19593   */\n      add\n        /* \"#utility.yul\":19571:19599   */\n      mstore\n        /* \"#utility.yul\":19386:19606   */\n      pop\n      jump\t// out\n        /* \"#utility.yul\":19612:19978   */\n    tag_344:\n        /* \"#utility.yul\":19754:19757   */\n      0x00\n        /* \"#utility.yul\":19775:19842   */\n      tag_530\n        /* \"#utility.yul\":19839:19841   */\n      0x21\n        /* \"#utility.yul\":19834:19837   */\n      dup4\n        /* \"#utility.yul\":19775:19842   */\n      tag_332\n      jump\t// in\n    tag_530:\n        /* \"#utility.yul\":19768:19842   */\n      swap2\n      pop\n        /* \"#utility.yul\":19851:19944   */\n      tag_531\n        /* \"#utility.yul\":19940:19943   */\n      dup3\n        /* \"#utility.yul\":19851:19944   */\n      tag_343\n      jump\t// in\n    tag_531:\n        /* \"#utility.yul\":19969:19971   */\n      0x40\n        /* \"#utility.yul\":19964:19967   */\n      dup3\n        /* \"#utility.yul\":19960:19972   */\n      add\n        /* \"#utility.yul\":19953:19972   */\n      swap1\n      pop\n        /* \"#utility.yul\":19612:19978   */\n      swap2\n      swap1\n      pop\n      jump\t// out\n        /* \"#utility.yul\":19984:20403   */\n    tag_241:\n        /* \"#utility.yul\":20150:20154   */\n      0x00\n        /* \"#utility.yul\":20188:20190   */\n      0x20\n        /* \"#utility.yul\":20177:20186   */\n      dup3\n        /* \"#utility.yul\":20173:20191   */\n      add\n        /* \"#utility.yul\":20165:20191   */\n      swap1\n      pop\n        /* \"#utility.yul\":20237:20246   */\n      dup2\n        /* \"#utility.yul\":20231:20235   */\n      dup2\n        /* \"#utility.yul\":20227:20247   */\n      sub\n        /* \"#utility.yul\":20223:20224   */\n      0x00\n        /* \"#utility.yul\":20212:20221   */\n      dup4\n        /* \"#utility.yul\":20208:20225   */\n      add\n        /* \"#utility.yul\":20201:20248   */\n      mstore\n        /* \"#utility.yul\":20265:20396   */\n      tag_533\n        /* \"#utility.yul\":20391:20395   */\n      dup2\n        /* \"#utility.yul\":20265:20396   */\n      tag_344\n      jump\t// in\n    tag_533:\n        /* \"#utility.yul\":20257:20396   */\n      swap1\n      pop\n        /* \"#utility.yul\":19984:20403   */\n      swap2\n      swap1\n      pop\n      jump\t// out\n\n    auxdata: 0xa2646970667358221220d5eb8b84dd9b0870abf1a689555cecc744e5484d2e45a02f07881efa4e39ef9864736f6c634300080d0033\n}\n",
				"bytecode": {
					"linkReferences": {},
					"object": "60806040527363c0f4f599efcfd747ddea897117b5293e139bcd600160006101000a81548173ffffffffffffffffffffffffffffffffffffffff021916908373ffffffffffffffffffffffffffffffffffffffff1602179055507363c0f4f599efcfd747ddea897117b5293e139bcd600260006101000a81548173ffffffffffffffffffffffffffffffffffffffff021916908373ffffffffffffffffffffffffffffffffffffffff1602179055506706f05b59d3b20000600455612710600555624c4b4060065563018b82006007553480156100db57600080fd5b50336000806101000a81548173ffffffffffffffffffffffffffffffffffffffff021916908373ffffffffffffffffffffffffffffffffffffffff160217905550612ae08061012b6000396000f3fe608060405234801561001057600080fd5b506004361061014d5760003560e01c80638da5cb5b116100c3578063d3560ee81161007c578063d3560ee81461035a578063e2033fcb1461038f578063f2fde38b146103ad578063f790b81a146103c9578063f7c618c1146103e7578063fae730bc146104055761014d565b80638da5cb5b146102a8578063929f6bbe146102c6578063a61be99d146102e4578063bc67eaff14610302578063c885bc5814610320578063ce10db0a1461033e5761014d565b806332d4e7831161011557806332d4e783146101f85780633a1e0833146102145780633d18b91214610232578063500cb85f14610250578063523cddfe1461026c57806373cf575a1461028a5761014d565b80630c5f58f41461015257806310cde60a146101705780631e8aba351461018e578063293be456146101ac5780632bccdce6146101c8575b600080fd5b61015a610423565b60405161016791906120f6565b60405180910390f35b6101786104f1565b6040516101859190612131565b60405180910390f35b6101966104f7565b6040516101a39190612131565b60405180910390f35b6101c660048036038101906101c1919061217d565b610544565b005b6101e260048036038101906101dd91906121d6565b61054e565b6040516101ef9190612231565b60405180910390f35b610212600480360381019061020d919061217d565b610c3c565b005b61021c610c46565b6040516102299190612381565b60405180910390f35b61023a610ecd565b6040516102479190612131565b60405180910390f35b61026a6004803603810190610265919061217d565b61101d565b005b610274611027565b6040516102819190612131565b60405180910390f35b61029261102d565b60405161029f9190612231565b60405180910390f35b6102b061154f565b6040516102bd91906123b2565b60405180910390f35b6102ce611573565b6040516102db9190612131565b60405180910390f35b6102ec6115bd565b6040516102f9919061247c565b60405180910390f35b61030a611730565b6040516103179190612131565b60405180910390f35b610328611736565b6040516103359190612231565b60405180910390f35b6103586004803603810190610353919061249e565b611888565b005b610374600480360381019061036f91906124f1565b6118a2565b6040516103869695949392919061251e565b60405180910390f35b61039761190b565b6040516103a49190612131565b60405180910390f35b6103c760048036038101906103c291906124f1565b611911565b005b6103d16119e2565b6040516103de919061247c565b60405180910390f35b6103ef611b55565b6040516103fc9190612131565b60405180910390f35b61040d611b5b565b60405161041a9190612131565b60405180910390f35b6060600960003373ffffffffffffffffffffffffffffffffffffffff1673ffffffffffffffffffffffffffffffffffffffff1681526020019081526020016000206001018054806020026020016040519081016040528092919081815260200182805480156104e757602002820191906000526020600020905b8160009054906101000a900473ffffffffffffffffffffffffffffffffffffffff1673ffffffffffffffffffffffffffffffffffffffff168152602001906001019080831161049d575b5050505050905090565b60035481565b6000600960003373ffffffffffffffffffffffffffffffffffffffff1673ffffffffffffffffffffffffffffffffffffffff16815260200190815260200160002060010180549050905090565b8060048190555050565b6000600554831015801561056457506006548311155b6105a3576040517f08c379a000000000000000000000000000000000000000000000000000000000815260040161059a90612602565b60405180910390fd5b60001515600960003373ffffffffffffffffffffffffffffffffffffffff1673ffffffffffffffffffffffffffffffffffffffff16815260200190815260200160002060080160009054906101000a900460ff16151503610617576003600081548092919061061190612651565b91905055505b6000600960003373ffffffffffffffffffffffffffffffffffffffff1673ffffffffffffffffffffffffffffffffffffffff16815260200190815260200160002060050154905083600960003373ffffffffffffffffffffffffffffffffffffffff1673ffffffffffffffffffffffffffffffffffffffff16815260200190815260200160002060000160008381526020019081526020016000206000018190555042600960003373ffffffffffffffffffffffffffffffffffffffff1673ffffffffffffffffffffffffffffffffffffffff168152602001908152602001600020600001600083815260200190815260200160002060020181905550600754426107229190612699565b600960003373ffffffffffffffffffffffffffffffffffffffff1673ffffffffffffffffffffffffffffffffffffffff16815260200190815260200160002060000160008381526020019081526020016000206001018190555080600960003373ffffffffffffffffffffffffffffffffffffffff1673ffffffffffffffffffffffffffffffffffffffff16815260200190815260200160002060000160008381526020019081526020016000206003018190555083600960003373ffffffffffffffffffffffffffffffffffffffff1673ffffffffffffffffffffffffffffffffffffffff16815260200190815260200160002060060160008282546108299190612699565b92505081905550600960003373ffffffffffffffffffffffffffffffffffffffff1673ffffffffffffffffffffffffffffffffffffffff168152602001908152602001600020600501600081548092919061088390612651565b9190505550836008600082825461089a9190612699565b92505081905550600160009054906101000a900473ffffffffffffffffffffffffffffffffffffffff1673ffffffffffffffffffffffffffffffffffffffff166323b872dd3330670de0b6b3a7640000886108f591906126ef565b6040518463ffffffff1660e01b815260040161091393929190612749565b6020604051808303816000875af1158015610932573d6000803e3d6000fd5b505050506040513d601f19601f8201168201806040525081019061095691906127ac565b50600073ffffffffffffffffffffffffffffffffffffffff168373ffffffffffffffffffffffffffffffffffffffff1614806109bd57503373ffffffffffffffffffffffffffffffffffffffff168373ffffffffffffffffffffffffffffffffffffffff16145b80610a1b575060011515600960003373ffffffffffffffffffffffffffffffffffffffff1673ffffffffffffffffffffffffffffffffffffffff16815260200190815260200160002060080160009054906101000a900460ff161515145b15610aa7576000600960003373ffffffffffffffffffffffffffffffffffffffff1673ffffffffffffffffffffffffffffffffffffffff16815260200190815260200160002060020160006101000a81548173ffffffffffffffffffffffffffffffffffffffff021916908373ffffffffffffffffffffffffffffffffffffffff160217905550610bd6565b82600960003373ffffffffffffffffffffffffffffffffffffffff1673ffffffffffffffffffffffffffffffffffffffff16815260200190815260200160002060020160006101000a81548173ffffffffffffffffffffffffffffffffffffffff021916908373ffffffffffffffffffffffffffffffffffffffff160217905550600960008473ffffffffffffffffffffffffffffffffffffffff1673ffffffffffffffffffffffffffffffffffffffff168152602001908152602001600020600101339080600181540180825580915050600190039060005260206000200160009091909190916101000a81548173ffffffffffffffffffffffffffffffffffffffff021916908373ffffffffffffffffffffffffffffffffffffffff160217905550610bd53385611b61565b5b6001600960003373ffffffffffffffffffffffffffffffffffffffff1673ffffffffffffffffffffffffffffffffffffffff16815260200190815260200160002060080160006101000a81548160ff021916908315150217905550600191505092915050565b8060058190555050565b60606000600960003373ffffffffffffffffffffffffffffffffffffffff1673ffffffffffffffffffffffffffffffffffffffff16815260200190815260200160002060050154905060008060005b83811015610d1e576000600960003373ffffffffffffffffffffffffffffffffffffffff1673ffffffffffffffffffffffffffffffffffffffff1681526020019081526020016000206000016000838152602001908152602001600020600001541115610d0b578280610d0790612651565b9350505b8080610d1690612651565b915050610c95565b5060008267ffffffffffffffff811115610d3b57610d3a6127d9565b5b604051908082528060200260200182016040528015610d7457816020015b610d61611fd5565b815260200190600190039081610d595790505b50905060005b84811015610ec2576000600960003373ffffffffffffffffffffffffffffffffffffffff1673ffffffffffffffffffffffffffffffffffffffff1681526020019081526020016000206000016000838152602001908152602001600020600001541115610eaf57600960003373ffffffffffffffffffffffffffffffffffffffff1673ffffffffffffffffffffffffffffffffffffffff16815260200190815260200160002060000160008281526020019081526020016000206040518060a0016040529081600082015481526020016001820154815260200160028201548152602001600382015481526020016004820160009054906101000a900460ff161515151581525050828481518110610e9557610e94612808565b5b60200260200101819052508280610eab90612651565b9350505b8080610eba90612651565b915050610d7a565b508094505050505090565b600080600080600960003373ffffffffffffffffffffffffffffffffffffffff1673ffffffffffffffffffffffffffffffffffffffff16815260200190815260200160002060050154905060005b8181101561101357600960003373ffffffffffffffffffffffffffffffffffffffff1673ffffffffffffffffffffffffffffffffffffffff16815260200190815260200160002060000160008281526020019081526020016000206002015442610f859190612837565b9250603c83610f94919061289a565b92506000831115610fb05760045483610fad91906126ef565b93505b600960003373ffffffffffffffffffffffffffffffffffffffff1673ffffffffffffffffffffffffffffffffffffffff1681526020019081526020016000206007015484610ffe9190612837565b9350808061100b90612651565b915050610f1b565b5082935050505090565b8060068190555050565b60075481565b600080600960003373ffffffffffffffffffffffffffffffffffffffff1673ffffffffffffffffffffffffffffffffffffffff16815260200190815260200160002060060154116110b3576040517f08c379a00000000000000000000000000000000000000000000000000000000081526004016110aa9061293d565b60405180910390fd5b6000600960003373ffffffffffffffffffffffffffffffffffffffff1673ffffffffffffffffffffffffffffffffffffffff1681526020019081526020016000206006015490506000600960003373ffffffffffffffffffffffffffffffffffffffff1673ffffffffffffffffffffffffffffffffffffffff1681526020019081526020016000206005015490506000806000600960003373ffffffffffffffffffffffffffffffffffffffff1673ffffffffffffffffffffffffffffffffffffffff16815260200190815260200160002060050154905042600960003373ffffffffffffffffffffffffffffffffffffffff1673ffffffffffffffffffffffffffffffffffffffff16815260200190815260200160002060000160006001846111dd9190612837565b81526020019081526020016000206001015411156113b857601e606486611204919061289a565b61120e91906126ef565b9250604660648661121f919061289a565b61122991906126ef565b9150600160009054906101000a900473ffffffffffffffffffffffffffffffffffffffff1673ffffffffffffffffffffffffffffffffffffffff1663a9059cbb33670de0b6b3a76400008661127e91906126ef565b6040518363ffffffff1660e01b815260040161129b92919061295d565b6020604051808303816000875af11580156112ba573d6000803e3d6000fd5b505050506040513d601f19601f820116820180604052508101906112de91906127ac565b50600160009054906101000a900473ffffffffffffffffffffffffffffffffffffffff1673ffffffffffffffffffffffffffffffffffffffff1663a9059cbb60008054906101000a900473ffffffffffffffffffffffffffffffffffffffff16670de0b6b3a76400008561135291906126ef565b6040518363ffffffff1660e01b815260040161136f92919061295d565b6020604051808303816000875af115801561138e573d6000803e3d6000fd5b505050506040513d601f19601f820116820180604052508101906113b291906127ac565b5061146d565b600160009054906101000a900473ffffffffffffffffffffffffffffffffffffffff1673ffffffffffffffffffffffffffffffffffffffff1663a9059cbb33670de0b6b3a76400008861140b91906126ef565b6040518363ffffffff1660e01b815260040161142892919061295d565b6020604051808303816000875af1158015611447573d6000803e3d6000fd5b505050506040513d601f19601f8201168201806040525081019061146b91906127ac565b505b60005b848110156114fa576001600960003373ffffffffffffffffffffffffffffffffffffffff1673ffffffffffffffffffffffffffffffffffffffff168152602001908152602001600020600001600083815260200190815260200160002060040160006101000a81548160ff02191690831515021790555080806114f290612651565b915050611470565b506000600960003373ffffffffffffffffffffffffffffffffffffffff1673ffffffffffffffffffffffffffffffffffffffff1681526020019081526020016000206006018190555060019550505050505090565b60008054906101000a900473ffffffffffffffffffffffffffffffffffffffff1681565b6000600960003373ffffffffffffffffffffffffffffffffffffffff1673ffffffffffffffffffffffffffffffffffffffff16815260200190815260200160002060060154905090565b60606000601467ffffffffffffffff8111156115dc576115db6127d9565b5b60405190808252806020026020018201604052801561160a5781602001602082028036833780820191505090505b50905060005b6014811015611728576000600960003373ffffffffffffffffffffffffffffffffffffffff1673ffffffffffffffffffffffffffffffffffffffff16815260200190815260200160002060030160008381526020019081526020016000206000015411156116f357600960003373ffffffffffffffffffffffffffffffffffffffff1673ffffffffffffffffffffffffffffffffffffffff1681526020019081526020016000206003016000828152602001908152602001600020600001548282815181106116e2576116e1612808565b5b602002602001018181525050611715565b600082828151811061170857611707612808565b5b6020026020010181815250505b808061172090612651565b915050611610565b508091505090565b60055481565b600080611741610ecd565b905060008111611786576040517f08c379a000000000000000000000000000000000000000000000000000000000815260040161177d906129f8565b60405180910390fd5b600260009054906101000a900473ffffffffffffffffffffffffffffffffffffffff1673ffffffffffffffffffffffffffffffffffffffff1663a9059cbb33836040518363ffffffff1660e01b81526004016117e392919061295d565b6020604051808303816000875af1158015611802573d6000803e3d6000fd5b505050506040513d601f19601f8201168201806040525081019061182691906127ac565b5080600960003373ffffffffffffffffffffffffffffffffffffffff1673ffffffffffffffffffffffffffffffffffffffff16815260200190815260200160002060070160008282546118799190612699565b92505081905550600191505090565b816006819055508260058190555080600481905550505050565b60096020528060005260406000206000915090508060020160009054906101000a900473ffffffffffffffffffffffffffffffffffffffff16908060040154908060050154908060060154908060070154908060080160009054906101000a900460ff16905086565b60085481565b60008054906101000a900473ffffffffffffffffffffffffffffffffffffffff1673ffffffffffffffffffffffffffffffffffffffff163373ffffffffffffffffffffffffffffffffffffffff161461199f576040517f08c379a000000000000000000000000000000000000000000000000000000000815260040161199690612a8a565b60405180910390fd5b806000806101000a81548173ffffffffffffffffffffffffffffffffffffffff021916908373ffffffffffffffffffffffffffffffffffffffff16021790555050565b60606000601467ffffffffffffffff811115611a0157611a006127d9565b5b604051908082528060200260200182016040528015611a2f5781602001602082028036833780820191505090505b50905060005b6014811015611b4d576000600960003373ffffffffffffffffffffffffffffffffffffffff1673ffffffffffffffffffffffffffffffffffffffff1681526020019081526020016000206003016000838152602001908152602001600020600001541115611b1857600960003373ffffffffffffffffffffffffffffffffffffffff1673ffffffffffffffffffffffffffffffffffffffff168152602001908152602001600020600301600082815260200190815260200160002060010154828281518110611b0757611b06612808565b5b602002602001018181525050611b3a565b6000828281518110611b2d57611b2c612808565b5b6020026020010181815250505b8080611b4590612651565b915050611a35565b508091505090565b60045481565b60065481565b60008290506000600567ffffffffffffffff811115611b8357611b826127d9565b5b604051908082528060200260200182016040528015611bb15781602001602082028036833780820191505090505b509050674563918244f4000081600081518110611bd157611bd0612808565b5b6020026020010181815250506729a2241af62c000081600181518110611bfa57611bf9612808565b5b602002602001018181525050671bc16d674ec8000081600281518110611c2357611c22612808565b5b602002602001018181525050670de0b6b3a764000081600381518110611c4c57611c4b612808565b5b6020026020010181815250506706f05b59d3b2000081600481518110611c7557611c74612808565b5b6020026020010181815250506000670de0b6b3a764000084611c9791906126ef565b935060005b600a811015611fcd5760008103611cb65760009150611cfc565b60018103611cc75760019150611cfb565b60028103611cd85760029150611cfa565b6002811115611cea5760039150611cf9565b6007811115611cf857600491505b5b5b5b5b600073ffffffffffffffffffffffffffffffffffffffff16600960008673ffffffffffffffffffffffffffffffffffffffff1673ffffffffffffffffffffffffffffffffffffffff16815260200190815260200160002060020160009054906101000a900473ffffffffffffffffffffffffffffffffffffffff1673ffffffffffffffffffffffffffffffffffffffff1614611fb557600960008573ffffffffffffffffffffffffffffffffffffffff1673ffffffffffffffffffffffffffffffffffffffff16815260200190815260200160002060020160009054906101000a900473ffffffffffffffffffffffffffffffffffffffff169350600068056bc75e2d6310000086611e0e919061289a565b848481518110611e2157611e20612808565b5b6020026020010151611e3391906126ef565b9050600160009054906101000a900473ffffffffffffffffffffffffffffffffffffffff1673ffffffffffffffffffffffffffffffffffffffff1663a9059cbb86836040518363ffffffff1660e01b8152600401611e9292919061295d565b6020604051808303816000875af1158015611eb1573d6000803e3d6000fd5b505050506040513d601f19601f82011682018060405250810190611ed591906127ac565b5080600960008773ffffffffffffffffffffffffffffffffffffffff1673ffffffffffffffffffffffffffffffffffffffff16815260200190815260200160002060030160008481526020019081526020016000206000016000828254611f3c9190612699565b92505081905550600960008673ffffffffffffffffffffffffffffffffffffffff1673ffffffffffffffffffffffffffffffffffffffff16815260200190815260200160002060030160008381526020019081526020016000206001016000815480929190611faa90612651565b919050555050611fba565b611fcd565b8080611fc590612651565b915050611c9c565b505050505050565b6040518060a00160405280600081526020016000815260200160008152602001600081526020016000151581525090565b600081519050919050565b600082825260208201905092915050565b6000819050602082019050919050565b600073ffffffffffffffffffffffffffffffffffffffff82169050919050565b600061205d82612032565b9050919050565b61206d81612052565b82525050565b600061207f8383612064565b60208301905092915050565b6000602082019050919050565b60006120a382612006565b6120ad8185612011565b93506120b883612022565b8060005b838110156120e95781516120d08882612073565b97506120db8361208b565b9250506001810190506120bc565b5085935050505092915050565b600060208201905081810360008301526121108184612098565b905092915050565b6000819050919050565b61212b81612118565b82525050565b60006020820190506121466000830184612122565b92915050565b600080fd5b61215a81612118565b811461216557600080fd5b50565b60008135905061217781612151565b92915050565b6000602082840312156121935761219261214c565b5b60006121a184828501612168565b91505092915050565b6121b381612052565b81146121be57600080fd5b50565b6000813590506121d0816121aa565b92915050565b600080604083850312156121ed576121ec61214c565b5b60006121fb85828601612168565b925050602061220c858286016121c1565b9150509250929050565b60008115159050919050565b61222b81612216565b82525050565b60006020820190506122466000830184612222565b92915050565b600081519050919050565b600082825260208201905092915050565b6000819050602082019050919050565b61228181612118565b82525050565b61229081612216565b82525050565b60a0820160008201516122ac6000850182612278565b5060208201516122bf6020850182612278565b5060408201516122d26040850182612278565b5060608201516122e56060850182612278565b5060808201516122f86080850182612287565b50505050565b600061230a8383612296565b60a08301905092915050565b6000602082019050919050565b600061232e8261224c565b6123388185612257565b935061234383612268565b8060005b8381101561237457815161235b88826122fe565b975061236683612316565b925050600181019050612347565b5085935050505092915050565b6000602082019050818103600083015261239b8184612323565b905092915050565b6123ac81612052565b82525050565b60006020820190506123c760008301846123a3565b92915050565b600081519050919050565b600082825260208201905092915050565b6000819050602082019050919050565b60006124058383612278565b60208301905092915050565b6000602082019050919050565b6000612429826123cd565b61243381856123d8565b935061243e836123e9565b8060005b8381101561246f57815161245688826123f9565b975061246183612411565b925050600181019050612442565b5085935050505092915050565b60006020820190508181036000830152612496818461241e565b905092915050565b6000806000606084860312156124b7576124b661214c565b5b60006124c586828701612168565b93505060206124d686828701612168565b92505060406124e786828701612168565b9150509250925092565b6000602082840312156125075761250661214c565b5b6000612515848285016121c1565b91505092915050565b600060c08201905061253360008301896123a3565b6125406020830188612122565b61254d6040830187612122565b61255a6060830186612122565b6125676080830185612122565b61257460a0830184612222565b979650505050505050565b600082825260208201905092915050565b7f76616c7565206973206e6f742067726561746572207468616e2031303030302060008201527f616e64206c657373207468616e20353030303030300000000000000000000000602082015250565b60006125ec60358361257f565b91506125f782612590565b604082019050919050565b6000602082019050818103600083015261261b816125df565b9050919050565b7f4e487b7100000000000000000000000000000000000000000000000000000000600052601160045260246000fd5b600061265c82612118565b91507fffffffffffffffffffffffffffffffffffffffffffffffffffffffffffffffff820361268e5761268d612622565b5b600182019050919050565b60006126a482612118565b91506126af83612118565b9250827fffffffffffffffffffffffffffffffffffffffffffffffffffffffffffffffff038211156126e4576126e3612622565b5b828201905092915050565b60006126fa82612118565b915061270583612118565b9250817fffffffffffffffffffffffffffffffffffffffffffffffffffffffffffffffff048311821515161561273e5761273d612622565b5b828202905092915050565b600060608201905061275e60008301866123a3565b61276b60208301856123a3565b6127786040830184612122565b949350505050565b61278981612216565b811461279457600080fd5b50565b6000815190506127a681612780565b92915050565b6000602082840312156127c2576127c161214c565b5b60006127d084828501612797565b91505092915050565b7f4e487b7100000000000000000000000000000000000000000000000000000000600052604160045260246000fd5b7f4e487b7100000000000000000000000000000000000000000000000000000000600052603260045260246000fd5b600061284282612118565b915061284d83612118565b9250828210156128605761285f612622565b5b828203905092915050565b7f4e487b7100000000000000000000000000000000000000000000000000000000600052601260045260246000fd5b60006128a582612118565b91506128b083612118565b9250826128c0576128bf61286b565b5b828204905092915050565b7f796f7520646f6e74206861766520696e766573746d656e7420746f207769746860008201527f647261776e000000000000000000000000000000000000000000000000000000602082015250565b600061292760258361257f565b9150612932826128cb565b604082019050919050565b600060208201905081810360008301526129568161291a565b9050919050565b600060408201905061297260008301856123a3565b61297f6020830184612122565b9392505050565b7f796f7520646f6e742068617665207265776172647320746f207769746864726160008201527f776e000000000000000000000000000000000000000000000000000000000000602082015250565b60006129e260228361257f565b91506129ed82612986565b604082019050919050565b60006020820190508181036000830152612a11816129d5565b9050919050565b7f6f6e6c79204f776e65722063616e2063616c6c20746869732066756e6374696f60008201527f6e00000000000000000000000000000000000000000000000000000000000000602082015250565b6000612a7460218361257f565b9150612a7f82612a18565b604082019050919050565b60006020820190508181036000830152612aa381612a67565b905091905056fea2646970667358221220d5eb8b84dd9b0870abf1a689555cecc744e5484d2e45a02f07881efa4e39ef9864736f6c634300080d0033",
					"opcodes": "PUSH1 0x80 PUSH1 0x40 MSTORE PUSH20 0x63C0F4F599EFCFD747DDEA897117B5293E139BCD PUSH1 0x1 PUSH1 0x0 PUSH2 0x100 EXP DUP2 SLOAD DUP2 PUSH20 0xFFFFFFFFFFFFFFFFFFFFFFFFFFFFFFFFFFFFFFFF MUL NOT AND SWAP1 DUP4 PUSH20 0xFFFFFFFFFFFFFFFFFFFFFFFFFFFFFFFFFFFFFFFF AND MUL OR SWAP1 SSTORE POP PUSH20 0x63C0F4F599EFCFD747DDEA897117B5293E139BCD PUSH1 0x2 PUSH1 0x0 PUSH2 0x100 EXP DUP2 SLOAD DUP2 PUSH20 0xFFFFFFFFFFFFFFFFFFFFFFFFFFFFFFFFFFFFFFFF MUL NOT AND SWAP1 DUP4 PUSH20 0xFFFFFFFFFFFFFFFFFFFFFFFFFFFFFFFFFFFFFFFF AND MUL OR SWAP1 SSTORE POP PUSH8 0x6F05B59D3B20000 PUSH1 0x4 SSTORE PUSH2 0x2710 PUSH1 0x5 SSTORE PUSH3 0x4C4B40 PUSH1 0x6 SSTORE PUSH4 0x18B8200 PUSH1 0x7 SSTORE CALLVALUE DUP1 ISZERO PUSH2 0xDB JUMPI PUSH1 0x0 DUP1 REVERT JUMPDEST POP CALLER PUSH1 0x0 DUP1 PUSH2 0x100 EXP DUP2 SLOAD DUP2 PUSH20 0xFFFFFFFFFFFFFFFFFFFFFFFFFFFFFFFFFFFFFFFF MUL NOT AND SWAP1 DUP4 PUSH20 0xFFFFFFFFFFFFFFFFFFFFFFFFFFFFFFFFFFFFFFFF AND MUL OR SWAP1 SSTORE POP PUSH2 0x2AE0 DUP1 PUSH2 0x12B PUSH1 0x0 CODECOPY PUSH1 0x0 RETURN INVALID PUSH1 0x80 PUSH1 0x40 MSTORE CALLVALUE DUP1 ISZERO PUSH2 0x10 JUMPI PUSH1 0x0 DUP1 REVERT JUMPDEST POP PUSH1 0x4 CALLDATASIZE LT PUSH2 0x14D JUMPI PUSH1 0x0 CALLDATALOAD PUSH1 0xE0 SHR DUP1 PUSH4 0x8DA5CB5B GT PUSH2 0xC3 JUMPI DUP1 PUSH4 0xD3560EE8 GT PUSH2 0x7C JUMPI DUP1 PUSH4 0xD3560EE8 EQ PUSH2 0x35A JUMPI DUP1 PUSH4 0xE2033FCB EQ PUSH2 0x38F JUMPI DUP1 PUSH4 0xF2FDE38B EQ PUSH2 0x3AD JUMPI DUP1 PUSH4 0xF790B81A EQ PUSH2 0x3C9 JUMPI DUP1 PUSH4 0xF7C618C1 EQ PUSH2 0x3E7 JUMPI DUP1 PUSH4 0xFAE730BC EQ PUSH2 0x405 JUMPI PUSH2 0x14D JUMP JUMPDEST DUP1 PUSH4 0x8DA5CB5B EQ PUSH2 0x2A8 JUMPI DUP1 PUSH4 0x929F6BBE EQ PUSH2 0x2C6 JUMPI DUP1 PUSH4 0xA61BE99D EQ PUSH2 0x2E4 JUMPI DUP1 PUSH4 0xBC67EAFF EQ PUSH2 0x302 JUMPI DUP1 PUSH4 0xC885BC58 EQ PUSH2 0x320 JUMPI DUP1 PUSH4 0xCE10DB0A EQ PUSH2 0x33E JUMPI PUSH2 0x14D JUMP JUMPDEST DUP1 PUSH4 0x32D4E783 GT PUSH2 0x115 JUMPI DUP1 PUSH4 0x32D4E783 EQ PUSH2 0x1F8 JUMPI DUP1 PUSH4 0x3A1E0833 EQ PUSH2 0x214 JUMPI DUP1 PUSH4 0x3D18B912 EQ PUSH2 0x232 JUMPI DUP1 PUSH4 0x500CB85F EQ PUSH2 0x250 JUMPI DUP1 PUSH4 0x523CDDFE EQ PUSH2 0x26C JUMPI DUP1 PUSH4 0x73CF575A EQ PUSH2 0x28A JUMPI PUSH2 0x14D JUMP JUMPDEST DUP1 PUSH4 0xC5F58F4 EQ PUSH2 0x152 JUMPI DUP1 PUSH4 0x10CDE60A EQ PUSH2 0x170 JUMPI DUP1 PUSH4 0x1E8ABA35 EQ PUSH2 0x18E JUMPI DUP1 PUSH4 0x293BE456 EQ PUSH2 0x1AC JUMPI DUP1 PUSH4 0x2BCCDCE6 EQ PUSH2 0x1C8 JUMPI JUMPDEST PUSH1 0x0 DUP1 REVERT JUMPDEST PUSH2 0x15A PUSH2 0x423 JUMP JUMPDEST PUSH1 0x40 MLOAD PUSH2 0x167 SWAP2 SWAP1 PUSH2 0x20F6 JUMP JUMPDEST PUSH1 0x40 MLOAD DUP1 SWAP2 SUB SWAP1 RETURN JUMPDEST PUSH2 0x178 PUSH2 0x4F1 JUMP JUMPDEST PUSH1 0x40 MLOAD PUSH2 0x185 SWAP2 SWAP1 PUSH2 0x2131 JUMP JUMPDEST PUSH1 0x40 MLOAD DUP1 SWAP2 SUB SWAP1 RETURN JUMPDEST PUSH2 0x196 PUSH2 0x4F7 JUMP JUMPDEST PUSH1 0x40 MLOAD PUSH2 0x1A3 SWAP2 SWAP1 PUSH2 0x2131 JUMP JUMPDEST PUSH1 0x40 MLOAD DUP1 SWAP2 SUB SWAP1 RETURN JUMPDEST PUSH2 0x1C6 PUSH1 0x4 DUP1 CALLDATASIZE SUB DUP2 ADD SWAP1 PUSH2 0x1C1 SWAP2 SWAP1 PUSH2 0x217D JUMP JUMPDEST PUSH2 0x544 JUMP JUMPDEST STOP JUMPDEST PUSH2 0x1E2 PUSH1 0x4 DUP1 CALLDATASIZE SUB DUP2 ADD SWAP1 PUSH2 0x1DD SWAP2 SWAP1 PUSH2 0x21D6 JUMP JUMPDEST PUSH2 0x54E JUMP JUMPDEST PUSH1 0x40 MLOAD PUSH2 0x1EF SWAP2 SWAP1 PUSH2 0x2231 JUMP JUMPDEST PUSH1 0x40 MLOAD DUP1 SWAP2 SUB SWAP1 RETURN JUMPDEST PUSH2 0x212 PUSH1 0x4 DUP1 CALLDATASIZE SUB DUP2 ADD SWAP1 PUSH2 0x20D SWAP2 SWAP1 PUSH2 0x217D JUMP JUMPDEST PUSH2 0xC3C JUMP JUMPDEST STOP JUMPDEST PUSH2 0x21C PUSH2 0xC46 JUMP JUMPDEST PUSH1 0x40 MLOAD PUSH2 0x229 SWAP2 SWAP1 PUSH2 0x2381 JUMP JUMPDEST PUSH1 0x40 MLOAD DUP1 SWAP2 SUB SWAP1 RETURN JUMPDEST PUSH2 0x23A PUSH2 0xECD JUMP JUMPDEST PUSH1 0x40 MLOAD PUSH2 0x247 SWAP2 SWAP1 PUSH2 0x2131 JUMP JUMPDEST PUSH1 0x40 MLOAD DUP1 SWAP2 SUB SWAP1 RETURN JUMPDEST PUSH2 0x26A PUSH1 0x4 DUP1 CALLDATASIZE SUB DUP2 ADD SWAP1 PUSH2 0x265 SWAP2 SWAP1 PUSH2 0x217D JUMP JUMPDEST PUSH2 0x101D JUMP JUMPDEST STOP JUMPDEST PUSH2 0x274 PUSH2 0x1027 JUMP JUMPDEST PUSH1 0x40 MLOAD PUSH2 0x281 SWAP2 SWAP1 PUSH2 0x2131 JUMP JUMPDEST PUSH1 0x40 MLOAD DUP1 SWAP2 SUB SWAP1 RETURN JUMPDEST PUSH2 0x292 PUSH2 0x102D JUMP JUMPDEST PUSH1 0x40 MLOAD PUSH2 0x29F SWAP2 SWAP1 PUSH2 0x2231 JUMP JUMPDEST PUSH1 0x40 MLOAD DUP1 SWAP2 SUB SWAP1 RETURN JUMPDEST PUSH2 0x2B0 PUSH2 0x154F JUMP JUMPDEST PUSH1 0x40 MLOAD PUSH2 0x2BD SWAP2 SWAP1 PUSH2 0x23B2 JUMP JUMPDEST PUSH1 0x40 MLOAD DUP1 SWAP2 SUB SWAP1 RETURN JUMPDEST PUSH2 0x2CE PUSH2 0x1573 JUMP JUMPDEST PUSH1 0x40 MLOAD PUSH2 0x2DB SWAP2 SWAP1 PUSH2 0x2131 JUMP JUMPDEST PUSH1 0x40 MLOAD DUP1 SWAP2 SUB SWAP1 RETURN JUMPDEST PUSH2 0x2EC PUSH2 0x15BD JUMP JUMPDEST PUSH1 0x40 MLOAD PUSH2 0x2F9 SWAP2 SWAP1 PUSH2 0x247C JUMP JUMPDEST PUSH1 0x40 MLOAD DUP1 SWAP2 SUB SWAP1 RETURN JUMPDEST PUSH2 0x30A PUSH2 0x1730 JUMP JUMPDEST PUSH1 0x40 MLOAD PUSH2 0x317 SWAP2 SWAP1 PUSH2 0x2131 JUMP JUMPDEST PUSH1 0x40 MLOAD DUP1 SWAP2 SUB SWAP1 RETURN JUMPDEST PUSH2 0x328 PUSH2 0x1736 JUMP JUMPDEST PUSH1 0x40 MLOAD PUSH2 0x335 SWAP2 SWAP1 PUSH2 0x2231 JUMP JUMPDEST PUSH1 0x40 MLOAD DUP1 SWAP2 SUB SWAP1 RETURN JUMPDEST PUSH2 0x358 PUSH1 0x4 DUP1 CALLDATASIZE SUB DUP2 ADD SWAP1 PUSH2 0x353 SWAP2 SWAP1 PUSH2 0x249E JUMP JUMPDEST PUSH2 0x1888 JUMP JUMPDEST STOP JUMPDEST PUSH2 0x374 PUSH1 0x4 DUP1 CALLDATASIZE SUB DUP2 ADD SWAP1 PUSH2 0x36F SWAP2 SWAP1 PUSH2 0x24F1 JUMP JUMPDEST PUSH2 0x18A2 JUMP JUMPDEST PUSH1 0x40 MLOAD PUSH2 0x386 SWAP7 SWAP6 SWAP5 SWAP4 SWAP3 SWAP2 SWAP1 PUSH2 0x251E JUMP JUMPDEST PUSH1 0x40 MLOAD DUP1 SWAP2 SUB SWAP1 RETURN JUMPDEST PUSH2 0x397 PUSH2 0x190B JUMP JUMPDEST PUSH1 0x40 MLOAD PUSH2 0x3A4 SWAP2 SWAP1 PUSH2 0x2131 JUMP JUMPDEST PUSH1 0x40 MLOAD DUP1 SWAP2 SUB SWAP1 RETURN JUMPDEST PUSH2 0x3C7 PUSH1 0x4 DUP1 CALLDATASIZE SUB DUP2 ADD SWAP1 PUSH2 0x3C2 SWAP2 SWAP1 PUSH2 0x24F1 JUMP JUMPDEST PUSH2 0x1911 JUMP JUMPDEST STOP JUMPDEST PUSH2 0x3D1 PUSH2 0x19E2 JUMP JUMPDEST PUSH1 0x40 MLOAD PUSH2 0x3DE SWAP2 SWAP1 PUSH2 0x247C JUMP JUMPDEST PUSH1 0x40 MLOAD DUP1 SWAP2 SUB SWAP1 RETURN JUMPDEST PUSH2 0x3EF PUSH2 0x1B55 JUMP JUMPDEST PUSH1 0x40 MLOAD PUSH2 0x3FC SWAP2 SWAP1 PUSH2 0x2131 JUMP JUMPDEST PUSH1 0x40 MLOAD DUP1 SWAP2 SUB SWAP1 RETURN JUMPDEST PUSH2 0x40D PUSH2 0x1B5B JUMP JUMPDEST PUSH1 0x40 MLOAD PUSH2 0x41A SWAP2 SWAP1 PUSH2 0x2131 JUMP JUMPDEST PUSH1 0x40 MLOAD DUP1 SWAP2 SUB SWAP1 RETURN JUMPDEST PUSH1 0x60 PUSH1 0x9 PUSH1 0x0 CALLER PUSH20 0xFFFFFFFFFFFFFFFFFFFFFFFFFFFFFFFFFFFFFFFF AND PUSH20 0xFFFFFFFFFFFFFFFFFFFFFFFFFFFFFFFFFFFFFFFF AND DUP2 MSTORE PUSH1 0x20 ADD SWAP1 DUP2 MSTORE PUSH1 0x20 ADD PUSH1 0x0 KECCAK256 PUSH1 0x1 ADD DUP1 SLOAD DUP1 PUSH1 0x20 MUL PUSH1 0x20 ADD PUSH1 0x40 MLOAD SWAP1 DUP2 ADD PUSH1 0x40 MSTORE DUP1 SWAP3 SWAP2 SWAP1 DUP2 DUP2 MSTORE PUSH1 0x20 ADD DUP3 DUP1 SLOAD DUP1 ISZERO PUSH2 0x4E7 JUMPI PUSH1 0x20 MUL DUP3 ADD SWAP2 SWAP1 PUSH1 0x0 MSTORE PUSH1 0x20 PUSH1 0x0 KECCAK256 SWAP1 JUMPDEST DUP2 PUSH1 0x0 SWAP1 SLOAD SWAP1 PUSH2 0x100 EXP SWAP1 DIV PUSH20 0xFFFFFFFFFFFFFFFFFFFFFFFFFFFFFFFFFFFFFFFF AND PUSH20 0xFFFFFFFFFFFFFFFFFFFFFFFFFFFFFFFFFFFFFFFF AND DUP2 MSTORE PUSH1 0x20 ADD SWAP1 PUSH1 0x1 ADD SWAP1 DUP1 DUP4 GT PUSH2 0x49D JUMPI JUMPDEST POP POP POP POP POP SWAP1 POP SWAP1 JUMP JUMPDEST PUSH1 0x3 SLOAD DUP2 JUMP JUMPDEST PUSH1 0x0 PUSH1 0x9 PUSH1 0x0 CALLER PUSH20 0xFFFFFFFFFFFFFFFFFFFFFFFFFFFFFFFFFFFFFFFF AND PUSH20 0xFFFFFFFFFFFFFFFFFFFFFFFFFFFFFFFFFFFFFFFF AND DUP2 MSTORE PUSH1 0x20 ADD SWAP1 DUP2 MSTORE PUSH1 0x20 ADD PUSH1 0x0 KECCAK256 PUSH1 0x1 ADD DUP1 SLOAD SWAP1 POP SWAP1 POP SWAP1 JUMP JUMPDEST DUP1 PUSH1 0x4 DUP2 SWAP1 SSTORE POP POP JUMP JUMPDEST PUSH1 0x0 PUSH1 0x5 SLOAD DUP4 LT ISZERO DUP1 ISZERO PUSH2 0x564 JUMPI POP PUSH1 0x6 SLOAD DUP4 GT ISZERO JUMPDEST PUSH2 0x5A3 JUMPI PUSH1 0x40 MLOAD PUSH32 0x8C379A000000000000000000000000000000000000000000000000000000000 DUP2 MSTORE PUSH1 0x4 ADD PUSH2 0x59A SWAP1 PUSH2 0x2602 JUMP JUMPDEST PUSH1 0x40 MLOAD DUP1 SWAP2 SUB SWAP1 REVERT JUMPDEST PUSH1 0x0 ISZERO ISZERO PUSH1 0x9 PUSH1 0x0 CALLER PUSH20 0xFFFFFFFFFFFFFFFFFFFFFFFFFFFFFFFFFFFFFFFF AND PUSH20 0xFFFFFFFFFFFFFFFFFFFFFFFFFFFFFFFFFFFFFFFF AND DUP2 MSTORE PUSH1 0x20 ADD SWAP1 DUP2 MSTORE PUSH1 0x20 ADD PUSH1 0x0 KECCAK256 PUSH1 0x8 ADD PUSH1 0x0 SWAP1 SLOAD SWAP1 PUSH2 0x100 EXP SWAP1 DIV PUSH1 0xFF AND ISZERO ISZERO SUB PUSH2 0x617 JUMPI PUSH1 0x3 PUSH1 0x0 DUP2 SLOAD DUP1 SWAP3 SWAP2 SWAP1 PUSH2 0x611 SWAP1 PUSH2 0x2651 JUMP JUMPDEST SWAP2 SWAP1 POP SSTORE POP JUMPDEST PUSH1 0x0 PUSH1 0x9 PUSH1 0x0 CALLER PUSH20 0xFFFFFFFFFFFFFFFFFFFFFFFFFFFFFFFFFFFFFFFF AND PUSH20 0xFFFFFFFFFFFFFFFFFFFFFFFFFFFFFFFFFFFFFFFF AND DUP2 MSTORE PUSH1 0x20 ADD SWAP1 DUP2 MSTORE PUSH1 0x20 ADD PUSH1 0x0 KECCAK256 PUSH1 0x5 ADD SLOAD SWAP1 POP DUP4 PUSH1 0x9 PUSH1 0x0 CALLER PUSH20 0xFFFFFFFFFFFFFFFFFFFFFFFFFFFFFFFFFFFFFFFF AND PUSH20 0xFFFFFFFFFFFFFFFFFFFFFFFFFFFFFFFFFFFFFFFF AND DUP2 MSTORE PUSH1 0x20 ADD SWAP1 DUP2 MSTORE PUSH1 0x20 ADD PUSH1 0x0 KECCAK256 PUSH1 0x0 ADD PUSH1 0x0 DUP4 DUP2 MSTORE PUSH1 0x20 ADD SWAP1 DUP2 MSTORE PUSH1 0x20 ADD PUSH1 0x0 KECCAK256 PUSH1 0x0 ADD DUP2 SWAP1 SSTORE POP TIMESTAMP PUSH1 0x9 PUSH1 0x0 CALLER PUSH20 0xFFFFFFFFFFFFFFFFFFFFFFFFFFFFFFFFFFFFFFFF AND PUSH20 0xFFFFFFFFFFFFFFFFFFFFFFFFFFFFFFFFFFFFFFFF AND DUP2 MSTORE PUSH1 0x20 ADD SWAP1 DUP2 MSTORE PUSH1 0x20 ADD PUSH1 0x0 KECCAK256 PUSH1 0x0 ADD PUSH1 0x0 DUP4 DUP2 MSTORE PUSH1 0x20 ADD SWAP1 DUP2 MSTORE PUSH1 0x20 ADD PUSH1 0x0 KECCAK256 PUSH1 0x2 ADD DUP2 SWAP1 SSTORE POP PUSH1 0x7 SLOAD TIMESTAMP PUSH2 0x722 SWAP2 SWAP1 PUSH2 0x2699 JUMP JUMPDEST PUSH1 0x9 PUSH1 0x0 CALLER PUSH20 0xFFFFFFFFFFFFFFFFFFFFFFFFFFFFFFFFFFFFFFFF AND PUSH20 0xFFFFFFFFFFFFFFFFFFFFFFFFFFFFFFFFFFFFFFFF AND DUP2 MSTORE PUSH1 0x20 ADD SWAP1 DUP2 MSTORE PUSH1 0x20 ADD PUSH1 0x0 KECCAK256 PUSH1 0x0 ADD PUSH1 0x0 DUP4 DUP2 MSTORE PUSH1 0x20 ADD SWAP1 DUP2 MSTORE PUSH1 0x20 ADD PUSH1 0x0 KECCAK256 PUSH1 0x1 ADD DUP2 SWAP1 SSTORE POP DUP1 PUSH1 0x9 PUSH1 0x0 CALLER PUSH20 0xFFFFFFFFFFFFFFFFFFFFFFFFFFFFFFFFFFFFFFFF AND PUSH20 0xFFFFFFFFFFFFFFFFFFFFFFFFFFFFFFFFFFFFFFFF AND DUP2 MSTORE PUSH1 0x20 ADD SWAP1 DUP2 MSTORE PUSH1 0x20 ADD PUSH1 0x0 KECCAK256 PUSH1 0x0 ADD PUSH1 0x0 DUP4 DUP2 MSTORE PUSH1 0x20 ADD SWAP1 DUP2 MSTORE PUSH1 0x20 ADD PUSH1 0x0 KECCAK256 PUSH1 0x3 ADD DUP2 SWAP1 SSTORE POP DUP4 PUSH1 0x9 PUSH1 0x0 CALLER PUSH20 0xFFFFFFFFFFFFFFFFFFFFFFFFFFFFFFFFFFFFFFFF AND PUSH20 0xFFFFFFFFFFFFFFFFFFFFFFFFFFFFFFFFFFFFFFFF AND DUP2 MSTORE PUSH1 0x20 ADD SWAP1 DUP2 MSTORE PUSH1 0x20 ADD PUSH1 0x0 KECCAK256 PUSH1 0x6 ADD PUSH1 0x0 DUP3 DUP3 SLOAD PUSH2 0x829 SWAP2 SWAP1 PUSH2 0x2699 JUMP JUMPDEST SWAP3 POP POP DUP2 SWAP1 SSTORE POP PUSH1 0x9 PUSH1 0x0 CALLER PUSH20 0xFFFFFFFFFFFFFFFFFFFFFFFFFFFFFFFFFFFFFFFF AND PUSH20 0xFFFFFFFFFFFFFFFFFFFFFFFFFFFFFFFFFFFFFFFF AND DUP2 MSTORE PUSH1 0x20 ADD SWAP1 DUP2 MSTORE PUSH1 0x20 ADD PUSH1 0x0 KECCAK256 PUSH1 0x5 ADD PUSH1 0x0 DUP2 SLOAD DUP1 SWAP3 SWAP2 SWAP1 PUSH2 0x883 SWAP1 PUSH2 0x2651 JUMP JUMPDEST SWAP2 SWAP1 POP SSTORE POP DUP4 PUSH1 0x8 PUSH1 0x0 DUP3 DUP3 SLOAD PUSH2 0x89A SWAP2 SWAP1 PUSH2 0x2699 JUMP JUMPDEST SWAP3 POP POP DUP2 SWAP1 SSTORE POP PUSH1 0x1 PUSH1 0x0 SWAP1 SLOAD SWAP1 PUSH2 0x100 EXP SWAP1 DIV PUSH20 0xFFFFFFFFFFFFFFFFFFFFFFFFFFFFFFFFFFFFFFFF AND PUSH20 0xFFFFFFFFFFFFFFFFFFFFFFFFFFFFFFFFFFFFFFFF AND PUSH4 0x23B872DD CALLER ADDRESS PUSH8 0xDE0B6B3A7640000 DUP9 PUSH2 0x8F5 SWAP2 SWAP1 PUSH2 0x26EF JUMP JUMPDEST PUSH1 0x40 MLOAD DUP5 PUSH4 0xFFFFFFFF AND PUSH1 0xE0 SHL DUP2 MSTORE PUSH1 0x4 ADD PUSH2 0x913 SWAP4 SWAP3 SWAP2 SWAP1 PUSH2 0x2749 JUMP JUMPDEST PUSH1 0x20 PUSH1 0x40 MLOAD DUP1 DUP4 SUB DUP2 PUSH1 0x0 DUP8 GAS CALL ISZERO DUP1 ISZERO PUSH2 0x932 JUMPI RETURNDATASIZE PUSH1 0x0 DUP1 RETURNDATACOPY RETURNDATASIZE PUSH1 0x0 REVERT JUMPDEST POP POP POP POP PUSH1 0x40 MLOAD RETURNDATASIZE PUSH1 0x1F NOT PUSH1 0x1F DUP3 ADD AND DUP3 ADD DUP1 PUSH1 0x40 MSTORE POP DUP2 ADD SWAP1 PUSH2 0x956 SWAP2 SWAP1 PUSH2 0x27AC JUMP JUMPDEST POP PUSH1 0x0 PUSH20 0xFFFFFFFFFFFFFFFFFFFFFFFFFFFFFFFFFFFFFFFF AND DUP4 PUSH20 0xFFFFFFFFFFFFFFFFFFFFFFFFFFFFFFFFFFFFFFFF AND EQ DUP1 PUSH2 0x9BD JUMPI POP CALLER PUSH20 0xFFFFFFFFFFFFFFFFFFFFFFFFFFFFFFFFFFFFFFFF AND DUP4 PUSH20 0xFFFFFFFFFFFFFFFFFFFFFFFFFFFFFFFFFFFFFFFF AND EQ JUMPDEST DUP1 PUSH2 0xA1B JUMPI POP PUSH1 0x1 ISZERO ISZERO PUSH1 0x9 PUSH1 0x0 CALLER PUSH20 0xFFFFFFFFFFFFFFFFFFFFFFFFFFFFFFFFFFFFFFFF AND PUSH20 0xFFFFFFFFFFFFFFFFFFFFFFFFFFFFFFFFFFFFFFFF AND DUP2 MSTORE PUSH1 0x20 ADD SWAP1 DUP2 MSTORE PUSH1 0x20 ADD PUSH1 0x0 KECCAK256 PUSH1 0x8 ADD PUSH1 0x0 SWAP1 SLOAD SWAP1 PUSH2 0x100 EXP SWAP1 DIV PUSH1 0xFF AND ISZERO ISZERO EQ JUMPDEST ISZERO PUSH2 0xAA7 JUMPI PUSH1 0x0 PUSH1 0x9 PUSH1 0x0 CALLER PUSH20 0xFFFFFFFFFFFFFFFFFFFFFFFFFFFFFFFFFFFFFFFF AND PUSH20 0xFFFFFFFFFFFFFFFFFFFFFFFFFFFFFFFFFFFFFFFF AND DUP2 MSTORE PUSH1 0x20 ADD SWAP1 DUP2 MSTORE PUSH1 0x20 ADD PUSH1 0x0 KECCAK256 PUSH1 0x2 ADD PUSH1 0x0 PUSH2 0x100 EXP DUP2 SLOAD DUP2 PUSH20 0xFFFFFFFFFFFFFFFFFFFFFFFFFFFFFFFFFFFFFFFF MUL NOT AND SWAP1 DUP4 PUSH20 0xFFFFFFFFFFFFFFFFFFFFFFFFFFFFFFFFFFFFFFFF AND MUL OR SWAP1 SSTORE POP PUSH2 0xBD6 JUMP JUMPDEST DUP3 PUSH1 0x9 PUSH1 0x0 CALLER PUSH20 0xFFFFFFFFFFFFFFFFFFFFFFFFFFFFFFFFFFFFFFFF AND PUSH20 0xFFFFFFFFFFFFFFFFFFFFFFFFFFFFFFFFFFFFFFFF AND DUP2 MSTORE PUSH1 0x20 ADD SWAP1 DUP2 MSTORE PUSH1 0x20 ADD PUSH1 0x0 KECCAK256 PUSH1 0x2 ADD PUSH1 0x0 PUSH2 0x100 EXP DUP2 SLOAD DUP2 PUSH20 0xFFFFFFFFFFFFFFFFFFFFFFFFFFFFFFFFFFFFFFFF MUL NOT AND SWAP1 DUP4 PUSH20 0xFFFFFFFFFFFFFFFFFFFFFFFFFFFFFFFFFFFFFFFF AND MUL OR SWAP1 SSTORE POP PUSH1 0x9 PUSH1 0x0 DUP5 PUSH20 0xFFFFFFFFFFFFFFFFFFFFFFFFFFFFFFFFFFFFFFFF AND PUSH20 0xFFFFFFFFFFFFFFFFFFFFFFFFFFFFFFFFFFFFFFFF AND DUP2 MSTORE PUSH1 0x20 ADD SWAP1 DUP2 MSTORE PUSH1 0x20 ADD PUSH1 0x0 KECCAK256 PUSH1 0x1 ADD CALLER SWAP1 DUP1 PUSH1 0x1 DUP2 SLOAD ADD DUP1 DUP3 SSTORE DUP1 SWAP2 POP POP PUSH1 0x1 SWAP1 SUB SWAP1 PUSH1 0x0 MSTORE PUSH1 0x20 PUSH1 0x0 KECCAK256 ADD PUSH1 0x0 SWAP1 SWAP2 SWAP1 SWAP2 SWAP1 SWAP2 PUSH2 0x100 EXP DUP2 SLOAD DUP2 PUSH20 0xFFFFFFFFFFFFFFFFFFFFFFFFFFFFFFFFFFFFFFFF MUL NOT AND SWAP1 DUP4 PUSH20 0xFFFFFFFFFFFFFFFFFFFFFFFFFFFFFFFFFFFFFFFF AND MUL OR SWAP1 SSTORE POP PUSH2 0xBD5 CALLER DUP6 PUSH2 0x1B61 JUMP JUMPDEST JUMPDEST PUSH1 0x1 PUSH1 0x9 PUSH1 0x0 CALLER PUSH20 0xFFFFFFFFFFFFFFFFFFFFFFFFFFFFFFFFFFFFFFFF AND PUSH20 0xFFFFFFFFFFFFFFFFFFFFFFFFFFFFFFFFFFFFFFFF AND DUP2 MSTORE PUSH1 0x20 ADD SWAP1 DUP2 MSTORE PUSH1 0x20 ADD PUSH1 0x0 KECCAK256 PUSH1 0x8 ADD PUSH1 0x0 PUSH2 0x100 EXP DUP2 SLOAD DUP2 PUSH1 0xFF MUL NOT AND SWAP1 DUP4 ISZERO ISZERO MUL OR SWAP1 SSTORE POP PUSH1 0x1 SWAP2 POP POP SWAP3 SWAP2 POP POP JUMP JUMPDEST DUP1 PUSH1 0x5 DUP2 SWAP1 SSTORE POP POP JUMP JUMPDEST PUSH1 0x60 PUSH1 0x0 PUSH1 0x9 PUSH1 0x0 CALLER PUSH20 0xFFFFFFFFFFFFFFFFFFFFFFFFFFFFFFFFFFFFFFFF AND PUSH20 0xFFFFFFFFFFFFFFFFFFFFFFFFFFFFFFFFFFFFFFFF AND DUP2 MSTORE PUSH1 0x20 ADD SWAP1 DUP2 MSTORE PUSH1 0x20 ADD PUSH1 0x0 KECCAK256 PUSH1 0x5 ADD SLOAD SWAP1 POP PUSH1 0x0 DUP1 PUSH1 0x0 JUMPDEST DUP4 DUP2 LT ISZERO PUSH2 0xD1E JUMPI PUSH1 0x0 PUSH1 0x9 PUSH1 0x0 CALLER PUSH20 0xFFFFFFFFFFFFFFFFFFFFFFFFFFFFFFFFFFFFFFFF AND PUSH20 0xFFFFFFFFFFFFFFFFFFFFFFFFFFFFFFFFFFFFFFFF AND DUP2 MSTORE PUSH1 0x20 ADD SWAP1 DUP2 MSTORE PUSH1 0x20 ADD PUSH1 0x0 KECCAK256 PUSH1 0x0 ADD PUSH1 0x0 DUP4 DUP2 MSTORE PUSH1 0x20 ADD SWAP1 DUP2 MSTORE PUSH1 0x20 ADD PUSH1 0x0 KECCAK256 PUSH1 0x0 ADD SLOAD GT ISZERO PUSH2 0xD0B JUMPI DUP3 DUP1 PUSH2 0xD07 SWAP1 PUSH2 0x2651 JUMP JUMPDEST SWAP4 POP POP JUMPDEST DUP1 DUP1 PUSH2 0xD16 SWAP1 PUSH2 0x2651 JUMP JUMPDEST SWAP2 POP POP PUSH2 0xC95 JUMP JUMPDEST POP PUSH1 0x0 DUP3 PUSH8 0xFFFFFFFFFFFFFFFF DUP2 GT ISZERO PUSH2 0xD3B JUMPI PUSH2 0xD3A PUSH2 0x27D9 JUMP JUMPDEST JUMPDEST PUSH1 0x40 MLOAD SWAP1 DUP1 DUP3 MSTORE DUP1 PUSH1 0x20 MUL PUSH1 0x20 ADD DUP3 ADD PUSH1 0x40 MSTORE DUP1 ISZERO PUSH2 0xD74 JUMPI DUP2 PUSH1 0x20 ADD JUMPDEST PUSH2 0xD61 PUSH2 0x1FD5 JUMP JUMPDEST DUP2 MSTORE PUSH1 0x20 ADD SWAP1 PUSH1 0x1 SWAP1 SUB SWAP1 DUP2 PUSH2 0xD59 JUMPI SWAP1 POP JUMPDEST POP SWAP1 POP PUSH1 0x0 JUMPDEST DUP5 DUP2 LT ISZERO PUSH2 0xEC2 JUMPI PUSH1 0x0 PUSH1 0x9 PUSH1 0x0 CALLER PUSH20 0xFFFFFFFFFFFFFFFFFFFFFFFFFFFFFFFFFFFFFFFF AND PUSH20 0xFFFFFFFFFFFFFFFFFFFFFFFFFFFFFFFFFFFFFFFF AND DUP2 MSTORE PUSH1 0x20 ADD SWAP1 DUP2 MSTORE PUSH1 0x20 ADD PUSH1 0x0 KECCAK256 PUSH1 0x0 ADD PUSH1 0x0 DUP4 DUP2 MSTORE PUSH1 0x20 ADD SWAP1 DUP2 MSTORE PUSH1 0x20 ADD PUSH1 0x0 KECCAK256 PUSH1 0x0 ADD SLOAD GT ISZERO PUSH2 0xEAF JUMPI PUSH1 0x9 PUSH1 0x0 CALLER PUSH20 0xFFFFFFFFFFFFFFFFFFFFFFFFFFFFFFFFFFFFFFFF AND PUSH20 0xFFFFFFFFFFFFFFFFFFFFFFFFFFFFFFFFFFFFFFFF AND DUP2 MSTORE PUSH1 0x20 ADD SWAP1 DUP2 MSTORE PUSH1 0x20 ADD PUSH1 0x0 KECCAK256 PUSH1 0x0 ADD PUSH1 0x0 DUP3 DUP2 MSTORE PUSH1 0x20 ADD SWAP1 DUP2 MSTORE PUSH1 0x20 ADD PUSH1 0x0 KECCAK256 PUSH1 0x40 MLOAD DUP1 PUSH1 0xA0 ADD PUSH1 0x40 MSTORE SWAP1 DUP2 PUSH1 0x0 DUP3 ADD SLOAD DUP2 MSTORE PUSH1 0x20 ADD PUSH1 0x1 DUP3 ADD SLOAD DUP2 MSTORE PUSH1 0x20 ADD PUSH1 0x2 DUP3 ADD SLOAD DUP2 MSTORE PUSH1 0x20 ADD PUSH1 0x3 DUP3 ADD SLOAD DUP2 MSTORE PUSH1 0x20 ADD PUSH1 0x4 DUP3 ADD PUSH1 0x0 SWAP1 SLOAD SWAP1 PUSH2 0x100 EXP SWAP1 DIV PUSH1 0xFF AND ISZERO ISZERO ISZERO ISZERO DUP2 MSTORE POP POP DUP3 DUP5 DUP2 MLOAD DUP2 LT PUSH2 0xE95 JUMPI PUSH2 0xE94 PUSH2 0x2808 JUMP JUMPDEST JUMPDEST PUSH1 0x20 MUL PUSH1 0x20 ADD ADD DUP2 SWAP1 MSTORE POP DUP3 DUP1 PUSH2 0xEAB SWAP1 PUSH2 0x2651 JUMP JUMPDEST SWAP4 POP POP JUMPDEST DUP1 DUP1 PUSH2 0xEBA SWAP1 PUSH2 0x2651 JUMP JUMPDEST SWAP2 POP POP PUSH2 0xD7A JUMP JUMPDEST POP DUP1 SWAP5 POP POP POP POP POP SWAP1 JUMP JUMPDEST PUSH1 0x0 DUP1 PUSH1 0x0 DUP1 PUSH1 0x9 PUSH1 0x0 CALLER PUSH20 0xFFFFFFFFFFFFFFFFFFFFFFFFFFFFFFFFFFFFFFFF AND PUSH20 0xFFFFFFFFFFFFFFFFFFFFFFFFFFFFFFFFFFFFFFFF AND DUP2 MSTORE PUSH1 0x20 ADD SWAP1 DUP2 MSTORE PUSH1 0x20 ADD PUSH1 0x0 KECCAK256 PUSH1 0x5 ADD SLOAD SWAP1 POP PUSH1 0x0 JUMPDEST DUP2 DUP2 LT ISZERO PUSH2 0x1013 JUMPI PUSH1 0x9 PUSH1 0x0 CALLER PUSH20 0xFFFFFFFFFFFFFFFFFFFFFFFFFFFFFFFFFFFFFFFF AND PUSH20 0xFFFFFFFFFFFFFFFFFFFFFFFFFFFFFFFFFFFFFFFF AND DUP2 MSTORE PUSH1 0x20 ADD SWAP1 DUP2 MSTORE PUSH1 0x20 ADD PUSH1 0x0 KECCAK256 PUSH1 0x0 ADD PUSH1 0x0 DUP3 DUP2 MSTORE PUSH1 0x20 ADD SWAP1 DUP2 MSTORE PUSH1 0x20 ADD PUSH1 0x0 KECCAK256 PUSH1 0x2 ADD SLOAD TIMESTAMP PUSH2 0xF85 SWAP2 SWAP1 PUSH2 0x2837 JUMP JUMPDEST SWAP3 POP PUSH1 0x3C DUP4 PUSH2 0xF94 SWAP2 SWAP1 PUSH2 0x289A JUMP JUMPDEST SWAP3 POP PUSH1 0x0 DUP4 GT ISZERO PUSH2 0xFB0 JUMPI PUSH1 0x4 SLOAD DUP4 PUSH2 0xFAD SWAP2 SWAP1 PUSH2 0x26EF JUMP JUMPDEST SWAP4 POP JUMPDEST PUSH1 0x9 PUSH1 0x0 CALLER PUSH20 0xFFFFFFFFFFFFFFFFFFFFFFFFFFFFFFFFFFFFFFFF AND PUSH20 0xFFFFFFFFFFFFFFFFFFFFFFFFFFFFFFFFFFFFFFFF AND DUP2 MSTORE PUSH1 0x20 ADD SWAP1 DUP2 MSTORE PUSH1 0x20 ADD PUSH1 0x0 KECCAK256 PUSH1 0x7 ADD SLOAD DUP5 PUSH2 0xFFE SWAP2 SWAP1 PUSH2 0x2837 JUMP JUMPDEST SWAP4 POP DUP1 DUP1 PUSH2 0x100B SWAP1 PUSH2 0x2651 JUMP JUMPDEST SWAP2 POP POP PUSH2 0xF1B JUMP JUMPDEST POP DUP3 SWAP4 POP POP POP POP SWAP1 JUMP JUMPDEST DUP1 PUSH1 0x6 DUP2 SWAP1 SSTORE POP POP JUMP JUMPDEST PUSH1 0x7 SLOAD DUP2 JUMP JUMPDEST PUSH1 0x0 DUP1 PUSH1 0x9 PUSH1 0x0 CALLER PUSH20 0xFFFFFFFFFFFFFFFFFFFFFFFFFFFFFFFFFFFFFFFF AND PUSH20 0xFFFFFFFFFFFFFFFFFFFFFFFFFFFFFFFFFFFFFFFF AND DUP2 MSTORE PUSH1 0x20 ADD SWAP1 DUP2 MSTORE PUSH1 0x20 ADD PUSH1 0x0 KECCAK256 PUSH1 0x6 ADD SLOAD GT PUSH2 0x10B3 JUMPI PUSH1 0x40 MLOAD PUSH32 0x8C379A000000000000000000000000000000000000000000000000000000000 DUP2 MSTORE PUSH1 0x4 ADD PUSH2 0x10AA SWAP1 PUSH2 0x293D JUMP JUMPDEST PUSH1 0x40 MLOAD DUP1 SWAP2 SUB SWAP1 REVERT JUMPDEST PUSH1 0x0 PUSH1 0x9 PUSH1 0x0 CALLER PUSH20 0xFFFFFFFFFFFFFFFFFFFFFFFFFFFFFFFFFFFFFFFF AND PUSH20 0xFFFFFFFFFFFFFFFFFFFFFFFFFFFFFFFFFFFFFFFF AND DUP2 MSTORE PUSH1 0x20 ADD SWAP1 DUP2 MSTORE PUSH1 0x20 ADD PUSH1 0x0 KECCAK256 PUSH1 0x6 ADD SLOAD SWAP1 POP PUSH1 0x0 PUSH1 0x9 PUSH1 0x0 CALLER PUSH20 0xFFFFFFFFFFFFFFFFFFFFFFFFFFFFFFFFFFFFFFFF AND PUSH20 0xFFFFFFFFFFFFFFFFFFFFFFFFFFFFFFFFFFFFFFFF AND DUP2 MSTORE PUSH1 0x20 ADD SWAP1 DUP2 MSTORE PUSH1 0x20 ADD PUSH1 0x0 KECCAK256 PUSH1 0x5 ADD SLOAD SWAP1 POP PUSH1 0x0 DUP1 PUSH1 0x0 PUSH1 0x9 PUSH1 0x0 CALLER PUSH20 0xFFFFFFFFFFFFFFFFFFFFFFFFFFFFFFFFFFFFFFFF AND PUSH20 0xFFFFFFFFFFFFFFFFFFFFFFFFFFFFFFFFFFFFFFFF AND DUP2 MSTORE PUSH1 0x20 ADD SWAP1 DUP2 MSTORE PUSH1 0x20 ADD PUSH1 0x0 KECCAK256 PUSH1 0x5 ADD SLOAD SWAP1 POP TIMESTAMP PUSH1 0x9 PUSH1 0x0 CALLER PUSH20 0xFFFFFFFFFFFFFFFFFFFFFFFFFFFFFFFFFFFFFFFF AND PUSH20 0xFFFFFFFFFFFFFFFFFFFFFFFFFFFFFFFFFFFFFFFF AND DUP2 MSTORE PUSH1 0x20 ADD SWAP1 DUP2 MSTORE PUSH1 0x20 ADD PUSH1 0x0 KECCAK256 PUSH1 0x0 ADD PUSH1 0x0 PUSH1 0x1 DUP5 PUSH2 0x11DD SWAP2 SWAP1 PUSH2 0x2837 JUMP JUMPDEST DUP2 MSTORE PUSH1 0x20 ADD SWAP1 DUP2 MSTORE PUSH1 0x20 ADD PUSH1 0x0 KECCAK256 PUSH1 0x1 ADD SLOAD GT ISZERO PUSH2 0x13B8 JUMPI PUSH1 0x1E PUSH1 0x64 DUP7 PUSH2 0x1204 SWAP2 SWAP1 PUSH2 0x289A JUMP JUMPDEST PUSH2 0x120E SWAP2 SWAP1 PUSH2 0x26EF JUMP JUMPDEST SWAP3 POP PUSH1 0x46 PUSH1 0x64 DUP7 PUSH2 0x121F SWAP2 SWAP1 PUSH2 0x289A JUMP JUMPDEST PUSH2 0x1229 SWAP2 SWAP1 PUSH2 0x26EF JUMP JUMPDEST SWAP2 POP PUSH1 0x1 PUSH1 0x0 SWAP1 SLOAD SWAP1 PUSH2 0x100 EXP SWAP1 DIV PUSH20 0xFFFFFFFFFFFFFFFFFFFFFFFFFFFFFFFFFFFFFFFF AND PUSH20 0xFFFFFFFFFFFFFFFFFFFFFFFFFFFFFFFFFFFFFFFF AND PUSH4 0xA9059CBB CALLER PUSH8 0xDE0B6B3A7640000 DUP7 PUSH2 0x127E SWAP2 SWAP1 PUSH2 0x26EF JUMP JUMPDEST PUSH1 0x40 MLOAD DUP4 PUSH4 0xFFFFFFFF AND PUSH1 0xE0 SHL DUP2 MSTORE PUSH1 0x4 ADD PUSH2 0x129B SWAP3 SWAP2 SWAP1 PUSH2 0x295D JUMP JUMPDEST PUSH1 0x20 PUSH1 0x40 MLOAD DUP1 DUP4 SUB DUP2 PUSH1 0x0 DUP8 GAS CALL ISZERO DUP1 ISZERO PUSH2 0x12BA JUMPI RETURNDATASIZE PUSH1 0x0 DUP1 RETURNDATACOPY RETURNDATASIZE PUSH1 0x0 REVERT JUMPDEST POP POP POP POP PUSH1 0x40 MLOAD RETURNDATASIZE PUSH1 0x1F NOT PUSH1 0x1F DUP3 ADD AND DUP3 ADD DUP1 PUSH1 0x40 MSTORE POP DUP2 ADD SWAP1 PUSH2 0x12DE SWAP2 SWAP1 PUSH2 0x27AC JUMP JUMPDEST POP PUSH1 0x1 PUSH1 0x0 SWAP1 SLOAD SWAP1 PUSH2 0x100 EXP SWAP1 DIV PUSH20 0xFFFFFFFFFFFFFFFFFFFFFFFFFFFFFFFFFFFFFFFF AND PUSH20 0xFFFFFFFFFFFFFFFFFFFFFFFFFFFFFFFFFFFFFFFF AND PUSH4 0xA9059CBB PUSH1 0x0 DUP1 SLOAD SWAP1 PUSH2 0x100 EXP SWAP1 DIV PUSH20 0xFFFFFFFFFFFFFFFFFFFFFFFFFFFFFFFFFFFFFFFF AND PUSH8 0xDE0B6B3A7640000 DUP6 PUSH2 0x1352 SWAP2 SWAP1 PUSH2 0x26EF JUMP JUMPDEST PUSH1 0x40 MLOAD DUP4 PUSH4 0xFFFFFFFF AND PUSH1 0xE0 SHL DUP2 MSTORE PUSH1 0x4 ADD PUSH2 0x136F SWAP3 SWAP2 SWAP1 PUSH2 0x295D JUMP JUMPDEST PUSH1 0x20 PUSH1 0x40 MLOAD DUP1 DUP4 SUB DUP2 PUSH1 0x0 DUP8 GAS CALL ISZERO DUP1 ISZERO PUSH2 0x138E JUMPI RETURNDATASIZE PUSH1 0x0 DUP1 RETURNDATACOPY RETURNDATASIZE PUSH1 0x0 REVERT JUMPDEST POP POP POP POP PUSH1 0x40 MLOAD RETURNDATASIZE PUSH1 0x1F NOT PUSH1 0x1F DUP3 ADD AND DUP3 ADD DUP1 PUSH1 0x40 MSTORE POP DUP2 ADD SWAP1 PUSH2 0x13B2 SWAP2 SWAP1 PUSH2 0x27AC JUMP JUMPDEST POP PUSH2 0x146D JUMP JUMPDEST PUSH1 0x1 PUSH1 0x0 SWAP1 SLOAD SWAP1 PUSH2 0x100 EXP SWAP1 DIV PUSH20 0xFFFFFFFFFFFFFFFFFFFFFFFFFFFFFFFFFFFFFFFF AND PUSH20 0xFFFFFFFFFFFFFFFFFFFFFFFFFFFFFFFFFFFFFFFF AND PUSH4 0xA9059CBB CALLER PUSH8 0xDE0B6B3A7640000 DUP9 PUSH2 0x140B SWAP2 SWAP1 PUSH2 0x26EF JUMP JUMPDEST PUSH1 0x40 MLOAD DUP4 PUSH4 0xFFFFFFFF AND PUSH1 0xE0 SHL DUP2 MSTORE PUSH1 0x4 ADD PUSH2 0x1428 SWAP3 SWAP2 SWAP1 PUSH2 0x295D JUMP JUMPDEST PUSH1 0x20 PUSH1 0x40 MLOAD DUP1 DUP4 SUB DUP2 PUSH1 0x0 DUP8 GAS CALL ISZERO DUP1 ISZERO PUSH2 0x1447 JUMPI RETURNDATASIZE PUSH1 0x0 DUP1 RETURNDATACOPY RETURNDATASIZE PUSH1 0x0 REVERT JUMPDEST POP POP POP POP PUSH1 0x40 MLOAD RETURNDATASIZE PUSH1 0x1F NOT PUSH1 0x1F DUP3 ADD AND DUP3 ADD DUP1 PUSH1 0x40 MSTORE POP DUP2 ADD SWAP1 PUSH2 0x146B SWAP2 SWAP1 PUSH2 0x27AC JUMP JUMPDEST POP JUMPDEST PUSH1 0x0 JUMPDEST DUP5 DUP2 LT ISZERO PUSH2 0x14FA JUMPI PUSH1 0x1 PUSH1 0x9 PUSH1 0x0 CALLER PUSH20 0xFFFFFFFFFFFFFFFFFFFFFFFFFFFFFFFFFFFFFFFF AND PUSH20 0xFFFFFFFFFFFFFFFFFFFFFFFFFFFFFFFFFFFFFFFF AND DUP2 MSTORE PUSH1 0x20 ADD SWAP1 DUP2 MSTORE PUSH1 0x20 ADD PUSH1 0x0 KECCAK256 PUSH1 0x0 ADD PUSH1 0x0 DUP4 DUP2 MSTORE PUSH1 0x20 ADD SWAP1 DUP2 MSTORE PUSH1 0x20 ADD PUSH1 0x0 KECCAK256 PUSH1 0x4 ADD PUSH1 0x0 PUSH2 0x100 EXP DUP2 SLOAD DUP2 PUSH1 0xFF MUL NOT AND SWAP1 DUP4 ISZERO ISZERO MUL OR SWAP1 SSTORE POP DUP1 DUP1 PUSH2 0x14F2 SWAP1 PUSH2 0x2651 JUMP JUMPDEST SWAP2 POP POP PUSH2 0x1470 JUMP JUMPDEST POP PUSH1 0x0 PUSH1 0x9 PUSH1 0x0 CALLER PUSH20 0xFFFFFFFFFFFFFFFFFFFFFFFFFFFFFFFFFFFFFFFF AND PUSH20 0xFFFFFFFFFFFFFFFFFFFFFFFFFFFFFFFFFFFFFFFF AND DUP2 MSTORE PUSH1 0x20 ADD SWAP1 DUP2 MSTORE PUSH1 0x20 ADD PUSH1 0x0 KECCAK256 PUSH1 0x6 ADD DUP2 SWAP1 SSTORE POP PUSH1 0x1 SWAP6 POP POP POP POP POP POP SWAP1 JUMP JUMPDEST PUSH1 0x0 DUP1 SLOAD SWAP1 PUSH2 0x100 EXP SWAP1 DIV PUSH20 0xFFFFFFFFFFFFFFFFFFFFFFFFFFFFFFFFFFFFFFFF AND DUP2 JUMP JUMPDEST PUSH1 0x0 PUSH1 0x9 PUSH1 0x0 CALLER PUSH20 0xFFFFFFFFFFFFFFFFFFFFFFFFFFFFFFFFFFFFFFFF AND PUSH20 0xFFFFFFFFFFFFFFFFFFFFFFFFFFFFFFFFFFFFFFFF AND DUP2 MSTORE PUSH1 0x20 ADD SWAP1 DUP2 MSTORE PUSH1 0x20 ADD PUSH1 0x0 KECCAK256 PUSH1 0x6 ADD SLOAD SWAP1 POP SWAP1 JUMP JUMPDEST PUSH1 0x60 PUSH1 0x0 PUSH1 0x14 PUSH8 0xFFFFFFFFFFFFFFFF DUP2 GT ISZERO PUSH2 0x15DC JUMPI PUSH2 0x15DB PUSH2 0x27D9 JUMP JUMPDEST JUMPDEST PUSH1 0x40 MLOAD SWAP1 DUP1 DUP3 MSTORE DUP1 PUSH1 0x20 MUL PUSH1 0x20 ADD DUP3 ADD PUSH1 0x40 MSTORE DUP1 ISZERO PUSH2 0x160A JUMPI DUP2 PUSH1 0x20 ADD PUSH1 0x20 DUP3 MUL DUP1 CALLDATASIZE DUP4 CALLDATACOPY DUP1 DUP3 ADD SWAP2 POP POP SWAP1 POP JUMPDEST POP SWAP1 POP PUSH1 0x0 JUMPDEST PUSH1 0x14 DUP2 LT ISZERO PUSH2 0x1728 JUMPI PUSH1 0x0 PUSH1 0x9 PUSH1 0x0 CALLER PUSH20 0xFFFFFFFFFFFFFFFFFFFFFFFFFFFFFFFFFFFFFFFF AND PUSH20 0xFFFFFFFFFFFFFFFFFFFFFFFFFFFFFFFFFFFFFFFF AND DUP2 MSTORE PUSH1 0x20 ADD SWAP1 DUP2 MSTORE PUSH1 0x20 ADD PUSH1 0x0 KECCAK256 PUSH1 0x3 ADD PUSH1 0x0 DUP4 DUP2 MSTORE PUSH1 0x20 ADD SWAP1 DUP2 MSTORE PUSH1 0x20 ADD PUSH1 0x0 KECCAK256 PUSH1 0x0 ADD SLOAD GT ISZERO PUSH2 0x16F3 JUMPI PUSH1 0x9 PUSH1 0x0 CALLER PUSH20 0xFFFFFFFFFFFFFFFFFFFFFFFFFFFFFFFFFFFFFFFF AND PUSH20 0xFFFFFFFFFFFFFFFFFFFFFFFFFFFFFFFFFFFFFFFF AND DUP2 MSTORE PUSH1 0x20 ADD SWAP1 DUP2 MSTORE PUSH1 0x20 ADD PUSH1 0x0 KECCAK256 PUSH1 0x3 ADD PUSH1 0x0 DUP3 DUP2 MSTORE PUSH1 0x20 ADD SWAP1 DUP2 MSTORE PUSH1 0x20 ADD PUSH1 0x0 KECCAK256 PUSH1 0x0 ADD SLOAD DUP3 DUP3 DUP2 MLOAD DUP2 LT PUSH2 0x16E2 JUMPI PUSH2 0x16E1 PUSH2 0x2808 JUMP JUMPDEST JUMPDEST PUSH1 0x20 MUL PUSH1 0x20 ADD ADD DUP2 DUP2 MSTORE POP POP PUSH2 0x1715 JUMP JUMPDEST PUSH1 0x0 DUP3 DUP3 DUP2 MLOAD DUP2 LT PUSH2 0x1708 JUMPI PUSH2 0x1707 PUSH2 0x2808 JUMP JUMPDEST JUMPDEST PUSH1 0x20 MUL PUSH1 0x20 ADD ADD DUP2 DUP2 MSTORE POP POP JUMPDEST DUP1 DUP1 PUSH2 0x1720 SWAP1 PUSH2 0x2651 JUMP JUMPDEST SWAP2 POP POP PUSH2 0x1610 JUMP JUMPDEST POP DUP1 SWAP2 POP POP SWAP1 JUMP JUMPDEST PUSH1 0x5 SLOAD DUP2 JUMP JUMPDEST PUSH1 0x0 DUP1 PUSH2 0x1741 PUSH2 0xECD JUMP JUMPDEST SWAP1 POP PUSH1 0x0 DUP2 GT PUSH2 0x1786 JUMPI PUSH1 0x40 MLOAD PUSH32 0x8C379A000000000000000000000000000000000000000000000000000000000 DUP2 MSTORE PUSH1 0x4 ADD PUSH2 0x177D SWAP1 PUSH2 0x29F8 JUMP JUMPDEST PUSH1 0x40 MLOAD DUP1 SWAP2 SUB SWAP1 REVERT JUMPDEST PUSH1 0x2 PUSH1 0x0 SWAP1 SLOAD SWAP1 PUSH2 0x100 EXP SWAP1 DIV PUSH20 0xFFFFFFFFFFFFFFFFFFFFFFFFFFFFFFFFFFFFFFFF AND PUSH20 0xFFFFFFFFFFFFFFFFFFFFFFFFFFFFFFFFFFFFFFFF AND PUSH4 0xA9059CBB CALLER DUP4 PUSH1 0x40 MLOAD DUP4 PUSH4 0xFFFFFFFF AND PUSH1 0xE0 SHL DUP2 MSTORE PUSH1 0x4 ADD PUSH2 0x17E3 SWAP3 SWAP2 SWAP1 PUSH2 0x295D JUMP JUMPDEST PUSH1 0x20 PUSH1 0x40 MLOAD DUP1 DUP4 SUB DUP2 PUSH1 0x0 DUP8 GAS CALL ISZERO DUP1 ISZERO PUSH2 0x1802 JUMPI RETURNDATASIZE PUSH1 0x0 DUP1 RETURNDATACOPY RETURNDATASIZE PUSH1 0x0 REVERT JUMPDEST POP POP POP POP PUSH1 0x40 MLOAD RETURNDATASIZE PUSH1 0x1F NOT PUSH1 0x1F DUP3 ADD AND DUP3 ADD DUP1 PUSH1 0x40 MSTORE POP DUP2 ADD SWAP1 PUSH2 0x1826 SWAP2 SWAP1 PUSH2 0x27AC JUMP JUMPDEST POP DUP1 PUSH1 0x9 PUSH1 0x0 CALLER PUSH20 0xFFFFFFFFFFFFFFFFFFFFFFFFFFFFFFFFFFFFFFFF AND PUSH20 0xFFFFFFFFFFFFFFFFFFFFFFFFFFFFFFFFFFFFFFFF AND DUP2 MSTORE PUSH1 0x20 ADD SWAP1 DUP2 MSTORE PUSH1 0x20 ADD PUSH1 0x0 KECCAK256 PUSH1 0x7 ADD PUSH1 0x0 DUP3 DUP3 SLOAD PUSH2 0x1879 SWAP2 SWAP1 PUSH2 0x2699 JUMP JUMPDEST SWAP3 POP POP DUP2 SWAP1 SSTORE POP PUSH1 0x1 SWAP2 POP POP SWAP1 JUMP JUMPDEST DUP2 PUSH1 0x6 DUP2 SWAP1 SSTORE POP DUP3 PUSH1 0x5 DUP2 SWAP1 SSTORE POP DUP1 PUSH1 0x4 DUP2 SWAP1 SSTORE POP POP POP POP JUMP JUMPDEST PUSH1 0x9 PUSH1 0x20 MSTORE DUP1 PUSH1 0x0 MSTORE PUSH1 0x40 PUSH1 0x0 KECCAK256 PUSH1 0x0 SWAP2 POP SWAP1 POP DUP1 PUSH1 0x2 ADD PUSH1 0x0 SWAP1 SLOAD SWAP1 PUSH2 0x100 EXP SWAP1 DIV PUSH20 0xFFFFFFFFFFFFFFFFFFFFFFFFFFFFFFFFFFFFFFFF AND SWAP1 DUP1 PUSH1 0x4 ADD SLOAD SWAP1 DUP1 PUSH1 0x5 ADD SLOAD SWAP1 DUP1 PUSH1 0x6 ADD SLOAD SWAP1 DUP1 PUSH1 0x7 ADD SLOAD SWAP1 DUP1 PUSH1 0x8 ADD PUSH1 0x0 SWAP1 SLOAD SWAP1 PUSH2 0x100 EXP SWAP1 DIV PUSH1 0xFF AND SWAP1 POP DUP7 JUMP JUMPDEST PUSH1 0x8 SLOAD DUP2 JUMP JUMPDEST PUSH1 0x0 DUP1 SLOAD SWAP1 PUSH2 0x100 EXP SWAP1 DIV PUSH20 0xFFFFFFFFFFFFFFFFFFFFFFFFFFFFFFFFFFFFFFFF AND PUSH20 0xFFFFFFFFFFFFFFFFFFFFFFFFFFFFFFFFFFFFFFFF AND CALLER PUSH20 0xFFFFFFFFFFFFFFFFFFFFFFFFFFFFFFFFFFFFFFFF AND EQ PUSH2 0x199F JUMPI PUSH1 0x40 MLOAD PUSH32 0x8C379A000000000000000000000000000000000000000000000000000000000 DUP2 MSTORE PUSH1 0x4 ADD PUSH2 0x1996 SWAP1 PUSH2 0x2A8A JUMP JUMPDEST PUSH1 0x40 MLOAD DUP1 SWAP2 SUB SWAP1 REVERT JUMPDEST DUP1 PUSH1 0x0 DUP1 PUSH2 0x100 EXP DUP2 SLOAD DUP2 PUSH20 0xFFFFFFFFFFFFFFFFFFFFFFFFFFFFFFFFFFFFFFFF MUL NOT AND SWAP1 DUP4 PUSH20 0xFFFFFFFFFFFFFFFFFFFFFFFFFFFFFFFFFFFFFFFF AND MUL OR SWAP1 SSTORE POP POP JUMP JUMPDEST PUSH1 0x60 PUSH1 0x0 PUSH1 0x14 PUSH8 0xFFFFFFFFFFFFFFFF DUP2 GT ISZERO PUSH2 0x1A01 JUMPI PUSH2 0x1A00 PUSH2 0x27D9 JUMP JUMPDEST JUMPDEST PUSH1 0x40 MLOAD SWAP1 DUP1 DUP3 MSTORE DUP1 PUSH1 0x20 MUL PUSH1 0x20 ADD DUP3 ADD PUSH1 0x40 MSTORE DUP1 ISZERO PUSH2 0x1A2F JUMPI DUP2 PUSH1 0x20 ADD PUSH1 0x20 DUP3 MUL DUP1 CALLDATASIZE DUP4 CALLDATACOPY DUP1 DUP3 ADD SWAP2 POP POP SWAP1 POP JUMPDEST POP SWAP1 POP PUSH1 0x0 JUMPDEST PUSH1 0x14 DUP2 LT ISZERO PUSH2 0x1B4D JUMPI PUSH1 0x0 PUSH1 0x9 PUSH1 0x0 CALLER PUSH20 0xFFFFFFFFFFFFFFFFFFFFFFFFFFFFFFFFFFFFFFFF AND PUSH20 0xFFFFFFFFFFFFFFFFFFFFFFFFFFFFFFFFFFFFFFFF AND DUP2 MSTORE PUSH1 0x20 ADD SWAP1 DUP2 MSTORE PUSH1 0x20 ADD PUSH1 0x0 KECCAK256 PUSH1 0x3 ADD PUSH1 0x0 DUP4 DUP2 MSTORE PUSH1 0x20 ADD SWAP1 DUP2 MSTORE PUSH1 0x20 ADD PUSH1 0x0 KECCAK256 PUSH1 0x0 ADD SLOAD GT ISZERO PUSH2 0x1B18 JUMPI PUSH1 0x9 PUSH1 0x0 CALLER PUSH20 0xFFFFFFFFFFFFFFFFFFFFFFFFFFFFFFFFFFFFFFFF AND PUSH20 0xFFFFFFFFFFFFFFFFFFFFFFFFFFFFFFFFFFFFFFFF AND DUP2 MSTORE PUSH1 0x20 ADD SWAP1 DUP2 MSTORE PUSH1 0x20 ADD PUSH1 0x0 KECCAK256 PUSH1 0x3 ADD PUSH1 0x0 DUP3 DUP2 MSTORE PUSH1 0x20 ADD SWAP1 DUP2 MSTORE PUSH1 0x20 ADD PUSH1 0x0 KECCAK256 PUSH1 0x1 ADD SLOAD DUP3 DUP3 DUP2 MLOAD DUP2 LT PUSH2 0x1B07 JUMPI PUSH2 0x1B06 PUSH2 0x2808 JUMP JUMPDEST JUMPDEST PUSH1 0x20 MUL PUSH1 0x20 ADD ADD DUP2 DUP2 MSTORE POP POP PUSH2 0x1B3A JUMP JUMPDEST PUSH1 0x0 DUP3 DUP3 DUP2 MLOAD DUP2 LT PUSH2 0x1B2D JUMPI PUSH2 0x1B2C PUSH2 0x2808 JUMP JUMPDEST JUMPDEST PUSH1 0x20 MUL PUSH1 0x20 ADD ADD DUP2 DUP2 MSTORE POP POP JUMPDEST DUP1 DUP1 PUSH2 0x1B45 SWAP1 PUSH2 0x2651 JUMP JUMPDEST SWAP2 POP POP PUSH2 0x1A35 JUMP JUMPDEST POP DUP1 SWAP2 POP POP SWAP1 JUMP JUMPDEST PUSH1 0x4 SLOAD DUP2 JUMP JUMPDEST PUSH1 0x6 SLOAD DUP2 JUMP JUMPDEST PUSH1 0x0 DUP3 SWAP1 POP PUSH1 0x0 PUSH1 0x5 PUSH8 0xFFFFFFFFFFFFFFFF DUP2 GT ISZERO PUSH2 0x1B83 JUMPI PUSH2 0x1B82 PUSH2 0x27D9 JUMP JUMPDEST JUMPDEST PUSH1 0x40 MLOAD SWAP1 DUP1 DUP3 MSTORE DUP1 PUSH1 0x20 MUL PUSH1 0x20 ADD DUP3 ADD PUSH1 0x40 MSTORE DUP1 ISZERO PUSH2 0x1BB1 JUMPI DUP2 PUSH1 0x20 ADD PUSH1 0x20 DUP3 MUL DUP1 CALLDATASIZE DUP4 CALLDATACOPY DUP1 DUP3 ADD SWAP2 POP POP SWAP1 POP JUMPDEST POP SWAP1 POP PUSH8 0x4563918244F40000 DUP2 PUSH1 0x0 DUP2 MLOAD DUP2 LT PUSH2 0x1BD1 JUMPI PUSH2 0x1BD0 PUSH2 0x2808 JUMP JUMPDEST JUMPDEST PUSH1 0x20 MUL PUSH1 0x20 ADD ADD DUP2 DUP2 MSTORE POP POP PUSH8 0x29A2241AF62C0000 DUP2 PUSH1 0x1 DUP2 MLOAD DUP2 LT PUSH2 0x1BFA JUMPI PUSH2 0x1BF9 PUSH2 0x2808 JUMP JUMPDEST JUMPDEST PUSH1 0x20 MUL PUSH1 0x20 ADD ADD DUP2 DUP2 MSTORE POP POP PUSH8 0x1BC16D674EC80000 DUP2 PUSH1 0x2 DUP2 MLOAD DUP2 LT PUSH2 0x1C23 JUMPI PUSH2 0x1C22 PUSH2 0x2808 JUMP JUMPDEST JUMPDEST PUSH1 0x20 MUL PUSH1 0x20 ADD ADD DUP2 DUP2 MSTORE POP POP PUSH8 0xDE0B6B3A7640000 DUP2 PUSH1 0x3 DUP2 MLOAD DUP2 LT PUSH2 0x1C4C JUMPI PUSH2 0x1C4B PUSH2 0x2808 JUMP JUMPDEST JUMPDEST PUSH1 0x20 MUL PUSH1 0x20 ADD ADD DUP2 DUP2 MSTORE POP POP PUSH8 0x6F05B59D3B20000 DUP2 PUSH1 0x4 DUP2 MLOAD DUP2 LT PUSH2 0x1C75 JUMPI PUSH2 0x1C74 PUSH2 0x2808 JUMP JUMPDEST JUMPDEST PUSH1 0x20 MUL PUSH1 0x20 ADD ADD DUP2 DUP2 MSTORE POP POP PUSH1 0x0 PUSH8 0xDE0B6B3A7640000 DUP5 PUSH2 0x1C97 SWAP2 SWAP1 PUSH2 0x26EF JUMP JUMPDEST SWAP4 POP PUSH1 0x0 JUMPDEST PUSH1 0xA DUP2 LT ISZERO PUSH2 0x1FCD JUMPI PUSH1 0x0 DUP2 SUB PUSH2 0x1CB6 JUMPI PUSH1 0x0 SWAP2 POP PUSH2 0x1CFC JUMP JUMPDEST PUSH1 0x1 DUP2 SUB PUSH2 0x1CC7 JUMPI PUSH1 0x1 SWAP2 POP PUSH2 0x1CFB JUMP JUMPDEST PUSH1 0x2 DUP2 SUB PUSH2 0x1CD8 JUMPI PUSH1 0x2 SWAP2 POP PUSH2 0x1CFA JUMP JUMPDEST PUSH1 0x2 DUP2 GT ISZERO PUSH2 0x1CEA JUMPI PUSH1 0x3 SWAP2 POP PUSH2 0x1CF9 JUMP JUMPDEST PUSH1 0x7 DUP2 GT ISZERO PUSH2 0x1CF8 JUMPI PUSH1 0x4 SWAP2 POP JUMPDEST JUMPDEST JUMPDEST JUMPDEST JUMPDEST PUSH1 0x0 PUSH20 0xFFFFFFFFFFFFFFFFFFFFFFFFFFFFFFFFFFFFFFFF AND PUSH1 0x9 PUSH1 0x0 DUP7 PUSH20 0xFFFFFFFFFFFFFFFFFFFFFFFFFFFFFFFFFFFFFFFF AND PUSH20 0xFFFFFFFFFFFFFFFFFFFFFFFFFFFFFFFFFFFFFFFF AND DUP2 MSTORE PUSH1 0x20 ADD SWAP1 DUP2 MSTORE PUSH1 0x20 ADD PUSH1 0x0 KECCAK256 PUSH1 0x2 ADD PUSH1 0x0 SWAP1 SLOAD SWAP1 PUSH2 0x100 EXP SWAP1 DIV PUSH20 0xFFFFFFFFFFFFFFFFFFFFFFFFFFFFFFFFFFFFFFFF AND PUSH20 0xFFFFFFFFFFFFFFFFFFFFFFFFFFFFFFFFFFFFFFFF AND EQ PUSH2 0x1FB5 JUMPI PUSH1 0x9 PUSH1 0x0 DUP6 PUSH20 0xFFFFFFFFFFFFFFFFFFFFFFFFFFFFFFFFFFFFFFFF AND PUSH20 0xFFFFFFFFFFFFFFFFFFFFFFFFFFFFFFFFFFFFFFFF AND DUP2 MSTORE PUSH1 0x20 ADD SWAP1 DUP2 MSTORE PUSH1 0x20 ADD PUSH1 0x0 KECCAK256 PUSH1 0x2 ADD PUSH1 0x0 SWAP1 SLOAD SWAP1 PUSH2 0x100 EXP SWAP1 DIV PUSH20 0xFFFFFFFFFFFFFFFFFFFFFFFFFFFFFFFFFFFFFFFF AND SWAP4 POP PUSH1 0x0 PUSH9 0x56BC75E2D63100000 DUP7 PUSH2 0x1E0E SWAP2 SWAP1 PUSH2 0x289A JUMP JUMPDEST DUP5 DUP5 DUP2 MLOAD DUP2 LT PUSH2 0x1E21 JUMPI PUSH2 0x1E20 PUSH2 0x2808 JUMP JUMPDEST JUMPDEST PUSH1 0x20 MUL PUSH1 0x20 ADD ADD MLOAD PUSH2 0x1E33 SWAP2 SWAP1 PUSH2 0x26EF JUMP JUMPDEST SWAP1 POP PUSH1 0x1 PUSH1 0x0 SWAP1 SLOAD SWAP1 PUSH2 0x100 EXP SWAP1 DIV PUSH20 0xFFFFFFFFFFFFFFFFFFFFFFFFFFFFFFFFFFFFFFFF AND PUSH20 0xFFFFFFFFFFFFFFFFFFFFFFFFFFFFFFFFFFFFFFFF AND PUSH4 0xA9059CBB DUP7 DUP4 PUSH1 0x40 MLOAD DUP4 PUSH4 0xFFFFFFFF AND PUSH1 0xE0 SHL DUP2 MSTORE PUSH1 0x4 ADD PUSH2 0x1E92 SWAP3 SWAP2 SWAP1 PUSH2 0x295D JUMP JUMPDEST PUSH1 0x20 PUSH1 0x40 MLOAD DUP1 DUP4 SUB DUP2 PUSH1 0x0 DUP8 GAS CALL ISZERO DUP1 ISZERO PUSH2 0x1EB1 JUMPI RETURNDATASIZE PUSH1 0x0 DUP1 RETURNDATACOPY RETURNDATASIZE PUSH1 0x0 REVERT JUMPDEST POP POP POP POP PUSH1 0x40 MLOAD RETURNDATASIZE PUSH1 0x1F NOT PUSH1 0x1F DUP3 ADD AND DUP3 ADD DUP1 PUSH1 0x40 MSTORE POP DUP2 ADD SWAP1 PUSH2 0x1ED5 SWAP2 SWAP1 PUSH2 0x27AC JUMP JUMPDEST POP DUP1 PUSH1 0x9 PUSH1 0x0 DUP8 PUSH20 0xFFFFFFFFFFFFFFFFFFFFFFFFFFFFFFFFFFFFFFFF AND PUSH20 0xFFFFFFFFFFFFFFFFFFFFFFFFFFFFFFFFFFFFFFFF AND DUP2 MSTORE PUSH1 0x20 ADD SWAP1 DUP2 MSTORE PUSH1 0x20 ADD PUSH1 0x0 KECCAK256 PUSH1 0x3 ADD PUSH1 0x0 DUP5 DUP2 MSTORE PUSH1 0x20 ADD SWAP1 DUP2 MSTORE PUSH1 0x20 ADD PUSH1 0x0 KECCAK256 PUSH1 0x0 ADD PUSH1 0x0 DUP3 DUP3 SLOAD PUSH2 0x1F3C SWAP2 SWAP1 PUSH2 0x2699 JUMP JUMPDEST SWAP3 POP POP DUP2 SWAP1 SSTORE POP PUSH1 0x9 PUSH1 0x0 DUP7 PUSH20 0xFFFFFFFFFFFFFFFFFFFFFFFFFFFFFFFFFFFFFFFF AND PUSH20 0xFFFFFFFFFFFFFFFFFFFFFFFFFFFFFFFFFFFFFFFF AND DUP2 MSTORE PUSH1 0x20 ADD SWAP1 DUP2 MSTORE PUSH1 0x20 ADD PUSH1 0x0 KECCAK256 PUSH1 0x3 ADD PUSH1 0x0 DUP4 DUP2 MSTORE PUSH1 0x20 ADD SWAP1 DUP2 MSTORE PUSH1 0x20 ADD PUSH1 0x0 KECCAK256 PUSH1 0x1 ADD PUSH1 0x0 DUP2 SLOAD DUP1 SWAP3 SWAP2 SWAP1 PUSH2 0x1FAA SWAP1 PUSH2 0x2651 JUMP JUMPDEST SWAP2 SWAP1 POP SSTORE POP POP PUSH2 0x1FBA JUMP JUMPDEST PUSH2 0x1FCD JUMP JUMPDEST DUP1 DUP1 PUSH2 0x1FC5 SWAP1 PUSH2 0x2651 JUMP JUMPDEST SWAP2 POP POP PUSH2 0x1C9C JUMP JUMPDEST POP POP POP POP POP POP JUMP JUMPDEST PUSH1 0x40 MLOAD DUP1 PUSH1 0xA0 ADD PUSH1 0x40 MSTORE DUP1 PUSH1 0x0 DUP2 MSTORE PUSH1 0x20 ADD PUSH1 0x0 DUP2 MSTORE PUSH1 0x20 ADD PUSH1 0x0 DUP2 MSTORE PUSH1 0x20 ADD PUSH1 0x0 DUP2 MSTORE PUSH1 0x20 ADD PUSH1 0x0 ISZERO ISZERO DUP2 MSTORE POP SWAP1 JUMP JUMPDEST PUSH1 0x0 DUP2 MLOAD SWAP1 POP SWAP2 SWAP1 POP JUMP JUMPDEST PUSH1 0x0 DUP3 DUP3 MSTORE PUSH1 0x20 DUP3 ADD SWAP1 POP SWAP3 SWAP2 POP POP JUMP JUMPDEST PUSH1 0x0 DUP2 SWAP1 POP PUSH1 0x20 DUP3 ADD SWAP1 POP SWAP2 SWAP1 POP JUMP JUMPDEST PUSH1 0x0 PUSH20 0xFFFFFFFFFFFFFFFFFFFFFFFFFFFFFFFFFFFFFFFF DUP3 AND SWAP1 POP SWAP2 SWAP1 POP JUMP JUMPDEST PUSH1 0x0 PUSH2 0x205D DUP3 PUSH2 0x2032 JUMP JUMPDEST SWAP1 POP SWAP2 SWAP1 POP JUMP JUMPDEST PUSH2 0x206D DUP2 PUSH2 0x2052 JUMP JUMPDEST DUP3 MSTORE POP POP JUMP JUMPDEST PUSH1 0x0 PUSH2 0x207F DUP4 DUP4 PUSH2 0x2064 JUMP JUMPDEST PUSH1 0x20 DUP4 ADD SWAP1 POP SWAP3 SWAP2 POP POP JUMP JUMPDEST PUSH1 0x0 PUSH1 0x20 DUP3 ADD SWAP1 POP SWAP2 SWAP1 POP JUMP JUMPDEST PUSH1 0x0 PUSH2 0x20A3 DUP3 PUSH2 0x2006 JUMP JUMPDEST PUSH2 0x20AD DUP2 DUP6 PUSH2 0x2011 JUMP JUMPDEST SWAP4 POP PUSH2 0x20B8 DUP4 PUSH2 0x2022 JUMP JUMPDEST DUP1 PUSH1 0x0 JUMPDEST DUP4 DUP2 LT ISZERO PUSH2 0x20E9 JUMPI DUP2 MLOAD PUSH2 0x20D0 DUP9 DUP3 PUSH2 0x2073 JUMP JUMPDEST SWAP8 POP PUSH2 0x20DB DUP4 PUSH2 0x208B JUMP JUMPDEST SWAP3 POP POP PUSH1 0x1 DUP2 ADD SWAP1 POP PUSH2 0x20BC JUMP JUMPDEST POP DUP6 SWAP4 POP POP POP POP SWAP3 SWAP2 POP POP JUMP JUMPDEST PUSH1 0x0 PUSH1 0x20 DUP3 ADD SWAP1 POP DUP2 DUP2 SUB PUSH1 0x0 DUP4 ADD MSTORE PUSH2 0x2110 DUP2 DUP5 PUSH2 0x2098 JUMP JUMPDEST SWAP1 POP SWAP3 SWAP2 POP POP JUMP JUMPDEST PUSH1 0x0 DUP2 SWAP1 POP SWAP2 SWAP1 POP JUMP JUMPDEST PUSH2 0x212B DUP2 PUSH2 0x2118 JUMP JUMPDEST DUP3 MSTORE POP POP JUMP JUMPDEST PUSH1 0x0 PUSH1 0x20 DUP3 ADD SWAP1 POP PUSH2 0x2146 PUSH1 0x0 DUP4 ADD DUP5 PUSH2 0x2122 JUMP JUMPDEST SWAP3 SWAP2 POP POP JUMP JUMPDEST PUSH1 0x0 DUP1 REVERT JUMPDEST PUSH2 0x215A DUP2 PUSH2 0x2118 JUMP JUMPDEST DUP2 EQ PUSH2 0x2165 JUMPI PUSH1 0x0 DUP1 REVERT JUMPDEST POP JUMP JUMPDEST PUSH1 0x0 DUP2 CALLDATALOAD SWAP1 POP PUSH2 0x2177 DUP2 PUSH2 0x2151 JUMP JUMPDEST SWAP3 SWAP2 POP POP JUMP JUMPDEST PUSH1 0x0 PUSH1 0x20 DUP3 DUP5 SUB SLT ISZERO PUSH2 0x2193 JUMPI PUSH2 0x2192 PUSH2 0x214C JUMP JUMPDEST JUMPDEST PUSH1 0x0 PUSH2 0x21A1 DUP5 DUP3 DUP6 ADD PUSH2 0x2168 JUMP JUMPDEST SWAP2 POP POP SWAP3 SWAP2 POP POP JUMP JUMPDEST PUSH2 0x21B3 DUP2 PUSH2 0x2052 JUMP JUMPDEST DUP2 EQ PUSH2 0x21BE JUMPI PUSH1 0x0 DUP1 REVERT JUMPDEST POP JUMP JUMPDEST PUSH1 0x0 DUP2 CALLDATALOAD SWAP1 POP PUSH2 0x21D0 DUP2 PUSH2 0x21AA JUMP JUMPDEST SWAP3 SWAP2 POP POP JUMP JUMPDEST PUSH1 0x0 DUP1 PUSH1 0x40 DUP4 DUP6 SUB SLT ISZERO PUSH2 0x21ED JUMPI PUSH2 0x21EC PUSH2 0x214C JUMP JUMPDEST JUMPDEST PUSH1 0x0 PUSH2 0x21FB DUP6 DUP3 DUP7 ADD PUSH2 0x2168 JUMP JUMPDEST SWAP3 POP POP PUSH1 0x20 PUSH2 0x220C DUP6 DUP3 DUP7 ADD PUSH2 0x21C1 JUMP JUMPDEST SWAP2 POP POP SWAP3 POP SWAP3 SWAP1 POP JUMP JUMPDEST PUSH1 0x0 DUP2 ISZERO ISZERO SWAP1 POP SWAP2 SWAP1 POP JUMP JUMPDEST PUSH2 0x222B DUP2 PUSH2 0x2216 JUMP JUMPDEST DUP3 MSTORE POP POP JUMP JUMPDEST PUSH1 0x0 PUSH1 0x20 DUP3 ADD SWAP1 POP PUSH2 0x2246 PUSH1 0x0 DUP4 ADD DUP5 PUSH2 0x2222 JUMP JUMPDEST SWAP3 SWAP2 POP POP JUMP JUMPDEST PUSH1 0x0 DUP2 MLOAD SWAP1 POP SWAP2 SWAP1 POP JUMP JUMPDEST PUSH1 0x0 DUP3 DUP3 MSTORE PUSH1 0x20 DUP3 ADD SWAP1 POP SWAP3 SWAP2 POP POP JUMP JUMPDEST PUSH1 0x0 DUP2 SWAP1 POP PUSH1 0x20 DUP3 ADD SWAP1 POP SWAP2 SWAP1 POP JUMP JUMPDEST PUSH2 0x2281 DUP2 PUSH2 0x2118 JUMP JUMPDEST DUP3 MSTORE POP POP JUMP JUMPDEST PUSH2 0x2290 DUP2 PUSH2 0x2216 JUMP JUMPDEST DUP3 MSTORE POP POP JUMP JUMPDEST PUSH1 0xA0 DUP3 ADD PUSH1 0x0 DUP3 ADD MLOAD PUSH2 0x22AC PUSH1 0x0 DUP6 ADD DUP3 PUSH2 0x2278 JUMP JUMPDEST POP PUSH1 0x20 DUP3 ADD MLOAD PUSH2 0x22BF PUSH1 0x20 DUP6 ADD DUP3 PUSH2 0x2278 JUMP JUMPDEST POP PUSH1 0x40 DUP3 ADD MLOAD PUSH2 0x22D2 PUSH1 0x40 DUP6 ADD DUP3 PUSH2 0x2278 JUMP JUMPDEST POP PUSH1 0x60 DUP3 ADD MLOAD PUSH2 0x22E5 PUSH1 0x60 DUP6 ADD DUP3 PUSH2 0x2278 JUMP JUMPDEST POP PUSH1 0x80 DUP3 ADD MLOAD PUSH2 0x22F8 PUSH1 0x80 DUP6 ADD DUP3 PUSH2 0x2287 JUMP JUMPDEST POP POP POP POP JUMP JUMPDEST PUSH1 0x0 PUSH2 0x230A DUP4 DUP4 PUSH2 0x2296 JUMP JUMPDEST PUSH1 0xA0 DUP4 ADD SWAP1 POP SWAP3 SWAP2 POP POP JUMP JUMPDEST PUSH1 0x0 PUSH1 0x20 DUP3 ADD SWAP1 POP SWAP2 SWAP1 POP JUMP JUMPDEST PUSH1 0x0 PUSH2 0x232E DUP3 PUSH2 0x224C JUMP JUMPDEST PUSH2 0x2338 DUP2 DUP6 PUSH2 0x2257 JUMP JUMPDEST SWAP4 POP PUSH2 0x2343 DUP4 PUSH2 0x2268 JUMP JUMPDEST DUP1 PUSH1 0x0 JUMPDEST DUP4 DUP2 LT ISZERO PUSH2 0x2374 JUMPI DUP2 MLOAD PUSH2 0x235B DUP9 DUP3 PUSH2 0x22FE JUMP JUMPDEST SWAP8 POP PUSH2 0x2366 DUP4 PUSH2 0x2316 JUMP JUMPDEST SWAP3 POP POP PUSH1 0x1 DUP2 ADD SWAP1 POP PUSH2 0x2347 JUMP JUMPDEST POP DUP6 SWAP4 POP POP POP POP SWAP3 SWAP2 POP POP JUMP JUMPDEST PUSH1 0x0 PUSH1 0x20 DUP3 ADD SWAP1 POP DUP2 DUP2 SUB PUSH1 0x0 DUP4 ADD MSTORE PUSH2 0x239B DUP2 DUP5 PUSH2 0x2323 JUMP JUMPDEST SWAP1 POP SWAP3 SWAP2 POP POP JUMP JUMPDEST PUSH2 0x23AC DUP2 PUSH2 0x2052 JUMP JUMPDEST DUP3 MSTORE POP POP JUMP JUMPDEST PUSH1 0x0 PUSH1 0x20 DUP3 ADD SWAP1 POP PUSH2 0x23C7 PUSH1 0x0 DUP4 ADD DUP5 PUSH2 0x23A3 JUMP JUMPDEST SWAP3 SWAP2 POP POP JUMP JUMPDEST PUSH1 0x0 DUP2 MLOAD SWAP1 POP SWAP2 SWAP1 POP JUMP JUMPDEST PUSH1 0x0 DUP3 DUP3 MSTORE PUSH1 0x20 DUP3 ADD SWAP1 POP SWAP3 SWAP2 POP POP JUMP JUMPDEST PUSH1 0x0 DUP2 SWAP1 POP PUSH1 0x20 DUP3 ADD SWAP1 POP SWAP2 SWAP1 POP JUMP JUMPDEST PUSH1 0x0 PUSH2 0x2405 DUP4 DUP4 PUSH2 0x2278 JUMP JUMPDEST PUSH1 0x20 DUP4 ADD SWAP1 POP SWAP3 SWAP2 POP POP JUMP JUMPDEST PUSH1 0x0 PUSH1 0x20 DUP3 ADD SWAP1 POP SWAP2 SWAP1 POP JUMP JUMPDEST PUSH1 0x0 PUSH2 0x2429 DUP3 PUSH2 0x23CD JUMP JUMPDEST PUSH2 0x2433 DUP2 DUP6 PUSH2 0x23D8 JUMP JUMPDEST SWAP4 POP PUSH2 0x243E DUP4 PUSH2 0x23E9 JUMP JUMPDEST DUP1 PUSH1 0x0 JUMPDEST DUP4 DUP2 LT ISZERO PUSH2 0x246F JUMPI DUP2 MLOAD PUSH2 0x2456 DUP9 DUP3 PUSH2 0x23F9 JUMP JUMPDEST SWAP8 POP PUSH2 0x2461 DUP4 PUSH2 0x2411 JUMP JUMPDEST SWAP3 POP POP PUSH1 0x1 DUP2 ADD SWAP1 POP PUSH2 0x2442 JUMP JUMPDEST POP DUP6 SWAP4 POP POP POP POP SWAP3 SWAP2 POP POP JUMP JUMPDEST PUSH1 0x0 PUSH1 0x20 DUP3 ADD SWAP1 POP DUP2 DUP2 SUB PUSH1 0x0 DUP4 ADD MSTORE PUSH2 0x2496 DUP2 DUP5 PUSH2 0x241E JUMP JUMPDEST SWAP1 POP SWAP3 SWAP2 POP POP JUMP JUMPDEST PUSH1 0x0 DUP1 PUSH1 0x0 PUSH1 0x60 DUP5 DUP7 SUB SLT ISZERO PUSH2 0x24B7 JUMPI PUSH2 0x24B6 PUSH2 0x214C JUMP JUMPDEST JUMPDEST PUSH1 0x0 PUSH2 0x24C5 DUP7 DUP3 DUP8 ADD PUSH2 0x2168 JUMP JUMPDEST SWAP4 POP POP PUSH1 0x20 PUSH2 0x24D6 DUP7 DUP3 DUP8 ADD PUSH2 0x2168 JUMP JUMPDEST SWAP3 POP POP PUSH1 0x40 PUSH2 0x24E7 DUP7 DUP3 DUP8 ADD PUSH2 0x2168 JUMP JUMPDEST SWAP2 POP POP SWAP3 POP SWAP3 POP SWAP3 JUMP JUMPDEST PUSH1 0x0 PUSH1 0x20 DUP3 DUP5 SUB SLT ISZERO PUSH2 0x2507 JUMPI PUSH2 0x2506 PUSH2 0x214C JUMP JUMPDEST JUMPDEST PUSH1 0x0 PUSH2 0x2515 DUP5 DUP3 DUP6 ADD PUSH2 0x21C1 JUMP JUMPDEST SWAP2 POP POP SWAP3 SWAP2 POP POP JUMP JUMPDEST PUSH1 0x0 PUSH1 0xC0 DUP3 ADD SWAP1 POP PUSH2 0x2533 PUSH1 0x0 DUP4 ADD DUP10 PUSH2 0x23A3 JUMP JUMPDEST PUSH2 0x2540 PUSH1 0x20 DUP4 ADD DUP9 PUSH2 0x2122 JUMP JUMPDEST PUSH2 0x254D PUSH1 0x40 DUP4 ADD DUP8 PUSH2 0x2122 JUMP JUMPDEST PUSH2 0x255A PUSH1 0x60 DUP4 ADD DUP7 PUSH2 0x2122 JUMP JUMPDEST PUSH2 0x2567 PUSH1 0x80 DUP4 ADD DUP6 PUSH2 0x2122 JUMP JUMPDEST PUSH2 0x2574 PUSH1 0xA0 DUP4 ADD DUP5 PUSH2 0x2222 JUMP JUMPDEST SWAP8 SWAP7 POP POP POP POP POP POP POP JUMP JUMPDEST PUSH1 0x0 DUP3 DUP3 MSTORE PUSH1 0x20 DUP3 ADD SWAP1 POP SWAP3 SWAP2 POP POP JUMP JUMPDEST PUSH32 0x76616C7565206973206E6F742067726561746572207468616E20313030303020 PUSH1 0x0 DUP3 ADD MSTORE PUSH32 0x616E64206C657373207468616E20353030303030300000000000000000000000 PUSH1 0x20 DUP3 ADD MSTORE POP JUMP JUMPDEST PUSH1 0x0 PUSH2 0x25EC PUSH1 0x35 DUP4 PUSH2 0x257F JUMP JUMPDEST SWAP2 POP PUSH2 0x25F7 DUP3 PUSH2 0x2590 JUMP JUMPDEST PUSH1 0x40 DUP3 ADD SWAP1 POP SWAP2 SWAP1 POP JUMP JUMPDEST PUSH1 0x0 PUSH1 0x20 DUP3 ADD SWAP1 POP DUP2 DUP2 SUB PUSH1 0x0 DUP4 ADD MSTORE PUSH2 0x261B DUP2 PUSH2 0x25DF JUMP JUMPDEST SWAP1 POP SWAP2 SWAP1 POP JUMP JUMPDEST PUSH32 0x4E487B7100000000000000000000000000000000000000000000000000000000 PUSH1 0x0 MSTORE PUSH1 0x11 PUSH1 0x4 MSTORE PUSH1 0x24 PUSH1 0x0 REVERT JUMPDEST PUSH1 0x0 PUSH2 0x265C DUP3 PUSH2 0x2118 JUMP JUMPDEST SWAP2 POP PUSH32 0xFFFFFFFFFFFFFFFFFFFFFFFFFFFFFFFFFFFFFFFFFFFFFFFFFFFFFFFFFFFFFFFF DUP3 SUB PUSH2 0x268E JUMPI PUSH2 0x268D PUSH2 0x2622 JUMP JUMPDEST JUMPDEST PUSH1 0x1 DUP3 ADD SWAP1 POP SWAP2 SWAP1 POP JUMP JUMPDEST PUSH1 0x0 PUSH2 0x26A4 DUP3 PUSH2 0x2118 JUMP JUMPDEST SWAP2 POP PUSH2 0x26AF DUP4 PUSH2 0x2118 JUMP JUMPDEST SWAP3 POP DUP3 PUSH32 0xFFFFFFFFFFFFFFFFFFFFFFFFFFFFFFFFFFFFFFFFFFFFFFFFFFFFFFFFFFFFFFFF SUB DUP3 GT ISZERO PUSH2 0x26E4 JUMPI PUSH2 0x26E3 PUSH2 0x2622 JUMP JUMPDEST JUMPDEST DUP3 DUP3 ADD SWAP1 POP SWAP3 SWAP2 POP POP JUMP JUMPDEST PUSH1 0x0 PUSH2 0x26FA DUP3 PUSH2 0x2118 JUMP JUMPDEST SWAP2 POP PUSH2 0x2705 DUP4 PUSH2 0x2118 JUMP JUMPDEST SWAP3 POP DUP2 PUSH32 0xFFFFFFFFFFFFFFFFFFFFFFFFFFFFFFFFFFFFFFFFFFFFFFFFFFFFFFFFFFFFFFFF DIV DUP4 GT DUP3 ISZERO ISZERO AND ISZERO PUSH2 0x273E JUMPI PUSH2 0x273D PUSH2 0x2622 JUMP JUMPDEST JUMPDEST DUP3 DUP3 MUL SWAP1 POP SWAP3 SWAP2 POP POP JUMP JUMPDEST PUSH1 0x0 PUSH1 0x60 DUP3 ADD SWAP1 POP PUSH2 0x275E PUSH1 0x0 DUP4 ADD DUP7 PUSH2 0x23A3 JUMP JUMPDEST PUSH2 0x276B PUSH1 0x20 DUP4 ADD DUP6 PUSH2 0x23A3 JUMP JUMPDEST PUSH2 0x2778 PUSH1 0x40 DUP4 ADD DUP5 PUSH2 0x2122 JUMP JUMPDEST SWAP5 SWAP4 POP POP POP POP JUMP JUMPDEST PUSH2 0x2789 DUP2 PUSH2 0x2216 JUMP JUMPDEST DUP2 EQ PUSH2 0x2794 JUMPI PUSH1 0x0 DUP1 REVERT JUMPDEST POP JUMP JUMPDEST PUSH1 0x0 DUP2 MLOAD SWAP1 POP PUSH2 0x27A6 DUP2 PUSH2 0x2780 JUMP JUMPDEST SWAP3 SWAP2 POP POP JUMP JUMPDEST PUSH1 0x0 PUSH1 0x20 DUP3 DUP5 SUB SLT ISZERO PUSH2 0x27C2 JUMPI PUSH2 0x27C1 PUSH2 0x214C JUMP JUMPDEST JUMPDEST PUSH1 0x0 PUSH2 0x27D0 DUP5 DUP3 DUP6 ADD PUSH2 0x2797 JUMP JUMPDEST SWAP2 POP POP SWAP3 SWAP2 POP POP JUMP JUMPDEST PUSH32 0x4E487B7100000000000000000000000000000000000000000000000000000000 PUSH1 0x0 MSTORE PUSH1 0x41 PUSH1 0x4 MSTORE PUSH1 0x24 PUSH1 0x0 REVERT JUMPDEST PUSH32 0x4E487B7100000000000000000000000000000000000000000000000000000000 PUSH1 0x0 MSTORE PUSH1 0x32 PUSH1 0x4 MSTORE PUSH1 0x24 PUSH1 0x0 REVERT JUMPDEST PUSH1 0x0 PUSH2 0x2842 DUP3 PUSH2 0x2118 JUMP JUMPDEST SWAP2 POP PUSH2 0x284D DUP4 PUSH2 0x2118 JUMP JUMPDEST SWAP3 POP DUP3 DUP3 LT ISZERO PUSH2 0x2860 JUMPI PUSH2 0x285F PUSH2 0x2622 JUMP JUMPDEST JUMPDEST DUP3 DUP3 SUB SWAP1 POP SWAP3 SWAP2 POP POP JUMP JUMPDEST PUSH32 0x4E487B7100000000000000000000000000000000000000000000000000000000 PUSH1 0x0 MSTORE PUSH1 0x12 PUSH1 0x4 MSTORE PUSH1 0x24 PUSH1 0x0 REVERT JUMPDEST PUSH1 0x0 PUSH2 0x28A5 DUP3 PUSH2 0x2118 JUMP JUMPDEST SWAP2 POP PUSH2 0x28B0 DUP4 PUSH2 0x2118 JUMP JUMPDEST SWAP3 POP DUP3 PUSH2 0x28C0 JUMPI PUSH2 0x28BF PUSH2 0x286B JUMP JUMPDEST JUMPDEST DUP3 DUP3 DIV SWAP1 POP SWAP3 SWAP2 POP POP JUMP JUMPDEST PUSH32 0x796F7520646F6E74206861766520696E766573746D656E7420746F2077697468 PUSH1 0x0 DUP3 ADD MSTORE PUSH32 0x647261776E000000000000000000000000000000000000000000000000000000 PUSH1 0x20 DUP3 ADD MSTORE POP JUMP JUMPDEST PUSH1 0x0 PUSH2 0x2927 PUSH1 0x25 DUP4 PUSH2 0x257F JUMP JUMPDEST SWAP2 POP PUSH2 0x2932 DUP3 PUSH2 0x28CB JUMP JUMPDEST PUSH1 0x40 DUP3 ADD SWAP1 POP SWAP2 SWAP1 POP JUMP JUMPDEST PUSH1 0x0 PUSH1 0x20 DUP3 ADD SWAP1 POP DUP2 DUP2 SUB PUSH1 0x0 DUP4 ADD MSTORE PUSH2 0x2956 DUP2 PUSH2 0x291A JUMP JUMPDEST SWAP1 POP SWAP2 SWAP1 POP JUMP JUMPDEST PUSH1 0x0 PUSH1 0x40 DUP3 ADD SWAP1 POP PUSH2 0x2972 PUSH1 0x0 DUP4 ADD DUP6 PUSH2 0x23A3 JUMP JUMPDEST PUSH2 0x297F PUSH1 0x20 DUP4 ADD DUP5 PUSH2 0x2122 JUMP JUMPDEST SWAP4 SWAP3 POP POP POP JUMP JUMPDEST PUSH32 0x796F7520646F6E742068617665207265776172647320746F2077697468647261 PUSH1 0x0 DUP3 ADD MSTORE PUSH32 0x776E000000000000000000000000000000000000000000000000000000000000 PUSH1 0x20 DUP3 ADD MSTORE POP JUMP JUMPDEST PUSH1 0x0 PUSH2 0x29E2 PUSH1 0x22 DUP4 PUSH2 0x257F JUMP JUMPDEST SWAP2 POP PUSH2 0x29ED DUP3 PUSH2 0x2986 JUMP JUMPDEST PUSH1 0x40 DUP3 ADD SWAP1 POP SWAP2 SWAP1 POP JUMP JUMPDEST PUSH1 0x0 PUSH1 0x20 DUP3 ADD SWAP1 POP DUP2 DUP2 SUB PUSH1 0x0 DUP4 ADD MSTORE PUSH2 0x2A11 DUP2 PUSH2 0x29D5 JUMP JUMPDEST SWAP1 POP SWAP2 SWAP1 POP JUMP JUMPDEST PUSH32 0x6F6E6C79204F776E65722063616E2063616C6C20746869732066756E6374696F PUSH1 0x0 DUP3 ADD MSTORE PUSH32 0x6E00000000000000000000000000000000000000000000000000000000000000 PUSH1 0x20 DUP3 ADD MSTORE POP JUMP JUMPDEST PUSH1 0x0 PUSH2 0x2A74 PUSH1 0x21 DUP4 PUSH2 0x257F JUMP JUMPDEST SWAP2 POP PUSH2 0x2A7F DUP3 PUSH2 0x2A18 JUMP JUMPDEST PUSH1 0x40 DUP3 ADD SWAP1 POP SWAP2 SWAP1 POP JUMP JUMPDEST PUSH1 0x0 PUSH1 0x20 DUP3 ADD SWAP1 POP DUP2 DUP2 SUB PUSH1 0x0 DUP4 ADD MSTORE PUSH2 0x2AA3 DUP2 PUSH2 0x2A67 JUMP JUMPDEST SWAP1 POP SWAP2 SWAP1 POP JUMP INVALID LOG2 PUSH5 0x6970667358 0x22 SLT KECCAK256 0xD5 0xEB DUP12 DUP5 0xDD SWAP12 ADDMOD PUSH17 0xABF1A689555CECC744E5484D2E45A02F07 DUP9 0x1E STATICCALL 0x4E CODECOPY 0xEF SWAP9 PUSH5 0x736F6C6343 STOP ADDMOD 0xD STOP CALLER "
				},
				"gasEstimates": {
					"creation": {
						"codeDepositCost": "2195200",
						"executionCost": "163562",
						"totalCost": "2358762"
					},
					"external": {
						"DUSDReferralsList()": "infinite",
						"DUSDTotalReferrals()": "2608",
						"DUSDinvestor(address)": "infinite",
						"Stake(uint256,address)": "infinite",
						"getAllDUSDinvestments()": "infinite",
						"getReward()": "infinite",
						"getTotalInvestmentDUSD()": "2577",
						"investmentPeriod()": "2540",
						"max_Stake_amount()": "2561",
						"min_Stake_amount()": "2518",
						"owner()": "2534",
						"referralLevel_count()": "infinite",
						"referralLevel_earning()": "infinite",
						"rewardToken()": "2539",
						"setReward(uint256)": "22610",
						"set_max_Stake_amount(uint256)": "22609",
						"set_min_Stake_amount(uint256)": "22543",
						"set_values(uint256,uint256,uint256)": "infinite",
						"totalDUSDInvestors()": "2475",
						"totalbusiness()": "2473",
						"transferOwnership(address)": "26955",
						"unStake()": "infinite",
						"withdrawReward()": "infinite"
					},
					"internal": {
						"sendRewardToDUSDReferrals(address,uint256)": "infinite"
					}
				},
				"methodIdentifiers": {
					"DUSDReferralsList()": "0c5f58f4",
					"DUSDTotalReferrals()": "1e8aba35",
					"DUSDinvestor(address)": "d3560ee8",
					"Stake(uint256,address)": "2bccdce6",
					"getAllDUSDinvestments()": "3a1e0833",
					"getReward()": "3d18b912",
					"getTotalInvestmentDUSD()": "929f6bbe",
					"investmentPeriod()": "523cddfe",
					"max_Stake_amount()": "fae730bc",
					"min_Stake_amount()": "bc67eaff",
					"owner()": "8da5cb5b",
					"referralLevel_count()": "f790b81a",
					"referralLevel_earning()": "a61be99d",
					"rewardToken()": "f7c618c1",
					"setReward(uint256)": "293be456",
					"set_max_Stake_amount(uint256)": "500cb85f",
					"set_min_Stake_amount(uint256)": "32d4e783",
					"set_values(uint256,uint256,uint256)": "ce10db0a",
					"totalDUSDInvestors()": "10cde60a",
					"totalbusiness()": "e2033fcb",
					"transferOwnership(address)": "f2fde38b",
					"unStake()": "73cf575a",
					"withdrawReward()": "c885bc58"
				}
			},
			"storageLayout": {
				"storage": [
					{
						"astId": 24,
						"contract": "contracts/stake_reward_MLM.sol:Invest",
						"label": "owner",
						"offset": 0,
						"slot": "0",
						"type": "t_address"
					},
					{
						"astId": 27,
						"contract": "contracts/stake_reward_MLM.sol:Invest",
						"label": "SMCcontract",
						"offset": 0,
						"slot": "1",
						"type": "t_address"
					},
					{
						"astId": 30,
						"contract": "contracts/stake_reward_MLM.sol:Invest",
						"label": "BUSDcontract",
						"offset": 0,
						"slot": "2",
						"type": "t_address"
					},
					{
						"astId": 32,
						"contract": "contracts/stake_reward_MLM.sol:Invest",
						"label": "totalDUSDInvestors",
						"offset": 0,
						"slot": "3",
						"type": "t_uint256"
					},
					{
						"astId": 35,
						"contract": "contracts/stake_reward_MLM.sol:Invest",
						"label": "rewardToken",
						"offset": 0,
						"slot": "4",
						"type": "t_uint256"
					},
					{
						"astId": 38,
						"contract": "contracts/stake_reward_MLM.sol:Invest",
						"label": "min_Stake_amount",
						"offset": 0,
						"slot": "5",
						"type": "t_uint256"
					},
					{
						"astId": 41,
						"contract": "contracts/stake_reward_MLM.sol:Invest",
						"label": "max_Stake_amount",
						"offset": 0,
						"slot": "6",
						"type": "t_uint256"
					},
					{
						"astId": 44,
						"contract": "contracts/stake_reward_MLM.sol:Invest",
						"label": "investmentPeriod",
						"offset": 0,
						"slot": "7",
						"type": "t_uint256"
					},
					{
						"astId": 46,
						"contract": "contracts/stake_reward_MLM.sol:Invest",
						"label": "totalbusiness",
						"offset": 0,
						"slot": "8",
						"type": "t_uint256"
					},
					{
						"astId": 93,
						"contract": "contracts/stake_reward_MLM.sol:Invest",
						"label": "DUSDinvestor",
						"offset": 0,
						"slot": "9",
						"type": "t_mapping(t_address,t_struct(Data)88_storage)"
					}
				],
				"types": {
					"t_address": {
						"encoding": "inplace",
						"label": "address",
						"numberOfBytes": "20"
					},
					"t_array(t_address)dyn_storage": {
						"base": "t_address",
						"encoding": "dynamic_array",
						"label": "address[]",
						"numberOfBytes": "32"
					},
					"t_bool": {
						"encoding": "inplace",
						"label": "bool",
						"numberOfBytes": "1"
					},
					"t_mapping(t_address,t_struct(Data)88_storage)": {
						"encoding": "mapping",
						"key": "t_address",
						"label": "mapping(address => struct Invest.Data)",
						"numberOfBytes": "32",
						"value": "t_struct(Data)88_storage"
					},
					"t_mapping(t_uint256,t_struct(allInvestments)57_storage)": {
						"encoding": "mapping",
						"key": "t_uint256",
						"label": "mapping(uint256 => struct Invest.allInvestments)",
						"numberOfBytes": "32",
						"value": "t_struct(allInvestments)57_storage"
					},
					"t_mapping(t_uint256,t_struct(ref_data)62_storage)": {
						"encoding": "mapping",
						"key": "t_uint256",
						"label": "mapping(uint256 => struct Invest.ref_data)",
						"numberOfBytes": "32",
						"value": "t_struct(ref_data)62_storage"
					},
					"t_struct(Data)88_storage": {
						"encoding": "inplace",
						"label": "struct Invest.Data",
						"members": [
							{
								"astId": 67,
								"contract": "contracts/stake_reward_MLM.sol:Invest",
								"label": "investment",
								"offset": 0,
								"slot": "0",
								"type": "t_mapping(t_uint256,t_struct(allInvestments)57_storage)"
							},
							{
								"astId": 70,
								"contract": "contracts/stake_reward_MLM.sol:Invest",
								"label": "hisReferrals",
								"offset": 0,
								"slot": "1",
								"type": "t_array(t_address)dyn_storage"
							},
							{
								"astId": 72,
								"contract": "contracts/stake_reward_MLM.sol:Invest",
								"label": "referralFrom",
								"offset": 0,
								"slot": "2",
								"type": "t_address"
							},
							{
								"astId": 77,
								"contract": "contracts/stake_reward_MLM.sol:Invest",
								"label": "referralLevel",
								"offset": 0,
								"slot": "3",
								"type": "t_mapping(t_uint256,t_struct(ref_data)62_storage)"
							},
							{
								"astId": 79,
								"contract": "contracts/stake_reward_MLM.sol:Invest",
								"label": "reward",
								"offset": 0,
								"slot": "4",
								"type": "t_uint256"
							},
							{
								"astId": 81,
								"contract": "contracts/stake_reward_MLM.sol:Invest",
								"label": "noOfInvestment",
								"offset": 0,
								"slot": "5",
								"type": "t_uint256"
							},
							{
								"astId": 83,
								"contract": "contracts/stake_reward_MLM.sol:Invest",
								"label": "totalInvestment",
								"offset": 0,
								"slot": "6",
								"type": "t_uint256"
							},
							{
								"astId": 85,
								"contract": "contracts/stake_reward_MLM.sol:Invest",
								"label": "totalWithdraw_reward",
								"offset": 0,
								"slot": "7",
								"type": "t_uint256"
							},
							{
								"astId": 87,
								"contract": "contracts/stake_reward_MLM.sol:Invest",
								"label": "investBefore",
								"offset": 0,
								"slot": "8",
								"type": "t_bool"
							}
						],
						"numberOfBytes": "288"
					},
					"t_struct(allInvestments)57_storage": {
						"encoding": "inplace",
						"label": "struct Invest.allInvestments",
						"members": [
							{
								"astId": 48,
								"contract": "contracts/stake_reward_MLM.sol:Invest",
								"label": "investedAmount",
								"offset": 0,
								"slot": "0",
								"type": "t_uint256"
							},
							{
								"astId": 50,
								"contract": "contracts/stake_reward_MLM.sol:Invest",
								"label": "withdrawnTime",
								"offset": 0,
								"slot": "1",
								"type": "t_uint256"
							},
							{
								"astId": 52,
								"contract": "contracts/stake_reward_MLM.sol:Invest",
								"label": "DepositTime",
								"offset": 0,
								"slot": "2",
								"type": "t_uint256"
							},
							{
								"astId": 54,
								"contract": "contracts/stake_reward_MLM.sol:Invest",
								"label": "investmentNum",
								"offset": 0,
								"slot": "3",
								"type": "t_uint256"
							},
							{
								"astId": 56,
								"contract": "contracts/stake_reward_MLM.sol:Invest",
								"label": "unstake",
								"offset": 0,
								"slot": "4",
								"type": "t_bool"
							}
						],
						"numberOfBytes": "160"
					},
					"t_struct(ref_data)62_storage": {
						"encoding": "inplace",
						"label": "struct Invest.ref_data",
						"members": [
							{
								"astId": 59,
								"contract": "contracts/stake_reward_MLM.sol:Invest",
								"label": "reward",
								"offset": 0,
								"slot": "0",
								"type": "t_uint256"
							},
							{
								"astId": 61,
								"contract": "contracts/stake_reward_MLM.sol:Invest",
								"label": "count",
								"offset": 0,
								"slot": "1",
								"type": "t_uint256"
							}
						],
						"numberOfBytes": "64"
					},
					"t_uint256": {
						"encoding": "inplace",
						"label": "uint256",
						"numberOfBytes": "32"
					}
				}
			},
			"userdoc": {
				"kind": "user",
				"methods": {},
				"version": 1
			}
		}
	}
}