{
	"contracts/stake_reward_MLM.sol": {
		"Invest": {
			"abi": [
				{
					"inputs": [],
					"stateMutability": "nonpayable",
					"type": "constructor"
				},
				{
					"inputs": [],
					"name": "Admin_data",
					"outputs": [
						{
							"components": [
								{
									"internalType": "address",
									"name": "investor",
									"type": "address"
								},
								{
									"internalType": "uint256",
									"name": "totalInvestment",
									"type": "uint256"
								},
								{
									"internalType": "uint256",
									"name": "reward",
									"type": "uint256"
								},
								{
									"internalType": "uint256",
									"name": "noOfInvestment",
									"type": "uint256"
								},
								{
									"internalType": "uint256",
									"name": "totalWithdraw_reward",
									"type": "uint256"
								},
								{
									"internalType": "uint256",
									"name": "Total_referrals",
									"type": "uint256"
								}
							],
							"internalType": "struct Invest.Admin_Data[]",
							"name": "",
							"type": "tuple[]"
						}
					],
					"stateMutability": "view",
					"type": "function"
				},
				{
					"inputs": [
						{
							"internalType": "uint256",
							"name": "",
							"type": "uint256"
						}
					],
					"name": "All_investors",
					"outputs": [
						{
							"internalType": "address",
							"name": "",
							"type": "address"
						}
					],
					"stateMutability": "view",
					"type": "function"
				},
				{
					"inputs": [],
					"name": "DUSDReferralsList",
					"outputs": [
						{
							"internalType": "address[]",
							"name": "",
							"type": "address[]"
						}
					],
					"stateMutability": "view",
					"type": "function"
				},
				{
					"inputs": [],
					"name": "DUSDTotalReferrals",
					"outputs": [
						{
							"internalType": "uint256",
							"name": "",
							"type": "uint256"
						}
					],
					"stateMutability": "view",
					"type": "function"
				},
				{
					"inputs": [
						{
							"internalType": "address",
							"name": "",
							"type": "address"
						}
					],
					"name": "DUSDinvestor",
					"outputs": [
						{
							"internalType": "address",
							"name": "referralFrom",
							"type": "address"
						},
						{
							"internalType": "uint256",
							"name": "reward",
							"type": "uint256"
						},
						{
							"internalType": "uint256",
							"name": "noOfInvestment",
							"type": "uint256"
						},
						{
							"internalType": "uint256",
							"name": "totalInvestment",
							"type": "uint256"
						},
						{
							"internalType": "uint256",
							"name": "totalWithdraw_reward",
							"type": "uint256"
						},
						{
							"internalType": "bool",
							"name": "investBefore",
							"type": "bool"
						},
						{
							"internalType": "uint256",
							"name": "stakeTime",
							"type": "uint256"
						}
					],
					"stateMutability": "view",
					"type": "function"
				},
				{
					"inputs": [
						{
							"internalType": "uint256",
							"name": "_investedamount",
							"type": "uint256"
						},
						{
							"internalType": "address",
							"name": "_referral",
							"type": "address"
						}
					],
					"name": "Stake",
					"outputs": [
						{
							"internalType": "bool",
							"name": "success",
							"type": "bool"
						}
					],
					"stateMutability": "nonpayable",
					"type": "function"
				},
				{
					"inputs": [],
					"name": "denomenator",
					"outputs": [
						{
							"internalType": "uint256",
							"name": "",
							"type": "uint256"
						}
					],
					"stateMutability": "view",
					"type": "function"
				},
				{
					"inputs": [],
					"name": "getAllDUSDinvestments",
					"outputs": [
						{
							"components": [
								{
									"internalType": "uint256",
									"name": "investedAmount",
									"type": "uint256"
								},
								{
									"internalType": "uint256",
									"name": "withdrawnTime",
									"type": "uint256"
								},
								{
									"internalType": "uint256",
									"name": "DepositTime",
									"type": "uint256"
								},
								{
									"internalType": "uint256",
									"name": "investmentNum",
									"type": "uint256"
								},
								{
									"internalType": "uint256",
									"name": "unstakeTime",
									"type": "uint256"
								},
								{
									"internalType": "bool",
									"name": "unstake",
									"type": "bool"
								}
							],
							"internalType": "struct Invest.allInvestments[]",
							"name": "",
							"type": "tuple[]"
						}
					],
					"stateMutability": "view",
					"type": "function"
				},
				{
					"inputs": [],
					"name": "getReward",
					"outputs": [
						{
							"internalType": "uint256",
							"name": "",
							"type": "uint256"
						}
					],
					"stateMutability": "view",
					"type": "function"
				},
				{
					"inputs": [],
					"name": "getTotalInvestmentDUSD",
					"outputs": [
						{
							"internalType": "uint256",
							"name": "",
							"type": "uint256"
						}
					],
					"stateMutability": "view",
					"type": "function"
				},
				{
					"inputs": [],
					"name": "investmentPeriod",
					"outputs": [
						{
							"internalType": "uint256",
							"name": "",
							"type": "uint256"
						}
					],
					"stateMutability": "view",
					"type": "function"
				},
				{
					"inputs": [],
					"name": "max_Stake_amount",
					"outputs": [
						{
							"internalType": "uint256",
							"name": "",
							"type": "uint256"
						}
					],
					"stateMutability": "view",
					"type": "function"
				},
				{
					"inputs": [],
					"name": "min_Stake_amount",
					"outputs": [
						{
							"internalType": "uint256",
							"name": "",
							"type": "uint256"
						}
					],
					"stateMutability": "view",
					"type": "function"
				},
				{
					"inputs": [],
					"name": "owner",
					"outputs": [
						{
							"internalType": "address",
							"name": "",
							"type": "address"
						}
					],
					"stateMutability": "view",
					"type": "function"
				},
				{
					"inputs": [],
					"name": "referralLevel_count",
					"outputs": [
						{
							"internalType": "uint256[]",
							"name": "arr",
							"type": "uint256[]"
						}
					],
					"stateMutability": "view",
					"type": "function"
				},
				{
					"inputs": [],
					"name": "referralLevel_earning",
					"outputs": [
						{
							"internalType": "uint256[]",
							"name": "arr",
							"type": "uint256[]"
						}
					],
					"stateMutability": "view",
					"type": "function"
				},
				{
					"inputs": [],
					"name": "rewardToken",
					"outputs": [
						{
							"internalType": "uint256",
							"name": "",
							"type": "uint256"
						}
					],
					"stateMutability": "view",
					"type": "function"
				},
				{
					"inputs": [
						{
							"internalType": "uint256",
							"name": "_amount",
							"type": "uint256"
						},
						{
							"internalType": "uint256",
							"name": "_denomenator",
							"type": "uint256"
						}
					],
					"name": "setReward",
					"outputs": [],
					"stateMutability": "nonpayable",
					"type": "function"
				},
				{
					"inputs": [
						{
							"internalType": "uint256",
							"name": "_amount",
							"type": "uint256"
						}
					],
					"name": "set_max_Stake_amount",
					"outputs": [],
					"stateMutability": "nonpayable",
					"type": "function"
				},
				{
					"inputs": [
						{
							"internalType": "uint256",
							"name": "_amount",
							"type": "uint256"
						}
					],
					"name": "set_min_Stake_amount",
					"outputs": [],
					"stateMutability": "nonpayable",
					"type": "function"
				},
				{
					"inputs": [
						{
							"internalType": "uint256",
							"name": "min_stake",
							"type": "uint256"
						},
						{
							"internalType": "uint256",
							"name": "max_stake",
							"type": "uint256"
						},
						{
							"internalType": "uint256",
							"name": "reward_per_day",
							"type": "uint256"
						},
						{
							"internalType": "uint256",
							"name": "_denomenator",
							"type": "uint256"
						}
					],
					"name": "set_values",
					"outputs": [],
					"stateMutability": "nonpayable",
					"type": "function"
				},
				{
					"inputs": [],
					"name": "totalDUSDInvestors",
					"outputs": [
						{
							"internalType": "uint256",
							"name": "",
							"type": "uint256"
						}
					],
					"stateMutability": "view",
					"type": "function"
				},
				{
					"inputs": [],
					"name": "total_withdraw_reaward",
					"outputs": [
						{
							"internalType": "uint256",
							"name": "",
							"type": "uint256"
						}
					],
					"stateMutability": "view",
					"type": "function"
				},
				{
					"inputs": [],
					"name": "totalbusiness",
					"outputs": [
						{
							"internalType": "uint256",
							"name": "",
							"type": "uint256"
						}
					],
					"stateMutability": "view",
					"type": "function"
				},
				{
					"inputs": [
						{
							"internalType": "address",
							"name": "_owner",
							"type": "address"
						}
					],
					"name": "transferOwnership",
					"outputs": [],
					"stateMutability": "nonpayable",
					"type": "function"
				},
				{
					"inputs": [],
					"name": "unStake",
					"outputs": [
						{
							"internalType": "bool",
							"name": "success",
							"type": "bool"
						}
					],
					"stateMutability": "nonpayable",
					"type": "function"
				},
				{
					"inputs": [],
					"name": "withdrawReward",
					"outputs": [
						{
							"internalType": "bool",
							"name": "success",
							"type": "bool"
						}
					],
					"stateMutability": "nonpayable",
					"type": "function"
				}
			],
			"devdoc": {
				"kind": "dev",
				"methods": {},
				"version": 1
			},
			"evm": {
				"assembly": "    /* \"contracts/stake_reward_MLM.sol\":262:15863  contract Invest... */\n  mstore(0x40, 0x80)\n    /* \"contracts/stake_reward_MLM.sol\":504:546  0x9462A065c980693808405eB4f2851f0FfA1d3016 */\n  0x9462a065c980693808405eb4f2851f0ffa1d3016\n    /* \"contracts/stake_reward_MLM.sol\":484:546  address SMCcontract=0x9462A065c980693808405eB4f2851f0FfA1d3016 */\n  0x01\n  exp(0x0100, 0x00)\n  dup2\n  sload\n  dup2\n  0xffffffffffffffffffffffffffffffffffffffff\n  mul\n  not\n  and\n  swap1\n  dup4\n  0xffffffffffffffffffffffffffffffffffffffff\n  and\n  mul\n  or\n  swap1\n  sstore\n  pop\n    /* \"contracts/stake_reward_MLM.sol\":577:619  0xc8BbA86A801Cd87ca72222d5A43639592fbAA6EC */\n  0xc8bba86a801cd87ca72222d5a43639592fbaa6ec\n    /* \"contracts/stake_reward_MLM.sol\":556:619  address BUSDcontract=0xc8BbA86A801Cd87ca72222d5A43639592fbAA6EC */\n  0x02\n  exp(0x0100, 0x00)\n  dup2\n  sload\n  dup2\n  0xffffffffffffffffffffffffffffffffffffffff\n  mul\n  not\n  and\n  swap1\n  dup4\n  0xffffffffffffffffffffffffffffffffffffffff\n  and\n  mul\n  or\n  swap1\n  sstore\n  pop\n    /* \"contracts/stake_reward_MLM.sol\":694:713  5000000000000000000 */\n  0x4563918244f40000\n    /* \"contracts/stake_reward_MLM.sol\":670:713  uint public rewardToken=5000000000000000000 */\n  0x04\n  sstore\n    /* \"contracts/stake_reward_MLM.sol\":762:767  10000 */\n  0x2710\n    /* \"contracts/stake_reward_MLM.sol\":733:767  uint public min_Stake_amount=10000 */\n  0x05\n  sstore\n    /* \"contracts/stake_reward_MLM.sol\":833:840  5000000 */\n  0x4c4b40\n    /* \"contracts/stake_reward_MLM.sol\":804:840  uint public max_Stake_amount=5000000 */\n  0x06\n  sstore\n    /* \"contracts/stake_reward_MLM.sol\":902:908  100000 */\n  0x0186a0\n    /* \"contracts/stake_reward_MLM.sol\":878:908  uint public denomenator=100000 */\n  0x07\n  sstore\n    /* \"contracts/stake_reward_MLM.sol\":975:983  365 days */\n  0x01e13380\n    /* \"contracts/stake_reward_MLM.sol\":946:983  uint public investmentPeriod=365 days */\n  0x08\n  sstore\n    /* \"contracts/stake_reward_MLM.sol\":2112:2242  constructor(){... */\n  callvalue\n  dup1\n  iszero\n  tag_1\n  jumpi\n  0x00\n  dup1\n  revert\ntag_1:\n  pop\n    /* \"contracts/stake_reward_MLM.sol\":2158:2168  msg.sender */\n  caller\n    /* \"contracts/stake_reward_MLM.sol\":2152:2157  owner */\n  0x00\n  dup1\n    /* \"contracts/stake_reward_MLM.sol\":2152:2168  owner=msg.sender */\n  0x0100\n  exp\n  dup2\n  sload\n  dup2\n  0xffffffffffffffffffffffffffffffffffffffff\n  mul\n  not\n  and\n  swap1\n  dup4\n  0xffffffffffffffffffffffffffffffffffffffff\n  and\n  mul\n  or\n  swap1\n  sstore\n  pop\n    /* \"contracts/stake_reward_MLM.sol\":262:15863  contract Invest... */\n  dataSize(sub_0)\n  dup1\n  dataOffset(sub_0)\n  0x00\n  codecopy\n  0x00\n  return\nstop\n\nsub_0: assembly {\n        /* \"contracts/stake_reward_MLM.sol\":262:15863  contract Invest... */\n      mstore(0x40, 0x80)\n      callvalue\n      dup1\n      iszero\n      tag_1\n      jumpi\n      0x00\n      dup1\n      revert\n    tag_1:\n      pop\n      jumpi(tag_2, lt(calldatasize, 0x04))\n      shr(0xe0, calldataload(0x00))\n      dup1\n      0x73cf575a\n      gt\n      tag_30\n      jumpi\n      dup1\n      0xc885bc58\n      gt\n      tag_31\n      jumpi\n      dup1\n      0xf2fde38b\n      gt\n      tag_32\n      jumpi\n      dup1\n      0xf2fde38b\n      eq\n      tag_26\n      jumpi\n      dup1\n      0xf790b81a\n      eq\n      tag_27\n      jumpi\n      dup1\n      0xf7c618c1\n      eq\n      tag_28\n      jumpi\n      dup1\n      0xfae730bc\n      eq\n      tag_29\n      jumpi\n      jump(tag_2)\n    tag_32:\n      dup1\n      0xc885bc58\n      eq\n      tag_23\n      jumpi\n      dup1\n      0xd3560ee8\n      eq\n      tag_24\n      jumpi\n      dup1\n      0xe2033fcb\n      eq\n      tag_25\n      jumpi\n      jump(tag_2)\n    tag_31:\n      dup1\n      0x9740a1bc\n      gt\n      tag_33\n      jumpi\n      dup1\n      0x9740a1bc\n      eq\n      tag_19\n      jumpi\n      dup1\n      0xa47bd496\n      eq\n      tag_20\n      jumpi\n      dup1\n      0xa61be99d\n      eq\n      tag_21\n      jumpi\n      dup1\n      0xbc67eaff\n      eq\n      tag_22\n      jumpi\n      jump(tag_2)\n    tag_33:\n      dup1\n      0x73cf575a\n      eq\n      tag_16\n      jumpi\n      dup1\n      0x8da5cb5b\n      eq\n      tag_17\n      jumpi\n      dup1\n      0x929f6bbe\n      eq\n      tag_18\n      jumpi\n      jump(tag_2)\n    tag_30:\n      dup1\n      0x3d18b912\n      gt\n      tag_34\n      jumpi\n      dup1\n      0x500cb85f\n      gt\n      tag_35\n      jumpi\n      dup1\n      0x500cb85f\n      eq\n      tag_12\n      jumpi\n      dup1\n      0x502c6bfa\n      eq\n      tag_13\n      jumpi\n      dup1\n      0x523cddfe\n      eq\n      tag_14\n      jumpi\n      dup1\n      0x5a4a0192\n      eq\n      tag_15\n      jumpi\n      jump(tag_2)\n    tag_35:\n      dup1\n      0x3d18b912\n      eq\n      tag_9\n      jumpi\n      dup1\n      0x42508f66\n      eq\n      tag_10\n      jumpi\n      dup1\n      0x4eb1ecc9\n      eq\n      tag_11\n      jumpi\n      jump(tag_2)\n    tag_34:\n      dup1\n      0x0c5f58f4\n      eq\n      tag_3\n      jumpi\n      dup1\n      0x10cde60a\n      eq\n      tag_4\n      jumpi\n      dup1\n      0x1e8aba35\n      eq\n      tag_5\n      jumpi\n      dup1\n      0x2bccdce6\n      eq\n      tag_6\n      jumpi\n      dup1\n      0x32d4e783\n      eq\n      tag_7\n      jumpi\n      dup1\n      0x3a1e0833\n      eq\n      tag_8\n      jumpi\n    tag_2:\n      0x00\n      dup1\n      revert\n        /* \"contracts/stake_reward_MLM.sol\":12642:12851  function DUSDReferralsList() public view returns(address[] memory){ //this function is to get the all investors list with there account number... */\n    tag_3:\n      tag_36\n      tag_37\n      jump\t// in\n    tag_36:\n      mload(0x40)\n      tag_38\n      swap2\n      swap1\n      tag_39\n      jump\t// in\n    tag_38:\n      mload(0x40)\n      dup1\n      swap2\n      sub\n      swap1\n      return\n        /* \"contracts/stake_reward_MLM.sol\":630:660  uint public totalDUSDInvestors */\n    tag_4:\n      tag_40\n      tag_41\n      jump\t// in\n    tag_40:\n      mload(0x40)\n      tag_42\n      swap2\n      swap1\n      tag_43\n      jump\t// in\n    tag_42:\n      mload(0x40)\n      dup1\n      swap2\n      sub\n      swap1\n      return\n        /* \"contracts/stake_reward_MLM.sol\":12218:12409  function DUSDTotalReferrals() public view returns(uint){ // this function is to get the total number of referrals ... */\n    tag_5:\n      tag_44\n      tag_45\n      jump\t// in\n    tag_44:\n      mload(0x40)\n      tag_46\n      swap2\n      swap1\n      tag_43\n      jump\t// in\n    tag_46:\n      mload(0x40)\n      dup1\n      swap2\n      sub\n      swap1\n      return\n        /* \"contracts/stake_reward_MLM.sol\":3926:6289  function Stake(uint _investedamount,address _referral) external returns(bool success){... */\n    tag_6:\n      tag_47\n      0x04\n      dup1\n      calldatasize\n      sub\n      dup2\n      add\n      swap1\n      tag_48\n      swap2\n      swap1\n      tag_49\n      jump\t// in\n    tag_48:\n      tag_50\n      jump\t// in\n    tag_47:\n      mload(0x40)\n      tag_51\n      swap2\n      swap1\n      tag_52\n      jump\t// in\n    tag_51:\n      mload(0x40)\n      dup1\n      swap2\n      sub\n      swap1\n      return\n        /* \"contracts/stake_reward_MLM.sol\":13023:13134  function set_min_Stake_amount(uint _amount) public ... */\n    tag_7:\n      tag_53\n      0x04\n      dup1\n      calldatasize\n      sub\n      dup2\n      add\n      swap1\n      tag_54\n      swap2\n      swap1\n      tag_55\n      jump\t// in\n    tag_54:\n      tag_56\n      jump\t// in\n    tag_53:\n      stop\n        /* \"contracts/stake_reward_MLM.sol\":11223:12206  function getAllDUSDinvestments() public view returns (allInvestments[] memory) { //this function will return the all investments of the investor and withware date... */\n    tag_8:\n      tag_57\n      tag_58\n      jump\t// in\n    tag_57:\n      mload(0x40)\n      tag_59\n      swap2\n      swap1\n      tag_60\n      jump\t// in\n    tag_59:\n      mload(0x40)\n      dup1\n      swap2\n      sub\n      swap1\n      return\n        /* \"contracts/stake_reward_MLM.sol\":6299:7489  function getReward() view public returns(uint){ //this function is get the total reward balance of the investor... */\n    tag_9:\n      tag_61\n      tag_62\n      jump\t// in\n    tag_61:\n      mload(0x40)\n      tag_63\n      swap2\n      swap1\n      tag_43\n      jump\t// in\n    tag_63:\n      mload(0x40)\n      dup1\n      swap2\n      sub\n      swap1\n      return\n        /* \"contracts/stake_reward_MLM.sol\":14883:15662  function Admin_data() view public returns(Admin_Data[] memory){... */\n    tag_10:\n      tag_64\n      tag_65\n      jump\t// in\n    tag_64:\n      mload(0x40)\n      tag_66\n      swap2\n      swap1\n      tag_67\n      jump\t// in\n    tag_66:\n      mload(0x40)\n      dup1\n      swap2\n      sub\n      swap1\n      return\n        /* \"contracts/stake_reward_MLM.sol\":13263:13545  function set_values(uint min_stake,uint max_stake,uint reward_per_day,uint _denomenator) public ... */\n    tag_11:\n      tag_68\n      0x04\n      dup1\n      calldatasize\n      sub\n      dup2\n      add\n      swap1\n      tag_69\n      swap2\n      swap1\n      tag_70\n      jump\t// in\n    tag_69:\n      tag_71\n      jump\t// in\n    tag_68:\n      stop\n        /* \"contracts/stake_reward_MLM.sol\":13143:13254  function set_max_Stake_amount(uint _amount) public ... */\n    tag_12:\n      tag_72\n      0x04\n      dup1\n      calldatasize\n      sub\n      dup2\n      add\n      swap1\n      tag_73\n      swap2\n      swap1\n      tag_55\n      jump\t// in\n    tag_73:\n      tag_74\n      jump\t// in\n    tag_72:\n      stop\n        /* \"contracts/stake_reward_MLM.sol\":1057:1100  mapping(uint=>address) public All_investors */\n    tag_13:\n      tag_75\n      0x04\n      dup1\n      calldatasize\n      sub\n      dup2\n      add\n      swap1\n      tag_76\n      swap2\n      swap1\n      tag_55\n      jump\t// in\n    tag_76:\n      tag_77\n      jump\t// in\n    tag_75:\n      mload(0x40)\n      tag_78\n      swap2\n      swap1\n      tag_79\n      jump\t// in\n    tag_78:\n      mload(0x40)\n      dup1\n      swap2\n      sub\n      swap1\n      return\n        /* \"contracts/stake_reward_MLM.sol\":946:983  uint public investmentPeriod=365 days */\n    tag_14:\n      tag_80\n      tag_81\n      jump\t// in\n    tag_80:\n      mload(0x40)\n      tag_82\n      swap2\n      swap1\n      tag_43\n      jump\t// in\n    tag_82:\n      mload(0x40)\n      dup1\n      swap2\n      sub\n      swap1\n      return\n        /* \"contracts/stake_reward_MLM.sol\":15672:15855  function total_withdraw_reaward() view public returns(uint){... */\n    tag_15:\n      tag_83\n      tag_84\n      jump\t// in\n    tag_83:\n      mload(0x40)\n      tag_85\n      swap2\n      swap1\n      tag_43\n      jump\t// in\n    tag_85:\n      mload(0x40)\n      dup1\n      swap2\n      sub\n      swap1\n      return\n        /* \"contracts/stake_reward_MLM.sol\":9747:10993  function unStake() external  returns (bool success){... */\n    tag_16:\n      tag_86\n      tag_87\n      jump\t// in\n    tag_86:\n      mload(0x40)\n      tag_88\n      swap2\n      swap1\n      tag_52\n      jump\t// in\n    tag_88:\n      mload(0x40)\n      dup1\n      swap2\n      sub\n      swap1\n      return\n        /* \"contracts/stake_reward_MLM.sol\":300:321  address  public owner */\n    tag_17:\n      tag_89\n      tag_90\n      jump\t// in\n    tag_89:\n      mload(0x40)\n      tag_91\n      swap2\n      swap1\n      tag_79\n      jump\t// in\n    tag_91:\n      mload(0x40)\n      dup1\n      swap2\n      sub\n      swap1\n      return\n        /* \"contracts/stake_reward_MLM.sol\":11003:11213  function getTotalInvestmentDUSD() public view returns(uint) {   //this function is to get the total investment of the ivestor... */\n    tag_18:\n      tag_92\n      tag_93\n      jump\t// in\n    tag_92:\n      mload(0x40)\n      tag_94\n      swap2\n      swap1\n      tag_43\n      jump\t// in\n    tag_94:\n      mload(0x40)\n      dup1\n      swap2\n      sub\n      swap1\n      return\n        /* \"contracts/stake_reward_MLM.sol\":878:908  uint public denomenator=100000 */\n    tag_19:\n      tag_95\n      tag_96\n      jump\t// in\n    tag_95:\n      mload(0x40)\n      tag_97\n      swap2\n      swap1\n      tag_43\n      jump\t// in\n    tag_97:\n      mload(0x40)\n      dup1\n      swap2\n      sub\n      swap1\n      return\n        /* \"contracts/stake_reward_MLM.sol\":12860:13014  function setReward(uint _amount,uint _denomenator) public ... */\n    tag_20:\n      tag_98\n      0x04\n      dup1\n      calldatasize\n      sub\n      dup2\n      add\n      swap1\n      tag_99\n      swap2\n      swap1\n      tag_100\n      jump\t// in\n    tag_99:\n      tag_101\n      jump\t// in\n    tag_98:\n      stop\n        /* \"contracts/stake_reward_MLM.sol\":13738:14303  function referralLevel_earning() public view returns( uint[] memory arr )... */\n    tag_21:\n      tag_102\n      tag_103\n      jump\t// in\n    tag_102:\n      mload(0x40)\n      tag_104\n      swap2\n      swap1\n      tag_105\n      jump\t// in\n    tag_104:\n      mload(0x40)\n      dup1\n      swap2\n      sub\n      swap1\n      return\n        /* \"contracts/stake_reward_MLM.sol\":733:767  uint public min_Stake_amount=10000 */\n    tag_22:\n      tag_106\n      tag_107\n      jump\t// in\n    tag_106:\n      mload(0x40)\n      tag_108\n      swap2\n      swap1\n      tag_43\n      jump\t// in\n    tag_108:\n      mload(0x40)\n      dup1\n      swap2\n      sub\n      swap1\n      return\n        /* \"contracts/stake_reward_MLM.sol\":8714:9736  function withdrawReward() external returns (bool success){... */\n    tag_23:\n      tag_109\n      tag_110\n      jump\t// in\n    tag_109:\n      mload(0x40)\n      tag_111\n      swap2\n      swap1\n      tag_52\n      jump\t// in\n    tag_111:\n      mload(0x40)\n      dup1\n      swap2\n      sub\n      swap1\n      return\n        /* \"contracts/stake_reward_MLM.sol\":2059:2101  mapping(address=>Data) public DUSDinvestor */\n    tag_24:\n      tag_112\n      0x04\n      dup1\n      calldatasize\n      sub\n      dup2\n      add\n      swap1\n      tag_113\n      swap2\n      swap1\n      tag_114\n      jump\t// in\n    tag_113:\n      tag_115\n      jump\t// in\n    tag_112:\n      mload(0x40)\n      tag_116\n      swap8\n      swap7\n      swap6\n      swap5\n      swap4\n      swap3\n      swap2\n      swap1\n      tag_117\n      jump\t// in\n    tag_116:\n      mload(0x40)\n      dup1\n      swap2\n      sub\n      swap1\n      return\n        /* \"contracts/stake_reward_MLM.sol\":993:1018  uint public totalbusiness */\n    tag_25:\n      tag_118\n      tag_119\n      jump\t// in\n    tag_118:\n      mload(0x40)\n      tag_120\n      swap2\n      swap1\n      tag_43\n      jump\t// in\n    tag_120:\n      mload(0x40)\n      dup1\n      swap2\n      sub\n      swap1\n      return\n        /* \"contracts/stake_reward_MLM.sol\":13554:13728  function transferOwnership(address _owner)  public... */\n    tag_26:\n      tag_121\n      0x04\n      dup1\n      calldatasize\n      sub\n      dup2\n      add\n      swap1\n      tag_122\n      swap2\n      swap1\n      tag_114\n      jump\t// in\n    tag_122:\n      tag_123\n      jump\t// in\n    tag_121:\n      stop\n        /* \"contracts/stake_reward_MLM.sol\":14312:14873  function referralLevel_count() public view returns( uint[] memory arr )... */\n    tag_27:\n      tag_124\n      tag_125\n      jump\t// in\n    tag_124:\n      mload(0x40)\n      tag_126\n      swap2\n      swap1\n      tag_105\n      jump\t// in\n    tag_126:\n      mload(0x40)\n      dup1\n      swap2\n      sub\n      swap1\n      return\n        /* \"contracts/stake_reward_MLM.sol\":670:713  uint public rewardToken=5000000000000000000 */\n    tag_28:\n      tag_127\n      tag_128\n      jump\t// in\n    tag_127:\n      mload(0x40)\n      tag_129\n      swap2\n      swap1\n      tag_43\n      jump\t// in\n    tag_129:\n      mload(0x40)\n      dup1\n      swap2\n      sub\n      swap1\n      return\n        /* \"contracts/stake_reward_MLM.sol\":804:840  uint public max_Stake_amount=5000000 */\n    tag_29:\n      tag_130\n      tag_131\n      jump\t// in\n    tag_130:\n      mload(0x40)\n      tag_132\n      swap2\n      swap1\n      tag_43\n      jump\t// in\n    tag_132:\n      mload(0x40)\n      dup1\n      swap2\n      sub\n      swap1\n      return\n        /* \"contracts/stake_reward_MLM.sol\":12642:12851  function DUSDReferralsList() public view returns(address[] memory){ //this function is to get the all investors list with there account number... */\n    tag_37:\n        /* \"contracts/stake_reward_MLM.sol\":12691:12707  address[] memory */\n      0x60\n        /* \"contracts/stake_reward_MLM.sol\":12803:12815  DUSDinvestor */\n      0x0c\n        /* \"contracts/stake_reward_MLM.sol\":12803:12827  DUSDinvestor[msg.sender] */\n      0x00\n        /* \"contracts/stake_reward_MLM.sol\":12816:12826  msg.sender */\n      caller\n        /* \"contracts/stake_reward_MLM.sol\":12803:12827  DUSDinvestor[msg.sender] */\n      0xffffffffffffffffffffffffffffffffffffffff\n      and\n      0xffffffffffffffffffffffffffffffffffffffff\n      and\n      dup2\n      mstore\n      0x20\n      add\n      swap1\n      dup2\n      mstore\n      0x20\n      add\n      0x00\n      keccak256\n        /* \"contracts/stake_reward_MLM.sol\":12803:12840  DUSDinvestor[msg.sender].hisReferrals */\n      0x01\n      add\n        /* \"contracts/stake_reward_MLM.sol\":12796:12840  return DUSDinvestor[msg.sender].hisReferrals */\n      dup1\n      sload\n      dup1\n      0x20\n      mul\n      0x20\n      add\n      mload(0x40)\n      swap1\n      dup2\n      add\n      0x40\n      mstore\n      dup1\n      swap3\n      swap2\n      swap1\n      dup2\n      dup2\n      mstore\n      0x20\n      add\n      dup3\n      dup1\n      sload\n      dup1\n      iszero\n      tag_134\n      jumpi\n      0x20\n      mul\n      dup3\n      add\n      swap2\n      swap1\n      0x00\n      mstore\n      keccak256(0x00, 0x20)\n      swap1\n    tag_135:\n      dup2\n      0x00\n      swap1\n      sload\n      swap1\n      0x0100\n      exp\n      swap1\n      div\n      0xffffffffffffffffffffffffffffffffffffffff\n      and\n      0xffffffffffffffffffffffffffffffffffffffff\n      and\n      dup2\n      mstore\n      0x20\n      add\n      swap1\n      0x01\n      add\n      swap1\n      dup1\n      dup4\n      gt\n      tag_135\n      jumpi\n    tag_134:\n      pop\n      pop\n      pop\n      pop\n      pop\n      swap1\n      pop\n        /* \"contracts/stake_reward_MLM.sol\":12642:12851  function DUSDReferralsList() public view returns(address[] memory){ //this function is to get the all investors list with there account number... */\n      swap1\n      jump\t// out\n        /* \"contracts/stake_reward_MLM.sol\":630:660  uint public totalDUSDInvestors */\n    tag_41:\n      sload(0x03)\n      dup2\n      jump\t// out\n        /* \"contracts/stake_reward_MLM.sol\":12218:12409  function DUSDTotalReferrals() public view returns(uint){ // this function is to get the total number of referrals ... */\n    tag_45:\n        /* \"contracts/stake_reward_MLM.sol\":12268:12272  uint */\n      0x00\n        /* \"contracts/stake_reward_MLM.sol\":12353:12365  DUSDinvestor */\n      0x0c\n        /* \"contracts/stake_reward_MLM.sol\":12353:12377  DUSDinvestor[msg.sender] */\n      0x00\n        /* \"contracts/stake_reward_MLM.sol\":12366:12376  msg.sender */\n      caller\n        /* \"contracts/stake_reward_MLM.sol\":12353:12377  DUSDinvestor[msg.sender] */\n      0xffffffffffffffffffffffffffffffffffffffff\n      and\n      0xffffffffffffffffffffffffffffffffffffffff\n      and\n      dup2\n      mstore\n      0x20\n      add\n      swap1\n      dup2\n      mstore\n      0x20\n      add\n      0x00\n      keccak256\n        /* \"contracts/stake_reward_MLM.sol\":12353:12390  DUSDinvestor[msg.sender].hisReferrals */\n      0x01\n      add\n        /* \"contracts/stake_reward_MLM.sol\":12352:12398  (DUSDinvestor[msg.sender].hisReferrals).length */\n      dup1\n      sload\n      swap1\n      pop\n        /* \"contracts/stake_reward_MLM.sol\":12345:12398  return (DUSDinvestor[msg.sender].hisReferrals).length */\n      swap1\n      pop\n        /* \"contracts/stake_reward_MLM.sol\":12218:12409  function DUSDTotalReferrals() public view returns(uint){ // this function is to get the total number of referrals ... */\n      swap1\n      jump\t// out\n        /* \"contracts/stake_reward_MLM.sol\":3926:6289  function Stake(uint _investedamount,address _referral) external returns(bool success){... */\n    tag_50:\n        /* \"contracts/stake_reward_MLM.sol\":3998:4010  bool success */\n      0x00\n        /* \"contracts/stake_reward_MLM.sol\":4052:4068  min_Stake_amount */\n      sload(0x05)\n        /* \"contracts/stake_reward_MLM.sol\":4033:4048  _investedamount */\n      dup4\n        /* \"contracts/stake_reward_MLM.sol\":4033:4068  _investedamount >= min_Stake_amount */\n      lt\n      iszero\n        /* \"contracts/stake_reward_MLM.sol\":4033:4107  _investedamount >= min_Stake_amount && _investedamount <= max_Stake_amount */\n      dup1\n      iszero\n      tag_138\n      jumpi\n      pop\n        /* \"contracts/stake_reward_MLM.sol\":4091:4107  max_Stake_amount */\n      sload(0x06)\n        /* \"contracts/stake_reward_MLM.sol\":4072:4087  _investedamount */\n      dup4\n        /* \"contracts/stake_reward_MLM.sol\":4072:4107  _investedamount <= max_Stake_amount */\n      gt\n      iszero\n        /* \"contracts/stake_reward_MLM.sol\":4033:4107  _investedamount >= min_Stake_amount && _investedamount <= max_Stake_amount */\n    tag_138:\n        /* \"contracts/stake_reward_MLM.sol\":4025:4164  require(_investedamount >= min_Stake_amount && _investedamount <= max_Stake_amount,\"value is not greater than 10000 and less than 5000000\") */\n      tag_139\n      jumpi\n      mload(0x40)\n      0x08c379a000000000000000000000000000000000000000000000000000000000\n      dup2\n      mstore\n      0x04\n      add\n      tag_140\n      swap1\n      tag_141\n      jump\t// in\n    tag_140:\n      mload(0x40)\n      dup1\n      swap2\n      sub\n      swap1\n      revert\n    tag_139:\n        /* \"contracts/stake_reward_MLM.sol\":4293:4298  false */\n      0x00\n        /* \"contracts/stake_reward_MLM.sol\":4252:4298  DUSDinvestor[msg.sender].investBefore == false */\n      iszero\n      iszero\n        /* \"contracts/stake_reward_MLM.sol\":4252:4264  DUSDinvestor */\n      0x0c\n        /* \"contracts/stake_reward_MLM.sol\":4252:4276  DUSDinvestor[msg.sender] */\n      0x00\n        /* \"contracts/stake_reward_MLM.sol\":4265:4275  msg.sender */\n      caller\n        /* \"contracts/stake_reward_MLM.sol\":4252:4276  DUSDinvestor[msg.sender] */\n      0xffffffffffffffffffffffffffffffffffffffff\n      and\n      0xffffffffffffffffffffffffffffffffffffffff\n      and\n      dup2\n      mstore\n      0x20\n      add\n      swap1\n      dup2\n      mstore\n      0x20\n      add\n      0x00\n      keccak256\n        /* \"contracts/stake_reward_MLM.sol\":4252:4289  DUSDinvestor[msg.sender].investBefore */\n      0x08\n      add\n      0x00\n      swap1\n      sload\n      swap1\n      0x0100\n      exp\n      swap1\n      div\n      0xff\n      and\n        /* \"contracts/stake_reward_MLM.sol\":4252:4298  DUSDinvestor[msg.sender].investBefore == false */\n      iszero\n      iszero\n      eq\n        /* \"contracts/stake_reward_MLM.sol\":4249:4567  if(DUSDinvestor[msg.sender].investBefore == false)... */\n      iszero\n      tag_142\n      jumpi\n        /* \"contracts/stake_reward_MLM.sol\":4365:4375  msg.sender */\n      caller\n        /* \"contracts/stake_reward_MLM.sol\":4331:4344  All_investors */\n      0x0b\n        /* \"contracts/stake_reward_MLM.sol\":4331:4364  All_investors[totalDUSDInvestors] */\n      0x00\n        /* \"contracts/stake_reward_MLM.sol\":4345:4363  totalDUSDInvestors */\n      sload(0x03)\n        /* \"contracts/stake_reward_MLM.sol\":4331:4364  All_investors[totalDUSDInvestors] */\n      dup2\n      mstore\n      0x20\n      add\n      swap1\n      dup2\n      mstore\n      0x20\n      add\n      0x00\n      keccak256\n      0x00\n        /* \"contracts/stake_reward_MLM.sol\":4331:4375  All_investors[totalDUSDInvestors]=msg.sender */\n      0x0100\n      exp\n      dup2\n      sload\n      dup2\n      0xffffffffffffffffffffffffffffffffffffffff\n      mul\n      not\n      and\n      swap1\n      dup4\n      0xffffffffffffffffffffffffffffffffffffffff\n      and\n      mul\n      or\n      swap1\n      sstore\n      pop\n        /* \"contracts/stake_reward_MLM.sol\":4394:4412  totalDUSDInvestors */\n      0x03\n      0x00\n        /* \"contracts/stake_reward_MLM.sol\":4394:4414  totalDUSDInvestors++ */\n      dup2\n      sload\n      dup1\n      swap3\n      swap2\n      swap1\n      tag_143\n      swap1\n      tag_144\n      jump\t// in\n    tag_143:\n      swap2\n      swap1\n      pop\n      sstore\n      pop\n        /* \"contracts/stake_reward_MLM.sol\":4249:4567  if(DUSDinvestor[msg.sender].investBefore == false)... */\n      jump(tag_145)\n    tag_142:\n        /* \"contracts/stake_reward_MLM.sol\":4514:4526  DUSDinvestor */\n      0x0c\n        /* \"contracts/stake_reward_MLM.sol\":4514:4538  DUSDinvestor[msg.sender] */\n      0x00\n        /* \"contracts/stake_reward_MLM.sol\":4527:4537  msg.sender */\n      caller\n        /* \"contracts/stake_reward_MLM.sol\":4514:4538  DUSDinvestor[msg.sender] */\n      0xffffffffffffffffffffffffffffffffffffffff\n      and\n      0xffffffffffffffffffffffffffffffffffffffff\n      and\n      dup2\n      mstore\n      0x20\n      add\n      swap1\n      dup2\n      mstore\n      0x20\n      add\n      0x00\n      keccak256\n        /* \"contracts/stake_reward_MLM.sol\":4514:4551  DUSDinvestor[msg.sender].referralFrom */\n      0x02\n      add\n      0x00\n      swap1\n      sload\n      swap1\n      0x0100\n      exp\n      swap1\n      div\n      0xffffffffffffffffffffffffffffffffffffffff\n      and\n        /* \"contracts/stake_reward_MLM.sol\":4502:4551  _referral = DUSDinvestor[msg.sender].referralFrom */\n      swap2\n      pop\n        /* \"contracts/stake_reward_MLM.sol\":4249:4567  if(DUSDinvestor[msg.sender].investBefore == false)... */\n    tag_145:\n        /* \"contracts/stake_reward_MLM.sol\":4628:4629  0 */\n      0x00\n        /* \"contracts/stake_reward_MLM.sol\":4584:4596  DUSDinvestor */\n      0x0c\n        /* \"contracts/stake_reward_MLM.sol\":4584:4608  DUSDinvestor[msg.sender] */\n      0x00\n        /* \"contracts/stake_reward_MLM.sol\":4597:4607  msg.sender */\n      caller\n        /* \"contracts/stake_reward_MLM.sol\":4584:4608  DUSDinvestor[msg.sender] */\n      0xffffffffffffffffffffffffffffffffffffffff\n      and\n      0xffffffffffffffffffffffffffffffffffffffff\n      and\n      dup2\n      mstore\n      0x20\n      add\n      swap1\n      dup2\n      mstore\n      0x20\n      add\n      0x00\n      keccak256\n        /* \"contracts/stake_reward_MLM.sol\":4584:4624  DUSDinvestor[msg.sender].totalInvestment */\n      0x06\n      add\n      sload\n        /* \"contracts/stake_reward_MLM.sol\":4584:4629  DUSDinvestor[msg.sender].totalInvestment == 0 */\n      eq\n        /* \"contracts/stake_reward_MLM.sol\":4581:4740  if(DUSDinvestor[msg.sender].totalInvestment == 0)... */\n      iszero\n      tag_146\n      jumpi\n        /* \"contracts/stake_reward_MLM.sol\":4717:4725  365 days */\n      0x01e13380\n        /* \"contracts/stake_reward_MLM.sol\":4699:4714  block.timestamp */\n      timestamp\n        /* \"contracts/stake_reward_MLM.sol\":4699:4725  block.timestamp + 365 days */\n      tag_147\n      swap2\n      swap1\n      tag_148\n      jump\t// in\n    tag_147:\n        /* \"contracts/stake_reward_MLM.sol\":4662:4674  DUSDinvestor */\n      0x0c\n        /* \"contracts/stake_reward_MLM.sol\":4662:4686  DUSDinvestor[msg.sender] */\n      0x00\n        /* \"contracts/stake_reward_MLM.sol\":4675:4685  msg.sender */\n      caller\n        /* \"contracts/stake_reward_MLM.sol\":4662:4686  DUSDinvestor[msg.sender] */\n      0xffffffffffffffffffffffffffffffffffffffff\n      and\n      0xffffffffffffffffffffffffffffffffffffffff\n      and\n      dup2\n      mstore\n      0x20\n      add\n      swap1\n      dup2\n      mstore\n      0x20\n      add\n      0x00\n      keccak256\n        /* \"contracts/stake_reward_MLM.sol\":4662:4696  DUSDinvestor[msg.sender].stakeTime */\n      0x09\n      add\n        /* \"contracts/stake_reward_MLM.sol\":4662:4725  DUSDinvestor[msg.sender].stakeTime = block.timestamp + 365 days */\n      dup2\n      swap1\n      sstore\n      pop\n        /* \"contracts/stake_reward_MLM.sol\":4581:4740  if(DUSDinvestor[msg.sender].totalInvestment == 0)... */\n    tag_146:\n        /* \"contracts/stake_reward_MLM.sol\":4753:4761  uint num */\n      0x00\n        /* \"contracts/stake_reward_MLM.sol\":4764:4776  DUSDinvestor */\n      0x0c\n        /* \"contracts/stake_reward_MLM.sol\":4764:4788  DUSDinvestor[msg.sender] */\n      0x00\n        /* \"contracts/stake_reward_MLM.sol\":4777:4787  msg.sender */\n      caller\n        /* \"contracts/stake_reward_MLM.sol\":4764:4788  DUSDinvestor[msg.sender] */\n      0xffffffffffffffffffffffffffffffffffffffff\n      and\n      0xffffffffffffffffffffffffffffffffffffffff\n      and\n      dup2\n      mstore\n      0x20\n      add\n      swap1\n      dup2\n      mstore\n      0x20\n      add\n      0x00\n      keccak256\n        /* \"contracts/stake_reward_MLM.sol\":4764:4803  DUSDinvestor[msg.sender].noOfInvestment */\n      0x05\n      add\n      sload\n        /* \"contracts/stake_reward_MLM.sol\":4753:4803  uint num = DUSDinvestor[msg.sender].noOfInvestment */\n      swap1\n      pop\n        /* \"contracts/stake_reward_MLM.sol\":4874:4889  _investedamount */\n      dup4\n        /* \"contracts/stake_reward_MLM.sol\":4817:4829  DUSDinvestor */\n      0x0c\n        /* \"contracts/stake_reward_MLM.sol\":4817:4841  DUSDinvestor[msg.sender] */\n      0x00\n        /* \"contracts/stake_reward_MLM.sol\":4830:4840  msg.sender */\n      caller\n        /* \"contracts/stake_reward_MLM.sol\":4817:4841  DUSDinvestor[msg.sender] */\n      0xffffffffffffffffffffffffffffffffffffffff\n      and\n      0xffffffffffffffffffffffffffffffffffffffff\n      and\n      dup2\n      mstore\n      0x20\n      add\n      swap1\n      dup2\n      mstore\n      0x20\n      add\n      0x00\n      keccak256\n        /* \"contracts/stake_reward_MLM.sol\":4817:4852  DUSDinvestor[msg.sender].investment */\n      0x00\n      add\n        /* \"contracts/stake_reward_MLM.sol\":4817:4857  DUSDinvestor[msg.sender].investment[num] */\n      0x00\n        /* \"contracts/stake_reward_MLM.sol\":4853:4856  num */\n      dup4\n        /* \"contracts/stake_reward_MLM.sol\":4817:4857  DUSDinvestor[msg.sender].investment[num] */\n      dup2\n      mstore\n      0x20\n      add\n      swap1\n      dup2\n      mstore\n      0x20\n      add\n      0x00\n      keccak256\n        /* \"contracts/stake_reward_MLM.sol\":4817:4872  DUSDinvestor[msg.sender].investment[num].investedAmount */\n      0x00\n      add\n        /* \"contracts/stake_reward_MLM.sol\":4817:4889  DUSDinvestor[msg.sender].investment[num].investedAmount =_investedamount */\n      dup2\n      swap1\n      sstore\n      pop\n        /* \"contracts/stake_reward_MLM.sol\":4956:4971  block.timestamp */\n      timestamp\n        /* \"contracts/stake_reward_MLM.sol\":4903:4915  DUSDinvestor */\n      0x0c\n        /* \"contracts/stake_reward_MLM.sol\":4903:4927  DUSDinvestor[msg.sender] */\n      0x00\n        /* \"contracts/stake_reward_MLM.sol\":4916:4926  msg.sender */\n      caller\n        /* \"contracts/stake_reward_MLM.sol\":4903:4927  DUSDinvestor[msg.sender] */\n      0xffffffffffffffffffffffffffffffffffffffff\n      and\n      0xffffffffffffffffffffffffffffffffffffffff\n      and\n      dup2\n      mstore\n      0x20\n      add\n      swap1\n      dup2\n      mstore\n      0x20\n      add\n      0x00\n      keccak256\n        /* \"contracts/stake_reward_MLM.sol\":4903:4938  DUSDinvestor[msg.sender].investment */\n      0x00\n      add\n        /* \"contracts/stake_reward_MLM.sol\":4903:4943  DUSDinvestor[msg.sender].investment[num] */\n      0x00\n        /* \"contracts/stake_reward_MLM.sol\":4939:4942  num */\n      dup4\n        /* \"contracts/stake_reward_MLM.sol\":4903:4943  DUSDinvestor[msg.sender].investment[num] */\n      dup2\n      mstore\n      0x20\n      add\n      swap1\n      dup2\n      mstore\n      0x20\n      add\n      0x00\n      keccak256\n        /* \"contracts/stake_reward_MLM.sol\":4903:4955  DUSDinvestor[msg.sender].investment[num].DepositTime */\n      0x02\n      add\n        /* \"contracts/stake_reward_MLM.sol\":4903:4971  DUSDinvestor[msg.sender].investment[num].DepositTime=block.timestamp */\n      dup2\n      swap1\n      sstore\n      pop\n        /* \"contracts/stake_reward_MLM.sol\":5058:5074  investmentPeriod */\n      sload(0x08)\n        /* \"contracts/stake_reward_MLM.sol\":5040:5055  block.timestamp */\n      timestamp\n        /* \"contracts/stake_reward_MLM.sol\":5040:5074  block.timestamp + investmentPeriod */\n      tag_149\n      swap2\n      swap1\n      tag_148\n      jump\t// in\n    tag_149:\n        /* \"contracts/stake_reward_MLM.sol\":4985:4997  DUSDinvestor */\n      0x0c\n        /* \"contracts/stake_reward_MLM.sol\":4985:5009  DUSDinvestor[msg.sender] */\n      0x00\n        /* \"contracts/stake_reward_MLM.sol\":4998:5008  msg.sender */\n      caller\n        /* \"contracts/stake_reward_MLM.sol\":4985:5009  DUSDinvestor[msg.sender] */\n      0xffffffffffffffffffffffffffffffffffffffff\n      and\n      0xffffffffffffffffffffffffffffffffffffffff\n      and\n      dup2\n      mstore\n      0x20\n      add\n      swap1\n      dup2\n      mstore\n      0x20\n      add\n      0x00\n      keccak256\n        /* \"contracts/stake_reward_MLM.sol\":4985:5020  DUSDinvestor[msg.sender].investment */\n      0x00\n      add\n        /* \"contracts/stake_reward_MLM.sol\":4985:5025  DUSDinvestor[msg.sender].investment[num] */\n      0x00\n        /* \"contracts/stake_reward_MLM.sol\":5021:5024  num */\n      dup4\n        /* \"contracts/stake_reward_MLM.sol\":4985:5025  DUSDinvestor[msg.sender].investment[num] */\n      dup2\n      mstore\n      0x20\n      add\n      swap1\n      dup2\n      mstore\n      0x20\n      add\n      0x00\n      keccak256\n        /* \"contracts/stake_reward_MLM.sol\":4985:5039  DUSDinvestor[msg.sender].investment[num].withdrawnTime */\n      0x01\n      add\n        /* \"contracts/stake_reward_MLM.sol\":4985:5074  DUSDinvestor[msg.sender].investment[num].withdrawnTime=block.timestamp + investmentPeriod */\n      dup2\n      swap1\n      sstore\n      pop\n        /* \"contracts/stake_reward_MLM.sol\":5157:5160  num */\n      dup1\n        /* \"contracts/stake_reward_MLM.sol\":5102:5114  DUSDinvestor */\n      0x0c\n        /* \"contracts/stake_reward_MLM.sol\":5102:5126  DUSDinvestor[msg.sender] */\n      0x00\n        /* \"contracts/stake_reward_MLM.sol\":5115:5125  msg.sender */\n      caller\n        /* \"contracts/stake_reward_MLM.sol\":5102:5126  DUSDinvestor[msg.sender] */\n      0xffffffffffffffffffffffffffffffffffffffff\n      and\n      0xffffffffffffffffffffffffffffffffffffffff\n      and\n      dup2\n      mstore\n      0x20\n      add\n      swap1\n      dup2\n      mstore\n      0x20\n      add\n      0x00\n      keccak256\n        /* \"contracts/stake_reward_MLM.sol\":5102:5137  DUSDinvestor[msg.sender].investment */\n      0x00\n      add\n        /* \"contracts/stake_reward_MLM.sol\":5102:5142  DUSDinvestor[msg.sender].investment[num] */\n      0x00\n        /* \"contracts/stake_reward_MLM.sol\":5138:5141  num */\n      dup4\n        /* \"contracts/stake_reward_MLM.sol\":5102:5142  DUSDinvestor[msg.sender].investment[num] */\n      dup2\n      mstore\n      0x20\n      add\n      swap1\n      dup2\n      mstore\n      0x20\n      add\n      0x00\n      keccak256\n        /* \"contracts/stake_reward_MLM.sol\":5102:5156  DUSDinvestor[msg.sender].investment[num].investmentNum */\n      0x03\n      add\n        /* \"contracts/stake_reward_MLM.sol\":5102:5160  DUSDinvestor[msg.sender].investment[num].investmentNum=num */\n      dup2\n      swap1\n      sstore\n      pop\n        /* \"contracts/stake_reward_MLM.sol\":5216:5231  _investedamount */\n      dup4\n        /* \"contracts/stake_reward_MLM.sol\":5174:5186  DUSDinvestor */\n      0x0c\n        /* \"contracts/stake_reward_MLM.sol\":5174:5198  DUSDinvestor[msg.sender] */\n      0x00\n        /* \"contracts/stake_reward_MLM.sol\":5187:5197  msg.sender */\n      caller\n        /* \"contracts/stake_reward_MLM.sol\":5174:5198  DUSDinvestor[msg.sender] */\n      0xffffffffffffffffffffffffffffffffffffffff\n      and\n      0xffffffffffffffffffffffffffffffffffffffff\n      and\n      dup2\n      mstore\n      0x20\n      add\n      swap1\n      dup2\n      mstore\n      0x20\n      add\n      0x00\n      keccak256\n        /* \"contracts/stake_reward_MLM.sol\":5174:5214  DUSDinvestor[msg.sender].totalInvestment */\n      0x06\n      add\n      0x00\n        /* \"contracts/stake_reward_MLM.sol\":5174:5231  DUSDinvestor[msg.sender].totalInvestment+=_investedamount */\n      dup3\n      dup3\n      sload\n      tag_150\n      swap2\n      swap1\n      tag_148\n      jump\t// in\n    tag_150:\n      swap3\n      pop\n      pop\n      dup2\n      swap1\n      sstore\n      pop\n        /* \"contracts/stake_reward_MLM.sol\":5245:5257  DUSDinvestor */\n      0x0c\n        /* \"contracts/stake_reward_MLM.sol\":5245:5269  DUSDinvestor[msg.sender] */\n      0x00\n        /* \"contracts/stake_reward_MLM.sol\":5258:5268  msg.sender */\n      caller\n        /* \"contracts/stake_reward_MLM.sol\":5245:5269  DUSDinvestor[msg.sender] */\n      0xffffffffffffffffffffffffffffffffffffffff\n      and\n      0xffffffffffffffffffffffffffffffffffffffff\n      and\n      dup2\n      mstore\n      0x20\n      add\n      swap1\n      dup2\n      mstore\n      0x20\n      add\n      0x00\n      keccak256\n        /* \"contracts/stake_reward_MLM.sol\":5245:5284  DUSDinvestor[msg.sender].noOfInvestment */\n      0x05\n      add\n      0x00\n        /* \"contracts/stake_reward_MLM.sol\":5245:5286  DUSDinvestor[msg.sender].noOfInvestment++ */\n      dup2\n      sload\n      dup1\n      swap3\n      swap2\n      swap1\n      tag_151\n      swap1\n      tag_144\n      jump\t// in\n    tag_151:\n      swap2\n      swap1\n      pop\n      sstore\n      pop\n        /* \"contracts/stake_reward_MLM.sol\":5315:5330  _investedamount */\n      dup4\n        /* \"contracts/stake_reward_MLM.sol\":5300:5313  totalbusiness */\n      0x09\n      0x00\n        /* \"contracts/stake_reward_MLM.sol\":5300:5330  totalbusiness+=_investedamount */\n      dup3\n      dup3\n      sload\n      tag_152\n      swap2\n      swap1\n      tag_148\n      jump\t// in\n    tag_152:\n      swap3\n      pop\n      pop\n      dup2\n      swap1\n      sstore\n      pop\n        /* \"contracts/stake_reward_MLM.sol\":5349:5360  SMCcontract */\n      0x01\n      0x00\n      swap1\n      sload\n      swap1\n      0x0100\n      exp\n      swap1\n      div\n      0xffffffffffffffffffffffffffffffffffffffff\n      and\n        /* \"contracts/stake_reward_MLM.sol\":5344:5374  DUSD(SMCcontract).transferFrom */\n      0xffffffffffffffffffffffffffffffffffffffff\n      and\n      0x23b872dd\n        /* \"contracts/stake_reward_MLM.sol\":5375:5385  msg.sender */\n      caller\n        /* \"contracts/stake_reward_MLM.sol\":5394:5398  this */\n      address\n        /* \"contracts/stake_reward_MLM.sol\":5416:5421  10**8 */\n      0x05f5e100\n        /* \"contracts/stake_reward_MLM.sol\":5400:5415  _investedamount */\n      dup9\n        /* \"contracts/stake_reward_MLM.sol\":5400:5421  _investedamount*10**8 */\n      tag_153\n      swap2\n      swap1\n      tag_154\n      jump\t// in\n    tag_153:\n        /* \"contracts/stake_reward_MLM.sol\":5344:5422  DUSD(SMCcontract).transferFrom(msg.sender,address(this),_investedamount*10**8) */\n      mload(0x40)\n      dup5\n      0xffffffff\n      and\n      0xe0\n      shl\n      dup2\n      mstore\n      0x04\n      add\n      tag_155\n      swap4\n      swap3\n      swap2\n      swap1\n      tag_156\n      jump\t// in\n    tag_155:\n      0x20\n      mload(0x40)\n      dup1\n      dup4\n      sub\n      dup2\n      0x00\n      dup8\n      dup1\n      extcodesize\n      iszero\n      dup1\n      iszero\n      tag_157\n      jumpi\n      0x00\n      dup1\n      revert\n    tag_157:\n      pop\n      gas\n      call\n      iszero\n      dup1\n      iszero\n      tag_159\n      jumpi\n      returndatasize\n      0x00\n      dup1\n      returndatacopy\n      revert(0x00, returndatasize)\n    tag_159:\n      pop\n      pop\n      pop\n      pop\n      mload(0x40)\n      returndatasize\n      not(0x1f)\n      0x1f\n      dup3\n      add\n      and\n      dup3\n      add\n      dup1\n      0x40\n      mstore\n      pop\n      dup2\n      add\n      swap1\n      tag_160\n      swap2\n      swap1\n      tag_161\n      jump\t// in\n    tag_160:\n      pop\n        /* \"contracts/stake_reward_MLM.sol\":6235:6239  true */\n      0x01\n        /* \"contracts/stake_reward_MLM.sol\":6197:6209  DUSDinvestor */\n      0x0c\n        /* \"contracts/stake_reward_MLM.sol\":6197:6221  DUSDinvestor[msg.sender] */\n      0x00\n        /* \"contracts/stake_reward_MLM.sol\":6210:6220  msg.sender */\n      caller\n        /* \"contracts/stake_reward_MLM.sol\":6197:6221  DUSDinvestor[msg.sender] */\n      0xffffffffffffffffffffffffffffffffffffffff\n      and\n      0xffffffffffffffffffffffffffffffffffffffff\n      and\n      dup2\n      mstore\n      0x20\n      add\n      swap1\n      dup2\n      mstore\n      0x20\n      add\n      0x00\n      keccak256\n        /* \"contracts/stake_reward_MLM.sol\":6197:6234  DUSDinvestor[msg.sender].investBefore */\n      0x08\n      add\n      0x00\n        /* \"contracts/stake_reward_MLM.sol\":6197:6239  DUSDinvestor[msg.sender].investBefore=true */\n      0x0100\n      exp\n      dup2\n      sload\n      dup2\n      0xff\n      mul\n      not\n      and\n      swap1\n      dup4\n      iszero\n      iszero\n      mul\n      or\n      swap1\n      sstore\n      pop\n        /* \"contracts/stake_reward_MLM.sol\":6261:6265  true */\n      0x01\n        /* \"contracts/stake_reward_MLM.sol\":6254:6265  return true */\n      swap2\n      pop\n      pop\n        /* \"contracts/stake_reward_MLM.sol\":3926:6289  function Stake(uint _investedamount,address _referral) external returns(bool success){... */\n      swap3\n      swap2\n      pop\n      pop\n      jump\t// out\n        /* \"contracts/stake_reward_MLM.sol\":13023:13134  function set_min_Stake_amount(uint _amount) public ... */\n    tag_56:\n        /* \"contracts/stake_reward_MLM.sol\":13116:13123  _amount */\n      dup1\n        /* \"contracts/stake_reward_MLM.sol\":13097:13113  min_Stake_amount */\n      0x05\n        /* \"contracts/stake_reward_MLM.sol\":13097:13123  min_Stake_amount = _amount */\n      dup2\n      swap1\n      sstore\n      pop\n        /* \"contracts/stake_reward_MLM.sol\":13023:13134  function set_min_Stake_amount(uint _amount) public ... */\n      pop\n      jump\t// out\n        /* \"contracts/stake_reward_MLM.sol\":11223:12206  function getAllDUSDinvestments() public view returns (allInvestments[] memory) { //this function will return the all investments of the investor and withware date... */\n    tag_58:\n        /* \"contracts/stake_reward_MLM.sol\":11277:11300  allInvestments[] memory */\n      0x60\n        /* \"contracts/stake_reward_MLM.sol\":11398:11406  uint num */\n      0x00\n        /* \"contracts/stake_reward_MLM.sol\":11409:11421  DUSDinvestor */\n      0x0c\n        /* \"contracts/stake_reward_MLM.sol\":11409:11433  DUSDinvestor[msg.sender] */\n      0x00\n        /* \"contracts/stake_reward_MLM.sol\":11422:11432  msg.sender */\n      caller\n        /* \"contracts/stake_reward_MLM.sol\":11409:11433  DUSDinvestor[msg.sender] */\n      0xffffffffffffffffffffffffffffffffffffffff\n      and\n      0xffffffffffffffffffffffffffffffffffffffff\n      and\n      dup2\n      mstore\n      0x20\n      add\n      swap1\n      dup2\n      mstore\n      0x20\n      add\n      0x00\n      keccak256\n        /* \"contracts/stake_reward_MLM.sol\":11409:11448  DUSDinvestor[msg.sender].noOfInvestment */\n      0x05\n      add\n      sload\n        /* \"contracts/stake_reward_MLM.sol\":11398:11448  uint num = DUSDinvestor[msg.sender].noOfInvestment */\n      swap1\n      pop\n        /* \"contracts/stake_reward_MLM.sol\":11462:11471  uint temp */\n      0x00\n        /* \"contracts/stake_reward_MLM.sol\":11485:11502  uint currentIndex */\n      dup1\n        /* \"contracts/stake_reward_MLM.sol\":11533:11539  uint i */\n      0x00\n        /* \"contracts/stake_reward_MLM.sol\":11529:11705  for(uint i=0;i<num;i++)... */\n    tag_164:\n        /* \"contracts/stake_reward_MLM.sol\":11544:11547  num */\n      dup4\n        /* \"contracts/stake_reward_MLM.sol\":11542:11543  i */\n      dup2\n        /* \"contracts/stake_reward_MLM.sol\":11542:11547  i<num */\n      lt\n        /* \"contracts/stake_reward_MLM.sol\":11529:11705  for(uint i=0;i<num;i++)... */\n      iszero\n      tag_165\n      jumpi\n        /* \"contracts/stake_reward_MLM.sol\":11642:11643  0 */\n      0x00\n        /* \"contracts/stake_reward_MLM.sol\":11586:11598  DUSDinvestor */\n      0x0c\n        /* \"contracts/stake_reward_MLM.sol\":11586:11610  DUSDinvestor[msg.sender] */\n      0x00\n        /* \"contracts/stake_reward_MLM.sol\":11599:11609  msg.sender */\n      caller\n        /* \"contracts/stake_reward_MLM.sol\":11586:11610  DUSDinvestor[msg.sender] */\n      0xffffffffffffffffffffffffffffffffffffffff\n      and\n      0xffffffffffffffffffffffffffffffffffffffff\n      and\n      dup2\n      mstore\n      0x20\n      add\n      swap1\n      dup2\n      mstore\n      0x20\n      add\n      0x00\n      keccak256\n        /* \"contracts/stake_reward_MLM.sol\":11586:11621  DUSDinvestor[msg.sender].investment */\n      0x00\n      add\n        /* \"contracts/stake_reward_MLM.sol\":11586:11624  DUSDinvestor[msg.sender].investment[i] */\n      0x00\n        /* \"contracts/stake_reward_MLM.sol\":11622:11623  i */\n      dup4\n        /* \"contracts/stake_reward_MLM.sol\":11586:11624  DUSDinvestor[msg.sender].investment[i] */\n      dup2\n      mstore\n      0x20\n      add\n      swap1\n      dup2\n      mstore\n      0x20\n      add\n      0x00\n      keccak256\n        /* \"contracts/stake_reward_MLM.sol\":11586:11639  DUSDinvestor[msg.sender].investment[i].investedAmount */\n      0x00\n      add\n      sload\n        /* \"contracts/stake_reward_MLM.sol\":11586:11643  DUSDinvestor[msg.sender].investment[i].investedAmount > 0 */\n      gt\n        /* \"contracts/stake_reward_MLM.sol\":11582:11690  if( DUSDinvestor[msg.sender].investment[i].investedAmount > 0 ){... */\n      iszero\n      tag_167\n      jumpi\n        /* \"contracts/stake_reward_MLM.sol\":11666:11672  temp++ */\n      dup3\n      dup1\n      tag_168\n      swap1\n      tag_144\n      jump\t// in\n    tag_168:\n      swap4\n      pop\n      pop\n        /* \"contracts/stake_reward_MLM.sol\":11582:11690  if( DUSDinvestor[msg.sender].investment[i].investedAmount > 0 ){... */\n    tag_167:\n        /* \"contracts/stake_reward_MLM.sol\":11548:11551  i++ */\n      dup1\n      dup1\n      tag_169\n      swap1\n      tag_144\n      jump\t// in\n    tag_169:\n      swap2\n      pop\n      pop\n        /* \"contracts/stake_reward_MLM.sol\":11529:11705  for(uint i=0;i<num;i++)... */\n      jump(tag_164)\n    tag_165:\n      pop\n        /* \"contracts/stake_reward_MLM.sol\":11728:11760  allInvestments[] memory Invested */\n      0x00\n        /* \"contracts/stake_reward_MLM.sol\":11785:11789  temp */\n      dup3\n        /* \"contracts/stake_reward_MLM.sol\":11764:11790  new allInvestments[](temp) */\n      0xffffffffffffffff\n      dup2\n      gt\n      iszero\n      tag_170\n      jumpi\n      tag_171\n      tag_172\n      jump\t// in\n    tag_171:\n    tag_170:\n      mload(0x40)\n      swap1\n      dup1\n      dup3\n      mstore\n      dup1\n      0x20\n      mul\n      0x20\n      add\n      dup3\n      add\n      0x40\n      mstore\n      dup1\n      iszero\n      tag_173\n      jumpi\n      dup2\n      0x20\n      add\n    tag_174:\n      tag_175\n      tag_176\n      jump\t// in\n    tag_175:\n      dup2\n      mstore\n      0x20\n      add\n      swap1\n      0x01\n      swap1\n      sub\n      swap1\n      dup2\n      tag_174\n      jumpi\n      swap1\n      pop\n    tag_173:\n      pop\n        /* \"contracts/stake_reward_MLM.sol\":11728:11790  allInvestments[] memory Invested =  new allInvestments[](temp) */\n      swap1\n      pop\n        /* \"contracts/stake_reward_MLM.sol\":11810:11816  uint i */\n      0x00\n        /* \"contracts/stake_reward_MLM.sol\":11806:12166  for(uint i=0;i<num;i++)... */\n    tag_177:\n        /* \"contracts/stake_reward_MLM.sol\":11821:11824  num */\n      dup5\n        /* \"contracts/stake_reward_MLM.sol\":11819:11820  i */\n      dup2\n        /* \"contracts/stake_reward_MLM.sol\":11819:11824  i<num */\n      lt\n        /* \"contracts/stake_reward_MLM.sol\":11806:12166  for(uint i=0;i<num;i++)... */\n      iszero\n      tag_178\n      jumpi\n        /* \"contracts/stake_reward_MLM.sol\":11919:11920  0 */\n      0x00\n        /* \"contracts/stake_reward_MLM.sol\":11863:11875  DUSDinvestor */\n      0x0c\n        /* \"contracts/stake_reward_MLM.sol\":11863:11887  DUSDinvestor[msg.sender] */\n      0x00\n        /* \"contracts/stake_reward_MLM.sol\":11876:11886  msg.sender */\n      caller\n        /* \"contracts/stake_reward_MLM.sol\":11863:11887  DUSDinvestor[msg.sender] */\n      0xffffffffffffffffffffffffffffffffffffffff\n      and\n      0xffffffffffffffffffffffffffffffffffffffff\n      and\n      dup2\n      mstore\n      0x20\n      add\n      swap1\n      dup2\n      mstore\n      0x20\n      add\n      0x00\n      keccak256\n        /* \"contracts/stake_reward_MLM.sol\":11863:11898  DUSDinvestor[msg.sender].investment */\n      0x00\n      add\n        /* \"contracts/stake_reward_MLM.sol\":11863:11901  DUSDinvestor[msg.sender].investment[i] */\n      0x00\n        /* \"contracts/stake_reward_MLM.sol\":11899:11900  i */\n      dup4\n        /* \"contracts/stake_reward_MLM.sol\":11863:11901  DUSDinvestor[msg.sender].investment[i] */\n      dup2\n      mstore\n      0x20\n      add\n      swap1\n      dup2\n      mstore\n      0x20\n      add\n      0x00\n      keccak256\n        /* \"contracts/stake_reward_MLM.sol\":11863:11916  DUSDinvestor[msg.sender].investment[i].investedAmount */\n      0x00\n      add\n      sload\n        /* \"contracts/stake_reward_MLM.sol\":11863:11920  DUSDinvestor[msg.sender].investment[i].investedAmount > 0 */\n      gt\n        /* \"contracts/stake_reward_MLM.sol\":11859:12151  if( DUSDinvestor[msg.sender].investment[i].investedAmount > 0 ){... */\n      iszero\n      tag_180\n      jumpi\n        /* \"contracts/stake_reward_MLM.sol\":12060:12072  DUSDinvestor */\n      0x0c\n        /* \"contracts/stake_reward_MLM.sol\":12060:12084  DUSDinvestor[msg.sender] */\n      0x00\n        /* \"contracts/stake_reward_MLM.sol\":12073:12083  msg.sender */\n      caller\n        /* \"contracts/stake_reward_MLM.sol\":12060:12084  DUSDinvestor[msg.sender] */\n      0xffffffffffffffffffffffffffffffffffffffff\n      and\n      0xffffffffffffffffffffffffffffffffffffffff\n      and\n      dup2\n      mstore\n      0x20\n      add\n      swap1\n      dup2\n      mstore\n      0x20\n      add\n      0x00\n      keccak256\n        /* \"contracts/stake_reward_MLM.sol\":12060:12095  DUSDinvestor[msg.sender].investment */\n      0x00\n      add\n        /* \"contracts/stake_reward_MLM.sol\":12060:12098  DUSDinvestor[msg.sender].investment[i] */\n      0x00\n        /* \"contracts/stake_reward_MLM.sol\":12096:12097  i */\n      dup3\n        /* \"contracts/stake_reward_MLM.sol\":12060:12098  DUSDinvestor[msg.sender].investment[i] */\n      dup2\n      mstore\n      0x20\n      add\n      swap1\n      dup2\n      mstore\n      0x20\n      add\n      0x00\n      keccak256\n        /* \"contracts/stake_reward_MLM.sol\":12037:12098  Invested[currentIndex]=DUSDinvestor[msg.sender].investment[i] */\n      mload(0x40)\n      dup1\n      0xc0\n      add\n      0x40\n      mstore\n      swap1\n      dup2\n      0x00\n      dup3\n      add\n      sload\n      dup2\n      mstore\n      0x20\n      add\n      0x01\n      dup3\n      add\n      sload\n      dup2\n      mstore\n      0x20\n      add\n      0x02\n      dup3\n      add\n      sload\n      dup2\n      mstore\n      0x20\n      add\n      0x03\n      dup3\n      add\n      sload\n      dup2\n      mstore\n      0x20\n      add\n      0x04\n      dup3\n      add\n      sload\n      dup2\n      mstore\n      0x20\n      add\n      0x05\n      dup3\n      add\n      0x00\n      swap1\n      sload\n      swap1\n      0x0100\n      exp\n      swap1\n      div\n      0xff\n      and\n      iszero\n      iszero\n      iszero\n      iszero\n      dup2\n      mstore\n      pop\n      pop\n        /* \"contracts/stake_reward_MLM.sol\":12037:12045  Invested */\n      dup3\n        /* \"contracts/stake_reward_MLM.sol\":12046:12058  currentIndex */\n      dup5\n        /* \"contracts/stake_reward_MLM.sol\":12037:12059  Invested[currentIndex] */\n      dup2\n      mload\n      dup2\n      lt\n      tag_181\n      jumpi\n      tag_182\n      tag_183\n      jump\t// in\n    tag_182:\n    tag_181:\n      0x20\n      mul\n      0x20\n      add\n      add\n        /* \"contracts/stake_reward_MLM.sol\":12037:12098  Invested[currentIndex]=DUSDinvestor[msg.sender].investment[i] */\n      dup2\n      swap1\n      mstore\n      pop\n        /* \"contracts/stake_reward_MLM.sol\":12119:12133  currentIndex++ */\n      dup3\n      dup1\n      tag_184\n      swap1\n      tag_144\n      jump\t// in\n    tag_184:\n      swap4\n      pop\n      pop\n        /* \"contracts/stake_reward_MLM.sol\":11859:12151  if( DUSDinvestor[msg.sender].investment[i].investedAmount > 0 ){... */\n    tag_180:\n        /* \"contracts/stake_reward_MLM.sol\":11825:11828  i++ */\n      dup1\n      dup1\n      tag_185\n      swap1\n      tag_144\n      jump\t// in\n    tag_185:\n      swap2\n      pop\n      pop\n        /* \"contracts/stake_reward_MLM.sol\":11806:12166  for(uint i=0;i<num;i++)... */\n      jump(tag_177)\n    tag_178:\n      pop\n        /* \"contracts/stake_reward_MLM.sol\":12186:12194  Invested */\n      dup1\n        /* \"contracts/stake_reward_MLM.sol\":12179:12194  return Invested */\n      swap5\n      pop\n      pop\n      pop\n      pop\n      pop\n        /* \"contracts/stake_reward_MLM.sol\":11223:12206  function getAllDUSDinvestments() public view returns (allInvestments[] memory) { //this function will return the all investments of the investor and withware date... */\n      swap1\n      jump\t// out\n        /* \"contracts/stake_reward_MLM.sol\":6299:7489  function getReward() view public returns(uint){ //this function is get the total reward balance of the investor... */\n    tag_62:\n        /* \"contracts/stake_reward_MLM.sol\":6340:6344  uint */\n      0x00\n        /* \"contracts/stake_reward_MLM.sol\":6423:6439  uint totalReward */\n      dup1\n        /* \"contracts/stake_reward_MLM.sol\":6453:6465  uint depTime */\n      0x00\n        /* \"contracts/stake_reward_MLM.sol\":6479:6487  uint rew */\n      dup1\n        /* \"contracts/stake_reward_MLM.sol\":6501:6510  uint temp */\n      0x00\n        /* \"contracts/stake_reward_MLM.sol\":6513:6525  DUSDinvestor */\n      0x0c\n        /* \"contracts/stake_reward_MLM.sol\":6513:6537  DUSDinvestor[msg.sender] */\n      0x00\n        /* \"contracts/stake_reward_MLM.sol\":6526:6536  msg.sender */\n      caller\n        /* \"contracts/stake_reward_MLM.sol\":6513:6537  DUSDinvestor[msg.sender] */\n      0xffffffffffffffffffffffffffffffffffffffff\n      and\n      0xffffffffffffffffffffffffffffffffffffffff\n      and\n      dup2\n      mstore\n      0x20\n      add\n      swap1\n      dup2\n      mstore\n      0x20\n      add\n      0x00\n      keccak256\n        /* \"contracts/stake_reward_MLM.sol\":6513:6552  DUSDinvestor[msg.sender].noOfInvestment */\n      0x05\n      add\n      sload\n        /* \"contracts/stake_reward_MLM.sol\":6501:6552  uint temp = DUSDinvestor[msg.sender].noOfInvestment */\n      swap1\n      pop\n        /* \"contracts/stake_reward_MLM.sol\":6571:6577  uint i */\n      0x00\n        /* \"contracts/stake_reward_MLM.sol\":6566:7372  for( uint i = 0;i < temp;i++)... */\n    tag_187:\n        /* \"contracts/stake_reward_MLM.sol\":6586:6590  temp */\n      dup2\n        /* \"contracts/stake_reward_MLM.sol\":6582:6583  i */\n      dup2\n        /* \"contracts/stake_reward_MLM.sol\":6582:6590  i < temp */\n      lt\n        /* \"contracts/stake_reward_MLM.sol\":6566:7372  for( uint i = 0;i < temp;i++)... */\n      iszero\n      tag_188\n      jumpi\n        /* \"contracts/stake_reward_MLM.sol\":6633:6645  DUSDinvestor */\n      0x0c\n        /* \"contracts/stake_reward_MLM.sol\":6633:6657  DUSDinvestor[msg.sender] */\n      0x00\n        /* \"contracts/stake_reward_MLM.sol\":6646:6656  msg.sender */\n      caller\n        /* \"contracts/stake_reward_MLM.sol\":6633:6657  DUSDinvestor[msg.sender] */\n      0xffffffffffffffffffffffffffffffffffffffff\n      and\n      0xffffffffffffffffffffffffffffffffffffffff\n      and\n      dup2\n      mstore\n      0x20\n      add\n      swap1\n      dup2\n      mstore\n      0x20\n      add\n      0x00\n      keccak256\n        /* \"contracts/stake_reward_MLM.sol\":6633:6668  DUSDinvestor[msg.sender].investment */\n      0x00\n      add\n        /* \"contracts/stake_reward_MLM.sol\":6633:6671  DUSDinvestor[msg.sender].investment[i] */\n      0x00\n        /* \"contracts/stake_reward_MLM.sol\":6669:6670  i */\n      dup3\n        /* \"contracts/stake_reward_MLM.sol\":6633:6671  DUSDinvestor[msg.sender].investment[i] */\n      dup2\n      mstore\n      0x20\n      add\n      swap1\n      dup2\n      mstore\n      0x20\n      add\n      0x00\n      keccak256\n        /* \"contracts/stake_reward_MLM.sol\":6633:6679  DUSDinvestor[msg.sender].investment[i].unstake */\n      0x05\n      add\n      0x00\n      swap1\n      sload\n      swap1\n      0x0100\n      exp\n      swap1\n      div\n      0xff\n      and\n        /* \"contracts/stake_reward_MLM.sol\":6629:6989  if(!DUSDinvestor[msg.sender].investment[i].unstake)... */\n      tag_190\n      jumpi\n        /* \"contracts/stake_reward_MLM.sol\":6746:6758  DUSDinvestor */\n      0x0c\n        /* \"contracts/stake_reward_MLM.sol\":6746:6770  DUSDinvestor[msg.sender] */\n      0x00\n        /* \"contracts/stake_reward_MLM.sol\":6759:6769  msg.sender */\n      caller\n        /* \"contracts/stake_reward_MLM.sol\":6746:6770  DUSDinvestor[msg.sender] */\n      0xffffffffffffffffffffffffffffffffffffffff\n      and\n      0xffffffffffffffffffffffffffffffffffffffff\n      and\n      dup2\n      mstore\n      0x20\n      add\n      swap1\n      dup2\n      mstore\n      0x20\n      add\n      0x00\n      keccak256\n        /* \"contracts/stake_reward_MLM.sol\":6746:6781  DUSDinvestor[msg.sender].investment */\n      0x00\n      add\n        /* \"contracts/stake_reward_MLM.sol\":6746:6784  DUSDinvestor[msg.sender].investment[i] */\n      0x00\n        /* \"contracts/stake_reward_MLM.sol\":6782:6783  i */\n      dup3\n        /* \"contracts/stake_reward_MLM.sol\":6746:6784  DUSDinvestor[msg.sender].investment[i] */\n      dup2\n      mstore\n      0x20\n      add\n      swap1\n      dup2\n      mstore\n      0x20\n      add\n      0x00\n      keccak256\n        /* \"contracts/stake_reward_MLM.sol\":6746:6796  DUSDinvestor[msg.sender].investment[i].DepositTime */\n      0x02\n      add\n      sload\n        /* \"contracts/stake_reward_MLM.sol\":6728:6743  block.timestamp */\n      timestamp\n        /* \"contracts/stake_reward_MLM.sol\":6728:6796  block.timestamp - DUSDinvestor[msg.sender].investment[i].DepositTime */\n      tag_191\n      swap2\n      swap1\n      tag_192\n      jump\t// in\n    tag_191:\n        /* \"contracts/stake_reward_MLM.sol\":6719:6796  depTime =block.timestamp - DUSDinvestor[msg.sender].investment[i].DepositTime */\n      swap4\n      pop\n        /* \"contracts/stake_reward_MLM.sol\":6629:6989  if(!DUSDinvestor[msg.sender].investment[i].unstake)... */\n      jump(tag_193)\n    tag_190:\n        /* \"contracts/stake_reward_MLM.sol\":6920:6932  DUSDinvestor */\n      0x0c\n        /* \"contracts/stake_reward_MLM.sol\":6920:6944  DUSDinvestor[msg.sender] */\n      0x00\n        /* \"contracts/stake_reward_MLM.sol\":6933:6943  msg.sender */\n      caller\n        /* \"contracts/stake_reward_MLM.sol\":6920:6944  DUSDinvestor[msg.sender] */\n      0xffffffffffffffffffffffffffffffffffffffff\n      and\n      0xffffffffffffffffffffffffffffffffffffffff\n      and\n      dup2\n      mstore\n      0x20\n      add\n      swap1\n      dup2\n      mstore\n      0x20\n      add\n      0x00\n      keccak256\n        /* \"contracts/stake_reward_MLM.sol\":6920:6955  DUSDinvestor[msg.sender].investment */\n      0x00\n      add\n        /* \"contracts/stake_reward_MLM.sol\":6920:6958  DUSDinvestor[msg.sender].investment[i] */\n      0x00\n        /* \"contracts/stake_reward_MLM.sol\":6956:6957  i */\n      dup3\n        /* \"contracts/stake_reward_MLM.sol\":6920:6958  DUSDinvestor[msg.sender].investment[i] */\n      dup2\n      mstore\n      0x20\n      add\n      swap1\n      dup2\n      mstore\n      0x20\n      add\n      0x00\n      keccak256\n        /* \"contracts/stake_reward_MLM.sol\":6920:6970  DUSDinvestor[msg.sender].investment[i].DepositTime */\n      0x02\n      add\n      sload\n        /* \"contracts/stake_reward_MLM.sol\":6867:6879  DUSDinvestor */\n      0x0c\n        /* \"contracts/stake_reward_MLM.sol\":6867:6891  DUSDinvestor[msg.sender] */\n      0x00\n        /* \"contracts/stake_reward_MLM.sol\":6880:6890  msg.sender */\n      caller\n        /* \"contracts/stake_reward_MLM.sol\":6867:6891  DUSDinvestor[msg.sender] */\n      0xffffffffffffffffffffffffffffffffffffffff\n      and\n      0xffffffffffffffffffffffffffffffffffffffff\n      and\n      dup2\n      mstore\n      0x20\n      add\n      swap1\n      dup2\n      mstore\n      0x20\n      add\n      0x00\n      keccak256\n        /* \"contracts/stake_reward_MLM.sol\":6867:6902  DUSDinvestor[msg.sender].investment */\n      0x00\n      add\n        /* \"contracts/stake_reward_MLM.sol\":6867:6905  DUSDinvestor[msg.sender].investment[i] */\n      0x00\n        /* \"contracts/stake_reward_MLM.sol\":6903:6904  i */\n      dup4\n        /* \"contracts/stake_reward_MLM.sol\":6867:6905  DUSDinvestor[msg.sender].investment[i] */\n      dup2\n      mstore\n      0x20\n      add\n      swap1\n      dup2\n      mstore\n      0x20\n      add\n      0x00\n      keccak256\n        /* \"contracts/stake_reward_MLM.sol\":6867:6917  DUSDinvestor[msg.sender].investment[i].unstakeTime */\n      0x04\n      add\n      sload\n        /* \"contracts/stake_reward_MLM.sol\":6867:6970  DUSDinvestor[msg.sender].investment[i].unstakeTime - DUSDinvestor[msg.sender].investment[i].DepositTime */\n      tag_194\n      swap2\n      swap1\n      tag_192\n      jump\t// in\n    tag_194:\n        /* \"contracts/stake_reward_MLM.sol\":6858:6970  depTime =DUSDinvestor[msg.sender].investment[i].unstakeTime - DUSDinvestor[msg.sender].investment[i].DepositTime */\n      swap4\n      pop\n        /* \"contracts/stake_reward_MLM.sol\":6629:6989  if(!DUSDinvestor[msg.sender].investment[i].unstake)... */\n    tag_193:\n        /* \"contracts/stake_reward_MLM.sol\":7022:7024  60 */\n      0x3c\n        /* \"contracts/stake_reward_MLM.sol\":7014:7021  depTime */\n      dup5\n        /* \"contracts/stake_reward_MLM.sol\":7014:7024  depTime/60 */\n      tag_195\n      swap2\n      swap1\n      tag_196\n      jump\t// in\n    tag_195:\n        /* \"contracts/stake_reward_MLM.sol\":7006:7024  depTime=depTime/60 */\n      swap4\n      pop\n        /* \"contracts/stake_reward_MLM.sol\":7061:7062  0 */\n      0x00\n        /* \"contracts/stake_reward_MLM.sol\":7053:7060  depTime */\n      dup5\n        /* \"contracts/stake_reward_MLM.sol\":7053:7062  depTime>0 */\n      gt\n        /* \"contracts/stake_reward_MLM.sol\":7050:7358  if(depTime>0)... */\n      iszero\n      tag_197\n      jumpi\n        /* \"contracts/stake_reward_MLM.sol\":7283:7288  10000 */\n      0x2710\n        /* \"contracts/stake_reward_MLM.sol\":7279:7281  50 */\n      0x32\n        /* \"contracts/stake_reward_MLM.sol\":7224:7236  DUSDinvestor */\n      0x0c\n        /* \"contracts/stake_reward_MLM.sol\":7224:7248  DUSDinvestor[msg.sender] */\n      0x00\n        /* \"contracts/stake_reward_MLM.sol\":7237:7247  msg.sender */\n      caller\n        /* \"contracts/stake_reward_MLM.sol\":7224:7248  DUSDinvestor[msg.sender] */\n      0xffffffffffffffffffffffffffffffffffffffff\n      and\n      0xffffffffffffffffffffffffffffffffffffffff\n      and\n      dup2\n      mstore\n      0x20\n      add\n      swap1\n      dup2\n      mstore\n      0x20\n      add\n      0x00\n      keccak256\n        /* \"contracts/stake_reward_MLM.sol\":7224:7259  DUSDinvestor[msg.sender].investment */\n      0x00\n      add\n        /* \"contracts/stake_reward_MLM.sol\":7224:7262  DUSDinvestor[msg.sender].investment[i] */\n      0x00\n        /* \"contracts/stake_reward_MLM.sol\":7260:7261  i */\n      dup5\n        /* \"contracts/stake_reward_MLM.sol\":7224:7262  DUSDinvestor[msg.sender].investment[i] */\n      dup2\n      mstore\n      0x20\n      add\n      swap1\n      dup2\n      mstore\n      0x20\n      add\n      0x00\n      keccak256\n        /* \"contracts/stake_reward_MLM.sol\":7224:7277  DUSDinvestor[msg.sender].investment[i].investedAmount */\n      0x00\n      add\n      sload\n        /* \"contracts/stake_reward_MLM.sol\":7223:7281  (DUSDinvestor[msg.sender].investment[i].investedAmount)*50 */\n      tag_198\n      swap2\n      swap1\n      tag_154\n      jump\t// in\n    tag_198:\n        /* \"contracts/stake_reward_MLM.sol\":7222:7288  ((DUSDinvestor[msg.sender].investment[i].investedAmount)*50)/10000 */\n      tag_199\n      swap2\n      swap1\n      tag_196\n      jump\t// in\n    tag_199:\n        /* \"contracts/stake_reward_MLM.sol\":7215:7288  rew  = ((DUSDinvestor[msg.sender].investment[i].investedAmount)*50)/10000 */\n      swap3\n      pop\n        /* \"contracts/stake_reward_MLM.sol\":7336:7339  rew */\n      dup3\n        /* \"contracts/stake_reward_MLM.sol\":7326:7333  depTime */\n      dup5\n        /* \"contracts/stake_reward_MLM.sol\":7326:7339  depTime * rew */\n      tag_200\n      swap2\n      swap1\n      tag_154\n      jump\t// in\n    tag_200:\n        /* \"contracts/stake_reward_MLM.sol\":7311:7339  totalReward += depTime * rew */\n      dup6\n      tag_201\n      swap2\n      swap1\n      tag_148\n      jump\t// in\n    tag_201:\n      swap5\n      pop\n        /* \"contracts/stake_reward_MLM.sol\":7050:7358  if(depTime>0)... */\n    tag_197:\n        /* \"contracts/stake_reward_MLM.sol\":6591:6594  i++ */\n      dup1\n      dup1\n      tag_202\n      swap1\n      tag_144\n      jump\t// in\n    tag_202:\n      swap2\n      pop\n      pop\n        /* \"contracts/stake_reward_MLM.sol\":6566:7372  for( uint i = 0;i < temp;i++)... */\n      jump(tag_187)\n    tag_188:\n      pop\n        /* \"contracts/stake_reward_MLM.sol\":7400:7412  DUSDinvestor */\n      0x0c\n        /* \"contracts/stake_reward_MLM.sol\":7400:7424  DUSDinvestor[msg.sender] */\n      0x00\n        /* \"contracts/stake_reward_MLM.sol\":7413:7423  msg.sender */\n      caller\n        /* \"contracts/stake_reward_MLM.sol\":7400:7424  DUSDinvestor[msg.sender] */\n      0xffffffffffffffffffffffffffffffffffffffff\n      and\n      0xffffffffffffffffffffffffffffffffffffffff\n      and\n      dup2\n      mstore\n      0x20\n      add\n      swap1\n      dup2\n      mstore\n      0x20\n      add\n      0x00\n      keccak256\n        /* \"contracts/stake_reward_MLM.sol\":7400:7445  DUSDinvestor[msg.sender].totalWithdraw_reward */\n      0x07\n      add\n      sload\n        /* \"contracts/stake_reward_MLM.sol\":7385:7445  totalReward -= DUSDinvestor[msg.sender].totalWithdraw_reward */\n      dup5\n      tag_203\n      swap2\n      swap1\n      tag_192\n      jump\t// in\n    tag_203:\n      swap4\n      pop\n        /* \"contracts/stake_reward_MLM.sol\":7467:7478  totalReward */\n      dup4\n        /* \"contracts/stake_reward_MLM.sol\":7460:7478  return totalReward */\n      swap5\n      pop\n      pop\n      pop\n      pop\n      pop\n        /* \"contracts/stake_reward_MLM.sol\":6299:7489  function getReward() view public returns(uint){ //this function is get the total reward balance of the investor... */\n      swap1\n      jump\t// out\n        /* \"contracts/stake_reward_MLM.sol\":14883:15662  function Admin_data() view public returns(Admin_Data[] memory){... */\n    tag_65:\n        /* \"contracts/stake_reward_MLM.sol\":14925:14944  Admin_Data[] memory */\n      0x60\n        /* \"contracts/stake_reward_MLM.sol\":14960:14984  Admin_Data[] memory Temp */\n      0x00\n        /* \"contracts/stake_reward_MLM.sol\":15002:15020  totalDUSDInvestors */\n      sload(0x03)\n        /* \"contracts/stake_reward_MLM.sol\":14985:15021  new Admin_Data[](totalDUSDInvestors) */\n      0xffffffffffffffff\n      dup2\n      gt\n      iszero\n      tag_205\n      jumpi\n      tag_206\n      tag_172\n      jump\t// in\n    tag_206:\n    tag_205:\n      mload(0x40)\n      swap1\n      dup1\n      dup3\n      mstore\n      dup1\n      0x20\n      mul\n      0x20\n      add\n      dup3\n      add\n      0x40\n      mstore\n      dup1\n      iszero\n      tag_207\n      jumpi\n      dup2\n      0x20\n      add\n    tag_208:\n      tag_209\n      tag_210\n      jump\t// in\n    tag_209:\n      dup2\n      mstore\n      0x20\n      add\n      swap1\n      0x01\n      swap1\n      sub\n      swap1\n      dup2\n      tag_208\n      jumpi\n      swap1\n      pop\n    tag_207:\n      pop\n        /* \"contracts/stake_reward_MLM.sol\":14960:15021  Admin_Data[] memory Temp=new Admin_Data[](totalDUSDInvestors) */\n      swap1\n      pop\n        /* \"contracts/stake_reward_MLM.sol\":15052:15058  uint i */\n      0x00\n        /* \"contracts/stake_reward_MLM.sol\":15048:15613  for(uint i=0;i<totalDUSDInvestors;i++)... */\n    tag_211:\n        /* \"contracts/stake_reward_MLM.sol\":15063:15081  totalDUSDInvestors */\n      sload(0x03)\n        /* \"contracts/stake_reward_MLM.sol\":15061:15062  i */\n      dup2\n        /* \"contracts/stake_reward_MLM.sol\":15061:15081  i<totalDUSDInvestors */\n      lt\n        /* \"contracts/stake_reward_MLM.sol\":15048:15613  for(uint i=0;i<totalDUSDInvestors;i++)... */\n      iszero\n      tag_212\n      jumpi\n        /* \"contracts/stake_reward_MLM.sol\":15135:15148  All_investors */\n      0x0b\n        /* \"contracts/stake_reward_MLM.sol\":15135:15151  All_investors[i] */\n      0x00\n        /* \"contracts/stake_reward_MLM.sol\":15149:15150  i */\n      dup3\n        /* \"contracts/stake_reward_MLM.sol\":15135:15151  All_investors[i] */\n      dup2\n      mstore\n      0x20\n      add\n      swap1\n      dup2\n      mstore\n      0x20\n      add\n      0x00\n      keccak256\n      0x00\n      swap1\n      sload\n      swap1\n      0x0100\n      exp\n      swap1\n      div\n      0xffffffffffffffffffffffffffffffffffffffff\n      and\n        /* \"contracts/stake_reward_MLM.sol\":15116:15120  Temp */\n      dup3\n        /* \"contracts/stake_reward_MLM.sol\":15121:15122  i */\n      dup3\n        /* \"contracts/stake_reward_MLM.sol\":15116:15123  Temp[i] */\n      dup2\n      mload\n      dup2\n      lt\n      tag_214\n      jumpi\n      tag_215\n      tag_183\n      jump\t// in\n    tag_215:\n    tag_214:\n      0x20\n      mul\n      0x20\n      add\n      add\n      mload\n        /* \"contracts/stake_reward_MLM.sol\":15116:15132  Temp[i].investor */\n      0x00\n      add\n        /* \"contracts/stake_reward_MLM.sol\":15116:15151  Temp[i].investor = All_investors[i] */\n      swap1\n      0xffffffffffffffffffffffffffffffffffffffff\n      and\n      swap1\n      dup2\n      0xffffffffffffffffffffffffffffffffffffffff\n      and\n      dup2\n      mstore\n      pop\n      pop\n        /* \"contracts/stake_reward_MLM.sol\":15194:15206  DUSDinvestor */\n      0x0c\n        /* \"contracts/stake_reward_MLM.sol\":15194:15224  DUSDinvestor[All_investors[i]] */\n      0x00\n        /* \"contracts/stake_reward_MLM.sol\":15207:15220  All_investors */\n      0x0b\n        /* \"contracts/stake_reward_MLM.sol\":15207:15223  All_investors[i] */\n      0x00\n        /* \"contracts/stake_reward_MLM.sol\":15221:15222  i */\n      dup5\n        /* \"contracts/stake_reward_MLM.sol\":15207:15223  All_investors[i] */\n      dup2\n      mstore\n      0x20\n      add\n      swap1\n      dup2\n      mstore\n      0x20\n      add\n      0x00\n      keccak256\n      0x00\n      swap1\n      sload\n      swap1\n      0x0100\n      exp\n      swap1\n      div\n      0xffffffffffffffffffffffffffffffffffffffff\n      and\n        /* \"contracts/stake_reward_MLM.sol\":15194:15224  DUSDinvestor[All_investors[i]] */\n      0xffffffffffffffffffffffffffffffffffffffff\n      and\n      0xffffffffffffffffffffffffffffffffffffffff\n      and\n      dup2\n      mstore\n      0x20\n      add\n      swap1\n      dup2\n      mstore\n      0x20\n      add\n      0x00\n      keccak256\n        /* \"contracts/stake_reward_MLM.sol\":15194:15240  DUSDinvestor[All_investors[i]].totalInvestment */\n      0x06\n      add\n      sload\n        /* \"contracts/stake_reward_MLM.sol\":15168:15172  Temp */\n      dup3\n        /* \"contracts/stake_reward_MLM.sol\":15173:15174  i */\n      dup3\n        /* \"contracts/stake_reward_MLM.sol\":15168:15175  Temp[i] */\n      dup2\n      mload\n      dup2\n      lt\n      tag_216\n      jumpi\n      tag_217\n      tag_183\n      jump\t// in\n    tag_217:\n    tag_216:\n      0x20\n      mul\n      0x20\n      add\n      add\n      mload\n        /* \"contracts/stake_reward_MLM.sol\":15168:15191  Temp[i].totalInvestment */\n      0x20\n      add\n        /* \"contracts/stake_reward_MLM.sol\":15168:15240  Temp[i].totalInvestment = DUSDinvestor[All_investors[i]].totalInvestment */\n      dup2\n      dup2\n      mstore\n      pop\n      pop\n        /* \"contracts/stake_reward_MLM.sol\":15272:15309  get_investor_Reward(All_investors[i]) */\n      tag_218\n        /* \"contracts/stake_reward_MLM.sol\":15292:15305  All_investors */\n      0x0b\n        /* \"contracts/stake_reward_MLM.sol\":15292:15308  All_investors[i] */\n      0x00\n        /* \"contracts/stake_reward_MLM.sol\":15306:15307  i */\n      dup4\n        /* \"contracts/stake_reward_MLM.sol\":15292:15308  All_investors[i] */\n      dup2\n      mstore\n      0x20\n      add\n      swap1\n      dup2\n      mstore\n      0x20\n      add\n      0x00\n      keccak256\n      0x00\n      swap1\n      sload\n      swap1\n      0x0100\n      exp\n      swap1\n      div\n      0xffffffffffffffffffffffffffffffffffffffff\n      and\n        /* \"contracts/stake_reward_MLM.sol\":15272:15291  get_investor_Reward */\n      tag_219\n        /* \"contracts/stake_reward_MLM.sol\":15272:15309  get_investor_Reward(All_investors[i]) */\n      jump\t// in\n    tag_218:\n        /* \"contracts/stake_reward_MLM.sol\":15257:15261  Temp */\n      dup3\n        /* \"contracts/stake_reward_MLM.sol\":15262:15263  i */\n      dup3\n        /* \"contracts/stake_reward_MLM.sol\":15257:15264  Temp[i] */\n      dup2\n      mload\n      dup2\n      lt\n      tag_220\n      jumpi\n      tag_221\n      tag_183\n      jump\t// in\n    tag_221:\n    tag_220:\n      0x20\n      mul\n      0x20\n      add\n      add\n      mload\n        /* \"contracts/stake_reward_MLM.sol\":15257:15271  Temp[i].reward */\n      0x40\n      add\n        /* \"contracts/stake_reward_MLM.sol\":15257:15309  Temp[i].reward=get_investor_Reward(All_investors[i]) */\n      dup2\n      dup2\n      mstore\n      pop\n      pop\n        /* \"contracts/stake_reward_MLM.sol\":15351:15363  DUSDinvestor */\n      0x0c\n        /* \"contracts/stake_reward_MLM.sol\":15351:15381  DUSDinvestor[All_investors[i]] */\n      0x00\n        /* \"contracts/stake_reward_MLM.sol\":15364:15377  All_investors */\n      0x0b\n        /* \"contracts/stake_reward_MLM.sol\":15364:15380  All_investors[i] */\n      0x00\n        /* \"contracts/stake_reward_MLM.sol\":15378:15379  i */\n      dup5\n        /* \"contracts/stake_reward_MLM.sol\":15364:15380  All_investors[i] */\n      dup2\n      mstore\n      0x20\n      add\n      swap1\n      dup2\n      mstore\n      0x20\n      add\n      0x00\n      keccak256\n      0x00\n      swap1\n      sload\n      swap1\n      0x0100\n      exp\n      swap1\n      div\n      0xffffffffffffffffffffffffffffffffffffffff\n      and\n        /* \"contracts/stake_reward_MLM.sol\":15351:15381  DUSDinvestor[All_investors[i]] */\n      0xffffffffffffffffffffffffffffffffffffffff\n      and\n      0xffffffffffffffffffffffffffffffffffffffff\n      and\n      dup2\n      mstore\n      0x20\n      add\n      swap1\n      dup2\n      mstore\n      0x20\n      add\n      0x00\n      keccak256\n        /* \"contracts/stake_reward_MLM.sol\":15351:15396  DUSDinvestor[All_investors[i]].noOfInvestment */\n      0x05\n      add\n      sload\n        /* \"contracts/stake_reward_MLM.sol\":15326:15330  Temp */\n      dup3\n        /* \"contracts/stake_reward_MLM.sol\":15331:15332  i */\n      dup3\n        /* \"contracts/stake_reward_MLM.sol\":15326:15333  Temp[i] */\n      dup2\n      mload\n      dup2\n      lt\n      tag_222\n      jumpi\n      tag_223\n      tag_183\n      jump\t// in\n    tag_223:\n    tag_222:\n      0x20\n      mul\n      0x20\n      add\n      add\n      mload\n        /* \"contracts/stake_reward_MLM.sol\":15326:15348  Temp[i].noOfInvestment */\n      0x60\n      add\n        /* \"contracts/stake_reward_MLM.sol\":15326:15396  Temp[i].noOfInvestment = DUSDinvestor[All_investors[i]].noOfInvestment */\n      dup2\n      dup2\n      mstore\n      pop\n      pop\n        /* \"contracts/stake_reward_MLM.sol\":15444:15456  DUSDinvestor */\n      0x0c\n        /* \"contracts/stake_reward_MLM.sol\":15444:15474  DUSDinvestor[All_investors[i]] */\n      0x00\n        /* \"contracts/stake_reward_MLM.sol\":15457:15470  All_investors */\n      0x0b\n        /* \"contracts/stake_reward_MLM.sol\":15457:15473  All_investors[i] */\n      0x00\n        /* \"contracts/stake_reward_MLM.sol\":15471:15472  i */\n      dup5\n        /* \"contracts/stake_reward_MLM.sol\":15457:15473  All_investors[i] */\n      dup2\n      mstore\n      0x20\n      add\n      swap1\n      dup2\n      mstore\n      0x20\n      add\n      0x00\n      keccak256\n      0x00\n      swap1\n      sload\n      swap1\n      0x0100\n      exp\n      swap1\n      div\n      0xffffffffffffffffffffffffffffffffffffffff\n      and\n        /* \"contracts/stake_reward_MLM.sol\":15444:15474  DUSDinvestor[All_investors[i]] */\n      0xffffffffffffffffffffffffffffffffffffffff\n      and\n      0xffffffffffffffffffffffffffffffffffffffff\n      and\n      dup2\n      mstore\n      0x20\n      add\n      swap1\n      dup2\n      mstore\n      0x20\n      add\n      0x00\n      keccak256\n        /* \"contracts/stake_reward_MLM.sol\":15444:15495  DUSDinvestor[All_investors[i]].totalWithdraw_reward */\n      0x07\n      add\n      sload\n        /* \"contracts/stake_reward_MLM.sol\":15413:15417  Temp */\n      dup3\n        /* \"contracts/stake_reward_MLM.sol\":15418:15419  i */\n      dup3\n        /* \"contracts/stake_reward_MLM.sol\":15413:15420  Temp[i] */\n      dup2\n      mload\n      dup2\n      lt\n      tag_224\n      jumpi\n      tag_225\n      tag_183\n      jump\t// in\n    tag_225:\n    tag_224:\n      0x20\n      mul\n      0x20\n      add\n      add\n      mload\n        /* \"contracts/stake_reward_MLM.sol\":15413:15441  Temp[i].totalWithdraw_reward */\n      0x80\n      add\n        /* \"contracts/stake_reward_MLM.sol\":15413:15495  Temp[i].totalWithdraw_reward = DUSDinvestor[All_investors[i]].totalWithdraw_reward */\n      dup2\n      dup2\n      mstore\n      pop\n      pop\n        /* \"contracts/stake_reward_MLM.sol\":15538:15581  DUSDTotalReferrals_inside(All_investors[i]) */\n      tag_226\n        /* \"contracts/stake_reward_MLM.sol\":15564:15577  All_investors */\n      0x0b\n        /* \"contracts/stake_reward_MLM.sol\":15564:15580  All_investors[i] */\n      0x00\n        /* \"contracts/stake_reward_MLM.sol\":15578:15579  i */\n      dup4\n        /* \"contracts/stake_reward_MLM.sol\":15564:15580  All_investors[i] */\n      dup2\n      mstore\n      0x20\n      add\n      swap1\n      dup2\n      mstore\n      0x20\n      add\n      0x00\n      keccak256\n      0x00\n      swap1\n      sload\n      swap1\n      0x0100\n      exp\n      swap1\n      div\n      0xffffffffffffffffffffffffffffffffffffffff\n      and\n        /* \"contracts/stake_reward_MLM.sol\":15538:15563  DUSDTotalReferrals_inside */\n      tag_227\n        /* \"contracts/stake_reward_MLM.sol\":15538:15581  DUSDTotalReferrals_inside(All_investors[i]) */\n      jump\t// in\n    tag_226:\n        /* \"contracts/stake_reward_MLM.sol\":15512:15516  Temp */\n      dup3\n        /* \"contracts/stake_reward_MLM.sol\":15517:15518  i */\n      dup3\n        /* \"contracts/stake_reward_MLM.sol\":15512:15519  Temp[i] */\n      dup2\n      mload\n      dup2\n      lt\n      tag_228\n      jumpi\n      tag_229\n      tag_183\n      jump\t// in\n    tag_229:\n    tag_228:\n      0x20\n      mul\n      0x20\n      add\n      add\n      mload\n        /* \"contracts/stake_reward_MLM.sol\":15512:15535  Temp[i].Total_referrals */\n      0xa0\n      add\n        /* \"contracts/stake_reward_MLM.sol\":15512:15581  Temp[i].Total_referrals = DUSDTotalReferrals_inside(All_investors[i]) */\n      dup2\n      dup2\n      mstore\n      pop\n      pop\n        /* \"contracts/stake_reward_MLM.sol\":15082:15085  i++ */\n      dup1\n      dup1\n      tag_230\n      swap1\n      tag_144\n      jump\t// in\n    tag_230:\n      swap2\n      pop\n      pop\n        /* \"contracts/stake_reward_MLM.sol\":15048:15613  for(uint i=0;i<totalDUSDInvestors;i++)... */\n      jump(tag_211)\n    tag_212:\n      pop\n        /* \"contracts/stake_reward_MLM.sol\":15633:15637  Temp */\n      dup1\n        /* \"contracts/stake_reward_MLM.sol\":15626:15637  return Temp */\n      swap2\n      pop\n      pop\n        /* \"contracts/stake_reward_MLM.sol\":14883:15662  function Admin_data() view public returns(Admin_Data[] memory){... */\n      swap1\n      jump\t// out\n        /* \"contracts/stake_reward_MLM.sol\":13263:13545  function set_values(uint min_stake,uint max_stake,uint reward_per_day,uint _denomenator) public ... */\n    tag_71:\n        /* \"contracts/stake_reward_MLM.sol\":13401:13410  max_stake */\n      dup3\n        /* \"contracts/stake_reward_MLM.sol\":13382:13398  max_Stake_amount */\n      0x06\n        /* \"contracts/stake_reward_MLM.sol\":13382:13410  max_Stake_amount = max_stake */\n      dup2\n      swap1\n      sstore\n      pop\n        /* \"contracts/stake_reward_MLM.sol\":13443:13452  min_stake */\n      dup4\n        /* \"contracts/stake_reward_MLM.sol\":13424:13440  min_Stake_amount */\n      0x05\n        /* \"contracts/stake_reward_MLM.sol\":13424:13452  min_Stake_amount = min_stake */\n      dup2\n      swap1\n      sstore\n      pop\n        /* \"contracts/stake_reward_MLM.sol\":13480:13494  reward_per_day */\n      dup2\n        /* \"contracts/stake_reward_MLM.sol\":13466:13477  rewardToken */\n      0x04\n        /* \"contracts/stake_reward_MLM.sol\":13466:13494  rewardToken = reward_per_day */\n      dup2\n      swap1\n      sstore\n      pop\n        /* \"contracts/stake_reward_MLM.sol\":13522:13534  _denomenator */\n      dup1\n        /* \"contracts/stake_reward_MLM.sol\":13508:13519  denomenator */\n      0x07\n        /* \"contracts/stake_reward_MLM.sol\":13508:13534  denomenator = _denomenator */\n      dup2\n      swap1\n      sstore\n      pop\n        /* \"contracts/stake_reward_MLM.sol\":13263:13545  function set_values(uint min_stake,uint max_stake,uint reward_per_day,uint _denomenator) public ... */\n      pop\n      pop\n      pop\n      pop\n      jump\t// out\n        /* \"contracts/stake_reward_MLM.sol\":13143:13254  function set_max_Stake_amount(uint _amount) public ... */\n    tag_74:\n        /* \"contracts/stake_reward_MLM.sol\":13236:13243  _amount */\n      dup1\n        /* \"contracts/stake_reward_MLM.sol\":13217:13233  max_Stake_amount */\n      0x06\n        /* \"contracts/stake_reward_MLM.sol\":13217:13243  max_Stake_amount = _amount */\n      dup2\n      swap1\n      sstore\n      pop\n        /* \"contracts/stake_reward_MLM.sol\":13143:13254  function set_max_Stake_amount(uint _amount) public ... */\n      pop\n      jump\t// out\n        /* \"contracts/stake_reward_MLM.sol\":1057:1100  mapping(uint=>address) public All_investors */\n    tag_77:\n      mstore(0x20, 0x0b)\n      dup1\n      0x00\n      mstore\n      keccak256(0x00, 0x40)\n      0x00\n      swap2\n      pop\n      sload\n      swap1\n      0x0100\n      exp\n      swap1\n      div\n      0xffffffffffffffffffffffffffffffffffffffff\n      and\n      dup2\n      jump\t// out\n        /* \"contracts/stake_reward_MLM.sol\":946:983  uint public investmentPeriod=365 days */\n    tag_81:\n      sload(0x08)\n      dup2\n      jump\t// out\n        /* \"contracts/stake_reward_MLM.sol\":15672:15855  function total_withdraw_reaward() view public returns(uint){... */\n    tag_84:\n        /* \"contracts/stake_reward_MLM.sol\":15726:15730  uint */\n      0x00\n        /* \"contracts/stake_reward_MLM.sol\":15747:15756  uint Temp */\n      dup1\n        /* \"contracts/stake_reward_MLM.sol\":15759:15771  DUSDinvestor */\n      0x0c\n        /* \"contracts/stake_reward_MLM.sol\":15759:15783  DUSDinvestor[msg.sender] */\n      0x00\n        /* \"contracts/stake_reward_MLM.sol\":15772:15782  msg.sender */\n      caller\n        /* \"contracts/stake_reward_MLM.sol\":15759:15783  DUSDinvestor[msg.sender] */\n      0xffffffffffffffffffffffffffffffffffffffff\n      and\n      0xffffffffffffffffffffffffffffffffffffffff\n      and\n      dup2\n      mstore\n      0x20\n      add\n      swap1\n      dup2\n      mstore\n      0x20\n      add\n      0x00\n      keccak256\n        /* \"contracts/stake_reward_MLM.sol\":15759:15804  DUSDinvestor[msg.sender].totalWithdraw_reward */\n      0x07\n      add\n      sload\n        /* \"contracts/stake_reward_MLM.sol\":15747:15804  uint Temp = DUSDinvestor[msg.sender].totalWithdraw_reward */\n      swap1\n      pop\n        /* \"contracts/stake_reward_MLM.sol\":15826:15830  Temp */\n      dup1\n        /* \"contracts/stake_reward_MLM.sol\":15819:15830  return Temp */\n      swap2\n      pop\n      pop\n        /* \"contracts/stake_reward_MLM.sol\":15672:15855  function total_withdraw_reaward() view public returns(uint){... */\n      swap1\n      jump\t// out\n        /* \"contracts/stake_reward_MLM.sol\":9747:10993  function unStake() external  returns (bool success){... */\n    tag_87:\n        /* \"contracts/stake_reward_MLM.sol\":9785:9797  bool success */\n      0x00\n        /* \"contracts/stake_reward_MLM.sol\":9861:9862  0 */\n      dup1\n        /* \"contracts/stake_reward_MLM.sol\":9820:9832  DUSDinvestor */\n      0x0c\n        /* \"contracts/stake_reward_MLM.sol\":9820:9844  DUSDinvestor[msg.sender] */\n      0x00\n        /* \"contracts/stake_reward_MLM.sol\":9833:9843  msg.sender */\n      caller\n        /* \"contracts/stake_reward_MLM.sol\":9820:9844  DUSDinvestor[msg.sender] */\n      0xffffffffffffffffffffffffffffffffffffffff\n      and\n      0xffffffffffffffffffffffffffffffffffffffff\n      and\n      dup2\n      mstore\n      0x20\n      add\n      swap1\n      dup2\n      mstore\n      0x20\n      add\n      0x00\n      keccak256\n        /* \"contracts/stake_reward_MLM.sol\":9820:9860  DUSDinvestor[msg.sender].totalInvestment */\n      0x06\n      add\n      sload\n        /* \"contracts/stake_reward_MLM.sol\":9820:9862  DUSDinvestor[msg.sender].totalInvestment>0 */\n      gt\n        /* \"contracts/stake_reward_MLM.sol\":9812:9903  require(DUSDinvestor[msg.sender].totalInvestment>0,\"you dont have investment to withdrawn\") */\n      tag_235\n      jumpi\n      mload(0x40)\n      0x08c379a000000000000000000000000000000000000000000000000000000000\n      dup2\n      mstore\n      0x04\n      add\n      tag_236\n      swap1\n      tag_237\n      jump\t// in\n    tag_236:\n      mload(0x40)\n      dup1\n      swap2\n      sub\n      swap1\n      revert\n    tag_235:\n        /* \"contracts/stake_reward_MLM.sol\":10020:10035  block.timestamp */\n      timestamp\n        /* \"contracts/stake_reward_MLM.sol\":9983:9995  DUSDinvestor */\n      0x0c\n        /* \"contracts/stake_reward_MLM.sol\":9983:10007  DUSDinvestor[msg.sender] */\n      0x00\n        /* \"contracts/stake_reward_MLM.sol\":9996:10006  msg.sender */\n      caller\n        /* \"contracts/stake_reward_MLM.sol\":9983:10007  DUSDinvestor[msg.sender] */\n      0xffffffffffffffffffffffffffffffffffffffff\n      and\n      0xffffffffffffffffffffffffffffffffffffffff\n      and\n      dup2\n      mstore\n      0x20\n      add\n      swap1\n      dup2\n      mstore\n      0x20\n      add\n      0x00\n      keccak256\n        /* \"contracts/stake_reward_MLM.sol\":9983:10017  DUSDinvestor[msg.sender].stakeTime */\n      0x09\n      add\n      sload\n        /* \"contracts/stake_reward_MLM.sol\":9983:10035  DUSDinvestor[msg.sender].stakeTime < block.timestamp */\n      lt\n        /* \"contracts/stake_reward_MLM.sol\":9975:10070  require(DUSDinvestor[msg.sender].stakeTime < block.timestamp,\"you cant withdraw before 1 year\") */\n      tag_238\n      jumpi\n      mload(0x40)\n      0x08c379a000000000000000000000000000000000000000000000000000000000\n      dup2\n      mstore\n      0x04\n      add\n      tag_239\n      swap1\n      tag_240\n      jump\t// in\n    tag_239:\n      mload(0x40)\n      dup1\n      swap2\n      sub\n      swap1\n      revert\n    tag_238:\n        /* \"contracts/stake_reward_MLM.sol\":10084:10095  uint amount */\n      0x00\n        /* \"contracts/stake_reward_MLM.sol\":10096:10108  DUSDinvestor */\n      0x0c\n        /* \"contracts/stake_reward_MLM.sol\":10096:10120  DUSDinvestor[msg.sender] */\n      0x00\n        /* \"contracts/stake_reward_MLM.sol\":10109:10119  msg.sender */\n      caller\n        /* \"contracts/stake_reward_MLM.sol\":10096:10120  DUSDinvestor[msg.sender] */\n      0xffffffffffffffffffffffffffffffffffffffff\n      and\n      0xffffffffffffffffffffffffffffffffffffffff\n      and\n      dup2\n      mstore\n      0x20\n      add\n      swap1\n      dup2\n      mstore\n      0x20\n      add\n      0x00\n      keccak256\n        /* \"contracts/stake_reward_MLM.sol\":10096:10136  DUSDinvestor[msg.sender].totalInvestment */\n      0x06\n      add\n      sload\n        /* \"contracts/stake_reward_MLM.sol\":10084:10136  uint amount=DUSDinvestor[msg.sender].totalInvestment */\n      swap1\n      pop\n        /* \"contracts/stake_reward_MLM.sol\":10150:10159  uint temp */\n      0x00\n        /* \"contracts/stake_reward_MLM.sol\":10162:10174  DUSDinvestor */\n      0x0c\n        /* \"contracts/stake_reward_MLM.sol\":10162:10186  DUSDinvestor[msg.sender] */\n      0x00\n        /* \"contracts/stake_reward_MLM.sol\":10175:10185  msg.sender */\n      caller\n        /* \"contracts/stake_reward_MLM.sol\":10162:10186  DUSDinvestor[msg.sender] */\n      0xffffffffffffffffffffffffffffffffffffffff\n      and\n      0xffffffffffffffffffffffffffffffffffffffff\n      and\n      dup2\n      mstore\n      0x20\n      add\n      swap1\n      dup2\n      mstore\n      0x20\n      add\n      0x00\n      keccak256\n        /* \"contracts/stake_reward_MLM.sol\":10162:10201  DUSDinvestor[msg.sender].noOfInvestment */\n      0x05\n      add\n      sload\n        /* \"contracts/stake_reward_MLM.sol\":10150:10201  uint temp = DUSDinvestor[msg.sender].noOfInvestment */\n      swap1\n      pop\n        /* \"contracts/stake_reward_MLM.sol\":10215:10224  uint from */\n      0x00\n        /* \"contracts/stake_reward_MLM.sol\":10227:10240  rew_till_done */\n      sload(0x0a)\n        /* \"contracts/stake_reward_MLM.sol\":10215:10240  uint from = rew_till_done */\n      swap1\n      pop\n        /* \"contracts/stake_reward_MLM.sol\":10254:10267  uint amount30 */\n      0x00\n        /* \"contracts/stake_reward_MLM.sol\":10281:10294  uint amount70 */\n      dup1\n        /* \"contracts/stake_reward_MLM.sol\":10320:10331  SMCcontract */\n      0x01\n      0x00\n      swap1\n      sload\n      swap1\n      0x0100\n      exp\n      swap1\n      div\n      0xffffffffffffffffffffffffffffffffffffffff\n      and\n        /* \"contracts/stake_reward_MLM.sol\":10315:10341  DUSD(SMCcontract).transfer */\n      0xffffffffffffffffffffffffffffffffffffffff\n      and\n      0xa9059cbb\n        /* \"contracts/stake_reward_MLM.sol\":10342:10352  msg.sender */\n      caller\n        /* \"contracts/stake_reward_MLM.sol\":10361:10366  10**8 */\n      0x05f5e100\n        /* \"contracts/stake_reward_MLM.sol\":10353:10359  amount */\n      dup9\n        /* \"contracts/stake_reward_MLM.sol\":10353:10366  amount* 10**8 */\n      tag_241\n      swap2\n      swap1\n      tag_154\n      jump\t// in\n    tag_241:\n        /* \"contracts/stake_reward_MLM.sol\":10315:10367  DUSD(SMCcontract).transfer(msg.sender,amount* 10**8) */\n      mload(0x40)\n      dup4\n      0xffffffff\n      and\n      0xe0\n      shl\n      dup2\n      mstore\n      0x04\n      add\n      tag_242\n      swap3\n      swap2\n      swap1\n      tag_243\n      jump\t// in\n    tag_242:\n      0x20\n      mload(0x40)\n      dup1\n      dup4\n      sub\n      dup2\n      0x00\n      dup8\n      dup1\n      extcodesize\n      iszero\n      dup1\n      iszero\n      tag_244\n      jumpi\n      0x00\n      dup1\n      revert\n    tag_244:\n      pop\n      gas\n      call\n      iszero\n      dup1\n      iszero\n      tag_246\n      jumpi\n      returndatasize\n      0x00\n      dup1\n      returndatacopy\n      revert(0x00, returndatasize)\n    tag_246:\n      pop\n      pop\n      pop\n      pop\n      mload(0x40)\n      returndatasize\n      not(0x1f)\n      0x1f\n      dup3\n      add\n      and\n      dup3\n      add\n      dup1\n      0x40\n      mstore\n      pop\n      dup2\n      add\n      swap1\n      tag_247\n      swap2\n      swap1\n      tag_161\n      jump\t// in\n    tag_247:\n      pop\n        /* \"contracts/stake_reward_MLM.sol\":10472:10473  0 */\n      0x00\n        /* \"contracts/stake_reward_MLM.sol\":10467:10473  from=0 */\n      swap3\n      pop\n        /* \"contracts/stake_reward_MLM.sol\":10462:10724  for( from=0;from < temp;from++)... */\n    tag_248:\n        /* \"contracts/stake_reward_MLM.sol\":10481:10485  temp */\n      dup4\n        /* \"contracts/stake_reward_MLM.sol\":10474:10478  from */\n      dup4\n        /* \"contracts/stake_reward_MLM.sol\":10474:10485  from < temp */\n      lt\n        /* \"contracts/stake_reward_MLM.sol\":10462:10724  for( from=0;from < temp;from++)... */\n      iszero\n      tag_249\n      jumpi\n        /* \"contracts/stake_reward_MLM.sol\":10578:10582  true */\n      0x01\n        /* \"contracts/stake_reward_MLM.sol\":10527:10539  DUSDinvestor */\n      0x0c\n        /* \"contracts/stake_reward_MLM.sol\":10527:10551  DUSDinvestor[msg.sender] */\n      0x00\n        /* \"contracts/stake_reward_MLM.sol\":10540:10550  msg.sender */\n      caller\n        /* \"contracts/stake_reward_MLM.sol\":10527:10551  DUSDinvestor[msg.sender] */\n      0xffffffffffffffffffffffffffffffffffffffff\n      and\n      0xffffffffffffffffffffffffffffffffffffffff\n      and\n      dup2\n      mstore\n      0x20\n      add\n      swap1\n      dup2\n      mstore\n      0x20\n      add\n      0x00\n      keccak256\n        /* \"contracts/stake_reward_MLM.sol\":10527:10562  DUSDinvestor[msg.sender].investment */\n      0x00\n      add\n        /* \"contracts/stake_reward_MLM.sol\":10527:10568  DUSDinvestor[msg.sender].investment[from] */\n      0x00\n        /* \"contracts/stake_reward_MLM.sol\":10563:10567  from */\n      dup6\n        /* \"contracts/stake_reward_MLM.sol\":10527:10568  DUSDinvestor[msg.sender].investment[from] */\n      dup2\n      mstore\n      0x20\n      add\n      swap1\n      dup2\n      mstore\n      0x20\n      add\n      0x00\n      keccak256\n        /* \"contracts/stake_reward_MLM.sol\":10527:10576  DUSDinvestor[msg.sender].investment[from].unstake */\n      0x05\n      add\n      0x00\n        /* \"contracts/stake_reward_MLM.sol\":10527:10582  DUSDinvestor[msg.sender].investment[from].unstake =true */\n      0x0100\n      exp\n      dup2\n      sload\n      dup2\n      0xff\n      mul\n      not\n      and\n      swap1\n      dup4\n      iszero\n      iszero\n      mul\n      or\n      swap1\n      sstore\n      pop\n        /* \"contracts/stake_reward_MLM.sol\":10659:10674  block.timestamp */\n      timestamp\n        /* \"contracts/stake_reward_MLM.sol\":10604:10616  DUSDinvestor */\n      0x0c\n        /* \"contracts/stake_reward_MLM.sol\":10604:10628  DUSDinvestor[msg.sender] */\n      0x00\n        /* \"contracts/stake_reward_MLM.sol\":10617:10627  msg.sender */\n      caller\n        /* \"contracts/stake_reward_MLM.sol\":10604:10628  DUSDinvestor[msg.sender] */\n      0xffffffffffffffffffffffffffffffffffffffff\n      and\n      0xffffffffffffffffffffffffffffffffffffffff\n      and\n      dup2\n      mstore\n      0x20\n      add\n      swap1\n      dup2\n      mstore\n      0x20\n      add\n      0x00\n      keccak256\n        /* \"contracts/stake_reward_MLM.sol\":10604:10639  DUSDinvestor[msg.sender].investment */\n      0x00\n      add\n        /* \"contracts/stake_reward_MLM.sol\":10604:10645  DUSDinvestor[msg.sender].investment[from] */\n      0x00\n        /* \"contracts/stake_reward_MLM.sol\":10640:10644  from */\n      dup6\n        /* \"contracts/stake_reward_MLM.sol\":10604:10645  DUSDinvestor[msg.sender].investment[from] */\n      dup2\n      mstore\n      0x20\n      add\n      swap1\n      dup2\n      mstore\n      0x20\n      add\n      0x00\n      keccak256\n        /* \"contracts/stake_reward_MLM.sol\":10604:10657  DUSDinvestor[msg.sender].investment[from].unstakeTime */\n      0x04\n      add\n        /* \"contracts/stake_reward_MLM.sol\":10604:10674  DUSDinvestor[msg.sender].investment[from].unstakeTime =block.timestamp */\n      dup2\n      swap1\n      sstore\n      pop\n        /* \"contracts/stake_reward_MLM.sol\":10486:10492  from++ */\n      dup3\n      dup1\n      tag_251\n      swap1\n      tag_144\n      jump\t// in\n    tag_251:\n      swap4\n      pop\n      pop\n        /* \"contracts/stake_reward_MLM.sol\":10462:10724  for( from=0;from < temp;from++)... */\n      jump(tag_248)\n    tag_249:\n        /* \"contracts/stake_reward_MLM.sol\":10752:10764  DUSDinvestor */\n      0x0c\n        /* \"contracts/stake_reward_MLM.sol\":10752:10776  DUSDinvestor[msg.sender] */\n      0x00\n        /* \"contracts/stake_reward_MLM.sol\":10765:10775  msg.sender */\n      caller\n        /* \"contracts/stake_reward_MLM.sol\":10752:10776  DUSDinvestor[msg.sender] */\n      0xffffffffffffffffffffffffffffffffffffffff\n      and\n      0xffffffffffffffffffffffffffffffffffffffff\n      and\n      dup2\n      mstore\n      0x20\n      add\n      swap1\n      dup2\n      mstore\n      0x20\n      add\n      0x00\n      keccak256\n        /* \"contracts/stake_reward_MLM.sol\":10752:10791  DUSDinvestor[msg.sender].noOfInvestment */\n      0x05\n      add\n      sload\n        /* \"contracts/stake_reward_MLM.sol\":10737:10750  rew_till_done */\n      0x0a\n        /* \"contracts/stake_reward_MLM.sol\":10737:10791  rew_till_done =DUSDinvestor[msg.sender].noOfInvestment */\n      dup2\n      swap1\n      sstore\n      pop\n        /* \"contracts/stake_reward_MLM.sol\":10885:10886  0 */\n      0x00\n        /* \"contracts/stake_reward_MLM.sol\":10844:10856  DUSDinvestor */\n      0x0c\n        /* \"contracts/stake_reward_MLM.sol\":10844:10868  DUSDinvestor[msg.sender] */\n      0x00\n        /* \"contracts/stake_reward_MLM.sol\":10857:10867  msg.sender */\n      caller\n        /* \"contracts/stake_reward_MLM.sol\":10844:10868  DUSDinvestor[msg.sender] */\n      0xffffffffffffffffffffffffffffffffffffffff\n      and\n      0xffffffffffffffffffffffffffffffffffffffff\n      and\n      dup2\n      mstore\n      0x20\n      add\n      swap1\n      dup2\n      mstore\n      0x20\n      add\n      0x00\n      keccak256\n        /* \"contracts/stake_reward_MLM.sol\":10844:10884  DUSDinvestor[msg.sender].totalInvestment */\n      0x06\n      add\n        /* \"contracts/stake_reward_MLM.sol\":10844:10886  DUSDinvestor[msg.sender].totalInvestment=0 */\n      dup2\n      swap1\n      sstore\n      pop\n        /* \"contracts/stake_reward_MLM.sol\":10977:10981  true */\n      0x01\n        /* \"contracts/stake_reward_MLM.sol\":10970:10981  return true */\n      swap6\n      pop\n      pop\n      pop\n      pop\n      pop\n      pop\n        /* \"contracts/stake_reward_MLM.sol\":9747:10993  function unStake() external  returns (bool success){... */\n      swap1\n      jump\t// out\n        /* \"contracts/stake_reward_MLM.sol\":300:321  address  public owner */\n    tag_90:\n      0x00\n      dup1\n      sload\n      swap1\n      0x0100\n      exp\n      swap1\n      div\n      0xffffffffffffffffffffffffffffffffffffffff\n      and\n      dup2\n      jump\t// out\n        /* \"contracts/stake_reward_MLM.sol\":11003:11213  function getTotalInvestmentDUSD() public view returns(uint) {   //this function is to get the total investment of the ivestor... */\n    tag_93:\n        /* \"contracts/stake_reward_MLM.sol\":11057:11061  uint */\n      0x00\n        /* \"contracts/stake_reward_MLM.sol\":11161:11173  DUSDinvestor */\n      0x0c\n        /* \"contracts/stake_reward_MLM.sol\":11161:11185  DUSDinvestor[msg.sender] */\n      0x00\n        /* \"contracts/stake_reward_MLM.sol\":11174:11184  msg.sender */\n      caller\n        /* \"contracts/stake_reward_MLM.sol\":11161:11185  DUSDinvestor[msg.sender] */\n      0xffffffffffffffffffffffffffffffffffffffff\n      and\n      0xffffffffffffffffffffffffffffffffffffffff\n      and\n      dup2\n      mstore\n      0x20\n      add\n      swap1\n      dup2\n      mstore\n      0x20\n      add\n      0x00\n      keccak256\n        /* \"contracts/stake_reward_MLM.sol\":11161:11201  DUSDinvestor[msg.sender].totalInvestment */\n      0x06\n      add\n      sload\n        /* \"contracts/stake_reward_MLM.sol\":11154:11201  return DUSDinvestor[msg.sender].totalInvestment */\n      swap1\n      pop\n        /* \"contracts/stake_reward_MLM.sol\":11003:11213  function getTotalInvestmentDUSD() public view returns(uint) {   //this function is to get the total investment of the ivestor... */\n      swap1\n      jump\t// out\n        /* \"contracts/stake_reward_MLM.sol\":878:908  uint public denomenator=100000 */\n    tag_96:\n      sload(0x07)\n      dup2\n      jump\t// out\n        /* \"contracts/stake_reward_MLM.sol\":12860:13014  function setReward(uint _amount,uint _denomenator) public ... */\n    tag_101:\n        /* \"contracts/stake_reward_MLM.sol\":12955:12962  _amount */\n      dup2\n        /* \"contracts/stake_reward_MLM.sol\":12941:12952  rewardToken */\n      0x04\n        /* \"contracts/stake_reward_MLM.sol\":12941:12962  rewardToken = _amount */\n      dup2\n      swap1\n      sstore\n      pop\n        /* \"contracts/stake_reward_MLM.sol\":12990:13002  _denomenator */\n      dup1\n        /* \"contracts/stake_reward_MLM.sol\":12976:12987  denomenator */\n      0x07\n        /* \"contracts/stake_reward_MLM.sol\":12976:13002  denomenator = _denomenator */\n      dup2\n      swap1\n      sstore\n      pop\n        /* \"contracts/stake_reward_MLM.sol\":12860:13014  function setReward(uint _amount,uint _denomenator) public ... */\n      pop\n      pop\n      jump\t// out\n        /* \"contracts/stake_reward_MLM.sol\":13738:14303  function referralLevel_earning() public view returns( uint[] memory arr )... */\n    tag_103:\n        /* \"contracts/stake_reward_MLM.sol\":13792:13809  uint[] memory arr */\n      0x60\n        /* \"contracts/stake_reward_MLM.sol\":13834:13869  uint[] memory referralLevels_reward */\n      0x00\n        /* \"contracts/stake_reward_MLM.sol\":13881:13883  20 */\n      0x14\n        /* \"contracts/stake_reward_MLM.sol\":13870:13884  new uint[](20) */\n      0xffffffffffffffff\n      dup2\n      gt\n      iszero\n      tag_255\n      jumpi\n      tag_256\n      tag_172\n      jump\t// in\n    tag_256:\n    tag_255:\n      mload(0x40)\n      swap1\n      dup1\n      dup3\n      mstore\n      dup1\n      0x20\n      mul\n      0x20\n      add\n      dup3\n      add\n      0x40\n      mstore\n      dup1\n      iszero\n      tag_257\n      jumpi\n      dup2\n      0x20\n      add\n      0x20\n      dup3\n      mul\n      dup1\n      calldatasize\n      dup4\n      calldatacopy\n      dup1\n      dup3\n      add\n      swap2\n      pop\n      pop\n      swap1\n      pop\n    tag_257:\n      pop\n        /* \"contracts/stake_reward_MLM.sol\":13834:13884  uint[] memory referralLevels_reward=new uint[](20) */\n      swap1\n      pop\n        /* \"contracts/stake_reward_MLM.sol\":13902:13908  uint i */\n      0x00\n        /* \"contracts/stake_reward_MLM.sol\":13898:14248  for(uint i=0;i<20;i++)... */\n    tag_258:\n        /* \"contracts/stake_reward_MLM.sol\":13913:13915  20 */\n      0x14\n        /* \"contracts/stake_reward_MLM.sol\":13911:13912  i */\n      dup2\n        /* \"contracts/stake_reward_MLM.sol\":13911:13915  i<20 */\n      lt\n        /* \"contracts/stake_reward_MLM.sol\":13898:14248  for(uint i=0;i<20;i++)... */\n      iszero\n      tag_259\n      jumpi\n        /* \"contracts/stake_reward_MLM.sol\":14003:14004  0 */\n      0x00\n        /* \"contracts/stake_reward_MLM.sol\":13954:13966  DUSDinvestor */\n      0x0c\n        /* \"contracts/stake_reward_MLM.sol\":13954:13978  DUSDinvestor[msg.sender] */\n      0x00\n        /* \"contracts/stake_reward_MLM.sol\":13967:13977  msg.sender */\n      caller\n        /* \"contracts/stake_reward_MLM.sol\":13954:13978  DUSDinvestor[msg.sender] */\n      0xffffffffffffffffffffffffffffffffffffffff\n      and\n      0xffffffffffffffffffffffffffffffffffffffff\n      and\n      dup2\n      mstore\n      0x20\n      add\n      swap1\n      dup2\n      mstore\n      0x20\n      add\n      0x00\n      keccak256\n        /* \"contracts/stake_reward_MLM.sol\":13954:13992  DUSDinvestor[msg.sender].referralLevel */\n      0x03\n      add\n        /* \"contracts/stake_reward_MLM.sol\":13954:13995  DUSDinvestor[msg.sender].referralLevel[i] */\n      0x00\n        /* \"contracts/stake_reward_MLM.sol\":13993:13994  i */\n      dup4\n        /* \"contracts/stake_reward_MLM.sol\":13954:13995  DUSDinvestor[msg.sender].referralLevel[i] */\n      dup2\n      mstore\n      0x20\n      add\n      swap1\n      dup2\n      mstore\n      0x20\n      add\n      0x00\n      keccak256\n        /* \"contracts/stake_reward_MLM.sol\":13954:14002  DUSDinvestor[msg.sender].referralLevel[i].reward */\n      0x00\n      add\n      sload\n        /* \"contracts/stake_reward_MLM.sol\":13954:14004  DUSDinvestor[msg.sender].referralLevel[i].reward>0 */\n      gt\n        /* \"contracts/stake_reward_MLM.sol\":13951:14232  if(DUSDinvestor[msg.sender].referralLevel[i].reward>0)... */\n      iszero\n      tag_261\n      jumpi\n        /* \"contracts/stake_reward_MLM.sol\":14071:14083  DUSDinvestor */\n      0x0c\n        /* \"contracts/stake_reward_MLM.sol\":14071:14095  DUSDinvestor[msg.sender] */\n      0x00\n        /* \"contracts/stake_reward_MLM.sol\":14084:14094  msg.sender */\n      caller\n        /* \"contracts/stake_reward_MLM.sol\":14071:14095  DUSDinvestor[msg.sender] */\n      0xffffffffffffffffffffffffffffffffffffffff\n      and\n      0xffffffffffffffffffffffffffffffffffffffff\n      and\n      dup2\n      mstore\n      0x20\n      add\n      swap1\n      dup2\n      mstore\n      0x20\n      add\n      0x00\n      keccak256\n        /* \"contracts/stake_reward_MLM.sol\":14071:14109  DUSDinvestor[msg.sender].referralLevel */\n      0x03\n      add\n        /* \"contracts/stake_reward_MLM.sol\":14071:14112  DUSDinvestor[msg.sender].referralLevel[i] */\n      0x00\n        /* \"contracts/stake_reward_MLM.sol\":14110:14111  i */\n      dup3\n        /* \"contracts/stake_reward_MLM.sol\":14071:14112  DUSDinvestor[msg.sender].referralLevel[i] */\n      dup2\n      mstore\n      0x20\n      add\n      swap1\n      dup2\n      mstore\n      0x20\n      add\n      0x00\n      keccak256\n        /* \"contracts/stake_reward_MLM.sol\":14071:14119  DUSDinvestor[msg.sender].referralLevel[i].reward */\n      0x00\n      add\n      sload\n        /* \"contracts/stake_reward_MLM.sol\":14044:14065  referralLevels_reward */\n      dup3\n        /* \"contracts/stake_reward_MLM.sol\":14066:14067  i */\n      dup3\n        /* \"contracts/stake_reward_MLM.sol\":14044:14068  referralLevels_reward[i] */\n      dup2\n      mload\n      dup2\n      lt\n      tag_262\n      jumpi\n      tag_263\n      tag_183\n      jump\t// in\n    tag_263:\n    tag_262:\n      0x20\n      mul\n      0x20\n      add\n      add\n        /* \"contracts/stake_reward_MLM.sol\":14044:14119  referralLevels_reward[i] = DUSDinvestor[msg.sender].referralLevel[i].reward */\n      dup2\n      dup2\n      mstore\n      pop\n      pop\n        /* \"contracts/stake_reward_MLM.sol\":13951:14232  if(DUSDinvestor[msg.sender].referralLevel[i].reward>0)... */\n      jump(tag_264)\n    tag_261:\n        /* \"contracts/stake_reward_MLM.sol\":14211:14212  0 */\n      0x00\n        /* \"contracts/stake_reward_MLM.sol\":14184:14205  referralLevels_reward */\n      dup3\n        /* \"contracts/stake_reward_MLM.sol\":14206:14207  i */\n      dup3\n        /* \"contracts/stake_reward_MLM.sol\":14184:14208  referralLevels_reward[i] */\n      dup2\n      mload\n      dup2\n      lt\n      tag_265\n      jumpi\n      tag_266\n      tag_183\n      jump\t// in\n    tag_266:\n    tag_265:\n      0x20\n      mul\n      0x20\n      add\n      add\n        /* \"contracts/stake_reward_MLM.sol\":14184:14212  referralLevels_reward[i] = 0 */\n      dup2\n      dup2\n      mstore\n      pop\n      pop\n        /* \"contracts/stake_reward_MLM.sol\":13951:14232  if(DUSDinvestor[msg.sender].referralLevel[i].reward>0)... */\n    tag_264:\n        /* \"contracts/stake_reward_MLM.sol\":13916:13919  i++ */\n      dup1\n      dup1\n      tag_267\n      swap1\n      tag_144\n      jump\t// in\n    tag_267:\n      swap2\n      pop\n      pop\n        /* \"contracts/stake_reward_MLM.sol\":13898:14248  for(uint i=0;i<20;i++)... */\n      jump(tag_258)\n    tag_259:\n      pop\n        /* \"contracts/stake_reward_MLM.sol\":14268:14289  referralLevels_reward */\n      dup1\n        /* \"contracts/stake_reward_MLM.sol\":14261:14289  return referralLevels_reward */\n      swap2\n      pop\n      pop\n        /* \"contracts/stake_reward_MLM.sol\":13738:14303  function referralLevel_earning() public view returns( uint[] memory arr )... */\n      swap1\n      jump\t// out\n        /* \"contracts/stake_reward_MLM.sol\":733:767  uint public min_Stake_amount=10000 */\n    tag_107:\n      sload(0x05)\n      dup2\n      jump\t// out\n        /* \"contracts/stake_reward_MLM.sol\":8714:9736  function withdrawReward() external returns (bool success){... */\n    tag_110:\n        /* \"contracts/stake_reward_MLM.sol\":8758:8770  bool success */\n      0x00\n        /* \"contracts/stake_reward_MLM.sol\":8785:8802  uint Total_reward */\n      dup1\n        /* \"contracts/stake_reward_MLM.sol\":8805:8816  getReward() */\n      tag_269\n        /* \"contracts/stake_reward_MLM.sol\":8805:8814  getReward */\n      tag_62\n        /* \"contracts/stake_reward_MLM.sol\":8805:8816  getReward() */\n      jump\t// in\n    tag_269:\n        /* \"contracts/stake_reward_MLM.sol\":8785:8816  uint Total_reward = getReward() */\n      swap1\n      pop\n        /* \"contracts/stake_reward_MLM.sol\":8851:8852  0 */\n      0x00\n        /* \"contracts/stake_reward_MLM.sol\":8838:8850  Total_reward */\n      dup2\n        /* \"contracts/stake_reward_MLM.sol\":8838:8852  Total_reward>0 */\n      gt\n        /* \"contracts/stake_reward_MLM.sol\":8830:8890  require(Total_reward>0,\"you dont have rewards to withdrawn\") */\n      tag_270\n      jumpi\n      mload(0x40)\n      0x08c379a000000000000000000000000000000000000000000000000000000000\n      dup2\n      mstore\n      0x04\n      add\n      tag_271\n      swap1\n      tag_272\n      jump\t// in\n    tag_271:\n      mload(0x40)\n      dup1\n      swap2\n      sub\n      swap1\n      revert\n    tag_270:\n        /* \"contracts/stake_reward_MLM.sol\":8969:8982  uint reward21 */\n      0x00\n        /* \"contracts/stake_reward_MLM.sol\":9003:9006  100 */\n      0x64\n        /* \"contracts/stake_reward_MLM.sol\":8999:9001  21 */\n      0x15\n        /* \"contracts/stake_reward_MLM.sol\":8986:8998  Total_reward */\n      dup4\n        /* \"contracts/stake_reward_MLM.sol\":8986:9001  Total_reward*21 */\n      tag_273\n      swap2\n      swap1\n      tag_154\n      jump\t// in\n    tag_273:\n        /* \"contracts/stake_reward_MLM.sol\":8985:9006  (Total_reward*21)/100 */\n      tag_274\n      swap2\n      swap1\n      tag_196\n      jump\t// in\n    tag_274:\n        /* \"contracts/stake_reward_MLM.sol\":8969:9006  uint reward21 = (Total_reward*21)/100 */\n      swap1\n      pop\n        /* \"contracts/stake_reward_MLM.sol\":9033:9056  address parent_referral */\n      0x00\n        /* \"contracts/stake_reward_MLM.sol\":9059:9071  DUSDinvestor */\n      0x0c\n        /* \"contracts/stake_reward_MLM.sol\":9059:9083  DUSDinvestor[msg.sender] */\n      0x00\n        /* \"contracts/stake_reward_MLM.sol\":9072:9082  msg.sender */\n      caller\n        /* \"contracts/stake_reward_MLM.sol\":9059:9083  DUSDinvestor[msg.sender] */\n      0xffffffffffffffffffffffffffffffffffffffff\n      and\n      0xffffffffffffffffffffffffffffffffffffffff\n      and\n      dup2\n      mstore\n      0x20\n      add\n      swap1\n      dup2\n      mstore\n      0x20\n      add\n      0x00\n      keccak256\n        /* \"contracts/stake_reward_MLM.sol\":9059:9096  DUSDinvestor[msg.sender].referralFrom */\n      0x02\n      add\n      0x00\n      swap1\n      sload\n      swap1\n      0x0100\n      exp\n      swap1\n      div\n      0xffffffffffffffffffffffffffffffffffffffff\n      and\n        /* \"contracts/stake_reward_MLM.sol\":9033:9096  address parent_referral = DUSDinvestor[msg.sender].referralFrom */\n      swap1\n      pop\n        /* \"contracts/stake_reward_MLM.sol\":9140:9141  0 */\n      0x00\n        /* \"contracts/stake_reward_MLM.sol\":9113:9142  parent_referral != address(0) */\n      0xffffffffffffffffffffffffffffffffffffffff\n      and\n        /* \"contracts/stake_reward_MLM.sol\":9113:9128  parent_referral */\n      dup2\n        /* \"contracts/stake_reward_MLM.sol\":9113:9142  parent_referral != address(0) */\n      0xffffffffffffffffffffffffffffffffffffffff\n      and\n      eq\n        /* \"contracts/stake_reward_MLM.sol\":9110:9625  if(parent_referral != address(0)){... */\n      tag_275\n      jumpi\n        /* \"contracts/stake_reward_MLM.sol\":9167:9179  BUSDcontract */\n      0x02\n      0x00\n      swap1\n      sload\n      swap1\n      0x0100\n      exp\n      swap1\n      div\n      0xffffffffffffffffffffffffffffffffffffffff\n      and\n        /* \"contracts/stake_reward_MLM.sol\":9162:9189  DUSD(BUSDcontract).transfer */\n      0xffffffffffffffffffffffffffffffffffffffff\n      and\n      0xa9059cbb\n        /* \"contracts/stake_reward_MLM.sol\":9190:9205  parent_referral */\n      dup3\n        /* \"contracts/stake_reward_MLM.sol\":9215:9221  10**18 */\n      0x0de0b6b3a7640000\n        /* \"contracts/stake_reward_MLM.sol\":9206:9214  reward21 */\n      dup6\n        /* \"contracts/stake_reward_MLM.sol\":9206:9221  reward21*10**18 */\n      tag_276\n      swap2\n      swap1\n      tag_154\n      jump\t// in\n    tag_276:\n        /* \"contracts/stake_reward_MLM.sol\":9162:9222  DUSD(BUSDcontract).transfer(parent_referral,reward21*10**18) */\n      mload(0x40)\n      dup4\n      0xffffffff\n      and\n      0xe0\n      shl\n      dup2\n      mstore\n      0x04\n      add\n      tag_277\n      swap3\n      swap2\n      swap1\n      tag_243\n      jump\t// in\n    tag_277:\n      0x20\n      mload(0x40)\n      dup1\n      dup4\n      sub\n      dup2\n      0x00\n      dup8\n      dup1\n      extcodesize\n      iszero\n      dup1\n      iszero\n      tag_278\n      jumpi\n      0x00\n      dup1\n      revert\n    tag_278:\n      pop\n      gas\n      call\n      iszero\n      dup1\n      iszero\n      tag_280\n      jumpi\n      returndatasize\n      0x00\n      dup1\n      returndatacopy\n      revert(0x00, returndatasize)\n    tag_280:\n      pop\n      pop\n      pop\n      pop\n      mload(0x40)\n      returndatasize\n      not(0x1f)\n      0x1f\n      dup3\n      add\n      and\n      dup3\n      add\n      dup1\n      0x40\n      mstore\n      pop\n      dup2\n      add\n      swap1\n      tag_281\n      swap2\n      swap1\n      tag_161\n      jump\t// in\n    tag_281:\n      pop\n        /* \"contracts/stake_reward_MLM.sol\":9308:9320  BUSDcontract */\n      0x02\n      0x00\n      swap1\n      sload\n      swap1\n      0x0100\n      exp\n      swap1\n      div\n      0xffffffffffffffffffffffffffffffffffffffff\n      and\n        /* \"contracts/stake_reward_MLM.sol\":9303:9330  DUSD(BUSDcontract).transfer */\n      0xffffffffffffffffffffffffffffffffffffffff\n      and\n      0xa9059cbb\n        /* \"contracts/stake_reward_MLM.sol\":9331:9341  msg.sender */\n      caller\n        /* \"contracts/stake_reward_MLM.sol\":9366:9372  10**18 */\n      0x0de0b6b3a7640000\n        /* \"contracts/stake_reward_MLM.sol\":9356:9364  reward21 */\n      dup6\n        /* \"contracts/stake_reward_MLM.sol\":9343:9355  Total_reward */\n      dup8\n        /* \"contracts/stake_reward_MLM.sol\":9343:9364  Total_reward-reward21 */\n      tag_282\n      swap2\n      swap1\n      tag_192\n      jump\t// in\n    tag_282:\n        /* \"contracts/stake_reward_MLM.sol\":9342:9372  (Total_reward-reward21)*10**18 */\n      tag_283\n      swap2\n      swap1\n      tag_154\n      jump\t// in\n    tag_283:\n        /* \"contracts/stake_reward_MLM.sol\":9303:9373  DUSD(BUSDcontract).transfer(msg.sender,(Total_reward-reward21)*10**18) */\n      mload(0x40)\n      dup4\n      0xffffffff\n      and\n      0xe0\n      shl\n      dup2\n      mstore\n      0x04\n      add\n      tag_284\n      swap3\n      swap2\n      swap1\n      tag_243\n      jump\t// in\n    tag_284:\n      0x20\n      mload(0x40)\n      dup1\n      dup4\n      sub\n      dup2\n      0x00\n      dup8\n      dup1\n      extcodesize\n      iszero\n      dup1\n      iszero\n      tag_285\n      jumpi\n      0x00\n      dup1\n      revert\n    tag_285:\n      pop\n      gas\n      call\n      iszero\n      dup1\n      iszero\n      tag_287\n      jumpi\n      returndatasize\n      0x00\n      dup1\n      returndatacopy\n      revert(0x00, returndatasize)\n    tag_287:\n      pop\n      pop\n      pop\n      pop\n      mload(0x40)\n      returndatasize\n      not(0x1f)\n      0x1f\n      dup3\n      add\n      and\n      dup3\n      add\n      dup1\n      0x40\n      mstore\n      pop\n      dup2\n      add\n      swap1\n      tag_288\n      swap2\n      swap1\n      tag_161\n      jump\t// in\n    tag_288:\n      pop\n        /* \"contracts/stake_reward_MLM.sol\":9110:9625  if(parent_referral != address(0)){... */\n      jump(tag_289)\n    tag_275:\n        /* \"contracts/stake_reward_MLM.sol\":9492:9504  BUSDcontract */\n      0x02\n      0x00\n      swap1\n      sload\n      swap1\n      0x0100\n      exp\n      swap1\n      div\n      0xffffffffffffffffffffffffffffffffffffffff\n      and\n        /* \"contracts/stake_reward_MLM.sol\":9487:9514  DUSD(BUSDcontract).transfer */\n      0xffffffffffffffffffffffffffffffffffffffff\n      and\n      0xa9059cbb\n        /* \"contracts/stake_reward_MLM.sol\":9515:9525  msg.sender */\n      caller\n        /* \"contracts/stake_reward_MLM.sol\":9539:9545  10**18 */\n      0x0de0b6b3a7640000\n        /* \"contracts/stake_reward_MLM.sol\":9526:9538  Total_reward */\n      dup7\n        /* \"contracts/stake_reward_MLM.sol\":9526:9545  Total_reward*10**18 */\n      tag_290\n      swap2\n      swap1\n      tag_154\n      jump\t// in\n    tag_290:\n        /* \"contracts/stake_reward_MLM.sol\":9487:9546  DUSD(BUSDcontract).transfer(msg.sender,Total_reward*10**18) */\n      mload(0x40)\n      dup4\n      0xffffffff\n      and\n      0xe0\n      shl\n      dup2\n      mstore\n      0x04\n      add\n      tag_291\n      swap3\n      swap2\n      swap1\n      tag_243\n      jump\t// in\n    tag_291:\n      0x20\n      mload(0x40)\n      dup1\n      dup4\n      sub\n      dup2\n      0x00\n      dup8\n      dup1\n      extcodesize\n      iszero\n      dup1\n      iszero\n      tag_292\n      jumpi\n      0x00\n      dup1\n      revert\n    tag_292:\n      pop\n      gas\n      call\n      iszero\n      dup1\n      iszero\n      tag_294\n      jumpi\n      returndatasize\n      0x00\n      dup1\n      returndatacopy\n      revert(0x00, returndatasize)\n    tag_294:\n      pop\n      pop\n      pop\n      pop\n      mload(0x40)\n      returndatasize\n      not(0x1f)\n      0x1f\n      dup3\n      add\n      and\n      dup3\n      add\n      dup1\n      0x40\n      mstore\n      pop\n      dup2\n      add\n      swap1\n      tag_295\n      swap2\n      swap1\n      tag_161\n      jump\t// in\n    tag_295:\n      pop\n        /* \"contracts/stake_reward_MLM.sol\":9110:9625  if(parent_referral != address(0)){... */\n    tag_289:\n        /* \"contracts/stake_reward_MLM.sol\":9686:9698  Total_reward */\n      dup3\n        /* \"contracts/stake_reward_MLM.sol\":9639:9651  DUSDinvestor */\n      0x0c\n        /* \"contracts/stake_reward_MLM.sol\":9639:9663  DUSDinvestor[msg.sender] */\n      0x00\n        /* \"contracts/stake_reward_MLM.sol\":9652:9662  msg.sender */\n      caller\n        /* \"contracts/stake_reward_MLM.sol\":9639:9663  DUSDinvestor[msg.sender] */\n      0xffffffffffffffffffffffffffffffffffffffff\n      and\n      0xffffffffffffffffffffffffffffffffffffffff\n      and\n      dup2\n      mstore\n      0x20\n      add\n      swap1\n      dup2\n      mstore\n      0x20\n      add\n      0x00\n      keccak256\n        /* \"contracts/stake_reward_MLM.sol\":9639:9684  DUSDinvestor[msg.sender].totalWithdraw_reward */\n      0x07\n      add\n      0x00\n        /* \"contracts/stake_reward_MLM.sol\":9639:9698  DUSDinvestor[msg.sender].totalWithdraw_reward+=Total_reward */\n      dup3\n      dup3\n      sload\n      tag_296\n      swap2\n      swap1\n      tag_148\n      jump\t// in\n    tag_296:\n      swap3\n      pop\n      pop\n      dup2\n      swap1\n      sstore\n      pop\n        /* \"contracts/stake_reward_MLM.sol\":9720:9724  true */\n      0x01\n        /* \"contracts/stake_reward_MLM.sol\":9713:9724  return true */\n      swap4\n      pop\n      pop\n      pop\n      pop\n        /* \"contracts/stake_reward_MLM.sol\":8714:9736  function withdrawReward() external returns (bool success){... */\n      swap1\n      jump\t// out\n        /* \"contracts/stake_reward_MLM.sol\":2059:2101  mapping(address=>Data) public DUSDinvestor */\n    tag_115:\n      mstore(0x20, 0x0c)\n      dup1\n      0x00\n      mstore\n      keccak256(0x00, 0x40)\n      0x00\n      swap2\n      pop\n      swap1\n      pop\n      dup1\n      0x02\n      add\n      0x00\n      swap1\n      sload\n      swap1\n      0x0100\n      exp\n      swap1\n      div\n      0xffffffffffffffffffffffffffffffffffffffff\n      and\n      swap1\n      dup1\n      0x04\n      add\n      sload\n      swap1\n      dup1\n      0x05\n      add\n      sload\n      swap1\n      dup1\n      0x06\n      add\n      sload\n      swap1\n      dup1\n      0x07\n      add\n      sload\n      swap1\n      dup1\n      0x08\n      add\n      0x00\n      swap1\n      sload\n      swap1\n      0x0100\n      exp\n      swap1\n      div\n      0xff\n      and\n      swap1\n      dup1\n      0x09\n      add\n      sload\n      swap1\n      pop\n      dup8\n      jump\t// out\n        /* \"contracts/stake_reward_MLM.sol\":993:1018  uint public totalbusiness */\n    tag_119:\n      sload(0x09)\n      dup2\n      jump\t// out\n        /* \"contracts/stake_reward_MLM.sol\":13554:13728  function transferOwnership(address _owner)  public... */\n    tag_123:\n        /* \"contracts/stake_reward_MLM.sol\":13647:13652  owner */\n      0x00\n      dup1\n      sload\n      swap1\n      0x0100\n      exp\n      swap1\n      div\n      0xffffffffffffffffffffffffffffffffffffffff\n      and\n        /* \"contracts/stake_reward_MLM.sol\":13635:13652  msg.sender==owner */\n      0xffffffffffffffffffffffffffffffffffffffff\n      and\n        /* \"contracts/stake_reward_MLM.sol\":13635:13645  msg.sender */\n      caller\n        /* \"contracts/stake_reward_MLM.sol\":13635:13652  msg.sender==owner */\n      0xffffffffffffffffffffffffffffffffffffffff\n      and\n      eq\n        /* \"contracts/stake_reward_MLM.sol\":13627:13689  require(msg.sender==owner,\"only Owner can call this function\") */\n      tag_298\n      jumpi\n      mload(0x40)\n      0x08c379a000000000000000000000000000000000000000000000000000000000\n      dup2\n      mstore\n      0x04\n      add\n      tag_299\n      swap1\n      tag_300\n      jump\t// in\n    tag_299:\n      mload(0x40)\n      dup1\n      swap2\n      sub\n      swap1\n      revert\n    tag_298:\n        /* \"contracts/stake_reward_MLM.sol\":13711:13717  _owner */\n      dup1\n        /* \"contracts/stake_reward_MLM.sol\":13703:13708  owner */\n      0x00\n      dup1\n        /* \"contracts/stake_reward_MLM.sol\":13703:13717  owner = _owner */\n      0x0100\n      exp\n      dup2\n      sload\n      dup2\n      0xffffffffffffffffffffffffffffffffffffffff\n      mul\n      not\n      and\n      swap1\n      dup4\n      0xffffffffffffffffffffffffffffffffffffffff\n      and\n      mul\n      or\n      swap1\n      sstore\n      pop\n        /* \"contracts/stake_reward_MLM.sol\":13554:13728  function transferOwnership(address _owner)  public... */\n      pop\n      jump\t// out\n        /* \"contracts/stake_reward_MLM.sol\":14312:14873  function referralLevel_count() public view returns( uint[] memory arr )... */\n    tag_125:\n        /* \"contracts/stake_reward_MLM.sol\":14364:14381  uint[] memory arr */\n      0x60\n        /* \"contracts/stake_reward_MLM.sol\":14406:14441  uint[] memory referralLevels_reward */\n      0x00\n        /* \"contracts/stake_reward_MLM.sol\":14453:14455  20 */\n      0x14\n        /* \"contracts/stake_reward_MLM.sol\":14442:14456  new uint[](20) */\n      0xffffffffffffffff\n      dup2\n      gt\n      iszero\n      tag_302\n      jumpi\n      tag_303\n      tag_172\n      jump\t// in\n    tag_303:\n    tag_302:\n      mload(0x40)\n      swap1\n      dup1\n      dup3\n      mstore\n      dup1\n      0x20\n      mul\n      0x20\n      add\n      dup3\n      add\n      0x40\n      mstore\n      dup1\n      iszero\n      tag_304\n      jumpi\n      dup2\n      0x20\n      add\n      0x20\n      dup3\n      mul\n      dup1\n      calldatasize\n      dup4\n      calldatacopy\n      dup1\n      dup3\n      add\n      swap2\n      pop\n      pop\n      swap1\n      pop\n    tag_304:\n      pop\n        /* \"contracts/stake_reward_MLM.sol\":14406:14456  uint[] memory referralLevels_reward=new uint[](20) */\n      swap1\n      pop\n        /* \"contracts/stake_reward_MLM.sol\":14474:14480  uint i */\n      0x00\n        /* \"contracts/stake_reward_MLM.sol\":14470:14818  for(uint i=0;i<20;i++)... */\n    tag_305:\n        /* \"contracts/stake_reward_MLM.sol\":14485:14487  20 */\n      0x14\n        /* \"contracts/stake_reward_MLM.sol\":14483:14484  i */\n      dup2\n        /* \"contracts/stake_reward_MLM.sol\":14483:14487  i<20 */\n      lt\n        /* \"contracts/stake_reward_MLM.sol\":14470:14818  for(uint i=0;i<20;i++)... */\n      iszero\n      tag_306\n      jumpi\n        /* \"contracts/stake_reward_MLM.sol\":14575:14576  0 */\n      0x00\n        /* \"contracts/stake_reward_MLM.sol\":14526:14538  DUSDinvestor */\n      0x0c\n        /* \"contracts/stake_reward_MLM.sol\":14526:14550  DUSDinvestor[msg.sender] */\n      0x00\n        /* \"contracts/stake_reward_MLM.sol\":14539:14549  msg.sender */\n      caller\n        /* \"contracts/stake_reward_MLM.sol\":14526:14550  DUSDinvestor[msg.sender] */\n      0xffffffffffffffffffffffffffffffffffffffff\n      and\n      0xffffffffffffffffffffffffffffffffffffffff\n      and\n      dup2\n      mstore\n      0x20\n      add\n      swap1\n      dup2\n      mstore\n      0x20\n      add\n      0x00\n      keccak256\n        /* \"contracts/stake_reward_MLM.sol\":14526:14564  DUSDinvestor[msg.sender].referralLevel */\n      0x03\n      add\n        /* \"contracts/stake_reward_MLM.sol\":14526:14567  DUSDinvestor[msg.sender].referralLevel[i] */\n      0x00\n        /* \"contracts/stake_reward_MLM.sol\":14565:14566  i */\n      dup4\n        /* \"contracts/stake_reward_MLM.sol\":14526:14567  DUSDinvestor[msg.sender].referralLevel[i] */\n      dup2\n      mstore\n      0x20\n      add\n      swap1\n      dup2\n      mstore\n      0x20\n      add\n      0x00\n      keccak256\n        /* \"contracts/stake_reward_MLM.sol\":14526:14574  DUSDinvestor[msg.sender].referralLevel[i].reward */\n      0x00\n      add\n      sload\n        /* \"contracts/stake_reward_MLM.sol\":14526:14576  DUSDinvestor[msg.sender].referralLevel[i].reward>0 */\n      gt\n        /* \"contracts/stake_reward_MLM.sol\":14523:14802  if(DUSDinvestor[msg.sender].referralLevel[i].reward>0)... */\n      iszero\n      tag_308\n      jumpi\n        /* \"contracts/stake_reward_MLM.sol\":14643:14655  DUSDinvestor */\n      0x0c\n        /* \"contracts/stake_reward_MLM.sol\":14643:14667  DUSDinvestor[msg.sender] */\n      0x00\n        /* \"contracts/stake_reward_MLM.sol\":14656:14666  msg.sender */\n      caller\n        /* \"contracts/stake_reward_MLM.sol\":14643:14667  DUSDinvestor[msg.sender] */\n      0xffffffffffffffffffffffffffffffffffffffff\n      and\n      0xffffffffffffffffffffffffffffffffffffffff\n      and\n      dup2\n      mstore\n      0x20\n      add\n      swap1\n      dup2\n      mstore\n      0x20\n      add\n      0x00\n      keccak256\n        /* \"contracts/stake_reward_MLM.sol\":14643:14681  DUSDinvestor[msg.sender].referralLevel */\n      0x03\n      add\n        /* \"contracts/stake_reward_MLM.sol\":14643:14684  DUSDinvestor[msg.sender].referralLevel[i] */\n      0x00\n        /* \"contracts/stake_reward_MLM.sol\":14682:14683  i */\n      dup3\n        /* \"contracts/stake_reward_MLM.sol\":14643:14684  DUSDinvestor[msg.sender].referralLevel[i] */\n      dup2\n      mstore\n      0x20\n      add\n      swap1\n      dup2\n      mstore\n      0x20\n      add\n      0x00\n      keccak256\n        /* \"contracts/stake_reward_MLM.sol\":14643:14690  DUSDinvestor[msg.sender].referralLevel[i].count */\n      0x01\n      add\n      sload\n        /* \"contracts/stake_reward_MLM.sol\":14616:14637  referralLevels_reward */\n      dup3\n        /* \"contracts/stake_reward_MLM.sol\":14638:14639  i */\n      dup3\n        /* \"contracts/stake_reward_MLM.sol\":14616:14640  referralLevels_reward[i] */\n      dup2\n      mload\n      dup2\n      lt\n      tag_309\n      jumpi\n      tag_310\n      tag_183\n      jump\t// in\n    tag_310:\n    tag_309:\n      0x20\n      mul\n      0x20\n      add\n      add\n        /* \"contracts/stake_reward_MLM.sol\":14616:14690  referralLevels_reward[i] = DUSDinvestor[msg.sender].referralLevel[i].count */\n      dup2\n      dup2\n      mstore\n      pop\n      pop\n        /* \"contracts/stake_reward_MLM.sol\":14523:14802  if(DUSDinvestor[msg.sender].referralLevel[i].reward>0)... */\n      jump(tag_311)\n    tag_308:\n        /* \"contracts/stake_reward_MLM.sol\":14781:14782  0 */\n      0x00\n        /* \"contracts/stake_reward_MLM.sol\":14754:14775  referralLevels_reward */\n      dup3\n        /* \"contracts/stake_reward_MLM.sol\":14776:14777  i */\n      dup3\n        /* \"contracts/stake_reward_MLM.sol\":14754:14778  referralLevels_reward[i] */\n      dup2\n      mload\n      dup2\n      lt\n      tag_312\n      jumpi\n      tag_313\n      tag_183\n      jump\t// in\n    tag_313:\n    tag_312:\n      0x20\n      mul\n      0x20\n      add\n      add\n        /* \"contracts/stake_reward_MLM.sol\":14754:14782  referralLevels_reward[i] = 0 */\n      dup2\n      dup2\n      mstore\n      pop\n      pop\n        /* \"contracts/stake_reward_MLM.sol\":14523:14802  if(DUSDinvestor[msg.sender].referralLevel[i].reward>0)... */\n    tag_311:\n        /* \"contracts/stake_reward_MLM.sol\":14488:14491  i++ */\n      dup1\n      dup1\n      tag_314\n      swap1\n      tag_144\n      jump\t// in\n    tag_314:\n      swap2\n      pop\n      pop\n        /* \"contracts/stake_reward_MLM.sol\":14470:14818  for(uint i=0;i<20;i++)... */\n      jump(tag_305)\n    tag_306:\n      pop\n        /* \"contracts/stake_reward_MLM.sol\":14838:14859  referralLevels_reward */\n      dup1\n        /* \"contracts/stake_reward_MLM.sol\":14831:14859  return referralLevels_reward */\n      swap2\n      pop\n      pop\n        /* \"contracts/stake_reward_MLM.sol\":14312:14873  function referralLevel_count() public view returns( uint[] memory arr )... */\n      swap1\n      jump\t// out\n        /* \"contracts/stake_reward_MLM.sol\":670:713  uint public rewardToken=5000000000000000000 */\n    tag_128:\n      sload(0x04)\n      dup2\n      jump\t// out\n        /* \"contracts/stake_reward_MLM.sol\":804:840  uint public max_Stake_amount=5000000 */\n    tag_131:\n      sload(0x06)\n      dup2\n      jump\t// out\n        /* \"contracts/stake_reward_MLM.sol\":7499:8701  function get_investor_Reward(address investor) view internal returns(uint){ //this function is get the total reward balance of the investor... */\n    tag_219:\n        /* \"contracts/stake_reward_MLM.sol\":7568:7572  uint */\n      0x00\n        /* \"contracts/stake_reward_MLM.sol\":7651:7667  uint totalReward */\n      dup1\n        /* \"contracts/stake_reward_MLM.sol\":7681:7693  uint depTime */\n      0x00\n        /* \"contracts/stake_reward_MLM.sol\":7707:7715  uint rew */\n      dup1\n        /* \"contracts/stake_reward_MLM.sol\":7729:7738  uint temp */\n      0x00\n        /* \"contracts/stake_reward_MLM.sol\":7741:7753  DUSDinvestor */\n      0x0c\n        /* \"contracts/stake_reward_MLM.sol\":7741:7763  DUSDinvestor[investor] */\n      0x00\n        /* \"contracts/stake_reward_MLM.sol\":7754:7762  investor */\n      dup8\n        /* \"contracts/stake_reward_MLM.sol\":7741:7763  DUSDinvestor[investor] */\n      0xffffffffffffffffffffffffffffffffffffffff\n      and\n      0xffffffffffffffffffffffffffffffffffffffff\n      and\n      dup2\n      mstore\n      0x20\n      add\n      swap1\n      dup2\n      mstore\n      0x20\n      add\n      0x00\n      keccak256\n        /* \"contracts/stake_reward_MLM.sol\":7741:7778  DUSDinvestor[investor].noOfInvestment */\n      0x05\n      add\n      sload\n        /* \"contracts/stake_reward_MLM.sol\":7729:7778  uint temp = DUSDinvestor[investor].noOfInvestment */\n      swap1\n      pop\n        /* \"contracts/stake_reward_MLM.sol\":7797:7803  uint i */\n      0x00\n        /* \"contracts/stake_reward_MLM.sol\":7792:8586  for( uint i = 0;i < temp;i++)... */\n    tag_316:\n        /* \"contracts/stake_reward_MLM.sol\":7812:7816  temp */\n      dup2\n        /* \"contracts/stake_reward_MLM.sol\":7808:7809  i */\n      dup2\n        /* \"contracts/stake_reward_MLM.sol\":7808:7816  i < temp */\n      lt\n        /* \"contracts/stake_reward_MLM.sol\":7792:8586  for( uint i = 0;i < temp;i++)... */\n      iszero\n      tag_317\n      jumpi\n        /* \"contracts/stake_reward_MLM.sol\":7859:7871  DUSDinvestor */\n      0x0c\n        /* \"contracts/stake_reward_MLM.sol\":7859:7881  DUSDinvestor[investor] */\n      0x00\n        /* \"contracts/stake_reward_MLM.sol\":7872:7880  investor */\n      dup9\n        /* \"contracts/stake_reward_MLM.sol\":7859:7881  DUSDinvestor[investor] */\n      0xffffffffffffffffffffffffffffffffffffffff\n      and\n      0xffffffffffffffffffffffffffffffffffffffff\n      and\n      dup2\n      mstore\n      0x20\n      add\n      swap1\n      dup2\n      mstore\n      0x20\n      add\n      0x00\n      keccak256\n        /* \"contracts/stake_reward_MLM.sol\":7859:7892  DUSDinvestor[investor].investment */\n      0x00\n      add\n        /* \"contracts/stake_reward_MLM.sol\":7859:7895  DUSDinvestor[investor].investment[i] */\n      0x00\n        /* \"contracts/stake_reward_MLM.sol\":7893:7894  i */\n      dup3\n        /* \"contracts/stake_reward_MLM.sol\":7859:7895  DUSDinvestor[investor].investment[i] */\n      dup2\n      mstore\n      0x20\n      add\n      swap1\n      dup2\n      mstore\n      0x20\n      add\n      0x00\n      keccak256\n        /* \"contracts/stake_reward_MLM.sol\":7859:7903  DUSDinvestor[investor].investment[i].unstake */\n      0x05\n      add\n      0x00\n      swap1\n      sload\n      swap1\n      0x0100\n      exp\n      swap1\n      div\n      0xff\n      and\n        /* \"contracts/stake_reward_MLM.sol\":7855:8207  if(!DUSDinvestor[investor].investment[i].unstake)... */\n      tag_319\n      jumpi\n        /* \"contracts/stake_reward_MLM.sol\":7970:7982  DUSDinvestor */\n      0x0c\n        /* \"contracts/stake_reward_MLM.sol\":7970:7992  DUSDinvestor[investor] */\n      0x00\n        /* \"contracts/stake_reward_MLM.sol\":7983:7991  investor */\n      dup9\n        /* \"contracts/stake_reward_MLM.sol\":7970:7992  DUSDinvestor[investor] */\n      0xffffffffffffffffffffffffffffffffffffffff\n      and\n      0xffffffffffffffffffffffffffffffffffffffff\n      and\n      dup2\n      mstore\n      0x20\n      add\n      swap1\n      dup2\n      mstore\n      0x20\n      add\n      0x00\n      keccak256\n        /* \"contracts/stake_reward_MLM.sol\":7970:8003  DUSDinvestor[investor].investment */\n      0x00\n      add\n        /* \"contracts/stake_reward_MLM.sol\":7970:8006  DUSDinvestor[investor].investment[i] */\n      0x00\n        /* \"contracts/stake_reward_MLM.sol\":8004:8005  i */\n      dup3\n        /* \"contracts/stake_reward_MLM.sol\":7970:8006  DUSDinvestor[investor].investment[i] */\n      dup2\n      mstore\n      0x20\n      add\n      swap1\n      dup2\n      mstore\n      0x20\n      add\n      0x00\n      keccak256\n        /* \"contracts/stake_reward_MLM.sol\":7970:8018  DUSDinvestor[investor].investment[i].DepositTime */\n      0x02\n      add\n      sload\n        /* \"contracts/stake_reward_MLM.sol\":7952:7967  block.timestamp */\n      timestamp\n        /* \"contracts/stake_reward_MLM.sol\":7952:8018  block.timestamp - DUSDinvestor[investor].investment[i].DepositTime */\n      tag_320\n      swap2\n      swap1\n      tag_192\n      jump\t// in\n    tag_320:\n        /* \"contracts/stake_reward_MLM.sol\":7943:8018  depTime =block.timestamp - DUSDinvestor[investor].investment[i].DepositTime */\n      swap4\n      pop\n        /* \"contracts/stake_reward_MLM.sol\":7855:8207  if(!DUSDinvestor[investor].investment[i].unstake)... */\n      jump(tag_321)\n    tag_319:\n        /* \"contracts/stake_reward_MLM.sol\":8140:8152  DUSDinvestor */\n      0x0c\n        /* \"contracts/stake_reward_MLM.sol\":8140:8162  DUSDinvestor[investor] */\n      0x00\n        /* \"contracts/stake_reward_MLM.sol\":8153:8161  investor */\n      dup9\n        /* \"contracts/stake_reward_MLM.sol\":8140:8162  DUSDinvestor[investor] */\n      0xffffffffffffffffffffffffffffffffffffffff\n      and\n      0xffffffffffffffffffffffffffffffffffffffff\n      and\n      dup2\n      mstore\n      0x20\n      add\n      swap1\n      dup2\n      mstore\n      0x20\n      add\n      0x00\n      keccak256\n        /* \"contracts/stake_reward_MLM.sol\":8140:8173  DUSDinvestor[investor].investment */\n      0x00\n      add\n        /* \"contracts/stake_reward_MLM.sol\":8140:8176  DUSDinvestor[investor].investment[i] */\n      0x00\n        /* \"contracts/stake_reward_MLM.sol\":8174:8175  i */\n      dup3\n        /* \"contracts/stake_reward_MLM.sol\":8140:8176  DUSDinvestor[investor].investment[i] */\n      dup2\n      mstore\n      0x20\n      add\n      swap1\n      dup2\n      mstore\n      0x20\n      add\n      0x00\n      keccak256\n        /* \"contracts/stake_reward_MLM.sol\":8140:8188  DUSDinvestor[investor].investment[i].DepositTime */\n      0x02\n      add\n      sload\n        /* \"contracts/stake_reward_MLM.sol\":8089:8101  DUSDinvestor */\n      0x0c\n        /* \"contracts/stake_reward_MLM.sol\":8089:8111  DUSDinvestor[investor] */\n      0x00\n        /* \"contracts/stake_reward_MLM.sol\":8102:8110  investor */\n      dup10\n        /* \"contracts/stake_reward_MLM.sol\":8089:8111  DUSDinvestor[investor] */\n      0xffffffffffffffffffffffffffffffffffffffff\n      and\n      0xffffffffffffffffffffffffffffffffffffffff\n      and\n      dup2\n      mstore\n      0x20\n      add\n      swap1\n      dup2\n      mstore\n      0x20\n      add\n      0x00\n      keccak256\n        /* \"contracts/stake_reward_MLM.sol\":8089:8122  DUSDinvestor[investor].investment */\n      0x00\n      add\n        /* \"contracts/stake_reward_MLM.sol\":8089:8125  DUSDinvestor[investor].investment[i] */\n      0x00\n        /* \"contracts/stake_reward_MLM.sol\":8123:8124  i */\n      dup4\n        /* \"contracts/stake_reward_MLM.sol\":8089:8125  DUSDinvestor[investor].investment[i] */\n      dup2\n      mstore\n      0x20\n      add\n      swap1\n      dup2\n      mstore\n      0x20\n      add\n      0x00\n      keccak256\n        /* \"contracts/stake_reward_MLM.sol\":8089:8137  DUSDinvestor[investor].investment[i].unstakeTime */\n      0x04\n      add\n      sload\n        /* \"contracts/stake_reward_MLM.sol\":8089:8188  DUSDinvestor[investor].investment[i].unstakeTime - DUSDinvestor[investor].investment[i].DepositTime */\n      tag_322\n      swap2\n      swap1\n      tag_192\n      jump\t// in\n    tag_322:\n        /* \"contracts/stake_reward_MLM.sol\":8080:8188  depTime =DUSDinvestor[investor].investment[i].unstakeTime - DUSDinvestor[investor].investment[i].DepositTime */\n      swap4\n      pop\n        /* \"contracts/stake_reward_MLM.sol\":7855:8207  if(!DUSDinvestor[investor].investment[i].unstake)... */\n    tag_321:\n        /* \"contracts/stake_reward_MLM.sol\":8240:8242  60 */\n      0x3c\n        /* \"contracts/stake_reward_MLM.sol\":8232:8239  depTime */\n      dup5\n        /* \"contracts/stake_reward_MLM.sol\":8232:8242  depTime/60 */\n      tag_323\n      swap2\n      swap1\n      tag_196\n      jump\t// in\n    tag_323:\n        /* \"contracts/stake_reward_MLM.sol\":8224:8242  depTime=depTime/60 */\n      swap4\n      pop\n        /* \"contracts/stake_reward_MLM.sol\":8279:8280  0 */\n      0x00\n        /* \"contracts/stake_reward_MLM.sol\":8271:8278  depTime */\n      dup5\n        /* \"contracts/stake_reward_MLM.sol\":8271:8280  depTime>0 */\n      gt\n        /* \"contracts/stake_reward_MLM.sol\":8268:8572  if(depTime>0)... */\n      iszero\n      tag_324\n      jumpi\n        /* \"contracts/stake_reward_MLM.sol\":8497:8502  10000 */\n      0x2710\n        /* \"contracts/stake_reward_MLM.sol\":8493:8495  50 */\n      0x32\n        /* \"contracts/stake_reward_MLM.sol\":8440:8452  DUSDinvestor */\n      0x0c\n        /* \"contracts/stake_reward_MLM.sol\":8440:8462  DUSDinvestor[investor] */\n      0x00\n        /* \"contracts/stake_reward_MLM.sol\":8453:8461  investor */\n      dup11\n        /* \"contracts/stake_reward_MLM.sol\":8440:8462  DUSDinvestor[investor] */\n      0xffffffffffffffffffffffffffffffffffffffff\n      and\n      0xffffffffffffffffffffffffffffffffffffffff\n      and\n      dup2\n      mstore\n      0x20\n      add\n      swap1\n      dup2\n      mstore\n      0x20\n      add\n      0x00\n      keccak256\n        /* \"contracts/stake_reward_MLM.sol\":8440:8473  DUSDinvestor[investor].investment */\n      0x00\n      add\n        /* \"contracts/stake_reward_MLM.sol\":8440:8476  DUSDinvestor[investor].investment[i] */\n      0x00\n        /* \"contracts/stake_reward_MLM.sol\":8474:8475  i */\n      dup5\n        /* \"contracts/stake_reward_MLM.sol\":8440:8476  DUSDinvestor[investor].investment[i] */\n      dup2\n      mstore\n      0x20\n      add\n      swap1\n      dup2\n      mstore\n      0x20\n      add\n      0x00\n      keccak256\n        /* \"contracts/stake_reward_MLM.sol\":8440:8491  DUSDinvestor[investor].investment[i].investedAmount */\n      0x00\n      add\n      sload\n        /* \"contracts/stake_reward_MLM.sol\":8439:8495  (DUSDinvestor[investor].investment[i].investedAmount)*50 */\n      tag_325\n      swap2\n      swap1\n      tag_154\n      jump\t// in\n    tag_325:\n        /* \"contracts/stake_reward_MLM.sol\":8438:8502  ((DUSDinvestor[investor].investment[i].investedAmount)*50)/10000 */\n      tag_326\n      swap2\n      swap1\n      tag_196\n      jump\t// in\n    tag_326:\n        /* \"contracts/stake_reward_MLM.sol\":8431:8502  rew  = ((DUSDinvestor[investor].investment[i].investedAmount)*50)/10000 */\n      swap3\n      pop\n        /* \"contracts/stake_reward_MLM.sol\":8550:8553  rew */\n      dup3\n        /* \"contracts/stake_reward_MLM.sol\":8540:8547  depTime */\n      dup5\n        /* \"contracts/stake_reward_MLM.sol\":8540:8553  depTime * rew */\n      tag_327\n      swap2\n      swap1\n      tag_154\n      jump\t// in\n    tag_327:\n        /* \"contracts/stake_reward_MLM.sol\":8525:8553  totalReward += depTime * rew */\n      dup6\n      tag_328\n      swap2\n      swap1\n      tag_148\n      jump\t// in\n    tag_328:\n      swap5\n      pop\n        /* \"contracts/stake_reward_MLM.sol\":8268:8572  if(depTime>0)... */\n    tag_324:\n        /* \"contracts/stake_reward_MLM.sol\":7817:7820  i++ */\n      dup1\n      dup1\n      tag_329\n      swap1\n      tag_144\n      jump\t// in\n    tag_329:\n      swap2\n      pop\n      pop\n        /* \"contracts/stake_reward_MLM.sol\":7792:8586  for( uint i = 0;i < temp;i++)... */\n      jump(tag_316)\n    tag_317:\n      pop\n        /* \"contracts/stake_reward_MLM.sol\":8614:8626  DUSDinvestor */\n      0x0c\n        /* \"contracts/stake_reward_MLM.sol\":8614:8636  DUSDinvestor[investor] */\n      0x00\n        /* \"contracts/stake_reward_MLM.sol\":8627:8635  investor */\n      dup8\n        /* \"contracts/stake_reward_MLM.sol\":8614:8636  DUSDinvestor[investor] */\n      0xffffffffffffffffffffffffffffffffffffffff\n      and\n      0xffffffffffffffffffffffffffffffffffffffff\n      and\n      dup2\n      mstore\n      0x20\n      add\n      swap1\n      dup2\n      mstore\n      0x20\n      add\n      0x00\n      keccak256\n        /* \"contracts/stake_reward_MLM.sol\":8614:8657  DUSDinvestor[investor].totalWithdraw_reward */\n      0x07\n      add\n      sload\n        /* \"contracts/stake_reward_MLM.sol\":8599:8657  totalReward -= DUSDinvestor[investor].totalWithdraw_reward */\n      dup5\n      tag_330\n      swap2\n      swap1\n      tag_192\n      jump\t// in\n    tag_330:\n      swap4\n      pop\n        /* \"contracts/stake_reward_MLM.sol\":8679:8690  totalReward */\n      dup4\n        /* \"contracts/stake_reward_MLM.sol\":8672:8690  return totalReward */\n      swap5\n      pop\n      pop\n      pop\n      pop\n      pop\n        /* \"contracts/stake_reward_MLM.sol\":7499:8701  function get_investor_Reward(address investor) view internal returns(uint){ //this function is get the total reward balance of the investor... */\n      swap2\n      swap1\n      pop\n      jump\t// out\n        /* \"contracts/stake_reward_MLM.sol\":12418:12632  function DUSDTotalReferrals_inside(address investor) internal view returns(uint){ // this function is to get the total number of referrals ... */\n    tag_227:\n        /* \"contracts/stake_reward_MLM.sol\":12493:12497  uint */\n      0x00\n        /* \"contracts/stake_reward_MLM.sol\":12578:12590  DUSDinvestor */\n      0x0c\n        /* \"contracts/stake_reward_MLM.sol\":12578:12600  DUSDinvestor[investor] */\n      0x00\n        /* \"contracts/stake_reward_MLM.sol\":12591:12599  investor */\n      dup4\n        /* \"contracts/stake_reward_MLM.sol\":12578:12600  DUSDinvestor[investor] */\n      0xffffffffffffffffffffffffffffffffffffffff\n      and\n      0xffffffffffffffffffffffffffffffffffffffff\n      and\n      dup2\n      mstore\n      0x20\n      add\n      swap1\n      dup2\n      mstore\n      0x20\n      add\n      0x00\n      keccak256\n        /* \"contracts/stake_reward_MLM.sol\":12578:12613  DUSDinvestor[investor].hisReferrals */\n      0x01\n      add\n        /* \"contracts/stake_reward_MLM.sol\":12577:12621  (DUSDinvestor[investor].hisReferrals).length */\n      dup1\n      sload\n      swap1\n      pop\n        /* \"contracts/stake_reward_MLM.sol\":12570:12621  return (DUSDinvestor[investor].hisReferrals).length */\n      swap1\n      pop\n        /* \"contracts/stake_reward_MLM.sol\":12418:12632  function DUSDTotalReferrals_inside(address investor) internal view returns(uint){ // this function is to get the total number of referrals ... */\n      swap2\n      swap1\n      pop\n      jump\t// out\n    tag_176:\n      mload(0x40)\n      dup1\n      0xc0\n      add\n      0x40\n      mstore\n      dup1\n      0x00\n      dup2\n      mstore\n      0x20\n      add\n      0x00\n      dup2\n      mstore\n      0x20\n      add\n      0x00\n      dup2\n      mstore\n      0x20\n      add\n      0x00\n      dup2\n      mstore\n      0x20\n      add\n      0x00\n      dup2\n      mstore\n      0x20\n      add\n      iszero(iszero(0x00))\n      dup2\n      mstore\n      pop\n      swap1\n      jump\t// out\n    tag_210:\n      mload(0x40)\n      dup1\n      0xc0\n      add\n      0x40\n      mstore\n      dup1\n      and(0xffffffffffffffffffffffffffffffffffffffff, 0x00)\n      dup2\n      mstore\n      0x20\n      add\n      0x00\n      dup2\n      mstore\n      0x20\n      add\n      0x00\n      dup2\n      mstore\n      0x20\n      add\n      0x00\n      dup2\n      mstore\n      0x20\n      add\n      0x00\n      dup2\n      mstore\n      0x20\n      add\n      0x00\n      dup2\n      mstore\n      pop\n      swap1\n      jump\t// out\n        /* \"#utility.yul\":7:146   */\n    tag_333:\n        /* \"#utility.yul\":53:58   */\n      0x00\n        /* \"#utility.yul\":91:97   */\n      dup2\n        /* \"#utility.yul\":78:98   */\n      calldataload\n        /* \"#utility.yul\":69:98   */\n      swap1\n      pop\n        /* \"#utility.yul\":107:140   */\n      tag_335\n        /* \"#utility.yul\":134:139   */\n      dup2\n        /* \"#utility.yul\":107:140   */\n      tag_336\n      jump\t// in\n    tag_335:\n        /* \"#utility.yul\":7:146   */\n      swap3\n      swap2\n      pop\n      pop\n      jump\t// out\n        /* \"#utility.yul\":152:289   */\n    tag_337:\n        /* \"#utility.yul\":206:211   */\n      0x00\n        /* \"#utility.yul\":237:243   */\n      dup2\n        /* \"#utility.yul\":231:244   */\n      mload\n        /* \"#utility.yul\":222:244   */\n      swap1\n      pop\n        /* \"#utility.yul\":253:283   */\n      tag_339\n        /* \"#utility.yul\":277:282   */\n      dup2\n        /* \"#utility.yul\":253:283   */\n      tag_340\n      jump\t// in\n    tag_339:\n        /* \"#utility.yul\":152:289   */\n      swap3\n      swap2\n      pop\n      pop\n      jump\t// out\n        /* \"#utility.yul\":295:434   */\n    tag_341:\n        /* \"#utility.yul\":341:346   */\n      0x00\n        /* \"#utility.yul\":379:385   */\n      dup2\n        /* \"#utility.yul\":366:386   */\n      calldataload\n        /* \"#utility.yul\":357:386   */\n      swap1\n      pop\n        /* \"#utility.yul\":395:428   */\n      tag_343\n        /* \"#utility.yul\":422:427   */\n      dup2\n        /* \"#utility.yul\":395:428   */\n      tag_344\n      jump\t// in\n    tag_343:\n        /* \"#utility.yul\":295:434   */\n      swap3\n      swap2\n      pop\n      pop\n      jump\t// out\n        /* \"#utility.yul\":440:769   */\n    tag_114:\n        /* \"#utility.yul\":499:505   */\n      0x00\n        /* \"#utility.yul\":548:550   */\n      0x20\n        /* \"#utility.yul\":536:545   */\n      dup3\n        /* \"#utility.yul\":527:534   */\n      dup5\n        /* \"#utility.yul\":523:546   */\n      sub\n        /* \"#utility.yul\":519:551   */\n      slt\n        /* \"#utility.yul\":516:635   */\n      iszero\n      tag_346\n      jumpi\n        /* \"#utility.yul\":554:633   */\n      tag_347\n      tag_348\n      jump\t// in\n    tag_347:\n        /* \"#utility.yul\":516:635   */\n    tag_346:\n        /* \"#utility.yul\":674:675   */\n      0x00\n        /* \"#utility.yul\":699:752   */\n      tag_349\n        /* \"#utility.yul\":744:751   */\n      dup5\n        /* \"#utility.yul\":735:741   */\n      dup3\n        /* \"#utility.yul\":724:733   */\n      dup6\n        /* \"#utility.yul\":720:742   */\n      add\n        /* \"#utility.yul\":699:752   */\n      tag_333\n      jump\t// in\n    tag_349:\n        /* \"#utility.yul\":689:752   */\n      swap2\n      pop\n        /* \"#utility.yul\":645:762   */\n      pop\n        /* \"#utility.yul\":440:769   */\n      swap3\n      swap2\n      pop\n      pop\n      jump\t// out\n        /* \"#utility.yul\":775:1120   */\n    tag_161:\n        /* \"#utility.yul\":842:848   */\n      0x00\n        /* \"#utility.yul\":891:893   */\n      0x20\n        /* \"#utility.yul\":879:888   */\n      dup3\n        /* \"#utility.yul\":870:877   */\n      dup5\n        /* \"#utility.yul\":866:889   */\n      sub\n        /* \"#utility.yul\":862:894   */\n      slt\n        /* \"#utility.yul\":859:978   */\n      iszero\n      tag_351\n      jumpi\n        /* \"#utility.yul\":897:976   */\n      tag_352\n      tag_348\n      jump\t// in\n    tag_352:\n        /* \"#utility.yul\":859:978   */\n    tag_351:\n        /* \"#utility.yul\":1017:1018   */\n      0x00\n        /* \"#utility.yul\":1042:1103   */\n      tag_353\n        /* \"#utility.yul\":1095:1102   */\n      dup5\n        /* \"#utility.yul\":1086:1092   */\n      dup3\n        /* \"#utility.yul\":1075:1084   */\n      dup6\n        /* \"#utility.yul\":1071:1093   */\n      add\n        /* \"#utility.yul\":1042:1103   */\n      tag_337\n      jump\t// in\n    tag_353:\n        /* \"#utility.yul\":1032:1103   */\n      swap2\n      pop\n        /* \"#utility.yul\":988:1113   */\n      pop\n        /* \"#utility.yul\":775:1120   */\n      swap3\n      swap2\n      pop\n      pop\n      jump\t// out\n        /* \"#utility.yul\":1126:1455   */\n    tag_55:\n        /* \"#utility.yul\":1185:1191   */\n      0x00\n        /* \"#utility.yul\":1234:1236   */\n      0x20\n        /* \"#utility.yul\":1222:1231   */\n      dup3\n        /* \"#utility.yul\":1213:1220   */\n      dup5\n        /* \"#utility.yul\":1209:1232   */\n      sub\n        /* \"#utility.yul\":1205:1237   */\n      slt\n        /* \"#utility.yul\":1202:1321   */\n      iszero\n      tag_355\n      jumpi\n        /* \"#utility.yul\":1240:1319   */\n      tag_356\n      tag_348\n      jump\t// in\n    tag_356:\n        /* \"#utility.yul\":1202:1321   */\n    tag_355:\n        /* \"#utility.yul\":1360:1361   */\n      0x00\n        /* \"#utility.yul\":1385:1438   */\n      tag_357\n        /* \"#utility.yul\":1430:1437   */\n      dup5\n        /* \"#utility.yul\":1421:1427   */\n      dup3\n        /* \"#utility.yul\":1410:1419   */\n      dup6\n        /* \"#utility.yul\":1406:1428   */\n      add\n        /* \"#utility.yul\":1385:1438   */\n      tag_341\n      jump\t// in\n    tag_357:\n        /* \"#utility.yul\":1375:1438   */\n      swap2\n      pop\n        /* \"#utility.yul\":1331:1448   */\n      pop\n        /* \"#utility.yul\":1126:1455   */\n      swap3\n      swap2\n      pop\n      pop\n      jump\t// out\n        /* \"#utility.yul\":1461:1935   */\n    tag_49:\n        /* \"#utility.yul\":1529:1535   */\n      0x00\n        /* \"#utility.yul\":1537:1543   */\n      dup1\n        /* \"#utility.yul\":1586:1588   */\n      0x40\n        /* \"#utility.yul\":1574:1583   */\n      dup4\n        /* \"#utility.yul\":1565:1572   */\n      dup6\n        /* \"#utility.yul\":1561:1584   */\n      sub\n        /* \"#utility.yul\":1557:1589   */\n      slt\n        /* \"#utility.yul\":1554:1673   */\n      iszero\n      tag_359\n      jumpi\n        /* \"#utility.yul\":1592:1671   */\n      tag_360\n      tag_348\n      jump\t// in\n    tag_360:\n        /* \"#utility.yul\":1554:1673   */\n    tag_359:\n        /* \"#utility.yul\":1712:1713   */\n      0x00\n        /* \"#utility.yul\":1737:1790   */\n      tag_361\n        /* \"#utility.yul\":1782:1789   */\n      dup6\n        /* \"#utility.yul\":1773:1779   */\n      dup3\n        /* \"#utility.yul\":1762:1771   */\n      dup7\n        /* \"#utility.yul\":1758:1780   */\n      add\n        /* \"#utility.yul\":1737:1790   */\n      tag_341\n      jump\t// in\n    tag_361:\n        /* \"#utility.yul\":1727:1790   */\n      swap3\n      pop\n        /* \"#utility.yul\":1683:1800   */\n      pop\n        /* \"#utility.yul\":1839:1841   */\n      0x20\n        /* \"#utility.yul\":1865:1918   */\n      tag_362\n        /* \"#utility.yul\":1910:1917   */\n      dup6\n        /* \"#utility.yul\":1901:1907   */\n      dup3\n        /* \"#utility.yul\":1890:1899   */\n      dup7\n        /* \"#utility.yul\":1886:1908   */\n      add\n        /* \"#utility.yul\":1865:1918   */\n      tag_333\n      jump\t// in\n    tag_362:\n        /* \"#utility.yul\":1855:1918   */\n      swap2\n      pop\n        /* \"#utility.yul\":1810:1928   */\n      pop\n        /* \"#utility.yul\":1461:1935   */\n      swap3\n      pop\n      swap3\n      swap1\n      pop\n      jump\t// out\n        /* \"#utility.yul\":1941:2415   */\n    tag_100:\n        /* \"#utility.yul\":2009:2015   */\n      0x00\n        /* \"#utility.yul\":2017:2023   */\n      dup1\n        /* \"#utility.yul\":2066:2068   */\n      0x40\n        /* \"#utility.yul\":2054:2063   */\n      dup4\n        /* \"#utility.yul\":2045:2052   */\n      dup6\n        /* \"#utility.yul\":2041:2064   */\n      sub\n        /* \"#utility.yul\":2037:2069   */\n      slt\n        /* \"#utility.yul\":2034:2153   */\n      iszero\n      tag_364\n      jumpi\n        /* \"#utility.yul\":2072:2151   */\n      tag_365\n      tag_348\n      jump\t// in\n    tag_365:\n        /* \"#utility.yul\":2034:2153   */\n    tag_364:\n        /* \"#utility.yul\":2192:2193   */\n      0x00\n        /* \"#utility.yul\":2217:2270   */\n      tag_366\n        /* \"#utility.yul\":2262:2269   */\n      dup6\n        /* \"#utility.yul\":2253:2259   */\n      dup3\n        /* \"#utility.yul\":2242:2251   */\n      dup7\n        /* \"#utility.yul\":2238:2260   */\n      add\n        /* \"#utility.yul\":2217:2270   */\n      tag_341\n      jump\t// in\n    tag_366:\n        /* \"#utility.yul\":2207:2270   */\n      swap3\n      pop\n        /* \"#utility.yul\":2163:2280   */\n      pop\n        /* \"#utility.yul\":2319:2321   */\n      0x20\n        /* \"#utility.yul\":2345:2398   */\n      tag_367\n        /* \"#utility.yul\":2390:2397   */\n      dup6\n        /* \"#utility.yul\":2381:2387   */\n      dup3\n        /* \"#utility.yul\":2370:2379   */\n      dup7\n        /* \"#utility.yul\":2366:2388   */\n      add\n        /* \"#utility.yul\":2345:2398   */\n      tag_341\n      jump\t// in\n    tag_367:\n        /* \"#utility.yul\":2335:2398   */\n      swap2\n      pop\n        /* \"#utility.yul\":2290:2408   */\n      pop\n        /* \"#utility.yul\":1941:2415   */\n      swap3\n      pop\n      swap3\n      swap1\n      pop\n      jump\t// out\n        /* \"#utility.yul\":2421:3186   */\n    tag_70:\n        /* \"#utility.yul\":2507:2513   */\n      0x00\n        /* \"#utility.yul\":2515:2521   */\n      dup1\n        /* \"#utility.yul\":2523:2529   */\n      0x00\n        /* \"#utility.yul\":2531:2537   */\n      dup1\n        /* \"#utility.yul\":2580:2583   */\n      0x80\n        /* \"#utility.yul\":2568:2577   */\n      dup6\n        /* \"#utility.yul\":2559:2566   */\n      dup8\n        /* \"#utility.yul\":2555:2578   */\n      sub\n        /* \"#utility.yul\":2551:2584   */\n      slt\n        /* \"#utility.yul\":2548:2668   */\n      iszero\n      tag_369\n      jumpi\n        /* \"#utility.yul\":2587:2666   */\n      tag_370\n      tag_348\n      jump\t// in\n    tag_370:\n        /* \"#utility.yul\":2548:2668   */\n    tag_369:\n        /* \"#utility.yul\":2707:2708   */\n      0x00\n        /* \"#utility.yul\":2732:2785   */\n      tag_371\n        /* \"#utility.yul\":2777:2784   */\n      dup8\n        /* \"#utility.yul\":2768:2774   */\n      dup3\n        /* \"#utility.yul\":2757:2766   */\n      dup9\n        /* \"#utility.yul\":2753:2775   */\n      add\n        /* \"#utility.yul\":2732:2785   */\n      tag_341\n      jump\t// in\n    tag_371:\n        /* \"#utility.yul\":2722:2785   */\n      swap5\n      pop\n        /* \"#utility.yul\":2678:2795   */\n      pop\n        /* \"#utility.yul\":2834:2836   */\n      0x20\n        /* \"#utility.yul\":2860:2913   */\n      tag_372\n        /* \"#utility.yul\":2905:2912   */\n      dup8\n        /* \"#utility.yul\":2896:2902   */\n      dup3\n        /* \"#utility.yul\":2885:2894   */\n      dup9\n        /* \"#utility.yul\":2881:2903   */\n      add\n        /* \"#utility.yul\":2860:2913   */\n      tag_341\n      jump\t// in\n    tag_372:\n        /* \"#utility.yul\":2850:2913   */\n      swap4\n      pop\n        /* \"#utility.yul\":2805:2923   */\n      pop\n        /* \"#utility.yul\":2962:2964   */\n      0x40\n        /* \"#utility.yul\":2988:3041   */\n      tag_373\n        /* \"#utility.yul\":3033:3040   */\n      dup8\n        /* \"#utility.yul\":3024:3030   */\n      dup3\n        /* \"#utility.yul\":3013:3022   */\n      dup9\n        /* \"#utility.yul\":3009:3031   */\n      add\n        /* \"#utility.yul\":2988:3041   */\n      tag_341\n      jump\t// in\n    tag_373:\n        /* \"#utility.yul\":2978:3041   */\n      swap3\n      pop\n        /* \"#utility.yul\":2933:3051   */\n      pop\n        /* \"#utility.yul\":3090:3092   */\n      0x60\n        /* \"#utility.yul\":3116:3169   */\n      tag_374\n        /* \"#utility.yul\":3161:3168   */\n      dup8\n        /* \"#utility.yul\":3152:3158   */\n      dup3\n        /* \"#utility.yul\":3141:3150   */\n      dup9\n        /* \"#utility.yul\":3137:3159   */\n      add\n        /* \"#utility.yul\":3116:3169   */\n      tag_341\n      jump\t// in\n    tag_374:\n        /* \"#utility.yul\":3106:3169   */\n      swap2\n      pop\n        /* \"#utility.yul\":3061:3179   */\n      pop\n        /* \"#utility.yul\":2421:3186   */\n      swap3\n      swap6\n      swap2\n      swap5\n      pop\n      swap3\n      pop\n      jump\t// out\n        /* \"#utility.yul\":3192:3371   */\n    tag_375:\n        /* \"#utility.yul\":3261:3271   */\n      0x00\n        /* \"#utility.yul\":3282:3328   */\n      tag_377\n        /* \"#utility.yul\":3324:3327   */\n      dup4\n        /* \"#utility.yul\":3316:3322   */\n      dup4\n        /* \"#utility.yul\":3282:3328   */\n      tag_378\n      jump\t// in\n    tag_377:\n        /* \"#utility.yul\":3360:3364   */\n      0x20\n        /* \"#utility.yul\":3355:3358   */\n      dup4\n        /* \"#utility.yul\":3351:3365   */\n      add\n        /* \"#utility.yul\":3337:3365   */\n      swap1\n      pop\n        /* \"#utility.yul\":3192:3371   */\n      swap3\n      swap2\n      pop\n      pop\n      jump\t// out\n        /* \"#utility.yul\":3377:3660   */\n    tag_379:\n        /* \"#utility.yul\":3498:3508   */\n      0x00\n        /* \"#utility.yul\":3519:3617   */\n      tag_381\n        /* \"#utility.yul\":3613:3616   */\n      dup4\n        /* \"#utility.yul\":3605:3611   */\n      dup4\n        /* \"#utility.yul\":3519:3617   */\n      tag_382\n      jump\t// in\n    tag_381:\n        /* \"#utility.yul\":3649:3653   */\n      0xc0\n        /* \"#utility.yul\":3644:3647   */\n      dup4\n        /* \"#utility.yul\":3640:3654   */\n      add\n        /* \"#utility.yul\":3626:3654   */\n      swap1\n      pop\n        /* \"#utility.yul\":3377:3660   */\n      swap3\n      swap2\n      pop\n      pop\n      jump\t// out\n        /* \"#utility.yul\":3666:3965   */\n    tag_383:\n        /* \"#utility.yul\":3795:3805   */\n      0x00\n        /* \"#utility.yul\":3816:3922   */\n      tag_385\n        /* \"#utility.yul\":3918:3921   */\n      dup4\n        /* \"#utility.yul\":3910:3916   */\n      dup4\n        /* \"#utility.yul\":3816:3922   */\n      tag_386\n      jump\t// in\n    tag_385:\n        /* \"#utility.yul\":3954:3958   */\n      0xc0\n        /* \"#utility.yul\":3949:3952   */\n      dup4\n        /* \"#utility.yul\":3945:3959   */\n      add\n        /* \"#utility.yul\":3931:3959   */\n      swap1\n      pop\n        /* \"#utility.yul\":3666:3965   */\n      swap3\n      swap2\n      pop\n      pop\n      jump\t// out\n        /* \"#utility.yul\":3971:4150   */\n    tag_387:\n        /* \"#utility.yul\":4040:4050   */\n      0x00\n        /* \"#utility.yul\":4061:4107   */\n      tag_389\n        /* \"#utility.yul\":4103:4106   */\n      dup4\n        /* \"#utility.yul\":4095:4101   */\n      dup4\n        /* \"#utility.yul\":4061:4107   */\n      tag_390\n      jump\t// in\n    tag_389:\n        /* \"#utility.yul\":4139:4143   */\n      0x20\n        /* \"#utility.yul\":4134:4137   */\n      dup4\n        /* \"#utility.yul\":4130:4144   */\n      add\n        /* \"#utility.yul\":4116:4144   */\n      swap1\n      pop\n        /* \"#utility.yul\":3971:4150   */\n      swap3\n      swap2\n      pop\n      pop\n      jump\t// out\n        /* \"#utility.yul\":4156:4264   */\n    tag_378:\n        /* \"#utility.yul\":4233:4257   */\n      tag_392\n        /* \"#utility.yul\":4251:4256   */\n      dup2\n        /* \"#utility.yul\":4233:4257   */\n      tag_393\n      jump\t// in\n    tag_392:\n        /* \"#utility.yul\":4228:4231   */\n      dup3\n        /* \"#utility.yul\":4221:4258   */\n      mstore\n        /* \"#utility.yul\":4156:4264   */\n      pop\n      pop\n      jump\t// out\n        /* \"#utility.yul\":4270:4388   */\n    tag_394:\n        /* \"#utility.yul\":4357:4381   */\n      tag_396\n        /* \"#utility.yul\":4375:4380   */\n      dup2\n        /* \"#utility.yul\":4357:4381   */\n      tag_393\n      jump\t// in\n    tag_396:\n        /* \"#utility.yul\":4352:4355   */\n      dup3\n        /* \"#utility.yul\":4345:4382   */\n      mstore\n        /* \"#utility.yul\":4270:4388   */\n      pop\n      pop\n      jump\t// out\n        /* \"#utility.yul\":4424:5156   */\n    tag_397:\n        /* \"#utility.yul\":4543:4546   */\n      0x00\n        /* \"#utility.yul\":4572:4626   */\n      tag_399\n        /* \"#utility.yul\":4620:4625   */\n      dup3\n        /* \"#utility.yul\":4572:4626   */\n      tag_400\n      jump\t// in\n    tag_399:\n        /* \"#utility.yul\":4642:4728   */\n      tag_401\n        /* \"#utility.yul\":4721:4727   */\n      dup2\n        /* \"#utility.yul\":4716:4719   */\n      dup6\n        /* \"#utility.yul\":4642:4728   */\n      tag_402\n      jump\t// in\n    tag_401:\n        /* \"#utility.yul\":4635:4728   */\n      swap4\n      pop\n        /* \"#utility.yul\":4752:4808   */\n      tag_403\n        /* \"#utility.yul\":4802:4807   */\n      dup4\n        /* \"#utility.yul\":4752:4808   */\n      tag_404\n      jump\t// in\n    tag_403:\n        /* \"#utility.yul\":4831:4838   */\n      dup1\n        /* \"#utility.yul\":4862:4863   */\n      0x00\n        /* \"#utility.yul\":4847:5131   */\n    tag_405:\n        /* \"#utility.yul\":4872:4878   */\n      dup4\n        /* \"#utility.yul\":4869:4870   */\n      dup2\n        /* \"#utility.yul\":4866:4879   */\n      lt\n        /* \"#utility.yul\":4847:5131   */\n      iszero\n      tag_407\n      jumpi\n        /* \"#utility.yul\":4948:4954   */\n      dup2\n        /* \"#utility.yul\":4942:4955   */\n      mload\n        /* \"#utility.yul\":4975:5038   */\n      tag_408\n        /* \"#utility.yul\":5034:5037   */\n      dup9\n        /* \"#utility.yul\":5019:5032   */\n      dup3\n        /* \"#utility.yul\":4975:5038   */\n      tag_375\n      jump\t// in\n    tag_408:\n        /* \"#utility.yul\":4968:5038   */\n      swap8\n      pop\n        /* \"#utility.yul\":5061:5121   */\n      tag_409\n        /* \"#utility.yul\":5114:5120   */\n      dup4\n        /* \"#utility.yul\":5061:5121   */\n      tag_410\n      jump\t// in\n    tag_409:\n        /* \"#utility.yul\":5051:5121   */\n      swap3\n      pop\n        /* \"#utility.yul\":4907:5131   */\n      pop\n        /* \"#utility.yul\":4894:4895   */\n      0x01\n        /* \"#utility.yul\":4891:4892   */\n      dup2\n        /* \"#utility.yul\":4887:4896   */\n      add\n        /* \"#utility.yul\":4882:4896   */\n      swap1\n      pop\n        /* \"#utility.yul\":4847:5131   */\n      jump(tag_405)\n    tag_407:\n        /* \"#utility.yul\":4851:4865   */\n      pop\n        /* \"#utility.yul\":5147:5150   */\n      dup6\n        /* \"#utility.yul\":5140:5150   */\n      swap4\n      pop\n        /* \"#utility.yul\":4548:5156   */\n      pop\n      pop\n      pop\n        /* \"#utility.yul\":4424:5156   */\n      swap3\n      swap2\n      pop\n      pop\n      jump\t// out\n        /* \"#utility.yul\":5226:6166   */\n    tag_411:\n        /* \"#utility.yul\":5397:5400   */\n      0x00\n        /* \"#utility.yul\":5426:5506   */\n      tag_413\n        /* \"#utility.yul\":5500:5505   */\n      dup3\n        /* \"#utility.yul\":5426:5506   */\n      tag_414\n      jump\t// in\n    tag_413:\n        /* \"#utility.yul\":5522:5634   */\n      tag_415\n        /* \"#utility.yul\":5627:5633   */\n      dup2\n        /* \"#utility.yul\":5622:5625   */\n      dup6\n        /* \"#utility.yul\":5522:5634   */\n      tag_416\n      jump\t// in\n    tag_415:\n        /* \"#utility.yul\":5515:5634   */\n      swap4\n      pop\n        /* \"#utility.yul\":5658:5740   */\n      tag_417\n        /* \"#utility.yul\":5734:5739   */\n      dup4\n        /* \"#utility.yul\":5658:5740   */\n      tag_418\n      jump\t// in\n    tag_417:\n        /* \"#utility.yul\":5763:5770   */\n      dup1\n        /* \"#utility.yul\":5794:5795   */\n      0x00\n        /* \"#utility.yul\":5779:6141   */\n    tag_419:\n        /* \"#utility.yul\":5804:5810   */\n      dup4\n        /* \"#utility.yul\":5801:5802   */\n      dup2\n        /* \"#utility.yul\":5798:5811   */\n      lt\n        /* \"#utility.yul\":5779:6141   */\n      iszero\n      tag_421\n      jumpi\n        /* \"#utility.yul\":5880:5886   */\n      dup2\n        /* \"#utility.yul\":5874:5887   */\n      mload\n        /* \"#utility.yul\":5907:6022   */\n      tag_422\n        /* \"#utility.yul\":6018:6021   */\n      dup9\n        /* \"#utility.yul\":6003:6016   */\n      dup3\n        /* \"#utility.yul\":5907:6022   */\n      tag_379\n      jump\t// in\n    tag_422:\n        /* \"#utility.yul\":5900:6022   */\n      swap8\n      pop\n        /* \"#utility.yul\":6045:6131   */\n      tag_423\n        /* \"#utility.yul\":6124:6130   */\n      dup4\n        /* \"#utility.yul\":6045:6131   */\n      tag_424\n      jump\t// in\n    tag_423:\n        /* \"#utility.yul\":6035:6131   */\n      swap3\n      pop\n        /* \"#utility.yul\":5839:6141   */\n      pop\n        /* \"#utility.yul\":5826:5827   */\n      0x01\n        /* \"#utility.yul\":5823:5824   */\n      dup2\n        /* \"#utility.yul\":5819:5828   */\n      add\n        /* \"#utility.yul\":5814:5828   */\n      swap1\n      pop\n        /* \"#utility.yul\":5779:6141   */\n      jump(tag_419)\n    tag_421:\n        /* \"#utility.yul\":5783:5797   */\n      pop\n        /* \"#utility.yul\":6157:6160   */\n      dup6\n        /* \"#utility.yul\":6150:6160   */\n      swap4\n      pop\n        /* \"#utility.yul\":5402:6166   */\n      pop\n      pop\n      pop\n        /* \"#utility.yul\":5226:6166   */\n      swap3\n      swap2\n      pop\n      pop\n      jump\t// out\n        /* \"#utility.yul\":6244:7216   */\n    tag_425:\n        /* \"#utility.yul\":6423:6426   */\n      0x00\n        /* \"#utility.yul\":6452:6536   */\n      tag_427\n        /* \"#utility.yul\":6530:6535   */\n      dup3\n        /* \"#utility.yul\":6452:6536   */\n      tag_428\n      jump\t// in\n    tag_427:\n        /* \"#utility.yul\":6552:6668   */\n      tag_429\n        /* \"#utility.yul\":6661:6667   */\n      dup2\n        /* \"#utility.yul\":6656:6659   */\n      dup6\n        /* \"#utility.yul\":6552:6668   */\n      tag_430\n      jump\t// in\n    tag_429:\n        /* \"#utility.yul\":6545:6668   */\n      swap4\n      pop\n        /* \"#utility.yul\":6692:6778   */\n      tag_431\n        /* \"#utility.yul\":6772:6777   */\n      dup4\n        /* \"#utility.yul\":6692:6778   */\n      tag_432\n      jump\t// in\n    tag_431:\n        /* \"#utility.yul\":6801:6808   */\n      dup1\n        /* \"#utility.yul\":6832:6833   */\n      0x00\n        /* \"#utility.yul\":6817:7191   */\n    tag_433:\n        /* \"#utility.yul\":6842:6848   */\n      dup4\n        /* \"#utility.yul\":6839:6840   */\n      dup2\n        /* \"#utility.yul\":6836:6849   */\n      lt\n        /* \"#utility.yul\":6817:7191   */\n      iszero\n      tag_435\n      jumpi\n        /* \"#utility.yul\":6918:6924   */\n      dup2\n        /* \"#utility.yul\":6912:6925   */\n      mload\n        /* \"#utility.yul\":6945:7068   */\n      tag_436\n        /* \"#utility.yul\":7064:7067   */\n      dup9\n        /* \"#utility.yul\":7049:7062   */\n      dup3\n        /* \"#utility.yul\":6945:7068   */\n      tag_383\n      jump\t// in\n    tag_436:\n        /* \"#utility.yul\":6938:7068   */\n      swap8\n      pop\n        /* \"#utility.yul\":7091:7181   */\n      tag_437\n        /* \"#utility.yul\":7174:7180   */\n      dup4\n        /* \"#utility.yul\":7091:7181   */\n      tag_438\n      jump\t// in\n    tag_437:\n        /* \"#utility.yul\":7081:7181   */\n      swap3\n      pop\n        /* \"#utility.yul\":6877:7191   */\n      pop\n        /* \"#utility.yul\":6864:6865   */\n      0x01\n        /* \"#utility.yul\":6861:6862   */\n      dup2\n        /* \"#utility.yul\":6857:6866   */\n      add\n        /* \"#utility.yul\":6852:6866   */\n      swap1\n      pop\n        /* \"#utility.yul\":6817:7191   */\n      jump(tag_433)\n    tag_435:\n        /* \"#utility.yul\":6821:6835   */\n      pop\n        /* \"#utility.yul\":7207:7210   */\n      dup6\n        /* \"#utility.yul\":7200:7210   */\n      swap4\n      pop\n        /* \"#utility.yul\":6428:7216   */\n      pop\n      pop\n      pop\n        /* \"#utility.yul\":6244:7216   */\n      swap3\n      swap2\n      pop\n      pop\n      jump\t// out\n        /* \"#utility.yul\":7252:7984   */\n    tag_439:\n        /* \"#utility.yul\":7371:7374   */\n      0x00\n        /* \"#utility.yul\":7400:7454   */\n      tag_441\n        /* \"#utility.yul\":7448:7453   */\n      dup3\n        /* \"#utility.yul\":7400:7454   */\n      tag_442\n      jump\t// in\n    tag_441:\n        /* \"#utility.yul\":7470:7556   */\n      tag_443\n        /* \"#utility.yul\":7549:7555   */\n      dup2\n        /* \"#utility.yul\":7544:7547   */\n      dup6\n        /* \"#utility.yul\":7470:7556   */\n      tag_444\n      jump\t// in\n    tag_443:\n        /* \"#utility.yul\":7463:7556   */\n      swap4\n      pop\n        /* \"#utility.yul\":7580:7636   */\n      tag_445\n        /* \"#utility.yul\":7630:7635   */\n      dup4\n        /* \"#utility.yul\":7580:7636   */\n      tag_446\n      jump\t// in\n    tag_445:\n        /* \"#utility.yul\":7659:7666   */\n      dup1\n        /* \"#utility.yul\":7690:7691   */\n      0x00\n        /* \"#utility.yul\":7675:7959   */\n    tag_447:\n        /* \"#utility.yul\":7700:7706   */\n      dup4\n        /* \"#utility.yul\":7697:7698   */\n      dup2\n        /* \"#utility.yul\":7694:7707   */\n      lt\n        /* \"#utility.yul\":7675:7959   */\n      iszero\n      tag_449\n      jumpi\n        /* \"#utility.yul\":7776:7782   */\n      dup2\n        /* \"#utility.yul\":7770:7783   */\n      mload\n        /* \"#utility.yul\":7803:7866   */\n      tag_450\n        /* \"#utility.yul\":7862:7865   */\n      dup9\n        /* \"#utility.yul\":7847:7860   */\n      dup3\n        /* \"#utility.yul\":7803:7866   */\n      tag_387\n      jump\t// in\n    tag_450:\n        /* \"#utility.yul\":7796:7866   */\n      swap8\n      pop\n        /* \"#utility.yul\":7889:7949   */\n      tag_451\n        /* \"#utility.yul\":7942:7948   */\n      dup4\n        /* \"#utility.yul\":7889:7949   */\n      tag_452\n      jump\t// in\n    tag_451:\n        /* \"#utility.yul\":7879:7949   */\n      swap3\n      pop\n        /* \"#utility.yul\":7735:7959   */\n      pop\n        /* \"#utility.yul\":7722:7723   */\n      0x01\n        /* \"#utility.yul\":7719:7720   */\n      dup2\n        /* \"#utility.yul\":7715:7724   */\n      add\n        /* \"#utility.yul\":7710:7724   */\n      swap1\n      pop\n        /* \"#utility.yul\":7675:7959   */\n      jump(tag_447)\n    tag_449:\n        /* \"#utility.yul\":7679:7693   */\n      pop\n        /* \"#utility.yul\":7975:7978   */\n      dup6\n        /* \"#utility.yul\":7968:7978   */\n      swap4\n      pop\n        /* \"#utility.yul\":7376:7984   */\n      pop\n      pop\n      pop\n        /* \"#utility.yul\":7252:7984   */\n      swap3\n      swap2\n      pop\n      pop\n      jump\t// out\n        /* \"#utility.yul\":7990:8089   */\n    tag_453:\n        /* \"#utility.yul\":8061:8082   */\n      tag_455\n        /* \"#utility.yul\":8076:8081   */\n      dup2\n        /* \"#utility.yul\":8061:8082   */\n      tag_456\n      jump\t// in\n    tag_455:\n        /* \"#utility.yul\":8056:8059   */\n      dup3\n        /* \"#utility.yul\":8049:8083   */\n      mstore\n        /* \"#utility.yul\":7990:8089   */\n      pop\n      pop\n      jump\t// out\n        /* \"#utility.yul\":8095:8204   */\n    tag_457:\n        /* \"#utility.yul\":8176:8197   */\n      tag_459\n        /* \"#utility.yul\":8191:8196   */\n      dup2\n        /* \"#utility.yul\":8176:8197   */\n      tag_456\n      jump\t// in\n    tag_459:\n        /* \"#utility.yul\":8171:8174   */\n      dup3\n        /* \"#utility.yul\":8164:8198   */\n      mstore\n        /* \"#utility.yul\":8095:8204   */\n      pop\n      pop\n      jump\t// out\n        /* \"#utility.yul\":8210:8576   */\n    tag_460:\n        /* \"#utility.yul\":8352:8355   */\n      0x00\n        /* \"#utility.yul\":8373:8440   */\n      tag_462\n        /* \"#utility.yul\":8437:8439   */\n      0x25\n        /* \"#utility.yul\":8432:8435   */\n      dup4\n        /* \"#utility.yul\":8373:8440   */\n      tag_463\n      jump\t// in\n    tag_462:\n        /* \"#utility.yul\":8366:8440   */\n      swap2\n      pop\n        /* \"#utility.yul\":8449:8542   */\n      tag_464\n        /* \"#utility.yul\":8538:8541   */\n      dup3\n        /* \"#utility.yul\":8449:8542   */\n      tag_465\n      jump\t// in\n    tag_464:\n        /* \"#utility.yul\":8567:8569   */\n      0x40\n        /* \"#utility.yul\":8562:8565   */\n      dup3\n        /* \"#utility.yul\":8558:8570   */\n      add\n        /* \"#utility.yul\":8551:8570   */\n      swap1\n      pop\n        /* \"#utility.yul\":8210:8576   */\n      swap2\n      swap1\n      pop\n      jump\t// out\n        /* \"#utility.yul\":8582:8948   */\n    tag_466:\n        /* \"#utility.yul\":8724:8727   */\n      0x00\n        /* \"#utility.yul\":8745:8812   */\n      tag_468\n        /* \"#utility.yul\":8809:8811   */\n      0x35\n        /* \"#utility.yul\":8804:8807   */\n      dup4\n        /* \"#utility.yul\":8745:8812   */\n      tag_463\n      jump\t// in\n    tag_468:\n        /* \"#utility.yul\":8738:8812   */\n      swap2\n      pop\n        /* \"#utility.yul\":8821:8914   */\n      tag_469\n        /* \"#utility.yul\":8910:8913   */\n      dup3\n        /* \"#utility.yul\":8821:8914   */\n      tag_470\n      jump\t// in\n    tag_469:\n        /* \"#utility.yul\":8939:8941   */\n      0x40\n        /* \"#utility.yul\":8934:8937   */\n      dup3\n        /* \"#utility.yul\":8930:8942   */\n      add\n        /* \"#utility.yul\":8923:8942   */\n      swap1\n      pop\n        /* \"#utility.yul\":8582:8948   */\n      swap2\n      swap1\n      pop\n      jump\t// out\n        /* \"#utility.yul\":8954:9320   */\n    tag_471:\n        /* \"#utility.yul\":9096:9099   */\n      0x00\n        /* \"#utility.yul\":9117:9184   */\n      tag_473\n        /* \"#utility.yul\":9181:9183   */\n      0x22\n        /* \"#utility.yul\":9176:9179   */\n      dup4\n        /* \"#utility.yul\":9117:9184   */\n      tag_463\n      jump\t// in\n    tag_473:\n        /* \"#utility.yul\":9110:9184   */\n      swap2\n      pop\n        /* \"#utility.yul\":9193:9286   */\n      tag_474\n        /* \"#utility.yul\":9282:9285   */\n      dup3\n        /* \"#utility.yul\":9193:9286   */\n      tag_475\n      jump\t// in\n    tag_474:\n        /* \"#utility.yul\":9311:9313   */\n      0x40\n        /* \"#utility.yul\":9306:9309   */\n      dup3\n        /* \"#utility.yul\":9302:9314   */\n      add\n        /* \"#utility.yul\":9295:9314   */\n      swap1\n      pop\n        /* \"#utility.yul\":8954:9320   */\n      swap2\n      swap1\n      pop\n      jump\t// out\n        /* \"#utility.yul\":9326:9692   */\n    tag_476:\n        /* \"#utility.yul\":9468:9471   */\n      0x00\n        /* \"#utility.yul\":9489:9556   */\n      tag_478\n        /* \"#utility.yul\":9553:9555   */\n      0x1f\n        /* \"#utility.yul\":9548:9551   */\n      dup4\n        /* \"#utility.yul\":9489:9556   */\n      tag_463\n      jump\t// in\n    tag_478:\n        /* \"#utility.yul\":9482:9556   */\n      swap2\n      pop\n        /* \"#utility.yul\":9565:9658   */\n      tag_479\n        /* \"#utility.yul\":9654:9657   */\n      dup3\n        /* \"#utility.yul\":9565:9658   */\n      tag_480\n      jump\t// in\n    tag_479:\n        /* \"#utility.yul\":9683:9685   */\n      0x20\n        /* \"#utility.yul\":9678:9681   */\n      dup3\n        /* \"#utility.yul\":9674:9686   */\n      add\n        /* \"#utility.yul\":9667:9686   */\n      swap1\n      pop\n        /* \"#utility.yul\":9326:9692   */\n      swap2\n      swap1\n      pop\n      jump\t// out\n        /* \"#utility.yul\":9698:10064   */\n    tag_481:\n        /* \"#utility.yul\":9840:9843   */\n      0x00\n        /* \"#utility.yul\":9861:9928   */\n      tag_483\n        /* \"#utility.yul\":9925:9927   */\n      0x21\n        /* \"#utility.yul\":9920:9923   */\n      dup4\n        /* \"#utility.yul\":9861:9928   */\n      tag_463\n      jump\t// in\n    tag_483:\n        /* \"#utility.yul\":9854:9928   */\n      swap2\n      pop\n        /* \"#utility.yul\":9937:10030   */\n      tag_484\n        /* \"#utility.yul\":10026:10029   */\n      dup3\n        /* \"#utility.yul\":9937:10030   */\n      tag_485\n      jump\t// in\n    tag_484:\n        /* \"#utility.yul\":10055:10057   */\n      0x40\n        /* \"#utility.yul\":10050:10053   */\n      dup3\n        /* \"#utility.yul\":10046:10058   */\n      add\n        /* \"#utility.yul\":10039:10058   */\n      swap1\n      pop\n        /* \"#utility.yul\":9698:10064   */\n      swap2\n      swap1\n      pop\n      jump\t// out\n        /* \"#utility.yul\":10130:11379   */\n    tag_382:\n        /* \"#utility.yul\":10269:10273   */\n      0xc0\n        /* \"#utility.yul\":10264:10267   */\n      dup3\n        /* \"#utility.yul\":10260:10274   */\n      add\n        /* \"#utility.yul\":10360:10364   */\n      0x00\n        /* \"#utility.yul\":10353:10358   */\n      dup3\n        /* \"#utility.yul\":10349:10365   */\n      add\n        /* \"#utility.yul\":10343:10366   */\n      mload\n        /* \"#utility.yul\":10379:10442   */\n      tag_487\n        /* \"#utility.yul\":10436:10440   */\n      0x00\n        /* \"#utility.yul\":10431:10434   */\n      dup6\n        /* \"#utility.yul\":10427:10441   */\n      add\n        /* \"#utility.yul\":10413:10425   */\n      dup3\n        /* \"#utility.yul\":10379:10442   */\n      tag_378\n      jump\t// in\n    tag_487:\n        /* \"#utility.yul\":10284:10452   */\n      pop\n        /* \"#utility.yul\":10545:10549   */\n      0x20\n        /* \"#utility.yul\":10538:10543   */\n      dup3\n        /* \"#utility.yul\":10534:10550   */\n      add\n        /* \"#utility.yul\":10528:10551   */\n      mload\n        /* \"#utility.yul\":10564:10627   */\n      tag_488\n        /* \"#utility.yul\":10621:10625   */\n      0x20\n        /* \"#utility.yul\":10616:10619   */\n      dup6\n        /* \"#utility.yul\":10612:10626   */\n      add\n        /* \"#utility.yul\":10598:10610   */\n      dup3\n        /* \"#utility.yul\":10564:10627   */\n      tag_390\n      jump\t// in\n    tag_488:\n        /* \"#utility.yul\":10462:10637   */\n      pop\n        /* \"#utility.yul\":10721:10725   */\n      0x40\n        /* \"#utility.yul\":10714:10719   */\n      dup3\n        /* \"#utility.yul\":10710:10726   */\n      add\n        /* \"#utility.yul\":10704:10727   */\n      mload\n        /* \"#utility.yul\":10740:10803   */\n      tag_489\n        /* \"#utility.yul\":10797:10801   */\n      0x40\n        /* \"#utility.yul\":10792:10795   */\n      dup6\n        /* \"#utility.yul\":10788:10802   */\n      add\n        /* \"#utility.yul\":10774:10786   */\n      dup3\n        /* \"#utility.yul\":10740:10803   */\n      tag_390\n      jump\t// in\n    tag_489:\n        /* \"#utility.yul\":10647:10813   */\n      pop\n        /* \"#utility.yul\":10905:10909   */\n      0x60\n        /* \"#utility.yul\":10898:10903   */\n      dup3\n        /* \"#utility.yul\":10894:10910   */\n      add\n        /* \"#utility.yul\":10888:10911   */\n      mload\n        /* \"#utility.yul\":10924:10987   */\n      tag_490\n        /* \"#utility.yul\":10981:10985   */\n      0x60\n        /* \"#utility.yul\":10976:10979   */\n      dup6\n        /* \"#utility.yul\":10972:10986   */\n      add\n        /* \"#utility.yul\":10958:10970   */\n      dup3\n        /* \"#utility.yul\":10924:10987   */\n      tag_390\n      jump\t// in\n    tag_490:\n        /* \"#utility.yul\":10823:10997   */\n      pop\n        /* \"#utility.yul\":11095:11099   */\n      0x80\n        /* \"#utility.yul\":11088:11093   */\n      dup3\n        /* \"#utility.yul\":11084:11100   */\n      add\n        /* \"#utility.yul\":11078:11101   */\n      mload\n        /* \"#utility.yul\":11114:11177   */\n      tag_491\n        /* \"#utility.yul\":11171:11175   */\n      0x80\n        /* \"#utility.yul\":11166:11169   */\n      dup6\n        /* \"#utility.yul\":11162:11176   */\n      add\n        /* \"#utility.yul\":11148:11160   */\n      dup3\n        /* \"#utility.yul\":11114:11177   */\n      tag_390\n      jump\t// in\n    tag_491:\n        /* \"#utility.yul\":11007:11187   */\n      pop\n        /* \"#utility.yul\":11280:11284   */\n      0xa0\n        /* \"#utility.yul\":11273:11278   */\n      dup3\n        /* \"#utility.yul\":11269:11285   */\n      add\n        /* \"#utility.yul\":11263:11286   */\n      mload\n        /* \"#utility.yul\":11299:11362   */\n      tag_492\n        /* \"#utility.yul\":11356:11360   */\n      0xa0\n        /* \"#utility.yul\":11351:11354   */\n      dup6\n        /* \"#utility.yul\":11347:11361   */\n      add\n        /* \"#utility.yul\":11333:11345   */\n      dup3\n        /* \"#utility.yul\":11299:11362   */\n      tag_390\n      jump\t// in\n    tag_492:\n        /* \"#utility.yul\":11197:11372   */\n      pop\n        /* \"#utility.yul\":10238:11379   */\n      pop\n        /* \"#utility.yul\":10130:11379   */\n      pop\n      pop\n      jump\t// out\n        /* \"#utility.yul\":11453:12695   */\n    tag_386:\n        /* \"#utility.yul\":11600:11604   */\n      0xc0\n        /* \"#utility.yul\":11595:11598   */\n      dup3\n        /* \"#utility.yul\":11591:11605   */\n      add\n        /* \"#utility.yul\":11697:11701   */\n      0x00\n        /* \"#utility.yul\":11690:11695   */\n      dup3\n        /* \"#utility.yul\":11686:11702   */\n      add\n        /* \"#utility.yul\":11680:11703   */\n      mload\n        /* \"#utility.yul\":11716:11779   */\n      tag_494\n        /* \"#utility.yul\":11773:11777   */\n      0x00\n        /* \"#utility.yul\":11768:11771   */\n      dup6\n        /* \"#utility.yul\":11764:11778   */\n      add\n        /* \"#utility.yul\":11750:11762   */\n      dup3\n        /* \"#utility.yul\":11716:11779   */\n      tag_390\n      jump\t// in\n    tag_494:\n        /* \"#utility.yul\":11615:11789   */\n      pop\n        /* \"#utility.yul\":11880:11884   */\n      0x20\n        /* \"#utility.yul\":11873:11878   */\n      dup3\n        /* \"#utility.yul\":11869:11885   */\n      add\n        /* \"#utility.yul\":11863:11886   */\n      mload\n        /* \"#utility.yul\":11899:11962   */\n      tag_495\n        /* \"#utility.yul\":11956:11960   */\n      0x20\n        /* \"#utility.yul\":11951:11954   */\n      dup6\n        /* \"#utility.yul\":11947:11961   */\n      add\n        /* \"#utility.yul\":11933:11945   */\n      dup3\n        /* \"#utility.yul\":11899:11962   */\n      tag_390\n      jump\t// in\n    tag_495:\n        /* \"#utility.yul\":11799:11972   */\n      pop\n        /* \"#utility.yul\":12061:12065   */\n      0x40\n        /* \"#utility.yul\":12054:12059   */\n      dup3\n        /* \"#utility.yul\":12050:12066   */\n      add\n        /* \"#utility.yul\":12044:12067   */\n      mload\n        /* \"#utility.yul\":12080:12143   */\n      tag_496\n        /* \"#utility.yul\":12137:12141   */\n      0x40\n        /* \"#utility.yul\":12132:12135   */\n      dup6\n        /* \"#utility.yul\":12128:12142   */\n      add\n        /* \"#utility.yul\":12114:12126   */\n      dup3\n        /* \"#utility.yul\":12080:12143   */\n      tag_390\n      jump\t// in\n    tag_496:\n        /* \"#utility.yul\":11982:12153   */\n      pop\n        /* \"#utility.yul\":12244:12248   */\n      0x60\n        /* \"#utility.yul\":12237:12242   */\n      dup3\n        /* \"#utility.yul\":12233:12249   */\n      add\n        /* \"#utility.yul\":12227:12250   */\n      mload\n        /* \"#utility.yul\":12263:12326   */\n      tag_497\n        /* \"#utility.yul\":12320:12324   */\n      0x60\n        /* \"#utility.yul\":12315:12318   */\n      dup6\n        /* \"#utility.yul\":12311:12325   */\n      add\n        /* \"#utility.yul\":12297:12309   */\n      dup3\n        /* \"#utility.yul\":12263:12326   */\n      tag_390\n      jump\t// in\n    tag_497:\n        /* \"#utility.yul\":12163:12336   */\n      pop\n        /* \"#utility.yul\":12425:12429   */\n      0x80\n        /* \"#utility.yul\":12418:12423   */\n      dup3\n        /* \"#utility.yul\":12414:12430   */\n      add\n        /* \"#utility.yul\":12408:12431   */\n      mload\n        /* \"#utility.yul\":12444:12507   */\n      tag_498\n        /* \"#utility.yul\":12501:12505   */\n      0x80\n        /* \"#utility.yul\":12496:12499   */\n      dup6\n        /* \"#utility.yul\":12492:12506   */\n      add\n        /* \"#utility.yul\":12478:12490   */\n      dup3\n        /* \"#utility.yul\":12444:12507   */\n      tag_390\n      jump\t// in\n    tag_498:\n        /* \"#utility.yul\":12346:12517   */\n      pop\n        /* \"#utility.yul\":12602:12606   */\n      0xa0\n        /* \"#utility.yul\":12595:12600   */\n      dup3\n        /* \"#utility.yul\":12591:12607   */\n      add\n        /* \"#utility.yul\":12585:12608   */\n      mload\n        /* \"#utility.yul\":12621:12678   */\n      tag_499\n        /* \"#utility.yul\":12672:12676   */\n      0xa0\n        /* \"#utility.yul\":12667:12670   */\n      dup6\n        /* \"#utility.yul\":12663:12677   */\n      add\n        /* \"#utility.yul\":12649:12661   */\n      dup3\n        /* \"#utility.yul\":12621:12678   */\n      tag_453\n      jump\t// in\n    tag_499:\n        /* \"#utility.yul\":12527:12688   */\n      pop\n        /* \"#utility.yul\":11569:12695   */\n      pop\n        /* \"#utility.yul\":11453:12695   */\n      pop\n      pop\n      jump\t// out\n        /* \"#utility.yul\":12701:12809   */\n    tag_390:\n        /* \"#utility.yul\":12778:12802   */\n      tag_501\n        /* \"#utility.yul\":12796:12801   */\n      dup2\n        /* \"#utility.yul\":12778:12802   */\n      tag_502\n      jump\t// in\n    tag_501:\n        /* \"#utility.yul\":12773:12776   */\n      dup3\n        /* \"#utility.yul\":12766:12803   */\n      mstore\n        /* \"#utility.yul\":12701:12809   */\n      pop\n      pop\n      jump\t// out\n        /* \"#utility.yul\":12815:12933   */\n    tag_503:\n        /* \"#utility.yul\":12902:12926   */\n      tag_505\n        /* \"#utility.yul\":12920:12925   */\n      dup2\n        /* \"#utility.yul\":12902:12926   */\n      tag_502\n      jump\t// in\n    tag_505:\n        /* \"#utility.yul\":12897:12900   */\n      dup3\n        /* \"#utility.yul\":12890:12927   */\n      mstore\n        /* \"#utility.yul\":12815:12933   */\n      pop\n      pop\n      jump\t// out\n        /* \"#utility.yul\":12939:13161   */\n    tag_79:\n        /* \"#utility.yul\":13032:13036   */\n      0x00\n        /* \"#utility.yul\":13070:13072   */\n      0x20\n        /* \"#utility.yul\":13059:13068   */\n      dup3\n        /* \"#utility.yul\":13055:13073   */\n      add\n        /* \"#utility.yul\":13047:13073   */\n      swap1\n      pop\n        /* \"#utility.yul\":13083:13154   */\n      tag_507\n        /* \"#utility.yul\":13151:13152   */\n      0x00\n        /* \"#utility.yul\":13140:13149   */\n      dup4\n        /* \"#utility.yul\":13136:13153   */\n      add\n        /* \"#utility.yul\":13127:13133   */\n      dup5\n        /* \"#utility.yul\":13083:13154   */\n      tag_394\n      jump\t// in\n    tag_507:\n        /* \"#utility.yul\":12939:13161   */\n      swap3\n      swap2\n      pop\n      pop\n      jump\t// out\n        /* \"#utility.yul\":13167:13609   */\n    tag_156:\n        /* \"#utility.yul\":13316:13320   */\n      0x00\n        /* \"#utility.yul\":13354:13356   */\n      0x60\n        /* \"#utility.yul\":13343:13352   */\n      dup3\n        /* \"#utility.yul\":13339:13357   */\n      add\n        /* \"#utility.yul\":13331:13357   */\n      swap1\n      pop\n        /* \"#utility.yul\":13367:13438   */\n      tag_509\n        /* \"#utility.yul\":13435:13436   */\n      0x00\n        /* \"#utility.yul\":13424:13433   */\n      dup4\n        /* \"#utility.yul\":13420:13437   */\n      add\n        /* \"#utility.yul\":13411:13417   */\n      dup7\n        /* \"#utility.yul\":13367:13438   */\n      tag_394\n      jump\t// in\n    tag_509:\n        /* \"#utility.yul\":13448:13520   */\n      tag_510\n        /* \"#utility.yul\":13516:13518   */\n      0x20\n        /* \"#utility.yul\":13505:13514   */\n      dup4\n        /* \"#utility.yul\":13501:13519   */\n      add\n        /* \"#utility.yul\":13492:13498   */\n      dup6\n        /* \"#utility.yul\":13448:13520   */\n      tag_394\n      jump\t// in\n    tag_510:\n        /* \"#utility.yul\":13530:13602   */\n      tag_511\n        /* \"#utility.yul\":13598:13600   */\n      0x40\n        /* \"#utility.yul\":13587:13596   */\n      dup4\n        /* \"#utility.yul\":13583:13601   */\n      add\n        /* \"#utility.yul\":13574:13580   */\n      dup5\n        /* \"#utility.yul\":13530:13602   */\n      tag_503\n      jump\t// in\n    tag_511:\n        /* \"#utility.yul\":13167:13609   */\n      swap5\n      swap4\n      pop\n      pop\n      pop\n      pop\n      jump\t// out\n        /* \"#utility.yul\":13615:13947   */\n    tag_243:\n        /* \"#utility.yul\":13736:13740   */\n      0x00\n        /* \"#utility.yul\":13774:13776   */\n      0x40\n        /* \"#utility.yul\":13763:13772   */\n      dup3\n        /* \"#utility.yul\":13759:13777   */\n      add\n        /* \"#utility.yul\":13751:13777   */\n      swap1\n      pop\n        /* \"#utility.yul\":13787:13858   */\n      tag_513\n        /* \"#utility.yul\":13855:13856   */\n      0x00\n        /* \"#utility.yul\":13844:13853   */\n      dup4\n        /* \"#utility.yul\":13840:13857   */\n      add\n        /* \"#utility.yul\":13831:13837   */\n      dup6\n        /* \"#utility.yul\":13787:13858   */\n      tag_394\n      jump\t// in\n    tag_513:\n        /* \"#utility.yul\":13868:13940   */\n      tag_514\n        /* \"#utility.yul\":13936:13938   */\n      0x20\n        /* \"#utility.yul\":13925:13934   */\n      dup4\n        /* \"#utility.yul\":13921:13939   */\n      add\n        /* \"#utility.yul\":13912:13918   */\n      dup5\n        /* \"#utility.yul\":13868:13940   */\n      tag_503\n      jump\t// in\n    tag_514:\n        /* \"#utility.yul\":13615:13947   */\n      swap4\n      swap3\n      pop\n      pop\n      pop\n      jump\t// out\n        /* \"#utility.yul\":13953:14827   */\n    tag_117:\n        /* \"#utility.yul\":14208:14212   */\n      0x00\n        /* \"#utility.yul\":14246:14249   */\n      0xe0\n        /* \"#utility.yul\":14235:14244   */\n      dup3\n        /* \"#utility.yul\":14231:14250   */\n      add\n        /* \"#utility.yul\":14223:14250   */\n      swap1\n      pop\n        /* \"#utility.yul\":14260:14331   */\n      tag_516\n        /* \"#utility.yul\":14328:14329   */\n      0x00\n        /* \"#utility.yul\":14317:14326   */\n      dup4\n        /* \"#utility.yul\":14313:14330   */\n      add\n        /* \"#utility.yul\":14304:14310   */\n      dup11\n        /* \"#utility.yul\":14260:14331   */\n      tag_394\n      jump\t// in\n    tag_516:\n        /* \"#utility.yul\":14341:14413   */\n      tag_517\n        /* \"#utility.yul\":14409:14411   */\n      0x20\n        /* \"#utility.yul\":14398:14407   */\n      dup4\n        /* \"#utility.yul\":14394:14412   */\n      add\n        /* \"#utility.yul\":14385:14391   */\n      dup10\n        /* \"#utility.yul\":14341:14413   */\n      tag_503\n      jump\t// in\n    tag_517:\n        /* \"#utility.yul\":14423:14495   */\n      tag_518\n        /* \"#utility.yul\":14491:14493   */\n      0x40\n        /* \"#utility.yul\":14480:14489   */\n      dup4\n        /* \"#utility.yul\":14476:14494   */\n      add\n        /* \"#utility.yul\":14467:14473   */\n      dup9\n        /* \"#utility.yul\":14423:14495   */\n      tag_503\n      jump\t// in\n    tag_518:\n        /* \"#utility.yul\":14505:14577   */\n      tag_519\n        /* \"#utility.yul\":14573:14575   */\n      0x60\n        /* \"#utility.yul\":14562:14571   */\n      dup4\n        /* \"#utility.yul\":14558:14576   */\n      add\n        /* \"#utility.yul\":14549:14555   */\n      dup8\n        /* \"#utility.yul\":14505:14577   */\n      tag_503\n      jump\t// in\n    tag_519:\n        /* \"#utility.yul\":14587:14660   */\n      tag_520\n        /* \"#utility.yul\":14655:14658   */\n      0x80\n        /* \"#utility.yul\":14644:14653   */\n      dup4\n        /* \"#utility.yul\":14640:14659   */\n      add\n        /* \"#utility.yul\":14631:14637   */\n      dup7\n        /* \"#utility.yul\":14587:14660   */\n      tag_503\n      jump\t// in\n    tag_520:\n        /* \"#utility.yul\":14670:14737   */\n      tag_521\n        /* \"#utility.yul\":14732:14735   */\n      0xa0\n        /* \"#utility.yul\":14721:14730   */\n      dup4\n        /* \"#utility.yul\":14717:14736   */\n      add\n        /* \"#utility.yul\":14708:14714   */\n      dup6\n        /* \"#utility.yul\":14670:14737   */\n      tag_457\n      jump\t// in\n    tag_521:\n        /* \"#utility.yul\":14747:14820   */\n      tag_522\n        /* \"#utility.yul\":14815:14818   */\n      0xc0\n        /* \"#utility.yul\":14804:14813   */\n      dup4\n        /* \"#utility.yul\":14800:14819   */\n      add\n        /* \"#utility.yul\":14791:14797   */\n      dup5\n        /* \"#utility.yul\":14747:14820   */\n      tag_503\n      jump\t// in\n    tag_522:\n        /* \"#utility.yul\":13953:14827   */\n      swap9\n      swap8\n      pop\n      pop\n      pop\n      pop\n      pop\n      pop\n      pop\n      pop\n      jump\t// out\n        /* \"#utility.yul\":14833:15206   */\n    tag_39:\n        /* \"#utility.yul\":14976:14980   */\n      0x00\n        /* \"#utility.yul\":15014:15016   */\n      0x20\n        /* \"#utility.yul\":15003:15012   */\n      dup3\n        /* \"#utility.yul\":14999:15017   */\n      add\n        /* \"#utility.yul\":14991:15017   */\n      swap1\n      pop\n        /* \"#utility.yul\":15063:15072   */\n      dup2\n        /* \"#utility.yul\":15057:15061   */\n      dup2\n        /* \"#utility.yul\":15053:15073   */\n      sub\n        /* \"#utility.yul\":15049:15050   */\n      0x00\n        /* \"#utility.yul\":15038:15047   */\n      dup4\n        /* \"#utility.yul\":15034:15051   */\n      add\n        /* \"#utility.yul\":15027:15074   */\n      mstore\n        /* \"#utility.yul\":15091:15199   */\n      tag_524\n        /* \"#utility.yul\":15194:15198   */\n      dup2\n        /* \"#utility.yul\":15185:15191   */\n      dup5\n        /* \"#utility.yul\":15091:15199   */\n      tag_397\n      jump\t// in\n    tag_524:\n        /* \"#utility.yul\":15083:15199   */\n      swap1\n      pop\n        /* \"#utility.yul\":14833:15206   */\n      swap3\n      swap2\n      pop\n      pop\n      jump\t// out\n        /* \"#utility.yul\":15212:15689   */\n    tag_67:\n        /* \"#utility.yul\":15407:15411   */\n      0x00\n        /* \"#utility.yul\":15445:15447   */\n      0x20\n        /* \"#utility.yul\":15434:15443   */\n      dup3\n        /* \"#utility.yul\":15430:15448   */\n      add\n        /* \"#utility.yul\":15422:15448   */\n      swap1\n      pop\n        /* \"#utility.yul\":15494:15503   */\n      dup2\n        /* \"#utility.yul\":15488:15492   */\n      dup2\n        /* \"#utility.yul\":15484:15504   */\n      sub\n        /* \"#utility.yul\":15480:15481   */\n      0x00\n        /* \"#utility.yul\":15469:15478   */\n      dup4\n        /* \"#utility.yul\":15465:15482   */\n      add\n        /* \"#utility.yul\":15458:15505   */\n      mstore\n        /* \"#utility.yul\":15522:15682   */\n      tag_526\n        /* \"#utility.yul\":15677:15681   */\n      dup2\n        /* \"#utility.yul\":15668:15674   */\n      dup5\n        /* \"#utility.yul\":15522:15682   */\n      tag_411\n      jump\t// in\n    tag_526:\n        /* \"#utility.yul\":15514:15682   */\n      swap1\n      pop\n        /* \"#utility.yul\":15212:15689   */\n      swap3\n      swap2\n      pop\n      pop\n      jump\t// out\n        /* \"#utility.yul\":15695:16188   */\n    tag_60:\n        /* \"#utility.yul\":15898:15902   */\n      0x00\n        /* \"#utility.yul\":15936:15938   */\n      0x20\n        /* \"#utility.yul\":15925:15934   */\n      dup3\n        /* \"#utility.yul\":15921:15939   */\n      add\n        /* \"#utility.yul\":15913:15939   */\n      swap1\n      pop\n        /* \"#utility.yul\":15985:15994   */\n      dup2\n        /* \"#utility.yul\":15979:15983   */\n      dup2\n        /* \"#utility.yul\":15975:15995   */\n      sub\n        /* \"#utility.yul\":15971:15972   */\n      0x00\n        /* \"#utility.yul\":15960:15969   */\n      dup4\n        /* \"#utility.yul\":15956:15973   */\n      add\n        /* \"#utility.yul\":15949:15996   */\n      mstore\n        /* \"#utility.yul\":16013:16181   */\n      tag_528\n        /* \"#utility.yul\":16176:16180   */\n      dup2\n        /* \"#utility.yul\":16167:16173   */\n      dup5\n        /* \"#utility.yul\":16013:16181   */\n      tag_425\n      jump\t// in\n    tag_528:\n        /* \"#utility.yul\":16005:16181   */\n      swap1\n      pop\n        /* \"#utility.yul\":15695:16188   */\n      swap3\n      swap2\n      pop\n      pop\n      jump\t// out\n        /* \"#utility.yul\":16194:16567   */\n    tag_105:\n        /* \"#utility.yul\":16337:16341   */\n      0x00\n        /* \"#utility.yul\":16375:16377   */\n      0x20\n        /* \"#utility.yul\":16364:16373   */\n      dup3\n        /* \"#utility.yul\":16360:16378   */\n      add\n        /* \"#utility.yul\":16352:16378   */\n      swap1\n      pop\n        /* \"#utility.yul\":16424:16433   */\n      dup2\n        /* \"#utility.yul\":16418:16422   */\n      dup2\n        /* \"#utility.yul\":16414:16434   */\n      sub\n        /* \"#utility.yul\":16410:16411   */\n      0x00\n        /* \"#utility.yul\":16399:16408   */\n      dup4\n        /* \"#utility.yul\":16395:16412   */\n      add\n        /* \"#utility.yul\":16388:16435   */\n      mstore\n        /* \"#utility.yul\":16452:16560   */\n      tag_530\n        /* \"#utility.yul\":16555:16559   */\n      dup2\n        /* \"#utility.yul\":16546:16552   */\n      dup5\n        /* \"#utility.yul\":16452:16560   */\n      tag_439\n      jump\t// in\n    tag_530:\n        /* \"#utility.yul\":16444:16560   */\n      swap1\n      pop\n        /* \"#utility.yul\":16194:16567   */\n      swap3\n      swap2\n      pop\n      pop\n      jump\t// out\n        /* \"#utility.yul\":16573:16783   */\n    tag_52:\n        /* \"#utility.yul\":16660:16664   */\n      0x00\n        /* \"#utility.yul\":16698:16700   */\n      0x20\n        /* \"#utility.yul\":16687:16696   */\n      dup3\n        /* \"#utility.yul\":16683:16701   */\n      add\n        /* \"#utility.yul\":16675:16701   */\n      swap1\n      pop\n        /* \"#utility.yul\":16711:16776   */\n      tag_532\n        /* \"#utility.yul\":16773:16774   */\n      0x00\n        /* \"#utility.yul\":16762:16771   */\n      dup4\n        /* \"#utility.yul\":16758:16775   */\n      add\n        /* \"#utility.yul\":16749:16755   */\n      dup5\n        /* \"#utility.yul\":16711:16776   */\n      tag_457\n      jump\t// in\n    tag_532:\n        /* \"#utility.yul\":16573:16783   */\n      swap3\n      swap2\n      pop\n      pop\n      jump\t// out\n        /* \"#utility.yul\":16789:17208   */\n    tag_237:\n        /* \"#utility.yul\":16955:16959   */\n      0x00\n        /* \"#utility.yul\":16993:16995   */\n      0x20\n        /* \"#utility.yul\":16982:16991   */\n      dup3\n        /* \"#utility.yul\":16978:16996   */\n      add\n        /* \"#utility.yul\":16970:16996   */\n      swap1\n      pop\n        /* \"#utility.yul\":17042:17051   */\n      dup2\n        /* \"#utility.yul\":17036:17040   */\n      dup2\n        /* \"#utility.yul\":17032:17052   */\n      sub\n        /* \"#utility.yul\":17028:17029   */\n      0x00\n        /* \"#utility.yul\":17017:17026   */\n      dup4\n        /* \"#utility.yul\":17013:17030   */\n      add\n        /* \"#utility.yul\":17006:17053   */\n      mstore\n        /* \"#utility.yul\":17070:17201   */\n      tag_534\n        /* \"#utility.yul\":17196:17200   */\n      dup2\n        /* \"#utility.yul\":17070:17201   */\n      tag_460\n      jump\t// in\n    tag_534:\n        /* \"#utility.yul\":17062:17201   */\n      swap1\n      pop\n        /* \"#utility.yul\":16789:17208   */\n      swap2\n      swap1\n      pop\n      jump\t// out\n        /* \"#utility.yul\":17214:17633   */\n    tag_141:\n        /* \"#utility.yul\":17380:17384   */\n      0x00\n        /* \"#utility.yul\":17418:17420   */\n      0x20\n        /* \"#utility.yul\":17407:17416   */\n      dup3\n        /* \"#utility.yul\":17403:17421   */\n      add\n        /* \"#utility.yul\":17395:17421   */\n      swap1\n      pop\n        /* \"#utility.yul\":17467:17476   */\n      dup2\n        /* \"#utility.yul\":17461:17465   */\n      dup2\n        /* \"#utility.yul\":17457:17477   */\n      sub\n        /* \"#utility.yul\":17453:17454   */\n      0x00\n        /* \"#utility.yul\":17442:17451   */\n      dup4\n        /* \"#utility.yul\":17438:17455   */\n      add\n        /* \"#utility.yul\":17431:17478   */\n      mstore\n        /* \"#utility.yul\":17495:17626   */\n      tag_536\n        /* \"#utility.yul\":17621:17625   */\n      dup2\n        /* \"#utility.yul\":17495:17626   */\n      tag_466\n      jump\t// in\n    tag_536:\n        /* \"#utility.yul\":17487:17626   */\n      swap1\n      pop\n        /* \"#utility.yul\":17214:17633   */\n      swap2\n      swap1\n      pop\n      jump\t// out\n        /* \"#utility.yul\":17639:18058   */\n    tag_272:\n        /* \"#utility.yul\":17805:17809   */\n      0x00\n        /* \"#utility.yul\":17843:17845   */\n      0x20\n        /* \"#utility.yul\":17832:17841   */\n      dup3\n        /* \"#utility.yul\":17828:17846   */\n      add\n        /* \"#utility.yul\":17820:17846   */\n      swap1\n      pop\n        /* \"#utility.yul\":17892:17901   */\n      dup2\n        /* \"#utility.yul\":17886:17890   */\n      dup2\n        /* \"#utility.yul\":17882:17902   */\n      sub\n        /* \"#utility.yul\":17878:17879   */\n      0x00\n        /* \"#utility.yul\":17867:17876   */\n      dup4\n        /* \"#utility.yul\":17863:17880   */\n      add\n        /* \"#utility.yul\":17856:17903   */\n      mstore\n        /* \"#utility.yul\":17920:18051   */\n      tag_538\n        /* \"#utility.yul\":18046:18050   */\n      dup2\n        /* \"#utility.yul\":17920:18051   */\n      tag_471\n      jump\t// in\n    tag_538:\n        /* \"#utility.yul\":17912:18051   */\n      swap1\n      pop\n        /* \"#utility.yul\":17639:18058   */\n      swap2\n      swap1\n      pop\n      jump\t// out\n        /* \"#utility.yul\":18064:18483   */\n    tag_240:\n        /* \"#utility.yul\":18230:18234   */\n      0x00\n        /* \"#utility.yul\":18268:18270   */\n      0x20\n        /* \"#utility.yul\":18257:18266   */\n      dup3\n        /* \"#utility.yul\":18253:18271   */\n      add\n        /* \"#utility.yul\":18245:18271   */\n      swap1\n      pop\n        /* \"#utility.yul\":18317:18326   */\n      dup2\n        /* \"#utility.yul\":18311:18315   */\n      dup2\n        /* \"#utility.yul\":18307:18327   */\n      sub\n        /* \"#utility.yul\":18303:18304   */\n      0x00\n        /* \"#utility.yul\":18292:18301   */\n      dup4\n        /* \"#utility.yul\":18288:18305   */\n      add\n        /* \"#utility.yul\":18281:18328   */\n      mstore\n        /* \"#utility.yul\":18345:18476   */\n      tag_540\n        /* \"#utility.yul\":18471:18475   */\n      dup2\n        /* \"#utility.yul\":18345:18476   */\n      tag_476\n      jump\t// in\n    tag_540:\n        /* \"#utility.yul\":18337:18476   */\n      swap1\n      pop\n        /* \"#utility.yul\":18064:18483   */\n      swap2\n      swap1\n      pop\n      jump\t// out\n        /* \"#utility.yul\":18489:18908   */\n    tag_300:\n        /* \"#utility.yul\":18655:18659   */\n      0x00\n        /* \"#utility.yul\":18693:18695   */\n      0x20\n        /* \"#utility.yul\":18682:18691   */\n      dup3\n        /* \"#utility.yul\":18678:18696   */\n      add\n        /* \"#utility.yul\":18670:18696   */\n      swap1\n      pop\n        /* \"#utility.yul\":18742:18751   */\n      dup2\n        /* \"#utility.yul\":18736:18740   */\n      dup2\n        /* \"#utility.yul\":18732:18752   */\n      sub\n        /* \"#utility.yul\":18728:18729   */\n      0x00\n        /* \"#utility.yul\":18717:18726   */\n      dup4\n        /* \"#utility.yul\":18713:18730   */\n      add\n        /* \"#utility.yul\":18706:18753   */\n      mstore\n        /* \"#utility.yul\":18770:18901   */\n      tag_542\n        /* \"#utility.yul\":18896:18900   */\n      dup2\n        /* \"#utility.yul\":18770:18901   */\n      tag_481\n      jump\t// in\n    tag_542:\n        /* \"#utility.yul\":18762:18901   */\n      swap1\n      pop\n        /* \"#utility.yul\":18489:18908   */\n      swap2\n      swap1\n      pop\n      jump\t// out\n        /* \"#utility.yul\":18914:19136   */\n    tag_43:\n        /* \"#utility.yul\":19007:19011   */\n      0x00\n        /* \"#utility.yul\":19045:19047   */\n      0x20\n        /* \"#utility.yul\":19034:19043   */\n      dup3\n        /* \"#utility.yul\":19030:19048   */\n      add\n        /* \"#utility.yul\":19022:19048   */\n      swap1\n      pop\n        /* \"#utility.yul\":19058:19129   */\n      tag_544\n        /* \"#utility.yul\":19126:19127   */\n      0x00\n        /* \"#utility.yul\":19115:19124   */\n      dup4\n        /* \"#utility.yul\":19111:19128   */\n      add\n        /* \"#utility.yul\":19102:19108   */\n      dup5\n        /* \"#utility.yul\":19058:19129   */\n      tag_503\n      jump\t// in\n    tag_544:\n        /* \"#utility.yul\":18914:19136   */\n      swap3\n      swap2\n      pop\n      pop\n      jump\t// out\n        /* \"#utility.yul\":19223:19355   */\n    tag_404:\n        /* \"#utility.yul\":19290:19294   */\n      0x00\n        /* \"#utility.yul\":19313:19316   */\n      dup2\n        /* \"#utility.yul\":19305:19316   */\n      swap1\n      pop\n        /* \"#utility.yul\":19343:19347   */\n      0x20\n        /* \"#utility.yul\":19338:19341   */\n      dup3\n        /* \"#utility.yul\":19334:19348   */\n      add\n        /* \"#utility.yul\":19326:19348   */\n      swap1\n      pop\n        /* \"#utility.yul\":19223:19355   */\n      swap2\n      swap1\n      pop\n      jump\t// out\n        /* \"#utility.yul\":19361:19519   */\n    tag_418:\n        /* \"#utility.yul\":19454:19458   */\n      0x00\n        /* \"#utility.yul\":19477:19480   */\n      dup2\n        /* \"#utility.yul\":19469:19480   */\n      swap1\n      pop\n        /* \"#utility.yul\":19507:19511   */\n      0x20\n        /* \"#utility.yul\":19502:19505   */\n      dup3\n        /* \"#utility.yul\":19498:19512   */\n      add\n        /* \"#utility.yul\":19490:19512   */\n      swap1\n      pop\n        /* \"#utility.yul\":19361:19519   */\n      swap2\n      swap1\n      pop\n      jump\t// out\n        /* \"#utility.yul\":19525:19687   */\n    tag_432:\n        /* \"#utility.yul\":19622:19626   */\n      0x00\n        /* \"#utility.yul\":19645:19648   */\n      dup2\n        /* \"#utility.yul\":19637:19648   */\n      swap1\n      pop\n        /* \"#utility.yul\":19675:19679   */\n      0x20\n        /* \"#utility.yul\":19670:19673   */\n      dup3\n        /* \"#utility.yul\":19666:19680   */\n      add\n        /* \"#utility.yul\":19658:19680   */\n      swap1\n      pop\n        /* \"#utility.yul\":19525:19687   */\n      swap2\n      swap1\n      pop\n      jump\t// out\n        /* \"#utility.yul\":19693:19825   */\n    tag_446:\n        /* \"#utility.yul\":19760:19764   */\n      0x00\n        /* \"#utility.yul\":19783:19786   */\n      dup2\n        /* \"#utility.yul\":19775:19786   */\n      swap1\n      pop\n        /* \"#utility.yul\":19813:19817   */\n      0x20\n        /* \"#utility.yul\":19808:19811   */\n      dup3\n        /* \"#utility.yul\":19804:19818   */\n      add\n        /* \"#utility.yul\":19796:19818   */\n      swap1\n      pop\n        /* \"#utility.yul\":19693:19825   */\n      swap2\n      swap1\n      pop\n      jump\t// out\n        /* \"#utility.yul\":19831:19945   */\n    tag_400:\n        /* \"#utility.yul\":19898:19904   */\n      0x00\n        /* \"#utility.yul\":19932:19937   */\n      dup2\n        /* \"#utility.yul\":19926:19938   */\n      mload\n        /* \"#utility.yul\":19916:19938   */\n      swap1\n      pop\n        /* \"#utility.yul\":19831:19945   */\n      swap2\n      swap1\n      pop\n      jump\t// out\n        /* \"#utility.yul\":19951:20091   */\n    tag_414:\n        /* \"#utility.yul\":20044:20050   */\n      0x00\n        /* \"#utility.yul\":20078:20083   */\n      dup2\n        /* \"#utility.yul\":20072:20084   */\n      mload\n        /* \"#utility.yul\":20062:20084   */\n      swap1\n      pop\n        /* \"#utility.yul\":19951:20091   */\n      swap2\n      swap1\n      pop\n      jump\t// out\n        /* \"#utility.yul\":20097:20241   */\n    tag_428:\n        /* \"#utility.yul\":20194:20200   */\n      0x00\n        /* \"#utility.yul\":20228:20233   */\n      dup2\n        /* \"#utility.yul\":20222:20234   */\n      mload\n        /* \"#utility.yul\":20212:20234   */\n      swap1\n      pop\n        /* \"#utility.yul\":20097:20241   */\n      swap2\n      swap1\n      pop\n      jump\t// out\n        /* \"#utility.yul\":20247:20361   */\n    tag_442:\n        /* \"#utility.yul\":20314:20320   */\n      0x00\n        /* \"#utility.yul\":20348:20353   */\n      dup2\n        /* \"#utility.yul\":20342:20354   */\n      mload\n        /* \"#utility.yul\":20332:20354   */\n      swap1\n      pop\n        /* \"#utility.yul\":20247:20361   */\n      swap2\n      swap1\n      pop\n      jump\t// out\n        /* \"#utility.yul\":20367:20480   */\n    tag_410:\n        /* \"#utility.yul\":20437:20441   */\n      0x00\n        /* \"#utility.yul\":20469:20473   */\n      0x20\n        /* \"#utility.yul\":20464:20467   */\n      dup3\n        /* \"#utility.yul\":20460:20474   */\n      add\n        /* \"#utility.yul\":20452:20474   */\n      swap1\n      pop\n        /* \"#utility.yul\":20367:20480   */\n      swap2\n      swap1\n      pop\n      jump\t// out\n        /* \"#utility.yul\":20486:20625   */\n    tag_424:\n        /* \"#utility.yul\":20582:20586   */\n      0x00\n        /* \"#utility.yul\":20614:20618   */\n      0x20\n        /* \"#utility.yul\":20609:20612   */\n      dup3\n        /* \"#utility.yul\":20605:20619   */\n      add\n        /* \"#utility.yul\":20597:20619   */\n      swap1\n      pop\n        /* \"#utility.yul\":20486:20625   */\n      swap2\n      swap1\n      pop\n      jump\t// out\n        /* \"#utility.yul\":20631:20774   */\n    tag_438:\n        /* \"#utility.yul\":20731:20735   */\n      0x00\n        /* \"#utility.yul\":20763:20767   */\n      0x20\n        /* \"#utility.yul\":20758:20761   */\n      dup3\n        /* \"#utility.yul\":20754:20768   */\n      add\n        /* \"#utility.yul\":20746:20768   */\n      swap1\n      pop\n        /* \"#utility.yul\":20631:20774   */\n      swap2\n      swap1\n      pop\n      jump\t// out\n        /* \"#utility.yul\":20780:20893   */\n    tag_452:\n        /* \"#utility.yul\":20850:20854   */\n      0x00\n        /* \"#utility.yul\":20882:20886   */\n      0x20\n        /* \"#utility.yul\":20877:20880   */\n      dup3\n        /* \"#utility.yul\":20873:20887   */\n      add\n        /* \"#utility.yul\":20865:20887   */\n      swap1\n      pop\n        /* \"#utility.yul\":20780:20893   */\n      swap2\n      swap1\n      pop\n      jump\t// out\n        /* \"#utility.yul\":20899:21083   */\n    tag_402:\n        /* \"#utility.yul\":20998:21009   */\n      0x00\n        /* \"#utility.yul\":21032:21038   */\n      dup3\n        /* \"#utility.yul\":21027:21030   */\n      dup3\n        /* \"#utility.yul\":21020:21039   */\n      mstore\n        /* \"#utility.yul\":21072:21076   */\n      0x20\n        /* \"#utility.yul\":21067:21070   */\n      dup3\n        /* \"#utility.yul\":21063:21077   */\n      add\n        /* \"#utility.yul\":21048:21077   */\n      swap1\n      pop\n        /* \"#utility.yul\":20899:21083   */\n      swap3\n      swap2\n      pop\n      pop\n      jump\t// out\n        /* \"#utility.yul\":21089:21299   */\n    tag_416:\n        /* \"#utility.yul\":21214:21225   */\n      0x00\n        /* \"#utility.yul\":21248:21254   */\n      dup3\n        /* \"#utility.yul\":21243:21246   */\n      dup3\n        /* \"#utility.yul\":21236:21255   */\n      mstore\n        /* \"#utility.yul\":21288:21292   */\n      0x20\n        /* \"#utility.yul\":21283:21286   */\n      dup3\n        /* \"#utility.yul\":21279:21293   */\n      add\n        /* \"#utility.yul\":21264:21293   */\n      swap1\n      pop\n        /* \"#utility.yul\":21089:21299   */\n      swap3\n      swap2\n      pop\n      pop\n      jump\t// out\n        /* \"#utility.yul\":21305:21519   */\n    tag_430:\n        /* \"#utility.yul\":21434:21445   */\n      0x00\n        /* \"#utility.yul\":21468:21474   */\n      dup3\n        /* \"#utility.yul\":21463:21466   */\n      dup3\n        /* \"#utility.yul\":21456:21475   */\n      mstore\n        /* \"#utility.yul\":21508:21512   */\n      0x20\n        /* \"#utility.yul\":21503:21506   */\n      dup3\n        /* \"#utility.yul\":21499:21513   */\n      add\n        /* \"#utility.yul\":21484:21513   */\n      swap1\n      pop\n        /* \"#utility.yul\":21305:21519   */\n      swap3\n      swap2\n      pop\n      pop\n      jump\t// out\n        /* \"#utility.yul\":21525:21709   */\n    tag_444:\n        /* \"#utility.yul\":21624:21635   */\n      0x00\n        /* \"#utility.yul\":21658:21664   */\n      dup3\n        /* \"#utility.yul\":21653:21656   */\n      dup3\n        /* \"#utility.yul\":21646:21665   */\n      mstore\n        /* \"#utility.yul\":21698:21702   */\n      0x20\n        /* \"#utility.yul\":21693:21696   */\n      dup3\n        /* \"#utility.yul\":21689:21703   */\n      add\n        /* \"#utility.yul\":21674:21703   */\n      swap1\n      pop\n        /* \"#utility.yul\":21525:21709   */\n      swap3\n      swap2\n      pop\n      pop\n      jump\t// out\n        /* \"#utility.yul\":21715:21884   */\n    tag_463:\n        /* \"#utility.yul\":21799:21810   */\n      0x00\n        /* \"#utility.yul\":21833:21839   */\n      dup3\n        /* \"#utility.yul\":21828:21831   */\n      dup3\n        /* \"#utility.yul\":21821:21840   */\n      mstore\n        /* \"#utility.yul\":21873:21877   */\n      0x20\n        /* \"#utility.yul\":21868:21871   */\n      dup3\n        /* \"#utility.yul\":21864:21878   */\n      add\n        /* \"#utility.yul\":21849:21878   */\n      swap1\n      pop\n        /* \"#utility.yul\":21715:21884   */\n      swap3\n      swap2\n      pop\n      pop\n      jump\t// out\n        /* \"#utility.yul\":21890:22195   */\n    tag_148:\n        /* \"#utility.yul\":21930:21933   */\n      0x00\n        /* \"#utility.yul\":21949:21969   */\n      tag_565\n        /* \"#utility.yul\":21967:21968   */\n      dup3\n        /* \"#utility.yul\":21949:21969   */\n      tag_502\n      jump\t// in\n    tag_565:\n        /* \"#utility.yul\":21944:21969   */\n      swap2\n      pop\n        /* \"#utility.yul\":21983:22003   */\n      tag_566\n        /* \"#utility.yul\":22001:22002   */\n      dup4\n        /* \"#utility.yul\":21983:22003   */\n      tag_502\n      jump\t// in\n    tag_566:\n        /* \"#utility.yul\":21978:22003   */\n      swap3\n      pop\n        /* \"#utility.yul\":22137:22138   */\n      dup3\n        /* \"#utility.yul\":22069:22135   */\n      0xffffffffffffffffffffffffffffffffffffffffffffffffffffffffffffffff\n        /* \"#utility.yul\":22065:22139   */\n      sub\n        /* \"#utility.yul\":22062:22063   */\n      dup3\n        /* \"#utility.yul\":22059:22140   */\n      gt\n        /* \"#utility.yul\":22056:22163   */\n      iszero\n      tag_567\n      jumpi\n        /* \"#utility.yul\":22143:22161   */\n      tag_568\n      tag_569\n      jump\t// in\n    tag_568:\n        /* \"#utility.yul\":22056:22163   */\n    tag_567:\n        /* \"#utility.yul\":22187:22188   */\n      dup3\n        /* \"#utility.yul\":22184:22185   */\n      dup3\n        /* \"#utility.yul\":22180:22189   */\n      add\n        /* \"#utility.yul\":22173:22189   */\n      swap1\n      pop\n        /* \"#utility.yul\":21890:22195   */\n      swap3\n      swap2\n      pop\n      pop\n      jump\t// out\n        /* \"#utility.yul\":22201:22386   */\n    tag_196:\n        /* \"#utility.yul\":22241:22242   */\n      0x00\n        /* \"#utility.yul\":22258:22278   */\n      tag_571\n        /* \"#utility.yul\":22276:22277   */\n      dup3\n        /* \"#utility.yul\":22258:22278   */\n      tag_502\n      jump\t// in\n    tag_571:\n        /* \"#utility.yul\":22253:22278   */\n      swap2\n      pop\n        /* \"#utility.yul\":22292:22312   */\n      tag_572\n        /* \"#utility.yul\":22310:22311   */\n      dup4\n        /* \"#utility.yul\":22292:22312   */\n      tag_502\n      jump\t// in\n    tag_572:\n        /* \"#utility.yul\":22287:22312   */\n      swap3\n      pop\n        /* \"#utility.yul\":22331:22332   */\n      dup3\n        /* \"#utility.yul\":22321:22356   */\n      tag_573\n      jumpi\n        /* \"#utility.yul\":22336:22354   */\n      tag_574\n      tag_575\n      jump\t// in\n    tag_574:\n        /* \"#utility.yul\":22321:22356   */\n    tag_573:\n        /* \"#utility.yul\":22378:22379   */\n      dup3\n        /* \"#utility.yul\":22375:22376   */\n      dup3\n        /* \"#utility.yul\":22371:22380   */\n      div\n        /* \"#utility.yul\":22366:22380   */\n      swap1\n      pop\n        /* \"#utility.yul\":22201:22386   */\n      swap3\n      swap2\n      pop\n      pop\n      jump\t// out\n        /* \"#utility.yul\":22392:22740   */\n    tag_154:\n        /* \"#utility.yul\":22432:22439   */\n      0x00\n        /* \"#utility.yul\":22455:22475   */\n      tag_577\n        /* \"#utility.yul\":22473:22474   */\n      dup3\n        /* \"#utility.yul\":22455:22475   */\n      tag_502\n      jump\t// in\n    tag_577:\n        /* \"#utility.yul\":22450:22475   */\n      swap2\n      pop\n        /* \"#utility.yul\":22489:22509   */\n      tag_578\n        /* \"#utility.yul\":22507:22508   */\n      dup4\n        /* \"#utility.yul\":22489:22509   */\n      tag_502\n      jump\t// in\n    tag_578:\n        /* \"#utility.yul\":22484:22509   */\n      swap3\n      pop\n        /* \"#utility.yul\":22677:22678   */\n      dup2\n        /* \"#utility.yul\":22609:22675   */\n      0xffffffffffffffffffffffffffffffffffffffffffffffffffffffffffffffff\n        /* \"#utility.yul\":22605:22679   */\n      div\n        /* \"#utility.yul\":22602:22603   */\n      dup4\n        /* \"#utility.yul\":22599:22680   */\n      gt\n        /* \"#utility.yul\":22594:22595   */\n      dup3\n        /* \"#utility.yul\":22587:22596   */\n      iszero\n        /* \"#utility.yul\":22580:22597   */\n      iszero\n        /* \"#utility.yul\":22576:22681   */\n      and\n        /* \"#utility.yul\":22573:22704   */\n      iszero\n      tag_579\n      jumpi\n        /* \"#utility.yul\":22684:22702   */\n      tag_580\n      tag_569\n      jump\t// in\n    tag_580:\n        /* \"#utility.yul\":22573:22704   */\n    tag_579:\n        /* \"#utility.yul\":22732:22733   */\n      dup3\n        /* \"#utility.yul\":22729:22730   */\n      dup3\n        /* \"#utility.yul\":22725:22734   */\n      mul\n        /* \"#utility.yul\":22714:22734   */\n      swap1\n      pop\n        /* \"#utility.yul\":22392:22740   */\n      swap3\n      swap2\n      pop\n      pop\n      jump\t// out\n        /* \"#utility.yul\":22746:22937   */\n    tag_192:\n        /* \"#utility.yul\":22786:22790   */\n      0x00\n        /* \"#utility.yul\":22806:22826   */\n      tag_582\n        /* \"#utility.yul\":22824:22825   */\n      dup3\n        /* \"#utility.yul\":22806:22826   */\n      tag_502\n      jump\t// in\n    tag_582:\n        /* \"#utility.yul\":22801:22826   */\n      swap2\n      pop\n        /* \"#utility.yul\":22840:22860   */\n      tag_583\n        /* \"#utility.yul\":22858:22859   */\n      dup4\n        /* \"#utility.yul\":22840:22860   */\n      tag_502\n      jump\t// in\n    tag_583:\n        /* \"#utility.yul\":22835:22860   */\n      swap3\n      pop\n        /* \"#utility.yul\":22879:22880   */\n      dup3\n        /* \"#utility.yul\":22876:22877   */\n      dup3\n        /* \"#utility.yul\":22873:22881   */\n      lt\n        /* \"#utility.yul\":22870:22904   */\n      iszero\n      tag_584\n      jumpi\n        /* \"#utility.yul\":22884:22902   */\n      tag_585\n      tag_569\n      jump\t// in\n    tag_585:\n        /* \"#utility.yul\":22870:22904   */\n    tag_584:\n        /* \"#utility.yul\":22929:22930   */\n      dup3\n        /* \"#utility.yul\":22926:22927   */\n      dup3\n        /* \"#utility.yul\":22922:22931   */\n      sub\n        /* \"#utility.yul\":22914:22931   */\n      swap1\n      pop\n        /* \"#utility.yul\":22746:22937   */\n      swap3\n      swap2\n      pop\n      pop\n      jump\t// out\n        /* \"#utility.yul\":22943:23039   */\n    tag_393:\n        /* \"#utility.yul\":22980:22987   */\n      0x00\n        /* \"#utility.yul\":23009:23033   */\n      tag_587\n        /* \"#utility.yul\":23027:23032   */\n      dup3\n        /* \"#utility.yul\":23009:23033   */\n      tag_588\n      jump\t// in\n    tag_587:\n        /* \"#utility.yul\":22998:23033   */\n      swap1\n      pop\n        /* \"#utility.yul\":22943:23039   */\n      swap2\n      swap1\n      pop\n      jump\t// out\n        /* \"#utility.yul\":23045:23135   */\n    tag_456:\n        /* \"#utility.yul\":23079:23086   */\n      0x00\n        /* \"#utility.yul\":23122:23127   */\n      dup2\n        /* \"#utility.yul\":23115:23128   */\n      iszero\n        /* \"#utility.yul\":23108:23129   */\n      iszero\n        /* \"#utility.yul\":23097:23129   */\n      swap1\n      pop\n        /* \"#utility.yul\":23045:23135   */\n      swap2\n      swap1\n      pop\n      jump\t// out\n        /* \"#utility.yul\":23141:23267   */\n    tag_588:\n        /* \"#utility.yul\":23178:23185   */\n      0x00\n        /* \"#utility.yul\":23218:23260   */\n      0xffffffffffffffffffffffffffffffffffffffff\n        /* \"#utility.yul\":23211:23216   */\n      dup3\n        /* \"#utility.yul\":23207:23261   */\n      and\n        /* \"#utility.yul\":23196:23261   */\n      swap1\n      pop\n        /* \"#utility.yul\":23141:23267   */\n      swap2\n      swap1\n      pop\n      jump\t// out\n        /* \"#utility.yul\":23273:23350   */\n    tag_502:\n        /* \"#utility.yul\":23310:23317   */\n      0x00\n        /* \"#utility.yul\":23339:23344   */\n      dup2\n        /* \"#utility.yul\":23328:23344   */\n      swap1\n      pop\n        /* \"#utility.yul\":23273:23350   */\n      swap2\n      swap1\n      pop\n      jump\t// out\n        /* \"#utility.yul\":23356:23589   */\n    tag_144:\n        /* \"#utility.yul\":23395:23398   */\n      0x00\n        /* \"#utility.yul\":23418:23442   */\n      tag_593\n        /* \"#utility.yul\":23436:23441   */\n      dup3\n        /* \"#utility.yul\":23418:23442   */\n      tag_502\n      jump\t// in\n    tag_593:\n        /* \"#utility.yul\":23409:23442   */\n      swap2\n      pop\n        /* \"#utility.yul\":23464:23530   */\n      0xffffffffffffffffffffffffffffffffffffffffffffffffffffffffffffffff\n        /* \"#utility.yul\":23457:23462   */\n      dup3\n        /* \"#utility.yul\":23454:23531   */\n      eq\n        /* \"#utility.yul\":23451:23554   */\n      iszero\n      tag_594\n      jumpi\n        /* \"#utility.yul\":23534:23552   */\n      tag_595\n      tag_569\n      jump\t// in\n    tag_595:\n        /* \"#utility.yul\":23451:23554   */\n    tag_594:\n        /* \"#utility.yul\":23581:23582   */\n      0x01\n        /* \"#utility.yul\":23574:23579   */\n      dup3\n        /* \"#utility.yul\":23570:23583   */\n      add\n        /* \"#utility.yul\":23563:23583   */\n      swap1\n      pop\n        /* \"#utility.yul\":23356:23589   */\n      swap2\n      swap1\n      pop\n      jump\t// out\n        /* \"#utility.yul\":23595:23775   */\n    tag_569:\n        /* \"#utility.yul\":23643:23720   */\n      0x4e487b7100000000000000000000000000000000000000000000000000000000\n        /* \"#utility.yul\":23640:23641   */\n      0x00\n        /* \"#utility.yul\":23633:23721   */\n      mstore\n        /* \"#utility.yul\":23740:23744   */\n      0x11\n        /* \"#utility.yul\":23737:23738   */\n      0x04\n        /* \"#utility.yul\":23730:23745   */\n      mstore\n        /* \"#utility.yul\":23764:23768   */\n      0x24\n        /* \"#utility.yul\":23761:23762   */\n      0x00\n        /* \"#utility.yul\":23754:23769   */\n      revert\n        /* \"#utility.yul\":23781:23961   */\n    tag_575:\n        /* \"#utility.yul\":23829:23906   */\n      0x4e487b7100000000000000000000000000000000000000000000000000000000\n        /* \"#utility.yul\":23826:23827   */\n      0x00\n        /* \"#utility.yul\":23819:23907   */\n      mstore\n        /* \"#utility.yul\":23926:23930   */\n      0x12\n        /* \"#utility.yul\":23923:23924   */\n      0x04\n        /* \"#utility.yul\":23916:23931   */\n      mstore\n        /* \"#utility.yul\":23950:23954   */\n      0x24\n        /* \"#utility.yul\":23947:23948   */\n      0x00\n        /* \"#utility.yul\":23940:23955   */\n      revert\n        /* \"#utility.yul\":23967:24147   */\n    tag_183:\n        /* \"#utility.yul\":24015:24092   */\n      0x4e487b7100000000000000000000000000000000000000000000000000000000\n        /* \"#utility.yul\":24012:24013   */\n      0x00\n        /* \"#utility.yul\":24005:24093   */\n      mstore\n        /* \"#utility.yul\":24112:24116   */\n      0x32\n        /* \"#utility.yul\":24109:24110   */\n      0x04\n        /* \"#utility.yul\":24102:24117   */\n      mstore\n        /* \"#utility.yul\":24136:24140   */\n      0x24\n        /* \"#utility.yul\":24133:24134   */\n      0x00\n        /* \"#utility.yul\":24126:24141   */\n      revert\n        /* \"#utility.yul\":24153:24333   */\n    tag_172:\n        /* \"#utility.yul\":24201:24278   */\n      0x4e487b7100000000000000000000000000000000000000000000000000000000\n        /* \"#utility.yul\":24198:24199   */\n      0x00\n        /* \"#utility.yul\":24191:24279   */\n      mstore\n        /* \"#utility.yul\":24298:24302   */\n      0x41\n        /* \"#utility.yul\":24295:24296   */\n      0x04\n        /* \"#utility.yul\":24288:24303   */\n      mstore\n        /* \"#utility.yul\":24322:24326   */\n      0x24\n        /* \"#utility.yul\":24319:24320   */\n      0x00\n        /* \"#utility.yul\":24312:24327   */\n      revert\n        /* \"#utility.yul\":24462:24579   */\n    tag_348:\n        /* \"#utility.yul\":24571:24572   */\n      0x00\n        /* \"#utility.yul\":24568:24569   */\n      dup1\n        /* \"#utility.yul\":24561:24573   */\n      revert\n        /* \"#utility.yul\":24585:24809   */\n    tag_465:\n        /* \"#utility.yul\":24725:24759   */\n      0x796f7520646f6e74206861766520696e766573746d656e7420746f2077697468\n        /* \"#utility.yul\":24721:24722   */\n      0x00\n        /* \"#utility.yul\":24713:24719   */\n      dup3\n        /* \"#utility.yul\":24709:24723   */\n      add\n        /* \"#utility.yul\":24702:24760   */\n      mstore\n        /* \"#utility.yul\":24794:24801   */\n      0x647261776e000000000000000000000000000000000000000000000000000000\n        /* \"#utility.yul\":24789:24791   */\n      0x20\n        /* \"#utility.yul\":24781:24787   */\n      dup3\n        /* \"#utility.yul\":24777:24792   */\n      add\n        /* \"#utility.yul\":24770:24802   */\n      mstore\n        /* \"#utility.yul\":24585:24809   */\n      pop\n      jump\t// out\n        /* \"#utility.yul\":24815:25055   */\n    tag_470:\n        /* \"#utility.yul\":24955:24989   */\n      0x76616c7565206973206e6f742067726561746572207468616e20313030303020\n        /* \"#utility.yul\":24951:24952   */\n      0x00\n        /* \"#utility.yul\":24943:24949   */\n      dup3\n        /* \"#utility.yul\":24939:24953   */\n      add\n        /* \"#utility.yul\":24932:24990   */\n      mstore\n        /* \"#utility.yul\":25024:25047   */\n      0x616e64206c657373207468616e20353030303030300000000000000000000000\n        /* \"#utility.yul\":25019:25021   */\n      0x20\n        /* \"#utility.yul\":25011:25017   */\n      dup3\n        /* \"#utility.yul\":25007:25022   */\n      add\n        /* \"#utility.yul\":25000:25048   */\n      mstore\n        /* \"#utility.yul\":24815:25055   */\n      pop\n      jump\t// out\n        /* \"#utility.yul\":25061:25282   */\n    tag_475:\n        /* \"#utility.yul\":25201:25235   */\n      0x796f7520646f6e742068617665207265776172647320746f2077697468647261\n        /* \"#utility.yul\":25197:25198   */\n      0x00\n        /* \"#utility.yul\":25189:25195   */\n      dup3\n        /* \"#utility.yul\":25185:25199   */\n      add\n        /* \"#utility.yul\":25178:25236   */\n      mstore\n        /* \"#utility.yul\":25270:25274   */\n      0x776e000000000000000000000000000000000000000000000000000000000000\n        /* \"#utility.yul\":25265:25267   */\n      0x20\n        /* \"#utility.yul\":25257:25263   */\n      dup3\n        /* \"#utility.yul\":25253:25268   */\n      add\n        /* \"#utility.yul\":25246:25275   */\n      mstore\n        /* \"#utility.yul\":25061:25282   */\n      pop\n      jump\t// out\n        /* \"#utility.yul\":25288:25469   */\n    tag_480:\n        /* \"#utility.yul\":25428:25461   */\n      0x796f752063616e74207769746864726177206265666f72652031207965617200\n        /* \"#utility.yul\":25424:25425   */\n      0x00\n        /* \"#utility.yul\":25416:25422   */\n      dup3\n        /* \"#utility.yul\":25412:25426   */\n      add\n        /* \"#utility.yul\":25405:25462   */\n      mstore\n        /* \"#utility.yul\":25288:25469   */\n      pop\n      jump\t// out\n        /* \"#utility.yul\":25475:25695   */\n    tag_485:\n        /* \"#utility.yul\":25615:25649   */\n      0x6f6e6c79204f776e65722063616e2063616c6c20746869732066756e6374696f\n        /* \"#utility.yul\":25611:25612   */\n      0x00\n        /* \"#utility.yul\":25603:25609   */\n      dup3\n        /* \"#utility.yul\":25599:25613   */\n      add\n        /* \"#utility.yul\":25592:25650   */\n      mstore\n        /* \"#utility.yul\":25684:25687   */\n      0x6e00000000000000000000000000000000000000000000000000000000000000\n        /* \"#utility.yul\":25679:25681   */\n      0x20\n        /* \"#utility.yul\":25671:25677   */\n      dup3\n        /* \"#utility.yul\":25667:25682   */\n      add\n        /* \"#utility.yul\":25660:25688   */\n      mstore\n        /* \"#utility.yul\":25475:25695   */\n      pop\n      jump\t// out\n        /* \"#utility.yul\":25701:25823   */\n    tag_336:\n        /* \"#utility.yul\":25774:25798   */\n      tag_609\n        /* \"#utility.yul\":25792:25797   */\n      dup2\n        /* \"#utility.yul\":25774:25798   */\n      tag_393\n      jump\t// in\n    tag_609:\n        /* \"#utility.yul\":25767:25772   */\n      dup2\n        /* \"#utility.yul\":25764:25799   */\n      eq\n        /* \"#utility.yul\":25754:25817   */\n      tag_610\n      jumpi\n        /* \"#utility.yul\":25813:25814   */\n      0x00\n        /* \"#utility.yul\":25810:25811   */\n      dup1\n        /* \"#utility.yul\":25803:25815   */\n      revert\n        /* \"#utility.yul\":25754:25817   */\n    tag_610:\n        /* \"#utility.yul\":25701:25823   */\n      pop\n      jump\t// out\n        /* \"#utility.yul\":25829:25945   */\n    tag_340:\n        /* \"#utility.yul\":25899:25920   */\n      tag_612\n        /* \"#utility.yul\":25914:25919   */\n      dup2\n        /* \"#utility.yul\":25899:25920   */\n      tag_456\n      jump\t// in\n    tag_612:\n        /* \"#utility.yul\":25892:25897   */\n      dup2\n        /* \"#utility.yul\":25889:25921   */\n      eq\n        /* \"#utility.yul\":25879:25939   */\n      tag_613\n      jumpi\n        /* \"#utility.yul\":25935:25936   */\n      0x00\n        /* \"#utility.yul\":25932:25933   */\n      dup1\n        /* \"#utility.yul\":25925:25937   */\n      revert\n        /* \"#utility.yul\":25879:25939   */\n    tag_613:\n        /* \"#utility.yul\":25829:25945   */\n      pop\n      jump\t// out\n        /* \"#utility.yul\":25951:26073   */\n    tag_344:\n        /* \"#utility.yul\":26024:26048   */\n      tag_615\n        /* \"#utility.yul\":26042:26047   */\n      dup2\n        /* \"#utility.yul\":26024:26048   */\n      tag_502\n      jump\t// in\n    tag_615:\n        /* \"#utility.yul\":26017:26022   */\n      dup2\n        /* \"#utility.yul\":26014:26049   */\n      eq\n        /* \"#utility.yul\":26004:26067   */\n      tag_616\n      jumpi\n        /* \"#utility.yul\":26063:26064   */\n      0x00\n        /* \"#utility.yul\":26060:26061   */\n      dup1\n        /* \"#utility.yul\":26053:26065   */\n      revert\n        /* \"#utility.yul\":26004:26067   */\n    tag_616:\n        /* \"#utility.yul\":25951:26073   */\n      pop\n      jump\t// out\n\n    auxdata: 0xa26469706673582212200447f650cfaa062143a1f637beeaf1635c01fea4bedd07d6a7a66a4746542ab064736f6c63430008070033\n}\n",
				"bytecode": {
					"linkReferences": {},
					"object": "6080604052739462a065c980693808405eb4f2851f0ffa1d3016600160006101000a81548173ffffffffffffffffffffffffffffffffffffffff021916908373ffffffffffffffffffffffffffffffffffffffff16021790555073c8bba86a801cd87ca72222d5a43639592fbaa6ec600260006101000a81548173ffffffffffffffffffffffffffffffffffffffff021916908373ffffffffffffffffffffffffffffffffffffffff160217905550674563918244f40000600455612710600555624c4b40600655620186a06007556301e133806008553480156100e257600080fd5b50336000806101000a81548173ffffffffffffffffffffffffffffffffffffffff021916908373ffffffffffffffffffffffffffffffffffffffff160217905550613321806101326000396000f3fe608060405234801561001057600080fd5b50600436106101a95760003560e01c806373cf575a116100f9578063c885bc5811610097578063f2fde38b11610071578063f2fde38b14610494578063f790b81a146104b0578063f7c618c1146104ce578063fae730bc146104ec576101a9565b8063c885bc5814610422578063d3560ee814610440578063e2033fcb14610476576101a9565b80639740a1bc116100d35780639740a1bc146103ac578063a47bd496146103ca578063a61be99d146103e6578063bc67eaff14610404576101a9565b806373cf575a146103525780638da5cb5b14610370578063929f6bbe1461038e576101a9565b80633d18b91211610166578063500cb85f11610140578063500cb85f146102ca578063502c6bfa146102e6578063523cddfe146103165780635a4a019214610334576101a9565b80633d18b9121461027257806342508f66146102905780634eb1ecc9146102ae576101a9565b80630c5f58f4146101ae57806310cde60a146101cc5780631e8aba35146101ea5780632bccdce61461020857806332d4e783146102385780633a1e083314610254575b600080fd5b6101b661050a565b6040516101c39190612c87565b60405180910390f35b6101d46105d8565b6040516101e19190612dca565b60405180910390f35b6101f26105de565b6040516101ff9190612dca565b60405180910390f35b610222600480360381019061021d91906126df565b61062b565b60405161022f9190612d0f565b60405180910390f35b610252600480360381019061024d91906126b2565b610c06565b005b61025c610c10565b6040516102699190612ccb565b60405180910390f35b61027a610ea1565b6040516102879190612dca565b60405180910390f35b610298611197565b6040516102a59190612ca9565b60405180910390f35b6102c860048036038101906102c3919061275f565b611529565b005b6102e460048036038101906102df91906126b2565b61154b565b005b61030060048036038101906102fb91906126b2565b611555565b60405161030d9190612b9d565b60405180910390f35b61031e611588565b60405161032b9190612dca565b60405180910390f35b61033c61158e565b6040516103499190612dca565b60405180910390f35b61035a6115dd565b6040516103679190612d0f565b60405180910390f35b6103786119c5565b6040516103859190612b9d565b60405180910390f35b6103966119e9565b6040516103a39190612dca565b60405180910390f35b6103b4611a33565b6040516103c19190612dca565b60405180910390f35b6103e460048036038101906103df919061271f565b611a39565b005b6103ee611a4b565b6040516103fb9190612ced565b60405180910390f35b61040c611bbe565b6040516104199190612dca565b60405180910390f35b61042a611bc4565b6040516104379190612d0f565b60405180910390f35b61045a60048036038101906104559190612658565b611f89565b60405161046d9796959493929190612c18565b60405180910390f35b61047e611ff8565b60405161048b9190612dca565b60405180910390f35b6104ae60048036038101906104a99190612658565b611ffe565b005b6104b86120cf565b6040516104c59190612ced565b60405180910390f35b6104d6612242565b6040516104e39190612dca565b60405180910390f35b6104f4612248565b6040516105019190612dca565b60405180910390f35b6060600c60003373ffffffffffffffffffffffffffffffffffffffff1673ffffffffffffffffffffffffffffffffffffffff1681526020019081526020016000206001018054806020026020016040519081016040528092919081815260200182805480156105ce57602002820191906000526020600020905b8160009054906101000a900473ffffffffffffffffffffffffffffffffffffffff1673ffffffffffffffffffffffffffffffffffffffff1681526020019060010190808311610584575b5050505050905090565b60035481565b6000600c60003373ffffffffffffffffffffffffffffffffffffffff1673ffffffffffffffffffffffffffffffffffffffff16815260200190815260200160002060010180549050905090565b6000600554831015801561064157506006548311155b610680576040517f08c379a000000000000000000000000000000000000000000000000000000000815260040161067790612d4a565b60405180910390fd5b60001515600c60003373ffffffffffffffffffffffffffffffffffffffff1673ffffffffffffffffffffffffffffffffffffffff16815260200190815260200160002060080160009054906101000a900460ff161515141561074d5733600b6000600354815260200190815260200160002060006101000a81548173ffffffffffffffffffffffffffffffffffffffff021916908373ffffffffffffffffffffffffffffffffffffffff1602179055506003600081548092919061074390613037565b91905055506107b3565b600c60003373ffffffffffffffffffffffffffffffffffffffff1673ffffffffffffffffffffffffffffffffffffffff16815260200190815260200160002060020160009054906101000a900473ffffffffffffffffffffffffffffffffffffffff1691505b6000600c60003373ffffffffffffffffffffffffffffffffffffffff1673ffffffffffffffffffffffffffffffffffffffff168152602001908152602001600020600601541415610855576301e133804261080e9190612eda565b600c60003373ffffffffffffffffffffffffffffffffffffffff1673ffffffffffffffffffffffffffffffffffffffff168152602001908152602001600020600901819055505b6000600c60003373ffffffffffffffffffffffffffffffffffffffff1673ffffffffffffffffffffffffffffffffffffffff16815260200190815260200160002060050154905083600c60003373ffffffffffffffffffffffffffffffffffffffff1673ffffffffffffffffffffffffffffffffffffffff16815260200190815260200160002060000160008381526020019081526020016000206000018190555042600c60003373ffffffffffffffffffffffffffffffffffffffff1673ffffffffffffffffffffffffffffffffffffffff168152602001908152602001600020600001600083815260200190815260200160002060020181905550600854426109609190612eda565b600c60003373ffffffffffffffffffffffffffffffffffffffff1673ffffffffffffffffffffffffffffffffffffffff16815260200190815260200160002060000160008381526020019081526020016000206001018190555080600c60003373ffffffffffffffffffffffffffffffffffffffff1673ffffffffffffffffffffffffffffffffffffffff16815260200190815260200160002060000160008381526020019081526020016000206003018190555083600c60003373ffffffffffffffffffffffffffffffffffffffff1673ffffffffffffffffffffffffffffffffffffffff1681526020019081526020016000206006016000828254610a679190612eda565b92505081905550600c60003373ffffffffffffffffffffffffffffffffffffffff1673ffffffffffffffffffffffffffffffffffffffff1681526020019081526020016000206005016000815480929190610ac190613037565b91905055508360096000828254610ad89190612eda565b92505081905550600160009054906101000a900473ffffffffffffffffffffffffffffffffffffffff1673ffffffffffffffffffffffffffffffffffffffff166323b872dd33306305f5e10088610b2f9190612f61565b6040518463ffffffff1660e01b8152600401610b4d93929190612bb8565b602060405180830381600087803b158015610b6757600080fd5b505af1158015610b7b573d6000803e3d6000fd5b505050506040513d601f19601f82011682018060405250810190610b9f9190612685565b506001600c60003373ffffffffffffffffffffffffffffffffffffffff1673ffffffffffffffffffffffffffffffffffffffff16815260200190815260200160002060080160006101000a81548160ff021916908315150217905550600191505092915050565b8060058190555050565b60606000600c60003373ffffffffffffffffffffffffffffffffffffffff1673ffffffffffffffffffffffffffffffffffffffff16815260200190815260200160002060050154905060008060005b83811015610ce8576000600c60003373ffffffffffffffffffffffffffffffffffffffff1673ffffffffffffffffffffffffffffffffffffffff1681526020019081526020016000206000016000838152602001908152602001600020600001541115610cd5578280610cd190613037565b9350505b8080610ce090613037565b915050610c5f565b5060008267ffffffffffffffff811115610d0557610d0461310d565b5b604051908082528060200260200182016040528015610d3e57816020015b610d2b612595565b815260200190600190039081610d235790505b50905060005b84811015610e96576000600c60003373ffffffffffffffffffffffffffffffffffffffff1673ffffffffffffffffffffffffffffffffffffffff1681526020019081526020016000206000016000838152602001908152602001600020600001541115610e8357600c60003373ffffffffffffffffffffffffffffffffffffffff1673ffffffffffffffffffffffffffffffffffffffff16815260200190815260200160002060000160008281526020019081526020016000206040518060c001604052908160008201548152602001600182015481526020016002820154815260200160038201548152602001600482015481526020016005820160009054906101000a900460ff161515151581525050828481518110610e6957610e686130de565b5b60200260200101819052508280610e7f90613037565b9350505b8080610e8e90613037565b915050610d44565b508094505050505090565b6000806000806000600c60003373ffffffffffffffffffffffffffffffffffffffff1673ffffffffffffffffffffffffffffffffffffffff16815260200190815260200160002060050154905060005b8181101561113c57600c60003373ffffffffffffffffffffffffffffffffffffffff1673ffffffffffffffffffffffffffffffffffffffff168152602001908152602001600020600001600082815260200190815260200160002060050160009054906101000a900460ff16610fca57600c60003373ffffffffffffffffffffffffffffffffffffffff1673ffffffffffffffffffffffffffffffffffffffff16815260200190815260200160002060000160008281526020019081526020016000206002015442610fc39190612fbb565b9350611085565b600c60003373ffffffffffffffffffffffffffffffffffffffff1673ffffffffffffffffffffffffffffffffffffffff168152602001908152602001600020600001600082815260200190815260200160002060020154600c60003373ffffffffffffffffffffffffffffffffffffffff1673ffffffffffffffffffffffffffffffffffffffff1681526020019081526020016000206000016000838152602001908152602001600020600401546110829190612fbb565b93505b603c846110929190612f30565b93506000841115611129576127106032600c60003373ffffffffffffffffffffffffffffffffffffffff1673ffffffffffffffffffffffffffffffffffffffff1681526020019081526020016000206000016000848152602001908152602001600020600001546111039190612f61565b61110d9190612f30565b9250828461111b9190612f61565b856111269190612eda565b94505b808061113490613037565b915050610ef1565b50600c60003373ffffffffffffffffffffffffffffffffffffffff1673ffffffffffffffffffffffffffffffffffffffff168152602001908152602001600020600701548461118b9190612fbb565b93508394505050505090565b6060600060035467ffffffffffffffff8111156111b7576111b661310d565b5b6040519080825280602002602001820160405280156111f057816020015b6111dd6125cd565b8152602001906001900390816111d55790505b50905060005b60035481101561152157600b600082815260200190815260200160002060009054906101000a900473ffffffffffffffffffffffffffffffffffffffff16828281518110611247576112466130de565b5b60200260200101516000019073ffffffffffffffffffffffffffffffffffffffff16908173ffffffffffffffffffffffffffffffffffffffff1681525050600c6000600b600084815260200190815260200160002060009054906101000a900473ffffffffffffffffffffffffffffffffffffffff1673ffffffffffffffffffffffffffffffffffffffff1673ffffffffffffffffffffffffffffffffffffffff1681526020019081526020016000206006015482828151811061130e5761130d6130de565b5b6020026020010151602001818152505061135a600b600083815260200190815260200160002060009054906101000a900473ffffffffffffffffffffffffffffffffffffffff1661224e565b82828151811061136d5761136c6130de565b5b60200260200101516040018181525050600c6000600b600084815260200190815260200160002060009054906101000a900473ffffffffffffffffffffffffffffffffffffffff1673ffffffffffffffffffffffffffffffffffffffff1673ffffffffffffffffffffffffffffffffffffffff16815260200190815260200160002060050154828281518110611406576114056130de565b5b60200260200101516060018181525050600c6000600b600084815260200190815260200160002060009054906101000a900473ffffffffffffffffffffffffffffffffffffffff1673ffffffffffffffffffffffffffffffffffffffff1673ffffffffffffffffffffffffffffffffffffffff1681526020019081526020016000206007015482828151811061149f5761149e6130de565b5b602002602001015160800181815250506114eb600b600083815260200190815260200160002060009054906101000a900473ffffffffffffffffffffffffffffffffffffffff16612546565b8282815181106114fe576114fd6130de565b5b602002602001015160a0018181525050808061151990613037565b9150506111f6565b508091505090565b8260068190555083600581905550816004819055508060078190555050505050565b8060068190555050565b600b6020528060005260406000206000915054906101000a900473ffffffffffffffffffffffffffffffffffffffff1681565b60085481565b600080600c60003373ffffffffffffffffffffffffffffffffffffffff1673ffffffffffffffffffffffffffffffffffffffff1681526020019081526020016000206007015490508091505090565b600080600c60003373ffffffffffffffffffffffffffffffffffffffff1673ffffffffffffffffffffffffffffffffffffffff1681526020019081526020016000206006015411611663576040517f08c379a000000000000000000000000000000000000000000000000000000000815260040161165a90612d2a565b60405180910390fd5b42600c60003373ffffffffffffffffffffffffffffffffffffffff1673ffffffffffffffffffffffffffffffffffffffff16815260200190815260200160002060090154106116e7576040517f08c379a00000000000000000000000000000000000000000000000000000000081526004016116de90612d8a565b60405180910390fd5b6000600c60003373ffffffffffffffffffffffffffffffffffffffff1673ffffffffffffffffffffffffffffffffffffffff1681526020019081526020016000206006015490506000600c60003373ffffffffffffffffffffffffffffffffffffffff1673ffffffffffffffffffffffffffffffffffffffff1681526020019081526020016000206005015490506000600a549050600080600160009054906101000a900473ffffffffffffffffffffffffffffffffffffffff1673ffffffffffffffffffffffffffffffffffffffff1663a9059cbb336305f5e100886117ce9190612f61565b6040518363ffffffff1660e01b81526004016117eb929190612bef565b602060405180830381600087803b15801561180557600080fd5b505af1158015611819573d6000803e3d6000fd5b505050506040513d601f19601f8201168201806040525081019061183d9190612685565b50600092505b83831015611928576001600c60003373ffffffffffffffffffffffffffffffffffffffff1673ffffffffffffffffffffffffffffffffffffffff168152602001908152602001600020600001600085815260200190815260200160002060050160006101000a81548160ff02191690831515021790555042600c60003373ffffffffffffffffffffffffffffffffffffffff1673ffffffffffffffffffffffffffffffffffffffff168152602001908152602001600020600001600085815260200190815260200160002060040181905550828061192090613037565b935050611843565b600c60003373ffffffffffffffffffffffffffffffffffffffff1673ffffffffffffffffffffffffffffffffffffffff16815260200190815260200160002060050154600a819055506000600c60003373ffffffffffffffffffffffffffffffffffffffff1673ffffffffffffffffffffffffffffffffffffffff1681526020019081526020016000206006018190555060019550505050505090565b60008054906101000a900473ffffffffffffffffffffffffffffffffffffffff1681565b6000600c60003373ffffffffffffffffffffffffffffffffffffffff1673ffffffffffffffffffffffffffffffffffffffff16815260200190815260200160002060060154905090565b60075481565b81600481905550806007819055505050565b60606000601467ffffffffffffffff811115611a6a57611a6961310d565b5b604051908082528060200260200182016040528015611a985781602001602082028036833780820191505090505b50905060005b6014811015611bb6576000600c60003373ffffffffffffffffffffffffffffffffffffffff1673ffffffffffffffffffffffffffffffffffffffff1681526020019081526020016000206003016000838152602001908152602001600020600001541115611b8157600c60003373ffffffffffffffffffffffffffffffffffffffff1673ffffffffffffffffffffffffffffffffffffffff168152602001908152602001600020600301600082815260200190815260200160002060000154828281518110611b7057611b6f6130de565b5b602002602001018181525050611ba3565b6000828281518110611b9657611b956130de565b5b6020026020010181815250505b8080611bae90613037565b915050611a9e565b508091505090565b60055481565b600080611bcf610ea1565b905060008111611c14576040517f08c379a0000000000000000000000000000000000000000000000000000000008152600401611c0b90612d6a565b60405180910390fd5b60006064601583611c259190612f61565b611c2f9190612f30565b90506000600c60003373ffffffffffffffffffffffffffffffffffffffff1673ffffffffffffffffffffffffffffffffffffffff16815260200190815260200160002060020160009054906101000a900473ffffffffffffffffffffffffffffffffffffffff169050600073ffffffffffffffffffffffffffffffffffffffff168173ffffffffffffffffffffffffffffffffffffffff1614611e6257600260009054906101000a900473ffffffffffffffffffffffffffffffffffffffff1673ffffffffffffffffffffffffffffffffffffffff1663a9059cbb82670de0b6b3a764000085611d1f9190612f61565b6040518363ffffffff1660e01b8152600401611d3c929190612bef565b602060405180830381600087803b158015611d5657600080fd5b505af1158015611d6a573d6000803e3d6000fd5b505050506040513d601f19601f82011682018060405250810190611d8e9190612685565b50600260009054906101000a900473ffffffffffffffffffffffffffffffffffffffff1673ffffffffffffffffffffffffffffffffffffffff1663a9059cbb33670de0b6b3a76400008587611de39190612fbb565b611ded9190612f61565b6040518363ffffffff1660e01b8152600401611e0a929190612bef565b602060405180830381600087803b158015611e2457600080fd5b505af1158015611e38573d6000803e3d6000fd5b505050506040513d601f19601f82011682018060405250810190611e5c9190612685565b50611f26565b600260009054906101000a900473ffffffffffffffffffffffffffffffffffffffff1673ffffffffffffffffffffffffffffffffffffffff1663a9059cbb33670de0b6b3a764000086611eb59190612f61565b6040518363ffffffff1660e01b8152600401611ed2929190612bef565b602060405180830381600087803b158015611eec57600080fd5b505af1158015611f00573d6000803e3d6000fd5b505050506040513d601f19601f82011682018060405250810190611f249190612685565b505b82600c60003373ffffffffffffffffffffffffffffffffffffffff1673ffffffffffffffffffffffffffffffffffffffff1681526020019081526020016000206007016000828254611f789190612eda565b925050819055506001935050505090565b600c6020528060005260406000206000915090508060020160009054906101000a900473ffffffffffffffffffffffffffffffffffffffff16908060040154908060050154908060060154908060070154908060080160009054906101000a900460ff16908060090154905087565b60095481565b60008054906101000a900473ffffffffffffffffffffffffffffffffffffffff1673ffffffffffffffffffffffffffffffffffffffff163373ffffffffffffffffffffffffffffffffffffffff161461208c576040517f08c379a000000000000000000000000000000000000000000000000000000000815260040161208390612daa565b60405180910390fd5b806000806101000a81548173ffffffffffffffffffffffffffffffffffffffff021916908373ffffffffffffffffffffffffffffffffffffffff16021790555050565b60606000601467ffffffffffffffff8111156120ee576120ed61310d565b5b60405190808252806020026020018201604052801561211c5781602001602082028036833780820191505090505b50905060005b601481101561223a576000600c60003373ffffffffffffffffffffffffffffffffffffffff1673ffffffffffffffffffffffffffffffffffffffff168152602001908152602001600020600301600083815260200190815260200160002060000154111561220557600c60003373ffffffffffffffffffffffffffffffffffffffff1673ffffffffffffffffffffffffffffffffffffffff1681526020019081526020016000206003016000828152602001908152602001600020600101548282815181106121f4576121f36130de565b5b602002602001018181525050612227565b600082828151811061221a576122196130de565b5b6020026020010181815250505b808061223290613037565b915050612122565b508091505090565b60045481565b60065481565b6000806000806000600c60008773ffffffffffffffffffffffffffffffffffffffff1673ffffffffffffffffffffffffffffffffffffffff16815260200190815260200160002060050154905060005b818110156124e957600c60008873ffffffffffffffffffffffffffffffffffffffff1673ffffffffffffffffffffffffffffffffffffffff168152602001908152602001600020600001600082815260200190815260200160002060050160009054906101000a900460ff1661237757600c60008873ffffffffffffffffffffffffffffffffffffffff1673ffffffffffffffffffffffffffffffffffffffff168152602001908152602001600020600001600082815260200190815260200160002060020154426123709190612fbb565b9350612432565b600c60008873ffffffffffffffffffffffffffffffffffffffff1673ffffffffffffffffffffffffffffffffffffffff168152602001908152602001600020600001600082815260200190815260200160002060020154600c60008973ffffffffffffffffffffffffffffffffffffffff1673ffffffffffffffffffffffffffffffffffffffff16815260200190815260200160002060000160008381526020019081526020016000206004015461242f9190612fbb565b93505b603c8461243f9190612f30565b935060008411156124d6576127106032600c60008a73ffffffffffffffffffffffffffffffffffffffff1673ffffffffffffffffffffffffffffffffffffffff1681526020019081526020016000206000016000848152602001908152602001600020600001546124b09190612f61565b6124ba9190612f30565b925082846124c89190612f61565b856124d39190612eda565b94505b80806124e190613037565b91505061229e565b50600c60008773ffffffffffffffffffffffffffffffffffffffff1673ffffffffffffffffffffffffffffffffffffffff16815260200190815260200160002060070154846125389190612fbb565b935083945050505050919050565b6000600c60008373ffffffffffffffffffffffffffffffffffffffff1673ffffffffffffffffffffffffffffffffffffffff168152602001908152602001600020600101805490509050919050565b6040518060c0016040528060008152602001600081526020016000815260200160008152602001600081526020016000151581525090565b6040518060c00160405280600073ffffffffffffffffffffffffffffffffffffffff16815260200160008152602001600081526020016000815260200160008152602001600081525090565b600081359050612628816132a6565b92915050565b60008151905061263d816132bd565b92915050565b600081359050612652816132d4565b92915050565b60006020828403121561266e5761266d61313c565b5b600061267c84828501612619565b91505092915050565b60006020828403121561269b5761269a61313c565b5b60006126a98482850161262e565b91505092915050565b6000602082840312156126c8576126c761313c565b5b60006126d684828501612643565b91505092915050565b600080604083850312156126f6576126f561313c565b5b600061270485828601612643565b925050602061271585828601612619565b9150509250929050565b600080604083850312156127365761273561313c565b5b600061274485828601612643565b925050602061275585828601612643565b9150509250929050565b600080600080608085870312156127795761277861313c565b5b600061278787828801612643565b945050602061279887828801612643565b93505060406127a987828801612643565b92505060606127ba87828801612643565b91505092959194509250565b60006127d28383612826565b60208301905092915050565b60006127ea8383612a89565b60c08301905092915050565b60006128028383612b04565b60c08301905092915050565b600061281a8383612b7f565b60208301905092915050565b61282f81612fef565b82525050565b61283e81612fef565b82525050565b600061284f82612e25565b6128598185612e85565b935061286483612de5565b8060005b8381101561289557815161287c88826127c6565b975061288783612e51565b925050600181019050612868565b5085935050505092915050565b60006128ad82612e30565b6128b78185612e96565b93506128c283612df5565b8060005b838110156128f35781516128da88826127de565b97506128e583612e5e565b9250506001810190506128c6565b5085935050505092915050565b600061290b82612e3b565b6129158185612ea7565b935061292083612e05565b8060005b8381101561295157815161293888826127f6565b975061294383612e6b565b925050600181019050612924565b5085935050505092915050565b600061296982612e46565b6129738185612eb8565b935061297e83612e15565b8060005b838110156129af578151612996888261280e565b97506129a183612e78565b925050600181019050612982565b5085935050505092915050565b6129c581613001565b82525050565b6129d481613001565b82525050565b60006129e7602583612ec9565b91506129f282613141565b604082019050919050565b6000612a0a603583612ec9565b9150612a1582613190565b604082019050919050565b6000612a2d602283612ec9565b9150612a38826131df565b604082019050919050565b6000612a50601f83612ec9565b9150612a5b8261322e565b602082019050919050565b6000612a73602183612ec9565b9150612a7e82613257565b604082019050919050565b60c082016000820151612a9f6000850182612826565b506020820151612ab26020850182612b7f565b506040820151612ac56040850182612b7f565b506060820151612ad86060850182612b7f565b506080820151612aeb6080850182612b7f565b5060a0820151612afe60a0850182612b7f565b50505050565b60c082016000820151612b1a6000850182612b7f565b506020820151612b2d6020850182612b7f565b506040820151612b406040850182612b7f565b506060820151612b536060850182612b7f565b506080820151612b666080850182612b7f565b5060a0820151612b7960a08501826129bc565b50505050565b612b888161302d565b82525050565b612b978161302d565b82525050565b6000602082019050612bb26000830184612835565b92915050565b6000606082019050612bcd6000830186612835565b612bda6020830185612835565b612be76040830184612b8e565b949350505050565b6000604082019050612c046000830185612835565b612c116020830184612b8e565b9392505050565b600060e082019050612c2d600083018a612835565b612c3a6020830189612b8e565b612c476040830188612b8e565b612c546060830187612b8e565b612c616080830186612b8e565b612c6e60a08301856129cb565b612c7b60c0830184612b8e565b98975050505050505050565b60006020820190508181036000830152612ca18184612844565b905092915050565b60006020820190508181036000830152612cc381846128a2565b905092915050565b60006020820190508181036000830152612ce58184612900565b905092915050565b60006020820190508181036000830152612d07818461295e565b905092915050565b6000602082019050612d2460008301846129cb565b92915050565b60006020820190508181036000830152612d43816129da565b9050919050565b60006020820190508181036000830152612d63816129fd565b9050919050565b60006020820190508181036000830152612d8381612a20565b9050919050565b60006020820190508181036000830152612da381612a43565b9050919050565b60006020820190508181036000830152612dc381612a66565b9050919050565b6000602082019050612ddf6000830184612b8e565b92915050565b6000819050602082019050919050565b6000819050602082019050919050565b6000819050602082019050919050565b6000819050602082019050919050565b600081519050919050565b600081519050919050565b600081519050919050565b600081519050919050565b6000602082019050919050565b6000602082019050919050565b6000602082019050919050565b6000602082019050919050565b600082825260208201905092915050565b600082825260208201905092915050565b600082825260208201905092915050565b600082825260208201905092915050565b600082825260208201905092915050565b6000612ee58261302d565b9150612ef08361302d565b9250827fffffffffffffffffffffffffffffffffffffffffffffffffffffffffffffffff03821115612f2557612f24613080565b5b828201905092915050565b6000612f3b8261302d565b9150612f468361302d565b925082612f5657612f556130af565b5b828204905092915050565b6000612f6c8261302d565b9150612f778361302d565b9250817fffffffffffffffffffffffffffffffffffffffffffffffffffffffffffffffff0483118215151615612fb057612faf613080565b5b828202905092915050565b6000612fc68261302d565b9150612fd18361302d565b925082821015612fe457612fe3613080565b5b828203905092915050565b6000612ffa8261300d565b9050919050565b60008115159050919050565b600073ffffffffffffffffffffffffffffffffffffffff82169050919050565b6000819050919050565b60006130428261302d565b91507fffffffffffffffffffffffffffffffffffffffffffffffffffffffffffffffff82141561307557613074613080565b5b600182019050919050565b7f4e487b7100000000000000000000000000000000000000000000000000000000600052601160045260246000fd5b7f4e487b7100000000000000000000000000000000000000000000000000000000600052601260045260246000fd5b7f4e487b7100000000000000000000000000000000000000000000000000000000600052603260045260246000fd5b7f4e487b7100000000000000000000000000000000000000000000000000000000600052604160045260246000fd5b600080fd5b7f796f7520646f6e74206861766520696e766573746d656e7420746f207769746860008201527f647261776e000000000000000000000000000000000000000000000000000000602082015250565b7f76616c7565206973206e6f742067726561746572207468616e2031303030302060008201527f616e64206c657373207468616e20353030303030300000000000000000000000602082015250565b7f796f7520646f6e742068617665207265776172647320746f207769746864726160008201527f776e000000000000000000000000000000000000000000000000000000000000602082015250565b7f796f752063616e74207769746864726177206265666f72652031207965617200600082015250565b7f6f6e6c79204f776e65722063616e2063616c6c20746869732066756e6374696f60008201527f6e00000000000000000000000000000000000000000000000000000000000000602082015250565b6132af81612fef565b81146132ba57600080fd5b50565b6132c681613001565b81146132d157600080fd5b50565b6132dd8161302d565b81146132e857600080fd5b5056fea26469706673582212200447f650cfaa062143a1f637beeaf1635c01fea4bedd07d6a7a66a4746542ab064736f6c63430008070033",
					"opcodes": "PUSH1 0x80 PUSH1 0x40 MSTORE PUSH20 0x9462A065C980693808405EB4F2851F0FFA1D3016 PUSH1 0x1 PUSH1 0x0 PUSH2 0x100 EXP DUP2 SLOAD DUP2 PUSH20 0xFFFFFFFFFFFFFFFFFFFFFFFFFFFFFFFFFFFFFFFF MUL NOT AND SWAP1 DUP4 PUSH20 0xFFFFFFFFFFFFFFFFFFFFFFFFFFFFFFFFFFFFFFFF AND MUL OR SWAP1 SSTORE POP PUSH20 0xC8BBA86A801CD87CA72222D5A43639592FBAA6EC PUSH1 0x2 PUSH1 0x0 PUSH2 0x100 EXP DUP2 SLOAD DUP2 PUSH20 0xFFFFFFFFFFFFFFFFFFFFFFFFFFFFFFFFFFFFFFFF MUL NOT AND SWAP1 DUP4 PUSH20 0xFFFFFFFFFFFFFFFFFFFFFFFFFFFFFFFFFFFFFFFF AND MUL OR SWAP1 SSTORE POP PUSH8 0x4563918244F40000 PUSH1 0x4 SSTORE PUSH2 0x2710 PUSH1 0x5 SSTORE PUSH3 0x4C4B40 PUSH1 0x6 SSTORE PUSH3 0x186A0 PUSH1 0x7 SSTORE PUSH4 0x1E13380 PUSH1 0x8 SSTORE CALLVALUE DUP1 ISZERO PUSH2 0xE2 JUMPI PUSH1 0x0 DUP1 REVERT JUMPDEST POP CALLER PUSH1 0x0 DUP1 PUSH2 0x100 EXP DUP2 SLOAD DUP2 PUSH20 0xFFFFFFFFFFFFFFFFFFFFFFFFFFFFFFFFFFFFFFFF MUL NOT AND SWAP1 DUP4 PUSH20 0xFFFFFFFFFFFFFFFFFFFFFFFFFFFFFFFFFFFFFFFF AND MUL OR SWAP1 SSTORE POP PUSH2 0x3321 DUP1 PUSH2 0x132 PUSH1 0x0 CODECOPY PUSH1 0x0 RETURN INVALID PUSH1 0x80 PUSH1 0x40 MSTORE CALLVALUE DUP1 ISZERO PUSH2 0x10 JUMPI PUSH1 0x0 DUP1 REVERT JUMPDEST POP PUSH1 0x4 CALLDATASIZE LT PUSH2 0x1A9 JUMPI PUSH1 0x0 CALLDATALOAD PUSH1 0xE0 SHR DUP1 PUSH4 0x73CF575A GT PUSH2 0xF9 JUMPI DUP1 PUSH4 0xC885BC58 GT PUSH2 0x97 JUMPI DUP1 PUSH4 0xF2FDE38B GT PUSH2 0x71 JUMPI DUP1 PUSH4 0xF2FDE38B EQ PUSH2 0x494 JUMPI DUP1 PUSH4 0xF790B81A EQ PUSH2 0x4B0 JUMPI DUP1 PUSH4 0xF7C618C1 EQ PUSH2 0x4CE JUMPI DUP1 PUSH4 0xFAE730BC EQ PUSH2 0x4EC JUMPI PUSH2 0x1A9 JUMP JUMPDEST DUP1 PUSH4 0xC885BC58 EQ PUSH2 0x422 JUMPI DUP1 PUSH4 0xD3560EE8 EQ PUSH2 0x440 JUMPI DUP1 PUSH4 0xE2033FCB EQ PUSH2 0x476 JUMPI PUSH2 0x1A9 JUMP JUMPDEST DUP1 PUSH4 0x9740A1BC GT PUSH2 0xD3 JUMPI DUP1 PUSH4 0x9740A1BC EQ PUSH2 0x3AC JUMPI DUP1 PUSH4 0xA47BD496 EQ PUSH2 0x3CA JUMPI DUP1 PUSH4 0xA61BE99D EQ PUSH2 0x3E6 JUMPI DUP1 PUSH4 0xBC67EAFF EQ PUSH2 0x404 JUMPI PUSH2 0x1A9 JUMP JUMPDEST DUP1 PUSH4 0x73CF575A EQ PUSH2 0x352 JUMPI DUP1 PUSH4 0x8DA5CB5B EQ PUSH2 0x370 JUMPI DUP1 PUSH4 0x929F6BBE EQ PUSH2 0x38E JUMPI PUSH2 0x1A9 JUMP JUMPDEST DUP1 PUSH4 0x3D18B912 GT PUSH2 0x166 JUMPI DUP1 PUSH4 0x500CB85F GT PUSH2 0x140 JUMPI DUP1 PUSH4 0x500CB85F EQ PUSH2 0x2CA JUMPI DUP1 PUSH4 0x502C6BFA EQ PUSH2 0x2E6 JUMPI DUP1 PUSH4 0x523CDDFE EQ PUSH2 0x316 JUMPI DUP1 PUSH4 0x5A4A0192 EQ PUSH2 0x334 JUMPI PUSH2 0x1A9 JUMP JUMPDEST DUP1 PUSH4 0x3D18B912 EQ PUSH2 0x272 JUMPI DUP1 PUSH4 0x42508F66 EQ PUSH2 0x290 JUMPI DUP1 PUSH4 0x4EB1ECC9 EQ PUSH2 0x2AE JUMPI PUSH2 0x1A9 JUMP JUMPDEST DUP1 PUSH4 0xC5F58F4 EQ PUSH2 0x1AE JUMPI DUP1 PUSH4 0x10CDE60A EQ PUSH2 0x1CC JUMPI DUP1 PUSH4 0x1E8ABA35 EQ PUSH2 0x1EA JUMPI DUP1 PUSH4 0x2BCCDCE6 EQ PUSH2 0x208 JUMPI DUP1 PUSH4 0x32D4E783 EQ PUSH2 0x238 JUMPI DUP1 PUSH4 0x3A1E0833 EQ PUSH2 0x254 JUMPI JUMPDEST PUSH1 0x0 DUP1 REVERT JUMPDEST PUSH2 0x1B6 PUSH2 0x50A JUMP JUMPDEST PUSH1 0x40 MLOAD PUSH2 0x1C3 SWAP2 SWAP1 PUSH2 0x2C87 JUMP JUMPDEST PUSH1 0x40 MLOAD DUP1 SWAP2 SUB SWAP1 RETURN JUMPDEST PUSH2 0x1D4 PUSH2 0x5D8 JUMP JUMPDEST PUSH1 0x40 MLOAD PUSH2 0x1E1 SWAP2 SWAP1 PUSH2 0x2DCA JUMP JUMPDEST PUSH1 0x40 MLOAD DUP1 SWAP2 SUB SWAP1 RETURN JUMPDEST PUSH2 0x1F2 PUSH2 0x5DE JUMP JUMPDEST PUSH1 0x40 MLOAD PUSH2 0x1FF SWAP2 SWAP1 PUSH2 0x2DCA JUMP JUMPDEST PUSH1 0x40 MLOAD DUP1 SWAP2 SUB SWAP1 RETURN JUMPDEST PUSH2 0x222 PUSH1 0x4 DUP1 CALLDATASIZE SUB DUP2 ADD SWAP1 PUSH2 0x21D SWAP2 SWAP1 PUSH2 0x26DF JUMP JUMPDEST PUSH2 0x62B JUMP JUMPDEST PUSH1 0x40 MLOAD PUSH2 0x22F SWAP2 SWAP1 PUSH2 0x2D0F JUMP JUMPDEST PUSH1 0x40 MLOAD DUP1 SWAP2 SUB SWAP1 RETURN JUMPDEST PUSH2 0x252 PUSH1 0x4 DUP1 CALLDATASIZE SUB DUP2 ADD SWAP1 PUSH2 0x24D SWAP2 SWAP1 PUSH2 0x26B2 JUMP JUMPDEST PUSH2 0xC06 JUMP JUMPDEST STOP JUMPDEST PUSH2 0x25C PUSH2 0xC10 JUMP JUMPDEST PUSH1 0x40 MLOAD PUSH2 0x269 SWAP2 SWAP1 PUSH2 0x2CCB JUMP JUMPDEST PUSH1 0x40 MLOAD DUP1 SWAP2 SUB SWAP1 RETURN JUMPDEST PUSH2 0x27A PUSH2 0xEA1 JUMP JUMPDEST PUSH1 0x40 MLOAD PUSH2 0x287 SWAP2 SWAP1 PUSH2 0x2DCA JUMP JUMPDEST PUSH1 0x40 MLOAD DUP1 SWAP2 SUB SWAP1 RETURN JUMPDEST PUSH2 0x298 PUSH2 0x1197 JUMP JUMPDEST PUSH1 0x40 MLOAD PUSH2 0x2A5 SWAP2 SWAP1 PUSH2 0x2CA9 JUMP JUMPDEST PUSH1 0x40 MLOAD DUP1 SWAP2 SUB SWAP1 RETURN JUMPDEST PUSH2 0x2C8 PUSH1 0x4 DUP1 CALLDATASIZE SUB DUP2 ADD SWAP1 PUSH2 0x2C3 SWAP2 SWAP1 PUSH2 0x275F JUMP JUMPDEST PUSH2 0x1529 JUMP JUMPDEST STOP JUMPDEST PUSH2 0x2E4 PUSH1 0x4 DUP1 CALLDATASIZE SUB DUP2 ADD SWAP1 PUSH2 0x2DF SWAP2 SWAP1 PUSH2 0x26B2 JUMP JUMPDEST PUSH2 0x154B JUMP JUMPDEST STOP JUMPDEST PUSH2 0x300 PUSH1 0x4 DUP1 CALLDATASIZE SUB DUP2 ADD SWAP1 PUSH2 0x2FB SWAP2 SWAP1 PUSH2 0x26B2 JUMP JUMPDEST PUSH2 0x1555 JUMP JUMPDEST PUSH1 0x40 MLOAD PUSH2 0x30D SWAP2 SWAP1 PUSH2 0x2B9D JUMP JUMPDEST PUSH1 0x40 MLOAD DUP1 SWAP2 SUB SWAP1 RETURN JUMPDEST PUSH2 0x31E PUSH2 0x1588 JUMP JUMPDEST PUSH1 0x40 MLOAD PUSH2 0x32B SWAP2 SWAP1 PUSH2 0x2DCA JUMP JUMPDEST PUSH1 0x40 MLOAD DUP1 SWAP2 SUB SWAP1 RETURN JUMPDEST PUSH2 0x33C PUSH2 0x158E JUMP JUMPDEST PUSH1 0x40 MLOAD PUSH2 0x349 SWAP2 SWAP1 PUSH2 0x2DCA JUMP JUMPDEST PUSH1 0x40 MLOAD DUP1 SWAP2 SUB SWAP1 RETURN JUMPDEST PUSH2 0x35A PUSH2 0x15DD JUMP JUMPDEST PUSH1 0x40 MLOAD PUSH2 0x367 SWAP2 SWAP1 PUSH2 0x2D0F JUMP JUMPDEST PUSH1 0x40 MLOAD DUP1 SWAP2 SUB SWAP1 RETURN JUMPDEST PUSH2 0x378 PUSH2 0x19C5 JUMP JUMPDEST PUSH1 0x40 MLOAD PUSH2 0x385 SWAP2 SWAP1 PUSH2 0x2B9D JUMP JUMPDEST PUSH1 0x40 MLOAD DUP1 SWAP2 SUB SWAP1 RETURN JUMPDEST PUSH2 0x396 PUSH2 0x19E9 JUMP JUMPDEST PUSH1 0x40 MLOAD PUSH2 0x3A3 SWAP2 SWAP1 PUSH2 0x2DCA JUMP JUMPDEST PUSH1 0x40 MLOAD DUP1 SWAP2 SUB SWAP1 RETURN JUMPDEST PUSH2 0x3B4 PUSH2 0x1A33 JUMP JUMPDEST PUSH1 0x40 MLOAD PUSH2 0x3C1 SWAP2 SWAP1 PUSH2 0x2DCA JUMP JUMPDEST PUSH1 0x40 MLOAD DUP1 SWAP2 SUB SWAP1 RETURN JUMPDEST PUSH2 0x3E4 PUSH1 0x4 DUP1 CALLDATASIZE SUB DUP2 ADD SWAP1 PUSH2 0x3DF SWAP2 SWAP1 PUSH2 0x271F JUMP JUMPDEST PUSH2 0x1A39 JUMP JUMPDEST STOP JUMPDEST PUSH2 0x3EE PUSH2 0x1A4B JUMP JUMPDEST PUSH1 0x40 MLOAD PUSH2 0x3FB SWAP2 SWAP1 PUSH2 0x2CED JUMP JUMPDEST PUSH1 0x40 MLOAD DUP1 SWAP2 SUB SWAP1 RETURN JUMPDEST PUSH2 0x40C PUSH2 0x1BBE JUMP JUMPDEST PUSH1 0x40 MLOAD PUSH2 0x419 SWAP2 SWAP1 PUSH2 0x2DCA JUMP JUMPDEST PUSH1 0x40 MLOAD DUP1 SWAP2 SUB SWAP1 RETURN JUMPDEST PUSH2 0x42A PUSH2 0x1BC4 JUMP JUMPDEST PUSH1 0x40 MLOAD PUSH2 0x437 SWAP2 SWAP1 PUSH2 0x2D0F JUMP JUMPDEST PUSH1 0x40 MLOAD DUP1 SWAP2 SUB SWAP1 RETURN JUMPDEST PUSH2 0x45A PUSH1 0x4 DUP1 CALLDATASIZE SUB DUP2 ADD SWAP1 PUSH2 0x455 SWAP2 SWAP1 PUSH2 0x2658 JUMP JUMPDEST PUSH2 0x1F89 JUMP JUMPDEST PUSH1 0x40 MLOAD PUSH2 0x46D SWAP8 SWAP7 SWAP6 SWAP5 SWAP4 SWAP3 SWAP2 SWAP1 PUSH2 0x2C18 JUMP JUMPDEST PUSH1 0x40 MLOAD DUP1 SWAP2 SUB SWAP1 RETURN JUMPDEST PUSH2 0x47E PUSH2 0x1FF8 JUMP JUMPDEST PUSH1 0x40 MLOAD PUSH2 0x48B SWAP2 SWAP1 PUSH2 0x2DCA JUMP JUMPDEST PUSH1 0x40 MLOAD DUP1 SWAP2 SUB SWAP1 RETURN JUMPDEST PUSH2 0x4AE PUSH1 0x4 DUP1 CALLDATASIZE SUB DUP2 ADD SWAP1 PUSH2 0x4A9 SWAP2 SWAP1 PUSH2 0x2658 JUMP JUMPDEST PUSH2 0x1FFE JUMP JUMPDEST STOP JUMPDEST PUSH2 0x4B8 PUSH2 0x20CF JUMP JUMPDEST PUSH1 0x40 MLOAD PUSH2 0x4C5 SWAP2 SWAP1 PUSH2 0x2CED JUMP JUMPDEST PUSH1 0x40 MLOAD DUP1 SWAP2 SUB SWAP1 RETURN JUMPDEST PUSH2 0x4D6 PUSH2 0x2242 JUMP JUMPDEST PUSH1 0x40 MLOAD PUSH2 0x4E3 SWAP2 SWAP1 PUSH2 0x2DCA JUMP JUMPDEST PUSH1 0x40 MLOAD DUP1 SWAP2 SUB SWAP1 RETURN JUMPDEST PUSH2 0x4F4 PUSH2 0x2248 JUMP JUMPDEST PUSH1 0x40 MLOAD PUSH2 0x501 SWAP2 SWAP1 PUSH2 0x2DCA JUMP JUMPDEST PUSH1 0x40 MLOAD DUP1 SWAP2 SUB SWAP1 RETURN JUMPDEST PUSH1 0x60 PUSH1 0xC PUSH1 0x0 CALLER PUSH20 0xFFFFFFFFFFFFFFFFFFFFFFFFFFFFFFFFFFFFFFFF AND PUSH20 0xFFFFFFFFFFFFFFFFFFFFFFFFFFFFFFFFFFFFFFFF AND DUP2 MSTORE PUSH1 0x20 ADD SWAP1 DUP2 MSTORE PUSH1 0x20 ADD PUSH1 0x0 KECCAK256 PUSH1 0x1 ADD DUP1 SLOAD DUP1 PUSH1 0x20 MUL PUSH1 0x20 ADD PUSH1 0x40 MLOAD SWAP1 DUP2 ADD PUSH1 0x40 MSTORE DUP1 SWAP3 SWAP2 SWAP1 DUP2 DUP2 MSTORE PUSH1 0x20 ADD DUP3 DUP1 SLOAD DUP1 ISZERO PUSH2 0x5CE JUMPI PUSH1 0x20 MUL DUP3 ADD SWAP2 SWAP1 PUSH1 0x0 MSTORE PUSH1 0x20 PUSH1 0x0 KECCAK256 SWAP1 JUMPDEST DUP2 PUSH1 0x0 SWAP1 SLOAD SWAP1 PUSH2 0x100 EXP SWAP1 DIV PUSH20 0xFFFFFFFFFFFFFFFFFFFFFFFFFFFFFFFFFFFFFFFF AND PUSH20 0xFFFFFFFFFFFFFFFFFFFFFFFFFFFFFFFFFFFFFFFF AND DUP2 MSTORE PUSH1 0x20 ADD SWAP1 PUSH1 0x1 ADD SWAP1 DUP1 DUP4 GT PUSH2 0x584 JUMPI JUMPDEST POP POP POP POP POP SWAP1 POP SWAP1 JUMP JUMPDEST PUSH1 0x3 SLOAD DUP2 JUMP JUMPDEST PUSH1 0x0 PUSH1 0xC PUSH1 0x0 CALLER PUSH20 0xFFFFFFFFFFFFFFFFFFFFFFFFFFFFFFFFFFFFFFFF AND PUSH20 0xFFFFFFFFFFFFFFFFFFFFFFFFFFFFFFFFFFFFFFFF AND DUP2 MSTORE PUSH1 0x20 ADD SWAP1 DUP2 MSTORE PUSH1 0x20 ADD PUSH1 0x0 KECCAK256 PUSH1 0x1 ADD DUP1 SLOAD SWAP1 POP SWAP1 POP SWAP1 JUMP JUMPDEST PUSH1 0x0 PUSH1 0x5 SLOAD DUP4 LT ISZERO DUP1 ISZERO PUSH2 0x641 JUMPI POP PUSH1 0x6 SLOAD DUP4 GT ISZERO JUMPDEST PUSH2 0x680 JUMPI PUSH1 0x40 MLOAD PUSH32 0x8C379A000000000000000000000000000000000000000000000000000000000 DUP2 MSTORE PUSH1 0x4 ADD PUSH2 0x677 SWAP1 PUSH2 0x2D4A JUMP JUMPDEST PUSH1 0x40 MLOAD DUP1 SWAP2 SUB SWAP1 REVERT JUMPDEST PUSH1 0x0 ISZERO ISZERO PUSH1 0xC PUSH1 0x0 CALLER PUSH20 0xFFFFFFFFFFFFFFFFFFFFFFFFFFFFFFFFFFFFFFFF AND PUSH20 0xFFFFFFFFFFFFFFFFFFFFFFFFFFFFFFFFFFFFFFFF AND DUP2 MSTORE PUSH1 0x20 ADD SWAP1 DUP2 MSTORE PUSH1 0x20 ADD PUSH1 0x0 KECCAK256 PUSH1 0x8 ADD PUSH1 0x0 SWAP1 SLOAD SWAP1 PUSH2 0x100 EXP SWAP1 DIV PUSH1 0xFF AND ISZERO ISZERO EQ ISZERO PUSH2 0x74D JUMPI CALLER PUSH1 0xB PUSH1 0x0 PUSH1 0x3 SLOAD DUP2 MSTORE PUSH1 0x20 ADD SWAP1 DUP2 MSTORE PUSH1 0x20 ADD PUSH1 0x0 KECCAK256 PUSH1 0x0 PUSH2 0x100 EXP DUP2 SLOAD DUP2 PUSH20 0xFFFFFFFFFFFFFFFFFFFFFFFFFFFFFFFFFFFFFFFF MUL NOT AND SWAP1 DUP4 PUSH20 0xFFFFFFFFFFFFFFFFFFFFFFFFFFFFFFFFFFFFFFFF AND MUL OR SWAP1 SSTORE POP PUSH1 0x3 PUSH1 0x0 DUP2 SLOAD DUP1 SWAP3 SWAP2 SWAP1 PUSH2 0x743 SWAP1 PUSH2 0x3037 JUMP JUMPDEST SWAP2 SWAP1 POP SSTORE POP PUSH2 0x7B3 JUMP JUMPDEST PUSH1 0xC PUSH1 0x0 CALLER PUSH20 0xFFFFFFFFFFFFFFFFFFFFFFFFFFFFFFFFFFFFFFFF AND PUSH20 0xFFFFFFFFFFFFFFFFFFFFFFFFFFFFFFFFFFFFFFFF AND DUP2 MSTORE PUSH1 0x20 ADD SWAP1 DUP2 MSTORE PUSH1 0x20 ADD PUSH1 0x0 KECCAK256 PUSH1 0x2 ADD PUSH1 0x0 SWAP1 SLOAD SWAP1 PUSH2 0x100 EXP SWAP1 DIV PUSH20 0xFFFFFFFFFFFFFFFFFFFFFFFFFFFFFFFFFFFFFFFF AND SWAP2 POP JUMPDEST PUSH1 0x0 PUSH1 0xC PUSH1 0x0 CALLER PUSH20 0xFFFFFFFFFFFFFFFFFFFFFFFFFFFFFFFFFFFFFFFF AND PUSH20 0xFFFFFFFFFFFFFFFFFFFFFFFFFFFFFFFFFFFFFFFF AND DUP2 MSTORE PUSH1 0x20 ADD SWAP1 DUP2 MSTORE PUSH1 0x20 ADD PUSH1 0x0 KECCAK256 PUSH1 0x6 ADD SLOAD EQ ISZERO PUSH2 0x855 JUMPI PUSH4 0x1E13380 TIMESTAMP PUSH2 0x80E SWAP2 SWAP1 PUSH2 0x2EDA JUMP JUMPDEST PUSH1 0xC PUSH1 0x0 CALLER PUSH20 0xFFFFFFFFFFFFFFFFFFFFFFFFFFFFFFFFFFFFFFFF AND PUSH20 0xFFFFFFFFFFFFFFFFFFFFFFFFFFFFFFFFFFFFFFFF AND DUP2 MSTORE PUSH1 0x20 ADD SWAP1 DUP2 MSTORE PUSH1 0x20 ADD PUSH1 0x0 KECCAK256 PUSH1 0x9 ADD DUP2 SWAP1 SSTORE POP JUMPDEST PUSH1 0x0 PUSH1 0xC PUSH1 0x0 CALLER PUSH20 0xFFFFFFFFFFFFFFFFFFFFFFFFFFFFFFFFFFFFFFFF AND PUSH20 0xFFFFFFFFFFFFFFFFFFFFFFFFFFFFFFFFFFFFFFFF AND DUP2 MSTORE PUSH1 0x20 ADD SWAP1 DUP2 MSTORE PUSH1 0x20 ADD PUSH1 0x0 KECCAK256 PUSH1 0x5 ADD SLOAD SWAP1 POP DUP4 PUSH1 0xC PUSH1 0x0 CALLER PUSH20 0xFFFFFFFFFFFFFFFFFFFFFFFFFFFFFFFFFFFFFFFF AND PUSH20 0xFFFFFFFFFFFFFFFFFFFFFFFFFFFFFFFFFFFFFFFF AND DUP2 MSTORE PUSH1 0x20 ADD SWAP1 DUP2 MSTORE PUSH1 0x20 ADD PUSH1 0x0 KECCAK256 PUSH1 0x0 ADD PUSH1 0x0 DUP4 DUP2 MSTORE PUSH1 0x20 ADD SWAP1 DUP2 MSTORE PUSH1 0x20 ADD PUSH1 0x0 KECCAK256 PUSH1 0x0 ADD DUP2 SWAP1 SSTORE POP TIMESTAMP PUSH1 0xC PUSH1 0x0 CALLER PUSH20 0xFFFFFFFFFFFFFFFFFFFFFFFFFFFFFFFFFFFFFFFF AND PUSH20 0xFFFFFFFFFFFFFFFFFFFFFFFFFFFFFFFFFFFFFFFF AND DUP2 MSTORE PUSH1 0x20 ADD SWAP1 DUP2 MSTORE PUSH1 0x20 ADD PUSH1 0x0 KECCAK256 PUSH1 0x0 ADD PUSH1 0x0 DUP4 DUP2 MSTORE PUSH1 0x20 ADD SWAP1 DUP2 MSTORE PUSH1 0x20 ADD PUSH1 0x0 KECCAK256 PUSH1 0x2 ADD DUP2 SWAP1 SSTORE POP PUSH1 0x8 SLOAD TIMESTAMP PUSH2 0x960 SWAP2 SWAP1 PUSH2 0x2EDA JUMP JUMPDEST PUSH1 0xC PUSH1 0x0 CALLER PUSH20 0xFFFFFFFFFFFFFFFFFFFFFFFFFFFFFFFFFFFFFFFF AND PUSH20 0xFFFFFFFFFFFFFFFFFFFFFFFFFFFFFFFFFFFFFFFF AND DUP2 MSTORE PUSH1 0x20 ADD SWAP1 DUP2 MSTORE PUSH1 0x20 ADD PUSH1 0x0 KECCAK256 PUSH1 0x0 ADD PUSH1 0x0 DUP4 DUP2 MSTORE PUSH1 0x20 ADD SWAP1 DUP2 MSTORE PUSH1 0x20 ADD PUSH1 0x0 KECCAK256 PUSH1 0x1 ADD DUP2 SWAP1 SSTORE POP DUP1 PUSH1 0xC PUSH1 0x0 CALLER PUSH20 0xFFFFFFFFFFFFFFFFFFFFFFFFFFFFFFFFFFFFFFFF AND PUSH20 0xFFFFFFFFFFFFFFFFFFFFFFFFFFFFFFFFFFFFFFFF AND DUP2 MSTORE PUSH1 0x20 ADD SWAP1 DUP2 MSTORE PUSH1 0x20 ADD PUSH1 0x0 KECCAK256 PUSH1 0x0 ADD PUSH1 0x0 DUP4 DUP2 MSTORE PUSH1 0x20 ADD SWAP1 DUP2 MSTORE PUSH1 0x20 ADD PUSH1 0x0 KECCAK256 PUSH1 0x3 ADD DUP2 SWAP1 SSTORE POP DUP4 PUSH1 0xC PUSH1 0x0 CALLER PUSH20 0xFFFFFFFFFFFFFFFFFFFFFFFFFFFFFFFFFFFFFFFF AND PUSH20 0xFFFFFFFFFFFFFFFFFFFFFFFFFFFFFFFFFFFFFFFF AND DUP2 MSTORE PUSH1 0x20 ADD SWAP1 DUP2 MSTORE PUSH1 0x20 ADD PUSH1 0x0 KECCAK256 PUSH1 0x6 ADD PUSH1 0x0 DUP3 DUP3 SLOAD PUSH2 0xA67 SWAP2 SWAP1 PUSH2 0x2EDA JUMP JUMPDEST SWAP3 POP POP DUP2 SWAP1 SSTORE POP PUSH1 0xC PUSH1 0x0 CALLER PUSH20 0xFFFFFFFFFFFFFFFFFFFFFFFFFFFFFFFFFFFFFFFF AND PUSH20 0xFFFFFFFFFFFFFFFFFFFFFFFFFFFFFFFFFFFFFFFF AND DUP2 MSTORE PUSH1 0x20 ADD SWAP1 DUP2 MSTORE PUSH1 0x20 ADD PUSH1 0x0 KECCAK256 PUSH1 0x5 ADD PUSH1 0x0 DUP2 SLOAD DUP1 SWAP3 SWAP2 SWAP1 PUSH2 0xAC1 SWAP1 PUSH2 0x3037 JUMP JUMPDEST SWAP2 SWAP1 POP SSTORE POP DUP4 PUSH1 0x9 PUSH1 0x0 DUP3 DUP3 SLOAD PUSH2 0xAD8 SWAP2 SWAP1 PUSH2 0x2EDA JUMP JUMPDEST SWAP3 POP POP DUP2 SWAP1 SSTORE POP PUSH1 0x1 PUSH1 0x0 SWAP1 SLOAD SWAP1 PUSH2 0x100 EXP SWAP1 DIV PUSH20 0xFFFFFFFFFFFFFFFFFFFFFFFFFFFFFFFFFFFFFFFF AND PUSH20 0xFFFFFFFFFFFFFFFFFFFFFFFFFFFFFFFFFFFFFFFF AND PUSH4 0x23B872DD CALLER ADDRESS PUSH4 0x5F5E100 DUP9 PUSH2 0xB2F SWAP2 SWAP1 PUSH2 0x2F61 JUMP JUMPDEST PUSH1 0x40 MLOAD DUP5 PUSH4 0xFFFFFFFF AND PUSH1 0xE0 SHL DUP2 MSTORE PUSH1 0x4 ADD PUSH2 0xB4D SWAP4 SWAP3 SWAP2 SWAP1 PUSH2 0x2BB8 JUMP JUMPDEST PUSH1 0x20 PUSH1 0x40 MLOAD DUP1 DUP4 SUB DUP2 PUSH1 0x0 DUP8 DUP1 EXTCODESIZE ISZERO DUP1 ISZERO PUSH2 0xB67 JUMPI PUSH1 0x0 DUP1 REVERT JUMPDEST POP GAS CALL ISZERO DUP1 ISZERO PUSH2 0xB7B JUMPI RETURNDATASIZE PUSH1 0x0 DUP1 RETURNDATACOPY RETURNDATASIZE PUSH1 0x0 REVERT JUMPDEST POP POP POP POP PUSH1 0x40 MLOAD RETURNDATASIZE PUSH1 0x1F NOT PUSH1 0x1F DUP3 ADD AND DUP3 ADD DUP1 PUSH1 0x40 MSTORE POP DUP2 ADD SWAP1 PUSH2 0xB9F SWAP2 SWAP1 PUSH2 0x2685 JUMP JUMPDEST POP PUSH1 0x1 PUSH1 0xC PUSH1 0x0 CALLER PUSH20 0xFFFFFFFFFFFFFFFFFFFFFFFFFFFFFFFFFFFFFFFF AND PUSH20 0xFFFFFFFFFFFFFFFFFFFFFFFFFFFFFFFFFFFFFFFF AND DUP2 MSTORE PUSH1 0x20 ADD SWAP1 DUP2 MSTORE PUSH1 0x20 ADD PUSH1 0x0 KECCAK256 PUSH1 0x8 ADD PUSH1 0x0 PUSH2 0x100 EXP DUP2 SLOAD DUP2 PUSH1 0xFF MUL NOT AND SWAP1 DUP4 ISZERO ISZERO MUL OR SWAP1 SSTORE POP PUSH1 0x1 SWAP2 POP POP SWAP3 SWAP2 POP POP JUMP JUMPDEST DUP1 PUSH1 0x5 DUP2 SWAP1 SSTORE POP POP JUMP JUMPDEST PUSH1 0x60 PUSH1 0x0 PUSH1 0xC PUSH1 0x0 CALLER PUSH20 0xFFFFFFFFFFFFFFFFFFFFFFFFFFFFFFFFFFFFFFFF AND PUSH20 0xFFFFFFFFFFFFFFFFFFFFFFFFFFFFFFFFFFFFFFFF AND DUP2 MSTORE PUSH1 0x20 ADD SWAP1 DUP2 MSTORE PUSH1 0x20 ADD PUSH1 0x0 KECCAK256 PUSH1 0x5 ADD SLOAD SWAP1 POP PUSH1 0x0 DUP1 PUSH1 0x0 JUMPDEST DUP4 DUP2 LT ISZERO PUSH2 0xCE8 JUMPI PUSH1 0x0 PUSH1 0xC PUSH1 0x0 CALLER PUSH20 0xFFFFFFFFFFFFFFFFFFFFFFFFFFFFFFFFFFFFFFFF AND PUSH20 0xFFFFFFFFFFFFFFFFFFFFFFFFFFFFFFFFFFFFFFFF AND DUP2 MSTORE PUSH1 0x20 ADD SWAP1 DUP2 MSTORE PUSH1 0x20 ADD PUSH1 0x0 KECCAK256 PUSH1 0x0 ADD PUSH1 0x0 DUP4 DUP2 MSTORE PUSH1 0x20 ADD SWAP1 DUP2 MSTORE PUSH1 0x20 ADD PUSH1 0x0 KECCAK256 PUSH1 0x0 ADD SLOAD GT ISZERO PUSH2 0xCD5 JUMPI DUP3 DUP1 PUSH2 0xCD1 SWAP1 PUSH2 0x3037 JUMP JUMPDEST SWAP4 POP POP JUMPDEST DUP1 DUP1 PUSH2 0xCE0 SWAP1 PUSH2 0x3037 JUMP JUMPDEST SWAP2 POP POP PUSH2 0xC5F JUMP JUMPDEST POP PUSH1 0x0 DUP3 PUSH8 0xFFFFFFFFFFFFFFFF DUP2 GT ISZERO PUSH2 0xD05 JUMPI PUSH2 0xD04 PUSH2 0x310D JUMP JUMPDEST JUMPDEST PUSH1 0x40 MLOAD SWAP1 DUP1 DUP3 MSTORE DUP1 PUSH1 0x20 MUL PUSH1 0x20 ADD DUP3 ADD PUSH1 0x40 MSTORE DUP1 ISZERO PUSH2 0xD3E JUMPI DUP2 PUSH1 0x20 ADD JUMPDEST PUSH2 0xD2B PUSH2 0x2595 JUMP JUMPDEST DUP2 MSTORE PUSH1 0x20 ADD SWAP1 PUSH1 0x1 SWAP1 SUB SWAP1 DUP2 PUSH2 0xD23 JUMPI SWAP1 POP JUMPDEST POP SWAP1 POP PUSH1 0x0 JUMPDEST DUP5 DUP2 LT ISZERO PUSH2 0xE96 JUMPI PUSH1 0x0 PUSH1 0xC PUSH1 0x0 CALLER PUSH20 0xFFFFFFFFFFFFFFFFFFFFFFFFFFFFFFFFFFFFFFFF AND PUSH20 0xFFFFFFFFFFFFFFFFFFFFFFFFFFFFFFFFFFFFFFFF AND DUP2 MSTORE PUSH1 0x20 ADD SWAP1 DUP2 MSTORE PUSH1 0x20 ADD PUSH1 0x0 KECCAK256 PUSH1 0x0 ADD PUSH1 0x0 DUP4 DUP2 MSTORE PUSH1 0x20 ADD SWAP1 DUP2 MSTORE PUSH1 0x20 ADD PUSH1 0x0 KECCAK256 PUSH1 0x0 ADD SLOAD GT ISZERO PUSH2 0xE83 JUMPI PUSH1 0xC PUSH1 0x0 CALLER PUSH20 0xFFFFFFFFFFFFFFFFFFFFFFFFFFFFFFFFFFFFFFFF AND PUSH20 0xFFFFFFFFFFFFFFFFFFFFFFFFFFFFFFFFFFFFFFFF AND DUP2 MSTORE PUSH1 0x20 ADD SWAP1 DUP2 MSTORE PUSH1 0x20 ADD PUSH1 0x0 KECCAK256 PUSH1 0x0 ADD PUSH1 0x0 DUP3 DUP2 MSTORE PUSH1 0x20 ADD SWAP1 DUP2 MSTORE PUSH1 0x20 ADD PUSH1 0x0 KECCAK256 PUSH1 0x40 MLOAD DUP1 PUSH1 0xC0 ADD PUSH1 0x40 MSTORE SWAP1 DUP2 PUSH1 0x0 DUP3 ADD SLOAD DUP2 MSTORE PUSH1 0x20 ADD PUSH1 0x1 DUP3 ADD SLOAD DUP2 MSTORE PUSH1 0x20 ADD PUSH1 0x2 DUP3 ADD SLOAD DUP2 MSTORE PUSH1 0x20 ADD PUSH1 0x3 DUP3 ADD SLOAD DUP2 MSTORE PUSH1 0x20 ADD PUSH1 0x4 DUP3 ADD SLOAD DUP2 MSTORE PUSH1 0x20 ADD PUSH1 0x5 DUP3 ADD PUSH1 0x0 SWAP1 SLOAD SWAP1 PUSH2 0x100 EXP SWAP1 DIV PUSH1 0xFF AND ISZERO ISZERO ISZERO ISZERO DUP2 MSTORE POP POP DUP3 DUP5 DUP2 MLOAD DUP2 LT PUSH2 0xE69 JUMPI PUSH2 0xE68 PUSH2 0x30DE JUMP JUMPDEST JUMPDEST PUSH1 0x20 MUL PUSH1 0x20 ADD ADD DUP2 SWAP1 MSTORE POP DUP3 DUP1 PUSH2 0xE7F SWAP1 PUSH2 0x3037 JUMP JUMPDEST SWAP4 POP POP JUMPDEST DUP1 DUP1 PUSH2 0xE8E SWAP1 PUSH2 0x3037 JUMP JUMPDEST SWAP2 POP POP PUSH2 0xD44 JUMP JUMPDEST POP DUP1 SWAP5 POP POP POP POP POP SWAP1 JUMP JUMPDEST PUSH1 0x0 DUP1 PUSH1 0x0 DUP1 PUSH1 0x0 PUSH1 0xC PUSH1 0x0 CALLER PUSH20 0xFFFFFFFFFFFFFFFFFFFFFFFFFFFFFFFFFFFFFFFF AND PUSH20 0xFFFFFFFFFFFFFFFFFFFFFFFFFFFFFFFFFFFFFFFF AND DUP2 MSTORE PUSH1 0x20 ADD SWAP1 DUP2 MSTORE PUSH1 0x20 ADD PUSH1 0x0 KECCAK256 PUSH1 0x5 ADD SLOAD SWAP1 POP PUSH1 0x0 JUMPDEST DUP2 DUP2 LT ISZERO PUSH2 0x113C JUMPI PUSH1 0xC PUSH1 0x0 CALLER PUSH20 0xFFFFFFFFFFFFFFFFFFFFFFFFFFFFFFFFFFFFFFFF AND PUSH20 0xFFFFFFFFFFFFFFFFFFFFFFFFFFFFFFFFFFFFFFFF AND DUP2 MSTORE PUSH1 0x20 ADD SWAP1 DUP2 MSTORE PUSH1 0x20 ADD PUSH1 0x0 KECCAK256 PUSH1 0x0 ADD PUSH1 0x0 DUP3 DUP2 MSTORE PUSH1 0x20 ADD SWAP1 DUP2 MSTORE PUSH1 0x20 ADD PUSH1 0x0 KECCAK256 PUSH1 0x5 ADD PUSH1 0x0 SWAP1 SLOAD SWAP1 PUSH2 0x100 EXP SWAP1 DIV PUSH1 0xFF AND PUSH2 0xFCA JUMPI PUSH1 0xC PUSH1 0x0 CALLER PUSH20 0xFFFFFFFFFFFFFFFFFFFFFFFFFFFFFFFFFFFFFFFF AND PUSH20 0xFFFFFFFFFFFFFFFFFFFFFFFFFFFFFFFFFFFFFFFF AND DUP2 MSTORE PUSH1 0x20 ADD SWAP1 DUP2 MSTORE PUSH1 0x20 ADD PUSH1 0x0 KECCAK256 PUSH1 0x0 ADD PUSH1 0x0 DUP3 DUP2 MSTORE PUSH1 0x20 ADD SWAP1 DUP2 MSTORE PUSH1 0x20 ADD PUSH1 0x0 KECCAK256 PUSH1 0x2 ADD SLOAD TIMESTAMP PUSH2 0xFC3 SWAP2 SWAP1 PUSH2 0x2FBB JUMP JUMPDEST SWAP4 POP PUSH2 0x1085 JUMP JUMPDEST PUSH1 0xC PUSH1 0x0 CALLER PUSH20 0xFFFFFFFFFFFFFFFFFFFFFFFFFFFFFFFFFFFFFFFF AND PUSH20 0xFFFFFFFFFFFFFFFFFFFFFFFFFFFFFFFFFFFFFFFF AND DUP2 MSTORE PUSH1 0x20 ADD SWAP1 DUP2 MSTORE PUSH1 0x20 ADD PUSH1 0x0 KECCAK256 PUSH1 0x0 ADD PUSH1 0x0 DUP3 DUP2 MSTORE PUSH1 0x20 ADD SWAP1 DUP2 MSTORE PUSH1 0x20 ADD PUSH1 0x0 KECCAK256 PUSH1 0x2 ADD SLOAD PUSH1 0xC PUSH1 0x0 CALLER PUSH20 0xFFFFFFFFFFFFFFFFFFFFFFFFFFFFFFFFFFFFFFFF AND PUSH20 0xFFFFFFFFFFFFFFFFFFFFFFFFFFFFFFFFFFFFFFFF AND DUP2 MSTORE PUSH1 0x20 ADD SWAP1 DUP2 MSTORE PUSH1 0x20 ADD PUSH1 0x0 KECCAK256 PUSH1 0x0 ADD PUSH1 0x0 DUP4 DUP2 MSTORE PUSH1 0x20 ADD SWAP1 DUP2 MSTORE PUSH1 0x20 ADD PUSH1 0x0 KECCAK256 PUSH1 0x4 ADD SLOAD PUSH2 0x1082 SWAP2 SWAP1 PUSH2 0x2FBB JUMP JUMPDEST SWAP4 POP JUMPDEST PUSH1 0x3C DUP5 PUSH2 0x1092 SWAP2 SWAP1 PUSH2 0x2F30 JUMP JUMPDEST SWAP4 POP PUSH1 0x0 DUP5 GT ISZERO PUSH2 0x1129 JUMPI PUSH2 0x2710 PUSH1 0x32 PUSH1 0xC PUSH1 0x0 CALLER PUSH20 0xFFFFFFFFFFFFFFFFFFFFFFFFFFFFFFFFFFFFFFFF AND PUSH20 0xFFFFFFFFFFFFFFFFFFFFFFFFFFFFFFFFFFFFFFFF AND DUP2 MSTORE PUSH1 0x20 ADD SWAP1 DUP2 MSTORE PUSH1 0x20 ADD PUSH1 0x0 KECCAK256 PUSH1 0x0 ADD PUSH1 0x0 DUP5 DUP2 MSTORE PUSH1 0x20 ADD SWAP1 DUP2 MSTORE PUSH1 0x20 ADD PUSH1 0x0 KECCAK256 PUSH1 0x0 ADD SLOAD PUSH2 0x1103 SWAP2 SWAP1 PUSH2 0x2F61 JUMP JUMPDEST PUSH2 0x110D SWAP2 SWAP1 PUSH2 0x2F30 JUMP JUMPDEST SWAP3 POP DUP3 DUP5 PUSH2 0x111B SWAP2 SWAP1 PUSH2 0x2F61 JUMP JUMPDEST DUP6 PUSH2 0x1126 SWAP2 SWAP1 PUSH2 0x2EDA JUMP JUMPDEST SWAP5 POP JUMPDEST DUP1 DUP1 PUSH2 0x1134 SWAP1 PUSH2 0x3037 JUMP JUMPDEST SWAP2 POP POP PUSH2 0xEF1 JUMP JUMPDEST POP PUSH1 0xC PUSH1 0x0 CALLER PUSH20 0xFFFFFFFFFFFFFFFFFFFFFFFFFFFFFFFFFFFFFFFF AND PUSH20 0xFFFFFFFFFFFFFFFFFFFFFFFFFFFFFFFFFFFFFFFF AND DUP2 MSTORE PUSH1 0x20 ADD SWAP1 DUP2 MSTORE PUSH1 0x20 ADD PUSH1 0x0 KECCAK256 PUSH1 0x7 ADD SLOAD DUP5 PUSH2 0x118B SWAP2 SWAP1 PUSH2 0x2FBB JUMP JUMPDEST SWAP4 POP DUP4 SWAP5 POP POP POP POP POP SWAP1 JUMP JUMPDEST PUSH1 0x60 PUSH1 0x0 PUSH1 0x3 SLOAD PUSH8 0xFFFFFFFFFFFFFFFF DUP2 GT ISZERO PUSH2 0x11B7 JUMPI PUSH2 0x11B6 PUSH2 0x310D JUMP JUMPDEST JUMPDEST PUSH1 0x40 MLOAD SWAP1 DUP1 DUP3 MSTORE DUP1 PUSH1 0x20 MUL PUSH1 0x20 ADD DUP3 ADD PUSH1 0x40 MSTORE DUP1 ISZERO PUSH2 0x11F0 JUMPI DUP2 PUSH1 0x20 ADD JUMPDEST PUSH2 0x11DD PUSH2 0x25CD JUMP JUMPDEST DUP2 MSTORE PUSH1 0x20 ADD SWAP1 PUSH1 0x1 SWAP1 SUB SWAP1 DUP2 PUSH2 0x11D5 JUMPI SWAP1 POP JUMPDEST POP SWAP1 POP PUSH1 0x0 JUMPDEST PUSH1 0x3 SLOAD DUP2 LT ISZERO PUSH2 0x1521 JUMPI PUSH1 0xB PUSH1 0x0 DUP3 DUP2 MSTORE PUSH1 0x20 ADD SWAP1 DUP2 MSTORE PUSH1 0x20 ADD PUSH1 0x0 KECCAK256 PUSH1 0x0 SWAP1 SLOAD SWAP1 PUSH2 0x100 EXP SWAP1 DIV PUSH20 0xFFFFFFFFFFFFFFFFFFFFFFFFFFFFFFFFFFFFFFFF AND DUP3 DUP3 DUP2 MLOAD DUP2 LT PUSH2 0x1247 JUMPI PUSH2 0x1246 PUSH2 0x30DE JUMP JUMPDEST JUMPDEST PUSH1 0x20 MUL PUSH1 0x20 ADD ADD MLOAD PUSH1 0x0 ADD SWAP1 PUSH20 0xFFFFFFFFFFFFFFFFFFFFFFFFFFFFFFFFFFFFFFFF AND SWAP1 DUP2 PUSH20 0xFFFFFFFFFFFFFFFFFFFFFFFFFFFFFFFFFFFFFFFF AND DUP2 MSTORE POP POP PUSH1 0xC PUSH1 0x0 PUSH1 0xB PUSH1 0x0 DUP5 DUP2 MSTORE PUSH1 0x20 ADD SWAP1 DUP2 MSTORE PUSH1 0x20 ADD PUSH1 0x0 KECCAK256 PUSH1 0x0 SWAP1 SLOAD SWAP1 PUSH2 0x100 EXP SWAP1 DIV PUSH20 0xFFFFFFFFFFFFFFFFFFFFFFFFFFFFFFFFFFFFFFFF AND PUSH20 0xFFFFFFFFFFFFFFFFFFFFFFFFFFFFFFFFFFFFFFFF AND PUSH20 0xFFFFFFFFFFFFFFFFFFFFFFFFFFFFFFFFFFFFFFFF AND DUP2 MSTORE PUSH1 0x20 ADD SWAP1 DUP2 MSTORE PUSH1 0x20 ADD PUSH1 0x0 KECCAK256 PUSH1 0x6 ADD SLOAD DUP3 DUP3 DUP2 MLOAD DUP2 LT PUSH2 0x130E JUMPI PUSH2 0x130D PUSH2 0x30DE JUMP JUMPDEST JUMPDEST PUSH1 0x20 MUL PUSH1 0x20 ADD ADD MLOAD PUSH1 0x20 ADD DUP2 DUP2 MSTORE POP POP PUSH2 0x135A PUSH1 0xB PUSH1 0x0 DUP4 DUP2 MSTORE PUSH1 0x20 ADD SWAP1 DUP2 MSTORE PUSH1 0x20 ADD PUSH1 0x0 KECCAK256 PUSH1 0x0 SWAP1 SLOAD SWAP1 PUSH2 0x100 EXP SWAP1 DIV PUSH20 0xFFFFFFFFFFFFFFFFFFFFFFFFFFFFFFFFFFFFFFFF AND PUSH2 0x224E JUMP JUMPDEST DUP3 DUP3 DUP2 MLOAD DUP2 LT PUSH2 0x136D JUMPI PUSH2 0x136C PUSH2 0x30DE JUMP JUMPDEST JUMPDEST PUSH1 0x20 MUL PUSH1 0x20 ADD ADD MLOAD PUSH1 0x40 ADD DUP2 DUP2 MSTORE POP POP PUSH1 0xC PUSH1 0x0 PUSH1 0xB PUSH1 0x0 DUP5 DUP2 MSTORE PUSH1 0x20 ADD SWAP1 DUP2 MSTORE PUSH1 0x20 ADD PUSH1 0x0 KECCAK256 PUSH1 0x0 SWAP1 SLOAD SWAP1 PUSH2 0x100 EXP SWAP1 DIV PUSH20 0xFFFFFFFFFFFFFFFFFFFFFFFFFFFFFFFFFFFFFFFF AND PUSH20 0xFFFFFFFFFFFFFFFFFFFFFFFFFFFFFFFFFFFFFFFF AND PUSH20 0xFFFFFFFFFFFFFFFFFFFFFFFFFFFFFFFFFFFFFFFF AND DUP2 MSTORE PUSH1 0x20 ADD SWAP1 DUP2 MSTORE PUSH1 0x20 ADD PUSH1 0x0 KECCAK256 PUSH1 0x5 ADD SLOAD DUP3 DUP3 DUP2 MLOAD DUP2 LT PUSH2 0x1406 JUMPI PUSH2 0x1405 PUSH2 0x30DE JUMP JUMPDEST JUMPDEST PUSH1 0x20 MUL PUSH1 0x20 ADD ADD MLOAD PUSH1 0x60 ADD DUP2 DUP2 MSTORE POP POP PUSH1 0xC PUSH1 0x0 PUSH1 0xB PUSH1 0x0 DUP5 DUP2 MSTORE PUSH1 0x20 ADD SWAP1 DUP2 MSTORE PUSH1 0x20 ADD PUSH1 0x0 KECCAK256 PUSH1 0x0 SWAP1 SLOAD SWAP1 PUSH2 0x100 EXP SWAP1 DIV PUSH20 0xFFFFFFFFFFFFFFFFFFFFFFFFFFFFFFFFFFFFFFFF AND PUSH20 0xFFFFFFFFFFFFFFFFFFFFFFFFFFFFFFFFFFFFFFFF AND PUSH20 0xFFFFFFFFFFFFFFFFFFFFFFFFFFFFFFFFFFFFFFFF AND DUP2 MSTORE PUSH1 0x20 ADD SWAP1 DUP2 MSTORE PUSH1 0x20 ADD PUSH1 0x0 KECCAK256 PUSH1 0x7 ADD SLOAD DUP3 DUP3 DUP2 MLOAD DUP2 LT PUSH2 0x149F JUMPI PUSH2 0x149E PUSH2 0x30DE JUMP JUMPDEST JUMPDEST PUSH1 0x20 MUL PUSH1 0x20 ADD ADD MLOAD PUSH1 0x80 ADD DUP2 DUP2 MSTORE POP POP PUSH2 0x14EB PUSH1 0xB PUSH1 0x0 DUP4 DUP2 MSTORE PUSH1 0x20 ADD SWAP1 DUP2 MSTORE PUSH1 0x20 ADD PUSH1 0x0 KECCAK256 PUSH1 0x0 SWAP1 SLOAD SWAP1 PUSH2 0x100 EXP SWAP1 DIV PUSH20 0xFFFFFFFFFFFFFFFFFFFFFFFFFFFFFFFFFFFFFFFF AND PUSH2 0x2546 JUMP JUMPDEST DUP3 DUP3 DUP2 MLOAD DUP2 LT PUSH2 0x14FE JUMPI PUSH2 0x14FD PUSH2 0x30DE JUMP JUMPDEST JUMPDEST PUSH1 0x20 MUL PUSH1 0x20 ADD ADD MLOAD PUSH1 0xA0 ADD DUP2 DUP2 MSTORE POP POP DUP1 DUP1 PUSH2 0x1519 SWAP1 PUSH2 0x3037 JUMP JUMPDEST SWAP2 POP POP PUSH2 0x11F6 JUMP JUMPDEST POP DUP1 SWAP2 POP POP SWAP1 JUMP JUMPDEST DUP3 PUSH1 0x6 DUP2 SWAP1 SSTORE POP DUP4 PUSH1 0x5 DUP2 SWAP1 SSTORE POP DUP2 PUSH1 0x4 DUP2 SWAP1 SSTORE POP DUP1 PUSH1 0x7 DUP2 SWAP1 SSTORE POP POP POP POP POP JUMP JUMPDEST DUP1 PUSH1 0x6 DUP2 SWAP1 SSTORE POP POP JUMP JUMPDEST PUSH1 0xB PUSH1 0x20 MSTORE DUP1 PUSH1 0x0 MSTORE PUSH1 0x40 PUSH1 0x0 KECCAK256 PUSH1 0x0 SWAP2 POP SLOAD SWAP1 PUSH2 0x100 EXP SWAP1 DIV PUSH20 0xFFFFFFFFFFFFFFFFFFFFFFFFFFFFFFFFFFFFFFFF AND DUP2 JUMP JUMPDEST PUSH1 0x8 SLOAD DUP2 JUMP JUMPDEST PUSH1 0x0 DUP1 PUSH1 0xC PUSH1 0x0 CALLER PUSH20 0xFFFFFFFFFFFFFFFFFFFFFFFFFFFFFFFFFFFFFFFF AND PUSH20 0xFFFFFFFFFFFFFFFFFFFFFFFFFFFFFFFFFFFFFFFF AND DUP2 MSTORE PUSH1 0x20 ADD SWAP1 DUP2 MSTORE PUSH1 0x20 ADD PUSH1 0x0 KECCAK256 PUSH1 0x7 ADD SLOAD SWAP1 POP DUP1 SWAP2 POP POP SWAP1 JUMP JUMPDEST PUSH1 0x0 DUP1 PUSH1 0xC PUSH1 0x0 CALLER PUSH20 0xFFFFFFFFFFFFFFFFFFFFFFFFFFFFFFFFFFFFFFFF AND PUSH20 0xFFFFFFFFFFFFFFFFFFFFFFFFFFFFFFFFFFFFFFFF AND DUP2 MSTORE PUSH1 0x20 ADD SWAP1 DUP2 MSTORE PUSH1 0x20 ADD PUSH1 0x0 KECCAK256 PUSH1 0x6 ADD SLOAD GT PUSH2 0x1663 JUMPI PUSH1 0x40 MLOAD PUSH32 0x8C379A000000000000000000000000000000000000000000000000000000000 DUP2 MSTORE PUSH1 0x4 ADD PUSH2 0x165A SWAP1 PUSH2 0x2D2A JUMP JUMPDEST PUSH1 0x40 MLOAD DUP1 SWAP2 SUB SWAP1 REVERT JUMPDEST TIMESTAMP PUSH1 0xC PUSH1 0x0 CALLER PUSH20 0xFFFFFFFFFFFFFFFFFFFFFFFFFFFFFFFFFFFFFFFF AND PUSH20 0xFFFFFFFFFFFFFFFFFFFFFFFFFFFFFFFFFFFFFFFF AND DUP2 MSTORE PUSH1 0x20 ADD SWAP1 DUP2 MSTORE PUSH1 0x20 ADD PUSH1 0x0 KECCAK256 PUSH1 0x9 ADD SLOAD LT PUSH2 0x16E7 JUMPI PUSH1 0x40 MLOAD PUSH32 0x8C379A000000000000000000000000000000000000000000000000000000000 DUP2 MSTORE PUSH1 0x4 ADD PUSH2 0x16DE SWAP1 PUSH2 0x2D8A JUMP JUMPDEST PUSH1 0x40 MLOAD DUP1 SWAP2 SUB SWAP1 REVERT JUMPDEST PUSH1 0x0 PUSH1 0xC PUSH1 0x0 CALLER PUSH20 0xFFFFFFFFFFFFFFFFFFFFFFFFFFFFFFFFFFFFFFFF AND PUSH20 0xFFFFFFFFFFFFFFFFFFFFFFFFFFFFFFFFFFFFFFFF AND DUP2 MSTORE PUSH1 0x20 ADD SWAP1 DUP2 MSTORE PUSH1 0x20 ADD PUSH1 0x0 KECCAK256 PUSH1 0x6 ADD SLOAD SWAP1 POP PUSH1 0x0 PUSH1 0xC PUSH1 0x0 CALLER PUSH20 0xFFFFFFFFFFFFFFFFFFFFFFFFFFFFFFFFFFFFFFFF AND PUSH20 0xFFFFFFFFFFFFFFFFFFFFFFFFFFFFFFFFFFFFFFFF AND DUP2 MSTORE PUSH1 0x20 ADD SWAP1 DUP2 MSTORE PUSH1 0x20 ADD PUSH1 0x0 KECCAK256 PUSH1 0x5 ADD SLOAD SWAP1 POP PUSH1 0x0 PUSH1 0xA SLOAD SWAP1 POP PUSH1 0x0 DUP1 PUSH1 0x1 PUSH1 0x0 SWAP1 SLOAD SWAP1 PUSH2 0x100 EXP SWAP1 DIV PUSH20 0xFFFFFFFFFFFFFFFFFFFFFFFFFFFFFFFFFFFFFFFF AND PUSH20 0xFFFFFFFFFFFFFFFFFFFFFFFFFFFFFFFFFFFFFFFF AND PUSH4 0xA9059CBB CALLER PUSH4 0x5F5E100 DUP9 PUSH2 0x17CE SWAP2 SWAP1 PUSH2 0x2F61 JUMP JUMPDEST PUSH1 0x40 MLOAD DUP4 PUSH4 0xFFFFFFFF AND PUSH1 0xE0 SHL DUP2 MSTORE PUSH1 0x4 ADD PUSH2 0x17EB SWAP3 SWAP2 SWAP1 PUSH2 0x2BEF JUMP JUMPDEST PUSH1 0x20 PUSH1 0x40 MLOAD DUP1 DUP4 SUB DUP2 PUSH1 0x0 DUP8 DUP1 EXTCODESIZE ISZERO DUP1 ISZERO PUSH2 0x1805 JUMPI PUSH1 0x0 DUP1 REVERT JUMPDEST POP GAS CALL ISZERO DUP1 ISZERO PUSH2 0x1819 JUMPI RETURNDATASIZE PUSH1 0x0 DUP1 RETURNDATACOPY RETURNDATASIZE PUSH1 0x0 REVERT JUMPDEST POP POP POP POP PUSH1 0x40 MLOAD RETURNDATASIZE PUSH1 0x1F NOT PUSH1 0x1F DUP3 ADD AND DUP3 ADD DUP1 PUSH1 0x40 MSTORE POP DUP2 ADD SWAP1 PUSH2 0x183D SWAP2 SWAP1 PUSH2 0x2685 JUMP JUMPDEST POP PUSH1 0x0 SWAP3 POP JUMPDEST DUP4 DUP4 LT ISZERO PUSH2 0x1928 JUMPI PUSH1 0x1 PUSH1 0xC PUSH1 0x0 CALLER PUSH20 0xFFFFFFFFFFFFFFFFFFFFFFFFFFFFFFFFFFFFFFFF AND PUSH20 0xFFFFFFFFFFFFFFFFFFFFFFFFFFFFFFFFFFFFFFFF AND DUP2 MSTORE PUSH1 0x20 ADD SWAP1 DUP2 MSTORE PUSH1 0x20 ADD PUSH1 0x0 KECCAK256 PUSH1 0x0 ADD PUSH1 0x0 DUP6 DUP2 MSTORE PUSH1 0x20 ADD SWAP1 DUP2 MSTORE PUSH1 0x20 ADD PUSH1 0x0 KECCAK256 PUSH1 0x5 ADD PUSH1 0x0 PUSH2 0x100 EXP DUP2 SLOAD DUP2 PUSH1 0xFF MUL NOT AND SWAP1 DUP4 ISZERO ISZERO MUL OR SWAP1 SSTORE POP TIMESTAMP PUSH1 0xC PUSH1 0x0 CALLER PUSH20 0xFFFFFFFFFFFFFFFFFFFFFFFFFFFFFFFFFFFFFFFF AND PUSH20 0xFFFFFFFFFFFFFFFFFFFFFFFFFFFFFFFFFFFFFFFF AND DUP2 MSTORE PUSH1 0x20 ADD SWAP1 DUP2 MSTORE PUSH1 0x20 ADD PUSH1 0x0 KECCAK256 PUSH1 0x0 ADD PUSH1 0x0 DUP6 DUP2 MSTORE PUSH1 0x20 ADD SWAP1 DUP2 MSTORE PUSH1 0x20 ADD PUSH1 0x0 KECCAK256 PUSH1 0x4 ADD DUP2 SWAP1 SSTORE POP DUP3 DUP1 PUSH2 0x1920 SWAP1 PUSH2 0x3037 JUMP JUMPDEST SWAP4 POP POP PUSH2 0x1843 JUMP JUMPDEST PUSH1 0xC PUSH1 0x0 CALLER PUSH20 0xFFFFFFFFFFFFFFFFFFFFFFFFFFFFFFFFFFFFFFFF AND PUSH20 0xFFFFFFFFFFFFFFFFFFFFFFFFFFFFFFFFFFFFFFFF AND DUP2 MSTORE PUSH1 0x20 ADD SWAP1 DUP2 MSTORE PUSH1 0x20 ADD PUSH1 0x0 KECCAK256 PUSH1 0x5 ADD SLOAD PUSH1 0xA DUP2 SWAP1 SSTORE POP PUSH1 0x0 PUSH1 0xC PUSH1 0x0 CALLER PUSH20 0xFFFFFFFFFFFFFFFFFFFFFFFFFFFFFFFFFFFFFFFF AND PUSH20 0xFFFFFFFFFFFFFFFFFFFFFFFFFFFFFFFFFFFFFFFF AND DUP2 MSTORE PUSH1 0x20 ADD SWAP1 DUP2 MSTORE PUSH1 0x20 ADD PUSH1 0x0 KECCAK256 PUSH1 0x6 ADD DUP2 SWAP1 SSTORE POP PUSH1 0x1 SWAP6 POP POP POP POP POP POP SWAP1 JUMP JUMPDEST PUSH1 0x0 DUP1 SLOAD SWAP1 PUSH2 0x100 EXP SWAP1 DIV PUSH20 0xFFFFFFFFFFFFFFFFFFFFFFFFFFFFFFFFFFFFFFFF AND DUP2 JUMP JUMPDEST PUSH1 0x0 PUSH1 0xC PUSH1 0x0 CALLER PUSH20 0xFFFFFFFFFFFFFFFFFFFFFFFFFFFFFFFFFFFFFFFF AND PUSH20 0xFFFFFFFFFFFFFFFFFFFFFFFFFFFFFFFFFFFFFFFF AND DUP2 MSTORE PUSH1 0x20 ADD SWAP1 DUP2 MSTORE PUSH1 0x20 ADD PUSH1 0x0 KECCAK256 PUSH1 0x6 ADD SLOAD SWAP1 POP SWAP1 JUMP JUMPDEST PUSH1 0x7 SLOAD DUP2 JUMP JUMPDEST DUP2 PUSH1 0x4 DUP2 SWAP1 SSTORE POP DUP1 PUSH1 0x7 DUP2 SWAP1 SSTORE POP POP POP JUMP JUMPDEST PUSH1 0x60 PUSH1 0x0 PUSH1 0x14 PUSH8 0xFFFFFFFFFFFFFFFF DUP2 GT ISZERO PUSH2 0x1A6A JUMPI PUSH2 0x1A69 PUSH2 0x310D JUMP JUMPDEST JUMPDEST PUSH1 0x40 MLOAD SWAP1 DUP1 DUP3 MSTORE DUP1 PUSH1 0x20 MUL PUSH1 0x20 ADD DUP3 ADD PUSH1 0x40 MSTORE DUP1 ISZERO PUSH2 0x1A98 JUMPI DUP2 PUSH1 0x20 ADD PUSH1 0x20 DUP3 MUL DUP1 CALLDATASIZE DUP4 CALLDATACOPY DUP1 DUP3 ADD SWAP2 POP POP SWAP1 POP JUMPDEST POP SWAP1 POP PUSH1 0x0 JUMPDEST PUSH1 0x14 DUP2 LT ISZERO PUSH2 0x1BB6 JUMPI PUSH1 0x0 PUSH1 0xC PUSH1 0x0 CALLER PUSH20 0xFFFFFFFFFFFFFFFFFFFFFFFFFFFFFFFFFFFFFFFF AND PUSH20 0xFFFFFFFFFFFFFFFFFFFFFFFFFFFFFFFFFFFFFFFF AND DUP2 MSTORE PUSH1 0x20 ADD SWAP1 DUP2 MSTORE PUSH1 0x20 ADD PUSH1 0x0 KECCAK256 PUSH1 0x3 ADD PUSH1 0x0 DUP4 DUP2 MSTORE PUSH1 0x20 ADD SWAP1 DUP2 MSTORE PUSH1 0x20 ADD PUSH1 0x0 KECCAK256 PUSH1 0x0 ADD SLOAD GT ISZERO PUSH2 0x1B81 JUMPI PUSH1 0xC PUSH1 0x0 CALLER PUSH20 0xFFFFFFFFFFFFFFFFFFFFFFFFFFFFFFFFFFFFFFFF AND PUSH20 0xFFFFFFFFFFFFFFFFFFFFFFFFFFFFFFFFFFFFFFFF AND DUP2 MSTORE PUSH1 0x20 ADD SWAP1 DUP2 MSTORE PUSH1 0x20 ADD PUSH1 0x0 KECCAK256 PUSH1 0x3 ADD PUSH1 0x0 DUP3 DUP2 MSTORE PUSH1 0x20 ADD SWAP1 DUP2 MSTORE PUSH1 0x20 ADD PUSH1 0x0 KECCAK256 PUSH1 0x0 ADD SLOAD DUP3 DUP3 DUP2 MLOAD DUP2 LT PUSH2 0x1B70 JUMPI PUSH2 0x1B6F PUSH2 0x30DE JUMP JUMPDEST JUMPDEST PUSH1 0x20 MUL PUSH1 0x20 ADD ADD DUP2 DUP2 MSTORE POP POP PUSH2 0x1BA3 JUMP JUMPDEST PUSH1 0x0 DUP3 DUP3 DUP2 MLOAD DUP2 LT PUSH2 0x1B96 JUMPI PUSH2 0x1B95 PUSH2 0x30DE JUMP JUMPDEST JUMPDEST PUSH1 0x20 MUL PUSH1 0x20 ADD ADD DUP2 DUP2 MSTORE POP POP JUMPDEST DUP1 DUP1 PUSH2 0x1BAE SWAP1 PUSH2 0x3037 JUMP JUMPDEST SWAP2 POP POP PUSH2 0x1A9E JUMP JUMPDEST POP DUP1 SWAP2 POP POP SWAP1 JUMP JUMPDEST PUSH1 0x5 SLOAD DUP2 JUMP JUMPDEST PUSH1 0x0 DUP1 PUSH2 0x1BCF PUSH2 0xEA1 JUMP JUMPDEST SWAP1 POP PUSH1 0x0 DUP2 GT PUSH2 0x1C14 JUMPI PUSH1 0x40 MLOAD PUSH32 0x8C379A000000000000000000000000000000000000000000000000000000000 DUP2 MSTORE PUSH1 0x4 ADD PUSH2 0x1C0B SWAP1 PUSH2 0x2D6A JUMP JUMPDEST PUSH1 0x40 MLOAD DUP1 SWAP2 SUB SWAP1 REVERT JUMPDEST PUSH1 0x0 PUSH1 0x64 PUSH1 0x15 DUP4 PUSH2 0x1C25 SWAP2 SWAP1 PUSH2 0x2F61 JUMP JUMPDEST PUSH2 0x1C2F SWAP2 SWAP1 PUSH2 0x2F30 JUMP JUMPDEST SWAP1 POP PUSH1 0x0 PUSH1 0xC PUSH1 0x0 CALLER PUSH20 0xFFFFFFFFFFFFFFFFFFFFFFFFFFFFFFFFFFFFFFFF AND PUSH20 0xFFFFFFFFFFFFFFFFFFFFFFFFFFFFFFFFFFFFFFFF AND DUP2 MSTORE PUSH1 0x20 ADD SWAP1 DUP2 MSTORE PUSH1 0x20 ADD PUSH1 0x0 KECCAK256 PUSH1 0x2 ADD PUSH1 0x0 SWAP1 SLOAD SWAP1 PUSH2 0x100 EXP SWAP1 DIV PUSH20 0xFFFFFFFFFFFFFFFFFFFFFFFFFFFFFFFFFFFFFFFF AND SWAP1 POP PUSH1 0x0 PUSH20 0xFFFFFFFFFFFFFFFFFFFFFFFFFFFFFFFFFFFFFFFF AND DUP2 PUSH20 0xFFFFFFFFFFFFFFFFFFFFFFFFFFFFFFFFFFFFFFFF AND EQ PUSH2 0x1E62 JUMPI PUSH1 0x2 PUSH1 0x0 SWAP1 SLOAD SWAP1 PUSH2 0x100 EXP SWAP1 DIV PUSH20 0xFFFFFFFFFFFFFFFFFFFFFFFFFFFFFFFFFFFFFFFF AND PUSH20 0xFFFFFFFFFFFFFFFFFFFFFFFFFFFFFFFFFFFFFFFF AND PUSH4 0xA9059CBB DUP3 PUSH8 0xDE0B6B3A7640000 DUP6 PUSH2 0x1D1F SWAP2 SWAP1 PUSH2 0x2F61 JUMP JUMPDEST PUSH1 0x40 MLOAD DUP4 PUSH4 0xFFFFFFFF AND PUSH1 0xE0 SHL DUP2 MSTORE PUSH1 0x4 ADD PUSH2 0x1D3C SWAP3 SWAP2 SWAP1 PUSH2 0x2BEF JUMP JUMPDEST PUSH1 0x20 PUSH1 0x40 MLOAD DUP1 DUP4 SUB DUP2 PUSH1 0x0 DUP8 DUP1 EXTCODESIZE ISZERO DUP1 ISZERO PUSH2 0x1D56 JUMPI PUSH1 0x0 DUP1 REVERT JUMPDEST POP GAS CALL ISZERO DUP1 ISZERO PUSH2 0x1D6A JUMPI RETURNDATASIZE PUSH1 0x0 DUP1 RETURNDATACOPY RETURNDATASIZE PUSH1 0x0 REVERT JUMPDEST POP POP POP POP PUSH1 0x40 MLOAD RETURNDATASIZE PUSH1 0x1F NOT PUSH1 0x1F DUP3 ADD AND DUP3 ADD DUP1 PUSH1 0x40 MSTORE POP DUP2 ADD SWAP1 PUSH2 0x1D8E SWAP2 SWAP1 PUSH2 0x2685 JUMP JUMPDEST POP PUSH1 0x2 PUSH1 0x0 SWAP1 SLOAD SWAP1 PUSH2 0x100 EXP SWAP1 DIV PUSH20 0xFFFFFFFFFFFFFFFFFFFFFFFFFFFFFFFFFFFFFFFF AND PUSH20 0xFFFFFFFFFFFFFFFFFFFFFFFFFFFFFFFFFFFFFFFF AND PUSH4 0xA9059CBB CALLER PUSH8 0xDE0B6B3A7640000 DUP6 DUP8 PUSH2 0x1DE3 SWAP2 SWAP1 PUSH2 0x2FBB JUMP JUMPDEST PUSH2 0x1DED SWAP2 SWAP1 PUSH2 0x2F61 JUMP JUMPDEST PUSH1 0x40 MLOAD DUP4 PUSH4 0xFFFFFFFF AND PUSH1 0xE0 SHL DUP2 MSTORE PUSH1 0x4 ADD PUSH2 0x1E0A SWAP3 SWAP2 SWAP1 PUSH2 0x2BEF JUMP JUMPDEST PUSH1 0x20 PUSH1 0x40 MLOAD DUP1 DUP4 SUB DUP2 PUSH1 0x0 DUP8 DUP1 EXTCODESIZE ISZERO DUP1 ISZERO PUSH2 0x1E24 JUMPI PUSH1 0x0 DUP1 REVERT JUMPDEST POP GAS CALL ISZERO DUP1 ISZERO PUSH2 0x1E38 JUMPI RETURNDATASIZE PUSH1 0x0 DUP1 RETURNDATACOPY RETURNDATASIZE PUSH1 0x0 REVERT JUMPDEST POP POP POP POP PUSH1 0x40 MLOAD RETURNDATASIZE PUSH1 0x1F NOT PUSH1 0x1F DUP3 ADD AND DUP3 ADD DUP1 PUSH1 0x40 MSTORE POP DUP2 ADD SWAP1 PUSH2 0x1E5C SWAP2 SWAP1 PUSH2 0x2685 JUMP JUMPDEST POP PUSH2 0x1F26 JUMP JUMPDEST PUSH1 0x2 PUSH1 0x0 SWAP1 SLOAD SWAP1 PUSH2 0x100 EXP SWAP1 DIV PUSH20 0xFFFFFFFFFFFFFFFFFFFFFFFFFFFFFFFFFFFFFFFF AND PUSH20 0xFFFFFFFFFFFFFFFFFFFFFFFFFFFFFFFFFFFFFFFF AND PUSH4 0xA9059CBB CALLER PUSH8 0xDE0B6B3A7640000 DUP7 PUSH2 0x1EB5 SWAP2 SWAP1 PUSH2 0x2F61 JUMP JUMPDEST PUSH1 0x40 MLOAD DUP4 PUSH4 0xFFFFFFFF AND PUSH1 0xE0 SHL DUP2 MSTORE PUSH1 0x4 ADD PUSH2 0x1ED2 SWAP3 SWAP2 SWAP1 PUSH2 0x2BEF JUMP JUMPDEST PUSH1 0x20 PUSH1 0x40 MLOAD DUP1 DUP4 SUB DUP2 PUSH1 0x0 DUP8 DUP1 EXTCODESIZE ISZERO DUP1 ISZERO PUSH2 0x1EEC JUMPI PUSH1 0x0 DUP1 REVERT JUMPDEST POP GAS CALL ISZERO DUP1 ISZERO PUSH2 0x1F00 JUMPI RETURNDATASIZE PUSH1 0x0 DUP1 RETURNDATACOPY RETURNDATASIZE PUSH1 0x0 REVERT JUMPDEST POP POP POP POP PUSH1 0x40 MLOAD RETURNDATASIZE PUSH1 0x1F NOT PUSH1 0x1F DUP3 ADD AND DUP3 ADD DUP1 PUSH1 0x40 MSTORE POP DUP2 ADD SWAP1 PUSH2 0x1F24 SWAP2 SWAP1 PUSH2 0x2685 JUMP JUMPDEST POP JUMPDEST DUP3 PUSH1 0xC PUSH1 0x0 CALLER PUSH20 0xFFFFFFFFFFFFFFFFFFFFFFFFFFFFFFFFFFFFFFFF AND PUSH20 0xFFFFFFFFFFFFFFFFFFFFFFFFFFFFFFFFFFFFFFFF AND DUP2 MSTORE PUSH1 0x20 ADD SWAP1 DUP2 MSTORE PUSH1 0x20 ADD PUSH1 0x0 KECCAK256 PUSH1 0x7 ADD PUSH1 0x0 DUP3 DUP3 SLOAD PUSH2 0x1F78 SWAP2 SWAP1 PUSH2 0x2EDA JUMP JUMPDEST SWAP3 POP POP DUP2 SWAP1 SSTORE POP PUSH1 0x1 SWAP4 POP POP POP POP SWAP1 JUMP JUMPDEST PUSH1 0xC PUSH1 0x20 MSTORE DUP1 PUSH1 0x0 MSTORE PUSH1 0x40 PUSH1 0x0 KECCAK256 PUSH1 0x0 SWAP2 POP SWAP1 POP DUP1 PUSH1 0x2 ADD PUSH1 0x0 SWAP1 SLOAD SWAP1 PUSH2 0x100 EXP SWAP1 DIV PUSH20 0xFFFFFFFFFFFFFFFFFFFFFFFFFFFFFFFFFFFFFFFF AND SWAP1 DUP1 PUSH1 0x4 ADD SLOAD SWAP1 DUP1 PUSH1 0x5 ADD SLOAD SWAP1 DUP1 PUSH1 0x6 ADD SLOAD SWAP1 DUP1 PUSH1 0x7 ADD SLOAD SWAP1 DUP1 PUSH1 0x8 ADD PUSH1 0x0 SWAP1 SLOAD SWAP1 PUSH2 0x100 EXP SWAP1 DIV PUSH1 0xFF AND SWAP1 DUP1 PUSH1 0x9 ADD SLOAD SWAP1 POP DUP8 JUMP JUMPDEST PUSH1 0x9 SLOAD DUP2 JUMP JUMPDEST PUSH1 0x0 DUP1 SLOAD SWAP1 PUSH2 0x100 EXP SWAP1 DIV PUSH20 0xFFFFFFFFFFFFFFFFFFFFFFFFFFFFFFFFFFFFFFFF AND PUSH20 0xFFFFFFFFFFFFFFFFFFFFFFFFFFFFFFFFFFFFFFFF AND CALLER PUSH20 0xFFFFFFFFFFFFFFFFFFFFFFFFFFFFFFFFFFFFFFFF AND EQ PUSH2 0x208C JUMPI PUSH1 0x40 MLOAD PUSH32 0x8C379A000000000000000000000000000000000000000000000000000000000 DUP2 MSTORE PUSH1 0x4 ADD PUSH2 0x2083 SWAP1 PUSH2 0x2DAA JUMP JUMPDEST PUSH1 0x40 MLOAD DUP1 SWAP2 SUB SWAP1 REVERT JUMPDEST DUP1 PUSH1 0x0 DUP1 PUSH2 0x100 EXP DUP2 SLOAD DUP2 PUSH20 0xFFFFFFFFFFFFFFFFFFFFFFFFFFFFFFFFFFFFFFFF MUL NOT AND SWAP1 DUP4 PUSH20 0xFFFFFFFFFFFFFFFFFFFFFFFFFFFFFFFFFFFFFFFF AND MUL OR SWAP1 SSTORE POP POP JUMP JUMPDEST PUSH1 0x60 PUSH1 0x0 PUSH1 0x14 PUSH8 0xFFFFFFFFFFFFFFFF DUP2 GT ISZERO PUSH2 0x20EE JUMPI PUSH2 0x20ED PUSH2 0x310D JUMP JUMPDEST JUMPDEST PUSH1 0x40 MLOAD SWAP1 DUP1 DUP3 MSTORE DUP1 PUSH1 0x20 MUL PUSH1 0x20 ADD DUP3 ADD PUSH1 0x40 MSTORE DUP1 ISZERO PUSH2 0x211C JUMPI DUP2 PUSH1 0x20 ADD PUSH1 0x20 DUP3 MUL DUP1 CALLDATASIZE DUP4 CALLDATACOPY DUP1 DUP3 ADD SWAP2 POP POP SWAP1 POP JUMPDEST POP SWAP1 POP PUSH1 0x0 JUMPDEST PUSH1 0x14 DUP2 LT ISZERO PUSH2 0x223A JUMPI PUSH1 0x0 PUSH1 0xC PUSH1 0x0 CALLER PUSH20 0xFFFFFFFFFFFFFFFFFFFFFFFFFFFFFFFFFFFFFFFF AND PUSH20 0xFFFFFFFFFFFFFFFFFFFFFFFFFFFFFFFFFFFFFFFF AND DUP2 MSTORE PUSH1 0x20 ADD SWAP1 DUP2 MSTORE PUSH1 0x20 ADD PUSH1 0x0 KECCAK256 PUSH1 0x3 ADD PUSH1 0x0 DUP4 DUP2 MSTORE PUSH1 0x20 ADD SWAP1 DUP2 MSTORE PUSH1 0x20 ADD PUSH1 0x0 KECCAK256 PUSH1 0x0 ADD SLOAD GT ISZERO PUSH2 0x2205 JUMPI PUSH1 0xC PUSH1 0x0 CALLER PUSH20 0xFFFFFFFFFFFFFFFFFFFFFFFFFFFFFFFFFFFFFFFF AND PUSH20 0xFFFFFFFFFFFFFFFFFFFFFFFFFFFFFFFFFFFFFFFF AND DUP2 MSTORE PUSH1 0x20 ADD SWAP1 DUP2 MSTORE PUSH1 0x20 ADD PUSH1 0x0 KECCAK256 PUSH1 0x3 ADD PUSH1 0x0 DUP3 DUP2 MSTORE PUSH1 0x20 ADD SWAP1 DUP2 MSTORE PUSH1 0x20 ADD PUSH1 0x0 KECCAK256 PUSH1 0x1 ADD SLOAD DUP3 DUP3 DUP2 MLOAD DUP2 LT PUSH2 0x21F4 JUMPI PUSH2 0x21F3 PUSH2 0x30DE JUMP JUMPDEST JUMPDEST PUSH1 0x20 MUL PUSH1 0x20 ADD ADD DUP2 DUP2 MSTORE POP POP PUSH2 0x2227 JUMP JUMPDEST PUSH1 0x0 DUP3 DUP3 DUP2 MLOAD DUP2 LT PUSH2 0x221A JUMPI PUSH2 0x2219 PUSH2 0x30DE JUMP JUMPDEST JUMPDEST PUSH1 0x20 MUL PUSH1 0x20 ADD ADD DUP2 DUP2 MSTORE POP POP JUMPDEST DUP1 DUP1 PUSH2 0x2232 SWAP1 PUSH2 0x3037 JUMP JUMPDEST SWAP2 POP POP PUSH2 0x2122 JUMP JUMPDEST POP DUP1 SWAP2 POP POP SWAP1 JUMP JUMPDEST PUSH1 0x4 SLOAD DUP2 JUMP JUMPDEST PUSH1 0x6 SLOAD DUP2 JUMP JUMPDEST PUSH1 0x0 DUP1 PUSH1 0x0 DUP1 PUSH1 0x0 PUSH1 0xC PUSH1 0x0 DUP8 PUSH20 0xFFFFFFFFFFFFFFFFFFFFFFFFFFFFFFFFFFFFFFFF AND PUSH20 0xFFFFFFFFFFFFFFFFFFFFFFFFFFFFFFFFFFFFFFFF AND DUP2 MSTORE PUSH1 0x20 ADD SWAP1 DUP2 MSTORE PUSH1 0x20 ADD PUSH1 0x0 KECCAK256 PUSH1 0x5 ADD SLOAD SWAP1 POP PUSH1 0x0 JUMPDEST DUP2 DUP2 LT ISZERO PUSH2 0x24E9 JUMPI PUSH1 0xC PUSH1 0x0 DUP9 PUSH20 0xFFFFFFFFFFFFFFFFFFFFFFFFFFFFFFFFFFFFFFFF AND PUSH20 0xFFFFFFFFFFFFFFFFFFFFFFFFFFFFFFFFFFFFFFFF AND DUP2 MSTORE PUSH1 0x20 ADD SWAP1 DUP2 MSTORE PUSH1 0x20 ADD PUSH1 0x0 KECCAK256 PUSH1 0x0 ADD PUSH1 0x0 DUP3 DUP2 MSTORE PUSH1 0x20 ADD SWAP1 DUP2 MSTORE PUSH1 0x20 ADD PUSH1 0x0 KECCAK256 PUSH1 0x5 ADD PUSH1 0x0 SWAP1 SLOAD SWAP1 PUSH2 0x100 EXP SWAP1 DIV PUSH1 0xFF AND PUSH2 0x2377 JUMPI PUSH1 0xC PUSH1 0x0 DUP9 PUSH20 0xFFFFFFFFFFFFFFFFFFFFFFFFFFFFFFFFFFFFFFFF AND PUSH20 0xFFFFFFFFFFFFFFFFFFFFFFFFFFFFFFFFFFFFFFFF AND DUP2 MSTORE PUSH1 0x20 ADD SWAP1 DUP2 MSTORE PUSH1 0x20 ADD PUSH1 0x0 KECCAK256 PUSH1 0x0 ADD PUSH1 0x0 DUP3 DUP2 MSTORE PUSH1 0x20 ADD SWAP1 DUP2 MSTORE PUSH1 0x20 ADD PUSH1 0x0 KECCAK256 PUSH1 0x2 ADD SLOAD TIMESTAMP PUSH2 0x2370 SWAP2 SWAP1 PUSH2 0x2FBB JUMP JUMPDEST SWAP4 POP PUSH2 0x2432 JUMP JUMPDEST PUSH1 0xC PUSH1 0x0 DUP9 PUSH20 0xFFFFFFFFFFFFFFFFFFFFFFFFFFFFFFFFFFFFFFFF AND PUSH20 0xFFFFFFFFFFFFFFFFFFFFFFFFFFFFFFFFFFFFFFFF AND DUP2 MSTORE PUSH1 0x20 ADD SWAP1 DUP2 MSTORE PUSH1 0x20 ADD PUSH1 0x0 KECCAK256 PUSH1 0x0 ADD PUSH1 0x0 DUP3 DUP2 MSTORE PUSH1 0x20 ADD SWAP1 DUP2 MSTORE PUSH1 0x20 ADD PUSH1 0x0 KECCAK256 PUSH1 0x2 ADD SLOAD PUSH1 0xC PUSH1 0x0 DUP10 PUSH20 0xFFFFFFFFFFFFFFFFFFFFFFFFFFFFFFFFFFFFFFFF AND PUSH20 0xFFFFFFFFFFFFFFFFFFFFFFFFFFFFFFFFFFFFFFFF AND DUP2 MSTORE PUSH1 0x20 ADD SWAP1 DUP2 MSTORE PUSH1 0x20 ADD PUSH1 0x0 KECCAK256 PUSH1 0x0 ADD PUSH1 0x0 DUP4 DUP2 MSTORE PUSH1 0x20 ADD SWAP1 DUP2 MSTORE PUSH1 0x20 ADD PUSH1 0x0 KECCAK256 PUSH1 0x4 ADD SLOAD PUSH2 0x242F SWAP2 SWAP1 PUSH2 0x2FBB JUMP JUMPDEST SWAP4 POP JUMPDEST PUSH1 0x3C DUP5 PUSH2 0x243F SWAP2 SWAP1 PUSH2 0x2F30 JUMP JUMPDEST SWAP4 POP PUSH1 0x0 DUP5 GT ISZERO PUSH2 0x24D6 JUMPI PUSH2 0x2710 PUSH1 0x32 PUSH1 0xC PUSH1 0x0 DUP11 PUSH20 0xFFFFFFFFFFFFFFFFFFFFFFFFFFFFFFFFFFFFFFFF AND PUSH20 0xFFFFFFFFFFFFFFFFFFFFFFFFFFFFFFFFFFFFFFFF AND DUP2 MSTORE PUSH1 0x20 ADD SWAP1 DUP2 MSTORE PUSH1 0x20 ADD PUSH1 0x0 KECCAK256 PUSH1 0x0 ADD PUSH1 0x0 DUP5 DUP2 MSTORE PUSH1 0x20 ADD SWAP1 DUP2 MSTORE PUSH1 0x20 ADD PUSH1 0x0 KECCAK256 PUSH1 0x0 ADD SLOAD PUSH2 0x24B0 SWAP2 SWAP1 PUSH2 0x2F61 JUMP JUMPDEST PUSH2 0x24BA SWAP2 SWAP1 PUSH2 0x2F30 JUMP JUMPDEST SWAP3 POP DUP3 DUP5 PUSH2 0x24C8 SWAP2 SWAP1 PUSH2 0x2F61 JUMP JUMPDEST DUP6 PUSH2 0x24D3 SWAP2 SWAP1 PUSH2 0x2EDA JUMP JUMPDEST SWAP5 POP JUMPDEST DUP1 DUP1 PUSH2 0x24E1 SWAP1 PUSH2 0x3037 JUMP JUMPDEST SWAP2 POP POP PUSH2 0x229E JUMP JUMPDEST POP PUSH1 0xC PUSH1 0x0 DUP8 PUSH20 0xFFFFFFFFFFFFFFFFFFFFFFFFFFFFFFFFFFFFFFFF AND PUSH20 0xFFFFFFFFFFFFFFFFFFFFFFFFFFFFFFFFFFFFFFFF AND DUP2 MSTORE PUSH1 0x20 ADD SWAP1 DUP2 MSTORE PUSH1 0x20 ADD PUSH1 0x0 KECCAK256 PUSH1 0x7 ADD SLOAD DUP5 PUSH2 0x2538 SWAP2 SWAP1 PUSH2 0x2FBB JUMP JUMPDEST SWAP4 POP DUP4 SWAP5 POP POP POP POP POP SWAP2 SWAP1 POP JUMP JUMPDEST PUSH1 0x0 PUSH1 0xC PUSH1 0x0 DUP4 PUSH20 0xFFFFFFFFFFFFFFFFFFFFFFFFFFFFFFFFFFFFFFFF AND PUSH20 0xFFFFFFFFFFFFFFFFFFFFFFFFFFFFFFFFFFFFFFFF AND DUP2 MSTORE PUSH1 0x20 ADD SWAP1 DUP2 MSTORE PUSH1 0x20 ADD PUSH1 0x0 KECCAK256 PUSH1 0x1 ADD DUP1 SLOAD SWAP1 POP SWAP1 POP SWAP2 SWAP1 POP JUMP JUMPDEST PUSH1 0x40 MLOAD DUP1 PUSH1 0xC0 ADD PUSH1 0x40 MSTORE DUP1 PUSH1 0x0 DUP2 MSTORE PUSH1 0x20 ADD PUSH1 0x0 DUP2 MSTORE PUSH1 0x20 ADD PUSH1 0x0 DUP2 MSTORE PUSH1 0x20 ADD PUSH1 0x0 DUP2 MSTORE PUSH1 0x20 ADD PUSH1 0x0 DUP2 MSTORE PUSH1 0x20 ADD PUSH1 0x0 ISZERO ISZERO DUP2 MSTORE POP SWAP1 JUMP JUMPDEST PUSH1 0x40 MLOAD DUP1 PUSH1 0xC0 ADD PUSH1 0x40 MSTORE DUP1 PUSH1 0x0 PUSH20 0xFFFFFFFFFFFFFFFFFFFFFFFFFFFFFFFFFFFFFFFF AND DUP2 MSTORE PUSH1 0x20 ADD PUSH1 0x0 DUP2 MSTORE PUSH1 0x20 ADD PUSH1 0x0 DUP2 MSTORE PUSH1 0x20 ADD PUSH1 0x0 DUP2 MSTORE PUSH1 0x20 ADD PUSH1 0x0 DUP2 MSTORE PUSH1 0x20 ADD PUSH1 0x0 DUP2 MSTORE POP SWAP1 JUMP JUMPDEST PUSH1 0x0 DUP2 CALLDATALOAD SWAP1 POP PUSH2 0x2628 DUP2 PUSH2 0x32A6 JUMP JUMPDEST SWAP3 SWAP2 POP POP JUMP JUMPDEST PUSH1 0x0 DUP2 MLOAD SWAP1 POP PUSH2 0x263D DUP2 PUSH2 0x32BD JUMP JUMPDEST SWAP3 SWAP2 POP POP JUMP JUMPDEST PUSH1 0x0 DUP2 CALLDATALOAD SWAP1 POP PUSH2 0x2652 DUP2 PUSH2 0x32D4 JUMP JUMPDEST SWAP3 SWAP2 POP POP JUMP JUMPDEST PUSH1 0x0 PUSH1 0x20 DUP3 DUP5 SUB SLT ISZERO PUSH2 0x266E JUMPI PUSH2 0x266D PUSH2 0x313C JUMP JUMPDEST JUMPDEST PUSH1 0x0 PUSH2 0x267C DUP5 DUP3 DUP6 ADD PUSH2 0x2619 JUMP JUMPDEST SWAP2 POP POP SWAP3 SWAP2 POP POP JUMP JUMPDEST PUSH1 0x0 PUSH1 0x20 DUP3 DUP5 SUB SLT ISZERO PUSH2 0x269B JUMPI PUSH2 0x269A PUSH2 0x313C JUMP JUMPDEST JUMPDEST PUSH1 0x0 PUSH2 0x26A9 DUP5 DUP3 DUP6 ADD PUSH2 0x262E JUMP JUMPDEST SWAP2 POP POP SWAP3 SWAP2 POP POP JUMP JUMPDEST PUSH1 0x0 PUSH1 0x20 DUP3 DUP5 SUB SLT ISZERO PUSH2 0x26C8 JUMPI PUSH2 0x26C7 PUSH2 0x313C JUMP JUMPDEST JUMPDEST PUSH1 0x0 PUSH2 0x26D6 DUP5 DUP3 DUP6 ADD PUSH2 0x2643 JUMP JUMPDEST SWAP2 POP POP SWAP3 SWAP2 POP POP JUMP JUMPDEST PUSH1 0x0 DUP1 PUSH1 0x40 DUP4 DUP6 SUB SLT ISZERO PUSH2 0x26F6 JUMPI PUSH2 0x26F5 PUSH2 0x313C JUMP JUMPDEST JUMPDEST PUSH1 0x0 PUSH2 0x2704 DUP6 DUP3 DUP7 ADD PUSH2 0x2643 JUMP JUMPDEST SWAP3 POP POP PUSH1 0x20 PUSH2 0x2715 DUP6 DUP3 DUP7 ADD PUSH2 0x2619 JUMP JUMPDEST SWAP2 POP POP SWAP3 POP SWAP3 SWAP1 POP JUMP JUMPDEST PUSH1 0x0 DUP1 PUSH1 0x40 DUP4 DUP6 SUB SLT ISZERO PUSH2 0x2736 JUMPI PUSH2 0x2735 PUSH2 0x313C JUMP JUMPDEST JUMPDEST PUSH1 0x0 PUSH2 0x2744 DUP6 DUP3 DUP7 ADD PUSH2 0x2643 JUMP JUMPDEST SWAP3 POP POP PUSH1 0x20 PUSH2 0x2755 DUP6 DUP3 DUP7 ADD PUSH2 0x2643 JUMP JUMPDEST SWAP2 POP POP SWAP3 POP SWAP3 SWAP1 POP JUMP JUMPDEST PUSH1 0x0 DUP1 PUSH1 0x0 DUP1 PUSH1 0x80 DUP6 DUP8 SUB SLT ISZERO PUSH2 0x2779 JUMPI PUSH2 0x2778 PUSH2 0x313C JUMP JUMPDEST JUMPDEST PUSH1 0x0 PUSH2 0x2787 DUP8 DUP3 DUP9 ADD PUSH2 0x2643 JUMP JUMPDEST SWAP5 POP POP PUSH1 0x20 PUSH2 0x2798 DUP8 DUP3 DUP9 ADD PUSH2 0x2643 JUMP JUMPDEST SWAP4 POP POP PUSH1 0x40 PUSH2 0x27A9 DUP8 DUP3 DUP9 ADD PUSH2 0x2643 JUMP JUMPDEST SWAP3 POP POP PUSH1 0x60 PUSH2 0x27BA DUP8 DUP3 DUP9 ADD PUSH2 0x2643 JUMP JUMPDEST SWAP2 POP POP SWAP3 SWAP6 SWAP2 SWAP5 POP SWAP3 POP JUMP JUMPDEST PUSH1 0x0 PUSH2 0x27D2 DUP4 DUP4 PUSH2 0x2826 JUMP JUMPDEST PUSH1 0x20 DUP4 ADD SWAP1 POP SWAP3 SWAP2 POP POP JUMP JUMPDEST PUSH1 0x0 PUSH2 0x27EA DUP4 DUP4 PUSH2 0x2A89 JUMP JUMPDEST PUSH1 0xC0 DUP4 ADD SWAP1 POP SWAP3 SWAP2 POP POP JUMP JUMPDEST PUSH1 0x0 PUSH2 0x2802 DUP4 DUP4 PUSH2 0x2B04 JUMP JUMPDEST PUSH1 0xC0 DUP4 ADD SWAP1 POP SWAP3 SWAP2 POP POP JUMP JUMPDEST PUSH1 0x0 PUSH2 0x281A DUP4 DUP4 PUSH2 0x2B7F JUMP JUMPDEST PUSH1 0x20 DUP4 ADD SWAP1 POP SWAP3 SWAP2 POP POP JUMP JUMPDEST PUSH2 0x282F DUP2 PUSH2 0x2FEF JUMP JUMPDEST DUP3 MSTORE POP POP JUMP JUMPDEST PUSH2 0x283E DUP2 PUSH2 0x2FEF JUMP JUMPDEST DUP3 MSTORE POP POP JUMP JUMPDEST PUSH1 0x0 PUSH2 0x284F DUP3 PUSH2 0x2E25 JUMP JUMPDEST PUSH2 0x2859 DUP2 DUP6 PUSH2 0x2E85 JUMP JUMPDEST SWAP4 POP PUSH2 0x2864 DUP4 PUSH2 0x2DE5 JUMP JUMPDEST DUP1 PUSH1 0x0 JUMPDEST DUP4 DUP2 LT ISZERO PUSH2 0x2895 JUMPI DUP2 MLOAD PUSH2 0x287C DUP9 DUP3 PUSH2 0x27C6 JUMP JUMPDEST SWAP8 POP PUSH2 0x2887 DUP4 PUSH2 0x2E51 JUMP JUMPDEST SWAP3 POP POP PUSH1 0x1 DUP2 ADD SWAP1 POP PUSH2 0x2868 JUMP JUMPDEST POP DUP6 SWAP4 POP POP POP POP SWAP3 SWAP2 POP POP JUMP JUMPDEST PUSH1 0x0 PUSH2 0x28AD DUP3 PUSH2 0x2E30 JUMP JUMPDEST PUSH2 0x28B7 DUP2 DUP6 PUSH2 0x2E96 JUMP JUMPDEST SWAP4 POP PUSH2 0x28C2 DUP4 PUSH2 0x2DF5 JUMP JUMPDEST DUP1 PUSH1 0x0 JUMPDEST DUP4 DUP2 LT ISZERO PUSH2 0x28F3 JUMPI DUP2 MLOAD PUSH2 0x28DA DUP9 DUP3 PUSH2 0x27DE JUMP JUMPDEST SWAP8 POP PUSH2 0x28E5 DUP4 PUSH2 0x2E5E JUMP JUMPDEST SWAP3 POP POP PUSH1 0x1 DUP2 ADD SWAP1 POP PUSH2 0x28C6 JUMP JUMPDEST POP DUP6 SWAP4 POP POP POP POP SWAP3 SWAP2 POP POP JUMP JUMPDEST PUSH1 0x0 PUSH2 0x290B DUP3 PUSH2 0x2E3B JUMP JUMPDEST PUSH2 0x2915 DUP2 DUP6 PUSH2 0x2EA7 JUMP JUMPDEST SWAP4 POP PUSH2 0x2920 DUP4 PUSH2 0x2E05 JUMP JUMPDEST DUP1 PUSH1 0x0 JUMPDEST DUP4 DUP2 LT ISZERO PUSH2 0x2951 JUMPI DUP2 MLOAD PUSH2 0x2938 DUP9 DUP3 PUSH2 0x27F6 JUMP JUMPDEST SWAP8 POP PUSH2 0x2943 DUP4 PUSH2 0x2E6B JUMP JUMPDEST SWAP3 POP POP PUSH1 0x1 DUP2 ADD SWAP1 POP PUSH2 0x2924 JUMP JUMPDEST POP DUP6 SWAP4 POP POP POP POP SWAP3 SWAP2 POP POP JUMP JUMPDEST PUSH1 0x0 PUSH2 0x2969 DUP3 PUSH2 0x2E46 JUMP JUMPDEST PUSH2 0x2973 DUP2 DUP6 PUSH2 0x2EB8 JUMP JUMPDEST SWAP4 POP PUSH2 0x297E DUP4 PUSH2 0x2E15 JUMP JUMPDEST DUP1 PUSH1 0x0 JUMPDEST DUP4 DUP2 LT ISZERO PUSH2 0x29AF JUMPI DUP2 MLOAD PUSH2 0x2996 DUP9 DUP3 PUSH2 0x280E JUMP JUMPDEST SWAP8 POP PUSH2 0x29A1 DUP4 PUSH2 0x2E78 JUMP JUMPDEST SWAP3 POP POP PUSH1 0x1 DUP2 ADD SWAP1 POP PUSH2 0x2982 JUMP JUMPDEST POP DUP6 SWAP4 POP POP POP POP SWAP3 SWAP2 POP POP JUMP JUMPDEST PUSH2 0x29C5 DUP2 PUSH2 0x3001 JUMP JUMPDEST DUP3 MSTORE POP POP JUMP JUMPDEST PUSH2 0x29D4 DUP2 PUSH2 0x3001 JUMP JUMPDEST DUP3 MSTORE POP POP JUMP JUMPDEST PUSH1 0x0 PUSH2 0x29E7 PUSH1 0x25 DUP4 PUSH2 0x2EC9 JUMP JUMPDEST SWAP2 POP PUSH2 0x29F2 DUP3 PUSH2 0x3141 JUMP JUMPDEST PUSH1 0x40 DUP3 ADD SWAP1 POP SWAP2 SWAP1 POP JUMP JUMPDEST PUSH1 0x0 PUSH2 0x2A0A PUSH1 0x35 DUP4 PUSH2 0x2EC9 JUMP JUMPDEST SWAP2 POP PUSH2 0x2A15 DUP3 PUSH2 0x3190 JUMP JUMPDEST PUSH1 0x40 DUP3 ADD SWAP1 POP SWAP2 SWAP1 POP JUMP JUMPDEST PUSH1 0x0 PUSH2 0x2A2D PUSH1 0x22 DUP4 PUSH2 0x2EC9 JUMP JUMPDEST SWAP2 POP PUSH2 0x2A38 DUP3 PUSH2 0x31DF JUMP JUMPDEST PUSH1 0x40 DUP3 ADD SWAP1 POP SWAP2 SWAP1 POP JUMP JUMPDEST PUSH1 0x0 PUSH2 0x2A50 PUSH1 0x1F DUP4 PUSH2 0x2EC9 JUMP JUMPDEST SWAP2 POP PUSH2 0x2A5B DUP3 PUSH2 0x322E JUMP JUMPDEST PUSH1 0x20 DUP3 ADD SWAP1 POP SWAP2 SWAP1 POP JUMP JUMPDEST PUSH1 0x0 PUSH2 0x2A73 PUSH1 0x21 DUP4 PUSH2 0x2EC9 JUMP JUMPDEST SWAP2 POP PUSH2 0x2A7E DUP3 PUSH2 0x3257 JUMP JUMPDEST PUSH1 0x40 DUP3 ADD SWAP1 POP SWAP2 SWAP1 POP JUMP JUMPDEST PUSH1 0xC0 DUP3 ADD PUSH1 0x0 DUP3 ADD MLOAD PUSH2 0x2A9F PUSH1 0x0 DUP6 ADD DUP3 PUSH2 0x2826 JUMP JUMPDEST POP PUSH1 0x20 DUP3 ADD MLOAD PUSH2 0x2AB2 PUSH1 0x20 DUP6 ADD DUP3 PUSH2 0x2B7F JUMP JUMPDEST POP PUSH1 0x40 DUP3 ADD MLOAD PUSH2 0x2AC5 PUSH1 0x40 DUP6 ADD DUP3 PUSH2 0x2B7F JUMP JUMPDEST POP PUSH1 0x60 DUP3 ADD MLOAD PUSH2 0x2AD8 PUSH1 0x60 DUP6 ADD DUP3 PUSH2 0x2B7F JUMP JUMPDEST POP PUSH1 0x80 DUP3 ADD MLOAD PUSH2 0x2AEB PUSH1 0x80 DUP6 ADD DUP3 PUSH2 0x2B7F JUMP JUMPDEST POP PUSH1 0xA0 DUP3 ADD MLOAD PUSH2 0x2AFE PUSH1 0xA0 DUP6 ADD DUP3 PUSH2 0x2B7F JUMP JUMPDEST POP POP POP POP JUMP JUMPDEST PUSH1 0xC0 DUP3 ADD PUSH1 0x0 DUP3 ADD MLOAD PUSH2 0x2B1A PUSH1 0x0 DUP6 ADD DUP3 PUSH2 0x2B7F JUMP JUMPDEST POP PUSH1 0x20 DUP3 ADD MLOAD PUSH2 0x2B2D PUSH1 0x20 DUP6 ADD DUP3 PUSH2 0x2B7F JUMP JUMPDEST POP PUSH1 0x40 DUP3 ADD MLOAD PUSH2 0x2B40 PUSH1 0x40 DUP6 ADD DUP3 PUSH2 0x2B7F JUMP JUMPDEST POP PUSH1 0x60 DUP3 ADD MLOAD PUSH2 0x2B53 PUSH1 0x60 DUP6 ADD DUP3 PUSH2 0x2B7F JUMP JUMPDEST POP PUSH1 0x80 DUP3 ADD MLOAD PUSH2 0x2B66 PUSH1 0x80 DUP6 ADD DUP3 PUSH2 0x2B7F JUMP JUMPDEST POP PUSH1 0xA0 DUP3 ADD MLOAD PUSH2 0x2B79 PUSH1 0xA0 DUP6 ADD DUP3 PUSH2 0x29BC JUMP JUMPDEST POP POP POP POP JUMP JUMPDEST PUSH2 0x2B88 DUP2 PUSH2 0x302D JUMP JUMPDEST DUP3 MSTORE POP POP JUMP JUMPDEST PUSH2 0x2B97 DUP2 PUSH2 0x302D JUMP JUMPDEST DUP3 MSTORE POP POP JUMP JUMPDEST PUSH1 0x0 PUSH1 0x20 DUP3 ADD SWAP1 POP PUSH2 0x2BB2 PUSH1 0x0 DUP4 ADD DUP5 PUSH2 0x2835 JUMP JUMPDEST SWAP3 SWAP2 POP POP JUMP JUMPDEST PUSH1 0x0 PUSH1 0x60 DUP3 ADD SWAP1 POP PUSH2 0x2BCD PUSH1 0x0 DUP4 ADD DUP7 PUSH2 0x2835 JUMP JUMPDEST PUSH2 0x2BDA PUSH1 0x20 DUP4 ADD DUP6 PUSH2 0x2835 JUMP JUMPDEST PUSH2 0x2BE7 PUSH1 0x40 DUP4 ADD DUP5 PUSH2 0x2B8E JUMP JUMPDEST SWAP5 SWAP4 POP POP POP POP JUMP JUMPDEST PUSH1 0x0 PUSH1 0x40 DUP3 ADD SWAP1 POP PUSH2 0x2C04 PUSH1 0x0 DUP4 ADD DUP6 PUSH2 0x2835 JUMP JUMPDEST PUSH2 0x2C11 PUSH1 0x20 DUP4 ADD DUP5 PUSH2 0x2B8E JUMP JUMPDEST SWAP4 SWAP3 POP POP POP JUMP JUMPDEST PUSH1 0x0 PUSH1 0xE0 DUP3 ADD SWAP1 POP PUSH2 0x2C2D PUSH1 0x0 DUP4 ADD DUP11 PUSH2 0x2835 JUMP JUMPDEST PUSH2 0x2C3A PUSH1 0x20 DUP4 ADD DUP10 PUSH2 0x2B8E JUMP JUMPDEST PUSH2 0x2C47 PUSH1 0x40 DUP4 ADD DUP9 PUSH2 0x2B8E JUMP JUMPDEST PUSH2 0x2C54 PUSH1 0x60 DUP4 ADD DUP8 PUSH2 0x2B8E JUMP JUMPDEST PUSH2 0x2C61 PUSH1 0x80 DUP4 ADD DUP7 PUSH2 0x2B8E JUMP JUMPDEST PUSH2 0x2C6E PUSH1 0xA0 DUP4 ADD DUP6 PUSH2 0x29CB JUMP JUMPDEST PUSH2 0x2C7B PUSH1 0xC0 DUP4 ADD DUP5 PUSH2 0x2B8E JUMP JUMPDEST SWAP9 SWAP8 POP POP POP POP POP POP POP POP JUMP JUMPDEST PUSH1 0x0 PUSH1 0x20 DUP3 ADD SWAP1 POP DUP2 DUP2 SUB PUSH1 0x0 DUP4 ADD MSTORE PUSH2 0x2CA1 DUP2 DUP5 PUSH2 0x2844 JUMP JUMPDEST SWAP1 POP SWAP3 SWAP2 POP POP JUMP JUMPDEST PUSH1 0x0 PUSH1 0x20 DUP3 ADD SWAP1 POP DUP2 DUP2 SUB PUSH1 0x0 DUP4 ADD MSTORE PUSH2 0x2CC3 DUP2 DUP5 PUSH2 0x28A2 JUMP JUMPDEST SWAP1 POP SWAP3 SWAP2 POP POP JUMP JUMPDEST PUSH1 0x0 PUSH1 0x20 DUP3 ADD SWAP1 POP DUP2 DUP2 SUB PUSH1 0x0 DUP4 ADD MSTORE PUSH2 0x2CE5 DUP2 DUP5 PUSH2 0x2900 JUMP JUMPDEST SWAP1 POP SWAP3 SWAP2 POP POP JUMP JUMPDEST PUSH1 0x0 PUSH1 0x20 DUP3 ADD SWAP1 POP DUP2 DUP2 SUB PUSH1 0x0 DUP4 ADD MSTORE PUSH2 0x2D07 DUP2 DUP5 PUSH2 0x295E JUMP JUMPDEST SWAP1 POP SWAP3 SWAP2 POP POP JUMP JUMPDEST PUSH1 0x0 PUSH1 0x20 DUP3 ADD SWAP1 POP PUSH2 0x2D24 PUSH1 0x0 DUP4 ADD DUP5 PUSH2 0x29CB JUMP JUMPDEST SWAP3 SWAP2 POP POP JUMP JUMPDEST PUSH1 0x0 PUSH1 0x20 DUP3 ADD SWAP1 POP DUP2 DUP2 SUB PUSH1 0x0 DUP4 ADD MSTORE PUSH2 0x2D43 DUP2 PUSH2 0x29DA JUMP JUMPDEST SWAP1 POP SWAP2 SWAP1 POP JUMP JUMPDEST PUSH1 0x0 PUSH1 0x20 DUP3 ADD SWAP1 POP DUP2 DUP2 SUB PUSH1 0x0 DUP4 ADD MSTORE PUSH2 0x2D63 DUP2 PUSH2 0x29FD JUMP JUMPDEST SWAP1 POP SWAP2 SWAP1 POP JUMP JUMPDEST PUSH1 0x0 PUSH1 0x20 DUP3 ADD SWAP1 POP DUP2 DUP2 SUB PUSH1 0x0 DUP4 ADD MSTORE PUSH2 0x2D83 DUP2 PUSH2 0x2A20 JUMP JUMPDEST SWAP1 POP SWAP2 SWAP1 POP JUMP JUMPDEST PUSH1 0x0 PUSH1 0x20 DUP3 ADD SWAP1 POP DUP2 DUP2 SUB PUSH1 0x0 DUP4 ADD MSTORE PUSH2 0x2DA3 DUP2 PUSH2 0x2A43 JUMP JUMPDEST SWAP1 POP SWAP2 SWAP1 POP JUMP JUMPDEST PUSH1 0x0 PUSH1 0x20 DUP3 ADD SWAP1 POP DUP2 DUP2 SUB PUSH1 0x0 DUP4 ADD MSTORE PUSH2 0x2DC3 DUP2 PUSH2 0x2A66 JUMP JUMPDEST SWAP1 POP SWAP2 SWAP1 POP JUMP JUMPDEST PUSH1 0x0 PUSH1 0x20 DUP3 ADD SWAP1 POP PUSH2 0x2DDF PUSH1 0x0 DUP4 ADD DUP5 PUSH2 0x2B8E JUMP JUMPDEST SWAP3 SWAP2 POP POP JUMP JUMPDEST PUSH1 0x0 DUP2 SWAP1 POP PUSH1 0x20 DUP3 ADD SWAP1 POP SWAP2 SWAP1 POP JUMP JUMPDEST PUSH1 0x0 DUP2 SWAP1 POP PUSH1 0x20 DUP3 ADD SWAP1 POP SWAP2 SWAP1 POP JUMP JUMPDEST PUSH1 0x0 DUP2 SWAP1 POP PUSH1 0x20 DUP3 ADD SWAP1 POP SWAP2 SWAP1 POP JUMP JUMPDEST PUSH1 0x0 DUP2 SWAP1 POP PUSH1 0x20 DUP3 ADD SWAP1 POP SWAP2 SWAP1 POP JUMP JUMPDEST PUSH1 0x0 DUP2 MLOAD SWAP1 POP SWAP2 SWAP1 POP JUMP JUMPDEST PUSH1 0x0 DUP2 MLOAD SWAP1 POP SWAP2 SWAP1 POP JUMP JUMPDEST PUSH1 0x0 DUP2 MLOAD SWAP1 POP SWAP2 SWAP1 POP JUMP JUMPDEST PUSH1 0x0 DUP2 MLOAD SWAP1 POP SWAP2 SWAP1 POP JUMP JUMPDEST PUSH1 0x0 PUSH1 0x20 DUP3 ADD SWAP1 POP SWAP2 SWAP1 POP JUMP JUMPDEST PUSH1 0x0 PUSH1 0x20 DUP3 ADD SWAP1 POP SWAP2 SWAP1 POP JUMP JUMPDEST PUSH1 0x0 PUSH1 0x20 DUP3 ADD SWAP1 POP SWAP2 SWAP1 POP JUMP JUMPDEST PUSH1 0x0 PUSH1 0x20 DUP3 ADD SWAP1 POP SWAP2 SWAP1 POP JUMP JUMPDEST PUSH1 0x0 DUP3 DUP3 MSTORE PUSH1 0x20 DUP3 ADD SWAP1 POP SWAP3 SWAP2 POP POP JUMP JUMPDEST PUSH1 0x0 DUP3 DUP3 MSTORE PUSH1 0x20 DUP3 ADD SWAP1 POP SWAP3 SWAP2 POP POP JUMP JUMPDEST PUSH1 0x0 DUP3 DUP3 MSTORE PUSH1 0x20 DUP3 ADD SWAP1 POP SWAP3 SWAP2 POP POP JUMP JUMPDEST PUSH1 0x0 DUP3 DUP3 MSTORE PUSH1 0x20 DUP3 ADD SWAP1 POP SWAP3 SWAP2 POP POP JUMP JUMPDEST PUSH1 0x0 DUP3 DUP3 MSTORE PUSH1 0x20 DUP3 ADD SWAP1 POP SWAP3 SWAP2 POP POP JUMP JUMPDEST PUSH1 0x0 PUSH2 0x2EE5 DUP3 PUSH2 0x302D JUMP JUMPDEST SWAP2 POP PUSH2 0x2EF0 DUP4 PUSH2 0x302D JUMP JUMPDEST SWAP3 POP DUP3 PUSH32 0xFFFFFFFFFFFFFFFFFFFFFFFFFFFFFFFFFFFFFFFFFFFFFFFFFFFFFFFFFFFFFFFF SUB DUP3 GT ISZERO PUSH2 0x2F25 JUMPI PUSH2 0x2F24 PUSH2 0x3080 JUMP JUMPDEST JUMPDEST DUP3 DUP3 ADD SWAP1 POP SWAP3 SWAP2 POP POP JUMP JUMPDEST PUSH1 0x0 PUSH2 0x2F3B DUP3 PUSH2 0x302D JUMP JUMPDEST SWAP2 POP PUSH2 0x2F46 DUP4 PUSH2 0x302D JUMP JUMPDEST SWAP3 POP DUP3 PUSH2 0x2F56 JUMPI PUSH2 0x2F55 PUSH2 0x30AF JUMP JUMPDEST JUMPDEST DUP3 DUP3 DIV SWAP1 POP SWAP3 SWAP2 POP POP JUMP JUMPDEST PUSH1 0x0 PUSH2 0x2F6C DUP3 PUSH2 0x302D JUMP JUMPDEST SWAP2 POP PUSH2 0x2F77 DUP4 PUSH2 0x302D JUMP JUMPDEST SWAP3 POP DUP2 PUSH32 0xFFFFFFFFFFFFFFFFFFFFFFFFFFFFFFFFFFFFFFFFFFFFFFFFFFFFFFFFFFFFFFFF DIV DUP4 GT DUP3 ISZERO ISZERO AND ISZERO PUSH2 0x2FB0 JUMPI PUSH2 0x2FAF PUSH2 0x3080 JUMP JUMPDEST JUMPDEST DUP3 DUP3 MUL SWAP1 POP SWAP3 SWAP2 POP POP JUMP JUMPDEST PUSH1 0x0 PUSH2 0x2FC6 DUP3 PUSH2 0x302D JUMP JUMPDEST SWAP2 POP PUSH2 0x2FD1 DUP4 PUSH2 0x302D JUMP JUMPDEST SWAP3 POP DUP3 DUP3 LT ISZERO PUSH2 0x2FE4 JUMPI PUSH2 0x2FE3 PUSH2 0x3080 JUMP JUMPDEST JUMPDEST DUP3 DUP3 SUB SWAP1 POP SWAP3 SWAP2 POP POP JUMP JUMPDEST PUSH1 0x0 PUSH2 0x2FFA DUP3 PUSH2 0x300D JUMP JUMPDEST SWAP1 POP SWAP2 SWAP1 POP JUMP JUMPDEST PUSH1 0x0 DUP2 ISZERO ISZERO SWAP1 POP SWAP2 SWAP1 POP JUMP JUMPDEST PUSH1 0x0 PUSH20 0xFFFFFFFFFFFFFFFFFFFFFFFFFFFFFFFFFFFFFFFF DUP3 AND SWAP1 POP SWAP2 SWAP1 POP JUMP JUMPDEST PUSH1 0x0 DUP2 SWAP1 POP SWAP2 SWAP1 POP JUMP JUMPDEST PUSH1 0x0 PUSH2 0x3042 DUP3 PUSH2 0x302D JUMP JUMPDEST SWAP2 POP PUSH32 0xFFFFFFFFFFFFFFFFFFFFFFFFFFFFFFFFFFFFFFFFFFFFFFFFFFFFFFFFFFFFFFFF DUP3 EQ ISZERO PUSH2 0x3075 JUMPI PUSH2 0x3074 PUSH2 0x3080 JUMP JUMPDEST JUMPDEST PUSH1 0x1 DUP3 ADD SWAP1 POP SWAP2 SWAP1 POP JUMP JUMPDEST PUSH32 0x4E487B7100000000000000000000000000000000000000000000000000000000 PUSH1 0x0 MSTORE PUSH1 0x11 PUSH1 0x4 MSTORE PUSH1 0x24 PUSH1 0x0 REVERT JUMPDEST PUSH32 0x4E487B7100000000000000000000000000000000000000000000000000000000 PUSH1 0x0 MSTORE PUSH1 0x12 PUSH1 0x4 MSTORE PUSH1 0x24 PUSH1 0x0 REVERT JUMPDEST PUSH32 0x4E487B7100000000000000000000000000000000000000000000000000000000 PUSH1 0x0 MSTORE PUSH1 0x32 PUSH1 0x4 MSTORE PUSH1 0x24 PUSH1 0x0 REVERT JUMPDEST PUSH32 0x4E487B7100000000000000000000000000000000000000000000000000000000 PUSH1 0x0 MSTORE PUSH1 0x41 PUSH1 0x4 MSTORE PUSH1 0x24 PUSH1 0x0 REVERT JUMPDEST PUSH1 0x0 DUP1 REVERT JUMPDEST PUSH32 0x796F7520646F6E74206861766520696E766573746D656E7420746F2077697468 PUSH1 0x0 DUP3 ADD MSTORE PUSH32 0x647261776E000000000000000000000000000000000000000000000000000000 PUSH1 0x20 DUP3 ADD MSTORE POP JUMP JUMPDEST PUSH32 0x76616C7565206973206E6F742067726561746572207468616E20313030303020 PUSH1 0x0 DUP3 ADD MSTORE PUSH32 0x616E64206C657373207468616E20353030303030300000000000000000000000 PUSH1 0x20 DUP3 ADD MSTORE POP JUMP JUMPDEST PUSH32 0x796F7520646F6E742068617665207265776172647320746F2077697468647261 PUSH1 0x0 DUP3 ADD MSTORE PUSH32 0x776E000000000000000000000000000000000000000000000000000000000000 PUSH1 0x20 DUP3 ADD MSTORE POP JUMP JUMPDEST PUSH32 0x796F752063616E74207769746864726177206265666F72652031207965617200 PUSH1 0x0 DUP3 ADD MSTORE POP JUMP JUMPDEST PUSH32 0x6F6E6C79204F776E65722063616E2063616C6C20746869732066756E6374696F PUSH1 0x0 DUP3 ADD MSTORE PUSH32 0x6E00000000000000000000000000000000000000000000000000000000000000 PUSH1 0x20 DUP3 ADD MSTORE POP JUMP JUMPDEST PUSH2 0x32AF DUP2 PUSH2 0x2FEF JUMP JUMPDEST DUP2 EQ PUSH2 0x32BA JUMPI PUSH1 0x0 DUP1 REVERT JUMPDEST POP JUMP JUMPDEST PUSH2 0x32C6 DUP2 PUSH2 0x3001 JUMP JUMPDEST DUP2 EQ PUSH2 0x32D1 JUMPI PUSH1 0x0 DUP1 REVERT JUMPDEST POP JUMP JUMPDEST PUSH2 0x32DD DUP2 PUSH2 0x302D JUMP JUMPDEST DUP2 EQ PUSH2 0x32E8 JUMPI PUSH1 0x0 DUP1 REVERT JUMPDEST POP JUMP INVALID LOG2 PUSH5 0x6970667358 0x22 SLT KECCAK256 DIV SELFBALANCE 0xF6 POP 0xCF 0xAA MOD 0x21 NUMBER LOG1 0xF6 CALLDATACOPY 0xBE 0xEA CALL PUSH4 0x5C01FEA4 0xBE 0xDD SMOD 0xD6 0xA7 0xA6 PUSH11 0x4746542AB064736F6C6343 STOP ADDMOD SMOD STOP CALLER "
				},
				"gasEstimates": {
					"creation": {
						"codeDepositCost": "2617800",
						"executionCost": "186169",
						"totalCost": "2803969"
					},
					"external": {
						"Admin_data()": "infinite",
						"All_investors(uint256)": "2906",
						"DUSDReferralsList()": "infinite",
						"DUSDTotalReferrals()": "2608",
						"DUSDinvestor(address)": "infinite",
						"Stake(uint256,address)": "infinite",
						"denomenator()": "2474",
						"getAllDUSDinvestments()": "infinite",
						"getReward()": "infinite",
						"getTotalInvestmentDUSD()": "2622",
						"investmentPeriod()": "2518",
						"max_Stake_amount()": "2539",
						"min_Stake_amount()": "2540",
						"owner()": "2579",
						"referralLevel_count()": "infinite",
						"referralLevel_earning()": "infinite",
						"rewardToken()": "2517",
						"setReward(uint256,uint256)": "infinite",
						"set_max_Stake_amount(uint256)": "22565",
						"set_min_Stake_amount(uint256)": "22632",
						"set_values(uint256,uint256,uint256,uint256)": "infinite",
						"totalDUSDInvestors()": "2475",
						"total_withdraw_reaward()": "2656",
						"totalbusiness()": "2518",
						"transferOwnership(address)": "26933",
						"unStake()": "infinite",
						"withdrawReward()": "infinite"
					},
					"internal": {
						"DUSDTotalReferrals_inside(address)": "2238",
						"get_investor_Reward(address)": "infinite",
						"sendRewardToDUSDReferrals(address,uint256)": "infinite"
					}
				},
				"methodIdentifiers": {
					"Admin_data()": "42508f66",
					"All_investors(uint256)": "502c6bfa",
					"DUSDReferralsList()": "0c5f58f4",
					"DUSDTotalReferrals()": "1e8aba35",
					"DUSDinvestor(address)": "d3560ee8",
					"Stake(uint256,address)": "2bccdce6",
					"denomenator()": "9740a1bc",
					"getAllDUSDinvestments()": "3a1e0833",
					"getReward()": "3d18b912",
					"getTotalInvestmentDUSD()": "929f6bbe",
					"investmentPeriod()": "523cddfe",
					"max_Stake_amount()": "fae730bc",
					"min_Stake_amount()": "bc67eaff",
					"owner()": "8da5cb5b",
					"referralLevel_count()": "f790b81a",
					"referralLevel_earning()": "a61be99d",
					"rewardToken()": "f7c618c1",
					"setReward(uint256,uint256)": "a47bd496",
					"set_max_Stake_amount(uint256)": "500cb85f",
					"set_min_Stake_amount(uint256)": "32d4e783",
					"set_values(uint256,uint256,uint256,uint256)": "4eb1ecc9",
					"totalDUSDInvestors()": "10cde60a",
					"total_withdraw_reaward()": "5a4a0192",
					"totalbusiness()": "e2033fcb",
					"transferOwnership(address)": "f2fde38b",
					"unStake()": "73cf575a",
					"withdrawReward()": "c885bc58"
				}
			},
			"storageLayout": {
				"storage": [
					{
						"astId": 24,
						"contract": "contracts/stake_reward_MLM.sol:Invest",
						"label": "owner",
						"offset": 0,
						"slot": "0",
						"type": "t_address"
					},
					{
						"astId": 27,
						"contract": "contracts/stake_reward_MLM.sol:Invest",
						"label": "SMCcontract",
						"offset": 0,
						"slot": "1",
						"type": "t_address"
					},
					{
						"astId": 30,
						"contract": "contracts/stake_reward_MLM.sol:Invest",
						"label": "BUSDcontract",
						"offset": 0,
						"slot": "2",
						"type": "t_address"
					},
					{
						"astId": 32,
						"contract": "contracts/stake_reward_MLM.sol:Invest",
						"label": "totalDUSDInvestors",
						"offset": 0,
						"slot": "3",
						"type": "t_uint256"
					},
					{
						"astId": 35,
						"contract": "contracts/stake_reward_MLM.sol:Invest",
						"label": "rewardToken",
						"offset": 0,
						"slot": "4",
						"type": "t_uint256"
					},
					{
						"astId": 38,
						"contract": "contracts/stake_reward_MLM.sol:Invest",
						"label": "min_Stake_amount",
						"offset": 0,
						"slot": "5",
						"type": "t_uint256"
					},
					{
						"astId": 41,
						"contract": "contracts/stake_reward_MLM.sol:Invest",
						"label": "max_Stake_amount",
						"offset": 0,
						"slot": "6",
						"type": "t_uint256"
					},
					{
						"astId": 44,
						"contract": "contracts/stake_reward_MLM.sol:Invest",
						"label": "denomenator",
						"offset": 0,
						"slot": "7",
						"type": "t_uint256"
					},
					{
						"astId": 47,
						"contract": "contracts/stake_reward_MLM.sol:Invest",
						"label": "investmentPeriod",
						"offset": 0,
						"slot": "8",
						"type": "t_uint256"
					},
					{
						"astId": 49,
						"contract": "contracts/stake_reward_MLM.sol:Invest",
						"label": "totalbusiness",
						"offset": 0,
						"slot": "9",
						"type": "t_uint256"
					},
					{
						"astId": 51,
						"contract": "contracts/stake_reward_MLM.sol:Invest",
						"label": "rew_till_done",
						"offset": 0,
						"slot": "10",
						"type": "t_uint256"
					},
					{
						"astId": 55,
						"contract": "contracts/stake_reward_MLM.sol:Invest",
						"label": "All_investors",
						"offset": 0,
						"slot": "11",
						"type": "t_mapping(t_uint256,t_address)"
					},
					{
						"astId": 119,
						"contract": "contracts/stake_reward_MLM.sol:Invest",
						"label": "DUSDinvestor",
						"offset": 0,
						"slot": "12",
						"type": "t_mapping(t_address,t_struct(Data)114_storage)"
					}
				],
				"types": {
					"t_address": {
						"encoding": "inplace",
						"label": "address",
						"numberOfBytes": "20"
					},
					"t_array(t_address)dyn_storage": {
						"base": "t_address",
						"encoding": "dynamic_array",
						"label": "address[]",
						"numberOfBytes": "32"
					},
					"t_bool": {
						"encoding": "inplace",
						"label": "bool",
						"numberOfBytes": "1"
					},
					"t_mapping(t_address,t_struct(Data)114_storage)": {
						"encoding": "mapping",
						"key": "t_address",
						"label": "mapping(address => struct Invest.Data)",
						"numberOfBytes": "32",
						"value": "t_struct(Data)114_storage"
					},
					"t_mapping(t_uint256,t_address)": {
						"encoding": "mapping",
						"key": "t_uint256",
						"label": "mapping(uint256 => address)",
						"numberOfBytes": "32",
						"value": "t_address"
					},
					"t_mapping(t_uint256,t_struct(allInvestments)68_storage)": {
						"encoding": "mapping",
						"key": "t_uint256",
						"label": "mapping(uint256 => struct Invest.allInvestments)",
						"numberOfBytes": "32",
						"value": "t_struct(allInvestments)68_storage"
					},
					"t_mapping(t_uint256,t_struct(ref_data)73_storage)": {
						"encoding": "mapping",
						"key": "t_uint256",
						"label": "mapping(uint256 => struct Invest.ref_data)",
						"numberOfBytes": "32",
						"value": "t_struct(ref_data)73_storage"
					},
					"t_struct(Data)114_storage": {
						"encoding": "inplace",
						"label": "struct Invest.Data",
						"members": [
							{
								"astId": 91,
								"contract": "contracts/stake_reward_MLM.sol:Invest",
								"label": "investment",
								"offset": 0,
								"slot": "0",
								"type": "t_mapping(t_uint256,t_struct(allInvestments)68_storage)"
							},
							{
								"astId": 94,
								"contract": "contracts/stake_reward_MLM.sol:Invest",
								"label": "hisReferrals",
								"offset": 0,
								"slot": "1",
								"type": "t_array(t_address)dyn_storage"
							},
							{
								"astId": 96,
								"contract": "contracts/stake_reward_MLM.sol:Invest",
								"label": "referralFrom",
								"offset": 0,
								"slot": "2",
								"type": "t_address"
							},
							{
								"astId": 101,
								"contract": "contracts/stake_reward_MLM.sol:Invest",
								"label": "referralLevel",
								"offset": 0,
								"slot": "3",
								"type": "t_mapping(t_uint256,t_struct(ref_data)73_storage)"
							},
							{
								"astId": 103,
								"contract": "contracts/stake_reward_MLM.sol:Invest",
								"label": "reward",
								"offset": 0,
								"slot": "4",
								"type": "t_uint256"
							},
							{
								"astId": 105,
								"contract": "contracts/stake_reward_MLM.sol:Invest",
								"label": "noOfInvestment",
								"offset": 0,
								"slot": "5",
								"type": "t_uint256"
							},
							{
								"astId": 107,
								"contract": "contracts/stake_reward_MLM.sol:Invest",
								"label": "totalInvestment",
								"offset": 0,
								"slot": "6",
								"type": "t_uint256"
							},
							{
								"astId": 109,
								"contract": "contracts/stake_reward_MLM.sol:Invest",
								"label": "totalWithdraw_reward",
								"offset": 0,
								"slot": "7",
								"type": "t_uint256"
							},
							{
								"astId": 111,
								"contract": "contracts/stake_reward_MLM.sol:Invest",
								"label": "investBefore",
								"offset": 0,
								"slot": "8",
								"type": "t_bool"
							},
							{
								"astId": 113,
								"contract": "contracts/stake_reward_MLM.sol:Invest",
								"label": "stakeTime",
								"offset": 0,
								"slot": "9",
								"type": "t_uint256"
							}
						],
						"numberOfBytes": "320"
					},
					"t_struct(allInvestments)68_storage": {
						"encoding": "inplace",
						"label": "struct Invest.allInvestments",
						"members": [
							{
								"astId": 57,
								"contract": "contracts/stake_reward_MLM.sol:Invest",
								"label": "investedAmount",
								"offset": 0,
								"slot": "0",
								"type": "t_uint256"
							},
							{
								"astId": 59,
								"contract": "contracts/stake_reward_MLM.sol:Invest",
								"label": "withdrawnTime",
								"offset": 0,
								"slot": "1",
								"type": "t_uint256"
							},
							{
								"astId": 61,
								"contract": "contracts/stake_reward_MLM.sol:Invest",
								"label": "DepositTime",
								"offset": 0,
								"slot": "2",
								"type": "t_uint256"
							},
							{
								"astId": 63,
								"contract": "contracts/stake_reward_MLM.sol:Invest",
								"label": "investmentNum",
								"offset": 0,
								"slot": "3",
								"type": "t_uint256"
							},
							{
								"astId": 65,
								"contract": "contracts/stake_reward_MLM.sol:Invest",
								"label": "unstakeTime",
								"offset": 0,
								"slot": "4",
								"type": "t_uint256"
							},
							{
								"astId": 67,
								"contract": "contracts/stake_reward_MLM.sol:Invest",
								"label": "unstake",
								"offset": 0,
								"slot": "5",
								"type": "t_bool"
							}
						],
						"numberOfBytes": "192"
					},
					"t_struct(ref_data)73_storage": {
						"encoding": "inplace",
						"label": "struct Invest.ref_data",
						"members": [
							{
								"astId": 70,
								"contract": "contracts/stake_reward_MLM.sol:Invest",
								"label": "reward",
								"offset": 0,
								"slot": "0",
								"type": "t_uint256"
							},
							{
								"astId": 72,
								"contract": "contracts/stake_reward_MLM.sol:Invest",
								"label": "count",
								"offset": 0,
								"slot": "1",
								"type": "t_uint256"
							}
						],
						"numberOfBytes": "64"
					},
					"t_uint256": {
						"encoding": "inplace",
						"label": "uint256",
						"numberOfBytes": "32"
					}
				}
			},
			"userdoc": {
				"kind": "user",
				"methods": {},
				"version": 1
			}
		}
	}
}