{
	"contracts/stake_reward_MLM.sol": {
		"Invest": {
			"abi": [
				{
					"inputs": [],
					"stateMutability": "nonpayable",
					"type": "constructor"
				},
				{
					"inputs": [],
					"name": "DUSDReferralsList",
					"outputs": [
						{
							"internalType": "address[]",
							"name": "",
							"type": "address[]"
						}
					],
					"stateMutability": "view",
					"type": "function"
				},
				{
					"inputs": [],
					"name": "DUSDTotalReferrals",
					"outputs": [
						{
							"internalType": "uint256",
							"name": "",
							"type": "uint256"
						}
					],
					"stateMutability": "view",
					"type": "function"
				},
				{
					"inputs": [
						{
							"internalType": "address",
							"name": "",
							"type": "address"
						}
					],
					"name": "DUSDinvestor",
					"outputs": [
						{
							"internalType": "address",
							"name": "referralFrom",
							"type": "address"
						},
						{
							"internalType": "uint256",
							"name": "reward",
							"type": "uint256"
						},
						{
							"internalType": "uint256",
							"name": "noOfInvestment",
							"type": "uint256"
						},
						{
							"internalType": "uint256",
							"name": "totalInvestment",
							"type": "uint256"
						},
						{
							"internalType": "uint256",
							"name": "totalWithdraw_reward",
							"type": "uint256"
						},
						{
							"internalType": "bool",
							"name": "investBefore",
							"type": "bool"
						}
					],
					"stateMutability": "view",
					"type": "function"
				},
				{
					"inputs": [
						{
							"internalType": "uint256",
							"name": "_investedamount",
							"type": "uint256"
						},
						{
							"internalType": "address",
							"name": "_referral",
							"type": "address"
						}
					],
					"name": "Stake",
					"outputs": [
						{
							"internalType": "bool",
							"name": "success",
							"type": "bool"
						}
					],
					"stateMutability": "nonpayable",
					"type": "function"
				},
				{
					"inputs": [],
					"name": "getAllDUSDinvestments",
					"outputs": [
						{
							"components": [
								{
									"internalType": "uint256",
									"name": "investedAmount",
									"type": "uint256"
								},
								{
									"internalType": "uint256",
									"name": "withdrawnTime",
									"type": "uint256"
								},
								{
									"internalType": "uint256",
									"name": "DepositTime",
									"type": "uint256"
								},
								{
									"internalType": "uint256",
									"name": "investmentNum",
									"type": "uint256"
								}
							],
							"internalType": "struct Invest.allInvestments[]",
							"name": "",
							"type": "tuple[]"
						}
					],
					"stateMutability": "view",
					"type": "function"
				},
				{
					"inputs": [],
					"name": "getReward",
					"outputs": [
						{
							"internalType": "uint256",
							"name": "",
							"type": "uint256"
						}
					],
					"stateMutability": "view",
					"type": "function"
				},
				{
					"inputs": [],
					"name": "getTotalInvestmentDUSD",
					"outputs": [
						{
							"internalType": "uint256",
							"name": "",
							"type": "uint256"
						}
					],
					"stateMutability": "view",
					"type": "function"
				},
				{
					"inputs": [],
					"name": "owner",
					"outputs": [
						{
							"internalType": "address",
							"name": "",
							"type": "address"
						}
					],
					"stateMutability": "view",
					"type": "function"
				},
				{
					"inputs": [],
					"name": "referralLevel_count",
					"outputs": [
						{
							"internalType": "uint256[]",
							"name": "arr",
							"type": "uint256[]"
						}
					],
					"stateMutability": "view",
					"type": "function"
				},
				{
					"inputs": [],
					"name": "referralLevel_earning",
					"outputs": [
						{
							"internalType": "uint256[]",
							"name": "arr",
							"type": "uint256[]"
						}
					],
					"stateMutability": "view",
					"type": "function"
				},
				{
					"inputs": [],
					"name": "rewardToken",
					"outputs": [
						{
							"internalType": "uint256",
							"name": "",
							"type": "uint256"
						}
					],
					"stateMutability": "view",
					"type": "function"
				},
				{
					"inputs": [
						{
							"internalType": "uint256",
							"name": "_amount",
							"type": "uint256"
						}
					],
					"name": "setReward",
					"outputs": [],
					"stateMutability": "nonpayable",
					"type": "function"
				},
				{
					"inputs": [
						{
							"internalType": "uint256",
							"name": "_amount",
							"type": "uint256"
						}
					],
					"name": "set_max_Stake_amount",
					"outputs": [],
					"stateMutability": "nonpayable",
					"type": "function"
				},
				{
					"inputs": [
						{
							"internalType": "uint256",
							"name": "_amount",
							"type": "uint256"
						}
					],
					"name": "set_min_Stake_amount",
					"outputs": [],
					"stateMutability": "nonpayable",
					"type": "function"
				},
				{
					"inputs": [
						{
							"internalType": "uint256",
							"name": "min_stake",
							"type": "uint256"
						},
						{
							"internalType": "uint256",
							"name": "max_stake",
							"type": "uint256"
						},
						{
							"internalType": "uint256",
							"name": "reward_per_day",
							"type": "uint256"
						}
					],
					"name": "set_values",
					"outputs": [],
					"stateMutability": "nonpayable",
					"type": "function"
				},
				{
					"inputs": [],
					"name": "totalDUSDInvestors",
					"outputs": [
						{
							"internalType": "uint256",
							"name": "",
							"type": "uint256"
						}
					],
					"stateMutability": "view",
					"type": "function"
				},
				{
					"inputs": [
						{
							"internalType": "address",
							"name": "_owner",
							"type": "address"
						}
					],
					"name": "transferOwnership",
					"outputs": [],
					"stateMutability": "nonpayable",
					"type": "function"
				},
				{
					"inputs": [
						{
							"internalType": "uint256",
							"name": "_id",
							"type": "uint256"
						}
					],
					"name": "unStake",
					"outputs": [
						{
							"internalType": "bool",
							"name": "success",
							"type": "bool"
						}
					],
					"stateMutability": "nonpayable",
					"type": "function"
				},
				{
					"inputs": [],
					"name": "withdrawReward",
					"outputs": [
						{
							"internalType": "bool",
							"name": "success",
							"type": "bool"
						}
					],
					"stateMutability": "nonpayable",
					"type": "function"
				}
			],
			"devdoc": {
				"kind": "dev",
				"methods": {},
				"version": 1
			},
			"evm": {
				"assembly": "    /* \"contracts/stake_reward_MLM.sol\":262:10732  contract Invest... */\n  mstore(0x40, 0x80)\n    /* \"contracts/stake_reward_MLM.sol\":351:393  0xAfeF03Ff25959f08e5c5b17C83AD96F7be3B40d9 */\n  0xafef03ff25959f08e5c5b17c83ad96f7be3b40d9\n    /* \"contracts/stake_reward_MLM.sol\":331:393  address SMCcontract=0xAfeF03Ff25959f08e5c5b17C83AD96F7be3B40d9 */\n  0x01\n  exp(0x0100, 0x00)\n  dup2\n  sload\n  dup2\n  0xffffffffffffffffffffffffffffffffffffffff\n  mul\n  not\n  and\n  swap1\n  dup4\n  0xffffffffffffffffffffffffffffffffffffffff\n  and\n  mul\n  or\n  swap1\n  sstore\n  pop\n    /* \"contracts/stake_reward_MLM.sol\":424:466  0xB5047153afCc59523F7f6D6F492f716a21B04681 */\n  0xb5047153afcc59523f7f6d6f492f716a21b04681\n    /* \"contracts/stake_reward_MLM.sol\":403:466  address BUSDcontract=0xB5047153afCc59523F7f6D6F492f716a21B04681 */\n  0x02\n  exp(0x0100, 0x00)\n  dup2\n  sload\n  dup2\n  0xffffffffffffffffffffffffffffffffffffffff\n  mul\n  not\n  and\n  swap1\n  dup4\n  0xffffffffffffffffffffffffffffffffffffffff\n  and\n  mul\n  or\n  swap1\n  sstore\n  pop\n    /* \"contracts/stake_reward_MLM.sol\":540:558  500000000000000000 */\n  0x06f05b59d3b20000\n    /* \"contracts/stake_reward_MLM.sol\":516:558  uint public rewardToken=500000000000000000 */\n  0x04\n  sstore\n    /* \"contracts/stake_reward_MLM.sol\":590:595  10000 */\n  0x2710\n    /* \"contracts/stake_reward_MLM.sol\":568:595  uint min_Stake_amount=10000 */\n  0x05\n  sstore\n    /* \"contracts/stake_reward_MLM.sol\":654:679  5000000000000000000000000 */\n  0x0422ca8b0a00a425000000\n    /* \"contracts/stake_reward_MLM.sol\":632:679  uint max_Stake_amount=5000000000000000000000000 */\n  0x06\n  sstore\n    /* \"contracts/stake_reward_MLM.sol\":739:747  300 days */\n  0x018b8200\n    /* \"contracts/stake_reward_MLM.sol\":717:747  uint investmentPeriod=300 days */\n  0x07\n  sstore\n    /* \"contracts/stake_reward_MLM.sol\":1443:1573  constructor(){... */\n  callvalue\n  dup1\n  iszero\n  tag_1\n  jumpi\n  0x00\n  dup1\n  revert\ntag_1:\n  pop\n    /* \"contracts/stake_reward_MLM.sol\":1489:1499  msg.sender */\n  caller\n    /* \"contracts/stake_reward_MLM.sol\":1483:1488  owner */\n  0x00\n  dup1\n    /* \"contracts/stake_reward_MLM.sol\":1483:1499  owner=msg.sender */\n  0x0100\n  exp\n  dup2\n  sload\n  dup2\n  0xffffffffffffffffffffffffffffffffffffffff\n  mul\n  not\n  and\n  swap1\n  dup4\n  0xffffffffffffffffffffffffffffffffffffffff\n  and\n  mul\n  or\n  swap1\n  sstore\n  pop\n    /* \"contracts/stake_reward_MLM.sol\":262:10732  contract Invest... */\n  dataSize(sub_0)\n  dup1\n  dataOffset(sub_0)\n  0x00\n  codecopy\n  0x00\n  return\nstop\n\nsub_0: assembly {\n        /* \"contracts/stake_reward_MLM.sol\":262:10732  contract Invest... */\n      mstore(0x40, 0x80)\n      callvalue\n      dup1\n      iszero\n      tag_1\n      jumpi\n      0x00\n      dup1\n      revert\n    tag_1:\n      pop\n      jumpi(tag_2, lt(calldatasize, 0x04))\n      shr(0xe0, calldataload(0x00))\n      dup1\n      0x5d3eea91\n      gt\n      tag_22\n      jumpi\n      dup1\n      0xce10db0a\n      gt\n      tag_23\n      jumpi\n      dup1\n      0xce10db0a\n      eq\n      tag_17\n      jumpi\n      dup1\n      0xd3560ee8\n      eq\n      tag_18\n      jumpi\n      dup1\n      0xf2fde38b\n      eq\n      tag_19\n      jumpi\n      dup1\n      0xf790b81a\n      eq\n      tag_20\n      jumpi\n      dup1\n      0xf7c618c1\n      eq\n      tag_21\n      jumpi\n      jump(tag_2)\n    tag_23:\n      dup1\n      0x5d3eea91\n      eq\n      tag_12\n      jumpi\n      dup1\n      0x8da5cb5b\n      eq\n      tag_13\n      jumpi\n      dup1\n      0x929f6bbe\n      eq\n      tag_14\n      jumpi\n      dup1\n      0xa61be99d\n      eq\n      tag_15\n      jumpi\n      dup1\n      0xc885bc58\n      eq\n      tag_16\n      jumpi\n      jump(tag_2)\n    tag_22:\n      dup1\n      0x2bccdce6\n      gt\n      tag_24\n      jumpi\n      dup1\n      0x2bccdce6\n      eq\n      tag_7\n      jumpi\n      dup1\n      0x32d4e783\n      eq\n      tag_8\n      jumpi\n      dup1\n      0x3a1e0833\n      eq\n      tag_9\n      jumpi\n      dup1\n      0x3d18b912\n      eq\n      tag_10\n      jumpi\n      dup1\n      0x500cb85f\n      eq\n      tag_11\n      jumpi\n      jump(tag_2)\n    tag_24:\n      dup1\n      0x0c5f58f4\n      eq\n      tag_3\n      jumpi\n      dup1\n      0x10cde60a\n      eq\n      tag_4\n      jumpi\n      dup1\n      0x1e8aba35\n      eq\n      tag_5\n      jumpi\n      dup1\n      0x293be456\n      eq\n      tag_6\n      jumpi\n    tag_2:\n      0x00\n      dup1\n      revert\n        /* \"contracts/stake_reward_MLM.sol\":8609:8818  function DUSDReferralsList() public view returns(address[] memory){ //this function is to get the all investors list with there account number... */\n    tag_3:\n      tag_25\n      tag_26\n      jump\t// in\n    tag_25:\n      mload(0x40)\n      tag_27\n      swap2\n      swap1\n      tag_28\n      jump\t// in\n    tag_27:\n      mload(0x40)\n      dup1\n      swap2\n      sub\n      swap1\n      return\n        /* \"contracts/stake_reward_MLM.sol\":476:506  uint public totalDUSDInvestors */\n    tag_4:\n      tag_29\n      tag_30\n      jump\t// in\n    tag_29:\n      mload(0x40)\n      tag_31\n      swap2\n      swap1\n      tag_32\n      jump\t// in\n    tag_31:\n      mload(0x40)\n      dup1\n      swap2\n      sub\n      swap1\n      return\n        /* \"contracts/stake_reward_MLM.sol\":8408:8599  function DUSDTotalReferrals() public view returns(uint){ // this function is to get the total number of referrals ... */\n    tag_5:\n      tag_33\n      tag_34\n      jump\t// in\n    tag_33:\n      mload(0x40)\n      tag_35\n      swap2\n      swap1\n      tag_32\n      jump\t// in\n    tag_35:\n      mload(0x40)\n      dup1\n      swap2\n      sub\n      swap1\n      return\n        /* \"contracts/stake_reward_MLM.sol\":8827:8922  function setReward(uint _amount) public ... */\n    tag_6:\n      tag_36\n      0x04\n      dup1\n      calldatasize\n      sub\n      dup2\n      add\n      swap1\n      tag_37\n      swap2\n      swap1\n      tag_38\n      jump\t// in\n    tag_37:\n      tag_39\n      jump\t// in\n    tag_36:\n      stop\n        /* \"contracts/stake_reward_MLM.sol\":3127:4896  function Stake(uint _investedamount,address _referral) external returns(bool success){... */\n    tag_7:\n      tag_40\n      0x04\n      dup1\n      calldatasize\n      sub\n      dup2\n      add\n      swap1\n      tag_41\n      swap2\n      swap1\n      tag_42\n      jump\t// in\n    tag_41:\n      tag_43\n      jump\t// in\n    tag_40:\n      mload(0x40)\n      tag_44\n      swap2\n      swap1\n      tag_45\n      jump\t// in\n    tag_44:\n      mload(0x40)\n      dup1\n      swap2\n      sub\n      swap1\n      return\n        /* \"contracts/stake_reward_MLM.sol\":8931:9042  function set_min_Stake_amount(uint _amount) public ... */\n    tag_8:\n      tag_46\n      0x04\n      dup1\n      calldatasize\n      sub\n      dup2\n      add\n      swap1\n      tag_47\n      swap2\n      swap1\n      tag_38\n      jump\t// in\n    tag_47:\n      tag_48\n      jump\t// in\n    tag_46:\n      stop\n        /* \"contracts/stake_reward_MLM.sol\":6722:7705  function getAllDUSDinvestments() public view returns (allInvestments[] memory) { //this function will return the all investments of the investor and withware date... */\n    tag_9:\n      tag_49\n      tag_50\n      jump\t// in\n    tag_49:\n      mload(0x40)\n      tag_51\n      swap2\n      swap1\n      tag_52\n      jump\t// in\n    tag_51:\n      mload(0x40)\n      dup1\n      swap2\n      sub\n      swap1\n      return\n        /* \"contracts/stake_reward_MLM.sol\":7715:8398  function getReward() view public returns(uint){ //this function is get the total reward balance of the investor... */\n    tag_10:\n      tag_53\n      tag_54\n      jump\t// in\n    tag_53:\n      mload(0x40)\n      tag_55\n      swap2\n      swap1\n      tag_32\n      jump\t// in\n    tag_55:\n      mload(0x40)\n      dup1\n      swap2\n      sub\n      swap1\n      return\n        /* \"contracts/stake_reward_MLM.sol\":9051:9162  function set_max_Stake_amount(uint _amount) public ... */\n    tag_11:\n      tag_56\n      0x04\n      dup1\n      calldatasize\n      sub\n      dup2\n      add\n      swap1\n      tag_57\n      swap2\n      swap1\n      tag_38\n      jump\t// in\n    tag_57:\n      tag_58\n      jump\t// in\n    tag_56:\n      stop\n        /* \"contracts/stake_reward_MLM.sol\":5396:6492  function unStake(uint _id) external  returns (bool success){... */\n    tag_12:\n      tag_59\n      0x04\n      dup1\n      calldatasize\n      sub\n      dup2\n      add\n      swap1\n      tag_60\n      swap2\n      swap1\n      tag_38\n      jump\t// in\n    tag_60:\n      tag_61\n      jump\t// in\n    tag_59:\n      mload(0x40)\n      tag_62\n      swap2\n      swap1\n      tag_45\n      jump\t// in\n    tag_62:\n      mload(0x40)\n      dup1\n      swap2\n      sub\n      swap1\n      return\n        /* \"contracts/stake_reward_MLM.sol\":300:321  address  public owner */\n    tag_13:\n      tag_63\n      tag_64\n      jump\t// in\n    tag_63:\n      mload(0x40)\n      tag_65\n      swap2\n      swap1\n      tag_66\n      jump\t// in\n    tag_65:\n      mload(0x40)\n      dup1\n      swap2\n      sub\n      swap1\n      return\n        /* \"contracts/stake_reward_MLM.sol\":6502:6712  function getTotalInvestmentDUSD() public view returns(uint) {   //this function is to get the total investment of the ivestor... */\n    tag_14:\n      tag_67\n      tag_68\n      jump\t// in\n    tag_67:\n      mload(0x40)\n      tag_69\n      swap2\n      swap1\n      tag_32\n      jump\t// in\n    tag_69:\n      mload(0x40)\n      dup1\n      swap2\n      sub\n      swap1\n      return\n        /* \"contracts/stake_reward_MLM.sol\":9588:10153  function referralLevel_earning() public view returns( uint[] memory arr )... */\n    tag_15:\n      tag_70\n      tag_71\n      jump\t// in\n    tag_70:\n      mload(0x40)\n      tag_72\n      swap2\n      swap1\n      tag_73\n      jump\t// in\n    tag_72:\n      mload(0x40)\n      dup1\n      swap2\n      sub\n      swap1\n      return\n        /* \"contracts/stake_reward_MLM.sol\":4907:5385  function withdrawReward() external returns (bool success){... */\n    tag_16:\n      tag_74\n      tag_75\n      jump\t// in\n    tag_74:\n      mload(0x40)\n      tag_76\n      swap2\n      swap1\n      tag_45\n      jump\t// in\n    tag_76:\n      mload(0x40)\n      dup1\n      swap2\n      sub\n      swap1\n      return\n        /* \"contracts/stake_reward_MLM.sol\":9171:9395  function set_values(uint min_stake,uint max_stake,uint reward_per_day) public ... */\n    tag_17:\n      tag_77\n      0x04\n      dup1\n      calldatasize\n      sub\n      dup2\n      add\n      swap1\n      tag_78\n      swap2\n      swap1\n      tag_79\n      jump\t// in\n    tag_78:\n      tag_80\n      jump\t// in\n    tag_77:\n      stop\n        /* \"contracts/stake_reward_MLM.sol\":1390:1432  mapping(address=>Data) public DUSDinvestor */\n    tag_18:\n      tag_81\n      0x04\n      dup1\n      calldatasize\n      sub\n      dup2\n      add\n      swap1\n      tag_82\n      swap2\n      swap1\n      tag_83\n      jump\t// in\n    tag_82:\n      tag_84\n      jump\t// in\n    tag_81:\n      mload(0x40)\n      tag_85\n      swap7\n      swap6\n      swap5\n      swap4\n      swap3\n      swap2\n      swap1\n      tag_86\n      jump\t// in\n    tag_85:\n      mload(0x40)\n      dup1\n      swap2\n      sub\n      swap1\n      return\n        /* \"contracts/stake_reward_MLM.sol\":9404:9578  function transferOwnership(address _owner)  public... */\n    tag_19:\n      tag_87\n      0x04\n      dup1\n      calldatasize\n      sub\n      dup2\n      add\n      swap1\n      tag_88\n      swap2\n      swap1\n      tag_83\n      jump\t// in\n    tag_88:\n      tag_89\n      jump\t// in\n    tag_87:\n      stop\n        /* \"contracts/stake_reward_MLM.sol\":10162:10723  function referralLevel_count() public view returns( uint[] memory arr )... */\n    tag_20:\n      tag_90\n      tag_91\n      jump\t// in\n    tag_90:\n      mload(0x40)\n      tag_92\n      swap2\n      swap1\n      tag_73\n      jump\t// in\n    tag_92:\n      mload(0x40)\n      dup1\n      swap2\n      sub\n      swap1\n      return\n        /* \"contracts/stake_reward_MLM.sol\":516:558  uint public rewardToken=500000000000000000 */\n    tag_21:\n      tag_93\n      tag_94\n      jump\t// in\n    tag_93:\n      mload(0x40)\n      tag_95\n      swap2\n      swap1\n      tag_32\n      jump\t// in\n    tag_95:\n      mload(0x40)\n      dup1\n      swap2\n      sub\n      swap1\n      return\n        /* \"contracts/stake_reward_MLM.sol\":8609:8818  function DUSDReferralsList() public view returns(address[] memory){ //this function is to get the all investors list with there account number... */\n    tag_26:\n        /* \"contracts/stake_reward_MLM.sol\":8658:8674  address[] memory */\n      0x60\n        /* \"contracts/stake_reward_MLM.sol\":8770:8782  DUSDinvestor */\n      0x08\n        /* \"contracts/stake_reward_MLM.sol\":8770:8794  DUSDinvestor[msg.sender] */\n      0x00\n        /* \"contracts/stake_reward_MLM.sol\":8783:8793  msg.sender */\n      caller\n        /* \"contracts/stake_reward_MLM.sol\":8770:8794  DUSDinvestor[msg.sender] */\n      0xffffffffffffffffffffffffffffffffffffffff\n      and\n      0xffffffffffffffffffffffffffffffffffffffff\n      and\n      dup2\n      mstore\n      0x20\n      add\n      swap1\n      dup2\n      mstore\n      0x20\n      add\n      0x00\n      keccak256\n        /* \"contracts/stake_reward_MLM.sol\":8770:8807  DUSDinvestor[msg.sender].hisReferrals */\n      0x01\n      add\n        /* \"contracts/stake_reward_MLM.sol\":8763:8807  return DUSDinvestor[msg.sender].hisReferrals */\n      dup1\n      sload\n      dup1\n      0x20\n      mul\n      0x20\n      add\n      mload(0x40)\n      swap1\n      dup2\n      add\n      0x40\n      mstore\n      dup1\n      swap3\n      swap2\n      swap1\n      dup2\n      dup2\n      mstore\n      0x20\n      add\n      dup3\n      dup1\n      sload\n      dup1\n      iszero\n      tag_97\n      jumpi\n      0x20\n      mul\n      dup3\n      add\n      swap2\n      swap1\n      0x00\n      mstore\n      keccak256(0x00, 0x20)\n      swap1\n    tag_98:\n      dup2\n      0x00\n      swap1\n      sload\n      swap1\n      0x0100\n      exp\n      swap1\n      div\n      0xffffffffffffffffffffffffffffffffffffffff\n      and\n      0xffffffffffffffffffffffffffffffffffffffff\n      and\n      dup2\n      mstore\n      0x20\n      add\n      swap1\n      0x01\n      add\n      swap1\n      dup1\n      dup4\n      gt\n      tag_98\n      jumpi\n    tag_97:\n      pop\n      pop\n      pop\n      pop\n      pop\n      swap1\n      pop\n        /* \"contracts/stake_reward_MLM.sol\":8609:8818  function DUSDReferralsList() public view returns(address[] memory){ //this function is to get the all investors list with there account number... */\n      swap1\n      jump\t// out\n        /* \"contracts/stake_reward_MLM.sol\":476:506  uint public totalDUSDInvestors */\n    tag_30:\n      sload(0x03)\n      dup2\n      jump\t// out\n        /* \"contracts/stake_reward_MLM.sol\":8408:8599  function DUSDTotalReferrals() public view returns(uint){ // this function is to get the total number of referrals ... */\n    tag_34:\n        /* \"contracts/stake_reward_MLM.sol\":8458:8462  uint */\n      0x00\n        /* \"contracts/stake_reward_MLM.sol\":8543:8555  DUSDinvestor */\n      0x08\n        /* \"contracts/stake_reward_MLM.sol\":8543:8567  DUSDinvestor[msg.sender] */\n      0x00\n        /* \"contracts/stake_reward_MLM.sol\":8556:8566  msg.sender */\n      caller\n        /* \"contracts/stake_reward_MLM.sol\":8543:8567  DUSDinvestor[msg.sender] */\n      0xffffffffffffffffffffffffffffffffffffffff\n      and\n      0xffffffffffffffffffffffffffffffffffffffff\n      and\n      dup2\n      mstore\n      0x20\n      add\n      swap1\n      dup2\n      mstore\n      0x20\n      add\n      0x00\n      keccak256\n        /* \"contracts/stake_reward_MLM.sol\":8543:8580  DUSDinvestor[msg.sender].hisReferrals */\n      0x01\n      add\n        /* \"contracts/stake_reward_MLM.sol\":8542:8588  (DUSDinvestor[msg.sender].hisReferrals).length */\n      dup1\n      sload\n      swap1\n      pop\n        /* \"contracts/stake_reward_MLM.sol\":8535:8588  return (DUSDinvestor[msg.sender].hisReferrals).length */\n      swap1\n      pop\n        /* \"contracts/stake_reward_MLM.sol\":8408:8599  function DUSDTotalReferrals() public view returns(uint){ // this function is to get the total number of referrals ... */\n      swap1\n      jump\t// out\n        /* \"contracts/stake_reward_MLM.sol\":8827:8922  function setReward(uint _amount) public ... */\n    tag_39:\n        /* \"contracts/stake_reward_MLM.sol\":8904:8911  _amount */\n      dup1\n        /* \"contracts/stake_reward_MLM.sol\":8890:8901  rewardToken */\n      0x04\n        /* \"contracts/stake_reward_MLM.sol\":8890:8911  rewardToken = _amount */\n      dup2\n      swap1\n      sstore\n      pop\n        /* \"contracts/stake_reward_MLM.sol\":8827:8922  function setReward(uint _amount) public ... */\n      pop\n      jump\t// out\n        /* \"contracts/stake_reward_MLM.sol\":3127:4896  function Stake(uint _investedamount,address _referral) external returns(bool success){... */\n    tag_43:\n        /* \"contracts/stake_reward_MLM.sol\":3199:3211  bool success */\n      0x00\n        /* \"contracts/stake_reward_MLM.sol\":3253:3269  min_Stake_amount */\n      sload(0x05)\n        /* \"contracts/stake_reward_MLM.sol\":3234:3249  _investedamount */\n      dup4\n        /* \"contracts/stake_reward_MLM.sol\":3234:3269  _investedamount >= min_Stake_amount */\n      lt\n      iszero\n        /* \"contracts/stake_reward_MLM.sol\":3226:3304  require(_investedamount >= min_Stake_amount,\"value is not greater than 10000\") */\n      tag_102\n      jumpi\n      mload(0x40)\n      0x08c379a000000000000000000000000000000000000000000000000000000000\n      dup2\n      mstore\n      0x04\n      add\n      tag_103\n      swap1\n      tag_104\n      jump\t// in\n    tag_103:\n      mload(0x40)\n      dup1\n      swap2\n      sub\n      swap1\n      revert\n    tag_102:\n        /* \"contracts/stake_reward_MLM.sol\":3433:3438  false */\n      0x00\n        /* \"contracts/stake_reward_MLM.sol\":3392:3438  DUSDinvestor[msg.sender].investBefore == false */\n      iszero\n      iszero\n        /* \"contracts/stake_reward_MLM.sol\":3392:3404  DUSDinvestor */\n      0x08\n        /* \"contracts/stake_reward_MLM.sol\":3392:3416  DUSDinvestor[msg.sender] */\n      0x00\n        /* \"contracts/stake_reward_MLM.sol\":3405:3415  msg.sender */\n      caller\n        /* \"contracts/stake_reward_MLM.sol\":3392:3416  DUSDinvestor[msg.sender] */\n      0xffffffffffffffffffffffffffffffffffffffff\n      and\n      0xffffffffffffffffffffffffffffffffffffffff\n      and\n      dup2\n      mstore\n      0x20\n      add\n      swap1\n      dup2\n      mstore\n      0x20\n      add\n      0x00\n      keccak256\n        /* \"contracts/stake_reward_MLM.sol\":3392:3429  DUSDinvestor[msg.sender].investBefore */\n      0x08\n      add\n      0x00\n      swap1\n      sload\n      swap1\n      0x0100\n      exp\n      swap1\n      div\n      0xff\n      and\n        /* \"contracts/stake_reward_MLM.sol\":3392:3438  DUSDinvestor[msg.sender].investBefore == false */\n      iszero\n      iszero\n      eq\n        /* \"contracts/stake_reward_MLM.sol\":3389:3543  if(DUSDinvestor[msg.sender].investBefore == false)... */\n      iszero\n      tag_105\n      jumpi\n        /* \"contracts/stake_reward_MLM.sol\":3471:3489  totalDUSDInvestors */\n      0x03\n      0x00\n        /* \"contracts/stake_reward_MLM.sol\":3471:3491  totalDUSDInvestors++ */\n      dup2\n      sload\n      dup1\n      swap3\n      swap2\n      swap1\n      tag_106\n      swap1\n      tag_107\n      jump\t// in\n    tag_106:\n      swap2\n      swap1\n      pop\n      sstore\n      pop\n        /* \"contracts/stake_reward_MLM.sol\":3389:3543  if(DUSDinvestor[msg.sender].investBefore == false)... */\n    tag_105:\n        /* \"contracts/stake_reward_MLM.sol\":3557:3565  uint num */\n      0x00\n        /* \"contracts/stake_reward_MLM.sol\":3568:3580  DUSDinvestor */\n      0x08\n        /* \"contracts/stake_reward_MLM.sol\":3568:3592  DUSDinvestor[msg.sender] */\n      0x00\n        /* \"contracts/stake_reward_MLM.sol\":3581:3591  msg.sender */\n      caller\n        /* \"contracts/stake_reward_MLM.sol\":3568:3592  DUSDinvestor[msg.sender] */\n      0xffffffffffffffffffffffffffffffffffffffff\n      and\n      0xffffffffffffffffffffffffffffffffffffffff\n      and\n      dup2\n      mstore\n      0x20\n      add\n      swap1\n      dup2\n      mstore\n      0x20\n      add\n      0x00\n      keccak256\n        /* \"contracts/stake_reward_MLM.sol\":3568:3607  DUSDinvestor[msg.sender].noOfInvestment */\n      0x05\n      add\n      sload\n        /* \"contracts/stake_reward_MLM.sol\":3557:3607  uint num = DUSDinvestor[msg.sender].noOfInvestment */\n      swap1\n      pop\n        /* \"contracts/stake_reward_MLM.sol\":3678:3693  _investedamount */\n      dup4\n        /* \"contracts/stake_reward_MLM.sol\":3621:3633  DUSDinvestor */\n      0x08\n        /* \"contracts/stake_reward_MLM.sol\":3621:3645  DUSDinvestor[msg.sender] */\n      0x00\n        /* \"contracts/stake_reward_MLM.sol\":3634:3644  msg.sender */\n      caller\n        /* \"contracts/stake_reward_MLM.sol\":3621:3645  DUSDinvestor[msg.sender] */\n      0xffffffffffffffffffffffffffffffffffffffff\n      and\n      0xffffffffffffffffffffffffffffffffffffffff\n      and\n      dup2\n      mstore\n      0x20\n      add\n      swap1\n      dup2\n      mstore\n      0x20\n      add\n      0x00\n      keccak256\n        /* \"contracts/stake_reward_MLM.sol\":3621:3656  DUSDinvestor[msg.sender].investment */\n      0x00\n      add\n        /* \"contracts/stake_reward_MLM.sol\":3621:3661  DUSDinvestor[msg.sender].investment[num] */\n      0x00\n        /* \"contracts/stake_reward_MLM.sol\":3657:3660  num */\n      dup4\n        /* \"contracts/stake_reward_MLM.sol\":3621:3661  DUSDinvestor[msg.sender].investment[num] */\n      dup2\n      mstore\n      0x20\n      add\n      swap1\n      dup2\n      mstore\n      0x20\n      add\n      0x00\n      keccak256\n        /* \"contracts/stake_reward_MLM.sol\":3621:3676  DUSDinvestor[msg.sender].investment[num].investedAmount */\n      0x00\n      add\n        /* \"contracts/stake_reward_MLM.sol\":3621:3693  DUSDinvestor[msg.sender].investment[num].investedAmount =_investedamount */\n      dup2\n      swap1\n      sstore\n      pop\n        /* \"contracts/stake_reward_MLM.sol\":3760:3775  block.timestamp */\n      timestamp\n        /* \"contracts/stake_reward_MLM.sol\":3707:3719  DUSDinvestor */\n      0x08\n        /* \"contracts/stake_reward_MLM.sol\":3707:3731  DUSDinvestor[msg.sender] */\n      0x00\n        /* \"contracts/stake_reward_MLM.sol\":3720:3730  msg.sender */\n      caller\n        /* \"contracts/stake_reward_MLM.sol\":3707:3731  DUSDinvestor[msg.sender] */\n      0xffffffffffffffffffffffffffffffffffffffff\n      and\n      0xffffffffffffffffffffffffffffffffffffffff\n      and\n      dup2\n      mstore\n      0x20\n      add\n      swap1\n      dup2\n      mstore\n      0x20\n      add\n      0x00\n      keccak256\n        /* \"contracts/stake_reward_MLM.sol\":3707:3742  DUSDinvestor[msg.sender].investment */\n      0x00\n      add\n        /* \"contracts/stake_reward_MLM.sol\":3707:3747  DUSDinvestor[msg.sender].investment[num] */\n      0x00\n        /* \"contracts/stake_reward_MLM.sol\":3743:3746  num */\n      dup4\n        /* \"contracts/stake_reward_MLM.sol\":3707:3747  DUSDinvestor[msg.sender].investment[num] */\n      dup2\n      mstore\n      0x20\n      add\n      swap1\n      dup2\n      mstore\n      0x20\n      add\n      0x00\n      keccak256\n        /* \"contracts/stake_reward_MLM.sol\":3707:3759  DUSDinvestor[msg.sender].investment[num].DepositTime */\n      0x02\n      add\n        /* \"contracts/stake_reward_MLM.sol\":3707:3775  DUSDinvestor[msg.sender].investment[num].DepositTime=block.timestamp */\n      dup2\n      swap1\n      sstore\n      pop\n        /* \"contracts/stake_reward_MLM.sol\":3862:3878  investmentPeriod */\n      sload(0x07)\n        /* \"contracts/stake_reward_MLM.sol\":3844:3859  block.timestamp */\n      timestamp\n        /* \"contracts/stake_reward_MLM.sol\":3844:3878  block.timestamp + investmentPeriod */\n      tag_108\n      swap2\n      swap1\n      tag_109\n      jump\t// in\n    tag_108:\n        /* \"contracts/stake_reward_MLM.sol\":3789:3801  DUSDinvestor */\n      0x08\n        /* \"contracts/stake_reward_MLM.sol\":3789:3813  DUSDinvestor[msg.sender] */\n      0x00\n        /* \"contracts/stake_reward_MLM.sol\":3802:3812  msg.sender */\n      caller\n        /* \"contracts/stake_reward_MLM.sol\":3789:3813  DUSDinvestor[msg.sender] */\n      0xffffffffffffffffffffffffffffffffffffffff\n      and\n      0xffffffffffffffffffffffffffffffffffffffff\n      and\n      dup2\n      mstore\n      0x20\n      add\n      swap1\n      dup2\n      mstore\n      0x20\n      add\n      0x00\n      keccak256\n        /* \"contracts/stake_reward_MLM.sol\":3789:3824  DUSDinvestor[msg.sender].investment */\n      0x00\n      add\n        /* \"contracts/stake_reward_MLM.sol\":3789:3829  DUSDinvestor[msg.sender].investment[num] */\n      0x00\n        /* \"contracts/stake_reward_MLM.sol\":3825:3828  num */\n      dup4\n        /* \"contracts/stake_reward_MLM.sol\":3789:3829  DUSDinvestor[msg.sender].investment[num] */\n      dup2\n      mstore\n      0x20\n      add\n      swap1\n      dup2\n      mstore\n      0x20\n      add\n      0x00\n      keccak256\n        /* \"contracts/stake_reward_MLM.sol\":3789:3843  DUSDinvestor[msg.sender].investment[num].withdrawnTime */\n      0x01\n      add\n        /* \"contracts/stake_reward_MLM.sol\":3789:3878  DUSDinvestor[msg.sender].investment[num].withdrawnTime=block.timestamp + investmentPeriod */\n      dup2\n      swap1\n      sstore\n      pop\n        /* \"contracts/stake_reward_MLM.sol\":3961:3964  num */\n      dup1\n        /* \"contracts/stake_reward_MLM.sol\":3906:3918  DUSDinvestor */\n      0x08\n        /* \"contracts/stake_reward_MLM.sol\":3906:3930  DUSDinvestor[msg.sender] */\n      0x00\n        /* \"contracts/stake_reward_MLM.sol\":3919:3929  msg.sender */\n      caller\n        /* \"contracts/stake_reward_MLM.sol\":3906:3930  DUSDinvestor[msg.sender] */\n      0xffffffffffffffffffffffffffffffffffffffff\n      and\n      0xffffffffffffffffffffffffffffffffffffffff\n      and\n      dup2\n      mstore\n      0x20\n      add\n      swap1\n      dup2\n      mstore\n      0x20\n      add\n      0x00\n      keccak256\n        /* \"contracts/stake_reward_MLM.sol\":3906:3941  DUSDinvestor[msg.sender].investment */\n      0x00\n      add\n        /* \"contracts/stake_reward_MLM.sol\":3906:3946  DUSDinvestor[msg.sender].investment[num] */\n      0x00\n        /* \"contracts/stake_reward_MLM.sol\":3942:3945  num */\n      dup4\n        /* \"contracts/stake_reward_MLM.sol\":3906:3946  DUSDinvestor[msg.sender].investment[num] */\n      dup2\n      mstore\n      0x20\n      add\n      swap1\n      dup2\n      mstore\n      0x20\n      add\n      0x00\n      keccak256\n        /* \"contracts/stake_reward_MLM.sol\":3906:3960  DUSDinvestor[msg.sender].investment[num].investmentNum */\n      0x03\n      add\n        /* \"contracts/stake_reward_MLM.sol\":3906:3964  DUSDinvestor[msg.sender].investment[num].investmentNum=num */\n      dup2\n      swap1\n      sstore\n      pop\n        /* \"contracts/stake_reward_MLM.sol\":4020:4035  _investedamount */\n      dup4\n        /* \"contracts/stake_reward_MLM.sol\":3978:3990  DUSDinvestor */\n      0x08\n        /* \"contracts/stake_reward_MLM.sol\":3978:4002  DUSDinvestor[msg.sender] */\n      0x00\n        /* \"contracts/stake_reward_MLM.sol\":3991:4001  msg.sender */\n      caller\n        /* \"contracts/stake_reward_MLM.sol\":3978:4002  DUSDinvestor[msg.sender] */\n      0xffffffffffffffffffffffffffffffffffffffff\n      and\n      0xffffffffffffffffffffffffffffffffffffffff\n      and\n      dup2\n      mstore\n      0x20\n      add\n      swap1\n      dup2\n      mstore\n      0x20\n      add\n      0x00\n      keccak256\n        /* \"contracts/stake_reward_MLM.sol\":3978:4018  DUSDinvestor[msg.sender].totalInvestment */\n      0x06\n      add\n      0x00\n        /* \"contracts/stake_reward_MLM.sol\":3978:4035  DUSDinvestor[msg.sender].totalInvestment+=_investedamount */\n      dup3\n      dup3\n      sload\n      tag_110\n      swap2\n      swap1\n      tag_109\n      jump\t// in\n    tag_110:\n      swap3\n      pop\n      pop\n      dup2\n      swap1\n      sstore\n      pop\n        /* \"contracts/stake_reward_MLM.sol\":4087:4091  true */\n      0x01\n        /* \"contracts/stake_reward_MLM.sol\":4049:4061  DUSDinvestor */\n      0x08\n        /* \"contracts/stake_reward_MLM.sol\":4049:4073  DUSDinvestor[msg.sender] */\n      0x00\n        /* \"contracts/stake_reward_MLM.sol\":4062:4072  msg.sender */\n      caller\n        /* \"contracts/stake_reward_MLM.sol\":4049:4073  DUSDinvestor[msg.sender] */\n      0xffffffffffffffffffffffffffffffffffffffff\n      and\n      0xffffffffffffffffffffffffffffffffffffffff\n      and\n      dup2\n      mstore\n      0x20\n      add\n      swap1\n      dup2\n      mstore\n      0x20\n      add\n      0x00\n      keccak256\n        /* \"contracts/stake_reward_MLM.sol\":4049:4086  DUSDinvestor[msg.sender].investBefore */\n      0x08\n      add\n      0x00\n        /* \"contracts/stake_reward_MLM.sol\":4049:4091  DUSDinvestor[msg.sender].investBefore=true */\n      0x0100\n      exp\n      dup2\n      sload\n      dup2\n      0xff\n      mul\n      not\n      and\n      swap1\n      dup4\n      iszero\n      iszero\n      mul\n      or\n      swap1\n      sstore\n      pop\n        /* \"contracts/stake_reward_MLM.sol\":4105:4117  DUSDinvestor */\n      0x08\n        /* \"contracts/stake_reward_MLM.sol\":4105:4129  DUSDinvestor[msg.sender] */\n      0x00\n        /* \"contracts/stake_reward_MLM.sol\":4118:4128  msg.sender */\n      caller\n        /* \"contracts/stake_reward_MLM.sol\":4105:4129  DUSDinvestor[msg.sender] */\n      0xffffffffffffffffffffffffffffffffffffffff\n      and\n      0xffffffffffffffffffffffffffffffffffffffff\n      and\n      dup2\n      mstore\n      0x20\n      add\n      swap1\n      dup2\n      mstore\n      0x20\n      add\n      0x00\n      keccak256\n        /* \"contracts/stake_reward_MLM.sol\":4105:4144  DUSDinvestor[msg.sender].noOfInvestment */\n      0x05\n      add\n      0x00\n        /* \"contracts/stake_reward_MLM.sol\":4105:4146  DUSDinvestor[msg.sender].noOfInvestment++ */\n      dup2\n      sload\n      dup1\n      swap3\n      swap2\n      swap1\n      tag_111\n      swap1\n      tag_107\n      jump\t// in\n    tag_111:\n      swap2\n      swap1\n      pop\n      sstore\n      pop\n        /* \"contracts/stake_reward_MLM.sol\":4165:4176  SMCcontract */\n      0x01\n      0x00\n      swap1\n      sload\n      swap1\n      0x0100\n      exp\n      swap1\n      div\n      0xffffffffffffffffffffffffffffffffffffffff\n      and\n        /* \"contracts/stake_reward_MLM.sol\":4160:4190  DUSD(SMCcontract).transferFrom */\n      0xffffffffffffffffffffffffffffffffffffffff\n      and\n      0x23b872dd\n        /* \"contracts/stake_reward_MLM.sol\":4191:4201  msg.sender */\n      caller\n        /* \"contracts/stake_reward_MLM.sol\":4210:4214  this */\n      address\n        /* \"contracts/stake_reward_MLM.sol\":4232:4238  10**18 */\n      0x0de0b6b3a7640000\n        /* \"contracts/stake_reward_MLM.sol\":4216:4231  _investedamount */\n      dup9\n        /* \"contracts/stake_reward_MLM.sol\":4216:4238  _investedamount*10**18 */\n      tag_112\n      swap2\n      swap1\n      tag_113\n      jump\t// in\n    tag_112:\n        /* \"contracts/stake_reward_MLM.sol\":4160:4239  DUSD(SMCcontract).transferFrom(msg.sender,address(this),_investedamount*10**18) */\n      mload(0x40)\n      dup5\n      0xffffffff\n      and\n      0xe0\n      shl\n      dup2\n      mstore\n      0x04\n      add\n      tag_114\n      swap4\n      swap3\n      swap2\n      swap1\n      tag_115\n      jump\t// in\n    tag_114:\n      0x20\n      mload(0x40)\n      dup1\n      dup4\n      sub\n      dup2\n      0x00\n      dup8\n      dup1\n      extcodesize\n      iszero\n      dup1\n      iszero\n      tag_116\n      jumpi\n      0x00\n      dup1\n      revert\n    tag_116:\n      pop\n      gas\n      call\n      iszero\n      dup1\n      iszero\n      tag_118\n      jumpi\n      returndatasize\n      0x00\n      dup1\n      returndatacopy\n      revert(0x00, returndatasize)\n    tag_118:\n      pop\n      pop\n      pop\n      pop\n      mload(0x40)\n      returndatasize\n      not(0x1f)\n      0x1f\n      dup3\n      add\n      and\n      dup3\n      add\n      dup1\n      0x40\n      mstore\n      pop\n      dup2\n      add\n      swap1\n      tag_119\n      swap2\n      swap1\n      tag_120\n      jump\t// in\n    tag_119:\n      pop\n        /* \"contracts/stake_reward_MLM.sol\":4275:4276  0 */\n      0x00\n        /* \"contracts/stake_reward_MLM.sol\":4256:4277  _referral==address(0) */\n      0xffffffffffffffffffffffffffffffffffffffff\n      and\n        /* \"contracts/stake_reward_MLM.sol\":4256:4265  _referral */\n      dup4\n        /* \"contracts/stake_reward_MLM.sol\":4256:4277  _referral==address(0) */\n      0xffffffffffffffffffffffffffffffffffffffff\n      and\n      eq\n        /* \"contracts/stake_reward_MLM.sol\":4256:4302  _referral==address(0) || _referral==msg.sender */\n      dup1\n      tag_121\n      jumpi\n      pop\n        /* \"contracts/stake_reward_MLM.sol\":4292:4302  msg.sender */\n      caller\n        /* \"contracts/stake_reward_MLM.sol\":4281:4302  _referral==msg.sender */\n      0xffffffffffffffffffffffffffffffffffffffff\n      and\n        /* \"contracts/stake_reward_MLM.sol\":4281:4290  _referral */\n      dup4\n        /* \"contracts/stake_reward_MLM.sol\":4281:4302  _referral==msg.sender */\n      0xffffffffffffffffffffffffffffffffffffffff\n      and\n      eq\n        /* \"contracts/stake_reward_MLM.sol\":4256:4302  _referral==address(0) || _referral==msg.sender */\n    tag_121:\n        /* \"contracts/stake_reward_MLM.sol\":4253:4848  if(_referral==address(0) || _referral==msg.sender)                                         //checking that investor comes from the referral link or not... */\n      iszero\n      tag_122\n      jumpi\n        /* \"contracts/stake_reward_MLM.sol\":4483:4484  0 */\n      0x00\n        /* \"contracts/stake_reward_MLM.sol\":4435:4447  DUSDinvestor */\n      0x08\n        /* \"contracts/stake_reward_MLM.sol\":4435:4459  DUSDinvestor[msg.sender] */\n      0x00\n        /* \"contracts/stake_reward_MLM.sol\":4448:4458  msg.sender */\n      caller\n        /* \"contracts/stake_reward_MLM.sol\":4435:4459  DUSDinvestor[msg.sender] */\n      0xffffffffffffffffffffffffffffffffffffffff\n      and\n      0xffffffffffffffffffffffffffffffffffffffff\n      and\n      dup2\n      mstore\n      0x20\n      add\n      swap1\n      dup2\n      mstore\n      0x20\n      add\n      0x00\n      keccak256\n        /* \"contracts/stake_reward_MLM.sol\":4435:4472  DUSDinvestor[msg.sender].referralFrom */\n      0x02\n      add\n      0x00\n        /* \"contracts/stake_reward_MLM.sol\":4435:4485  DUSDinvestor[msg.sender].referralFrom = address(0) */\n      0x0100\n      exp\n      dup2\n      sload\n      dup2\n      0xffffffffffffffffffffffffffffffffffffffff\n      mul\n      not\n      and\n      swap1\n      dup4\n      0xffffffffffffffffffffffffffffffffffffffff\n      and\n      mul\n      or\n      swap1\n      sstore\n      pop\n        /* \"contracts/stake_reward_MLM.sol\":4253:4848  if(_referral==address(0) || _referral==msg.sender)                                         //checking that investor comes from the referral link or not... */\n      jump(tag_123)\n    tag_122:\n        /* \"contracts/stake_reward_MLM.sol\":4588:4597  _referral */\n      dup3\n        /* \"contracts/stake_reward_MLM.sol\":4548:4560  DUSDinvestor */\n      0x08\n        /* \"contracts/stake_reward_MLM.sol\":4548:4572  DUSDinvestor[msg.sender] */\n      0x00\n        /* \"contracts/stake_reward_MLM.sol\":4561:4571  msg.sender */\n      caller\n        /* \"contracts/stake_reward_MLM.sol\":4548:4572  DUSDinvestor[msg.sender] */\n      0xffffffffffffffffffffffffffffffffffffffff\n      and\n      0xffffffffffffffffffffffffffffffffffffffff\n      and\n      dup2\n      mstore\n      0x20\n      add\n      swap1\n      dup2\n      mstore\n      0x20\n      add\n      0x00\n      keccak256\n        /* \"contracts/stake_reward_MLM.sol\":4548:4585  DUSDinvestor[msg.sender].referralFrom */\n      0x02\n      add\n      0x00\n        /* \"contracts/stake_reward_MLM.sol\":4548:4597  DUSDinvestor[msg.sender].referralFrom = _referral */\n      0x0100\n      exp\n      dup2\n      sload\n      dup2\n      0xffffffffffffffffffffffffffffffffffffffff\n      mul\n      not\n      and\n      swap1\n      dup4\n      0xffffffffffffffffffffffffffffffffffffffff\n      and\n      mul\n      or\n      swap1\n      sstore\n      pop\n        /* \"contracts/stake_reward_MLM.sol\":4615:4627  DUSDinvestor */\n      0x08\n        /* \"contracts/stake_reward_MLM.sol\":4615:4638  DUSDinvestor[_referral] */\n      0x00\n        /* \"contracts/stake_reward_MLM.sol\":4628:4637  _referral */\n      dup5\n        /* \"contracts/stake_reward_MLM.sol\":4615:4638  DUSDinvestor[_referral] */\n      0xffffffffffffffffffffffffffffffffffffffff\n      and\n      0xffffffffffffffffffffffffffffffffffffffff\n      and\n      dup2\n      mstore\n      0x20\n      add\n      swap1\n      dup2\n      mstore\n      0x20\n      add\n      0x00\n      keccak256\n        /* \"contracts/stake_reward_MLM.sol\":4615:4651  DUSDinvestor[_referral].hisReferrals */\n      0x01\n      add\n        /* \"contracts/stake_reward_MLM.sol\":4657:4667  msg.sender */\n      caller\n        /* \"contracts/stake_reward_MLM.sol\":4615:4668  DUSDinvestor[_referral].hisReferrals.push(msg.sender) */\n      swap1\n      dup1\n      0x01\n      dup2\n      sload\n      add\n      dup1\n      dup3\n      sstore\n      dup1\n      swap2\n      pop\n      pop\n      0x01\n      swap1\n      sub\n      swap1\n      0x00\n      mstore\n      keccak256(0x00, 0x20)\n      add\n      0x00\n      swap1\n      swap2\n      swap1\n      swap2\n      swap1\n      swap2\n      0x0100\n      exp\n      dup2\n      sload\n      dup2\n      0xffffffffffffffffffffffffffffffffffffffff\n      mul\n      not\n      and\n      swap1\n      dup4\n      0xffffffffffffffffffffffffffffffffffffffff\n      and\n      mul\n      or\n      swap1\n      sstore\n      pop\n        /* \"contracts/stake_reward_MLM.sol\":4686:4739  sendRewardToDUSDReferrals(msg.sender,_investedamount) */\n      tag_125\n        /* \"contracts/stake_reward_MLM.sol\":4712:4722  msg.sender */\n      caller\n        /* \"contracts/stake_reward_MLM.sol\":4723:4738  _investedamount */\n      dup6\n        /* \"contracts/stake_reward_MLM.sol\":4686:4711  sendRewardToDUSDReferrals */\n      tag_126\n        /* \"contracts/stake_reward_MLM.sol\":4686:4739  sendRewardToDUSDReferrals(msg.sender,_investedamount) */\n      jump\t// in\n    tag_125:\n        /* \"contracts/stake_reward_MLM.sol\":4253:4848  if(_referral==address(0) || _referral==msg.sender)                                         //checking that investor comes from the referral link or not... */\n    tag_123:\n        /* \"contracts/stake_reward_MLM.sol\":4868:4872  true */\n      0x01\n        /* \"contracts/stake_reward_MLM.sol\":4861:4872  return true */\n      swap2\n      pop\n      pop\n        /* \"contracts/stake_reward_MLM.sol\":3127:4896  function Stake(uint _investedamount,address _referral) external returns(bool success){... */\n      swap3\n      swap2\n      pop\n      pop\n      jump\t// out\n        /* \"contracts/stake_reward_MLM.sol\":8931:9042  function set_min_Stake_amount(uint _amount) public ... */\n    tag_48:\n        /* \"contracts/stake_reward_MLM.sol\":9024:9031  _amount */\n      dup1\n        /* \"contracts/stake_reward_MLM.sol\":9005:9021  min_Stake_amount */\n      0x05\n        /* \"contracts/stake_reward_MLM.sol\":9005:9031  min_Stake_amount = _amount */\n      dup2\n      swap1\n      sstore\n      pop\n        /* \"contracts/stake_reward_MLM.sol\":8931:9042  function set_min_Stake_amount(uint _amount) public ... */\n      pop\n      jump\t// out\n        /* \"contracts/stake_reward_MLM.sol\":6722:7705  function getAllDUSDinvestments() public view returns (allInvestments[] memory) { //this function will return the all investments of the investor and withware date... */\n    tag_50:\n        /* \"contracts/stake_reward_MLM.sol\":6776:6799  allInvestments[] memory */\n      0x60\n        /* \"contracts/stake_reward_MLM.sol\":6897:6905  uint num */\n      0x00\n        /* \"contracts/stake_reward_MLM.sol\":6908:6920  DUSDinvestor */\n      0x08\n        /* \"contracts/stake_reward_MLM.sol\":6908:6932  DUSDinvestor[msg.sender] */\n      0x00\n        /* \"contracts/stake_reward_MLM.sol\":6921:6931  msg.sender */\n      caller\n        /* \"contracts/stake_reward_MLM.sol\":6908:6932  DUSDinvestor[msg.sender] */\n      0xffffffffffffffffffffffffffffffffffffffff\n      and\n      0xffffffffffffffffffffffffffffffffffffffff\n      and\n      dup2\n      mstore\n      0x20\n      add\n      swap1\n      dup2\n      mstore\n      0x20\n      add\n      0x00\n      keccak256\n        /* \"contracts/stake_reward_MLM.sol\":6908:6947  DUSDinvestor[msg.sender].noOfInvestment */\n      0x05\n      add\n      sload\n        /* \"contracts/stake_reward_MLM.sol\":6897:6947  uint num = DUSDinvestor[msg.sender].noOfInvestment */\n      swap1\n      pop\n        /* \"contracts/stake_reward_MLM.sol\":6961:6970  uint temp */\n      0x00\n        /* \"contracts/stake_reward_MLM.sol\":6984:7001  uint currentIndex */\n      dup1\n        /* \"contracts/stake_reward_MLM.sol\":7032:7038  uint i */\n      0x00\n        /* \"contracts/stake_reward_MLM.sol\":7028:7204  for(uint i=0;i<num;i++)... */\n    tag_129:\n        /* \"contracts/stake_reward_MLM.sol\":7043:7046  num */\n      dup4\n        /* \"contracts/stake_reward_MLM.sol\":7041:7042  i */\n      dup2\n        /* \"contracts/stake_reward_MLM.sol\":7041:7046  i<num */\n      lt\n        /* \"contracts/stake_reward_MLM.sol\":7028:7204  for(uint i=0;i<num;i++)... */\n      iszero\n      tag_130\n      jumpi\n        /* \"contracts/stake_reward_MLM.sol\":7141:7142  0 */\n      0x00\n        /* \"contracts/stake_reward_MLM.sol\":7085:7097  DUSDinvestor */\n      0x08\n        /* \"contracts/stake_reward_MLM.sol\":7085:7109  DUSDinvestor[msg.sender] */\n      0x00\n        /* \"contracts/stake_reward_MLM.sol\":7098:7108  msg.sender */\n      caller\n        /* \"contracts/stake_reward_MLM.sol\":7085:7109  DUSDinvestor[msg.sender] */\n      0xffffffffffffffffffffffffffffffffffffffff\n      and\n      0xffffffffffffffffffffffffffffffffffffffff\n      and\n      dup2\n      mstore\n      0x20\n      add\n      swap1\n      dup2\n      mstore\n      0x20\n      add\n      0x00\n      keccak256\n        /* \"contracts/stake_reward_MLM.sol\":7085:7120  DUSDinvestor[msg.sender].investment */\n      0x00\n      add\n        /* \"contracts/stake_reward_MLM.sol\":7085:7123  DUSDinvestor[msg.sender].investment[i] */\n      0x00\n        /* \"contracts/stake_reward_MLM.sol\":7121:7122  i */\n      dup4\n        /* \"contracts/stake_reward_MLM.sol\":7085:7123  DUSDinvestor[msg.sender].investment[i] */\n      dup2\n      mstore\n      0x20\n      add\n      swap1\n      dup2\n      mstore\n      0x20\n      add\n      0x00\n      keccak256\n        /* \"contracts/stake_reward_MLM.sol\":7085:7138  DUSDinvestor[msg.sender].investment[i].investedAmount */\n      0x00\n      add\n      sload\n        /* \"contracts/stake_reward_MLM.sol\":7085:7142  DUSDinvestor[msg.sender].investment[i].investedAmount > 0 */\n      gt\n        /* \"contracts/stake_reward_MLM.sol\":7081:7189  if( DUSDinvestor[msg.sender].investment[i].investedAmount > 0 ){... */\n      iszero\n      tag_132\n      jumpi\n        /* \"contracts/stake_reward_MLM.sol\":7165:7171  temp++ */\n      dup3\n      dup1\n      tag_133\n      swap1\n      tag_107\n      jump\t// in\n    tag_133:\n      swap4\n      pop\n      pop\n        /* \"contracts/stake_reward_MLM.sol\":7081:7189  if( DUSDinvestor[msg.sender].investment[i].investedAmount > 0 ){... */\n    tag_132:\n        /* \"contracts/stake_reward_MLM.sol\":7047:7050  i++ */\n      dup1\n      dup1\n      tag_134\n      swap1\n      tag_107\n      jump\t// in\n    tag_134:\n      swap2\n      pop\n      pop\n        /* \"contracts/stake_reward_MLM.sol\":7028:7204  for(uint i=0;i<num;i++)... */\n      jump(tag_129)\n    tag_130:\n      pop\n        /* \"contracts/stake_reward_MLM.sol\":7227:7259  allInvestments[] memory Invested */\n      0x00\n        /* \"contracts/stake_reward_MLM.sol\":7284:7288  temp */\n      dup3\n        /* \"contracts/stake_reward_MLM.sol\":7263:7289  new allInvestments[](temp) */\n      0xffffffffffffffff\n      dup2\n      gt\n      iszero\n      tag_135\n      jumpi\n      tag_136\n      tag_137\n      jump\t// in\n    tag_136:\n    tag_135:\n      mload(0x40)\n      swap1\n      dup1\n      dup3\n      mstore\n      dup1\n      0x20\n      mul\n      0x20\n      add\n      dup3\n      add\n      0x40\n      mstore\n      dup1\n      iszero\n      tag_138\n      jumpi\n      dup2\n      0x20\n      add\n    tag_139:\n      tag_140\n      tag_141\n      jump\t// in\n    tag_140:\n      dup2\n      mstore\n      0x20\n      add\n      swap1\n      0x01\n      swap1\n      sub\n      swap1\n      dup2\n      tag_139\n      jumpi\n      swap1\n      pop\n    tag_138:\n      pop\n        /* \"contracts/stake_reward_MLM.sol\":7227:7289  allInvestments[] memory Invested =  new allInvestments[](temp) */\n      swap1\n      pop\n        /* \"contracts/stake_reward_MLM.sol\":7309:7315  uint i */\n      0x00\n        /* \"contracts/stake_reward_MLM.sol\":7305:7665  for(uint i=0;i<num;i++)... */\n    tag_142:\n        /* \"contracts/stake_reward_MLM.sol\":7320:7323  num */\n      dup5\n        /* \"contracts/stake_reward_MLM.sol\":7318:7319  i */\n      dup2\n        /* \"contracts/stake_reward_MLM.sol\":7318:7323  i<num */\n      lt\n        /* \"contracts/stake_reward_MLM.sol\":7305:7665  for(uint i=0;i<num;i++)... */\n      iszero\n      tag_143\n      jumpi\n        /* \"contracts/stake_reward_MLM.sol\":7418:7419  0 */\n      0x00\n        /* \"contracts/stake_reward_MLM.sol\":7362:7374  DUSDinvestor */\n      0x08\n        /* \"contracts/stake_reward_MLM.sol\":7362:7386  DUSDinvestor[msg.sender] */\n      0x00\n        /* \"contracts/stake_reward_MLM.sol\":7375:7385  msg.sender */\n      caller\n        /* \"contracts/stake_reward_MLM.sol\":7362:7386  DUSDinvestor[msg.sender] */\n      0xffffffffffffffffffffffffffffffffffffffff\n      and\n      0xffffffffffffffffffffffffffffffffffffffff\n      and\n      dup2\n      mstore\n      0x20\n      add\n      swap1\n      dup2\n      mstore\n      0x20\n      add\n      0x00\n      keccak256\n        /* \"contracts/stake_reward_MLM.sol\":7362:7397  DUSDinvestor[msg.sender].investment */\n      0x00\n      add\n        /* \"contracts/stake_reward_MLM.sol\":7362:7400  DUSDinvestor[msg.sender].investment[i] */\n      0x00\n        /* \"contracts/stake_reward_MLM.sol\":7398:7399  i */\n      dup4\n        /* \"contracts/stake_reward_MLM.sol\":7362:7400  DUSDinvestor[msg.sender].investment[i] */\n      dup2\n      mstore\n      0x20\n      add\n      swap1\n      dup2\n      mstore\n      0x20\n      add\n      0x00\n      keccak256\n        /* \"contracts/stake_reward_MLM.sol\":7362:7415  DUSDinvestor[msg.sender].investment[i].investedAmount */\n      0x00\n      add\n      sload\n        /* \"contracts/stake_reward_MLM.sol\":7362:7419  DUSDinvestor[msg.sender].investment[i].investedAmount > 0 */\n      gt\n        /* \"contracts/stake_reward_MLM.sol\":7358:7650  if( DUSDinvestor[msg.sender].investment[i].investedAmount > 0 ){... */\n      iszero\n      tag_145\n      jumpi\n        /* \"contracts/stake_reward_MLM.sol\":7559:7571  DUSDinvestor */\n      0x08\n        /* \"contracts/stake_reward_MLM.sol\":7559:7583  DUSDinvestor[msg.sender] */\n      0x00\n        /* \"contracts/stake_reward_MLM.sol\":7572:7582  msg.sender */\n      caller\n        /* \"contracts/stake_reward_MLM.sol\":7559:7583  DUSDinvestor[msg.sender] */\n      0xffffffffffffffffffffffffffffffffffffffff\n      and\n      0xffffffffffffffffffffffffffffffffffffffff\n      and\n      dup2\n      mstore\n      0x20\n      add\n      swap1\n      dup2\n      mstore\n      0x20\n      add\n      0x00\n      keccak256\n        /* \"contracts/stake_reward_MLM.sol\":7559:7594  DUSDinvestor[msg.sender].investment */\n      0x00\n      add\n        /* \"contracts/stake_reward_MLM.sol\":7559:7597  DUSDinvestor[msg.sender].investment[i] */\n      0x00\n        /* \"contracts/stake_reward_MLM.sol\":7595:7596  i */\n      dup3\n        /* \"contracts/stake_reward_MLM.sol\":7559:7597  DUSDinvestor[msg.sender].investment[i] */\n      dup2\n      mstore\n      0x20\n      add\n      swap1\n      dup2\n      mstore\n      0x20\n      add\n      0x00\n      keccak256\n        /* \"contracts/stake_reward_MLM.sol\":7536:7597  Invested[currentIndex]=DUSDinvestor[msg.sender].investment[i] */\n      mload(0x40)\n      dup1\n      0x80\n      add\n      0x40\n      mstore\n      swap1\n      dup2\n      0x00\n      dup3\n      add\n      sload\n      dup2\n      mstore\n      0x20\n      add\n      0x01\n      dup3\n      add\n      sload\n      dup2\n      mstore\n      0x20\n      add\n      0x02\n      dup3\n      add\n      sload\n      dup2\n      mstore\n      0x20\n      add\n      0x03\n      dup3\n      add\n      sload\n      dup2\n      mstore\n      pop\n      pop\n        /* \"contracts/stake_reward_MLM.sol\":7536:7544  Invested */\n      dup3\n        /* \"contracts/stake_reward_MLM.sol\":7545:7557  currentIndex */\n      dup5\n        /* \"contracts/stake_reward_MLM.sol\":7536:7558  Invested[currentIndex] */\n      dup2\n      mload\n      dup2\n      lt\n      tag_146\n      jumpi\n      tag_147\n      tag_148\n      jump\t// in\n    tag_147:\n    tag_146:\n      0x20\n      mul\n      0x20\n      add\n      add\n        /* \"contracts/stake_reward_MLM.sol\":7536:7597  Invested[currentIndex]=DUSDinvestor[msg.sender].investment[i] */\n      dup2\n      swap1\n      mstore\n      pop\n        /* \"contracts/stake_reward_MLM.sol\":7618:7632  currentIndex++ */\n      dup3\n      dup1\n      tag_149\n      swap1\n      tag_107\n      jump\t// in\n    tag_149:\n      swap4\n      pop\n      pop\n        /* \"contracts/stake_reward_MLM.sol\":7358:7650  if( DUSDinvestor[msg.sender].investment[i].investedAmount > 0 ){... */\n    tag_145:\n        /* \"contracts/stake_reward_MLM.sol\":7324:7327  i++ */\n      dup1\n      dup1\n      tag_150\n      swap1\n      tag_107\n      jump\t// in\n    tag_150:\n      swap2\n      pop\n      pop\n        /* \"contracts/stake_reward_MLM.sol\":7305:7665  for(uint i=0;i<num;i++)... */\n      jump(tag_142)\n    tag_143:\n      pop\n        /* \"contracts/stake_reward_MLM.sol\":7685:7693  Invested */\n      dup1\n        /* \"contracts/stake_reward_MLM.sol\":7678:7693  return Invested */\n      swap5\n      pop\n      pop\n      pop\n      pop\n      pop\n        /* \"contracts/stake_reward_MLM.sol\":6722:7705  function getAllDUSDinvestments() public view returns (allInvestments[] memory) { //this function will return the all investments of the investor and withware date... */\n      swap1\n      jump\t// out\n        /* \"contracts/stake_reward_MLM.sol\":7715:8398  function getReward() view public returns(uint){ //this function is get the total reward balance of the investor... */\n    tag_54:\n        /* \"contracts/stake_reward_MLM.sol\":7756:7760  uint */\n      0x00\n        /* \"contracts/stake_reward_MLM.sol\":7839:7855  uint totalReward */\n      dup1\n        /* \"contracts/stake_reward_MLM.sol\":7869:7881  uint depTime */\n      0x00\n        /* \"contracts/stake_reward_MLM.sol\":7895:7904  uint temp */\n      dup1\n        /* \"contracts/stake_reward_MLM.sol\":7907:7919  DUSDinvestor */\n      0x08\n        /* \"contracts/stake_reward_MLM.sol\":7907:7931  DUSDinvestor[msg.sender] */\n      0x00\n        /* \"contracts/stake_reward_MLM.sol\":7920:7930  msg.sender */\n      caller\n        /* \"contracts/stake_reward_MLM.sol\":7907:7931  DUSDinvestor[msg.sender] */\n      0xffffffffffffffffffffffffffffffffffffffff\n      and\n      0xffffffffffffffffffffffffffffffffffffffff\n      and\n      dup2\n      mstore\n      0x20\n      add\n      swap1\n      dup2\n      mstore\n      0x20\n      add\n      0x00\n      keccak256\n        /* \"contracts/stake_reward_MLM.sol\":7907:7946  DUSDinvestor[msg.sender].noOfInvestment */\n      0x05\n      add\n      sload\n        /* \"contracts/stake_reward_MLM.sol\":7895:7946  uint temp = DUSDinvestor[msg.sender].noOfInvestment */\n      swap1\n      pop\n        /* \"contracts/stake_reward_MLM.sol\":7964:7970  uint i */\n      0x00\n        /* \"contracts/stake_reward_MLM.sol\":7960:8356  for(uint i=0;i < temp;i++)... */\n    tag_152:\n        /* \"contracts/stake_reward_MLM.sol\":7977:7981  temp */\n      dup2\n        /* \"contracts/stake_reward_MLM.sol\":7973:7974  i */\n      dup2\n        /* \"contracts/stake_reward_MLM.sol\":7973:7981  i < temp */\n      lt\n        /* \"contracts/stake_reward_MLM.sol\":7960:8356  for(uint i=0;i < temp;i++)... */\n      iszero\n      tag_153\n      jumpi\n        /* \"contracts/stake_reward_MLM.sol\":8047:8059  DUSDinvestor */\n      0x08\n        /* \"contracts/stake_reward_MLM.sol\":8047:8071  DUSDinvestor[msg.sender] */\n      0x00\n        /* \"contracts/stake_reward_MLM.sol\":8060:8070  msg.sender */\n      caller\n        /* \"contracts/stake_reward_MLM.sol\":8047:8071  DUSDinvestor[msg.sender] */\n      0xffffffffffffffffffffffffffffffffffffffff\n      and\n      0xffffffffffffffffffffffffffffffffffffffff\n      and\n      dup2\n      mstore\n      0x20\n      add\n      swap1\n      dup2\n      mstore\n      0x20\n      add\n      0x00\n      keccak256\n        /* \"contracts/stake_reward_MLM.sol\":8047:8082  DUSDinvestor[msg.sender].investment */\n      0x00\n      add\n        /* \"contracts/stake_reward_MLM.sol\":8047:8085  DUSDinvestor[msg.sender].investment[i] */\n      0x00\n        /* \"contracts/stake_reward_MLM.sol\":8083:8084  i */\n      dup3\n        /* \"contracts/stake_reward_MLM.sol\":8047:8085  DUSDinvestor[msg.sender].investment[i] */\n      dup2\n      mstore\n      0x20\n      add\n      swap1\n      dup2\n      mstore\n      0x20\n      add\n      0x00\n      keccak256\n        /* \"contracts/stake_reward_MLM.sol\":8047:8097  DUSDinvestor[msg.sender].investment[i].DepositTime */\n      0x02\n      add\n      sload\n        /* \"contracts/stake_reward_MLM.sol\":8029:8044  block.timestamp */\n      timestamp\n        /* \"contracts/stake_reward_MLM.sol\":8029:8097  block.timestamp - DUSDinvestor[msg.sender].investment[i].DepositTime */\n      tag_155\n      swap2\n      swap1\n      tag_156\n      jump\t// in\n    tag_155:\n        /* \"contracts/stake_reward_MLM.sol\":8020:8097  depTime =block.timestamp - DUSDinvestor[msg.sender].investment[i].DepositTime */\n      swap3\n      pop\n        /* \"contracts/stake_reward_MLM.sol\":8131:8133  60 */\n      0x3c\n        /* \"contracts/stake_reward_MLM.sol\":8123:8130  depTime */\n      dup4\n        /* \"contracts/stake_reward_MLM.sol\":8123:8133  depTime/60 */\n      tag_157\n      swap2\n      swap1\n      tag_158\n      jump\t// in\n    tag_157:\n        /* \"contracts/stake_reward_MLM.sol\":8115:8133  depTime=depTime/60 */\n      swap3\n      pop\n        /* \"contracts/stake_reward_MLM.sol\":8170:8171  0 */\n      0x00\n        /* \"contracts/stake_reward_MLM.sol\":8162:8169  depTime */\n      dup4\n        /* \"contracts/stake_reward_MLM.sol\":8162:8171  depTime>0 */\n      gt\n        /* \"contracts/stake_reward_MLM.sol\":8159:8264  if(depTime>0)... */\n      iszero\n      tag_159\n      jumpi\n        /* \"contracts/stake_reward_MLM.sol\":8234:8245  rewardToken */\n      sload(0x04)\n        /* \"contracts/stake_reward_MLM.sol\":8224:8231  depTime */\n      dup4\n        /* \"contracts/stake_reward_MLM.sol\":8224:8245  depTime * rewardToken */\n      tag_160\n      swap2\n      swap1\n      tag_113\n      jump\t// in\n    tag_160:\n        /* \"contracts/stake_reward_MLM.sol\":8210:8245  totalReward = depTime * rewardToken */\n      swap4\n      pop\n        /* \"contracts/stake_reward_MLM.sol\":8159:8264  if(depTime>0)... */\n    tag_159:\n        /* \"contracts/stake_reward_MLM.sol\":8295:8307  DUSDinvestor */\n      0x08\n        /* \"contracts/stake_reward_MLM.sol\":8295:8319  DUSDinvestor[msg.sender] */\n      0x00\n        /* \"contracts/stake_reward_MLM.sol\":8308:8318  msg.sender */\n      caller\n        /* \"contracts/stake_reward_MLM.sol\":8295:8319  DUSDinvestor[msg.sender] */\n      0xffffffffffffffffffffffffffffffffffffffff\n      and\n      0xffffffffffffffffffffffffffffffffffffffff\n      and\n      dup2\n      mstore\n      0x20\n      add\n      swap1\n      dup2\n      mstore\n      0x20\n      add\n      0x00\n      keccak256\n        /* \"contracts/stake_reward_MLM.sol\":8295:8340  DUSDinvestor[msg.sender].totalWithdraw_reward */\n      0x07\n      add\n      sload\n        /* \"contracts/stake_reward_MLM.sol\":8281:8340  totalReward -=DUSDinvestor[msg.sender].totalWithdraw_reward */\n      dup5\n      tag_161\n      swap2\n      swap1\n      tag_156\n      jump\t// in\n    tag_161:\n      swap4\n      pop\n        /* \"contracts/stake_reward_MLM.sol\":7982:7985  i++ */\n      dup1\n      dup1\n      tag_162\n      swap1\n      tag_107\n      jump\t// in\n    tag_162:\n      swap2\n      pop\n      pop\n        /* \"contracts/stake_reward_MLM.sol\":7960:8356  for(uint i=0;i < temp;i++)... */\n      jump(tag_152)\n    tag_153:\n      pop\n        /* \"contracts/stake_reward_MLM.sol\":8376:8387  totalReward */\n      dup3\n        /* \"contracts/stake_reward_MLM.sol\":8369:8387  return totalReward */\n      swap4\n      pop\n      pop\n      pop\n      pop\n        /* \"contracts/stake_reward_MLM.sol\":7715:8398  function getReward() view public returns(uint){ //this function is get the total reward balance of the investor... */\n      swap1\n      jump\t// out\n        /* \"contracts/stake_reward_MLM.sol\":9051:9162  function set_max_Stake_amount(uint _amount) public ... */\n    tag_58:\n        /* \"contracts/stake_reward_MLM.sol\":9144:9151  _amount */\n      dup1\n        /* \"contracts/stake_reward_MLM.sol\":9125:9141  max_Stake_amount */\n      0x06\n        /* \"contracts/stake_reward_MLM.sol\":9125:9151  max_Stake_amount = _amount */\n      dup2\n      swap1\n      sstore\n      pop\n        /* \"contracts/stake_reward_MLM.sol\":9051:9162  function set_max_Stake_amount(uint _amount) public ... */\n      pop\n      jump\t// out\n        /* \"contracts/stake_reward_MLM.sol\":5396:6492  function unStake(uint _id) external  returns (bool success){... */\n    tag_61:\n        /* \"contracts/stake_reward_MLM.sol\":5442:5454  bool success */\n      0x00\n        /* \"contracts/stake_reward_MLM.sol\":5533:5534  0 */\n      dup1\n        /* \"contracts/stake_reward_MLM.sol\":5477:5489  DUSDinvestor */\n      0x08\n        /* \"contracts/stake_reward_MLM.sol\":5477:5501  DUSDinvestor[msg.sender] */\n      0x00\n        /* \"contracts/stake_reward_MLM.sol\":5490:5500  msg.sender */\n      caller\n        /* \"contracts/stake_reward_MLM.sol\":5477:5501  DUSDinvestor[msg.sender] */\n      0xffffffffffffffffffffffffffffffffffffffff\n      and\n      0xffffffffffffffffffffffffffffffffffffffff\n      and\n      dup2\n      mstore\n      0x20\n      add\n      swap1\n      dup2\n      mstore\n      0x20\n      add\n      0x00\n      keccak256\n        /* \"contracts/stake_reward_MLM.sol\":5477:5512  DUSDinvestor[msg.sender].investment */\n      0x00\n      add\n        /* \"contracts/stake_reward_MLM.sol\":5477:5517  DUSDinvestor[msg.sender].investment[_id] */\n      0x00\n        /* \"contracts/stake_reward_MLM.sol\":5513:5516  _id */\n      dup5\n        /* \"contracts/stake_reward_MLM.sol\":5477:5517  DUSDinvestor[msg.sender].investment[_id] */\n      dup2\n      mstore\n      0x20\n      add\n      swap1\n      dup2\n      mstore\n      0x20\n      add\n      0x00\n      keccak256\n        /* \"contracts/stake_reward_MLM.sol\":5477:5532  DUSDinvestor[msg.sender].investment[_id].investedAmount */\n      0x00\n      add\n      sload\n        /* \"contracts/stake_reward_MLM.sol\":5477:5534  DUSDinvestor[msg.sender].investment[_id].investedAmount>0 */\n      gt\n        /* \"contracts/stake_reward_MLM.sol\":5469:5575  require(DUSDinvestor[msg.sender].investment[_id].investedAmount>0,\"you dont have investment to withdrawn\") */\n      tag_165\n      jumpi\n      mload(0x40)\n      0x08c379a000000000000000000000000000000000000000000000000000000000\n      dup2\n      mstore\n      0x04\n      add\n      tag_166\n      swap1\n      tag_167\n      jump\t// in\n    tag_166:\n      mload(0x40)\n      dup1\n      swap2\n      sub\n      swap1\n      revert\n    tag_165:\n        /* \"contracts/stake_reward_MLM.sol\":5647:5658  uint amount */\n      0x00\n        /* \"contracts/stake_reward_MLM.sol\":5659:5671  DUSDinvestor */\n      0x08\n        /* \"contracts/stake_reward_MLM.sol\":5659:5683  DUSDinvestor[msg.sender] */\n      0x00\n        /* \"contracts/stake_reward_MLM.sol\":5672:5682  msg.sender */\n      caller\n        /* \"contracts/stake_reward_MLM.sol\":5659:5683  DUSDinvestor[msg.sender] */\n      0xffffffffffffffffffffffffffffffffffffffff\n      and\n      0xffffffffffffffffffffffffffffffffffffffff\n      and\n      dup2\n      mstore\n      0x20\n      add\n      swap1\n      dup2\n      mstore\n      0x20\n      add\n      0x00\n      keccak256\n        /* \"contracts/stake_reward_MLM.sol\":5659:5694  DUSDinvestor[msg.sender].investment */\n      0x00\n      add\n        /* \"contracts/stake_reward_MLM.sol\":5659:5699  DUSDinvestor[msg.sender].investment[_id] */\n      0x00\n        /* \"contracts/stake_reward_MLM.sol\":5695:5698  _id */\n      dup5\n        /* \"contracts/stake_reward_MLM.sol\":5659:5699  DUSDinvestor[msg.sender].investment[_id] */\n      dup2\n      mstore\n      0x20\n      add\n      swap1\n      dup2\n      mstore\n      0x20\n      add\n      0x00\n      keccak256\n        /* \"contracts/stake_reward_MLM.sol\":5659:5714  DUSDinvestor[msg.sender].investment[_id].investedAmount */\n      0x00\n      add\n      sload\n        /* \"contracts/stake_reward_MLM.sol\":5647:5714  uint amount=DUSDinvestor[msg.sender].investment[_id].investedAmount */\n      swap1\n      pop\n        /* \"contracts/stake_reward_MLM.sol\":5788:5803  block.timestamp */\n      timestamp\n        /* \"contracts/stake_reward_MLM.sol\":5731:5743  DUSDinvestor */\n      0x08\n        /* \"contracts/stake_reward_MLM.sol\":5731:5755  DUSDinvestor[msg.sender] */\n      0x00\n        /* \"contracts/stake_reward_MLM.sol\":5744:5754  msg.sender */\n      caller\n        /* \"contracts/stake_reward_MLM.sol\":5731:5755  DUSDinvestor[msg.sender] */\n      0xffffffffffffffffffffffffffffffffffffffff\n      and\n      0xffffffffffffffffffffffffffffffffffffffff\n      and\n      dup2\n      mstore\n      0x20\n      add\n      swap1\n      dup2\n      mstore\n      0x20\n      add\n      0x00\n      keccak256\n        /* \"contracts/stake_reward_MLM.sol\":5731:5766  DUSDinvestor[msg.sender].investment */\n      0x00\n      add\n        /* \"contracts/stake_reward_MLM.sol\":5731:5771  DUSDinvestor[msg.sender].investment[_id] */\n      0x00\n        /* \"contracts/stake_reward_MLM.sol\":5767:5770  _id */\n      dup6\n        /* \"contracts/stake_reward_MLM.sol\":5731:5771  DUSDinvestor[msg.sender].investment[_id] */\n      dup2\n      mstore\n      0x20\n      add\n      swap1\n      dup2\n      mstore\n      0x20\n      add\n      0x00\n      keccak256\n        /* \"contracts/stake_reward_MLM.sol\":5731:5785  DUSDinvestor[msg.sender].investment[_id].withdrawnTime */\n      0x01\n      add\n      sload\n        /* \"contracts/stake_reward_MLM.sol\":5731:5803  DUSDinvestor[msg.sender].investment[_id].withdrawnTime > block.timestamp */\n      gt\n        /* \"contracts/stake_reward_MLM.sol\":5728:5867  if(DUSDinvestor[msg.sender].investment[_id].withdrawnTime > block.timestamp)... */\n      iszero\n      tag_168\n      jumpi\n        /* \"contracts/stake_reward_MLM.sol\":5851:5852  2 */\n      0x02\n        /* \"contracts/stake_reward_MLM.sol\":5844:5850  amount */\n      dup2\n        /* \"contracts/stake_reward_MLM.sol\":5844:5852  amount/2 */\n      tag_169\n      swap2\n      swap1\n      tag_158\n      jump\t// in\n    tag_169:\n        /* \"contracts/stake_reward_MLM.sol\":5835:5852  amount = amount/2 */\n      swap1\n      pop\n        /* \"contracts/stake_reward_MLM.sol\":5728:5867  if(DUSDinvestor[msg.sender].investment[_id].withdrawnTime > block.timestamp)... */\n    tag_168:\n        /* \"contracts/stake_reward_MLM.sol\":5898:5909  SMCcontract */\n      0x01\n      0x00\n      swap1\n      sload\n      swap1\n      0x0100\n      exp\n      swap1\n      div\n      0xffffffffffffffffffffffffffffffffffffffff\n      and\n        /* \"contracts/stake_reward_MLM.sol\":5893:5919  DUSD(SMCcontract).transfer */\n      0xffffffffffffffffffffffffffffffffffffffff\n      and\n      0xa9059cbb\n        /* \"contracts/stake_reward_MLM.sol\":5920:5930  msg.sender */\n      caller\n        /* \"contracts/stake_reward_MLM.sol\":5931:5937  amount */\n      dup4\n        /* \"contracts/stake_reward_MLM.sol\":5893:5938  DUSD(SMCcontract).transfer(msg.sender,amount) */\n      mload(0x40)\n      dup4\n      0xffffffff\n      and\n      0xe0\n      shl\n      dup2\n      mstore\n      0x04\n      add\n      tag_170\n      swap3\n      swap2\n      swap1\n      tag_171\n      jump\t// in\n    tag_170:\n      0x20\n      mload(0x40)\n      dup1\n      dup4\n      sub\n      dup2\n      0x00\n      dup8\n      dup1\n      extcodesize\n      iszero\n      dup1\n      iszero\n      tag_172\n      jumpi\n      0x00\n      dup1\n      revert\n    tag_172:\n      pop\n      gas\n      call\n      iszero\n      dup1\n      iszero\n      tag_174\n      jumpi\n      returndatasize\n      0x00\n      dup1\n      returndatacopy\n      revert(0x00, returndatasize)\n    tag_174:\n      pop\n      pop\n      pop\n      pop\n      mload(0x40)\n      returndatasize\n      not(0x1f)\n      0x1f\n      dup3\n      add\n      and\n      dup3\n      add\n      dup1\n      0x40\n      mstore\n      pop\n      dup2\n      add\n      swap1\n      tag_175\n      swap2\n      swap1\n      tag_120\n      jump\t// in\n    tag_175:\n      pop\n        /* \"contracts/stake_reward_MLM.sol\":6025:6036  SMCcontract */\n      0x01\n      0x00\n      swap1\n      sload\n      swap1\n      0x0100\n      exp\n      swap1\n      div\n      0xffffffffffffffffffffffffffffffffffffffff\n      and\n        /* \"contracts/stake_reward_MLM.sol\":6020:6046  DUSD(SMCcontract).transfer */\n      0xffffffffffffffffffffffffffffffffffffffff\n      and\n      0xa9059cbb\n        /* \"contracts/stake_reward_MLM.sol\":6047:6052  owner */\n      0x00\n      dup1\n      sload\n      swap1\n      0x0100\n      exp\n      swap1\n      div\n      0xffffffffffffffffffffffffffffffffffffffff\n      and\n        /* \"contracts/stake_reward_MLM.sol\":6053:6059  amount */\n      dup4\n        /* \"contracts/stake_reward_MLM.sol\":6020:6060  DUSD(SMCcontract).transfer(owner,amount) */\n      mload(0x40)\n      dup4\n      0xffffffff\n      and\n      0xe0\n      shl\n      dup2\n      mstore\n      0x04\n      add\n      tag_176\n      swap3\n      swap2\n      swap1\n      tag_171\n      jump\t// in\n    tag_176:\n      0x20\n      mload(0x40)\n      dup1\n      dup4\n      sub\n      dup2\n      0x00\n      dup8\n      dup1\n      extcodesize\n      iszero\n      dup1\n      iszero\n      tag_177\n      jumpi\n      0x00\n      dup1\n      revert\n    tag_177:\n      pop\n      gas\n      call\n      iszero\n      dup1\n      iszero\n      tag_179\n      jumpi\n      returndatasize\n      0x00\n      dup1\n      returndatacopy\n      revert(0x00, returndatasize)\n    tag_179:\n      pop\n      pop\n      pop\n      pop\n      mload(0x40)\n      returndatasize\n      not(0x1f)\n      0x1f\n      dup3\n      add\n      and\n      dup3\n      add\n      dup1\n      0x40\n      mstore\n      pop\n      dup2\n      add\n      swap1\n      tag_180\n      swap2\n      swap1\n      tag_120\n      jump\t// in\n    tag_180:\n      pop\n        /* \"contracts/stake_reward_MLM.sol\":6199:6200  0 */\n      0x00\n        /* \"contracts/stake_reward_MLM.sol\":6143:6155  DUSDinvestor */\n      0x08\n        /* \"contracts/stake_reward_MLM.sol\":6143:6167  DUSDinvestor[msg.sender] */\n      0x00\n        /* \"contracts/stake_reward_MLM.sol\":6156:6166  msg.sender */\n      caller\n        /* \"contracts/stake_reward_MLM.sol\":6143:6167  DUSDinvestor[msg.sender] */\n      0xffffffffffffffffffffffffffffffffffffffff\n      and\n      0xffffffffffffffffffffffffffffffffffffffff\n      and\n      dup2\n      mstore\n      0x20\n      add\n      swap1\n      dup2\n      mstore\n      0x20\n      add\n      0x00\n      keccak256\n        /* \"contracts/stake_reward_MLM.sol\":6143:6178  DUSDinvestor[msg.sender].investment */\n      0x00\n      add\n        /* \"contracts/stake_reward_MLM.sol\":6143:6183  DUSDinvestor[msg.sender].investment[_id] */\n      0x00\n        /* \"contracts/stake_reward_MLM.sol\":6179:6182  _id */\n      dup6\n        /* \"contracts/stake_reward_MLM.sol\":6143:6183  DUSDinvestor[msg.sender].investment[_id] */\n      dup2\n      mstore\n      0x20\n      add\n      swap1\n      dup2\n      mstore\n      0x20\n      add\n      0x00\n      keccak256\n        /* \"contracts/stake_reward_MLM.sol\":6143:6198  DUSDinvestor[msg.sender].investment[_id].investedAmount */\n      0x00\n      add\n        /* \"contracts/stake_reward_MLM.sol\":6143:6200  DUSDinvestor[msg.sender].investment[_id].investedAmount=0 */\n      dup2\n      swap1\n      sstore\n      pop\n        /* \"contracts/stake_reward_MLM.sol\":6379:6385  amount */\n      dup1\n        /* \"contracts/stake_reward_MLM.sol\":6337:6349  DUSDinvestor */\n      0x08\n        /* \"contracts/stake_reward_MLM.sol\":6337:6361  DUSDinvestor[msg.sender] */\n      0x00\n        /* \"contracts/stake_reward_MLM.sol\":6350:6360  msg.sender */\n      caller\n        /* \"contracts/stake_reward_MLM.sol\":6337:6361  DUSDinvestor[msg.sender] */\n      0xffffffffffffffffffffffffffffffffffffffff\n      and\n      0xffffffffffffffffffffffffffffffffffffffff\n      and\n      dup2\n      mstore\n      0x20\n      add\n      swap1\n      dup2\n      mstore\n      0x20\n      add\n      0x00\n      keccak256\n        /* \"contracts/stake_reward_MLM.sol\":6337:6377  DUSDinvestor[msg.sender].totalInvestment */\n      0x06\n      add\n      0x00\n        /* \"contracts/stake_reward_MLM.sol\":6337:6385  DUSDinvestor[msg.sender].totalInvestment-=amount */\n      dup3\n      dup3\n      sload\n      tag_181\n      swap2\n      swap1\n      tag_156\n      jump\t// in\n    tag_181:\n      swap3\n      pop\n      pop\n      dup2\n      swap1\n      sstore\n      pop\n        /* \"contracts/stake_reward_MLM.sol\":6476:6480  true */\n      0x01\n        /* \"contracts/stake_reward_MLM.sol\":6469:6480  return true */\n      swap2\n      pop\n      pop\n        /* \"contracts/stake_reward_MLM.sol\":5396:6492  function unStake(uint _id) external  returns (bool success){... */\n      swap2\n      swap1\n      pop\n      jump\t// out\n        /* \"contracts/stake_reward_MLM.sol\":300:321  address  public owner */\n    tag_64:\n      0x00\n      dup1\n      sload\n      swap1\n      0x0100\n      exp\n      swap1\n      div\n      0xffffffffffffffffffffffffffffffffffffffff\n      and\n      dup2\n      jump\t// out\n        /* \"contracts/stake_reward_MLM.sol\":6502:6712  function getTotalInvestmentDUSD() public view returns(uint) {   //this function is to get the total investment of the ivestor... */\n    tag_68:\n        /* \"contracts/stake_reward_MLM.sol\":6556:6560  uint */\n      0x00\n        /* \"contracts/stake_reward_MLM.sol\":6660:6672  DUSDinvestor */\n      0x08\n        /* \"contracts/stake_reward_MLM.sol\":6660:6684  DUSDinvestor[msg.sender] */\n      0x00\n        /* \"contracts/stake_reward_MLM.sol\":6673:6683  msg.sender */\n      caller\n        /* \"contracts/stake_reward_MLM.sol\":6660:6684  DUSDinvestor[msg.sender] */\n      0xffffffffffffffffffffffffffffffffffffffff\n      and\n      0xffffffffffffffffffffffffffffffffffffffff\n      and\n      dup2\n      mstore\n      0x20\n      add\n      swap1\n      dup2\n      mstore\n      0x20\n      add\n      0x00\n      keccak256\n        /* \"contracts/stake_reward_MLM.sol\":6660:6700  DUSDinvestor[msg.sender].totalInvestment */\n      0x06\n      add\n      sload\n        /* \"contracts/stake_reward_MLM.sol\":6653:6700  return DUSDinvestor[msg.sender].totalInvestment */\n      swap1\n      pop\n        /* \"contracts/stake_reward_MLM.sol\":6502:6712  function getTotalInvestmentDUSD() public view returns(uint) {   //this function is to get the total investment of the ivestor... */\n      swap1\n      jump\t// out\n        /* \"contracts/stake_reward_MLM.sol\":9588:10153  function referralLevel_earning() public view returns( uint[] memory arr )... */\n    tag_71:\n        /* \"contracts/stake_reward_MLM.sol\":9642:9659  uint[] memory arr */\n      0x60\n        /* \"contracts/stake_reward_MLM.sol\":9684:9719  uint[] memory referralLevels_reward */\n      0x00\n        /* \"contracts/stake_reward_MLM.sol\":9731:9733  20 */\n      0x14\n        /* \"contracts/stake_reward_MLM.sol\":9720:9734  new uint[](20) */\n      0xffffffffffffffff\n      dup2\n      gt\n      iszero\n      tag_184\n      jumpi\n      tag_185\n      tag_137\n      jump\t// in\n    tag_185:\n    tag_184:\n      mload(0x40)\n      swap1\n      dup1\n      dup3\n      mstore\n      dup1\n      0x20\n      mul\n      0x20\n      add\n      dup3\n      add\n      0x40\n      mstore\n      dup1\n      iszero\n      tag_186\n      jumpi\n      dup2\n      0x20\n      add\n      0x20\n      dup3\n      mul\n      dup1\n      calldatasize\n      dup4\n      calldatacopy\n      dup1\n      dup3\n      add\n      swap2\n      pop\n      pop\n      swap1\n      pop\n    tag_186:\n      pop\n        /* \"contracts/stake_reward_MLM.sol\":9684:9734  uint[] memory referralLevels_reward=new uint[](20) */\n      swap1\n      pop\n        /* \"contracts/stake_reward_MLM.sol\":9752:9758  uint i */\n      0x00\n        /* \"contracts/stake_reward_MLM.sol\":9748:10098  for(uint i=0;i<20;i++)... */\n    tag_187:\n        /* \"contracts/stake_reward_MLM.sol\":9763:9765  20 */\n      0x14\n        /* \"contracts/stake_reward_MLM.sol\":9761:9762  i */\n      dup2\n        /* \"contracts/stake_reward_MLM.sol\":9761:9765  i<20 */\n      lt\n        /* \"contracts/stake_reward_MLM.sol\":9748:10098  for(uint i=0;i<20;i++)... */\n      iszero\n      tag_188\n      jumpi\n        /* \"contracts/stake_reward_MLM.sol\":9853:9854  0 */\n      0x00\n        /* \"contracts/stake_reward_MLM.sol\":9804:9816  DUSDinvestor */\n      0x08\n        /* \"contracts/stake_reward_MLM.sol\":9804:9828  DUSDinvestor[msg.sender] */\n      0x00\n        /* \"contracts/stake_reward_MLM.sol\":9817:9827  msg.sender */\n      caller\n        /* \"contracts/stake_reward_MLM.sol\":9804:9828  DUSDinvestor[msg.sender] */\n      0xffffffffffffffffffffffffffffffffffffffff\n      and\n      0xffffffffffffffffffffffffffffffffffffffff\n      and\n      dup2\n      mstore\n      0x20\n      add\n      swap1\n      dup2\n      mstore\n      0x20\n      add\n      0x00\n      keccak256\n        /* \"contracts/stake_reward_MLM.sol\":9804:9842  DUSDinvestor[msg.sender].referralLevel */\n      0x03\n      add\n        /* \"contracts/stake_reward_MLM.sol\":9804:9845  DUSDinvestor[msg.sender].referralLevel[i] */\n      0x00\n        /* \"contracts/stake_reward_MLM.sol\":9843:9844  i */\n      dup4\n        /* \"contracts/stake_reward_MLM.sol\":9804:9845  DUSDinvestor[msg.sender].referralLevel[i] */\n      dup2\n      mstore\n      0x20\n      add\n      swap1\n      dup2\n      mstore\n      0x20\n      add\n      0x00\n      keccak256\n        /* \"contracts/stake_reward_MLM.sol\":9804:9852  DUSDinvestor[msg.sender].referralLevel[i].reward */\n      0x00\n      add\n      sload\n        /* \"contracts/stake_reward_MLM.sol\":9804:9854  DUSDinvestor[msg.sender].referralLevel[i].reward>0 */\n      gt\n        /* \"contracts/stake_reward_MLM.sol\":9801:10082  if(DUSDinvestor[msg.sender].referralLevel[i].reward>0)... */\n      iszero\n      tag_190\n      jumpi\n        /* \"contracts/stake_reward_MLM.sol\":9921:9933  DUSDinvestor */\n      0x08\n        /* \"contracts/stake_reward_MLM.sol\":9921:9945  DUSDinvestor[msg.sender] */\n      0x00\n        /* \"contracts/stake_reward_MLM.sol\":9934:9944  msg.sender */\n      caller\n        /* \"contracts/stake_reward_MLM.sol\":9921:9945  DUSDinvestor[msg.sender] */\n      0xffffffffffffffffffffffffffffffffffffffff\n      and\n      0xffffffffffffffffffffffffffffffffffffffff\n      and\n      dup2\n      mstore\n      0x20\n      add\n      swap1\n      dup2\n      mstore\n      0x20\n      add\n      0x00\n      keccak256\n        /* \"contracts/stake_reward_MLM.sol\":9921:9959  DUSDinvestor[msg.sender].referralLevel */\n      0x03\n      add\n        /* \"contracts/stake_reward_MLM.sol\":9921:9962  DUSDinvestor[msg.sender].referralLevel[i] */\n      0x00\n        /* \"contracts/stake_reward_MLM.sol\":9960:9961  i */\n      dup3\n        /* \"contracts/stake_reward_MLM.sol\":9921:9962  DUSDinvestor[msg.sender].referralLevel[i] */\n      dup2\n      mstore\n      0x20\n      add\n      swap1\n      dup2\n      mstore\n      0x20\n      add\n      0x00\n      keccak256\n        /* \"contracts/stake_reward_MLM.sol\":9921:9969  DUSDinvestor[msg.sender].referralLevel[i].reward */\n      0x00\n      add\n      sload\n        /* \"contracts/stake_reward_MLM.sol\":9894:9915  referralLevels_reward */\n      dup3\n        /* \"contracts/stake_reward_MLM.sol\":9916:9917  i */\n      dup3\n        /* \"contracts/stake_reward_MLM.sol\":9894:9918  referralLevels_reward[i] */\n      dup2\n      mload\n      dup2\n      lt\n      tag_191\n      jumpi\n      tag_192\n      tag_148\n      jump\t// in\n    tag_192:\n    tag_191:\n      0x20\n      mul\n      0x20\n      add\n      add\n        /* \"contracts/stake_reward_MLM.sol\":9894:9969  referralLevels_reward[i] = DUSDinvestor[msg.sender].referralLevel[i].reward */\n      dup2\n      dup2\n      mstore\n      pop\n      pop\n        /* \"contracts/stake_reward_MLM.sol\":9801:10082  if(DUSDinvestor[msg.sender].referralLevel[i].reward>0)... */\n      jump(tag_193)\n    tag_190:\n        /* \"contracts/stake_reward_MLM.sol\":10061:10062  0 */\n      0x00\n        /* \"contracts/stake_reward_MLM.sol\":10034:10055  referralLevels_reward */\n      dup3\n        /* \"contracts/stake_reward_MLM.sol\":10056:10057  i */\n      dup3\n        /* \"contracts/stake_reward_MLM.sol\":10034:10058  referralLevels_reward[i] */\n      dup2\n      mload\n      dup2\n      lt\n      tag_194\n      jumpi\n      tag_195\n      tag_148\n      jump\t// in\n    tag_195:\n    tag_194:\n      0x20\n      mul\n      0x20\n      add\n      add\n        /* \"contracts/stake_reward_MLM.sol\":10034:10062  referralLevels_reward[i] = 0 */\n      dup2\n      dup2\n      mstore\n      pop\n      pop\n        /* \"contracts/stake_reward_MLM.sol\":9801:10082  if(DUSDinvestor[msg.sender].referralLevel[i].reward>0)... */\n    tag_193:\n        /* \"contracts/stake_reward_MLM.sol\":9766:9769  i++ */\n      dup1\n      dup1\n      tag_196\n      swap1\n      tag_107\n      jump\t// in\n    tag_196:\n      swap2\n      pop\n      pop\n        /* \"contracts/stake_reward_MLM.sol\":9748:10098  for(uint i=0;i<20;i++)... */\n      jump(tag_187)\n    tag_188:\n      pop\n        /* \"contracts/stake_reward_MLM.sol\":10118:10139  referralLevels_reward */\n      dup1\n        /* \"contracts/stake_reward_MLM.sol\":10111:10139  return referralLevels_reward */\n      swap2\n      pop\n      pop\n        /* \"contracts/stake_reward_MLM.sol\":9588:10153  function referralLevel_earning() public view returns( uint[] memory arr )... */\n      swap1\n      jump\t// out\n        /* \"contracts/stake_reward_MLM.sol\":4907:5385  function withdrawReward() external returns (bool success){... */\n    tag_75:\n        /* \"contracts/stake_reward_MLM.sol\":4951:4963  bool success */\n      0x00\n        /* \"contracts/stake_reward_MLM.sol\":4978:4995  uint Total_reward */\n      dup1\n        /* \"contracts/stake_reward_MLM.sol\":4998:5009  getReward() */\n      tag_198\n        /* \"contracts/stake_reward_MLM.sol\":4998:5007  getReward */\n      tag_54\n        /* \"contracts/stake_reward_MLM.sol\":4998:5009  getReward() */\n      jump\t// in\n    tag_198:\n        /* \"contracts/stake_reward_MLM.sol\":4978:5009  uint Total_reward = getReward() */\n      swap1\n      pop\n        /* \"contracts/stake_reward_MLM.sol\":5044:5045  0 */\n      0x00\n        /* \"contracts/stake_reward_MLM.sol\":5031:5043  Total_reward */\n      dup2\n        /* \"contracts/stake_reward_MLM.sol\":5031:5045  Total_reward>0 */\n      gt\n        /* \"contracts/stake_reward_MLM.sol\":5023:5083  require(Total_reward>0,\"you dont have rewards to withdrawn\") */\n      tag_199\n      jumpi\n      mload(0x40)\n      0x08c379a000000000000000000000000000000000000000000000000000000000\n      dup2\n      mstore\n      0x04\n      add\n      tag_200\n      swap1\n      tag_201\n      jump\t// in\n    tag_200:\n      mload(0x40)\n      dup1\n      swap2\n      sub\n      swap1\n      revert\n    tag_199:\n        /* \"contracts/stake_reward_MLM.sol\":5167:5178  SMCcontract */\n      0x01\n      0x00\n      swap1\n      sload\n      swap1\n      0x0100\n      exp\n      swap1\n      div\n      0xffffffffffffffffffffffffffffffffffffffff\n      and\n        /* \"contracts/stake_reward_MLM.sol\":5162:5188  DUSD(SMCcontract).transfer */\n      0xffffffffffffffffffffffffffffffffffffffff\n      and\n      0xa9059cbb\n        /* \"contracts/stake_reward_MLM.sol\":5189:5199  msg.sender */\n      caller\n        /* \"contracts/stake_reward_MLM.sol\":5200:5212  Total_reward */\n      dup4\n        /* \"contracts/stake_reward_MLM.sol\":5162:5213  DUSD(SMCcontract).transfer(msg.sender,Total_reward) */\n      mload(0x40)\n      dup4\n      0xffffffff\n      and\n      0xe0\n      shl\n      dup2\n      mstore\n      0x04\n      add\n      tag_202\n      swap3\n      swap2\n      swap1\n      tag_171\n      jump\t// in\n    tag_202:\n      0x20\n      mload(0x40)\n      dup1\n      dup4\n      sub\n      dup2\n      0x00\n      dup8\n      dup1\n      extcodesize\n      iszero\n      dup1\n      iszero\n      tag_203\n      jumpi\n      0x00\n      dup1\n      revert\n    tag_203:\n      pop\n      gas\n      call\n      iszero\n      dup1\n      iszero\n      tag_205\n      jumpi\n      returndatasize\n      0x00\n      dup1\n      returndatacopy\n      revert(0x00, returndatasize)\n    tag_205:\n      pop\n      pop\n      pop\n      pop\n      mload(0x40)\n      returndatasize\n      not(0x1f)\n      0x1f\n      dup3\n      add\n      and\n      dup3\n      add\n      dup1\n      0x40\n      mstore\n      pop\n      dup2\n      add\n      swap1\n      tag_206\n      swap2\n      swap1\n      tag_120\n      jump\t// in\n    tag_206:\n      pop\n        /* \"contracts/stake_reward_MLM.sol\":5336:5348  Total_reward */\n      dup1\n        /* \"contracts/stake_reward_MLM.sol\":5290:5302  DUSDinvestor */\n      0x08\n        /* \"contracts/stake_reward_MLM.sol\":5290:5314  DUSDinvestor[msg.sender] */\n      0x00\n        /* \"contracts/stake_reward_MLM.sol\":5303:5313  msg.sender */\n      caller\n        /* \"contracts/stake_reward_MLM.sol\":5290:5314  DUSDinvestor[msg.sender] */\n      0xffffffffffffffffffffffffffffffffffffffff\n      and\n      0xffffffffffffffffffffffffffffffffffffffff\n      and\n      dup2\n      mstore\n      0x20\n      add\n      swap1\n      dup2\n      mstore\n      0x20\n      add\n      0x00\n      keccak256\n        /* \"contracts/stake_reward_MLM.sol\":5290:5335  DUSDinvestor[msg.sender].totalWithdraw_reward */\n      0x07\n      add\n        /* \"contracts/stake_reward_MLM.sol\":5290:5348  DUSDinvestor[msg.sender].totalWithdraw_reward=Total_reward */\n      dup2\n      swap1\n      sstore\n      pop\n        /* \"contracts/stake_reward_MLM.sol\":5369:5373  true */\n      0x01\n        /* \"contracts/stake_reward_MLM.sol\":5362:5373  return true */\n      swap2\n      pop\n      pop\n        /* \"contracts/stake_reward_MLM.sol\":4907:5385  function withdrawReward() external returns (bool success){... */\n      swap1\n      jump\t// out\n        /* \"contracts/stake_reward_MLM.sol\":9171:9395  function set_values(uint min_stake,uint max_stake,uint reward_per_day) public ... */\n    tag_80:\n        /* \"contracts/stake_reward_MLM.sol\":9291:9300  max_stake */\n      dup2\n        /* \"contracts/stake_reward_MLM.sol\":9272:9288  max_Stake_amount */\n      0x06\n        /* \"contracts/stake_reward_MLM.sol\":9272:9300  max_Stake_amount = max_stake */\n      dup2\n      swap1\n      sstore\n      pop\n        /* \"contracts/stake_reward_MLM.sol\":9333:9342  min_stake */\n      dup3\n        /* \"contracts/stake_reward_MLM.sol\":9314:9330  min_Stake_amount */\n      0x05\n        /* \"contracts/stake_reward_MLM.sol\":9314:9342  min_Stake_amount = min_stake */\n      dup2\n      swap1\n      sstore\n      pop\n        /* \"contracts/stake_reward_MLM.sol\":9370:9384  reward_per_day */\n      dup1\n        /* \"contracts/stake_reward_MLM.sol\":9356:9367  rewardToken */\n      0x04\n        /* \"contracts/stake_reward_MLM.sol\":9356:9384  rewardToken = reward_per_day */\n      dup2\n      swap1\n      sstore\n      pop\n        /* \"contracts/stake_reward_MLM.sol\":9171:9395  function set_values(uint min_stake,uint max_stake,uint reward_per_day) public ... */\n      pop\n      pop\n      pop\n      jump\t// out\n        /* \"contracts/stake_reward_MLM.sol\":1390:1432  mapping(address=>Data) public DUSDinvestor */\n    tag_84:\n      mstore(0x20, 0x08)\n      dup1\n      0x00\n      mstore\n      keccak256(0x00, 0x40)\n      0x00\n      swap2\n      pop\n      swap1\n      pop\n      dup1\n      0x02\n      add\n      0x00\n      swap1\n      sload\n      swap1\n      0x0100\n      exp\n      swap1\n      div\n      0xffffffffffffffffffffffffffffffffffffffff\n      and\n      swap1\n      dup1\n      0x04\n      add\n      sload\n      swap1\n      dup1\n      0x05\n      add\n      sload\n      swap1\n      dup1\n      0x06\n      add\n      sload\n      swap1\n      dup1\n      0x07\n      add\n      sload\n      swap1\n      dup1\n      0x08\n      add\n      0x00\n      swap1\n      sload\n      swap1\n      0x0100\n      exp\n      swap1\n      div\n      0xff\n      and\n      swap1\n      pop\n      dup7\n      jump\t// out\n        /* \"contracts/stake_reward_MLM.sol\":9404:9578  function transferOwnership(address _owner)  public... */\n    tag_89:\n        /* \"contracts/stake_reward_MLM.sol\":9497:9502  owner */\n      0x00\n      dup1\n      sload\n      swap1\n      0x0100\n      exp\n      swap1\n      div\n      0xffffffffffffffffffffffffffffffffffffffff\n      and\n        /* \"contracts/stake_reward_MLM.sol\":9485:9502  msg.sender==owner */\n      0xffffffffffffffffffffffffffffffffffffffff\n      and\n        /* \"contracts/stake_reward_MLM.sol\":9485:9495  msg.sender */\n      caller\n        /* \"contracts/stake_reward_MLM.sol\":9485:9502  msg.sender==owner */\n      0xffffffffffffffffffffffffffffffffffffffff\n      and\n      eq\n        /* \"contracts/stake_reward_MLM.sol\":9477:9539  require(msg.sender==owner,\"only Owner can call this function\") */\n      tag_209\n      jumpi\n      mload(0x40)\n      0x08c379a000000000000000000000000000000000000000000000000000000000\n      dup2\n      mstore\n      0x04\n      add\n      tag_210\n      swap1\n      tag_211\n      jump\t// in\n    tag_210:\n      mload(0x40)\n      dup1\n      swap2\n      sub\n      swap1\n      revert\n    tag_209:\n        /* \"contracts/stake_reward_MLM.sol\":9561:9567  _owner */\n      dup1\n        /* \"contracts/stake_reward_MLM.sol\":9553:9558  owner */\n      0x00\n      dup1\n        /* \"contracts/stake_reward_MLM.sol\":9553:9567  owner = _owner */\n      0x0100\n      exp\n      dup2\n      sload\n      dup2\n      0xffffffffffffffffffffffffffffffffffffffff\n      mul\n      not\n      and\n      swap1\n      dup4\n      0xffffffffffffffffffffffffffffffffffffffff\n      and\n      mul\n      or\n      swap1\n      sstore\n      pop\n        /* \"contracts/stake_reward_MLM.sol\":9404:9578  function transferOwnership(address _owner)  public... */\n      pop\n      jump\t// out\n        /* \"contracts/stake_reward_MLM.sol\":10162:10723  function referralLevel_count() public view returns( uint[] memory arr )... */\n    tag_91:\n        /* \"contracts/stake_reward_MLM.sol\":10214:10231  uint[] memory arr */\n      0x60\n        /* \"contracts/stake_reward_MLM.sol\":10256:10291  uint[] memory referralLevels_reward */\n      0x00\n        /* \"contracts/stake_reward_MLM.sol\":10303:10305  20 */\n      0x14\n        /* \"contracts/stake_reward_MLM.sol\":10292:10306  new uint[](20) */\n      0xffffffffffffffff\n      dup2\n      gt\n      iszero\n      tag_213\n      jumpi\n      tag_214\n      tag_137\n      jump\t// in\n    tag_214:\n    tag_213:\n      mload(0x40)\n      swap1\n      dup1\n      dup3\n      mstore\n      dup1\n      0x20\n      mul\n      0x20\n      add\n      dup3\n      add\n      0x40\n      mstore\n      dup1\n      iszero\n      tag_215\n      jumpi\n      dup2\n      0x20\n      add\n      0x20\n      dup3\n      mul\n      dup1\n      calldatasize\n      dup4\n      calldatacopy\n      dup1\n      dup3\n      add\n      swap2\n      pop\n      pop\n      swap1\n      pop\n    tag_215:\n      pop\n        /* \"contracts/stake_reward_MLM.sol\":10256:10306  uint[] memory referralLevels_reward=new uint[](20) */\n      swap1\n      pop\n        /* \"contracts/stake_reward_MLM.sol\":10324:10330  uint i */\n      0x00\n        /* \"contracts/stake_reward_MLM.sol\":10320:10668  for(uint i=0;i<20;i++)... */\n    tag_216:\n        /* \"contracts/stake_reward_MLM.sol\":10335:10337  20 */\n      0x14\n        /* \"contracts/stake_reward_MLM.sol\":10333:10334  i */\n      dup2\n        /* \"contracts/stake_reward_MLM.sol\":10333:10337  i<20 */\n      lt\n        /* \"contracts/stake_reward_MLM.sol\":10320:10668  for(uint i=0;i<20;i++)... */\n      iszero\n      tag_217\n      jumpi\n        /* \"contracts/stake_reward_MLM.sol\":10425:10426  0 */\n      0x00\n        /* \"contracts/stake_reward_MLM.sol\":10376:10388  DUSDinvestor */\n      0x08\n        /* \"contracts/stake_reward_MLM.sol\":10376:10400  DUSDinvestor[msg.sender] */\n      0x00\n        /* \"contracts/stake_reward_MLM.sol\":10389:10399  msg.sender */\n      caller\n        /* \"contracts/stake_reward_MLM.sol\":10376:10400  DUSDinvestor[msg.sender] */\n      0xffffffffffffffffffffffffffffffffffffffff\n      and\n      0xffffffffffffffffffffffffffffffffffffffff\n      and\n      dup2\n      mstore\n      0x20\n      add\n      swap1\n      dup2\n      mstore\n      0x20\n      add\n      0x00\n      keccak256\n        /* \"contracts/stake_reward_MLM.sol\":10376:10414  DUSDinvestor[msg.sender].referralLevel */\n      0x03\n      add\n        /* \"contracts/stake_reward_MLM.sol\":10376:10417  DUSDinvestor[msg.sender].referralLevel[i] */\n      0x00\n        /* \"contracts/stake_reward_MLM.sol\":10415:10416  i */\n      dup4\n        /* \"contracts/stake_reward_MLM.sol\":10376:10417  DUSDinvestor[msg.sender].referralLevel[i] */\n      dup2\n      mstore\n      0x20\n      add\n      swap1\n      dup2\n      mstore\n      0x20\n      add\n      0x00\n      keccak256\n        /* \"contracts/stake_reward_MLM.sol\":10376:10424  DUSDinvestor[msg.sender].referralLevel[i].reward */\n      0x00\n      add\n      sload\n        /* \"contracts/stake_reward_MLM.sol\":10376:10426  DUSDinvestor[msg.sender].referralLevel[i].reward>0 */\n      gt\n        /* \"contracts/stake_reward_MLM.sol\":10373:10652  if(DUSDinvestor[msg.sender].referralLevel[i].reward>0)... */\n      iszero\n      tag_219\n      jumpi\n        /* \"contracts/stake_reward_MLM.sol\":10493:10505  DUSDinvestor */\n      0x08\n        /* \"contracts/stake_reward_MLM.sol\":10493:10517  DUSDinvestor[msg.sender] */\n      0x00\n        /* \"contracts/stake_reward_MLM.sol\":10506:10516  msg.sender */\n      caller\n        /* \"contracts/stake_reward_MLM.sol\":10493:10517  DUSDinvestor[msg.sender] */\n      0xffffffffffffffffffffffffffffffffffffffff\n      and\n      0xffffffffffffffffffffffffffffffffffffffff\n      and\n      dup2\n      mstore\n      0x20\n      add\n      swap1\n      dup2\n      mstore\n      0x20\n      add\n      0x00\n      keccak256\n        /* \"contracts/stake_reward_MLM.sol\":10493:10531  DUSDinvestor[msg.sender].referralLevel */\n      0x03\n      add\n        /* \"contracts/stake_reward_MLM.sol\":10493:10534  DUSDinvestor[msg.sender].referralLevel[i] */\n      0x00\n        /* \"contracts/stake_reward_MLM.sol\":10532:10533  i */\n      dup3\n        /* \"contracts/stake_reward_MLM.sol\":10493:10534  DUSDinvestor[msg.sender].referralLevel[i] */\n      dup2\n      mstore\n      0x20\n      add\n      swap1\n      dup2\n      mstore\n      0x20\n      add\n      0x00\n      keccak256\n        /* \"contracts/stake_reward_MLM.sol\":10493:10540  DUSDinvestor[msg.sender].referralLevel[i].count */\n      0x01\n      add\n      sload\n        /* \"contracts/stake_reward_MLM.sol\":10466:10487  referralLevels_reward */\n      dup3\n        /* \"contracts/stake_reward_MLM.sol\":10488:10489  i */\n      dup3\n        /* \"contracts/stake_reward_MLM.sol\":10466:10490  referralLevels_reward[i] */\n      dup2\n      mload\n      dup2\n      lt\n      tag_220\n      jumpi\n      tag_221\n      tag_148\n      jump\t// in\n    tag_221:\n    tag_220:\n      0x20\n      mul\n      0x20\n      add\n      add\n        /* \"contracts/stake_reward_MLM.sol\":10466:10540  referralLevels_reward[i] = DUSDinvestor[msg.sender].referralLevel[i].count */\n      dup2\n      dup2\n      mstore\n      pop\n      pop\n        /* \"contracts/stake_reward_MLM.sol\":10373:10652  if(DUSDinvestor[msg.sender].referralLevel[i].reward>0)... */\n      jump(tag_222)\n    tag_219:\n        /* \"contracts/stake_reward_MLM.sol\":10631:10632  0 */\n      0x00\n        /* \"contracts/stake_reward_MLM.sol\":10604:10625  referralLevels_reward */\n      dup3\n        /* \"contracts/stake_reward_MLM.sol\":10626:10627  i */\n      dup3\n        /* \"contracts/stake_reward_MLM.sol\":10604:10628  referralLevels_reward[i] */\n      dup2\n      mload\n      dup2\n      lt\n      tag_223\n      jumpi\n      tag_224\n      tag_148\n      jump\t// in\n    tag_224:\n    tag_223:\n      0x20\n      mul\n      0x20\n      add\n      add\n        /* \"contracts/stake_reward_MLM.sol\":10604:10632  referralLevels_reward[i] = 0 */\n      dup2\n      dup2\n      mstore\n      pop\n      pop\n        /* \"contracts/stake_reward_MLM.sol\":10373:10652  if(DUSDinvestor[msg.sender].referralLevel[i].reward>0)... */\n    tag_222:\n        /* \"contracts/stake_reward_MLM.sol\":10338:10341  i++ */\n      dup1\n      dup1\n      tag_225\n      swap1\n      tag_107\n      jump\t// in\n    tag_225:\n      swap2\n      pop\n      pop\n        /* \"contracts/stake_reward_MLM.sol\":10320:10668  for(uint i=0;i<20;i++)... */\n      jump(tag_216)\n    tag_217:\n      pop\n        /* \"contracts/stake_reward_MLM.sol\":10688:10709  referralLevels_reward */\n      dup1\n        /* \"contracts/stake_reward_MLM.sol\":10681:10709  return referralLevels_reward */\n      swap2\n      pop\n      pop\n        /* \"contracts/stake_reward_MLM.sol\":10162:10723  function referralLevel_count() public view returns( uint[] memory arr )... */\n      swap1\n      jump\t// out\n        /* \"contracts/stake_reward_MLM.sol\":516:558  uint public rewardToken=500000000000000000 */\n    tag_94:\n      sload(0x04)\n      dup2\n      jump\t// out\n        /* \"contracts/stake_reward_MLM.sol\":1583:3116  function sendRewardToDUSDReferrals(address investor,uint _investedAmount)  internal  //this is the freferral function to transfer the reawards to referrals... */\n    tag_126:\n        /* \"contracts/stake_reward_MLM.sol\":1763:1775  address temp */\n      0x00\n        /* \"contracts/stake_reward_MLM.sol\":1778:1786  investor */\n      dup3\n        /* \"contracts/stake_reward_MLM.sol\":1763:1786  address temp = investor */\n      swap1\n      pop\n        /* \"contracts/stake_reward_MLM.sol\":1807:1831  uint[] memory percentage */\n      0x00\n        /* \"contracts/stake_reward_MLM.sol\":1845:1846  5 */\n      0x05\n        /* \"contracts/stake_reward_MLM.sol\":1834:1847  new uint[](5) */\n      0xffffffffffffffff\n      dup2\n      gt\n      iszero\n      tag_227\n      jumpi\n      tag_228\n      tag_137\n      jump\t// in\n    tag_228:\n    tag_227:\n      mload(0x40)\n      swap1\n      dup1\n      dup3\n      mstore\n      dup1\n      0x20\n      mul\n      0x20\n      add\n      dup3\n      add\n      0x40\n      mstore\n      dup1\n      iszero\n      tag_229\n      jumpi\n      dup2\n      0x20\n      add\n      0x20\n      dup3\n      mul\n      dup1\n      calldatasize\n      dup4\n      calldatacopy\n      dup1\n      dup3\n      add\n      swap2\n      pop\n      pop\n      swap1\n      pop\n    tag_229:\n      pop\n        /* \"contracts/stake_reward_MLM.sol\":1807:1847  uint[] memory percentage = new uint[](5) */\n      swap1\n      pop\n        /* \"contracts/stake_reward_MLM.sol\":1877:1884  5 ether */\n      0x4563918244f40000\n        /* \"contracts/stake_reward_MLM.sol\":1861:1871  percentage */\n      dup2\n        /* \"contracts/stake_reward_MLM.sol\":1872:1873  0 */\n      0x00\n        /* \"contracts/stake_reward_MLM.sol\":1861:1874  percentage[0] */\n      dup2\n      mload\n      dup2\n      lt\n      tag_230\n      jumpi\n      tag_231\n      tag_148\n      jump\t// in\n    tag_231:\n    tag_230:\n      0x20\n      mul\n      0x20\n      add\n      add\n        /* \"contracts/stake_reward_MLM.sol\":1861:1884  percentage[0] = 5 ether */\n      dup2\n      dup2\n      mstore\n      pop\n      pop\n        /* \"contracts/stake_reward_MLM.sol\":1914:1921  3 ether */\n      0x29a2241af62c0000\n        /* \"contracts/stake_reward_MLM.sol\":1898:1908  percentage */\n      dup2\n        /* \"contracts/stake_reward_MLM.sol\":1909:1910  1 */\n      0x01\n        /* \"contracts/stake_reward_MLM.sol\":1898:1911  percentage[1] */\n      dup2\n      mload\n      dup2\n      lt\n      tag_232\n      jumpi\n      tag_233\n      tag_148\n      jump\t// in\n    tag_233:\n    tag_232:\n      0x20\n      mul\n      0x20\n      add\n      add\n        /* \"contracts/stake_reward_MLM.sol\":1898:1921  percentage[1] = 3 ether */\n      dup2\n      dup2\n      mstore\n      pop\n      pop\n        /* \"contracts/stake_reward_MLM.sol\":1951:1958  2 ether */\n      0x1bc16d674ec80000\n        /* \"contracts/stake_reward_MLM.sol\":1935:1945  percentage */\n      dup2\n        /* \"contracts/stake_reward_MLM.sol\":1946:1947  2 */\n      0x02\n        /* \"contracts/stake_reward_MLM.sol\":1935:1948  percentage[2] */\n      dup2\n      mload\n      dup2\n      lt\n      tag_234\n      jumpi\n      tag_235\n      tag_148\n      jump\t// in\n    tag_235:\n    tag_234:\n      0x20\n      mul\n      0x20\n      add\n      add\n        /* \"contracts/stake_reward_MLM.sol\":1935:1958  percentage[2] = 2 ether */\n      dup2\n      dup2\n      mstore\n      pop\n      pop\n        /* \"contracts/stake_reward_MLM.sol\":1988:1995  1 ether */\n      0x0de0b6b3a7640000\n        /* \"contracts/stake_reward_MLM.sol\":1972:1982  percentage */\n      dup2\n        /* \"contracts/stake_reward_MLM.sol\":1983:1984  3 */\n      0x03\n        /* \"contracts/stake_reward_MLM.sol\":1972:1985  percentage[3] */\n      dup2\n      mload\n      dup2\n      lt\n      tag_236\n      jumpi\n      tag_237\n      tag_148\n      jump\t// in\n    tag_237:\n    tag_236:\n      0x20\n      mul\n      0x20\n      add\n      add\n        /* \"contracts/stake_reward_MLM.sol\":1972:1995  percentage[3] = 1 ether */\n      dup2\n      dup2\n      mstore\n      pop\n      pop\n        /* \"contracts/stake_reward_MLM.sol\":2025:2034  0.5 ether */\n      0x06f05b59d3b20000\n        /* \"contracts/stake_reward_MLM.sol\":2009:2019  percentage */\n      dup2\n        /* \"contracts/stake_reward_MLM.sol\":2020:2021  4 */\n      0x04\n        /* \"contracts/stake_reward_MLM.sol\":2009:2022  percentage[4] */\n      dup2\n      mload\n      dup2\n      lt\n      tag_238\n      jumpi\n      tag_239\n      tag_148\n      jump\t// in\n    tag_239:\n    tag_238:\n      0x20\n      mul\n      0x20\n      add\n      add\n        /* \"contracts/stake_reward_MLM.sol\":2009:2034  percentage[4] = 0.5 ether */\n      dup2\n      dup2\n      mstore\n      pop\n      pop\n        /* \"contracts/stake_reward_MLM.sol\":2050:2056  uint j */\n      0x00\n        /* \"contracts/stake_reward_MLM.sol\":2077:2083  uint i */\n      dup1\n        /* \"contracts/stake_reward_MLM.sol\":2084:2085  0 */\n      0x00\n        /* \"contracts/stake_reward_MLM.sol\":2077:2085  uint i=0 */\n      swap1\n      pop\n        /* \"contracts/stake_reward_MLM.sol\":2073:3105  for(uint i=0;i<10;i++)... */\n    tag_240:\n        /* \"contracts/stake_reward_MLM.sol\":2088:2090  10 */\n      0x0a\n        /* \"contracts/stake_reward_MLM.sol\":2086:2087  i */\n      dup2\n        /* \"contracts/stake_reward_MLM.sol\":2086:2090  i<10 */\n      lt\n        /* \"contracts/stake_reward_MLM.sol\":2073:3105  for(uint i=0;i<10;i++)... */\n      iszero\n      tag_241\n      jumpi\n        /* \"contracts/stake_reward_MLM.sol\":2133:2134  0 */\n      0x00\n        /* \"contracts/stake_reward_MLM.sol\":2130:2131  i */\n      dup2\n        /* \"contracts/stake_reward_MLM.sol\":2130:2134  i==0 */\n      eq\n        /* \"contracts/stake_reward_MLM.sol\":2127:2559  if(i==0)... */\n      iszero\n      tag_243\n      jumpi\n        /* \"contracts/stake_reward_MLM.sol\":2176:2177  0 */\n      0x00\n        /* \"contracts/stake_reward_MLM.sol\":2174:2177  j=0 */\n      swap2\n      pop\n        /* \"contracts/stake_reward_MLM.sol\":2127:2559  if(i==0)... */\n      jump(tag_244)\n    tag_243:\n        /* \"contracts/stake_reward_MLM.sol\":2224:2225  1 */\n      0x01\n        /* \"contracts/stake_reward_MLM.sol\":2221:2222  i */\n      dup2\n        /* \"contracts/stake_reward_MLM.sol\":2221:2225  i==1 */\n      eq\n        /* \"contracts/stake_reward_MLM.sol\":2218:2559  if(i==1)... */\n      iszero\n      tag_245\n      jumpi\n        /* \"contracts/stake_reward_MLM.sol\":2267:2268  1 */\n      0x01\n        /* \"contracts/stake_reward_MLM.sol\":2265:2268  j=1 */\n      swap2\n      pop\n        /* \"contracts/stake_reward_MLM.sol\":2218:2559  if(i==1)... */\n      jump(tag_246)\n    tag_245:\n        /* \"contracts/stake_reward_MLM.sol\":2315:2316  2 */\n      0x02\n        /* \"contracts/stake_reward_MLM.sol\":2312:2313  i */\n      dup2\n        /* \"contracts/stake_reward_MLM.sol\":2312:2316  i==2 */\n      eq\n        /* \"contracts/stake_reward_MLM.sol\":2309:2559  if(i==2)... */\n      iszero\n      tag_247\n      jumpi\n        /* \"contracts/stake_reward_MLM.sol\":2358:2359  2 */\n      0x02\n        /* \"contracts/stake_reward_MLM.sol\":2356:2359  j=2 */\n      swap2\n      pop\n        /* \"contracts/stake_reward_MLM.sol\":2309:2559  if(i==2)... */\n      jump(tag_248)\n    tag_247:\n        /* \"contracts/stake_reward_MLM.sol\":2406:2407  2 */\n      0x02\n        /* \"contracts/stake_reward_MLM.sol\":2404:2405  i */\n      dup2\n        /* \"contracts/stake_reward_MLM.sol\":2404:2407  i>2 */\n      gt\n        /* \"contracts/stake_reward_MLM.sol\":2401:2559  if(i>2)... */\n      iszero\n      tag_249\n      jumpi\n        /* \"contracts/stake_reward_MLM.sol\":2449:2450  3 */\n      0x03\n        /* \"contracts/stake_reward_MLM.sol\":2447:2450  j=3 */\n      swap2\n      pop\n        /* \"contracts/stake_reward_MLM.sol\":2401:2559  if(i>2)... */\n      jump(tag_250)\n    tag_249:\n        /* \"contracts/stake_reward_MLM.sol\":2496:2497  7 */\n      0x07\n        /* \"contracts/stake_reward_MLM.sol\":2494:2495  i */\n      dup2\n        /* \"contracts/stake_reward_MLM.sol\":2494:2497  i>7 */\n      gt\n        /* \"contracts/stake_reward_MLM.sol\":2491:2559  if(i>7)... */\n      iszero\n      tag_251\n      jumpi\n        /* \"contracts/stake_reward_MLM.sol\":2539:2540  4 */\n      0x04\n        /* \"contracts/stake_reward_MLM.sol\":2537:2540  j=4 */\n      swap2\n      pop\n        /* \"contracts/stake_reward_MLM.sol\":2491:2559  if(i>7)... */\n    tag_251:\n        /* \"contracts/stake_reward_MLM.sol\":2401:2559  if(i>2)... */\n    tag_250:\n        /* \"contracts/stake_reward_MLM.sol\":2309:2559  if(i==2)... */\n    tag_248:\n        /* \"contracts/stake_reward_MLM.sol\":2218:2559  if(i==1)... */\n    tag_246:\n        /* \"contracts/stake_reward_MLM.sol\":2127:2559  if(i==0)... */\n    tag_244:\n        /* \"contracts/stake_reward_MLM.sol\":2637:2638  0 */\n      0x00\n        /* \"contracts/stake_reward_MLM.sol\":2596:2639  DUSDinvestor[temp].referralFrom!=address(0) */\n      0xffffffffffffffffffffffffffffffffffffffff\n      and\n        /* \"contracts/stake_reward_MLM.sol\":2596:2608  DUSDinvestor */\n      0x08\n        /* \"contracts/stake_reward_MLM.sol\":2596:2614  DUSDinvestor[temp] */\n      0x00\n        /* \"contracts/stake_reward_MLM.sol\":2609:2613  temp */\n      dup7\n        /* \"contracts/stake_reward_MLM.sol\":2596:2614  DUSDinvestor[temp] */\n      0xffffffffffffffffffffffffffffffffffffffff\n      and\n      0xffffffffffffffffffffffffffffffffffffffff\n      and\n      dup2\n      mstore\n      0x20\n      add\n      swap1\n      dup2\n      mstore\n      0x20\n      add\n      0x00\n      keccak256\n        /* \"contracts/stake_reward_MLM.sol\":2596:2627  DUSDinvestor[temp].referralFrom */\n      0x02\n      add\n      0x00\n      swap1\n      sload\n      swap1\n      0x0100\n      exp\n      swap1\n      div\n      0xffffffffffffffffffffffffffffffffffffffff\n      and\n        /* \"contracts/stake_reward_MLM.sol\":2596:2639  DUSDinvestor[temp].referralFrom!=address(0) */\n      0xffffffffffffffffffffffffffffffffffffffff\n      and\n      eq\n        /* \"contracts/stake_reward_MLM.sol\":2593:3090  if(DUSDinvestor[temp].referralFrom!=address(0))... */\n      tag_252\n      jumpi\n        /* \"contracts/stake_reward_MLM.sol\":2685:2697  DUSDinvestor */\n      0x08\n        /* \"contracts/stake_reward_MLM.sol\":2685:2703  DUSDinvestor[temp] */\n      0x00\n        /* \"contracts/stake_reward_MLM.sol\":2698:2702  temp */\n      dup6\n        /* \"contracts/stake_reward_MLM.sol\":2685:2703  DUSDinvestor[temp] */\n      0xffffffffffffffffffffffffffffffffffffffff\n      and\n      0xffffffffffffffffffffffffffffffffffffffff\n      and\n      dup2\n      mstore\n      0x20\n      add\n      swap1\n      dup2\n      mstore\n      0x20\n      add\n      0x00\n      keccak256\n        /* \"contracts/stake_reward_MLM.sol\":2685:2716  DUSDinvestor[temp].referralFrom */\n      0x02\n      add\n      0x00\n      swap1\n      sload\n      swap1\n      0x0100\n      exp\n      swap1\n      div\n      0xffffffffffffffffffffffffffffffffffffffff\n      and\n        /* \"contracts/stake_reward_MLM.sol\":2680:2716  temp=DUSDinvestor[temp].referralFrom */\n      swap4\n      pop\n        /* \"contracts/stake_reward_MLM.sol\":2738:2750  uint reward1 */\n      0x00\n        /* \"contracts/stake_reward_MLM.sol\":2788:2791  100 */\n      0x64\n        /* \"contracts/stake_reward_MLM.sol\":2771:2786  _investedAmount */\n      dup7\n        /* \"contracts/stake_reward_MLM.sol\":2755:2765  percentage */\n      dup6\n        /* \"contracts/stake_reward_MLM.sol\":2766:2767  j */\n      dup6\n        /* \"contracts/stake_reward_MLM.sol\":2755:2768  percentage[j] */\n      dup2\n      mload\n      dup2\n      lt\n      tag_253\n      jumpi\n      tag_254\n      tag_148\n      jump\t// in\n    tag_254:\n    tag_253:\n      0x20\n      mul\n      0x20\n      add\n      add\n      mload\n        /* \"contracts/stake_reward_MLM.sol\":2755:2786  percentage[j] * _investedAmount */\n      tag_255\n      swap2\n      swap1\n      tag_113\n      jump\t// in\n    tag_255:\n        /* \"contracts/stake_reward_MLM.sol\":2754:2791  (percentage[j] * _investedAmount)/100 */\n      tag_256\n      swap2\n      swap1\n      tag_158\n      jump\t// in\n    tag_256:\n        /* \"contracts/stake_reward_MLM.sol\":2738:2792  uint reward1 = ((percentage[j] * _investedAmount)/100) */\n      swap1\n      pop\n        /* \"contracts/stake_reward_MLM.sol\":2930:2937  reward1 */\n      dup1\n        /* \"contracts/stake_reward_MLM.sol\":2886:2898  DUSDinvestor */\n      0x08\n        /* \"contracts/stake_reward_MLM.sol\":2886:2904  DUSDinvestor[temp] */\n      0x00\n        /* \"contracts/stake_reward_MLM.sol\":2899:2903  temp */\n      dup8\n        /* \"contracts/stake_reward_MLM.sol\":2886:2904  DUSDinvestor[temp] */\n      0xffffffffffffffffffffffffffffffffffffffff\n      and\n      0xffffffffffffffffffffffffffffffffffffffff\n      and\n      dup2\n      mstore\n      0x20\n      add\n      swap1\n      dup2\n      mstore\n      0x20\n      add\n      0x00\n      keccak256\n        /* \"contracts/stake_reward_MLM.sol\":2886:2918  DUSDinvestor[temp].referralLevel */\n      0x03\n      add\n        /* \"contracts/stake_reward_MLM.sol\":2886:2921  DUSDinvestor[temp].referralLevel[i] */\n      0x00\n        /* \"contracts/stake_reward_MLM.sol\":2919:2920  i */\n      dup5\n        /* \"contracts/stake_reward_MLM.sol\":2886:2921  DUSDinvestor[temp].referralLevel[i] */\n      dup2\n      mstore\n      0x20\n      add\n      swap1\n      dup2\n      mstore\n      0x20\n      add\n      0x00\n      keccak256\n        /* \"contracts/stake_reward_MLM.sol\":2886:2928  DUSDinvestor[temp].referralLevel[i].reward */\n      0x00\n      add\n      0x00\n        /* \"contracts/stake_reward_MLM.sol\":2886:2937  DUSDinvestor[temp].referralLevel[i].reward+=reward1 */\n      dup3\n      dup3\n      sload\n      tag_257\n      swap2\n      swap1\n      tag_109\n      jump\t// in\n    tag_257:\n      swap3\n      pop\n      pop\n      dup2\n      swap1\n      sstore\n      pop\n        /* \"contracts/stake_reward_MLM.sol\":2959:2971  DUSDinvestor */\n      0x08\n        /* \"contracts/stake_reward_MLM.sol\":2959:2977  DUSDinvestor[temp] */\n      0x00\n        /* \"contracts/stake_reward_MLM.sol\":2972:2976  temp */\n      dup7\n        /* \"contracts/stake_reward_MLM.sol\":2959:2977  DUSDinvestor[temp] */\n      0xffffffffffffffffffffffffffffffffffffffff\n      and\n      0xffffffffffffffffffffffffffffffffffffffff\n      and\n      dup2\n      mstore\n      0x20\n      add\n      swap1\n      dup2\n      mstore\n      0x20\n      add\n      0x00\n      keccak256\n        /* \"contracts/stake_reward_MLM.sol\":2959:2991  DUSDinvestor[temp].referralLevel */\n      0x03\n      add\n        /* \"contracts/stake_reward_MLM.sol\":2959:2994  DUSDinvestor[temp].referralLevel[i] */\n      0x00\n        /* \"contracts/stake_reward_MLM.sol\":2992:2993  i */\n      dup4\n        /* \"contracts/stake_reward_MLM.sol\":2959:2994  DUSDinvestor[temp].referralLevel[i] */\n      dup2\n      mstore\n      0x20\n      add\n      swap1\n      dup2\n      mstore\n      0x20\n      add\n      0x00\n      keccak256\n        /* \"contracts/stake_reward_MLM.sol\":2959:3000  DUSDinvestor[temp].referralLevel[i].count */\n      0x01\n      add\n      0x00\n        /* \"contracts/stake_reward_MLM.sol\":2959:3002  DUSDinvestor[temp].referralLevel[i].count++ */\n      dup2\n      sload\n      dup1\n      swap3\n      swap2\n      swap1\n      tag_258\n      swap1\n      tag_107\n      jump\t// in\n    tag_258:\n      swap2\n      swap1\n      pop\n      sstore\n      pop\n        /* \"contracts/stake_reward_MLM.sol\":2657:3022  {... */\n      pop\n        /* \"contracts/stake_reward_MLM.sol\":2593:3090  if(DUSDinvestor[temp].referralFrom!=address(0))... */\n      jump(tag_259)\n    tag_252:\n        /* \"contracts/stake_reward_MLM.sol\":3066:3071  break */\n      jump(tag_241)\n        /* \"contracts/stake_reward_MLM.sol\":2593:3090  if(DUSDinvestor[temp].referralFrom!=address(0))... */\n    tag_259:\n        /* \"contracts/stake_reward_MLM.sol\":2091:2094  i++ */\n      dup1\n      dup1\n      tag_260\n      swap1\n      tag_107\n      jump\t// in\n    tag_260:\n      swap2\n      pop\n      pop\n        /* \"contracts/stake_reward_MLM.sol\":2073:3105  for(uint i=0;i<10;i++)... */\n      jump(tag_240)\n    tag_241:\n      pop\n        /* \"contracts/stake_reward_MLM.sol\":1747:3116  { ... */\n      pop\n      pop\n      pop\n        /* \"contracts/stake_reward_MLM.sol\":1583:3116  function sendRewardToDUSDReferrals(address investor,uint _investedAmount)  internal  //this is the freferral function to transfer the reawards to referrals... */\n      pop\n      pop\n      jump\t// out\n    tag_141:\n      mload(0x40)\n      dup1\n      0x80\n      add\n      0x40\n      mstore\n      dup1\n      0x00\n      dup2\n      mstore\n      0x20\n      add\n      0x00\n      dup2\n      mstore\n      0x20\n      add\n      0x00\n      dup2\n      mstore\n      0x20\n      add\n      0x00\n      dup2\n      mstore\n      pop\n      swap1\n      jump\t// out\n        /* \"#utility.yul\":7:146   */\n    tag_262:\n        /* \"#utility.yul\":53:58   */\n      0x00\n        /* \"#utility.yul\":91:97   */\n      dup2\n        /* \"#utility.yul\":78:98   */\n      calldataload\n        /* \"#utility.yul\":69:98   */\n      swap1\n      pop\n        /* \"#utility.yul\":107:140   */\n      tag_264\n        /* \"#utility.yul\":134:139   */\n      dup2\n        /* \"#utility.yul\":107:140   */\n      tag_265\n      jump\t// in\n    tag_264:\n        /* \"#utility.yul\":7:146   */\n      swap3\n      swap2\n      pop\n      pop\n      jump\t// out\n        /* \"#utility.yul\":152:289   */\n    tag_266:\n        /* \"#utility.yul\":206:211   */\n      0x00\n        /* \"#utility.yul\":237:243   */\n      dup2\n        /* \"#utility.yul\":231:244   */\n      mload\n        /* \"#utility.yul\":222:244   */\n      swap1\n      pop\n        /* \"#utility.yul\":253:283   */\n      tag_268\n        /* \"#utility.yul\":277:282   */\n      dup2\n        /* \"#utility.yul\":253:283   */\n      tag_269\n      jump\t// in\n    tag_268:\n        /* \"#utility.yul\":152:289   */\n      swap3\n      swap2\n      pop\n      pop\n      jump\t// out\n        /* \"#utility.yul\":295:434   */\n    tag_270:\n        /* \"#utility.yul\":341:346   */\n      0x00\n        /* \"#utility.yul\":379:385   */\n      dup2\n        /* \"#utility.yul\":366:386   */\n      calldataload\n        /* \"#utility.yul\":357:386   */\n      swap1\n      pop\n        /* \"#utility.yul\":395:428   */\n      tag_272\n        /* \"#utility.yul\":422:427   */\n      dup2\n        /* \"#utility.yul\":395:428   */\n      tag_273\n      jump\t// in\n    tag_272:\n        /* \"#utility.yul\":295:434   */\n      swap3\n      swap2\n      pop\n      pop\n      jump\t// out\n        /* \"#utility.yul\":440:769   */\n    tag_83:\n        /* \"#utility.yul\":499:505   */\n      0x00\n        /* \"#utility.yul\":548:550   */\n      0x20\n        /* \"#utility.yul\":536:545   */\n      dup3\n        /* \"#utility.yul\":527:534   */\n      dup5\n        /* \"#utility.yul\":523:546   */\n      sub\n        /* \"#utility.yul\":519:551   */\n      slt\n        /* \"#utility.yul\":516:635   */\n      iszero\n      tag_275\n      jumpi\n        /* \"#utility.yul\":554:633   */\n      tag_276\n      tag_277\n      jump\t// in\n    tag_276:\n        /* \"#utility.yul\":516:635   */\n    tag_275:\n        /* \"#utility.yul\":674:675   */\n      0x00\n        /* \"#utility.yul\":699:752   */\n      tag_278\n        /* \"#utility.yul\":744:751   */\n      dup5\n        /* \"#utility.yul\":735:741   */\n      dup3\n        /* \"#utility.yul\":724:733   */\n      dup6\n        /* \"#utility.yul\":720:742   */\n      add\n        /* \"#utility.yul\":699:752   */\n      tag_262\n      jump\t// in\n    tag_278:\n        /* \"#utility.yul\":689:752   */\n      swap2\n      pop\n        /* \"#utility.yul\":645:762   */\n      pop\n        /* \"#utility.yul\":440:769   */\n      swap3\n      swap2\n      pop\n      pop\n      jump\t// out\n        /* \"#utility.yul\":775:1120   */\n    tag_120:\n        /* \"#utility.yul\":842:848   */\n      0x00\n        /* \"#utility.yul\":891:893   */\n      0x20\n        /* \"#utility.yul\":879:888   */\n      dup3\n        /* \"#utility.yul\":870:877   */\n      dup5\n        /* \"#utility.yul\":866:889   */\n      sub\n        /* \"#utility.yul\":862:894   */\n      slt\n        /* \"#utility.yul\":859:978   */\n      iszero\n      tag_280\n      jumpi\n        /* \"#utility.yul\":897:976   */\n      tag_281\n      tag_277\n      jump\t// in\n    tag_281:\n        /* \"#utility.yul\":859:978   */\n    tag_280:\n        /* \"#utility.yul\":1017:1018   */\n      0x00\n        /* \"#utility.yul\":1042:1103   */\n      tag_282\n        /* \"#utility.yul\":1095:1102   */\n      dup5\n        /* \"#utility.yul\":1086:1092   */\n      dup3\n        /* \"#utility.yul\":1075:1084   */\n      dup6\n        /* \"#utility.yul\":1071:1093   */\n      add\n        /* \"#utility.yul\":1042:1103   */\n      tag_266\n      jump\t// in\n    tag_282:\n        /* \"#utility.yul\":1032:1103   */\n      swap2\n      pop\n        /* \"#utility.yul\":988:1113   */\n      pop\n        /* \"#utility.yul\":775:1120   */\n      swap3\n      swap2\n      pop\n      pop\n      jump\t// out\n        /* \"#utility.yul\":1126:1455   */\n    tag_38:\n        /* \"#utility.yul\":1185:1191   */\n      0x00\n        /* \"#utility.yul\":1234:1236   */\n      0x20\n        /* \"#utility.yul\":1222:1231   */\n      dup3\n        /* \"#utility.yul\":1213:1220   */\n      dup5\n        /* \"#utility.yul\":1209:1232   */\n      sub\n        /* \"#utility.yul\":1205:1237   */\n      slt\n        /* \"#utility.yul\":1202:1321   */\n      iszero\n      tag_284\n      jumpi\n        /* \"#utility.yul\":1240:1319   */\n      tag_285\n      tag_277\n      jump\t// in\n    tag_285:\n        /* \"#utility.yul\":1202:1321   */\n    tag_284:\n        /* \"#utility.yul\":1360:1361   */\n      0x00\n        /* \"#utility.yul\":1385:1438   */\n      tag_286\n        /* \"#utility.yul\":1430:1437   */\n      dup5\n        /* \"#utility.yul\":1421:1427   */\n      dup3\n        /* \"#utility.yul\":1410:1419   */\n      dup6\n        /* \"#utility.yul\":1406:1428   */\n      add\n        /* \"#utility.yul\":1385:1438   */\n      tag_270\n      jump\t// in\n    tag_286:\n        /* \"#utility.yul\":1375:1438   */\n      swap2\n      pop\n        /* \"#utility.yul\":1331:1448   */\n      pop\n        /* \"#utility.yul\":1126:1455   */\n      swap3\n      swap2\n      pop\n      pop\n      jump\t// out\n        /* \"#utility.yul\":1461:1935   */\n    tag_42:\n        /* \"#utility.yul\":1529:1535   */\n      0x00\n        /* \"#utility.yul\":1537:1543   */\n      dup1\n        /* \"#utility.yul\":1586:1588   */\n      0x40\n        /* \"#utility.yul\":1574:1583   */\n      dup4\n        /* \"#utility.yul\":1565:1572   */\n      dup6\n        /* \"#utility.yul\":1561:1584   */\n      sub\n        /* \"#utility.yul\":1557:1589   */\n      slt\n        /* \"#utility.yul\":1554:1673   */\n      iszero\n      tag_288\n      jumpi\n        /* \"#utility.yul\":1592:1671   */\n      tag_289\n      tag_277\n      jump\t// in\n    tag_289:\n        /* \"#utility.yul\":1554:1673   */\n    tag_288:\n        /* \"#utility.yul\":1712:1713   */\n      0x00\n        /* \"#utility.yul\":1737:1790   */\n      tag_290\n        /* \"#utility.yul\":1782:1789   */\n      dup6\n        /* \"#utility.yul\":1773:1779   */\n      dup3\n        /* \"#utility.yul\":1762:1771   */\n      dup7\n        /* \"#utility.yul\":1758:1780   */\n      add\n        /* \"#utility.yul\":1737:1790   */\n      tag_270\n      jump\t// in\n    tag_290:\n        /* \"#utility.yul\":1727:1790   */\n      swap3\n      pop\n        /* \"#utility.yul\":1683:1800   */\n      pop\n        /* \"#utility.yul\":1839:1841   */\n      0x20\n        /* \"#utility.yul\":1865:1918   */\n      tag_291\n        /* \"#utility.yul\":1910:1917   */\n      dup6\n        /* \"#utility.yul\":1901:1907   */\n      dup3\n        /* \"#utility.yul\":1890:1899   */\n      dup7\n        /* \"#utility.yul\":1886:1908   */\n      add\n        /* \"#utility.yul\":1865:1918   */\n      tag_262\n      jump\t// in\n    tag_291:\n        /* \"#utility.yul\":1855:1918   */\n      swap2\n      pop\n        /* \"#utility.yul\":1810:1928   */\n      pop\n        /* \"#utility.yul\":1461:1935   */\n      swap3\n      pop\n      swap3\n      swap1\n      pop\n      jump\t// out\n        /* \"#utility.yul\":1941:2560   */\n    tag_79:\n        /* \"#utility.yul\":2018:2024   */\n      0x00\n        /* \"#utility.yul\":2026:2032   */\n      dup1\n        /* \"#utility.yul\":2034:2040   */\n      0x00\n        /* \"#utility.yul\":2083:2085   */\n      0x60\n        /* \"#utility.yul\":2071:2080   */\n      dup5\n        /* \"#utility.yul\":2062:2069   */\n      dup7\n        /* \"#utility.yul\":2058:2081   */\n      sub\n        /* \"#utility.yul\":2054:2086   */\n      slt\n        /* \"#utility.yul\":2051:2170   */\n      iszero\n      tag_293\n      jumpi\n        /* \"#utility.yul\":2089:2168   */\n      tag_294\n      tag_277\n      jump\t// in\n    tag_294:\n        /* \"#utility.yul\":2051:2170   */\n    tag_293:\n        /* \"#utility.yul\":2209:2210   */\n      0x00\n        /* \"#utility.yul\":2234:2287   */\n      tag_295\n        /* \"#utility.yul\":2279:2286   */\n      dup7\n        /* \"#utility.yul\":2270:2276   */\n      dup3\n        /* \"#utility.yul\":2259:2268   */\n      dup8\n        /* \"#utility.yul\":2255:2277   */\n      add\n        /* \"#utility.yul\":2234:2287   */\n      tag_270\n      jump\t// in\n    tag_295:\n        /* \"#utility.yul\":2224:2287   */\n      swap4\n      pop\n        /* \"#utility.yul\":2180:2297   */\n      pop\n        /* \"#utility.yul\":2336:2338   */\n      0x20\n        /* \"#utility.yul\":2362:2415   */\n      tag_296\n        /* \"#utility.yul\":2407:2414   */\n      dup7\n        /* \"#utility.yul\":2398:2404   */\n      dup3\n        /* \"#utility.yul\":2387:2396   */\n      dup8\n        /* \"#utility.yul\":2383:2405   */\n      add\n        /* \"#utility.yul\":2362:2415   */\n      tag_270\n      jump\t// in\n    tag_296:\n        /* \"#utility.yul\":2352:2415   */\n      swap3\n      pop\n        /* \"#utility.yul\":2307:2425   */\n      pop\n        /* \"#utility.yul\":2464:2466   */\n      0x40\n        /* \"#utility.yul\":2490:2543   */\n      tag_297\n        /* \"#utility.yul\":2535:2542   */\n      dup7\n        /* \"#utility.yul\":2526:2532   */\n      dup3\n        /* \"#utility.yul\":2515:2524   */\n      dup8\n        /* \"#utility.yul\":2511:2533   */\n      add\n        /* \"#utility.yul\":2490:2543   */\n      tag_270\n      jump\t// in\n    tag_297:\n        /* \"#utility.yul\":2480:2543   */\n      swap2\n      pop\n        /* \"#utility.yul\":2435:2553   */\n      pop\n        /* \"#utility.yul\":1941:2560   */\n      swap3\n      pop\n      swap3\n      pop\n      swap3\n      jump\t// out\n        /* \"#utility.yul\":2566:2745   */\n    tag_298:\n        /* \"#utility.yul\":2635:2645   */\n      0x00\n        /* \"#utility.yul\":2656:2702   */\n      tag_300\n        /* \"#utility.yul\":2698:2701   */\n      dup4\n        /* \"#utility.yul\":2690:2696   */\n      dup4\n        /* \"#utility.yul\":2656:2702   */\n      tag_301\n      jump\t// in\n    tag_300:\n        /* \"#utility.yul\":2734:2738   */\n      0x20\n        /* \"#utility.yul\":2729:2732   */\n      dup4\n        /* \"#utility.yul\":2725:2739   */\n      add\n        /* \"#utility.yul\":2711:2739   */\n      swap1\n      pop\n        /* \"#utility.yul\":2566:2745   */\n      swap3\n      swap2\n      pop\n      pop\n      jump\t// out\n        /* \"#utility.yul\":2751:3050   */\n    tag_302:\n        /* \"#utility.yul\":2880:2890   */\n      0x00\n        /* \"#utility.yul\":2901:3007   */\n      tag_304\n        /* \"#utility.yul\":3003:3006   */\n      dup4\n        /* \"#utility.yul\":2995:3001   */\n      dup4\n        /* \"#utility.yul\":2901:3007   */\n      tag_305\n      jump\t// in\n    tag_304:\n        /* \"#utility.yul\":3039:3043   */\n      0x80\n        /* \"#utility.yul\":3034:3037   */\n      dup4\n        /* \"#utility.yul\":3030:3044   */\n      add\n        /* \"#utility.yul\":3016:3044   */\n      swap1\n      pop\n        /* \"#utility.yul\":2751:3050   */\n      swap3\n      swap2\n      pop\n      pop\n      jump\t// out\n        /* \"#utility.yul\":3056:3235   */\n    tag_306:\n        /* \"#utility.yul\":3125:3135   */\n      0x00\n        /* \"#utility.yul\":3146:3192   */\n      tag_308\n        /* \"#utility.yul\":3188:3191   */\n      dup4\n        /* \"#utility.yul\":3180:3186   */\n      dup4\n        /* \"#utility.yul\":3146:3192   */\n      tag_309\n      jump\t// in\n    tag_308:\n        /* \"#utility.yul\":3224:3228   */\n      0x20\n        /* \"#utility.yul\":3219:3222   */\n      dup4\n        /* \"#utility.yul\":3215:3229   */\n      add\n        /* \"#utility.yul\":3201:3229   */\n      swap1\n      pop\n        /* \"#utility.yul\":3056:3235   */\n      swap3\n      swap2\n      pop\n      pop\n      jump\t// out\n        /* \"#utility.yul\":3241:3349   */\n    tag_301:\n        /* \"#utility.yul\":3318:3342   */\n      tag_311\n        /* \"#utility.yul\":3336:3341   */\n      dup2\n        /* \"#utility.yul\":3318:3342   */\n      tag_312\n      jump\t// in\n    tag_311:\n        /* \"#utility.yul\":3313:3316   */\n      dup3\n        /* \"#utility.yul\":3306:3343   */\n      mstore\n        /* \"#utility.yul\":3241:3349   */\n      pop\n      pop\n      jump\t// out\n        /* \"#utility.yul\":3355:3473   */\n    tag_313:\n        /* \"#utility.yul\":3442:3466   */\n      tag_315\n        /* \"#utility.yul\":3460:3465   */\n      dup2\n        /* \"#utility.yul\":3442:3466   */\n      tag_312\n      jump\t// in\n    tag_315:\n        /* \"#utility.yul\":3437:3440   */\n      dup3\n        /* \"#utility.yul\":3430:3467   */\n      mstore\n        /* \"#utility.yul\":3355:3473   */\n      pop\n      pop\n      jump\t// out\n        /* \"#utility.yul\":3509:4241   */\n    tag_316:\n        /* \"#utility.yul\":3628:3631   */\n      0x00\n        /* \"#utility.yul\":3657:3711   */\n      tag_318\n        /* \"#utility.yul\":3705:3710   */\n      dup3\n        /* \"#utility.yul\":3657:3711   */\n      tag_319\n      jump\t// in\n    tag_318:\n        /* \"#utility.yul\":3727:3813   */\n      tag_320\n        /* \"#utility.yul\":3806:3812   */\n      dup2\n        /* \"#utility.yul\":3801:3804   */\n      dup6\n        /* \"#utility.yul\":3727:3813   */\n      tag_321\n      jump\t// in\n    tag_320:\n        /* \"#utility.yul\":3720:3813   */\n      swap4\n      pop\n        /* \"#utility.yul\":3837:3893   */\n      tag_322\n        /* \"#utility.yul\":3887:3892   */\n      dup4\n        /* \"#utility.yul\":3837:3893   */\n      tag_323\n      jump\t// in\n    tag_322:\n        /* \"#utility.yul\":3916:3923   */\n      dup1\n        /* \"#utility.yul\":3947:3948   */\n      0x00\n        /* \"#utility.yul\":3932:4216   */\n    tag_324:\n        /* \"#utility.yul\":3957:3963   */\n      dup4\n        /* \"#utility.yul\":3954:3955   */\n      dup2\n        /* \"#utility.yul\":3951:3964   */\n      lt\n        /* \"#utility.yul\":3932:4216   */\n      iszero\n      tag_326\n      jumpi\n        /* \"#utility.yul\":4033:4039   */\n      dup2\n        /* \"#utility.yul\":4027:4040   */\n      mload\n        /* \"#utility.yul\":4060:4123   */\n      tag_327\n        /* \"#utility.yul\":4119:4122   */\n      dup9\n        /* \"#utility.yul\":4104:4117   */\n      dup3\n        /* \"#utility.yul\":4060:4123   */\n      tag_298\n      jump\t// in\n    tag_327:\n        /* \"#utility.yul\":4053:4123   */\n      swap8\n      pop\n        /* \"#utility.yul\":4146:4206   */\n      tag_328\n        /* \"#utility.yul\":4199:4205   */\n      dup4\n        /* \"#utility.yul\":4146:4206   */\n      tag_329\n      jump\t// in\n    tag_328:\n        /* \"#utility.yul\":4136:4206   */\n      swap3\n      pop\n        /* \"#utility.yul\":3992:4216   */\n      pop\n        /* \"#utility.yul\":3979:3980   */\n      0x01\n        /* \"#utility.yul\":3976:3977   */\n      dup2\n        /* \"#utility.yul\":3972:3981   */\n      add\n        /* \"#utility.yul\":3967:3981   */\n      swap1\n      pop\n        /* \"#utility.yul\":3932:4216   */\n      jump(tag_324)\n    tag_326:\n        /* \"#utility.yul\":3936:3950   */\n      pop\n        /* \"#utility.yul\":4232:4235   */\n      dup6\n        /* \"#utility.yul\":4225:4235   */\n      swap4\n      pop\n        /* \"#utility.yul\":3633:4241   */\n      pop\n      pop\n      pop\n        /* \"#utility.yul\":3509:4241   */\n      swap3\n      swap2\n      pop\n      pop\n      jump\t// out\n        /* \"#utility.yul\":4319:5291   */\n    tag_330:\n        /* \"#utility.yul\":4498:4501   */\n      0x00\n        /* \"#utility.yul\":4527:4611   */\n      tag_332\n        /* \"#utility.yul\":4605:4610   */\n      dup3\n        /* \"#utility.yul\":4527:4611   */\n      tag_333\n      jump\t// in\n    tag_332:\n        /* \"#utility.yul\":4627:4743   */\n      tag_334\n        /* \"#utility.yul\":4736:4742   */\n      dup2\n        /* \"#utility.yul\":4731:4734   */\n      dup6\n        /* \"#utility.yul\":4627:4743   */\n      tag_335\n      jump\t// in\n    tag_334:\n        /* \"#utility.yul\":4620:4743   */\n      swap4\n      pop\n        /* \"#utility.yul\":4767:4853   */\n      tag_336\n        /* \"#utility.yul\":4847:4852   */\n      dup4\n        /* \"#utility.yul\":4767:4853   */\n      tag_337\n      jump\t// in\n    tag_336:\n        /* \"#utility.yul\":4876:4883   */\n      dup1\n        /* \"#utility.yul\":4907:4908   */\n      0x00\n        /* \"#utility.yul\":4892:5266   */\n    tag_338:\n        /* \"#utility.yul\":4917:4923   */\n      dup4\n        /* \"#utility.yul\":4914:4915   */\n      dup2\n        /* \"#utility.yul\":4911:4924   */\n      lt\n        /* \"#utility.yul\":4892:5266   */\n      iszero\n      tag_340\n      jumpi\n        /* \"#utility.yul\":4993:4999   */\n      dup2\n        /* \"#utility.yul\":4987:5000   */\n      mload\n        /* \"#utility.yul\":5020:5143   */\n      tag_341\n        /* \"#utility.yul\":5139:5142   */\n      dup9\n        /* \"#utility.yul\":5124:5137   */\n      dup3\n        /* \"#utility.yul\":5020:5143   */\n      tag_302\n      jump\t// in\n    tag_341:\n        /* \"#utility.yul\":5013:5143   */\n      swap8\n      pop\n        /* \"#utility.yul\":5166:5256   */\n      tag_342\n        /* \"#utility.yul\":5249:5255   */\n      dup4\n        /* \"#utility.yul\":5166:5256   */\n      tag_343\n      jump\t// in\n    tag_342:\n        /* \"#utility.yul\":5156:5256   */\n      swap3\n      pop\n        /* \"#utility.yul\":4952:5266   */\n      pop\n        /* \"#utility.yul\":4939:4940   */\n      0x01\n        /* \"#utility.yul\":4936:4937   */\n      dup2\n        /* \"#utility.yul\":4932:4941   */\n      add\n        /* \"#utility.yul\":4927:4941   */\n      swap1\n      pop\n        /* \"#utility.yul\":4892:5266   */\n      jump(tag_338)\n    tag_340:\n        /* \"#utility.yul\":4896:4910   */\n      pop\n        /* \"#utility.yul\":5282:5285   */\n      dup6\n        /* \"#utility.yul\":5275:5285   */\n      swap4\n      pop\n        /* \"#utility.yul\":4503:5291   */\n      pop\n      pop\n      pop\n        /* \"#utility.yul\":4319:5291   */\n      swap3\n      swap2\n      pop\n      pop\n      jump\t// out\n        /* \"#utility.yul\":5327:6059   */\n    tag_344:\n        /* \"#utility.yul\":5446:5449   */\n      0x00\n        /* \"#utility.yul\":5475:5529   */\n      tag_346\n        /* \"#utility.yul\":5523:5528   */\n      dup3\n        /* \"#utility.yul\":5475:5529   */\n      tag_347\n      jump\t// in\n    tag_346:\n        /* \"#utility.yul\":5545:5631   */\n      tag_348\n        /* \"#utility.yul\":5624:5630   */\n      dup2\n        /* \"#utility.yul\":5619:5622   */\n      dup6\n        /* \"#utility.yul\":5545:5631   */\n      tag_349\n      jump\t// in\n    tag_348:\n        /* \"#utility.yul\":5538:5631   */\n      swap4\n      pop\n        /* \"#utility.yul\":5655:5711   */\n      tag_350\n        /* \"#utility.yul\":5705:5710   */\n      dup4\n        /* \"#utility.yul\":5655:5711   */\n      tag_351\n      jump\t// in\n    tag_350:\n        /* \"#utility.yul\":5734:5741   */\n      dup1\n        /* \"#utility.yul\":5765:5766   */\n      0x00\n        /* \"#utility.yul\":5750:6034   */\n    tag_352:\n        /* \"#utility.yul\":5775:5781   */\n      dup4\n        /* \"#utility.yul\":5772:5773   */\n      dup2\n        /* \"#utility.yul\":5769:5782   */\n      lt\n        /* \"#utility.yul\":5750:6034   */\n      iszero\n      tag_354\n      jumpi\n        /* \"#utility.yul\":5851:5857   */\n      dup2\n        /* \"#utility.yul\":5845:5858   */\n      mload\n        /* \"#utility.yul\":5878:5941   */\n      tag_355\n        /* \"#utility.yul\":5937:5940   */\n      dup9\n        /* \"#utility.yul\":5922:5935   */\n      dup3\n        /* \"#utility.yul\":5878:5941   */\n      tag_306\n      jump\t// in\n    tag_355:\n        /* \"#utility.yul\":5871:5941   */\n      swap8\n      pop\n        /* \"#utility.yul\":5964:6024   */\n      tag_356\n        /* \"#utility.yul\":6017:6023   */\n      dup4\n        /* \"#utility.yul\":5964:6024   */\n      tag_357\n      jump\t// in\n    tag_356:\n        /* \"#utility.yul\":5954:6024   */\n      swap3\n      pop\n        /* \"#utility.yul\":5810:6034   */\n      pop\n        /* \"#utility.yul\":5797:5798   */\n      0x01\n        /* \"#utility.yul\":5794:5795   */\n      dup2\n        /* \"#utility.yul\":5790:5799   */\n      add\n        /* \"#utility.yul\":5785:5799   */\n      swap1\n      pop\n        /* \"#utility.yul\":5750:6034   */\n      jump(tag_352)\n    tag_354:\n        /* \"#utility.yul\":5754:5768   */\n      pop\n        /* \"#utility.yul\":6050:6053   */\n      dup6\n        /* \"#utility.yul\":6043:6053   */\n      swap4\n      pop\n        /* \"#utility.yul\":5451:6059   */\n      pop\n      pop\n      pop\n        /* \"#utility.yul\":5327:6059   */\n      swap3\n      swap2\n      pop\n      pop\n      jump\t// out\n        /* \"#utility.yul\":6065:6174   */\n    tag_358:\n        /* \"#utility.yul\":6146:6167   */\n      tag_360\n        /* \"#utility.yul\":6161:6166   */\n      dup2\n        /* \"#utility.yul\":6146:6167   */\n      tag_361\n      jump\t// in\n    tag_360:\n        /* \"#utility.yul\":6141:6144   */\n      dup3\n        /* \"#utility.yul\":6134:6168   */\n      mstore\n        /* \"#utility.yul\":6065:6174   */\n      pop\n      pop\n      jump\t// out\n        /* \"#utility.yul\":6180:6546   */\n    tag_362:\n        /* \"#utility.yul\":6322:6325   */\n      0x00\n        /* \"#utility.yul\":6343:6410   */\n      tag_364\n        /* \"#utility.yul\":6407:6409   */\n      0x25\n        /* \"#utility.yul\":6402:6405   */\n      dup4\n        /* \"#utility.yul\":6343:6410   */\n      tag_365\n      jump\t// in\n    tag_364:\n        /* \"#utility.yul\":6336:6410   */\n      swap2\n      pop\n        /* \"#utility.yul\":6419:6512   */\n      tag_366\n        /* \"#utility.yul\":6508:6511   */\n      dup3\n        /* \"#utility.yul\":6419:6512   */\n      tag_367\n      jump\t// in\n    tag_366:\n        /* \"#utility.yul\":6537:6539   */\n      0x40\n        /* \"#utility.yul\":6532:6535   */\n      dup3\n        /* \"#utility.yul\":6528:6540   */\n      add\n        /* \"#utility.yul\":6521:6540   */\n      swap1\n      pop\n        /* \"#utility.yul\":6180:6546   */\n      swap2\n      swap1\n      pop\n      jump\t// out\n        /* \"#utility.yul\":6552:6918   */\n    tag_368:\n        /* \"#utility.yul\":6694:6697   */\n      0x00\n        /* \"#utility.yul\":6715:6782   */\n      tag_370\n        /* \"#utility.yul\":6779:6781   */\n      0x22\n        /* \"#utility.yul\":6774:6777   */\n      dup4\n        /* \"#utility.yul\":6715:6782   */\n      tag_365\n      jump\t// in\n    tag_370:\n        /* \"#utility.yul\":6708:6782   */\n      swap2\n      pop\n        /* \"#utility.yul\":6791:6884   */\n      tag_371\n        /* \"#utility.yul\":6880:6883   */\n      dup3\n        /* \"#utility.yul\":6791:6884   */\n      tag_372\n      jump\t// in\n    tag_371:\n        /* \"#utility.yul\":6909:6911   */\n      0x40\n        /* \"#utility.yul\":6904:6907   */\n      dup3\n        /* \"#utility.yul\":6900:6912   */\n      add\n        /* \"#utility.yul\":6893:6912   */\n      swap1\n      pop\n        /* \"#utility.yul\":6552:6918   */\n      swap2\n      swap1\n      pop\n      jump\t// out\n        /* \"#utility.yul\":6924:7290   */\n    tag_373:\n        /* \"#utility.yul\":7066:7069   */\n      0x00\n        /* \"#utility.yul\":7087:7154   */\n      tag_375\n        /* \"#utility.yul\":7151:7153   */\n      0x21\n        /* \"#utility.yul\":7146:7149   */\n      dup4\n        /* \"#utility.yul\":7087:7154   */\n      tag_365\n      jump\t// in\n    tag_375:\n        /* \"#utility.yul\":7080:7154   */\n      swap2\n      pop\n        /* \"#utility.yul\":7163:7256   */\n      tag_376\n        /* \"#utility.yul\":7252:7255   */\n      dup3\n        /* \"#utility.yul\":7163:7256   */\n      tag_377\n      jump\t// in\n    tag_376:\n        /* \"#utility.yul\":7281:7283   */\n      0x40\n        /* \"#utility.yul\":7276:7279   */\n      dup3\n        /* \"#utility.yul\":7272:7284   */\n      add\n        /* \"#utility.yul\":7265:7284   */\n      swap1\n      pop\n        /* \"#utility.yul\":6924:7290   */\n      swap2\n      swap1\n      pop\n      jump\t// out\n        /* \"#utility.yul\":7296:7662   */\n    tag_378:\n        /* \"#utility.yul\":7438:7441   */\n      0x00\n        /* \"#utility.yul\":7459:7526   */\n      tag_380\n        /* \"#utility.yul\":7523:7525   */\n      0x1f\n        /* \"#utility.yul\":7518:7521   */\n      dup4\n        /* \"#utility.yul\":7459:7526   */\n      tag_365\n      jump\t// in\n    tag_380:\n        /* \"#utility.yul\":7452:7526   */\n      swap2\n      pop\n        /* \"#utility.yul\":7535:7628   */\n      tag_381\n        /* \"#utility.yul\":7624:7627   */\n      dup3\n        /* \"#utility.yul\":7535:7628   */\n      tag_382\n      jump\t// in\n    tag_381:\n        /* \"#utility.yul\":7653:7655   */\n      0x20\n        /* \"#utility.yul\":7648:7651   */\n      dup3\n        /* \"#utility.yul\":7644:7656   */\n      add\n        /* \"#utility.yul\":7637:7656   */\n      swap1\n      pop\n        /* \"#utility.yul\":7296:7662   */\n      swap2\n      swap1\n      pop\n      jump\t// out\n        /* \"#utility.yul\":7736:8626   */\n    tag_305:\n        /* \"#utility.yul\":7883:7887   */\n      0x80\n        /* \"#utility.yul\":7878:7881   */\n      dup3\n        /* \"#utility.yul\":7874:7888   */\n      add\n        /* \"#utility.yul\":7980:7984   */\n      0x00\n        /* \"#utility.yul\":7973:7978   */\n      dup3\n        /* \"#utility.yul\":7969:7985   */\n      add\n        /* \"#utility.yul\":7963:7986   */\n      mload\n        /* \"#utility.yul\":7999:8062   */\n      tag_384\n        /* \"#utility.yul\":8056:8060   */\n      0x00\n        /* \"#utility.yul\":8051:8054   */\n      dup6\n        /* \"#utility.yul\":8047:8061   */\n      add\n        /* \"#utility.yul\":8033:8045   */\n      dup3\n        /* \"#utility.yul\":7999:8062   */\n      tag_309\n      jump\t// in\n    tag_384:\n        /* \"#utility.yul\":7898:8072   */\n      pop\n        /* \"#utility.yul\":8163:8167   */\n      0x20\n        /* \"#utility.yul\":8156:8161   */\n      dup3\n        /* \"#utility.yul\":8152:8168   */\n      add\n        /* \"#utility.yul\":8146:8169   */\n      mload\n        /* \"#utility.yul\":8182:8245   */\n      tag_385\n        /* \"#utility.yul\":8239:8243   */\n      0x20\n        /* \"#utility.yul\":8234:8237   */\n      dup6\n        /* \"#utility.yul\":8230:8244   */\n      add\n        /* \"#utility.yul\":8216:8228   */\n      dup3\n        /* \"#utility.yul\":8182:8245   */\n      tag_309\n      jump\t// in\n    tag_385:\n        /* \"#utility.yul\":8082:8255   */\n      pop\n        /* \"#utility.yul\":8344:8348   */\n      0x40\n        /* \"#utility.yul\":8337:8342   */\n      dup3\n        /* \"#utility.yul\":8333:8349   */\n      add\n        /* \"#utility.yul\":8327:8350   */\n      mload\n        /* \"#utility.yul\":8363:8426   */\n      tag_386\n        /* \"#utility.yul\":8420:8424   */\n      0x40\n        /* \"#utility.yul\":8415:8418   */\n      dup6\n        /* \"#utility.yul\":8411:8425   */\n      add\n        /* \"#utility.yul\":8397:8409   */\n      dup3\n        /* \"#utility.yul\":8363:8426   */\n      tag_309\n      jump\t// in\n    tag_386:\n        /* \"#utility.yul\":8265:8436   */\n      pop\n        /* \"#utility.yul\":8527:8531   */\n      0x60\n        /* \"#utility.yul\":8520:8525   */\n      dup3\n        /* \"#utility.yul\":8516:8532   */\n      add\n        /* \"#utility.yul\":8510:8533   */\n      mload\n        /* \"#utility.yul\":8546:8609   */\n      tag_387\n        /* \"#utility.yul\":8603:8607   */\n      0x60\n        /* \"#utility.yul\":8598:8601   */\n      dup6\n        /* \"#utility.yul\":8594:8608   */\n      add\n        /* \"#utility.yul\":8580:8592   */\n      dup3\n        /* \"#utility.yul\":8546:8609   */\n      tag_309\n      jump\t// in\n    tag_387:\n        /* \"#utility.yul\":8446:8619   */\n      pop\n        /* \"#utility.yul\":7852:8626   */\n      pop\n        /* \"#utility.yul\":7736:8626   */\n      pop\n      pop\n      jump\t// out\n        /* \"#utility.yul\":8632:8740   */\n    tag_309:\n        /* \"#utility.yul\":8709:8733   */\n      tag_389\n        /* \"#utility.yul\":8727:8732   */\n      dup2\n        /* \"#utility.yul\":8709:8733   */\n      tag_390\n      jump\t// in\n    tag_389:\n        /* \"#utility.yul\":8704:8707   */\n      dup3\n        /* \"#utility.yul\":8697:8734   */\n      mstore\n        /* \"#utility.yul\":8632:8740   */\n      pop\n      pop\n      jump\t// out\n        /* \"#utility.yul\":8746:8864   */\n    tag_391:\n        /* \"#utility.yul\":8833:8857   */\n      tag_393\n        /* \"#utility.yul\":8851:8856   */\n      dup2\n        /* \"#utility.yul\":8833:8857   */\n      tag_390\n      jump\t// in\n    tag_393:\n        /* \"#utility.yul\":8828:8831   */\n      dup3\n        /* \"#utility.yul\":8821:8858   */\n      mstore\n        /* \"#utility.yul\":8746:8864   */\n      pop\n      pop\n      jump\t// out\n        /* \"#utility.yul\":8870:9092   */\n    tag_66:\n        /* \"#utility.yul\":8963:8967   */\n      0x00\n        /* \"#utility.yul\":9001:9003   */\n      0x20\n        /* \"#utility.yul\":8990:8999   */\n      dup3\n        /* \"#utility.yul\":8986:9004   */\n      add\n        /* \"#utility.yul\":8978:9004   */\n      swap1\n      pop\n        /* \"#utility.yul\":9014:9085   */\n      tag_395\n        /* \"#utility.yul\":9082:9083   */\n      0x00\n        /* \"#utility.yul\":9071:9080   */\n      dup4\n        /* \"#utility.yul\":9067:9084   */\n      add\n        /* \"#utility.yul\":9058:9064   */\n      dup5\n        /* \"#utility.yul\":9014:9085   */\n      tag_313\n      jump\t// in\n    tag_395:\n        /* \"#utility.yul\":8870:9092   */\n      swap3\n      swap2\n      pop\n      pop\n      jump\t// out\n        /* \"#utility.yul\":9098:9540   */\n    tag_115:\n        /* \"#utility.yul\":9247:9251   */\n      0x00\n        /* \"#utility.yul\":9285:9287   */\n      0x60\n        /* \"#utility.yul\":9274:9283   */\n      dup3\n        /* \"#utility.yul\":9270:9288   */\n      add\n        /* \"#utility.yul\":9262:9288   */\n      swap1\n      pop\n        /* \"#utility.yul\":9298:9369   */\n      tag_397\n        /* \"#utility.yul\":9366:9367   */\n      0x00\n        /* \"#utility.yul\":9355:9364   */\n      dup4\n        /* \"#utility.yul\":9351:9368   */\n      add\n        /* \"#utility.yul\":9342:9348   */\n      dup7\n        /* \"#utility.yul\":9298:9369   */\n      tag_313\n      jump\t// in\n    tag_397:\n        /* \"#utility.yul\":9379:9451   */\n      tag_398\n        /* \"#utility.yul\":9447:9449   */\n      0x20\n        /* \"#utility.yul\":9436:9445   */\n      dup4\n        /* \"#utility.yul\":9432:9450   */\n      add\n        /* \"#utility.yul\":9423:9429   */\n      dup6\n        /* \"#utility.yul\":9379:9451   */\n      tag_313\n      jump\t// in\n    tag_398:\n        /* \"#utility.yul\":9461:9533   */\n      tag_399\n        /* \"#utility.yul\":9529:9531   */\n      0x40\n        /* \"#utility.yul\":9518:9527   */\n      dup4\n        /* \"#utility.yul\":9514:9532   */\n      add\n        /* \"#utility.yul\":9505:9511   */\n      dup5\n        /* \"#utility.yul\":9461:9533   */\n      tag_391\n      jump\t// in\n    tag_399:\n        /* \"#utility.yul\":9098:9540   */\n      swap5\n      swap4\n      pop\n      pop\n      pop\n      pop\n      jump\t// out\n        /* \"#utility.yul\":9546:9878   */\n    tag_171:\n        /* \"#utility.yul\":9667:9671   */\n      0x00\n        /* \"#utility.yul\":9705:9707   */\n      0x40\n        /* \"#utility.yul\":9694:9703   */\n      dup3\n        /* \"#utility.yul\":9690:9708   */\n      add\n        /* \"#utility.yul\":9682:9708   */\n      swap1\n      pop\n        /* \"#utility.yul\":9718:9789   */\n      tag_401\n        /* \"#utility.yul\":9786:9787   */\n      0x00\n        /* \"#utility.yul\":9775:9784   */\n      dup4\n        /* \"#utility.yul\":9771:9788   */\n      add\n        /* \"#utility.yul\":9762:9768   */\n      dup6\n        /* \"#utility.yul\":9718:9789   */\n      tag_313\n      jump\t// in\n    tag_401:\n        /* \"#utility.yul\":9799:9871   */\n      tag_402\n        /* \"#utility.yul\":9867:9869   */\n      0x20\n        /* \"#utility.yul\":9856:9865   */\n      dup4\n        /* \"#utility.yul\":9852:9870   */\n      add\n        /* \"#utility.yul\":9843:9849   */\n      dup5\n        /* \"#utility.yul\":9799:9871   */\n      tag_391\n      jump\t// in\n    tag_402:\n        /* \"#utility.yul\":9546:9878   */\n      swap4\n      swap3\n      pop\n      pop\n      pop\n      jump\t// out\n        /* \"#utility.yul\":9884:10647   */\n    tag_86:\n        /* \"#utility.yul\":10111:10115   */\n      0x00\n        /* \"#utility.yul\":10149:10152   */\n      0xc0\n        /* \"#utility.yul\":10138:10147   */\n      dup3\n        /* \"#utility.yul\":10134:10153   */\n      add\n        /* \"#utility.yul\":10126:10153   */\n      swap1\n      pop\n        /* \"#utility.yul\":10163:10234   */\n      tag_404\n        /* \"#utility.yul\":10231:10232   */\n      0x00\n        /* \"#utility.yul\":10220:10229   */\n      dup4\n        /* \"#utility.yul\":10216:10233   */\n      add\n        /* \"#utility.yul\":10207:10213   */\n      dup10\n        /* \"#utility.yul\":10163:10234   */\n      tag_313\n      jump\t// in\n    tag_404:\n        /* \"#utility.yul\":10244:10316   */\n      tag_405\n        /* \"#utility.yul\":10312:10314   */\n      0x20\n        /* \"#utility.yul\":10301:10310   */\n      dup4\n        /* \"#utility.yul\":10297:10315   */\n      add\n        /* \"#utility.yul\":10288:10294   */\n      dup9\n        /* \"#utility.yul\":10244:10316   */\n      tag_391\n      jump\t// in\n    tag_405:\n        /* \"#utility.yul\":10326:10398   */\n      tag_406\n        /* \"#utility.yul\":10394:10396   */\n      0x40\n        /* \"#utility.yul\":10383:10392   */\n      dup4\n        /* \"#utility.yul\":10379:10397   */\n      add\n        /* \"#utility.yul\":10370:10376   */\n      dup8\n        /* \"#utility.yul\":10326:10398   */\n      tag_391\n      jump\t// in\n    tag_406:\n        /* \"#utility.yul\":10408:10480   */\n      tag_407\n        /* \"#utility.yul\":10476:10478   */\n      0x60\n        /* \"#utility.yul\":10465:10474   */\n      dup4\n        /* \"#utility.yul\":10461:10479   */\n      add\n        /* \"#utility.yul\":10452:10458   */\n      dup7\n        /* \"#utility.yul\":10408:10480   */\n      tag_391\n      jump\t// in\n    tag_407:\n        /* \"#utility.yul\":10490:10563   */\n      tag_408\n        /* \"#utility.yul\":10558:10561   */\n      0x80\n        /* \"#utility.yul\":10547:10556   */\n      dup4\n        /* \"#utility.yul\":10543:10562   */\n      add\n        /* \"#utility.yul\":10534:10540   */\n      dup6\n        /* \"#utility.yul\":10490:10563   */\n      tag_391\n      jump\t// in\n    tag_408:\n        /* \"#utility.yul\":10573:10640   */\n      tag_409\n        /* \"#utility.yul\":10635:10638   */\n      0xa0\n        /* \"#utility.yul\":10624:10633   */\n      dup4\n        /* \"#utility.yul\":10620:10639   */\n      add\n        /* \"#utility.yul\":10611:10617   */\n      dup5\n        /* \"#utility.yul\":10573:10640   */\n      tag_358\n      jump\t// in\n    tag_409:\n        /* \"#utility.yul\":9884:10647   */\n      swap8\n      swap7\n      pop\n      pop\n      pop\n      pop\n      pop\n      pop\n      pop\n      jump\t// out\n        /* \"#utility.yul\":10653:11026   */\n    tag_28:\n        /* \"#utility.yul\":10796:10800   */\n      0x00\n        /* \"#utility.yul\":10834:10836   */\n      0x20\n        /* \"#utility.yul\":10823:10832   */\n      dup3\n        /* \"#utility.yul\":10819:10837   */\n      add\n        /* \"#utility.yul\":10811:10837   */\n      swap1\n      pop\n        /* \"#utility.yul\":10883:10892   */\n      dup2\n        /* \"#utility.yul\":10877:10881   */\n      dup2\n        /* \"#utility.yul\":10873:10893   */\n      sub\n        /* \"#utility.yul\":10869:10870   */\n      0x00\n        /* \"#utility.yul\":10858:10867   */\n      dup4\n        /* \"#utility.yul\":10854:10871   */\n      add\n        /* \"#utility.yul\":10847:10894   */\n      mstore\n        /* \"#utility.yul\":10911:11019   */\n      tag_411\n        /* \"#utility.yul\":11014:11018   */\n      dup2\n        /* \"#utility.yul\":11005:11011   */\n      dup5\n        /* \"#utility.yul\":10911:11019   */\n      tag_316\n      jump\t// in\n    tag_411:\n        /* \"#utility.yul\":10903:11019   */\n      swap1\n      pop\n        /* \"#utility.yul\":10653:11026   */\n      swap3\n      swap2\n      pop\n      pop\n      jump\t// out\n        /* \"#utility.yul\":11032:11525   */\n    tag_52:\n        /* \"#utility.yul\":11235:11239   */\n      0x00\n        /* \"#utility.yul\":11273:11275   */\n      0x20\n        /* \"#utility.yul\":11262:11271   */\n      dup3\n        /* \"#utility.yul\":11258:11276   */\n      add\n        /* \"#utility.yul\":11250:11276   */\n      swap1\n      pop\n        /* \"#utility.yul\":11322:11331   */\n      dup2\n        /* \"#utility.yul\":11316:11320   */\n      dup2\n        /* \"#utility.yul\":11312:11332   */\n      sub\n        /* \"#utility.yul\":11308:11309   */\n      0x00\n        /* \"#utility.yul\":11297:11306   */\n      dup4\n        /* \"#utility.yul\":11293:11310   */\n      add\n        /* \"#utility.yul\":11286:11333   */\n      mstore\n        /* \"#utility.yul\":11350:11518   */\n      tag_413\n        /* \"#utility.yul\":11513:11517   */\n      dup2\n        /* \"#utility.yul\":11504:11510   */\n      dup5\n        /* \"#utility.yul\":11350:11518   */\n      tag_330\n      jump\t// in\n    tag_413:\n        /* \"#utility.yul\":11342:11518   */\n      swap1\n      pop\n        /* \"#utility.yul\":11032:11525   */\n      swap3\n      swap2\n      pop\n      pop\n      jump\t// out\n        /* \"#utility.yul\":11531:11904   */\n    tag_73:\n        /* \"#utility.yul\":11674:11678   */\n      0x00\n        /* \"#utility.yul\":11712:11714   */\n      0x20\n        /* \"#utility.yul\":11701:11710   */\n      dup3\n        /* \"#utility.yul\":11697:11715   */\n      add\n        /* \"#utility.yul\":11689:11715   */\n      swap1\n      pop\n        /* \"#utility.yul\":11761:11770   */\n      dup2\n        /* \"#utility.yul\":11755:11759   */\n      dup2\n        /* \"#utility.yul\":11751:11771   */\n      sub\n        /* \"#utility.yul\":11747:11748   */\n      0x00\n        /* \"#utility.yul\":11736:11745   */\n      dup4\n        /* \"#utility.yul\":11732:11749   */\n      add\n        /* \"#utility.yul\":11725:11772   */\n      mstore\n        /* \"#utility.yul\":11789:11897   */\n      tag_415\n        /* \"#utility.yul\":11892:11896   */\n      dup2\n        /* \"#utility.yul\":11883:11889   */\n      dup5\n        /* \"#utility.yul\":11789:11897   */\n      tag_344\n      jump\t// in\n    tag_415:\n        /* \"#utility.yul\":11781:11897   */\n      swap1\n      pop\n        /* \"#utility.yul\":11531:11904   */\n      swap3\n      swap2\n      pop\n      pop\n      jump\t// out\n        /* \"#utility.yul\":11910:12120   */\n    tag_45:\n        /* \"#utility.yul\":11997:12001   */\n      0x00\n        /* \"#utility.yul\":12035:12037   */\n      0x20\n        /* \"#utility.yul\":12024:12033   */\n      dup3\n        /* \"#utility.yul\":12020:12038   */\n      add\n        /* \"#utility.yul\":12012:12038   */\n      swap1\n      pop\n        /* \"#utility.yul\":12048:12113   */\n      tag_417\n        /* \"#utility.yul\":12110:12111   */\n      0x00\n        /* \"#utility.yul\":12099:12108   */\n      dup4\n        /* \"#utility.yul\":12095:12112   */\n      add\n        /* \"#utility.yul\":12086:12092   */\n      dup5\n        /* \"#utility.yul\":12048:12113   */\n      tag_358\n      jump\t// in\n    tag_417:\n        /* \"#utility.yul\":11910:12120   */\n      swap3\n      swap2\n      pop\n      pop\n      jump\t// out\n        /* \"#utility.yul\":12126:12545   */\n    tag_167:\n        /* \"#utility.yul\":12292:12296   */\n      0x00\n        /* \"#utility.yul\":12330:12332   */\n      0x20\n        /* \"#utility.yul\":12319:12328   */\n      dup3\n        /* \"#utility.yul\":12315:12333   */\n      add\n        /* \"#utility.yul\":12307:12333   */\n      swap1\n      pop\n        /* \"#utility.yul\":12379:12388   */\n      dup2\n        /* \"#utility.yul\":12373:12377   */\n      dup2\n        /* \"#utility.yul\":12369:12389   */\n      sub\n        /* \"#utility.yul\":12365:12366   */\n      0x00\n        /* \"#utility.yul\":12354:12363   */\n      dup4\n        /* \"#utility.yul\":12350:12367   */\n      add\n        /* \"#utility.yul\":12343:12390   */\n      mstore\n        /* \"#utility.yul\":12407:12538   */\n      tag_419\n        /* \"#utility.yul\":12533:12537   */\n      dup2\n        /* \"#utility.yul\":12407:12538   */\n      tag_362\n      jump\t// in\n    tag_419:\n        /* \"#utility.yul\":12399:12538   */\n      swap1\n      pop\n        /* \"#utility.yul\":12126:12545   */\n      swap2\n      swap1\n      pop\n      jump\t// out\n        /* \"#utility.yul\":12551:12970   */\n    tag_201:\n        /* \"#utility.yul\":12717:12721   */\n      0x00\n        /* \"#utility.yul\":12755:12757   */\n      0x20\n        /* \"#utility.yul\":12744:12753   */\n      dup3\n        /* \"#utility.yul\":12740:12758   */\n      add\n        /* \"#utility.yul\":12732:12758   */\n      swap1\n      pop\n        /* \"#utility.yul\":12804:12813   */\n      dup2\n        /* \"#utility.yul\":12798:12802   */\n      dup2\n        /* \"#utility.yul\":12794:12814   */\n      sub\n        /* \"#utility.yul\":12790:12791   */\n      0x00\n        /* \"#utility.yul\":12779:12788   */\n      dup4\n        /* \"#utility.yul\":12775:12792   */\n      add\n        /* \"#utility.yul\":12768:12815   */\n      mstore\n        /* \"#utility.yul\":12832:12963   */\n      tag_421\n        /* \"#utility.yul\":12958:12962   */\n      dup2\n        /* \"#utility.yul\":12832:12963   */\n      tag_368\n      jump\t// in\n    tag_421:\n        /* \"#utility.yul\":12824:12963   */\n      swap1\n      pop\n        /* \"#utility.yul\":12551:12970   */\n      swap2\n      swap1\n      pop\n      jump\t// out\n        /* \"#utility.yul\":12976:13395   */\n    tag_211:\n        /* \"#utility.yul\":13142:13146   */\n      0x00\n        /* \"#utility.yul\":13180:13182   */\n      0x20\n        /* \"#utility.yul\":13169:13178   */\n      dup3\n        /* \"#utility.yul\":13165:13183   */\n      add\n        /* \"#utility.yul\":13157:13183   */\n      swap1\n      pop\n        /* \"#utility.yul\":13229:13238   */\n      dup2\n        /* \"#utility.yul\":13223:13227   */\n      dup2\n        /* \"#utility.yul\":13219:13239   */\n      sub\n        /* \"#utility.yul\":13215:13216   */\n      0x00\n        /* \"#utility.yul\":13204:13213   */\n      dup4\n        /* \"#utility.yul\":13200:13217   */\n      add\n        /* \"#utility.yul\":13193:13240   */\n      mstore\n        /* \"#utility.yul\":13257:13388   */\n      tag_423\n        /* \"#utility.yul\":13383:13387   */\n      dup2\n        /* \"#utility.yul\":13257:13388   */\n      tag_373\n      jump\t// in\n    tag_423:\n        /* \"#utility.yul\":13249:13388   */\n      swap1\n      pop\n        /* \"#utility.yul\":12976:13395   */\n      swap2\n      swap1\n      pop\n      jump\t// out\n        /* \"#utility.yul\":13401:13820   */\n    tag_104:\n        /* \"#utility.yul\":13567:13571   */\n      0x00\n        /* \"#utility.yul\":13605:13607   */\n      0x20\n        /* \"#utility.yul\":13594:13603   */\n      dup3\n        /* \"#utility.yul\":13590:13608   */\n      add\n        /* \"#utility.yul\":13582:13608   */\n      swap1\n      pop\n        /* \"#utility.yul\":13654:13663   */\n      dup2\n        /* \"#utility.yul\":13648:13652   */\n      dup2\n        /* \"#utility.yul\":13644:13664   */\n      sub\n        /* \"#utility.yul\":13640:13641   */\n      0x00\n        /* \"#utility.yul\":13629:13638   */\n      dup4\n        /* \"#utility.yul\":13625:13642   */\n      add\n        /* \"#utility.yul\":13618:13665   */\n      mstore\n        /* \"#utility.yul\":13682:13813   */\n      tag_425\n        /* \"#utility.yul\":13808:13812   */\n      dup2\n        /* \"#utility.yul\":13682:13813   */\n      tag_378\n      jump\t// in\n    tag_425:\n        /* \"#utility.yul\":13674:13813   */\n      swap1\n      pop\n        /* \"#utility.yul\":13401:13820   */\n      swap2\n      swap1\n      pop\n      jump\t// out\n        /* \"#utility.yul\":13826:14048   */\n    tag_32:\n        /* \"#utility.yul\":13919:13923   */\n      0x00\n        /* \"#utility.yul\":13957:13959   */\n      0x20\n        /* \"#utility.yul\":13946:13955   */\n      dup3\n        /* \"#utility.yul\":13942:13960   */\n      add\n        /* \"#utility.yul\":13934:13960   */\n      swap1\n      pop\n        /* \"#utility.yul\":13970:14041   */\n      tag_427\n        /* \"#utility.yul\":14038:14039   */\n      0x00\n        /* \"#utility.yul\":14027:14036   */\n      dup4\n        /* \"#utility.yul\":14023:14040   */\n      add\n        /* \"#utility.yul\":14014:14020   */\n      dup5\n        /* \"#utility.yul\":13970:14041   */\n      tag_391\n      jump\t// in\n    tag_427:\n        /* \"#utility.yul\":13826:14048   */\n      swap3\n      swap2\n      pop\n      pop\n      jump\t// out\n        /* \"#utility.yul\":14135:14267   */\n    tag_323:\n        /* \"#utility.yul\":14202:14206   */\n      0x00\n        /* \"#utility.yul\":14225:14228   */\n      dup2\n        /* \"#utility.yul\":14217:14228   */\n      swap1\n      pop\n        /* \"#utility.yul\":14255:14259   */\n      0x20\n        /* \"#utility.yul\":14250:14253   */\n      dup3\n        /* \"#utility.yul\":14246:14260   */\n      add\n        /* \"#utility.yul\":14238:14260   */\n      swap1\n      pop\n        /* \"#utility.yul\":14135:14267   */\n      swap2\n      swap1\n      pop\n      jump\t// out\n        /* \"#utility.yul\":14273:14435   */\n    tag_337:\n        /* \"#utility.yul\":14370:14374   */\n      0x00\n        /* \"#utility.yul\":14393:14396   */\n      dup2\n        /* \"#utility.yul\":14385:14396   */\n      swap1\n      pop\n        /* \"#utility.yul\":14423:14427   */\n      0x20\n        /* \"#utility.yul\":14418:14421   */\n      dup3\n        /* \"#utility.yul\":14414:14428   */\n      add\n        /* \"#utility.yul\":14406:14428   */\n      swap1\n      pop\n        /* \"#utility.yul\":14273:14435   */\n      swap2\n      swap1\n      pop\n      jump\t// out\n        /* \"#utility.yul\":14441:14573   */\n    tag_351:\n        /* \"#utility.yul\":14508:14512   */\n      0x00\n        /* \"#utility.yul\":14531:14534   */\n      dup2\n        /* \"#utility.yul\":14523:14534   */\n      swap1\n      pop\n        /* \"#utility.yul\":14561:14565   */\n      0x20\n        /* \"#utility.yul\":14556:14559   */\n      dup3\n        /* \"#utility.yul\":14552:14566   */\n      add\n        /* \"#utility.yul\":14544:14566   */\n      swap1\n      pop\n        /* \"#utility.yul\":14441:14573   */\n      swap2\n      swap1\n      pop\n      jump\t// out\n        /* \"#utility.yul\":14579:14693   */\n    tag_319:\n        /* \"#utility.yul\":14646:14652   */\n      0x00\n        /* \"#utility.yul\":14680:14685   */\n      dup2\n        /* \"#utility.yul\":14674:14686   */\n      mload\n        /* \"#utility.yul\":14664:14686   */\n      swap1\n      pop\n        /* \"#utility.yul\":14579:14693   */\n      swap2\n      swap1\n      pop\n      jump\t// out\n        /* \"#utility.yul\":14699:14843   */\n    tag_333:\n        /* \"#utility.yul\":14796:14802   */\n      0x00\n        /* \"#utility.yul\":14830:14835   */\n      dup2\n        /* \"#utility.yul\":14824:14836   */\n      mload\n        /* \"#utility.yul\":14814:14836   */\n      swap1\n      pop\n        /* \"#utility.yul\":14699:14843   */\n      swap2\n      swap1\n      pop\n      jump\t// out\n        /* \"#utility.yul\":14849:14963   */\n    tag_347:\n        /* \"#utility.yul\":14916:14922   */\n      0x00\n        /* \"#utility.yul\":14950:14955   */\n      dup2\n        /* \"#utility.yul\":14944:14956   */\n      mload\n        /* \"#utility.yul\":14934:14956   */\n      swap1\n      pop\n        /* \"#utility.yul\":14849:14963   */\n      swap2\n      swap1\n      pop\n      jump\t// out\n        /* \"#utility.yul\":14969:15082   */\n    tag_329:\n        /* \"#utility.yul\":15039:15043   */\n      0x00\n        /* \"#utility.yul\":15071:15075   */\n      0x20\n        /* \"#utility.yul\":15066:15069   */\n      dup3\n        /* \"#utility.yul\":15062:15076   */\n      add\n        /* \"#utility.yul\":15054:15076   */\n      swap1\n      pop\n        /* \"#utility.yul\":14969:15082   */\n      swap2\n      swap1\n      pop\n      jump\t// out\n        /* \"#utility.yul\":15088:15231   */\n    tag_343:\n        /* \"#utility.yul\":15188:15192   */\n      0x00\n        /* \"#utility.yul\":15220:15224   */\n      0x20\n        /* \"#utility.yul\":15215:15218   */\n      dup3\n        /* \"#utility.yul\":15211:15225   */\n      add\n        /* \"#utility.yul\":15203:15225   */\n      swap1\n      pop\n        /* \"#utility.yul\":15088:15231   */\n      swap2\n      swap1\n      pop\n      jump\t// out\n        /* \"#utility.yul\":15237:15350   */\n    tag_357:\n        /* \"#utility.yul\":15307:15311   */\n      0x00\n        /* \"#utility.yul\":15339:15343   */\n      0x20\n        /* \"#utility.yul\":15334:15337   */\n      dup3\n        /* \"#utility.yul\":15330:15344   */\n      add\n        /* \"#utility.yul\":15322:15344   */\n      swap1\n      pop\n        /* \"#utility.yul\":15237:15350   */\n      swap2\n      swap1\n      pop\n      jump\t// out\n        /* \"#utility.yul\":15356:15540   */\n    tag_321:\n        /* \"#utility.yul\":15455:15466   */\n      0x00\n        /* \"#utility.yul\":15489:15495   */\n      dup3\n        /* \"#utility.yul\":15484:15487   */\n      dup3\n        /* \"#utility.yul\":15477:15496   */\n      mstore\n        /* \"#utility.yul\":15529:15533   */\n      0x20\n        /* \"#utility.yul\":15524:15527   */\n      dup3\n        /* \"#utility.yul\":15520:15534   */\n      add\n        /* \"#utility.yul\":15505:15534   */\n      swap1\n      pop\n        /* \"#utility.yul\":15356:15540   */\n      swap3\n      swap2\n      pop\n      pop\n      jump\t// out\n        /* \"#utility.yul\":15546:15760   */\n    tag_335:\n        /* \"#utility.yul\":15675:15686   */\n      0x00\n        /* \"#utility.yul\":15709:15715   */\n      dup3\n        /* \"#utility.yul\":15704:15707   */\n      dup3\n        /* \"#utility.yul\":15697:15716   */\n      mstore\n        /* \"#utility.yul\":15749:15753   */\n      0x20\n        /* \"#utility.yul\":15744:15747   */\n      dup3\n        /* \"#utility.yul\":15740:15754   */\n      add\n        /* \"#utility.yul\":15725:15754   */\n      swap1\n      pop\n        /* \"#utility.yul\":15546:15760   */\n      swap3\n      swap2\n      pop\n      pop\n      jump\t// out\n        /* \"#utility.yul\":15766:15950   */\n    tag_349:\n        /* \"#utility.yul\":15865:15876   */\n      0x00\n        /* \"#utility.yul\":15899:15905   */\n      dup3\n        /* \"#utility.yul\":15894:15897   */\n      dup3\n        /* \"#utility.yul\":15887:15906   */\n      mstore\n        /* \"#utility.yul\":15939:15943   */\n      0x20\n        /* \"#utility.yul\":15934:15937   */\n      dup3\n        /* \"#utility.yul\":15930:15944   */\n      add\n        /* \"#utility.yul\":15915:15944   */\n      swap1\n      pop\n        /* \"#utility.yul\":15766:15950   */\n      swap3\n      swap2\n      pop\n      pop\n      jump\t// out\n        /* \"#utility.yul\":15956:16125   */\n    tag_365:\n        /* \"#utility.yul\":16040:16051   */\n      0x00\n        /* \"#utility.yul\":16074:16080   */\n      dup3\n        /* \"#utility.yul\":16069:16072   */\n      dup3\n        /* \"#utility.yul\":16062:16081   */\n      mstore\n        /* \"#utility.yul\":16114:16118   */\n      0x20\n        /* \"#utility.yul\":16109:16112   */\n      dup3\n        /* \"#utility.yul\":16105:16119   */\n      add\n        /* \"#utility.yul\":16090:16119   */\n      swap1\n      pop\n        /* \"#utility.yul\":15956:16125   */\n      swap3\n      swap2\n      pop\n      pop\n      jump\t// out\n        /* \"#utility.yul\":16131:16436   */\n    tag_109:\n        /* \"#utility.yul\":16171:16174   */\n      0x00\n        /* \"#utility.yul\":16190:16210   */\n      tag_444\n        /* \"#utility.yul\":16208:16209   */\n      dup3\n        /* \"#utility.yul\":16190:16210   */\n      tag_390\n      jump\t// in\n    tag_444:\n        /* \"#utility.yul\":16185:16210   */\n      swap2\n      pop\n        /* \"#utility.yul\":16224:16244   */\n      tag_445\n        /* \"#utility.yul\":16242:16243   */\n      dup4\n        /* \"#utility.yul\":16224:16244   */\n      tag_390\n      jump\t// in\n    tag_445:\n        /* \"#utility.yul\":16219:16244   */\n      swap3\n      pop\n        /* \"#utility.yul\":16378:16379   */\n      dup3\n        /* \"#utility.yul\":16310:16376   */\n      0xffffffffffffffffffffffffffffffffffffffffffffffffffffffffffffffff\n        /* \"#utility.yul\":16306:16380   */\n      sub\n        /* \"#utility.yul\":16303:16304   */\n      dup3\n        /* \"#utility.yul\":16300:16381   */\n      gt\n        /* \"#utility.yul\":16297:16404   */\n      iszero\n      tag_446\n      jumpi\n        /* \"#utility.yul\":16384:16402   */\n      tag_447\n      tag_448\n      jump\t// in\n    tag_447:\n        /* \"#utility.yul\":16297:16404   */\n    tag_446:\n        /* \"#utility.yul\":16428:16429   */\n      dup3\n        /* \"#utility.yul\":16425:16426   */\n      dup3\n        /* \"#utility.yul\":16421:16430   */\n      add\n        /* \"#utility.yul\":16414:16430   */\n      swap1\n      pop\n        /* \"#utility.yul\":16131:16436   */\n      swap3\n      swap2\n      pop\n      pop\n      jump\t// out\n        /* \"#utility.yul\":16442:16627   */\n    tag_158:\n        /* \"#utility.yul\":16482:16483   */\n      0x00\n        /* \"#utility.yul\":16499:16519   */\n      tag_450\n        /* \"#utility.yul\":16517:16518   */\n      dup3\n        /* \"#utility.yul\":16499:16519   */\n      tag_390\n      jump\t// in\n    tag_450:\n        /* \"#utility.yul\":16494:16519   */\n      swap2\n      pop\n        /* \"#utility.yul\":16533:16553   */\n      tag_451\n        /* \"#utility.yul\":16551:16552   */\n      dup4\n        /* \"#utility.yul\":16533:16553   */\n      tag_390\n      jump\t// in\n    tag_451:\n        /* \"#utility.yul\":16528:16553   */\n      swap3\n      pop\n        /* \"#utility.yul\":16572:16573   */\n      dup3\n        /* \"#utility.yul\":16562:16597   */\n      tag_452\n      jumpi\n        /* \"#utility.yul\":16577:16595   */\n      tag_453\n      tag_454\n      jump\t// in\n    tag_453:\n        /* \"#utility.yul\":16562:16597   */\n    tag_452:\n        /* \"#utility.yul\":16619:16620   */\n      dup3\n        /* \"#utility.yul\":16616:16617   */\n      dup3\n        /* \"#utility.yul\":16612:16621   */\n      div\n        /* \"#utility.yul\":16607:16621   */\n      swap1\n      pop\n        /* \"#utility.yul\":16442:16627   */\n      swap3\n      swap2\n      pop\n      pop\n      jump\t// out\n        /* \"#utility.yul\":16633:16981   */\n    tag_113:\n        /* \"#utility.yul\":16673:16680   */\n      0x00\n        /* \"#utility.yul\":16696:16716   */\n      tag_456\n        /* \"#utility.yul\":16714:16715   */\n      dup3\n        /* \"#utility.yul\":16696:16716   */\n      tag_390\n      jump\t// in\n    tag_456:\n        /* \"#utility.yul\":16691:16716   */\n      swap2\n      pop\n        /* \"#utility.yul\":16730:16750   */\n      tag_457\n        /* \"#utility.yul\":16748:16749   */\n      dup4\n        /* \"#utility.yul\":16730:16750   */\n      tag_390\n      jump\t// in\n    tag_457:\n        /* \"#utility.yul\":16725:16750   */\n      swap3\n      pop\n        /* \"#utility.yul\":16918:16919   */\n      dup2\n        /* \"#utility.yul\":16850:16916   */\n      0xffffffffffffffffffffffffffffffffffffffffffffffffffffffffffffffff\n        /* \"#utility.yul\":16846:16920   */\n      div\n        /* \"#utility.yul\":16843:16844   */\n      dup4\n        /* \"#utility.yul\":16840:16921   */\n      gt\n        /* \"#utility.yul\":16835:16836   */\n      dup3\n        /* \"#utility.yul\":16828:16837   */\n      iszero\n        /* \"#utility.yul\":16821:16838   */\n      iszero\n        /* \"#utility.yul\":16817:16922   */\n      and\n        /* \"#utility.yul\":16814:16945   */\n      iszero\n      tag_458\n      jumpi\n        /* \"#utility.yul\":16925:16943   */\n      tag_459\n      tag_448\n      jump\t// in\n    tag_459:\n        /* \"#utility.yul\":16814:16945   */\n    tag_458:\n        /* \"#utility.yul\":16973:16974   */\n      dup3\n        /* \"#utility.yul\":16970:16971   */\n      dup3\n        /* \"#utility.yul\":16966:16975   */\n      mul\n        /* \"#utility.yul\":16955:16975   */\n      swap1\n      pop\n        /* \"#utility.yul\":16633:16981   */\n      swap3\n      swap2\n      pop\n      pop\n      jump\t// out\n        /* \"#utility.yul\":16987:17178   */\n    tag_156:\n        /* \"#utility.yul\":17027:17031   */\n      0x00\n        /* \"#utility.yul\":17047:17067   */\n      tag_461\n        /* \"#utility.yul\":17065:17066   */\n      dup3\n        /* \"#utility.yul\":17047:17067   */\n      tag_390\n      jump\t// in\n    tag_461:\n        /* \"#utility.yul\":17042:17067   */\n      swap2\n      pop\n        /* \"#utility.yul\":17081:17101   */\n      tag_462\n        /* \"#utility.yul\":17099:17100   */\n      dup4\n        /* \"#utility.yul\":17081:17101   */\n      tag_390\n      jump\t// in\n    tag_462:\n        /* \"#utility.yul\":17076:17101   */\n      swap3\n      pop\n        /* \"#utility.yul\":17120:17121   */\n      dup3\n        /* \"#utility.yul\":17117:17118   */\n      dup3\n        /* \"#utility.yul\":17114:17122   */\n      lt\n        /* \"#utility.yul\":17111:17145   */\n      iszero\n      tag_463\n      jumpi\n        /* \"#utility.yul\":17125:17143   */\n      tag_464\n      tag_448\n      jump\t// in\n    tag_464:\n        /* \"#utility.yul\":17111:17145   */\n    tag_463:\n        /* \"#utility.yul\":17170:17171   */\n      dup3\n        /* \"#utility.yul\":17167:17168   */\n      dup3\n        /* \"#utility.yul\":17163:17172   */\n      sub\n        /* \"#utility.yul\":17155:17172   */\n      swap1\n      pop\n        /* \"#utility.yul\":16987:17178   */\n      swap3\n      swap2\n      pop\n      pop\n      jump\t// out\n        /* \"#utility.yul\":17184:17280   */\n    tag_312:\n        /* \"#utility.yul\":17221:17228   */\n      0x00\n        /* \"#utility.yul\":17250:17274   */\n      tag_466\n        /* \"#utility.yul\":17268:17273   */\n      dup3\n        /* \"#utility.yul\":17250:17274   */\n      tag_467\n      jump\t// in\n    tag_466:\n        /* \"#utility.yul\":17239:17274   */\n      swap1\n      pop\n        /* \"#utility.yul\":17184:17280   */\n      swap2\n      swap1\n      pop\n      jump\t// out\n        /* \"#utility.yul\":17286:17376   */\n    tag_361:\n        /* \"#utility.yul\":17320:17327   */\n      0x00\n        /* \"#utility.yul\":17363:17368   */\n      dup2\n        /* \"#utility.yul\":17356:17369   */\n      iszero\n        /* \"#utility.yul\":17349:17370   */\n      iszero\n        /* \"#utility.yul\":17338:17370   */\n      swap1\n      pop\n        /* \"#utility.yul\":17286:17376   */\n      swap2\n      swap1\n      pop\n      jump\t// out\n        /* \"#utility.yul\":17382:17508   */\n    tag_467:\n        /* \"#utility.yul\":17419:17426   */\n      0x00\n        /* \"#utility.yul\":17459:17501   */\n      0xffffffffffffffffffffffffffffffffffffffff\n        /* \"#utility.yul\":17452:17457   */\n      dup3\n        /* \"#utility.yul\":17448:17502   */\n      and\n        /* \"#utility.yul\":17437:17502   */\n      swap1\n      pop\n        /* \"#utility.yul\":17382:17508   */\n      swap2\n      swap1\n      pop\n      jump\t// out\n        /* \"#utility.yul\":17514:17591   */\n    tag_390:\n        /* \"#utility.yul\":17551:17558   */\n      0x00\n        /* \"#utility.yul\":17580:17585   */\n      dup2\n        /* \"#utility.yul\":17569:17585   */\n      swap1\n      pop\n        /* \"#utility.yul\":17514:17591   */\n      swap2\n      swap1\n      pop\n      jump\t// out\n        /* \"#utility.yul\":17597:17830   */\n    tag_107:\n        /* \"#utility.yul\":17636:17639   */\n      0x00\n        /* \"#utility.yul\":17659:17683   */\n      tag_472\n        /* \"#utility.yul\":17677:17682   */\n      dup3\n        /* \"#utility.yul\":17659:17683   */\n      tag_390\n      jump\t// in\n    tag_472:\n        /* \"#utility.yul\":17650:17683   */\n      swap2\n      pop\n        /* \"#utility.yul\":17705:17771   */\n      0xffffffffffffffffffffffffffffffffffffffffffffffffffffffffffffffff\n        /* \"#utility.yul\":17698:17703   */\n      dup3\n        /* \"#utility.yul\":17695:17772   */\n      eq\n        /* \"#utility.yul\":17692:17795   */\n      iszero\n      tag_473\n      jumpi\n        /* \"#utility.yul\":17775:17793   */\n      tag_474\n      tag_448\n      jump\t// in\n    tag_474:\n        /* \"#utility.yul\":17692:17795   */\n    tag_473:\n        /* \"#utility.yul\":17822:17823   */\n      0x01\n        /* \"#utility.yul\":17815:17820   */\n      dup3\n        /* \"#utility.yul\":17811:17824   */\n      add\n        /* \"#utility.yul\":17804:17824   */\n      swap1\n      pop\n        /* \"#utility.yul\":17597:17830   */\n      swap2\n      swap1\n      pop\n      jump\t// out\n        /* \"#utility.yul\":17836:18016   */\n    tag_448:\n        /* \"#utility.yul\":17884:17961   */\n      0x4e487b7100000000000000000000000000000000000000000000000000000000\n        /* \"#utility.yul\":17881:17882   */\n      0x00\n        /* \"#utility.yul\":17874:17962   */\n      mstore\n        /* \"#utility.yul\":17981:17985   */\n      0x11\n        /* \"#utility.yul\":17978:17979   */\n      0x04\n        /* \"#utility.yul\":17971:17986   */\n      mstore\n        /* \"#utility.yul\":18005:18009   */\n      0x24\n        /* \"#utility.yul\":18002:18003   */\n      0x00\n        /* \"#utility.yul\":17995:18010   */\n      revert\n        /* \"#utility.yul\":18022:18202   */\n    tag_454:\n        /* \"#utility.yul\":18070:18147   */\n      0x4e487b7100000000000000000000000000000000000000000000000000000000\n        /* \"#utility.yul\":18067:18068   */\n      0x00\n        /* \"#utility.yul\":18060:18148   */\n      mstore\n        /* \"#utility.yul\":18167:18171   */\n      0x12\n        /* \"#utility.yul\":18164:18165   */\n      0x04\n        /* \"#utility.yul\":18157:18172   */\n      mstore\n        /* \"#utility.yul\":18191:18195   */\n      0x24\n        /* \"#utility.yul\":18188:18189   */\n      0x00\n        /* \"#utility.yul\":18181:18196   */\n      revert\n        /* \"#utility.yul\":18208:18388   */\n    tag_148:\n        /* \"#utility.yul\":18256:18333   */\n      0x4e487b7100000000000000000000000000000000000000000000000000000000\n        /* \"#utility.yul\":18253:18254   */\n      0x00\n        /* \"#utility.yul\":18246:18334   */\n      mstore\n        /* \"#utility.yul\":18353:18357   */\n      0x32\n        /* \"#utility.yul\":18350:18351   */\n      0x04\n        /* \"#utility.yul\":18343:18358   */\n      mstore\n        /* \"#utility.yul\":18377:18381   */\n      0x24\n        /* \"#utility.yul\":18374:18375   */\n      0x00\n        /* \"#utility.yul\":18367:18382   */\n      revert\n        /* \"#utility.yul\":18394:18574   */\n    tag_137:\n        /* \"#utility.yul\":18442:18519   */\n      0x4e487b7100000000000000000000000000000000000000000000000000000000\n        /* \"#utility.yul\":18439:18440   */\n      0x00\n        /* \"#utility.yul\":18432:18520   */\n      mstore\n        /* \"#utility.yul\":18539:18543   */\n      0x41\n        /* \"#utility.yul\":18536:18537   */\n      0x04\n        /* \"#utility.yul\":18529:18544   */\n      mstore\n        /* \"#utility.yul\":18563:18567   */\n      0x24\n        /* \"#utility.yul\":18560:18561   */\n      0x00\n        /* \"#utility.yul\":18553:18568   */\n      revert\n        /* \"#utility.yul\":18703:18820   */\n    tag_277:\n        /* \"#utility.yul\":18812:18813   */\n      0x00\n        /* \"#utility.yul\":18809:18810   */\n      dup1\n        /* \"#utility.yul\":18802:18814   */\n      revert\n        /* \"#utility.yul\":18826:19050   */\n    tag_367:\n        /* \"#utility.yul\":18966:19000   */\n      0x796f7520646f6e74206861766520696e766573746d656e7420746f2077697468\n        /* \"#utility.yul\":18962:18963   */\n      0x00\n        /* \"#utility.yul\":18954:18960   */\n      dup3\n        /* \"#utility.yul\":18950:18964   */\n      add\n        /* \"#utility.yul\":18943:19001   */\n      mstore\n        /* \"#utility.yul\":19035:19042   */\n      0x647261776e000000000000000000000000000000000000000000000000000000\n        /* \"#utility.yul\":19030:19032   */\n      0x20\n        /* \"#utility.yul\":19022:19028   */\n      dup3\n        /* \"#utility.yul\":19018:19033   */\n      add\n        /* \"#utility.yul\":19011:19043   */\n      mstore\n        /* \"#utility.yul\":18826:19050   */\n      pop\n      jump\t// out\n        /* \"#utility.yul\":19056:19277   */\n    tag_372:\n        /* \"#utility.yul\":19196:19230   */\n      0x796f7520646f6e742068617665207265776172647320746f2077697468647261\n        /* \"#utility.yul\":19192:19193   */\n      0x00\n        /* \"#utility.yul\":19184:19190   */\n      dup3\n        /* \"#utility.yul\":19180:19194   */\n      add\n        /* \"#utility.yul\":19173:19231   */\n      mstore\n        /* \"#utility.yul\":19265:19269   */\n      0x776e000000000000000000000000000000000000000000000000000000000000\n        /* \"#utility.yul\":19260:19262   */\n      0x20\n        /* \"#utility.yul\":19252:19258   */\n      dup3\n        /* \"#utility.yul\":19248:19263   */\n      add\n        /* \"#utility.yul\":19241:19270   */\n      mstore\n        /* \"#utility.yul\":19056:19277   */\n      pop\n      jump\t// out\n        /* \"#utility.yul\":19283:19503   */\n    tag_377:\n        /* \"#utility.yul\":19423:19457   */\n      0x6f6e6c79204f776e65722063616e2063616c6c20746869732066756e6374696f\n        /* \"#utility.yul\":19419:19420   */\n      0x00\n        /* \"#utility.yul\":19411:19417   */\n      dup3\n        /* \"#utility.yul\":19407:19421   */\n      add\n        /* \"#utility.yul\":19400:19458   */\n      mstore\n        /* \"#utility.yul\":19492:19495   */\n      0x6e00000000000000000000000000000000000000000000000000000000000000\n        /* \"#utility.yul\":19487:19489   */\n      0x20\n        /* \"#utility.yul\":19479:19485   */\n      dup3\n        /* \"#utility.yul\":19475:19490   */\n      add\n        /* \"#utility.yul\":19468:19496   */\n      mstore\n        /* \"#utility.yul\":19283:19503   */\n      pop\n      jump\t// out\n        /* \"#utility.yul\":19509:19690   */\n    tag_382:\n        /* \"#utility.yul\":19649:19682   */\n      0x76616c7565206973206e6f742067726561746572207468616e20313030303000\n        /* \"#utility.yul\":19645:19646   */\n      0x00\n        /* \"#utility.yul\":19637:19643   */\n      dup3\n        /* \"#utility.yul\":19633:19647   */\n      add\n        /* \"#utility.yul\":19626:19683   */\n      mstore\n        /* \"#utility.yul\":19509:19690   */\n      pop\n      jump\t// out\n        /* \"#utility.yul\":19696:19818   */\n    tag_265:\n        /* \"#utility.yul\":19769:19793   */\n      tag_487\n        /* \"#utility.yul\":19787:19792   */\n      dup2\n        /* \"#utility.yul\":19769:19793   */\n      tag_312\n      jump\t// in\n    tag_487:\n        /* \"#utility.yul\":19762:19767   */\n      dup2\n        /* \"#utility.yul\":19759:19794   */\n      eq\n        /* \"#utility.yul\":19749:19812   */\n      tag_488\n      jumpi\n        /* \"#utility.yul\":19808:19809   */\n      0x00\n        /* \"#utility.yul\":19805:19806   */\n      dup1\n        /* \"#utility.yul\":19798:19810   */\n      revert\n        /* \"#utility.yul\":19749:19812   */\n    tag_488:\n        /* \"#utility.yul\":19696:19818   */\n      pop\n      jump\t// out\n        /* \"#utility.yul\":19824:19940   */\n    tag_269:\n        /* \"#utility.yul\":19894:19915   */\n      tag_490\n        /* \"#utility.yul\":19909:19914   */\n      dup2\n        /* \"#utility.yul\":19894:19915   */\n      tag_361\n      jump\t// in\n    tag_490:\n        /* \"#utility.yul\":19887:19892   */\n      dup2\n        /* \"#utility.yul\":19884:19916   */\n      eq\n        /* \"#utility.yul\":19874:19934   */\n      tag_491\n      jumpi\n        /* \"#utility.yul\":19930:19931   */\n      0x00\n        /* \"#utility.yul\":19927:19928   */\n      dup1\n        /* \"#utility.yul\":19920:19932   */\n      revert\n        /* \"#utility.yul\":19874:19934   */\n    tag_491:\n        /* \"#utility.yul\":19824:19940   */\n      pop\n      jump\t// out\n        /* \"#utility.yul\":19946:20068   */\n    tag_273:\n        /* \"#utility.yul\":20019:20043   */\n      tag_493\n        /* \"#utility.yul\":20037:20042   */\n      dup2\n        /* \"#utility.yul\":20019:20043   */\n      tag_390\n      jump\t// in\n    tag_493:\n        /* \"#utility.yul\":20012:20017   */\n      dup2\n        /* \"#utility.yul\":20009:20044   */\n      eq\n        /* \"#utility.yul\":19999:20062   */\n      tag_494\n      jumpi\n        /* \"#utility.yul\":20058:20059   */\n      0x00\n        /* \"#utility.yul\":20055:20056   */\n      dup1\n        /* \"#utility.yul\":20048:20060   */\n      revert\n        /* \"#utility.yul\":19999:20062   */\n    tag_494:\n        /* \"#utility.yul\":19946:20068   */\n      pop\n      jump\t// out\n\n    auxdata: 0xa26469706673582212202da66932b8f042a0a465a827d8fed5e67c7b33d13ea86a2726a03d19ca2cc6c064736f6c63430008070033\n}\n",
				"bytecode": {
					"linkReferences": {},
					"object": "608060405273afef03ff25959f08e5c5b17c83ad96f7be3b40d9600160006101000a81548173ffffffffffffffffffffffffffffffffffffffff021916908373ffffffffffffffffffffffffffffffffffffffff16021790555073b5047153afcc59523f7f6d6f492f716a21b04681600260006101000a81548173ffffffffffffffffffffffffffffffffffffffff021916908373ffffffffffffffffffffffffffffffffffffffff1602179055506706f05b59d3b200006004556127106005556a0422ca8b0a00a42500000060065563018b82006007553480156100e357600080fd5b50336000806101000a81548173ffffffffffffffffffffffffffffffffffffffff021916908373ffffffffffffffffffffffffffffffffffffffff16021790555061271a806101336000396000f3fe608060405234801561001057600080fd5b50600436106101215760003560e01c80635d3eea91116100ad578063ce10db0a11610071578063ce10db0a146102e8578063d3560ee814610304578063f2fde38b14610339578063f790b81a14610355578063f7c618c11461037357610121565b80635d3eea91146102405780638da5cb5b14610270578063929f6bbe1461028e578063a61be99d146102ac578063c885bc58146102ca57610121565b80632bccdce6116100f45780632bccdce61461019c57806332d4e783146101cc5780633a1e0833146101e85780633d18b91214610206578063500cb85f1461022457610121565b80630c5f58f41461012657806310cde60a146101445780631e8aba3514610162578063293be45614610180575b600080fd5b61012e610391565b60405161013b919061214a565b60405180910390f35b61014c61045f565b604051610159919061224b565b60405180910390f35b61016a610465565b604051610177919061224b565b60405180910390f35b61019a60048036038101906101959190611d20565b6104b2565b005b6101b660048036038101906101b19190611d4d565b6104bc565b6040516101c391906121b0565b60405180910390f35b6101e660048036038101906101e19190611d20565b610b35565b005b6101f0610b3f565b6040516101fd919061216c565b60405180910390f35b61020e610dab565b60405161021b919061224b565b60405180910390f35b61023e60048036038101906102399190611d20565b610efb565b005b61025a60048036038101906102559190611d20565b610f05565b60405161026791906121b0565b60405180910390f35b6102786112a7565b604051610285919061206e565b60405180910390f35b6102966112cb565b6040516102a3919061224b565b60405180910390f35b6102b4611315565b6040516102c1919061218e565b60405180910390f35b6102d2611488565b6040516102df91906121b0565b60405180910390f35b61030260048036038101906102fd9190611d8d565b6115d7565b005b61031e60048036038101906103199190611cc6565b6115f1565b604051610330969594939291906120e9565b60405180910390f35b610353600480360381019061034e9190611cc6565b61165a565b005b61035d61172b565b60405161036a919061218e565b60405180910390f35b61037b61189e565b604051610388919061224b565b60405180910390f35b6060600860003373ffffffffffffffffffffffffffffffffffffffff1673ffffffffffffffffffffffffffffffffffffffff16815260200190815260200160002060010180548060200260200160405190810160405280929190818152602001828054801561045557602002820191906000526020600020905b8160009054906101000a900473ffffffffffffffffffffffffffffffffffffffff1673ffffffffffffffffffffffffffffffffffffffff168152602001906001019080831161040b575b5050505050905090565b60035481565b6000600860003373ffffffffffffffffffffffffffffffffffffffff1673ffffffffffffffffffffffffffffffffffffffff16815260200190815260200160002060010180549050905090565b8060048190555050565b6000600554831015610503576040517f08c379a00000000000000000000000000000000000000000000000000000000081526004016104fa9061222b565b60405180910390fd5b60001515600860003373ffffffffffffffffffffffffffffffffffffffff1673ffffffffffffffffffffffffffffffffffffffff16815260200190815260200160002060080160009054906101000a900460ff161515141561057857600360008154809291906105729061247f565b91905055505b6000600860003373ffffffffffffffffffffffffffffffffffffffff1673ffffffffffffffffffffffffffffffffffffffff16815260200190815260200160002060050154905083600860003373ffffffffffffffffffffffffffffffffffffffff1673ffffffffffffffffffffffffffffffffffffffff16815260200190815260200160002060000160008381526020019081526020016000206000018190555042600860003373ffffffffffffffffffffffffffffffffffffffff1673ffffffffffffffffffffffffffffffffffffffff168152602001908152602001600020600001600083815260200190815260200160002060020181905550600754426106839190612322565b600860003373ffffffffffffffffffffffffffffffffffffffff1673ffffffffffffffffffffffffffffffffffffffff16815260200190815260200160002060000160008381526020019081526020016000206001018190555080600860003373ffffffffffffffffffffffffffffffffffffffff1673ffffffffffffffffffffffffffffffffffffffff16815260200190815260200160002060000160008381526020019081526020016000206003018190555083600860003373ffffffffffffffffffffffffffffffffffffffff1673ffffffffffffffffffffffffffffffffffffffff168152602001908152602001600020600601600082825461078a9190612322565b925050819055506001600860003373ffffffffffffffffffffffffffffffffffffffff1673ffffffffffffffffffffffffffffffffffffffff16815260200190815260200160002060080160006101000a81548160ff021916908315150217905550600860003373ffffffffffffffffffffffffffffffffffffffff1673ffffffffffffffffffffffffffffffffffffffff168152602001908152602001600020600501600081548092919061083f9061247f565b9190505550600160009054906101000a900473ffffffffffffffffffffffffffffffffffffffff1673ffffffffffffffffffffffffffffffffffffffff166323b872dd3330670de0b6b3a76400008861089891906123a9565b6040518463ffffffff1660e01b81526004016108b693929190612089565b602060405180830381600087803b1580156108d057600080fd5b505af11580156108e4573d6000803e3d6000fd5b505050506040513d601f19601f820116820180604052508101906109089190611cf3565b50600073ffffffffffffffffffffffffffffffffffffffff168373ffffffffffffffffffffffffffffffffffffffff16148061096f57503373ffffffffffffffffffffffffffffffffffffffff168373ffffffffffffffffffffffffffffffffffffffff16145b156109fb576000600860003373ffffffffffffffffffffffffffffffffffffffff1673ffffffffffffffffffffffffffffffffffffffff16815260200190815260200160002060020160006101000a81548173ffffffffffffffffffffffffffffffffffffffff021916908373ffffffffffffffffffffffffffffffffffffffff160217905550610b2a565b82600860003373ffffffffffffffffffffffffffffffffffffffff1673ffffffffffffffffffffffffffffffffffffffff16815260200190815260200160002060020160006101000a81548173ffffffffffffffffffffffffffffffffffffffff021916908373ffffffffffffffffffffffffffffffffffffffff160217905550600860008473ffffffffffffffffffffffffffffffffffffffff1673ffffffffffffffffffffffffffffffffffffffff168152602001908152602001600020600101339080600181540180825580915050600190039060005260206000200160009091909190916101000a81548173ffffffffffffffffffffffffffffffffffffffff021916908373ffffffffffffffffffffffffffffffffffffffff160217905550610b2933856118a4565b5b600191505092915050565b8060058190555050565b60606000600860003373ffffffffffffffffffffffffffffffffffffffff1673ffffffffffffffffffffffffffffffffffffffff16815260200190815260200160002060050154905060008060005b83811015610c17576000600860003373ffffffffffffffffffffffffffffffffffffffff1673ffffffffffffffffffffffffffffffffffffffff1681526020019081526020016000206000016000838152602001908152602001600020600001541115610c04578280610c009061247f565b9350505b8080610c0f9061247f565b915050610b8e565b5060008267ffffffffffffffff811115610c3457610c33612555565b5b604051908082528060200260200182016040528015610c6d57816020015b610c5a611c5f565b815260200190600190039081610c525790505b50905060005b84811015610da0576000600860003373ffffffffffffffffffffffffffffffffffffffff1673ffffffffffffffffffffffffffffffffffffffff1681526020019081526020016000206000016000838152602001908152602001600020600001541115610d8d57600860003373ffffffffffffffffffffffffffffffffffffffff1673ffffffffffffffffffffffffffffffffffffffff1681526020019081526020016000206000016000828152602001908152602001600020604051806080016040529081600082015481526020016001820154815260200160028201548152602001600382015481525050828481518110610d7357610d72612526565b5b60200260200101819052508280610d899061247f565b9350505b8080610d989061247f565b915050610c73565b508094505050505090565b600080600080600860003373ffffffffffffffffffffffffffffffffffffffff1673ffffffffffffffffffffffffffffffffffffffff16815260200190815260200160002060050154905060005b81811015610ef157600860003373ffffffffffffffffffffffffffffffffffffffff1673ffffffffffffffffffffffffffffffffffffffff16815260200190815260200160002060000160008281526020019081526020016000206002015442610e639190612403565b9250603c83610e729190612378565b92506000831115610e8e5760045483610e8b91906123a9565b93505b600860003373ffffffffffffffffffffffffffffffffffffffff1673ffffffffffffffffffffffffffffffffffffffff1681526020019081526020016000206007015484610edc9190612403565b93508080610ee99061247f565b915050610df9565b5082935050505090565b8060068190555050565b600080600860003373ffffffffffffffffffffffffffffffffffffffff1673ffffffffffffffffffffffffffffffffffffffff16815260200190815260200160002060000160008481526020019081526020016000206000015411610f9f576040517f08c379a0000000000000000000000000000000000000000000000000000000008152600401610f96906121cb565b60405180910390fd5b6000600860003373ffffffffffffffffffffffffffffffffffffffff1673ffffffffffffffffffffffffffffffffffffffff168152602001908152602001600020600001600084815260200190815260200160002060000154905042600860003373ffffffffffffffffffffffffffffffffffffffff1673ffffffffffffffffffffffffffffffffffffffff1681526020019081526020016000206000016000858152602001908152602001600020600101541115611068576002816110659190612378565b90505b600160009054906101000a900473ffffffffffffffffffffffffffffffffffffffff1673ffffffffffffffffffffffffffffffffffffffff1663a9059cbb33836040518363ffffffff1660e01b81526004016110c59291906120c0565b602060405180830381600087803b1580156110df57600080fd5b505af11580156110f3573d6000803e3d6000fd5b505050506040513d601f19601f820116820180604052508101906111179190611cf3565b50600160009054906101000a900473ffffffffffffffffffffffffffffffffffffffff1673ffffffffffffffffffffffffffffffffffffffff1663a9059cbb60008054906101000a900473ffffffffffffffffffffffffffffffffffffffff16836040518363ffffffff1660e01b81526004016111959291906120c0565b602060405180830381600087803b1580156111af57600080fd5b505af11580156111c3573d6000803e3d6000fd5b505050506040513d601f19601f820116820180604052508101906111e79190611cf3565b506000600860003373ffffffffffffffffffffffffffffffffffffffff1673ffffffffffffffffffffffffffffffffffffffff16815260200190815260200160002060000160008581526020019081526020016000206000018190555080600860003373ffffffffffffffffffffffffffffffffffffffff1673ffffffffffffffffffffffffffffffffffffffff16815260200190815260200160002060060160008282546112969190612403565b925050819055506001915050919050565b60008054906101000a900473ffffffffffffffffffffffffffffffffffffffff1681565b6000600860003373ffffffffffffffffffffffffffffffffffffffff1673ffffffffffffffffffffffffffffffffffffffff16815260200190815260200160002060060154905090565b60606000601467ffffffffffffffff81111561133457611333612555565b5b6040519080825280602002602001820160405280156113625781602001602082028036833780820191505090505b50905060005b6014811015611480576000600860003373ffffffffffffffffffffffffffffffffffffffff1673ffffffffffffffffffffffffffffffffffffffff168152602001908152602001600020600301600083815260200190815260200160002060000154111561144b57600860003373ffffffffffffffffffffffffffffffffffffffff1673ffffffffffffffffffffffffffffffffffffffff16815260200190815260200160002060030160008281526020019081526020016000206000015482828151811061143a57611439612526565b5b60200260200101818152505061146d565b60008282815181106114605761145f612526565b5b6020026020010181815250505b80806114789061247f565b915050611368565b508091505090565b600080611493610dab565b9050600081116114d8576040517f08c379a00000000000000000000000000000000000000000000000000000000081526004016114cf906121eb565b60405180910390fd5b600160009054906101000a900473ffffffffffffffffffffffffffffffffffffffff1673ffffffffffffffffffffffffffffffffffffffff1663a9059cbb33836040518363ffffffff1660e01b81526004016115359291906120c0565b602060405180830381600087803b15801561154f57600080fd5b505af1158015611563573d6000803e3d6000fd5b505050506040513d601f19601f820116820180604052508101906115879190611cf3565b5080600860003373ffffffffffffffffffffffffffffffffffffffff1673ffffffffffffffffffffffffffffffffffffffff16815260200190815260200160002060070181905550600191505090565b816006819055508260058190555080600481905550505050565b60086020528060005260406000206000915090508060020160009054906101000a900473ffffffffffffffffffffffffffffffffffffffff16908060040154908060050154908060060154908060070154908060080160009054906101000a900460ff16905086565b60008054906101000a900473ffffffffffffffffffffffffffffffffffffffff1673ffffffffffffffffffffffffffffffffffffffff163373ffffffffffffffffffffffffffffffffffffffff16146116e8576040517f08c379a00000000000000000000000000000000000000000000000000000000081526004016116df9061220b565b60405180910390fd5b806000806101000a81548173ffffffffffffffffffffffffffffffffffffffff021916908373ffffffffffffffffffffffffffffffffffffffff16021790555050565b60606000601467ffffffffffffffff81111561174a57611749612555565b5b6040519080825280602002602001820160405280156117785781602001602082028036833780820191505090505b50905060005b6014811015611896576000600860003373ffffffffffffffffffffffffffffffffffffffff1673ffffffffffffffffffffffffffffffffffffffff168152602001908152602001600020600301600083815260200190815260200160002060000154111561186157600860003373ffffffffffffffffffffffffffffffffffffffff1673ffffffffffffffffffffffffffffffffffffffff1681526020019081526020016000206003016000828152602001908152602001600020600101548282815181106118505761184f612526565b5b602002602001018181525050611883565b600082828151811061187657611875612526565b5b6020026020010181815250505b808061188e9061247f565b91505061177e565b508091505090565b60045481565b60008290506000600567ffffffffffffffff8111156118c6576118c5612555565b5b6040519080825280602002602001820160405280156118f45781602001602082028036833780820191505090505b509050674563918244f400008160008151811061191457611913612526565b5b6020026020010181815250506729a2241af62c00008160018151811061193d5761193c612526565b5b602002602001018181525050671bc16d674ec800008160028151811061196657611965612526565b5b602002602001018181525050670de0b6b3a76400008160038151811061198f5761198e612526565b5b6020026020010181815250506706f05b59d3b20000816004815181106119b8576119b7612526565b5b602002602001018181525050600080600090505b600a811015611c575760008114156119e75760009150611a2f565b60018114156119f95760019150611a2e565b6002811415611a0b5760029150611a2d565b6002811115611a1d5760039150611a2c565b6007811115611a2b57600491505b5b5b5b5b600073ffffffffffffffffffffffffffffffffffffffff16600860008673ffffffffffffffffffffffffffffffffffffffff1673ffffffffffffffffffffffffffffffffffffffff16815260200190815260200160002060020160009054906101000a900473ffffffffffffffffffffffffffffffffffffffff1673ffffffffffffffffffffffffffffffffffffffff1614611c3f57600860008573ffffffffffffffffffffffffffffffffffffffff1673ffffffffffffffffffffffffffffffffffffffff16815260200190815260200160002060020160009054906101000a900473ffffffffffffffffffffffffffffffffffffffff1693506000606486858581518110611b4257611b41612526565b5b6020026020010151611b5491906123a9565b611b5e9190612378565b905080600860008773ffffffffffffffffffffffffffffffffffffffff1673ffffffffffffffffffffffffffffffffffffffff16815260200190815260200160002060030160008481526020019081526020016000206000016000828254611bc69190612322565b92505081905550600860008673ffffffffffffffffffffffffffffffffffffffff1673ffffffffffffffffffffffffffffffffffffffff16815260200190815260200160002060030160008381526020019081526020016000206001016000815480929190611c349061247f565b919050555050611c44565b611c57565b8080611c4f9061247f565b9150506119cc565b505050505050565b6040518060800160405280600081526020016000815260200160008152602001600081525090565b600081359050611c968161269f565b92915050565b600081519050611cab816126b6565b92915050565b600081359050611cc0816126cd565b92915050565b600060208284031215611cdc57611cdb612584565b5b6000611cea84828501611c87565b91505092915050565b600060208284031215611d0957611d08612584565b5b6000611d1784828501611c9c565b91505092915050565b600060208284031215611d3657611d35612584565b5b6000611d4484828501611cb1565b91505092915050565b60008060408385031215611d6457611d63612584565b5b6000611d7285828601611cb1565b9250506020611d8385828601611c87565b9150509250929050565b600080600060608486031215611da657611da5612584565b5b6000611db486828701611cb1565b9350506020611dc586828701611cb1565b9250506040611dd686828701611cb1565b9150509250925092565b6000611dec8383611e28565b60208301905092915050565b6000611e048383611ffb565b60808301905092915050565b6000611e1c8383612050565b60208301905092915050565b611e3181612437565b82525050565b611e4081612437565b82525050565b6000611e5182612296565b611e5b81856122de565b9350611e6683612266565b8060005b83811015611e97578151611e7e8882611de0565b9750611e89836122b7565b925050600181019050611e6a565b5085935050505092915050565b6000611eaf826122a1565b611eb981856122ef565b9350611ec483612276565b8060005b83811015611ef5578151611edc8882611df8565b9750611ee7836122c4565b925050600181019050611ec8565b5085935050505092915050565b6000611f0d826122ac565b611f178185612300565b9350611f2283612286565b8060005b83811015611f53578151611f3a8882611e10565b9750611f45836122d1565b925050600181019050611f26565b5085935050505092915050565b611f6981612449565b82525050565b6000611f7c602583612311565b9150611f8782612589565b604082019050919050565b6000611f9f602283612311565b9150611faa826125d8565b604082019050919050565b6000611fc2602183612311565b9150611fcd82612627565b604082019050919050565b6000611fe5601f83612311565b9150611ff082612676565b602082019050919050565b6080820160008201516120116000850182612050565b5060208201516120246020850182612050565b5060408201516120376040850182612050565b50606082015161204a6060850182612050565b50505050565b61205981612475565b82525050565b61206881612475565b82525050565b60006020820190506120836000830184611e37565b92915050565b600060608201905061209e6000830186611e37565b6120ab6020830185611e37565b6120b8604083018461205f565b949350505050565b60006040820190506120d56000830185611e37565b6120e2602083018461205f565b9392505050565b600060c0820190506120fe6000830189611e37565b61210b602083018861205f565b612118604083018761205f565b612125606083018661205f565b612132608083018561205f565b61213f60a0830184611f60565b979650505050505050565b600060208201905081810360008301526121648184611e46565b905092915050565b600060208201905081810360008301526121868184611ea4565b905092915050565b600060208201905081810360008301526121a88184611f02565b905092915050565b60006020820190506121c56000830184611f60565b92915050565b600060208201905081810360008301526121e481611f6f565b9050919050565b6000602082019050818103600083015261220481611f92565b9050919050565b6000602082019050818103600083015261222481611fb5565b9050919050565b6000602082019050818103600083015261224481611fd8565b9050919050565b6000602082019050612260600083018461205f565b92915050565b6000819050602082019050919050565b6000819050602082019050919050565b6000819050602082019050919050565b600081519050919050565b600081519050919050565b600081519050919050565b6000602082019050919050565b6000602082019050919050565b6000602082019050919050565b600082825260208201905092915050565b600082825260208201905092915050565b600082825260208201905092915050565b600082825260208201905092915050565b600061232d82612475565b915061233883612475565b9250827fffffffffffffffffffffffffffffffffffffffffffffffffffffffffffffffff0382111561236d5761236c6124c8565b5b828201905092915050565b600061238382612475565b915061238e83612475565b92508261239e5761239d6124f7565b5b828204905092915050565b60006123b482612475565b91506123bf83612475565b9250817fffffffffffffffffffffffffffffffffffffffffffffffffffffffffffffffff04831182151516156123f8576123f76124c8565b5b828202905092915050565b600061240e82612475565b915061241983612475565b92508282101561242c5761242b6124c8565b5b828203905092915050565b600061244282612455565b9050919050565b60008115159050919050565b600073ffffffffffffffffffffffffffffffffffffffff82169050919050565b6000819050919050565b600061248a82612475565b91507fffffffffffffffffffffffffffffffffffffffffffffffffffffffffffffffff8214156124bd576124bc6124c8565b5b600182019050919050565b7f4e487b7100000000000000000000000000000000000000000000000000000000600052601160045260246000fd5b7f4e487b7100000000000000000000000000000000000000000000000000000000600052601260045260246000fd5b7f4e487b7100000000000000000000000000000000000000000000000000000000600052603260045260246000fd5b7f4e487b7100000000000000000000000000000000000000000000000000000000600052604160045260246000fd5b600080fd5b7f796f7520646f6e74206861766520696e766573746d656e7420746f207769746860008201527f647261776e000000000000000000000000000000000000000000000000000000602082015250565b7f796f7520646f6e742068617665207265776172647320746f207769746864726160008201527f776e000000000000000000000000000000000000000000000000000000000000602082015250565b7f6f6e6c79204f776e65722063616e2063616c6c20746869732066756e6374696f60008201527f6e00000000000000000000000000000000000000000000000000000000000000602082015250565b7f76616c7565206973206e6f742067726561746572207468616e20313030303000600082015250565b6126a881612437565b81146126b357600080fd5b50565b6126bf81612449565b81146126ca57600080fd5b50565b6126d681612475565b81146126e157600080fd5b5056fea26469706673582212202da66932b8f042a0a465a827d8fed5e67c7b33d13ea86a2726a03d19ca2cc6c064736f6c63430008070033",
					"opcodes": "PUSH1 0x80 PUSH1 0x40 MSTORE PUSH20 0xAFEF03FF25959F08E5C5B17C83AD96F7BE3B40D9 PUSH1 0x1 PUSH1 0x0 PUSH2 0x100 EXP DUP2 SLOAD DUP2 PUSH20 0xFFFFFFFFFFFFFFFFFFFFFFFFFFFFFFFFFFFFFFFF MUL NOT AND SWAP1 DUP4 PUSH20 0xFFFFFFFFFFFFFFFFFFFFFFFFFFFFFFFFFFFFFFFF AND MUL OR SWAP1 SSTORE POP PUSH20 0xB5047153AFCC59523F7F6D6F492F716A21B04681 PUSH1 0x2 PUSH1 0x0 PUSH2 0x100 EXP DUP2 SLOAD DUP2 PUSH20 0xFFFFFFFFFFFFFFFFFFFFFFFFFFFFFFFFFFFFFFFF MUL NOT AND SWAP1 DUP4 PUSH20 0xFFFFFFFFFFFFFFFFFFFFFFFFFFFFFFFFFFFFFFFF AND MUL OR SWAP1 SSTORE POP PUSH8 0x6F05B59D3B20000 PUSH1 0x4 SSTORE PUSH2 0x2710 PUSH1 0x5 SSTORE PUSH11 0x422CA8B0A00A425000000 PUSH1 0x6 SSTORE PUSH4 0x18B8200 PUSH1 0x7 SSTORE CALLVALUE DUP1 ISZERO PUSH2 0xE3 JUMPI PUSH1 0x0 DUP1 REVERT JUMPDEST POP CALLER PUSH1 0x0 DUP1 PUSH2 0x100 EXP DUP2 SLOAD DUP2 PUSH20 0xFFFFFFFFFFFFFFFFFFFFFFFFFFFFFFFFFFFFFFFF MUL NOT AND SWAP1 DUP4 PUSH20 0xFFFFFFFFFFFFFFFFFFFFFFFFFFFFFFFFFFFFFFFF AND MUL OR SWAP1 SSTORE POP PUSH2 0x271A DUP1 PUSH2 0x133 PUSH1 0x0 CODECOPY PUSH1 0x0 RETURN INVALID PUSH1 0x80 PUSH1 0x40 MSTORE CALLVALUE DUP1 ISZERO PUSH2 0x10 JUMPI PUSH1 0x0 DUP1 REVERT JUMPDEST POP PUSH1 0x4 CALLDATASIZE LT PUSH2 0x121 JUMPI PUSH1 0x0 CALLDATALOAD PUSH1 0xE0 SHR DUP1 PUSH4 0x5D3EEA91 GT PUSH2 0xAD JUMPI DUP1 PUSH4 0xCE10DB0A GT PUSH2 0x71 JUMPI DUP1 PUSH4 0xCE10DB0A EQ PUSH2 0x2E8 JUMPI DUP1 PUSH4 0xD3560EE8 EQ PUSH2 0x304 JUMPI DUP1 PUSH4 0xF2FDE38B EQ PUSH2 0x339 JUMPI DUP1 PUSH4 0xF790B81A EQ PUSH2 0x355 JUMPI DUP1 PUSH4 0xF7C618C1 EQ PUSH2 0x373 JUMPI PUSH2 0x121 JUMP JUMPDEST DUP1 PUSH4 0x5D3EEA91 EQ PUSH2 0x240 JUMPI DUP1 PUSH4 0x8DA5CB5B EQ PUSH2 0x270 JUMPI DUP1 PUSH4 0x929F6BBE EQ PUSH2 0x28E JUMPI DUP1 PUSH4 0xA61BE99D EQ PUSH2 0x2AC JUMPI DUP1 PUSH4 0xC885BC58 EQ PUSH2 0x2CA JUMPI PUSH2 0x121 JUMP JUMPDEST DUP1 PUSH4 0x2BCCDCE6 GT PUSH2 0xF4 JUMPI DUP1 PUSH4 0x2BCCDCE6 EQ PUSH2 0x19C JUMPI DUP1 PUSH4 0x32D4E783 EQ PUSH2 0x1CC JUMPI DUP1 PUSH4 0x3A1E0833 EQ PUSH2 0x1E8 JUMPI DUP1 PUSH4 0x3D18B912 EQ PUSH2 0x206 JUMPI DUP1 PUSH4 0x500CB85F EQ PUSH2 0x224 JUMPI PUSH2 0x121 JUMP JUMPDEST DUP1 PUSH4 0xC5F58F4 EQ PUSH2 0x126 JUMPI DUP1 PUSH4 0x10CDE60A EQ PUSH2 0x144 JUMPI DUP1 PUSH4 0x1E8ABA35 EQ PUSH2 0x162 JUMPI DUP1 PUSH4 0x293BE456 EQ PUSH2 0x180 JUMPI JUMPDEST PUSH1 0x0 DUP1 REVERT JUMPDEST PUSH2 0x12E PUSH2 0x391 JUMP JUMPDEST PUSH1 0x40 MLOAD PUSH2 0x13B SWAP2 SWAP1 PUSH2 0x214A JUMP JUMPDEST PUSH1 0x40 MLOAD DUP1 SWAP2 SUB SWAP1 RETURN JUMPDEST PUSH2 0x14C PUSH2 0x45F JUMP JUMPDEST PUSH1 0x40 MLOAD PUSH2 0x159 SWAP2 SWAP1 PUSH2 0x224B JUMP JUMPDEST PUSH1 0x40 MLOAD DUP1 SWAP2 SUB SWAP1 RETURN JUMPDEST PUSH2 0x16A PUSH2 0x465 JUMP JUMPDEST PUSH1 0x40 MLOAD PUSH2 0x177 SWAP2 SWAP1 PUSH2 0x224B JUMP JUMPDEST PUSH1 0x40 MLOAD DUP1 SWAP2 SUB SWAP1 RETURN JUMPDEST PUSH2 0x19A PUSH1 0x4 DUP1 CALLDATASIZE SUB DUP2 ADD SWAP1 PUSH2 0x195 SWAP2 SWAP1 PUSH2 0x1D20 JUMP JUMPDEST PUSH2 0x4B2 JUMP JUMPDEST STOP JUMPDEST PUSH2 0x1B6 PUSH1 0x4 DUP1 CALLDATASIZE SUB DUP2 ADD SWAP1 PUSH2 0x1B1 SWAP2 SWAP1 PUSH2 0x1D4D JUMP JUMPDEST PUSH2 0x4BC JUMP JUMPDEST PUSH1 0x40 MLOAD PUSH2 0x1C3 SWAP2 SWAP1 PUSH2 0x21B0 JUMP JUMPDEST PUSH1 0x40 MLOAD DUP1 SWAP2 SUB SWAP1 RETURN JUMPDEST PUSH2 0x1E6 PUSH1 0x4 DUP1 CALLDATASIZE SUB DUP2 ADD SWAP1 PUSH2 0x1E1 SWAP2 SWAP1 PUSH2 0x1D20 JUMP JUMPDEST PUSH2 0xB35 JUMP JUMPDEST STOP JUMPDEST PUSH2 0x1F0 PUSH2 0xB3F JUMP JUMPDEST PUSH1 0x40 MLOAD PUSH2 0x1FD SWAP2 SWAP1 PUSH2 0x216C JUMP JUMPDEST PUSH1 0x40 MLOAD DUP1 SWAP2 SUB SWAP1 RETURN JUMPDEST PUSH2 0x20E PUSH2 0xDAB JUMP JUMPDEST PUSH1 0x40 MLOAD PUSH2 0x21B SWAP2 SWAP1 PUSH2 0x224B JUMP JUMPDEST PUSH1 0x40 MLOAD DUP1 SWAP2 SUB SWAP1 RETURN JUMPDEST PUSH2 0x23E PUSH1 0x4 DUP1 CALLDATASIZE SUB DUP2 ADD SWAP1 PUSH2 0x239 SWAP2 SWAP1 PUSH2 0x1D20 JUMP JUMPDEST PUSH2 0xEFB JUMP JUMPDEST STOP JUMPDEST PUSH2 0x25A PUSH1 0x4 DUP1 CALLDATASIZE SUB DUP2 ADD SWAP1 PUSH2 0x255 SWAP2 SWAP1 PUSH2 0x1D20 JUMP JUMPDEST PUSH2 0xF05 JUMP JUMPDEST PUSH1 0x40 MLOAD PUSH2 0x267 SWAP2 SWAP1 PUSH2 0x21B0 JUMP JUMPDEST PUSH1 0x40 MLOAD DUP1 SWAP2 SUB SWAP1 RETURN JUMPDEST PUSH2 0x278 PUSH2 0x12A7 JUMP JUMPDEST PUSH1 0x40 MLOAD PUSH2 0x285 SWAP2 SWAP1 PUSH2 0x206E JUMP JUMPDEST PUSH1 0x40 MLOAD DUP1 SWAP2 SUB SWAP1 RETURN JUMPDEST PUSH2 0x296 PUSH2 0x12CB JUMP JUMPDEST PUSH1 0x40 MLOAD PUSH2 0x2A3 SWAP2 SWAP1 PUSH2 0x224B JUMP JUMPDEST PUSH1 0x40 MLOAD DUP1 SWAP2 SUB SWAP1 RETURN JUMPDEST PUSH2 0x2B4 PUSH2 0x1315 JUMP JUMPDEST PUSH1 0x40 MLOAD PUSH2 0x2C1 SWAP2 SWAP1 PUSH2 0x218E JUMP JUMPDEST PUSH1 0x40 MLOAD DUP1 SWAP2 SUB SWAP1 RETURN JUMPDEST PUSH2 0x2D2 PUSH2 0x1488 JUMP JUMPDEST PUSH1 0x40 MLOAD PUSH2 0x2DF SWAP2 SWAP1 PUSH2 0x21B0 JUMP JUMPDEST PUSH1 0x40 MLOAD DUP1 SWAP2 SUB SWAP1 RETURN JUMPDEST PUSH2 0x302 PUSH1 0x4 DUP1 CALLDATASIZE SUB DUP2 ADD SWAP1 PUSH2 0x2FD SWAP2 SWAP1 PUSH2 0x1D8D JUMP JUMPDEST PUSH2 0x15D7 JUMP JUMPDEST STOP JUMPDEST PUSH2 0x31E PUSH1 0x4 DUP1 CALLDATASIZE SUB DUP2 ADD SWAP1 PUSH2 0x319 SWAP2 SWAP1 PUSH2 0x1CC6 JUMP JUMPDEST PUSH2 0x15F1 JUMP JUMPDEST PUSH1 0x40 MLOAD PUSH2 0x330 SWAP7 SWAP6 SWAP5 SWAP4 SWAP3 SWAP2 SWAP1 PUSH2 0x20E9 JUMP JUMPDEST PUSH1 0x40 MLOAD DUP1 SWAP2 SUB SWAP1 RETURN JUMPDEST PUSH2 0x353 PUSH1 0x4 DUP1 CALLDATASIZE SUB DUP2 ADD SWAP1 PUSH2 0x34E SWAP2 SWAP1 PUSH2 0x1CC6 JUMP JUMPDEST PUSH2 0x165A JUMP JUMPDEST STOP JUMPDEST PUSH2 0x35D PUSH2 0x172B JUMP JUMPDEST PUSH1 0x40 MLOAD PUSH2 0x36A SWAP2 SWAP1 PUSH2 0x218E JUMP JUMPDEST PUSH1 0x40 MLOAD DUP1 SWAP2 SUB SWAP1 RETURN JUMPDEST PUSH2 0x37B PUSH2 0x189E JUMP JUMPDEST PUSH1 0x40 MLOAD PUSH2 0x388 SWAP2 SWAP1 PUSH2 0x224B JUMP JUMPDEST PUSH1 0x40 MLOAD DUP1 SWAP2 SUB SWAP1 RETURN JUMPDEST PUSH1 0x60 PUSH1 0x8 PUSH1 0x0 CALLER PUSH20 0xFFFFFFFFFFFFFFFFFFFFFFFFFFFFFFFFFFFFFFFF AND PUSH20 0xFFFFFFFFFFFFFFFFFFFFFFFFFFFFFFFFFFFFFFFF AND DUP2 MSTORE PUSH1 0x20 ADD SWAP1 DUP2 MSTORE PUSH1 0x20 ADD PUSH1 0x0 KECCAK256 PUSH1 0x1 ADD DUP1 SLOAD DUP1 PUSH1 0x20 MUL PUSH1 0x20 ADD PUSH1 0x40 MLOAD SWAP1 DUP2 ADD PUSH1 0x40 MSTORE DUP1 SWAP3 SWAP2 SWAP1 DUP2 DUP2 MSTORE PUSH1 0x20 ADD DUP3 DUP1 SLOAD DUP1 ISZERO PUSH2 0x455 JUMPI PUSH1 0x20 MUL DUP3 ADD SWAP2 SWAP1 PUSH1 0x0 MSTORE PUSH1 0x20 PUSH1 0x0 KECCAK256 SWAP1 JUMPDEST DUP2 PUSH1 0x0 SWAP1 SLOAD SWAP1 PUSH2 0x100 EXP SWAP1 DIV PUSH20 0xFFFFFFFFFFFFFFFFFFFFFFFFFFFFFFFFFFFFFFFF AND PUSH20 0xFFFFFFFFFFFFFFFFFFFFFFFFFFFFFFFFFFFFFFFF AND DUP2 MSTORE PUSH1 0x20 ADD SWAP1 PUSH1 0x1 ADD SWAP1 DUP1 DUP4 GT PUSH2 0x40B JUMPI JUMPDEST POP POP POP POP POP SWAP1 POP SWAP1 JUMP JUMPDEST PUSH1 0x3 SLOAD DUP2 JUMP JUMPDEST PUSH1 0x0 PUSH1 0x8 PUSH1 0x0 CALLER PUSH20 0xFFFFFFFFFFFFFFFFFFFFFFFFFFFFFFFFFFFFFFFF AND PUSH20 0xFFFFFFFFFFFFFFFFFFFFFFFFFFFFFFFFFFFFFFFF AND DUP2 MSTORE PUSH1 0x20 ADD SWAP1 DUP2 MSTORE PUSH1 0x20 ADD PUSH1 0x0 KECCAK256 PUSH1 0x1 ADD DUP1 SLOAD SWAP1 POP SWAP1 POP SWAP1 JUMP JUMPDEST DUP1 PUSH1 0x4 DUP2 SWAP1 SSTORE POP POP JUMP JUMPDEST PUSH1 0x0 PUSH1 0x5 SLOAD DUP4 LT ISZERO PUSH2 0x503 JUMPI PUSH1 0x40 MLOAD PUSH32 0x8C379A000000000000000000000000000000000000000000000000000000000 DUP2 MSTORE PUSH1 0x4 ADD PUSH2 0x4FA SWAP1 PUSH2 0x222B JUMP JUMPDEST PUSH1 0x40 MLOAD DUP1 SWAP2 SUB SWAP1 REVERT JUMPDEST PUSH1 0x0 ISZERO ISZERO PUSH1 0x8 PUSH1 0x0 CALLER PUSH20 0xFFFFFFFFFFFFFFFFFFFFFFFFFFFFFFFFFFFFFFFF AND PUSH20 0xFFFFFFFFFFFFFFFFFFFFFFFFFFFFFFFFFFFFFFFF AND DUP2 MSTORE PUSH1 0x20 ADD SWAP1 DUP2 MSTORE PUSH1 0x20 ADD PUSH1 0x0 KECCAK256 PUSH1 0x8 ADD PUSH1 0x0 SWAP1 SLOAD SWAP1 PUSH2 0x100 EXP SWAP1 DIV PUSH1 0xFF AND ISZERO ISZERO EQ ISZERO PUSH2 0x578 JUMPI PUSH1 0x3 PUSH1 0x0 DUP2 SLOAD DUP1 SWAP3 SWAP2 SWAP1 PUSH2 0x572 SWAP1 PUSH2 0x247F JUMP JUMPDEST SWAP2 SWAP1 POP SSTORE POP JUMPDEST PUSH1 0x0 PUSH1 0x8 PUSH1 0x0 CALLER PUSH20 0xFFFFFFFFFFFFFFFFFFFFFFFFFFFFFFFFFFFFFFFF AND PUSH20 0xFFFFFFFFFFFFFFFFFFFFFFFFFFFFFFFFFFFFFFFF AND DUP2 MSTORE PUSH1 0x20 ADD SWAP1 DUP2 MSTORE PUSH1 0x20 ADD PUSH1 0x0 KECCAK256 PUSH1 0x5 ADD SLOAD SWAP1 POP DUP4 PUSH1 0x8 PUSH1 0x0 CALLER PUSH20 0xFFFFFFFFFFFFFFFFFFFFFFFFFFFFFFFFFFFFFFFF AND PUSH20 0xFFFFFFFFFFFFFFFFFFFFFFFFFFFFFFFFFFFFFFFF AND DUP2 MSTORE PUSH1 0x20 ADD SWAP1 DUP2 MSTORE PUSH1 0x20 ADD PUSH1 0x0 KECCAK256 PUSH1 0x0 ADD PUSH1 0x0 DUP4 DUP2 MSTORE PUSH1 0x20 ADD SWAP1 DUP2 MSTORE PUSH1 0x20 ADD PUSH1 0x0 KECCAK256 PUSH1 0x0 ADD DUP2 SWAP1 SSTORE POP TIMESTAMP PUSH1 0x8 PUSH1 0x0 CALLER PUSH20 0xFFFFFFFFFFFFFFFFFFFFFFFFFFFFFFFFFFFFFFFF AND PUSH20 0xFFFFFFFFFFFFFFFFFFFFFFFFFFFFFFFFFFFFFFFF AND DUP2 MSTORE PUSH1 0x20 ADD SWAP1 DUP2 MSTORE PUSH1 0x20 ADD PUSH1 0x0 KECCAK256 PUSH1 0x0 ADD PUSH1 0x0 DUP4 DUP2 MSTORE PUSH1 0x20 ADD SWAP1 DUP2 MSTORE PUSH1 0x20 ADD PUSH1 0x0 KECCAK256 PUSH1 0x2 ADD DUP2 SWAP1 SSTORE POP PUSH1 0x7 SLOAD TIMESTAMP PUSH2 0x683 SWAP2 SWAP1 PUSH2 0x2322 JUMP JUMPDEST PUSH1 0x8 PUSH1 0x0 CALLER PUSH20 0xFFFFFFFFFFFFFFFFFFFFFFFFFFFFFFFFFFFFFFFF AND PUSH20 0xFFFFFFFFFFFFFFFFFFFFFFFFFFFFFFFFFFFFFFFF AND DUP2 MSTORE PUSH1 0x20 ADD SWAP1 DUP2 MSTORE PUSH1 0x20 ADD PUSH1 0x0 KECCAK256 PUSH1 0x0 ADD PUSH1 0x0 DUP4 DUP2 MSTORE PUSH1 0x20 ADD SWAP1 DUP2 MSTORE PUSH1 0x20 ADD PUSH1 0x0 KECCAK256 PUSH1 0x1 ADD DUP2 SWAP1 SSTORE POP DUP1 PUSH1 0x8 PUSH1 0x0 CALLER PUSH20 0xFFFFFFFFFFFFFFFFFFFFFFFFFFFFFFFFFFFFFFFF AND PUSH20 0xFFFFFFFFFFFFFFFFFFFFFFFFFFFFFFFFFFFFFFFF AND DUP2 MSTORE PUSH1 0x20 ADD SWAP1 DUP2 MSTORE PUSH1 0x20 ADD PUSH1 0x0 KECCAK256 PUSH1 0x0 ADD PUSH1 0x0 DUP4 DUP2 MSTORE PUSH1 0x20 ADD SWAP1 DUP2 MSTORE PUSH1 0x20 ADD PUSH1 0x0 KECCAK256 PUSH1 0x3 ADD DUP2 SWAP1 SSTORE POP DUP4 PUSH1 0x8 PUSH1 0x0 CALLER PUSH20 0xFFFFFFFFFFFFFFFFFFFFFFFFFFFFFFFFFFFFFFFF AND PUSH20 0xFFFFFFFFFFFFFFFFFFFFFFFFFFFFFFFFFFFFFFFF AND DUP2 MSTORE PUSH1 0x20 ADD SWAP1 DUP2 MSTORE PUSH1 0x20 ADD PUSH1 0x0 KECCAK256 PUSH1 0x6 ADD PUSH1 0x0 DUP3 DUP3 SLOAD PUSH2 0x78A SWAP2 SWAP1 PUSH2 0x2322 JUMP JUMPDEST SWAP3 POP POP DUP2 SWAP1 SSTORE POP PUSH1 0x1 PUSH1 0x8 PUSH1 0x0 CALLER PUSH20 0xFFFFFFFFFFFFFFFFFFFFFFFFFFFFFFFFFFFFFFFF AND PUSH20 0xFFFFFFFFFFFFFFFFFFFFFFFFFFFFFFFFFFFFFFFF AND DUP2 MSTORE PUSH1 0x20 ADD SWAP1 DUP2 MSTORE PUSH1 0x20 ADD PUSH1 0x0 KECCAK256 PUSH1 0x8 ADD PUSH1 0x0 PUSH2 0x100 EXP DUP2 SLOAD DUP2 PUSH1 0xFF MUL NOT AND SWAP1 DUP4 ISZERO ISZERO MUL OR SWAP1 SSTORE POP PUSH1 0x8 PUSH1 0x0 CALLER PUSH20 0xFFFFFFFFFFFFFFFFFFFFFFFFFFFFFFFFFFFFFFFF AND PUSH20 0xFFFFFFFFFFFFFFFFFFFFFFFFFFFFFFFFFFFFFFFF AND DUP2 MSTORE PUSH1 0x20 ADD SWAP1 DUP2 MSTORE PUSH1 0x20 ADD PUSH1 0x0 KECCAK256 PUSH1 0x5 ADD PUSH1 0x0 DUP2 SLOAD DUP1 SWAP3 SWAP2 SWAP1 PUSH2 0x83F SWAP1 PUSH2 0x247F JUMP JUMPDEST SWAP2 SWAP1 POP SSTORE POP PUSH1 0x1 PUSH1 0x0 SWAP1 SLOAD SWAP1 PUSH2 0x100 EXP SWAP1 DIV PUSH20 0xFFFFFFFFFFFFFFFFFFFFFFFFFFFFFFFFFFFFFFFF AND PUSH20 0xFFFFFFFFFFFFFFFFFFFFFFFFFFFFFFFFFFFFFFFF AND PUSH4 0x23B872DD CALLER ADDRESS PUSH8 0xDE0B6B3A7640000 DUP9 PUSH2 0x898 SWAP2 SWAP1 PUSH2 0x23A9 JUMP JUMPDEST PUSH1 0x40 MLOAD DUP5 PUSH4 0xFFFFFFFF AND PUSH1 0xE0 SHL DUP2 MSTORE PUSH1 0x4 ADD PUSH2 0x8B6 SWAP4 SWAP3 SWAP2 SWAP1 PUSH2 0x2089 JUMP JUMPDEST PUSH1 0x20 PUSH1 0x40 MLOAD DUP1 DUP4 SUB DUP2 PUSH1 0x0 DUP8 DUP1 EXTCODESIZE ISZERO DUP1 ISZERO PUSH2 0x8D0 JUMPI PUSH1 0x0 DUP1 REVERT JUMPDEST POP GAS CALL ISZERO DUP1 ISZERO PUSH2 0x8E4 JUMPI RETURNDATASIZE PUSH1 0x0 DUP1 RETURNDATACOPY RETURNDATASIZE PUSH1 0x0 REVERT JUMPDEST POP POP POP POP PUSH1 0x40 MLOAD RETURNDATASIZE PUSH1 0x1F NOT PUSH1 0x1F DUP3 ADD AND DUP3 ADD DUP1 PUSH1 0x40 MSTORE POP DUP2 ADD SWAP1 PUSH2 0x908 SWAP2 SWAP1 PUSH2 0x1CF3 JUMP JUMPDEST POP PUSH1 0x0 PUSH20 0xFFFFFFFFFFFFFFFFFFFFFFFFFFFFFFFFFFFFFFFF AND DUP4 PUSH20 0xFFFFFFFFFFFFFFFFFFFFFFFFFFFFFFFFFFFFFFFF AND EQ DUP1 PUSH2 0x96F JUMPI POP CALLER PUSH20 0xFFFFFFFFFFFFFFFFFFFFFFFFFFFFFFFFFFFFFFFF AND DUP4 PUSH20 0xFFFFFFFFFFFFFFFFFFFFFFFFFFFFFFFFFFFFFFFF AND EQ JUMPDEST ISZERO PUSH2 0x9FB JUMPI PUSH1 0x0 PUSH1 0x8 PUSH1 0x0 CALLER PUSH20 0xFFFFFFFFFFFFFFFFFFFFFFFFFFFFFFFFFFFFFFFF AND PUSH20 0xFFFFFFFFFFFFFFFFFFFFFFFFFFFFFFFFFFFFFFFF AND DUP2 MSTORE PUSH1 0x20 ADD SWAP1 DUP2 MSTORE PUSH1 0x20 ADD PUSH1 0x0 KECCAK256 PUSH1 0x2 ADD PUSH1 0x0 PUSH2 0x100 EXP DUP2 SLOAD DUP2 PUSH20 0xFFFFFFFFFFFFFFFFFFFFFFFFFFFFFFFFFFFFFFFF MUL NOT AND SWAP1 DUP4 PUSH20 0xFFFFFFFFFFFFFFFFFFFFFFFFFFFFFFFFFFFFFFFF AND MUL OR SWAP1 SSTORE POP PUSH2 0xB2A JUMP JUMPDEST DUP3 PUSH1 0x8 PUSH1 0x0 CALLER PUSH20 0xFFFFFFFFFFFFFFFFFFFFFFFFFFFFFFFFFFFFFFFF AND PUSH20 0xFFFFFFFFFFFFFFFFFFFFFFFFFFFFFFFFFFFFFFFF AND DUP2 MSTORE PUSH1 0x20 ADD SWAP1 DUP2 MSTORE PUSH1 0x20 ADD PUSH1 0x0 KECCAK256 PUSH1 0x2 ADD PUSH1 0x0 PUSH2 0x100 EXP DUP2 SLOAD DUP2 PUSH20 0xFFFFFFFFFFFFFFFFFFFFFFFFFFFFFFFFFFFFFFFF MUL NOT AND SWAP1 DUP4 PUSH20 0xFFFFFFFFFFFFFFFFFFFFFFFFFFFFFFFFFFFFFFFF AND MUL OR SWAP1 SSTORE POP PUSH1 0x8 PUSH1 0x0 DUP5 PUSH20 0xFFFFFFFFFFFFFFFFFFFFFFFFFFFFFFFFFFFFFFFF AND PUSH20 0xFFFFFFFFFFFFFFFFFFFFFFFFFFFFFFFFFFFFFFFF AND DUP2 MSTORE PUSH1 0x20 ADD SWAP1 DUP2 MSTORE PUSH1 0x20 ADD PUSH1 0x0 KECCAK256 PUSH1 0x1 ADD CALLER SWAP1 DUP1 PUSH1 0x1 DUP2 SLOAD ADD DUP1 DUP3 SSTORE DUP1 SWAP2 POP POP PUSH1 0x1 SWAP1 SUB SWAP1 PUSH1 0x0 MSTORE PUSH1 0x20 PUSH1 0x0 KECCAK256 ADD PUSH1 0x0 SWAP1 SWAP2 SWAP1 SWAP2 SWAP1 SWAP2 PUSH2 0x100 EXP DUP2 SLOAD DUP2 PUSH20 0xFFFFFFFFFFFFFFFFFFFFFFFFFFFFFFFFFFFFFFFF MUL NOT AND SWAP1 DUP4 PUSH20 0xFFFFFFFFFFFFFFFFFFFFFFFFFFFFFFFFFFFFFFFF AND MUL OR SWAP1 SSTORE POP PUSH2 0xB29 CALLER DUP6 PUSH2 0x18A4 JUMP JUMPDEST JUMPDEST PUSH1 0x1 SWAP2 POP POP SWAP3 SWAP2 POP POP JUMP JUMPDEST DUP1 PUSH1 0x5 DUP2 SWAP1 SSTORE POP POP JUMP JUMPDEST PUSH1 0x60 PUSH1 0x0 PUSH1 0x8 PUSH1 0x0 CALLER PUSH20 0xFFFFFFFFFFFFFFFFFFFFFFFFFFFFFFFFFFFFFFFF AND PUSH20 0xFFFFFFFFFFFFFFFFFFFFFFFFFFFFFFFFFFFFFFFF AND DUP2 MSTORE PUSH1 0x20 ADD SWAP1 DUP2 MSTORE PUSH1 0x20 ADD PUSH1 0x0 KECCAK256 PUSH1 0x5 ADD SLOAD SWAP1 POP PUSH1 0x0 DUP1 PUSH1 0x0 JUMPDEST DUP4 DUP2 LT ISZERO PUSH2 0xC17 JUMPI PUSH1 0x0 PUSH1 0x8 PUSH1 0x0 CALLER PUSH20 0xFFFFFFFFFFFFFFFFFFFFFFFFFFFFFFFFFFFFFFFF AND PUSH20 0xFFFFFFFFFFFFFFFFFFFFFFFFFFFFFFFFFFFFFFFF AND DUP2 MSTORE PUSH1 0x20 ADD SWAP1 DUP2 MSTORE PUSH1 0x20 ADD PUSH1 0x0 KECCAK256 PUSH1 0x0 ADD PUSH1 0x0 DUP4 DUP2 MSTORE PUSH1 0x20 ADD SWAP1 DUP2 MSTORE PUSH1 0x20 ADD PUSH1 0x0 KECCAK256 PUSH1 0x0 ADD SLOAD GT ISZERO PUSH2 0xC04 JUMPI DUP3 DUP1 PUSH2 0xC00 SWAP1 PUSH2 0x247F JUMP JUMPDEST SWAP4 POP POP JUMPDEST DUP1 DUP1 PUSH2 0xC0F SWAP1 PUSH2 0x247F JUMP JUMPDEST SWAP2 POP POP PUSH2 0xB8E JUMP JUMPDEST POP PUSH1 0x0 DUP3 PUSH8 0xFFFFFFFFFFFFFFFF DUP2 GT ISZERO PUSH2 0xC34 JUMPI PUSH2 0xC33 PUSH2 0x2555 JUMP JUMPDEST JUMPDEST PUSH1 0x40 MLOAD SWAP1 DUP1 DUP3 MSTORE DUP1 PUSH1 0x20 MUL PUSH1 0x20 ADD DUP3 ADD PUSH1 0x40 MSTORE DUP1 ISZERO PUSH2 0xC6D JUMPI DUP2 PUSH1 0x20 ADD JUMPDEST PUSH2 0xC5A PUSH2 0x1C5F JUMP JUMPDEST DUP2 MSTORE PUSH1 0x20 ADD SWAP1 PUSH1 0x1 SWAP1 SUB SWAP1 DUP2 PUSH2 0xC52 JUMPI SWAP1 POP JUMPDEST POP SWAP1 POP PUSH1 0x0 JUMPDEST DUP5 DUP2 LT ISZERO PUSH2 0xDA0 JUMPI PUSH1 0x0 PUSH1 0x8 PUSH1 0x0 CALLER PUSH20 0xFFFFFFFFFFFFFFFFFFFFFFFFFFFFFFFFFFFFFFFF AND PUSH20 0xFFFFFFFFFFFFFFFFFFFFFFFFFFFFFFFFFFFFFFFF AND DUP2 MSTORE PUSH1 0x20 ADD SWAP1 DUP2 MSTORE PUSH1 0x20 ADD PUSH1 0x0 KECCAK256 PUSH1 0x0 ADD PUSH1 0x0 DUP4 DUP2 MSTORE PUSH1 0x20 ADD SWAP1 DUP2 MSTORE PUSH1 0x20 ADD PUSH1 0x0 KECCAK256 PUSH1 0x0 ADD SLOAD GT ISZERO PUSH2 0xD8D JUMPI PUSH1 0x8 PUSH1 0x0 CALLER PUSH20 0xFFFFFFFFFFFFFFFFFFFFFFFFFFFFFFFFFFFFFFFF AND PUSH20 0xFFFFFFFFFFFFFFFFFFFFFFFFFFFFFFFFFFFFFFFF AND DUP2 MSTORE PUSH1 0x20 ADD SWAP1 DUP2 MSTORE PUSH1 0x20 ADD PUSH1 0x0 KECCAK256 PUSH1 0x0 ADD PUSH1 0x0 DUP3 DUP2 MSTORE PUSH1 0x20 ADD SWAP1 DUP2 MSTORE PUSH1 0x20 ADD PUSH1 0x0 KECCAK256 PUSH1 0x40 MLOAD DUP1 PUSH1 0x80 ADD PUSH1 0x40 MSTORE SWAP1 DUP2 PUSH1 0x0 DUP3 ADD SLOAD DUP2 MSTORE PUSH1 0x20 ADD PUSH1 0x1 DUP3 ADD SLOAD DUP2 MSTORE PUSH1 0x20 ADD PUSH1 0x2 DUP3 ADD SLOAD DUP2 MSTORE PUSH1 0x20 ADD PUSH1 0x3 DUP3 ADD SLOAD DUP2 MSTORE POP POP DUP3 DUP5 DUP2 MLOAD DUP2 LT PUSH2 0xD73 JUMPI PUSH2 0xD72 PUSH2 0x2526 JUMP JUMPDEST JUMPDEST PUSH1 0x20 MUL PUSH1 0x20 ADD ADD DUP2 SWAP1 MSTORE POP DUP3 DUP1 PUSH2 0xD89 SWAP1 PUSH2 0x247F JUMP JUMPDEST SWAP4 POP POP JUMPDEST DUP1 DUP1 PUSH2 0xD98 SWAP1 PUSH2 0x247F JUMP JUMPDEST SWAP2 POP POP PUSH2 0xC73 JUMP JUMPDEST POP DUP1 SWAP5 POP POP POP POP POP SWAP1 JUMP JUMPDEST PUSH1 0x0 DUP1 PUSH1 0x0 DUP1 PUSH1 0x8 PUSH1 0x0 CALLER PUSH20 0xFFFFFFFFFFFFFFFFFFFFFFFFFFFFFFFFFFFFFFFF AND PUSH20 0xFFFFFFFFFFFFFFFFFFFFFFFFFFFFFFFFFFFFFFFF AND DUP2 MSTORE PUSH1 0x20 ADD SWAP1 DUP2 MSTORE PUSH1 0x20 ADD PUSH1 0x0 KECCAK256 PUSH1 0x5 ADD SLOAD SWAP1 POP PUSH1 0x0 JUMPDEST DUP2 DUP2 LT ISZERO PUSH2 0xEF1 JUMPI PUSH1 0x8 PUSH1 0x0 CALLER PUSH20 0xFFFFFFFFFFFFFFFFFFFFFFFFFFFFFFFFFFFFFFFF AND PUSH20 0xFFFFFFFFFFFFFFFFFFFFFFFFFFFFFFFFFFFFFFFF AND DUP2 MSTORE PUSH1 0x20 ADD SWAP1 DUP2 MSTORE PUSH1 0x20 ADD PUSH1 0x0 KECCAK256 PUSH1 0x0 ADD PUSH1 0x0 DUP3 DUP2 MSTORE PUSH1 0x20 ADD SWAP1 DUP2 MSTORE PUSH1 0x20 ADD PUSH1 0x0 KECCAK256 PUSH1 0x2 ADD SLOAD TIMESTAMP PUSH2 0xE63 SWAP2 SWAP1 PUSH2 0x2403 JUMP JUMPDEST SWAP3 POP PUSH1 0x3C DUP4 PUSH2 0xE72 SWAP2 SWAP1 PUSH2 0x2378 JUMP JUMPDEST SWAP3 POP PUSH1 0x0 DUP4 GT ISZERO PUSH2 0xE8E JUMPI PUSH1 0x4 SLOAD DUP4 PUSH2 0xE8B SWAP2 SWAP1 PUSH2 0x23A9 JUMP JUMPDEST SWAP4 POP JUMPDEST PUSH1 0x8 PUSH1 0x0 CALLER PUSH20 0xFFFFFFFFFFFFFFFFFFFFFFFFFFFFFFFFFFFFFFFF AND PUSH20 0xFFFFFFFFFFFFFFFFFFFFFFFFFFFFFFFFFFFFFFFF AND DUP2 MSTORE PUSH1 0x20 ADD SWAP1 DUP2 MSTORE PUSH1 0x20 ADD PUSH1 0x0 KECCAK256 PUSH1 0x7 ADD SLOAD DUP5 PUSH2 0xEDC SWAP2 SWAP1 PUSH2 0x2403 JUMP JUMPDEST SWAP4 POP DUP1 DUP1 PUSH2 0xEE9 SWAP1 PUSH2 0x247F JUMP JUMPDEST SWAP2 POP POP PUSH2 0xDF9 JUMP JUMPDEST POP DUP3 SWAP4 POP POP POP POP SWAP1 JUMP JUMPDEST DUP1 PUSH1 0x6 DUP2 SWAP1 SSTORE POP POP JUMP JUMPDEST PUSH1 0x0 DUP1 PUSH1 0x8 PUSH1 0x0 CALLER PUSH20 0xFFFFFFFFFFFFFFFFFFFFFFFFFFFFFFFFFFFFFFFF AND PUSH20 0xFFFFFFFFFFFFFFFFFFFFFFFFFFFFFFFFFFFFFFFF AND DUP2 MSTORE PUSH1 0x20 ADD SWAP1 DUP2 MSTORE PUSH1 0x20 ADD PUSH1 0x0 KECCAK256 PUSH1 0x0 ADD PUSH1 0x0 DUP5 DUP2 MSTORE PUSH1 0x20 ADD SWAP1 DUP2 MSTORE PUSH1 0x20 ADD PUSH1 0x0 KECCAK256 PUSH1 0x0 ADD SLOAD GT PUSH2 0xF9F JUMPI PUSH1 0x40 MLOAD PUSH32 0x8C379A000000000000000000000000000000000000000000000000000000000 DUP2 MSTORE PUSH1 0x4 ADD PUSH2 0xF96 SWAP1 PUSH2 0x21CB JUMP JUMPDEST PUSH1 0x40 MLOAD DUP1 SWAP2 SUB SWAP1 REVERT JUMPDEST PUSH1 0x0 PUSH1 0x8 PUSH1 0x0 CALLER PUSH20 0xFFFFFFFFFFFFFFFFFFFFFFFFFFFFFFFFFFFFFFFF AND PUSH20 0xFFFFFFFFFFFFFFFFFFFFFFFFFFFFFFFFFFFFFFFF AND DUP2 MSTORE PUSH1 0x20 ADD SWAP1 DUP2 MSTORE PUSH1 0x20 ADD PUSH1 0x0 KECCAK256 PUSH1 0x0 ADD PUSH1 0x0 DUP5 DUP2 MSTORE PUSH1 0x20 ADD SWAP1 DUP2 MSTORE PUSH1 0x20 ADD PUSH1 0x0 KECCAK256 PUSH1 0x0 ADD SLOAD SWAP1 POP TIMESTAMP PUSH1 0x8 PUSH1 0x0 CALLER PUSH20 0xFFFFFFFFFFFFFFFFFFFFFFFFFFFFFFFFFFFFFFFF AND PUSH20 0xFFFFFFFFFFFFFFFFFFFFFFFFFFFFFFFFFFFFFFFF AND DUP2 MSTORE PUSH1 0x20 ADD SWAP1 DUP2 MSTORE PUSH1 0x20 ADD PUSH1 0x0 KECCAK256 PUSH1 0x0 ADD PUSH1 0x0 DUP6 DUP2 MSTORE PUSH1 0x20 ADD SWAP1 DUP2 MSTORE PUSH1 0x20 ADD PUSH1 0x0 KECCAK256 PUSH1 0x1 ADD SLOAD GT ISZERO PUSH2 0x1068 JUMPI PUSH1 0x2 DUP2 PUSH2 0x1065 SWAP2 SWAP1 PUSH2 0x2378 JUMP JUMPDEST SWAP1 POP JUMPDEST PUSH1 0x1 PUSH1 0x0 SWAP1 SLOAD SWAP1 PUSH2 0x100 EXP SWAP1 DIV PUSH20 0xFFFFFFFFFFFFFFFFFFFFFFFFFFFFFFFFFFFFFFFF AND PUSH20 0xFFFFFFFFFFFFFFFFFFFFFFFFFFFFFFFFFFFFFFFF AND PUSH4 0xA9059CBB CALLER DUP4 PUSH1 0x40 MLOAD DUP4 PUSH4 0xFFFFFFFF AND PUSH1 0xE0 SHL DUP2 MSTORE PUSH1 0x4 ADD PUSH2 0x10C5 SWAP3 SWAP2 SWAP1 PUSH2 0x20C0 JUMP JUMPDEST PUSH1 0x20 PUSH1 0x40 MLOAD DUP1 DUP4 SUB DUP2 PUSH1 0x0 DUP8 DUP1 EXTCODESIZE ISZERO DUP1 ISZERO PUSH2 0x10DF JUMPI PUSH1 0x0 DUP1 REVERT JUMPDEST POP GAS CALL ISZERO DUP1 ISZERO PUSH2 0x10F3 JUMPI RETURNDATASIZE PUSH1 0x0 DUP1 RETURNDATACOPY RETURNDATASIZE PUSH1 0x0 REVERT JUMPDEST POP POP POP POP PUSH1 0x40 MLOAD RETURNDATASIZE PUSH1 0x1F NOT PUSH1 0x1F DUP3 ADD AND DUP3 ADD DUP1 PUSH1 0x40 MSTORE POP DUP2 ADD SWAP1 PUSH2 0x1117 SWAP2 SWAP1 PUSH2 0x1CF3 JUMP JUMPDEST POP PUSH1 0x1 PUSH1 0x0 SWAP1 SLOAD SWAP1 PUSH2 0x100 EXP SWAP1 DIV PUSH20 0xFFFFFFFFFFFFFFFFFFFFFFFFFFFFFFFFFFFFFFFF AND PUSH20 0xFFFFFFFFFFFFFFFFFFFFFFFFFFFFFFFFFFFFFFFF AND PUSH4 0xA9059CBB PUSH1 0x0 DUP1 SLOAD SWAP1 PUSH2 0x100 EXP SWAP1 DIV PUSH20 0xFFFFFFFFFFFFFFFFFFFFFFFFFFFFFFFFFFFFFFFF AND DUP4 PUSH1 0x40 MLOAD DUP4 PUSH4 0xFFFFFFFF AND PUSH1 0xE0 SHL DUP2 MSTORE PUSH1 0x4 ADD PUSH2 0x1195 SWAP3 SWAP2 SWAP1 PUSH2 0x20C0 JUMP JUMPDEST PUSH1 0x20 PUSH1 0x40 MLOAD DUP1 DUP4 SUB DUP2 PUSH1 0x0 DUP8 DUP1 EXTCODESIZE ISZERO DUP1 ISZERO PUSH2 0x11AF JUMPI PUSH1 0x0 DUP1 REVERT JUMPDEST POP GAS CALL ISZERO DUP1 ISZERO PUSH2 0x11C3 JUMPI RETURNDATASIZE PUSH1 0x0 DUP1 RETURNDATACOPY RETURNDATASIZE PUSH1 0x0 REVERT JUMPDEST POP POP POP POP PUSH1 0x40 MLOAD RETURNDATASIZE PUSH1 0x1F NOT PUSH1 0x1F DUP3 ADD AND DUP3 ADD DUP1 PUSH1 0x40 MSTORE POP DUP2 ADD SWAP1 PUSH2 0x11E7 SWAP2 SWAP1 PUSH2 0x1CF3 JUMP JUMPDEST POP PUSH1 0x0 PUSH1 0x8 PUSH1 0x0 CALLER PUSH20 0xFFFFFFFFFFFFFFFFFFFFFFFFFFFFFFFFFFFFFFFF AND PUSH20 0xFFFFFFFFFFFFFFFFFFFFFFFFFFFFFFFFFFFFFFFF AND DUP2 MSTORE PUSH1 0x20 ADD SWAP1 DUP2 MSTORE PUSH1 0x20 ADD PUSH1 0x0 KECCAK256 PUSH1 0x0 ADD PUSH1 0x0 DUP6 DUP2 MSTORE PUSH1 0x20 ADD SWAP1 DUP2 MSTORE PUSH1 0x20 ADD PUSH1 0x0 KECCAK256 PUSH1 0x0 ADD DUP2 SWAP1 SSTORE POP DUP1 PUSH1 0x8 PUSH1 0x0 CALLER PUSH20 0xFFFFFFFFFFFFFFFFFFFFFFFFFFFFFFFFFFFFFFFF AND PUSH20 0xFFFFFFFFFFFFFFFFFFFFFFFFFFFFFFFFFFFFFFFF AND DUP2 MSTORE PUSH1 0x20 ADD SWAP1 DUP2 MSTORE PUSH1 0x20 ADD PUSH1 0x0 KECCAK256 PUSH1 0x6 ADD PUSH1 0x0 DUP3 DUP3 SLOAD PUSH2 0x1296 SWAP2 SWAP1 PUSH2 0x2403 JUMP JUMPDEST SWAP3 POP POP DUP2 SWAP1 SSTORE POP PUSH1 0x1 SWAP2 POP POP SWAP2 SWAP1 POP JUMP JUMPDEST PUSH1 0x0 DUP1 SLOAD SWAP1 PUSH2 0x100 EXP SWAP1 DIV PUSH20 0xFFFFFFFFFFFFFFFFFFFFFFFFFFFFFFFFFFFFFFFF AND DUP2 JUMP JUMPDEST PUSH1 0x0 PUSH1 0x8 PUSH1 0x0 CALLER PUSH20 0xFFFFFFFFFFFFFFFFFFFFFFFFFFFFFFFFFFFFFFFF AND PUSH20 0xFFFFFFFFFFFFFFFFFFFFFFFFFFFFFFFFFFFFFFFF AND DUP2 MSTORE PUSH1 0x20 ADD SWAP1 DUP2 MSTORE PUSH1 0x20 ADD PUSH1 0x0 KECCAK256 PUSH1 0x6 ADD SLOAD SWAP1 POP SWAP1 JUMP JUMPDEST PUSH1 0x60 PUSH1 0x0 PUSH1 0x14 PUSH8 0xFFFFFFFFFFFFFFFF DUP2 GT ISZERO PUSH2 0x1334 JUMPI PUSH2 0x1333 PUSH2 0x2555 JUMP JUMPDEST JUMPDEST PUSH1 0x40 MLOAD SWAP1 DUP1 DUP3 MSTORE DUP1 PUSH1 0x20 MUL PUSH1 0x20 ADD DUP3 ADD PUSH1 0x40 MSTORE DUP1 ISZERO PUSH2 0x1362 JUMPI DUP2 PUSH1 0x20 ADD PUSH1 0x20 DUP3 MUL DUP1 CALLDATASIZE DUP4 CALLDATACOPY DUP1 DUP3 ADD SWAP2 POP POP SWAP1 POP JUMPDEST POP SWAP1 POP PUSH1 0x0 JUMPDEST PUSH1 0x14 DUP2 LT ISZERO PUSH2 0x1480 JUMPI PUSH1 0x0 PUSH1 0x8 PUSH1 0x0 CALLER PUSH20 0xFFFFFFFFFFFFFFFFFFFFFFFFFFFFFFFFFFFFFFFF AND PUSH20 0xFFFFFFFFFFFFFFFFFFFFFFFFFFFFFFFFFFFFFFFF AND DUP2 MSTORE PUSH1 0x20 ADD SWAP1 DUP2 MSTORE PUSH1 0x20 ADD PUSH1 0x0 KECCAK256 PUSH1 0x3 ADD PUSH1 0x0 DUP4 DUP2 MSTORE PUSH1 0x20 ADD SWAP1 DUP2 MSTORE PUSH1 0x20 ADD PUSH1 0x0 KECCAK256 PUSH1 0x0 ADD SLOAD GT ISZERO PUSH2 0x144B JUMPI PUSH1 0x8 PUSH1 0x0 CALLER PUSH20 0xFFFFFFFFFFFFFFFFFFFFFFFFFFFFFFFFFFFFFFFF AND PUSH20 0xFFFFFFFFFFFFFFFFFFFFFFFFFFFFFFFFFFFFFFFF AND DUP2 MSTORE PUSH1 0x20 ADD SWAP1 DUP2 MSTORE PUSH1 0x20 ADD PUSH1 0x0 KECCAK256 PUSH1 0x3 ADD PUSH1 0x0 DUP3 DUP2 MSTORE PUSH1 0x20 ADD SWAP1 DUP2 MSTORE PUSH1 0x20 ADD PUSH1 0x0 KECCAK256 PUSH1 0x0 ADD SLOAD DUP3 DUP3 DUP2 MLOAD DUP2 LT PUSH2 0x143A JUMPI PUSH2 0x1439 PUSH2 0x2526 JUMP JUMPDEST JUMPDEST PUSH1 0x20 MUL PUSH1 0x20 ADD ADD DUP2 DUP2 MSTORE POP POP PUSH2 0x146D JUMP JUMPDEST PUSH1 0x0 DUP3 DUP3 DUP2 MLOAD DUP2 LT PUSH2 0x1460 JUMPI PUSH2 0x145F PUSH2 0x2526 JUMP JUMPDEST JUMPDEST PUSH1 0x20 MUL PUSH1 0x20 ADD ADD DUP2 DUP2 MSTORE POP POP JUMPDEST DUP1 DUP1 PUSH2 0x1478 SWAP1 PUSH2 0x247F JUMP JUMPDEST SWAP2 POP POP PUSH2 0x1368 JUMP JUMPDEST POP DUP1 SWAP2 POP POP SWAP1 JUMP JUMPDEST PUSH1 0x0 DUP1 PUSH2 0x1493 PUSH2 0xDAB JUMP JUMPDEST SWAP1 POP PUSH1 0x0 DUP2 GT PUSH2 0x14D8 JUMPI PUSH1 0x40 MLOAD PUSH32 0x8C379A000000000000000000000000000000000000000000000000000000000 DUP2 MSTORE PUSH1 0x4 ADD PUSH2 0x14CF SWAP1 PUSH2 0x21EB JUMP JUMPDEST PUSH1 0x40 MLOAD DUP1 SWAP2 SUB SWAP1 REVERT JUMPDEST PUSH1 0x1 PUSH1 0x0 SWAP1 SLOAD SWAP1 PUSH2 0x100 EXP SWAP1 DIV PUSH20 0xFFFFFFFFFFFFFFFFFFFFFFFFFFFFFFFFFFFFFFFF AND PUSH20 0xFFFFFFFFFFFFFFFFFFFFFFFFFFFFFFFFFFFFFFFF AND PUSH4 0xA9059CBB CALLER DUP4 PUSH1 0x40 MLOAD DUP4 PUSH4 0xFFFFFFFF AND PUSH1 0xE0 SHL DUP2 MSTORE PUSH1 0x4 ADD PUSH2 0x1535 SWAP3 SWAP2 SWAP1 PUSH2 0x20C0 JUMP JUMPDEST PUSH1 0x20 PUSH1 0x40 MLOAD DUP1 DUP4 SUB DUP2 PUSH1 0x0 DUP8 DUP1 EXTCODESIZE ISZERO DUP1 ISZERO PUSH2 0x154F JUMPI PUSH1 0x0 DUP1 REVERT JUMPDEST POP GAS CALL ISZERO DUP1 ISZERO PUSH2 0x1563 JUMPI RETURNDATASIZE PUSH1 0x0 DUP1 RETURNDATACOPY RETURNDATASIZE PUSH1 0x0 REVERT JUMPDEST POP POP POP POP PUSH1 0x40 MLOAD RETURNDATASIZE PUSH1 0x1F NOT PUSH1 0x1F DUP3 ADD AND DUP3 ADD DUP1 PUSH1 0x40 MSTORE POP DUP2 ADD SWAP1 PUSH2 0x1587 SWAP2 SWAP1 PUSH2 0x1CF3 JUMP JUMPDEST POP DUP1 PUSH1 0x8 PUSH1 0x0 CALLER PUSH20 0xFFFFFFFFFFFFFFFFFFFFFFFFFFFFFFFFFFFFFFFF AND PUSH20 0xFFFFFFFFFFFFFFFFFFFFFFFFFFFFFFFFFFFFFFFF AND DUP2 MSTORE PUSH1 0x20 ADD SWAP1 DUP2 MSTORE PUSH1 0x20 ADD PUSH1 0x0 KECCAK256 PUSH1 0x7 ADD DUP2 SWAP1 SSTORE POP PUSH1 0x1 SWAP2 POP POP SWAP1 JUMP JUMPDEST DUP2 PUSH1 0x6 DUP2 SWAP1 SSTORE POP DUP3 PUSH1 0x5 DUP2 SWAP1 SSTORE POP DUP1 PUSH1 0x4 DUP2 SWAP1 SSTORE POP POP POP POP JUMP JUMPDEST PUSH1 0x8 PUSH1 0x20 MSTORE DUP1 PUSH1 0x0 MSTORE PUSH1 0x40 PUSH1 0x0 KECCAK256 PUSH1 0x0 SWAP2 POP SWAP1 POP DUP1 PUSH1 0x2 ADD PUSH1 0x0 SWAP1 SLOAD SWAP1 PUSH2 0x100 EXP SWAP1 DIV PUSH20 0xFFFFFFFFFFFFFFFFFFFFFFFFFFFFFFFFFFFFFFFF AND SWAP1 DUP1 PUSH1 0x4 ADD SLOAD SWAP1 DUP1 PUSH1 0x5 ADD SLOAD SWAP1 DUP1 PUSH1 0x6 ADD SLOAD SWAP1 DUP1 PUSH1 0x7 ADD SLOAD SWAP1 DUP1 PUSH1 0x8 ADD PUSH1 0x0 SWAP1 SLOAD SWAP1 PUSH2 0x100 EXP SWAP1 DIV PUSH1 0xFF AND SWAP1 POP DUP7 JUMP JUMPDEST PUSH1 0x0 DUP1 SLOAD SWAP1 PUSH2 0x100 EXP SWAP1 DIV PUSH20 0xFFFFFFFFFFFFFFFFFFFFFFFFFFFFFFFFFFFFFFFF AND PUSH20 0xFFFFFFFFFFFFFFFFFFFFFFFFFFFFFFFFFFFFFFFF AND CALLER PUSH20 0xFFFFFFFFFFFFFFFFFFFFFFFFFFFFFFFFFFFFFFFF AND EQ PUSH2 0x16E8 JUMPI PUSH1 0x40 MLOAD PUSH32 0x8C379A000000000000000000000000000000000000000000000000000000000 DUP2 MSTORE PUSH1 0x4 ADD PUSH2 0x16DF SWAP1 PUSH2 0x220B JUMP JUMPDEST PUSH1 0x40 MLOAD DUP1 SWAP2 SUB SWAP1 REVERT JUMPDEST DUP1 PUSH1 0x0 DUP1 PUSH2 0x100 EXP DUP2 SLOAD DUP2 PUSH20 0xFFFFFFFFFFFFFFFFFFFFFFFFFFFFFFFFFFFFFFFF MUL NOT AND SWAP1 DUP4 PUSH20 0xFFFFFFFFFFFFFFFFFFFFFFFFFFFFFFFFFFFFFFFF AND MUL OR SWAP1 SSTORE POP POP JUMP JUMPDEST PUSH1 0x60 PUSH1 0x0 PUSH1 0x14 PUSH8 0xFFFFFFFFFFFFFFFF DUP2 GT ISZERO PUSH2 0x174A JUMPI PUSH2 0x1749 PUSH2 0x2555 JUMP JUMPDEST JUMPDEST PUSH1 0x40 MLOAD SWAP1 DUP1 DUP3 MSTORE DUP1 PUSH1 0x20 MUL PUSH1 0x20 ADD DUP3 ADD PUSH1 0x40 MSTORE DUP1 ISZERO PUSH2 0x1778 JUMPI DUP2 PUSH1 0x20 ADD PUSH1 0x20 DUP3 MUL DUP1 CALLDATASIZE DUP4 CALLDATACOPY DUP1 DUP3 ADD SWAP2 POP POP SWAP1 POP JUMPDEST POP SWAP1 POP PUSH1 0x0 JUMPDEST PUSH1 0x14 DUP2 LT ISZERO PUSH2 0x1896 JUMPI PUSH1 0x0 PUSH1 0x8 PUSH1 0x0 CALLER PUSH20 0xFFFFFFFFFFFFFFFFFFFFFFFFFFFFFFFFFFFFFFFF AND PUSH20 0xFFFFFFFFFFFFFFFFFFFFFFFFFFFFFFFFFFFFFFFF AND DUP2 MSTORE PUSH1 0x20 ADD SWAP1 DUP2 MSTORE PUSH1 0x20 ADD PUSH1 0x0 KECCAK256 PUSH1 0x3 ADD PUSH1 0x0 DUP4 DUP2 MSTORE PUSH1 0x20 ADD SWAP1 DUP2 MSTORE PUSH1 0x20 ADD PUSH1 0x0 KECCAK256 PUSH1 0x0 ADD SLOAD GT ISZERO PUSH2 0x1861 JUMPI PUSH1 0x8 PUSH1 0x0 CALLER PUSH20 0xFFFFFFFFFFFFFFFFFFFFFFFFFFFFFFFFFFFFFFFF AND PUSH20 0xFFFFFFFFFFFFFFFFFFFFFFFFFFFFFFFFFFFFFFFF AND DUP2 MSTORE PUSH1 0x20 ADD SWAP1 DUP2 MSTORE PUSH1 0x20 ADD PUSH1 0x0 KECCAK256 PUSH1 0x3 ADD PUSH1 0x0 DUP3 DUP2 MSTORE PUSH1 0x20 ADD SWAP1 DUP2 MSTORE PUSH1 0x20 ADD PUSH1 0x0 KECCAK256 PUSH1 0x1 ADD SLOAD DUP3 DUP3 DUP2 MLOAD DUP2 LT PUSH2 0x1850 JUMPI PUSH2 0x184F PUSH2 0x2526 JUMP JUMPDEST JUMPDEST PUSH1 0x20 MUL PUSH1 0x20 ADD ADD DUP2 DUP2 MSTORE POP POP PUSH2 0x1883 JUMP JUMPDEST PUSH1 0x0 DUP3 DUP3 DUP2 MLOAD DUP2 LT PUSH2 0x1876 JUMPI PUSH2 0x1875 PUSH2 0x2526 JUMP JUMPDEST JUMPDEST PUSH1 0x20 MUL PUSH1 0x20 ADD ADD DUP2 DUP2 MSTORE POP POP JUMPDEST DUP1 DUP1 PUSH2 0x188E SWAP1 PUSH2 0x247F JUMP JUMPDEST SWAP2 POP POP PUSH2 0x177E JUMP JUMPDEST POP DUP1 SWAP2 POP POP SWAP1 JUMP JUMPDEST PUSH1 0x4 SLOAD DUP2 JUMP JUMPDEST PUSH1 0x0 DUP3 SWAP1 POP PUSH1 0x0 PUSH1 0x5 PUSH8 0xFFFFFFFFFFFFFFFF DUP2 GT ISZERO PUSH2 0x18C6 JUMPI PUSH2 0x18C5 PUSH2 0x2555 JUMP JUMPDEST JUMPDEST PUSH1 0x40 MLOAD SWAP1 DUP1 DUP3 MSTORE DUP1 PUSH1 0x20 MUL PUSH1 0x20 ADD DUP3 ADD PUSH1 0x40 MSTORE DUP1 ISZERO PUSH2 0x18F4 JUMPI DUP2 PUSH1 0x20 ADD PUSH1 0x20 DUP3 MUL DUP1 CALLDATASIZE DUP4 CALLDATACOPY DUP1 DUP3 ADD SWAP2 POP POP SWAP1 POP JUMPDEST POP SWAP1 POP PUSH8 0x4563918244F40000 DUP2 PUSH1 0x0 DUP2 MLOAD DUP2 LT PUSH2 0x1914 JUMPI PUSH2 0x1913 PUSH2 0x2526 JUMP JUMPDEST JUMPDEST PUSH1 0x20 MUL PUSH1 0x20 ADD ADD DUP2 DUP2 MSTORE POP POP PUSH8 0x29A2241AF62C0000 DUP2 PUSH1 0x1 DUP2 MLOAD DUP2 LT PUSH2 0x193D JUMPI PUSH2 0x193C PUSH2 0x2526 JUMP JUMPDEST JUMPDEST PUSH1 0x20 MUL PUSH1 0x20 ADD ADD DUP2 DUP2 MSTORE POP POP PUSH8 0x1BC16D674EC80000 DUP2 PUSH1 0x2 DUP2 MLOAD DUP2 LT PUSH2 0x1966 JUMPI PUSH2 0x1965 PUSH2 0x2526 JUMP JUMPDEST JUMPDEST PUSH1 0x20 MUL PUSH1 0x20 ADD ADD DUP2 DUP2 MSTORE POP POP PUSH8 0xDE0B6B3A7640000 DUP2 PUSH1 0x3 DUP2 MLOAD DUP2 LT PUSH2 0x198F JUMPI PUSH2 0x198E PUSH2 0x2526 JUMP JUMPDEST JUMPDEST PUSH1 0x20 MUL PUSH1 0x20 ADD ADD DUP2 DUP2 MSTORE POP POP PUSH8 0x6F05B59D3B20000 DUP2 PUSH1 0x4 DUP2 MLOAD DUP2 LT PUSH2 0x19B8 JUMPI PUSH2 0x19B7 PUSH2 0x2526 JUMP JUMPDEST JUMPDEST PUSH1 0x20 MUL PUSH1 0x20 ADD ADD DUP2 DUP2 MSTORE POP POP PUSH1 0x0 DUP1 PUSH1 0x0 SWAP1 POP JUMPDEST PUSH1 0xA DUP2 LT ISZERO PUSH2 0x1C57 JUMPI PUSH1 0x0 DUP2 EQ ISZERO PUSH2 0x19E7 JUMPI PUSH1 0x0 SWAP2 POP PUSH2 0x1A2F JUMP JUMPDEST PUSH1 0x1 DUP2 EQ ISZERO PUSH2 0x19F9 JUMPI PUSH1 0x1 SWAP2 POP PUSH2 0x1A2E JUMP JUMPDEST PUSH1 0x2 DUP2 EQ ISZERO PUSH2 0x1A0B JUMPI PUSH1 0x2 SWAP2 POP PUSH2 0x1A2D JUMP JUMPDEST PUSH1 0x2 DUP2 GT ISZERO PUSH2 0x1A1D JUMPI PUSH1 0x3 SWAP2 POP PUSH2 0x1A2C JUMP JUMPDEST PUSH1 0x7 DUP2 GT ISZERO PUSH2 0x1A2B JUMPI PUSH1 0x4 SWAP2 POP JUMPDEST JUMPDEST JUMPDEST JUMPDEST JUMPDEST PUSH1 0x0 PUSH20 0xFFFFFFFFFFFFFFFFFFFFFFFFFFFFFFFFFFFFFFFF AND PUSH1 0x8 PUSH1 0x0 DUP7 PUSH20 0xFFFFFFFFFFFFFFFFFFFFFFFFFFFFFFFFFFFFFFFF AND PUSH20 0xFFFFFFFFFFFFFFFFFFFFFFFFFFFFFFFFFFFFFFFF AND DUP2 MSTORE PUSH1 0x20 ADD SWAP1 DUP2 MSTORE PUSH1 0x20 ADD PUSH1 0x0 KECCAK256 PUSH1 0x2 ADD PUSH1 0x0 SWAP1 SLOAD SWAP1 PUSH2 0x100 EXP SWAP1 DIV PUSH20 0xFFFFFFFFFFFFFFFFFFFFFFFFFFFFFFFFFFFFFFFF AND PUSH20 0xFFFFFFFFFFFFFFFFFFFFFFFFFFFFFFFFFFFFFFFF AND EQ PUSH2 0x1C3F JUMPI PUSH1 0x8 PUSH1 0x0 DUP6 PUSH20 0xFFFFFFFFFFFFFFFFFFFFFFFFFFFFFFFFFFFFFFFF AND PUSH20 0xFFFFFFFFFFFFFFFFFFFFFFFFFFFFFFFFFFFFFFFF AND DUP2 MSTORE PUSH1 0x20 ADD SWAP1 DUP2 MSTORE PUSH1 0x20 ADD PUSH1 0x0 KECCAK256 PUSH1 0x2 ADD PUSH1 0x0 SWAP1 SLOAD SWAP1 PUSH2 0x100 EXP SWAP1 DIV PUSH20 0xFFFFFFFFFFFFFFFFFFFFFFFFFFFFFFFFFFFFFFFF AND SWAP4 POP PUSH1 0x0 PUSH1 0x64 DUP7 DUP6 DUP6 DUP2 MLOAD DUP2 LT PUSH2 0x1B42 JUMPI PUSH2 0x1B41 PUSH2 0x2526 JUMP JUMPDEST JUMPDEST PUSH1 0x20 MUL PUSH1 0x20 ADD ADD MLOAD PUSH2 0x1B54 SWAP2 SWAP1 PUSH2 0x23A9 JUMP JUMPDEST PUSH2 0x1B5E SWAP2 SWAP1 PUSH2 0x2378 JUMP JUMPDEST SWAP1 POP DUP1 PUSH1 0x8 PUSH1 0x0 DUP8 PUSH20 0xFFFFFFFFFFFFFFFFFFFFFFFFFFFFFFFFFFFFFFFF AND PUSH20 0xFFFFFFFFFFFFFFFFFFFFFFFFFFFFFFFFFFFFFFFF AND DUP2 MSTORE PUSH1 0x20 ADD SWAP1 DUP2 MSTORE PUSH1 0x20 ADD PUSH1 0x0 KECCAK256 PUSH1 0x3 ADD PUSH1 0x0 DUP5 DUP2 MSTORE PUSH1 0x20 ADD SWAP1 DUP2 MSTORE PUSH1 0x20 ADD PUSH1 0x0 KECCAK256 PUSH1 0x0 ADD PUSH1 0x0 DUP3 DUP3 SLOAD PUSH2 0x1BC6 SWAP2 SWAP1 PUSH2 0x2322 JUMP JUMPDEST SWAP3 POP POP DUP2 SWAP1 SSTORE POP PUSH1 0x8 PUSH1 0x0 DUP7 PUSH20 0xFFFFFFFFFFFFFFFFFFFFFFFFFFFFFFFFFFFFFFFF AND PUSH20 0xFFFFFFFFFFFFFFFFFFFFFFFFFFFFFFFFFFFFFFFF AND DUP2 MSTORE PUSH1 0x20 ADD SWAP1 DUP2 MSTORE PUSH1 0x20 ADD PUSH1 0x0 KECCAK256 PUSH1 0x3 ADD PUSH1 0x0 DUP4 DUP2 MSTORE PUSH1 0x20 ADD SWAP1 DUP2 MSTORE PUSH1 0x20 ADD PUSH1 0x0 KECCAK256 PUSH1 0x1 ADD PUSH1 0x0 DUP2 SLOAD DUP1 SWAP3 SWAP2 SWAP1 PUSH2 0x1C34 SWAP1 PUSH2 0x247F JUMP JUMPDEST SWAP2 SWAP1 POP SSTORE POP POP PUSH2 0x1C44 JUMP JUMPDEST PUSH2 0x1C57 JUMP JUMPDEST DUP1 DUP1 PUSH2 0x1C4F SWAP1 PUSH2 0x247F JUMP JUMPDEST SWAP2 POP POP PUSH2 0x19CC JUMP JUMPDEST POP POP POP POP POP POP JUMP JUMPDEST PUSH1 0x40 MLOAD DUP1 PUSH1 0x80 ADD PUSH1 0x40 MSTORE DUP1 PUSH1 0x0 DUP2 MSTORE PUSH1 0x20 ADD PUSH1 0x0 DUP2 MSTORE PUSH1 0x20 ADD PUSH1 0x0 DUP2 MSTORE PUSH1 0x20 ADD PUSH1 0x0 DUP2 MSTORE POP SWAP1 JUMP JUMPDEST PUSH1 0x0 DUP2 CALLDATALOAD SWAP1 POP PUSH2 0x1C96 DUP2 PUSH2 0x269F JUMP JUMPDEST SWAP3 SWAP2 POP POP JUMP JUMPDEST PUSH1 0x0 DUP2 MLOAD SWAP1 POP PUSH2 0x1CAB DUP2 PUSH2 0x26B6 JUMP JUMPDEST SWAP3 SWAP2 POP POP JUMP JUMPDEST PUSH1 0x0 DUP2 CALLDATALOAD SWAP1 POP PUSH2 0x1CC0 DUP2 PUSH2 0x26CD JUMP JUMPDEST SWAP3 SWAP2 POP POP JUMP JUMPDEST PUSH1 0x0 PUSH1 0x20 DUP3 DUP5 SUB SLT ISZERO PUSH2 0x1CDC JUMPI PUSH2 0x1CDB PUSH2 0x2584 JUMP JUMPDEST JUMPDEST PUSH1 0x0 PUSH2 0x1CEA DUP5 DUP3 DUP6 ADD PUSH2 0x1C87 JUMP JUMPDEST SWAP2 POP POP SWAP3 SWAP2 POP POP JUMP JUMPDEST PUSH1 0x0 PUSH1 0x20 DUP3 DUP5 SUB SLT ISZERO PUSH2 0x1D09 JUMPI PUSH2 0x1D08 PUSH2 0x2584 JUMP JUMPDEST JUMPDEST PUSH1 0x0 PUSH2 0x1D17 DUP5 DUP3 DUP6 ADD PUSH2 0x1C9C JUMP JUMPDEST SWAP2 POP POP SWAP3 SWAP2 POP POP JUMP JUMPDEST PUSH1 0x0 PUSH1 0x20 DUP3 DUP5 SUB SLT ISZERO PUSH2 0x1D36 JUMPI PUSH2 0x1D35 PUSH2 0x2584 JUMP JUMPDEST JUMPDEST PUSH1 0x0 PUSH2 0x1D44 DUP5 DUP3 DUP6 ADD PUSH2 0x1CB1 JUMP JUMPDEST SWAP2 POP POP SWAP3 SWAP2 POP POP JUMP JUMPDEST PUSH1 0x0 DUP1 PUSH1 0x40 DUP4 DUP6 SUB SLT ISZERO PUSH2 0x1D64 JUMPI PUSH2 0x1D63 PUSH2 0x2584 JUMP JUMPDEST JUMPDEST PUSH1 0x0 PUSH2 0x1D72 DUP6 DUP3 DUP7 ADD PUSH2 0x1CB1 JUMP JUMPDEST SWAP3 POP POP PUSH1 0x20 PUSH2 0x1D83 DUP6 DUP3 DUP7 ADD PUSH2 0x1C87 JUMP JUMPDEST SWAP2 POP POP SWAP3 POP SWAP3 SWAP1 POP JUMP JUMPDEST PUSH1 0x0 DUP1 PUSH1 0x0 PUSH1 0x60 DUP5 DUP7 SUB SLT ISZERO PUSH2 0x1DA6 JUMPI PUSH2 0x1DA5 PUSH2 0x2584 JUMP JUMPDEST JUMPDEST PUSH1 0x0 PUSH2 0x1DB4 DUP7 DUP3 DUP8 ADD PUSH2 0x1CB1 JUMP JUMPDEST SWAP4 POP POP PUSH1 0x20 PUSH2 0x1DC5 DUP7 DUP3 DUP8 ADD PUSH2 0x1CB1 JUMP JUMPDEST SWAP3 POP POP PUSH1 0x40 PUSH2 0x1DD6 DUP7 DUP3 DUP8 ADD PUSH2 0x1CB1 JUMP JUMPDEST SWAP2 POP POP SWAP3 POP SWAP3 POP SWAP3 JUMP JUMPDEST PUSH1 0x0 PUSH2 0x1DEC DUP4 DUP4 PUSH2 0x1E28 JUMP JUMPDEST PUSH1 0x20 DUP4 ADD SWAP1 POP SWAP3 SWAP2 POP POP JUMP JUMPDEST PUSH1 0x0 PUSH2 0x1E04 DUP4 DUP4 PUSH2 0x1FFB JUMP JUMPDEST PUSH1 0x80 DUP4 ADD SWAP1 POP SWAP3 SWAP2 POP POP JUMP JUMPDEST PUSH1 0x0 PUSH2 0x1E1C DUP4 DUP4 PUSH2 0x2050 JUMP JUMPDEST PUSH1 0x20 DUP4 ADD SWAP1 POP SWAP3 SWAP2 POP POP JUMP JUMPDEST PUSH2 0x1E31 DUP2 PUSH2 0x2437 JUMP JUMPDEST DUP3 MSTORE POP POP JUMP JUMPDEST PUSH2 0x1E40 DUP2 PUSH2 0x2437 JUMP JUMPDEST DUP3 MSTORE POP POP JUMP JUMPDEST PUSH1 0x0 PUSH2 0x1E51 DUP3 PUSH2 0x2296 JUMP JUMPDEST PUSH2 0x1E5B DUP2 DUP6 PUSH2 0x22DE JUMP JUMPDEST SWAP4 POP PUSH2 0x1E66 DUP4 PUSH2 0x2266 JUMP JUMPDEST DUP1 PUSH1 0x0 JUMPDEST DUP4 DUP2 LT ISZERO PUSH2 0x1E97 JUMPI DUP2 MLOAD PUSH2 0x1E7E DUP9 DUP3 PUSH2 0x1DE0 JUMP JUMPDEST SWAP8 POP PUSH2 0x1E89 DUP4 PUSH2 0x22B7 JUMP JUMPDEST SWAP3 POP POP PUSH1 0x1 DUP2 ADD SWAP1 POP PUSH2 0x1E6A JUMP JUMPDEST POP DUP6 SWAP4 POP POP POP POP SWAP3 SWAP2 POP POP JUMP JUMPDEST PUSH1 0x0 PUSH2 0x1EAF DUP3 PUSH2 0x22A1 JUMP JUMPDEST PUSH2 0x1EB9 DUP2 DUP6 PUSH2 0x22EF JUMP JUMPDEST SWAP4 POP PUSH2 0x1EC4 DUP4 PUSH2 0x2276 JUMP JUMPDEST DUP1 PUSH1 0x0 JUMPDEST DUP4 DUP2 LT ISZERO PUSH2 0x1EF5 JUMPI DUP2 MLOAD PUSH2 0x1EDC DUP9 DUP3 PUSH2 0x1DF8 JUMP JUMPDEST SWAP8 POP PUSH2 0x1EE7 DUP4 PUSH2 0x22C4 JUMP JUMPDEST SWAP3 POP POP PUSH1 0x1 DUP2 ADD SWAP1 POP PUSH2 0x1EC8 JUMP JUMPDEST POP DUP6 SWAP4 POP POP POP POP SWAP3 SWAP2 POP POP JUMP JUMPDEST PUSH1 0x0 PUSH2 0x1F0D DUP3 PUSH2 0x22AC JUMP JUMPDEST PUSH2 0x1F17 DUP2 DUP6 PUSH2 0x2300 JUMP JUMPDEST SWAP4 POP PUSH2 0x1F22 DUP4 PUSH2 0x2286 JUMP JUMPDEST DUP1 PUSH1 0x0 JUMPDEST DUP4 DUP2 LT ISZERO PUSH2 0x1F53 JUMPI DUP2 MLOAD PUSH2 0x1F3A DUP9 DUP3 PUSH2 0x1E10 JUMP JUMPDEST SWAP8 POP PUSH2 0x1F45 DUP4 PUSH2 0x22D1 JUMP JUMPDEST SWAP3 POP POP PUSH1 0x1 DUP2 ADD SWAP1 POP PUSH2 0x1F26 JUMP JUMPDEST POP DUP6 SWAP4 POP POP POP POP SWAP3 SWAP2 POP POP JUMP JUMPDEST PUSH2 0x1F69 DUP2 PUSH2 0x2449 JUMP JUMPDEST DUP3 MSTORE POP POP JUMP JUMPDEST PUSH1 0x0 PUSH2 0x1F7C PUSH1 0x25 DUP4 PUSH2 0x2311 JUMP JUMPDEST SWAP2 POP PUSH2 0x1F87 DUP3 PUSH2 0x2589 JUMP JUMPDEST PUSH1 0x40 DUP3 ADD SWAP1 POP SWAP2 SWAP1 POP JUMP JUMPDEST PUSH1 0x0 PUSH2 0x1F9F PUSH1 0x22 DUP4 PUSH2 0x2311 JUMP JUMPDEST SWAP2 POP PUSH2 0x1FAA DUP3 PUSH2 0x25D8 JUMP JUMPDEST PUSH1 0x40 DUP3 ADD SWAP1 POP SWAP2 SWAP1 POP JUMP JUMPDEST PUSH1 0x0 PUSH2 0x1FC2 PUSH1 0x21 DUP4 PUSH2 0x2311 JUMP JUMPDEST SWAP2 POP PUSH2 0x1FCD DUP3 PUSH2 0x2627 JUMP JUMPDEST PUSH1 0x40 DUP3 ADD SWAP1 POP SWAP2 SWAP1 POP JUMP JUMPDEST PUSH1 0x0 PUSH2 0x1FE5 PUSH1 0x1F DUP4 PUSH2 0x2311 JUMP JUMPDEST SWAP2 POP PUSH2 0x1FF0 DUP3 PUSH2 0x2676 JUMP JUMPDEST PUSH1 0x20 DUP3 ADD SWAP1 POP SWAP2 SWAP1 POP JUMP JUMPDEST PUSH1 0x80 DUP3 ADD PUSH1 0x0 DUP3 ADD MLOAD PUSH2 0x2011 PUSH1 0x0 DUP6 ADD DUP3 PUSH2 0x2050 JUMP JUMPDEST POP PUSH1 0x20 DUP3 ADD MLOAD PUSH2 0x2024 PUSH1 0x20 DUP6 ADD DUP3 PUSH2 0x2050 JUMP JUMPDEST POP PUSH1 0x40 DUP3 ADD MLOAD PUSH2 0x2037 PUSH1 0x40 DUP6 ADD DUP3 PUSH2 0x2050 JUMP JUMPDEST POP PUSH1 0x60 DUP3 ADD MLOAD PUSH2 0x204A PUSH1 0x60 DUP6 ADD DUP3 PUSH2 0x2050 JUMP JUMPDEST POP POP POP POP JUMP JUMPDEST PUSH2 0x2059 DUP2 PUSH2 0x2475 JUMP JUMPDEST DUP3 MSTORE POP POP JUMP JUMPDEST PUSH2 0x2068 DUP2 PUSH2 0x2475 JUMP JUMPDEST DUP3 MSTORE POP POP JUMP JUMPDEST PUSH1 0x0 PUSH1 0x20 DUP3 ADD SWAP1 POP PUSH2 0x2083 PUSH1 0x0 DUP4 ADD DUP5 PUSH2 0x1E37 JUMP JUMPDEST SWAP3 SWAP2 POP POP JUMP JUMPDEST PUSH1 0x0 PUSH1 0x60 DUP3 ADD SWAP1 POP PUSH2 0x209E PUSH1 0x0 DUP4 ADD DUP7 PUSH2 0x1E37 JUMP JUMPDEST PUSH2 0x20AB PUSH1 0x20 DUP4 ADD DUP6 PUSH2 0x1E37 JUMP JUMPDEST PUSH2 0x20B8 PUSH1 0x40 DUP4 ADD DUP5 PUSH2 0x205F JUMP JUMPDEST SWAP5 SWAP4 POP POP POP POP JUMP JUMPDEST PUSH1 0x0 PUSH1 0x40 DUP3 ADD SWAP1 POP PUSH2 0x20D5 PUSH1 0x0 DUP4 ADD DUP6 PUSH2 0x1E37 JUMP JUMPDEST PUSH2 0x20E2 PUSH1 0x20 DUP4 ADD DUP5 PUSH2 0x205F JUMP JUMPDEST SWAP4 SWAP3 POP POP POP JUMP JUMPDEST PUSH1 0x0 PUSH1 0xC0 DUP3 ADD SWAP1 POP PUSH2 0x20FE PUSH1 0x0 DUP4 ADD DUP10 PUSH2 0x1E37 JUMP JUMPDEST PUSH2 0x210B PUSH1 0x20 DUP4 ADD DUP9 PUSH2 0x205F JUMP JUMPDEST PUSH2 0x2118 PUSH1 0x40 DUP4 ADD DUP8 PUSH2 0x205F JUMP JUMPDEST PUSH2 0x2125 PUSH1 0x60 DUP4 ADD DUP7 PUSH2 0x205F JUMP JUMPDEST PUSH2 0x2132 PUSH1 0x80 DUP4 ADD DUP6 PUSH2 0x205F JUMP JUMPDEST PUSH2 0x213F PUSH1 0xA0 DUP4 ADD DUP5 PUSH2 0x1F60 JUMP JUMPDEST SWAP8 SWAP7 POP POP POP POP POP POP POP JUMP JUMPDEST PUSH1 0x0 PUSH1 0x20 DUP3 ADD SWAP1 POP DUP2 DUP2 SUB PUSH1 0x0 DUP4 ADD MSTORE PUSH2 0x2164 DUP2 DUP5 PUSH2 0x1E46 JUMP JUMPDEST SWAP1 POP SWAP3 SWAP2 POP POP JUMP JUMPDEST PUSH1 0x0 PUSH1 0x20 DUP3 ADD SWAP1 POP DUP2 DUP2 SUB PUSH1 0x0 DUP4 ADD MSTORE PUSH2 0x2186 DUP2 DUP5 PUSH2 0x1EA4 JUMP JUMPDEST SWAP1 POP SWAP3 SWAP2 POP POP JUMP JUMPDEST PUSH1 0x0 PUSH1 0x20 DUP3 ADD SWAP1 POP DUP2 DUP2 SUB PUSH1 0x0 DUP4 ADD MSTORE PUSH2 0x21A8 DUP2 DUP5 PUSH2 0x1F02 JUMP JUMPDEST SWAP1 POP SWAP3 SWAP2 POP POP JUMP JUMPDEST PUSH1 0x0 PUSH1 0x20 DUP3 ADD SWAP1 POP PUSH2 0x21C5 PUSH1 0x0 DUP4 ADD DUP5 PUSH2 0x1F60 JUMP JUMPDEST SWAP3 SWAP2 POP POP JUMP JUMPDEST PUSH1 0x0 PUSH1 0x20 DUP3 ADD SWAP1 POP DUP2 DUP2 SUB PUSH1 0x0 DUP4 ADD MSTORE PUSH2 0x21E4 DUP2 PUSH2 0x1F6F JUMP JUMPDEST SWAP1 POP SWAP2 SWAP1 POP JUMP JUMPDEST PUSH1 0x0 PUSH1 0x20 DUP3 ADD SWAP1 POP DUP2 DUP2 SUB PUSH1 0x0 DUP4 ADD MSTORE PUSH2 0x2204 DUP2 PUSH2 0x1F92 JUMP JUMPDEST SWAP1 POP SWAP2 SWAP1 POP JUMP JUMPDEST PUSH1 0x0 PUSH1 0x20 DUP3 ADD SWAP1 POP DUP2 DUP2 SUB PUSH1 0x0 DUP4 ADD MSTORE PUSH2 0x2224 DUP2 PUSH2 0x1FB5 JUMP JUMPDEST SWAP1 POP SWAP2 SWAP1 POP JUMP JUMPDEST PUSH1 0x0 PUSH1 0x20 DUP3 ADD SWAP1 POP DUP2 DUP2 SUB PUSH1 0x0 DUP4 ADD MSTORE PUSH2 0x2244 DUP2 PUSH2 0x1FD8 JUMP JUMPDEST SWAP1 POP SWAP2 SWAP1 POP JUMP JUMPDEST PUSH1 0x0 PUSH1 0x20 DUP3 ADD SWAP1 POP PUSH2 0x2260 PUSH1 0x0 DUP4 ADD DUP5 PUSH2 0x205F JUMP JUMPDEST SWAP3 SWAP2 POP POP JUMP JUMPDEST PUSH1 0x0 DUP2 SWAP1 POP PUSH1 0x20 DUP3 ADD SWAP1 POP SWAP2 SWAP1 POP JUMP JUMPDEST PUSH1 0x0 DUP2 SWAP1 POP PUSH1 0x20 DUP3 ADD SWAP1 POP SWAP2 SWAP1 POP JUMP JUMPDEST PUSH1 0x0 DUP2 SWAP1 POP PUSH1 0x20 DUP3 ADD SWAP1 POP SWAP2 SWAP1 POP JUMP JUMPDEST PUSH1 0x0 DUP2 MLOAD SWAP1 POP SWAP2 SWAP1 POP JUMP JUMPDEST PUSH1 0x0 DUP2 MLOAD SWAP1 POP SWAP2 SWAP1 POP JUMP JUMPDEST PUSH1 0x0 DUP2 MLOAD SWAP1 POP SWAP2 SWAP1 POP JUMP JUMPDEST PUSH1 0x0 PUSH1 0x20 DUP3 ADD SWAP1 POP SWAP2 SWAP1 POP JUMP JUMPDEST PUSH1 0x0 PUSH1 0x20 DUP3 ADD SWAP1 POP SWAP2 SWAP1 POP JUMP JUMPDEST PUSH1 0x0 PUSH1 0x20 DUP3 ADD SWAP1 POP SWAP2 SWAP1 POP JUMP JUMPDEST PUSH1 0x0 DUP3 DUP3 MSTORE PUSH1 0x20 DUP3 ADD SWAP1 POP SWAP3 SWAP2 POP POP JUMP JUMPDEST PUSH1 0x0 DUP3 DUP3 MSTORE PUSH1 0x20 DUP3 ADD SWAP1 POP SWAP3 SWAP2 POP POP JUMP JUMPDEST PUSH1 0x0 DUP3 DUP3 MSTORE PUSH1 0x20 DUP3 ADD SWAP1 POP SWAP3 SWAP2 POP POP JUMP JUMPDEST PUSH1 0x0 DUP3 DUP3 MSTORE PUSH1 0x20 DUP3 ADD SWAP1 POP SWAP3 SWAP2 POP POP JUMP JUMPDEST PUSH1 0x0 PUSH2 0x232D DUP3 PUSH2 0x2475 JUMP JUMPDEST SWAP2 POP PUSH2 0x2338 DUP4 PUSH2 0x2475 JUMP JUMPDEST SWAP3 POP DUP3 PUSH32 0xFFFFFFFFFFFFFFFFFFFFFFFFFFFFFFFFFFFFFFFFFFFFFFFFFFFFFFFFFFFFFFFF SUB DUP3 GT ISZERO PUSH2 0x236D JUMPI PUSH2 0x236C PUSH2 0x24C8 JUMP JUMPDEST JUMPDEST DUP3 DUP3 ADD SWAP1 POP SWAP3 SWAP2 POP POP JUMP JUMPDEST PUSH1 0x0 PUSH2 0x2383 DUP3 PUSH2 0x2475 JUMP JUMPDEST SWAP2 POP PUSH2 0x238E DUP4 PUSH2 0x2475 JUMP JUMPDEST SWAP3 POP DUP3 PUSH2 0x239E JUMPI PUSH2 0x239D PUSH2 0x24F7 JUMP JUMPDEST JUMPDEST DUP3 DUP3 DIV SWAP1 POP SWAP3 SWAP2 POP POP JUMP JUMPDEST PUSH1 0x0 PUSH2 0x23B4 DUP3 PUSH2 0x2475 JUMP JUMPDEST SWAP2 POP PUSH2 0x23BF DUP4 PUSH2 0x2475 JUMP JUMPDEST SWAP3 POP DUP2 PUSH32 0xFFFFFFFFFFFFFFFFFFFFFFFFFFFFFFFFFFFFFFFFFFFFFFFFFFFFFFFFFFFFFFFF DIV DUP4 GT DUP3 ISZERO ISZERO AND ISZERO PUSH2 0x23F8 JUMPI PUSH2 0x23F7 PUSH2 0x24C8 JUMP JUMPDEST JUMPDEST DUP3 DUP3 MUL SWAP1 POP SWAP3 SWAP2 POP POP JUMP JUMPDEST PUSH1 0x0 PUSH2 0x240E DUP3 PUSH2 0x2475 JUMP JUMPDEST SWAP2 POP PUSH2 0x2419 DUP4 PUSH2 0x2475 JUMP JUMPDEST SWAP3 POP DUP3 DUP3 LT ISZERO PUSH2 0x242C JUMPI PUSH2 0x242B PUSH2 0x24C8 JUMP JUMPDEST JUMPDEST DUP3 DUP3 SUB SWAP1 POP SWAP3 SWAP2 POP POP JUMP JUMPDEST PUSH1 0x0 PUSH2 0x2442 DUP3 PUSH2 0x2455 JUMP JUMPDEST SWAP1 POP SWAP2 SWAP1 POP JUMP JUMPDEST PUSH1 0x0 DUP2 ISZERO ISZERO SWAP1 POP SWAP2 SWAP1 POP JUMP JUMPDEST PUSH1 0x0 PUSH20 0xFFFFFFFFFFFFFFFFFFFFFFFFFFFFFFFFFFFFFFFF DUP3 AND SWAP1 POP SWAP2 SWAP1 POP JUMP JUMPDEST PUSH1 0x0 DUP2 SWAP1 POP SWAP2 SWAP1 POP JUMP JUMPDEST PUSH1 0x0 PUSH2 0x248A DUP3 PUSH2 0x2475 JUMP JUMPDEST SWAP2 POP PUSH32 0xFFFFFFFFFFFFFFFFFFFFFFFFFFFFFFFFFFFFFFFFFFFFFFFFFFFFFFFFFFFFFFFF DUP3 EQ ISZERO PUSH2 0x24BD JUMPI PUSH2 0x24BC PUSH2 0x24C8 JUMP JUMPDEST JUMPDEST PUSH1 0x1 DUP3 ADD SWAP1 POP SWAP2 SWAP1 POP JUMP JUMPDEST PUSH32 0x4E487B7100000000000000000000000000000000000000000000000000000000 PUSH1 0x0 MSTORE PUSH1 0x11 PUSH1 0x4 MSTORE PUSH1 0x24 PUSH1 0x0 REVERT JUMPDEST PUSH32 0x4E487B7100000000000000000000000000000000000000000000000000000000 PUSH1 0x0 MSTORE PUSH1 0x12 PUSH1 0x4 MSTORE PUSH1 0x24 PUSH1 0x0 REVERT JUMPDEST PUSH32 0x4E487B7100000000000000000000000000000000000000000000000000000000 PUSH1 0x0 MSTORE PUSH1 0x32 PUSH1 0x4 MSTORE PUSH1 0x24 PUSH1 0x0 REVERT JUMPDEST PUSH32 0x4E487B7100000000000000000000000000000000000000000000000000000000 PUSH1 0x0 MSTORE PUSH1 0x41 PUSH1 0x4 MSTORE PUSH1 0x24 PUSH1 0x0 REVERT JUMPDEST PUSH1 0x0 DUP1 REVERT JUMPDEST PUSH32 0x796F7520646F6E74206861766520696E766573746D656E7420746F2077697468 PUSH1 0x0 DUP3 ADD MSTORE PUSH32 0x647261776E000000000000000000000000000000000000000000000000000000 PUSH1 0x20 DUP3 ADD MSTORE POP JUMP JUMPDEST PUSH32 0x796F7520646F6E742068617665207265776172647320746F2077697468647261 PUSH1 0x0 DUP3 ADD MSTORE PUSH32 0x776E000000000000000000000000000000000000000000000000000000000000 PUSH1 0x20 DUP3 ADD MSTORE POP JUMP JUMPDEST PUSH32 0x6F6E6C79204F776E65722063616E2063616C6C20746869732066756E6374696F PUSH1 0x0 DUP3 ADD MSTORE PUSH32 0x6E00000000000000000000000000000000000000000000000000000000000000 PUSH1 0x20 DUP3 ADD MSTORE POP JUMP JUMPDEST PUSH32 0x76616C7565206973206E6F742067726561746572207468616E20313030303000 PUSH1 0x0 DUP3 ADD MSTORE POP JUMP JUMPDEST PUSH2 0x26A8 DUP2 PUSH2 0x2437 JUMP JUMPDEST DUP2 EQ PUSH2 0x26B3 JUMPI PUSH1 0x0 DUP1 REVERT JUMPDEST POP JUMP JUMPDEST PUSH2 0x26BF DUP2 PUSH2 0x2449 JUMP JUMPDEST DUP2 EQ PUSH2 0x26CA JUMPI PUSH1 0x0 DUP1 REVERT JUMPDEST POP JUMP JUMPDEST PUSH2 0x26D6 DUP2 PUSH2 0x2475 JUMP JUMPDEST DUP2 EQ PUSH2 0x26E1 JUMPI PUSH1 0x0 DUP1 REVERT JUMPDEST POP JUMP INVALID LOG2 PUSH5 0x6970667358 0x22 SLT KECCAK256 0x2D 0xA6 PUSH10 0x32B8F042A0A465A827D8 INVALID 0xD5 0xE6 PUSH29 0x7B33D13EA86A2726A03D19CA2CC6C064736F6C63430008070033000000 "
				},
				"gasEstimates": {
					"creation": {
						"codeDepositCost": "2002000",
						"executionCost": "163344",
						"totalCost": "2165344"
					},
					"external": {
						"DUSDReferralsList()": "infinite",
						"DUSDTotalReferrals()": "2608",
						"DUSDinvestor(address)": "infinite",
						"Stake(uint256,address)": "infinite",
						"getAllDUSDinvestments()": "infinite",
						"getReward()": "infinite",
						"getTotalInvestmentDUSD()": "2599",
						"owner()": "2556",
						"referralLevel_count()": "infinite",
						"referralLevel_earning()": "infinite",
						"rewardToken()": "2539",
						"setReward(uint256)": "22610",
						"set_max_Stake_amount(uint256)": "22631",
						"set_min_Stake_amount(uint256)": "22565",
						"set_values(uint256,uint256,uint256)": "infinite",
						"totalDUSDInvestors()": "2475",
						"transferOwnership(address)": "26955",
						"unStake(uint256)": "infinite",
						"withdrawReward()": "infinite"
					},
					"internal": {
						"sendRewardToDUSDReferrals(address,uint256)": "infinite"
					}
				},
				"methodIdentifiers": {
					"DUSDReferralsList()": "0c5f58f4",
					"DUSDTotalReferrals()": "1e8aba35",
					"DUSDinvestor(address)": "d3560ee8",
					"Stake(uint256,address)": "2bccdce6",
					"getAllDUSDinvestments()": "3a1e0833",
					"getReward()": "3d18b912",
					"getTotalInvestmentDUSD()": "929f6bbe",
					"owner()": "8da5cb5b",
					"referralLevel_count()": "f790b81a",
					"referralLevel_earning()": "a61be99d",
					"rewardToken()": "f7c618c1",
					"setReward(uint256)": "293be456",
					"set_max_Stake_amount(uint256)": "500cb85f",
					"set_min_Stake_amount(uint256)": "32d4e783",
					"set_values(uint256,uint256,uint256)": "ce10db0a",
					"totalDUSDInvestors()": "10cde60a",
					"transferOwnership(address)": "f2fde38b",
					"unStake(uint256)": "5d3eea91",
					"withdrawReward()": "c885bc58"
				}
			},
			"storageLayout": {
				"storage": [
					{
						"astId": 24,
						"contract": "contracts/stake_reward_MLM.sol:Invest",
						"label": "owner",
						"offset": 0,
						"slot": "0",
						"type": "t_address"
					},
					{
						"astId": 27,
						"contract": "contracts/stake_reward_MLM.sol:Invest",
						"label": "SMCcontract",
						"offset": 0,
						"slot": "1",
						"type": "t_address"
					},
					{
						"astId": 30,
						"contract": "contracts/stake_reward_MLM.sol:Invest",
						"label": "BUSDcontract",
						"offset": 0,
						"slot": "2",
						"type": "t_address"
					},
					{
						"astId": 32,
						"contract": "contracts/stake_reward_MLM.sol:Invest",
						"label": "totalDUSDInvestors",
						"offset": 0,
						"slot": "3",
						"type": "t_uint256"
					},
					{
						"astId": 35,
						"contract": "contracts/stake_reward_MLM.sol:Invest",
						"label": "rewardToken",
						"offset": 0,
						"slot": "4",
						"type": "t_uint256"
					},
					{
						"astId": 38,
						"contract": "contracts/stake_reward_MLM.sol:Invest",
						"label": "min_Stake_amount",
						"offset": 0,
						"slot": "5",
						"type": "t_uint256"
					},
					{
						"astId": 41,
						"contract": "contracts/stake_reward_MLM.sol:Invest",
						"label": "max_Stake_amount",
						"offset": 0,
						"slot": "6",
						"type": "t_uint256"
					},
					{
						"astId": 44,
						"contract": "contracts/stake_reward_MLM.sol:Invest",
						"label": "investmentPeriod",
						"offset": 0,
						"slot": "7",
						"type": "t_uint256"
					},
					{
						"astId": 89,
						"contract": "contracts/stake_reward_MLM.sol:Invest",
						"label": "DUSDinvestor",
						"offset": 0,
						"slot": "8",
						"type": "t_mapping(t_address,t_struct(Data)84_storage)"
					}
				],
				"types": {
					"t_address": {
						"encoding": "inplace",
						"label": "address",
						"numberOfBytes": "20"
					},
					"t_array(t_address)dyn_storage": {
						"base": "t_address",
						"encoding": "dynamic_array",
						"label": "address[]",
						"numberOfBytes": "32"
					},
					"t_bool": {
						"encoding": "inplace",
						"label": "bool",
						"numberOfBytes": "1"
					},
					"t_mapping(t_address,t_struct(Data)84_storage)": {
						"encoding": "mapping",
						"key": "t_address",
						"label": "mapping(address => struct Invest.Data)",
						"numberOfBytes": "32",
						"value": "t_struct(Data)84_storage"
					},
					"t_mapping(t_uint256,t_struct(allInvestments)53_storage)": {
						"encoding": "mapping",
						"key": "t_uint256",
						"label": "mapping(uint256 => struct Invest.allInvestments)",
						"numberOfBytes": "32",
						"value": "t_struct(allInvestments)53_storage"
					},
					"t_mapping(t_uint256,t_struct(ref_data)58_storage)": {
						"encoding": "mapping",
						"key": "t_uint256",
						"label": "mapping(uint256 => struct Invest.ref_data)",
						"numberOfBytes": "32",
						"value": "t_struct(ref_data)58_storage"
					},
					"t_struct(Data)84_storage": {
						"encoding": "inplace",
						"label": "struct Invest.Data",
						"members": [
							{
								"astId": 63,
								"contract": "contracts/stake_reward_MLM.sol:Invest",
								"label": "investment",
								"offset": 0,
								"slot": "0",
								"type": "t_mapping(t_uint256,t_struct(allInvestments)53_storage)"
							},
							{
								"astId": 66,
								"contract": "contracts/stake_reward_MLM.sol:Invest",
								"label": "hisReferrals",
								"offset": 0,
								"slot": "1",
								"type": "t_array(t_address)dyn_storage"
							},
							{
								"astId": 68,
								"contract": "contracts/stake_reward_MLM.sol:Invest",
								"label": "referralFrom",
								"offset": 0,
								"slot": "2",
								"type": "t_address"
							},
							{
								"astId": 73,
								"contract": "contracts/stake_reward_MLM.sol:Invest",
								"label": "referralLevel",
								"offset": 0,
								"slot": "3",
								"type": "t_mapping(t_uint256,t_struct(ref_data)58_storage)"
							},
							{
								"astId": 75,
								"contract": "contracts/stake_reward_MLM.sol:Invest",
								"label": "reward",
								"offset": 0,
								"slot": "4",
								"type": "t_uint256"
							},
							{
								"astId": 77,
								"contract": "contracts/stake_reward_MLM.sol:Invest",
								"label": "noOfInvestment",
								"offset": 0,
								"slot": "5",
								"type": "t_uint256"
							},
							{
								"astId": 79,
								"contract": "contracts/stake_reward_MLM.sol:Invest",
								"label": "totalInvestment",
								"offset": 0,
								"slot": "6",
								"type": "t_uint256"
							},
							{
								"astId": 81,
								"contract": "contracts/stake_reward_MLM.sol:Invest",
								"label": "totalWithdraw_reward",
								"offset": 0,
								"slot": "7",
								"type": "t_uint256"
							},
							{
								"astId": 83,
								"contract": "contracts/stake_reward_MLM.sol:Invest",
								"label": "investBefore",
								"offset": 0,
								"slot": "8",
								"type": "t_bool"
							}
						],
						"numberOfBytes": "288"
					},
					"t_struct(allInvestments)53_storage": {
						"encoding": "inplace",
						"label": "struct Invest.allInvestments",
						"members": [
							{
								"astId": 46,
								"contract": "contracts/stake_reward_MLM.sol:Invest",
								"label": "investedAmount",
								"offset": 0,
								"slot": "0",
								"type": "t_uint256"
							},
							{
								"astId": 48,
								"contract": "contracts/stake_reward_MLM.sol:Invest",
								"label": "withdrawnTime",
								"offset": 0,
								"slot": "1",
								"type": "t_uint256"
							},
							{
								"astId": 50,
								"contract": "contracts/stake_reward_MLM.sol:Invest",
								"label": "DepositTime",
								"offset": 0,
								"slot": "2",
								"type": "t_uint256"
							},
							{
								"astId": 52,
								"contract": "contracts/stake_reward_MLM.sol:Invest",
								"label": "investmentNum",
								"offset": 0,
								"slot": "3",
								"type": "t_uint256"
							}
						],
						"numberOfBytes": "128"
					},
					"t_struct(ref_data)58_storage": {
						"encoding": "inplace",
						"label": "struct Invest.ref_data",
						"members": [
							{
								"astId": 55,
								"contract": "contracts/stake_reward_MLM.sol:Invest",
								"label": "reward",
								"offset": 0,
								"slot": "0",
								"type": "t_uint256"
							},
							{
								"astId": 57,
								"contract": "contracts/stake_reward_MLM.sol:Invest",
								"label": "count",
								"offset": 0,
								"slot": "1",
								"type": "t_uint256"
							}
						],
						"numberOfBytes": "64"
					},
					"t_uint256": {
						"encoding": "inplace",
						"label": "uint256",
						"numberOfBytes": "32"
					}
				}
			},
			"userdoc": {
				"kind": "user",
				"methods": {},
				"version": 1
			}
		}
	}
}