{
	"contracts/fund_transfer.sol": {
		"NFT": {
			"abi": [
				{
					"inputs": [],
					"name": "Diamond",
					"outputs": [
						{
							"internalType": "uint256",
							"name": "",
							"type": "uint256"
						}
					],
					"stateMutability": "view",
					"type": "function"
				},
				{
					"inputs": [
						{
							"internalType": "uint256",
							"name": "nft",
							"type": "uint256"
						}
					],
					"name": "NFT_Funds",
					"outputs": [
						{
							"internalType": "bool",
							"name": "",
							"type": "bool"
						}
					],
					"stateMutability": "payable",
					"type": "function"
				},
				{
					"inputs": [],
					"name": "Silver",
					"outputs": [
						{
							"internalType": "uint256",
							"name": "",
							"type": "uint256"
						}
					],
					"stateMutability": "view",
					"type": "function"
				},
				{
					"inputs": [],
					"name": "gold",
					"outputs": [
						{
							"internalType": "uint256",
							"name": "",
							"type": "uint256"
						}
					],
					"stateMutability": "view",
					"type": "function"
				},
				{
					"inputs": [],
					"name": "owner",
					"outputs": [
						{
							"internalType": "address payable",
							"name": "",
							"type": "address"
						}
					],
					"stateMutability": "view",
					"type": "function"
				},
				{
					"inputs": [
						{
							"internalType": "uint256",
							"name": "_Diamond",
							"type": "uint256"
						}
					],
					"name": "set_Diamond",
					"outputs": [],
					"stateMutability": "nonpayable",
					"type": "function"
				},
				{
					"inputs": [
						{
							"internalType": "uint256",
							"name": "_silver",
							"type": "uint256"
						}
					],
					"name": "set_Silver",
					"outputs": [],
					"stateMutability": "nonpayable",
					"type": "function"
				},
				{
					"inputs": [
						{
							"internalType": "uint256",
							"name": "_gold",
							"type": "uint256"
						}
					],
					"name": "set_gold",
					"outputs": [],
					"stateMutability": "nonpayable",
					"type": "function"
				}
			],
			"devdoc": {
				"kind": "dev",
				"methods": {},
				"version": 1
			},
			"evm": {
				"assembly": "    /* \"contracts/fund_transfer.sol\":57:932  contract NFT {... */\n  mstore(0x40, 0x80)\n    /* \"contracts/fund_transfer.sol\":131:141  0.65 ether */\n  0x0905438e60010000\n    /* \"contracts/fund_transfer.sol\":112:141  uint public gold = 0.65 ether */\n  0x01\n  sstore\n    /* \"contracts/fund_transfer.sol\":169:179  0.35 ether */\n  0x04db732547630000\n    /* \"contracts/fund_transfer.sol\":148:179  uint public Silver = 0.35 ether */\n  0x02\n  sstore\n    /* \"contracts/fund_transfer.sol\":208:218  1.25 ether */\n  0x1158e460913d0000\n    /* \"contracts/fund_transfer.sol\":186:218  uint public Diamond = 1.25 ether */\n  0x03\n  sstore\n    /* \"contracts/fund_transfer.sol\":57:932  contract NFT {... */\n  callvalue\n  dup1\n  iszero\n  tag_1\n  jumpi\n  0x00\n  dup1\n  revert\ntag_1:\n  pop\n  dataSize(sub_0)\n  dup1\n  dataOffset(sub_0)\n  0x00\n  codecopy\n  0x00\n  return\nstop\n\nsub_0: assembly {\n        /* \"contracts/fund_transfer.sol\":57:932  contract NFT {... */\n      mstore(0x40, 0x80)\n      jumpi(tag_1, lt(calldatasize, 0x04))\n      shr(0xe0, calldataload(0x00))\n      dup1\n      0xac2bcce4\n      gt\n      tag_10\n      jumpi\n      dup1\n      0xac2bcce4\n      eq\n      tag_6\n      jumpi\n      dup1\n      0xed90e88a\n      eq\n      tag_7\n      jumpi\n      dup1\n      0xfbec6f21\n      eq\n      tag_8\n      jumpi\n      dup1\n      0xfe275280\n      eq\n      tag_9\n      jumpi\n      jump(tag_1)\n    tag_10:\n      dup1\n      0x08e983b4\n      eq\n      tag_2\n      jumpi\n      dup1\n      0x1d0771b0\n      eq\n      tag_3\n      jumpi\n      dup1\n      0x6b7d5205\n      eq\n      tag_4\n      jumpi\n      dup1\n      0x8da5cb5b\n      eq\n      tag_5\n      jumpi\n    tag_1:\n      0x00\n      dup1\n      revert\n        /* \"contracts/fund_transfer.sol\":850:928  function set_Diamond(uint _Diamond) public{... */\n    tag_2:\n      callvalue\n      dup1\n      iszero\n      tag_11\n      jumpi\n      0x00\n      dup1\n      revert\n    tag_11:\n      pop\n      tag_12\n      0x04\n      dup1\n      calldatasize\n      sub\n      dup2\n      add\n      swap1\n      tag_13\n      swap2\n      swap1\n      tag_14\n      jump\t// in\n    tag_13:\n      tag_15\n      jump\t// in\n    tag_12:\n      stop\n        /* \"contracts/fund_transfer.sol\":778:844  function set_gold(uint _gold) public{... */\n    tag_3:\n      callvalue\n      dup1\n      iszero\n      tag_16\n      jumpi\n      0x00\n      dup1\n      revert\n    tag_16:\n      pop\n      tag_17\n      0x04\n      dup1\n      calldatasize\n      sub\n      dup2\n      add\n      swap1\n      tag_18\n      swap2\n      swap1\n      tag_14\n      jump\t// in\n    tag_18:\n      tag_19\n      jump\t// in\n    tag_17:\n      stop\n        /* \"contracts/fund_transfer.sol\":186:218  uint public Diamond = 1.25 ether */\n    tag_4:\n      callvalue\n      dup1\n      iszero\n      tag_20\n      jumpi\n      0x00\n      dup1\n      revert\n    tag_20:\n      pop\n      tag_21\n      tag_22\n      jump\t// in\n    tag_21:\n      mload(0x40)\n      tag_23\n      swap2\n      swap1\n      tag_24\n      jump\t// in\n    tag_23:\n      mload(0x40)\n      dup1\n      swap2\n      sub\n      swap1\n      return\n        /* \"contracts/fund_transfer.sol\":77:105  address payable public owner */\n    tag_5:\n      callvalue\n      dup1\n      iszero\n      tag_25\n      jumpi\n      0x00\n      dup1\n      revert\n    tag_25:\n      pop\n      tag_26\n      tag_27\n      jump\t// in\n    tag_26:\n      mload(0x40)\n      tag_28\n      swap2\n      swap1\n      tag_29\n      jump\t// in\n    tag_28:\n      mload(0x40)\n      dup1\n      swap2\n      sub\n      swap1\n      return\n        /* \"contracts/fund_transfer.sol\":228:690  function NFT_Funds(uint  nft) public payable returns(bool) ... */\n    tag_6:\n      tag_30\n      0x04\n      dup1\n      calldatasize\n      sub\n      dup2\n      add\n      swap1\n      tag_31\n      swap2\n      swap1\n      tag_14\n      jump\t// in\n    tag_31:\n      tag_32\n      jump\t// in\n    tag_30:\n      mload(0x40)\n      tag_33\n      swap2\n      swap1\n      tag_34\n      jump\t// in\n    tag_33:\n      mload(0x40)\n      dup1\n      swap2\n      sub\n      swap1\n      return\n        /* \"contracts/fund_transfer.sol\":697:771  function set_Silver(uint _silver) public{... */\n    tag_7:\n      callvalue\n      dup1\n      iszero\n      tag_35\n      jumpi\n      0x00\n      dup1\n      revert\n    tag_35:\n      pop\n      tag_36\n      0x04\n      dup1\n      calldatasize\n      sub\n      dup2\n      add\n      swap1\n      tag_37\n      swap2\n      swap1\n      tag_14\n      jump\t// in\n    tag_37:\n      tag_38\n      jump\t// in\n    tag_36:\n      stop\n        /* \"contracts/fund_transfer.sol\":112:141  uint public gold = 0.65 ether */\n    tag_8:\n      callvalue\n      dup1\n      iszero\n      tag_39\n      jumpi\n      0x00\n      dup1\n      revert\n    tag_39:\n      pop\n      tag_40\n      tag_41\n      jump\t// in\n    tag_40:\n      mload(0x40)\n      tag_42\n      swap2\n      swap1\n      tag_24\n      jump\t// in\n    tag_42:\n      mload(0x40)\n      dup1\n      swap2\n      sub\n      swap1\n      return\n        /* \"contracts/fund_transfer.sol\":148:179  uint public Silver = 0.35 ether */\n    tag_9:\n      callvalue\n      dup1\n      iszero\n      tag_43\n      jumpi\n      0x00\n      dup1\n      revert\n    tag_43:\n      pop\n      tag_44\n      tag_45\n      jump\t// in\n    tag_44:\n      mload(0x40)\n      tag_46\n      swap2\n      swap1\n      tag_24\n      jump\t// in\n    tag_46:\n      mload(0x40)\n      dup1\n      swap2\n      sub\n      swap1\n      return\n        /* \"contracts/fund_transfer.sol\":850:928  function set_Diamond(uint _Diamond) public{... */\n    tag_15:\n        /* \"contracts/fund_transfer.sol\":913:921  _Diamond */\n      dup1\n        /* \"contracts/fund_transfer.sol\":903:910  Diamond */\n      0x03\n        /* \"contracts/fund_transfer.sol\":903:921  Diamond = _Diamond */\n      dup2\n      swap1\n      sstore\n      pop\n        /* \"contracts/fund_transfer.sol\":850:928  function set_Diamond(uint _Diamond) public{... */\n      pop\n      jump\t// out\n        /* \"contracts/fund_transfer.sol\":778:844  function set_gold(uint _gold) public{... */\n    tag_19:\n        /* \"contracts/fund_transfer.sol\":832:837  _gold */\n      dup1\n        /* \"contracts/fund_transfer.sol\":825:829  gold */\n      0x01\n        /* \"contracts/fund_transfer.sol\":825:837  gold = _gold */\n      dup2\n      swap1\n      sstore\n      pop\n        /* \"contracts/fund_transfer.sol\":778:844  function set_gold(uint _gold) public{... */\n      pop\n      jump\t// out\n        /* \"contracts/fund_transfer.sol\":186:218  uint public Diamond = 1.25 ether */\n    tag_22:\n      sload(0x03)\n      dup2\n      jump\t// out\n        /* \"contracts/fund_transfer.sol\":77:105  address payable public owner */\n    tag_27:\n      0x00\n      dup1\n      sload\n      swap1\n      0x0100\n      exp\n      swap1\n      div\n      0xffffffffffffffffffffffffffffffffffffffff\n      and\n      dup2\n      jump\t// out\n        /* \"contracts/fund_transfer.sol\":228:690  function NFT_Funds(uint  nft) public payable returns(bool) ... */\n    tag_32:\n        /* \"contracts/fund_transfer.sol\":281:285  bool */\n      0x00\n        /* \"contracts/fund_transfer.sol\":311:312  0 */\n      dup1\n        /* \"contracts/fund_transfer.sol\":306:309  nft */\n      dup3\n        /* \"contracts/fund_transfer.sol\":306:312  nft==0 */\n      eq\n        /* \"contracts/fund_transfer.sol\":303:662  if(nft==0)... */\n      iszero\n      tag_50\n      jumpi\n        /* \"contracts/fund_transfer.sol\":355:361  Silver */\n      sload(0x02)\n        /* \"contracts/fund_transfer.sol\":344:353  msg.value */\n      callvalue\n        /* \"contracts/fund_transfer.sol\":344:361  msg.value==Silver */\n      eq\n        /* \"contracts/fund_transfer.sol\":336:362  require(msg.value==Silver) */\n      tag_51\n      jumpi\n      0x00\n      dup1\n      revert\n    tag_51:\n        /* \"contracts/fund_transfer.sol\":376:381  owner */\n      0x00\n      dup1\n      sload\n      swap1\n      0x0100\n      exp\n      swap1\n      div\n      0xffffffffffffffffffffffffffffffffffffffff\n      and\n        /* \"contracts/fund_transfer.sol\":376:390  owner.transfer */\n      0xffffffffffffffffffffffffffffffffffffffff\n      and\n        /* \"contracts/fund_transfer.sol\":376:401  owner.transfer(msg.value) */\n      0x08fc\n        /* \"contracts/fund_transfer.sol\":391:400  msg.value */\n      callvalue\n        /* \"contracts/fund_transfer.sol\":376:401  owner.transfer(msg.value) */\n      swap1\n      dup2\n      iszero\n      mul\n      swap1\n      mload(0x40)\n      0x00\n      mload(0x40)\n      dup1\n      dup4\n      sub\n      dup2\n      dup6\n      dup9\n      dup9\n      call\n      swap4\n      pop\n      pop\n      pop\n      pop\n      iszero\n      dup1\n      iszero\n      tag_53\n      jumpi\n      returndatasize\n      0x00\n      dup1\n      returndatacopy\n      revert(0x00, returndatasize)\n    tag_53:\n      pop\n        /* \"contracts/fund_transfer.sol\":303:662  if(nft==0)... */\n      jump(tag_54)\n    tag_50:\n        /* \"contracts/fund_transfer.sol\":435:436  1 */\n      0x01\n        /* \"contracts/fund_transfer.sol\":430:433  nft */\n      dup3\n        /* \"contracts/fund_transfer.sol\":430:436  nft==1 */\n      eq\n        /* \"contracts/fund_transfer.sol\":427:662  if(nft==1)... */\n      iszero\n      tag_55\n      jumpi\n        /* \"contracts/fund_transfer.sol\":479:483  gold */\n      sload(0x01)\n        /* \"contracts/fund_transfer.sol\":468:477  msg.value */\n      callvalue\n        /* \"contracts/fund_transfer.sol\":468:483  msg.value==gold */\n      eq\n        /* \"contracts/fund_transfer.sol\":460:484  require(msg.value==gold) */\n      tag_56\n      jumpi\n      0x00\n      dup1\n      revert\n    tag_56:\n        /* \"contracts/fund_transfer.sol\":499:504  owner */\n      0x00\n      dup1\n      sload\n      swap1\n      0x0100\n      exp\n      swap1\n      div\n      0xffffffffffffffffffffffffffffffffffffffff\n      and\n        /* \"contracts/fund_transfer.sol\":499:513  owner.transfer */\n      0xffffffffffffffffffffffffffffffffffffffff\n      and\n        /* \"contracts/fund_transfer.sol\":499:524  owner.transfer(msg.value) */\n      0x08fc\n        /* \"contracts/fund_transfer.sol\":514:523  msg.value */\n      callvalue\n        /* \"contracts/fund_transfer.sol\":499:524  owner.transfer(msg.value) */\n      swap1\n      dup2\n      iszero\n      mul\n      swap1\n      mload(0x40)\n      0x00\n      mload(0x40)\n      dup1\n      dup4\n      sub\n      dup2\n      dup6\n      dup9\n      dup9\n      call\n      swap4\n      pop\n      pop\n      pop\n      pop\n      iszero\n      dup1\n      iszero\n      tag_58\n      jumpi\n      returndatasize\n      0x00\n      dup1\n      returndatacopy\n      revert(0x00, returndatasize)\n    tag_58:\n      pop\n        /* \"contracts/fund_transfer.sol\":427:662  if(nft==1)... */\n      jump(tag_59)\n    tag_55:\n        /* \"contracts/fund_transfer.sol\":558:559  2 */\n      0x02\n        /* \"contracts/fund_transfer.sol\":553:556  nft */\n      dup3\n        /* \"contracts/fund_transfer.sol\":553:559  nft==2 */\n      eq\n        /* \"contracts/fund_transfer.sol\":550:662  if(nft==2)... */\n      iszero\n      tag_60\n      jumpi\n        /* \"contracts/fund_transfer.sol\":602:609  Diamond */\n      sload(0x03)\n        /* \"contracts/fund_transfer.sol\":591:600  msg.value */\n      callvalue\n        /* \"contracts/fund_transfer.sol\":591:609  msg.value==Diamond */\n      eq\n        /* \"contracts/fund_transfer.sol\":583:610  require(msg.value==Diamond) */\n      tag_61\n      jumpi\n      0x00\n      dup1\n      revert\n    tag_61:\n        /* \"contracts/fund_transfer.sol\":625:630  owner */\n      0x00\n      dup1\n      sload\n      swap1\n      0x0100\n      exp\n      swap1\n      div\n      0xffffffffffffffffffffffffffffffffffffffff\n      and\n        /* \"contracts/fund_transfer.sol\":625:639  owner.transfer */\n      0xffffffffffffffffffffffffffffffffffffffff\n      and\n        /* \"contracts/fund_transfer.sol\":625:650  owner.transfer(msg.value) */\n      0x08fc\n        /* \"contracts/fund_transfer.sol\":640:649  msg.value */\n      callvalue\n        /* \"contracts/fund_transfer.sol\":625:650  owner.transfer(msg.value) */\n      swap1\n      dup2\n      iszero\n      mul\n      swap1\n      mload(0x40)\n      0x00\n      mload(0x40)\n      dup1\n      dup4\n      sub\n      dup2\n      dup6\n      dup9\n      dup9\n      call\n      swap4\n      pop\n      pop\n      pop\n      pop\n      iszero\n      dup1\n      iszero\n      tag_63\n      jumpi\n      returndatasize\n      0x00\n      dup1\n      returndatacopy\n      revert(0x00, returndatasize)\n    tag_63:\n      pop\n        /* \"contracts/fund_transfer.sol\":550:662  if(nft==2)... */\n    tag_60:\n        /* \"contracts/fund_transfer.sol\":427:662  if(nft==1)... */\n    tag_59:\n        /* \"contracts/fund_transfer.sol\":303:662  if(nft==0)... */\n    tag_54:\n        /* \"contracts/fund_transfer.sol\":678:682  true */\n      0x01\n        /* \"contracts/fund_transfer.sol\":671:682  return true */\n      swap1\n      pop\n        /* \"contracts/fund_transfer.sol\":228:690  function NFT_Funds(uint  nft) public payable returns(bool) ... */\n      swap2\n      swap1\n      pop\n      jump\t// out\n        /* \"contracts/fund_transfer.sol\":697:771  function set_Silver(uint _silver) public{... */\n    tag_38:\n        /* \"contracts/fund_transfer.sol\":757:764  _silver */\n      dup1\n        /* \"contracts/fund_transfer.sol\":748:754  Silver */\n      0x02\n        /* \"contracts/fund_transfer.sol\":748:764  Silver = _silver */\n      dup2\n      swap1\n      sstore\n      pop\n        /* \"contracts/fund_transfer.sol\":697:771  function set_Silver(uint _silver) public{... */\n      pop\n      jump\t// out\n        /* \"contracts/fund_transfer.sol\":112:141  uint public gold = 0.65 ether */\n    tag_41:\n      sload(0x01)\n      dup2\n      jump\t// out\n        /* \"contracts/fund_transfer.sol\":148:179  uint public Silver = 0.35 ether */\n    tag_45:\n      sload(0x02)\n      dup2\n      jump\t// out\n        /* \"#utility.yul\":7:146   */\n    tag_66:\n        /* \"#utility.yul\":53:58   */\n      0x00\n        /* \"#utility.yul\":91:97   */\n      dup2\n        /* \"#utility.yul\":78:98   */\n      calldataload\n        /* \"#utility.yul\":69:98   */\n      swap1\n      pop\n        /* \"#utility.yul\":107:140   */\n      tag_68\n        /* \"#utility.yul\":134:139   */\n      dup2\n        /* \"#utility.yul\":107:140   */\n      tag_69\n      jump\t// in\n    tag_68:\n        /* \"#utility.yul\":7:146   */\n      swap3\n      swap2\n      pop\n      pop\n      jump\t// out\n        /* \"#utility.yul\":152:481   */\n    tag_14:\n        /* \"#utility.yul\":211:217   */\n      0x00\n        /* \"#utility.yul\":260:262   */\n      0x20\n        /* \"#utility.yul\":248:257   */\n      dup3\n        /* \"#utility.yul\":239:246   */\n      dup5\n        /* \"#utility.yul\":235:258   */\n      sub\n        /* \"#utility.yul\":231:263   */\n      slt\n        /* \"#utility.yul\":228:347   */\n      iszero\n      tag_71\n      jumpi\n        /* \"#utility.yul\":266:345   */\n      tag_72\n      tag_73\n      jump\t// in\n    tag_72:\n        /* \"#utility.yul\":228:347   */\n    tag_71:\n        /* \"#utility.yul\":386:387   */\n      0x00\n        /* \"#utility.yul\":411:464   */\n      tag_74\n        /* \"#utility.yul\":456:463   */\n      dup5\n        /* \"#utility.yul\":447:453   */\n      dup3\n        /* \"#utility.yul\":436:445   */\n      dup6\n        /* \"#utility.yul\":432:454   */\n      add\n        /* \"#utility.yul\":411:464   */\n      tag_66\n      jump\t// in\n    tag_74:\n        /* \"#utility.yul\":401:464   */\n      swap2\n      pop\n        /* \"#utility.yul\":357:474   */\n      pop\n        /* \"#utility.yul\":152:481   */\n      swap3\n      swap2\n      pop\n      pop\n      jump\t// out\n        /* \"#utility.yul\":487:629   */\n    tag_75:\n        /* \"#utility.yul\":590:622   */\n      tag_77\n        /* \"#utility.yul\":616:621   */\n      dup2\n        /* \"#utility.yul\":590:622   */\n      tag_78\n      jump\t// in\n    tag_77:\n        /* \"#utility.yul\":585:588   */\n      dup3\n        /* \"#utility.yul\":578:623   */\n      mstore\n        /* \"#utility.yul\":487:629   */\n      pop\n      pop\n      jump\t// out\n        /* \"#utility.yul\":635:744   */\n    tag_79:\n        /* \"#utility.yul\":716:737   */\n      tag_81\n        /* \"#utility.yul\":731:736   */\n      dup2\n        /* \"#utility.yul\":716:737   */\n      tag_82\n      jump\t// in\n    tag_81:\n        /* \"#utility.yul\":711:714   */\n      dup3\n        /* \"#utility.yul\":704:738   */\n      mstore\n        /* \"#utility.yul\":635:744   */\n      pop\n      pop\n      jump\t// out\n        /* \"#utility.yul\":750:868   */\n    tag_83:\n        /* \"#utility.yul\":837:861   */\n      tag_85\n        /* \"#utility.yul\":855:860   */\n      dup2\n        /* \"#utility.yul\":837:861   */\n      tag_86\n      jump\t// in\n    tag_85:\n        /* \"#utility.yul\":832:835   */\n      dup3\n        /* \"#utility.yul\":825:862   */\n      mstore\n        /* \"#utility.yul\":750:868   */\n      pop\n      pop\n      jump\t// out\n        /* \"#utility.yul\":874:1128   */\n    tag_29:\n        /* \"#utility.yul\":983:987   */\n      0x00\n        /* \"#utility.yul\":1021:1023   */\n      0x20\n        /* \"#utility.yul\":1010:1019   */\n      dup3\n        /* \"#utility.yul\":1006:1024   */\n      add\n        /* \"#utility.yul\":998:1024   */\n      swap1\n      pop\n        /* \"#utility.yul\":1034:1121   */\n      tag_88\n        /* \"#utility.yul\":1118:1119   */\n      0x00\n        /* \"#utility.yul\":1107:1116   */\n      dup4\n        /* \"#utility.yul\":1103:1120   */\n      add\n        /* \"#utility.yul\":1094:1100   */\n      dup5\n        /* \"#utility.yul\":1034:1121   */\n      tag_75\n      jump\t// in\n    tag_88:\n        /* \"#utility.yul\":874:1128   */\n      swap3\n      swap2\n      pop\n      pop\n      jump\t// out\n        /* \"#utility.yul\":1134:1344   */\n    tag_34:\n        /* \"#utility.yul\":1221:1225   */\n      0x00\n        /* \"#utility.yul\":1259:1261   */\n      0x20\n        /* \"#utility.yul\":1248:1257   */\n      dup3\n        /* \"#utility.yul\":1244:1262   */\n      add\n        /* \"#utility.yul\":1236:1262   */\n      swap1\n      pop\n        /* \"#utility.yul\":1272:1337   */\n      tag_90\n        /* \"#utility.yul\":1334:1335   */\n      0x00\n        /* \"#utility.yul\":1323:1332   */\n      dup4\n        /* \"#utility.yul\":1319:1336   */\n      add\n        /* \"#utility.yul\":1310:1316   */\n      dup5\n        /* \"#utility.yul\":1272:1337   */\n      tag_79\n      jump\t// in\n    tag_90:\n        /* \"#utility.yul\":1134:1344   */\n      swap3\n      swap2\n      pop\n      pop\n      jump\t// out\n        /* \"#utility.yul\":1350:1572   */\n    tag_24:\n        /* \"#utility.yul\":1443:1447   */\n      0x00\n        /* \"#utility.yul\":1481:1483   */\n      0x20\n        /* \"#utility.yul\":1470:1479   */\n      dup3\n        /* \"#utility.yul\":1466:1484   */\n      add\n        /* \"#utility.yul\":1458:1484   */\n      swap1\n      pop\n        /* \"#utility.yul\":1494:1565   */\n      tag_92\n        /* \"#utility.yul\":1562:1563   */\n      0x00\n        /* \"#utility.yul\":1551:1560   */\n      dup4\n        /* \"#utility.yul\":1547:1564   */\n      add\n        /* \"#utility.yul\":1538:1544   */\n      dup5\n        /* \"#utility.yul\":1494:1565   */\n      tag_83\n      jump\t// in\n    tag_92:\n        /* \"#utility.yul\":1350:1572   */\n      swap3\n      swap2\n      pop\n      pop\n      jump\t// out\n        /* \"#utility.yul\":1659:1763   */\n    tag_78:\n        /* \"#utility.yul\":1704:1711   */\n      0x00\n        /* \"#utility.yul\":1733:1757   */\n      tag_96\n        /* \"#utility.yul\":1751:1756   */\n      dup3\n        /* \"#utility.yul\":1733:1757   */\n      tag_97\n      jump\t// in\n    tag_96:\n        /* \"#utility.yul\":1722:1757   */\n      swap1\n      pop\n        /* \"#utility.yul\":1659:1763   */\n      swap2\n      swap1\n      pop\n      jump\t// out\n        /* \"#utility.yul\":1769:1859   */\n    tag_82:\n        /* \"#utility.yul\":1803:1810   */\n      0x00\n        /* \"#utility.yul\":1846:1851   */\n      dup2\n        /* \"#utility.yul\":1839:1852   */\n      iszero\n        /* \"#utility.yul\":1832:1853   */\n      iszero\n        /* \"#utility.yul\":1821:1853   */\n      swap1\n      pop\n        /* \"#utility.yul\":1769:1859   */\n      swap2\n      swap1\n      pop\n      jump\t// out\n        /* \"#utility.yul\":1865:1991   */\n    tag_97:\n        /* \"#utility.yul\":1902:1909   */\n      0x00\n        /* \"#utility.yul\":1942:1984   */\n      0xffffffffffffffffffffffffffffffffffffffff\n        /* \"#utility.yul\":1935:1940   */\n      dup3\n        /* \"#utility.yul\":1931:1985   */\n      and\n        /* \"#utility.yul\":1920:1985   */\n      swap1\n      pop\n        /* \"#utility.yul\":1865:1991   */\n      swap2\n      swap1\n      pop\n      jump\t// out\n        /* \"#utility.yul\":1997:2074   */\n    tag_86:\n        /* \"#utility.yul\":2034:2041   */\n      0x00\n        /* \"#utility.yul\":2063:2068   */\n      dup2\n        /* \"#utility.yul\":2052:2068   */\n      swap1\n      pop\n        /* \"#utility.yul\":1997:2074   */\n      swap2\n      swap1\n      pop\n      jump\t// out\n        /* \"#utility.yul\":2203:2320   */\n    tag_73:\n        /* \"#utility.yul\":2312:2313   */\n      0x00\n        /* \"#utility.yul\":2309:2310   */\n      dup1\n        /* \"#utility.yul\":2302:2314   */\n      revert\n        /* \"#utility.yul\":2326:2448   */\n    tag_69:\n        /* \"#utility.yul\":2399:2423   */\n      tag_105\n        /* \"#utility.yul\":2417:2422   */\n      dup2\n        /* \"#utility.yul\":2399:2423   */\n      tag_86\n      jump\t// in\n    tag_105:\n        /* \"#utility.yul\":2392:2397   */\n      dup2\n        /* \"#utility.yul\":2389:2424   */\n      eq\n        /* \"#utility.yul\":2379:2442   */\n      tag_106\n      jumpi\n        /* \"#utility.yul\":2438:2439   */\n      0x00\n        /* \"#utility.yul\":2435:2436   */\n      dup1\n        /* \"#utility.yul\":2428:2440   */\n      revert\n        /* \"#utility.yul\":2379:2442   */\n    tag_106:\n        /* \"#utility.yul\":2326:2448   */\n      pop\n      jump\t// out\n\n    auxdata: 0xa26469706673582212209ee396534461a1ac8d0b00799c11e976a1373ee217b72751debf6fee870257ae64736f6c63430008070033\n}\n",
				"bytecode": {
					"linkReferences": {},
					"object": "6080604052670905438e600100006001556704db732547630000600255671158e460913d000060035534801561003457600080fd5b50610516806100446000396000f3fe60806040526004361061007b5760003560e01c8063ac2bcce41161004e578063ac2bcce414610128578063ed90e88a14610158578063fbec6f2114610181578063fe275280146101ac5761007b565b806308e983b4146100805780631d0771b0146100a95780636b7d5205146100d25780638da5cb5b146100fd575b600080fd5b34801561008c57600080fd5b506100a760048036038101906100a291906103d1565b6101d7565b005b3480156100b557600080fd5b506100d060048036038101906100cb91906103d1565b6101e1565b005b3480156100de57600080fd5b506100e76101eb565b6040516100f49190610461565b60405180910390f35b34801561010957600080fd5b506101126101f1565b60405161011f919061042b565b60405180910390f35b610142600480360381019061013d91906103d1565b610215565b60405161014f9190610446565b60405180910390f35b34801561016457600080fd5b5061017f600480360381019061017a91906103d1565b6103a6565b005b34801561018d57600080fd5b506101966103b0565b6040516101a39190610461565b60405180910390f35b3480156101b857600080fd5b506101c16103b6565b6040516101ce9190610461565b60405180910390f35b8060038190555050565b8060018190555050565b60035481565b60008054906101000a900473ffffffffffffffffffffffffffffffffffffffff1681565b60008082141561029957600254341461022d57600080fd5b60008054906101000a900473ffffffffffffffffffffffffffffffffffffffff1673ffffffffffffffffffffffffffffffffffffffff166108fc349081150290604051600060405180830381858888f19350505050158015610293573d6000803e3d6000fd5b5061039d565b600182141561031c5760015434146102b057600080fd5b60008054906101000a900473ffffffffffffffffffffffffffffffffffffffff1673ffffffffffffffffffffffffffffffffffffffff166108fc349081150290604051600060405180830381858888f19350505050158015610316573d6000803e3d6000fd5b5061039c565b600282141561039b57600354341461033357600080fd5b60008054906101000a900473ffffffffffffffffffffffffffffffffffffffff1673ffffffffffffffffffffffffffffffffffffffff166108fc349081150290604051600060405180830381858888f19350505050158015610399573d6000803e3d6000fd5b505b5b5b60019050919050565b8060028190555050565b60015481565b60025481565b6000813590506103cb816104c9565b92915050565b6000602082840312156103e7576103e66104c4565b5b60006103f5848285016103bc565b91505092915050565b6104078161047c565b82525050565b6104168161048e565b82525050565b610425816104ba565b82525050565b600060208201905061044060008301846103fe565b92915050565b600060208201905061045b600083018461040d565b92915050565b6000602082019050610476600083018461041c565b92915050565b60006104878261049a565b9050919050565b60008115159050919050565b600073ffffffffffffffffffffffffffffffffffffffff82169050919050565b6000819050919050565b600080fd5b6104d2816104ba565b81146104dd57600080fd5b5056fea26469706673582212209ee396534461a1ac8d0b00799c11e976a1373ee217b72751debf6fee870257ae64736f6c63430008070033",
					"opcodes": "PUSH1 0x80 PUSH1 0x40 MSTORE PUSH8 0x905438E60010000 PUSH1 0x1 SSTORE PUSH8 0x4DB732547630000 PUSH1 0x2 SSTORE PUSH8 0x1158E460913D0000 PUSH1 0x3 SSTORE CALLVALUE DUP1 ISZERO PUSH2 0x34 JUMPI PUSH1 0x0 DUP1 REVERT JUMPDEST POP PUSH2 0x516 DUP1 PUSH2 0x44 PUSH1 0x0 CODECOPY PUSH1 0x0 RETURN INVALID PUSH1 0x80 PUSH1 0x40 MSTORE PUSH1 0x4 CALLDATASIZE LT PUSH2 0x7B JUMPI PUSH1 0x0 CALLDATALOAD PUSH1 0xE0 SHR DUP1 PUSH4 0xAC2BCCE4 GT PUSH2 0x4E JUMPI DUP1 PUSH4 0xAC2BCCE4 EQ PUSH2 0x128 JUMPI DUP1 PUSH4 0xED90E88A EQ PUSH2 0x158 JUMPI DUP1 PUSH4 0xFBEC6F21 EQ PUSH2 0x181 JUMPI DUP1 PUSH4 0xFE275280 EQ PUSH2 0x1AC JUMPI PUSH2 0x7B JUMP JUMPDEST DUP1 PUSH4 0x8E983B4 EQ PUSH2 0x80 JUMPI DUP1 PUSH4 0x1D0771B0 EQ PUSH2 0xA9 JUMPI DUP1 PUSH4 0x6B7D5205 EQ PUSH2 0xD2 JUMPI DUP1 PUSH4 0x8DA5CB5B EQ PUSH2 0xFD JUMPI JUMPDEST PUSH1 0x0 DUP1 REVERT JUMPDEST CALLVALUE DUP1 ISZERO PUSH2 0x8C JUMPI PUSH1 0x0 DUP1 REVERT JUMPDEST POP PUSH2 0xA7 PUSH1 0x4 DUP1 CALLDATASIZE SUB DUP2 ADD SWAP1 PUSH2 0xA2 SWAP2 SWAP1 PUSH2 0x3D1 JUMP JUMPDEST PUSH2 0x1D7 JUMP JUMPDEST STOP JUMPDEST CALLVALUE DUP1 ISZERO PUSH2 0xB5 JUMPI PUSH1 0x0 DUP1 REVERT JUMPDEST POP PUSH2 0xD0 PUSH1 0x4 DUP1 CALLDATASIZE SUB DUP2 ADD SWAP1 PUSH2 0xCB SWAP2 SWAP1 PUSH2 0x3D1 JUMP JUMPDEST PUSH2 0x1E1 JUMP JUMPDEST STOP JUMPDEST CALLVALUE DUP1 ISZERO PUSH2 0xDE JUMPI PUSH1 0x0 DUP1 REVERT JUMPDEST POP PUSH2 0xE7 PUSH2 0x1EB JUMP JUMPDEST PUSH1 0x40 MLOAD PUSH2 0xF4 SWAP2 SWAP1 PUSH2 0x461 JUMP JUMPDEST PUSH1 0x40 MLOAD DUP1 SWAP2 SUB SWAP1 RETURN JUMPDEST CALLVALUE DUP1 ISZERO PUSH2 0x109 JUMPI PUSH1 0x0 DUP1 REVERT JUMPDEST POP PUSH2 0x112 PUSH2 0x1F1 JUMP JUMPDEST PUSH1 0x40 MLOAD PUSH2 0x11F SWAP2 SWAP1 PUSH2 0x42B JUMP JUMPDEST PUSH1 0x40 MLOAD DUP1 SWAP2 SUB SWAP1 RETURN JUMPDEST PUSH2 0x142 PUSH1 0x4 DUP1 CALLDATASIZE SUB DUP2 ADD SWAP1 PUSH2 0x13D SWAP2 SWAP1 PUSH2 0x3D1 JUMP JUMPDEST PUSH2 0x215 JUMP JUMPDEST PUSH1 0x40 MLOAD PUSH2 0x14F SWAP2 SWAP1 PUSH2 0x446 JUMP JUMPDEST PUSH1 0x40 MLOAD DUP1 SWAP2 SUB SWAP1 RETURN JUMPDEST CALLVALUE DUP1 ISZERO PUSH2 0x164 JUMPI PUSH1 0x0 DUP1 REVERT JUMPDEST POP PUSH2 0x17F PUSH1 0x4 DUP1 CALLDATASIZE SUB DUP2 ADD SWAP1 PUSH2 0x17A SWAP2 SWAP1 PUSH2 0x3D1 JUMP JUMPDEST PUSH2 0x3A6 JUMP JUMPDEST STOP JUMPDEST CALLVALUE DUP1 ISZERO PUSH2 0x18D JUMPI PUSH1 0x0 DUP1 REVERT JUMPDEST POP PUSH2 0x196 PUSH2 0x3B0 JUMP JUMPDEST PUSH1 0x40 MLOAD PUSH2 0x1A3 SWAP2 SWAP1 PUSH2 0x461 JUMP JUMPDEST PUSH1 0x40 MLOAD DUP1 SWAP2 SUB SWAP1 RETURN JUMPDEST CALLVALUE DUP1 ISZERO PUSH2 0x1B8 JUMPI PUSH1 0x0 DUP1 REVERT JUMPDEST POP PUSH2 0x1C1 PUSH2 0x3B6 JUMP JUMPDEST PUSH1 0x40 MLOAD PUSH2 0x1CE SWAP2 SWAP1 PUSH2 0x461 JUMP JUMPDEST PUSH1 0x40 MLOAD DUP1 SWAP2 SUB SWAP1 RETURN JUMPDEST DUP1 PUSH1 0x3 DUP2 SWAP1 SSTORE POP POP JUMP JUMPDEST DUP1 PUSH1 0x1 DUP2 SWAP1 SSTORE POP POP JUMP JUMPDEST PUSH1 0x3 SLOAD DUP2 JUMP JUMPDEST PUSH1 0x0 DUP1 SLOAD SWAP1 PUSH2 0x100 EXP SWAP1 DIV PUSH20 0xFFFFFFFFFFFFFFFFFFFFFFFFFFFFFFFFFFFFFFFF AND DUP2 JUMP JUMPDEST PUSH1 0x0 DUP1 DUP3 EQ ISZERO PUSH2 0x299 JUMPI PUSH1 0x2 SLOAD CALLVALUE EQ PUSH2 0x22D JUMPI PUSH1 0x0 DUP1 REVERT JUMPDEST PUSH1 0x0 DUP1 SLOAD SWAP1 PUSH2 0x100 EXP SWAP1 DIV PUSH20 0xFFFFFFFFFFFFFFFFFFFFFFFFFFFFFFFFFFFFFFFF AND PUSH20 0xFFFFFFFFFFFFFFFFFFFFFFFFFFFFFFFFFFFFFFFF AND PUSH2 0x8FC CALLVALUE SWAP1 DUP2 ISZERO MUL SWAP1 PUSH1 0x40 MLOAD PUSH1 0x0 PUSH1 0x40 MLOAD DUP1 DUP4 SUB DUP2 DUP6 DUP9 DUP9 CALL SWAP4 POP POP POP POP ISZERO DUP1 ISZERO PUSH2 0x293 JUMPI RETURNDATASIZE PUSH1 0x0 DUP1 RETURNDATACOPY RETURNDATASIZE PUSH1 0x0 REVERT JUMPDEST POP PUSH2 0x39D JUMP JUMPDEST PUSH1 0x1 DUP3 EQ ISZERO PUSH2 0x31C JUMPI PUSH1 0x1 SLOAD CALLVALUE EQ PUSH2 0x2B0 JUMPI PUSH1 0x0 DUP1 REVERT JUMPDEST PUSH1 0x0 DUP1 SLOAD SWAP1 PUSH2 0x100 EXP SWAP1 DIV PUSH20 0xFFFFFFFFFFFFFFFFFFFFFFFFFFFFFFFFFFFFFFFF AND PUSH20 0xFFFFFFFFFFFFFFFFFFFFFFFFFFFFFFFFFFFFFFFF AND PUSH2 0x8FC CALLVALUE SWAP1 DUP2 ISZERO MUL SWAP1 PUSH1 0x40 MLOAD PUSH1 0x0 PUSH1 0x40 MLOAD DUP1 DUP4 SUB DUP2 DUP6 DUP9 DUP9 CALL SWAP4 POP POP POP POP ISZERO DUP1 ISZERO PUSH2 0x316 JUMPI RETURNDATASIZE PUSH1 0x0 DUP1 RETURNDATACOPY RETURNDATASIZE PUSH1 0x0 REVERT JUMPDEST POP PUSH2 0x39C JUMP JUMPDEST PUSH1 0x2 DUP3 EQ ISZERO PUSH2 0x39B JUMPI PUSH1 0x3 SLOAD CALLVALUE EQ PUSH2 0x333 JUMPI PUSH1 0x0 DUP1 REVERT JUMPDEST PUSH1 0x0 DUP1 SLOAD SWAP1 PUSH2 0x100 EXP SWAP1 DIV PUSH20 0xFFFFFFFFFFFFFFFFFFFFFFFFFFFFFFFFFFFFFFFF AND PUSH20 0xFFFFFFFFFFFFFFFFFFFFFFFFFFFFFFFFFFFFFFFF AND PUSH2 0x8FC CALLVALUE SWAP1 DUP2 ISZERO MUL SWAP1 PUSH1 0x40 MLOAD PUSH1 0x0 PUSH1 0x40 MLOAD DUP1 DUP4 SUB DUP2 DUP6 DUP9 DUP9 CALL SWAP4 POP POP POP POP ISZERO DUP1 ISZERO PUSH2 0x399 JUMPI RETURNDATASIZE PUSH1 0x0 DUP1 RETURNDATACOPY RETURNDATASIZE PUSH1 0x0 REVERT JUMPDEST POP JUMPDEST JUMPDEST JUMPDEST PUSH1 0x1 SWAP1 POP SWAP2 SWAP1 POP JUMP JUMPDEST DUP1 PUSH1 0x2 DUP2 SWAP1 SSTORE POP POP JUMP JUMPDEST PUSH1 0x1 SLOAD DUP2 JUMP JUMPDEST PUSH1 0x2 SLOAD DUP2 JUMP JUMPDEST PUSH1 0x0 DUP2 CALLDATALOAD SWAP1 POP PUSH2 0x3CB DUP2 PUSH2 0x4C9 JUMP JUMPDEST SWAP3 SWAP2 POP POP JUMP JUMPDEST PUSH1 0x0 PUSH1 0x20 DUP3 DUP5 SUB SLT ISZERO PUSH2 0x3E7 JUMPI PUSH2 0x3E6 PUSH2 0x4C4 JUMP JUMPDEST JUMPDEST PUSH1 0x0 PUSH2 0x3F5 DUP5 DUP3 DUP6 ADD PUSH2 0x3BC JUMP JUMPDEST SWAP2 POP POP SWAP3 SWAP2 POP POP JUMP JUMPDEST PUSH2 0x407 DUP2 PUSH2 0x47C JUMP JUMPDEST DUP3 MSTORE POP POP JUMP JUMPDEST PUSH2 0x416 DUP2 PUSH2 0x48E JUMP JUMPDEST DUP3 MSTORE POP POP JUMP JUMPDEST PUSH2 0x425 DUP2 PUSH2 0x4BA JUMP JUMPDEST DUP3 MSTORE POP POP JUMP JUMPDEST PUSH1 0x0 PUSH1 0x20 DUP3 ADD SWAP1 POP PUSH2 0x440 PUSH1 0x0 DUP4 ADD DUP5 PUSH2 0x3FE JUMP JUMPDEST SWAP3 SWAP2 POP POP JUMP JUMPDEST PUSH1 0x0 PUSH1 0x20 DUP3 ADD SWAP1 POP PUSH2 0x45B PUSH1 0x0 DUP4 ADD DUP5 PUSH2 0x40D JUMP JUMPDEST SWAP3 SWAP2 POP POP JUMP JUMPDEST PUSH1 0x0 PUSH1 0x20 DUP3 ADD SWAP1 POP PUSH2 0x476 PUSH1 0x0 DUP4 ADD DUP5 PUSH2 0x41C JUMP JUMPDEST SWAP3 SWAP2 POP POP JUMP JUMPDEST PUSH1 0x0 PUSH2 0x487 DUP3 PUSH2 0x49A JUMP JUMPDEST SWAP1 POP SWAP2 SWAP1 POP JUMP JUMPDEST PUSH1 0x0 DUP2 ISZERO ISZERO SWAP1 POP SWAP2 SWAP1 POP JUMP JUMPDEST PUSH1 0x0 PUSH20 0xFFFFFFFFFFFFFFFFFFFFFFFFFFFFFFFFFFFFFFFF DUP3 AND SWAP1 POP SWAP2 SWAP1 POP JUMP JUMPDEST PUSH1 0x0 DUP2 SWAP1 POP SWAP2 SWAP1 POP JUMP JUMPDEST PUSH1 0x0 DUP1 REVERT JUMPDEST PUSH2 0x4D2 DUP2 PUSH2 0x4BA JUMP JUMPDEST DUP2 EQ PUSH2 0x4DD JUMPI PUSH1 0x0 DUP1 REVERT JUMPDEST POP JUMP INVALID LOG2 PUSH5 0x6970667358 0x22 SLT KECCAK256 SWAP15 0xE3 SWAP7 MSTORE8 DIFFICULTY PUSH2 0xA1AC DUP14 SIGNEXTEND STOP PUSH26 0x9C11E976A1373EE217B72751DEBF6FEE870257AE64736F6C6343 STOP ADDMOD SMOD STOP CALLER "
				},
				"gasEstimates": {
					"creation": {
						"codeDepositCost": "260400",
						"executionCost": "66618",
						"totalCost": "327018"
					},
					"external": {
						"Diamond()": "2474",
						"NFT_Funds(uint256)": "infinite",
						"Silver()": "2495",
						"gold()": "2473",
						"owner()": "2578",
						"set_Diamond(uint256)": "22521",
						"set_Silver(uint256)": "22542",
						"set_gold(uint256)": "22543"
					}
				},
				"methodIdentifiers": {
					"Diamond()": "6b7d5205",
					"NFT_Funds(uint256)": "ac2bcce4",
					"Silver()": "fe275280",
					"gold()": "fbec6f21",
					"owner()": "8da5cb5b",
					"set_Diamond(uint256)": "08e983b4",
					"set_Silver(uint256)": "ed90e88a",
					"set_gold(uint256)": "1d0771b0"
				}
			},
			"storageLayout": {
				"storage": [
					{
						"astId": 3,
						"contract": "contracts/fund_transfer.sol:NFT",
						"label": "owner",
						"offset": 0,
						"slot": "0",
						"type": "t_address_payable"
					},
					{
						"astId": 6,
						"contract": "contracts/fund_transfer.sol:NFT",
						"label": "gold",
						"offset": 0,
						"slot": "1",
						"type": "t_uint256"
					},
					{
						"astId": 9,
						"contract": "contracts/fund_transfer.sol:NFT",
						"label": "Silver",
						"offset": 0,
						"slot": "2",
						"type": "t_uint256"
					},
					{
						"astId": 12,
						"contract": "contracts/fund_transfer.sol:NFT",
						"label": "Diamond",
						"offset": 0,
						"slot": "3",
						"type": "t_uint256"
					}
				],
				"types": {
					"t_address_payable": {
						"encoding": "inplace",
						"label": "address payable",
						"numberOfBytes": "20"
					},
					"t_uint256": {
						"encoding": "inplace",
						"label": "uint256",
						"numberOfBytes": "32"
					}
				}
			},
			"userdoc": {
				"kind": "user",
				"methods": {},
				"version": 1
			}
		}
	}
}