{
	"contracts/stake_reward_MLM.sol": {
		"Invest": {
			"abi": [
				{
					"inputs": [],
					"stateMutability": "nonpayable",
					"type": "constructor"
				},
				{
					"inputs": [],
					"name": "DUSDReferralsList",
					"outputs": [
						{
							"internalType": "address[]",
							"name": "",
							"type": "address[]"
						}
					],
					"stateMutability": "view",
					"type": "function"
				},
				{
					"inputs": [],
					"name": "DUSDTotalReferrals",
					"outputs": [
						{
							"internalType": "uint256",
							"name": "",
							"type": "uint256"
						}
					],
					"stateMutability": "view",
					"type": "function"
				},
				{
					"inputs": [
						{
							"internalType": "address",
							"name": "",
							"type": "address"
						}
					],
					"name": "DUSDinvestor",
					"outputs": [
						{
							"internalType": "address",
							"name": "referralFrom",
							"type": "address"
						},
						{
							"internalType": "uint256",
							"name": "reward",
							"type": "uint256"
						},
						{
							"internalType": "uint256",
							"name": "noOfInvestment",
							"type": "uint256"
						},
						{
							"internalType": "uint256",
							"name": "totalInvestment",
							"type": "uint256"
						},
						{
							"internalType": "bool",
							"name": "investBefore",
							"type": "bool"
						}
					],
					"stateMutability": "view",
					"type": "function"
				},
				{
					"inputs": [
						{
							"internalType": "uint256",
							"name": "_investedamount",
							"type": "uint256"
						},
						{
							"internalType": "address",
							"name": "_referral",
							"type": "address"
						}
					],
					"name": "Stake",
					"outputs": [
						{
							"internalType": "bool",
							"name": "success",
							"type": "bool"
						}
					],
					"stateMutability": "nonpayable",
					"type": "function"
				},
				{
					"inputs": [],
					"name": "getAllDUSDinvestments",
					"outputs": [
						{
							"components": [
								{
									"internalType": "uint256",
									"name": "investedAmount",
									"type": "uint256"
								},
								{
									"internalType": "uint256",
									"name": "withdrawnTime",
									"type": "uint256"
								},
								{
									"internalType": "uint256",
									"name": "DepositTime",
									"type": "uint256"
								},
								{
									"internalType": "uint256",
									"name": "investmentNum",
									"type": "uint256"
								}
							],
							"internalType": "struct Invest.allInvestments[]",
							"name": "",
							"type": "tuple[]"
						}
					],
					"stateMutability": "view",
					"type": "function"
				},
				{
					"inputs": [],
					"name": "getReward",
					"outputs": [
						{
							"internalType": "uint256",
							"name": "",
							"type": "uint256"
						}
					],
					"stateMutability": "view",
					"type": "function"
				},
				{
					"inputs": [],
					"name": "getTotalInvestmentDUSD",
					"outputs": [
						{
							"internalType": "uint256",
							"name": "",
							"type": "uint256"
						}
					],
					"stateMutability": "view",
					"type": "function"
				},
				{
					"inputs": [],
					"name": "owner",
					"outputs": [
						{
							"internalType": "address",
							"name": "",
							"type": "address"
						}
					],
					"stateMutability": "view",
					"type": "function"
				},
				{
					"inputs": [],
					"name": "ownerfees",
					"outputs": [
						{
							"internalType": "uint256",
							"name": "",
							"type": "uint256"
						}
					],
					"stateMutability": "view",
					"type": "function"
				},
				{
					"inputs": [],
					"name": "rewardToken",
					"outputs": [
						{
							"internalType": "uint256",
							"name": "",
							"type": "uint256"
						}
					],
					"stateMutability": "view",
					"type": "function"
				},
				{
					"inputs": [
						{
							"internalType": "address",
							"name": "investor",
							"type": "address"
						},
						{
							"internalType": "uint256",
							"name": "_investedAmount",
							"type": "uint256"
						}
					],
					"name": "sendRewardToDUSDReferrals",
					"outputs": [],
					"stateMutability": "nonpayable",
					"type": "function"
				},
				{
					"inputs": [
						{
							"internalType": "uint256",
							"name": "_amount",
							"type": "uint256"
						}
					],
					"name": "setReward",
					"outputs": [],
					"stateMutability": "nonpayable",
					"type": "function"
				},
				{
					"inputs": [
						{
							"internalType": "uint256",
							"name": "_amount",
							"type": "uint256"
						}
					],
					"name": "set_max_Stake_amount",
					"outputs": [],
					"stateMutability": "nonpayable",
					"type": "function"
				},
				{
					"inputs": [
						{
							"internalType": "uint256",
							"name": "_amount",
							"type": "uint256"
						}
					],
					"name": "set_min_Stake_amount",
					"outputs": [],
					"stateMutability": "nonpayable",
					"type": "function"
				},
				{
					"inputs": [
						{
							"internalType": "uint256",
							"name": "min_stake",
							"type": "uint256"
						},
						{
							"internalType": "uint256",
							"name": "max_stake",
							"type": "uint256"
						},
						{
							"internalType": "uint256",
							"name": "reward_per_day",
							"type": "uint256"
						}
					],
					"name": "set_values",
					"outputs": [],
					"stateMutability": "nonpayable",
					"type": "function"
				},
				{
					"inputs": [],
					"name": "totalDUSDInvestors",
					"outputs": [
						{
							"internalType": "uint256",
							"name": "",
							"type": "uint256"
						}
					],
					"stateMutability": "view",
					"type": "function"
				},
				{
					"inputs": [
						{
							"internalType": "uint256",
							"name": "_id",
							"type": "uint256"
						}
					],
					"name": "unStake",
					"outputs": [
						{
							"internalType": "bool",
							"name": "success",
							"type": "bool"
						}
					],
					"stateMutability": "nonpayable",
					"type": "function"
				},
				{
					"inputs": [],
					"name": "withdrawReward",
					"outputs": [
						{
							"internalType": "bool",
							"name": "success",
							"type": "bool"
						}
					],
					"stateMutability": "nonpayable",
					"type": "function"
				}
			],
			"devdoc": {
				"kind": "dev",
				"methods": {},
				"version": 1
			},
			"evm": {
				"assembly": "    /* \"contracts/stake_reward_MLM.sol\":253:9064  contract Invest... */\n  mstore(0x40, 0x80)\n    /* \"contracts/stake_reward_MLM.sol\":374:416  0x58ea7b46EB9C45fB2b850edB64f200b8E1DAEc7c */\n  0x58ea7b46eb9c45fb2b850edb64f200b8e1daec7c\n    /* \"contracts/stake_reward_MLM.sol\":353:416  address DUSDcontract=0x58ea7b46EB9C45fB2b850edB64f200b8E1DAEc7c */\n  0x02\n  exp(0x0100, 0x00)\n  dup2\n  sload\n  dup2\n  0xffffffffffffffffffffffffffffffffffffffff\n  mul\n  not\n  and\n  swap1\n  dup4\n  0xffffffffffffffffffffffffffffffffffffffff\n  and\n  mul\n  or\n  swap1\n  sstore\n  pop\n    /* \"contracts/stake_reward_MLM.sol\":490:508  500000000000000000 */\n  0x06f05b59d3b20000\n    /* \"contracts/stake_reward_MLM.sol\":466:508  uint public rewardToken=500000000000000000 */\n  0x04\n  sstore\n    /* \"contracts/stake_reward_MLM.sol\":540:563  10000000000000000000000 */\n  0x021e19e0c9bab2400000\n    /* \"contracts/stake_reward_MLM.sol\":518:563  uint min_Stake_amount=10000000000000000000000 */\n  0x05\n  sstore\n    /* \"contracts/stake_reward_MLM.sol\":622:647  5000000000000000000000000 */\n  0x0422ca8b0a00a425000000\n    /* \"contracts/stake_reward_MLM.sol\":600:647  uint max_Stake_amount=5000000000000000000000000 */\n  0x06\n  sstore\n    /* \"contracts/stake_reward_MLM.sol\":707:715  300 days */\n  0x018b8200\n    /* \"contracts/stake_reward_MLM.sol\":685:715  uint investmentPeriod=300 days */\n  0x07\n  sstore\n    /* \"contracts/stake_reward_MLM.sol\":1235:1364  constructor(){... */\n  callvalue\n  dup1\n  iszero\n  tag_1\n  jumpi\n  0x00\n  dup1\n  revert\ntag_1:\n  pop\n    /* \"contracts/stake_reward_MLM.sol\":1281:1291  msg.sender */\n  caller\n    /* \"contracts/stake_reward_MLM.sol\":1275:1280  owner */\n  0x00\n  dup1\n    /* \"contracts/stake_reward_MLM.sol\":1275:1291  owner=msg.sender */\n  0x0100\n  exp\n  dup2\n  sload\n  dup2\n  0xffffffffffffffffffffffffffffffffffffffff\n  mul\n  not\n  and\n  swap1\n  dup4\n  0xffffffffffffffffffffffffffffffffffffffff\n  and\n  mul\n  or\n  swap1\n  sstore\n  pop\n    /* \"contracts/stake_reward_MLM.sol\":253:9064  contract Invest... */\n  dataSize(sub_0)\n  dup1\n  dataOffset(sub_0)\n  0x00\n  codecopy\n  0x00\n  return\nstop\n\nsub_0: assembly {\n        /* \"contracts/stake_reward_MLM.sol\":253:9064  contract Invest... */\n      mstore(0x40, 0x80)\n      callvalue\n      dup1\n      iszero\n      tag_1\n      jumpi\n      0x00\n      dup1\n      revert\n    tag_1:\n      pop\n      jumpi(tag_2, lt(calldatasize, 0x04))\n      shr(0xe0, calldataload(0x00))\n      dup1\n      0x5d3eea91\n      gt\n      tag_21\n      jumpi\n      dup1\n      0xc885bc58\n      gt\n      tag_22\n      jumpi\n      dup1\n      0xc885bc58\n      eq\n      tag_16\n      jumpi\n      dup1\n      0xce10db0a\n      eq\n      tag_17\n      jumpi\n      dup1\n      0xd0ff6e63\n      eq\n      tag_18\n      jumpi\n      dup1\n      0xd3560ee8\n      eq\n      tag_19\n      jumpi\n      dup1\n      0xf7c618c1\n      eq\n      tag_20\n      jumpi\n      jump(tag_2)\n    tag_22:\n      dup1\n      0x5d3eea91\n      eq\n      tag_12\n      jumpi\n      dup1\n      0x6e9726b0\n      eq\n      tag_13\n      jumpi\n      dup1\n      0x8da5cb5b\n      eq\n      tag_14\n      jumpi\n      dup1\n      0x929f6bbe\n      eq\n      tag_15\n      jumpi\n      jump(tag_2)\n    tag_21:\n      dup1\n      0x2bccdce6\n      gt\n      tag_23\n      jumpi\n      dup1\n      0x2bccdce6\n      eq\n      tag_7\n      jumpi\n      dup1\n      0x32d4e783\n      eq\n      tag_8\n      jumpi\n      dup1\n      0x3a1e0833\n      eq\n      tag_9\n      jumpi\n      dup1\n      0x3d18b912\n      eq\n      tag_10\n      jumpi\n      dup1\n      0x500cb85f\n      eq\n      tag_11\n      jumpi\n      jump(tag_2)\n    tag_23:\n      dup1\n      0x0c5f58f4\n      eq\n      tag_3\n      jumpi\n      dup1\n      0x10cde60a\n      eq\n      tag_4\n      jumpi\n      dup1\n      0x1e8aba35\n      eq\n      tag_5\n      jumpi\n      dup1\n      0x293be456\n      eq\n      tag_6\n      jumpi\n    tag_2:\n      0x00\n      dup1\n      revert\n        /* \"contracts/stake_reward_MLM.sol\":8270:8479  function DUSDReferralsList() public view returns(address[] memory){ //this function is to get the all investors list with there account number... */\n    tag_3:\n      tag_24\n      tag_25\n      jump\t// in\n    tag_24:\n      mload(0x40)\n      tag_26\n      swap2\n      swap1\n      tag_27\n      jump\t// in\n    tag_26:\n      mload(0x40)\n      dup1\n      swap2\n      sub\n      swap1\n      return\n        /* \"contracts/stake_reward_MLM.sol\":426:456  uint public totalDUSDInvestors */\n    tag_4:\n      tag_28\n      tag_29\n      jump\t// in\n    tag_28:\n      mload(0x40)\n      tag_30\n      swap2\n      swap1\n      tag_31\n      jump\t// in\n    tag_30:\n      mload(0x40)\n      dup1\n      swap2\n      sub\n      swap1\n      return\n        /* \"contracts/stake_reward_MLM.sol\":8069:8260  function DUSDTotalReferrals() public view returns(uint){ // this function is to get the total number of referrals ... */\n    tag_5:\n      tag_32\n      tag_33\n      jump\t// in\n    tag_32:\n      mload(0x40)\n      tag_34\n      swap2\n      swap1\n      tag_31\n      jump\t// in\n    tag_34:\n      mload(0x40)\n      dup1\n      swap2\n      sub\n      swap1\n      return\n        /* \"contracts/stake_reward_MLM.sol\":8488:8583  function setReward(uint _amount) public ... */\n    tag_6:\n      tag_35\n      0x04\n      dup1\n      calldatasize\n      sub\n      dup2\n      add\n      swap1\n      tag_36\n      swap2\n      swap1\n      tag_37\n      jump\t// in\n    tag_36:\n      tag_38\n      jump\t// in\n    tag_35:\n      stop\n        /* \"contracts/stake_reward_MLM.sol\":2969:4703  function Stake(uint _investedamount,address _referral) external returns(bool success){... */\n    tag_7:\n      tag_39\n      0x04\n      dup1\n      calldatasize\n      sub\n      dup2\n      add\n      swap1\n      tag_40\n      swap2\n      swap1\n      tag_41\n      jump\t// in\n    tag_40:\n      tag_42\n      jump\t// in\n    tag_39:\n      mload(0x40)\n      tag_43\n      swap2\n      swap1\n      tag_44\n      jump\t// in\n    tag_43:\n      mload(0x40)\n      dup1\n      swap2\n      sub\n      swap1\n      return\n        /* \"contracts/stake_reward_MLM.sol\":8592:8703  function set_min_Stake_amount(uint _amount) public ... */\n    tag_8:\n      tag_45\n      0x04\n      dup1\n      calldatasize\n      sub\n      dup2\n      add\n      swap1\n      tag_46\n      swap2\n      swap1\n      tag_37\n      jump\t// in\n    tag_46:\n      tag_47\n      jump\t// in\n    tag_45:\n      stop\n        /* \"contracts/stake_reward_MLM.sol\":6460:7443  function getAllDUSDinvestments() public view returns (allInvestments[] memory) { //this function will return the all investments of the investor and withware date... */\n    tag_9:\n      tag_48\n      tag_49\n      jump\t// in\n    tag_48:\n      mload(0x40)\n      tag_50\n      swap2\n      swap1\n      tag_51\n      jump\t// in\n    tag_50:\n      mload(0x40)\n      dup1\n      swap2\n      sub\n      swap1\n      return\n        /* \"contracts/stake_reward_MLM.sol\":7453:8059  function getReward() view public returns(uint){ //this function is get the total reward balance of the investor... */\n    tag_10:\n      tag_52\n      tag_53\n      jump\t// in\n    tag_52:\n      mload(0x40)\n      tag_54\n      swap2\n      swap1\n      tag_31\n      jump\t// in\n    tag_54:\n      mload(0x40)\n      dup1\n      swap2\n      sub\n      swap1\n      return\n        /* \"contracts/stake_reward_MLM.sol\":8712:8823  function set_max_Stake_amount(uint _amount) public ... */\n    tag_11:\n      tag_55\n      0x04\n      dup1\n      calldatasize\n      sub\n      dup2\n      add\n      swap1\n      tag_56\n      swap2\n      swap1\n      tag_37\n      jump\t// in\n    tag_56:\n      tag_57\n      jump\t// in\n    tag_55:\n      stop\n        /* \"contracts/stake_reward_MLM.sol\":5132:6230  function unStake(uint _id) external  returns (bool success){... */\n    tag_12:\n      tag_58\n      0x04\n      dup1\n      calldatasize\n      sub\n      dup2\n      add\n      swap1\n      tag_59\n      swap2\n      swap1\n      tag_37\n      jump\t// in\n    tag_59:\n      tag_60\n      jump\t// in\n    tag_58:\n      mload(0x40)\n      tag_61\n      swap2\n      swap1\n      tag_44\n      jump\t// in\n    tag_61:\n      mload(0x40)\n      dup1\n      swap2\n      sub\n      swap1\n      return\n        /* \"contracts/stake_reward_MLM.sol\":1374:2955  function sendRewardToDUSDReferrals(address investor,uint _investedAmount)  public  //this is the freferral function to transfer the reawards to referrals... */\n    tag_13:\n      tag_62\n      0x04\n      dup1\n      calldatasize\n      sub\n      dup2\n      add\n      swap1\n      tag_63\n      swap2\n      swap1\n      tag_64\n      jump\t// in\n    tag_63:\n      tag_65\n      jump\t// in\n    tag_62:\n      stop\n        /* \"contracts/stake_reward_MLM.sol\":291:312  address  public owner */\n    tag_14:\n      tag_66\n      tag_67\n      jump\t// in\n    tag_66:\n      mload(0x40)\n      tag_68\n      swap2\n      swap1\n      tag_69\n      jump\t// in\n    tag_68:\n      mload(0x40)\n      dup1\n      swap2\n      sub\n      swap1\n      return\n        /* \"contracts/stake_reward_MLM.sol\":6240:6450  function getTotalInvestmentDUSD() public view returns(uint) {   //this function is to get the total investment of the ivestor... */\n    tag_15:\n      tag_70\n      tag_71\n      jump\t// in\n    tag_70:\n      mload(0x40)\n      tag_72\n      swap2\n      swap1\n      tag_31\n      jump\t// in\n    tag_72:\n      mload(0x40)\n      dup1\n      swap2\n      sub\n      swap1\n      return\n        /* \"contracts/stake_reward_MLM.sol\":4714:5121  function withdrawReward() external returns (bool success){... */\n    tag_16:\n      tag_73\n      tag_74\n      jump\t// in\n    tag_73:\n      mload(0x40)\n      tag_75\n      swap2\n      swap1\n      tag_44\n      jump\t// in\n    tag_75:\n      mload(0x40)\n      dup1\n      swap2\n      sub\n      swap1\n      return\n        /* \"contracts/stake_reward_MLM.sol\":8832:9056  function set_values(uint min_stake,uint max_stake,uint reward_per_day) public ... */\n    tag_17:\n      tag_76\n      0x04\n      dup1\n      calldatasize\n      sub\n      dup2\n      add\n      swap1\n      tag_77\n      swap2\n      swap1\n      tag_78\n      jump\t// in\n    tag_77:\n      tag_79\n      jump\t// in\n    tag_76:\n      stop\n        /* \"contracts/stake_reward_MLM.sol\":322:343  uint public ownerfees */\n    tag_18:\n      tag_80\n      tag_81\n      jump\t// in\n    tag_80:\n      mload(0x40)\n      tag_82\n      swap2\n      swap1\n      tag_31\n      jump\t// in\n    tag_82:\n      mload(0x40)\n      dup1\n      swap2\n      sub\n      swap1\n      return\n        /* \"contracts/stake_reward_MLM.sol\":1182:1224  mapping(address=>Data) public DUSDinvestor */\n    tag_19:\n      tag_83\n      0x04\n      dup1\n      calldatasize\n      sub\n      dup2\n      add\n      swap1\n      tag_84\n      swap2\n      swap1\n      tag_85\n      jump\t// in\n    tag_84:\n      tag_86\n      jump\t// in\n    tag_83:\n      mload(0x40)\n      tag_87\n      swap6\n      swap5\n      swap4\n      swap3\n      swap2\n      swap1\n      tag_88\n      jump\t// in\n    tag_87:\n      mload(0x40)\n      dup1\n      swap2\n      sub\n      swap1\n      return\n        /* \"contracts/stake_reward_MLM.sol\":466:508  uint public rewardToken=500000000000000000 */\n    tag_20:\n      tag_89\n      tag_90\n      jump\t// in\n    tag_89:\n      mload(0x40)\n      tag_91\n      swap2\n      swap1\n      tag_31\n      jump\t// in\n    tag_91:\n      mload(0x40)\n      dup1\n      swap2\n      sub\n      swap1\n      return\n        /* \"contracts/stake_reward_MLM.sol\":8270:8479  function DUSDReferralsList() public view returns(address[] memory){ //this function is to get the all investors list with there account number... */\n    tag_25:\n        /* \"contracts/stake_reward_MLM.sol\":8319:8335  address[] memory */\n      0x60\n        /* \"contracts/stake_reward_MLM.sol\":8431:8443  DUSDinvestor */\n      0x08\n        /* \"contracts/stake_reward_MLM.sol\":8431:8455  DUSDinvestor[msg.sender] */\n      0x00\n        /* \"contracts/stake_reward_MLM.sol\":8444:8454  msg.sender */\n      caller\n        /* \"contracts/stake_reward_MLM.sol\":8431:8455  DUSDinvestor[msg.sender] */\n      0xffffffffffffffffffffffffffffffffffffffff\n      and\n      0xffffffffffffffffffffffffffffffffffffffff\n      and\n      dup2\n      mstore\n      0x20\n      add\n      swap1\n      dup2\n      mstore\n      0x20\n      add\n      0x00\n      keccak256\n        /* \"contracts/stake_reward_MLM.sol\":8431:8468  DUSDinvestor[msg.sender].hisReferrals */\n      0x01\n      add\n        /* \"contracts/stake_reward_MLM.sol\":8424:8468  return DUSDinvestor[msg.sender].hisReferrals */\n      dup1\n      sload\n      dup1\n      0x20\n      mul\n      0x20\n      add\n      mload(0x40)\n      swap1\n      dup2\n      add\n      0x40\n      mstore\n      dup1\n      swap3\n      swap2\n      swap1\n      dup2\n      dup2\n      mstore\n      0x20\n      add\n      dup3\n      dup1\n      sload\n      dup1\n      iszero\n      tag_93\n      jumpi\n      0x20\n      mul\n      dup3\n      add\n      swap2\n      swap1\n      0x00\n      mstore\n      keccak256(0x00, 0x20)\n      swap1\n    tag_94:\n      dup2\n      0x00\n      swap1\n      sload\n      swap1\n      0x0100\n      exp\n      swap1\n      div\n      0xffffffffffffffffffffffffffffffffffffffff\n      and\n      0xffffffffffffffffffffffffffffffffffffffff\n      and\n      dup2\n      mstore\n      0x20\n      add\n      swap1\n      0x01\n      add\n      swap1\n      dup1\n      dup4\n      gt\n      tag_94\n      jumpi\n    tag_93:\n      pop\n      pop\n      pop\n      pop\n      pop\n      swap1\n      pop\n        /* \"contracts/stake_reward_MLM.sol\":8270:8479  function DUSDReferralsList() public view returns(address[] memory){ //this function is to get the all investors list with there account number... */\n      swap1\n      jump\t// out\n        /* \"contracts/stake_reward_MLM.sol\":426:456  uint public totalDUSDInvestors */\n    tag_29:\n      sload(0x03)\n      dup2\n      jump\t// out\n        /* \"contracts/stake_reward_MLM.sol\":8069:8260  function DUSDTotalReferrals() public view returns(uint){ // this function is to get the total number of referrals ... */\n    tag_33:\n        /* \"contracts/stake_reward_MLM.sol\":8119:8123  uint */\n      0x00\n        /* \"contracts/stake_reward_MLM.sol\":8204:8216  DUSDinvestor */\n      0x08\n        /* \"contracts/stake_reward_MLM.sol\":8204:8228  DUSDinvestor[msg.sender] */\n      0x00\n        /* \"contracts/stake_reward_MLM.sol\":8217:8227  msg.sender */\n      caller\n        /* \"contracts/stake_reward_MLM.sol\":8204:8228  DUSDinvestor[msg.sender] */\n      0xffffffffffffffffffffffffffffffffffffffff\n      and\n      0xffffffffffffffffffffffffffffffffffffffff\n      and\n      dup2\n      mstore\n      0x20\n      add\n      swap1\n      dup2\n      mstore\n      0x20\n      add\n      0x00\n      keccak256\n        /* \"contracts/stake_reward_MLM.sol\":8204:8241  DUSDinvestor[msg.sender].hisReferrals */\n      0x01\n      add\n        /* \"contracts/stake_reward_MLM.sol\":8203:8249  (DUSDinvestor[msg.sender].hisReferrals).length */\n      dup1\n      sload\n      swap1\n      pop\n        /* \"contracts/stake_reward_MLM.sol\":8196:8249  return (DUSDinvestor[msg.sender].hisReferrals).length */\n      swap1\n      pop\n        /* \"contracts/stake_reward_MLM.sol\":8069:8260  function DUSDTotalReferrals() public view returns(uint){ // this function is to get the total number of referrals ... */\n      swap1\n      jump\t// out\n        /* \"contracts/stake_reward_MLM.sol\":8488:8583  function setReward(uint _amount) public ... */\n    tag_38:\n        /* \"contracts/stake_reward_MLM.sol\":8565:8572  _amount */\n      dup1\n        /* \"contracts/stake_reward_MLM.sol\":8551:8562  rewardToken */\n      0x04\n        /* \"contracts/stake_reward_MLM.sol\":8551:8572  rewardToken = _amount */\n      dup2\n      swap1\n      sstore\n      pop\n        /* \"contracts/stake_reward_MLM.sol\":8488:8583  function setReward(uint _amount) public ... */\n      pop\n      jump\t// out\n        /* \"contracts/stake_reward_MLM.sol\":2969:4703  function Stake(uint _investedamount,address _referral) external returns(bool success){... */\n    tag_42:\n        /* \"contracts/stake_reward_MLM.sol\":3041:3053  bool success */\n      0x00\n        /* \"contracts/stake_reward_MLM.sol\":3095:3111  min_Stake_amount */\n      sload(0x05)\n        /* \"contracts/stake_reward_MLM.sol\":3076:3091  _investedamount */\n      dup4\n        /* \"contracts/stake_reward_MLM.sol\":3076:3111  _investedamount >= min_Stake_amount */\n      lt\n      iszero\n        /* \"contracts/stake_reward_MLM.sol\":3068:3142  require(_investedamount >= min_Stake_amount,\"value is not greater than 0\") */\n      tag_98\n      jumpi\n      mload(0x40)\n      0x08c379a000000000000000000000000000000000000000000000000000000000\n      dup2\n      mstore\n      0x04\n      add\n      tag_99\n      swap1\n      tag_100\n      jump\t// in\n    tag_99:\n      mload(0x40)\n      dup1\n      swap2\n      sub\n      swap1\n      revert\n    tag_98:\n        /* \"contracts/stake_reward_MLM.sol\":3271:3276  false */\n      0x00\n        /* \"contracts/stake_reward_MLM.sol\":3230:3276  DUSDinvestor[msg.sender].investBefore == false */\n      iszero\n      iszero\n        /* \"contracts/stake_reward_MLM.sol\":3230:3242  DUSDinvestor */\n      0x08\n        /* \"contracts/stake_reward_MLM.sol\":3230:3254  DUSDinvestor[msg.sender] */\n      0x00\n        /* \"contracts/stake_reward_MLM.sol\":3243:3253  msg.sender */\n      caller\n        /* \"contracts/stake_reward_MLM.sol\":3230:3254  DUSDinvestor[msg.sender] */\n      0xffffffffffffffffffffffffffffffffffffffff\n      and\n      0xffffffffffffffffffffffffffffffffffffffff\n      and\n      dup2\n      mstore\n      0x20\n      add\n      swap1\n      dup2\n      mstore\n      0x20\n      add\n      0x00\n      keccak256\n        /* \"contracts/stake_reward_MLM.sol\":3230:3267  DUSDinvestor[msg.sender].investBefore */\n      0x06\n      add\n      0x00\n      swap1\n      sload\n      swap1\n      0x0100\n      exp\n      swap1\n      div\n      0xff\n      and\n        /* \"contracts/stake_reward_MLM.sol\":3230:3276  DUSDinvestor[msg.sender].investBefore == false */\n      iszero\n      iszero\n      eq\n        /* \"contracts/stake_reward_MLM.sol\":3227:3381  if(DUSDinvestor[msg.sender].investBefore == false)... */\n      iszero\n      tag_101\n      jumpi\n        /* \"contracts/stake_reward_MLM.sol\":3309:3327  totalDUSDInvestors */\n      0x03\n      0x00\n        /* \"contracts/stake_reward_MLM.sol\":3309:3329  totalDUSDInvestors++ */\n      dup2\n      sload\n      dup1\n      swap3\n      swap2\n      swap1\n      tag_102\n      swap1\n      tag_103\n      jump\t// in\n    tag_102:\n      swap2\n      swap1\n      pop\n      sstore\n      pop\n        /* \"contracts/stake_reward_MLM.sol\":3227:3381  if(DUSDinvestor[msg.sender].investBefore == false)... */\n    tag_101:\n        /* \"contracts/stake_reward_MLM.sol\":3395:3403  uint num */\n      0x00\n        /* \"contracts/stake_reward_MLM.sol\":3406:3418  DUSDinvestor */\n      0x08\n        /* \"contracts/stake_reward_MLM.sol\":3406:3430  DUSDinvestor[msg.sender] */\n      0x00\n        /* \"contracts/stake_reward_MLM.sol\":3419:3429  msg.sender */\n      caller\n        /* \"contracts/stake_reward_MLM.sol\":3406:3430  DUSDinvestor[msg.sender] */\n      0xffffffffffffffffffffffffffffffffffffffff\n      and\n      0xffffffffffffffffffffffffffffffffffffffff\n      and\n      dup2\n      mstore\n      0x20\n      add\n      swap1\n      dup2\n      mstore\n      0x20\n      add\n      0x00\n      keccak256\n        /* \"contracts/stake_reward_MLM.sol\":3406:3445  DUSDinvestor[msg.sender].noOfInvestment */\n      0x04\n      add\n      sload\n        /* \"contracts/stake_reward_MLM.sol\":3395:3445  uint num = DUSDinvestor[msg.sender].noOfInvestment */\n      swap1\n      pop\n        /* \"contracts/stake_reward_MLM.sol\":3516:3531  _investedamount */\n      dup4\n        /* \"contracts/stake_reward_MLM.sol\":3459:3471  DUSDinvestor */\n      0x08\n        /* \"contracts/stake_reward_MLM.sol\":3459:3483  DUSDinvestor[msg.sender] */\n      0x00\n        /* \"contracts/stake_reward_MLM.sol\":3472:3482  msg.sender */\n      caller\n        /* \"contracts/stake_reward_MLM.sol\":3459:3483  DUSDinvestor[msg.sender] */\n      0xffffffffffffffffffffffffffffffffffffffff\n      and\n      0xffffffffffffffffffffffffffffffffffffffff\n      and\n      dup2\n      mstore\n      0x20\n      add\n      swap1\n      dup2\n      mstore\n      0x20\n      add\n      0x00\n      keccak256\n        /* \"contracts/stake_reward_MLM.sol\":3459:3494  DUSDinvestor[msg.sender].investment */\n      0x00\n      add\n        /* \"contracts/stake_reward_MLM.sol\":3459:3499  DUSDinvestor[msg.sender].investment[num] */\n      0x00\n        /* \"contracts/stake_reward_MLM.sol\":3495:3498  num */\n      dup4\n        /* \"contracts/stake_reward_MLM.sol\":3459:3499  DUSDinvestor[msg.sender].investment[num] */\n      dup2\n      mstore\n      0x20\n      add\n      swap1\n      dup2\n      mstore\n      0x20\n      add\n      0x00\n      keccak256\n        /* \"contracts/stake_reward_MLM.sol\":3459:3514  DUSDinvestor[msg.sender].investment[num].investedAmount */\n      0x00\n      add\n        /* \"contracts/stake_reward_MLM.sol\":3459:3531  DUSDinvestor[msg.sender].investment[num].investedAmount =_investedamount */\n      dup2\n      swap1\n      sstore\n      pop\n        /* \"contracts/stake_reward_MLM.sol\":3598:3613  block.timestamp */\n      timestamp\n        /* \"contracts/stake_reward_MLM.sol\":3545:3557  DUSDinvestor */\n      0x08\n        /* \"contracts/stake_reward_MLM.sol\":3545:3569  DUSDinvestor[msg.sender] */\n      0x00\n        /* \"contracts/stake_reward_MLM.sol\":3558:3568  msg.sender */\n      caller\n        /* \"contracts/stake_reward_MLM.sol\":3545:3569  DUSDinvestor[msg.sender] */\n      0xffffffffffffffffffffffffffffffffffffffff\n      and\n      0xffffffffffffffffffffffffffffffffffffffff\n      and\n      dup2\n      mstore\n      0x20\n      add\n      swap1\n      dup2\n      mstore\n      0x20\n      add\n      0x00\n      keccak256\n        /* \"contracts/stake_reward_MLM.sol\":3545:3580  DUSDinvestor[msg.sender].investment */\n      0x00\n      add\n        /* \"contracts/stake_reward_MLM.sol\":3545:3585  DUSDinvestor[msg.sender].investment[num] */\n      0x00\n        /* \"contracts/stake_reward_MLM.sol\":3581:3584  num */\n      dup4\n        /* \"contracts/stake_reward_MLM.sol\":3545:3585  DUSDinvestor[msg.sender].investment[num] */\n      dup2\n      mstore\n      0x20\n      add\n      swap1\n      dup2\n      mstore\n      0x20\n      add\n      0x00\n      keccak256\n        /* \"contracts/stake_reward_MLM.sol\":3545:3597  DUSDinvestor[msg.sender].investment[num].DepositTime */\n      0x02\n      add\n        /* \"contracts/stake_reward_MLM.sol\":3545:3613  DUSDinvestor[msg.sender].investment[num].DepositTime=block.timestamp */\n      dup2\n      swap1\n      sstore\n      pop\n        /* \"contracts/stake_reward_MLM.sol\":3700:3716  investmentPeriod */\n      sload(0x07)\n        /* \"contracts/stake_reward_MLM.sol\":3682:3697  block.timestamp */\n      timestamp\n        /* \"contracts/stake_reward_MLM.sol\":3682:3716  block.timestamp + investmentPeriod */\n      tag_104\n      swap2\n      swap1\n      tag_105\n      jump\t// in\n    tag_104:\n        /* \"contracts/stake_reward_MLM.sol\":3627:3639  DUSDinvestor */\n      0x08\n        /* \"contracts/stake_reward_MLM.sol\":3627:3651  DUSDinvestor[msg.sender] */\n      0x00\n        /* \"contracts/stake_reward_MLM.sol\":3640:3650  msg.sender */\n      caller\n        /* \"contracts/stake_reward_MLM.sol\":3627:3651  DUSDinvestor[msg.sender] */\n      0xffffffffffffffffffffffffffffffffffffffff\n      and\n      0xffffffffffffffffffffffffffffffffffffffff\n      and\n      dup2\n      mstore\n      0x20\n      add\n      swap1\n      dup2\n      mstore\n      0x20\n      add\n      0x00\n      keccak256\n        /* \"contracts/stake_reward_MLM.sol\":3627:3662  DUSDinvestor[msg.sender].investment */\n      0x00\n      add\n        /* \"contracts/stake_reward_MLM.sol\":3627:3667  DUSDinvestor[msg.sender].investment[num] */\n      0x00\n        /* \"contracts/stake_reward_MLM.sol\":3663:3666  num */\n      dup4\n        /* \"contracts/stake_reward_MLM.sol\":3627:3667  DUSDinvestor[msg.sender].investment[num] */\n      dup2\n      mstore\n      0x20\n      add\n      swap1\n      dup2\n      mstore\n      0x20\n      add\n      0x00\n      keccak256\n        /* \"contracts/stake_reward_MLM.sol\":3627:3681  DUSDinvestor[msg.sender].investment[num].withdrawnTime */\n      0x01\n      add\n        /* \"contracts/stake_reward_MLM.sol\":3627:3716  DUSDinvestor[msg.sender].investment[num].withdrawnTime=block.timestamp + investmentPeriod */\n      dup2\n      swap1\n      sstore\n      pop\n        /* \"contracts/stake_reward_MLM.sol\":3799:3802  num */\n      dup1\n        /* \"contracts/stake_reward_MLM.sol\":3744:3756  DUSDinvestor */\n      0x08\n        /* \"contracts/stake_reward_MLM.sol\":3744:3768  DUSDinvestor[msg.sender] */\n      0x00\n        /* \"contracts/stake_reward_MLM.sol\":3757:3767  msg.sender */\n      caller\n        /* \"contracts/stake_reward_MLM.sol\":3744:3768  DUSDinvestor[msg.sender] */\n      0xffffffffffffffffffffffffffffffffffffffff\n      and\n      0xffffffffffffffffffffffffffffffffffffffff\n      and\n      dup2\n      mstore\n      0x20\n      add\n      swap1\n      dup2\n      mstore\n      0x20\n      add\n      0x00\n      keccak256\n        /* \"contracts/stake_reward_MLM.sol\":3744:3779  DUSDinvestor[msg.sender].investment */\n      0x00\n      add\n        /* \"contracts/stake_reward_MLM.sol\":3744:3784  DUSDinvestor[msg.sender].investment[num] */\n      0x00\n        /* \"contracts/stake_reward_MLM.sol\":3780:3783  num */\n      dup4\n        /* \"contracts/stake_reward_MLM.sol\":3744:3784  DUSDinvestor[msg.sender].investment[num] */\n      dup2\n      mstore\n      0x20\n      add\n      swap1\n      dup2\n      mstore\n      0x20\n      add\n      0x00\n      keccak256\n        /* \"contracts/stake_reward_MLM.sol\":3744:3798  DUSDinvestor[msg.sender].investment[num].investmentNum */\n      0x03\n      add\n        /* \"contracts/stake_reward_MLM.sol\":3744:3802  DUSDinvestor[msg.sender].investment[num].investmentNum=num */\n      dup2\n      swap1\n      sstore\n      pop\n        /* \"contracts/stake_reward_MLM.sol\":3858:3873  _investedamount */\n      dup4\n        /* \"contracts/stake_reward_MLM.sol\":3816:3828  DUSDinvestor */\n      0x08\n        /* \"contracts/stake_reward_MLM.sol\":3816:3840  DUSDinvestor[msg.sender] */\n      0x00\n        /* \"contracts/stake_reward_MLM.sol\":3829:3839  msg.sender */\n      caller\n        /* \"contracts/stake_reward_MLM.sol\":3816:3840  DUSDinvestor[msg.sender] */\n      0xffffffffffffffffffffffffffffffffffffffff\n      and\n      0xffffffffffffffffffffffffffffffffffffffff\n      and\n      dup2\n      mstore\n      0x20\n      add\n      swap1\n      dup2\n      mstore\n      0x20\n      add\n      0x00\n      keccak256\n        /* \"contracts/stake_reward_MLM.sol\":3816:3856  DUSDinvestor[msg.sender].totalInvestment */\n      0x05\n      add\n      0x00\n        /* \"contracts/stake_reward_MLM.sol\":3816:3873  DUSDinvestor[msg.sender].totalInvestment+=_investedamount */\n      dup3\n      dup3\n      sload\n      tag_106\n      swap2\n      swap1\n      tag_105\n      jump\t// in\n    tag_106:\n      swap3\n      pop\n      pop\n      dup2\n      swap1\n      sstore\n      pop\n        /* \"contracts/stake_reward_MLM.sol\":3925:3929  true */\n      0x01\n        /* \"contracts/stake_reward_MLM.sol\":3887:3899  DUSDinvestor */\n      0x08\n        /* \"contracts/stake_reward_MLM.sol\":3887:3911  DUSDinvestor[msg.sender] */\n      0x00\n        /* \"contracts/stake_reward_MLM.sol\":3900:3910  msg.sender */\n      caller\n        /* \"contracts/stake_reward_MLM.sol\":3887:3911  DUSDinvestor[msg.sender] */\n      0xffffffffffffffffffffffffffffffffffffffff\n      and\n      0xffffffffffffffffffffffffffffffffffffffff\n      and\n      dup2\n      mstore\n      0x20\n      add\n      swap1\n      dup2\n      mstore\n      0x20\n      add\n      0x00\n      keccak256\n        /* \"contracts/stake_reward_MLM.sol\":3887:3924  DUSDinvestor[msg.sender].investBefore */\n      0x06\n      add\n      0x00\n        /* \"contracts/stake_reward_MLM.sol\":3887:3929  DUSDinvestor[msg.sender].investBefore=true */\n      0x0100\n      exp\n      dup2\n      sload\n      dup2\n      0xff\n      mul\n      not\n      and\n      swap1\n      dup4\n      iszero\n      iszero\n      mul\n      or\n      swap1\n      sstore\n      pop\n        /* \"contracts/stake_reward_MLM.sol\":3943:3955  DUSDinvestor */\n      0x08\n        /* \"contracts/stake_reward_MLM.sol\":3943:3967  DUSDinvestor[msg.sender] */\n      0x00\n        /* \"contracts/stake_reward_MLM.sol\":3956:3966  msg.sender */\n      caller\n        /* \"contracts/stake_reward_MLM.sol\":3943:3967  DUSDinvestor[msg.sender] */\n      0xffffffffffffffffffffffffffffffffffffffff\n      and\n      0xffffffffffffffffffffffffffffffffffffffff\n      and\n      dup2\n      mstore\n      0x20\n      add\n      swap1\n      dup2\n      mstore\n      0x20\n      add\n      0x00\n      keccak256\n        /* \"contracts/stake_reward_MLM.sol\":3943:3982  DUSDinvestor[msg.sender].noOfInvestment */\n      0x04\n      add\n      0x00\n        /* \"contracts/stake_reward_MLM.sol\":3943:3984  DUSDinvestor[msg.sender].noOfInvestment++ */\n      dup2\n      sload\n      dup1\n      swap3\n      swap2\n      swap1\n      tag_107\n      swap1\n      tag_103\n      jump\t// in\n    tag_107:\n      swap2\n      swap1\n      pop\n      sstore\n      pop\n        /* \"contracts/stake_reward_MLM.sol\":4003:4015  DUSDcontract */\n      0x02\n      0x00\n      swap1\n      sload\n      swap1\n      0x0100\n      exp\n      swap1\n      div\n      0xffffffffffffffffffffffffffffffffffffffff\n      and\n        /* \"contracts/stake_reward_MLM.sol\":3998:4029  DUSD(DUSDcontract).transferFrom */\n      0xffffffffffffffffffffffffffffffffffffffff\n      and\n      0x23b872dd\n        /* \"contracts/stake_reward_MLM.sol\":4030:4040  msg.sender */\n      caller\n        /* \"contracts/stake_reward_MLM.sol\":4049:4053  this */\n      address\n        /* \"contracts/stake_reward_MLM.sol\":4055:4070  _investedamount */\n      dup8\n        /* \"contracts/stake_reward_MLM.sol\":3998:4071  DUSD(DUSDcontract).transferFrom(msg.sender,address(this),_investedamount) */\n      mload(0x40)\n      dup5\n      0xffffffff\n      and\n      0xe0\n      shl\n      dup2\n      mstore\n      0x04\n      add\n      tag_108\n      swap4\n      swap3\n      swap2\n      swap1\n      tag_109\n      jump\t// in\n    tag_108:\n      0x20\n      mload(0x40)\n      dup1\n      dup4\n      sub\n      dup2\n      0x00\n      dup8\n      dup1\n      extcodesize\n      iszero\n      dup1\n      iszero\n      tag_110\n      jumpi\n      0x00\n      dup1\n      revert\n    tag_110:\n      pop\n      gas\n      call\n      iszero\n      dup1\n      iszero\n      tag_112\n      jumpi\n      returndatasize\n      0x00\n      dup1\n      returndatacopy\n      revert(0x00, returndatasize)\n    tag_112:\n      pop\n      pop\n      pop\n      pop\n      mload(0x40)\n      returndatasize\n      not(0x1f)\n      0x1f\n      dup3\n      add\n      and\n      dup3\n      add\n      dup1\n      0x40\n      mstore\n      pop\n      dup2\n      add\n      swap1\n      tag_113\n      swap2\n      swap1\n      tag_114\n      jump\t// in\n    tag_113:\n      pop\n        /* \"contracts/stake_reward_MLM.sol\":4107:4108  0 */\n      0x00\n        /* \"contracts/stake_reward_MLM.sol\":4088:4109  _referral==address(0) */\n      0xffffffffffffffffffffffffffffffffffffffff\n      and\n        /* \"contracts/stake_reward_MLM.sol\":4088:4097  _referral */\n      dup4\n        /* \"contracts/stake_reward_MLM.sol\":4088:4109  _referral==address(0) */\n      0xffffffffffffffffffffffffffffffffffffffff\n      and\n      eq\n        /* \"contracts/stake_reward_MLM.sol\":4085:4655  if(_referral==address(0))                                         //checking that investor comes from the referral link or not... */\n      iszero\n      tag_115\n      jumpi\n        /* \"contracts/stake_reward_MLM.sol\":4290:4291  0 */\n      0x00\n        /* \"contracts/stake_reward_MLM.sol\":4242:4254  DUSDinvestor */\n      0x08\n        /* \"contracts/stake_reward_MLM.sol\":4242:4266  DUSDinvestor[msg.sender] */\n      0x00\n        /* \"contracts/stake_reward_MLM.sol\":4255:4265  msg.sender */\n      caller\n        /* \"contracts/stake_reward_MLM.sol\":4242:4266  DUSDinvestor[msg.sender] */\n      0xffffffffffffffffffffffffffffffffffffffff\n      and\n      0xffffffffffffffffffffffffffffffffffffffff\n      and\n      dup2\n      mstore\n      0x20\n      add\n      swap1\n      dup2\n      mstore\n      0x20\n      add\n      0x00\n      keccak256\n        /* \"contracts/stake_reward_MLM.sol\":4242:4279  DUSDinvestor[msg.sender].referralFrom */\n      0x02\n      add\n      0x00\n        /* \"contracts/stake_reward_MLM.sol\":4242:4292  DUSDinvestor[msg.sender].referralFrom = address(0) */\n      0x0100\n      exp\n      dup2\n      sload\n      dup2\n      0xffffffffffffffffffffffffffffffffffffffff\n      mul\n      not\n      and\n      swap1\n      dup4\n      0xffffffffffffffffffffffffffffffffffffffff\n      and\n      mul\n      or\n      swap1\n      sstore\n      pop\n        /* \"contracts/stake_reward_MLM.sol\":4085:4655  if(_referral==address(0))                                         //checking that investor comes from the referral link or not... */\n      jump(tag_116)\n    tag_115:\n        /* \"contracts/stake_reward_MLM.sol\":4395:4404  _referral */\n      dup3\n        /* \"contracts/stake_reward_MLM.sol\":4355:4367  DUSDinvestor */\n      0x08\n        /* \"contracts/stake_reward_MLM.sol\":4355:4379  DUSDinvestor[msg.sender] */\n      0x00\n        /* \"contracts/stake_reward_MLM.sol\":4368:4378  msg.sender */\n      caller\n        /* \"contracts/stake_reward_MLM.sol\":4355:4379  DUSDinvestor[msg.sender] */\n      0xffffffffffffffffffffffffffffffffffffffff\n      and\n      0xffffffffffffffffffffffffffffffffffffffff\n      and\n      dup2\n      mstore\n      0x20\n      add\n      swap1\n      dup2\n      mstore\n      0x20\n      add\n      0x00\n      keccak256\n        /* \"contracts/stake_reward_MLM.sol\":4355:4392  DUSDinvestor[msg.sender].referralFrom */\n      0x02\n      add\n      0x00\n        /* \"contracts/stake_reward_MLM.sol\":4355:4404  DUSDinvestor[msg.sender].referralFrom = _referral */\n      0x0100\n      exp\n      dup2\n      sload\n      dup2\n      0xffffffffffffffffffffffffffffffffffffffff\n      mul\n      not\n      and\n      swap1\n      dup4\n      0xffffffffffffffffffffffffffffffffffffffff\n      and\n      mul\n      or\n      swap1\n      sstore\n      pop\n        /* \"contracts/stake_reward_MLM.sol\":4422:4434  DUSDinvestor */\n      0x08\n        /* \"contracts/stake_reward_MLM.sol\":4422:4445  DUSDinvestor[_referral] */\n      0x00\n        /* \"contracts/stake_reward_MLM.sol\":4435:4444  _referral */\n      dup5\n        /* \"contracts/stake_reward_MLM.sol\":4422:4445  DUSDinvestor[_referral] */\n      0xffffffffffffffffffffffffffffffffffffffff\n      and\n      0xffffffffffffffffffffffffffffffffffffffff\n      and\n      dup2\n      mstore\n      0x20\n      add\n      swap1\n      dup2\n      mstore\n      0x20\n      add\n      0x00\n      keccak256\n        /* \"contracts/stake_reward_MLM.sol\":4422:4458  DUSDinvestor[_referral].hisReferrals */\n      0x01\n      add\n        /* \"contracts/stake_reward_MLM.sol\":4464:4474  msg.sender */\n      caller\n        /* \"contracts/stake_reward_MLM.sol\":4422:4475  DUSDinvestor[_referral].hisReferrals.push(msg.sender) */\n      swap1\n      dup1\n      0x01\n      dup2\n      sload\n      add\n      dup1\n      dup3\n      sstore\n      dup1\n      swap2\n      pop\n      pop\n      0x01\n      swap1\n      sub\n      swap1\n      0x00\n      mstore\n      keccak256(0x00, 0x20)\n      add\n      0x00\n      swap1\n      swap2\n      swap1\n      swap2\n      swap1\n      swap2\n      0x0100\n      exp\n      dup2\n      sload\n      dup2\n      0xffffffffffffffffffffffffffffffffffffffff\n      mul\n      not\n      and\n      swap1\n      dup4\n      0xffffffffffffffffffffffffffffffffffffffff\n      and\n      mul\n      or\n      swap1\n      sstore\n      pop\n        /* \"contracts/stake_reward_MLM.sol\":4493:4546  sendRewardToDUSDReferrals(msg.sender,_investedamount) */\n      tag_118\n        /* \"contracts/stake_reward_MLM.sol\":4519:4529  msg.sender */\n      caller\n        /* \"contracts/stake_reward_MLM.sol\":4530:4545  _investedamount */\n      dup6\n        /* \"contracts/stake_reward_MLM.sol\":4493:4518  sendRewardToDUSDReferrals */\n      tag_65\n        /* \"contracts/stake_reward_MLM.sol\":4493:4546  sendRewardToDUSDReferrals(msg.sender,_investedamount) */\n      jump\t// in\n    tag_118:\n        /* \"contracts/stake_reward_MLM.sol\":4085:4655  if(_referral==address(0))                                         //checking that investor comes from the referral link or not... */\n    tag_116:\n        /* \"contracts/stake_reward_MLM.sol\":4675:4679  true */\n      0x01\n        /* \"contracts/stake_reward_MLM.sol\":4668:4679  return true */\n      swap2\n      pop\n      pop\n        /* \"contracts/stake_reward_MLM.sol\":2969:4703  function Stake(uint _investedamount,address _referral) external returns(bool success){... */\n      swap3\n      swap2\n      pop\n      pop\n      jump\t// out\n        /* \"contracts/stake_reward_MLM.sol\":8592:8703  function set_min_Stake_amount(uint _amount) public ... */\n    tag_47:\n        /* \"contracts/stake_reward_MLM.sol\":8685:8692  _amount */\n      dup1\n        /* \"contracts/stake_reward_MLM.sol\":8666:8682  min_Stake_amount */\n      0x05\n        /* \"contracts/stake_reward_MLM.sol\":8666:8692  min_Stake_amount = _amount */\n      dup2\n      swap1\n      sstore\n      pop\n        /* \"contracts/stake_reward_MLM.sol\":8592:8703  function set_min_Stake_amount(uint _amount) public ... */\n      pop\n      jump\t// out\n        /* \"contracts/stake_reward_MLM.sol\":6460:7443  function getAllDUSDinvestments() public view returns (allInvestments[] memory) { //this function will return the all investments of the investor and withware date... */\n    tag_49:\n        /* \"contracts/stake_reward_MLM.sol\":6514:6537  allInvestments[] memory */\n      0x60\n        /* \"contracts/stake_reward_MLM.sol\":6635:6643  uint num */\n      0x00\n        /* \"contracts/stake_reward_MLM.sol\":6646:6658  DUSDinvestor */\n      0x08\n        /* \"contracts/stake_reward_MLM.sol\":6646:6670  DUSDinvestor[msg.sender] */\n      0x00\n        /* \"contracts/stake_reward_MLM.sol\":6659:6669  msg.sender */\n      caller\n        /* \"contracts/stake_reward_MLM.sol\":6646:6670  DUSDinvestor[msg.sender] */\n      0xffffffffffffffffffffffffffffffffffffffff\n      and\n      0xffffffffffffffffffffffffffffffffffffffff\n      and\n      dup2\n      mstore\n      0x20\n      add\n      swap1\n      dup2\n      mstore\n      0x20\n      add\n      0x00\n      keccak256\n        /* \"contracts/stake_reward_MLM.sol\":6646:6685  DUSDinvestor[msg.sender].noOfInvestment */\n      0x04\n      add\n      sload\n        /* \"contracts/stake_reward_MLM.sol\":6635:6685  uint num = DUSDinvestor[msg.sender].noOfInvestment */\n      swap1\n      pop\n        /* \"contracts/stake_reward_MLM.sol\":6699:6708  uint temp */\n      0x00\n        /* \"contracts/stake_reward_MLM.sol\":6722:6739  uint currentIndex */\n      dup1\n        /* \"contracts/stake_reward_MLM.sol\":6770:6776  uint i */\n      0x00\n        /* \"contracts/stake_reward_MLM.sol\":6766:6942  for(uint i=0;i<num;i++)... */\n    tag_121:\n        /* \"contracts/stake_reward_MLM.sol\":6781:6784  num */\n      dup4\n        /* \"contracts/stake_reward_MLM.sol\":6779:6780  i */\n      dup2\n        /* \"contracts/stake_reward_MLM.sol\":6779:6784  i<num */\n      lt\n        /* \"contracts/stake_reward_MLM.sol\":6766:6942  for(uint i=0;i<num;i++)... */\n      iszero\n      tag_122\n      jumpi\n        /* \"contracts/stake_reward_MLM.sol\":6879:6880  0 */\n      0x00\n        /* \"contracts/stake_reward_MLM.sol\":6823:6835  DUSDinvestor */\n      0x08\n        /* \"contracts/stake_reward_MLM.sol\":6823:6847  DUSDinvestor[msg.sender] */\n      0x00\n        /* \"contracts/stake_reward_MLM.sol\":6836:6846  msg.sender */\n      caller\n        /* \"contracts/stake_reward_MLM.sol\":6823:6847  DUSDinvestor[msg.sender] */\n      0xffffffffffffffffffffffffffffffffffffffff\n      and\n      0xffffffffffffffffffffffffffffffffffffffff\n      and\n      dup2\n      mstore\n      0x20\n      add\n      swap1\n      dup2\n      mstore\n      0x20\n      add\n      0x00\n      keccak256\n        /* \"contracts/stake_reward_MLM.sol\":6823:6858  DUSDinvestor[msg.sender].investment */\n      0x00\n      add\n        /* \"contracts/stake_reward_MLM.sol\":6823:6861  DUSDinvestor[msg.sender].investment[i] */\n      0x00\n        /* \"contracts/stake_reward_MLM.sol\":6859:6860  i */\n      dup4\n        /* \"contracts/stake_reward_MLM.sol\":6823:6861  DUSDinvestor[msg.sender].investment[i] */\n      dup2\n      mstore\n      0x20\n      add\n      swap1\n      dup2\n      mstore\n      0x20\n      add\n      0x00\n      keccak256\n        /* \"contracts/stake_reward_MLM.sol\":6823:6876  DUSDinvestor[msg.sender].investment[i].investedAmount */\n      0x00\n      add\n      sload\n        /* \"contracts/stake_reward_MLM.sol\":6823:6880  DUSDinvestor[msg.sender].investment[i].investedAmount > 0 */\n      gt\n        /* \"contracts/stake_reward_MLM.sol\":6819:6927  if( DUSDinvestor[msg.sender].investment[i].investedAmount > 0 ){... */\n      iszero\n      tag_124\n      jumpi\n        /* \"contracts/stake_reward_MLM.sol\":6903:6909  temp++ */\n      dup3\n      dup1\n      tag_125\n      swap1\n      tag_103\n      jump\t// in\n    tag_125:\n      swap4\n      pop\n      pop\n        /* \"contracts/stake_reward_MLM.sol\":6819:6927  if( DUSDinvestor[msg.sender].investment[i].investedAmount > 0 ){... */\n    tag_124:\n        /* \"contracts/stake_reward_MLM.sol\":6785:6788  i++ */\n      dup1\n      dup1\n      tag_126\n      swap1\n      tag_103\n      jump\t// in\n    tag_126:\n      swap2\n      pop\n      pop\n        /* \"contracts/stake_reward_MLM.sol\":6766:6942  for(uint i=0;i<num;i++)... */\n      jump(tag_121)\n    tag_122:\n      pop\n        /* \"contracts/stake_reward_MLM.sol\":6965:6997  allInvestments[] memory Invested */\n      0x00\n        /* \"contracts/stake_reward_MLM.sol\":7022:7026  temp */\n      dup3\n        /* \"contracts/stake_reward_MLM.sol\":7001:7027  new allInvestments[](temp) */\n      0xffffffffffffffff\n      dup2\n      gt\n      iszero\n      tag_127\n      jumpi\n      mstore(0x00, 0x4e487b7100000000000000000000000000000000000000000000000000000000)\n      mstore(0x04, 0x41)\n      revert(0x00, 0x24)\n    tag_127:\n      mload(0x40)\n      swap1\n      dup1\n      dup3\n      mstore\n      dup1\n      0x20\n      mul\n      0x20\n      add\n      dup3\n      add\n      0x40\n      mstore\n      dup1\n      iszero\n      tag_128\n      jumpi\n      dup2\n      0x20\n      add\n    tag_129:\n      tag_130\n      tag_131\n      jump\t// in\n    tag_130:\n      dup2\n      mstore\n      0x20\n      add\n      swap1\n      0x01\n      swap1\n      sub\n      swap1\n      dup2\n      tag_129\n      jumpi\n      swap1\n      pop\n    tag_128:\n      pop\n        /* \"contracts/stake_reward_MLM.sol\":6965:7027  allInvestments[] memory Invested =  new allInvestments[](temp) */\n      swap1\n      pop\n        /* \"contracts/stake_reward_MLM.sol\":7047:7053  uint i */\n      0x00\n        /* \"contracts/stake_reward_MLM.sol\":7043:7403  for(uint i=0;i<num;i++)... */\n    tag_132:\n        /* \"contracts/stake_reward_MLM.sol\":7058:7061  num */\n      dup5\n        /* \"contracts/stake_reward_MLM.sol\":7056:7057  i */\n      dup2\n        /* \"contracts/stake_reward_MLM.sol\":7056:7061  i<num */\n      lt\n        /* \"contracts/stake_reward_MLM.sol\":7043:7403  for(uint i=0;i<num;i++)... */\n      iszero\n      tag_133\n      jumpi\n        /* \"contracts/stake_reward_MLM.sol\":7156:7157  0 */\n      0x00\n        /* \"contracts/stake_reward_MLM.sol\":7100:7112  DUSDinvestor */\n      0x08\n        /* \"contracts/stake_reward_MLM.sol\":7100:7124  DUSDinvestor[msg.sender] */\n      0x00\n        /* \"contracts/stake_reward_MLM.sol\":7113:7123  msg.sender */\n      caller\n        /* \"contracts/stake_reward_MLM.sol\":7100:7124  DUSDinvestor[msg.sender] */\n      0xffffffffffffffffffffffffffffffffffffffff\n      and\n      0xffffffffffffffffffffffffffffffffffffffff\n      and\n      dup2\n      mstore\n      0x20\n      add\n      swap1\n      dup2\n      mstore\n      0x20\n      add\n      0x00\n      keccak256\n        /* \"contracts/stake_reward_MLM.sol\":7100:7135  DUSDinvestor[msg.sender].investment */\n      0x00\n      add\n        /* \"contracts/stake_reward_MLM.sol\":7100:7138  DUSDinvestor[msg.sender].investment[i] */\n      0x00\n        /* \"contracts/stake_reward_MLM.sol\":7136:7137  i */\n      dup4\n        /* \"contracts/stake_reward_MLM.sol\":7100:7138  DUSDinvestor[msg.sender].investment[i] */\n      dup2\n      mstore\n      0x20\n      add\n      swap1\n      dup2\n      mstore\n      0x20\n      add\n      0x00\n      keccak256\n        /* \"contracts/stake_reward_MLM.sol\":7100:7153  DUSDinvestor[msg.sender].investment[i].investedAmount */\n      0x00\n      add\n      sload\n        /* \"contracts/stake_reward_MLM.sol\":7100:7157  DUSDinvestor[msg.sender].investment[i].investedAmount > 0 */\n      gt\n        /* \"contracts/stake_reward_MLM.sol\":7096:7388  if( DUSDinvestor[msg.sender].investment[i].investedAmount > 0 ){... */\n      iszero\n      tag_135\n      jumpi\n        /* \"contracts/stake_reward_MLM.sol\":7297:7309  DUSDinvestor */\n      0x08\n        /* \"contracts/stake_reward_MLM.sol\":7297:7321  DUSDinvestor[msg.sender] */\n      0x00\n        /* \"contracts/stake_reward_MLM.sol\":7310:7320  msg.sender */\n      caller\n        /* \"contracts/stake_reward_MLM.sol\":7297:7321  DUSDinvestor[msg.sender] */\n      0xffffffffffffffffffffffffffffffffffffffff\n      and\n      0xffffffffffffffffffffffffffffffffffffffff\n      and\n      dup2\n      mstore\n      0x20\n      add\n      swap1\n      dup2\n      mstore\n      0x20\n      add\n      0x00\n      keccak256\n        /* \"contracts/stake_reward_MLM.sol\":7297:7332  DUSDinvestor[msg.sender].investment */\n      0x00\n      add\n        /* \"contracts/stake_reward_MLM.sol\":7297:7335  DUSDinvestor[msg.sender].investment[i] */\n      0x00\n        /* \"contracts/stake_reward_MLM.sol\":7333:7334  i */\n      dup3\n        /* \"contracts/stake_reward_MLM.sol\":7297:7335  DUSDinvestor[msg.sender].investment[i] */\n      dup2\n      mstore\n      0x20\n      add\n      swap1\n      dup2\n      mstore\n      0x20\n      add\n      0x00\n      keccak256\n        /* \"contracts/stake_reward_MLM.sol\":7274:7335  Invested[currentIndex]=DUSDinvestor[msg.sender].investment[i] */\n      mload(0x40)\n      dup1\n      0x80\n      add\n      0x40\n      mstore\n      swap1\n      dup2\n      0x00\n      dup3\n      add\n      sload\n      dup2\n      mstore\n      0x20\n      add\n      0x01\n      dup3\n      add\n      sload\n      dup2\n      mstore\n      0x20\n      add\n      0x02\n      dup3\n      add\n      sload\n      dup2\n      mstore\n      0x20\n      add\n      0x03\n      dup3\n      add\n      sload\n      dup2\n      mstore\n      pop\n      pop\n        /* \"contracts/stake_reward_MLM.sol\":7274:7282  Invested */\n      dup3\n        /* \"contracts/stake_reward_MLM.sol\":7283:7295  currentIndex */\n      dup5\n        /* \"contracts/stake_reward_MLM.sol\":7274:7296  Invested[currentIndex] */\n      dup2\n      mload\n      dup2\n      lt\n      tag_136\n      jumpi\n      mstore(0x00, 0x4e487b7100000000000000000000000000000000000000000000000000000000)\n      mstore(0x04, 0x32)\n      revert(0x00, 0x24)\n    tag_136:\n      0x20\n      mul\n      0x20\n      add\n      add\n        /* \"contracts/stake_reward_MLM.sol\":7274:7335  Invested[currentIndex]=DUSDinvestor[msg.sender].investment[i] */\n      dup2\n      swap1\n      mstore\n      pop\n        /* \"contracts/stake_reward_MLM.sol\":7356:7370  currentIndex++ */\n      dup3\n      dup1\n      tag_137\n      swap1\n      tag_103\n      jump\t// in\n    tag_137:\n      swap4\n      pop\n      pop\n        /* \"contracts/stake_reward_MLM.sol\":7096:7388  if( DUSDinvestor[msg.sender].investment[i].investedAmount > 0 ){... */\n    tag_135:\n        /* \"contracts/stake_reward_MLM.sol\":7062:7065  i++ */\n      dup1\n      dup1\n      tag_138\n      swap1\n      tag_103\n      jump\t// in\n    tag_138:\n      swap2\n      pop\n      pop\n        /* \"contracts/stake_reward_MLM.sol\":7043:7403  for(uint i=0;i<num;i++)... */\n      jump(tag_132)\n    tag_133:\n      pop\n        /* \"contracts/stake_reward_MLM.sol\":7423:7431  Invested */\n      dup1\n        /* \"contracts/stake_reward_MLM.sol\":7416:7431  return Invested */\n      swap5\n      pop\n      pop\n      pop\n      pop\n      pop\n        /* \"contracts/stake_reward_MLM.sol\":6460:7443  function getAllDUSDinvestments() public view returns (allInvestments[] memory) { //this function will return the all investments of the investor and withware date... */\n      swap1\n      jump\t// out\n        /* \"contracts/stake_reward_MLM.sol\":7453:8059  function getReward() view public returns(uint){ //this function is get the total reward balance of the investor... */\n    tag_53:\n        /* \"contracts/stake_reward_MLM.sol\":7494:7498  uint */\n      0x00\n        /* \"contracts/stake_reward_MLM.sol\":7577:7593  uint totalReward */\n      dup1\n        /* \"contracts/stake_reward_MLM.sol\":7607:7619  uint depTime */\n      0x00\n        /* \"contracts/stake_reward_MLM.sol\":7633:7642  uint temp */\n      dup1\n        /* \"contracts/stake_reward_MLM.sol\":7645:7657  DUSDinvestor */\n      0x08\n        /* \"contracts/stake_reward_MLM.sol\":7645:7669  DUSDinvestor[msg.sender] */\n      0x00\n        /* \"contracts/stake_reward_MLM.sol\":7658:7668  msg.sender */\n      caller\n        /* \"contracts/stake_reward_MLM.sol\":7645:7669  DUSDinvestor[msg.sender] */\n      0xffffffffffffffffffffffffffffffffffffffff\n      and\n      0xffffffffffffffffffffffffffffffffffffffff\n      and\n      dup2\n      mstore\n      0x20\n      add\n      swap1\n      dup2\n      mstore\n      0x20\n      add\n      0x00\n      keccak256\n        /* \"contracts/stake_reward_MLM.sol\":7645:7684  DUSDinvestor[msg.sender].noOfInvestment */\n      0x04\n      add\n      sload\n        /* \"contracts/stake_reward_MLM.sol\":7633:7684  uint temp = DUSDinvestor[msg.sender].noOfInvestment */\n      swap1\n      pop\n        /* \"contracts/stake_reward_MLM.sol\":7702:7708  uint i */\n      0x00\n        /* \"contracts/stake_reward_MLM.sol\":7698:8017  for(uint i=0;i < temp;i++)... */\n    tag_140:\n        /* \"contracts/stake_reward_MLM.sol\":7715:7719  temp */\n      dup2\n        /* \"contracts/stake_reward_MLM.sol\":7711:7712  i */\n      dup2\n        /* \"contracts/stake_reward_MLM.sol\":7711:7719  i < temp */\n      lt\n        /* \"contracts/stake_reward_MLM.sol\":7698:8017  for(uint i=0;i < temp;i++)... */\n      iszero\n      tag_141\n      jumpi\n        /* \"contracts/stake_reward_MLM.sol\":7785:7797  DUSDinvestor */\n      0x08\n        /* \"contracts/stake_reward_MLM.sol\":7785:7809  DUSDinvestor[msg.sender] */\n      0x00\n        /* \"contracts/stake_reward_MLM.sol\":7798:7808  msg.sender */\n      caller\n        /* \"contracts/stake_reward_MLM.sol\":7785:7809  DUSDinvestor[msg.sender] */\n      0xffffffffffffffffffffffffffffffffffffffff\n      and\n      0xffffffffffffffffffffffffffffffffffffffff\n      and\n      dup2\n      mstore\n      0x20\n      add\n      swap1\n      dup2\n      mstore\n      0x20\n      add\n      0x00\n      keccak256\n        /* \"contracts/stake_reward_MLM.sol\":7785:7820  DUSDinvestor[msg.sender].investment */\n      0x00\n      add\n        /* \"contracts/stake_reward_MLM.sol\":7785:7823  DUSDinvestor[msg.sender].investment[i] */\n      0x00\n        /* \"contracts/stake_reward_MLM.sol\":7821:7822  i */\n      dup3\n        /* \"contracts/stake_reward_MLM.sol\":7785:7823  DUSDinvestor[msg.sender].investment[i] */\n      dup2\n      mstore\n      0x20\n      add\n      swap1\n      dup2\n      mstore\n      0x20\n      add\n      0x00\n      keccak256\n        /* \"contracts/stake_reward_MLM.sol\":7785:7835  DUSDinvestor[msg.sender].investment[i].DepositTime */\n      0x02\n      add\n      sload\n        /* \"contracts/stake_reward_MLM.sol\":7767:7782  block.timestamp */\n      timestamp\n        /* \"contracts/stake_reward_MLM.sol\":7767:7835  block.timestamp - DUSDinvestor[msg.sender].investment[i].DepositTime */\n      tag_143\n      swap2\n      swap1\n      tag_144\n      jump\t// in\n    tag_143:\n        /* \"contracts/stake_reward_MLM.sol\":7758:7835  depTime =block.timestamp - DUSDinvestor[msg.sender].investment[i].DepositTime */\n      swap3\n      pop\n        /* \"contracts/stake_reward_MLM.sol\":7869:7871  60 */\n      0x3c\n        /* \"contracts/stake_reward_MLM.sol\":7861:7868  depTime */\n      dup4\n        /* \"contracts/stake_reward_MLM.sol\":7861:7871  depTime/60 */\n      tag_145\n      swap2\n      swap1\n      tag_146\n      jump\t// in\n    tag_145:\n        /* \"contracts/stake_reward_MLM.sol\":7853:7871  depTime=depTime/60 */\n      swap3\n      pop\n        /* \"contracts/stake_reward_MLM.sol\":7908:7909  0 */\n      0x00\n        /* \"contracts/stake_reward_MLM.sol\":7900:7907  depTime */\n      dup4\n        /* \"contracts/stake_reward_MLM.sol\":7900:7909  depTime>0 */\n      gt\n        /* \"contracts/stake_reward_MLM.sol\":7897:8002  if(depTime>0)... */\n      iszero\n      tag_147\n      jumpi\n        /* \"contracts/stake_reward_MLM.sol\":7972:7983  rewardToken */\n      sload(0x04)\n        /* \"contracts/stake_reward_MLM.sol\":7962:7969  depTime */\n      dup4\n        /* \"contracts/stake_reward_MLM.sol\":7962:7983  depTime * rewardToken */\n      tag_148\n      swap2\n      swap1\n      tag_149\n      jump\t// in\n    tag_148:\n        /* \"contracts/stake_reward_MLM.sol\":7948:7983  totalReward = depTime * rewardToken */\n      swap4\n      pop\n        /* \"contracts/stake_reward_MLM.sol\":7897:8002  if(depTime>0)... */\n    tag_147:\n        /* \"contracts/stake_reward_MLM.sol\":7720:7723  i++ */\n      dup1\n      dup1\n      tag_150\n      swap1\n      tag_103\n      jump\t// in\n    tag_150:\n      swap2\n      pop\n      pop\n        /* \"contracts/stake_reward_MLM.sol\":7698:8017  for(uint i=0;i < temp;i++)... */\n      jump(tag_140)\n    tag_141:\n      pop\n        /* \"contracts/stake_reward_MLM.sol\":8037:8048  totalReward */\n      dup3\n        /* \"contracts/stake_reward_MLM.sol\":8030:8048  return totalReward */\n      swap4\n      pop\n      pop\n      pop\n      pop\n        /* \"contracts/stake_reward_MLM.sol\":7453:8059  function getReward() view public returns(uint){ //this function is get the total reward balance of the investor... */\n      swap1\n      jump\t// out\n        /* \"contracts/stake_reward_MLM.sol\":8712:8823  function set_max_Stake_amount(uint _amount) public ... */\n    tag_57:\n        /* \"contracts/stake_reward_MLM.sol\":8805:8812  _amount */\n      dup1\n        /* \"contracts/stake_reward_MLM.sol\":8786:8802  max_Stake_amount */\n      0x06\n        /* \"contracts/stake_reward_MLM.sol\":8786:8812  max_Stake_amount = _amount */\n      dup2\n      swap1\n      sstore\n      pop\n        /* \"contracts/stake_reward_MLM.sol\":8712:8823  function set_max_Stake_amount(uint _amount) public ... */\n      pop\n      jump\t// out\n        /* \"contracts/stake_reward_MLM.sol\":5132:6230  function unStake(uint _id) external  returns (bool success){... */\n    tag_60:\n        /* \"contracts/stake_reward_MLM.sol\":5178:5190  bool success */\n      0x00\n        /* \"contracts/stake_reward_MLM.sol\":5269:5270  0 */\n      dup1\n        /* \"contracts/stake_reward_MLM.sol\":5213:5225  DUSDinvestor */\n      0x08\n        /* \"contracts/stake_reward_MLM.sol\":5213:5237  DUSDinvestor[msg.sender] */\n      0x00\n        /* \"contracts/stake_reward_MLM.sol\":5226:5236  msg.sender */\n      caller\n        /* \"contracts/stake_reward_MLM.sol\":5213:5237  DUSDinvestor[msg.sender] */\n      0xffffffffffffffffffffffffffffffffffffffff\n      and\n      0xffffffffffffffffffffffffffffffffffffffff\n      and\n      dup2\n      mstore\n      0x20\n      add\n      swap1\n      dup2\n      mstore\n      0x20\n      add\n      0x00\n      keccak256\n        /* \"contracts/stake_reward_MLM.sol\":5213:5248  DUSDinvestor[msg.sender].investment */\n      0x00\n      add\n        /* \"contracts/stake_reward_MLM.sol\":5213:5253  DUSDinvestor[msg.sender].investment[_id] */\n      0x00\n        /* \"contracts/stake_reward_MLM.sol\":5249:5252  _id */\n      dup5\n        /* \"contracts/stake_reward_MLM.sol\":5213:5253  DUSDinvestor[msg.sender].investment[_id] */\n      dup2\n      mstore\n      0x20\n      add\n      swap1\n      dup2\n      mstore\n      0x20\n      add\n      0x00\n      keccak256\n        /* \"contracts/stake_reward_MLM.sol\":5213:5268  DUSDinvestor[msg.sender].investment[_id].investedAmount */\n      0x00\n      add\n      sload\n        /* \"contracts/stake_reward_MLM.sol\":5213:5270  DUSDinvestor[msg.sender].investment[_id].investedAmount>0 */\n      gt\n        /* \"contracts/stake_reward_MLM.sol\":5205:5311  require(DUSDinvestor[msg.sender].investment[_id].investedAmount>0,\"you dont have investment to withdrawn\") */\n      tag_153\n      jumpi\n      mload(0x40)\n      0x08c379a000000000000000000000000000000000000000000000000000000000\n      dup2\n      mstore\n      0x04\n      add\n      tag_154\n      swap1\n      tag_155\n      jump\t// in\n    tag_154:\n      mload(0x40)\n      dup1\n      swap2\n      sub\n      swap1\n      revert\n    tag_153:\n        /* \"contracts/stake_reward_MLM.sol\":5383:5394  uint amount */\n      0x00\n        /* \"contracts/stake_reward_MLM.sol\":5395:5407  DUSDinvestor */\n      0x08\n        /* \"contracts/stake_reward_MLM.sol\":5395:5419  DUSDinvestor[msg.sender] */\n      0x00\n        /* \"contracts/stake_reward_MLM.sol\":5408:5418  msg.sender */\n      caller\n        /* \"contracts/stake_reward_MLM.sol\":5395:5419  DUSDinvestor[msg.sender] */\n      0xffffffffffffffffffffffffffffffffffffffff\n      and\n      0xffffffffffffffffffffffffffffffffffffffff\n      and\n      dup2\n      mstore\n      0x20\n      add\n      swap1\n      dup2\n      mstore\n      0x20\n      add\n      0x00\n      keccak256\n        /* \"contracts/stake_reward_MLM.sol\":5395:5430  DUSDinvestor[msg.sender].investment */\n      0x00\n      add\n        /* \"contracts/stake_reward_MLM.sol\":5395:5435  DUSDinvestor[msg.sender].investment[_id] */\n      0x00\n        /* \"contracts/stake_reward_MLM.sol\":5431:5434  _id */\n      dup5\n        /* \"contracts/stake_reward_MLM.sol\":5395:5435  DUSDinvestor[msg.sender].investment[_id] */\n      dup2\n      mstore\n      0x20\n      add\n      swap1\n      dup2\n      mstore\n      0x20\n      add\n      0x00\n      keccak256\n        /* \"contracts/stake_reward_MLM.sol\":5395:5450  DUSDinvestor[msg.sender].investment[_id].investedAmount */\n      0x00\n      add\n      sload\n        /* \"contracts/stake_reward_MLM.sol\":5383:5450  uint amount=DUSDinvestor[msg.sender].investment[_id].investedAmount */\n      swap1\n      pop\n        /* \"contracts/stake_reward_MLM.sol\":5524:5539  block.timestamp */\n      timestamp\n        /* \"contracts/stake_reward_MLM.sol\":5467:5479  DUSDinvestor */\n      0x08\n        /* \"contracts/stake_reward_MLM.sol\":5467:5491  DUSDinvestor[msg.sender] */\n      0x00\n        /* \"contracts/stake_reward_MLM.sol\":5480:5490  msg.sender */\n      caller\n        /* \"contracts/stake_reward_MLM.sol\":5467:5491  DUSDinvestor[msg.sender] */\n      0xffffffffffffffffffffffffffffffffffffffff\n      and\n      0xffffffffffffffffffffffffffffffffffffffff\n      and\n      dup2\n      mstore\n      0x20\n      add\n      swap1\n      dup2\n      mstore\n      0x20\n      add\n      0x00\n      keccak256\n        /* \"contracts/stake_reward_MLM.sol\":5467:5502  DUSDinvestor[msg.sender].investment */\n      0x00\n      add\n        /* \"contracts/stake_reward_MLM.sol\":5467:5507  DUSDinvestor[msg.sender].investment[_id] */\n      0x00\n        /* \"contracts/stake_reward_MLM.sol\":5503:5506  _id */\n      dup6\n        /* \"contracts/stake_reward_MLM.sol\":5467:5507  DUSDinvestor[msg.sender].investment[_id] */\n      dup2\n      mstore\n      0x20\n      add\n      swap1\n      dup2\n      mstore\n      0x20\n      add\n      0x00\n      keccak256\n        /* \"contracts/stake_reward_MLM.sol\":5467:5521  DUSDinvestor[msg.sender].investment[_id].withdrawnTime */\n      0x01\n      add\n      sload\n        /* \"contracts/stake_reward_MLM.sol\":5467:5539  DUSDinvestor[msg.sender].investment[_id].withdrawnTime > block.timestamp */\n      gt\n        /* \"contracts/stake_reward_MLM.sol\":5464:5603  if(DUSDinvestor[msg.sender].investment[_id].withdrawnTime > block.timestamp)... */\n      iszero\n      tag_156\n      jumpi\n        /* \"contracts/stake_reward_MLM.sol\":5587:5588  2 */\n      0x02\n        /* \"contracts/stake_reward_MLM.sol\":5580:5586  amount */\n      dup2\n        /* \"contracts/stake_reward_MLM.sol\":5580:5588  amount/2 */\n      tag_157\n      swap2\n      swap1\n      tag_146\n      jump\t// in\n    tag_157:\n        /* \"contracts/stake_reward_MLM.sol\":5571:5588  amount = amount/2 */\n      swap1\n      pop\n        /* \"contracts/stake_reward_MLM.sol\":5464:5603  if(DUSDinvestor[msg.sender].investment[_id].withdrawnTime > block.timestamp)... */\n    tag_156:\n        /* \"contracts/stake_reward_MLM.sol\":5634:5646  DUSDcontract */\n      0x02\n      0x00\n      swap1\n      sload\n      swap1\n      0x0100\n      exp\n      swap1\n      div\n      0xffffffffffffffffffffffffffffffffffffffff\n      and\n        /* \"contracts/stake_reward_MLM.sol\":5629:5656  DUSD(DUSDcontract).transfer */\n      0xffffffffffffffffffffffffffffffffffffffff\n      and\n      0xa9059cbb\n        /* \"contracts/stake_reward_MLM.sol\":5657:5667  msg.sender */\n      caller\n        /* \"contracts/stake_reward_MLM.sol\":5668:5674  amount */\n      dup4\n        /* \"contracts/stake_reward_MLM.sol\":5629:5675  DUSD(DUSDcontract).transfer(msg.sender,amount) */\n      mload(0x40)\n      dup4\n      0xffffffff\n      and\n      0xe0\n      shl\n      dup2\n      mstore\n      0x04\n      add\n      tag_158\n      swap3\n      swap2\n      swap1\n      tag_159\n      jump\t// in\n    tag_158:\n      0x20\n      mload(0x40)\n      dup1\n      dup4\n      sub\n      dup2\n      0x00\n      dup8\n      dup1\n      extcodesize\n      iszero\n      dup1\n      iszero\n      tag_160\n      jumpi\n      0x00\n      dup1\n      revert\n    tag_160:\n      pop\n      gas\n      call\n      iszero\n      dup1\n      iszero\n      tag_162\n      jumpi\n      returndatasize\n      0x00\n      dup1\n      returndatacopy\n      revert(0x00, returndatasize)\n    tag_162:\n      pop\n      pop\n      pop\n      pop\n      mload(0x40)\n      returndatasize\n      not(0x1f)\n      0x1f\n      dup3\n      add\n      and\n      dup3\n      add\n      dup1\n      0x40\n      mstore\n      pop\n      dup2\n      add\n      swap1\n      tag_163\n      swap2\n      swap1\n      tag_114\n      jump\t// in\n    tag_163:\n      pop\n        /* \"contracts/stake_reward_MLM.sol\":5762:5774  DUSDcontract */\n      0x02\n      0x00\n      swap1\n      sload\n      swap1\n      0x0100\n      exp\n      swap1\n      div\n      0xffffffffffffffffffffffffffffffffffffffff\n      and\n        /* \"contracts/stake_reward_MLM.sol\":5757:5784  DUSD(DUSDcontract).transfer */\n      0xffffffffffffffffffffffffffffffffffffffff\n      and\n      0xa9059cbb\n        /* \"contracts/stake_reward_MLM.sol\":5785:5790  owner */\n      0x00\n      dup1\n      sload\n      swap1\n      0x0100\n      exp\n      swap1\n      div\n      0xffffffffffffffffffffffffffffffffffffffff\n      and\n        /* \"contracts/stake_reward_MLM.sol\":5791:5797  amount */\n      dup4\n        /* \"contracts/stake_reward_MLM.sol\":5757:5798  DUSD(DUSDcontract).transfer(owner,amount) */\n      mload(0x40)\n      dup4\n      0xffffffff\n      and\n      0xe0\n      shl\n      dup2\n      mstore\n      0x04\n      add\n      tag_164\n      swap3\n      swap2\n      swap1\n      tag_159\n      jump\t// in\n    tag_164:\n      0x20\n      mload(0x40)\n      dup1\n      dup4\n      sub\n      dup2\n      0x00\n      dup8\n      dup1\n      extcodesize\n      iszero\n      dup1\n      iszero\n      tag_165\n      jumpi\n      0x00\n      dup1\n      revert\n    tag_165:\n      pop\n      gas\n      call\n      iszero\n      dup1\n      iszero\n      tag_167\n      jumpi\n      returndatasize\n      0x00\n      dup1\n      returndatacopy\n      revert(0x00, returndatasize)\n    tag_167:\n      pop\n      pop\n      pop\n      pop\n      mload(0x40)\n      returndatasize\n      not(0x1f)\n      0x1f\n      dup3\n      add\n      and\n      dup3\n      add\n      dup1\n      0x40\n      mstore\n      pop\n      dup2\n      add\n      swap1\n      tag_168\n      swap2\n      swap1\n      tag_114\n      jump\t// in\n    tag_168:\n      pop\n        /* \"contracts/stake_reward_MLM.sol\":5937:5938  0 */\n      0x00\n        /* \"contracts/stake_reward_MLM.sol\":5881:5893  DUSDinvestor */\n      0x08\n        /* \"contracts/stake_reward_MLM.sol\":5881:5905  DUSDinvestor[msg.sender] */\n      0x00\n        /* \"contracts/stake_reward_MLM.sol\":5894:5904  msg.sender */\n      caller\n        /* \"contracts/stake_reward_MLM.sol\":5881:5905  DUSDinvestor[msg.sender] */\n      0xffffffffffffffffffffffffffffffffffffffff\n      and\n      0xffffffffffffffffffffffffffffffffffffffff\n      and\n      dup2\n      mstore\n      0x20\n      add\n      swap1\n      dup2\n      mstore\n      0x20\n      add\n      0x00\n      keccak256\n        /* \"contracts/stake_reward_MLM.sol\":5881:5916  DUSDinvestor[msg.sender].investment */\n      0x00\n      add\n        /* \"contracts/stake_reward_MLM.sol\":5881:5921  DUSDinvestor[msg.sender].investment[_id] */\n      0x00\n        /* \"contracts/stake_reward_MLM.sol\":5917:5920  _id */\n      dup6\n        /* \"contracts/stake_reward_MLM.sol\":5881:5921  DUSDinvestor[msg.sender].investment[_id] */\n      dup2\n      mstore\n      0x20\n      add\n      swap1\n      dup2\n      mstore\n      0x20\n      add\n      0x00\n      keccak256\n        /* \"contracts/stake_reward_MLM.sol\":5881:5936  DUSDinvestor[msg.sender].investment[_id].investedAmount */\n      0x00\n      add\n        /* \"contracts/stake_reward_MLM.sol\":5881:5938  DUSDinvestor[msg.sender].investment[_id].investedAmount=0 */\n      dup2\n      swap1\n      sstore\n      pop\n        /* \"contracts/stake_reward_MLM.sol\":6117:6123  amount */\n      dup1\n        /* \"contracts/stake_reward_MLM.sol\":6075:6087  DUSDinvestor */\n      0x08\n        /* \"contracts/stake_reward_MLM.sol\":6075:6099  DUSDinvestor[msg.sender] */\n      0x00\n        /* \"contracts/stake_reward_MLM.sol\":6088:6098  msg.sender */\n      caller\n        /* \"contracts/stake_reward_MLM.sol\":6075:6099  DUSDinvestor[msg.sender] */\n      0xffffffffffffffffffffffffffffffffffffffff\n      and\n      0xffffffffffffffffffffffffffffffffffffffff\n      and\n      dup2\n      mstore\n      0x20\n      add\n      swap1\n      dup2\n      mstore\n      0x20\n      add\n      0x00\n      keccak256\n        /* \"contracts/stake_reward_MLM.sol\":6075:6115  DUSDinvestor[msg.sender].totalInvestment */\n      0x05\n      add\n      0x00\n        /* \"contracts/stake_reward_MLM.sol\":6075:6123  DUSDinvestor[msg.sender].totalInvestment-=amount */\n      dup3\n      dup3\n      sload\n      tag_169\n      swap2\n      swap1\n      tag_144\n      jump\t// in\n    tag_169:\n      swap3\n      pop\n      pop\n      dup2\n      swap1\n      sstore\n      pop\n        /* \"contracts/stake_reward_MLM.sol\":6214:6218  true */\n      0x01\n        /* \"contracts/stake_reward_MLM.sol\":6207:6218  return true */\n      swap2\n      pop\n      pop\n        /* \"contracts/stake_reward_MLM.sol\":5132:6230  function unStake(uint _id) external  returns (bool success){... */\n      swap2\n      swap1\n      pop\n      jump\t// out\n        /* \"contracts/stake_reward_MLM.sol\":1374:2955  function sendRewardToDUSDReferrals(address investor,uint _investedAmount)  public  //this is the freferral function to transfer the reawards to referrals... */\n    tag_65:\n        /* \"contracts/stake_reward_MLM.sol\":1552:1564  address temp */\n      0x00\n        /* \"contracts/stake_reward_MLM.sol\":1567:1575  investor */\n      dup3\n        /* \"contracts/stake_reward_MLM.sol\":1552:1575  address temp = investor */\n      swap1\n      pop\n        /* \"contracts/stake_reward_MLM.sol\":1596:1620  uint[] memory percentage */\n      0x00\n        /* \"contracts/stake_reward_MLM.sol\":1634:1635  4 */\n      0x04\n        /* \"contracts/stake_reward_MLM.sol\":1623:1636  new uint[](4) */\n      0xffffffffffffffff\n      dup2\n      gt\n      iszero\n      tag_171\n      jumpi\n      mstore(0x00, 0x4e487b7100000000000000000000000000000000000000000000000000000000)\n      mstore(0x04, 0x41)\n      revert(0x00, 0x24)\n    tag_171:\n      mload(0x40)\n      swap1\n      dup1\n      dup3\n      mstore\n      dup1\n      0x20\n      mul\n      0x20\n      add\n      dup3\n      add\n      0x40\n      mstore\n      dup1\n      iszero\n      tag_172\n      jumpi\n      dup2\n      0x20\n      add\n      0x20\n      dup3\n      mul\n      dup1\n      calldatasize\n      dup4\n      calldatacopy\n      dup1\n      dup3\n      add\n      swap2\n      pop\n      pop\n      swap1\n      pop\n    tag_172:\n      pop\n        /* \"contracts/stake_reward_MLM.sol\":1596:1636  uint[] memory percentage = new uint[](4) */\n      swap1\n      pop\n        /* \"contracts/stake_reward_MLM.sol\":1869:1870  5 */\n      0x05\n        /* \"contracts/stake_reward_MLM.sol\":1853:1863  percentage */\n      dup2\n        /* \"contracts/stake_reward_MLM.sol\":1864:1865  0 */\n      0x00\n        /* \"contracts/stake_reward_MLM.sol\":1853:1866  percentage[0] */\n      dup2\n      mload\n      dup2\n      lt\n      tag_173\n      jumpi\n      mstore(0x00, 0x4e487b7100000000000000000000000000000000000000000000000000000000)\n      mstore(0x04, 0x32)\n      revert(0x00, 0x24)\n    tag_173:\n      0x20\n      mul\n      0x20\n      add\n      add\n        /* \"contracts/stake_reward_MLM.sol\":1853:1870  percentage[0] = 5 */\n      dup2\n      dup2\n      mstore\n      pop\n      pop\n        /* \"contracts/stake_reward_MLM.sol\":1900:1901  3 */\n      0x03\n        /* \"contracts/stake_reward_MLM.sol\":1884:1894  percentage */\n      dup2\n        /* \"contracts/stake_reward_MLM.sol\":1895:1896  1 */\n      0x01\n        /* \"contracts/stake_reward_MLM.sol\":1884:1897  percentage[1] */\n      dup2\n      mload\n      dup2\n      lt\n      tag_174\n      jumpi\n      mstore(0x00, 0x4e487b7100000000000000000000000000000000000000000000000000000000)\n      mstore(0x04, 0x32)\n      revert(0x00, 0x24)\n    tag_174:\n      0x20\n      mul\n      0x20\n      add\n      add\n        /* \"contracts/stake_reward_MLM.sol\":1884:1901  percentage[1] = 3 */\n      dup2\n      dup2\n      mstore\n      pop\n      pop\n        /* \"contracts/stake_reward_MLM.sol\":1931:1932  2 */\n      0x02\n        /* \"contracts/stake_reward_MLM.sol\":1915:1925  percentage */\n      dup2\n        /* \"contracts/stake_reward_MLM.sol\":1926:1927  2 */\n      0x02\n        /* \"contracts/stake_reward_MLM.sol\":1915:1928  percentage[2] */\n      dup2\n      mload\n      dup2\n      lt\n      tag_175\n      jumpi\n      mstore(0x00, 0x4e487b7100000000000000000000000000000000000000000000000000000000)\n      mstore(0x04, 0x32)\n      revert(0x00, 0x24)\n    tag_175:\n      0x20\n      mul\n      0x20\n      add\n      add\n        /* \"contracts/stake_reward_MLM.sol\":1915:1932  percentage[2] = 2 */\n      dup2\n      dup2\n      mstore\n      pop\n      pop\n        /* \"contracts/stake_reward_MLM.sol\":1963:1964  1 */\n      0x01\n        /* \"contracts/stake_reward_MLM.sol\":1947:1957  percentage */\n      dup2\n        /* \"contracts/stake_reward_MLM.sol\":1958:1959  3 */\n      0x03\n        /* \"contracts/stake_reward_MLM.sol\":1947:1960  percentage[3] */\n      dup2\n      mload\n      dup2\n      lt\n      tag_176\n      jumpi\n      mstore(0x00, 0x4e487b7100000000000000000000000000000000000000000000000000000000)\n      mstore(0x04, 0x32)\n      revert(0x00, 0x24)\n    tag_176:\n      0x20\n      mul\n      0x20\n      add\n      add\n        /* \"contracts/stake_reward_MLM.sol\":1947:1964  percentage[3] = 1 */\n      dup2\n      dup2\n      mstore\n      pop\n      pop\n        /* \"contracts/stake_reward_MLM.sol\":1994:1995  5 */\n      0x05\n        /* \"contracts/stake_reward_MLM.sol\":1978:1988  percentage */\n      dup2\n        /* \"contracts/stake_reward_MLM.sol\":1989:1990  4 */\n      0x04\n        /* \"contracts/stake_reward_MLM.sol\":1978:1991  percentage[4] */\n      dup2\n      mload\n      dup2\n      lt\n      tag_177\n      jumpi\n      mstore(0x00, 0x4e487b7100000000000000000000000000000000000000000000000000000000)\n      mstore(0x04, 0x32)\n      revert(0x00, 0x24)\n    tag_177:\n      0x20\n      mul\n      0x20\n      add\n      add\n        /* \"contracts/stake_reward_MLM.sol\":1978:1995  percentage[4] = 5 */\n      dup2\n      dup2\n      mstore\n      pop\n      pop\n        /* \"contracts/stake_reward_MLM.sol\":2010:2016  uint j */\n      0x00\n        /* \"contracts/stake_reward_MLM.sol\":2037:2043  uint i */\n      dup1\n        /* \"contracts/stake_reward_MLM.sol\":2044:2045  0 */\n      0x00\n        /* \"contracts/stake_reward_MLM.sol\":2037:2045  uint i=0 */\n      swap1\n      pop\n        /* \"contracts/stake_reward_MLM.sol\":2033:2944  for(uint i=0;i<20;i++)... */\n    tag_178:\n        /* \"contracts/stake_reward_MLM.sol\":2048:2050  20 */\n      0x14\n        /* \"contracts/stake_reward_MLM.sol\":2046:2047  i */\n      dup2\n        /* \"contracts/stake_reward_MLM.sol\":2046:2050  i<20 */\n      lt\n        /* \"contracts/stake_reward_MLM.sol\":2033:2944  for(uint i=0;i<20;i++)... */\n      iszero\n      tag_179\n      jumpi\n        /* \"contracts/stake_reward_MLM.sol\":2657:2658  0 */\n      0x00\n        /* \"contracts/stake_reward_MLM.sol\":2616:2659  DUSDinvestor[temp].referralFrom!=address(0) */\n      0xffffffffffffffffffffffffffffffffffffffff\n      and\n        /* \"contracts/stake_reward_MLM.sol\":2616:2628  DUSDinvestor */\n      0x08\n        /* \"contracts/stake_reward_MLM.sol\":2616:2634  DUSDinvestor[temp] */\n      0x00\n        /* \"contracts/stake_reward_MLM.sol\":2629:2633  temp */\n      dup7\n        /* \"contracts/stake_reward_MLM.sol\":2616:2634  DUSDinvestor[temp] */\n      0xffffffffffffffffffffffffffffffffffffffff\n      and\n      0xffffffffffffffffffffffffffffffffffffffff\n      and\n      dup2\n      mstore\n      0x20\n      add\n      swap1\n      dup2\n      mstore\n      0x20\n      add\n      0x00\n      keccak256\n        /* \"contracts/stake_reward_MLM.sol\":2616:2647  DUSDinvestor[temp].referralFrom */\n      0x02\n      add\n      0x00\n      swap1\n      sload\n      swap1\n      0x0100\n      exp\n      swap1\n      div\n      0xffffffffffffffffffffffffffffffffffffffff\n      and\n        /* \"contracts/stake_reward_MLM.sol\":2616:2659  DUSDinvestor[temp].referralFrom!=address(0) */\n      0xffffffffffffffffffffffffffffffffffffffff\n      and\n      eq\n        /* \"contracts/stake_reward_MLM.sol\":2613:2930  if(DUSDinvestor[temp].referralFrom!=address(0))... */\n      tag_181\n      jumpi\n        /* \"contracts/stake_reward_MLM.sol\":2704:2716  DUSDinvestor */\n      0x08\n        /* \"contracts/stake_reward_MLM.sol\":2704:2722  DUSDinvestor[temp] */\n      0x00\n        /* \"contracts/stake_reward_MLM.sol\":2717:2721  temp */\n      dup6\n        /* \"contracts/stake_reward_MLM.sol\":2704:2722  DUSDinvestor[temp] */\n      0xffffffffffffffffffffffffffffffffffffffff\n      and\n      0xffffffffffffffffffffffffffffffffffffffff\n      and\n      dup2\n      mstore\n      0x20\n      add\n      swap1\n      dup2\n      mstore\n      0x20\n      add\n      0x00\n      keccak256\n        /* \"contracts/stake_reward_MLM.sol\":2704:2735  DUSDinvestor[temp].referralFrom */\n      0x02\n      add\n      0x00\n      swap1\n      sload\n      swap1\n      0x0100\n      exp\n      swap1\n      div\n      0xffffffffffffffffffffffffffffffffffffffff\n      and\n        /* \"contracts/stake_reward_MLM.sol\":2699:2735  temp=DUSDinvestor[temp].referralFrom */\n      swap4\n      pop\n        /* \"contracts/stake_reward_MLM.sol\":2821:2824  100 */\n      0x64\n        /* \"contracts/stake_reward_MLM.sol\":2804:2819  _investedAmount */\n      dup6\n        /* \"contracts/stake_reward_MLM.sol\":2788:2798  percentage */\n      dup5\n        /* \"contracts/stake_reward_MLM.sol\":2799:2800  i */\n      dup4\n        /* \"contracts/stake_reward_MLM.sol\":2788:2801  percentage[i] */\n      dup2\n      mload\n      dup2\n      lt\n      tag_182\n      jumpi\n      mstore(0x00, 0x4e487b7100000000000000000000000000000000000000000000000000000000)\n      mstore(0x04, 0x32)\n      revert(0x00, 0x24)\n    tag_182:\n      0x20\n      mul\n      0x20\n      add\n      add\n      mload\n        /* \"contracts/stake_reward_MLM.sol\":2788:2819  percentage[i] * _investedAmount */\n      tag_183\n      swap2\n      swap1\n      tag_149\n      jump\t// in\n    tag_183:\n        /* \"contracts/stake_reward_MLM.sol\":2787:2824  (percentage[i] * _investedAmount)/100 */\n      tag_184\n      swap2\n      swap1\n      tag_146\n      jump\t// in\n    tag_184:\n        /* \"contracts/stake_reward_MLM.sol\":2757:2769  DUSDinvestor */\n      0x08\n        /* \"contracts/stake_reward_MLM.sol\":2757:2775  DUSDinvestor[temp] */\n      0x00\n        /* \"contracts/stake_reward_MLM.sol\":2770:2774  temp */\n      dup7\n        /* \"contracts/stake_reward_MLM.sol\":2757:2775  DUSDinvestor[temp] */\n      0xffffffffffffffffffffffffffffffffffffffff\n      and\n      0xffffffffffffffffffffffffffffffffffffffff\n      and\n      dup2\n      mstore\n      0x20\n      add\n      swap1\n      dup2\n      mstore\n      0x20\n      add\n      0x00\n      keccak256\n        /* \"contracts/stake_reward_MLM.sol\":2757:2782  DUSDinvestor[temp].reward */\n      0x03\n      add\n      0x00\n        /* \"contracts/stake_reward_MLM.sol\":2757:2825  DUSDinvestor[temp].reward += ((percentage[i] * _investedAmount)/100) */\n      dup3\n      dup3\n      sload\n      tag_185\n      swap2\n      swap1\n      tag_105\n      jump\t// in\n    tag_185:\n      swap3\n      pop\n      pop\n      dup2\n      swap1\n      sstore\n      pop\n        /* \"contracts/stake_reward_MLM.sol\":2613:2930  if(DUSDinvestor[temp].referralFrom!=address(0))... */\n      jump(tag_186)\n    tag_181:\n        /* \"contracts/stake_reward_MLM.sol\":2906:2911  break */\n      jump(tag_179)\n        /* \"contracts/stake_reward_MLM.sol\":2613:2930  if(DUSDinvestor[temp].referralFrom!=address(0))... */\n    tag_186:\n        /* \"contracts/stake_reward_MLM.sol\":2051:2054  i++ */\n      dup1\n      dup1\n      tag_187\n      swap1\n      tag_103\n      jump\t// in\n    tag_187:\n      swap2\n      pop\n      pop\n        /* \"contracts/stake_reward_MLM.sol\":2033:2944  for(uint i=0;i<20;i++)... */\n      jump(tag_178)\n    tag_179:\n      pop\n        /* \"contracts/stake_reward_MLM.sol\":1374:2955  function sendRewardToDUSDReferrals(address investor,uint _investedAmount)  public  //this is the freferral function to transfer the reawards to referrals... */\n      pop\n      pop\n      pop\n      pop\n      pop\n      jump\t// out\n        /* \"contracts/stake_reward_MLM.sol\":291:312  address  public owner */\n    tag_67:\n      0x00\n      dup1\n      sload\n      swap1\n      0x0100\n      exp\n      swap1\n      div\n      0xffffffffffffffffffffffffffffffffffffffff\n      and\n      dup2\n      jump\t// out\n        /* \"contracts/stake_reward_MLM.sol\":6240:6450  function getTotalInvestmentDUSD() public view returns(uint) {   //this function is to get the total investment of the ivestor... */\n    tag_71:\n        /* \"contracts/stake_reward_MLM.sol\":6294:6298  uint */\n      0x00\n        /* \"contracts/stake_reward_MLM.sol\":6398:6410  DUSDinvestor */\n      0x08\n        /* \"contracts/stake_reward_MLM.sol\":6398:6422  DUSDinvestor[msg.sender] */\n      0x00\n        /* \"contracts/stake_reward_MLM.sol\":6411:6421  msg.sender */\n      caller\n        /* \"contracts/stake_reward_MLM.sol\":6398:6422  DUSDinvestor[msg.sender] */\n      0xffffffffffffffffffffffffffffffffffffffff\n      and\n      0xffffffffffffffffffffffffffffffffffffffff\n      and\n      dup2\n      mstore\n      0x20\n      add\n      swap1\n      dup2\n      mstore\n      0x20\n      add\n      0x00\n      keccak256\n        /* \"contracts/stake_reward_MLM.sol\":6398:6438  DUSDinvestor[msg.sender].totalInvestment */\n      0x05\n      add\n      sload\n        /* \"contracts/stake_reward_MLM.sol\":6391:6438  return DUSDinvestor[msg.sender].totalInvestment */\n      swap1\n      pop\n        /* \"contracts/stake_reward_MLM.sol\":6240:6450  function getTotalInvestmentDUSD() public view returns(uint) {   //this function is to get the total investment of the ivestor... */\n      swap1\n      jump\t// out\n        /* \"contracts/stake_reward_MLM.sol\":4714:5121  function withdrawReward() external returns (bool success){... */\n    tag_74:\n        /* \"contracts/stake_reward_MLM.sol\":4758:4770  bool success */\n      0x00\n        /* \"contracts/stake_reward_MLM.sol\":4785:4802  uint Total_reward */\n      dup1\n        /* \"contracts/stake_reward_MLM.sol\":4805:4816  getReward() */\n      tag_190\n        /* \"contracts/stake_reward_MLM.sol\":4805:4814  getReward */\n      tag_53\n        /* \"contracts/stake_reward_MLM.sol\":4805:4816  getReward() */\n      jump\t// in\n    tag_190:\n        /* \"contracts/stake_reward_MLM.sol\":4785:4816  uint Total_reward = getReward() */\n      swap1\n      pop\n        /* \"contracts/stake_reward_MLM.sol\":4851:4852  0 */\n      0x00\n        /* \"contracts/stake_reward_MLM.sol\":4838:4850  Total_reward */\n      dup2\n        /* \"contracts/stake_reward_MLM.sol\":4838:4852  Total_reward>0 */\n      gt\n        /* \"contracts/stake_reward_MLM.sol\":4830:4890  require(Total_reward>0,\"you dont have rewards to withdrawn\") */\n      tag_191\n      jumpi\n      mload(0x40)\n      0x08c379a000000000000000000000000000000000000000000000000000000000\n      dup2\n      mstore\n      0x04\n      add\n      tag_192\n      swap1\n      tag_193\n      jump\t// in\n    tag_192:\n      mload(0x40)\n      dup1\n      swap2\n      sub\n      swap1\n      revert\n    tag_191:\n        /* \"contracts/stake_reward_MLM.sol\":4974:4986  DUSDcontract */\n      0x02\n      0x00\n      swap1\n      sload\n      swap1\n      0x0100\n      exp\n      swap1\n      div\n      0xffffffffffffffffffffffffffffffffffffffff\n      and\n        /* \"contracts/stake_reward_MLM.sol\":4969:4996  DUSD(DUSDcontract).transfer */\n      0xffffffffffffffffffffffffffffffffffffffff\n      and\n      0xa9059cbb\n        /* \"contracts/stake_reward_MLM.sol\":4997:5007  msg.sender */\n      caller\n        /* \"contracts/stake_reward_MLM.sol\":5008:5020  Total_reward */\n      dup4\n        /* \"contracts/stake_reward_MLM.sol\":4969:5021  DUSD(DUSDcontract).transfer(msg.sender,Total_reward) */\n      mload(0x40)\n      dup4\n      0xffffffff\n      and\n      0xe0\n      shl\n      dup2\n      mstore\n      0x04\n      add\n      tag_194\n      swap3\n      swap2\n      swap1\n      tag_159\n      jump\t// in\n    tag_194:\n      0x20\n      mload(0x40)\n      dup1\n      dup4\n      sub\n      dup2\n      0x00\n      dup8\n      dup1\n      extcodesize\n      iszero\n      dup1\n      iszero\n      tag_195\n      jumpi\n      0x00\n      dup1\n      revert\n    tag_195:\n      pop\n      gas\n      call\n      iszero\n      dup1\n      iszero\n      tag_197\n      jumpi\n      returndatasize\n      0x00\n      dup1\n      returndatacopy\n      revert(0x00, returndatasize)\n    tag_197:\n      pop\n      pop\n      pop\n      pop\n      mload(0x40)\n      returndatasize\n      not(0x1f)\n      0x1f\n      dup3\n      add\n      and\n      dup3\n      add\n      dup1\n      0x40\n      mstore\n      pop\n      dup2\n      add\n      swap1\n      tag_198\n      swap2\n      swap1\n      tag_114\n      jump\t// in\n    tag_198:\n      pop\n        /* \"contracts/stake_reward_MLM.sol\":5105:5109  true */\n      0x01\n        /* \"contracts/stake_reward_MLM.sol\":5098:5109  return true */\n      swap2\n      pop\n      pop\n        /* \"contracts/stake_reward_MLM.sol\":4714:5121  function withdrawReward() external returns (bool success){... */\n      swap1\n      jump\t// out\n        /* \"contracts/stake_reward_MLM.sol\":8832:9056  function set_values(uint min_stake,uint max_stake,uint reward_per_day) public ... */\n    tag_79:\n        /* \"contracts/stake_reward_MLM.sol\":8952:8961  max_stake */\n      dup2\n        /* \"contracts/stake_reward_MLM.sol\":8933:8949  max_Stake_amount */\n      0x06\n        /* \"contracts/stake_reward_MLM.sol\":8933:8961  max_Stake_amount = max_stake */\n      dup2\n      swap1\n      sstore\n      pop\n        /* \"contracts/stake_reward_MLM.sol\":8994:9003  min_stake */\n      dup3\n        /* \"contracts/stake_reward_MLM.sol\":8975:8991  min_Stake_amount */\n      0x05\n        /* \"contracts/stake_reward_MLM.sol\":8975:9003  min_Stake_amount = min_stake */\n      dup2\n      swap1\n      sstore\n      pop\n        /* \"contracts/stake_reward_MLM.sol\":9031:9045  reward_per_day */\n      dup1\n        /* \"contracts/stake_reward_MLM.sol\":9017:9028  rewardToken */\n      0x04\n        /* \"contracts/stake_reward_MLM.sol\":9017:9045  rewardToken = reward_per_day */\n      dup2\n      swap1\n      sstore\n      pop\n        /* \"contracts/stake_reward_MLM.sol\":8832:9056  function set_values(uint min_stake,uint max_stake,uint reward_per_day) public ... */\n      pop\n      pop\n      pop\n      jump\t// out\n        /* \"contracts/stake_reward_MLM.sol\":322:343  uint public ownerfees */\n    tag_81:\n      sload(0x01)\n      dup2\n      jump\t// out\n        /* \"contracts/stake_reward_MLM.sol\":1182:1224  mapping(address=>Data) public DUSDinvestor */\n    tag_86:\n      mstore(0x20, 0x08)\n      dup1\n      0x00\n      mstore\n      keccak256(0x00, 0x40)\n      0x00\n      swap2\n      pop\n      swap1\n      pop\n      dup1\n      0x02\n      add\n      0x00\n      swap1\n      sload\n      swap1\n      0x0100\n      exp\n      swap1\n      div\n      0xffffffffffffffffffffffffffffffffffffffff\n      and\n      swap1\n      dup1\n      0x03\n      add\n      sload\n      swap1\n      dup1\n      0x04\n      add\n      sload\n      swap1\n      dup1\n      0x05\n      add\n      sload\n      swap1\n      dup1\n      0x06\n      add\n      0x00\n      swap1\n      sload\n      swap1\n      0x0100\n      exp\n      swap1\n      div\n      0xff\n      and\n      swap1\n      pop\n      dup6\n      jump\t// out\n        /* \"contracts/stake_reward_MLM.sol\":466:508  uint public rewardToken=500000000000000000 */\n    tag_90:\n      sload(0x04)\n      dup2\n      jump\t// out\n    tag_131:\n      mload(0x40)\n      dup1\n      0x80\n      add\n      0x40\n      mstore\n      dup1\n      0x00\n      dup2\n      mstore\n      0x20\n      add\n      0x00\n      dup2\n      mstore\n      0x20\n      add\n      0x00\n      dup2\n      mstore\n      0x20\n      add\n      0x00\n      dup2\n      mstore\n      pop\n      swap1\n      jump\t// out\n        /* \"#utility.yul\":7:146   */\n    tag_201:\n      0x00\n        /* \"#utility.yul\":91:97   */\n      dup2\n        /* \"#utility.yul\":78:98   */\n      calldataload\n        /* \"#utility.yul\":69:98   */\n      swap1\n      pop\n        /* \"#utility.yul\":107:140   */\n      tag_203\n        /* \"#utility.yul\":134:139   */\n      dup2\n        /* \"#utility.yul\":107:140   */\n      tag_204\n      jump\t// in\n    tag_203:\n        /* \"#utility.yul\":59:146   */\n      swap3\n      swap2\n      pop\n      pop\n      jump\t// out\n        /* \"#utility.yul\":152:289   */\n    tag_205:\n      0x00\n        /* \"#utility.yul\":237:243   */\n      dup2\n        /* \"#utility.yul\":231:244   */\n      mload\n        /* \"#utility.yul\":222:244   */\n      swap1\n      pop\n        /* \"#utility.yul\":253:283   */\n      tag_207\n        /* \"#utility.yul\":277:282   */\n      dup2\n        /* \"#utility.yul\":253:283   */\n      tag_208\n      jump\t// in\n    tag_207:\n        /* \"#utility.yul\":212:289   */\n      swap3\n      swap2\n      pop\n      pop\n      jump\t// out\n        /* \"#utility.yul\":295:434   */\n    tag_209:\n      0x00\n        /* \"#utility.yul\":379:385   */\n      dup2\n        /* \"#utility.yul\":366:386   */\n      calldataload\n        /* \"#utility.yul\":357:386   */\n      swap1\n      pop\n        /* \"#utility.yul\":395:428   */\n      tag_211\n        /* \"#utility.yul\":422:427   */\n      dup2\n        /* \"#utility.yul\":395:428   */\n      tag_212\n      jump\t// in\n    tag_211:\n        /* \"#utility.yul\":347:434   */\n      swap3\n      swap2\n      pop\n      pop\n      jump\t// out\n        /* \"#utility.yul\":440:702   */\n    tag_85:\n      0x00\n        /* \"#utility.yul\":548:550   */\n      0x20\n        /* \"#utility.yul\":536:545   */\n      dup3\n        /* \"#utility.yul\":527:534   */\n      dup5\n        /* \"#utility.yul\":523:546   */\n      sub\n        /* \"#utility.yul\":519:551   */\n      slt\n        /* \"#utility.yul\":516:518   */\n      iszero\n      tag_214\n      jumpi\n        /* \"#utility.yul\":564:565   */\n      0x00\n        /* \"#utility.yul\":561:562   */\n      dup1\n        /* \"#utility.yul\":554:566   */\n      revert\n        /* \"#utility.yul\":516:518   */\n    tag_214:\n        /* \"#utility.yul\":607:608   */\n      0x00\n        /* \"#utility.yul\":632:685   */\n      tag_215\n        /* \"#utility.yul\":677:684   */\n      dup5\n        /* \"#utility.yul\":668:674   */\n      dup3\n        /* \"#utility.yul\":657:666   */\n      dup6\n        /* \"#utility.yul\":653:675   */\n      add\n        /* \"#utility.yul\":632:685   */\n      tag_201\n      jump\t// in\n    tag_215:\n        /* \"#utility.yul\":622:685   */\n      swap2\n      pop\n        /* \"#utility.yul\":578:695   */\n      pop\n        /* \"#utility.yul\":506:702   */\n      swap3\n      swap2\n      pop\n      pop\n      jump\t// out\n        /* \"#utility.yul\":708:1115   */\n    tag_64:\n      0x00\n      dup1\n        /* \"#utility.yul\":833:835   */\n      0x40\n        /* \"#utility.yul\":821:830   */\n      dup4\n        /* \"#utility.yul\":812:819   */\n      dup6\n        /* \"#utility.yul\":808:831   */\n      sub\n        /* \"#utility.yul\":804:836   */\n      slt\n        /* \"#utility.yul\":801:803   */\n      iszero\n      tag_217\n      jumpi\n        /* \"#utility.yul\":849:850   */\n      0x00\n        /* \"#utility.yul\":846:847   */\n      dup1\n        /* \"#utility.yul\":839:851   */\n      revert\n        /* \"#utility.yul\":801:803   */\n    tag_217:\n        /* \"#utility.yul\":892:893   */\n      0x00\n        /* \"#utility.yul\":917:970   */\n      tag_218\n        /* \"#utility.yul\":962:969   */\n      dup6\n        /* \"#utility.yul\":953:959   */\n      dup3\n        /* \"#utility.yul\":942:951   */\n      dup7\n        /* \"#utility.yul\":938:960   */\n      add\n        /* \"#utility.yul\":917:970   */\n      tag_201\n      jump\t// in\n    tag_218:\n        /* \"#utility.yul\":907:970   */\n      swap3\n      pop\n        /* \"#utility.yul\":863:980   */\n      pop\n        /* \"#utility.yul\":1019:1021   */\n      0x20\n        /* \"#utility.yul\":1045:1098   */\n      tag_219\n        /* \"#utility.yul\":1090:1097   */\n      dup6\n        /* \"#utility.yul\":1081:1087   */\n      dup3\n        /* \"#utility.yul\":1070:1079   */\n      dup7\n        /* \"#utility.yul\":1066:1088   */\n      add\n        /* \"#utility.yul\":1045:1098   */\n      tag_209\n      jump\t// in\n    tag_219:\n        /* \"#utility.yul\":1035:1098   */\n      swap2\n      pop\n        /* \"#utility.yul\":990:1108   */\n      pop\n        /* \"#utility.yul\":791:1115   */\n      swap3\n      pop\n      swap3\n      swap1\n      pop\n      jump\t// out\n        /* \"#utility.yul\":1121:1399   */\n    tag_114:\n      0x00\n        /* \"#utility.yul\":1237:1239   */\n      0x20\n        /* \"#utility.yul\":1225:1234   */\n      dup3\n        /* \"#utility.yul\":1216:1223   */\n      dup5\n        /* \"#utility.yul\":1212:1235   */\n      sub\n        /* \"#utility.yul\":1208:1240   */\n      slt\n        /* \"#utility.yul\":1205:1207   */\n      iszero\n      tag_221\n      jumpi\n        /* \"#utility.yul\":1253:1254   */\n      0x00\n        /* \"#utility.yul\":1250:1251   */\n      dup1\n        /* \"#utility.yul\":1243:1255   */\n      revert\n        /* \"#utility.yul\":1205:1207   */\n    tag_221:\n        /* \"#utility.yul\":1296:1297   */\n      0x00\n        /* \"#utility.yul\":1321:1382   */\n      tag_222\n        /* \"#utility.yul\":1374:1381   */\n      dup5\n        /* \"#utility.yul\":1365:1371   */\n      dup3\n        /* \"#utility.yul\":1354:1363   */\n      dup6\n        /* \"#utility.yul\":1350:1372   */\n      add\n        /* \"#utility.yul\":1321:1382   */\n      tag_205\n      jump\t// in\n    tag_222:\n        /* \"#utility.yul\":1311:1382   */\n      swap2\n      pop\n        /* \"#utility.yul\":1267:1392   */\n      pop\n        /* \"#utility.yul\":1195:1399   */\n      swap3\n      swap2\n      pop\n      pop\n      jump\t// out\n        /* \"#utility.yul\":1405:1667   */\n    tag_37:\n      0x00\n        /* \"#utility.yul\":1513:1515   */\n      0x20\n        /* \"#utility.yul\":1501:1510   */\n      dup3\n        /* \"#utility.yul\":1492:1499   */\n      dup5\n        /* \"#utility.yul\":1488:1511   */\n      sub\n        /* \"#utility.yul\":1484:1516   */\n      slt\n        /* \"#utility.yul\":1481:1483   */\n      iszero\n      tag_224\n      jumpi\n        /* \"#utility.yul\":1529:1530   */\n      0x00\n        /* \"#utility.yul\":1526:1527   */\n      dup1\n        /* \"#utility.yul\":1519:1531   */\n      revert\n        /* \"#utility.yul\":1481:1483   */\n    tag_224:\n        /* \"#utility.yul\":1572:1573   */\n      0x00\n        /* \"#utility.yul\":1597:1650   */\n      tag_225\n        /* \"#utility.yul\":1642:1649   */\n      dup5\n        /* \"#utility.yul\":1633:1639   */\n      dup3\n        /* \"#utility.yul\":1622:1631   */\n      dup6\n        /* \"#utility.yul\":1618:1640   */\n      add\n        /* \"#utility.yul\":1597:1650   */\n      tag_209\n      jump\t// in\n    tag_225:\n        /* \"#utility.yul\":1587:1650   */\n      swap2\n      pop\n        /* \"#utility.yul\":1543:1660   */\n      pop\n        /* \"#utility.yul\":1471:1667   */\n      swap3\n      swap2\n      pop\n      pop\n      jump\t// out\n        /* \"#utility.yul\":1673:2080   */\n    tag_41:\n      0x00\n      dup1\n        /* \"#utility.yul\":1798:1800   */\n      0x40\n        /* \"#utility.yul\":1786:1795   */\n      dup4\n        /* \"#utility.yul\":1777:1784   */\n      dup6\n        /* \"#utility.yul\":1773:1796   */\n      sub\n        /* \"#utility.yul\":1769:1801   */\n      slt\n        /* \"#utility.yul\":1766:1768   */\n      iszero\n      tag_227\n      jumpi\n        /* \"#utility.yul\":1814:1815   */\n      0x00\n        /* \"#utility.yul\":1811:1812   */\n      dup1\n        /* \"#utility.yul\":1804:1816   */\n      revert\n        /* \"#utility.yul\":1766:1768   */\n    tag_227:\n        /* \"#utility.yul\":1857:1858   */\n      0x00\n        /* \"#utility.yul\":1882:1935   */\n      tag_228\n        /* \"#utility.yul\":1927:1934   */\n      dup6\n        /* \"#utility.yul\":1918:1924   */\n      dup3\n        /* \"#utility.yul\":1907:1916   */\n      dup7\n        /* \"#utility.yul\":1903:1925   */\n      add\n        /* \"#utility.yul\":1882:1935   */\n      tag_209\n      jump\t// in\n    tag_228:\n        /* \"#utility.yul\":1872:1935   */\n      swap3\n      pop\n        /* \"#utility.yul\":1828:1945   */\n      pop\n        /* \"#utility.yul\":1984:1986   */\n      0x20\n        /* \"#utility.yul\":2010:2063   */\n      tag_229\n        /* \"#utility.yul\":2055:2062   */\n      dup6\n        /* \"#utility.yul\":2046:2052   */\n      dup3\n        /* \"#utility.yul\":2035:2044   */\n      dup7\n        /* \"#utility.yul\":2031:2053   */\n      add\n        /* \"#utility.yul\":2010:2063   */\n      tag_201\n      jump\t// in\n    tag_229:\n        /* \"#utility.yul\":2000:2063   */\n      swap2\n      pop\n        /* \"#utility.yul\":1955:2073   */\n      pop\n        /* \"#utility.yul\":1756:2080   */\n      swap3\n      pop\n      swap3\n      swap1\n      pop\n      jump\t// out\n        /* \"#utility.yul\":2086:2638   */\n    tag_78:\n      0x00\n      dup1\n      0x00\n        /* \"#utility.yul\":2228:2230   */\n      0x60\n        /* \"#utility.yul\":2216:2225   */\n      dup5\n        /* \"#utility.yul\":2207:2214   */\n      dup7\n        /* \"#utility.yul\":2203:2226   */\n      sub\n        /* \"#utility.yul\":2199:2231   */\n      slt\n        /* \"#utility.yul\":2196:2198   */\n      iszero\n      tag_231\n      jumpi\n        /* \"#utility.yul\":2244:2245   */\n      0x00\n        /* \"#utility.yul\":2241:2242   */\n      dup1\n        /* \"#utility.yul\":2234:2246   */\n      revert\n        /* \"#utility.yul\":2196:2198   */\n    tag_231:\n        /* \"#utility.yul\":2287:2288   */\n      0x00\n        /* \"#utility.yul\":2312:2365   */\n      tag_232\n        /* \"#utility.yul\":2357:2364   */\n      dup7\n        /* \"#utility.yul\":2348:2354   */\n      dup3\n        /* \"#utility.yul\":2337:2346   */\n      dup8\n        /* \"#utility.yul\":2333:2355   */\n      add\n        /* \"#utility.yul\":2312:2365   */\n      tag_209\n      jump\t// in\n    tag_232:\n        /* \"#utility.yul\":2302:2365   */\n      swap4\n      pop\n        /* \"#utility.yul\":2258:2375   */\n      pop\n        /* \"#utility.yul\":2414:2416   */\n      0x20\n        /* \"#utility.yul\":2440:2493   */\n      tag_233\n        /* \"#utility.yul\":2485:2492   */\n      dup7\n        /* \"#utility.yul\":2476:2482   */\n      dup3\n        /* \"#utility.yul\":2465:2474   */\n      dup8\n        /* \"#utility.yul\":2461:2483   */\n      add\n        /* \"#utility.yul\":2440:2493   */\n      tag_209\n      jump\t// in\n    tag_233:\n        /* \"#utility.yul\":2430:2493   */\n      swap3\n      pop\n        /* \"#utility.yul\":2385:2503   */\n      pop\n        /* \"#utility.yul\":2542:2544   */\n      0x40\n        /* \"#utility.yul\":2568:2621   */\n      tag_234\n        /* \"#utility.yul\":2613:2620   */\n      dup7\n        /* \"#utility.yul\":2604:2610   */\n      dup3\n        /* \"#utility.yul\":2593:2602   */\n      dup8\n        /* \"#utility.yul\":2589:2611   */\n      add\n        /* \"#utility.yul\":2568:2621   */\n      tag_209\n      jump\t// in\n    tag_234:\n        /* \"#utility.yul\":2558:2621   */\n      swap2\n      pop\n        /* \"#utility.yul\":2513:2631   */\n      pop\n        /* \"#utility.yul\":2186:2638   */\n      swap3\n      pop\n      swap3\n      pop\n      swap3\n      jump\t// out\n        /* \"#utility.yul\":2644:2823   */\n    tag_235:\n      0x00\n        /* \"#utility.yul\":2734:2780   */\n      tag_237\n        /* \"#utility.yul\":2776:2779   */\n      dup4\n        /* \"#utility.yul\":2768:2774   */\n      dup4\n        /* \"#utility.yul\":2734:2780   */\n      tag_238\n      jump\t// in\n    tag_237:\n        /* \"#utility.yul\":2812:2816   */\n      0x20\n        /* \"#utility.yul\":2807:2810   */\n      dup4\n        /* \"#utility.yul\":2803:2817   */\n      add\n        /* \"#utility.yul\":2789:2817   */\n      swap1\n      pop\n        /* \"#utility.yul\":2724:2823   */\n      swap3\n      swap2\n      pop\n      pop\n      jump\t// out\n        /* \"#utility.yul\":2829:3128   */\n    tag_239:\n      0x00\n        /* \"#utility.yul\":2979:3085   */\n      tag_241\n        /* \"#utility.yul\":3081:3084   */\n      dup4\n        /* \"#utility.yul\":3073:3079   */\n      dup4\n        /* \"#utility.yul\":2979:3085   */\n      tag_242\n      jump\t// in\n    tag_241:\n        /* \"#utility.yul\":3117:3121   */\n      0x80\n        /* \"#utility.yul\":3112:3115   */\n      dup4\n        /* \"#utility.yul\":3108:3122   */\n      add\n        /* \"#utility.yul\":3094:3122   */\n      swap1\n      pop\n        /* \"#utility.yul\":2969:3128   */\n      swap3\n      swap2\n      pop\n      pop\n      jump\t// out\n        /* \"#utility.yul\":3134:3242   */\n    tag_238:\n        /* \"#utility.yul\":3211:3235   */\n      tag_244\n        /* \"#utility.yul\":3229:3234   */\n      dup2\n        /* \"#utility.yul\":3211:3235   */\n      tag_245\n      jump\t// in\n    tag_244:\n        /* \"#utility.yul\":3206:3209   */\n      dup3\n        /* \"#utility.yul\":3199:3236   */\n      mstore\n        /* \"#utility.yul\":3189:3242   */\n      pop\n      pop\n      jump\t// out\n        /* \"#utility.yul\":3248:3366   */\n    tag_246:\n        /* \"#utility.yul\":3335:3359   */\n      tag_248\n        /* \"#utility.yul\":3353:3358   */\n      dup2\n        /* \"#utility.yul\":3335:3359   */\n      tag_245\n      jump\t// in\n    tag_248:\n        /* \"#utility.yul\":3330:3333   */\n      dup3\n        /* \"#utility.yul\":3323:3360   */\n      mstore\n        /* \"#utility.yul\":3313:3366   */\n      pop\n      pop\n      jump\t// out\n        /* \"#utility.yul\":3402:4134   */\n    tag_249:\n      0x00\n        /* \"#utility.yul\":3550:3604   */\n      tag_251\n        /* \"#utility.yul\":3598:3603   */\n      dup3\n        /* \"#utility.yul\":3550:3604   */\n      tag_252\n      jump\t// in\n    tag_251:\n        /* \"#utility.yul\":3620:3706   */\n      tag_253\n        /* \"#utility.yul\":3699:3705   */\n      dup2\n        /* \"#utility.yul\":3694:3697   */\n      dup6\n        /* \"#utility.yul\":3620:3706   */\n      tag_254\n      jump\t// in\n    tag_253:\n        /* \"#utility.yul\":3613:3706   */\n      swap4\n      pop\n        /* \"#utility.yul\":3730:3786   */\n      tag_255\n        /* \"#utility.yul\":3780:3785   */\n      dup4\n        /* \"#utility.yul\":3730:3786   */\n      tag_256\n      jump\t// in\n    tag_255:\n        /* \"#utility.yul\":3809:3816   */\n      dup1\n        /* \"#utility.yul\":3840:3841   */\n      0x00\n        /* \"#utility.yul\":3825:4109   */\n    tag_257:\n        /* \"#utility.yul\":3850:3856   */\n      dup4\n        /* \"#utility.yul\":3847:3848   */\n      dup2\n        /* \"#utility.yul\":3844:3857   */\n      lt\n        /* \"#utility.yul\":3825:4109   */\n      iszero\n      tag_259\n      jumpi\n        /* \"#utility.yul\":3926:3932   */\n      dup2\n        /* \"#utility.yul\":3920:3933   */\n      mload\n        /* \"#utility.yul\":3953:4016   */\n      tag_260\n        /* \"#utility.yul\":4012:4015   */\n      dup9\n        /* \"#utility.yul\":3997:4010   */\n      dup3\n        /* \"#utility.yul\":3953:4016   */\n      tag_235\n      jump\t// in\n    tag_260:\n        /* \"#utility.yul\":3946:4016   */\n      swap8\n      pop\n        /* \"#utility.yul\":4039:4099   */\n      tag_261\n        /* \"#utility.yul\":4092:4098   */\n      dup4\n        /* \"#utility.yul\":4039:4099   */\n      tag_262\n      jump\t// in\n    tag_261:\n        /* \"#utility.yul\":4029:4099   */\n      swap3\n      pop\n        /* \"#utility.yul\":3885:4109   */\n      pop\n        /* \"#utility.yul\":3872:3873   */\n      0x01\n        /* \"#utility.yul\":3869:3870   */\n      dup2\n        /* \"#utility.yul\":3865:3874   */\n      add\n        /* \"#utility.yul\":3860:3874   */\n      swap1\n      pop\n        /* \"#utility.yul\":3825:4109   */\n      jump(tag_257)\n    tag_259:\n        /* \"#utility.yul\":3829:3843   */\n      pop\n        /* \"#utility.yul\":4125:4128   */\n      dup6\n        /* \"#utility.yul\":4118:4128   */\n      swap4\n      pop\n        /* \"#utility.yul\":3526:4134   */\n      pop\n      pop\n      pop\n      swap3\n      swap2\n      pop\n      pop\n      jump\t// out\n        /* \"#utility.yul\":4212:5184   */\n    tag_263:\n      0x00\n        /* \"#utility.yul\":4420:4504   */\n      tag_265\n        /* \"#utility.yul\":4498:4503   */\n      dup3\n        /* \"#utility.yul\":4420:4504   */\n      tag_266\n      jump\t// in\n    tag_265:\n        /* \"#utility.yul\":4520:4636   */\n      tag_267\n        /* \"#utility.yul\":4629:4635   */\n      dup2\n        /* \"#utility.yul\":4624:4627   */\n      dup6\n        /* \"#utility.yul\":4520:4636   */\n      tag_268\n      jump\t// in\n    tag_267:\n        /* \"#utility.yul\":4513:4636   */\n      swap4\n      pop\n        /* \"#utility.yul\":4660:4746   */\n      tag_269\n        /* \"#utility.yul\":4740:4745   */\n      dup4\n        /* \"#utility.yul\":4660:4746   */\n      tag_270\n      jump\t// in\n    tag_269:\n        /* \"#utility.yul\":4769:4776   */\n      dup1\n        /* \"#utility.yul\":4800:4801   */\n      0x00\n        /* \"#utility.yul\":4785:5159   */\n    tag_271:\n        /* \"#utility.yul\":4810:4816   */\n      dup4\n        /* \"#utility.yul\":4807:4808   */\n      dup2\n        /* \"#utility.yul\":4804:4817   */\n      lt\n        /* \"#utility.yul\":4785:5159   */\n      iszero\n      tag_273\n      jumpi\n        /* \"#utility.yul\":4886:4892   */\n      dup2\n        /* \"#utility.yul\":4880:4893   */\n      mload\n        /* \"#utility.yul\":4913:5036   */\n      tag_274\n        /* \"#utility.yul\":5032:5035   */\n      dup9\n        /* \"#utility.yul\":5017:5030   */\n      dup3\n        /* \"#utility.yul\":4913:5036   */\n      tag_239\n      jump\t// in\n    tag_274:\n        /* \"#utility.yul\":4906:5036   */\n      swap8\n      pop\n        /* \"#utility.yul\":5059:5149   */\n      tag_275\n        /* \"#utility.yul\":5142:5148   */\n      dup4\n        /* \"#utility.yul\":5059:5149   */\n      tag_276\n      jump\t// in\n    tag_275:\n        /* \"#utility.yul\":5049:5149   */\n      swap3\n      pop\n        /* \"#utility.yul\":4845:5159   */\n      pop\n        /* \"#utility.yul\":4832:4833   */\n      0x01\n        /* \"#utility.yul\":4829:4830   */\n      dup2\n        /* \"#utility.yul\":4825:4834   */\n      add\n        /* \"#utility.yul\":4820:4834   */\n      swap1\n      pop\n        /* \"#utility.yul\":4785:5159   */\n      jump(tag_271)\n    tag_273:\n        /* \"#utility.yul\":4789:4803   */\n      pop\n        /* \"#utility.yul\":5175:5178   */\n      dup6\n        /* \"#utility.yul\":5168:5178   */\n      swap4\n      pop\n        /* \"#utility.yul\":4396:5184   */\n      pop\n      pop\n      pop\n      swap3\n      swap2\n      pop\n      pop\n      jump\t// out\n        /* \"#utility.yul\":5190:5299   */\n    tag_277:\n        /* \"#utility.yul\":5271:5292   */\n      tag_279\n        /* \"#utility.yul\":5286:5291   */\n      dup2\n        /* \"#utility.yul\":5271:5292   */\n      tag_280\n      jump\t// in\n    tag_279:\n        /* \"#utility.yul\":5266:5269   */\n      dup3\n        /* \"#utility.yul\":5259:5293   */\n      mstore\n        /* \"#utility.yul\":5249:5299   */\n      pop\n      pop\n      jump\t// out\n        /* \"#utility.yul\":5305:5630   */\n    tag_281:\n      0x00\n        /* \"#utility.yul\":5468:5535   */\n      tag_283\n        /* \"#utility.yul\":5532:5534   */\n      0x1b\n        /* \"#utility.yul\":5527:5530   */\n      dup4\n        /* \"#utility.yul\":5468:5535   */\n      tag_284\n      jump\t// in\n    tag_283:\n        /* \"#utility.yul\":5461:5535   */\n      swap2\n      pop\n        /* \"#utility.yul\":5565:5594   */\n      0x76616c7565206973206e6f742067726561746572207468616e20300000000000\n        /* \"#utility.yul\":5561:5562   */\n      0x00\n        /* \"#utility.yul\":5556:5559   */\n      dup4\n        /* \"#utility.yul\":5552:5563   */\n      add\n        /* \"#utility.yul\":5545:5595   */\n      mstore\n        /* \"#utility.yul\":5621:5623   */\n      0x20\n        /* \"#utility.yul\":5616:5619   */\n      dup3\n        /* \"#utility.yul\":5612:5624   */\n      add\n        /* \"#utility.yul\":5605:5624   */\n      swap1\n      pop\n        /* \"#utility.yul\":5451:5630   */\n      swap2\n      swap1\n      pop\n      jump\t// out\n        /* \"#utility.yul\":5636:6005   */\n    tag_285:\n      0x00\n        /* \"#utility.yul\":5799:5866   */\n      tag_287\n        /* \"#utility.yul\":5863:5865   */\n      0x25\n        /* \"#utility.yul\":5858:5861   */\n      dup4\n        /* \"#utility.yul\":5799:5866   */\n      tag_284\n      jump\t// in\n    tag_287:\n        /* \"#utility.yul\":5792:5866   */\n      swap2\n      pop\n        /* \"#utility.yul\":5896:5930   */\n      0x796f7520646f6e74206861766520696e766573746d656e7420746f2077697468\n        /* \"#utility.yul\":5892:5893   */\n      0x00\n        /* \"#utility.yul\":5887:5890   */\n      dup4\n        /* \"#utility.yul\":5883:5894   */\n      add\n        /* \"#utility.yul\":5876:5931   */\n      mstore\n        /* \"#utility.yul\":5962:5969   */\n      0x647261776e000000000000000000000000000000000000000000000000000000\n        /* \"#utility.yul\":5957:5959   */\n      0x20\n        /* \"#utility.yul\":5952:5955   */\n      dup4\n        /* \"#utility.yul\":5948:5960   */\n      add\n        /* \"#utility.yul\":5941:5970   */\n      mstore\n        /* \"#utility.yul\":5996:5998   */\n      0x40\n        /* \"#utility.yul\":5991:5994   */\n      dup3\n        /* \"#utility.yul\":5987:5999   */\n      add\n        /* \"#utility.yul\":5980:5999   */\n      swap1\n      pop\n        /* \"#utility.yul\":5782:6005   */\n      swap2\n      swap1\n      pop\n      jump\t// out\n        /* \"#utility.yul\":6011:6377   */\n    tag_288:\n      0x00\n        /* \"#utility.yul\":6174:6241   */\n      tag_290\n        /* \"#utility.yul\":6238:6240   */\n      0x22\n        /* \"#utility.yul\":6233:6236   */\n      dup4\n        /* \"#utility.yul\":6174:6241   */\n      tag_284\n      jump\t// in\n    tag_290:\n        /* \"#utility.yul\":6167:6241   */\n      swap2\n      pop\n        /* \"#utility.yul\":6271:6305   */\n      0x796f7520646f6e742068617665207265776172647320746f2077697468647261\n        /* \"#utility.yul\":6267:6268   */\n      0x00\n        /* \"#utility.yul\":6262:6265   */\n      dup4\n        /* \"#utility.yul\":6258:6269   */\n      add\n        /* \"#utility.yul\":6251:6306   */\n      mstore\n        /* \"#utility.yul\":6337:6341   */\n      0x776e000000000000000000000000000000000000000000000000000000000000\n        /* \"#utility.yul\":6332:6334   */\n      0x20\n        /* \"#utility.yul\":6327:6330   */\n      dup4\n        /* \"#utility.yul\":6323:6335   */\n      add\n        /* \"#utility.yul\":6316:6342   */\n      mstore\n        /* \"#utility.yul\":6368:6370   */\n      0x40\n        /* \"#utility.yul\":6363:6366   */\n      dup3\n        /* \"#utility.yul\":6359:6371   */\n      add\n        /* \"#utility.yul\":6352:6371   */\n      swap1\n      pop\n        /* \"#utility.yul\":6157:6377   */\n      swap2\n      swap1\n      pop\n      jump\t// out\n        /* \"#utility.yul\":6451:7341   */\n    tag_242:\n        /* \"#utility.yul\":6598:6602   */\n      0x80\n        /* \"#utility.yul\":6593:6596   */\n      dup3\n        /* \"#utility.yul\":6589:6603   */\n      add\n        /* \"#utility.yul\":6695:6699   */\n      0x00\n        /* \"#utility.yul\":6688:6693   */\n      dup3\n        /* \"#utility.yul\":6684:6700   */\n      add\n        /* \"#utility.yul\":6678:6701   */\n      mload\n        /* \"#utility.yul\":6714:6777   */\n      tag_292\n        /* \"#utility.yul\":6771:6775   */\n      0x00\n        /* \"#utility.yul\":6766:6769   */\n      dup6\n        /* \"#utility.yul\":6762:6776   */\n      add\n        /* \"#utility.yul\":6748:6760   */\n      dup3\n        /* \"#utility.yul\":6714:6777   */\n      tag_293\n      jump\t// in\n    tag_292:\n        /* \"#utility.yul\":6613:6787   */\n      pop\n        /* \"#utility.yul\":6878:6882   */\n      0x20\n        /* \"#utility.yul\":6871:6876   */\n      dup3\n        /* \"#utility.yul\":6867:6883   */\n      add\n        /* \"#utility.yul\":6861:6884   */\n      mload\n        /* \"#utility.yul\":6897:6960   */\n      tag_294\n        /* \"#utility.yul\":6954:6958   */\n      0x20\n        /* \"#utility.yul\":6949:6952   */\n      dup6\n        /* \"#utility.yul\":6945:6959   */\n      add\n        /* \"#utility.yul\":6931:6943   */\n      dup3\n        /* \"#utility.yul\":6897:6960   */\n      tag_293\n      jump\t// in\n    tag_294:\n        /* \"#utility.yul\":6797:6970   */\n      pop\n        /* \"#utility.yul\":7059:7063   */\n      0x40\n        /* \"#utility.yul\":7052:7057   */\n      dup3\n        /* \"#utility.yul\":7048:7064   */\n      add\n        /* \"#utility.yul\":7042:7065   */\n      mload\n        /* \"#utility.yul\":7078:7141   */\n      tag_295\n        /* \"#utility.yul\":7135:7139   */\n      0x40\n        /* \"#utility.yul\":7130:7133   */\n      dup6\n        /* \"#utility.yul\":7126:7140   */\n      add\n        /* \"#utility.yul\":7112:7124   */\n      dup3\n        /* \"#utility.yul\":7078:7141   */\n      tag_293\n      jump\t// in\n    tag_295:\n        /* \"#utility.yul\":6980:7151   */\n      pop\n        /* \"#utility.yul\":7242:7246   */\n      0x60\n        /* \"#utility.yul\":7235:7240   */\n      dup3\n        /* \"#utility.yul\":7231:7247   */\n      add\n        /* \"#utility.yul\":7225:7248   */\n      mload\n        /* \"#utility.yul\":7261:7324   */\n      tag_296\n        /* \"#utility.yul\":7318:7322   */\n      0x60\n        /* \"#utility.yul\":7313:7316   */\n      dup6\n        /* \"#utility.yul\":7309:7323   */\n      add\n        /* \"#utility.yul\":7295:7307   */\n      dup3\n        /* \"#utility.yul\":7261:7324   */\n      tag_293\n      jump\t// in\n    tag_296:\n        /* \"#utility.yul\":7161:7334   */\n      pop\n        /* \"#utility.yul\":6567:7341   */\n      pop\n      pop\n      pop\n      jump\t// out\n        /* \"#utility.yul\":7347:7455   */\n    tag_293:\n        /* \"#utility.yul\":7424:7448   */\n      tag_298\n        /* \"#utility.yul\":7442:7447   */\n      dup2\n        /* \"#utility.yul\":7424:7448   */\n      tag_299\n      jump\t// in\n    tag_298:\n        /* \"#utility.yul\":7419:7422   */\n      dup3\n        /* \"#utility.yul\":7412:7449   */\n      mstore\n        /* \"#utility.yul\":7402:7455   */\n      pop\n      pop\n      jump\t// out\n        /* \"#utility.yul\":7461:7579   */\n    tag_300:\n        /* \"#utility.yul\":7548:7572   */\n      tag_302\n        /* \"#utility.yul\":7566:7571   */\n      dup2\n        /* \"#utility.yul\":7548:7572   */\n      tag_299\n      jump\t// in\n    tag_302:\n        /* \"#utility.yul\":7543:7546   */\n      dup3\n        /* \"#utility.yul\":7536:7573   */\n      mstore\n        /* \"#utility.yul\":7526:7579   */\n      pop\n      pop\n      jump\t// out\n        /* \"#utility.yul\":7585:7807   */\n    tag_69:\n      0x00\n        /* \"#utility.yul\":7716:7718   */\n      0x20\n        /* \"#utility.yul\":7705:7714   */\n      dup3\n        /* \"#utility.yul\":7701:7719   */\n      add\n        /* \"#utility.yul\":7693:7719   */\n      swap1\n      pop\n        /* \"#utility.yul\":7729:7800   */\n      tag_304\n        /* \"#utility.yul\":7797:7798   */\n      0x00\n        /* \"#utility.yul\":7786:7795   */\n      dup4\n        /* \"#utility.yul\":7782:7799   */\n      add\n        /* \"#utility.yul\":7773:7779   */\n      dup5\n        /* \"#utility.yul\":7729:7800   */\n      tag_246\n      jump\t// in\n    tag_304:\n        /* \"#utility.yul\":7683:7807   */\n      swap3\n      swap2\n      pop\n      pop\n      jump\t// out\n        /* \"#utility.yul\":7813:8255   */\n    tag_109:\n      0x00\n        /* \"#utility.yul\":8000:8002   */\n      0x60\n        /* \"#utility.yul\":7989:7998   */\n      dup3\n        /* \"#utility.yul\":7985:8003   */\n      add\n        /* \"#utility.yul\":7977:8003   */\n      swap1\n      pop\n        /* \"#utility.yul\":8013:8084   */\n      tag_306\n        /* \"#utility.yul\":8081:8082   */\n      0x00\n        /* \"#utility.yul\":8070:8079   */\n      dup4\n        /* \"#utility.yul\":8066:8083   */\n      add\n        /* \"#utility.yul\":8057:8063   */\n      dup7\n        /* \"#utility.yul\":8013:8084   */\n      tag_246\n      jump\t// in\n    tag_306:\n        /* \"#utility.yul\":8094:8166   */\n      tag_307\n        /* \"#utility.yul\":8162:8164   */\n      0x20\n        /* \"#utility.yul\":8151:8160   */\n      dup4\n        /* \"#utility.yul\":8147:8165   */\n      add\n        /* \"#utility.yul\":8138:8144   */\n      dup6\n        /* \"#utility.yul\":8094:8166   */\n      tag_246\n      jump\t// in\n    tag_307:\n        /* \"#utility.yul\":8176:8248   */\n      tag_308\n        /* \"#utility.yul\":8244:8246   */\n      0x40\n        /* \"#utility.yul\":8233:8242   */\n      dup4\n        /* \"#utility.yul\":8229:8247   */\n      add\n        /* \"#utility.yul\":8220:8226   */\n      dup5\n        /* \"#utility.yul\":8176:8248   */\n      tag_300\n      jump\t// in\n    tag_308:\n        /* \"#utility.yul\":7967:8255   */\n      swap5\n      swap4\n      pop\n      pop\n      pop\n      pop\n      jump\t// out\n        /* \"#utility.yul\":8261:8593   */\n    tag_159:\n      0x00\n        /* \"#utility.yul\":8420:8422   */\n      0x40\n        /* \"#utility.yul\":8409:8418   */\n      dup3\n        /* \"#utility.yul\":8405:8423   */\n      add\n        /* \"#utility.yul\":8397:8423   */\n      swap1\n      pop\n        /* \"#utility.yul\":8433:8504   */\n      tag_310\n        /* \"#utility.yul\":8501:8502   */\n      0x00\n        /* \"#utility.yul\":8490:8499   */\n      dup4\n        /* \"#utility.yul\":8486:8503   */\n      add\n        /* \"#utility.yul\":8477:8483   */\n      dup6\n        /* \"#utility.yul\":8433:8504   */\n      tag_246\n      jump\t// in\n    tag_310:\n        /* \"#utility.yul\":8514:8586   */\n      tag_311\n        /* \"#utility.yul\":8582:8584   */\n      0x20\n        /* \"#utility.yul\":8571:8580   */\n      dup4\n        /* \"#utility.yul\":8567:8585   */\n      add\n        /* \"#utility.yul\":8558:8564   */\n      dup5\n        /* \"#utility.yul\":8514:8586   */\n      tag_300\n      jump\t// in\n    tag_311:\n        /* \"#utility.yul\":8387:8593   */\n      swap4\n      swap3\n      pop\n      pop\n      pop\n      jump\t// out\n        /* \"#utility.yul\":8599:9251   */\n    tag_88:\n      0x00\n        /* \"#utility.yul\":8836:8839   */\n      0xa0\n        /* \"#utility.yul\":8825:8834   */\n      dup3\n        /* \"#utility.yul\":8821:8840   */\n      add\n        /* \"#utility.yul\":8813:8840   */\n      swap1\n      pop\n        /* \"#utility.yul\":8850:8921   */\n      tag_313\n        /* \"#utility.yul\":8918:8919   */\n      0x00\n        /* \"#utility.yul\":8907:8916   */\n      dup4\n        /* \"#utility.yul\":8903:8920   */\n      add\n        /* \"#utility.yul\":8894:8900   */\n      dup9\n        /* \"#utility.yul\":8850:8921   */\n      tag_246\n      jump\t// in\n    tag_313:\n        /* \"#utility.yul\":8931:9003   */\n      tag_314\n        /* \"#utility.yul\":8999:9001   */\n      0x20\n        /* \"#utility.yul\":8988:8997   */\n      dup4\n        /* \"#utility.yul\":8984:9002   */\n      add\n        /* \"#utility.yul\":8975:8981   */\n      dup8\n        /* \"#utility.yul\":8931:9003   */\n      tag_300\n      jump\t// in\n    tag_314:\n        /* \"#utility.yul\":9013:9085   */\n      tag_315\n        /* \"#utility.yul\":9081:9083   */\n      0x40\n        /* \"#utility.yul\":9070:9079   */\n      dup4\n        /* \"#utility.yul\":9066:9084   */\n      add\n        /* \"#utility.yul\":9057:9063   */\n      dup7\n        /* \"#utility.yul\":9013:9085   */\n      tag_300\n      jump\t// in\n    tag_315:\n        /* \"#utility.yul\":9095:9167   */\n      tag_316\n        /* \"#utility.yul\":9163:9165   */\n      0x60\n        /* \"#utility.yul\":9152:9161   */\n      dup4\n        /* \"#utility.yul\":9148:9166   */\n      add\n        /* \"#utility.yul\":9139:9145   */\n      dup6\n        /* \"#utility.yul\":9095:9167   */\n      tag_300\n      jump\t// in\n    tag_316:\n        /* \"#utility.yul\":9177:9244   */\n      tag_317\n        /* \"#utility.yul\":9239:9242   */\n      0x80\n        /* \"#utility.yul\":9228:9237   */\n      dup4\n        /* \"#utility.yul\":9224:9243   */\n      add\n        /* \"#utility.yul\":9215:9221   */\n      dup5\n        /* \"#utility.yul\":9177:9244   */\n      tag_277\n      jump\t// in\n    tag_317:\n        /* \"#utility.yul\":8803:9251   */\n      swap7\n      swap6\n      pop\n      pop\n      pop\n      pop\n      pop\n      pop\n      jump\t// out\n        /* \"#utility.yul\":9257:9630   */\n    tag_27:\n      0x00\n        /* \"#utility.yul\":9438:9440   */\n      0x20\n        /* \"#utility.yul\":9427:9436   */\n      dup3\n        /* \"#utility.yul\":9423:9441   */\n      add\n        /* \"#utility.yul\":9415:9441   */\n      swap1\n      pop\n        /* \"#utility.yul\":9487:9496   */\n      dup2\n        /* \"#utility.yul\":9481:9485   */\n      dup2\n        /* \"#utility.yul\":9477:9497   */\n      sub\n        /* \"#utility.yul\":9473:9474   */\n      0x00\n        /* \"#utility.yul\":9462:9471   */\n      dup4\n        /* \"#utility.yul\":9458:9475   */\n      add\n        /* \"#utility.yul\":9451:9498   */\n      mstore\n        /* \"#utility.yul\":9515:9623   */\n      tag_319\n        /* \"#utility.yul\":9618:9622   */\n      dup2\n        /* \"#utility.yul\":9609:9615   */\n      dup5\n        /* \"#utility.yul\":9515:9623   */\n      tag_249\n      jump\t// in\n    tag_319:\n        /* \"#utility.yul\":9507:9623   */\n      swap1\n      pop\n        /* \"#utility.yul\":9405:9630   */\n      swap3\n      swap2\n      pop\n      pop\n      jump\t// out\n        /* \"#utility.yul\":9636:10129   */\n    tag_51:\n      0x00\n        /* \"#utility.yul\":9877:9879   */\n      0x20\n        /* \"#utility.yul\":9866:9875   */\n      dup3\n        /* \"#utility.yul\":9862:9880   */\n      add\n        /* \"#utility.yul\":9854:9880   */\n      swap1\n      pop\n        /* \"#utility.yul\":9926:9935   */\n      dup2\n        /* \"#utility.yul\":9920:9924   */\n      dup2\n        /* \"#utility.yul\":9916:9936   */\n      sub\n        /* \"#utility.yul\":9912:9913   */\n      0x00\n        /* \"#utility.yul\":9901:9910   */\n      dup4\n        /* \"#utility.yul\":9897:9914   */\n      add\n        /* \"#utility.yul\":9890:9937   */\n      mstore\n        /* \"#utility.yul\":9954:10122   */\n      tag_321\n        /* \"#utility.yul\":10117:10121   */\n      dup2\n        /* \"#utility.yul\":10108:10114   */\n      dup5\n        /* \"#utility.yul\":9954:10122   */\n      tag_263\n      jump\t// in\n    tag_321:\n        /* \"#utility.yul\":9946:10122   */\n      swap1\n      pop\n        /* \"#utility.yul\":9844:10129   */\n      swap3\n      swap2\n      pop\n      pop\n      jump\t// out\n        /* \"#utility.yul\":10135:10345   */\n    tag_44:\n      0x00\n        /* \"#utility.yul\":10260:10262   */\n      0x20\n        /* \"#utility.yul\":10249:10258   */\n      dup3\n        /* \"#utility.yul\":10245:10263   */\n      add\n        /* \"#utility.yul\":10237:10263   */\n      swap1\n      pop\n        /* \"#utility.yul\":10273:10338   */\n      tag_323\n        /* \"#utility.yul\":10335:10336   */\n      0x00\n        /* \"#utility.yul\":10324:10333   */\n      dup4\n        /* \"#utility.yul\":10320:10337   */\n      add\n        /* \"#utility.yul\":10311:10317   */\n      dup5\n        /* \"#utility.yul\":10273:10338   */\n      tag_277\n      jump\t// in\n    tag_323:\n        /* \"#utility.yul\":10227:10345   */\n      swap3\n      swap2\n      pop\n      pop\n      jump\t// out\n        /* \"#utility.yul\":10351:10770   */\n    tag_100:\n      0x00\n        /* \"#utility.yul\":10555:10557   */\n      0x20\n        /* \"#utility.yul\":10544:10553   */\n      dup3\n        /* \"#utility.yul\":10540:10558   */\n      add\n        /* \"#utility.yul\":10532:10558   */\n      swap1\n      pop\n        /* \"#utility.yul\":10604:10613   */\n      dup2\n        /* \"#utility.yul\":10598:10602   */\n      dup2\n        /* \"#utility.yul\":10594:10614   */\n      sub\n        /* \"#utility.yul\":10590:10591   */\n      0x00\n        /* \"#utility.yul\":10579:10588   */\n      dup4\n        /* \"#utility.yul\":10575:10592   */\n      add\n        /* \"#utility.yul\":10568:10615   */\n      mstore\n        /* \"#utility.yul\":10632:10763   */\n      tag_325\n        /* \"#utility.yul\":10758:10762   */\n      dup2\n        /* \"#utility.yul\":10632:10763   */\n      tag_281\n      jump\t// in\n    tag_325:\n        /* \"#utility.yul\":10624:10763   */\n      swap1\n      pop\n        /* \"#utility.yul\":10522:10770   */\n      swap2\n      swap1\n      pop\n      jump\t// out\n        /* \"#utility.yul\":10776:11195   */\n    tag_155:\n      0x00\n        /* \"#utility.yul\":10980:10982   */\n      0x20\n        /* \"#utility.yul\":10969:10978   */\n      dup3\n        /* \"#utility.yul\":10965:10983   */\n      add\n        /* \"#utility.yul\":10957:10983   */\n      swap1\n      pop\n        /* \"#utility.yul\":11029:11038   */\n      dup2\n        /* \"#utility.yul\":11023:11027   */\n      dup2\n        /* \"#utility.yul\":11019:11039   */\n      sub\n        /* \"#utility.yul\":11015:11016   */\n      0x00\n        /* \"#utility.yul\":11004:11013   */\n      dup4\n        /* \"#utility.yul\":11000:11017   */\n      add\n        /* \"#utility.yul\":10993:11040   */\n      mstore\n        /* \"#utility.yul\":11057:11188   */\n      tag_327\n        /* \"#utility.yul\":11183:11187   */\n      dup2\n        /* \"#utility.yul\":11057:11188   */\n      tag_285\n      jump\t// in\n    tag_327:\n        /* \"#utility.yul\":11049:11188   */\n      swap1\n      pop\n        /* \"#utility.yul\":10947:11195   */\n      swap2\n      swap1\n      pop\n      jump\t// out\n        /* \"#utility.yul\":11201:11620   */\n    tag_193:\n      0x00\n        /* \"#utility.yul\":11405:11407   */\n      0x20\n        /* \"#utility.yul\":11394:11403   */\n      dup3\n        /* \"#utility.yul\":11390:11408   */\n      add\n        /* \"#utility.yul\":11382:11408   */\n      swap1\n      pop\n        /* \"#utility.yul\":11454:11463   */\n      dup2\n        /* \"#utility.yul\":11448:11452   */\n      dup2\n        /* \"#utility.yul\":11444:11464   */\n      sub\n        /* \"#utility.yul\":11440:11441   */\n      0x00\n        /* \"#utility.yul\":11429:11438   */\n      dup4\n        /* \"#utility.yul\":11425:11442   */\n      add\n        /* \"#utility.yul\":11418:11465   */\n      mstore\n        /* \"#utility.yul\":11482:11613   */\n      tag_329\n        /* \"#utility.yul\":11608:11612   */\n      dup2\n        /* \"#utility.yul\":11482:11613   */\n      tag_288\n      jump\t// in\n    tag_329:\n        /* \"#utility.yul\":11474:11613   */\n      swap1\n      pop\n        /* \"#utility.yul\":11372:11620   */\n      swap2\n      swap1\n      pop\n      jump\t// out\n        /* \"#utility.yul\":11626:11848   */\n    tag_31:\n      0x00\n        /* \"#utility.yul\":11757:11759   */\n      0x20\n        /* \"#utility.yul\":11746:11755   */\n      dup3\n        /* \"#utility.yul\":11742:11760   */\n      add\n        /* \"#utility.yul\":11734:11760   */\n      swap1\n      pop\n        /* \"#utility.yul\":11770:11841   */\n      tag_331\n        /* \"#utility.yul\":11838:11839   */\n      0x00\n        /* \"#utility.yul\":11827:11836   */\n      dup4\n        /* \"#utility.yul\":11823:11840   */\n      add\n        /* \"#utility.yul\":11814:11820   */\n      dup5\n        /* \"#utility.yul\":11770:11841   */\n      tag_300\n      jump\t// in\n    tag_331:\n        /* \"#utility.yul\":11724:11848   */\n      swap3\n      swap2\n      pop\n      pop\n      jump\t// out\n        /* \"#utility.yul\":11854:11986   */\n    tag_256:\n      0x00\n        /* \"#utility.yul\":11944:11947   */\n      dup2\n        /* \"#utility.yul\":11936:11947   */\n      swap1\n      pop\n        /* \"#utility.yul\":11974:11978   */\n      0x20\n        /* \"#utility.yul\":11969:11972   */\n      dup3\n        /* \"#utility.yul\":11965:11979   */\n      add\n        /* \"#utility.yul\":11957:11979   */\n      swap1\n      pop\n        /* \"#utility.yul\":11926:11986   */\n      swap2\n      swap1\n      pop\n      jump\t// out\n        /* \"#utility.yul\":11992:12154   */\n    tag_270:\n      0x00\n        /* \"#utility.yul\":12112:12115   */\n      dup2\n        /* \"#utility.yul\":12104:12115   */\n      swap1\n      pop\n        /* \"#utility.yul\":12142:12146   */\n      0x20\n        /* \"#utility.yul\":12137:12140   */\n      dup3\n        /* \"#utility.yul\":12133:12147   */\n      add\n        /* \"#utility.yul\":12125:12147   */\n      swap1\n      pop\n        /* \"#utility.yul\":12094:12154   */\n      swap2\n      swap1\n      pop\n      jump\t// out\n        /* \"#utility.yul\":12160:12274   */\n    tag_252:\n      0x00\n        /* \"#utility.yul\":12261:12266   */\n      dup2\n        /* \"#utility.yul\":12255:12267   */\n      mload\n        /* \"#utility.yul\":12245:12267   */\n      swap1\n      pop\n        /* \"#utility.yul\":12234:12274   */\n      swap2\n      swap1\n      pop\n      jump\t// out\n        /* \"#utility.yul\":12280:12424   */\n    tag_266:\n      0x00\n        /* \"#utility.yul\":12411:12416   */\n      dup2\n        /* \"#utility.yul\":12405:12417   */\n      mload\n        /* \"#utility.yul\":12395:12417   */\n      swap1\n      pop\n        /* \"#utility.yul\":12384:12424   */\n      swap2\n      swap1\n      pop\n      jump\t// out\n        /* \"#utility.yul\":12430:12543   */\n    tag_262:\n      0x00\n        /* \"#utility.yul\":12532:12536   */\n      0x20\n        /* \"#utility.yul\":12527:12530   */\n      dup3\n        /* \"#utility.yul\":12523:12537   */\n      add\n        /* \"#utility.yul\":12515:12537   */\n      swap1\n      pop\n        /* \"#utility.yul\":12505:12543   */\n      swap2\n      swap1\n      pop\n      jump\t// out\n        /* \"#utility.yul\":12549:12692   */\n    tag_276:\n      0x00\n        /* \"#utility.yul\":12681:12685   */\n      0x20\n        /* \"#utility.yul\":12676:12679   */\n      dup3\n        /* \"#utility.yul\":12672:12686   */\n      add\n        /* \"#utility.yul\":12664:12686   */\n      swap1\n      pop\n        /* \"#utility.yul\":12654:12692   */\n      swap2\n      swap1\n      pop\n      jump\t// out\n        /* \"#utility.yul\":12698:12882   */\n    tag_254:\n      0x00\n        /* \"#utility.yul\":12831:12837   */\n      dup3\n        /* \"#utility.yul\":12826:12829   */\n      dup3\n        /* \"#utility.yul\":12819:12838   */\n      mstore\n        /* \"#utility.yul\":12871:12875   */\n      0x20\n        /* \"#utility.yul\":12866:12869   */\n      dup3\n        /* \"#utility.yul\":12862:12876   */\n      add\n        /* \"#utility.yul\":12847:12876   */\n      swap1\n      pop\n        /* \"#utility.yul\":12809:12882   */\n      swap3\n      swap2\n      pop\n      pop\n      jump\t// out\n        /* \"#utility.yul\":12888:13102   */\n    tag_268:\n      0x00\n        /* \"#utility.yul\":13051:13057   */\n      dup3\n        /* \"#utility.yul\":13046:13049   */\n      dup3\n        /* \"#utility.yul\":13039:13058   */\n      mstore\n        /* \"#utility.yul\":13091:13095   */\n      0x20\n        /* \"#utility.yul\":13086:13089   */\n      dup3\n        /* \"#utility.yul\":13082:13096   */\n      add\n        /* \"#utility.yul\":13067:13096   */\n      swap1\n      pop\n        /* \"#utility.yul\":13029:13102   */\n      swap3\n      swap2\n      pop\n      pop\n      jump\t// out\n        /* \"#utility.yul\":13108:13277   */\n    tag_284:\n      0x00\n        /* \"#utility.yul\":13226:13232   */\n      dup3\n        /* \"#utility.yul\":13221:13224   */\n      dup3\n        /* \"#utility.yul\":13214:13233   */\n      mstore\n        /* \"#utility.yul\":13266:13270   */\n      0x20\n        /* \"#utility.yul\":13261:13264   */\n      dup3\n        /* \"#utility.yul\":13257:13271   */\n      add\n        /* \"#utility.yul\":13242:13271   */\n      swap1\n      pop\n        /* \"#utility.yul\":13204:13277   */\n      swap3\n      swap2\n      pop\n      pop\n      jump\t// out\n        /* \"#utility.yul\":13283:13588   */\n    tag_105:\n      0x00\n        /* \"#utility.yul\":13342:13362   */\n      tag_342\n        /* \"#utility.yul\":13360:13361   */\n      dup3\n        /* \"#utility.yul\":13342:13362   */\n      tag_299\n      jump\t// in\n    tag_342:\n        /* \"#utility.yul\":13337:13362   */\n      swap2\n      pop\n        /* \"#utility.yul\":13376:13396   */\n      tag_343\n        /* \"#utility.yul\":13394:13395   */\n      dup4\n        /* \"#utility.yul\":13376:13396   */\n      tag_299\n      jump\t// in\n    tag_343:\n        /* \"#utility.yul\":13371:13396   */\n      swap3\n      pop\n        /* \"#utility.yul\":13530:13531   */\n      dup3\n        /* \"#utility.yul\":13462:13528   */\n      0xffffffffffffffffffffffffffffffffffffffffffffffffffffffffffffffff\n        /* \"#utility.yul\":13458:13532   */\n      sub\n        /* \"#utility.yul\":13455:13456   */\n      dup3\n        /* \"#utility.yul\":13452:13533   */\n      gt\n        /* \"#utility.yul\":13449:13451   */\n      iszero\n      tag_344\n      jumpi\n        /* \"#utility.yul\":13536:13554   */\n      tag_345\n      tag_346\n      jump\t// in\n    tag_345:\n        /* \"#utility.yul\":13449:13451   */\n    tag_344:\n        /* \"#utility.yul\":13580:13581   */\n      dup3\n        /* \"#utility.yul\":13577:13578   */\n      dup3\n        /* \"#utility.yul\":13573:13582   */\n      add\n        /* \"#utility.yul\":13566:13582   */\n      swap1\n      pop\n        /* \"#utility.yul\":13327:13588   */\n      swap3\n      swap2\n      pop\n      pop\n      jump\t// out\n        /* \"#utility.yul\":13594:13779   */\n    tag_146:\n      0x00\n        /* \"#utility.yul\":13651:13671   */\n      tag_348\n        /* \"#utility.yul\":13669:13670   */\n      dup3\n        /* \"#utility.yul\":13651:13671   */\n      tag_299\n      jump\t// in\n    tag_348:\n        /* \"#utility.yul\":13646:13671   */\n      swap2\n      pop\n        /* \"#utility.yul\":13685:13705   */\n      tag_349\n        /* \"#utility.yul\":13703:13704   */\n      dup4\n        /* \"#utility.yul\":13685:13705   */\n      tag_299\n      jump\t// in\n    tag_349:\n        /* \"#utility.yul\":13680:13705   */\n      swap3\n      pop\n        /* \"#utility.yul\":13724:13725   */\n      dup3\n        /* \"#utility.yul\":13714:13716   */\n      tag_350\n      jumpi\n        /* \"#utility.yul\":13729:13747   */\n      tag_351\n      tag_352\n      jump\t// in\n    tag_351:\n        /* \"#utility.yul\":13714:13716   */\n    tag_350:\n        /* \"#utility.yul\":13771:13772   */\n      dup3\n        /* \"#utility.yul\":13768:13769   */\n      dup3\n        /* \"#utility.yul\":13764:13773   */\n      div\n        /* \"#utility.yul\":13759:13773   */\n      swap1\n      pop\n        /* \"#utility.yul\":13636:13779   */\n      swap3\n      swap2\n      pop\n      pop\n      jump\t// out\n        /* \"#utility.yul\":13785:14133   */\n    tag_149:\n      0x00\n        /* \"#utility.yul\":13848:13868   */\n      tag_354\n        /* \"#utility.yul\":13866:13867   */\n      dup3\n        /* \"#utility.yul\":13848:13868   */\n      tag_299\n      jump\t// in\n    tag_354:\n        /* \"#utility.yul\":13843:13868   */\n      swap2\n      pop\n        /* \"#utility.yul\":13882:13902   */\n      tag_355\n        /* \"#utility.yul\":13900:13901   */\n      dup4\n        /* \"#utility.yul\":13882:13902   */\n      tag_299\n      jump\t// in\n    tag_355:\n        /* \"#utility.yul\":13877:13902   */\n      swap3\n      pop\n        /* \"#utility.yul\":14070:14071   */\n      dup2\n        /* \"#utility.yul\":14002:14068   */\n      0xffffffffffffffffffffffffffffffffffffffffffffffffffffffffffffffff\n        /* \"#utility.yul\":13998:14072   */\n      div\n        /* \"#utility.yul\":13995:13996   */\n      dup4\n        /* \"#utility.yul\":13992:14073   */\n      gt\n        /* \"#utility.yul\":13987:13988   */\n      dup3\n        /* \"#utility.yul\":13980:13989   */\n      iszero\n        /* \"#utility.yul\":13973:13990   */\n      iszero\n        /* \"#utility.yul\":13969:14074   */\n      and\n        /* \"#utility.yul\":13966:13968   */\n      iszero\n      tag_356\n      jumpi\n        /* \"#utility.yul\":14077:14095   */\n      tag_357\n      tag_346\n      jump\t// in\n    tag_357:\n        /* \"#utility.yul\":13966:13968   */\n    tag_356:\n        /* \"#utility.yul\":14125:14126   */\n      dup3\n        /* \"#utility.yul\":14122:14123   */\n      dup3\n        /* \"#utility.yul\":14118:14127   */\n      mul\n        /* \"#utility.yul\":14107:14127   */\n      swap1\n      pop\n        /* \"#utility.yul\":13833:14133   */\n      swap3\n      swap2\n      pop\n      pop\n      jump\t// out\n        /* \"#utility.yul\":14139:14330   */\n    tag_144:\n      0x00\n        /* \"#utility.yul\":14199:14219   */\n      tag_359\n        /* \"#utility.yul\":14217:14218   */\n      dup3\n        /* \"#utility.yul\":14199:14219   */\n      tag_299\n      jump\t// in\n    tag_359:\n        /* \"#utility.yul\":14194:14219   */\n      swap2\n      pop\n        /* \"#utility.yul\":14233:14253   */\n      tag_360\n        /* \"#utility.yul\":14251:14252   */\n      dup4\n        /* \"#utility.yul\":14233:14253   */\n      tag_299\n      jump\t// in\n    tag_360:\n        /* \"#utility.yul\":14228:14253   */\n      swap3\n      pop\n        /* \"#utility.yul\":14272:14273   */\n      dup3\n        /* \"#utility.yul\":14269:14270   */\n      dup3\n        /* \"#utility.yul\":14266:14274   */\n      lt\n        /* \"#utility.yul\":14263:14265   */\n      iszero\n      tag_361\n      jumpi\n        /* \"#utility.yul\":14277:14295   */\n      tag_362\n      tag_346\n      jump\t// in\n    tag_362:\n        /* \"#utility.yul\":14263:14265   */\n    tag_361:\n        /* \"#utility.yul\":14322:14323   */\n      dup3\n        /* \"#utility.yul\":14319:14320   */\n      dup3\n        /* \"#utility.yul\":14315:14324   */\n      sub\n        /* \"#utility.yul\":14307:14324   */\n      swap1\n      pop\n        /* \"#utility.yul\":14184:14330   */\n      swap3\n      swap2\n      pop\n      pop\n      jump\t// out\n        /* \"#utility.yul\":14336:14432   */\n    tag_245:\n      0x00\n        /* \"#utility.yul\":14402:14426   */\n      tag_364\n        /* \"#utility.yul\":14420:14425   */\n      dup3\n        /* \"#utility.yul\":14402:14426   */\n      tag_365\n      jump\t// in\n    tag_364:\n        /* \"#utility.yul\":14391:14426   */\n      swap1\n      pop\n        /* \"#utility.yul\":14381:14432   */\n      swap2\n      swap1\n      pop\n      jump\t// out\n        /* \"#utility.yul\":14438:14528   */\n    tag_280:\n      0x00\n        /* \"#utility.yul\":14515:14520   */\n      dup2\n        /* \"#utility.yul\":14508:14521   */\n      iszero\n        /* \"#utility.yul\":14501:14522   */\n      iszero\n        /* \"#utility.yul\":14490:14522   */\n      swap1\n      pop\n        /* \"#utility.yul\":14480:14528   */\n      swap2\n      swap1\n      pop\n      jump\t// out\n        /* \"#utility.yul\":14534:14660   */\n    tag_365:\n      0x00\n        /* \"#utility.yul\":14611:14653   */\n      0xffffffffffffffffffffffffffffffffffffffff\n        /* \"#utility.yul\":14604:14609   */\n      dup3\n        /* \"#utility.yul\":14600:14654   */\n      and\n        /* \"#utility.yul\":14589:14654   */\n      swap1\n      pop\n        /* \"#utility.yul\":14579:14660   */\n      swap2\n      swap1\n      pop\n      jump\t// out\n        /* \"#utility.yul\":14666:14743   */\n    tag_299:\n      0x00\n        /* \"#utility.yul\":14732:14737   */\n      dup2\n        /* \"#utility.yul\":14721:14737   */\n      swap1\n      pop\n        /* \"#utility.yul\":14711:14743   */\n      swap2\n      swap1\n      pop\n      jump\t// out\n        /* \"#utility.yul\":14749:14982   */\n    tag_103:\n      0x00\n        /* \"#utility.yul\":14811:14835   */\n      tag_370\n        /* \"#utility.yul\":14829:14834   */\n      dup3\n        /* \"#utility.yul\":14811:14835   */\n      tag_299\n      jump\t// in\n    tag_370:\n        /* \"#utility.yul\":14802:14835   */\n      swap2\n      pop\n        /* \"#utility.yul\":14857:14923   */\n      0xffffffffffffffffffffffffffffffffffffffffffffffffffffffffffffffff\n        /* \"#utility.yul\":14850:14855   */\n      dup3\n        /* \"#utility.yul\":14847:14924   */\n      eq\n        /* \"#utility.yul\":14844:14846   */\n      iszero\n      tag_371\n      jumpi\n        /* \"#utility.yul\":14927:14945   */\n      tag_372\n      tag_346\n      jump\t// in\n    tag_372:\n        /* \"#utility.yul\":14844:14846   */\n    tag_371:\n        /* \"#utility.yul\":14974:14975   */\n      0x01\n        /* \"#utility.yul\":14967:14972   */\n      dup3\n        /* \"#utility.yul\":14963:14976   */\n      add\n        /* \"#utility.yul\":14956:14976   */\n      swap1\n      pop\n        /* \"#utility.yul\":14792:14982   */\n      swap2\n      swap1\n      pop\n      jump\t// out\n        /* \"#utility.yul\":14988:15168   */\n    tag_346:\n        /* \"#utility.yul\":15036:15113   */\n      0x4e487b7100000000000000000000000000000000000000000000000000000000\n        /* \"#utility.yul\":15033:15034   */\n      0x00\n        /* \"#utility.yul\":15026:15114   */\n      mstore\n        /* \"#utility.yul\":15133:15137   */\n      0x11\n        /* \"#utility.yul\":15130:15131   */\n      0x04\n        /* \"#utility.yul\":15123:15138   */\n      mstore\n        /* \"#utility.yul\":15157:15161   */\n      0x24\n        /* \"#utility.yul\":15154:15155   */\n      0x00\n        /* \"#utility.yul\":15147:15162   */\n      revert\n        /* \"#utility.yul\":15174:15354   */\n    tag_352:\n        /* \"#utility.yul\":15222:15299   */\n      0x4e487b7100000000000000000000000000000000000000000000000000000000\n        /* \"#utility.yul\":15219:15220   */\n      0x00\n        /* \"#utility.yul\":15212:15300   */\n      mstore\n        /* \"#utility.yul\":15319:15323   */\n      0x12\n        /* \"#utility.yul\":15316:15317   */\n      0x04\n        /* \"#utility.yul\":15309:15324   */\n      mstore\n        /* \"#utility.yul\":15343:15347   */\n      0x24\n        /* \"#utility.yul\":15340:15341   */\n      0x00\n        /* \"#utility.yul\":15333:15348   */\n      revert\n        /* \"#utility.yul\":15360:15482   */\n    tag_204:\n        /* \"#utility.yul\":15433:15457   */\n      tag_376\n        /* \"#utility.yul\":15451:15456   */\n      dup2\n        /* \"#utility.yul\":15433:15457   */\n      tag_245\n      jump\t// in\n    tag_376:\n        /* \"#utility.yul\":15426:15431   */\n      dup2\n        /* \"#utility.yul\":15423:15458   */\n      eq\n        /* \"#utility.yul\":15413:15415   */\n      tag_377\n      jumpi\n        /* \"#utility.yul\":15472:15473   */\n      0x00\n        /* \"#utility.yul\":15469:15470   */\n      dup1\n        /* \"#utility.yul\":15462:15474   */\n      revert\n        /* \"#utility.yul\":15413:15415   */\n    tag_377:\n        /* \"#utility.yul\":15403:15482   */\n      pop\n      jump\t// out\n        /* \"#utility.yul\":15488:15604   */\n    tag_208:\n        /* \"#utility.yul\":15558:15579   */\n      tag_379\n        /* \"#utility.yul\":15573:15578   */\n      dup2\n        /* \"#utility.yul\":15558:15579   */\n      tag_280\n      jump\t// in\n    tag_379:\n        /* \"#utility.yul\":15551:15556   */\n      dup2\n        /* \"#utility.yul\":15548:15580   */\n      eq\n        /* \"#utility.yul\":15538:15540   */\n      tag_380\n      jumpi\n        /* \"#utility.yul\":15594:15595   */\n      0x00\n        /* \"#utility.yul\":15591:15592   */\n      dup1\n        /* \"#utility.yul\":15584:15596   */\n      revert\n        /* \"#utility.yul\":15538:15540   */\n    tag_380:\n        /* \"#utility.yul\":15528:15604   */\n      pop\n      jump\t// out\n        /* \"#utility.yul\":15610:15732   */\n    tag_212:\n        /* \"#utility.yul\":15683:15707   */\n      tag_382\n        /* \"#utility.yul\":15701:15706   */\n      dup2\n        /* \"#utility.yul\":15683:15707   */\n      tag_299\n      jump\t// in\n    tag_382:\n        /* \"#utility.yul\":15676:15681   */\n      dup2\n        /* \"#utility.yul\":15673:15708   */\n      eq\n        /* \"#utility.yul\":15663:15665   */\n      tag_383\n      jumpi\n        /* \"#utility.yul\":15722:15723   */\n      0x00\n        /* \"#utility.yul\":15719:15720   */\n      dup1\n        /* \"#utility.yul\":15712:15724   */\n      revert\n        /* \"#utility.yul\":15663:15665   */\n    tag_383:\n        /* \"#utility.yul\":15653:15732   */\n      pop\n      jump\t// out\n\n    auxdata: 0xa2646970667358221220c17e12bffb8c46c5b4f009edc0ab2acd8c72b9f2cec1172bb9c555b999b7295264736f6c63430008000033\n}\n",
				"bytecode": {
					"linkReferences": {},
					"object": "60806040527358ea7b46eb9c45fb2b850edb64f200b8e1daec7c600260006101000a81548173ffffffffffffffffffffffffffffffffffffffff021916908373ffffffffffffffffffffffffffffffffffffffff1602179055506706f05b59d3b2000060045569021e19e0c9bab24000006005556a0422ca8b0a00a42500000060065563018b820060075534801561009657600080fd5b50336000806101000a81548173ffffffffffffffffffffffffffffffffffffffff021916908373ffffffffffffffffffffffffffffffffffffffff1602179055506120dc806100e66000396000f3fe608060405234801561001057600080fd5b50600436106101165760003560e01c80635d3eea91116100a2578063c885bc5811610071578063c885bc58146102bd578063ce10db0a146102db578063d0ff6e63146102f7578063d3560ee814610315578063f7c618c11461034957610116565b80635d3eea91146102355780636e9726b0146102655780638da5cb5b14610281578063929f6bbe1461029f57610116565b80632bccdce6116100e95780632bccdce61461019157806332d4e783146101c15780633a1e0833146101dd5780633d18b912146101fb578063500cb85f1461021957610116565b80630c5f58f41461011b57806310cde60a146101395780631e8aba3514610157578063293be45614610175575b600080fd5b610123610367565b6040516101309190611d00565b60405180910390f35b610141610435565b60405161014e9190611dbf565b60405180910390f35b61015f61043b565b60405161016c9190611dbf565b60405180910390f35b61018f600480360381019061018a91906118e6565b610488565b005b6101ab60048036038101906101a6919061190f565b610492565b6040516101b89190611d44565b60405180910390f35b6101db60048036038101906101d691906118e6565b610ac2565b005b6101e5610acc565b6040516101f29190611d22565b60405180910390f35b610203610d84565b6040516102109190611dbf565b60405180910390f35b610233600480360381019061022e91906118e6565b610e84565b005b61024f600480360381019061024a91906118e6565b610e8e565b60405161025c9190611d44565b60405180910390f35b61027f600480360381019061027a9190611881565b611230565b005b6102896115f2565b6040516102969190611c32565b60405180910390f35b6102a7611616565b6040516102b49190611dbf565b60405180910390f35b6102c5611660565b6040516102d29190611d44565b60405180910390f35b6102f560048036038101906102f0919061194b565b611768565b005b6102ff611782565b60405161030c9190611dbf565b60405180910390f35b61032f600480360381019061032a9190611858565b611788565b604051610340959493929190611cad565b60405180910390f35b6103516117eb565b60405161035e9190611dbf565b60405180910390f35b6060600860003373ffffffffffffffffffffffffffffffffffffffff1673ffffffffffffffffffffffffffffffffffffffff16815260200190815260200160002060010180548060200260200160405190810160405280929190818152602001828054801561042b57602002820191906000526020600020905b8160009054906101000a900473ffffffffffffffffffffffffffffffffffffffff1673ffffffffffffffffffffffffffffffffffffffff16815260200190600101908083116103e1575b5050505050905090565b60035481565b6000600860003373ffffffffffffffffffffffffffffffffffffffff1673ffffffffffffffffffffffffffffffffffffffff16815260200190815260200160002060010180549050905090565b8060048190555050565b60006005548310156104d9576040517f08c379a00000000000000000000000000000000000000000000000000000000081526004016104d090611d5f565b60405180910390fd5b60001515600860003373ffffffffffffffffffffffffffffffffffffffff1673ffffffffffffffffffffffffffffffffffffffff16815260200190815260200160002060060160009054906101000a900460ff161515141561054e576003600081548092919061054890611fba565b91905055505b6000600860003373ffffffffffffffffffffffffffffffffffffffff1673ffffffffffffffffffffffffffffffffffffffff16815260200190815260200160002060040154905083600860003373ffffffffffffffffffffffffffffffffffffffff1673ffffffffffffffffffffffffffffffffffffffff16815260200190815260200160002060000160008381526020019081526020016000206000018190555042600860003373ffffffffffffffffffffffffffffffffffffffff1673ffffffffffffffffffffffffffffffffffffffff168152602001908152602001600020600001600083815260200190815260200160002060020181905550600754426106599190611e5d565b600860003373ffffffffffffffffffffffffffffffffffffffff1673ffffffffffffffffffffffffffffffffffffffff16815260200190815260200160002060000160008381526020019081526020016000206001018190555080600860003373ffffffffffffffffffffffffffffffffffffffff1673ffffffffffffffffffffffffffffffffffffffff16815260200190815260200160002060000160008381526020019081526020016000206003018190555083600860003373ffffffffffffffffffffffffffffffffffffffff1673ffffffffffffffffffffffffffffffffffffffff16815260200190815260200160002060050160008282546107609190611e5d565b925050819055506001600860003373ffffffffffffffffffffffffffffffffffffffff1673ffffffffffffffffffffffffffffffffffffffff16815260200190815260200160002060060160006101000a81548160ff021916908315150217905550600860003373ffffffffffffffffffffffffffffffffffffffff1673ffffffffffffffffffffffffffffffffffffffff168152602001908152602001600020600401600081548092919061081590611fba565b9190505550600260009054906101000a900473ffffffffffffffffffffffffffffffffffffffff1673ffffffffffffffffffffffffffffffffffffffff166323b872dd3330876040518463ffffffff1660e01b815260040161087993929190611c4d565b602060405180830381600087803b15801561089357600080fd5b505af11580156108a7573d6000803e3d6000fd5b505050506040513d601f19601f820116820180604052508101906108cb91906118bd565b50600073ffffffffffffffffffffffffffffffffffffffff168373ffffffffffffffffffffffffffffffffffffffff161415610988576000600860003373ffffffffffffffffffffffffffffffffffffffff1673ffffffffffffffffffffffffffffffffffffffff16815260200190815260200160002060020160006101000a81548173ffffffffffffffffffffffffffffffffffffffff021916908373ffffffffffffffffffffffffffffffffffffffff160217905550610ab7565b82600860003373ffffffffffffffffffffffffffffffffffffffff1673ffffffffffffffffffffffffffffffffffffffff16815260200190815260200160002060020160006101000a81548173ffffffffffffffffffffffffffffffffffffffff021916908373ffffffffffffffffffffffffffffffffffffffff160217905550600860008473ffffffffffffffffffffffffffffffffffffffff1673ffffffffffffffffffffffffffffffffffffffff168152602001908152602001600020600101339080600181540180825580915050600190039060005260206000200160009091909190916101000a81548173ffffffffffffffffffffffffffffffffffffffff021916908373ffffffffffffffffffffffffffffffffffffffff160217905550610ab63385611230565b5b600191505092915050565b8060058190555050565b60606000600860003373ffffffffffffffffffffffffffffffffffffffff1673ffffffffffffffffffffffffffffffffffffffff16815260200190815260200160002060040154905060008060005b83811015610ba4576000600860003373ffffffffffffffffffffffffffffffffffffffff1673ffffffffffffffffffffffffffffffffffffffff1681526020019081526020016000206000016000838152602001908152602001600020600001541115610b91578280610b8d90611fba565b9350505b8080610b9c90611fba565b915050610b1b565b5060008267ffffffffffffffff811115610be7577f4e487b7100000000000000000000000000000000000000000000000000000000600052604160045260246000fd5b604051908082528060200260200182016040528015610c2057816020015b610c0d6117f1565b815260200190600190039081610c055790505b50905060005b84811015610d79576000600860003373ffffffffffffffffffffffffffffffffffffffff1673ffffffffffffffffffffffffffffffffffffffff1681526020019081526020016000206000016000838152602001908152602001600020600001541115610d6657600860003373ffffffffffffffffffffffffffffffffffffffff1673ffffffffffffffffffffffffffffffffffffffff1681526020019081526020016000206000016000828152602001908152602001600020604051806080016040529081600082015481526020016001820154815260200160028201548152602001600382015481525050828481518110610d4c577f4e487b7100000000000000000000000000000000000000000000000000000000600052603260045260246000fd5b60200260200101819052508280610d6290611fba565b9350505b8080610d7190611fba565b915050610c26565b508094505050505090565b600080600080600860003373ffffffffffffffffffffffffffffffffffffffff1673ffffffffffffffffffffffffffffffffffffffff16815260200190815260200160002060040154905060005b81811015610e7a57600860003373ffffffffffffffffffffffffffffffffffffffff1673ffffffffffffffffffffffffffffffffffffffff16815260200190815260200160002060000160008281526020019081526020016000206002015442610e3c9190611f3e565b9250603c83610e4b9190611eb3565b92506000831115610e675760045483610e649190611ee4565b93505b8080610e7290611fba565b915050610dd2565b5082935050505090565b8060068190555050565b600080600860003373ffffffffffffffffffffffffffffffffffffffff1673ffffffffffffffffffffffffffffffffffffffff16815260200190815260200160002060000160008481526020019081526020016000206000015411610f28576040517f08c379a0000000000000000000000000000000000000000000000000000000008152600401610f1f90611d7f565b60405180910390fd5b6000600860003373ffffffffffffffffffffffffffffffffffffffff1673ffffffffffffffffffffffffffffffffffffffff168152602001908152602001600020600001600084815260200190815260200160002060000154905042600860003373ffffffffffffffffffffffffffffffffffffffff1673ffffffffffffffffffffffffffffffffffffffff1681526020019081526020016000206000016000858152602001908152602001600020600101541115610ff157600281610fee9190611eb3565b90505b600260009054906101000a900473ffffffffffffffffffffffffffffffffffffffff1673ffffffffffffffffffffffffffffffffffffffff1663a9059cbb33836040518363ffffffff1660e01b815260040161104e929190611c84565b602060405180830381600087803b15801561106857600080fd5b505af115801561107c573d6000803e3d6000fd5b505050506040513d601f19601f820116820180604052508101906110a091906118bd565b50600260009054906101000a900473ffffffffffffffffffffffffffffffffffffffff1673ffffffffffffffffffffffffffffffffffffffff1663a9059cbb60008054906101000a900473ffffffffffffffffffffffffffffffffffffffff16836040518363ffffffff1660e01b815260040161111e929190611c84565b602060405180830381600087803b15801561113857600080fd5b505af115801561114c573d6000803e3d6000fd5b505050506040513d601f19601f8201168201806040525081019061117091906118bd565b506000600860003373ffffffffffffffffffffffffffffffffffffffff1673ffffffffffffffffffffffffffffffffffffffff16815260200190815260200160002060000160008581526020019081526020016000206000018190555080600860003373ffffffffffffffffffffffffffffffffffffffff1673ffffffffffffffffffffffffffffffffffffffff168152602001908152602001600020600501600082825461121f9190611f3e565b925050819055506001915050919050565b60008290506000600467ffffffffffffffff811115611278577f4e487b7100000000000000000000000000000000000000000000000000000000600052604160045260246000fd5b6040519080825280602002602001820160405280156112a65781602001602082028036833780820191505090505b5090506005816000815181106112e5577f4e487b7100000000000000000000000000000000000000000000000000000000600052603260045260246000fd5b60200260200101818152505060038160018151811061132d577f4e487b7100000000000000000000000000000000000000000000000000000000600052603260045260246000fd5b602002602001018181525050600281600281518110611375577f4e487b7100000000000000000000000000000000000000000000000000000000600052603260045260246000fd5b6020026020010181815250506001816003815181106113bd577f4e487b7100000000000000000000000000000000000000000000000000000000600052603260045260246000fd5b602002602001018181525050600581600481518110611405577f4e487b7100000000000000000000000000000000000000000000000000000000600052603260045260246000fd5b602002602001018181525050600080600090505b60148110156115ea57600073ffffffffffffffffffffffffffffffffffffffff16600860008673ffffffffffffffffffffffffffffffffffffffff1673ffffffffffffffffffffffffffffffffffffffff16815260200190815260200160002060020160009054906101000a900473ffffffffffffffffffffffffffffffffffffffff1673ffffffffffffffffffffffffffffffffffffffff16146115d257600860008573ffffffffffffffffffffffffffffffffffffffff1673ffffffffffffffffffffffffffffffffffffffff16815260200190815260200160002060020160009054906101000a900473ffffffffffffffffffffffffffffffffffffffff169350606485848381518110611559577f4e487b7100000000000000000000000000000000000000000000000000000000600052603260045260246000fd5b602002602001015161156b9190611ee4565b6115759190611eb3565b600860008673ffffffffffffffffffffffffffffffffffffffff1673ffffffffffffffffffffffffffffffffffffffff16815260200190815260200160002060030160008282546115c69190611e5d565b925050819055506115d7565b6115ea565b80806115e290611fba565b915050611419565b505050505050565b60008054906101000a900473ffffffffffffffffffffffffffffffffffffffff1681565b6000600860003373ffffffffffffffffffffffffffffffffffffffff1673ffffffffffffffffffffffffffffffffffffffff16815260200190815260200160002060050154905090565b60008061166b610d84565b9050600081116116b0576040517f08c379a00000000000000000000000000000000000000000000000000000000081526004016116a790611d9f565b60405180910390fd5b600260009054906101000a900473ffffffffffffffffffffffffffffffffffffffff1673ffffffffffffffffffffffffffffffffffffffff1663a9059cbb33836040518363ffffffff1660e01b815260040161170d929190611c84565b602060405180830381600087803b15801561172757600080fd5b505af115801561173b573d6000803e3d6000fd5b505050506040513d601f19601f8201168201806040525081019061175f91906118bd565b50600191505090565b816006819055508260058190555080600481905550505050565b60015481565b60086020528060005260406000206000915090508060020160009054906101000a900473ffffffffffffffffffffffffffffffffffffffff16908060030154908060040154908060050154908060060160009054906101000a900460ff16905085565b60045481565b6040518060800160405280600081526020016000815260200160008152602001600081525090565b60008135905061182881612061565b92915050565b60008151905061183d81612078565b92915050565b6000813590506118528161208f565b92915050565b60006020828403121561186a57600080fd5b600061187884828501611819565b91505092915050565b6000806040838503121561189457600080fd5b60006118a285828601611819565b92505060206118b385828601611843565b9150509250929050565b6000602082840312156118cf57600080fd5b60006118dd8482850161182e565b91505092915050565b6000602082840312156118f857600080fd5b600061190684828501611843565b91505092915050565b6000806040838503121561192257600080fd5b600061193085828601611843565b925050602061194185828601611819565b9150509250929050565b60008060006060848603121561196057600080fd5b600061196e86828701611843565b935050602061197f86828701611843565b925050604061199086828701611843565b9150509250925092565b60006119a683836119ca565b60208301905092915050565b60006119be8383611bbf565b60808301905092915050565b6119d381611f72565b82525050565b6119e281611f72565b82525050565b60006119f382611dfa565b6119fd8185611e2a565b9350611a0883611dda565b8060005b83811015611a39578151611a20888261199a565b9750611a2b83611e10565b925050600181019050611a0c565b5085935050505092915050565b6000611a5182611e05565b611a5b8185611e3b565b9350611a6683611dea565b8060005b83811015611a97578151611a7e88826119b2565b9750611a8983611e1d565b925050600181019050611a6a565b5085935050505092915050565b611aad81611f84565b82525050565b6000611ac0601b83611e4c565b91507f76616c7565206973206e6f742067726561746572207468616e203000000000006000830152602082019050919050565b6000611b00602583611e4c565b91507f796f7520646f6e74206861766520696e766573746d656e7420746f207769746860008301527f647261776e0000000000000000000000000000000000000000000000000000006020830152604082019050919050565b6000611b66602283611e4c565b91507f796f7520646f6e742068617665207265776172647320746f207769746864726160008301527f776e0000000000000000000000000000000000000000000000000000000000006020830152604082019050919050565b608082016000820151611bd56000850182611c14565b506020820151611be86020850182611c14565b506040820151611bfb6040850182611c14565b506060820151611c0e6060850182611c14565b50505050565b611c1d81611fb0565b82525050565b611c2c81611fb0565b82525050565b6000602082019050611c4760008301846119d9565b92915050565b6000606082019050611c6260008301866119d9565b611c6f60208301856119d9565b611c7c6040830184611c23565b949350505050565b6000604082019050611c9960008301856119d9565b611ca66020830184611c23565b9392505050565b600060a082019050611cc260008301886119d9565b611ccf6020830187611c23565b611cdc6040830186611c23565b611ce96060830185611c23565b611cf66080830184611aa4565b9695505050505050565b60006020820190508181036000830152611d1a81846119e8565b905092915050565b60006020820190508181036000830152611d3c8184611a46565b905092915050565b6000602082019050611d596000830184611aa4565b92915050565b60006020820190508181036000830152611d7881611ab3565b9050919050565b60006020820190508181036000830152611d9881611af3565b9050919050565b60006020820190508181036000830152611db881611b59565b9050919050565b6000602082019050611dd46000830184611c23565b92915050565b6000819050602082019050919050565b6000819050602082019050919050565b600081519050919050565b600081519050919050565b6000602082019050919050565b6000602082019050919050565b600082825260208201905092915050565b600082825260208201905092915050565b600082825260208201905092915050565b6000611e6882611fb0565b9150611e7383611fb0565b9250827fffffffffffffffffffffffffffffffffffffffffffffffffffffffffffffffff03821115611ea857611ea7612003565b5b828201905092915050565b6000611ebe82611fb0565b9150611ec983611fb0565b925082611ed957611ed8612032565b5b828204905092915050565b6000611eef82611fb0565b9150611efa83611fb0565b9250817fffffffffffffffffffffffffffffffffffffffffffffffffffffffffffffffff0483118215151615611f3357611f32612003565b5b828202905092915050565b6000611f4982611fb0565b9150611f5483611fb0565b925082821015611f6757611f66612003565b5b828203905092915050565b6000611f7d82611f90565b9050919050565b60008115159050919050565b600073ffffffffffffffffffffffffffffffffffffffff82169050919050565b6000819050919050565b6000611fc582611fb0565b91507fffffffffffffffffffffffffffffffffffffffffffffffffffffffffffffffff821415611ff857611ff7612003565b5b600182019050919050565b7f4e487b7100000000000000000000000000000000000000000000000000000000600052601160045260246000fd5b7f4e487b7100000000000000000000000000000000000000000000000000000000600052601260045260246000fd5b61206a81611f72565b811461207557600080fd5b50565b61208181611f84565b811461208c57600080fd5b50565b61209881611fb0565b81146120a357600080fd5b5056fea2646970667358221220c17e12bffb8c46c5b4f009edc0ab2acd8c72b9f2cec1172bb9c555b999b7295264736f6c63430008000033",
					"opcodes": "PUSH1 0x80 PUSH1 0x40 MSTORE PUSH20 0x58EA7B46EB9C45FB2B850EDB64F200B8E1DAEC7C PUSH1 0x2 PUSH1 0x0 PUSH2 0x100 EXP DUP2 SLOAD DUP2 PUSH20 0xFFFFFFFFFFFFFFFFFFFFFFFFFFFFFFFFFFFFFFFF MUL NOT AND SWAP1 DUP4 PUSH20 0xFFFFFFFFFFFFFFFFFFFFFFFFFFFFFFFFFFFFFFFF AND MUL OR SWAP1 SSTORE POP PUSH8 0x6F05B59D3B20000 PUSH1 0x4 SSTORE PUSH10 0x21E19E0C9BAB2400000 PUSH1 0x5 SSTORE PUSH11 0x422CA8B0A00A425000000 PUSH1 0x6 SSTORE PUSH4 0x18B8200 PUSH1 0x7 SSTORE CALLVALUE DUP1 ISZERO PUSH2 0x96 JUMPI PUSH1 0x0 DUP1 REVERT JUMPDEST POP CALLER PUSH1 0x0 DUP1 PUSH2 0x100 EXP DUP2 SLOAD DUP2 PUSH20 0xFFFFFFFFFFFFFFFFFFFFFFFFFFFFFFFFFFFFFFFF MUL NOT AND SWAP1 DUP4 PUSH20 0xFFFFFFFFFFFFFFFFFFFFFFFFFFFFFFFFFFFFFFFF AND MUL OR SWAP1 SSTORE POP PUSH2 0x20DC DUP1 PUSH2 0xE6 PUSH1 0x0 CODECOPY PUSH1 0x0 RETURN INVALID PUSH1 0x80 PUSH1 0x40 MSTORE CALLVALUE DUP1 ISZERO PUSH2 0x10 JUMPI PUSH1 0x0 DUP1 REVERT JUMPDEST POP PUSH1 0x4 CALLDATASIZE LT PUSH2 0x116 JUMPI PUSH1 0x0 CALLDATALOAD PUSH1 0xE0 SHR DUP1 PUSH4 0x5D3EEA91 GT PUSH2 0xA2 JUMPI DUP1 PUSH4 0xC885BC58 GT PUSH2 0x71 JUMPI DUP1 PUSH4 0xC885BC58 EQ PUSH2 0x2BD JUMPI DUP1 PUSH4 0xCE10DB0A EQ PUSH2 0x2DB JUMPI DUP1 PUSH4 0xD0FF6E63 EQ PUSH2 0x2F7 JUMPI DUP1 PUSH4 0xD3560EE8 EQ PUSH2 0x315 JUMPI DUP1 PUSH4 0xF7C618C1 EQ PUSH2 0x349 JUMPI PUSH2 0x116 JUMP JUMPDEST DUP1 PUSH4 0x5D3EEA91 EQ PUSH2 0x235 JUMPI DUP1 PUSH4 0x6E9726B0 EQ PUSH2 0x265 JUMPI DUP1 PUSH4 0x8DA5CB5B EQ PUSH2 0x281 JUMPI DUP1 PUSH4 0x929F6BBE EQ PUSH2 0x29F JUMPI PUSH2 0x116 JUMP JUMPDEST DUP1 PUSH4 0x2BCCDCE6 GT PUSH2 0xE9 JUMPI DUP1 PUSH4 0x2BCCDCE6 EQ PUSH2 0x191 JUMPI DUP1 PUSH4 0x32D4E783 EQ PUSH2 0x1C1 JUMPI DUP1 PUSH4 0x3A1E0833 EQ PUSH2 0x1DD JUMPI DUP1 PUSH4 0x3D18B912 EQ PUSH2 0x1FB JUMPI DUP1 PUSH4 0x500CB85F EQ PUSH2 0x219 JUMPI PUSH2 0x116 JUMP JUMPDEST DUP1 PUSH4 0xC5F58F4 EQ PUSH2 0x11B JUMPI DUP1 PUSH4 0x10CDE60A EQ PUSH2 0x139 JUMPI DUP1 PUSH4 0x1E8ABA35 EQ PUSH2 0x157 JUMPI DUP1 PUSH4 0x293BE456 EQ PUSH2 0x175 JUMPI JUMPDEST PUSH1 0x0 DUP1 REVERT JUMPDEST PUSH2 0x123 PUSH2 0x367 JUMP JUMPDEST PUSH1 0x40 MLOAD PUSH2 0x130 SWAP2 SWAP1 PUSH2 0x1D00 JUMP JUMPDEST PUSH1 0x40 MLOAD DUP1 SWAP2 SUB SWAP1 RETURN JUMPDEST PUSH2 0x141 PUSH2 0x435 JUMP JUMPDEST PUSH1 0x40 MLOAD PUSH2 0x14E SWAP2 SWAP1 PUSH2 0x1DBF JUMP JUMPDEST PUSH1 0x40 MLOAD DUP1 SWAP2 SUB SWAP1 RETURN JUMPDEST PUSH2 0x15F PUSH2 0x43B JUMP JUMPDEST PUSH1 0x40 MLOAD PUSH2 0x16C SWAP2 SWAP1 PUSH2 0x1DBF JUMP JUMPDEST PUSH1 0x40 MLOAD DUP1 SWAP2 SUB SWAP1 RETURN JUMPDEST PUSH2 0x18F PUSH1 0x4 DUP1 CALLDATASIZE SUB DUP2 ADD SWAP1 PUSH2 0x18A SWAP2 SWAP1 PUSH2 0x18E6 JUMP JUMPDEST PUSH2 0x488 JUMP JUMPDEST STOP JUMPDEST PUSH2 0x1AB PUSH1 0x4 DUP1 CALLDATASIZE SUB DUP2 ADD SWAP1 PUSH2 0x1A6 SWAP2 SWAP1 PUSH2 0x190F JUMP JUMPDEST PUSH2 0x492 JUMP JUMPDEST PUSH1 0x40 MLOAD PUSH2 0x1B8 SWAP2 SWAP1 PUSH2 0x1D44 JUMP JUMPDEST PUSH1 0x40 MLOAD DUP1 SWAP2 SUB SWAP1 RETURN JUMPDEST PUSH2 0x1DB PUSH1 0x4 DUP1 CALLDATASIZE SUB DUP2 ADD SWAP1 PUSH2 0x1D6 SWAP2 SWAP1 PUSH2 0x18E6 JUMP JUMPDEST PUSH2 0xAC2 JUMP JUMPDEST STOP JUMPDEST PUSH2 0x1E5 PUSH2 0xACC JUMP JUMPDEST PUSH1 0x40 MLOAD PUSH2 0x1F2 SWAP2 SWAP1 PUSH2 0x1D22 JUMP JUMPDEST PUSH1 0x40 MLOAD DUP1 SWAP2 SUB SWAP1 RETURN JUMPDEST PUSH2 0x203 PUSH2 0xD84 JUMP JUMPDEST PUSH1 0x40 MLOAD PUSH2 0x210 SWAP2 SWAP1 PUSH2 0x1DBF JUMP JUMPDEST PUSH1 0x40 MLOAD DUP1 SWAP2 SUB SWAP1 RETURN JUMPDEST PUSH2 0x233 PUSH1 0x4 DUP1 CALLDATASIZE SUB DUP2 ADD SWAP1 PUSH2 0x22E SWAP2 SWAP1 PUSH2 0x18E6 JUMP JUMPDEST PUSH2 0xE84 JUMP JUMPDEST STOP JUMPDEST PUSH2 0x24F PUSH1 0x4 DUP1 CALLDATASIZE SUB DUP2 ADD SWAP1 PUSH2 0x24A SWAP2 SWAP1 PUSH2 0x18E6 JUMP JUMPDEST PUSH2 0xE8E JUMP JUMPDEST PUSH1 0x40 MLOAD PUSH2 0x25C SWAP2 SWAP1 PUSH2 0x1D44 JUMP JUMPDEST PUSH1 0x40 MLOAD DUP1 SWAP2 SUB SWAP1 RETURN JUMPDEST PUSH2 0x27F PUSH1 0x4 DUP1 CALLDATASIZE SUB DUP2 ADD SWAP1 PUSH2 0x27A SWAP2 SWAP1 PUSH2 0x1881 JUMP JUMPDEST PUSH2 0x1230 JUMP JUMPDEST STOP JUMPDEST PUSH2 0x289 PUSH2 0x15F2 JUMP JUMPDEST PUSH1 0x40 MLOAD PUSH2 0x296 SWAP2 SWAP1 PUSH2 0x1C32 JUMP JUMPDEST PUSH1 0x40 MLOAD DUP1 SWAP2 SUB SWAP1 RETURN JUMPDEST PUSH2 0x2A7 PUSH2 0x1616 JUMP JUMPDEST PUSH1 0x40 MLOAD PUSH2 0x2B4 SWAP2 SWAP1 PUSH2 0x1DBF JUMP JUMPDEST PUSH1 0x40 MLOAD DUP1 SWAP2 SUB SWAP1 RETURN JUMPDEST PUSH2 0x2C5 PUSH2 0x1660 JUMP JUMPDEST PUSH1 0x40 MLOAD PUSH2 0x2D2 SWAP2 SWAP1 PUSH2 0x1D44 JUMP JUMPDEST PUSH1 0x40 MLOAD DUP1 SWAP2 SUB SWAP1 RETURN JUMPDEST PUSH2 0x2F5 PUSH1 0x4 DUP1 CALLDATASIZE SUB DUP2 ADD SWAP1 PUSH2 0x2F0 SWAP2 SWAP1 PUSH2 0x194B JUMP JUMPDEST PUSH2 0x1768 JUMP JUMPDEST STOP JUMPDEST PUSH2 0x2FF PUSH2 0x1782 JUMP JUMPDEST PUSH1 0x40 MLOAD PUSH2 0x30C SWAP2 SWAP1 PUSH2 0x1DBF JUMP JUMPDEST PUSH1 0x40 MLOAD DUP1 SWAP2 SUB SWAP1 RETURN JUMPDEST PUSH2 0x32F PUSH1 0x4 DUP1 CALLDATASIZE SUB DUP2 ADD SWAP1 PUSH2 0x32A SWAP2 SWAP1 PUSH2 0x1858 JUMP JUMPDEST PUSH2 0x1788 JUMP JUMPDEST PUSH1 0x40 MLOAD PUSH2 0x340 SWAP6 SWAP5 SWAP4 SWAP3 SWAP2 SWAP1 PUSH2 0x1CAD JUMP JUMPDEST PUSH1 0x40 MLOAD DUP1 SWAP2 SUB SWAP1 RETURN JUMPDEST PUSH2 0x351 PUSH2 0x17EB JUMP JUMPDEST PUSH1 0x40 MLOAD PUSH2 0x35E SWAP2 SWAP1 PUSH2 0x1DBF JUMP JUMPDEST PUSH1 0x40 MLOAD DUP1 SWAP2 SUB SWAP1 RETURN JUMPDEST PUSH1 0x60 PUSH1 0x8 PUSH1 0x0 CALLER PUSH20 0xFFFFFFFFFFFFFFFFFFFFFFFFFFFFFFFFFFFFFFFF AND PUSH20 0xFFFFFFFFFFFFFFFFFFFFFFFFFFFFFFFFFFFFFFFF AND DUP2 MSTORE PUSH1 0x20 ADD SWAP1 DUP2 MSTORE PUSH1 0x20 ADD PUSH1 0x0 KECCAK256 PUSH1 0x1 ADD DUP1 SLOAD DUP1 PUSH1 0x20 MUL PUSH1 0x20 ADD PUSH1 0x40 MLOAD SWAP1 DUP2 ADD PUSH1 0x40 MSTORE DUP1 SWAP3 SWAP2 SWAP1 DUP2 DUP2 MSTORE PUSH1 0x20 ADD DUP3 DUP1 SLOAD DUP1 ISZERO PUSH2 0x42B JUMPI PUSH1 0x20 MUL DUP3 ADD SWAP2 SWAP1 PUSH1 0x0 MSTORE PUSH1 0x20 PUSH1 0x0 KECCAK256 SWAP1 JUMPDEST DUP2 PUSH1 0x0 SWAP1 SLOAD SWAP1 PUSH2 0x100 EXP SWAP1 DIV PUSH20 0xFFFFFFFFFFFFFFFFFFFFFFFFFFFFFFFFFFFFFFFF AND PUSH20 0xFFFFFFFFFFFFFFFFFFFFFFFFFFFFFFFFFFFFFFFF AND DUP2 MSTORE PUSH1 0x20 ADD SWAP1 PUSH1 0x1 ADD SWAP1 DUP1 DUP4 GT PUSH2 0x3E1 JUMPI JUMPDEST POP POP POP POP POP SWAP1 POP SWAP1 JUMP JUMPDEST PUSH1 0x3 SLOAD DUP2 JUMP JUMPDEST PUSH1 0x0 PUSH1 0x8 PUSH1 0x0 CALLER PUSH20 0xFFFFFFFFFFFFFFFFFFFFFFFFFFFFFFFFFFFFFFFF AND PUSH20 0xFFFFFFFFFFFFFFFFFFFFFFFFFFFFFFFFFFFFFFFF AND DUP2 MSTORE PUSH1 0x20 ADD SWAP1 DUP2 MSTORE PUSH1 0x20 ADD PUSH1 0x0 KECCAK256 PUSH1 0x1 ADD DUP1 SLOAD SWAP1 POP SWAP1 POP SWAP1 JUMP JUMPDEST DUP1 PUSH1 0x4 DUP2 SWAP1 SSTORE POP POP JUMP JUMPDEST PUSH1 0x0 PUSH1 0x5 SLOAD DUP4 LT ISZERO PUSH2 0x4D9 JUMPI PUSH1 0x40 MLOAD PUSH32 0x8C379A000000000000000000000000000000000000000000000000000000000 DUP2 MSTORE PUSH1 0x4 ADD PUSH2 0x4D0 SWAP1 PUSH2 0x1D5F JUMP JUMPDEST PUSH1 0x40 MLOAD DUP1 SWAP2 SUB SWAP1 REVERT JUMPDEST PUSH1 0x0 ISZERO ISZERO PUSH1 0x8 PUSH1 0x0 CALLER PUSH20 0xFFFFFFFFFFFFFFFFFFFFFFFFFFFFFFFFFFFFFFFF AND PUSH20 0xFFFFFFFFFFFFFFFFFFFFFFFFFFFFFFFFFFFFFFFF AND DUP2 MSTORE PUSH1 0x20 ADD SWAP1 DUP2 MSTORE PUSH1 0x20 ADD PUSH1 0x0 KECCAK256 PUSH1 0x6 ADD PUSH1 0x0 SWAP1 SLOAD SWAP1 PUSH2 0x100 EXP SWAP1 DIV PUSH1 0xFF AND ISZERO ISZERO EQ ISZERO PUSH2 0x54E JUMPI PUSH1 0x3 PUSH1 0x0 DUP2 SLOAD DUP1 SWAP3 SWAP2 SWAP1 PUSH2 0x548 SWAP1 PUSH2 0x1FBA JUMP JUMPDEST SWAP2 SWAP1 POP SSTORE POP JUMPDEST PUSH1 0x0 PUSH1 0x8 PUSH1 0x0 CALLER PUSH20 0xFFFFFFFFFFFFFFFFFFFFFFFFFFFFFFFFFFFFFFFF AND PUSH20 0xFFFFFFFFFFFFFFFFFFFFFFFFFFFFFFFFFFFFFFFF AND DUP2 MSTORE PUSH1 0x20 ADD SWAP1 DUP2 MSTORE PUSH1 0x20 ADD PUSH1 0x0 KECCAK256 PUSH1 0x4 ADD SLOAD SWAP1 POP DUP4 PUSH1 0x8 PUSH1 0x0 CALLER PUSH20 0xFFFFFFFFFFFFFFFFFFFFFFFFFFFFFFFFFFFFFFFF AND PUSH20 0xFFFFFFFFFFFFFFFFFFFFFFFFFFFFFFFFFFFFFFFF AND DUP2 MSTORE PUSH1 0x20 ADD SWAP1 DUP2 MSTORE PUSH1 0x20 ADD PUSH1 0x0 KECCAK256 PUSH1 0x0 ADD PUSH1 0x0 DUP4 DUP2 MSTORE PUSH1 0x20 ADD SWAP1 DUP2 MSTORE PUSH1 0x20 ADD PUSH1 0x0 KECCAK256 PUSH1 0x0 ADD DUP2 SWAP1 SSTORE POP TIMESTAMP PUSH1 0x8 PUSH1 0x0 CALLER PUSH20 0xFFFFFFFFFFFFFFFFFFFFFFFFFFFFFFFFFFFFFFFF AND PUSH20 0xFFFFFFFFFFFFFFFFFFFFFFFFFFFFFFFFFFFFFFFF AND DUP2 MSTORE PUSH1 0x20 ADD SWAP1 DUP2 MSTORE PUSH1 0x20 ADD PUSH1 0x0 KECCAK256 PUSH1 0x0 ADD PUSH1 0x0 DUP4 DUP2 MSTORE PUSH1 0x20 ADD SWAP1 DUP2 MSTORE PUSH1 0x20 ADD PUSH1 0x0 KECCAK256 PUSH1 0x2 ADD DUP2 SWAP1 SSTORE POP PUSH1 0x7 SLOAD TIMESTAMP PUSH2 0x659 SWAP2 SWAP1 PUSH2 0x1E5D JUMP JUMPDEST PUSH1 0x8 PUSH1 0x0 CALLER PUSH20 0xFFFFFFFFFFFFFFFFFFFFFFFFFFFFFFFFFFFFFFFF AND PUSH20 0xFFFFFFFFFFFFFFFFFFFFFFFFFFFFFFFFFFFFFFFF AND DUP2 MSTORE PUSH1 0x20 ADD SWAP1 DUP2 MSTORE PUSH1 0x20 ADD PUSH1 0x0 KECCAK256 PUSH1 0x0 ADD PUSH1 0x0 DUP4 DUP2 MSTORE PUSH1 0x20 ADD SWAP1 DUP2 MSTORE PUSH1 0x20 ADD PUSH1 0x0 KECCAK256 PUSH1 0x1 ADD DUP2 SWAP1 SSTORE POP DUP1 PUSH1 0x8 PUSH1 0x0 CALLER PUSH20 0xFFFFFFFFFFFFFFFFFFFFFFFFFFFFFFFFFFFFFFFF AND PUSH20 0xFFFFFFFFFFFFFFFFFFFFFFFFFFFFFFFFFFFFFFFF AND DUP2 MSTORE PUSH1 0x20 ADD SWAP1 DUP2 MSTORE PUSH1 0x20 ADD PUSH1 0x0 KECCAK256 PUSH1 0x0 ADD PUSH1 0x0 DUP4 DUP2 MSTORE PUSH1 0x20 ADD SWAP1 DUP2 MSTORE PUSH1 0x20 ADD PUSH1 0x0 KECCAK256 PUSH1 0x3 ADD DUP2 SWAP1 SSTORE POP DUP4 PUSH1 0x8 PUSH1 0x0 CALLER PUSH20 0xFFFFFFFFFFFFFFFFFFFFFFFFFFFFFFFFFFFFFFFF AND PUSH20 0xFFFFFFFFFFFFFFFFFFFFFFFFFFFFFFFFFFFFFFFF AND DUP2 MSTORE PUSH1 0x20 ADD SWAP1 DUP2 MSTORE PUSH1 0x20 ADD PUSH1 0x0 KECCAK256 PUSH1 0x5 ADD PUSH1 0x0 DUP3 DUP3 SLOAD PUSH2 0x760 SWAP2 SWAP1 PUSH2 0x1E5D JUMP JUMPDEST SWAP3 POP POP DUP2 SWAP1 SSTORE POP PUSH1 0x1 PUSH1 0x8 PUSH1 0x0 CALLER PUSH20 0xFFFFFFFFFFFFFFFFFFFFFFFFFFFFFFFFFFFFFFFF AND PUSH20 0xFFFFFFFFFFFFFFFFFFFFFFFFFFFFFFFFFFFFFFFF AND DUP2 MSTORE PUSH1 0x20 ADD SWAP1 DUP2 MSTORE PUSH1 0x20 ADD PUSH1 0x0 KECCAK256 PUSH1 0x6 ADD PUSH1 0x0 PUSH2 0x100 EXP DUP2 SLOAD DUP2 PUSH1 0xFF MUL NOT AND SWAP1 DUP4 ISZERO ISZERO MUL OR SWAP1 SSTORE POP PUSH1 0x8 PUSH1 0x0 CALLER PUSH20 0xFFFFFFFFFFFFFFFFFFFFFFFFFFFFFFFFFFFFFFFF AND PUSH20 0xFFFFFFFFFFFFFFFFFFFFFFFFFFFFFFFFFFFFFFFF AND DUP2 MSTORE PUSH1 0x20 ADD SWAP1 DUP2 MSTORE PUSH1 0x20 ADD PUSH1 0x0 KECCAK256 PUSH1 0x4 ADD PUSH1 0x0 DUP2 SLOAD DUP1 SWAP3 SWAP2 SWAP1 PUSH2 0x815 SWAP1 PUSH2 0x1FBA JUMP JUMPDEST SWAP2 SWAP1 POP SSTORE POP PUSH1 0x2 PUSH1 0x0 SWAP1 SLOAD SWAP1 PUSH2 0x100 EXP SWAP1 DIV PUSH20 0xFFFFFFFFFFFFFFFFFFFFFFFFFFFFFFFFFFFFFFFF AND PUSH20 0xFFFFFFFFFFFFFFFFFFFFFFFFFFFFFFFFFFFFFFFF AND PUSH4 0x23B872DD CALLER ADDRESS DUP8 PUSH1 0x40 MLOAD DUP5 PUSH4 0xFFFFFFFF AND PUSH1 0xE0 SHL DUP2 MSTORE PUSH1 0x4 ADD PUSH2 0x879 SWAP4 SWAP3 SWAP2 SWAP1 PUSH2 0x1C4D JUMP JUMPDEST PUSH1 0x20 PUSH1 0x40 MLOAD DUP1 DUP4 SUB DUP2 PUSH1 0x0 DUP8 DUP1 EXTCODESIZE ISZERO DUP1 ISZERO PUSH2 0x893 JUMPI PUSH1 0x0 DUP1 REVERT JUMPDEST POP GAS CALL ISZERO DUP1 ISZERO PUSH2 0x8A7 JUMPI RETURNDATASIZE PUSH1 0x0 DUP1 RETURNDATACOPY RETURNDATASIZE PUSH1 0x0 REVERT JUMPDEST POP POP POP POP PUSH1 0x40 MLOAD RETURNDATASIZE PUSH1 0x1F NOT PUSH1 0x1F DUP3 ADD AND DUP3 ADD DUP1 PUSH1 0x40 MSTORE POP DUP2 ADD SWAP1 PUSH2 0x8CB SWAP2 SWAP1 PUSH2 0x18BD JUMP JUMPDEST POP PUSH1 0x0 PUSH20 0xFFFFFFFFFFFFFFFFFFFFFFFFFFFFFFFFFFFFFFFF AND DUP4 PUSH20 0xFFFFFFFFFFFFFFFFFFFFFFFFFFFFFFFFFFFFFFFF AND EQ ISZERO PUSH2 0x988 JUMPI PUSH1 0x0 PUSH1 0x8 PUSH1 0x0 CALLER PUSH20 0xFFFFFFFFFFFFFFFFFFFFFFFFFFFFFFFFFFFFFFFF AND PUSH20 0xFFFFFFFFFFFFFFFFFFFFFFFFFFFFFFFFFFFFFFFF AND DUP2 MSTORE PUSH1 0x20 ADD SWAP1 DUP2 MSTORE PUSH1 0x20 ADD PUSH1 0x0 KECCAK256 PUSH1 0x2 ADD PUSH1 0x0 PUSH2 0x100 EXP DUP2 SLOAD DUP2 PUSH20 0xFFFFFFFFFFFFFFFFFFFFFFFFFFFFFFFFFFFFFFFF MUL NOT AND SWAP1 DUP4 PUSH20 0xFFFFFFFFFFFFFFFFFFFFFFFFFFFFFFFFFFFFFFFF AND MUL OR SWAP1 SSTORE POP PUSH2 0xAB7 JUMP JUMPDEST DUP3 PUSH1 0x8 PUSH1 0x0 CALLER PUSH20 0xFFFFFFFFFFFFFFFFFFFFFFFFFFFFFFFFFFFFFFFF AND PUSH20 0xFFFFFFFFFFFFFFFFFFFFFFFFFFFFFFFFFFFFFFFF AND DUP2 MSTORE PUSH1 0x20 ADD SWAP1 DUP2 MSTORE PUSH1 0x20 ADD PUSH1 0x0 KECCAK256 PUSH1 0x2 ADD PUSH1 0x0 PUSH2 0x100 EXP DUP2 SLOAD DUP2 PUSH20 0xFFFFFFFFFFFFFFFFFFFFFFFFFFFFFFFFFFFFFFFF MUL NOT AND SWAP1 DUP4 PUSH20 0xFFFFFFFFFFFFFFFFFFFFFFFFFFFFFFFFFFFFFFFF AND MUL OR SWAP1 SSTORE POP PUSH1 0x8 PUSH1 0x0 DUP5 PUSH20 0xFFFFFFFFFFFFFFFFFFFFFFFFFFFFFFFFFFFFFFFF AND PUSH20 0xFFFFFFFFFFFFFFFFFFFFFFFFFFFFFFFFFFFFFFFF AND DUP2 MSTORE PUSH1 0x20 ADD SWAP1 DUP2 MSTORE PUSH1 0x20 ADD PUSH1 0x0 KECCAK256 PUSH1 0x1 ADD CALLER SWAP1 DUP1 PUSH1 0x1 DUP2 SLOAD ADD DUP1 DUP3 SSTORE DUP1 SWAP2 POP POP PUSH1 0x1 SWAP1 SUB SWAP1 PUSH1 0x0 MSTORE PUSH1 0x20 PUSH1 0x0 KECCAK256 ADD PUSH1 0x0 SWAP1 SWAP2 SWAP1 SWAP2 SWAP1 SWAP2 PUSH2 0x100 EXP DUP2 SLOAD DUP2 PUSH20 0xFFFFFFFFFFFFFFFFFFFFFFFFFFFFFFFFFFFFFFFF MUL NOT AND SWAP1 DUP4 PUSH20 0xFFFFFFFFFFFFFFFFFFFFFFFFFFFFFFFFFFFFFFFF AND MUL OR SWAP1 SSTORE POP PUSH2 0xAB6 CALLER DUP6 PUSH2 0x1230 JUMP JUMPDEST JUMPDEST PUSH1 0x1 SWAP2 POP POP SWAP3 SWAP2 POP POP JUMP JUMPDEST DUP1 PUSH1 0x5 DUP2 SWAP1 SSTORE POP POP JUMP JUMPDEST PUSH1 0x60 PUSH1 0x0 PUSH1 0x8 PUSH1 0x0 CALLER PUSH20 0xFFFFFFFFFFFFFFFFFFFFFFFFFFFFFFFFFFFFFFFF AND PUSH20 0xFFFFFFFFFFFFFFFFFFFFFFFFFFFFFFFFFFFFFFFF AND DUP2 MSTORE PUSH1 0x20 ADD SWAP1 DUP2 MSTORE PUSH1 0x20 ADD PUSH1 0x0 KECCAK256 PUSH1 0x4 ADD SLOAD SWAP1 POP PUSH1 0x0 DUP1 PUSH1 0x0 JUMPDEST DUP4 DUP2 LT ISZERO PUSH2 0xBA4 JUMPI PUSH1 0x0 PUSH1 0x8 PUSH1 0x0 CALLER PUSH20 0xFFFFFFFFFFFFFFFFFFFFFFFFFFFFFFFFFFFFFFFF AND PUSH20 0xFFFFFFFFFFFFFFFFFFFFFFFFFFFFFFFFFFFFFFFF AND DUP2 MSTORE PUSH1 0x20 ADD SWAP1 DUP2 MSTORE PUSH1 0x20 ADD PUSH1 0x0 KECCAK256 PUSH1 0x0 ADD PUSH1 0x0 DUP4 DUP2 MSTORE PUSH1 0x20 ADD SWAP1 DUP2 MSTORE PUSH1 0x20 ADD PUSH1 0x0 KECCAK256 PUSH1 0x0 ADD SLOAD GT ISZERO PUSH2 0xB91 JUMPI DUP3 DUP1 PUSH2 0xB8D SWAP1 PUSH2 0x1FBA JUMP JUMPDEST SWAP4 POP POP JUMPDEST DUP1 DUP1 PUSH2 0xB9C SWAP1 PUSH2 0x1FBA JUMP JUMPDEST SWAP2 POP POP PUSH2 0xB1B JUMP JUMPDEST POP PUSH1 0x0 DUP3 PUSH8 0xFFFFFFFFFFFFFFFF DUP2 GT ISZERO PUSH2 0xBE7 JUMPI PUSH32 0x4E487B7100000000000000000000000000000000000000000000000000000000 PUSH1 0x0 MSTORE PUSH1 0x41 PUSH1 0x4 MSTORE PUSH1 0x24 PUSH1 0x0 REVERT JUMPDEST PUSH1 0x40 MLOAD SWAP1 DUP1 DUP3 MSTORE DUP1 PUSH1 0x20 MUL PUSH1 0x20 ADD DUP3 ADD PUSH1 0x40 MSTORE DUP1 ISZERO PUSH2 0xC20 JUMPI DUP2 PUSH1 0x20 ADD JUMPDEST PUSH2 0xC0D PUSH2 0x17F1 JUMP JUMPDEST DUP2 MSTORE PUSH1 0x20 ADD SWAP1 PUSH1 0x1 SWAP1 SUB SWAP1 DUP2 PUSH2 0xC05 JUMPI SWAP1 POP JUMPDEST POP SWAP1 POP PUSH1 0x0 JUMPDEST DUP5 DUP2 LT ISZERO PUSH2 0xD79 JUMPI PUSH1 0x0 PUSH1 0x8 PUSH1 0x0 CALLER PUSH20 0xFFFFFFFFFFFFFFFFFFFFFFFFFFFFFFFFFFFFFFFF AND PUSH20 0xFFFFFFFFFFFFFFFFFFFFFFFFFFFFFFFFFFFFFFFF AND DUP2 MSTORE PUSH1 0x20 ADD SWAP1 DUP2 MSTORE PUSH1 0x20 ADD PUSH1 0x0 KECCAK256 PUSH1 0x0 ADD PUSH1 0x0 DUP4 DUP2 MSTORE PUSH1 0x20 ADD SWAP1 DUP2 MSTORE PUSH1 0x20 ADD PUSH1 0x0 KECCAK256 PUSH1 0x0 ADD SLOAD GT ISZERO PUSH2 0xD66 JUMPI PUSH1 0x8 PUSH1 0x0 CALLER PUSH20 0xFFFFFFFFFFFFFFFFFFFFFFFFFFFFFFFFFFFFFFFF AND PUSH20 0xFFFFFFFFFFFFFFFFFFFFFFFFFFFFFFFFFFFFFFFF AND DUP2 MSTORE PUSH1 0x20 ADD SWAP1 DUP2 MSTORE PUSH1 0x20 ADD PUSH1 0x0 KECCAK256 PUSH1 0x0 ADD PUSH1 0x0 DUP3 DUP2 MSTORE PUSH1 0x20 ADD SWAP1 DUP2 MSTORE PUSH1 0x20 ADD PUSH1 0x0 KECCAK256 PUSH1 0x40 MLOAD DUP1 PUSH1 0x80 ADD PUSH1 0x40 MSTORE SWAP1 DUP2 PUSH1 0x0 DUP3 ADD SLOAD DUP2 MSTORE PUSH1 0x20 ADD PUSH1 0x1 DUP3 ADD SLOAD DUP2 MSTORE PUSH1 0x20 ADD PUSH1 0x2 DUP3 ADD SLOAD DUP2 MSTORE PUSH1 0x20 ADD PUSH1 0x3 DUP3 ADD SLOAD DUP2 MSTORE POP POP DUP3 DUP5 DUP2 MLOAD DUP2 LT PUSH2 0xD4C JUMPI PUSH32 0x4E487B7100000000000000000000000000000000000000000000000000000000 PUSH1 0x0 MSTORE PUSH1 0x32 PUSH1 0x4 MSTORE PUSH1 0x24 PUSH1 0x0 REVERT JUMPDEST PUSH1 0x20 MUL PUSH1 0x20 ADD ADD DUP2 SWAP1 MSTORE POP DUP3 DUP1 PUSH2 0xD62 SWAP1 PUSH2 0x1FBA JUMP JUMPDEST SWAP4 POP POP JUMPDEST DUP1 DUP1 PUSH2 0xD71 SWAP1 PUSH2 0x1FBA JUMP JUMPDEST SWAP2 POP POP PUSH2 0xC26 JUMP JUMPDEST POP DUP1 SWAP5 POP POP POP POP POP SWAP1 JUMP JUMPDEST PUSH1 0x0 DUP1 PUSH1 0x0 DUP1 PUSH1 0x8 PUSH1 0x0 CALLER PUSH20 0xFFFFFFFFFFFFFFFFFFFFFFFFFFFFFFFFFFFFFFFF AND PUSH20 0xFFFFFFFFFFFFFFFFFFFFFFFFFFFFFFFFFFFFFFFF AND DUP2 MSTORE PUSH1 0x20 ADD SWAP1 DUP2 MSTORE PUSH1 0x20 ADD PUSH1 0x0 KECCAK256 PUSH1 0x4 ADD SLOAD SWAP1 POP PUSH1 0x0 JUMPDEST DUP2 DUP2 LT ISZERO PUSH2 0xE7A JUMPI PUSH1 0x8 PUSH1 0x0 CALLER PUSH20 0xFFFFFFFFFFFFFFFFFFFFFFFFFFFFFFFFFFFFFFFF AND PUSH20 0xFFFFFFFFFFFFFFFFFFFFFFFFFFFFFFFFFFFFFFFF AND DUP2 MSTORE PUSH1 0x20 ADD SWAP1 DUP2 MSTORE PUSH1 0x20 ADD PUSH1 0x0 KECCAK256 PUSH1 0x0 ADD PUSH1 0x0 DUP3 DUP2 MSTORE PUSH1 0x20 ADD SWAP1 DUP2 MSTORE PUSH1 0x20 ADD PUSH1 0x0 KECCAK256 PUSH1 0x2 ADD SLOAD TIMESTAMP PUSH2 0xE3C SWAP2 SWAP1 PUSH2 0x1F3E JUMP JUMPDEST SWAP3 POP PUSH1 0x3C DUP4 PUSH2 0xE4B SWAP2 SWAP1 PUSH2 0x1EB3 JUMP JUMPDEST SWAP3 POP PUSH1 0x0 DUP4 GT ISZERO PUSH2 0xE67 JUMPI PUSH1 0x4 SLOAD DUP4 PUSH2 0xE64 SWAP2 SWAP1 PUSH2 0x1EE4 JUMP JUMPDEST SWAP4 POP JUMPDEST DUP1 DUP1 PUSH2 0xE72 SWAP1 PUSH2 0x1FBA JUMP JUMPDEST SWAP2 POP POP PUSH2 0xDD2 JUMP JUMPDEST POP DUP3 SWAP4 POP POP POP POP SWAP1 JUMP JUMPDEST DUP1 PUSH1 0x6 DUP2 SWAP1 SSTORE POP POP JUMP JUMPDEST PUSH1 0x0 DUP1 PUSH1 0x8 PUSH1 0x0 CALLER PUSH20 0xFFFFFFFFFFFFFFFFFFFFFFFFFFFFFFFFFFFFFFFF AND PUSH20 0xFFFFFFFFFFFFFFFFFFFFFFFFFFFFFFFFFFFFFFFF AND DUP2 MSTORE PUSH1 0x20 ADD SWAP1 DUP2 MSTORE PUSH1 0x20 ADD PUSH1 0x0 KECCAK256 PUSH1 0x0 ADD PUSH1 0x0 DUP5 DUP2 MSTORE PUSH1 0x20 ADD SWAP1 DUP2 MSTORE PUSH1 0x20 ADD PUSH1 0x0 KECCAK256 PUSH1 0x0 ADD SLOAD GT PUSH2 0xF28 JUMPI PUSH1 0x40 MLOAD PUSH32 0x8C379A000000000000000000000000000000000000000000000000000000000 DUP2 MSTORE PUSH1 0x4 ADD PUSH2 0xF1F SWAP1 PUSH2 0x1D7F JUMP JUMPDEST PUSH1 0x40 MLOAD DUP1 SWAP2 SUB SWAP1 REVERT JUMPDEST PUSH1 0x0 PUSH1 0x8 PUSH1 0x0 CALLER PUSH20 0xFFFFFFFFFFFFFFFFFFFFFFFFFFFFFFFFFFFFFFFF AND PUSH20 0xFFFFFFFFFFFFFFFFFFFFFFFFFFFFFFFFFFFFFFFF AND DUP2 MSTORE PUSH1 0x20 ADD SWAP1 DUP2 MSTORE PUSH1 0x20 ADD PUSH1 0x0 KECCAK256 PUSH1 0x0 ADD PUSH1 0x0 DUP5 DUP2 MSTORE PUSH1 0x20 ADD SWAP1 DUP2 MSTORE PUSH1 0x20 ADD PUSH1 0x0 KECCAK256 PUSH1 0x0 ADD SLOAD SWAP1 POP TIMESTAMP PUSH1 0x8 PUSH1 0x0 CALLER PUSH20 0xFFFFFFFFFFFFFFFFFFFFFFFFFFFFFFFFFFFFFFFF AND PUSH20 0xFFFFFFFFFFFFFFFFFFFFFFFFFFFFFFFFFFFFFFFF AND DUP2 MSTORE PUSH1 0x20 ADD SWAP1 DUP2 MSTORE PUSH1 0x20 ADD PUSH1 0x0 KECCAK256 PUSH1 0x0 ADD PUSH1 0x0 DUP6 DUP2 MSTORE PUSH1 0x20 ADD SWAP1 DUP2 MSTORE PUSH1 0x20 ADD PUSH1 0x0 KECCAK256 PUSH1 0x1 ADD SLOAD GT ISZERO PUSH2 0xFF1 JUMPI PUSH1 0x2 DUP2 PUSH2 0xFEE SWAP2 SWAP1 PUSH2 0x1EB3 JUMP JUMPDEST SWAP1 POP JUMPDEST PUSH1 0x2 PUSH1 0x0 SWAP1 SLOAD SWAP1 PUSH2 0x100 EXP SWAP1 DIV PUSH20 0xFFFFFFFFFFFFFFFFFFFFFFFFFFFFFFFFFFFFFFFF AND PUSH20 0xFFFFFFFFFFFFFFFFFFFFFFFFFFFFFFFFFFFFFFFF AND PUSH4 0xA9059CBB CALLER DUP4 PUSH1 0x40 MLOAD DUP4 PUSH4 0xFFFFFFFF AND PUSH1 0xE0 SHL DUP2 MSTORE PUSH1 0x4 ADD PUSH2 0x104E SWAP3 SWAP2 SWAP1 PUSH2 0x1C84 JUMP JUMPDEST PUSH1 0x20 PUSH1 0x40 MLOAD DUP1 DUP4 SUB DUP2 PUSH1 0x0 DUP8 DUP1 EXTCODESIZE ISZERO DUP1 ISZERO PUSH2 0x1068 JUMPI PUSH1 0x0 DUP1 REVERT JUMPDEST POP GAS CALL ISZERO DUP1 ISZERO PUSH2 0x107C JUMPI RETURNDATASIZE PUSH1 0x0 DUP1 RETURNDATACOPY RETURNDATASIZE PUSH1 0x0 REVERT JUMPDEST POP POP POP POP PUSH1 0x40 MLOAD RETURNDATASIZE PUSH1 0x1F NOT PUSH1 0x1F DUP3 ADD AND DUP3 ADD DUP1 PUSH1 0x40 MSTORE POP DUP2 ADD SWAP1 PUSH2 0x10A0 SWAP2 SWAP1 PUSH2 0x18BD JUMP JUMPDEST POP PUSH1 0x2 PUSH1 0x0 SWAP1 SLOAD SWAP1 PUSH2 0x100 EXP SWAP1 DIV PUSH20 0xFFFFFFFFFFFFFFFFFFFFFFFFFFFFFFFFFFFFFFFF AND PUSH20 0xFFFFFFFFFFFFFFFFFFFFFFFFFFFFFFFFFFFFFFFF AND PUSH4 0xA9059CBB PUSH1 0x0 DUP1 SLOAD SWAP1 PUSH2 0x100 EXP SWAP1 DIV PUSH20 0xFFFFFFFFFFFFFFFFFFFFFFFFFFFFFFFFFFFFFFFF AND DUP4 PUSH1 0x40 MLOAD DUP4 PUSH4 0xFFFFFFFF AND PUSH1 0xE0 SHL DUP2 MSTORE PUSH1 0x4 ADD PUSH2 0x111E SWAP3 SWAP2 SWAP1 PUSH2 0x1C84 JUMP JUMPDEST PUSH1 0x20 PUSH1 0x40 MLOAD DUP1 DUP4 SUB DUP2 PUSH1 0x0 DUP8 DUP1 EXTCODESIZE ISZERO DUP1 ISZERO PUSH2 0x1138 JUMPI PUSH1 0x0 DUP1 REVERT JUMPDEST POP GAS CALL ISZERO DUP1 ISZERO PUSH2 0x114C JUMPI RETURNDATASIZE PUSH1 0x0 DUP1 RETURNDATACOPY RETURNDATASIZE PUSH1 0x0 REVERT JUMPDEST POP POP POP POP PUSH1 0x40 MLOAD RETURNDATASIZE PUSH1 0x1F NOT PUSH1 0x1F DUP3 ADD AND DUP3 ADD DUP1 PUSH1 0x40 MSTORE POP DUP2 ADD SWAP1 PUSH2 0x1170 SWAP2 SWAP1 PUSH2 0x18BD JUMP JUMPDEST POP PUSH1 0x0 PUSH1 0x8 PUSH1 0x0 CALLER PUSH20 0xFFFFFFFFFFFFFFFFFFFFFFFFFFFFFFFFFFFFFFFF AND PUSH20 0xFFFFFFFFFFFFFFFFFFFFFFFFFFFFFFFFFFFFFFFF AND DUP2 MSTORE PUSH1 0x20 ADD SWAP1 DUP2 MSTORE PUSH1 0x20 ADD PUSH1 0x0 KECCAK256 PUSH1 0x0 ADD PUSH1 0x0 DUP6 DUP2 MSTORE PUSH1 0x20 ADD SWAP1 DUP2 MSTORE PUSH1 0x20 ADD PUSH1 0x0 KECCAK256 PUSH1 0x0 ADD DUP2 SWAP1 SSTORE POP DUP1 PUSH1 0x8 PUSH1 0x0 CALLER PUSH20 0xFFFFFFFFFFFFFFFFFFFFFFFFFFFFFFFFFFFFFFFF AND PUSH20 0xFFFFFFFFFFFFFFFFFFFFFFFFFFFFFFFFFFFFFFFF AND DUP2 MSTORE PUSH1 0x20 ADD SWAP1 DUP2 MSTORE PUSH1 0x20 ADD PUSH1 0x0 KECCAK256 PUSH1 0x5 ADD PUSH1 0x0 DUP3 DUP3 SLOAD PUSH2 0x121F SWAP2 SWAP1 PUSH2 0x1F3E JUMP JUMPDEST SWAP3 POP POP DUP2 SWAP1 SSTORE POP PUSH1 0x1 SWAP2 POP POP SWAP2 SWAP1 POP JUMP JUMPDEST PUSH1 0x0 DUP3 SWAP1 POP PUSH1 0x0 PUSH1 0x4 PUSH8 0xFFFFFFFFFFFFFFFF DUP2 GT ISZERO PUSH2 0x1278 JUMPI PUSH32 0x4E487B7100000000000000000000000000000000000000000000000000000000 PUSH1 0x0 MSTORE PUSH1 0x41 PUSH1 0x4 MSTORE PUSH1 0x24 PUSH1 0x0 REVERT JUMPDEST PUSH1 0x40 MLOAD SWAP1 DUP1 DUP3 MSTORE DUP1 PUSH1 0x20 MUL PUSH1 0x20 ADD DUP3 ADD PUSH1 0x40 MSTORE DUP1 ISZERO PUSH2 0x12A6 JUMPI DUP2 PUSH1 0x20 ADD PUSH1 0x20 DUP3 MUL DUP1 CALLDATASIZE DUP4 CALLDATACOPY DUP1 DUP3 ADD SWAP2 POP POP SWAP1 POP JUMPDEST POP SWAP1 POP PUSH1 0x5 DUP2 PUSH1 0x0 DUP2 MLOAD DUP2 LT PUSH2 0x12E5 JUMPI PUSH32 0x4E487B7100000000000000000000000000000000000000000000000000000000 PUSH1 0x0 MSTORE PUSH1 0x32 PUSH1 0x4 MSTORE PUSH1 0x24 PUSH1 0x0 REVERT JUMPDEST PUSH1 0x20 MUL PUSH1 0x20 ADD ADD DUP2 DUP2 MSTORE POP POP PUSH1 0x3 DUP2 PUSH1 0x1 DUP2 MLOAD DUP2 LT PUSH2 0x132D JUMPI PUSH32 0x4E487B7100000000000000000000000000000000000000000000000000000000 PUSH1 0x0 MSTORE PUSH1 0x32 PUSH1 0x4 MSTORE PUSH1 0x24 PUSH1 0x0 REVERT JUMPDEST PUSH1 0x20 MUL PUSH1 0x20 ADD ADD DUP2 DUP2 MSTORE POP POP PUSH1 0x2 DUP2 PUSH1 0x2 DUP2 MLOAD DUP2 LT PUSH2 0x1375 JUMPI PUSH32 0x4E487B7100000000000000000000000000000000000000000000000000000000 PUSH1 0x0 MSTORE PUSH1 0x32 PUSH1 0x4 MSTORE PUSH1 0x24 PUSH1 0x0 REVERT JUMPDEST PUSH1 0x20 MUL PUSH1 0x20 ADD ADD DUP2 DUP2 MSTORE POP POP PUSH1 0x1 DUP2 PUSH1 0x3 DUP2 MLOAD DUP2 LT PUSH2 0x13BD JUMPI PUSH32 0x4E487B7100000000000000000000000000000000000000000000000000000000 PUSH1 0x0 MSTORE PUSH1 0x32 PUSH1 0x4 MSTORE PUSH1 0x24 PUSH1 0x0 REVERT JUMPDEST PUSH1 0x20 MUL PUSH1 0x20 ADD ADD DUP2 DUP2 MSTORE POP POP PUSH1 0x5 DUP2 PUSH1 0x4 DUP2 MLOAD DUP2 LT PUSH2 0x1405 JUMPI PUSH32 0x4E487B7100000000000000000000000000000000000000000000000000000000 PUSH1 0x0 MSTORE PUSH1 0x32 PUSH1 0x4 MSTORE PUSH1 0x24 PUSH1 0x0 REVERT JUMPDEST PUSH1 0x20 MUL PUSH1 0x20 ADD ADD DUP2 DUP2 MSTORE POP POP PUSH1 0x0 DUP1 PUSH1 0x0 SWAP1 POP JUMPDEST PUSH1 0x14 DUP2 LT ISZERO PUSH2 0x15EA JUMPI PUSH1 0x0 PUSH20 0xFFFFFFFFFFFFFFFFFFFFFFFFFFFFFFFFFFFFFFFF AND PUSH1 0x8 PUSH1 0x0 DUP7 PUSH20 0xFFFFFFFFFFFFFFFFFFFFFFFFFFFFFFFFFFFFFFFF AND PUSH20 0xFFFFFFFFFFFFFFFFFFFFFFFFFFFFFFFFFFFFFFFF AND DUP2 MSTORE PUSH1 0x20 ADD SWAP1 DUP2 MSTORE PUSH1 0x20 ADD PUSH1 0x0 KECCAK256 PUSH1 0x2 ADD PUSH1 0x0 SWAP1 SLOAD SWAP1 PUSH2 0x100 EXP SWAP1 DIV PUSH20 0xFFFFFFFFFFFFFFFFFFFFFFFFFFFFFFFFFFFFFFFF AND PUSH20 0xFFFFFFFFFFFFFFFFFFFFFFFFFFFFFFFFFFFFFFFF AND EQ PUSH2 0x15D2 JUMPI PUSH1 0x8 PUSH1 0x0 DUP6 PUSH20 0xFFFFFFFFFFFFFFFFFFFFFFFFFFFFFFFFFFFFFFFF AND PUSH20 0xFFFFFFFFFFFFFFFFFFFFFFFFFFFFFFFFFFFFFFFF AND DUP2 MSTORE PUSH1 0x20 ADD SWAP1 DUP2 MSTORE PUSH1 0x20 ADD PUSH1 0x0 KECCAK256 PUSH1 0x2 ADD PUSH1 0x0 SWAP1 SLOAD SWAP1 PUSH2 0x100 EXP SWAP1 DIV PUSH20 0xFFFFFFFFFFFFFFFFFFFFFFFFFFFFFFFFFFFFFFFF AND SWAP4 POP PUSH1 0x64 DUP6 DUP5 DUP4 DUP2 MLOAD DUP2 LT PUSH2 0x1559 JUMPI PUSH32 0x4E487B7100000000000000000000000000000000000000000000000000000000 PUSH1 0x0 MSTORE PUSH1 0x32 PUSH1 0x4 MSTORE PUSH1 0x24 PUSH1 0x0 REVERT JUMPDEST PUSH1 0x20 MUL PUSH1 0x20 ADD ADD MLOAD PUSH2 0x156B SWAP2 SWAP1 PUSH2 0x1EE4 JUMP JUMPDEST PUSH2 0x1575 SWAP2 SWAP1 PUSH2 0x1EB3 JUMP JUMPDEST PUSH1 0x8 PUSH1 0x0 DUP7 PUSH20 0xFFFFFFFFFFFFFFFFFFFFFFFFFFFFFFFFFFFFFFFF AND PUSH20 0xFFFFFFFFFFFFFFFFFFFFFFFFFFFFFFFFFFFFFFFF AND DUP2 MSTORE PUSH1 0x20 ADD SWAP1 DUP2 MSTORE PUSH1 0x20 ADD PUSH1 0x0 KECCAK256 PUSH1 0x3 ADD PUSH1 0x0 DUP3 DUP3 SLOAD PUSH2 0x15C6 SWAP2 SWAP1 PUSH2 0x1E5D JUMP JUMPDEST SWAP3 POP POP DUP2 SWAP1 SSTORE POP PUSH2 0x15D7 JUMP JUMPDEST PUSH2 0x15EA JUMP JUMPDEST DUP1 DUP1 PUSH2 0x15E2 SWAP1 PUSH2 0x1FBA JUMP JUMPDEST SWAP2 POP POP PUSH2 0x1419 JUMP JUMPDEST POP POP POP POP POP POP JUMP JUMPDEST PUSH1 0x0 DUP1 SLOAD SWAP1 PUSH2 0x100 EXP SWAP1 DIV PUSH20 0xFFFFFFFFFFFFFFFFFFFFFFFFFFFFFFFFFFFFFFFF AND DUP2 JUMP JUMPDEST PUSH1 0x0 PUSH1 0x8 PUSH1 0x0 CALLER PUSH20 0xFFFFFFFFFFFFFFFFFFFFFFFFFFFFFFFFFFFFFFFF AND PUSH20 0xFFFFFFFFFFFFFFFFFFFFFFFFFFFFFFFFFFFFFFFF AND DUP2 MSTORE PUSH1 0x20 ADD SWAP1 DUP2 MSTORE PUSH1 0x20 ADD PUSH1 0x0 KECCAK256 PUSH1 0x5 ADD SLOAD SWAP1 POP SWAP1 JUMP JUMPDEST PUSH1 0x0 DUP1 PUSH2 0x166B PUSH2 0xD84 JUMP JUMPDEST SWAP1 POP PUSH1 0x0 DUP2 GT PUSH2 0x16B0 JUMPI PUSH1 0x40 MLOAD PUSH32 0x8C379A000000000000000000000000000000000000000000000000000000000 DUP2 MSTORE PUSH1 0x4 ADD PUSH2 0x16A7 SWAP1 PUSH2 0x1D9F JUMP JUMPDEST PUSH1 0x40 MLOAD DUP1 SWAP2 SUB SWAP1 REVERT JUMPDEST PUSH1 0x2 PUSH1 0x0 SWAP1 SLOAD SWAP1 PUSH2 0x100 EXP SWAP1 DIV PUSH20 0xFFFFFFFFFFFFFFFFFFFFFFFFFFFFFFFFFFFFFFFF AND PUSH20 0xFFFFFFFFFFFFFFFFFFFFFFFFFFFFFFFFFFFFFFFF AND PUSH4 0xA9059CBB CALLER DUP4 PUSH1 0x40 MLOAD DUP4 PUSH4 0xFFFFFFFF AND PUSH1 0xE0 SHL DUP2 MSTORE PUSH1 0x4 ADD PUSH2 0x170D SWAP3 SWAP2 SWAP1 PUSH2 0x1C84 JUMP JUMPDEST PUSH1 0x20 PUSH1 0x40 MLOAD DUP1 DUP4 SUB DUP2 PUSH1 0x0 DUP8 DUP1 EXTCODESIZE ISZERO DUP1 ISZERO PUSH2 0x1727 JUMPI PUSH1 0x0 DUP1 REVERT JUMPDEST POP GAS CALL ISZERO DUP1 ISZERO PUSH2 0x173B JUMPI RETURNDATASIZE PUSH1 0x0 DUP1 RETURNDATACOPY RETURNDATASIZE PUSH1 0x0 REVERT JUMPDEST POP POP POP POP PUSH1 0x40 MLOAD RETURNDATASIZE PUSH1 0x1F NOT PUSH1 0x1F DUP3 ADD AND DUP3 ADD DUP1 PUSH1 0x40 MSTORE POP DUP2 ADD SWAP1 PUSH2 0x175F SWAP2 SWAP1 PUSH2 0x18BD JUMP JUMPDEST POP PUSH1 0x1 SWAP2 POP POP SWAP1 JUMP JUMPDEST DUP2 PUSH1 0x6 DUP2 SWAP1 SSTORE POP DUP3 PUSH1 0x5 DUP2 SWAP1 SSTORE POP DUP1 PUSH1 0x4 DUP2 SWAP1 SSTORE POP POP POP POP JUMP JUMPDEST PUSH1 0x1 SLOAD DUP2 JUMP JUMPDEST PUSH1 0x8 PUSH1 0x20 MSTORE DUP1 PUSH1 0x0 MSTORE PUSH1 0x40 PUSH1 0x0 KECCAK256 PUSH1 0x0 SWAP2 POP SWAP1 POP DUP1 PUSH1 0x2 ADD PUSH1 0x0 SWAP1 SLOAD SWAP1 PUSH2 0x100 EXP SWAP1 DIV PUSH20 0xFFFFFFFFFFFFFFFFFFFFFFFFFFFFFFFFFFFFFFFF AND SWAP1 DUP1 PUSH1 0x3 ADD SLOAD SWAP1 DUP1 PUSH1 0x4 ADD SLOAD SWAP1 DUP1 PUSH1 0x5 ADD SLOAD SWAP1 DUP1 PUSH1 0x6 ADD PUSH1 0x0 SWAP1 SLOAD SWAP1 PUSH2 0x100 EXP SWAP1 DIV PUSH1 0xFF AND SWAP1 POP DUP6 JUMP JUMPDEST PUSH1 0x4 SLOAD DUP2 JUMP JUMPDEST PUSH1 0x40 MLOAD DUP1 PUSH1 0x80 ADD PUSH1 0x40 MSTORE DUP1 PUSH1 0x0 DUP2 MSTORE PUSH1 0x20 ADD PUSH1 0x0 DUP2 MSTORE PUSH1 0x20 ADD PUSH1 0x0 DUP2 MSTORE PUSH1 0x20 ADD PUSH1 0x0 DUP2 MSTORE POP SWAP1 JUMP JUMPDEST PUSH1 0x0 DUP2 CALLDATALOAD SWAP1 POP PUSH2 0x1828 DUP2 PUSH2 0x2061 JUMP JUMPDEST SWAP3 SWAP2 POP POP JUMP JUMPDEST PUSH1 0x0 DUP2 MLOAD SWAP1 POP PUSH2 0x183D DUP2 PUSH2 0x2078 JUMP JUMPDEST SWAP3 SWAP2 POP POP JUMP JUMPDEST PUSH1 0x0 DUP2 CALLDATALOAD SWAP1 POP PUSH2 0x1852 DUP2 PUSH2 0x208F JUMP JUMPDEST SWAP3 SWAP2 POP POP JUMP JUMPDEST PUSH1 0x0 PUSH1 0x20 DUP3 DUP5 SUB SLT ISZERO PUSH2 0x186A JUMPI PUSH1 0x0 DUP1 REVERT JUMPDEST PUSH1 0x0 PUSH2 0x1878 DUP5 DUP3 DUP6 ADD PUSH2 0x1819 JUMP JUMPDEST SWAP2 POP POP SWAP3 SWAP2 POP POP JUMP JUMPDEST PUSH1 0x0 DUP1 PUSH1 0x40 DUP4 DUP6 SUB SLT ISZERO PUSH2 0x1894 JUMPI PUSH1 0x0 DUP1 REVERT JUMPDEST PUSH1 0x0 PUSH2 0x18A2 DUP6 DUP3 DUP7 ADD PUSH2 0x1819 JUMP JUMPDEST SWAP3 POP POP PUSH1 0x20 PUSH2 0x18B3 DUP6 DUP3 DUP7 ADD PUSH2 0x1843 JUMP JUMPDEST SWAP2 POP POP SWAP3 POP SWAP3 SWAP1 POP JUMP JUMPDEST PUSH1 0x0 PUSH1 0x20 DUP3 DUP5 SUB SLT ISZERO PUSH2 0x18CF JUMPI PUSH1 0x0 DUP1 REVERT JUMPDEST PUSH1 0x0 PUSH2 0x18DD DUP5 DUP3 DUP6 ADD PUSH2 0x182E JUMP JUMPDEST SWAP2 POP POP SWAP3 SWAP2 POP POP JUMP JUMPDEST PUSH1 0x0 PUSH1 0x20 DUP3 DUP5 SUB SLT ISZERO PUSH2 0x18F8 JUMPI PUSH1 0x0 DUP1 REVERT JUMPDEST PUSH1 0x0 PUSH2 0x1906 DUP5 DUP3 DUP6 ADD PUSH2 0x1843 JUMP JUMPDEST SWAP2 POP POP SWAP3 SWAP2 POP POP JUMP JUMPDEST PUSH1 0x0 DUP1 PUSH1 0x40 DUP4 DUP6 SUB SLT ISZERO PUSH2 0x1922 JUMPI PUSH1 0x0 DUP1 REVERT JUMPDEST PUSH1 0x0 PUSH2 0x1930 DUP6 DUP3 DUP7 ADD PUSH2 0x1843 JUMP JUMPDEST SWAP3 POP POP PUSH1 0x20 PUSH2 0x1941 DUP6 DUP3 DUP7 ADD PUSH2 0x1819 JUMP JUMPDEST SWAP2 POP POP SWAP3 POP SWAP3 SWAP1 POP JUMP JUMPDEST PUSH1 0x0 DUP1 PUSH1 0x0 PUSH1 0x60 DUP5 DUP7 SUB SLT ISZERO PUSH2 0x1960 JUMPI PUSH1 0x0 DUP1 REVERT JUMPDEST PUSH1 0x0 PUSH2 0x196E DUP7 DUP3 DUP8 ADD PUSH2 0x1843 JUMP JUMPDEST SWAP4 POP POP PUSH1 0x20 PUSH2 0x197F DUP7 DUP3 DUP8 ADD PUSH2 0x1843 JUMP JUMPDEST SWAP3 POP POP PUSH1 0x40 PUSH2 0x1990 DUP7 DUP3 DUP8 ADD PUSH2 0x1843 JUMP JUMPDEST SWAP2 POP POP SWAP3 POP SWAP3 POP SWAP3 JUMP JUMPDEST PUSH1 0x0 PUSH2 0x19A6 DUP4 DUP4 PUSH2 0x19CA JUMP JUMPDEST PUSH1 0x20 DUP4 ADD SWAP1 POP SWAP3 SWAP2 POP POP JUMP JUMPDEST PUSH1 0x0 PUSH2 0x19BE DUP4 DUP4 PUSH2 0x1BBF JUMP JUMPDEST PUSH1 0x80 DUP4 ADD SWAP1 POP SWAP3 SWAP2 POP POP JUMP JUMPDEST PUSH2 0x19D3 DUP2 PUSH2 0x1F72 JUMP JUMPDEST DUP3 MSTORE POP POP JUMP JUMPDEST PUSH2 0x19E2 DUP2 PUSH2 0x1F72 JUMP JUMPDEST DUP3 MSTORE POP POP JUMP JUMPDEST PUSH1 0x0 PUSH2 0x19F3 DUP3 PUSH2 0x1DFA JUMP JUMPDEST PUSH2 0x19FD DUP2 DUP6 PUSH2 0x1E2A JUMP JUMPDEST SWAP4 POP PUSH2 0x1A08 DUP4 PUSH2 0x1DDA JUMP JUMPDEST DUP1 PUSH1 0x0 JUMPDEST DUP4 DUP2 LT ISZERO PUSH2 0x1A39 JUMPI DUP2 MLOAD PUSH2 0x1A20 DUP9 DUP3 PUSH2 0x199A JUMP JUMPDEST SWAP8 POP PUSH2 0x1A2B DUP4 PUSH2 0x1E10 JUMP JUMPDEST SWAP3 POP POP PUSH1 0x1 DUP2 ADD SWAP1 POP PUSH2 0x1A0C JUMP JUMPDEST POP DUP6 SWAP4 POP POP POP POP SWAP3 SWAP2 POP POP JUMP JUMPDEST PUSH1 0x0 PUSH2 0x1A51 DUP3 PUSH2 0x1E05 JUMP JUMPDEST PUSH2 0x1A5B DUP2 DUP6 PUSH2 0x1E3B JUMP JUMPDEST SWAP4 POP PUSH2 0x1A66 DUP4 PUSH2 0x1DEA JUMP JUMPDEST DUP1 PUSH1 0x0 JUMPDEST DUP4 DUP2 LT ISZERO PUSH2 0x1A97 JUMPI DUP2 MLOAD PUSH2 0x1A7E DUP9 DUP3 PUSH2 0x19B2 JUMP JUMPDEST SWAP8 POP PUSH2 0x1A89 DUP4 PUSH2 0x1E1D JUMP JUMPDEST SWAP3 POP POP PUSH1 0x1 DUP2 ADD SWAP1 POP PUSH2 0x1A6A JUMP JUMPDEST POP DUP6 SWAP4 POP POP POP POP SWAP3 SWAP2 POP POP JUMP JUMPDEST PUSH2 0x1AAD DUP2 PUSH2 0x1F84 JUMP JUMPDEST DUP3 MSTORE POP POP JUMP JUMPDEST PUSH1 0x0 PUSH2 0x1AC0 PUSH1 0x1B DUP4 PUSH2 0x1E4C JUMP JUMPDEST SWAP2 POP PUSH32 0x76616C7565206973206E6F742067726561746572207468616E20300000000000 PUSH1 0x0 DUP4 ADD MSTORE PUSH1 0x20 DUP3 ADD SWAP1 POP SWAP2 SWAP1 POP JUMP JUMPDEST PUSH1 0x0 PUSH2 0x1B00 PUSH1 0x25 DUP4 PUSH2 0x1E4C JUMP JUMPDEST SWAP2 POP PUSH32 0x796F7520646F6E74206861766520696E766573746D656E7420746F2077697468 PUSH1 0x0 DUP4 ADD MSTORE PUSH32 0x647261776E000000000000000000000000000000000000000000000000000000 PUSH1 0x20 DUP4 ADD MSTORE PUSH1 0x40 DUP3 ADD SWAP1 POP SWAP2 SWAP1 POP JUMP JUMPDEST PUSH1 0x0 PUSH2 0x1B66 PUSH1 0x22 DUP4 PUSH2 0x1E4C JUMP JUMPDEST SWAP2 POP PUSH32 0x796F7520646F6E742068617665207265776172647320746F2077697468647261 PUSH1 0x0 DUP4 ADD MSTORE PUSH32 0x776E000000000000000000000000000000000000000000000000000000000000 PUSH1 0x20 DUP4 ADD MSTORE PUSH1 0x40 DUP3 ADD SWAP1 POP SWAP2 SWAP1 POP JUMP JUMPDEST PUSH1 0x80 DUP3 ADD PUSH1 0x0 DUP3 ADD MLOAD PUSH2 0x1BD5 PUSH1 0x0 DUP6 ADD DUP3 PUSH2 0x1C14 JUMP JUMPDEST POP PUSH1 0x20 DUP3 ADD MLOAD PUSH2 0x1BE8 PUSH1 0x20 DUP6 ADD DUP3 PUSH2 0x1C14 JUMP JUMPDEST POP PUSH1 0x40 DUP3 ADD MLOAD PUSH2 0x1BFB PUSH1 0x40 DUP6 ADD DUP3 PUSH2 0x1C14 JUMP JUMPDEST POP PUSH1 0x60 DUP3 ADD MLOAD PUSH2 0x1C0E PUSH1 0x60 DUP6 ADD DUP3 PUSH2 0x1C14 JUMP JUMPDEST POP POP POP POP JUMP JUMPDEST PUSH2 0x1C1D DUP2 PUSH2 0x1FB0 JUMP JUMPDEST DUP3 MSTORE POP POP JUMP JUMPDEST PUSH2 0x1C2C DUP2 PUSH2 0x1FB0 JUMP JUMPDEST DUP3 MSTORE POP POP JUMP JUMPDEST PUSH1 0x0 PUSH1 0x20 DUP3 ADD SWAP1 POP PUSH2 0x1C47 PUSH1 0x0 DUP4 ADD DUP5 PUSH2 0x19D9 JUMP JUMPDEST SWAP3 SWAP2 POP POP JUMP JUMPDEST PUSH1 0x0 PUSH1 0x60 DUP3 ADD SWAP1 POP PUSH2 0x1C62 PUSH1 0x0 DUP4 ADD DUP7 PUSH2 0x19D9 JUMP JUMPDEST PUSH2 0x1C6F PUSH1 0x20 DUP4 ADD DUP6 PUSH2 0x19D9 JUMP JUMPDEST PUSH2 0x1C7C PUSH1 0x40 DUP4 ADD DUP5 PUSH2 0x1C23 JUMP JUMPDEST SWAP5 SWAP4 POP POP POP POP JUMP JUMPDEST PUSH1 0x0 PUSH1 0x40 DUP3 ADD SWAP1 POP PUSH2 0x1C99 PUSH1 0x0 DUP4 ADD DUP6 PUSH2 0x19D9 JUMP JUMPDEST PUSH2 0x1CA6 PUSH1 0x20 DUP4 ADD DUP5 PUSH2 0x1C23 JUMP JUMPDEST SWAP4 SWAP3 POP POP POP JUMP JUMPDEST PUSH1 0x0 PUSH1 0xA0 DUP3 ADD SWAP1 POP PUSH2 0x1CC2 PUSH1 0x0 DUP4 ADD DUP9 PUSH2 0x19D9 JUMP JUMPDEST PUSH2 0x1CCF PUSH1 0x20 DUP4 ADD DUP8 PUSH2 0x1C23 JUMP JUMPDEST PUSH2 0x1CDC PUSH1 0x40 DUP4 ADD DUP7 PUSH2 0x1C23 JUMP JUMPDEST PUSH2 0x1CE9 PUSH1 0x60 DUP4 ADD DUP6 PUSH2 0x1C23 JUMP JUMPDEST PUSH2 0x1CF6 PUSH1 0x80 DUP4 ADD DUP5 PUSH2 0x1AA4 JUMP JUMPDEST SWAP7 SWAP6 POP POP POP POP POP POP JUMP JUMPDEST PUSH1 0x0 PUSH1 0x20 DUP3 ADD SWAP1 POP DUP2 DUP2 SUB PUSH1 0x0 DUP4 ADD MSTORE PUSH2 0x1D1A DUP2 DUP5 PUSH2 0x19E8 JUMP JUMPDEST SWAP1 POP SWAP3 SWAP2 POP POP JUMP JUMPDEST PUSH1 0x0 PUSH1 0x20 DUP3 ADD SWAP1 POP DUP2 DUP2 SUB PUSH1 0x0 DUP4 ADD MSTORE PUSH2 0x1D3C DUP2 DUP5 PUSH2 0x1A46 JUMP JUMPDEST SWAP1 POP SWAP3 SWAP2 POP POP JUMP JUMPDEST PUSH1 0x0 PUSH1 0x20 DUP3 ADD SWAP1 POP PUSH2 0x1D59 PUSH1 0x0 DUP4 ADD DUP5 PUSH2 0x1AA4 JUMP JUMPDEST SWAP3 SWAP2 POP POP JUMP JUMPDEST PUSH1 0x0 PUSH1 0x20 DUP3 ADD SWAP1 POP DUP2 DUP2 SUB PUSH1 0x0 DUP4 ADD MSTORE PUSH2 0x1D78 DUP2 PUSH2 0x1AB3 JUMP JUMPDEST SWAP1 POP SWAP2 SWAP1 POP JUMP JUMPDEST PUSH1 0x0 PUSH1 0x20 DUP3 ADD SWAP1 POP DUP2 DUP2 SUB PUSH1 0x0 DUP4 ADD MSTORE PUSH2 0x1D98 DUP2 PUSH2 0x1AF3 JUMP JUMPDEST SWAP1 POP SWAP2 SWAP1 POP JUMP JUMPDEST PUSH1 0x0 PUSH1 0x20 DUP3 ADD SWAP1 POP DUP2 DUP2 SUB PUSH1 0x0 DUP4 ADD MSTORE PUSH2 0x1DB8 DUP2 PUSH2 0x1B59 JUMP JUMPDEST SWAP1 POP SWAP2 SWAP1 POP JUMP JUMPDEST PUSH1 0x0 PUSH1 0x20 DUP3 ADD SWAP1 POP PUSH2 0x1DD4 PUSH1 0x0 DUP4 ADD DUP5 PUSH2 0x1C23 JUMP JUMPDEST SWAP3 SWAP2 POP POP JUMP JUMPDEST PUSH1 0x0 DUP2 SWAP1 POP PUSH1 0x20 DUP3 ADD SWAP1 POP SWAP2 SWAP1 POP JUMP JUMPDEST PUSH1 0x0 DUP2 SWAP1 POP PUSH1 0x20 DUP3 ADD SWAP1 POP SWAP2 SWAP1 POP JUMP JUMPDEST PUSH1 0x0 DUP2 MLOAD SWAP1 POP SWAP2 SWAP1 POP JUMP JUMPDEST PUSH1 0x0 DUP2 MLOAD SWAP1 POP SWAP2 SWAP1 POP JUMP JUMPDEST PUSH1 0x0 PUSH1 0x20 DUP3 ADD SWAP1 POP SWAP2 SWAP1 POP JUMP JUMPDEST PUSH1 0x0 PUSH1 0x20 DUP3 ADD SWAP1 POP SWAP2 SWAP1 POP JUMP JUMPDEST PUSH1 0x0 DUP3 DUP3 MSTORE PUSH1 0x20 DUP3 ADD SWAP1 POP SWAP3 SWAP2 POP POP JUMP JUMPDEST PUSH1 0x0 DUP3 DUP3 MSTORE PUSH1 0x20 DUP3 ADD SWAP1 POP SWAP3 SWAP2 POP POP JUMP JUMPDEST PUSH1 0x0 DUP3 DUP3 MSTORE PUSH1 0x20 DUP3 ADD SWAP1 POP SWAP3 SWAP2 POP POP JUMP JUMPDEST PUSH1 0x0 PUSH2 0x1E68 DUP3 PUSH2 0x1FB0 JUMP JUMPDEST SWAP2 POP PUSH2 0x1E73 DUP4 PUSH2 0x1FB0 JUMP JUMPDEST SWAP3 POP DUP3 PUSH32 0xFFFFFFFFFFFFFFFFFFFFFFFFFFFFFFFFFFFFFFFFFFFFFFFFFFFFFFFFFFFFFFFF SUB DUP3 GT ISZERO PUSH2 0x1EA8 JUMPI PUSH2 0x1EA7 PUSH2 0x2003 JUMP JUMPDEST JUMPDEST DUP3 DUP3 ADD SWAP1 POP SWAP3 SWAP2 POP POP JUMP JUMPDEST PUSH1 0x0 PUSH2 0x1EBE DUP3 PUSH2 0x1FB0 JUMP JUMPDEST SWAP2 POP PUSH2 0x1EC9 DUP4 PUSH2 0x1FB0 JUMP JUMPDEST SWAP3 POP DUP3 PUSH2 0x1ED9 JUMPI PUSH2 0x1ED8 PUSH2 0x2032 JUMP JUMPDEST JUMPDEST DUP3 DUP3 DIV SWAP1 POP SWAP3 SWAP2 POP POP JUMP JUMPDEST PUSH1 0x0 PUSH2 0x1EEF DUP3 PUSH2 0x1FB0 JUMP JUMPDEST SWAP2 POP PUSH2 0x1EFA DUP4 PUSH2 0x1FB0 JUMP JUMPDEST SWAP3 POP DUP2 PUSH32 0xFFFFFFFFFFFFFFFFFFFFFFFFFFFFFFFFFFFFFFFFFFFFFFFFFFFFFFFFFFFFFFFF DIV DUP4 GT DUP3 ISZERO ISZERO AND ISZERO PUSH2 0x1F33 JUMPI PUSH2 0x1F32 PUSH2 0x2003 JUMP JUMPDEST JUMPDEST DUP3 DUP3 MUL SWAP1 POP SWAP3 SWAP2 POP POP JUMP JUMPDEST PUSH1 0x0 PUSH2 0x1F49 DUP3 PUSH2 0x1FB0 JUMP JUMPDEST SWAP2 POP PUSH2 0x1F54 DUP4 PUSH2 0x1FB0 JUMP JUMPDEST SWAP3 POP DUP3 DUP3 LT ISZERO PUSH2 0x1F67 JUMPI PUSH2 0x1F66 PUSH2 0x2003 JUMP JUMPDEST JUMPDEST DUP3 DUP3 SUB SWAP1 POP SWAP3 SWAP2 POP POP JUMP JUMPDEST PUSH1 0x0 PUSH2 0x1F7D DUP3 PUSH2 0x1F90 JUMP JUMPDEST SWAP1 POP SWAP2 SWAP1 POP JUMP JUMPDEST PUSH1 0x0 DUP2 ISZERO ISZERO SWAP1 POP SWAP2 SWAP1 POP JUMP JUMPDEST PUSH1 0x0 PUSH20 0xFFFFFFFFFFFFFFFFFFFFFFFFFFFFFFFFFFFFFFFF DUP3 AND SWAP1 POP SWAP2 SWAP1 POP JUMP JUMPDEST PUSH1 0x0 DUP2 SWAP1 POP SWAP2 SWAP1 POP JUMP JUMPDEST PUSH1 0x0 PUSH2 0x1FC5 DUP3 PUSH2 0x1FB0 JUMP JUMPDEST SWAP2 POP PUSH32 0xFFFFFFFFFFFFFFFFFFFFFFFFFFFFFFFFFFFFFFFFFFFFFFFFFFFFFFFFFFFFFFFF DUP3 EQ ISZERO PUSH2 0x1FF8 JUMPI PUSH2 0x1FF7 PUSH2 0x2003 JUMP JUMPDEST JUMPDEST PUSH1 0x1 DUP3 ADD SWAP1 POP SWAP2 SWAP1 POP JUMP JUMPDEST PUSH32 0x4E487B7100000000000000000000000000000000000000000000000000000000 PUSH1 0x0 MSTORE PUSH1 0x11 PUSH1 0x4 MSTORE PUSH1 0x24 PUSH1 0x0 REVERT JUMPDEST PUSH32 0x4E487B7100000000000000000000000000000000000000000000000000000000 PUSH1 0x0 MSTORE PUSH1 0x12 PUSH1 0x4 MSTORE PUSH1 0x24 PUSH1 0x0 REVERT JUMPDEST PUSH2 0x206A DUP2 PUSH2 0x1F72 JUMP JUMPDEST DUP2 EQ PUSH2 0x2075 JUMPI PUSH1 0x0 DUP1 REVERT JUMPDEST POP JUMP JUMPDEST PUSH2 0x2081 DUP2 PUSH2 0x1F84 JUMP JUMPDEST DUP2 EQ PUSH2 0x208C JUMPI PUSH1 0x0 DUP1 REVERT JUMPDEST POP JUMP JUMPDEST PUSH2 0x2098 DUP2 PUSH2 0x1FB0 JUMP JUMPDEST DUP2 EQ PUSH2 0x20A3 JUMPI PUSH1 0x0 DUP1 REVERT JUMPDEST POP JUMP INVALID LOG2 PUSH5 0x6970667358 0x22 SLT KECCAK256 0xC1 PUSH31 0x12BFFB8C46C5B4F009EDC0AB2ACD8C72B9F2CEC1172BB9C555B999B7295264 PUSH20 0x6F6C634300080000330000000000000000000000 "
				},
				"gasEstimates": {
					"creation": {
						"codeDepositCost": "1682400",
						"executionCost": "123521",
						"totalCost": "1805921"
					},
					"external": {
						"DUSDReferralsList()": "infinite",
						"DUSDTotalReferrals()": "1308",
						"DUSDinvestor(address)": "infinite",
						"Stake(uint256,address)": "infinite",
						"getAllDUSDinvestments()": "infinite",
						"getReward()": "infinite",
						"getTotalInvestmentDUSD()": "1321",
						"owner()": "1278",
						"ownerfees()": "1195",
						"rewardToken()": "1239",
						"sendRewardToDUSDReferrals(address,uint256)": "infinite",
						"setReward(uint256)": "20510",
						"set_max_Stake_amount(uint256)": "20531",
						"set_min_Stake_amount(uint256)": "20465",
						"set_values(uint256,uint256,uint256)": "infinite",
						"totalDUSDInvestors()": "1175",
						"unStake(uint256)": "infinite",
						"withdrawReward()": "infinite"
					}
				},
				"methodIdentifiers": {
					"DUSDReferralsList()": "0c5f58f4",
					"DUSDTotalReferrals()": "1e8aba35",
					"DUSDinvestor(address)": "d3560ee8",
					"Stake(uint256,address)": "2bccdce6",
					"getAllDUSDinvestments()": "3a1e0833",
					"getReward()": "3d18b912",
					"getTotalInvestmentDUSD()": "929f6bbe",
					"owner()": "8da5cb5b",
					"ownerfees()": "d0ff6e63",
					"rewardToken()": "f7c618c1",
					"sendRewardToDUSDReferrals(address,uint256)": "6e9726b0",
					"setReward(uint256)": "293be456",
					"set_max_Stake_amount(uint256)": "500cb85f",
					"set_min_Stake_amount(uint256)": "32d4e783",
					"set_values(uint256,uint256,uint256)": "ce10db0a",
					"totalDUSDInvestors()": "10cde60a",
					"unStake(uint256)": "5d3eea91",
					"withdrawReward()": "c885bc58"
				}
			},
			"storageLayout": {
				"storage": [
					{
						"astId": 24,
						"contract": "contracts/stake_reward_MLM.sol:Invest",
						"label": "owner",
						"offset": 0,
						"slot": "0",
						"type": "t_address"
					},
					{
						"astId": 26,
						"contract": "contracts/stake_reward_MLM.sol:Invest",
						"label": "ownerfees",
						"offset": 0,
						"slot": "1",
						"type": "t_uint256"
					},
					{
						"astId": 29,
						"contract": "contracts/stake_reward_MLM.sol:Invest",
						"label": "DUSDcontract",
						"offset": 0,
						"slot": "2",
						"type": "t_address"
					},
					{
						"astId": 31,
						"contract": "contracts/stake_reward_MLM.sol:Invest",
						"label": "totalDUSDInvestors",
						"offset": 0,
						"slot": "3",
						"type": "t_uint256"
					},
					{
						"astId": 34,
						"contract": "contracts/stake_reward_MLM.sol:Invest",
						"label": "rewardToken",
						"offset": 0,
						"slot": "4",
						"type": "t_uint256"
					},
					{
						"astId": 37,
						"contract": "contracts/stake_reward_MLM.sol:Invest",
						"label": "min_Stake_amount",
						"offset": 0,
						"slot": "5",
						"type": "t_uint256"
					},
					{
						"astId": 40,
						"contract": "contracts/stake_reward_MLM.sol:Invest",
						"label": "max_Stake_amount",
						"offset": 0,
						"slot": "6",
						"type": "t_uint256"
					},
					{
						"astId": 43,
						"contract": "contracts/stake_reward_MLM.sol:Invest",
						"label": "investmentPeriod",
						"offset": 0,
						"slot": "7",
						"type": "t_uint256"
					},
					{
						"astId": 76,
						"contract": "contracts/stake_reward_MLM.sol:Invest",
						"label": "DUSDinvestor",
						"offset": 0,
						"slot": "8",
						"type": "t_mapping(t_address,t_struct(Data)71_storage)"
					}
				],
				"types": {
					"t_address": {
						"encoding": "inplace",
						"label": "address",
						"numberOfBytes": "20"
					},
					"t_array(t_address)dyn_storage": {
						"base": "t_address",
						"encoding": "dynamic_array",
						"label": "address[]",
						"numberOfBytes": "32"
					},
					"t_bool": {
						"encoding": "inplace",
						"label": "bool",
						"numberOfBytes": "1"
					},
					"t_mapping(t_address,t_struct(Data)71_storage)": {
						"encoding": "mapping",
						"key": "t_address",
						"label": "mapping(address => struct Invest.Data)",
						"numberOfBytes": "32",
						"value": "t_struct(Data)71_storage"
					},
					"t_mapping(t_uint256,t_struct(allInvestments)52_storage)": {
						"encoding": "mapping",
						"key": "t_uint256",
						"label": "mapping(uint256 => struct Invest.allInvestments)",
						"numberOfBytes": "32",
						"value": "t_struct(allInvestments)52_storage"
					},
					"t_struct(Data)71_storage": {
						"encoding": "inplace",
						"label": "struct Invest.Data",
						"members": [
							{
								"astId": 57,
								"contract": "contracts/stake_reward_MLM.sol:Invest",
								"label": "investment",
								"offset": 0,
								"slot": "0",
								"type": "t_mapping(t_uint256,t_struct(allInvestments)52_storage)"
							},
							{
								"astId": 60,
								"contract": "contracts/stake_reward_MLM.sol:Invest",
								"label": "hisReferrals",
								"offset": 0,
								"slot": "1",
								"type": "t_array(t_address)dyn_storage"
							},
							{
								"astId": 62,
								"contract": "contracts/stake_reward_MLM.sol:Invest",
								"label": "referralFrom",
								"offset": 0,
								"slot": "2",
								"type": "t_address"
							},
							{
								"astId": 64,
								"contract": "contracts/stake_reward_MLM.sol:Invest",
								"label": "reward",
								"offset": 0,
								"slot": "3",
								"type": "t_uint256"
							},
							{
								"astId": 66,
								"contract": "contracts/stake_reward_MLM.sol:Invest",
								"label": "noOfInvestment",
								"offset": 0,
								"slot": "4",
								"type": "t_uint256"
							},
							{
								"astId": 68,
								"contract": "contracts/stake_reward_MLM.sol:Invest",
								"label": "totalInvestment",
								"offset": 0,
								"slot": "5",
								"type": "t_uint256"
							},
							{
								"astId": 70,
								"contract": "contracts/stake_reward_MLM.sol:Invest",
								"label": "investBefore",
								"offset": 0,
								"slot": "6",
								"type": "t_bool"
							}
						],
						"numberOfBytes": "224"
					},
					"t_struct(allInvestments)52_storage": {
						"encoding": "inplace",
						"label": "struct Invest.allInvestments",
						"members": [
							{
								"astId": 45,
								"contract": "contracts/stake_reward_MLM.sol:Invest",
								"label": "investedAmount",
								"offset": 0,
								"slot": "0",
								"type": "t_uint256"
							},
							{
								"astId": 47,
								"contract": "contracts/stake_reward_MLM.sol:Invest",
								"label": "withdrawnTime",
								"offset": 0,
								"slot": "1",
								"type": "t_uint256"
							},
							{
								"astId": 49,
								"contract": "contracts/stake_reward_MLM.sol:Invest",
								"label": "DepositTime",
								"offset": 0,
								"slot": "2",
								"type": "t_uint256"
							},
							{
								"astId": 51,
								"contract": "contracts/stake_reward_MLM.sol:Invest",
								"label": "investmentNum",
								"offset": 0,
								"slot": "3",
								"type": "t_uint256"
							}
						],
						"numberOfBytes": "128"
					},
					"t_uint256": {
						"encoding": "inplace",
						"label": "uint256",
						"numberOfBytes": "32"
					}
				}
			},
			"userdoc": {
				"kind": "user",
				"methods": {},
				"version": 1
			}
		}
	}
}