{
	"contracts/cropsFarmer.sol": {
		"BNB_V3": {
			"abi": [
				{
					"inputs": [
						{
							"internalType": "address payable",
							"name": "_dev1",
							"type": "address"
						},
						{
							"internalType": "address payable",
							"name": "_dev2",
							"type": "address"
						},
						{
							"internalType": "address payable",
							"name": "_dev3",
							"type": "address"
						},
						{
							"internalType": "address payable",
							"name": "_prtnr1",
							"type": "address"
						},
						{
							"internalType": "address payable",
							"name": "_prtnr2",
							"type": "address"
						},
						{
							"internalType": "address payable",
							"name": "_mkt",
							"type": "address"
						}
					],
					"stateMutability": "nonpayable",
					"type": "constructor"
				},
				{
					"inputs": [
						{
							"internalType": "uint256",
							"name": "value",
							"type": "uint256"
						}
					],
					"name": "BONUS_COMPOUND_STEP",
					"outputs": [],
					"stateMutability": "nonpayable",
					"type": "function"
				},
				{
					"inputs": [
						{
							"internalType": "uint256",
							"name": "value",
							"type": "uint256"
						}
					],
					"name": "BONUS_DAILY_COMPOUND",
					"outputs": [],
					"stateMutability": "nonpayable",
					"type": "function"
				},
				{
					"inputs": [
						{
							"internalType": "uint256",
							"name": "value",
							"type": "uint256"
						}
					],
					"name": "BONUS_DAILY_COMPOUND_BONUS_MAX_TIMES",
					"outputs": [],
					"stateMutability": "nonpayable",
					"type": "function"
				},
				{
					"inputs": [
						{
							"internalType": "address",
							"name": "",
							"type": "address"
						}
					],
					"name": "Blacklisted",
					"outputs": [
						{
							"internalType": "bool",
							"name": "",
							"type": "bool"
						}
					],
					"stateMutability": "view",
					"type": "function"
				},
				{
					"inputs": [
						{
							"internalType": "address",
							"name": "value",
							"type": "address"
						}
					],
					"name": "CHANGE_OWNERSHIP",
					"outputs": [],
					"stateMutability": "nonpayable",
					"type": "function"
				},
				{
					"inputs": [],
					"name": "COMPOUND_BONUS",
					"outputs": [
						{
							"internalType": "uint256",
							"name": "",
							"type": "uint256"
						}
					],
					"stateMutability": "view",
					"type": "function"
				},
				{
					"inputs": [],
					"name": "COMPOUND_BONUS_MAX_TIMES",
					"outputs": [
						{
							"internalType": "uint256",
							"name": "",
							"type": "uint256"
						}
					],
					"stateMutability": "view",
					"type": "function"
				},
				{
					"inputs": [],
					"name": "COMPOUND_FOR_NO_TAX_WITHDRAWAL",
					"outputs": [
						{
							"internalType": "uint256",
							"name": "",
							"type": "uint256"
						}
					],
					"stateMutability": "view",
					"type": "function"
				},
				{
					"inputs": [],
					"name": "COMPOUND_STEP",
					"outputs": [
						{
							"internalType": "uint256",
							"name": "",
							"type": "uint256"
						}
					],
					"stateMutability": "view",
					"type": "function"
				},
				{
					"inputs": [],
					"name": "CUTOFF_STEP",
					"outputs": [
						{
							"internalType": "uint256",
							"name": "",
							"type": "uint256"
						}
					],
					"stateMutability": "view",
					"type": "function"
				},
				{
					"inputs": [],
					"name": "EGGS_TO_HIRE_1MINERS",
					"outputs": [
						{
							"internalType": "uint256",
							"name": "",
							"type": "uint256"
						}
					],
					"stateMutability": "view",
					"type": "function"
				},
				{
					"inputs": [],
					"name": "MARKET_EGGS_DIVISOR",
					"outputs": [
						{
							"internalType": "uint256",
							"name": "",
							"type": "uint256"
						}
					],
					"stateMutability": "view",
					"type": "function"
				},
				{
					"inputs": [],
					"name": "MIN_INVEST_LIMIT",
					"outputs": [
						{
							"internalType": "uint256",
							"name": "",
							"type": "uint256"
						}
					],
					"stateMutability": "view",
					"type": "function"
				},
				{
					"inputs": [],
					"name": "MKT",
					"outputs": [
						{
							"internalType": "uint256",
							"name": "",
							"type": "uint256"
						}
					],
					"stateMutability": "view",
					"type": "function"
				},
				{
					"inputs": [],
					"name": "PERCENTS_DIVIDER",
					"outputs": [
						{
							"internalType": "uint256",
							"name": "",
							"type": "uint256"
						}
					],
					"stateMutability": "view",
					"type": "function"
				},
				{
					"inputs": [
						{
							"internalType": "uint256",
							"name": "value",
							"type": "uint256"
						}
					],
					"name": "PRC_EGGS_TO_HIRE_1MINERS",
					"outputs": [],
					"stateMutability": "nonpayable",
					"type": "function"
				},
				{
					"inputs": [
						{
							"internalType": "uint256",
							"name": "value",
							"type": "uint256"
						}
					],
					"name": "PRC_MARKET_EGGS_DIVISOR",
					"outputs": [],
					"stateMutability": "nonpayable",
					"type": "function"
				},
				{
					"inputs": [
						{
							"internalType": "uint256",
							"name": "value",
							"type": "uint256"
						}
					],
					"name": "PRC_MKT",
					"outputs": [],
					"stateMutability": "nonpayable",
					"type": "function"
				},
				{
					"inputs": [
						{
							"internalType": "uint256",
							"name": "value",
							"type": "uint256"
						}
					],
					"name": "PRC_REFERRAL",
					"outputs": [],
					"stateMutability": "nonpayable",
					"type": "function"
				},
				{
					"inputs": [
						{
							"internalType": "uint256",
							"name": "value",
							"type": "uint256"
						}
					],
					"name": "PRC_TAX",
					"outputs": [],
					"stateMutability": "nonpayable",
					"type": "function"
				},
				{
					"inputs": [],
					"name": "REFERRAL",
					"outputs": [
						{
							"internalType": "uint256",
							"name": "",
							"type": "uint256"
						}
					],
					"stateMutability": "view",
					"type": "function"
				},
				{
					"inputs": [
						{
							"internalType": "uint256",
							"name": "value",
							"type": "uint256"
						}
					],
					"name": "SET_COMPOUND_FOR_NO_TAX_WITHDRAWAL",
					"outputs": [],
					"stateMutability": "nonpayable",
					"type": "function"
				},
				{
					"inputs": [
						{
							"internalType": "uint256",
							"name": "value",
							"type": "uint256"
						}
					],
					"name": "SET_CUTOFF_STEP",
					"outputs": [],
					"stateMutability": "nonpayable",
					"type": "function"
				},
				{
					"inputs": [
						{
							"internalType": "uint256",
							"name": "value",
							"type": "uint256"
						}
					],
					"name": "SET_INVEST_MIN",
					"outputs": [],
					"stateMutability": "nonpayable",
					"type": "function"
				},
				{
					"inputs": [
						{
							"internalType": "uint256",
							"name": "value",
							"type": "uint256"
						}
					],
					"name": "SET_WALLET_DEPOSIT_LIMIT",
					"outputs": [],
					"stateMutability": "nonpayable",
					"type": "function"
				},
				{
					"inputs": [
						{
							"internalType": "uint256",
							"name": "value",
							"type": "uint256"
						}
					],
					"name": "SET_WITHDRAWAL_TAX",
					"outputs": [],
					"stateMutability": "nonpayable",
					"type": "function"
				},
				{
					"inputs": [
						{
							"internalType": "uint256",
							"name": "value",
							"type": "uint256"
						}
					],
					"name": "SET_WITHDRAW_COOLDOWN",
					"outputs": [],
					"stateMutability": "nonpayable",
					"type": "function"
				},
				{
					"inputs": [],
					"name": "TAX",
					"outputs": [
						{
							"internalType": "uint256",
							"name": "",
							"type": "uint256"
						}
					],
					"stateMutability": "view",
					"type": "function"
				},
				{
					"inputs": [],
					"name": "WALLET_DEPOSIT_LIMIT",
					"outputs": [
						{
							"internalType": "uint256",
							"name": "",
							"type": "uint256"
						}
					],
					"stateMutability": "view",
					"type": "function"
				},
				{
					"inputs": [],
					"name": "WITHDRAWAL_TAX",
					"outputs": [
						{
							"internalType": "uint256",
							"name": "",
							"type": "uint256"
						}
					],
					"stateMutability": "view",
					"type": "function"
				},
				{
					"inputs": [],
					"name": "WITHDRAW_COOLDOWN",
					"outputs": [
						{
							"internalType": "uint256",
							"name": "",
							"type": "uint256"
						}
					],
					"stateMutability": "view",
					"type": "function"
				},
				{
					"inputs": [
						{
							"internalType": "address",
							"name": "Wallet",
							"type": "address"
						},
						{
							"internalType": "bool",
							"name": "isBlacklisted",
							"type": "bool"
						}
					],
					"name": "blackListWallet",
					"outputs": [],
					"stateMutability": "nonpayable",
					"type": "function"
				},
				{
					"inputs": [
						{
							"internalType": "address[]",
							"name": "Wallet",
							"type": "address[]"
						},
						{
							"internalType": "bool",
							"name": "isBlacklisted",
							"type": "bool"
						}
					],
					"name": "blackMultipleWallets",
					"outputs": [],
					"stateMutability": "nonpayable",
					"type": "function"
				},
				{
					"inputs": [],
					"name": "blacklistActive",
					"outputs": [
						{
							"internalType": "bool",
							"name": "",
							"type": "bool"
						}
					],
					"stateMutability": "view",
					"type": "function"
				},
				{
					"inputs": [
						{
							"internalType": "uint256",
							"name": "eth",
							"type": "uint256"
						},
						{
							"internalType": "uint256",
							"name": "contractBalance",
							"type": "uint256"
						}
					],
					"name": "calculateEggBuy",
					"outputs": [
						{
							"internalType": "uint256",
							"name": "",
							"type": "uint256"
						}
					],
					"stateMutability": "view",
					"type": "function"
				},
				{
					"inputs": [
						{
							"internalType": "uint256",
							"name": "eth",
							"type": "uint256"
						}
					],
					"name": "calculateEggBuySimple",
					"outputs": [
						{
							"internalType": "uint256",
							"name": "",
							"type": "uint256"
						}
					],
					"stateMutability": "view",
					"type": "function"
				},
				{
					"inputs": [
						{
							"internalType": "uint256",
							"name": "eggs",
							"type": "uint256"
						}
					],
					"name": "calculateEggSell",
					"outputs": [
						{
							"internalType": "uint256",
							"name": "",
							"type": "uint256"
						}
					],
					"stateMutability": "view",
					"type": "function"
				},
				{
					"inputs": [
						{
							"internalType": "uint256",
							"name": "eggs",
							"type": "uint256"
						},
						{
							"internalType": "uint256",
							"name": "amount",
							"type": "uint256"
						}
					],
					"name": "calculateEggSellForYield",
					"outputs": [
						{
							"internalType": "uint256",
							"name": "",
							"type": "uint256"
						}
					],
					"stateMutability": "view",
					"type": "function"
				},
				{
					"inputs": [
						{
							"internalType": "uint256",
							"name": "rt",
							"type": "uint256"
						},
						{
							"internalType": "uint256",
							"name": "rs",
							"type": "uint256"
						},
						{
							"internalType": "uint256",
							"name": "bs",
							"type": "uint256"
						}
					],
					"name": "calculateTrade",
					"outputs": [
						{
							"internalType": "uint256",
							"name": "",
							"type": "uint256"
						}
					],
					"stateMutability": "view",
					"type": "function"
				},
				{
					"inputs": [
						{
							"internalType": "address",
							"name": "Wallet",
							"type": "address"
						}
					],
					"name": "checkIfBlacklisted",
					"outputs": [
						{
							"internalType": "bool",
							"name": "blacklisted",
							"type": "bool"
						}
					],
					"stateMutability": "view",
					"type": "function"
				},
				{
					"inputs": [],
					"name": "contractStarted",
					"outputs": [
						{
							"internalType": "bool",
							"name": "",
							"type": "bool"
						}
					],
					"stateMutability": "view",
					"type": "function"
				},
				{
					"inputs": [],
					"name": "dev1",
					"outputs": [
						{
							"internalType": "address payable",
							"name": "",
							"type": "address"
						}
					],
					"stateMutability": "view",
					"type": "function"
				},
				{
					"inputs": [],
					"name": "dev2",
					"outputs": [
						{
							"internalType": "address payable",
							"name": "",
							"type": "address"
						}
					],
					"stateMutability": "view",
					"type": "function"
				},
				{
					"inputs": [],
					"name": "dev3",
					"outputs": [
						{
							"internalType": "address payable",
							"name": "",
							"type": "address"
						}
					],
					"stateMutability": "view",
					"type": "function"
				},
				{
					"inputs": [
						{
							"internalType": "address",
							"name": "",
							"type": "address"
						}
					],
					"name": "firstDeposit",
					"outputs": [
						{
							"internalType": "uint256",
							"name": "",
							"type": "uint256"
						}
					],
					"stateMutability": "view",
					"type": "function"
				},
				{
					"inputs": [],
					"name": "fundContract",
					"outputs": [],
					"stateMutability": "payable",
					"type": "function"
				},
				{
					"inputs": [
						{
							"internalType": "address",
							"name": "_adr",
							"type": "address"
						}
					],
					"name": "getAvailableEarnings",
					"outputs": [
						{
							"internalType": "uint256",
							"name": "",
							"type": "uint256"
						}
					],
					"stateMutability": "view",
					"type": "function"
				},
				{
					"inputs": [],
					"name": "getBalance",
					"outputs": [
						{
							"internalType": "uint256",
							"name": "",
							"type": "uint256"
						}
					],
					"stateMutability": "view",
					"type": "function"
				},
				{
					"inputs": [
						{
							"internalType": "address",
							"name": "_adr",
							"type": "address"
						},
						{
							"internalType": "uint256",
							"name": "amount",
							"type": "uint256"
						}
					],
					"name": "getDailyCompoundBonus",
					"outputs": [
						{
							"internalType": "uint256",
							"name": "",
							"type": "uint256"
						}
					],
					"stateMutability": "view",
					"type": "function"
				},
				{
					"inputs": [
						{
							"internalType": "address",
							"name": "adr",
							"type": "address"
						}
					],
					"name": "getEggsSinceLastHatch",
					"outputs": [
						{
							"internalType": "uint256",
							"name": "",
							"type": "uint256"
						}
					],
					"stateMutability": "view",
					"type": "function"
				},
				{
					"inputs": [
						{
							"internalType": "uint256",
							"name": "amount",
							"type": "uint256"
						}
					],
					"name": "getEggsYield",
					"outputs": [
						{
							"internalType": "uint256",
							"name": "",
							"type": "uint256"
						},
						{
							"internalType": "uint256",
							"name": "",
							"type": "uint256"
						}
					],
					"stateMutability": "view",
					"type": "function"
				},
				{
					"inputs": [],
					"name": "getMyEggs",
					"outputs": [
						{
							"internalType": "uint256",
							"name": "",
							"type": "uint256"
						}
					],
					"stateMutability": "view",
					"type": "function"
				},
				{
					"inputs": [],
					"name": "getMyMiners",
					"outputs": [
						{
							"internalType": "uint256",
							"name": "",
							"type": "uint256"
						}
					],
					"stateMutability": "view",
					"type": "function"
				},
				{
					"inputs": [],
					"name": "getSiteInfo",
					"outputs": [
						{
							"internalType": "uint256",
							"name": "_totalStaked",
							"type": "uint256"
						},
						{
							"internalType": "uint256",
							"name": "_totalDeposits",
							"type": "uint256"
						},
						{
							"internalType": "uint256",
							"name": "_totalCompound",
							"type": "uint256"
						},
						{
							"internalType": "uint256",
							"name": "_totalRefBonus",
							"type": "uint256"
						}
					],
					"stateMutability": "view",
					"type": "function"
				},
				{
					"inputs": [],
					"name": "getTimeStamp",
					"outputs": [
						{
							"internalType": "uint256",
							"name": "",
							"type": "uint256"
						}
					],
					"stateMutability": "view",
					"type": "function"
				},
				{
					"inputs": [
						{
							"internalType": "address",
							"name": "_adr",
							"type": "address"
						}
					],
					"name": "getUserInfo",
					"outputs": [
						{
							"internalType": "uint256",
							"name": "_initialDeposit",
							"type": "uint256"
						},
						{
							"internalType": "uint256",
							"name": "_userDeposit",
							"type": "uint256"
						},
						{
							"internalType": "uint256",
							"name": "_miners",
							"type": "uint256"
						},
						{
							"internalType": "uint256",
							"name": "_claimedEggs",
							"type": "uint256"
						},
						{
							"internalType": "uint256",
							"name": "_lastHatch",
							"type": "uint256"
						},
						{
							"internalType": "address",
							"name": "_referrer",
							"type": "address"
						},
						{
							"internalType": "uint256",
							"name": "_referrals",
							"type": "uint256"
						},
						{
							"internalType": "uint256",
							"name": "_totalWithdrawn",
							"type": "uint256"
						},
						{
							"internalType": "uint256",
							"name": "_referralEggRewards",
							"type": "uint256"
						},
						{
							"internalType": "uint256",
							"name": "_dailyCompoundBonus",
							"type": "uint256"
						},
						{
							"internalType": "uint256",
							"name": "_farmerCompoundCount",
							"type": "uint256"
						},
						{
							"internalType": "uint256",
							"name": "_lastWithdrawTime",
							"type": "uint256"
						}
					],
					"stateMutability": "view",
					"type": "function"
				},
				{
					"inputs": [
						{
							"internalType": "address",
							"name": "ref",
							"type": "address"
						}
					],
					"name": "hireFarmers",
					"outputs": [],
					"stateMutability": "payable",
					"type": "function"
				},
				{
					"inputs": [
						{
							"internalType": "bool",
							"name": "isCompound",
							"type": "bool"
						}
					],
					"name": "hireMoreFarmers",
					"outputs": [],
					"stateMutability": "nonpayable",
					"type": "function"
				},
				{
					"inputs": [],
					"name": "marketEggs",
					"outputs": [
						{
							"internalType": "uint256",
							"name": "",
							"type": "uint256"
						}
					],
					"stateMutability": "view",
					"type": "function"
				},
				{
					"inputs": [],
					"name": "mkt",
					"outputs": [
						{
							"internalType": "address payable",
							"name": "",
							"type": "address"
						}
					],
					"stateMutability": "view",
					"type": "function"
				},
				{
					"inputs": [],
					"name": "owner",
					"outputs": [
						{
							"internalType": "address",
							"name": "",
							"type": "address"
						}
					],
					"stateMutability": "view",
					"type": "function"
				},
				{
					"inputs": [],
					"name": "prtnr1",
					"outputs": [
						{
							"internalType": "address payable",
							"name": "",
							"type": "address"
						}
					],
					"stateMutability": "view",
					"type": "function"
				},
				{
					"inputs": [],
					"name": "prtnr2",
					"outputs": [
						{
							"internalType": "address payable",
							"name": "",
							"type": "address"
						}
					],
					"stateMutability": "view",
					"type": "function"
				},
				{
					"inputs": [],
					"name": "sellCrops",
					"outputs": [],
					"stateMutability": "nonpayable",
					"type": "function"
				},
				{
					"inputs": [
						{
							"internalType": "bool",
							"name": "isActive",
							"type": "bool"
						}
					],
					"name": "setblacklistActive",
					"outputs": [],
					"stateMutability": "nonpayable",
					"type": "function"
				},
				{
					"inputs": [
						{
							"internalType": "address",
							"name": "addr",
							"type": "address"
						}
					],
					"name": "startFarm",
					"outputs": [],
					"stateMutability": "payable",
					"type": "function"
				},
				{
					"inputs": [],
					"name": "totalCompound",
					"outputs": [
						{
							"internalType": "uint256",
							"name": "",
							"type": "uint256"
						}
					],
					"stateMutability": "view",
					"type": "function"
				},
				{
					"inputs": [],
					"name": "totalDeposits",
					"outputs": [
						{
							"internalType": "uint256",
							"name": "",
							"type": "uint256"
						}
					],
					"stateMutability": "view",
					"type": "function"
				},
				{
					"inputs": [],
					"name": "totalRefBonus",
					"outputs": [
						{
							"internalType": "uint256",
							"name": "",
							"type": "uint256"
						}
					],
					"stateMutability": "view",
					"type": "function"
				},
				{
					"inputs": [],
					"name": "totalStaked",
					"outputs": [
						{
							"internalType": "uint256",
							"name": "",
							"type": "uint256"
						}
					],
					"stateMutability": "view",
					"type": "function"
				},
				{
					"inputs": [],
					"name": "totalWithdrawn",
					"outputs": [
						{
							"internalType": "uint256",
							"name": "",
							"type": "uint256"
						}
					],
					"stateMutability": "view",
					"type": "function"
				},
				{
					"inputs": [
						{
							"internalType": "address",
							"name": "",
							"type": "address"
						}
					],
					"name": "users",
					"outputs": [
						{
							"internalType": "uint256",
							"name": "initialDeposit",
							"type": "uint256"
						},
						{
							"internalType": "uint256",
							"name": "userDeposit",
							"type": "uint256"
						},
						{
							"internalType": "uint256",
							"name": "miners",
							"type": "uint256"
						},
						{
							"internalType": "uint256",
							"name": "claimedEggs",
							"type": "uint256"
						},
						{
							"internalType": "uint256",
							"name": "lastHatch",
							"type": "uint256"
						},
						{
							"internalType": "address",
							"name": "referrer",
							"type": "address"
						},
						{
							"internalType": "uint256",
							"name": "referralsCount",
							"type": "uint256"
						},
						{
							"internalType": "uint256",
							"name": "referralEggRewards",
							"type": "uint256"
						},
						{
							"internalType": "uint256",
							"name": "totalWithdrawn",
							"type": "uint256"
						},
						{
							"internalType": "uint256",
							"name": "dailyCompoundBonus",
							"type": "uint256"
						},
						{
							"internalType": "uint256",
							"name": "farmerCompoundCount",
							"type": "uint256"
						},
						{
							"internalType": "uint256",
							"name": "lastWithdrawTime",
							"type": "uint256"
						}
					],
					"stateMutability": "view",
					"type": "function"
				}
			],
			"devdoc": {
				"kind": "dev",
				"methods": {},
				"version": 1
			},
			"evm": {
				"assembly": "    /* \"contracts/cropsFarmer.sol\":56:18133  contract BNB_V3 {... */\n  mstore(0x40, 0x80)\n    /* \"contracts/cropsFarmer.sol\":177:184  1440000 */\n  0x15f900\n    /* \"contracts/cropsFarmer.sol\":139:184  uint256 public EGGS_TO_HIRE_1MINERS = 1440000 */\n  0x00\n  sstore\n    /* \"contracts/cropsFarmer.sol\":216:218  70 */\n  0x46\n    /* \"contracts/cropsFarmer.sol\":190:218  uint256 public REFERRAL = 70 */\n  0x01\n  sstore\n    /* \"contracts/cropsFarmer.sol\":258:262  1000 */\n  0x03e8\n    /* \"contracts/cropsFarmer.sol\":224:262  uint256 public PERCENTS_DIVIDER = 1000 */\n  0x02\n  sstore\n    /* \"contracts/cropsFarmer.sol\":289:290  9 */\n  0x09\n    /* \"contracts/cropsFarmer.sol\":268:290  uint256 public TAX = 9 */\n  0x03\n  sstore\n    /* \"contracts/cropsFarmer.sol\":317:319  12 */\n  0x0c\n    /* \"contracts/cropsFarmer.sol\":296:319  uint256 public MKT = 12 */\n  0x04\n  sstore\n    /* \"contracts/cropsFarmer.sol\":362:363  2 */\n  0x02\n    /* \"contracts/cropsFarmer.sol\":325:363  uint256 public MARKET_EGGS_DIVISOR = 2 */\n  0x05\n  sstore\n    /* \"contracts/cropsFarmer.sol\":404:421  30000000000000000 */\n  0x6a94d74f430000\n    /* \"contracts/cropsFarmer.sol\":370:421  uint256 public MIN_INVEST_LIMIT = 30000000000000000 */\n  0x06\n  sstore\n    /* \"contracts/cropsFarmer.sol\":482:491  25 * 1e18 */\n  0x015af1d78b58c40000\n    /* \"contracts/cropsFarmer.sol\":444:491  uint256 public WALLET_DEPOSIT_LIMIT = 25 * 1e18 */\n  0x07\n  sstore\n    /* \"contracts/cropsFarmer.sol\":543:545  20 */\n  0x14\n    /* \"contracts/cropsFarmer.sol\":511:545  uint256 public COMPOUND_BONUS = 20 */\n  0x08\n  sstore\n    /* \"contracts/cropsFarmer.sol\":590:592  10 */\n  0x0a\n    /* \"contracts/cropsFarmer.sol\":548:592  uint256 public COMPOUND_BONUS_MAX_TIMES = 10 */\n  0x09\n  sstore\n    /* \"contracts/cropsFarmer.sol\":629:641  12 * 60 * 60 */\n  0xa8c0\n    /* \"contracts/cropsFarmer.sol\":598:641  uint256 public COMPOUND_STEP = 12 * 60 * 60 */\n  0x0a\n  sstore\n    /* \"contracts/cropsFarmer.sol\":680:683  350 */\n  0x015e\n    /* \"contracts/cropsFarmer.sol\":648:683  uint256 public WITHDRAWAL_TAX = 350 */\n  0x0b\n  sstore\n    /* \"contracts/cropsFarmer.sol\":742:744  10 */\n  0x0a\n    /* \"contracts/cropsFarmer.sol\":694:744  uint256 public COMPOUND_FOR_NO_TAX_WITHDRAWAL = 10 */\n  0x0c\n  sstore\n    /* \"contracts/cropsFarmer.sol\":966:971  10000 */\n  0x2710\n    /* \"contracts/cropsFarmer.sol\":952:971  uint256 PSN = 10000 */\n  0x13\n  sstore\n    /* \"contracts/cropsFarmer.sol\":992:996  5000 */\n  0x1388\n    /* \"contracts/cropsFarmer.sol\":977:996  uint256 PSNH = 5000 */\n  0x14\n  sstore\n    /* \"contracts/cropsFarmer.sol\":1065:1069  true */\n  0x01\n    /* \"contracts/cropsFarmer.sol\":1035:1069  bool public blacklistActive = true */\n  0x15\n  exp(0x0100, 0x01)\n  dup2\n  sload\n  dup2\n  0xff\n  mul\n  not\n  and\n  swap1\n  dup4\n  iszero\n  iszero\n  mul\n  or\n  swap1\n  sstore\n  pop\n    /* \"contracts/cropsFarmer.sol\":1202:1214  48 * 60 * 60 */\n  0x02a300\n    /* \"contracts/cropsFarmer.sol\":1173:1214  uint256 public CUTOFF_STEP = 48 * 60 * 60 */\n  0x18\n  sstore\n    /* \"contracts/cropsFarmer.sol\":1252:1263  4 * 60 * 60 */\n  0x3840\n    /* \"contracts/cropsFarmer.sol\":1217:1263  uint256 public WITHDRAW_COOLDOWN = 4 * 60 * 60 */\n  0x19\n  sstore\n    /* \"contracts/cropsFarmer.sol\":2021:2496  constructor(address payable _dev1, address payable _dev2, address payable _dev3, ... */\n  callvalue\n  dup1\n  iszero\n  tag_1\n  jumpi\n  0x00\n  dup1\n  revert\ntag_1:\n  pop\n  mload(0x40)\n  sub(codesize, bytecodeSize)\n  dup1\n  bytecodeSize\n  dup4\n  codecopy\n  dup2\n  dup2\n  add\n  0x40\n  mstore\n  dup2\n  add\n  swap1\n  tag_2\n  swap2\n  swap1\n  tag_3\n  jump\t// in\ntag_2:\n    /* \"contracts/cropsFarmer.sol\":2192:2209  isContract(_dev1) */\n  tag_6\n    /* \"contracts/cropsFarmer.sol\":2203:2208  _dev1 */\n  dup7\n    /* \"contracts/cropsFarmer.sol\":2192:2202  isContract */\n  shl(0x20, tag_7)\n    /* \"contracts/cropsFarmer.sol\":2192:2209  isContract(_dev1) */\n  0x20\n  shr\n  jump\t// in\ntag_6:\n    /* \"contracts/cropsFarmer.sol\":2191:2209  !isContract(_dev1) */\n  iszero\n    /* \"contracts/cropsFarmer.sol\":2191:2231  !isContract(_dev1) && !isContract(_dev2) */\n  dup1\n  iszero\n  tag_8\n  jumpi\n  pop\n    /* \"contracts/cropsFarmer.sol\":2214:2231  isContract(_dev2) */\n  tag_9\n    /* \"contracts/cropsFarmer.sol\":2225:2230  _dev2 */\n  dup6\n    /* \"contracts/cropsFarmer.sol\":2214:2224  isContract */\n  shl(0x20, tag_7)\n    /* \"contracts/cropsFarmer.sol\":2214:2231  isContract(_dev2) */\n  0x20\n  shr\n  jump\t// in\ntag_9:\n    /* \"contracts/cropsFarmer.sol\":2213:2231  !isContract(_dev2) */\n  iszero\n    /* \"contracts/cropsFarmer.sol\":2191:2231  !isContract(_dev1) && !isContract(_dev2) */\ntag_8:\n    /* \"contracts/cropsFarmer.sol\":2191:2253  !isContract(_dev1) && !isContract(_dev2) && !isContract(_dev3) */\n  dup1\n  iszero\n  tag_10\n  jumpi\n  pop\n    /* \"contracts/cropsFarmer.sol\":2236:2253  isContract(_dev3) */\n  tag_11\n    /* \"contracts/cropsFarmer.sol\":2247:2252  _dev3 */\n  dup5\n    /* \"contracts/cropsFarmer.sol\":2236:2246  isContract */\n  shl(0x20, tag_7)\n    /* \"contracts/cropsFarmer.sol\":2236:2253  isContract(_dev3) */\n  0x20\n  shr\n  jump\t// in\ntag_11:\n    /* \"contracts/cropsFarmer.sol\":2235:2253  !isContract(_dev3) */\n  iszero\n    /* \"contracts/cropsFarmer.sol\":2191:2253  !isContract(_dev1) && !isContract(_dev2) && !isContract(_dev3) */\ntag_10:\n    /* \"contracts/cropsFarmer.sol\":2191:2277  !isContract(_dev1) && !isContract(_dev2) && !isContract(_dev3) && !isContract(_prtnr1) */\n  dup1\n  iszero\n  tag_12\n  jumpi\n  pop\n    /* \"contracts/cropsFarmer.sol\":2258:2277  isContract(_prtnr1) */\n  tag_13\n    /* \"contracts/cropsFarmer.sol\":2269:2276  _prtnr1 */\n  dup4\n    /* \"contracts/cropsFarmer.sol\":2258:2268  isContract */\n  shl(0x20, tag_7)\n    /* \"contracts/cropsFarmer.sol\":2258:2277  isContract(_prtnr1) */\n  0x20\n  shr\n  jump\t// in\ntag_13:\n    /* \"contracts/cropsFarmer.sol\":2257:2277  !isContract(_prtnr1) */\n  iszero\n    /* \"contracts/cropsFarmer.sol\":2191:2277  !isContract(_dev1) && !isContract(_dev2) && !isContract(_dev3) && !isContract(_prtnr1) */\ntag_12:\n    /* \"contracts/cropsFarmer.sol\":2191:2301  !isContract(_dev1) && !isContract(_dev2) && !isContract(_dev3) && !isContract(_prtnr1) && !isContract(_prtnr2) */\n  dup1\n  iszero\n  tag_14\n  jumpi\n  pop\n    /* \"contracts/cropsFarmer.sol\":2282:2301  isContract(_prtnr2) */\n  tag_15\n    /* \"contracts/cropsFarmer.sol\":2293:2300  _prtnr2 */\n  dup3\n    /* \"contracts/cropsFarmer.sol\":2282:2292  isContract */\n  shl(0x20, tag_7)\n    /* \"contracts/cropsFarmer.sol\":2282:2301  isContract(_prtnr2) */\n  0x20\n  shr\n  jump\t// in\ntag_15:\n    /* \"contracts/cropsFarmer.sol\":2281:2301  !isContract(_prtnr2) */\n  iszero\n    /* \"contracts/cropsFarmer.sol\":2191:2301  !isContract(_dev1) && !isContract(_dev2) && !isContract(_dev3) && !isContract(_prtnr1) && !isContract(_prtnr2) */\ntag_14:\n    /* \"contracts/cropsFarmer.sol\":2191:2322  !isContract(_dev1) && !isContract(_dev2) && !isContract(_dev3) && !isContract(_prtnr1) && !isContract(_prtnr2) && !isContract(_mkt) */\n  dup1\n  iszero\n  tag_16\n  jumpi\n  pop\n    /* \"contracts/cropsFarmer.sol\":2306:2322  isContract(_mkt) */\n  tag_17\n    /* \"contracts/cropsFarmer.sol\":2317:2321  _mkt */\n  dup2\n    /* \"contracts/cropsFarmer.sol\":2306:2316  isContract */\n  shl(0x20, tag_7)\n    /* \"contracts/cropsFarmer.sol\":2306:2322  isContract(_mkt) */\n  0x20\n  shr\n  jump\t// in\ntag_17:\n    /* \"contracts/cropsFarmer.sol\":2305:2322  !isContract(_mkt) */\n  iszero\n    /* \"contracts/cropsFarmer.sol\":2191:2322  !isContract(_dev1) && !isContract(_dev2) && !isContract(_dev3) && !isContract(_prtnr1) && !isContract(_prtnr2) && !isContract(_mkt) */\ntag_16:\n    /* \"contracts/cropsFarmer.sol\":2183:2323  require(!isContract(_dev1) && !isContract(_dev2) && !isContract(_dev3) && !isContract(_prtnr1) && !isContract(_prtnr2) && !isContract(_mkt)) */\n  tag_18\n  jumpi\n  0x00\n  dup1\n  revert\ntag_18:\n    /* \"contracts/cropsFarmer.sol\":2341:2351  msg.sender */\n  caller\n    /* \"contracts/cropsFarmer.sol\":2333:2338  owner */\n  0x1a\n  0x00\n    /* \"contracts/cropsFarmer.sol\":2333:2351  owner = msg.sender */\n  0x0100\n  exp\n  dup2\n  sload\n  dup2\n  0xffffffffffffffffffffffffffffffffffffffff\n  mul\n  not\n  and\n  swap1\n  dup4\n  0xffffffffffffffffffffffffffffffffffffffff\n  and\n  mul\n  or\n  swap1\n  sstore\n  pop\n    /* \"contracts/cropsFarmer.sol\":2368:2373  _dev1 */\n  dup6\n    /* \"contracts/cropsFarmer.sol\":2361:2365  dev1 */\n  0x1b\n  0x00\n    /* \"contracts/cropsFarmer.sol\":2361:2373  dev1 = _dev1 */\n  0x0100\n  exp\n  dup2\n  sload\n  dup2\n  0xffffffffffffffffffffffffffffffffffffffff\n  mul\n  not\n  and\n  swap1\n  dup4\n  0xffffffffffffffffffffffffffffffffffffffff\n  and\n  mul\n  or\n  swap1\n  sstore\n  pop\n    /* \"contracts/cropsFarmer.sol\":2390:2395  _dev2 */\n  dup5\n    /* \"contracts/cropsFarmer.sol\":2383:2387  dev2 */\n  0x1c\n  0x00\n    /* \"contracts/cropsFarmer.sol\":2383:2395  dev2 = _dev2 */\n  0x0100\n  exp\n  dup2\n  sload\n  dup2\n  0xffffffffffffffffffffffffffffffffffffffff\n  mul\n  not\n  and\n  swap1\n  dup4\n  0xffffffffffffffffffffffffffffffffffffffff\n  and\n  mul\n  or\n  swap1\n  sstore\n  pop\n    /* \"contracts/cropsFarmer.sol\":2412:2417  _dev3 */\n  dup4\n    /* \"contracts/cropsFarmer.sol\":2405:2409  dev3 */\n  0x1d\n  0x00\n    /* \"contracts/cropsFarmer.sol\":2405:2417  dev3 = _dev3 */\n  0x0100\n  exp\n  dup2\n  sload\n  dup2\n  0xffffffffffffffffffffffffffffffffffffffff\n  mul\n  not\n  and\n  swap1\n  dup4\n  0xffffffffffffffffffffffffffffffffffffffff\n  and\n  mul\n  or\n  swap1\n  sstore\n  pop\n    /* \"contracts/cropsFarmer.sol\":2436:2443  _prtnr1 */\n  dup3\n    /* \"contracts/cropsFarmer.sol\":2427:2433  prtnr1 */\n  0x1e\n  0x00\n    /* \"contracts/cropsFarmer.sol\":2427:2443  prtnr1 = _prtnr1 */\n  0x0100\n  exp\n  dup2\n  sload\n  dup2\n  0xffffffffffffffffffffffffffffffffffffffff\n  mul\n  not\n  and\n  swap1\n  dup4\n  0xffffffffffffffffffffffffffffffffffffffff\n  and\n  mul\n  or\n  swap1\n  sstore\n  pop\n    /* \"contracts/cropsFarmer.sol\":2462:2469  _prtnr2 */\n  dup2\n    /* \"contracts/cropsFarmer.sol\":2453:2459  prtnr2 */\n  0x1f\n  0x00\n    /* \"contracts/cropsFarmer.sol\":2453:2469  prtnr2 = _prtnr2 */\n  0x0100\n  exp\n  dup2\n  sload\n  dup2\n  0xffffffffffffffffffffffffffffffffffffffff\n  mul\n  not\n  and\n  swap1\n  dup4\n  0xffffffffffffffffffffffffffffffffffffffff\n  and\n  mul\n  or\n  swap1\n  sstore\n  pop\n    /* \"contracts/cropsFarmer.sol\":2485:2489  _mkt */\n  dup1\n    /* \"contracts/cropsFarmer.sol\":2479:2482  mkt */\n  0x20\n  0x00\n    /* \"contracts/cropsFarmer.sol\":2479:2489  mkt = _mkt */\n  0x0100\n  exp\n  dup2\n  sload\n  dup2\n  0xffffffffffffffffffffffffffffffffffffffff\n  mul\n  not\n  and\n  swap1\n  dup4\n  0xffffffffffffffffffffffffffffffffffffffff\n  and\n  mul\n  or\n  swap1\n  sstore\n  pop\n    /* \"contracts/cropsFarmer.sol\":2021:2496  constructor(address payable _dev1, address payable _dev2, address payable _dev3, ... */\n  pop\n  pop\n  pop\n  pop\n  pop\n  pop\n    /* \"contracts/cropsFarmer.sol\":56:18133  contract BNB_V3 {... */\n  jump(tag_19)\n    /* \"contracts/cropsFarmer.sol\":2499:2660  function isContract(address addr) internal view returns (bool) {... */\ntag_7:\n    /* \"contracts/cropsFarmer.sol\":2556:2560  bool */\n  0x00\n    /* \"contracts/cropsFarmer.sol\":2572:2581  uint size */\n  dup1\n    /* \"contracts/cropsFarmer.sol\":2622:2626  addr */\n  dup3\n    /* \"contracts/cropsFarmer.sol\":2610:2627  extcodesize(addr) */\n  extcodesize\n    /* \"contracts/cropsFarmer.sol\":2602:2627  size := extcodesize(addr) */\n  swap1\n  pop\n    /* \"contracts/cropsFarmer.sol\":2652:2653  0 */\n  0x00\n    /* \"contracts/cropsFarmer.sol\":2645:2649  size */\n  dup2\n    /* \"contracts/cropsFarmer.sol\":2645:2653  size > 0 */\n  gt\n    /* \"contracts/cropsFarmer.sol\":2638:2653  return size > 0 */\n  swap2\n  pop\n  pop\n    /* \"contracts/cropsFarmer.sol\":2499:2660  function isContract(address addr) internal view returns (bool) {... */\n  swap2\n  swap1\n  pop\n  jump\t// out\n    /* \"#utility.yul\":88:205   */\ntag_22:\n    /* \"#utility.yul\":197:198   */\n  0x00\n    /* \"#utility.yul\":194:195   */\n  dup1\n    /* \"#utility.yul\":187:199   */\n  revert\n    /* \"#utility.yul\":334:460   */\ntag_24:\n    /* \"#utility.yul\":371:378   */\n  0x00\n    /* \"#utility.yul\":411:453   */\n  0xffffffffffffffffffffffffffffffffffffffff\n    /* \"#utility.yul\":404:409   */\n  dup3\n    /* \"#utility.yul\":400:454   */\n  and\n    /* \"#utility.yul\":389:454   */\n  swap1\n  pop\n    /* \"#utility.yul\":334:460   */\n  swap2\n  swap1\n  pop\n  jump\t// out\n    /* \"#utility.yul\":466:570   */\ntag_25:\n    /* \"#utility.yul\":511:518   */\n  0x00\n    /* \"#utility.yul\":540:564   */\n  tag_34\n    /* \"#utility.yul\":558:563   */\n  dup3\n    /* \"#utility.yul\":540:564   */\n  tag_24\n  jump\t// in\ntag_34:\n    /* \"#utility.yul\":529:564   */\n  swap1\n  pop\n    /* \"#utility.yul\":466:570   */\n  swap2\n  swap1\n  pop\n  jump\t// out\n    /* \"#utility.yul\":576:714   */\ntag_26:\n    /* \"#utility.yul\":657:689   */\n  tag_36\n    /* \"#utility.yul\":683:688   */\n  dup2\n    /* \"#utility.yul\":657:689   */\n  tag_25\n  jump\t// in\ntag_36:\n    /* \"#utility.yul\":650:655   */\n  dup2\n    /* \"#utility.yul\":647:690   */\n  eq\n    /* \"#utility.yul\":637:708   */\n  tag_37\n  jumpi\n    /* \"#utility.yul\":704:705   */\n  0x00\n    /* \"#utility.yul\":701:702   */\n  dup1\n    /* \"#utility.yul\":694:706   */\n  revert\n    /* \"#utility.yul\":637:708   */\ntag_37:\n    /* \"#utility.yul\":576:714   */\n  pop\n  jump\t// out\n    /* \"#utility.yul\":720:879   */\ntag_27:\n    /* \"#utility.yul\":785:790   */\n  0x00\n    /* \"#utility.yul\":816:822   */\n  dup2\n    /* \"#utility.yul\":810:823   */\n  mload\n    /* \"#utility.yul\":801:823   */\n  swap1\n  pop\n    /* \"#utility.yul\":832:873   */\n  tag_39\n    /* \"#utility.yul\":867:872   */\n  dup2\n    /* \"#utility.yul\":832:873   */\n  tag_26\n  jump\t// in\ntag_39:\n    /* \"#utility.yul\":720:879   */\n  swap3\n  swap2\n  pop\n  pop\n  jump\t// out\n    /* \"#utility.yul\":885:2115   */\ntag_3:\n    /* \"#utility.yul\":1048:1054   */\n  0x00\n    /* \"#utility.yul\":1056:1062   */\n  dup1\n    /* \"#utility.yul\":1064:1070   */\n  0x00\n    /* \"#utility.yul\":1072:1078   */\n  dup1\n    /* \"#utility.yul\":1080:1086   */\n  0x00\n    /* \"#utility.yul\":1088:1094   */\n  dup1\n    /* \"#utility.yul\":1137:1140   */\n  0xc0\n    /* \"#utility.yul\":1125:1134   */\n  dup8\n    /* \"#utility.yul\":1116:1123   */\n  dup10\n    /* \"#utility.yul\":1112:1135   */\n  sub\n    /* \"#utility.yul\":1108:1141   */\n  slt\n    /* \"#utility.yul\":1105:1225   */\n  iszero\n  tag_41\n  jumpi\n    /* \"#utility.yul\":1144:1223   */\n  tag_42\n  tag_22\n  jump\t// in\ntag_42:\n    /* \"#utility.yul\":1105:1225   */\ntag_41:\n    /* \"#utility.yul\":1264:1265   */\n  0x00\n    /* \"#utility.yul\":1289:1361   */\n  tag_43\n    /* \"#utility.yul\":1353:1360   */\n  dup10\n    /* \"#utility.yul\":1344:1350   */\n  dup3\n    /* \"#utility.yul\":1333:1342   */\n  dup11\n    /* \"#utility.yul\":1329:1351   */\n  add\n    /* \"#utility.yul\":1289:1361   */\n  tag_27\n  jump\t// in\ntag_43:\n    /* \"#utility.yul\":1279:1361   */\n  swap7\n  pop\n    /* \"#utility.yul\":1235:1371   */\n  pop\n    /* \"#utility.yul\":1410:1412   */\n  0x20\n    /* \"#utility.yul\":1436:1508   */\n  tag_44\n    /* \"#utility.yul\":1500:1507   */\n  dup10\n    /* \"#utility.yul\":1491:1497   */\n  dup3\n    /* \"#utility.yul\":1480:1489   */\n  dup11\n    /* \"#utility.yul\":1476:1498   */\n  add\n    /* \"#utility.yul\":1436:1508   */\n  tag_27\n  jump\t// in\ntag_44:\n    /* \"#utility.yul\":1426:1508   */\n  swap6\n  pop\n    /* \"#utility.yul\":1381:1518   */\n  pop\n    /* \"#utility.yul\":1557:1559   */\n  0x40\n    /* \"#utility.yul\":1583:1655   */\n  tag_45\n    /* \"#utility.yul\":1647:1654   */\n  dup10\n    /* \"#utility.yul\":1638:1644   */\n  dup3\n    /* \"#utility.yul\":1627:1636   */\n  dup11\n    /* \"#utility.yul\":1623:1645   */\n  add\n    /* \"#utility.yul\":1583:1655   */\n  tag_27\n  jump\t// in\ntag_45:\n    /* \"#utility.yul\":1573:1655   */\n  swap5\n  pop\n    /* \"#utility.yul\":1528:1665   */\n  pop\n    /* \"#utility.yul\":1704:1706   */\n  0x60\n    /* \"#utility.yul\":1730:1802   */\n  tag_46\n    /* \"#utility.yul\":1794:1801   */\n  dup10\n    /* \"#utility.yul\":1785:1791   */\n  dup3\n    /* \"#utility.yul\":1774:1783   */\n  dup11\n    /* \"#utility.yul\":1770:1792   */\n  add\n    /* \"#utility.yul\":1730:1802   */\n  tag_27\n  jump\t// in\ntag_46:\n    /* \"#utility.yul\":1720:1802   */\n  swap4\n  pop\n    /* \"#utility.yul\":1675:1812   */\n  pop\n    /* \"#utility.yul\":1851:1854   */\n  0x80\n    /* \"#utility.yul\":1878:1950   */\n  tag_47\n    /* \"#utility.yul\":1942:1949   */\n  dup10\n    /* \"#utility.yul\":1933:1939   */\n  dup3\n    /* \"#utility.yul\":1922:1931   */\n  dup11\n    /* \"#utility.yul\":1918:1940   */\n  add\n    /* \"#utility.yul\":1878:1950   */\n  tag_27\n  jump\t// in\ntag_47:\n    /* \"#utility.yul\":1868:1950   */\n  swap3\n  pop\n    /* \"#utility.yul\":1822:1960   */\n  pop\n    /* \"#utility.yul\":1999:2002   */\n  0xa0\n    /* \"#utility.yul\":2026:2098   */\n  tag_48\n    /* \"#utility.yul\":2090:2097   */\n  dup10\n    /* \"#utility.yul\":2081:2087   */\n  dup3\n    /* \"#utility.yul\":2070:2079   */\n  dup11\n    /* \"#utility.yul\":2066:2088   */\n  add\n    /* \"#utility.yul\":2026:2098   */\n  tag_27\n  jump\t// in\ntag_48:\n    /* \"#utility.yul\":2016:2098   */\n  swap2\n  pop\n    /* \"#utility.yul\":1970:2108   */\n  pop\n    /* \"#utility.yul\":885:2115   */\n  swap3\n  swap6\n  pop\n  swap3\n  swap6\n  pop\n  swap3\n  swap6\n  jump\t// out\n    /* \"contracts/cropsFarmer.sol\":56:18133  contract BNB_V3 {... */\ntag_19:\n  dataSize(sub_0)\n  dup1\n  dataOffset(sub_0)\n  0x00\n  codecopy\n  0x00\n  return\nstop\n\nsub_0: assembly {\n        /* \"contracts/cropsFarmer.sol\":56:18133  contract BNB_V3 {... */\n      mstore(0x40, 0x80)\n      jumpi(tag_1, lt(calldatasize, 0x04))\n      shr(0xe0, calldataload(0x00))\n      dup1\n      0x7cc5b1e6\n      gt\n      tag_74\n      jumpi\n      dup1\n      0xbd097e21\n      gt\n      tag_75\n      jumpi\n      dup1\n      0xd7c8843b\n      gt\n      tag_76\n      jumpi\n      dup1\n      0xe6dc9558\n      gt\n      tag_77\n      jumpi\n      dup1\n      0xe6dc9558\n      eq\n      tag_69\n      jumpi\n      dup1\n      0xe7576943\n      eq\n      tag_70\n      jumpi\n      dup1\n      0xeb271268\n      eq\n      tag_71\n      jumpi\n      dup1\n      0xf6f62886\n      eq\n      tag_72\n      jumpi\n      dup1\n      0xffa4e618\n      eq\n      tag_73\n      jumpi\n      jump(tag_1)\n    tag_77:\n      dup1\n      0xd7c8843b\n      eq\n      tag_65\n      jumpi\n      dup1\n      0xd989b4b3\n      eq\n      tag_66\n      jumpi\n      dup1\n      0xda235b22\n      eq\n      tag_67\n      jumpi\n      dup1\n      0xda5d4cc5\n      eq\n      tag_68\n      jumpi\n      jump(tag_1)\n    tag_76:\n      dup1\n      0xc63568c7\n      gt\n      tag_78\n      jumpi\n      dup1\n      0xc63568c7\n      eq\n      tag_60\n      jumpi\n      dup1\n      0xc688f0fb\n      eq\n      tag_61\n      jumpi\n      dup1\n      0xcc3e9c78\n      eq\n      tag_62\n      jumpi\n      dup1\n      0xcd329fc3\n      eq\n      tag_63\n      jumpi\n      dup1\n      0xd7206d5d\n      eq\n      tag_64\n      jumpi\n      jump(tag_1)\n    tag_78:\n      dup1\n      0xbd097e21\n      eq\n      tag_56\n      jumpi\n      dup1\n      0xbdd1ca27\n      eq\n      tag_57\n      jumpi\n      dup1\n      0xbfa9f304\n      eq\n      tag_58\n      jumpi\n      dup1\n      0xc3251b40\n      eq\n      tag_59\n      jumpi\n      jump(tag_1)\n    tag_75:\n      dup1\n      0x8e316327\n      gt\n      tag_79\n      jumpi\n      dup1\n      0x9e9300a5\n      gt\n      tag_80\n      jumpi\n      dup1\n      0x9e9300a5\n      eq\n      tag_51\n      jumpi\n      dup1\n      0xa327c45d\n      eq\n      tag_52\n      jumpi\n      dup1\n      0xa87430ba\n      eq\n      tag_53\n      jumpi\n      dup1\n      0xac4b3c04\n      eq\n      tag_54\n      jumpi\n      dup1\n      0xb6e6fcf6\n      eq\n      tag_55\n      jumpi\n      jump(tag_1)\n    tag_80:\n      dup1\n      0x8e316327\n      eq\n      tag_47\n      jumpi\n      dup1\n      0x950d91e9\n      eq\n      tag_48\n      jumpi\n      dup1\n      0x959c95b3\n      eq\n      tag_49\n      jumpi\n      dup1\n      0x9b9cb69f\n      eq\n      tag_50\n      jumpi\n      jump(tag_1)\n    tag_79:\n      dup1\n      0x7ee28e3c\n      gt\n      tag_81\n      jumpi\n      dup1\n      0x7ee28e3c\n      eq\n      tag_42\n      jumpi\n      dup1\n      0x8013f3a7\n      eq\n      tag_43\n      jumpi\n      dup1\n      0x817b1cd2\n      eq\n      tag_44\n      jumpi\n      dup1\n      0x8a315efd\n      eq\n      tag_45\n      jumpi\n      dup1\n      0x8da5cb5b\n      eq\n      tag_46\n      jumpi\n      jump(tag_1)\n    tag_81:\n      dup1\n      0x7cc5b1e6\n      eq\n      tag_38\n      jumpi\n      dup1\n      0x7d882097\n      eq\n      tag_39\n      jumpi\n      dup1\n      0x7db07c9d\n      eq\n      tag_40\n      jumpi\n      dup1\n      0x7e56fde5\n      eq\n      tag_41\n      jumpi\n      jump(tag_1)\n    tag_74:\n      dup1\n      0x43ce7422\n      gt\n      tag_82\n      jumpi\n      dup1\n      0x59eec895\n      gt\n      tag_83\n      jumpi\n      dup1\n      0x69b11dd5\n      gt\n      tag_84\n      jumpi\n      dup1\n      0x69b11dd5\n      eq\n      tag_33\n      jumpi\n      dup1\n      0x6f969d28\n      eq\n      tag_34\n      jumpi\n      dup1\n      0x752a2628\n      eq\n      tag_35\n      jumpi\n      dup1\n      0x7a62ead7\n      eq\n      tag_36\n      jumpi\n      dup1\n      0x7c8e4b4c\n      eq\n      tag_37\n      jumpi\n      jump(tag_1)\n    tag_84:\n      dup1\n      0x59eec895\n      eq\n      tag_29\n      jumpi\n      dup1\n      0x6386c1c7\n      eq\n      tag_30\n      jumpi\n      dup1\n      0x64c03a5e\n      eq\n      tag_31\n      jumpi\n      dup1\n      0x68f58b03\n      eq\n      tag_32\n      jumpi\n      jump(tag_1)\n    tag_83:\n      dup1\n      0x4ce87053\n      gt\n      tag_85\n      jumpi\n      dup1\n      0x4ce87053\n      eq\n      tag_24\n      jumpi\n      dup1\n      0x50637dbd\n      eq\n      tag_25\n      jumpi\n      dup1\n      0x50cf1c7a\n      eq\n      tag_26\n      jumpi\n      dup1\n      0x570c2979\n      eq\n      tag_27\n      jumpi\n      dup1\n      0x57386225\n      eq\n      tag_28\n      jumpi\n      jump(tag_1)\n    tag_85:\n      dup1\n      0x43ce7422\n      eq\n      tag_20\n      jumpi\n      dup1\n      0x45a6a6e0\n      eq\n      tag_21\n      jumpi\n      dup1\n      0x45f98c29\n      eq\n      tag_22\n      jumpi\n      dup1\n      0x4b319713\n      eq\n      tag_23\n      jumpi\n      jump(tag_1)\n    tag_82:\n      dup1\n      0x229824c4\n      gt\n      tag_86\n      jumpi\n      dup1\n      0x2b039d0e\n      gt\n      tag_87\n      jumpi\n      dup1\n      0x2b039d0e\n      eq\n      tag_15\n      jumpi\n      dup1\n      0x2bc82f7f\n      eq\n      tag_16\n      jumpi\n      dup1\n      0x2e9392bb\n      eq\n      tag_17\n      jumpi\n      dup1\n      0x333f57b3\n      eq\n      tag_18\n      jumpi\n      dup1\n      0x3578584f\n      eq\n      tag_19\n      jumpi\n      jump(tag_1)\n    tag_87:\n      dup1\n      0x229824c4\n      eq\n      tag_11\n      jumpi\n      dup1\n      0x2362ce89\n      eq\n      tag_12\n      jumpi\n      dup1\n      0x26fd8422\n      eq\n      tag_13\n      jumpi\n      dup1\n      0x298ea310\n      eq\n      tag_14\n      jumpi\n      jump(tag_1)\n    tag_86:\n      dup1\n      0x12065fe0\n      gt\n      tag_88\n      jumpi\n      dup1\n      0x12065fe0\n      eq\n      tag_6\n      jumpi\n      dup1\n      0x1848b8dc\n      eq\n      tag_7\n      jumpi\n      dup1\n      0x18c819d8\n      eq\n      tag_8\n      jumpi\n      dup1\n      0x195a7339\n      eq\n      tag_9\n      jumpi\n      dup1\n      0x1a7b8d4f\n      eq\n      tag_10\n      jumpi\n      jump(tag_1)\n    tag_88:\n      dup1\n      0x01c234a8\n      eq\n      tag_2\n      jumpi\n      dup1\n      0x0420c98e\n      eq\n      tag_3\n      jumpi\n      dup1\n      0x07aeb7f0\n      eq\n      tag_4\n      jumpi\n      dup1\n      0x0a76e5ed\n      eq\n      tag_5\n      jumpi\n    tag_1:\n      0x00\n      dup1\n      revert\n        /* \"contracts/cropsFarmer.sol\":224:262  uint256 public PERCENTS_DIVIDER = 1000 */\n    tag_2:\n      callvalue\n      dup1\n      iszero\n      tag_89\n      jumpi\n      0x00\n      dup1\n      revert\n    tag_89:\n      pop\n      tag_90\n      tag_91\n      jump\t// in\n    tag_90:\n      mload(0x40)\n      tag_92\n      swap2\n      swap1\n      tag_93\n      jump\t// in\n    tag_92:\n      mload(0x40)\n      dup1\n      swap2\n      sub\n      swap1\n      return\n        /* \"contracts/cropsFarmer.sol\":648:683  uint256 public WITHDRAWAL_TAX = 350 */\n    tag_3:\n      callvalue\n      dup1\n      iszero\n      tag_94\n      jumpi\n      0x00\n      dup1\n      revert\n    tag_94:\n      pop\n      tag_95\n      tag_96\n      jump\t// in\n    tag_95:\n      mload(0x40)\n      tag_97\n      swap2\n      swap1\n      tag_93\n      jump\t// in\n    tag_97:\n      mload(0x40)\n      dup1\n      swap2\n      sub\n      swap1\n      return\n        /* \"contracts/cropsFarmer.sol\":1415:1444  address payable public prtnr1 */\n    tag_4:\n      callvalue\n      dup1\n      iszero\n      tag_98\n      jumpi\n      0x00\n      dup1\n      revert\n    tag_98:\n      pop\n      tag_99\n      tag_100\n      jump\t// in\n    tag_99:\n      mload(0x40)\n      tag_101\n      swap2\n      swap1\n      tag_102\n      jump\t// in\n    tag_101:\n      mload(0x40)\n      dup1\n      swap2\n      sub\n      swap1\n      return\n        /* \"contracts/cropsFarmer.sol\":13473:13572  function getMyMiners() public view returns(uint256){... */\n    tag_5:\n      callvalue\n      dup1\n      iszero\n      tag_103\n      jumpi\n      0x00\n      dup1\n      revert\n    tag_103:\n      pop\n      tag_104\n      tag_105\n      jump\t// in\n    tag_104:\n      mload(0x40)\n      tag_106\n      swap2\n      swap1\n      tag_93\n      jump\t// in\n    tag_106:\n      mload(0x40)\n      dup1\n      swap2\n      sub\n      swap1\n      return\n        /* \"contracts/cropsFarmer.sol\":11230:11325  function getBalance() public view returns(uint256){... */\n    tag_6:\n      callvalue\n      dup1\n      iszero\n      tag_107\n      jumpi\n      0x00\n      dup1\n      revert\n    tag_107:\n      pop\n      tag_108\n      tag_109\n      jump\t// in\n    tag_108:\n      mload(0x40)\n      tag_110\n      swap2\n      swap1\n      tag_93\n      jump\t// in\n    tag_110:\n      mload(0x40)\n      dup1\n      swap2\n      sub\n      swap1\n      return\n        /* \"contracts/cropsFarmer.sol\":444:491  uint256 public WALLET_DEPOSIT_LIMIT = 25 * 1e18 */\n    tag_7:\n      callvalue\n      dup1\n      iszero\n      tag_111\n      jumpi\n      0x00\n      dup1\n      revert\n    tag_111:\n      pop\n      tag_112\n      tag_113\n      jump\t// in\n    tag_112:\n      mload(0x40)\n      tag_114\n      swap2\n      swap1\n      tag_93\n      jump\t// in\n    tag_114:\n      mload(0x40)\n      dup1\n      swap2\n      sub\n      swap1\n      return\n        /* \"contracts/cropsFarmer.sol\":3886:5140  function hireMoreFarmers(bool isCompound) public {... */\n    tag_8:\n      callvalue\n      dup1\n      iszero\n      tag_115\n      jumpi\n      0x00\n      dup1\n      revert\n    tag_115:\n      pop\n      tag_116\n      0x04\n      dup1\n      calldatasize\n      sub\n      dup2\n      add\n      swap1\n      tag_117\n      swap2\n      swap1\n      tag_118\n      jump\t// in\n    tag_117:\n      tag_119\n      jump\t// in\n    tag_116:\n      stop\n        /* \"contracts/cropsFarmer.sol\":139:184  uint256 public EGGS_TO_HIRE_1MINERS = 1440000 */\n    tag_9:\n      callvalue\n      dup1\n      iszero\n      tag_120\n      jumpi\n      0x00\n      dup1\n      revert\n    tag_120:\n      pop\n      tag_121\n      tag_122\n      jump\t// in\n    tag_121:\n      mload(0x40)\n      tag_123\n      swap2\n      swap1\n      tag_93\n      jump\t// in\n    tag_123:\n      mload(0x40)\n      dup1\n      swap2\n      sub\n      swap1\n      return\n        /* \"contracts/cropsFarmer.sol\":15868:16024  function PRC_MKT(uint256 value) external {... */\n    tag_10:\n      callvalue\n      dup1\n      iszero\n      tag_124\n      jumpi\n      0x00\n      dup1\n      revert\n    tag_124:\n      pop\n      tag_125\n      0x04\n      dup1\n      calldatasize\n      sub\n      dup2\n      add\n      swap1\n      tag_126\n      swap2\n      swap1\n      tag_127\n      jump\t// in\n    tag_126:\n      tag_128\n      jump\t// in\n    tag_125:\n      stop\n        /* \"contracts/cropsFarmer.sol\":11644:12092  function calculateTrade(uint256 rt,uint256 rs, uint256 bs) public view returns(uint256){... */\n    tag_11:\n      callvalue\n      dup1\n      iszero\n      tag_129\n      jumpi\n      0x00\n      dup1\n      revert\n    tag_129:\n      pop\n      tag_130\n      0x04\n      dup1\n      calldatasize\n      sub\n      dup2\n      add\n      swap1\n      tag_131\n      swap2\n      swap1\n      tag_132\n      jump\t// in\n    tag_131:\n      tag_133\n      jump\t// in\n    tag_130:\n      mload(0x40)\n      tag_134\n      swap2\n      swap1\n      tag_93\n      jump\t// in\n    tag_134:\n      mload(0x40)\n      dup1\n      swap2\n      sub\n      swap1\n      return\n        /* \"contracts/cropsFarmer.sol\":1382:1409  address payable public dev3 */\n    tag_12:\n      callvalue\n      dup1\n      iszero\n      tag_135\n      jumpi\n      0x00\n      dup1\n      revert\n    tag_135:\n      pop\n      tag_136\n      tag_137\n      jump\t// in\n    tag_136:\n      mload(0x40)\n      tag_138\n      swap2\n      swap1\n      tag_102\n      jump\t// in\n    tag_138:\n      mload(0x40)\n      dup1\n      swap2\n      sub\n      swap1\n      return\n        /* \"contracts/cropsFarmer.sol\":12242:12404  function calculateEggBuy(uint256 eth,uint256 contractBalance) public view returns(uint256){... */\n    tag_13:\n      callvalue\n      dup1\n      iszero\n      tag_139\n      jumpi\n      0x00\n      dup1\n      revert\n    tag_139:\n      pop\n      tag_140\n      0x04\n      dup1\n      calldatasize\n      sub\n      dup2\n      add\n      swap1\n      tag_141\n      swap2\n      swap1\n      tag_142\n      jump\t// in\n    tag_141:\n      tag_143\n      jump\t// in\n    tag_140:\n      mload(0x40)\n      tag_144\n      swap2\n      swap1\n      tag_93\n      jump\t// in\n    tag_144:\n      mload(0x40)\n      dup1\n      swap2\n      sub\n      swap1\n      return\n        /* \"contracts/cropsFarmer.sol\":15706:15862  function PRC_TAX(uint256 value) external {... */\n    tag_14:\n      callvalue\n      dup1\n      iszero\n      tag_145\n      jumpi\n      0x00\n      dup1\n      revert\n    tag_145:\n      pop\n      tag_146\n      0x04\n      dup1\n      calldatasize\n      sub\n      dup2\n      add\n      swap1\n      tag_147\n      swap2\n      swap1\n      tag_127\n      jump\t// in\n    tag_147:\n      tag_148\n      jump\t// in\n    tag_146:\n      stop\n        /* \"contracts/cropsFarmer.sol\":14246:14383  function CHANGE_OWNERSHIP(address value) external {... */\n    tag_15:\n      callvalue\n      dup1\n      iszero\n      tag_149\n      jumpi\n      0x00\n      dup1\n      revert\n    tag_149:\n      pop\n      tag_150\n      0x04\n      dup1\n      calldatasize\n      sub\n      dup2\n      add\n      swap1\n      tag_151\n      swap2\n      swap1\n      tag_152\n      jump\t// in\n    tag_151:\n      tag_153\n      jump\t// in\n    tag_150:\n      stop\n        /* \"contracts/cropsFarmer.sol\":296:319  uint256 public MKT = 12 */\n    tag_16:\n      callvalue\n      dup1\n      iszero\n      tag_154\n      jumpi\n      0x00\n      dup1\n      revert\n    tag_154:\n      pop\n      tag_155\n      tag_156\n      jump\t// in\n    tag_155:\n      mload(0x40)\n      tag_157\n      swap2\n      swap1\n      tag_93\n      jump\t// in\n    tag_157:\n      mload(0x40)\n      dup1\n      swap2\n      sub\n      swap1\n      return\n        /* \"contracts/cropsFarmer.sol\":921:946  uint256 public marketEggs */\n    tag_17:\n      callvalue\n      dup1\n      iszero\n      tag_158\n      jumpi\n      0x00\n      dup1\n      revert\n    tag_158:\n      pop\n      tag_159\n      tag_160\n      jump\t// in\n    tag_159:\n      mload(0x40)\n      tag_161\n      swap2\n      swap1\n      tag_93\n      jump\t// in\n    tag_161:\n      mload(0x40)\n      dup1\n      swap2\n      sub\n      swap1\n      return\n        /* \"contracts/cropsFarmer.sol\":1002:1029  bool public contractStarted */\n    tag_18:\n      callvalue\n      dup1\n      iszero\n      tag_162\n      jumpi\n      0x00\n      dup1\n      revert\n    tag_162:\n      pop\n      tag_163\n      tag_164\n      jump\t// in\n    tag_163:\n      mload(0x40)\n      tag_165\n      swap2\n      swap1\n      tag_166\n      jump\t// in\n    tag_165:\n      mload(0x40)\n      dup1\n      swap2\n      sub\n      swap1\n      return\n        /* \"contracts/cropsFarmer.sol\":1173:1214  uint256 public CUTOFF_STEP = 48 * 60 * 60 */\n    tag_19:\n      callvalue\n      dup1\n      iszero\n      tag_167\n      jumpi\n      0x00\n      dup1\n      revert\n    tag_167:\n      pop\n      tag_168\n      tag_169\n      jump\t// in\n    tag_168:\n      mload(0x40)\n      tag_170\n      swap2\n      swap1\n      tag_93\n      jump\t// in\n    tag_170:\n      mload(0x40)\n      dup1\n      swap2\n      sub\n      swap1\n      return\n        /* \"contracts/cropsFarmer.sol\":13578:13719  function getMyEggs() public view returns(uint256){... */\n    tag_20:\n      callvalue\n      dup1\n      iszero\n      tag_171\n      jumpi\n      0x00\n      dup1\n      revert\n    tag_171:\n      pop\n      tag_172\n      tag_173\n      jump\t// in\n    tag_172:\n      mload(0x40)\n      tag_174\n      swap2\n      swap1\n      tag_93\n      jump\t// in\n    tag_174:\n      mload(0x40)\n      dup1\n      swap2\n      sub\n      swap1\n      return\n        /* \"contracts/cropsFarmer.sol\":17513:17706  function SET_WITHDRAW_COOLDOWN(uint256 value) external {... */\n    tag_21:\n      callvalue\n      dup1\n      iszero\n      tag_175\n      jumpi\n      0x00\n      dup1\n      revert\n    tag_175:\n      pop\n      tag_176\n      0x04\n      dup1\n      calldatasize\n      sub\n      dup2\n      add\n      swap1\n      tag_177\n      swap2\n      swap1\n      tag_127\n      jump\t// in\n    tag_177:\n      tag_178\n      jump\t// in\n    tag_176:\n      stop\n        /* \"contracts/cropsFarmer.sol\":17205:17350  function SET_INVEST_MIN(uint256 value) external {... */\n    tag_22:\n      callvalue\n      dup1\n      iszero\n      tag_179\n      jumpi\n      0x00\n      dup1\n      revert\n    tag_179:\n      pop\n      tag_180\n      0x04\n      dup1\n      calldatasize\n      sub\n      dup2\n      add\n      swap1\n      tag_181\n      swap2\n      swap1\n      tag_127\n      jump\t// in\n    tag_181:\n      tag_182\n      jump\t// in\n    tag_180:\n      stop\n        /* \"contracts/cropsFarmer.sol\":885:914  uint256 public totalWithdrawn */\n    tag_23:\n      callvalue\n      dup1\n      iszero\n      tag_183\n      jumpi\n      0x00\n      dup1\n      revert\n    tag_183:\n      pop\n      tag_184\n      tag_185\n      jump\t// in\n    tag_184:\n      mload(0x40)\n      tag_186\n      swap2\n      swap1\n      tag_93\n      jump\t// in\n    tag_186:\n      mload(0x40)\n      dup1\n      swap2\n      sub\n      swap1\n      return\n        /* \"contracts/cropsFarmer.sol\":13247:13467  function getSiteInfo() public view returns (uint256 _totalStaked, uint256 _totalDeposits, uint256 _totalCompound, uint256 _totalRefBonus) {... */\n    tag_24:\n      callvalue\n      dup1\n      iszero\n      tag_187\n      jumpi\n      0x00\n      dup1\n      revert\n    tag_187:\n      pop\n      tag_188\n      tag_189\n      jump\t// in\n    tag_188:\n      mload(0x40)\n      tag_190\n      swap5\n      swap4\n      swap3\n      swap2\n      swap1\n      tag_191\n      jump\t// in\n    tag_190:\n      mload(0x40)\n      dup1\n      swap2\n      sub\n      swap1\n      return\n        /* \"contracts/cropsFarmer.sol\":9795:10178  function getDailyCompoundBonus(address _adr, uint256 amount) public view returns(uint256){... */\n    tag_25:\n      callvalue\n      dup1\n      iszero\n      tag_192\n      jumpi\n      0x00\n      dup1\n      revert\n    tag_192:\n      pop\n      tag_193\n      0x04\n      dup1\n      calldatasize\n      sub\n      dup2\n      add\n      swap1\n      tag_194\n      swap2\n      swap1\n      tag_195\n      jump\t// in\n    tag_194:\n      tag_196\n      jump\t// in\n    tag_193:\n      mload(0x40)\n      tag_197\n      swap2\n      swap1\n      tag_93\n      jump\t// in\n    tag_197:\n      mload(0x40)\n      dup1\n      swap2\n      sub\n      swap1\n      return\n        /* \"contracts/cropsFarmer.sol\":7512:9365  function hireFarmers(address ref) public payable{... */\n    tag_26:\n      tag_198\n      0x04\n      dup1\n      calldatasize\n      sub\n      dup2\n      add\n      swap1\n      tag_199\n      swap2\n      swap1\n      tag_152\n      jump\t// in\n    tag_199:\n      tag_200\n      jump\t// in\n    tag_198:\n      stop\n        /* \"contracts/cropsFarmer.sol\":16030:16212  function PRC_REFERRAL(uint256 value) external {... */\n    tag_27:\n      callvalue\n      dup1\n      iszero\n      tag_201\n      jumpi\n      0x00\n      dup1\n      revert\n    tag_201:\n      pop\n      tag_202\n      0x04\n      dup1\n      calldatasize\n      sub\n      dup2\n      add\n      swap1\n      tag_203\n      swap2\n      swap1\n      tag_127\n      jump\t// in\n    tag_203:\n      tag_204\n      jump\t// in\n    tag_202:\n      stop\n        /* \"contracts/cropsFarmer.sol\":5146:6603  function sellCrops() public{... */\n    tag_28:\n      callvalue\n      dup1\n      iszero\n      tag_205\n      jumpi\n      0x00\n      dup1\n      revert\n    tag_205:\n      pop\n      tag_206\n      tag_207\n      jump\t// in\n    tag_206:\n      stop\n        /* \"contracts/cropsFarmer.sol\":325:363  uint256 public MARKET_EGGS_DIVISOR = 2 */\n    tag_29:\n      callvalue\n      dup1\n      iszero\n      tag_208\n      jumpi\n      0x00\n      dup1\n      revert\n    tag_208:\n      pop\n      tag_209\n      tag_210\n      jump\t// in\n    tag_209:\n      mload(0x40)\n      tag_211\n      swap2\n      swap1\n      tag_93\n      jump\t// in\n    tag_211:\n      mload(0x40)\n      dup1\n      swap2\n      sub\n      swap1\n      return\n        /* \"contracts/cropsFarmer.sol\":10184:11224  function getUserInfo(address _adr) public view returns(uint256 _initialDeposit, uint256 _userDeposit, uint256 _miners,... */\n    tag_30:\n      callvalue\n      dup1\n      iszero\n      tag_212\n      jumpi\n      0x00\n      dup1\n      revert\n    tag_212:\n      pop\n      tag_213\n      0x04\n      dup1\n      calldatasize\n      sub\n      dup2\n      add\n      swap1\n      tag_214\n      swap2\n      swap1\n      tag_152\n      jump\t// in\n    tag_214:\n      tag_215\n      jump\t// in\n    tag_213:\n      mload(0x40)\n      tag_216\n      swap13\n      swap12\n      swap11\n      swap10\n      swap9\n      swap8\n      swap7\n      swap6\n      swap5\n      swap4\n      swap3\n      swap2\n      swap1\n      tag_217\n      jump\t// in\n    tag_216:\n      mload(0x40)\n      dup1\n      swap2\n      sub\n      swap1\n      return\n        /* \"contracts/cropsFarmer.sol\":11430:11638  function getAvailableEarnings(address _adr) public view returns(uint256) {... */\n    tag_31:\n      callvalue\n      dup1\n      iszero\n      tag_218\n      jumpi\n      0x00\n      dup1\n      revert\n    tag_218:\n      pop\n      tag_219\n      0x04\n      dup1\n      calldatasize\n      sub\n      dup2\n      add\n      swap1\n      tag_220\n      swap2\n      swap1\n      tag_152\n      jump\t// in\n    tag_220:\n      tag_221\n      jump\t// in\n    tag_219:\n      mload(0x40)\n      tag_222\n      swap2\n      swap1\n      tag_93\n      jump\t// in\n    tag_222:\n      mload(0x40)\n      dup1\n      swap2\n      sub\n      swap1\n      return\n        /* \"contracts/cropsFarmer.sol\":268:290  uint256 public TAX = 9 */\n    tag_32:\n      callvalue\n      dup1\n      iszero\n      tag_223\n      jumpi\n      0x00\n      dup1\n      revert\n    tag_223:\n      pop\n      tag_224\n      tag_225\n      jump\t// in\n    tag_224:\n      mload(0x40)\n      tag_226\n      swap2\n      swap1\n      tag_93\n      jump\t// in\n    tag_226:\n      mload(0x40)\n      dup1\n      swap2\n      sub\n      swap1\n      return\n        /* \"contracts/cropsFarmer.sol\":851:879  uint256 public totalRefBonus */\n    tag_33:\n      callvalue\n      dup1\n      iszero\n      tag_227\n      jumpi\n      0x00\n      dup1\n      revert\n    tag_227:\n      pop\n      tag_228\n      tag_229\n      jump\t// in\n    tag_228:\n      mload(0x40)\n      tag_230\n      swap2\n      swap1\n      tag_93\n      jump\t// in\n    tag_230:\n      mload(0x40)\n      dup1\n      swap2\n      sub\n      swap1\n      return\n        /* \"contracts/cropsFarmer.sol\":16597:16793  function BONUS_DAILY_COMPOUND(uint256 value) external {... */\n    tag_34:\n      callvalue\n      dup1\n      iszero\n      tag_231\n      jumpi\n      0x00\n      dup1\n      revert\n    tag_231:\n      pop\n      tag_232\n      0x04\n      dup1\n      calldatasize\n      sub\n      dup2\n      add\n      swap1\n      tag_233\n      swap2\n      swap1\n      tag_127\n      jump\t// in\n    tag_233:\n      tag_234\n      jump\t// in\n    tag_232:\n      stop\n        /* \"contracts/cropsFarmer.sol\":598:641  uint256 public COMPOUND_STEP = 12 * 60 * 60 */\n    tag_35:\n      callvalue\n      dup1\n      iszero\n      tag_235\n      jumpi\n      0x00\n      dup1\n      revert\n    tag_235:\n      pop\n      tag_236\n      tag_237\n      jump\t// in\n    tag_236:\n      mload(0x40)\n      tag_238\n      swap2\n      swap1\n      tag_93\n      jump\t// in\n    tag_238:\n      mload(0x40)\n      dup1\n      swap2\n      sub\n      swap1\n      return\n        /* \"contracts/cropsFarmer.sol\":16218:16406  function PRC_MARKET_EGGS_DIVISOR(uint256 value) external {... */\n    tag_36:\n      callvalue\n      dup1\n      iszero\n      tag_239\n      jumpi\n      0x00\n      dup1\n      revert\n    tag_239:\n      pop\n      tag_240\n      0x04\n      dup1\n      calldatasize\n      sub\n      dup2\n      add\n      swap1\n      tag_241\n      swap2\n      swap1\n      tag_127\n      jump\t// in\n    tag_241:\n      tag_242\n      jump\t// in\n    tag_240:\n      stop\n        /* \"contracts/cropsFarmer.sol\":17356:17507  function SET_CUTOFF_STEP(uint256 value) external {... */\n    tag_37:\n      callvalue\n      dup1\n      iszero\n      tag_243\n      jumpi\n      0x00\n      dup1\n      revert\n    tag_243:\n      pop\n      tag_244\n      0x04\n      dup1\n      calldatasize\n      sub\n      dup2\n      add\n      swap1\n      tag_245\n      swap2\n      swap1\n      tag_127\n      jump\t// in\n    tag_245:\n      tag_246\n      jump\t// in\n    tag_244:\n      stop\n        /* \"contracts/cropsFarmer.sol\":1485:1511  address payable public mkt */\n    tag_38:\n      callvalue\n      dup1\n      iszero\n      tag_247\n      jumpi\n      0x00\n      dup1\n      revert\n    tag_247:\n      pop\n      tag_248\n      tag_249\n      jump\t// in\n    tag_248:\n      mload(0x40)\n      tag_250\n      swap2\n      swap1\n      tag_102\n      jump\t// in\n    tag_250:\n      mload(0x40)\n      dup1\n      swap2\n      sub\n      swap1\n      return\n        /* \"contracts/cropsFarmer.sol\":783:811  uint256 public totalDeposits */\n    tag_39:\n      callvalue\n      dup1\n      iszero\n      tag_251\n      jumpi\n      0x00\n      dup1\n      revert\n    tag_251:\n      pop\n      tag_252\n      tag_253\n      jump\t// in\n    tag_252:\n      mload(0x40)\n      tag_254\n      swap2\n      swap1\n      tag_93\n      jump\t// in\n    tag_254:\n      mload(0x40)\n      dup1\n      swap2\n      sub\n      swap1\n      return\n        /* \"contracts/cropsFarmer.sol\":817:845  uint256 public totalCompound */\n    tag_40:\n      callvalue\n      dup1\n      iszero\n      tag_255\n      jumpi\n      0x00\n      dup1\n      revert\n    tag_255:\n      pop\n      tag_256\n      tag_257\n      jump\t// in\n    tag_256:\n      mload(0x40)\n      tag_258\n      swap2\n      swap1\n      tag_93\n      jump\t// in\n    tag_258:\n      mload(0x40)\n      dup1\n      swap2\n      sub\n      swap1\n      return\n        /* \"contracts/cropsFarmer.sol\":12410:12540  function calculateEggBuySimple(uint256 eth) public view returns(uint256){... */\n    tag_41:\n      callvalue\n      dup1\n      iszero\n      tag_259\n      jumpi\n      0x00\n      dup1\n      revert\n    tag_259:\n      pop\n      tag_260\n      0x04\n      dup1\n      calldatasize\n      sub\n      dup2\n      add\n      swap1\n      tag_261\n      swap2\n      swap1\n      tag_127\n      jump\t// in\n    tag_261:\n      tag_262\n      jump\t// in\n    tag_260:\n      mload(0x40)\n      tag_263\n      swap2\n      swap1\n      tag_93\n      jump\t// in\n    tag_263:\n      mload(0x40)\n      dup1\n      swap2\n      sub\n      swap1\n      return\n        /* \"contracts/cropsFarmer.sol\":17712:17911  function SET_WALLET_DEPOSIT_LIMIT(uint256 value) external {... */\n    tag_42:\n      callvalue\n      dup1\n      iszero\n      tag_264\n      jumpi\n      0x00\n      dup1\n      revert\n    tag_264:\n      pop\n      tag_265\n      0x04\n      dup1\n      calldatasize\n      sub\n      dup2\n      add\n      swap1\n      tag_266\n      swap2\n      swap1\n      tag_127\n      jump\t// in\n    tag_266:\n      tag_267\n      jump\t// in\n    tag_265:\n      stop\n        /* \"contracts/cropsFarmer.sol\":1349:1376  address payable public dev2 */\n    tag_43:\n      callvalue\n      dup1\n      iszero\n      tag_268\n      jumpi\n      0x00\n      dup1\n      revert\n    tag_268:\n      pop\n      tag_269\n      tag_270\n      jump\t// in\n    tag_269:\n      mload(0x40)\n      tag_271\n      swap2\n      swap1\n      tag_102\n      jump\t// in\n    tag_271:\n      mload(0x40)\n      dup1\n      swap2\n      sub\n      swap1\n      return\n        /* \"contracts/cropsFarmer.sol\":751:777  uint256 public totalStaked */\n    tag_44:\n      callvalue\n      dup1\n      iszero\n      tag_272\n      jumpi\n      0x00\n      dup1\n      revert\n    tag_272:\n      pop\n      tag_273\n      tag_274\n      jump\t// in\n    tag_273:\n      mload(0x40)\n      tag_275\n      swap2\n      swap1\n      tag_93\n      jump\t// in\n    tag_275:\n      mload(0x40)\n      dup1\n      swap2\n      sub\n      swap1\n      return\n        /* \"contracts/cropsFarmer.sol\":1450:1479  address payable public prtnr2 */\n    tag_45:\n      callvalue\n      dup1\n      iszero\n      tag_276\n      jumpi\n      0x00\n      dup1\n      revert\n    tag_276:\n      pop\n      tag_277\n      tag_278\n      jump\t// in\n    tag_277:\n      mload(0x40)\n      tag_279\n      swap2\n      swap1\n      tag_102\n      jump\t// in\n    tag_279:\n      mload(0x40)\n      dup1\n      swap2\n      sub\n      swap1\n      return\n        /* \"contracts/cropsFarmer.sol\":1290:1310  address public owner */\n    tag_46:\n      callvalue\n      dup1\n      iszero\n      tag_280\n      jumpi\n      0x00\n      dup1\n      revert\n    tag_280:\n      pop\n      tag_281\n      tag_282\n      jump\t// in\n    tag_281:\n      mload(0x40)\n      tag_283\n      swap2\n      swap1\n      tag_284\n      jump\t// in\n    tag_283:\n      mload(0x40)\n      dup1\n      swap2\n      sub\n      swap1\n      return\n        /* \"contracts/cropsFarmer.sol\":12098:12236  function calculateEggSell(uint256 eggs) public view returns(uint256){... */\n    tag_47:\n      callvalue\n      dup1\n      iszero\n      tag_285\n      jumpi\n      0x00\n      dup1\n      revert\n    tag_285:\n      pop\n      tag_286\n      0x04\n      dup1\n      calldatasize\n      sub\n      dup2\n      add\n      swap1\n      tag_287\n      swap2\n      swap1\n      tag_127\n      jump\t// in\n    tag_287:\n      tag_288\n      jump\t// in\n    tag_286:\n      mload(0x40)\n      tag_289\n      swap2\n      swap1\n      tag_93\n      jump\t// in\n    tag_289:\n      mload(0x40)\n      dup1\n      swap2\n      sub\n      swap1\n      return\n        /* \"contracts/cropsFarmer.sol\":1217:1263  uint256 public WITHDRAW_COOLDOWN = 4 * 60 * 60 */\n    tag_48:\n      callvalue\n      dup1\n      iszero\n      tag_290\n      jumpi\n      0x00\n      dup1\n      revert\n    tag_290:\n      pop\n      tag_291\n      tag_292\n      jump\t// in\n    tag_291:\n      mload(0x40)\n      tag_293\n      swap2\n      swap1\n      tag_93\n      jump\t// in\n    tag_293:\n      mload(0x40)\n      dup1\n      swap2\n      sub\n      swap1\n      return\n        /* \"contracts/cropsFarmer.sol\":17011:17199  function BONUS_COMPOUND_STEP(uint256 value) external {... */\n    tag_49:\n      callvalue\n      dup1\n      iszero\n      tag_294\n      jumpi\n      0x00\n      dup1\n      revert\n    tag_294:\n      pop\n      tag_295\n      0x04\n      dup1\n      calldatasize\n      sub\n      dup2\n      add\n      swap1\n      tag_296\n      swap2\n      swap1\n      tag_127\n      jump\t// in\n    tag_296:\n      tag_297\n      jump\t// in\n    tag_295:\n      stop\n        /* \"contracts/cropsFarmer.sol\":16799:17005  function BONUS_DAILY_COMPOUND_BONUS_MAX_TIMES(uint256 value) external {... */\n    tag_50:\n      callvalue\n      dup1\n      iszero\n      tag_298\n      jumpi\n      0x00\n      dup1\n      revert\n    tag_298:\n      pop\n      tag_299\n      0x04\n      dup1\n      calldatasize\n      sub\n      dup2\n      add\n      swap1\n      tag_300\n      swap2\n      swap1\n      tag_127\n      jump\t// in\n    tag_300:\n      tag_301\n      jump\t// in\n    tag_299:\n      stop\n        /* \"contracts/cropsFarmer.sol\":2666:2815  function setblacklistActive(bool isActive) public{... */\n    tag_51:\n      callvalue\n      dup1\n      iszero\n      tag_302\n      jumpi\n      0x00\n      dup1\n      revert\n    tag_302:\n      pop\n      tag_303\n      0x04\n      dup1\n      calldatasize\n      sub\n      dup2\n      add\n      swap1\n      tag_304\n      swap2\n      swap1\n      tag_118\n      jump\t// in\n    tag_304:\n      tag_305\n      jump\t// in\n    tag_303:\n      stop\n        /* \"contracts/cropsFarmer.sol\":1316:1343  address payable public dev1 */\n    tag_52:\n      callvalue\n      dup1\n      iszero\n      tag_306\n      jumpi\n      0x00\n      dup1\n      revert\n    tag_306:\n      pop\n      tag_307\n      tag_308\n      jump\t// in\n    tag_307:\n      mload(0x40)\n      tag_309\n      swap2\n      swap1\n      tag_102\n      jump\t// in\n    tag_309:\n      mload(0x40)\n      dup1\n      swap2\n      sub\n      swap1\n      return\n        /* \"contracts/cropsFarmer.sol\":1977:2014  mapping(address => User) public users */\n    tag_53:\n      callvalue\n      dup1\n      iszero\n      tag_310\n      jumpi\n      0x00\n      dup1\n      revert\n    tag_310:\n      pop\n      tag_311\n      0x04\n      dup1\n      calldatasize\n      sub\n      dup2\n      add\n      swap1\n      tag_312\n      swap2\n      swap1\n      tag_152\n      jump\t// in\n    tag_312:\n      tag_313\n      jump\t// in\n    tag_311:\n      mload(0x40)\n      tag_314\n      swap13\n      swap12\n      swap11\n      swap10\n      swap9\n      swap8\n      swap7\n      swap6\n      swap5\n      swap4\n      swap3\n      swap2\n      swap1\n      tag_217\n      jump\t// in\n    tag_314:\n      mload(0x40)\n      dup1\n      swap2\n      sub\n      swap1\n      return\n        /* \"contracts/cropsFarmer.sol\":1124:1168  mapping(address => uint) public firstDeposit */\n    tag_54:\n      callvalue\n      dup1\n      iszero\n      tag_315\n      jumpi\n      0x00\n      dup1\n      revert\n    tag_315:\n      pop\n      tag_316\n      0x04\n      dup1\n      calldatasize\n      sub\n      dup2\n      add\n      swap1\n      tag_317\n      swap2\n      swap1\n      tag_152\n      jump\t// in\n    tag_317:\n      tag_318\n      jump\t// in\n    tag_316:\n      mload(0x40)\n      tag_319\n      swap2\n      swap1\n      tag_93\n      jump\t// in\n    tag_319:\n      mload(0x40)\n      dup1\n      swap2\n      sub\n      swap1\n      return\n        /* \"contracts/cropsFarmer.sol\":1035:1069  bool public blacklistActive = true */\n    tag_55:\n      callvalue\n      dup1\n      iszero\n      tag_320\n      jumpi\n      0x00\n      dup1\n      revert\n    tag_320:\n      pop\n      tag_321\n      tag_322\n      jump\t// in\n    tag_321:\n      mload(0x40)\n      tag_323\n      swap2\n      swap1\n      tag_166\n      jump\t// in\n    tag_323:\n      mload(0x40)\n      dup1\n      swap2\n      sub\n      swap1\n      return\n        /* \"contracts/cropsFarmer.sol\":3837:3880  function fundContract() external payable {} */\n    tag_56:\n      tag_324\n      tag_325\n      jump\t// in\n    tag_324:\n      stop\n        /* \"contracts/cropsFarmer.sol\":12630:13063  function getEggsYield(uint256 amount) public view returns(uint256,uint256) {... */\n    tag_57:\n      callvalue\n      dup1\n      iszero\n      tag_326\n      jumpi\n      0x00\n      dup1\n      revert\n    tag_326:\n      pop\n      tag_327\n      0x04\n      dup1\n      calldatasize\n      sub\n      dup2\n      add\n      swap1\n      tag_328\n      swap2\n      swap1\n      tag_127\n      jump\t// in\n    tag_328:\n      tag_329\n      jump\t// in\n    tag_327:\n      mload(0x40)\n      tag_330\n      swap3\n      swap2\n      swap1\n      tag_331\n      jump\t// in\n    tag_330:\n      mload(0x40)\n      dup1\n      swap2\n      sub\n      swap1\n      return\n        /* \"contracts/cropsFarmer.sol\":16412:16591  function SET_WITHDRAWAL_TAX(uint256 value) external {... */\n    tag_58:\n      callvalue\n      dup1\n      iszero\n      tag_332\n      jumpi\n      0x00\n      dup1\n      revert\n    tag_332:\n      pop\n      tag_333\n      0x04\n      dup1\n      calldatasize\n      sub\n      dup2\n      add\n      swap1\n      tag_334\n      swap2\n      swap1\n      tag_127\n      jump\t// in\n    tag_334:\n      tag_335\n      jump\t// in\n    tag_333:\n      stop\n        /* \"contracts/cropsFarmer.sol\":3271:3459  function checkIfBlacklisted(address Wallet) public view returns(bool blacklisted){... */\n    tag_59:\n      callvalue\n      dup1\n      iszero\n      tag_336\n      jumpi\n      0x00\n      dup1\n      revert\n    tag_336:\n      pop\n      tag_337\n      0x04\n      dup1\n      calldatasize\n      sub\n      dup2\n      add\n      swap1\n      tag_338\n      swap2\n      swap1\n      tag_152\n      jump\t// in\n    tag_338:\n      tag_339\n      jump\t// in\n    tag_337:\n      mload(0x40)\n      tag_340\n      swap2\n      swap1\n      tag_166\n      jump\t// in\n    tag_340:\n      mload(0x40)\n      dup1\n      swap2\n      sub\n      swap1\n      return\n        /* \"contracts/cropsFarmer.sol\":190:218  uint256 public REFERRAL = 70 */\n    tag_60:\n      callvalue\n      dup1\n      iszero\n      tag_341\n      jumpi\n      0x00\n      dup1\n      revert\n    tag_341:\n      pop\n      tag_342\n      tag_343\n      jump\t// in\n    tag_342:\n      mload(0x40)\n      tag_344\n      swap2\n      swap1\n      tag_93\n      jump\t// in\n    tag_344:\n      mload(0x40)\n      dup1\n      swap2\n      sub\n      swap1\n      return\n        /* \"contracts/cropsFarmer.sol\":548:592  uint256 public COMPOUND_BONUS_MAX_TIMES = 10 */\n    tag_61:\n      callvalue\n      dup1\n      iszero\n      tag_345\n      jumpi\n      0x00\n      dup1\n      revert\n    tag_345:\n      pop\n      tag_346\n      tag_347\n      jump\t// in\n    tag_346:\n      mload(0x40)\n      tag_348\n      swap2\n      swap1\n      tag_93\n      jump\t// in\n    tag_348:\n      mload(0x40)\n      dup1\n      swap2\n      sub\n      swap1\n      return\n        /* \"contracts/cropsFarmer.sol\":13069:13241  function calculateEggSellForYield(uint256 eggs,uint256 amount) public view returns(uint256){... */\n    tag_62:\n      callvalue\n      dup1\n      iszero\n      tag_349\n      jumpi\n      0x00\n      dup1\n      revert\n    tag_349:\n      pop\n      tag_350\n      0x04\n      dup1\n      calldatasize\n      sub\n      dup2\n      add\n      swap1\n      tag_351\n      swap2\n      swap1\n      tag_142\n      jump\t// in\n    tag_351:\n      tag_352\n      jump\t// in\n    tag_350:\n      mload(0x40)\n      tag_353\n      swap2\n      swap1\n      tag_93\n      jump\t// in\n    tag_353:\n      mload(0x40)\n      dup1\n      swap2\n      sub\n      swap1\n      return\n        /* \"contracts/cropsFarmer.sol\":370:421  uint256 public MIN_INVEST_LIMIT = 30000000000000000 */\n    tag_63:\n      callvalue\n      dup1\n      iszero\n      tag_354\n      jumpi\n      0x00\n      dup1\n      revert\n    tag_354:\n      pop\n      tag_355\n      tag_356\n      jump\t// in\n    tag_355:\n      mload(0x40)\n      tag_357\n      swap2\n      swap1\n      tag_93\n      jump\t// in\n    tag_357:\n      mload(0x40)\n      dup1\n      swap2\n      sub\n      swap1\n      return\n        /* \"contracts/cropsFarmer.sol\":511:545  uint256 public COMPOUND_BONUS = 20 */\n    tag_64:\n      callvalue\n      dup1\n      iszero\n      tag_358\n      jumpi\n      0x00\n      dup1\n      revert\n    tag_358:\n      pop\n      tag_359\n      tag_360\n      jump\t// in\n    tag_359:\n      mload(0x40)\n      tag_361\n      swap2\n      swap1\n      tag_93\n      jump\t// in\n    tag_361:\n      mload(0x40)\n      dup1\n      swap2\n      sub\n      swap1\n      return\n        /* \"contracts/cropsFarmer.sol\":13725:14131  function getEggsSinceLastHatch(address adr) public view returns(uint256){... */\n    tag_65:\n      callvalue\n      dup1\n      iszero\n      tag_362\n      jumpi\n      0x00\n      dup1\n      revert\n    tag_362:\n      pop\n      tag_363\n      0x04\n      dup1\n      calldatasize\n      sub\n      dup2\n      add\n      swap1\n      tag_364\n      swap2\n      swap1\n      tag_152\n      jump\t// in\n    tag_364:\n      tag_365\n      jump\t// in\n    tag_363:\n      mload(0x40)\n      tag_366\n      swap2\n      swap1\n      tag_93\n      jump\t// in\n    tag_366:\n      mload(0x40)\n      dup1\n      swap2\n      sub\n      swap1\n      return\n        /* \"contracts/cropsFarmer.sol\":2821:2997  function blackListWallet(address Wallet, bool isBlacklisted) public{... */\n    tag_66:\n      callvalue\n      dup1\n      iszero\n      tag_367\n      jumpi\n      0x00\n      dup1\n      revert\n    tag_367:\n      pop\n      tag_368\n      0x04\n      dup1\n      calldatasize\n      sub\n      dup2\n      add\n      swap1\n      tag_369\n      swap2\n      swap1\n      tag_370\n      jump\t// in\n    tag_369:\n      tag_371\n      jump\t// in\n    tag_368:\n      stop\n        /* \"contracts/cropsFarmer.sol\":11331:11424  function getTimeStamp() public view returns (uint256) {... */\n    tag_67:\n      callvalue\n      dup1\n      iszero\n      tag_372\n      jumpi\n      0x00\n      dup1\n      revert\n    tag_372:\n      pop\n      tag_373\n      tag_374\n      jump\t// in\n    tag_373:\n      mload(0x40)\n      tag_375\n      swap2\n      swap1\n      tag_93\n      jump\t// in\n    tag_375:\n      mload(0x40)\n      dup1\n      swap2\n      sub\n      swap1\n      return\n        /* \"contracts/cropsFarmer.sol\":3465:3787  function startFarm(address addr) public payable{... */\n    tag_68:\n      tag_376\n      0x04\n      dup1\n      calldatasize\n      sub\n      dup2\n      add\n      swap1\n      tag_377\n      swap2\n      swap1\n      tag_152\n      jump\t// in\n    tag_377:\n      tag_378\n      jump\t// in\n    tag_376:\n      stop\n        /* \"contracts/cropsFarmer.sol\":15465:15700  function PRC_EGGS_TO_HIRE_1MINERS(uint256 value) external {... */\n    tag_69:\n      callvalue\n      dup1\n      iszero\n      tag_379\n      jumpi\n      0x00\n      dup1\n      revert\n    tag_379:\n      pop\n      tag_380\n      0x04\n      dup1\n      calldatasize\n      sub\n      dup2\n      add\n      swap1\n      tag_381\n      swap2\n      swap1\n      tag_127\n      jump\t// in\n    tag_381:\n      tag_382\n      jump\t// in\n    tag_380:\n      stop\n        /* \"contracts/cropsFarmer.sol\":17921:18131  function SET_COMPOUND_FOR_NO_TAX_WITHDRAWAL(uint256 value) external {... */\n    tag_70:\n      callvalue\n      dup1\n      iszero\n      tag_383\n      jumpi\n      0x00\n      dup1\n      revert\n    tag_383:\n      pop\n      tag_384\n      0x04\n      dup1\n      calldatasize\n      sub\n      dup2\n      add\n      swap1\n      tag_385\n      swap2\n      swap1\n      tag_127\n      jump\t// in\n    tag_385:\n      tag_386\n      jump\t// in\n    tag_384:\n      stop\n        /* \"contracts/cropsFarmer.sol\":3003:3265  function blackMultipleWallets(address[] calldata Wallet, bool isBlacklisted) public{... */\n    tag_71:\n      callvalue\n      dup1\n      iszero\n      tag_387\n      jumpi\n      0x00\n      dup1\n      revert\n    tag_387:\n      pop\n      tag_388\n      0x04\n      dup1\n      calldatasize\n      sub\n      dup2\n      add\n      swap1\n      tag_389\n      swap2\n      swap1\n      tag_390\n      jump\t// in\n    tag_389:\n      tag_391\n      jump\t// in\n    tag_388:\n      stop\n        /* \"contracts/cropsFarmer.sol\":694:744  uint256 public COMPOUND_FOR_NO_TAX_WITHDRAWAL = 10 */\n    tag_72:\n      callvalue\n      dup1\n      iszero\n      tag_392\n      jumpi\n      0x00\n      dup1\n      revert\n    tag_392:\n      pop\n      tag_393\n      tag_394\n      jump\t// in\n    tag_393:\n      mload(0x40)\n      tag_395\n      swap2\n      swap1\n      tag_93\n      jump\t// in\n    tag_395:\n      mload(0x40)\n      dup1\n      swap2\n      sub\n      swap1\n      return\n        /* \"contracts/cropsFarmer.sol\":1075:1118  mapping(address => bool) public Blacklisted */\n    tag_73:\n      callvalue\n      dup1\n      iszero\n      tag_396\n      jumpi\n      0x00\n      dup1\n      revert\n    tag_396:\n      pop\n      tag_397\n      0x04\n      dup1\n      calldatasize\n      sub\n      dup2\n      add\n      swap1\n      tag_398\n      swap2\n      swap1\n      tag_152\n      jump\t// in\n    tag_398:\n      tag_399\n      jump\t// in\n    tag_397:\n      mload(0x40)\n      tag_400\n      swap2\n      swap1\n      tag_166\n      jump\t// in\n    tag_400:\n      mload(0x40)\n      dup1\n      swap2\n      sub\n      swap1\n      return\n        /* \"contracts/cropsFarmer.sol\":224:262  uint256 public PERCENTS_DIVIDER = 1000 */\n    tag_91:\n      sload(0x02)\n      dup2\n      jump\t// out\n        /* \"contracts/cropsFarmer.sol\":648:683  uint256 public WITHDRAWAL_TAX = 350 */\n    tag_96:\n      sload(0x0b)\n      dup2\n      jump\t// out\n        /* \"contracts/cropsFarmer.sol\":1415:1444  address payable public prtnr1 */\n    tag_100:\n      0x1e\n      0x00\n      swap1\n      sload\n      swap1\n      0x0100\n      exp\n      swap1\n      div\n      0xffffffffffffffffffffffffffffffffffffffff\n      and\n      dup2\n      jump\t// out\n        /* \"contracts/cropsFarmer.sol\":13473:13572  function getMyMiners() public view returns(uint256){... */\n    tag_105:\n        /* \"contracts/cropsFarmer.sol\":13516:13523  uint256 */\n      0x00\n        /* \"contracts/cropsFarmer.sol\":13541:13546  users */\n      0x21\n        /* \"contracts/cropsFarmer.sol\":13541:13558  users[msg.sender] */\n      0x00\n        /* \"contracts/cropsFarmer.sol\":13547:13557  msg.sender */\n      caller\n        /* \"contracts/cropsFarmer.sol\":13541:13558  users[msg.sender] */\n      0xffffffffffffffffffffffffffffffffffffffff\n      and\n      0xffffffffffffffffffffffffffffffffffffffff\n      and\n      dup2\n      mstore\n      0x20\n      add\n      swap1\n      dup2\n      mstore\n      0x20\n      add\n      0x00\n      keccak256\n        /* \"contracts/cropsFarmer.sol\":13541:13565  users[msg.sender].miners */\n      0x02\n      add\n      sload\n        /* \"contracts/cropsFarmer.sol\":13534:13565  return users[msg.sender].miners */\n      swap1\n      pop\n        /* \"contracts/cropsFarmer.sol\":13473:13572  function getMyMiners() public view returns(uint256){... */\n      swap1\n      jump\t// out\n        /* \"contracts/cropsFarmer.sol\":11230:11325  function getBalance() public view returns(uint256){... */\n    tag_109:\n        /* \"contracts/cropsFarmer.sol\":11272:11279  uint256 */\n      0x00\n        /* \"contracts/cropsFarmer.sol\":11297:11318  address(this).balance */\n      selfbalance\n        /* \"contracts/cropsFarmer.sol\":11290:11318  return address(this).balance */\n      swap1\n      pop\n        /* \"contracts/cropsFarmer.sol\":11230:11325  function getBalance() public view returns(uint256){... */\n      swap1\n      jump\t// out\n        /* \"contracts/cropsFarmer.sol\":444:491  uint256 public WALLET_DEPOSIT_LIMIT = 25 * 1e18 */\n    tag_113:\n      sload(0x07)\n      dup2\n      jump\t// out\n        /* \"contracts/cropsFarmer.sol\":3886:5140  function hireMoreFarmers(bool isCompound) public {... */\n    tag_119:\n        /* \"contracts/cropsFarmer.sol\":3945:3962  User storage user */\n      0x00\n        /* \"contracts/cropsFarmer.sol\":3965:3970  users */\n      0x21\n        /* \"contracts/cropsFarmer.sol\":3965:3982  users[msg.sender] */\n      0x00\n        /* \"contracts/cropsFarmer.sol\":3971:3981  msg.sender */\n      caller\n        /* \"contracts/cropsFarmer.sol\":3965:3982  users[msg.sender] */\n      0xffffffffffffffffffffffffffffffffffffffff\n      and\n      0xffffffffffffffffffffffffffffffffffffffff\n      and\n      dup2\n      mstore\n      0x20\n      add\n      swap1\n      dup2\n      mstore\n      0x20\n      add\n      0x00\n      keccak256\n        /* \"contracts/cropsFarmer.sol\":3945:3982  User storage user = users[msg.sender] */\n      swap1\n      pop\n        /* \"contracts/cropsFarmer.sol\":4000:4015  contractStarted */\n      0x15\n      0x00\n      swap1\n      sload\n      swap1\n      0x0100\n      exp\n      swap1\n      div\n      0xff\n      and\n        /* \"contracts/cropsFarmer.sol\":3992:4045  require(contractStarted, \"Contract not yet Started.\") */\n      tag_404\n      jumpi\n      mload(0x40)\n      0x08c379a000000000000000000000000000000000000000000000000000000000\n      dup2\n      mstore\n      0x04\n      add\n      tag_405\n      swap1\n      tag_406\n      jump\t// in\n    tag_405:\n      mload(0x40)\n      dup1\n      swap2\n      sub\n      swap1\n      revert\n    tag_404:\n        /* \"contracts/cropsFarmer.sol\":4056:4072  uint256 eggsUsed */\n      0x00\n        /* \"contracts/cropsFarmer.sol\":4075:4086  getMyEggs() */\n      tag_407\n        /* \"contracts/cropsFarmer.sol\":4075:4084  getMyEggs */\n      tag_173\n        /* \"contracts/cropsFarmer.sol\":4075:4086  getMyEggs() */\n      jump\t// in\n    tag_407:\n        /* \"contracts/cropsFarmer.sol\":4056:4086  uint256 eggsUsed = getMyEggs() */\n      swap1\n      pop\n        /* \"contracts/cropsFarmer.sol\":4096:4119  uint256 eggsForCompound */\n      0x00\n        /* \"contracts/cropsFarmer.sol\":4122:4130  eggsUsed */\n      dup2\n        /* \"contracts/cropsFarmer.sol\":4096:4130  uint256 eggsForCompound = eggsUsed */\n      swap1\n      pop\n        /* \"contracts/cropsFarmer.sol\":4144:4154  isCompound */\n      dup4\n        /* \"contracts/cropsFarmer.sol\":4141:4532  if(isCompound) {... */\n      iszero\n      tag_408\n      jumpi\n        /* \"contracts/cropsFarmer.sol\":4170:4196  uint256 dailyCompoundBonus */\n      0x00\n        /* \"contracts/cropsFarmer.sol\":4199:4249  getDailyCompoundBonus(msg.sender, eggsForCompound) */\n      tag_409\n        /* \"contracts/cropsFarmer.sol\":4221:4231  msg.sender */\n      caller\n        /* \"contracts/cropsFarmer.sol\":4233:4248  eggsForCompound */\n      dup4\n        /* \"contracts/cropsFarmer.sol\":4199:4220  getDailyCompoundBonus */\n      tag_196\n        /* \"contracts/cropsFarmer.sol\":4199:4249  getDailyCompoundBonus(msg.sender, eggsForCompound) */\n      jump\t// in\n    tag_409:\n        /* \"contracts/cropsFarmer.sol\":4170:4249  uint256 dailyCompoundBonus = getDailyCompoundBonus(msg.sender, eggsForCompound) */\n      swap1\n      pop\n        /* \"contracts/cropsFarmer.sol\":4281:4320  eggsForCompound.add(dailyCompoundBonus) */\n      tag_410\n        /* \"contracts/cropsFarmer.sol\":4301:4319  dailyCompoundBonus */\n      dup2\n        /* \"contracts/cropsFarmer.sol\":4281:4296  eggsForCompound */\n      dup4\n        /* \"contracts/cropsFarmer.sol\":4281:4300  eggsForCompound.add */\n      tag_411\n      swap1\n        /* \"contracts/cropsFarmer.sol\":4281:4320  eggsForCompound.add(dailyCompoundBonus) */\n      swap2\n      swap1\n      0xffffffff\n      and\n      jump\t// in\n    tag_410:\n        /* \"contracts/cropsFarmer.sol\":4263:4320  eggsForCompound = eggsForCompound.add(dailyCompoundBonus) */\n      swap2\n      pop\n        /* \"contracts/cropsFarmer.sol\":4334:4355  uint256 eggsUsedValue */\n      0x00\n        /* \"contracts/cropsFarmer.sol\":4358:4391  calculateEggSell(eggsForCompound) */\n      tag_412\n        /* \"contracts/cropsFarmer.sol\":4375:4390  eggsForCompound */\n      dup4\n        /* \"contracts/cropsFarmer.sol\":4358:4374  calculateEggSell */\n      tag_288\n        /* \"contracts/cropsFarmer.sol\":4358:4391  calculateEggSell(eggsForCompound) */\n      jump\t// in\n    tag_412:\n        /* \"contracts/cropsFarmer.sol\":4334:4391  uint256 eggsUsedValue = calculateEggSell(eggsForCompound) */\n      swap1\n      pop\n        /* \"contracts/cropsFarmer.sol\":4424:4459  user.userDeposit.add(eggsUsedValue) */\n      tag_413\n        /* \"contracts/cropsFarmer.sol\":4445:4458  eggsUsedValue */\n      dup2\n        /* \"contracts/cropsFarmer.sol\":4424:4428  user */\n      dup7\n        /* \"contracts/cropsFarmer.sol\":4424:4440  user.userDeposit */\n      0x01\n      add\n      sload\n        /* \"contracts/cropsFarmer.sol\":4424:4444  user.userDeposit.add */\n      tag_411\n      swap1\n        /* \"contracts/cropsFarmer.sol\":4424:4459  user.userDeposit.add(eggsUsedValue) */\n      swap2\n      swap1\n      0xffffffff\n      and\n      jump\t// in\n    tag_413:\n        /* \"contracts/cropsFarmer.sol\":4405:4409  user */\n      dup6\n        /* \"contracts/cropsFarmer.sol\":4405:4421  user.userDeposit */\n      0x01\n      add\n        /* \"contracts/cropsFarmer.sol\":4405:4459  user.userDeposit = user.userDeposit.add(eggsUsedValue) */\n      dup2\n      swap1\n      sstore\n      pop\n        /* \"contracts/cropsFarmer.sol\":4489:4521  totalCompound.add(eggsUsedValue) */\n      tag_414\n        /* \"contracts/cropsFarmer.sol\":4507:4520  eggsUsedValue */\n      dup2\n        /* \"contracts/cropsFarmer.sol\":4489:4502  totalCompound */\n      sload(0x0f)\n        /* \"contracts/cropsFarmer.sol\":4489:4506  totalCompound.add */\n      tag_411\n      swap1\n        /* \"contracts/cropsFarmer.sol\":4489:4521  totalCompound.add(eggsUsedValue) */\n      swap2\n      swap1\n      0xffffffff\n      and\n      jump\t// in\n    tag_414:\n        /* \"contracts/cropsFarmer.sol\":4473:4486  totalCompound */\n      0x0f\n        /* \"contracts/cropsFarmer.sol\":4473:4521  totalCompound = totalCompound.add(eggsUsedValue) */\n      dup2\n      swap1\n      sstore\n      pop\n        /* \"contracts/cropsFarmer.sol\":4156:4532  {... */\n      pop\n      pop\n        /* \"contracts/cropsFarmer.sol\":4141:4532  if(isCompound) {... */\n    tag_408:\n        /* \"contracts/cropsFarmer.sol\":4585:4598  COMPOUND_STEP */\n      sload(0x0a)\n        /* \"contracts/cropsFarmer.sol\":4546:4581  block.timestamp.sub(user.lastHatch) */\n      tag_415\n        /* \"contracts/cropsFarmer.sol\":4566:4570  user */\n      dup5\n        /* \"contracts/cropsFarmer.sol\":4566:4580  user.lastHatch */\n      0x04\n      add\n      sload\n        /* \"contracts/cropsFarmer.sol\":4546:4561  block.timestamp */\n      timestamp\n        /* \"contracts/cropsFarmer.sol\":4546:4565  block.timestamp.sub */\n      tag_416\n      swap1\n        /* \"contracts/cropsFarmer.sol\":4546:4581  block.timestamp.sub(user.lastHatch) */\n      swap2\n      swap1\n      0xffffffff\n      and\n      jump\t// in\n    tag_415:\n        /* \"contracts/cropsFarmer.sol\":4546:4598  block.timestamp.sub(user.lastHatch) >= COMPOUND_STEP */\n      lt\n        /* \"contracts/cropsFarmer.sol\":4543:4898  if(block.timestamp.sub(user.lastHatch) >= COMPOUND_STEP) {... */\n      tag_417\n      jumpi\n        /* \"contracts/cropsFarmer.sol\":4643:4667  COMPOUND_BONUS_MAX_TIMES */\n      sload(0x09)\n        /* \"contracts/cropsFarmer.sol\":4617:4621  user */\n      dup4\n        /* \"contracts/cropsFarmer.sol\":4617:4640  user.dailyCompoundBonus */\n      0x09\n      add\n      sload\n        /* \"contracts/cropsFarmer.sol\":4617:4667  user.dailyCompoundBonus < COMPOUND_BONUS_MAX_TIMES */\n      lt\n        /* \"contracts/cropsFarmer.sol\":4614:4758  if(user.dailyCompoundBonus < COMPOUND_BONUS_MAX_TIMES) {... */\n      iszero\n      tag_418\n      jumpi\n        /* \"contracts/cropsFarmer.sol\":4713:4743  user.dailyCompoundBonus.add(1) */\n      tag_419\n        /* \"contracts/cropsFarmer.sol\":4741:4742  1 */\n      0x01\n        /* \"contracts/cropsFarmer.sol\":4713:4717  user */\n      dup5\n        /* \"contracts/cropsFarmer.sol\":4713:4736  user.dailyCompoundBonus */\n      0x09\n      add\n      sload\n        /* \"contracts/cropsFarmer.sol\":4713:4740  user.dailyCompoundBonus.add */\n      tag_411\n      swap1\n        /* \"contracts/cropsFarmer.sol\":4713:4743  user.dailyCompoundBonus.add(1) */\n      swap2\n      swap1\n      0xffffffff\n      and\n      jump\t// in\n    tag_419:\n        /* \"contracts/cropsFarmer.sol\":4687:4691  user */\n      dup4\n        /* \"contracts/cropsFarmer.sol\":4687:4710  user.dailyCompoundBonus */\n      0x09\n      add\n        /* \"contracts/cropsFarmer.sol\":4687:4743  user.dailyCompoundBonus = user.dailyCompoundBonus.add(1) */\n      dup2\n      swap1\n      sstore\n      pop\n        /* \"contracts/cropsFarmer.sol\":4614:4758  if(user.dailyCompoundBonus < COMPOUND_BONUS_MAX_TIMES) {... */\n    tag_418:\n        /* \"contracts/cropsFarmer.sol\":4855:4887  user.farmerCompoundCount .add(1) */\n      tag_420\n        /* \"contracts/cropsFarmer.sol\":4885:4886  1 */\n      0x01\n        /* \"contracts/cropsFarmer.sol\":4855:4859  user */\n      dup5\n        /* \"contracts/cropsFarmer.sol\":4855:4879  user.farmerCompoundCount */\n      0x0a\n      add\n      sload\n        /* \"contracts/cropsFarmer.sol\":4855:4884  user.farmerCompoundCount .add */\n      tag_411\n      swap1\n        /* \"contracts/cropsFarmer.sol\":4855:4887  user.farmerCompoundCount .add(1) */\n      swap2\n      swap1\n      0xffffffff\n      and\n      jump\t// in\n    tag_420:\n        /* \"contracts/cropsFarmer.sol\":4828:4832  user */\n      dup4\n        /* \"contracts/cropsFarmer.sol\":4828:4852  user.farmerCompoundCount */\n      0x0a\n      add\n        /* \"contracts/cropsFarmer.sol\":4828:4887  user.farmerCompoundCount = user.farmerCompoundCount .add(1) */\n      dup2\n      swap1\n      sstore\n      pop\n        /* \"contracts/cropsFarmer.sol\":4543:4898  if(block.timestamp.sub(user.lastHatch) >= COMPOUND_STEP) {... */\n    tag_417:\n        /* \"contracts/cropsFarmer.sol\":4930:4988  user.miners.add(eggsForCompound.div(EGGS_TO_HIRE_1MINERS)) */\n      tag_421\n        /* \"contracts/cropsFarmer.sol\":4946:4987  eggsForCompound.div(EGGS_TO_HIRE_1MINERS) */\n      tag_422\n        /* \"contracts/cropsFarmer.sol\":4966:4986  EGGS_TO_HIRE_1MINERS */\n      sload(0x00)\n        /* \"contracts/cropsFarmer.sol\":4946:4961  eggsForCompound */\n      dup4\n        /* \"contracts/cropsFarmer.sol\":4946:4965  eggsForCompound.div */\n      tag_423\n      swap1\n        /* \"contracts/cropsFarmer.sol\":4946:4987  eggsForCompound.div(EGGS_TO_HIRE_1MINERS) */\n      swap2\n      swap1\n      0xffffffff\n      and\n      jump\t// in\n    tag_422:\n        /* \"contracts/cropsFarmer.sol\":4930:4934  user */\n      dup5\n        /* \"contracts/cropsFarmer.sol\":4930:4941  user.miners */\n      0x02\n      add\n      sload\n        /* \"contracts/cropsFarmer.sol\":4930:4945  user.miners.add */\n      tag_411\n      swap1\n        /* \"contracts/cropsFarmer.sol\":4930:4988  user.miners.add(eggsForCompound.div(EGGS_TO_HIRE_1MINERS)) */\n      swap2\n      swap1\n      0xffffffff\n      and\n      jump\t// in\n    tag_421:\n        /* \"contracts/cropsFarmer.sol\":4916:4920  user */\n      dup4\n        /* \"contracts/cropsFarmer.sol\":4916:4927  user.miners */\n      0x02\n      add\n        /* \"contracts/cropsFarmer.sol\":4916:4988  user.miners = user.miners.add(eggsForCompound.div(EGGS_TO_HIRE_1MINERS)) */\n      dup2\n      swap1\n      sstore\n      pop\n        /* \"contracts/cropsFarmer.sol\":5017:5018  0 */\n      0x00\n        /* \"contracts/cropsFarmer.sol\":4998:5002  user */\n      dup4\n        /* \"contracts/cropsFarmer.sol\":4998:5014  user.claimedEggs */\n      0x03\n      add\n        /* \"contracts/cropsFarmer.sol\":4998:5018  user.claimedEggs = 0 */\n      dup2\n      swap1\n      sstore\n      pop\n        /* \"contracts/cropsFarmer.sol\":5045:5060  block.timestamp */\n      timestamp\n        /* \"contracts/cropsFarmer.sol\":5028:5032  user */\n      dup4\n        /* \"contracts/cropsFarmer.sol\":5028:5042  user.lastHatch */\n      0x04\n      add\n        /* \"contracts/cropsFarmer.sol\":5028:5060  user.lastHatch = block.timestamp */\n      dup2\n      swap1\n      sstore\n      pop\n        /* \"contracts/cropsFarmer.sol\":5084:5133  marketEggs.add(eggsUsed.div(MARKET_EGGS_DIVISOR)) */\n      tag_424\n        /* \"contracts/cropsFarmer.sol\":5099:5132  eggsUsed.div(MARKET_EGGS_DIVISOR) */\n      tag_425\n        /* \"contracts/cropsFarmer.sol\":5112:5131  MARKET_EGGS_DIVISOR */\n      sload(0x05)\n        /* \"contracts/cropsFarmer.sol\":5099:5107  eggsUsed */\n      dup5\n        /* \"contracts/cropsFarmer.sol\":5099:5111  eggsUsed.div */\n      tag_423\n      swap1\n        /* \"contracts/cropsFarmer.sol\":5099:5132  eggsUsed.div(MARKET_EGGS_DIVISOR) */\n      swap2\n      swap1\n      0xffffffff\n      and\n      jump\t// in\n    tag_425:\n        /* \"contracts/cropsFarmer.sol\":5084:5094  marketEggs */\n      sload(0x12)\n        /* \"contracts/cropsFarmer.sol\":5084:5098  marketEggs.add */\n      tag_411\n      swap1\n        /* \"contracts/cropsFarmer.sol\":5084:5133  marketEggs.add(eggsUsed.div(MARKET_EGGS_DIVISOR)) */\n      swap2\n      swap1\n      0xffffffff\n      and\n      jump\t// in\n    tag_424:\n        /* \"contracts/cropsFarmer.sol\":5071:5081  marketEggs */\n      0x12\n        /* \"contracts/cropsFarmer.sol\":5071:5133  marketEggs = marketEggs.add(eggsUsed.div(MARKET_EGGS_DIVISOR)) */\n      dup2\n      swap1\n      sstore\n      pop\n        /* \"contracts/cropsFarmer.sol\":3935:5140  {... */\n      pop\n      pop\n      pop\n        /* \"contracts/cropsFarmer.sol\":3886:5140  function hireMoreFarmers(bool isCompound) public {... */\n      pop\n      jump\t// out\n        /* \"contracts/cropsFarmer.sol\":139:184  uint256 public EGGS_TO_HIRE_1MINERS = 1440000 */\n    tag_122:\n      sload(0x00)\n      dup2\n      jump\t// out\n        /* \"contracts/cropsFarmer.sol\":15868:16024  function PRC_MKT(uint256 value) external {... */\n    tag_128:\n        /* \"contracts/cropsFarmer.sol\":15941:15946  owner */\n      0x1a\n      0x00\n      swap1\n      sload\n      swap1\n      0x0100\n      exp\n      swap1\n      div\n      0xffffffffffffffffffffffffffffffffffffffff\n      and\n        /* \"contracts/cropsFarmer.sol\":15927:15946  msg.sender == owner */\n      0xffffffffffffffffffffffffffffffffffffffff\n      and\n        /* \"contracts/cropsFarmer.sol\":15927:15937  msg.sender */\n      caller\n        /* \"contracts/cropsFarmer.sol\":15927:15946  msg.sender == owner */\n      0xffffffffffffffffffffffffffffffffffffffff\n      and\n      eq\n        /* \"contracts/cropsFarmer.sol\":15919:15966  require(msg.sender == owner, \"Admin use only.\") */\n      tag_427\n      jumpi\n      mload(0x40)\n      0x08c379a000000000000000000000000000000000000000000000000000000000\n      dup2\n      mstore\n      0x04\n      add\n      tag_428\n      swap1\n      tag_429\n      jump\t// in\n    tag_428:\n      mload(0x40)\n      dup1\n      swap2\n      sub\n      swap1\n      revert\n    tag_427:\n        /* \"contracts/cropsFarmer.sol\":15993:15995  20 */\n      0x14\n        /* \"contracts/cropsFarmer.sol\":15984:15989  value */\n      dup2\n        /* \"contracts/cropsFarmer.sol\":15984:15995  value <= 20 */\n      gt\n      iszero\n        /* \"contracts/cropsFarmer.sol\":15976:15996  require(value <= 20) */\n      tag_430\n      jumpi\n      0x00\n      dup1\n      revert\n    tag_430:\n        /* \"contracts/cropsFarmer.sol\":16012:16017  value */\n      dup1\n        /* \"contracts/cropsFarmer.sol\":16006:16009  MKT */\n      0x04\n        /* \"contracts/cropsFarmer.sol\":16006:16017  MKT = value */\n      dup2\n      swap1\n      sstore\n      pop\n        /* \"contracts/cropsFarmer.sol\":15868:16024  function PRC_MKT(uint256 value) external {... */\n      pop\n      jump\t// out\n        /* \"contracts/cropsFarmer.sol\":11644:12092  function calculateTrade(uint256 rt,uint256 rs, uint256 bs) public view returns(uint256){... */\n    tag_133:\n        /* \"contracts/cropsFarmer.sol\":11723:11730  uint256 */\n      0x00\n        /* \"contracts/cropsFarmer.sol\":11748:12085  SafeMath.div(... */\n      tag_432\n        /* \"contracts/cropsFarmer.sol\":11778:11799  SafeMath.mul(PSN, bs) */\n      tag_433\n        /* \"contracts/cropsFarmer.sol\":11791:11794  PSN */\n      sload(0x13)\n        /* \"contracts/cropsFarmer.sol\":11796:11798  bs */\n      dup5\n        /* \"contracts/cropsFarmer.sol\":11778:11790  SafeMath.mul */\n      tag_434\n        /* \"contracts/cropsFarmer.sol\":11778:11799  SafeMath.mul(PSN, bs) */\n      jump\t// in\n    tag_433:\n        /* \"contracts/cropsFarmer.sol\":11822:12084  SafeMath.add(PSNH, ... */\n      tag_435\n        /* \"contracts/cropsFarmer.sol\":11835:11839  PSNH */\n      sload(0x14)\n        /* \"contracts/cropsFarmer.sol\":11866:12083  SafeMath.div(... */\n      tag_436\n        /* \"contracts/cropsFarmer.sol\":11908:12037  SafeMath.add(... */\n      tag_437\n        /* \"contracts/cropsFarmer.sol\":11954:11975  SafeMath.mul(PSN, rs) */\n      tag_438\n        /* \"contracts/cropsFarmer.sol\":11967:11970  PSN */\n      sload(0x13)\n        /* \"contracts/cropsFarmer.sol\":11972:11974  rs */\n      dup11\n        /* \"contracts/cropsFarmer.sol\":11954:11966  SafeMath.mul */\n      tag_434\n        /* \"contracts/cropsFarmer.sol\":11954:11975  SafeMath.mul(PSN, rs) */\n      jump\t// in\n    tag_438:\n        /* \"contracts/cropsFarmer.sol\":12014:12036  SafeMath.mul(PSNH, rt) */\n      tag_439\n        /* \"contracts/cropsFarmer.sol\":12027:12031  PSNH */\n      sload(0x14)\n        /* \"contracts/cropsFarmer.sol\":12033:12035  rt */\n      dup13\n        /* \"contracts/cropsFarmer.sol\":12014:12026  SafeMath.mul */\n      tag_434\n        /* \"contracts/cropsFarmer.sol\":12014:12036  SafeMath.mul(PSNH, rt) */\n      jump\t// in\n    tag_439:\n        /* \"contracts/cropsFarmer.sol\":11908:11920  SafeMath.add */\n      tag_411\n        /* \"contracts/cropsFarmer.sol\":11908:12037  SafeMath.add(... */\n      jump\t// in\n    tag_437:\n        /* \"contracts/cropsFarmer.sol\":12080:12082  rt */\n      dup10\n        /* \"contracts/cropsFarmer.sol\":11866:11878  SafeMath.div */\n      tag_423\n        /* \"contracts/cropsFarmer.sol\":11866:12083  SafeMath.div(... */\n      jump\t// in\n    tag_436:\n        /* \"contracts/cropsFarmer.sol\":11822:11834  SafeMath.add */\n      tag_411\n        /* \"contracts/cropsFarmer.sol\":11822:12084  SafeMath.add(PSNH, ... */\n      jump\t// in\n    tag_435:\n        /* \"contracts/cropsFarmer.sol\":11748:11760  SafeMath.div */\n      tag_423\n        /* \"contracts/cropsFarmer.sol\":11748:12085  SafeMath.div(... */\n      jump\t// in\n    tag_432:\n        /* \"contracts/cropsFarmer.sol\":11741:12085  return SafeMath.div(... */\n      swap1\n      pop\n        /* \"contracts/cropsFarmer.sol\":11644:12092  function calculateTrade(uint256 rt,uint256 rs, uint256 bs) public view returns(uint256){... */\n      swap4\n      swap3\n      pop\n      pop\n      pop\n      jump\t// out\n        /* \"contracts/cropsFarmer.sol\":1382:1409  address payable public dev3 */\n    tag_137:\n      0x1d\n      0x00\n      swap1\n      sload\n      swap1\n      0x0100\n      exp\n      swap1\n      div\n      0xffffffffffffffffffffffffffffffffffffffff\n      and\n      dup2\n      jump\t// out\n        /* \"contracts/cropsFarmer.sol\":12242:12404  function calculateEggBuy(uint256 eth,uint256 contractBalance) public view returns(uint256){... */\n    tag_143:\n        /* \"contracts/cropsFarmer.sol\":12324:12331  uint256 */\n      0x00\n        /* \"contracts/cropsFarmer.sol\":12349:12397  calculateTrade(eth, contractBalance, marketEggs) */\n      tag_441\n        /* \"contracts/cropsFarmer.sol\":12364:12367  eth */\n      dup4\n        /* \"contracts/cropsFarmer.sol\":12369:12384  contractBalance */\n      dup4\n        /* \"contracts/cropsFarmer.sol\":12386:12396  marketEggs */\n      sload(0x12)\n        /* \"contracts/cropsFarmer.sol\":12349:12363  calculateTrade */\n      tag_133\n        /* \"contracts/cropsFarmer.sol\":12349:12397  calculateTrade(eth, contractBalance, marketEggs) */\n      jump\t// in\n    tag_441:\n        /* \"contracts/cropsFarmer.sol\":12342:12397  return calculateTrade(eth, contractBalance, marketEggs) */\n      swap1\n      pop\n        /* \"contracts/cropsFarmer.sol\":12242:12404  function calculateEggBuy(uint256 eth,uint256 contractBalance) public view returns(uint256){... */\n      swap3\n      swap2\n      pop\n      pop\n      jump\t// out\n        /* \"contracts/cropsFarmer.sol\":15706:15862  function PRC_TAX(uint256 value) external {... */\n    tag_148:\n        /* \"contracts/cropsFarmer.sol\":15779:15784  owner */\n      0x1a\n      0x00\n      swap1\n      sload\n      swap1\n      0x0100\n      exp\n      swap1\n      div\n      0xffffffffffffffffffffffffffffffffffffffff\n      and\n        /* \"contracts/cropsFarmer.sol\":15765:15784  msg.sender == owner */\n      0xffffffffffffffffffffffffffffffffffffffff\n      and\n        /* \"contracts/cropsFarmer.sol\":15765:15775  msg.sender */\n      caller\n        /* \"contracts/cropsFarmer.sol\":15765:15784  msg.sender == owner */\n      0xffffffffffffffffffffffffffffffffffffffff\n      and\n      eq\n        /* \"contracts/cropsFarmer.sol\":15757:15804  require(msg.sender == owner, \"Admin use only.\") */\n      tag_443\n      jumpi\n      mload(0x40)\n      0x08c379a000000000000000000000000000000000000000000000000000000000\n      dup2\n      mstore\n      0x04\n      add\n      tag_444\n      swap1\n      tag_429\n      jump\t// in\n    tag_444:\n      mload(0x40)\n      dup1\n      swap2\n      sub\n      swap1\n      revert\n    tag_443:\n        /* \"contracts/cropsFarmer.sol\":15831:15833  15 */\n      0x0f\n        /* \"contracts/cropsFarmer.sol\":15822:15827  value */\n      dup2\n        /* \"contracts/cropsFarmer.sol\":15822:15833  value <= 15 */\n      gt\n      iszero\n        /* \"contracts/cropsFarmer.sol\":15814:15834  require(value <= 15) */\n      tag_445\n      jumpi\n      0x00\n      dup1\n      revert\n    tag_445:\n        /* \"contracts/cropsFarmer.sol\":15850:15855  value */\n      dup1\n        /* \"contracts/cropsFarmer.sol\":15844:15847  TAX */\n      0x03\n        /* \"contracts/cropsFarmer.sol\":15844:15855  TAX = value */\n      dup2\n      swap1\n      sstore\n      pop\n        /* \"contracts/cropsFarmer.sol\":15706:15862  function PRC_TAX(uint256 value) external {... */\n      pop\n      jump\t// out\n        /* \"contracts/cropsFarmer.sol\":14246:14383  function CHANGE_OWNERSHIP(address value) external {... */\n    tag_153:\n        /* \"contracts/cropsFarmer.sol\":14328:14333  owner */\n      0x1a\n      0x00\n      swap1\n      sload\n      swap1\n      0x0100\n      exp\n      swap1\n      div\n      0xffffffffffffffffffffffffffffffffffffffff\n      and\n        /* \"contracts/cropsFarmer.sol\":14314:14333  msg.sender == owner */\n      0xffffffffffffffffffffffffffffffffffffffff\n      and\n        /* \"contracts/cropsFarmer.sol\":14314:14324  msg.sender */\n      caller\n        /* \"contracts/cropsFarmer.sol\":14314:14333  msg.sender == owner */\n      0xffffffffffffffffffffffffffffffffffffffff\n      and\n      eq\n        /* \"contracts/cropsFarmer.sol\":14306:14353  require(msg.sender == owner, \"Admin use only.\") */\n      tag_447\n      jumpi\n      mload(0x40)\n      0x08c379a000000000000000000000000000000000000000000000000000000000\n      dup2\n      mstore\n      0x04\n      add\n      tag_448\n      swap1\n      tag_429\n      jump\t// in\n    tag_448:\n      mload(0x40)\n      dup1\n      swap2\n      sub\n      swap1\n      revert\n    tag_447:\n        /* \"contracts/cropsFarmer.sol\":14371:14376  value */\n      dup1\n        /* \"contracts/cropsFarmer.sol\":14363:14368  owner */\n      0x1a\n      0x00\n        /* \"contracts/cropsFarmer.sol\":14363:14376  owner = value */\n      0x0100\n      exp\n      dup2\n      sload\n      dup2\n      0xffffffffffffffffffffffffffffffffffffffff\n      mul\n      not\n      and\n      swap1\n      dup4\n      0xffffffffffffffffffffffffffffffffffffffff\n      and\n      mul\n      or\n      swap1\n      sstore\n      pop\n        /* \"contracts/cropsFarmer.sol\":14246:14383  function CHANGE_OWNERSHIP(address value) external {... */\n      pop\n      jump\t// out\n        /* \"contracts/cropsFarmer.sol\":296:319  uint256 public MKT = 12 */\n    tag_156:\n      sload(0x04)\n      dup2\n      jump\t// out\n        /* \"contracts/cropsFarmer.sol\":921:946  uint256 public marketEggs */\n    tag_160:\n      sload(0x12)\n      dup2\n      jump\t// out\n        /* \"contracts/cropsFarmer.sol\":1002:1029  bool public contractStarted */\n    tag_164:\n      0x15\n      0x00\n      swap1\n      sload\n      swap1\n      0x0100\n      exp\n      swap1\n      div\n      0xff\n      and\n      dup2\n      jump\t// out\n        /* \"contracts/cropsFarmer.sol\":1173:1214  uint256 public CUTOFF_STEP = 48 * 60 * 60 */\n    tag_169:\n      sload(0x18)\n      dup2\n      jump\t// out\n        /* \"contracts/cropsFarmer.sol\":13578:13719  function getMyEggs() public view returns(uint256){... */\n    tag_173:\n        /* \"contracts/cropsFarmer.sol\":13619:13626  uint256 */\n      0x00\n        /* \"contracts/cropsFarmer.sol\":13644:13712  users[msg.sender].claimedEggs.add(getEggsSinceLastHatch(msg.sender)) */\n      tag_450\n        /* \"contracts/cropsFarmer.sol\":13678:13711  getEggsSinceLastHatch(msg.sender) */\n      tag_451\n        /* \"contracts/cropsFarmer.sol\":13700:13710  msg.sender */\n      caller\n        /* \"contracts/cropsFarmer.sol\":13678:13699  getEggsSinceLastHatch */\n      tag_365\n        /* \"contracts/cropsFarmer.sol\":13678:13711  getEggsSinceLastHatch(msg.sender) */\n      jump\t// in\n    tag_451:\n        /* \"contracts/cropsFarmer.sol\":13644:13649  users */\n      0x21\n        /* \"contracts/cropsFarmer.sol\":13644:13661  users[msg.sender] */\n      0x00\n        /* \"contracts/cropsFarmer.sol\":13650:13660  msg.sender */\n      caller\n        /* \"contracts/cropsFarmer.sol\":13644:13661  users[msg.sender] */\n      0xffffffffffffffffffffffffffffffffffffffff\n      and\n      0xffffffffffffffffffffffffffffffffffffffff\n      and\n      dup2\n      mstore\n      0x20\n      add\n      swap1\n      dup2\n      mstore\n      0x20\n      add\n      0x00\n      keccak256\n        /* \"contracts/cropsFarmer.sol\":13644:13673  users[msg.sender].claimedEggs */\n      0x03\n      add\n      sload\n        /* \"contracts/cropsFarmer.sol\":13644:13677  users[msg.sender].claimedEggs.add */\n      tag_411\n      swap1\n        /* \"contracts/cropsFarmer.sol\":13644:13712  users[msg.sender].claimedEggs.add(getEggsSinceLastHatch(msg.sender)) */\n      swap2\n      swap1\n      0xffffffff\n      and\n      jump\t// in\n    tag_450:\n        /* \"contracts/cropsFarmer.sol\":13637:13712  return users[msg.sender].claimedEggs.add(getEggsSinceLastHatch(msg.sender)) */\n      swap1\n      pop\n        /* \"contracts/cropsFarmer.sol\":13578:13719  function getMyEggs() public view returns(uint256){... */\n      swap1\n      jump\t// out\n        /* \"contracts/cropsFarmer.sol\":17513:17706  function SET_WITHDRAW_COOLDOWN(uint256 value) external {... */\n    tag_178:\n        /* \"contracts/cropsFarmer.sol\":17600:17605  owner */\n      0x1a\n      0x00\n      swap1\n      sload\n      swap1\n      0x0100\n      exp\n      swap1\n      div\n      0xffffffffffffffffffffffffffffffffffffffff\n      and\n        /* \"contracts/cropsFarmer.sol\":17586:17605  msg.sender == owner */\n      0xffffffffffffffffffffffffffffffffffffffff\n      and\n        /* \"contracts/cropsFarmer.sol\":17586:17596  msg.sender */\n      caller\n        /* \"contracts/cropsFarmer.sol\":17586:17605  msg.sender == owner */\n      0xffffffffffffffffffffffffffffffffffffffff\n      and\n      eq\n        /* \"contracts/cropsFarmer.sol\":17578:17624  require(msg.sender == owner, \"Admin use only\") */\n      tag_453\n      jumpi\n      mload(0x40)\n      0x08c379a000000000000000000000000000000000000000000000000000000000\n      dup2\n      mstore\n      0x04\n      add\n      tag_454\n      swap1\n      tag_455\n      jump\t// in\n    tag_454:\n      mload(0x40)\n      dup1\n      swap2\n      sub\n      swap1\n      revert\n    tag_453:\n        /* \"contracts/cropsFarmer.sol\":17651:17653  24 */\n      0x18\n        /* \"contracts/cropsFarmer.sol\":17642:17647  value */\n      dup2\n        /* \"contracts/cropsFarmer.sol\":17642:17653  value <= 24 */\n      gt\n      iszero\n        /* \"contracts/cropsFarmer.sol\":17634:17654  require(value <= 24) */\n      tag_456\n      jumpi\n      0x00\n      dup1\n      revert\n    tag_456:\n        /* \"contracts/cropsFarmer.sol\":17697:17699  60 */\n      0x3c\n        /* \"contracts/cropsFarmer.sol\":17692:17694  60 */\n      dup1\n        /* \"contracts/cropsFarmer.sol\":17684:17689  value */\n      dup3\n        /* \"contracts/cropsFarmer.sol\":17684:17694  value * 60 */\n      tag_457\n      swap2\n      swap1\n      tag_458\n      jump\t// in\n    tag_457:\n        /* \"contracts/cropsFarmer.sol\":17684:17699  value * 60 * 60 */\n      tag_459\n      swap2\n      swap1\n      tag_458\n      jump\t// in\n    tag_459:\n        /* \"contracts/cropsFarmer.sol\":17664:17681  WITHDRAW_COOLDOWN */\n      0x19\n        /* \"contracts/cropsFarmer.sol\":17664:17699  WITHDRAW_COOLDOWN = value * 60 * 60 */\n      dup2\n      swap1\n      sstore\n      pop\n        /* \"contracts/cropsFarmer.sol\":17513:17706  function SET_WITHDRAW_COOLDOWN(uint256 value) external {... */\n      pop\n      jump\t// out\n        /* \"contracts/cropsFarmer.sol\":17205:17350  function SET_INVEST_MIN(uint256 value) external {... */\n    tag_182:\n        /* \"contracts/cropsFarmer.sol\":17285:17290  owner */\n      0x1a\n      0x00\n      swap1\n      sload\n      swap1\n      0x0100\n      exp\n      swap1\n      div\n      0xffffffffffffffffffffffffffffffffffffffff\n      and\n        /* \"contracts/cropsFarmer.sol\":17271:17290  msg.sender == owner */\n      0xffffffffffffffffffffffffffffffffffffffff\n      and\n        /* \"contracts/cropsFarmer.sol\":17271:17281  msg.sender */\n      caller\n        /* \"contracts/cropsFarmer.sol\":17271:17290  msg.sender == owner */\n      0xffffffffffffffffffffffffffffffffffffffff\n      and\n      eq\n        /* \"contracts/cropsFarmer.sol\":17263:17309  require(msg.sender == owner, \"Admin use only\") */\n      tag_461\n      jumpi\n      mload(0x40)\n      0x08c379a000000000000000000000000000000000000000000000000000000000\n      dup2\n      mstore\n      0x04\n      add\n      tag_462\n      swap1\n      tag_455\n      jump\t// in\n    tag_462:\n      mload(0x40)\n      dup1\n      swap2\n      sub\n      swap1\n      revert\n    tag_461:\n        /* \"contracts/cropsFarmer.sol\":17338:17343  value */\n      dup1\n        /* \"contracts/cropsFarmer.sol\":17319:17335  MIN_INVEST_LIMIT */\n      0x06\n        /* \"contracts/cropsFarmer.sol\":17319:17343  MIN_INVEST_LIMIT = value */\n      dup2\n      swap1\n      sstore\n      pop\n        /* \"contracts/cropsFarmer.sol\":17205:17350  function SET_INVEST_MIN(uint256 value) external {... */\n      pop\n      jump\t// out\n        /* \"contracts/cropsFarmer.sol\":885:914  uint256 public totalWithdrawn */\n    tag_185:\n      sload(0x11)\n      dup2\n      jump\t// out\n        /* \"contracts/cropsFarmer.sol\":13247:13467  function getSiteInfo() public view returns (uint256 _totalStaked, uint256 _totalDeposits, uint256 _totalCompound, uint256 _totalRefBonus) {... */\n    tag_189:\n        /* \"contracts/cropsFarmer.sol\":13291:13311  uint256 _totalStaked */\n      0x00\n        /* \"contracts/cropsFarmer.sol\":13313:13335  uint256 _totalDeposits */\n      dup1\n        /* \"contracts/cropsFarmer.sol\":13337:13359  uint256 _totalCompound */\n      0x00\n        /* \"contracts/cropsFarmer.sol\":13361:13383  uint256 _totalRefBonus */\n      dup1\n        /* \"contracts/cropsFarmer.sol\":13403:13414  totalStaked */\n      sload(0x0d)\n        /* \"contracts/cropsFarmer.sol\":13416:13429  totalDeposits */\n      sload(0x0e)\n        /* \"contracts/cropsFarmer.sol\":13431:13444  totalCompound */\n      sload(0x0f)\n        /* \"contracts/cropsFarmer.sol\":13446:13459  totalRefBonus */\n      sload(0x10)\n        /* \"contracts/cropsFarmer.sol\":13395:13460  return (totalStaked, totalDeposits, totalCompound, totalRefBonus) */\n      swap4\n      pop\n      swap4\n      pop\n      swap4\n      pop\n      swap4\n      pop\n        /* \"contracts/cropsFarmer.sol\":13247:13467  function getSiteInfo() public view returns (uint256 _totalStaked, uint256 _totalDeposits, uint256 _totalCompound, uint256 _totalRefBonus) {... */\n      swap1\n      swap2\n      swap3\n      swap4\n      jump\t// out\n        /* \"contracts/cropsFarmer.sol\":9795:10178  function getDailyCompoundBonus(address _adr, uint256 amount) public view returns(uint256){... */\n    tag_196:\n        /* \"contracts/cropsFarmer.sol\":9876:9883  uint256 */\n      0x00\n        /* \"contracts/cropsFarmer.sol\":9931:9932  0 */\n      dup1\n        /* \"contracts/cropsFarmer.sol\":9897:9902  users */\n      0x21\n        /* \"contracts/cropsFarmer.sol\":9897:9908  users[_adr] */\n      0x00\n        /* \"contracts/cropsFarmer.sol\":9903:9907  _adr */\n      dup6\n        /* \"contracts/cropsFarmer.sol\":9897:9908  users[_adr] */\n      0xffffffffffffffffffffffffffffffffffffffff\n      and\n      0xffffffffffffffffffffffffffffffffffffffff\n      and\n      dup2\n      mstore\n      0x20\n      add\n      swap1\n      dup2\n      mstore\n      0x20\n      add\n      0x00\n      keccak256\n        /* \"contracts/cropsFarmer.sol\":9897:9927  users[_adr].dailyCompoundBonus */\n      0x09\n      add\n      sload\n        /* \"contracts/cropsFarmer.sol\":9897:9932  users[_adr].dailyCompoundBonus == 0 */\n      eq\n        /* \"contracts/cropsFarmer.sol\":9894:10172  if(users[_adr].dailyCompoundBonus == 0) {... */\n      iszero\n      tag_465\n      jumpi\n        /* \"contracts/cropsFarmer.sol\":9955:9956  0 */\n      0x00\n        /* \"contracts/cropsFarmer.sol\":9948:9956  return 0 */\n      swap1\n      pop\n      jump(tag_464)\n        /* \"contracts/cropsFarmer.sol\":9894:10172  if(users[_adr].dailyCompoundBonus == 0) {... */\n    tag_465:\n        /* \"contracts/cropsFarmer.sol\":9987:10005  uint256 totalBonus */\n      0x00\n        /* \"contracts/cropsFarmer.sol\":10008:10058  users[_adr].dailyCompoundBonus.mul(COMPOUND_BONUS) */\n      tag_467\n        /* \"contracts/cropsFarmer.sol\":10043:10057  COMPOUND_BONUS */\n      sload(0x08)\n        /* \"contracts/cropsFarmer.sol\":10008:10013  users */\n      0x21\n        /* \"contracts/cropsFarmer.sol\":10008:10019  users[_adr] */\n      0x00\n        /* \"contracts/cropsFarmer.sol\":10014:10018  _adr */\n      dup8\n        /* \"contracts/cropsFarmer.sol\":10008:10019  users[_adr] */\n      0xffffffffffffffffffffffffffffffffffffffff\n      and\n      0xffffffffffffffffffffffffffffffffffffffff\n      and\n      dup2\n      mstore\n      0x20\n      add\n      swap1\n      dup2\n      mstore\n      0x20\n      add\n      0x00\n      keccak256\n        /* \"contracts/cropsFarmer.sol\":10008:10038  users[_adr].dailyCompoundBonus */\n      0x09\n      add\n      sload\n        /* \"contracts/cropsFarmer.sol\":10008:10042  users[_adr].dailyCompoundBonus.mul */\n      tag_434\n      swap1\n        /* \"contracts/cropsFarmer.sol\":10008:10058  users[_adr].dailyCompoundBonus.mul(COMPOUND_BONUS) */\n      swap2\n      swap1\n      0xffffffff\n      and\n      jump\t// in\n    tag_467:\n        /* \"contracts/cropsFarmer.sol\":9987:10058  uint256 totalBonus = users[_adr].dailyCompoundBonus.mul(COMPOUND_BONUS) */\n      swap1\n      pop\n        /* \"contracts/cropsFarmer.sol\":10073:10087  uint256 result */\n      0x00\n        /* \"contracts/cropsFarmer.sol\":10090:10134  amount.mul(totalBonus).div(PERCENTS_DIVIDER) */\n      tag_468\n        /* \"contracts/cropsFarmer.sol\":10117:10133  PERCENTS_DIVIDER */\n      sload(0x02)\n        /* \"contracts/cropsFarmer.sol\":10090:10112  amount.mul(totalBonus) */\n      tag_469\n        /* \"contracts/cropsFarmer.sol\":10101:10111  totalBonus */\n      dup5\n        /* \"contracts/cropsFarmer.sol\":10090:10096  amount */\n      dup8\n        /* \"contracts/cropsFarmer.sol\":10090:10100  amount.mul */\n      tag_434\n      swap1\n        /* \"contracts/cropsFarmer.sol\":10090:10112  amount.mul(totalBonus) */\n      swap2\n      swap1\n      0xffffffff\n      and\n      jump\t// in\n    tag_469:\n        /* \"contracts/cropsFarmer.sol\":10090:10116  amount.mul(totalBonus).div */\n      tag_423\n      swap1\n        /* \"contracts/cropsFarmer.sol\":10090:10134  amount.mul(totalBonus).div(PERCENTS_DIVIDER) */\n      swap2\n      swap1\n      0xffffffff\n      and\n      jump\t// in\n    tag_468:\n        /* \"contracts/cropsFarmer.sol\":10073:10134  uint256 result = amount.mul(totalBonus).div(PERCENTS_DIVIDER) */\n      swap1\n      pop\n        /* \"contracts/cropsFarmer.sol\":10155:10161  result */\n      dup1\n        /* \"contracts/cropsFarmer.sol\":10148:10161  return result */\n      swap3\n      pop\n      pop\n      pop\n        /* \"contracts/cropsFarmer.sol\":9795:10178  function getDailyCompoundBonus(address _adr, uint256 amount) public view returns(uint256){... */\n    tag_464:\n      swap3\n      swap2\n      pop\n      pop\n      jump\t// out\n        /* \"contracts/cropsFarmer.sol\":7512:9365  function hireFarmers(address ref) public payable{... */\n    tag_200:\n        /* \"contracts/cropsFarmer.sol\":7578:7593  contractStarted */\n      0x15\n      0x00\n      swap1\n      sload\n      swap1\n      0x0100\n      exp\n      swap1\n      div\n      0xff\n      and\n        /* \"contracts/cropsFarmer.sol\":7570:7623  require(contractStarted, \"Contract not yet Started.\") */\n      tag_471\n      jumpi\n      mload(0x40)\n      0x08c379a000000000000000000000000000000000000000000000000000000000\n      dup2\n      mstore\n      0x04\n      add\n      tag_472\n      swap1\n      tag_406\n      jump\t// in\n    tag_472:\n      mload(0x40)\n      dup1\n      swap2\n      sub\n      swap1\n      revert\n    tag_471:\n        /* \"contracts/cropsFarmer.sol\":7633:7650  User storage user */\n      0x00\n        /* \"contracts/cropsFarmer.sol\":7653:7658  users */\n      0x21\n        /* \"contracts/cropsFarmer.sol\":7653:7670  users[msg.sender] */\n      0x00\n        /* \"contracts/cropsFarmer.sol\":7659:7669  msg.sender */\n      caller\n        /* \"contracts/cropsFarmer.sol\":7653:7670  users[msg.sender] */\n      0xffffffffffffffffffffffffffffffffffffffff\n      and\n      0xffffffffffffffffffffffffffffffffffffffff\n      and\n      dup2\n      mstore\n      0x20\n      add\n      swap1\n      dup2\n      mstore\n      0x20\n      add\n      0x00\n      keccak256\n        /* \"contracts/cropsFarmer.sol\":7633:7670  User storage user = users[msg.sender] */\n      swap1\n      pop\n        /* \"contracts/cropsFarmer.sol\":7701:7717  MIN_INVEST_LIMIT */\n      sload(0x06)\n        /* \"contracts/cropsFarmer.sol\":7688:7697  msg.value */\n      callvalue\n        /* \"contracts/cropsFarmer.sol\":7688:7717  msg.value >= MIN_INVEST_LIMIT */\n      lt\n      iszero\n        /* \"contracts/cropsFarmer.sol\":7680:7749  require(msg.value >= MIN_INVEST_LIMIT, \"Mininum investment not met.\") */\n      tag_473\n      jumpi\n      mload(0x40)\n      0x08c379a000000000000000000000000000000000000000000000000000000000\n      dup2\n      mstore\n      0x04\n      add\n      tag_474\n      swap1\n      tag_475\n      jump\t// in\n    tag_474:\n      mload(0x40)\n      dup1\n      swap2\n      sub\n      swap1\n      revert\n    tag_473:\n        /* \"contracts/cropsFarmer.sol\":7805:7825  WALLET_DEPOSIT_LIMIT */\n      sload(0x07)\n        /* \"contracts/cropsFarmer.sol\":7767:7801  user.initialDeposit.add(msg.value) */\n      tag_476\n        /* \"contracts/cropsFarmer.sol\":7791:7800  msg.value */\n      callvalue\n        /* \"contracts/cropsFarmer.sol\":7767:7771  user */\n      dup4\n        /* \"contracts/cropsFarmer.sol\":7767:7786  user.initialDeposit */\n      0x00\n      add\n      sload\n        /* \"contracts/cropsFarmer.sol\":7767:7790  user.initialDeposit.add */\n      tag_411\n      swap1\n        /* \"contracts/cropsFarmer.sol\":7767:7801  user.initialDeposit.add(msg.value) */\n      swap2\n      swap1\n      0xffffffff\n      and\n      jump\t// in\n    tag_476:\n        /* \"contracts/cropsFarmer.sol\":7767:7825  user.initialDeposit.add(msg.value) <= WALLET_DEPOSIT_LIMIT */\n      gt\n      iszero\n        /* \"contracts/cropsFarmer.sol\":7759:7856  require(user.initialDeposit.add(msg.value) <= WALLET_DEPOSIT_LIMIT, \"Max deposit limit reached.\") */\n      tag_477\n      jumpi\n      mload(0x40)\n      0x08c379a000000000000000000000000000000000000000000000000000000000\n      dup2\n      mstore\n      0x04\n      add\n      tag_478\n      swap1\n      tag_479\n      jump\t// in\n    tag_478:\n      mload(0x40)\n      dup1\n      swap2\n      sub\n      swap1\n      revert\n    tag_477:\n        /* \"contracts/cropsFarmer.sol\":7983:8001  uint256 eggsBought */\n      0x00\n        /* \"contracts/cropsFarmer.sol\":8004:8068  calculateEggBuy(msg.value, address(this).balance.sub(msg.value)) */\n      tag_481\n        /* \"contracts/cropsFarmer.sol\":8020:8029  msg.value */\n      callvalue\n        /* \"contracts/cropsFarmer.sol\":8031:8067  address(this).balance.sub(msg.value) */\n      tag_482\n        /* \"contracts/cropsFarmer.sol\":8057:8066  msg.value */\n      callvalue\n        /* \"contracts/cropsFarmer.sol\":8031:8052  address(this).balance */\n      selfbalance\n        /* \"contracts/cropsFarmer.sol\":8031:8056  address(this).balance.sub */\n      tag_416\n      swap1\n        /* \"contracts/cropsFarmer.sol\":8031:8067  address(this).balance.sub(msg.value) */\n      swap2\n      swap1\n      0xffffffff\n      and\n      jump\t// in\n    tag_482:\n        /* \"contracts/cropsFarmer.sol\":8004:8019  calculateEggBuy */\n      tag_143\n        /* \"contracts/cropsFarmer.sol\":8004:8068  calculateEggBuy(msg.value, address(this).balance.sub(msg.value)) */\n      jump\t// in\n    tag_481:\n        /* \"contracts/cropsFarmer.sol\":7983:8068  uint256 eggsBought = calculateEggBuy(msg.value, address(this).balance.sub(msg.value)) */\n      swap1\n      pop\n        /* \"contracts/cropsFarmer.sol\":8097:8128  user.userDeposit.add(msg.value) */\n      tag_483\n        /* \"contracts/cropsFarmer.sol\":8118:8127  msg.value */\n      callvalue\n        /* \"contracts/cropsFarmer.sol\":8097:8101  user */\n      dup4\n        /* \"contracts/cropsFarmer.sol\":8097:8113  user.userDeposit */\n      0x01\n      add\n      sload\n        /* \"contracts/cropsFarmer.sol\":8097:8117  user.userDeposit.add */\n      tag_411\n      swap1\n        /* \"contracts/cropsFarmer.sol\":8097:8128  user.userDeposit.add(msg.value) */\n      swap2\n      swap1\n      0xffffffff\n      and\n      jump\t// in\n    tag_483:\n        /* \"contracts/cropsFarmer.sol\":8078:8082  user */\n      dup3\n        /* \"contracts/cropsFarmer.sol\":8078:8094  user.userDeposit */\n      0x01\n      add\n        /* \"contracts/cropsFarmer.sol\":8078:8128  user.userDeposit = user.userDeposit.add(msg.value) */\n      dup2\n      swap1\n      sstore\n      pop\n        /* \"contracts/cropsFarmer.sol\":8160:8194  user.initialDeposit.add(msg.value) */\n      tag_484\n        /* \"contracts/cropsFarmer.sol\":8184:8193  msg.value */\n      callvalue\n        /* \"contracts/cropsFarmer.sol\":8160:8164  user */\n      dup4\n        /* \"contracts/cropsFarmer.sol\":8160:8179  user.initialDeposit */\n      0x00\n      add\n      sload\n        /* \"contracts/cropsFarmer.sol\":8160:8183  user.initialDeposit.add */\n      tag_411\n      swap1\n        /* \"contracts/cropsFarmer.sol\":8160:8194  user.initialDeposit.add(msg.value) */\n      swap2\n      swap1\n      0xffffffff\n      and\n      jump\t// in\n    tag_484:\n        /* \"contracts/cropsFarmer.sol\":8138:8142  user */\n      dup3\n        /* \"contracts/cropsFarmer.sol\":8138:8157  user.initialDeposit */\n      0x00\n      add\n        /* \"contracts/cropsFarmer.sol\":8138:8194  user.initialDeposit = user.initialDeposit.add(msg.value) */\n      dup2\n      swap1\n      sstore\n      pop\n        /* \"contracts/cropsFarmer.sol\":8223:8255  user.claimedEggs.add(eggsBought) */\n      tag_485\n        /* \"contracts/cropsFarmer.sol\":8244:8254  eggsBought */\n      dup2\n        /* \"contracts/cropsFarmer.sol\":8223:8227  user */\n      dup4\n        /* \"contracts/cropsFarmer.sol\":8223:8239  user.claimedEggs */\n      0x03\n      add\n      sload\n        /* \"contracts/cropsFarmer.sol\":8223:8243  user.claimedEggs.add */\n      tag_411\n      swap1\n        /* \"contracts/cropsFarmer.sol\":8223:8255  user.claimedEggs.add(eggsBought) */\n      swap2\n      swap1\n      0xffffffff\n      and\n      jump\t// in\n    tag_485:\n        /* \"contracts/cropsFarmer.sol\":8204:8208  user */\n      dup3\n        /* \"contracts/cropsFarmer.sol\":8204:8220  user.claimedEggs */\n      0x03\n      add\n        /* \"contracts/cropsFarmer.sol\":8204:8255  user.claimedEggs = user.claimedEggs.add(eggsBought) */\n      dup2\n      swap1\n      sstore\n      pop\n        /* \"contracts/cropsFarmer.sol\":8304:8305  0 */\n      0x00\n        /* \"contracts/cropsFarmer.sol\":8279:8306  user.referrer == address(0) */\n      0xffffffffffffffffffffffffffffffffffffffff\n      and\n        /* \"contracts/cropsFarmer.sol\":8279:8283  user */\n      dup3\n        /* \"contracts/cropsFarmer.sol\":8279:8292  user.referrer */\n      0x05\n      add\n      0x00\n      swap1\n      sload\n      swap1\n      0x0100\n      exp\n      swap1\n      div\n      0xffffffffffffffffffffffffffffffffffffffff\n      and\n        /* \"contracts/cropsFarmer.sol\":8279:8306  user.referrer == address(0) */\n      0xffffffffffffffffffffffffffffffffffffffff\n      and\n      eq\n        /* \"contracts/cropsFarmer.sol\":8275:8594  if (user.referrer == address(0)) {... */\n      iszero\n      tag_486\n      jumpi\n        /* \"contracts/cropsFarmer.sol\":8333:8343  msg.sender */\n      caller\n        /* \"contracts/cropsFarmer.sol\":8326:8343  ref != msg.sender */\n      0xffffffffffffffffffffffffffffffffffffffff\n      and\n        /* \"contracts/cropsFarmer.sol\":8326:8329  ref */\n      dup4\n        /* \"contracts/cropsFarmer.sol\":8326:8343  ref != msg.sender */\n      0xffffffffffffffffffffffffffffffffffffffff\n      and\n      eq\n        /* \"contracts/cropsFarmer.sol\":8322:8397  if (ref != msg.sender) {... */\n      tag_487\n      jumpi\n        /* \"contracts/cropsFarmer.sol\":8379:8382  ref */\n      dup3\n        /* \"contracts/cropsFarmer.sol\":8363:8367  user */\n      dup3\n        /* \"contracts/cropsFarmer.sol\":8363:8376  user.referrer */\n      0x05\n      add\n      0x00\n        /* \"contracts/cropsFarmer.sol\":8363:8382  user.referrer = ref */\n      0x0100\n      exp\n      dup2\n      sload\n      dup2\n      0xffffffffffffffffffffffffffffffffffffffff\n      mul\n      not\n      and\n      swap1\n      dup4\n      0xffffffffffffffffffffffffffffffffffffffff\n      and\n      mul\n      or\n      swap1\n      sstore\n      pop\n        /* \"contracts/cropsFarmer.sol\":8322:8397  if (ref != msg.sender) {... */\n    tag_487:\n        /* \"contracts/cropsFarmer.sol\":8411:8426  address upline1 */\n      0x00\n        /* \"contracts/cropsFarmer.sol\":8429:8433  user */\n      dup3\n        /* \"contracts/cropsFarmer.sol\":8429:8442  user.referrer */\n      0x05\n      add\n      0x00\n      swap1\n      sload\n      swap1\n      0x0100\n      exp\n      swap1\n      div\n      0xffffffffffffffffffffffffffffffffffffffff\n      and\n        /* \"contracts/cropsFarmer.sol\":8411:8442  address upline1 = user.referrer */\n      swap1\n      pop\n        /* \"contracts/cropsFarmer.sol\":8479:8480  0 */\n      0x00\n        /* \"contracts/cropsFarmer.sol\":8460:8481  upline1 != address(0) */\n      0xffffffffffffffffffffffffffffffffffffffff\n      and\n        /* \"contracts/cropsFarmer.sol\":8460:8467  upline1 */\n      dup2\n        /* \"contracts/cropsFarmer.sol\":8460:8481  upline1 != address(0) */\n      0xffffffffffffffffffffffffffffffffffffffff\n      and\n      eq\n        /* \"contracts/cropsFarmer.sol\":8456:8584  if (upline1 != address(0)) {... */\n      tag_488\n      jumpi\n        /* \"contracts/cropsFarmer.sol\":8533:8569  users[upline1].referralsCount.add(1) */\n      tag_489\n        /* \"contracts/cropsFarmer.sol\":8567:8568  1 */\n      0x01\n        /* \"contracts/cropsFarmer.sol\":8533:8538  users */\n      0x21\n        /* \"contracts/cropsFarmer.sol\":8533:8547  users[upline1] */\n      0x00\n        /* \"contracts/cropsFarmer.sol\":8539:8546  upline1 */\n      dup5\n        /* \"contracts/cropsFarmer.sol\":8533:8547  users[upline1] */\n      0xffffffffffffffffffffffffffffffffffffffff\n      and\n      0xffffffffffffffffffffffffffffffffffffffff\n      and\n      dup2\n      mstore\n      0x20\n      add\n      swap1\n      dup2\n      mstore\n      0x20\n      add\n      0x00\n      keccak256\n        /* \"contracts/cropsFarmer.sol\":8533:8562  users[upline1].referralsCount */\n      0x06\n      add\n      sload\n        /* \"contracts/cropsFarmer.sol\":8533:8566  users[upline1].referralsCount.add */\n      tag_411\n      swap1\n        /* \"contracts/cropsFarmer.sol\":8533:8569  users[upline1].referralsCount.add(1) */\n      swap2\n      swap1\n      0xffffffff\n      and\n      jump\t// in\n    tag_489:\n        /* \"contracts/cropsFarmer.sol\":8501:8506  users */\n      0x21\n        /* \"contracts/cropsFarmer.sol\":8501:8515  users[upline1] */\n      0x00\n        /* \"contracts/cropsFarmer.sol\":8507:8514  upline1 */\n      dup4\n        /* \"contracts/cropsFarmer.sol\":8501:8515  users[upline1] */\n      0xffffffffffffffffffffffffffffffffffffffff\n      and\n      0xffffffffffffffffffffffffffffffffffffffff\n      and\n      dup2\n      mstore\n      0x20\n      add\n      swap1\n      dup2\n      mstore\n      0x20\n      add\n      0x00\n      keccak256\n        /* \"contracts/cropsFarmer.sol\":8501:8530  users[upline1].referralsCount */\n      0x06\n      add\n        /* \"contracts/cropsFarmer.sol\":8501:8569  users[upline1].referralsCount = users[upline1].referralsCount.add(1) */\n      dup2\n      swap1\n      sstore\n      pop\n        /* \"contracts/cropsFarmer.sol\":8456:8584  if (upline1 != address(0)) {... */\n    tag_488:\n        /* \"contracts/cropsFarmer.sol\":8308:8594  {... */\n      pop\n        /* \"contracts/cropsFarmer.sol\":8275:8594  if (user.referrer == address(0)) {... */\n    tag_486:\n        /* \"contracts/cropsFarmer.sol\":8649:8650  0 */\n      0x00\n        /* \"contracts/cropsFarmer.sol\":8624:8651  user.referrer != address(0) */\n      0xffffffffffffffffffffffffffffffffffffffff\n      and\n        /* \"contracts/cropsFarmer.sol\":8624:8628  user */\n      dup3\n        /* \"contracts/cropsFarmer.sol\":8624:8637  user.referrer */\n      0x05\n      add\n      0x00\n      swap1\n      sload\n      swap1\n      0x0100\n      exp\n      swap1\n      div\n      0xffffffffffffffffffffffffffffffffffffffff\n      and\n        /* \"contracts/cropsFarmer.sol\":8624:8651  user.referrer != address(0) */\n      0xffffffffffffffffffffffffffffffffffffffff\n      and\n      eq\n        /* \"contracts/cropsFarmer.sol\":8620:9165  if (user.referrer != address(0)) {... */\n      tag_490\n      jumpi\n        /* \"contracts/cropsFarmer.sol\":8680:8723  sendRewardToReferrals(msg.sender,msg.value) */\n      tag_491\n        /* \"contracts/cropsFarmer.sol\":8702:8712  msg.sender */\n      caller\n        /* \"contracts/cropsFarmer.sol\":8713:8722  msg.value */\n      callvalue\n        /* \"contracts/cropsFarmer.sol\":8680:8701  sendRewardToReferrals */\n      tag_492\n        /* \"contracts/cropsFarmer.sol\":8680:8723  sendRewardToReferrals(msg.sender,msg.value) */\n      jump\t// in\n    tag_491:\n        /* \"contracts/cropsFarmer.sol\":8620:9165  if (user.referrer != address(0)) {... */\n    tag_490:\n        /* \"contracts/cropsFarmer.sol\":9175:9193  uint256 eggsPayout */\n      0x00\n        /* \"contracts/cropsFarmer.sol\":9196:9214  payFees(msg.value) */\n      tag_493\n        /* \"contracts/cropsFarmer.sol\":9204:9213  msg.value */\n      callvalue\n        /* \"contracts/cropsFarmer.sol\":9196:9203  payFees */\n      tag_494\n        /* \"contracts/cropsFarmer.sol\":9196:9214  payFees(msg.value) */\n      jump\t// in\n    tag_493:\n        /* \"contracts/cropsFarmer.sol\":9175:9214  uint256 eggsPayout = payFees(msg.value) */\n      swap1\n      pop\n        /* \"contracts/cropsFarmer.sol\":9238:9280  totalStaked.add(msg.value.sub(eggsPayout)) */\n      tag_495\n        /* \"contracts/cropsFarmer.sol\":9254:9279  msg.value.sub(eggsPayout) */\n      tag_496\n        /* \"contracts/cropsFarmer.sol\":9268:9278  eggsPayout */\n      dup3\n        /* \"contracts/cropsFarmer.sol\":9254:9263  msg.value */\n      callvalue\n        /* \"contracts/cropsFarmer.sol\":9254:9267  msg.value.sub */\n      tag_416\n      swap1\n        /* \"contracts/cropsFarmer.sol\":9254:9279  msg.value.sub(eggsPayout) */\n      swap2\n      swap1\n      0xffffffff\n      and\n      jump\t// in\n    tag_496:\n        /* \"contracts/cropsFarmer.sol\":9238:9249  totalStaked */\n      sload(0x0d)\n        /* \"contracts/cropsFarmer.sol\":9238:9253  totalStaked.add */\n      tag_411\n      swap1\n        /* \"contracts/cropsFarmer.sol\":9238:9280  totalStaked.add(msg.value.sub(eggsPayout)) */\n      swap2\n      swap1\n      0xffffffff\n      and\n      jump\t// in\n    tag_495:\n        /* \"contracts/cropsFarmer.sol\":9224:9235  totalStaked */\n      0x0d\n        /* \"contracts/cropsFarmer.sol\":9224:9280  totalStaked = totalStaked.add(msg.value.sub(eggsPayout)) */\n      dup2\n      swap1\n      sstore\n      pop\n        /* \"contracts/cropsFarmer.sol\":9306:9326  totalDeposits.add(1) */\n      tag_497\n        /* \"contracts/cropsFarmer.sol\":9324:9325  1 */\n      0x01\n        /* \"contracts/cropsFarmer.sol\":9306:9319  totalDeposits */\n      sload(0x0e)\n        /* \"contracts/cropsFarmer.sol\":9306:9323  totalDeposits.add */\n      tag_411\n      swap1\n        /* \"contracts/cropsFarmer.sol\":9306:9326  totalDeposits.add(1) */\n      swap2\n      swap1\n      0xffffffff\n      and\n      jump\t// in\n    tag_497:\n        /* \"contracts/cropsFarmer.sol\":9290:9303  totalDeposits */\n      0x0e\n        /* \"contracts/cropsFarmer.sol\":9290:9326  totalDeposits = totalDeposits.add(1) */\n      dup2\n      swap1\n      sstore\n      pop\n        /* \"contracts/cropsFarmer.sol\":9336:9358  hireMoreFarmers(false) */\n      tag_498\n        /* \"contracts/cropsFarmer.sol\":9352:9357  false */\n      0x00\n        /* \"contracts/cropsFarmer.sol\":9336:9351  hireMoreFarmers */\n      tag_119\n        /* \"contracts/cropsFarmer.sol\":9336:9358  hireMoreFarmers(false) */\n      jump\t// in\n    tag_498:\n        /* \"contracts/cropsFarmer.sol\":7560:9365  {... */\n      pop\n      pop\n      pop\n        /* \"contracts/cropsFarmer.sol\":7512:9365  function hireFarmers(address ref) public payable{... */\n      pop\n      jump\t// out\n        /* \"contracts/cropsFarmer.sol\":16030:16212  function PRC_REFERRAL(uint256 value) external {... */\n    tag_204:\n        /* \"contracts/cropsFarmer.sol\":16108:16113  owner */\n      0x1a\n      0x00\n      swap1\n      sload\n      swap1\n      0x0100\n      exp\n      swap1\n      div\n      0xffffffffffffffffffffffffffffffffffffffff\n      and\n        /* \"contracts/cropsFarmer.sol\":16094:16113  msg.sender == owner */\n      0xffffffffffffffffffffffffffffffffffffffff\n      and\n        /* \"contracts/cropsFarmer.sol\":16094:16104  msg.sender */\n      caller\n        /* \"contracts/cropsFarmer.sol\":16094:16113  msg.sender == owner */\n      0xffffffffffffffffffffffffffffffffffffffff\n      and\n      eq\n        /* \"contracts/cropsFarmer.sol\":16086:16133  require(msg.sender == owner, \"Admin use only.\") */\n      tag_500\n      jumpi\n      mload(0x40)\n      0x08c379a000000000000000000000000000000000000000000000000000000000\n      dup2\n      mstore\n      0x04\n      add\n      tag_501\n      swap1\n      tag_429\n      jump\t// in\n    tag_501:\n      mload(0x40)\n      dup1\n      swap2\n      sub\n      swap1\n      revert\n    tag_500:\n        /* \"contracts/cropsFarmer.sol\":16160:16162  10 */\n      0x0a\n        /* \"contracts/cropsFarmer.sol\":16151:16156  value */\n      dup2\n        /* \"contracts/cropsFarmer.sol\":16151:16162  value >= 10 */\n      lt\n      iszero\n        /* \"contracts/cropsFarmer.sol\":16151:16178  value >= 10 && value <= 100 */\n      dup1\n      iszero\n      tag_502\n      jumpi\n      pop\n        /* \"contracts/cropsFarmer.sol\":16175:16178  100 */\n      0x64\n        /* \"contracts/cropsFarmer.sol\":16166:16171  value */\n      dup2\n        /* \"contracts/cropsFarmer.sol\":16166:16178  value <= 100 */\n      gt\n      iszero\n        /* \"contracts/cropsFarmer.sol\":16151:16178  value >= 10 && value <= 100 */\n    tag_502:\n        /* \"contracts/cropsFarmer.sol\":16143:16179  require(value >= 10 && value <= 100) */\n      tag_503\n      jumpi\n      0x00\n      dup1\n      revert\n    tag_503:\n        /* \"contracts/cropsFarmer.sol\":16200:16205  value */\n      dup1\n        /* \"contracts/cropsFarmer.sol\":16189:16197  REFERRAL */\n      0x01\n        /* \"contracts/cropsFarmer.sol\":16189:16205  REFERRAL = value */\n      dup2\n      swap1\n      sstore\n      pop\n        /* \"contracts/cropsFarmer.sol\":16030:16212  function PRC_REFERRAL(uint256 value) external {... */\n      pop\n      jump\t// out\n        /* \"contracts/cropsFarmer.sol\":5146:6603  function sellCrops() public{... */\n    tag_207:\n        /* \"contracts/cropsFarmer.sol\":5191:5206  contractStarted */\n      0x15\n      0x00\n      swap1\n      sload\n      swap1\n      0x0100\n      exp\n      swap1\n      div\n      0xff\n      and\n        /* \"contracts/cropsFarmer.sol\":5183:5236  require(contractStarted, \"Contract not yet Started.\") */\n      tag_505\n      jumpi\n      mload(0x40)\n      0x08c379a000000000000000000000000000000000000000000000000000000000\n      dup2\n      mstore\n      0x04\n      add\n      tag_506\n      swap1\n      tag_406\n      jump\t// in\n    tag_506:\n      mload(0x40)\n      dup1\n      swap2\n      sub\n      swap1\n      revert\n    tag_505:\n        /* \"contracts/cropsFarmer.sol\":5251:5266  blacklistActive */\n      0x15\n      0x01\n      swap1\n      sload\n      swap1\n      0x0100\n      exp\n      swap1\n      div\n      0xff\n      and\n        /* \"contracts/cropsFarmer.sol\":5247:5353  if (blacklistActive) {... */\n      iszero\n      tag_507\n      jumpi\n        /* \"contracts/cropsFarmer.sol\":5291:5302  Blacklisted */\n      0x16\n        /* \"contracts/cropsFarmer.sol\":5291:5314  Blacklisted[msg.sender] */\n      0x00\n        /* \"contracts/cropsFarmer.sol\":5303:5313  msg.sender */\n      caller\n        /* \"contracts/cropsFarmer.sol\":5291:5314  Blacklisted[msg.sender] */\n      0xffffffffffffffffffffffffffffffffffffffff\n      and\n      0xffffffffffffffffffffffffffffffffffffffff\n      and\n      dup2\n      mstore\n      0x20\n      add\n      swap1\n      dup2\n      mstore\n      0x20\n      add\n      0x00\n      keccak256\n      0x00\n      swap1\n      sload\n      swap1\n      0x0100\n      exp\n      swap1\n      div\n      0xff\n      and\n        /* \"contracts/cropsFarmer.sol\":5290:5314  !Blacklisted[msg.sender] */\n      iszero\n        /* \"contracts/cropsFarmer.sol\":5282:5342  require(!Blacklisted[msg.sender], \"Address is blacklisted.\") */\n      tag_508\n      jumpi\n      mload(0x40)\n      0x08c379a000000000000000000000000000000000000000000000000000000000\n      dup2\n      mstore\n      0x04\n      add\n      tag_509\n      swap1\n      tag_510\n      jump\t// in\n    tag_509:\n      mload(0x40)\n      dup1\n      swap2\n      sub\n      swap1\n      revert\n    tag_508:\n        /* \"contracts/cropsFarmer.sol\":5247:5353  if (blacklistActive) {... */\n    tag_507:\n        /* \"contracts/cropsFarmer.sol\":5363:5380  User storage user */\n      0x00\n        /* \"contracts/cropsFarmer.sol\":5383:5388  users */\n      0x21\n        /* \"contracts/cropsFarmer.sol\":5383:5400  users[msg.sender] */\n      0x00\n        /* \"contracts/cropsFarmer.sol\":5389:5399  msg.sender */\n      caller\n        /* \"contracts/cropsFarmer.sol\":5383:5400  users[msg.sender] */\n      0xffffffffffffffffffffffffffffffffffffffff\n      and\n      0xffffffffffffffffffffffffffffffffffffffff\n      and\n      dup2\n      mstore\n      0x20\n      add\n      swap1\n      dup2\n      mstore\n      0x20\n      add\n      0x00\n      keccak256\n        /* \"contracts/cropsFarmer.sol\":5363:5400  User storage user = users[msg.sender] */\n      swap1\n      pop\n        /* \"contracts/cropsFarmer.sol\":5410:5425  uint256 hasEggs */\n      0x00\n        /* \"contracts/cropsFarmer.sol\":5428:5439  getMyEggs() */\n      tag_511\n        /* \"contracts/cropsFarmer.sol\":5428:5437  getMyEggs */\n      tag_173\n        /* \"contracts/cropsFarmer.sol\":5428:5439  getMyEggs() */\n      jump\t// in\n    tag_511:\n        /* \"contracts/cropsFarmer.sol\":5410:5439  uint256 hasEggs = getMyEggs() */\n      swap1\n      pop\n        /* \"contracts/cropsFarmer.sol\":5449:5465  uint256 eggValue */\n      0x00\n        /* \"contracts/cropsFarmer.sol\":5468:5493  calculateEggSell(hasEggs) */\n      tag_512\n        /* \"contracts/cropsFarmer.sol\":5485:5492  hasEggs */\n      dup3\n        /* \"contracts/cropsFarmer.sol\":5468:5484  calculateEggSell */\n      tag_288\n        /* \"contracts/cropsFarmer.sol\":5468:5493  calculateEggSell(hasEggs) */\n      jump\t// in\n    tag_512:\n        /* \"contracts/cropsFarmer.sol\":5449:5493  uint256 eggValue = calculateEggSell(hasEggs) */\n      swap1\n      pop\n        /* \"contracts/cropsFarmer.sol\":5615:5645  COMPOUND_FOR_NO_TAX_WITHDRAWAL */\n      sload(0x0c)\n        /* \"contracts/cropsFarmer.sol\":5589:5593  user */\n      dup4\n        /* \"contracts/cropsFarmer.sol\":5589:5612  user.dailyCompoundBonus */\n      0x09\n      add\n      sload\n        /* \"contracts/cropsFarmer.sol\":5589:5645  user.dailyCompoundBonus < COMPOUND_FOR_NO_TAX_WITHDRAWAL */\n      lt\n        /* \"contracts/cropsFarmer.sol\":5586:6054  if(user.dailyCompoundBonus < COMPOUND_FOR_NO_TAX_WITHDRAWAL){... */\n      iszero\n      tag_513\n      jumpi\n        /* \"contracts/cropsFarmer.sol\":5780:5844  eggValue.sub(eggValue.mul(WITHDRAWAL_TAX).div(PERCENTS_DIVIDER)) */\n      tag_514\n        /* \"contracts/cropsFarmer.sol\":5793:5843  eggValue.mul(WITHDRAWAL_TAX).div(PERCENTS_DIVIDER) */\n      tag_515\n        /* \"contracts/cropsFarmer.sol\":5826:5842  PERCENTS_DIVIDER */\n      sload(0x02)\n        /* \"contracts/cropsFarmer.sol\":5793:5821  eggValue.mul(WITHDRAWAL_TAX) */\n      tag_516\n        /* \"contracts/cropsFarmer.sol\":5806:5820  WITHDRAWAL_TAX */\n      sload(0x0b)\n        /* \"contracts/cropsFarmer.sol\":5793:5801  eggValue */\n      dup6\n        /* \"contracts/cropsFarmer.sol\":5793:5805  eggValue.mul */\n      tag_434\n      swap1\n        /* \"contracts/cropsFarmer.sol\":5793:5821  eggValue.mul(WITHDRAWAL_TAX) */\n      swap2\n      swap1\n      0xffffffff\n      and\n      jump\t// in\n    tag_516:\n        /* \"contracts/cropsFarmer.sol\":5793:5825  eggValue.mul(WITHDRAWAL_TAX).div */\n      tag_423\n      swap1\n        /* \"contracts/cropsFarmer.sol\":5793:5843  eggValue.mul(WITHDRAWAL_TAX).div(PERCENTS_DIVIDER) */\n      swap2\n      swap1\n      0xffffffff\n      and\n      jump\t// in\n    tag_515:\n        /* \"contracts/cropsFarmer.sol\":5780:5788  eggValue */\n      dup3\n        /* \"contracts/cropsFarmer.sol\":5780:5792  eggValue.sub */\n      tag_416\n      swap1\n        /* \"contracts/cropsFarmer.sol\":5780:5844  eggValue.sub(eggValue.mul(WITHDRAWAL_TAX).div(PERCENTS_DIVIDER)) */\n      swap2\n      swap1\n      0xffffffff\n      and\n      jump\t// in\n    tag_514:\n        /* \"contracts/cropsFarmer.sol\":5769:5844  eggValue = eggValue.sub(eggValue.mul(WITHDRAWAL_TAX).div(PERCENTS_DIVIDER)) */\n      swap1\n      pop\n        /* \"contracts/cropsFarmer.sol\":5586:6054  if(user.dailyCompoundBonus < COMPOUND_FOR_NO_TAX_WITHDRAWAL){... */\n      jump(tag_517)\n    tag_513:\n        /* \"contracts/cropsFarmer.sol\":5994:5995  0 */\n      0x00\n        /* \"contracts/cropsFarmer.sol\":5968:5972  user */\n      dup4\n        /* \"contracts/cropsFarmer.sol\":5968:5991  user.dailyCompoundBonus */\n      0x09\n      add\n        /* \"contracts/cropsFarmer.sol\":5968:5995  user.dailyCompoundBonus = 0 */\n      dup2\n      swap1\n      sstore\n      pop\n        /* \"contracts/cropsFarmer.sol\":6040:6041  0 */\n      0x00\n        /* \"contracts/cropsFarmer.sol\":6013:6017  user */\n      dup4\n        /* \"contracts/cropsFarmer.sol\":6013:6037  user.farmerCompoundCount */\n      0x0a\n      add\n        /* \"contracts/cropsFarmer.sol\":6013:6041  user.farmerCompoundCount = 0 */\n      dup2\n      swap1\n      sstore\n      pop\n        /* \"contracts/cropsFarmer.sol\":5586:6054  if(user.dailyCompoundBonus < COMPOUND_FOR_NO_TAX_WITHDRAWAL){... */\n    tag_517:\n        /* \"contracts/cropsFarmer.sol\":6096:6111  block.timestamp */\n      timestamp\n        /* \"contracts/cropsFarmer.sol\":6072:6076  user */\n      dup4\n        /* \"contracts/cropsFarmer.sol\":6072:6093  user.lastWithdrawTime */\n      0x0b\n      add\n        /* \"contracts/cropsFarmer.sol\":6072:6111  user.lastWithdrawTime = block.timestamp */\n      dup2\n      swap1\n      sstore\n      pop\n        /* \"contracts/cropsFarmer.sol\":6140:6141  0 */\n      0x00\n        /* \"contracts/cropsFarmer.sol\":6121:6125  user */\n      dup4\n        /* \"contracts/cropsFarmer.sol\":6121:6137  user.claimedEggs */\n      0x03\n      add\n        /* \"contracts/cropsFarmer.sol\":6121:6141  user.claimedEggs = 0 */\n      dup2\n      swap1\n      sstore\n      pop\n        /* \"contracts/cropsFarmer.sol\":6170:6185  block.timestamp */\n      timestamp\n        /* \"contracts/cropsFarmer.sol\":6153:6157  user */\n      dup4\n        /* \"contracts/cropsFarmer.sol\":6153:6167  user.lastHatch */\n      0x04\n      add\n        /* \"contracts/cropsFarmer.sol\":6153:6185  user.lastHatch = block.timestamp */\n      dup2\n      swap1\n      sstore\n      pop\n        /* \"contracts/cropsFarmer.sol\":6208:6256  marketEggs.add(hasEggs.div(MARKET_EGGS_DIVISOR)) */\n      tag_518\n        /* \"contracts/cropsFarmer.sol\":6223:6255  hasEggs.div(MARKET_EGGS_DIVISOR) */\n      tag_519\n        /* \"contracts/cropsFarmer.sol\":6235:6254  MARKET_EGGS_DIVISOR */\n      sload(0x05)\n        /* \"contracts/cropsFarmer.sol\":6223:6230  hasEggs */\n      dup5\n        /* \"contracts/cropsFarmer.sol\":6223:6234  hasEggs.div */\n      tag_423\n      swap1\n        /* \"contracts/cropsFarmer.sol\":6223:6255  hasEggs.div(MARKET_EGGS_DIVISOR) */\n      swap2\n      swap1\n      0xffffffff\n      and\n      jump\t// in\n    tag_519:\n        /* \"contracts/cropsFarmer.sol\":6208:6218  marketEggs */\n      sload(0x12)\n        /* \"contracts/cropsFarmer.sol\":6208:6222  marketEggs.add */\n      tag_411\n      swap1\n        /* \"contracts/cropsFarmer.sol\":6208:6256  marketEggs.add(hasEggs.div(MARKET_EGGS_DIVISOR)) */\n      swap2\n      swap1\n      0xffffffff\n      and\n      jump\t// in\n    tag_518:\n        /* \"contracts/cropsFarmer.sol\":6195:6205  marketEggs */\n      0x12\n        /* \"contracts/cropsFarmer.sol\":6195:6256  marketEggs = marketEggs.add(hasEggs.div(MARKET_EGGS_DIVISOR)) */\n      dup2\n      swap1\n      sstore\n      pop\n        /* \"contracts/cropsFarmer.sol\":6293:6301  eggValue */\n      dup1\n        /* \"contracts/cropsFarmer.sol\":6278:6290  getBalance() */\n      tag_520\n        /* \"contracts/cropsFarmer.sol\":6278:6288  getBalance */\n      tag_109\n        /* \"contracts/cropsFarmer.sol\":6278:6290  getBalance() */\n      jump\t// in\n    tag_520:\n        /* \"contracts/cropsFarmer.sol\":6278:6301  getBalance() < eggValue */\n      lt\n        /* \"contracts/cropsFarmer.sol\":6275:6351  if(getBalance() < eggValue) {... */\n      iszero\n      tag_521\n      jumpi\n        /* \"contracts/cropsFarmer.sol\":6328:6340  getBalance() */\n      tag_522\n        /* \"contracts/cropsFarmer.sol\":6328:6338  getBalance */\n      tag_109\n        /* \"contracts/cropsFarmer.sol\":6328:6340  getBalance() */\n      jump\t// in\n    tag_522:\n        /* \"contracts/cropsFarmer.sol\":6317:6340  eggValue = getBalance() */\n      swap1\n      pop\n        /* \"contracts/cropsFarmer.sol\":6275:6351  if(getBalance() < eggValue) {... */\n    tag_521:\n        /* \"contracts/cropsFarmer.sol\":6361:6379  uint256 eggsPayout */\n      0x00\n        /* \"contracts/cropsFarmer.sol\":6382:6413  eggValue.sub(payFees(eggValue)) */\n      tag_523\n        /* \"contracts/cropsFarmer.sol\":6395:6412  payFees(eggValue) */\n      tag_524\n        /* \"contracts/cropsFarmer.sol\":6403:6411  eggValue */\n      dup4\n        /* \"contracts/cropsFarmer.sol\":6395:6402  payFees */\n      tag_494\n        /* \"contracts/cropsFarmer.sol\":6395:6412  payFees(eggValue) */\n      jump\t// in\n    tag_524:\n        /* \"contracts/cropsFarmer.sol\":6382:6390  eggValue */\n      dup4\n        /* \"contracts/cropsFarmer.sol\":6382:6394  eggValue.sub */\n      tag_416\n      swap1\n        /* \"contracts/cropsFarmer.sol\":6382:6413  eggValue.sub(payFees(eggValue)) */\n      swap2\n      swap1\n      0xffffffff\n      and\n      jump\t// in\n    tag_523:\n        /* \"contracts/cropsFarmer.sol\":6361:6413  uint256 eggsPayout = eggValue.sub(payFees(eggValue)) */\n      swap1\n      pop\n        /* \"contracts/cropsFarmer.sol\":6439:6449  msg.sender */\n      caller\n        /* \"contracts/cropsFarmer.sol\":6423:6460  payable(address(msg.sender)).transfer */\n      0xffffffffffffffffffffffffffffffffffffffff\n      and\n        /* \"contracts/cropsFarmer.sol\":6423:6472  payable(address(msg.sender)).transfer(eggsPayout) */\n      0x08fc\n        /* \"contracts/cropsFarmer.sol\":6461:6471  eggsPayout */\n      dup3\n        /* \"contracts/cropsFarmer.sol\":6423:6472  payable(address(msg.sender)).transfer(eggsPayout) */\n      swap1\n      dup2\n      iszero\n      mul\n      swap1\n      mload(0x40)\n      0x00\n      mload(0x40)\n      dup1\n      dup4\n      sub\n      dup2\n      dup6\n      dup9\n      dup9\n      call\n      swap4\n      pop\n      pop\n      pop\n      pop\n      iszero\n      dup1\n      iszero\n      tag_526\n      jumpi\n      returndatasize\n      0x00\n      dup1\n      returndatacopy\n      revert(0x00, returndatasize)\n    tag_526:\n      pop\n        /* \"contracts/cropsFarmer.sol\":6504:6539  user.totalWithdrawn.add(eggsPayout) */\n      tag_527\n        /* \"contracts/cropsFarmer.sol\":6528:6538  eggsPayout */\n      dup2\n        /* \"contracts/cropsFarmer.sol\":6504:6508  user */\n      dup6\n        /* \"contracts/cropsFarmer.sol\":6504:6523  user.totalWithdrawn */\n      0x08\n      add\n      sload\n        /* \"contracts/cropsFarmer.sol\":6504:6527  user.totalWithdrawn.add */\n      tag_411\n      swap1\n        /* \"contracts/cropsFarmer.sol\":6504:6539  user.totalWithdrawn.add(eggsPayout) */\n      swap2\n      swap1\n      0xffffffff\n      and\n      jump\t// in\n    tag_527:\n        /* \"contracts/cropsFarmer.sol\":6482:6486  user */\n      dup5\n        /* \"contracts/cropsFarmer.sol\":6482:6501  user.totalWithdrawn */\n      0x08\n      add\n        /* \"contracts/cropsFarmer.sol\":6482:6539  user.totalWithdrawn = user.totalWithdrawn.add(eggsPayout) */\n      dup2\n      swap1\n      sstore\n      pop\n        /* \"contracts/cropsFarmer.sol\":6566:6596  totalWithdrawn.add(eggsPayout) */\n      tag_528\n        /* \"contracts/cropsFarmer.sol\":6585:6595  eggsPayout */\n      dup2\n        /* \"contracts/cropsFarmer.sol\":6566:6580  totalWithdrawn */\n      sload(0x11)\n        /* \"contracts/cropsFarmer.sol\":6566:6584  totalWithdrawn.add */\n      tag_411\n      swap1\n        /* \"contracts/cropsFarmer.sol\":6566:6596  totalWithdrawn.add(eggsPayout) */\n      swap2\n      swap1\n      0xffffffff\n      and\n      jump\t// in\n    tag_528:\n        /* \"contracts/cropsFarmer.sol\":6549:6563  totalWithdrawn */\n      0x11\n        /* \"contracts/cropsFarmer.sol\":6549:6596  totalWithdrawn = totalWithdrawn.add(eggsPayout) */\n      dup2\n      swap1\n      sstore\n      pop\n        /* \"contracts/cropsFarmer.sol\":5173:6603  {... */\n      pop\n      pop\n      pop\n      pop\n        /* \"contracts/cropsFarmer.sol\":5146:6603  function sellCrops() public{... */\n      jump\t// out\n        /* \"contracts/cropsFarmer.sol\":325:363  uint256 public MARKET_EGGS_DIVISOR = 2 */\n    tag_210:\n      sload(0x05)\n      dup2\n      jump\t// out\n        /* \"contracts/cropsFarmer.sol\":10184:11224  function getUserInfo(address _adr) public view returns(uint256 _initialDeposit, uint256 _userDeposit, uint256 _miners,... */\n    tag_215:\n        /* \"contracts/cropsFarmer.sol\":10239:10262  uint256 _initialDeposit */\n      0x00\n        /* \"contracts/cropsFarmer.sol\":10264:10284  uint256 _userDeposit */\n      dup1\n        /* \"contracts/cropsFarmer.sol\":10286:10301  uint256 _miners */\n      0x00\n        /* \"contracts/cropsFarmer.sol\":10308:10328  uint256 _claimedEggs */\n      dup1\n        /* \"contracts/cropsFarmer.sol\":10330:10348  uint256 _lastHatch */\n      0x00\n        /* \"contracts/cropsFarmer.sol\":10350:10367  address _referrer */\n      dup1\n        /* \"contracts/cropsFarmer.sol\":10369:10387  uint256 _referrals */\n      0x00\n        /* \"contracts/cropsFarmer.sol\":10391:10414  uint256 _totalWithdrawn */\n      dup1\n        /* \"contracts/cropsFarmer.sol\":10416:10443  uint256 _referralEggRewards */\n      0x00\n        /* \"contracts/cropsFarmer.sol\":10445:10472  uint256 _dailyCompoundBonus */\n      dup1\n        /* \"contracts/cropsFarmer.sol\":10474:10502  uint256 _farmerCompoundCount */\n      0x00\n        /* \"contracts/cropsFarmer.sol\":10504:10529  uint256 _lastWithdrawTime */\n      dup1\n        /* \"contracts/cropsFarmer.sol\":10560:10565  users */\n      0x21\n        /* \"contracts/cropsFarmer.sol\":10560:10571  users[_adr] */\n      0x00\n        /* \"contracts/cropsFarmer.sol\":10566:10570  _adr */\n      dup15\n        /* \"contracts/cropsFarmer.sol\":10560:10571  users[_adr] */\n      0xffffffffffffffffffffffffffffffffffffffff\n      and\n      0xffffffffffffffffffffffffffffffffffffffff\n      and\n      dup2\n      mstore\n      0x20\n      add\n      swap1\n      dup2\n      mstore\n      0x20\n      add\n      0x00\n      keccak256\n        /* \"contracts/cropsFarmer.sol\":10560:10586  users[_adr].initialDeposit */\n      0x00\n      add\n      sload\n        /* \"contracts/cropsFarmer.sol\":10542:10586  _initialDeposit = users[_adr].initialDeposit */\n      swap12\n      pop\n        /* \"contracts/cropsFarmer.sol\":10666:10671  users */\n      0x21\n        /* \"contracts/cropsFarmer.sol\":10666:10677  users[_adr] */\n      0x00\n        /* \"contracts/cropsFarmer.sol\":10672:10676  _adr */\n      dup15\n        /* \"contracts/cropsFarmer.sol\":10666:10677  users[_adr] */\n      0xffffffffffffffffffffffffffffffffffffffff\n      and\n      0xffffffffffffffffffffffffffffffffffffffff\n      and\n      dup2\n      mstore\n      0x20\n      add\n      swap1\n      dup2\n      mstore\n      0x20\n      add\n      0x00\n      keccak256\n        /* \"contracts/cropsFarmer.sol\":10666:10689  users[_adr].userDeposit */\n      0x01\n      add\n      sload\n        /* \"contracts/cropsFarmer.sol\":10651:10689  _userDeposit = users[_adr].userDeposit */\n      swap11\n      pop\n        /* \"contracts/cropsFarmer.sol\":10710:10715  users */\n      0x21\n        /* \"contracts/cropsFarmer.sol\":10710:10721  users[_adr] */\n      0x00\n        /* \"contracts/cropsFarmer.sol\":10716:10720  _adr */\n      dup15\n        /* \"contracts/cropsFarmer.sol\":10710:10721  users[_adr] */\n      0xffffffffffffffffffffffffffffffffffffffff\n      and\n      0xffffffffffffffffffffffffffffffffffffffff\n      and\n      dup2\n      mstore\n      0x20\n      add\n      swap1\n      dup2\n      mstore\n      0x20\n      add\n      0x00\n      keccak256\n        /* \"contracts/cropsFarmer.sol\":10710:10728  users[_adr].miners */\n      0x02\n      add\n      sload\n        /* \"contracts/cropsFarmer.sol\":10700:10728  _miners = users[_adr].miners */\n      swap10\n      pop\n        /* \"contracts/cropsFarmer.sol\":10754:10759  users */\n      0x21\n        /* \"contracts/cropsFarmer.sol\":10754:10765  users[_adr] */\n      0x00\n        /* \"contracts/cropsFarmer.sol\":10760:10764  _adr */\n      dup15\n        /* \"contracts/cropsFarmer.sol\":10754:10765  users[_adr] */\n      0xffffffffffffffffffffffffffffffffffffffff\n      and\n      0xffffffffffffffffffffffffffffffffffffffff\n      and\n      dup2\n      mstore\n      0x20\n      add\n      swap1\n      dup2\n      mstore\n      0x20\n      add\n      0x00\n      keccak256\n        /* \"contracts/cropsFarmer.sol\":10754:10777  users[_adr].claimedEggs */\n      0x03\n      add\n      sload\n        /* \"contracts/cropsFarmer.sol\":10739:10777  _claimedEggs = users[_adr].claimedEggs */\n      swap9\n      pop\n        /* \"contracts/cropsFarmer.sol\":10801:10806  users */\n      0x21\n        /* \"contracts/cropsFarmer.sol\":10801:10812  users[_adr] */\n      0x00\n        /* \"contracts/cropsFarmer.sol\":10807:10811  _adr */\n      dup15\n        /* \"contracts/cropsFarmer.sol\":10801:10812  users[_adr] */\n      0xffffffffffffffffffffffffffffffffffffffff\n      and\n      0xffffffffffffffffffffffffffffffffffffffff\n      and\n      dup2\n      mstore\n      0x20\n      add\n      swap1\n      dup2\n      mstore\n      0x20\n      add\n      0x00\n      keccak256\n        /* \"contracts/cropsFarmer.sol\":10801:10822  users[_adr].lastHatch */\n      0x04\n      add\n      sload\n        /* \"contracts/cropsFarmer.sol\":10788:10822  _lastHatch = users[_adr].lastHatch */\n      swap8\n      pop\n        /* \"contracts/cropsFarmer.sol\":10845:10850  users */\n      0x21\n        /* \"contracts/cropsFarmer.sol\":10845:10856  users[_adr] */\n      0x00\n        /* \"contracts/cropsFarmer.sol\":10851:10855  _adr */\n      dup15\n        /* \"contracts/cropsFarmer.sol\":10845:10856  users[_adr] */\n      0xffffffffffffffffffffffffffffffffffffffff\n      and\n      0xffffffffffffffffffffffffffffffffffffffff\n      and\n      dup2\n      mstore\n      0x20\n      add\n      swap1\n      dup2\n      mstore\n      0x20\n      add\n      0x00\n      keccak256\n        /* \"contracts/cropsFarmer.sol\":10845:10865  users[_adr].referrer */\n      0x05\n      add\n      0x00\n      swap1\n      sload\n      swap1\n      0x0100\n      exp\n      swap1\n      div\n      0xffffffffffffffffffffffffffffffffffffffff\n      and\n        /* \"contracts/cropsFarmer.sol\":10833:10865  _referrer = users[_adr].referrer */\n      swap7\n      pop\n        /* \"contracts/cropsFarmer.sol\":10889:10894  users */\n      0x21\n        /* \"contracts/cropsFarmer.sol\":10889:10900  users[_adr] */\n      0x00\n        /* \"contracts/cropsFarmer.sol\":10895:10899  _adr */\n      dup15\n        /* \"contracts/cropsFarmer.sol\":10889:10900  users[_adr] */\n      0xffffffffffffffffffffffffffffffffffffffff\n      and\n      0xffffffffffffffffffffffffffffffffffffffff\n      and\n      dup2\n      mstore\n      0x20\n      add\n      swap1\n      dup2\n      mstore\n      0x20\n      add\n      0x00\n      keccak256\n        /* \"contracts/cropsFarmer.sol\":10889:10915  users[_adr].referralsCount */\n      0x06\n      add\n      sload\n        /* \"contracts/cropsFarmer.sol\":10876:10915  _referrals = users[_adr].referralsCount */\n      swap6\n      pop\n        /* \"contracts/cropsFarmer.sol\":10944:10949  users */\n      0x21\n        /* \"contracts/cropsFarmer.sol\":10944:10955  users[_adr] */\n      0x00\n        /* \"contracts/cropsFarmer.sol\":10950:10954  _adr */\n      dup15\n        /* \"contracts/cropsFarmer.sol\":10944:10955  users[_adr] */\n      0xffffffffffffffffffffffffffffffffffffffff\n      and\n      0xffffffffffffffffffffffffffffffffffffffff\n      and\n      dup2\n      mstore\n      0x20\n      add\n      swap1\n      dup2\n      mstore\n      0x20\n      add\n      0x00\n      keccak256\n        /* \"contracts/cropsFarmer.sol\":10944:10970  users[_adr].totalWithdrawn */\n      0x08\n      add\n      sload\n        /* \"contracts/cropsFarmer.sol\":10926:10970  _totalWithdrawn = users[_adr].totalWithdrawn */\n      swap5\n      pop\n        /* \"contracts/cropsFarmer.sol\":11003:11008  users */\n      0x21\n        /* \"contracts/cropsFarmer.sol\":11003:11014  users[_adr] */\n      0x00\n        /* \"contracts/cropsFarmer.sol\":11009:11013  _adr */\n      dup15\n        /* \"contracts/cropsFarmer.sol\":11003:11014  users[_adr] */\n      0xffffffffffffffffffffffffffffffffffffffff\n      and\n      0xffffffffffffffffffffffffffffffffffffffff\n      and\n      dup2\n      mstore\n      0x20\n      add\n      swap1\n      dup2\n      mstore\n      0x20\n      add\n      0x00\n      keccak256\n        /* \"contracts/cropsFarmer.sol\":11003:11033  users[_adr].referralEggRewards */\n      0x07\n      add\n      sload\n        /* \"contracts/cropsFarmer.sol\":10981:11033  _referralEggRewards = users[_adr].referralEggRewards */\n      swap4\n      pop\n        /* \"contracts/cropsFarmer.sol\":11066:11071  users */\n      0x21\n        /* \"contracts/cropsFarmer.sol\":11066:11077  users[_adr] */\n      0x00\n        /* \"contracts/cropsFarmer.sol\":11072:11076  _adr */\n      dup15\n        /* \"contracts/cropsFarmer.sol\":11066:11077  users[_adr] */\n      0xffffffffffffffffffffffffffffffffffffffff\n      and\n      0xffffffffffffffffffffffffffffffffffffffff\n      and\n      dup2\n      mstore\n      0x20\n      add\n      swap1\n      dup2\n      mstore\n      0x20\n      add\n      0x00\n      keccak256\n        /* \"contracts/cropsFarmer.sol\":11066:11096  users[_adr].dailyCompoundBonus */\n      0x09\n      add\n      sload\n        /* \"contracts/cropsFarmer.sol\":11044:11096  _dailyCompoundBonus = users[_adr].dailyCompoundBonus */\n      swap3\n      pop\n        /* \"contracts/cropsFarmer.sol\":11130:11135  users */\n      0x21\n        /* \"contracts/cropsFarmer.sol\":11130:11141  users[_adr] */\n      0x00\n        /* \"contracts/cropsFarmer.sol\":11136:11140  _adr */\n      dup15\n        /* \"contracts/cropsFarmer.sol\":11130:11141  users[_adr] */\n      0xffffffffffffffffffffffffffffffffffffffff\n      and\n      0xffffffffffffffffffffffffffffffffffffffff\n      and\n      dup2\n      mstore\n      0x20\n      add\n      swap1\n      dup2\n      mstore\n      0x20\n      add\n      0x00\n      keccak256\n        /* \"contracts/cropsFarmer.sol\":11130:11161  users[_adr].farmerCompoundCount */\n      0x0a\n      add\n      sload\n        /* \"contracts/cropsFarmer.sol\":11107:11161  _farmerCompoundCount = users[_adr].farmerCompoundCount */\n      swap2\n      pop\n        /* \"contracts/cropsFarmer.sol\":11192:11197  users */\n      0x21\n        /* \"contracts/cropsFarmer.sol\":11192:11203  users[_adr] */\n      0x00\n        /* \"contracts/cropsFarmer.sol\":11198:11202  _adr */\n      dup15\n        /* \"contracts/cropsFarmer.sol\":11192:11203  users[_adr] */\n      0xffffffffffffffffffffffffffffffffffffffff\n      and\n      0xffffffffffffffffffffffffffffffffffffffff\n      and\n      dup2\n      mstore\n      0x20\n      add\n      swap1\n      dup2\n      mstore\n      0x20\n      add\n      0x00\n      keccak256\n        /* \"contracts/cropsFarmer.sol\":11192:11220  users[_adr].lastWithdrawTime */\n      0x0b\n      add\n      sload\n        /* \"contracts/cropsFarmer.sol\":11172:11220  _lastWithdrawTime = users[_adr].lastWithdrawTime */\n      swap1\n      pop\n        /* \"contracts/cropsFarmer.sol\":10184:11224  function getUserInfo(address _adr) public view returns(uint256 _initialDeposit, uint256 _userDeposit, uint256 _miners,... */\n      swap2\n      swap4\n      swap6\n      swap8\n      swap10\n      swap12\n      pop\n      swap2\n      swap4\n      swap6\n      swap8\n      swap10\n      swap12\n      jump\t// out\n        /* \"contracts/cropsFarmer.sol\":11430:11638  function getAvailableEarnings(address _adr) public view returns(uint256) {... */\n    tag_221:\n        /* \"contracts/cropsFarmer.sol\":11494:11501  uint256 */\n      0x00\n        /* \"contracts/cropsFarmer.sol\":11513:11529  uint256 userEggs */\n      dup1\n        /* \"contracts/cropsFarmer.sol\":11532:11588  users[_adr].claimedEggs.add(getEggsSinceLastHatch(_adr)) */\n      tag_531\n        /* \"contracts/cropsFarmer.sol\":11560:11587  getEggsSinceLastHatch(_adr) */\n      tag_532\n        /* \"contracts/cropsFarmer.sol\":11582:11586  _adr */\n      dup5\n        /* \"contracts/cropsFarmer.sol\":11560:11581  getEggsSinceLastHatch */\n      tag_365\n        /* \"contracts/cropsFarmer.sol\":11560:11587  getEggsSinceLastHatch(_adr) */\n      jump\t// in\n    tag_532:\n        /* \"contracts/cropsFarmer.sol\":11532:11537  users */\n      0x21\n        /* \"contracts/cropsFarmer.sol\":11532:11543  users[_adr] */\n      0x00\n        /* \"contracts/cropsFarmer.sol\":11538:11542  _adr */\n      dup7\n        /* \"contracts/cropsFarmer.sol\":11532:11543  users[_adr] */\n      0xffffffffffffffffffffffffffffffffffffffff\n      and\n      0xffffffffffffffffffffffffffffffffffffffff\n      and\n      dup2\n      mstore\n      0x20\n      add\n      swap1\n      dup2\n      mstore\n      0x20\n      add\n      0x00\n      keccak256\n        /* \"contracts/cropsFarmer.sol\":11532:11555  users[_adr].claimedEggs */\n      0x03\n      add\n      sload\n        /* \"contracts/cropsFarmer.sol\":11532:11559  users[_adr].claimedEggs.add */\n      tag_411\n      swap1\n        /* \"contracts/cropsFarmer.sol\":11532:11588  users[_adr].claimedEggs.add(getEggsSinceLastHatch(_adr)) */\n      swap2\n      swap1\n      0xffffffff\n      and\n      jump\t// in\n    tag_531:\n        /* \"contracts/cropsFarmer.sol\":11513:11588  uint256 userEggs = users[_adr].claimedEggs.add(getEggsSinceLastHatch(_adr)) */\n      swap1\n      pop\n        /* \"contracts/cropsFarmer.sol\":11605:11631  calculateEggSell(userEggs) */\n      tag_533\n        /* \"contracts/cropsFarmer.sol\":11622:11630  userEggs */\n      dup2\n        /* \"contracts/cropsFarmer.sol\":11605:11621  calculateEggSell */\n      tag_288\n        /* \"contracts/cropsFarmer.sol\":11605:11631  calculateEggSell(userEggs) */\n      jump\t// in\n    tag_533:\n        /* \"contracts/cropsFarmer.sol\":11598:11631  return calculateEggSell(userEggs) */\n      swap2\n      pop\n      pop\n        /* \"contracts/cropsFarmer.sol\":11430:11638  function getAvailableEarnings(address _adr) public view returns(uint256) {... */\n      swap2\n      swap1\n      pop\n      jump\t// out\n        /* \"contracts/cropsFarmer.sol\":268:290  uint256 public TAX = 9 */\n    tag_225:\n      sload(0x03)\n      dup2\n      jump\t// out\n        /* \"contracts/cropsFarmer.sol\":851:879  uint256 public totalRefBonus */\n    tag_229:\n      sload(0x10)\n      dup2\n      jump\t// out\n        /* \"contracts/cropsFarmer.sol\":16597:16793  function BONUS_DAILY_COMPOUND(uint256 value) external {... */\n    tag_234:\n        /* \"contracts/cropsFarmer.sol\":16683:16688  owner */\n      0x1a\n      0x00\n      swap1\n      sload\n      swap1\n      0x0100\n      exp\n      swap1\n      div\n      0xffffffffffffffffffffffffffffffffffffffff\n      and\n        /* \"contracts/cropsFarmer.sol\":16669:16688  msg.sender == owner */\n      0xffffffffffffffffffffffffffffffffffffffff\n      and\n        /* \"contracts/cropsFarmer.sol\":16669:16679  msg.sender */\n      caller\n        /* \"contracts/cropsFarmer.sol\":16669:16688  msg.sender == owner */\n      0xffffffffffffffffffffffffffffffffffffffff\n      and\n      eq\n        /* \"contracts/cropsFarmer.sol\":16661:16708  require(msg.sender == owner, \"Admin use only.\") */\n      tag_535\n      jumpi\n      mload(0x40)\n      0x08c379a000000000000000000000000000000000000000000000000000000000\n      dup2\n      mstore\n      0x04\n      add\n      tag_536\n      swap1\n      tag_429\n      jump\t// in\n    tag_536:\n      mload(0x40)\n      dup1\n      swap2\n      sub\n      swap1\n      revert\n    tag_535:\n        /* \"contracts/cropsFarmer.sol\":16735:16737  10 */\n      0x0a\n        /* \"contracts/cropsFarmer.sol\":16726:16731  value */\n      dup2\n        /* \"contracts/cropsFarmer.sol\":16726:16737  value >= 10 */\n      lt\n      iszero\n        /* \"contracts/cropsFarmer.sol\":16726:16753  value >= 10 && value <= 900 */\n      dup1\n      iszero\n      tag_537\n      jumpi\n      pop\n        /* \"contracts/cropsFarmer.sol\":16750:16753  900 */\n      0x0384\n        /* \"contracts/cropsFarmer.sol\":16741:16746  value */\n      dup2\n        /* \"contracts/cropsFarmer.sol\":16741:16753  value <= 900 */\n      gt\n      iszero\n        /* \"contracts/cropsFarmer.sol\":16726:16753  value >= 10 && value <= 900 */\n    tag_537:\n        /* \"contracts/cropsFarmer.sol\":16718:16754  require(value >= 10 && value <= 900) */\n      tag_538\n      jumpi\n      0x00\n      dup1\n      revert\n    tag_538:\n        /* \"contracts/cropsFarmer.sol\":16781:16786  value */\n      dup1\n        /* \"contracts/cropsFarmer.sol\":16764:16778  COMPOUND_BONUS */\n      0x08\n        /* \"contracts/cropsFarmer.sol\":16764:16786  COMPOUND_BONUS = value */\n      dup2\n      swap1\n      sstore\n      pop\n        /* \"contracts/cropsFarmer.sol\":16597:16793  function BONUS_DAILY_COMPOUND(uint256 value) external {... */\n      pop\n      jump\t// out\n        /* \"contracts/cropsFarmer.sol\":598:641  uint256 public COMPOUND_STEP = 12 * 60 * 60 */\n    tag_237:\n      sload(0x0a)\n      dup2\n      jump\t// out\n        /* \"contracts/cropsFarmer.sol\":16218:16406  function PRC_MARKET_EGGS_DIVISOR(uint256 value) external {... */\n    tag_242:\n        /* \"contracts/cropsFarmer.sol\":16307:16312  owner */\n      0x1a\n      0x00\n      swap1\n      sload\n      swap1\n      0x0100\n      exp\n      swap1\n      div\n      0xffffffffffffffffffffffffffffffffffffffff\n      and\n        /* \"contracts/cropsFarmer.sol\":16293:16312  msg.sender == owner */\n      0xffffffffffffffffffffffffffffffffffffffff\n      and\n        /* \"contracts/cropsFarmer.sol\":16293:16303  msg.sender */\n      caller\n        /* \"contracts/cropsFarmer.sol\":16293:16312  msg.sender == owner */\n      0xffffffffffffffffffffffffffffffffffffffff\n      and\n      eq\n        /* \"contracts/cropsFarmer.sol\":16285:16332  require(msg.sender == owner, \"Admin use only.\") */\n      tag_540\n      jumpi\n      mload(0x40)\n      0x08c379a000000000000000000000000000000000000000000000000000000000\n      dup2\n      mstore\n      0x04\n      add\n      tag_541\n      swap1\n      tag_429\n      jump\t// in\n    tag_541:\n      mload(0x40)\n      dup1\n      swap2\n      sub\n      swap1\n      revert\n    tag_540:\n        /* \"contracts/cropsFarmer.sol\":16359:16361  50 */\n      0x32\n        /* \"contracts/cropsFarmer.sol\":16350:16355  value */\n      dup2\n        /* \"contracts/cropsFarmer.sol\":16350:16361  value <= 50 */\n      gt\n      iszero\n        /* \"contracts/cropsFarmer.sol\":16342:16362  require(value <= 50) */\n      tag_542\n      jumpi\n      0x00\n      dup1\n      revert\n    tag_542:\n        /* \"contracts/cropsFarmer.sol\":16394:16399  value */\n      dup1\n        /* \"contracts/cropsFarmer.sol\":16372:16391  MARKET_EGGS_DIVISOR */\n      0x05\n        /* \"contracts/cropsFarmer.sol\":16372:16399  MARKET_EGGS_DIVISOR = value */\n      dup2\n      swap1\n      sstore\n      pop\n        /* \"contracts/cropsFarmer.sol\":16218:16406  function PRC_MARKET_EGGS_DIVISOR(uint256 value) external {... */\n      pop\n      jump\t// out\n        /* \"contracts/cropsFarmer.sol\":17356:17507  function SET_CUTOFF_STEP(uint256 value) external {... */\n    tag_246:\n        /* \"contracts/cropsFarmer.sol\":17437:17442  owner */\n      0x1a\n      0x00\n      swap1\n      sload\n      swap1\n      0x0100\n      exp\n      swap1\n      div\n      0xffffffffffffffffffffffffffffffffffffffff\n      and\n        /* \"contracts/cropsFarmer.sol\":17423:17442  msg.sender == owner */\n      0xffffffffffffffffffffffffffffffffffffffff\n      and\n        /* \"contracts/cropsFarmer.sol\":17423:17433  msg.sender */\n      caller\n        /* \"contracts/cropsFarmer.sol\":17423:17442  msg.sender == owner */\n      0xffffffffffffffffffffffffffffffffffffffff\n      and\n      eq\n        /* \"contracts/cropsFarmer.sol\":17415:17461  require(msg.sender == owner, \"Admin use only\") */\n      tag_544\n      jumpi\n      mload(0x40)\n      0x08c379a000000000000000000000000000000000000000000000000000000000\n      dup2\n      mstore\n      0x04\n      add\n      tag_545\n      swap1\n      tag_455\n      jump\t// in\n    tag_545:\n      mload(0x40)\n      dup1\n      swap2\n      sub\n      swap1\n      revert\n    tag_544:\n        /* \"contracts/cropsFarmer.sol\":17498:17500  60 */\n      0x3c\n        /* \"contracts/cropsFarmer.sol\":17493:17495  60 */\n      dup1\n        /* \"contracts/cropsFarmer.sol\":17485:17490  value */\n      dup3\n        /* \"contracts/cropsFarmer.sol\":17485:17495  value * 60 */\n      tag_546\n      swap2\n      swap1\n      tag_458\n      jump\t// in\n    tag_546:\n        /* \"contracts/cropsFarmer.sol\":17485:17500  value * 60 * 60 */\n      tag_547\n      swap2\n      swap1\n      tag_458\n      jump\t// in\n    tag_547:\n        /* \"contracts/cropsFarmer.sol\":17471:17482  CUTOFF_STEP */\n      0x18\n        /* \"contracts/cropsFarmer.sol\":17471:17500  CUTOFF_STEP = value * 60 * 60 */\n      dup2\n      swap1\n      sstore\n      pop\n        /* \"contracts/cropsFarmer.sol\":17356:17507  function SET_CUTOFF_STEP(uint256 value) external {... */\n      pop\n      jump\t// out\n        /* \"contracts/cropsFarmer.sol\":1485:1511  address payable public mkt */\n    tag_249:\n      0x20\n      0x00\n      swap1\n      sload\n      swap1\n      0x0100\n      exp\n      swap1\n      div\n      0xffffffffffffffffffffffffffffffffffffffff\n      and\n      dup2\n      jump\t// out\n        /* \"contracts/cropsFarmer.sol\":783:811  uint256 public totalDeposits */\n    tag_253:\n      sload(0x0e)\n      dup2\n      jump\t// out\n        /* \"contracts/cropsFarmer.sol\":817:845  uint256 public totalCompound */\n    tag_257:\n      sload(0x0f)\n      dup2\n      jump\t// out\n        /* \"contracts/cropsFarmer.sol\":12410:12540  function calculateEggBuySimple(uint256 eth) public view returns(uint256){... */\n    tag_262:\n        /* \"contracts/cropsFarmer.sol\":12474:12481  uint256 */\n      0x00\n        /* \"contracts/cropsFarmer.sol\":12499:12533  calculateEggBuy(eth, getBalance()) */\n      tag_549\n        /* \"contracts/cropsFarmer.sol\":12515:12518  eth */\n      dup3\n        /* \"contracts/cropsFarmer.sol\":12520:12532  getBalance() */\n      tag_550\n        /* \"contracts/cropsFarmer.sol\":12520:12530  getBalance */\n      tag_109\n        /* \"contracts/cropsFarmer.sol\":12520:12532  getBalance() */\n      jump\t// in\n    tag_550:\n        /* \"contracts/cropsFarmer.sol\":12499:12514  calculateEggBuy */\n      tag_143\n        /* \"contracts/cropsFarmer.sol\":12499:12533  calculateEggBuy(eth, getBalance()) */\n      jump\t// in\n    tag_549:\n        /* \"contracts/cropsFarmer.sol\":12492:12533  return calculateEggBuy(eth, getBalance()) */\n      swap1\n      pop\n        /* \"contracts/cropsFarmer.sol\":12410:12540  function calculateEggBuySimple(uint256 eth) public view returns(uint256){... */\n      swap2\n      swap1\n      pop\n      jump\t// out\n        /* \"contracts/cropsFarmer.sol\":17712:17911  function SET_WALLET_DEPOSIT_LIMIT(uint256 value) external {... */\n    tag_267:\n        /* \"contracts/cropsFarmer.sol\":17802:17807  owner */\n      0x1a\n      0x00\n      swap1\n      sload\n      swap1\n      0x0100\n      exp\n      swap1\n      div\n      0xffffffffffffffffffffffffffffffffffffffff\n      and\n        /* \"contracts/cropsFarmer.sol\":17788:17807  msg.sender == owner */\n      0xffffffffffffffffffffffffffffffffffffffff\n      and\n        /* \"contracts/cropsFarmer.sol\":17788:17798  msg.sender */\n      caller\n        /* \"contracts/cropsFarmer.sol\":17788:17807  msg.sender == owner */\n      0xffffffffffffffffffffffffffffffffffffffff\n      and\n      eq\n        /* \"contracts/cropsFarmer.sol\":17780:17826  require(msg.sender == owner, \"Admin use only\") */\n      tag_552\n      jumpi\n      mload(0x40)\n      0x08c379a000000000000000000000000000000000000000000000000000000000\n      dup2\n      mstore\n      0x04\n      add\n      tag_553\n      swap1\n      tag_455\n      jump\t// in\n    tag_553:\n      mload(0x40)\n      dup1\n      swap2\n      sub\n      swap1\n      revert\n    tag_552:\n        /* \"contracts/cropsFarmer.sol\":17853:17855  10 */\n      0x0a\n        /* \"contracts/cropsFarmer.sol\":17844:17849  value */\n      dup2\n        /* \"contracts/cropsFarmer.sol\":17844:17855  value >= 10 */\n      lt\n      iszero\n        /* \"contracts/cropsFarmer.sol\":17836:17856  require(value >= 10) */\n      tag_554\n      jumpi\n      0x00\n      dup1\n      revert\n    tag_554:\n        /* \"contracts/cropsFarmer.sol\":17897:17904  1 ether */\n      0x0de0b6b3a7640000\n        /* \"contracts/cropsFarmer.sol\":17889:17894  value */\n      dup2\n        /* \"contracts/cropsFarmer.sol\":17889:17904  value * 1 ether */\n      tag_555\n      swap2\n      swap1\n      tag_458\n      jump\t// in\n    tag_555:\n        /* \"contracts/cropsFarmer.sol\":17866:17886  WALLET_DEPOSIT_LIMIT */\n      0x07\n        /* \"contracts/cropsFarmer.sol\":17866:17904  WALLET_DEPOSIT_LIMIT = value * 1 ether */\n      dup2\n      swap1\n      sstore\n      pop\n        /* \"contracts/cropsFarmer.sol\":17712:17911  function SET_WALLET_DEPOSIT_LIMIT(uint256 value) external {... */\n      pop\n      jump\t// out\n        /* \"contracts/cropsFarmer.sol\":1349:1376  address payable public dev2 */\n    tag_270:\n      0x1c\n      0x00\n      swap1\n      sload\n      swap1\n      0x0100\n      exp\n      swap1\n      div\n      0xffffffffffffffffffffffffffffffffffffffff\n      and\n      dup2\n      jump\t// out\n        /* \"contracts/cropsFarmer.sol\":751:777  uint256 public totalStaked */\n    tag_274:\n      sload(0x0d)\n      dup2\n      jump\t// out\n        /* \"contracts/cropsFarmer.sol\":1450:1479  address payable public prtnr2 */\n    tag_278:\n      0x1f\n      0x00\n      swap1\n      sload\n      swap1\n      0x0100\n      exp\n      swap1\n      div\n      0xffffffffffffffffffffffffffffffffffffffff\n      and\n      dup2\n      jump\t// out\n        /* \"contracts/cropsFarmer.sol\":1290:1310  address public owner */\n    tag_282:\n      0x1a\n      0x00\n      swap1\n      sload\n      swap1\n      0x0100\n      exp\n      swap1\n      div\n      0xffffffffffffffffffffffffffffffffffffffff\n      and\n      dup2\n      jump\t// out\n        /* \"contracts/cropsFarmer.sol\":12098:12236  function calculateEggSell(uint256 eggs) public view returns(uint256){... */\n    tag_288:\n        /* \"contracts/cropsFarmer.sol\":12158:12165  uint256 */\n      0x00\n        /* \"contracts/cropsFarmer.sol\":12183:12229  calculateTrade(eggs, marketEggs, getBalance()) */\n      tag_557\n        /* \"contracts/cropsFarmer.sol\":12198:12202  eggs */\n      dup3\n        /* \"contracts/cropsFarmer.sol\":12204:12214  marketEggs */\n      sload(0x12)\n        /* \"contracts/cropsFarmer.sol\":12216:12228  getBalance() */\n      tag_558\n        /* \"contracts/cropsFarmer.sol\":12216:12226  getBalance */\n      tag_109\n        /* \"contracts/cropsFarmer.sol\":12216:12228  getBalance() */\n      jump\t// in\n    tag_558:\n        /* \"contracts/cropsFarmer.sol\":12183:12197  calculateTrade */\n      tag_133\n        /* \"contracts/cropsFarmer.sol\":12183:12229  calculateTrade(eggs, marketEggs, getBalance()) */\n      jump\t// in\n    tag_557:\n        /* \"contracts/cropsFarmer.sol\":12176:12229  return calculateTrade(eggs, marketEggs, getBalance()) */\n      swap1\n      pop\n        /* \"contracts/cropsFarmer.sol\":12098:12236  function calculateEggSell(uint256 eggs) public view returns(uint256){... */\n      swap2\n      swap1\n      pop\n      jump\t// out\n        /* \"contracts/cropsFarmer.sol\":1217:1263  uint256 public WITHDRAW_COOLDOWN = 4 * 60 * 60 */\n    tag_292:\n      sload(0x19)\n      dup2\n      jump\t// out\n        /* \"contracts/cropsFarmer.sol\":17011:17199  function BONUS_COMPOUND_STEP(uint256 value) external {... */\n    tag_297:\n        /* \"contracts/cropsFarmer.sol\":17096:17101  owner */\n      0x1a\n      0x00\n      swap1\n      sload\n      swap1\n      0x0100\n      exp\n      swap1\n      div\n      0xffffffffffffffffffffffffffffffffffffffff\n      and\n        /* \"contracts/cropsFarmer.sol\":17082:17101  msg.sender == owner */\n      0xffffffffffffffffffffffffffffffffffffffff\n      and\n        /* \"contracts/cropsFarmer.sol\":17082:17092  msg.sender */\n      caller\n        /* \"contracts/cropsFarmer.sol\":17082:17101  msg.sender == owner */\n      0xffffffffffffffffffffffffffffffffffffffff\n      and\n      eq\n        /* \"contracts/cropsFarmer.sol\":17074:17121  require(msg.sender == owner, \"Admin use only.\") */\n      tag_560\n      jumpi\n      mload(0x40)\n      0x08c379a000000000000000000000000000000000000000000000000000000000\n      dup2\n      mstore\n      0x04\n      add\n      tag_561\n      swap1\n      tag_429\n      jump\t// in\n    tag_561:\n      mload(0x40)\n      dup1\n      swap2\n      sub\n      swap1\n      revert\n    tag_560:\n        /* \"contracts/cropsFarmer.sol\":17148:17150  24 */\n      0x18\n        /* \"contracts/cropsFarmer.sol\":17139:17144  value */\n      dup2\n        /* \"contracts/cropsFarmer.sol\":17139:17150  value <= 24 */\n      gt\n      iszero\n        /* \"contracts/cropsFarmer.sol\":17131:17151  require(value <= 24) */\n      tag_562\n      jumpi\n      0x00\n      dup1\n      revert\n    tag_562:\n        /* \"contracts/cropsFarmer.sol\":17190:17192  60 */\n      0x3c\n        /* \"contracts/cropsFarmer.sol\":17185:17187  60 */\n      dup1\n        /* \"contracts/cropsFarmer.sol\":17177:17182  value */\n      dup3\n        /* \"contracts/cropsFarmer.sol\":17177:17187  value * 60 */\n      tag_563\n      swap2\n      swap1\n      tag_458\n      jump\t// in\n    tag_563:\n        /* \"contracts/cropsFarmer.sol\":17177:17192  value * 60 * 60 */\n      tag_564\n      swap2\n      swap1\n      tag_458\n      jump\t// in\n    tag_564:\n        /* \"contracts/cropsFarmer.sol\":17161:17174  COMPOUND_STEP */\n      0x0a\n        /* \"contracts/cropsFarmer.sol\":17161:17192  COMPOUND_STEP = value * 60 * 60 */\n      dup2\n      swap1\n      sstore\n      pop\n        /* \"contracts/cropsFarmer.sol\":17011:17199  function BONUS_COMPOUND_STEP(uint256 value) external {... */\n      pop\n      jump\t// out\n        /* \"contracts/cropsFarmer.sol\":16799:17005  function BONUS_DAILY_COMPOUND_BONUS_MAX_TIMES(uint256 value) external {... */\n    tag_301:\n        /* \"contracts/cropsFarmer.sol\":16901:16906  owner */\n      0x1a\n      0x00\n      swap1\n      sload\n      swap1\n      0x0100\n      exp\n      swap1\n      div\n      0xffffffffffffffffffffffffffffffffffffffff\n      and\n        /* \"contracts/cropsFarmer.sol\":16887:16906  msg.sender == owner */\n      0xffffffffffffffffffffffffffffffffffffffff\n      and\n        /* \"contracts/cropsFarmer.sol\":16887:16897  msg.sender */\n      caller\n        /* \"contracts/cropsFarmer.sol\":16887:16906  msg.sender == owner */\n      0xffffffffffffffffffffffffffffffffffffffff\n      and\n      eq\n        /* \"contracts/cropsFarmer.sol\":16879:16926  require(msg.sender == owner, \"Admin use only.\") */\n      tag_566\n      jumpi\n      mload(0x40)\n      0x08c379a000000000000000000000000000000000000000000000000000000000\n      dup2\n      mstore\n      0x04\n      add\n      tag_567\n      swap1\n      tag_429\n      jump\t// in\n    tag_567:\n      mload(0x40)\n      dup1\n      swap2\n      sub\n      swap1\n      revert\n    tag_566:\n        /* \"contracts/cropsFarmer.sol\":16953:16955  30 */\n      0x1e\n        /* \"contracts/cropsFarmer.sol\":16944:16949  value */\n      dup2\n        /* \"contracts/cropsFarmer.sol\":16944:16955  value <= 30 */\n      gt\n      iszero\n        /* \"contracts/cropsFarmer.sol\":16936:16956  require(value <= 30) */\n      tag_568\n      jumpi\n      0x00\n      dup1\n      revert\n    tag_568:\n        /* \"contracts/cropsFarmer.sol\":16993:16998  value */\n      dup1\n        /* \"contracts/cropsFarmer.sol\":16966:16990  COMPOUND_BONUS_MAX_TIMES */\n      0x09\n        /* \"contracts/cropsFarmer.sol\":16966:16998  COMPOUND_BONUS_MAX_TIMES = value */\n      dup2\n      swap1\n      sstore\n      pop\n        /* \"contracts/cropsFarmer.sol\":16799:17005  function BONUS_DAILY_COMPOUND_BONUS_MAX_TIMES(uint256 value) external {... */\n      pop\n      jump\t// out\n        /* \"contracts/cropsFarmer.sol\":2666:2815  function setblacklistActive(bool isActive) public{... */\n    tag_305:\n        /* \"contracts/cropsFarmer.sol\":2747:2752  owner */\n      0x1a\n      0x00\n      swap1\n      sload\n      swap1\n      0x0100\n      exp\n      swap1\n      div\n      0xffffffffffffffffffffffffffffffffffffffff\n      and\n        /* \"contracts/cropsFarmer.sol\":2733:2752  msg.sender == owner */\n      0xffffffffffffffffffffffffffffffffffffffff\n      and\n        /* \"contracts/cropsFarmer.sol\":2733:2743  msg.sender */\n      caller\n        /* \"contracts/cropsFarmer.sol\":2733:2752  msg.sender == owner */\n      0xffffffffffffffffffffffffffffffffffffffff\n      and\n      eq\n        /* \"contracts/cropsFarmer.sol\":2725:2772  require(msg.sender == owner, \"Admin use only.\") */\n      tag_570\n      jumpi\n      mload(0x40)\n      0x08c379a000000000000000000000000000000000000000000000000000000000\n      dup2\n      mstore\n      0x04\n      add\n      tag_571\n      swap1\n      tag_429\n      jump\t// in\n    tag_571:\n      mload(0x40)\n      dup1\n      swap2\n      sub\n      swap1\n      revert\n    tag_570:\n        /* \"contracts/cropsFarmer.sol\":2800:2808  isActive */\n      dup1\n        /* \"contracts/cropsFarmer.sol\":2782:2797  blacklistActive */\n      0x15\n      0x01\n        /* \"contracts/cropsFarmer.sol\":2782:2808  blacklistActive = isActive */\n      0x0100\n      exp\n      dup2\n      sload\n      dup2\n      0xff\n      mul\n      not\n      and\n      swap1\n      dup4\n      iszero\n      iszero\n      mul\n      or\n      swap1\n      sstore\n      pop\n        /* \"contracts/cropsFarmer.sol\":2666:2815  function setblacklistActive(bool isActive) public{... */\n      pop\n      jump\t// out\n        /* \"contracts/cropsFarmer.sol\":1316:1343  address payable public dev1 */\n    tag_308:\n      0x1b\n      0x00\n      swap1\n      sload\n      swap1\n      0x0100\n      exp\n      swap1\n      div\n      0xffffffffffffffffffffffffffffffffffffffff\n      and\n      dup2\n      jump\t// out\n        /* \"contracts/cropsFarmer.sol\":1977:2014  mapping(address => User) public users */\n    tag_313:\n      mstore(0x20, 0x21)\n      dup1\n      0x00\n      mstore\n      keccak256(0x00, 0x40)\n      0x00\n      swap2\n      pop\n      swap1\n      pop\n      dup1\n      0x00\n      add\n      sload\n      swap1\n      dup1\n      0x01\n      add\n      sload\n      swap1\n      dup1\n      0x02\n      add\n      sload\n      swap1\n      dup1\n      0x03\n      add\n      sload\n      swap1\n      dup1\n      0x04\n      add\n      sload\n      swap1\n      dup1\n      0x05\n      add\n      0x00\n      swap1\n      sload\n      swap1\n      0x0100\n      exp\n      swap1\n      div\n      0xffffffffffffffffffffffffffffffffffffffff\n      and\n      swap1\n      dup1\n      0x06\n      add\n      sload\n      swap1\n      dup1\n      0x07\n      add\n      sload\n      swap1\n      dup1\n      0x08\n      add\n      sload\n      swap1\n      dup1\n      0x09\n      add\n      sload\n      swap1\n      dup1\n      0x0a\n      add\n      sload\n      swap1\n      dup1\n      0x0b\n      add\n      sload\n      swap1\n      pop\n      dup13\n      jump\t// out\n        /* \"contracts/cropsFarmer.sol\":1124:1168  mapping(address => uint) public firstDeposit */\n    tag_318:\n      mstore(0x20, 0x17)\n      dup1\n      0x00\n      mstore\n      keccak256(0x00, 0x40)\n      0x00\n      swap2\n      pop\n      swap1\n      pop\n      sload\n      dup2\n      jump\t// out\n        /* \"contracts/cropsFarmer.sol\":1035:1069  bool public blacklistActive = true */\n    tag_322:\n      0x15\n      0x01\n      swap1\n      sload\n      swap1\n      0x0100\n      exp\n      swap1\n      div\n      0xff\n      and\n      dup2\n      jump\t// out\n        /* \"contracts/cropsFarmer.sol\":3837:3880  function fundContract() external payable {} */\n    tag_325:\n      jump\t// out\n        /* \"contracts/cropsFarmer.sol\":12630:13063  function getEggsYield(uint256 amount) public view returns(uint256,uint256) {... */\n    tag_329:\n        /* \"contracts/cropsFarmer.sol\":12688:12695  uint256 */\n      0x00\n        /* \"contracts/cropsFarmer.sol\":12696:12703  uint256 */\n      dup1\n        /* \"contracts/cropsFarmer.sol\":12715:12733  uint256 eggsAmount */\n      0x00\n        /* \"contracts/cropsFarmer.sol\":12736:12798  calculateEggBuy(amount , getBalance().add(amount).sub(amount)) */\n      tag_574\n        /* \"contracts/cropsFarmer.sol\":12752:12758  amount */\n      dup5\n        /* \"contracts/cropsFarmer.sol\":12761:12797  getBalance().add(amount).sub(amount) */\n      tag_575\n        /* \"contracts/cropsFarmer.sol\":12790:12796  amount */\n      dup7\n        /* \"contracts/cropsFarmer.sol\":12761:12785  getBalance().add(amount) */\n      tag_576\n        /* \"contracts/cropsFarmer.sol\":12778:12784  amount */\n      dup9\n        /* \"contracts/cropsFarmer.sol\":12761:12773  getBalance() */\n      tag_577\n        /* \"contracts/cropsFarmer.sol\":12761:12771  getBalance */\n      tag_109\n        /* \"contracts/cropsFarmer.sol\":12761:12773  getBalance() */\n      jump\t// in\n    tag_577:\n        /* \"contracts/cropsFarmer.sol\":12761:12777  getBalance().add */\n      tag_411\n      swap1\n        /* \"contracts/cropsFarmer.sol\":12761:12785  getBalance().add(amount) */\n      swap2\n      swap1\n      0xffffffff\n      and\n      jump\t// in\n    tag_576:\n        /* \"contracts/cropsFarmer.sol\":12761:12789  getBalance().add(amount).sub */\n      tag_416\n      swap1\n        /* \"contracts/cropsFarmer.sol\":12761:12797  getBalance().add(amount).sub(amount) */\n      swap2\n      swap1\n      0xffffffff\n      and\n      jump\t// in\n    tag_575:\n        /* \"contracts/cropsFarmer.sol\":12736:12751  calculateEggBuy */\n      tag_143\n        /* \"contracts/cropsFarmer.sol\":12736:12798  calculateEggBuy(amount , getBalance().add(amount).sub(amount)) */\n      jump\t// in\n    tag_574:\n        /* \"contracts/cropsFarmer.sol\":12715:12798  uint256 eggsAmount = calculateEggBuy(amount , getBalance().add(amount).sub(amount)) */\n      swap1\n      pop\n        /* \"contracts/cropsFarmer.sol\":12808:12822  uint256 miners */\n      0x00\n        /* \"contracts/cropsFarmer.sol\":12825:12861  eggsAmount.div(EGGS_TO_HIRE_1MINERS) */\n      tag_578\n        /* \"contracts/cropsFarmer.sol\":12840:12860  EGGS_TO_HIRE_1MINERS */\n      sload(0x00)\n        /* \"contracts/cropsFarmer.sol\":12825:12835  eggsAmount */\n      dup4\n        /* \"contracts/cropsFarmer.sol\":12825:12839  eggsAmount.div */\n      tag_423\n      swap1\n        /* \"contracts/cropsFarmer.sol\":12825:12861  eggsAmount.div(EGGS_TO_HIRE_1MINERS) */\n      swap2\n      swap1\n      0xffffffff\n      and\n      jump\t// in\n    tag_578:\n        /* \"contracts/cropsFarmer.sol\":12808:12861  uint256 miners = eggsAmount.div(EGGS_TO_HIRE_1MINERS) */\n      swap1\n      pop\n        /* \"contracts/cropsFarmer.sol\":12871:12882  uint256 day */\n      0x00\n        /* \"contracts/cropsFarmer.sol\":12885:12891  1 days */\n      0x015180\n        /* \"contracts/cropsFarmer.sol\":12871:12891  uint256 day = 1 days */\n      swap1\n      pop\n        /* \"contracts/cropsFarmer.sol\":12901:12919  uint256 eggsPerDay */\n      0x00\n        /* \"contracts/cropsFarmer.sol\":12922:12937  day.mul(miners) */\n      tag_579\n        /* \"contracts/cropsFarmer.sol\":12930:12936  miners */\n      dup4\n        /* \"contracts/cropsFarmer.sol\":12922:12925  day */\n      dup4\n        /* \"contracts/cropsFarmer.sol\":12922:12929  day.mul */\n      tag_434\n      swap1\n        /* \"contracts/cropsFarmer.sol\":12922:12937  day.mul(miners) */\n      swap2\n      swap1\n      0xffffffff\n      and\n      jump\t// in\n    tag_579:\n        /* \"contracts/cropsFarmer.sol\":12901:12937  uint256 eggsPerDay = day.mul(miners) */\n      swap1\n      pop\n        /* \"contracts/cropsFarmer.sol\":12947:12969  uint256 earningsPerDay */\n      0x00\n        /* \"contracts/cropsFarmer.sol\":12972:13016  calculateEggSellForYield(eggsPerDay, amount) */\n      tag_580\n        /* \"contracts/cropsFarmer.sol\":12997:13007  eggsPerDay */\n      dup3\n        /* \"contracts/cropsFarmer.sol\":13009:13015  amount */\n      dup10\n        /* \"contracts/cropsFarmer.sol\":12972:12996  calculateEggSellForYield */\n      tag_352\n        /* \"contracts/cropsFarmer.sol\":12972:13016  calculateEggSellForYield(eggsPerDay, amount) */\n      jump\t// in\n    tag_580:\n        /* \"contracts/cropsFarmer.sol\":12947:13016  uint256 earningsPerDay = calculateEggSellForYield(eggsPerDay, amount) */\n      swap1\n      pop\n        /* \"contracts/cropsFarmer.sol\":13033:13039  miners */\n      dup4\n        /* \"contracts/cropsFarmer.sol\":13041:13055  earningsPerDay */\n      dup2\n        /* \"contracts/cropsFarmer.sol\":13026:13056  return(miners, earningsPerDay) */\n      swap7\n      pop\n      swap7\n      pop\n      pop\n      pop\n      pop\n      pop\n      pop\n        /* \"contracts/cropsFarmer.sol\":12630:13063  function getEggsYield(uint256 amount) public view returns(uint256,uint256) {... */\n      swap2\n      pop\n      swap2\n      jump\t// out\n        /* \"contracts/cropsFarmer.sol\":16412:16591  function SET_WITHDRAWAL_TAX(uint256 value) external {... */\n    tag_335:\n        /* \"contracts/cropsFarmer.sol\":16496:16501  owner */\n      0x1a\n      0x00\n      swap1\n      sload\n      swap1\n      0x0100\n      exp\n      swap1\n      div\n      0xffffffffffffffffffffffffffffffffffffffff\n      and\n        /* \"contracts/cropsFarmer.sol\":16482:16501  msg.sender == owner */\n      0xffffffffffffffffffffffffffffffffffffffff\n      and\n        /* \"contracts/cropsFarmer.sol\":16482:16492  msg.sender */\n      caller\n        /* \"contracts/cropsFarmer.sol\":16482:16501  msg.sender == owner */\n      0xffffffffffffffffffffffffffffffffffffffff\n      and\n      eq\n        /* \"contracts/cropsFarmer.sol\":16474:16521  require(msg.sender == owner, \"Admin use only.\") */\n      tag_582\n      jumpi\n      mload(0x40)\n      0x08c379a000000000000000000000000000000000000000000000000000000000\n      dup2\n      mstore\n      0x04\n      add\n      tag_583\n      swap1\n      tag_429\n      jump\t// in\n    tag_583:\n      mload(0x40)\n      dup1\n      swap2\n      sub\n      swap1\n      revert\n    tag_582:\n        /* \"contracts/cropsFarmer.sol\":16548:16551  900 */\n      0x0384\n        /* \"contracts/cropsFarmer.sol\":16539:16544  value */\n      dup2\n        /* \"contracts/cropsFarmer.sol\":16539:16551  value <= 900 */\n      gt\n      iszero\n        /* \"contracts/cropsFarmer.sol\":16531:16552  require(value <= 900) */\n      tag_584\n      jumpi\n      0x00\n      dup1\n      revert\n    tag_584:\n        /* \"contracts/cropsFarmer.sol\":16579:16584  value */\n      dup1\n        /* \"contracts/cropsFarmer.sol\":16562:16576  WITHDRAWAL_TAX */\n      0x0b\n        /* \"contracts/cropsFarmer.sol\":16562:16584  WITHDRAWAL_TAX = value */\n      dup2\n      swap1\n      sstore\n      pop\n        /* \"contracts/cropsFarmer.sol\":16412:16591  function SET_WITHDRAWAL_TAX(uint256 value) external {... */\n      pop\n      jump\t// out\n        /* \"contracts/cropsFarmer.sol\":3271:3459  function checkIfBlacklisted(address Wallet) public view returns(bool blacklisted){... */\n    tag_339:\n        /* \"contracts/cropsFarmer.sol\":3335:3351  bool blacklisted */\n      0x00\n        /* \"contracts/cropsFarmer.sol\":3384:3389  owner */\n      0x1a\n      0x00\n      swap1\n      sload\n      swap1\n      0x0100\n      exp\n      swap1\n      div\n      0xffffffffffffffffffffffffffffffffffffffff\n      and\n        /* \"contracts/cropsFarmer.sol\":3370:3389  msg.sender == owner */\n      0xffffffffffffffffffffffffffffffffffffffff\n      and\n        /* \"contracts/cropsFarmer.sol\":3370:3380  msg.sender */\n      caller\n        /* \"contracts/cropsFarmer.sol\":3370:3389  msg.sender == owner */\n      0xffffffffffffffffffffffffffffffffffffffff\n      and\n      eq\n        /* \"contracts/cropsFarmer.sol\":3362:3409  require(msg.sender == owner, \"Admin use only.\") */\n      tag_586\n      jumpi\n      mload(0x40)\n      0x08c379a000000000000000000000000000000000000000000000000000000000\n      dup2\n      mstore\n      0x04\n      add\n      tag_587\n      swap1\n      tag_429\n      jump\t// in\n    tag_587:\n      mload(0x40)\n      dup1\n      swap2\n      sub\n      swap1\n      revert\n    tag_586:\n        /* \"contracts/cropsFarmer.sol\":3433:3444  Blacklisted */\n      0x16\n        /* \"contracts/cropsFarmer.sol\":3433:3452  Blacklisted[Wallet] */\n      0x00\n        /* \"contracts/cropsFarmer.sol\":3445:3451  Wallet */\n      dup4\n        /* \"contracts/cropsFarmer.sol\":3433:3452  Blacklisted[Wallet] */\n      0xffffffffffffffffffffffffffffffffffffffff\n      and\n      0xffffffffffffffffffffffffffffffffffffffff\n      and\n      dup2\n      mstore\n      0x20\n      add\n      swap1\n      dup2\n      mstore\n      0x20\n      add\n      0x00\n      keccak256\n      0x00\n      swap1\n      sload\n      swap1\n      0x0100\n      exp\n      swap1\n      div\n      0xff\n      and\n        /* \"contracts/cropsFarmer.sol\":3419:3452  blacklisted = Blacklisted[Wallet] */\n      swap1\n      pop\n        /* \"contracts/cropsFarmer.sol\":3271:3459  function checkIfBlacklisted(address Wallet) public view returns(bool blacklisted){... */\n      swap2\n      swap1\n      pop\n      jump\t// out\n        /* \"contracts/cropsFarmer.sol\":190:218  uint256 public REFERRAL = 70 */\n    tag_343:\n      sload(0x01)\n      dup2\n      jump\t// out\n        /* \"contracts/cropsFarmer.sol\":548:592  uint256 public COMPOUND_BONUS_MAX_TIMES = 10 */\n    tag_347:\n      sload(0x09)\n      dup2\n      jump\t// out\n        /* \"contracts/cropsFarmer.sol\":13069:13241  function calculateEggSellForYield(uint256 eggs,uint256 amount) public view returns(uint256){... */\n    tag_352:\n        /* \"contracts/cropsFarmer.sol\":13152:13159  uint256 */\n      0x00\n        /* \"contracts/cropsFarmer.sol\":13177:13234  calculateTrade(eggs,marketEggs, getBalance().add(amount)) */\n      tag_589\n        /* \"contracts/cropsFarmer.sol\":13192:13196  eggs */\n      dup4\n        /* \"contracts/cropsFarmer.sol\":13197:13207  marketEggs */\n      sload(0x12)\n        /* \"contracts/cropsFarmer.sol\":13209:13233  getBalance().add(amount) */\n      tag_590\n        /* \"contracts/cropsFarmer.sol\":13226:13232  amount */\n      dup6\n        /* \"contracts/cropsFarmer.sol\":13209:13221  getBalance() */\n      tag_591\n        /* \"contracts/cropsFarmer.sol\":13209:13219  getBalance */\n      tag_109\n        /* \"contracts/cropsFarmer.sol\":13209:13221  getBalance() */\n      jump\t// in\n    tag_591:\n        /* \"contracts/cropsFarmer.sol\":13209:13225  getBalance().add */\n      tag_411\n      swap1\n        /* \"contracts/cropsFarmer.sol\":13209:13233  getBalance().add(amount) */\n      swap2\n      swap1\n      0xffffffff\n      and\n      jump\t// in\n    tag_590:\n        /* \"contracts/cropsFarmer.sol\":13177:13191  calculateTrade */\n      tag_133\n        /* \"contracts/cropsFarmer.sol\":13177:13234  calculateTrade(eggs,marketEggs, getBalance().add(amount)) */\n      jump\t// in\n    tag_589:\n        /* \"contracts/cropsFarmer.sol\":13170:13234  return calculateTrade(eggs,marketEggs, getBalance().add(amount)) */\n      swap1\n      pop\n        /* \"contracts/cropsFarmer.sol\":13069:13241  function calculateEggSellForYield(uint256 eggs,uint256 amount) public view returns(uint256){... */\n      swap3\n      swap2\n      pop\n      pop\n      jump\t// out\n        /* \"contracts/cropsFarmer.sol\":370:421  uint256 public MIN_INVEST_LIMIT = 30000000000000000 */\n    tag_356:\n      sload(0x06)\n      dup2\n      jump\t// out\n        /* \"contracts/cropsFarmer.sol\":511:545  uint256 public COMPOUND_BONUS = 20 */\n    tag_360:\n      sload(0x08)\n      dup2\n      jump\t// out\n        /* \"contracts/cropsFarmer.sol\":13725:14131  function getEggsSinceLastHatch(address adr) public view returns(uint256){... */\n    tag_365:\n        /* \"contracts/cropsFarmer.sol\":13789:13796  uint256 */\n      0x00\n        /* \"contracts/cropsFarmer.sol\":13807:13836  uint256 secondsSinceLastHatch */\n      dup1\n        /* \"contracts/cropsFarmer.sol\":13839:13880  block.timestamp.sub(users[adr].lastHatch) */\n      tag_593\n        /* \"contracts/cropsFarmer.sol\":13859:13864  users */\n      0x21\n        /* \"contracts/cropsFarmer.sol\":13859:13869  users[adr] */\n      0x00\n        /* \"contracts/cropsFarmer.sol\":13865:13868  adr */\n      dup6\n        /* \"contracts/cropsFarmer.sol\":13859:13869  users[adr] */\n      0xffffffffffffffffffffffffffffffffffffffff\n      and\n      0xffffffffffffffffffffffffffffffffffffffff\n      and\n      dup2\n      mstore\n      0x20\n      add\n      swap1\n      dup2\n      mstore\n      0x20\n      add\n      0x00\n      keccak256\n        /* \"contracts/cropsFarmer.sol\":13859:13879  users[adr].lastHatch */\n      0x04\n      add\n      sload\n        /* \"contracts/cropsFarmer.sol\":13839:13854  block.timestamp */\n      timestamp\n        /* \"contracts/cropsFarmer.sol\":13839:13858  block.timestamp.sub */\n      tag_416\n      swap1\n        /* \"contracts/cropsFarmer.sol\":13839:13880  block.timestamp.sub(users[adr].lastHatch) */\n      swap2\n      swap1\n      0xffffffff\n      and\n      jump\t// in\n    tag_593:\n        /* \"contracts/cropsFarmer.sol\":13807:13880  uint256 secondsSinceLastHatch = block.timestamp.sub(users[adr].lastHatch) */\n      swap1\n      pop\n        /* \"contracts/cropsFarmer.sol\":13940:13958  uint256 cutoffTime */\n      0x00\n        /* \"contracts/cropsFarmer.sol\":13961:14000  min(secondsSinceLastHatch, CUTOFF_STEP) */\n      tag_594\n        /* \"contracts/cropsFarmer.sol\":13965:13986  secondsSinceLastHatch */\n      dup3\n        /* \"contracts/cropsFarmer.sol\":13988:13999  CUTOFF_STEP */\n      sload(0x18)\n        /* \"contracts/cropsFarmer.sol\":13961:13964  min */\n      tag_595\n        /* \"contracts/cropsFarmer.sol\":13961:14000  min(secondsSinceLastHatch, CUTOFF_STEP) */\n      jump\t// in\n    tag_594:\n        /* \"contracts/cropsFarmer.sol\":13940:14000  uint256 cutoffTime = min(secondsSinceLastHatch, CUTOFF_STEP) */\n      swap1\n      pop\n        /* \"contracts/cropsFarmer.sol\":14010:14031  uint256 secondsPassed */\n      0x00\n        /* \"contracts/cropsFarmer.sol\":14034:14071  min(EGGS_TO_HIRE_1MINERS, cutoffTime) */\n      tag_596\n        /* \"contracts/cropsFarmer.sol\":14038:14058  EGGS_TO_HIRE_1MINERS */\n      sload(0x00)\n        /* \"contracts/cropsFarmer.sol\":14060:14070  cutoffTime */\n      dup4\n        /* \"contracts/cropsFarmer.sol\":14034:14037  min */\n      tag_595\n        /* \"contracts/cropsFarmer.sol\":14034:14071  min(EGGS_TO_HIRE_1MINERS, cutoffTime) */\n      jump\t// in\n    tag_596:\n        /* \"contracts/cropsFarmer.sol\":14010:14071  uint256 secondsPassed = min(EGGS_TO_HIRE_1MINERS, cutoffTime) */\n      swap1\n      pop\n        /* \"contracts/cropsFarmer.sol\":14088:14124  secondsPassed.mul(users[adr].miners) */\n      tag_597\n        /* \"contracts/cropsFarmer.sol\":14106:14111  users */\n      0x21\n        /* \"contracts/cropsFarmer.sol\":14106:14116  users[adr] */\n      0x00\n        /* \"contracts/cropsFarmer.sol\":14112:14115  adr */\n      dup8\n        /* \"contracts/cropsFarmer.sol\":14106:14116  users[adr] */\n      0xffffffffffffffffffffffffffffffffffffffff\n      and\n      0xffffffffffffffffffffffffffffffffffffffff\n      and\n      dup2\n      mstore\n      0x20\n      add\n      swap1\n      dup2\n      mstore\n      0x20\n      add\n      0x00\n      keccak256\n        /* \"contracts/cropsFarmer.sol\":14106:14123  users[adr].miners */\n      0x02\n      add\n      sload\n        /* \"contracts/cropsFarmer.sol\":14088:14101  secondsPassed */\n      dup3\n        /* \"contracts/cropsFarmer.sol\":14088:14105  secondsPassed.mul */\n      tag_434\n      swap1\n        /* \"contracts/cropsFarmer.sol\":14088:14124  secondsPassed.mul(users[adr].miners) */\n      swap2\n      swap1\n      0xffffffff\n      and\n      jump\t// in\n    tag_597:\n        /* \"contracts/cropsFarmer.sol\":14081:14124  return secondsPassed.mul(users[adr].miners) */\n      swap4\n      pop\n      pop\n      pop\n      pop\n        /* \"contracts/cropsFarmer.sol\":13725:14131  function getEggsSinceLastHatch(address adr) public view returns(uint256){... */\n      swap2\n      swap1\n      pop\n      jump\t// out\n        /* \"contracts/cropsFarmer.sol\":2821:2997  function blackListWallet(address Wallet, bool isBlacklisted) public{... */\n    tag_371:\n        /* \"contracts/cropsFarmer.sol\":2920:2925  owner */\n      0x1a\n      0x00\n      swap1\n      sload\n      swap1\n      0x0100\n      exp\n      swap1\n      div\n      0xffffffffffffffffffffffffffffffffffffffff\n      and\n        /* \"contracts/cropsFarmer.sol\":2906:2925  msg.sender == owner */\n      0xffffffffffffffffffffffffffffffffffffffff\n      and\n        /* \"contracts/cropsFarmer.sol\":2906:2916  msg.sender */\n      caller\n        /* \"contracts/cropsFarmer.sol\":2906:2925  msg.sender == owner */\n      0xffffffffffffffffffffffffffffffffffffffff\n      and\n      eq\n        /* \"contracts/cropsFarmer.sol\":2898:2945  require(msg.sender == owner, \"Admin use only.\") */\n      tag_599\n      jumpi\n      mload(0x40)\n      0x08c379a000000000000000000000000000000000000000000000000000000000\n      dup2\n      mstore\n      0x04\n      add\n      tag_600\n      swap1\n      tag_429\n      jump\t// in\n    tag_600:\n      mload(0x40)\n      dup1\n      swap2\n      sub\n      swap1\n      revert\n    tag_599:\n        /* \"contracts/cropsFarmer.sol\":2977:2990  isBlacklisted */\n      dup1\n        /* \"contracts/cropsFarmer.sol\":2955:2966  Blacklisted */\n      0x16\n        /* \"contracts/cropsFarmer.sol\":2955:2974  Blacklisted[Wallet] */\n      0x00\n        /* \"contracts/cropsFarmer.sol\":2967:2973  Wallet */\n      dup5\n        /* \"contracts/cropsFarmer.sol\":2955:2974  Blacklisted[Wallet] */\n      0xffffffffffffffffffffffffffffffffffffffff\n      and\n      0xffffffffffffffffffffffffffffffffffffffff\n      and\n      dup2\n      mstore\n      0x20\n      add\n      swap1\n      dup2\n      mstore\n      0x20\n      add\n      0x00\n      keccak256\n      0x00\n        /* \"contracts/cropsFarmer.sol\":2955:2990  Blacklisted[Wallet] = isBlacklisted */\n      0x0100\n      exp\n      dup2\n      sload\n      dup2\n      0xff\n      mul\n      not\n      and\n      swap1\n      dup4\n      iszero\n      iszero\n      mul\n      or\n      swap1\n      sstore\n      pop\n        /* \"contracts/cropsFarmer.sol\":2821:2997  function blackListWallet(address Wallet, bool isBlacklisted) public{... */\n      pop\n      pop\n      jump\t// out\n        /* \"contracts/cropsFarmer.sol\":11331:11424  function getTimeStamp() public view returns (uint256) {... */\n    tag_374:\n        /* \"contracts/cropsFarmer.sol\":11376:11383  uint256 */\n      0x00\n        /* \"contracts/cropsFarmer.sol\":11402:11417  block.timestamp */\n      timestamp\n        /* \"contracts/cropsFarmer.sol\":11395:11417  return block.timestamp */\n      swap1\n      pop\n        /* \"contracts/cropsFarmer.sol\":11331:11424  function getTimeStamp() public view returns (uint256) {... */\n      swap1\n      jump\t// out\n        /* \"contracts/cropsFarmer.sol\":3465:3787  function startFarm(address addr) public payable{... */\n    tag_378:\n        /* \"contracts/cropsFarmer.sol\":3527:3542  contractStarted */\n      0x15\n      0x00\n      swap1\n      sload\n      swap1\n      0x0100\n      exp\n      swap1\n      div\n      0xff\n      and\n        /* \"contracts/cropsFarmer.sol\":3522:3781  if (!contractStarted) {... */\n      tag_603\n      jumpi\n        /* \"contracts/cropsFarmer.sol\":3570:3575  owner */\n      0x1a\n      0x00\n      swap1\n      sload\n      swap1\n      0x0100\n      exp\n      swap1\n      div\n      0xffffffffffffffffffffffffffffffffffffffff\n      and\n        /* \"contracts/cropsFarmer.sol\":3556:3575  msg.sender == owner */\n      0xffffffffffffffffffffffffffffffffffffffff\n      and\n        /* \"contracts/cropsFarmer.sol\":3556:3566  msg.sender */\n      caller\n        /* \"contracts/cropsFarmer.sol\":3556:3575  msg.sender == owner */\n      0xffffffffffffffffffffffffffffffffffffffff\n      and\n      eq\n        /* \"contracts/cropsFarmer.sol\":3552:3773  if (msg.sender == owner) {... */\n      iszero\n      tag_604\n      jumpi\n        /* \"contracts/cropsFarmer.sol\":3611:3612  0 */\n      0x00\n        /* \"contracts/cropsFarmer.sol\":3597:3607  marketEggs */\n      sload(0x12)\n        /* \"contracts/cropsFarmer.sol\":3597:3612  marketEggs == 0 */\n      eq\n        /* \"contracts/cropsFarmer.sol\":3589:3613  require(marketEggs == 0) */\n      tag_605\n      jumpi\n      0x00\n      dup1\n      revert\n    tag_605:\n        /* \"contracts/cropsFarmer.sol\":3640:3644  true */\n      0x01\n        /* \"contracts/cropsFarmer.sol\":3622:3637  contractStarted */\n      0x15\n      0x00\n        /* \"contracts/cropsFarmer.sol\":3622:3644  contractStarted = true */\n      0x0100\n      exp\n      dup2\n      sload\n      dup2\n      0xff\n      mul\n      not\n      and\n      swap1\n      dup4\n      iszero\n      iszero\n      mul\n      or\n      swap1\n      sstore\n      pop\n        /* \"contracts/cropsFarmer.sol\":3675:3687  144000000000 */\n      0x218711a000\n        /* \"contracts/cropsFarmer.sol\":3662:3672  marketEggs */\n      0x12\n        /* \"contracts/cropsFarmer.sol\":3662:3687  marketEggs = 144000000000 */\n      dup2\n      swap1\n      sstore\n      pop\n        /* \"contracts/cropsFarmer.sol\":3706:3723  hireFarmers(addr) */\n      tag_606\n        /* \"contracts/cropsFarmer.sol\":3718:3722  addr */\n      dup2\n        /* \"contracts/cropsFarmer.sol\":3706:3717  hireFarmers */\n      tag_200\n        /* \"contracts/cropsFarmer.sol\":3706:3723  hireFarmers(addr) */\n      jump\t// in\n    tag_606:\n        /* \"contracts/cropsFarmer.sol\":3552:3773  if (msg.sender == owner) {... */\n      jump(tag_607)\n    tag_604:\n        /* \"contracts/cropsFarmer.sol\":3738:3773  revert(\"Contract not yet started.\") */\n      mload(0x40)\n      0x08c379a000000000000000000000000000000000000000000000000000000000\n      dup2\n      mstore\n      0x04\n      add\n      tag_608\n      swap1\n      tag_609\n      jump\t// in\n    tag_608:\n      mload(0x40)\n      dup1\n      swap2\n      sub\n      swap1\n      revert\n        /* \"contracts/cropsFarmer.sol\":3552:3773  if (msg.sender == owner) {... */\n    tag_607:\n        /* \"contracts/cropsFarmer.sol\":3522:3781  if (!contractStarted) {... */\n    tag_603:\n        /* \"contracts/cropsFarmer.sol\":3465:3787  function startFarm(address addr) public payable{... */\n      pop\n      jump\t// out\n        /* \"contracts/cropsFarmer.sol\":15465:15700  function PRC_EGGS_TO_HIRE_1MINERS(uint256 value) external {... */\n    tag_382:\n        /* \"contracts/cropsFarmer.sol\":15555:15560  owner */\n      0x1a\n      0x00\n      swap1\n      sload\n      swap1\n      0x0100\n      exp\n      swap1\n      div\n      0xffffffffffffffffffffffffffffffffffffffff\n      and\n        /* \"contracts/cropsFarmer.sol\":15541:15560  msg.sender == owner */\n      0xffffffffffffffffffffffffffffffffffffffff\n      and\n        /* \"contracts/cropsFarmer.sol\":15541:15551  msg.sender */\n      caller\n        /* \"contracts/cropsFarmer.sol\":15541:15560  msg.sender == owner */\n      0xffffffffffffffffffffffffffffffffffffffff\n      and\n      eq\n        /* \"contracts/cropsFarmer.sol\":15533:15580  require(msg.sender == owner, \"Admin use only.\") */\n      tag_611\n      jumpi\n      mload(0x40)\n      0x08c379a000000000000000000000000000000000000000000000000000000000\n      dup2\n      mstore\n      0x04\n      add\n      tag_612\n      swap1\n      tag_429\n      jump\t// in\n    tag_612:\n      mload(0x40)\n      dup1\n      swap2\n      sub\n      swap1\n      revert\n    tag_611:\n        /* \"contracts/cropsFarmer.sol\":15607:15613  479520 */\n      0x075120\n        /* \"contracts/cropsFarmer.sol\":15598:15603  value */\n      dup2\n        /* \"contracts/cropsFarmer.sol\":15598:15613  value >= 479520 */\n      lt\n      iszero\n        /* \"contracts/cropsFarmer.sol\":15598:15632  value >= 479520 && value <= 720000 */\n      dup1\n      iszero\n      tag_613\n      jumpi\n      pop\n        /* \"contracts/cropsFarmer.sol\":15626:15632  720000 */\n      0x0afc80\n        /* \"contracts/cropsFarmer.sol\":15617:15622  value */\n      dup2\n        /* \"contracts/cropsFarmer.sol\":15617:15632  value <= 720000 */\n      gt\n      iszero\n        /* \"contracts/cropsFarmer.sol\":15598:15632  value >= 479520 && value <= 720000 */\n    tag_613:\n        /* \"contracts/cropsFarmer.sol\":15590:15633  require(value >= 479520 && value <= 720000) */\n      tag_614\n      jumpi\n      0x00\n      dup1\n      revert\n    tag_614:\n        /* \"contracts/cropsFarmer.sol\":15688:15693  value */\n      dup1\n        /* \"contracts/cropsFarmer.sol\":15665:15685  EGGS_TO_HIRE_1MINERS */\n      0x00\n        /* \"contracts/cropsFarmer.sol\":15665:15693  EGGS_TO_HIRE_1MINERS = value */\n      dup2\n      swap1\n      sstore\n      pop\n        /* \"contracts/cropsFarmer.sol\":15465:15700  function PRC_EGGS_TO_HIRE_1MINERS(uint256 value) external {... */\n      pop\n      jump\t// out\n        /* \"contracts/cropsFarmer.sol\":17921:18131  function SET_COMPOUND_FOR_NO_TAX_WITHDRAWAL(uint256 value) external {... */\n    tag_386:\n        /* \"contracts/cropsFarmer.sol\":18021:18026  owner */\n      0x1a\n      0x00\n      swap1\n      sload\n      swap1\n      0x0100\n      exp\n      swap1\n      div\n      0xffffffffffffffffffffffffffffffffffffffff\n      and\n        /* \"contracts/cropsFarmer.sol\":18007:18026  msg.sender == owner */\n      0xffffffffffffffffffffffffffffffffffffffff\n      and\n        /* \"contracts/cropsFarmer.sol\":18007:18017  msg.sender */\n      caller\n        /* \"contracts/cropsFarmer.sol\":18007:18026  msg.sender == owner */\n      0xffffffffffffffffffffffffffffffffffffffff\n      and\n      eq\n        /* \"contracts/cropsFarmer.sol\":17999:18046  require(msg.sender == owner, \"Admin use only.\") */\n      tag_616\n      jumpi\n      mload(0x40)\n      0x08c379a000000000000000000000000000000000000000000000000000000000\n      dup2\n      mstore\n      0x04\n      add\n      tag_617\n      swap1\n      tag_429\n      jump\t// in\n    tag_617:\n      mload(0x40)\n      dup1\n      swap2\n      sub\n      swap1\n      revert\n    tag_616:\n        /* \"contracts/cropsFarmer.sol\":18073:18075  12 */\n      0x0c\n        /* \"contracts/cropsFarmer.sol\":18064:18069  value */\n      dup2\n        /* \"contracts/cropsFarmer.sol\":18064:18075  value <= 12 */\n      gt\n      iszero\n        /* \"contracts/cropsFarmer.sol\":18056:18076  require(value <= 12) */\n      tag_618\n      jumpi\n      0x00\n      dup1\n      revert\n    tag_618:\n        /* \"contracts/cropsFarmer.sol\":18119:18124  value */\n      dup1\n        /* \"contracts/cropsFarmer.sol\":18086:18116  COMPOUND_FOR_NO_TAX_WITHDRAWAL */\n      0x0c\n        /* \"contracts/cropsFarmer.sol\":18086:18124  COMPOUND_FOR_NO_TAX_WITHDRAWAL = value */\n      dup2\n      swap1\n      sstore\n      pop\n        /* \"contracts/cropsFarmer.sol\":17921:18131  function SET_COMPOUND_FOR_NO_TAX_WITHDRAWAL(uint256 value) external {... */\n      pop\n      jump\t// out\n        /* \"contracts/cropsFarmer.sol\":3003:3265  function blackMultipleWallets(address[] calldata Wallet, bool isBlacklisted) public{... */\n    tag_391:\n        /* \"contracts/cropsFarmer.sol\":3118:3123  owner */\n      0x1a\n      0x00\n      swap1\n      sload\n      swap1\n      0x0100\n      exp\n      swap1\n      div\n      0xffffffffffffffffffffffffffffffffffffffff\n      and\n        /* \"contracts/cropsFarmer.sol\":3104:3123  msg.sender == owner */\n      0xffffffffffffffffffffffffffffffffffffffff\n      and\n        /* \"contracts/cropsFarmer.sol\":3104:3114  msg.sender */\n      caller\n        /* \"contracts/cropsFarmer.sol\":3104:3123  msg.sender == owner */\n      0xffffffffffffffffffffffffffffffffffffffff\n      and\n      eq\n        /* \"contracts/cropsFarmer.sol\":3096:3143  require(msg.sender == owner, \"Admin use only.\") */\n      tag_620\n      jumpi\n      mload(0x40)\n      0x08c379a000000000000000000000000000000000000000000000000000000000\n      dup2\n      mstore\n      0x04\n      add\n      tag_621\n      swap1\n      tag_429\n      jump\t// in\n    tag_621:\n      mload(0x40)\n      dup1\n      swap2\n      sub\n      swap1\n      revert\n    tag_620:\n        /* \"contracts/cropsFarmer.sol\":3157:3166  uint256 i */\n      0x00\n        /* \"contracts/cropsFarmer.sol\":3153:3259  for(uint256 i = 0; i < Wallet.length; i++) {... */\n    tag_622:\n        /* \"contracts/cropsFarmer.sol\":3176:3182  Wallet */\n      dup4\n      dup4\n        /* \"contracts/cropsFarmer.sol\":3176:3189  Wallet.length */\n      swap1\n      pop\n        /* \"contracts/cropsFarmer.sol\":3172:3173  i */\n      dup2\n        /* \"contracts/cropsFarmer.sol\":3172:3189  i < Wallet.length */\n      lt\n        /* \"contracts/cropsFarmer.sol\":3153:3259  for(uint256 i = 0; i < Wallet.length; i++) {... */\n      iszero\n      tag_623\n      jumpi\n        /* \"contracts/cropsFarmer.sol\":3235:3248  isBlacklisted */\n      dup2\n        /* \"contracts/cropsFarmer.sol\":3210:3221  Blacklisted */\n      0x16\n        /* \"contracts/cropsFarmer.sol\":3210:3232  Blacklisted[Wallet[i]] */\n      0x00\n        /* \"contracts/cropsFarmer.sol\":3222:3228  Wallet */\n      dup7\n      dup7\n        /* \"contracts/cropsFarmer.sol\":3229:3230  i */\n      dup6\n        /* \"contracts/cropsFarmer.sol\":3222:3231  Wallet[i] */\n      dup2\n      dup2\n      lt\n      tag_625\n      jumpi\n      tag_626\n      tag_627\n      jump\t// in\n    tag_626:\n    tag_625:\n      swap1\n      pop\n      0x20\n      mul\n      add\n      0x20\n      dup2\n      add\n      swap1\n      tag_628\n      swap2\n      swap1\n      tag_152\n      jump\t// in\n    tag_628:\n        /* \"contracts/cropsFarmer.sol\":3210:3232  Blacklisted[Wallet[i]] */\n      0xffffffffffffffffffffffffffffffffffffffff\n      and\n      0xffffffffffffffffffffffffffffffffffffffff\n      and\n      dup2\n      mstore\n      0x20\n      add\n      swap1\n      dup2\n      mstore\n      0x20\n      add\n      0x00\n      keccak256\n      0x00\n        /* \"contracts/cropsFarmer.sol\":3210:3248  Blacklisted[Wallet[i]] = isBlacklisted */\n      0x0100\n      exp\n      dup2\n      sload\n      dup2\n      0xff\n      mul\n      not\n      and\n      swap1\n      dup4\n      iszero\n      iszero\n      mul\n      or\n      swap1\n      sstore\n      pop\n        /* \"contracts/cropsFarmer.sol\":3191:3194  i++ */\n      dup1\n      dup1\n      tag_629\n      swap1\n      tag_630\n      jump\t// in\n    tag_629:\n      swap2\n      pop\n      pop\n        /* \"contracts/cropsFarmer.sol\":3153:3259  for(uint256 i = 0; i < Wallet.length; i++) {... */\n      jump(tag_622)\n    tag_623:\n      pop\n        /* \"contracts/cropsFarmer.sol\":3003:3265  function blackMultipleWallets(address[] calldata Wallet, bool isBlacklisted) public{... */\n      pop\n      pop\n      pop\n      jump\t// out\n        /* \"contracts/cropsFarmer.sol\":694:744  uint256 public COMPOUND_FOR_NO_TAX_WITHDRAWAL = 10 */\n    tag_394:\n      sload(0x0c)\n      dup2\n      jump\t// out\n        /* \"contracts/cropsFarmer.sol\":1075:1118  mapping(address => bool) public Blacklisted */\n    tag_399:\n      mstore(0x20, 0x16)\n      dup1\n      0x00\n      mstore\n      keccak256(0x00, 0x40)\n      0x00\n      swap2\n      pop\n      sload\n      swap1\n      0x0100\n      exp\n      swap1\n      div\n      0xff\n      and\n      dup2\n      jump\t// out\n        /* \"contracts/cropsFarmer.sol\":18561:18690  function add(uint256 a, uint256 b) internal pure returns (uint256) {... */\n    tag_411:\n        /* \"contracts/cropsFarmer.sol\":18619:18626  uint256 */\n      0x00\n        /* \"contracts/cropsFarmer.sol\":18634:18643  uint256 c */\n      dup1\n        /* \"contracts/cropsFarmer.sol\":18650:18651  b */\n      dup3\n        /* \"contracts/cropsFarmer.sol\":18646:18647  a */\n      dup5\n        /* \"contracts/cropsFarmer.sol\":18646:18651  a + b */\n      tag_632\n      swap2\n      swap1\n      tag_633\n      jump\t// in\n    tag_632:\n        /* \"contracts/cropsFarmer.sol\":18634:18651  uint256 c = a + b */\n      swap1\n      pop\n        /* \"contracts/cropsFarmer.sol\":18669:18670  a */\n      dup4\n        /* \"contracts/cropsFarmer.sol\":18664:18665  c */\n      dup2\n        /* \"contracts/cropsFarmer.sol\":18664:18670  c >= a */\n      lt\n      iszero\n        /* \"contracts/cropsFarmer.sol\":18657:18671  assert(c >= a) */\n      tag_634\n      jumpi\n      tag_635\n      tag_636\n      jump\t// in\n    tag_635:\n    tag_634:\n        /* \"contracts/cropsFarmer.sol\":18684:18685  c */\n      dup1\n        /* \"contracts/cropsFarmer.sol\":18677:18685  return c */\n      swap2\n      pop\n      pop\n        /* \"contracts/cropsFarmer.sol\":18561:18690  function add(uint256 a, uint256 b) internal pure returns (uint256) {... */\n      swap3\n      swap2\n      pop\n      pop\n      jump\t// out\n        /* \"contracts/cropsFarmer.sol\":18447:18557  function sub(uint256 a, uint256 b) internal pure returns (uint256) {... */\n    tag_416:\n        /* \"contracts/cropsFarmer.sol\":18505:18512  uint256 */\n      0x00\n        /* \"contracts/cropsFarmer.sol\":18532:18533  a */\n      dup3\n        /* \"contracts/cropsFarmer.sol\":18527:18528  b */\n      dup3\n        /* \"contracts/cropsFarmer.sol\":18527:18533  b <= a */\n      gt\n      iszero\n        /* \"contracts/cropsFarmer.sol\":18520:18534  assert(b <= a) */\n      tag_638\n      jumpi\n      tag_639\n      tag_636\n      jump\t// in\n    tag_639:\n    tag_638:\n        /* \"contracts/cropsFarmer.sol\":18551:18552  b */\n      dup2\n        /* \"contracts/cropsFarmer.sol\":18547:18548  a */\n      dup4\n        /* \"contracts/cropsFarmer.sol\":18547:18552  a - b */\n      tag_640\n      swap2\n      swap1\n      tag_641\n      jump\t// in\n    tag_640:\n        /* \"contracts/cropsFarmer.sol\":18540:18552  return a - b */\n      swap1\n      pop\n        /* \"contracts/cropsFarmer.sol\":18447:18557  function sub(uint256 a, uint256 b) internal pure returns (uint256) {... */\n      swap3\n      swap2\n      pop\n      pop\n      jump\t// out\n        /* \"contracts/cropsFarmer.sol\":18334:18443  function div(uint256 a, uint256 b) internal pure returns (uint256) {... */\n    tag_423:\n        /* \"contracts/cropsFarmer.sol\":18392:18399  uint256 */\n      0x00\n        /* \"contracts/cropsFarmer.sol\":18407:18416  uint256 c */\n      dup1\n        /* \"contracts/cropsFarmer.sol\":18423:18424  b */\n      dup3\n        /* \"contracts/cropsFarmer.sol\":18419:18420  a */\n      dup5\n        /* \"contracts/cropsFarmer.sol\":18419:18424  a / b */\n      tag_643\n      swap2\n      swap1\n      tag_644\n      jump\t// in\n    tag_643:\n        /* \"contracts/cropsFarmer.sol\":18407:18424  uint256 c = a / b */\n      swap1\n      pop\n        /* \"contracts/cropsFarmer.sol\":18437:18438  c */\n      dup1\n        /* \"contracts/cropsFarmer.sol\":18430:18438  return c */\n      swap2\n      pop\n      pop\n        /* \"contracts/cropsFarmer.sol\":18334:18443  function div(uint256 a, uint256 b) internal pure returns (uint256) {... */\n      swap3\n      swap2\n      pop\n      pop\n      jump\t// out\n        /* \"contracts/cropsFarmer.sol\":18157:18330  function mul(uint256 a, uint256 b) internal pure returns (uint256) {... */\n    tag_434:\n        /* \"contracts/cropsFarmer.sol\":18215:18222  uint256 */\n      0x00\n        /* \"contracts/cropsFarmer.sol\":18239:18240  0 */\n      dup1\n        /* \"contracts/cropsFarmer.sol\":18234:18235  a */\n      dup4\n        /* \"contracts/cropsFarmer.sol\":18234:18240  a == 0 */\n      eq\n        /* \"contracts/cropsFarmer.sol\":18230:18265  if (a == 0) {... */\n      iszero\n      tag_646\n      jumpi\n        /* \"contracts/cropsFarmer.sol\":18257:18258  0 */\n      0x00\n        /* \"contracts/cropsFarmer.sol\":18250:18258  return 0 */\n      swap1\n      pop\n      jump(tag_645)\n        /* \"contracts/cropsFarmer.sol\":18230:18265  if (a == 0) {... */\n    tag_646:\n        /* \"contracts/cropsFarmer.sol\":18270:18279  uint256 c */\n      0x00\n        /* \"contracts/cropsFarmer.sol\":18286:18287  b */\n      dup3\n        /* \"contracts/cropsFarmer.sol\":18282:18283  a */\n      dup5\n        /* \"contracts/cropsFarmer.sol\":18282:18287  a * b */\n      tag_647\n      swap2\n      swap1\n      tag_458\n      jump\t// in\n    tag_647:\n        /* \"contracts/cropsFarmer.sol\":18270:18287  uint256 c = a * b */\n      swap1\n      pop\n        /* \"contracts/cropsFarmer.sol\":18309:18310  b */\n      dup3\n        /* \"contracts/cropsFarmer.sol\":18304:18305  a */\n      dup5\n        /* \"contracts/cropsFarmer.sol\":18300:18301  c */\n      dup3\n        /* \"contracts/cropsFarmer.sol\":18300:18305  c / a */\n      tag_648\n      swap2\n      swap1\n      tag_644\n      jump\t// in\n    tag_648:\n        /* \"contracts/cropsFarmer.sol\":18300:18310  c / a == b */\n      eq\n        /* \"contracts/cropsFarmer.sol\":18293:18311  assert(c / a == b) */\n      tag_649\n      jumpi\n      tag_650\n      tag_636\n      jump\t// in\n    tag_650:\n    tag_649:\n        /* \"contracts/cropsFarmer.sol\":18324:18325  c */\n      dup1\n        /* \"contracts/cropsFarmer.sol\":18317:18325  return c */\n      swap2\n      pop\n      pop\n        /* \"contracts/cropsFarmer.sol\":18157:18330  function mul(uint256 a, uint256 b) internal pure returns (uint256) {... */\n    tag_645:\n      swap3\n      swap2\n      pop\n      pop\n      jump\t// out\n        /* \"contracts/cropsFarmer.sol\":6610:7466  function sendRewardToReferrals(address investor,uint _investedAmount)  internal  //this is the freferral function to transfer the reawards to referrals... */\n    tag_492:\n        /* \"contracts/cropsFarmer.sol\":6778:6790  address temp */\n      0x00\n        /* \"contracts/cropsFarmer.sol\":6793:6801  investor */\n      dup3\n        /* \"contracts/cropsFarmer.sol\":6778:6801  address temp = investor */\n      swap1\n      pop\n        /* \"contracts/cropsFarmer.sol\":6818:6842  uint[] memory percentage */\n      0x00\n        /* \"contracts/cropsFarmer.sol\":6856:6857  3 */\n      0x03\n        /* \"contracts/cropsFarmer.sol\":6845:6858  new uint[](3) */\n      0xffffffffffffffff\n      dup2\n      gt\n      iszero\n      tag_652\n      jumpi\n      tag_653\n      tag_654\n      jump\t// in\n    tag_653:\n    tag_652:\n      mload(0x40)\n      swap1\n      dup1\n      dup3\n      mstore\n      dup1\n      0x20\n      mul\n      0x20\n      add\n      dup3\n      add\n      0x40\n      mstore\n      dup1\n      iszero\n      tag_655\n      jumpi\n      dup2\n      0x20\n      add\n      0x20\n      dup3\n      mul\n      dup1\n      calldatasize\n      dup4\n      calldatacopy\n      dup1\n      dup3\n      add\n      swap2\n      pop\n      pop\n      swap1\n      pop\n    tag_655:\n      pop\n        /* \"contracts/cropsFarmer.sol\":6818:6858  uint[] memory percentage = new uint[](3) */\n      swap1\n      pop\n        /* \"contracts/cropsFarmer.sol\":6884:6885  8 */\n      0x08\n        /* \"contracts/cropsFarmer.sol\":6868:6878  percentage */\n      dup2\n        /* \"contracts/cropsFarmer.sol\":6879:6880  0 */\n      0x00\n        /* \"contracts/cropsFarmer.sol\":6868:6881  percentage[0] */\n      dup2\n      mload\n      dup2\n      lt\n      tag_656\n      jumpi\n      tag_657\n      tag_627\n      jump\t// in\n    tag_657:\n    tag_656:\n      0x20\n      mul\n      0x20\n      add\n      add\n        /* \"contracts/cropsFarmer.sol\":6868:6885  percentage[0] = 8 */\n      dup2\n      dup2\n      mstore\n      pop\n      pop\n        /* \"contracts/cropsFarmer.sol\":6911:6912  3 */\n      0x03\n        /* \"contracts/cropsFarmer.sol\":6895:6905  percentage */\n      dup2\n        /* \"contracts/cropsFarmer.sol\":6906:6907  1 */\n      0x01\n        /* \"contracts/cropsFarmer.sol\":6895:6908  percentage[1] */\n      dup2\n      mload\n      dup2\n      lt\n      tag_658\n      jumpi\n      tag_659\n      tag_627\n      jump\t// in\n    tag_659:\n    tag_658:\n      0x20\n      mul\n      0x20\n      add\n      add\n        /* \"contracts/cropsFarmer.sol\":6895:6912  percentage[1] = 3 */\n      dup2\n      dup2\n      mstore\n      pop\n      pop\n        /* \"contracts/cropsFarmer.sol\":6938:6939  2 */\n      0x02\n        /* \"contracts/cropsFarmer.sol\":6922:6932  percentage */\n      dup2\n        /* \"contracts/cropsFarmer.sol\":6933:6934  2 */\n      0x02\n        /* \"contracts/cropsFarmer.sol\":6922:6935  percentage[2] */\n      dup2\n      mload\n      dup2\n      lt\n      tag_660\n      jumpi\n      tag_661\n      tag_627\n      jump\t// in\n    tag_661:\n    tag_660:\n      0x20\n      mul\n      0x20\n      add\n      add\n        /* \"contracts/cropsFarmer.sol\":6922:6939  percentage[2] = 2 */\n      dup2\n      dup2\n      mstore\n      pop\n      pop\n        /* \"contracts/cropsFarmer.sol\":6957:6963  uint i */\n      0x00\n        /* \"contracts/cropsFarmer.sol\":6953:7459  for(uint i=0;i<3;i++)... */\n    tag_662:\n        /* \"contracts/cropsFarmer.sol\":6968:6969  3 */\n      0x03\n        /* \"contracts/cropsFarmer.sol\":6966:6967  i */\n      dup2\n        /* \"contracts/cropsFarmer.sol\":6966:6969  i<3 */\n      lt\n        /* \"contracts/cropsFarmer.sol\":6953:7459  for(uint i=0;i<3;i++)... */\n      iszero\n      tag_663\n      jumpi\n        /* \"contracts/cropsFarmer.sol\":7031:7032  0 */\n      0x00\n        /* \"contracts/cropsFarmer.sol\":7001:7033  users[temp].referrer!=address(0) */\n      0xffffffffffffffffffffffffffffffffffffffff\n      and\n        /* \"contracts/cropsFarmer.sol\":7001:7006  users */\n      0x21\n        /* \"contracts/cropsFarmer.sol\":7001:7012  users[temp] */\n      0x00\n        /* \"contracts/cropsFarmer.sol\":7007:7011  temp */\n      dup6\n        /* \"contracts/cropsFarmer.sol\":7001:7012  users[temp] */\n      0xffffffffffffffffffffffffffffffffffffffff\n      and\n      0xffffffffffffffffffffffffffffffffffffffff\n      and\n      dup2\n      mstore\n      0x20\n      add\n      swap1\n      dup2\n      mstore\n      0x20\n      add\n      0x00\n      keccak256\n        /* \"contracts/cropsFarmer.sol\":7001:7021  users[temp].referrer */\n      0x05\n      add\n      0x00\n      swap1\n      sload\n      swap1\n      0x0100\n      exp\n      swap1\n      div\n      0xffffffffffffffffffffffffffffffffffffffff\n      and\n        /* \"contracts/cropsFarmer.sol\":7001:7033  users[temp].referrer!=address(0) */\n      0xffffffffffffffffffffffffffffffffffffffff\n      and\n      eq\n        /* \"contracts/cropsFarmer.sol\":6998:7448  if(users[temp].referrer!=address(0))... */\n      tag_665\n      jumpi\n        /* \"contracts/cropsFarmer.sol\":7071:7076  users */\n      0x21\n        /* \"contracts/cropsFarmer.sol\":7071:7082  users[temp] */\n      0x00\n        /* \"contracts/cropsFarmer.sol\":7077:7081  temp */\n      dup5\n        /* \"contracts/cropsFarmer.sol\":7071:7082  users[temp] */\n      0xffffffffffffffffffffffffffffffffffffffff\n      and\n      0xffffffffffffffffffffffffffffffffffffffff\n      and\n      dup2\n      mstore\n      0x20\n      add\n      swap1\n      dup2\n      mstore\n      0x20\n      add\n      0x00\n      keccak256\n        /* \"contracts/cropsFarmer.sol\":7071:7091  users[temp].referrer */\n      0x05\n      add\n      0x00\n      swap1\n      sload\n      swap1\n      0x0100\n      exp\n      swap1\n      div\n      0xffffffffffffffffffffffffffffffffffffffff\n      and\n        /* \"contracts/cropsFarmer.sol\":7066:7091  temp=users[temp].referrer */\n      swap3\n      pop\n        /* \"contracts/cropsFarmer.sol\":7109:7121  uint reward1 */\n      0x00\n        /* \"contracts/cropsFarmer.sol\":7158:7161  100 */\n      0x64\n        /* \"contracts/cropsFarmer.sol\":7141:7156  _investedAmount */\n      dup6\n        /* \"contracts/cropsFarmer.sol\":7125:7135  percentage */\n      dup5\n        /* \"contracts/cropsFarmer.sol\":7136:7137  i */\n      dup5\n        /* \"contracts/cropsFarmer.sol\":7125:7138  percentage[i] */\n      dup2\n      mload\n      dup2\n      lt\n      tag_666\n      jumpi\n      tag_667\n      tag_627\n      jump\t// in\n    tag_667:\n    tag_666:\n      0x20\n      mul\n      0x20\n      add\n      add\n      mload\n        /* \"contracts/cropsFarmer.sol\":7125:7156  percentage[i] * _investedAmount */\n      tag_668\n      swap2\n      swap1\n      tag_458\n      jump\t// in\n    tag_668:\n        /* \"contracts/cropsFarmer.sol\":7124:7161  (percentage[i] * _investedAmount)/100 */\n      tag_669\n      swap2\n      swap1\n      tag_644\n      jump\t// in\n    tag_669:\n        /* \"contracts/cropsFarmer.sol\":7109:7161  uint reward1 = (percentage[i] * _investedAmount)/100 */\n      swap1\n      pop\n        /* \"contracts/cropsFarmer.sol\":7197:7201  temp */\n      dup4\n        /* \"contracts/cropsFarmer.sol\":7181:7212  payable(address(temp)).transfer */\n      0xffffffffffffffffffffffffffffffffffffffff\n      and\n        /* \"contracts/cropsFarmer.sol\":7181:7221  payable(address(temp)).transfer(reward1) */\n      0x08fc\n        /* \"contracts/cropsFarmer.sol\":7213:7220  reward1 */\n      dup3\n        /* \"contracts/cropsFarmer.sol\":7181:7221  payable(address(temp)).transfer(reward1) */\n      swap1\n      dup2\n      iszero\n      mul\n      swap1\n      mload(0x40)\n      0x00\n      mload(0x40)\n      dup1\n      dup4\n      sub\n      dup2\n      dup6\n      dup9\n      dup9\n      call\n      swap4\n      pop\n      pop\n      pop\n      pop\n      iszero\n      dup1\n      iszero\n      tag_671\n      jumpi\n      returndatasize\n      0x00\n      dup1\n      returndatacopy\n      revert(0x00, returndatasize)\n    tag_671:\n      pop\n        /* \"contracts/cropsFarmer.sol\":7272:7315  users[temp].referralEggRewards.add(reward1) */\n      tag_672\n        /* \"contracts/cropsFarmer.sol\":7307:7314  reward1 */\n      dup2\n        /* \"contracts/cropsFarmer.sol\":7272:7277  users */\n      0x21\n        /* \"contracts/cropsFarmer.sol\":7272:7283  users[temp] */\n      0x00\n        /* \"contracts/cropsFarmer.sol\":7278:7282  temp */\n      dup8\n        /* \"contracts/cropsFarmer.sol\":7272:7283  users[temp] */\n      0xffffffffffffffffffffffffffffffffffffffff\n      and\n      0xffffffffffffffffffffffffffffffffffffffff\n      and\n      dup2\n      mstore\n      0x20\n      add\n      swap1\n      dup2\n      mstore\n      0x20\n      add\n      0x00\n      keccak256\n        /* \"contracts/cropsFarmer.sol\":7272:7302  users[temp].referralEggRewards */\n      0x07\n      add\n      sload\n        /* \"contracts/cropsFarmer.sol\":7272:7306  users[temp].referralEggRewards.add */\n      tag_411\n      swap1\n        /* \"contracts/cropsFarmer.sol\":7272:7315  users[temp].referralEggRewards.add(reward1) */\n      swap2\n      swap1\n      0xffffffff\n      and\n      jump\t// in\n    tag_672:\n        /* \"contracts/cropsFarmer.sol\":7239:7244  users */\n      0x21\n        /* \"contracts/cropsFarmer.sol\":7239:7250  users[temp] */\n      0x00\n        /* \"contracts/cropsFarmer.sol\":7245:7249  temp */\n      dup7\n        /* \"contracts/cropsFarmer.sol\":7239:7250  users[temp] */\n      0xffffffffffffffffffffffffffffffffffffffff\n      and\n      0xffffffffffffffffffffffffffffffffffffffff\n      and\n      dup2\n      mstore\n      0x20\n      add\n      swap1\n      dup2\n      mstore\n      0x20\n      add\n      0x00\n      keccak256\n        /* \"contracts/cropsFarmer.sol\":7239:7269  users[temp].referralEggRewards */\n      0x07\n      add\n        /* \"contracts/cropsFarmer.sol\":7239:7315  users[temp].referralEggRewards = users[temp].referralEggRewards.add(reward1) */\n      dup2\n      swap1\n      sstore\n      pop\n        /* \"contracts/cropsFarmer.sol\":7349:7375  totalRefBonus.add(reward1) */\n      tag_673\n        /* \"contracts/cropsFarmer.sol\":7367:7374  reward1 */\n      dup2\n        /* \"contracts/cropsFarmer.sol\":7349:7362  totalRefBonus */\n      sload(0x10)\n        /* \"contracts/cropsFarmer.sol\":7349:7366  totalRefBonus.add */\n      tag_411\n      swap1\n        /* \"contracts/cropsFarmer.sol\":7349:7375  totalRefBonus.add(reward1) */\n      swap2\n      swap1\n      0xffffffff\n      and\n      jump\t// in\n    tag_673:\n        /* \"contracts/cropsFarmer.sol\":7333:7346  totalRefBonus */\n      0x10\n        /* \"contracts/cropsFarmer.sol\":7333:7375  totalRefBonus = totalRefBonus.add(reward1) */\n      dup2\n      swap1\n      sstore\n      pop\n        /* \"contracts/cropsFarmer.sol\":7047:7392  {... */\n      pop\n        /* \"contracts/cropsFarmer.sol\":6998:7448  if(users[temp].referrer!=address(0))... */\n      jump(tag_674)\n    tag_665:\n        /* \"contracts/cropsFarmer.sol\":7428:7433  break */\n      jump(tag_663)\n        /* \"contracts/cropsFarmer.sol\":6998:7448  if(users[temp].referrer!=address(0))... */\n    tag_674:\n        /* \"contracts/cropsFarmer.sol\":6970:6973  i++ */\n      dup1\n      dup1\n      tag_675\n      swap1\n      tag_630\n      jump\t// in\n    tag_675:\n      swap2\n      pop\n      pop\n        /* \"contracts/cropsFarmer.sol\":6953:7459  for(uint i=0;i<3;i++)... */\n      jump(tag_662)\n    tag_663:\n      pop\n        /* \"contracts/cropsFarmer.sol\":6766:7466  { ... */\n      pop\n      pop\n        /* \"contracts/cropsFarmer.sol\":6610:7466  function sendRewardToReferrals(address investor,uint _investedAmount)  internal  //this is the freferral function to transfer the reawards to referrals... */\n      pop\n      pop\n      jump\t// out\n        /* \"contracts/cropsFarmer.sol\":9371:9789  function payFees(uint256 eggValue) internal returns(uint256){... */\n    tag_494:\n        /* \"contracts/cropsFarmer.sol\":9423:9430  uint256 */\n      0x00\n        /* \"contracts/cropsFarmer.sol\":9441:9452  uint256 tax */\n      dup1\n        /* \"contracts/cropsFarmer.sol\":9455:9494  eggValue.mul(TAX).div(PERCENTS_DIVIDER) */\n      tag_677\n        /* \"contracts/cropsFarmer.sol\":9477:9493  PERCENTS_DIVIDER */\n      sload(0x02)\n        /* \"contracts/cropsFarmer.sol\":9455:9472  eggValue.mul(TAX) */\n      tag_678\n        /* \"contracts/cropsFarmer.sol\":9468:9471  TAX */\n      sload(0x03)\n        /* \"contracts/cropsFarmer.sol\":9455:9463  eggValue */\n      dup7\n        /* \"contracts/cropsFarmer.sol\":9455:9467  eggValue.mul */\n      tag_434\n      swap1\n        /* \"contracts/cropsFarmer.sol\":9455:9472  eggValue.mul(TAX) */\n      swap2\n      swap1\n      0xffffffff\n      and\n      jump\t// in\n    tag_678:\n        /* \"contracts/cropsFarmer.sol\":9455:9476  eggValue.mul(TAX).div */\n      tag_423\n      swap1\n        /* \"contracts/cropsFarmer.sol\":9455:9494  eggValue.mul(TAX).div(PERCENTS_DIVIDER) */\n      swap2\n      swap1\n      0xffffffff\n      and\n      jump\t// in\n    tag_677:\n        /* \"contracts/cropsFarmer.sol\":9441:9494  uint256 tax = eggValue.mul(TAX).div(PERCENTS_DIVIDER) */\n      swap1\n      pop\n        /* \"contracts/cropsFarmer.sol\":9504:9517  uint256 mktng */\n      0x00\n        /* \"contracts/cropsFarmer.sol\":9520:9559  eggValue.mul(MKT).div(PERCENTS_DIVIDER) */\n      tag_679\n        /* \"contracts/cropsFarmer.sol\":9542:9558  PERCENTS_DIVIDER */\n      sload(0x02)\n        /* \"contracts/cropsFarmer.sol\":9520:9537  eggValue.mul(MKT) */\n      tag_680\n        /* \"contracts/cropsFarmer.sol\":9533:9536  MKT */\n      sload(0x04)\n        /* \"contracts/cropsFarmer.sol\":9520:9528  eggValue */\n      dup8\n        /* \"contracts/cropsFarmer.sol\":9520:9532  eggValue.mul */\n      tag_434\n      swap1\n        /* \"contracts/cropsFarmer.sol\":9520:9537  eggValue.mul(MKT) */\n      swap2\n      swap1\n      0xffffffff\n      and\n      jump\t// in\n    tag_680:\n        /* \"contracts/cropsFarmer.sol\":9520:9541  eggValue.mul(MKT).div */\n      tag_423\n      swap1\n        /* \"contracts/cropsFarmer.sol\":9520:9559  eggValue.mul(MKT).div(PERCENTS_DIVIDER) */\n      swap2\n      swap1\n      0xffffffff\n      and\n      jump\t// in\n    tag_679:\n        /* \"contracts/cropsFarmer.sol\":9504:9559  uint256 mktng = eggValue.mul(MKT).div(PERCENTS_DIVIDER) */\n      swap1\n      pop\n        /* \"contracts/cropsFarmer.sol\":9569:9573  dev1 */\n      0x1b\n      0x00\n      swap1\n      sload\n      swap1\n      0x0100\n      exp\n      swap1\n      div\n      0xffffffffffffffffffffffffffffffffffffffff\n      and\n        /* \"contracts/cropsFarmer.sol\":9569:9582  dev1.transfer */\n      0xffffffffffffffffffffffffffffffffffffffff\n      and\n        /* \"contracts/cropsFarmer.sol\":9569:9587  dev1.transfer(tax) */\n      0x08fc\n        /* \"contracts/cropsFarmer.sol\":9583:9586  tax */\n      dup4\n        /* \"contracts/cropsFarmer.sol\":9569:9587  dev1.transfer(tax) */\n      swap1\n      dup2\n      iszero\n      mul\n      swap1\n      mload(0x40)\n      0x00\n      mload(0x40)\n      dup1\n      dup4\n      sub\n      dup2\n      dup6\n      dup9\n      dup9\n      call\n      swap4\n      pop\n      pop\n      pop\n      pop\n      iszero\n      dup1\n      iszero\n      tag_682\n      jumpi\n      returndatasize\n      0x00\n      dup1\n      returndatacopy\n      revert(0x00, returndatasize)\n    tag_682:\n      pop\n        /* \"contracts/cropsFarmer.sol\":9725:9728  mkt */\n      0x20\n      0x00\n      swap1\n      sload\n      swap1\n      0x0100\n      exp\n      swap1\n      div\n      0xffffffffffffffffffffffffffffffffffffffff\n      and\n        /* \"contracts/cropsFarmer.sol\":9725:9737  mkt.transfer */\n      0xffffffffffffffffffffffffffffffffffffffff\n      and\n        /* \"contracts/cropsFarmer.sol\":9725:9744  mkt.transfer(mktng) */\n      0x08fc\n        /* \"contracts/cropsFarmer.sol\":9738:9743  mktng */\n      dup3\n        /* \"contracts/cropsFarmer.sol\":9725:9744  mkt.transfer(mktng) */\n      swap1\n      dup2\n      iszero\n      mul\n      swap1\n      mload(0x40)\n      0x00\n      mload(0x40)\n      dup1\n      dup4\n      sub\n      dup2\n      dup6\n      dup9\n      dup9\n      call\n      swap4\n      pop\n      pop\n      pop\n      pop\n      iszero\n      dup1\n      iszero\n      tag_684\n      jumpi\n      returndatasize\n      0x00\n      dup1\n      returndatacopy\n      revert(0x00, returndatasize)\n    tag_684:\n      pop\n        /* \"contracts/cropsFarmer.sol\":9761:9782  mktng.add(tax.mul(1)) */\n      tag_685\n        /* \"contracts/cropsFarmer.sol\":9771:9781  tax.mul(1) */\n      tag_686\n        /* \"contracts/cropsFarmer.sol\":9779:9780  1 */\n      0x01\n        /* \"contracts/cropsFarmer.sol\":9771:9774  tax */\n      dup5\n        /* \"contracts/cropsFarmer.sol\":9771:9778  tax.mul */\n      tag_434\n      swap1\n        /* \"contracts/cropsFarmer.sol\":9771:9781  tax.mul(1) */\n      swap2\n      swap1\n      0xffffffff\n      and\n      jump\t// in\n    tag_686:\n        /* \"contracts/cropsFarmer.sol\":9761:9766  mktng */\n      dup3\n        /* \"contracts/cropsFarmer.sol\":9761:9770  mktng.add */\n      tag_411\n      swap1\n        /* \"contracts/cropsFarmer.sol\":9761:9782  mktng.add(tax.mul(1)) */\n      swap2\n      swap1\n      0xffffffff\n      and\n      jump\t// in\n    tag_685:\n        /* \"contracts/cropsFarmer.sol\":9754:9782  return mktng.add(tax.mul(1)) */\n      swap3\n      pop\n      pop\n      pop\n        /* \"contracts/cropsFarmer.sol\":9371:9789  function payFees(uint256 eggValue) internal returns(uint256){... */\n      swap2\n      swap1\n      pop\n      jump\t// out\n        /* \"contracts/cropsFarmer.sol\":14137:14240  function min(uint256 a, uint256 b) private pure returns (uint256) {... */\n    tag_595:\n        /* \"contracts/cropsFarmer.sol\":14194:14201  uint256 */\n      0x00\n        /* \"contracts/cropsFarmer.sol\":14224:14225  b */\n      dup2\n        /* \"contracts/cropsFarmer.sol\":14220:14221  a */\n      dup4\n        /* \"contracts/cropsFarmer.sol\":14220:14225  a < b */\n      lt\n        /* \"contracts/cropsFarmer.sol\":14220:14233  a < b ? a : b */\n      tag_688\n      jumpi\n        /* \"contracts/cropsFarmer.sol\":14232:14233  b */\n      dup2\n        /* \"contracts/cropsFarmer.sol\":14220:14233  a < b ? a : b */\n      jump(tag_689)\n    tag_688:\n        /* \"contracts/cropsFarmer.sol\":14228:14229  a */\n      dup3\n        /* \"contracts/cropsFarmer.sol\":14220:14233  a < b ? a : b */\n    tag_689:\n        /* \"contracts/cropsFarmer.sol\":14213:14233  return a < b ? a : b */\n      swap1\n      pop\n        /* \"contracts/cropsFarmer.sol\":14137:14240  function min(uint256 a, uint256 b) private pure returns (uint256) {... */\n      swap3\n      swap2\n      pop\n      pop\n      jump\t// out\n        /* \"#utility.yul\":7:84   */\n    tag_690:\n        /* \"#utility.yul\":44:51   */\n      0x00\n        /* \"#utility.yul\":73:78   */\n      dup2\n        /* \"#utility.yul\":62:78   */\n      swap1\n      pop\n        /* \"#utility.yul\":7:84   */\n      swap2\n      swap1\n      pop\n      jump\t// out\n        /* \"#utility.yul\":90:208   */\n    tag_691:\n        /* \"#utility.yul\":177:201   */\n      tag_732\n        /* \"#utility.yul\":195:200   */\n      dup2\n        /* \"#utility.yul\":177:201   */\n      tag_690\n      jump\t// in\n    tag_732:\n        /* \"#utility.yul\":172:175   */\n      dup3\n        /* \"#utility.yul\":165:202   */\n      mstore\n        /* \"#utility.yul\":90:208   */\n      pop\n      pop\n      jump\t// out\n        /* \"#utility.yul\":214:436   */\n    tag_93:\n        /* \"#utility.yul\":307:311   */\n      0x00\n        /* \"#utility.yul\":345:347   */\n      0x20\n        /* \"#utility.yul\":334:343   */\n      dup3\n        /* \"#utility.yul\":330:348   */\n      add\n        /* \"#utility.yul\":322:348   */\n      swap1\n      pop\n        /* \"#utility.yul\":358:429   */\n      tag_734\n        /* \"#utility.yul\":426:427   */\n      0x00\n        /* \"#utility.yul\":415:424   */\n      dup4\n        /* \"#utility.yul\":411:428   */\n      add\n        /* \"#utility.yul\":402:408   */\n      dup5\n        /* \"#utility.yul\":358:429   */\n      tag_691\n      jump\t// in\n    tag_734:\n        /* \"#utility.yul\":214:436   */\n      swap3\n      swap2\n      pop\n      pop\n      jump\t// out\n        /* \"#utility.yul\":442:568   */\n    tag_692:\n        /* \"#utility.yul\":479:486   */\n      0x00\n        /* \"#utility.yul\":519:561   */\n      0xffffffffffffffffffffffffffffffffffffffff\n        /* \"#utility.yul\":512:517   */\n      dup3\n        /* \"#utility.yul\":508:562   */\n      and\n        /* \"#utility.yul\":497:562   */\n      swap1\n      pop\n        /* \"#utility.yul\":442:568   */\n      swap2\n      swap1\n      pop\n      jump\t// out\n        /* \"#utility.yul\":574:678   */\n    tag_693:\n        /* \"#utility.yul\":619:626   */\n      0x00\n        /* \"#utility.yul\":648:672   */\n      tag_737\n        /* \"#utility.yul\":666:671   */\n      dup3\n        /* \"#utility.yul\":648:672   */\n      tag_692\n      jump\t// in\n    tag_737:\n        /* \"#utility.yul\":637:672   */\n      swap1\n      pop\n        /* \"#utility.yul\":574:678   */\n      swap2\n      swap1\n      pop\n      jump\t// out\n        /* \"#utility.yul\":684:826   */\n    tag_694:\n        /* \"#utility.yul\":787:819   */\n      tag_739\n        /* \"#utility.yul\":813:818   */\n      dup2\n        /* \"#utility.yul\":787:819   */\n      tag_693\n      jump\t// in\n    tag_739:\n        /* \"#utility.yul\":782:785   */\n      dup3\n        /* \"#utility.yul\":775:820   */\n      mstore\n        /* \"#utility.yul\":684:826   */\n      pop\n      pop\n      jump\t// out\n        /* \"#utility.yul\":832:1086   */\n    tag_102:\n        /* \"#utility.yul\":941:945   */\n      0x00\n        /* \"#utility.yul\":979:981   */\n      0x20\n        /* \"#utility.yul\":968:977   */\n      dup3\n        /* \"#utility.yul\":964:982   */\n      add\n        /* \"#utility.yul\":956:982   */\n      swap1\n      pop\n        /* \"#utility.yul\":992:1079   */\n      tag_741\n        /* \"#utility.yul\":1076:1077   */\n      0x00\n        /* \"#utility.yul\":1065:1074   */\n      dup4\n        /* \"#utility.yul\":1061:1078   */\n      add\n        /* \"#utility.yul\":1052:1058   */\n      dup5\n        /* \"#utility.yul\":992:1079   */\n      tag_694\n      jump\t// in\n    tag_741:\n        /* \"#utility.yul\":832:1086   */\n      swap3\n      swap2\n      pop\n      pop\n      jump\t// out\n        /* \"#utility.yul\":1173:1290   */\n    tag_696:\n        /* \"#utility.yul\":1282:1283   */\n      0x00\n        /* \"#utility.yul\":1279:1280   */\n      dup1\n        /* \"#utility.yul\":1272:1284   */\n      revert\n        /* \"#utility.yul\":1296:1413   */\n    tag_697:\n        /* \"#utility.yul\":1405:1406   */\n      0x00\n        /* \"#utility.yul\":1402:1403   */\n      dup1\n        /* \"#utility.yul\":1395:1407   */\n      revert\n        /* \"#utility.yul\":1419:1509   */\n    tag_698:\n        /* \"#utility.yul\":1453:1460   */\n      0x00\n        /* \"#utility.yul\":1496:1501   */\n      dup2\n        /* \"#utility.yul\":1489:1502   */\n      iszero\n        /* \"#utility.yul\":1482:1503   */\n      iszero\n        /* \"#utility.yul\":1471:1503   */\n      swap1\n      pop\n        /* \"#utility.yul\":1419:1509   */\n      swap2\n      swap1\n      pop\n      jump\t// out\n        /* \"#utility.yul\":1515:1631   */\n    tag_699:\n        /* \"#utility.yul\":1585:1606   */\n      tag_747\n        /* \"#utility.yul\":1600:1605   */\n      dup2\n        /* \"#utility.yul\":1585:1606   */\n      tag_698\n      jump\t// in\n    tag_747:\n        /* \"#utility.yul\":1578:1583   */\n      dup2\n        /* \"#utility.yul\":1575:1607   */\n      eq\n        /* \"#utility.yul\":1565:1625   */\n      tag_748\n      jumpi\n        /* \"#utility.yul\":1621:1622   */\n      0x00\n        /* \"#utility.yul\":1618:1619   */\n      dup1\n        /* \"#utility.yul\":1611:1623   */\n      revert\n        /* \"#utility.yul\":1565:1625   */\n    tag_748:\n        /* \"#utility.yul\":1515:1631   */\n      pop\n      jump\t// out\n        /* \"#utility.yul\":1637:1770   */\n    tag_700:\n        /* \"#utility.yul\":1680:1685   */\n      0x00\n        /* \"#utility.yul\":1718:1724   */\n      dup2\n        /* \"#utility.yul\":1705:1725   */\n      calldataload\n        /* \"#utility.yul\":1696:1725   */\n      swap1\n      pop\n        /* \"#utility.yul\":1734:1764   */\n      tag_750\n        /* \"#utility.yul\":1758:1763   */\n      dup2\n        /* \"#utility.yul\":1734:1764   */\n      tag_699\n      jump\t// in\n    tag_750:\n        /* \"#utility.yul\":1637:1770   */\n      swap3\n      swap2\n      pop\n      pop\n      jump\t// out\n        /* \"#utility.yul\":1776:2099   */\n    tag_118:\n        /* \"#utility.yul\":1832:1838   */\n      0x00\n        /* \"#utility.yul\":1881:1883   */\n      0x20\n        /* \"#utility.yul\":1869:1878   */\n      dup3\n        /* \"#utility.yul\":1860:1867   */\n      dup5\n        /* \"#utility.yul\":1856:1879   */\n      sub\n        /* \"#utility.yul\":1852:1884   */\n      slt\n        /* \"#utility.yul\":1849:1968   */\n      iszero\n      tag_752\n      jumpi\n        /* \"#utility.yul\":1887:1966   */\n      tag_753\n      tag_696\n      jump\t// in\n    tag_753:\n        /* \"#utility.yul\":1849:1968   */\n    tag_752:\n        /* \"#utility.yul\":2007:2008   */\n      0x00\n        /* \"#utility.yul\":2032:2082   */\n      tag_754\n        /* \"#utility.yul\":2074:2081   */\n      dup5\n        /* \"#utility.yul\":2065:2071   */\n      dup3\n        /* \"#utility.yul\":2054:2063   */\n      dup6\n        /* \"#utility.yul\":2050:2072   */\n      add\n        /* \"#utility.yul\":2032:2082   */\n      tag_700\n      jump\t// in\n    tag_754:\n        /* \"#utility.yul\":2022:2082   */\n      swap2\n      pop\n        /* \"#utility.yul\":1978:2092   */\n      pop\n        /* \"#utility.yul\":1776:2099   */\n      swap3\n      swap2\n      pop\n      pop\n      jump\t// out\n        /* \"#utility.yul\":2105:2227   */\n    tag_701:\n        /* \"#utility.yul\":2178:2202   */\n      tag_756\n        /* \"#utility.yul\":2196:2201   */\n      dup2\n        /* \"#utility.yul\":2178:2202   */\n      tag_690\n      jump\t// in\n    tag_756:\n        /* \"#utility.yul\":2171:2176   */\n      dup2\n        /* \"#utility.yul\":2168:2203   */\n      eq\n        /* \"#utility.yul\":2158:2221   */\n      tag_757\n      jumpi\n        /* \"#utility.yul\":2217:2218   */\n      0x00\n        /* \"#utility.yul\":2214:2215   */\n      dup1\n        /* \"#utility.yul\":2207:2219   */\n      revert\n        /* \"#utility.yul\":2158:2221   */\n    tag_757:\n        /* \"#utility.yul\":2105:2227   */\n      pop\n      jump\t// out\n        /* \"#utility.yul\":2233:2372   */\n    tag_702:\n        /* \"#utility.yul\":2279:2284   */\n      0x00\n        /* \"#utility.yul\":2317:2323   */\n      dup2\n        /* \"#utility.yul\":2304:2324   */\n      calldataload\n        /* \"#utility.yul\":2295:2324   */\n      swap1\n      pop\n        /* \"#utility.yul\":2333:2366   */\n      tag_759\n        /* \"#utility.yul\":2360:2365   */\n      dup2\n        /* \"#utility.yul\":2333:2366   */\n      tag_701\n      jump\t// in\n    tag_759:\n        /* \"#utility.yul\":2233:2372   */\n      swap3\n      swap2\n      pop\n      pop\n      jump\t// out\n        /* \"#utility.yul\":2378:2707   */\n    tag_127:\n        /* \"#utility.yul\":2437:2443   */\n      0x00\n        /* \"#utility.yul\":2486:2488   */\n      0x20\n        /* \"#utility.yul\":2474:2483   */\n      dup3\n        /* \"#utility.yul\":2465:2472   */\n      dup5\n        /* \"#utility.yul\":2461:2484   */\n      sub\n        /* \"#utility.yul\":2457:2489   */\n      slt\n        /* \"#utility.yul\":2454:2573   */\n      iszero\n      tag_761\n      jumpi\n        /* \"#utility.yul\":2492:2571   */\n      tag_762\n      tag_696\n      jump\t// in\n    tag_762:\n        /* \"#utility.yul\":2454:2573   */\n    tag_761:\n        /* \"#utility.yul\":2612:2613   */\n      0x00\n        /* \"#utility.yul\":2637:2690   */\n      tag_763\n        /* \"#utility.yul\":2682:2689   */\n      dup5\n        /* \"#utility.yul\":2673:2679   */\n      dup3\n        /* \"#utility.yul\":2662:2671   */\n      dup6\n        /* \"#utility.yul\":2658:2680   */\n      add\n        /* \"#utility.yul\":2637:2690   */\n      tag_702\n      jump\t// in\n    tag_763:\n        /* \"#utility.yul\":2627:2690   */\n      swap2\n      pop\n        /* \"#utility.yul\":2583:2700   */\n      pop\n        /* \"#utility.yul\":2378:2707   */\n      swap3\n      swap2\n      pop\n      pop\n      jump\t// out\n        /* \"#utility.yul\":2713:3332   */\n    tag_132:\n        /* \"#utility.yul\":2790:2796   */\n      0x00\n        /* \"#utility.yul\":2798:2804   */\n      dup1\n        /* \"#utility.yul\":2806:2812   */\n      0x00\n        /* \"#utility.yul\":2855:2857   */\n      0x60\n        /* \"#utility.yul\":2843:2852   */\n      dup5\n        /* \"#utility.yul\":2834:2841   */\n      dup7\n        /* \"#utility.yul\":2830:2853   */\n      sub\n        /* \"#utility.yul\":2826:2858   */\n      slt\n        /* \"#utility.yul\":2823:2942   */\n      iszero\n      tag_765\n      jumpi\n        /* \"#utility.yul\":2861:2940   */\n      tag_766\n      tag_696\n      jump\t// in\n    tag_766:\n        /* \"#utility.yul\":2823:2942   */\n    tag_765:\n        /* \"#utility.yul\":2981:2982   */\n      0x00\n        /* \"#utility.yul\":3006:3059   */\n      tag_767\n        /* \"#utility.yul\":3051:3058   */\n      dup7\n        /* \"#utility.yul\":3042:3048   */\n      dup3\n        /* \"#utility.yul\":3031:3040   */\n      dup8\n        /* \"#utility.yul\":3027:3049   */\n      add\n        /* \"#utility.yul\":3006:3059   */\n      tag_702\n      jump\t// in\n    tag_767:\n        /* \"#utility.yul\":2996:3059   */\n      swap4\n      pop\n        /* \"#utility.yul\":2952:3069   */\n      pop\n        /* \"#utility.yul\":3108:3110   */\n      0x20\n        /* \"#utility.yul\":3134:3187   */\n      tag_768\n        /* \"#utility.yul\":3179:3186   */\n      dup7\n        /* \"#utility.yul\":3170:3176   */\n      dup3\n        /* \"#utility.yul\":3159:3168   */\n      dup8\n        /* \"#utility.yul\":3155:3177   */\n      add\n        /* \"#utility.yul\":3134:3187   */\n      tag_702\n      jump\t// in\n    tag_768:\n        /* \"#utility.yul\":3124:3187   */\n      swap3\n      pop\n        /* \"#utility.yul\":3079:3197   */\n      pop\n        /* \"#utility.yul\":3236:3238   */\n      0x40\n        /* \"#utility.yul\":3262:3315   */\n      tag_769\n        /* \"#utility.yul\":3307:3314   */\n      dup7\n        /* \"#utility.yul\":3298:3304   */\n      dup3\n        /* \"#utility.yul\":3287:3296   */\n      dup8\n        /* \"#utility.yul\":3283:3305   */\n      add\n        /* \"#utility.yul\":3262:3315   */\n      tag_702\n      jump\t// in\n    tag_769:\n        /* \"#utility.yul\":3252:3315   */\n      swap2\n      pop\n        /* \"#utility.yul\":3207:3325   */\n      pop\n        /* \"#utility.yul\":2713:3332   */\n      swap3\n      pop\n      swap3\n      pop\n      swap3\n      jump\t// out\n        /* \"#utility.yul\":3338:3812   */\n    tag_142:\n        /* \"#utility.yul\":3406:3412   */\n      0x00\n        /* \"#utility.yul\":3414:3420   */\n      dup1\n        /* \"#utility.yul\":3463:3465   */\n      0x40\n        /* \"#utility.yul\":3451:3460   */\n      dup4\n        /* \"#utility.yul\":3442:3449   */\n      dup6\n        /* \"#utility.yul\":3438:3461   */\n      sub\n        /* \"#utility.yul\":3434:3466   */\n      slt\n        /* \"#utility.yul\":3431:3550   */\n      iszero\n      tag_771\n      jumpi\n        /* \"#utility.yul\":3469:3548   */\n      tag_772\n      tag_696\n      jump\t// in\n    tag_772:\n        /* \"#utility.yul\":3431:3550   */\n    tag_771:\n        /* \"#utility.yul\":3589:3590   */\n      0x00\n        /* \"#utility.yul\":3614:3667   */\n      tag_773\n        /* \"#utility.yul\":3659:3666   */\n      dup6\n        /* \"#utility.yul\":3650:3656   */\n      dup3\n        /* \"#utility.yul\":3639:3648   */\n      dup7\n        /* \"#utility.yul\":3635:3657   */\n      add\n        /* \"#utility.yul\":3614:3667   */\n      tag_702\n      jump\t// in\n    tag_773:\n        /* \"#utility.yul\":3604:3667   */\n      swap3\n      pop\n        /* \"#utility.yul\":3560:3677   */\n      pop\n        /* \"#utility.yul\":3716:3718   */\n      0x20\n        /* \"#utility.yul\":3742:3795   */\n      tag_774\n        /* \"#utility.yul\":3787:3794   */\n      dup6\n        /* \"#utility.yul\":3778:3784   */\n      dup3\n        /* \"#utility.yul\":3767:3776   */\n      dup7\n        /* \"#utility.yul\":3763:3785   */\n      add\n        /* \"#utility.yul\":3742:3795   */\n      tag_702\n      jump\t// in\n    tag_774:\n        /* \"#utility.yul\":3732:3795   */\n      swap2\n      pop\n        /* \"#utility.yul\":3687:3805   */\n      pop\n        /* \"#utility.yul\":3338:3812   */\n      swap3\n      pop\n      swap3\n      swap1\n      pop\n      jump\t// out\n        /* \"#utility.yul\":3818:3914   */\n    tag_703:\n        /* \"#utility.yul\":3855:3862   */\n      0x00\n        /* \"#utility.yul\":3884:3908   */\n      tag_776\n        /* \"#utility.yul\":3902:3907   */\n      dup3\n        /* \"#utility.yul\":3884:3908   */\n      tag_692\n      jump\t// in\n    tag_776:\n        /* \"#utility.yul\":3873:3908   */\n      swap1\n      pop\n        /* \"#utility.yul\":3818:3914   */\n      swap2\n      swap1\n      pop\n      jump\t// out\n        /* \"#utility.yul\":3920:4042   */\n    tag_704:\n        /* \"#utility.yul\":3993:4017   */\n      tag_778\n        /* \"#utility.yul\":4011:4016   */\n      dup2\n        /* \"#utility.yul\":3993:4017   */\n      tag_703\n      jump\t// in\n    tag_778:\n        /* \"#utility.yul\":3986:3991   */\n      dup2\n        /* \"#utility.yul\":3983:4018   */\n      eq\n        /* \"#utility.yul\":3973:4036   */\n      tag_779\n      jumpi\n        /* \"#utility.yul\":4032:4033   */\n      0x00\n        /* \"#utility.yul\":4029:4030   */\n      dup1\n        /* \"#utility.yul\":4022:4034   */\n      revert\n        /* \"#utility.yul\":3973:4036   */\n    tag_779:\n        /* \"#utility.yul\":3920:4042   */\n      pop\n      jump\t// out\n        /* \"#utility.yul\":4048:4187   */\n    tag_705:\n        /* \"#utility.yul\":4094:4099   */\n      0x00\n        /* \"#utility.yul\":4132:4138   */\n      dup2\n        /* \"#utility.yul\":4119:4139   */\n      calldataload\n        /* \"#utility.yul\":4110:4139   */\n      swap1\n      pop\n        /* \"#utility.yul\":4148:4181   */\n      tag_781\n        /* \"#utility.yul\":4175:4180   */\n      dup2\n        /* \"#utility.yul\":4148:4181   */\n      tag_704\n      jump\t// in\n    tag_781:\n        /* \"#utility.yul\":4048:4187   */\n      swap3\n      swap2\n      pop\n      pop\n      jump\t// out\n        /* \"#utility.yul\":4193:4522   */\n    tag_152:\n        /* \"#utility.yul\":4252:4258   */\n      0x00\n        /* \"#utility.yul\":4301:4303   */\n      0x20\n        /* \"#utility.yul\":4289:4298   */\n      dup3\n        /* \"#utility.yul\":4280:4287   */\n      dup5\n        /* \"#utility.yul\":4276:4299   */\n      sub\n        /* \"#utility.yul\":4272:4304   */\n      slt\n        /* \"#utility.yul\":4269:4388   */\n      iszero\n      tag_783\n      jumpi\n        /* \"#utility.yul\":4307:4386   */\n      tag_784\n      tag_696\n      jump\t// in\n    tag_784:\n        /* \"#utility.yul\":4269:4388   */\n    tag_783:\n        /* \"#utility.yul\":4427:4428   */\n      0x00\n        /* \"#utility.yul\":4452:4505   */\n      tag_785\n        /* \"#utility.yul\":4497:4504   */\n      dup5\n        /* \"#utility.yul\":4488:4494   */\n      dup3\n        /* \"#utility.yul\":4477:4486   */\n      dup6\n        /* \"#utility.yul\":4473:4495   */\n      add\n        /* \"#utility.yul\":4452:4505   */\n      tag_705\n      jump\t// in\n    tag_785:\n        /* \"#utility.yul\":4442:4505   */\n      swap2\n      pop\n        /* \"#utility.yul\":4398:4515   */\n      pop\n        /* \"#utility.yul\":4193:4522   */\n      swap3\n      swap2\n      pop\n      pop\n      jump\t// out\n        /* \"#utility.yul\":4528:4637   */\n    tag_706:\n        /* \"#utility.yul\":4609:4630   */\n      tag_787\n        /* \"#utility.yul\":4624:4629   */\n      dup2\n        /* \"#utility.yul\":4609:4630   */\n      tag_698\n      jump\t// in\n    tag_787:\n        /* \"#utility.yul\":4604:4607   */\n      dup3\n        /* \"#utility.yul\":4597:4631   */\n      mstore\n        /* \"#utility.yul\":4528:4637   */\n      pop\n      pop\n      jump\t// out\n        /* \"#utility.yul\":4643:4853   */\n    tag_166:\n        /* \"#utility.yul\":4730:4734   */\n      0x00\n        /* \"#utility.yul\":4768:4770   */\n      0x20\n        /* \"#utility.yul\":4757:4766   */\n      dup3\n        /* \"#utility.yul\":4753:4771   */\n      add\n        /* \"#utility.yul\":4745:4771   */\n      swap1\n      pop\n        /* \"#utility.yul\":4781:4846   */\n      tag_789\n        /* \"#utility.yul\":4843:4844   */\n      0x00\n        /* \"#utility.yul\":4832:4841   */\n      dup4\n        /* \"#utility.yul\":4828:4845   */\n      add\n        /* \"#utility.yul\":4819:4825   */\n      dup5\n        /* \"#utility.yul\":4781:4846   */\n      tag_706\n      jump\t// in\n    tag_789:\n        /* \"#utility.yul\":4643:4853   */\n      swap3\n      swap2\n      pop\n      pop\n      jump\t// out\n        /* \"#utility.yul\":4859:5412   */\n    tag_191:\n        /* \"#utility.yul\":5036:5040   */\n      0x00\n        /* \"#utility.yul\":5074:5077   */\n      0x80\n        /* \"#utility.yul\":5063:5072   */\n      dup3\n        /* \"#utility.yul\":5059:5078   */\n      add\n        /* \"#utility.yul\":5051:5078   */\n      swap1\n      pop\n        /* \"#utility.yul\":5088:5159   */\n      tag_791\n        /* \"#utility.yul\":5156:5157   */\n      0x00\n        /* \"#utility.yul\":5145:5154   */\n      dup4\n        /* \"#utility.yul\":5141:5158   */\n      add\n        /* \"#utility.yul\":5132:5138   */\n      dup8\n        /* \"#utility.yul\":5088:5159   */\n      tag_691\n      jump\t// in\n    tag_791:\n        /* \"#utility.yul\":5169:5241   */\n      tag_792\n        /* \"#utility.yul\":5237:5239   */\n      0x20\n        /* \"#utility.yul\":5226:5235   */\n      dup4\n        /* \"#utility.yul\":5222:5240   */\n      add\n        /* \"#utility.yul\":5213:5219   */\n      dup7\n        /* \"#utility.yul\":5169:5241   */\n      tag_691\n      jump\t// in\n    tag_792:\n        /* \"#utility.yul\":5251:5323   */\n      tag_793\n        /* \"#utility.yul\":5319:5321   */\n      0x40\n        /* \"#utility.yul\":5308:5317   */\n      dup4\n        /* \"#utility.yul\":5304:5322   */\n      add\n        /* \"#utility.yul\":5295:5301   */\n      dup6\n        /* \"#utility.yul\":5251:5323   */\n      tag_691\n      jump\t// in\n    tag_793:\n        /* \"#utility.yul\":5333:5405   */\n      tag_794\n        /* \"#utility.yul\":5401:5403   */\n      0x60\n        /* \"#utility.yul\":5390:5399   */\n      dup4\n        /* \"#utility.yul\":5386:5404   */\n      add\n        /* \"#utility.yul\":5377:5383   */\n      dup5\n        /* \"#utility.yul\":5333:5405   */\n      tag_691\n      jump\t// in\n    tag_794:\n        /* \"#utility.yul\":4859:5412   */\n      swap6\n      swap5\n      pop\n      pop\n      pop\n      pop\n      pop\n      jump\t// out\n        /* \"#utility.yul\":5418:5892   */\n    tag_195:\n        /* \"#utility.yul\":5486:5492   */\n      0x00\n        /* \"#utility.yul\":5494:5500   */\n      dup1\n        /* \"#utility.yul\":5543:5545   */\n      0x40\n        /* \"#utility.yul\":5531:5540   */\n      dup4\n        /* \"#utility.yul\":5522:5529   */\n      dup6\n        /* \"#utility.yul\":5518:5541   */\n      sub\n        /* \"#utility.yul\":5514:5546   */\n      slt\n        /* \"#utility.yul\":5511:5630   */\n      iszero\n      tag_796\n      jumpi\n        /* \"#utility.yul\":5549:5628   */\n      tag_797\n      tag_696\n      jump\t// in\n    tag_797:\n        /* \"#utility.yul\":5511:5630   */\n    tag_796:\n        /* \"#utility.yul\":5669:5670   */\n      0x00\n        /* \"#utility.yul\":5694:5747   */\n      tag_798\n        /* \"#utility.yul\":5739:5746   */\n      dup6\n        /* \"#utility.yul\":5730:5736   */\n      dup3\n        /* \"#utility.yul\":5719:5728   */\n      dup7\n        /* \"#utility.yul\":5715:5737   */\n      add\n        /* \"#utility.yul\":5694:5747   */\n      tag_705\n      jump\t// in\n    tag_798:\n        /* \"#utility.yul\":5684:5747   */\n      swap3\n      pop\n        /* \"#utility.yul\":5640:5757   */\n      pop\n        /* \"#utility.yul\":5796:5798   */\n      0x20\n        /* \"#utility.yul\":5822:5875   */\n      tag_799\n        /* \"#utility.yul\":5867:5874   */\n      dup6\n        /* \"#utility.yul\":5858:5864   */\n      dup3\n        /* \"#utility.yul\":5847:5856   */\n      dup7\n        /* \"#utility.yul\":5843:5865   */\n      add\n        /* \"#utility.yul\":5822:5875   */\n      tag_702\n      jump\t// in\n    tag_799:\n        /* \"#utility.yul\":5812:5875   */\n      swap2\n      pop\n        /* \"#utility.yul\":5767:5885   */\n      pop\n        /* \"#utility.yul\":5418:5892   */\n      swap3\n      pop\n      swap3\n      swap1\n      pop\n      jump\t// out\n        /* \"#utility.yul\":5898:6016   */\n    tag_707:\n        /* \"#utility.yul\":5985:6009   */\n      tag_801\n        /* \"#utility.yul\":6003:6008   */\n      dup2\n        /* \"#utility.yul\":5985:6009   */\n      tag_703\n      jump\t// in\n    tag_801:\n        /* \"#utility.yul\":5980:5983   */\n      dup3\n        /* \"#utility.yul\":5973:6010   */\n      mstore\n        /* \"#utility.yul\":5898:6016   */\n      pop\n      pop\n      jump\t// out\n        /* \"#utility.yul\":6022:7467   */\n    tag_217:\n        /* \"#utility.yul\":6425:6429   */\n      0x00\n        /* \"#utility.yul\":6463:6466   */\n      0x0180\n        /* \"#utility.yul\":6452:6461   */\n      dup3\n        /* \"#utility.yul\":6448:6467   */\n      add\n        /* \"#utility.yul\":6440:6467   */\n      swap1\n      pop\n        /* \"#utility.yul\":6477:6548   */\n      tag_803\n        /* \"#utility.yul\":6545:6546   */\n      0x00\n        /* \"#utility.yul\":6534:6543   */\n      dup4\n        /* \"#utility.yul\":6530:6547   */\n      add\n        /* \"#utility.yul\":6521:6527   */\n      dup16\n        /* \"#utility.yul\":6477:6548   */\n      tag_691\n      jump\t// in\n    tag_803:\n        /* \"#utility.yul\":6558:6630   */\n      tag_804\n        /* \"#utility.yul\":6626:6628   */\n      0x20\n        /* \"#utility.yul\":6615:6624   */\n      dup4\n        /* \"#utility.yul\":6611:6629   */\n      add\n        /* \"#utility.yul\":6602:6608   */\n      dup15\n        /* \"#utility.yul\":6558:6630   */\n      tag_691\n      jump\t// in\n    tag_804:\n        /* \"#utility.yul\":6640:6712   */\n      tag_805\n        /* \"#utility.yul\":6708:6710   */\n      0x40\n        /* \"#utility.yul\":6697:6706   */\n      dup4\n        /* \"#utility.yul\":6693:6711   */\n      add\n        /* \"#utility.yul\":6684:6690   */\n      dup14\n        /* \"#utility.yul\":6640:6712   */\n      tag_691\n      jump\t// in\n    tag_805:\n        /* \"#utility.yul\":6722:6794   */\n      tag_806\n        /* \"#utility.yul\":6790:6792   */\n      0x60\n        /* \"#utility.yul\":6779:6788   */\n      dup4\n        /* \"#utility.yul\":6775:6793   */\n      add\n        /* \"#utility.yul\":6766:6772   */\n      dup13\n        /* \"#utility.yul\":6722:6794   */\n      tag_691\n      jump\t// in\n    tag_806:\n        /* \"#utility.yul\":6804:6877   */\n      tag_807\n        /* \"#utility.yul\":6872:6875   */\n      0x80\n        /* \"#utility.yul\":6861:6870   */\n      dup4\n        /* \"#utility.yul\":6857:6876   */\n      add\n        /* \"#utility.yul\":6848:6854   */\n      dup12\n        /* \"#utility.yul\":6804:6877   */\n      tag_691\n      jump\t// in\n    tag_807:\n        /* \"#utility.yul\":6887:6960   */\n      tag_808\n        /* \"#utility.yul\":6955:6958   */\n      0xa0\n        /* \"#utility.yul\":6944:6953   */\n      dup4\n        /* \"#utility.yul\":6940:6959   */\n      add\n        /* \"#utility.yul\":6931:6937   */\n      dup11\n        /* \"#utility.yul\":6887:6960   */\n      tag_707\n      jump\t// in\n    tag_808:\n        /* \"#utility.yul\":6970:7043   */\n      tag_809\n        /* \"#utility.yul\":7038:7041   */\n      0xc0\n        /* \"#utility.yul\":7027:7036   */\n      dup4\n        /* \"#utility.yul\":7023:7042   */\n      add\n        /* \"#utility.yul\":7014:7020   */\n      dup10\n        /* \"#utility.yul\":6970:7043   */\n      tag_691\n      jump\t// in\n    tag_809:\n        /* \"#utility.yul\":7053:7126   */\n      tag_810\n        /* \"#utility.yul\":7121:7124   */\n      0xe0\n        /* \"#utility.yul\":7110:7119   */\n      dup4\n        /* \"#utility.yul\":7106:7125   */\n      add\n        /* \"#utility.yul\":7097:7103   */\n      dup9\n        /* \"#utility.yul\":7053:7126   */\n      tag_691\n      jump\t// in\n    tag_810:\n        /* \"#utility.yul\":7136:7209   */\n      tag_811\n        /* \"#utility.yul\":7204:7207   */\n      0x0100\n        /* \"#utility.yul\":7193:7202   */\n      dup4\n        /* \"#utility.yul\":7189:7208   */\n      add\n        /* \"#utility.yul\":7180:7186   */\n      dup8\n        /* \"#utility.yul\":7136:7209   */\n      tag_691\n      jump\t// in\n    tag_811:\n        /* \"#utility.yul\":7219:7292   */\n      tag_812\n        /* \"#utility.yul\":7287:7290   */\n      0x0120\n        /* \"#utility.yul\":7276:7285   */\n      dup4\n        /* \"#utility.yul\":7272:7291   */\n      add\n        /* \"#utility.yul\":7263:7269   */\n      dup7\n        /* \"#utility.yul\":7219:7292   */\n      tag_691\n      jump\t// in\n    tag_812:\n        /* \"#utility.yul\":7302:7376   */\n      tag_813\n        /* \"#utility.yul\":7371:7374   */\n      0x0140\n        /* \"#utility.yul\":7360:7369   */\n      dup4\n        /* \"#utility.yul\":7356:7375   */\n      add\n        /* \"#utility.yul\":7346:7353   */\n      dup6\n        /* \"#utility.yul\":7302:7376   */\n      tag_691\n      jump\t// in\n    tag_813:\n        /* \"#utility.yul\":7386:7460   */\n      tag_814\n        /* \"#utility.yul\":7455:7458   */\n      0x0160\n        /* \"#utility.yul\":7444:7453   */\n      dup4\n        /* \"#utility.yul\":7440:7459   */\n      add\n        /* \"#utility.yul\":7430:7437   */\n      dup5\n        /* \"#utility.yul\":7386:7460   */\n      tag_691\n      jump\t// in\n    tag_814:\n        /* \"#utility.yul\":6022:7467   */\n      swap14\n      swap13\n      pop\n      pop\n      pop\n      pop\n      pop\n      pop\n      pop\n      pop\n      pop\n      pop\n      pop\n      pop\n      pop\n      jump\t// out\n        /* \"#utility.yul\":7473:7695   */\n    tag_284:\n        /* \"#utility.yul\":7566:7570   */\n      0x00\n        /* \"#utility.yul\":7604:7606   */\n      0x20\n        /* \"#utility.yul\":7593:7602   */\n      dup3\n        /* \"#utility.yul\":7589:7607   */\n      add\n        /* \"#utility.yul\":7581:7607   */\n      swap1\n      pop\n        /* \"#utility.yul\":7617:7688   */\n      tag_816\n        /* \"#utility.yul\":7685:7686   */\n      0x00\n        /* \"#utility.yul\":7674:7683   */\n      dup4\n        /* \"#utility.yul\":7670:7687   */\n      add\n        /* \"#utility.yul\":7661:7667   */\n      dup5\n        /* \"#utility.yul\":7617:7688   */\n      tag_707\n      jump\t// in\n    tag_816:\n        /* \"#utility.yul\":7473:7695   */\n      swap3\n      swap2\n      pop\n      pop\n      jump\t// out\n        /* \"#utility.yul\":7701:8033   */\n    tag_331:\n        /* \"#utility.yul\":7822:7826   */\n      0x00\n        /* \"#utility.yul\":7860:7862   */\n      0x40\n        /* \"#utility.yul\":7849:7858   */\n      dup3\n        /* \"#utility.yul\":7845:7863   */\n      add\n        /* \"#utility.yul\":7837:7863   */\n      swap1\n      pop\n        /* \"#utility.yul\":7873:7944   */\n      tag_818\n        /* \"#utility.yul\":7941:7942   */\n      0x00\n        /* \"#utility.yul\":7930:7939   */\n      dup4\n        /* \"#utility.yul\":7926:7943   */\n      add\n        /* \"#utility.yul\":7917:7923   */\n      dup6\n        /* \"#utility.yul\":7873:7944   */\n      tag_691\n      jump\t// in\n    tag_818:\n        /* \"#utility.yul\":7954:8026   */\n      tag_819\n        /* \"#utility.yul\":8022:8024   */\n      0x20\n        /* \"#utility.yul\":8011:8020   */\n      dup4\n        /* \"#utility.yul\":8007:8025   */\n      add\n        /* \"#utility.yul\":7998:8004   */\n      dup5\n        /* \"#utility.yul\":7954:8026   */\n      tag_691\n      jump\t// in\n    tag_819:\n        /* \"#utility.yul\":7701:8033   */\n      swap4\n      swap3\n      pop\n      pop\n      pop\n      jump\t// out\n        /* \"#utility.yul\":8039:8507   */\n    tag_370:\n        /* \"#utility.yul\":8104:8110   */\n      0x00\n        /* \"#utility.yul\":8112:8118   */\n      dup1\n        /* \"#utility.yul\":8161:8163   */\n      0x40\n        /* \"#utility.yul\":8149:8158   */\n      dup4\n        /* \"#utility.yul\":8140:8147   */\n      dup6\n        /* \"#utility.yul\":8136:8159   */\n      sub\n        /* \"#utility.yul\":8132:8164   */\n      slt\n        /* \"#utility.yul\":8129:8248   */\n      iszero\n      tag_821\n      jumpi\n        /* \"#utility.yul\":8167:8246   */\n      tag_822\n      tag_696\n      jump\t// in\n    tag_822:\n        /* \"#utility.yul\":8129:8248   */\n    tag_821:\n        /* \"#utility.yul\":8287:8288   */\n      0x00\n        /* \"#utility.yul\":8312:8365   */\n      tag_823\n        /* \"#utility.yul\":8357:8364   */\n      dup6\n        /* \"#utility.yul\":8348:8354   */\n      dup3\n        /* \"#utility.yul\":8337:8346   */\n      dup7\n        /* \"#utility.yul\":8333:8355   */\n      add\n        /* \"#utility.yul\":8312:8365   */\n      tag_705\n      jump\t// in\n    tag_823:\n        /* \"#utility.yul\":8302:8365   */\n      swap3\n      pop\n        /* \"#utility.yul\":8258:8375   */\n      pop\n        /* \"#utility.yul\":8414:8416   */\n      0x20\n        /* \"#utility.yul\":8440:8490   */\n      tag_824\n        /* \"#utility.yul\":8482:8489   */\n      dup6\n        /* \"#utility.yul\":8473:8479   */\n      dup3\n        /* \"#utility.yul\":8462:8471   */\n      dup7\n        /* \"#utility.yul\":8458:8480   */\n      add\n        /* \"#utility.yul\":8440:8490   */\n      tag_700\n      jump\t// in\n    tag_824:\n        /* \"#utility.yul\":8430:8490   */\n      swap2\n      pop\n        /* \"#utility.yul\":8385:8500   */\n      pop\n        /* \"#utility.yul\":8039:8507   */\n      swap3\n      pop\n      swap3\n      swap1\n      pop\n      jump\t// out\n        /* \"#utility.yul\":8513:8630   */\n    tag_708:\n        /* \"#utility.yul\":8622:8623   */\n      0x00\n        /* \"#utility.yul\":8619:8620   */\n      dup1\n        /* \"#utility.yul\":8612:8624   */\n      revert\n        /* \"#utility.yul\":8636:8753   */\n    tag_709:\n        /* \"#utility.yul\":8745:8746   */\n      0x00\n        /* \"#utility.yul\":8742:8743   */\n      dup1\n        /* \"#utility.yul\":8735:8747   */\n      revert\n        /* \"#utility.yul\":8759:8876   */\n    tag_710:\n        /* \"#utility.yul\":8868:8869   */\n      0x00\n        /* \"#utility.yul\":8865:8866   */\n      dup1\n        /* \"#utility.yul\":8858:8870   */\n      revert\n        /* \"#utility.yul\":8899:9467   */\n    tag_711:\n        /* \"#utility.yul\":8972:8980   */\n      0x00\n        /* \"#utility.yul\":8982:8988   */\n      dup1\n        /* \"#utility.yul\":9032:9035   */\n      dup4\n        /* \"#utility.yul\":9025:9029   */\n      0x1f\n        /* \"#utility.yul\":9017:9023   */\n      dup5\n        /* \"#utility.yul\":9013:9030   */\n      add\n        /* \"#utility.yul\":9009:9036   */\n      slt\n        /* \"#utility.yul\":8999:9121   */\n      tag_829\n      jumpi\n        /* \"#utility.yul\":9040:9119   */\n      tag_830\n      tag_708\n      jump\t// in\n    tag_830:\n        /* \"#utility.yul\":8999:9121   */\n    tag_829:\n        /* \"#utility.yul\":9153:9159   */\n      dup3\n        /* \"#utility.yul\":9140:9160   */\n      calldataload\n        /* \"#utility.yul\":9130:9160   */\n      swap1\n      pop\n        /* \"#utility.yul\":9183:9201   */\n      0xffffffffffffffff\n        /* \"#utility.yul\":9175:9181   */\n      dup2\n        /* \"#utility.yul\":9172:9202   */\n      gt\n        /* \"#utility.yul\":9169:9286   */\n      iszero\n      tag_831\n      jumpi\n        /* \"#utility.yul\":9205:9284   */\n      tag_832\n      tag_709\n      jump\t// in\n    tag_832:\n        /* \"#utility.yul\":9169:9286   */\n    tag_831:\n        /* \"#utility.yul\":9319:9323   */\n      0x20\n        /* \"#utility.yul\":9311:9317   */\n      dup4\n        /* \"#utility.yul\":9307:9324   */\n      add\n        /* \"#utility.yul\":9295:9324   */\n      swap2\n      pop\n        /* \"#utility.yul\":9373:9376   */\n      dup4\n        /* \"#utility.yul\":9365:9369   */\n      0x20\n        /* \"#utility.yul\":9357:9363   */\n      dup3\n        /* \"#utility.yul\":9353:9370   */\n      mul\n        /* \"#utility.yul\":9343:9351   */\n      dup4\n        /* \"#utility.yul\":9339:9371   */\n      add\n        /* \"#utility.yul\":9336:9377   */\n      gt\n        /* \"#utility.yul\":9333:9461   */\n      iszero\n      tag_833\n      jumpi\n        /* \"#utility.yul\":9380:9459   */\n      tag_834\n      tag_710\n      jump\t// in\n    tag_834:\n        /* \"#utility.yul\":9333:9461   */\n    tag_833:\n        /* \"#utility.yul\":8899:9467   */\n      swap3\n      pop\n      swap3\n      swap1\n      pop\n      jump\t// out\n        /* \"#utility.yul\":9473:10171   */\n    tag_390:\n        /* \"#utility.yul\":9565:9571   */\n      0x00\n        /* \"#utility.yul\":9573:9579   */\n      dup1\n        /* \"#utility.yul\":9581:9587   */\n      0x00\n        /* \"#utility.yul\":9630:9632   */\n      0x40\n        /* \"#utility.yul\":9618:9627   */\n      dup5\n        /* \"#utility.yul\":9609:9616   */\n      dup7\n        /* \"#utility.yul\":9605:9628   */\n      sub\n        /* \"#utility.yul\":9601:9633   */\n      slt\n        /* \"#utility.yul\":9598:9717   */\n      iszero\n      tag_836\n      jumpi\n        /* \"#utility.yul\":9636:9715   */\n      tag_837\n      tag_696\n      jump\t// in\n    tag_837:\n        /* \"#utility.yul\":9598:9717   */\n    tag_836:\n        /* \"#utility.yul\":9784:9785   */\n      0x00\n        /* \"#utility.yul\":9773:9782   */\n      dup5\n        /* \"#utility.yul\":9769:9786   */\n      add\n        /* \"#utility.yul\":9756:9787   */\n      calldataload\n        /* \"#utility.yul\":9814:9832   */\n      0xffffffffffffffff\n        /* \"#utility.yul\":9806:9812   */\n      dup2\n        /* \"#utility.yul\":9803:9833   */\n      gt\n        /* \"#utility.yul\":9800:9917   */\n      iszero\n      tag_838\n      jumpi\n        /* \"#utility.yul\":9836:9915   */\n      tag_839\n      tag_697\n      jump\t// in\n    tag_839:\n        /* \"#utility.yul\":9800:9917   */\n    tag_838:\n        /* \"#utility.yul\":9949:10029   */\n      tag_840\n        /* \"#utility.yul\":10021:10028   */\n      dup7\n        /* \"#utility.yul\":10012:10018   */\n      dup3\n        /* \"#utility.yul\":10001:10010   */\n      dup8\n        /* \"#utility.yul\":9997:10019   */\n      add\n        /* \"#utility.yul\":9949:10029   */\n      tag_711\n      jump\t// in\n    tag_840:\n        /* \"#utility.yul\":9931:10029   */\n      swap4\n      pop\n      swap4\n      pop\n        /* \"#utility.yul\":9727:10039   */\n      pop\n        /* \"#utility.yul\":10078:10080   */\n      0x20\n        /* \"#utility.yul\":10104:10154   */\n      tag_841\n        /* \"#utility.yul\":10146:10153   */\n      dup7\n        /* \"#utility.yul\":10137:10143   */\n      dup3\n        /* \"#utility.yul\":10126:10135   */\n      dup8\n        /* \"#utility.yul\":10122:10144   */\n      add\n        /* \"#utility.yul\":10104:10154   */\n      tag_700\n      jump\t// in\n    tag_841:\n        /* \"#utility.yul\":10094:10154   */\n      swap2\n      pop\n        /* \"#utility.yul\":10049:10164   */\n      pop\n        /* \"#utility.yul\":9473:10171   */\n      swap3\n      pop\n      swap3\n      pop\n      swap3\n      jump\t// out\n        /* \"#utility.yul\":10177:10346   */\n    tag_712:\n        /* \"#utility.yul\":10261:10272   */\n      0x00\n        /* \"#utility.yul\":10295:10301   */\n      dup3\n        /* \"#utility.yul\":10290:10293   */\n      dup3\n        /* \"#utility.yul\":10283:10302   */\n      mstore\n        /* \"#utility.yul\":10335:10339   */\n      0x20\n        /* \"#utility.yul\":10330:10333   */\n      dup3\n        /* \"#utility.yul\":10326:10340   */\n      add\n        /* \"#utility.yul\":10311:10340   */\n      swap1\n      pop\n        /* \"#utility.yul\":10177:10346   */\n      swap3\n      swap2\n      pop\n      pop\n      jump\t// out\n        /* \"#utility.yul\":10352:10527   */\n    tag_713:\n        /* \"#utility.yul\":10492:10519   */\n      0x436f6e7472616374206e6f742079657420537461727465642e00000000000000\n        /* \"#utility.yul\":10488:10489   */\n      0x00\n        /* \"#utility.yul\":10480:10486   */\n      dup3\n        /* \"#utility.yul\":10476:10490   */\n      add\n        /* \"#utility.yul\":10469:10520   */\n      mstore\n        /* \"#utility.yul\":10352:10527   */\n      pop\n      jump\t// out\n        /* \"#utility.yul\":10533:10899   */\n    tag_714:\n        /* \"#utility.yul\":10675:10678   */\n      0x00\n        /* \"#utility.yul\":10696:10763   */\n      tag_845\n        /* \"#utility.yul\":10760:10762   */\n      0x19\n        /* \"#utility.yul\":10755:10758   */\n      dup4\n        /* \"#utility.yul\":10696:10763   */\n      tag_712\n      jump\t// in\n    tag_845:\n        /* \"#utility.yul\":10689:10763   */\n      swap2\n      pop\n        /* \"#utility.yul\":10772:10865   */\n      tag_846\n        /* \"#utility.yul\":10861:10864   */\n      dup3\n        /* \"#utility.yul\":10772:10865   */\n      tag_713\n      jump\t// in\n    tag_846:\n        /* \"#utility.yul\":10890:10892   */\n      0x20\n        /* \"#utility.yul\":10885:10888   */\n      dup3\n        /* \"#utility.yul\":10881:10893   */\n      add\n        /* \"#utility.yul\":10874:10893   */\n      swap1\n      pop\n        /* \"#utility.yul\":10533:10899   */\n      swap2\n      swap1\n      pop\n      jump\t// out\n        /* \"#utility.yul\":10905:11324   */\n    tag_406:\n        /* \"#utility.yul\":11071:11075   */\n      0x00\n        /* \"#utility.yul\":11109:11111   */\n      0x20\n        /* \"#utility.yul\":11098:11107   */\n      dup3\n        /* \"#utility.yul\":11094:11112   */\n      add\n        /* \"#utility.yul\":11086:11112   */\n      swap1\n      pop\n        /* \"#utility.yul\":11158:11167   */\n      dup2\n        /* \"#utility.yul\":11152:11156   */\n      dup2\n        /* \"#utility.yul\":11148:11168   */\n      sub\n        /* \"#utility.yul\":11144:11145   */\n      0x00\n        /* \"#utility.yul\":11133:11142   */\n      dup4\n        /* \"#utility.yul\":11129:11146   */\n      add\n        /* \"#utility.yul\":11122:11169   */\n      mstore\n        /* \"#utility.yul\":11186:11317   */\n      tag_848\n        /* \"#utility.yul\":11312:11316   */\n      dup2\n        /* \"#utility.yul\":11186:11317   */\n      tag_714\n      jump\t// in\n    tag_848:\n        /* \"#utility.yul\":11178:11317   */\n      swap1\n      pop\n        /* \"#utility.yul\":10905:11324   */\n      swap2\n      swap1\n      pop\n      jump\t// out\n        /* \"#utility.yul\":11330:11495   */\n    tag_715:\n        /* \"#utility.yul\":11470:11487   */\n      0x41646d696e20757365206f6e6c792e0000000000000000000000000000000000\n        /* \"#utility.yul\":11466:11467   */\n      0x00\n        /* \"#utility.yul\":11458:11464   */\n      dup3\n        /* \"#utility.yul\":11454:11468   */\n      add\n        /* \"#utility.yul\":11447:11488   */\n      mstore\n        /* \"#utility.yul\":11330:11495   */\n      pop\n      jump\t// out\n        /* \"#utility.yul\":11501:11867   */\n    tag_716:\n        /* \"#utility.yul\":11643:11646   */\n      0x00\n        /* \"#utility.yul\":11664:11731   */\n      tag_851\n        /* \"#utility.yul\":11728:11730   */\n      0x0f\n        /* \"#utility.yul\":11723:11726   */\n      dup4\n        /* \"#utility.yul\":11664:11731   */\n      tag_712\n      jump\t// in\n    tag_851:\n        /* \"#utility.yul\":11657:11731   */\n      swap2\n      pop\n        /* \"#utility.yul\":11740:11833   */\n      tag_852\n        /* \"#utility.yul\":11829:11832   */\n      dup3\n        /* \"#utility.yul\":11740:11833   */\n      tag_715\n      jump\t// in\n    tag_852:\n        /* \"#utility.yul\":11858:11860   */\n      0x20\n        /* \"#utility.yul\":11853:11856   */\n      dup3\n        /* \"#utility.yul\":11849:11861   */\n      add\n        /* \"#utility.yul\":11842:11861   */\n      swap1\n      pop\n        /* \"#utility.yul\":11501:11867   */\n      swap2\n      swap1\n      pop\n      jump\t// out\n        /* \"#utility.yul\":11873:12292   */\n    tag_429:\n        /* \"#utility.yul\":12039:12043   */\n      0x00\n        /* \"#utility.yul\":12077:12079   */\n      0x20\n        /* \"#utility.yul\":12066:12075   */\n      dup3\n        /* \"#utility.yul\":12062:12080   */\n      add\n        /* \"#utility.yul\":12054:12080   */\n      swap1\n      pop\n        /* \"#utility.yul\":12126:12135   */\n      dup2\n        /* \"#utility.yul\":12120:12124   */\n      dup2\n        /* \"#utility.yul\":12116:12136   */\n      sub\n        /* \"#utility.yul\":12112:12113   */\n      0x00\n        /* \"#utility.yul\":12101:12110   */\n      dup4\n        /* \"#utility.yul\":12097:12114   */\n      add\n        /* \"#utility.yul\":12090:12137   */\n      mstore\n        /* \"#utility.yul\":12154:12285   */\n      tag_854\n        /* \"#utility.yul\":12280:12284   */\n      dup2\n        /* \"#utility.yul\":12154:12285   */\n      tag_716\n      jump\t// in\n    tag_854:\n        /* \"#utility.yul\":12146:12285   */\n      swap1\n      pop\n        /* \"#utility.yul\":11873:12292   */\n      swap2\n      swap1\n      pop\n      jump\t// out\n        /* \"#utility.yul\":12298:12462   */\n    tag_717:\n        /* \"#utility.yul\":12438:12454   */\n      0x41646d696e20757365206f6e6c79000000000000000000000000000000000000\n        /* \"#utility.yul\":12434:12435   */\n      0x00\n        /* \"#utility.yul\":12426:12432   */\n      dup3\n        /* \"#utility.yul\":12422:12436   */\n      add\n        /* \"#utility.yul\":12415:12455   */\n      mstore\n        /* \"#utility.yul\":12298:12462   */\n      pop\n      jump\t// out\n        /* \"#utility.yul\":12468:12834   */\n    tag_718:\n        /* \"#utility.yul\":12610:12613   */\n      0x00\n        /* \"#utility.yul\":12631:12698   */\n      tag_857\n        /* \"#utility.yul\":12695:12697   */\n      0x0e\n        /* \"#utility.yul\":12690:12693   */\n      dup4\n        /* \"#utility.yul\":12631:12698   */\n      tag_712\n      jump\t// in\n    tag_857:\n        /* \"#utility.yul\":12624:12698   */\n      swap2\n      pop\n        /* \"#utility.yul\":12707:12800   */\n      tag_858\n        /* \"#utility.yul\":12796:12799   */\n      dup3\n        /* \"#utility.yul\":12707:12800   */\n      tag_717\n      jump\t// in\n    tag_858:\n        /* \"#utility.yul\":12825:12827   */\n      0x20\n        /* \"#utility.yul\":12820:12823   */\n      dup3\n        /* \"#utility.yul\":12816:12828   */\n      add\n        /* \"#utility.yul\":12809:12828   */\n      swap1\n      pop\n        /* \"#utility.yul\":12468:12834   */\n      swap2\n      swap1\n      pop\n      jump\t// out\n        /* \"#utility.yul\":12840:13259   */\n    tag_455:\n        /* \"#utility.yul\":13006:13010   */\n      0x00\n        /* \"#utility.yul\":13044:13046   */\n      0x20\n        /* \"#utility.yul\":13033:13042   */\n      dup3\n        /* \"#utility.yul\":13029:13047   */\n      add\n        /* \"#utility.yul\":13021:13047   */\n      swap1\n      pop\n        /* \"#utility.yul\":13093:13102   */\n      dup2\n        /* \"#utility.yul\":13087:13091   */\n      dup2\n        /* \"#utility.yul\":13083:13103   */\n      sub\n        /* \"#utility.yul\":13079:13080   */\n      0x00\n        /* \"#utility.yul\":13068:13077   */\n      dup4\n        /* \"#utility.yul\":13064:13081   */\n      add\n        /* \"#utility.yul\":13057:13104   */\n      mstore\n        /* \"#utility.yul\":13121:13252   */\n      tag_860\n        /* \"#utility.yul\":13247:13251   */\n      dup2\n        /* \"#utility.yul\":13121:13252   */\n      tag_718\n      jump\t// in\n    tag_860:\n        /* \"#utility.yul\":13113:13252   */\n      swap1\n      pop\n        /* \"#utility.yul\":12840:13259   */\n      swap2\n      swap1\n      pop\n      jump\t// out\n        /* \"#utility.yul\":13265:13445   */\n    tag_719:\n        /* \"#utility.yul\":13313:13390   */\n      0x4e487b7100000000000000000000000000000000000000000000000000000000\n        /* \"#utility.yul\":13310:13311   */\n      0x00\n        /* \"#utility.yul\":13303:13391   */\n      mstore\n        /* \"#utility.yul\":13410:13414   */\n      0x11\n        /* \"#utility.yul\":13407:13408   */\n      0x04\n        /* \"#utility.yul\":13400:13415   */\n      mstore\n        /* \"#utility.yul\":13434:13438   */\n      0x24\n        /* \"#utility.yul\":13431:13432   */\n      0x00\n        /* \"#utility.yul\":13424:13439   */\n      revert\n        /* \"#utility.yul\":13451:13799   */\n    tag_458:\n        /* \"#utility.yul\":13491:13498   */\n      0x00\n        /* \"#utility.yul\":13514:13534   */\n      tag_863\n        /* \"#utility.yul\":13532:13533   */\n      dup3\n        /* \"#utility.yul\":13514:13534   */\n      tag_690\n      jump\t// in\n    tag_863:\n        /* \"#utility.yul\":13509:13534   */\n      swap2\n      pop\n        /* \"#utility.yul\":13548:13568   */\n      tag_864\n        /* \"#utility.yul\":13566:13567   */\n      dup4\n        /* \"#utility.yul\":13548:13568   */\n      tag_690\n      jump\t// in\n    tag_864:\n        /* \"#utility.yul\":13543:13568   */\n      swap3\n      pop\n        /* \"#utility.yul\":13736:13737   */\n      dup2\n        /* \"#utility.yul\":13668:13734   */\n      0xffffffffffffffffffffffffffffffffffffffffffffffffffffffffffffffff\n        /* \"#utility.yul\":13664:13738   */\n      div\n        /* \"#utility.yul\":13661:13662   */\n      dup4\n        /* \"#utility.yul\":13658:13739   */\n      gt\n        /* \"#utility.yul\":13653:13654   */\n      dup3\n        /* \"#utility.yul\":13646:13655   */\n      iszero\n        /* \"#utility.yul\":13639:13656   */\n      iszero\n        /* \"#utility.yul\":13635:13740   */\n      and\n        /* \"#utility.yul\":13632:13763   */\n      iszero\n      tag_865\n      jumpi\n        /* \"#utility.yul\":13743:13761   */\n      tag_866\n      tag_719\n      jump\t// in\n    tag_866:\n        /* \"#utility.yul\":13632:13763   */\n    tag_865:\n        /* \"#utility.yul\":13791:13792   */\n      dup3\n        /* \"#utility.yul\":13788:13789   */\n      dup3\n        /* \"#utility.yul\":13784:13793   */\n      mul\n        /* \"#utility.yul\":13773:13793   */\n      swap1\n      pop\n        /* \"#utility.yul\":13451:13799   */\n      swap3\n      swap2\n      pop\n      pop\n      jump\t// out\n        /* \"#utility.yul\":13805:13982   */\n    tag_720:\n        /* \"#utility.yul\":13945:13974   */\n      0x4d696e696e756d20696e766573746d656e74206e6f74206d65742e0000000000\n        /* \"#utility.yul\":13941:13942   */\n      0x00\n        /* \"#utility.yul\":13933:13939   */\n      dup3\n        /* \"#utility.yul\":13929:13943   */\n      add\n        /* \"#utility.yul\":13922:13975   */\n      mstore\n        /* \"#utility.yul\":13805:13982   */\n      pop\n      jump\t// out\n        /* \"#utility.yul\":13988:14354   */\n    tag_721:\n        /* \"#utility.yul\":14130:14133   */\n      0x00\n        /* \"#utility.yul\":14151:14218   */\n      tag_869\n        /* \"#utility.yul\":14215:14217   */\n      0x1b\n        /* \"#utility.yul\":14210:14213   */\n      dup4\n        /* \"#utility.yul\":14151:14218   */\n      tag_712\n      jump\t// in\n    tag_869:\n        /* \"#utility.yul\":14144:14218   */\n      swap2\n      pop\n        /* \"#utility.yul\":14227:14320   */\n      tag_870\n        /* \"#utility.yul\":14316:14319   */\n      dup3\n        /* \"#utility.yul\":14227:14320   */\n      tag_720\n      jump\t// in\n    tag_870:\n        /* \"#utility.yul\":14345:14347   */\n      0x20\n        /* \"#utility.yul\":14340:14343   */\n      dup3\n        /* \"#utility.yul\":14336:14348   */\n      add\n        /* \"#utility.yul\":14329:14348   */\n      swap1\n      pop\n        /* \"#utility.yul\":13988:14354   */\n      swap2\n      swap1\n      pop\n      jump\t// out\n        /* \"#utility.yul\":14360:14779   */\n    tag_475:\n        /* \"#utility.yul\":14526:14530   */\n      0x00\n        /* \"#utility.yul\":14564:14566   */\n      0x20\n        /* \"#utility.yul\":14553:14562   */\n      dup3\n        /* \"#utility.yul\":14549:14567   */\n      add\n        /* \"#utility.yul\":14541:14567   */\n      swap1\n      pop\n        /* \"#utility.yul\":14613:14622   */\n      dup2\n        /* \"#utility.yul\":14607:14611   */\n      dup2\n        /* \"#utility.yul\":14603:14623   */\n      sub\n        /* \"#utility.yul\":14599:14600   */\n      0x00\n        /* \"#utility.yul\":14588:14597   */\n      dup4\n        /* \"#utility.yul\":14584:14601   */\n      add\n        /* \"#utility.yul\":14577:14624   */\n      mstore\n        /* \"#utility.yul\":14641:14772   */\n      tag_872\n        /* \"#utility.yul\":14767:14771   */\n      dup2\n        /* \"#utility.yul\":14641:14772   */\n      tag_721\n      jump\t// in\n    tag_872:\n        /* \"#utility.yul\":14633:14772   */\n      swap1\n      pop\n        /* \"#utility.yul\":14360:14779   */\n      swap2\n      swap1\n      pop\n      jump\t// out\n        /* \"#utility.yul\":14785:14961   */\n    tag_722:\n        /* \"#utility.yul\":14925:14953   */\n      0x4d6178206465706f736974206c696d697420726561636865642e000000000000\n        /* \"#utility.yul\":14921:14922   */\n      0x00\n        /* \"#utility.yul\":14913:14919   */\n      dup3\n        /* \"#utility.yul\":14909:14923   */\n      add\n        /* \"#utility.yul\":14902:14954   */\n      mstore\n        /* \"#utility.yul\":14785:14961   */\n      pop\n      jump\t// out\n        /* \"#utility.yul\":14967:15333   */\n    tag_723:\n        /* \"#utility.yul\":15109:15112   */\n      0x00\n        /* \"#utility.yul\":15130:15197   */\n      tag_875\n        /* \"#utility.yul\":15194:15196   */\n      0x1a\n        /* \"#utility.yul\":15189:15192   */\n      dup4\n        /* \"#utility.yul\":15130:15197   */\n      tag_712\n      jump\t// in\n    tag_875:\n        /* \"#utility.yul\":15123:15197   */\n      swap2\n      pop\n        /* \"#utility.yul\":15206:15299   */\n      tag_876\n        /* \"#utility.yul\":15295:15298   */\n      dup3\n        /* \"#utility.yul\":15206:15299   */\n      tag_722\n      jump\t// in\n    tag_876:\n        /* \"#utility.yul\":15324:15326   */\n      0x20\n        /* \"#utility.yul\":15319:15322   */\n      dup3\n        /* \"#utility.yul\":15315:15327   */\n      add\n        /* \"#utility.yul\":15308:15327   */\n      swap1\n      pop\n        /* \"#utility.yul\":14967:15333   */\n      swap2\n      swap1\n      pop\n      jump\t// out\n        /* \"#utility.yul\":15339:15758   */\n    tag_479:\n        /* \"#utility.yul\":15505:15509   */\n      0x00\n        /* \"#utility.yul\":15543:15545   */\n      0x20\n        /* \"#utility.yul\":15532:15541   */\n      dup3\n        /* \"#utility.yul\":15528:15546   */\n      add\n        /* \"#utility.yul\":15520:15546   */\n      swap1\n      pop\n        /* \"#utility.yul\":15592:15601   */\n      dup2\n        /* \"#utility.yul\":15586:15590   */\n      dup2\n        /* \"#utility.yul\":15582:15602   */\n      sub\n        /* \"#utility.yul\":15578:15579   */\n      0x00\n        /* \"#utility.yul\":15567:15576   */\n      dup4\n        /* \"#utility.yul\":15563:15580   */\n      add\n        /* \"#utility.yul\":15556:15603   */\n      mstore\n        /* \"#utility.yul\":15620:15751   */\n      tag_878\n        /* \"#utility.yul\":15746:15750   */\n      dup2\n        /* \"#utility.yul\":15620:15751   */\n      tag_723\n      jump\t// in\n    tag_878:\n        /* \"#utility.yul\":15612:15751   */\n      swap1\n      pop\n        /* \"#utility.yul\":15339:15758   */\n      swap2\n      swap1\n      pop\n      jump\t// out\n        /* \"#utility.yul\":15764:15937   */\n    tag_724:\n        /* \"#utility.yul\":15904:15929   */\n      0x4164647265737320697320626c61636b6c69737465642e000000000000000000\n        /* \"#utility.yul\":15900:15901   */\n      0x00\n        /* \"#utility.yul\":15892:15898   */\n      dup3\n        /* \"#utility.yul\":15888:15902   */\n      add\n        /* \"#utility.yul\":15881:15930   */\n      mstore\n        /* \"#utility.yul\":15764:15937   */\n      pop\n      jump\t// out\n        /* \"#utility.yul\":15943:16309   */\n    tag_725:\n        /* \"#utility.yul\":16085:16088   */\n      0x00\n        /* \"#utility.yul\":16106:16173   */\n      tag_881\n        /* \"#utility.yul\":16170:16172   */\n      0x17\n        /* \"#utility.yul\":16165:16168   */\n      dup4\n        /* \"#utility.yul\":16106:16173   */\n      tag_712\n      jump\t// in\n    tag_881:\n        /* \"#utility.yul\":16099:16173   */\n      swap2\n      pop\n        /* \"#utility.yul\":16182:16275   */\n      tag_882\n        /* \"#utility.yul\":16271:16274   */\n      dup3\n        /* \"#utility.yul\":16182:16275   */\n      tag_724\n      jump\t// in\n    tag_882:\n        /* \"#utility.yul\":16300:16302   */\n      0x20\n        /* \"#utility.yul\":16295:16298   */\n      dup3\n        /* \"#utility.yul\":16291:16303   */\n      add\n        /* \"#utility.yul\":16284:16303   */\n      swap1\n      pop\n        /* \"#utility.yul\":15943:16309   */\n      swap2\n      swap1\n      pop\n      jump\t// out\n        /* \"#utility.yul\":16315:16734   */\n    tag_510:\n        /* \"#utility.yul\":16481:16485   */\n      0x00\n        /* \"#utility.yul\":16519:16521   */\n      0x20\n        /* \"#utility.yul\":16508:16517   */\n      dup3\n        /* \"#utility.yul\":16504:16522   */\n      add\n        /* \"#utility.yul\":16496:16522   */\n      swap1\n      pop\n        /* \"#utility.yul\":16568:16577   */\n      dup2\n        /* \"#utility.yul\":16562:16566   */\n      dup2\n        /* \"#utility.yul\":16558:16578   */\n      sub\n        /* \"#utility.yul\":16554:16555   */\n      0x00\n        /* \"#utility.yul\":16543:16552   */\n      dup4\n        /* \"#utility.yul\":16539:16556   */\n      add\n        /* \"#utility.yul\":16532:16579   */\n      mstore\n        /* \"#utility.yul\":16596:16727   */\n      tag_884\n        /* \"#utility.yul\":16722:16726   */\n      dup2\n        /* \"#utility.yul\":16596:16727   */\n      tag_725\n      jump\t// in\n    tag_884:\n        /* \"#utility.yul\":16588:16727   */\n      swap1\n      pop\n        /* \"#utility.yul\":16315:16734   */\n      swap2\n      swap1\n      pop\n      jump\t// out\n        /* \"#utility.yul\":16740:16915   */\n    tag_726:\n        /* \"#utility.yul\":16880:16907   */\n      0x436f6e7472616374206e6f742079657420737461727465642e00000000000000\n        /* \"#utility.yul\":16876:16877   */\n      0x00\n        /* \"#utility.yul\":16868:16874   */\n      dup3\n        /* \"#utility.yul\":16864:16878   */\n      add\n        /* \"#utility.yul\":16857:16908   */\n      mstore\n        /* \"#utility.yul\":16740:16915   */\n      pop\n      jump\t// out\n        /* \"#utility.yul\":16921:17287   */\n    tag_727:\n        /* \"#utility.yul\":17063:17066   */\n      0x00\n        /* \"#utility.yul\":17084:17151   */\n      tag_887\n        /* \"#utility.yul\":17148:17150   */\n      0x19\n        /* \"#utility.yul\":17143:17146   */\n      dup4\n        /* \"#utility.yul\":17084:17151   */\n      tag_712\n      jump\t// in\n    tag_887:\n        /* \"#utility.yul\":17077:17151   */\n      swap2\n      pop\n        /* \"#utility.yul\":17160:17253   */\n      tag_888\n        /* \"#utility.yul\":17249:17252   */\n      dup3\n        /* \"#utility.yul\":17160:17253   */\n      tag_726\n      jump\t// in\n    tag_888:\n        /* \"#utility.yul\":17278:17280   */\n      0x20\n        /* \"#utility.yul\":17273:17276   */\n      dup3\n        /* \"#utility.yul\":17269:17281   */\n      add\n        /* \"#utility.yul\":17262:17281   */\n      swap1\n      pop\n        /* \"#utility.yul\":16921:17287   */\n      swap2\n      swap1\n      pop\n      jump\t// out\n        /* \"#utility.yul\":17293:17712   */\n    tag_609:\n        /* \"#utility.yul\":17459:17463   */\n      0x00\n        /* \"#utility.yul\":17497:17499   */\n      0x20\n        /* \"#utility.yul\":17486:17495   */\n      dup3\n        /* \"#utility.yul\":17482:17500   */\n      add\n        /* \"#utility.yul\":17474:17500   */\n      swap1\n      pop\n        /* \"#utility.yul\":17546:17555   */\n      dup2\n        /* \"#utility.yul\":17540:17544   */\n      dup2\n        /* \"#utility.yul\":17536:17556   */\n      sub\n        /* \"#utility.yul\":17532:17533   */\n      0x00\n        /* \"#utility.yul\":17521:17530   */\n      dup4\n        /* \"#utility.yul\":17517:17534   */\n      add\n        /* \"#utility.yul\":17510:17557   */\n      mstore\n        /* \"#utility.yul\":17574:17705   */\n      tag_890\n        /* \"#utility.yul\":17700:17704   */\n      dup2\n        /* \"#utility.yul\":17574:17705   */\n      tag_727\n      jump\t// in\n    tag_890:\n        /* \"#utility.yul\":17566:17705   */\n      swap1\n      pop\n        /* \"#utility.yul\":17293:17712   */\n      swap2\n      swap1\n      pop\n      jump\t// out\n        /* \"#utility.yul\":17718:17898   */\n    tag_627:\n        /* \"#utility.yul\":17766:17843   */\n      0x4e487b7100000000000000000000000000000000000000000000000000000000\n        /* \"#utility.yul\":17763:17764   */\n      0x00\n        /* \"#utility.yul\":17756:17844   */\n      mstore\n        /* \"#utility.yul\":17863:17867   */\n      0x32\n        /* \"#utility.yul\":17860:17861   */\n      0x04\n        /* \"#utility.yul\":17853:17868   */\n      mstore\n        /* \"#utility.yul\":17887:17891   */\n      0x24\n        /* \"#utility.yul\":17884:17885   */\n      0x00\n        /* \"#utility.yul\":17877:17892   */\n      revert\n        /* \"#utility.yul\":17904:18137   */\n    tag_630:\n        /* \"#utility.yul\":17943:17946   */\n      0x00\n        /* \"#utility.yul\":17966:17990   */\n      tag_893\n        /* \"#utility.yul\":17984:17989   */\n      dup3\n        /* \"#utility.yul\":17966:17990   */\n      tag_690\n      jump\t// in\n    tag_893:\n        /* \"#utility.yul\":17957:17990   */\n      swap2\n      pop\n        /* \"#utility.yul\":18012:18078   */\n      0xffffffffffffffffffffffffffffffffffffffffffffffffffffffffffffffff\n        /* \"#utility.yul\":18005:18010   */\n      dup3\n        /* \"#utility.yul\":18002:18079   */\n      eq\n        /* \"#utility.yul\":17999:18102   */\n      iszero\n      tag_894\n      jumpi\n        /* \"#utility.yul\":18082:18100   */\n      tag_895\n      tag_719\n      jump\t// in\n    tag_895:\n        /* \"#utility.yul\":17999:18102   */\n    tag_894:\n        /* \"#utility.yul\":18129:18130   */\n      0x01\n        /* \"#utility.yul\":18122:18127   */\n      dup3\n        /* \"#utility.yul\":18118:18131   */\n      add\n        /* \"#utility.yul\":18111:18131   */\n      swap1\n      pop\n        /* \"#utility.yul\":17904:18137   */\n      swap2\n      swap1\n      pop\n      jump\t// out\n        /* \"#utility.yul\":18143:18448   */\n    tag_633:\n        /* \"#utility.yul\":18183:18186   */\n      0x00\n        /* \"#utility.yul\":18202:18222   */\n      tag_897\n        /* \"#utility.yul\":18220:18221   */\n      dup3\n        /* \"#utility.yul\":18202:18222   */\n      tag_690\n      jump\t// in\n    tag_897:\n        /* \"#utility.yul\":18197:18222   */\n      swap2\n      pop\n        /* \"#utility.yul\":18236:18256   */\n      tag_898\n        /* \"#utility.yul\":18254:18255   */\n      dup4\n        /* \"#utility.yul\":18236:18256   */\n      tag_690\n      jump\t// in\n    tag_898:\n        /* \"#utility.yul\":18231:18256   */\n      swap3\n      pop\n        /* \"#utility.yul\":18390:18391   */\n      dup3\n        /* \"#utility.yul\":18322:18388   */\n      0xffffffffffffffffffffffffffffffffffffffffffffffffffffffffffffffff\n        /* \"#utility.yul\":18318:18392   */\n      sub\n        /* \"#utility.yul\":18315:18316   */\n      dup3\n        /* \"#utility.yul\":18312:18393   */\n      gt\n        /* \"#utility.yul\":18309:18416   */\n      iszero\n      tag_899\n      jumpi\n        /* \"#utility.yul\":18396:18414   */\n      tag_900\n      tag_719\n      jump\t// in\n    tag_900:\n        /* \"#utility.yul\":18309:18416   */\n    tag_899:\n        /* \"#utility.yul\":18440:18441   */\n      dup3\n        /* \"#utility.yul\":18437:18438   */\n      dup3\n        /* \"#utility.yul\":18433:18442   */\n      add\n        /* \"#utility.yul\":18426:18442   */\n      swap1\n      pop\n        /* \"#utility.yul\":18143:18448   */\n      swap3\n      swap2\n      pop\n      pop\n      jump\t// out\n        /* \"#utility.yul\":18454:18634   */\n    tag_636:\n        /* \"#utility.yul\":18502:18579   */\n      0x4e487b7100000000000000000000000000000000000000000000000000000000\n        /* \"#utility.yul\":18499:18500   */\n      0x00\n        /* \"#utility.yul\":18492:18580   */\n      mstore\n        /* \"#utility.yul\":18599:18603   */\n      0x01\n        /* \"#utility.yul\":18596:18597   */\n      0x04\n        /* \"#utility.yul\":18589:18604   */\n      mstore\n        /* \"#utility.yul\":18623:18627   */\n      0x24\n        /* \"#utility.yul\":18620:18621   */\n      0x00\n        /* \"#utility.yul\":18613:18628   */\n      revert\n        /* \"#utility.yul\":18640:18831   */\n    tag_641:\n        /* \"#utility.yul\":18680:18684   */\n      0x00\n        /* \"#utility.yul\":18700:18720   */\n      tag_903\n        /* \"#utility.yul\":18718:18719   */\n      dup3\n        /* \"#utility.yul\":18700:18720   */\n      tag_690\n      jump\t// in\n    tag_903:\n        /* \"#utility.yul\":18695:18720   */\n      swap2\n      pop\n        /* \"#utility.yul\":18734:18754   */\n      tag_904\n        /* \"#utility.yul\":18752:18753   */\n      dup4\n        /* \"#utility.yul\":18734:18754   */\n      tag_690\n      jump\t// in\n    tag_904:\n        /* \"#utility.yul\":18729:18754   */\n      swap3\n      pop\n        /* \"#utility.yul\":18773:18774   */\n      dup3\n        /* \"#utility.yul\":18770:18771   */\n      dup3\n        /* \"#utility.yul\":18767:18775   */\n      lt\n        /* \"#utility.yul\":18764:18798   */\n      iszero\n      tag_905\n      jumpi\n        /* \"#utility.yul\":18778:18796   */\n      tag_906\n      tag_719\n      jump\t// in\n    tag_906:\n        /* \"#utility.yul\":18764:18798   */\n    tag_905:\n        /* \"#utility.yul\":18823:18824   */\n      dup3\n        /* \"#utility.yul\":18820:18821   */\n      dup3\n        /* \"#utility.yul\":18816:18825   */\n      sub\n        /* \"#utility.yul\":18808:18825   */\n      swap1\n      pop\n        /* \"#utility.yul\":18640:18831   */\n      swap3\n      swap2\n      pop\n      pop\n      jump\t// out\n        /* \"#utility.yul\":18837:19017   */\n    tag_728:\n        /* \"#utility.yul\":18885:18962   */\n      0x4e487b7100000000000000000000000000000000000000000000000000000000\n        /* \"#utility.yul\":18882:18883   */\n      0x00\n        /* \"#utility.yul\":18875:18963   */\n      mstore\n        /* \"#utility.yul\":18982:18986   */\n      0x12\n        /* \"#utility.yul\":18979:18980   */\n      0x04\n        /* \"#utility.yul\":18972:18987   */\n      mstore\n        /* \"#utility.yul\":19006:19010   */\n      0x24\n        /* \"#utility.yul\":19003:19004   */\n      0x00\n        /* \"#utility.yul\":18996:19011   */\n      revert\n        /* \"#utility.yul\":19023:19208   */\n    tag_644:\n        /* \"#utility.yul\":19063:19064   */\n      0x00\n        /* \"#utility.yul\":19080:19100   */\n      tag_909\n        /* \"#utility.yul\":19098:19099   */\n      dup3\n        /* \"#utility.yul\":19080:19100   */\n      tag_690\n      jump\t// in\n    tag_909:\n        /* \"#utility.yul\":19075:19100   */\n      swap2\n      pop\n        /* \"#utility.yul\":19114:19134   */\n      tag_910\n        /* \"#utility.yul\":19132:19133   */\n      dup4\n        /* \"#utility.yul\":19114:19134   */\n      tag_690\n      jump\t// in\n    tag_910:\n        /* \"#utility.yul\":19109:19134   */\n      swap3\n      pop\n        /* \"#utility.yul\":19153:19154   */\n      dup3\n        /* \"#utility.yul\":19143:19178   */\n      tag_911\n      jumpi\n        /* \"#utility.yul\":19158:19176   */\n      tag_912\n      tag_728\n      jump\t// in\n    tag_912:\n        /* \"#utility.yul\":19143:19178   */\n    tag_911:\n        /* \"#utility.yul\":19200:19201   */\n      dup3\n        /* \"#utility.yul\":19197:19198   */\n      dup3\n        /* \"#utility.yul\":19193:19202   */\n      div\n        /* \"#utility.yul\":19188:19202   */\n      swap1\n      pop\n        /* \"#utility.yul\":19023:19208   */\n      swap3\n      swap2\n      pop\n      pop\n      jump\t// out\n        /* \"#utility.yul\":19214:19394   */\n    tag_654:\n        /* \"#utility.yul\":19262:19339   */\n      0x4e487b7100000000000000000000000000000000000000000000000000000000\n        /* \"#utility.yul\":19259:19260   */\n      0x00\n        /* \"#utility.yul\":19252:19340   */\n      mstore\n        /* \"#utility.yul\":19359:19363   */\n      0x41\n        /* \"#utility.yul\":19356:19357   */\n      0x04\n        /* \"#utility.yul\":19349:19364   */\n      mstore\n        /* \"#utility.yul\":19383:19387   */\n      0x24\n        /* \"#utility.yul\":19380:19381   */\n      0x00\n        /* \"#utility.yul\":19373:19388   */\n      revert\n\n    auxdata: 0xa2646970667358221220e6af79dc24bb6a79352ecbf1e3eeaceb6df04f020c111621e00657c6975c994064736f6c63430008090033\n}\n",
				"bytecode": {
					"linkReferences": {},
					"object": "60806040526215f90060005560466001556103e86002556009600355600c6004556002600555666a94d74f43000060065568015af1d78b58c400006007556014600855600a60095561a8c0600a5561015e600b55600a600c556127106013556113886014556001601560016101000a81548160ff0219169083151502179055506202a3006018556138406019553480156200009957600080fd5b506040516200477a3803806200477a8339818101604052810190620000bf9190620003b2565b620000d0866200033560201b60201c565b158015620000ec5750620000ea856200033560201b60201c565b155b801562000107575062000105846200033560201b60201c565b155b801562000122575062000120836200033560201b60201c565b155b80156200013d57506200013b826200033560201b60201c565b155b801562000158575062000156816200033560201b60201c565b155b6200016257600080fd5b33601a60006101000a81548173ffffffffffffffffffffffffffffffffffffffff021916908373ffffffffffffffffffffffffffffffffffffffff16021790555085601b60006101000a81548173ffffffffffffffffffffffffffffffffffffffff021916908373ffffffffffffffffffffffffffffffffffffffff16021790555084601c60006101000a81548173ffffffffffffffffffffffffffffffffffffffff021916908373ffffffffffffffffffffffffffffffffffffffff16021790555083601d60006101000a81548173ffffffffffffffffffffffffffffffffffffffff021916908373ffffffffffffffffffffffffffffffffffffffff16021790555082601e60006101000a81548173ffffffffffffffffffffffffffffffffffffffff021916908373ffffffffffffffffffffffffffffffffffffffff16021790555081601f60006101000a81548173ffffffffffffffffffffffffffffffffffffffff021916908373ffffffffffffffffffffffffffffffffffffffff16021790555080602060006101000a81548173ffffffffffffffffffffffffffffffffffffffff021916908373ffffffffffffffffffffffffffffffffffffffff1602179055505050505050506200044e565b600080823b905060008111915050919050565b600080fd5b600073ffffffffffffffffffffffffffffffffffffffff82169050919050565b60006200037a826200034d565b9050919050565b6200038c816200036d565b81146200039857600080fd5b50565b600081519050620003ac8162000381565b92915050565b60008060008060008060c08789031215620003d257620003d162000348565b5b6000620003e289828a016200039b565b9650506020620003f589828a016200039b565b95505060406200040889828a016200039b565b94505060606200041b89828a016200039b565b93505060806200042e89828a016200039b565b92505060a06200044189828a016200039b565b9150509295509295509295565b61431c806200045e6000396000f3fe60806040526004361061041b5760003560e01c80637cc5b1e61161021e578063bd097e2111610123578063d7c8843b116100ab578063e6dc95581161007a578063e6dc955814610ff2578063e75769431461101b578063eb27126814611044578063f6f628861461106d578063ffa4e618146110985761041b565b8063d7c8843b14610f45578063d989b4b314610f82578063da235b2214610fab578063da5d4cc514610fd65761041b565b8063c63568c7116100f2578063c63568c714610e5c578063c688f0fb14610e87578063cc3e9c7814610eb2578063cd329fc314610eef578063d7206d5d14610f1a5761041b565b8063bd097e2114610dae578063bdd1ca2714610db8578063bfa9f30414610df6578063c3251b4014610e1f5761041b565b80638e316327116101a65780639e9300a5116101755780639e9300a514610caa578063a327c45d14610cd3578063a87430ba14610cfe578063ac4b3c0414610d46578063b6e6fcf614610d835761041b565b80638e31632714610bf0578063950d91e914610c2d578063959c95b314610c585780639b9cb69f14610c815761041b565b80637ee28e3c116101ed5780637ee28e3c14610b1b5780638013f3a714610b44578063817b1cd214610b6f5780638a315efd14610b9a5780638da5cb5b14610bc55761041b565b80637cc5b1e614610a5d5780637d88209714610a885780637db07c9d14610ab35780637e56fde514610ade5761041b565b806343ce74221161032457806359eec895116102ac57806369b11dd51161027b57806369b11dd51461098c5780636f969d28146109b7578063752a2628146109e05780637a62ead714610a0b5780637c8e4b4c14610a345761041b565b806359eec895146108b15780636386c1c7146108dc57806364c03a5e1461092457806368f58b03146109615761041b565b80634ce87053116102f35780634ce87053146107ea57806350637dbd1461081857806350cf1c7a14610855578063570c297914610871578063573862251461089a5761041b565b806343ce74221461074257806345a6a6e01461076d57806345f98c29146107965780634b319713146107bf5761041b565b8063229824c4116103a75780632b039d0e116103765780632b039d0e1461066d5780632bc82f7f146106965780632e9392bb146106c1578063333f57b3146106ec5780633578584f146107175761041b565b8063229824c41461059f5780632362ce89146105dc57806326fd842214610607578063298ea310146106445761041b565b806312065fe0116103ee57806312065fe0146104cc5780631848b8dc146104f757806318c819d814610522578063195a73391461054b5780631a7b8d4f146105765761041b565b806301c234a8146104205780630420c98e1461044b57806307aeb7f0146104765780630a76e5ed146104a1575b600080fd5b34801561042c57600080fd5b506104356110d5565b604051610442919061389a565b60405180910390f35b34801561045757600080fd5b506104606110db565b60405161046d919061389a565b60405180910390f35b34801561048257600080fd5b5061048b6110e1565b60405161049891906138f6565b60405180910390f35b3480156104ad57600080fd5b506104b6611107565b6040516104c3919061389a565b60405180910390f35b3480156104d857600080fd5b506104e1611151565b6040516104ee919061389a565b60405180910390f35b34801561050357600080fd5b5061050c611159565b604051610519919061389a565b60405180910390f35b34801561052e57600080fd5b5061054960048036038101906105449190613953565b61115f565b005b34801561055757600080fd5b5061056061135f565b60405161056d919061389a565b60405180910390f35b34801561058257600080fd5b5061059d600480360381019061059891906139ac565b611365565b005b3480156105ab57600080fd5b506105c660048036038101906105c191906139d9565b61140d565b6040516105d3919061389a565b60405180910390f35b3480156105e857600080fd5b506105f1611460565b6040516105fe91906138f6565b60405180910390f35b34801561061357600080fd5b5061062e60048036038101906106299190613a2c565b611486565b60405161063b919061389a565b60405180910390f35b34801561065057600080fd5b5061066b600480360381019061066691906139ac565b61149d565b005b34801561067957600080fd5b50610694600480360381019061068f9190613aaa565b611545565b005b3480156106a257600080fd5b506106ab611619565b6040516106b8919061389a565b60405180910390f35b3480156106cd57600080fd5b506106d661161f565b6040516106e3919061389a565b60405180910390f35b3480156106f857600080fd5b50610701611625565b60405161070e9190613ae6565b60405180910390f35b34801561072357600080fd5b5061072c611638565b604051610739919061389a565b60405180910390f35b34801561074e57600080fd5b5061075761163e565b604051610764919061389a565b60405180910390f35b34801561077957600080fd5b50610794600480360381019061078f91906139ac565b6116a2565b005b3480156107a257600080fd5b506107bd60048036038101906107b891906139ac565b611761565b005b3480156107cb57600080fd5b506107d46117fb565b6040516107e1919061389a565b60405180910390f35b3480156107f657600080fd5b506107ff611801565b60405161080f9493929190613b01565b60405180910390f35b34801561082457600080fd5b5061083f600480360381019061083a9190613b46565b611821565b60405161084c919061389a565b60405180910390f35b61086f600480360381019061086a9190613aaa565b611908565b005b34801561087d57600080fd5b50610898600480360381019061089391906139ac565b611d4c565b005b3480156108a657600080fd5b506108af611e01565b005b3480156108bd57600080fd5b506108c66120bf565b6040516108d3919061389a565b60405180910390f35b3480156108e857600080fd5b5061090360048036038101906108fe9190613aaa565b6120c5565b60405161091b9c9b9a99989796959493929190613b95565b60405180910390f35b34801561093057600080fd5b5061094b60048036038101906109469190613aaa565b612442565b604051610958919061389a565b60405180910390f35b34801561096d57600080fd5b506109766124b5565b604051610983919061389a565b60405180910390f35b34801561099857600080fd5b506109a16124bb565b6040516109ae919061389a565b60405180910390f35b3480156109c357600080fd5b506109de60048036038101906109d991906139ac565b6124c1565b005b3480156109ec57600080fd5b506109f5612577565b604051610a02919061389a565b60405180910390f35b348015610a1757600080fd5b50610a326004803603810190610a2d91906139ac565b61257d565b005b348015610a4057600080fd5b50610a5b6004803603810190610a5691906139ac565b612625565b005b348015610a6957600080fd5b50610a726126d6565b604051610a7f91906138f6565b60405180910390f35b348015610a9457600080fd5b50610a9d6126fc565b604051610aaa919061389a565b60405180910390f35b348015610abf57600080fd5b50610ac8612702565b604051610ad5919061389a565b60405180910390f35b348015610aea57600080fd5b50610b056004803603810190610b0091906139ac565b612708565b604051610b12919061389a565b60405180910390f35b348015610b2757600080fd5b50610b426004803603810190610b3d91906139ac565b612722565b005b348015610b5057600080fd5b50610b596127dd565b604051610b6691906138f6565b60405180910390f35b348015610b7b57600080fd5b50610b84612803565b604051610b91919061389a565b60405180910390f35b348015610ba657600080fd5b50610baf612809565b604051610bbc91906138f6565b60405180910390f35b348015610bd157600080fd5b50610bda61282f565b604051610be79190613c4f565b60405180910390f35b348015610bfc57600080fd5b50610c176004803603810190610c1291906139ac565b612855565b604051610c24919061389a565b60405180910390f35b348015610c3957600080fd5b50610c42612872565b604051610c4f919061389a565b60405180910390f35b348015610c6457600080fd5b50610c7f6004803603810190610c7a91906139ac565b612878565b005b348015610c8d57600080fd5b50610ca86004803603810190610ca391906139ac565b612937565b005b348015610cb657600080fd5b50610cd16004803603810190610ccc9190613953565b6129df565b005b348015610cdf57600080fd5b50610ce8612a8c565b604051610cf591906138f6565b60405180910390f35b348015610d0a57600080fd5b50610d256004803603810190610d209190613aaa565b612ab2565b604051610d3d9c9b9a99989796959493929190613b95565b60405180910390f35b348015610d5257600080fd5b50610d6d6004803603810190610d689190613aaa565b612b32565b604051610d7a919061389a565b60405180910390f35b348015610d8f57600080fd5b50610d98612b4a565b604051610da59190613ae6565b60405180910390f35b610db6612b5d565b005b348015610dc457600080fd5b50610ddf6004803603810190610dda91906139ac565b612b5f565b604051610ded929190613c6a565b60405180910390f35b348015610e0257600080fd5b50610e1d6004803603810190610e1891906139ac565b612bf1565b005b348015610e2b57600080fd5b50610e466004803603810190610e419190613aaa565b612c9a565b604051610e539190613ae6565b60405180910390f35b348015610e6857600080fd5b50610e71612d80565b604051610e7e919061389a565b60405180910390f35b348015610e9357600080fd5b50610e9c612d86565b604051610ea9919061389a565b60405180910390f35b348015610ebe57600080fd5b50610ed96004803603810190610ed49190613a2c565b612d8c565b604051610ee6919061389a565b60405180910390f35b348015610efb57600080fd5b50610f04612dbc565b604051610f11919061389a565b60405180910390f35b348015610f2657600080fd5b50610f2f612dc2565b604051610f3c919061389a565b60405180910390f35b348015610f5157600080fd5b50610f6c6004803603810190610f679190613aaa565b612dc8565b604051610f79919061389a565b60405180910390f35b348015610f8e57600080fd5b50610fa96004803603810190610fa49190613c93565b612ea1565b005b348015610fb757600080fd5b50610fc0612f8c565b604051610fcd919061389a565b60405180910390f35b610ff06004803603810190610feb9190613aaa565b612f94565b005b348015610ffe57600080fd5b50611019600480360381019061101491906139ac565b613081565b005b34801561102757600080fd5b50611042600480360381019061103d91906139ac565b61313a565b005b34801561105057600080fd5b5061106b60048036038101906110669190613d38565b6131e2565b005b34801561107957600080fd5b50611082613317565b60405161108f919061389a565b60405180910390f35b3480156110a457600080fd5b506110bf60048036038101906110ba9190613aaa565b61331d565b6040516110cc9190613ae6565b60405180910390f35b60025481565b600b5481565b601e60009054906101000a900473ffffffffffffffffffffffffffffffffffffffff1681565b6000602160003373ffffffffffffffffffffffffffffffffffffffff1673ffffffffffffffffffffffffffffffffffffffff16815260200190815260200160002060020154905090565b600047905090565b60075481565b6000602160003373ffffffffffffffffffffffffffffffffffffffff1673ffffffffffffffffffffffffffffffffffffffff1681526020019081526020016000209050601560009054906101000a900460ff166111f1576040517f08c379a00000000000000000000000000000000000000000000000000000000081526004016111e890613df5565b60405180910390fd5b60006111fb61163e565b9050600081905083156112755760006112143383611821565b9050611229818361333d90919063ffffffff16565b9150600061123683612855565b905061124f81866001015461333d90919063ffffffff16565b856001018190555061126c81600f5461333d90919063ffffffff16565b600f8190555050505b600a5461128f84600401544261336990919063ffffffff16565b106112e457600954836009015410156112c3576112ba6001846009015461333d90919063ffffffff16565b83600901819055505b6112db600184600a015461333d90919063ffffffff16565b83600a01819055505b61130f6112fc6000548361339090919063ffffffff16565b846002015461333d90919063ffffffff16565b8360020181905550600083600301819055504283600401819055506113536113426005548461339090919063ffffffff16565b60125461333d90919063ffffffff16565b60128190555050505050565b60005481565b601a60009054906101000a900473ffffffffffffffffffffffffffffffffffffffff1673ffffffffffffffffffffffffffffffffffffffff163373ffffffffffffffffffffffffffffffffffffffff16146113f5576040517f08c379a00000000000000000000000000000000000000000000000000000000081526004016113ec90613e61565b60405180910390fd5b601481111561140357600080fd5b8060048190555050565b600061145761141e601354846133ab565b61145260145461144d6114476114366013548a6133ab565b6114426014548c6133ab565b61333d565b89613390565b61333d565b613390565b90509392505050565b601d60009054906101000a900473ffffffffffffffffffffffffffffffffffffffff1681565b6000611495838360125461140d565b905092915050565b601a60009054906101000a900473ffffffffffffffffffffffffffffffffffffffff1673ffffffffffffffffffffffffffffffffffffffff163373ffffffffffffffffffffffffffffffffffffffff161461152d576040517f08c379a000000000000000000000000000000000000000000000000000000000815260040161152490613e61565b60405180910390fd5b600f81111561153b57600080fd5b8060038190555050565b601a60009054906101000a900473ffffffffffffffffffffffffffffffffffffffff1673ffffffffffffffffffffffffffffffffffffffff163373ffffffffffffffffffffffffffffffffffffffff16146115d5576040517f08c379a00000000000000000000000000000000000000000000000000000000081526004016115cc90613e61565b60405180910390fd5b80601a60006101000a81548173ffffffffffffffffffffffffffffffffffffffff021916908373ffffffffffffffffffffffffffffffffffffffff16021790555050565b60045481565b60125481565b601560009054906101000a900460ff1681565b60185481565b600061169d61164c33612dc8565b602160003373ffffffffffffffffffffffffffffffffffffffff1673ffffffffffffffffffffffffffffffffffffffff1681526020019081526020016000206003015461333d90919063ffffffff16565b905090565b601a60009054906101000a900473ffffffffffffffffffffffffffffffffffffffff1673ffffffffffffffffffffffffffffffffffffffff163373ffffffffffffffffffffffffffffffffffffffff1614611732576040517f08c379a000000000000000000000000000000000000000000000000000000000815260040161172990613ecd565b60405180910390fd5b601881111561174057600080fd5b603c808261174e9190613f1c565b6117589190613f1c565b60198190555050565b601a60009054906101000a900473ffffffffffffffffffffffffffffffffffffffff1673ffffffffffffffffffffffffffffffffffffffff163373ffffffffffffffffffffffffffffffffffffffff16146117f1576040517f08c379a00000000000000000000000000000000000000000000000000000000081526004016117e890613ecd565b60405180910390fd5b8060068190555050565b60115481565b600080600080600d54600e54600f54601054935093509350935090919293565b600080602160008573ffffffffffffffffffffffffffffffffffffffff1673ffffffffffffffffffffffffffffffffffffffff1681526020019081526020016000206009015414156118765760009050611902565b60006118cf600854602160008773ffffffffffffffffffffffffffffffffffffffff1673ffffffffffffffffffffffffffffffffffffffff168152602001908152602001600020600901546133ab90919063ffffffff16565b905060006118fa6002546118ec84876133ab90919063ffffffff16565b61339090919063ffffffff16565b905080925050505b92915050565b601560009054906101000a900460ff16611957576040517f08c379a000000000000000000000000000000000000000000000000000000000815260040161194e90613df5565b60405180910390fd5b6000602160003373ffffffffffffffffffffffffffffffffffffffff1673ffffffffffffffffffffffffffffffffffffffff16815260200190815260200160002090506006543410156119df576040517f08c379a00000000000000000000000000000000000000000000000000000000081526004016119d690613fc2565b60405180910390fd5b6007546119f934836000015461333d90919063ffffffff16565b1115611a3a576040517f08c379a0000000000000000000000000000000000000000000000000000000008152600401611a319061402e565b60405180910390fd5b6000611a5834611a53344761336990919063ffffffff16565b611486565b9050611a7134836001015461333d90919063ffffffff16565b8260010181905550611a9034836000015461333d90919063ffffffff16565b8260000181905550611aaf81836003015461333d90919063ffffffff16565b8260030181905550600073ffffffffffffffffffffffffffffffffffffffff168260050160009054906101000a900473ffffffffffffffffffffffffffffffffffffffff1673ffffffffffffffffffffffffffffffffffffffff161415611c83573373ffffffffffffffffffffffffffffffffffffffff168373ffffffffffffffffffffffffffffffffffffffff1614611b8757828260050160006101000a81548173ffffffffffffffffffffffffffffffffffffffff021916908373ffffffffffffffffffffffffffffffffffffffff1602179055505b60008260050160009054906101000a900473ffffffffffffffffffffffffffffffffffffffff169050600073ffffffffffffffffffffffffffffffffffffffff168173ffffffffffffffffffffffffffffffffffffffff1614611c8157611c3a6001602160008473ffffffffffffffffffffffffffffffffffffffff1673ffffffffffffffffffffffffffffffffffffffff1681526020019081526020016000206006015461333d90919063ffffffff16565b602160008373ffffffffffffffffffffffffffffffffffffffff1673ffffffffffffffffffffffffffffffffffffffff168152602001908152602001600020600601819055505b505b600073ffffffffffffffffffffffffffffffffffffffff168260050160009054906101000a900473ffffffffffffffffffffffffffffffffffffffff1673ffffffffffffffffffffffffffffffffffffffff1614611ce657611ce533346133f4565b5b6000611cf13461370c565b9050611d1a611d09823461336990919063ffffffff16565b600d5461333d90919063ffffffff16565b600d81905550611d366001600e5461333d90919063ffffffff16565b600e81905550611d46600061115f565b50505050565b601a60009054906101000a900473ffffffffffffffffffffffffffffffffffffffff1673ffffffffffffffffffffffffffffffffffffffff163373ffffffffffffffffffffffffffffffffffffffff1614611ddc576040517f08c379a0000000000000000000000000000000000000000000000000000000008152600401611dd390613e61565b60405180910390fd5b600a8110158015611dee575060648111155b611df757600080fd5b8060018190555050565b601560009054906101000a900460ff16611e50576040517f08c379a0000000000000000000000000000000000000000000000000000000008152600401611e4790613df5565b60405180910390fd5b601560019054906101000a900460ff1615611ef357601660003373ffffffffffffffffffffffffffffffffffffffff1673ffffffffffffffffffffffffffffffffffffffff16815260200190815260200160002060009054906101000a900460ff1615611ef2576040517f08c379a0000000000000000000000000000000000000000000000000000000008152600401611ee99061409a565b60405180910390fd5b5b6000602160003373ffffffffffffffffffffffffffffffffffffffff1673ffffffffffffffffffffffffffffffffffffffff16815260200190815260200160002090506000611f4061163e565b90506000611f4d82612855565b9050600c5483600901541015611f9f57611f98611f89600254611f7b600b54856133ab90919063ffffffff16565b61339090919063ffffffff16565b8261336990919063ffffffff16565b9050611fb4565b60008360090181905550600083600a01819055505b4283600b018190555060008360030181905550428360040181905550611ff9611fe86005548461339090919063ffffffff16565b60125461333d90919063ffffffff16565b60128190555080612008611151565b101561201957612016611151565b90505b60006120366120278361370c565b8361336990919063ffffffff16565b90503373ffffffffffffffffffffffffffffffffffffffff166108fc829081150290604051600060405180830381858888f1935050505015801561207e573d6000803e3d6000fd5b5061209681856008015461333d90919063ffffffff16565b84600801819055506120b38160115461333d90919063ffffffff16565b60118190555050505050565b60055481565b600080600080600080600080600080600080602160008e73ffffffffffffffffffffffffffffffffffffffff1673ffffffffffffffffffffffffffffffffffffffff168152602001908152602001600020600001549b50602160008e73ffffffffffffffffffffffffffffffffffffffff1673ffffffffffffffffffffffffffffffffffffffff168152602001908152602001600020600101549a50602160008e73ffffffffffffffffffffffffffffffffffffffff1673ffffffffffffffffffffffffffffffffffffffff168152602001908152602001600020600201549950602160008e73ffffffffffffffffffffffffffffffffffffffff1673ffffffffffffffffffffffffffffffffffffffff168152602001908152602001600020600301549850602160008e73ffffffffffffffffffffffffffffffffffffffff1673ffffffffffffffffffffffffffffffffffffffff168152602001908152602001600020600401549750602160008e73ffffffffffffffffffffffffffffffffffffffff1673ffffffffffffffffffffffffffffffffffffffff16815260200190815260200160002060050160009054906101000a900473ffffffffffffffffffffffffffffffffffffffff169650602160008e73ffffffffffffffffffffffffffffffffffffffff1673ffffffffffffffffffffffffffffffffffffffff168152602001908152602001600020600601549550602160008e73ffffffffffffffffffffffffffffffffffffffff1673ffffffffffffffffffffffffffffffffffffffff168152602001908152602001600020600801549450602160008e73ffffffffffffffffffffffffffffffffffffffff1673ffffffffffffffffffffffffffffffffffffffff168152602001908152602001600020600701549350602160008e73ffffffffffffffffffffffffffffffffffffffff1673ffffffffffffffffffffffffffffffffffffffff168152602001908152602001600020600901549250602160008e73ffffffffffffffffffffffffffffffffffffffff1673ffffffffffffffffffffffffffffffffffffffff168152602001908152602001600020600a01549150602160008e73ffffffffffffffffffffffffffffffffffffffff1673ffffffffffffffffffffffffffffffffffffffff168152602001908152602001600020600b0154905091939597999b5091939597999b565b6000806124a261245184612dc8565b602160008673ffffffffffffffffffffffffffffffffffffffff1673ffffffffffffffffffffffffffffffffffffffff1681526020019081526020016000206003015461333d90919063ffffffff16565b90506124ad81612855565b915050919050565b60035481565b60105481565b601a60009054906101000a900473ffffffffffffffffffffffffffffffffffffffff1673ffffffffffffffffffffffffffffffffffffffff163373ffffffffffffffffffffffffffffffffffffffff1614612551576040517f08c379a000000000000000000000000000000000000000000000000000000000815260040161254890613e61565b60405180910390fd5b600a811015801561256457506103848111155b61256d57600080fd5b8060088190555050565b600a5481565b601a60009054906101000a900473ffffffffffffffffffffffffffffffffffffffff1673ffffffffffffffffffffffffffffffffffffffff163373ffffffffffffffffffffffffffffffffffffffff161461260d576040517f08c379a000000000000000000000000000000000000000000000000000000000815260040161260490613e61565b60405180910390fd5b603281111561261b57600080fd5b8060058190555050565b601a60009054906101000a900473ffffffffffffffffffffffffffffffffffffffff1673ffffffffffffffffffffffffffffffffffffffff163373ffffffffffffffffffffffffffffffffffffffff16146126b5576040517f08c379a00000000000000000000000000000000000000000000000000000000081526004016126ac90613ecd565b60405180910390fd5b603c80826126c39190613f1c565b6126cd9190613f1c565b60188190555050565b602060009054906101000a900473ffffffffffffffffffffffffffffffffffffffff1681565b600e5481565b600f5481565b600061271b82612716611151565b611486565b9050919050565b601a60009054906101000a900473ffffffffffffffffffffffffffffffffffffffff1673ffffffffffffffffffffffffffffffffffffffff163373ffffffffffffffffffffffffffffffffffffffff16146127b2576040517f08c379a00000000000000000000000000000000000000000000000000000000081526004016127a990613ecd565b60405180910390fd5b600a8110156127c057600080fd5b670de0b6b3a7640000816127d49190613f1c565b60078190555050565b601c60009054906101000a900473ffffffffffffffffffffffffffffffffffffffff1681565b600d5481565b601f60009054906101000a900473ffffffffffffffffffffffffffffffffffffffff1681565b601a60009054906101000a900473ffffffffffffffffffffffffffffffffffffffff1681565b600061286b82601254612866611151565b61140d565b9050919050565b60195481565b601a60009054906101000a900473ffffffffffffffffffffffffffffffffffffffff1673ffffffffffffffffffffffffffffffffffffffff163373ffffffffffffffffffffffffffffffffffffffff1614612908576040517f08c379a00000000000000000000000000000000000000000000000000000000081526004016128ff90613e61565b60405180910390fd5b601881111561291657600080fd5b603c80826129249190613f1c565b61292e9190613f1c565b600a8190555050565b601a60009054906101000a900473ffffffffffffffffffffffffffffffffffffffff1673ffffffffffffffffffffffffffffffffffffffff163373ffffffffffffffffffffffffffffffffffffffff16146129c7576040517f08c379a00000000000000000000000000000000000000000000000000000000081526004016129be90613e61565b60405180910390fd5b601e8111156129d557600080fd5b8060098190555050565b601a60009054906101000a900473ffffffffffffffffffffffffffffffffffffffff1673ffffffffffffffffffffffffffffffffffffffff163373ffffffffffffffffffffffffffffffffffffffff1614612a6f576040517f08c379a0000000000000000000000000000000000000000000000000000000008152600401612a6690613e61565b60405180910390fd5b80601560016101000a81548160ff02191690831515021790555050565b601b60009054906101000a900473ffffffffffffffffffffffffffffffffffffffff1681565b60216020528060005260406000206000915090508060000154908060010154908060020154908060030154908060040154908060050160009054906101000a900473ffffffffffffffffffffffffffffffffffffffff169080600601549080600701549080600801549080600901549080600a01549080600b015490508c565b60176020528060005260406000206000915090505481565b601560019054906101000a900460ff1681565b565b6000806000612b9984612b9486612b8688612b78611151565b61333d90919063ffffffff16565b61336990919063ffffffff16565b611486565b90506000612bb26000548361339090919063ffffffff16565b905060006201518090506000612bd183836133ab90919063ffffffff16565b90506000612bdf8289612d8c565b90508381965096505050505050915091565b601a60009054906101000a900473ffffffffffffffffffffffffffffffffffffffff1673ffffffffffffffffffffffffffffffffffffffff163373ffffffffffffffffffffffffffffffffffffffff1614612c81576040517f08c379a0000000000000000000000000000000000000000000000000000000008152600401612c7890613e61565b60405180910390fd5b610384811115612c9057600080fd5b80600b8190555050565b6000601a60009054906101000a900473ffffffffffffffffffffffffffffffffffffffff1673ffffffffffffffffffffffffffffffffffffffff163373ffffffffffffffffffffffffffffffffffffffff1614612d2c576040517f08c379a0000000000000000000000000000000000000000000000000000000008152600401612d2390613e61565b60405180910390fd5b601660008373ffffffffffffffffffffffffffffffffffffffff1673ffffffffffffffffffffffffffffffffffffffff16815260200190815260200160002060009054906101000a900460ff169050919050565b60015481565b60095481565b6000612db483601254612daf85612da1611151565b61333d90919063ffffffff16565b61140d565b905092915050565b60065481565b60085481565b600080612e20602160008573ffffffffffffffffffffffffffffffffffffffff1673ffffffffffffffffffffffffffffffffffffffff168152602001908152602001600020600401544261336990919063ffffffff16565b90506000612e3082601854613868565b90506000612e4060005483613868565b9050612e97602160008773ffffffffffffffffffffffffffffffffffffffff1673ffffffffffffffffffffffffffffffffffffffff16815260200190815260200160002060020154826133ab90919063ffffffff16565b9350505050919050565b601a60009054906101000a900473ffffffffffffffffffffffffffffffffffffffff1673ffffffffffffffffffffffffffffffffffffffff163373ffffffffffffffffffffffffffffffffffffffff1614612f31576040517f08c379a0000000000000000000000000000000000000000000000000000000008152600401612f2890613e61565b60405180910390fd5b80601660008473ffffffffffffffffffffffffffffffffffffffff1673ffffffffffffffffffffffffffffffffffffffff16815260200190815260200160002060006101000a81548160ff0219169083151502179055505050565b600042905090565b601560009054906101000a900460ff1661307e57601a60009054906101000a900473ffffffffffffffffffffffffffffffffffffffff1673ffffffffffffffffffffffffffffffffffffffff163373ffffffffffffffffffffffffffffffffffffffff1614156130425760006012541461300d57600080fd5b6001601560006101000a81548160ff02191690831515021790555064218711a00060128190555061303d81611908565b61307d565b6040517f08c379a000000000000000000000000000000000000000000000000000000000815260040161307490614106565b60405180910390fd5b5b50565b601a60009054906101000a900473ffffffffffffffffffffffffffffffffffffffff1673ffffffffffffffffffffffffffffffffffffffff163373ffffffffffffffffffffffffffffffffffffffff1614613111576040517f08c379a000000000000000000000000000000000000000000000000000000000815260040161310890613e61565b60405180910390fd5b6207512081101580156131275750620afc808111155b61313057600080fd5b8060008190555050565b601a60009054906101000a900473ffffffffffffffffffffffffffffffffffffffff1673ffffffffffffffffffffffffffffffffffffffff163373ffffffffffffffffffffffffffffffffffffffff16146131ca576040517f08c379a00000000000000000000000000000000000000000000000000000000081526004016131c190613e61565b60405180910390fd5b600c8111156131d857600080fd5b80600c8190555050565b601a60009054906101000a900473ffffffffffffffffffffffffffffffffffffffff1673ffffffffffffffffffffffffffffffffffffffff163373ffffffffffffffffffffffffffffffffffffffff1614613272576040517f08c379a000000000000000000000000000000000000000000000000000000000815260040161326990613e61565b60405180910390fd5b60005b8383905081101561331157816016600086868581811061329857613297614126565b5b90506020020160208101906132ad9190613aaa565b73ffffffffffffffffffffffffffffffffffffffff1673ffffffffffffffffffffffffffffffffffffffff16815260200190815260200160002060006101000a81548160ff021916908315150217905550808061330990614155565b915050613275565b50505050565b600c5481565b60166020528060005260406000206000915054906101000a900460ff1681565b600080828461334c919061419e565b90508381101561335f5761335e6141f4565b5b8091505092915050565b60008282111561337c5761337b6141f4565b5b81836133889190614223565b905092915050565b600080828461339f9190614286565b90508091505092915050565b6000808314156133be57600090506133ee565b600082846133cc9190613f1c565b90508284826133db9190614286565b146133e9576133e86141f4565b5b809150505b92915050565b60008290506000600367ffffffffffffffff811115613416576134156142b7565b5b6040519080825280602002602001820160405280156134445781602001602082028036833780820191505090505b50905060088160008151811061345d5761345c614126565b5b60200260200101818152505060038160018151811061347f5761347e614126565b5b6020026020010181815250506002816002815181106134a1576134a0614126565b5b60200260200101818152505060005b600381101561370557600073ffffffffffffffffffffffffffffffffffffffff16602160008573ffffffffffffffffffffffffffffffffffffffff1673ffffffffffffffffffffffffffffffffffffffff16815260200190815260200160002060050160009054906101000a900473ffffffffffffffffffffffffffffffffffffffff1673ffffffffffffffffffffffffffffffffffffffff16146136ed57602160008473ffffffffffffffffffffffffffffffffffffffff1673ffffffffffffffffffffffffffffffffffffffff16815260200190815260200160002060050160009054906101000a900473ffffffffffffffffffffffffffffffffffffffff16925060006064858484815181106135cc576135cb614126565b5b60200260200101516135de9190613f1c565b6135e89190614286565b90508373ffffffffffffffffffffffffffffffffffffffff166108fc829081150290604051600060405180830381858888f19350505050158015613630573d6000803e3d6000fd5b5061368681602160008773ffffffffffffffffffffffffffffffffffffffff1673ffffffffffffffffffffffffffffffffffffffff1681526020019081526020016000206007015461333d90919063ffffffff16565b602160008673ffffffffffffffffffffffffffffffffffffffff1673ffffffffffffffffffffffffffffffffffffffff168152602001908152602001600020600701819055506136e18160105461333d90919063ffffffff16565b601081905550506136f2565b613705565b80806136fd90614155565b9150506134b0565b5050505050565b60008061373860025461372a600354866133ab90919063ffffffff16565b61339090919063ffffffff16565b90506000613765600254613757600454876133ab90919063ffffffff16565b61339090919063ffffffff16565b9050601b60009054906101000a900473ffffffffffffffffffffffffffffffffffffffff1673ffffffffffffffffffffffffffffffffffffffff166108fc839081150290604051600060405180830381858888f193505050501580156137cf573d6000803e3d6000fd5b50602060009054906101000a900473ffffffffffffffffffffffffffffffffffffffff1673ffffffffffffffffffffffffffffffffffffffff166108fc829081150290604051600060405180830381858888f19350505050158015613838573d6000803e3d6000fd5b5061385f6138506001846133ab90919063ffffffff16565b8261333d90919063ffffffff16565b92505050919050565b60008183106138775781613879565b825b905092915050565b6000819050919050565b61389481613881565b82525050565b60006020820190506138af600083018461388b565b92915050565b600073ffffffffffffffffffffffffffffffffffffffff82169050919050565b60006138e0826138b5565b9050919050565b6138f0816138d5565b82525050565b600060208201905061390b60008301846138e7565b92915050565b600080fd5b600080fd5b60008115159050919050565b6139308161391b565b811461393b57600080fd5b50565b60008135905061394d81613927565b92915050565b60006020828403121561396957613968613911565b5b60006139778482850161393e565b91505092915050565b61398981613881565b811461399457600080fd5b50565b6000813590506139a681613980565b92915050565b6000602082840312156139c2576139c1613911565b5b60006139d084828501613997565b91505092915050565b6000806000606084860312156139f2576139f1613911565b5b6000613a0086828701613997565b9350506020613a1186828701613997565b9250506040613a2286828701613997565b9150509250925092565b60008060408385031215613a4357613a42613911565b5b6000613a5185828601613997565b9250506020613a6285828601613997565b9150509250929050565b6000613a77826138b5565b9050919050565b613a8781613a6c565b8114613a9257600080fd5b50565b600081359050613aa481613a7e565b92915050565b600060208284031215613ac057613abf613911565b5b6000613ace84828501613a95565b91505092915050565b613ae08161391b565b82525050565b6000602082019050613afb6000830184613ad7565b92915050565b6000608082019050613b16600083018761388b565b613b23602083018661388b565b613b30604083018561388b565b613b3d606083018461388b565b95945050505050565b60008060408385031215613b5d57613b5c613911565b5b6000613b6b85828601613a95565b9250506020613b7c85828601613997565b9150509250929050565b613b8f81613a6c565b82525050565b600061018082019050613bab600083018f61388b565b613bb8602083018e61388b565b613bc5604083018d61388b565b613bd2606083018c61388b565b613bdf608083018b61388b565b613bec60a083018a613b86565b613bf960c083018961388b565b613c0660e083018861388b565b613c1461010083018761388b565b613c2261012083018661388b565b613c3061014083018561388b565b613c3e61016083018461388b565b9d9c50505050505050505050505050565b6000602082019050613c646000830184613b86565b92915050565b6000604082019050613c7f600083018561388b565b613c8c602083018461388b565b9392505050565b60008060408385031215613caa57613ca9613911565b5b6000613cb885828601613a95565b9250506020613cc98582860161393e565b9150509250929050565b600080fd5b600080fd5b600080fd5b60008083601f840112613cf857613cf7613cd3565b5b8235905067ffffffffffffffff811115613d1557613d14613cd8565b5b602083019150836020820283011115613d3157613d30613cdd565b5b9250929050565b600080600060408486031215613d5157613d50613911565b5b600084013567ffffffffffffffff811115613d6f57613d6e613916565b5b613d7b86828701613ce2565b93509350506020613d8e8682870161393e565b9150509250925092565b600082825260208201905092915050565b7f436f6e7472616374206e6f742079657420537461727465642e00000000000000600082015250565b6000613ddf601983613d98565b9150613dea82613da9565b602082019050919050565b60006020820190508181036000830152613e0e81613dd2565b9050919050565b7f41646d696e20757365206f6e6c792e0000000000000000000000000000000000600082015250565b6000613e4b600f83613d98565b9150613e5682613e15565b602082019050919050565b60006020820190508181036000830152613e7a81613e3e565b9050919050565b7f41646d696e20757365206f6e6c79000000000000000000000000000000000000600082015250565b6000613eb7600e83613d98565b9150613ec282613e81565b602082019050919050565b60006020820190508181036000830152613ee681613eaa565b9050919050565b7f4e487b7100000000000000000000000000000000000000000000000000000000600052601160045260246000fd5b6000613f2782613881565b9150613f3283613881565b9250817fffffffffffffffffffffffffffffffffffffffffffffffffffffffffffffffff0483118215151615613f6b57613f6a613eed565b5b828202905092915050565b7f4d696e696e756d20696e766573746d656e74206e6f74206d65742e0000000000600082015250565b6000613fac601b83613d98565b9150613fb782613f76565b602082019050919050565b60006020820190508181036000830152613fdb81613f9f565b9050919050565b7f4d6178206465706f736974206c696d697420726561636865642e000000000000600082015250565b6000614018601a83613d98565b915061402382613fe2565b602082019050919050565b600060208201905081810360008301526140478161400b565b9050919050565b7f4164647265737320697320626c61636b6c69737465642e000000000000000000600082015250565b6000614084601783613d98565b915061408f8261404e565b602082019050919050565b600060208201905081810360008301526140b381614077565b9050919050565b7f436f6e7472616374206e6f742079657420737461727465642e00000000000000600082015250565b60006140f0601983613d98565b91506140fb826140ba565b602082019050919050565b6000602082019050818103600083015261411f816140e3565b9050919050565b7f4e487b7100000000000000000000000000000000000000000000000000000000600052603260045260246000fd5b600061416082613881565b91507fffffffffffffffffffffffffffffffffffffffffffffffffffffffffffffffff82141561419357614192613eed565b5b600182019050919050565b60006141a982613881565b91506141b483613881565b9250827fffffffffffffffffffffffffffffffffffffffffffffffffffffffffffffffff038211156141e9576141e8613eed565b5b828201905092915050565b7f4e487b7100000000000000000000000000000000000000000000000000000000600052600160045260246000fd5b600061422e82613881565b915061423983613881565b92508282101561424c5761424b613eed565b5b828203905092915050565b7f4e487b7100000000000000000000000000000000000000000000000000000000600052601260045260246000fd5b600061429182613881565b915061429c83613881565b9250826142ac576142ab614257565b5b828204905092915050565b7f4e487b7100000000000000000000000000000000000000000000000000000000600052604160045260246000fdfea2646970667358221220e6af79dc24bb6a79352ecbf1e3eeaceb6df04f020c111621e00657c6975c994064736f6c63430008090033",
					"opcodes": "PUSH1 0x80 PUSH1 0x40 MSTORE PUSH3 0x15F900 PUSH1 0x0 SSTORE PUSH1 0x46 PUSH1 0x1 SSTORE PUSH2 0x3E8 PUSH1 0x2 SSTORE PUSH1 0x9 PUSH1 0x3 SSTORE PUSH1 0xC PUSH1 0x4 SSTORE PUSH1 0x2 PUSH1 0x5 SSTORE PUSH7 0x6A94D74F430000 PUSH1 0x6 SSTORE PUSH9 0x15AF1D78B58C40000 PUSH1 0x7 SSTORE PUSH1 0x14 PUSH1 0x8 SSTORE PUSH1 0xA PUSH1 0x9 SSTORE PUSH2 0xA8C0 PUSH1 0xA SSTORE PUSH2 0x15E PUSH1 0xB SSTORE PUSH1 0xA PUSH1 0xC SSTORE PUSH2 0x2710 PUSH1 0x13 SSTORE PUSH2 0x1388 PUSH1 0x14 SSTORE PUSH1 0x1 PUSH1 0x15 PUSH1 0x1 PUSH2 0x100 EXP DUP2 SLOAD DUP2 PUSH1 0xFF MUL NOT AND SWAP1 DUP4 ISZERO ISZERO MUL OR SWAP1 SSTORE POP PUSH3 0x2A300 PUSH1 0x18 SSTORE PUSH2 0x3840 PUSH1 0x19 SSTORE CALLVALUE DUP1 ISZERO PUSH3 0x99 JUMPI PUSH1 0x0 DUP1 REVERT JUMPDEST POP PUSH1 0x40 MLOAD PUSH3 0x477A CODESIZE SUB DUP1 PUSH3 0x477A DUP4 CODECOPY DUP2 DUP2 ADD PUSH1 0x40 MSTORE DUP2 ADD SWAP1 PUSH3 0xBF SWAP2 SWAP1 PUSH3 0x3B2 JUMP JUMPDEST PUSH3 0xD0 DUP7 PUSH3 0x335 PUSH1 0x20 SHL PUSH1 0x20 SHR JUMP JUMPDEST ISZERO DUP1 ISZERO PUSH3 0xEC JUMPI POP PUSH3 0xEA DUP6 PUSH3 0x335 PUSH1 0x20 SHL PUSH1 0x20 SHR JUMP JUMPDEST ISZERO JUMPDEST DUP1 ISZERO PUSH3 0x107 JUMPI POP PUSH3 0x105 DUP5 PUSH3 0x335 PUSH1 0x20 SHL PUSH1 0x20 SHR JUMP JUMPDEST ISZERO JUMPDEST DUP1 ISZERO PUSH3 0x122 JUMPI POP PUSH3 0x120 DUP4 PUSH3 0x335 PUSH1 0x20 SHL PUSH1 0x20 SHR JUMP JUMPDEST ISZERO JUMPDEST DUP1 ISZERO PUSH3 0x13D JUMPI POP PUSH3 0x13B DUP3 PUSH3 0x335 PUSH1 0x20 SHL PUSH1 0x20 SHR JUMP JUMPDEST ISZERO JUMPDEST DUP1 ISZERO PUSH3 0x158 JUMPI POP PUSH3 0x156 DUP2 PUSH3 0x335 PUSH1 0x20 SHL PUSH1 0x20 SHR JUMP JUMPDEST ISZERO JUMPDEST PUSH3 0x162 JUMPI PUSH1 0x0 DUP1 REVERT JUMPDEST CALLER PUSH1 0x1A PUSH1 0x0 PUSH2 0x100 EXP DUP2 SLOAD DUP2 PUSH20 0xFFFFFFFFFFFFFFFFFFFFFFFFFFFFFFFFFFFFFFFF MUL NOT AND SWAP1 DUP4 PUSH20 0xFFFFFFFFFFFFFFFFFFFFFFFFFFFFFFFFFFFFFFFF AND MUL OR SWAP1 SSTORE POP DUP6 PUSH1 0x1B PUSH1 0x0 PUSH2 0x100 EXP DUP2 SLOAD DUP2 PUSH20 0xFFFFFFFFFFFFFFFFFFFFFFFFFFFFFFFFFFFFFFFF MUL NOT AND SWAP1 DUP4 PUSH20 0xFFFFFFFFFFFFFFFFFFFFFFFFFFFFFFFFFFFFFFFF AND MUL OR SWAP1 SSTORE POP DUP5 PUSH1 0x1C PUSH1 0x0 PUSH2 0x100 EXP DUP2 SLOAD DUP2 PUSH20 0xFFFFFFFFFFFFFFFFFFFFFFFFFFFFFFFFFFFFFFFF MUL NOT AND SWAP1 DUP4 PUSH20 0xFFFFFFFFFFFFFFFFFFFFFFFFFFFFFFFFFFFFFFFF AND MUL OR SWAP1 SSTORE POP DUP4 PUSH1 0x1D PUSH1 0x0 PUSH2 0x100 EXP DUP2 SLOAD DUP2 PUSH20 0xFFFFFFFFFFFFFFFFFFFFFFFFFFFFFFFFFFFFFFFF MUL NOT AND SWAP1 DUP4 PUSH20 0xFFFFFFFFFFFFFFFFFFFFFFFFFFFFFFFFFFFFFFFF AND MUL OR SWAP1 SSTORE POP DUP3 PUSH1 0x1E PUSH1 0x0 PUSH2 0x100 EXP DUP2 SLOAD DUP2 PUSH20 0xFFFFFFFFFFFFFFFFFFFFFFFFFFFFFFFFFFFFFFFF MUL NOT AND SWAP1 DUP4 PUSH20 0xFFFFFFFFFFFFFFFFFFFFFFFFFFFFFFFFFFFFFFFF AND MUL OR SWAP1 SSTORE POP DUP2 PUSH1 0x1F PUSH1 0x0 PUSH2 0x100 EXP DUP2 SLOAD DUP2 PUSH20 0xFFFFFFFFFFFFFFFFFFFFFFFFFFFFFFFFFFFFFFFF MUL NOT AND SWAP1 DUP4 PUSH20 0xFFFFFFFFFFFFFFFFFFFFFFFFFFFFFFFFFFFFFFFF AND MUL OR SWAP1 SSTORE POP DUP1 PUSH1 0x20 PUSH1 0x0 PUSH2 0x100 EXP DUP2 SLOAD DUP2 PUSH20 0xFFFFFFFFFFFFFFFFFFFFFFFFFFFFFFFFFFFFFFFF MUL NOT AND SWAP1 DUP4 PUSH20 0xFFFFFFFFFFFFFFFFFFFFFFFFFFFFFFFFFFFFFFFF AND MUL OR SWAP1 SSTORE POP POP POP POP POP POP POP PUSH3 0x44E JUMP JUMPDEST PUSH1 0x0 DUP1 DUP3 EXTCODESIZE SWAP1 POP PUSH1 0x0 DUP2 GT SWAP2 POP POP SWAP2 SWAP1 POP JUMP JUMPDEST PUSH1 0x0 DUP1 REVERT JUMPDEST PUSH1 0x0 PUSH20 0xFFFFFFFFFFFFFFFFFFFFFFFFFFFFFFFFFFFFFFFF DUP3 AND SWAP1 POP SWAP2 SWAP1 POP JUMP JUMPDEST PUSH1 0x0 PUSH3 0x37A DUP3 PUSH3 0x34D JUMP JUMPDEST SWAP1 POP SWAP2 SWAP1 POP JUMP JUMPDEST PUSH3 0x38C DUP2 PUSH3 0x36D JUMP JUMPDEST DUP2 EQ PUSH3 0x398 JUMPI PUSH1 0x0 DUP1 REVERT JUMPDEST POP JUMP JUMPDEST PUSH1 0x0 DUP2 MLOAD SWAP1 POP PUSH3 0x3AC DUP2 PUSH3 0x381 JUMP JUMPDEST SWAP3 SWAP2 POP POP JUMP JUMPDEST PUSH1 0x0 DUP1 PUSH1 0x0 DUP1 PUSH1 0x0 DUP1 PUSH1 0xC0 DUP8 DUP10 SUB SLT ISZERO PUSH3 0x3D2 JUMPI PUSH3 0x3D1 PUSH3 0x348 JUMP JUMPDEST JUMPDEST PUSH1 0x0 PUSH3 0x3E2 DUP10 DUP3 DUP11 ADD PUSH3 0x39B JUMP JUMPDEST SWAP7 POP POP PUSH1 0x20 PUSH3 0x3F5 DUP10 DUP3 DUP11 ADD PUSH3 0x39B JUMP JUMPDEST SWAP6 POP POP PUSH1 0x40 PUSH3 0x408 DUP10 DUP3 DUP11 ADD PUSH3 0x39B JUMP JUMPDEST SWAP5 POP POP PUSH1 0x60 PUSH3 0x41B DUP10 DUP3 DUP11 ADD PUSH3 0x39B JUMP JUMPDEST SWAP4 POP POP PUSH1 0x80 PUSH3 0x42E DUP10 DUP3 DUP11 ADD PUSH3 0x39B JUMP JUMPDEST SWAP3 POP POP PUSH1 0xA0 PUSH3 0x441 DUP10 DUP3 DUP11 ADD PUSH3 0x39B JUMP JUMPDEST SWAP2 POP POP SWAP3 SWAP6 POP SWAP3 SWAP6 POP SWAP3 SWAP6 JUMP JUMPDEST PUSH2 0x431C DUP1 PUSH3 0x45E PUSH1 0x0 CODECOPY PUSH1 0x0 RETURN INVALID PUSH1 0x80 PUSH1 0x40 MSTORE PUSH1 0x4 CALLDATASIZE LT PUSH2 0x41B JUMPI PUSH1 0x0 CALLDATALOAD PUSH1 0xE0 SHR DUP1 PUSH4 0x7CC5B1E6 GT PUSH2 0x21E JUMPI DUP1 PUSH4 0xBD097E21 GT PUSH2 0x123 JUMPI DUP1 PUSH4 0xD7C8843B GT PUSH2 0xAB JUMPI DUP1 PUSH4 0xE6DC9558 GT PUSH2 0x7A JUMPI DUP1 PUSH4 0xE6DC9558 EQ PUSH2 0xFF2 JUMPI DUP1 PUSH4 0xE7576943 EQ PUSH2 0x101B JUMPI DUP1 PUSH4 0xEB271268 EQ PUSH2 0x1044 JUMPI DUP1 PUSH4 0xF6F62886 EQ PUSH2 0x106D JUMPI DUP1 PUSH4 0xFFA4E618 EQ PUSH2 0x1098 JUMPI PUSH2 0x41B JUMP JUMPDEST DUP1 PUSH4 0xD7C8843B EQ PUSH2 0xF45 JUMPI DUP1 PUSH4 0xD989B4B3 EQ PUSH2 0xF82 JUMPI DUP1 PUSH4 0xDA235B22 EQ PUSH2 0xFAB JUMPI DUP1 PUSH4 0xDA5D4CC5 EQ PUSH2 0xFD6 JUMPI PUSH2 0x41B JUMP JUMPDEST DUP1 PUSH4 0xC63568C7 GT PUSH2 0xF2 JUMPI DUP1 PUSH4 0xC63568C7 EQ PUSH2 0xE5C JUMPI DUP1 PUSH4 0xC688F0FB EQ PUSH2 0xE87 JUMPI DUP1 PUSH4 0xCC3E9C78 EQ PUSH2 0xEB2 JUMPI DUP1 PUSH4 0xCD329FC3 EQ PUSH2 0xEEF JUMPI DUP1 PUSH4 0xD7206D5D EQ PUSH2 0xF1A JUMPI PUSH2 0x41B JUMP JUMPDEST DUP1 PUSH4 0xBD097E21 EQ PUSH2 0xDAE JUMPI DUP1 PUSH4 0xBDD1CA27 EQ PUSH2 0xDB8 JUMPI DUP1 PUSH4 0xBFA9F304 EQ PUSH2 0xDF6 JUMPI DUP1 PUSH4 0xC3251B40 EQ PUSH2 0xE1F JUMPI PUSH2 0x41B JUMP JUMPDEST DUP1 PUSH4 0x8E316327 GT PUSH2 0x1A6 JUMPI DUP1 PUSH4 0x9E9300A5 GT PUSH2 0x175 JUMPI DUP1 PUSH4 0x9E9300A5 EQ PUSH2 0xCAA JUMPI DUP1 PUSH4 0xA327C45D EQ PUSH2 0xCD3 JUMPI DUP1 PUSH4 0xA87430BA EQ PUSH2 0xCFE JUMPI DUP1 PUSH4 0xAC4B3C04 EQ PUSH2 0xD46 JUMPI DUP1 PUSH4 0xB6E6FCF6 EQ PUSH2 0xD83 JUMPI PUSH2 0x41B JUMP JUMPDEST DUP1 PUSH4 0x8E316327 EQ PUSH2 0xBF0 JUMPI DUP1 PUSH4 0x950D91E9 EQ PUSH2 0xC2D JUMPI DUP1 PUSH4 0x959C95B3 EQ PUSH2 0xC58 JUMPI DUP1 PUSH4 0x9B9CB69F EQ PUSH2 0xC81 JUMPI PUSH2 0x41B JUMP JUMPDEST DUP1 PUSH4 0x7EE28E3C GT PUSH2 0x1ED JUMPI DUP1 PUSH4 0x7EE28E3C EQ PUSH2 0xB1B JUMPI DUP1 PUSH4 0x8013F3A7 EQ PUSH2 0xB44 JUMPI DUP1 PUSH4 0x817B1CD2 EQ PUSH2 0xB6F JUMPI DUP1 PUSH4 0x8A315EFD EQ PUSH2 0xB9A JUMPI DUP1 PUSH4 0x8DA5CB5B EQ PUSH2 0xBC5 JUMPI PUSH2 0x41B JUMP JUMPDEST DUP1 PUSH4 0x7CC5B1E6 EQ PUSH2 0xA5D JUMPI DUP1 PUSH4 0x7D882097 EQ PUSH2 0xA88 JUMPI DUP1 PUSH4 0x7DB07C9D EQ PUSH2 0xAB3 JUMPI DUP1 PUSH4 0x7E56FDE5 EQ PUSH2 0xADE JUMPI PUSH2 0x41B JUMP JUMPDEST DUP1 PUSH4 0x43CE7422 GT PUSH2 0x324 JUMPI DUP1 PUSH4 0x59EEC895 GT PUSH2 0x2AC JUMPI DUP1 PUSH4 0x69B11DD5 GT PUSH2 0x27B JUMPI DUP1 PUSH4 0x69B11DD5 EQ PUSH2 0x98C JUMPI DUP1 PUSH4 0x6F969D28 EQ PUSH2 0x9B7 JUMPI DUP1 PUSH4 0x752A2628 EQ PUSH2 0x9E0 JUMPI DUP1 PUSH4 0x7A62EAD7 EQ PUSH2 0xA0B JUMPI DUP1 PUSH4 0x7C8E4B4C EQ PUSH2 0xA34 JUMPI PUSH2 0x41B JUMP JUMPDEST DUP1 PUSH4 0x59EEC895 EQ PUSH2 0x8B1 JUMPI DUP1 PUSH4 0x6386C1C7 EQ PUSH2 0x8DC JUMPI DUP1 PUSH4 0x64C03A5E EQ PUSH2 0x924 JUMPI DUP1 PUSH4 0x68F58B03 EQ PUSH2 0x961 JUMPI PUSH2 0x41B JUMP JUMPDEST DUP1 PUSH4 0x4CE87053 GT PUSH2 0x2F3 JUMPI DUP1 PUSH4 0x4CE87053 EQ PUSH2 0x7EA JUMPI DUP1 PUSH4 0x50637DBD EQ PUSH2 0x818 JUMPI DUP1 PUSH4 0x50CF1C7A EQ PUSH2 0x855 JUMPI DUP1 PUSH4 0x570C2979 EQ PUSH2 0x871 JUMPI DUP1 PUSH4 0x57386225 EQ PUSH2 0x89A JUMPI PUSH2 0x41B JUMP JUMPDEST DUP1 PUSH4 0x43CE7422 EQ PUSH2 0x742 JUMPI DUP1 PUSH4 0x45A6A6E0 EQ PUSH2 0x76D JUMPI DUP1 PUSH4 0x45F98C29 EQ PUSH2 0x796 JUMPI DUP1 PUSH4 0x4B319713 EQ PUSH2 0x7BF JUMPI PUSH2 0x41B JUMP JUMPDEST DUP1 PUSH4 0x229824C4 GT PUSH2 0x3A7 JUMPI DUP1 PUSH4 0x2B039D0E GT PUSH2 0x376 JUMPI DUP1 PUSH4 0x2B039D0E EQ PUSH2 0x66D JUMPI DUP1 PUSH4 0x2BC82F7F EQ PUSH2 0x696 JUMPI DUP1 PUSH4 0x2E9392BB EQ PUSH2 0x6C1 JUMPI DUP1 PUSH4 0x333F57B3 EQ PUSH2 0x6EC JUMPI DUP1 PUSH4 0x3578584F EQ PUSH2 0x717 JUMPI PUSH2 0x41B JUMP JUMPDEST DUP1 PUSH4 0x229824C4 EQ PUSH2 0x59F JUMPI DUP1 PUSH4 0x2362CE89 EQ PUSH2 0x5DC JUMPI DUP1 PUSH4 0x26FD8422 EQ PUSH2 0x607 JUMPI DUP1 PUSH4 0x298EA310 EQ PUSH2 0x644 JUMPI PUSH2 0x41B JUMP JUMPDEST DUP1 PUSH4 0x12065FE0 GT PUSH2 0x3EE JUMPI DUP1 PUSH4 0x12065FE0 EQ PUSH2 0x4CC JUMPI DUP1 PUSH4 0x1848B8DC EQ PUSH2 0x4F7 JUMPI DUP1 PUSH4 0x18C819D8 EQ PUSH2 0x522 JUMPI DUP1 PUSH4 0x195A7339 EQ PUSH2 0x54B JUMPI DUP1 PUSH4 0x1A7B8D4F EQ PUSH2 0x576 JUMPI PUSH2 0x41B JUMP JUMPDEST DUP1 PUSH4 0x1C234A8 EQ PUSH2 0x420 JUMPI DUP1 PUSH4 0x420C98E EQ PUSH2 0x44B JUMPI DUP1 PUSH4 0x7AEB7F0 EQ PUSH2 0x476 JUMPI DUP1 PUSH4 0xA76E5ED EQ PUSH2 0x4A1 JUMPI JUMPDEST PUSH1 0x0 DUP1 REVERT JUMPDEST CALLVALUE DUP1 ISZERO PUSH2 0x42C JUMPI PUSH1 0x0 DUP1 REVERT JUMPDEST POP PUSH2 0x435 PUSH2 0x10D5 JUMP JUMPDEST PUSH1 0x40 MLOAD PUSH2 0x442 SWAP2 SWAP1 PUSH2 0x389A JUMP JUMPDEST PUSH1 0x40 MLOAD DUP1 SWAP2 SUB SWAP1 RETURN JUMPDEST CALLVALUE DUP1 ISZERO PUSH2 0x457 JUMPI PUSH1 0x0 DUP1 REVERT JUMPDEST POP PUSH2 0x460 PUSH2 0x10DB JUMP JUMPDEST PUSH1 0x40 MLOAD PUSH2 0x46D SWAP2 SWAP1 PUSH2 0x389A JUMP JUMPDEST PUSH1 0x40 MLOAD DUP1 SWAP2 SUB SWAP1 RETURN JUMPDEST CALLVALUE DUP1 ISZERO PUSH2 0x482 JUMPI PUSH1 0x0 DUP1 REVERT JUMPDEST POP PUSH2 0x48B PUSH2 0x10E1 JUMP JUMPDEST PUSH1 0x40 MLOAD PUSH2 0x498 SWAP2 SWAP1 PUSH2 0x38F6 JUMP JUMPDEST PUSH1 0x40 MLOAD DUP1 SWAP2 SUB SWAP1 RETURN JUMPDEST CALLVALUE DUP1 ISZERO PUSH2 0x4AD JUMPI PUSH1 0x0 DUP1 REVERT JUMPDEST POP PUSH2 0x4B6 PUSH2 0x1107 JUMP JUMPDEST PUSH1 0x40 MLOAD PUSH2 0x4C3 SWAP2 SWAP1 PUSH2 0x389A JUMP JUMPDEST PUSH1 0x40 MLOAD DUP1 SWAP2 SUB SWAP1 RETURN JUMPDEST CALLVALUE DUP1 ISZERO PUSH2 0x4D8 JUMPI PUSH1 0x0 DUP1 REVERT JUMPDEST POP PUSH2 0x4E1 PUSH2 0x1151 JUMP JUMPDEST PUSH1 0x40 MLOAD PUSH2 0x4EE SWAP2 SWAP1 PUSH2 0x389A JUMP JUMPDEST PUSH1 0x40 MLOAD DUP1 SWAP2 SUB SWAP1 RETURN JUMPDEST CALLVALUE DUP1 ISZERO PUSH2 0x503 JUMPI PUSH1 0x0 DUP1 REVERT JUMPDEST POP PUSH2 0x50C PUSH2 0x1159 JUMP JUMPDEST PUSH1 0x40 MLOAD PUSH2 0x519 SWAP2 SWAP1 PUSH2 0x389A JUMP JUMPDEST PUSH1 0x40 MLOAD DUP1 SWAP2 SUB SWAP1 RETURN JUMPDEST CALLVALUE DUP1 ISZERO PUSH2 0x52E JUMPI PUSH1 0x0 DUP1 REVERT JUMPDEST POP PUSH2 0x549 PUSH1 0x4 DUP1 CALLDATASIZE SUB DUP2 ADD SWAP1 PUSH2 0x544 SWAP2 SWAP1 PUSH2 0x3953 JUMP JUMPDEST PUSH2 0x115F JUMP JUMPDEST STOP JUMPDEST CALLVALUE DUP1 ISZERO PUSH2 0x557 JUMPI PUSH1 0x0 DUP1 REVERT JUMPDEST POP PUSH2 0x560 PUSH2 0x135F JUMP JUMPDEST PUSH1 0x40 MLOAD PUSH2 0x56D SWAP2 SWAP1 PUSH2 0x389A JUMP JUMPDEST PUSH1 0x40 MLOAD DUP1 SWAP2 SUB SWAP1 RETURN JUMPDEST CALLVALUE DUP1 ISZERO PUSH2 0x582 JUMPI PUSH1 0x0 DUP1 REVERT JUMPDEST POP PUSH2 0x59D PUSH1 0x4 DUP1 CALLDATASIZE SUB DUP2 ADD SWAP1 PUSH2 0x598 SWAP2 SWAP1 PUSH2 0x39AC JUMP JUMPDEST PUSH2 0x1365 JUMP JUMPDEST STOP JUMPDEST CALLVALUE DUP1 ISZERO PUSH2 0x5AB JUMPI PUSH1 0x0 DUP1 REVERT JUMPDEST POP PUSH2 0x5C6 PUSH1 0x4 DUP1 CALLDATASIZE SUB DUP2 ADD SWAP1 PUSH2 0x5C1 SWAP2 SWAP1 PUSH2 0x39D9 JUMP JUMPDEST PUSH2 0x140D JUMP JUMPDEST PUSH1 0x40 MLOAD PUSH2 0x5D3 SWAP2 SWAP1 PUSH2 0x389A JUMP JUMPDEST PUSH1 0x40 MLOAD DUP1 SWAP2 SUB SWAP1 RETURN JUMPDEST CALLVALUE DUP1 ISZERO PUSH2 0x5E8 JUMPI PUSH1 0x0 DUP1 REVERT JUMPDEST POP PUSH2 0x5F1 PUSH2 0x1460 JUMP JUMPDEST PUSH1 0x40 MLOAD PUSH2 0x5FE SWAP2 SWAP1 PUSH2 0x38F6 JUMP JUMPDEST PUSH1 0x40 MLOAD DUP1 SWAP2 SUB SWAP1 RETURN JUMPDEST CALLVALUE DUP1 ISZERO PUSH2 0x613 JUMPI PUSH1 0x0 DUP1 REVERT JUMPDEST POP PUSH2 0x62E PUSH1 0x4 DUP1 CALLDATASIZE SUB DUP2 ADD SWAP1 PUSH2 0x629 SWAP2 SWAP1 PUSH2 0x3A2C JUMP JUMPDEST PUSH2 0x1486 JUMP JUMPDEST PUSH1 0x40 MLOAD PUSH2 0x63B SWAP2 SWAP1 PUSH2 0x389A JUMP JUMPDEST PUSH1 0x40 MLOAD DUP1 SWAP2 SUB SWAP1 RETURN JUMPDEST CALLVALUE DUP1 ISZERO PUSH2 0x650 JUMPI PUSH1 0x0 DUP1 REVERT JUMPDEST POP PUSH2 0x66B PUSH1 0x4 DUP1 CALLDATASIZE SUB DUP2 ADD SWAP1 PUSH2 0x666 SWAP2 SWAP1 PUSH2 0x39AC JUMP JUMPDEST PUSH2 0x149D JUMP JUMPDEST STOP JUMPDEST CALLVALUE DUP1 ISZERO PUSH2 0x679 JUMPI PUSH1 0x0 DUP1 REVERT JUMPDEST POP PUSH2 0x694 PUSH1 0x4 DUP1 CALLDATASIZE SUB DUP2 ADD SWAP1 PUSH2 0x68F SWAP2 SWAP1 PUSH2 0x3AAA JUMP JUMPDEST PUSH2 0x1545 JUMP JUMPDEST STOP JUMPDEST CALLVALUE DUP1 ISZERO PUSH2 0x6A2 JUMPI PUSH1 0x0 DUP1 REVERT JUMPDEST POP PUSH2 0x6AB PUSH2 0x1619 JUMP JUMPDEST PUSH1 0x40 MLOAD PUSH2 0x6B8 SWAP2 SWAP1 PUSH2 0x389A JUMP JUMPDEST PUSH1 0x40 MLOAD DUP1 SWAP2 SUB SWAP1 RETURN JUMPDEST CALLVALUE DUP1 ISZERO PUSH2 0x6CD JUMPI PUSH1 0x0 DUP1 REVERT JUMPDEST POP PUSH2 0x6D6 PUSH2 0x161F JUMP JUMPDEST PUSH1 0x40 MLOAD PUSH2 0x6E3 SWAP2 SWAP1 PUSH2 0x389A JUMP JUMPDEST PUSH1 0x40 MLOAD DUP1 SWAP2 SUB SWAP1 RETURN JUMPDEST CALLVALUE DUP1 ISZERO PUSH2 0x6F8 JUMPI PUSH1 0x0 DUP1 REVERT JUMPDEST POP PUSH2 0x701 PUSH2 0x1625 JUMP JUMPDEST PUSH1 0x40 MLOAD PUSH2 0x70E SWAP2 SWAP1 PUSH2 0x3AE6 JUMP JUMPDEST PUSH1 0x40 MLOAD DUP1 SWAP2 SUB SWAP1 RETURN JUMPDEST CALLVALUE DUP1 ISZERO PUSH2 0x723 JUMPI PUSH1 0x0 DUP1 REVERT JUMPDEST POP PUSH2 0x72C PUSH2 0x1638 JUMP JUMPDEST PUSH1 0x40 MLOAD PUSH2 0x739 SWAP2 SWAP1 PUSH2 0x389A JUMP JUMPDEST PUSH1 0x40 MLOAD DUP1 SWAP2 SUB SWAP1 RETURN JUMPDEST CALLVALUE DUP1 ISZERO PUSH2 0x74E JUMPI PUSH1 0x0 DUP1 REVERT JUMPDEST POP PUSH2 0x757 PUSH2 0x163E JUMP JUMPDEST PUSH1 0x40 MLOAD PUSH2 0x764 SWAP2 SWAP1 PUSH2 0x389A JUMP JUMPDEST PUSH1 0x40 MLOAD DUP1 SWAP2 SUB SWAP1 RETURN JUMPDEST CALLVALUE DUP1 ISZERO PUSH2 0x779 JUMPI PUSH1 0x0 DUP1 REVERT JUMPDEST POP PUSH2 0x794 PUSH1 0x4 DUP1 CALLDATASIZE SUB DUP2 ADD SWAP1 PUSH2 0x78F SWAP2 SWAP1 PUSH2 0x39AC JUMP JUMPDEST PUSH2 0x16A2 JUMP JUMPDEST STOP JUMPDEST CALLVALUE DUP1 ISZERO PUSH2 0x7A2 JUMPI PUSH1 0x0 DUP1 REVERT JUMPDEST POP PUSH2 0x7BD PUSH1 0x4 DUP1 CALLDATASIZE SUB DUP2 ADD SWAP1 PUSH2 0x7B8 SWAP2 SWAP1 PUSH2 0x39AC JUMP JUMPDEST PUSH2 0x1761 JUMP JUMPDEST STOP JUMPDEST CALLVALUE DUP1 ISZERO PUSH2 0x7CB JUMPI PUSH1 0x0 DUP1 REVERT JUMPDEST POP PUSH2 0x7D4 PUSH2 0x17FB JUMP JUMPDEST PUSH1 0x40 MLOAD PUSH2 0x7E1 SWAP2 SWAP1 PUSH2 0x389A JUMP JUMPDEST PUSH1 0x40 MLOAD DUP1 SWAP2 SUB SWAP1 RETURN JUMPDEST CALLVALUE DUP1 ISZERO PUSH2 0x7F6 JUMPI PUSH1 0x0 DUP1 REVERT JUMPDEST POP PUSH2 0x7FF PUSH2 0x1801 JUMP JUMPDEST PUSH1 0x40 MLOAD PUSH2 0x80F SWAP5 SWAP4 SWAP3 SWAP2 SWAP1 PUSH2 0x3B01 JUMP JUMPDEST PUSH1 0x40 MLOAD DUP1 SWAP2 SUB SWAP1 RETURN JUMPDEST CALLVALUE DUP1 ISZERO PUSH2 0x824 JUMPI PUSH1 0x0 DUP1 REVERT JUMPDEST POP PUSH2 0x83F PUSH1 0x4 DUP1 CALLDATASIZE SUB DUP2 ADD SWAP1 PUSH2 0x83A SWAP2 SWAP1 PUSH2 0x3B46 JUMP JUMPDEST PUSH2 0x1821 JUMP JUMPDEST PUSH1 0x40 MLOAD PUSH2 0x84C SWAP2 SWAP1 PUSH2 0x389A JUMP JUMPDEST PUSH1 0x40 MLOAD DUP1 SWAP2 SUB SWAP1 RETURN JUMPDEST PUSH2 0x86F PUSH1 0x4 DUP1 CALLDATASIZE SUB DUP2 ADD SWAP1 PUSH2 0x86A SWAP2 SWAP1 PUSH2 0x3AAA JUMP JUMPDEST PUSH2 0x1908 JUMP JUMPDEST STOP JUMPDEST CALLVALUE DUP1 ISZERO PUSH2 0x87D JUMPI PUSH1 0x0 DUP1 REVERT JUMPDEST POP PUSH2 0x898 PUSH1 0x4 DUP1 CALLDATASIZE SUB DUP2 ADD SWAP1 PUSH2 0x893 SWAP2 SWAP1 PUSH2 0x39AC JUMP JUMPDEST PUSH2 0x1D4C JUMP JUMPDEST STOP JUMPDEST CALLVALUE DUP1 ISZERO PUSH2 0x8A6 JUMPI PUSH1 0x0 DUP1 REVERT JUMPDEST POP PUSH2 0x8AF PUSH2 0x1E01 JUMP JUMPDEST STOP JUMPDEST CALLVALUE DUP1 ISZERO PUSH2 0x8BD JUMPI PUSH1 0x0 DUP1 REVERT JUMPDEST POP PUSH2 0x8C6 PUSH2 0x20BF JUMP JUMPDEST PUSH1 0x40 MLOAD PUSH2 0x8D3 SWAP2 SWAP1 PUSH2 0x389A JUMP JUMPDEST PUSH1 0x40 MLOAD DUP1 SWAP2 SUB SWAP1 RETURN JUMPDEST CALLVALUE DUP1 ISZERO PUSH2 0x8E8 JUMPI PUSH1 0x0 DUP1 REVERT JUMPDEST POP PUSH2 0x903 PUSH1 0x4 DUP1 CALLDATASIZE SUB DUP2 ADD SWAP1 PUSH2 0x8FE SWAP2 SWAP1 PUSH2 0x3AAA JUMP JUMPDEST PUSH2 0x20C5 JUMP JUMPDEST PUSH1 0x40 MLOAD PUSH2 0x91B SWAP13 SWAP12 SWAP11 SWAP10 SWAP9 SWAP8 SWAP7 SWAP6 SWAP5 SWAP4 SWAP3 SWAP2 SWAP1 PUSH2 0x3B95 JUMP JUMPDEST PUSH1 0x40 MLOAD DUP1 SWAP2 SUB SWAP1 RETURN JUMPDEST CALLVALUE DUP1 ISZERO PUSH2 0x930 JUMPI PUSH1 0x0 DUP1 REVERT JUMPDEST POP PUSH2 0x94B PUSH1 0x4 DUP1 CALLDATASIZE SUB DUP2 ADD SWAP1 PUSH2 0x946 SWAP2 SWAP1 PUSH2 0x3AAA JUMP JUMPDEST PUSH2 0x2442 JUMP JUMPDEST PUSH1 0x40 MLOAD PUSH2 0x958 SWAP2 SWAP1 PUSH2 0x389A JUMP JUMPDEST PUSH1 0x40 MLOAD DUP1 SWAP2 SUB SWAP1 RETURN JUMPDEST CALLVALUE DUP1 ISZERO PUSH2 0x96D JUMPI PUSH1 0x0 DUP1 REVERT JUMPDEST POP PUSH2 0x976 PUSH2 0x24B5 JUMP JUMPDEST PUSH1 0x40 MLOAD PUSH2 0x983 SWAP2 SWAP1 PUSH2 0x389A JUMP JUMPDEST PUSH1 0x40 MLOAD DUP1 SWAP2 SUB SWAP1 RETURN JUMPDEST CALLVALUE DUP1 ISZERO PUSH2 0x998 JUMPI PUSH1 0x0 DUP1 REVERT JUMPDEST POP PUSH2 0x9A1 PUSH2 0x24BB JUMP JUMPDEST PUSH1 0x40 MLOAD PUSH2 0x9AE SWAP2 SWAP1 PUSH2 0x389A JUMP JUMPDEST PUSH1 0x40 MLOAD DUP1 SWAP2 SUB SWAP1 RETURN JUMPDEST CALLVALUE DUP1 ISZERO PUSH2 0x9C3 JUMPI PUSH1 0x0 DUP1 REVERT JUMPDEST POP PUSH2 0x9DE PUSH1 0x4 DUP1 CALLDATASIZE SUB DUP2 ADD SWAP1 PUSH2 0x9D9 SWAP2 SWAP1 PUSH2 0x39AC JUMP JUMPDEST PUSH2 0x24C1 JUMP JUMPDEST STOP JUMPDEST CALLVALUE DUP1 ISZERO PUSH2 0x9EC JUMPI PUSH1 0x0 DUP1 REVERT JUMPDEST POP PUSH2 0x9F5 PUSH2 0x2577 JUMP JUMPDEST PUSH1 0x40 MLOAD PUSH2 0xA02 SWAP2 SWAP1 PUSH2 0x389A JUMP JUMPDEST PUSH1 0x40 MLOAD DUP1 SWAP2 SUB SWAP1 RETURN JUMPDEST CALLVALUE DUP1 ISZERO PUSH2 0xA17 JUMPI PUSH1 0x0 DUP1 REVERT JUMPDEST POP PUSH2 0xA32 PUSH1 0x4 DUP1 CALLDATASIZE SUB DUP2 ADD SWAP1 PUSH2 0xA2D SWAP2 SWAP1 PUSH2 0x39AC JUMP JUMPDEST PUSH2 0x257D JUMP JUMPDEST STOP JUMPDEST CALLVALUE DUP1 ISZERO PUSH2 0xA40 JUMPI PUSH1 0x0 DUP1 REVERT JUMPDEST POP PUSH2 0xA5B PUSH1 0x4 DUP1 CALLDATASIZE SUB DUP2 ADD SWAP1 PUSH2 0xA56 SWAP2 SWAP1 PUSH2 0x39AC JUMP JUMPDEST PUSH2 0x2625 JUMP JUMPDEST STOP JUMPDEST CALLVALUE DUP1 ISZERO PUSH2 0xA69 JUMPI PUSH1 0x0 DUP1 REVERT JUMPDEST POP PUSH2 0xA72 PUSH2 0x26D6 JUMP JUMPDEST PUSH1 0x40 MLOAD PUSH2 0xA7F SWAP2 SWAP1 PUSH2 0x38F6 JUMP JUMPDEST PUSH1 0x40 MLOAD DUP1 SWAP2 SUB SWAP1 RETURN JUMPDEST CALLVALUE DUP1 ISZERO PUSH2 0xA94 JUMPI PUSH1 0x0 DUP1 REVERT JUMPDEST POP PUSH2 0xA9D PUSH2 0x26FC JUMP JUMPDEST PUSH1 0x40 MLOAD PUSH2 0xAAA SWAP2 SWAP1 PUSH2 0x389A JUMP JUMPDEST PUSH1 0x40 MLOAD DUP1 SWAP2 SUB SWAP1 RETURN JUMPDEST CALLVALUE DUP1 ISZERO PUSH2 0xABF JUMPI PUSH1 0x0 DUP1 REVERT JUMPDEST POP PUSH2 0xAC8 PUSH2 0x2702 JUMP JUMPDEST PUSH1 0x40 MLOAD PUSH2 0xAD5 SWAP2 SWAP1 PUSH2 0x389A JUMP JUMPDEST PUSH1 0x40 MLOAD DUP1 SWAP2 SUB SWAP1 RETURN JUMPDEST CALLVALUE DUP1 ISZERO PUSH2 0xAEA JUMPI PUSH1 0x0 DUP1 REVERT JUMPDEST POP PUSH2 0xB05 PUSH1 0x4 DUP1 CALLDATASIZE SUB DUP2 ADD SWAP1 PUSH2 0xB00 SWAP2 SWAP1 PUSH2 0x39AC JUMP JUMPDEST PUSH2 0x2708 JUMP JUMPDEST PUSH1 0x40 MLOAD PUSH2 0xB12 SWAP2 SWAP1 PUSH2 0x389A JUMP JUMPDEST PUSH1 0x40 MLOAD DUP1 SWAP2 SUB SWAP1 RETURN JUMPDEST CALLVALUE DUP1 ISZERO PUSH2 0xB27 JUMPI PUSH1 0x0 DUP1 REVERT JUMPDEST POP PUSH2 0xB42 PUSH1 0x4 DUP1 CALLDATASIZE SUB DUP2 ADD SWAP1 PUSH2 0xB3D SWAP2 SWAP1 PUSH2 0x39AC JUMP JUMPDEST PUSH2 0x2722 JUMP JUMPDEST STOP JUMPDEST CALLVALUE DUP1 ISZERO PUSH2 0xB50 JUMPI PUSH1 0x0 DUP1 REVERT JUMPDEST POP PUSH2 0xB59 PUSH2 0x27DD JUMP JUMPDEST PUSH1 0x40 MLOAD PUSH2 0xB66 SWAP2 SWAP1 PUSH2 0x38F6 JUMP JUMPDEST PUSH1 0x40 MLOAD DUP1 SWAP2 SUB SWAP1 RETURN JUMPDEST CALLVALUE DUP1 ISZERO PUSH2 0xB7B JUMPI PUSH1 0x0 DUP1 REVERT JUMPDEST POP PUSH2 0xB84 PUSH2 0x2803 JUMP JUMPDEST PUSH1 0x40 MLOAD PUSH2 0xB91 SWAP2 SWAP1 PUSH2 0x389A JUMP JUMPDEST PUSH1 0x40 MLOAD DUP1 SWAP2 SUB SWAP1 RETURN JUMPDEST CALLVALUE DUP1 ISZERO PUSH2 0xBA6 JUMPI PUSH1 0x0 DUP1 REVERT JUMPDEST POP PUSH2 0xBAF PUSH2 0x2809 JUMP JUMPDEST PUSH1 0x40 MLOAD PUSH2 0xBBC SWAP2 SWAP1 PUSH2 0x38F6 JUMP JUMPDEST PUSH1 0x40 MLOAD DUP1 SWAP2 SUB SWAP1 RETURN JUMPDEST CALLVALUE DUP1 ISZERO PUSH2 0xBD1 JUMPI PUSH1 0x0 DUP1 REVERT JUMPDEST POP PUSH2 0xBDA PUSH2 0x282F JUMP JUMPDEST PUSH1 0x40 MLOAD PUSH2 0xBE7 SWAP2 SWAP1 PUSH2 0x3C4F JUMP JUMPDEST PUSH1 0x40 MLOAD DUP1 SWAP2 SUB SWAP1 RETURN JUMPDEST CALLVALUE DUP1 ISZERO PUSH2 0xBFC JUMPI PUSH1 0x0 DUP1 REVERT JUMPDEST POP PUSH2 0xC17 PUSH1 0x4 DUP1 CALLDATASIZE SUB DUP2 ADD SWAP1 PUSH2 0xC12 SWAP2 SWAP1 PUSH2 0x39AC JUMP JUMPDEST PUSH2 0x2855 JUMP JUMPDEST PUSH1 0x40 MLOAD PUSH2 0xC24 SWAP2 SWAP1 PUSH2 0x389A JUMP JUMPDEST PUSH1 0x40 MLOAD DUP1 SWAP2 SUB SWAP1 RETURN JUMPDEST CALLVALUE DUP1 ISZERO PUSH2 0xC39 JUMPI PUSH1 0x0 DUP1 REVERT JUMPDEST POP PUSH2 0xC42 PUSH2 0x2872 JUMP JUMPDEST PUSH1 0x40 MLOAD PUSH2 0xC4F SWAP2 SWAP1 PUSH2 0x389A JUMP JUMPDEST PUSH1 0x40 MLOAD DUP1 SWAP2 SUB SWAP1 RETURN JUMPDEST CALLVALUE DUP1 ISZERO PUSH2 0xC64 JUMPI PUSH1 0x0 DUP1 REVERT JUMPDEST POP PUSH2 0xC7F PUSH1 0x4 DUP1 CALLDATASIZE SUB DUP2 ADD SWAP1 PUSH2 0xC7A SWAP2 SWAP1 PUSH2 0x39AC JUMP JUMPDEST PUSH2 0x2878 JUMP JUMPDEST STOP JUMPDEST CALLVALUE DUP1 ISZERO PUSH2 0xC8D JUMPI PUSH1 0x0 DUP1 REVERT JUMPDEST POP PUSH2 0xCA8 PUSH1 0x4 DUP1 CALLDATASIZE SUB DUP2 ADD SWAP1 PUSH2 0xCA3 SWAP2 SWAP1 PUSH2 0x39AC JUMP JUMPDEST PUSH2 0x2937 JUMP JUMPDEST STOP JUMPDEST CALLVALUE DUP1 ISZERO PUSH2 0xCB6 JUMPI PUSH1 0x0 DUP1 REVERT JUMPDEST POP PUSH2 0xCD1 PUSH1 0x4 DUP1 CALLDATASIZE SUB DUP2 ADD SWAP1 PUSH2 0xCCC SWAP2 SWAP1 PUSH2 0x3953 JUMP JUMPDEST PUSH2 0x29DF JUMP JUMPDEST STOP JUMPDEST CALLVALUE DUP1 ISZERO PUSH2 0xCDF JUMPI PUSH1 0x0 DUP1 REVERT JUMPDEST POP PUSH2 0xCE8 PUSH2 0x2A8C JUMP JUMPDEST PUSH1 0x40 MLOAD PUSH2 0xCF5 SWAP2 SWAP1 PUSH2 0x38F6 JUMP JUMPDEST PUSH1 0x40 MLOAD DUP1 SWAP2 SUB SWAP1 RETURN JUMPDEST CALLVALUE DUP1 ISZERO PUSH2 0xD0A JUMPI PUSH1 0x0 DUP1 REVERT JUMPDEST POP PUSH2 0xD25 PUSH1 0x4 DUP1 CALLDATASIZE SUB DUP2 ADD SWAP1 PUSH2 0xD20 SWAP2 SWAP1 PUSH2 0x3AAA JUMP JUMPDEST PUSH2 0x2AB2 JUMP JUMPDEST PUSH1 0x40 MLOAD PUSH2 0xD3D SWAP13 SWAP12 SWAP11 SWAP10 SWAP9 SWAP8 SWAP7 SWAP6 SWAP5 SWAP4 SWAP3 SWAP2 SWAP1 PUSH2 0x3B95 JUMP JUMPDEST PUSH1 0x40 MLOAD DUP1 SWAP2 SUB SWAP1 RETURN JUMPDEST CALLVALUE DUP1 ISZERO PUSH2 0xD52 JUMPI PUSH1 0x0 DUP1 REVERT JUMPDEST POP PUSH2 0xD6D PUSH1 0x4 DUP1 CALLDATASIZE SUB DUP2 ADD SWAP1 PUSH2 0xD68 SWAP2 SWAP1 PUSH2 0x3AAA JUMP JUMPDEST PUSH2 0x2B32 JUMP JUMPDEST PUSH1 0x40 MLOAD PUSH2 0xD7A SWAP2 SWAP1 PUSH2 0x389A JUMP JUMPDEST PUSH1 0x40 MLOAD DUP1 SWAP2 SUB SWAP1 RETURN JUMPDEST CALLVALUE DUP1 ISZERO PUSH2 0xD8F JUMPI PUSH1 0x0 DUP1 REVERT JUMPDEST POP PUSH2 0xD98 PUSH2 0x2B4A JUMP JUMPDEST PUSH1 0x40 MLOAD PUSH2 0xDA5 SWAP2 SWAP1 PUSH2 0x3AE6 JUMP JUMPDEST PUSH1 0x40 MLOAD DUP1 SWAP2 SUB SWAP1 RETURN JUMPDEST PUSH2 0xDB6 PUSH2 0x2B5D JUMP JUMPDEST STOP JUMPDEST CALLVALUE DUP1 ISZERO PUSH2 0xDC4 JUMPI PUSH1 0x0 DUP1 REVERT JUMPDEST POP PUSH2 0xDDF PUSH1 0x4 DUP1 CALLDATASIZE SUB DUP2 ADD SWAP1 PUSH2 0xDDA SWAP2 SWAP1 PUSH2 0x39AC JUMP JUMPDEST PUSH2 0x2B5F JUMP JUMPDEST PUSH1 0x40 MLOAD PUSH2 0xDED SWAP3 SWAP2 SWAP1 PUSH2 0x3C6A JUMP JUMPDEST PUSH1 0x40 MLOAD DUP1 SWAP2 SUB SWAP1 RETURN JUMPDEST CALLVALUE DUP1 ISZERO PUSH2 0xE02 JUMPI PUSH1 0x0 DUP1 REVERT JUMPDEST POP PUSH2 0xE1D PUSH1 0x4 DUP1 CALLDATASIZE SUB DUP2 ADD SWAP1 PUSH2 0xE18 SWAP2 SWAP1 PUSH2 0x39AC JUMP JUMPDEST PUSH2 0x2BF1 JUMP JUMPDEST STOP JUMPDEST CALLVALUE DUP1 ISZERO PUSH2 0xE2B JUMPI PUSH1 0x0 DUP1 REVERT JUMPDEST POP PUSH2 0xE46 PUSH1 0x4 DUP1 CALLDATASIZE SUB DUP2 ADD SWAP1 PUSH2 0xE41 SWAP2 SWAP1 PUSH2 0x3AAA JUMP JUMPDEST PUSH2 0x2C9A JUMP JUMPDEST PUSH1 0x40 MLOAD PUSH2 0xE53 SWAP2 SWAP1 PUSH2 0x3AE6 JUMP JUMPDEST PUSH1 0x40 MLOAD DUP1 SWAP2 SUB SWAP1 RETURN JUMPDEST CALLVALUE DUP1 ISZERO PUSH2 0xE68 JUMPI PUSH1 0x0 DUP1 REVERT JUMPDEST POP PUSH2 0xE71 PUSH2 0x2D80 JUMP JUMPDEST PUSH1 0x40 MLOAD PUSH2 0xE7E SWAP2 SWAP1 PUSH2 0x389A JUMP JUMPDEST PUSH1 0x40 MLOAD DUP1 SWAP2 SUB SWAP1 RETURN JUMPDEST CALLVALUE DUP1 ISZERO PUSH2 0xE93 JUMPI PUSH1 0x0 DUP1 REVERT JUMPDEST POP PUSH2 0xE9C PUSH2 0x2D86 JUMP JUMPDEST PUSH1 0x40 MLOAD PUSH2 0xEA9 SWAP2 SWAP1 PUSH2 0x389A JUMP JUMPDEST PUSH1 0x40 MLOAD DUP1 SWAP2 SUB SWAP1 RETURN JUMPDEST CALLVALUE DUP1 ISZERO PUSH2 0xEBE JUMPI PUSH1 0x0 DUP1 REVERT JUMPDEST POP PUSH2 0xED9 PUSH1 0x4 DUP1 CALLDATASIZE SUB DUP2 ADD SWAP1 PUSH2 0xED4 SWAP2 SWAP1 PUSH2 0x3A2C JUMP JUMPDEST PUSH2 0x2D8C JUMP JUMPDEST PUSH1 0x40 MLOAD PUSH2 0xEE6 SWAP2 SWAP1 PUSH2 0x389A JUMP JUMPDEST PUSH1 0x40 MLOAD DUP1 SWAP2 SUB SWAP1 RETURN JUMPDEST CALLVALUE DUP1 ISZERO PUSH2 0xEFB JUMPI PUSH1 0x0 DUP1 REVERT JUMPDEST POP PUSH2 0xF04 PUSH2 0x2DBC JUMP JUMPDEST PUSH1 0x40 MLOAD PUSH2 0xF11 SWAP2 SWAP1 PUSH2 0x389A JUMP JUMPDEST PUSH1 0x40 MLOAD DUP1 SWAP2 SUB SWAP1 RETURN JUMPDEST CALLVALUE DUP1 ISZERO PUSH2 0xF26 JUMPI PUSH1 0x0 DUP1 REVERT JUMPDEST POP PUSH2 0xF2F PUSH2 0x2DC2 JUMP JUMPDEST PUSH1 0x40 MLOAD PUSH2 0xF3C SWAP2 SWAP1 PUSH2 0x389A JUMP JUMPDEST PUSH1 0x40 MLOAD DUP1 SWAP2 SUB SWAP1 RETURN JUMPDEST CALLVALUE DUP1 ISZERO PUSH2 0xF51 JUMPI PUSH1 0x0 DUP1 REVERT JUMPDEST POP PUSH2 0xF6C PUSH1 0x4 DUP1 CALLDATASIZE SUB DUP2 ADD SWAP1 PUSH2 0xF67 SWAP2 SWAP1 PUSH2 0x3AAA JUMP JUMPDEST PUSH2 0x2DC8 JUMP JUMPDEST PUSH1 0x40 MLOAD PUSH2 0xF79 SWAP2 SWAP1 PUSH2 0x389A JUMP JUMPDEST PUSH1 0x40 MLOAD DUP1 SWAP2 SUB SWAP1 RETURN JUMPDEST CALLVALUE DUP1 ISZERO PUSH2 0xF8E JUMPI PUSH1 0x0 DUP1 REVERT JUMPDEST POP PUSH2 0xFA9 PUSH1 0x4 DUP1 CALLDATASIZE SUB DUP2 ADD SWAP1 PUSH2 0xFA4 SWAP2 SWAP1 PUSH2 0x3C93 JUMP JUMPDEST PUSH2 0x2EA1 JUMP JUMPDEST STOP JUMPDEST CALLVALUE DUP1 ISZERO PUSH2 0xFB7 JUMPI PUSH1 0x0 DUP1 REVERT JUMPDEST POP PUSH2 0xFC0 PUSH2 0x2F8C JUMP JUMPDEST PUSH1 0x40 MLOAD PUSH2 0xFCD SWAP2 SWAP1 PUSH2 0x389A JUMP JUMPDEST PUSH1 0x40 MLOAD DUP1 SWAP2 SUB SWAP1 RETURN JUMPDEST PUSH2 0xFF0 PUSH1 0x4 DUP1 CALLDATASIZE SUB DUP2 ADD SWAP1 PUSH2 0xFEB SWAP2 SWAP1 PUSH2 0x3AAA JUMP JUMPDEST PUSH2 0x2F94 JUMP JUMPDEST STOP JUMPDEST CALLVALUE DUP1 ISZERO PUSH2 0xFFE JUMPI PUSH1 0x0 DUP1 REVERT JUMPDEST POP PUSH2 0x1019 PUSH1 0x4 DUP1 CALLDATASIZE SUB DUP2 ADD SWAP1 PUSH2 0x1014 SWAP2 SWAP1 PUSH2 0x39AC JUMP JUMPDEST PUSH2 0x3081 JUMP JUMPDEST STOP JUMPDEST CALLVALUE DUP1 ISZERO PUSH2 0x1027 JUMPI PUSH1 0x0 DUP1 REVERT JUMPDEST POP PUSH2 0x1042 PUSH1 0x4 DUP1 CALLDATASIZE SUB DUP2 ADD SWAP1 PUSH2 0x103D SWAP2 SWAP1 PUSH2 0x39AC JUMP JUMPDEST PUSH2 0x313A JUMP JUMPDEST STOP JUMPDEST CALLVALUE DUP1 ISZERO PUSH2 0x1050 JUMPI PUSH1 0x0 DUP1 REVERT JUMPDEST POP PUSH2 0x106B PUSH1 0x4 DUP1 CALLDATASIZE SUB DUP2 ADD SWAP1 PUSH2 0x1066 SWAP2 SWAP1 PUSH2 0x3D38 JUMP JUMPDEST PUSH2 0x31E2 JUMP JUMPDEST STOP JUMPDEST CALLVALUE DUP1 ISZERO PUSH2 0x1079 JUMPI PUSH1 0x0 DUP1 REVERT JUMPDEST POP PUSH2 0x1082 PUSH2 0x3317 JUMP JUMPDEST PUSH1 0x40 MLOAD PUSH2 0x108F SWAP2 SWAP1 PUSH2 0x389A JUMP JUMPDEST PUSH1 0x40 MLOAD DUP1 SWAP2 SUB SWAP1 RETURN JUMPDEST CALLVALUE DUP1 ISZERO PUSH2 0x10A4 JUMPI PUSH1 0x0 DUP1 REVERT JUMPDEST POP PUSH2 0x10BF PUSH1 0x4 DUP1 CALLDATASIZE SUB DUP2 ADD SWAP1 PUSH2 0x10BA SWAP2 SWAP1 PUSH2 0x3AAA JUMP JUMPDEST PUSH2 0x331D JUMP JUMPDEST PUSH1 0x40 MLOAD PUSH2 0x10CC SWAP2 SWAP1 PUSH2 0x3AE6 JUMP JUMPDEST PUSH1 0x40 MLOAD DUP1 SWAP2 SUB SWAP1 RETURN JUMPDEST PUSH1 0x2 SLOAD DUP2 JUMP JUMPDEST PUSH1 0xB SLOAD DUP2 JUMP JUMPDEST PUSH1 0x1E PUSH1 0x0 SWAP1 SLOAD SWAP1 PUSH2 0x100 EXP SWAP1 DIV PUSH20 0xFFFFFFFFFFFFFFFFFFFFFFFFFFFFFFFFFFFFFFFF AND DUP2 JUMP JUMPDEST PUSH1 0x0 PUSH1 0x21 PUSH1 0x0 CALLER PUSH20 0xFFFFFFFFFFFFFFFFFFFFFFFFFFFFFFFFFFFFFFFF AND PUSH20 0xFFFFFFFFFFFFFFFFFFFFFFFFFFFFFFFFFFFFFFFF AND DUP2 MSTORE PUSH1 0x20 ADD SWAP1 DUP2 MSTORE PUSH1 0x20 ADD PUSH1 0x0 KECCAK256 PUSH1 0x2 ADD SLOAD SWAP1 POP SWAP1 JUMP JUMPDEST PUSH1 0x0 SELFBALANCE SWAP1 POP SWAP1 JUMP JUMPDEST PUSH1 0x7 SLOAD DUP2 JUMP JUMPDEST PUSH1 0x0 PUSH1 0x21 PUSH1 0x0 CALLER PUSH20 0xFFFFFFFFFFFFFFFFFFFFFFFFFFFFFFFFFFFFFFFF AND PUSH20 0xFFFFFFFFFFFFFFFFFFFFFFFFFFFFFFFFFFFFFFFF AND DUP2 MSTORE PUSH1 0x20 ADD SWAP1 DUP2 MSTORE PUSH1 0x20 ADD PUSH1 0x0 KECCAK256 SWAP1 POP PUSH1 0x15 PUSH1 0x0 SWAP1 SLOAD SWAP1 PUSH2 0x100 EXP SWAP1 DIV PUSH1 0xFF AND PUSH2 0x11F1 JUMPI PUSH1 0x40 MLOAD PUSH32 0x8C379A000000000000000000000000000000000000000000000000000000000 DUP2 MSTORE PUSH1 0x4 ADD PUSH2 0x11E8 SWAP1 PUSH2 0x3DF5 JUMP JUMPDEST PUSH1 0x40 MLOAD DUP1 SWAP2 SUB SWAP1 REVERT JUMPDEST PUSH1 0x0 PUSH2 0x11FB PUSH2 0x163E JUMP JUMPDEST SWAP1 POP PUSH1 0x0 DUP2 SWAP1 POP DUP4 ISZERO PUSH2 0x1275 JUMPI PUSH1 0x0 PUSH2 0x1214 CALLER DUP4 PUSH2 0x1821 JUMP JUMPDEST SWAP1 POP PUSH2 0x1229 DUP2 DUP4 PUSH2 0x333D SWAP1 SWAP2 SWAP1 PUSH4 0xFFFFFFFF AND JUMP JUMPDEST SWAP2 POP PUSH1 0x0 PUSH2 0x1236 DUP4 PUSH2 0x2855 JUMP JUMPDEST SWAP1 POP PUSH2 0x124F DUP2 DUP7 PUSH1 0x1 ADD SLOAD PUSH2 0x333D SWAP1 SWAP2 SWAP1 PUSH4 0xFFFFFFFF AND JUMP JUMPDEST DUP6 PUSH1 0x1 ADD DUP2 SWAP1 SSTORE POP PUSH2 0x126C DUP2 PUSH1 0xF SLOAD PUSH2 0x333D SWAP1 SWAP2 SWAP1 PUSH4 0xFFFFFFFF AND JUMP JUMPDEST PUSH1 0xF DUP2 SWAP1 SSTORE POP POP POP JUMPDEST PUSH1 0xA SLOAD PUSH2 0x128F DUP5 PUSH1 0x4 ADD SLOAD TIMESTAMP PUSH2 0x3369 SWAP1 SWAP2 SWAP1 PUSH4 0xFFFFFFFF AND JUMP JUMPDEST LT PUSH2 0x12E4 JUMPI PUSH1 0x9 SLOAD DUP4 PUSH1 0x9 ADD SLOAD LT ISZERO PUSH2 0x12C3 JUMPI PUSH2 0x12BA PUSH1 0x1 DUP5 PUSH1 0x9 ADD SLOAD PUSH2 0x333D SWAP1 SWAP2 SWAP1 PUSH4 0xFFFFFFFF AND JUMP JUMPDEST DUP4 PUSH1 0x9 ADD DUP2 SWAP1 SSTORE POP JUMPDEST PUSH2 0x12DB PUSH1 0x1 DUP5 PUSH1 0xA ADD SLOAD PUSH2 0x333D SWAP1 SWAP2 SWAP1 PUSH4 0xFFFFFFFF AND JUMP JUMPDEST DUP4 PUSH1 0xA ADD DUP2 SWAP1 SSTORE POP JUMPDEST PUSH2 0x130F PUSH2 0x12FC PUSH1 0x0 SLOAD DUP4 PUSH2 0x3390 SWAP1 SWAP2 SWAP1 PUSH4 0xFFFFFFFF AND JUMP JUMPDEST DUP5 PUSH1 0x2 ADD SLOAD PUSH2 0x333D SWAP1 SWAP2 SWAP1 PUSH4 0xFFFFFFFF AND JUMP JUMPDEST DUP4 PUSH1 0x2 ADD DUP2 SWAP1 SSTORE POP PUSH1 0x0 DUP4 PUSH1 0x3 ADD DUP2 SWAP1 SSTORE POP TIMESTAMP DUP4 PUSH1 0x4 ADD DUP2 SWAP1 SSTORE POP PUSH2 0x1353 PUSH2 0x1342 PUSH1 0x5 SLOAD DUP5 PUSH2 0x3390 SWAP1 SWAP2 SWAP1 PUSH4 0xFFFFFFFF AND JUMP JUMPDEST PUSH1 0x12 SLOAD PUSH2 0x333D SWAP1 SWAP2 SWAP1 PUSH4 0xFFFFFFFF AND JUMP JUMPDEST PUSH1 0x12 DUP2 SWAP1 SSTORE POP POP POP POP POP JUMP JUMPDEST PUSH1 0x0 SLOAD DUP2 JUMP JUMPDEST PUSH1 0x1A PUSH1 0x0 SWAP1 SLOAD SWAP1 PUSH2 0x100 EXP SWAP1 DIV PUSH20 0xFFFFFFFFFFFFFFFFFFFFFFFFFFFFFFFFFFFFFFFF AND PUSH20 0xFFFFFFFFFFFFFFFFFFFFFFFFFFFFFFFFFFFFFFFF AND CALLER PUSH20 0xFFFFFFFFFFFFFFFFFFFFFFFFFFFFFFFFFFFFFFFF AND EQ PUSH2 0x13F5 JUMPI PUSH1 0x40 MLOAD PUSH32 0x8C379A000000000000000000000000000000000000000000000000000000000 DUP2 MSTORE PUSH1 0x4 ADD PUSH2 0x13EC SWAP1 PUSH2 0x3E61 JUMP JUMPDEST PUSH1 0x40 MLOAD DUP1 SWAP2 SUB SWAP1 REVERT JUMPDEST PUSH1 0x14 DUP2 GT ISZERO PUSH2 0x1403 JUMPI PUSH1 0x0 DUP1 REVERT JUMPDEST DUP1 PUSH1 0x4 DUP2 SWAP1 SSTORE POP POP JUMP JUMPDEST PUSH1 0x0 PUSH2 0x1457 PUSH2 0x141E PUSH1 0x13 SLOAD DUP5 PUSH2 0x33AB JUMP JUMPDEST PUSH2 0x1452 PUSH1 0x14 SLOAD PUSH2 0x144D PUSH2 0x1447 PUSH2 0x1436 PUSH1 0x13 SLOAD DUP11 PUSH2 0x33AB JUMP JUMPDEST PUSH2 0x1442 PUSH1 0x14 SLOAD DUP13 PUSH2 0x33AB JUMP JUMPDEST PUSH2 0x333D JUMP JUMPDEST DUP10 PUSH2 0x3390 JUMP JUMPDEST PUSH2 0x333D JUMP JUMPDEST PUSH2 0x3390 JUMP JUMPDEST SWAP1 POP SWAP4 SWAP3 POP POP POP JUMP JUMPDEST PUSH1 0x1D PUSH1 0x0 SWAP1 SLOAD SWAP1 PUSH2 0x100 EXP SWAP1 DIV PUSH20 0xFFFFFFFFFFFFFFFFFFFFFFFFFFFFFFFFFFFFFFFF AND DUP2 JUMP JUMPDEST PUSH1 0x0 PUSH2 0x1495 DUP4 DUP4 PUSH1 0x12 SLOAD PUSH2 0x140D JUMP JUMPDEST SWAP1 POP SWAP3 SWAP2 POP POP JUMP JUMPDEST PUSH1 0x1A PUSH1 0x0 SWAP1 SLOAD SWAP1 PUSH2 0x100 EXP SWAP1 DIV PUSH20 0xFFFFFFFFFFFFFFFFFFFFFFFFFFFFFFFFFFFFFFFF AND PUSH20 0xFFFFFFFFFFFFFFFFFFFFFFFFFFFFFFFFFFFFFFFF AND CALLER PUSH20 0xFFFFFFFFFFFFFFFFFFFFFFFFFFFFFFFFFFFFFFFF AND EQ PUSH2 0x152D JUMPI PUSH1 0x40 MLOAD PUSH32 0x8C379A000000000000000000000000000000000000000000000000000000000 DUP2 MSTORE PUSH1 0x4 ADD PUSH2 0x1524 SWAP1 PUSH2 0x3E61 JUMP JUMPDEST PUSH1 0x40 MLOAD DUP1 SWAP2 SUB SWAP1 REVERT JUMPDEST PUSH1 0xF DUP2 GT ISZERO PUSH2 0x153B JUMPI PUSH1 0x0 DUP1 REVERT JUMPDEST DUP1 PUSH1 0x3 DUP2 SWAP1 SSTORE POP POP JUMP JUMPDEST PUSH1 0x1A PUSH1 0x0 SWAP1 SLOAD SWAP1 PUSH2 0x100 EXP SWAP1 DIV PUSH20 0xFFFFFFFFFFFFFFFFFFFFFFFFFFFFFFFFFFFFFFFF AND PUSH20 0xFFFFFFFFFFFFFFFFFFFFFFFFFFFFFFFFFFFFFFFF AND CALLER PUSH20 0xFFFFFFFFFFFFFFFFFFFFFFFFFFFFFFFFFFFFFFFF AND EQ PUSH2 0x15D5 JUMPI PUSH1 0x40 MLOAD PUSH32 0x8C379A000000000000000000000000000000000000000000000000000000000 DUP2 MSTORE PUSH1 0x4 ADD PUSH2 0x15CC SWAP1 PUSH2 0x3E61 JUMP JUMPDEST PUSH1 0x40 MLOAD DUP1 SWAP2 SUB SWAP1 REVERT JUMPDEST DUP1 PUSH1 0x1A PUSH1 0x0 PUSH2 0x100 EXP DUP2 SLOAD DUP2 PUSH20 0xFFFFFFFFFFFFFFFFFFFFFFFFFFFFFFFFFFFFFFFF MUL NOT AND SWAP1 DUP4 PUSH20 0xFFFFFFFFFFFFFFFFFFFFFFFFFFFFFFFFFFFFFFFF AND MUL OR SWAP1 SSTORE POP POP JUMP JUMPDEST PUSH1 0x4 SLOAD DUP2 JUMP JUMPDEST PUSH1 0x12 SLOAD DUP2 JUMP JUMPDEST PUSH1 0x15 PUSH1 0x0 SWAP1 SLOAD SWAP1 PUSH2 0x100 EXP SWAP1 DIV PUSH1 0xFF AND DUP2 JUMP JUMPDEST PUSH1 0x18 SLOAD DUP2 JUMP JUMPDEST PUSH1 0x0 PUSH2 0x169D PUSH2 0x164C CALLER PUSH2 0x2DC8 JUMP JUMPDEST PUSH1 0x21 PUSH1 0x0 CALLER PUSH20 0xFFFFFFFFFFFFFFFFFFFFFFFFFFFFFFFFFFFFFFFF AND PUSH20 0xFFFFFFFFFFFFFFFFFFFFFFFFFFFFFFFFFFFFFFFF AND DUP2 MSTORE PUSH1 0x20 ADD SWAP1 DUP2 MSTORE PUSH1 0x20 ADD PUSH1 0x0 KECCAK256 PUSH1 0x3 ADD SLOAD PUSH2 0x333D SWAP1 SWAP2 SWAP1 PUSH4 0xFFFFFFFF AND JUMP JUMPDEST SWAP1 POP SWAP1 JUMP JUMPDEST PUSH1 0x1A PUSH1 0x0 SWAP1 SLOAD SWAP1 PUSH2 0x100 EXP SWAP1 DIV PUSH20 0xFFFFFFFFFFFFFFFFFFFFFFFFFFFFFFFFFFFFFFFF AND PUSH20 0xFFFFFFFFFFFFFFFFFFFFFFFFFFFFFFFFFFFFFFFF AND CALLER PUSH20 0xFFFFFFFFFFFFFFFFFFFFFFFFFFFFFFFFFFFFFFFF AND EQ PUSH2 0x1732 JUMPI PUSH1 0x40 MLOAD PUSH32 0x8C379A000000000000000000000000000000000000000000000000000000000 DUP2 MSTORE PUSH1 0x4 ADD PUSH2 0x1729 SWAP1 PUSH2 0x3ECD JUMP JUMPDEST PUSH1 0x40 MLOAD DUP1 SWAP2 SUB SWAP1 REVERT JUMPDEST PUSH1 0x18 DUP2 GT ISZERO PUSH2 0x1740 JUMPI PUSH1 0x0 DUP1 REVERT JUMPDEST PUSH1 0x3C DUP1 DUP3 PUSH2 0x174E SWAP2 SWAP1 PUSH2 0x3F1C JUMP JUMPDEST PUSH2 0x1758 SWAP2 SWAP1 PUSH2 0x3F1C JUMP JUMPDEST PUSH1 0x19 DUP2 SWAP1 SSTORE POP POP JUMP JUMPDEST PUSH1 0x1A PUSH1 0x0 SWAP1 SLOAD SWAP1 PUSH2 0x100 EXP SWAP1 DIV PUSH20 0xFFFFFFFFFFFFFFFFFFFFFFFFFFFFFFFFFFFFFFFF AND PUSH20 0xFFFFFFFFFFFFFFFFFFFFFFFFFFFFFFFFFFFFFFFF AND CALLER PUSH20 0xFFFFFFFFFFFFFFFFFFFFFFFFFFFFFFFFFFFFFFFF AND EQ PUSH2 0x17F1 JUMPI PUSH1 0x40 MLOAD PUSH32 0x8C379A000000000000000000000000000000000000000000000000000000000 DUP2 MSTORE PUSH1 0x4 ADD PUSH2 0x17E8 SWAP1 PUSH2 0x3ECD JUMP JUMPDEST PUSH1 0x40 MLOAD DUP1 SWAP2 SUB SWAP1 REVERT JUMPDEST DUP1 PUSH1 0x6 DUP2 SWAP1 SSTORE POP POP JUMP JUMPDEST PUSH1 0x11 SLOAD DUP2 JUMP JUMPDEST PUSH1 0x0 DUP1 PUSH1 0x0 DUP1 PUSH1 0xD SLOAD PUSH1 0xE SLOAD PUSH1 0xF SLOAD PUSH1 0x10 SLOAD SWAP4 POP SWAP4 POP SWAP4 POP SWAP4 POP SWAP1 SWAP2 SWAP3 SWAP4 JUMP JUMPDEST PUSH1 0x0 DUP1 PUSH1 0x21 PUSH1 0x0 DUP6 PUSH20 0xFFFFFFFFFFFFFFFFFFFFFFFFFFFFFFFFFFFFFFFF AND PUSH20 0xFFFFFFFFFFFFFFFFFFFFFFFFFFFFFFFFFFFFFFFF AND DUP2 MSTORE PUSH1 0x20 ADD SWAP1 DUP2 MSTORE PUSH1 0x20 ADD PUSH1 0x0 KECCAK256 PUSH1 0x9 ADD SLOAD EQ ISZERO PUSH2 0x1876 JUMPI PUSH1 0x0 SWAP1 POP PUSH2 0x1902 JUMP JUMPDEST PUSH1 0x0 PUSH2 0x18CF PUSH1 0x8 SLOAD PUSH1 0x21 PUSH1 0x0 DUP8 PUSH20 0xFFFFFFFFFFFFFFFFFFFFFFFFFFFFFFFFFFFFFFFF AND PUSH20 0xFFFFFFFFFFFFFFFFFFFFFFFFFFFFFFFFFFFFFFFF AND DUP2 MSTORE PUSH1 0x20 ADD SWAP1 DUP2 MSTORE PUSH1 0x20 ADD PUSH1 0x0 KECCAK256 PUSH1 0x9 ADD SLOAD PUSH2 0x33AB SWAP1 SWAP2 SWAP1 PUSH4 0xFFFFFFFF AND JUMP JUMPDEST SWAP1 POP PUSH1 0x0 PUSH2 0x18FA PUSH1 0x2 SLOAD PUSH2 0x18EC DUP5 DUP8 PUSH2 0x33AB SWAP1 SWAP2 SWAP1 PUSH4 0xFFFFFFFF AND JUMP JUMPDEST PUSH2 0x3390 SWAP1 SWAP2 SWAP1 PUSH4 0xFFFFFFFF AND JUMP JUMPDEST SWAP1 POP DUP1 SWAP3 POP POP POP JUMPDEST SWAP3 SWAP2 POP POP JUMP JUMPDEST PUSH1 0x15 PUSH1 0x0 SWAP1 SLOAD SWAP1 PUSH2 0x100 EXP SWAP1 DIV PUSH1 0xFF AND PUSH2 0x1957 JUMPI PUSH1 0x40 MLOAD PUSH32 0x8C379A000000000000000000000000000000000000000000000000000000000 DUP2 MSTORE PUSH1 0x4 ADD PUSH2 0x194E SWAP1 PUSH2 0x3DF5 JUMP JUMPDEST PUSH1 0x40 MLOAD DUP1 SWAP2 SUB SWAP1 REVERT JUMPDEST PUSH1 0x0 PUSH1 0x21 PUSH1 0x0 CALLER PUSH20 0xFFFFFFFFFFFFFFFFFFFFFFFFFFFFFFFFFFFFFFFF AND PUSH20 0xFFFFFFFFFFFFFFFFFFFFFFFFFFFFFFFFFFFFFFFF AND DUP2 MSTORE PUSH1 0x20 ADD SWAP1 DUP2 MSTORE PUSH1 0x20 ADD PUSH1 0x0 KECCAK256 SWAP1 POP PUSH1 0x6 SLOAD CALLVALUE LT ISZERO PUSH2 0x19DF JUMPI PUSH1 0x40 MLOAD PUSH32 0x8C379A000000000000000000000000000000000000000000000000000000000 DUP2 MSTORE PUSH1 0x4 ADD PUSH2 0x19D6 SWAP1 PUSH2 0x3FC2 JUMP JUMPDEST PUSH1 0x40 MLOAD DUP1 SWAP2 SUB SWAP1 REVERT JUMPDEST PUSH1 0x7 SLOAD PUSH2 0x19F9 CALLVALUE DUP4 PUSH1 0x0 ADD SLOAD PUSH2 0x333D SWAP1 SWAP2 SWAP1 PUSH4 0xFFFFFFFF AND JUMP JUMPDEST GT ISZERO PUSH2 0x1A3A JUMPI PUSH1 0x40 MLOAD PUSH32 0x8C379A000000000000000000000000000000000000000000000000000000000 DUP2 MSTORE PUSH1 0x4 ADD PUSH2 0x1A31 SWAP1 PUSH2 0x402E JUMP JUMPDEST PUSH1 0x40 MLOAD DUP1 SWAP2 SUB SWAP1 REVERT JUMPDEST PUSH1 0x0 PUSH2 0x1A58 CALLVALUE PUSH2 0x1A53 CALLVALUE SELFBALANCE PUSH2 0x3369 SWAP1 SWAP2 SWAP1 PUSH4 0xFFFFFFFF AND JUMP JUMPDEST PUSH2 0x1486 JUMP JUMPDEST SWAP1 POP PUSH2 0x1A71 CALLVALUE DUP4 PUSH1 0x1 ADD SLOAD PUSH2 0x333D SWAP1 SWAP2 SWAP1 PUSH4 0xFFFFFFFF AND JUMP JUMPDEST DUP3 PUSH1 0x1 ADD DUP2 SWAP1 SSTORE POP PUSH2 0x1A90 CALLVALUE DUP4 PUSH1 0x0 ADD SLOAD PUSH2 0x333D SWAP1 SWAP2 SWAP1 PUSH4 0xFFFFFFFF AND JUMP JUMPDEST DUP3 PUSH1 0x0 ADD DUP2 SWAP1 SSTORE POP PUSH2 0x1AAF DUP2 DUP4 PUSH1 0x3 ADD SLOAD PUSH2 0x333D SWAP1 SWAP2 SWAP1 PUSH4 0xFFFFFFFF AND JUMP JUMPDEST DUP3 PUSH1 0x3 ADD DUP2 SWAP1 SSTORE POP PUSH1 0x0 PUSH20 0xFFFFFFFFFFFFFFFFFFFFFFFFFFFFFFFFFFFFFFFF AND DUP3 PUSH1 0x5 ADD PUSH1 0x0 SWAP1 SLOAD SWAP1 PUSH2 0x100 EXP SWAP1 DIV PUSH20 0xFFFFFFFFFFFFFFFFFFFFFFFFFFFFFFFFFFFFFFFF AND PUSH20 0xFFFFFFFFFFFFFFFFFFFFFFFFFFFFFFFFFFFFFFFF AND EQ ISZERO PUSH2 0x1C83 JUMPI CALLER PUSH20 0xFFFFFFFFFFFFFFFFFFFFFFFFFFFFFFFFFFFFFFFF AND DUP4 PUSH20 0xFFFFFFFFFFFFFFFFFFFFFFFFFFFFFFFFFFFFFFFF AND EQ PUSH2 0x1B87 JUMPI DUP3 DUP3 PUSH1 0x5 ADD PUSH1 0x0 PUSH2 0x100 EXP DUP2 SLOAD DUP2 PUSH20 0xFFFFFFFFFFFFFFFFFFFFFFFFFFFFFFFFFFFFFFFF MUL NOT AND SWAP1 DUP4 PUSH20 0xFFFFFFFFFFFFFFFFFFFFFFFFFFFFFFFFFFFFFFFF AND MUL OR SWAP1 SSTORE POP JUMPDEST PUSH1 0x0 DUP3 PUSH1 0x5 ADD PUSH1 0x0 SWAP1 SLOAD SWAP1 PUSH2 0x100 EXP SWAP1 DIV PUSH20 0xFFFFFFFFFFFFFFFFFFFFFFFFFFFFFFFFFFFFFFFF AND SWAP1 POP PUSH1 0x0 PUSH20 0xFFFFFFFFFFFFFFFFFFFFFFFFFFFFFFFFFFFFFFFF AND DUP2 PUSH20 0xFFFFFFFFFFFFFFFFFFFFFFFFFFFFFFFFFFFFFFFF AND EQ PUSH2 0x1C81 JUMPI PUSH2 0x1C3A PUSH1 0x1 PUSH1 0x21 PUSH1 0x0 DUP5 PUSH20 0xFFFFFFFFFFFFFFFFFFFFFFFFFFFFFFFFFFFFFFFF AND PUSH20 0xFFFFFFFFFFFFFFFFFFFFFFFFFFFFFFFFFFFFFFFF AND DUP2 MSTORE PUSH1 0x20 ADD SWAP1 DUP2 MSTORE PUSH1 0x20 ADD PUSH1 0x0 KECCAK256 PUSH1 0x6 ADD SLOAD PUSH2 0x333D SWAP1 SWAP2 SWAP1 PUSH4 0xFFFFFFFF AND JUMP JUMPDEST PUSH1 0x21 PUSH1 0x0 DUP4 PUSH20 0xFFFFFFFFFFFFFFFFFFFFFFFFFFFFFFFFFFFFFFFF AND PUSH20 0xFFFFFFFFFFFFFFFFFFFFFFFFFFFFFFFFFFFFFFFF AND DUP2 MSTORE PUSH1 0x20 ADD SWAP1 DUP2 MSTORE PUSH1 0x20 ADD PUSH1 0x0 KECCAK256 PUSH1 0x6 ADD DUP2 SWAP1 SSTORE POP JUMPDEST POP JUMPDEST PUSH1 0x0 PUSH20 0xFFFFFFFFFFFFFFFFFFFFFFFFFFFFFFFFFFFFFFFF AND DUP3 PUSH1 0x5 ADD PUSH1 0x0 SWAP1 SLOAD SWAP1 PUSH2 0x100 EXP SWAP1 DIV PUSH20 0xFFFFFFFFFFFFFFFFFFFFFFFFFFFFFFFFFFFFFFFF AND PUSH20 0xFFFFFFFFFFFFFFFFFFFFFFFFFFFFFFFFFFFFFFFF AND EQ PUSH2 0x1CE6 JUMPI PUSH2 0x1CE5 CALLER CALLVALUE PUSH2 0x33F4 JUMP JUMPDEST JUMPDEST PUSH1 0x0 PUSH2 0x1CF1 CALLVALUE PUSH2 0x370C JUMP JUMPDEST SWAP1 POP PUSH2 0x1D1A PUSH2 0x1D09 DUP3 CALLVALUE PUSH2 0x3369 SWAP1 SWAP2 SWAP1 PUSH4 0xFFFFFFFF AND JUMP JUMPDEST PUSH1 0xD SLOAD PUSH2 0x333D SWAP1 SWAP2 SWAP1 PUSH4 0xFFFFFFFF AND JUMP JUMPDEST PUSH1 0xD DUP2 SWAP1 SSTORE POP PUSH2 0x1D36 PUSH1 0x1 PUSH1 0xE SLOAD PUSH2 0x333D SWAP1 SWAP2 SWAP1 PUSH4 0xFFFFFFFF AND JUMP JUMPDEST PUSH1 0xE DUP2 SWAP1 SSTORE POP PUSH2 0x1D46 PUSH1 0x0 PUSH2 0x115F JUMP JUMPDEST POP POP POP POP JUMP JUMPDEST PUSH1 0x1A PUSH1 0x0 SWAP1 SLOAD SWAP1 PUSH2 0x100 EXP SWAP1 DIV PUSH20 0xFFFFFFFFFFFFFFFFFFFFFFFFFFFFFFFFFFFFFFFF AND PUSH20 0xFFFFFFFFFFFFFFFFFFFFFFFFFFFFFFFFFFFFFFFF AND CALLER PUSH20 0xFFFFFFFFFFFFFFFFFFFFFFFFFFFFFFFFFFFFFFFF AND EQ PUSH2 0x1DDC JUMPI PUSH1 0x40 MLOAD PUSH32 0x8C379A000000000000000000000000000000000000000000000000000000000 DUP2 MSTORE PUSH1 0x4 ADD PUSH2 0x1DD3 SWAP1 PUSH2 0x3E61 JUMP JUMPDEST PUSH1 0x40 MLOAD DUP1 SWAP2 SUB SWAP1 REVERT JUMPDEST PUSH1 0xA DUP2 LT ISZERO DUP1 ISZERO PUSH2 0x1DEE JUMPI POP PUSH1 0x64 DUP2 GT ISZERO JUMPDEST PUSH2 0x1DF7 JUMPI PUSH1 0x0 DUP1 REVERT JUMPDEST DUP1 PUSH1 0x1 DUP2 SWAP1 SSTORE POP POP JUMP JUMPDEST PUSH1 0x15 PUSH1 0x0 SWAP1 SLOAD SWAP1 PUSH2 0x100 EXP SWAP1 DIV PUSH1 0xFF AND PUSH2 0x1E50 JUMPI PUSH1 0x40 MLOAD PUSH32 0x8C379A000000000000000000000000000000000000000000000000000000000 DUP2 MSTORE PUSH1 0x4 ADD PUSH2 0x1E47 SWAP1 PUSH2 0x3DF5 JUMP JUMPDEST PUSH1 0x40 MLOAD DUP1 SWAP2 SUB SWAP1 REVERT JUMPDEST PUSH1 0x15 PUSH1 0x1 SWAP1 SLOAD SWAP1 PUSH2 0x100 EXP SWAP1 DIV PUSH1 0xFF AND ISZERO PUSH2 0x1EF3 JUMPI PUSH1 0x16 PUSH1 0x0 CALLER PUSH20 0xFFFFFFFFFFFFFFFFFFFFFFFFFFFFFFFFFFFFFFFF AND PUSH20 0xFFFFFFFFFFFFFFFFFFFFFFFFFFFFFFFFFFFFFFFF AND DUP2 MSTORE PUSH1 0x20 ADD SWAP1 DUP2 MSTORE PUSH1 0x20 ADD PUSH1 0x0 KECCAK256 PUSH1 0x0 SWAP1 SLOAD SWAP1 PUSH2 0x100 EXP SWAP1 DIV PUSH1 0xFF AND ISZERO PUSH2 0x1EF2 JUMPI PUSH1 0x40 MLOAD PUSH32 0x8C379A000000000000000000000000000000000000000000000000000000000 DUP2 MSTORE PUSH1 0x4 ADD PUSH2 0x1EE9 SWAP1 PUSH2 0x409A JUMP JUMPDEST PUSH1 0x40 MLOAD DUP1 SWAP2 SUB SWAP1 REVERT JUMPDEST JUMPDEST PUSH1 0x0 PUSH1 0x21 PUSH1 0x0 CALLER PUSH20 0xFFFFFFFFFFFFFFFFFFFFFFFFFFFFFFFFFFFFFFFF AND PUSH20 0xFFFFFFFFFFFFFFFFFFFFFFFFFFFFFFFFFFFFFFFF AND DUP2 MSTORE PUSH1 0x20 ADD SWAP1 DUP2 MSTORE PUSH1 0x20 ADD PUSH1 0x0 KECCAK256 SWAP1 POP PUSH1 0x0 PUSH2 0x1F40 PUSH2 0x163E JUMP JUMPDEST SWAP1 POP PUSH1 0x0 PUSH2 0x1F4D DUP3 PUSH2 0x2855 JUMP JUMPDEST SWAP1 POP PUSH1 0xC SLOAD DUP4 PUSH1 0x9 ADD SLOAD LT ISZERO PUSH2 0x1F9F JUMPI PUSH2 0x1F98 PUSH2 0x1F89 PUSH1 0x2 SLOAD PUSH2 0x1F7B PUSH1 0xB SLOAD DUP6 PUSH2 0x33AB SWAP1 SWAP2 SWAP1 PUSH4 0xFFFFFFFF AND JUMP JUMPDEST PUSH2 0x3390 SWAP1 SWAP2 SWAP1 PUSH4 0xFFFFFFFF AND JUMP JUMPDEST DUP3 PUSH2 0x3369 SWAP1 SWAP2 SWAP1 PUSH4 0xFFFFFFFF AND JUMP JUMPDEST SWAP1 POP PUSH2 0x1FB4 JUMP JUMPDEST PUSH1 0x0 DUP4 PUSH1 0x9 ADD DUP2 SWAP1 SSTORE POP PUSH1 0x0 DUP4 PUSH1 0xA ADD DUP2 SWAP1 SSTORE POP JUMPDEST TIMESTAMP DUP4 PUSH1 0xB ADD DUP2 SWAP1 SSTORE POP PUSH1 0x0 DUP4 PUSH1 0x3 ADD DUP2 SWAP1 SSTORE POP TIMESTAMP DUP4 PUSH1 0x4 ADD DUP2 SWAP1 SSTORE POP PUSH2 0x1FF9 PUSH2 0x1FE8 PUSH1 0x5 SLOAD DUP5 PUSH2 0x3390 SWAP1 SWAP2 SWAP1 PUSH4 0xFFFFFFFF AND JUMP JUMPDEST PUSH1 0x12 SLOAD PUSH2 0x333D SWAP1 SWAP2 SWAP1 PUSH4 0xFFFFFFFF AND JUMP JUMPDEST PUSH1 0x12 DUP2 SWAP1 SSTORE POP DUP1 PUSH2 0x2008 PUSH2 0x1151 JUMP JUMPDEST LT ISZERO PUSH2 0x2019 JUMPI PUSH2 0x2016 PUSH2 0x1151 JUMP JUMPDEST SWAP1 POP JUMPDEST PUSH1 0x0 PUSH2 0x2036 PUSH2 0x2027 DUP4 PUSH2 0x370C JUMP JUMPDEST DUP4 PUSH2 0x3369 SWAP1 SWAP2 SWAP1 PUSH4 0xFFFFFFFF AND JUMP JUMPDEST SWAP1 POP CALLER PUSH20 0xFFFFFFFFFFFFFFFFFFFFFFFFFFFFFFFFFFFFFFFF AND PUSH2 0x8FC DUP3 SWAP1 DUP2 ISZERO MUL SWAP1 PUSH1 0x40 MLOAD PUSH1 0x0 PUSH1 0x40 MLOAD DUP1 DUP4 SUB DUP2 DUP6 DUP9 DUP9 CALL SWAP4 POP POP POP POP ISZERO DUP1 ISZERO PUSH2 0x207E JUMPI RETURNDATASIZE PUSH1 0x0 DUP1 RETURNDATACOPY RETURNDATASIZE PUSH1 0x0 REVERT JUMPDEST POP PUSH2 0x2096 DUP2 DUP6 PUSH1 0x8 ADD SLOAD PUSH2 0x333D SWAP1 SWAP2 SWAP1 PUSH4 0xFFFFFFFF AND JUMP JUMPDEST DUP5 PUSH1 0x8 ADD DUP2 SWAP1 SSTORE POP PUSH2 0x20B3 DUP2 PUSH1 0x11 SLOAD PUSH2 0x333D SWAP1 SWAP2 SWAP1 PUSH4 0xFFFFFFFF AND JUMP JUMPDEST PUSH1 0x11 DUP2 SWAP1 SSTORE POP POP POP POP POP JUMP JUMPDEST PUSH1 0x5 SLOAD DUP2 JUMP JUMPDEST PUSH1 0x0 DUP1 PUSH1 0x0 DUP1 PUSH1 0x0 DUP1 PUSH1 0x0 DUP1 PUSH1 0x0 DUP1 PUSH1 0x0 DUP1 PUSH1 0x21 PUSH1 0x0 DUP15 PUSH20 0xFFFFFFFFFFFFFFFFFFFFFFFFFFFFFFFFFFFFFFFF AND PUSH20 0xFFFFFFFFFFFFFFFFFFFFFFFFFFFFFFFFFFFFFFFF AND DUP2 MSTORE PUSH1 0x20 ADD SWAP1 DUP2 MSTORE PUSH1 0x20 ADD PUSH1 0x0 KECCAK256 PUSH1 0x0 ADD SLOAD SWAP12 POP PUSH1 0x21 PUSH1 0x0 DUP15 PUSH20 0xFFFFFFFFFFFFFFFFFFFFFFFFFFFFFFFFFFFFFFFF AND PUSH20 0xFFFFFFFFFFFFFFFFFFFFFFFFFFFFFFFFFFFFFFFF AND DUP2 MSTORE PUSH1 0x20 ADD SWAP1 DUP2 MSTORE PUSH1 0x20 ADD PUSH1 0x0 KECCAK256 PUSH1 0x1 ADD SLOAD SWAP11 POP PUSH1 0x21 PUSH1 0x0 DUP15 PUSH20 0xFFFFFFFFFFFFFFFFFFFFFFFFFFFFFFFFFFFFFFFF AND PUSH20 0xFFFFFFFFFFFFFFFFFFFFFFFFFFFFFFFFFFFFFFFF AND DUP2 MSTORE PUSH1 0x20 ADD SWAP1 DUP2 MSTORE PUSH1 0x20 ADD PUSH1 0x0 KECCAK256 PUSH1 0x2 ADD SLOAD SWAP10 POP PUSH1 0x21 PUSH1 0x0 DUP15 PUSH20 0xFFFFFFFFFFFFFFFFFFFFFFFFFFFFFFFFFFFFFFFF AND PUSH20 0xFFFFFFFFFFFFFFFFFFFFFFFFFFFFFFFFFFFFFFFF AND DUP2 MSTORE PUSH1 0x20 ADD SWAP1 DUP2 MSTORE PUSH1 0x20 ADD PUSH1 0x0 KECCAK256 PUSH1 0x3 ADD SLOAD SWAP9 POP PUSH1 0x21 PUSH1 0x0 DUP15 PUSH20 0xFFFFFFFFFFFFFFFFFFFFFFFFFFFFFFFFFFFFFFFF AND PUSH20 0xFFFFFFFFFFFFFFFFFFFFFFFFFFFFFFFFFFFFFFFF AND DUP2 MSTORE PUSH1 0x20 ADD SWAP1 DUP2 MSTORE PUSH1 0x20 ADD PUSH1 0x0 KECCAK256 PUSH1 0x4 ADD SLOAD SWAP8 POP PUSH1 0x21 PUSH1 0x0 DUP15 PUSH20 0xFFFFFFFFFFFFFFFFFFFFFFFFFFFFFFFFFFFFFFFF AND PUSH20 0xFFFFFFFFFFFFFFFFFFFFFFFFFFFFFFFFFFFFFFFF AND DUP2 MSTORE PUSH1 0x20 ADD SWAP1 DUP2 MSTORE PUSH1 0x20 ADD PUSH1 0x0 KECCAK256 PUSH1 0x5 ADD PUSH1 0x0 SWAP1 SLOAD SWAP1 PUSH2 0x100 EXP SWAP1 DIV PUSH20 0xFFFFFFFFFFFFFFFFFFFFFFFFFFFFFFFFFFFFFFFF AND SWAP7 POP PUSH1 0x21 PUSH1 0x0 DUP15 PUSH20 0xFFFFFFFFFFFFFFFFFFFFFFFFFFFFFFFFFFFFFFFF AND PUSH20 0xFFFFFFFFFFFFFFFFFFFFFFFFFFFFFFFFFFFFFFFF AND DUP2 MSTORE PUSH1 0x20 ADD SWAP1 DUP2 MSTORE PUSH1 0x20 ADD PUSH1 0x0 KECCAK256 PUSH1 0x6 ADD SLOAD SWAP6 POP PUSH1 0x21 PUSH1 0x0 DUP15 PUSH20 0xFFFFFFFFFFFFFFFFFFFFFFFFFFFFFFFFFFFFFFFF AND PUSH20 0xFFFFFFFFFFFFFFFFFFFFFFFFFFFFFFFFFFFFFFFF AND DUP2 MSTORE PUSH1 0x20 ADD SWAP1 DUP2 MSTORE PUSH1 0x20 ADD PUSH1 0x0 KECCAK256 PUSH1 0x8 ADD SLOAD SWAP5 POP PUSH1 0x21 PUSH1 0x0 DUP15 PUSH20 0xFFFFFFFFFFFFFFFFFFFFFFFFFFFFFFFFFFFFFFFF AND PUSH20 0xFFFFFFFFFFFFFFFFFFFFFFFFFFFFFFFFFFFFFFFF AND DUP2 MSTORE PUSH1 0x20 ADD SWAP1 DUP2 MSTORE PUSH1 0x20 ADD PUSH1 0x0 KECCAK256 PUSH1 0x7 ADD SLOAD SWAP4 POP PUSH1 0x21 PUSH1 0x0 DUP15 PUSH20 0xFFFFFFFFFFFFFFFFFFFFFFFFFFFFFFFFFFFFFFFF AND PUSH20 0xFFFFFFFFFFFFFFFFFFFFFFFFFFFFFFFFFFFFFFFF AND DUP2 MSTORE PUSH1 0x20 ADD SWAP1 DUP2 MSTORE PUSH1 0x20 ADD PUSH1 0x0 KECCAK256 PUSH1 0x9 ADD SLOAD SWAP3 POP PUSH1 0x21 PUSH1 0x0 DUP15 PUSH20 0xFFFFFFFFFFFFFFFFFFFFFFFFFFFFFFFFFFFFFFFF AND PUSH20 0xFFFFFFFFFFFFFFFFFFFFFFFFFFFFFFFFFFFFFFFF AND DUP2 MSTORE PUSH1 0x20 ADD SWAP1 DUP2 MSTORE PUSH1 0x20 ADD PUSH1 0x0 KECCAK256 PUSH1 0xA ADD SLOAD SWAP2 POP PUSH1 0x21 PUSH1 0x0 DUP15 PUSH20 0xFFFFFFFFFFFFFFFFFFFFFFFFFFFFFFFFFFFFFFFF AND PUSH20 0xFFFFFFFFFFFFFFFFFFFFFFFFFFFFFFFFFFFFFFFF AND DUP2 MSTORE PUSH1 0x20 ADD SWAP1 DUP2 MSTORE PUSH1 0x20 ADD PUSH1 0x0 KECCAK256 PUSH1 0xB ADD SLOAD SWAP1 POP SWAP2 SWAP4 SWAP6 SWAP8 SWAP10 SWAP12 POP SWAP2 SWAP4 SWAP6 SWAP8 SWAP10 SWAP12 JUMP JUMPDEST PUSH1 0x0 DUP1 PUSH2 0x24A2 PUSH2 0x2451 DUP5 PUSH2 0x2DC8 JUMP JUMPDEST PUSH1 0x21 PUSH1 0x0 DUP7 PUSH20 0xFFFFFFFFFFFFFFFFFFFFFFFFFFFFFFFFFFFFFFFF AND PUSH20 0xFFFFFFFFFFFFFFFFFFFFFFFFFFFFFFFFFFFFFFFF AND DUP2 MSTORE PUSH1 0x20 ADD SWAP1 DUP2 MSTORE PUSH1 0x20 ADD PUSH1 0x0 KECCAK256 PUSH1 0x3 ADD SLOAD PUSH2 0x333D SWAP1 SWAP2 SWAP1 PUSH4 0xFFFFFFFF AND JUMP JUMPDEST SWAP1 POP PUSH2 0x24AD DUP2 PUSH2 0x2855 JUMP JUMPDEST SWAP2 POP POP SWAP2 SWAP1 POP JUMP JUMPDEST PUSH1 0x3 SLOAD DUP2 JUMP JUMPDEST PUSH1 0x10 SLOAD DUP2 JUMP JUMPDEST PUSH1 0x1A PUSH1 0x0 SWAP1 SLOAD SWAP1 PUSH2 0x100 EXP SWAP1 DIV PUSH20 0xFFFFFFFFFFFFFFFFFFFFFFFFFFFFFFFFFFFFFFFF AND PUSH20 0xFFFFFFFFFFFFFFFFFFFFFFFFFFFFFFFFFFFFFFFF AND CALLER PUSH20 0xFFFFFFFFFFFFFFFFFFFFFFFFFFFFFFFFFFFFFFFF AND EQ PUSH2 0x2551 JUMPI PUSH1 0x40 MLOAD PUSH32 0x8C379A000000000000000000000000000000000000000000000000000000000 DUP2 MSTORE PUSH1 0x4 ADD PUSH2 0x2548 SWAP1 PUSH2 0x3E61 JUMP JUMPDEST PUSH1 0x40 MLOAD DUP1 SWAP2 SUB SWAP1 REVERT JUMPDEST PUSH1 0xA DUP2 LT ISZERO DUP1 ISZERO PUSH2 0x2564 JUMPI POP PUSH2 0x384 DUP2 GT ISZERO JUMPDEST PUSH2 0x256D JUMPI PUSH1 0x0 DUP1 REVERT JUMPDEST DUP1 PUSH1 0x8 DUP2 SWAP1 SSTORE POP POP JUMP JUMPDEST PUSH1 0xA SLOAD DUP2 JUMP JUMPDEST PUSH1 0x1A PUSH1 0x0 SWAP1 SLOAD SWAP1 PUSH2 0x100 EXP SWAP1 DIV PUSH20 0xFFFFFFFFFFFFFFFFFFFFFFFFFFFFFFFFFFFFFFFF AND PUSH20 0xFFFFFFFFFFFFFFFFFFFFFFFFFFFFFFFFFFFFFFFF AND CALLER PUSH20 0xFFFFFFFFFFFFFFFFFFFFFFFFFFFFFFFFFFFFFFFF AND EQ PUSH2 0x260D JUMPI PUSH1 0x40 MLOAD PUSH32 0x8C379A000000000000000000000000000000000000000000000000000000000 DUP2 MSTORE PUSH1 0x4 ADD PUSH2 0x2604 SWAP1 PUSH2 0x3E61 JUMP JUMPDEST PUSH1 0x40 MLOAD DUP1 SWAP2 SUB SWAP1 REVERT JUMPDEST PUSH1 0x32 DUP2 GT ISZERO PUSH2 0x261B JUMPI PUSH1 0x0 DUP1 REVERT JUMPDEST DUP1 PUSH1 0x5 DUP2 SWAP1 SSTORE POP POP JUMP JUMPDEST PUSH1 0x1A PUSH1 0x0 SWAP1 SLOAD SWAP1 PUSH2 0x100 EXP SWAP1 DIV PUSH20 0xFFFFFFFFFFFFFFFFFFFFFFFFFFFFFFFFFFFFFFFF AND PUSH20 0xFFFFFFFFFFFFFFFFFFFFFFFFFFFFFFFFFFFFFFFF AND CALLER PUSH20 0xFFFFFFFFFFFFFFFFFFFFFFFFFFFFFFFFFFFFFFFF AND EQ PUSH2 0x26B5 JUMPI PUSH1 0x40 MLOAD PUSH32 0x8C379A000000000000000000000000000000000000000000000000000000000 DUP2 MSTORE PUSH1 0x4 ADD PUSH2 0x26AC SWAP1 PUSH2 0x3ECD JUMP JUMPDEST PUSH1 0x40 MLOAD DUP1 SWAP2 SUB SWAP1 REVERT JUMPDEST PUSH1 0x3C DUP1 DUP3 PUSH2 0x26C3 SWAP2 SWAP1 PUSH2 0x3F1C JUMP JUMPDEST PUSH2 0x26CD SWAP2 SWAP1 PUSH2 0x3F1C JUMP JUMPDEST PUSH1 0x18 DUP2 SWAP1 SSTORE POP POP JUMP JUMPDEST PUSH1 0x20 PUSH1 0x0 SWAP1 SLOAD SWAP1 PUSH2 0x100 EXP SWAP1 DIV PUSH20 0xFFFFFFFFFFFFFFFFFFFFFFFFFFFFFFFFFFFFFFFF AND DUP2 JUMP JUMPDEST PUSH1 0xE SLOAD DUP2 JUMP JUMPDEST PUSH1 0xF SLOAD DUP2 JUMP JUMPDEST PUSH1 0x0 PUSH2 0x271B DUP3 PUSH2 0x2716 PUSH2 0x1151 JUMP JUMPDEST PUSH2 0x1486 JUMP JUMPDEST SWAP1 POP SWAP2 SWAP1 POP JUMP JUMPDEST PUSH1 0x1A PUSH1 0x0 SWAP1 SLOAD SWAP1 PUSH2 0x100 EXP SWAP1 DIV PUSH20 0xFFFFFFFFFFFFFFFFFFFFFFFFFFFFFFFFFFFFFFFF AND PUSH20 0xFFFFFFFFFFFFFFFFFFFFFFFFFFFFFFFFFFFFFFFF AND CALLER PUSH20 0xFFFFFFFFFFFFFFFFFFFFFFFFFFFFFFFFFFFFFFFF AND EQ PUSH2 0x27B2 JUMPI PUSH1 0x40 MLOAD PUSH32 0x8C379A000000000000000000000000000000000000000000000000000000000 DUP2 MSTORE PUSH1 0x4 ADD PUSH2 0x27A9 SWAP1 PUSH2 0x3ECD JUMP JUMPDEST PUSH1 0x40 MLOAD DUP1 SWAP2 SUB SWAP1 REVERT JUMPDEST PUSH1 0xA DUP2 LT ISZERO PUSH2 0x27C0 JUMPI PUSH1 0x0 DUP1 REVERT JUMPDEST PUSH8 0xDE0B6B3A7640000 DUP2 PUSH2 0x27D4 SWAP2 SWAP1 PUSH2 0x3F1C JUMP JUMPDEST PUSH1 0x7 DUP2 SWAP1 SSTORE POP POP JUMP JUMPDEST PUSH1 0x1C PUSH1 0x0 SWAP1 SLOAD SWAP1 PUSH2 0x100 EXP SWAP1 DIV PUSH20 0xFFFFFFFFFFFFFFFFFFFFFFFFFFFFFFFFFFFFFFFF AND DUP2 JUMP JUMPDEST PUSH1 0xD SLOAD DUP2 JUMP JUMPDEST PUSH1 0x1F PUSH1 0x0 SWAP1 SLOAD SWAP1 PUSH2 0x100 EXP SWAP1 DIV PUSH20 0xFFFFFFFFFFFFFFFFFFFFFFFFFFFFFFFFFFFFFFFF AND DUP2 JUMP JUMPDEST PUSH1 0x1A PUSH1 0x0 SWAP1 SLOAD SWAP1 PUSH2 0x100 EXP SWAP1 DIV PUSH20 0xFFFFFFFFFFFFFFFFFFFFFFFFFFFFFFFFFFFFFFFF AND DUP2 JUMP JUMPDEST PUSH1 0x0 PUSH2 0x286B DUP3 PUSH1 0x12 SLOAD PUSH2 0x2866 PUSH2 0x1151 JUMP JUMPDEST PUSH2 0x140D JUMP JUMPDEST SWAP1 POP SWAP2 SWAP1 POP JUMP JUMPDEST PUSH1 0x19 SLOAD DUP2 JUMP JUMPDEST PUSH1 0x1A PUSH1 0x0 SWAP1 SLOAD SWAP1 PUSH2 0x100 EXP SWAP1 DIV PUSH20 0xFFFFFFFFFFFFFFFFFFFFFFFFFFFFFFFFFFFFFFFF AND PUSH20 0xFFFFFFFFFFFFFFFFFFFFFFFFFFFFFFFFFFFFFFFF AND CALLER PUSH20 0xFFFFFFFFFFFFFFFFFFFFFFFFFFFFFFFFFFFFFFFF AND EQ PUSH2 0x2908 JUMPI PUSH1 0x40 MLOAD PUSH32 0x8C379A000000000000000000000000000000000000000000000000000000000 DUP2 MSTORE PUSH1 0x4 ADD PUSH2 0x28FF SWAP1 PUSH2 0x3E61 JUMP JUMPDEST PUSH1 0x40 MLOAD DUP1 SWAP2 SUB SWAP1 REVERT JUMPDEST PUSH1 0x18 DUP2 GT ISZERO PUSH2 0x2916 JUMPI PUSH1 0x0 DUP1 REVERT JUMPDEST PUSH1 0x3C DUP1 DUP3 PUSH2 0x2924 SWAP2 SWAP1 PUSH2 0x3F1C JUMP JUMPDEST PUSH2 0x292E SWAP2 SWAP1 PUSH2 0x3F1C JUMP JUMPDEST PUSH1 0xA DUP2 SWAP1 SSTORE POP POP JUMP JUMPDEST PUSH1 0x1A PUSH1 0x0 SWAP1 SLOAD SWAP1 PUSH2 0x100 EXP SWAP1 DIV PUSH20 0xFFFFFFFFFFFFFFFFFFFFFFFFFFFFFFFFFFFFFFFF AND PUSH20 0xFFFFFFFFFFFFFFFFFFFFFFFFFFFFFFFFFFFFFFFF AND CALLER PUSH20 0xFFFFFFFFFFFFFFFFFFFFFFFFFFFFFFFFFFFFFFFF AND EQ PUSH2 0x29C7 JUMPI PUSH1 0x40 MLOAD PUSH32 0x8C379A000000000000000000000000000000000000000000000000000000000 DUP2 MSTORE PUSH1 0x4 ADD PUSH2 0x29BE SWAP1 PUSH2 0x3E61 JUMP JUMPDEST PUSH1 0x40 MLOAD DUP1 SWAP2 SUB SWAP1 REVERT JUMPDEST PUSH1 0x1E DUP2 GT ISZERO PUSH2 0x29D5 JUMPI PUSH1 0x0 DUP1 REVERT JUMPDEST DUP1 PUSH1 0x9 DUP2 SWAP1 SSTORE POP POP JUMP JUMPDEST PUSH1 0x1A PUSH1 0x0 SWAP1 SLOAD SWAP1 PUSH2 0x100 EXP SWAP1 DIV PUSH20 0xFFFFFFFFFFFFFFFFFFFFFFFFFFFFFFFFFFFFFFFF AND PUSH20 0xFFFFFFFFFFFFFFFFFFFFFFFFFFFFFFFFFFFFFFFF AND CALLER PUSH20 0xFFFFFFFFFFFFFFFFFFFFFFFFFFFFFFFFFFFFFFFF AND EQ PUSH2 0x2A6F JUMPI PUSH1 0x40 MLOAD PUSH32 0x8C379A000000000000000000000000000000000000000000000000000000000 DUP2 MSTORE PUSH1 0x4 ADD PUSH2 0x2A66 SWAP1 PUSH2 0x3E61 JUMP JUMPDEST PUSH1 0x40 MLOAD DUP1 SWAP2 SUB SWAP1 REVERT JUMPDEST DUP1 PUSH1 0x15 PUSH1 0x1 PUSH2 0x100 EXP DUP2 SLOAD DUP2 PUSH1 0xFF MUL NOT AND SWAP1 DUP4 ISZERO ISZERO MUL OR SWAP1 SSTORE POP POP JUMP JUMPDEST PUSH1 0x1B PUSH1 0x0 SWAP1 SLOAD SWAP1 PUSH2 0x100 EXP SWAP1 DIV PUSH20 0xFFFFFFFFFFFFFFFFFFFFFFFFFFFFFFFFFFFFFFFF AND DUP2 JUMP JUMPDEST PUSH1 0x21 PUSH1 0x20 MSTORE DUP1 PUSH1 0x0 MSTORE PUSH1 0x40 PUSH1 0x0 KECCAK256 PUSH1 0x0 SWAP2 POP SWAP1 POP DUP1 PUSH1 0x0 ADD SLOAD SWAP1 DUP1 PUSH1 0x1 ADD SLOAD SWAP1 DUP1 PUSH1 0x2 ADD SLOAD SWAP1 DUP1 PUSH1 0x3 ADD SLOAD SWAP1 DUP1 PUSH1 0x4 ADD SLOAD SWAP1 DUP1 PUSH1 0x5 ADD PUSH1 0x0 SWAP1 SLOAD SWAP1 PUSH2 0x100 EXP SWAP1 DIV PUSH20 0xFFFFFFFFFFFFFFFFFFFFFFFFFFFFFFFFFFFFFFFF AND SWAP1 DUP1 PUSH1 0x6 ADD SLOAD SWAP1 DUP1 PUSH1 0x7 ADD SLOAD SWAP1 DUP1 PUSH1 0x8 ADD SLOAD SWAP1 DUP1 PUSH1 0x9 ADD SLOAD SWAP1 DUP1 PUSH1 0xA ADD SLOAD SWAP1 DUP1 PUSH1 0xB ADD SLOAD SWAP1 POP DUP13 JUMP JUMPDEST PUSH1 0x17 PUSH1 0x20 MSTORE DUP1 PUSH1 0x0 MSTORE PUSH1 0x40 PUSH1 0x0 KECCAK256 PUSH1 0x0 SWAP2 POP SWAP1 POP SLOAD DUP2 JUMP JUMPDEST PUSH1 0x15 PUSH1 0x1 SWAP1 SLOAD SWAP1 PUSH2 0x100 EXP SWAP1 DIV PUSH1 0xFF AND DUP2 JUMP JUMPDEST JUMP JUMPDEST PUSH1 0x0 DUP1 PUSH1 0x0 PUSH2 0x2B99 DUP5 PUSH2 0x2B94 DUP7 PUSH2 0x2B86 DUP9 PUSH2 0x2B78 PUSH2 0x1151 JUMP JUMPDEST PUSH2 0x333D SWAP1 SWAP2 SWAP1 PUSH4 0xFFFFFFFF AND JUMP JUMPDEST PUSH2 0x3369 SWAP1 SWAP2 SWAP1 PUSH4 0xFFFFFFFF AND JUMP JUMPDEST PUSH2 0x1486 JUMP JUMPDEST SWAP1 POP PUSH1 0x0 PUSH2 0x2BB2 PUSH1 0x0 SLOAD DUP4 PUSH2 0x3390 SWAP1 SWAP2 SWAP1 PUSH4 0xFFFFFFFF AND JUMP JUMPDEST SWAP1 POP PUSH1 0x0 PUSH3 0x15180 SWAP1 POP PUSH1 0x0 PUSH2 0x2BD1 DUP4 DUP4 PUSH2 0x33AB SWAP1 SWAP2 SWAP1 PUSH4 0xFFFFFFFF AND JUMP JUMPDEST SWAP1 POP PUSH1 0x0 PUSH2 0x2BDF DUP3 DUP10 PUSH2 0x2D8C JUMP JUMPDEST SWAP1 POP DUP4 DUP2 SWAP7 POP SWAP7 POP POP POP POP POP POP SWAP2 POP SWAP2 JUMP JUMPDEST PUSH1 0x1A PUSH1 0x0 SWAP1 SLOAD SWAP1 PUSH2 0x100 EXP SWAP1 DIV PUSH20 0xFFFFFFFFFFFFFFFFFFFFFFFFFFFFFFFFFFFFFFFF AND PUSH20 0xFFFFFFFFFFFFFFFFFFFFFFFFFFFFFFFFFFFFFFFF AND CALLER PUSH20 0xFFFFFFFFFFFFFFFFFFFFFFFFFFFFFFFFFFFFFFFF AND EQ PUSH2 0x2C81 JUMPI PUSH1 0x40 MLOAD PUSH32 0x8C379A000000000000000000000000000000000000000000000000000000000 DUP2 MSTORE PUSH1 0x4 ADD PUSH2 0x2C78 SWAP1 PUSH2 0x3E61 JUMP JUMPDEST PUSH1 0x40 MLOAD DUP1 SWAP2 SUB SWAP1 REVERT JUMPDEST PUSH2 0x384 DUP2 GT ISZERO PUSH2 0x2C90 JUMPI PUSH1 0x0 DUP1 REVERT JUMPDEST DUP1 PUSH1 0xB DUP2 SWAP1 SSTORE POP POP JUMP JUMPDEST PUSH1 0x0 PUSH1 0x1A PUSH1 0x0 SWAP1 SLOAD SWAP1 PUSH2 0x100 EXP SWAP1 DIV PUSH20 0xFFFFFFFFFFFFFFFFFFFFFFFFFFFFFFFFFFFFFFFF AND PUSH20 0xFFFFFFFFFFFFFFFFFFFFFFFFFFFFFFFFFFFFFFFF AND CALLER PUSH20 0xFFFFFFFFFFFFFFFFFFFFFFFFFFFFFFFFFFFFFFFF AND EQ PUSH2 0x2D2C JUMPI PUSH1 0x40 MLOAD PUSH32 0x8C379A000000000000000000000000000000000000000000000000000000000 DUP2 MSTORE PUSH1 0x4 ADD PUSH2 0x2D23 SWAP1 PUSH2 0x3E61 JUMP JUMPDEST PUSH1 0x40 MLOAD DUP1 SWAP2 SUB SWAP1 REVERT JUMPDEST PUSH1 0x16 PUSH1 0x0 DUP4 PUSH20 0xFFFFFFFFFFFFFFFFFFFFFFFFFFFFFFFFFFFFFFFF AND PUSH20 0xFFFFFFFFFFFFFFFFFFFFFFFFFFFFFFFFFFFFFFFF AND DUP2 MSTORE PUSH1 0x20 ADD SWAP1 DUP2 MSTORE PUSH1 0x20 ADD PUSH1 0x0 KECCAK256 PUSH1 0x0 SWAP1 SLOAD SWAP1 PUSH2 0x100 EXP SWAP1 DIV PUSH1 0xFF AND SWAP1 POP SWAP2 SWAP1 POP JUMP JUMPDEST PUSH1 0x1 SLOAD DUP2 JUMP JUMPDEST PUSH1 0x9 SLOAD DUP2 JUMP JUMPDEST PUSH1 0x0 PUSH2 0x2DB4 DUP4 PUSH1 0x12 SLOAD PUSH2 0x2DAF DUP6 PUSH2 0x2DA1 PUSH2 0x1151 JUMP JUMPDEST PUSH2 0x333D SWAP1 SWAP2 SWAP1 PUSH4 0xFFFFFFFF AND JUMP JUMPDEST PUSH2 0x140D JUMP JUMPDEST SWAP1 POP SWAP3 SWAP2 POP POP JUMP JUMPDEST PUSH1 0x6 SLOAD DUP2 JUMP JUMPDEST PUSH1 0x8 SLOAD DUP2 JUMP JUMPDEST PUSH1 0x0 DUP1 PUSH2 0x2E20 PUSH1 0x21 PUSH1 0x0 DUP6 PUSH20 0xFFFFFFFFFFFFFFFFFFFFFFFFFFFFFFFFFFFFFFFF AND PUSH20 0xFFFFFFFFFFFFFFFFFFFFFFFFFFFFFFFFFFFFFFFF AND DUP2 MSTORE PUSH1 0x20 ADD SWAP1 DUP2 MSTORE PUSH1 0x20 ADD PUSH1 0x0 KECCAK256 PUSH1 0x4 ADD SLOAD TIMESTAMP PUSH2 0x3369 SWAP1 SWAP2 SWAP1 PUSH4 0xFFFFFFFF AND JUMP JUMPDEST SWAP1 POP PUSH1 0x0 PUSH2 0x2E30 DUP3 PUSH1 0x18 SLOAD PUSH2 0x3868 JUMP JUMPDEST SWAP1 POP PUSH1 0x0 PUSH2 0x2E40 PUSH1 0x0 SLOAD DUP4 PUSH2 0x3868 JUMP JUMPDEST SWAP1 POP PUSH2 0x2E97 PUSH1 0x21 PUSH1 0x0 DUP8 PUSH20 0xFFFFFFFFFFFFFFFFFFFFFFFFFFFFFFFFFFFFFFFF AND PUSH20 0xFFFFFFFFFFFFFFFFFFFFFFFFFFFFFFFFFFFFFFFF AND DUP2 MSTORE PUSH1 0x20 ADD SWAP1 DUP2 MSTORE PUSH1 0x20 ADD PUSH1 0x0 KECCAK256 PUSH1 0x2 ADD SLOAD DUP3 PUSH2 0x33AB SWAP1 SWAP2 SWAP1 PUSH4 0xFFFFFFFF AND JUMP JUMPDEST SWAP4 POP POP POP POP SWAP2 SWAP1 POP JUMP JUMPDEST PUSH1 0x1A PUSH1 0x0 SWAP1 SLOAD SWAP1 PUSH2 0x100 EXP SWAP1 DIV PUSH20 0xFFFFFFFFFFFFFFFFFFFFFFFFFFFFFFFFFFFFFFFF AND PUSH20 0xFFFFFFFFFFFFFFFFFFFFFFFFFFFFFFFFFFFFFFFF AND CALLER PUSH20 0xFFFFFFFFFFFFFFFFFFFFFFFFFFFFFFFFFFFFFFFF AND EQ PUSH2 0x2F31 JUMPI PUSH1 0x40 MLOAD PUSH32 0x8C379A000000000000000000000000000000000000000000000000000000000 DUP2 MSTORE PUSH1 0x4 ADD PUSH2 0x2F28 SWAP1 PUSH2 0x3E61 JUMP JUMPDEST PUSH1 0x40 MLOAD DUP1 SWAP2 SUB SWAP1 REVERT JUMPDEST DUP1 PUSH1 0x16 PUSH1 0x0 DUP5 PUSH20 0xFFFFFFFFFFFFFFFFFFFFFFFFFFFFFFFFFFFFFFFF AND PUSH20 0xFFFFFFFFFFFFFFFFFFFFFFFFFFFFFFFFFFFFFFFF AND DUP2 MSTORE PUSH1 0x20 ADD SWAP1 DUP2 MSTORE PUSH1 0x20 ADD PUSH1 0x0 KECCAK256 PUSH1 0x0 PUSH2 0x100 EXP DUP2 SLOAD DUP2 PUSH1 0xFF MUL NOT AND SWAP1 DUP4 ISZERO ISZERO MUL OR SWAP1 SSTORE POP POP POP JUMP JUMPDEST PUSH1 0x0 TIMESTAMP SWAP1 POP SWAP1 JUMP JUMPDEST PUSH1 0x15 PUSH1 0x0 SWAP1 SLOAD SWAP1 PUSH2 0x100 EXP SWAP1 DIV PUSH1 0xFF AND PUSH2 0x307E JUMPI PUSH1 0x1A PUSH1 0x0 SWAP1 SLOAD SWAP1 PUSH2 0x100 EXP SWAP1 DIV PUSH20 0xFFFFFFFFFFFFFFFFFFFFFFFFFFFFFFFFFFFFFFFF AND PUSH20 0xFFFFFFFFFFFFFFFFFFFFFFFFFFFFFFFFFFFFFFFF AND CALLER PUSH20 0xFFFFFFFFFFFFFFFFFFFFFFFFFFFFFFFFFFFFFFFF AND EQ ISZERO PUSH2 0x3042 JUMPI PUSH1 0x0 PUSH1 0x12 SLOAD EQ PUSH2 0x300D JUMPI PUSH1 0x0 DUP1 REVERT JUMPDEST PUSH1 0x1 PUSH1 0x15 PUSH1 0x0 PUSH2 0x100 EXP DUP2 SLOAD DUP2 PUSH1 0xFF MUL NOT AND SWAP1 DUP4 ISZERO ISZERO MUL OR SWAP1 SSTORE POP PUSH5 0x218711A000 PUSH1 0x12 DUP2 SWAP1 SSTORE POP PUSH2 0x303D DUP2 PUSH2 0x1908 JUMP JUMPDEST PUSH2 0x307D JUMP JUMPDEST PUSH1 0x40 MLOAD PUSH32 0x8C379A000000000000000000000000000000000000000000000000000000000 DUP2 MSTORE PUSH1 0x4 ADD PUSH2 0x3074 SWAP1 PUSH2 0x4106 JUMP JUMPDEST PUSH1 0x40 MLOAD DUP1 SWAP2 SUB SWAP1 REVERT JUMPDEST JUMPDEST POP JUMP JUMPDEST PUSH1 0x1A PUSH1 0x0 SWAP1 SLOAD SWAP1 PUSH2 0x100 EXP SWAP1 DIV PUSH20 0xFFFFFFFFFFFFFFFFFFFFFFFFFFFFFFFFFFFFFFFF AND PUSH20 0xFFFFFFFFFFFFFFFFFFFFFFFFFFFFFFFFFFFFFFFF AND CALLER PUSH20 0xFFFFFFFFFFFFFFFFFFFFFFFFFFFFFFFFFFFFFFFF AND EQ PUSH2 0x3111 JUMPI PUSH1 0x40 MLOAD PUSH32 0x8C379A000000000000000000000000000000000000000000000000000000000 DUP2 MSTORE PUSH1 0x4 ADD PUSH2 0x3108 SWAP1 PUSH2 0x3E61 JUMP JUMPDEST PUSH1 0x40 MLOAD DUP1 SWAP2 SUB SWAP1 REVERT JUMPDEST PUSH3 0x75120 DUP2 LT ISZERO DUP1 ISZERO PUSH2 0x3127 JUMPI POP PUSH3 0xAFC80 DUP2 GT ISZERO JUMPDEST PUSH2 0x3130 JUMPI PUSH1 0x0 DUP1 REVERT JUMPDEST DUP1 PUSH1 0x0 DUP2 SWAP1 SSTORE POP POP JUMP JUMPDEST PUSH1 0x1A PUSH1 0x0 SWAP1 SLOAD SWAP1 PUSH2 0x100 EXP SWAP1 DIV PUSH20 0xFFFFFFFFFFFFFFFFFFFFFFFFFFFFFFFFFFFFFFFF AND PUSH20 0xFFFFFFFFFFFFFFFFFFFFFFFFFFFFFFFFFFFFFFFF AND CALLER PUSH20 0xFFFFFFFFFFFFFFFFFFFFFFFFFFFFFFFFFFFFFFFF AND EQ PUSH2 0x31CA JUMPI PUSH1 0x40 MLOAD PUSH32 0x8C379A000000000000000000000000000000000000000000000000000000000 DUP2 MSTORE PUSH1 0x4 ADD PUSH2 0x31C1 SWAP1 PUSH2 0x3E61 JUMP JUMPDEST PUSH1 0x40 MLOAD DUP1 SWAP2 SUB SWAP1 REVERT JUMPDEST PUSH1 0xC DUP2 GT ISZERO PUSH2 0x31D8 JUMPI PUSH1 0x0 DUP1 REVERT JUMPDEST DUP1 PUSH1 0xC DUP2 SWAP1 SSTORE POP POP JUMP JUMPDEST PUSH1 0x1A PUSH1 0x0 SWAP1 SLOAD SWAP1 PUSH2 0x100 EXP SWAP1 DIV PUSH20 0xFFFFFFFFFFFFFFFFFFFFFFFFFFFFFFFFFFFFFFFF AND PUSH20 0xFFFFFFFFFFFFFFFFFFFFFFFFFFFFFFFFFFFFFFFF AND CALLER PUSH20 0xFFFFFFFFFFFFFFFFFFFFFFFFFFFFFFFFFFFFFFFF AND EQ PUSH2 0x3272 JUMPI PUSH1 0x40 MLOAD PUSH32 0x8C379A000000000000000000000000000000000000000000000000000000000 DUP2 MSTORE PUSH1 0x4 ADD PUSH2 0x3269 SWAP1 PUSH2 0x3E61 JUMP JUMPDEST PUSH1 0x40 MLOAD DUP1 SWAP2 SUB SWAP1 REVERT JUMPDEST PUSH1 0x0 JUMPDEST DUP4 DUP4 SWAP1 POP DUP2 LT ISZERO PUSH2 0x3311 JUMPI DUP2 PUSH1 0x16 PUSH1 0x0 DUP7 DUP7 DUP6 DUP2 DUP2 LT PUSH2 0x3298 JUMPI PUSH2 0x3297 PUSH2 0x4126 JUMP JUMPDEST JUMPDEST SWAP1 POP PUSH1 0x20 MUL ADD PUSH1 0x20 DUP2 ADD SWAP1 PUSH2 0x32AD SWAP2 SWAP1 PUSH2 0x3AAA JUMP JUMPDEST PUSH20 0xFFFFFFFFFFFFFFFFFFFFFFFFFFFFFFFFFFFFFFFF AND PUSH20 0xFFFFFFFFFFFFFFFFFFFFFFFFFFFFFFFFFFFFFFFF AND DUP2 MSTORE PUSH1 0x20 ADD SWAP1 DUP2 MSTORE PUSH1 0x20 ADD PUSH1 0x0 KECCAK256 PUSH1 0x0 PUSH2 0x100 EXP DUP2 SLOAD DUP2 PUSH1 0xFF MUL NOT AND SWAP1 DUP4 ISZERO ISZERO MUL OR SWAP1 SSTORE POP DUP1 DUP1 PUSH2 0x3309 SWAP1 PUSH2 0x4155 JUMP JUMPDEST SWAP2 POP POP PUSH2 0x3275 JUMP JUMPDEST POP POP POP POP JUMP JUMPDEST PUSH1 0xC SLOAD DUP2 JUMP JUMPDEST PUSH1 0x16 PUSH1 0x20 MSTORE DUP1 PUSH1 0x0 MSTORE PUSH1 0x40 PUSH1 0x0 KECCAK256 PUSH1 0x0 SWAP2 POP SLOAD SWAP1 PUSH2 0x100 EXP SWAP1 DIV PUSH1 0xFF AND DUP2 JUMP JUMPDEST PUSH1 0x0 DUP1 DUP3 DUP5 PUSH2 0x334C SWAP2 SWAP1 PUSH2 0x419E JUMP JUMPDEST SWAP1 POP DUP4 DUP2 LT ISZERO PUSH2 0x335F JUMPI PUSH2 0x335E PUSH2 0x41F4 JUMP JUMPDEST JUMPDEST DUP1 SWAP2 POP POP SWAP3 SWAP2 POP POP JUMP JUMPDEST PUSH1 0x0 DUP3 DUP3 GT ISZERO PUSH2 0x337C JUMPI PUSH2 0x337B PUSH2 0x41F4 JUMP JUMPDEST JUMPDEST DUP2 DUP4 PUSH2 0x3388 SWAP2 SWAP1 PUSH2 0x4223 JUMP JUMPDEST SWAP1 POP SWAP3 SWAP2 POP POP JUMP JUMPDEST PUSH1 0x0 DUP1 DUP3 DUP5 PUSH2 0x339F SWAP2 SWAP1 PUSH2 0x4286 JUMP JUMPDEST SWAP1 POP DUP1 SWAP2 POP POP SWAP3 SWAP2 POP POP JUMP JUMPDEST PUSH1 0x0 DUP1 DUP4 EQ ISZERO PUSH2 0x33BE JUMPI PUSH1 0x0 SWAP1 POP PUSH2 0x33EE JUMP JUMPDEST PUSH1 0x0 DUP3 DUP5 PUSH2 0x33CC SWAP2 SWAP1 PUSH2 0x3F1C JUMP JUMPDEST SWAP1 POP DUP3 DUP5 DUP3 PUSH2 0x33DB SWAP2 SWAP1 PUSH2 0x4286 JUMP JUMPDEST EQ PUSH2 0x33E9 JUMPI PUSH2 0x33E8 PUSH2 0x41F4 JUMP JUMPDEST JUMPDEST DUP1 SWAP2 POP POP JUMPDEST SWAP3 SWAP2 POP POP JUMP JUMPDEST PUSH1 0x0 DUP3 SWAP1 POP PUSH1 0x0 PUSH1 0x3 PUSH8 0xFFFFFFFFFFFFFFFF DUP2 GT ISZERO PUSH2 0x3416 JUMPI PUSH2 0x3415 PUSH2 0x42B7 JUMP JUMPDEST JUMPDEST PUSH1 0x40 MLOAD SWAP1 DUP1 DUP3 MSTORE DUP1 PUSH1 0x20 MUL PUSH1 0x20 ADD DUP3 ADD PUSH1 0x40 MSTORE DUP1 ISZERO PUSH2 0x3444 JUMPI DUP2 PUSH1 0x20 ADD PUSH1 0x20 DUP3 MUL DUP1 CALLDATASIZE DUP4 CALLDATACOPY DUP1 DUP3 ADD SWAP2 POP POP SWAP1 POP JUMPDEST POP SWAP1 POP PUSH1 0x8 DUP2 PUSH1 0x0 DUP2 MLOAD DUP2 LT PUSH2 0x345D JUMPI PUSH2 0x345C PUSH2 0x4126 JUMP JUMPDEST JUMPDEST PUSH1 0x20 MUL PUSH1 0x20 ADD ADD DUP2 DUP2 MSTORE POP POP PUSH1 0x3 DUP2 PUSH1 0x1 DUP2 MLOAD DUP2 LT PUSH2 0x347F JUMPI PUSH2 0x347E PUSH2 0x4126 JUMP JUMPDEST JUMPDEST PUSH1 0x20 MUL PUSH1 0x20 ADD ADD DUP2 DUP2 MSTORE POP POP PUSH1 0x2 DUP2 PUSH1 0x2 DUP2 MLOAD DUP2 LT PUSH2 0x34A1 JUMPI PUSH2 0x34A0 PUSH2 0x4126 JUMP JUMPDEST JUMPDEST PUSH1 0x20 MUL PUSH1 0x20 ADD ADD DUP2 DUP2 MSTORE POP POP PUSH1 0x0 JUMPDEST PUSH1 0x3 DUP2 LT ISZERO PUSH2 0x3705 JUMPI PUSH1 0x0 PUSH20 0xFFFFFFFFFFFFFFFFFFFFFFFFFFFFFFFFFFFFFFFF AND PUSH1 0x21 PUSH1 0x0 DUP6 PUSH20 0xFFFFFFFFFFFFFFFFFFFFFFFFFFFFFFFFFFFFFFFF AND PUSH20 0xFFFFFFFFFFFFFFFFFFFFFFFFFFFFFFFFFFFFFFFF AND DUP2 MSTORE PUSH1 0x20 ADD SWAP1 DUP2 MSTORE PUSH1 0x20 ADD PUSH1 0x0 KECCAK256 PUSH1 0x5 ADD PUSH1 0x0 SWAP1 SLOAD SWAP1 PUSH2 0x100 EXP SWAP1 DIV PUSH20 0xFFFFFFFFFFFFFFFFFFFFFFFFFFFFFFFFFFFFFFFF AND PUSH20 0xFFFFFFFFFFFFFFFFFFFFFFFFFFFFFFFFFFFFFFFF AND EQ PUSH2 0x36ED JUMPI PUSH1 0x21 PUSH1 0x0 DUP5 PUSH20 0xFFFFFFFFFFFFFFFFFFFFFFFFFFFFFFFFFFFFFFFF AND PUSH20 0xFFFFFFFFFFFFFFFFFFFFFFFFFFFFFFFFFFFFFFFF AND DUP2 MSTORE PUSH1 0x20 ADD SWAP1 DUP2 MSTORE PUSH1 0x20 ADD PUSH1 0x0 KECCAK256 PUSH1 0x5 ADD PUSH1 0x0 SWAP1 SLOAD SWAP1 PUSH2 0x100 EXP SWAP1 DIV PUSH20 0xFFFFFFFFFFFFFFFFFFFFFFFFFFFFFFFFFFFFFFFF AND SWAP3 POP PUSH1 0x0 PUSH1 0x64 DUP6 DUP5 DUP5 DUP2 MLOAD DUP2 LT PUSH2 0x35CC JUMPI PUSH2 0x35CB PUSH2 0x4126 JUMP JUMPDEST JUMPDEST PUSH1 0x20 MUL PUSH1 0x20 ADD ADD MLOAD PUSH2 0x35DE SWAP2 SWAP1 PUSH2 0x3F1C JUMP JUMPDEST PUSH2 0x35E8 SWAP2 SWAP1 PUSH2 0x4286 JUMP JUMPDEST SWAP1 POP DUP4 PUSH20 0xFFFFFFFFFFFFFFFFFFFFFFFFFFFFFFFFFFFFFFFF AND PUSH2 0x8FC DUP3 SWAP1 DUP2 ISZERO MUL SWAP1 PUSH1 0x40 MLOAD PUSH1 0x0 PUSH1 0x40 MLOAD DUP1 DUP4 SUB DUP2 DUP6 DUP9 DUP9 CALL SWAP4 POP POP POP POP ISZERO DUP1 ISZERO PUSH2 0x3630 JUMPI RETURNDATASIZE PUSH1 0x0 DUP1 RETURNDATACOPY RETURNDATASIZE PUSH1 0x0 REVERT JUMPDEST POP PUSH2 0x3686 DUP2 PUSH1 0x21 PUSH1 0x0 DUP8 PUSH20 0xFFFFFFFFFFFFFFFFFFFFFFFFFFFFFFFFFFFFFFFF AND PUSH20 0xFFFFFFFFFFFFFFFFFFFFFFFFFFFFFFFFFFFFFFFF AND DUP2 MSTORE PUSH1 0x20 ADD SWAP1 DUP2 MSTORE PUSH1 0x20 ADD PUSH1 0x0 KECCAK256 PUSH1 0x7 ADD SLOAD PUSH2 0x333D SWAP1 SWAP2 SWAP1 PUSH4 0xFFFFFFFF AND JUMP JUMPDEST PUSH1 0x21 PUSH1 0x0 DUP7 PUSH20 0xFFFFFFFFFFFFFFFFFFFFFFFFFFFFFFFFFFFFFFFF AND PUSH20 0xFFFFFFFFFFFFFFFFFFFFFFFFFFFFFFFFFFFFFFFF AND DUP2 MSTORE PUSH1 0x20 ADD SWAP1 DUP2 MSTORE PUSH1 0x20 ADD PUSH1 0x0 KECCAK256 PUSH1 0x7 ADD DUP2 SWAP1 SSTORE POP PUSH2 0x36E1 DUP2 PUSH1 0x10 SLOAD PUSH2 0x333D SWAP1 SWAP2 SWAP1 PUSH4 0xFFFFFFFF AND JUMP JUMPDEST PUSH1 0x10 DUP2 SWAP1 SSTORE POP POP PUSH2 0x36F2 JUMP JUMPDEST PUSH2 0x3705 JUMP JUMPDEST DUP1 DUP1 PUSH2 0x36FD SWAP1 PUSH2 0x4155 JUMP JUMPDEST SWAP2 POP POP PUSH2 0x34B0 JUMP JUMPDEST POP POP POP POP POP JUMP JUMPDEST PUSH1 0x0 DUP1 PUSH2 0x3738 PUSH1 0x2 SLOAD PUSH2 0x372A PUSH1 0x3 SLOAD DUP7 PUSH2 0x33AB SWAP1 SWAP2 SWAP1 PUSH4 0xFFFFFFFF AND JUMP JUMPDEST PUSH2 0x3390 SWAP1 SWAP2 SWAP1 PUSH4 0xFFFFFFFF AND JUMP JUMPDEST SWAP1 POP PUSH1 0x0 PUSH2 0x3765 PUSH1 0x2 SLOAD PUSH2 0x3757 PUSH1 0x4 SLOAD DUP8 PUSH2 0x33AB SWAP1 SWAP2 SWAP1 PUSH4 0xFFFFFFFF AND JUMP JUMPDEST PUSH2 0x3390 SWAP1 SWAP2 SWAP1 PUSH4 0xFFFFFFFF AND JUMP JUMPDEST SWAP1 POP PUSH1 0x1B PUSH1 0x0 SWAP1 SLOAD SWAP1 PUSH2 0x100 EXP SWAP1 DIV PUSH20 0xFFFFFFFFFFFFFFFFFFFFFFFFFFFFFFFFFFFFFFFF AND PUSH20 0xFFFFFFFFFFFFFFFFFFFFFFFFFFFFFFFFFFFFFFFF AND PUSH2 0x8FC DUP4 SWAP1 DUP2 ISZERO MUL SWAP1 PUSH1 0x40 MLOAD PUSH1 0x0 PUSH1 0x40 MLOAD DUP1 DUP4 SUB DUP2 DUP6 DUP9 DUP9 CALL SWAP4 POP POP POP POP ISZERO DUP1 ISZERO PUSH2 0x37CF JUMPI RETURNDATASIZE PUSH1 0x0 DUP1 RETURNDATACOPY RETURNDATASIZE PUSH1 0x0 REVERT JUMPDEST POP PUSH1 0x20 PUSH1 0x0 SWAP1 SLOAD SWAP1 PUSH2 0x100 EXP SWAP1 DIV PUSH20 0xFFFFFFFFFFFFFFFFFFFFFFFFFFFFFFFFFFFFFFFF AND PUSH20 0xFFFFFFFFFFFFFFFFFFFFFFFFFFFFFFFFFFFFFFFF AND PUSH2 0x8FC DUP3 SWAP1 DUP2 ISZERO MUL SWAP1 PUSH1 0x40 MLOAD PUSH1 0x0 PUSH1 0x40 MLOAD DUP1 DUP4 SUB DUP2 DUP6 DUP9 DUP9 CALL SWAP4 POP POP POP POP ISZERO DUP1 ISZERO PUSH2 0x3838 JUMPI RETURNDATASIZE PUSH1 0x0 DUP1 RETURNDATACOPY RETURNDATASIZE PUSH1 0x0 REVERT JUMPDEST POP PUSH2 0x385F PUSH2 0x3850 PUSH1 0x1 DUP5 PUSH2 0x33AB SWAP1 SWAP2 SWAP1 PUSH4 0xFFFFFFFF AND JUMP JUMPDEST DUP3 PUSH2 0x333D SWAP1 SWAP2 SWAP1 PUSH4 0xFFFFFFFF AND JUMP JUMPDEST SWAP3 POP POP POP SWAP2 SWAP1 POP JUMP JUMPDEST PUSH1 0x0 DUP2 DUP4 LT PUSH2 0x3877 JUMPI DUP2 PUSH2 0x3879 JUMP JUMPDEST DUP3 JUMPDEST SWAP1 POP SWAP3 SWAP2 POP POP JUMP JUMPDEST PUSH1 0x0 DUP2 SWAP1 POP SWAP2 SWAP1 POP JUMP JUMPDEST PUSH2 0x3894 DUP2 PUSH2 0x3881 JUMP JUMPDEST DUP3 MSTORE POP POP JUMP JUMPDEST PUSH1 0x0 PUSH1 0x20 DUP3 ADD SWAP1 POP PUSH2 0x38AF PUSH1 0x0 DUP4 ADD DUP5 PUSH2 0x388B JUMP JUMPDEST SWAP3 SWAP2 POP POP JUMP JUMPDEST PUSH1 0x0 PUSH20 0xFFFFFFFFFFFFFFFFFFFFFFFFFFFFFFFFFFFFFFFF DUP3 AND SWAP1 POP SWAP2 SWAP1 POP JUMP JUMPDEST PUSH1 0x0 PUSH2 0x38E0 DUP3 PUSH2 0x38B5 JUMP JUMPDEST SWAP1 POP SWAP2 SWAP1 POP JUMP JUMPDEST PUSH2 0x38F0 DUP2 PUSH2 0x38D5 JUMP JUMPDEST DUP3 MSTORE POP POP JUMP JUMPDEST PUSH1 0x0 PUSH1 0x20 DUP3 ADD SWAP1 POP PUSH2 0x390B PUSH1 0x0 DUP4 ADD DUP5 PUSH2 0x38E7 JUMP JUMPDEST SWAP3 SWAP2 POP POP JUMP JUMPDEST PUSH1 0x0 DUP1 REVERT JUMPDEST PUSH1 0x0 DUP1 REVERT JUMPDEST PUSH1 0x0 DUP2 ISZERO ISZERO SWAP1 POP SWAP2 SWAP1 POP JUMP JUMPDEST PUSH2 0x3930 DUP2 PUSH2 0x391B JUMP JUMPDEST DUP2 EQ PUSH2 0x393B JUMPI PUSH1 0x0 DUP1 REVERT JUMPDEST POP JUMP JUMPDEST PUSH1 0x0 DUP2 CALLDATALOAD SWAP1 POP PUSH2 0x394D DUP2 PUSH2 0x3927 JUMP JUMPDEST SWAP3 SWAP2 POP POP JUMP JUMPDEST PUSH1 0x0 PUSH1 0x20 DUP3 DUP5 SUB SLT ISZERO PUSH2 0x3969 JUMPI PUSH2 0x3968 PUSH2 0x3911 JUMP JUMPDEST JUMPDEST PUSH1 0x0 PUSH2 0x3977 DUP5 DUP3 DUP6 ADD PUSH2 0x393E JUMP JUMPDEST SWAP2 POP POP SWAP3 SWAP2 POP POP JUMP JUMPDEST PUSH2 0x3989 DUP2 PUSH2 0x3881 JUMP JUMPDEST DUP2 EQ PUSH2 0x3994 JUMPI PUSH1 0x0 DUP1 REVERT JUMPDEST POP JUMP JUMPDEST PUSH1 0x0 DUP2 CALLDATALOAD SWAP1 POP PUSH2 0x39A6 DUP2 PUSH2 0x3980 JUMP JUMPDEST SWAP3 SWAP2 POP POP JUMP JUMPDEST PUSH1 0x0 PUSH1 0x20 DUP3 DUP5 SUB SLT ISZERO PUSH2 0x39C2 JUMPI PUSH2 0x39C1 PUSH2 0x3911 JUMP JUMPDEST JUMPDEST PUSH1 0x0 PUSH2 0x39D0 DUP5 DUP3 DUP6 ADD PUSH2 0x3997 JUMP JUMPDEST SWAP2 POP POP SWAP3 SWAP2 POP POP JUMP JUMPDEST PUSH1 0x0 DUP1 PUSH1 0x0 PUSH1 0x60 DUP5 DUP7 SUB SLT ISZERO PUSH2 0x39F2 JUMPI PUSH2 0x39F1 PUSH2 0x3911 JUMP JUMPDEST JUMPDEST PUSH1 0x0 PUSH2 0x3A00 DUP7 DUP3 DUP8 ADD PUSH2 0x3997 JUMP JUMPDEST SWAP4 POP POP PUSH1 0x20 PUSH2 0x3A11 DUP7 DUP3 DUP8 ADD PUSH2 0x3997 JUMP JUMPDEST SWAP3 POP POP PUSH1 0x40 PUSH2 0x3A22 DUP7 DUP3 DUP8 ADD PUSH2 0x3997 JUMP JUMPDEST SWAP2 POP POP SWAP3 POP SWAP3 POP SWAP3 JUMP JUMPDEST PUSH1 0x0 DUP1 PUSH1 0x40 DUP4 DUP6 SUB SLT ISZERO PUSH2 0x3A43 JUMPI PUSH2 0x3A42 PUSH2 0x3911 JUMP JUMPDEST JUMPDEST PUSH1 0x0 PUSH2 0x3A51 DUP6 DUP3 DUP7 ADD PUSH2 0x3997 JUMP JUMPDEST SWAP3 POP POP PUSH1 0x20 PUSH2 0x3A62 DUP6 DUP3 DUP7 ADD PUSH2 0x3997 JUMP JUMPDEST SWAP2 POP POP SWAP3 POP SWAP3 SWAP1 POP JUMP JUMPDEST PUSH1 0x0 PUSH2 0x3A77 DUP3 PUSH2 0x38B5 JUMP JUMPDEST SWAP1 POP SWAP2 SWAP1 POP JUMP JUMPDEST PUSH2 0x3A87 DUP2 PUSH2 0x3A6C JUMP JUMPDEST DUP2 EQ PUSH2 0x3A92 JUMPI PUSH1 0x0 DUP1 REVERT JUMPDEST POP JUMP JUMPDEST PUSH1 0x0 DUP2 CALLDATALOAD SWAP1 POP PUSH2 0x3AA4 DUP2 PUSH2 0x3A7E JUMP JUMPDEST SWAP3 SWAP2 POP POP JUMP JUMPDEST PUSH1 0x0 PUSH1 0x20 DUP3 DUP5 SUB SLT ISZERO PUSH2 0x3AC0 JUMPI PUSH2 0x3ABF PUSH2 0x3911 JUMP JUMPDEST JUMPDEST PUSH1 0x0 PUSH2 0x3ACE DUP5 DUP3 DUP6 ADD PUSH2 0x3A95 JUMP JUMPDEST SWAP2 POP POP SWAP3 SWAP2 POP POP JUMP JUMPDEST PUSH2 0x3AE0 DUP2 PUSH2 0x391B JUMP JUMPDEST DUP3 MSTORE POP POP JUMP JUMPDEST PUSH1 0x0 PUSH1 0x20 DUP3 ADD SWAP1 POP PUSH2 0x3AFB PUSH1 0x0 DUP4 ADD DUP5 PUSH2 0x3AD7 JUMP JUMPDEST SWAP3 SWAP2 POP POP JUMP JUMPDEST PUSH1 0x0 PUSH1 0x80 DUP3 ADD SWAP1 POP PUSH2 0x3B16 PUSH1 0x0 DUP4 ADD DUP8 PUSH2 0x388B JUMP JUMPDEST PUSH2 0x3B23 PUSH1 0x20 DUP4 ADD DUP7 PUSH2 0x388B JUMP JUMPDEST PUSH2 0x3B30 PUSH1 0x40 DUP4 ADD DUP6 PUSH2 0x388B JUMP JUMPDEST PUSH2 0x3B3D PUSH1 0x60 DUP4 ADD DUP5 PUSH2 0x388B JUMP JUMPDEST SWAP6 SWAP5 POP POP POP POP POP JUMP JUMPDEST PUSH1 0x0 DUP1 PUSH1 0x40 DUP4 DUP6 SUB SLT ISZERO PUSH2 0x3B5D JUMPI PUSH2 0x3B5C PUSH2 0x3911 JUMP JUMPDEST JUMPDEST PUSH1 0x0 PUSH2 0x3B6B DUP6 DUP3 DUP7 ADD PUSH2 0x3A95 JUMP JUMPDEST SWAP3 POP POP PUSH1 0x20 PUSH2 0x3B7C DUP6 DUP3 DUP7 ADD PUSH2 0x3997 JUMP JUMPDEST SWAP2 POP POP SWAP3 POP SWAP3 SWAP1 POP JUMP JUMPDEST PUSH2 0x3B8F DUP2 PUSH2 0x3A6C JUMP JUMPDEST DUP3 MSTORE POP POP JUMP JUMPDEST PUSH1 0x0 PUSH2 0x180 DUP3 ADD SWAP1 POP PUSH2 0x3BAB PUSH1 0x0 DUP4 ADD DUP16 PUSH2 0x388B JUMP JUMPDEST PUSH2 0x3BB8 PUSH1 0x20 DUP4 ADD DUP15 PUSH2 0x388B JUMP JUMPDEST PUSH2 0x3BC5 PUSH1 0x40 DUP4 ADD DUP14 PUSH2 0x388B JUMP JUMPDEST PUSH2 0x3BD2 PUSH1 0x60 DUP4 ADD DUP13 PUSH2 0x388B JUMP JUMPDEST PUSH2 0x3BDF PUSH1 0x80 DUP4 ADD DUP12 PUSH2 0x388B JUMP JUMPDEST PUSH2 0x3BEC PUSH1 0xA0 DUP4 ADD DUP11 PUSH2 0x3B86 JUMP JUMPDEST PUSH2 0x3BF9 PUSH1 0xC0 DUP4 ADD DUP10 PUSH2 0x388B JUMP JUMPDEST PUSH2 0x3C06 PUSH1 0xE0 DUP4 ADD DUP9 PUSH2 0x388B JUMP JUMPDEST PUSH2 0x3C14 PUSH2 0x100 DUP4 ADD DUP8 PUSH2 0x388B JUMP JUMPDEST PUSH2 0x3C22 PUSH2 0x120 DUP4 ADD DUP7 PUSH2 0x388B JUMP JUMPDEST PUSH2 0x3C30 PUSH2 0x140 DUP4 ADD DUP6 PUSH2 0x388B JUMP JUMPDEST PUSH2 0x3C3E PUSH2 0x160 DUP4 ADD DUP5 PUSH2 0x388B JUMP JUMPDEST SWAP14 SWAP13 POP POP POP POP POP POP POP POP POP POP POP POP POP JUMP JUMPDEST PUSH1 0x0 PUSH1 0x20 DUP3 ADD SWAP1 POP PUSH2 0x3C64 PUSH1 0x0 DUP4 ADD DUP5 PUSH2 0x3B86 JUMP JUMPDEST SWAP3 SWAP2 POP POP JUMP JUMPDEST PUSH1 0x0 PUSH1 0x40 DUP3 ADD SWAP1 POP PUSH2 0x3C7F PUSH1 0x0 DUP4 ADD DUP6 PUSH2 0x388B JUMP JUMPDEST PUSH2 0x3C8C PUSH1 0x20 DUP4 ADD DUP5 PUSH2 0x388B JUMP JUMPDEST SWAP4 SWAP3 POP POP POP JUMP JUMPDEST PUSH1 0x0 DUP1 PUSH1 0x40 DUP4 DUP6 SUB SLT ISZERO PUSH2 0x3CAA JUMPI PUSH2 0x3CA9 PUSH2 0x3911 JUMP JUMPDEST JUMPDEST PUSH1 0x0 PUSH2 0x3CB8 DUP6 DUP3 DUP7 ADD PUSH2 0x3A95 JUMP JUMPDEST SWAP3 POP POP PUSH1 0x20 PUSH2 0x3CC9 DUP6 DUP3 DUP7 ADD PUSH2 0x393E JUMP JUMPDEST SWAP2 POP POP SWAP3 POP SWAP3 SWAP1 POP JUMP JUMPDEST PUSH1 0x0 DUP1 REVERT JUMPDEST PUSH1 0x0 DUP1 REVERT JUMPDEST PUSH1 0x0 DUP1 REVERT JUMPDEST PUSH1 0x0 DUP1 DUP4 PUSH1 0x1F DUP5 ADD SLT PUSH2 0x3CF8 JUMPI PUSH2 0x3CF7 PUSH2 0x3CD3 JUMP JUMPDEST JUMPDEST DUP3 CALLDATALOAD SWAP1 POP PUSH8 0xFFFFFFFFFFFFFFFF DUP2 GT ISZERO PUSH2 0x3D15 JUMPI PUSH2 0x3D14 PUSH2 0x3CD8 JUMP JUMPDEST JUMPDEST PUSH1 0x20 DUP4 ADD SWAP2 POP DUP4 PUSH1 0x20 DUP3 MUL DUP4 ADD GT ISZERO PUSH2 0x3D31 JUMPI PUSH2 0x3D30 PUSH2 0x3CDD JUMP JUMPDEST JUMPDEST SWAP3 POP SWAP3 SWAP1 POP JUMP JUMPDEST PUSH1 0x0 DUP1 PUSH1 0x0 PUSH1 0x40 DUP5 DUP7 SUB SLT ISZERO PUSH2 0x3D51 JUMPI PUSH2 0x3D50 PUSH2 0x3911 JUMP JUMPDEST JUMPDEST PUSH1 0x0 DUP5 ADD CALLDATALOAD PUSH8 0xFFFFFFFFFFFFFFFF DUP2 GT ISZERO PUSH2 0x3D6F JUMPI PUSH2 0x3D6E PUSH2 0x3916 JUMP JUMPDEST JUMPDEST PUSH2 0x3D7B DUP7 DUP3 DUP8 ADD PUSH2 0x3CE2 JUMP JUMPDEST SWAP4 POP SWAP4 POP POP PUSH1 0x20 PUSH2 0x3D8E DUP7 DUP3 DUP8 ADD PUSH2 0x393E JUMP JUMPDEST SWAP2 POP POP SWAP3 POP SWAP3 POP SWAP3 JUMP JUMPDEST PUSH1 0x0 DUP3 DUP3 MSTORE PUSH1 0x20 DUP3 ADD SWAP1 POP SWAP3 SWAP2 POP POP JUMP JUMPDEST PUSH32 0x436F6E7472616374206E6F742079657420537461727465642E00000000000000 PUSH1 0x0 DUP3 ADD MSTORE POP JUMP JUMPDEST PUSH1 0x0 PUSH2 0x3DDF PUSH1 0x19 DUP4 PUSH2 0x3D98 JUMP JUMPDEST SWAP2 POP PUSH2 0x3DEA DUP3 PUSH2 0x3DA9 JUMP JUMPDEST PUSH1 0x20 DUP3 ADD SWAP1 POP SWAP2 SWAP1 POP JUMP JUMPDEST PUSH1 0x0 PUSH1 0x20 DUP3 ADD SWAP1 POP DUP2 DUP2 SUB PUSH1 0x0 DUP4 ADD MSTORE PUSH2 0x3E0E DUP2 PUSH2 0x3DD2 JUMP JUMPDEST SWAP1 POP SWAP2 SWAP1 POP JUMP JUMPDEST PUSH32 0x41646D696E20757365206F6E6C792E0000000000000000000000000000000000 PUSH1 0x0 DUP3 ADD MSTORE POP JUMP JUMPDEST PUSH1 0x0 PUSH2 0x3E4B PUSH1 0xF DUP4 PUSH2 0x3D98 JUMP JUMPDEST SWAP2 POP PUSH2 0x3E56 DUP3 PUSH2 0x3E15 JUMP JUMPDEST PUSH1 0x20 DUP3 ADD SWAP1 POP SWAP2 SWAP1 POP JUMP JUMPDEST PUSH1 0x0 PUSH1 0x20 DUP3 ADD SWAP1 POP DUP2 DUP2 SUB PUSH1 0x0 DUP4 ADD MSTORE PUSH2 0x3E7A DUP2 PUSH2 0x3E3E JUMP JUMPDEST SWAP1 POP SWAP2 SWAP1 POP JUMP JUMPDEST PUSH32 0x41646D696E20757365206F6E6C79000000000000000000000000000000000000 PUSH1 0x0 DUP3 ADD MSTORE POP JUMP JUMPDEST PUSH1 0x0 PUSH2 0x3EB7 PUSH1 0xE DUP4 PUSH2 0x3D98 JUMP JUMPDEST SWAP2 POP PUSH2 0x3EC2 DUP3 PUSH2 0x3E81 JUMP JUMPDEST PUSH1 0x20 DUP3 ADD SWAP1 POP SWAP2 SWAP1 POP JUMP JUMPDEST PUSH1 0x0 PUSH1 0x20 DUP3 ADD SWAP1 POP DUP2 DUP2 SUB PUSH1 0x0 DUP4 ADD MSTORE PUSH2 0x3EE6 DUP2 PUSH2 0x3EAA JUMP JUMPDEST SWAP1 POP SWAP2 SWAP1 POP JUMP JUMPDEST PUSH32 0x4E487B7100000000000000000000000000000000000000000000000000000000 PUSH1 0x0 MSTORE PUSH1 0x11 PUSH1 0x4 MSTORE PUSH1 0x24 PUSH1 0x0 REVERT JUMPDEST PUSH1 0x0 PUSH2 0x3F27 DUP3 PUSH2 0x3881 JUMP JUMPDEST SWAP2 POP PUSH2 0x3F32 DUP4 PUSH2 0x3881 JUMP JUMPDEST SWAP3 POP DUP2 PUSH32 0xFFFFFFFFFFFFFFFFFFFFFFFFFFFFFFFFFFFFFFFFFFFFFFFFFFFFFFFFFFFFFFFF DIV DUP4 GT DUP3 ISZERO ISZERO AND ISZERO PUSH2 0x3F6B JUMPI PUSH2 0x3F6A PUSH2 0x3EED JUMP JUMPDEST JUMPDEST DUP3 DUP3 MUL SWAP1 POP SWAP3 SWAP2 POP POP JUMP JUMPDEST PUSH32 0x4D696E696E756D20696E766573746D656E74206E6F74206D65742E0000000000 PUSH1 0x0 DUP3 ADD MSTORE POP JUMP JUMPDEST PUSH1 0x0 PUSH2 0x3FAC PUSH1 0x1B DUP4 PUSH2 0x3D98 JUMP JUMPDEST SWAP2 POP PUSH2 0x3FB7 DUP3 PUSH2 0x3F76 JUMP JUMPDEST PUSH1 0x20 DUP3 ADD SWAP1 POP SWAP2 SWAP1 POP JUMP JUMPDEST PUSH1 0x0 PUSH1 0x20 DUP3 ADD SWAP1 POP DUP2 DUP2 SUB PUSH1 0x0 DUP4 ADD MSTORE PUSH2 0x3FDB DUP2 PUSH2 0x3F9F JUMP JUMPDEST SWAP1 POP SWAP2 SWAP1 POP JUMP JUMPDEST PUSH32 0x4D6178206465706F736974206C696D697420726561636865642E000000000000 PUSH1 0x0 DUP3 ADD MSTORE POP JUMP JUMPDEST PUSH1 0x0 PUSH2 0x4018 PUSH1 0x1A DUP4 PUSH2 0x3D98 JUMP JUMPDEST SWAP2 POP PUSH2 0x4023 DUP3 PUSH2 0x3FE2 JUMP JUMPDEST PUSH1 0x20 DUP3 ADD SWAP1 POP SWAP2 SWAP1 POP JUMP JUMPDEST PUSH1 0x0 PUSH1 0x20 DUP3 ADD SWAP1 POP DUP2 DUP2 SUB PUSH1 0x0 DUP4 ADD MSTORE PUSH2 0x4047 DUP2 PUSH2 0x400B JUMP JUMPDEST SWAP1 POP SWAP2 SWAP1 POP JUMP JUMPDEST PUSH32 0x4164647265737320697320626C61636B6C69737465642E000000000000000000 PUSH1 0x0 DUP3 ADD MSTORE POP JUMP JUMPDEST PUSH1 0x0 PUSH2 0x4084 PUSH1 0x17 DUP4 PUSH2 0x3D98 JUMP JUMPDEST SWAP2 POP PUSH2 0x408F DUP3 PUSH2 0x404E JUMP JUMPDEST PUSH1 0x20 DUP3 ADD SWAP1 POP SWAP2 SWAP1 POP JUMP JUMPDEST PUSH1 0x0 PUSH1 0x20 DUP3 ADD SWAP1 POP DUP2 DUP2 SUB PUSH1 0x0 DUP4 ADD MSTORE PUSH2 0x40B3 DUP2 PUSH2 0x4077 JUMP JUMPDEST SWAP1 POP SWAP2 SWAP1 POP JUMP JUMPDEST PUSH32 0x436F6E7472616374206E6F742079657420737461727465642E00000000000000 PUSH1 0x0 DUP3 ADD MSTORE POP JUMP JUMPDEST PUSH1 0x0 PUSH2 0x40F0 PUSH1 0x19 DUP4 PUSH2 0x3D98 JUMP JUMPDEST SWAP2 POP PUSH2 0x40FB DUP3 PUSH2 0x40BA JUMP JUMPDEST PUSH1 0x20 DUP3 ADD SWAP1 POP SWAP2 SWAP1 POP JUMP JUMPDEST PUSH1 0x0 PUSH1 0x20 DUP3 ADD SWAP1 POP DUP2 DUP2 SUB PUSH1 0x0 DUP4 ADD MSTORE PUSH2 0x411F DUP2 PUSH2 0x40E3 JUMP JUMPDEST SWAP1 POP SWAP2 SWAP1 POP JUMP JUMPDEST PUSH32 0x4E487B7100000000000000000000000000000000000000000000000000000000 PUSH1 0x0 MSTORE PUSH1 0x32 PUSH1 0x4 MSTORE PUSH1 0x24 PUSH1 0x0 REVERT JUMPDEST PUSH1 0x0 PUSH2 0x4160 DUP3 PUSH2 0x3881 JUMP JUMPDEST SWAP2 POP PUSH32 0xFFFFFFFFFFFFFFFFFFFFFFFFFFFFFFFFFFFFFFFFFFFFFFFFFFFFFFFFFFFFFFFF DUP3 EQ ISZERO PUSH2 0x4193 JUMPI PUSH2 0x4192 PUSH2 0x3EED JUMP JUMPDEST JUMPDEST PUSH1 0x1 DUP3 ADD SWAP1 POP SWAP2 SWAP1 POP JUMP JUMPDEST PUSH1 0x0 PUSH2 0x41A9 DUP3 PUSH2 0x3881 JUMP JUMPDEST SWAP2 POP PUSH2 0x41B4 DUP4 PUSH2 0x3881 JUMP JUMPDEST SWAP3 POP DUP3 PUSH32 0xFFFFFFFFFFFFFFFFFFFFFFFFFFFFFFFFFFFFFFFFFFFFFFFFFFFFFFFFFFFFFFFF SUB DUP3 GT ISZERO PUSH2 0x41E9 JUMPI PUSH2 0x41E8 PUSH2 0x3EED JUMP JUMPDEST JUMPDEST DUP3 DUP3 ADD SWAP1 POP SWAP3 SWAP2 POP POP JUMP JUMPDEST PUSH32 0x4E487B7100000000000000000000000000000000000000000000000000000000 PUSH1 0x0 MSTORE PUSH1 0x1 PUSH1 0x4 MSTORE PUSH1 0x24 PUSH1 0x0 REVERT JUMPDEST PUSH1 0x0 PUSH2 0x422E DUP3 PUSH2 0x3881 JUMP JUMPDEST SWAP2 POP PUSH2 0x4239 DUP4 PUSH2 0x3881 JUMP JUMPDEST SWAP3 POP DUP3 DUP3 LT ISZERO PUSH2 0x424C JUMPI PUSH2 0x424B PUSH2 0x3EED JUMP JUMPDEST JUMPDEST DUP3 DUP3 SUB SWAP1 POP SWAP3 SWAP2 POP POP JUMP JUMPDEST PUSH32 0x4E487B7100000000000000000000000000000000000000000000000000000000 PUSH1 0x0 MSTORE PUSH1 0x12 PUSH1 0x4 MSTORE PUSH1 0x24 PUSH1 0x0 REVERT JUMPDEST PUSH1 0x0 PUSH2 0x4291 DUP3 PUSH2 0x3881 JUMP JUMPDEST SWAP2 POP PUSH2 0x429C DUP4 PUSH2 0x3881 JUMP JUMPDEST SWAP3 POP DUP3 PUSH2 0x42AC JUMPI PUSH2 0x42AB PUSH2 0x4257 JUMP JUMPDEST JUMPDEST DUP3 DUP3 DIV SWAP1 POP SWAP3 SWAP2 POP POP JUMP JUMPDEST PUSH32 0x4E487B7100000000000000000000000000000000000000000000000000000000 PUSH1 0x0 MSTORE PUSH1 0x41 PUSH1 0x4 MSTORE PUSH1 0x24 PUSH1 0x0 REVERT INVALID LOG2 PUSH5 0x6970667358 0x22 SLT KECCAK256 0xE6 0xAF PUSH26 0xDC24BB6A79352ECBF1E3EEACEB6DF04F020C111621E00657C697 0x5C SWAP10 BLOCKHASH PUSH5 0x736F6C6343 STOP ADDMOD MULMOD STOP CALLER "
				},
				"gasEstimates": {
					"creation": {
						"codeDepositCost": "3436000",
						"executionCost": "infinite",
						"totalCost": "infinite"
					},
					"external": {
						"BONUS_COMPOUND_STEP(uint256)": "infinite",
						"BONUS_DAILY_COMPOUND(uint256)": "24839",
						"BONUS_DAILY_COMPOUND_BONUS_MAX_TIMES(uint256)": "24850",
						"Blacklisted(address)": "2999",
						"CHANGE_OWNERSHIP(address)": "26960",
						"COMPOUND_BONUS()": "2584",
						"COMPOUND_BONUS_MAX_TIMES()": "2518",
						"COMPOUND_FOR_NO_TAX_WITHDRAWAL()": "2561",
						"COMPOUND_STEP()": "2540",
						"CUTOFF_STEP()": "2585",
						"EGGS_TO_HIRE_1MINERS()": "2564",
						"MARKET_EGGS_DIVISOR()": "2497",
						"MIN_INVEST_LIMIT()": "2562",
						"MKT()": "2519",
						"PERCENTS_DIVIDER()": "2499",
						"PRC_EGGS_TO_HIRE_1MINERS(uint256)": "24816",
						"PRC_MARKET_EGGS_DIVISOR(uint256)": "24849",
						"PRC_MKT(uint256)": "24873",
						"PRC_REFERRAL(uint256)": "24884",
						"PRC_TAX(uint256)": "24851",
						"REFERRAL()": "2496",
						"SET_COMPOUND_FOR_NO_TAX_WITHDRAWAL(uint256)": "24804",
						"SET_CUTOFF_STEP(uint256)": "infinite",
						"SET_INVEST_MIN(uint256)": "24803",
						"SET_WALLET_DEPOSIT_LIMIT(uint256)": "infinite",
						"SET_WITHDRAWAL_TAX(uint256)": "24828",
						"SET_WITHDRAW_COOLDOWN(uint256)": "infinite",
						"TAX()": "2563",
						"WALLET_DEPOSIT_LIMIT()": "2520",
						"WITHDRAWAL_TAX()": "2521",
						"WITHDRAW_COOLDOWN()": "2519",
						"blackListWallet(address,bool)": "27250",
						"blackMultipleWallets(address[],bool)": "infinite",
						"blacklistActive()": "2676",
						"calculateEggBuy(uint256,uint256)": "infinite",
						"calculateEggBuySimple(uint256)": "infinite",
						"calculateEggSell(uint256)": "infinite",
						"calculateEggSellForYield(uint256,uint256)": "infinite",
						"calculateTrade(uint256,uint256,uint256)": "infinite",
						"checkIfBlacklisted(address)": "5187",
						"contractStarted()": "2605",
						"dev1()": "2603",
						"dev2()": "2604",
						"dev3()": "2605",
						"firstDeposit(address)": "2947",
						"fundContract()": "188",
						"getAvailableEarnings(address)": "infinite",
						"getBalance()": "408",
						"getDailyCompoundBonus(address,uint256)": "infinite",
						"getEggsSinceLastHatch(address)": "infinite",
						"getEggsYield(uint256)": "infinite",
						"getMyEggs()": "infinite",
						"getMyMiners()": "2668",
						"getSiteInfo()": "infinite",
						"getTimeStamp()": "447",
						"getUserInfo(address)": "infinite",
						"hireFarmers(address)": "infinite",
						"hireMoreFarmers(bool)": "infinite",
						"marketEggs()": "2541",
						"mkt()": "2583",
						"owner()": "2670",
						"prtnr1()": "2628",
						"prtnr2()": "2648",
						"sellCrops()": "infinite",
						"setblacklistActive(bool)": "26966",
						"startFarm(address)": "infinite",
						"totalCompound()": "2542",
						"totalDeposits()": "2520",
						"totalRefBonus()": "2496",
						"totalStaked()": "2541",
						"totalWithdrawn()": "2564",
						"users(address)": "infinite"
					},
					"internal": {
						"isContract(address)": "infinite",
						"min(uint256,uint256)": "64",
						"payFees(uint256)": "infinite",
						"sendRewardToReferrals(address,uint256)": "infinite"
					}
				},
				"methodIdentifiers": {
					"BONUS_COMPOUND_STEP(uint256)": "959c95b3",
					"BONUS_DAILY_COMPOUND(uint256)": "6f969d28",
					"BONUS_DAILY_COMPOUND_BONUS_MAX_TIMES(uint256)": "9b9cb69f",
					"Blacklisted(address)": "ffa4e618",
					"CHANGE_OWNERSHIP(address)": "2b039d0e",
					"COMPOUND_BONUS()": "d7206d5d",
					"COMPOUND_BONUS_MAX_TIMES()": "c688f0fb",
					"COMPOUND_FOR_NO_TAX_WITHDRAWAL()": "f6f62886",
					"COMPOUND_STEP()": "752a2628",
					"CUTOFF_STEP()": "3578584f",
					"EGGS_TO_HIRE_1MINERS()": "195a7339",
					"MARKET_EGGS_DIVISOR()": "59eec895",
					"MIN_INVEST_LIMIT()": "cd329fc3",
					"MKT()": "2bc82f7f",
					"PERCENTS_DIVIDER()": "01c234a8",
					"PRC_EGGS_TO_HIRE_1MINERS(uint256)": "e6dc9558",
					"PRC_MARKET_EGGS_DIVISOR(uint256)": "7a62ead7",
					"PRC_MKT(uint256)": "1a7b8d4f",
					"PRC_REFERRAL(uint256)": "570c2979",
					"PRC_TAX(uint256)": "298ea310",
					"REFERRAL()": "c63568c7",
					"SET_COMPOUND_FOR_NO_TAX_WITHDRAWAL(uint256)": "e7576943",
					"SET_CUTOFF_STEP(uint256)": "7c8e4b4c",
					"SET_INVEST_MIN(uint256)": "45f98c29",
					"SET_WALLET_DEPOSIT_LIMIT(uint256)": "7ee28e3c",
					"SET_WITHDRAWAL_TAX(uint256)": "bfa9f304",
					"SET_WITHDRAW_COOLDOWN(uint256)": "45a6a6e0",
					"TAX()": "68f58b03",
					"WALLET_DEPOSIT_LIMIT()": "1848b8dc",
					"WITHDRAWAL_TAX()": "0420c98e",
					"WITHDRAW_COOLDOWN()": "950d91e9",
					"blackListWallet(address,bool)": "d989b4b3",
					"blackMultipleWallets(address[],bool)": "eb271268",
					"blacklistActive()": "b6e6fcf6",
					"calculateEggBuy(uint256,uint256)": "26fd8422",
					"calculateEggBuySimple(uint256)": "7e56fde5",
					"calculateEggSell(uint256)": "8e316327",
					"calculateEggSellForYield(uint256,uint256)": "cc3e9c78",
					"calculateTrade(uint256,uint256,uint256)": "229824c4",
					"checkIfBlacklisted(address)": "c3251b40",
					"contractStarted()": "333f57b3",
					"dev1()": "a327c45d",
					"dev2()": "8013f3a7",
					"dev3()": "2362ce89",
					"firstDeposit(address)": "ac4b3c04",
					"fundContract()": "bd097e21",
					"getAvailableEarnings(address)": "64c03a5e",
					"getBalance()": "12065fe0",
					"getDailyCompoundBonus(address,uint256)": "50637dbd",
					"getEggsSinceLastHatch(address)": "d7c8843b",
					"getEggsYield(uint256)": "bdd1ca27",
					"getMyEggs()": "43ce7422",
					"getMyMiners()": "0a76e5ed",
					"getSiteInfo()": "4ce87053",
					"getTimeStamp()": "da235b22",
					"getUserInfo(address)": "6386c1c7",
					"hireFarmers(address)": "50cf1c7a",
					"hireMoreFarmers(bool)": "18c819d8",
					"marketEggs()": "2e9392bb",
					"mkt()": "7cc5b1e6",
					"owner()": "8da5cb5b",
					"prtnr1()": "07aeb7f0",
					"prtnr2()": "8a315efd",
					"sellCrops()": "57386225",
					"setblacklistActive(bool)": "9e9300a5",
					"startFarm(address)": "da5d4cc5",
					"totalCompound()": "7db07c9d",
					"totalDeposits()": "7d882097",
					"totalRefBonus()": "69b11dd5",
					"totalStaked()": "817b1cd2",
					"totalWithdrawn()": "4b319713",
					"users(address)": "a87430ba"
				}
			},
			"storageLayout": {
				"storage": [
					{
						"astId": 8,
						"contract": "contracts/cropsFarmer.sol:BNB_V3",
						"label": "EGGS_TO_HIRE_1MINERS",
						"offset": 0,
						"slot": "0",
						"type": "t_uint256"
					},
					{
						"astId": 11,
						"contract": "contracts/cropsFarmer.sol:BNB_V3",
						"label": "REFERRAL",
						"offset": 0,
						"slot": "1",
						"type": "t_uint256"
					},
					{
						"astId": 14,
						"contract": "contracts/cropsFarmer.sol:BNB_V3",
						"label": "PERCENTS_DIVIDER",
						"offset": 0,
						"slot": "2",
						"type": "t_uint256"
					},
					{
						"astId": 17,
						"contract": "contracts/cropsFarmer.sol:BNB_V3",
						"label": "TAX",
						"offset": 0,
						"slot": "3",
						"type": "t_uint256"
					},
					{
						"astId": 20,
						"contract": "contracts/cropsFarmer.sol:BNB_V3",
						"label": "MKT",
						"offset": 0,
						"slot": "4",
						"type": "t_uint256"
					},
					{
						"astId": 23,
						"contract": "contracts/cropsFarmer.sol:BNB_V3",
						"label": "MARKET_EGGS_DIVISOR",
						"offset": 0,
						"slot": "5",
						"type": "t_uint256"
					},
					{
						"astId": 26,
						"contract": "contracts/cropsFarmer.sol:BNB_V3",
						"label": "MIN_INVEST_LIMIT",
						"offset": 0,
						"slot": "6",
						"type": "t_uint256"
					},
					{
						"astId": 32,
						"contract": "contracts/cropsFarmer.sol:BNB_V3",
						"label": "WALLET_DEPOSIT_LIMIT",
						"offset": 0,
						"slot": "7",
						"type": "t_uint256"
					},
					{
						"astId": 36,
						"contract": "contracts/cropsFarmer.sol:BNB_V3",
						"label": "COMPOUND_BONUS",
						"offset": 0,
						"slot": "8",
						"type": "t_uint256"
					},
					{
						"astId": 39,
						"contract": "contracts/cropsFarmer.sol:BNB_V3",
						"label": "COMPOUND_BONUS_MAX_TIMES",
						"offset": 0,
						"slot": "9",
						"type": "t_uint256"
					},
					{
						"astId": 46,
						"contract": "contracts/cropsFarmer.sol:BNB_V3",
						"label": "COMPOUND_STEP",
						"offset": 0,
						"slot": "10",
						"type": "t_uint256"
					},
					{
						"astId": 49,
						"contract": "contracts/cropsFarmer.sol:BNB_V3",
						"label": "WITHDRAWAL_TAX",
						"offset": 0,
						"slot": "11",
						"type": "t_uint256"
					},
					{
						"astId": 52,
						"contract": "contracts/cropsFarmer.sol:BNB_V3",
						"label": "COMPOUND_FOR_NO_TAX_WITHDRAWAL",
						"offset": 0,
						"slot": "12",
						"type": "t_uint256"
					},
					{
						"astId": 54,
						"contract": "contracts/cropsFarmer.sol:BNB_V3",
						"label": "totalStaked",
						"offset": 0,
						"slot": "13",
						"type": "t_uint256"
					},
					{
						"astId": 56,
						"contract": "contracts/cropsFarmer.sol:BNB_V3",
						"label": "totalDeposits",
						"offset": 0,
						"slot": "14",
						"type": "t_uint256"
					},
					{
						"astId": 58,
						"contract": "contracts/cropsFarmer.sol:BNB_V3",
						"label": "totalCompound",
						"offset": 0,
						"slot": "15",
						"type": "t_uint256"
					},
					{
						"astId": 60,
						"contract": "contracts/cropsFarmer.sol:BNB_V3",
						"label": "totalRefBonus",
						"offset": 0,
						"slot": "16",
						"type": "t_uint256"
					},
					{
						"astId": 62,
						"contract": "contracts/cropsFarmer.sol:BNB_V3",
						"label": "totalWithdrawn",
						"offset": 0,
						"slot": "17",
						"type": "t_uint256"
					},
					{
						"astId": 64,
						"contract": "contracts/cropsFarmer.sol:BNB_V3",
						"label": "marketEggs",
						"offset": 0,
						"slot": "18",
						"type": "t_uint256"
					},
					{
						"astId": 67,
						"contract": "contracts/cropsFarmer.sol:BNB_V3",
						"label": "PSN",
						"offset": 0,
						"slot": "19",
						"type": "t_uint256"
					},
					{
						"astId": 70,
						"contract": "contracts/cropsFarmer.sol:BNB_V3",
						"label": "PSNH",
						"offset": 0,
						"slot": "20",
						"type": "t_uint256"
					},
					{
						"astId": 72,
						"contract": "contracts/cropsFarmer.sol:BNB_V3",
						"label": "contractStarted",
						"offset": 0,
						"slot": "21",
						"type": "t_bool"
					},
					{
						"astId": 75,
						"contract": "contracts/cropsFarmer.sol:BNB_V3",
						"label": "blacklistActive",
						"offset": 1,
						"slot": "21",
						"type": "t_bool"
					},
					{
						"astId": 79,
						"contract": "contracts/cropsFarmer.sol:BNB_V3",
						"label": "Blacklisted",
						"offset": 0,
						"slot": "22",
						"type": "t_mapping(t_address,t_bool)"
					},
					{
						"astId": 83,
						"contract": "contracts/cropsFarmer.sol:BNB_V3",
						"label": "firstDeposit",
						"offset": 0,
						"slot": "23",
						"type": "t_mapping(t_address,t_uint256)"
					},
					{
						"astId": 90,
						"contract": "contracts/cropsFarmer.sol:BNB_V3",
						"label": "CUTOFF_STEP",
						"offset": 0,
						"slot": "24",
						"type": "t_uint256"
					},
					{
						"astId": 97,
						"contract": "contracts/cropsFarmer.sol:BNB_V3",
						"label": "WITHDRAW_COOLDOWN",
						"offset": 0,
						"slot": "25",
						"type": "t_uint256"
					},
					{
						"astId": 99,
						"contract": "contracts/cropsFarmer.sol:BNB_V3",
						"label": "owner",
						"offset": 0,
						"slot": "26",
						"type": "t_address"
					},
					{
						"astId": 101,
						"contract": "contracts/cropsFarmer.sol:BNB_V3",
						"label": "dev1",
						"offset": 0,
						"slot": "27",
						"type": "t_address_payable"
					},
					{
						"astId": 103,
						"contract": "contracts/cropsFarmer.sol:BNB_V3",
						"label": "dev2",
						"offset": 0,
						"slot": "28",
						"type": "t_address_payable"
					},
					{
						"astId": 105,
						"contract": "contracts/cropsFarmer.sol:BNB_V3",
						"label": "dev3",
						"offset": 0,
						"slot": "29",
						"type": "t_address_payable"
					},
					{
						"astId": 107,
						"contract": "contracts/cropsFarmer.sol:BNB_V3",
						"label": "prtnr1",
						"offset": 0,
						"slot": "30",
						"type": "t_address_payable"
					},
					{
						"astId": 109,
						"contract": "contracts/cropsFarmer.sol:BNB_V3",
						"label": "prtnr2",
						"offset": 0,
						"slot": "31",
						"type": "t_address_payable"
					},
					{
						"astId": 111,
						"contract": "contracts/cropsFarmer.sol:BNB_V3",
						"label": "mkt",
						"offset": 0,
						"slot": "32",
						"type": "t_address_payable"
					},
					{
						"astId": 141,
						"contract": "contracts/cropsFarmer.sol:BNB_V3",
						"label": "users",
						"offset": 0,
						"slot": "33",
						"type": "t_mapping(t_address,t_struct(User)136_storage)"
					}
				],
				"types": {
					"t_address": {
						"encoding": "inplace",
						"label": "address",
						"numberOfBytes": "20"
					},
					"t_address_payable": {
						"encoding": "inplace",
						"label": "address payable",
						"numberOfBytes": "20"
					},
					"t_bool": {
						"encoding": "inplace",
						"label": "bool",
						"numberOfBytes": "1"
					},
					"t_mapping(t_address,t_bool)": {
						"encoding": "mapping",
						"key": "t_address",
						"label": "mapping(address => bool)",
						"numberOfBytes": "32",
						"value": "t_bool"
					},
					"t_mapping(t_address,t_struct(User)136_storage)": {
						"encoding": "mapping",
						"key": "t_address",
						"label": "mapping(address => struct BNB_V3.User)",
						"numberOfBytes": "32",
						"value": "t_struct(User)136_storage"
					},
					"t_mapping(t_address,t_uint256)": {
						"encoding": "mapping",
						"key": "t_address",
						"label": "mapping(address => uint256)",
						"numberOfBytes": "32",
						"value": "t_uint256"
					},
					"t_struct(User)136_storage": {
						"encoding": "inplace",
						"label": "struct BNB_V3.User",
						"members": [
							{
								"astId": 113,
								"contract": "contracts/cropsFarmer.sol:BNB_V3",
								"label": "initialDeposit",
								"offset": 0,
								"slot": "0",
								"type": "t_uint256"
							},
							{
								"astId": 115,
								"contract": "contracts/cropsFarmer.sol:BNB_V3",
								"label": "userDeposit",
								"offset": 0,
								"slot": "1",
								"type": "t_uint256"
							},
							{
								"astId": 117,
								"contract": "contracts/cropsFarmer.sol:BNB_V3",
								"label": "miners",
								"offset": 0,
								"slot": "2",
								"type": "t_uint256"
							},
							{
								"astId": 119,
								"contract": "contracts/cropsFarmer.sol:BNB_V3",
								"label": "claimedEggs",
								"offset": 0,
								"slot": "3",
								"type": "t_uint256"
							},
							{
								"astId": 121,
								"contract": "contracts/cropsFarmer.sol:BNB_V3",
								"label": "lastHatch",
								"offset": 0,
								"slot": "4",
								"type": "t_uint256"
							},
							{
								"astId": 123,
								"contract": "contracts/cropsFarmer.sol:BNB_V3",
								"label": "referrer",
								"offset": 0,
								"slot": "5",
								"type": "t_address"
							},
							{
								"astId": 125,
								"contract": "contracts/cropsFarmer.sol:BNB_V3",
								"label": "referralsCount",
								"offset": 0,
								"slot": "6",
								"type": "t_uint256"
							},
							{
								"astId": 127,
								"contract": "contracts/cropsFarmer.sol:BNB_V3",
								"label": "referralEggRewards",
								"offset": 0,
								"slot": "7",
								"type": "t_uint256"
							},
							{
								"astId": 129,
								"contract": "contracts/cropsFarmer.sol:BNB_V3",
								"label": "totalWithdrawn",
								"offset": 0,
								"slot": "8",
								"type": "t_uint256"
							},
							{
								"astId": 131,
								"contract": "contracts/cropsFarmer.sol:BNB_V3",
								"label": "dailyCompoundBonus",
								"offset": 0,
								"slot": "9",
								"type": "t_uint256"
							},
							{
								"astId": 133,
								"contract": "contracts/cropsFarmer.sol:BNB_V3",
								"label": "farmerCompoundCount",
								"offset": 0,
								"slot": "10",
								"type": "t_uint256"
							},
							{
								"astId": 135,
								"contract": "contracts/cropsFarmer.sol:BNB_V3",
								"label": "lastWithdrawTime",
								"offset": 0,
								"slot": "11",
								"type": "t_uint256"
							}
						],
						"numberOfBytes": "384"
					},
					"t_uint256": {
						"encoding": "inplace",
						"label": "uint256",
						"numberOfBytes": "32"
					}
				}
			},
			"userdoc": {
				"kind": "user",
				"methods": {
					"COMPOUND_BONUS()": {
						"notice": "25 BNB  *"
					},
					"EGGS_TO_HIRE_1MINERS()": {
						"notice": "base parameters *"
					},
					"PRC_EGGS_TO_HIRE_1MINERS(uint256)": {
						"notice": "percentage setters *"
					},
					"WALLET_DEPOSIT_LIMIT()": {
						"notice": "0.1 BNB  *"
					},
					"getEggsYield(uint256)": {
						"notice": "How many miners and eggs per day user will recieve based on BNB deposit *"
					},
					"hireFarmers(address)": {
						"notice": "transfer amount of BNB *"
					}
				},
				"version": 1
			}
		}
	}
}