{
	"contracts/cropsFarmer.sol": {
		"BNB_V3": {
			"abi": [
				{
					"inputs": [
						{
							"internalType": "address payable",
							"name": "_dev1",
							"type": "address"
						},
						{
							"internalType": "address payable",
							"name": "_dev2",
							"type": "address"
						},
						{
							"internalType": "address payable",
							"name": "_dev3",
							"type": "address"
						},
						{
							"internalType": "address payable",
							"name": "_prtnr1",
							"type": "address"
						},
						{
							"internalType": "address payable",
							"name": "_prtnr2",
							"type": "address"
						},
						{
							"internalType": "address payable",
							"name": "_mkt",
							"type": "address"
						}
					],
					"stateMutability": "nonpayable",
					"type": "constructor"
				},
				{
					"inputs": [
						{
							"internalType": "uint256",
							"name": "value",
							"type": "uint256"
						}
					],
					"name": "BONUS_COMPOUND_STEP",
					"outputs": [],
					"stateMutability": "nonpayable",
					"type": "function"
				},
				{
					"inputs": [
						{
							"internalType": "uint256",
							"name": "value",
							"type": "uint256"
						}
					],
					"name": "BONUS_DAILY_COMPOUND",
					"outputs": [],
					"stateMutability": "nonpayable",
					"type": "function"
				},
				{
					"inputs": [
						{
							"internalType": "uint256",
							"name": "value",
							"type": "uint256"
						}
					],
					"name": "BONUS_DAILY_COMPOUND_BONUS_MAX_TIMES",
					"outputs": [],
					"stateMutability": "nonpayable",
					"type": "function"
				},
				{
					"inputs": [
						{
							"internalType": "address",
							"name": "",
							"type": "address"
						}
					],
					"name": "Blacklisted",
					"outputs": [
						{
							"internalType": "bool",
							"name": "",
							"type": "bool"
						}
					],
					"stateMutability": "view",
					"type": "function"
				},
				{
					"inputs": [
						{
							"internalType": "address",
							"name": "value",
							"type": "address"
						}
					],
					"name": "CHANGE_OWNERSHIP",
					"outputs": [],
					"stateMutability": "nonpayable",
					"type": "function"
				},
				{
					"inputs": [],
					"name": "COMPOUND_BONUS",
					"outputs": [
						{
							"internalType": "uint256",
							"name": "",
							"type": "uint256"
						}
					],
					"stateMutability": "view",
					"type": "function"
				},
				{
					"inputs": [],
					"name": "COMPOUND_BONUS_MAX_TIMES",
					"outputs": [
						{
							"internalType": "uint256",
							"name": "",
							"type": "uint256"
						}
					],
					"stateMutability": "view",
					"type": "function"
				},
				{
					"inputs": [],
					"name": "COMPOUND_FOR_NO_TAX_WITHDRAWAL",
					"outputs": [
						{
							"internalType": "uint256",
							"name": "",
							"type": "uint256"
						}
					],
					"stateMutability": "view",
					"type": "function"
				},
				{
					"inputs": [],
					"name": "COMPOUND_STEP",
					"outputs": [
						{
							"internalType": "uint256",
							"name": "",
							"type": "uint256"
						}
					],
					"stateMutability": "view",
					"type": "function"
				},
				{
					"inputs": [],
					"name": "CUTOFF_STEP",
					"outputs": [
						{
							"internalType": "uint256",
							"name": "",
							"type": "uint256"
						}
					],
					"stateMutability": "view",
					"type": "function"
				},
				{
					"inputs": [],
					"name": "EGGS_TO_HIRE_1MINERS",
					"outputs": [
						{
							"internalType": "uint256",
							"name": "",
							"type": "uint256"
						}
					],
					"stateMutability": "view",
					"type": "function"
				},
				{
					"inputs": [],
					"name": "MARKET_EGGS_DIVISOR",
					"outputs": [
						{
							"internalType": "uint256",
							"name": "",
							"type": "uint256"
						}
					],
					"stateMutability": "view",
					"type": "function"
				},
				{
					"inputs": [],
					"name": "MIN_INVEST_LIMIT",
					"outputs": [
						{
							"internalType": "uint256",
							"name": "",
							"type": "uint256"
						}
					],
					"stateMutability": "view",
					"type": "function"
				},
				{
					"inputs": [],
					"name": "MKT",
					"outputs": [
						{
							"internalType": "uint256",
							"name": "",
							"type": "uint256"
						}
					],
					"stateMutability": "view",
					"type": "function"
				},
				{
					"inputs": [],
					"name": "PERCENTS_DIVIDER",
					"outputs": [
						{
							"internalType": "uint256",
							"name": "",
							"type": "uint256"
						}
					],
					"stateMutability": "view",
					"type": "function"
				},
				{
					"inputs": [
						{
							"internalType": "uint256",
							"name": "value",
							"type": "uint256"
						}
					],
					"name": "PRC_EGGS_TO_HIRE_1MINERS",
					"outputs": [],
					"stateMutability": "nonpayable",
					"type": "function"
				},
				{
					"inputs": [
						{
							"internalType": "uint256",
							"name": "value",
							"type": "uint256"
						}
					],
					"name": "PRC_MARKET_EGGS_DIVISOR",
					"outputs": [],
					"stateMutability": "nonpayable",
					"type": "function"
				},
				{
					"inputs": [
						{
							"internalType": "uint256",
							"name": "value",
							"type": "uint256"
						}
					],
					"name": "PRC_MKT",
					"outputs": [],
					"stateMutability": "nonpayable",
					"type": "function"
				},
				{
					"inputs": [
						{
							"internalType": "uint256",
							"name": "value",
							"type": "uint256"
						}
					],
					"name": "PRC_REFERRAL",
					"outputs": [],
					"stateMutability": "nonpayable",
					"type": "function"
				},
				{
					"inputs": [
						{
							"internalType": "uint256",
							"name": "value",
							"type": "uint256"
						}
					],
					"name": "PRC_TAX",
					"outputs": [],
					"stateMutability": "nonpayable",
					"type": "function"
				},
				{
					"inputs": [],
					"name": "REFERRAL",
					"outputs": [
						{
							"internalType": "uint256",
							"name": "",
							"type": "uint256"
						}
					],
					"stateMutability": "view",
					"type": "function"
				},
				{
					"inputs": [
						{
							"internalType": "uint256",
							"name": "value",
							"type": "uint256"
						}
					],
					"name": "SET_COMPOUND_FOR_NO_TAX_WITHDRAWAL",
					"outputs": [],
					"stateMutability": "nonpayable",
					"type": "function"
				},
				{
					"inputs": [
						{
							"internalType": "uint256",
							"name": "value",
							"type": "uint256"
						}
					],
					"name": "SET_CUTOFF_STEP",
					"outputs": [],
					"stateMutability": "nonpayable",
					"type": "function"
				},
				{
					"inputs": [
						{
							"internalType": "uint256",
							"name": "value",
							"type": "uint256"
						}
					],
					"name": "SET_INVEST_MIN",
					"outputs": [],
					"stateMutability": "nonpayable",
					"type": "function"
				},
				{
					"inputs": [
						{
							"internalType": "uint256",
							"name": "value",
							"type": "uint256"
						}
					],
					"name": "SET_WALLET_DEPOSIT_LIMIT",
					"outputs": [],
					"stateMutability": "nonpayable",
					"type": "function"
				},
				{
					"inputs": [
						{
							"internalType": "uint256",
							"name": "value",
							"type": "uint256"
						}
					],
					"name": "SET_WITHDRAWAL_TAX",
					"outputs": [],
					"stateMutability": "nonpayable",
					"type": "function"
				},
				{
					"inputs": [
						{
							"internalType": "uint256",
							"name": "value",
							"type": "uint256"
						}
					],
					"name": "SET_WITHDRAW_COOLDOWN",
					"outputs": [],
					"stateMutability": "nonpayable",
					"type": "function"
				},
				{
					"inputs": [],
					"name": "TAX",
					"outputs": [
						{
							"internalType": "uint256",
							"name": "",
							"type": "uint256"
						}
					],
					"stateMutability": "view",
					"type": "function"
				},
				{
					"inputs": [],
					"name": "WALLET_DEPOSIT_LIMIT",
					"outputs": [
						{
							"internalType": "uint256",
							"name": "",
							"type": "uint256"
						}
					],
					"stateMutability": "view",
					"type": "function"
				},
				{
					"inputs": [],
					"name": "WITHDRAWAL_TAX",
					"outputs": [
						{
							"internalType": "uint256",
							"name": "",
							"type": "uint256"
						}
					],
					"stateMutability": "view",
					"type": "function"
				},
				{
					"inputs": [],
					"name": "WITHDRAW_COOLDOWN",
					"outputs": [
						{
							"internalType": "uint256",
							"name": "",
							"type": "uint256"
						}
					],
					"stateMutability": "view",
					"type": "function"
				},
				{
					"inputs": [
						{
							"internalType": "address",
							"name": "Wallet",
							"type": "address"
						},
						{
							"internalType": "bool",
							"name": "isBlacklisted",
							"type": "bool"
						}
					],
					"name": "blackListWallet",
					"outputs": [],
					"stateMutability": "nonpayable",
					"type": "function"
				},
				{
					"inputs": [
						{
							"internalType": "address[]",
							"name": "Wallet",
							"type": "address[]"
						},
						{
							"internalType": "bool",
							"name": "isBlacklisted",
							"type": "bool"
						}
					],
					"name": "blackMultipleWallets",
					"outputs": [],
					"stateMutability": "nonpayable",
					"type": "function"
				},
				{
					"inputs": [],
					"name": "blacklistActive",
					"outputs": [
						{
							"internalType": "bool",
							"name": "",
							"type": "bool"
						}
					],
					"stateMutability": "view",
					"type": "function"
				},
				{
					"inputs": [
						{
							"internalType": "uint256",
							"name": "eth",
							"type": "uint256"
						},
						{
							"internalType": "uint256",
							"name": "contractBalance",
							"type": "uint256"
						}
					],
					"name": "calculateEggBuy",
					"outputs": [
						{
							"internalType": "uint256",
							"name": "",
							"type": "uint256"
						}
					],
					"stateMutability": "view",
					"type": "function"
				},
				{
					"inputs": [
						{
							"internalType": "uint256",
							"name": "eth",
							"type": "uint256"
						}
					],
					"name": "calculateEggBuySimple",
					"outputs": [
						{
							"internalType": "uint256",
							"name": "",
							"type": "uint256"
						}
					],
					"stateMutability": "view",
					"type": "function"
				},
				{
					"inputs": [
						{
							"internalType": "uint256",
							"name": "eggs",
							"type": "uint256"
						}
					],
					"name": "calculateEggSell",
					"outputs": [
						{
							"internalType": "uint256",
							"name": "",
							"type": "uint256"
						}
					],
					"stateMutability": "view",
					"type": "function"
				},
				{
					"inputs": [
						{
							"internalType": "uint256",
							"name": "eggs",
							"type": "uint256"
						},
						{
							"internalType": "uint256",
							"name": "amount",
							"type": "uint256"
						}
					],
					"name": "calculateEggSellForYield",
					"outputs": [
						{
							"internalType": "uint256",
							"name": "",
							"type": "uint256"
						}
					],
					"stateMutability": "view",
					"type": "function"
				},
				{
					"inputs": [
						{
							"internalType": "uint256",
							"name": "rt",
							"type": "uint256"
						},
						{
							"internalType": "uint256",
							"name": "rs",
							"type": "uint256"
						},
						{
							"internalType": "uint256",
							"name": "bs",
							"type": "uint256"
						}
					],
					"name": "calculateTrade",
					"outputs": [
						{
							"internalType": "uint256",
							"name": "",
							"type": "uint256"
						}
					],
					"stateMutability": "view",
					"type": "function"
				},
				{
					"inputs": [
						{
							"internalType": "address",
							"name": "Wallet",
							"type": "address"
						}
					],
					"name": "checkIfBlacklisted",
					"outputs": [
						{
							"internalType": "bool",
							"name": "blacklisted",
							"type": "bool"
						}
					],
					"stateMutability": "view",
					"type": "function"
				},
				{
					"inputs": [],
					"name": "contractStarted",
					"outputs": [
						{
							"internalType": "bool",
							"name": "",
							"type": "bool"
						}
					],
					"stateMutability": "view",
					"type": "function"
				},
				{
					"inputs": [],
					"name": "dev1",
					"outputs": [
						{
							"internalType": "address payable",
							"name": "",
							"type": "address"
						}
					],
					"stateMutability": "view",
					"type": "function"
				},
				{
					"inputs": [],
					"name": "dev2",
					"outputs": [
						{
							"internalType": "address payable",
							"name": "",
							"type": "address"
						}
					],
					"stateMutability": "view",
					"type": "function"
				},
				{
					"inputs": [],
					"name": "dev3",
					"outputs": [
						{
							"internalType": "address payable",
							"name": "",
							"type": "address"
						}
					],
					"stateMutability": "view",
					"type": "function"
				},
				{
					"inputs": [],
					"name": "fundContract",
					"outputs": [],
					"stateMutability": "payable",
					"type": "function"
				},
				{
					"inputs": [
						{
							"internalType": "address",
							"name": "_adr",
							"type": "address"
						}
					],
					"name": "getAvailableEarnings",
					"outputs": [
						{
							"internalType": "uint256",
							"name": "",
							"type": "uint256"
						}
					],
					"stateMutability": "view",
					"type": "function"
				},
				{
					"inputs": [],
					"name": "getBalance",
					"outputs": [
						{
							"internalType": "uint256",
							"name": "",
							"type": "uint256"
						}
					],
					"stateMutability": "view",
					"type": "function"
				},
				{
					"inputs": [
						{
							"internalType": "address",
							"name": "_adr",
							"type": "address"
						},
						{
							"internalType": "uint256",
							"name": "amount",
							"type": "uint256"
						}
					],
					"name": "getDailyCompoundBonus",
					"outputs": [
						{
							"internalType": "uint256",
							"name": "",
							"type": "uint256"
						}
					],
					"stateMutability": "view",
					"type": "function"
				},
				{
					"inputs": [
						{
							"internalType": "address",
							"name": "adr",
							"type": "address"
						}
					],
					"name": "getEggsSinceLastHatch",
					"outputs": [
						{
							"internalType": "uint256",
							"name": "",
							"type": "uint256"
						}
					],
					"stateMutability": "view",
					"type": "function"
				},
				{
					"inputs": [
						{
							"internalType": "uint256",
							"name": "amount",
							"type": "uint256"
						}
					],
					"name": "getEggsYield",
					"outputs": [
						{
							"internalType": "uint256",
							"name": "",
							"type": "uint256"
						},
						{
							"internalType": "uint256",
							"name": "",
							"type": "uint256"
						}
					],
					"stateMutability": "view",
					"type": "function"
				},
				{
					"inputs": [],
					"name": "getMyEggs",
					"outputs": [
						{
							"internalType": "uint256",
							"name": "",
							"type": "uint256"
						}
					],
					"stateMutability": "view",
					"type": "function"
				},
				{
					"inputs": [],
					"name": "getMyMiners",
					"outputs": [
						{
							"internalType": "uint256",
							"name": "",
							"type": "uint256"
						}
					],
					"stateMutability": "view",
					"type": "function"
				},
				{
					"inputs": [],
					"name": "getSiteInfo",
					"outputs": [
						{
							"internalType": "uint256",
							"name": "_totalStaked",
							"type": "uint256"
						},
						{
							"internalType": "uint256",
							"name": "_totalDeposits",
							"type": "uint256"
						},
						{
							"internalType": "uint256",
							"name": "_totalCompound",
							"type": "uint256"
						},
						{
							"internalType": "uint256",
							"name": "_totalRefBonus",
							"type": "uint256"
						}
					],
					"stateMutability": "view",
					"type": "function"
				},
				{
					"inputs": [],
					"name": "getTimeStamp",
					"outputs": [
						{
							"internalType": "uint256",
							"name": "",
							"type": "uint256"
						}
					],
					"stateMutability": "view",
					"type": "function"
				},
				{
					"inputs": [
						{
							"internalType": "address",
							"name": "_adr",
							"type": "address"
						}
					],
					"name": "getUserInfo",
					"outputs": [
						{
							"internalType": "uint256",
							"name": "_initialDeposit",
							"type": "uint256"
						},
						{
							"internalType": "uint256",
							"name": "_userDeposit",
							"type": "uint256"
						},
						{
							"internalType": "uint256",
							"name": "_miners",
							"type": "uint256"
						},
						{
							"internalType": "uint256",
							"name": "_claimedEggs",
							"type": "uint256"
						},
						{
							"internalType": "uint256",
							"name": "_lastHatch",
							"type": "uint256"
						},
						{
							"internalType": "address",
							"name": "_referrer",
							"type": "address"
						},
						{
							"internalType": "uint256",
							"name": "_referrals",
							"type": "uint256"
						},
						{
							"internalType": "uint256",
							"name": "_totalWithdrawn",
							"type": "uint256"
						},
						{
							"internalType": "uint256",
							"name": "_referralEggRewards",
							"type": "uint256"
						},
						{
							"internalType": "uint256",
							"name": "_dailyCompoundBonus",
							"type": "uint256"
						},
						{
							"internalType": "uint256",
							"name": "_farmerCompoundCount",
							"type": "uint256"
						},
						{
							"internalType": "uint256",
							"name": "_lastWithdrawTime",
							"type": "uint256"
						}
					],
					"stateMutability": "view",
					"type": "function"
				},
				{
					"inputs": [
						{
							"internalType": "address",
							"name": "ref",
							"type": "address"
						}
					],
					"name": "hireFarmers",
					"outputs": [],
					"stateMutability": "payable",
					"type": "function"
				},
				{
					"inputs": [
						{
							"internalType": "bool",
							"name": "isCompound",
							"type": "bool"
						}
					],
					"name": "hireMoreFarmers",
					"outputs": [],
					"stateMutability": "nonpayable",
					"type": "function"
				},
				{
					"inputs": [],
					"name": "marketEggs",
					"outputs": [
						{
							"internalType": "uint256",
							"name": "",
							"type": "uint256"
						}
					],
					"stateMutability": "view",
					"type": "function"
				},
				{
					"inputs": [],
					"name": "mkt",
					"outputs": [
						{
							"internalType": "address payable",
							"name": "",
							"type": "address"
						}
					],
					"stateMutability": "view",
					"type": "function"
				},
				{
					"inputs": [],
					"name": "owner",
					"outputs": [
						{
							"internalType": "address",
							"name": "",
							"type": "address"
						}
					],
					"stateMutability": "view",
					"type": "function"
				},
				{
					"inputs": [],
					"name": "prtnr1",
					"outputs": [
						{
							"internalType": "address payable",
							"name": "",
							"type": "address"
						}
					],
					"stateMutability": "view",
					"type": "function"
				},
				{
					"inputs": [],
					"name": "prtnr2",
					"outputs": [
						{
							"internalType": "address payable",
							"name": "",
							"type": "address"
						}
					],
					"stateMutability": "view",
					"type": "function"
				},
				{
					"inputs": [],
					"name": "sellCrops",
					"outputs": [],
					"stateMutability": "nonpayable",
					"type": "function"
				},
				{
					"inputs": [
						{
							"internalType": "bool",
							"name": "isActive",
							"type": "bool"
						}
					],
					"name": "setblacklistActive",
					"outputs": [],
					"stateMutability": "nonpayable",
					"type": "function"
				},
				{
					"inputs": [
						{
							"internalType": "address",
							"name": "addr",
							"type": "address"
						}
					],
					"name": "startFarm",
					"outputs": [],
					"stateMutability": "payable",
					"type": "function"
				},
				{
					"inputs": [],
					"name": "totalCompound",
					"outputs": [
						{
							"internalType": "uint256",
							"name": "",
							"type": "uint256"
						}
					],
					"stateMutability": "view",
					"type": "function"
				},
				{
					"inputs": [],
					"name": "totalDeposits",
					"outputs": [
						{
							"internalType": "uint256",
							"name": "",
							"type": "uint256"
						}
					],
					"stateMutability": "view",
					"type": "function"
				},
				{
					"inputs": [],
					"name": "totalRefBonus",
					"outputs": [
						{
							"internalType": "uint256",
							"name": "",
							"type": "uint256"
						}
					],
					"stateMutability": "view",
					"type": "function"
				},
				{
					"inputs": [],
					"name": "totalStaked",
					"outputs": [
						{
							"internalType": "uint256",
							"name": "",
							"type": "uint256"
						}
					],
					"stateMutability": "view",
					"type": "function"
				},
				{
					"inputs": [],
					"name": "totalWithdrawn",
					"outputs": [
						{
							"internalType": "uint256",
							"name": "",
							"type": "uint256"
						}
					],
					"stateMutability": "view",
					"type": "function"
				},
				{
					"inputs": [
						{
							"internalType": "address",
							"name": "",
							"type": "address"
						}
					],
					"name": "users",
					"outputs": [
						{
							"internalType": "uint256",
							"name": "initialDeposit",
							"type": "uint256"
						},
						{
							"internalType": "uint256",
							"name": "userDeposit",
							"type": "uint256"
						},
						{
							"internalType": "uint256",
							"name": "miners",
							"type": "uint256"
						},
						{
							"internalType": "uint256",
							"name": "claimedEggs",
							"type": "uint256"
						},
						{
							"internalType": "uint256",
							"name": "lastHatch",
							"type": "uint256"
						},
						{
							"internalType": "address",
							"name": "referrer",
							"type": "address"
						},
						{
							"internalType": "uint256",
							"name": "referralsCount",
							"type": "uint256"
						},
						{
							"internalType": "uint256",
							"name": "referralEggRewards",
							"type": "uint256"
						},
						{
							"internalType": "uint256",
							"name": "totalWithdrawn",
							"type": "uint256"
						},
						{
							"internalType": "uint256",
							"name": "dailyCompoundBonus",
							"type": "uint256"
						},
						{
							"internalType": "uint256",
							"name": "farmerCompoundCount",
							"type": "uint256"
						},
						{
							"internalType": "uint256",
							"name": "lastWithdrawTime",
							"type": "uint256"
						}
					],
					"stateMutability": "view",
					"type": "function"
				}
			],
			"devdoc": {
				"kind": "dev",
				"methods": {},
				"version": 1
			},
			"evm": {
				"assembly": "    /* \"contracts/cropsFarmer.sol\":56:18016  contract BNB_V3 {... */\n  mstore(0x40, 0x80)\n    /* \"contracts/cropsFarmer.sol\":177:184  1440000 */\n  0x15f900\n    /* \"contracts/cropsFarmer.sol\":139:184  uint256 public EGGS_TO_HIRE_1MINERS = 1440000 */\n  0x00\n  sstore\n    /* \"contracts/cropsFarmer.sol\":216:218  70 */\n  0x46\n    /* \"contracts/cropsFarmer.sol\":190:218  uint256 public REFERRAL = 70 */\n  0x01\n  sstore\n    /* \"contracts/cropsFarmer.sol\":258:262  1000 */\n  0x03e8\n    /* \"contracts/cropsFarmer.sol\":224:262  uint256 public PERCENTS_DIVIDER = 1000 */\n  0x02\n  sstore\n    /* \"contracts/cropsFarmer.sol\":289:290  9 */\n  0x09\n    /* \"contracts/cropsFarmer.sol\":268:290  uint256 public TAX = 9 */\n  0x03\n  sstore\n    /* \"contracts/cropsFarmer.sol\":317:319  12 */\n  0x0c\n    /* \"contracts/cropsFarmer.sol\":296:319  uint256 public MKT = 12 */\n  0x04\n  sstore\n    /* \"contracts/cropsFarmer.sol\":362:363  2 */\n  0x02\n    /* \"contracts/cropsFarmer.sol\":325:363  uint256 public MARKET_EGGS_DIVISOR = 2 */\n  0x05\n  sstore\n    /* \"contracts/cropsFarmer.sol\":404:412  1 * 1e17 */\n  0x016345785d8a0000\n    /* \"contracts/cropsFarmer.sol\":370:412  uint256 public MIN_INVEST_LIMIT = 1 * 1e17 */\n  0x06\n  sstore\n    /* \"contracts/cropsFarmer.sol\":473:482  25 * 1e18 */\n  0x015af1d78b58c40000\n    /* \"contracts/cropsFarmer.sol\":435:482  uint256 public WALLET_DEPOSIT_LIMIT = 25 * 1e18 */\n  0x07\n  sstore\n    /* \"contracts/cropsFarmer.sol\":534:536  20 */\n  0x14\n    /* \"contracts/cropsFarmer.sol\":502:536  uint256 public COMPOUND_BONUS = 20 */\n  0x08\n  sstore\n    /* \"contracts/cropsFarmer.sol\":581:583  10 */\n  0x0a\n    /* \"contracts/cropsFarmer.sol\":539:583  uint256 public COMPOUND_BONUS_MAX_TIMES = 10 */\n  0x09\n  sstore\n    /* \"contracts/cropsFarmer.sol\":620:632  12 * 60 * 60 */\n  0xa8c0\n    /* \"contracts/cropsFarmer.sol\":589:632  uint256 public COMPOUND_STEP = 12 * 60 * 60 */\n  0x0a\n  sstore\n    /* \"contracts/cropsFarmer.sol\":671:674  350 */\n  0x015e\n    /* \"contracts/cropsFarmer.sol\":639:674  uint256 public WITHDRAWAL_TAX = 350 */\n  0x0b\n  sstore\n    /* \"contracts/cropsFarmer.sol\":733:735  10 */\n  0x0a\n    /* \"contracts/cropsFarmer.sol\":685:735  uint256 public COMPOUND_FOR_NO_TAX_WITHDRAWAL = 10 */\n  0x0c\n  sstore\n    /* \"contracts/cropsFarmer.sol\":957:962  10000 */\n  0x2710\n    /* \"contracts/cropsFarmer.sol\":943:962  uint256 PSN = 10000 */\n  0x13\n  sstore\n    /* \"contracts/cropsFarmer.sol\":983:987  5000 */\n  0x1388\n    /* \"contracts/cropsFarmer.sol\":968:987  uint256 PSNH = 5000 */\n  0x14\n  sstore\n    /* \"contracts/cropsFarmer.sol\":1056:1060  true */\n  0x01\n    /* \"contracts/cropsFarmer.sol\":1026:1060  bool public blacklistActive = true */\n  0x15\n  exp(0x0100, 0x01)\n  dup2\n  sload\n  dup2\n  0xff\n  mul\n  not\n  and\n  swap1\n  dup4\n  iszero\n  iszero\n  mul\n  or\n  swap1\n  sstore\n  pop\n    /* \"contracts/cropsFarmer.sol\":1142:1154  48 * 60 * 60 */\n  0x02a300\n    /* \"contracts/cropsFarmer.sol\":1113:1154  uint256 public CUTOFF_STEP = 48 * 60 * 60 */\n  0x17\n  sstore\n    /* \"contracts/cropsFarmer.sol\":1192:1203  4 * 60 * 60 */\n  0x3840\n    /* \"contracts/cropsFarmer.sol\":1157:1203  uint256 public WITHDRAW_COOLDOWN = 4 * 60 * 60 */\n  0x18\n  sstore\n    /* \"contracts/cropsFarmer.sol\":1960:2435  constructor(address payable _dev1, address payable _dev2, address payable _dev3, ... */\n  callvalue\n  dup1\n  iszero\n  tag_1\n  jumpi\n  0x00\n  dup1\n  revert\ntag_1:\n  pop\n  mload(0x40)\n  sub(codesize, bytecodeSize)\n  dup1\n  bytecodeSize\n  dup4\n  codecopy\n  dup2\n  dup2\n  add\n  0x40\n  mstore\n  dup2\n  add\n  swap1\n  tag_2\n  swap2\n  swap1\n  tag_3\n  jump\t// in\ntag_2:\n    /* \"contracts/cropsFarmer.sol\":2131:2148  isContract(_dev1) */\n  tag_6\n    /* \"contracts/cropsFarmer.sol\":2142:2147  _dev1 */\n  dup7\n    /* \"contracts/cropsFarmer.sol\":2131:2141  isContract */\n  shl(0x20, tag_7)\n    /* \"contracts/cropsFarmer.sol\":2131:2148  isContract(_dev1) */\n  0x20\n  shr\n  jump\t// in\ntag_6:\n    /* \"contracts/cropsFarmer.sol\":2130:2148  !isContract(_dev1) */\n  iszero\n    /* \"contracts/cropsFarmer.sol\":2130:2170  !isContract(_dev1) && !isContract(_dev2) */\n  dup1\n  iszero\n  tag_8\n  jumpi\n  pop\n    /* \"contracts/cropsFarmer.sol\":2153:2170  isContract(_dev2) */\n  tag_9\n    /* \"contracts/cropsFarmer.sol\":2164:2169  _dev2 */\n  dup6\n    /* \"contracts/cropsFarmer.sol\":2153:2163  isContract */\n  shl(0x20, tag_7)\n    /* \"contracts/cropsFarmer.sol\":2153:2170  isContract(_dev2) */\n  0x20\n  shr\n  jump\t// in\ntag_9:\n    /* \"contracts/cropsFarmer.sol\":2152:2170  !isContract(_dev2) */\n  iszero\n    /* \"contracts/cropsFarmer.sol\":2130:2170  !isContract(_dev1) && !isContract(_dev2) */\ntag_8:\n    /* \"contracts/cropsFarmer.sol\":2130:2192  !isContract(_dev1) && !isContract(_dev2) && !isContract(_dev3) */\n  dup1\n  iszero\n  tag_10\n  jumpi\n  pop\n    /* \"contracts/cropsFarmer.sol\":2175:2192  isContract(_dev3) */\n  tag_11\n    /* \"contracts/cropsFarmer.sol\":2186:2191  _dev3 */\n  dup5\n    /* \"contracts/cropsFarmer.sol\":2175:2185  isContract */\n  shl(0x20, tag_7)\n    /* \"contracts/cropsFarmer.sol\":2175:2192  isContract(_dev3) */\n  0x20\n  shr\n  jump\t// in\ntag_11:\n    /* \"contracts/cropsFarmer.sol\":2174:2192  !isContract(_dev3) */\n  iszero\n    /* \"contracts/cropsFarmer.sol\":2130:2192  !isContract(_dev1) && !isContract(_dev2) && !isContract(_dev3) */\ntag_10:\n    /* \"contracts/cropsFarmer.sol\":2130:2216  !isContract(_dev1) && !isContract(_dev2) && !isContract(_dev3) && !isContract(_prtnr1) */\n  dup1\n  iszero\n  tag_12\n  jumpi\n  pop\n    /* \"contracts/cropsFarmer.sol\":2197:2216  isContract(_prtnr1) */\n  tag_13\n    /* \"contracts/cropsFarmer.sol\":2208:2215  _prtnr1 */\n  dup4\n    /* \"contracts/cropsFarmer.sol\":2197:2207  isContract */\n  shl(0x20, tag_7)\n    /* \"contracts/cropsFarmer.sol\":2197:2216  isContract(_prtnr1) */\n  0x20\n  shr\n  jump\t// in\ntag_13:\n    /* \"contracts/cropsFarmer.sol\":2196:2216  !isContract(_prtnr1) */\n  iszero\n    /* \"contracts/cropsFarmer.sol\":2130:2216  !isContract(_dev1) && !isContract(_dev2) && !isContract(_dev3) && !isContract(_prtnr1) */\ntag_12:\n    /* \"contracts/cropsFarmer.sol\":2130:2240  !isContract(_dev1) && !isContract(_dev2) && !isContract(_dev3) && !isContract(_prtnr1) && !isContract(_prtnr2) */\n  dup1\n  iszero\n  tag_14\n  jumpi\n  pop\n    /* \"contracts/cropsFarmer.sol\":2221:2240  isContract(_prtnr2) */\n  tag_15\n    /* \"contracts/cropsFarmer.sol\":2232:2239  _prtnr2 */\n  dup3\n    /* \"contracts/cropsFarmer.sol\":2221:2231  isContract */\n  shl(0x20, tag_7)\n    /* \"contracts/cropsFarmer.sol\":2221:2240  isContract(_prtnr2) */\n  0x20\n  shr\n  jump\t// in\ntag_15:\n    /* \"contracts/cropsFarmer.sol\":2220:2240  !isContract(_prtnr2) */\n  iszero\n    /* \"contracts/cropsFarmer.sol\":2130:2240  !isContract(_dev1) && !isContract(_dev2) && !isContract(_dev3) && !isContract(_prtnr1) && !isContract(_prtnr2) */\ntag_14:\n    /* \"contracts/cropsFarmer.sol\":2130:2261  !isContract(_dev1) && !isContract(_dev2) && !isContract(_dev3) && !isContract(_prtnr1) && !isContract(_prtnr2) && !isContract(_mkt) */\n  dup1\n  iszero\n  tag_16\n  jumpi\n  pop\n    /* \"contracts/cropsFarmer.sol\":2245:2261  isContract(_mkt) */\n  tag_17\n    /* \"contracts/cropsFarmer.sol\":2256:2260  _mkt */\n  dup2\n    /* \"contracts/cropsFarmer.sol\":2245:2255  isContract */\n  shl(0x20, tag_7)\n    /* \"contracts/cropsFarmer.sol\":2245:2261  isContract(_mkt) */\n  0x20\n  shr\n  jump\t// in\ntag_17:\n    /* \"contracts/cropsFarmer.sol\":2244:2261  !isContract(_mkt) */\n  iszero\n    /* \"contracts/cropsFarmer.sol\":2130:2261  !isContract(_dev1) && !isContract(_dev2) && !isContract(_dev3) && !isContract(_prtnr1) && !isContract(_prtnr2) && !isContract(_mkt) */\ntag_16:\n    /* \"contracts/cropsFarmer.sol\":2122:2262  require(!isContract(_dev1) && !isContract(_dev2) && !isContract(_dev3) && !isContract(_prtnr1) && !isContract(_prtnr2) && !isContract(_mkt)) */\n  tag_18\n  jumpi\n  0x00\n  dup1\n  revert\ntag_18:\n    /* \"contracts/cropsFarmer.sol\":2280:2290  msg.sender */\n  caller\n    /* \"contracts/cropsFarmer.sol\":2272:2277  owner */\n  0x19\n  0x00\n    /* \"contracts/cropsFarmer.sol\":2272:2290  owner = msg.sender */\n  0x0100\n  exp\n  dup2\n  sload\n  dup2\n  0xffffffffffffffffffffffffffffffffffffffff\n  mul\n  not\n  and\n  swap1\n  dup4\n  0xffffffffffffffffffffffffffffffffffffffff\n  and\n  mul\n  or\n  swap1\n  sstore\n  pop\n    /* \"contracts/cropsFarmer.sol\":2307:2312  _dev1 */\n  dup6\n    /* \"contracts/cropsFarmer.sol\":2300:2304  dev1 */\n  0x1a\n  0x00\n    /* \"contracts/cropsFarmer.sol\":2300:2312  dev1 = _dev1 */\n  0x0100\n  exp\n  dup2\n  sload\n  dup2\n  0xffffffffffffffffffffffffffffffffffffffff\n  mul\n  not\n  and\n  swap1\n  dup4\n  0xffffffffffffffffffffffffffffffffffffffff\n  and\n  mul\n  or\n  swap1\n  sstore\n  pop\n    /* \"contracts/cropsFarmer.sol\":2329:2334  _dev2 */\n  dup5\n    /* \"contracts/cropsFarmer.sol\":2322:2326  dev2 */\n  0x1b\n  0x00\n    /* \"contracts/cropsFarmer.sol\":2322:2334  dev2 = _dev2 */\n  0x0100\n  exp\n  dup2\n  sload\n  dup2\n  0xffffffffffffffffffffffffffffffffffffffff\n  mul\n  not\n  and\n  swap1\n  dup4\n  0xffffffffffffffffffffffffffffffffffffffff\n  and\n  mul\n  or\n  swap1\n  sstore\n  pop\n    /* \"contracts/cropsFarmer.sol\":2351:2356  _dev3 */\n  dup4\n    /* \"contracts/cropsFarmer.sol\":2344:2348  dev3 */\n  0x1c\n  0x00\n    /* \"contracts/cropsFarmer.sol\":2344:2356  dev3 = _dev3 */\n  0x0100\n  exp\n  dup2\n  sload\n  dup2\n  0xffffffffffffffffffffffffffffffffffffffff\n  mul\n  not\n  and\n  swap1\n  dup4\n  0xffffffffffffffffffffffffffffffffffffffff\n  and\n  mul\n  or\n  swap1\n  sstore\n  pop\n    /* \"contracts/cropsFarmer.sol\":2375:2382  _prtnr1 */\n  dup3\n    /* \"contracts/cropsFarmer.sol\":2366:2372  prtnr1 */\n  0x1d\n  0x00\n    /* \"contracts/cropsFarmer.sol\":2366:2382  prtnr1 = _prtnr1 */\n  0x0100\n  exp\n  dup2\n  sload\n  dup2\n  0xffffffffffffffffffffffffffffffffffffffff\n  mul\n  not\n  and\n  swap1\n  dup4\n  0xffffffffffffffffffffffffffffffffffffffff\n  and\n  mul\n  or\n  swap1\n  sstore\n  pop\n    /* \"contracts/cropsFarmer.sol\":2401:2408  _prtnr2 */\n  dup2\n    /* \"contracts/cropsFarmer.sol\":2392:2398  prtnr2 */\n  0x1e\n  0x00\n    /* \"contracts/cropsFarmer.sol\":2392:2408  prtnr2 = _prtnr2 */\n  0x0100\n  exp\n  dup2\n  sload\n  dup2\n  0xffffffffffffffffffffffffffffffffffffffff\n  mul\n  not\n  and\n  swap1\n  dup4\n  0xffffffffffffffffffffffffffffffffffffffff\n  and\n  mul\n  or\n  swap1\n  sstore\n  pop\n    /* \"contracts/cropsFarmer.sol\":2424:2428  _mkt */\n  dup1\n    /* \"contracts/cropsFarmer.sol\":2418:2421  mkt */\n  0x1f\n  0x00\n    /* \"contracts/cropsFarmer.sol\":2418:2428  mkt = _mkt */\n  0x0100\n  exp\n  dup2\n  sload\n  dup2\n  0xffffffffffffffffffffffffffffffffffffffff\n  mul\n  not\n  and\n  swap1\n  dup4\n  0xffffffffffffffffffffffffffffffffffffffff\n  and\n  mul\n  or\n  swap1\n  sstore\n  pop\n    /* \"contracts/cropsFarmer.sol\":1960:2435  constructor(address payable _dev1, address payable _dev2, address payable _dev3, ... */\n  pop\n  pop\n  pop\n  pop\n  pop\n  pop\n    /* \"contracts/cropsFarmer.sol\":56:18016  contract BNB_V3 {... */\n  jump(tag_19)\n    /* \"contracts/cropsFarmer.sol\":2438:2599  function isContract(address addr) internal view returns (bool) {... */\ntag_7:\n    /* \"contracts/cropsFarmer.sol\":2495:2499  bool */\n  0x00\n    /* \"contracts/cropsFarmer.sol\":2511:2520  uint size */\n  dup1\n    /* \"contracts/cropsFarmer.sol\":2561:2565  addr */\n  dup3\n    /* \"contracts/cropsFarmer.sol\":2549:2566  extcodesize(addr) */\n  extcodesize\n    /* \"contracts/cropsFarmer.sol\":2541:2566  size := extcodesize(addr) */\n  swap1\n  pop\n    /* \"contracts/cropsFarmer.sol\":2591:2592  0 */\n  0x00\n    /* \"contracts/cropsFarmer.sol\":2584:2588  size */\n  dup2\n    /* \"contracts/cropsFarmer.sol\":2584:2592  size > 0 */\n  gt\n    /* \"contracts/cropsFarmer.sol\":2577:2592  return size > 0 */\n  swap2\n  pop\n  pop\n    /* \"contracts/cropsFarmer.sol\":2438:2599  function isContract(address addr) internal view returns (bool) {... */\n  swap2\n  swap1\n  pop\n  jump\t// out\n    /* \"#utility.yul\":88:205   */\ntag_22:\n    /* \"#utility.yul\":197:198   */\n  0x00\n    /* \"#utility.yul\":194:195   */\n  dup1\n    /* \"#utility.yul\":187:199   */\n  revert\n    /* \"#utility.yul\":334:460   */\ntag_24:\n    /* \"#utility.yul\":371:378   */\n  0x00\n    /* \"#utility.yul\":411:453   */\n  0xffffffffffffffffffffffffffffffffffffffff\n    /* \"#utility.yul\":404:409   */\n  dup3\n    /* \"#utility.yul\":400:454   */\n  and\n    /* \"#utility.yul\":389:454   */\n  swap1\n  pop\n    /* \"#utility.yul\":334:460   */\n  swap2\n  swap1\n  pop\n  jump\t// out\n    /* \"#utility.yul\":466:570   */\ntag_25:\n    /* \"#utility.yul\":511:518   */\n  0x00\n    /* \"#utility.yul\":540:564   */\n  tag_34\n    /* \"#utility.yul\":558:563   */\n  dup3\n    /* \"#utility.yul\":540:564   */\n  tag_24\n  jump\t// in\ntag_34:\n    /* \"#utility.yul\":529:564   */\n  swap1\n  pop\n    /* \"#utility.yul\":466:570   */\n  swap2\n  swap1\n  pop\n  jump\t// out\n    /* \"#utility.yul\":576:714   */\ntag_26:\n    /* \"#utility.yul\":657:689   */\n  tag_36\n    /* \"#utility.yul\":683:688   */\n  dup2\n    /* \"#utility.yul\":657:689   */\n  tag_25\n  jump\t// in\ntag_36:\n    /* \"#utility.yul\":650:655   */\n  dup2\n    /* \"#utility.yul\":647:690   */\n  eq\n    /* \"#utility.yul\":637:708   */\n  tag_37\n  jumpi\n    /* \"#utility.yul\":704:705   */\n  0x00\n    /* \"#utility.yul\":701:702   */\n  dup1\n    /* \"#utility.yul\":694:706   */\n  revert\n    /* \"#utility.yul\":637:708   */\ntag_37:\n    /* \"#utility.yul\":576:714   */\n  pop\n  jump\t// out\n    /* \"#utility.yul\":720:879   */\ntag_27:\n    /* \"#utility.yul\":785:790   */\n  0x00\n    /* \"#utility.yul\":816:822   */\n  dup2\n    /* \"#utility.yul\":810:823   */\n  mload\n    /* \"#utility.yul\":801:823   */\n  swap1\n  pop\n    /* \"#utility.yul\":832:873   */\n  tag_39\n    /* \"#utility.yul\":867:872   */\n  dup2\n    /* \"#utility.yul\":832:873   */\n  tag_26\n  jump\t// in\ntag_39:\n    /* \"#utility.yul\":720:879   */\n  swap3\n  swap2\n  pop\n  pop\n  jump\t// out\n    /* \"#utility.yul\":885:2115   */\ntag_3:\n    /* \"#utility.yul\":1048:1054   */\n  0x00\n    /* \"#utility.yul\":1056:1062   */\n  dup1\n    /* \"#utility.yul\":1064:1070   */\n  0x00\n    /* \"#utility.yul\":1072:1078   */\n  dup1\n    /* \"#utility.yul\":1080:1086   */\n  0x00\n    /* \"#utility.yul\":1088:1094   */\n  dup1\n    /* \"#utility.yul\":1137:1140   */\n  0xc0\n    /* \"#utility.yul\":1125:1134   */\n  dup8\n    /* \"#utility.yul\":1116:1123   */\n  dup10\n    /* \"#utility.yul\":1112:1135   */\n  sub\n    /* \"#utility.yul\":1108:1141   */\n  slt\n    /* \"#utility.yul\":1105:1225   */\n  iszero\n  tag_41\n  jumpi\n    /* \"#utility.yul\":1144:1223   */\n  tag_42\n  tag_22\n  jump\t// in\ntag_42:\n    /* \"#utility.yul\":1105:1225   */\ntag_41:\n    /* \"#utility.yul\":1264:1265   */\n  0x00\n    /* \"#utility.yul\":1289:1361   */\n  tag_43\n    /* \"#utility.yul\":1353:1360   */\n  dup10\n    /* \"#utility.yul\":1344:1350   */\n  dup3\n    /* \"#utility.yul\":1333:1342   */\n  dup11\n    /* \"#utility.yul\":1329:1351   */\n  add\n    /* \"#utility.yul\":1289:1361   */\n  tag_27\n  jump\t// in\ntag_43:\n    /* \"#utility.yul\":1279:1361   */\n  swap7\n  pop\n    /* \"#utility.yul\":1235:1371   */\n  pop\n    /* \"#utility.yul\":1410:1412   */\n  0x20\n    /* \"#utility.yul\":1436:1508   */\n  tag_44\n    /* \"#utility.yul\":1500:1507   */\n  dup10\n    /* \"#utility.yul\":1491:1497   */\n  dup3\n    /* \"#utility.yul\":1480:1489   */\n  dup11\n    /* \"#utility.yul\":1476:1498   */\n  add\n    /* \"#utility.yul\":1436:1508   */\n  tag_27\n  jump\t// in\ntag_44:\n    /* \"#utility.yul\":1426:1508   */\n  swap6\n  pop\n    /* \"#utility.yul\":1381:1518   */\n  pop\n    /* \"#utility.yul\":1557:1559   */\n  0x40\n    /* \"#utility.yul\":1583:1655   */\n  tag_45\n    /* \"#utility.yul\":1647:1654   */\n  dup10\n    /* \"#utility.yul\":1638:1644   */\n  dup3\n    /* \"#utility.yul\":1627:1636   */\n  dup11\n    /* \"#utility.yul\":1623:1645   */\n  add\n    /* \"#utility.yul\":1583:1655   */\n  tag_27\n  jump\t// in\ntag_45:\n    /* \"#utility.yul\":1573:1655   */\n  swap5\n  pop\n    /* \"#utility.yul\":1528:1665   */\n  pop\n    /* \"#utility.yul\":1704:1706   */\n  0x60\n    /* \"#utility.yul\":1730:1802   */\n  tag_46\n    /* \"#utility.yul\":1794:1801   */\n  dup10\n    /* \"#utility.yul\":1785:1791   */\n  dup3\n    /* \"#utility.yul\":1774:1783   */\n  dup11\n    /* \"#utility.yul\":1770:1792   */\n  add\n    /* \"#utility.yul\":1730:1802   */\n  tag_27\n  jump\t// in\ntag_46:\n    /* \"#utility.yul\":1720:1802   */\n  swap4\n  pop\n    /* \"#utility.yul\":1675:1812   */\n  pop\n    /* \"#utility.yul\":1851:1854   */\n  0x80\n    /* \"#utility.yul\":1878:1950   */\n  tag_47\n    /* \"#utility.yul\":1942:1949   */\n  dup10\n    /* \"#utility.yul\":1933:1939   */\n  dup3\n    /* \"#utility.yul\":1922:1931   */\n  dup11\n    /* \"#utility.yul\":1918:1940   */\n  add\n    /* \"#utility.yul\":1878:1950   */\n  tag_27\n  jump\t// in\ntag_47:\n    /* \"#utility.yul\":1868:1950   */\n  swap3\n  pop\n    /* \"#utility.yul\":1822:1960   */\n  pop\n    /* \"#utility.yul\":1999:2002   */\n  0xa0\n    /* \"#utility.yul\":2026:2098   */\n  tag_48\n    /* \"#utility.yul\":2090:2097   */\n  dup10\n    /* \"#utility.yul\":2081:2087   */\n  dup3\n    /* \"#utility.yul\":2070:2079   */\n  dup11\n    /* \"#utility.yul\":2066:2088   */\n  add\n    /* \"#utility.yul\":2026:2098   */\n  tag_27\n  jump\t// in\ntag_48:\n    /* \"#utility.yul\":2016:2098   */\n  swap2\n  pop\n    /* \"#utility.yul\":1970:2108   */\n  pop\n    /* \"#utility.yul\":885:2115   */\n  swap3\n  swap6\n  pop\n  swap3\n  swap6\n  pop\n  swap3\n  swap6\n  jump\t// out\n    /* \"contracts/cropsFarmer.sol\":56:18016  contract BNB_V3 {... */\ntag_19:\n  dataSize(sub_0)\n  dup1\n  dataOffset(sub_0)\n  0x00\n  codecopy\n  0x00\n  return\nstop\n\nsub_0: assembly {\n        /* \"contracts/cropsFarmer.sol\":56:18016  contract BNB_V3 {... */\n      mstore(0x40, 0x80)\n      jumpi(tag_1, lt(calldatasize, 0x04))\n      shr(0xe0, calldataload(0x00))\n      dup1\n      0x7c8e4b4c\n      gt\n      tag_73\n      jumpi\n      dup1\n      0xbd097e21\n      gt\n      tag_74\n      jumpi\n      dup1\n      0xd7c8843b\n      gt\n      tag_75\n      jumpi\n      dup1\n      0xe6dc9558\n      gt\n      tag_76\n      jumpi\n      dup1\n      0xe6dc9558\n      eq\n      tag_68\n      jumpi\n      dup1\n      0xe7576943\n      eq\n      tag_69\n      jumpi\n      dup1\n      0xeb271268\n      eq\n      tag_70\n      jumpi\n      dup1\n      0xf6f62886\n      eq\n      tag_71\n      jumpi\n      dup1\n      0xffa4e618\n      eq\n      tag_72\n      jumpi\n      jump(tag_1)\n    tag_76:\n      dup1\n      0xd7c8843b\n      eq\n      tag_64\n      jumpi\n      dup1\n      0xd989b4b3\n      eq\n      tag_65\n      jumpi\n      dup1\n      0xda235b22\n      eq\n      tag_66\n      jumpi\n      dup1\n      0xda5d4cc5\n      eq\n      tag_67\n      jumpi\n      jump(tag_1)\n    tag_75:\n      dup1\n      0xc63568c7\n      gt\n      tag_77\n      jumpi\n      dup1\n      0xc63568c7\n      eq\n      tag_59\n      jumpi\n      dup1\n      0xc688f0fb\n      eq\n      tag_60\n      jumpi\n      dup1\n      0xcc3e9c78\n      eq\n      tag_61\n      jumpi\n      dup1\n      0xcd329fc3\n      eq\n      tag_62\n      jumpi\n      dup1\n      0xd7206d5d\n      eq\n      tag_63\n      jumpi\n      jump(tag_1)\n    tag_77:\n      dup1\n      0xbd097e21\n      eq\n      tag_55\n      jumpi\n      dup1\n      0xbdd1ca27\n      eq\n      tag_56\n      jumpi\n      dup1\n      0xbfa9f304\n      eq\n      tag_57\n      jumpi\n      dup1\n      0xc3251b40\n      eq\n      tag_58\n      jumpi\n      jump(tag_1)\n    tag_74:\n      dup1\n      0x8da5cb5b\n      gt\n      tag_78\n      jumpi\n      dup1\n      0x9b9cb69f\n      gt\n      tag_79\n      jumpi\n      dup1\n      0x9b9cb69f\n      eq\n      tag_50\n      jumpi\n      dup1\n      0x9e9300a5\n      eq\n      tag_51\n      jumpi\n      dup1\n      0xa327c45d\n      eq\n      tag_52\n      jumpi\n      dup1\n      0xa87430ba\n      eq\n      tag_53\n      jumpi\n      dup1\n      0xb6e6fcf6\n      eq\n      tag_54\n      jumpi\n      jump(tag_1)\n    tag_79:\n      dup1\n      0x8da5cb5b\n      eq\n      tag_46\n      jumpi\n      dup1\n      0x8e316327\n      eq\n      tag_47\n      jumpi\n      dup1\n      0x950d91e9\n      eq\n      tag_48\n      jumpi\n      dup1\n      0x959c95b3\n      eq\n      tag_49\n      jumpi\n      jump(tag_1)\n    tag_78:\n      dup1\n      0x7e56fde5\n      gt\n      tag_80\n      jumpi\n      dup1\n      0x7e56fde5\n      eq\n      tag_41\n      jumpi\n      dup1\n      0x7ee28e3c\n      eq\n      tag_42\n      jumpi\n      dup1\n      0x8013f3a7\n      eq\n      tag_43\n      jumpi\n      dup1\n      0x817b1cd2\n      eq\n      tag_44\n      jumpi\n      dup1\n      0x8a315efd\n      eq\n      tag_45\n      jumpi\n      jump(tag_1)\n    tag_80:\n      dup1\n      0x7c8e4b4c\n      eq\n      tag_37\n      jumpi\n      dup1\n      0x7cc5b1e6\n      eq\n      tag_38\n      jumpi\n      dup1\n      0x7d882097\n      eq\n      tag_39\n      jumpi\n      dup1\n      0x7db07c9d\n      eq\n      tag_40\n      jumpi\n      jump(tag_1)\n    tag_73:\n      dup1\n      0x3578584f\n      gt\n      tag_81\n      jumpi\n      dup1\n      0x57386225\n      gt\n      tag_82\n      jumpi\n      dup1\n      0x68f58b03\n      gt\n      tag_83\n      jumpi\n      dup1\n      0x68f58b03\n      eq\n      tag_32\n      jumpi\n      dup1\n      0x69b11dd5\n      eq\n      tag_33\n      jumpi\n      dup1\n      0x6f969d28\n      eq\n      tag_34\n      jumpi\n      dup1\n      0x752a2628\n      eq\n      tag_35\n      jumpi\n      dup1\n      0x7a62ead7\n      eq\n      tag_36\n      jumpi\n      jump(tag_1)\n    tag_83:\n      dup1\n      0x57386225\n      eq\n      tag_28\n      jumpi\n      dup1\n      0x59eec895\n      eq\n      tag_29\n      jumpi\n      dup1\n      0x6386c1c7\n      eq\n      tag_30\n      jumpi\n      dup1\n      0x64c03a5e\n      eq\n      tag_31\n      jumpi\n      jump(tag_1)\n    tag_82:\n      dup1\n      0x4b319713\n      gt\n      tag_84\n      jumpi\n      dup1\n      0x4b319713\n      eq\n      tag_23\n      jumpi\n      dup1\n      0x4ce87053\n      eq\n      tag_24\n      jumpi\n      dup1\n      0x50637dbd\n      eq\n      tag_25\n      jumpi\n      dup1\n      0x50cf1c7a\n      eq\n      tag_26\n      jumpi\n      dup1\n      0x570c2979\n      eq\n      tag_27\n      jumpi\n      jump(tag_1)\n    tag_84:\n      dup1\n      0x3578584f\n      eq\n      tag_19\n      jumpi\n      dup1\n      0x43ce7422\n      eq\n      tag_20\n      jumpi\n      dup1\n      0x45a6a6e0\n      eq\n      tag_21\n      jumpi\n      dup1\n      0x45f98c29\n      eq\n      tag_22\n      jumpi\n      jump(tag_1)\n    tag_81:\n      dup1\n      0x1a7b8d4f\n      gt\n      tag_85\n      jumpi\n      dup1\n      0x298ea310\n      gt\n      tag_86\n      jumpi\n      dup1\n      0x298ea310\n      eq\n      tag_14\n      jumpi\n      dup1\n      0x2b039d0e\n      eq\n      tag_15\n      jumpi\n      dup1\n      0x2bc82f7f\n      eq\n      tag_16\n      jumpi\n      dup1\n      0x2e9392bb\n      eq\n      tag_17\n      jumpi\n      dup1\n      0x333f57b3\n      eq\n      tag_18\n      jumpi\n      jump(tag_1)\n    tag_86:\n      dup1\n      0x1a7b8d4f\n      eq\n      tag_10\n      jumpi\n      dup1\n      0x229824c4\n      eq\n      tag_11\n      jumpi\n      dup1\n      0x2362ce89\n      eq\n      tag_12\n      jumpi\n      dup1\n      0x26fd8422\n      eq\n      tag_13\n      jumpi\n      jump(tag_1)\n    tag_85:\n      dup1\n      0x12065fe0\n      gt\n      tag_87\n      jumpi\n      dup1\n      0x12065fe0\n      eq\n      tag_6\n      jumpi\n      dup1\n      0x1848b8dc\n      eq\n      tag_7\n      jumpi\n      dup1\n      0x18c819d8\n      eq\n      tag_8\n      jumpi\n      dup1\n      0x195a7339\n      eq\n      tag_9\n      jumpi\n      jump(tag_1)\n    tag_87:\n      dup1\n      0x01c234a8\n      eq\n      tag_2\n      jumpi\n      dup1\n      0x0420c98e\n      eq\n      tag_3\n      jumpi\n      dup1\n      0x07aeb7f0\n      eq\n      tag_4\n      jumpi\n      dup1\n      0x0a76e5ed\n      eq\n      tag_5\n      jumpi\n    tag_1:\n      0x00\n      dup1\n      revert\n        /* \"contracts/cropsFarmer.sol\":224:262  uint256 public PERCENTS_DIVIDER = 1000 */\n    tag_2:\n      callvalue\n      dup1\n      iszero\n      tag_88\n      jumpi\n      0x00\n      dup1\n      revert\n    tag_88:\n      pop\n      tag_89\n      tag_90\n      jump\t// in\n    tag_89:\n      mload(0x40)\n      tag_91\n      swap2\n      swap1\n      tag_92\n      jump\t// in\n    tag_91:\n      mload(0x40)\n      dup1\n      swap2\n      sub\n      swap1\n      return\n        /* \"contracts/cropsFarmer.sol\":639:674  uint256 public WITHDRAWAL_TAX = 350 */\n    tag_3:\n      callvalue\n      dup1\n      iszero\n      tag_93\n      jumpi\n      0x00\n      dup1\n      revert\n    tag_93:\n      pop\n      tag_94\n      tag_95\n      jump\t// in\n    tag_94:\n      mload(0x40)\n      tag_96\n      swap2\n      swap1\n      tag_92\n      jump\t// in\n    tag_96:\n      mload(0x40)\n      dup1\n      swap2\n      sub\n      swap1\n      return\n        /* \"contracts/cropsFarmer.sol\":1355:1384  address payable public prtnr1 */\n    tag_4:\n      callvalue\n      dup1\n      iszero\n      tag_97\n      jumpi\n      0x00\n      dup1\n      revert\n    tag_97:\n      pop\n      tag_98\n      tag_99\n      jump\t// in\n    tag_98:\n      mload(0x40)\n      tag_100\n      swap2\n      swap1\n      tag_101\n      jump\t// in\n    tag_100:\n      mload(0x40)\n      dup1\n      swap2\n      sub\n      swap1\n      return\n        /* \"contracts/cropsFarmer.sol\":13349:13448  function getMyMiners() public view returns(uint256){... */\n    tag_5:\n      callvalue\n      dup1\n      iszero\n      tag_102\n      jumpi\n      0x00\n      dup1\n      revert\n    tag_102:\n      pop\n      tag_103\n      tag_104\n      jump\t// in\n    tag_103:\n      mload(0x40)\n      tag_105\n      swap2\n      swap1\n      tag_92\n      jump\t// in\n    tag_105:\n      mload(0x40)\n      dup1\n      swap2\n      sub\n      swap1\n      return\n        /* \"contracts/cropsFarmer.sol\":11106:11201  function getBalance() public view returns(uint256){... */\n    tag_6:\n      callvalue\n      dup1\n      iszero\n      tag_106\n      jumpi\n      0x00\n      dup1\n      revert\n    tag_106:\n      pop\n      tag_107\n      tag_108\n      jump\t// in\n    tag_107:\n      mload(0x40)\n      tag_109\n      swap2\n      swap1\n      tag_92\n      jump\t// in\n    tag_109:\n      mload(0x40)\n      dup1\n      swap2\n      sub\n      swap1\n      return\n        /* \"contracts/cropsFarmer.sol\":435:482  uint256 public WALLET_DEPOSIT_LIMIT = 25 * 1e18 */\n    tag_7:\n      callvalue\n      dup1\n      iszero\n      tag_110\n      jumpi\n      0x00\n      dup1\n      revert\n    tag_110:\n      pop\n      tag_111\n      tag_112\n      jump\t// in\n    tag_111:\n      mload(0x40)\n      tag_113\n      swap2\n      swap1\n      tag_92\n      jump\t// in\n    tag_113:\n      mload(0x40)\n      dup1\n      swap2\n      sub\n      swap1\n      return\n        /* \"contracts/cropsFarmer.sol\":3825:5079  function hireMoreFarmers(bool isCompound) public {... */\n    tag_8:\n      callvalue\n      dup1\n      iszero\n      tag_114\n      jumpi\n      0x00\n      dup1\n      revert\n    tag_114:\n      pop\n      tag_115\n      0x04\n      dup1\n      calldatasize\n      sub\n      dup2\n      add\n      swap1\n      tag_116\n      swap2\n      swap1\n      tag_117\n      jump\t// in\n    tag_116:\n      tag_118\n      jump\t// in\n    tag_115:\n      stop\n        /* \"contracts/cropsFarmer.sol\":139:184  uint256 public EGGS_TO_HIRE_1MINERS = 1440000 */\n    tag_9:\n      callvalue\n      dup1\n      iszero\n      tag_119\n      jumpi\n      0x00\n      dup1\n      revert\n    tag_119:\n      pop\n      tag_120\n      tag_121\n      jump\t// in\n    tag_120:\n      mload(0x40)\n      tag_122\n      swap2\n      swap1\n      tag_92\n      jump\t// in\n    tag_122:\n      mload(0x40)\n      dup1\n      swap2\n      sub\n      swap1\n      return\n        /* \"contracts/cropsFarmer.sol\":15744:15900  function PRC_MKT(uint256 value) external {... */\n    tag_10:\n      callvalue\n      dup1\n      iszero\n      tag_123\n      jumpi\n      0x00\n      dup1\n      revert\n    tag_123:\n      pop\n      tag_124\n      0x04\n      dup1\n      calldatasize\n      sub\n      dup2\n      add\n      swap1\n      tag_125\n      swap2\n      swap1\n      tag_126\n      jump\t// in\n    tag_125:\n      tag_127\n      jump\t// in\n    tag_124:\n      stop\n        /* \"contracts/cropsFarmer.sol\":11520:11968  function calculateTrade(uint256 rt,uint256 rs, uint256 bs) public view returns(uint256){... */\n    tag_11:\n      callvalue\n      dup1\n      iszero\n      tag_128\n      jumpi\n      0x00\n      dup1\n      revert\n    tag_128:\n      pop\n      tag_129\n      0x04\n      dup1\n      calldatasize\n      sub\n      dup2\n      add\n      swap1\n      tag_130\n      swap2\n      swap1\n      tag_131\n      jump\t// in\n    tag_130:\n      tag_132\n      jump\t// in\n    tag_129:\n      mload(0x40)\n      tag_133\n      swap2\n      swap1\n      tag_92\n      jump\t// in\n    tag_133:\n      mload(0x40)\n      dup1\n      swap2\n      sub\n      swap1\n      return\n        /* \"contracts/cropsFarmer.sol\":1322:1349  address payable public dev3 */\n    tag_12:\n      callvalue\n      dup1\n      iszero\n      tag_134\n      jumpi\n      0x00\n      dup1\n      revert\n    tag_134:\n      pop\n      tag_135\n      tag_136\n      jump\t// in\n    tag_135:\n      mload(0x40)\n      tag_137\n      swap2\n      swap1\n      tag_101\n      jump\t// in\n    tag_137:\n      mload(0x40)\n      dup1\n      swap2\n      sub\n      swap1\n      return\n        /* \"contracts/cropsFarmer.sol\":12118:12280  function calculateEggBuy(uint256 eth,uint256 contractBalance) public view returns(uint256){... */\n    tag_13:\n      callvalue\n      dup1\n      iszero\n      tag_138\n      jumpi\n      0x00\n      dup1\n      revert\n    tag_138:\n      pop\n      tag_139\n      0x04\n      dup1\n      calldatasize\n      sub\n      dup2\n      add\n      swap1\n      tag_140\n      swap2\n      swap1\n      tag_141\n      jump\t// in\n    tag_140:\n      tag_142\n      jump\t// in\n    tag_139:\n      mload(0x40)\n      tag_143\n      swap2\n      swap1\n      tag_92\n      jump\t// in\n    tag_143:\n      mload(0x40)\n      dup1\n      swap2\n      sub\n      swap1\n      return\n        /* \"contracts/cropsFarmer.sol\":15582:15738  function PRC_TAX(uint256 value) external {... */\n    tag_14:\n      callvalue\n      dup1\n      iszero\n      tag_144\n      jumpi\n      0x00\n      dup1\n      revert\n    tag_144:\n      pop\n      tag_145\n      0x04\n      dup1\n      calldatasize\n      sub\n      dup2\n      add\n      swap1\n      tag_146\n      swap2\n      swap1\n      tag_126\n      jump\t// in\n    tag_146:\n      tag_147\n      jump\t// in\n    tag_145:\n      stop\n        /* \"contracts/cropsFarmer.sol\":14122:14259  function CHANGE_OWNERSHIP(address value) external {... */\n    tag_15:\n      callvalue\n      dup1\n      iszero\n      tag_148\n      jumpi\n      0x00\n      dup1\n      revert\n    tag_148:\n      pop\n      tag_149\n      0x04\n      dup1\n      calldatasize\n      sub\n      dup2\n      add\n      swap1\n      tag_150\n      swap2\n      swap1\n      tag_151\n      jump\t// in\n    tag_150:\n      tag_152\n      jump\t// in\n    tag_149:\n      stop\n        /* \"contracts/cropsFarmer.sol\":296:319  uint256 public MKT = 12 */\n    tag_16:\n      callvalue\n      dup1\n      iszero\n      tag_153\n      jumpi\n      0x00\n      dup1\n      revert\n    tag_153:\n      pop\n      tag_154\n      tag_155\n      jump\t// in\n    tag_154:\n      mload(0x40)\n      tag_156\n      swap2\n      swap1\n      tag_92\n      jump\t// in\n    tag_156:\n      mload(0x40)\n      dup1\n      swap2\n      sub\n      swap1\n      return\n        /* \"contracts/cropsFarmer.sol\":912:937  uint256 public marketEggs */\n    tag_17:\n      callvalue\n      dup1\n      iszero\n      tag_157\n      jumpi\n      0x00\n      dup1\n      revert\n    tag_157:\n      pop\n      tag_158\n      tag_159\n      jump\t// in\n    tag_158:\n      mload(0x40)\n      tag_160\n      swap2\n      swap1\n      tag_92\n      jump\t// in\n    tag_160:\n      mload(0x40)\n      dup1\n      swap2\n      sub\n      swap1\n      return\n        /* \"contracts/cropsFarmer.sol\":993:1020  bool public contractStarted */\n    tag_18:\n      callvalue\n      dup1\n      iszero\n      tag_161\n      jumpi\n      0x00\n      dup1\n      revert\n    tag_161:\n      pop\n      tag_162\n      tag_163\n      jump\t// in\n    tag_162:\n      mload(0x40)\n      tag_164\n      swap2\n      swap1\n      tag_165\n      jump\t// in\n    tag_164:\n      mload(0x40)\n      dup1\n      swap2\n      sub\n      swap1\n      return\n        /* \"contracts/cropsFarmer.sol\":1113:1154  uint256 public CUTOFF_STEP = 48 * 60 * 60 */\n    tag_19:\n      callvalue\n      dup1\n      iszero\n      tag_166\n      jumpi\n      0x00\n      dup1\n      revert\n    tag_166:\n      pop\n      tag_167\n      tag_168\n      jump\t// in\n    tag_167:\n      mload(0x40)\n      tag_169\n      swap2\n      swap1\n      tag_92\n      jump\t// in\n    tag_169:\n      mload(0x40)\n      dup1\n      swap2\n      sub\n      swap1\n      return\n        /* \"contracts/cropsFarmer.sol\":13454:13595  function getMyEggs() public view returns(uint256){... */\n    tag_20:\n      callvalue\n      dup1\n      iszero\n      tag_170\n      jumpi\n      0x00\n      dup1\n      revert\n    tag_170:\n      pop\n      tag_171\n      tag_172\n      jump\t// in\n    tag_171:\n      mload(0x40)\n      tag_173\n      swap2\n      swap1\n      tag_92\n      jump\t// in\n    tag_173:\n      mload(0x40)\n      dup1\n      swap2\n      sub\n      swap1\n      return\n        /* \"contracts/cropsFarmer.sol\":17396:17589  function SET_WITHDRAW_COOLDOWN(uint256 value) external {... */\n    tag_21:\n      callvalue\n      dup1\n      iszero\n      tag_174\n      jumpi\n      0x00\n      dup1\n      revert\n    tag_174:\n      pop\n      tag_175\n      0x04\n      dup1\n      calldatasize\n      sub\n      dup2\n      add\n      swap1\n      tag_176\n      swap2\n      swap1\n      tag_126\n      jump\t// in\n    tag_176:\n      tag_177\n      jump\t// in\n    tag_175:\n      stop\n        /* \"contracts/cropsFarmer.sol\":17081:17233  function SET_INVEST_MIN(uint256 value) external {... */\n    tag_22:\n      callvalue\n      dup1\n      iszero\n      tag_178\n      jumpi\n      0x00\n      dup1\n      revert\n    tag_178:\n      pop\n      tag_179\n      0x04\n      dup1\n      calldatasize\n      sub\n      dup2\n      add\n      swap1\n      tag_180\n      swap2\n      swap1\n      tag_126\n      jump\t// in\n    tag_180:\n      tag_181\n      jump\t// in\n    tag_179:\n      stop\n        /* \"contracts/cropsFarmer.sol\":876:905  uint256 public totalWithdrawn */\n    tag_23:\n      callvalue\n      dup1\n      iszero\n      tag_182\n      jumpi\n      0x00\n      dup1\n      revert\n    tag_182:\n      pop\n      tag_183\n      tag_184\n      jump\t// in\n    tag_183:\n      mload(0x40)\n      tag_185\n      swap2\n      swap1\n      tag_92\n      jump\t// in\n    tag_185:\n      mload(0x40)\n      dup1\n      swap2\n      sub\n      swap1\n      return\n        /* \"contracts/cropsFarmer.sol\":13123:13343  function getSiteInfo() public view returns (uint256 _totalStaked, uint256 _totalDeposits, uint256 _totalCompound, uint256 _totalRefBonus) {... */\n    tag_24:\n      callvalue\n      dup1\n      iszero\n      tag_186\n      jumpi\n      0x00\n      dup1\n      revert\n    tag_186:\n      pop\n      tag_187\n      tag_188\n      jump\t// in\n    tag_187:\n      mload(0x40)\n      tag_189\n      swap5\n      swap4\n      swap3\n      swap2\n      swap1\n      tag_190\n      jump\t// in\n    tag_189:\n      mload(0x40)\n      dup1\n      swap2\n      sub\n      swap1\n      return\n        /* \"contracts/cropsFarmer.sol\":9725:10108  function getDailyCompoundBonus(address _adr, uint256 amount) public view returns(uint256){... */\n    tag_25:\n      callvalue\n      dup1\n      iszero\n      tag_191\n      jumpi\n      0x00\n      dup1\n      revert\n    tag_191:\n      pop\n      tag_192\n      0x04\n      dup1\n      calldatasize\n      sub\n      dup2\n      add\n      swap1\n      tag_193\n      swap2\n      swap1\n      tag_194\n      jump\t// in\n    tag_193:\n      tag_195\n      jump\t// in\n    tag_192:\n      mload(0x40)\n      tag_196\n      swap2\n      swap1\n      tag_92\n      jump\t// in\n    tag_196:\n      mload(0x40)\n      dup1\n      swap2\n      sub\n      swap1\n      return\n        /* \"contracts/cropsFarmer.sol\":7457:9307  function hireFarmers(address ref) public payable{... */\n    tag_26:\n      tag_197\n      0x04\n      dup1\n      calldatasize\n      sub\n      dup2\n      add\n      swap1\n      tag_198\n      swap2\n      swap1\n      tag_151\n      jump\t// in\n    tag_198:\n      tag_199\n      jump\t// in\n    tag_197:\n      stop\n        /* \"contracts/cropsFarmer.sol\":15906:16088  function PRC_REFERRAL(uint256 value) external {... */\n    tag_27:\n      callvalue\n      dup1\n      iszero\n      tag_200\n      jumpi\n      0x00\n      dup1\n      revert\n    tag_200:\n      pop\n      tag_201\n      0x04\n      dup1\n      calldatasize\n      sub\n      dup2\n      add\n      swap1\n      tag_202\n      swap2\n      swap1\n      tag_126\n      jump\t// in\n    tag_202:\n      tag_203\n      jump\t// in\n    tag_201:\n      stop\n        /* \"contracts/cropsFarmer.sol\":5085:6542  function sellCrops() public{... */\n    tag_28:\n      callvalue\n      dup1\n      iszero\n      tag_204\n      jumpi\n      0x00\n      dup1\n      revert\n    tag_204:\n      pop\n      tag_205\n      tag_206\n      jump\t// in\n    tag_205:\n      stop\n        /* \"contracts/cropsFarmer.sol\":325:363  uint256 public MARKET_EGGS_DIVISOR = 2 */\n    tag_29:\n      callvalue\n      dup1\n      iszero\n      tag_207\n      jumpi\n      0x00\n      dup1\n      revert\n    tag_207:\n      pop\n      tag_208\n      tag_209\n      jump\t// in\n    tag_208:\n      mload(0x40)\n      tag_210\n      swap2\n      swap1\n      tag_92\n      jump\t// in\n    tag_210:\n      mload(0x40)\n      dup1\n      swap2\n      sub\n      swap1\n      return\n        /* \"contracts/cropsFarmer.sol\":10114:11100  function getUserInfo(address _adr) public view returns(uint256 _initialDeposit, uint256 _userDeposit, uint256 _miners,... */\n    tag_30:\n      callvalue\n      dup1\n      iszero\n      tag_211\n      jumpi\n      0x00\n      dup1\n      revert\n    tag_211:\n      pop\n      tag_212\n      0x04\n      dup1\n      calldatasize\n      sub\n      dup2\n      add\n      swap1\n      tag_213\n      swap2\n      swap1\n      tag_151\n      jump\t// in\n    tag_213:\n      tag_214\n      jump\t// in\n    tag_212:\n      mload(0x40)\n      tag_215\n      swap13\n      swap12\n      swap11\n      swap10\n      swap9\n      swap8\n      swap7\n      swap6\n      swap5\n      swap4\n      swap3\n      swap2\n      swap1\n      tag_216\n      jump\t// in\n    tag_215:\n      mload(0x40)\n      dup1\n      swap2\n      sub\n      swap1\n      return\n        /* \"contracts/cropsFarmer.sol\":11306:11514  function getAvailableEarnings(address _adr) public view returns(uint256) {... */\n    tag_31:\n      callvalue\n      dup1\n      iszero\n      tag_217\n      jumpi\n      0x00\n      dup1\n      revert\n    tag_217:\n      pop\n      tag_218\n      0x04\n      dup1\n      calldatasize\n      sub\n      dup2\n      add\n      swap1\n      tag_219\n      swap2\n      swap1\n      tag_151\n      jump\t// in\n    tag_219:\n      tag_220\n      jump\t// in\n    tag_218:\n      mload(0x40)\n      tag_221\n      swap2\n      swap1\n      tag_92\n      jump\t// in\n    tag_221:\n      mload(0x40)\n      dup1\n      swap2\n      sub\n      swap1\n      return\n        /* \"contracts/cropsFarmer.sol\":268:290  uint256 public TAX = 9 */\n    tag_32:\n      callvalue\n      dup1\n      iszero\n      tag_222\n      jumpi\n      0x00\n      dup1\n      revert\n    tag_222:\n      pop\n      tag_223\n      tag_224\n      jump\t// in\n    tag_223:\n      mload(0x40)\n      tag_225\n      swap2\n      swap1\n      tag_92\n      jump\t// in\n    tag_225:\n      mload(0x40)\n      dup1\n      swap2\n      sub\n      swap1\n      return\n        /* \"contracts/cropsFarmer.sol\":842:870  uint256 public totalRefBonus */\n    tag_33:\n      callvalue\n      dup1\n      iszero\n      tag_226\n      jumpi\n      0x00\n      dup1\n      revert\n    tag_226:\n      pop\n      tag_227\n      tag_228\n      jump\t// in\n    tag_227:\n      mload(0x40)\n      tag_229\n      swap2\n      swap1\n      tag_92\n      jump\t// in\n    tag_229:\n      mload(0x40)\n      dup1\n      swap2\n      sub\n      swap1\n      return\n        /* \"contracts/cropsFarmer.sol\":16473:16669  function BONUS_DAILY_COMPOUND(uint256 value) external {... */\n    tag_34:\n      callvalue\n      dup1\n      iszero\n      tag_230\n      jumpi\n      0x00\n      dup1\n      revert\n    tag_230:\n      pop\n      tag_231\n      0x04\n      dup1\n      calldatasize\n      sub\n      dup2\n      add\n      swap1\n      tag_232\n      swap2\n      swap1\n      tag_126\n      jump\t// in\n    tag_232:\n      tag_233\n      jump\t// in\n    tag_231:\n      stop\n        /* \"contracts/cropsFarmer.sol\":589:632  uint256 public COMPOUND_STEP = 12 * 60 * 60 */\n    tag_35:\n      callvalue\n      dup1\n      iszero\n      tag_234\n      jumpi\n      0x00\n      dup1\n      revert\n    tag_234:\n      pop\n      tag_235\n      tag_236\n      jump\t// in\n    tag_235:\n      mload(0x40)\n      tag_237\n      swap2\n      swap1\n      tag_92\n      jump\t// in\n    tag_237:\n      mload(0x40)\n      dup1\n      swap2\n      sub\n      swap1\n      return\n        /* \"contracts/cropsFarmer.sol\":16094:16282  function PRC_MARKET_EGGS_DIVISOR(uint256 value) external {... */\n    tag_36:\n      callvalue\n      dup1\n      iszero\n      tag_238\n      jumpi\n      0x00\n      dup1\n      revert\n    tag_238:\n      pop\n      tag_239\n      0x04\n      dup1\n      calldatasize\n      sub\n      dup2\n      add\n      swap1\n      tag_240\n      swap2\n      swap1\n      tag_126\n      jump\t// in\n    tag_240:\n      tag_241\n      jump\t// in\n    tag_239:\n      stop\n        /* \"contracts/cropsFarmer.sol\":17239:17390  function SET_CUTOFF_STEP(uint256 value) external {... */\n    tag_37:\n      callvalue\n      dup1\n      iszero\n      tag_242\n      jumpi\n      0x00\n      dup1\n      revert\n    tag_242:\n      pop\n      tag_243\n      0x04\n      dup1\n      calldatasize\n      sub\n      dup2\n      add\n      swap1\n      tag_244\n      swap2\n      swap1\n      tag_126\n      jump\t// in\n    tag_244:\n      tag_245\n      jump\t// in\n    tag_243:\n      stop\n        /* \"contracts/cropsFarmer.sol\":1425:1451  address payable public mkt */\n    tag_38:\n      callvalue\n      dup1\n      iszero\n      tag_246\n      jumpi\n      0x00\n      dup1\n      revert\n    tag_246:\n      pop\n      tag_247\n      tag_248\n      jump\t// in\n    tag_247:\n      mload(0x40)\n      tag_249\n      swap2\n      swap1\n      tag_101\n      jump\t// in\n    tag_249:\n      mload(0x40)\n      dup1\n      swap2\n      sub\n      swap1\n      return\n        /* \"contracts/cropsFarmer.sol\":774:802  uint256 public totalDeposits */\n    tag_39:\n      callvalue\n      dup1\n      iszero\n      tag_250\n      jumpi\n      0x00\n      dup1\n      revert\n    tag_250:\n      pop\n      tag_251\n      tag_252\n      jump\t// in\n    tag_251:\n      mload(0x40)\n      tag_253\n      swap2\n      swap1\n      tag_92\n      jump\t// in\n    tag_253:\n      mload(0x40)\n      dup1\n      swap2\n      sub\n      swap1\n      return\n        /* \"contracts/cropsFarmer.sol\":808:836  uint256 public totalCompound */\n    tag_40:\n      callvalue\n      dup1\n      iszero\n      tag_254\n      jumpi\n      0x00\n      dup1\n      revert\n    tag_254:\n      pop\n      tag_255\n      tag_256\n      jump\t// in\n    tag_255:\n      mload(0x40)\n      tag_257\n      swap2\n      swap1\n      tag_92\n      jump\t// in\n    tag_257:\n      mload(0x40)\n      dup1\n      swap2\n      sub\n      swap1\n      return\n        /* \"contracts/cropsFarmer.sol\":12286:12416  function calculateEggBuySimple(uint256 eth) public view returns(uint256){... */\n    tag_41:\n      callvalue\n      dup1\n      iszero\n      tag_258\n      jumpi\n      0x00\n      dup1\n      revert\n    tag_258:\n      pop\n      tag_259\n      0x04\n      dup1\n      calldatasize\n      sub\n      dup2\n      add\n      swap1\n      tag_260\n      swap2\n      swap1\n      tag_126\n      jump\t// in\n    tag_260:\n      tag_261\n      jump\t// in\n    tag_259:\n      mload(0x40)\n      tag_262\n      swap2\n      swap1\n      tag_92\n      jump\t// in\n    tag_262:\n      mload(0x40)\n      dup1\n      swap2\n      sub\n      swap1\n      return\n        /* \"contracts/cropsFarmer.sol\":17595:17794  function SET_WALLET_DEPOSIT_LIMIT(uint256 value) external {... */\n    tag_42:\n      callvalue\n      dup1\n      iszero\n      tag_263\n      jumpi\n      0x00\n      dup1\n      revert\n    tag_263:\n      pop\n      tag_264\n      0x04\n      dup1\n      calldatasize\n      sub\n      dup2\n      add\n      swap1\n      tag_265\n      swap2\n      swap1\n      tag_126\n      jump\t// in\n    tag_265:\n      tag_266\n      jump\t// in\n    tag_264:\n      stop\n        /* \"contracts/cropsFarmer.sol\":1289:1316  address payable public dev2 */\n    tag_43:\n      callvalue\n      dup1\n      iszero\n      tag_267\n      jumpi\n      0x00\n      dup1\n      revert\n    tag_267:\n      pop\n      tag_268\n      tag_269\n      jump\t// in\n    tag_268:\n      mload(0x40)\n      tag_270\n      swap2\n      swap1\n      tag_101\n      jump\t// in\n    tag_270:\n      mload(0x40)\n      dup1\n      swap2\n      sub\n      swap1\n      return\n        /* \"contracts/cropsFarmer.sol\":742:768  uint256 public totalStaked */\n    tag_44:\n      callvalue\n      dup1\n      iszero\n      tag_271\n      jumpi\n      0x00\n      dup1\n      revert\n    tag_271:\n      pop\n      tag_272\n      tag_273\n      jump\t// in\n    tag_272:\n      mload(0x40)\n      tag_274\n      swap2\n      swap1\n      tag_92\n      jump\t// in\n    tag_274:\n      mload(0x40)\n      dup1\n      swap2\n      sub\n      swap1\n      return\n        /* \"contracts/cropsFarmer.sol\":1390:1419  address payable public prtnr2 */\n    tag_45:\n      callvalue\n      dup1\n      iszero\n      tag_275\n      jumpi\n      0x00\n      dup1\n      revert\n    tag_275:\n      pop\n      tag_276\n      tag_277\n      jump\t// in\n    tag_276:\n      mload(0x40)\n      tag_278\n      swap2\n      swap1\n      tag_101\n      jump\t// in\n    tag_278:\n      mload(0x40)\n      dup1\n      swap2\n      sub\n      swap1\n      return\n        /* \"contracts/cropsFarmer.sol\":1230:1250  address public owner */\n    tag_46:\n      callvalue\n      dup1\n      iszero\n      tag_279\n      jumpi\n      0x00\n      dup1\n      revert\n    tag_279:\n      pop\n      tag_280\n      tag_281\n      jump\t// in\n    tag_280:\n      mload(0x40)\n      tag_282\n      swap2\n      swap1\n      tag_283\n      jump\t// in\n    tag_282:\n      mload(0x40)\n      dup1\n      swap2\n      sub\n      swap1\n      return\n        /* \"contracts/cropsFarmer.sol\":11974:12112  function calculateEggSell(uint256 eggs) public view returns(uint256){... */\n    tag_47:\n      callvalue\n      dup1\n      iszero\n      tag_284\n      jumpi\n      0x00\n      dup1\n      revert\n    tag_284:\n      pop\n      tag_285\n      0x04\n      dup1\n      calldatasize\n      sub\n      dup2\n      add\n      swap1\n      tag_286\n      swap2\n      swap1\n      tag_126\n      jump\t// in\n    tag_286:\n      tag_287\n      jump\t// in\n    tag_285:\n      mload(0x40)\n      tag_288\n      swap2\n      swap1\n      tag_92\n      jump\t// in\n    tag_288:\n      mload(0x40)\n      dup1\n      swap2\n      sub\n      swap1\n      return\n        /* \"contracts/cropsFarmer.sol\":1157:1203  uint256 public WITHDRAW_COOLDOWN = 4 * 60 * 60 */\n    tag_48:\n      callvalue\n      dup1\n      iszero\n      tag_289\n      jumpi\n      0x00\n      dup1\n      revert\n    tag_289:\n      pop\n      tag_290\n      tag_291\n      jump\t// in\n    tag_290:\n      mload(0x40)\n      tag_292\n      swap2\n      swap1\n      tag_92\n      jump\t// in\n    tag_292:\n      mload(0x40)\n      dup1\n      swap2\n      sub\n      swap1\n      return\n        /* \"contracts/cropsFarmer.sol\":16887:17075  function BONUS_COMPOUND_STEP(uint256 value) external {... */\n    tag_49:\n      callvalue\n      dup1\n      iszero\n      tag_293\n      jumpi\n      0x00\n      dup1\n      revert\n    tag_293:\n      pop\n      tag_294\n      0x04\n      dup1\n      calldatasize\n      sub\n      dup2\n      add\n      swap1\n      tag_295\n      swap2\n      swap1\n      tag_126\n      jump\t// in\n    tag_295:\n      tag_296\n      jump\t// in\n    tag_294:\n      stop\n        /* \"contracts/cropsFarmer.sol\":16675:16881  function BONUS_DAILY_COMPOUND_BONUS_MAX_TIMES(uint256 value) external {... */\n    tag_50:\n      callvalue\n      dup1\n      iszero\n      tag_297\n      jumpi\n      0x00\n      dup1\n      revert\n    tag_297:\n      pop\n      tag_298\n      0x04\n      dup1\n      calldatasize\n      sub\n      dup2\n      add\n      swap1\n      tag_299\n      swap2\n      swap1\n      tag_126\n      jump\t// in\n    tag_299:\n      tag_300\n      jump\t// in\n    tag_298:\n      stop\n        /* \"contracts/cropsFarmer.sol\":2605:2754  function setblacklistActive(bool isActive) public{... */\n    tag_51:\n      callvalue\n      dup1\n      iszero\n      tag_301\n      jumpi\n      0x00\n      dup1\n      revert\n    tag_301:\n      pop\n      tag_302\n      0x04\n      dup1\n      calldatasize\n      sub\n      dup2\n      add\n      swap1\n      tag_303\n      swap2\n      swap1\n      tag_117\n      jump\t// in\n    tag_303:\n      tag_304\n      jump\t// in\n    tag_302:\n      stop\n        /* \"contracts/cropsFarmer.sol\":1256:1283  address payable public dev1 */\n    tag_52:\n      callvalue\n      dup1\n      iszero\n      tag_305\n      jumpi\n      0x00\n      dup1\n      revert\n    tag_305:\n      pop\n      tag_306\n      tag_307\n      jump\t// in\n    tag_306:\n      mload(0x40)\n      tag_308\n      swap2\n      swap1\n      tag_101\n      jump\t// in\n    tag_308:\n      mload(0x40)\n      dup1\n      swap2\n      sub\n      swap1\n      return\n        /* \"contracts/cropsFarmer.sol\":1916:1953  mapping(address => User) public users */\n    tag_53:\n      callvalue\n      dup1\n      iszero\n      tag_309\n      jumpi\n      0x00\n      dup1\n      revert\n    tag_309:\n      pop\n      tag_310\n      0x04\n      dup1\n      calldatasize\n      sub\n      dup2\n      add\n      swap1\n      tag_311\n      swap2\n      swap1\n      tag_151\n      jump\t// in\n    tag_311:\n      tag_312\n      jump\t// in\n    tag_310:\n      mload(0x40)\n      tag_313\n      swap13\n      swap12\n      swap11\n      swap10\n      swap9\n      swap8\n      swap7\n      swap6\n      swap5\n      swap4\n      swap3\n      swap2\n      swap1\n      tag_216\n      jump\t// in\n    tag_313:\n      mload(0x40)\n      dup1\n      swap2\n      sub\n      swap1\n      return\n        /* \"contracts/cropsFarmer.sol\":1026:1060  bool public blacklistActive = true */\n    tag_54:\n      callvalue\n      dup1\n      iszero\n      tag_314\n      jumpi\n      0x00\n      dup1\n      revert\n    tag_314:\n      pop\n      tag_315\n      tag_316\n      jump\t// in\n    tag_315:\n      mload(0x40)\n      tag_317\n      swap2\n      swap1\n      tag_165\n      jump\t// in\n    tag_317:\n      mload(0x40)\n      dup1\n      swap2\n      sub\n      swap1\n      return\n        /* \"contracts/cropsFarmer.sol\":3776:3819  function fundContract() external payable {} */\n    tag_55:\n      tag_318\n      tag_319\n      jump\t// in\n    tag_318:\n      stop\n        /* \"contracts/cropsFarmer.sol\":12506:12939  function getEggsYield(uint256 amount) public view returns(uint256,uint256) {... */\n    tag_56:\n      callvalue\n      dup1\n      iszero\n      tag_320\n      jumpi\n      0x00\n      dup1\n      revert\n    tag_320:\n      pop\n      tag_321\n      0x04\n      dup1\n      calldatasize\n      sub\n      dup2\n      add\n      swap1\n      tag_322\n      swap2\n      swap1\n      tag_126\n      jump\t// in\n    tag_322:\n      tag_323\n      jump\t// in\n    tag_321:\n      mload(0x40)\n      tag_324\n      swap3\n      swap2\n      swap1\n      tag_325\n      jump\t// in\n    tag_324:\n      mload(0x40)\n      dup1\n      swap2\n      sub\n      swap1\n      return\n        /* \"contracts/cropsFarmer.sol\":16288:16467  function SET_WITHDRAWAL_TAX(uint256 value) external {... */\n    tag_57:\n      callvalue\n      dup1\n      iszero\n      tag_326\n      jumpi\n      0x00\n      dup1\n      revert\n    tag_326:\n      pop\n      tag_327\n      0x04\n      dup1\n      calldatasize\n      sub\n      dup2\n      add\n      swap1\n      tag_328\n      swap2\n      swap1\n      tag_126\n      jump\t// in\n    tag_328:\n      tag_329\n      jump\t// in\n    tag_327:\n      stop\n        /* \"contracts/cropsFarmer.sol\":3210:3398  function checkIfBlacklisted(address Wallet) public view returns(bool blacklisted){... */\n    tag_58:\n      callvalue\n      dup1\n      iszero\n      tag_330\n      jumpi\n      0x00\n      dup1\n      revert\n    tag_330:\n      pop\n      tag_331\n      0x04\n      dup1\n      calldatasize\n      sub\n      dup2\n      add\n      swap1\n      tag_332\n      swap2\n      swap1\n      tag_151\n      jump\t// in\n    tag_332:\n      tag_333\n      jump\t// in\n    tag_331:\n      mload(0x40)\n      tag_334\n      swap2\n      swap1\n      tag_165\n      jump\t// in\n    tag_334:\n      mload(0x40)\n      dup1\n      swap2\n      sub\n      swap1\n      return\n        /* \"contracts/cropsFarmer.sol\":190:218  uint256 public REFERRAL = 70 */\n    tag_59:\n      callvalue\n      dup1\n      iszero\n      tag_335\n      jumpi\n      0x00\n      dup1\n      revert\n    tag_335:\n      pop\n      tag_336\n      tag_337\n      jump\t// in\n    tag_336:\n      mload(0x40)\n      tag_338\n      swap2\n      swap1\n      tag_92\n      jump\t// in\n    tag_338:\n      mload(0x40)\n      dup1\n      swap2\n      sub\n      swap1\n      return\n        /* \"contracts/cropsFarmer.sol\":539:583  uint256 public COMPOUND_BONUS_MAX_TIMES = 10 */\n    tag_60:\n      callvalue\n      dup1\n      iszero\n      tag_339\n      jumpi\n      0x00\n      dup1\n      revert\n    tag_339:\n      pop\n      tag_340\n      tag_341\n      jump\t// in\n    tag_340:\n      mload(0x40)\n      tag_342\n      swap2\n      swap1\n      tag_92\n      jump\t// in\n    tag_342:\n      mload(0x40)\n      dup1\n      swap2\n      sub\n      swap1\n      return\n        /* \"contracts/cropsFarmer.sol\":12945:13117  function calculateEggSellForYield(uint256 eggs,uint256 amount) public view returns(uint256){... */\n    tag_61:\n      callvalue\n      dup1\n      iszero\n      tag_343\n      jumpi\n      0x00\n      dup1\n      revert\n    tag_343:\n      pop\n      tag_344\n      0x04\n      dup1\n      calldatasize\n      sub\n      dup2\n      add\n      swap1\n      tag_345\n      swap2\n      swap1\n      tag_141\n      jump\t// in\n    tag_345:\n      tag_346\n      jump\t// in\n    tag_344:\n      mload(0x40)\n      tag_347\n      swap2\n      swap1\n      tag_92\n      jump\t// in\n    tag_347:\n      mload(0x40)\n      dup1\n      swap2\n      sub\n      swap1\n      return\n        /* \"contracts/cropsFarmer.sol\":370:412  uint256 public MIN_INVEST_LIMIT = 1 * 1e17 */\n    tag_62:\n      callvalue\n      dup1\n      iszero\n      tag_348\n      jumpi\n      0x00\n      dup1\n      revert\n    tag_348:\n      pop\n      tag_349\n      tag_350\n      jump\t// in\n    tag_349:\n      mload(0x40)\n      tag_351\n      swap2\n      swap1\n      tag_92\n      jump\t// in\n    tag_351:\n      mload(0x40)\n      dup1\n      swap2\n      sub\n      swap1\n      return\n        /* \"contracts/cropsFarmer.sol\":502:536  uint256 public COMPOUND_BONUS = 20 */\n    tag_63:\n      callvalue\n      dup1\n      iszero\n      tag_352\n      jumpi\n      0x00\n      dup1\n      revert\n    tag_352:\n      pop\n      tag_353\n      tag_354\n      jump\t// in\n    tag_353:\n      mload(0x40)\n      tag_355\n      swap2\n      swap1\n      tag_92\n      jump\t// in\n    tag_355:\n      mload(0x40)\n      dup1\n      swap2\n      sub\n      swap1\n      return\n        /* \"contracts/cropsFarmer.sol\":13601:14007  function getEggsSinceLastHatch(address adr) public view returns(uint256){... */\n    tag_64:\n      callvalue\n      dup1\n      iszero\n      tag_356\n      jumpi\n      0x00\n      dup1\n      revert\n    tag_356:\n      pop\n      tag_357\n      0x04\n      dup1\n      calldatasize\n      sub\n      dup2\n      add\n      swap1\n      tag_358\n      swap2\n      swap1\n      tag_151\n      jump\t// in\n    tag_358:\n      tag_359\n      jump\t// in\n    tag_357:\n      mload(0x40)\n      tag_360\n      swap2\n      swap1\n      tag_92\n      jump\t// in\n    tag_360:\n      mload(0x40)\n      dup1\n      swap2\n      sub\n      swap1\n      return\n        /* \"contracts/cropsFarmer.sol\":2760:2936  function blackListWallet(address Wallet, bool isBlacklisted) public{... */\n    tag_65:\n      callvalue\n      dup1\n      iszero\n      tag_361\n      jumpi\n      0x00\n      dup1\n      revert\n    tag_361:\n      pop\n      tag_362\n      0x04\n      dup1\n      calldatasize\n      sub\n      dup2\n      add\n      swap1\n      tag_363\n      swap2\n      swap1\n      tag_364\n      jump\t// in\n    tag_363:\n      tag_365\n      jump\t// in\n    tag_362:\n      stop\n        /* \"contracts/cropsFarmer.sol\":11207:11300  function getTimeStamp() public view returns (uint256) {... */\n    tag_66:\n      callvalue\n      dup1\n      iszero\n      tag_366\n      jumpi\n      0x00\n      dup1\n      revert\n    tag_366:\n      pop\n      tag_367\n      tag_368\n      jump\t// in\n    tag_367:\n      mload(0x40)\n      tag_369\n      swap2\n      swap1\n      tag_92\n      jump\t// in\n    tag_369:\n      mload(0x40)\n      dup1\n      swap2\n      sub\n      swap1\n      return\n        /* \"contracts/cropsFarmer.sol\":3404:3726  function startFarm(address addr) public payable{... */\n    tag_67:\n      tag_370\n      0x04\n      dup1\n      calldatasize\n      sub\n      dup2\n      add\n      swap1\n      tag_371\n      swap2\n      swap1\n      tag_151\n      jump\t// in\n    tag_371:\n      tag_372\n      jump\t// in\n    tag_370:\n      stop\n        /* \"contracts/cropsFarmer.sol\":15341:15576  function PRC_EGGS_TO_HIRE_1MINERS(uint256 value) external {... */\n    tag_68:\n      callvalue\n      dup1\n      iszero\n      tag_373\n      jumpi\n      0x00\n      dup1\n      revert\n    tag_373:\n      pop\n      tag_374\n      0x04\n      dup1\n      calldatasize\n      sub\n      dup2\n      add\n      swap1\n      tag_375\n      swap2\n      swap1\n      tag_126\n      jump\t// in\n    tag_375:\n      tag_376\n      jump\t// in\n    tag_374:\n      stop\n        /* \"contracts/cropsFarmer.sol\":17804:18014  function SET_COMPOUND_FOR_NO_TAX_WITHDRAWAL(uint256 value) external {... */\n    tag_69:\n      callvalue\n      dup1\n      iszero\n      tag_377\n      jumpi\n      0x00\n      dup1\n      revert\n    tag_377:\n      pop\n      tag_378\n      0x04\n      dup1\n      calldatasize\n      sub\n      dup2\n      add\n      swap1\n      tag_379\n      swap2\n      swap1\n      tag_126\n      jump\t// in\n    tag_379:\n      tag_380\n      jump\t// in\n    tag_378:\n      stop\n        /* \"contracts/cropsFarmer.sol\":2942:3204  function blackMultipleWallets(address[] calldata Wallet, bool isBlacklisted) public{... */\n    tag_70:\n      callvalue\n      dup1\n      iszero\n      tag_381\n      jumpi\n      0x00\n      dup1\n      revert\n    tag_381:\n      pop\n      tag_382\n      0x04\n      dup1\n      calldatasize\n      sub\n      dup2\n      add\n      swap1\n      tag_383\n      swap2\n      swap1\n      tag_384\n      jump\t// in\n    tag_383:\n      tag_385\n      jump\t// in\n    tag_382:\n      stop\n        /* \"contracts/cropsFarmer.sol\":685:735  uint256 public COMPOUND_FOR_NO_TAX_WITHDRAWAL = 10 */\n    tag_71:\n      callvalue\n      dup1\n      iszero\n      tag_386\n      jumpi\n      0x00\n      dup1\n      revert\n    tag_386:\n      pop\n      tag_387\n      tag_388\n      jump\t// in\n    tag_387:\n      mload(0x40)\n      tag_389\n      swap2\n      swap1\n      tag_92\n      jump\t// in\n    tag_389:\n      mload(0x40)\n      dup1\n      swap2\n      sub\n      swap1\n      return\n        /* \"contracts/cropsFarmer.sol\":1066:1109  mapping(address => bool) public Blacklisted */\n    tag_72:\n      callvalue\n      dup1\n      iszero\n      tag_390\n      jumpi\n      0x00\n      dup1\n      revert\n    tag_390:\n      pop\n      tag_391\n      0x04\n      dup1\n      calldatasize\n      sub\n      dup2\n      add\n      swap1\n      tag_392\n      swap2\n      swap1\n      tag_151\n      jump\t// in\n    tag_392:\n      tag_393\n      jump\t// in\n    tag_391:\n      mload(0x40)\n      tag_394\n      swap2\n      swap1\n      tag_165\n      jump\t// in\n    tag_394:\n      mload(0x40)\n      dup1\n      swap2\n      sub\n      swap1\n      return\n        /* \"contracts/cropsFarmer.sol\":224:262  uint256 public PERCENTS_DIVIDER = 1000 */\n    tag_90:\n      sload(0x02)\n      dup2\n      jump\t// out\n        /* \"contracts/cropsFarmer.sol\":639:674  uint256 public WITHDRAWAL_TAX = 350 */\n    tag_95:\n      sload(0x0b)\n      dup2\n      jump\t// out\n        /* \"contracts/cropsFarmer.sol\":1355:1384  address payable public prtnr1 */\n    tag_99:\n      0x1d\n      0x00\n      swap1\n      sload\n      swap1\n      0x0100\n      exp\n      swap1\n      div\n      0xffffffffffffffffffffffffffffffffffffffff\n      and\n      dup2\n      jump\t// out\n        /* \"contracts/cropsFarmer.sol\":13349:13448  function getMyMiners() public view returns(uint256){... */\n    tag_104:\n        /* \"contracts/cropsFarmer.sol\":13392:13399  uint256 */\n      0x00\n        /* \"contracts/cropsFarmer.sol\":13417:13422  users */\n      0x20\n        /* \"contracts/cropsFarmer.sol\":13417:13434  users[msg.sender] */\n      0x00\n        /* \"contracts/cropsFarmer.sol\":13423:13433  msg.sender */\n      caller\n        /* \"contracts/cropsFarmer.sol\":13417:13434  users[msg.sender] */\n      0xffffffffffffffffffffffffffffffffffffffff\n      and\n      0xffffffffffffffffffffffffffffffffffffffff\n      and\n      dup2\n      mstore\n      0x20\n      add\n      swap1\n      dup2\n      mstore\n      0x20\n      add\n      0x00\n      keccak256\n        /* \"contracts/cropsFarmer.sol\":13417:13441  users[msg.sender].miners */\n      0x02\n      add\n      sload\n        /* \"contracts/cropsFarmer.sol\":13410:13441  return users[msg.sender].miners */\n      swap1\n      pop\n        /* \"contracts/cropsFarmer.sol\":13349:13448  function getMyMiners() public view returns(uint256){... */\n      swap1\n      jump\t// out\n        /* \"contracts/cropsFarmer.sol\":11106:11201  function getBalance() public view returns(uint256){... */\n    tag_108:\n        /* \"contracts/cropsFarmer.sol\":11148:11155  uint256 */\n      0x00\n        /* \"contracts/cropsFarmer.sol\":11173:11194  address(this).balance */\n      selfbalance\n        /* \"contracts/cropsFarmer.sol\":11166:11194  return address(this).balance */\n      swap1\n      pop\n        /* \"contracts/cropsFarmer.sol\":11106:11201  function getBalance() public view returns(uint256){... */\n      swap1\n      jump\t// out\n        /* \"contracts/cropsFarmer.sol\":435:482  uint256 public WALLET_DEPOSIT_LIMIT = 25 * 1e18 */\n    tag_112:\n      sload(0x07)\n      dup2\n      jump\t// out\n        /* \"contracts/cropsFarmer.sol\":3825:5079  function hireMoreFarmers(bool isCompound) public {... */\n    tag_118:\n        /* \"contracts/cropsFarmer.sol\":3884:3901  User storage user */\n      0x00\n        /* \"contracts/cropsFarmer.sol\":3904:3909  users */\n      0x20\n        /* \"contracts/cropsFarmer.sol\":3904:3921  users[msg.sender] */\n      0x00\n        /* \"contracts/cropsFarmer.sol\":3910:3920  msg.sender */\n      caller\n        /* \"contracts/cropsFarmer.sol\":3904:3921  users[msg.sender] */\n      0xffffffffffffffffffffffffffffffffffffffff\n      and\n      0xffffffffffffffffffffffffffffffffffffffff\n      and\n      dup2\n      mstore\n      0x20\n      add\n      swap1\n      dup2\n      mstore\n      0x20\n      add\n      0x00\n      keccak256\n        /* \"contracts/cropsFarmer.sol\":3884:3921  User storage user = users[msg.sender] */\n      swap1\n      pop\n        /* \"contracts/cropsFarmer.sol\":3939:3954  contractStarted */\n      0x15\n      0x00\n      swap1\n      sload\n      swap1\n      0x0100\n      exp\n      swap1\n      div\n      0xff\n      and\n        /* \"contracts/cropsFarmer.sol\":3931:3984  require(contractStarted, \"Contract not yet Started.\") */\n      tag_398\n      jumpi\n      mload(0x40)\n      0x08c379a000000000000000000000000000000000000000000000000000000000\n      dup2\n      mstore\n      0x04\n      add\n      tag_399\n      swap1\n      tag_400\n      jump\t// in\n    tag_399:\n      mload(0x40)\n      dup1\n      swap2\n      sub\n      swap1\n      revert\n    tag_398:\n        /* \"contracts/cropsFarmer.sol\":3995:4011  uint256 eggsUsed */\n      0x00\n        /* \"contracts/cropsFarmer.sol\":4014:4025  getMyEggs() */\n      tag_401\n        /* \"contracts/cropsFarmer.sol\":4014:4023  getMyEggs */\n      tag_172\n        /* \"contracts/cropsFarmer.sol\":4014:4025  getMyEggs() */\n      jump\t// in\n    tag_401:\n        /* \"contracts/cropsFarmer.sol\":3995:4025  uint256 eggsUsed = getMyEggs() */\n      swap1\n      pop\n        /* \"contracts/cropsFarmer.sol\":4035:4058  uint256 eggsForCompound */\n      0x00\n        /* \"contracts/cropsFarmer.sol\":4061:4069  eggsUsed */\n      dup2\n        /* \"contracts/cropsFarmer.sol\":4035:4069  uint256 eggsForCompound = eggsUsed */\n      swap1\n      pop\n        /* \"contracts/cropsFarmer.sol\":4083:4093  isCompound */\n      dup4\n        /* \"contracts/cropsFarmer.sol\":4080:4471  if(isCompound) {... */\n      iszero\n      tag_402\n      jumpi\n        /* \"contracts/cropsFarmer.sol\":4109:4135  uint256 dailyCompoundBonus */\n      0x00\n        /* \"contracts/cropsFarmer.sol\":4138:4188  getDailyCompoundBonus(msg.sender, eggsForCompound) */\n      tag_403\n        /* \"contracts/cropsFarmer.sol\":4160:4170  msg.sender */\n      caller\n        /* \"contracts/cropsFarmer.sol\":4172:4187  eggsForCompound */\n      dup4\n        /* \"contracts/cropsFarmer.sol\":4138:4159  getDailyCompoundBonus */\n      tag_195\n        /* \"contracts/cropsFarmer.sol\":4138:4188  getDailyCompoundBonus(msg.sender, eggsForCompound) */\n      jump\t// in\n    tag_403:\n        /* \"contracts/cropsFarmer.sol\":4109:4188  uint256 dailyCompoundBonus = getDailyCompoundBonus(msg.sender, eggsForCompound) */\n      swap1\n      pop\n        /* \"contracts/cropsFarmer.sol\":4220:4259  eggsForCompound.add(dailyCompoundBonus) */\n      tag_404\n        /* \"contracts/cropsFarmer.sol\":4240:4258  dailyCompoundBonus */\n      dup2\n        /* \"contracts/cropsFarmer.sol\":4220:4235  eggsForCompound */\n      dup4\n        /* \"contracts/cropsFarmer.sol\":4220:4239  eggsForCompound.add */\n      tag_405\n      swap1\n        /* \"contracts/cropsFarmer.sol\":4220:4259  eggsForCompound.add(dailyCompoundBonus) */\n      swap2\n      swap1\n      0xffffffff\n      and\n      jump\t// in\n    tag_404:\n        /* \"contracts/cropsFarmer.sol\":4202:4259  eggsForCompound = eggsForCompound.add(dailyCompoundBonus) */\n      swap2\n      pop\n        /* \"contracts/cropsFarmer.sol\":4273:4294  uint256 eggsUsedValue */\n      0x00\n        /* \"contracts/cropsFarmer.sol\":4297:4330  calculateEggSell(eggsForCompound) */\n      tag_406\n        /* \"contracts/cropsFarmer.sol\":4314:4329  eggsForCompound */\n      dup4\n        /* \"contracts/cropsFarmer.sol\":4297:4313  calculateEggSell */\n      tag_287\n        /* \"contracts/cropsFarmer.sol\":4297:4330  calculateEggSell(eggsForCompound) */\n      jump\t// in\n    tag_406:\n        /* \"contracts/cropsFarmer.sol\":4273:4330  uint256 eggsUsedValue = calculateEggSell(eggsForCompound) */\n      swap1\n      pop\n        /* \"contracts/cropsFarmer.sol\":4363:4398  user.userDeposit.add(eggsUsedValue) */\n      tag_407\n        /* \"contracts/cropsFarmer.sol\":4384:4397  eggsUsedValue */\n      dup2\n        /* \"contracts/cropsFarmer.sol\":4363:4367  user */\n      dup7\n        /* \"contracts/cropsFarmer.sol\":4363:4379  user.userDeposit */\n      0x01\n      add\n      sload\n        /* \"contracts/cropsFarmer.sol\":4363:4383  user.userDeposit.add */\n      tag_405\n      swap1\n        /* \"contracts/cropsFarmer.sol\":4363:4398  user.userDeposit.add(eggsUsedValue) */\n      swap2\n      swap1\n      0xffffffff\n      and\n      jump\t// in\n    tag_407:\n        /* \"contracts/cropsFarmer.sol\":4344:4348  user */\n      dup6\n        /* \"contracts/cropsFarmer.sol\":4344:4360  user.userDeposit */\n      0x01\n      add\n        /* \"contracts/cropsFarmer.sol\":4344:4398  user.userDeposit = user.userDeposit.add(eggsUsedValue) */\n      dup2\n      swap1\n      sstore\n      pop\n        /* \"contracts/cropsFarmer.sol\":4428:4460  totalCompound.add(eggsUsedValue) */\n      tag_408\n        /* \"contracts/cropsFarmer.sol\":4446:4459  eggsUsedValue */\n      dup2\n        /* \"contracts/cropsFarmer.sol\":4428:4441  totalCompound */\n      sload(0x0f)\n        /* \"contracts/cropsFarmer.sol\":4428:4445  totalCompound.add */\n      tag_405\n      swap1\n        /* \"contracts/cropsFarmer.sol\":4428:4460  totalCompound.add(eggsUsedValue) */\n      swap2\n      swap1\n      0xffffffff\n      and\n      jump\t// in\n    tag_408:\n        /* \"contracts/cropsFarmer.sol\":4412:4425  totalCompound */\n      0x0f\n        /* \"contracts/cropsFarmer.sol\":4412:4460  totalCompound = totalCompound.add(eggsUsedValue) */\n      dup2\n      swap1\n      sstore\n      pop\n        /* \"contracts/cropsFarmer.sol\":4095:4471  {... */\n      pop\n      pop\n        /* \"contracts/cropsFarmer.sol\":4080:4471  if(isCompound) {... */\n    tag_402:\n        /* \"contracts/cropsFarmer.sol\":4524:4537  COMPOUND_STEP */\n      sload(0x0a)\n        /* \"contracts/cropsFarmer.sol\":4485:4520  block.timestamp.sub(user.lastHatch) */\n      tag_409\n        /* \"contracts/cropsFarmer.sol\":4505:4509  user */\n      dup5\n        /* \"contracts/cropsFarmer.sol\":4505:4519  user.lastHatch */\n      0x04\n      add\n      sload\n        /* \"contracts/cropsFarmer.sol\":4485:4500  block.timestamp */\n      timestamp\n        /* \"contracts/cropsFarmer.sol\":4485:4504  block.timestamp.sub */\n      tag_410\n      swap1\n        /* \"contracts/cropsFarmer.sol\":4485:4520  block.timestamp.sub(user.lastHatch) */\n      swap2\n      swap1\n      0xffffffff\n      and\n      jump\t// in\n    tag_409:\n        /* \"contracts/cropsFarmer.sol\":4485:4537  block.timestamp.sub(user.lastHatch) >= COMPOUND_STEP */\n      lt\n        /* \"contracts/cropsFarmer.sol\":4482:4837  if(block.timestamp.sub(user.lastHatch) >= COMPOUND_STEP) {... */\n      tag_411\n      jumpi\n        /* \"contracts/cropsFarmer.sol\":4582:4606  COMPOUND_BONUS_MAX_TIMES */\n      sload(0x09)\n        /* \"contracts/cropsFarmer.sol\":4556:4560  user */\n      dup4\n        /* \"contracts/cropsFarmer.sol\":4556:4579  user.dailyCompoundBonus */\n      0x09\n      add\n      sload\n        /* \"contracts/cropsFarmer.sol\":4556:4606  user.dailyCompoundBonus < COMPOUND_BONUS_MAX_TIMES */\n      lt\n        /* \"contracts/cropsFarmer.sol\":4553:4697  if(user.dailyCompoundBonus < COMPOUND_BONUS_MAX_TIMES) {... */\n      iszero\n      tag_412\n      jumpi\n        /* \"contracts/cropsFarmer.sol\":4652:4682  user.dailyCompoundBonus.add(1) */\n      tag_413\n        /* \"contracts/cropsFarmer.sol\":4680:4681  1 */\n      0x01\n        /* \"contracts/cropsFarmer.sol\":4652:4656  user */\n      dup5\n        /* \"contracts/cropsFarmer.sol\":4652:4675  user.dailyCompoundBonus */\n      0x09\n      add\n      sload\n        /* \"contracts/cropsFarmer.sol\":4652:4679  user.dailyCompoundBonus.add */\n      tag_405\n      swap1\n        /* \"contracts/cropsFarmer.sol\":4652:4682  user.dailyCompoundBonus.add(1) */\n      swap2\n      swap1\n      0xffffffff\n      and\n      jump\t// in\n    tag_413:\n        /* \"contracts/cropsFarmer.sol\":4626:4630  user */\n      dup4\n        /* \"contracts/cropsFarmer.sol\":4626:4649  user.dailyCompoundBonus */\n      0x09\n      add\n        /* \"contracts/cropsFarmer.sol\":4626:4682  user.dailyCompoundBonus = user.dailyCompoundBonus.add(1) */\n      dup2\n      swap1\n      sstore\n      pop\n        /* \"contracts/cropsFarmer.sol\":4553:4697  if(user.dailyCompoundBonus < COMPOUND_BONUS_MAX_TIMES) {... */\n    tag_412:\n        /* \"contracts/cropsFarmer.sol\":4794:4826  user.farmerCompoundCount .add(1) */\n      tag_414\n        /* \"contracts/cropsFarmer.sol\":4824:4825  1 */\n      0x01\n        /* \"contracts/cropsFarmer.sol\":4794:4798  user */\n      dup5\n        /* \"contracts/cropsFarmer.sol\":4794:4818  user.farmerCompoundCount */\n      0x0a\n      add\n      sload\n        /* \"contracts/cropsFarmer.sol\":4794:4823  user.farmerCompoundCount .add */\n      tag_405\n      swap1\n        /* \"contracts/cropsFarmer.sol\":4794:4826  user.farmerCompoundCount .add(1) */\n      swap2\n      swap1\n      0xffffffff\n      and\n      jump\t// in\n    tag_414:\n        /* \"contracts/cropsFarmer.sol\":4767:4771  user */\n      dup4\n        /* \"contracts/cropsFarmer.sol\":4767:4791  user.farmerCompoundCount */\n      0x0a\n      add\n        /* \"contracts/cropsFarmer.sol\":4767:4826  user.farmerCompoundCount = user.farmerCompoundCount .add(1) */\n      dup2\n      swap1\n      sstore\n      pop\n        /* \"contracts/cropsFarmer.sol\":4482:4837  if(block.timestamp.sub(user.lastHatch) >= COMPOUND_STEP) {... */\n    tag_411:\n        /* \"contracts/cropsFarmer.sol\":4869:4927  user.miners.add(eggsForCompound.div(EGGS_TO_HIRE_1MINERS)) */\n      tag_415\n        /* \"contracts/cropsFarmer.sol\":4885:4926  eggsForCompound.div(EGGS_TO_HIRE_1MINERS) */\n      tag_416\n        /* \"contracts/cropsFarmer.sol\":4905:4925  EGGS_TO_HIRE_1MINERS */\n      sload(0x00)\n        /* \"contracts/cropsFarmer.sol\":4885:4900  eggsForCompound */\n      dup4\n        /* \"contracts/cropsFarmer.sol\":4885:4904  eggsForCompound.div */\n      tag_417\n      swap1\n        /* \"contracts/cropsFarmer.sol\":4885:4926  eggsForCompound.div(EGGS_TO_HIRE_1MINERS) */\n      swap2\n      swap1\n      0xffffffff\n      and\n      jump\t// in\n    tag_416:\n        /* \"contracts/cropsFarmer.sol\":4869:4873  user */\n      dup5\n        /* \"contracts/cropsFarmer.sol\":4869:4880  user.miners */\n      0x02\n      add\n      sload\n        /* \"contracts/cropsFarmer.sol\":4869:4884  user.miners.add */\n      tag_405\n      swap1\n        /* \"contracts/cropsFarmer.sol\":4869:4927  user.miners.add(eggsForCompound.div(EGGS_TO_HIRE_1MINERS)) */\n      swap2\n      swap1\n      0xffffffff\n      and\n      jump\t// in\n    tag_415:\n        /* \"contracts/cropsFarmer.sol\":4855:4859  user */\n      dup4\n        /* \"contracts/cropsFarmer.sol\":4855:4866  user.miners */\n      0x02\n      add\n        /* \"contracts/cropsFarmer.sol\":4855:4927  user.miners = user.miners.add(eggsForCompound.div(EGGS_TO_HIRE_1MINERS)) */\n      dup2\n      swap1\n      sstore\n      pop\n        /* \"contracts/cropsFarmer.sol\":4956:4957  0 */\n      0x00\n        /* \"contracts/cropsFarmer.sol\":4937:4941  user */\n      dup4\n        /* \"contracts/cropsFarmer.sol\":4937:4953  user.claimedEggs */\n      0x03\n      add\n        /* \"contracts/cropsFarmer.sol\":4937:4957  user.claimedEggs = 0 */\n      dup2\n      swap1\n      sstore\n      pop\n        /* \"contracts/cropsFarmer.sol\":4984:4999  block.timestamp */\n      timestamp\n        /* \"contracts/cropsFarmer.sol\":4967:4971  user */\n      dup4\n        /* \"contracts/cropsFarmer.sol\":4967:4981  user.lastHatch */\n      0x04\n      add\n        /* \"contracts/cropsFarmer.sol\":4967:4999  user.lastHatch = block.timestamp */\n      dup2\n      swap1\n      sstore\n      pop\n        /* \"contracts/cropsFarmer.sol\":5023:5072  marketEggs.add(eggsUsed.div(MARKET_EGGS_DIVISOR)) */\n      tag_418\n        /* \"contracts/cropsFarmer.sol\":5038:5071  eggsUsed.div(MARKET_EGGS_DIVISOR) */\n      tag_419\n        /* \"contracts/cropsFarmer.sol\":5051:5070  MARKET_EGGS_DIVISOR */\n      sload(0x05)\n        /* \"contracts/cropsFarmer.sol\":5038:5046  eggsUsed */\n      dup5\n        /* \"contracts/cropsFarmer.sol\":5038:5050  eggsUsed.div */\n      tag_417\n      swap1\n        /* \"contracts/cropsFarmer.sol\":5038:5071  eggsUsed.div(MARKET_EGGS_DIVISOR) */\n      swap2\n      swap1\n      0xffffffff\n      and\n      jump\t// in\n    tag_419:\n        /* \"contracts/cropsFarmer.sol\":5023:5033  marketEggs */\n      sload(0x12)\n        /* \"contracts/cropsFarmer.sol\":5023:5037  marketEggs.add */\n      tag_405\n      swap1\n        /* \"contracts/cropsFarmer.sol\":5023:5072  marketEggs.add(eggsUsed.div(MARKET_EGGS_DIVISOR)) */\n      swap2\n      swap1\n      0xffffffff\n      and\n      jump\t// in\n    tag_418:\n        /* \"contracts/cropsFarmer.sol\":5010:5020  marketEggs */\n      0x12\n        /* \"contracts/cropsFarmer.sol\":5010:5072  marketEggs = marketEggs.add(eggsUsed.div(MARKET_EGGS_DIVISOR)) */\n      dup2\n      swap1\n      sstore\n      pop\n        /* \"contracts/cropsFarmer.sol\":3874:5079  {... */\n      pop\n      pop\n      pop\n        /* \"contracts/cropsFarmer.sol\":3825:5079  function hireMoreFarmers(bool isCompound) public {... */\n      pop\n      jump\t// out\n        /* \"contracts/cropsFarmer.sol\":139:184  uint256 public EGGS_TO_HIRE_1MINERS = 1440000 */\n    tag_121:\n      sload(0x00)\n      dup2\n      jump\t// out\n        /* \"contracts/cropsFarmer.sol\":15744:15900  function PRC_MKT(uint256 value) external {... */\n    tag_127:\n        /* \"contracts/cropsFarmer.sol\":15817:15822  owner */\n      0x19\n      0x00\n      swap1\n      sload\n      swap1\n      0x0100\n      exp\n      swap1\n      div\n      0xffffffffffffffffffffffffffffffffffffffff\n      and\n        /* \"contracts/cropsFarmer.sol\":15803:15822  msg.sender == owner */\n      0xffffffffffffffffffffffffffffffffffffffff\n      and\n        /* \"contracts/cropsFarmer.sol\":15803:15813  msg.sender */\n      caller\n        /* \"contracts/cropsFarmer.sol\":15803:15822  msg.sender == owner */\n      0xffffffffffffffffffffffffffffffffffffffff\n      and\n      eq\n        /* \"contracts/cropsFarmer.sol\":15795:15842  require(msg.sender == owner, \"Admin use only.\") */\n      tag_421\n      jumpi\n      mload(0x40)\n      0x08c379a000000000000000000000000000000000000000000000000000000000\n      dup2\n      mstore\n      0x04\n      add\n      tag_422\n      swap1\n      tag_423\n      jump\t// in\n    tag_422:\n      mload(0x40)\n      dup1\n      swap2\n      sub\n      swap1\n      revert\n    tag_421:\n        /* \"contracts/cropsFarmer.sol\":15869:15871  20 */\n      0x14\n        /* \"contracts/cropsFarmer.sol\":15860:15865  value */\n      dup2\n        /* \"contracts/cropsFarmer.sol\":15860:15871  value <= 20 */\n      gt\n      iszero\n        /* \"contracts/cropsFarmer.sol\":15852:15872  require(value <= 20) */\n      tag_424\n      jumpi\n      0x00\n      dup1\n      revert\n    tag_424:\n        /* \"contracts/cropsFarmer.sol\":15888:15893  value */\n      dup1\n        /* \"contracts/cropsFarmer.sol\":15882:15885  MKT */\n      0x04\n        /* \"contracts/cropsFarmer.sol\":15882:15893  MKT = value */\n      dup2\n      swap1\n      sstore\n      pop\n        /* \"contracts/cropsFarmer.sol\":15744:15900  function PRC_MKT(uint256 value) external {... */\n      pop\n      jump\t// out\n        /* \"contracts/cropsFarmer.sol\":11520:11968  function calculateTrade(uint256 rt,uint256 rs, uint256 bs) public view returns(uint256){... */\n    tag_132:\n        /* \"contracts/cropsFarmer.sol\":11599:11606  uint256 */\n      0x00\n        /* \"contracts/cropsFarmer.sol\":11624:11961  SafeMath.div(... */\n      tag_426\n        /* \"contracts/cropsFarmer.sol\":11654:11675  SafeMath.mul(PSN, bs) */\n      tag_427\n        /* \"contracts/cropsFarmer.sol\":11667:11670  PSN */\n      sload(0x13)\n        /* \"contracts/cropsFarmer.sol\":11672:11674  bs */\n      dup5\n        /* \"contracts/cropsFarmer.sol\":11654:11666  SafeMath.mul */\n      tag_428\n        /* \"contracts/cropsFarmer.sol\":11654:11675  SafeMath.mul(PSN, bs) */\n      jump\t// in\n    tag_427:\n        /* \"contracts/cropsFarmer.sol\":11698:11960  SafeMath.add(PSNH, ... */\n      tag_429\n        /* \"contracts/cropsFarmer.sol\":11711:11715  PSNH */\n      sload(0x14)\n        /* \"contracts/cropsFarmer.sol\":11742:11959  SafeMath.div(... */\n      tag_430\n        /* \"contracts/cropsFarmer.sol\":11784:11913  SafeMath.add(... */\n      tag_431\n        /* \"contracts/cropsFarmer.sol\":11830:11851  SafeMath.mul(PSN, rs) */\n      tag_432\n        /* \"contracts/cropsFarmer.sol\":11843:11846  PSN */\n      sload(0x13)\n        /* \"contracts/cropsFarmer.sol\":11848:11850  rs */\n      dup11\n        /* \"contracts/cropsFarmer.sol\":11830:11842  SafeMath.mul */\n      tag_428\n        /* \"contracts/cropsFarmer.sol\":11830:11851  SafeMath.mul(PSN, rs) */\n      jump\t// in\n    tag_432:\n        /* \"contracts/cropsFarmer.sol\":11890:11912  SafeMath.mul(PSNH, rt) */\n      tag_433\n        /* \"contracts/cropsFarmer.sol\":11903:11907  PSNH */\n      sload(0x14)\n        /* \"contracts/cropsFarmer.sol\":11909:11911  rt */\n      dup13\n        /* \"contracts/cropsFarmer.sol\":11890:11902  SafeMath.mul */\n      tag_428\n        /* \"contracts/cropsFarmer.sol\":11890:11912  SafeMath.mul(PSNH, rt) */\n      jump\t// in\n    tag_433:\n        /* \"contracts/cropsFarmer.sol\":11784:11796  SafeMath.add */\n      tag_405\n        /* \"contracts/cropsFarmer.sol\":11784:11913  SafeMath.add(... */\n      jump\t// in\n    tag_431:\n        /* \"contracts/cropsFarmer.sol\":11956:11958  rt */\n      dup10\n        /* \"contracts/cropsFarmer.sol\":11742:11754  SafeMath.div */\n      tag_417\n        /* \"contracts/cropsFarmer.sol\":11742:11959  SafeMath.div(... */\n      jump\t// in\n    tag_430:\n        /* \"contracts/cropsFarmer.sol\":11698:11710  SafeMath.add */\n      tag_405\n        /* \"contracts/cropsFarmer.sol\":11698:11960  SafeMath.add(PSNH, ... */\n      jump\t// in\n    tag_429:\n        /* \"contracts/cropsFarmer.sol\":11624:11636  SafeMath.div */\n      tag_417\n        /* \"contracts/cropsFarmer.sol\":11624:11961  SafeMath.div(... */\n      jump\t// in\n    tag_426:\n        /* \"contracts/cropsFarmer.sol\":11617:11961  return SafeMath.div(... */\n      swap1\n      pop\n        /* \"contracts/cropsFarmer.sol\":11520:11968  function calculateTrade(uint256 rt,uint256 rs, uint256 bs) public view returns(uint256){... */\n      swap4\n      swap3\n      pop\n      pop\n      pop\n      jump\t// out\n        /* \"contracts/cropsFarmer.sol\":1322:1349  address payable public dev3 */\n    tag_136:\n      0x1c\n      0x00\n      swap1\n      sload\n      swap1\n      0x0100\n      exp\n      swap1\n      div\n      0xffffffffffffffffffffffffffffffffffffffff\n      and\n      dup2\n      jump\t// out\n        /* \"contracts/cropsFarmer.sol\":12118:12280  function calculateEggBuy(uint256 eth,uint256 contractBalance) public view returns(uint256){... */\n    tag_142:\n        /* \"contracts/cropsFarmer.sol\":12200:12207  uint256 */\n      0x00\n        /* \"contracts/cropsFarmer.sol\":12225:12273  calculateTrade(eth, contractBalance, marketEggs) */\n      tag_435\n        /* \"contracts/cropsFarmer.sol\":12240:12243  eth */\n      dup4\n        /* \"contracts/cropsFarmer.sol\":12245:12260  contractBalance */\n      dup4\n        /* \"contracts/cropsFarmer.sol\":12262:12272  marketEggs */\n      sload(0x12)\n        /* \"contracts/cropsFarmer.sol\":12225:12239  calculateTrade */\n      tag_132\n        /* \"contracts/cropsFarmer.sol\":12225:12273  calculateTrade(eth, contractBalance, marketEggs) */\n      jump\t// in\n    tag_435:\n        /* \"contracts/cropsFarmer.sol\":12218:12273  return calculateTrade(eth, contractBalance, marketEggs) */\n      swap1\n      pop\n        /* \"contracts/cropsFarmer.sol\":12118:12280  function calculateEggBuy(uint256 eth,uint256 contractBalance) public view returns(uint256){... */\n      swap3\n      swap2\n      pop\n      pop\n      jump\t// out\n        /* \"contracts/cropsFarmer.sol\":15582:15738  function PRC_TAX(uint256 value) external {... */\n    tag_147:\n        /* \"contracts/cropsFarmer.sol\":15655:15660  owner */\n      0x19\n      0x00\n      swap1\n      sload\n      swap1\n      0x0100\n      exp\n      swap1\n      div\n      0xffffffffffffffffffffffffffffffffffffffff\n      and\n        /* \"contracts/cropsFarmer.sol\":15641:15660  msg.sender == owner */\n      0xffffffffffffffffffffffffffffffffffffffff\n      and\n        /* \"contracts/cropsFarmer.sol\":15641:15651  msg.sender */\n      caller\n        /* \"contracts/cropsFarmer.sol\":15641:15660  msg.sender == owner */\n      0xffffffffffffffffffffffffffffffffffffffff\n      and\n      eq\n        /* \"contracts/cropsFarmer.sol\":15633:15680  require(msg.sender == owner, \"Admin use only.\") */\n      tag_437\n      jumpi\n      mload(0x40)\n      0x08c379a000000000000000000000000000000000000000000000000000000000\n      dup2\n      mstore\n      0x04\n      add\n      tag_438\n      swap1\n      tag_423\n      jump\t// in\n    tag_438:\n      mload(0x40)\n      dup1\n      swap2\n      sub\n      swap1\n      revert\n    tag_437:\n        /* \"contracts/cropsFarmer.sol\":15707:15709  15 */\n      0x0f\n        /* \"contracts/cropsFarmer.sol\":15698:15703  value */\n      dup2\n        /* \"contracts/cropsFarmer.sol\":15698:15709  value <= 15 */\n      gt\n      iszero\n        /* \"contracts/cropsFarmer.sol\":15690:15710  require(value <= 15) */\n      tag_439\n      jumpi\n      0x00\n      dup1\n      revert\n    tag_439:\n        /* \"contracts/cropsFarmer.sol\":15726:15731  value */\n      dup1\n        /* \"contracts/cropsFarmer.sol\":15720:15723  TAX */\n      0x03\n        /* \"contracts/cropsFarmer.sol\":15720:15731  TAX = value */\n      dup2\n      swap1\n      sstore\n      pop\n        /* \"contracts/cropsFarmer.sol\":15582:15738  function PRC_TAX(uint256 value) external {... */\n      pop\n      jump\t// out\n        /* \"contracts/cropsFarmer.sol\":14122:14259  function CHANGE_OWNERSHIP(address value) external {... */\n    tag_152:\n        /* \"contracts/cropsFarmer.sol\":14204:14209  owner */\n      0x19\n      0x00\n      swap1\n      sload\n      swap1\n      0x0100\n      exp\n      swap1\n      div\n      0xffffffffffffffffffffffffffffffffffffffff\n      and\n        /* \"contracts/cropsFarmer.sol\":14190:14209  msg.sender == owner */\n      0xffffffffffffffffffffffffffffffffffffffff\n      and\n        /* \"contracts/cropsFarmer.sol\":14190:14200  msg.sender */\n      caller\n        /* \"contracts/cropsFarmer.sol\":14190:14209  msg.sender == owner */\n      0xffffffffffffffffffffffffffffffffffffffff\n      and\n      eq\n        /* \"contracts/cropsFarmer.sol\":14182:14229  require(msg.sender == owner, \"Admin use only.\") */\n      tag_441\n      jumpi\n      mload(0x40)\n      0x08c379a000000000000000000000000000000000000000000000000000000000\n      dup2\n      mstore\n      0x04\n      add\n      tag_442\n      swap1\n      tag_423\n      jump\t// in\n    tag_442:\n      mload(0x40)\n      dup1\n      swap2\n      sub\n      swap1\n      revert\n    tag_441:\n        /* \"contracts/cropsFarmer.sol\":14247:14252  value */\n      dup1\n        /* \"contracts/cropsFarmer.sol\":14239:14244  owner */\n      0x19\n      0x00\n        /* \"contracts/cropsFarmer.sol\":14239:14252  owner = value */\n      0x0100\n      exp\n      dup2\n      sload\n      dup2\n      0xffffffffffffffffffffffffffffffffffffffff\n      mul\n      not\n      and\n      swap1\n      dup4\n      0xffffffffffffffffffffffffffffffffffffffff\n      and\n      mul\n      or\n      swap1\n      sstore\n      pop\n        /* \"contracts/cropsFarmer.sol\":14122:14259  function CHANGE_OWNERSHIP(address value) external {... */\n      pop\n      jump\t// out\n        /* \"contracts/cropsFarmer.sol\":296:319  uint256 public MKT = 12 */\n    tag_155:\n      sload(0x04)\n      dup2\n      jump\t// out\n        /* \"contracts/cropsFarmer.sol\":912:937  uint256 public marketEggs */\n    tag_159:\n      sload(0x12)\n      dup2\n      jump\t// out\n        /* \"contracts/cropsFarmer.sol\":993:1020  bool public contractStarted */\n    tag_163:\n      0x15\n      0x00\n      swap1\n      sload\n      swap1\n      0x0100\n      exp\n      swap1\n      div\n      0xff\n      and\n      dup2\n      jump\t// out\n        /* \"contracts/cropsFarmer.sol\":1113:1154  uint256 public CUTOFF_STEP = 48 * 60 * 60 */\n    tag_168:\n      sload(0x17)\n      dup2\n      jump\t// out\n        /* \"contracts/cropsFarmer.sol\":13454:13595  function getMyEggs() public view returns(uint256){... */\n    tag_172:\n        /* \"contracts/cropsFarmer.sol\":13495:13502  uint256 */\n      0x00\n        /* \"contracts/cropsFarmer.sol\":13520:13588  users[msg.sender].claimedEggs.add(getEggsSinceLastHatch(msg.sender)) */\n      tag_444\n        /* \"contracts/cropsFarmer.sol\":13554:13587  getEggsSinceLastHatch(msg.sender) */\n      tag_445\n        /* \"contracts/cropsFarmer.sol\":13576:13586  msg.sender */\n      caller\n        /* \"contracts/cropsFarmer.sol\":13554:13575  getEggsSinceLastHatch */\n      tag_359\n        /* \"contracts/cropsFarmer.sol\":13554:13587  getEggsSinceLastHatch(msg.sender) */\n      jump\t// in\n    tag_445:\n        /* \"contracts/cropsFarmer.sol\":13520:13525  users */\n      0x20\n        /* \"contracts/cropsFarmer.sol\":13520:13537  users[msg.sender] */\n      0x00\n        /* \"contracts/cropsFarmer.sol\":13526:13536  msg.sender */\n      caller\n        /* \"contracts/cropsFarmer.sol\":13520:13537  users[msg.sender] */\n      0xffffffffffffffffffffffffffffffffffffffff\n      and\n      0xffffffffffffffffffffffffffffffffffffffff\n      and\n      dup2\n      mstore\n      0x20\n      add\n      swap1\n      dup2\n      mstore\n      0x20\n      add\n      0x00\n      keccak256\n        /* \"contracts/cropsFarmer.sol\":13520:13549  users[msg.sender].claimedEggs */\n      0x03\n      add\n      sload\n        /* \"contracts/cropsFarmer.sol\":13520:13553  users[msg.sender].claimedEggs.add */\n      tag_405\n      swap1\n        /* \"contracts/cropsFarmer.sol\":13520:13588  users[msg.sender].claimedEggs.add(getEggsSinceLastHatch(msg.sender)) */\n      swap2\n      swap1\n      0xffffffff\n      and\n      jump\t// in\n    tag_444:\n        /* \"contracts/cropsFarmer.sol\":13513:13588  return users[msg.sender].claimedEggs.add(getEggsSinceLastHatch(msg.sender)) */\n      swap1\n      pop\n        /* \"contracts/cropsFarmer.sol\":13454:13595  function getMyEggs() public view returns(uint256){... */\n      swap1\n      jump\t// out\n        /* \"contracts/cropsFarmer.sol\":17396:17589  function SET_WITHDRAW_COOLDOWN(uint256 value) external {... */\n    tag_177:\n        /* \"contracts/cropsFarmer.sol\":17483:17488  owner */\n      0x19\n      0x00\n      swap1\n      sload\n      swap1\n      0x0100\n      exp\n      swap1\n      div\n      0xffffffffffffffffffffffffffffffffffffffff\n      and\n        /* \"contracts/cropsFarmer.sol\":17469:17488  msg.sender == owner */\n      0xffffffffffffffffffffffffffffffffffffffff\n      and\n        /* \"contracts/cropsFarmer.sol\":17469:17479  msg.sender */\n      caller\n        /* \"contracts/cropsFarmer.sol\":17469:17488  msg.sender == owner */\n      0xffffffffffffffffffffffffffffffffffffffff\n      and\n      eq\n        /* \"contracts/cropsFarmer.sol\":17461:17507  require(msg.sender == owner, \"Admin use only\") */\n      tag_447\n      jumpi\n      mload(0x40)\n      0x08c379a000000000000000000000000000000000000000000000000000000000\n      dup2\n      mstore\n      0x04\n      add\n      tag_448\n      swap1\n      tag_449\n      jump\t// in\n    tag_448:\n      mload(0x40)\n      dup1\n      swap2\n      sub\n      swap1\n      revert\n    tag_447:\n        /* \"contracts/cropsFarmer.sol\":17534:17536  24 */\n      0x18\n        /* \"contracts/cropsFarmer.sol\":17525:17530  value */\n      dup2\n        /* \"contracts/cropsFarmer.sol\":17525:17536  value <= 24 */\n      gt\n      iszero\n        /* \"contracts/cropsFarmer.sol\":17517:17537  require(value <= 24) */\n      tag_450\n      jumpi\n      0x00\n      dup1\n      revert\n    tag_450:\n        /* \"contracts/cropsFarmer.sol\":17580:17582  60 */\n      0x3c\n        /* \"contracts/cropsFarmer.sol\":17575:17577  60 */\n      dup1\n        /* \"contracts/cropsFarmer.sol\":17567:17572  value */\n      dup3\n        /* \"contracts/cropsFarmer.sol\":17567:17577  value * 60 */\n      tag_451\n      swap2\n      swap1\n      tag_452\n      jump\t// in\n    tag_451:\n        /* \"contracts/cropsFarmer.sol\":17567:17582  value * 60 * 60 */\n      tag_453\n      swap2\n      swap1\n      tag_452\n      jump\t// in\n    tag_453:\n        /* \"contracts/cropsFarmer.sol\":17547:17564  WITHDRAW_COOLDOWN */\n      0x18\n        /* \"contracts/cropsFarmer.sol\":17547:17582  WITHDRAW_COOLDOWN = value * 60 * 60 */\n      dup2\n      swap1\n      sstore\n      pop\n        /* \"contracts/cropsFarmer.sol\":17396:17589  function SET_WITHDRAW_COOLDOWN(uint256 value) external {... */\n      pop\n      jump\t// out\n        /* \"contracts/cropsFarmer.sol\":17081:17233  function SET_INVEST_MIN(uint256 value) external {... */\n    tag_181:\n        /* \"contracts/cropsFarmer.sol\":17161:17166  owner */\n      0x19\n      0x00\n      swap1\n      sload\n      swap1\n      0x0100\n      exp\n      swap1\n      div\n      0xffffffffffffffffffffffffffffffffffffffff\n      and\n        /* \"contracts/cropsFarmer.sol\":17147:17166  msg.sender == owner */\n      0xffffffffffffffffffffffffffffffffffffffff\n      and\n        /* \"contracts/cropsFarmer.sol\":17147:17157  msg.sender */\n      caller\n        /* \"contracts/cropsFarmer.sol\":17147:17166  msg.sender == owner */\n      0xffffffffffffffffffffffffffffffffffffffff\n      and\n      eq\n        /* \"contracts/cropsFarmer.sol\":17139:17185  require(msg.sender == owner, \"Admin use only\") */\n      tag_455\n      jumpi\n      mload(0x40)\n      0x08c379a000000000000000000000000000000000000000000000000000000000\n      dup2\n      mstore\n      0x04\n      add\n      tag_456\n      swap1\n      tag_449\n      jump\t// in\n    tag_456:\n      mload(0x40)\n      dup1\n      swap2\n      sub\n      swap1\n      revert\n    tag_455:\n        /* \"contracts/cropsFarmer.sol\":17222:17226  1e17 */\n      0x016345785d8a0000\n        /* \"contracts/cropsFarmer.sol\":17214:17219  value */\n      dup2\n        /* \"contracts/cropsFarmer.sol\":17214:17226  value * 1e17 */\n      tag_457\n      swap2\n      swap1\n      tag_452\n      jump\t// in\n    tag_457:\n        /* \"contracts/cropsFarmer.sol\":17195:17211  MIN_INVEST_LIMIT */\n      0x06\n        /* \"contracts/cropsFarmer.sol\":17195:17226  MIN_INVEST_LIMIT = value * 1e17 */\n      dup2\n      swap1\n      sstore\n      pop\n        /* \"contracts/cropsFarmer.sol\":17081:17233  function SET_INVEST_MIN(uint256 value) external {... */\n      pop\n      jump\t// out\n        /* \"contracts/cropsFarmer.sol\":876:905  uint256 public totalWithdrawn */\n    tag_184:\n      sload(0x11)\n      dup2\n      jump\t// out\n        /* \"contracts/cropsFarmer.sol\":13123:13343  function getSiteInfo() public view returns (uint256 _totalStaked, uint256 _totalDeposits, uint256 _totalCompound, uint256 _totalRefBonus) {... */\n    tag_188:\n        /* \"contracts/cropsFarmer.sol\":13167:13187  uint256 _totalStaked */\n      0x00\n        /* \"contracts/cropsFarmer.sol\":13189:13211  uint256 _totalDeposits */\n      dup1\n        /* \"contracts/cropsFarmer.sol\":13213:13235  uint256 _totalCompound */\n      0x00\n        /* \"contracts/cropsFarmer.sol\":13237:13259  uint256 _totalRefBonus */\n      dup1\n        /* \"contracts/cropsFarmer.sol\":13279:13290  totalStaked */\n      sload(0x0d)\n        /* \"contracts/cropsFarmer.sol\":13292:13305  totalDeposits */\n      sload(0x0e)\n        /* \"contracts/cropsFarmer.sol\":13307:13320  totalCompound */\n      sload(0x0f)\n        /* \"contracts/cropsFarmer.sol\":13322:13335  totalRefBonus */\n      sload(0x10)\n        /* \"contracts/cropsFarmer.sol\":13271:13336  return (totalStaked, totalDeposits, totalCompound, totalRefBonus) */\n      swap4\n      pop\n      swap4\n      pop\n      swap4\n      pop\n      swap4\n      pop\n        /* \"contracts/cropsFarmer.sol\":13123:13343  function getSiteInfo() public view returns (uint256 _totalStaked, uint256 _totalDeposits, uint256 _totalCompound, uint256 _totalRefBonus) {... */\n      swap1\n      swap2\n      swap3\n      swap4\n      jump\t// out\n        /* \"contracts/cropsFarmer.sol\":9725:10108  function getDailyCompoundBonus(address _adr, uint256 amount) public view returns(uint256){... */\n    tag_195:\n        /* \"contracts/cropsFarmer.sol\":9806:9813  uint256 */\n      0x00\n        /* \"contracts/cropsFarmer.sol\":9861:9862  0 */\n      dup1\n        /* \"contracts/cropsFarmer.sol\":9827:9832  users */\n      0x20\n        /* \"contracts/cropsFarmer.sol\":9827:9838  users[_adr] */\n      0x00\n        /* \"contracts/cropsFarmer.sol\":9833:9837  _adr */\n      dup6\n        /* \"contracts/cropsFarmer.sol\":9827:9838  users[_adr] */\n      0xffffffffffffffffffffffffffffffffffffffff\n      and\n      0xffffffffffffffffffffffffffffffffffffffff\n      and\n      dup2\n      mstore\n      0x20\n      add\n      swap1\n      dup2\n      mstore\n      0x20\n      add\n      0x00\n      keccak256\n        /* \"contracts/cropsFarmer.sol\":9827:9857  users[_adr].dailyCompoundBonus */\n      0x09\n      add\n      sload\n        /* \"contracts/cropsFarmer.sol\":9827:9862  users[_adr].dailyCompoundBonus == 0 */\n      eq\n        /* \"contracts/cropsFarmer.sol\":9824:10102  if(users[_adr].dailyCompoundBonus == 0) {... */\n      iszero\n      tag_460\n      jumpi\n        /* \"contracts/cropsFarmer.sol\":9885:9886  0 */\n      0x00\n        /* \"contracts/cropsFarmer.sol\":9878:9886  return 0 */\n      swap1\n      pop\n      jump(tag_459)\n        /* \"contracts/cropsFarmer.sol\":9824:10102  if(users[_adr].dailyCompoundBonus == 0) {... */\n    tag_460:\n        /* \"contracts/cropsFarmer.sol\":9917:9935  uint256 totalBonus */\n      0x00\n        /* \"contracts/cropsFarmer.sol\":9938:9988  users[_adr].dailyCompoundBonus.mul(COMPOUND_BONUS) */\n      tag_462\n        /* \"contracts/cropsFarmer.sol\":9973:9987  COMPOUND_BONUS */\n      sload(0x08)\n        /* \"contracts/cropsFarmer.sol\":9938:9943  users */\n      0x20\n        /* \"contracts/cropsFarmer.sol\":9938:9949  users[_adr] */\n      0x00\n        /* \"contracts/cropsFarmer.sol\":9944:9948  _adr */\n      dup8\n        /* \"contracts/cropsFarmer.sol\":9938:9949  users[_adr] */\n      0xffffffffffffffffffffffffffffffffffffffff\n      and\n      0xffffffffffffffffffffffffffffffffffffffff\n      and\n      dup2\n      mstore\n      0x20\n      add\n      swap1\n      dup2\n      mstore\n      0x20\n      add\n      0x00\n      keccak256\n        /* \"contracts/cropsFarmer.sol\":9938:9968  users[_adr].dailyCompoundBonus */\n      0x09\n      add\n      sload\n        /* \"contracts/cropsFarmer.sol\":9938:9972  users[_adr].dailyCompoundBonus.mul */\n      tag_428\n      swap1\n        /* \"contracts/cropsFarmer.sol\":9938:9988  users[_adr].dailyCompoundBonus.mul(COMPOUND_BONUS) */\n      swap2\n      swap1\n      0xffffffff\n      and\n      jump\t// in\n    tag_462:\n        /* \"contracts/cropsFarmer.sol\":9917:9988  uint256 totalBonus = users[_adr].dailyCompoundBonus.mul(COMPOUND_BONUS) */\n      swap1\n      pop\n        /* \"contracts/cropsFarmer.sol\":10003:10017  uint256 result */\n      0x00\n        /* \"contracts/cropsFarmer.sol\":10020:10064  amount.mul(totalBonus).div(PERCENTS_DIVIDER) */\n      tag_463\n        /* \"contracts/cropsFarmer.sol\":10047:10063  PERCENTS_DIVIDER */\n      sload(0x02)\n        /* \"contracts/cropsFarmer.sol\":10020:10042  amount.mul(totalBonus) */\n      tag_464\n        /* \"contracts/cropsFarmer.sol\":10031:10041  totalBonus */\n      dup5\n        /* \"contracts/cropsFarmer.sol\":10020:10026  amount */\n      dup8\n        /* \"contracts/cropsFarmer.sol\":10020:10030  amount.mul */\n      tag_428\n      swap1\n        /* \"contracts/cropsFarmer.sol\":10020:10042  amount.mul(totalBonus) */\n      swap2\n      swap1\n      0xffffffff\n      and\n      jump\t// in\n    tag_464:\n        /* \"contracts/cropsFarmer.sol\":10020:10046  amount.mul(totalBonus).div */\n      tag_417\n      swap1\n        /* \"contracts/cropsFarmer.sol\":10020:10064  amount.mul(totalBonus).div(PERCENTS_DIVIDER) */\n      swap2\n      swap1\n      0xffffffff\n      and\n      jump\t// in\n    tag_463:\n        /* \"contracts/cropsFarmer.sol\":10003:10064  uint256 result = amount.mul(totalBonus).div(PERCENTS_DIVIDER) */\n      swap1\n      pop\n        /* \"contracts/cropsFarmer.sol\":10085:10091  result */\n      dup1\n        /* \"contracts/cropsFarmer.sol\":10078:10091  return result */\n      swap3\n      pop\n      pop\n      pop\n        /* \"contracts/cropsFarmer.sol\":9725:10108  function getDailyCompoundBonus(address _adr, uint256 amount) public view returns(uint256){... */\n    tag_459:\n      swap3\n      swap2\n      pop\n      pop\n      jump\t// out\n        /* \"contracts/cropsFarmer.sol\":7457:9307  function hireFarmers(address ref) public payable{... */\n    tag_199:\n        /* \"contracts/cropsFarmer.sol\":7523:7538  contractStarted */\n      0x15\n      0x00\n      swap1\n      sload\n      swap1\n      0x0100\n      exp\n      swap1\n      div\n      0xff\n      and\n        /* \"contracts/cropsFarmer.sol\":7515:7568  require(contractStarted, \"Contract not yet Started.\") */\n      tag_466\n      jumpi\n      mload(0x40)\n      0x08c379a000000000000000000000000000000000000000000000000000000000\n      dup2\n      mstore\n      0x04\n      add\n      tag_467\n      swap1\n      tag_400\n      jump\t// in\n    tag_467:\n      mload(0x40)\n      dup1\n      swap2\n      sub\n      swap1\n      revert\n    tag_466:\n        /* \"contracts/cropsFarmer.sol\":7578:7595  User storage user */\n      0x00\n        /* \"contracts/cropsFarmer.sol\":7598:7603  users */\n      0x20\n        /* \"contracts/cropsFarmer.sol\":7598:7615  users[msg.sender] */\n      0x00\n        /* \"contracts/cropsFarmer.sol\":7604:7614  msg.sender */\n      caller\n        /* \"contracts/cropsFarmer.sol\":7598:7615  users[msg.sender] */\n      0xffffffffffffffffffffffffffffffffffffffff\n      and\n      0xffffffffffffffffffffffffffffffffffffffff\n      and\n      dup2\n      mstore\n      0x20\n      add\n      swap1\n      dup2\n      mstore\n      0x20\n      add\n      0x00\n      keccak256\n        /* \"contracts/cropsFarmer.sol\":7578:7615  User storage user = users[msg.sender] */\n      swap1\n      pop\n        /* \"contracts/cropsFarmer.sol\":7646:7662  MIN_INVEST_LIMIT */\n      sload(0x06)\n        /* \"contracts/cropsFarmer.sol\":7633:7642  msg.value */\n      callvalue\n        /* \"contracts/cropsFarmer.sol\":7633:7662  msg.value >= MIN_INVEST_LIMIT */\n      lt\n      iszero\n        /* \"contracts/cropsFarmer.sol\":7625:7694  require(msg.value >= MIN_INVEST_LIMIT, \"Mininum investment not met.\") */\n      tag_468\n      jumpi\n      mload(0x40)\n      0x08c379a000000000000000000000000000000000000000000000000000000000\n      dup2\n      mstore\n      0x04\n      add\n      tag_469\n      swap1\n      tag_470\n      jump\t// in\n    tag_469:\n      mload(0x40)\n      dup1\n      swap2\n      sub\n      swap1\n      revert\n    tag_468:\n        /* \"contracts/cropsFarmer.sol\":7750:7770  WALLET_DEPOSIT_LIMIT */\n      sload(0x07)\n        /* \"contracts/cropsFarmer.sol\":7712:7746  user.initialDeposit.add(msg.value) */\n      tag_471\n        /* \"contracts/cropsFarmer.sol\":7736:7745  msg.value */\n      callvalue\n        /* \"contracts/cropsFarmer.sol\":7712:7716  user */\n      dup4\n        /* \"contracts/cropsFarmer.sol\":7712:7731  user.initialDeposit */\n      0x00\n      add\n      sload\n        /* \"contracts/cropsFarmer.sol\":7712:7735  user.initialDeposit.add */\n      tag_405\n      swap1\n        /* \"contracts/cropsFarmer.sol\":7712:7746  user.initialDeposit.add(msg.value) */\n      swap2\n      swap1\n      0xffffffff\n      and\n      jump\t// in\n    tag_471:\n        /* \"contracts/cropsFarmer.sol\":7712:7770  user.initialDeposit.add(msg.value) <= WALLET_DEPOSIT_LIMIT */\n      gt\n      iszero\n        /* \"contracts/cropsFarmer.sol\":7704:7801  require(user.initialDeposit.add(msg.value) <= WALLET_DEPOSIT_LIMIT, \"Max deposit limit reached.\") */\n      tag_472\n      jumpi\n      mload(0x40)\n      0x08c379a000000000000000000000000000000000000000000000000000000000\n      dup2\n      mstore\n      0x04\n      add\n      tag_473\n      swap1\n      tag_474\n      jump\t// in\n    tag_473:\n      mload(0x40)\n      dup1\n      swap2\n      sub\n      swap1\n      revert\n    tag_472:\n        /* \"contracts/cropsFarmer.sol\":7811:7829  uint256 eggsBought */\n      0x00\n        /* \"contracts/cropsFarmer.sol\":7832:7896  calculateEggBuy(msg.value, address(this).balance.sub(msg.value)) */\n      tag_475\n        /* \"contracts/cropsFarmer.sol\":7848:7857  msg.value */\n      callvalue\n        /* \"contracts/cropsFarmer.sol\":7859:7895  address(this).balance.sub(msg.value) */\n      tag_476\n        /* \"contracts/cropsFarmer.sol\":7885:7894  msg.value */\n      callvalue\n        /* \"contracts/cropsFarmer.sol\":7859:7880  address(this).balance */\n      selfbalance\n        /* \"contracts/cropsFarmer.sol\":7859:7884  address(this).balance.sub */\n      tag_410\n      swap1\n        /* \"contracts/cropsFarmer.sol\":7859:7895  address(this).balance.sub(msg.value) */\n      swap2\n      swap1\n      0xffffffff\n      and\n      jump\t// in\n    tag_476:\n        /* \"contracts/cropsFarmer.sol\":7832:7847  calculateEggBuy */\n      tag_142\n        /* \"contracts/cropsFarmer.sol\":7832:7896  calculateEggBuy(msg.value, address(this).balance.sub(msg.value)) */\n      jump\t// in\n    tag_475:\n        /* \"contracts/cropsFarmer.sol\":7811:7896  uint256 eggsBought = calculateEggBuy(msg.value, address(this).balance.sub(msg.value)) */\n      swap1\n      pop\n        /* \"contracts/cropsFarmer.sol\":7925:7956  user.userDeposit.add(msg.value) */\n      tag_477\n        /* \"contracts/cropsFarmer.sol\":7946:7955  msg.value */\n      callvalue\n        /* \"contracts/cropsFarmer.sol\":7925:7929  user */\n      dup4\n        /* \"contracts/cropsFarmer.sol\":7925:7941  user.userDeposit */\n      0x01\n      add\n      sload\n        /* \"contracts/cropsFarmer.sol\":7925:7945  user.userDeposit.add */\n      tag_405\n      swap1\n        /* \"contracts/cropsFarmer.sol\":7925:7956  user.userDeposit.add(msg.value) */\n      swap2\n      swap1\n      0xffffffff\n      and\n      jump\t// in\n    tag_477:\n        /* \"contracts/cropsFarmer.sol\":7906:7910  user */\n      dup3\n        /* \"contracts/cropsFarmer.sol\":7906:7922  user.userDeposit */\n      0x01\n      add\n        /* \"contracts/cropsFarmer.sol\":7906:7956  user.userDeposit = user.userDeposit.add(msg.value) */\n      dup2\n      swap1\n      sstore\n      pop\n        /* \"contracts/cropsFarmer.sol\":7988:8022  user.initialDeposit.add(msg.value) */\n      tag_478\n        /* \"contracts/cropsFarmer.sol\":8012:8021  msg.value */\n      callvalue\n        /* \"contracts/cropsFarmer.sol\":7988:7992  user */\n      dup4\n        /* \"contracts/cropsFarmer.sol\":7988:8007  user.initialDeposit */\n      0x00\n      add\n      sload\n        /* \"contracts/cropsFarmer.sol\":7988:8011  user.initialDeposit.add */\n      tag_405\n      swap1\n        /* \"contracts/cropsFarmer.sol\":7988:8022  user.initialDeposit.add(msg.value) */\n      swap2\n      swap1\n      0xffffffff\n      and\n      jump\t// in\n    tag_478:\n        /* \"contracts/cropsFarmer.sol\":7966:7970  user */\n      dup3\n        /* \"contracts/cropsFarmer.sol\":7966:7985  user.initialDeposit */\n      0x00\n      add\n        /* \"contracts/cropsFarmer.sol\":7966:8022  user.initialDeposit = user.initialDeposit.add(msg.value) */\n      dup2\n      swap1\n      sstore\n      pop\n        /* \"contracts/cropsFarmer.sol\":8051:8083  user.claimedEggs.add(eggsBought) */\n      tag_479\n        /* \"contracts/cropsFarmer.sol\":8072:8082  eggsBought */\n      dup2\n        /* \"contracts/cropsFarmer.sol\":8051:8055  user */\n      dup4\n        /* \"contracts/cropsFarmer.sol\":8051:8067  user.claimedEggs */\n      0x03\n      add\n      sload\n        /* \"contracts/cropsFarmer.sol\":8051:8071  user.claimedEggs.add */\n      tag_405\n      swap1\n        /* \"contracts/cropsFarmer.sol\":8051:8083  user.claimedEggs.add(eggsBought) */\n      swap2\n      swap1\n      0xffffffff\n      and\n      jump\t// in\n    tag_479:\n        /* \"contracts/cropsFarmer.sol\":8032:8036  user */\n      dup3\n        /* \"contracts/cropsFarmer.sol\":8032:8048  user.claimedEggs */\n      0x03\n      add\n        /* \"contracts/cropsFarmer.sol\":8032:8083  user.claimedEggs = user.claimedEggs.add(eggsBought) */\n      dup2\n      swap1\n      sstore\n      pop\n        /* \"contracts/cropsFarmer.sol\":8277:8278  0 */\n      0x00\n        /* \"contracts/cropsFarmer.sol\":8252:8279  user.referrer == address(0) */\n      0xffffffffffffffffffffffffffffffffffffffff\n      and\n        /* \"contracts/cropsFarmer.sol\":8252:8256  user */\n      dup3\n        /* \"contracts/cropsFarmer.sol\":8252:8265  user.referrer */\n      0x05\n      add\n      0x00\n      swap1\n      sload\n      swap1\n      0x0100\n      exp\n      swap1\n      div\n      0xffffffffffffffffffffffffffffffffffffffff\n      and\n        /* \"contracts/cropsFarmer.sol\":8252:8279  user.referrer == address(0) */\n      0xffffffffffffffffffffffffffffffffffffffff\n      and\n      eq\n        /* \"contracts/cropsFarmer.sol\":8248:8628  if (user.referrer == address(0)) {... */\n      iszero\n      tag_480\n      jumpi\n        /* \"contracts/cropsFarmer.sol\":8306:8316  msg.sender */\n      caller\n        /* \"contracts/cropsFarmer.sol\":8299:8316  ref != msg.sender */\n      0xffffffffffffffffffffffffffffffffffffffff\n      and\n        /* \"contracts/cropsFarmer.sol\":8299:8302  ref */\n      dup4\n        /* \"contracts/cropsFarmer.sol\":8299:8316  ref != msg.sender */\n      0xffffffffffffffffffffffffffffffffffffffff\n      and\n      eq\n        /* \"contracts/cropsFarmer.sol\":8295:8431  if (ref != msg.sender) {... */\n      tag_481\n      jumpi\n        /* \"contracts/cropsFarmer.sol\":8352:8355  ref */\n      dup3\n        /* \"contracts/cropsFarmer.sol\":8336:8340  user */\n      dup3\n        /* \"contracts/cropsFarmer.sol\":8336:8349  user.referrer */\n      0x05\n      add\n      0x00\n        /* \"contracts/cropsFarmer.sol\":8336:8355  user.referrer = ref */\n      0x0100\n      exp\n      dup2\n      sload\n      dup2\n      0xffffffffffffffffffffffffffffffffffffffff\n      mul\n      not\n      and\n      swap1\n      dup4\n      0xffffffffffffffffffffffffffffffffffffffff\n      and\n      mul\n      or\n      swap1\n      sstore\n      pop\n        /* \"contracts/cropsFarmer.sol\":8373:8416  sendRewardToReferrals(msg.sender,msg.value) */\n      tag_482\n        /* \"contracts/cropsFarmer.sol\":8395:8405  msg.sender */\n      caller\n        /* \"contracts/cropsFarmer.sol\":8406:8415  msg.value */\n      callvalue\n        /* \"contracts/cropsFarmer.sol\":8373:8394  sendRewardToReferrals */\n      tag_483\n        /* \"contracts/cropsFarmer.sol\":8373:8416  sendRewardToReferrals(msg.sender,msg.value) */\n      jump\t// in\n    tag_482:\n        /* \"contracts/cropsFarmer.sol\":8295:8431  if (ref != msg.sender) {... */\n    tag_481:\n        /* \"contracts/cropsFarmer.sol\":8445:8460  address upline1 */\n      0x00\n        /* \"contracts/cropsFarmer.sol\":8463:8467  user */\n      dup3\n        /* \"contracts/cropsFarmer.sol\":8463:8476  user.referrer */\n      0x05\n      add\n      0x00\n      swap1\n      sload\n      swap1\n      0x0100\n      exp\n      swap1\n      div\n      0xffffffffffffffffffffffffffffffffffffffff\n      and\n        /* \"contracts/cropsFarmer.sol\":8445:8476  address upline1 = user.referrer */\n      swap1\n      pop\n        /* \"contracts/cropsFarmer.sol\":8513:8514  0 */\n      0x00\n        /* \"contracts/cropsFarmer.sol\":8494:8515  upline1 != address(0) */\n      0xffffffffffffffffffffffffffffffffffffffff\n      and\n        /* \"contracts/cropsFarmer.sol\":8494:8501  upline1 */\n      dup2\n        /* \"contracts/cropsFarmer.sol\":8494:8515  upline1 != address(0) */\n      0xffffffffffffffffffffffffffffffffffffffff\n      and\n      eq\n        /* \"contracts/cropsFarmer.sol\":8490:8618  if (upline1 != address(0)) {... */\n      tag_484\n      jumpi\n        /* \"contracts/cropsFarmer.sol\":8567:8603  users[upline1].referralsCount.add(1) */\n      tag_485\n        /* \"contracts/cropsFarmer.sol\":8601:8602  1 */\n      0x01\n        /* \"contracts/cropsFarmer.sol\":8567:8572  users */\n      0x20\n        /* \"contracts/cropsFarmer.sol\":8567:8581  users[upline1] */\n      0x00\n        /* \"contracts/cropsFarmer.sol\":8573:8580  upline1 */\n      dup5\n        /* \"contracts/cropsFarmer.sol\":8567:8581  users[upline1] */\n      0xffffffffffffffffffffffffffffffffffffffff\n      and\n      0xffffffffffffffffffffffffffffffffffffffff\n      and\n      dup2\n      mstore\n      0x20\n      add\n      swap1\n      dup2\n      mstore\n      0x20\n      add\n      0x00\n      keccak256\n        /* \"contracts/cropsFarmer.sol\":8567:8596  users[upline1].referralsCount */\n      0x06\n      add\n      sload\n        /* \"contracts/cropsFarmer.sol\":8567:8600  users[upline1].referralsCount.add */\n      tag_405\n      swap1\n        /* \"contracts/cropsFarmer.sol\":8567:8603  users[upline1].referralsCount.add(1) */\n      swap2\n      swap1\n      0xffffffff\n      and\n      jump\t// in\n    tag_485:\n        /* \"contracts/cropsFarmer.sol\":8535:8540  users */\n      0x20\n        /* \"contracts/cropsFarmer.sol\":8535:8549  users[upline1] */\n      0x00\n        /* \"contracts/cropsFarmer.sol\":8541:8548  upline1 */\n      dup4\n        /* \"contracts/cropsFarmer.sol\":8535:8549  users[upline1] */\n      0xffffffffffffffffffffffffffffffffffffffff\n      and\n      0xffffffffffffffffffffffffffffffffffffffff\n      and\n      dup2\n      mstore\n      0x20\n      add\n      swap1\n      dup2\n      mstore\n      0x20\n      add\n      0x00\n      keccak256\n        /* \"contracts/cropsFarmer.sol\":8535:8564  users[upline1].referralsCount */\n      0x06\n      add\n        /* \"contracts/cropsFarmer.sol\":8535:8603  users[upline1].referralsCount = users[upline1].referralsCount.add(1) */\n      dup2\n      swap1\n      sstore\n      pop\n        /* \"contracts/cropsFarmer.sol\":8490:8618  if (upline1 != address(0)) {... */\n    tag_484:\n        /* \"contracts/cropsFarmer.sol\":8281:8628  {... */\n      pop\n        /* \"contracts/cropsFarmer.sol\":8248:8628  if (user.referrer == address(0)) {... */\n    tag_480:\n        /* \"contracts/cropsFarmer.sol\":8683:8684  0 */\n      0x00\n        /* \"contracts/cropsFarmer.sol\":8658:8685  user.referrer != address(0) */\n      0xffffffffffffffffffffffffffffffffffffffff\n      and\n        /* \"contracts/cropsFarmer.sol\":8658:8662  user */\n      dup3\n        /* \"contracts/cropsFarmer.sol\":8658:8671  user.referrer */\n      0x05\n      add\n      0x00\n      swap1\n      sload\n      swap1\n      0x0100\n      exp\n      swap1\n      div\n      0xffffffffffffffffffffffffffffffffffffffff\n      and\n        /* \"contracts/cropsFarmer.sol\":8658:8685  user.referrer != address(0) */\n      0xffffffffffffffffffffffffffffffffffffffff\n      and\n      eq\n        /* \"contracts/cropsFarmer.sol\":8654:9107  if (user.referrer != address(0)) {... */\n      tag_486\n      jumpi\n        /* \"contracts/cropsFarmer.sol\":8701:8715  address upline */\n      0x00\n        /* \"contracts/cropsFarmer.sol\":8718:8722  user */\n      dup3\n        /* \"contracts/cropsFarmer.sol\":8718:8731  user.referrer */\n      0x05\n      add\n      0x00\n      swap1\n      sload\n      swap1\n      0x0100\n      exp\n      swap1\n      div\n      0xffffffffffffffffffffffffffffffffffffffff\n      and\n        /* \"contracts/cropsFarmer.sol\":8701:8731  address upline = user.referrer */\n      swap1\n      pop\n        /* \"contracts/cropsFarmer.sol\":8767:8768  0 */\n      0x00\n        /* \"contracts/cropsFarmer.sol\":8749:8769  upline != address(0) */\n      0xffffffffffffffffffffffffffffffffffffffff\n      and\n        /* \"contracts/cropsFarmer.sol\":8749:8755  upline */\n      dup2\n        /* \"contracts/cropsFarmer.sol\":8749:8769  upline != address(0) */\n      0xffffffffffffffffffffffffffffffffffffffff\n      and\n      eq\n        /* \"contracts/cropsFarmer.sol\":8745:9097  if (upline != address(0)) {... */\n      tag_487\n      jumpi\n        /* \"contracts/cropsFarmer.sol\":8789:8807  uint256 refRewards */\n      0x00\n        /* \"contracts/cropsFarmer.sol\":8810:8855  msg.value.mul(REFERRAL).div(PERCENTS_DIVIDER) */\n      tag_488\n        /* \"contracts/cropsFarmer.sol\":8838:8854  PERCENTS_DIVIDER */\n      sload(0x02)\n        /* \"contracts/cropsFarmer.sol\":8810:8833  msg.value.mul(REFERRAL) */\n      tag_489\n        /* \"contracts/cropsFarmer.sol\":8824:8832  REFERRAL */\n      sload(0x01)\n        /* \"contracts/cropsFarmer.sol\":8810:8819  msg.value */\n      callvalue\n        /* \"contracts/cropsFarmer.sol\":8810:8823  msg.value.mul */\n      tag_428\n      swap1\n        /* \"contracts/cropsFarmer.sol\":8810:8833  msg.value.mul(REFERRAL) */\n      swap2\n      swap1\n      0xffffffff\n      and\n      jump\t// in\n    tag_489:\n        /* \"contracts/cropsFarmer.sol\":8810:8837  msg.value.mul(REFERRAL).div */\n      tag_417\n      swap1\n        /* \"contracts/cropsFarmer.sol\":8810:8855  msg.value.mul(REFERRAL).div(PERCENTS_DIVIDER) */\n      swap2\n      swap1\n      0xffffffff\n      and\n      jump\t// in\n    tag_488:\n        /* \"contracts/cropsFarmer.sol\":8789:8855  uint256 refRewards = msg.value.mul(REFERRAL).div(PERCENTS_DIVIDER) */\n      swap1\n      pop\n        /* \"contracts/cropsFarmer.sol\":8889:8895  upline */\n      dup2\n        /* \"contracts/cropsFarmer.sol\":8873:8906  payable(address(upline)).transfer */\n      0xffffffffffffffffffffffffffffffffffffffff\n      and\n        /* \"contracts/cropsFarmer.sol\":8873:8918  payable(address(upline)).transfer(refRewards) */\n      0x08fc\n        /* \"contracts/cropsFarmer.sol\":8907:8917  refRewards */\n      dup3\n        /* \"contracts/cropsFarmer.sol\":8873:8918  payable(address(upline)).transfer(refRewards) */\n      swap1\n      dup2\n      iszero\n      mul\n      swap1\n      mload(0x40)\n      0x00\n      mload(0x40)\n      dup1\n      dup4\n      sub\n      dup2\n      dup6\n      dup9\n      dup9\n      call\n      swap4\n      pop\n      pop\n      pop\n      pop\n      iszero\n      dup1\n      iszero\n      tag_491\n      jumpi\n      returndatasize\n      0x00\n      dup1\n      returndatacopy\n      revert(0x00, returndatasize)\n    tag_491:\n      pop\n        /* \"contracts/cropsFarmer.sol\":8971:9019  users[upline].referralEggRewards.add(refRewards) */\n      tag_492\n        /* \"contracts/cropsFarmer.sol\":9008:9018  refRewards */\n      dup2\n        /* \"contracts/cropsFarmer.sol\":8971:8976  users */\n      0x20\n        /* \"contracts/cropsFarmer.sol\":8971:8984  users[upline] */\n      0x00\n        /* \"contracts/cropsFarmer.sol\":8977:8983  upline */\n      dup6\n        /* \"contracts/cropsFarmer.sol\":8971:8984  users[upline] */\n      0xffffffffffffffffffffffffffffffffffffffff\n      and\n      0xffffffffffffffffffffffffffffffffffffffff\n      and\n      dup2\n      mstore\n      0x20\n      add\n      swap1\n      dup2\n      mstore\n      0x20\n      add\n      0x00\n      keccak256\n        /* \"contracts/cropsFarmer.sol\":8971:9003  users[upline].referralEggRewards */\n      0x07\n      add\n      sload\n        /* \"contracts/cropsFarmer.sol\":8971:9007  users[upline].referralEggRewards.add */\n      tag_405\n      swap1\n        /* \"contracts/cropsFarmer.sol\":8971:9019  users[upline].referralEggRewards.add(refRewards) */\n      swap2\n      swap1\n      0xffffffff\n      and\n      jump\t// in\n    tag_492:\n        /* \"contracts/cropsFarmer.sol\":8936:8941  users */\n      0x20\n        /* \"contracts/cropsFarmer.sol\":8936:8949  users[upline] */\n      0x00\n        /* \"contracts/cropsFarmer.sol\":8942:8948  upline */\n      dup5\n        /* \"contracts/cropsFarmer.sol\":8936:8949  users[upline] */\n      0xffffffffffffffffffffffffffffffffffffffff\n      and\n      0xffffffffffffffffffffffffffffffffffffffff\n      and\n      dup2\n      mstore\n      0x20\n      add\n      swap1\n      dup2\n      mstore\n      0x20\n      add\n      0x00\n      keccak256\n        /* \"contracts/cropsFarmer.sol\":8936:8968  users[upline].referralEggRewards */\n      0x07\n      add\n        /* \"contracts/cropsFarmer.sol\":8936:9019  users[upline].referralEggRewards = users[upline].referralEggRewards.add(refRewards) */\n      dup2\n      swap1\n      sstore\n      pop\n        /* \"contracts/cropsFarmer.sol\":9053:9082  totalRefBonus.add(refRewards) */\n      tag_493\n        /* \"contracts/cropsFarmer.sol\":9071:9081  refRewards */\n      dup2\n        /* \"contracts/cropsFarmer.sol\":9053:9066  totalRefBonus */\n      sload(0x10)\n        /* \"contracts/cropsFarmer.sol\":9053:9070  totalRefBonus.add */\n      tag_405\n      swap1\n        /* \"contracts/cropsFarmer.sol\":9053:9082  totalRefBonus.add(refRewards) */\n      swap2\n      swap1\n      0xffffffff\n      and\n      jump\t// in\n    tag_493:\n        /* \"contracts/cropsFarmer.sol\":9037:9050  totalRefBonus */\n      0x10\n        /* \"contracts/cropsFarmer.sol\":9037:9082  totalRefBonus = totalRefBonus.add(refRewards) */\n      dup2\n      swap1\n      sstore\n      pop\n        /* \"contracts/cropsFarmer.sol\":8771:9097  {... */\n      pop\n        /* \"contracts/cropsFarmer.sol\":8745:9097  if (upline != address(0)) {... */\n    tag_487:\n        /* \"contracts/cropsFarmer.sol\":8687:9107  {... */\n      pop\n        /* \"contracts/cropsFarmer.sol\":8654:9107  if (user.referrer != address(0)) {... */\n    tag_486:\n        /* \"contracts/cropsFarmer.sol\":9117:9135  uint256 eggsPayout */\n      0x00\n        /* \"contracts/cropsFarmer.sol\":9138:9156  payFees(msg.value) */\n      tag_494\n        /* \"contracts/cropsFarmer.sol\":9146:9155  msg.value */\n      callvalue\n        /* \"contracts/cropsFarmer.sol\":9138:9145  payFees */\n      tag_495\n        /* \"contracts/cropsFarmer.sol\":9138:9156  payFees(msg.value) */\n      jump\t// in\n    tag_494:\n        /* \"contracts/cropsFarmer.sol\":9117:9156  uint256 eggsPayout = payFees(msg.value) */\n      swap1\n      pop\n        /* \"contracts/cropsFarmer.sol\":9180:9222  totalStaked.add(msg.value.sub(eggsPayout)) */\n      tag_496\n        /* \"contracts/cropsFarmer.sol\":9196:9221  msg.value.sub(eggsPayout) */\n      tag_497\n        /* \"contracts/cropsFarmer.sol\":9210:9220  eggsPayout */\n      dup3\n        /* \"contracts/cropsFarmer.sol\":9196:9205  msg.value */\n      callvalue\n        /* \"contracts/cropsFarmer.sol\":9196:9209  msg.value.sub */\n      tag_410\n      swap1\n        /* \"contracts/cropsFarmer.sol\":9196:9221  msg.value.sub(eggsPayout) */\n      swap2\n      swap1\n      0xffffffff\n      and\n      jump\t// in\n    tag_497:\n        /* \"contracts/cropsFarmer.sol\":9180:9191  totalStaked */\n      sload(0x0d)\n        /* \"contracts/cropsFarmer.sol\":9180:9195  totalStaked.add */\n      tag_405\n      swap1\n        /* \"contracts/cropsFarmer.sol\":9180:9222  totalStaked.add(msg.value.sub(eggsPayout)) */\n      swap2\n      swap1\n      0xffffffff\n      and\n      jump\t// in\n    tag_496:\n        /* \"contracts/cropsFarmer.sol\":9166:9177  totalStaked */\n      0x0d\n        /* \"contracts/cropsFarmer.sol\":9166:9222  totalStaked = totalStaked.add(msg.value.sub(eggsPayout)) */\n      dup2\n      swap1\n      sstore\n      pop\n        /* \"contracts/cropsFarmer.sol\":9248:9268  totalDeposits.add(1) */\n      tag_498\n        /* \"contracts/cropsFarmer.sol\":9266:9267  1 */\n      0x01\n        /* \"contracts/cropsFarmer.sol\":9248:9261  totalDeposits */\n      sload(0x0e)\n        /* \"contracts/cropsFarmer.sol\":9248:9265  totalDeposits.add */\n      tag_405\n      swap1\n        /* \"contracts/cropsFarmer.sol\":9248:9268  totalDeposits.add(1) */\n      swap2\n      swap1\n      0xffffffff\n      and\n      jump\t// in\n    tag_498:\n        /* \"contracts/cropsFarmer.sol\":9232:9245  totalDeposits */\n      0x0e\n        /* \"contracts/cropsFarmer.sol\":9232:9268  totalDeposits = totalDeposits.add(1) */\n      dup2\n      swap1\n      sstore\n      pop\n        /* \"contracts/cropsFarmer.sol\":9278:9300  hireMoreFarmers(false) */\n      tag_499\n        /* \"contracts/cropsFarmer.sol\":9294:9299  false */\n      0x00\n        /* \"contracts/cropsFarmer.sol\":9278:9293  hireMoreFarmers */\n      tag_118\n        /* \"contracts/cropsFarmer.sol\":9278:9300  hireMoreFarmers(false) */\n      jump\t// in\n    tag_499:\n        /* \"contracts/cropsFarmer.sol\":7505:9307  {... */\n      pop\n      pop\n      pop\n        /* \"contracts/cropsFarmer.sol\":7457:9307  function hireFarmers(address ref) public payable{... */\n      pop\n      jump\t// out\n        /* \"contracts/cropsFarmer.sol\":15906:16088  function PRC_REFERRAL(uint256 value) external {... */\n    tag_203:\n        /* \"contracts/cropsFarmer.sol\":15984:15989  owner */\n      0x19\n      0x00\n      swap1\n      sload\n      swap1\n      0x0100\n      exp\n      swap1\n      div\n      0xffffffffffffffffffffffffffffffffffffffff\n      and\n        /* \"contracts/cropsFarmer.sol\":15970:15989  msg.sender == owner */\n      0xffffffffffffffffffffffffffffffffffffffff\n      and\n        /* \"contracts/cropsFarmer.sol\":15970:15980  msg.sender */\n      caller\n        /* \"contracts/cropsFarmer.sol\":15970:15989  msg.sender == owner */\n      0xffffffffffffffffffffffffffffffffffffffff\n      and\n      eq\n        /* \"contracts/cropsFarmer.sol\":15962:16009  require(msg.sender == owner, \"Admin use only.\") */\n      tag_501\n      jumpi\n      mload(0x40)\n      0x08c379a000000000000000000000000000000000000000000000000000000000\n      dup2\n      mstore\n      0x04\n      add\n      tag_502\n      swap1\n      tag_423\n      jump\t// in\n    tag_502:\n      mload(0x40)\n      dup1\n      swap2\n      sub\n      swap1\n      revert\n    tag_501:\n        /* \"contracts/cropsFarmer.sol\":16036:16038  10 */\n      0x0a\n        /* \"contracts/cropsFarmer.sol\":16027:16032  value */\n      dup2\n        /* \"contracts/cropsFarmer.sol\":16027:16038  value >= 10 */\n      lt\n      iszero\n        /* \"contracts/cropsFarmer.sol\":16027:16054  value >= 10 && value <= 100 */\n      dup1\n      iszero\n      tag_503\n      jumpi\n      pop\n        /* \"contracts/cropsFarmer.sol\":16051:16054  100 */\n      0x64\n        /* \"contracts/cropsFarmer.sol\":16042:16047  value */\n      dup2\n        /* \"contracts/cropsFarmer.sol\":16042:16054  value <= 100 */\n      gt\n      iszero\n        /* \"contracts/cropsFarmer.sol\":16027:16054  value >= 10 && value <= 100 */\n    tag_503:\n        /* \"contracts/cropsFarmer.sol\":16019:16055  require(value >= 10 && value <= 100) */\n      tag_504\n      jumpi\n      0x00\n      dup1\n      revert\n    tag_504:\n        /* \"contracts/cropsFarmer.sol\":16076:16081  value */\n      dup1\n        /* \"contracts/cropsFarmer.sol\":16065:16073  REFERRAL */\n      0x01\n        /* \"contracts/cropsFarmer.sol\":16065:16081  REFERRAL = value */\n      dup2\n      swap1\n      sstore\n      pop\n        /* \"contracts/cropsFarmer.sol\":15906:16088  function PRC_REFERRAL(uint256 value) external {... */\n      pop\n      jump\t// out\n        /* \"contracts/cropsFarmer.sol\":5085:6542  function sellCrops() public{... */\n    tag_206:\n        /* \"contracts/cropsFarmer.sol\":5130:5145  contractStarted */\n      0x15\n      0x00\n      swap1\n      sload\n      swap1\n      0x0100\n      exp\n      swap1\n      div\n      0xff\n      and\n        /* \"contracts/cropsFarmer.sol\":5122:5175  require(contractStarted, \"Contract not yet Started.\") */\n      tag_506\n      jumpi\n      mload(0x40)\n      0x08c379a000000000000000000000000000000000000000000000000000000000\n      dup2\n      mstore\n      0x04\n      add\n      tag_507\n      swap1\n      tag_400\n      jump\t// in\n    tag_507:\n      mload(0x40)\n      dup1\n      swap2\n      sub\n      swap1\n      revert\n    tag_506:\n        /* \"contracts/cropsFarmer.sol\":5190:5205  blacklistActive */\n      0x15\n      0x01\n      swap1\n      sload\n      swap1\n      0x0100\n      exp\n      swap1\n      div\n      0xff\n      and\n        /* \"contracts/cropsFarmer.sol\":5186:5292  if (blacklistActive) {... */\n      iszero\n      tag_508\n      jumpi\n        /* \"contracts/cropsFarmer.sol\":5230:5241  Blacklisted */\n      0x16\n        /* \"contracts/cropsFarmer.sol\":5230:5253  Blacklisted[msg.sender] */\n      0x00\n        /* \"contracts/cropsFarmer.sol\":5242:5252  msg.sender */\n      caller\n        /* \"contracts/cropsFarmer.sol\":5230:5253  Blacklisted[msg.sender] */\n      0xffffffffffffffffffffffffffffffffffffffff\n      and\n      0xffffffffffffffffffffffffffffffffffffffff\n      and\n      dup2\n      mstore\n      0x20\n      add\n      swap1\n      dup2\n      mstore\n      0x20\n      add\n      0x00\n      keccak256\n      0x00\n      swap1\n      sload\n      swap1\n      0x0100\n      exp\n      swap1\n      div\n      0xff\n      and\n        /* \"contracts/cropsFarmer.sol\":5229:5253  !Blacklisted[msg.sender] */\n      iszero\n        /* \"contracts/cropsFarmer.sol\":5221:5281  require(!Blacklisted[msg.sender], \"Address is blacklisted.\") */\n      tag_509\n      jumpi\n      mload(0x40)\n      0x08c379a000000000000000000000000000000000000000000000000000000000\n      dup2\n      mstore\n      0x04\n      add\n      tag_510\n      swap1\n      tag_511\n      jump\t// in\n    tag_510:\n      mload(0x40)\n      dup1\n      swap2\n      sub\n      swap1\n      revert\n    tag_509:\n        /* \"contracts/cropsFarmer.sol\":5186:5292  if (blacklistActive) {... */\n    tag_508:\n        /* \"contracts/cropsFarmer.sol\":5302:5319  User storage user */\n      0x00\n        /* \"contracts/cropsFarmer.sol\":5322:5327  users */\n      0x20\n        /* \"contracts/cropsFarmer.sol\":5322:5339  users[msg.sender] */\n      0x00\n        /* \"contracts/cropsFarmer.sol\":5328:5338  msg.sender */\n      caller\n        /* \"contracts/cropsFarmer.sol\":5322:5339  users[msg.sender] */\n      0xffffffffffffffffffffffffffffffffffffffff\n      and\n      0xffffffffffffffffffffffffffffffffffffffff\n      and\n      dup2\n      mstore\n      0x20\n      add\n      swap1\n      dup2\n      mstore\n      0x20\n      add\n      0x00\n      keccak256\n        /* \"contracts/cropsFarmer.sol\":5302:5339  User storage user = users[msg.sender] */\n      swap1\n      pop\n        /* \"contracts/cropsFarmer.sol\":5349:5364  uint256 hasEggs */\n      0x00\n        /* \"contracts/cropsFarmer.sol\":5367:5378  getMyEggs() */\n      tag_512\n        /* \"contracts/cropsFarmer.sol\":5367:5376  getMyEggs */\n      tag_172\n        /* \"contracts/cropsFarmer.sol\":5367:5378  getMyEggs() */\n      jump\t// in\n    tag_512:\n        /* \"contracts/cropsFarmer.sol\":5349:5378  uint256 hasEggs = getMyEggs() */\n      swap1\n      pop\n        /* \"contracts/cropsFarmer.sol\":5388:5404  uint256 eggValue */\n      0x00\n        /* \"contracts/cropsFarmer.sol\":5407:5432  calculateEggSell(hasEggs) */\n      tag_513\n        /* \"contracts/cropsFarmer.sol\":5424:5431  hasEggs */\n      dup3\n        /* \"contracts/cropsFarmer.sol\":5407:5423  calculateEggSell */\n      tag_287\n        /* \"contracts/cropsFarmer.sol\":5407:5432  calculateEggSell(hasEggs) */\n      jump\t// in\n    tag_513:\n        /* \"contracts/cropsFarmer.sol\":5388:5432  uint256 eggValue = calculateEggSell(hasEggs) */\n      swap1\n      pop\n        /* \"contracts/cropsFarmer.sol\":5554:5584  COMPOUND_FOR_NO_TAX_WITHDRAWAL */\n      sload(0x0c)\n        /* \"contracts/cropsFarmer.sol\":5528:5532  user */\n      dup4\n        /* \"contracts/cropsFarmer.sol\":5528:5551  user.dailyCompoundBonus */\n      0x09\n      add\n      sload\n        /* \"contracts/cropsFarmer.sol\":5528:5584  user.dailyCompoundBonus < COMPOUND_FOR_NO_TAX_WITHDRAWAL */\n      lt\n        /* \"contracts/cropsFarmer.sol\":5525:5993  if(user.dailyCompoundBonus < COMPOUND_FOR_NO_TAX_WITHDRAWAL){... */\n      iszero\n      tag_514\n      jumpi\n        /* \"contracts/cropsFarmer.sol\":5719:5783  eggValue.sub(eggValue.mul(WITHDRAWAL_TAX).div(PERCENTS_DIVIDER)) */\n      tag_515\n        /* \"contracts/cropsFarmer.sol\":5732:5782  eggValue.mul(WITHDRAWAL_TAX).div(PERCENTS_DIVIDER) */\n      tag_516\n        /* \"contracts/cropsFarmer.sol\":5765:5781  PERCENTS_DIVIDER */\n      sload(0x02)\n        /* \"contracts/cropsFarmer.sol\":5732:5760  eggValue.mul(WITHDRAWAL_TAX) */\n      tag_517\n        /* \"contracts/cropsFarmer.sol\":5745:5759  WITHDRAWAL_TAX */\n      sload(0x0b)\n        /* \"contracts/cropsFarmer.sol\":5732:5740  eggValue */\n      dup6\n        /* \"contracts/cropsFarmer.sol\":5732:5744  eggValue.mul */\n      tag_428\n      swap1\n        /* \"contracts/cropsFarmer.sol\":5732:5760  eggValue.mul(WITHDRAWAL_TAX) */\n      swap2\n      swap1\n      0xffffffff\n      and\n      jump\t// in\n    tag_517:\n        /* \"contracts/cropsFarmer.sol\":5732:5764  eggValue.mul(WITHDRAWAL_TAX).div */\n      tag_417\n      swap1\n        /* \"contracts/cropsFarmer.sol\":5732:5782  eggValue.mul(WITHDRAWAL_TAX).div(PERCENTS_DIVIDER) */\n      swap2\n      swap1\n      0xffffffff\n      and\n      jump\t// in\n    tag_516:\n        /* \"contracts/cropsFarmer.sol\":5719:5727  eggValue */\n      dup3\n        /* \"contracts/cropsFarmer.sol\":5719:5731  eggValue.sub */\n      tag_410\n      swap1\n        /* \"contracts/cropsFarmer.sol\":5719:5783  eggValue.sub(eggValue.mul(WITHDRAWAL_TAX).div(PERCENTS_DIVIDER)) */\n      swap2\n      swap1\n      0xffffffff\n      and\n      jump\t// in\n    tag_515:\n        /* \"contracts/cropsFarmer.sol\":5708:5783  eggValue = eggValue.sub(eggValue.mul(WITHDRAWAL_TAX).div(PERCENTS_DIVIDER)) */\n      swap1\n      pop\n        /* \"contracts/cropsFarmer.sol\":5525:5993  if(user.dailyCompoundBonus < COMPOUND_FOR_NO_TAX_WITHDRAWAL){... */\n      jump(tag_518)\n    tag_514:\n        /* \"contracts/cropsFarmer.sol\":5933:5934  0 */\n      0x00\n        /* \"contracts/cropsFarmer.sol\":5907:5911  user */\n      dup4\n        /* \"contracts/cropsFarmer.sol\":5907:5930  user.dailyCompoundBonus */\n      0x09\n      add\n        /* \"contracts/cropsFarmer.sol\":5907:5934  user.dailyCompoundBonus = 0 */\n      dup2\n      swap1\n      sstore\n      pop\n        /* \"contracts/cropsFarmer.sol\":5979:5980  0 */\n      0x00\n        /* \"contracts/cropsFarmer.sol\":5952:5956  user */\n      dup4\n        /* \"contracts/cropsFarmer.sol\":5952:5976  user.farmerCompoundCount */\n      0x0a\n      add\n        /* \"contracts/cropsFarmer.sol\":5952:5980  user.farmerCompoundCount = 0 */\n      dup2\n      swap1\n      sstore\n      pop\n        /* \"contracts/cropsFarmer.sol\":5525:5993  if(user.dailyCompoundBonus < COMPOUND_FOR_NO_TAX_WITHDRAWAL){... */\n    tag_518:\n        /* \"contracts/cropsFarmer.sol\":6035:6050  block.timestamp */\n      timestamp\n        /* \"contracts/cropsFarmer.sol\":6011:6015  user */\n      dup4\n        /* \"contracts/cropsFarmer.sol\":6011:6032  user.lastWithdrawTime */\n      0x0b\n      add\n        /* \"contracts/cropsFarmer.sol\":6011:6050  user.lastWithdrawTime = block.timestamp */\n      dup2\n      swap1\n      sstore\n      pop\n        /* \"contracts/cropsFarmer.sol\":6079:6080  0 */\n      0x00\n        /* \"contracts/cropsFarmer.sol\":6060:6064  user */\n      dup4\n        /* \"contracts/cropsFarmer.sol\":6060:6076  user.claimedEggs */\n      0x03\n      add\n        /* \"contracts/cropsFarmer.sol\":6060:6080  user.claimedEggs = 0 */\n      dup2\n      swap1\n      sstore\n      pop\n        /* \"contracts/cropsFarmer.sol\":6109:6124  block.timestamp */\n      timestamp\n        /* \"contracts/cropsFarmer.sol\":6092:6096  user */\n      dup4\n        /* \"contracts/cropsFarmer.sol\":6092:6106  user.lastHatch */\n      0x04\n      add\n        /* \"contracts/cropsFarmer.sol\":6092:6124  user.lastHatch = block.timestamp */\n      dup2\n      swap1\n      sstore\n      pop\n        /* \"contracts/cropsFarmer.sol\":6147:6195  marketEggs.add(hasEggs.div(MARKET_EGGS_DIVISOR)) */\n      tag_519\n        /* \"contracts/cropsFarmer.sol\":6162:6194  hasEggs.div(MARKET_EGGS_DIVISOR) */\n      tag_520\n        /* \"contracts/cropsFarmer.sol\":6174:6193  MARKET_EGGS_DIVISOR */\n      sload(0x05)\n        /* \"contracts/cropsFarmer.sol\":6162:6169  hasEggs */\n      dup5\n        /* \"contracts/cropsFarmer.sol\":6162:6173  hasEggs.div */\n      tag_417\n      swap1\n        /* \"contracts/cropsFarmer.sol\":6162:6194  hasEggs.div(MARKET_EGGS_DIVISOR) */\n      swap2\n      swap1\n      0xffffffff\n      and\n      jump\t// in\n    tag_520:\n        /* \"contracts/cropsFarmer.sol\":6147:6157  marketEggs */\n      sload(0x12)\n        /* \"contracts/cropsFarmer.sol\":6147:6161  marketEggs.add */\n      tag_405\n      swap1\n        /* \"contracts/cropsFarmer.sol\":6147:6195  marketEggs.add(hasEggs.div(MARKET_EGGS_DIVISOR)) */\n      swap2\n      swap1\n      0xffffffff\n      and\n      jump\t// in\n    tag_519:\n        /* \"contracts/cropsFarmer.sol\":6134:6144  marketEggs */\n      0x12\n        /* \"contracts/cropsFarmer.sol\":6134:6195  marketEggs = marketEggs.add(hasEggs.div(MARKET_EGGS_DIVISOR)) */\n      dup2\n      swap1\n      sstore\n      pop\n        /* \"contracts/cropsFarmer.sol\":6232:6240  eggValue */\n      dup1\n        /* \"contracts/cropsFarmer.sol\":6217:6229  getBalance() */\n      tag_521\n        /* \"contracts/cropsFarmer.sol\":6217:6227  getBalance */\n      tag_108\n        /* \"contracts/cropsFarmer.sol\":6217:6229  getBalance() */\n      jump\t// in\n    tag_521:\n        /* \"contracts/cropsFarmer.sol\":6217:6240  getBalance() < eggValue */\n      lt\n        /* \"contracts/cropsFarmer.sol\":6214:6290  if(getBalance() < eggValue) {... */\n      iszero\n      tag_522\n      jumpi\n        /* \"contracts/cropsFarmer.sol\":6267:6279  getBalance() */\n      tag_523\n        /* \"contracts/cropsFarmer.sol\":6267:6277  getBalance */\n      tag_108\n        /* \"contracts/cropsFarmer.sol\":6267:6279  getBalance() */\n      jump\t// in\n    tag_523:\n        /* \"contracts/cropsFarmer.sol\":6256:6279  eggValue = getBalance() */\n      swap1\n      pop\n        /* \"contracts/cropsFarmer.sol\":6214:6290  if(getBalance() < eggValue) {... */\n    tag_522:\n        /* \"contracts/cropsFarmer.sol\":6300:6318  uint256 eggsPayout */\n      0x00\n        /* \"contracts/cropsFarmer.sol\":6321:6352  eggValue.sub(payFees(eggValue)) */\n      tag_524\n        /* \"contracts/cropsFarmer.sol\":6334:6351  payFees(eggValue) */\n      tag_525\n        /* \"contracts/cropsFarmer.sol\":6342:6350  eggValue */\n      dup4\n        /* \"contracts/cropsFarmer.sol\":6334:6341  payFees */\n      tag_495\n        /* \"contracts/cropsFarmer.sol\":6334:6351  payFees(eggValue) */\n      jump\t// in\n    tag_525:\n        /* \"contracts/cropsFarmer.sol\":6321:6329  eggValue */\n      dup4\n        /* \"contracts/cropsFarmer.sol\":6321:6333  eggValue.sub */\n      tag_410\n      swap1\n        /* \"contracts/cropsFarmer.sol\":6321:6352  eggValue.sub(payFees(eggValue)) */\n      swap2\n      swap1\n      0xffffffff\n      and\n      jump\t// in\n    tag_524:\n        /* \"contracts/cropsFarmer.sol\":6300:6352  uint256 eggsPayout = eggValue.sub(payFees(eggValue)) */\n      swap1\n      pop\n        /* \"contracts/cropsFarmer.sol\":6378:6388  msg.sender */\n      caller\n        /* \"contracts/cropsFarmer.sol\":6362:6399  payable(address(msg.sender)).transfer */\n      0xffffffffffffffffffffffffffffffffffffffff\n      and\n        /* \"contracts/cropsFarmer.sol\":6362:6411  payable(address(msg.sender)).transfer(eggsPayout) */\n      0x08fc\n        /* \"contracts/cropsFarmer.sol\":6400:6410  eggsPayout */\n      dup3\n        /* \"contracts/cropsFarmer.sol\":6362:6411  payable(address(msg.sender)).transfer(eggsPayout) */\n      swap1\n      dup2\n      iszero\n      mul\n      swap1\n      mload(0x40)\n      0x00\n      mload(0x40)\n      dup1\n      dup4\n      sub\n      dup2\n      dup6\n      dup9\n      dup9\n      call\n      swap4\n      pop\n      pop\n      pop\n      pop\n      iszero\n      dup1\n      iszero\n      tag_527\n      jumpi\n      returndatasize\n      0x00\n      dup1\n      returndatacopy\n      revert(0x00, returndatasize)\n    tag_527:\n      pop\n        /* \"contracts/cropsFarmer.sol\":6443:6478  user.totalWithdrawn.add(eggsPayout) */\n      tag_528\n        /* \"contracts/cropsFarmer.sol\":6467:6477  eggsPayout */\n      dup2\n        /* \"contracts/cropsFarmer.sol\":6443:6447  user */\n      dup6\n        /* \"contracts/cropsFarmer.sol\":6443:6462  user.totalWithdrawn */\n      0x08\n      add\n      sload\n        /* \"contracts/cropsFarmer.sol\":6443:6466  user.totalWithdrawn.add */\n      tag_405\n      swap1\n        /* \"contracts/cropsFarmer.sol\":6443:6478  user.totalWithdrawn.add(eggsPayout) */\n      swap2\n      swap1\n      0xffffffff\n      and\n      jump\t// in\n    tag_528:\n        /* \"contracts/cropsFarmer.sol\":6421:6425  user */\n      dup5\n        /* \"contracts/cropsFarmer.sol\":6421:6440  user.totalWithdrawn */\n      0x08\n      add\n        /* \"contracts/cropsFarmer.sol\":6421:6478  user.totalWithdrawn = user.totalWithdrawn.add(eggsPayout) */\n      dup2\n      swap1\n      sstore\n      pop\n        /* \"contracts/cropsFarmer.sol\":6505:6535  totalWithdrawn.add(eggsPayout) */\n      tag_529\n        /* \"contracts/cropsFarmer.sol\":6524:6534  eggsPayout */\n      dup2\n        /* \"contracts/cropsFarmer.sol\":6505:6519  totalWithdrawn */\n      sload(0x11)\n        /* \"contracts/cropsFarmer.sol\":6505:6523  totalWithdrawn.add */\n      tag_405\n      swap1\n        /* \"contracts/cropsFarmer.sol\":6505:6535  totalWithdrawn.add(eggsPayout) */\n      swap2\n      swap1\n      0xffffffff\n      and\n      jump\t// in\n    tag_529:\n        /* \"contracts/cropsFarmer.sol\":6488:6502  totalWithdrawn */\n      0x11\n        /* \"contracts/cropsFarmer.sol\":6488:6535  totalWithdrawn = totalWithdrawn.add(eggsPayout) */\n      dup2\n      swap1\n      sstore\n      pop\n        /* \"contracts/cropsFarmer.sol\":5112:6542  {... */\n      pop\n      pop\n      pop\n      pop\n        /* \"contracts/cropsFarmer.sol\":5085:6542  function sellCrops() public{... */\n      jump\t// out\n        /* \"contracts/cropsFarmer.sol\":325:363  uint256 public MARKET_EGGS_DIVISOR = 2 */\n    tag_209:\n      sload(0x05)\n      dup2\n      jump\t// out\n        /* \"contracts/cropsFarmer.sol\":10114:11100  function getUserInfo(address _adr) public view returns(uint256 _initialDeposit, uint256 _userDeposit, uint256 _miners,... */\n    tag_214:\n        /* \"contracts/cropsFarmer.sol\":10169:10192  uint256 _initialDeposit */\n      0x00\n        /* \"contracts/cropsFarmer.sol\":10194:10214  uint256 _userDeposit */\n      dup1\n        /* \"contracts/cropsFarmer.sol\":10216:10231  uint256 _miners */\n      0x00\n        /* \"contracts/cropsFarmer.sol\":10238:10258  uint256 _claimedEggs */\n      dup1\n        /* \"contracts/cropsFarmer.sol\":10260:10278  uint256 _lastHatch */\n      0x00\n        /* \"contracts/cropsFarmer.sol\":10280:10297  address _referrer */\n      dup1\n        /* \"contracts/cropsFarmer.sol\":10299:10317  uint256 _referrals */\n      0x00\n        /* \"contracts/cropsFarmer.sol\":10321:10344  uint256 _totalWithdrawn */\n      dup1\n        /* \"contracts/cropsFarmer.sol\":10346:10373  uint256 _referralEggRewards */\n      0x00\n        /* \"contracts/cropsFarmer.sol\":10375:10402  uint256 _dailyCompoundBonus */\n      dup1\n        /* \"contracts/cropsFarmer.sol\":10404:10432  uint256 _farmerCompoundCount */\n      0x00\n        /* \"contracts/cropsFarmer.sol\":10434:10459  uint256 _lastWithdrawTime */\n      dup1\n        /* \"contracts/cropsFarmer.sol\":10490:10495  users */\n      0x20\n        /* \"contracts/cropsFarmer.sol\":10490:10501  users[_adr] */\n      0x00\n        /* \"contracts/cropsFarmer.sol\":10496:10500  _adr */\n      dup15\n        /* \"contracts/cropsFarmer.sol\":10490:10501  users[_adr] */\n      0xffffffffffffffffffffffffffffffffffffffff\n      and\n      0xffffffffffffffffffffffffffffffffffffffff\n      and\n      dup2\n      mstore\n      0x20\n      add\n      swap1\n      dup2\n      mstore\n      0x20\n      add\n      0x00\n      keccak256\n        /* \"contracts/cropsFarmer.sol\":10490:10516  users[_adr].initialDeposit */\n      0x00\n      add\n      sload\n        /* \"contracts/cropsFarmer.sol\":10472:10516  _initialDeposit = users[_adr].initialDeposit */\n      swap12\n      pop\n        /* \"contracts/cropsFarmer.sol\":10542:10547  users */\n      0x20\n        /* \"contracts/cropsFarmer.sol\":10542:10553  users[_adr] */\n      0x00\n        /* \"contracts/cropsFarmer.sol\":10548:10552  _adr */\n      dup15\n        /* \"contracts/cropsFarmer.sol\":10542:10553  users[_adr] */\n      0xffffffffffffffffffffffffffffffffffffffff\n      and\n      0xffffffffffffffffffffffffffffffffffffffff\n      and\n      dup2\n      mstore\n      0x20\n      add\n      swap1\n      dup2\n      mstore\n      0x20\n      add\n      0x00\n      keccak256\n        /* \"contracts/cropsFarmer.sol\":10542:10565  users[_adr].userDeposit */\n      0x01\n      add\n      sload\n        /* \"contracts/cropsFarmer.sol\":10527:10565  _userDeposit = users[_adr].userDeposit */\n      swap11\n      pop\n        /* \"contracts/cropsFarmer.sol\":10586:10591  users */\n      0x20\n        /* \"contracts/cropsFarmer.sol\":10586:10597  users[_adr] */\n      0x00\n        /* \"contracts/cropsFarmer.sol\":10592:10596  _adr */\n      dup15\n        /* \"contracts/cropsFarmer.sol\":10586:10597  users[_adr] */\n      0xffffffffffffffffffffffffffffffffffffffff\n      and\n      0xffffffffffffffffffffffffffffffffffffffff\n      and\n      dup2\n      mstore\n      0x20\n      add\n      swap1\n      dup2\n      mstore\n      0x20\n      add\n      0x00\n      keccak256\n        /* \"contracts/cropsFarmer.sol\":10586:10604  users[_adr].miners */\n      0x02\n      add\n      sload\n        /* \"contracts/cropsFarmer.sol\":10576:10604  _miners = users[_adr].miners */\n      swap10\n      pop\n        /* \"contracts/cropsFarmer.sol\":10630:10635  users */\n      0x20\n        /* \"contracts/cropsFarmer.sol\":10630:10641  users[_adr] */\n      0x00\n        /* \"contracts/cropsFarmer.sol\":10636:10640  _adr */\n      dup15\n        /* \"contracts/cropsFarmer.sol\":10630:10641  users[_adr] */\n      0xffffffffffffffffffffffffffffffffffffffff\n      and\n      0xffffffffffffffffffffffffffffffffffffffff\n      and\n      dup2\n      mstore\n      0x20\n      add\n      swap1\n      dup2\n      mstore\n      0x20\n      add\n      0x00\n      keccak256\n        /* \"contracts/cropsFarmer.sol\":10630:10653  users[_adr].claimedEggs */\n      0x03\n      add\n      sload\n        /* \"contracts/cropsFarmer.sol\":10615:10653  _claimedEggs = users[_adr].claimedEggs */\n      swap9\n      pop\n        /* \"contracts/cropsFarmer.sol\":10677:10682  users */\n      0x20\n        /* \"contracts/cropsFarmer.sol\":10677:10688  users[_adr] */\n      0x00\n        /* \"contracts/cropsFarmer.sol\":10683:10687  _adr */\n      dup15\n        /* \"contracts/cropsFarmer.sol\":10677:10688  users[_adr] */\n      0xffffffffffffffffffffffffffffffffffffffff\n      and\n      0xffffffffffffffffffffffffffffffffffffffff\n      and\n      dup2\n      mstore\n      0x20\n      add\n      swap1\n      dup2\n      mstore\n      0x20\n      add\n      0x00\n      keccak256\n        /* \"contracts/cropsFarmer.sol\":10677:10698  users[_adr].lastHatch */\n      0x04\n      add\n      sload\n        /* \"contracts/cropsFarmer.sol\":10664:10698  _lastHatch = users[_adr].lastHatch */\n      swap8\n      pop\n        /* \"contracts/cropsFarmer.sol\":10721:10726  users */\n      0x20\n        /* \"contracts/cropsFarmer.sol\":10721:10732  users[_adr] */\n      0x00\n        /* \"contracts/cropsFarmer.sol\":10727:10731  _adr */\n      dup15\n        /* \"contracts/cropsFarmer.sol\":10721:10732  users[_adr] */\n      0xffffffffffffffffffffffffffffffffffffffff\n      and\n      0xffffffffffffffffffffffffffffffffffffffff\n      and\n      dup2\n      mstore\n      0x20\n      add\n      swap1\n      dup2\n      mstore\n      0x20\n      add\n      0x00\n      keccak256\n        /* \"contracts/cropsFarmer.sol\":10721:10741  users[_adr].referrer */\n      0x05\n      add\n      0x00\n      swap1\n      sload\n      swap1\n      0x0100\n      exp\n      swap1\n      div\n      0xffffffffffffffffffffffffffffffffffffffff\n      and\n        /* \"contracts/cropsFarmer.sol\":10709:10741  _referrer = users[_adr].referrer */\n      swap7\n      pop\n        /* \"contracts/cropsFarmer.sol\":10765:10770  users */\n      0x20\n        /* \"contracts/cropsFarmer.sol\":10765:10776  users[_adr] */\n      0x00\n        /* \"contracts/cropsFarmer.sol\":10771:10775  _adr */\n      dup15\n        /* \"contracts/cropsFarmer.sol\":10765:10776  users[_adr] */\n      0xffffffffffffffffffffffffffffffffffffffff\n      and\n      0xffffffffffffffffffffffffffffffffffffffff\n      and\n      dup2\n      mstore\n      0x20\n      add\n      swap1\n      dup2\n      mstore\n      0x20\n      add\n      0x00\n      keccak256\n        /* \"contracts/cropsFarmer.sol\":10765:10791  users[_adr].referralsCount */\n      0x06\n      add\n      sload\n        /* \"contracts/cropsFarmer.sol\":10752:10791  _referrals = users[_adr].referralsCount */\n      swap6\n      pop\n        /* \"contracts/cropsFarmer.sol\":10820:10825  users */\n      0x20\n        /* \"contracts/cropsFarmer.sol\":10820:10831  users[_adr] */\n      0x00\n        /* \"contracts/cropsFarmer.sol\":10826:10830  _adr */\n      dup15\n        /* \"contracts/cropsFarmer.sol\":10820:10831  users[_adr] */\n      0xffffffffffffffffffffffffffffffffffffffff\n      and\n      0xffffffffffffffffffffffffffffffffffffffff\n      and\n      dup2\n      mstore\n      0x20\n      add\n      swap1\n      dup2\n      mstore\n      0x20\n      add\n      0x00\n      keccak256\n        /* \"contracts/cropsFarmer.sol\":10820:10846  users[_adr].totalWithdrawn */\n      0x08\n      add\n      sload\n        /* \"contracts/cropsFarmer.sol\":10802:10846  _totalWithdrawn = users[_adr].totalWithdrawn */\n      swap5\n      pop\n        /* \"contracts/cropsFarmer.sol\":10879:10884  users */\n      0x20\n        /* \"contracts/cropsFarmer.sol\":10879:10890  users[_adr] */\n      0x00\n        /* \"contracts/cropsFarmer.sol\":10885:10889  _adr */\n      dup15\n        /* \"contracts/cropsFarmer.sol\":10879:10890  users[_adr] */\n      0xffffffffffffffffffffffffffffffffffffffff\n      and\n      0xffffffffffffffffffffffffffffffffffffffff\n      and\n      dup2\n      mstore\n      0x20\n      add\n      swap1\n      dup2\n      mstore\n      0x20\n      add\n      0x00\n      keccak256\n        /* \"contracts/cropsFarmer.sol\":10879:10909  users[_adr].referralEggRewards */\n      0x07\n      add\n      sload\n        /* \"contracts/cropsFarmer.sol\":10857:10909  _referralEggRewards = users[_adr].referralEggRewards */\n      swap4\n      pop\n        /* \"contracts/cropsFarmer.sol\":10942:10947  users */\n      0x20\n        /* \"contracts/cropsFarmer.sol\":10942:10953  users[_adr] */\n      0x00\n        /* \"contracts/cropsFarmer.sol\":10948:10952  _adr */\n      dup15\n        /* \"contracts/cropsFarmer.sol\":10942:10953  users[_adr] */\n      0xffffffffffffffffffffffffffffffffffffffff\n      and\n      0xffffffffffffffffffffffffffffffffffffffff\n      and\n      dup2\n      mstore\n      0x20\n      add\n      swap1\n      dup2\n      mstore\n      0x20\n      add\n      0x00\n      keccak256\n        /* \"contracts/cropsFarmer.sol\":10942:10972  users[_adr].dailyCompoundBonus */\n      0x09\n      add\n      sload\n        /* \"contracts/cropsFarmer.sol\":10920:10972  _dailyCompoundBonus = users[_adr].dailyCompoundBonus */\n      swap3\n      pop\n        /* \"contracts/cropsFarmer.sol\":11006:11011  users */\n      0x20\n        /* \"contracts/cropsFarmer.sol\":11006:11017  users[_adr] */\n      0x00\n        /* \"contracts/cropsFarmer.sol\":11012:11016  _adr */\n      dup15\n        /* \"contracts/cropsFarmer.sol\":11006:11017  users[_adr] */\n      0xffffffffffffffffffffffffffffffffffffffff\n      and\n      0xffffffffffffffffffffffffffffffffffffffff\n      and\n      dup2\n      mstore\n      0x20\n      add\n      swap1\n      dup2\n      mstore\n      0x20\n      add\n      0x00\n      keccak256\n        /* \"contracts/cropsFarmer.sol\":11006:11037  users[_adr].farmerCompoundCount */\n      0x0a\n      add\n      sload\n        /* \"contracts/cropsFarmer.sol\":10983:11037  _farmerCompoundCount = users[_adr].farmerCompoundCount */\n      swap2\n      pop\n        /* \"contracts/cropsFarmer.sol\":11068:11073  users */\n      0x20\n        /* \"contracts/cropsFarmer.sol\":11068:11079  users[_adr] */\n      0x00\n        /* \"contracts/cropsFarmer.sol\":11074:11078  _adr */\n      dup15\n        /* \"contracts/cropsFarmer.sol\":11068:11079  users[_adr] */\n      0xffffffffffffffffffffffffffffffffffffffff\n      and\n      0xffffffffffffffffffffffffffffffffffffffff\n      and\n      dup2\n      mstore\n      0x20\n      add\n      swap1\n      dup2\n      mstore\n      0x20\n      add\n      0x00\n      keccak256\n        /* \"contracts/cropsFarmer.sol\":11068:11096  users[_adr].lastWithdrawTime */\n      0x0b\n      add\n      sload\n        /* \"contracts/cropsFarmer.sol\":11048:11096  _lastWithdrawTime = users[_adr].lastWithdrawTime */\n      swap1\n      pop\n        /* \"contracts/cropsFarmer.sol\":10114:11100  function getUserInfo(address _adr) public view returns(uint256 _initialDeposit, uint256 _userDeposit, uint256 _miners,... */\n      swap2\n      swap4\n      swap6\n      swap8\n      swap10\n      swap12\n      pop\n      swap2\n      swap4\n      swap6\n      swap8\n      swap10\n      swap12\n      jump\t// out\n        /* \"contracts/cropsFarmer.sol\":11306:11514  function getAvailableEarnings(address _adr) public view returns(uint256) {... */\n    tag_220:\n        /* \"contracts/cropsFarmer.sol\":11370:11377  uint256 */\n      0x00\n        /* \"contracts/cropsFarmer.sol\":11389:11405  uint256 userEggs */\n      dup1\n        /* \"contracts/cropsFarmer.sol\":11408:11464  users[_adr].claimedEggs.add(getEggsSinceLastHatch(_adr)) */\n      tag_532\n        /* \"contracts/cropsFarmer.sol\":11436:11463  getEggsSinceLastHatch(_adr) */\n      tag_533\n        /* \"contracts/cropsFarmer.sol\":11458:11462  _adr */\n      dup5\n        /* \"contracts/cropsFarmer.sol\":11436:11457  getEggsSinceLastHatch */\n      tag_359\n        /* \"contracts/cropsFarmer.sol\":11436:11463  getEggsSinceLastHatch(_adr) */\n      jump\t// in\n    tag_533:\n        /* \"contracts/cropsFarmer.sol\":11408:11413  users */\n      0x20\n        /* \"contracts/cropsFarmer.sol\":11408:11419  users[_adr] */\n      0x00\n        /* \"contracts/cropsFarmer.sol\":11414:11418  _adr */\n      dup7\n        /* \"contracts/cropsFarmer.sol\":11408:11419  users[_adr] */\n      0xffffffffffffffffffffffffffffffffffffffff\n      and\n      0xffffffffffffffffffffffffffffffffffffffff\n      and\n      dup2\n      mstore\n      0x20\n      add\n      swap1\n      dup2\n      mstore\n      0x20\n      add\n      0x00\n      keccak256\n        /* \"contracts/cropsFarmer.sol\":11408:11431  users[_adr].claimedEggs */\n      0x03\n      add\n      sload\n        /* \"contracts/cropsFarmer.sol\":11408:11435  users[_adr].claimedEggs.add */\n      tag_405\n      swap1\n        /* \"contracts/cropsFarmer.sol\":11408:11464  users[_adr].claimedEggs.add(getEggsSinceLastHatch(_adr)) */\n      swap2\n      swap1\n      0xffffffff\n      and\n      jump\t// in\n    tag_532:\n        /* \"contracts/cropsFarmer.sol\":11389:11464  uint256 userEggs = users[_adr].claimedEggs.add(getEggsSinceLastHatch(_adr)) */\n      swap1\n      pop\n        /* \"contracts/cropsFarmer.sol\":11481:11507  calculateEggSell(userEggs) */\n      tag_534\n        /* \"contracts/cropsFarmer.sol\":11498:11506  userEggs */\n      dup2\n        /* \"contracts/cropsFarmer.sol\":11481:11497  calculateEggSell */\n      tag_287\n        /* \"contracts/cropsFarmer.sol\":11481:11507  calculateEggSell(userEggs) */\n      jump\t// in\n    tag_534:\n        /* \"contracts/cropsFarmer.sol\":11474:11507  return calculateEggSell(userEggs) */\n      swap2\n      pop\n      pop\n        /* \"contracts/cropsFarmer.sol\":11306:11514  function getAvailableEarnings(address _adr) public view returns(uint256) {... */\n      swap2\n      swap1\n      pop\n      jump\t// out\n        /* \"contracts/cropsFarmer.sol\":268:290  uint256 public TAX = 9 */\n    tag_224:\n      sload(0x03)\n      dup2\n      jump\t// out\n        /* \"contracts/cropsFarmer.sol\":842:870  uint256 public totalRefBonus */\n    tag_228:\n      sload(0x10)\n      dup2\n      jump\t// out\n        /* \"contracts/cropsFarmer.sol\":16473:16669  function BONUS_DAILY_COMPOUND(uint256 value) external {... */\n    tag_233:\n        /* \"contracts/cropsFarmer.sol\":16559:16564  owner */\n      0x19\n      0x00\n      swap1\n      sload\n      swap1\n      0x0100\n      exp\n      swap1\n      div\n      0xffffffffffffffffffffffffffffffffffffffff\n      and\n        /* \"contracts/cropsFarmer.sol\":16545:16564  msg.sender == owner */\n      0xffffffffffffffffffffffffffffffffffffffff\n      and\n        /* \"contracts/cropsFarmer.sol\":16545:16555  msg.sender */\n      caller\n        /* \"contracts/cropsFarmer.sol\":16545:16564  msg.sender == owner */\n      0xffffffffffffffffffffffffffffffffffffffff\n      and\n      eq\n        /* \"contracts/cropsFarmer.sol\":16537:16584  require(msg.sender == owner, \"Admin use only.\") */\n      tag_536\n      jumpi\n      mload(0x40)\n      0x08c379a000000000000000000000000000000000000000000000000000000000\n      dup2\n      mstore\n      0x04\n      add\n      tag_537\n      swap1\n      tag_423\n      jump\t// in\n    tag_537:\n      mload(0x40)\n      dup1\n      swap2\n      sub\n      swap1\n      revert\n    tag_536:\n        /* \"contracts/cropsFarmer.sol\":16611:16613  10 */\n      0x0a\n        /* \"contracts/cropsFarmer.sol\":16602:16607  value */\n      dup2\n        /* \"contracts/cropsFarmer.sol\":16602:16613  value >= 10 */\n      lt\n      iszero\n        /* \"contracts/cropsFarmer.sol\":16602:16629  value >= 10 && value <= 900 */\n      dup1\n      iszero\n      tag_538\n      jumpi\n      pop\n        /* \"contracts/cropsFarmer.sol\":16626:16629  900 */\n      0x0384\n        /* \"contracts/cropsFarmer.sol\":16617:16622  value */\n      dup2\n        /* \"contracts/cropsFarmer.sol\":16617:16629  value <= 900 */\n      gt\n      iszero\n        /* \"contracts/cropsFarmer.sol\":16602:16629  value >= 10 && value <= 900 */\n    tag_538:\n        /* \"contracts/cropsFarmer.sol\":16594:16630  require(value >= 10 && value <= 900) */\n      tag_539\n      jumpi\n      0x00\n      dup1\n      revert\n    tag_539:\n        /* \"contracts/cropsFarmer.sol\":16657:16662  value */\n      dup1\n        /* \"contracts/cropsFarmer.sol\":16640:16654  COMPOUND_BONUS */\n      0x08\n        /* \"contracts/cropsFarmer.sol\":16640:16662  COMPOUND_BONUS = value */\n      dup2\n      swap1\n      sstore\n      pop\n        /* \"contracts/cropsFarmer.sol\":16473:16669  function BONUS_DAILY_COMPOUND(uint256 value) external {... */\n      pop\n      jump\t// out\n        /* \"contracts/cropsFarmer.sol\":589:632  uint256 public COMPOUND_STEP = 12 * 60 * 60 */\n    tag_236:\n      sload(0x0a)\n      dup2\n      jump\t// out\n        /* \"contracts/cropsFarmer.sol\":16094:16282  function PRC_MARKET_EGGS_DIVISOR(uint256 value) external {... */\n    tag_241:\n        /* \"contracts/cropsFarmer.sol\":16183:16188  owner */\n      0x19\n      0x00\n      swap1\n      sload\n      swap1\n      0x0100\n      exp\n      swap1\n      div\n      0xffffffffffffffffffffffffffffffffffffffff\n      and\n        /* \"contracts/cropsFarmer.sol\":16169:16188  msg.sender == owner */\n      0xffffffffffffffffffffffffffffffffffffffff\n      and\n        /* \"contracts/cropsFarmer.sol\":16169:16179  msg.sender */\n      caller\n        /* \"contracts/cropsFarmer.sol\":16169:16188  msg.sender == owner */\n      0xffffffffffffffffffffffffffffffffffffffff\n      and\n      eq\n        /* \"contracts/cropsFarmer.sol\":16161:16208  require(msg.sender == owner, \"Admin use only.\") */\n      tag_541\n      jumpi\n      mload(0x40)\n      0x08c379a000000000000000000000000000000000000000000000000000000000\n      dup2\n      mstore\n      0x04\n      add\n      tag_542\n      swap1\n      tag_423\n      jump\t// in\n    tag_542:\n      mload(0x40)\n      dup1\n      swap2\n      sub\n      swap1\n      revert\n    tag_541:\n        /* \"contracts/cropsFarmer.sol\":16235:16237  50 */\n      0x32\n        /* \"contracts/cropsFarmer.sol\":16226:16231  value */\n      dup2\n        /* \"contracts/cropsFarmer.sol\":16226:16237  value <= 50 */\n      gt\n      iszero\n        /* \"contracts/cropsFarmer.sol\":16218:16238  require(value <= 50) */\n      tag_543\n      jumpi\n      0x00\n      dup1\n      revert\n    tag_543:\n        /* \"contracts/cropsFarmer.sol\":16270:16275  value */\n      dup1\n        /* \"contracts/cropsFarmer.sol\":16248:16267  MARKET_EGGS_DIVISOR */\n      0x05\n        /* \"contracts/cropsFarmer.sol\":16248:16275  MARKET_EGGS_DIVISOR = value */\n      dup2\n      swap1\n      sstore\n      pop\n        /* \"contracts/cropsFarmer.sol\":16094:16282  function PRC_MARKET_EGGS_DIVISOR(uint256 value) external {... */\n      pop\n      jump\t// out\n        /* \"contracts/cropsFarmer.sol\":17239:17390  function SET_CUTOFF_STEP(uint256 value) external {... */\n    tag_245:\n        /* \"contracts/cropsFarmer.sol\":17320:17325  owner */\n      0x19\n      0x00\n      swap1\n      sload\n      swap1\n      0x0100\n      exp\n      swap1\n      div\n      0xffffffffffffffffffffffffffffffffffffffff\n      and\n        /* \"contracts/cropsFarmer.sol\":17306:17325  msg.sender == owner */\n      0xffffffffffffffffffffffffffffffffffffffff\n      and\n        /* \"contracts/cropsFarmer.sol\":17306:17316  msg.sender */\n      caller\n        /* \"contracts/cropsFarmer.sol\":17306:17325  msg.sender == owner */\n      0xffffffffffffffffffffffffffffffffffffffff\n      and\n      eq\n        /* \"contracts/cropsFarmer.sol\":17298:17344  require(msg.sender == owner, \"Admin use only\") */\n      tag_545\n      jumpi\n      mload(0x40)\n      0x08c379a000000000000000000000000000000000000000000000000000000000\n      dup2\n      mstore\n      0x04\n      add\n      tag_546\n      swap1\n      tag_449\n      jump\t// in\n    tag_546:\n      mload(0x40)\n      dup1\n      swap2\n      sub\n      swap1\n      revert\n    tag_545:\n        /* \"contracts/cropsFarmer.sol\":17381:17383  60 */\n      0x3c\n        /* \"contracts/cropsFarmer.sol\":17376:17378  60 */\n      dup1\n        /* \"contracts/cropsFarmer.sol\":17368:17373  value */\n      dup3\n        /* \"contracts/cropsFarmer.sol\":17368:17378  value * 60 */\n      tag_547\n      swap2\n      swap1\n      tag_452\n      jump\t// in\n    tag_547:\n        /* \"contracts/cropsFarmer.sol\":17368:17383  value * 60 * 60 */\n      tag_548\n      swap2\n      swap1\n      tag_452\n      jump\t// in\n    tag_548:\n        /* \"contracts/cropsFarmer.sol\":17354:17365  CUTOFF_STEP */\n      0x17\n        /* \"contracts/cropsFarmer.sol\":17354:17383  CUTOFF_STEP = value * 60 * 60 */\n      dup2\n      swap1\n      sstore\n      pop\n        /* \"contracts/cropsFarmer.sol\":17239:17390  function SET_CUTOFF_STEP(uint256 value) external {... */\n      pop\n      jump\t// out\n        /* \"contracts/cropsFarmer.sol\":1425:1451  address payable public mkt */\n    tag_248:\n      0x1f\n      0x00\n      swap1\n      sload\n      swap1\n      0x0100\n      exp\n      swap1\n      div\n      0xffffffffffffffffffffffffffffffffffffffff\n      and\n      dup2\n      jump\t// out\n        /* \"contracts/cropsFarmer.sol\":774:802  uint256 public totalDeposits */\n    tag_252:\n      sload(0x0e)\n      dup2\n      jump\t// out\n        /* \"contracts/cropsFarmer.sol\":808:836  uint256 public totalCompound */\n    tag_256:\n      sload(0x0f)\n      dup2\n      jump\t// out\n        /* \"contracts/cropsFarmer.sol\":12286:12416  function calculateEggBuySimple(uint256 eth) public view returns(uint256){... */\n    tag_261:\n        /* \"contracts/cropsFarmer.sol\":12350:12357  uint256 */\n      0x00\n        /* \"contracts/cropsFarmer.sol\":12375:12409  calculateEggBuy(eth, getBalance()) */\n      tag_550\n        /* \"contracts/cropsFarmer.sol\":12391:12394  eth */\n      dup3\n        /* \"contracts/cropsFarmer.sol\":12396:12408  getBalance() */\n      tag_551\n        /* \"contracts/cropsFarmer.sol\":12396:12406  getBalance */\n      tag_108\n        /* \"contracts/cropsFarmer.sol\":12396:12408  getBalance() */\n      jump\t// in\n    tag_551:\n        /* \"contracts/cropsFarmer.sol\":12375:12390  calculateEggBuy */\n      tag_142\n        /* \"contracts/cropsFarmer.sol\":12375:12409  calculateEggBuy(eth, getBalance()) */\n      jump\t// in\n    tag_550:\n        /* \"contracts/cropsFarmer.sol\":12368:12409  return calculateEggBuy(eth, getBalance()) */\n      swap1\n      pop\n        /* \"contracts/cropsFarmer.sol\":12286:12416  function calculateEggBuySimple(uint256 eth) public view returns(uint256){... */\n      swap2\n      swap1\n      pop\n      jump\t// out\n        /* \"contracts/cropsFarmer.sol\":17595:17794  function SET_WALLET_DEPOSIT_LIMIT(uint256 value) external {... */\n    tag_266:\n        /* \"contracts/cropsFarmer.sol\":17685:17690  owner */\n      0x19\n      0x00\n      swap1\n      sload\n      swap1\n      0x0100\n      exp\n      swap1\n      div\n      0xffffffffffffffffffffffffffffffffffffffff\n      and\n        /* \"contracts/cropsFarmer.sol\":17671:17690  msg.sender == owner */\n      0xffffffffffffffffffffffffffffffffffffffff\n      and\n        /* \"contracts/cropsFarmer.sol\":17671:17681  msg.sender */\n      caller\n        /* \"contracts/cropsFarmer.sol\":17671:17690  msg.sender == owner */\n      0xffffffffffffffffffffffffffffffffffffffff\n      and\n      eq\n        /* \"contracts/cropsFarmer.sol\":17663:17709  require(msg.sender == owner, \"Admin use only\") */\n      tag_553\n      jumpi\n      mload(0x40)\n      0x08c379a000000000000000000000000000000000000000000000000000000000\n      dup2\n      mstore\n      0x04\n      add\n      tag_554\n      swap1\n      tag_449\n      jump\t// in\n    tag_554:\n      mload(0x40)\n      dup1\n      swap2\n      sub\n      swap1\n      revert\n    tag_553:\n        /* \"contracts/cropsFarmer.sol\":17736:17738  10 */\n      0x0a\n        /* \"contracts/cropsFarmer.sol\":17727:17732  value */\n      dup2\n        /* \"contracts/cropsFarmer.sol\":17727:17738  value >= 10 */\n      lt\n      iszero\n        /* \"contracts/cropsFarmer.sol\":17719:17739  require(value >= 10) */\n      tag_555\n      jumpi\n      0x00\n      dup1\n      revert\n    tag_555:\n        /* \"contracts/cropsFarmer.sol\":17780:17787  1 ether */\n      0x0de0b6b3a7640000\n        /* \"contracts/cropsFarmer.sol\":17772:17777  value */\n      dup2\n        /* \"contracts/cropsFarmer.sol\":17772:17787  value * 1 ether */\n      tag_556\n      swap2\n      swap1\n      tag_452\n      jump\t// in\n    tag_556:\n        /* \"contracts/cropsFarmer.sol\":17749:17769  WALLET_DEPOSIT_LIMIT */\n      0x07\n        /* \"contracts/cropsFarmer.sol\":17749:17787  WALLET_DEPOSIT_LIMIT = value * 1 ether */\n      dup2\n      swap1\n      sstore\n      pop\n        /* \"contracts/cropsFarmer.sol\":17595:17794  function SET_WALLET_DEPOSIT_LIMIT(uint256 value) external {... */\n      pop\n      jump\t// out\n        /* \"contracts/cropsFarmer.sol\":1289:1316  address payable public dev2 */\n    tag_269:\n      0x1b\n      0x00\n      swap1\n      sload\n      swap1\n      0x0100\n      exp\n      swap1\n      div\n      0xffffffffffffffffffffffffffffffffffffffff\n      and\n      dup2\n      jump\t// out\n        /* \"contracts/cropsFarmer.sol\":742:768  uint256 public totalStaked */\n    tag_273:\n      sload(0x0d)\n      dup2\n      jump\t// out\n        /* \"contracts/cropsFarmer.sol\":1390:1419  address payable public prtnr2 */\n    tag_277:\n      0x1e\n      0x00\n      swap1\n      sload\n      swap1\n      0x0100\n      exp\n      swap1\n      div\n      0xffffffffffffffffffffffffffffffffffffffff\n      and\n      dup2\n      jump\t// out\n        /* \"contracts/cropsFarmer.sol\":1230:1250  address public owner */\n    tag_281:\n      0x19\n      0x00\n      swap1\n      sload\n      swap1\n      0x0100\n      exp\n      swap1\n      div\n      0xffffffffffffffffffffffffffffffffffffffff\n      and\n      dup2\n      jump\t// out\n        /* \"contracts/cropsFarmer.sol\":11974:12112  function calculateEggSell(uint256 eggs) public view returns(uint256){... */\n    tag_287:\n        /* \"contracts/cropsFarmer.sol\":12034:12041  uint256 */\n      0x00\n        /* \"contracts/cropsFarmer.sol\":12059:12105  calculateTrade(eggs, marketEggs, getBalance()) */\n      tag_558\n        /* \"contracts/cropsFarmer.sol\":12074:12078  eggs */\n      dup3\n        /* \"contracts/cropsFarmer.sol\":12080:12090  marketEggs */\n      sload(0x12)\n        /* \"contracts/cropsFarmer.sol\":12092:12104  getBalance() */\n      tag_559\n        /* \"contracts/cropsFarmer.sol\":12092:12102  getBalance */\n      tag_108\n        /* \"contracts/cropsFarmer.sol\":12092:12104  getBalance() */\n      jump\t// in\n    tag_559:\n        /* \"contracts/cropsFarmer.sol\":12059:12073  calculateTrade */\n      tag_132\n        /* \"contracts/cropsFarmer.sol\":12059:12105  calculateTrade(eggs, marketEggs, getBalance()) */\n      jump\t// in\n    tag_558:\n        /* \"contracts/cropsFarmer.sol\":12052:12105  return calculateTrade(eggs, marketEggs, getBalance()) */\n      swap1\n      pop\n        /* \"contracts/cropsFarmer.sol\":11974:12112  function calculateEggSell(uint256 eggs) public view returns(uint256){... */\n      swap2\n      swap1\n      pop\n      jump\t// out\n        /* \"contracts/cropsFarmer.sol\":1157:1203  uint256 public WITHDRAW_COOLDOWN = 4 * 60 * 60 */\n    tag_291:\n      sload(0x18)\n      dup2\n      jump\t// out\n        /* \"contracts/cropsFarmer.sol\":16887:17075  function BONUS_COMPOUND_STEP(uint256 value) external {... */\n    tag_296:\n        /* \"contracts/cropsFarmer.sol\":16972:16977  owner */\n      0x19\n      0x00\n      swap1\n      sload\n      swap1\n      0x0100\n      exp\n      swap1\n      div\n      0xffffffffffffffffffffffffffffffffffffffff\n      and\n        /* \"contracts/cropsFarmer.sol\":16958:16977  msg.sender == owner */\n      0xffffffffffffffffffffffffffffffffffffffff\n      and\n        /* \"contracts/cropsFarmer.sol\":16958:16968  msg.sender */\n      caller\n        /* \"contracts/cropsFarmer.sol\":16958:16977  msg.sender == owner */\n      0xffffffffffffffffffffffffffffffffffffffff\n      and\n      eq\n        /* \"contracts/cropsFarmer.sol\":16950:16997  require(msg.sender == owner, \"Admin use only.\") */\n      tag_561\n      jumpi\n      mload(0x40)\n      0x08c379a000000000000000000000000000000000000000000000000000000000\n      dup2\n      mstore\n      0x04\n      add\n      tag_562\n      swap1\n      tag_423\n      jump\t// in\n    tag_562:\n      mload(0x40)\n      dup1\n      swap2\n      sub\n      swap1\n      revert\n    tag_561:\n        /* \"contracts/cropsFarmer.sol\":17024:17026  24 */\n      0x18\n        /* \"contracts/cropsFarmer.sol\":17015:17020  value */\n      dup2\n        /* \"contracts/cropsFarmer.sol\":17015:17026  value <= 24 */\n      gt\n      iszero\n        /* \"contracts/cropsFarmer.sol\":17007:17027  require(value <= 24) */\n      tag_563\n      jumpi\n      0x00\n      dup1\n      revert\n    tag_563:\n        /* \"contracts/cropsFarmer.sol\":17066:17068  60 */\n      0x3c\n        /* \"contracts/cropsFarmer.sol\":17061:17063  60 */\n      dup1\n        /* \"contracts/cropsFarmer.sol\":17053:17058  value */\n      dup3\n        /* \"contracts/cropsFarmer.sol\":17053:17063  value * 60 */\n      tag_564\n      swap2\n      swap1\n      tag_452\n      jump\t// in\n    tag_564:\n        /* \"contracts/cropsFarmer.sol\":17053:17068  value * 60 * 60 */\n      tag_565\n      swap2\n      swap1\n      tag_452\n      jump\t// in\n    tag_565:\n        /* \"contracts/cropsFarmer.sol\":17037:17050  COMPOUND_STEP */\n      0x0a\n        /* \"contracts/cropsFarmer.sol\":17037:17068  COMPOUND_STEP = value * 60 * 60 */\n      dup2\n      swap1\n      sstore\n      pop\n        /* \"contracts/cropsFarmer.sol\":16887:17075  function BONUS_COMPOUND_STEP(uint256 value) external {... */\n      pop\n      jump\t// out\n        /* \"contracts/cropsFarmer.sol\":16675:16881  function BONUS_DAILY_COMPOUND_BONUS_MAX_TIMES(uint256 value) external {... */\n    tag_300:\n        /* \"contracts/cropsFarmer.sol\":16777:16782  owner */\n      0x19\n      0x00\n      swap1\n      sload\n      swap1\n      0x0100\n      exp\n      swap1\n      div\n      0xffffffffffffffffffffffffffffffffffffffff\n      and\n        /* \"contracts/cropsFarmer.sol\":16763:16782  msg.sender == owner */\n      0xffffffffffffffffffffffffffffffffffffffff\n      and\n        /* \"contracts/cropsFarmer.sol\":16763:16773  msg.sender */\n      caller\n        /* \"contracts/cropsFarmer.sol\":16763:16782  msg.sender == owner */\n      0xffffffffffffffffffffffffffffffffffffffff\n      and\n      eq\n        /* \"contracts/cropsFarmer.sol\":16755:16802  require(msg.sender == owner, \"Admin use only.\") */\n      tag_567\n      jumpi\n      mload(0x40)\n      0x08c379a000000000000000000000000000000000000000000000000000000000\n      dup2\n      mstore\n      0x04\n      add\n      tag_568\n      swap1\n      tag_423\n      jump\t// in\n    tag_568:\n      mload(0x40)\n      dup1\n      swap2\n      sub\n      swap1\n      revert\n    tag_567:\n        /* \"contracts/cropsFarmer.sol\":16829:16831  30 */\n      0x1e\n        /* \"contracts/cropsFarmer.sol\":16820:16825  value */\n      dup2\n        /* \"contracts/cropsFarmer.sol\":16820:16831  value <= 30 */\n      gt\n      iszero\n        /* \"contracts/cropsFarmer.sol\":16812:16832  require(value <= 30) */\n      tag_569\n      jumpi\n      0x00\n      dup1\n      revert\n    tag_569:\n        /* \"contracts/cropsFarmer.sol\":16869:16874  value */\n      dup1\n        /* \"contracts/cropsFarmer.sol\":16842:16866  COMPOUND_BONUS_MAX_TIMES */\n      0x09\n        /* \"contracts/cropsFarmer.sol\":16842:16874  COMPOUND_BONUS_MAX_TIMES = value */\n      dup2\n      swap1\n      sstore\n      pop\n        /* \"contracts/cropsFarmer.sol\":16675:16881  function BONUS_DAILY_COMPOUND_BONUS_MAX_TIMES(uint256 value) external {... */\n      pop\n      jump\t// out\n        /* \"contracts/cropsFarmer.sol\":2605:2754  function setblacklistActive(bool isActive) public{... */\n    tag_304:\n        /* \"contracts/cropsFarmer.sol\":2686:2691  owner */\n      0x19\n      0x00\n      swap1\n      sload\n      swap1\n      0x0100\n      exp\n      swap1\n      div\n      0xffffffffffffffffffffffffffffffffffffffff\n      and\n        /* \"contracts/cropsFarmer.sol\":2672:2691  msg.sender == owner */\n      0xffffffffffffffffffffffffffffffffffffffff\n      and\n        /* \"contracts/cropsFarmer.sol\":2672:2682  msg.sender */\n      caller\n        /* \"contracts/cropsFarmer.sol\":2672:2691  msg.sender == owner */\n      0xffffffffffffffffffffffffffffffffffffffff\n      and\n      eq\n        /* \"contracts/cropsFarmer.sol\":2664:2711  require(msg.sender == owner, \"Admin use only.\") */\n      tag_571\n      jumpi\n      mload(0x40)\n      0x08c379a000000000000000000000000000000000000000000000000000000000\n      dup2\n      mstore\n      0x04\n      add\n      tag_572\n      swap1\n      tag_423\n      jump\t// in\n    tag_572:\n      mload(0x40)\n      dup1\n      swap2\n      sub\n      swap1\n      revert\n    tag_571:\n        /* \"contracts/cropsFarmer.sol\":2739:2747  isActive */\n      dup1\n        /* \"contracts/cropsFarmer.sol\":2721:2736  blacklistActive */\n      0x15\n      0x01\n        /* \"contracts/cropsFarmer.sol\":2721:2747  blacklistActive = isActive */\n      0x0100\n      exp\n      dup2\n      sload\n      dup2\n      0xff\n      mul\n      not\n      and\n      swap1\n      dup4\n      iszero\n      iszero\n      mul\n      or\n      swap1\n      sstore\n      pop\n        /* \"contracts/cropsFarmer.sol\":2605:2754  function setblacklistActive(bool isActive) public{... */\n      pop\n      jump\t// out\n        /* \"contracts/cropsFarmer.sol\":1256:1283  address payable public dev1 */\n    tag_307:\n      0x1a\n      0x00\n      swap1\n      sload\n      swap1\n      0x0100\n      exp\n      swap1\n      div\n      0xffffffffffffffffffffffffffffffffffffffff\n      and\n      dup2\n      jump\t// out\n        /* \"contracts/cropsFarmer.sol\":1916:1953  mapping(address => User) public users */\n    tag_312:\n      0x20\n      dup1\n      mstore\n      dup1\n      0x00\n      mstore\n      keccak256(0x00, 0x40)\n      0x00\n      swap2\n      pop\n      swap1\n      pop\n      dup1\n      0x00\n      add\n      sload\n      swap1\n      dup1\n      0x01\n      add\n      sload\n      swap1\n      dup1\n      0x02\n      add\n      sload\n      swap1\n      dup1\n      0x03\n      add\n      sload\n      swap1\n      dup1\n      0x04\n      add\n      sload\n      swap1\n      dup1\n      0x05\n      add\n      0x00\n      swap1\n      sload\n      swap1\n      0x0100\n      exp\n      swap1\n      div\n      0xffffffffffffffffffffffffffffffffffffffff\n      and\n      swap1\n      dup1\n      0x06\n      add\n      sload\n      swap1\n      dup1\n      0x07\n      add\n      sload\n      swap1\n      dup1\n      0x08\n      add\n      sload\n      swap1\n      dup1\n      0x09\n      add\n      sload\n      swap1\n      dup1\n      0x0a\n      add\n      sload\n      swap1\n      dup1\n      0x0b\n      add\n      sload\n      swap1\n      pop\n      dup13\n      jump\t// out\n        /* \"contracts/cropsFarmer.sol\":1026:1060  bool public blacklistActive = true */\n    tag_316:\n      0x15\n      0x01\n      swap1\n      sload\n      swap1\n      0x0100\n      exp\n      swap1\n      div\n      0xff\n      and\n      dup2\n      jump\t// out\n        /* \"contracts/cropsFarmer.sol\":3776:3819  function fundContract() external payable {} */\n    tag_319:\n      jump\t// out\n        /* \"contracts/cropsFarmer.sol\":12506:12939  function getEggsYield(uint256 amount) public view returns(uint256,uint256) {... */\n    tag_323:\n        /* \"contracts/cropsFarmer.sol\":12564:12571  uint256 */\n      0x00\n        /* \"contracts/cropsFarmer.sol\":12572:12579  uint256 */\n      dup1\n        /* \"contracts/cropsFarmer.sol\":12591:12609  uint256 eggsAmount */\n      0x00\n        /* \"contracts/cropsFarmer.sol\":12612:12674  calculateEggBuy(amount , getBalance().add(amount).sub(amount)) */\n      tag_575\n        /* \"contracts/cropsFarmer.sol\":12628:12634  amount */\n      dup5\n        /* \"contracts/cropsFarmer.sol\":12637:12673  getBalance().add(amount).sub(amount) */\n      tag_576\n        /* \"contracts/cropsFarmer.sol\":12666:12672  amount */\n      dup7\n        /* \"contracts/cropsFarmer.sol\":12637:12661  getBalance().add(amount) */\n      tag_577\n        /* \"contracts/cropsFarmer.sol\":12654:12660  amount */\n      dup9\n        /* \"contracts/cropsFarmer.sol\":12637:12649  getBalance() */\n      tag_578\n        /* \"contracts/cropsFarmer.sol\":12637:12647  getBalance */\n      tag_108\n        /* \"contracts/cropsFarmer.sol\":12637:12649  getBalance() */\n      jump\t// in\n    tag_578:\n        /* \"contracts/cropsFarmer.sol\":12637:12653  getBalance().add */\n      tag_405\n      swap1\n        /* \"contracts/cropsFarmer.sol\":12637:12661  getBalance().add(amount) */\n      swap2\n      swap1\n      0xffffffff\n      and\n      jump\t// in\n    tag_577:\n        /* \"contracts/cropsFarmer.sol\":12637:12665  getBalance().add(amount).sub */\n      tag_410\n      swap1\n        /* \"contracts/cropsFarmer.sol\":12637:12673  getBalance().add(amount).sub(amount) */\n      swap2\n      swap1\n      0xffffffff\n      and\n      jump\t// in\n    tag_576:\n        /* \"contracts/cropsFarmer.sol\":12612:12627  calculateEggBuy */\n      tag_142\n        /* \"contracts/cropsFarmer.sol\":12612:12674  calculateEggBuy(amount , getBalance().add(amount).sub(amount)) */\n      jump\t// in\n    tag_575:\n        /* \"contracts/cropsFarmer.sol\":12591:12674  uint256 eggsAmount = calculateEggBuy(amount , getBalance().add(amount).sub(amount)) */\n      swap1\n      pop\n        /* \"contracts/cropsFarmer.sol\":12684:12698  uint256 miners */\n      0x00\n        /* \"contracts/cropsFarmer.sol\":12701:12737  eggsAmount.div(EGGS_TO_HIRE_1MINERS) */\n      tag_579\n        /* \"contracts/cropsFarmer.sol\":12716:12736  EGGS_TO_HIRE_1MINERS */\n      sload(0x00)\n        /* \"contracts/cropsFarmer.sol\":12701:12711  eggsAmount */\n      dup4\n        /* \"contracts/cropsFarmer.sol\":12701:12715  eggsAmount.div */\n      tag_417\n      swap1\n        /* \"contracts/cropsFarmer.sol\":12701:12737  eggsAmount.div(EGGS_TO_HIRE_1MINERS) */\n      swap2\n      swap1\n      0xffffffff\n      and\n      jump\t// in\n    tag_579:\n        /* \"contracts/cropsFarmer.sol\":12684:12737  uint256 miners = eggsAmount.div(EGGS_TO_HIRE_1MINERS) */\n      swap1\n      pop\n        /* \"contracts/cropsFarmer.sol\":12747:12758  uint256 day */\n      0x00\n        /* \"contracts/cropsFarmer.sol\":12761:12767  1 days */\n      0x015180\n        /* \"contracts/cropsFarmer.sol\":12747:12767  uint256 day = 1 days */\n      swap1\n      pop\n        /* \"contracts/cropsFarmer.sol\":12777:12795  uint256 eggsPerDay */\n      0x00\n        /* \"contracts/cropsFarmer.sol\":12798:12813  day.mul(miners) */\n      tag_580\n        /* \"contracts/cropsFarmer.sol\":12806:12812  miners */\n      dup4\n        /* \"contracts/cropsFarmer.sol\":12798:12801  day */\n      dup4\n        /* \"contracts/cropsFarmer.sol\":12798:12805  day.mul */\n      tag_428\n      swap1\n        /* \"contracts/cropsFarmer.sol\":12798:12813  day.mul(miners) */\n      swap2\n      swap1\n      0xffffffff\n      and\n      jump\t// in\n    tag_580:\n        /* \"contracts/cropsFarmer.sol\":12777:12813  uint256 eggsPerDay = day.mul(miners) */\n      swap1\n      pop\n        /* \"contracts/cropsFarmer.sol\":12823:12845  uint256 earningsPerDay */\n      0x00\n        /* \"contracts/cropsFarmer.sol\":12848:12892  calculateEggSellForYield(eggsPerDay, amount) */\n      tag_581\n        /* \"contracts/cropsFarmer.sol\":12873:12883  eggsPerDay */\n      dup3\n        /* \"contracts/cropsFarmer.sol\":12885:12891  amount */\n      dup10\n        /* \"contracts/cropsFarmer.sol\":12848:12872  calculateEggSellForYield */\n      tag_346\n        /* \"contracts/cropsFarmer.sol\":12848:12892  calculateEggSellForYield(eggsPerDay, amount) */\n      jump\t// in\n    tag_581:\n        /* \"contracts/cropsFarmer.sol\":12823:12892  uint256 earningsPerDay = calculateEggSellForYield(eggsPerDay, amount) */\n      swap1\n      pop\n        /* \"contracts/cropsFarmer.sol\":12909:12915  miners */\n      dup4\n        /* \"contracts/cropsFarmer.sol\":12917:12931  earningsPerDay */\n      dup2\n        /* \"contracts/cropsFarmer.sol\":12902:12932  return(miners, earningsPerDay) */\n      swap7\n      pop\n      swap7\n      pop\n      pop\n      pop\n      pop\n      pop\n      pop\n        /* \"contracts/cropsFarmer.sol\":12506:12939  function getEggsYield(uint256 amount) public view returns(uint256,uint256) {... */\n      swap2\n      pop\n      swap2\n      jump\t// out\n        /* \"contracts/cropsFarmer.sol\":16288:16467  function SET_WITHDRAWAL_TAX(uint256 value) external {... */\n    tag_329:\n        /* \"contracts/cropsFarmer.sol\":16372:16377  owner */\n      0x19\n      0x00\n      swap1\n      sload\n      swap1\n      0x0100\n      exp\n      swap1\n      div\n      0xffffffffffffffffffffffffffffffffffffffff\n      and\n        /* \"contracts/cropsFarmer.sol\":16358:16377  msg.sender == owner */\n      0xffffffffffffffffffffffffffffffffffffffff\n      and\n        /* \"contracts/cropsFarmer.sol\":16358:16368  msg.sender */\n      caller\n        /* \"contracts/cropsFarmer.sol\":16358:16377  msg.sender == owner */\n      0xffffffffffffffffffffffffffffffffffffffff\n      and\n      eq\n        /* \"contracts/cropsFarmer.sol\":16350:16397  require(msg.sender == owner, \"Admin use only.\") */\n      tag_583\n      jumpi\n      mload(0x40)\n      0x08c379a000000000000000000000000000000000000000000000000000000000\n      dup2\n      mstore\n      0x04\n      add\n      tag_584\n      swap1\n      tag_423\n      jump\t// in\n    tag_584:\n      mload(0x40)\n      dup1\n      swap2\n      sub\n      swap1\n      revert\n    tag_583:\n        /* \"contracts/cropsFarmer.sol\":16424:16427  900 */\n      0x0384\n        /* \"contracts/cropsFarmer.sol\":16415:16420  value */\n      dup2\n        /* \"contracts/cropsFarmer.sol\":16415:16427  value <= 900 */\n      gt\n      iszero\n        /* \"contracts/cropsFarmer.sol\":16407:16428  require(value <= 900) */\n      tag_585\n      jumpi\n      0x00\n      dup1\n      revert\n    tag_585:\n        /* \"contracts/cropsFarmer.sol\":16455:16460  value */\n      dup1\n        /* \"contracts/cropsFarmer.sol\":16438:16452  WITHDRAWAL_TAX */\n      0x0b\n        /* \"contracts/cropsFarmer.sol\":16438:16460  WITHDRAWAL_TAX = value */\n      dup2\n      swap1\n      sstore\n      pop\n        /* \"contracts/cropsFarmer.sol\":16288:16467  function SET_WITHDRAWAL_TAX(uint256 value) external {... */\n      pop\n      jump\t// out\n        /* \"contracts/cropsFarmer.sol\":3210:3398  function checkIfBlacklisted(address Wallet) public view returns(bool blacklisted){... */\n    tag_333:\n        /* \"contracts/cropsFarmer.sol\":3274:3290  bool blacklisted */\n      0x00\n        /* \"contracts/cropsFarmer.sol\":3323:3328  owner */\n      0x19\n      0x00\n      swap1\n      sload\n      swap1\n      0x0100\n      exp\n      swap1\n      div\n      0xffffffffffffffffffffffffffffffffffffffff\n      and\n        /* \"contracts/cropsFarmer.sol\":3309:3328  msg.sender == owner */\n      0xffffffffffffffffffffffffffffffffffffffff\n      and\n        /* \"contracts/cropsFarmer.sol\":3309:3319  msg.sender */\n      caller\n        /* \"contracts/cropsFarmer.sol\":3309:3328  msg.sender == owner */\n      0xffffffffffffffffffffffffffffffffffffffff\n      and\n      eq\n        /* \"contracts/cropsFarmer.sol\":3301:3348  require(msg.sender == owner, \"Admin use only.\") */\n      tag_587\n      jumpi\n      mload(0x40)\n      0x08c379a000000000000000000000000000000000000000000000000000000000\n      dup2\n      mstore\n      0x04\n      add\n      tag_588\n      swap1\n      tag_423\n      jump\t// in\n    tag_588:\n      mload(0x40)\n      dup1\n      swap2\n      sub\n      swap1\n      revert\n    tag_587:\n        /* \"contracts/cropsFarmer.sol\":3372:3383  Blacklisted */\n      0x16\n        /* \"contracts/cropsFarmer.sol\":3372:3391  Blacklisted[Wallet] */\n      0x00\n        /* \"contracts/cropsFarmer.sol\":3384:3390  Wallet */\n      dup4\n        /* \"contracts/cropsFarmer.sol\":3372:3391  Blacklisted[Wallet] */\n      0xffffffffffffffffffffffffffffffffffffffff\n      and\n      0xffffffffffffffffffffffffffffffffffffffff\n      and\n      dup2\n      mstore\n      0x20\n      add\n      swap1\n      dup2\n      mstore\n      0x20\n      add\n      0x00\n      keccak256\n      0x00\n      swap1\n      sload\n      swap1\n      0x0100\n      exp\n      swap1\n      div\n      0xff\n      and\n        /* \"contracts/cropsFarmer.sol\":3358:3391  blacklisted = Blacklisted[Wallet] */\n      swap1\n      pop\n        /* \"contracts/cropsFarmer.sol\":3210:3398  function checkIfBlacklisted(address Wallet) public view returns(bool blacklisted){... */\n      swap2\n      swap1\n      pop\n      jump\t// out\n        /* \"contracts/cropsFarmer.sol\":190:218  uint256 public REFERRAL = 70 */\n    tag_337:\n      sload(0x01)\n      dup2\n      jump\t// out\n        /* \"contracts/cropsFarmer.sol\":539:583  uint256 public COMPOUND_BONUS_MAX_TIMES = 10 */\n    tag_341:\n      sload(0x09)\n      dup2\n      jump\t// out\n        /* \"contracts/cropsFarmer.sol\":12945:13117  function calculateEggSellForYield(uint256 eggs,uint256 amount) public view returns(uint256){... */\n    tag_346:\n        /* \"contracts/cropsFarmer.sol\":13028:13035  uint256 */\n      0x00\n        /* \"contracts/cropsFarmer.sol\":13053:13110  calculateTrade(eggs,marketEggs, getBalance().add(amount)) */\n      tag_590\n        /* \"contracts/cropsFarmer.sol\":13068:13072  eggs */\n      dup4\n        /* \"contracts/cropsFarmer.sol\":13073:13083  marketEggs */\n      sload(0x12)\n        /* \"contracts/cropsFarmer.sol\":13085:13109  getBalance().add(amount) */\n      tag_591\n        /* \"contracts/cropsFarmer.sol\":13102:13108  amount */\n      dup6\n        /* \"contracts/cropsFarmer.sol\":13085:13097  getBalance() */\n      tag_592\n        /* \"contracts/cropsFarmer.sol\":13085:13095  getBalance */\n      tag_108\n        /* \"contracts/cropsFarmer.sol\":13085:13097  getBalance() */\n      jump\t// in\n    tag_592:\n        /* \"contracts/cropsFarmer.sol\":13085:13101  getBalance().add */\n      tag_405\n      swap1\n        /* \"contracts/cropsFarmer.sol\":13085:13109  getBalance().add(amount) */\n      swap2\n      swap1\n      0xffffffff\n      and\n      jump\t// in\n    tag_591:\n        /* \"contracts/cropsFarmer.sol\":13053:13067  calculateTrade */\n      tag_132\n        /* \"contracts/cropsFarmer.sol\":13053:13110  calculateTrade(eggs,marketEggs, getBalance().add(amount)) */\n      jump\t// in\n    tag_590:\n        /* \"contracts/cropsFarmer.sol\":13046:13110  return calculateTrade(eggs,marketEggs, getBalance().add(amount)) */\n      swap1\n      pop\n        /* \"contracts/cropsFarmer.sol\":12945:13117  function calculateEggSellForYield(uint256 eggs,uint256 amount) public view returns(uint256){... */\n      swap3\n      swap2\n      pop\n      pop\n      jump\t// out\n        /* \"contracts/cropsFarmer.sol\":370:412  uint256 public MIN_INVEST_LIMIT = 1 * 1e17 */\n    tag_350:\n      sload(0x06)\n      dup2\n      jump\t// out\n        /* \"contracts/cropsFarmer.sol\":502:536  uint256 public COMPOUND_BONUS = 20 */\n    tag_354:\n      sload(0x08)\n      dup2\n      jump\t// out\n        /* \"contracts/cropsFarmer.sol\":13601:14007  function getEggsSinceLastHatch(address adr) public view returns(uint256){... */\n    tag_359:\n        /* \"contracts/cropsFarmer.sol\":13665:13672  uint256 */\n      0x00\n        /* \"contracts/cropsFarmer.sol\":13683:13712  uint256 secondsSinceLastHatch */\n      dup1\n        /* \"contracts/cropsFarmer.sol\":13715:13756  block.timestamp.sub(users[adr].lastHatch) */\n      tag_594\n        /* \"contracts/cropsFarmer.sol\":13735:13740  users */\n      0x20\n        /* \"contracts/cropsFarmer.sol\":13735:13745  users[adr] */\n      0x00\n        /* \"contracts/cropsFarmer.sol\":13741:13744  adr */\n      dup6\n        /* \"contracts/cropsFarmer.sol\":13735:13745  users[adr] */\n      0xffffffffffffffffffffffffffffffffffffffff\n      and\n      0xffffffffffffffffffffffffffffffffffffffff\n      and\n      dup2\n      mstore\n      0x20\n      add\n      swap1\n      dup2\n      mstore\n      0x20\n      add\n      0x00\n      keccak256\n        /* \"contracts/cropsFarmer.sol\":13735:13755  users[adr].lastHatch */\n      0x04\n      add\n      sload\n        /* \"contracts/cropsFarmer.sol\":13715:13730  block.timestamp */\n      timestamp\n        /* \"contracts/cropsFarmer.sol\":13715:13734  block.timestamp.sub */\n      tag_410\n      swap1\n        /* \"contracts/cropsFarmer.sol\":13715:13756  block.timestamp.sub(users[adr].lastHatch) */\n      swap2\n      swap1\n      0xffffffff\n      and\n      jump\t// in\n    tag_594:\n        /* \"contracts/cropsFarmer.sol\":13683:13756  uint256 secondsSinceLastHatch = block.timestamp.sub(users[adr].lastHatch) */\n      swap1\n      pop\n        /* \"contracts/cropsFarmer.sol\":13816:13834  uint256 cutoffTime */\n      0x00\n        /* \"contracts/cropsFarmer.sol\":13837:13876  min(secondsSinceLastHatch, CUTOFF_STEP) */\n      tag_595\n        /* \"contracts/cropsFarmer.sol\":13841:13862  secondsSinceLastHatch */\n      dup3\n        /* \"contracts/cropsFarmer.sol\":13864:13875  CUTOFF_STEP */\n      sload(0x17)\n        /* \"contracts/cropsFarmer.sol\":13837:13840  min */\n      tag_596\n        /* \"contracts/cropsFarmer.sol\":13837:13876  min(secondsSinceLastHatch, CUTOFF_STEP) */\n      jump\t// in\n    tag_595:\n        /* \"contracts/cropsFarmer.sol\":13816:13876  uint256 cutoffTime = min(secondsSinceLastHatch, CUTOFF_STEP) */\n      swap1\n      pop\n        /* \"contracts/cropsFarmer.sol\":13886:13907  uint256 secondsPassed */\n      0x00\n        /* \"contracts/cropsFarmer.sol\":13910:13947  min(EGGS_TO_HIRE_1MINERS, cutoffTime) */\n      tag_597\n        /* \"contracts/cropsFarmer.sol\":13914:13934  EGGS_TO_HIRE_1MINERS */\n      sload(0x00)\n        /* \"contracts/cropsFarmer.sol\":13936:13946  cutoffTime */\n      dup4\n        /* \"contracts/cropsFarmer.sol\":13910:13913  min */\n      tag_596\n        /* \"contracts/cropsFarmer.sol\":13910:13947  min(EGGS_TO_HIRE_1MINERS, cutoffTime) */\n      jump\t// in\n    tag_597:\n        /* \"contracts/cropsFarmer.sol\":13886:13947  uint256 secondsPassed = min(EGGS_TO_HIRE_1MINERS, cutoffTime) */\n      swap1\n      pop\n        /* \"contracts/cropsFarmer.sol\":13964:14000  secondsPassed.mul(users[adr].miners) */\n      tag_598\n        /* \"contracts/cropsFarmer.sol\":13982:13987  users */\n      0x20\n        /* \"contracts/cropsFarmer.sol\":13982:13992  users[adr] */\n      0x00\n        /* \"contracts/cropsFarmer.sol\":13988:13991  adr */\n      dup8\n        /* \"contracts/cropsFarmer.sol\":13982:13992  users[adr] */\n      0xffffffffffffffffffffffffffffffffffffffff\n      and\n      0xffffffffffffffffffffffffffffffffffffffff\n      and\n      dup2\n      mstore\n      0x20\n      add\n      swap1\n      dup2\n      mstore\n      0x20\n      add\n      0x00\n      keccak256\n        /* \"contracts/cropsFarmer.sol\":13982:13999  users[adr].miners */\n      0x02\n      add\n      sload\n        /* \"contracts/cropsFarmer.sol\":13964:13977  secondsPassed */\n      dup3\n        /* \"contracts/cropsFarmer.sol\":13964:13981  secondsPassed.mul */\n      tag_428\n      swap1\n        /* \"contracts/cropsFarmer.sol\":13964:14000  secondsPassed.mul(users[adr].miners) */\n      swap2\n      swap1\n      0xffffffff\n      and\n      jump\t// in\n    tag_598:\n        /* \"contracts/cropsFarmer.sol\":13957:14000  return secondsPassed.mul(users[adr].miners) */\n      swap4\n      pop\n      pop\n      pop\n      pop\n        /* \"contracts/cropsFarmer.sol\":13601:14007  function getEggsSinceLastHatch(address adr) public view returns(uint256){... */\n      swap2\n      swap1\n      pop\n      jump\t// out\n        /* \"contracts/cropsFarmer.sol\":2760:2936  function blackListWallet(address Wallet, bool isBlacklisted) public{... */\n    tag_365:\n        /* \"contracts/cropsFarmer.sol\":2859:2864  owner */\n      0x19\n      0x00\n      swap1\n      sload\n      swap1\n      0x0100\n      exp\n      swap1\n      div\n      0xffffffffffffffffffffffffffffffffffffffff\n      and\n        /* \"contracts/cropsFarmer.sol\":2845:2864  msg.sender == owner */\n      0xffffffffffffffffffffffffffffffffffffffff\n      and\n        /* \"contracts/cropsFarmer.sol\":2845:2855  msg.sender */\n      caller\n        /* \"contracts/cropsFarmer.sol\":2845:2864  msg.sender == owner */\n      0xffffffffffffffffffffffffffffffffffffffff\n      and\n      eq\n        /* \"contracts/cropsFarmer.sol\":2837:2884  require(msg.sender == owner, \"Admin use only.\") */\n      tag_600\n      jumpi\n      mload(0x40)\n      0x08c379a000000000000000000000000000000000000000000000000000000000\n      dup2\n      mstore\n      0x04\n      add\n      tag_601\n      swap1\n      tag_423\n      jump\t// in\n    tag_601:\n      mload(0x40)\n      dup1\n      swap2\n      sub\n      swap1\n      revert\n    tag_600:\n        /* \"contracts/cropsFarmer.sol\":2916:2929  isBlacklisted */\n      dup1\n        /* \"contracts/cropsFarmer.sol\":2894:2905  Blacklisted */\n      0x16\n        /* \"contracts/cropsFarmer.sol\":2894:2913  Blacklisted[Wallet] */\n      0x00\n        /* \"contracts/cropsFarmer.sol\":2906:2912  Wallet */\n      dup5\n        /* \"contracts/cropsFarmer.sol\":2894:2913  Blacklisted[Wallet] */\n      0xffffffffffffffffffffffffffffffffffffffff\n      and\n      0xffffffffffffffffffffffffffffffffffffffff\n      and\n      dup2\n      mstore\n      0x20\n      add\n      swap1\n      dup2\n      mstore\n      0x20\n      add\n      0x00\n      keccak256\n      0x00\n        /* \"contracts/cropsFarmer.sol\":2894:2929  Blacklisted[Wallet] = isBlacklisted */\n      0x0100\n      exp\n      dup2\n      sload\n      dup2\n      0xff\n      mul\n      not\n      and\n      swap1\n      dup4\n      iszero\n      iszero\n      mul\n      or\n      swap1\n      sstore\n      pop\n        /* \"contracts/cropsFarmer.sol\":2760:2936  function blackListWallet(address Wallet, bool isBlacklisted) public{... */\n      pop\n      pop\n      jump\t// out\n        /* \"contracts/cropsFarmer.sol\":11207:11300  function getTimeStamp() public view returns (uint256) {... */\n    tag_368:\n        /* \"contracts/cropsFarmer.sol\":11252:11259  uint256 */\n      0x00\n        /* \"contracts/cropsFarmer.sol\":11278:11293  block.timestamp */\n      timestamp\n        /* \"contracts/cropsFarmer.sol\":11271:11293  return block.timestamp */\n      swap1\n      pop\n        /* \"contracts/cropsFarmer.sol\":11207:11300  function getTimeStamp() public view returns (uint256) {... */\n      swap1\n      jump\t// out\n        /* \"contracts/cropsFarmer.sol\":3404:3726  function startFarm(address addr) public payable{... */\n    tag_372:\n        /* \"contracts/cropsFarmer.sol\":3466:3481  contractStarted */\n      0x15\n      0x00\n      swap1\n      sload\n      swap1\n      0x0100\n      exp\n      swap1\n      div\n      0xff\n      and\n        /* \"contracts/cropsFarmer.sol\":3461:3720  if (!contractStarted) {... */\n      tag_604\n      jumpi\n        /* \"contracts/cropsFarmer.sol\":3509:3514  owner */\n      0x19\n      0x00\n      swap1\n      sload\n      swap1\n      0x0100\n      exp\n      swap1\n      div\n      0xffffffffffffffffffffffffffffffffffffffff\n      and\n        /* \"contracts/cropsFarmer.sol\":3495:3514  msg.sender == owner */\n      0xffffffffffffffffffffffffffffffffffffffff\n      and\n        /* \"contracts/cropsFarmer.sol\":3495:3505  msg.sender */\n      caller\n        /* \"contracts/cropsFarmer.sol\":3495:3514  msg.sender == owner */\n      0xffffffffffffffffffffffffffffffffffffffff\n      and\n      eq\n        /* \"contracts/cropsFarmer.sol\":3491:3712  if (msg.sender == owner) {... */\n      iszero\n      tag_605\n      jumpi\n        /* \"contracts/cropsFarmer.sol\":3550:3551  0 */\n      0x00\n        /* \"contracts/cropsFarmer.sol\":3536:3546  marketEggs */\n      sload(0x12)\n        /* \"contracts/cropsFarmer.sol\":3536:3551  marketEggs == 0 */\n      eq\n        /* \"contracts/cropsFarmer.sol\":3528:3552  require(marketEggs == 0) */\n      tag_606\n      jumpi\n      0x00\n      dup1\n      revert\n    tag_606:\n        /* \"contracts/cropsFarmer.sol\":3579:3583  true */\n      0x01\n        /* \"contracts/cropsFarmer.sol\":3561:3576  contractStarted */\n      0x15\n      0x00\n        /* \"contracts/cropsFarmer.sol\":3561:3583  contractStarted = true */\n      0x0100\n      exp\n      dup2\n      sload\n      dup2\n      0xff\n      mul\n      not\n      and\n      swap1\n      dup4\n      iszero\n      iszero\n      mul\n      or\n      swap1\n      sstore\n      pop\n        /* \"contracts/cropsFarmer.sol\":3614:3626  144000000000 */\n      0x218711a000\n        /* \"contracts/cropsFarmer.sol\":3601:3611  marketEggs */\n      0x12\n        /* \"contracts/cropsFarmer.sol\":3601:3626  marketEggs = 144000000000 */\n      dup2\n      swap1\n      sstore\n      pop\n        /* \"contracts/cropsFarmer.sol\":3645:3662  hireFarmers(addr) */\n      tag_607\n        /* \"contracts/cropsFarmer.sol\":3657:3661  addr */\n      dup2\n        /* \"contracts/cropsFarmer.sol\":3645:3656  hireFarmers */\n      tag_199\n        /* \"contracts/cropsFarmer.sol\":3645:3662  hireFarmers(addr) */\n      jump\t// in\n    tag_607:\n        /* \"contracts/cropsFarmer.sol\":3491:3712  if (msg.sender == owner) {... */\n      jump(tag_608)\n    tag_605:\n        /* \"contracts/cropsFarmer.sol\":3677:3712  revert(\"Contract not yet started.\") */\n      mload(0x40)\n      0x08c379a000000000000000000000000000000000000000000000000000000000\n      dup2\n      mstore\n      0x04\n      add\n      tag_609\n      swap1\n      tag_610\n      jump\t// in\n    tag_609:\n      mload(0x40)\n      dup1\n      swap2\n      sub\n      swap1\n      revert\n        /* \"contracts/cropsFarmer.sol\":3491:3712  if (msg.sender == owner) {... */\n    tag_608:\n        /* \"contracts/cropsFarmer.sol\":3461:3720  if (!contractStarted) {... */\n    tag_604:\n        /* \"contracts/cropsFarmer.sol\":3404:3726  function startFarm(address addr) public payable{... */\n      pop\n      jump\t// out\n        /* \"contracts/cropsFarmer.sol\":15341:15576  function PRC_EGGS_TO_HIRE_1MINERS(uint256 value) external {... */\n    tag_376:\n        /* \"contracts/cropsFarmer.sol\":15431:15436  owner */\n      0x19\n      0x00\n      swap1\n      sload\n      swap1\n      0x0100\n      exp\n      swap1\n      div\n      0xffffffffffffffffffffffffffffffffffffffff\n      and\n        /* \"contracts/cropsFarmer.sol\":15417:15436  msg.sender == owner */\n      0xffffffffffffffffffffffffffffffffffffffff\n      and\n        /* \"contracts/cropsFarmer.sol\":15417:15427  msg.sender */\n      caller\n        /* \"contracts/cropsFarmer.sol\":15417:15436  msg.sender == owner */\n      0xffffffffffffffffffffffffffffffffffffffff\n      and\n      eq\n        /* \"contracts/cropsFarmer.sol\":15409:15456  require(msg.sender == owner, \"Admin use only.\") */\n      tag_612\n      jumpi\n      mload(0x40)\n      0x08c379a000000000000000000000000000000000000000000000000000000000\n      dup2\n      mstore\n      0x04\n      add\n      tag_613\n      swap1\n      tag_423\n      jump\t// in\n    tag_613:\n      mload(0x40)\n      dup1\n      swap2\n      sub\n      swap1\n      revert\n    tag_612:\n        /* \"contracts/cropsFarmer.sol\":15483:15489  479520 */\n      0x075120\n        /* \"contracts/cropsFarmer.sol\":15474:15479  value */\n      dup2\n        /* \"contracts/cropsFarmer.sol\":15474:15489  value >= 479520 */\n      lt\n      iszero\n        /* \"contracts/cropsFarmer.sol\":15474:15508  value >= 479520 && value <= 720000 */\n      dup1\n      iszero\n      tag_614\n      jumpi\n      pop\n        /* \"contracts/cropsFarmer.sol\":15502:15508  720000 */\n      0x0afc80\n        /* \"contracts/cropsFarmer.sol\":15493:15498  value */\n      dup2\n        /* \"contracts/cropsFarmer.sol\":15493:15508  value <= 720000 */\n      gt\n      iszero\n        /* \"contracts/cropsFarmer.sol\":15474:15508  value >= 479520 && value <= 720000 */\n    tag_614:\n        /* \"contracts/cropsFarmer.sol\":15466:15509  require(value >= 479520 && value <= 720000) */\n      tag_615\n      jumpi\n      0x00\n      dup1\n      revert\n    tag_615:\n        /* \"contracts/cropsFarmer.sol\":15564:15569  value */\n      dup1\n        /* \"contracts/cropsFarmer.sol\":15541:15561  EGGS_TO_HIRE_1MINERS */\n      0x00\n        /* \"contracts/cropsFarmer.sol\":15541:15569  EGGS_TO_HIRE_1MINERS = value */\n      dup2\n      swap1\n      sstore\n      pop\n        /* \"contracts/cropsFarmer.sol\":15341:15576  function PRC_EGGS_TO_HIRE_1MINERS(uint256 value) external {... */\n      pop\n      jump\t// out\n        /* \"contracts/cropsFarmer.sol\":17804:18014  function SET_COMPOUND_FOR_NO_TAX_WITHDRAWAL(uint256 value) external {... */\n    tag_380:\n        /* \"contracts/cropsFarmer.sol\":17904:17909  owner */\n      0x19\n      0x00\n      swap1\n      sload\n      swap1\n      0x0100\n      exp\n      swap1\n      div\n      0xffffffffffffffffffffffffffffffffffffffff\n      and\n        /* \"contracts/cropsFarmer.sol\":17890:17909  msg.sender == owner */\n      0xffffffffffffffffffffffffffffffffffffffff\n      and\n        /* \"contracts/cropsFarmer.sol\":17890:17900  msg.sender */\n      caller\n        /* \"contracts/cropsFarmer.sol\":17890:17909  msg.sender == owner */\n      0xffffffffffffffffffffffffffffffffffffffff\n      and\n      eq\n        /* \"contracts/cropsFarmer.sol\":17882:17929  require(msg.sender == owner, \"Admin use only.\") */\n      tag_617\n      jumpi\n      mload(0x40)\n      0x08c379a000000000000000000000000000000000000000000000000000000000\n      dup2\n      mstore\n      0x04\n      add\n      tag_618\n      swap1\n      tag_423\n      jump\t// in\n    tag_618:\n      mload(0x40)\n      dup1\n      swap2\n      sub\n      swap1\n      revert\n    tag_617:\n        /* \"contracts/cropsFarmer.sol\":17956:17958  12 */\n      0x0c\n        /* \"contracts/cropsFarmer.sol\":17947:17952  value */\n      dup2\n        /* \"contracts/cropsFarmer.sol\":17947:17958  value <= 12 */\n      gt\n      iszero\n        /* \"contracts/cropsFarmer.sol\":17939:17959  require(value <= 12) */\n      tag_619\n      jumpi\n      0x00\n      dup1\n      revert\n    tag_619:\n        /* \"contracts/cropsFarmer.sol\":18002:18007  value */\n      dup1\n        /* \"contracts/cropsFarmer.sol\":17969:17999  COMPOUND_FOR_NO_TAX_WITHDRAWAL */\n      0x0c\n        /* \"contracts/cropsFarmer.sol\":17969:18007  COMPOUND_FOR_NO_TAX_WITHDRAWAL = value */\n      dup2\n      swap1\n      sstore\n      pop\n        /* \"contracts/cropsFarmer.sol\":17804:18014  function SET_COMPOUND_FOR_NO_TAX_WITHDRAWAL(uint256 value) external {... */\n      pop\n      jump\t// out\n        /* \"contracts/cropsFarmer.sol\":2942:3204  function blackMultipleWallets(address[] calldata Wallet, bool isBlacklisted) public{... */\n    tag_385:\n        /* \"contracts/cropsFarmer.sol\":3057:3062  owner */\n      0x19\n      0x00\n      swap1\n      sload\n      swap1\n      0x0100\n      exp\n      swap1\n      div\n      0xffffffffffffffffffffffffffffffffffffffff\n      and\n        /* \"contracts/cropsFarmer.sol\":3043:3062  msg.sender == owner */\n      0xffffffffffffffffffffffffffffffffffffffff\n      and\n        /* \"contracts/cropsFarmer.sol\":3043:3053  msg.sender */\n      caller\n        /* \"contracts/cropsFarmer.sol\":3043:3062  msg.sender == owner */\n      0xffffffffffffffffffffffffffffffffffffffff\n      and\n      eq\n        /* \"contracts/cropsFarmer.sol\":3035:3082  require(msg.sender == owner, \"Admin use only.\") */\n      tag_621\n      jumpi\n      mload(0x40)\n      0x08c379a000000000000000000000000000000000000000000000000000000000\n      dup2\n      mstore\n      0x04\n      add\n      tag_622\n      swap1\n      tag_423\n      jump\t// in\n    tag_622:\n      mload(0x40)\n      dup1\n      swap2\n      sub\n      swap1\n      revert\n    tag_621:\n        /* \"contracts/cropsFarmer.sol\":3096:3105  uint256 i */\n      0x00\n        /* \"contracts/cropsFarmer.sol\":3092:3198  for(uint256 i = 0; i < Wallet.length; i++) {... */\n    tag_623:\n        /* \"contracts/cropsFarmer.sol\":3115:3121  Wallet */\n      dup4\n      dup4\n        /* \"contracts/cropsFarmer.sol\":3115:3128  Wallet.length */\n      swap1\n      pop\n        /* \"contracts/cropsFarmer.sol\":3111:3112  i */\n      dup2\n        /* \"contracts/cropsFarmer.sol\":3111:3128  i < Wallet.length */\n      lt\n        /* \"contracts/cropsFarmer.sol\":3092:3198  for(uint256 i = 0; i < Wallet.length; i++) {... */\n      iszero\n      tag_624\n      jumpi\n        /* \"contracts/cropsFarmer.sol\":3174:3187  isBlacklisted */\n      dup2\n        /* \"contracts/cropsFarmer.sol\":3149:3160  Blacklisted */\n      0x16\n        /* \"contracts/cropsFarmer.sol\":3149:3171  Blacklisted[Wallet[i]] */\n      0x00\n        /* \"contracts/cropsFarmer.sol\":3161:3167  Wallet */\n      dup7\n      dup7\n        /* \"contracts/cropsFarmer.sol\":3168:3169  i */\n      dup6\n        /* \"contracts/cropsFarmer.sol\":3161:3170  Wallet[i] */\n      dup2\n      dup2\n      lt\n      tag_626\n      jumpi\n      tag_627\n      tag_628\n      jump\t// in\n    tag_627:\n    tag_626:\n      swap1\n      pop\n      0x20\n      mul\n      add\n      0x20\n      dup2\n      add\n      swap1\n      tag_629\n      swap2\n      swap1\n      tag_151\n      jump\t// in\n    tag_629:\n        /* \"contracts/cropsFarmer.sol\":3149:3171  Blacklisted[Wallet[i]] */\n      0xffffffffffffffffffffffffffffffffffffffff\n      and\n      0xffffffffffffffffffffffffffffffffffffffff\n      and\n      dup2\n      mstore\n      0x20\n      add\n      swap1\n      dup2\n      mstore\n      0x20\n      add\n      0x00\n      keccak256\n      0x00\n        /* \"contracts/cropsFarmer.sol\":3149:3187  Blacklisted[Wallet[i]] = isBlacklisted */\n      0x0100\n      exp\n      dup2\n      sload\n      dup2\n      0xff\n      mul\n      not\n      and\n      swap1\n      dup4\n      iszero\n      iszero\n      mul\n      or\n      swap1\n      sstore\n      pop\n        /* \"contracts/cropsFarmer.sol\":3130:3133  i++ */\n      dup1\n      dup1\n      tag_630\n      swap1\n      tag_631\n      jump\t// in\n    tag_630:\n      swap2\n      pop\n      pop\n        /* \"contracts/cropsFarmer.sol\":3092:3198  for(uint256 i = 0; i < Wallet.length; i++) {... */\n      jump(tag_623)\n    tag_624:\n      pop\n        /* \"contracts/cropsFarmer.sol\":2942:3204  function blackMultipleWallets(address[] calldata Wallet, bool isBlacklisted) public{... */\n      pop\n      pop\n      pop\n      jump\t// out\n        /* \"contracts/cropsFarmer.sol\":685:735  uint256 public COMPOUND_FOR_NO_TAX_WITHDRAWAL = 10 */\n    tag_388:\n      sload(0x0c)\n      dup2\n      jump\t// out\n        /* \"contracts/cropsFarmer.sol\":1066:1109  mapping(address => bool) public Blacklisted */\n    tag_393:\n      mstore(0x20, 0x16)\n      dup1\n      0x00\n      mstore\n      keccak256(0x00, 0x40)\n      0x00\n      swap2\n      pop\n      sload\n      swap1\n      0x0100\n      exp\n      swap1\n      div\n      0xff\n      and\n      dup2\n      jump\t// out\n        /* \"contracts/cropsFarmer.sol\":18444:18573  function add(uint256 a, uint256 b) internal pure returns (uint256) {... */\n    tag_405:\n        /* \"contracts/cropsFarmer.sol\":18502:18509  uint256 */\n      0x00\n        /* \"contracts/cropsFarmer.sol\":18517:18526  uint256 c */\n      dup1\n        /* \"contracts/cropsFarmer.sol\":18533:18534  b */\n      dup3\n        /* \"contracts/cropsFarmer.sol\":18529:18530  a */\n      dup5\n        /* \"contracts/cropsFarmer.sol\":18529:18534  a + b */\n      tag_633\n      swap2\n      swap1\n      tag_634\n      jump\t// in\n    tag_633:\n        /* \"contracts/cropsFarmer.sol\":18517:18534  uint256 c = a + b */\n      swap1\n      pop\n        /* \"contracts/cropsFarmer.sol\":18552:18553  a */\n      dup4\n        /* \"contracts/cropsFarmer.sol\":18547:18548  c */\n      dup2\n        /* \"contracts/cropsFarmer.sol\":18547:18553  c >= a */\n      lt\n      iszero\n        /* \"contracts/cropsFarmer.sol\":18540:18554  assert(c >= a) */\n      tag_635\n      jumpi\n      tag_636\n      tag_637\n      jump\t// in\n    tag_636:\n    tag_635:\n        /* \"contracts/cropsFarmer.sol\":18567:18568  c */\n      dup1\n        /* \"contracts/cropsFarmer.sol\":18560:18568  return c */\n      swap2\n      pop\n      pop\n        /* \"contracts/cropsFarmer.sol\":18444:18573  function add(uint256 a, uint256 b) internal pure returns (uint256) {... */\n      swap3\n      swap2\n      pop\n      pop\n      jump\t// out\n        /* \"contracts/cropsFarmer.sol\":18330:18440  function sub(uint256 a, uint256 b) internal pure returns (uint256) {... */\n    tag_410:\n        /* \"contracts/cropsFarmer.sol\":18388:18395  uint256 */\n      0x00\n        /* \"contracts/cropsFarmer.sol\":18415:18416  a */\n      dup3\n        /* \"contracts/cropsFarmer.sol\":18410:18411  b */\n      dup3\n        /* \"contracts/cropsFarmer.sol\":18410:18416  b <= a */\n      gt\n      iszero\n        /* \"contracts/cropsFarmer.sol\":18403:18417  assert(b <= a) */\n      tag_639\n      jumpi\n      tag_640\n      tag_637\n      jump\t// in\n    tag_640:\n    tag_639:\n        /* \"contracts/cropsFarmer.sol\":18434:18435  b */\n      dup2\n        /* \"contracts/cropsFarmer.sol\":18430:18431  a */\n      dup4\n        /* \"contracts/cropsFarmer.sol\":18430:18435  a - b */\n      tag_641\n      swap2\n      swap1\n      tag_642\n      jump\t// in\n    tag_641:\n        /* \"contracts/cropsFarmer.sol\":18423:18435  return a - b */\n      swap1\n      pop\n        /* \"contracts/cropsFarmer.sol\":18330:18440  function sub(uint256 a, uint256 b) internal pure returns (uint256) {... */\n      swap3\n      swap2\n      pop\n      pop\n      jump\t// out\n        /* \"contracts/cropsFarmer.sol\":18217:18326  function div(uint256 a, uint256 b) internal pure returns (uint256) {... */\n    tag_417:\n        /* \"contracts/cropsFarmer.sol\":18275:18282  uint256 */\n      0x00\n        /* \"contracts/cropsFarmer.sol\":18290:18299  uint256 c */\n      dup1\n        /* \"contracts/cropsFarmer.sol\":18306:18307  b */\n      dup3\n        /* \"contracts/cropsFarmer.sol\":18302:18303  a */\n      dup5\n        /* \"contracts/cropsFarmer.sol\":18302:18307  a / b */\n      tag_644\n      swap2\n      swap1\n      tag_645\n      jump\t// in\n    tag_644:\n        /* \"contracts/cropsFarmer.sol\":18290:18307  uint256 c = a / b */\n      swap1\n      pop\n        /* \"contracts/cropsFarmer.sol\":18320:18321  c */\n      dup1\n        /* \"contracts/cropsFarmer.sol\":18313:18321  return c */\n      swap2\n      pop\n      pop\n        /* \"contracts/cropsFarmer.sol\":18217:18326  function div(uint256 a, uint256 b) internal pure returns (uint256) {... */\n      swap3\n      swap2\n      pop\n      pop\n      jump\t// out\n        /* \"contracts/cropsFarmer.sol\":18040:18213  function mul(uint256 a, uint256 b) internal pure returns (uint256) {... */\n    tag_428:\n        /* \"contracts/cropsFarmer.sol\":18098:18105  uint256 */\n      0x00\n        /* \"contracts/cropsFarmer.sol\":18122:18123  0 */\n      dup1\n        /* \"contracts/cropsFarmer.sol\":18117:18118  a */\n      dup4\n        /* \"contracts/cropsFarmer.sol\":18117:18123  a == 0 */\n      eq\n        /* \"contracts/cropsFarmer.sol\":18113:18148  if (a == 0) {... */\n      iszero\n      tag_647\n      jumpi\n        /* \"contracts/cropsFarmer.sol\":18140:18141  0 */\n      0x00\n        /* \"contracts/cropsFarmer.sol\":18133:18141  return 0 */\n      swap1\n      pop\n      jump(tag_646)\n        /* \"contracts/cropsFarmer.sol\":18113:18148  if (a == 0) {... */\n    tag_647:\n        /* \"contracts/cropsFarmer.sol\":18153:18162  uint256 c */\n      0x00\n        /* \"contracts/cropsFarmer.sol\":18169:18170  b */\n      dup3\n        /* \"contracts/cropsFarmer.sol\":18165:18166  a */\n      dup5\n        /* \"contracts/cropsFarmer.sol\":18165:18170  a * b */\n      tag_648\n      swap2\n      swap1\n      tag_452\n      jump\t// in\n    tag_648:\n        /* \"contracts/cropsFarmer.sol\":18153:18170  uint256 c = a * b */\n      swap1\n      pop\n        /* \"contracts/cropsFarmer.sol\":18192:18193  b */\n      dup3\n        /* \"contracts/cropsFarmer.sol\":18187:18188  a */\n      dup5\n        /* \"contracts/cropsFarmer.sol\":18183:18184  c */\n      dup3\n        /* \"contracts/cropsFarmer.sol\":18183:18188  c / a */\n      tag_649\n      swap2\n      swap1\n      tag_645\n      jump\t// in\n    tag_649:\n        /* \"contracts/cropsFarmer.sol\":18183:18193  c / a == b */\n      eq\n        /* \"contracts/cropsFarmer.sol\":18176:18194  assert(c / a == b) */\n      tag_650\n      jumpi\n      tag_651\n      tag_637\n      jump\t// in\n    tag_651:\n    tag_650:\n        /* \"contracts/cropsFarmer.sol\":18207:18208  c */\n      dup1\n        /* \"contracts/cropsFarmer.sol\":18200:18208  return c */\n      swap2\n      pop\n      pop\n        /* \"contracts/cropsFarmer.sol\":18040:18213  function mul(uint256 a, uint256 b) internal pure returns (uint256) {... */\n    tag_646:\n      swap3\n      swap2\n      pop\n      pop\n      jump\t// out\n        /* \"contracts/cropsFarmer.sol\":6549:7403  function sendRewardToReferrals(address investor,uint _investedAmount)  internal  //this is the freferral function to transfer the reawards to referrals... */\n    tag_483:\n        /* \"contracts/cropsFarmer.sol\":6717:6729  address temp */\n      0x00\n        /* \"contracts/cropsFarmer.sol\":6732:6740  investor */\n      dup3\n        /* \"contracts/cropsFarmer.sol\":6717:6740  address temp = investor */\n      swap1\n      pop\n        /* \"contracts/cropsFarmer.sol\":6757:6781  uint[] memory percentage */\n      0x00\n        /* \"contracts/cropsFarmer.sol\":6795:6796  3 */\n      0x03\n        /* \"contracts/cropsFarmer.sol\":6784:6797  new uint[](3) */\n      0xffffffffffffffff\n      dup2\n      gt\n      iszero\n      tag_653\n      jumpi\n      tag_654\n      tag_655\n      jump\t// in\n    tag_654:\n    tag_653:\n      mload(0x40)\n      swap1\n      dup1\n      dup3\n      mstore\n      dup1\n      0x20\n      mul\n      0x20\n      add\n      dup3\n      add\n      0x40\n      mstore\n      dup1\n      iszero\n      tag_656\n      jumpi\n      dup2\n      0x20\n      add\n      0x20\n      dup3\n      mul\n      dup1\n      calldatasize\n      dup4\n      calldatacopy\n      dup1\n      dup3\n      add\n      swap2\n      pop\n      pop\n      swap1\n      pop\n    tag_656:\n      pop\n        /* \"contracts/cropsFarmer.sol\":6757:6797  uint[] memory percentage = new uint[](3) */\n      swap1\n      pop\n        /* \"contracts/cropsFarmer.sol\":6823:6824  8 */\n      0x08\n        /* \"contracts/cropsFarmer.sol\":6807:6817  percentage */\n      dup2\n        /* \"contracts/cropsFarmer.sol\":6818:6819  0 */\n      0x00\n        /* \"contracts/cropsFarmer.sol\":6807:6820  percentage[0] */\n      dup2\n      mload\n      dup2\n      lt\n      tag_657\n      jumpi\n      tag_658\n      tag_628\n      jump\t// in\n    tag_658:\n    tag_657:\n      0x20\n      mul\n      0x20\n      add\n      add\n        /* \"contracts/cropsFarmer.sol\":6807:6824  percentage[0] = 8 */\n      dup2\n      dup2\n      mstore\n      pop\n      pop\n        /* \"contracts/cropsFarmer.sol\":6850:6851  3 */\n      0x03\n        /* \"contracts/cropsFarmer.sol\":6834:6844  percentage */\n      dup2\n        /* \"contracts/cropsFarmer.sol\":6845:6846  1 */\n      0x01\n        /* \"contracts/cropsFarmer.sol\":6834:6847  percentage[1] */\n      dup2\n      mload\n      dup2\n      lt\n      tag_659\n      jumpi\n      tag_660\n      tag_628\n      jump\t// in\n    tag_660:\n    tag_659:\n      0x20\n      mul\n      0x20\n      add\n      add\n        /* \"contracts/cropsFarmer.sol\":6834:6851  percentage[1] = 3 */\n      dup2\n      dup2\n      mstore\n      pop\n      pop\n        /* \"contracts/cropsFarmer.sol\":6877:6878  2 */\n      0x02\n        /* \"contracts/cropsFarmer.sol\":6861:6871  percentage */\n      dup2\n        /* \"contracts/cropsFarmer.sol\":6872:6873  2 */\n      0x02\n        /* \"contracts/cropsFarmer.sol\":6861:6874  percentage[2] */\n      dup2\n      mload\n      dup2\n      lt\n      tag_661\n      jumpi\n      tag_662\n      tag_628\n      jump\t// in\n    tag_662:\n    tag_661:\n      0x20\n      mul\n      0x20\n      add\n      add\n        /* \"contracts/cropsFarmer.sol\":6861:6878  percentage[2] = 2 */\n      dup2\n      dup2\n      mstore\n      pop\n      pop\n        /* \"contracts/cropsFarmer.sol\":6889:6895  uint j */\n      0x00\n        /* \"contracts/cropsFarmer.sol\":6912:6918  uint i */\n      dup1\n        /* \"contracts/cropsFarmer.sol\":6919:6920  0 */\n      0x00\n        /* \"contracts/cropsFarmer.sol\":6912:6920  uint i=0 */\n      swap1\n      pop\n        /* \"contracts/cropsFarmer.sol\":6908:7396  for(uint i=0;i<3;i++)... */\n    tag_663:\n        /* \"contracts/cropsFarmer.sol\":6923:6924  3 */\n      0x03\n        /* \"contracts/cropsFarmer.sol\":6921:6922  i */\n      dup2\n        /* \"contracts/cropsFarmer.sol\":6921:6924  i<3 */\n      lt\n        /* \"contracts/cropsFarmer.sol\":6908:7396  for(uint i=0;i<3;i++)... */\n      iszero\n      tag_664\n      jumpi\n        /* \"contracts/cropsFarmer.sol\":6986:6987  0 */\n      0x00\n        /* \"contracts/cropsFarmer.sol\":6956:6988  users[temp].referrer!=address(0) */\n      0xffffffffffffffffffffffffffffffffffffffff\n      and\n        /* \"contracts/cropsFarmer.sol\":6956:6961  users */\n      0x20\n        /* \"contracts/cropsFarmer.sol\":6956:6967  users[temp] */\n      0x00\n        /* \"contracts/cropsFarmer.sol\":6962:6966  temp */\n      dup7\n        /* \"contracts/cropsFarmer.sol\":6956:6967  users[temp] */\n      0xffffffffffffffffffffffffffffffffffffffff\n      and\n      0xffffffffffffffffffffffffffffffffffffffff\n      and\n      dup2\n      mstore\n      0x20\n      add\n      swap1\n      dup2\n      mstore\n      0x20\n      add\n      0x00\n      keccak256\n        /* \"contracts/cropsFarmer.sol\":6956:6976  users[temp].referrer */\n      0x05\n      add\n      0x00\n      swap1\n      sload\n      swap1\n      0x0100\n      exp\n      swap1\n      div\n      0xffffffffffffffffffffffffffffffffffffffff\n      and\n        /* \"contracts/cropsFarmer.sol\":6956:6988  users[temp].referrer!=address(0) */\n      0xffffffffffffffffffffffffffffffffffffffff\n      and\n      eq\n        /* \"contracts/cropsFarmer.sol\":6953:7385  if(users[temp].referrer!=address(0))... */\n      tag_666\n      jumpi\n        /* \"contracts/cropsFarmer.sol\":7026:7031  users */\n      0x20\n        /* \"contracts/cropsFarmer.sol\":7026:7037  users[temp] */\n      0x00\n        /* \"contracts/cropsFarmer.sol\":7032:7036  temp */\n      dup6\n        /* \"contracts/cropsFarmer.sol\":7026:7037  users[temp] */\n      0xffffffffffffffffffffffffffffffffffffffff\n      and\n      0xffffffffffffffffffffffffffffffffffffffff\n      and\n      dup2\n      mstore\n      0x20\n      add\n      swap1\n      dup2\n      mstore\n      0x20\n      add\n      0x00\n      keccak256\n        /* \"contracts/cropsFarmer.sol\":7026:7046  users[temp].referrer */\n      0x05\n      add\n      0x00\n      swap1\n      sload\n      swap1\n      0x0100\n      exp\n      swap1\n      div\n      0xffffffffffffffffffffffffffffffffffffffff\n      and\n        /* \"contracts/cropsFarmer.sol\":7021:7046  temp=users[temp].referrer */\n      swap4\n      pop\n        /* \"contracts/cropsFarmer.sol\":7064:7076  uint reward1 */\n      0x00\n        /* \"contracts/cropsFarmer.sol\":7113:7116  100 */\n      0x64\n        /* \"contracts/cropsFarmer.sol\":7096:7111  _investedAmount */\n      dup7\n        /* \"contracts/cropsFarmer.sol\":7080:7090  percentage */\n      dup6\n        /* \"contracts/cropsFarmer.sol\":7091:7092  i */\n      dup5\n        /* \"contracts/cropsFarmer.sol\":7080:7093  percentage[i] */\n      dup2\n      mload\n      dup2\n      lt\n      tag_667\n      jumpi\n      tag_668\n      tag_628\n      jump\t// in\n    tag_668:\n    tag_667:\n      0x20\n      mul\n      0x20\n      add\n      add\n      mload\n        /* \"contracts/cropsFarmer.sol\":7080:7111  percentage[i] * _investedAmount */\n      tag_669\n      swap2\n      swap1\n      tag_452\n      jump\t// in\n    tag_669:\n        /* \"contracts/cropsFarmer.sol\":7079:7116  (percentage[i] * _investedAmount)/100 */\n      tag_670\n      swap2\n      swap1\n      tag_645\n      jump\t// in\n    tag_670:\n        /* \"contracts/cropsFarmer.sol\":7064:7116  uint reward1 = (percentage[i] * _investedAmount)/100 */\n      swap1\n      pop\n        /* \"contracts/cropsFarmer.sol\":7152:7156  temp */\n      dup5\n        /* \"contracts/cropsFarmer.sol\":7136:7167  payable(address(temp)).transfer */\n      0xffffffffffffffffffffffffffffffffffffffff\n      and\n        /* \"contracts/cropsFarmer.sol\":7136:7176  payable(address(temp)).transfer(reward1) */\n      0x08fc\n        /* \"contracts/cropsFarmer.sol\":7168:7175  reward1 */\n      dup3\n        /* \"contracts/cropsFarmer.sol\":7136:7176  payable(address(temp)).transfer(reward1) */\n      swap1\n      dup2\n      iszero\n      mul\n      swap1\n      mload(0x40)\n      0x00\n      mload(0x40)\n      dup1\n      dup4\n      sub\n      dup2\n      dup6\n      dup9\n      dup9\n      call\n      swap4\n      pop\n      pop\n      pop\n      pop\n      iszero\n      dup1\n      iszero\n      tag_672\n      jumpi\n      returndatasize\n      0x00\n      dup1\n      returndatacopy\n      revert(0x00, returndatasize)\n    tag_672:\n      pop\n        /* \"contracts/cropsFarmer.sol\":7002:7329  {... */\n      pop\n        /* \"contracts/cropsFarmer.sol\":6953:7385  if(users[temp].referrer!=address(0))... */\n      jump(tag_673)\n    tag_666:\n        /* \"contracts/cropsFarmer.sol\":7365:7370  break */\n      jump(tag_664)\n        /* \"contracts/cropsFarmer.sol\":6953:7385  if(users[temp].referrer!=address(0))... */\n    tag_673:\n        /* \"contracts/cropsFarmer.sol\":6925:6928  i++ */\n      dup1\n      dup1\n      tag_674\n      swap1\n      tag_631\n      jump\t// in\n    tag_674:\n      swap2\n      pop\n      pop\n        /* \"contracts/cropsFarmer.sol\":6908:7396  for(uint i=0;i<3;i++)... */\n      jump(tag_663)\n    tag_664:\n      pop\n        /* \"contracts/cropsFarmer.sol\":6705:7403  { ... */\n      pop\n      pop\n      pop\n        /* \"contracts/cropsFarmer.sol\":6549:7403  function sendRewardToReferrals(address investor,uint _investedAmount)  internal  //this is the freferral function to transfer the reawards to referrals... */\n      pop\n      pop\n      jump\t// out\n        /* \"contracts/cropsFarmer.sol\":9313:9719  function payFees(uint256 eggValue) internal returns(uint256){... */\n    tag_495:\n        /* \"contracts/cropsFarmer.sol\":9365:9372  uint256 */\n      0x00\n        /* \"contracts/cropsFarmer.sol\":9383:9394  uint256 tax */\n      dup1\n        /* \"contracts/cropsFarmer.sol\":9397:9436  eggValue.mul(TAX).div(PERCENTS_DIVIDER) */\n      tag_676\n        /* \"contracts/cropsFarmer.sol\":9419:9435  PERCENTS_DIVIDER */\n      sload(0x02)\n        /* \"contracts/cropsFarmer.sol\":9397:9414  eggValue.mul(TAX) */\n      tag_677\n        /* \"contracts/cropsFarmer.sol\":9410:9413  TAX */\n      sload(0x03)\n        /* \"contracts/cropsFarmer.sol\":9397:9405  eggValue */\n      dup7\n        /* \"contracts/cropsFarmer.sol\":9397:9409  eggValue.mul */\n      tag_428\n      swap1\n        /* \"contracts/cropsFarmer.sol\":9397:9414  eggValue.mul(TAX) */\n      swap2\n      swap1\n      0xffffffff\n      and\n      jump\t// in\n    tag_677:\n        /* \"contracts/cropsFarmer.sol\":9397:9418  eggValue.mul(TAX).div */\n      tag_417\n      swap1\n        /* \"contracts/cropsFarmer.sol\":9397:9436  eggValue.mul(TAX).div(PERCENTS_DIVIDER) */\n      swap2\n      swap1\n      0xffffffff\n      and\n      jump\t// in\n    tag_676:\n        /* \"contracts/cropsFarmer.sol\":9383:9436  uint256 tax = eggValue.mul(TAX).div(PERCENTS_DIVIDER) */\n      swap1\n      pop\n        /* \"contracts/cropsFarmer.sol\":9446:9459  uint256 mktng */\n      0x00\n        /* \"contracts/cropsFarmer.sol\":9462:9501  eggValue.mul(MKT).div(PERCENTS_DIVIDER) */\n      tag_678\n        /* \"contracts/cropsFarmer.sol\":9484:9500  PERCENTS_DIVIDER */\n      sload(0x02)\n        /* \"contracts/cropsFarmer.sol\":9462:9479  eggValue.mul(MKT) */\n      tag_679\n        /* \"contracts/cropsFarmer.sol\":9475:9478  MKT */\n      sload(0x04)\n        /* \"contracts/cropsFarmer.sol\":9462:9470  eggValue */\n      dup8\n        /* \"contracts/cropsFarmer.sol\":9462:9474  eggValue.mul */\n      tag_428\n      swap1\n        /* \"contracts/cropsFarmer.sol\":9462:9479  eggValue.mul(MKT) */\n      swap2\n      swap1\n      0xffffffff\n      and\n      jump\t// in\n    tag_679:\n        /* \"contracts/cropsFarmer.sol\":9462:9483  eggValue.mul(MKT).div */\n      tag_417\n      swap1\n        /* \"contracts/cropsFarmer.sol\":9462:9501  eggValue.mul(MKT).div(PERCENTS_DIVIDER) */\n      swap2\n      swap1\n      0xffffffff\n      and\n      jump\t// in\n    tag_678:\n        /* \"contracts/cropsFarmer.sol\":9446:9501  uint256 mktng = eggValue.mul(MKT).div(PERCENTS_DIVIDER) */\n      swap1\n      pop\n        /* \"contracts/cropsFarmer.sol\":9511:9515  dev1 */\n      0x1a\n      0x00\n      swap1\n      sload\n      swap1\n      0x0100\n      exp\n      swap1\n      div\n      0xffffffffffffffffffffffffffffffffffffffff\n      and\n        /* \"contracts/cropsFarmer.sol\":9511:9524  dev1.transfer */\n      0xffffffffffffffffffffffffffffffffffffffff\n      and\n        /* \"contracts/cropsFarmer.sol\":9511:9529  dev1.transfer(tax) */\n      0x08fc\n        /* \"contracts/cropsFarmer.sol\":9525:9528  tax */\n      dup4\n        /* \"contracts/cropsFarmer.sol\":9511:9529  dev1.transfer(tax) */\n      swap1\n      dup2\n      iszero\n      mul\n      swap1\n      mload(0x40)\n      0x00\n      mload(0x40)\n      dup1\n      dup4\n      sub\n      dup2\n      dup6\n      dup9\n      dup9\n      call\n      swap4\n      pop\n      pop\n      pop\n      pop\n      iszero\n      dup1\n      iszero\n      tag_681\n      jumpi\n      returndatasize\n      0x00\n      dup1\n      returndatacopy\n      revert(0x00, returndatasize)\n    tag_681:\n      pop\n        /* \"contracts/cropsFarmer.sol\":9539:9543  dev2 */\n      0x1b\n      0x00\n      swap1\n      sload\n      swap1\n      0x0100\n      exp\n      swap1\n      div\n      0xffffffffffffffffffffffffffffffffffffffff\n      and\n        /* \"contracts/cropsFarmer.sol\":9539:9552  dev2.transfer */\n      0xffffffffffffffffffffffffffffffffffffffff\n      and\n        /* \"contracts/cropsFarmer.sol\":9539:9557  dev2.transfer(tax) */\n      0x08fc\n        /* \"contracts/cropsFarmer.sol\":9553:9556  tax */\n      dup4\n        /* \"contracts/cropsFarmer.sol\":9539:9557  dev2.transfer(tax) */\n      swap1\n      dup2\n      iszero\n      mul\n      swap1\n      mload(0x40)\n      0x00\n      mload(0x40)\n      dup1\n      dup4\n      sub\n      dup2\n      dup6\n      dup9\n      dup9\n      call\n      swap4\n      pop\n      pop\n      pop\n      pop\n      iszero\n      dup1\n      iszero\n      tag_683\n      jumpi\n      returndatasize\n      0x00\n      dup1\n      returndatacopy\n      revert(0x00, returndatasize)\n    tag_683:\n      pop\n        /* \"contracts/cropsFarmer.sol\":9567:9571  dev3 */\n      0x1c\n      0x00\n      swap1\n      sload\n      swap1\n      0x0100\n      exp\n      swap1\n      div\n      0xffffffffffffffffffffffffffffffffffffffff\n      and\n        /* \"contracts/cropsFarmer.sol\":9567:9580  dev3.transfer */\n      0xffffffffffffffffffffffffffffffffffffffff\n      and\n        /* \"contracts/cropsFarmer.sol\":9567:9585  dev3.transfer(tax) */\n      0x08fc\n        /* \"contracts/cropsFarmer.sol\":9581:9584  tax */\n      dup4\n        /* \"contracts/cropsFarmer.sol\":9567:9585  dev3.transfer(tax) */\n      swap1\n      dup2\n      iszero\n      mul\n      swap1\n      mload(0x40)\n      0x00\n      mload(0x40)\n      dup1\n      dup4\n      sub\n      dup2\n      dup6\n      dup9\n      dup9\n      call\n      swap4\n      pop\n      pop\n      pop\n      pop\n      iszero\n      dup1\n      iszero\n      tag_685\n      jumpi\n      returndatasize\n      0x00\n      dup1\n      returndatacopy\n      revert(0x00, returndatasize)\n    tag_685:\n      pop\n        /* \"contracts/cropsFarmer.sol\":9595:9601  prtnr1 */\n      0x1d\n      0x00\n      swap1\n      sload\n      swap1\n      0x0100\n      exp\n      swap1\n      div\n      0xffffffffffffffffffffffffffffffffffffffff\n      and\n        /* \"contracts/cropsFarmer.sol\":9595:9610  prtnr1.transfer */\n      0xffffffffffffffffffffffffffffffffffffffff\n      and\n        /* \"contracts/cropsFarmer.sol\":9595:9615  prtnr1.transfer(tax) */\n      0x08fc\n        /* \"contracts/cropsFarmer.sol\":9611:9614  tax */\n      dup4\n        /* \"contracts/cropsFarmer.sol\":9595:9615  prtnr1.transfer(tax) */\n      swap1\n      dup2\n      iszero\n      mul\n      swap1\n      mload(0x40)\n      0x00\n      mload(0x40)\n      dup1\n      dup4\n      sub\n      dup2\n      dup6\n      dup9\n      dup9\n      call\n      swap4\n      pop\n      pop\n      pop\n      pop\n      iszero\n      dup1\n      iszero\n      tag_687\n      jumpi\n      returndatasize\n      0x00\n      dup1\n      returndatacopy\n      revert(0x00, returndatasize)\n    tag_687:\n      pop\n        /* \"contracts/cropsFarmer.sol\":9625:9631  prtnr2 */\n      0x1e\n      0x00\n      swap1\n      sload\n      swap1\n      0x0100\n      exp\n      swap1\n      div\n      0xffffffffffffffffffffffffffffffffffffffff\n      and\n        /* \"contracts/cropsFarmer.sol\":9625:9640  prtnr2.transfer */\n      0xffffffffffffffffffffffffffffffffffffffff\n      and\n        /* \"contracts/cropsFarmer.sol\":9625:9645  prtnr2.transfer(tax) */\n      0x08fc\n        /* \"contracts/cropsFarmer.sol\":9641:9644  tax */\n      dup4\n        /* \"contracts/cropsFarmer.sol\":9625:9645  prtnr2.transfer(tax) */\n      swap1\n      dup2\n      iszero\n      mul\n      swap1\n      mload(0x40)\n      0x00\n      mload(0x40)\n      dup1\n      dup4\n      sub\n      dup2\n      dup6\n      dup9\n      dup9\n      call\n      swap4\n      pop\n      pop\n      pop\n      pop\n      iszero\n      dup1\n      iszero\n      tag_689\n      jumpi\n      returndatasize\n      0x00\n      dup1\n      returndatacopy\n      revert(0x00, returndatasize)\n    tag_689:\n      pop\n        /* \"contracts/cropsFarmer.sol\":9655:9658  mkt */\n      0x1f\n      0x00\n      swap1\n      sload\n      swap1\n      0x0100\n      exp\n      swap1\n      div\n      0xffffffffffffffffffffffffffffffffffffffff\n      and\n        /* \"contracts/cropsFarmer.sol\":9655:9667  mkt.transfer */\n      0xffffffffffffffffffffffffffffffffffffffff\n      and\n        /* \"contracts/cropsFarmer.sol\":9655:9674  mkt.transfer(mktng) */\n      0x08fc\n        /* \"contracts/cropsFarmer.sol\":9668:9673  mktng */\n      dup3\n        /* \"contracts/cropsFarmer.sol\":9655:9674  mkt.transfer(mktng) */\n      swap1\n      dup2\n      iszero\n      mul\n      swap1\n      mload(0x40)\n      0x00\n      mload(0x40)\n      dup1\n      dup4\n      sub\n      dup2\n      dup6\n      dup9\n      dup9\n      call\n      swap4\n      pop\n      pop\n      pop\n      pop\n      iszero\n      dup1\n      iszero\n      tag_691\n      jumpi\n      returndatasize\n      0x00\n      dup1\n      returndatacopy\n      revert(0x00, returndatasize)\n    tag_691:\n      pop\n        /* \"contracts/cropsFarmer.sol\":9691:9712  mktng.add(tax.mul(5)) */\n      tag_692\n        /* \"contracts/cropsFarmer.sol\":9701:9711  tax.mul(5) */\n      tag_693\n        /* \"contracts/cropsFarmer.sol\":9709:9710  5 */\n      0x05\n        /* \"contracts/cropsFarmer.sol\":9701:9704  tax */\n      dup5\n        /* \"contracts/cropsFarmer.sol\":9701:9708  tax.mul */\n      tag_428\n      swap1\n        /* \"contracts/cropsFarmer.sol\":9701:9711  tax.mul(5) */\n      swap2\n      swap1\n      0xffffffff\n      and\n      jump\t// in\n    tag_693:\n        /* \"contracts/cropsFarmer.sol\":9691:9696  mktng */\n      dup3\n        /* \"contracts/cropsFarmer.sol\":9691:9700  mktng.add */\n      tag_405\n      swap1\n        /* \"contracts/cropsFarmer.sol\":9691:9712  mktng.add(tax.mul(5)) */\n      swap2\n      swap1\n      0xffffffff\n      and\n      jump\t// in\n    tag_692:\n        /* \"contracts/cropsFarmer.sol\":9684:9712  return mktng.add(tax.mul(5)) */\n      swap3\n      pop\n      pop\n      pop\n        /* \"contracts/cropsFarmer.sol\":9313:9719  function payFees(uint256 eggValue) internal returns(uint256){... */\n      swap2\n      swap1\n      pop\n      jump\t// out\n        /* \"contracts/cropsFarmer.sol\":14013:14116  function min(uint256 a, uint256 b) private pure returns (uint256) {... */\n    tag_596:\n        /* \"contracts/cropsFarmer.sol\":14070:14077  uint256 */\n      0x00\n        /* \"contracts/cropsFarmer.sol\":14100:14101  b */\n      dup2\n        /* \"contracts/cropsFarmer.sol\":14096:14097  a */\n      dup4\n        /* \"contracts/cropsFarmer.sol\":14096:14101  a < b */\n      lt\n        /* \"contracts/cropsFarmer.sol\":14096:14109  a < b ? a : b */\n      tag_695\n      jumpi\n        /* \"contracts/cropsFarmer.sol\":14108:14109  b */\n      dup2\n        /* \"contracts/cropsFarmer.sol\":14096:14109  a < b ? a : b */\n      jump(tag_696)\n    tag_695:\n        /* \"contracts/cropsFarmer.sol\":14104:14105  a */\n      dup3\n        /* \"contracts/cropsFarmer.sol\":14096:14109  a < b ? a : b */\n    tag_696:\n        /* \"contracts/cropsFarmer.sol\":14089:14109  return a < b ? a : b */\n      swap1\n      pop\n        /* \"contracts/cropsFarmer.sol\":14013:14116  function min(uint256 a, uint256 b) private pure returns (uint256) {... */\n      swap3\n      swap2\n      pop\n      pop\n      jump\t// out\n        /* \"#utility.yul\":7:84   */\n    tag_697:\n        /* \"#utility.yul\":44:51   */\n      0x00\n        /* \"#utility.yul\":73:78   */\n      dup2\n        /* \"#utility.yul\":62:78   */\n      swap1\n      pop\n        /* \"#utility.yul\":7:84   */\n      swap2\n      swap1\n      pop\n      jump\t// out\n        /* \"#utility.yul\":90:208   */\n    tag_698:\n        /* \"#utility.yul\":177:201   */\n      tag_739\n        /* \"#utility.yul\":195:200   */\n      dup2\n        /* \"#utility.yul\":177:201   */\n      tag_697\n      jump\t// in\n    tag_739:\n        /* \"#utility.yul\":172:175   */\n      dup3\n        /* \"#utility.yul\":165:202   */\n      mstore\n        /* \"#utility.yul\":90:208   */\n      pop\n      pop\n      jump\t// out\n        /* \"#utility.yul\":214:436   */\n    tag_92:\n        /* \"#utility.yul\":307:311   */\n      0x00\n        /* \"#utility.yul\":345:347   */\n      0x20\n        /* \"#utility.yul\":334:343   */\n      dup3\n        /* \"#utility.yul\":330:348   */\n      add\n        /* \"#utility.yul\":322:348   */\n      swap1\n      pop\n        /* \"#utility.yul\":358:429   */\n      tag_741\n        /* \"#utility.yul\":426:427   */\n      0x00\n        /* \"#utility.yul\":415:424   */\n      dup4\n        /* \"#utility.yul\":411:428   */\n      add\n        /* \"#utility.yul\":402:408   */\n      dup5\n        /* \"#utility.yul\":358:429   */\n      tag_698\n      jump\t// in\n    tag_741:\n        /* \"#utility.yul\":214:436   */\n      swap3\n      swap2\n      pop\n      pop\n      jump\t// out\n        /* \"#utility.yul\":442:568   */\n    tag_699:\n        /* \"#utility.yul\":479:486   */\n      0x00\n        /* \"#utility.yul\":519:561   */\n      0xffffffffffffffffffffffffffffffffffffffff\n        /* \"#utility.yul\":512:517   */\n      dup3\n        /* \"#utility.yul\":508:562   */\n      and\n        /* \"#utility.yul\":497:562   */\n      swap1\n      pop\n        /* \"#utility.yul\":442:568   */\n      swap2\n      swap1\n      pop\n      jump\t// out\n        /* \"#utility.yul\":574:678   */\n    tag_700:\n        /* \"#utility.yul\":619:626   */\n      0x00\n        /* \"#utility.yul\":648:672   */\n      tag_744\n        /* \"#utility.yul\":666:671   */\n      dup3\n        /* \"#utility.yul\":648:672   */\n      tag_699\n      jump\t// in\n    tag_744:\n        /* \"#utility.yul\":637:672   */\n      swap1\n      pop\n        /* \"#utility.yul\":574:678   */\n      swap2\n      swap1\n      pop\n      jump\t// out\n        /* \"#utility.yul\":684:826   */\n    tag_701:\n        /* \"#utility.yul\":787:819   */\n      tag_746\n        /* \"#utility.yul\":813:818   */\n      dup2\n        /* \"#utility.yul\":787:819   */\n      tag_700\n      jump\t// in\n    tag_746:\n        /* \"#utility.yul\":782:785   */\n      dup3\n        /* \"#utility.yul\":775:820   */\n      mstore\n        /* \"#utility.yul\":684:826   */\n      pop\n      pop\n      jump\t// out\n        /* \"#utility.yul\":832:1086   */\n    tag_101:\n        /* \"#utility.yul\":941:945   */\n      0x00\n        /* \"#utility.yul\":979:981   */\n      0x20\n        /* \"#utility.yul\":968:977   */\n      dup3\n        /* \"#utility.yul\":964:982   */\n      add\n        /* \"#utility.yul\":956:982   */\n      swap1\n      pop\n        /* \"#utility.yul\":992:1079   */\n      tag_748\n        /* \"#utility.yul\":1076:1077   */\n      0x00\n        /* \"#utility.yul\":1065:1074   */\n      dup4\n        /* \"#utility.yul\":1061:1078   */\n      add\n        /* \"#utility.yul\":1052:1058   */\n      dup5\n        /* \"#utility.yul\":992:1079   */\n      tag_701\n      jump\t// in\n    tag_748:\n        /* \"#utility.yul\":832:1086   */\n      swap3\n      swap2\n      pop\n      pop\n      jump\t// out\n        /* \"#utility.yul\":1173:1290   */\n    tag_703:\n        /* \"#utility.yul\":1282:1283   */\n      0x00\n        /* \"#utility.yul\":1279:1280   */\n      dup1\n        /* \"#utility.yul\":1272:1284   */\n      revert\n        /* \"#utility.yul\":1296:1413   */\n    tag_704:\n        /* \"#utility.yul\":1405:1406   */\n      0x00\n        /* \"#utility.yul\":1402:1403   */\n      dup1\n        /* \"#utility.yul\":1395:1407   */\n      revert\n        /* \"#utility.yul\":1419:1509   */\n    tag_705:\n        /* \"#utility.yul\":1453:1460   */\n      0x00\n        /* \"#utility.yul\":1496:1501   */\n      dup2\n        /* \"#utility.yul\":1489:1502   */\n      iszero\n        /* \"#utility.yul\":1482:1503   */\n      iszero\n        /* \"#utility.yul\":1471:1503   */\n      swap1\n      pop\n        /* \"#utility.yul\":1419:1509   */\n      swap2\n      swap1\n      pop\n      jump\t// out\n        /* \"#utility.yul\":1515:1631   */\n    tag_706:\n        /* \"#utility.yul\":1585:1606   */\n      tag_754\n        /* \"#utility.yul\":1600:1605   */\n      dup2\n        /* \"#utility.yul\":1585:1606   */\n      tag_705\n      jump\t// in\n    tag_754:\n        /* \"#utility.yul\":1578:1583   */\n      dup2\n        /* \"#utility.yul\":1575:1607   */\n      eq\n        /* \"#utility.yul\":1565:1625   */\n      tag_755\n      jumpi\n        /* \"#utility.yul\":1621:1622   */\n      0x00\n        /* \"#utility.yul\":1618:1619   */\n      dup1\n        /* \"#utility.yul\":1611:1623   */\n      revert\n        /* \"#utility.yul\":1565:1625   */\n    tag_755:\n        /* \"#utility.yul\":1515:1631   */\n      pop\n      jump\t// out\n        /* \"#utility.yul\":1637:1770   */\n    tag_707:\n        /* \"#utility.yul\":1680:1685   */\n      0x00\n        /* \"#utility.yul\":1718:1724   */\n      dup2\n        /* \"#utility.yul\":1705:1725   */\n      calldataload\n        /* \"#utility.yul\":1696:1725   */\n      swap1\n      pop\n        /* \"#utility.yul\":1734:1764   */\n      tag_757\n        /* \"#utility.yul\":1758:1763   */\n      dup2\n        /* \"#utility.yul\":1734:1764   */\n      tag_706\n      jump\t// in\n    tag_757:\n        /* \"#utility.yul\":1637:1770   */\n      swap3\n      swap2\n      pop\n      pop\n      jump\t// out\n        /* \"#utility.yul\":1776:2099   */\n    tag_117:\n        /* \"#utility.yul\":1832:1838   */\n      0x00\n        /* \"#utility.yul\":1881:1883   */\n      0x20\n        /* \"#utility.yul\":1869:1878   */\n      dup3\n        /* \"#utility.yul\":1860:1867   */\n      dup5\n        /* \"#utility.yul\":1856:1879   */\n      sub\n        /* \"#utility.yul\":1852:1884   */\n      slt\n        /* \"#utility.yul\":1849:1968   */\n      iszero\n      tag_759\n      jumpi\n        /* \"#utility.yul\":1887:1966   */\n      tag_760\n      tag_703\n      jump\t// in\n    tag_760:\n        /* \"#utility.yul\":1849:1968   */\n    tag_759:\n        /* \"#utility.yul\":2007:2008   */\n      0x00\n        /* \"#utility.yul\":2032:2082   */\n      tag_761\n        /* \"#utility.yul\":2074:2081   */\n      dup5\n        /* \"#utility.yul\":2065:2071   */\n      dup3\n        /* \"#utility.yul\":2054:2063   */\n      dup6\n        /* \"#utility.yul\":2050:2072   */\n      add\n        /* \"#utility.yul\":2032:2082   */\n      tag_707\n      jump\t// in\n    tag_761:\n        /* \"#utility.yul\":2022:2082   */\n      swap2\n      pop\n        /* \"#utility.yul\":1978:2092   */\n      pop\n        /* \"#utility.yul\":1776:2099   */\n      swap3\n      swap2\n      pop\n      pop\n      jump\t// out\n        /* \"#utility.yul\":2105:2227   */\n    tag_708:\n        /* \"#utility.yul\":2178:2202   */\n      tag_763\n        /* \"#utility.yul\":2196:2201   */\n      dup2\n        /* \"#utility.yul\":2178:2202   */\n      tag_697\n      jump\t// in\n    tag_763:\n        /* \"#utility.yul\":2171:2176   */\n      dup2\n        /* \"#utility.yul\":2168:2203   */\n      eq\n        /* \"#utility.yul\":2158:2221   */\n      tag_764\n      jumpi\n        /* \"#utility.yul\":2217:2218   */\n      0x00\n        /* \"#utility.yul\":2214:2215   */\n      dup1\n        /* \"#utility.yul\":2207:2219   */\n      revert\n        /* \"#utility.yul\":2158:2221   */\n    tag_764:\n        /* \"#utility.yul\":2105:2227   */\n      pop\n      jump\t// out\n        /* \"#utility.yul\":2233:2372   */\n    tag_709:\n        /* \"#utility.yul\":2279:2284   */\n      0x00\n        /* \"#utility.yul\":2317:2323   */\n      dup2\n        /* \"#utility.yul\":2304:2324   */\n      calldataload\n        /* \"#utility.yul\":2295:2324   */\n      swap1\n      pop\n        /* \"#utility.yul\":2333:2366   */\n      tag_766\n        /* \"#utility.yul\":2360:2365   */\n      dup2\n        /* \"#utility.yul\":2333:2366   */\n      tag_708\n      jump\t// in\n    tag_766:\n        /* \"#utility.yul\":2233:2372   */\n      swap3\n      swap2\n      pop\n      pop\n      jump\t// out\n        /* \"#utility.yul\":2378:2707   */\n    tag_126:\n        /* \"#utility.yul\":2437:2443   */\n      0x00\n        /* \"#utility.yul\":2486:2488   */\n      0x20\n        /* \"#utility.yul\":2474:2483   */\n      dup3\n        /* \"#utility.yul\":2465:2472   */\n      dup5\n        /* \"#utility.yul\":2461:2484   */\n      sub\n        /* \"#utility.yul\":2457:2489   */\n      slt\n        /* \"#utility.yul\":2454:2573   */\n      iszero\n      tag_768\n      jumpi\n        /* \"#utility.yul\":2492:2571   */\n      tag_769\n      tag_703\n      jump\t// in\n    tag_769:\n        /* \"#utility.yul\":2454:2573   */\n    tag_768:\n        /* \"#utility.yul\":2612:2613   */\n      0x00\n        /* \"#utility.yul\":2637:2690   */\n      tag_770\n        /* \"#utility.yul\":2682:2689   */\n      dup5\n        /* \"#utility.yul\":2673:2679   */\n      dup3\n        /* \"#utility.yul\":2662:2671   */\n      dup6\n        /* \"#utility.yul\":2658:2680   */\n      add\n        /* \"#utility.yul\":2637:2690   */\n      tag_709\n      jump\t// in\n    tag_770:\n        /* \"#utility.yul\":2627:2690   */\n      swap2\n      pop\n        /* \"#utility.yul\":2583:2700   */\n      pop\n        /* \"#utility.yul\":2378:2707   */\n      swap3\n      swap2\n      pop\n      pop\n      jump\t// out\n        /* \"#utility.yul\":2713:3332   */\n    tag_131:\n        /* \"#utility.yul\":2790:2796   */\n      0x00\n        /* \"#utility.yul\":2798:2804   */\n      dup1\n        /* \"#utility.yul\":2806:2812   */\n      0x00\n        /* \"#utility.yul\":2855:2857   */\n      0x60\n        /* \"#utility.yul\":2843:2852   */\n      dup5\n        /* \"#utility.yul\":2834:2841   */\n      dup7\n        /* \"#utility.yul\":2830:2853   */\n      sub\n        /* \"#utility.yul\":2826:2858   */\n      slt\n        /* \"#utility.yul\":2823:2942   */\n      iszero\n      tag_772\n      jumpi\n        /* \"#utility.yul\":2861:2940   */\n      tag_773\n      tag_703\n      jump\t// in\n    tag_773:\n        /* \"#utility.yul\":2823:2942   */\n    tag_772:\n        /* \"#utility.yul\":2981:2982   */\n      0x00\n        /* \"#utility.yul\":3006:3059   */\n      tag_774\n        /* \"#utility.yul\":3051:3058   */\n      dup7\n        /* \"#utility.yul\":3042:3048   */\n      dup3\n        /* \"#utility.yul\":3031:3040   */\n      dup8\n        /* \"#utility.yul\":3027:3049   */\n      add\n        /* \"#utility.yul\":3006:3059   */\n      tag_709\n      jump\t// in\n    tag_774:\n        /* \"#utility.yul\":2996:3059   */\n      swap4\n      pop\n        /* \"#utility.yul\":2952:3069   */\n      pop\n        /* \"#utility.yul\":3108:3110   */\n      0x20\n        /* \"#utility.yul\":3134:3187   */\n      tag_775\n        /* \"#utility.yul\":3179:3186   */\n      dup7\n        /* \"#utility.yul\":3170:3176   */\n      dup3\n        /* \"#utility.yul\":3159:3168   */\n      dup8\n        /* \"#utility.yul\":3155:3177   */\n      add\n        /* \"#utility.yul\":3134:3187   */\n      tag_709\n      jump\t// in\n    tag_775:\n        /* \"#utility.yul\":3124:3187   */\n      swap3\n      pop\n        /* \"#utility.yul\":3079:3197   */\n      pop\n        /* \"#utility.yul\":3236:3238   */\n      0x40\n        /* \"#utility.yul\":3262:3315   */\n      tag_776\n        /* \"#utility.yul\":3307:3314   */\n      dup7\n        /* \"#utility.yul\":3298:3304   */\n      dup3\n        /* \"#utility.yul\":3287:3296   */\n      dup8\n        /* \"#utility.yul\":3283:3305   */\n      add\n        /* \"#utility.yul\":3262:3315   */\n      tag_709\n      jump\t// in\n    tag_776:\n        /* \"#utility.yul\":3252:3315   */\n      swap2\n      pop\n        /* \"#utility.yul\":3207:3325   */\n      pop\n        /* \"#utility.yul\":2713:3332   */\n      swap3\n      pop\n      swap3\n      pop\n      swap3\n      jump\t// out\n        /* \"#utility.yul\":3338:3812   */\n    tag_141:\n        /* \"#utility.yul\":3406:3412   */\n      0x00\n        /* \"#utility.yul\":3414:3420   */\n      dup1\n        /* \"#utility.yul\":3463:3465   */\n      0x40\n        /* \"#utility.yul\":3451:3460   */\n      dup4\n        /* \"#utility.yul\":3442:3449   */\n      dup6\n        /* \"#utility.yul\":3438:3461   */\n      sub\n        /* \"#utility.yul\":3434:3466   */\n      slt\n        /* \"#utility.yul\":3431:3550   */\n      iszero\n      tag_778\n      jumpi\n        /* \"#utility.yul\":3469:3548   */\n      tag_779\n      tag_703\n      jump\t// in\n    tag_779:\n        /* \"#utility.yul\":3431:3550   */\n    tag_778:\n        /* \"#utility.yul\":3589:3590   */\n      0x00\n        /* \"#utility.yul\":3614:3667   */\n      tag_780\n        /* \"#utility.yul\":3659:3666   */\n      dup6\n        /* \"#utility.yul\":3650:3656   */\n      dup3\n        /* \"#utility.yul\":3639:3648   */\n      dup7\n        /* \"#utility.yul\":3635:3657   */\n      add\n        /* \"#utility.yul\":3614:3667   */\n      tag_709\n      jump\t// in\n    tag_780:\n        /* \"#utility.yul\":3604:3667   */\n      swap3\n      pop\n        /* \"#utility.yul\":3560:3677   */\n      pop\n        /* \"#utility.yul\":3716:3718   */\n      0x20\n        /* \"#utility.yul\":3742:3795   */\n      tag_781\n        /* \"#utility.yul\":3787:3794   */\n      dup6\n        /* \"#utility.yul\":3778:3784   */\n      dup3\n        /* \"#utility.yul\":3767:3776   */\n      dup7\n        /* \"#utility.yul\":3763:3785   */\n      add\n        /* \"#utility.yul\":3742:3795   */\n      tag_709\n      jump\t// in\n    tag_781:\n        /* \"#utility.yul\":3732:3795   */\n      swap2\n      pop\n        /* \"#utility.yul\":3687:3805   */\n      pop\n        /* \"#utility.yul\":3338:3812   */\n      swap3\n      pop\n      swap3\n      swap1\n      pop\n      jump\t// out\n        /* \"#utility.yul\":3818:3914   */\n    tag_710:\n        /* \"#utility.yul\":3855:3862   */\n      0x00\n        /* \"#utility.yul\":3884:3908   */\n      tag_783\n        /* \"#utility.yul\":3902:3907   */\n      dup3\n        /* \"#utility.yul\":3884:3908   */\n      tag_699\n      jump\t// in\n    tag_783:\n        /* \"#utility.yul\":3873:3908   */\n      swap1\n      pop\n        /* \"#utility.yul\":3818:3914   */\n      swap2\n      swap1\n      pop\n      jump\t// out\n        /* \"#utility.yul\":3920:4042   */\n    tag_711:\n        /* \"#utility.yul\":3993:4017   */\n      tag_785\n        /* \"#utility.yul\":4011:4016   */\n      dup2\n        /* \"#utility.yul\":3993:4017   */\n      tag_710\n      jump\t// in\n    tag_785:\n        /* \"#utility.yul\":3986:3991   */\n      dup2\n        /* \"#utility.yul\":3983:4018   */\n      eq\n        /* \"#utility.yul\":3973:4036   */\n      tag_786\n      jumpi\n        /* \"#utility.yul\":4032:4033   */\n      0x00\n        /* \"#utility.yul\":4029:4030   */\n      dup1\n        /* \"#utility.yul\":4022:4034   */\n      revert\n        /* \"#utility.yul\":3973:4036   */\n    tag_786:\n        /* \"#utility.yul\":3920:4042   */\n      pop\n      jump\t// out\n        /* \"#utility.yul\":4048:4187   */\n    tag_712:\n        /* \"#utility.yul\":4094:4099   */\n      0x00\n        /* \"#utility.yul\":4132:4138   */\n      dup2\n        /* \"#utility.yul\":4119:4139   */\n      calldataload\n        /* \"#utility.yul\":4110:4139   */\n      swap1\n      pop\n        /* \"#utility.yul\":4148:4181   */\n      tag_788\n        /* \"#utility.yul\":4175:4180   */\n      dup2\n        /* \"#utility.yul\":4148:4181   */\n      tag_711\n      jump\t// in\n    tag_788:\n        /* \"#utility.yul\":4048:4187   */\n      swap3\n      swap2\n      pop\n      pop\n      jump\t// out\n        /* \"#utility.yul\":4193:4522   */\n    tag_151:\n        /* \"#utility.yul\":4252:4258   */\n      0x00\n        /* \"#utility.yul\":4301:4303   */\n      0x20\n        /* \"#utility.yul\":4289:4298   */\n      dup3\n        /* \"#utility.yul\":4280:4287   */\n      dup5\n        /* \"#utility.yul\":4276:4299   */\n      sub\n        /* \"#utility.yul\":4272:4304   */\n      slt\n        /* \"#utility.yul\":4269:4388   */\n      iszero\n      tag_790\n      jumpi\n        /* \"#utility.yul\":4307:4386   */\n      tag_791\n      tag_703\n      jump\t// in\n    tag_791:\n        /* \"#utility.yul\":4269:4388   */\n    tag_790:\n        /* \"#utility.yul\":4427:4428   */\n      0x00\n        /* \"#utility.yul\":4452:4505   */\n      tag_792\n        /* \"#utility.yul\":4497:4504   */\n      dup5\n        /* \"#utility.yul\":4488:4494   */\n      dup3\n        /* \"#utility.yul\":4477:4486   */\n      dup6\n        /* \"#utility.yul\":4473:4495   */\n      add\n        /* \"#utility.yul\":4452:4505   */\n      tag_712\n      jump\t// in\n    tag_792:\n        /* \"#utility.yul\":4442:4505   */\n      swap2\n      pop\n        /* \"#utility.yul\":4398:4515   */\n      pop\n        /* \"#utility.yul\":4193:4522   */\n      swap3\n      swap2\n      pop\n      pop\n      jump\t// out\n        /* \"#utility.yul\":4528:4637   */\n    tag_713:\n        /* \"#utility.yul\":4609:4630   */\n      tag_794\n        /* \"#utility.yul\":4624:4629   */\n      dup2\n        /* \"#utility.yul\":4609:4630   */\n      tag_705\n      jump\t// in\n    tag_794:\n        /* \"#utility.yul\":4604:4607   */\n      dup3\n        /* \"#utility.yul\":4597:4631   */\n      mstore\n        /* \"#utility.yul\":4528:4637   */\n      pop\n      pop\n      jump\t// out\n        /* \"#utility.yul\":4643:4853   */\n    tag_165:\n        /* \"#utility.yul\":4730:4734   */\n      0x00\n        /* \"#utility.yul\":4768:4770   */\n      0x20\n        /* \"#utility.yul\":4757:4766   */\n      dup3\n        /* \"#utility.yul\":4753:4771   */\n      add\n        /* \"#utility.yul\":4745:4771   */\n      swap1\n      pop\n        /* \"#utility.yul\":4781:4846   */\n      tag_796\n        /* \"#utility.yul\":4843:4844   */\n      0x00\n        /* \"#utility.yul\":4832:4841   */\n      dup4\n        /* \"#utility.yul\":4828:4845   */\n      add\n        /* \"#utility.yul\":4819:4825   */\n      dup5\n        /* \"#utility.yul\":4781:4846   */\n      tag_713\n      jump\t// in\n    tag_796:\n        /* \"#utility.yul\":4643:4853   */\n      swap3\n      swap2\n      pop\n      pop\n      jump\t// out\n        /* \"#utility.yul\":4859:5412   */\n    tag_190:\n        /* \"#utility.yul\":5036:5040   */\n      0x00\n        /* \"#utility.yul\":5074:5077   */\n      0x80\n        /* \"#utility.yul\":5063:5072   */\n      dup3\n        /* \"#utility.yul\":5059:5078   */\n      add\n        /* \"#utility.yul\":5051:5078   */\n      swap1\n      pop\n        /* \"#utility.yul\":5088:5159   */\n      tag_798\n        /* \"#utility.yul\":5156:5157   */\n      0x00\n        /* \"#utility.yul\":5145:5154   */\n      dup4\n        /* \"#utility.yul\":5141:5158   */\n      add\n        /* \"#utility.yul\":5132:5138   */\n      dup8\n        /* \"#utility.yul\":5088:5159   */\n      tag_698\n      jump\t// in\n    tag_798:\n        /* \"#utility.yul\":5169:5241   */\n      tag_799\n        /* \"#utility.yul\":5237:5239   */\n      0x20\n        /* \"#utility.yul\":5226:5235   */\n      dup4\n        /* \"#utility.yul\":5222:5240   */\n      add\n        /* \"#utility.yul\":5213:5219   */\n      dup7\n        /* \"#utility.yul\":5169:5241   */\n      tag_698\n      jump\t// in\n    tag_799:\n        /* \"#utility.yul\":5251:5323   */\n      tag_800\n        /* \"#utility.yul\":5319:5321   */\n      0x40\n        /* \"#utility.yul\":5308:5317   */\n      dup4\n        /* \"#utility.yul\":5304:5322   */\n      add\n        /* \"#utility.yul\":5295:5301   */\n      dup6\n        /* \"#utility.yul\":5251:5323   */\n      tag_698\n      jump\t// in\n    tag_800:\n        /* \"#utility.yul\":5333:5405   */\n      tag_801\n        /* \"#utility.yul\":5401:5403   */\n      0x60\n        /* \"#utility.yul\":5390:5399   */\n      dup4\n        /* \"#utility.yul\":5386:5404   */\n      add\n        /* \"#utility.yul\":5377:5383   */\n      dup5\n        /* \"#utility.yul\":5333:5405   */\n      tag_698\n      jump\t// in\n    tag_801:\n        /* \"#utility.yul\":4859:5412   */\n      swap6\n      swap5\n      pop\n      pop\n      pop\n      pop\n      pop\n      jump\t// out\n        /* \"#utility.yul\":5418:5892   */\n    tag_194:\n        /* \"#utility.yul\":5486:5492   */\n      0x00\n        /* \"#utility.yul\":5494:5500   */\n      dup1\n        /* \"#utility.yul\":5543:5545   */\n      0x40\n        /* \"#utility.yul\":5531:5540   */\n      dup4\n        /* \"#utility.yul\":5522:5529   */\n      dup6\n        /* \"#utility.yul\":5518:5541   */\n      sub\n        /* \"#utility.yul\":5514:5546   */\n      slt\n        /* \"#utility.yul\":5511:5630   */\n      iszero\n      tag_803\n      jumpi\n        /* \"#utility.yul\":5549:5628   */\n      tag_804\n      tag_703\n      jump\t// in\n    tag_804:\n        /* \"#utility.yul\":5511:5630   */\n    tag_803:\n        /* \"#utility.yul\":5669:5670   */\n      0x00\n        /* \"#utility.yul\":5694:5747   */\n      tag_805\n        /* \"#utility.yul\":5739:5746   */\n      dup6\n        /* \"#utility.yul\":5730:5736   */\n      dup3\n        /* \"#utility.yul\":5719:5728   */\n      dup7\n        /* \"#utility.yul\":5715:5737   */\n      add\n        /* \"#utility.yul\":5694:5747   */\n      tag_712\n      jump\t// in\n    tag_805:\n        /* \"#utility.yul\":5684:5747   */\n      swap3\n      pop\n        /* \"#utility.yul\":5640:5757   */\n      pop\n        /* \"#utility.yul\":5796:5798   */\n      0x20\n        /* \"#utility.yul\":5822:5875   */\n      tag_806\n        /* \"#utility.yul\":5867:5874   */\n      dup6\n        /* \"#utility.yul\":5858:5864   */\n      dup3\n        /* \"#utility.yul\":5847:5856   */\n      dup7\n        /* \"#utility.yul\":5843:5865   */\n      add\n        /* \"#utility.yul\":5822:5875   */\n      tag_709\n      jump\t// in\n    tag_806:\n        /* \"#utility.yul\":5812:5875   */\n      swap2\n      pop\n        /* \"#utility.yul\":5767:5885   */\n      pop\n        /* \"#utility.yul\":5418:5892   */\n      swap3\n      pop\n      swap3\n      swap1\n      pop\n      jump\t// out\n        /* \"#utility.yul\":5898:6016   */\n    tag_714:\n        /* \"#utility.yul\":5985:6009   */\n      tag_808\n        /* \"#utility.yul\":6003:6008   */\n      dup2\n        /* \"#utility.yul\":5985:6009   */\n      tag_710\n      jump\t// in\n    tag_808:\n        /* \"#utility.yul\":5980:5983   */\n      dup3\n        /* \"#utility.yul\":5973:6010   */\n      mstore\n        /* \"#utility.yul\":5898:6016   */\n      pop\n      pop\n      jump\t// out\n        /* \"#utility.yul\":6022:7467   */\n    tag_216:\n        /* \"#utility.yul\":6425:6429   */\n      0x00\n        /* \"#utility.yul\":6463:6466   */\n      0x0180\n        /* \"#utility.yul\":6452:6461   */\n      dup3\n        /* \"#utility.yul\":6448:6467   */\n      add\n        /* \"#utility.yul\":6440:6467   */\n      swap1\n      pop\n        /* \"#utility.yul\":6477:6548   */\n      tag_810\n        /* \"#utility.yul\":6545:6546   */\n      0x00\n        /* \"#utility.yul\":6534:6543   */\n      dup4\n        /* \"#utility.yul\":6530:6547   */\n      add\n        /* \"#utility.yul\":6521:6527   */\n      dup16\n        /* \"#utility.yul\":6477:6548   */\n      tag_698\n      jump\t// in\n    tag_810:\n        /* \"#utility.yul\":6558:6630   */\n      tag_811\n        /* \"#utility.yul\":6626:6628   */\n      0x20\n        /* \"#utility.yul\":6615:6624   */\n      dup4\n        /* \"#utility.yul\":6611:6629   */\n      add\n        /* \"#utility.yul\":6602:6608   */\n      dup15\n        /* \"#utility.yul\":6558:6630   */\n      tag_698\n      jump\t// in\n    tag_811:\n        /* \"#utility.yul\":6640:6712   */\n      tag_812\n        /* \"#utility.yul\":6708:6710   */\n      0x40\n        /* \"#utility.yul\":6697:6706   */\n      dup4\n        /* \"#utility.yul\":6693:6711   */\n      add\n        /* \"#utility.yul\":6684:6690   */\n      dup14\n        /* \"#utility.yul\":6640:6712   */\n      tag_698\n      jump\t// in\n    tag_812:\n        /* \"#utility.yul\":6722:6794   */\n      tag_813\n        /* \"#utility.yul\":6790:6792   */\n      0x60\n        /* \"#utility.yul\":6779:6788   */\n      dup4\n        /* \"#utility.yul\":6775:6793   */\n      add\n        /* \"#utility.yul\":6766:6772   */\n      dup13\n        /* \"#utility.yul\":6722:6794   */\n      tag_698\n      jump\t// in\n    tag_813:\n        /* \"#utility.yul\":6804:6877   */\n      tag_814\n        /* \"#utility.yul\":6872:6875   */\n      0x80\n        /* \"#utility.yul\":6861:6870   */\n      dup4\n        /* \"#utility.yul\":6857:6876   */\n      add\n        /* \"#utility.yul\":6848:6854   */\n      dup12\n        /* \"#utility.yul\":6804:6877   */\n      tag_698\n      jump\t// in\n    tag_814:\n        /* \"#utility.yul\":6887:6960   */\n      tag_815\n        /* \"#utility.yul\":6955:6958   */\n      0xa0\n        /* \"#utility.yul\":6944:6953   */\n      dup4\n        /* \"#utility.yul\":6940:6959   */\n      add\n        /* \"#utility.yul\":6931:6937   */\n      dup11\n        /* \"#utility.yul\":6887:6960   */\n      tag_714\n      jump\t// in\n    tag_815:\n        /* \"#utility.yul\":6970:7043   */\n      tag_816\n        /* \"#utility.yul\":7038:7041   */\n      0xc0\n        /* \"#utility.yul\":7027:7036   */\n      dup4\n        /* \"#utility.yul\":7023:7042   */\n      add\n        /* \"#utility.yul\":7014:7020   */\n      dup10\n        /* \"#utility.yul\":6970:7043   */\n      tag_698\n      jump\t// in\n    tag_816:\n        /* \"#utility.yul\":7053:7126   */\n      tag_817\n        /* \"#utility.yul\":7121:7124   */\n      0xe0\n        /* \"#utility.yul\":7110:7119   */\n      dup4\n        /* \"#utility.yul\":7106:7125   */\n      add\n        /* \"#utility.yul\":7097:7103   */\n      dup9\n        /* \"#utility.yul\":7053:7126   */\n      tag_698\n      jump\t// in\n    tag_817:\n        /* \"#utility.yul\":7136:7209   */\n      tag_818\n        /* \"#utility.yul\":7204:7207   */\n      0x0100\n        /* \"#utility.yul\":7193:7202   */\n      dup4\n        /* \"#utility.yul\":7189:7208   */\n      add\n        /* \"#utility.yul\":7180:7186   */\n      dup8\n        /* \"#utility.yul\":7136:7209   */\n      tag_698\n      jump\t// in\n    tag_818:\n        /* \"#utility.yul\":7219:7292   */\n      tag_819\n        /* \"#utility.yul\":7287:7290   */\n      0x0120\n        /* \"#utility.yul\":7276:7285   */\n      dup4\n        /* \"#utility.yul\":7272:7291   */\n      add\n        /* \"#utility.yul\":7263:7269   */\n      dup7\n        /* \"#utility.yul\":7219:7292   */\n      tag_698\n      jump\t// in\n    tag_819:\n        /* \"#utility.yul\":7302:7376   */\n      tag_820\n        /* \"#utility.yul\":7371:7374   */\n      0x0140\n        /* \"#utility.yul\":7360:7369   */\n      dup4\n        /* \"#utility.yul\":7356:7375   */\n      add\n        /* \"#utility.yul\":7346:7353   */\n      dup6\n        /* \"#utility.yul\":7302:7376   */\n      tag_698\n      jump\t// in\n    tag_820:\n        /* \"#utility.yul\":7386:7460   */\n      tag_821\n        /* \"#utility.yul\":7455:7458   */\n      0x0160\n        /* \"#utility.yul\":7444:7453   */\n      dup4\n        /* \"#utility.yul\":7440:7459   */\n      add\n        /* \"#utility.yul\":7430:7437   */\n      dup5\n        /* \"#utility.yul\":7386:7460   */\n      tag_698\n      jump\t// in\n    tag_821:\n        /* \"#utility.yul\":6022:7467   */\n      swap14\n      swap13\n      pop\n      pop\n      pop\n      pop\n      pop\n      pop\n      pop\n      pop\n      pop\n      pop\n      pop\n      pop\n      pop\n      jump\t// out\n        /* \"#utility.yul\":7473:7695   */\n    tag_283:\n        /* \"#utility.yul\":7566:7570   */\n      0x00\n        /* \"#utility.yul\":7604:7606   */\n      0x20\n        /* \"#utility.yul\":7593:7602   */\n      dup3\n        /* \"#utility.yul\":7589:7607   */\n      add\n        /* \"#utility.yul\":7581:7607   */\n      swap1\n      pop\n        /* \"#utility.yul\":7617:7688   */\n      tag_823\n        /* \"#utility.yul\":7685:7686   */\n      0x00\n        /* \"#utility.yul\":7674:7683   */\n      dup4\n        /* \"#utility.yul\":7670:7687   */\n      add\n        /* \"#utility.yul\":7661:7667   */\n      dup5\n        /* \"#utility.yul\":7617:7688   */\n      tag_714\n      jump\t// in\n    tag_823:\n        /* \"#utility.yul\":7473:7695   */\n      swap3\n      swap2\n      pop\n      pop\n      jump\t// out\n        /* \"#utility.yul\":7701:8033   */\n    tag_325:\n        /* \"#utility.yul\":7822:7826   */\n      0x00\n        /* \"#utility.yul\":7860:7862   */\n      0x40\n        /* \"#utility.yul\":7849:7858   */\n      dup3\n        /* \"#utility.yul\":7845:7863   */\n      add\n        /* \"#utility.yul\":7837:7863   */\n      swap1\n      pop\n        /* \"#utility.yul\":7873:7944   */\n      tag_825\n        /* \"#utility.yul\":7941:7942   */\n      0x00\n        /* \"#utility.yul\":7930:7939   */\n      dup4\n        /* \"#utility.yul\":7926:7943   */\n      add\n        /* \"#utility.yul\":7917:7923   */\n      dup6\n        /* \"#utility.yul\":7873:7944   */\n      tag_698\n      jump\t// in\n    tag_825:\n        /* \"#utility.yul\":7954:8026   */\n      tag_826\n        /* \"#utility.yul\":8022:8024   */\n      0x20\n        /* \"#utility.yul\":8011:8020   */\n      dup4\n        /* \"#utility.yul\":8007:8025   */\n      add\n        /* \"#utility.yul\":7998:8004   */\n      dup5\n        /* \"#utility.yul\":7954:8026   */\n      tag_698\n      jump\t// in\n    tag_826:\n        /* \"#utility.yul\":7701:8033   */\n      swap4\n      swap3\n      pop\n      pop\n      pop\n      jump\t// out\n        /* \"#utility.yul\":8039:8507   */\n    tag_364:\n        /* \"#utility.yul\":8104:8110   */\n      0x00\n        /* \"#utility.yul\":8112:8118   */\n      dup1\n        /* \"#utility.yul\":8161:8163   */\n      0x40\n        /* \"#utility.yul\":8149:8158   */\n      dup4\n        /* \"#utility.yul\":8140:8147   */\n      dup6\n        /* \"#utility.yul\":8136:8159   */\n      sub\n        /* \"#utility.yul\":8132:8164   */\n      slt\n        /* \"#utility.yul\":8129:8248   */\n      iszero\n      tag_828\n      jumpi\n        /* \"#utility.yul\":8167:8246   */\n      tag_829\n      tag_703\n      jump\t// in\n    tag_829:\n        /* \"#utility.yul\":8129:8248   */\n    tag_828:\n        /* \"#utility.yul\":8287:8288   */\n      0x00\n        /* \"#utility.yul\":8312:8365   */\n      tag_830\n        /* \"#utility.yul\":8357:8364   */\n      dup6\n        /* \"#utility.yul\":8348:8354   */\n      dup3\n        /* \"#utility.yul\":8337:8346   */\n      dup7\n        /* \"#utility.yul\":8333:8355   */\n      add\n        /* \"#utility.yul\":8312:8365   */\n      tag_712\n      jump\t// in\n    tag_830:\n        /* \"#utility.yul\":8302:8365   */\n      swap3\n      pop\n        /* \"#utility.yul\":8258:8375   */\n      pop\n        /* \"#utility.yul\":8414:8416   */\n      0x20\n        /* \"#utility.yul\":8440:8490   */\n      tag_831\n        /* \"#utility.yul\":8482:8489   */\n      dup6\n        /* \"#utility.yul\":8473:8479   */\n      dup3\n        /* \"#utility.yul\":8462:8471   */\n      dup7\n        /* \"#utility.yul\":8458:8480   */\n      add\n        /* \"#utility.yul\":8440:8490   */\n      tag_707\n      jump\t// in\n    tag_831:\n        /* \"#utility.yul\":8430:8490   */\n      swap2\n      pop\n        /* \"#utility.yul\":8385:8500   */\n      pop\n        /* \"#utility.yul\":8039:8507   */\n      swap3\n      pop\n      swap3\n      swap1\n      pop\n      jump\t// out\n        /* \"#utility.yul\":8513:8630   */\n    tag_715:\n        /* \"#utility.yul\":8622:8623   */\n      0x00\n        /* \"#utility.yul\":8619:8620   */\n      dup1\n        /* \"#utility.yul\":8612:8624   */\n      revert\n        /* \"#utility.yul\":8636:8753   */\n    tag_716:\n        /* \"#utility.yul\":8745:8746   */\n      0x00\n        /* \"#utility.yul\":8742:8743   */\n      dup1\n        /* \"#utility.yul\":8735:8747   */\n      revert\n        /* \"#utility.yul\":8759:8876   */\n    tag_717:\n        /* \"#utility.yul\":8868:8869   */\n      0x00\n        /* \"#utility.yul\":8865:8866   */\n      dup1\n        /* \"#utility.yul\":8858:8870   */\n      revert\n        /* \"#utility.yul\":8899:9467   */\n    tag_718:\n        /* \"#utility.yul\":8972:8980   */\n      0x00\n        /* \"#utility.yul\":8982:8988   */\n      dup1\n        /* \"#utility.yul\":9032:9035   */\n      dup4\n        /* \"#utility.yul\":9025:9029   */\n      0x1f\n        /* \"#utility.yul\":9017:9023   */\n      dup5\n        /* \"#utility.yul\":9013:9030   */\n      add\n        /* \"#utility.yul\":9009:9036   */\n      slt\n        /* \"#utility.yul\":8999:9121   */\n      tag_836\n      jumpi\n        /* \"#utility.yul\":9040:9119   */\n      tag_837\n      tag_715\n      jump\t// in\n    tag_837:\n        /* \"#utility.yul\":8999:9121   */\n    tag_836:\n        /* \"#utility.yul\":9153:9159   */\n      dup3\n        /* \"#utility.yul\":9140:9160   */\n      calldataload\n        /* \"#utility.yul\":9130:9160   */\n      swap1\n      pop\n        /* \"#utility.yul\":9183:9201   */\n      0xffffffffffffffff\n        /* \"#utility.yul\":9175:9181   */\n      dup2\n        /* \"#utility.yul\":9172:9202   */\n      gt\n        /* \"#utility.yul\":9169:9286   */\n      iszero\n      tag_838\n      jumpi\n        /* \"#utility.yul\":9205:9284   */\n      tag_839\n      tag_716\n      jump\t// in\n    tag_839:\n        /* \"#utility.yul\":9169:9286   */\n    tag_838:\n        /* \"#utility.yul\":9319:9323   */\n      0x20\n        /* \"#utility.yul\":9311:9317   */\n      dup4\n        /* \"#utility.yul\":9307:9324   */\n      add\n        /* \"#utility.yul\":9295:9324   */\n      swap2\n      pop\n        /* \"#utility.yul\":9373:9376   */\n      dup4\n        /* \"#utility.yul\":9365:9369   */\n      0x20\n        /* \"#utility.yul\":9357:9363   */\n      dup3\n        /* \"#utility.yul\":9353:9370   */\n      mul\n        /* \"#utility.yul\":9343:9351   */\n      dup4\n        /* \"#utility.yul\":9339:9371   */\n      add\n        /* \"#utility.yul\":9336:9377   */\n      gt\n        /* \"#utility.yul\":9333:9461   */\n      iszero\n      tag_840\n      jumpi\n        /* \"#utility.yul\":9380:9459   */\n      tag_841\n      tag_717\n      jump\t// in\n    tag_841:\n        /* \"#utility.yul\":9333:9461   */\n    tag_840:\n        /* \"#utility.yul\":8899:9467   */\n      swap3\n      pop\n      swap3\n      swap1\n      pop\n      jump\t// out\n        /* \"#utility.yul\":9473:10171   */\n    tag_384:\n        /* \"#utility.yul\":9565:9571   */\n      0x00\n        /* \"#utility.yul\":9573:9579   */\n      dup1\n        /* \"#utility.yul\":9581:9587   */\n      0x00\n        /* \"#utility.yul\":9630:9632   */\n      0x40\n        /* \"#utility.yul\":9618:9627   */\n      dup5\n        /* \"#utility.yul\":9609:9616   */\n      dup7\n        /* \"#utility.yul\":9605:9628   */\n      sub\n        /* \"#utility.yul\":9601:9633   */\n      slt\n        /* \"#utility.yul\":9598:9717   */\n      iszero\n      tag_843\n      jumpi\n        /* \"#utility.yul\":9636:9715   */\n      tag_844\n      tag_703\n      jump\t// in\n    tag_844:\n        /* \"#utility.yul\":9598:9717   */\n    tag_843:\n        /* \"#utility.yul\":9784:9785   */\n      0x00\n        /* \"#utility.yul\":9773:9782   */\n      dup5\n        /* \"#utility.yul\":9769:9786   */\n      add\n        /* \"#utility.yul\":9756:9787   */\n      calldataload\n        /* \"#utility.yul\":9814:9832   */\n      0xffffffffffffffff\n        /* \"#utility.yul\":9806:9812   */\n      dup2\n        /* \"#utility.yul\":9803:9833   */\n      gt\n        /* \"#utility.yul\":9800:9917   */\n      iszero\n      tag_845\n      jumpi\n        /* \"#utility.yul\":9836:9915   */\n      tag_846\n      tag_704\n      jump\t// in\n    tag_846:\n        /* \"#utility.yul\":9800:9917   */\n    tag_845:\n        /* \"#utility.yul\":9949:10029   */\n      tag_847\n        /* \"#utility.yul\":10021:10028   */\n      dup7\n        /* \"#utility.yul\":10012:10018   */\n      dup3\n        /* \"#utility.yul\":10001:10010   */\n      dup8\n        /* \"#utility.yul\":9997:10019   */\n      add\n        /* \"#utility.yul\":9949:10029   */\n      tag_718\n      jump\t// in\n    tag_847:\n        /* \"#utility.yul\":9931:10029   */\n      swap4\n      pop\n      swap4\n      pop\n        /* \"#utility.yul\":9727:10039   */\n      pop\n        /* \"#utility.yul\":10078:10080   */\n      0x20\n        /* \"#utility.yul\":10104:10154   */\n      tag_848\n        /* \"#utility.yul\":10146:10153   */\n      dup7\n        /* \"#utility.yul\":10137:10143   */\n      dup3\n        /* \"#utility.yul\":10126:10135   */\n      dup8\n        /* \"#utility.yul\":10122:10144   */\n      add\n        /* \"#utility.yul\":10104:10154   */\n      tag_707\n      jump\t// in\n    tag_848:\n        /* \"#utility.yul\":10094:10154   */\n      swap2\n      pop\n        /* \"#utility.yul\":10049:10164   */\n      pop\n        /* \"#utility.yul\":9473:10171   */\n      swap3\n      pop\n      swap3\n      pop\n      swap3\n      jump\t// out\n        /* \"#utility.yul\":10177:10346   */\n    tag_719:\n        /* \"#utility.yul\":10261:10272   */\n      0x00\n        /* \"#utility.yul\":10295:10301   */\n      dup3\n        /* \"#utility.yul\":10290:10293   */\n      dup3\n        /* \"#utility.yul\":10283:10302   */\n      mstore\n        /* \"#utility.yul\":10335:10339   */\n      0x20\n        /* \"#utility.yul\":10330:10333   */\n      dup3\n        /* \"#utility.yul\":10326:10340   */\n      add\n        /* \"#utility.yul\":10311:10340   */\n      swap1\n      pop\n        /* \"#utility.yul\":10177:10346   */\n      swap3\n      swap2\n      pop\n      pop\n      jump\t// out\n        /* \"#utility.yul\":10352:10527   */\n    tag_720:\n        /* \"#utility.yul\":10492:10519   */\n      0x436f6e7472616374206e6f742079657420537461727465642e00000000000000\n        /* \"#utility.yul\":10488:10489   */\n      0x00\n        /* \"#utility.yul\":10480:10486   */\n      dup3\n        /* \"#utility.yul\":10476:10490   */\n      add\n        /* \"#utility.yul\":10469:10520   */\n      mstore\n        /* \"#utility.yul\":10352:10527   */\n      pop\n      jump\t// out\n        /* \"#utility.yul\":10533:10899   */\n    tag_721:\n        /* \"#utility.yul\":10675:10678   */\n      0x00\n        /* \"#utility.yul\":10696:10763   */\n      tag_852\n        /* \"#utility.yul\":10760:10762   */\n      0x19\n        /* \"#utility.yul\":10755:10758   */\n      dup4\n        /* \"#utility.yul\":10696:10763   */\n      tag_719\n      jump\t// in\n    tag_852:\n        /* \"#utility.yul\":10689:10763   */\n      swap2\n      pop\n        /* \"#utility.yul\":10772:10865   */\n      tag_853\n        /* \"#utility.yul\":10861:10864   */\n      dup3\n        /* \"#utility.yul\":10772:10865   */\n      tag_720\n      jump\t// in\n    tag_853:\n        /* \"#utility.yul\":10890:10892   */\n      0x20\n        /* \"#utility.yul\":10885:10888   */\n      dup3\n        /* \"#utility.yul\":10881:10893   */\n      add\n        /* \"#utility.yul\":10874:10893   */\n      swap1\n      pop\n        /* \"#utility.yul\":10533:10899   */\n      swap2\n      swap1\n      pop\n      jump\t// out\n        /* \"#utility.yul\":10905:11324   */\n    tag_400:\n        /* \"#utility.yul\":11071:11075   */\n      0x00\n        /* \"#utility.yul\":11109:11111   */\n      0x20\n        /* \"#utility.yul\":11098:11107   */\n      dup3\n        /* \"#utility.yul\":11094:11112   */\n      add\n        /* \"#utility.yul\":11086:11112   */\n      swap1\n      pop\n        /* \"#utility.yul\":11158:11167   */\n      dup2\n        /* \"#utility.yul\":11152:11156   */\n      dup2\n        /* \"#utility.yul\":11148:11168   */\n      sub\n        /* \"#utility.yul\":11144:11145   */\n      0x00\n        /* \"#utility.yul\":11133:11142   */\n      dup4\n        /* \"#utility.yul\":11129:11146   */\n      add\n        /* \"#utility.yul\":11122:11169   */\n      mstore\n        /* \"#utility.yul\":11186:11317   */\n      tag_855\n        /* \"#utility.yul\":11312:11316   */\n      dup2\n        /* \"#utility.yul\":11186:11317   */\n      tag_721\n      jump\t// in\n    tag_855:\n        /* \"#utility.yul\":11178:11317   */\n      swap1\n      pop\n        /* \"#utility.yul\":10905:11324   */\n      swap2\n      swap1\n      pop\n      jump\t// out\n        /* \"#utility.yul\":11330:11495   */\n    tag_722:\n        /* \"#utility.yul\":11470:11487   */\n      0x41646d696e20757365206f6e6c792e0000000000000000000000000000000000\n        /* \"#utility.yul\":11466:11467   */\n      0x00\n        /* \"#utility.yul\":11458:11464   */\n      dup3\n        /* \"#utility.yul\":11454:11468   */\n      add\n        /* \"#utility.yul\":11447:11488   */\n      mstore\n        /* \"#utility.yul\":11330:11495   */\n      pop\n      jump\t// out\n        /* \"#utility.yul\":11501:11867   */\n    tag_723:\n        /* \"#utility.yul\":11643:11646   */\n      0x00\n        /* \"#utility.yul\":11664:11731   */\n      tag_858\n        /* \"#utility.yul\":11728:11730   */\n      0x0f\n        /* \"#utility.yul\":11723:11726   */\n      dup4\n        /* \"#utility.yul\":11664:11731   */\n      tag_719\n      jump\t// in\n    tag_858:\n        /* \"#utility.yul\":11657:11731   */\n      swap2\n      pop\n        /* \"#utility.yul\":11740:11833   */\n      tag_859\n        /* \"#utility.yul\":11829:11832   */\n      dup3\n        /* \"#utility.yul\":11740:11833   */\n      tag_722\n      jump\t// in\n    tag_859:\n        /* \"#utility.yul\":11858:11860   */\n      0x20\n        /* \"#utility.yul\":11853:11856   */\n      dup3\n        /* \"#utility.yul\":11849:11861   */\n      add\n        /* \"#utility.yul\":11842:11861   */\n      swap1\n      pop\n        /* \"#utility.yul\":11501:11867   */\n      swap2\n      swap1\n      pop\n      jump\t// out\n        /* \"#utility.yul\":11873:12292   */\n    tag_423:\n        /* \"#utility.yul\":12039:12043   */\n      0x00\n        /* \"#utility.yul\":12077:12079   */\n      0x20\n        /* \"#utility.yul\":12066:12075   */\n      dup3\n        /* \"#utility.yul\":12062:12080   */\n      add\n        /* \"#utility.yul\":12054:12080   */\n      swap1\n      pop\n        /* \"#utility.yul\":12126:12135   */\n      dup2\n        /* \"#utility.yul\":12120:12124   */\n      dup2\n        /* \"#utility.yul\":12116:12136   */\n      sub\n        /* \"#utility.yul\":12112:12113   */\n      0x00\n        /* \"#utility.yul\":12101:12110   */\n      dup4\n        /* \"#utility.yul\":12097:12114   */\n      add\n        /* \"#utility.yul\":12090:12137   */\n      mstore\n        /* \"#utility.yul\":12154:12285   */\n      tag_861\n        /* \"#utility.yul\":12280:12284   */\n      dup2\n        /* \"#utility.yul\":12154:12285   */\n      tag_723\n      jump\t// in\n    tag_861:\n        /* \"#utility.yul\":12146:12285   */\n      swap1\n      pop\n        /* \"#utility.yul\":11873:12292   */\n      swap2\n      swap1\n      pop\n      jump\t// out\n        /* \"#utility.yul\":12298:12462   */\n    tag_724:\n        /* \"#utility.yul\":12438:12454   */\n      0x41646d696e20757365206f6e6c79000000000000000000000000000000000000\n        /* \"#utility.yul\":12434:12435   */\n      0x00\n        /* \"#utility.yul\":12426:12432   */\n      dup3\n        /* \"#utility.yul\":12422:12436   */\n      add\n        /* \"#utility.yul\":12415:12455   */\n      mstore\n        /* \"#utility.yul\":12298:12462   */\n      pop\n      jump\t// out\n        /* \"#utility.yul\":12468:12834   */\n    tag_725:\n        /* \"#utility.yul\":12610:12613   */\n      0x00\n        /* \"#utility.yul\":12631:12698   */\n      tag_864\n        /* \"#utility.yul\":12695:12697   */\n      0x0e\n        /* \"#utility.yul\":12690:12693   */\n      dup4\n        /* \"#utility.yul\":12631:12698   */\n      tag_719\n      jump\t// in\n    tag_864:\n        /* \"#utility.yul\":12624:12698   */\n      swap2\n      pop\n        /* \"#utility.yul\":12707:12800   */\n      tag_865\n        /* \"#utility.yul\":12796:12799   */\n      dup3\n        /* \"#utility.yul\":12707:12800   */\n      tag_724\n      jump\t// in\n    tag_865:\n        /* \"#utility.yul\":12825:12827   */\n      0x20\n        /* \"#utility.yul\":12820:12823   */\n      dup3\n        /* \"#utility.yul\":12816:12828   */\n      add\n        /* \"#utility.yul\":12809:12828   */\n      swap1\n      pop\n        /* \"#utility.yul\":12468:12834   */\n      swap2\n      swap1\n      pop\n      jump\t// out\n        /* \"#utility.yul\":12840:13259   */\n    tag_449:\n        /* \"#utility.yul\":13006:13010   */\n      0x00\n        /* \"#utility.yul\":13044:13046   */\n      0x20\n        /* \"#utility.yul\":13033:13042   */\n      dup3\n        /* \"#utility.yul\":13029:13047   */\n      add\n        /* \"#utility.yul\":13021:13047   */\n      swap1\n      pop\n        /* \"#utility.yul\":13093:13102   */\n      dup2\n        /* \"#utility.yul\":13087:13091   */\n      dup2\n        /* \"#utility.yul\":13083:13103   */\n      sub\n        /* \"#utility.yul\":13079:13080   */\n      0x00\n        /* \"#utility.yul\":13068:13077   */\n      dup4\n        /* \"#utility.yul\":13064:13081   */\n      add\n        /* \"#utility.yul\":13057:13104   */\n      mstore\n        /* \"#utility.yul\":13121:13252   */\n      tag_867\n        /* \"#utility.yul\":13247:13251   */\n      dup2\n        /* \"#utility.yul\":13121:13252   */\n      tag_725\n      jump\t// in\n    tag_867:\n        /* \"#utility.yul\":13113:13252   */\n      swap1\n      pop\n        /* \"#utility.yul\":12840:13259   */\n      swap2\n      swap1\n      pop\n      jump\t// out\n        /* \"#utility.yul\":13265:13445   */\n    tag_726:\n        /* \"#utility.yul\":13313:13390   */\n      0x4e487b7100000000000000000000000000000000000000000000000000000000\n        /* \"#utility.yul\":13310:13311   */\n      0x00\n        /* \"#utility.yul\":13303:13391   */\n      mstore\n        /* \"#utility.yul\":13410:13414   */\n      0x11\n        /* \"#utility.yul\":13407:13408   */\n      0x04\n        /* \"#utility.yul\":13400:13415   */\n      mstore\n        /* \"#utility.yul\":13434:13438   */\n      0x24\n        /* \"#utility.yul\":13431:13432   */\n      0x00\n        /* \"#utility.yul\":13424:13439   */\n      revert\n        /* \"#utility.yul\":13451:13799   */\n    tag_452:\n        /* \"#utility.yul\":13491:13498   */\n      0x00\n        /* \"#utility.yul\":13514:13534   */\n      tag_870\n        /* \"#utility.yul\":13532:13533   */\n      dup3\n        /* \"#utility.yul\":13514:13534   */\n      tag_697\n      jump\t// in\n    tag_870:\n        /* \"#utility.yul\":13509:13534   */\n      swap2\n      pop\n        /* \"#utility.yul\":13548:13568   */\n      tag_871\n        /* \"#utility.yul\":13566:13567   */\n      dup4\n        /* \"#utility.yul\":13548:13568   */\n      tag_697\n      jump\t// in\n    tag_871:\n        /* \"#utility.yul\":13543:13568   */\n      swap3\n      pop\n        /* \"#utility.yul\":13736:13737   */\n      dup2\n        /* \"#utility.yul\":13668:13734   */\n      0xffffffffffffffffffffffffffffffffffffffffffffffffffffffffffffffff\n        /* \"#utility.yul\":13664:13738   */\n      div\n        /* \"#utility.yul\":13661:13662   */\n      dup4\n        /* \"#utility.yul\":13658:13739   */\n      gt\n        /* \"#utility.yul\":13653:13654   */\n      dup3\n        /* \"#utility.yul\":13646:13655   */\n      iszero\n        /* \"#utility.yul\":13639:13656   */\n      iszero\n        /* \"#utility.yul\":13635:13740   */\n      and\n        /* \"#utility.yul\":13632:13763   */\n      iszero\n      tag_872\n      jumpi\n        /* \"#utility.yul\":13743:13761   */\n      tag_873\n      tag_726\n      jump\t// in\n    tag_873:\n        /* \"#utility.yul\":13632:13763   */\n    tag_872:\n        /* \"#utility.yul\":13791:13792   */\n      dup3\n        /* \"#utility.yul\":13788:13789   */\n      dup3\n        /* \"#utility.yul\":13784:13793   */\n      mul\n        /* \"#utility.yul\":13773:13793   */\n      swap1\n      pop\n        /* \"#utility.yul\":13451:13799   */\n      swap3\n      swap2\n      pop\n      pop\n      jump\t// out\n        /* \"#utility.yul\":13805:13982   */\n    tag_727:\n        /* \"#utility.yul\":13945:13974   */\n      0x4d696e696e756d20696e766573746d656e74206e6f74206d65742e0000000000\n        /* \"#utility.yul\":13941:13942   */\n      0x00\n        /* \"#utility.yul\":13933:13939   */\n      dup3\n        /* \"#utility.yul\":13929:13943   */\n      add\n        /* \"#utility.yul\":13922:13975   */\n      mstore\n        /* \"#utility.yul\":13805:13982   */\n      pop\n      jump\t// out\n        /* \"#utility.yul\":13988:14354   */\n    tag_728:\n        /* \"#utility.yul\":14130:14133   */\n      0x00\n        /* \"#utility.yul\":14151:14218   */\n      tag_876\n        /* \"#utility.yul\":14215:14217   */\n      0x1b\n        /* \"#utility.yul\":14210:14213   */\n      dup4\n        /* \"#utility.yul\":14151:14218   */\n      tag_719\n      jump\t// in\n    tag_876:\n        /* \"#utility.yul\":14144:14218   */\n      swap2\n      pop\n        /* \"#utility.yul\":14227:14320   */\n      tag_877\n        /* \"#utility.yul\":14316:14319   */\n      dup3\n        /* \"#utility.yul\":14227:14320   */\n      tag_727\n      jump\t// in\n    tag_877:\n        /* \"#utility.yul\":14345:14347   */\n      0x20\n        /* \"#utility.yul\":14340:14343   */\n      dup3\n        /* \"#utility.yul\":14336:14348   */\n      add\n        /* \"#utility.yul\":14329:14348   */\n      swap1\n      pop\n        /* \"#utility.yul\":13988:14354   */\n      swap2\n      swap1\n      pop\n      jump\t// out\n        /* \"#utility.yul\":14360:14779   */\n    tag_470:\n        /* \"#utility.yul\":14526:14530   */\n      0x00\n        /* \"#utility.yul\":14564:14566   */\n      0x20\n        /* \"#utility.yul\":14553:14562   */\n      dup3\n        /* \"#utility.yul\":14549:14567   */\n      add\n        /* \"#utility.yul\":14541:14567   */\n      swap1\n      pop\n        /* \"#utility.yul\":14613:14622   */\n      dup2\n        /* \"#utility.yul\":14607:14611   */\n      dup2\n        /* \"#utility.yul\":14603:14623   */\n      sub\n        /* \"#utility.yul\":14599:14600   */\n      0x00\n        /* \"#utility.yul\":14588:14597   */\n      dup4\n        /* \"#utility.yul\":14584:14601   */\n      add\n        /* \"#utility.yul\":14577:14624   */\n      mstore\n        /* \"#utility.yul\":14641:14772   */\n      tag_879\n        /* \"#utility.yul\":14767:14771   */\n      dup2\n        /* \"#utility.yul\":14641:14772   */\n      tag_728\n      jump\t// in\n    tag_879:\n        /* \"#utility.yul\":14633:14772   */\n      swap1\n      pop\n        /* \"#utility.yul\":14360:14779   */\n      swap2\n      swap1\n      pop\n      jump\t// out\n        /* \"#utility.yul\":14785:14961   */\n    tag_729:\n        /* \"#utility.yul\":14925:14953   */\n      0x4d6178206465706f736974206c696d697420726561636865642e000000000000\n        /* \"#utility.yul\":14921:14922   */\n      0x00\n        /* \"#utility.yul\":14913:14919   */\n      dup3\n        /* \"#utility.yul\":14909:14923   */\n      add\n        /* \"#utility.yul\":14902:14954   */\n      mstore\n        /* \"#utility.yul\":14785:14961   */\n      pop\n      jump\t// out\n        /* \"#utility.yul\":14967:15333   */\n    tag_730:\n        /* \"#utility.yul\":15109:15112   */\n      0x00\n        /* \"#utility.yul\":15130:15197   */\n      tag_882\n        /* \"#utility.yul\":15194:15196   */\n      0x1a\n        /* \"#utility.yul\":15189:15192   */\n      dup4\n        /* \"#utility.yul\":15130:15197   */\n      tag_719\n      jump\t// in\n    tag_882:\n        /* \"#utility.yul\":15123:15197   */\n      swap2\n      pop\n        /* \"#utility.yul\":15206:15299   */\n      tag_883\n        /* \"#utility.yul\":15295:15298   */\n      dup3\n        /* \"#utility.yul\":15206:15299   */\n      tag_729\n      jump\t// in\n    tag_883:\n        /* \"#utility.yul\":15324:15326   */\n      0x20\n        /* \"#utility.yul\":15319:15322   */\n      dup3\n        /* \"#utility.yul\":15315:15327   */\n      add\n        /* \"#utility.yul\":15308:15327   */\n      swap1\n      pop\n        /* \"#utility.yul\":14967:15333   */\n      swap2\n      swap1\n      pop\n      jump\t// out\n        /* \"#utility.yul\":15339:15758   */\n    tag_474:\n        /* \"#utility.yul\":15505:15509   */\n      0x00\n        /* \"#utility.yul\":15543:15545   */\n      0x20\n        /* \"#utility.yul\":15532:15541   */\n      dup3\n        /* \"#utility.yul\":15528:15546   */\n      add\n        /* \"#utility.yul\":15520:15546   */\n      swap1\n      pop\n        /* \"#utility.yul\":15592:15601   */\n      dup2\n        /* \"#utility.yul\":15586:15590   */\n      dup2\n        /* \"#utility.yul\":15582:15602   */\n      sub\n        /* \"#utility.yul\":15578:15579   */\n      0x00\n        /* \"#utility.yul\":15567:15576   */\n      dup4\n        /* \"#utility.yul\":15563:15580   */\n      add\n        /* \"#utility.yul\":15556:15603   */\n      mstore\n        /* \"#utility.yul\":15620:15751   */\n      tag_885\n        /* \"#utility.yul\":15746:15750   */\n      dup2\n        /* \"#utility.yul\":15620:15751   */\n      tag_730\n      jump\t// in\n    tag_885:\n        /* \"#utility.yul\":15612:15751   */\n      swap1\n      pop\n        /* \"#utility.yul\":15339:15758   */\n      swap2\n      swap1\n      pop\n      jump\t// out\n        /* \"#utility.yul\":15764:15937   */\n    tag_731:\n        /* \"#utility.yul\":15904:15929   */\n      0x4164647265737320697320626c61636b6c69737465642e000000000000000000\n        /* \"#utility.yul\":15900:15901   */\n      0x00\n        /* \"#utility.yul\":15892:15898   */\n      dup3\n        /* \"#utility.yul\":15888:15902   */\n      add\n        /* \"#utility.yul\":15881:15930   */\n      mstore\n        /* \"#utility.yul\":15764:15937   */\n      pop\n      jump\t// out\n        /* \"#utility.yul\":15943:16309   */\n    tag_732:\n        /* \"#utility.yul\":16085:16088   */\n      0x00\n        /* \"#utility.yul\":16106:16173   */\n      tag_888\n        /* \"#utility.yul\":16170:16172   */\n      0x17\n        /* \"#utility.yul\":16165:16168   */\n      dup4\n        /* \"#utility.yul\":16106:16173   */\n      tag_719\n      jump\t// in\n    tag_888:\n        /* \"#utility.yul\":16099:16173   */\n      swap2\n      pop\n        /* \"#utility.yul\":16182:16275   */\n      tag_889\n        /* \"#utility.yul\":16271:16274   */\n      dup3\n        /* \"#utility.yul\":16182:16275   */\n      tag_731\n      jump\t// in\n    tag_889:\n        /* \"#utility.yul\":16300:16302   */\n      0x20\n        /* \"#utility.yul\":16295:16298   */\n      dup3\n        /* \"#utility.yul\":16291:16303   */\n      add\n        /* \"#utility.yul\":16284:16303   */\n      swap1\n      pop\n        /* \"#utility.yul\":15943:16309   */\n      swap2\n      swap1\n      pop\n      jump\t// out\n        /* \"#utility.yul\":16315:16734   */\n    tag_511:\n        /* \"#utility.yul\":16481:16485   */\n      0x00\n        /* \"#utility.yul\":16519:16521   */\n      0x20\n        /* \"#utility.yul\":16508:16517   */\n      dup3\n        /* \"#utility.yul\":16504:16522   */\n      add\n        /* \"#utility.yul\":16496:16522   */\n      swap1\n      pop\n        /* \"#utility.yul\":16568:16577   */\n      dup2\n        /* \"#utility.yul\":16562:16566   */\n      dup2\n        /* \"#utility.yul\":16558:16578   */\n      sub\n        /* \"#utility.yul\":16554:16555   */\n      0x00\n        /* \"#utility.yul\":16543:16552   */\n      dup4\n        /* \"#utility.yul\":16539:16556   */\n      add\n        /* \"#utility.yul\":16532:16579   */\n      mstore\n        /* \"#utility.yul\":16596:16727   */\n      tag_891\n        /* \"#utility.yul\":16722:16726   */\n      dup2\n        /* \"#utility.yul\":16596:16727   */\n      tag_732\n      jump\t// in\n    tag_891:\n        /* \"#utility.yul\":16588:16727   */\n      swap1\n      pop\n        /* \"#utility.yul\":16315:16734   */\n      swap2\n      swap1\n      pop\n      jump\t// out\n        /* \"#utility.yul\":16740:16915   */\n    tag_733:\n        /* \"#utility.yul\":16880:16907   */\n      0x436f6e7472616374206e6f742079657420737461727465642e00000000000000\n        /* \"#utility.yul\":16876:16877   */\n      0x00\n        /* \"#utility.yul\":16868:16874   */\n      dup3\n        /* \"#utility.yul\":16864:16878   */\n      add\n        /* \"#utility.yul\":16857:16908   */\n      mstore\n        /* \"#utility.yul\":16740:16915   */\n      pop\n      jump\t// out\n        /* \"#utility.yul\":16921:17287   */\n    tag_734:\n        /* \"#utility.yul\":17063:17066   */\n      0x00\n        /* \"#utility.yul\":17084:17151   */\n      tag_894\n        /* \"#utility.yul\":17148:17150   */\n      0x19\n        /* \"#utility.yul\":17143:17146   */\n      dup4\n        /* \"#utility.yul\":17084:17151   */\n      tag_719\n      jump\t// in\n    tag_894:\n        /* \"#utility.yul\":17077:17151   */\n      swap2\n      pop\n        /* \"#utility.yul\":17160:17253   */\n      tag_895\n        /* \"#utility.yul\":17249:17252   */\n      dup3\n        /* \"#utility.yul\":17160:17253   */\n      tag_733\n      jump\t// in\n    tag_895:\n        /* \"#utility.yul\":17278:17280   */\n      0x20\n        /* \"#utility.yul\":17273:17276   */\n      dup3\n        /* \"#utility.yul\":17269:17281   */\n      add\n        /* \"#utility.yul\":17262:17281   */\n      swap1\n      pop\n        /* \"#utility.yul\":16921:17287   */\n      swap2\n      swap1\n      pop\n      jump\t// out\n        /* \"#utility.yul\":17293:17712   */\n    tag_610:\n        /* \"#utility.yul\":17459:17463   */\n      0x00\n        /* \"#utility.yul\":17497:17499   */\n      0x20\n        /* \"#utility.yul\":17486:17495   */\n      dup3\n        /* \"#utility.yul\":17482:17500   */\n      add\n        /* \"#utility.yul\":17474:17500   */\n      swap1\n      pop\n        /* \"#utility.yul\":17546:17555   */\n      dup2\n        /* \"#utility.yul\":17540:17544   */\n      dup2\n        /* \"#utility.yul\":17536:17556   */\n      sub\n        /* \"#utility.yul\":17532:17533   */\n      0x00\n        /* \"#utility.yul\":17521:17530   */\n      dup4\n        /* \"#utility.yul\":17517:17534   */\n      add\n        /* \"#utility.yul\":17510:17557   */\n      mstore\n        /* \"#utility.yul\":17574:17705   */\n      tag_897\n        /* \"#utility.yul\":17700:17704   */\n      dup2\n        /* \"#utility.yul\":17574:17705   */\n      tag_734\n      jump\t// in\n    tag_897:\n        /* \"#utility.yul\":17566:17705   */\n      swap1\n      pop\n        /* \"#utility.yul\":17293:17712   */\n      swap2\n      swap1\n      pop\n      jump\t// out\n        /* \"#utility.yul\":17718:17898   */\n    tag_628:\n        /* \"#utility.yul\":17766:17843   */\n      0x4e487b7100000000000000000000000000000000000000000000000000000000\n        /* \"#utility.yul\":17763:17764   */\n      0x00\n        /* \"#utility.yul\":17756:17844   */\n      mstore\n        /* \"#utility.yul\":17863:17867   */\n      0x32\n        /* \"#utility.yul\":17860:17861   */\n      0x04\n        /* \"#utility.yul\":17853:17868   */\n      mstore\n        /* \"#utility.yul\":17887:17891   */\n      0x24\n        /* \"#utility.yul\":17884:17885   */\n      0x00\n        /* \"#utility.yul\":17877:17892   */\n      revert\n        /* \"#utility.yul\":17904:18137   */\n    tag_631:\n        /* \"#utility.yul\":17943:17946   */\n      0x00\n        /* \"#utility.yul\":17966:17990   */\n      tag_900\n        /* \"#utility.yul\":17984:17989   */\n      dup3\n        /* \"#utility.yul\":17966:17990   */\n      tag_697\n      jump\t// in\n    tag_900:\n        /* \"#utility.yul\":17957:17990   */\n      swap2\n      pop\n        /* \"#utility.yul\":18012:18078   */\n      0xffffffffffffffffffffffffffffffffffffffffffffffffffffffffffffffff\n        /* \"#utility.yul\":18005:18010   */\n      dup3\n        /* \"#utility.yul\":18002:18079   */\n      eq\n        /* \"#utility.yul\":17999:18102   */\n      iszero\n      tag_901\n      jumpi\n        /* \"#utility.yul\":18082:18100   */\n      tag_902\n      tag_726\n      jump\t// in\n    tag_902:\n        /* \"#utility.yul\":17999:18102   */\n    tag_901:\n        /* \"#utility.yul\":18129:18130   */\n      0x01\n        /* \"#utility.yul\":18122:18127   */\n      dup3\n        /* \"#utility.yul\":18118:18131   */\n      add\n        /* \"#utility.yul\":18111:18131   */\n      swap1\n      pop\n        /* \"#utility.yul\":17904:18137   */\n      swap2\n      swap1\n      pop\n      jump\t// out\n        /* \"#utility.yul\":18143:18448   */\n    tag_634:\n        /* \"#utility.yul\":18183:18186   */\n      0x00\n        /* \"#utility.yul\":18202:18222   */\n      tag_904\n        /* \"#utility.yul\":18220:18221   */\n      dup3\n        /* \"#utility.yul\":18202:18222   */\n      tag_697\n      jump\t// in\n    tag_904:\n        /* \"#utility.yul\":18197:18222   */\n      swap2\n      pop\n        /* \"#utility.yul\":18236:18256   */\n      tag_905\n        /* \"#utility.yul\":18254:18255   */\n      dup4\n        /* \"#utility.yul\":18236:18256   */\n      tag_697\n      jump\t// in\n    tag_905:\n        /* \"#utility.yul\":18231:18256   */\n      swap3\n      pop\n        /* \"#utility.yul\":18390:18391   */\n      dup3\n        /* \"#utility.yul\":18322:18388   */\n      0xffffffffffffffffffffffffffffffffffffffffffffffffffffffffffffffff\n        /* \"#utility.yul\":18318:18392   */\n      sub\n        /* \"#utility.yul\":18315:18316   */\n      dup3\n        /* \"#utility.yul\":18312:18393   */\n      gt\n        /* \"#utility.yul\":18309:18416   */\n      iszero\n      tag_906\n      jumpi\n        /* \"#utility.yul\":18396:18414   */\n      tag_907\n      tag_726\n      jump\t// in\n    tag_907:\n        /* \"#utility.yul\":18309:18416   */\n    tag_906:\n        /* \"#utility.yul\":18440:18441   */\n      dup3\n        /* \"#utility.yul\":18437:18438   */\n      dup3\n        /* \"#utility.yul\":18433:18442   */\n      add\n        /* \"#utility.yul\":18426:18442   */\n      swap1\n      pop\n        /* \"#utility.yul\":18143:18448   */\n      swap3\n      swap2\n      pop\n      pop\n      jump\t// out\n        /* \"#utility.yul\":18454:18634   */\n    tag_637:\n        /* \"#utility.yul\":18502:18579   */\n      0x4e487b7100000000000000000000000000000000000000000000000000000000\n        /* \"#utility.yul\":18499:18500   */\n      0x00\n        /* \"#utility.yul\":18492:18580   */\n      mstore\n        /* \"#utility.yul\":18599:18603   */\n      0x01\n        /* \"#utility.yul\":18596:18597   */\n      0x04\n        /* \"#utility.yul\":18589:18604   */\n      mstore\n        /* \"#utility.yul\":18623:18627   */\n      0x24\n        /* \"#utility.yul\":18620:18621   */\n      0x00\n        /* \"#utility.yul\":18613:18628   */\n      revert\n        /* \"#utility.yul\":18640:18831   */\n    tag_642:\n        /* \"#utility.yul\":18680:18684   */\n      0x00\n        /* \"#utility.yul\":18700:18720   */\n      tag_910\n        /* \"#utility.yul\":18718:18719   */\n      dup3\n        /* \"#utility.yul\":18700:18720   */\n      tag_697\n      jump\t// in\n    tag_910:\n        /* \"#utility.yul\":18695:18720   */\n      swap2\n      pop\n        /* \"#utility.yul\":18734:18754   */\n      tag_911\n        /* \"#utility.yul\":18752:18753   */\n      dup4\n        /* \"#utility.yul\":18734:18754   */\n      tag_697\n      jump\t// in\n    tag_911:\n        /* \"#utility.yul\":18729:18754   */\n      swap3\n      pop\n        /* \"#utility.yul\":18773:18774   */\n      dup3\n        /* \"#utility.yul\":18770:18771   */\n      dup3\n        /* \"#utility.yul\":18767:18775   */\n      lt\n        /* \"#utility.yul\":18764:18798   */\n      iszero\n      tag_912\n      jumpi\n        /* \"#utility.yul\":18778:18796   */\n      tag_913\n      tag_726\n      jump\t// in\n    tag_913:\n        /* \"#utility.yul\":18764:18798   */\n    tag_912:\n        /* \"#utility.yul\":18823:18824   */\n      dup3\n        /* \"#utility.yul\":18820:18821   */\n      dup3\n        /* \"#utility.yul\":18816:18825   */\n      sub\n        /* \"#utility.yul\":18808:18825   */\n      swap1\n      pop\n        /* \"#utility.yul\":18640:18831   */\n      swap3\n      swap2\n      pop\n      pop\n      jump\t// out\n        /* \"#utility.yul\":18837:19017   */\n    tag_735:\n        /* \"#utility.yul\":18885:18962   */\n      0x4e487b7100000000000000000000000000000000000000000000000000000000\n        /* \"#utility.yul\":18882:18883   */\n      0x00\n        /* \"#utility.yul\":18875:18963   */\n      mstore\n        /* \"#utility.yul\":18982:18986   */\n      0x12\n        /* \"#utility.yul\":18979:18980   */\n      0x04\n        /* \"#utility.yul\":18972:18987   */\n      mstore\n        /* \"#utility.yul\":19006:19010   */\n      0x24\n        /* \"#utility.yul\":19003:19004   */\n      0x00\n        /* \"#utility.yul\":18996:19011   */\n      revert\n        /* \"#utility.yul\":19023:19208   */\n    tag_645:\n        /* \"#utility.yul\":19063:19064   */\n      0x00\n        /* \"#utility.yul\":19080:19100   */\n      tag_916\n        /* \"#utility.yul\":19098:19099   */\n      dup3\n        /* \"#utility.yul\":19080:19100   */\n      tag_697\n      jump\t// in\n    tag_916:\n        /* \"#utility.yul\":19075:19100   */\n      swap2\n      pop\n        /* \"#utility.yul\":19114:19134   */\n      tag_917\n        /* \"#utility.yul\":19132:19133   */\n      dup4\n        /* \"#utility.yul\":19114:19134   */\n      tag_697\n      jump\t// in\n    tag_917:\n        /* \"#utility.yul\":19109:19134   */\n      swap3\n      pop\n        /* \"#utility.yul\":19153:19154   */\n      dup3\n        /* \"#utility.yul\":19143:19178   */\n      tag_918\n      jumpi\n        /* \"#utility.yul\":19158:19176   */\n      tag_919\n      tag_735\n      jump\t// in\n    tag_919:\n        /* \"#utility.yul\":19143:19178   */\n    tag_918:\n        /* \"#utility.yul\":19200:19201   */\n      dup3\n        /* \"#utility.yul\":19197:19198   */\n      dup3\n        /* \"#utility.yul\":19193:19202   */\n      div\n        /* \"#utility.yul\":19188:19202   */\n      swap1\n      pop\n        /* \"#utility.yul\":19023:19208   */\n      swap3\n      swap2\n      pop\n      pop\n      jump\t// out\n        /* \"#utility.yul\":19214:19394   */\n    tag_655:\n        /* \"#utility.yul\":19262:19339   */\n      0x4e487b7100000000000000000000000000000000000000000000000000000000\n        /* \"#utility.yul\":19259:19260   */\n      0x00\n        /* \"#utility.yul\":19252:19340   */\n      mstore\n        /* \"#utility.yul\":19359:19363   */\n      0x41\n        /* \"#utility.yul\":19356:19357   */\n      0x04\n        /* \"#utility.yul\":19349:19364   */\n      mstore\n        /* \"#utility.yul\":19383:19387   */\n      0x24\n        /* \"#utility.yul\":19380:19381   */\n      0x00\n        /* \"#utility.yul\":19373:19388   */\n      revert\n\n    auxdata: 0xa2646970667358221220b642472ce55178962df6e09582fa209bae1b948881600e96fda5337c9389836064736f6c63430008090033\n}\n",
				"bytecode": {
					"linkReferences": {},
					"object": "60806040526215f90060005560466001556103e86002556009600355600c600455600260055567016345785d8a000060065568015af1d78b58c400006007556014600855600a60095561a8c0600a5561015e600b55600a600c556127106013556113886014556001601560016101000a81548160ff0219169083151502179055506202a3006017556138406018553480156200009a57600080fd5b50604051620049ab380380620049ab8339818101604052810190620000c09190620003b3565b620000d1866200033660201b60201c565b158015620000ed5750620000eb856200033660201b60201c565b155b801562000108575062000106846200033660201b60201c565b155b801562000123575062000121836200033660201b60201c565b155b80156200013e57506200013c826200033660201b60201c565b155b801562000159575062000157816200033660201b60201c565b155b6200016357600080fd5b33601960006101000a81548173ffffffffffffffffffffffffffffffffffffffff021916908373ffffffffffffffffffffffffffffffffffffffff16021790555085601a60006101000a81548173ffffffffffffffffffffffffffffffffffffffff021916908373ffffffffffffffffffffffffffffffffffffffff16021790555084601b60006101000a81548173ffffffffffffffffffffffffffffffffffffffff021916908373ffffffffffffffffffffffffffffffffffffffff16021790555083601c60006101000a81548173ffffffffffffffffffffffffffffffffffffffff021916908373ffffffffffffffffffffffffffffffffffffffff16021790555082601d60006101000a81548173ffffffffffffffffffffffffffffffffffffffff021916908373ffffffffffffffffffffffffffffffffffffffff16021790555081601e60006101000a81548173ffffffffffffffffffffffffffffffffffffffff021916908373ffffffffffffffffffffffffffffffffffffffff16021790555080601f60006101000a81548173ffffffffffffffffffffffffffffffffffffffff021916908373ffffffffffffffffffffffffffffffffffffffff1602179055505050505050506200044f565b600080823b905060008111915050919050565b600080fd5b600073ffffffffffffffffffffffffffffffffffffffff82169050919050565b60006200037b826200034e565b9050919050565b6200038d816200036e565b81146200039957600080fd5b50565b600081519050620003ad8162000382565b92915050565b60008060008060008060c08789031215620003d357620003d262000349565b5b6000620003e389828a016200039c565b9650506020620003f689828a016200039c565b95505060406200040989828a016200039c565b94505060606200041c89828a016200039c565b93505060806200042f89828a016200039c565b92505060a06200044289828a016200039c565b9150509295509295509295565b61454c806200045f6000396000f3fe6080604052600436106104105760003560e01c80637c8e4b4c1161021e578063bd097e2111610123578063d7c8843b116100ab578063e6dc95581161007a578063e6dc955814610faa578063e757694314610fd3578063eb27126814610ffc578063f6f6288614611025578063ffa4e6181461105057610410565b8063d7c8843b14610efd578063d989b4b314610f3a578063da235b2214610f63578063da5d4cc514610f8e57610410565b8063c63568c7116100f2578063c63568c714610e14578063c688f0fb14610e3f578063cc3e9c7814610e6a578063cd329fc314610ea7578063d7206d5d14610ed257610410565b8063bd097e2114610d66578063bdd1ca2714610d70578063bfa9f30414610dae578063c3251b4014610dd757610410565b80638da5cb5b116101a65780639b9cb69f116101755780639b9cb69f14610c765780639e9300a514610c9f578063a327c45d14610cc8578063a87430ba14610cf3578063b6e6fcf614610d3b57610410565b80638da5cb5b14610bba5780638e31632714610be5578063950d91e914610c22578063959c95b314610c4d57610410565b80637e56fde5116101ed5780637e56fde514610ad35780637ee28e3c14610b105780638013f3a714610b39578063817b1cd214610b645780638a315efd14610b8f57610410565b80637c8e4b4c14610a295780637cc5b1e614610a525780637d88209714610a7d5780637db07c9d14610aa857610410565b80633578584f1161032457806357386225116102ac57806368f58b031161027b57806368f58b031461095657806369b11dd5146109815780636f969d28146109ac578063752a2628146109d55780637a62ead714610a0057610410565b8063573862251461088f57806359eec895146108a65780636386c1c7146108d157806364c03a5e1461091957610410565b80634b319713116102f35780634b319713146107b45780634ce87053146107df57806350637dbd1461080d57806350cf1c7a1461084a578063570c29791461086657610410565b80633578584f1461070c57806343ce74221461073757806345a6a6e01461076257806345f98c291461078b57610410565b80631a7b8d4f116103a7578063298ea31011610376578063298ea310146106395780632b039d0e146106625780632bc82f7f1461068b5780632e9392bb146106b6578063333f57b3146106e157610410565b80631a7b8d4f1461056b578063229824c4146105945780632362ce89146105d157806326fd8422146105fc57610410565b806312065fe0116103e357806312065fe0146104c15780631848b8dc146104ec57806318c819d814610517578063195a73391461054057610410565b806301c234a8146104155780630420c98e1461044057806307aeb7f01461046b5780630a76e5ed14610496575b600080fd5b34801561042157600080fd5b5061042a61108d565b6040516104379190613aca565b60405180910390f35b34801561044c57600080fd5b50610455611093565b6040516104629190613aca565b60405180910390f35b34801561047757600080fd5b50610480611099565b60405161048d9190613b26565b60405180910390f35b3480156104a257600080fd5b506104ab6110bf565b6040516104b89190613aca565b60405180910390f35b3480156104cd57600080fd5b506104d6611109565b6040516104e39190613aca565b60405180910390f35b3480156104f857600080fd5b50610501611111565b60405161050e9190613aca565b60405180910390f35b34801561052357600080fd5b5061053e60048036038101906105399190613b83565b611117565b005b34801561054c57600080fd5b50610555611317565b6040516105629190613aca565b60405180910390f35b34801561057757600080fd5b50610592600480360381019061058d9190613bdc565b61131d565b005b3480156105a057600080fd5b506105bb60048036038101906105b69190613c09565b6113c5565b6040516105c89190613aca565b60405180910390f35b3480156105dd57600080fd5b506105e6611418565b6040516105f39190613b26565b60405180910390f35b34801561060857600080fd5b50610623600480360381019061061e9190613c5c565b61143e565b6040516106309190613aca565b60405180910390f35b34801561064557600080fd5b50610660600480360381019061065b9190613bdc565b611455565b005b34801561066e57600080fd5b5061068960048036038101906106849190613cda565b6114fd565b005b34801561069757600080fd5b506106a06115d1565b6040516106ad9190613aca565b60405180910390f35b3480156106c257600080fd5b506106cb6115d7565b6040516106d89190613aca565b60405180910390f35b3480156106ed57600080fd5b506106f66115dd565b6040516107039190613d16565b60405180910390f35b34801561071857600080fd5b506107216115f0565b60405161072e9190613aca565b60405180910390f35b34801561074357600080fd5b5061074c6115f6565b6040516107599190613aca565b60405180910390f35b34801561076e57600080fd5b5061078960048036038101906107849190613bdc565b61165a565b005b34801561079757600080fd5b506107b260048036038101906107ad9190613bdc565b611719565b005b3480156107c057600080fd5b506107c96117c6565b6040516107d69190613aca565b60405180910390f35b3480156107eb57600080fd5b506107f46117cc565b6040516108049493929190613d31565b60405180910390f35b34801561081957600080fd5b50610834600480360381019061082f9190613d76565b6117ec565b6040516108419190613aca565b60405180910390f35b610864600480360381019061085f9190613cda565b6118d3565b005b34801561087257600080fd5b5061088d60048036038101906108889190613bdc565b611ea1565b005b34801561089b57600080fd5b506108a4611f56565b005b3480156108b257600080fd5b506108bb612214565b6040516108c89190613aca565b60405180910390f35b3480156108dd57600080fd5b506108f860048036038101906108f39190613cda565b61221a565b6040516109109c9b9a99989796959493929190613dc5565b60405180910390f35b34801561092557600080fd5b50610940600480360381019061093b9190613cda565b612597565b60405161094d9190613aca565b60405180910390f35b34801561096257600080fd5b5061096b61260a565b6040516109789190613aca565b60405180910390f35b34801561098d57600080fd5b50610996612610565b6040516109a39190613aca565b60405180910390f35b3480156109b857600080fd5b506109d360048036038101906109ce9190613bdc565b612616565b005b3480156109e157600080fd5b506109ea6126cc565b6040516109f79190613aca565b60405180910390f35b348015610a0c57600080fd5b50610a276004803603810190610a229190613bdc565b6126d2565b005b348015610a3557600080fd5b50610a506004803603810190610a4b9190613bdc565b61277a565b005b348015610a5e57600080fd5b50610a6761282b565b604051610a749190613b26565b60405180910390f35b348015610a8957600080fd5b50610a92612851565b604051610a9f9190613aca565b60405180910390f35b348015610ab457600080fd5b50610abd612857565b604051610aca9190613aca565b60405180910390f35b348015610adf57600080fd5b50610afa6004803603810190610af59190613bdc565b61285d565b604051610b079190613aca565b60405180910390f35b348015610b1c57600080fd5b50610b376004803603810190610b329190613bdc565b612877565b005b348015610b4557600080fd5b50610b4e612932565b604051610b5b9190613b26565b60405180910390f35b348015610b7057600080fd5b50610b79612958565b604051610b869190613aca565b60405180910390f35b348015610b9b57600080fd5b50610ba461295e565b604051610bb19190613b26565b60405180910390f35b348015610bc657600080fd5b50610bcf612984565b604051610bdc9190613e7f565b60405180910390f35b348015610bf157600080fd5b50610c0c6004803603810190610c079190613bdc565b6129aa565b604051610c199190613aca565b60405180910390f35b348015610c2e57600080fd5b50610c376129c7565b604051610c449190613aca565b60405180910390f35b348015610c5957600080fd5b50610c746004803603810190610c6f9190613bdc565b6129cd565b005b348015610c8257600080fd5b50610c9d6004803603810190610c989190613bdc565b612a8c565b005b348015610cab57600080fd5b50610cc66004803603810190610cc19190613b83565b612b34565b005b348015610cd457600080fd5b50610cdd612be1565b604051610cea9190613b26565b60405180910390f35b348015610cff57600080fd5b50610d1a6004803603810190610d159190613cda565b612c07565b604051610d329c9b9a99989796959493929190613dc5565b60405180910390f35b348015610d4757600080fd5b50610d50612c86565b604051610d5d9190613d16565b60405180910390f35b610d6e612c99565b005b348015610d7c57600080fd5b50610d976004803603810190610d929190613bdc565b612c9b565b604051610da5929190613e9a565b60405180910390f35b348015610dba57600080fd5b50610dd56004803603810190610dd09190613bdc565b612d2d565b005b348015610de357600080fd5b50610dfe6004803603810190610df99190613cda565b612dd6565b604051610e0b9190613d16565b60405180910390f35b348015610e2057600080fd5b50610e29612ebc565b604051610e369190613aca565b60405180910390f35b348015610e4b57600080fd5b50610e54612ec2565b604051610e619190613aca565b60405180910390f35b348015610e7657600080fd5b50610e916004803603810190610e8c9190613c5c565b612ec8565b604051610e9e9190613aca565b60405180910390f35b348015610eb357600080fd5b50610ebc612ef8565b604051610ec99190613aca565b60405180910390f35b348015610ede57600080fd5b50610ee7612efe565b604051610ef49190613aca565b60405180910390f35b348015610f0957600080fd5b50610f246004803603810190610f1f9190613cda565b612f04565b604051610f319190613aca565b60405180910390f35b348015610f4657600080fd5b50610f616004803603810190610f5c9190613ec3565b612fdd565b005b348015610f6f57600080fd5b50610f786130c8565b604051610f859190613aca565b60405180910390f35b610fa86004803603810190610fa39190613cda565b6130d0565b005b348015610fb657600080fd5b50610fd16004803603810190610fcc9190613bdc565b6131bd565b005b348015610fdf57600080fd5b50610ffa6004803603810190610ff59190613bdc565b613276565b005b34801561100857600080fd5b50611023600480360381019061101e9190613f68565b61331e565b005b34801561103157600080fd5b5061103a613453565b6040516110479190613aca565b60405180910390f35b34801561105c57600080fd5b5061107760048036038101906110729190613cda565b613459565b6040516110849190613d16565b60405180910390f35b60025481565b600b5481565b601d60009054906101000a900473ffffffffffffffffffffffffffffffffffffffff1681565b6000602060003373ffffffffffffffffffffffffffffffffffffffff1673ffffffffffffffffffffffffffffffffffffffff16815260200190815260200160002060020154905090565b600047905090565b60075481565b6000602060003373ffffffffffffffffffffffffffffffffffffffff1673ffffffffffffffffffffffffffffffffffffffff1681526020019081526020016000209050601560009054906101000a900460ff166111a9576040517f08c379a00000000000000000000000000000000000000000000000000000000081526004016111a090614025565b60405180910390fd5b60006111b36115f6565b90506000819050831561122d5760006111cc33836117ec565b90506111e1818361347990919063ffffffff16565b915060006111ee836129aa565b905061120781866001015461347990919063ffffffff16565b856001018190555061122481600f5461347990919063ffffffff16565b600f8190555050505b600a546112478460040154426134a590919063ffffffff16565b1061129c576009548360090154101561127b576112726001846009015461347990919063ffffffff16565b83600901819055505b611293600184600a015461347990919063ffffffff16565b83600a01819055505b6112c76112b4600054836134cc90919063ffffffff16565b846002015461347990919063ffffffff16565b83600201819055506000836003018190555042836004018190555061130b6112fa600554846134cc90919063ffffffff16565b60125461347990919063ffffffff16565b60128190555050505050565b60005481565b601960009054906101000a900473ffffffffffffffffffffffffffffffffffffffff1673ffffffffffffffffffffffffffffffffffffffff163373ffffffffffffffffffffffffffffffffffffffff16146113ad576040517f08c379a00000000000000000000000000000000000000000000000000000000081526004016113a490614091565b60405180910390fd5b60148111156113bb57600080fd5b8060048190555050565b600061140f6113d6601354846134e7565b61140a6014546114056113ff6113ee6013548a6134e7565b6113fa6014548c6134e7565b613479565b896134cc565b613479565b6134cc565b90509392505050565b601c60009054906101000a900473ffffffffffffffffffffffffffffffffffffffff1681565b600061144d83836012546113c5565b905092915050565b601960009054906101000a900473ffffffffffffffffffffffffffffffffffffffff1673ffffffffffffffffffffffffffffffffffffffff163373ffffffffffffffffffffffffffffffffffffffff16146114e5576040517f08c379a00000000000000000000000000000000000000000000000000000000081526004016114dc90614091565b60405180910390fd5b600f8111156114f357600080fd5b8060038190555050565b601960009054906101000a900473ffffffffffffffffffffffffffffffffffffffff1673ffffffffffffffffffffffffffffffffffffffff163373ffffffffffffffffffffffffffffffffffffffff161461158d576040517f08c379a000000000000000000000000000000000000000000000000000000000815260040161158490614091565b60405180910390fd5b80601960006101000a81548173ffffffffffffffffffffffffffffffffffffffff021916908373ffffffffffffffffffffffffffffffffffffffff16021790555050565b60045481565b60125481565b601560009054906101000a900460ff1681565b60175481565b600061165561160433612f04565b602060003373ffffffffffffffffffffffffffffffffffffffff1673ffffffffffffffffffffffffffffffffffffffff1681526020019081526020016000206003015461347990919063ffffffff16565b905090565b601960009054906101000a900473ffffffffffffffffffffffffffffffffffffffff1673ffffffffffffffffffffffffffffffffffffffff163373ffffffffffffffffffffffffffffffffffffffff16146116ea576040517f08c379a00000000000000000000000000000000000000000000000000000000081526004016116e1906140fd565b60405180910390fd5b60188111156116f857600080fd5b603c8082611706919061414c565b611710919061414c565b60188190555050565b601960009054906101000a900473ffffffffffffffffffffffffffffffffffffffff1673ffffffffffffffffffffffffffffffffffffffff163373ffffffffffffffffffffffffffffffffffffffff16146117a9576040517f08c379a00000000000000000000000000000000000000000000000000000000081526004016117a0906140fd565b60405180910390fd5b67016345785d8a0000816117bd919061414c565b60068190555050565b60115481565b600080600080600d54600e54600f54601054935093509350935090919293565b600080602060008573ffffffffffffffffffffffffffffffffffffffff1673ffffffffffffffffffffffffffffffffffffffff16815260200190815260200160002060090154141561184157600090506118cd565b600061189a600854602060008773ffffffffffffffffffffffffffffffffffffffff1673ffffffffffffffffffffffffffffffffffffffff168152602001908152602001600020600901546134e790919063ffffffff16565b905060006118c56002546118b784876134e790919063ffffffff16565b6134cc90919063ffffffff16565b905080925050505b92915050565b601560009054906101000a900460ff16611922576040517f08c379a000000000000000000000000000000000000000000000000000000000815260040161191990614025565b60405180910390fd5b6000602060003373ffffffffffffffffffffffffffffffffffffffff1673ffffffffffffffffffffffffffffffffffffffff16815260200190815260200160002090506006543410156119aa576040517f08c379a00000000000000000000000000000000000000000000000000000000081526004016119a1906141f2565b60405180910390fd5b6007546119c434836000015461347990919063ffffffff16565b1115611a05576040517f08c379a00000000000000000000000000000000000000000000000000000000081526004016119fc9061425e565b60405180910390fd5b6000611a2334611a1e34476134a590919063ffffffff16565b61143e565b9050611a3c34836001015461347990919063ffffffff16565b8260010181905550611a5b34836000015461347990919063ffffffff16565b8260000181905550611a7a81836003015461347990919063ffffffff16565b8260030181905550600073ffffffffffffffffffffffffffffffffffffffff168260050160009054906101000a900473ffffffffffffffffffffffffffffffffffffffff1673ffffffffffffffffffffffffffffffffffffffff161415611c58573373ffffffffffffffffffffffffffffffffffffffff168373ffffffffffffffffffffffffffffffffffffffff1614611b5c57828260050160006101000a81548173ffffffffffffffffffffffffffffffffffffffff021916908373ffffffffffffffffffffffffffffffffffffffff160217905550611b5b3334613530565b5b60008260050160009054906101000a900473ffffffffffffffffffffffffffffffffffffffff169050600073ffffffffffffffffffffffffffffffffffffffff168173ffffffffffffffffffffffffffffffffffffffff1614611c5657611c0f6001602060008473ffffffffffffffffffffffffffffffffffffffff1673ffffffffffffffffffffffffffffffffffffffff1681526020019081526020016000206006015461347990919063ffffffff16565b602060008373ffffffffffffffffffffffffffffffffffffffff1673ffffffffffffffffffffffffffffffffffffffff168152602001908152602001600020600601819055505b505b600073ffffffffffffffffffffffffffffffffffffffff168260050160009054906101000a900473ffffffffffffffffffffffffffffffffffffffff1673ffffffffffffffffffffffffffffffffffffffff1614611e3b5760008260050160009054906101000a900473ffffffffffffffffffffffffffffffffffffffff169050600073ffffffffffffffffffffffffffffffffffffffff168173ffffffffffffffffffffffffffffffffffffffff1614611e39576000611d38600254611d2a600154346134e790919063ffffffff16565b6134cc90919063ffffffff16565b90508173ffffffffffffffffffffffffffffffffffffffff166108fc829081150290604051600060405180830381858888f19350505050158015611d80573d6000803e3d6000fd5b50611dd681602060008573ffffffffffffffffffffffffffffffffffffffff1673ffffffffffffffffffffffffffffffffffffffff1681526020019081526020016000206007015461347990919063ffffffff16565b602060008473ffffffffffffffffffffffffffffffffffffffff1673ffffffffffffffffffffffffffffffffffffffff16815260200190815260200160002060070181905550611e318160105461347990919063ffffffff16565b601081905550505b505b6000611e4634613798565b9050611e6f611e5e82346134a590919063ffffffff16565b600d5461347990919063ffffffff16565b600d81905550611e8b6001600e5461347990919063ffffffff16565b600e81905550611e9b6000611117565b50505050565b601960009054906101000a900473ffffffffffffffffffffffffffffffffffffffff1673ffffffffffffffffffffffffffffffffffffffff163373ffffffffffffffffffffffffffffffffffffffff1614611f31576040517f08c379a0000000000000000000000000000000000000000000000000000000008152600401611f2890614091565b60405180910390fd5b600a8110158015611f43575060648111155b611f4c57600080fd5b8060018190555050565b601560009054906101000a900460ff16611fa5576040517f08c379a0000000000000000000000000000000000000000000000000000000008152600401611f9c90614025565b60405180910390fd5b601560019054906101000a900460ff161561204857601660003373ffffffffffffffffffffffffffffffffffffffff1673ffffffffffffffffffffffffffffffffffffffff16815260200190815260200160002060009054906101000a900460ff1615612047576040517f08c379a000000000000000000000000000000000000000000000000000000000815260040161203e906142ca565b60405180910390fd5b5b6000602060003373ffffffffffffffffffffffffffffffffffffffff1673ffffffffffffffffffffffffffffffffffffffff168152602001908152602001600020905060006120956115f6565b905060006120a2826129aa565b9050600c54836009015410156120f4576120ed6120de6002546120d0600b54856134e790919063ffffffff16565b6134cc90919063ffffffff16565b826134a590919063ffffffff16565b9050612109565b60008360090181905550600083600a01819055505b4283600b01819055506000836003018190555042836004018190555061214e61213d600554846134cc90919063ffffffff16565b60125461347990919063ffffffff16565b6012819055508061215d611109565b101561216e5761216b611109565b90505b600061218b61217c83613798565b836134a590919063ffffffff16565b90503373ffffffffffffffffffffffffffffffffffffffff166108fc829081150290604051600060405180830381858888f193505050501580156121d3573d6000803e3d6000fd5b506121eb81856008015461347990919063ffffffff16565b84600801819055506122088160115461347990919063ffffffff16565b60118190555050505050565b60055481565b600080600080600080600080600080600080602060008e73ffffffffffffffffffffffffffffffffffffffff1673ffffffffffffffffffffffffffffffffffffffff168152602001908152602001600020600001549b50602060008e73ffffffffffffffffffffffffffffffffffffffff1673ffffffffffffffffffffffffffffffffffffffff168152602001908152602001600020600101549a50602060008e73ffffffffffffffffffffffffffffffffffffffff1673ffffffffffffffffffffffffffffffffffffffff168152602001908152602001600020600201549950602060008e73ffffffffffffffffffffffffffffffffffffffff1673ffffffffffffffffffffffffffffffffffffffff168152602001908152602001600020600301549850602060008e73ffffffffffffffffffffffffffffffffffffffff1673ffffffffffffffffffffffffffffffffffffffff168152602001908152602001600020600401549750602060008e73ffffffffffffffffffffffffffffffffffffffff1673ffffffffffffffffffffffffffffffffffffffff16815260200190815260200160002060050160009054906101000a900473ffffffffffffffffffffffffffffffffffffffff169650602060008e73ffffffffffffffffffffffffffffffffffffffff1673ffffffffffffffffffffffffffffffffffffffff168152602001908152602001600020600601549550602060008e73ffffffffffffffffffffffffffffffffffffffff1673ffffffffffffffffffffffffffffffffffffffff168152602001908152602001600020600801549450602060008e73ffffffffffffffffffffffffffffffffffffffff1673ffffffffffffffffffffffffffffffffffffffff168152602001908152602001600020600701549350602060008e73ffffffffffffffffffffffffffffffffffffffff1673ffffffffffffffffffffffffffffffffffffffff168152602001908152602001600020600901549250602060008e73ffffffffffffffffffffffffffffffffffffffff1673ffffffffffffffffffffffffffffffffffffffff168152602001908152602001600020600a01549150602060008e73ffffffffffffffffffffffffffffffffffffffff1673ffffffffffffffffffffffffffffffffffffffff168152602001908152602001600020600b0154905091939597999b5091939597999b565b6000806125f76125a684612f04565b602060008673ffffffffffffffffffffffffffffffffffffffff1673ffffffffffffffffffffffffffffffffffffffff1681526020019081526020016000206003015461347990919063ffffffff16565b9050612602816129aa565b915050919050565b60035481565b60105481565b601960009054906101000a900473ffffffffffffffffffffffffffffffffffffffff1673ffffffffffffffffffffffffffffffffffffffff163373ffffffffffffffffffffffffffffffffffffffff16146126a6576040517f08c379a000000000000000000000000000000000000000000000000000000000815260040161269d90614091565b60405180910390fd5b600a81101580156126b957506103848111155b6126c257600080fd5b8060088190555050565b600a5481565b601960009054906101000a900473ffffffffffffffffffffffffffffffffffffffff1673ffffffffffffffffffffffffffffffffffffffff163373ffffffffffffffffffffffffffffffffffffffff1614612762576040517f08c379a000000000000000000000000000000000000000000000000000000000815260040161275990614091565b60405180910390fd5b603281111561277057600080fd5b8060058190555050565b601960009054906101000a900473ffffffffffffffffffffffffffffffffffffffff1673ffffffffffffffffffffffffffffffffffffffff163373ffffffffffffffffffffffffffffffffffffffff161461280a576040517f08c379a0000000000000000000000000000000000000000000000000000000008152600401612801906140fd565b60405180910390fd5b603c8082612818919061414c565b612822919061414c565b60178190555050565b601f60009054906101000a900473ffffffffffffffffffffffffffffffffffffffff1681565b600e5481565b600f5481565b60006128708261286b611109565b61143e565b9050919050565b601960009054906101000a900473ffffffffffffffffffffffffffffffffffffffff1673ffffffffffffffffffffffffffffffffffffffff163373ffffffffffffffffffffffffffffffffffffffff1614612907576040517f08c379a00000000000000000000000000000000000000000000000000000000081526004016128fe906140fd565b60405180910390fd5b600a81101561291557600080fd5b670de0b6b3a764000081612929919061414c565b60078190555050565b601b60009054906101000a900473ffffffffffffffffffffffffffffffffffffffff1681565b600d5481565b601e60009054906101000a900473ffffffffffffffffffffffffffffffffffffffff1681565b601960009054906101000a900473ffffffffffffffffffffffffffffffffffffffff1681565b60006129c0826012546129bb611109565b6113c5565b9050919050565b60185481565b601960009054906101000a900473ffffffffffffffffffffffffffffffffffffffff1673ffffffffffffffffffffffffffffffffffffffff163373ffffffffffffffffffffffffffffffffffffffff1614612a5d576040517f08c379a0000000000000000000000000000000000000000000000000000000008152600401612a5490614091565b60405180910390fd5b6018811115612a6b57600080fd5b603c8082612a79919061414c565b612a83919061414c565b600a8190555050565b601960009054906101000a900473ffffffffffffffffffffffffffffffffffffffff1673ffffffffffffffffffffffffffffffffffffffff163373ffffffffffffffffffffffffffffffffffffffff1614612b1c576040517f08c379a0000000000000000000000000000000000000000000000000000000008152600401612b1390614091565b60405180910390fd5b601e811115612b2a57600080fd5b8060098190555050565b601960009054906101000a900473ffffffffffffffffffffffffffffffffffffffff1673ffffffffffffffffffffffffffffffffffffffff163373ffffffffffffffffffffffffffffffffffffffff1614612bc4576040517f08c379a0000000000000000000000000000000000000000000000000000000008152600401612bbb90614091565b60405180910390fd5b80601560016101000a81548160ff02191690831515021790555050565b601a60009054906101000a900473ffffffffffffffffffffffffffffffffffffffff1681565b602080528060005260406000206000915090508060000154908060010154908060020154908060030154908060040154908060050160009054906101000a900473ffffffffffffffffffffffffffffffffffffffff169080600601549080600701549080600801549080600901549080600a01549080600b015490508c565b601560019054906101000a900460ff1681565b565b6000806000612cd584612cd086612cc288612cb4611109565b61347990919063ffffffff16565b6134a590919063ffffffff16565b61143e565b90506000612cee600054836134cc90919063ffffffff16565b905060006201518090506000612d0d83836134e790919063ffffffff16565b90506000612d1b8289612ec8565b90508381965096505050505050915091565b601960009054906101000a900473ffffffffffffffffffffffffffffffffffffffff1673ffffffffffffffffffffffffffffffffffffffff163373ffffffffffffffffffffffffffffffffffffffff1614612dbd576040517f08c379a0000000000000000000000000000000000000000000000000000000008152600401612db490614091565b60405180910390fd5b610384811115612dcc57600080fd5b80600b8190555050565b6000601960009054906101000a900473ffffffffffffffffffffffffffffffffffffffff1673ffffffffffffffffffffffffffffffffffffffff163373ffffffffffffffffffffffffffffffffffffffff1614612e68576040517f08c379a0000000000000000000000000000000000000000000000000000000008152600401612e5f90614091565b60405180910390fd5b601660008373ffffffffffffffffffffffffffffffffffffffff1673ffffffffffffffffffffffffffffffffffffffff16815260200190815260200160002060009054906101000a900460ff169050919050565b60015481565b60095481565b6000612ef083601254612eeb85612edd611109565b61347990919063ffffffff16565b6113c5565b905092915050565b60065481565b60085481565b600080612f5c602060008573ffffffffffffffffffffffffffffffffffffffff1673ffffffffffffffffffffffffffffffffffffffff16815260200190815260200160002060040154426134a590919063ffffffff16565b90506000612f6c82601754613a98565b90506000612f7c60005483613a98565b9050612fd3602060008773ffffffffffffffffffffffffffffffffffffffff1673ffffffffffffffffffffffffffffffffffffffff16815260200190815260200160002060020154826134e790919063ffffffff16565b9350505050919050565b601960009054906101000a900473ffffffffffffffffffffffffffffffffffffffff1673ffffffffffffffffffffffffffffffffffffffff163373ffffffffffffffffffffffffffffffffffffffff161461306d576040517f08c379a000000000000000000000000000000000000000000000000000000000815260040161306490614091565b60405180910390fd5b80601660008473ffffffffffffffffffffffffffffffffffffffff1673ffffffffffffffffffffffffffffffffffffffff16815260200190815260200160002060006101000a81548160ff0219169083151502179055505050565b600042905090565b601560009054906101000a900460ff166131ba57601960009054906101000a900473ffffffffffffffffffffffffffffffffffffffff1673ffffffffffffffffffffffffffffffffffffffff163373ffffffffffffffffffffffffffffffffffffffff16141561317e5760006012541461314957600080fd5b6001601560006101000a81548160ff02191690831515021790555064218711a000601281905550613179816118d3565b6131b9565b6040517f08c379a00000000000000000000000000000000000000000000000000000000081526004016131b090614336565b60405180910390fd5b5b50565b601960009054906101000a900473ffffffffffffffffffffffffffffffffffffffff1673ffffffffffffffffffffffffffffffffffffffff163373ffffffffffffffffffffffffffffffffffffffff161461324d576040517f08c379a000000000000000000000000000000000000000000000000000000000815260040161324490614091565b60405180910390fd5b6207512081101580156132635750620afc808111155b61326c57600080fd5b8060008190555050565b601960009054906101000a900473ffffffffffffffffffffffffffffffffffffffff1673ffffffffffffffffffffffffffffffffffffffff163373ffffffffffffffffffffffffffffffffffffffff1614613306576040517f08c379a00000000000000000000000000000000000000000000000000000000081526004016132fd90614091565b60405180910390fd5b600c81111561331457600080fd5b80600c8190555050565b601960009054906101000a900473ffffffffffffffffffffffffffffffffffffffff1673ffffffffffffffffffffffffffffffffffffffff163373ffffffffffffffffffffffffffffffffffffffff16146133ae576040517f08c379a00000000000000000000000000000000000000000000000000000000081526004016133a590614091565b60405180910390fd5b60005b8383905081101561344d5781601660008686858181106133d4576133d3614356565b5b90506020020160208101906133e99190613cda565b73ffffffffffffffffffffffffffffffffffffffff1673ffffffffffffffffffffffffffffffffffffffff16815260200190815260200160002060006101000a81548160ff021916908315150217905550808061344590614385565b9150506133b1565b50505050565b600c5481565b60166020528060005260406000206000915054906101000a900460ff1681565b600080828461348891906143ce565b90508381101561349b5761349a614424565b5b8091505092915050565b6000828211156134b8576134b7614424565b5b81836134c49190614453565b905092915050565b60008082846134db91906144b6565b90508091505092915050565b6000808314156134fa576000905061352a565b60008284613508919061414c565b905082848261351791906144b6565b1461352557613524614424565b5b809150505b92915050565b60008290506000600367ffffffffffffffff811115613552576135516144e7565b5b6040519080825280602002602001820160405280156135805781602001602082028036833780820191505090505b50905060088160008151811061359957613598614356565b5b6020026020010181815250506003816001815181106135bb576135ba614356565b5b6020026020010181815250506002816002815181106135dd576135dc614356565b5b602002602001018181525050600080600090505b600381101561379057600073ffffffffffffffffffffffffffffffffffffffff16602060008673ffffffffffffffffffffffffffffffffffffffff1673ffffffffffffffffffffffffffffffffffffffff16815260200190815260200160002060050160009054906101000a900473ffffffffffffffffffffffffffffffffffffffff1673ffffffffffffffffffffffffffffffffffffffff161461377857602060008573ffffffffffffffffffffffffffffffffffffffff1673ffffffffffffffffffffffffffffffffffffffff16815260200190815260200160002060050160009054906101000a900473ffffffffffffffffffffffffffffffffffffffff169350600060648685848151811061370d5761370c614356565b5b602002602001015161371f919061414c565b61372991906144b6565b90508473ffffffffffffffffffffffffffffffffffffffff166108fc829081150290604051600060405180830381858888f19350505050158015613771573d6000803e3d6000fd5b505061377d565b613790565b808061378890614385565b9150506135f1565b505050505050565b6000806137c46002546137b6600354866134e790919063ffffffff16565b6134cc90919063ffffffff16565b905060006137f16002546137e3600454876134e790919063ffffffff16565b6134cc90919063ffffffff16565b9050601a60009054906101000a900473ffffffffffffffffffffffffffffffffffffffff1673ffffffffffffffffffffffffffffffffffffffff166108fc839081150290604051600060405180830381858888f1935050505015801561385b573d6000803e3d6000fd5b50601b60009054906101000a900473ffffffffffffffffffffffffffffffffffffffff1673ffffffffffffffffffffffffffffffffffffffff166108fc839081150290604051600060405180830381858888f193505050501580156138c4573d6000803e3d6000fd5b50601c60009054906101000a900473ffffffffffffffffffffffffffffffffffffffff1673ffffffffffffffffffffffffffffffffffffffff166108fc839081150290604051600060405180830381858888f1935050505015801561392d573d6000803e3d6000fd5b50601d60009054906101000a900473ffffffffffffffffffffffffffffffffffffffff1673ffffffffffffffffffffffffffffffffffffffff166108fc839081150290604051600060405180830381858888f19350505050158015613996573d6000803e3d6000fd5b50601e60009054906101000a900473ffffffffffffffffffffffffffffffffffffffff1673ffffffffffffffffffffffffffffffffffffffff166108fc839081150290604051600060405180830381858888f193505050501580156139ff573d6000803e3d6000fd5b50601f60009054906101000a900473ffffffffffffffffffffffffffffffffffffffff1673ffffffffffffffffffffffffffffffffffffffff166108fc829081150290604051600060405180830381858888f19350505050158015613a68573d6000803e3d6000fd5b50613a8f613a806005846134e790919063ffffffff16565b8261347990919063ffffffff16565b92505050919050565b6000818310613aa75781613aa9565b825b905092915050565b6000819050919050565b613ac481613ab1565b82525050565b6000602082019050613adf6000830184613abb565b92915050565b600073ffffffffffffffffffffffffffffffffffffffff82169050919050565b6000613b1082613ae5565b9050919050565b613b2081613b05565b82525050565b6000602082019050613b3b6000830184613b17565b92915050565b600080fd5b600080fd5b60008115159050919050565b613b6081613b4b565b8114613b6b57600080fd5b50565b600081359050613b7d81613b57565b92915050565b600060208284031215613b9957613b98613b41565b5b6000613ba784828501613b6e565b91505092915050565b613bb981613ab1565b8114613bc457600080fd5b50565b600081359050613bd681613bb0565b92915050565b600060208284031215613bf257613bf1613b41565b5b6000613c0084828501613bc7565b91505092915050565b600080600060608486031215613c2257613c21613b41565b5b6000613c3086828701613bc7565b9350506020613c4186828701613bc7565b9250506040613c5286828701613bc7565b9150509250925092565b60008060408385031215613c7357613c72613b41565b5b6000613c8185828601613bc7565b9250506020613c9285828601613bc7565b9150509250929050565b6000613ca782613ae5565b9050919050565b613cb781613c9c565b8114613cc257600080fd5b50565b600081359050613cd481613cae565b92915050565b600060208284031215613cf057613cef613b41565b5b6000613cfe84828501613cc5565b91505092915050565b613d1081613b4b565b82525050565b6000602082019050613d2b6000830184613d07565b92915050565b6000608082019050613d466000830187613abb565b613d536020830186613abb565b613d606040830185613abb565b613d6d6060830184613abb565b95945050505050565b60008060408385031215613d8d57613d8c613b41565b5b6000613d9b85828601613cc5565b9250506020613dac85828601613bc7565b9150509250929050565b613dbf81613c9c565b82525050565b600061018082019050613ddb600083018f613abb565b613de8602083018e613abb565b613df5604083018d613abb565b613e02606083018c613abb565b613e0f608083018b613abb565b613e1c60a083018a613db6565b613e2960c0830189613abb565b613e3660e0830188613abb565b613e44610100830187613abb565b613e52610120830186613abb565b613e60610140830185613abb565b613e6e610160830184613abb565b9d9c50505050505050505050505050565b6000602082019050613e946000830184613db6565b92915050565b6000604082019050613eaf6000830185613abb565b613ebc6020830184613abb565b9392505050565b60008060408385031215613eda57613ed9613b41565b5b6000613ee885828601613cc5565b9250506020613ef985828601613b6e565b9150509250929050565b600080fd5b600080fd5b600080fd5b60008083601f840112613f2857613f27613f03565b5b8235905067ffffffffffffffff811115613f4557613f44613f08565b5b602083019150836020820283011115613f6157613f60613f0d565b5b9250929050565b600080600060408486031215613f8157613f80613b41565b5b600084013567ffffffffffffffff811115613f9f57613f9e613b46565b5b613fab86828701613f12565b93509350506020613fbe86828701613b6e565b9150509250925092565b600082825260208201905092915050565b7f436f6e7472616374206e6f742079657420537461727465642e00000000000000600082015250565b600061400f601983613fc8565b915061401a82613fd9565b602082019050919050565b6000602082019050818103600083015261403e81614002565b9050919050565b7f41646d696e20757365206f6e6c792e0000000000000000000000000000000000600082015250565b600061407b600f83613fc8565b915061408682614045565b602082019050919050565b600060208201905081810360008301526140aa8161406e565b9050919050565b7f41646d696e20757365206f6e6c79000000000000000000000000000000000000600082015250565b60006140e7600e83613fc8565b91506140f2826140b1565b602082019050919050565b60006020820190508181036000830152614116816140da565b9050919050565b7f4e487b7100000000000000000000000000000000000000000000000000000000600052601160045260246000fd5b600061415782613ab1565b915061416283613ab1565b9250817fffffffffffffffffffffffffffffffffffffffffffffffffffffffffffffffff048311821515161561419b5761419a61411d565b5b828202905092915050565b7f4d696e696e756d20696e766573746d656e74206e6f74206d65742e0000000000600082015250565b60006141dc601b83613fc8565b91506141e7826141a6565b602082019050919050565b6000602082019050818103600083015261420b816141cf565b9050919050565b7f4d6178206465706f736974206c696d697420726561636865642e000000000000600082015250565b6000614248601a83613fc8565b915061425382614212565b602082019050919050565b600060208201905081810360008301526142778161423b565b9050919050565b7f4164647265737320697320626c61636b6c69737465642e000000000000000000600082015250565b60006142b4601783613fc8565b91506142bf8261427e565b602082019050919050565b600060208201905081810360008301526142e3816142a7565b9050919050565b7f436f6e7472616374206e6f742079657420737461727465642e00000000000000600082015250565b6000614320601983613fc8565b915061432b826142ea565b602082019050919050565b6000602082019050818103600083015261434f81614313565b9050919050565b7f4e487b7100000000000000000000000000000000000000000000000000000000600052603260045260246000fd5b600061439082613ab1565b91507fffffffffffffffffffffffffffffffffffffffffffffffffffffffffffffffff8214156143c3576143c261411d565b5b600182019050919050565b60006143d982613ab1565b91506143e483613ab1565b9250827fffffffffffffffffffffffffffffffffffffffffffffffffffffffffffffffff038211156144195761441861411d565b5b828201905092915050565b7f4e487b7100000000000000000000000000000000000000000000000000000000600052600160045260246000fd5b600061445e82613ab1565b915061446983613ab1565b92508282101561447c5761447b61411d565b5b828203905092915050565b7f4e487b7100000000000000000000000000000000000000000000000000000000600052601260045260246000fd5b60006144c182613ab1565b91506144cc83613ab1565b9250826144dc576144db614487565b5b828204905092915050565b7f4e487b7100000000000000000000000000000000000000000000000000000000600052604160045260246000fdfea2646970667358221220b642472ce55178962df6e09582fa209bae1b948881600e96fda5337c9389836064736f6c63430008090033",
					"opcodes": "PUSH1 0x80 PUSH1 0x40 MSTORE PUSH3 0x15F900 PUSH1 0x0 SSTORE PUSH1 0x46 PUSH1 0x1 SSTORE PUSH2 0x3E8 PUSH1 0x2 SSTORE PUSH1 0x9 PUSH1 0x3 SSTORE PUSH1 0xC PUSH1 0x4 SSTORE PUSH1 0x2 PUSH1 0x5 SSTORE PUSH8 0x16345785D8A0000 PUSH1 0x6 SSTORE PUSH9 0x15AF1D78B58C40000 PUSH1 0x7 SSTORE PUSH1 0x14 PUSH1 0x8 SSTORE PUSH1 0xA PUSH1 0x9 SSTORE PUSH2 0xA8C0 PUSH1 0xA SSTORE PUSH2 0x15E PUSH1 0xB SSTORE PUSH1 0xA PUSH1 0xC SSTORE PUSH2 0x2710 PUSH1 0x13 SSTORE PUSH2 0x1388 PUSH1 0x14 SSTORE PUSH1 0x1 PUSH1 0x15 PUSH1 0x1 PUSH2 0x100 EXP DUP2 SLOAD DUP2 PUSH1 0xFF MUL NOT AND SWAP1 DUP4 ISZERO ISZERO MUL OR SWAP1 SSTORE POP PUSH3 0x2A300 PUSH1 0x17 SSTORE PUSH2 0x3840 PUSH1 0x18 SSTORE CALLVALUE DUP1 ISZERO PUSH3 0x9A JUMPI PUSH1 0x0 DUP1 REVERT JUMPDEST POP PUSH1 0x40 MLOAD PUSH3 0x49AB CODESIZE SUB DUP1 PUSH3 0x49AB DUP4 CODECOPY DUP2 DUP2 ADD PUSH1 0x40 MSTORE DUP2 ADD SWAP1 PUSH3 0xC0 SWAP2 SWAP1 PUSH3 0x3B3 JUMP JUMPDEST PUSH3 0xD1 DUP7 PUSH3 0x336 PUSH1 0x20 SHL PUSH1 0x20 SHR JUMP JUMPDEST ISZERO DUP1 ISZERO PUSH3 0xED JUMPI POP PUSH3 0xEB DUP6 PUSH3 0x336 PUSH1 0x20 SHL PUSH1 0x20 SHR JUMP JUMPDEST ISZERO JUMPDEST DUP1 ISZERO PUSH3 0x108 JUMPI POP PUSH3 0x106 DUP5 PUSH3 0x336 PUSH1 0x20 SHL PUSH1 0x20 SHR JUMP JUMPDEST ISZERO JUMPDEST DUP1 ISZERO PUSH3 0x123 JUMPI POP PUSH3 0x121 DUP4 PUSH3 0x336 PUSH1 0x20 SHL PUSH1 0x20 SHR JUMP JUMPDEST ISZERO JUMPDEST DUP1 ISZERO PUSH3 0x13E JUMPI POP PUSH3 0x13C DUP3 PUSH3 0x336 PUSH1 0x20 SHL PUSH1 0x20 SHR JUMP JUMPDEST ISZERO JUMPDEST DUP1 ISZERO PUSH3 0x159 JUMPI POP PUSH3 0x157 DUP2 PUSH3 0x336 PUSH1 0x20 SHL PUSH1 0x20 SHR JUMP JUMPDEST ISZERO JUMPDEST PUSH3 0x163 JUMPI PUSH1 0x0 DUP1 REVERT JUMPDEST CALLER PUSH1 0x19 PUSH1 0x0 PUSH2 0x100 EXP DUP2 SLOAD DUP2 PUSH20 0xFFFFFFFFFFFFFFFFFFFFFFFFFFFFFFFFFFFFFFFF MUL NOT AND SWAP1 DUP4 PUSH20 0xFFFFFFFFFFFFFFFFFFFFFFFFFFFFFFFFFFFFFFFF AND MUL OR SWAP1 SSTORE POP DUP6 PUSH1 0x1A PUSH1 0x0 PUSH2 0x100 EXP DUP2 SLOAD DUP2 PUSH20 0xFFFFFFFFFFFFFFFFFFFFFFFFFFFFFFFFFFFFFFFF MUL NOT AND SWAP1 DUP4 PUSH20 0xFFFFFFFFFFFFFFFFFFFFFFFFFFFFFFFFFFFFFFFF AND MUL OR SWAP1 SSTORE POP DUP5 PUSH1 0x1B PUSH1 0x0 PUSH2 0x100 EXP DUP2 SLOAD DUP2 PUSH20 0xFFFFFFFFFFFFFFFFFFFFFFFFFFFFFFFFFFFFFFFF MUL NOT AND SWAP1 DUP4 PUSH20 0xFFFFFFFFFFFFFFFFFFFFFFFFFFFFFFFFFFFFFFFF AND MUL OR SWAP1 SSTORE POP DUP4 PUSH1 0x1C PUSH1 0x0 PUSH2 0x100 EXP DUP2 SLOAD DUP2 PUSH20 0xFFFFFFFFFFFFFFFFFFFFFFFFFFFFFFFFFFFFFFFF MUL NOT AND SWAP1 DUP4 PUSH20 0xFFFFFFFFFFFFFFFFFFFFFFFFFFFFFFFFFFFFFFFF AND MUL OR SWAP1 SSTORE POP DUP3 PUSH1 0x1D PUSH1 0x0 PUSH2 0x100 EXP DUP2 SLOAD DUP2 PUSH20 0xFFFFFFFFFFFFFFFFFFFFFFFFFFFFFFFFFFFFFFFF MUL NOT AND SWAP1 DUP4 PUSH20 0xFFFFFFFFFFFFFFFFFFFFFFFFFFFFFFFFFFFFFFFF AND MUL OR SWAP1 SSTORE POP DUP2 PUSH1 0x1E PUSH1 0x0 PUSH2 0x100 EXP DUP2 SLOAD DUP2 PUSH20 0xFFFFFFFFFFFFFFFFFFFFFFFFFFFFFFFFFFFFFFFF MUL NOT AND SWAP1 DUP4 PUSH20 0xFFFFFFFFFFFFFFFFFFFFFFFFFFFFFFFFFFFFFFFF AND MUL OR SWAP1 SSTORE POP DUP1 PUSH1 0x1F PUSH1 0x0 PUSH2 0x100 EXP DUP2 SLOAD DUP2 PUSH20 0xFFFFFFFFFFFFFFFFFFFFFFFFFFFFFFFFFFFFFFFF MUL NOT AND SWAP1 DUP4 PUSH20 0xFFFFFFFFFFFFFFFFFFFFFFFFFFFFFFFFFFFFFFFF AND MUL OR SWAP1 SSTORE POP POP POP POP POP POP POP PUSH3 0x44F JUMP JUMPDEST PUSH1 0x0 DUP1 DUP3 EXTCODESIZE SWAP1 POP PUSH1 0x0 DUP2 GT SWAP2 POP POP SWAP2 SWAP1 POP JUMP JUMPDEST PUSH1 0x0 DUP1 REVERT JUMPDEST PUSH1 0x0 PUSH20 0xFFFFFFFFFFFFFFFFFFFFFFFFFFFFFFFFFFFFFFFF DUP3 AND SWAP1 POP SWAP2 SWAP1 POP JUMP JUMPDEST PUSH1 0x0 PUSH3 0x37B DUP3 PUSH3 0x34E JUMP JUMPDEST SWAP1 POP SWAP2 SWAP1 POP JUMP JUMPDEST PUSH3 0x38D DUP2 PUSH3 0x36E JUMP JUMPDEST DUP2 EQ PUSH3 0x399 JUMPI PUSH1 0x0 DUP1 REVERT JUMPDEST POP JUMP JUMPDEST PUSH1 0x0 DUP2 MLOAD SWAP1 POP PUSH3 0x3AD DUP2 PUSH3 0x382 JUMP JUMPDEST SWAP3 SWAP2 POP POP JUMP JUMPDEST PUSH1 0x0 DUP1 PUSH1 0x0 DUP1 PUSH1 0x0 DUP1 PUSH1 0xC0 DUP8 DUP10 SUB SLT ISZERO PUSH3 0x3D3 JUMPI PUSH3 0x3D2 PUSH3 0x349 JUMP JUMPDEST JUMPDEST PUSH1 0x0 PUSH3 0x3E3 DUP10 DUP3 DUP11 ADD PUSH3 0x39C JUMP JUMPDEST SWAP7 POP POP PUSH1 0x20 PUSH3 0x3F6 DUP10 DUP3 DUP11 ADD PUSH3 0x39C JUMP JUMPDEST SWAP6 POP POP PUSH1 0x40 PUSH3 0x409 DUP10 DUP3 DUP11 ADD PUSH3 0x39C JUMP JUMPDEST SWAP5 POP POP PUSH1 0x60 PUSH3 0x41C DUP10 DUP3 DUP11 ADD PUSH3 0x39C JUMP JUMPDEST SWAP4 POP POP PUSH1 0x80 PUSH3 0x42F DUP10 DUP3 DUP11 ADD PUSH3 0x39C JUMP JUMPDEST SWAP3 POP POP PUSH1 0xA0 PUSH3 0x442 DUP10 DUP3 DUP11 ADD PUSH3 0x39C JUMP JUMPDEST SWAP2 POP POP SWAP3 SWAP6 POP SWAP3 SWAP6 POP SWAP3 SWAP6 JUMP JUMPDEST PUSH2 0x454C DUP1 PUSH3 0x45F PUSH1 0x0 CODECOPY PUSH1 0x0 RETURN INVALID PUSH1 0x80 PUSH1 0x40 MSTORE PUSH1 0x4 CALLDATASIZE LT PUSH2 0x410 JUMPI PUSH1 0x0 CALLDATALOAD PUSH1 0xE0 SHR DUP1 PUSH4 0x7C8E4B4C GT PUSH2 0x21E JUMPI DUP1 PUSH4 0xBD097E21 GT PUSH2 0x123 JUMPI DUP1 PUSH4 0xD7C8843B GT PUSH2 0xAB JUMPI DUP1 PUSH4 0xE6DC9558 GT PUSH2 0x7A JUMPI DUP1 PUSH4 0xE6DC9558 EQ PUSH2 0xFAA JUMPI DUP1 PUSH4 0xE7576943 EQ PUSH2 0xFD3 JUMPI DUP1 PUSH4 0xEB271268 EQ PUSH2 0xFFC JUMPI DUP1 PUSH4 0xF6F62886 EQ PUSH2 0x1025 JUMPI DUP1 PUSH4 0xFFA4E618 EQ PUSH2 0x1050 JUMPI PUSH2 0x410 JUMP JUMPDEST DUP1 PUSH4 0xD7C8843B EQ PUSH2 0xEFD JUMPI DUP1 PUSH4 0xD989B4B3 EQ PUSH2 0xF3A JUMPI DUP1 PUSH4 0xDA235B22 EQ PUSH2 0xF63 JUMPI DUP1 PUSH4 0xDA5D4CC5 EQ PUSH2 0xF8E JUMPI PUSH2 0x410 JUMP JUMPDEST DUP1 PUSH4 0xC63568C7 GT PUSH2 0xF2 JUMPI DUP1 PUSH4 0xC63568C7 EQ PUSH2 0xE14 JUMPI DUP1 PUSH4 0xC688F0FB EQ PUSH2 0xE3F JUMPI DUP1 PUSH4 0xCC3E9C78 EQ PUSH2 0xE6A JUMPI DUP1 PUSH4 0xCD329FC3 EQ PUSH2 0xEA7 JUMPI DUP1 PUSH4 0xD7206D5D EQ PUSH2 0xED2 JUMPI PUSH2 0x410 JUMP JUMPDEST DUP1 PUSH4 0xBD097E21 EQ PUSH2 0xD66 JUMPI DUP1 PUSH4 0xBDD1CA27 EQ PUSH2 0xD70 JUMPI DUP1 PUSH4 0xBFA9F304 EQ PUSH2 0xDAE JUMPI DUP1 PUSH4 0xC3251B40 EQ PUSH2 0xDD7 JUMPI PUSH2 0x410 JUMP JUMPDEST DUP1 PUSH4 0x8DA5CB5B GT PUSH2 0x1A6 JUMPI DUP1 PUSH4 0x9B9CB69F GT PUSH2 0x175 JUMPI DUP1 PUSH4 0x9B9CB69F EQ PUSH2 0xC76 JUMPI DUP1 PUSH4 0x9E9300A5 EQ PUSH2 0xC9F JUMPI DUP1 PUSH4 0xA327C45D EQ PUSH2 0xCC8 JUMPI DUP1 PUSH4 0xA87430BA EQ PUSH2 0xCF3 JUMPI DUP1 PUSH4 0xB6E6FCF6 EQ PUSH2 0xD3B JUMPI PUSH2 0x410 JUMP JUMPDEST DUP1 PUSH4 0x8DA5CB5B EQ PUSH2 0xBBA JUMPI DUP1 PUSH4 0x8E316327 EQ PUSH2 0xBE5 JUMPI DUP1 PUSH4 0x950D91E9 EQ PUSH2 0xC22 JUMPI DUP1 PUSH4 0x959C95B3 EQ PUSH2 0xC4D JUMPI PUSH2 0x410 JUMP JUMPDEST DUP1 PUSH4 0x7E56FDE5 GT PUSH2 0x1ED JUMPI DUP1 PUSH4 0x7E56FDE5 EQ PUSH2 0xAD3 JUMPI DUP1 PUSH4 0x7EE28E3C EQ PUSH2 0xB10 JUMPI DUP1 PUSH4 0x8013F3A7 EQ PUSH2 0xB39 JUMPI DUP1 PUSH4 0x817B1CD2 EQ PUSH2 0xB64 JUMPI DUP1 PUSH4 0x8A315EFD EQ PUSH2 0xB8F JUMPI PUSH2 0x410 JUMP JUMPDEST DUP1 PUSH4 0x7C8E4B4C EQ PUSH2 0xA29 JUMPI DUP1 PUSH4 0x7CC5B1E6 EQ PUSH2 0xA52 JUMPI DUP1 PUSH4 0x7D882097 EQ PUSH2 0xA7D JUMPI DUP1 PUSH4 0x7DB07C9D EQ PUSH2 0xAA8 JUMPI PUSH2 0x410 JUMP JUMPDEST DUP1 PUSH4 0x3578584F GT PUSH2 0x324 JUMPI DUP1 PUSH4 0x57386225 GT PUSH2 0x2AC JUMPI DUP1 PUSH4 0x68F58B03 GT PUSH2 0x27B JUMPI DUP1 PUSH4 0x68F58B03 EQ PUSH2 0x956 JUMPI DUP1 PUSH4 0x69B11DD5 EQ PUSH2 0x981 JUMPI DUP1 PUSH4 0x6F969D28 EQ PUSH2 0x9AC JUMPI DUP1 PUSH4 0x752A2628 EQ PUSH2 0x9D5 JUMPI DUP1 PUSH4 0x7A62EAD7 EQ PUSH2 0xA00 JUMPI PUSH2 0x410 JUMP JUMPDEST DUP1 PUSH4 0x57386225 EQ PUSH2 0x88F JUMPI DUP1 PUSH4 0x59EEC895 EQ PUSH2 0x8A6 JUMPI DUP1 PUSH4 0x6386C1C7 EQ PUSH2 0x8D1 JUMPI DUP1 PUSH4 0x64C03A5E EQ PUSH2 0x919 JUMPI PUSH2 0x410 JUMP JUMPDEST DUP1 PUSH4 0x4B319713 GT PUSH2 0x2F3 JUMPI DUP1 PUSH4 0x4B319713 EQ PUSH2 0x7B4 JUMPI DUP1 PUSH4 0x4CE87053 EQ PUSH2 0x7DF JUMPI DUP1 PUSH4 0x50637DBD EQ PUSH2 0x80D JUMPI DUP1 PUSH4 0x50CF1C7A EQ PUSH2 0x84A JUMPI DUP1 PUSH4 0x570C2979 EQ PUSH2 0x866 JUMPI PUSH2 0x410 JUMP JUMPDEST DUP1 PUSH4 0x3578584F EQ PUSH2 0x70C JUMPI DUP1 PUSH4 0x43CE7422 EQ PUSH2 0x737 JUMPI DUP1 PUSH4 0x45A6A6E0 EQ PUSH2 0x762 JUMPI DUP1 PUSH4 0x45F98C29 EQ PUSH2 0x78B JUMPI PUSH2 0x410 JUMP JUMPDEST DUP1 PUSH4 0x1A7B8D4F GT PUSH2 0x3A7 JUMPI DUP1 PUSH4 0x298EA310 GT PUSH2 0x376 JUMPI DUP1 PUSH4 0x298EA310 EQ PUSH2 0x639 JUMPI DUP1 PUSH4 0x2B039D0E EQ PUSH2 0x662 JUMPI DUP1 PUSH4 0x2BC82F7F EQ PUSH2 0x68B JUMPI DUP1 PUSH4 0x2E9392BB EQ PUSH2 0x6B6 JUMPI DUP1 PUSH4 0x333F57B3 EQ PUSH2 0x6E1 JUMPI PUSH2 0x410 JUMP JUMPDEST DUP1 PUSH4 0x1A7B8D4F EQ PUSH2 0x56B JUMPI DUP1 PUSH4 0x229824C4 EQ PUSH2 0x594 JUMPI DUP1 PUSH4 0x2362CE89 EQ PUSH2 0x5D1 JUMPI DUP1 PUSH4 0x26FD8422 EQ PUSH2 0x5FC JUMPI PUSH2 0x410 JUMP JUMPDEST DUP1 PUSH4 0x12065FE0 GT PUSH2 0x3E3 JUMPI DUP1 PUSH4 0x12065FE0 EQ PUSH2 0x4C1 JUMPI DUP1 PUSH4 0x1848B8DC EQ PUSH2 0x4EC JUMPI DUP1 PUSH4 0x18C819D8 EQ PUSH2 0x517 JUMPI DUP1 PUSH4 0x195A7339 EQ PUSH2 0x540 JUMPI PUSH2 0x410 JUMP JUMPDEST DUP1 PUSH4 0x1C234A8 EQ PUSH2 0x415 JUMPI DUP1 PUSH4 0x420C98E EQ PUSH2 0x440 JUMPI DUP1 PUSH4 0x7AEB7F0 EQ PUSH2 0x46B JUMPI DUP1 PUSH4 0xA76E5ED EQ PUSH2 0x496 JUMPI JUMPDEST PUSH1 0x0 DUP1 REVERT JUMPDEST CALLVALUE DUP1 ISZERO PUSH2 0x421 JUMPI PUSH1 0x0 DUP1 REVERT JUMPDEST POP PUSH2 0x42A PUSH2 0x108D JUMP JUMPDEST PUSH1 0x40 MLOAD PUSH2 0x437 SWAP2 SWAP1 PUSH2 0x3ACA JUMP JUMPDEST PUSH1 0x40 MLOAD DUP1 SWAP2 SUB SWAP1 RETURN JUMPDEST CALLVALUE DUP1 ISZERO PUSH2 0x44C JUMPI PUSH1 0x0 DUP1 REVERT JUMPDEST POP PUSH2 0x455 PUSH2 0x1093 JUMP JUMPDEST PUSH1 0x40 MLOAD PUSH2 0x462 SWAP2 SWAP1 PUSH2 0x3ACA JUMP JUMPDEST PUSH1 0x40 MLOAD DUP1 SWAP2 SUB SWAP1 RETURN JUMPDEST CALLVALUE DUP1 ISZERO PUSH2 0x477 JUMPI PUSH1 0x0 DUP1 REVERT JUMPDEST POP PUSH2 0x480 PUSH2 0x1099 JUMP JUMPDEST PUSH1 0x40 MLOAD PUSH2 0x48D SWAP2 SWAP1 PUSH2 0x3B26 JUMP JUMPDEST PUSH1 0x40 MLOAD DUP1 SWAP2 SUB SWAP1 RETURN JUMPDEST CALLVALUE DUP1 ISZERO PUSH2 0x4A2 JUMPI PUSH1 0x0 DUP1 REVERT JUMPDEST POP PUSH2 0x4AB PUSH2 0x10BF JUMP JUMPDEST PUSH1 0x40 MLOAD PUSH2 0x4B8 SWAP2 SWAP1 PUSH2 0x3ACA JUMP JUMPDEST PUSH1 0x40 MLOAD DUP1 SWAP2 SUB SWAP1 RETURN JUMPDEST CALLVALUE DUP1 ISZERO PUSH2 0x4CD JUMPI PUSH1 0x0 DUP1 REVERT JUMPDEST POP PUSH2 0x4D6 PUSH2 0x1109 JUMP JUMPDEST PUSH1 0x40 MLOAD PUSH2 0x4E3 SWAP2 SWAP1 PUSH2 0x3ACA JUMP JUMPDEST PUSH1 0x40 MLOAD DUP1 SWAP2 SUB SWAP1 RETURN JUMPDEST CALLVALUE DUP1 ISZERO PUSH2 0x4F8 JUMPI PUSH1 0x0 DUP1 REVERT JUMPDEST POP PUSH2 0x501 PUSH2 0x1111 JUMP JUMPDEST PUSH1 0x40 MLOAD PUSH2 0x50E SWAP2 SWAP1 PUSH2 0x3ACA JUMP JUMPDEST PUSH1 0x40 MLOAD DUP1 SWAP2 SUB SWAP1 RETURN JUMPDEST CALLVALUE DUP1 ISZERO PUSH2 0x523 JUMPI PUSH1 0x0 DUP1 REVERT JUMPDEST POP PUSH2 0x53E PUSH1 0x4 DUP1 CALLDATASIZE SUB DUP2 ADD SWAP1 PUSH2 0x539 SWAP2 SWAP1 PUSH2 0x3B83 JUMP JUMPDEST PUSH2 0x1117 JUMP JUMPDEST STOP JUMPDEST CALLVALUE DUP1 ISZERO PUSH2 0x54C JUMPI PUSH1 0x0 DUP1 REVERT JUMPDEST POP PUSH2 0x555 PUSH2 0x1317 JUMP JUMPDEST PUSH1 0x40 MLOAD PUSH2 0x562 SWAP2 SWAP1 PUSH2 0x3ACA JUMP JUMPDEST PUSH1 0x40 MLOAD DUP1 SWAP2 SUB SWAP1 RETURN JUMPDEST CALLVALUE DUP1 ISZERO PUSH2 0x577 JUMPI PUSH1 0x0 DUP1 REVERT JUMPDEST POP PUSH2 0x592 PUSH1 0x4 DUP1 CALLDATASIZE SUB DUP2 ADD SWAP1 PUSH2 0x58D SWAP2 SWAP1 PUSH2 0x3BDC JUMP JUMPDEST PUSH2 0x131D JUMP JUMPDEST STOP JUMPDEST CALLVALUE DUP1 ISZERO PUSH2 0x5A0 JUMPI PUSH1 0x0 DUP1 REVERT JUMPDEST POP PUSH2 0x5BB PUSH1 0x4 DUP1 CALLDATASIZE SUB DUP2 ADD SWAP1 PUSH2 0x5B6 SWAP2 SWAP1 PUSH2 0x3C09 JUMP JUMPDEST PUSH2 0x13C5 JUMP JUMPDEST PUSH1 0x40 MLOAD PUSH2 0x5C8 SWAP2 SWAP1 PUSH2 0x3ACA JUMP JUMPDEST PUSH1 0x40 MLOAD DUP1 SWAP2 SUB SWAP1 RETURN JUMPDEST CALLVALUE DUP1 ISZERO PUSH2 0x5DD JUMPI PUSH1 0x0 DUP1 REVERT JUMPDEST POP PUSH2 0x5E6 PUSH2 0x1418 JUMP JUMPDEST PUSH1 0x40 MLOAD PUSH2 0x5F3 SWAP2 SWAP1 PUSH2 0x3B26 JUMP JUMPDEST PUSH1 0x40 MLOAD DUP1 SWAP2 SUB SWAP1 RETURN JUMPDEST CALLVALUE DUP1 ISZERO PUSH2 0x608 JUMPI PUSH1 0x0 DUP1 REVERT JUMPDEST POP PUSH2 0x623 PUSH1 0x4 DUP1 CALLDATASIZE SUB DUP2 ADD SWAP1 PUSH2 0x61E SWAP2 SWAP1 PUSH2 0x3C5C JUMP JUMPDEST PUSH2 0x143E JUMP JUMPDEST PUSH1 0x40 MLOAD PUSH2 0x630 SWAP2 SWAP1 PUSH2 0x3ACA JUMP JUMPDEST PUSH1 0x40 MLOAD DUP1 SWAP2 SUB SWAP1 RETURN JUMPDEST CALLVALUE DUP1 ISZERO PUSH2 0x645 JUMPI PUSH1 0x0 DUP1 REVERT JUMPDEST POP PUSH2 0x660 PUSH1 0x4 DUP1 CALLDATASIZE SUB DUP2 ADD SWAP1 PUSH2 0x65B SWAP2 SWAP1 PUSH2 0x3BDC JUMP JUMPDEST PUSH2 0x1455 JUMP JUMPDEST STOP JUMPDEST CALLVALUE DUP1 ISZERO PUSH2 0x66E JUMPI PUSH1 0x0 DUP1 REVERT JUMPDEST POP PUSH2 0x689 PUSH1 0x4 DUP1 CALLDATASIZE SUB DUP2 ADD SWAP1 PUSH2 0x684 SWAP2 SWAP1 PUSH2 0x3CDA JUMP JUMPDEST PUSH2 0x14FD JUMP JUMPDEST STOP JUMPDEST CALLVALUE DUP1 ISZERO PUSH2 0x697 JUMPI PUSH1 0x0 DUP1 REVERT JUMPDEST POP PUSH2 0x6A0 PUSH2 0x15D1 JUMP JUMPDEST PUSH1 0x40 MLOAD PUSH2 0x6AD SWAP2 SWAP1 PUSH2 0x3ACA JUMP JUMPDEST PUSH1 0x40 MLOAD DUP1 SWAP2 SUB SWAP1 RETURN JUMPDEST CALLVALUE DUP1 ISZERO PUSH2 0x6C2 JUMPI PUSH1 0x0 DUP1 REVERT JUMPDEST POP PUSH2 0x6CB PUSH2 0x15D7 JUMP JUMPDEST PUSH1 0x40 MLOAD PUSH2 0x6D8 SWAP2 SWAP1 PUSH2 0x3ACA JUMP JUMPDEST PUSH1 0x40 MLOAD DUP1 SWAP2 SUB SWAP1 RETURN JUMPDEST CALLVALUE DUP1 ISZERO PUSH2 0x6ED JUMPI PUSH1 0x0 DUP1 REVERT JUMPDEST POP PUSH2 0x6F6 PUSH2 0x15DD JUMP JUMPDEST PUSH1 0x40 MLOAD PUSH2 0x703 SWAP2 SWAP1 PUSH2 0x3D16 JUMP JUMPDEST PUSH1 0x40 MLOAD DUP1 SWAP2 SUB SWAP1 RETURN JUMPDEST CALLVALUE DUP1 ISZERO PUSH2 0x718 JUMPI PUSH1 0x0 DUP1 REVERT JUMPDEST POP PUSH2 0x721 PUSH2 0x15F0 JUMP JUMPDEST PUSH1 0x40 MLOAD PUSH2 0x72E SWAP2 SWAP1 PUSH2 0x3ACA JUMP JUMPDEST PUSH1 0x40 MLOAD DUP1 SWAP2 SUB SWAP1 RETURN JUMPDEST CALLVALUE DUP1 ISZERO PUSH2 0x743 JUMPI PUSH1 0x0 DUP1 REVERT JUMPDEST POP PUSH2 0x74C PUSH2 0x15F6 JUMP JUMPDEST PUSH1 0x40 MLOAD PUSH2 0x759 SWAP2 SWAP1 PUSH2 0x3ACA JUMP JUMPDEST PUSH1 0x40 MLOAD DUP1 SWAP2 SUB SWAP1 RETURN JUMPDEST CALLVALUE DUP1 ISZERO PUSH2 0x76E JUMPI PUSH1 0x0 DUP1 REVERT JUMPDEST POP PUSH2 0x789 PUSH1 0x4 DUP1 CALLDATASIZE SUB DUP2 ADD SWAP1 PUSH2 0x784 SWAP2 SWAP1 PUSH2 0x3BDC JUMP JUMPDEST PUSH2 0x165A JUMP JUMPDEST STOP JUMPDEST CALLVALUE DUP1 ISZERO PUSH2 0x797 JUMPI PUSH1 0x0 DUP1 REVERT JUMPDEST POP PUSH2 0x7B2 PUSH1 0x4 DUP1 CALLDATASIZE SUB DUP2 ADD SWAP1 PUSH2 0x7AD SWAP2 SWAP1 PUSH2 0x3BDC JUMP JUMPDEST PUSH2 0x1719 JUMP JUMPDEST STOP JUMPDEST CALLVALUE DUP1 ISZERO PUSH2 0x7C0 JUMPI PUSH1 0x0 DUP1 REVERT JUMPDEST POP PUSH2 0x7C9 PUSH2 0x17C6 JUMP JUMPDEST PUSH1 0x40 MLOAD PUSH2 0x7D6 SWAP2 SWAP1 PUSH2 0x3ACA JUMP JUMPDEST PUSH1 0x40 MLOAD DUP1 SWAP2 SUB SWAP1 RETURN JUMPDEST CALLVALUE DUP1 ISZERO PUSH2 0x7EB JUMPI PUSH1 0x0 DUP1 REVERT JUMPDEST POP PUSH2 0x7F4 PUSH2 0x17CC JUMP JUMPDEST PUSH1 0x40 MLOAD PUSH2 0x804 SWAP5 SWAP4 SWAP3 SWAP2 SWAP1 PUSH2 0x3D31 JUMP JUMPDEST PUSH1 0x40 MLOAD DUP1 SWAP2 SUB SWAP1 RETURN JUMPDEST CALLVALUE DUP1 ISZERO PUSH2 0x819 JUMPI PUSH1 0x0 DUP1 REVERT JUMPDEST POP PUSH2 0x834 PUSH1 0x4 DUP1 CALLDATASIZE SUB DUP2 ADD SWAP1 PUSH2 0x82F SWAP2 SWAP1 PUSH2 0x3D76 JUMP JUMPDEST PUSH2 0x17EC JUMP JUMPDEST PUSH1 0x40 MLOAD PUSH2 0x841 SWAP2 SWAP1 PUSH2 0x3ACA JUMP JUMPDEST PUSH1 0x40 MLOAD DUP1 SWAP2 SUB SWAP1 RETURN JUMPDEST PUSH2 0x864 PUSH1 0x4 DUP1 CALLDATASIZE SUB DUP2 ADD SWAP1 PUSH2 0x85F SWAP2 SWAP1 PUSH2 0x3CDA JUMP JUMPDEST PUSH2 0x18D3 JUMP JUMPDEST STOP JUMPDEST CALLVALUE DUP1 ISZERO PUSH2 0x872 JUMPI PUSH1 0x0 DUP1 REVERT JUMPDEST POP PUSH2 0x88D PUSH1 0x4 DUP1 CALLDATASIZE SUB DUP2 ADD SWAP1 PUSH2 0x888 SWAP2 SWAP1 PUSH2 0x3BDC JUMP JUMPDEST PUSH2 0x1EA1 JUMP JUMPDEST STOP JUMPDEST CALLVALUE DUP1 ISZERO PUSH2 0x89B JUMPI PUSH1 0x0 DUP1 REVERT JUMPDEST POP PUSH2 0x8A4 PUSH2 0x1F56 JUMP JUMPDEST STOP JUMPDEST CALLVALUE DUP1 ISZERO PUSH2 0x8B2 JUMPI PUSH1 0x0 DUP1 REVERT JUMPDEST POP PUSH2 0x8BB PUSH2 0x2214 JUMP JUMPDEST PUSH1 0x40 MLOAD PUSH2 0x8C8 SWAP2 SWAP1 PUSH2 0x3ACA JUMP JUMPDEST PUSH1 0x40 MLOAD DUP1 SWAP2 SUB SWAP1 RETURN JUMPDEST CALLVALUE DUP1 ISZERO PUSH2 0x8DD JUMPI PUSH1 0x0 DUP1 REVERT JUMPDEST POP PUSH2 0x8F8 PUSH1 0x4 DUP1 CALLDATASIZE SUB DUP2 ADD SWAP1 PUSH2 0x8F3 SWAP2 SWAP1 PUSH2 0x3CDA JUMP JUMPDEST PUSH2 0x221A JUMP JUMPDEST PUSH1 0x40 MLOAD PUSH2 0x910 SWAP13 SWAP12 SWAP11 SWAP10 SWAP9 SWAP8 SWAP7 SWAP6 SWAP5 SWAP4 SWAP3 SWAP2 SWAP1 PUSH2 0x3DC5 JUMP JUMPDEST PUSH1 0x40 MLOAD DUP1 SWAP2 SUB SWAP1 RETURN JUMPDEST CALLVALUE DUP1 ISZERO PUSH2 0x925 JUMPI PUSH1 0x0 DUP1 REVERT JUMPDEST POP PUSH2 0x940 PUSH1 0x4 DUP1 CALLDATASIZE SUB DUP2 ADD SWAP1 PUSH2 0x93B SWAP2 SWAP1 PUSH2 0x3CDA JUMP JUMPDEST PUSH2 0x2597 JUMP JUMPDEST PUSH1 0x40 MLOAD PUSH2 0x94D SWAP2 SWAP1 PUSH2 0x3ACA JUMP JUMPDEST PUSH1 0x40 MLOAD DUP1 SWAP2 SUB SWAP1 RETURN JUMPDEST CALLVALUE DUP1 ISZERO PUSH2 0x962 JUMPI PUSH1 0x0 DUP1 REVERT JUMPDEST POP PUSH2 0x96B PUSH2 0x260A JUMP JUMPDEST PUSH1 0x40 MLOAD PUSH2 0x978 SWAP2 SWAP1 PUSH2 0x3ACA JUMP JUMPDEST PUSH1 0x40 MLOAD DUP1 SWAP2 SUB SWAP1 RETURN JUMPDEST CALLVALUE DUP1 ISZERO PUSH2 0x98D JUMPI PUSH1 0x0 DUP1 REVERT JUMPDEST POP PUSH2 0x996 PUSH2 0x2610 JUMP JUMPDEST PUSH1 0x40 MLOAD PUSH2 0x9A3 SWAP2 SWAP1 PUSH2 0x3ACA JUMP JUMPDEST PUSH1 0x40 MLOAD DUP1 SWAP2 SUB SWAP1 RETURN JUMPDEST CALLVALUE DUP1 ISZERO PUSH2 0x9B8 JUMPI PUSH1 0x0 DUP1 REVERT JUMPDEST POP PUSH2 0x9D3 PUSH1 0x4 DUP1 CALLDATASIZE SUB DUP2 ADD SWAP1 PUSH2 0x9CE SWAP2 SWAP1 PUSH2 0x3BDC JUMP JUMPDEST PUSH2 0x2616 JUMP JUMPDEST STOP JUMPDEST CALLVALUE DUP1 ISZERO PUSH2 0x9E1 JUMPI PUSH1 0x0 DUP1 REVERT JUMPDEST POP PUSH2 0x9EA PUSH2 0x26CC JUMP JUMPDEST PUSH1 0x40 MLOAD PUSH2 0x9F7 SWAP2 SWAP1 PUSH2 0x3ACA JUMP JUMPDEST PUSH1 0x40 MLOAD DUP1 SWAP2 SUB SWAP1 RETURN JUMPDEST CALLVALUE DUP1 ISZERO PUSH2 0xA0C JUMPI PUSH1 0x0 DUP1 REVERT JUMPDEST POP PUSH2 0xA27 PUSH1 0x4 DUP1 CALLDATASIZE SUB DUP2 ADD SWAP1 PUSH2 0xA22 SWAP2 SWAP1 PUSH2 0x3BDC JUMP JUMPDEST PUSH2 0x26D2 JUMP JUMPDEST STOP JUMPDEST CALLVALUE DUP1 ISZERO PUSH2 0xA35 JUMPI PUSH1 0x0 DUP1 REVERT JUMPDEST POP PUSH2 0xA50 PUSH1 0x4 DUP1 CALLDATASIZE SUB DUP2 ADD SWAP1 PUSH2 0xA4B SWAP2 SWAP1 PUSH2 0x3BDC JUMP JUMPDEST PUSH2 0x277A JUMP JUMPDEST STOP JUMPDEST CALLVALUE DUP1 ISZERO PUSH2 0xA5E JUMPI PUSH1 0x0 DUP1 REVERT JUMPDEST POP PUSH2 0xA67 PUSH2 0x282B JUMP JUMPDEST PUSH1 0x40 MLOAD PUSH2 0xA74 SWAP2 SWAP1 PUSH2 0x3B26 JUMP JUMPDEST PUSH1 0x40 MLOAD DUP1 SWAP2 SUB SWAP1 RETURN JUMPDEST CALLVALUE DUP1 ISZERO PUSH2 0xA89 JUMPI PUSH1 0x0 DUP1 REVERT JUMPDEST POP PUSH2 0xA92 PUSH2 0x2851 JUMP JUMPDEST PUSH1 0x40 MLOAD PUSH2 0xA9F SWAP2 SWAP1 PUSH2 0x3ACA JUMP JUMPDEST PUSH1 0x40 MLOAD DUP1 SWAP2 SUB SWAP1 RETURN JUMPDEST CALLVALUE DUP1 ISZERO PUSH2 0xAB4 JUMPI PUSH1 0x0 DUP1 REVERT JUMPDEST POP PUSH2 0xABD PUSH2 0x2857 JUMP JUMPDEST PUSH1 0x40 MLOAD PUSH2 0xACA SWAP2 SWAP1 PUSH2 0x3ACA JUMP JUMPDEST PUSH1 0x40 MLOAD DUP1 SWAP2 SUB SWAP1 RETURN JUMPDEST CALLVALUE DUP1 ISZERO PUSH2 0xADF JUMPI PUSH1 0x0 DUP1 REVERT JUMPDEST POP PUSH2 0xAFA PUSH1 0x4 DUP1 CALLDATASIZE SUB DUP2 ADD SWAP1 PUSH2 0xAF5 SWAP2 SWAP1 PUSH2 0x3BDC JUMP JUMPDEST PUSH2 0x285D JUMP JUMPDEST PUSH1 0x40 MLOAD PUSH2 0xB07 SWAP2 SWAP1 PUSH2 0x3ACA JUMP JUMPDEST PUSH1 0x40 MLOAD DUP1 SWAP2 SUB SWAP1 RETURN JUMPDEST CALLVALUE DUP1 ISZERO PUSH2 0xB1C JUMPI PUSH1 0x0 DUP1 REVERT JUMPDEST POP PUSH2 0xB37 PUSH1 0x4 DUP1 CALLDATASIZE SUB DUP2 ADD SWAP1 PUSH2 0xB32 SWAP2 SWAP1 PUSH2 0x3BDC JUMP JUMPDEST PUSH2 0x2877 JUMP JUMPDEST STOP JUMPDEST CALLVALUE DUP1 ISZERO PUSH2 0xB45 JUMPI PUSH1 0x0 DUP1 REVERT JUMPDEST POP PUSH2 0xB4E PUSH2 0x2932 JUMP JUMPDEST PUSH1 0x40 MLOAD PUSH2 0xB5B SWAP2 SWAP1 PUSH2 0x3B26 JUMP JUMPDEST PUSH1 0x40 MLOAD DUP1 SWAP2 SUB SWAP1 RETURN JUMPDEST CALLVALUE DUP1 ISZERO PUSH2 0xB70 JUMPI PUSH1 0x0 DUP1 REVERT JUMPDEST POP PUSH2 0xB79 PUSH2 0x2958 JUMP JUMPDEST PUSH1 0x40 MLOAD PUSH2 0xB86 SWAP2 SWAP1 PUSH2 0x3ACA JUMP JUMPDEST PUSH1 0x40 MLOAD DUP1 SWAP2 SUB SWAP1 RETURN JUMPDEST CALLVALUE DUP1 ISZERO PUSH2 0xB9B JUMPI PUSH1 0x0 DUP1 REVERT JUMPDEST POP PUSH2 0xBA4 PUSH2 0x295E JUMP JUMPDEST PUSH1 0x40 MLOAD PUSH2 0xBB1 SWAP2 SWAP1 PUSH2 0x3B26 JUMP JUMPDEST PUSH1 0x40 MLOAD DUP1 SWAP2 SUB SWAP1 RETURN JUMPDEST CALLVALUE DUP1 ISZERO PUSH2 0xBC6 JUMPI PUSH1 0x0 DUP1 REVERT JUMPDEST POP PUSH2 0xBCF PUSH2 0x2984 JUMP JUMPDEST PUSH1 0x40 MLOAD PUSH2 0xBDC SWAP2 SWAP1 PUSH2 0x3E7F JUMP JUMPDEST PUSH1 0x40 MLOAD DUP1 SWAP2 SUB SWAP1 RETURN JUMPDEST CALLVALUE DUP1 ISZERO PUSH2 0xBF1 JUMPI PUSH1 0x0 DUP1 REVERT JUMPDEST POP PUSH2 0xC0C PUSH1 0x4 DUP1 CALLDATASIZE SUB DUP2 ADD SWAP1 PUSH2 0xC07 SWAP2 SWAP1 PUSH2 0x3BDC JUMP JUMPDEST PUSH2 0x29AA JUMP JUMPDEST PUSH1 0x40 MLOAD PUSH2 0xC19 SWAP2 SWAP1 PUSH2 0x3ACA JUMP JUMPDEST PUSH1 0x40 MLOAD DUP1 SWAP2 SUB SWAP1 RETURN JUMPDEST CALLVALUE DUP1 ISZERO PUSH2 0xC2E JUMPI PUSH1 0x0 DUP1 REVERT JUMPDEST POP PUSH2 0xC37 PUSH2 0x29C7 JUMP JUMPDEST PUSH1 0x40 MLOAD PUSH2 0xC44 SWAP2 SWAP1 PUSH2 0x3ACA JUMP JUMPDEST PUSH1 0x40 MLOAD DUP1 SWAP2 SUB SWAP1 RETURN JUMPDEST CALLVALUE DUP1 ISZERO PUSH2 0xC59 JUMPI PUSH1 0x0 DUP1 REVERT JUMPDEST POP PUSH2 0xC74 PUSH1 0x4 DUP1 CALLDATASIZE SUB DUP2 ADD SWAP1 PUSH2 0xC6F SWAP2 SWAP1 PUSH2 0x3BDC JUMP JUMPDEST PUSH2 0x29CD JUMP JUMPDEST STOP JUMPDEST CALLVALUE DUP1 ISZERO PUSH2 0xC82 JUMPI PUSH1 0x0 DUP1 REVERT JUMPDEST POP PUSH2 0xC9D PUSH1 0x4 DUP1 CALLDATASIZE SUB DUP2 ADD SWAP1 PUSH2 0xC98 SWAP2 SWAP1 PUSH2 0x3BDC JUMP JUMPDEST PUSH2 0x2A8C JUMP JUMPDEST STOP JUMPDEST CALLVALUE DUP1 ISZERO PUSH2 0xCAB JUMPI PUSH1 0x0 DUP1 REVERT JUMPDEST POP PUSH2 0xCC6 PUSH1 0x4 DUP1 CALLDATASIZE SUB DUP2 ADD SWAP1 PUSH2 0xCC1 SWAP2 SWAP1 PUSH2 0x3B83 JUMP JUMPDEST PUSH2 0x2B34 JUMP JUMPDEST STOP JUMPDEST CALLVALUE DUP1 ISZERO PUSH2 0xCD4 JUMPI PUSH1 0x0 DUP1 REVERT JUMPDEST POP PUSH2 0xCDD PUSH2 0x2BE1 JUMP JUMPDEST PUSH1 0x40 MLOAD PUSH2 0xCEA SWAP2 SWAP1 PUSH2 0x3B26 JUMP JUMPDEST PUSH1 0x40 MLOAD DUP1 SWAP2 SUB SWAP1 RETURN JUMPDEST CALLVALUE DUP1 ISZERO PUSH2 0xCFF JUMPI PUSH1 0x0 DUP1 REVERT JUMPDEST POP PUSH2 0xD1A PUSH1 0x4 DUP1 CALLDATASIZE SUB DUP2 ADD SWAP1 PUSH2 0xD15 SWAP2 SWAP1 PUSH2 0x3CDA JUMP JUMPDEST PUSH2 0x2C07 JUMP JUMPDEST PUSH1 0x40 MLOAD PUSH2 0xD32 SWAP13 SWAP12 SWAP11 SWAP10 SWAP9 SWAP8 SWAP7 SWAP6 SWAP5 SWAP4 SWAP3 SWAP2 SWAP1 PUSH2 0x3DC5 JUMP JUMPDEST PUSH1 0x40 MLOAD DUP1 SWAP2 SUB SWAP1 RETURN JUMPDEST CALLVALUE DUP1 ISZERO PUSH2 0xD47 JUMPI PUSH1 0x0 DUP1 REVERT JUMPDEST POP PUSH2 0xD50 PUSH2 0x2C86 JUMP JUMPDEST PUSH1 0x40 MLOAD PUSH2 0xD5D SWAP2 SWAP1 PUSH2 0x3D16 JUMP JUMPDEST PUSH1 0x40 MLOAD DUP1 SWAP2 SUB SWAP1 RETURN JUMPDEST PUSH2 0xD6E PUSH2 0x2C99 JUMP JUMPDEST STOP JUMPDEST CALLVALUE DUP1 ISZERO PUSH2 0xD7C JUMPI PUSH1 0x0 DUP1 REVERT JUMPDEST POP PUSH2 0xD97 PUSH1 0x4 DUP1 CALLDATASIZE SUB DUP2 ADD SWAP1 PUSH2 0xD92 SWAP2 SWAP1 PUSH2 0x3BDC JUMP JUMPDEST PUSH2 0x2C9B JUMP JUMPDEST PUSH1 0x40 MLOAD PUSH2 0xDA5 SWAP3 SWAP2 SWAP1 PUSH2 0x3E9A JUMP JUMPDEST PUSH1 0x40 MLOAD DUP1 SWAP2 SUB SWAP1 RETURN JUMPDEST CALLVALUE DUP1 ISZERO PUSH2 0xDBA JUMPI PUSH1 0x0 DUP1 REVERT JUMPDEST POP PUSH2 0xDD5 PUSH1 0x4 DUP1 CALLDATASIZE SUB DUP2 ADD SWAP1 PUSH2 0xDD0 SWAP2 SWAP1 PUSH2 0x3BDC JUMP JUMPDEST PUSH2 0x2D2D JUMP JUMPDEST STOP JUMPDEST CALLVALUE DUP1 ISZERO PUSH2 0xDE3 JUMPI PUSH1 0x0 DUP1 REVERT JUMPDEST POP PUSH2 0xDFE PUSH1 0x4 DUP1 CALLDATASIZE SUB DUP2 ADD SWAP1 PUSH2 0xDF9 SWAP2 SWAP1 PUSH2 0x3CDA JUMP JUMPDEST PUSH2 0x2DD6 JUMP JUMPDEST PUSH1 0x40 MLOAD PUSH2 0xE0B SWAP2 SWAP1 PUSH2 0x3D16 JUMP JUMPDEST PUSH1 0x40 MLOAD DUP1 SWAP2 SUB SWAP1 RETURN JUMPDEST CALLVALUE DUP1 ISZERO PUSH2 0xE20 JUMPI PUSH1 0x0 DUP1 REVERT JUMPDEST POP PUSH2 0xE29 PUSH2 0x2EBC JUMP JUMPDEST PUSH1 0x40 MLOAD PUSH2 0xE36 SWAP2 SWAP1 PUSH2 0x3ACA JUMP JUMPDEST PUSH1 0x40 MLOAD DUP1 SWAP2 SUB SWAP1 RETURN JUMPDEST CALLVALUE DUP1 ISZERO PUSH2 0xE4B JUMPI PUSH1 0x0 DUP1 REVERT JUMPDEST POP PUSH2 0xE54 PUSH2 0x2EC2 JUMP JUMPDEST PUSH1 0x40 MLOAD PUSH2 0xE61 SWAP2 SWAP1 PUSH2 0x3ACA JUMP JUMPDEST PUSH1 0x40 MLOAD DUP1 SWAP2 SUB SWAP1 RETURN JUMPDEST CALLVALUE DUP1 ISZERO PUSH2 0xE76 JUMPI PUSH1 0x0 DUP1 REVERT JUMPDEST POP PUSH2 0xE91 PUSH1 0x4 DUP1 CALLDATASIZE SUB DUP2 ADD SWAP1 PUSH2 0xE8C SWAP2 SWAP1 PUSH2 0x3C5C JUMP JUMPDEST PUSH2 0x2EC8 JUMP JUMPDEST PUSH1 0x40 MLOAD PUSH2 0xE9E SWAP2 SWAP1 PUSH2 0x3ACA JUMP JUMPDEST PUSH1 0x40 MLOAD DUP1 SWAP2 SUB SWAP1 RETURN JUMPDEST CALLVALUE DUP1 ISZERO PUSH2 0xEB3 JUMPI PUSH1 0x0 DUP1 REVERT JUMPDEST POP PUSH2 0xEBC PUSH2 0x2EF8 JUMP JUMPDEST PUSH1 0x40 MLOAD PUSH2 0xEC9 SWAP2 SWAP1 PUSH2 0x3ACA JUMP JUMPDEST PUSH1 0x40 MLOAD DUP1 SWAP2 SUB SWAP1 RETURN JUMPDEST CALLVALUE DUP1 ISZERO PUSH2 0xEDE JUMPI PUSH1 0x0 DUP1 REVERT JUMPDEST POP PUSH2 0xEE7 PUSH2 0x2EFE JUMP JUMPDEST PUSH1 0x40 MLOAD PUSH2 0xEF4 SWAP2 SWAP1 PUSH2 0x3ACA JUMP JUMPDEST PUSH1 0x40 MLOAD DUP1 SWAP2 SUB SWAP1 RETURN JUMPDEST CALLVALUE DUP1 ISZERO PUSH2 0xF09 JUMPI PUSH1 0x0 DUP1 REVERT JUMPDEST POP PUSH2 0xF24 PUSH1 0x4 DUP1 CALLDATASIZE SUB DUP2 ADD SWAP1 PUSH2 0xF1F SWAP2 SWAP1 PUSH2 0x3CDA JUMP JUMPDEST PUSH2 0x2F04 JUMP JUMPDEST PUSH1 0x40 MLOAD PUSH2 0xF31 SWAP2 SWAP1 PUSH2 0x3ACA JUMP JUMPDEST PUSH1 0x40 MLOAD DUP1 SWAP2 SUB SWAP1 RETURN JUMPDEST CALLVALUE DUP1 ISZERO PUSH2 0xF46 JUMPI PUSH1 0x0 DUP1 REVERT JUMPDEST POP PUSH2 0xF61 PUSH1 0x4 DUP1 CALLDATASIZE SUB DUP2 ADD SWAP1 PUSH2 0xF5C SWAP2 SWAP1 PUSH2 0x3EC3 JUMP JUMPDEST PUSH2 0x2FDD JUMP JUMPDEST STOP JUMPDEST CALLVALUE DUP1 ISZERO PUSH2 0xF6F JUMPI PUSH1 0x0 DUP1 REVERT JUMPDEST POP PUSH2 0xF78 PUSH2 0x30C8 JUMP JUMPDEST PUSH1 0x40 MLOAD PUSH2 0xF85 SWAP2 SWAP1 PUSH2 0x3ACA JUMP JUMPDEST PUSH1 0x40 MLOAD DUP1 SWAP2 SUB SWAP1 RETURN JUMPDEST PUSH2 0xFA8 PUSH1 0x4 DUP1 CALLDATASIZE SUB DUP2 ADD SWAP1 PUSH2 0xFA3 SWAP2 SWAP1 PUSH2 0x3CDA JUMP JUMPDEST PUSH2 0x30D0 JUMP JUMPDEST STOP JUMPDEST CALLVALUE DUP1 ISZERO PUSH2 0xFB6 JUMPI PUSH1 0x0 DUP1 REVERT JUMPDEST POP PUSH2 0xFD1 PUSH1 0x4 DUP1 CALLDATASIZE SUB DUP2 ADD SWAP1 PUSH2 0xFCC SWAP2 SWAP1 PUSH2 0x3BDC JUMP JUMPDEST PUSH2 0x31BD JUMP JUMPDEST STOP JUMPDEST CALLVALUE DUP1 ISZERO PUSH2 0xFDF JUMPI PUSH1 0x0 DUP1 REVERT JUMPDEST POP PUSH2 0xFFA PUSH1 0x4 DUP1 CALLDATASIZE SUB DUP2 ADD SWAP1 PUSH2 0xFF5 SWAP2 SWAP1 PUSH2 0x3BDC JUMP JUMPDEST PUSH2 0x3276 JUMP JUMPDEST STOP JUMPDEST CALLVALUE DUP1 ISZERO PUSH2 0x1008 JUMPI PUSH1 0x0 DUP1 REVERT JUMPDEST POP PUSH2 0x1023 PUSH1 0x4 DUP1 CALLDATASIZE SUB DUP2 ADD SWAP1 PUSH2 0x101E SWAP2 SWAP1 PUSH2 0x3F68 JUMP JUMPDEST PUSH2 0x331E JUMP JUMPDEST STOP JUMPDEST CALLVALUE DUP1 ISZERO PUSH2 0x1031 JUMPI PUSH1 0x0 DUP1 REVERT JUMPDEST POP PUSH2 0x103A PUSH2 0x3453 JUMP JUMPDEST PUSH1 0x40 MLOAD PUSH2 0x1047 SWAP2 SWAP1 PUSH2 0x3ACA JUMP JUMPDEST PUSH1 0x40 MLOAD DUP1 SWAP2 SUB SWAP1 RETURN JUMPDEST CALLVALUE DUP1 ISZERO PUSH2 0x105C JUMPI PUSH1 0x0 DUP1 REVERT JUMPDEST POP PUSH2 0x1077 PUSH1 0x4 DUP1 CALLDATASIZE SUB DUP2 ADD SWAP1 PUSH2 0x1072 SWAP2 SWAP1 PUSH2 0x3CDA JUMP JUMPDEST PUSH2 0x3459 JUMP JUMPDEST PUSH1 0x40 MLOAD PUSH2 0x1084 SWAP2 SWAP1 PUSH2 0x3D16 JUMP JUMPDEST PUSH1 0x40 MLOAD DUP1 SWAP2 SUB SWAP1 RETURN JUMPDEST PUSH1 0x2 SLOAD DUP2 JUMP JUMPDEST PUSH1 0xB SLOAD DUP2 JUMP JUMPDEST PUSH1 0x1D PUSH1 0x0 SWAP1 SLOAD SWAP1 PUSH2 0x100 EXP SWAP1 DIV PUSH20 0xFFFFFFFFFFFFFFFFFFFFFFFFFFFFFFFFFFFFFFFF AND DUP2 JUMP JUMPDEST PUSH1 0x0 PUSH1 0x20 PUSH1 0x0 CALLER PUSH20 0xFFFFFFFFFFFFFFFFFFFFFFFFFFFFFFFFFFFFFFFF AND PUSH20 0xFFFFFFFFFFFFFFFFFFFFFFFFFFFFFFFFFFFFFFFF AND DUP2 MSTORE PUSH1 0x20 ADD SWAP1 DUP2 MSTORE PUSH1 0x20 ADD PUSH1 0x0 KECCAK256 PUSH1 0x2 ADD SLOAD SWAP1 POP SWAP1 JUMP JUMPDEST PUSH1 0x0 SELFBALANCE SWAP1 POP SWAP1 JUMP JUMPDEST PUSH1 0x7 SLOAD DUP2 JUMP JUMPDEST PUSH1 0x0 PUSH1 0x20 PUSH1 0x0 CALLER PUSH20 0xFFFFFFFFFFFFFFFFFFFFFFFFFFFFFFFFFFFFFFFF AND PUSH20 0xFFFFFFFFFFFFFFFFFFFFFFFFFFFFFFFFFFFFFFFF AND DUP2 MSTORE PUSH1 0x20 ADD SWAP1 DUP2 MSTORE PUSH1 0x20 ADD PUSH1 0x0 KECCAK256 SWAP1 POP PUSH1 0x15 PUSH1 0x0 SWAP1 SLOAD SWAP1 PUSH2 0x100 EXP SWAP1 DIV PUSH1 0xFF AND PUSH2 0x11A9 JUMPI PUSH1 0x40 MLOAD PUSH32 0x8C379A000000000000000000000000000000000000000000000000000000000 DUP2 MSTORE PUSH1 0x4 ADD PUSH2 0x11A0 SWAP1 PUSH2 0x4025 JUMP JUMPDEST PUSH1 0x40 MLOAD DUP1 SWAP2 SUB SWAP1 REVERT JUMPDEST PUSH1 0x0 PUSH2 0x11B3 PUSH2 0x15F6 JUMP JUMPDEST SWAP1 POP PUSH1 0x0 DUP2 SWAP1 POP DUP4 ISZERO PUSH2 0x122D JUMPI PUSH1 0x0 PUSH2 0x11CC CALLER DUP4 PUSH2 0x17EC JUMP JUMPDEST SWAP1 POP PUSH2 0x11E1 DUP2 DUP4 PUSH2 0x3479 SWAP1 SWAP2 SWAP1 PUSH4 0xFFFFFFFF AND JUMP JUMPDEST SWAP2 POP PUSH1 0x0 PUSH2 0x11EE DUP4 PUSH2 0x29AA JUMP JUMPDEST SWAP1 POP PUSH2 0x1207 DUP2 DUP7 PUSH1 0x1 ADD SLOAD PUSH2 0x3479 SWAP1 SWAP2 SWAP1 PUSH4 0xFFFFFFFF AND JUMP JUMPDEST DUP6 PUSH1 0x1 ADD DUP2 SWAP1 SSTORE POP PUSH2 0x1224 DUP2 PUSH1 0xF SLOAD PUSH2 0x3479 SWAP1 SWAP2 SWAP1 PUSH4 0xFFFFFFFF AND JUMP JUMPDEST PUSH1 0xF DUP2 SWAP1 SSTORE POP POP POP JUMPDEST PUSH1 0xA SLOAD PUSH2 0x1247 DUP5 PUSH1 0x4 ADD SLOAD TIMESTAMP PUSH2 0x34A5 SWAP1 SWAP2 SWAP1 PUSH4 0xFFFFFFFF AND JUMP JUMPDEST LT PUSH2 0x129C JUMPI PUSH1 0x9 SLOAD DUP4 PUSH1 0x9 ADD SLOAD LT ISZERO PUSH2 0x127B JUMPI PUSH2 0x1272 PUSH1 0x1 DUP5 PUSH1 0x9 ADD SLOAD PUSH2 0x3479 SWAP1 SWAP2 SWAP1 PUSH4 0xFFFFFFFF AND JUMP JUMPDEST DUP4 PUSH1 0x9 ADD DUP2 SWAP1 SSTORE POP JUMPDEST PUSH2 0x1293 PUSH1 0x1 DUP5 PUSH1 0xA ADD SLOAD PUSH2 0x3479 SWAP1 SWAP2 SWAP1 PUSH4 0xFFFFFFFF AND JUMP JUMPDEST DUP4 PUSH1 0xA ADD DUP2 SWAP1 SSTORE POP JUMPDEST PUSH2 0x12C7 PUSH2 0x12B4 PUSH1 0x0 SLOAD DUP4 PUSH2 0x34CC SWAP1 SWAP2 SWAP1 PUSH4 0xFFFFFFFF AND JUMP JUMPDEST DUP5 PUSH1 0x2 ADD SLOAD PUSH2 0x3479 SWAP1 SWAP2 SWAP1 PUSH4 0xFFFFFFFF AND JUMP JUMPDEST DUP4 PUSH1 0x2 ADD DUP2 SWAP1 SSTORE POP PUSH1 0x0 DUP4 PUSH1 0x3 ADD DUP2 SWAP1 SSTORE POP TIMESTAMP DUP4 PUSH1 0x4 ADD DUP2 SWAP1 SSTORE POP PUSH2 0x130B PUSH2 0x12FA PUSH1 0x5 SLOAD DUP5 PUSH2 0x34CC SWAP1 SWAP2 SWAP1 PUSH4 0xFFFFFFFF AND JUMP JUMPDEST PUSH1 0x12 SLOAD PUSH2 0x3479 SWAP1 SWAP2 SWAP1 PUSH4 0xFFFFFFFF AND JUMP JUMPDEST PUSH1 0x12 DUP2 SWAP1 SSTORE POP POP POP POP POP JUMP JUMPDEST PUSH1 0x0 SLOAD DUP2 JUMP JUMPDEST PUSH1 0x19 PUSH1 0x0 SWAP1 SLOAD SWAP1 PUSH2 0x100 EXP SWAP1 DIV PUSH20 0xFFFFFFFFFFFFFFFFFFFFFFFFFFFFFFFFFFFFFFFF AND PUSH20 0xFFFFFFFFFFFFFFFFFFFFFFFFFFFFFFFFFFFFFFFF AND CALLER PUSH20 0xFFFFFFFFFFFFFFFFFFFFFFFFFFFFFFFFFFFFFFFF AND EQ PUSH2 0x13AD JUMPI PUSH1 0x40 MLOAD PUSH32 0x8C379A000000000000000000000000000000000000000000000000000000000 DUP2 MSTORE PUSH1 0x4 ADD PUSH2 0x13A4 SWAP1 PUSH2 0x4091 JUMP JUMPDEST PUSH1 0x40 MLOAD DUP1 SWAP2 SUB SWAP1 REVERT JUMPDEST PUSH1 0x14 DUP2 GT ISZERO PUSH2 0x13BB JUMPI PUSH1 0x0 DUP1 REVERT JUMPDEST DUP1 PUSH1 0x4 DUP2 SWAP1 SSTORE POP POP JUMP JUMPDEST PUSH1 0x0 PUSH2 0x140F PUSH2 0x13D6 PUSH1 0x13 SLOAD DUP5 PUSH2 0x34E7 JUMP JUMPDEST PUSH2 0x140A PUSH1 0x14 SLOAD PUSH2 0x1405 PUSH2 0x13FF PUSH2 0x13EE PUSH1 0x13 SLOAD DUP11 PUSH2 0x34E7 JUMP JUMPDEST PUSH2 0x13FA PUSH1 0x14 SLOAD DUP13 PUSH2 0x34E7 JUMP JUMPDEST PUSH2 0x3479 JUMP JUMPDEST DUP10 PUSH2 0x34CC JUMP JUMPDEST PUSH2 0x3479 JUMP JUMPDEST PUSH2 0x34CC JUMP JUMPDEST SWAP1 POP SWAP4 SWAP3 POP POP POP JUMP JUMPDEST PUSH1 0x1C PUSH1 0x0 SWAP1 SLOAD SWAP1 PUSH2 0x100 EXP SWAP1 DIV PUSH20 0xFFFFFFFFFFFFFFFFFFFFFFFFFFFFFFFFFFFFFFFF AND DUP2 JUMP JUMPDEST PUSH1 0x0 PUSH2 0x144D DUP4 DUP4 PUSH1 0x12 SLOAD PUSH2 0x13C5 JUMP JUMPDEST SWAP1 POP SWAP3 SWAP2 POP POP JUMP JUMPDEST PUSH1 0x19 PUSH1 0x0 SWAP1 SLOAD SWAP1 PUSH2 0x100 EXP SWAP1 DIV PUSH20 0xFFFFFFFFFFFFFFFFFFFFFFFFFFFFFFFFFFFFFFFF AND PUSH20 0xFFFFFFFFFFFFFFFFFFFFFFFFFFFFFFFFFFFFFFFF AND CALLER PUSH20 0xFFFFFFFFFFFFFFFFFFFFFFFFFFFFFFFFFFFFFFFF AND EQ PUSH2 0x14E5 JUMPI PUSH1 0x40 MLOAD PUSH32 0x8C379A000000000000000000000000000000000000000000000000000000000 DUP2 MSTORE PUSH1 0x4 ADD PUSH2 0x14DC SWAP1 PUSH2 0x4091 JUMP JUMPDEST PUSH1 0x40 MLOAD DUP1 SWAP2 SUB SWAP1 REVERT JUMPDEST PUSH1 0xF DUP2 GT ISZERO PUSH2 0x14F3 JUMPI PUSH1 0x0 DUP1 REVERT JUMPDEST DUP1 PUSH1 0x3 DUP2 SWAP1 SSTORE POP POP JUMP JUMPDEST PUSH1 0x19 PUSH1 0x0 SWAP1 SLOAD SWAP1 PUSH2 0x100 EXP SWAP1 DIV PUSH20 0xFFFFFFFFFFFFFFFFFFFFFFFFFFFFFFFFFFFFFFFF AND PUSH20 0xFFFFFFFFFFFFFFFFFFFFFFFFFFFFFFFFFFFFFFFF AND CALLER PUSH20 0xFFFFFFFFFFFFFFFFFFFFFFFFFFFFFFFFFFFFFFFF AND EQ PUSH2 0x158D JUMPI PUSH1 0x40 MLOAD PUSH32 0x8C379A000000000000000000000000000000000000000000000000000000000 DUP2 MSTORE PUSH1 0x4 ADD PUSH2 0x1584 SWAP1 PUSH2 0x4091 JUMP JUMPDEST PUSH1 0x40 MLOAD DUP1 SWAP2 SUB SWAP1 REVERT JUMPDEST DUP1 PUSH1 0x19 PUSH1 0x0 PUSH2 0x100 EXP DUP2 SLOAD DUP2 PUSH20 0xFFFFFFFFFFFFFFFFFFFFFFFFFFFFFFFFFFFFFFFF MUL NOT AND SWAP1 DUP4 PUSH20 0xFFFFFFFFFFFFFFFFFFFFFFFFFFFFFFFFFFFFFFFF AND MUL OR SWAP1 SSTORE POP POP JUMP JUMPDEST PUSH1 0x4 SLOAD DUP2 JUMP JUMPDEST PUSH1 0x12 SLOAD DUP2 JUMP JUMPDEST PUSH1 0x15 PUSH1 0x0 SWAP1 SLOAD SWAP1 PUSH2 0x100 EXP SWAP1 DIV PUSH1 0xFF AND DUP2 JUMP JUMPDEST PUSH1 0x17 SLOAD DUP2 JUMP JUMPDEST PUSH1 0x0 PUSH2 0x1655 PUSH2 0x1604 CALLER PUSH2 0x2F04 JUMP JUMPDEST PUSH1 0x20 PUSH1 0x0 CALLER PUSH20 0xFFFFFFFFFFFFFFFFFFFFFFFFFFFFFFFFFFFFFFFF AND PUSH20 0xFFFFFFFFFFFFFFFFFFFFFFFFFFFFFFFFFFFFFFFF AND DUP2 MSTORE PUSH1 0x20 ADD SWAP1 DUP2 MSTORE PUSH1 0x20 ADD PUSH1 0x0 KECCAK256 PUSH1 0x3 ADD SLOAD PUSH2 0x3479 SWAP1 SWAP2 SWAP1 PUSH4 0xFFFFFFFF AND JUMP JUMPDEST SWAP1 POP SWAP1 JUMP JUMPDEST PUSH1 0x19 PUSH1 0x0 SWAP1 SLOAD SWAP1 PUSH2 0x100 EXP SWAP1 DIV PUSH20 0xFFFFFFFFFFFFFFFFFFFFFFFFFFFFFFFFFFFFFFFF AND PUSH20 0xFFFFFFFFFFFFFFFFFFFFFFFFFFFFFFFFFFFFFFFF AND CALLER PUSH20 0xFFFFFFFFFFFFFFFFFFFFFFFFFFFFFFFFFFFFFFFF AND EQ PUSH2 0x16EA JUMPI PUSH1 0x40 MLOAD PUSH32 0x8C379A000000000000000000000000000000000000000000000000000000000 DUP2 MSTORE PUSH1 0x4 ADD PUSH2 0x16E1 SWAP1 PUSH2 0x40FD JUMP JUMPDEST PUSH1 0x40 MLOAD DUP1 SWAP2 SUB SWAP1 REVERT JUMPDEST PUSH1 0x18 DUP2 GT ISZERO PUSH2 0x16F8 JUMPI PUSH1 0x0 DUP1 REVERT JUMPDEST PUSH1 0x3C DUP1 DUP3 PUSH2 0x1706 SWAP2 SWAP1 PUSH2 0x414C JUMP JUMPDEST PUSH2 0x1710 SWAP2 SWAP1 PUSH2 0x414C JUMP JUMPDEST PUSH1 0x18 DUP2 SWAP1 SSTORE POP POP JUMP JUMPDEST PUSH1 0x19 PUSH1 0x0 SWAP1 SLOAD SWAP1 PUSH2 0x100 EXP SWAP1 DIV PUSH20 0xFFFFFFFFFFFFFFFFFFFFFFFFFFFFFFFFFFFFFFFF AND PUSH20 0xFFFFFFFFFFFFFFFFFFFFFFFFFFFFFFFFFFFFFFFF AND CALLER PUSH20 0xFFFFFFFFFFFFFFFFFFFFFFFFFFFFFFFFFFFFFFFF AND EQ PUSH2 0x17A9 JUMPI PUSH1 0x40 MLOAD PUSH32 0x8C379A000000000000000000000000000000000000000000000000000000000 DUP2 MSTORE PUSH1 0x4 ADD PUSH2 0x17A0 SWAP1 PUSH2 0x40FD JUMP JUMPDEST PUSH1 0x40 MLOAD DUP1 SWAP2 SUB SWAP1 REVERT JUMPDEST PUSH8 0x16345785D8A0000 DUP2 PUSH2 0x17BD SWAP2 SWAP1 PUSH2 0x414C JUMP JUMPDEST PUSH1 0x6 DUP2 SWAP1 SSTORE POP POP JUMP JUMPDEST PUSH1 0x11 SLOAD DUP2 JUMP JUMPDEST PUSH1 0x0 DUP1 PUSH1 0x0 DUP1 PUSH1 0xD SLOAD PUSH1 0xE SLOAD PUSH1 0xF SLOAD PUSH1 0x10 SLOAD SWAP4 POP SWAP4 POP SWAP4 POP SWAP4 POP SWAP1 SWAP2 SWAP3 SWAP4 JUMP JUMPDEST PUSH1 0x0 DUP1 PUSH1 0x20 PUSH1 0x0 DUP6 PUSH20 0xFFFFFFFFFFFFFFFFFFFFFFFFFFFFFFFFFFFFFFFF AND PUSH20 0xFFFFFFFFFFFFFFFFFFFFFFFFFFFFFFFFFFFFFFFF AND DUP2 MSTORE PUSH1 0x20 ADD SWAP1 DUP2 MSTORE PUSH1 0x20 ADD PUSH1 0x0 KECCAK256 PUSH1 0x9 ADD SLOAD EQ ISZERO PUSH2 0x1841 JUMPI PUSH1 0x0 SWAP1 POP PUSH2 0x18CD JUMP JUMPDEST PUSH1 0x0 PUSH2 0x189A PUSH1 0x8 SLOAD PUSH1 0x20 PUSH1 0x0 DUP8 PUSH20 0xFFFFFFFFFFFFFFFFFFFFFFFFFFFFFFFFFFFFFFFF AND PUSH20 0xFFFFFFFFFFFFFFFFFFFFFFFFFFFFFFFFFFFFFFFF AND DUP2 MSTORE PUSH1 0x20 ADD SWAP1 DUP2 MSTORE PUSH1 0x20 ADD PUSH1 0x0 KECCAK256 PUSH1 0x9 ADD SLOAD PUSH2 0x34E7 SWAP1 SWAP2 SWAP1 PUSH4 0xFFFFFFFF AND JUMP JUMPDEST SWAP1 POP PUSH1 0x0 PUSH2 0x18C5 PUSH1 0x2 SLOAD PUSH2 0x18B7 DUP5 DUP8 PUSH2 0x34E7 SWAP1 SWAP2 SWAP1 PUSH4 0xFFFFFFFF AND JUMP JUMPDEST PUSH2 0x34CC SWAP1 SWAP2 SWAP1 PUSH4 0xFFFFFFFF AND JUMP JUMPDEST SWAP1 POP DUP1 SWAP3 POP POP POP JUMPDEST SWAP3 SWAP2 POP POP JUMP JUMPDEST PUSH1 0x15 PUSH1 0x0 SWAP1 SLOAD SWAP1 PUSH2 0x100 EXP SWAP1 DIV PUSH1 0xFF AND PUSH2 0x1922 JUMPI PUSH1 0x40 MLOAD PUSH32 0x8C379A000000000000000000000000000000000000000000000000000000000 DUP2 MSTORE PUSH1 0x4 ADD PUSH2 0x1919 SWAP1 PUSH2 0x4025 JUMP JUMPDEST PUSH1 0x40 MLOAD DUP1 SWAP2 SUB SWAP1 REVERT JUMPDEST PUSH1 0x0 PUSH1 0x20 PUSH1 0x0 CALLER PUSH20 0xFFFFFFFFFFFFFFFFFFFFFFFFFFFFFFFFFFFFFFFF AND PUSH20 0xFFFFFFFFFFFFFFFFFFFFFFFFFFFFFFFFFFFFFFFF AND DUP2 MSTORE PUSH1 0x20 ADD SWAP1 DUP2 MSTORE PUSH1 0x20 ADD PUSH1 0x0 KECCAK256 SWAP1 POP PUSH1 0x6 SLOAD CALLVALUE LT ISZERO PUSH2 0x19AA JUMPI PUSH1 0x40 MLOAD PUSH32 0x8C379A000000000000000000000000000000000000000000000000000000000 DUP2 MSTORE PUSH1 0x4 ADD PUSH2 0x19A1 SWAP1 PUSH2 0x41F2 JUMP JUMPDEST PUSH1 0x40 MLOAD DUP1 SWAP2 SUB SWAP1 REVERT JUMPDEST PUSH1 0x7 SLOAD PUSH2 0x19C4 CALLVALUE DUP4 PUSH1 0x0 ADD SLOAD PUSH2 0x3479 SWAP1 SWAP2 SWAP1 PUSH4 0xFFFFFFFF AND JUMP JUMPDEST GT ISZERO PUSH2 0x1A05 JUMPI PUSH1 0x40 MLOAD PUSH32 0x8C379A000000000000000000000000000000000000000000000000000000000 DUP2 MSTORE PUSH1 0x4 ADD PUSH2 0x19FC SWAP1 PUSH2 0x425E JUMP JUMPDEST PUSH1 0x40 MLOAD DUP1 SWAP2 SUB SWAP1 REVERT JUMPDEST PUSH1 0x0 PUSH2 0x1A23 CALLVALUE PUSH2 0x1A1E CALLVALUE SELFBALANCE PUSH2 0x34A5 SWAP1 SWAP2 SWAP1 PUSH4 0xFFFFFFFF AND JUMP JUMPDEST PUSH2 0x143E JUMP JUMPDEST SWAP1 POP PUSH2 0x1A3C CALLVALUE DUP4 PUSH1 0x1 ADD SLOAD PUSH2 0x3479 SWAP1 SWAP2 SWAP1 PUSH4 0xFFFFFFFF AND JUMP JUMPDEST DUP3 PUSH1 0x1 ADD DUP2 SWAP1 SSTORE POP PUSH2 0x1A5B CALLVALUE DUP4 PUSH1 0x0 ADD SLOAD PUSH2 0x3479 SWAP1 SWAP2 SWAP1 PUSH4 0xFFFFFFFF AND JUMP JUMPDEST DUP3 PUSH1 0x0 ADD DUP2 SWAP1 SSTORE POP PUSH2 0x1A7A DUP2 DUP4 PUSH1 0x3 ADD SLOAD PUSH2 0x3479 SWAP1 SWAP2 SWAP1 PUSH4 0xFFFFFFFF AND JUMP JUMPDEST DUP3 PUSH1 0x3 ADD DUP2 SWAP1 SSTORE POP PUSH1 0x0 PUSH20 0xFFFFFFFFFFFFFFFFFFFFFFFFFFFFFFFFFFFFFFFF AND DUP3 PUSH1 0x5 ADD PUSH1 0x0 SWAP1 SLOAD SWAP1 PUSH2 0x100 EXP SWAP1 DIV PUSH20 0xFFFFFFFFFFFFFFFFFFFFFFFFFFFFFFFFFFFFFFFF AND PUSH20 0xFFFFFFFFFFFFFFFFFFFFFFFFFFFFFFFFFFFFFFFF AND EQ ISZERO PUSH2 0x1C58 JUMPI CALLER PUSH20 0xFFFFFFFFFFFFFFFFFFFFFFFFFFFFFFFFFFFFFFFF AND DUP4 PUSH20 0xFFFFFFFFFFFFFFFFFFFFFFFFFFFFFFFFFFFFFFFF AND EQ PUSH2 0x1B5C JUMPI DUP3 DUP3 PUSH1 0x5 ADD PUSH1 0x0 PUSH2 0x100 EXP DUP2 SLOAD DUP2 PUSH20 0xFFFFFFFFFFFFFFFFFFFFFFFFFFFFFFFFFFFFFFFF MUL NOT AND SWAP1 DUP4 PUSH20 0xFFFFFFFFFFFFFFFFFFFFFFFFFFFFFFFFFFFFFFFF AND MUL OR SWAP1 SSTORE POP PUSH2 0x1B5B CALLER CALLVALUE PUSH2 0x3530 JUMP JUMPDEST JUMPDEST PUSH1 0x0 DUP3 PUSH1 0x5 ADD PUSH1 0x0 SWAP1 SLOAD SWAP1 PUSH2 0x100 EXP SWAP1 DIV PUSH20 0xFFFFFFFFFFFFFFFFFFFFFFFFFFFFFFFFFFFFFFFF AND SWAP1 POP PUSH1 0x0 PUSH20 0xFFFFFFFFFFFFFFFFFFFFFFFFFFFFFFFFFFFFFFFF AND DUP2 PUSH20 0xFFFFFFFFFFFFFFFFFFFFFFFFFFFFFFFFFFFFFFFF AND EQ PUSH2 0x1C56 JUMPI PUSH2 0x1C0F PUSH1 0x1 PUSH1 0x20 PUSH1 0x0 DUP5 PUSH20 0xFFFFFFFFFFFFFFFFFFFFFFFFFFFFFFFFFFFFFFFF AND PUSH20 0xFFFFFFFFFFFFFFFFFFFFFFFFFFFFFFFFFFFFFFFF AND DUP2 MSTORE PUSH1 0x20 ADD SWAP1 DUP2 MSTORE PUSH1 0x20 ADD PUSH1 0x0 KECCAK256 PUSH1 0x6 ADD SLOAD PUSH2 0x3479 SWAP1 SWAP2 SWAP1 PUSH4 0xFFFFFFFF AND JUMP JUMPDEST PUSH1 0x20 PUSH1 0x0 DUP4 PUSH20 0xFFFFFFFFFFFFFFFFFFFFFFFFFFFFFFFFFFFFFFFF AND PUSH20 0xFFFFFFFFFFFFFFFFFFFFFFFFFFFFFFFFFFFFFFFF AND DUP2 MSTORE PUSH1 0x20 ADD SWAP1 DUP2 MSTORE PUSH1 0x20 ADD PUSH1 0x0 KECCAK256 PUSH1 0x6 ADD DUP2 SWAP1 SSTORE POP JUMPDEST POP JUMPDEST PUSH1 0x0 PUSH20 0xFFFFFFFFFFFFFFFFFFFFFFFFFFFFFFFFFFFFFFFF AND DUP3 PUSH1 0x5 ADD PUSH1 0x0 SWAP1 SLOAD SWAP1 PUSH2 0x100 EXP SWAP1 DIV PUSH20 0xFFFFFFFFFFFFFFFFFFFFFFFFFFFFFFFFFFFFFFFF AND PUSH20 0xFFFFFFFFFFFFFFFFFFFFFFFFFFFFFFFFFFFFFFFF AND EQ PUSH2 0x1E3B JUMPI PUSH1 0x0 DUP3 PUSH1 0x5 ADD PUSH1 0x0 SWAP1 SLOAD SWAP1 PUSH2 0x100 EXP SWAP1 DIV PUSH20 0xFFFFFFFFFFFFFFFFFFFFFFFFFFFFFFFFFFFFFFFF AND SWAP1 POP PUSH1 0x0 PUSH20 0xFFFFFFFFFFFFFFFFFFFFFFFFFFFFFFFFFFFFFFFF AND DUP2 PUSH20 0xFFFFFFFFFFFFFFFFFFFFFFFFFFFFFFFFFFFFFFFF AND EQ PUSH2 0x1E39 JUMPI PUSH1 0x0 PUSH2 0x1D38 PUSH1 0x2 SLOAD PUSH2 0x1D2A PUSH1 0x1 SLOAD CALLVALUE PUSH2 0x34E7 SWAP1 SWAP2 SWAP1 PUSH4 0xFFFFFFFF AND JUMP JUMPDEST PUSH2 0x34CC SWAP1 SWAP2 SWAP1 PUSH4 0xFFFFFFFF AND JUMP JUMPDEST SWAP1 POP DUP2 PUSH20 0xFFFFFFFFFFFFFFFFFFFFFFFFFFFFFFFFFFFFFFFF AND PUSH2 0x8FC DUP3 SWAP1 DUP2 ISZERO MUL SWAP1 PUSH1 0x40 MLOAD PUSH1 0x0 PUSH1 0x40 MLOAD DUP1 DUP4 SUB DUP2 DUP6 DUP9 DUP9 CALL SWAP4 POP POP POP POP ISZERO DUP1 ISZERO PUSH2 0x1D80 JUMPI RETURNDATASIZE PUSH1 0x0 DUP1 RETURNDATACOPY RETURNDATASIZE PUSH1 0x0 REVERT JUMPDEST POP PUSH2 0x1DD6 DUP2 PUSH1 0x20 PUSH1 0x0 DUP6 PUSH20 0xFFFFFFFFFFFFFFFFFFFFFFFFFFFFFFFFFFFFFFFF AND PUSH20 0xFFFFFFFFFFFFFFFFFFFFFFFFFFFFFFFFFFFFFFFF AND DUP2 MSTORE PUSH1 0x20 ADD SWAP1 DUP2 MSTORE PUSH1 0x20 ADD PUSH1 0x0 KECCAK256 PUSH1 0x7 ADD SLOAD PUSH2 0x3479 SWAP1 SWAP2 SWAP1 PUSH4 0xFFFFFFFF AND JUMP JUMPDEST PUSH1 0x20 PUSH1 0x0 DUP5 PUSH20 0xFFFFFFFFFFFFFFFFFFFFFFFFFFFFFFFFFFFFFFFF AND PUSH20 0xFFFFFFFFFFFFFFFFFFFFFFFFFFFFFFFFFFFFFFFF AND DUP2 MSTORE PUSH1 0x20 ADD SWAP1 DUP2 MSTORE PUSH1 0x20 ADD PUSH1 0x0 KECCAK256 PUSH1 0x7 ADD DUP2 SWAP1 SSTORE POP PUSH2 0x1E31 DUP2 PUSH1 0x10 SLOAD PUSH2 0x3479 SWAP1 SWAP2 SWAP1 PUSH4 0xFFFFFFFF AND JUMP JUMPDEST PUSH1 0x10 DUP2 SWAP1 SSTORE POP POP JUMPDEST POP JUMPDEST PUSH1 0x0 PUSH2 0x1E46 CALLVALUE PUSH2 0x3798 JUMP JUMPDEST SWAP1 POP PUSH2 0x1E6F PUSH2 0x1E5E DUP3 CALLVALUE PUSH2 0x34A5 SWAP1 SWAP2 SWAP1 PUSH4 0xFFFFFFFF AND JUMP JUMPDEST PUSH1 0xD SLOAD PUSH2 0x3479 SWAP1 SWAP2 SWAP1 PUSH4 0xFFFFFFFF AND JUMP JUMPDEST PUSH1 0xD DUP2 SWAP1 SSTORE POP PUSH2 0x1E8B PUSH1 0x1 PUSH1 0xE SLOAD PUSH2 0x3479 SWAP1 SWAP2 SWAP1 PUSH4 0xFFFFFFFF AND JUMP JUMPDEST PUSH1 0xE DUP2 SWAP1 SSTORE POP PUSH2 0x1E9B PUSH1 0x0 PUSH2 0x1117 JUMP JUMPDEST POP POP POP POP JUMP JUMPDEST PUSH1 0x19 PUSH1 0x0 SWAP1 SLOAD SWAP1 PUSH2 0x100 EXP SWAP1 DIV PUSH20 0xFFFFFFFFFFFFFFFFFFFFFFFFFFFFFFFFFFFFFFFF AND PUSH20 0xFFFFFFFFFFFFFFFFFFFFFFFFFFFFFFFFFFFFFFFF AND CALLER PUSH20 0xFFFFFFFFFFFFFFFFFFFFFFFFFFFFFFFFFFFFFFFF AND EQ PUSH2 0x1F31 JUMPI PUSH1 0x40 MLOAD PUSH32 0x8C379A000000000000000000000000000000000000000000000000000000000 DUP2 MSTORE PUSH1 0x4 ADD PUSH2 0x1F28 SWAP1 PUSH2 0x4091 JUMP JUMPDEST PUSH1 0x40 MLOAD DUP1 SWAP2 SUB SWAP1 REVERT JUMPDEST PUSH1 0xA DUP2 LT ISZERO DUP1 ISZERO PUSH2 0x1F43 JUMPI POP PUSH1 0x64 DUP2 GT ISZERO JUMPDEST PUSH2 0x1F4C JUMPI PUSH1 0x0 DUP1 REVERT JUMPDEST DUP1 PUSH1 0x1 DUP2 SWAP1 SSTORE POP POP JUMP JUMPDEST PUSH1 0x15 PUSH1 0x0 SWAP1 SLOAD SWAP1 PUSH2 0x100 EXP SWAP1 DIV PUSH1 0xFF AND PUSH2 0x1FA5 JUMPI PUSH1 0x40 MLOAD PUSH32 0x8C379A000000000000000000000000000000000000000000000000000000000 DUP2 MSTORE PUSH1 0x4 ADD PUSH2 0x1F9C SWAP1 PUSH2 0x4025 JUMP JUMPDEST PUSH1 0x40 MLOAD DUP1 SWAP2 SUB SWAP1 REVERT JUMPDEST PUSH1 0x15 PUSH1 0x1 SWAP1 SLOAD SWAP1 PUSH2 0x100 EXP SWAP1 DIV PUSH1 0xFF AND ISZERO PUSH2 0x2048 JUMPI PUSH1 0x16 PUSH1 0x0 CALLER PUSH20 0xFFFFFFFFFFFFFFFFFFFFFFFFFFFFFFFFFFFFFFFF AND PUSH20 0xFFFFFFFFFFFFFFFFFFFFFFFFFFFFFFFFFFFFFFFF AND DUP2 MSTORE PUSH1 0x20 ADD SWAP1 DUP2 MSTORE PUSH1 0x20 ADD PUSH1 0x0 KECCAK256 PUSH1 0x0 SWAP1 SLOAD SWAP1 PUSH2 0x100 EXP SWAP1 DIV PUSH1 0xFF AND ISZERO PUSH2 0x2047 JUMPI PUSH1 0x40 MLOAD PUSH32 0x8C379A000000000000000000000000000000000000000000000000000000000 DUP2 MSTORE PUSH1 0x4 ADD PUSH2 0x203E SWAP1 PUSH2 0x42CA JUMP JUMPDEST PUSH1 0x40 MLOAD DUP1 SWAP2 SUB SWAP1 REVERT JUMPDEST JUMPDEST PUSH1 0x0 PUSH1 0x20 PUSH1 0x0 CALLER PUSH20 0xFFFFFFFFFFFFFFFFFFFFFFFFFFFFFFFFFFFFFFFF AND PUSH20 0xFFFFFFFFFFFFFFFFFFFFFFFFFFFFFFFFFFFFFFFF AND DUP2 MSTORE PUSH1 0x20 ADD SWAP1 DUP2 MSTORE PUSH1 0x20 ADD PUSH1 0x0 KECCAK256 SWAP1 POP PUSH1 0x0 PUSH2 0x2095 PUSH2 0x15F6 JUMP JUMPDEST SWAP1 POP PUSH1 0x0 PUSH2 0x20A2 DUP3 PUSH2 0x29AA JUMP JUMPDEST SWAP1 POP PUSH1 0xC SLOAD DUP4 PUSH1 0x9 ADD SLOAD LT ISZERO PUSH2 0x20F4 JUMPI PUSH2 0x20ED PUSH2 0x20DE PUSH1 0x2 SLOAD PUSH2 0x20D0 PUSH1 0xB SLOAD DUP6 PUSH2 0x34E7 SWAP1 SWAP2 SWAP1 PUSH4 0xFFFFFFFF AND JUMP JUMPDEST PUSH2 0x34CC SWAP1 SWAP2 SWAP1 PUSH4 0xFFFFFFFF AND JUMP JUMPDEST DUP3 PUSH2 0x34A5 SWAP1 SWAP2 SWAP1 PUSH4 0xFFFFFFFF AND JUMP JUMPDEST SWAP1 POP PUSH2 0x2109 JUMP JUMPDEST PUSH1 0x0 DUP4 PUSH1 0x9 ADD DUP2 SWAP1 SSTORE POP PUSH1 0x0 DUP4 PUSH1 0xA ADD DUP2 SWAP1 SSTORE POP JUMPDEST TIMESTAMP DUP4 PUSH1 0xB ADD DUP2 SWAP1 SSTORE POP PUSH1 0x0 DUP4 PUSH1 0x3 ADD DUP2 SWAP1 SSTORE POP TIMESTAMP DUP4 PUSH1 0x4 ADD DUP2 SWAP1 SSTORE POP PUSH2 0x214E PUSH2 0x213D PUSH1 0x5 SLOAD DUP5 PUSH2 0x34CC SWAP1 SWAP2 SWAP1 PUSH4 0xFFFFFFFF AND JUMP JUMPDEST PUSH1 0x12 SLOAD PUSH2 0x3479 SWAP1 SWAP2 SWAP1 PUSH4 0xFFFFFFFF AND JUMP JUMPDEST PUSH1 0x12 DUP2 SWAP1 SSTORE POP DUP1 PUSH2 0x215D PUSH2 0x1109 JUMP JUMPDEST LT ISZERO PUSH2 0x216E JUMPI PUSH2 0x216B PUSH2 0x1109 JUMP JUMPDEST SWAP1 POP JUMPDEST PUSH1 0x0 PUSH2 0x218B PUSH2 0x217C DUP4 PUSH2 0x3798 JUMP JUMPDEST DUP4 PUSH2 0x34A5 SWAP1 SWAP2 SWAP1 PUSH4 0xFFFFFFFF AND JUMP JUMPDEST SWAP1 POP CALLER PUSH20 0xFFFFFFFFFFFFFFFFFFFFFFFFFFFFFFFFFFFFFFFF AND PUSH2 0x8FC DUP3 SWAP1 DUP2 ISZERO MUL SWAP1 PUSH1 0x40 MLOAD PUSH1 0x0 PUSH1 0x40 MLOAD DUP1 DUP4 SUB DUP2 DUP6 DUP9 DUP9 CALL SWAP4 POP POP POP POP ISZERO DUP1 ISZERO PUSH2 0x21D3 JUMPI RETURNDATASIZE PUSH1 0x0 DUP1 RETURNDATACOPY RETURNDATASIZE PUSH1 0x0 REVERT JUMPDEST POP PUSH2 0x21EB DUP2 DUP6 PUSH1 0x8 ADD SLOAD PUSH2 0x3479 SWAP1 SWAP2 SWAP1 PUSH4 0xFFFFFFFF AND JUMP JUMPDEST DUP5 PUSH1 0x8 ADD DUP2 SWAP1 SSTORE POP PUSH2 0x2208 DUP2 PUSH1 0x11 SLOAD PUSH2 0x3479 SWAP1 SWAP2 SWAP1 PUSH4 0xFFFFFFFF AND JUMP JUMPDEST PUSH1 0x11 DUP2 SWAP1 SSTORE POP POP POP POP POP JUMP JUMPDEST PUSH1 0x5 SLOAD DUP2 JUMP JUMPDEST PUSH1 0x0 DUP1 PUSH1 0x0 DUP1 PUSH1 0x0 DUP1 PUSH1 0x0 DUP1 PUSH1 0x0 DUP1 PUSH1 0x0 DUP1 PUSH1 0x20 PUSH1 0x0 DUP15 PUSH20 0xFFFFFFFFFFFFFFFFFFFFFFFFFFFFFFFFFFFFFFFF AND PUSH20 0xFFFFFFFFFFFFFFFFFFFFFFFFFFFFFFFFFFFFFFFF AND DUP2 MSTORE PUSH1 0x20 ADD SWAP1 DUP2 MSTORE PUSH1 0x20 ADD PUSH1 0x0 KECCAK256 PUSH1 0x0 ADD SLOAD SWAP12 POP PUSH1 0x20 PUSH1 0x0 DUP15 PUSH20 0xFFFFFFFFFFFFFFFFFFFFFFFFFFFFFFFFFFFFFFFF AND PUSH20 0xFFFFFFFFFFFFFFFFFFFFFFFFFFFFFFFFFFFFFFFF AND DUP2 MSTORE PUSH1 0x20 ADD SWAP1 DUP2 MSTORE PUSH1 0x20 ADD PUSH1 0x0 KECCAK256 PUSH1 0x1 ADD SLOAD SWAP11 POP PUSH1 0x20 PUSH1 0x0 DUP15 PUSH20 0xFFFFFFFFFFFFFFFFFFFFFFFFFFFFFFFFFFFFFFFF AND PUSH20 0xFFFFFFFFFFFFFFFFFFFFFFFFFFFFFFFFFFFFFFFF AND DUP2 MSTORE PUSH1 0x20 ADD SWAP1 DUP2 MSTORE PUSH1 0x20 ADD PUSH1 0x0 KECCAK256 PUSH1 0x2 ADD SLOAD SWAP10 POP PUSH1 0x20 PUSH1 0x0 DUP15 PUSH20 0xFFFFFFFFFFFFFFFFFFFFFFFFFFFFFFFFFFFFFFFF AND PUSH20 0xFFFFFFFFFFFFFFFFFFFFFFFFFFFFFFFFFFFFFFFF AND DUP2 MSTORE PUSH1 0x20 ADD SWAP1 DUP2 MSTORE PUSH1 0x20 ADD PUSH1 0x0 KECCAK256 PUSH1 0x3 ADD SLOAD SWAP9 POP PUSH1 0x20 PUSH1 0x0 DUP15 PUSH20 0xFFFFFFFFFFFFFFFFFFFFFFFFFFFFFFFFFFFFFFFF AND PUSH20 0xFFFFFFFFFFFFFFFFFFFFFFFFFFFFFFFFFFFFFFFF AND DUP2 MSTORE PUSH1 0x20 ADD SWAP1 DUP2 MSTORE PUSH1 0x20 ADD PUSH1 0x0 KECCAK256 PUSH1 0x4 ADD SLOAD SWAP8 POP PUSH1 0x20 PUSH1 0x0 DUP15 PUSH20 0xFFFFFFFFFFFFFFFFFFFFFFFFFFFFFFFFFFFFFFFF AND PUSH20 0xFFFFFFFFFFFFFFFFFFFFFFFFFFFFFFFFFFFFFFFF AND DUP2 MSTORE PUSH1 0x20 ADD SWAP1 DUP2 MSTORE PUSH1 0x20 ADD PUSH1 0x0 KECCAK256 PUSH1 0x5 ADD PUSH1 0x0 SWAP1 SLOAD SWAP1 PUSH2 0x100 EXP SWAP1 DIV PUSH20 0xFFFFFFFFFFFFFFFFFFFFFFFFFFFFFFFFFFFFFFFF AND SWAP7 POP PUSH1 0x20 PUSH1 0x0 DUP15 PUSH20 0xFFFFFFFFFFFFFFFFFFFFFFFFFFFFFFFFFFFFFFFF AND PUSH20 0xFFFFFFFFFFFFFFFFFFFFFFFFFFFFFFFFFFFFFFFF AND DUP2 MSTORE PUSH1 0x20 ADD SWAP1 DUP2 MSTORE PUSH1 0x20 ADD PUSH1 0x0 KECCAK256 PUSH1 0x6 ADD SLOAD SWAP6 POP PUSH1 0x20 PUSH1 0x0 DUP15 PUSH20 0xFFFFFFFFFFFFFFFFFFFFFFFFFFFFFFFFFFFFFFFF AND PUSH20 0xFFFFFFFFFFFFFFFFFFFFFFFFFFFFFFFFFFFFFFFF AND DUP2 MSTORE PUSH1 0x20 ADD SWAP1 DUP2 MSTORE PUSH1 0x20 ADD PUSH1 0x0 KECCAK256 PUSH1 0x8 ADD SLOAD SWAP5 POP PUSH1 0x20 PUSH1 0x0 DUP15 PUSH20 0xFFFFFFFFFFFFFFFFFFFFFFFFFFFFFFFFFFFFFFFF AND PUSH20 0xFFFFFFFFFFFFFFFFFFFFFFFFFFFFFFFFFFFFFFFF AND DUP2 MSTORE PUSH1 0x20 ADD SWAP1 DUP2 MSTORE PUSH1 0x20 ADD PUSH1 0x0 KECCAK256 PUSH1 0x7 ADD SLOAD SWAP4 POP PUSH1 0x20 PUSH1 0x0 DUP15 PUSH20 0xFFFFFFFFFFFFFFFFFFFFFFFFFFFFFFFFFFFFFFFF AND PUSH20 0xFFFFFFFFFFFFFFFFFFFFFFFFFFFFFFFFFFFFFFFF AND DUP2 MSTORE PUSH1 0x20 ADD SWAP1 DUP2 MSTORE PUSH1 0x20 ADD PUSH1 0x0 KECCAK256 PUSH1 0x9 ADD SLOAD SWAP3 POP PUSH1 0x20 PUSH1 0x0 DUP15 PUSH20 0xFFFFFFFFFFFFFFFFFFFFFFFFFFFFFFFFFFFFFFFF AND PUSH20 0xFFFFFFFFFFFFFFFFFFFFFFFFFFFFFFFFFFFFFFFF AND DUP2 MSTORE PUSH1 0x20 ADD SWAP1 DUP2 MSTORE PUSH1 0x20 ADD PUSH1 0x0 KECCAK256 PUSH1 0xA ADD SLOAD SWAP2 POP PUSH1 0x20 PUSH1 0x0 DUP15 PUSH20 0xFFFFFFFFFFFFFFFFFFFFFFFFFFFFFFFFFFFFFFFF AND PUSH20 0xFFFFFFFFFFFFFFFFFFFFFFFFFFFFFFFFFFFFFFFF AND DUP2 MSTORE PUSH1 0x20 ADD SWAP1 DUP2 MSTORE PUSH1 0x20 ADD PUSH1 0x0 KECCAK256 PUSH1 0xB ADD SLOAD SWAP1 POP SWAP2 SWAP4 SWAP6 SWAP8 SWAP10 SWAP12 POP SWAP2 SWAP4 SWAP6 SWAP8 SWAP10 SWAP12 JUMP JUMPDEST PUSH1 0x0 DUP1 PUSH2 0x25F7 PUSH2 0x25A6 DUP5 PUSH2 0x2F04 JUMP JUMPDEST PUSH1 0x20 PUSH1 0x0 DUP7 PUSH20 0xFFFFFFFFFFFFFFFFFFFFFFFFFFFFFFFFFFFFFFFF AND PUSH20 0xFFFFFFFFFFFFFFFFFFFFFFFFFFFFFFFFFFFFFFFF AND DUP2 MSTORE PUSH1 0x20 ADD SWAP1 DUP2 MSTORE PUSH1 0x20 ADD PUSH1 0x0 KECCAK256 PUSH1 0x3 ADD SLOAD PUSH2 0x3479 SWAP1 SWAP2 SWAP1 PUSH4 0xFFFFFFFF AND JUMP JUMPDEST SWAP1 POP PUSH2 0x2602 DUP2 PUSH2 0x29AA JUMP JUMPDEST SWAP2 POP POP SWAP2 SWAP1 POP JUMP JUMPDEST PUSH1 0x3 SLOAD DUP2 JUMP JUMPDEST PUSH1 0x10 SLOAD DUP2 JUMP JUMPDEST PUSH1 0x19 PUSH1 0x0 SWAP1 SLOAD SWAP1 PUSH2 0x100 EXP SWAP1 DIV PUSH20 0xFFFFFFFFFFFFFFFFFFFFFFFFFFFFFFFFFFFFFFFF AND PUSH20 0xFFFFFFFFFFFFFFFFFFFFFFFFFFFFFFFFFFFFFFFF AND CALLER PUSH20 0xFFFFFFFFFFFFFFFFFFFFFFFFFFFFFFFFFFFFFFFF AND EQ PUSH2 0x26A6 JUMPI PUSH1 0x40 MLOAD PUSH32 0x8C379A000000000000000000000000000000000000000000000000000000000 DUP2 MSTORE PUSH1 0x4 ADD PUSH2 0x269D SWAP1 PUSH2 0x4091 JUMP JUMPDEST PUSH1 0x40 MLOAD DUP1 SWAP2 SUB SWAP1 REVERT JUMPDEST PUSH1 0xA DUP2 LT ISZERO DUP1 ISZERO PUSH2 0x26B9 JUMPI POP PUSH2 0x384 DUP2 GT ISZERO JUMPDEST PUSH2 0x26C2 JUMPI PUSH1 0x0 DUP1 REVERT JUMPDEST DUP1 PUSH1 0x8 DUP2 SWAP1 SSTORE POP POP JUMP JUMPDEST PUSH1 0xA SLOAD DUP2 JUMP JUMPDEST PUSH1 0x19 PUSH1 0x0 SWAP1 SLOAD SWAP1 PUSH2 0x100 EXP SWAP1 DIV PUSH20 0xFFFFFFFFFFFFFFFFFFFFFFFFFFFFFFFFFFFFFFFF AND PUSH20 0xFFFFFFFFFFFFFFFFFFFFFFFFFFFFFFFFFFFFFFFF AND CALLER PUSH20 0xFFFFFFFFFFFFFFFFFFFFFFFFFFFFFFFFFFFFFFFF AND EQ PUSH2 0x2762 JUMPI PUSH1 0x40 MLOAD PUSH32 0x8C379A000000000000000000000000000000000000000000000000000000000 DUP2 MSTORE PUSH1 0x4 ADD PUSH2 0x2759 SWAP1 PUSH2 0x4091 JUMP JUMPDEST PUSH1 0x40 MLOAD DUP1 SWAP2 SUB SWAP1 REVERT JUMPDEST PUSH1 0x32 DUP2 GT ISZERO PUSH2 0x2770 JUMPI PUSH1 0x0 DUP1 REVERT JUMPDEST DUP1 PUSH1 0x5 DUP2 SWAP1 SSTORE POP POP JUMP JUMPDEST PUSH1 0x19 PUSH1 0x0 SWAP1 SLOAD SWAP1 PUSH2 0x100 EXP SWAP1 DIV PUSH20 0xFFFFFFFFFFFFFFFFFFFFFFFFFFFFFFFFFFFFFFFF AND PUSH20 0xFFFFFFFFFFFFFFFFFFFFFFFFFFFFFFFFFFFFFFFF AND CALLER PUSH20 0xFFFFFFFFFFFFFFFFFFFFFFFFFFFFFFFFFFFFFFFF AND EQ PUSH2 0x280A JUMPI PUSH1 0x40 MLOAD PUSH32 0x8C379A000000000000000000000000000000000000000000000000000000000 DUP2 MSTORE PUSH1 0x4 ADD PUSH2 0x2801 SWAP1 PUSH2 0x40FD JUMP JUMPDEST PUSH1 0x40 MLOAD DUP1 SWAP2 SUB SWAP1 REVERT JUMPDEST PUSH1 0x3C DUP1 DUP3 PUSH2 0x2818 SWAP2 SWAP1 PUSH2 0x414C JUMP JUMPDEST PUSH2 0x2822 SWAP2 SWAP1 PUSH2 0x414C JUMP JUMPDEST PUSH1 0x17 DUP2 SWAP1 SSTORE POP POP JUMP JUMPDEST PUSH1 0x1F PUSH1 0x0 SWAP1 SLOAD SWAP1 PUSH2 0x100 EXP SWAP1 DIV PUSH20 0xFFFFFFFFFFFFFFFFFFFFFFFFFFFFFFFFFFFFFFFF AND DUP2 JUMP JUMPDEST PUSH1 0xE SLOAD DUP2 JUMP JUMPDEST PUSH1 0xF SLOAD DUP2 JUMP JUMPDEST PUSH1 0x0 PUSH2 0x2870 DUP3 PUSH2 0x286B PUSH2 0x1109 JUMP JUMPDEST PUSH2 0x143E JUMP JUMPDEST SWAP1 POP SWAP2 SWAP1 POP JUMP JUMPDEST PUSH1 0x19 PUSH1 0x0 SWAP1 SLOAD SWAP1 PUSH2 0x100 EXP SWAP1 DIV PUSH20 0xFFFFFFFFFFFFFFFFFFFFFFFFFFFFFFFFFFFFFFFF AND PUSH20 0xFFFFFFFFFFFFFFFFFFFFFFFFFFFFFFFFFFFFFFFF AND CALLER PUSH20 0xFFFFFFFFFFFFFFFFFFFFFFFFFFFFFFFFFFFFFFFF AND EQ PUSH2 0x2907 JUMPI PUSH1 0x40 MLOAD PUSH32 0x8C379A000000000000000000000000000000000000000000000000000000000 DUP2 MSTORE PUSH1 0x4 ADD PUSH2 0x28FE SWAP1 PUSH2 0x40FD JUMP JUMPDEST PUSH1 0x40 MLOAD DUP1 SWAP2 SUB SWAP1 REVERT JUMPDEST PUSH1 0xA DUP2 LT ISZERO PUSH2 0x2915 JUMPI PUSH1 0x0 DUP1 REVERT JUMPDEST PUSH8 0xDE0B6B3A7640000 DUP2 PUSH2 0x2929 SWAP2 SWAP1 PUSH2 0x414C JUMP JUMPDEST PUSH1 0x7 DUP2 SWAP1 SSTORE POP POP JUMP JUMPDEST PUSH1 0x1B PUSH1 0x0 SWAP1 SLOAD SWAP1 PUSH2 0x100 EXP SWAP1 DIV PUSH20 0xFFFFFFFFFFFFFFFFFFFFFFFFFFFFFFFFFFFFFFFF AND DUP2 JUMP JUMPDEST PUSH1 0xD SLOAD DUP2 JUMP JUMPDEST PUSH1 0x1E PUSH1 0x0 SWAP1 SLOAD SWAP1 PUSH2 0x100 EXP SWAP1 DIV PUSH20 0xFFFFFFFFFFFFFFFFFFFFFFFFFFFFFFFFFFFFFFFF AND DUP2 JUMP JUMPDEST PUSH1 0x19 PUSH1 0x0 SWAP1 SLOAD SWAP1 PUSH2 0x100 EXP SWAP1 DIV PUSH20 0xFFFFFFFFFFFFFFFFFFFFFFFFFFFFFFFFFFFFFFFF AND DUP2 JUMP JUMPDEST PUSH1 0x0 PUSH2 0x29C0 DUP3 PUSH1 0x12 SLOAD PUSH2 0x29BB PUSH2 0x1109 JUMP JUMPDEST PUSH2 0x13C5 JUMP JUMPDEST SWAP1 POP SWAP2 SWAP1 POP JUMP JUMPDEST PUSH1 0x18 SLOAD DUP2 JUMP JUMPDEST PUSH1 0x19 PUSH1 0x0 SWAP1 SLOAD SWAP1 PUSH2 0x100 EXP SWAP1 DIV PUSH20 0xFFFFFFFFFFFFFFFFFFFFFFFFFFFFFFFFFFFFFFFF AND PUSH20 0xFFFFFFFFFFFFFFFFFFFFFFFFFFFFFFFFFFFFFFFF AND CALLER PUSH20 0xFFFFFFFFFFFFFFFFFFFFFFFFFFFFFFFFFFFFFFFF AND EQ PUSH2 0x2A5D JUMPI PUSH1 0x40 MLOAD PUSH32 0x8C379A000000000000000000000000000000000000000000000000000000000 DUP2 MSTORE PUSH1 0x4 ADD PUSH2 0x2A54 SWAP1 PUSH2 0x4091 JUMP JUMPDEST PUSH1 0x40 MLOAD DUP1 SWAP2 SUB SWAP1 REVERT JUMPDEST PUSH1 0x18 DUP2 GT ISZERO PUSH2 0x2A6B JUMPI PUSH1 0x0 DUP1 REVERT JUMPDEST PUSH1 0x3C DUP1 DUP3 PUSH2 0x2A79 SWAP2 SWAP1 PUSH2 0x414C JUMP JUMPDEST PUSH2 0x2A83 SWAP2 SWAP1 PUSH2 0x414C JUMP JUMPDEST PUSH1 0xA DUP2 SWAP1 SSTORE POP POP JUMP JUMPDEST PUSH1 0x19 PUSH1 0x0 SWAP1 SLOAD SWAP1 PUSH2 0x100 EXP SWAP1 DIV PUSH20 0xFFFFFFFFFFFFFFFFFFFFFFFFFFFFFFFFFFFFFFFF AND PUSH20 0xFFFFFFFFFFFFFFFFFFFFFFFFFFFFFFFFFFFFFFFF AND CALLER PUSH20 0xFFFFFFFFFFFFFFFFFFFFFFFFFFFFFFFFFFFFFFFF AND EQ PUSH2 0x2B1C JUMPI PUSH1 0x40 MLOAD PUSH32 0x8C379A000000000000000000000000000000000000000000000000000000000 DUP2 MSTORE PUSH1 0x4 ADD PUSH2 0x2B13 SWAP1 PUSH2 0x4091 JUMP JUMPDEST PUSH1 0x40 MLOAD DUP1 SWAP2 SUB SWAP1 REVERT JUMPDEST PUSH1 0x1E DUP2 GT ISZERO PUSH2 0x2B2A JUMPI PUSH1 0x0 DUP1 REVERT JUMPDEST DUP1 PUSH1 0x9 DUP2 SWAP1 SSTORE POP POP JUMP JUMPDEST PUSH1 0x19 PUSH1 0x0 SWAP1 SLOAD SWAP1 PUSH2 0x100 EXP SWAP1 DIV PUSH20 0xFFFFFFFFFFFFFFFFFFFFFFFFFFFFFFFFFFFFFFFF AND PUSH20 0xFFFFFFFFFFFFFFFFFFFFFFFFFFFFFFFFFFFFFFFF AND CALLER PUSH20 0xFFFFFFFFFFFFFFFFFFFFFFFFFFFFFFFFFFFFFFFF AND EQ PUSH2 0x2BC4 JUMPI PUSH1 0x40 MLOAD PUSH32 0x8C379A000000000000000000000000000000000000000000000000000000000 DUP2 MSTORE PUSH1 0x4 ADD PUSH2 0x2BBB SWAP1 PUSH2 0x4091 JUMP JUMPDEST PUSH1 0x40 MLOAD DUP1 SWAP2 SUB SWAP1 REVERT JUMPDEST DUP1 PUSH1 0x15 PUSH1 0x1 PUSH2 0x100 EXP DUP2 SLOAD DUP2 PUSH1 0xFF MUL NOT AND SWAP1 DUP4 ISZERO ISZERO MUL OR SWAP1 SSTORE POP POP JUMP JUMPDEST PUSH1 0x1A PUSH1 0x0 SWAP1 SLOAD SWAP1 PUSH2 0x100 EXP SWAP1 DIV PUSH20 0xFFFFFFFFFFFFFFFFFFFFFFFFFFFFFFFFFFFFFFFF AND DUP2 JUMP JUMPDEST PUSH1 0x20 DUP1 MSTORE DUP1 PUSH1 0x0 MSTORE PUSH1 0x40 PUSH1 0x0 KECCAK256 PUSH1 0x0 SWAP2 POP SWAP1 POP DUP1 PUSH1 0x0 ADD SLOAD SWAP1 DUP1 PUSH1 0x1 ADD SLOAD SWAP1 DUP1 PUSH1 0x2 ADD SLOAD SWAP1 DUP1 PUSH1 0x3 ADD SLOAD SWAP1 DUP1 PUSH1 0x4 ADD SLOAD SWAP1 DUP1 PUSH1 0x5 ADD PUSH1 0x0 SWAP1 SLOAD SWAP1 PUSH2 0x100 EXP SWAP1 DIV PUSH20 0xFFFFFFFFFFFFFFFFFFFFFFFFFFFFFFFFFFFFFFFF AND SWAP1 DUP1 PUSH1 0x6 ADD SLOAD SWAP1 DUP1 PUSH1 0x7 ADD SLOAD SWAP1 DUP1 PUSH1 0x8 ADD SLOAD SWAP1 DUP1 PUSH1 0x9 ADD SLOAD SWAP1 DUP1 PUSH1 0xA ADD SLOAD SWAP1 DUP1 PUSH1 0xB ADD SLOAD SWAP1 POP DUP13 JUMP JUMPDEST PUSH1 0x15 PUSH1 0x1 SWAP1 SLOAD SWAP1 PUSH2 0x100 EXP SWAP1 DIV PUSH1 0xFF AND DUP2 JUMP JUMPDEST JUMP JUMPDEST PUSH1 0x0 DUP1 PUSH1 0x0 PUSH2 0x2CD5 DUP5 PUSH2 0x2CD0 DUP7 PUSH2 0x2CC2 DUP9 PUSH2 0x2CB4 PUSH2 0x1109 JUMP JUMPDEST PUSH2 0x3479 SWAP1 SWAP2 SWAP1 PUSH4 0xFFFFFFFF AND JUMP JUMPDEST PUSH2 0x34A5 SWAP1 SWAP2 SWAP1 PUSH4 0xFFFFFFFF AND JUMP JUMPDEST PUSH2 0x143E JUMP JUMPDEST SWAP1 POP PUSH1 0x0 PUSH2 0x2CEE PUSH1 0x0 SLOAD DUP4 PUSH2 0x34CC SWAP1 SWAP2 SWAP1 PUSH4 0xFFFFFFFF AND JUMP JUMPDEST SWAP1 POP PUSH1 0x0 PUSH3 0x15180 SWAP1 POP PUSH1 0x0 PUSH2 0x2D0D DUP4 DUP4 PUSH2 0x34E7 SWAP1 SWAP2 SWAP1 PUSH4 0xFFFFFFFF AND JUMP JUMPDEST SWAP1 POP PUSH1 0x0 PUSH2 0x2D1B DUP3 DUP10 PUSH2 0x2EC8 JUMP JUMPDEST SWAP1 POP DUP4 DUP2 SWAP7 POP SWAP7 POP POP POP POP POP POP SWAP2 POP SWAP2 JUMP JUMPDEST PUSH1 0x19 PUSH1 0x0 SWAP1 SLOAD SWAP1 PUSH2 0x100 EXP SWAP1 DIV PUSH20 0xFFFFFFFFFFFFFFFFFFFFFFFFFFFFFFFFFFFFFFFF AND PUSH20 0xFFFFFFFFFFFFFFFFFFFFFFFFFFFFFFFFFFFFFFFF AND CALLER PUSH20 0xFFFFFFFFFFFFFFFFFFFFFFFFFFFFFFFFFFFFFFFF AND EQ PUSH2 0x2DBD JUMPI PUSH1 0x40 MLOAD PUSH32 0x8C379A000000000000000000000000000000000000000000000000000000000 DUP2 MSTORE PUSH1 0x4 ADD PUSH2 0x2DB4 SWAP1 PUSH2 0x4091 JUMP JUMPDEST PUSH1 0x40 MLOAD DUP1 SWAP2 SUB SWAP1 REVERT JUMPDEST PUSH2 0x384 DUP2 GT ISZERO PUSH2 0x2DCC JUMPI PUSH1 0x0 DUP1 REVERT JUMPDEST DUP1 PUSH1 0xB DUP2 SWAP1 SSTORE POP POP JUMP JUMPDEST PUSH1 0x0 PUSH1 0x19 PUSH1 0x0 SWAP1 SLOAD SWAP1 PUSH2 0x100 EXP SWAP1 DIV PUSH20 0xFFFFFFFFFFFFFFFFFFFFFFFFFFFFFFFFFFFFFFFF AND PUSH20 0xFFFFFFFFFFFFFFFFFFFFFFFFFFFFFFFFFFFFFFFF AND CALLER PUSH20 0xFFFFFFFFFFFFFFFFFFFFFFFFFFFFFFFFFFFFFFFF AND EQ PUSH2 0x2E68 JUMPI PUSH1 0x40 MLOAD PUSH32 0x8C379A000000000000000000000000000000000000000000000000000000000 DUP2 MSTORE PUSH1 0x4 ADD PUSH2 0x2E5F SWAP1 PUSH2 0x4091 JUMP JUMPDEST PUSH1 0x40 MLOAD DUP1 SWAP2 SUB SWAP1 REVERT JUMPDEST PUSH1 0x16 PUSH1 0x0 DUP4 PUSH20 0xFFFFFFFFFFFFFFFFFFFFFFFFFFFFFFFFFFFFFFFF AND PUSH20 0xFFFFFFFFFFFFFFFFFFFFFFFFFFFFFFFFFFFFFFFF AND DUP2 MSTORE PUSH1 0x20 ADD SWAP1 DUP2 MSTORE PUSH1 0x20 ADD PUSH1 0x0 KECCAK256 PUSH1 0x0 SWAP1 SLOAD SWAP1 PUSH2 0x100 EXP SWAP1 DIV PUSH1 0xFF AND SWAP1 POP SWAP2 SWAP1 POP JUMP JUMPDEST PUSH1 0x1 SLOAD DUP2 JUMP JUMPDEST PUSH1 0x9 SLOAD DUP2 JUMP JUMPDEST PUSH1 0x0 PUSH2 0x2EF0 DUP4 PUSH1 0x12 SLOAD PUSH2 0x2EEB DUP6 PUSH2 0x2EDD PUSH2 0x1109 JUMP JUMPDEST PUSH2 0x3479 SWAP1 SWAP2 SWAP1 PUSH4 0xFFFFFFFF AND JUMP JUMPDEST PUSH2 0x13C5 JUMP JUMPDEST SWAP1 POP SWAP3 SWAP2 POP POP JUMP JUMPDEST PUSH1 0x6 SLOAD DUP2 JUMP JUMPDEST PUSH1 0x8 SLOAD DUP2 JUMP JUMPDEST PUSH1 0x0 DUP1 PUSH2 0x2F5C PUSH1 0x20 PUSH1 0x0 DUP6 PUSH20 0xFFFFFFFFFFFFFFFFFFFFFFFFFFFFFFFFFFFFFFFF AND PUSH20 0xFFFFFFFFFFFFFFFFFFFFFFFFFFFFFFFFFFFFFFFF AND DUP2 MSTORE PUSH1 0x20 ADD SWAP1 DUP2 MSTORE PUSH1 0x20 ADD PUSH1 0x0 KECCAK256 PUSH1 0x4 ADD SLOAD TIMESTAMP PUSH2 0x34A5 SWAP1 SWAP2 SWAP1 PUSH4 0xFFFFFFFF AND JUMP JUMPDEST SWAP1 POP PUSH1 0x0 PUSH2 0x2F6C DUP3 PUSH1 0x17 SLOAD PUSH2 0x3A98 JUMP JUMPDEST SWAP1 POP PUSH1 0x0 PUSH2 0x2F7C PUSH1 0x0 SLOAD DUP4 PUSH2 0x3A98 JUMP JUMPDEST SWAP1 POP PUSH2 0x2FD3 PUSH1 0x20 PUSH1 0x0 DUP8 PUSH20 0xFFFFFFFFFFFFFFFFFFFFFFFFFFFFFFFFFFFFFFFF AND PUSH20 0xFFFFFFFFFFFFFFFFFFFFFFFFFFFFFFFFFFFFFFFF AND DUP2 MSTORE PUSH1 0x20 ADD SWAP1 DUP2 MSTORE PUSH1 0x20 ADD PUSH1 0x0 KECCAK256 PUSH1 0x2 ADD SLOAD DUP3 PUSH2 0x34E7 SWAP1 SWAP2 SWAP1 PUSH4 0xFFFFFFFF AND JUMP JUMPDEST SWAP4 POP POP POP POP SWAP2 SWAP1 POP JUMP JUMPDEST PUSH1 0x19 PUSH1 0x0 SWAP1 SLOAD SWAP1 PUSH2 0x100 EXP SWAP1 DIV PUSH20 0xFFFFFFFFFFFFFFFFFFFFFFFFFFFFFFFFFFFFFFFF AND PUSH20 0xFFFFFFFFFFFFFFFFFFFFFFFFFFFFFFFFFFFFFFFF AND CALLER PUSH20 0xFFFFFFFFFFFFFFFFFFFFFFFFFFFFFFFFFFFFFFFF AND EQ PUSH2 0x306D JUMPI PUSH1 0x40 MLOAD PUSH32 0x8C379A000000000000000000000000000000000000000000000000000000000 DUP2 MSTORE PUSH1 0x4 ADD PUSH2 0x3064 SWAP1 PUSH2 0x4091 JUMP JUMPDEST PUSH1 0x40 MLOAD DUP1 SWAP2 SUB SWAP1 REVERT JUMPDEST DUP1 PUSH1 0x16 PUSH1 0x0 DUP5 PUSH20 0xFFFFFFFFFFFFFFFFFFFFFFFFFFFFFFFFFFFFFFFF AND PUSH20 0xFFFFFFFFFFFFFFFFFFFFFFFFFFFFFFFFFFFFFFFF AND DUP2 MSTORE PUSH1 0x20 ADD SWAP1 DUP2 MSTORE PUSH1 0x20 ADD PUSH1 0x0 KECCAK256 PUSH1 0x0 PUSH2 0x100 EXP DUP2 SLOAD DUP2 PUSH1 0xFF MUL NOT AND SWAP1 DUP4 ISZERO ISZERO MUL OR SWAP1 SSTORE POP POP POP JUMP JUMPDEST PUSH1 0x0 TIMESTAMP SWAP1 POP SWAP1 JUMP JUMPDEST PUSH1 0x15 PUSH1 0x0 SWAP1 SLOAD SWAP1 PUSH2 0x100 EXP SWAP1 DIV PUSH1 0xFF AND PUSH2 0x31BA JUMPI PUSH1 0x19 PUSH1 0x0 SWAP1 SLOAD SWAP1 PUSH2 0x100 EXP SWAP1 DIV PUSH20 0xFFFFFFFFFFFFFFFFFFFFFFFFFFFFFFFFFFFFFFFF AND PUSH20 0xFFFFFFFFFFFFFFFFFFFFFFFFFFFFFFFFFFFFFFFF AND CALLER PUSH20 0xFFFFFFFFFFFFFFFFFFFFFFFFFFFFFFFFFFFFFFFF AND EQ ISZERO PUSH2 0x317E JUMPI PUSH1 0x0 PUSH1 0x12 SLOAD EQ PUSH2 0x3149 JUMPI PUSH1 0x0 DUP1 REVERT JUMPDEST PUSH1 0x1 PUSH1 0x15 PUSH1 0x0 PUSH2 0x100 EXP DUP2 SLOAD DUP2 PUSH1 0xFF MUL NOT AND SWAP1 DUP4 ISZERO ISZERO MUL OR SWAP1 SSTORE POP PUSH5 0x218711A000 PUSH1 0x12 DUP2 SWAP1 SSTORE POP PUSH2 0x3179 DUP2 PUSH2 0x18D3 JUMP JUMPDEST PUSH2 0x31B9 JUMP JUMPDEST PUSH1 0x40 MLOAD PUSH32 0x8C379A000000000000000000000000000000000000000000000000000000000 DUP2 MSTORE PUSH1 0x4 ADD PUSH2 0x31B0 SWAP1 PUSH2 0x4336 JUMP JUMPDEST PUSH1 0x40 MLOAD DUP1 SWAP2 SUB SWAP1 REVERT JUMPDEST JUMPDEST POP JUMP JUMPDEST PUSH1 0x19 PUSH1 0x0 SWAP1 SLOAD SWAP1 PUSH2 0x100 EXP SWAP1 DIV PUSH20 0xFFFFFFFFFFFFFFFFFFFFFFFFFFFFFFFFFFFFFFFF AND PUSH20 0xFFFFFFFFFFFFFFFFFFFFFFFFFFFFFFFFFFFFFFFF AND CALLER PUSH20 0xFFFFFFFFFFFFFFFFFFFFFFFFFFFFFFFFFFFFFFFF AND EQ PUSH2 0x324D JUMPI PUSH1 0x40 MLOAD PUSH32 0x8C379A000000000000000000000000000000000000000000000000000000000 DUP2 MSTORE PUSH1 0x4 ADD PUSH2 0x3244 SWAP1 PUSH2 0x4091 JUMP JUMPDEST PUSH1 0x40 MLOAD DUP1 SWAP2 SUB SWAP1 REVERT JUMPDEST PUSH3 0x75120 DUP2 LT ISZERO DUP1 ISZERO PUSH2 0x3263 JUMPI POP PUSH3 0xAFC80 DUP2 GT ISZERO JUMPDEST PUSH2 0x326C JUMPI PUSH1 0x0 DUP1 REVERT JUMPDEST DUP1 PUSH1 0x0 DUP2 SWAP1 SSTORE POP POP JUMP JUMPDEST PUSH1 0x19 PUSH1 0x0 SWAP1 SLOAD SWAP1 PUSH2 0x100 EXP SWAP1 DIV PUSH20 0xFFFFFFFFFFFFFFFFFFFFFFFFFFFFFFFFFFFFFFFF AND PUSH20 0xFFFFFFFFFFFFFFFFFFFFFFFFFFFFFFFFFFFFFFFF AND CALLER PUSH20 0xFFFFFFFFFFFFFFFFFFFFFFFFFFFFFFFFFFFFFFFF AND EQ PUSH2 0x3306 JUMPI PUSH1 0x40 MLOAD PUSH32 0x8C379A000000000000000000000000000000000000000000000000000000000 DUP2 MSTORE PUSH1 0x4 ADD PUSH2 0x32FD SWAP1 PUSH2 0x4091 JUMP JUMPDEST PUSH1 0x40 MLOAD DUP1 SWAP2 SUB SWAP1 REVERT JUMPDEST PUSH1 0xC DUP2 GT ISZERO PUSH2 0x3314 JUMPI PUSH1 0x0 DUP1 REVERT JUMPDEST DUP1 PUSH1 0xC DUP2 SWAP1 SSTORE POP POP JUMP JUMPDEST PUSH1 0x19 PUSH1 0x0 SWAP1 SLOAD SWAP1 PUSH2 0x100 EXP SWAP1 DIV PUSH20 0xFFFFFFFFFFFFFFFFFFFFFFFFFFFFFFFFFFFFFFFF AND PUSH20 0xFFFFFFFFFFFFFFFFFFFFFFFFFFFFFFFFFFFFFFFF AND CALLER PUSH20 0xFFFFFFFFFFFFFFFFFFFFFFFFFFFFFFFFFFFFFFFF AND EQ PUSH2 0x33AE JUMPI PUSH1 0x40 MLOAD PUSH32 0x8C379A000000000000000000000000000000000000000000000000000000000 DUP2 MSTORE PUSH1 0x4 ADD PUSH2 0x33A5 SWAP1 PUSH2 0x4091 JUMP JUMPDEST PUSH1 0x40 MLOAD DUP1 SWAP2 SUB SWAP1 REVERT JUMPDEST PUSH1 0x0 JUMPDEST DUP4 DUP4 SWAP1 POP DUP2 LT ISZERO PUSH2 0x344D JUMPI DUP2 PUSH1 0x16 PUSH1 0x0 DUP7 DUP7 DUP6 DUP2 DUP2 LT PUSH2 0x33D4 JUMPI PUSH2 0x33D3 PUSH2 0x4356 JUMP JUMPDEST JUMPDEST SWAP1 POP PUSH1 0x20 MUL ADD PUSH1 0x20 DUP2 ADD SWAP1 PUSH2 0x33E9 SWAP2 SWAP1 PUSH2 0x3CDA JUMP JUMPDEST PUSH20 0xFFFFFFFFFFFFFFFFFFFFFFFFFFFFFFFFFFFFFFFF AND PUSH20 0xFFFFFFFFFFFFFFFFFFFFFFFFFFFFFFFFFFFFFFFF AND DUP2 MSTORE PUSH1 0x20 ADD SWAP1 DUP2 MSTORE PUSH1 0x20 ADD PUSH1 0x0 KECCAK256 PUSH1 0x0 PUSH2 0x100 EXP DUP2 SLOAD DUP2 PUSH1 0xFF MUL NOT AND SWAP1 DUP4 ISZERO ISZERO MUL OR SWAP1 SSTORE POP DUP1 DUP1 PUSH2 0x3445 SWAP1 PUSH2 0x4385 JUMP JUMPDEST SWAP2 POP POP PUSH2 0x33B1 JUMP JUMPDEST POP POP POP POP JUMP JUMPDEST PUSH1 0xC SLOAD DUP2 JUMP JUMPDEST PUSH1 0x16 PUSH1 0x20 MSTORE DUP1 PUSH1 0x0 MSTORE PUSH1 0x40 PUSH1 0x0 KECCAK256 PUSH1 0x0 SWAP2 POP SLOAD SWAP1 PUSH2 0x100 EXP SWAP1 DIV PUSH1 0xFF AND DUP2 JUMP JUMPDEST PUSH1 0x0 DUP1 DUP3 DUP5 PUSH2 0x3488 SWAP2 SWAP1 PUSH2 0x43CE JUMP JUMPDEST SWAP1 POP DUP4 DUP2 LT ISZERO PUSH2 0x349B JUMPI PUSH2 0x349A PUSH2 0x4424 JUMP JUMPDEST JUMPDEST DUP1 SWAP2 POP POP SWAP3 SWAP2 POP POP JUMP JUMPDEST PUSH1 0x0 DUP3 DUP3 GT ISZERO PUSH2 0x34B8 JUMPI PUSH2 0x34B7 PUSH2 0x4424 JUMP JUMPDEST JUMPDEST DUP2 DUP4 PUSH2 0x34C4 SWAP2 SWAP1 PUSH2 0x4453 JUMP JUMPDEST SWAP1 POP SWAP3 SWAP2 POP POP JUMP JUMPDEST PUSH1 0x0 DUP1 DUP3 DUP5 PUSH2 0x34DB SWAP2 SWAP1 PUSH2 0x44B6 JUMP JUMPDEST SWAP1 POP DUP1 SWAP2 POP POP SWAP3 SWAP2 POP POP JUMP JUMPDEST PUSH1 0x0 DUP1 DUP4 EQ ISZERO PUSH2 0x34FA JUMPI PUSH1 0x0 SWAP1 POP PUSH2 0x352A JUMP JUMPDEST PUSH1 0x0 DUP3 DUP5 PUSH2 0x3508 SWAP2 SWAP1 PUSH2 0x414C JUMP JUMPDEST SWAP1 POP DUP3 DUP5 DUP3 PUSH2 0x3517 SWAP2 SWAP1 PUSH2 0x44B6 JUMP JUMPDEST EQ PUSH2 0x3525 JUMPI PUSH2 0x3524 PUSH2 0x4424 JUMP JUMPDEST JUMPDEST DUP1 SWAP2 POP POP JUMPDEST SWAP3 SWAP2 POP POP JUMP JUMPDEST PUSH1 0x0 DUP3 SWAP1 POP PUSH1 0x0 PUSH1 0x3 PUSH8 0xFFFFFFFFFFFFFFFF DUP2 GT ISZERO PUSH2 0x3552 JUMPI PUSH2 0x3551 PUSH2 0x44E7 JUMP JUMPDEST JUMPDEST PUSH1 0x40 MLOAD SWAP1 DUP1 DUP3 MSTORE DUP1 PUSH1 0x20 MUL PUSH1 0x20 ADD DUP3 ADD PUSH1 0x40 MSTORE DUP1 ISZERO PUSH2 0x3580 JUMPI DUP2 PUSH1 0x20 ADD PUSH1 0x20 DUP3 MUL DUP1 CALLDATASIZE DUP4 CALLDATACOPY DUP1 DUP3 ADD SWAP2 POP POP SWAP1 POP JUMPDEST POP SWAP1 POP PUSH1 0x8 DUP2 PUSH1 0x0 DUP2 MLOAD DUP2 LT PUSH2 0x3599 JUMPI PUSH2 0x3598 PUSH2 0x4356 JUMP JUMPDEST JUMPDEST PUSH1 0x20 MUL PUSH1 0x20 ADD ADD DUP2 DUP2 MSTORE POP POP PUSH1 0x3 DUP2 PUSH1 0x1 DUP2 MLOAD DUP2 LT PUSH2 0x35BB JUMPI PUSH2 0x35BA PUSH2 0x4356 JUMP JUMPDEST JUMPDEST PUSH1 0x20 MUL PUSH1 0x20 ADD ADD DUP2 DUP2 MSTORE POP POP PUSH1 0x2 DUP2 PUSH1 0x2 DUP2 MLOAD DUP2 LT PUSH2 0x35DD JUMPI PUSH2 0x35DC PUSH2 0x4356 JUMP JUMPDEST JUMPDEST PUSH1 0x20 MUL PUSH1 0x20 ADD ADD DUP2 DUP2 MSTORE POP POP PUSH1 0x0 DUP1 PUSH1 0x0 SWAP1 POP JUMPDEST PUSH1 0x3 DUP2 LT ISZERO PUSH2 0x3790 JUMPI PUSH1 0x0 PUSH20 0xFFFFFFFFFFFFFFFFFFFFFFFFFFFFFFFFFFFFFFFF AND PUSH1 0x20 PUSH1 0x0 DUP7 PUSH20 0xFFFFFFFFFFFFFFFFFFFFFFFFFFFFFFFFFFFFFFFF AND PUSH20 0xFFFFFFFFFFFFFFFFFFFFFFFFFFFFFFFFFFFFFFFF AND DUP2 MSTORE PUSH1 0x20 ADD SWAP1 DUP2 MSTORE PUSH1 0x20 ADD PUSH1 0x0 KECCAK256 PUSH1 0x5 ADD PUSH1 0x0 SWAP1 SLOAD SWAP1 PUSH2 0x100 EXP SWAP1 DIV PUSH20 0xFFFFFFFFFFFFFFFFFFFFFFFFFFFFFFFFFFFFFFFF AND PUSH20 0xFFFFFFFFFFFFFFFFFFFFFFFFFFFFFFFFFFFFFFFF AND EQ PUSH2 0x3778 JUMPI PUSH1 0x20 PUSH1 0x0 DUP6 PUSH20 0xFFFFFFFFFFFFFFFFFFFFFFFFFFFFFFFFFFFFFFFF AND PUSH20 0xFFFFFFFFFFFFFFFFFFFFFFFFFFFFFFFFFFFFFFFF AND DUP2 MSTORE PUSH1 0x20 ADD SWAP1 DUP2 MSTORE PUSH1 0x20 ADD PUSH1 0x0 KECCAK256 PUSH1 0x5 ADD PUSH1 0x0 SWAP1 SLOAD SWAP1 PUSH2 0x100 EXP SWAP1 DIV PUSH20 0xFFFFFFFFFFFFFFFFFFFFFFFFFFFFFFFFFFFFFFFF AND SWAP4 POP PUSH1 0x0 PUSH1 0x64 DUP7 DUP6 DUP5 DUP2 MLOAD DUP2 LT PUSH2 0x370D JUMPI PUSH2 0x370C PUSH2 0x4356 JUMP JUMPDEST JUMPDEST PUSH1 0x20 MUL PUSH1 0x20 ADD ADD MLOAD PUSH2 0x371F SWAP2 SWAP1 PUSH2 0x414C JUMP JUMPDEST PUSH2 0x3729 SWAP2 SWAP1 PUSH2 0x44B6 JUMP JUMPDEST SWAP1 POP DUP5 PUSH20 0xFFFFFFFFFFFFFFFFFFFFFFFFFFFFFFFFFFFFFFFF AND PUSH2 0x8FC DUP3 SWAP1 DUP2 ISZERO MUL SWAP1 PUSH1 0x40 MLOAD PUSH1 0x0 PUSH1 0x40 MLOAD DUP1 DUP4 SUB DUP2 DUP6 DUP9 DUP9 CALL SWAP4 POP POP POP POP ISZERO DUP1 ISZERO PUSH2 0x3771 JUMPI RETURNDATASIZE PUSH1 0x0 DUP1 RETURNDATACOPY RETURNDATASIZE PUSH1 0x0 REVERT JUMPDEST POP POP PUSH2 0x377D JUMP JUMPDEST PUSH2 0x3790 JUMP JUMPDEST DUP1 DUP1 PUSH2 0x3788 SWAP1 PUSH2 0x4385 JUMP JUMPDEST SWAP2 POP POP PUSH2 0x35F1 JUMP JUMPDEST POP POP POP POP POP POP JUMP JUMPDEST PUSH1 0x0 DUP1 PUSH2 0x37C4 PUSH1 0x2 SLOAD PUSH2 0x37B6 PUSH1 0x3 SLOAD DUP7 PUSH2 0x34E7 SWAP1 SWAP2 SWAP1 PUSH4 0xFFFFFFFF AND JUMP JUMPDEST PUSH2 0x34CC SWAP1 SWAP2 SWAP1 PUSH4 0xFFFFFFFF AND JUMP JUMPDEST SWAP1 POP PUSH1 0x0 PUSH2 0x37F1 PUSH1 0x2 SLOAD PUSH2 0x37E3 PUSH1 0x4 SLOAD DUP8 PUSH2 0x34E7 SWAP1 SWAP2 SWAP1 PUSH4 0xFFFFFFFF AND JUMP JUMPDEST PUSH2 0x34CC SWAP1 SWAP2 SWAP1 PUSH4 0xFFFFFFFF AND JUMP JUMPDEST SWAP1 POP PUSH1 0x1A PUSH1 0x0 SWAP1 SLOAD SWAP1 PUSH2 0x100 EXP SWAP1 DIV PUSH20 0xFFFFFFFFFFFFFFFFFFFFFFFFFFFFFFFFFFFFFFFF AND PUSH20 0xFFFFFFFFFFFFFFFFFFFFFFFFFFFFFFFFFFFFFFFF AND PUSH2 0x8FC DUP4 SWAP1 DUP2 ISZERO MUL SWAP1 PUSH1 0x40 MLOAD PUSH1 0x0 PUSH1 0x40 MLOAD DUP1 DUP4 SUB DUP2 DUP6 DUP9 DUP9 CALL SWAP4 POP POP POP POP ISZERO DUP1 ISZERO PUSH2 0x385B JUMPI RETURNDATASIZE PUSH1 0x0 DUP1 RETURNDATACOPY RETURNDATASIZE PUSH1 0x0 REVERT JUMPDEST POP PUSH1 0x1B PUSH1 0x0 SWAP1 SLOAD SWAP1 PUSH2 0x100 EXP SWAP1 DIV PUSH20 0xFFFFFFFFFFFFFFFFFFFFFFFFFFFFFFFFFFFFFFFF AND PUSH20 0xFFFFFFFFFFFFFFFFFFFFFFFFFFFFFFFFFFFFFFFF AND PUSH2 0x8FC DUP4 SWAP1 DUP2 ISZERO MUL SWAP1 PUSH1 0x40 MLOAD PUSH1 0x0 PUSH1 0x40 MLOAD DUP1 DUP4 SUB DUP2 DUP6 DUP9 DUP9 CALL SWAP4 POP POP POP POP ISZERO DUP1 ISZERO PUSH2 0x38C4 JUMPI RETURNDATASIZE PUSH1 0x0 DUP1 RETURNDATACOPY RETURNDATASIZE PUSH1 0x0 REVERT JUMPDEST POP PUSH1 0x1C PUSH1 0x0 SWAP1 SLOAD SWAP1 PUSH2 0x100 EXP SWAP1 DIV PUSH20 0xFFFFFFFFFFFFFFFFFFFFFFFFFFFFFFFFFFFFFFFF AND PUSH20 0xFFFFFFFFFFFFFFFFFFFFFFFFFFFFFFFFFFFFFFFF AND PUSH2 0x8FC DUP4 SWAP1 DUP2 ISZERO MUL SWAP1 PUSH1 0x40 MLOAD PUSH1 0x0 PUSH1 0x40 MLOAD DUP1 DUP4 SUB DUP2 DUP6 DUP9 DUP9 CALL SWAP4 POP POP POP POP ISZERO DUP1 ISZERO PUSH2 0x392D JUMPI RETURNDATASIZE PUSH1 0x0 DUP1 RETURNDATACOPY RETURNDATASIZE PUSH1 0x0 REVERT JUMPDEST POP PUSH1 0x1D PUSH1 0x0 SWAP1 SLOAD SWAP1 PUSH2 0x100 EXP SWAP1 DIV PUSH20 0xFFFFFFFFFFFFFFFFFFFFFFFFFFFFFFFFFFFFFFFF AND PUSH20 0xFFFFFFFFFFFFFFFFFFFFFFFFFFFFFFFFFFFFFFFF AND PUSH2 0x8FC DUP4 SWAP1 DUP2 ISZERO MUL SWAP1 PUSH1 0x40 MLOAD PUSH1 0x0 PUSH1 0x40 MLOAD DUP1 DUP4 SUB DUP2 DUP6 DUP9 DUP9 CALL SWAP4 POP POP POP POP ISZERO DUP1 ISZERO PUSH2 0x3996 JUMPI RETURNDATASIZE PUSH1 0x0 DUP1 RETURNDATACOPY RETURNDATASIZE PUSH1 0x0 REVERT JUMPDEST POP PUSH1 0x1E PUSH1 0x0 SWAP1 SLOAD SWAP1 PUSH2 0x100 EXP SWAP1 DIV PUSH20 0xFFFFFFFFFFFFFFFFFFFFFFFFFFFFFFFFFFFFFFFF AND PUSH20 0xFFFFFFFFFFFFFFFFFFFFFFFFFFFFFFFFFFFFFFFF AND PUSH2 0x8FC DUP4 SWAP1 DUP2 ISZERO MUL SWAP1 PUSH1 0x40 MLOAD PUSH1 0x0 PUSH1 0x40 MLOAD DUP1 DUP4 SUB DUP2 DUP6 DUP9 DUP9 CALL SWAP4 POP POP POP POP ISZERO DUP1 ISZERO PUSH2 0x39FF JUMPI RETURNDATASIZE PUSH1 0x0 DUP1 RETURNDATACOPY RETURNDATASIZE PUSH1 0x0 REVERT JUMPDEST POP PUSH1 0x1F PUSH1 0x0 SWAP1 SLOAD SWAP1 PUSH2 0x100 EXP SWAP1 DIV PUSH20 0xFFFFFFFFFFFFFFFFFFFFFFFFFFFFFFFFFFFFFFFF AND PUSH20 0xFFFFFFFFFFFFFFFFFFFFFFFFFFFFFFFFFFFFFFFF AND PUSH2 0x8FC DUP3 SWAP1 DUP2 ISZERO MUL SWAP1 PUSH1 0x40 MLOAD PUSH1 0x0 PUSH1 0x40 MLOAD DUP1 DUP4 SUB DUP2 DUP6 DUP9 DUP9 CALL SWAP4 POP POP POP POP ISZERO DUP1 ISZERO PUSH2 0x3A68 JUMPI RETURNDATASIZE PUSH1 0x0 DUP1 RETURNDATACOPY RETURNDATASIZE PUSH1 0x0 REVERT JUMPDEST POP PUSH2 0x3A8F PUSH2 0x3A80 PUSH1 0x5 DUP5 PUSH2 0x34E7 SWAP1 SWAP2 SWAP1 PUSH4 0xFFFFFFFF AND JUMP JUMPDEST DUP3 PUSH2 0x3479 SWAP1 SWAP2 SWAP1 PUSH4 0xFFFFFFFF AND JUMP JUMPDEST SWAP3 POP POP POP SWAP2 SWAP1 POP JUMP JUMPDEST PUSH1 0x0 DUP2 DUP4 LT PUSH2 0x3AA7 JUMPI DUP2 PUSH2 0x3AA9 JUMP JUMPDEST DUP3 JUMPDEST SWAP1 POP SWAP3 SWAP2 POP POP JUMP JUMPDEST PUSH1 0x0 DUP2 SWAP1 POP SWAP2 SWAP1 POP JUMP JUMPDEST PUSH2 0x3AC4 DUP2 PUSH2 0x3AB1 JUMP JUMPDEST DUP3 MSTORE POP POP JUMP JUMPDEST PUSH1 0x0 PUSH1 0x20 DUP3 ADD SWAP1 POP PUSH2 0x3ADF PUSH1 0x0 DUP4 ADD DUP5 PUSH2 0x3ABB JUMP JUMPDEST SWAP3 SWAP2 POP POP JUMP JUMPDEST PUSH1 0x0 PUSH20 0xFFFFFFFFFFFFFFFFFFFFFFFFFFFFFFFFFFFFFFFF DUP3 AND SWAP1 POP SWAP2 SWAP1 POP JUMP JUMPDEST PUSH1 0x0 PUSH2 0x3B10 DUP3 PUSH2 0x3AE5 JUMP JUMPDEST SWAP1 POP SWAP2 SWAP1 POP JUMP JUMPDEST PUSH2 0x3B20 DUP2 PUSH2 0x3B05 JUMP JUMPDEST DUP3 MSTORE POP POP JUMP JUMPDEST PUSH1 0x0 PUSH1 0x20 DUP3 ADD SWAP1 POP PUSH2 0x3B3B PUSH1 0x0 DUP4 ADD DUP5 PUSH2 0x3B17 JUMP JUMPDEST SWAP3 SWAP2 POP POP JUMP JUMPDEST PUSH1 0x0 DUP1 REVERT JUMPDEST PUSH1 0x0 DUP1 REVERT JUMPDEST PUSH1 0x0 DUP2 ISZERO ISZERO SWAP1 POP SWAP2 SWAP1 POP JUMP JUMPDEST PUSH2 0x3B60 DUP2 PUSH2 0x3B4B JUMP JUMPDEST DUP2 EQ PUSH2 0x3B6B JUMPI PUSH1 0x0 DUP1 REVERT JUMPDEST POP JUMP JUMPDEST PUSH1 0x0 DUP2 CALLDATALOAD SWAP1 POP PUSH2 0x3B7D DUP2 PUSH2 0x3B57 JUMP JUMPDEST SWAP3 SWAP2 POP POP JUMP JUMPDEST PUSH1 0x0 PUSH1 0x20 DUP3 DUP5 SUB SLT ISZERO PUSH2 0x3B99 JUMPI PUSH2 0x3B98 PUSH2 0x3B41 JUMP JUMPDEST JUMPDEST PUSH1 0x0 PUSH2 0x3BA7 DUP5 DUP3 DUP6 ADD PUSH2 0x3B6E JUMP JUMPDEST SWAP2 POP POP SWAP3 SWAP2 POP POP JUMP JUMPDEST PUSH2 0x3BB9 DUP2 PUSH2 0x3AB1 JUMP JUMPDEST DUP2 EQ PUSH2 0x3BC4 JUMPI PUSH1 0x0 DUP1 REVERT JUMPDEST POP JUMP JUMPDEST PUSH1 0x0 DUP2 CALLDATALOAD SWAP1 POP PUSH2 0x3BD6 DUP2 PUSH2 0x3BB0 JUMP JUMPDEST SWAP3 SWAP2 POP POP JUMP JUMPDEST PUSH1 0x0 PUSH1 0x20 DUP3 DUP5 SUB SLT ISZERO PUSH2 0x3BF2 JUMPI PUSH2 0x3BF1 PUSH2 0x3B41 JUMP JUMPDEST JUMPDEST PUSH1 0x0 PUSH2 0x3C00 DUP5 DUP3 DUP6 ADD PUSH2 0x3BC7 JUMP JUMPDEST SWAP2 POP POP SWAP3 SWAP2 POP POP JUMP JUMPDEST PUSH1 0x0 DUP1 PUSH1 0x0 PUSH1 0x60 DUP5 DUP7 SUB SLT ISZERO PUSH2 0x3C22 JUMPI PUSH2 0x3C21 PUSH2 0x3B41 JUMP JUMPDEST JUMPDEST PUSH1 0x0 PUSH2 0x3C30 DUP7 DUP3 DUP8 ADD PUSH2 0x3BC7 JUMP JUMPDEST SWAP4 POP POP PUSH1 0x20 PUSH2 0x3C41 DUP7 DUP3 DUP8 ADD PUSH2 0x3BC7 JUMP JUMPDEST SWAP3 POP POP PUSH1 0x40 PUSH2 0x3C52 DUP7 DUP3 DUP8 ADD PUSH2 0x3BC7 JUMP JUMPDEST SWAP2 POP POP SWAP3 POP SWAP3 POP SWAP3 JUMP JUMPDEST PUSH1 0x0 DUP1 PUSH1 0x40 DUP4 DUP6 SUB SLT ISZERO PUSH2 0x3C73 JUMPI PUSH2 0x3C72 PUSH2 0x3B41 JUMP JUMPDEST JUMPDEST PUSH1 0x0 PUSH2 0x3C81 DUP6 DUP3 DUP7 ADD PUSH2 0x3BC7 JUMP JUMPDEST SWAP3 POP POP PUSH1 0x20 PUSH2 0x3C92 DUP6 DUP3 DUP7 ADD PUSH2 0x3BC7 JUMP JUMPDEST SWAP2 POP POP SWAP3 POP SWAP3 SWAP1 POP JUMP JUMPDEST PUSH1 0x0 PUSH2 0x3CA7 DUP3 PUSH2 0x3AE5 JUMP JUMPDEST SWAP1 POP SWAP2 SWAP1 POP JUMP JUMPDEST PUSH2 0x3CB7 DUP2 PUSH2 0x3C9C JUMP JUMPDEST DUP2 EQ PUSH2 0x3CC2 JUMPI PUSH1 0x0 DUP1 REVERT JUMPDEST POP JUMP JUMPDEST PUSH1 0x0 DUP2 CALLDATALOAD SWAP1 POP PUSH2 0x3CD4 DUP2 PUSH2 0x3CAE JUMP JUMPDEST SWAP3 SWAP2 POP POP JUMP JUMPDEST PUSH1 0x0 PUSH1 0x20 DUP3 DUP5 SUB SLT ISZERO PUSH2 0x3CF0 JUMPI PUSH2 0x3CEF PUSH2 0x3B41 JUMP JUMPDEST JUMPDEST PUSH1 0x0 PUSH2 0x3CFE DUP5 DUP3 DUP6 ADD PUSH2 0x3CC5 JUMP JUMPDEST SWAP2 POP POP SWAP3 SWAP2 POP POP JUMP JUMPDEST PUSH2 0x3D10 DUP2 PUSH2 0x3B4B JUMP JUMPDEST DUP3 MSTORE POP POP JUMP JUMPDEST PUSH1 0x0 PUSH1 0x20 DUP3 ADD SWAP1 POP PUSH2 0x3D2B PUSH1 0x0 DUP4 ADD DUP5 PUSH2 0x3D07 JUMP JUMPDEST SWAP3 SWAP2 POP POP JUMP JUMPDEST PUSH1 0x0 PUSH1 0x80 DUP3 ADD SWAP1 POP PUSH2 0x3D46 PUSH1 0x0 DUP4 ADD DUP8 PUSH2 0x3ABB JUMP JUMPDEST PUSH2 0x3D53 PUSH1 0x20 DUP4 ADD DUP7 PUSH2 0x3ABB JUMP JUMPDEST PUSH2 0x3D60 PUSH1 0x40 DUP4 ADD DUP6 PUSH2 0x3ABB JUMP JUMPDEST PUSH2 0x3D6D PUSH1 0x60 DUP4 ADD DUP5 PUSH2 0x3ABB JUMP JUMPDEST SWAP6 SWAP5 POP POP POP POP POP JUMP JUMPDEST PUSH1 0x0 DUP1 PUSH1 0x40 DUP4 DUP6 SUB SLT ISZERO PUSH2 0x3D8D JUMPI PUSH2 0x3D8C PUSH2 0x3B41 JUMP JUMPDEST JUMPDEST PUSH1 0x0 PUSH2 0x3D9B DUP6 DUP3 DUP7 ADD PUSH2 0x3CC5 JUMP JUMPDEST SWAP3 POP POP PUSH1 0x20 PUSH2 0x3DAC DUP6 DUP3 DUP7 ADD PUSH2 0x3BC7 JUMP JUMPDEST SWAP2 POP POP SWAP3 POP SWAP3 SWAP1 POP JUMP JUMPDEST PUSH2 0x3DBF DUP2 PUSH2 0x3C9C JUMP JUMPDEST DUP3 MSTORE POP POP JUMP JUMPDEST PUSH1 0x0 PUSH2 0x180 DUP3 ADD SWAP1 POP PUSH2 0x3DDB PUSH1 0x0 DUP4 ADD DUP16 PUSH2 0x3ABB JUMP JUMPDEST PUSH2 0x3DE8 PUSH1 0x20 DUP4 ADD DUP15 PUSH2 0x3ABB JUMP JUMPDEST PUSH2 0x3DF5 PUSH1 0x40 DUP4 ADD DUP14 PUSH2 0x3ABB JUMP JUMPDEST PUSH2 0x3E02 PUSH1 0x60 DUP4 ADD DUP13 PUSH2 0x3ABB JUMP JUMPDEST PUSH2 0x3E0F PUSH1 0x80 DUP4 ADD DUP12 PUSH2 0x3ABB JUMP JUMPDEST PUSH2 0x3E1C PUSH1 0xA0 DUP4 ADD DUP11 PUSH2 0x3DB6 JUMP JUMPDEST PUSH2 0x3E29 PUSH1 0xC0 DUP4 ADD DUP10 PUSH2 0x3ABB JUMP JUMPDEST PUSH2 0x3E36 PUSH1 0xE0 DUP4 ADD DUP9 PUSH2 0x3ABB JUMP JUMPDEST PUSH2 0x3E44 PUSH2 0x100 DUP4 ADD DUP8 PUSH2 0x3ABB JUMP JUMPDEST PUSH2 0x3E52 PUSH2 0x120 DUP4 ADD DUP7 PUSH2 0x3ABB JUMP JUMPDEST PUSH2 0x3E60 PUSH2 0x140 DUP4 ADD DUP6 PUSH2 0x3ABB JUMP JUMPDEST PUSH2 0x3E6E PUSH2 0x160 DUP4 ADD DUP5 PUSH2 0x3ABB JUMP JUMPDEST SWAP14 SWAP13 POP POP POP POP POP POP POP POP POP POP POP POP POP JUMP JUMPDEST PUSH1 0x0 PUSH1 0x20 DUP3 ADD SWAP1 POP PUSH2 0x3E94 PUSH1 0x0 DUP4 ADD DUP5 PUSH2 0x3DB6 JUMP JUMPDEST SWAP3 SWAP2 POP POP JUMP JUMPDEST PUSH1 0x0 PUSH1 0x40 DUP3 ADD SWAP1 POP PUSH2 0x3EAF PUSH1 0x0 DUP4 ADD DUP6 PUSH2 0x3ABB JUMP JUMPDEST PUSH2 0x3EBC PUSH1 0x20 DUP4 ADD DUP5 PUSH2 0x3ABB JUMP JUMPDEST SWAP4 SWAP3 POP POP POP JUMP JUMPDEST PUSH1 0x0 DUP1 PUSH1 0x40 DUP4 DUP6 SUB SLT ISZERO PUSH2 0x3EDA JUMPI PUSH2 0x3ED9 PUSH2 0x3B41 JUMP JUMPDEST JUMPDEST PUSH1 0x0 PUSH2 0x3EE8 DUP6 DUP3 DUP7 ADD PUSH2 0x3CC5 JUMP JUMPDEST SWAP3 POP POP PUSH1 0x20 PUSH2 0x3EF9 DUP6 DUP3 DUP7 ADD PUSH2 0x3B6E JUMP JUMPDEST SWAP2 POP POP SWAP3 POP SWAP3 SWAP1 POP JUMP JUMPDEST PUSH1 0x0 DUP1 REVERT JUMPDEST PUSH1 0x0 DUP1 REVERT JUMPDEST PUSH1 0x0 DUP1 REVERT JUMPDEST PUSH1 0x0 DUP1 DUP4 PUSH1 0x1F DUP5 ADD SLT PUSH2 0x3F28 JUMPI PUSH2 0x3F27 PUSH2 0x3F03 JUMP JUMPDEST JUMPDEST DUP3 CALLDATALOAD SWAP1 POP PUSH8 0xFFFFFFFFFFFFFFFF DUP2 GT ISZERO PUSH2 0x3F45 JUMPI PUSH2 0x3F44 PUSH2 0x3F08 JUMP JUMPDEST JUMPDEST PUSH1 0x20 DUP4 ADD SWAP2 POP DUP4 PUSH1 0x20 DUP3 MUL DUP4 ADD GT ISZERO PUSH2 0x3F61 JUMPI PUSH2 0x3F60 PUSH2 0x3F0D JUMP JUMPDEST JUMPDEST SWAP3 POP SWAP3 SWAP1 POP JUMP JUMPDEST PUSH1 0x0 DUP1 PUSH1 0x0 PUSH1 0x40 DUP5 DUP7 SUB SLT ISZERO PUSH2 0x3F81 JUMPI PUSH2 0x3F80 PUSH2 0x3B41 JUMP JUMPDEST JUMPDEST PUSH1 0x0 DUP5 ADD CALLDATALOAD PUSH8 0xFFFFFFFFFFFFFFFF DUP2 GT ISZERO PUSH2 0x3F9F JUMPI PUSH2 0x3F9E PUSH2 0x3B46 JUMP JUMPDEST JUMPDEST PUSH2 0x3FAB DUP7 DUP3 DUP8 ADD PUSH2 0x3F12 JUMP JUMPDEST SWAP4 POP SWAP4 POP POP PUSH1 0x20 PUSH2 0x3FBE DUP7 DUP3 DUP8 ADD PUSH2 0x3B6E JUMP JUMPDEST SWAP2 POP POP SWAP3 POP SWAP3 POP SWAP3 JUMP JUMPDEST PUSH1 0x0 DUP3 DUP3 MSTORE PUSH1 0x20 DUP3 ADD SWAP1 POP SWAP3 SWAP2 POP POP JUMP JUMPDEST PUSH32 0x436F6E7472616374206E6F742079657420537461727465642E00000000000000 PUSH1 0x0 DUP3 ADD MSTORE POP JUMP JUMPDEST PUSH1 0x0 PUSH2 0x400F PUSH1 0x19 DUP4 PUSH2 0x3FC8 JUMP JUMPDEST SWAP2 POP PUSH2 0x401A DUP3 PUSH2 0x3FD9 JUMP JUMPDEST PUSH1 0x20 DUP3 ADD SWAP1 POP SWAP2 SWAP1 POP JUMP JUMPDEST PUSH1 0x0 PUSH1 0x20 DUP3 ADD SWAP1 POP DUP2 DUP2 SUB PUSH1 0x0 DUP4 ADD MSTORE PUSH2 0x403E DUP2 PUSH2 0x4002 JUMP JUMPDEST SWAP1 POP SWAP2 SWAP1 POP JUMP JUMPDEST PUSH32 0x41646D696E20757365206F6E6C792E0000000000000000000000000000000000 PUSH1 0x0 DUP3 ADD MSTORE POP JUMP JUMPDEST PUSH1 0x0 PUSH2 0x407B PUSH1 0xF DUP4 PUSH2 0x3FC8 JUMP JUMPDEST SWAP2 POP PUSH2 0x4086 DUP3 PUSH2 0x4045 JUMP JUMPDEST PUSH1 0x20 DUP3 ADD SWAP1 POP SWAP2 SWAP1 POP JUMP JUMPDEST PUSH1 0x0 PUSH1 0x20 DUP3 ADD SWAP1 POP DUP2 DUP2 SUB PUSH1 0x0 DUP4 ADD MSTORE PUSH2 0x40AA DUP2 PUSH2 0x406E JUMP JUMPDEST SWAP1 POP SWAP2 SWAP1 POP JUMP JUMPDEST PUSH32 0x41646D696E20757365206F6E6C79000000000000000000000000000000000000 PUSH1 0x0 DUP3 ADD MSTORE POP JUMP JUMPDEST PUSH1 0x0 PUSH2 0x40E7 PUSH1 0xE DUP4 PUSH2 0x3FC8 JUMP JUMPDEST SWAP2 POP PUSH2 0x40F2 DUP3 PUSH2 0x40B1 JUMP JUMPDEST PUSH1 0x20 DUP3 ADD SWAP1 POP SWAP2 SWAP1 POP JUMP JUMPDEST PUSH1 0x0 PUSH1 0x20 DUP3 ADD SWAP1 POP DUP2 DUP2 SUB PUSH1 0x0 DUP4 ADD MSTORE PUSH2 0x4116 DUP2 PUSH2 0x40DA JUMP JUMPDEST SWAP1 POP SWAP2 SWAP1 POP JUMP JUMPDEST PUSH32 0x4E487B7100000000000000000000000000000000000000000000000000000000 PUSH1 0x0 MSTORE PUSH1 0x11 PUSH1 0x4 MSTORE PUSH1 0x24 PUSH1 0x0 REVERT JUMPDEST PUSH1 0x0 PUSH2 0x4157 DUP3 PUSH2 0x3AB1 JUMP JUMPDEST SWAP2 POP PUSH2 0x4162 DUP4 PUSH2 0x3AB1 JUMP JUMPDEST SWAP3 POP DUP2 PUSH32 0xFFFFFFFFFFFFFFFFFFFFFFFFFFFFFFFFFFFFFFFFFFFFFFFFFFFFFFFFFFFFFFFF DIV DUP4 GT DUP3 ISZERO ISZERO AND ISZERO PUSH2 0x419B JUMPI PUSH2 0x419A PUSH2 0x411D JUMP JUMPDEST JUMPDEST DUP3 DUP3 MUL SWAP1 POP SWAP3 SWAP2 POP POP JUMP JUMPDEST PUSH32 0x4D696E696E756D20696E766573746D656E74206E6F74206D65742E0000000000 PUSH1 0x0 DUP3 ADD MSTORE POP JUMP JUMPDEST PUSH1 0x0 PUSH2 0x41DC PUSH1 0x1B DUP4 PUSH2 0x3FC8 JUMP JUMPDEST SWAP2 POP PUSH2 0x41E7 DUP3 PUSH2 0x41A6 JUMP JUMPDEST PUSH1 0x20 DUP3 ADD SWAP1 POP SWAP2 SWAP1 POP JUMP JUMPDEST PUSH1 0x0 PUSH1 0x20 DUP3 ADD SWAP1 POP DUP2 DUP2 SUB PUSH1 0x0 DUP4 ADD MSTORE PUSH2 0x420B DUP2 PUSH2 0x41CF JUMP JUMPDEST SWAP1 POP SWAP2 SWAP1 POP JUMP JUMPDEST PUSH32 0x4D6178206465706F736974206C696D697420726561636865642E000000000000 PUSH1 0x0 DUP3 ADD MSTORE POP JUMP JUMPDEST PUSH1 0x0 PUSH2 0x4248 PUSH1 0x1A DUP4 PUSH2 0x3FC8 JUMP JUMPDEST SWAP2 POP PUSH2 0x4253 DUP3 PUSH2 0x4212 JUMP JUMPDEST PUSH1 0x20 DUP3 ADD SWAP1 POP SWAP2 SWAP1 POP JUMP JUMPDEST PUSH1 0x0 PUSH1 0x20 DUP3 ADD SWAP1 POP DUP2 DUP2 SUB PUSH1 0x0 DUP4 ADD MSTORE PUSH2 0x4277 DUP2 PUSH2 0x423B JUMP JUMPDEST SWAP1 POP SWAP2 SWAP1 POP JUMP JUMPDEST PUSH32 0x4164647265737320697320626C61636B6C69737465642E000000000000000000 PUSH1 0x0 DUP3 ADD MSTORE POP JUMP JUMPDEST PUSH1 0x0 PUSH2 0x42B4 PUSH1 0x17 DUP4 PUSH2 0x3FC8 JUMP JUMPDEST SWAP2 POP PUSH2 0x42BF DUP3 PUSH2 0x427E JUMP JUMPDEST PUSH1 0x20 DUP3 ADD SWAP1 POP SWAP2 SWAP1 POP JUMP JUMPDEST PUSH1 0x0 PUSH1 0x20 DUP3 ADD SWAP1 POP DUP2 DUP2 SUB PUSH1 0x0 DUP4 ADD MSTORE PUSH2 0x42E3 DUP2 PUSH2 0x42A7 JUMP JUMPDEST SWAP1 POP SWAP2 SWAP1 POP JUMP JUMPDEST PUSH32 0x436F6E7472616374206E6F742079657420737461727465642E00000000000000 PUSH1 0x0 DUP3 ADD MSTORE POP JUMP JUMPDEST PUSH1 0x0 PUSH2 0x4320 PUSH1 0x19 DUP4 PUSH2 0x3FC8 JUMP JUMPDEST SWAP2 POP PUSH2 0x432B DUP3 PUSH2 0x42EA JUMP JUMPDEST PUSH1 0x20 DUP3 ADD SWAP1 POP SWAP2 SWAP1 POP JUMP JUMPDEST PUSH1 0x0 PUSH1 0x20 DUP3 ADD SWAP1 POP DUP2 DUP2 SUB PUSH1 0x0 DUP4 ADD MSTORE PUSH2 0x434F DUP2 PUSH2 0x4313 JUMP JUMPDEST SWAP1 POP SWAP2 SWAP1 POP JUMP JUMPDEST PUSH32 0x4E487B7100000000000000000000000000000000000000000000000000000000 PUSH1 0x0 MSTORE PUSH1 0x32 PUSH1 0x4 MSTORE PUSH1 0x24 PUSH1 0x0 REVERT JUMPDEST PUSH1 0x0 PUSH2 0x4390 DUP3 PUSH2 0x3AB1 JUMP JUMPDEST SWAP2 POP PUSH32 0xFFFFFFFFFFFFFFFFFFFFFFFFFFFFFFFFFFFFFFFFFFFFFFFFFFFFFFFFFFFFFFFF DUP3 EQ ISZERO PUSH2 0x43C3 JUMPI PUSH2 0x43C2 PUSH2 0x411D JUMP JUMPDEST JUMPDEST PUSH1 0x1 DUP3 ADD SWAP1 POP SWAP2 SWAP1 POP JUMP JUMPDEST PUSH1 0x0 PUSH2 0x43D9 DUP3 PUSH2 0x3AB1 JUMP JUMPDEST SWAP2 POP PUSH2 0x43E4 DUP4 PUSH2 0x3AB1 JUMP JUMPDEST SWAP3 POP DUP3 PUSH32 0xFFFFFFFFFFFFFFFFFFFFFFFFFFFFFFFFFFFFFFFFFFFFFFFFFFFFFFFFFFFFFFFF SUB DUP3 GT ISZERO PUSH2 0x4419 JUMPI PUSH2 0x4418 PUSH2 0x411D JUMP JUMPDEST JUMPDEST DUP3 DUP3 ADD SWAP1 POP SWAP3 SWAP2 POP POP JUMP JUMPDEST PUSH32 0x4E487B7100000000000000000000000000000000000000000000000000000000 PUSH1 0x0 MSTORE PUSH1 0x1 PUSH1 0x4 MSTORE PUSH1 0x24 PUSH1 0x0 REVERT JUMPDEST PUSH1 0x0 PUSH2 0x445E DUP3 PUSH2 0x3AB1 JUMP JUMPDEST SWAP2 POP PUSH2 0x4469 DUP4 PUSH2 0x3AB1 JUMP JUMPDEST SWAP3 POP DUP3 DUP3 LT ISZERO PUSH2 0x447C JUMPI PUSH2 0x447B PUSH2 0x411D JUMP JUMPDEST JUMPDEST DUP3 DUP3 SUB SWAP1 POP SWAP3 SWAP2 POP POP JUMP JUMPDEST PUSH32 0x4E487B7100000000000000000000000000000000000000000000000000000000 PUSH1 0x0 MSTORE PUSH1 0x12 PUSH1 0x4 MSTORE PUSH1 0x24 PUSH1 0x0 REVERT JUMPDEST PUSH1 0x0 PUSH2 0x44C1 DUP3 PUSH2 0x3AB1 JUMP JUMPDEST SWAP2 POP PUSH2 0x44CC DUP4 PUSH2 0x3AB1 JUMP JUMPDEST SWAP3 POP DUP3 PUSH2 0x44DC JUMPI PUSH2 0x44DB PUSH2 0x4487 JUMP JUMPDEST JUMPDEST DUP3 DUP3 DIV SWAP1 POP SWAP3 SWAP2 POP POP JUMP JUMPDEST PUSH32 0x4E487B7100000000000000000000000000000000000000000000000000000000 PUSH1 0x0 MSTORE PUSH1 0x41 PUSH1 0x4 MSTORE PUSH1 0x24 PUSH1 0x0 REVERT INVALID LOG2 PUSH5 0x6970667358 0x22 SLT KECCAK256 0xB6 TIMESTAMP SELFBALANCE 0x2C 0xE5 MLOAD PUSH25 0x962DF6E09582FA209BAE1B948881600E96FDA5337C93898360 PUSH5 0x736F6C6343 STOP ADDMOD MULMOD STOP CALLER "
				},
				"gasEstimates": {
					"creation": {
						"codeDepositCost": "3548000",
						"executionCost": "infinite",
						"totalCost": "infinite"
					},
					"external": {
						"BONUS_COMPOUND_STEP(uint256)": "infinite",
						"BONUS_DAILY_COMPOUND(uint256)": "24861",
						"BONUS_DAILY_COMPOUND_BONUS_MAX_TIMES(uint256)": "24783",
						"Blacklisted(address)": "2999",
						"CHANGE_OWNERSHIP(address)": "26982",
						"COMPOUND_BONUS()": "2584",
						"COMPOUND_BONUS_MAX_TIMES()": "2518",
						"COMPOUND_FOR_NO_TAX_WITHDRAWAL()": "2561",
						"COMPOUND_STEP()": "2562",
						"CUTOFF_STEP()": "2498",
						"EGGS_TO_HIRE_1MINERS()": "2564",
						"MARKET_EGGS_DIVISOR()": "2519",
						"MIN_INVEST_LIMIT()": "2562",
						"MKT()": "2541",
						"PERCENTS_DIVIDER()": "2499",
						"PRC_EGGS_TO_HIRE_1MINERS(uint256)": "24816",
						"PRC_MARKET_EGGS_DIVISOR(uint256)": "24871",
						"PRC_MKT(uint256)": "24785",
						"PRC_REFERRAL(uint256)": "24906",
						"PRC_TAX(uint256)": "24784",
						"REFERRAL()": "2496",
						"SET_COMPOUND_FOR_NO_TAX_WITHDRAWAL(uint256)": "24804",
						"SET_CUTOFF_STEP(uint256)": "infinite",
						"SET_INVEST_MIN(uint256)": "infinite",
						"SET_WALLET_DEPOSIT_LIMIT(uint256)": "infinite",
						"SET_WITHDRAWAL_TAX(uint256)": "24828",
						"SET_WITHDRAW_COOLDOWN(uint256)": "infinite",
						"TAX()": "2496",
						"WALLET_DEPOSIT_LIMIT()": "2520",
						"WITHDRAWAL_TAX()": "2521",
						"WITHDRAW_COOLDOWN()": "2541",
						"blackListWallet(address,bool)": "27250",
						"blackMultipleWallets(address[],bool)": "infinite",
						"blacklistActive()": "2676",
						"calculateEggBuy(uint256,uint256)": "infinite",
						"calculateEggBuySimple(uint256)": "infinite",
						"calculateEggSell(uint256)": "infinite",
						"calculateEggSellForYield(uint256,uint256)": "infinite",
						"calculateTrade(uint256,uint256,uint256)": "infinite",
						"checkIfBlacklisted(address)": "5187",
						"contractStarted()": "2627",
						"dev1()": "2625",
						"dev2()": "2626",
						"dev3()": "2627",
						"fundContract()": "188",
						"getAvailableEarnings(address)": "infinite",
						"getBalance()": "408",
						"getDailyCompoundBonus(address,uint256)": "infinite",
						"getEggsSinceLastHatch(address)": "infinite",
						"getEggsYield(uint256)": "infinite",
						"getMyEggs()": "infinite",
						"getMyMiners()": "2668",
						"getSiteInfo()": "infinite",
						"getTimeStamp()": "447",
						"getUserInfo(address)": "infinite",
						"hireFarmers(address)": "infinite",
						"hireMoreFarmers(bool)": "infinite",
						"marketEggs()": "2563",
						"mkt()": "2605",
						"owner()": "2582",
						"prtnr1()": "2628",
						"prtnr2()": "2670",
						"sellCrops()": "infinite",
						"setblacklistActive(bool)": "26988",
						"startFarm(address)": "infinite",
						"totalCompound()": "2564",
						"totalDeposits()": "2542",
						"totalRefBonus()": "2518",
						"totalStaked()": "2563",
						"totalWithdrawn()": "2497",
						"users(address)": "infinite"
					},
					"internal": {
						"isContract(address)": "infinite",
						"min(uint256,uint256)": "64",
						"payFees(uint256)": "infinite",
						"sendRewardToReferrals(address,uint256)": "infinite"
					}
				},
				"methodIdentifiers": {
					"BONUS_COMPOUND_STEP(uint256)": "959c95b3",
					"BONUS_DAILY_COMPOUND(uint256)": "6f969d28",
					"BONUS_DAILY_COMPOUND_BONUS_MAX_TIMES(uint256)": "9b9cb69f",
					"Blacklisted(address)": "ffa4e618",
					"CHANGE_OWNERSHIP(address)": "2b039d0e",
					"COMPOUND_BONUS()": "d7206d5d",
					"COMPOUND_BONUS_MAX_TIMES()": "c688f0fb",
					"COMPOUND_FOR_NO_TAX_WITHDRAWAL()": "f6f62886",
					"COMPOUND_STEP()": "752a2628",
					"CUTOFF_STEP()": "3578584f",
					"EGGS_TO_HIRE_1MINERS()": "195a7339",
					"MARKET_EGGS_DIVISOR()": "59eec895",
					"MIN_INVEST_LIMIT()": "cd329fc3",
					"MKT()": "2bc82f7f",
					"PERCENTS_DIVIDER()": "01c234a8",
					"PRC_EGGS_TO_HIRE_1MINERS(uint256)": "e6dc9558",
					"PRC_MARKET_EGGS_DIVISOR(uint256)": "7a62ead7",
					"PRC_MKT(uint256)": "1a7b8d4f",
					"PRC_REFERRAL(uint256)": "570c2979",
					"PRC_TAX(uint256)": "298ea310",
					"REFERRAL()": "c63568c7",
					"SET_COMPOUND_FOR_NO_TAX_WITHDRAWAL(uint256)": "e7576943",
					"SET_CUTOFF_STEP(uint256)": "7c8e4b4c",
					"SET_INVEST_MIN(uint256)": "45f98c29",
					"SET_WALLET_DEPOSIT_LIMIT(uint256)": "7ee28e3c",
					"SET_WITHDRAWAL_TAX(uint256)": "bfa9f304",
					"SET_WITHDRAW_COOLDOWN(uint256)": "45a6a6e0",
					"TAX()": "68f58b03",
					"WALLET_DEPOSIT_LIMIT()": "1848b8dc",
					"WITHDRAWAL_TAX()": "0420c98e",
					"WITHDRAW_COOLDOWN()": "950d91e9",
					"blackListWallet(address,bool)": "d989b4b3",
					"blackMultipleWallets(address[],bool)": "eb271268",
					"blacklistActive()": "b6e6fcf6",
					"calculateEggBuy(uint256,uint256)": "26fd8422",
					"calculateEggBuySimple(uint256)": "7e56fde5",
					"calculateEggSell(uint256)": "8e316327",
					"calculateEggSellForYield(uint256,uint256)": "cc3e9c78",
					"calculateTrade(uint256,uint256,uint256)": "229824c4",
					"checkIfBlacklisted(address)": "c3251b40",
					"contractStarted()": "333f57b3",
					"dev1()": "a327c45d",
					"dev2()": "8013f3a7",
					"dev3()": "2362ce89",
					"fundContract()": "bd097e21",
					"getAvailableEarnings(address)": "64c03a5e",
					"getBalance()": "12065fe0",
					"getDailyCompoundBonus(address,uint256)": "50637dbd",
					"getEggsSinceLastHatch(address)": "d7c8843b",
					"getEggsYield(uint256)": "bdd1ca27",
					"getMyEggs()": "43ce7422",
					"getMyMiners()": "0a76e5ed",
					"getSiteInfo()": "4ce87053",
					"getTimeStamp()": "da235b22",
					"getUserInfo(address)": "6386c1c7",
					"hireFarmers(address)": "50cf1c7a",
					"hireMoreFarmers(bool)": "18c819d8",
					"marketEggs()": "2e9392bb",
					"mkt()": "7cc5b1e6",
					"owner()": "8da5cb5b",
					"prtnr1()": "07aeb7f0",
					"prtnr2()": "8a315efd",
					"sellCrops()": "57386225",
					"setblacklistActive(bool)": "9e9300a5",
					"startFarm(address)": "da5d4cc5",
					"totalCompound()": "7db07c9d",
					"totalDeposits()": "7d882097",
					"totalRefBonus()": "69b11dd5",
					"totalStaked()": "817b1cd2",
					"totalWithdrawn()": "4b319713",
					"users(address)": "a87430ba"
				}
			},
			"storageLayout": {
				"storage": [
					{
						"astId": 8,
						"contract": "contracts/cropsFarmer.sol:BNB_V3",
						"label": "EGGS_TO_HIRE_1MINERS",
						"offset": 0,
						"slot": "0",
						"type": "t_uint256"
					},
					{
						"astId": 11,
						"contract": "contracts/cropsFarmer.sol:BNB_V3",
						"label": "REFERRAL",
						"offset": 0,
						"slot": "1",
						"type": "t_uint256"
					},
					{
						"astId": 14,
						"contract": "contracts/cropsFarmer.sol:BNB_V3",
						"label": "PERCENTS_DIVIDER",
						"offset": 0,
						"slot": "2",
						"type": "t_uint256"
					},
					{
						"astId": 17,
						"contract": "contracts/cropsFarmer.sol:BNB_V3",
						"label": "TAX",
						"offset": 0,
						"slot": "3",
						"type": "t_uint256"
					},
					{
						"astId": 20,
						"contract": "contracts/cropsFarmer.sol:BNB_V3",
						"label": "MKT",
						"offset": 0,
						"slot": "4",
						"type": "t_uint256"
					},
					{
						"astId": 23,
						"contract": "contracts/cropsFarmer.sol:BNB_V3",
						"label": "MARKET_EGGS_DIVISOR",
						"offset": 0,
						"slot": "5",
						"type": "t_uint256"
					},
					{
						"astId": 28,
						"contract": "contracts/cropsFarmer.sol:BNB_V3",
						"label": "MIN_INVEST_LIMIT",
						"offset": 0,
						"slot": "6",
						"type": "t_uint256"
					},
					{
						"astId": 34,
						"contract": "contracts/cropsFarmer.sol:BNB_V3",
						"label": "WALLET_DEPOSIT_LIMIT",
						"offset": 0,
						"slot": "7",
						"type": "t_uint256"
					},
					{
						"astId": 38,
						"contract": "contracts/cropsFarmer.sol:BNB_V3",
						"label": "COMPOUND_BONUS",
						"offset": 0,
						"slot": "8",
						"type": "t_uint256"
					},
					{
						"astId": 41,
						"contract": "contracts/cropsFarmer.sol:BNB_V3",
						"label": "COMPOUND_BONUS_MAX_TIMES",
						"offset": 0,
						"slot": "9",
						"type": "t_uint256"
					},
					{
						"astId": 48,
						"contract": "contracts/cropsFarmer.sol:BNB_V3",
						"label": "COMPOUND_STEP",
						"offset": 0,
						"slot": "10",
						"type": "t_uint256"
					},
					{
						"astId": 51,
						"contract": "contracts/cropsFarmer.sol:BNB_V3",
						"label": "WITHDRAWAL_TAX",
						"offset": 0,
						"slot": "11",
						"type": "t_uint256"
					},
					{
						"astId": 54,
						"contract": "contracts/cropsFarmer.sol:BNB_V3",
						"label": "COMPOUND_FOR_NO_TAX_WITHDRAWAL",
						"offset": 0,
						"slot": "12",
						"type": "t_uint256"
					},
					{
						"astId": 56,
						"contract": "contracts/cropsFarmer.sol:BNB_V3",
						"label": "totalStaked",
						"offset": 0,
						"slot": "13",
						"type": "t_uint256"
					},
					{
						"astId": 58,
						"contract": "contracts/cropsFarmer.sol:BNB_V3",
						"label": "totalDeposits",
						"offset": 0,
						"slot": "14",
						"type": "t_uint256"
					},
					{
						"astId": 60,
						"contract": "contracts/cropsFarmer.sol:BNB_V3",
						"label": "totalCompound",
						"offset": 0,
						"slot": "15",
						"type": "t_uint256"
					},
					{
						"astId": 62,
						"contract": "contracts/cropsFarmer.sol:BNB_V3",
						"label": "totalRefBonus",
						"offset": 0,
						"slot": "16",
						"type": "t_uint256"
					},
					{
						"astId": 64,
						"contract": "contracts/cropsFarmer.sol:BNB_V3",
						"label": "totalWithdrawn",
						"offset": 0,
						"slot": "17",
						"type": "t_uint256"
					},
					{
						"astId": 66,
						"contract": "contracts/cropsFarmer.sol:BNB_V3",
						"label": "marketEggs",
						"offset": 0,
						"slot": "18",
						"type": "t_uint256"
					},
					{
						"astId": 69,
						"contract": "contracts/cropsFarmer.sol:BNB_V3",
						"label": "PSN",
						"offset": 0,
						"slot": "19",
						"type": "t_uint256"
					},
					{
						"astId": 72,
						"contract": "contracts/cropsFarmer.sol:BNB_V3",
						"label": "PSNH",
						"offset": 0,
						"slot": "20",
						"type": "t_uint256"
					},
					{
						"astId": 74,
						"contract": "contracts/cropsFarmer.sol:BNB_V3",
						"label": "contractStarted",
						"offset": 0,
						"slot": "21",
						"type": "t_bool"
					},
					{
						"astId": 77,
						"contract": "contracts/cropsFarmer.sol:BNB_V3",
						"label": "blacklistActive",
						"offset": 1,
						"slot": "21",
						"type": "t_bool"
					},
					{
						"astId": 81,
						"contract": "contracts/cropsFarmer.sol:BNB_V3",
						"label": "Blacklisted",
						"offset": 0,
						"slot": "22",
						"type": "t_mapping(t_address,t_bool)"
					},
					{
						"astId": 88,
						"contract": "contracts/cropsFarmer.sol:BNB_V3",
						"label": "CUTOFF_STEP",
						"offset": 0,
						"slot": "23",
						"type": "t_uint256"
					},
					{
						"astId": 95,
						"contract": "contracts/cropsFarmer.sol:BNB_V3",
						"label": "WITHDRAW_COOLDOWN",
						"offset": 0,
						"slot": "24",
						"type": "t_uint256"
					},
					{
						"astId": 97,
						"contract": "contracts/cropsFarmer.sol:BNB_V3",
						"label": "owner",
						"offset": 0,
						"slot": "25",
						"type": "t_address"
					},
					{
						"astId": 99,
						"contract": "contracts/cropsFarmer.sol:BNB_V3",
						"label": "dev1",
						"offset": 0,
						"slot": "26",
						"type": "t_address_payable"
					},
					{
						"astId": 101,
						"contract": "contracts/cropsFarmer.sol:BNB_V3",
						"label": "dev2",
						"offset": 0,
						"slot": "27",
						"type": "t_address_payable"
					},
					{
						"astId": 103,
						"contract": "contracts/cropsFarmer.sol:BNB_V3",
						"label": "dev3",
						"offset": 0,
						"slot": "28",
						"type": "t_address_payable"
					},
					{
						"astId": 105,
						"contract": "contracts/cropsFarmer.sol:BNB_V3",
						"label": "prtnr1",
						"offset": 0,
						"slot": "29",
						"type": "t_address_payable"
					},
					{
						"astId": 107,
						"contract": "contracts/cropsFarmer.sol:BNB_V3",
						"label": "prtnr2",
						"offset": 0,
						"slot": "30",
						"type": "t_address_payable"
					},
					{
						"astId": 109,
						"contract": "contracts/cropsFarmer.sol:BNB_V3",
						"label": "mkt",
						"offset": 0,
						"slot": "31",
						"type": "t_address_payable"
					},
					{
						"astId": 139,
						"contract": "contracts/cropsFarmer.sol:BNB_V3",
						"label": "users",
						"offset": 0,
						"slot": "32",
						"type": "t_mapping(t_address,t_struct(User)134_storage)"
					}
				],
				"types": {
					"t_address": {
						"encoding": "inplace",
						"label": "address",
						"numberOfBytes": "20"
					},
					"t_address_payable": {
						"encoding": "inplace",
						"label": "address payable",
						"numberOfBytes": "20"
					},
					"t_bool": {
						"encoding": "inplace",
						"label": "bool",
						"numberOfBytes": "1"
					},
					"t_mapping(t_address,t_bool)": {
						"encoding": "mapping",
						"key": "t_address",
						"label": "mapping(address => bool)",
						"numberOfBytes": "32",
						"value": "t_bool"
					},
					"t_mapping(t_address,t_struct(User)134_storage)": {
						"encoding": "mapping",
						"key": "t_address",
						"label": "mapping(address => struct BNB_V3.User)",
						"numberOfBytes": "32",
						"value": "t_struct(User)134_storage"
					},
					"t_struct(User)134_storage": {
						"encoding": "inplace",
						"label": "struct BNB_V3.User",
						"members": [
							{
								"astId": 111,
								"contract": "contracts/cropsFarmer.sol:BNB_V3",
								"label": "initialDeposit",
								"offset": 0,
								"slot": "0",
								"type": "t_uint256"
							},
							{
								"astId": 113,
								"contract": "contracts/cropsFarmer.sol:BNB_V3",
								"label": "userDeposit",
								"offset": 0,
								"slot": "1",
								"type": "t_uint256"
							},
							{
								"astId": 115,
								"contract": "contracts/cropsFarmer.sol:BNB_V3",
								"label": "miners",
								"offset": 0,
								"slot": "2",
								"type": "t_uint256"
							},
							{
								"astId": 117,
								"contract": "contracts/cropsFarmer.sol:BNB_V3",
								"label": "claimedEggs",
								"offset": 0,
								"slot": "3",
								"type": "t_uint256"
							},
							{
								"astId": 119,
								"contract": "contracts/cropsFarmer.sol:BNB_V3",
								"label": "lastHatch",
								"offset": 0,
								"slot": "4",
								"type": "t_uint256"
							},
							{
								"astId": 121,
								"contract": "contracts/cropsFarmer.sol:BNB_V3",
								"label": "referrer",
								"offset": 0,
								"slot": "5",
								"type": "t_address"
							},
							{
								"astId": 123,
								"contract": "contracts/cropsFarmer.sol:BNB_V3",
								"label": "referralsCount",
								"offset": 0,
								"slot": "6",
								"type": "t_uint256"
							},
							{
								"astId": 125,
								"contract": "contracts/cropsFarmer.sol:BNB_V3",
								"label": "referralEggRewards",
								"offset": 0,
								"slot": "7",
								"type": "t_uint256"
							},
							{
								"astId": 127,
								"contract": "contracts/cropsFarmer.sol:BNB_V3",
								"label": "totalWithdrawn",
								"offset": 0,
								"slot": "8",
								"type": "t_uint256"
							},
							{
								"astId": 129,
								"contract": "contracts/cropsFarmer.sol:BNB_V3",
								"label": "dailyCompoundBonus",
								"offset": 0,
								"slot": "9",
								"type": "t_uint256"
							},
							{
								"astId": 131,
								"contract": "contracts/cropsFarmer.sol:BNB_V3",
								"label": "farmerCompoundCount",
								"offset": 0,
								"slot": "10",
								"type": "t_uint256"
							},
							{
								"astId": 133,
								"contract": "contracts/cropsFarmer.sol:BNB_V3",
								"label": "lastWithdrawTime",
								"offset": 0,
								"slot": "11",
								"type": "t_uint256"
							}
						],
						"numberOfBytes": "384"
					},
					"t_uint256": {
						"encoding": "inplace",
						"label": "uint256",
						"numberOfBytes": "32"
					}
				}
			},
			"userdoc": {
				"kind": "user",
				"methods": {
					"COMPOUND_BONUS()": {
						"notice": "25 BNB  *"
					},
					"EGGS_TO_HIRE_1MINERS()": {
						"notice": "base parameters *"
					},
					"PRC_EGGS_TO_HIRE_1MINERS(uint256)": {
						"notice": "percentage setters *"
					},
					"WALLET_DEPOSIT_LIMIT()": {
						"notice": "0.1 BNB  *"
					},
					"getEggsYield(uint256)": {
						"notice": "How many miners and eggs per day user will recieve based on BNB deposit *"
					},
					"hireFarmers(address)": {
						"notice": "transfer amount of BNB *"
					}
				},
				"version": 1
			}
		}
	}
}