{
	"contracts/stake_reward_MLM.sol": {
		"Invest": {
			"abi": [
				{
					"inputs": [],
					"stateMutability": "nonpayable",
					"type": "constructor"
				},
				{
					"inputs": [],
					"name": "DUSDReferralsList",
					"outputs": [
						{
							"internalType": "address[]",
							"name": "",
							"type": "address[]"
						}
					],
					"stateMutability": "view",
					"type": "function"
				},
				{
					"inputs": [],
					"name": "DUSDTotalReferrals",
					"outputs": [
						{
							"internalType": "uint256",
							"name": "",
							"type": "uint256"
						}
					],
					"stateMutability": "view",
					"type": "function"
				},
				{
					"inputs": [
						{
							"internalType": "address",
							"name": "",
							"type": "address"
						}
					],
					"name": "DUSDinvestor",
					"outputs": [
						{
							"internalType": "address",
							"name": "referralFrom",
							"type": "address"
						},
						{
							"internalType": "uint256",
							"name": "reward",
							"type": "uint256"
						},
						{
							"internalType": "uint256",
							"name": "noOfInvestment",
							"type": "uint256"
						},
						{
							"internalType": "uint256",
							"name": "totalInvestment",
							"type": "uint256"
						},
						{
							"internalType": "bool",
							"name": "investBefore",
							"type": "bool"
						}
					],
					"stateMutability": "view",
					"type": "function"
				},
				{
					"inputs": [
						{
							"internalType": "uint256",
							"name": "_investedamount",
							"type": "uint256"
						},
						{
							"internalType": "uint256",
							"name": "_investmentPeriod",
							"type": "uint256"
						},
						{
							"internalType": "address",
							"name": "_referral",
							"type": "address"
						},
						{
							"internalType": "address",
							"name": "DUSDcontract",
							"type": "address"
						}
					],
					"name": "InvestDUSD",
					"outputs": [
						{
							"internalType": "bool",
							"name": "success",
							"type": "bool"
						}
					],
					"stateMutability": "payable",
					"type": "function"
				},
				{
					"inputs": [],
					"name": "getAllDUSDinvestments",
					"outputs": [
						{
							"components": [
								{
									"internalType": "uint256",
									"name": "investedAmount",
									"type": "uint256"
								},
								{
									"internalType": "uint256",
									"name": "withdrawnTime",
									"type": "uint256"
								},
								{
									"internalType": "uint256",
									"name": "investmentNum",
									"type": "uint256"
								}
							],
							"internalType": "struct Invest.allInvestments[]",
							"name": "",
							"type": "tuple[]"
						}
					],
					"stateMutability": "view",
					"type": "function"
				},
				{
					"inputs": [],
					"name": "getDUSDRewardBalance",
					"outputs": [
						{
							"internalType": "uint256",
							"name": "",
							"type": "uint256"
						}
					],
					"stateMutability": "view",
					"type": "function"
				},
				{
					"inputs": [],
					"name": "getTotalInvestmentDUSD",
					"outputs": [
						{
							"internalType": "uint256",
							"name": "",
							"type": "uint256"
						}
					],
					"stateMutability": "view",
					"type": "function"
				},
				{
					"inputs": [],
					"name": "owner",
					"outputs": [
						{
							"internalType": "address payable",
							"name": "",
							"type": "address"
						}
					],
					"stateMutability": "view",
					"type": "function"
				},
				{
					"inputs": [],
					"name": "ownerfees",
					"outputs": [
						{
							"internalType": "uint256",
							"name": "",
							"type": "uint256"
						}
					],
					"stateMutability": "view",
					"type": "function"
				},
				{
					"inputs": [],
					"name": "totalCUSTOMInvestors",
					"outputs": [
						{
							"internalType": "uint256",
							"name": "",
							"type": "uint256"
						}
					],
					"stateMutability": "view",
					"type": "function"
				},
				{
					"inputs": [],
					"name": "totalDUSDInvestors",
					"outputs": [
						{
							"internalType": "uint256",
							"name": "",
							"type": "uint256"
						}
					],
					"stateMutability": "view",
					"type": "function"
				},
				{
					"inputs": [],
					"name": "totalMUSDInvestors",
					"outputs": [
						{
							"internalType": "uint256",
							"name": "",
							"type": "uint256"
						}
					],
					"stateMutability": "view",
					"type": "function"
				},
				{
					"inputs": [
						{
							"internalType": "uint256",
							"name": "_id",
							"type": "uint256"
						},
						{
							"internalType": "address",
							"name": "DUSDcontract",
							"type": "address"
						}
					],
					"name": "withdrawDUSDInvestment",
					"outputs": [
						{
							"internalType": "bool",
							"name": "success",
							"type": "bool"
						}
					],
					"stateMutability": "payable",
					"type": "function"
				},
				{
					"inputs": [
						{
							"internalType": "address",
							"name": "DUSDcontract",
							"type": "address"
						}
					],
					"name": "withdrawDUSDReward",
					"outputs": [
						{
							"internalType": "bool",
							"name": "success",
							"type": "bool"
						}
					],
					"stateMutability": "payable",
					"type": "function"
				}
			],
			"devdoc": {
				"kind": "dev",
				"methods": {},
				"version": 1
			},
			"evm": {
				"assembly": "    /* \"contracts/stake_reward_MLM.sol\":260:9721  contract Invest... */\n  mstore(0x40, 0x80)\n    /* \"contracts/stake_reward_MLM.sol\":388:430  0x7EF2e0048f5bAeDe046f6BF797943daF4ED8CB47 */\n  0x7ef2e0048f5baede046f6bf797943daf4ed8cb47\n    /* \"contracts/stake_reward_MLM.sol\":367:430  address DUSDcontract=0x7EF2e0048f5bAeDe046f6BF797943daF4ED8CB47 */\n  0x02\n  exp(0x0100, 0x00)\n  dup2\n  sload\n  dup2\n  0xffffffffffffffffffffffffffffffffffffffff\n  mul\n  not\n  and\n  swap1\n  dup4\n  0xffffffffffffffffffffffffffffffffffffffff\n  and\n  mul\n  or\n  swap1\n  sstore\n  pop\n    /* \"contracts/stake_reward_MLM.sol\":1144:1363  constructor(){... */\n  callvalue\n  dup1\n  iszero\n  tag_1\n  jumpi\n  0x00\n  dup1\n  revert\ntag_1:\n  pop\n    /* \"contracts/stake_reward_MLM.sol\":1198:1208  msg.sender */\n  caller\n    /* \"contracts/stake_reward_MLM.sol\":1184:1189  owner */\n  0x00\n  dup1\n    /* \"contracts/stake_reward_MLM.sol\":1184:1209  owner=payable(msg.sender) */\n  0x0100\n  exp\n  dup2\n  sload\n  dup2\n  0xffffffffffffffffffffffffffffffffffffffff\n  mul\n  not\n  and\n  swap1\n  dup4\n  0xffffffffffffffffffffffffffffffffffffffff\n  and\n  mul\n  or\n  swap1\n  sstore\n  pop\n    /* \"contracts/stake_reward_MLM.sol\":1295:1306  0.003 ether */\n  0x0aa87bee538000\n    /* \"contracts/stake_reward_MLM.sol\":1285:1294  ownerfees */\n  0x01\n    /* \"contracts/stake_reward_MLM.sol\":1285:1306  ownerfees=0.003 ether */\n  dup2\n  swap1\n  sstore\n  pop\n    /* \"contracts/stake_reward_MLM.sol\":260:9721  contract Invest... */\n  dataSize(sub_0)\n  dup1\n  dataOffset(sub_0)\n  0x00\n  codecopy\n  0x00\n  return\nstop\n\nsub_0: assembly {\n        /* \"contracts/stake_reward_MLM.sol\":260:9721  contract Invest... */\n      mstore(0x40, 0x80)\n      jumpi(tag_1, lt(calldatasize, 0x04))\n      shr(0xe0, calldataload(0x00))\n      dup1\n      0x5194d5ac\n      gt\n      tag_16\n      jumpi\n      dup1\n      0x8da5cb5b\n      gt\n      tag_17\n      jumpi\n      dup1\n      0x8da5cb5b\n      eq\n      tag_12\n      jumpi\n      dup1\n      0x929f6bbe\n      eq\n      tag_13\n      jumpi\n      dup1\n      0xd0ff6e63\n      eq\n      tag_14\n      jumpi\n      dup1\n      0xd3560ee8\n      eq\n      tag_15\n      jumpi\n      jump(tag_1)\n    tag_17:\n      dup1\n      0x5194d5ac\n      eq\n      tag_9\n      jumpi\n      dup1\n      0x60fca6fd\n      eq\n      tag_10\n      jumpi\n      dup1\n      0x7b8246ce\n      eq\n      tag_11\n      jumpi\n      jump(tag_1)\n    tag_16:\n      dup1\n      0x1e8aba35\n      gt\n      tag_18\n      jumpi\n      dup1\n      0x1e8aba35\n      eq\n      tag_5\n      jumpi\n      dup1\n      0x349020cd\n      eq\n      tag_6\n      jumpi\n      dup1\n      0x3a1e0833\n      eq\n      tag_7\n      jumpi\n      dup1\n      0x3bf0200e\n      eq\n      tag_8\n      jumpi\n      jump(tag_1)\n    tag_18:\n      dup1\n      0x0a701f36\n      eq\n      tag_2\n      jumpi\n      dup1\n      0x0c5f58f4\n      eq\n      tag_3\n      jumpi\n      dup1\n      0x10cde60a\n      eq\n      tag_4\n      jumpi\n    tag_1:\n      0x00\n      dup1\n      revert\n        /* \"contracts/stake_reward_MLM.sol\":9109:9293  function getDUSDRewardBalance() view public returns(uint){ //this function is get the total reward balance of the investor... */\n    tag_2:\n      callvalue\n      dup1\n      iszero\n      tag_19\n      jumpi\n      0x00\n      dup1\n      revert\n    tag_19:\n      pop\n      tag_20\n      tag_21\n      jump\t// in\n    tag_20:\n      mload(0x40)\n      tag_22\n      swap2\n      swap1\n      tag_23\n      jump\t// in\n    tag_22:\n      mload(0x40)\n      dup1\n      swap2\n      sub\n      swap1\n      return\n        /* \"contracts/stake_reward_MLM.sol\":9504:9713  function DUSDReferralsList() public view returns(address[] memory){ //this function is to get the all investors list with there account number... */\n    tag_3:\n      callvalue\n      dup1\n      iszero\n      tag_24\n      jumpi\n      0x00\n      dup1\n      revert\n    tag_24:\n      pop\n      tag_25\n      tag_26\n      jump\t// in\n    tag_25:\n      mload(0x40)\n      tag_27\n      swap2\n      swap1\n      tag_28\n      jump\t// in\n    tag_27:\n      mload(0x40)\n      dup1\n      swap2\n      sub\n      swap1\n      return\n        /* \"contracts/stake_reward_MLM.sol\":586:616  uint public totalDUSDInvestors */\n    tag_4:\n      callvalue\n      dup1\n      iszero\n      tag_29\n      jumpi\n      0x00\n      dup1\n      revert\n    tag_29:\n      pop\n      tag_30\n      tag_31\n      jump\t// in\n    tag_30:\n      mload(0x40)\n      tag_32\n      swap2\n      swap1\n      tag_23\n      jump\t// in\n    tag_32:\n      mload(0x40)\n      dup1\n      swap2\n      sub\n      swap1\n      return\n        /* \"contracts/stake_reward_MLM.sol\":9303:9494  function DUSDTotalReferrals() public view returns(uint){ // this function is to get the total number of referrals ... */\n    tag_5:\n      callvalue\n      dup1\n      iszero\n      tag_33\n      jumpi\n      0x00\n      dup1\n      revert\n    tag_33:\n      pop\n      tag_34\n      tag_35\n      jump\t// in\n    tag_34:\n      mload(0x40)\n      tag_36\n      swap2\n      swap1\n      tag_23\n      jump\t// in\n    tag_36:\n      mload(0x40)\n      dup1\n      swap2\n      sub\n      swap1\n      return\n        /* \"contracts/stake_reward_MLM.sol\":5139:6365  function withdrawDUSDReward(address DUSDcontract) external payable returns (bool success){... */\n    tag_6:\n      tag_37\n      0x04\n      dup1\n      calldatasize\n      sub\n      dup2\n      add\n      swap1\n      tag_38\n      swap2\n      swap1\n      tag_39\n      jump\t// in\n    tag_38:\n      tag_40\n      jump\t// in\n    tag_37:\n      mload(0x40)\n      tag_41\n      swap2\n      swap1\n      tag_42\n      jump\t// in\n    tag_41:\n      mload(0x40)\n      dup1\n      swap2\n      sub\n      swap1\n      return\n        /* \"contracts/stake_reward_MLM.sol\":8116:9099  function getAllDUSDinvestments() public view returns (allInvestments[] memory) { //this function will return the all investments of the investor and withware date... */\n    tag_7:\n      callvalue\n      dup1\n      iszero\n      tag_43\n      jumpi\n      0x00\n      dup1\n      revert\n    tag_43:\n      pop\n      tag_44\n      tag_45\n      jump\t// in\n    tag_44:\n      mload(0x40)\n      tag_46\n      swap2\n      swap1\n      tag_47\n      jump\t// in\n    tag_46:\n      mload(0x40)\n      dup1\n      swap2\n      sub\n      swap1\n      return\n        /* \"contracts/stake_reward_MLM.sol\":6376:7886  function withdrawDUSDInvestment(uint _id,address DUSDcontract) external payable returns (bool success){... */\n    tag_8:\n      tag_48\n      0x04\n      dup1\n      calldatasize\n      sub\n      dup2\n      add\n      swap1\n      tag_49\n      swap2\n      swap1\n      tag_50\n      jump\t// in\n    tag_49:\n      tag_51\n      jump\t// in\n    tag_48:\n      mload(0x40)\n      tag_52\n      swap2\n      swap1\n      tag_42\n      jump\t// in\n    tag_52:\n      mload(0x40)\n      dup1\n      swap2\n      sub\n      swap1\n      return\n        /* \"contracts/stake_reward_MLM.sol\":2848:5128  function InvestDUSD(uint _investedamount,uint _investmentPeriod,address _referral,address DUSDcontract) external payable returns(bool success){... */\n    tag_9:\n      tag_53\n      0x04\n      dup1\n      calldatasize\n      sub\n      dup2\n      add\n      swap1\n      tag_54\n      swap2\n      swap1\n      tag_55\n      jump\t// in\n    tag_54:\n      tag_56\n      jump\t// in\n    tag_53:\n      mload(0x40)\n      tag_57\n      swap2\n      swap1\n      tag_42\n      jump\t// in\n    tag_57:\n      mload(0x40)\n      dup1\n      swap2\n      sub\n      swap1\n      return\n        /* \"contracts/stake_reward_MLM.sol\":626:656  uint public totalMUSDInvestors */\n    tag_10:\n      callvalue\n      dup1\n      iszero\n      tag_58\n      jumpi\n      0x00\n      dup1\n      revert\n    tag_58:\n      pop\n      tag_59\n      tag_60\n      jump\t// in\n    tag_59:\n      mload(0x40)\n      tag_61\n      swap2\n      swap1\n      tag_23\n      jump\t// in\n    tag_61:\n      mload(0x40)\n      dup1\n      swap2\n      sub\n      swap1\n      return\n        /* \"contracts/stake_reward_MLM.sol\":544:576  uint public totalCUSTOMInvestors */\n    tag_11:\n      callvalue\n      dup1\n      iszero\n      tag_62\n      jumpi\n      0x00\n      dup1\n      revert\n    tag_62:\n      pop\n      tag_63\n      tag_64\n      jump\t// in\n    tag_63:\n      mload(0x40)\n      tag_65\n      swap2\n      swap1\n      tag_23\n      jump\t// in\n    tag_65:\n      mload(0x40)\n      dup1\n      swap2\n      sub\n      swap1\n      return\n        /* \"contracts/stake_reward_MLM.sol\":298:326  address payable public owner */\n    tag_12:\n      callvalue\n      dup1\n      iszero\n      tag_66\n      jumpi\n      0x00\n      dup1\n      revert\n    tag_66:\n      pop\n      tag_67\n      tag_68\n      jump\t// in\n    tag_67:\n      mload(0x40)\n      tag_69\n      swap2\n      swap1\n      tag_70\n      jump\t// in\n    tag_69:\n      mload(0x40)\n      dup1\n      swap2\n      sub\n      swap1\n      return\n        /* \"contracts/stake_reward_MLM.sol\":7896:8106  function getTotalInvestmentDUSD() public view returns(uint) {   //this function is to get the total investment of the ivestor... */\n    tag_13:\n      callvalue\n      dup1\n      iszero\n      tag_71\n      jumpi\n      0x00\n      dup1\n      revert\n    tag_71:\n      pop\n      tag_72\n      tag_73\n      jump\t// in\n    tag_72:\n      mload(0x40)\n      tag_74\n      swap2\n      swap1\n      tag_23\n      jump\t// in\n    tag_74:\n      mload(0x40)\n      dup1\n      swap2\n      sub\n      swap1\n      return\n        /* \"contracts/stake_reward_MLM.sol\":336:357  uint public ownerfees */\n    tag_14:\n      callvalue\n      dup1\n      iszero\n      tag_75\n      jumpi\n      0x00\n      dup1\n      revert\n    tag_75:\n      pop\n      tag_76\n      tag_77\n      jump\t// in\n    tag_76:\n      mload(0x40)\n      tag_78\n      swap2\n      swap1\n      tag_23\n      jump\t// in\n    tag_78:\n      mload(0x40)\n      dup1\n      swap2\n      sub\n      swap1\n      return\n        /* \"contracts/stake_reward_MLM.sol\":1091:1133  mapping(address=>Data) public DUSDinvestor */\n    tag_15:\n      callvalue\n      dup1\n      iszero\n      tag_79\n      jumpi\n      0x00\n      dup1\n      revert\n    tag_79:\n      pop\n      tag_80\n      0x04\n      dup1\n      calldatasize\n      sub\n      dup2\n      add\n      swap1\n      tag_81\n      swap2\n      swap1\n      tag_39\n      jump\t// in\n    tag_81:\n      tag_82\n      jump\t// in\n    tag_80:\n      mload(0x40)\n      tag_83\n      swap6\n      swap5\n      swap4\n      swap3\n      swap2\n      swap1\n      tag_84\n      jump\t// in\n    tag_83:\n      mload(0x40)\n      dup1\n      swap2\n      sub\n      swap1\n      return\n        /* \"contracts/stake_reward_MLM.sol\":9109:9293  function getDUSDRewardBalance() view public returns(uint){ //this function is get the total reward balance of the investor... */\n    tag_21:\n        /* \"contracts/stake_reward_MLM.sol\":9161:9165  uint */\n      0x00\n        /* \"contracts/stake_reward_MLM.sol\":9251:9263  DUSDinvestor */\n      0x07\n        /* \"contracts/stake_reward_MLM.sol\":9251:9275  DUSDinvestor[msg.sender] */\n      0x00\n        /* \"contracts/stake_reward_MLM.sol\":9264:9274  msg.sender */\n      caller\n        /* \"contracts/stake_reward_MLM.sol\":9251:9275  DUSDinvestor[msg.sender] */\n      0xffffffffffffffffffffffffffffffffffffffff\n      and\n      0xffffffffffffffffffffffffffffffffffffffff\n      and\n      dup2\n      mstore\n      0x20\n      add\n      swap1\n      dup2\n      mstore\n      0x20\n      add\n      0x00\n      keccak256\n        /* \"contracts/stake_reward_MLM.sol\":9251:9282  DUSDinvestor[msg.sender].reward */\n      0x03\n      add\n      sload\n        /* \"contracts/stake_reward_MLM.sol\":9244:9282  return DUSDinvestor[msg.sender].reward */\n      swap1\n      pop\n        /* \"contracts/stake_reward_MLM.sol\":9109:9293  function getDUSDRewardBalance() view public returns(uint){ //this function is get the total reward balance of the investor... */\n      swap1\n      jump\t// out\n        /* \"contracts/stake_reward_MLM.sol\":9504:9713  function DUSDReferralsList() public view returns(address[] memory){ //this function is to get the all investors list with there account number... */\n    tag_26:\n        /* \"contracts/stake_reward_MLM.sol\":9553:9569  address[] memory */\n      0x60\n        /* \"contracts/stake_reward_MLM.sol\":9665:9677  DUSDinvestor */\n      0x07\n        /* \"contracts/stake_reward_MLM.sol\":9665:9689  DUSDinvestor[msg.sender] */\n      0x00\n        /* \"contracts/stake_reward_MLM.sol\":9678:9688  msg.sender */\n      caller\n        /* \"contracts/stake_reward_MLM.sol\":9665:9689  DUSDinvestor[msg.sender] */\n      0xffffffffffffffffffffffffffffffffffffffff\n      and\n      0xffffffffffffffffffffffffffffffffffffffff\n      and\n      dup2\n      mstore\n      0x20\n      add\n      swap1\n      dup2\n      mstore\n      0x20\n      add\n      0x00\n      keccak256\n        /* \"contracts/stake_reward_MLM.sol\":9665:9702  DUSDinvestor[msg.sender].hisReferrals */\n      0x01\n      add\n        /* \"contracts/stake_reward_MLM.sol\":9658:9702  return DUSDinvestor[msg.sender].hisReferrals */\n      dup1\n      sload\n      dup1\n      0x20\n      mul\n      0x20\n      add\n      mload(0x40)\n      swap1\n      dup2\n      add\n      0x40\n      mstore\n      dup1\n      swap3\n      swap2\n      swap1\n      dup2\n      dup2\n      mstore\n      0x20\n      add\n      dup3\n      dup1\n      sload\n      dup1\n      iszero\n      tag_87\n      jumpi\n      0x20\n      mul\n      dup3\n      add\n      swap2\n      swap1\n      0x00\n      mstore\n      keccak256(0x00, 0x20)\n      swap1\n    tag_88:\n      dup2\n      0x00\n      swap1\n      sload\n      swap1\n      0x0100\n      exp\n      swap1\n      div\n      0xffffffffffffffffffffffffffffffffffffffff\n      and\n      0xffffffffffffffffffffffffffffffffffffffff\n      and\n      dup2\n      mstore\n      0x20\n      add\n      swap1\n      0x01\n      add\n      swap1\n      dup1\n      dup4\n      gt\n      tag_88\n      jumpi\n    tag_87:\n      pop\n      pop\n      pop\n      pop\n      pop\n      swap1\n      pop\n        /* \"contracts/stake_reward_MLM.sol\":9504:9713  function DUSDReferralsList() public view returns(address[] memory){ //this function is to get the all investors list with there account number... */\n      swap1\n      jump\t// out\n        /* \"contracts/stake_reward_MLM.sol\":586:616  uint public totalDUSDInvestors */\n    tag_31:\n      sload(0x05)\n      dup2\n      jump\t// out\n        /* \"contracts/stake_reward_MLM.sol\":9303:9494  function DUSDTotalReferrals() public view returns(uint){ // this function is to get the total number of referrals ... */\n    tag_35:\n        /* \"contracts/stake_reward_MLM.sol\":9353:9357  uint */\n      0x00\n        /* \"contracts/stake_reward_MLM.sol\":9438:9450  DUSDinvestor */\n      0x07\n        /* \"contracts/stake_reward_MLM.sol\":9438:9462  DUSDinvestor[msg.sender] */\n      0x00\n        /* \"contracts/stake_reward_MLM.sol\":9451:9461  msg.sender */\n      caller\n        /* \"contracts/stake_reward_MLM.sol\":9438:9462  DUSDinvestor[msg.sender] */\n      0xffffffffffffffffffffffffffffffffffffffff\n      and\n      0xffffffffffffffffffffffffffffffffffffffff\n      and\n      dup2\n      mstore\n      0x20\n      add\n      swap1\n      dup2\n      mstore\n      0x20\n      add\n      0x00\n      keccak256\n        /* \"contracts/stake_reward_MLM.sol\":9438:9475  DUSDinvestor[msg.sender].hisReferrals */\n      0x01\n      add\n        /* \"contracts/stake_reward_MLM.sol\":9437:9483  (DUSDinvestor[msg.sender].hisReferrals).length */\n      dup1\n      sload\n      swap1\n      pop\n        /* \"contracts/stake_reward_MLM.sol\":9430:9483  return (DUSDinvestor[msg.sender].hisReferrals).length */\n      swap1\n      pop\n        /* \"contracts/stake_reward_MLM.sol\":9303:9494  function DUSDTotalReferrals() public view returns(uint){ // this function is to get the total number of referrals ... */\n      swap1\n      jump\t// out\n        /* \"contracts/stake_reward_MLM.sol\":5139:6365  function withdrawDUSDReward(address DUSDcontract) external payable returns (bool success){... */\n    tag_40:\n        /* \"contracts/stake_reward_MLM.sol\":5215:5227  bool success */\n      0x00\n        /* \"contracts/stake_reward_MLM.sol\":5262:5271  ownerfees */\n      sload(0x01)\n        /* \"contracts/stake_reward_MLM.sol\":5251:5260  msg.value */\n      callvalue\n        /* \"contracts/stake_reward_MLM.sol\":5251:5271  msg.value==ownerfees */\n      eq\n        /* \"contracts/stake_reward_MLM.sol\":5243:5293  require(msg.value==ownerfees,\"fees is not enough\") */\n      tag_91\n      jumpi\n      mload(0x40)\n      0x08c379a000000000000000000000000000000000000000000000000000000000\n      dup2\n      mstore\n      0x04\n      add\n      tag_92\n      swap1\n      tag_93\n      jump\t// in\n    tag_92:\n      mload(0x40)\n      dup1\n      swap2\n      sub\n      swap1\n      revert\n    tag_91:\n        /* \"contracts/stake_reward_MLM.sol\":5441:5442  0 */\n      0x00\n        /* \"contracts/stake_reward_MLM.sol\":5409:5421  DUSDinvestor */\n      0x07\n        /* \"contracts/stake_reward_MLM.sol\":5409:5433  DUSDinvestor[msg.sender] */\n      0x00\n        /* \"contracts/stake_reward_MLM.sol\":5422:5432  msg.sender */\n      caller\n        /* \"contracts/stake_reward_MLM.sol\":5409:5433  DUSDinvestor[msg.sender] */\n      0xffffffffffffffffffffffffffffffffffffffff\n      and\n      0xffffffffffffffffffffffffffffffffffffffff\n      and\n      dup2\n      mstore\n      0x20\n      add\n      swap1\n      dup2\n      mstore\n      0x20\n      add\n      0x00\n      keccak256\n        /* \"contracts/stake_reward_MLM.sol\":5409:5440  DUSDinvestor[msg.sender].reward */\n      0x03\n      add\n      sload\n        /* \"contracts/stake_reward_MLM.sol\":5409:5442  DUSDinvestor[msg.sender].reward>0 */\n      gt\n        /* \"contracts/stake_reward_MLM.sol\":5401:5480  require(DUSDinvestor[msg.sender].reward>0,\"you dont have rewards to withdrawn\") */\n      tag_94\n      jumpi\n      mload(0x40)\n      0x08c379a000000000000000000000000000000000000000000000000000000000\n      dup2\n      mstore\n      0x04\n      add\n      tag_95\n      swap1\n      tag_96\n      jump\t// in\n    tag_95:\n      mload(0x40)\n      dup1\n      swap2\n      sub\n      swap1\n      revert\n    tag_94:\n        /* \"contracts/stake_reward_MLM.sol\":5613:5614  5 */\n      0x05\n        /* \"contracts/stake_reward_MLM.sol\":5567:5579  DUSDinvestor */\n      0x07\n        /* \"contracts/stake_reward_MLM.sol\":5567:5591  DUSDinvestor[msg.sender] */\n      0x00\n        /* \"contracts/stake_reward_MLM.sol\":5580:5590  msg.sender */\n      caller\n        /* \"contracts/stake_reward_MLM.sol\":5567:5591  DUSDinvestor[msg.sender] */\n      0xffffffffffffffffffffffffffffffffffffffff\n      and\n      0xffffffffffffffffffffffffffffffffffffffff\n      and\n      dup2\n      mstore\n      0x20\n      add\n      swap1\n      dup2\n      mstore\n      0x20\n      add\n      0x00\n      keccak256\n        /* \"contracts/stake_reward_MLM.sol\":5567:5604  DUSDinvestor[msg.sender].hisReferrals */\n      0x01\n      add\n        /* \"contracts/stake_reward_MLM.sol\":5567:5611  DUSDinvestor[msg.sender].hisReferrals.length */\n      dup1\n      sload\n      swap1\n      pop\n        /* \"contracts/stake_reward_MLM.sol\":5567:5614  DUSDinvestor[msg.sender].hisReferrals.length>=5 */\n      lt\n      iszero\n        /* \"contracts/stake_reward_MLM.sol\":5559:5682  require(DUSDinvestor[msg.sender].hisReferrals.length>=5,\"you should have minimum 5 referrals then you can withdraw reward\") */\n      tag_97\n      jumpi\n      mload(0x40)\n      0x08c379a000000000000000000000000000000000000000000000000000000000\n      dup2\n      mstore\n      0x04\n      add\n      tag_98\n      swap1\n      tag_99\n      jump\t// in\n    tag_98:\n      mload(0x40)\n      dup1\n      swap2\n      sub\n      swap1\n      revert\n    tag_97:\n        /* \"contracts/stake_reward_MLM.sol\":5941:5952  uint amount */\n      0x00\n        /* \"contracts/stake_reward_MLM.sol\":5953:5965  DUSDinvestor */\n      0x07\n        /* \"contracts/stake_reward_MLM.sol\":5953:5977  DUSDinvestor[msg.sender] */\n      0x00\n        /* \"contracts/stake_reward_MLM.sol\":5966:5976  msg.sender */\n      caller\n        /* \"contracts/stake_reward_MLM.sol\":5953:5977  DUSDinvestor[msg.sender] */\n      0xffffffffffffffffffffffffffffffffffffffff\n      and\n      0xffffffffffffffffffffffffffffffffffffffff\n      and\n      dup2\n      mstore\n      0x20\n      add\n      swap1\n      dup2\n      mstore\n      0x20\n      add\n      0x00\n      keccak256\n        /* \"contracts/stake_reward_MLM.sol\":5953:5984  DUSDinvestor[msg.sender].reward */\n      0x03\n      add\n      sload\n        /* \"contracts/stake_reward_MLM.sol\":5941:5984  uint amount=DUSDinvestor[msg.sender].reward */\n      swap1\n      pop\n        /* \"contracts/stake_reward_MLM.sol\":6007:6019  DUSDcontract */\n      dup3\n        /* \"contracts/stake_reward_MLM.sol\":6002:6029  DUSD(DUSDcontract).transfer */\n      0xffffffffffffffffffffffffffffffffffffffff\n      and\n      0xa9059cbb\n        /* \"contracts/stake_reward_MLM.sol\":6030:6040  msg.sender */\n      caller\n        /* \"contracts/stake_reward_MLM.sol\":6041:6047  amount */\n      dup4\n        /* \"contracts/stake_reward_MLM.sol\":6002:6048  DUSD(DUSDcontract).transfer(msg.sender,amount) */\n      mload(0x40)\n      dup4\n      0xffffffff\n      and\n      0xe0\n      shl\n      dup2\n      mstore\n      0x04\n      add\n      tag_100\n      swap3\n      swap2\n      swap1\n      tag_101\n      jump\t// in\n    tag_100:\n      0x20\n      mload(0x40)\n      dup1\n      dup4\n      sub\n      dup2\n      0x00\n      dup8\n      dup1\n      extcodesize\n      iszero\n      dup1\n      iszero\n      tag_102\n      jumpi\n      0x00\n      dup1\n      revert\n    tag_102:\n      pop\n      gas\n      call\n      iszero\n      dup1\n      iszero\n      tag_104\n      jumpi\n      returndatasize\n      0x00\n      dup1\n      returndatacopy\n      revert(0x00, returndatasize)\n    tag_104:\n      pop\n      pop\n      pop\n      pop\n      mload(0x40)\n      returndatasize\n      not(0x1f)\n      0x1f\n      dup3\n      add\n      and\n      dup3\n      add\n      dup1\n      0x40\n      mstore\n      pop\n      dup2\n      add\n      swap1\n      tag_105\n      swap2\n      swap1\n      tag_106\n      jump\t// in\n    tag_105:\n      pop\n        /* \"contracts/stake_reward_MLM.sol\":6157:6158  0 */\n      0x00\n        /* \"contracts/stake_reward_MLM.sol\":6125:6137  DUSDinvestor */\n      0x07\n        /* \"contracts/stake_reward_MLM.sol\":6125:6149  DUSDinvestor[msg.sender] */\n      0x00\n        /* \"contracts/stake_reward_MLM.sol\":6138:6148  msg.sender */\n      caller\n        /* \"contracts/stake_reward_MLM.sol\":6125:6149  DUSDinvestor[msg.sender] */\n      0xffffffffffffffffffffffffffffffffffffffff\n      and\n      0xffffffffffffffffffffffffffffffffffffffff\n      and\n      dup2\n      mstore\n      0x20\n      add\n      swap1\n      dup2\n      mstore\n      0x20\n      add\n      0x00\n      keccak256\n        /* \"contracts/stake_reward_MLM.sol\":6125:6156  DUSDinvestor[msg.sender].reward */\n      0x03\n      add\n        /* \"contracts/stake_reward_MLM.sol\":6125:6158  DUSDinvestor[msg.sender].reward=0 */\n      dup2\n      swap1\n      sstore\n      pop\n        /* \"contracts/stake_reward_MLM.sol\":6221:6226  owner */\n      0x00\n      dup1\n      sload\n      swap1\n      0x0100\n      exp\n      swap1\n      div\n      0xffffffffffffffffffffffffffffffffffffffff\n      and\n        /* \"contracts/stake_reward_MLM.sol\":6221:6235  owner.transfer */\n      0xffffffffffffffffffffffffffffffffffffffff\n      and\n        /* \"contracts/stake_reward_MLM.sol\":6221:6246  owner.transfer(msg.value) */\n      0x08fc\n        /* \"contracts/stake_reward_MLM.sol\":6236:6245  msg.value */\n      callvalue\n        /* \"contracts/stake_reward_MLM.sol\":6221:6246  owner.transfer(msg.value) */\n      swap1\n      dup2\n      iszero\n      mul\n      swap1\n      mload(0x40)\n      0x00\n      mload(0x40)\n      dup1\n      dup4\n      sub\n      dup2\n      dup6\n      dup9\n      dup9\n      call\n      swap4\n      pop\n      pop\n      pop\n      pop\n      iszero\n      dup1\n      iszero\n      tag_108\n      jumpi\n      returndatasize\n      0x00\n      dup1\n      returndatacopy\n      revert(0x00, returndatasize)\n    tag_108:\n      pop\n        /* \"contracts/stake_reward_MLM.sol\":6349:6353  true */\n      0x01\n        /* \"contracts/stake_reward_MLM.sol\":6342:6353  return true */\n      swap2\n      pop\n      pop\n        /* \"contracts/stake_reward_MLM.sol\":5139:6365  function withdrawDUSDReward(address DUSDcontract) external payable returns (bool success){... */\n      swap2\n      swap1\n      pop\n      jump\t// out\n        /* \"contracts/stake_reward_MLM.sol\":8116:9099  function getAllDUSDinvestments() public view returns (allInvestments[] memory) { //this function will return the all investments of the investor and withware date... */\n    tag_45:\n        /* \"contracts/stake_reward_MLM.sol\":8170:8193  allInvestments[] memory */\n      0x60\n        /* \"contracts/stake_reward_MLM.sol\":8291:8299  uint num */\n      0x00\n        /* \"contracts/stake_reward_MLM.sol\":8302:8314  DUSDinvestor */\n      0x07\n        /* \"contracts/stake_reward_MLM.sol\":8302:8326  DUSDinvestor[msg.sender] */\n      0x00\n        /* \"contracts/stake_reward_MLM.sol\":8315:8325  msg.sender */\n      caller\n        /* \"contracts/stake_reward_MLM.sol\":8302:8326  DUSDinvestor[msg.sender] */\n      0xffffffffffffffffffffffffffffffffffffffff\n      and\n      0xffffffffffffffffffffffffffffffffffffffff\n      and\n      dup2\n      mstore\n      0x20\n      add\n      swap1\n      dup2\n      mstore\n      0x20\n      add\n      0x00\n      keccak256\n        /* \"contracts/stake_reward_MLM.sol\":8302:8341  DUSDinvestor[msg.sender].noOfInvestment */\n      0x04\n      add\n      sload\n        /* \"contracts/stake_reward_MLM.sol\":8291:8341  uint num = DUSDinvestor[msg.sender].noOfInvestment */\n      swap1\n      pop\n        /* \"contracts/stake_reward_MLM.sol\":8355:8364  uint temp */\n      0x00\n        /* \"contracts/stake_reward_MLM.sol\":8378:8395  uint currentIndex */\n      dup1\n        /* \"contracts/stake_reward_MLM.sol\":8426:8432  uint i */\n      0x00\n        /* \"contracts/stake_reward_MLM.sol\":8422:8598  for(uint i=0;i<num;i++)... */\n    tag_110:\n        /* \"contracts/stake_reward_MLM.sol\":8437:8440  num */\n      dup4\n        /* \"contracts/stake_reward_MLM.sol\":8435:8436  i */\n      dup2\n        /* \"contracts/stake_reward_MLM.sol\":8435:8440  i<num */\n      lt\n        /* \"contracts/stake_reward_MLM.sol\":8422:8598  for(uint i=0;i<num;i++)... */\n      iszero\n      tag_111\n      jumpi\n        /* \"contracts/stake_reward_MLM.sol\":8535:8536  0 */\n      0x00\n        /* \"contracts/stake_reward_MLM.sol\":8479:8491  DUSDinvestor */\n      0x07\n        /* \"contracts/stake_reward_MLM.sol\":8479:8503  DUSDinvestor[msg.sender] */\n      0x00\n        /* \"contracts/stake_reward_MLM.sol\":8492:8502  msg.sender */\n      caller\n        /* \"contracts/stake_reward_MLM.sol\":8479:8503  DUSDinvestor[msg.sender] */\n      0xffffffffffffffffffffffffffffffffffffffff\n      and\n      0xffffffffffffffffffffffffffffffffffffffff\n      and\n      dup2\n      mstore\n      0x20\n      add\n      swap1\n      dup2\n      mstore\n      0x20\n      add\n      0x00\n      keccak256\n        /* \"contracts/stake_reward_MLM.sol\":8479:8514  DUSDinvestor[msg.sender].investment */\n      0x00\n      add\n        /* \"contracts/stake_reward_MLM.sol\":8479:8517  DUSDinvestor[msg.sender].investment[i] */\n      0x00\n        /* \"contracts/stake_reward_MLM.sol\":8515:8516  i */\n      dup4\n        /* \"contracts/stake_reward_MLM.sol\":8479:8517  DUSDinvestor[msg.sender].investment[i] */\n      dup2\n      mstore\n      0x20\n      add\n      swap1\n      dup2\n      mstore\n      0x20\n      add\n      0x00\n      keccak256\n        /* \"contracts/stake_reward_MLM.sol\":8479:8532  DUSDinvestor[msg.sender].investment[i].investedAmount */\n      0x00\n      add\n      sload\n        /* \"contracts/stake_reward_MLM.sol\":8479:8536  DUSDinvestor[msg.sender].investment[i].investedAmount > 0 */\n      gt\n        /* \"contracts/stake_reward_MLM.sol\":8475:8583  if( DUSDinvestor[msg.sender].investment[i].investedAmount > 0 ){... */\n      iszero\n      tag_113\n      jumpi\n        /* \"contracts/stake_reward_MLM.sol\":8559:8565  temp++ */\n      dup3\n      dup1\n      tag_114\n      swap1\n      tag_115\n      jump\t// in\n    tag_114:\n      swap4\n      pop\n      pop\n        /* \"contracts/stake_reward_MLM.sol\":8475:8583  if( DUSDinvestor[msg.sender].investment[i].investedAmount > 0 ){... */\n    tag_113:\n        /* \"contracts/stake_reward_MLM.sol\":8441:8444  i++ */\n      dup1\n      dup1\n      tag_116\n      swap1\n      tag_115\n      jump\t// in\n    tag_116:\n      swap2\n      pop\n      pop\n        /* \"contracts/stake_reward_MLM.sol\":8422:8598  for(uint i=0;i<num;i++)... */\n      jump(tag_110)\n    tag_111:\n      pop\n        /* \"contracts/stake_reward_MLM.sol\":8621:8653  allInvestments[] memory Invested */\n      0x00\n        /* \"contracts/stake_reward_MLM.sol\":8678:8682  temp */\n      dup3\n        /* \"contracts/stake_reward_MLM.sol\":8657:8683  new allInvestments[](temp) */\n      0xffffffffffffffff\n      dup2\n      gt\n      iszero\n      tag_117\n      jumpi\n      tag_118\n      tag_119\n      jump\t// in\n    tag_118:\n    tag_117:\n      mload(0x40)\n      swap1\n      dup1\n      dup3\n      mstore\n      dup1\n      0x20\n      mul\n      0x20\n      add\n      dup3\n      add\n      0x40\n      mstore\n      dup1\n      iszero\n      tag_120\n      jumpi\n      dup2\n      0x20\n      add\n    tag_121:\n      tag_122\n      tag_123\n      jump\t// in\n    tag_122:\n      dup2\n      mstore\n      0x20\n      add\n      swap1\n      0x01\n      swap1\n      sub\n      swap1\n      dup2\n      tag_121\n      jumpi\n      swap1\n      pop\n    tag_120:\n      pop\n        /* \"contracts/stake_reward_MLM.sol\":8621:8683  allInvestments[] memory Invested =  new allInvestments[](temp) */\n      swap1\n      pop\n        /* \"contracts/stake_reward_MLM.sol\":8703:8709  uint i */\n      0x00\n        /* \"contracts/stake_reward_MLM.sol\":8699:9059  for(uint i=0;i<num;i++)... */\n    tag_124:\n        /* \"contracts/stake_reward_MLM.sol\":8714:8717  num */\n      dup5\n        /* \"contracts/stake_reward_MLM.sol\":8712:8713  i */\n      dup2\n        /* \"contracts/stake_reward_MLM.sol\":8712:8717  i<num */\n      lt\n        /* \"contracts/stake_reward_MLM.sol\":8699:9059  for(uint i=0;i<num;i++)... */\n      iszero\n      tag_125\n      jumpi\n        /* \"contracts/stake_reward_MLM.sol\":8812:8813  0 */\n      0x00\n        /* \"contracts/stake_reward_MLM.sol\":8756:8768  DUSDinvestor */\n      0x07\n        /* \"contracts/stake_reward_MLM.sol\":8756:8780  DUSDinvestor[msg.sender] */\n      0x00\n        /* \"contracts/stake_reward_MLM.sol\":8769:8779  msg.sender */\n      caller\n        /* \"contracts/stake_reward_MLM.sol\":8756:8780  DUSDinvestor[msg.sender] */\n      0xffffffffffffffffffffffffffffffffffffffff\n      and\n      0xffffffffffffffffffffffffffffffffffffffff\n      and\n      dup2\n      mstore\n      0x20\n      add\n      swap1\n      dup2\n      mstore\n      0x20\n      add\n      0x00\n      keccak256\n        /* \"contracts/stake_reward_MLM.sol\":8756:8791  DUSDinvestor[msg.sender].investment */\n      0x00\n      add\n        /* \"contracts/stake_reward_MLM.sol\":8756:8794  DUSDinvestor[msg.sender].investment[i] */\n      0x00\n        /* \"contracts/stake_reward_MLM.sol\":8792:8793  i */\n      dup4\n        /* \"contracts/stake_reward_MLM.sol\":8756:8794  DUSDinvestor[msg.sender].investment[i] */\n      dup2\n      mstore\n      0x20\n      add\n      swap1\n      dup2\n      mstore\n      0x20\n      add\n      0x00\n      keccak256\n        /* \"contracts/stake_reward_MLM.sol\":8756:8809  DUSDinvestor[msg.sender].investment[i].investedAmount */\n      0x00\n      add\n      sload\n        /* \"contracts/stake_reward_MLM.sol\":8756:8813  DUSDinvestor[msg.sender].investment[i].investedAmount > 0 */\n      gt\n        /* \"contracts/stake_reward_MLM.sol\":8752:9044  if( DUSDinvestor[msg.sender].investment[i].investedAmount > 0 ){... */\n      iszero\n      tag_127\n      jumpi\n        /* \"contracts/stake_reward_MLM.sol\":8953:8965  DUSDinvestor */\n      0x07\n        /* \"contracts/stake_reward_MLM.sol\":8953:8977  DUSDinvestor[msg.sender] */\n      0x00\n        /* \"contracts/stake_reward_MLM.sol\":8966:8976  msg.sender */\n      caller\n        /* \"contracts/stake_reward_MLM.sol\":8953:8977  DUSDinvestor[msg.sender] */\n      0xffffffffffffffffffffffffffffffffffffffff\n      and\n      0xffffffffffffffffffffffffffffffffffffffff\n      and\n      dup2\n      mstore\n      0x20\n      add\n      swap1\n      dup2\n      mstore\n      0x20\n      add\n      0x00\n      keccak256\n        /* \"contracts/stake_reward_MLM.sol\":8953:8988  DUSDinvestor[msg.sender].investment */\n      0x00\n      add\n        /* \"contracts/stake_reward_MLM.sol\":8953:8991  DUSDinvestor[msg.sender].investment[i] */\n      0x00\n        /* \"contracts/stake_reward_MLM.sol\":8989:8990  i */\n      dup3\n        /* \"contracts/stake_reward_MLM.sol\":8953:8991  DUSDinvestor[msg.sender].investment[i] */\n      dup2\n      mstore\n      0x20\n      add\n      swap1\n      dup2\n      mstore\n      0x20\n      add\n      0x00\n      keccak256\n        /* \"contracts/stake_reward_MLM.sol\":8930:8991  Invested[currentIndex]=DUSDinvestor[msg.sender].investment[i] */\n      mload(0x40)\n      dup1\n      0x60\n      add\n      0x40\n      mstore\n      swap1\n      dup2\n      0x00\n      dup3\n      add\n      sload\n      dup2\n      mstore\n      0x20\n      add\n      0x01\n      dup3\n      add\n      sload\n      dup2\n      mstore\n      0x20\n      add\n      0x02\n      dup3\n      add\n      sload\n      dup2\n      mstore\n      pop\n      pop\n        /* \"contracts/stake_reward_MLM.sol\":8930:8938  Invested */\n      dup3\n        /* \"contracts/stake_reward_MLM.sol\":8939:8951  currentIndex */\n      dup5\n        /* \"contracts/stake_reward_MLM.sol\":8930:8952  Invested[currentIndex] */\n      dup2\n      mload\n      dup2\n      lt\n      tag_128\n      jumpi\n      tag_129\n      tag_130\n      jump\t// in\n    tag_129:\n    tag_128:\n      0x20\n      mul\n      0x20\n      add\n      add\n        /* \"contracts/stake_reward_MLM.sol\":8930:8991  Invested[currentIndex]=DUSDinvestor[msg.sender].investment[i] */\n      dup2\n      swap1\n      mstore\n      pop\n        /* \"contracts/stake_reward_MLM.sol\":9012:9026  currentIndex++ */\n      dup3\n      dup1\n      tag_131\n      swap1\n      tag_115\n      jump\t// in\n    tag_131:\n      swap4\n      pop\n      pop\n        /* \"contracts/stake_reward_MLM.sol\":8752:9044  if( DUSDinvestor[msg.sender].investment[i].investedAmount > 0 ){... */\n    tag_127:\n        /* \"contracts/stake_reward_MLM.sol\":8718:8721  i++ */\n      dup1\n      dup1\n      tag_132\n      swap1\n      tag_115\n      jump\t// in\n    tag_132:\n      swap2\n      pop\n      pop\n        /* \"contracts/stake_reward_MLM.sol\":8699:9059  for(uint i=0;i<num;i++)... */\n      jump(tag_124)\n    tag_125:\n      pop\n        /* \"contracts/stake_reward_MLM.sol\":9079:9087  Invested */\n      dup1\n        /* \"contracts/stake_reward_MLM.sol\":9072:9087  return Invested */\n      swap5\n      pop\n      pop\n      pop\n      pop\n      pop\n        /* \"contracts/stake_reward_MLM.sol\":8116:9099  function getAllDUSDinvestments() public view returns (allInvestments[] memory) { //this function will return the all investments of the investor and withware date... */\n      swap1\n      jump\t// out\n        /* \"contracts/stake_reward_MLM.sol\":6376:7886  function withdrawDUSDInvestment(uint _id,address DUSDcontract) external payable returns (bool success){... */\n    tag_51:\n        /* \"contracts/stake_reward_MLM.sol\":6465:6477  bool success */\n      0x00\n        /* \"contracts/stake_reward_MLM.sol\":6512:6521  ownerfees */\n      sload(0x01)\n        /* \"contracts/stake_reward_MLM.sol\":6501:6510  msg.value */\n      callvalue\n        /* \"contracts/stake_reward_MLM.sol\":6501:6521  msg.value==ownerfees */\n      eq\n        /* \"contracts/stake_reward_MLM.sol\":6493:6543  require(msg.value==ownerfees,\"fees is not enough\") */\n      tag_134\n      jumpi\n      mload(0x40)\n      0x08c379a000000000000000000000000000000000000000000000000000000000\n      dup2\n      mstore\n      0x04\n      add\n      tag_135\n      swap1\n      tag_93\n      jump\t// in\n    tag_135:\n      mload(0x40)\n      dup1\n      swap2\n      sub\n      swap1\n      revert\n    tag_134:\n        /* \"contracts/stake_reward_MLM.sol\":6745:6760  block.timestamp */\n      timestamp\n        /* \"contracts/stake_reward_MLM.sol\":6690:6702  DUSDinvestor */\n      0x07\n        /* \"contracts/stake_reward_MLM.sol\":6690:6714  DUSDinvestor[msg.sender] */\n      0x00\n        /* \"contracts/stake_reward_MLM.sol\":6703:6713  msg.sender */\n      caller\n        /* \"contracts/stake_reward_MLM.sol\":6690:6714  DUSDinvestor[msg.sender] */\n      0xffffffffffffffffffffffffffffffffffffffff\n      and\n      0xffffffffffffffffffffffffffffffffffffffff\n      and\n      dup2\n      mstore\n      0x20\n      add\n      swap1\n      dup2\n      mstore\n      0x20\n      add\n      0x00\n      keccak256\n        /* \"contracts/stake_reward_MLM.sol\":6690:6725  DUSDinvestor[msg.sender].investment */\n      0x00\n      add\n        /* \"contracts/stake_reward_MLM.sol\":6690:6730  DUSDinvestor[msg.sender].investment[_id] */\n      0x00\n        /* \"contracts/stake_reward_MLM.sol\":6726:6729  _id */\n      dup6\n        /* \"contracts/stake_reward_MLM.sol\":6690:6730  DUSDinvestor[msg.sender].investment[_id] */\n      dup2\n      mstore\n      0x20\n      add\n      swap1\n      dup2\n      mstore\n      0x20\n      add\n      0x00\n      keccak256\n        /* \"contracts/stake_reward_MLM.sol\":6690:6744  DUSDinvestor[msg.sender].investment[_id].withdrawnTime */\n      0x01\n      add\n      sload\n        /* \"contracts/stake_reward_MLM.sol\":6690:6760  DUSDinvestor[msg.sender].investment[_id].withdrawnTime<block.timestamp */\n      lt\n        /* \"contracts/stake_reward_MLM.sol\":6682:6795  require(DUSDinvestor[msg.sender].investment[_id].withdrawnTime<block.timestamp,\"this is not your withdrawn time\") */\n      tag_136\n      jumpi\n      mload(0x40)\n      0x08c379a000000000000000000000000000000000000000000000000000000000\n      dup2\n      mstore\n      0x04\n      add\n      tag_137\n      swap1\n      tag_138\n      jump\t// in\n    tag_137:\n      mload(0x40)\n      dup1\n      swap2\n      sub\n      swap1\n      revert\n    tag_136:\n        /* \"contracts/stake_reward_MLM.sol\":6951:6952  0 */\n      0x00\n        /* \"contracts/stake_reward_MLM.sol\":6895:6907  DUSDinvestor */\n      0x07\n        /* \"contracts/stake_reward_MLM.sol\":6895:6919  DUSDinvestor[msg.sender] */\n      0x00\n        /* \"contracts/stake_reward_MLM.sol\":6908:6918  msg.sender */\n      caller\n        /* \"contracts/stake_reward_MLM.sol\":6895:6919  DUSDinvestor[msg.sender] */\n      0xffffffffffffffffffffffffffffffffffffffff\n      and\n      0xffffffffffffffffffffffffffffffffffffffff\n      and\n      dup2\n      mstore\n      0x20\n      add\n      swap1\n      dup2\n      mstore\n      0x20\n      add\n      0x00\n      keccak256\n        /* \"contracts/stake_reward_MLM.sol\":6895:6930  DUSDinvestor[msg.sender].investment */\n      0x00\n      add\n        /* \"contracts/stake_reward_MLM.sol\":6895:6935  DUSDinvestor[msg.sender].investment[_id] */\n      0x00\n        /* \"contracts/stake_reward_MLM.sol\":6931:6934  _id */\n      dup6\n        /* \"contracts/stake_reward_MLM.sol\":6895:6935  DUSDinvestor[msg.sender].investment[_id] */\n      dup2\n      mstore\n      0x20\n      add\n      swap1\n      dup2\n      mstore\n      0x20\n      add\n      0x00\n      keccak256\n        /* \"contracts/stake_reward_MLM.sol\":6895:6950  DUSDinvestor[msg.sender].investment[_id].investedAmount */\n      0x00\n      add\n      sload\n        /* \"contracts/stake_reward_MLM.sol\":6895:6952  DUSDinvestor[msg.sender].investment[_id].investedAmount>0 */\n      gt\n        /* \"contracts/stake_reward_MLM.sol\":6887:6993  require(DUSDinvestor[msg.sender].investment[_id].investedAmount>0,\"you dont have investment to withdrawn\") */\n      tag_139\n      jumpi\n      mload(0x40)\n      0x08c379a000000000000000000000000000000000000000000000000000000000\n      dup2\n      mstore\n      0x04\n      add\n      tag_140\n      swap1\n      tag_141\n      jump\t// in\n    tag_140:\n      mload(0x40)\n      dup1\n      swap2\n      sub\n      swap1\n      revert\n    tag_139:\n        /* \"contracts/stake_reward_MLM.sol\":7227:7238  uint amount */\n      0x00\n        /* \"contracts/stake_reward_MLM.sol\":7239:7251  DUSDinvestor */\n      0x07\n        /* \"contracts/stake_reward_MLM.sol\":7239:7263  DUSDinvestor[msg.sender] */\n      0x00\n        /* \"contracts/stake_reward_MLM.sol\":7252:7262  msg.sender */\n      caller\n        /* \"contracts/stake_reward_MLM.sol\":7239:7263  DUSDinvestor[msg.sender] */\n      0xffffffffffffffffffffffffffffffffffffffff\n      and\n      0xffffffffffffffffffffffffffffffffffffffff\n      and\n      dup2\n      mstore\n      0x20\n      add\n      swap1\n      dup2\n      mstore\n      0x20\n      add\n      0x00\n      keccak256\n        /* \"contracts/stake_reward_MLM.sol\":7239:7274  DUSDinvestor[msg.sender].investment */\n      0x00\n      add\n        /* \"contracts/stake_reward_MLM.sol\":7239:7279  DUSDinvestor[msg.sender].investment[_id] */\n      0x00\n        /* \"contracts/stake_reward_MLM.sol\":7275:7278  _id */\n      dup6\n        /* \"contracts/stake_reward_MLM.sol\":7239:7279  DUSDinvestor[msg.sender].investment[_id] */\n      dup2\n      mstore\n      0x20\n      add\n      swap1\n      dup2\n      mstore\n      0x20\n      add\n      0x00\n      keccak256\n        /* \"contracts/stake_reward_MLM.sol\":7239:7294  DUSDinvestor[msg.sender].investment[_id].investedAmount */\n      0x00\n      add\n      sload\n        /* \"contracts/stake_reward_MLM.sol\":7227:7294  uint amount=DUSDinvestor[msg.sender].investment[_id].investedAmount */\n      swap1\n      pop\n        /* \"contracts/stake_reward_MLM.sol\":7314:7326  DUSDcontract */\n      dup3\n        /* \"contracts/stake_reward_MLM.sol\":7309:7336  DUSD(DUSDcontract).transfer */\n      0xffffffffffffffffffffffffffffffffffffffff\n      and\n      0xa9059cbb\n        /* \"contracts/stake_reward_MLM.sol\":7337:7347  msg.sender */\n      caller\n        /* \"contracts/stake_reward_MLM.sol\":7348:7354  amount */\n      dup4\n        /* \"contracts/stake_reward_MLM.sol\":7309:7355  DUSD(DUSDcontract).transfer(msg.sender,amount) */\n      mload(0x40)\n      dup4\n      0xffffffff\n      and\n      0xe0\n      shl\n      dup2\n      mstore\n      0x04\n      add\n      tag_142\n      swap3\n      swap2\n      swap1\n      tag_101\n      jump\t// in\n    tag_142:\n      0x20\n      mload(0x40)\n      dup1\n      dup4\n      sub\n      dup2\n      0x00\n      dup8\n      dup1\n      extcodesize\n      iszero\n      dup1\n      iszero\n      tag_143\n      jumpi\n      0x00\n      dup1\n      revert\n    tag_143:\n      pop\n      gas\n      call\n      iszero\n      dup1\n      iszero\n      tag_145\n      jumpi\n      returndatasize\n      0x00\n      dup1\n      returndatacopy\n      revert(0x00, returndatasize)\n    tag_145:\n      pop\n      pop\n      pop\n      pop\n      mload(0x40)\n      returndatasize\n      not(0x1f)\n      0x1f\n      dup3\n      add\n      and\n      dup3\n      add\n      dup1\n      0x40\n      mstore\n      pop\n      dup2\n      add\n      swap1\n      tag_146\n      swap2\n      swap1\n      tag_106\n      jump\t// in\n    tag_146:\n      pop\n        /* \"contracts/stake_reward_MLM.sol\":7493:7494  0 */\n      0x00\n        /* \"contracts/stake_reward_MLM.sol\":7437:7449  DUSDinvestor */\n      0x07\n        /* \"contracts/stake_reward_MLM.sol\":7437:7461  DUSDinvestor[msg.sender] */\n      0x00\n        /* \"contracts/stake_reward_MLM.sol\":7450:7460  msg.sender */\n      caller\n        /* \"contracts/stake_reward_MLM.sol\":7437:7461  DUSDinvestor[msg.sender] */\n      0xffffffffffffffffffffffffffffffffffffffff\n      and\n      0xffffffffffffffffffffffffffffffffffffffff\n      and\n      dup2\n      mstore\n      0x20\n      add\n      swap1\n      dup2\n      mstore\n      0x20\n      add\n      0x00\n      keccak256\n        /* \"contracts/stake_reward_MLM.sol\":7437:7472  DUSDinvestor[msg.sender].investment */\n      0x00\n      add\n        /* \"contracts/stake_reward_MLM.sol\":7437:7477  DUSDinvestor[msg.sender].investment[_id] */\n      0x00\n        /* \"contracts/stake_reward_MLM.sol\":7473:7476  _id */\n      dup7\n        /* \"contracts/stake_reward_MLM.sol\":7437:7477  DUSDinvestor[msg.sender].investment[_id] */\n      dup2\n      mstore\n      0x20\n      add\n      swap1\n      dup2\n      mstore\n      0x20\n      add\n      0x00\n      keccak256\n        /* \"contracts/stake_reward_MLM.sol\":7437:7492  DUSDinvestor[msg.sender].investment[_id].investedAmount */\n      0x00\n      add\n        /* \"contracts/stake_reward_MLM.sol\":7437:7494  DUSDinvestor[msg.sender].investment[_id].investedAmount=0 */\n      dup2\n      swap1\n      sstore\n      pop\n        /* \"contracts/stake_reward_MLM.sol\":7673:7679  amount */\n      dup1\n        /* \"contracts/stake_reward_MLM.sol\":7631:7643  DUSDinvestor */\n      0x07\n        /* \"contracts/stake_reward_MLM.sol\":7631:7655  DUSDinvestor[msg.sender] */\n      0x00\n        /* \"contracts/stake_reward_MLM.sol\":7644:7654  msg.sender */\n      caller\n        /* \"contracts/stake_reward_MLM.sol\":7631:7655  DUSDinvestor[msg.sender] */\n      0xffffffffffffffffffffffffffffffffffffffff\n      and\n      0xffffffffffffffffffffffffffffffffffffffff\n      and\n      dup2\n      mstore\n      0x20\n      add\n      swap1\n      dup2\n      mstore\n      0x20\n      add\n      0x00\n      keccak256\n        /* \"contracts/stake_reward_MLM.sol\":7631:7671  DUSDinvestor[msg.sender].totalInvestment */\n      0x05\n      add\n      0x00\n        /* \"contracts/stake_reward_MLM.sol\":7631:7679  DUSDinvestor[msg.sender].totalInvestment-=amount */\n      dup3\n      dup3\n      sload\n      tag_147\n      swap2\n      swap1\n      tag_148\n      jump\t// in\n    tag_147:\n      swap3\n      pop\n      pop\n      dup2\n      swap1\n      sstore\n      pop\n        /* \"contracts/stake_reward_MLM.sol\":7762:7767  owner */\n      0x00\n      dup1\n      sload\n      swap1\n      0x0100\n      exp\n      swap1\n      div\n      0xffffffffffffffffffffffffffffffffffffffff\n      and\n        /* \"contracts/stake_reward_MLM.sol\":7762:7776  owner.transfer */\n      0xffffffffffffffffffffffffffffffffffffffff\n      and\n        /* \"contracts/stake_reward_MLM.sol\":7762:7787  owner.transfer(msg.value) */\n      0x08fc\n        /* \"contracts/stake_reward_MLM.sol\":7777:7786  msg.value */\n      callvalue\n        /* \"contracts/stake_reward_MLM.sol\":7762:7787  owner.transfer(msg.value) */\n      swap1\n      dup2\n      iszero\n      mul\n      swap1\n      mload(0x40)\n      0x00\n      mload(0x40)\n      dup1\n      dup4\n      sub\n      dup2\n      dup6\n      dup9\n      dup9\n      call\n      swap4\n      pop\n      pop\n      pop\n      pop\n      iszero\n      dup1\n      iszero\n      tag_150\n      jumpi\n      returndatasize\n      0x00\n      dup1\n      returndatacopy\n      revert(0x00, returndatasize)\n    tag_150:\n      pop\n        /* \"contracts/stake_reward_MLM.sol\":7870:7874  true */\n      0x01\n        /* \"contracts/stake_reward_MLM.sol\":7863:7874  return true */\n      swap2\n      pop\n      pop\n        /* \"contracts/stake_reward_MLM.sol\":6376:7886  function withdrawDUSDInvestment(uint _id,address DUSDcontract) external payable returns (bool success){... */\n      swap3\n      swap2\n      pop\n      pop\n      jump\t// out\n        /* \"contracts/stake_reward_MLM.sol\":2848:5128  function InvestDUSD(uint _investedamount,uint _investmentPeriod,address _referral,address DUSDcontract) external payable returns(bool success){... */\n    tag_56:\n        /* \"contracts/stake_reward_MLM.sol\":2977:2989  bool success */\n      0x00\n        /* \"contracts/stake_reward_MLM.sol\":3030:3031  0 */\n      dup1\n        /* \"contracts/stake_reward_MLM.sol\":3012:3027  _investedamount */\n      dup6\n        /* \"contracts/stake_reward_MLM.sol\":3012:3031  _investedamount > 0 */\n      gt\n        /* \"contracts/stake_reward_MLM.sol\":3004:3062  require(_investedamount > 0,\"value is not greater than 0\") */\n      tag_152\n      jumpi\n      mload(0x40)\n      0x08c379a000000000000000000000000000000000000000000000000000000000\n      dup2\n      mstore\n      0x04\n      add\n      tag_153\n      swap1\n      tag_154\n      jump\t// in\n    tag_153:\n      mload(0x40)\n      dup1\n      swap2\n      sub\n      swap1\n      revert\n    tag_152:\n        /* \"contracts/stake_reward_MLM.sol\":3155:3164  ownerfees */\n      sload(0x01)\n        /* \"contracts/stake_reward_MLM.sol\":3144:3153  msg.value */\n      callvalue\n        /* \"contracts/stake_reward_MLM.sol\":3144:3164  msg.value==ownerfees */\n      eq\n        /* \"contracts/stake_reward_MLM.sol\":3136:3186  require(msg.value==ownerfees,\"fees is not enough\") */\n      tag_155\n      jumpi\n      mload(0x40)\n      0x08c379a000000000000000000000000000000000000000000000000000000000\n      dup2\n      mstore\n      0x04\n      add\n      tag_156\n      swap1\n      tag_93\n      jump\t// in\n    tag_156:\n      mload(0x40)\n      dup1\n      swap2\n      sub\n      swap1\n      revert\n    tag_155:\n        /* \"contracts/stake_reward_MLM.sol\":3520:3525  false */\n      0x00\n        /* \"contracts/stake_reward_MLM.sol\":3479:3525  DUSDinvestor[msg.sender].investBefore == false */\n      iszero\n      iszero\n        /* \"contracts/stake_reward_MLM.sol\":3479:3491  DUSDinvestor */\n      0x07\n        /* \"contracts/stake_reward_MLM.sol\":3479:3503  DUSDinvestor[msg.sender] */\n      0x00\n        /* \"contracts/stake_reward_MLM.sol\":3492:3502  msg.sender */\n      caller\n        /* \"contracts/stake_reward_MLM.sol\":3479:3503  DUSDinvestor[msg.sender] */\n      0xffffffffffffffffffffffffffffffffffffffff\n      and\n      0xffffffffffffffffffffffffffffffffffffffff\n      and\n      dup2\n      mstore\n      0x20\n      add\n      swap1\n      dup2\n      mstore\n      0x20\n      add\n      0x00\n      keccak256\n        /* \"contracts/stake_reward_MLM.sol\":3479:3516  DUSDinvestor[msg.sender].investBefore */\n      0x06\n      add\n      0x00\n      swap1\n      sload\n      swap1\n      0x0100\n      exp\n      swap1\n      div\n      0xff\n      and\n        /* \"contracts/stake_reward_MLM.sol\":3479:3525  DUSDinvestor[msg.sender].investBefore == false */\n      iszero\n      iszero\n      eq\n        /* \"contracts/stake_reward_MLM.sol\":3476:3630  if(DUSDinvestor[msg.sender].investBefore == false)... */\n      iszero\n      tag_157\n      jumpi\n        /* \"contracts/stake_reward_MLM.sol\":3558:3576  totalDUSDInvestors */\n      0x05\n      0x00\n        /* \"contracts/stake_reward_MLM.sol\":3558:3578  totalDUSDInvestors++ */\n      dup2\n      sload\n      dup1\n      swap3\n      swap2\n      swap1\n      tag_158\n      swap1\n      tag_115\n      jump\t// in\n    tag_158:\n      swap2\n      swap1\n      pop\n      sstore\n      pop\n        /* \"contracts/stake_reward_MLM.sol\":3476:3630  if(DUSDinvestor[msg.sender].investBefore == false)... */\n    tag_157:\n        /* \"contracts/stake_reward_MLM.sol\":3644:3652  uint num */\n      0x00\n        /* \"contracts/stake_reward_MLM.sol\":3655:3667  DUSDinvestor */\n      0x07\n        /* \"contracts/stake_reward_MLM.sol\":3655:3679  DUSDinvestor[msg.sender] */\n      0x00\n        /* \"contracts/stake_reward_MLM.sol\":3668:3678  msg.sender */\n      caller\n        /* \"contracts/stake_reward_MLM.sol\":3655:3679  DUSDinvestor[msg.sender] */\n      0xffffffffffffffffffffffffffffffffffffffff\n      and\n      0xffffffffffffffffffffffffffffffffffffffff\n      and\n      dup2\n      mstore\n      0x20\n      add\n      swap1\n      dup2\n      mstore\n      0x20\n      add\n      0x00\n      keccak256\n        /* \"contracts/stake_reward_MLM.sol\":3655:3694  DUSDinvestor[msg.sender].noOfInvestment */\n      0x04\n      add\n      sload\n        /* \"contracts/stake_reward_MLM.sol\":3644:3694  uint num = DUSDinvestor[msg.sender].noOfInvestment */\n      swap1\n      pop\n        /* \"contracts/stake_reward_MLM.sol\":3765:3780  _investedamount */\n      dup6\n        /* \"contracts/stake_reward_MLM.sol\":3708:3720  DUSDinvestor */\n      0x07\n        /* \"contracts/stake_reward_MLM.sol\":3708:3732  DUSDinvestor[msg.sender] */\n      0x00\n        /* \"contracts/stake_reward_MLM.sol\":3721:3731  msg.sender */\n      caller\n        /* \"contracts/stake_reward_MLM.sol\":3708:3732  DUSDinvestor[msg.sender] */\n      0xffffffffffffffffffffffffffffffffffffffff\n      and\n      0xffffffffffffffffffffffffffffffffffffffff\n      and\n      dup2\n      mstore\n      0x20\n      add\n      swap1\n      dup2\n      mstore\n      0x20\n      add\n      0x00\n      keccak256\n        /* \"contracts/stake_reward_MLM.sol\":3708:3743  DUSDinvestor[msg.sender].investment */\n      0x00\n      add\n        /* \"contracts/stake_reward_MLM.sol\":3708:3748  DUSDinvestor[msg.sender].investment[num] */\n      0x00\n        /* \"contracts/stake_reward_MLM.sol\":3744:3747  num */\n      dup4\n        /* \"contracts/stake_reward_MLM.sol\":3708:3748  DUSDinvestor[msg.sender].investment[num] */\n      dup2\n      mstore\n      0x20\n      add\n      swap1\n      dup2\n      mstore\n      0x20\n      add\n      0x00\n      keccak256\n        /* \"contracts/stake_reward_MLM.sol\":3708:3763  DUSDinvestor[msg.sender].investment[num].investedAmount */\n      0x00\n      add\n        /* \"contracts/stake_reward_MLM.sol\":3708:3780  DUSDinvestor[msg.sender].investment[num].investedAmount =_investedamount */\n      dup2\n      swap1\n      sstore\n      pop\n        /* \"contracts/stake_reward_MLM.sol\":3888:3894  1 days */\n      0x015180\n        /* \"contracts/stake_reward_MLM.sol\":3868:3885  _investmentPeriod */\n      dup6\n        /* \"contracts/stake_reward_MLM.sol\":3868:3894  _investmentPeriod * 1 days */\n      tag_159\n      swap2\n      swap1\n      tag_160\n      jump\t// in\n    tag_159:\n        /* \"contracts/stake_reward_MLM.sol\":3849:3864  block.timestamp */\n      timestamp\n        /* \"contracts/stake_reward_MLM.sol\":3849:3895  block.timestamp + (_investmentPeriod * 1 days) */\n      tag_161\n      swap2\n      swap1\n      tag_162\n      jump\t// in\n    tag_161:\n        /* \"contracts/stake_reward_MLM.sol\":3794:3806  DUSDinvestor */\n      0x07\n        /* \"contracts/stake_reward_MLM.sol\":3794:3818  DUSDinvestor[msg.sender] */\n      0x00\n        /* \"contracts/stake_reward_MLM.sol\":3807:3817  msg.sender */\n      caller\n        /* \"contracts/stake_reward_MLM.sol\":3794:3818  DUSDinvestor[msg.sender] */\n      0xffffffffffffffffffffffffffffffffffffffff\n      and\n      0xffffffffffffffffffffffffffffffffffffffff\n      and\n      dup2\n      mstore\n      0x20\n      add\n      swap1\n      dup2\n      mstore\n      0x20\n      add\n      0x00\n      keccak256\n        /* \"contracts/stake_reward_MLM.sol\":3794:3829  DUSDinvestor[msg.sender].investment */\n      0x00\n      add\n        /* \"contracts/stake_reward_MLM.sol\":3794:3834  DUSDinvestor[msg.sender].investment[num] */\n      0x00\n        /* \"contracts/stake_reward_MLM.sol\":3830:3833  num */\n      dup4\n        /* \"contracts/stake_reward_MLM.sol\":3794:3834  DUSDinvestor[msg.sender].investment[num] */\n      dup2\n      mstore\n      0x20\n      add\n      swap1\n      dup2\n      mstore\n      0x20\n      add\n      0x00\n      keccak256\n        /* \"contracts/stake_reward_MLM.sol\":3794:3848  DUSDinvestor[msg.sender].investment[num].withdrawnTime */\n      0x01\n      add\n        /* \"contracts/stake_reward_MLM.sol\":3794:3895  DUSDinvestor[msg.sender].investment[num].withdrawnTime=block.timestamp + (_investmentPeriod * 1 days) */\n      dup2\n      swap1\n      sstore\n      pop\n        /* \"contracts/stake_reward_MLM.sol\":3964:3967  num */\n      dup1\n        /* \"contracts/stake_reward_MLM.sol\":3909:3921  DUSDinvestor */\n      0x07\n        /* \"contracts/stake_reward_MLM.sol\":3909:3933  DUSDinvestor[msg.sender] */\n      0x00\n        /* \"contracts/stake_reward_MLM.sol\":3922:3932  msg.sender */\n      caller\n        /* \"contracts/stake_reward_MLM.sol\":3909:3933  DUSDinvestor[msg.sender] */\n      0xffffffffffffffffffffffffffffffffffffffff\n      and\n      0xffffffffffffffffffffffffffffffffffffffff\n      and\n      dup2\n      mstore\n      0x20\n      add\n      swap1\n      dup2\n      mstore\n      0x20\n      add\n      0x00\n      keccak256\n        /* \"contracts/stake_reward_MLM.sol\":3909:3944  DUSDinvestor[msg.sender].investment */\n      0x00\n      add\n        /* \"contracts/stake_reward_MLM.sol\":3909:3949  DUSDinvestor[msg.sender].investment[num] */\n      0x00\n        /* \"contracts/stake_reward_MLM.sol\":3945:3948  num */\n      dup4\n        /* \"contracts/stake_reward_MLM.sol\":3909:3949  DUSDinvestor[msg.sender].investment[num] */\n      dup2\n      mstore\n      0x20\n      add\n      swap1\n      dup2\n      mstore\n      0x20\n      add\n      0x00\n      keccak256\n        /* \"contracts/stake_reward_MLM.sol\":3909:3963  DUSDinvestor[msg.sender].investment[num].investmentNum */\n      0x02\n      add\n        /* \"contracts/stake_reward_MLM.sol\":3909:3967  DUSDinvestor[msg.sender].investment[num].investmentNum=num */\n      dup2\n      swap1\n      sstore\n      pop\n        /* \"contracts/stake_reward_MLM.sol\":4023:4038  _investedamount */\n      dup6\n        /* \"contracts/stake_reward_MLM.sol\":3981:3993  DUSDinvestor */\n      0x07\n        /* \"contracts/stake_reward_MLM.sol\":3981:4005  DUSDinvestor[msg.sender] */\n      0x00\n        /* \"contracts/stake_reward_MLM.sol\":3994:4004  msg.sender */\n      caller\n        /* \"contracts/stake_reward_MLM.sol\":3981:4005  DUSDinvestor[msg.sender] */\n      0xffffffffffffffffffffffffffffffffffffffff\n      and\n      0xffffffffffffffffffffffffffffffffffffffff\n      and\n      dup2\n      mstore\n      0x20\n      add\n      swap1\n      dup2\n      mstore\n      0x20\n      add\n      0x00\n      keccak256\n        /* \"contracts/stake_reward_MLM.sol\":3981:4021  DUSDinvestor[msg.sender].totalInvestment */\n      0x05\n      add\n      0x00\n        /* \"contracts/stake_reward_MLM.sol\":3981:4038  DUSDinvestor[msg.sender].totalInvestment+=_investedamount */\n      dup3\n      dup3\n      sload\n      tag_163\n      swap2\n      swap1\n      tag_162\n      jump\t// in\n    tag_163:\n      swap3\n      pop\n      pop\n      dup2\n      swap1\n      sstore\n      pop\n        /* \"contracts/stake_reward_MLM.sol\":4090:4094  true */\n      0x01\n        /* \"contracts/stake_reward_MLM.sol\":4052:4064  DUSDinvestor */\n      0x07\n        /* \"contracts/stake_reward_MLM.sol\":4052:4076  DUSDinvestor[msg.sender] */\n      0x00\n        /* \"contracts/stake_reward_MLM.sol\":4065:4075  msg.sender */\n      caller\n        /* \"contracts/stake_reward_MLM.sol\":4052:4076  DUSDinvestor[msg.sender] */\n      0xffffffffffffffffffffffffffffffffffffffff\n      and\n      0xffffffffffffffffffffffffffffffffffffffff\n      and\n      dup2\n      mstore\n      0x20\n      add\n      swap1\n      dup2\n      mstore\n      0x20\n      add\n      0x00\n      keccak256\n        /* \"contracts/stake_reward_MLM.sol\":4052:4089  DUSDinvestor[msg.sender].investBefore */\n      0x06\n      add\n      0x00\n        /* \"contracts/stake_reward_MLM.sol\":4052:4094  DUSDinvestor[msg.sender].investBefore=true */\n      0x0100\n      exp\n      dup2\n      sload\n      dup2\n      0xff\n      mul\n      not\n      and\n      swap1\n      dup4\n      iszero\n      iszero\n      mul\n      or\n      swap1\n      sstore\n      pop\n        /* \"contracts/stake_reward_MLM.sol\":4108:4120  DUSDinvestor */\n      0x07\n        /* \"contracts/stake_reward_MLM.sol\":4108:4132  DUSDinvestor[msg.sender] */\n      0x00\n        /* \"contracts/stake_reward_MLM.sol\":4121:4131  msg.sender */\n      caller\n        /* \"contracts/stake_reward_MLM.sol\":4108:4132  DUSDinvestor[msg.sender] */\n      0xffffffffffffffffffffffffffffffffffffffff\n      and\n      0xffffffffffffffffffffffffffffffffffffffff\n      and\n      dup2\n      mstore\n      0x20\n      add\n      swap1\n      dup2\n      mstore\n      0x20\n      add\n      0x00\n      keccak256\n        /* \"contracts/stake_reward_MLM.sol\":4108:4147  DUSDinvestor[msg.sender].noOfInvestment */\n      0x04\n      add\n      0x00\n        /* \"contracts/stake_reward_MLM.sol\":4108:4149  DUSDinvestor[msg.sender].noOfInvestment++ */\n      dup2\n      sload\n      dup1\n      swap3\n      swap2\n      swap1\n      tag_164\n      swap1\n      tag_115\n      jump\t// in\n    tag_164:\n      swap2\n      swap1\n      pop\n      sstore\n      pop\n        /* \"contracts/stake_reward_MLM.sol\":4168:4180  DUSDcontract */\n      dup3\n        /* \"contracts/stake_reward_MLM.sol\":4163:4201  DUSD(DUSDcontract).transferViaContract */\n      0xffffffffffffffffffffffffffffffffffffffff\n      and\n      0x3ec307bd\n        /* \"contracts/stake_reward_MLM.sol\":4202:4212  msg.sender */\n      caller\n        /* \"contracts/stake_reward_MLM.sol\":4221:4225  this */\n      address\n        /* \"contracts/stake_reward_MLM.sol\":4227:4242  _investedamount */\n      dup10\n        /* \"contracts/stake_reward_MLM.sol\":4163:4243  DUSD(DUSDcontract).transferViaContract(msg.sender,address(this),_investedamount) */\n      mload(0x40)\n      dup5\n      0xffffffff\n      and\n      0xe0\n      shl\n      dup2\n      mstore\n      0x04\n      add\n      tag_165\n      swap4\n      swap3\n      swap2\n      swap1\n      tag_166\n      jump\t// in\n    tag_165:\n      0x20\n      mload(0x40)\n      dup1\n      dup4\n      sub\n      dup2\n      0x00\n      dup8\n      dup1\n      extcodesize\n      iszero\n      dup1\n      iszero\n      tag_167\n      jumpi\n      0x00\n      dup1\n      revert\n    tag_167:\n      pop\n      gas\n      call\n      iszero\n      dup1\n      iszero\n      tag_169\n      jumpi\n      returndatasize\n      0x00\n      dup1\n      returndatacopy\n      revert(0x00, returndatasize)\n    tag_169:\n      pop\n      pop\n      pop\n      pop\n      mload(0x40)\n      returndatasize\n      not(0x1f)\n      0x1f\n      dup3\n      add\n      and\n      dup3\n      add\n      dup1\n      0x40\n      mstore\n      pop\n      dup2\n      add\n      swap1\n      tag_170\n      swap2\n      swap1\n      tag_106\n      jump\t// in\n    tag_170:\n      pop\n        /* \"contracts/stake_reward_MLM.sol\":4279:4280  0 */\n      0x00\n        /* \"contracts/stake_reward_MLM.sol\":4260:4281  _referral==address(0) */\n      0xffffffffffffffffffffffffffffffffffffffff\n      and\n        /* \"contracts/stake_reward_MLM.sol\":4260:4269  _referral */\n      dup5\n        /* \"contracts/stake_reward_MLM.sol\":4260:4281  _referral==address(0) */\n      0xffffffffffffffffffffffffffffffffffffffff\n      and\n      eq\n        /* \"contracts/stake_reward_MLM.sol\":4257:4956  if(_referral==address(0))                                         //checking that investor comes from the referral link or not... */\n      iszero\n      tag_171\n      jumpi\n        /* \"contracts/stake_reward_MLM.sol\":4462:4463  0 */\n      0x00\n        /* \"contracts/stake_reward_MLM.sol\":4414:4426  DUSDinvestor */\n      0x07\n        /* \"contracts/stake_reward_MLM.sol\":4414:4438  DUSDinvestor[msg.sender] */\n      0x00\n        /* \"contracts/stake_reward_MLM.sol\":4427:4437  msg.sender */\n      caller\n        /* \"contracts/stake_reward_MLM.sol\":4414:4438  DUSDinvestor[msg.sender] */\n      0xffffffffffffffffffffffffffffffffffffffff\n      and\n      0xffffffffffffffffffffffffffffffffffffffff\n      and\n      dup2\n      mstore\n      0x20\n      add\n      swap1\n      dup2\n      mstore\n      0x20\n      add\n      0x00\n      keccak256\n        /* \"contracts/stake_reward_MLM.sol\":4414:4451  DUSDinvestor[msg.sender].referralFrom */\n      0x02\n      add\n      0x00\n        /* \"contracts/stake_reward_MLM.sol\":4414:4464  DUSDinvestor[msg.sender].referralFrom = address(0) */\n      0x0100\n      exp\n      dup2\n      sload\n      dup2\n      0xffffffffffffffffffffffffffffffffffffffff\n      mul\n      not\n      and\n      swap1\n      dup4\n      0xffffffffffffffffffffffffffffffffffffffff\n      and\n      mul\n      or\n      swap1\n      sstore\n      pop\n        /* \"contracts/stake_reward_MLM.sol\":4257:4956  if(_referral==address(0))                                         //checking that investor comes from the referral link or not... */\n      jump(tag_172)\n    tag_171:\n        /* \"contracts/stake_reward_MLM.sol\":4567:4576  _referral */\n      dup4\n        /* \"contracts/stake_reward_MLM.sol\":4527:4539  DUSDinvestor */\n      0x07\n        /* \"contracts/stake_reward_MLM.sol\":4527:4551  DUSDinvestor[msg.sender] */\n      0x00\n        /* \"contracts/stake_reward_MLM.sol\":4540:4550  msg.sender */\n      caller\n        /* \"contracts/stake_reward_MLM.sol\":4527:4551  DUSDinvestor[msg.sender] */\n      0xffffffffffffffffffffffffffffffffffffffff\n      and\n      0xffffffffffffffffffffffffffffffffffffffff\n      and\n      dup2\n      mstore\n      0x20\n      add\n      swap1\n      dup2\n      mstore\n      0x20\n      add\n      0x00\n      keccak256\n        /* \"contracts/stake_reward_MLM.sol\":4527:4564  DUSDinvestor[msg.sender].referralFrom */\n      0x02\n      add\n      0x00\n        /* \"contracts/stake_reward_MLM.sol\":4527:4576  DUSDinvestor[msg.sender].referralFrom = _referral */\n      0x0100\n      exp\n      dup2\n      sload\n      dup2\n      0xffffffffffffffffffffffffffffffffffffffff\n      mul\n      not\n      and\n      swap1\n      dup4\n      0xffffffffffffffffffffffffffffffffffffffff\n      and\n      mul\n      or\n      swap1\n      sstore\n      pop\n        /* \"contracts/stake_reward_MLM.sol\":4639:4640  0 */\n      0x00\n        /* \"contracts/stake_reward_MLM.sol\":4597:4609  DUSDinvestor */\n      0x07\n        /* \"contracts/stake_reward_MLM.sol\":4597:4620  DUSDinvestor[_referral] */\n      0x00\n        /* \"contracts/stake_reward_MLM.sol\":4610:4619  _referral */\n      dup7\n        /* \"contracts/stake_reward_MLM.sol\":4597:4620  DUSDinvestor[_referral] */\n      0xffffffffffffffffffffffffffffffffffffffff\n      and\n      0xffffffffffffffffffffffffffffffffffffffff\n      and\n      dup2\n      mstore\n      0x20\n      add\n      swap1\n      dup2\n      mstore\n      0x20\n      add\n      0x00\n      keccak256\n        /* \"contracts/stake_reward_MLM.sol\":4597:4636  DUSDinvestor[_referral].totalInvestment */\n      0x05\n      add\n      sload\n        /* \"contracts/stake_reward_MLM.sol\":4597:4640  DUSDinvestor[_referral].totalInvestment > 0 */\n      gt\n        /* \"contracts/stake_reward_MLM.sol\":4597:4678  DUSDinvestor[_referral].totalInvestment > 0 || DUSDinvestor[_referral].reward > 0 */\n      dup1\n      tag_173\n      jumpi\n      pop\n        /* \"contracts/stake_reward_MLM.sol\":4677:4678  0 */\n      0x00\n        /* \"contracts/stake_reward_MLM.sol\":4644:4656  DUSDinvestor */\n      0x07\n        /* \"contracts/stake_reward_MLM.sol\":4644:4667  DUSDinvestor[_referral] */\n      0x00\n        /* \"contracts/stake_reward_MLM.sol\":4657:4666  _referral */\n      dup7\n        /* \"contracts/stake_reward_MLM.sol\":4644:4667  DUSDinvestor[_referral] */\n      0xffffffffffffffffffffffffffffffffffffffff\n      and\n      0xffffffffffffffffffffffffffffffffffffffff\n      and\n      dup2\n      mstore\n      0x20\n      add\n      swap1\n      dup2\n      mstore\n      0x20\n      add\n      0x00\n      keccak256\n        /* \"contracts/stake_reward_MLM.sol\":4644:4674  DUSDinvestor[_referral].reward */\n      0x03\n      add\n      sload\n        /* \"contracts/stake_reward_MLM.sol\":4644:4678  DUSDinvestor[_referral].reward > 0 */\n      gt\n        /* \"contracts/stake_reward_MLM.sol\":4597:4678  DUSDinvestor[_referral].totalInvestment > 0 || DUSDinvestor[_referral].reward > 0 */\n    tag_173:\n        /* \"contracts/stake_reward_MLM.sol\":4594:4942  if(DUSDinvestor[_referral].totalInvestment > 0 || DUSDinvestor[_referral].reward > 0)... */\n      iszero\n      tag_174\n      jumpi\n        /* \"contracts/stake_reward_MLM.sol\":4718:4730  DUSDinvestor */\n      0x07\n        /* \"contracts/stake_reward_MLM.sol\":4718:4741  DUSDinvestor[_referral] */\n      0x00\n        /* \"contracts/stake_reward_MLM.sol\":4731:4740  _referral */\n      dup6\n        /* \"contracts/stake_reward_MLM.sol\":4718:4741  DUSDinvestor[_referral] */\n      0xffffffffffffffffffffffffffffffffffffffff\n      and\n      0xffffffffffffffffffffffffffffffffffffffff\n      and\n      dup2\n      mstore\n      0x20\n      add\n      swap1\n      dup2\n      mstore\n      0x20\n      add\n      0x00\n      keccak256\n        /* \"contracts/stake_reward_MLM.sol\":4718:4754  DUSDinvestor[_referral].hisReferrals */\n      0x01\n      add\n        /* \"contracts/stake_reward_MLM.sol\":4760:4770  msg.sender */\n      caller\n        /* \"contracts/stake_reward_MLM.sol\":4718:4771  DUSDinvestor[_referral].hisReferrals.push(msg.sender) */\n      swap1\n      dup1\n      0x01\n      dup2\n      sload\n      add\n      dup1\n      dup3\n      sstore\n      dup1\n      swap2\n      pop\n      pop\n      0x01\n      swap1\n      sub\n      swap1\n      0x00\n      mstore\n      keccak256(0x00, 0x20)\n      add\n      0x00\n      swap1\n      swap2\n      swap1\n      swap2\n      swap1\n      swap2\n      0x0100\n      exp\n      dup2\n      sload\n      dup2\n      0xffffffffffffffffffffffffffffffffffffffff\n      mul\n      not\n      and\n      swap1\n      dup4\n      0xffffffffffffffffffffffffffffffffffffffff\n      and\n      mul\n      or\n      swap1\n      sstore\n      pop\n        /* \"contracts/stake_reward_MLM.sol\":4793:4846  sendRewardToDUSDReferrals(msg.sender,_investedamount) */\n      tag_176\n        /* \"contracts/stake_reward_MLM.sol\":4819:4829  msg.sender */\n      caller\n        /* \"contracts/stake_reward_MLM.sol\":4830:4845  _investedamount */\n      dup8\n        /* \"contracts/stake_reward_MLM.sol\":4793:4818  sendRewardToDUSDReferrals */\n      tag_177\n        /* \"contracts/stake_reward_MLM.sol\":4793:4846  sendRewardToDUSDReferrals(msg.sender,_investedamount) */\n      jump\t// in\n    tag_176:\n        /* \"contracts/stake_reward_MLM.sol\":4594:4942  if(DUSDinvestor[_referral].totalInvestment > 0 || DUSDinvestor[_referral].reward > 0)... */\n    tag_174:\n        /* \"contracts/stake_reward_MLM.sol\":4257:4956  if(_referral==address(0))                                         //checking that investor comes from the referral link or not... */\n    tag_172:\n        /* \"contracts/stake_reward_MLM.sol\":4969:4974  owner */\n      0x00\n      dup1\n      sload\n      swap1\n      0x0100\n      exp\n      swap1\n      div\n      0xffffffffffffffffffffffffffffffffffffffff\n      and\n        /* \"contracts/stake_reward_MLM.sol\":4969:4983  owner.transfer */\n      0xffffffffffffffffffffffffffffffffffffffff\n      and\n        /* \"contracts/stake_reward_MLM.sol\":4969:4994  owner.transfer(msg.value) */\n      0x08fc\n        /* \"contracts/stake_reward_MLM.sol\":4984:4993  msg.value */\n      callvalue\n        /* \"contracts/stake_reward_MLM.sol\":4969:4994  owner.transfer(msg.value) */\n      swap1\n      dup2\n      iszero\n      mul\n      swap1\n      mload(0x40)\n      0x00\n      mload(0x40)\n      dup1\n      dup4\n      sub\n      dup2\n      dup6\n      dup9\n      dup9\n      call\n      swap4\n      pop\n      pop\n      pop\n      pop\n      iszero\n      dup1\n      iszero\n      tag_179\n      jumpi\n      returndatasize\n      0x00\n      dup1\n      returndatacopy\n      revert(0x00, returndatasize)\n    tag_179:\n      pop\n        /* \"contracts/stake_reward_MLM.sol\":5100:5104  true */\n      0x01\n        /* \"contracts/stake_reward_MLM.sol\":5093:5104  return true */\n      swap2\n      pop\n      pop\n        /* \"contracts/stake_reward_MLM.sol\":2848:5128  function InvestDUSD(uint _investedamount,uint _investmentPeriod,address _referral,address DUSDcontract) external payable returns(bool success){... */\n      swap5\n      swap4\n      pop\n      pop\n      pop\n      pop\n      jump\t// out\n        /* \"contracts/stake_reward_MLM.sol\":626:656  uint public totalMUSDInvestors */\n    tag_60:\n      sload(0x06)\n      dup2\n      jump\t// out\n        /* \"contracts/stake_reward_MLM.sol\":544:576  uint public totalCUSTOMInvestors */\n    tag_64:\n      sload(0x04)\n      dup2\n      jump\t// out\n        /* \"contracts/stake_reward_MLM.sol\":298:326  address payable public owner */\n    tag_68:\n      0x00\n      dup1\n      sload\n      swap1\n      0x0100\n      exp\n      swap1\n      div\n      0xffffffffffffffffffffffffffffffffffffffff\n      and\n      dup2\n      jump\t// out\n        /* \"contracts/stake_reward_MLM.sol\":7896:8106  function getTotalInvestmentDUSD() public view returns(uint) {   //this function is to get the total investment of the ivestor... */\n    tag_73:\n        /* \"contracts/stake_reward_MLM.sol\":7950:7954  uint */\n      0x00\n        /* \"contracts/stake_reward_MLM.sol\":8054:8066  DUSDinvestor */\n      0x07\n        /* \"contracts/stake_reward_MLM.sol\":8054:8078  DUSDinvestor[msg.sender] */\n      0x00\n        /* \"contracts/stake_reward_MLM.sol\":8067:8077  msg.sender */\n      caller\n        /* \"contracts/stake_reward_MLM.sol\":8054:8078  DUSDinvestor[msg.sender] */\n      0xffffffffffffffffffffffffffffffffffffffff\n      and\n      0xffffffffffffffffffffffffffffffffffffffff\n      and\n      dup2\n      mstore\n      0x20\n      add\n      swap1\n      dup2\n      mstore\n      0x20\n      add\n      0x00\n      keccak256\n        /* \"contracts/stake_reward_MLM.sol\":8054:8094  DUSDinvestor[msg.sender].totalInvestment */\n      0x05\n      add\n      sload\n        /* \"contracts/stake_reward_MLM.sol\":8047:8094  return DUSDinvestor[msg.sender].totalInvestment */\n      swap1\n      pop\n        /* \"contracts/stake_reward_MLM.sol\":7896:8106  function getTotalInvestmentDUSD() public view returns(uint) {   //this function is to get the total investment of the ivestor... */\n      swap1\n      jump\t// out\n        /* \"contracts/stake_reward_MLM.sol\":336:357  uint public ownerfees */\n    tag_77:\n      sload(0x01)\n      dup2\n      jump\t// out\n        /* \"contracts/stake_reward_MLM.sol\":1091:1133  mapping(address=>Data) public DUSDinvestor */\n    tag_82:\n      mstore(0x20, 0x07)\n      dup1\n      0x00\n      mstore\n      keccak256(0x00, 0x40)\n      0x00\n      swap2\n      pop\n      swap1\n      pop\n      dup1\n      0x02\n      add\n      0x00\n      swap1\n      sload\n      swap1\n      0x0100\n      exp\n      swap1\n      div\n      0xffffffffffffffffffffffffffffffffffffffff\n      and\n      swap1\n      dup1\n      0x03\n      add\n      sload\n      swap1\n      dup1\n      0x04\n      add\n      sload\n      swap1\n      dup1\n      0x05\n      add\n      sload\n      swap1\n      dup1\n      0x06\n      add\n      0x00\n      swap1\n      sload\n      swap1\n      0x0100\n      exp\n      swap1\n      div\n      0xff\n      and\n      swap1\n      pop\n      dup6\n      jump\t// out\n        /* \"contracts/stake_reward_MLM.sol\":1373:2759  function sendRewardToDUSDReferrals(address investor,uint _investedAmount) internal  //this is the freferral function to transfer the reawards to referrals... */\n    tag_177:\n        /* \"contracts/stake_reward_MLM.sol\":1552:1564  address temp */\n      0x00\n        /* \"contracts/stake_reward_MLM.sol\":1567:1575  investor */\n      dup3\n        /* \"contracts/stake_reward_MLM.sol\":1552:1575  address temp = investor */\n      swap1\n      pop\n        /* \"contracts/stake_reward_MLM.sol\":1596:1620  uint[] memory percentage */\n      0x00\n        /* \"contracts/stake_reward_MLM.sol\":1634:1635  4 */\n      0x04\n        /* \"contracts/stake_reward_MLM.sol\":1623:1636  new uint[](4) */\n      0xffffffffffffffff\n      dup2\n      gt\n      iszero\n      tag_182\n      jumpi\n      tag_183\n      tag_119\n      jump\t// in\n    tag_183:\n    tag_182:\n      mload(0x40)\n      swap1\n      dup1\n      dup3\n      mstore\n      dup1\n      0x20\n      mul\n      0x20\n      add\n      dup3\n      add\n      0x40\n      mstore\n      dup1\n      iszero\n      tag_184\n      jumpi\n      dup2\n      0x20\n      add\n      0x20\n      dup3\n      mul\n      dup1\n      calldatasize\n      dup4\n      calldatacopy\n      dup1\n      dup3\n      add\n      swap2\n      pop\n      pop\n      swap1\n      pop\n    tag_184:\n      pop\n        /* \"contracts/stake_reward_MLM.sol\":1596:1636  uint[] memory percentage = new uint[](4) */\n      swap1\n      pop\n        /* \"contracts/stake_reward_MLM.sol\":1666:1673  5 ether */\n      0x4563918244f40000\n        /* \"contracts/stake_reward_MLM.sol\":1650:1660  percentage */\n      dup2\n        /* \"contracts/stake_reward_MLM.sol\":1661:1662  0 */\n      0x00\n        /* \"contracts/stake_reward_MLM.sol\":1650:1663  percentage[0] */\n      dup2\n      mload\n      dup2\n      lt\n      tag_185\n      jumpi\n      tag_186\n      tag_130\n      jump\t// in\n    tag_186:\n    tag_185:\n      0x20\n      mul\n      0x20\n      add\n      add\n        /* \"contracts/stake_reward_MLM.sol\":1650:1673  percentage[0] = 5 ether */\n      dup2\n      dup2\n      mstore\n      pop\n      pop\n        /* \"contracts/stake_reward_MLM.sol\":1703:1710  3 ether */\n      0x29a2241af62c0000\n        /* \"contracts/stake_reward_MLM.sol\":1687:1697  percentage */\n      dup2\n        /* \"contracts/stake_reward_MLM.sol\":1698:1699  1 */\n      0x01\n        /* \"contracts/stake_reward_MLM.sol\":1687:1700  percentage[1] */\n      dup2\n      mload\n      dup2\n      lt\n      tag_187\n      jumpi\n      tag_188\n      tag_130\n      jump\t// in\n    tag_188:\n    tag_187:\n      0x20\n      mul\n      0x20\n      add\n      add\n        /* \"contracts/stake_reward_MLM.sol\":1687:1710  percentage[1] = 3 ether */\n      dup2\n      dup2\n      mstore\n      pop\n      pop\n        /* \"contracts/stake_reward_MLM.sol\":1740:1747  2 ether */\n      0x1bc16d674ec80000\n        /* \"contracts/stake_reward_MLM.sol\":1724:1734  percentage */\n      dup2\n        /* \"contracts/stake_reward_MLM.sol\":1735:1736  2 */\n      0x02\n        /* \"contracts/stake_reward_MLM.sol\":1724:1737  percentage[2] */\n      dup2\n      mload\n      dup2\n      lt\n      tag_189\n      jumpi\n      tag_190\n      tag_130\n      jump\t// in\n    tag_190:\n    tag_189:\n      0x20\n      mul\n      0x20\n      add\n      add\n        /* \"contracts/stake_reward_MLM.sol\":1724:1747  percentage[2] = 2 ether */\n      dup2\n      dup2\n      mstore\n      pop\n      pop\n        /* \"contracts/stake_reward_MLM.sol\":1777:1784  1 ether */\n      0x0de0b6b3a7640000\n        /* \"contracts/stake_reward_MLM.sol\":1761:1771  percentage */\n      dup2\n        /* \"contracts/stake_reward_MLM.sol\":1772:1773  3 */\n      0x03\n        /* \"contracts/stake_reward_MLM.sol\":1761:1774  percentage[3] */\n      dup2\n      mload\n      dup2\n      lt\n      tag_191\n      jumpi\n      tag_192\n      tag_130\n      jump\t// in\n    tag_192:\n    tag_191:\n      0x20\n      mul\n      0x20\n      add\n      add\n        /* \"contracts/stake_reward_MLM.sol\":1761:1784  percentage[3] = 1 ether */\n      dup2\n      dup2\n      mstore\n      pop\n      pop\n        /* \"contracts/stake_reward_MLM.sol\":1814:1823  0.5 ether */\n      0x06f05b59d3b20000\n        /* \"contracts/stake_reward_MLM.sol\":1798:1808  percentage */\n      dup2\n        /* \"contracts/stake_reward_MLM.sol\":1809:1810  4 */\n      0x04\n        /* \"contracts/stake_reward_MLM.sol\":1798:1811  percentage[4] */\n      dup2\n      mload\n      dup2\n      lt\n      tag_193\n      jumpi\n      tag_194\n      tag_130\n      jump\t// in\n    tag_194:\n    tag_193:\n      0x20\n      mul\n      0x20\n      add\n      add\n        /* \"contracts/stake_reward_MLM.sol\":1798:1823  percentage[4] = 0.5 ether */\n      dup2\n      dup2\n      mstore\n      pop\n      pop\n        /* \"contracts/stake_reward_MLM.sol\":1838:1844  uint j */\n      0x00\n        /* \"contracts/stake_reward_MLM.sol\":1865:1871  uint i */\n      dup1\n        /* \"contracts/stake_reward_MLM.sol\":1872:1873  0 */\n      0x00\n        /* \"contracts/stake_reward_MLM.sol\":1865:1873  uint i=0 */\n      swap1\n      pop\n        /* \"contracts/stake_reward_MLM.sol\":1861:2748  for(uint i=0;i<20;i++)... */\n    tag_195:\n        /* \"contracts/stake_reward_MLM.sol\":1876:1878  20 */\n      0x14\n        /* \"contracts/stake_reward_MLM.sol\":1874:1875  i */\n      dup2\n        /* \"contracts/stake_reward_MLM.sol\":1874:1878  i<20 */\n      lt\n        /* \"contracts/stake_reward_MLM.sol\":1861:2748  for(uint i=0;i<20;i++)... */\n      iszero\n      tag_196\n      jumpi\n        /* \"contracts/stake_reward_MLM.sol\":1921:1922  0 */\n      0x00\n        /* \"contracts/stake_reward_MLM.sol\":1918:1919  i */\n      dup2\n        /* \"contracts/stake_reward_MLM.sol\":1918:1922  i==0 */\n      eq\n        /* \"contracts/stake_reward_MLM.sol\":1915:2347  if(i==0)... */\n      iszero\n      tag_198\n      jumpi\n        /* \"contracts/stake_reward_MLM.sol\":1964:1965  0 */\n      0x00\n        /* \"contracts/stake_reward_MLM.sol\":1962:1965  j=0 */\n      swap2\n      pop\n        /* \"contracts/stake_reward_MLM.sol\":1915:2347  if(i==0)... */\n      jump(tag_199)\n    tag_198:\n        /* \"contracts/stake_reward_MLM.sol\":2012:2013  1 */\n      0x01\n        /* \"contracts/stake_reward_MLM.sol\":2009:2010  i */\n      dup2\n        /* \"contracts/stake_reward_MLM.sol\":2009:2013  i==1 */\n      eq\n        /* \"contracts/stake_reward_MLM.sol\":2006:2347  if(i==1)... */\n      iszero\n      tag_200\n      jumpi\n        /* \"contracts/stake_reward_MLM.sol\":2055:2056  1 */\n      0x01\n        /* \"contracts/stake_reward_MLM.sol\":2053:2056  j=1 */\n      swap2\n      pop\n        /* \"contracts/stake_reward_MLM.sol\":2006:2347  if(i==1)... */\n      jump(tag_201)\n    tag_200:\n        /* \"contracts/stake_reward_MLM.sol\":2103:2104  2 */\n      0x02\n        /* \"contracts/stake_reward_MLM.sol\":2100:2101  i */\n      dup2\n        /* \"contracts/stake_reward_MLM.sol\":2100:2104  i==2 */\n      eq\n        /* \"contracts/stake_reward_MLM.sol\":2097:2347  if(i==2)... */\n      iszero\n      tag_202\n      jumpi\n        /* \"contracts/stake_reward_MLM.sol\":2146:2147  2 */\n      0x02\n        /* \"contracts/stake_reward_MLM.sol\":2144:2147  j=2 */\n      swap2\n      pop\n        /* \"contracts/stake_reward_MLM.sol\":2097:2347  if(i==2)... */\n      jump(tag_203)\n    tag_202:\n        /* \"contracts/stake_reward_MLM.sol\":2194:2195  2 */\n      0x02\n        /* \"contracts/stake_reward_MLM.sol\":2192:2193  i */\n      dup2\n        /* \"contracts/stake_reward_MLM.sol\":2192:2195  i>2 */\n      gt\n        /* \"contracts/stake_reward_MLM.sol\":2189:2347  if(i>2)... */\n      iszero\n      tag_204\n      jumpi\n        /* \"contracts/stake_reward_MLM.sol\":2237:2238  3 */\n      0x03\n        /* \"contracts/stake_reward_MLM.sol\":2235:2238  j=3 */\n      swap2\n      pop\n        /* \"contracts/stake_reward_MLM.sol\":2189:2347  if(i>2)... */\n      jump(tag_205)\n    tag_204:\n        /* \"contracts/stake_reward_MLM.sol\":2284:2285  7 */\n      0x07\n        /* \"contracts/stake_reward_MLM.sol\":2282:2283  i */\n      dup2\n        /* \"contracts/stake_reward_MLM.sol\":2282:2285  i>7 */\n      gt\n        /* \"contracts/stake_reward_MLM.sol\":2279:2347  if(i>7)... */\n      iszero\n      tag_206\n      jumpi\n        /* \"contracts/stake_reward_MLM.sol\":2327:2328  4 */\n      0x04\n        /* \"contracts/stake_reward_MLM.sol\":2325:2328  j=4 */\n      swap2\n      pop\n        /* \"contracts/stake_reward_MLM.sol\":2279:2347  if(i>7)... */\n    tag_206:\n        /* \"contracts/stake_reward_MLM.sol\":2189:2347  if(i>2)... */\n    tag_205:\n        /* \"contracts/stake_reward_MLM.sol\":2097:2347  if(i==2)... */\n    tag_203:\n        /* \"contracts/stake_reward_MLM.sol\":2006:2347  if(i==1)... */\n    tag_201:\n        /* \"contracts/stake_reward_MLM.sol\":1915:2347  if(i==0)... */\n    tag_199:\n        /* \"contracts/stake_reward_MLM.sol\":2425:2426  0 */\n      0x00\n        /* \"contracts/stake_reward_MLM.sol\":2384:2427  DUSDinvestor[temp].referralFrom!=address(0) */\n      0xffffffffffffffffffffffffffffffffffffffff\n      and\n        /* \"contracts/stake_reward_MLM.sol\":2384:2396  DUSDinvestor */\n      0x07\n        /* \"contracts/stake_reward_MLM.sol\":2384:2402  DUSDinvestor[temp] */\n      0x00\n        /* \"contracts/stake_reward_MLM.sol\":2397:2401  temp */\n      dup7\n        /* \"contracts/stake_reward_MLM.sol\":2384:2402  DUSDinvestor[temp] */\n      0xffffffffffffffffffffffffffffffffffffffff\n      and\n      0xffffffffffffffffffffffffffffffffffffffff\n      and\n      dup2\n      mstore\n      0x20\n      add\n      swap1\n      dup2\n      mstore\n      0x20\n      add\n      0x00\n      keccak256\n        /* \"contracts/stake_reward_MLM.sol\":2384:2415  DUSDinvestor[temp].referralFrom */\n      0x02\n      add\n      0x00\n      swap1\n      sload\n      swap1\n      0x0100\n      exp\n      swap1\n      div\n      0xffffffffffffffffffffffffffffffffffffffff\n      and\n        /* \"contracts/stake_reward_MLM.sol\":2384:2427  DUSDinvestor[temp].referralFrom!=address(0) */\n      0xffffffffffffffffffffffffffffffffffffffff\n      and\n      eq\n        /* \"contracts/stake_reward_MLM.sol\":2381:2734  if(DUSDinvestor[temp].referralFrom!=address(0))... */\n      tag_207\n      jumpi\n        /* \"contracts/stake_reward_MLM.sol\":2472:2484  DUSDinvestor */\n      0x07\n        /* \"contracts/stake_reward_MLM.sol\":2472:2490  DUSDinvestor[temp] */\n      0x00\n        /* \"contracts/stake_reward_MLM.sol\":2485:2489  temp */\n      dup6\n        /* \"contracts/stake_reward_MLM.sol\":2472:2490  DUSDinvestor[temp] */\n      0xffffffffffffffffffffffffffffffffffffffff\n      and\n      0xffffffffffffffffffffffffffffffffffffffff\n      and\n      dup2\n      mstore\n      0x20\n      add\n      swap1\n      dup2\n      mstore\n      0x20\n      add\n      0x00\n      keccak256\n        /* \"contracts/stake_reward_MLM.sol\":2472:2503  DUSDinvestor[temp].referralFrom */\n      0x02\n      add\n      0x00\n      swap1\n      sload\n      swap1\n      0x0100\n      exp\n      swap1\n      div\n      0xffffffffffffffffffffffffffffffffffffffff\n      and\n        /* \"contracts/stake_reward_MLM.sol\":2467:2503  temp=DUSDinvestor[temp].referralFrom */\n      swap4\n      pop\n        /* \"contracts/stake_reward_MLM.sol\":2589:2592  100 */\n      0x64\n        /* \"contracts/stake_reward_MLM.sol\":2572:2587  _investedAmount */\n      dup6\n        /* \"contracts/stake_reward_MLM.sol\":2556:2566  percentage */\n      dup5\n        /* \"contracts/stake_reward_MLM.sol\":2567:2568  j */\n      dup5\n        /* \"contracts/stake_reward_MLM.sol\":2556:2569  percentage[j] */\n      dup2\n      mload\n      dup2\n      lt\n      tag_208\n      jumpi\n      tag_209\n      tag_130\n      jump\t// in\n    tag_209:\n    tag_208:\n      0x20\n      mul\n      0x20\n      add\n      add\n      mload\n        /* \"contracts/stake_reward_MLM.sol\":2556:2587  percentage[j] * _investedAmount */\n      tag_210\n      swap2\n      swap1\n      tag_160\n      jump\t// in\n    tag_210:\n        /* \"contracts/stake_reward_MLM.sol\":2555:2592  (percentage[j] * _investedAmount)/100 */\n      tag_211\n      swap2\n      swap1\n      tag_212\n      jump\t// in\n    tag_211:\n        /* \"contracts/stake_reward_MLM.sol\":2525:2537  DUSDinvestor */\n      0x07\n        /* \"contracts/stake_reward_MLM.sol\":2525:2543  DUSDinvestor[temp] */\n      0x00\n        /* \"contracts/stake_reward_MLM.sol\":2538:2542  temp */\n      dup7\n        /* \"contracts/stake_reward_MLM.sol\":2525:2543  DUSDinvestor[temp] */\n      0xffffffffffffffffffffffffffffffffffffffff\n      and\n      0xffffffffffffffffffffffffffffffffffffffff\n      and\n      dup2\n      mstore\n      0x20\n      add\n      swap1\n      dup2\n      mstore\n      0x20\n      add\n      0x00\n      keccak256\n        /* \"contracts/stake_reward_MLM.sol\":2525:2550  DUSDinvestor[temp].reward */\n      0x03\n      add\n      0x00\n        /* \"contracts/stake_reward_MLM.sol\":2525:2593  DUSDinvestor[temp].reward += ((percentage[j] * _investedAmount)/100) */\n      dup3\n      dup3\n      sload\n      tag_213\n      swap2\n      swap1\n      tag_162\n      jump\t// in\n    tag_213:\n      swap3\n      pop\n      pop\n      dup2\n      swap1\n      sstore\n      pop\n        /* \"contracts/stake_reward_MLM.sol\":2381:2734  if(DUSDinvestor[temp].referralFrom!=address(0))... */\n      jump(tag_214)\n    tag_207:\n        /* \"contracts/stake_reward_MLM.sol\":2710:2715  break */\n      jump(tag_196)\n        /* \"contracts/stake_reward_MLM.sol\":2381:2734  if(DUSDinvestor[temp].referralFrom!=address(0))... */\n    tag_214:\n        /* \"contracts/stake_reward_MLM.sol\":1879:1882  i++ */\n      dup1\n      dup1\n      tag_215\n      swap1\n      tag_115\n      jump\t// in\n    tag_215:\n      swap2\n      pop\n      pop\n        /* \"contracts/stake_reward_MLM.sol\":1861:2748  for(uint i=0;i<20;i++)... */\n      jump(tag_195)\n    tag_196:\n      pop\n        /* \"contracts/stake_reward_MLM.sol\":1536:2759  { ... */\n      pop\n      pop\n      pop\n        /* \"contracts/stake_reward_MLM.sol\":1373:2759  function sendRewardToDUSDReferrals(address investor,uint _investedAmount) internal  //this is the freferral function to transfer the reawards to referrals... */\n      pop\n      pop\n      jump\t// out\n    tag_123:\n      mload(0x40)\n      dup1\n      0x60\n      add\n      0x40\n      mstore\n      dup1\n      0x00\n      dup2\n      mstore\n      0x20\n      add\n      0x00\n      dup2\n      mstore\n      0x20\n      add\n      0x00\n      dup2\n      mstore\n      pop\n      swap1\n      jump\t// out\n        /* \"#utility.yul\":7:146   */\n    tag_217:\n        /* \"#utility.yul\":53:58   */\n      0x00\n        /* \"#utility.yul\":91:97   */\n      dup2\n        /* \"#utility.yul\":78:98   */\n      calldataload\n        /* \"#utility.yul\":69:98   */\n      swap1\n      pop\n        /* \"#utility.yul\":107:140   */\n      tag_219\n        /* \"#utility.yul\":134:139   */\n      dup2\n        /* \"#utility.yul\":107:140   */\n      tag_220\n      jump\t// in\n    tag_219:\n        /* \"#utility.yul\":7:146   */\n      swap3\n      swap2\n      pop\n      pop\n      jump\t// out\n        /* \"#utility.yul\":152:289   */\n    tag_221:\n        /* \"#utility.yul\":206:211   */\n      0x00\n        /* \"#utility.yul\":237:243   */\n      dup2\n        /* \"#utility.yul\":231:244   */\n      mload\n        /* \"#utility.yul\":222:244   */\n      swap1\n      pop\n        /* \"#utility.yul\":253:283   */\n      tag_223\n        /* \"#utility.yul\":277:282   */\n      dup2\n        /* \"#utility.yul\":253:283   */\n      tag_224\n      jump\t// in\n    tag_223:\n        /* \"#utility.yul\":152:289   */\n      swap3\n      swap2\n      pop\n      pop\n      jump\t// out\n        /* \"#utility.yul\":295:434   */\n    tag_225:\n        /* \"#utility.yul\":341:346   */\n      0x00\n        /* \"#utility.yul\":379:385   */\n      dup2\n        /* \"#utility.yul\":366:386   */\n      calldataload\n        /* \"#utility.yul\":357:386   */\n      swap1\n      pop\n        /* \"#utility.yul\":395:428   */\n      tag_227\n        /* \"#utility.yul\":422:427   */\n      dup2\n        /* \"#utility.yul\":395:428   */\n      tag_228\n      jump\t// in\n    tag_227:\n        /* \"#utility.yul\":295:434   */\n      swap3\n      swap2\n      pop\n      pop\n      jump\t// out\n        /* \"#utility.yul\":440:769   */\n    tag_39:\n        /* \"#utility.yul\":499:505   */\n      0x00\n        /* \"#utility.yul\":548:550   */\n      0x20\n        /* \"#utility.yul\":536:545   */\n      dup3\n        /* \"#utility.yul\":527:534   */\n      dup5\n        /* \"#utility.yul\":523:546   */\n      sub\n        /* \"#utility.yul\":519:551   */\n      slt\n        /* \"#utility.yul\":516:635   */\n      iszero\n      tag_230\n      jumpi\n        /* \"#utility.yul\":554:633   */\n      tag_231\n      tag_232\n      jump\t// in\n    tag_231:\n        /* \"#utility.yul\":516:635   */\n    tag_230:\n        /* \"#utility.yul\":674:675   */\n      0x00\n        /* \"#utility.yul\":699:752   */\n      tag_233\n        /* \"#utility.yul\":744:751   */\n      dup5\n        /* \"#utility.yul\":735:741   */\n      dup3\n        /* \"#utility.yul\":724:733   */\n      dup6\n        /* \"#utility.yul\":720:742   */\n      add\n        /* \"#utility.yul\":699:752   */\n      tag_217\n      jump\t// in\n    tag_233:\n        /* \"#utility.yul\":689:752   */\n      swap2\n      pop\n        /* \"#utility.yul\":645:762   */\n      pop\n        /* \"#utility.yul\":440:769   */\n      swap3\n      swap2\n      pop\n      pop\n      jump\t// out\n        /* \"#utility.yul\":775:1120   */\n    tag_106:\n        /* \"#utility.yul\":842:848   */\n      0x00\n        /* \"#utility.yul\":891:893   */\n      0x20\n        /* \"#utility.yul\":879:888   */\n      dup3\n        /* \"#utility.yul\":870:877   */\n      dup5\n        /* \"#utility.yul\":866:889   */\n      sub\n        /* \"#utility.yul\":862:894   */\n      slt\n        /* \"#utility.yul\":859:978   */\n      iszero\n      tag_235\n      jumpi\n        /* \"#utility.yul\":897:976   */\n      tag_236\n      tag_232\n      jump\t// in\n    tag_236:\n        /* \"#utility.yul\":859:978   */\n    tag_235:\n        /* \"#utility.yul\":1017:1018   */\n      0x00\n        /* \"#utility.yul\":1042:1103   */\n      tag_237\n        /* \"#utility.yul\":1095:1102   */\n      dup5\n        /* \"#utility.yul\":1086:1092   */\n      dup3\n        /* \"#utility.yul\":1075:1084   */\n      dup6\n        /* \"#utility.yul\":1071:1093   */\n      add\n        /* \"#utility.yul\":1042:1103   */\n      tag_221\n      jump\t// in\n    tag_237:\n        /* \"#utility.yul\":1032:1103   */\n      swap2\n      pop\n        /* \"#utility.yul\":988:1113   */\n      pop\n        /* \"#utility.yul\":775:1120   */\n      swap3\n      swap2\n      pop\n      pop\n      jump\t// out\n        /* \"#utility.yul\":1126:1600   */\n    tag_50:\n        /* \"#utility.yul\":1194:1200   */\n      0x00\n        /* \"#utility.yul\":1202:1208   */\n      dup1\n        /* \"#utility.yul\":1251:1253   */\n      0x40\n        /* \"#utility.yul\":1239:1248   */\n      dup4\n        /* \"#utility.yul\":1230:1237   */\n      dup6\n        /* \"#utility.yul\":1226:1249   */\n      sub\n        /* \"#utility.yul\":1222:1254   */\n      slt\n        /* \"#utility.yul\":1219:1338   */\n      iszero\n      tag_239\n      jumpi\n        /* \"#utility.yul\":1257:1336   */\n      tag_240\n      tag_232\n      jump\t// in\n    tag_240:\n        /* \"#utility.yul\":1219:1338   */\n    tag_239:\n        /* \"#utility.yul\":1377:1378   */\n      0x00\n        /* \"#utility.yul\":1402:1455   */\n      tag_241\n        /* \"#utility.yul\":1447:1454   */\n      dup6\n        /* \"#utility.yul\":1438:1444   */\n      dup3\n        /* \"#utility.yul\":1427:1436   */\n      dup7\n        /* \"#utility.yul\":1423:1445   */\n      add\n        /* \"#utility.yul\":1402:1455   */\n      tag_225\n      jump\t// in\n    tag_241:\n        /* \"#utility.yul\":1392:1455   */\n      swap3\n      pop\n        /* \"#utility.yul\":1348:1465   */\n      pop\n        /* \"#utility.yul\":1504:1506   */\n      0x20\n        /* \"#utility.yul\":1530:1583   */\n      tag_242\n        /* \"#utility.yul\":1575:1582   */\n      dup6\n        /* \"#utility.yul\":1566:1572   */\n      dup3\n        /* \"#utility.yul\":1555:1564   */\n      dup7\n        /* \"#utility.yul\":1551:1573   */\n      add\n        /* \"#utility.yul\":1530:1583   */\n      tag_217\n      jump\t// in\n    tag_242:\n        /* \"#utility.yul\":1520:1583   */\n      swap2\n      pop\n        /* \"#utility.yul\":1475:1593   */\n      pop\n        /* \"#utility.yul\":1126:1600   */\n      swap3\n      pop\n      swap3\n      swap1\n      pop\n      jump\t// out\n        /* \"#utility.yul\":1606:2371   */\n    tag_55:\n        /* \"#utility.yul\":1692:1698   */\n      0x00\n        /* \"#utility.yul\":1700:1706   */\n      dup1\n        /* \"#utility.yul\":1708:1714   */\n      0x00\n        /* \"#utility.yul\":1716:1722   */\n      dup1\n        /* \"#utility.yul\":1765:1768   */\n      0x80\n        /* \"#utility.yul\":1753:1762   */\n      dup6\n        /* \"#utility.yul\":1744:1751   */\n      dup8\n        /* \"#utility.yul\":1740:1763   */\n      sub\n        /* \"#utility.yul\":1736:1769   */\n      slt\n        /* \"#utility.yul\":1733:1853   */\n      iszero\n      tag_244\n      jumpi\n        /* \"#utility.yul\":1772:1851   */\n      tag_245\n      tag_232\n      jump\t// in\n    tag_245:\n        /* \"#utility.yul\":1733:1853   */\n    tag_244:\n        /* \"#utility.yul\":1892:1893   */\n      0x00\n        /* \"#utility.yul\":1917:1970   */\n      tag_246\n        /* \"#utility.yul\":1962:1969   */\n      dup8\n        /* \"#utility.yul\":1953:1959   */\n      dup3\n        /* \"#utility.yul\":1942:1951   */\n      dup9\n        /* \"#utility.yul\":1938:1960   */\n      add\n        /* \"#utility.yul\":1917:1970   */\n      tag_225\n      jump\t// in\n    tag_246:\n        /* \"#utility.yul\":1907:1970   */\n      swap5\n      pop\n        /* \"#utility.yul\":1863:1980   */\n      pop\n        /* \"#utility.yul\":2019:2021   */\n      0x20\n        /* \"#utility.yul\":2045:2098   */\n      tag_247\n        /* \"#utility.yul\":2090:2097   */\n      dup8\n        /* \"#utility.yul\":2081:2087   */\n      dup3\n        /* \"#utility.yul\":2070:2079   */\n      dup9\n        /* \"#utility.yul\":2066:2088   */\n      add\n        /* \"#utility.yul\":2045:2098   */\n      tag_225\n      jump\t// in\n    tag_247:\n        /* \"#utility.yul\":2035:2098   */\n      swap4\n      pop\n        /* \"#utility.yul\":1990:2108   */\n      pop\n        /* \"#utility.yul\":2147:2149   */\n      0x40\n        /* \"#utility.yul\":2173:2226   */\n      tag_248\n        /* \"#utility.yul\":2218:2225   */\n      dup8\n        /* \"#utility.yul\":2209:2215   */\n      dup3\n        /* \"#utility.yul\":2198:2207   */\n      dup9\n        /* \"#utility.yul\":2194:2216   */\n      add\n        /* \"#utility.yul\":2173:2226   */\n      tag_217\n      jump\t// in\n    tag_248:\n        /* \"#utility.yul\":2163:2226   */\n      swap3\n      pop\n        /* \"#utility.yul\":2118:2236   */\n      pop\n        /* \"#utility.yul\":2275:2277   */\n      0x60\n        /* \"#utility.yul\":2301:2354   */\n      tag_249\n        /* \"#utility.yul\":2346:2353   */\n      dup8\n        /* \"#utility.yul\":2337:2343   */\n      dup3\n        /* \"#utility.yul\":2326:2335   */\n      dup9\n        /* \"#utility.yul\":2322:2344   */\n      add\n        /* \"#utility.yul\":2301:2354   */\n      tag_217\n      jump\t// in\n    tag_249:\n        /* \"#utility.yul\":2291:2354   */\n      swap2\n      pop\n        /* \"#utility.yul\":2246:2364   */\n      pop\n        /* \"#utility.yul\":1606:2371   */\n      swap3\n      swap6\n      swap2\n      swap5\n      pop\n      swap3\n      pop\n      jump\t// out\n        /* \"#utility.yul\":2377:2556   */\n    tag_250:\n        /* \"#utility.yul\":2446:2456   */\n      0x00\n        /* \"#utility.yul\":2467:2513   */\n      tag_252\n        /* \"#utility.yul\":2509:2512   */\n      dup4\n        /* \"#utility.yul\":2501:2507   */\n      dup4\n        /* \"#utility.yul\":2467:2513   */\n      tag_253\n      jump\t// in\n    tag_252:\n        /* \"#utility.yul\":2545:2549   */\n      0x20\n        /* \"#utility.yul\":2540:2543   */\n      dup4\n        /* \"#utility.yul\":2536:2550   */\n      add\n        /* \"#utility.yul\":2522:2550   */\n      swap1\n      pop\n        /* \"#utility.yul\":2377:2556   */\n      swap3\n      swap2\n      pop\n      pop\n      jump\t// out\n        /* \"#utility.yul\":2562:2861   */\n    tag_254:\n        /* \"#utility.yul\":2691:2701   */\n      0x00\n        /* \"#utility.yul\":2712:2818   */\n      tag_256\n        /* \"#utility.yul\":2814:2817   */\n      dup4\n        /* \"#utility.yul\":2806:2812   */\n      dup4\n        /* \"#utility.yul\":2712:2818   */\n      tag_257\n      jump\t// in\n    tag_256:\n        /* \"#utility.yul\":2850:2854   */\n      0x60\n        /* \"#utility.yul\":2845:2848   */\n      dup4\n        /* \"#utility.yul\":2841:2855   */\n      add\n        /* \"#utility.yul\":2827:2855   */\n      swap1\n      pop\n        /* \"#utility.yul\":2562:2861   */\n      swap3\n      swap2\n      pop\n      pop\n      jump\t// out\n        /* \"#utility.yul\":2867:3009   */\n    tag_258:\n        /* \"#utility.yul\":2970:3002   */\n      tag_260\n        /* \"#utility.yul\":2996:3001   */\n      dup2\n        /* \"#utility.yul\":2970:3002   */\n      tag_261\n      jump\t// in\n    tag_260:\n        /* \"#utility.yul\":2965:2968   */\n      dup3\n        /* \"#utility.yul\":2958:3003   */\n      mstore\n        /* \"#utility.yul\":2867:3009   */\n      pop\n      pop\n      jump\t// out\n        /* \"#utility.yul\":3015:3123   */\n    tag_253:\n        /* \"#utility.yul\":3092:3116   */\n      tag_263\n        /* \"#utility.yul\":3110:3115   */\n      dup2\n        /* \"#utility.yul\":3092:3116   */\n      tag_264\n      jump\t// in\n    tag_263:\n        /* \"#utility.yul\":3087:3090   */\n      dup3\n        /* \"#utility.yul\":3080:3117   */\n      mstore\n        /* \"#utility.yul\":3015:3123   */\n      pop\n      pop\n      jump\t// out\n        /* \"#utility.yul\":3129:3247   */\n    tag_265:\n        /* \"#utility.yul\":3216:3240   */\n      tag_267\n        /* \"#utility.yul\":3234:3239   */\n      dup2\n        /* \"#utility.yul\":3216:3240   */\n      tag_264\n      jump\t// in\n    tag_267:\n        /* \"#utility.yul\":3211:3214   */\n      dup3\n        /* \"#utility.yul\":3204:3241   */\n      mstore\n        /* \"#utility.yul\":3129:3247   */\n      pop\n      pop\n      jump\t// out\n        /* \"#utility.yul\":3283:4015   */\n    tag_268:\n        /* \"#utility.yul\":3402:3405   */\n      0x00\n        /* \"#utility.yul\":3431:3485   */\n      tag_270\n        /* \"#utility.yul\":3479:3484   */\n      dup3\n        /* \"#utility.yul\":3431:3485   */\n      tag_271\n      jump\t// in\n    tag_270:\n        /* \"#utility.yul\":3501:3587   */\n      tag_272\n        /* \"#utility.yul\":3580:3586   */\n      dup2\n        /* \"#utility.yul\":3575:3578   */\n      dup6\n        /* \"#utility.yul\":3501:3587   */\n      tag_273\n      jump\t// in\n    tag_272:\n        /* \"#utility.yul\":3494:3587   */\n      swap4\n      pop\n        /* \"#utility.yul\":3611:3667   */\n      tag_274\n        /* \"#utility.yul\":3661:3666   */\n      dup4\n        /* \"#utility.yul\":3611:3667   */\n      tag_275\n      jump\t// in\n    tag_274:\n        /* \"#utility.yul\":3690:3697   */\n      dup1\n        /* \"#utility.yul\":3721:3722   */\n      0x00\n        /* \"#utility.yul\":3706:3990   */\n    tag_276:\n        /* \"#utility.yul\":3731:3737   */\n      dup4\n        /* \"#utility.yul\":3728:3729   */\n      dup2\n        /* \"#utility.yul\":3725:3738   */\n      lt\n        /* \"#utility.yul\":3706:3990   */\n      iszero\n      tag_278\n      jumpi\n        /* \"#utility.yul\":3807:3813   */\n      dup2\n        /* \"#utility.yul\":3801:3814   */\n      mload\n        /* \"#utility.yul\":3834:3897   */\n      tag_279\n        /* \"#utility.yul\":3893:3896   */\n      dup9\n        /* \"#utility.yul\":3878:3891   */\n      dup3\n        /* \"#utility.yul\":3834:3897   */\n      tag_250\n      jump\t// in\n    tag_279:\n        /* \"#utility.yul\":3827:3897   */\n      swap8\n      pop\n        /* \"#utility.yul\":3920:3980   */\n      tag_280\n        /* \"#utility.yul\":3973:3979   */\n      dup4\n        /* \"#utility.yul\":3920:3980   */\n      tag_281\n      jump\t// in\n    tag_280:\n        /* \"#utility.yul\":3910:3980   */\n      swap3\n      pop\n        /* \"#utility.yul\":3766:3990   */\n      pop\n        /* \"#utility.yul\":3753:3754   */\n      0x01\n        /* \"#utility.yul\":3750:3751   */\n      dup2\n        /* \"#utility.yul\":3746:3755   */\n      add\n        /* \"#utility.yul\":3741:3755   */\n      swap1\n      pop\n        /* \"#utility.yul\":3706:3990   */\n      jump(tag_276)\n    tag_278:\n        /* \"#utility.yul\":3710:3724   */\n      pop\n        /* \"#utility.yul\":4006:4009   */\n      dup6\n        /* \"#utility.yul\":3999:4009   */\n      swap4\n      pop\n        /* \"#utility.yul\":3407:4015   */\n      pop\n      pop\n      pop\n        /* \"#utility.yul\":3283:4015   */\n      swap3\n      swap2\n      pop\n      pop\n      jump\t// out\n        /* \"#utility.yul\":4093:5065   */\n    tag_282:\n        /* \"#utility.yul\":4272:4275   */\n      0x00\n        /* \"#utility.yul\":4301:4385   */\n      tag_284\n        /* \"#utility.yul\":4379:4384   */\n      dup3\n        /* \"#utility.yul\":4301:4385   */\n      tag_285\n      jump\t// in\n    tag_284:\n        /* \"#utility.yul\":4401:4517   */\n      tag_286\n        /* \"#utility.yul\":4510:4516   */\n      dup2\n        /* \"#utility.yul\":4505:4508   */\n      dup6\n        /* \"#utility.yul\":4401:4517   */\n      tag_287\n      jump\t// in\n    tag_286:\n        /* \"#utility.yul\":4394:4517   */\n      swap4\n      pop\n        /* \"#utility.yul\":4541:4627   */\n      tag_288\n        /* \"#utility.yul\":4621:4626   */\n      dup4\n        /* \"#utility.yul\":4541:4627   */\n      tag_289\n      jump\t// in\n    tag_288:\n        /* \"#utility.yul\":4650:4657   */\n      dup1\n        /* \"#utility.yul\":4681:4682   */\n      0x00\n        /* \"#utility.yul\":4666:5040   */\n    tag_290:\n        /* \"#utility.yul\":4691:4697   */\n      dup4\n        /* \"#utility.yul\":4688:4689   */\n      dup2\n        /* \"#utility.yul\":4685:4698   */\n      lt\n        /* \"#utility.yul\":4666:5040   */\n      iszero\n      tag_292\n      jumpi\n        /* \"#utility.yul\":4767:4773   */\n      dup2\n        /* \"#utility.yul\":4761:4774   */\n      mload\n        /* \"#utility.yul\":4794:4917   */\n      tag_293\n        /* \"#utility.yul\":4913:4916   */\n      dup9\n        /* \"#utility.yul\":4898:4911   */\n      dup3\n        /* \"#utility.yul\":4794:4917   */\n      tag_254\n      jump\t// in\n    tag_293:\n        /* \"#utility.yul\":4787:4917   */\n      swap8\n      pop\n        /* \"#utility.yul\":4940:5030   */\n      tag_294\n        /* \"#utility.yul\":5023:5029   */\n      dup4\n        /* \"#utility.yul\":4940:5030   */\n      tag_295\n      jump\t// in\n    tag_294:\n        /* \"#utility.yul\":4930:5030   */\n      swap3\n      pop\n        /* \"#utility.yul\":4726:5040   */\n      pop\n        /* \"#utility.yul\":4713:4714   */\n      0x01\n        /* \"#utility.yul\":4710:4711   */\n      dup2\n        /* \"#utility.yul\":4706:4715   */\n      add\n        /* \"#utility.yul\":4701:4715   */\n      swap1\n      pop\n        /* \"#utility.yul\":4666:5040   */\n      jump(tag_290)\n    tag_292:\n        /* \"#utility.yul\":4670:4684   */\n      pop\n        /* \"#utility.yul\":5056:5059   */\n      dup6\n        /* \"#utility.yul\":5049:5059   */\n      swap4\n      pop\n        /* \"#utility.yul\":4277:5065   */\n      pop\n      pop\n      pop\n        /* \"#utility.yul\":4093:5065   */\n      swap3\n      swap2\n      pop\n      pop\n      jump\t// out\n        /* \"#utility.yul\":5071:5180   */\n    tag_296:\n        /* \"#utility.yul\":5152:5173   */\n      tag_298\n        /* \"#utility.yul\":5167:5172   */\n      dup2\n        /* \"#utility.yul\":5152:5173   */\n      tag_299\n      jump\t// in\n    tag_298:\n        /* \"#utility.yul\":5147:5150   */\n      dup3\n        /* \"#utility.yul\":5140:5174   */\n      mstore\n        /* \"#utility.yul\":5071:5180   */\n      pop\n      pop\n      jump\t// out\n        /* \"#utility.yul\":5186:5552   */\n    tag_300:\n        /* \"#utility.yul\":5328:5331   */\n      0x00\n        /* \"#utility.yul\":5349:5416   */\n      tag_302\n        /* \"#utility.yul\":5413:5415   */\n      0x1b\n        /* \"#utility.yul\":5408:5411   */\n      dup4\n        /* \"#utility.yul\":5349:5416   */\n      tag_303\n      jump\t// in\n    tag_302:\n        /* \"#utility.yul\":5342:5416   */\n      swap2\n      pop\n        /* \"#utility.yul\":5425:5518   */\n      tag_304\n        /* \"#utility.yul\":5514:5517   */\n      dup3\n        /* \"#utility.yul\":5425:5518   */\n      tag_305\n      jump\t// in\n    tag_304:\n        /* \"#utility.yul\":5543:5545   */\n      0x20\n        /* \"#utility.yul\":5538:5541   */\n      dup3\n        /* \"#utility.yul\":5534:5546   */\n      add\n        /* \"#utility.yul\":5527:5546   */\n      swap1\n      pop\n        /* \"#utility.yul\":5186:5552   */\n      swap2\n      swap1\n      pop\n      jump\t// out\n        /* \"#utility.yul\":5558:5924   */\n    tag_306:\n        /* \"#utility.yul\":5700:5703   */\n      0x00\n        /* \"#utility.yul\":5721:5788   */\n      tag_308\n        /* \"#utility.yul\":5785:5787   */\n      0x25\n        /* \"#utility.yul\":5780:5783   */\n      dup4\n        /* \"#utility.yul\":5721:5788   */\n      tag_303\n      jump\t// in\n    tag_308:\n        /* \"#utility.yul\":5714:5788   */\n      swap2\n      pop\n        /* \"#utility.yul\":5797:5890   */\n      tag_309\n        /* \"#utility.yul\":5886:5889   */\n      dup3\n        /* \"#utility.yul\":5797:5890   */\n      tag_310\n      jump\t// in\n    tag_309:\n        /* \"#utility.yul\":5915:5917   */\n      0x40\n        /* \"#utility.yul\":5910:5913   */\n      dup3\n        /* \"#utility.yul\":5906:5918   */\n      add\n        /* \"#utility.yul\":5899:5918   */\n      swap1\n      pop\n        /* \"#utility.yul\":5558:5924   */\n      swap2\n      swap1\n      pop\n      jump\t// out\n        /* \"#utility.yul\":5930:6296   */\n    tag_311:\n        /* \"#utility.yul\":6072:6075   */\n      0x00\n        /* \"#utility.yul\":6093:6160   */\n      tag_313\n        /* \"#utility.yul\":6157:6159   */\n      0x40\n        /* \"#utility.yul\":6152:6155   */\n      dup4\n        /* \"#utility.yul\":6093:6160   */\n      tag_303\n      jump\t// in\n    tag_313:\n        /* \"#utility.yul\":6086:6160   */\n      swap2\n      pop\n        /* \"#utility.yul\":6169:6262   */\n      tag_314\n        /* \"#utility.yul\":6258:6261   */\n      dup3\n        /* \"#utility.yul\":6169:6262   */\n      tag_315\n      jump\t// in\n    tag_314:\n        /* \"#utility.yul\":6287:6289   */\n      0x40\n        /* \"#utility.yul\":6282:6285   */\n      dup3\n        /* \"#utility.yul\":6278:6290   */\n      add\n        /* \"#utility.yul\":6271:6290   */\n      swap1\n      pop\n        /* \"#utility.yul\":5930:6296   */\n      swap2\n      swap1\n      pop\n      jump\t// out\n        /* \"#utility.yul\":6302:6668   */\n    tag_316:\n        /* \"#utility.yul\":6444:6447   */\n      0x00\n        /* \"#utility.yul\":6465:6532   */\n      tag_318\n        /* \"#utility.yul\":6529:6531   */\n      0x1f\n        /* \"#utility.yul\":6524:6527   */\n      dup4\n        /* \"#utility.yul\":6465:6532   */\n      tag_303\n      jump\t// in\n    tag_318:\n        /* \"#utility.yul\":6458:6532   */\n      swap2\n      pop\n        /* \"#utility.yul\":6541:6634   */\n      tag_319\n        /* \"#utility.yul\":6630:6633   */\n      dup3\n        /* \"#utility.yul\":6541:6634   */\n      tag_320\n      jump\t// in\n    tag_319:\n        /* \"#utility.yul\":6659:6661   */\n      0x20\n        /* \"#utility.yul\":6654:6657   */\n      dup3\n        /* \"#utility.yul\":6650:6662   */\n      add\n        /* \"#utility.yul\":6643:6662   */\n      swap1\n      pop\n        /* \"#utility.yul\":6302:6668   */\n      swap2\n      swap1\n      pop\n      jump\t// out\n        /* \"#utility.yul\":6674:7040   */\n    tag_321:\n        /* \"#utility.yul\":6816:6819   */\n      0x00\n        /* \"#utility.yul\":6837:6904   */\n      tag_323\n        /* \"#utility.yul\":6901:6903   */\n      0x22\n        /* \"#utility.yul\":6896:6899   */\n      dup4\n        /* \"#utility.yul\":6837:6904   */\n      tag_303\n      jump\t// in\n    tag_323:\n        /* \"#utility.yul\":6830:6904   */\n      swap2\n      pop\n        /* \"#utility.yul\":6913:7006   */\n      tag_324\n        /* \"#utility.yul\":7002:7005   */\n      dup3\n        /* \"#utility.yul\":6913:7006   */\n      tag_325\n      jump\t// in\n    tag_324:\n        /* \"#utility.yul\":7031:7033   */\n      0x40\n        /* \"#utility.yul\":7026:7029   */\n      dup3\n        /* \"#utility.yul\":7022:7034   */\n      add\n        /* \"#utility.yul\":7015:7034   */\n      swap1\n      pop\n        /* \"#utility.yul\":6674:7040   */\n      swap2\n      swap1\n      pop\n      jump\t// out\n        /* \"#utility.yul\":7046:7412   */\n    tag_326:\n        /* \"#utility.yul\":7188:7191   */\n      0x00\n        /* \"#utility.yul\":7209:7276   */\n      tag_328\n        /* \"#utility.yul\":7273:7275   */\n      0x12\n        /* \"#utility.yul\":7268:7271   */\n      dup4\n        /* \"#utility.yul\":7209:7276   */\n      tag_303\n      jump\t// in\n    tag_328:\n        /* \"#utility.yul\":7202:7276   */\n      swap2\n      pop\n        /* \"#utility.yul\":7285:7378   */\n      tag_329\n        /* \"#utility.yul\":7374:7377   */\n      dup3\n        /* \"#utility.yul\":7285:7378   */\n      tag_330\n      jump\t// in\n    tag_329:\n        /* \"#utility.yul\":7403:7405   */\n      0x20\n        /* \"#utility.yul\":7398:7401   */\n      dup3\n        /* \"#utility.yul\":7394:7406   */\n      add\n        /* \"#utility.yul\":7387:7406   */\n      swap1\n      pop\n        /* \"#utility.yul\":7046:7412   */\n      swap2\n      swap1\n      pop\n      jump\t// out\n        /* \"#utility.yul\":7486:8195   */\n    tag_257:\n        /* \"#utility.yul\":7633:7637   */\n      0x60\n        /* \"#utility.yul\":7628:7631   */\n      dup3\n        /* \"#utility.yul\":7624:7638   */\n      add\n        /* \"#utility.yul\":7730:7734   */\n      0x00\n        /* \"#utility.yul\":7723:7728   */\n      dup3\n        /* \"#utility.yul\":7719:7735   */\n      add\n        /* \"#utility.yul\":7713:7736   */\n      mload\n        /* \"#utility.yul\":7749:7812   */\n      tag_332\n        /* \"#utility.yul\":7806:7810   */\n      0x00\n        /* \"#utility.yul\":7801:7804   */\n      dup6\n        /* \"#utility.yul\":7797:7811   */\n      add\n        /* \"#utility.yul\":7783:7795   */\n      dup3\n        /* \"#utility.yul\":7749:7812   */\n      tag_333\n      jump\t// in\n    tag_332:\n        /* \"#utility.yul\":7648:7822   */\n      pop\n        /* \"#utility.yul\":7913:7917   */\n      0x20\n        /* \"#utility.yul\":7906:7911   */\n      dup3\n        /* \"#utility.yul\":7902:7918   */\n      add\n        /* \"#utility.yul\":7896:7919   */\n      mload\n        /* \"#utility.yul\":7932:7995   */\n      tag_334\n        /* \"#utility.yul\":7989:7993   */\n      0x20\n        /* \"#utility.yul\":7984:7987   */\n      dup6\n        /* \"#utility.yul\":7980:7994   */\n      add\n        /* \"#utility.yul\":7966:7978   */\n      dup3\n        /* \"#utility.yul\":7932:7995   */\n      tag_333\n      jump\t// in\n    tag_334:\n        /* \"#utility.yul\":7832:8005   */\n      pop\n        /* \"#utility.yul\":8096:8100   */\n      0x40\n        /* \"#utility.yul\":8089:8094   */\n      dup3\n        /* \"#utility.yul\":8085:8101   */\n      add\n        /* \"#utility.yul\":8079:8102   */\n      mload\n        /* \"#utility.yul\":8115:8178   */\n      tag_335\n        /* \"#utility.yul\":8172:8176   */\n      0x40\n        /* \"#utility.yul\":8167:8170   */\n      dup6\n        /* \"#utility.yul\":8163:8177   */\n      add\n        /* \"#utility.yul\":8149:8161   */\n      dup3\n        /* \"#utility.yul\":8115:8178   */\n      tag_333\n      jump\t// in\n    tag_335:\n        /* \"#utility.yul\":8015:8188   */\n      pop\n        /* \"#utility.yul\":7602:8195   */\n      pop\n        /* \"#utility.yul\":7486:8195   */\n      pop\n      pop\n      jump\t// out\n        /* \"#utility.yul\":8201:8309   */\n    tag_333:\n        /* \"#utility.yul\":8278:8302   */\n      tag_337\n        /* \"#utility.yul\":8296:8301   */\n      dup2\n        /* \"#utility.yul\":8278:8302   */\n      tag_338\n      jump\t// in\n    tag_337:\n        /* \"#utility.yul\":8273:8276   */\n      dup3\n        /* \"#utility.yul\":8266:8303   */\n      mstore\n        /* \"#utility.yul\":8201:8309   */\n      pop\n      pop\n      jump\t// out\n        /* \"#utility.yul\":8315:8433   */\n    tag_339:\n        /* \"#utility.yul\":8402:8426   */\n      tag_341\n        /* \"#utility.yul\":8420:8425   */\n      dup2\n        /* \"#utility.yul\":8402:8426   */\n      tag_338\n      jump\t// in\n    tag_341:\n        /* \"#utility.yul\":8397:8400   */\n      dup3\n        /* \"#utility.yul\":8390:8427   */\n      mstore\n        /* \"#utility.yul\":8315:8433   */\n      pop\n      pop\n      jump\t// out\n        /* \"#utility.yul\":8439:8693   */\n    tag_70:\n        /* \"#utility.yul\":8548:8552   */\n      0x00\n        /* \"#utility.yul\":8586:8588   */\n      0x20\n        /* \"#utility.yul\":8575:8584   */\n      dup3\n        /* \"#utility.yul\":8571:8589   */\n      add\n        /* \"#utility.yul\":8563:8589   */\n      swap1\n      pop\n        /* \"#utility.yul\":8599:8686   */\n      tag_343\n        /* \"#utility.yul\":8683:8684   */\n      0x00\n        /* \"#utility.yul\":8672:8681   */\n      dup4\n        /* \"#utility.yul\":8668:8685   */\n      add\n        /* \"#utility.yul\":8659:8665   */\n      dup5\n        /* \"#utility.yul\":8599:8686   */\n      tag_258\n      jump\t// in\n    tag_343:\n        /* \"#utility.yul\":8439:8693   */\n      swap3\n      swap2\n      pop\n      pop\n      jump\t// out\n        /* \"#utility.yul\":8699:9141   */\n    tag_166:\n        /* \"#utility.yul\":8848:8852   */\n      0x00\n        /* \"#utility.yul\":8886:8888   */\n      0x60\n        /* \"#utility.yul\":8875:8884   */\n      dup3\n        /* \"#utility.yul\":8871:8889   */\n      add\n        /* \"#utility.yul\":8863:8889   */\n      swap1\n      pop\n        /* \"#utility.yul\":8899:8970   */\n      tag_345\n        /* \"#utility.yul\":8967:8968   */\n      0x00\n        /* \"#utility.yul\":8956:8965   */\n      dup4\n        /* \"#utility.yul\":8952:8969   */\n      add\n        /* \"#utility.yul\":8943:8949   */\n      dup7\n        /* \"#utility.yul\":8899:8970   */\n      tag_265\n      jump\t// in\n    tag_345:\n        /* \"#utility.yul\":8980:9052   */\n      tag_346\n        /* \"#utility.yul\":9048:9050   */\n      0x20\n        /* \"#utility.yul\":9037:9046   */\n      dup4\n        /* \"#utility.yul\":9033:9051   */\n      add\n        /* \"#utility.yul\":9024:9030   */\n      dup6\n        /* \"#utility.yul\":8980:9052   */\n      tag_265\n      jump\t// in\n    tag_346:\n        /* \"#utility.yul\":9062:9134   */\n      tag_347\n        /* \"#utility.yul\":9130:9132   */\n      0x40\n        /* \"#utility.yul\":9119:9128   */\n      dup4\n        /* \"#utility.yul\":9115:9133   */\n      add\n        /* \"#utility.yul\":9106:9112   */\n      dup5\n        /* \"#utility.yul\":9062:9134   */\n      tag_339\n      jump\t// in\n    tag_347:\n        /* \"#utility.yul\":8699:9141   */\n      swap5\n      swap4\n      pop\n      pop\n      pop\n      pop\n      jump\t// out\n        /* \"#utility.yul\":9147:9479   */\n    tag_101:\n        /* \"#utility.yul\":9268:9272   */\n      0x00\n        /* \"#utility.yul\":9306:9308   */\n      0x40\n        /* \"#utility.yul\":9295:9304   */\n      dup3\n        /* \"#utility.yul\":9291:9309   */\n      add\n        /* \"#utility.yul\":9283:9309   */\n      swap1\n      pop\n        /* \"#utility.yul\":9319:9390   */\n      tag_349\n        /* \"#utility.yul\":9387:9388   */\n      0x00\n        /* \"#utility.yul\":9376:9385   */\n      dup4\n        /* \"#utility.yul\":9372:9389   */\n      add\n        /* \"#utility.yul\":9363:9369   */\n      dup6\n        /* \"#utility.yul\":9319:9390   */\n      tag_265\n      jump\t// in\n    tag_349:\n        /* \"#utility.yul\":9400:9472   */\n      tag_350\n        /* \"#utility.yul\":9468:9470   */\n      0x20\n        /* \"#utility.yul\":9457:9466   */\n      dup4\n        /* \"#utility.yul\":9453:9471   */\n      add\n        /* \"#utility.yul\":9444:9450   */\n      dup5\n        /* \"#utility.yul\":9400:9472   */\n      tag_339\n      jump\t// in\n    tag_350:\n        /* \"#utility.yul\":9147:9479   */\n      swap4\n      swap3\n      pop\n      pop\n      pop\n      jump\t// out\n        /* \"#utility.yul\":9485:10137   */\n    tag_84:\n        /* \"#utility.yul\":9684:9688   */\n      0x00\n        /* \"#utility.yul\":9722:9725   */\n      0xa0\n        /* \"#utility.yul\":9711:9720   */\n      dup3\n        /* \"#utility.yul\":9707:9726   */\n      add\n        /* \"#utility.yul\":9699:9726   */\n      swap1\n      pop\n        /* \"#utility.yul\":9736:9807   */\n      tag_352\n        /* \"#utility.yul\":9804:9805   */\n      0x00\n        /* \"#utility.yul\":9793:9802   */\n      dup4\n        /* \"#utility.yul\":9789:9806   */\n      add\n        /* \"#utility.yul\":9780:9786   */\n      dup9\n        /* \"#utility.yul\":9736:9807   */\n      tag_265\n      jump\t// in\n    tag_352:\n        /* \"#utility.yul\":9817:9889   */\n      tag_353\n        /* \"#utility.yul\":9885:9887   */\n      0x20\n        /* \"#utility.yul\":9874:9883   */\n      dup4\n        /* \"#utility.yul\":9870:9888   */\n      add\n        /* \"#utility.yul\":9861:9867   */\n      dup8\n        /* \"#utility.yul\":9817:9889   */\n      tag_339\n      jump\t// in\n    tag_353:\n        /* \"#utility.yul\":9899:9971   */\n      tag_354\n        /* \"#utility.yul\":9967:9969   */\n      0x40\n        /* \"#utility.yul\":9956:9965   */\n      dup4\n        /* \"#utility.yul\":9952:9970   */\n      add\n        /* \"#utility.yul\":9943:9949   */\n      dup7\n        /* \"#utility.yul\":9899:9971   */\n      tag_339\n      jump\t// in\n    tag_354:\n        /* \"#utility.yul\":9981:10053   */\n      tag_355\n        /* \"#utility.yul\":10049:10051   */\n      0x60\n        /* \"#utility.yul\":10038:10047   */\n      dup4\n        /* \"#utility.yul\":10034:10052   */\n      add\n        /* \"#utility.yul\":10025:10031   */\n      dup6\n        /* \"#utility.yul\":9981:10053   */\n      tag_339\n      jump\t// in\n    tag_355:\n        /* \"#utility.yul\":10063:10130   */\n      tag_356\n        /* \"#utility.yul\":10125:10128   */\n      0x80\n        /* \"#utility.yul\":10114:10123   */\n      dup4\n        /* \"#utility.yul\":10110:10129   */\n      add\n        /* \"#utility.yul\":10101:10107   */\n      dup5\n        /* \"#utility.yul\":10063:10130   */\n      tag_296\n      jump\t// in\n    tag_356:\n        /* \"#utility.yul\":9485:10137   */\n      swap7\n      swap6\n      pop\n      pop\n      pop\n      pop\n      pop\n      pop\n      jump\t// out\n        /* \"#utility.yul\":10143:10516   */\n    tag_28:\n        /* \"#utility.yul\":10286:10290   */\n      0x00\n        /* \"#utility.yul\":10324:10326   */\n      0x20\n        /* \"#utility.yul\":10313:10322   */\n      dup3\n        /* \"#utility.yul\":10309:10327   */\n      add\n        /* \"#utility.yul\":10301:10327   */\n      swap1\n      pop\n        /* \"#utility.yul\":10373:10382   */\n      dup2\n        /* \"#utility.yul\":10367:10371   */\n      dup2\n        /* \"#utility.yul\":10363:10383   */\n      sub\n        /* \"#utility.yul\":10359:10360   */\n      0x00\n        /* \"#utility.yul\":10348:10357   */\n      dup4\n        /* \"#utility.yul\":10344:10361   */\n      add\n        /* \"#utility.yul\":10337:10384   */\n      mstore\n        /* \"#utility.yul\":10401:10509   */\n      tag_358\n        /* \"#utility.yul\":10504:10508   */\n      dup2\n        /* \"#utility.yul\":10495:10501   */\n      dup5\n        /* \"#utility.yul\":10401:10509   */\n      tag_268\n      jump\t// in\n    tag_358:\n        /* \"#utility.yul\":10393:10509   */\n      swap1\n      pop\n        /* \"#utility.yul\":10143:10516   */\n      swap3\n      swap2\n      pop\n      pop\n      jump\t// out\n        /* \"#utility.yul\":10522:11015   */\n    tag_47:\n        /* \"#utility.yul\":10725:10729   */\n      0x00\n        /* \"#utility.yul\":10763:10765   */\n      0x20\n        /* \"#utility.yul\":10752:10761   */\n      dup3\n        /* \"#utility.yul\":10748:10766   */\n      add\n        /* \"#utility.yul\":10740:10766   */\n      swap1\n      pop\n        /* \"#utility.yul\":10812:10821   */\n      dup2\n        /* \"#utility.yul\":10806:10810   */\n      dup2\n        /* \"#utility.yul\":10802:10822   */\n      sub\n        /* \"#utility.yul\":10798:10799   */\n      0x00\n        /* \"#utility.yul\":10787:10796   */\n      dup4\n        /* \"#utility.yul\":10783:10800   */\n      add\n        /* \"#utility.yul\":10776:10823   */\n      mstore\n        /* \"#utility.yul\":10840:11008   */\n      tag_360\n        /* \"#utility.yul\":11003:11007   */\n      dup2\n        /* \"#utility.yul\":10994:11000   */\n      dup5\n        /* \"#utility.yul\":10840:11008   */\n      tag_282\n      jump\t// in\n    tag_360:\n        /* \"#utility.yul\":10832:11008   */\n      swap1\n      pop\n        /* \"#utility.yul\":10522:11015   */\n      swap3\n      swap2\n      pop\n      pop\n      jump\t// out\n        /* \"#utility.yul\":11021:11231   */\n    tag_42:\n        /* \"#utility.yul\":11108:11112   */\n      0x00\n        /* \"#utility.yul\":11146:11148   */\n      0x20\n        /* \"#utility.yul\":11135:11144   */\n      dup3\n        /* \"#utility.yul\":11131:11149   */\n      add\n        /* \"#utility.yul\":11123:11149   */\n      swap1\n      pop\n        /* \"#utility.yul\":11159:11224   */\n      tag_362\n        /* \"#utility.yul\":11221:11222   */\n      0x00\n        /* \"#utility.yul\":11210:11219   */\n      dup4\n        /* \"#utility.yul\":11206:11223   */\n      add\n        /* \"#utility.yul\":11197:11203   */\n      dup5\n        /* \"#utility.yul\":11159:11224   */\n      tag_296\n      jump\t// in\n    tag_362:\n        /* \"#utility.yul\":11021:11231   */\n      swap3\n      swap2\n      pop\n      pop\n      jump\t// out\n        /* \"#utility.yul\":11237:11656   */\n    tag_154:\n        /* \"#utility.yul\":11403:11407   */\n      0x00\n        /* \"#utility.yul\":11441:11443   */\n      0x20\n        /* \"#utility.yul\":11430:11439   */\n      dup3\n        /* \"#utility.yul\":11426:11444   */\n      add\n        /* \"#utility.yul\":11418:11444   */\n      swap1\n      pop\n        /* \"#utility.yul\":11490:11499   */\n      dup2\n        /* \"#utility.yul\":11484:11488   */\n      dup2\n        /* \"#utility.yul\":11480:11500   */\n      sub\n        /* \"#utility.yul\":11476:11477   */\n      0x00\n        /* \"#utility.yul\":11465:11474   */\n      dup4\n        /* \"#utility.yul\":11461:11478   */\n      add\n        /* \"#utility.yul\":11454:11501   */\n      mstore\n        /* \"#utility.yul\":11518:11649   */\n      tag_364\n        /* \"#utility.yul\":11644:11648   */\n      dup2\n        /* \"#utility.yul\":11518:11649   */\n      tag_300\n      jump\t// in\n    tag_364:\n        /* \"#utility.yul\":11510:11649   */\n      swap1\n      pop\n        /* \"#utility.yul\":11237:11656   */\n      swap2\n      swap1\n      pop\n      jump\t// out\n        /* \"#utility.yul\":11662:12081   */\n    tag_141:\n        /* \"#utility.yul\":11828:11832   */\n      0x00\n        /* \"#utility.yul\":11866:11868   */\n      0x20\n        /* \"#utility.yul\":11855:11864   */\n      dup3\n        /* \"#utility.yul\":11851:11869   */\n      add\n        /* \"#utility.yul\":11843:11869   */\n      swap1\n      pop\n        /* \"#utility.yul\":11915:11924   */\n      dup2\n        /* \"#utility.yul\":11909:11913   */\n      dup2\n        /* \"#utility.yul\":11905:11925   */\n      sub\n        /* \"#utility.yul\":11901:11902   */\n      0x00\n        /* \"#utility.yul\":11890:11899   */\n      dup4\n        /* \"#utility.yul\":11886:11903   */\n      add\n        /* \"#utility.yul\":11879:11926   */\n      mstore\n        /* \"#utility.yul\":11943:12074   */\n      tag_366\n        /* \"#utility.yul\":12069:12073   */\n      dup2\n        /* \"#utility.yul\":11943:12074   */\n      tag_306\n      jump\t// in\n    tag_366:\n        /* \"#utility.yul\":11935:12074   */\n      swap1\n      pop\n        /* \"#utility.yul\":11662:12081   */\n      swap2\n      swap1\n      pop\n      jump\t// out\n        /* \"#utility.yul\":12087:12506   */\n    tag_99:\n        /* \"#utility.yul\":12253:12257   */\n      0x00\n        /* \"#utility.yul\":12291:12293   */\n      0x20\n        /* \"#utility.yul\":12280:12289   */\n      dup3\n        /* \"#utility.yul\":12276:12294   */\n      add\n        /* \"#utility.yul\":12268:12294   */\n      swap1\n      pop\n        /* \"#utility.yul\":12340:12349   */\n      dup2\n        /* \"#utility.yul\":12334:12338   */\n      dup2\n        /* \"#utility.yul\":12330:12350   */\n      sub\n        /* \"#utility.yul\":12326:12327   */\n      0x00\n        /* \"#utility.yul\":12315:12324   */\n      dup4\n        /* \"#utility.yul\":12311:12328   */\n      add\n        /* \"#utility.yul\":12304:12351   */\n      mstore\n        /* \"#utility.yul\":12368:12499   */\n      tag_368\n        /* \"#utility.yul\":12494:12498   */\n      dup2\n        /* \"#utility.yul\":12368:12499   */\n      tag_311\n      jump\t// in\n    tag_368:\n        /* \"#utility.yul\":12360:12499   */\n      swap1\n      pop\n        /* \"#utility.yul\":12087:12506   */\n      swap2\n      swap1\n      pop\n      jump\t// out\n        /* \"#utility.yul\":12512:12931   */\n    tag_138:\n        /* \"#utility.yul\":12678:12682   */\n      0x00\n        /* \"#utility.yul\":12716:12718   */\n      0x20\n        /* \"#utility.yul\":12705:12714   */\n      dup3\n        /* \"#utility.yul\":12701:12719   */\n      add\n        /* \"#utility.yul\":12693:12719   */\n      swap1\n      pop\n        /* \"#utility.yul\":12765:12774   */\n      dup2\n        /* \"#utility.yul\":12759:12763   */\n      dup2\n        /* \"#utility.yul\":12755:12775   */\n      sub\n        /* \"#utility.yul\":12751:12752   */\n      0x00\n        /* \"#utility.yul\":12740:12749   */\n      dup4\n        /* \"#utility.yul\":12736:12753   */\n      add\n        /* \"#utility.yul\":12729:12776   */\n      mstore\n        /* \"#utility.yul\":12793:12924   */\n      tag_370\n        /* \"#utility.yul\":12919:12923   */\n      dup2\n        /* \"#utility.yul\":12793:12924   */\n      tag_316\n      jump\t// in\n    tag_370:\n        /* \"#utility.yul\":12785:12924   */\n      swap1\n      pop\n        /* \"#utility.yul\":12512:12931   */\n      swap2\n      swap1\n      pop\n      jump\t// out\n        /* \"#utility.yul\":12937:13356   */\n    tag_96:\n        /* \"#utility.yul\":13103:13107   */\n      0x00\n        /* \"#utility.yul\":13141:13143   */\n      0x20\n        /* \"#utility.yul\":13130:13139   */\n      dup3\n        /* \"#utility.yul\":13126:13144   */\n      add\n        /* \"#utility.yul\":13118:13144   */\n      swap1\n      pop\n        /* \"#utility.yul\":13190:13199   */\n      dup2\n        /* \"#utility.yul\":13184:13188   */\n      dup2\n        /* \"#utility.yul\":13180:13200   */\n      sub\n        /* \"#utility.yul\":13176:13177   */\n      0x00\n        /* \"#utility.yul\":13165:13174   */\n      dup4\n        /* \"#utility.yul\":13161:13178   */\n      add\n        /* \"#utility.yul\":13154:13201   */\n      mstore\n        /* \"#utility.yul\":13218:13349   */\n      tag_372\n        /* \"#utility.yul\":13344:13348   */\n      dup2\n        /* \"#utility.yul\":13218:13349   */\n      tag_321\n      jump\t// in\n    tag_372:\n        /* \"#utility.yul\":13210:13349   */\n      swap1\n      pop\n        /* \"#utility.yul\":12937:13356   */\n      swap2\n      swap1\n      pop\n      jump\t// out\n        /* \"#utility.yul\":13362:13781   */\n    tag_93:\n        /* \"#utility.yul\":13528:13532   */\n      0x00\n        /* \"#utility.yul\":13566:13568   */\n      0x20\n        /* \"#utility.yul\":13555:13564   */\n      dup3\n        /* \"#utility.yul\":13551:13569   */\n      add\n        /* \"#utility.yul\":13543:13569   */\n      swap1\n      pop\n        /* \"#utility.yul\":13615:13624   */\n      dup2\n        /* \"#utility.yul\":13609:13613   */\n      dup2\n        /* \"#utility.yul\":13605:13625   */\n      sub\n        /* \"#utility.yul\":13601:13602   */\n      0x00\n        /* \"#utility.yul\":13590:13599   */\n      dup4\n        /* \"#utility.yul\":13586:13603   */\n      add\n        /* \"#utility.yul\":13579:13626   */\n      mstore\n        /* \"#utility.yul\":13643:13774   */\n      tag_374\n        /* \"#utility.yul\":13769:13773   */\n      dup2\n        /* \"#utility.yul\":13643:13774   */\n      tag_326\n      jump\t// in\n    tag_374:\n        /* \"#utility.yul\":13635:13774   */\n      swap1\n      pop\n        /* \"#utility.yul\":13362:13781   */\n      swap2\n      swap1\n      pop\n      jump\t// out\n        /* \"#utility.yul\":13787:14009   */\n    tag_23:\n        /* \"#utility.yul\":13880:13884   */\n      0x00\n        /* \"#utility.yul\":13918:13920   */\n      0x20\n        /* \"#utility.yul\":13907:13916   */\n      dup3\n        /* \"#utility.yul\":13903:13921   */\n      add\n        /* \"#utility.yul\":13895:13921   */\n      swap1\n      pop\n        /* \"#utility.yul\":13931:14002   */\n      tag_376\n        /* \"#utility.yul\":13999:14000   */\n      0x00\n        /* \"#utility.yul\":13988:13997   */\n      dup4\n        /* \"#utility.yul\":13984:14001   */\n      add\n        /* \"#utility.yul\":13975:13981   */\n      dup5\n        /* \"#utility.yul\":13931:14002   */\n      tag_339\n      jump\t// in\n    tag_376:\n        /* \"#utility.yul\":13787:14009   */\n      swap3\n      swap2\n      pop\n      pop\n      jump\t// out\n        /* \"#utility.yul\":14096:14228   */\n    tag_275:\n        /* \"#utility.yul\":14163:14167   */\n      0x00\n        /* \"#utility.yul\":14186:14189   */\n      dup2\n        /* \"#utility.yul\":14178:14189   */\n      swap1\n      pop\n        /* \"#utility.yul\":14216:14220   */\n      0x20\n        /* \"#utility.yul\":14211:14214   */\n      dup3\n        /* \"#utility.yul\":14207:14221   */\n      add\n        /* \"#utility.yul\":14199:14221   */\n      swap1\n      pop\n        /* \"#utility.yul\":14096:14228   */\n      swap2\n      swap1\n      pop\n      jump\t// out\n        /* \"#utility.yul\":14234:14396   */\n    tag_289:\n        /* \"#utility.yul\":14331:14335   */\n      0x00\n        /* \"#utility.yul\":14354:14357   */\n      dup2\n        /* \"#utility.yul\":14346:14357   */\n      swap1\n      pop\n        /* \"#utility.yul\":14384:14388   */\n      0x20\n        /* \"#utility.yul\":14379:14382   */\n      dup3\n        /* \"#utility.yul\":14375:14389   */\n      add\n        /* \"#utility.yul\":14367:14389   */\n      swap1\n      pop\n        /* \"#utility.yul\":14234:14396   */\n      swap2\n      swap1\n      pop\n      jump\t// out\n        /* \"#utility.yul\":14402:14516   */\n    tag_271:\n        /* \"#utility.yul\":14469:14475   */\n      0x00\n        /* \"#utility.yul\":14503:14508   */\n      dup2\n        /* \"#utility.yul\":14497:14509   */\n      mload\n        /* \"#utility.yul\":14487:14509   */\n      swap1\n      pop\n        /* \"#utility.yul\":14402:14516   */\n      swap2\n      swap1\n      pop\n      jump\t// out\n        /* \"#utility.yul\":14522:14666   */\n    tag_285:\n        /* \"#utility.yul\":14619:14625   */\n      0x00\n        /* \"#utility.yul\":14653:14658   */\n      dup2\n        /* \"#utility.yul\":14647:14659   */\n      mload\n        /* \"#utility.yul\":14637:14659   */\n      swap1\n      pop\n        /* \"#utility.yul\":14522:14666   */\n      swap2\n      swap1\n      pop\n      jump\t// out\n        /* \"#utility.yul\":14672:14785   */\n    tag_281:\n        /* \"#utility.yul\":14742:14746   */\n      0x00\n        /* \"#utility.yul\":14774:14778   */\n      0x20\n        /* \"#utility.yul\":14769:14772   */\n      dup3\n        /* \"#utility.yul\":14765:14779   */\n      add\n        /* \"#utility.yul\":14757:14779   */\n      swap1\n      pop\n        /* \"#utility.yul\":14672:14785   */\n      swap2\n      swap1\n      pop\n      jump\t// out\n        /* \"#utility.yul\":14791:14934   */\n    tag_295:\n        /* \"#utility.yul\":14891:14895   */\n      0x00\n        /* \"#utility.yul\":14923:14927   */\n      0x20\n        /* \"#utility.yul\":14918:14921   */\n      dup3\n        /* \"#utility.yul\":14914:14928   */\n      add\n        /* \"#utility.yul\":14906:14928   */\n      swap1\n      pop\n        /* \"#utility.yul\":14791:14934   */\n      swap2\n      swap1\n      pop\n      jump\t// out\n        /* \"#utility.yul\":14940:15124   */\n    tag_273:\n        /* \"#utility.yul\":15039:15050   */\n      0x00\n        /* \"#utility.yul\":15073:15079   */\n      dup3\n        /* \"#utility.yul\":15068:15071   */\n      dup3\n        /* \"#utility.yul\":15061:15080   */\n      mstore\n        /* \"#utility.yul\":15113:15117   */\n      0x20\n        /* \"#utility.yul\":15108:15111   */\n      dup3\n        /* \"#utility.yul\":15104:15118   */\n      add\n        /* \"#utility.yul\":15089:15118   */\n      swap1\n      pop\n        /* \"#utility.yul\":14940:15124   */\n      swap3\n      swap2\n      pop\n      pop\n      jump\t// out\n        /* \"#utility.yul\":15130:15344   */\n    tag_287:\n        /* \"#utility.yul\":15259:15270   */\n      0x00\n        /* \"#utility.yul\":15293:15299   */\n      dup3\n        /* \"#utility.yul\":15288:15291   */\n      dup3\n        /* \"#utility.yul\":15281:15300   */\n      mstore\n        /* \"#utility.yul\":15333:15337   */\n      0x20\n        /* \"#utility.yul\":15328:15331   */\n      dup3\n        /* \"#utility.yul\":15324:15338   */\n      add\n        /* \"#utility.yul\":15309:15338   */\n      swap1\n      pop\n        /* \"#utility.yul\":15130:15344   */\n      swap3\n      swap2\n      pop\n      pop\n      jump\t// out\n        /* \"#utility.yul\":15350:15519   */\n    tag_303:\n        /* \"#utility.yul\":15434:15445   */\n      0x00\n        /* \"#utility.yul\":15468:15474   */\n      dup3\n        /* \"#utility.yul\":15463:15466   */\n      dup3\n        /* \"#utility.yul\":15456:15475   */\n      mstore\n        /* \"#utility.yul\":15508:15512   */\n      0x20\n        /* \"#utility.yul\":15503:15506   */\n      dup3\n        /* \"#utility.yul\":15499:15513   */\n      add\n        /* \"#utility.yul\":15484:15513   */\n      swap1\n      pop\n        /* \"#utility.yul\":15350:15519   */\n      swap3\n      swap2\n      pop\n      pop\n      jump\t// out\n        /* \"#utility.yul\":15525:15830   */\n    tag_162:\n        /* \"#utility.yul\":15565:15568   */\n      0x00\n        /* \"#utility.yul\":15584:15604   */\n      tag_389\n        /* \"#utility.yul\":15602:15603   */\n      dup3\n        /* \"#utility.yul\":15584:15604   */\n      tag_338\n      jump\t// in\n    tag_389:\n        /* \"#utility.yul\":15579:15604   */\n      swap2\n      pop\n        /* \"#utility.yul\":15618:15638   */\n      tag_390\n        /* \"#utility.yul\":15636:15637   */\n      dup4\n        /* \"#utility.yul\":15618:15638   */\n      tag_338\n      jump\t// in\n    tag_390:\n        /* \"#utility.yul\":15613:15638   */\n      swap3\n      pop\n        /* \"#utility.yul\":15772:15773   */\n      dup3\n        /* \"#utility.yul\":15704:15770   */\n      0xffffffffffffffffffffffffffffffffffffffffffffffffffffffffffffffff\n        /* \"#utility.yul\":15700:15774   */\n      sub\n        /* \"#utility.yul\":15697:15698   */\n      dup3\n        /* \"#utility.yul\":15694:15775   */\n      gt\n        /* \"#utility.yul\":15691:15798   */\n      iszero\n      tag_391\n      jumpi\n        /* \"#utility.yul\":15778:15796   */\n      tag_392\n      tag_393\n      jump\t// in\n    tag_392:\n        /* \"#utility.yul\":15691:15798   */\n    tag_391:\n        /* \"#utility.yul\":15822:15823   */\n      dup3\n        /* \"#utility.yul\":15819:15820   */\n      dup3\n        /* \"#utility.yul\":15815:15824   */\n      add\n        /* \"#utility.yul\":15808:15824   */\n      swap1\n      pop\n        /* \"#utility.yul\":15525:15830   */\n      swap3\n      swap2\n      pop\n      pop\n      jump\t// out\n        /* \"#utility.yul\":15836:16021   */\n    tag_212:\n        /* \"#utility.yul\":15876:15877   */\n      0x00\n        /* \"#utility.yul\":15893:15913   */\n      tag_395\n        /* \"#utility.yul\":15911:15912   */\n      dup3\n        /* \"#utility.yul\":15893:15913   */\n      tag_338\n      jump\t// in\n    tag_395:\n        /* \"#utility.yul\":15888:15913   */\n      swap2\n      pop\n        /* \"#utility.yul\":15927:15947   */\n      tag_396\n        /* \"#utility.yul\":15945:15946   */\n      dup4\n        /* \"#utility.yul\":15927:15947   */\n      tag_338\n      jump\t// in\n    tag_396:\n        /* \"#utility.yul\":15922:15947   */\n      swap3\n      pop\n        /* \"#utility.yul\":15966:15967   */\n      dup3\n        /* \"#utility.yul\":15956:15991   */\n      tag_397\n      jumpi\n        /* \"#utility.yul\":15971:15989   */\n      tag_398\n      tag_399\n      jump\t// in\n    tag_398:\n        /* \"#utility.yul\":15956:15991   */\n    tag_397:\n        /* \"#utility.yul\":16013:16014   */\n      dup3\n        /* \"#utility.yul\":16010:16011   */\n      dup3\n        /* \"#utility.yul\":16006:16015   */\n      div\n        /* \"#utility.yul\":16001:16015   */\n      swap1\n      pop\n        /* \"#utility.yul\":15836:16021   */\n      swap3\n      swap2\n      pop\n      pop\n      jump\t// out\n        /* \"#utility.yul\":16027:16375   */\n    tag_160:\n        /* \"#utility.yul\":16067:16074   */\n      0x00\n        /* \"#utility.yul\":16090:16110   */\n      tag_401\n        /* \"#utility.yul\":16108:16109   */\n      dup3\n        /* \"#utility.yul\":16090:16110   */\n      tag_338\n      jump\t// in\n    tag_401:\n        /* \"#utility.yul\":16085:16110   */\n      swap2\n      pop\n        /* \"#utility.yul\":16124:16144   */\n      tag_402\n        /* \"#utility.yul\":16142:16143   */\n      dup4\n        /* \"#utility.yul\":16124:16144   */\n      tag_338\n      jump\t// in\n    tag_402:\n        /* \"#utility.yul\":16119:16144   */\n      swap3\n      pop\n        /* \"#utility.yul\":16312:16313   */\n      dup2\n        /* \"#utility.yul\":16244:16310   */\n      0xffffffffffffffffffffffffffffffffffffffffffffffffffffffffffffffff\n        /* \"#utility.yul\":16240:16314   */\n      div\n        /* \"#utility.yul\":16237:16238   */\n      dup4\n        /* \"#utility.yul\":16234:16315   */\n      gt\n        /* \"#utility.yul\":16229:16230   */\n      dup3\n        /* \"#utility.yul\":16222:16231   */\n      iszero\n        /* \"#utility.yul\":16215:16232   */\n      iszero\n        /* \"#utility.yul\":16211:16316   */\n      and\n        /* \"#utility.yul\":16208:16339   */\n      iszero\n      tag_403\n      jumpi\n        /* \"#utility.yul\":16319:16337   */\n      tag_404\n      tag_393\n      jump\t// in\n    tag_404:\n        /* \"#utility.yul\":16208:16339   */\n    tag_403:\n        /* \"#utility.yul\":16367:16368   */\n      dup3\n        /* \"#utility.yul\":16364:16365   */\n      dup3\n        /* \"#utility.yul\":16360:16369   */\n      mul\n        /* \"#utility.yul\":16349:16369   */\n      swap1\n      pop\n        /* \"#utility.yul\":16027:16375   */\n      swap3\n      swap2\n      pop\n      pop\n      jump\t// out\n        /* \"#utility.yul\":16381:16572   */\n    tag_148:\n        /* \"#utility.yul\":16421:16425   */\n      0x00\n        /* \"#utility.yul\":16441:16461   */\n      tag_406\n        /* \"#utility.yul\":16459:16460   */\n      dup3\n        /* \"#utility.yul\":16441:16461   */\n      tag_338\n      jump\t// in\n    tag_406:\n        /* \"#utility.yul\":16436:16461   */\n      swap2\n      pop\n        /* \"#utility.yul\":16475:16495   */\n      tag_407\n        /* \"#utility.yul\":16493:16494   */\n      dup4\n        /* \"#utility.yul\":16475:16495   */\n      tag_338\n      jump\t// in\n    tag_407:\n        /* \"#utility.yul\":16470:16495   */\n      swap3\n      pop\n        /* \"#utility.yul\":16514:16515   */\n      dup3\n        /* \"#utility.yul\":16511:16512   */\n      dup3\n        /* \"#utility.yul\":16508:16516   */\n      lt\n        /* \"#utility.yul\":16505:16539   */\n      iszero\n      tag_408\n      jumpi\n        /* \"#utility.yul\":16519:16537   */\n      tag_409\n      tag_393\n      jump\t// in\n    tag_409:\n        /* \"#utility.yul\":16505:16539   */\n    tag_408:\n        /* \"#utility.yul\":16564:16565   */\n      dup3\n        /* \"#utility.yul\":16561:16562   */\n      dup3\n        /* \"#utility.yul\":16557:16566   */\n      sub\n        /* \"#utility.yul\":16549:16566   */\n      swap1\n      pop\n        /* \"#utility.yul\":16381:16572   */\n      swap3\n      swap2\n      pop\n      pop\n      jump\t// out\n        /* \"#utility.yul\":16578:16674   */\n    tag_264:\n        /* \"#utility.yul\":16615:16622   */\n      0x00\n        /* \"#utility.yul\":16644:16668   */\n      tag_411\n        /* \"#utility.yul\":16662:16667   */\n      dup3\n        /* \"#utility.yul\":16644:16668   */\n      tag_412\n      jump\t// in\n    tag_411:\n        /* \"#utility.yul\":16633:16668   */\n      swap1\n      pop\n        /* \"#utility.yul\":16578:16674   */\n      swap2\n      swap1\n      pop\n      jump\t// out\n        /* \"#utility.yul\":16680:16784   */\n    tag_261:\n        /* \"#utility.yul\":16725:16732   */\n      0x00\n        /* \"#utility.yul\":16754:16778   */\n      tag_414\n        /* \"#utility.yul\":16772:16777   */\n      dup3\n        /* \"#utility.yul\":16754:16778   */\n      tag_412\n      jump\t// in\n    tag_414:\n        /* \"#utility.yul\":16743:16778   */\n      swap1\n      pop\n        /* \"#utility.yul\":16680:16784   */\n      swap2\n      swap1\n      pop\n      jump\t// out\n        /* \"#utility.yul\":16790:16880   */\n    tag_299:\n        /* \"#utility.yul\":16824:16831   */\n      0x00\n        /* \"#utility.yul\":16867:16872   */\n      dup2\n        /* \"#utility.yul\":16860:16873   */\n      iszero\n        /* \"#utility.yul\":16853:16874   */\n      iszero\n        /* \"#utility.yul\":16842:16874   */\n      swap1\n      pop\n        /* \"#utility.yul\":16790:16880   */\n      swap2\n      swap1\n      pop\n      jump\t// out\n        /* \"#utility.yul\":16886:17012   */\n    tag_412:\n        /* \"#utility.yul\":16923:16930   */\n      0x00\n        /* \"#utility.yul\":16963:17005   */\n      0xffffffffffffffffffffffffffffffffffffffff\n        /* \"#utility.yul\":16956:16961   */\n      dup3\n        /* \"#utility.yul\":16952:17006   */\n      and\n        /* \"#utility.yul\":16941:17006   */\n      swap1\n      pop\n        /* \"#utility.yul\":16886:17012   */\n      swap2\n      swap1\n      pop\n      jump\t// out\n        /* \"#utility.yul\":17018:17095   */\n    tag_338:\n        /* \"#utility.yul\":17055:17062   */\n      0x00\n        /* \"#utility.yul\":17084:17089   */\n      dup2\n        /* \"#utility.yul\":17073:17089   */\n      swap1\n      pop\n        /* \"#utility.yul\":17018:17095   */\n      swap2\n      swap1\n      pop\n      jump\t// out\n        /* \"#utility.yul\":17101:17334   */\n    tag_115:\n        /* \"#utility.yul\":17140:17143   */\n      0x00\n        /* \"#utility.yul\":17163:17187   */\n      tag_419\n        /* \"#utility.yul\":17181:17186   */\n      dup3\n        /* \"#utility.yul\":17163:17187   */\n      tag_338\n      jump\t// in\n    tag_419:\n        /* \"#utility.yul\":17154:17187   */\n      swap2\n      pop\n        /* \"#utility.yul\":17209:17275   */\n      0xffffffffffffffffffffffffffffffffffffffffffffffffffffffffffffffff\n        /* \"#utility.yul\":17202:17207   */\n      dup3\n        /* \"#utility.yul\":17199:17276   */\n      eq\n        /* \"#utility.yul\":17196:17299   */\n      iszero\n      tag_420\n      jumpi\n        /* \"#utility.yul\":17279:17297   */\n      tag_421\n      tag_393\n      jump\t// in\n    tag_421:\n        /* \"#utility.yul\":17196:17299   */\n    tag_420:\n        /* \"#utility.yul\":17326:17327   */\n      0x01\n        /* \"#utility.yul\":17319:17324   */\n      dup3\n        /* \"#utility.yul\":17315:17328   */\n      add\n        /* \"#utility.yul\":17308:17328   */\n      swap1\n      pop\n        /* \"#utility.yul\":17101:17334   */\n      swap2\n      swap1\n      pop\n      jump\t// out\n        /* \"#utility.yul\":17340:17520   */\n    tag_393:\n        /* \"#utility.yul\":17388:17465   */\n      0x4e487b7100000000000000000000000000000000000000000000000000000000\n        /* \"#utility.yul\":17385:17386   */\n      0x00\n        /* \"#utility.yul\":17378:17466   */\n      mstore\n        /* \"#utility.yul\":17485:17489   */\n      0x11\n        /* \"#utility.yul\":17482:17483   */\n      0x04\n        /* \"#utility.yul\":17475:17490   */\n      mstore\n        /* \"#utility.yul\":17509:17513   */\n      0x24\n        /* \"#utility.yul\":17506:17507   */\n      0x00\n        /* \"#utility.yul\":17499:17514   */\n      revert\n        /* \"#utility.yul\":17526:17706   */\n    tag_399:\n        /* \"#utility.yul\":17574:17651   */\n      0x4e487b7100000000000000000000000000000000000000000000000000000000\n        /* \"#utility.yul\":17571:17572   */\n      0x00\n        /* \"#utility.yul\":17564:17652   */\n      mstore\n        /* \"#utility.yul\":17671:17675   */\n      0x12\n        /* \"#utility.yul\":17668:17669   */\n      0x04\n        /* \"#utility.yul\":17661:17676   */\n      mstore\n        /* \"#utility.yul\":17695:17699   */\n      0x24\n        /* \"#utility.yul\":17692:17693   */\n      0x00\n        /* \"#utility.yul\":17685:17700   */\n      revert\n        /* \"#utility.yul\":17712:17892   */\n    tag_130:\n        /* \"#utility.yul\":17760:17837   */\n      0x4e487b7100000000000000000000000000000000000000000000000000000000\n        /* \"#utility.yul\":17757:17758   */\n      0x00\n        /* \"#utility.yul\":17750:17838   */\n      mstore\n        /* \"#utility.yul\":17857:17861   */\n      0x32\n        /* \"#utility.yul\":17854:17855   */\n      0x04\n        /* \"#utility.yul\":17847:17862   */\n      mstore\n        /* \"#utility.yul\":17881:17885   */\n      0x24\n        /* \"#utility.yul\":17878:17879   */\n      0x00\n        /* \"#utility.yul\":17871:17886   */\n      revert\n        /* \"#utility.yul\":17898:18078   */\n    tag_119:\n        /* \"#utility.yul\":17946:18023   */\n      0x4e487b7100000000000000000000000000000000000000000000000000000000\n        /* \"#utility.yul\":17943:17944   */\n      0x00\n        /* \"#utility.yul\":17936:18024   */\n      mstore\n        /* \"#utility.yul\":18043:18047   */\n      0x41\n        /* \"#utility.yul\":18040:18041   */\n      0x04\n        /* \"#utility.yul\":18033:18048   */\n      mstore\n        /* \"#utility.yul\":18067:18071   */\n      0x24\n        /* \"#utility.yul\":18064:18065   */\n      0x00\n        /* \"#utility.yul\":18057:18072   */\n      revert\n        /* \"#utility.yul\":18207:18324   */\n    tag_232:\n        /* \"#utility.yul\":18316:18317   */\n      0x00\n        /* \"#utility.yul\":18313:18314   */\n      dup1\n        /* \"#utility.yul\":18306:18318   */\n      revert\n        /* \"#utility.yul\":18330:18507   */\n    tag_305:\n        /* \"#utility.yul\":18470:18499   */\n      0x76616c7565206973206e6f742067726561746572207468616e20300000000000\n        /* \"#utility.yul\":18466:18467   */\n      0x00\n        /* \"#utility.yul\":18458:18464   */\n      dup3\n        /* \"#utility.yul\":18454:18468   */\n      add\n        /* \"#utility.yul\":18447:18500   */\n      mstore\n        /* \"#utility.yul\":18330:18507   */\n      pop\n      jump\t// out\n        /* \"#utility.yul\":18513:18737   */\n    tag_310:\n        /* \"#utility.yul\":18653:18687   */\n      0x796f7520646f6e74206861766520696e766573746d656e7420746f2077697468\n        /* \"#utility.yul\":18649:18650   */\n      0x00\n        /* \"#utility.yul\":18641:18647   */\n      dup3\n        /* \"#utility.yul\":18637:18651   */\n      add\n        /* \"#utility.yul\":18630:18688   */\n      mstore\n        /* \"#utility.yul\":18722:18729   */\n      0x647261776e000000000000000000000000000000000000000000000000000000\n        /* \"#utility.yul\":18717:18719   */\n      0x20\n        /* \"#utility.yul\":18709:18715   */\n      dup3\n        /* \"#utility.yul\":18705:18720   */\n      add\n        /* \"#utility.yul\":18698:18730   */\n      mstore\n        /* \"#utility.yul\":18513:18737   */\n      pop\n      jump\t// out\n        /* \"#utility.yul\":18743:18994   */\n    tag_315:\n        /* \"#utility.yul\":18883:18917   */\n      0x796f752073686f756c642068617665206d696e696d756d203520726566657272\n        /* \"#utility.yul\":18879:18880   */\n      0x00\n        /* \"#utility.yul\":18871:18877   */\n      dup3\n        /* \"#utility.yul\":18867:18881   */\n      add\n        /* \"#utility.yul\":18860:18918   */\n      mstore\n        /* \"#utility.yul\":18952:18986   */\n      0x616c73207468656e20796f752063616e20776974686472617720726577617264\n        /* \"#utility.yul\":18947:18949   */\n      0x20\n        /* \"#utility.yul\":18939:18945   */\n      dup3\n        /* \"#utility.yul\":18935:18950   */\n      add\n        /* \"#utility.yul\":18928:18987   */\n      mstore\n        /* \"#utility.yul\":18743:18994   */\n      pop\n      jump\t// out\n        /* \"#utility.yul\":19000:19181   */\n    tag_320:\n        /* \"#utility.yul\":19140:19173   */\n      0x74686973206973206e6f7420796f75722077697468647261776e2074696d6500\n        /* \"#utility.yul\":19136:19137   */\n      0x00\n        /* \"#utility.yul\":19128:19134   */\n      dup3\n        /* \"#utility.yul\":19124:19138   */\n      add\n        /* \"#utility.yul\":19117:19174   */\n      mstore\n        /* \"#utility.yul\":19000:19181   */\n      pop\n      jump\t// out\n        /* \"#utility.yul\":19187:19408   */\n    tag_325:\n        /* \"#utility.yul\":19327:19361   */\n      0x796f7520646f6e742068617665207265776172647320746f2077697468647261\n        /* \"#utility.yul\":19323:19324   */\n      0x00\n        /* \"#utility.yul\":19315:19321   */\n      dup3\n        /* \"#utility.yul\":19311:19325   */\n      add\n        /* \"#utility.yul\":19304:19362   */\n      mstore\n        /* \"#utility.yul\":19396:19400   */\n      0x776e000000000000000000000000000000000000000000000000000000000000\n        /* \"#utility.yul\":19391:19393   */\n      0x20\n        /* \"#utility.yul\":19383:19389   */\n      dup3\n        /* \"#utility.yul\":19379:19394   */\n      add\n        /* \"#utility.yul\":19372:19401   */\n      mstore\n        /* \"#utility.yul\":19187:19408   */\n      pop\n      jump\t// out\n        /* \"#utility.yul\":19414:19582   */\n    tag_330:\n        /* \"#utility.yul\":19554:19574   */\n      0x66656573206973206e6f7420656e6f7567680000000000000000000000000000\n        /* \"#utility.yul\":19550:19551   */\n      0x00\n        /* \"#utility.yul\":19542:19548   */\n      dup3\n        /* \"#utility.yul\":19538:19552   */\n      add\n        /* \"#utility.yul\":19531:19575   */\n      mstore\n        /* \"#utility.yul\":19414:19582   */\n      pop\n      jump\t// out\n        /* \"#utility.yul\":19588:19710   */\n    tag_220:\n        /* \"#utility.yul\":19661:19685   */\n      tag_436\n        /* \"#utility.yul\":19679:19684   */\n      dup2\n        /* \"#utility.yul\":19661:19685   */\n      tag_264\n      jump\t// in\n    tag_436:\n        /* \"#utility.yul\":19654:19659   */\n      dup2\n        /* \"#utility.yul\":19651:19686   */\n      eq\n        /* \"#utility.yul\":19641:19704   */\n      tag_437\n      jumpi\n        /* \"#utility.yul\":19700:19701   */\n      0x00\n        /* \"#utility.yul\":19697:19698   */\n      dup1\n        /* \"#utility.yul\":19690:19702   */\n      revert\n        /* \"#utility.yul\":19641:19704   */\n    tag_437:\n        /* \"#utility.yul\":19588:19710   */\n      pop\n      jump\t// out\n        /* \"#utility.yul\":19716:19832   */\n    tag_224:\n        /* \"#utility.yul\":19786:19807   */\n      tag_439\n        /* \"#utility.yul\":19801:19806   */\n      dup2\n        /* \"#utility.yul\":19786:19807   */\n      tag_299\n      jump\t// in\n    tag_439:\n        /* \"#utility.yul\":19779:19784   */\n      dup2\n        /* \"#utility.yul\":19776:19808   */\n      eq\n        /* \"#utility.yul\":19766:19826   */\n      tag_440\n      jumpi\n        /* \"#utility.yul\":19822:19823   */\n      0x00\n        /* \"#utility.yul\":19819:19820   */\n      dup1\n        /* \"#utility.yul\":19812:19824   */\n      revert\n        /* \"#utility.yul\":19766:19826   */\n    tag_440:\n        /* \"#utility.yul\":19716:19832   */\n      pop\n      jump\t// out\n        /* \"#utility.yul\":19838:19960   */\n    tag_228:\n        /* \"#utility.yul\":19911:19935   */\n      tag_442\n        /* \"#utility.yul\":19929:19934   */\n      dup2\n        /* \"#utility.yul\":19911:19935   */\n      tag_338\n      jump\t// in\n    tag_442:\n        /* \"#utility.yul\":19904:19909   */\n      dup2\n        /* \"#utility.yul\":19901:19936   */\n      eq\n        /* \"#utility.yul\":19891:19954   */\n      tag_443\n      jumpi\n        /* \"#utility.yul\":19950:19951   */\n      0x00\n        /* \"#utility.yul\":19947:19948   */\n      dup1\n        /* \"#utility.yul\":19940:19952   */\n      revert\n        /* \"#utility.yul\":19891:19954   */\n    tag_443:\n        /* \"#utility.yul\":19838:19960   */\n      pop\n      jump\t// out\n\n    auxdata: 0xa2646970667358221220a618ca4ec030a4843bee4d4b53b671c506a11447d15d4696ae3166578113859d64736f6c63430008070033\n}\n",
				"bytecode": {
					"linkReferences": {},
					"object": "6080604052737ef2e0048f5baede046f6bf797943daf4ed8cb47600260006101000a81548173ffffffffffffffffffffffffffffffffffffffff021916908373ffffffffffffffffffffffffffffffffffffffff16021790555034801561006557600080fd5b50336000806101000a81548173ffffffffffffffffffffffffffffffffffffffff021916908373ffffffffffffffffffffffffffffffffffffffff160217905550660aa87bee538000600181905550612353806100c36000396000f3fe6080604052600436106100dd5760003560e01c80635194d5ac1161007f5780638da5cb5b116100595780638da5cb5b1461029f578063929f6bbe146102ca578063d0ff6e63146102f5578063d3560ee814610320576100dd565b80635194d5ac1461021957806360fca6fd146102495780637b8246ce14610274576100dd565b80631e8aba35116100bb5780631e8aba3514610163578063349020cd1461018e5780633a1e0833146101be5780633bf0200e146101e9576100dd565b80630a701f36146100e25780630c5f58f41461010d57806310cde60a14610138575b600080fd5b3480156100ee57600080fd5b506100f7610361565b6040516101049190611e59565b60405180910390f35b34801561011957600080fd5b506101226103ab565b60405161012f9190611d3a565b60405180910390f35b34801561014457600080fd5b5061014d610479565b60405161015a9190611e59565b60405180910390f35b34801561016f57600080fd5b5061017861047f565b6040516101859190611e59565b60405180910390f35b6101a860048036038101906101a39190611911565b6104cc565b6040516101b59190611d7e565b60405180910390f35b3480156101ca57600080fd5b506101d36107ae565b6040516101e09190611d5c565b60405180910390f35b61020360048036038101906101fe919061196b565b610a10565b6040516102109190611d7e565b60405180910390f35b610233600480360381019061022e91906119ab565b610d97565b6040516102409190611d7e565b60405180910390f35b34801561025557600080fd5b5061025e611499565b60405161026b9190611e59565b60405180910390f35b34801561028057600080fd5b5061028961149f565b6040516102969190611e59565b60405180910390f35b3480156102ab57600080fd5b506102b46114a5565b6040516102c19190611c6c565b60405180910390f35b3480156102d657600080fd5b506102df6114c9565b6040516102ec9190611e59565b60405180910390f35b34801561030157600080fd5b5061030a611513565b6040516103179190611e59565b60405180910390f35b34801561032c57600080fd5b5061034760048036038101906103429190611911565b611519565b604051610358959493929190611ce7565b60405180910390f35b6000600760003373ffffffffffffffffffffffffffffffffffffffff1673ffffffffffffffffffffffffffffffffffffffff16815260200190815260200160002060030154905090565b6060600760003373ffffffffffffffffffffffffffffffffffffffff1673ffffffffffffffffffffffffffffffffffffffff16815260200190815260200160002060010180548060200260200160405190810160405280929190818152602001828054801561046f57602002820191906000526020600020905b8160009054906101000a900473ffffffffffffffffffffffffffffffffffffffff1673ffffffffffffffffffffffffffffffffffffffff1681526020019060010190808311610425575b5050505050905090565b60055481565b6000600760003373ffffffffffffffffffffffffffffffffffffffff1673ffffffffffffffffffffffffffffffffffffffff16815260200190815260200160002060010180549050905090565b60006001543414610512576040517f08c379a000000000000000000000000000000000000000000000000000000000815260040161050990611e39565b60405180910390fd5b6000600760003373ffffffffffffffffffffffffffffffffffffffff1673ffffffffffffffffffffffffffffffffffffffff1681526020019081526020016000206003015411610597576040517f08c379a000000000000000000000000000000000000000000000000000000000815260040161058e90611e19565b60405180910390fd5b6005600760003373ffffffffffffffffffffffffffffffffffffffff1673ffffffffffffffffffffffffffffffffffffffff168152602001908152602001600020600101805490501015610620576040517f08c379a000000000000000000000000000000000000000000000000000000000815260040161061790611dd9565b60405180910390fd5b6000600760003373ffffffffffffffffffffffffffffffffffffffff1673ffffffffffffffffffffffffffffffffffffffff1681526020019081526020016000206003015490508273ffffffffffffffffffffffffffffffffffffffff1663a9059cbb33836040518363ffffffff1660e01b81526004016106a2929190611cbe565b602060405180830381600087803b1580156106bc57600080fd5b505af11580156106d0573d6000803e3d6000fd5b505050506040513d601f19601f820116820180604052508101906106f4919061193e565b506000600760003373ffffffffffffffffffffffffffffffffffffffff1673ffffffffffffffffffffffffffffffffffffffff1681526020019081526020016000206003018190555060008054906101000a900473ffffffffffffffffffffffffffffffffffffffff1673ffffffffffffffffffffffffffffffffffffffff166108fc349081150290604051600060405180830381858888f193505050501580156107a3573d6000803e3d6000fd5b506001915050919050565b60606000600760003373ffffffffffffffffffffffffffffffffffffffff1673ffffffffffffffffffffffffffffffffffffffff16815260200190815260200160002060040154905060008060005b83811015610886576000600760003373ffffffffffffffffffffffffffffffffffffffff1673ffffffffffffffffffffffffffffffffffffffff168152602001908152602001600020600001600083815260200190815260200160002060000154111561087357828061086f90612066565b9350505b808061087e90612066565b9150506107fd565b5060008267ffffffffffffffff8111156108a3576108a261213c565b5b6040519080825280602002602001820160405280156108dc57816020015b6108c96118b1565b8152602001906001900390816108c15790505b50905060005b84811015610a05576000600760003373ffffffffffffffffffffffffffffffffffffffff1673ffffffffffffffffffffffffffffffffffffffff16815260200190815260200160002060000160008381526020019081526020016000206000015411156109f257600760003373ffffffffffffffffffffffffffffffffffffffff1673ffffffffffffffffffffffffffffffffffffffff168152602001908152602001600020600001600082815260200190815260200160002060405180606001604052908160008201548152602001600182015481526020016002820154815250508284815181106109d8576109d761210d565b5b602002602001018190525082806109ee90612066565b9350505b80806109fd90612066565b9150506108e2565b508094505050505090565b60006001543414610a56576040517f08c379a0000000000000000000000000000000000000000000000000000000008152600401610a4d90611e39565b60405180910390fd5b42600760003373ffffffffffffffffffffffffffffffffffffffff1673ffffffffffffffffffffffffffffffffffffffff16815260200190815260200160002060000160008581526020019081526020016000206001015410610aee576040517f08c379a0000000000000000000000000000000000000000000000000000000008152600401610ae590611df9565b60405180910390fd5b6000600760003373ffffffffffffffffffffffffffffffffffffffff1673ffffffffffffffffffffffffffffffffffffffff16815260200190815260200160002060000160008581526020019081526020016000206000015411610b87576040517f08c379a0000000000000000000000000000000000000000000000000000000008152600401610b7e90611db9565b60405180910390fd5b6000600760003373ffffffffffffffffffffffffffffffffffffffff1673ffffffffffffffffffffffffffffffffffffffff16815260200190815260200160002060000160008581526020019081526020016000206000015490508273ffffffffffffffffffffffffffffffffffffffff1663a9059cbb33836040518363ffffffff1660e01b8152600401610c1d929190611cbe565b602060405180830381600087803b158015610c3757600080fd5b505af1158015610c4b573d6000803e3d6000fd5b505050506040513d601f19601f82011682018060405250810190610c6f919061193e565b506000600760003373ffffffffffffffffffffffffffffffffffffffff1673ffffffffffffffffffffffffffffffffffffffff16815260200190815260200160002060000160008681526020019081526020016000206000018190555080600760003373ffffffffffffffffffffffffffffffffffffffff1673ffffffffffffffffffffffffffffffffffffffff1681526020019081526020016000206005016000828254610d1e9190611fd8565b9250508190555060008054906101000a900473ffffffffffffffffffffffffffffffffffffffff1673ffffffffffffffffffffffffffffffffffffffff166108fc349081150290604051600060405180830381858888f19350505050158015610d8b573d6000803e3d6000fd5b50600191505092915050565b6000808511610ddb576040517f08c379a0000000000000000000000000000000000000000000000000000000008152600401610dd290611d99565b60405180910390fd5b6001543414610e1f576040517f08c379a0000000000000000000000000000000000000000000000000000000008152600401610e1690611e39565b60405180910390fd5b60001515600760003373ffffffffffffffffffffffffffffffffffffffff1673ffffffffffffffffffffffffffffffffffffffff16815260200190815260200160002060060160009054906101000a900460ff1615151415610e945760056000815480929190610e8e90612066565b91905055505b6000600760003373ffffffffffffffffffffffffffffffffffffffff1673ffffffffffffffffffffffffffffffffffffffff16815260200190815260200160002060040154905085600760003373ffffffffffffffffffffffffffffffffffffffff1673ffffffffffffffffffffffffffffffffffffffff1681526020019081526020016000206000016000838152602001908152602001600020600001819055506201518085610f459190611f7e565b42610f509190611ef7565b600760003373ffffffffffffffffffffffffffffffffffffffff1673ffffffffffffffffffffffffffffffffffffffff16815260200190815260200160002060000160008381526020019081526020016000206001018190555080600760003373ffffffffffffffffffffffffffffffffffffffff1673ffffffffffffffffffffffffffffffffffffffff16815260200190815260200160002060000160008381526020019081526020016000206002018190555085600760003373ffffffffffffffffffffffffffffffffffffffff1673ffffffffffffffffffffffffffffffffffffffff16815260200190815260200160002060050160008282546110579190611ef7565b925050819055506001600760003373ffffffffffffffffffffffffffffffffffffffff1673ffffffffffffffffffffffffffffffffffffffff16815260200190815260200160002060060160006101000a81548160ff021916908315150217905550600760003373ffffffffffffffffffffffffffffffffffffffff1673ffffffffffffffffffffffffffffffffffffffff168152602001908152602001600020600401600081548092919061110c90612066565b91905055508273ffffffffffffffffffffffffffffffffffffffff16633ec307bd3330896040518463ffffffff1660e01b815260040161114e93929190611c87565b602060405180830381600087803b15801561116857600080fd5b505af115801561117c573d6000803e3d6000fd5b505050506040513d601f19601f820116820180604052508101906111a0919061193e565b50600073ffffffffffffffffffffffffffffffffffffffff168473ffffffffffffffffffffffffffffffffffffffff16141561125d576000600760003373ffffffffffffffffffffffffffffffffffffffff1673ffffffffffffffffffffffffffffffffffffffff16815260200190815260200160002060020160006101000a81548173ffffffffffffffffffffffffffffffffffffffff021916908373ffffffffffffffffffffffffffffffffffffffff160217905550611425565b83600760003373ffffffffffffffffffffffffffffffffffffffff1673ffffffffffffffffffffffffffffffffffffffff16815260200190815260200160002060020160006101000a81548173ffffffffffffffffffffffffffffffffffffffff021916908373ffffffffffffffffffffffffffffffffffffffff1602179055506000600760008673ffffffffffffffffffffffffffffffffffffffff1673ffffffffffffffffffffffffffffffffffffffff16815260200190815260200160002060050154118061137157506000600760008673ffffffffffffffffffffffffffffffffffffffff1673ffffffffffffffffffffffffffffffffffffffff16815260200190815260200160002060030154115b1561142457600760008573ffffffffffffffffffffffffffffffffffffffff1673ffffffffffffffffffffffffffffffffffffffff168152602001908152602001600020600101339080600181540180825580915050600190039060005260206000200160009091909190916101000a81548173ffffffffffffffffffffffffffffffffffffffff021916908373ffffffffffffffffffffffffffffffffffffffff160217905550611423338761157c565b5b5b60008054906101000a900473ffffffffffffffffffffffffffffffffffffffff1673ffffffffffffffffffffffffffffffffffffffff166108fc349081150290604051600060405180830381858888f1935050505015801561148b573d6000803e3d6000fd5b506001915050949350505050565b60065481565b60045481565b60008054906101000a900473ffffffffffffffffffffffffffffffffffffffff1681565b6000600760003373ffffffffffffffffffffffffffffffffffffffff1673ffffffffffffffffffffffffffffffffffffffff16815260200190815260200160002060050154905090565b60015481565b60076020528060005260406000206000915090508060020160009054906101000a900473ffffffffffffffffffffffffffffffffffffffff16908060030154908060040154908060050154908060060160009054906101000a900460ff16905085565b60008290506000600467ffffffffffffffff81111561159e5761159d61213c565b5b6040519080825280602002602001820160405280156115cc5781602001602082028036833780820191505090505b509050674563918244f40000816000815181106115ec576115eb61210d565b5b6020026020010181815250506729a2241af62c0000816001815181106116155761161461210d565b5b602002602001018181525050671bc16d674ec800008160028151811061163e5761163d61210d565b5b602002602001018181525050670de0b6b3a7640000816003815181106116675761166661210d565b5b6020026020010181815250506706f05b59d3b20000816004815181106116905761168f61210d565b5b602002602001018181525050600080600090505b60148110156118a95760008114156116bf5760009150611707565b60018114156116d15760019150611706565b60028114156116e35760029150611705565b60028111156116f55760039150611704565b600781111561170357600491505b5b5b5b5b600073ffffffffffffffffffffffffffffffffffffffff16600760008673ffffffffffffffffffffffffffffffffffffffff1673ffffffffffffffffffffffffffffffffffffffff16815260200190815260200160002060020160009054906101000a900473ffffffffffffffffffffffffffffffffffffffff1673ffffffffffffffffffffffffffffffffffffffff161461189157600760008573ffffffffffffffffffffffffffffffffffffffff1673ffffffffffffffffffffffffffffffffffffffff16815260200190815260200160002060020160009054906101000a900473ffffffffffffffffffffffffffffffffffffffff1693506064858484815181106118185761181761210d565b5b602002602001015161182a9190611f7e565b6118349190611f4d565b600760008673ffffffffffffffffffffffffffffffffffffffff1673ffffffffffffffffffffffffffffffffffffffff16815260200190815260200160002060030160008282546118859190611ef7565b92505081905550611896565b6118a9565b80806118a190612066565b9150506116a4565b505050505050565b60405180606001604052806000815260200160008152602001600081525090565b6000813590506118e1816122d8565b92915050565b6000815190506118f6816122ef565b92915050565b60008135905061190b81612306565b92915050565b6000602082840312156119275761192661216b565b5b6000611935848285016118d2565b91505092915050565b6000602082840312156119545761195361216b565b5b6000611962848285016118e7565b91505092915050565b600080604083850312156119825761198161216b565b5b6000611990858286016118fc565b92505060206119a1858286016118d2565b9150509250929050565b600080600080608085870312156119c5576119c461216b565b5b60006119d3878288016118fc565b94505060206119e4878288016118fc565b93505060406119f5878288016118d2565b9250506060611a06878288016118d2565b91505092959194509250565b6000611a1e8383611a51565b60208301905092915050565b6000611a368383611c0c565b60608301905092915050565b611a4b8161201e565b82525050565b611a5a8161200c565b82525050565b611a698161200c565b82525050565b6000611a7a82611e94565b611a848185611ec4565b9350611a8f83611e74565b8060005b83811015611ac0578151611aa78882611a12565b9750611ab283611eaa565b925050600181019050611a93565b5085935050505092915050565b6000611ad882611e9f565b611ae28185611ed5565b9350611aed83611e84565b8060005b83811015611b1e578151611b058882611a2a565b9750611b1083611eb7565b925050600181019050611af1565b5085935050505092915050565b611b3481612030565b82525050565b6000611b47601b83611ee6565b9150611b5282612170565b602082019050919050565b6000611b6a602583611ee6565b9150611b7582612199565b604082019050919050565b6000611b8d604083611ee6565b9150611b98826121e8565b604082019050919050565b6000611bb0601f83611ee6565b9150611bbb82612237565b602082019050919050565b6000611bd3602283611ee6565b9150611bde82612260565b604082019050919050565b6000611bf6601283611ee6565b9150611c01826122af565b602082019050919050565b606082016000820151611c226000850182611c4e565b506020820151611c356020850182611c4e565b506040820151611c486040850182611c4e565b50505050565b611c578161205c565b82525050565b611c668161205c565b82525050565b6000602082019050611c816000830184611a42565b92915050565b6000606082019050611c9c6000830186611a60565b611ca96020830185611a60565b611cb66040830184611c5d565b949350505050565b6000604082019050611cd36000830185611a60565b611ce06020830184611c5d565b9392505050565b600060a082019050611cfc6000830188611a60565b611d096020830187611c5d565b611d166040830186611c5d565b611d236060830185611c5d565b611d306080830184611b2b565b9695505050505050565b60006020820190508181036000830152611d548184611a6f565b905092915050565b60006020820190508181036000830152611d768184611acd565b905092915050565b6000602082019050611d936000830184611b2b565b92915050565b60006020820190508181036000830152611db281611b3a565b9050919050565b60006020820190508181036000830152611dd281611b5d565b9050919050565b60006020820190508181036000830152611df281611b80565b9050919050565b60006020820190508181036000830152611e1281611ba3565b9050919050565b60006020820190508181036000830152611e3281611bc6565b9050919050565b60006020820190508181036000830152611e5281611be9565b9050919050565b6000602082019050611e6e6000830184611c5d565b92915050565b6000819050602082019050919050565b6000819050602082019050919050565b600081519050919050565b600081519050919050565b6000602082019050919050565b6000602082019050919050565b600082825260208201905092915050565b600082825260208201905092915050565b600082825260208201905092915050565b6000611f028261205c565b9150611f0d8361205c565b9250827fffffffffffffffffffffffffffffffffffffffffffffffffffffffffffffffff03821115611f4257611f416120af565b5b828201905092915050565b6000611f588261205c565b9150611f638361205c565b925082611f7357611f726120de565b5b828204905092915050565b6000611f898261205c565b9150611f948361205c565b9250817fffffffffffffffffffffffffffffffffffffffffffffffffffffffffffffffff0483118215151615611fcd57611fcc6120af565b5b828202905092915050565b6000611fe38261205c565b9150611fee8361205c565b925082821015612001576120006120af565b5b828203905092915050565b60006120178261203c565b9050919050565b60006120298261203c565b9050919050565b60008115159050919050565b600073ffffffffffffffffffffffffffffffffffffffff82169050919050565b6000819050919050565b60006120718261205c565b91507fffffffffffffffffffffffffffffffffffffffffffffffffffffffffffffffff8214156120a4576120a36120af565b5b600182019050919050565b7f4e487b7100000000000000000000000000000000000000000000000000000000600052601160045260246000fd5b7f4e487b7100000000000000000000000000000000000000000000000000000000600052601260045260246000fd5b7f4e487b7100000000000000000000000000000000000000000000000000000000600052603260045260246000fd5b7f4e487b7100000000000000000000000000000000000000000000000000000000600052604160045260246000fd5b600080fd5b7f76616c7565206973206e6f742067726561746572207468616e20300000000000600082015250565b7f796f7520646f6e74206861766520696e766573746d656e7420746f207769746860008201527f647261776e000000000000000000000000000000000000000000000000000000602082015250565b7f796f752073686f756c642068617665206d696e696d756d20352072656665727260008201527f616c73207468656e20796f752063616e20776974686472617720726577617264602082015250565b7f74686973206973206e6f7420796f75722077697468647261776e2074696d6500600082015250565b7f796f7520646f6e742068617665207265776172647320746f207769746864726160008201527f776e000000000000000000000000000000000000000000000000000000000000602082015250565b7f66656573206973206e6f7420656e6f7567680000000000000000000000000000600082015250565b6122e18161200c565b81146122ec57600080fd5b50565b6122f881612030565b811461230357600080fd5b50565b61230f8161205c565b811461231a57600080fd5b5056fea2646970667358221220a618ca4ec030a4843bee4d4b53b671c506a11447d15d4696ae3166578113859d64736f6c63430008070033",
					"opcodes": "PUSH1 0x80 PUSH1 0x40 MSTORE PUSH20 0x7EF2E0048F5BAEDE046F6BF797943DAF4ED8CB47 PUSH1 0x2 PUSH1 0x0 PUSH2 0x100 EXP DUP2 SLOAD DUP2 PUSH20 0xFFFFFFFFFFFFFFFFFFFFFFFFFFFFFFFFFFFFFFFF MUL NOT AND SWAP1 DUP4 PUSH20 0xFFFFFFFFFFFFFFFFFFFFFFFFFFFFFFFFFFFFFFFF AND MUL OR SWAP1 SSTORE POP CALLVALUE DUP1 ISZERO PUSH2 0x65 JUMPI PUSH1 0x0 DUP1 REVERT JUMPDEST POP CALLER PUSH1 0x0 DUP1 PUSH2 0x100 EXP DUP2 SLOAD DUP2 PUSH20 0xFFFFFFFFFFFFFFFFFFFFFFFFFFFFFFFFFFFFFFFF MUL NOT AND SWAP1 DUP4 PUSH20 0xFFFFFFFFFFFFFFFFFFFFFFFFFFFFFFFFFFFFFFFF AND MUL OR SWAP1 SSTORE POP PUSH7 0xAA87BEE538000 PUSH1 0x1 DUP2 SWAP1 SSTORE POP PUSH2 0x2353 DUP1 PUSH2 0xC3 PUSH1 0x0 CODECOPY PUSH1 0x0 RETURN INVALID PUSH1 0x80 PUSH1 0x40 MSTORE PUSH1 0x4 CALLDATASIZE LT PUSH2 0xDD JUMPI PUSH1 0x0 CALLDATALOAD PUSH1 0xE0 SHR DUP1 PUSH4 0x5194D5AC GT PUSH2 0x7F JUMPI DUP1 PUSH4 0x8DA5CB5B GT PUSH2 0x59 JUMPI DUP1 PUSH4 0x8DA5CB5B EQ PUSH2 0x29F JUMPI DUP1 PUSH4 0x929F6BBE EQ PUSH2 0x2CA JUMPI DUP1 PUSH4 0xD0FF6E63 EQ PUSH2 0x2F5 JUMPI DUP1 PUSH4 0xD3560EE8 EQ PUSH2 0x320 JUMPI PUSH2 0xDD JUMP JUMPDEST DUP1 PUSH4 0x5194D5AC EQ PUSH2 0x219 JUMPI DUP1 PUSH4 0x60FCA6FD EQ PUSH2 0x249 JUMPI DUP1 PUSH4 0x7B8246CE EQ PUSH2 0x274 JUMPI PUSH2 0xDD JUMP JUMPDEST DUP1 PUSH4 0x1E8ABA35 GT PUSH2 0xBB JUMPI DUP1 PUSH4 0x1E8ABA35 EQ PUSH2 0x163 JUMPI DUP1 PUSH4 0x349020CD EQ PUSH2 0x18E JUMPI DUP1 PUSH4 0x3A1E0833 EQ PUSH2 0x1BE JUMPI DUP1 PUSH4 0x3BF0200E EQ PUSH2 0x1E9 JUMPI PUSH2 0xDD JUMP JUMPDEST DUP1 PUSH4 0xA701F36 EQ PUSH2 0xE2 JUMPI DUP1 PUSH4 0xC5F58F4 EQ PUSH2 0x10D JUMPI DUP1 PUSH4 0x10CDE60A EQ PUSH2 0x138 JUMPI JUMPDEST PUSH1 0x0 DUP1 REVERT JUMPDEST CALLVALUE DUP1 ISZERO PUSH2 0xEE JUMPI PUSH1 0x0 DUP1 REVERT JUMPDEST POP PUSH2 0xF7 PUSH2 0x361 JUMP JUMPDEST PUSH1 0x40 MLOAD PUSH2 0x104 SWAP2 SWAP1 PUSH2 0x1E59 JUMP JUMPDEST PUSH1 0x40 MLOAD DUP1 SWAP2 SUB SWAP1 RETURN JUMPDEST CALLVALUE DUP1 ISZERO PUSH2 0x119 JUMPI PUSH1 0x0 DUP1 REVERT JUMPDEST POP PUSH2 0x122 PUSH2 0x3AB JUMP JUMPDEST PUSH1 0x40 MLOAD PUSH2 0x12F SWAP2 SWAP1 PUSH2 0x1D3A JUMP JUMPDEST PUSH1 0x40 MLOAD DUP1 SWAP2 SUB SWAP1 RETURN JUMPDEST CALLVALUE DUP1 ISZERO PUSH2 0x144 JUMPI PUSH1 0x0 DUP1 REVERT JUMPDEST POP PUSH2 0x14D PUSH2 0x479 JUMP JUMPDEST PUSH1 0x40 MLOAD PUSH2 0x15A SWAP2 SWAP1 PUSH2 0x1E59 JUMP JUMPDEST PUSH1 0x40 MLOAD DUP1 SWAP2 SUB SWAP1 RETURN JUMPDEST CALLVALUE DUP1 ISZERO PUSH2 0x16F JUMPI PUSH1 0x0 DUP1 REVERT JUMPDEST POP PUSH2 0x178 PUSH2 0x47F JUMP JUMPDEST PUSH1 0x40 MLOAD PUSH2 0x185 SWAP2 SWAP1 PUSH2 0x1E59 JUMP JUMPDEST PUSH1 0x40 MLOAD DUP1 SWAP2 SUB SWAP1 RETURN JUMPDEST PUSH2 0x1A8 PUSH1 0x4 DUP1 CALLDATASIZE SUB DUP2 ADD SWAP1 PUSH2 0x1A3 SWAP2 SWAP1 PUSH2 0x1911 JUMP JUMPDEST PUSH2 0x4CC JUMP JUMPDEST PUSH1 0x40 MLOAD PUSH2 0x1B5 SWAP2 SWAP1 PUSH2 0x1D7E JUMP JUMPDEST PUSH1 0x40 MLOAD DUP1 SWAP2 SUB SWAP1 RETURN JUMPDEST CALLVALUE DUP1 ISZERO PUSH2 0x1CA JUMPI PUSH1 0x0 DUP1 REVERT JUMPDEST POP PUSH2 0x1D3 PUSH2 0x7AE JUMP JUMPDEST PUSH1 0x40 MLOAD PUSH2 0x1E0 SWAP2 SWAP1 PUSH2 0x1D5C JUMP JUMPDEST PUSH1 0x40 MLOAD DUP1 SWAP2 SUB SWAP1 RETURN JUMPDEST PUSH2 0x203 PUSH1 0x4 DUP1 CALLDATASIZE SUB DUP2 ADD SWAP1 PUSH2 0x1FE SWAP2 SWAP1 PUSH2 0x196B JUMP JUMPDEST PUSH2 0xA10 JUMP JUMPDEST PUSH1 0x40 MLOAD PUSH2 0x210 SWAP2 SWAP1 PUSH2 0x1D7E JUMP JUMPDEST PUSH1 0x40 MLOAD DUP1 SWAP2 SUB SWAP1 RETURN JUMPDEST PUSH2 0x233 PUSH1 0x4 DUP1 CALLDATASIZE SUB DUP2 ADD SWAP1 PUSH2 0x22E SWAP2 SWAP1 PUSH2 0x19AB JUMP JUMPDEST PUSH2 0xD97 JUMP JUMPDEST PUSH1 0x40 MLOAD PUSH2 0x240 SWAP2 SWAP1 PUSH2 0x1D7E JUMP JUMPDEST PUSH1 0x40 MLOAD DUP1 SWAP2 SUB SWAP1 RETURN JUMPDEST CALLVALUE DUP1 ISZERO PUSH2 0x255 JUMPI PUSH1 0x0 DUP1 REVERT JUMPDEST POP PUSH2 0x25E PUSH2 0x1499 JUMP JUMPDEST PUSH1 0x40 MLOAD PUSH2 0x26B SWAP2 SWAP1 PUSH2 0x1E59 JUMP JUMPDEST PUSH1 0x40 MLOAD DUP1 SWAP2 SUB SWAP1 RETURN JUMPDEST CALLVALUE DUP1 ISZERO PUSH2 0x280 JUMPI PUSH1 0x0 DUP1 REVERT JUMPDEST POP PUSH2 0x289 PUSH2 0x149F JUMP JUMPDEST PUSH1 0x40 MLOAD PUSH2 0x296 SWAP2 SWAP1 PUSH2 0x1E59 JUMP JUMPDEST PUSH1 0x40 MLOAD DUP1 SWAP2 SUB SWAP1 RETURN JUMPDEST CALLVALUE DUP1 ISZERO PUSH2 0x2AB JUMPI PUSH1 0x0 DUP1 REVERT JUMPDEST POP PUSH2 0x2B4 PUSH2 0x14A5 JUMP JUMPDEST PUSH1 0x40 MLOAD PUSH2 0x2C1 SWAP2 SWAP1 PUSH2 0x1C6C JUMP JUMPDEST PUSH1 0x40 MLOAD DUP1 SWAP2 SUB SWAP1 RETURN JUMPDEST CALLVALUE DUP1 ISZERO PUSH2 0x2D6 JUMPI PUSH1 0x0 DUP1 REVERT JUMPDEST POP PUSH2 0x2DF PUSH2 0x14C9 JUMP JUMPDEST PUSH1 0x40 MLOAD PUSH2 0x2EC SWAP2 SWAP1 PUSH2 0x1E59 JUMP JUMPDEST PUSH1 0x40 MLOAD DUP1 SWAP2 SUB SWAP1 RETURN JUMPDEST CALLVALUE DUP1 ISZERO PUSH2 0x301 JUMPI PUSH1 0x0 DUP1 REVERT JUMPDEST POP PUSH2 0x30A PUSH2 0x1513 JUMP JUMPDEST PUSH1 0x40 MLOAD PUSH2 0x317 SWAP2 SWAP1 PUSH2 0x1E59 JUMP JUMPDEST PUSH1 0x40 MLOAD DUP1 SWAP2 SUB SWAP1 RETURN JUMPDEST CALLVALUE DUP1 ISZERO PUSH2 0x32C JUMPI PUSH1 0x0 DUP1 REVERT JUMPDEST POP PUSH2 0x347 PUSH1 0x4 DUP1 CALLDATASIZE SUB DUP2 ADD SWAP1 PUSH2 0x342 SWAP2 SWAP1 PUSH2 0x1911 JUMP JUMPDEST PUSH2 0x1519 JUMP JUMPDEST PUSH1 0x40 MLOAD PUSH2 0x358 SWAP6 SWAP5 SWAP4 SWAP3 SWAP2 SWAP1 PUSH2 0x1CE7 JUMP JUMPDEST PUSH1 0x40 MLOAD DUP1 SWAP2 SUB SWAP1 RETURN JUMPDEST PUSH1 0x0 PUSH1 0x7 PUSH1 0x0 CALLER PUSH20 0xFFFFFFFFFFFFFFFFFFFFFFFFFFFFFFFFFFFFFFFF AND PUSH20 0xFFFFFFFFFFFFFFFFFFFFFFFFFFFFFFFFFFFFFFFF AND DUP2 MSTORE PUSH1 0x20 ADD SWAP1 DUP2 MSTORE PUSH1 0x20 ADD PUSH1 0x0 KECCAK256 PUSH1 0x3 ADD SLOAD SWAP1 POP SWAP1 JUMP JUMPDEST PUSH1 0x60 PUSH1 0x7 PUSH1 0x0 CALLER PUSH20 0xFFFFFFFFFFFFFFFFFFFFFFFFFFFFFFFFFFFFFFFF AND PUSH20 0xFFFFFFFFFFFFFFFFFFFFFFFFFFFFFFFFFFFFFFFF AND DUP2 MSTORE PUSH1 0x20 ADD SWAP1 DUP2 MSTORE PUSH1 0x20 ADD PUSH1 0x0 KECCAK256 PUSH1 0x1 ADD DUP1 SLOAD DUP1 PUSH1 0x20 MUL PUSH1 0x20 ADD PUSH1 0x40 MLOAD SWAP1 DUP2 ADD PUSH1 0x40 MSTORE DUP1 SWAP3 SWAP2 SWAP1 DUP2 DUP2 MSTORE PUSH1 0x20 ADD DUP3 DUP1 SLOAD DUP1 ISZERO PUSH2 0x46F JUMPI PUSH1 0x20 MUL DUP3 ADD SWAP2 SWAP1 PUSH1 0x0 MSTORE PUSH1 0x20 PUSH1 0x0 KECCAK256 SWAP1 JUMPDEST DUP2 PUSH1 0x0 SWAP1 SLOAD SWAP1 PUSH2 0x100 EXP SWAP1 DIV PUSH20 0xFFFFFFFFFFFFFFFFFFFFFFFFFFFFFFFFFFFFFFFF AND PUSH20 0xFFFFFFFFFFFFFFFFFFFFFFFFFFFFFFFFFFFFFFFF AND DUP2 MSTORE PUSH1 0x20 ADD SWAP1 PUSH1 0x1 ADD SWAP1 DUP1 DUP4 GT PUSH2 0x425 JUMPI JUMPDEST POP POP POP POP POP SWAP1 POP SWAP1 JUMP JUMPDEST PUSH1 0x5 SLOAD DUP2 JUMP JUMPDEST PUSH1 0x0 PUSH1 0x7 PUSH1 0x0 CALLER PUSH20 0xFFFFFFFFFFFFFFFFFFFFFFFFFFFFFFFFFFFFFFFF AND PUSH20 0xFFFFFFFFFFFFFFFFFFFFFFFFFFFFFFFFFFFFFFFF AND DUP2 MSTORE PUSH1 0x20 ADD SWAP1 DUP2 MSTORE PUSH1 0x20 ADD PUSH1 0x0 KECCAK256 PUSH1 0x1 ADD DUP1 SLOAD SWAP1 POP SWAP1 POP SWAP1 JUMP JUMPDEST PUSH1 0x0 PUSH1 0x1 SLOAD CALLVALUE EQ PUSH2 0x512 JUMPI PUSH1 0x40 MLOAD PUSH32 0x8C379A000000000000000000000000000000000000000000000000000000000 DUP2 MSTORE PUSH1 0x4 ADD PUSH2 0x509 SWAP1 PUSH2 0x1E39 JUMP JUMPDEST PUSH1 0x40 MLOAD DUP1 SWAP2 SUB SWAP1 REVERT JUMPDEST PUSH1 0x0 PUSH1 0x7 PUSH1 0x0 CALLER PUSH20 0xFFFFFFFFFFFFFFFFFFFFFFFFFFFFFFFFFFFFFFFF AND PUSH20 0xFFFFFFFFFFFFFFFFFFFFFFFFFFFFFFFFFFFFFFFF AND DUP2 MSTORE PUSH1 0x20 ADD SWAP1 DUP2 MSTORE PUSH1 0x20 ADD PUSH1 0x0 KECCAK256 PUSH1 0x3 ADD SLOAD GT PUSH2 0x597 JUMPI PUSH1 0x40 MLOAD PUSH32 0x8C379A000000000000000000000000000000000000000000000000000000000 DUP2 MSTORE PUSH1 0x4 ADD PUSH2 0x58E SWAP1 PUSH2 0x1E19 JUMP JUMPDEST PUSH1 0x40 MLOAD DUP1 SWAP2 SUB SWAP1 REVERT JUMPDEST PUSH1 0x5 PUSH1 0x7 PUSH1 0x0 CALLER PUSH20 0xFFFFFFFFFFFFFFFFFFFFFFFFFFFFFFFFFFFFFFFF AND PUSH20 0xFFFFFFFFFFFFFFFFFFFFFFFFFFFFFFFFFFFFFFFF AND DUP2 MSTORE PUSH1 0x20 ADD SWAP1 DUP2 MSTORE PUSH1 0x20 ADD PUSH1 0x0 KECCAK256 PUSH1 0x1 ADD DUP1 SLOAD SWAP1 POP LT ISZERO PUSH2 0x620 JUMPI PUSH1 0x40 MLOAD PUSH32 0x8C379A000000000000000000000000000000000000000000000000000000000 DUP2 MSTORE PUSH1 0x4 ADD PUSH2 0x617 SWAP1 PUSH2 0x1DD9 JUMP JUMPDEST PUSH1 0x40 MLOAD DUP1 SWAP2 SUB SWAP1 REVERT JUMPDEST PUSH1 0x0 PUSH1 0x7 PUSH1 0x0 CALLER PUSH20 0xFFFFFFFFFFFFFFFFFFFFFFFFFFFFFFFFFFFFFFFF AND PUSH20 0xFFFFFFFFFFFFFFFFFFFFFFFFFFFFFFFFFFFFFFFF AND DUP2 MSTORE PUSH1 0x20 ADD SWAP1 DUP2 MSTORE PUSH1 0x20 ADD PUSH1 0x0 KECCAK256 PUSH1 0x3 ADD SLOAD SWAP1 POP DUP3 PUSH20 0xFFFFFFFFFFFFFFFFFFFFFFFFFFFFFFFFFFFFFFFF AND PUSH4 0xA9059CBB CALLER DUP4 PUSH1 0x40 MLOAD DUP4 PUSH4 0xFFFFFFFF AND PUSH1 0xE0 SHL DUP2 MSTORE PUSH1 0x4 ADD PUSH2 0x6A2 SWAP3 SWAP2 SWAP1 PUSH2 0x1CBE JUMP JUMPDEST PUSH1 0x20 PUSH1 0x40 MLOAD DUP1 DUP4 SUB DUP2 PUSH1 0x0 DUP8 DUP1 EXTCODESIZE ISZERO DUP1 ISZERO PUSH2 0x6BC JUMPI PUSH1 0x0 DUP1 REVERT JUMPDEST POP GAS CALL ISZERO DUP1 ISZERO PUSH2 0x6D0 JUMPI RETURNDATASIZE PUSH1 0x0 DUP1 RETURNDATACOPY RETURNDATASIZE PUSH1 0x0 REVERT JUMPDEST POP POP POP POP PUSH1 0x40 MLOAD RETURNDATASIZE PUSH1 0x1F NOT PUSH1 0x1F DUP3 ADD AND DUP3 ADD DUP1 PUSH1 0x40 MSTORE POP DUP2 ADD SWAP1 PUSH2 0x6F4 SWAP2 SWAP1 PUSH2 0x193E JUMP JUMPDEST POP PUSH1 0x0 PUSH1 0x7 PUSH1 0x0 CALLER PUSH20 0xFFFFFFFFFFFFFFFFFFFFFFFFFFFFFFFFFFFFFFFF AND PUSH20 0xFFFFFFFFFFFFFFFFFFFFFFFFFFFFFFFFFFFFFFFF AND DUP2 MSTORE PUSH1 0x20 ADD SWAP1 DUP2 MSTORE PUSH1 0x20 ADD PUSH1 0x0 KECCAK256 PUSH1 0x3 ADD DUP2 SWAP1 SSTORE POP PUSH1 0x0 DUP1 SLOAD SWAP1 PUSH2 0x100 EXP SWAP1 DIV PUSH20 0xFFFFFFFFFFFFFFFFFFFFFFFFFFFFFFFFFFFFFFFF AND PUSH20 0xFFFFFFFFFFFFFFFFFFFFFFFFFFFFFFFFFFFFFFFF AND PUSH2 0x8FC CALLVALUE SWAP1 DUP2 ISZERO MUL SWAP1 PUSH1 0x40 MLOAD PUSH1 0x0 PUSH1 0x40 MLOAD DUP1 DUP4 SUB DUP2 DUP6 DUP9 DUP9 CALL SWAP4 POP POP POP POP ISZERO DUP1 ISZERO PUSH2 0x7A3 JUMPI RETURNDATASIZE PUSH1 0x0 DUP1 RETURNDATACOPY RETURNDATASIZE PUSH1 0x0 REVERT JUMPDEST POP PUSH1 0x1 SWAP2 POP POP SWAP2 SWAP1 POP JUMP JUMPDEST PUSH1 0x60 PUSH1 0x0 PUSH1 0x7 PUSH1 0x0 CALLER PUSH20 0xFFFFFFFFFFFFFFFFFFFFFFFFFFFFFFFFFFFFFFFF AND PUSH20 0xFFFFFFFFFFFFFFFFFFFFFFFFFFFFFFFFFFFFFFFF AND DUP2 MSTORE PUSH1 0x20 ADD SWAP1 DUP2 MSTORE PUSH1 0x20 ADD PUSH1 0x0 KECCAK256 PUSH1 0x4 ADD SLOAD SWAP1 POP PUSH1 0x0 DUP1 PUSH1 0x0 JUMPDEST DUP4 DUP2 LT ISZERO PUSH2 0x886 JUMPI PUSH1 0x0 PUSH1 0x7 PUSH1 0x0 CALLER PUSH20 0xFFFFFFFFFFFFFFFFFFFFFFFFFFFFFFFFFFFFFFFF AND PUSH20 0xFFFFFFFFFFFFFFFFFFFFFFFFFFFFFFFFFFFFFFFF AND DUP2 MSTORE PUSH1 0x20 ADD SWAP1 DUP2 MSTORE PUSH1 0x20 ADD PUSH1 0x0 KECCAK256 PUSH1 0x0 ADD PUSH1 0x0 DUP4 DUP2 MSTORE PUSH1 0x20 ADD SWAP1 DUP2 MSTORE PUSH1 0x20 ADD PUSH1 0x0 KECCAK256 PUSH1 0x0 ADD SLOAD GT ISZERO PUSH2 0x873 JUMPI DUP3 DUP1 PUSH2 0x86F SWAP1 PUSH2 0x2066 JUMP JUMPDEST SWAP4 POP POP JUMPDEST DUP1 DUP1 PUSH2 0x87E SWAP1 PUSH2 0x2066 JUMP JUMPDEST SWAP2 POP POP PUSH2 0x7FD JUMP JUMPDEST POP PUSH1 0x0 DUP3 PUSH8 0xFFFFFFFFFFFFFFFF DUP2 GT ISZERO PUSH2 0x8A3 JUMPI PUSH2 0x8A2 PUSH2 0x213C JUMP JUMPDEST JUMPDEST PUSH1 0x40 MLOAD SWAP1 DUP1 DUP3 MSTORE DUP1 PUSH1 0x20 MUL PUSH1 0x20 ADD DUP3 ADD PUSH1 0x40 MSTORE DUP1 ISZERO PUSH2 0x8DC JUMPI DUP2 PUSH1 0x20 ADD JUMPDEST PUSH2 0x8C9 PUSH2 0x18B1 JUMP JUMPDEST DUP2 MSTORE PUSH1 0x20 ADD SWAP1 PUSH1 0x1 SWAP1 SUB SWAP1 DUP2 PUSH2 0x8C1 JUMPI SWAP1 POP JUMPDEST POP SWAP1 POP PUSH1 0x0 JUMPDEST DUP5 DUP2 LT ISZERO PUSH2 0xA05 JUMPI PUSH1 0x0 PUSH1 0x7 PUSH1 0x0 CALLER PUSH20 0xFFFFFFFFFFFFFFFFFFFFFFFFFFFFFFFFFFFFFFFF AND PUSH20 0xFFFFFFFFFFFFFFFFFFFFFFFFFFFFFFFFFFFFFFFF AND DUP2 MSTORE PUSH1 0x20 ADD SWAP1 DUP2 MSTORE PUSH1 0x20 ADD PUSH1 0x0 KECCAK256 PUSH1 0x0 ADD PUSH1 0x0 DUP4 DUP2 MSTORE PUSH1 0x20 ADD SWAP1 DUP2 MSTORE PUSH1 0x20 ADD PUSH1 0x0 KECCAK256 PUSH1 0x0 ADD SLOAD GT ISZERO PUSH2 0x9F2 JUMPI PUSH1 0x7 PUSH1 0x0 CALLER PUSH20 0xFFFFFFFFFFFFFFFFFFFFFFFFFFFFFFFFFFFFFFFF AND PUSH20 0xFFFFFFFFFFFFFFFFFFFFFFFFFFFFFFFFFFFFFFFF AND DUP2 MSTORE PUSH1 0x20 ADD SWAP1 DUP2 MSTORE PUSH1 0x20 ADD PUSH1 0x0 KECCAK256 PUSH1 0x0 ADD PUSH1 0x0 DUP3 DUP2 MSTORE PUSH1 0x20 ADD SWAP1 DUP2 MSTORE PUSH1 0x20 ADD PUSH1 0x0 KECCAK256 PUSH1 0x40 MLOAD DUP1 PUSH1 0x60 ADD PUSH1 0x40 MSTORE SWAP1 DUP2 PUSH1 0x0 DUP3 ADD SLOAD DUP2 MSTORE PUSH1 0x20 ADD PUSH1 0x1 DUP3 ADD SLOAD DUP2 MSTORE PUSH1 0x20 ADD PUSH1 0x2 DUP3 ADD SLOAD DUP2 MSTORE POP POP DUP3 DUP5 DUP2 MLOAD DUP2 LT PUSH2 0x9D8 JUMPI PUSH2 0x9D7 PUSH2 0x210D JUMP JUMPDEST JUMPDEST PUSH1 0x20 MUL PUSH1 0x20 ADD ADD DUP2 SWAP1 MSTORE POP DUP3 DUP1 PUSH2 0x9EE SWAP1 PUSH2 0x2066 JUMP JUMPDEST SWAP4 POP POP JUMPDEST DUP1 DUP1 PUSH2 0x9FD SWAP1 PUSH2 0x2066 JUMP JUMPDEST SWAP2 POP POP PUSH2 0x8E2 JUMP JUMPDEST POP DUP1 SWAP5 POP POP POP POP POP SWAP1 JUMP JUMPDEST PUSH1 0x0 PUSH1 0x1 SLOAD CALLVALUE EQ PUSH2 0xA56 JUMPI PUSH1 0x40 MLOAD PUSH32 0x8C379A000000000000000000000000000000000000000000000000000000000 DUP2 MSTORE PUSH1 0x4 ADD PUSH2 0xA4D SWAP1 PUSH2 0x1E39 JUMP JUMPDEST PUSH1 0x40 MLOAD DUP1 SWAP2 SUB SWAP1 REVERT JUMPDEST TIMESTAMP PUSH1 0x7 PUSH1 0x0 CALLER PUSH20 0xFFFFFFFFFFFFFFFFFFFFFFFFFFFFFFFFFFFFFFFF AND PUSH20 0xFFFFFFFFFFFFFFFFFFFFFFFFFFFFFFFFFFFFFFFF AND DUP2 MSTORE PUSH1 0x20 ADD SWAP1 DUP2 MSTORE PUSH1 0x20 ADD PUSH1 0x0 KECCAK256 PUSH1 0x0 ADD PUSH1 0x0 DUP6 DUP2 MSTORE PUSH1 0x20 ADD SWAP1 DUP2 MSTORE PUSH1 0x20 ADD PUSH1 0x0 KECCAK256 PUSH1 0x1 ADD SLOAD LT PUSH2 0xAEE JUMPI PUSH1 0x40 MLOAD PUSH32 0x8C379A000000000000000000000000000000000000000000000000000000000 DUP2 MSTORE PUSH1 0x4 ADD PUSH2 0xAE5 SWAP1 PUSH2 0x1DF9 JUMP JUMPDEST PUSH1 0x40 MLOAD DUP1 SWAP2 SUB SWAP1 REVERT JUMPDEST PUSH1 0x0 PUSH1 0x7 PUSH1 0x0 CALLER PUSH20 0xFFFFFFFFFFFFFFFFFFFFFFFFFFFFFFFFFFFFFFFF AND PUSH20 0xFFFFFFFFFFFFFFFFFFFFFFFFFFFFFFFFFFFFFFFF AND DUP2 MSTORE PUSH1 0x20 ADD SWAP1 DUP2 MSTORE PUSH1 0x20 ADD PUSH1 0x0 KECCAK256 PUSH1 0x0 ADD PUSH1 0x0 DUP6 DUP2 MSTORE PUSH1 0x20 ADD SWAP1 DUP2 MSTORE PUSH1 0x20 ADD PUSH1 0x0 KECCAK256 PUSH1 0x0 ADD SLOAD GT PUSH2 0xB87 JUMPI PUSH1 0x40 MLOAD PUSH32 0x8C379A000000000000000000000000000000000000000000000000000000000 DUP2 MSTORE PUSH1 0x4 ADD PUSH2 0xB7E SWAP1 PUSH2 0x1DB9 JUMP JUMPDEST PUSH1 0x40 MLOAD DUP1 SWAP2 SUB SWAP1 REVERT JUMPDEST PUSH1 0x0 PUSH1 0x7 PUSH1 0x0 CALLER PUSH20 0xFFFFFFFFFFFFFFFFFFFFFFFFFFFFFFFFFFFFFFFF AND PUSH20 0xFFFFFFFFFFFFFFFFFFFFFFFFFFFFFFFFFFFFFFFF AND DUP2 MSTORE PUSH1 0x20 ADD SWAP1 DUP2 MSTORE PUSH1 0x20 ADD PUSH1 0x0 KECCAK256 PUSH1 0x0 ADD PUSH1 0x0 DUP6 DUP2 MSTORE PUSH1 0x20 ADD SWAP1 DUP2 MSTORE PUSH1 0x20 ADD PUSH1 0x0 KECCAK256 PUSH1 0x0 ADD SLOAD SWAP1 POP DUP3 PUSH20 0xFFFFFFFFFFFFFFFFFFFFFFFFFFFFFFFFFFFFFFFF AND PUSH4 0xA9059CBB CALLER DUP4 PUSH1 0x40 MLOAD DUP4 PUSH4 0xFFFFFFFF AND PUSH1 0xE0 SHL DUP2 MSTORE PUSH1 0x4 ADD PUSH2 0xC1D SWAP3 SWAP2 SWAP1 PUSH2 0x1CBE JUMP JUMPDEST PUSH1 0x20 PUSH1 0x40 MLOAD DUP1 DUP4 SUB DUP2 PUSH1 0x0 DUP8 DUP1 EXTCODESIZE ISZERO DUP1 ISZERO PUSH2 0xC37 JUMPI PUSH1 0x0 DUP1 REVERT JUMPDEST POP GAS CALL ISZERO DUP1 ISZERO PUSH2 0xC4B JUMPI RETURNDATASIZE PUSH1 0x0 DUP1 RETURNDATACOPY RETURNDATASIZE PUSH1 0x0 REVERT JUMPDEST POP POP POP POP PUSH1 0x40 MLOAD RETURNDATASIZE PUSH1 0x1F NOT PUSH1 0x1F DUP3 ADD AND DUP3 ADD DUP1 PUSH1 0x40 MSTORE POP DUP2 ADD SWAP1 PUSH2 0xC6F SWAP2 SWAP1 PUSH2 0x193E JUMP JUMPDEST POP PUSH1 0x0 PUSH1 0x7 PUSH1 0x0 CALLER PUSH20 0xFFFFFFFFFFFFFFFFFFFFFFFFFFFFFFFFFFFFFFFF AND PUSH20 0xFFFFFFFFFFFFFFFFFFFFFFFFFFFFFFFFFFFFFFFF AND DUP2 MSTORE PUSH1 0x20 ADD SWAP1 DUP2 MSTORE PUSH1 0x20 ADD PUSH1 0x0 KECCAK256 PUSH1 0x0 ADD PUSH1 0x0 DUP7 DUP2 MSTORE PUSH1 0x20 ADD SWAP1 DUP2 MSTORE PUSH1 0x20 ADD PUSH1 0x0 KECCAK256 PUSH1 0x0 ADD DUP2 SWAP1 SSTORE POP DUP1 PUSH1 0x7 PUSH1 0x0 CALLER PUSH20 0xFFFFFFFFFFFFFFFFFFFFFFFFFFFFFFFFFFFFFFFF AND PUSH20 0xFFFFFFFFFFFFFFFFFFFFFFFFFFFFFFFFFFFFFFFF AND DUP2 MSTORE PUSH1 0x20 ADD SWAP1 DUP2 MSTORE PUSH1 0x20 ADD PUSH1 0x0 KECCAK256 PUSH1 0x5 ADD PUSH1 0x0 DUP3 DUP3 SLOAD PUSH2 0xD1E SWAP2 SWAP1 PUSH2 0x1FD8 JUMP JUMPDEST SWAP3 POP POP DUP2 SWAP1 SSTORE POP PUSH1 0x0 DUP1 SLOAD SWAP1 PUSH2 0x100 EXP SWAP1 DIV PUSH20 0xFFFFFFFFFFFFFFFFFFFFFFFFFFFFFFFFFFFFFFFF AND PUSH20 0xFFFFFFFFFFFFFFFFFFFFFFFFFFFFFFFFFFFFFFFF AND PUSH2 0x8FC CALLVALUE SWAP1 DUP2 ISZERO MUL SWAP1 PUSH1 0x40 MLOAD PUSH1 0x0 PUSH1 0x40 MLOAD DUP1 DUP4 SUB DUP2 DUP6 DUP9 DUP9 CALL SWAP4 POP POP POP POP ISZERO DUP1 ISZERO PUSH2 0xD8B JUMPI RETURNDATASIZE PUSH1 0x0 DUP1 RETURNDATACOPY RETURNDATASIZE PUSH1 0x0 REVERT JUMPDEST POP PUSH1 0x1 SWAP2 POP POP SWAP3 SWAP2 POP POP JUMP JUMPDEST PUSH1 0x0 DUP1 DUP6 GT PUSH2 0xDDB JUMPI PUSH1 0x40 MLOAD PUSH32 0x8C379A000000000000000000000000000000000000000000000000000000000 DUP2 MSTORE PUSH1 0x4 ADD PUSH2 0xDD2 SWAP1 PUSH2 0x1D99 JUMP JUMPDEST PUSH1 0x40 MLOAD DUP1 SWAP2 SUB SWAP1 REVERT JUMPDEST PUSH1 0x1 SLOAD CALLVALUE EQ PUSH2 0xE1F JUMPI PUSH1 0x40 MLOAD PUSH32 0x8C379A000000000000000000000000000000000000000000000000000000000 DUP2 MSTORE PUSH1 0x4 ADD PUSH2 0xE16 SWAP1 PUSH2 0x1E39 JUMP JUMPDEST PUSH1 0x40 MLOAD DUP1 SWAP2 SUB SWAP1 REVERT JUMPDEST PUSH1 0x0 ISZERO ISZERO PUSH1 0x7 PUSH1 0x0 CALLER PUSH20 0xFFFFFFFFFFFFFFFFFFFFFFFFFFFFFFFFFFFFFFFF AND PUSH20 0xFFFFFFFFFFFFFFFFFFFFFFFFFFFFFFFFFFFFFFFF AND DUP2 MSTORE PUSH1 0x20 ADD SWAP1 DUP2 MSTORE PUSH1 0x20 ADD PUSH1 0x0 KECCAK256 PUSH1 0x6 ADD PUSH1 0x0 SWAP1 SLOAD SWAP1 PUSH2 0x100 EXP SWAP1 DIV PUSH1 0xFF AND ISZERO ISZERO EQ ISZERO PUSH2 0xE94 JUMPI PUSH1 0x5 PUSH1 0x0 DUP2 SLOAD DUP1 SWAP3 SWAP2 SWAP1 PUSH2 0xE8E SWAP1 PUSH2 0x2066 JUMP JUMPDEST SWAP2 SWAP1 POP SSTORE POP JUMPDEST PUSH1 0x0 PUSH1 0x7 PUSH1 0x0 CALLER PUSH20 0xFFFFFFFFFFFFFFFFFFFFFFFFFFFFFFFFFFFFFFFF AND PUSH20 0xFFFFFFFFFFFFFFFFFFFFFFFFFFFFFFFFFFFFFFFF AND DUP2 MSTORE PUSH1 0x20 ADD SWAP1 DUP2 MSTORE PUSH1 0x20 ADD PUSH1 0x0 KECCAK256 PUSH1 0x4 ADD SLOAD SWAP1 POP DUP6 PUSH1 0x7 PUSH1 0x0 CALLER PUSH20 0xFFFFFFFFFFFFFFFFFFFFFFFFFFFFFFFFFFFFFFFF AND PUSH20 0xFFFFFFFFFFFFFFFFFFFFFFFFFFFFFFFFFFFFFFFF AND DUP2 MSTORE PUSH1 0x20 ADD SWAP1 DUP2 MSTORE PUSH1 0x20 ADD PUSH1 0x0 KECCAK256 PUSH1 0x0 ADD PUSH1 0x0 DUP4 DUP2 MSTORE PUSH1 0x20 ADD SWAP1 DUP2 MSTORE PUSH1 0x20 ADD PUSH1 0x0 KECCAK256 PUSH1 0x0 ADD DUP2 SWAP1 SSTORE POP PUSH3 0x15180 DUP6 PUSH2 0xF45 SWAP2 SWAP1 PUSH2 0x1F7E JUMP JUMPDEST TIMESTAMP PUSH2 0xF50 SWAP2 SWAP1 PUSH2 0x1EF7 JUMP JUMPDEST PUSH1 0x7 PUSH1 0x0 CALLER PUSH20 0xFFFFFFFFFFFFFFFFFFFFFFFFFFFFFFFFFFFFFFFF AND PUSH20 0xFFFFFFFFFFFFFFFFFFFFFFFFFFFFFFFFFFFFFFFF AND DUP2 MSTORE PUSH1 0x20 ADD SWAP1 DUP2 MSTORE PUSH1 0x20 ADD PUSH1 0x0 KECCAK256 PUSH1 0x0 ADD PUSH1 0x0 DUP4 DUP2 MSTORE PUSH1 0x20 ADD SWAP1 DUP2 MSTORE PUSH1 0x20 ADD PUSH1 0x0 KECCAK256 PUSH1 0x1 ADD DUP2 SWAP1 SSTORE POP DUP1 PUSH1 0x7 PUSH1 0x0 CALLER PUSH20 0xFFFFFFFFFFFFFFFFFFFFFFFFFFFFFFFFFFFFFFFF AND PUSH20 0xFFFFFFFFFFFFFFFFFFFFFFFFFFFFFFFFFFFFFFFF AND DUP2 MSTORE PUSH1 0x20 ADD SWAP1 DUP2 MSTORE PUSH1 0x20 ADD PUSH1 0x0 KECCAK256 PUSH1 0x0 ADD PUSH1 0x0 DUP4 DUP2 MSTORE PUSH1 0x20 ADD SWAP1 DUP2 MSTORE PUSH1 0x20 ADD PUSH1 0x0 KECCAK256 PUSH1 0x2 ADD DUP2 SWAP1 SSTORE POP DUP6 PUSH1 0x7 PUSH1 0x0 CALLER PUSH20 0xFFFFFFFFFFFFFFFFFFFFFFFFFFFFFFFFFFFFFFFF AND PUSH20 0xFFFFFFFFFFFFFFFFFFFFFFFFFFFFFFFFFFFFFFFF AND DUP2 MSTORE PUSH1 0x20 ADD SWAP1 DUP2 MSTORE PUSH1 0x20 ADD PUSH1 0x0 KECCAK256 PUSH1 0x5 ADD PUSH1 0x0 DUP3 DUP3 SLOAD PUSH2 0x1057 SWAP2 SWAP1 PUSH2 0x1EF7 JUMP JUMPDEST SWAP3 POP POP DUP2 SWAP1 SSTORE POP PUSH1 0x1 PUSH1 0x7 PUSH1 0x0 CALLER PUSH20 0xFFFFFFFFFFFFFFFFFFFFFFFFFFFFFFFFFFFFFFFF AND PUSH20 0xFFFFFFFFFFFFFFFFFFFFFFFFFFFFFFFFFFFFFFFF AND DUP2 MSTORE PUSH1 0x20 ADD SWAP1 DUP2 MSTORE PUSH1 0x20 ADD PUSH1 0x0 KECCAK256 PUSH1 0x6 ADD PUSH1 0x0 PUSH2 0x100 EXP DUP2 SLOAD DUP2 PUSH1 0xFF MUL NOT AND SWAP1 DUP4 ISZERO ISZERO MUL OR SWAP1 SSTORE POP PUSH1 0x7 PUSH1 0x0 CALLER PUSH20 0xFFFFFFFFFFFFFFFFFFFFFFFFFFFFFFFFFFFFFFFF AND PUSH20 0xFFFFFFFFFFFFFFFFFFFFFFFFFFFFFFFFFFFFFFFF AND DUP2 MSTORE PUSH1 0x20 ADD SWAP1 DUP2 MSTORE PUSH1 0x20 ADD PUSH1 0x0 KECCAK256 PUSH1 0x4 ADD PUSH1 0x0 DUP2 SLOAD DUP1 SWAP3 SWAP2 SWAP1 PUSH2 0x110C SWAP1 PUSH2 0x2066 JUMP JUMPDEST SWAP2 SWAP1 POP SSTORE POP DUP3 PUSH20 0xFFFFFFFFFFFFFFFFFFFFFFFFFFFFFFFFFFFFFFFF AND PUSH4 0x3EC307BD CALLER ADDRESS DUP10 PUSH1 0x40 MLOAD DUP5 PUSH4 0xFFFFFFFF AND PUSH1 0xE0 SHL DUP2 MSTORE PUSH1 0x4 ADD PUSH2 0x114E SWAP4 SWAP3 SWAP2 SWAP1 PUSH2 0x1C87 JUMP JUMPDEST PUSH1 0x20 PUSH1 0x40 MLOAD DUP1 DUP4 SUB DUP2 PUSH1 0x0 DUP8 DUP1 EXTCODESIZE ISZERO DUP1 ISZERO PUSH2 0x1168 JUMPI PUSH1 0x0 DUP1 REVERT JUMPDEST POP GAS CALL ISZERO DUP1 ISZERO PUSH2 0x117C JUMPI RETURNDATASIZE PUSH1 0x0 DUP1 RETURNDATACOPY RETURNDATASIZE PUSH1 0x0 REVERT JUMPDEST POP POP POP POP PUSH1 0x40 MLOAD RETURNDATASIZE PUSH1 0x1F NOT PUSH1 0x1F DUP3 ADD AND DUP3 ADD DUP1 PUSH1 0x40 MSTORE POP DUP2 ADD SWAP1 PUSH2 0x11A0 SWAP2 SWAP1 PUSH2 0x193E JUMP JUMPDEST POP PUSH1 0x0 PUSH20 0xFFFFFFFFFFFFFFFFFFFFFFFFFFFFFFFFFFFFFFFF AND DUP5 PUSH20 0xFFFFFFFFFFFFFFFFFFFFFFFFFFFFFFFFFFFFFFFF AND EQ ISZERO PUSH2 0x125D JUMPI PUSH1 0x0 PUSH1 0x7 PUSH1 0x0 CALLER PUSH20 0xFFFFFFFFFFFFFFFFFFFFFFFFFFFFFFFFFFFFFFFF AND PUSH20 0xFFFFFFFFFFFFFFFFFFFFFFFFFFFFFFFFFFFFFFFF AND DUP2 MSTORE PUSH1 0x20 ADD SWAP1 DUP2 MSTORE PUSH1 0x20 ADD PUSH1 0x0 KECCAK256 PUSH1 0x2 ADD PUSH1 0x0 PUSH2 0x100 EXP DUP2 SLOAD DUP2 PUSH20 0xFFFFFFFFFFFFFFFFFFFFFFFFFFFFFFFFFFFFFFFF MUL NOT AND SWAP1 DUP4 PUSH20 0xFFFFFFFFFFFFFFFFFFFFFFFFFFFFFFFFFFFFFFFF AND MUL OR SWAP1 SSTORE POP PUSH2 0x1425 JUMP JUMPDEST DUP4 PUSH1 0x7 PUSH1 0x0 CALLER PUSH20 0xFFFFFFFFFFFFFFFFFFFFFFFFFFFFFFFFFFFFFFFF AND PUSH20 0xFFFFFFFFFFFFFFFFFFFFFFFFFFFFFFFFFFFFFFFF AND DUP2 MSTORE PUSH1 0x20 ADD SWAP1 DUP2 MSTORE PUSH1 0x20 ADD PUSH1 0x0 KECCAK256 PUSH1 0x2 ADD PUSH1 0x0 PUSH2 0x100 EXP DUP2 SLOAD DUP2 PUSH20 0xFFFFFFFFFFFFFFFFFFFFFFFFFFFFFFFFFFFFFFFF MUL NOT AND SWAP1 DUP4 PUSH20 0xFFFFFFFFFFFFFFFFFFFFFFFFFFFFFFFFFFFFFFFF AND MUL OR SWAP1 SSTORE POP PUSH1 0x0 PUSH1 0x7 PUSH1 0x0 DUP7 PUSH20 0xFFFFFFFFFFFFFFFFFFFFFFFFFFFFFFFFFFFFFFFF AND PUSH20 0xFFFFFFFFFFFFFFFFFFFFFFFFFFFFFFFFFFFFFFFF AND DUP2 MSTORE PUSH1 0x20 ADD SWAP1 DUP2 MSTORE PUSH1 0x20 ADD PUSH1 0x0 KECCAK256 PUSH1 0x5 ADD SLOAD GT DUP1 PUSH2 0x1371 JUMPI POP PUSH1 0x0 PUSH1 0x7 PUSH1 0x0 DUP7 PUSH20 0xFFFFFFFFFFFFFFFFFFFFFFFFFFFFFFFFFFFFFFFF AND PUSH20 0xFFFFFFFFFFFFFFFFFFFFFFFFFFFFFFFFFFFFFFFF AND DUP2 MSTORE PUSH1 0x20 ADD SWAP1 DUP2 MSTORE PUSH1 0x20 ADD PUSH1 0x0 KECCAK256 PUSH1 0x3 ADD SLOAD GT JUMPDEST ISZERO PUSH2 0x1424 JUMPI PUSH1 0x7 PUSH1 0x0 DUP6 PUSH20 0xFFFFFFFFFFFFFFFFFFFFFFFFFFFFFFFFFFFFFFFF AND PUSH20 0xFFFFFFFFFFFFFFFFFFFFFFFFFFFFFFFFFFFFFFFF AND DUP2 MSTORE PUSH1 0x20 ADD SWAP1 DUP2 MSTORE PUSH1 0x20 ADD PUSH1 0x0 KECCAK256 PUSH1 0x1 ADD CALLER SWAP1 DUP1 PUSH1 0x1 DUP2 SLOAD ADD DUP1 DUP3 SSTORE DUP1 SWAP2 POP POP PUSH1 0x1 SWAP1 SUB SWAP1 PUSH1 0x0 MSTORE PUSH1 0x20 PUSH1 0x0 KECCAK256 ADD PUSH1 0x0 SWAP1 SWAP2 SWAP1 SWAP2 SWAP1 SWAP2 PUSH2 0x100 EXP DUP2 SLOAD DUP2 PUSH20 0xFFFFFFFFFFFFFFFFFFFFFFFFFFFFFFFFFFFFFFFF MUL NOT AND SWAP1 DUP4 PUSH20 0xFFFFFFFFFFFFFFFFFFFFFFFFFFFFFFFFFFFFFFFF AND MUL OR SWAP1 SSTORE POP PUSH2 0x1423 CALLER DUP8 PUSH2 0x157C JUMP JUMPDEST JUMPDEST JUMPDEST PUSH1 0x0 DUP1 SLOAD SWAP1 PUSH2 0x100 EXP SWAP1 DIV PUSH20 0xFFFFFFFFFFFFFFFFFFFFFFFFFFFFFFFFFFFFFFFF AND PUSH20 0xFFFFFFFFFFFFFFFFFFFFFFFFFFFFFFFFFFFFFFFF AND PUSH2 0x8FC CALLVALUE SWAP1 DUP2 ISZERO MUL SWAP1 PUSH1 0x40 MLOAD PUSH1 0x0 PUSH1 0x40 MLOAD DUP1 DUP4 SUB DUP2 DUP6 DUP9 DUP9 CALL SWAP4 POP POP POP POP ISZERO DUP1 ISZERO PUSH2 0x148B JUMPI RETURNDATASIZE PUSH1 0x0 DUP1 RETURNDATACOPY RETURNDATASIZE PUSH1 0x0 REVERT JUMPDEST POP PUSH1 0x1 SWAP2 POP POP SWAP5 SWAP4 POP POP POP POP JUMP JUMPDEST PUSH1 0x6 SLOAD DUP2 JUMP JUMPDEST PUSH1 0x4 SLOAD DUP2 JUMP JUMPDEST PUSH1 0x0 DUP1 SLOAD SWAP1 PUSH2 0x100 EXP SWAP1 DIV PUSH20 0xFFFFFFFFFFFFFFFFFFFFFFFFFFFFFFFFFFFFFFFF AND DUP2 JUMP JUMPDEST PUSH1 0x0 PUSH1 0x7 PUSH1 0x0 CALLER PUSH20 0xFFFFFFFFFFFFFFFFFFFFFFFFFFFFFFFFFFFFFFFF AND PUSH20 0xFFFFFFFFFFFFFFFFFFFFFFFFFFFFFFFFFFFFFFFF AND DUP2 MSTORE PUSH1 0x20 ADD SWAP1 DUP2 MSTORE PUSH1 0x20 ADD PUSH1 0x0 KECCAK256 PUSH1 0x5 ADD SLOAD SWAP1 POP SWAP1 JUMP JUMPDEST PUSH1 0x1 SLOAD DUP2 JUMP JUMPDEST PUSH1 0x7 PUSH1 0x20 MSTORE DUP1 PUSH1 0x0 MSTORE PUSH1 0x40 PUSH1 0x0 KECCAK256 PUSH1 0x0 SWAP2 POP SWAP1 POP DUP1 PUSH1 0x2 ADD PUSH1 0x0 SWAP1 SLOAD SWAP1 PUSH2 0x100 EXP SWAP1 DIV PUSH20 0xFFFFFFFFFFFFFFFFFFFFFFFFFFFFFFFFFFFFFFFF AND SWAP1 DUP1 PUSH1 0x3 ADD SLOAD SWAP1 DUP1 PUSH1 0x4 ADD SLOAD SWAP1 DUP1 PUSH1 0x5 ADD SLOAD SWAP1 DUP1 PUSH1 0x6 ADD PUSH1 0x0 SWAP1 SLOAD SWAP1 PUSH2 0x100 EXP SWAP1 DIV PUSH1 0xFF AND SWAP1 POP DUP6 JUMP JUMPDEST PUSH1 0x0 DUP3 SWAP1 POP PUSH1 0x0 PUSH1 0x4 PUSH8 0xFFFFFFFFFFFFFFFF DUP2 GT ISZERO PUSH2 0x159E JUMPI PUSH2 0x159D PUSH2 0x213C JUMP JUMPDEST JUMPDEST PUSH1 0x40 MLOAD SWAP1 DUP1 DUP3 MSTORE DUP1 PUSH1 0x20 MUL PUSH1 0x20 ADD DUP3 ADD PUSH1 0x40 MSTORE DUP1 ISZERO PUSH2 0x15CC JUMPI DUP2 PUSH1 0x20 ADD PUSH1 0x20 DUP3 MUL DUP1 CALLDATASIZE DUP4 CALLDATACOPY DUP1 DUP3 ADD SWAP2 POP POP SWAP1 POP JUMPDEST POP SWAP1 POP PUSH8 0x4563918244F40000 DUP2 PUSH1 0x0 DUP2 MLOAD DUP2 LT PUSH2 0x15EC JUMPI PUSH2 0x15EB PUSH2 0x210D JUMP JUMPDEST JUMPDEST PUSH1 0x20 MUL PUSH1 0x20 ADD ADD DUP2 DUP2 MSTORE POP POP PUSH8 0x29A2241AF62C0000 DUP2 PUSH1 0x1 DUP2 MLOAD DUP2 LT PUSH2 0x1615 JUMPI PUSH2 0x1614 PUSH2 0x210D JUMP JUMPDEST JUMPDEST PUSH1 0x20 MUL PUSH1 0x20 ADD ADD DUP2 DUP2 MSTORE POP POP PUSH8 0x1BC16D674EC80000 DUP2 PUSH1 0x2 DUP2 MLOAD DUP2 LT PUSH2 0x163E JUMPI PUSH2 0x163D PUSH2 0x210D JUMP JUMPDEST JUMPDEST PUSH1 0x20 MUL PUSH1 0x20 ADD ADD DUP2 DUP2 MSTORE POP POP PUSH8 0xDE0B6B3A7640000 DUP2 PUSH1 0x3 DUP2 MLOAD DUP2 LT PUSH2 0x1667 JUMPI PUSH2 0x1666 PUSH2 0x210D JUMP JUMPDEST JUMPDEST PUSH1 0x20 MUL PUSH1 0x20 ADD ADD DUP2 DUP2 MSTORE POP POP PUSH8 0x6F05B59D3B20000 DUP2 PUSH1 0x4 DUP2 MLOAD DUP2 LT PUSH2 0x1690 JUMPI PUSH2 0x168F PUSH2 0x210D JUMP JUMPDEST JUMPDEST PUSH1 0x20 MUL PUSH1 0x20 ADD ADD DUP2 DUP2 MSTORE POP POP PUSH1 0x0 DUP1 PUSH1 0x0 SWAP1 POP JUMPDEST PUSH1 0x14 DUP2 LT ISZERO PUSH2 0x18A9 JUMPI PUSH1 0x0 DUP2 EQ ISZERO PUSH2 0x16BF JUMPI PUSH1 0x0 SWAP2 POP PUSH2 0x1707 JUMP JUMPDEST PUSH1 0x1 DUP2 EQ ISZERO PUSH2 0x16D1 JUMPI PUSH1 0x1 SWAP2 POP PUSH2 0x1706 JUMP JUMPDEST PUSH1 0x2 DUP2 EQ ISZERO PUSH2 0x16E3 JUMPI PUSH1 0x2 SWAP2 POP PUSH2 0x1705 JUMP JUMPDEST PUSH1 0x2 DUP2 GT ISZERO PUSH2 0x16F5 JUMPI PUSH1 0x3 SWAP2 POP PUSH2 0x1704 JUMP JUMPDEST PUSH1 0x7 DUP2 GT ISZERO PUSH2 0x1703 JUMPI PUSH1 0x4 SWAP2 POP JUMPDEST JUMPDEST JUMPDEST JUMPDEST JUMPDEST PUSH1 0x0 PUSH20 0xFFFFFFFFFFFFFFFFFFFFFFFFFFFFFFFFFFFFFFFF AND PUSH1 0x7 PUSH1 0x0 DUP7 PUSH20 0xFFFFFFFFFFFFFFFFFFFFFFFFFFFFFFFFFFFFFFFF AND PUSH20 0xFFFFFFFFFFFFFFFFFFFFFFFFFFFFFFFFFFFFFFFF AND DUP2 MSTORE PUSH1 0x20 ADD SWAP1 DUP2 MSTORE PUSH1 0x20 ADD PUSH1 0x0 KECCAK256 PUSH1 0x2 ADD PUSH1 0x0 SWAP1 SLOAD SWAP1 PUSH2 0x100 EXP SWAP1 DIV PUSH20 0xFFFFFFFFFFFFFFFFFFFFFFFFFFFFFFFFFFFFFFFF AND PUSH20 0xFFFFFFFFFFFFFFFFFFFFFFFFFFFFFFFFFFFFFFFF AND EQ PUSH2 0x1891 JUMPI PUSH1 0x7 PUSH1 0x0 DUP6 PUSH20 0xFFFFFFFFFFFFFFFFFFFFFFFFFFFFFFFFFFFFFFFF AND PUSH20 0xFFFFFFFFFFFFFFFFFFFFFFFFFFFFFFFFFFFFFFFF AND DUP2 MSTORE PUSH1 0x20 ADD SWAP1 DUP2 MSTORE PUSH1 0x20 ADD PUSH1 0x0 KECCAK256 PUSH1 0x2 ADD PUSH1 0x0 SWAP1 SLOAD SWAP1 PUSH2 0x100 EXP SWAP1 DIV PUSH20 0xFFFFFFFFFFFFFFFFFFFFFFFFFFFFFFFFFFFFFFFF AND SWAP4 POP PUSH1 0x64 DUP6 DUP5 DUP5 DUP2 MLOAD DUP2 LT PUSH2 0x1818 JUMPI PUSH2 0x1817 PUSH2 0x210D JUMP JUMPDEST JUMPDEST PUSH1 0x20 MUL PUSH1 0x20 ADD ADD MLOAD PUSH2 0x182A SWAP2 SWAP1 PUSH2 0x1F7E JUMP JUMPDEST PUSH2 0x1834 SWAP2 SWAP1 PUSH2 0x1F4D JUMP JUMPDEST PUSH1 0x7 PUSH1 0x0 DUP7 PUSH20 0xFFFFFFFFFFFFFFFFFFFFFFFFFFFFFFFFFFFFFFFF AND PUSH20 0xFFFFFFFFFFFFFFFFFFFFFFFFFFFFFFFFFFFFFFFF AND DUP2 MSTORE PUSH1 0x20 ADD SWAP1 DUP2 MSTORE PUSH1 0x20 ADD PUSH1 0x0 KECCAK256 PUSH1 0x3 ADD PUSH1 0x0 DUP3 DUP3 SLOAD PUSH2 0x1885 SWAP2 SWAP1 PUSH2 0x1EF7 JUMP JUMPDEST SWAP3 POP POP DUP2 SWAP1 SSTORE POP PUSH2 0x1896 JUMP JUMPDEST PUSH2 0x18A9 JUMP JUMPDEST DUP1 DUP1 PUSH2 0x18A1 SWAP1 PUSH2 0x2066 JUMP JUMPDEST SWAP2 POP POP PUSH2 0x16A4 JUMP JUMPDEST POP POP POP POP POP POP JUMP JUMPDEST PUSH1 0x40 MLOAD DUP1 PUSH1 0x60 ADD PUSH1 0x40 MSTORE DUP1 PUSH1 0x0 DUP2 MSTORE PUSH1 0x20 ADD PUSH1 0x0 DUP2 MSTORE PUSH1 0x20 ADD PUSH1 0x0 DUP2 MSTORE POP SWAP1 JUMP JUMPDEST PUSH1 0x0 DUP2 CALLDATALOAD SWAP1 POP PUSH2 0x18E1 DUP2 PUSH2 0x22D8 JUMP JUMPDEST SWAP3 SWAP2 POP POP JUMP JUMPDEST PUSH1 0x0 DUP2 MLOAD SWAP1 POP PUSH2 0x18F6 DUP2 PUSH2 0x22EF JUMP JUMPDEST SWAP3 SWAP2 POP POP JUMP JUMPDEST PUSH1 0x0 DUP2 CALLDATALOAD SWAP1 POP PUSH2 0x190B DUP2 PUSH2 0x2306 JUMP JUMPDEST SWAP3 SWAP2 POP POP JUMP JUMPDEST PUSH1 0x0 PUSH1 0x20 DUP3 DUP5 SUB SLT ISZERO PUSH2 0x1927 JUMPI PUSH2 0x1926 PUSH2 0x216B JUMP JUMPDEST JUMPDEST PUSH1 0x0 PUSH2 0x1935 DUP5 DUP3 DUP6 ADD PUSH2 0x18D2 JUMP JUMPDEST SWAP2 POP POP SWAP3 SWAP2 POP POP JUMP JUMPDEST PUSH1 0x0 PUSH1 0x20 DUP3 DUP5 SUB SLT ISZERO PUSH2 0x1954 JUMPI PUSH2 0x1953 PUSH2 0x216B JUMP JUMPDEST JUMPDEST PUSH1 0x0 PUSH2 0x1962 DUP5 DUP3 DUP6 ADD PUSH2 0x18E7 JUMP JUMPDEST SWAP2 POP POP SWAP3 SWAP2 POP POP JUMP JUMPDEST PUSH1 0x0 DUP1 PUSH1 0x40 DUP4 DUP6 SUB SLT ISZERO PUSH2 0x1982 JUMPI PUSH2 0x1981 PUSH2 0x216B JUMP JUMPDEST JUMPDEST PUSH1 0x0 PUSH2 0x1990 DUP6 DUP3 DUP7 ADD PUSH2 0x18FC JUMP JUMPDEST SWAP3 POP POP PUSH1 0x20 PUSH2 0x19A1 DUP6 DUP3 DUP7 ADD PUSH2 0x18D2 JUMP JUMPDEST SWAP2 POP POP SWAP3 POP SWAP3 SWAP1 POP JUMP JUMPDEST PUSH1 0x0 DUP1 PUSH1 0x0 DUP1 PUSH1 0x80 DUP6 DUP8 SUB SLT ISZERO PUSH2 0x19C5 JUMPI PUSH2 0x19C4 PUSH2 0x216B JUMP JUMPDEST JUMPDEST PUSH1 0x0 PUSH2 0x19D3 DUP8 DUP3 DUP9 ADD PUSH2 0x18FC JUMP JUMPDEST SWAP5 POP POP PUSH1 0x20 PUSH2 0x19E4 DUP8 DUP3 DUP9 ADD PUSH2 0x18FC JUMP JUMPDEST SWAP4 POP POP PUSH1 0x40 PUSH2 0x19F5 DUP8 DUP3 DUP9 ADD PUSH2 0x18D2 JUMP JUMPDEST SWAP3 POP POP PUSH1 0x60 PUSH2 0x1A06 DUP8 DUP3 DUP9 ADD PUSH2 0x18D2 JUMP JUMPDEST SWAP2 POP POP SWAP3 SWAP6 SWAP2 SWAP5 POP SWAP3 POP JUMP JUMPDEST PUSH1 0x0 PUSH2 0x1A1E DUP4 DUP4 PUSH2 0x1A51 JUMP JUMPDEST PUSH1 0x20 DUP4 ADD SWAP1 POP SWAP3 SWAP2 POP POP JUMP JUMPDEST PUSH1 0x0 PUSH2 0x1A36 DUP4 DUP4 PUSH2 0x1C0C JUMP JUMPDEST PUSH1 0x60 DUP4 ADD SWAP1 POP SWAP3 SWAP2 POP POP JUMP JUMPDEST PUSH2 0x1A4B DUP2 PUSH2 0x201E JUMP JUMPDEST DUP3 MSTORE POP POP JUMP JUMPDEST PUSH2 0x1A5A DUP2 PUSH2 0x200C JUMP JUMPDEST DUP3 MSTORE POP POP JUMP JUMPDEST PUSH2 0x1A69 DUP2 PUSH2 0x200C JUMP JUMPDEST DUP3 MSTORE POP POP JUMP JUMPDEST PUSH1 0x0 PUSH2 0x1A7A DUP3 PUSH2 0x1E94 JUMP JUMPDEST PUSH2 0x1A84 DUP2 DUP6 PUSH2 0x1EC4 JUMP JUMPDEST SWAP4 POP PUSH2 0x1A8F DUP4 PUSH2 0x1E74 JUMP JUMPDEST DUP1 PUSH1 0x0 JUMPDEST DUP4 DUP2 LT ISZERO PUSH2 0x1AC0 JUMPI DUP2 MLOAD PUSH2 0x1AA7 DUP9 DUP3 PUSH2 0x1A12 JUMP JUMPDEST SWAP8 POP PUSH2 0x1AB2 DUP4 PUSH2 0x1EAA JUMP JUMPDEST SWAP3 POP POP PUSH1 0x1 DUP2 ADD SWAP1 POP PUSH2 0x1A93 JUMP JUMPDEST POP DUP6 SWAP4 POP POP POP POP SWAP3 SWAP2 POP POP JUMP JUMPDEST PUSH1 0x0 PUSH2 0x1AD8 DUP3 PUSH2 0x1E9F JUMP JUMPDEST PUSH2 0x1AE2 DUP2 DUP6 PUSH2 0x1ED5 JUMP JUMPDEST SWAP4 POP PUSH2 0x1AED DUP4 PUSH2 0x1E84 JUMP JUMPDEST DUP1 PUSH1 0x0 JUMPDEST DUP4 DUP2 LT ISZERO PUSH2 0x1B1E JUMPI DUP2 MLOAD PUSH2 0x1B05 DUP9 DUP3 PUSH2 0x1A2A JUMP JUMPDEST SWAP8 POP PUSH2 0x1B10 DUP4 PUSH2 0x1EB7 JUMP JUMPDEST SWAP3 POP POP PUSH1 0x1 DUP2 ADD SWAP1 POP PUSH2 0x1AF1 JUMP JUMPDEST POP DUP6 SWAP4 POP POP POP POP SWAP3 SWAP2 POP POP JUMP JUMPDEST PUSH2 0x1B34 DUP2 PUSH2 0x2030 JUMP JUMPDEST DUP3 MSTORE POP POP JUMP JUMPDEST PUSH1 0x0 PUSH2 0x1B47 PUSH1 0x1B DUP4 PUSH2 0x1EE6 JUMP JUMPDEST SWAP2 POP PUSH2 0x1B52 DUP3 PUSH2 0x2170 JUMP JUMPDEST PUSH1 0x20 DUP3 ADD SWAP1 POP SWAP2 SWAP1 POP JUMP JUMPDEST PUSH1 0x0 PUSH2 0x1B6A PUSH1 0x25 DUP4 PUSH2 0x1EE6 JUMP JUMPDEST SWAP2 POP PUSH2 0x1B75 DUP3 PUSH2 0x2199 JUMP JUMPDEST PUSH1 0x40 DUP3 ADD SWAP1 POP SWAP2 SWAP1 POP JUMP JUMPDEST PUSH1 0x0 PUSH2 0x1B8D PUSH1 0x40 DUP4 PUSH2 0x1EE6 JUMP JUMPDEST SWAP2 POP PUSH2 0x1B98 DUP3 PUSH2 0x21E8 JUMP JUMPDEST PUSH1 0x40 DUP3 ADD SWAP1 POP SWAP2 SWAP1 POP JUMP JUMPDEST PUSH1 0x0 PUSH2 0x1BB0 PUSH1 0x1F DUP4 PUSH2 0x1EE6 JUMP JUMPDEST SWAP2 POP PUSH2 0x1BBB DUP3 PUSH2 0x2237 JUMP JUMPDEST PUSH1 0x20 DUP3 ADD SWAP1 POP SWAP2 SWAP1 POP JUMP JUMPDEST PUSH1 0x0 PUSH2 0x1BD3 PUSH1 0x22 DUP4 PUSH2 0x1EE6 JUMP JUMPDEST SWAP2 POP PUSH2 0x1BDE DUP3 PUSH2 0x2260 JUMP JUMPDEST PUSH1 0x40 DUP3 ADD SWAP1 POP SWAP2 SWAP1 POP JUMP JUMPDEST PUSH1 0x0 PUSH2 0x1BF6 PUSH1 0x12 DUP4 PUSH2 0x1EE6 JUMP JUMPDEST SWAP2 POP PUSH2 0x1C01 DUP3 PUSH2 0x22AF JUMP JUMPDEST PUSH1 0x20 DUP3 ADD SWAP1 POP SWAP2 SWAP1 POP JUMP JUMPDEST PUSH1 0x60 DUP3 ADD PUSH1 0x0 DUP3 ADD MLOAD PUSH2 0x1C22 PUSH1 0x0 DUP6 ADD DUP3 PUSH2 0x1C4E JUMP JUMPDEST POP PUSH1 0x20 DUP3 ADD MLOAD PUSH2 0x1C35 PUSH1 0x20 DUP6 ADD DUP3 PUSH2 0x1C4E JUMP JUMPDEST POP PUSH1 0x40 DUP3 ADD MLOAD PUSH2 0x1C48 PUSH1 0x40 DUP6 ADD DUP3 PUSH2 0x1C4E JUMP JUMPDEST POP POP POP POP JUMP JUMPDEST PUSH2 0x1C57 DUP2 PUSH2 0x205C JUMP JUMPDEST DUP3 MSTORE POP POP JUMP JUMPDEST PUSH2 0x1C66 DUP2 PUSH2 0x205C JUMP JUMPDEST DUP3 MSTORE POP POP JUMP JUMPDEST PUSH1 0x0 PUSH1 0x20 DUP3 ADD SWAP1 POP PUSH2 0x1C81 PUSH1 0x0 DUP4 ADD DUP5 PUSH2 0x1A42 JUMP JUMPDEST SWAP3 SWAP2 POP POP JUMP JUMPDEST PUSH1 0x0 PUSH1 0x60 DUP3 ADD SWAP1 POP PUSH2 0x1C9C PUSH1 0x0 DUP4 ADD DUP7 PUSH2 0x1A60 JUMP JUMPDEST PUSH2 0x1CA9 PUSH1 0x20 DUP4 ADD DUP6 PUSH2 0x1A60 JUMP JUMPDEST PUSH2 0x1CB6 PUSH1 0x40 DUP4 ADD DUP5 PUSH2 0x1C5D JUMP JUMPDEST SWAP5 SWAP4 POP POP POP POP JUMP JUMPDEST PUSH1 0x0 PUSH1 0x40 DUP3 ADD SWAP1 POP PUSH2 0x1CD3 PUSH1 0x0 DUP4 ADD DUP6 PUSH2 0x1A60 JUMP JUMPDEST PUSH2 0x1CE0 PUSH1 0x20 DUP4 ADD DUP5 PUSH2 0x1C5D JUMP JUMPDEST SWAP4 SWAP3 POP POP POP JUMP JUMPDEST PUSH1 0x0 PUSH1 0xA0 DUP3 ADD SWAP1 POP PUSH2 0x1CFC PUSH1 0x0 DUP4 ADD DUP9 PUSH2 0x1A60 JUMP JUMPDEST PUSH2 0x1D09 PUSH1 0x20 DUP4 ADD DUP8 PUSH2 0x1C5D JUMP JUMPDEST PUSH2 0x1D16 PUSH1 0x40 DUP4 ADD DUP7 PUSH2 0x1C5D JUMP JUMPDEST PUSH2 0x1D23 PUSH1 0x60 DUP4 ADD DUP6 PUSH2 0x1C5D JUMP JUMPDEST PUSH2 0x1D30 PUSH1 0x80 DUP4 ADD DUP5 PUSH2 0x1B2B JUMP JUMPDEST SWAP7 SWAP6 POP POP POP POP POP POP JUMP JUMPDEST PUSH1 0x0 PUSH1 0x20 DUP3 ADD SWAP1 POP DUP2 DUP2 SUB PUSH1 0x0 DUP4 ADD MSTORE PUSH2 0x1D54 DUP2 DUP5 PUSH2 0x1A6F JUMP JUMPDEST SWAP1 POP SWAP3 SWAP2 POP POP JUMP JUMPDEST PUSH1 0x0 PUSH1 0x20 DUP3 ADD SWAP1 POP DUP2 DUP2 SUB PUSH1 0x0 DUP4 ADD MSTORE PUSH2 0x1D76 DUP2 DUP5 PUSH2 0x1ACD JUMP JUMPDEST SWAP1 POP SWAP3 SWAP2 POP POP JUMP JUMPDEST PUSH1 0x0 PUSH1 0x20 DUP3 ADD SWAP1 POP PUSH2 0x1D93 PUSH1 0x0 DUP4 ADD DUP5 PUSH2 0x1B2B JUMP JUMPDEST SWAP3 SWAP2 POP POP JUMP JUMPDEST PUSH1 0x0 PUSH1 0x20 DUP3 ADD SWAP1 POP DUP2 DUP2 SUB PUSH1 0x0 DUP4 ADD MSTORE PUSH2 0x1DB2 DUP2 PUSH2 0x1B3A JUMP JUMPDEST SWAP1 POP SWAP2 SWAP1 POP JUMP JUMPDEST PUSH1 0x0 PUSH1 0x20 DUP3 ADD SWAP1 POP DUP2 DUP2 SUB PUSH1 0x0 DUP4 ADD MSTORE PUSH2 0x1DD2 DUP2 PUSH2 0x1B5D JUMP JUMPDEST SWAP1 POP SWAP2 SWAP1 POP JUMP JUMPDEST PUSH1 0x0 PUSH1 0x20 DUP3 ADD SWAP1 POP DUP2 DUP2 SUB PUSH1 0x0 DUP4 ADD MSTORE PUSH2 0x1DF2 DUP2 PUSH2 0x1B80 JUMP JUMPDEST SWAP1 POP SWAP2 SWAP1 POP JUMP JUMPDEST PUSH1 0x0 PUSH1 0x20 DUP3 ADD SWAP1 POP DUP2 DUP2 SUB PUSH1 0x0 DUP4 ADD MSTORE PUSH2 0x1E12 DUP2 PUSH2 0x1BA3 JUMP JUMPDEST SWAP1 POP SWAP2 SWAP1 POP JUMP JUMPDEST PUSH1 0x0 PUSH1 0x20 DUP3 ADD SWAP1 POP DUP2 DUP2 SUB PUSH1 0x0 DUP4 ADD MSTORE PUSH2 0x1E32 DUP2 PUSH2 0x1BC6 JUMP JUMPDEST SWAP1 POP SWAP2 SWAP1 POP JUMP JUMPDEST PUSH1 0x0 PUSH1 0x20 DUP3 ADD SWAP1 POP DUP2 DUP2 SUB PUSH1 0x0 DUP4 ADD MSTORE PUSH2 0x1E52 DUP2 PUSH2 0x1BE9 JUMP JUMPDEST SWAP1 POP SWAP2 SWAP1 POP JUMP JUMPDEST PUSH1 0x0 PUSH1 0x20 DUP3 ADD SWAP1 POP PUSH2 0x1E6E PUSH1 0x0 DUP4 ADD DUP5 PUSH2 0x1C5D JUMP JUMPDEST SWAP3 SWAP2 POP POP JUMP JUMPDEST PUSH1 0x0 DUP2 SWAP1 POP PUSH1 0x20 DUP3 ADD SWAP1 POP SWAP2 SWAP1 POP JUMP JUMPDEST PUSH1 0x0 DUP2 SWAP1 POP PUSH1 0x20 DUP3 ADD SWAP1 POP SWAP2 SWAP1 POP JUMP JUMPDEST PUSH1 0x0 DUP2 MLOAD SWAP1 POP SWAP2 SWAP1 POP JUMP JUMPDEST PUSH1 0x0 DUP2 MLOAD SWAP1 POP SWAP2 SWAP1 POP JUMP JUMPDEST PUSH1 0x0 PUSH1 0x20 DUP3 ADD SWAP1 POP SWAP2 SWAP1 POP JUMP JUMPDEST PUSH1 0x0 PUSH1 0x20 DUP3 ADD SWAP1 POP SWAP2 SWAP1 POP JUMP JUMPDEST PUSH1 0x0 DUP3 DUP3 MSTORE PUSH1 0x20 DUP3 ADD SWAP1 POP SWAP3 SWAP2 POP POP JUMP JUMPDEST PUSH1 0x0 DUP3 DUP3 MSTORE PUSH1 0x20 DUP3 ADD SWAP1 POP SWAP3 SWAP2 POP POP JUMP JUMPDEST PUSH1 0x0 DUP3 DUP3 MSTORE PUSH1 0x20 DUP3 ADD SWAP1 POP SWAP3 SWAP2 POP POP JUMP JUMPDEST PUSH1 0x0 PUSH2 0x1F02 DUP3 PUSH2 0x205C JUMP JUMPDEST SWAP2 POP PUSH2 0x1F0D DUP4 PUSH2 0x205C JUMP JUMPDEST SWAP3 POP DUP3 PUSH32 0xFFFFFFFFFFFFFFFFFFFFFFFFFFFFFFFFFFFFFFFFFFFFFFFFFFFFFFFFFFFFFFFF SUB DUP3 GT ISZERO PUSH2 0x1F42 JUMPI PUSH2 0x1F41 PUSH2 0x20AF JUMP JUMPDEST JUMPDEST DUP3 DUP3 ADD SWAP1 POP SWAP3 SWAP2 POP POP JUMP JUMPDEST PUSH1 0x0 PUSH2 0x1F58 DUP3 PUSH2 0x205C JUMP JUMPDEST SWAP2 POP PUSH2 0x1F63 DUP4 PUSH2 0x205C JUMP JUMPDEST SWAP3 POP DUP3 PUSH2 0x1F73 JUMPI PUSH2 0x1F72 PUSH2 0x20DE JUMP JUMPDEST JUMPDEST DUP3 DUP3 DIV SWAP1 POP SWAP3 SWAP2 POP POP JUMP JUMPDEST PUSH1 0x0 PUSH2 0x1F89 DUP3 PUSH2 0x205C JUMP JUMPDEST SWAP2 POP PUSH2 0x1F94 DUP4 PUSH2 0x205C JUMP JUMPDEST SWAP3 POP DUP2 PUSH32 0xFFFFFFFFFFFFFFFFFFFFFFFFFFFFFFFFFFFFFFFFFFFFFFFFFFFFFFFFFFFFFFFF DIV DUP4 GT DUP3 ISZERO ISZERO AND ISZERO PUSH2 0x1FCD JUMPI PUSH2 0x1FCC PUSH2 0x20AF JUMP JUMPDEST JUMPDEST DUP3 DUP3 MUL SWAP1 POP SWAP3 SWAP2 POP POP JUMP JUMPDEST PUSH1 0x0 PUSH2 0x1FE3 DUP3 PUSH2 0x205C JUMP JUMPDEST SWAP2 POP PUSH2 0x1FEE DUP4 PUSH2 0x205C JUMP JUMPDEST SWAP3 POP DUP3 DUP3 LT ISZERO PUSH2 0x2001 JUMPI PUSH2 0x2000 PUSH2 0x20AF JUMP JUMPDEST JUMPDEST DUP3 DUP3 SUB SWAP1 POP SWAP3 SWAP2 POP POP JUMP JUMPDEST PUSH1 0x0 PUSH2 0x2017 DUP3 PUSH2 0x203C JUMP JUMPDEST SWAP1 POP SWAP2 SWAP1 POP JUMP JUMPDEST PUSH1 0x0 PUSH2 0x2029 DUP3 PUSH2 0x203C JUMP JUMPDEST SWAP1 POP SWAP2 SWAP1 POP JUMP JUMPDEST PUSH1 0x0 DUP2 ISZERO ISZERO SWAP1 POP SWAP2 SWAP1 POP JUMP JUMPDEST PUSH1 0x0 PUSH20 0xFFFFFFFFFFFFFFFFFFFFFFFFFFFFFFFFFFFFFFFF DUP3 AND SWAP1 POP SWAP2 SWAP1 POP JUMP JUMPDEST PUSH1 0x0 DUP2 SWAP1 POP SWAP2 SWAP1 POP JUMP JUMPDEST PUSH1 0x0 PUSH2 0x2071 DUP3 PUSH2 0x205C JUMP JUMPDEST SWAP2 POP PUSH32 0xFFFFFFFFFFFFFFFFFFFFFFFFFFFFFFFFFFFFFFFFFFFFFFFFFFFFFFFFFFFFFFFF DUP3 EQ ISZERO PUSH2 0x20A4 JUMPI PUSH2 0x20A3 PUSH2 0x20AF JUMP JUMPDEST JUMPDEST PUSH1 0x1 DUP3 ADD SWAP1 POP SWAP2 SWAP1 POP JUMP JUMPDEST PUSH32 0x4E487B7100000000000000000000000000000000000000000000000000000000 PUSH1 0x0 MSTORE PUSH1 0x11 PUSH1 0x4 MSTORE PUSH1 0x24 PUSH1 0x0 REVERT JUMPDEST PUSH32 0x4E487B7100000000000000000000000000000000000000000000000000000000 PUSH1 0x0 MSTORE PUSH1 0x12 PUSH1 0x4 MSTORE PUSH1 0x24 PUSH1 0x0 REVERT JUMPDEST PUSH32 0x4E487B7100000000000000000000000000000000000000000000000000000000 PUSH1 0x0 MSTORE PUSH1 0x32 PUSH1 0x4 MSTORE PUSH1 0x24 PUSH1 0x0 REVERT JUMPDEST PUSH32 0x4E487B7100000000000000000000000000000000000000000000000000000000 PUSH1 0x0 MSTORE PUSH1 0x41 PUSH1 0x4 MSTORE PUSH1 0x24 PUSH1 0x0 REVERT JUMPDEST PUSH1 0x0 DUP1 REVERT JUMPDEST PUSH32 0x76616C7565206973206E6F742067726561746572207468616E20300000000000 PUSH1 0x0 DUP3 ADD MSTORE POP JUMP JUMPDEST PUSH32 0x796F7520646F6E74206861766520696E766573746D656E7420746F2077697468 PUSH1 0x0 DUP3 ADD MSTORE PUSH32 0x647261776E000000000000000000000000000000000000000000000000000000 PUSH1 0x20 DUP3 ADD MSTORE POP JUMP JUMPDEST PUSH32 0x796F752073686F756C642068617665206D696E696D756D203520726566657272 PUSH1 0x0 DUP3 ADD MSTORE PUSH32 0x616C73207468656E20796F752063616E20776974686472617720726577617264 PUSH1 0x20 DUP3 ADD MSTORE POP JUMP JUMPDEST PUSH32 0x74686973206973206E6F7420796F75722077697468647261776E2074696D6500 PUSH1 0x0 DUP3 ADD MSTORE POP JUMP JUMPDEST PUSH32 0x796F7520646F6E742068617665207265776172647320746F2077697468647261 PUSH1 0x0 DUP3 ADD MSTORE PUSH32 0x776E000000000000000000000000000000000000000000000000000000000000 PUSH1 0x20 DUP3 ADD MSTORE POP JUMP JUMPDEST PUSH32 0x66656573206973206E6F7420656E6F7567680000000000000000000000000000 PUSH1 0x0 DUP3 ADD MSTORE POP JUMP JUMPDEST PUSH2 0x22E1 DUP2 PUSH2 0x200C JUMP JUMPDEST DUP2 EQ PUSH2 0x22EC JUMPI PUSH1 0x0 DUP1 REVERT JUMPDEST POP JUMP JUMPDEST PUSH2 0x22F8 DUP2 PUSH2 0x2030 JUMP JUMPDEST DUP2 EQ PUSH2 0x2303 JUMPI PUSH1 0x0 DUP1 REVERT JUMPDEST POP JUMP JUMPDEST PUSH2 0x230F DUP2 PUSH2 0x205C JUMP JUMPDEST DUP2 EQ PUSH2 0x231A JUMPI PUSH1 0x0 DUP1 REVERT JUMPDEST POP JUMP INVALID LOG2 PUSH5 0x6970667358 0x22 SLT KECCAK256 0xA6 XOR 0xCA 0x4E 0xC0 ADDRESS LOG4 DUP5 EXTCODESIZE 0xEE 0x4D 0x4B MSTORE8 0xB6 PUSH18 0xC506A11447D15D4696AE3166578113859D64 PUSH20 0x6F6C634300080700330000000000000000000000 "
				},
				"gasEstimates": {
					"creation": {
						"codeDepositCost": "1808600",
						"executionCost": "72552",
						"totalCost": "1881152"
					},
					"external": {
						"DUSDReferralsList()": "infinite",
						"DUSDTotalReferrals()": "2563",
						"DUSDinvestor(address)": "infinite",
						"InvestDUSD(uint256,uint256,address,address)": "infinite",
						"getAllDUSDinvestments()": "infinite",
						"getDUSDRewardBalance()": "2556",
						"getTotalInvestmentDUSD()": "2576",
						"owner()": "2533",
						"ownerfees()": "2495",
						"totalCUSTOMInvestors()": "2496",
						"totalDUSDInvestors()": "2497",
						"totalMUSDInvestors()": "2474",
						"withdrawDUSDInvestment(uint256,address)": "infinite",
						"withdrawDUSDReward(address)": "infinite"
					},
					"internal": {
						"sendRewardToDUSDReferrals(address,uint256)": "infinite"
					}
				},
				"methodIdentifiers": {
					"DUSDReferralsList()": "0c5f58f4",
					"DUSDTotalReferrals()": "1e8aba35",
					"DUSDinvestor(address)": "d3560ee8",
					"InvestDUSD(uint256,uint256,address,address)": "5194d5ac",
					"getAllDUSDinvestments()": "3a1e0833",
					"getDUSDRewardBalance()": "0a701f36",
					"getTotalInvestmentDUSD()": "929f6bbe",
					"owner()": "8da5cb5b",
					"ownerfees()": "d0ff6e63",
					"totalCUSTOMInvestors()": "7b8246ce",
					"totalDUSDInvestors()": "10cde60a",
					"totalMUSDInvestors()": "60fca6fd",
					"withdrawDUSDInvestment(uint256,address)": "3bf0200e",
					"withdrawDUSDReward(address)": "349020cd"
				}
			},
			"storageLayout": {
				"storage": [
					{
						"astId": 24,
						"contract": "contracts/stake_reward_MLM.sol:Invest",
						"label": "owner",
						"offset": 0,
						"slot": "0",
						"type": "t_address_payable"
					},
					{
						"astId": 26,
						"contract": "contracts/stake_reward_MLM.sol:Invest",
						"label": "ownerfees",
						"offset": 0,
						"slot": "1",
						"type": "t_uint256"
					},
					{
						"astId": 29,
						"contract": "contracts/stake_reward_MLM.sol:Invest",
						"label": "DUSDcontract",
						"offset": 0,
						"slot": "2",
						"type": "t_address"
					},
					{
						"astId": 31,
						"contract": "contracts/stake_reward_MLM.sol:Invest",
						"label": "customToken",
						"offset": 0,
						"slot": "3",
						"type": "t_address"
					},
					{
						"astId": 33,
						"contract": "contracts/stake_reward_MLM.sol:Invest",
						"label": "totalCUSTOMInvestors",
						"offset": 0,
						"slot": "4",
						"type": "t_uint256"
					},
					{
						"astId": 35,
						"contract": "contracts/stake_reward_MLM.sol:Invest",
						"label": "totalDUSDInvestors",
						"offset": 0,
						"slot": "5",
						"type": "t_uint256"
					},
					{
						"astId": 37,
						"contract": "contracts/stake_reward_MLM.sol:Invest",
						"label": "totalMUSDInvestors",
						"offset": 0,
						"slot": "6",
						"type": "t_uint256"
					},
					{
						"astId": 68,
						"contract": "contracts/stake_reward_MLM.sol:Invest",
						"label": "DUSDinvestor",
						"offset": 0,
						"slot": "7",
						"type": "t_mapping(t_address,t_struct(Data)63_storage)"
					}
				],
				"types": {
					"t_address": {
						"encoding": "inplace",
						"label": "address",
						"numberOfBytes": "20"
					},
					"t_address_payable": {
						"encoding": "inplace",
						"label": "address payable",
						"numberOfBytes": "20"
					},
					"t_array(t_address)dyn_storage": {
						"base": "t_address",
						"encoding": "dynamic_array",
						"label": "address[]",
						"numberOfBytes": "32"
					},
					"t_bool": {
						"encoding": "inplace",
						"label": "bool",
						"numberOfBytes": "1"
					},
					"t_mapping(t_address,t_struct(Data)63_storage)": {
						"encoding": "mapping",
						"key": "t_address",
						"label": "mapping(address => struct Invest.Data)",
						"numberOfBytes": "32",
						"value": "t_struct(Data)63_storage"
					},
					"t_mapping(t_uint256,t_struct(allInvestments)44_storage)": {
						"encoding": "mapping",
						"key": "t_uint256",
						"label": "mapping(uint256 => struct Invest.allInvestments)",
						"numberOfBytes": "32",
						"value": "t_struct(allInvestments)44_storage"
					},
					"t_struct(Data)63_storage": {
						"encoding": "inplace",
						"label": "struct Invest.Data",
						"members": [
							{
								"astId": 49,
								"contract": "contracts/stake_reward_MLM.sol:Invest",
								"label": "investment",
								"offset": 0,
								"slot": "0",
								"type": "t_mapping(t_uint256,t_struct(allInvestments)44_storage)"
							},
							{
								"astId": 52,
								"contract": "contracts/stake_reward_MLM.sol:Invest",
								"label": "hisReferrals",
								"offset": 0,
								"slot": "1",
								"type": "t_array(t_address)dyn_storage"
							},
							{
								"astId": 54,
								"contract": "contracts/stake_reward_MLM.sol:Invest",
								"label": "referralFrom",
								"offset": 0,
								"slot": "2",
								"type": "t_address"
							},
							{
								"astId": 56,
								"contract": "contracts/stake_reward_MLM.sol:Invest",
								"label": "reward",
								"offset": 0,
								"slot": "3",
								"type": "t_uint256"
							},
							{
								"astId": 58,
								"contract": "contracts/stake_reward_MLM.sol:Invest",
								"label": "noOfInvestment",
								"offset": 0,
								"slot": "4",
								"type": "t_uint256"
							},
							{
								"astId": 60,
								"contract": "contracts/stake_reward_MLM.sol:Invest",
								"label": "totalInvestment",
								"offset": 0,
								"slot": "5",
								"type": "t_uint256"
							},
							{
								"astId": 62,
								"contract": "contracts/stake_reward_MLM.sol:Invest",
								"label": "investBefore",
								"offset": 0,
								"slot": "6",
								"type": "t_bool"
							}
						],
						"numberOfBytes": "224"
					},
					"t_struct(allInvestments)44_storage": {
						"encoding": "inplace",
						"label": "struct Invest.allInvestments",
						"members": [
							{
								"astId": 39,
								"contract": "contracts/stake_reward_MLM.sol:Invest",
								"label": "investedAmount",
								"offset": 0,
								"slot": "0",
								"type": "t_uint256"
							},
							{
								"astId": 41,
								"contract": "contracts/stake_reward_MLM.sol:Invest",
								"label": "withdrawnTime",
								"offset": 0,
								"slot": "1",
								"type": "t_uint256"
							},
							{
								"astId": 43,
								"contract": "contracts/stake_reward_MLM.sol:Invest",
								"label": "investmentNum",
								"offset": 0,
								"slot": "2",
								"type": "t_uint256"
							}
						],
						"numberOfBytes": "96"
					},
					"t_uint256": {
						"encoding": "inplace",
						"label": "uint256",
						"numberOfBytes": "32"
					}
				}
			},
			"userdoc": {
				"kind": "user",
				"methods": {},
				"version": 1
			}
		}
	}
}