{
	"contracts/ODI_with _referral.sol": {
		"DOI": {
			"abi": [
				{
					"inputs": [
						{
							"internalType": "address",
							"name": "_usdt_add",
							"type": "address"
						},
						{
							"internalType": "address",
							"name": "_buy_token_add",
							"type": "address"
						}
					],
					"stateMutability": "nonpayable",
					"type": "constructor"
				},
				{
					"inputs": [],
					"name": "buy_token_add",
					"outputs": [
						{
							"internalType": "address",
							"name": "",
							"type": "address"
						}
					],
					"stateMutability": "view",
					"type": "function"
				},
				{
					"inputs": [
						{
							"internalType": "address",
							"name": "_referral",
							"type": "address"
						}
					],
					"name": "buy_tokens",
					"outputs": [
						{
							"internalType": "bool",
							"name": "",
							"type": "bool"
						}
					],
					"stateMutability": "nonpayable",
					"type": "function"
				},
				{
					"inputs": [
						{
							"internalType": "uint256",
							"name": "_upper_limit",
							"type": "uint256"
						},
						{
							"internalType": "uint256",
							"name": "_round",
							"type": "uint256"
						}
					],
					"name": "change_upperLimit",
					"outputs": [],
					"stateMutability": "nonpayable",
					"type": "function"
				},
				{
					"inputs": [
						{
							"internalType": "uint256",
							"name": "_num",
							"type": "uint256"
						}
					],
					"name": "claim_bought_tokens",
					"outputs": [
						{
							"internalType": "bool",
							"name": "",
							"type": "bool"
						}
					],
					"stateMutability": "nonpayable",
					"type": "function"
				},
				{
					"inputs": [],
					"name": "claim_ref_tokens",
					"outputs": [
						{
							"internalType": "bool",
							"name": "",
							"type": "bool"
						}
					],
					"stateMutability": "nonpayable",
					"type": "function"
				},
				{
					"inputs": [],
					"name": "getAll_Buyings",
					"outputs": [
						{
							"components": [
								{
									"internalType": "uint256",
									"name": "investedAmount",
									"type": "uint256"
								},
								{
									"internalType": "uint256",
									"name": "claim_Time",
									"type": "uint256"
								},
								{
									"internalType": "uint256",
									"name": "buying_Time",
									"type": "uint256"
								},
								{
									"internalType": "uint256",
									"name": "investmentNum",
									"type": "uint256"
								},
								{
									"internalType": "uint256",
									"name": "unstakeTime",
									"type": "uint256"
								},
								{
									"internalType": "bool",
									"name": "claimed",
									"type": "bool"
								}
							],
							"internalType": "struct DOI.allInvestments[]",
							"name": "",
							"type": "tuple[]"
						}
					],
					"stateMutability": "view",
					"type": "function"
				},
				{
					"inputs": [],
					"name": "get_claim_ref_tokens",
					"outputs": [
						{
							"internalType": "uint256",
							"name": "",
							"type": "uint256"
						}
					],
					"stateMutability": "view",
					"type": "function"
				},
				{
					"inputs": [],
					"name": "get_claimable_tokens",
					"outputs": [
						{
							"internalType": "uint256",
							"name": "",
							"type": "uint256"
						}
					],
					"stateMutability": "view",
					"type": "function"
				},
				{
					"inputs": [],
					"name": "num",
					"outputs": [
						{
							"internalType": "uint256",
							"name": "",
							"type": "uint256"
						}
					],
					"stateMutability": "view",
					"type": "function"
				},
				{
					"inputs": [],
					"name": "owner",
					"outputs": [
						{
							"internalType": "address",
							"name": "",
							"type": "address"
						}
					],
					"stateMutability": "view",
					"type": "function"
				},
				{
					"inputs": [
						{
							"internalType": "uint256",
							"name": "",
							"type": "uint256"
						}
					],
					"name": "round",
					"outputs": [
						{
							"internalType": "uint256",
							"name": "upper_limit",
							"type": "uint256"
						},
						{
							"internalType": "uint256",
							"name": "quantity",
							"type": "uint256"
						},
						{
							"internalType": "uint256",
							"name": "total_limit",
							"type": "uint256"
						}
					],
					"stateMutability": "view",
					"type": "function"
				},
				{
					"inputs": [],
					"name": "time_end",
					"outputs": [
						{
							"internalType": "uint256",
							"name": "",
							"type": "uint256"
						}
					],
					"stateMutability": "view",
					"type": "function"
				},
				{
					"inputs": [
						{
							"internalType": "address",
							"name": "_owner",
							"type": "address"
						}
					],
					"name": "transferOwnership",
					"outputs": [],
					"stateMutability": "nonpayable",
					"type": "function"
				},
				{
					"inputs": [],
					"name": "usdt_address",
					"outputs": [
						{
							"internalType": "address",
							"name": "",
							"type": "address"
						}
					],
					"stateMutability": "view",
					"type": "function"
				},
				{
					"inputs": [
						{
							"internalType": "address",
							"name": "",
							"type": "address"
						}
					],
					"name": "user",
					"outputs": [
						{
							"internalType": "uint256",
							"name": "tokens_for_claiming",
							"type": "uint256"
						},
						{
							"internalType": "address",
							"name": "referralFrom",
							"type": "address"
						},
						{
							"internalType": "bool",
							"name": "investBefore",
							"type": "bool"
						},
						{
							"internalType": "uint256",
							"name": "ref_tokens_claiming",
							"type": "uint256"
						},
						{
							"internalType": "uint256",
							"name": "total_investments",
							"type": "uint256"
						}
					],
					"stateMutability": "view",
					"type": "function"
				}
			],
			"devdoc": {
				"kind": "dev",
				"methods": {},
				"version": 1
			},
			"evm": {
				"assembly": "    /* \"contracts/ODI_with _referral.sol\":339:7784  contract DOI{... */\n  mstore(0x40, 0x80)\n    /* \"contracts/ODI_with _referral.sol\":971:1750  constructor(address _usdt_add, address _buy_token_add){... */\n  callvalue\n  dup1\n  iszero\n  tag_1\n  jumpi\n  0x00\n  dup1\n  revert\ntag_1:\n  pop\n  mload(0x40)\n  sub(codesize, bytecodeSize)\n  dup1\n  bytecodeSize\n  dup4\n  codecopy\n  dup2\n  dup2\n  add\n  0x40\n  mstore\n  dup2\n  add\n  swap1\n  tag_2\n  swap2\n  swap1\n  tag_3\n  jump\t// in\ntag_2:\n    /* \"contracts/ODI_with _referral.sol\":1049:1058  _usdt_add */\n  dup2\n    /* \"contracts/ODI_with _referral.sol\":1036:1048  usdt_address */\n  0x02\n  0x00\n    /* \"contracts/ODI_with _referral.sol\":1036:1058  usdt_address=_usdt_add */\n  0x0100\n  exp\n  dup2\n  sload\n  dup2\n  0xffffffffffffffffffffffffffffffffffffffff\n  mul\n  not\n  and\n  swap1\n  dup4\n  0xffffffffffffffffffffffffffffffffffffffff\n  and\n  mul\n  or\n  swap1\n  sstore\n  pop\n    /* \"contracts/ODI_with _referral.sol\":1082:1096  _buy_token_add */\n  dup1\n    /* \"contracts/ODI_with _referral.sol\":1068:1081  buy_token_add */\n  0x03\n  0x00\n    /* \"contracts/ODI_with _referral.sol\":1068:1096  buy_token_add=_buy_token_add */\n  0x0100\n  exp\n  dup2\n  sload\n  dup2\n  0xffffffffffffffffffffffffffffffffffffffff\n  mul\n  not\n  and\n  swap1\n  dup4\n  0xffffffffffffffffffffffffffffffffffffffff\n  and\n  mul\n  or\n  swap1\n  sstore\n  pop\n    /* \"contracts/ODI_with _referral.sol\":1112:1122  msg.sender */\n  caller\n    /* \"contracts/ODI_with _referral.sol\":1106:1111  owner */\n  0x04\n  0x00\n    /* \"contracts/ODI_with _referral.sol\":1106:1122  owner=msg.sender */\n  0x0100\n  exp\n  dup2\n  sload\n  dup2\n  0xffffffffffffffffffffffffffffffffffffffff\n  mul\n  not\n  and\n  swap1\n  dup4\n  0xffffffffffffffffffffffffffffffffffffffff\n  and\n  mul\n  or\n  swap1\n  sstore\n  pop\n    /* \"contracts/ODI_with _referral.sol\":1137:1143  uint i */\n  0x00\n    /* \"contracts/ODI_with _referral.sol\":1133:1743  for(uint i=0; i<3;i++)... */\ntag_6:\n    /* \"contracts/ODI_with _referral.sol\":1149:1150  3 */\n  0x03\n    /* \"contracts/ODI_with _referral.sol\":1147:1148  i */\n  dup2\n    /* \"contracts/ODI_with _referral.sol\":1147:1150  i<3 */\n  lt\n    /* \"contracts/ODI_with _referral.sol\":1133:1743  for(uint i=0; i<3;i++)... */\n  iszero\n  tag_7\n  jumpi\n    /* \"contracts/ODI_with _referral.sol\":1184:1185  0 */\n  0x00\n    /* \"contracts/ODI_with _referral.sol\":1181:1182  i */\n  dup2\n    /* \"contracts/ODI_with _referral.sol\":1181:1185  i==0 */\n  eq\n    /* \"contracts/ODI_with _referral.sol\":1178:1354  if(i==0)... */\n  iszero\n  tag_9\n  jumpi\n    /* \"contracts/ODI_with _referral.sol\":1238:1241  100 */\n  0x64\n    /* \"contracts/ODI_with _referral.sol\":1217:1222  round */\n  0x01\n    /* \"contracts/ODI_with _referral.sol\":1217:1225  round[i] */\n  0x00\n    /* \"contracts/ODI_with _referral.sol\":1223:1224  i */\n  dup4\n    /* \"contracts/ODI_with _referral.sol\":1217:1225  round[i] */\n  dup2\n  mstore\n  0x20\n  add\n  swap1\n  dup2\n  mstore\n  0x20\n  add\n  0x00\n  keccak256\n    /* \"contracts/ODI_with _referral.sol\":1217:1237  round[i].upper_limit */\n  0x00\n  add\n    /* \"contracts/ODI_with _referral.sol\":1217:1241  round[i].upper_limit=100 */\n  dup2\n  swap1\n  sstore\n  pop\n    /* \"contracts/ODI_with _referral.sol\":1277:1281  5000 */\n  0x1388\n    /* \"contracts/ODI_with _referral.sol\":1259:1264  round */\n  0x01\n    /* \"contracts/ODI_with _referral.sol\":1259:1267  round[i] */\n  0x00\n    /* \"contracts/ODI_with _referral.sol\":1265:1266  i */\n  dup4\n    /* \"contracts/ODI_with _referral.sol\":1259:1267  round[i] */\n  dup2\n  mstore\n  0x20\n  add\n  swap1\n  dup2\n  mstore\n  0x20\n  add\n  0x00\n  keccak256\n    /* \"contracts/ODI_with _referral.sol\":1259:1276  round[i].quantity */\n  0x01\n  add\n    /* \"contracts/ODI_with _referral.sol\":1259:1281  round[i].quantity=5000 */\n  dup2\n  swap1\n  sstore\n  pop\n    /* \"contracts/ODI_with _referral.sol\":1320:1328  50000000 */\n  0x02faf080\n    /* \"contracts/ODI_with _referral.sol\":1299:1304  round */\n  0x01\n    /* \"contracts/ODI_with _referral.sol\":1299:1307  round[i] */\n  0x00\n    /* \"contracts/ODI_with _referral.sol\":1305:1306  i */\n  dup4\n    /* \"contracts/ODI_with _referral.sol\":1299:1307  round[i] */\n  dup2\n  mstore\n  0x20\n  add\n  swap1\n  dup2\n  mstore\n  0x20\n  add\n  0x00\n  keccak256\n    /* \"contracts/ODI_with _referral.sol\":1299:1319  round[i].total_limit */\n  0x02\n  add\n    /* \"contracts/ODI_with _referral.sol\":1299:1328  round[i].total_limit=50000000 */\n  dup2\n  swap1\n  sstore\n  pop\n    /* \"contracts/ODI_with _referral.sol\":1178:1354  if(i==0)... */\ntag_9:\n    /* \"contracts/ODI_with _referral.sol\":1373:1374  1 */\n  0x01\n    /* \"contracts/ODI_with _referral.sol\":1370:1371  i */\n  dup2\n    /* \"contracts/ODI_with _referral.sol\":1370:1374  i==1 */\n  eq\n    /* \"contracts/ODI_with _referral.sol\":1367:1543  if(i==1)... */\n  iszero\n  tag_10\n  jumpi\n    /* \"contracts/ODI_with _referral.sol\":1427:1430  500 */\n  0x01f4\n    /* \"contracts/ODI_with _referral.sol\":1406:1411  round */\n  0x01\n    /* \"contracts/ODI_with _referral.sol\":1406:1414  round[i] */\n  0x00\n    /* \"contracts/ODI_with _referral.sol\":1412:1413  i */\n  dup4\n    /* \"contracts/ODI_with _referral.sol\":1406:1414  round[i] */\n  dup2\n  mstore\n  0x20\n  add\n  swap1\n  dup2\n  mstore\n  0x20\n  add\n  0x00\n  keccak256\n    /* \"contracts/ODI_with _referral.sol\":1406:1426  round[i].upper_limit */\n  0x00\n  add\n    /* \"contracts/ODI_with _referral.sol\":1406:1430  round[i].upper_limit=500 */\n  dup2\n  swap1\n  sstore\n  pop\n    /* \"contracts/ODI_with _referral.sol\":1466:1470  2000 */\n  0x07d0\n    /* \"contracts/ODI_with _referral.sol\":1448:1453  round */\n  0x01\n    /* \"contracts/ODI_with _referral.sol\":1448:1456  round[i] */\n  0x00\n    /* \"contracts/ODI_with _referral.sol\":1454:1455  i */\n  dup4\n    /* \"contracts/ODI_with _referral.sol\":1448:1456  round[i] */\n  dup2\n  mstore\n  0x20\n  add\n  swap1\n  dup2\n  mstore\n  0x20\n  add\n  0x00\n  keccak256\n    /* \"contracts/ODI_with _referral.sol\":1448:1465  round[i].quantity */\n  0x01\n  add\n    /* \"contracts/ODI_with _referral.sol\":1448:1470  round[i].quantity=2000 */\n  dup2\n  swap1\n  sstore\n  pop\n    /* \"contracts/ODI_with _referral.sol\":1509:1517  50000000 */\n  0x02faf080\n    /* \"contracts/ODI_with _referral.sol\":1488:1493  round */\n  0x01\n    /* \"contracts/ODI_with _referral.sol\":1488:1496  round[i] */\n  0x00\n    /* \"contracts/ODI_with _referral.sol\":1494:1495  i */\n  dup4\n    /* \"contracts/ODI_with _referral.sol\":1488:1496  round[i] */\n  dup2\n  mstore\n  0x20\n  add\n  swap1\n  dup2\n  mstore\n  0x20\n  add\n  0x00\n  keccak256\n    /* \"contracts/ODI_with _referral.sol\":1488:1508  round[i].total_limit */\n  0x02\n  add\n    /* \"contracts/ODI_with _referral.sol\":1488:1517  round[i].total_limit=50000000 */\n  dup2\n  swap1\n  sstore\n  pop\n    /* \"contracts/ODI_with _referral.sol\":1367:1543  if(i==1)... */\ntag_10:\n    /* \"contracts/ODI_with _referral.sol\":1562:1563  2 */\n  0x02\n    /* \"contracts/ODI_with _referral.sol\":1559:1560  i */\n  dup2\n    /* \"contracts/ODI_with _referral.sol\":1559:1563  i==2 */\n  eq\n    /* \"contracts/ODI_with _referral.sol\":1556:1733  if(i==2)... */\n  iszero\n  tag_11\n  jumpi\n    /* \"contracts/ODI_with _referral.sol\":1616:1620  1000 */\n  0x03e8\n    /* \"contracts/ODI_with _referral.sol\":1595:1600  round */\n  0x01\n    /* \"contracts/ODI_with _referral.sol\":1595:1603  round[i] */\n  0x00\n    /* \"contracts/ODI_with _referral.sol\":1601:1602  i */\n  dup4\n    /* \"contracts/ODI_with _referral.sol\":1595:1603  round[i] */\n  dup2\n  mstore\n  0x20\n  add\n  swap1\n  dup2\n  mstore\n  0x20\n  add\n  0x00\n  keccak256\n    /* \"contracts/ODI_with _referral.sol\":1595:1615  round[i].upper_limit */\n  0x00\n  add\n    /* \"contracts/ODI_with _referral.sol\":1595:1620  round[i].upper_limit=1000 */\n  dup2\n  swap1\n  sstore\n  pop\n    /* \"contracts/ODI_with _referral.sol\":1656:1660  2000 */\n  0x07d0\n    /* \"contracts/ODI_with _referral.sol\":1638:1643  round */\n  0x01\n    /* \"contracts/ODI_with _referral.sol\":1638:1646  round[i] */\n  0x00\n    /* \"contracts/ODI_with _referral.sol\":1644:1645  i */\n  dup4\n    /* \"contracts/ODI_with _referral.sol\":1638:1646  round[i] */\n  dup2\n  mstore\n  0x20\n  add\n  swap1\n  dup2\n  mstore\n  0x20\n  add\n  0x00\n  keccak256\n    /* \"contracts/ODI_with _referral.sol\":1638:1655  round[i].quantity */\n  0x01\n  add\n    /* \"contracts/ODI_with _referral.sol\":1638:1660  round[i].quantity=2000 */\n  dup2\n  swap1\n  sstore\n  pop\n    /* \"contracts/ODI_with _referral.sol\":1699:1707  66666667 */\n  0x03f940ab\n    /* \"contracts/ODI_with _referral.sol\":1678:1683  round */\n  0x01\n    /* \"contracts/ODI_with _referral.sol\":1678:1686  round[i] */\n  0x00\n    /* \"contracts/ODI_with _referral.sol\":1684:1685  i */\n  dup4\n    /* \"contracts/ODI_with _referral.sol\":1678:1686  round[i] */\n  dup2\n  mstore\n  0x20\n  add\n  swap1\n  dup2\n  mstore\n  0x20\n  add\n  0x00\n  keccak256\n    /* \"contracts/ODI_with _referral.sol\":1678:1698  round[i].total_limit */\n  0x02\n  add\n    /* \"contracts/ODI_with _referral.sol\":1678:1707  round[i].total_limit=66666667 */\n  dup2\n  swap1\n  sstore\n  pop\n    /* \"contracts/ODI_with _referral.sol\":1556:1733  if(i==2)... */\ntag_11:\n    /* \"contracts/ODI_with _referral.sol\":1151:1154  i++ */\n  dup1\n  dup1\n  tag_12\n  swap1\n  tag_13\n  jump\t// in\ntag_12:\n  swap2\n  pop\n  pop\n    /* \"contracts/ODI_with _referral.sol\":1133:1743  for(uint i=0; i<3;i++)... */\n  jump(tag_6)\ntag_7:\n  pop\n    /* \"contracts/ODI_with _referral.sol\":971:1750  constructor(address _usdt_add, address _buy_token_add){... */\n  pop\n  pop\n    /* \"contracts/ODI_with _referral.sol\":339:7784  contract DOI{... */\n  jump(tag_14)\n    /* \"#utility.yul\":7:150   */\ntag_16:\n    /* \"#utility.yul\":64:69   */\n  0x00\n    /* \"#utility.yul\":95:101   */\n  dup2\n    /* \"#utility.yul\":89:102   */\n  mload\n    /* \"#utility.yul\":80:102   */\n  swap1\n  pop\n    /* \"#utility.yul\":111:144   */\n  tag_18\n    /* \"#utility.yul\":138:143   */\n  dup2\n    /* \"#utility.yul\":111:144   */\n  tag_19\n  jump\t// in\ntag_18:\n    /* \"#utility.yul\":7:150   */\n  swap3\n  swap2\n  pop\n  pop\n  jump\t// out\n    /* \"#utility.yul\":156:663   */\ntag_3:\n    /* \"#utility.yul\":235:241   */\n  0x00\n    /* \"#utility.yul\":243:249   */\n  dup1\n    /* \"#utility.yul\":292:294   */\n  0x40\n    /* \"#utility.yul\":280:289   */\n  dup4\n    /* \"#utility.yul\":271:278   */\n  dup6\n    /* \"#utility.yul\":267:290   */\n  sub\n    /* \"#utility.yul\":263:295   */\n  slt\n    /* \"#utility.yul\":260:379   */\n  iszero\n  tag_21\n  jumpi\n    /* \"#utility.yul\":298:377   */\n  tag_22\n  tag_23\n  jump\t// in\ntag_22:\n    /* \"#utility.yul\":260:379   */\ntag_21:\n    /* \"#utility.yul\":418:419   */\n  0x00\n    /* \"#utility.yul\":443:507   */\n  tag_24\n    /* \"#utility.yul\":499:506   */\n  dup6\n    /* \"#utility.yul\":490:496   */\n  dup3\n    /* \"#utility.yul\":479:488   */\n  dup7\n    /* \"#utility.yul\":475:497   */\n  add\n    /* \"#utility.yul\":443:507   */\n  tag_16\n  jump\t// in\ntag_24:\n    /* \"#utility.yul\":433:507   */\n  swap3\n  pop\n    /* \"#utility.yul\":389:517   */\n  pop\n    /* \"#utility.yul\":556:558   */\n  0x20\n    /* \"#utility.yul\":582:646   */\n  tag_25\n    /* \"#utility.yul\":638:645   */\n  dup6\n    /* \"#utility.yul\":629:635   */\n  dup3\n    /* \"#utility.yul\":618:627   */\n  dup7\n    /* \"#utility.yul\":614:636   */\n  add\n    /* \"#utility.yul\":582:646   */\n  tag_16\n  jump\t// in\ntag_25:\n    /* \"#utility.yul\":572:646   */\n  swap2\n  pop\n    /* \"#utility.yul\":527:656   */\n  pop\n    /* \"#utility.yul\":156:663   */\n  swap3\n  pop\n  swap3\n  swap1\n  pop\n  jump\t// out\n    /* \"#utility.yul\":750:846   */\ntag_28:\n    /* \"#utility.yul\":787:794   */\n  0x00\n    /* \"#utility.yul\":816:840   */\n  tag_30\n    /* \"#utility.yul\":834:839   */\n  dup3\n    /* \"#utility.yul\":816:840   */\n  tag_31\n  jump\t// in\ntag_30:\n    /* \"#utility.yul\":805:840   */\n  swap1\n  pop\n    /* \"#utility.yul\":750:846   */\n  swap2\n  swap1\n  pop\n  jump\t// out\n    /* \"#utility.yul\":852:978   */\ntag_31:\n    /* \"#utility.yul\":889:896   */\n  0x00\n    /* \"#utility.yul\":929:971   */\n  0xffffffffffffffffffffffffffffffffffffffff\n    /* \"#utility.yul\":922:927   */\n  dup3\n    /* \"#utility.yul\":918:972   */\n  and\n    /* \"#utility.yul\":907:972   */\n  swap1\n  pop\n    /* \"#utility.yul\":852:978   */\n  swap2\n  swap1\n  pop\n  jump\t// out\n    /* \"#utility.yul\":984:1061   */\ntag_33:\n    /* \"#utility.yul\":1021:1028   */\n  0x00\n    /* \"#utility.yul\":1050:1055   */\n  dup2\n    /* \"#utility.yul\":1039:1055   */\n  swap1\n  pop\n    /* \"#utility.yul\":984:1061   */\n  swap2\n  swap1\n  pop\n  jump\t// out\n    /* \"#utility.yul\":1067:1300   */\ntag_13:\n    /* \"#utility.yul\":1106:1109   */\n  0x00\n    /* \"#utility.yul\":1129:1153   */\n  tag_36\n    /* \"#utility.yul\":1147:1152   */\n  dup3\n    /* \"#utility.yul\":1129:1153   */\n  tag_33\n  jump\t// in\ntag_36:\n    /* \"#utility.yul\":1120:1153   */\n  swap2\n  pop\n    /* \"#utility.yul\":1175:1241   */\n  0xffffffffffffffffffffffffffffffffffffffffffffffffffffffffffffffff\n    /* \"#utility.yul\":1168:1173   */\n  dup3\n    /* \"#utility.yul\":1165:1242   */\n  eq\n    /* \"#utility.yul\":1162:1265   */\n  iszero\n  tag_37\n  jumpi\n    /* \"#utility.yul\":1245:1263   */\n  tag_38\n  tag_39\n  jump\t// in\ntag_38:\n    /* \"#utility.yul\":1162:1265   */\ntag_37:\n    /* \"#utility.yul\":1292:1293   */\n  0x01\n    /* \"#utility.yul\":1285:1290   */\n  dup3\n    /* \"#utility.yul\":1281:1294   */\n  add\n    /* \"#utility.yul\":1274:1294   */\n  swap1\n  pop\n    /* \"#utility.yul\":1067:1300   */\n  swap2\n  swap1\n  pop\n  jump\t// out\n    /* \"#utility.yul\":1306:1486   */\ntag_39:\n    /* \"#utility.yul\":1354:1431   */\n  0x4e487b7100000000000000000000000000000000000000000000000000000000\n    /* \"#utility.yul\":1351:1352   */\n  0x00\n    /* \"#utility.yul\":1344:1432   */\n  mstore\n    /* \"#utility.yul\":1451:1455   */\n  0x11\n    /* \"#utility.yul\":1448:1449   */\n  0x04\n    /* \"#utility.yul\":1441:1456   */\n  mstore\n    /* \"#utility.yul\":1475:1479   */\n  0x24\n    /* \"#utility.yul\":1472:1473   */\n  0x00\n    /* \"#utility.yul\":1465:1480   */\n  revert\n    /* \"#utility.yul\":1615:1732   */\ntag_23:\n    /* \"#utility.yul\":1724:1725   */\n  0x00\n    /* \"#utility.yul\":1721:1722   */\n  dup1\n    /* \"#utility.yul\":1714:1726   */\n  revert\n    /* \"#utility.yul\":1738:1860   */\ntag_19:\n    /* \"#utility.yul\":1811:1835   */\n  tag_45\n    /* \"#utility.yul\":1829:1834   */\n  dup2\n    /* \"#utility.yul\":1811:1835   */\n  tag_28\n  jump\t// in\ntag_45:\n    /* \"#utility.yul\":1804:1809   */\n  dup2\n    /* \"#utility.yul\":1801:1836   */\n  eq\n    /* \"#utility.yul\":1791:1854   */\n  tag_46\n  jumpi\n    /* \"#utility.yul\":1850:1851   */\n  0x00\n    /* \"#utility.yul\":1847:1848   */\n  dup1\n    /* \"#utility.yul\":1840:1852   */\n  revert\n    /* \"#utility.yul\":1791:1854   */\ntag_46:\n    /* \"#utility.yul\":1738:1860   */\n  pop\n  jump\t// out\n    /* \"contracts/ODI_with _referral.sol\":339:7784  contract DOI{... */\ntag_14:\n  dataSize(sub_0)\n  dup1\n  dataOffset(sub_0)\n  0x00\n  codecopy\n  0x00\n  return\nstop\n\nsub_0: assembly {\n        /* \"contracts/ODI_with _referral.sol\":339:7784  contract DOI{... */\n      mstore(0x40, 0x80)\n      callvalue\n      dup1\n      iszero\n      tag_1\n      jumpi\n      0x00\n      dup1\n      revert\n    tag_1:\n      pop\n      jumpi(tag_2, lt(calldatasize, 0x04))\n      shr(0xe0, calldataload(0x00))\n      dup1\n      0x7d43577c\n      gt\n      tag_18\n      jumpi\n      dup1\n      0xc68d4a38\n      gt\n      tag_19\n      jumpi\n      dup1\n      0xc68d4a38\n      eq\n      tag_14\n      jumpi\n      dup1\n      0xd1869d89\n      eq\n      tag_15\n      jumpi\n      dup1\n      0xdf075292\n      eq\n      tag_16\n      jumpi\n      dup1\n      0xf2fde38b\n      eq\n      tag_17\n      jumpi\n      jump(tag_2)\n    tag_19:\n      dup1\n      0x7d43577c\n      eq\n      tag_10\n      jumpi\n      dup1\n      0x81e7e20e\n      eq\n      tag_11\n      jumpi\n      dup1\n      0x8da5cb5b\n      eq\n      tag_12\n      jumpi\n      dup1\n      0x935f3111\n      eq\n      tag_13\n      jumpi\n      jump(tag_2)\n    tag_18:\n      dup1\n      0x44476bfb\n      gt\n      tag_20\n      jumpi\n      dup1\n      0x44476bfb\n      eq\n      tag_6\n      jumpi\n      dup1\n      0x4e70b1dc\n      eq\n      tag_7\n      jumpi\n      dup1\n      0x6f75c969\n      eq\n      tag_8\n      jumpi\n      dup1\n      0x783c94a7\n      eq\n      tag_9\n      jumpi\n      jump(tag_2)\n    tag_20:\n      dup1\n      0x1fef3056\n      eq\n      tag_3\n      jumpi\n      dup1\n      0x2f8bf52c\n      eq\n      tag_4\n      jumpi\n      dup1\n      0x34d5f37b\n      eq\n      tag_5\n      jumpi\n    tag_2:\n      0x00\n      dup1\n      revert\n        /* \"contracts/ODI_with _referral.sol\":1839:1866  address public usdt_address */\n    tag_3:\n      tag_21\n      tag_22\n      jump\t// in\n    tag_21:\n      mload(0x40)\n      tag_23\n      swap2\n      swap1\n      tag_24\n      jump\t// in\n    tag_23:\n      mload(0x40)\n      dup1\n      swap2\n      sub\n      swap1\n      return\n        /* \"contracts/ODI_with _referral.sol\":5263:6096  function claim_bought_tokens(uint _num) external returns(bool)... */\n    tag_4:\n      tag_25\n      0x04\n      dup1\n      calldatasize\n      sub\n      dup2\n      add\n      swap1\n      tag_26\n      swap2\n      swap1\n      tag_27\n      jump\t// in\n    tag_26:\n      tag_28\n      jump\t// in\n    tag_25:\n      mload(0x40)\n      tag_29\n      swap2\n      swap1\n      tag_30\n      jump\t// in\n    tag_29:\n      mload(0x40)\n      dup1\n      swap2\n      sub\n      swap1\n      return\n        /* \"contracts/ODI_with _referral.sol\":1801:1833  mapping(uint=>Data) public round */\n    tag_5:\n      tag_31\n      0x04\n      dup1\n      calldatasize\n      sub\n      dup2\n      add\n      swap1\n      tag_32\n      swap2\n      swap1\n      tag_27\n      jump\t// in\n    tag_32:\n      tag_33\n      jump\t// in\n    tag_31:\n      mload(0x40)\n      tag_34\n      swap4\n      swap3\n      swap2\n      swap1\n      tag_35\n      jump\t// in\n    tag_34:\n      mload(0x40)\n      dup1\n      swap2\n      sub\n      swap1\n      return\n        /* \"contracts/ODI_with _referral.sol\":6102:7137  function getAll_Buyings() public view returns (allInvestments[] memory) { //this function will return the all investments of the investor and withware date... */\n    tag_6:\n      tag_36\n      tag_37\n      jump\t// in\n    tag_36:\n      mload(0x40)\n      tag_38\n      swap2\n      swap1\n      tag_39\n      jump\t// in\n    tag_38:\n      mload(0x40)\n      dup1\n      swap2\n      sub\n      swap1\n      return\n        /* \"contracts/ODI_with _referral.sol\":1959:1974  uint public num */\n    tag_7:\n      tag_40\n      tag_41\n      jump\t// in\n    tag_40:\n      mload(0x40)\n      tag_42\n      swap2\n      swap1\n      tag_43\n      jump\t// in\n    tag_42:\n      mload(0x40)\n      dup1\n      swap2\n      sub\n      swap1\n      return\n        /* \"contracts/ODI_with _referral.sol\":1872:1900  address public buy_token_add */\n    tag_8:\n      tag_44\n      tag_45\n      jump\t// in\n    tag_44:\n      mload(0x40)\n      tag_46\n      swap2\n      swap1\n      tag_24\n      jump\t// in\n    tag_46:\n      mload(0x40)\n      dup1\n      swap2\n      sub\n      swap1\n      return\n        /* \"contracts/ODI_with _referral.sol\":4850:5257  function claim_ref_tokens() external returns(bool)... */\n    tag_9:\n      tag_47\n      tag_48\n      jump\t// in\n    tag_47:\n      mload(0x40)\n      tag_49\n      swap2\n      swap1\n      tag_30\n      jump\t// in\n    tag_49:\n      mload(0x40)\n      dup1\n      swap2\n      sub\n      swap1\n      return\n        /* \"contracts/ODI_with _referral.sol\":7144:7268  function get_claim_ref_tokens() external view returns(uint)... */\n    tag_10:\n      tag_50\n      tag_51\n      jump\t// in\n    tag_50:\n      mload(0x40)\n      tag_52\n      swap2\n      swap1\n      tag_43\n      jump\t// in\n    tag_52:\n      mload(0x40)\n      dup1\n      swap2\n      sub\n      swap1\n      return\n        /* \"contracts/ODI_with _referral.sol\":1756:1795  mapping(address=>user_info) public user */\n    tag_11:\n      tag_53\n      0x04\n      dup1\n      calldatasize\n      sub\n      dup2\n      add\n      swap1\n      tag_54\n      swap2\n      swap1\n      tag_55\n      jump\t// in\n    tag_54:\n      tag_56\n      jump\t// in\n    tag_53:\n      mload(0x40)\n      tag_57\n      swap6\n      swap5\n      swap4\n      swap3\n      swap2\n      swap1\n      tag_58\n      jump\t// in\n    tag_57:\n      mload(0x40)\n      dup1\n      swap2\n      sub\n      swap1\n      return\n        /* \"contracts/ODI_with _referral.sol\":1906:1926  address public owner */\n    tag_12:\n      tag_59\n      tag_60\n      jump\t// in\n    tag_59:\n      mload(0x40)\n      tag_61\n      swap2\n      swap1\n      tag_24\n      jump\t// in\n    tag_61:\n      mload(0x40)\n      dup1\n      swap2\n      sub\n      swap1\n      return\n        /* \"contracts/ODI_with _referral.sol\":7274:7398  function get_claimable_tokens() external view returns(uint)... */\n    tag_13:\n      tag_62\n      tag_63\n      jump\t// in\n    tag_62:\n      mload(0x40)\n      tag_64\n      swap2\n      swap1\n      tag_43\n      jump\t// in\n    tag_64:\n      mload(0x40)\n      dup1\n      swap2\n      sub\n      swap1\n      return\n        /* \"contracts/ODI_with _referral.sol\":2964:4844  function buy_tokens(address _referral) external returns(bool){... */\n    tag_14:\n      tag_65\n      0x04\n      dup1\n      calldatasize\n      sub\n      dup2\n      add\n      swap1\n      tag_66\n      swap2\n      swap1\n      tag_55\n      jump\t// in\n    tag_66:\n      tag_67\n      jump\t// in\n    tag_65:\n      mload(0x40)\n      tag_68\n      swap2\n      swap1\n      tag_30\n      jump\t// in\n    tag_68:\n      mload(0x40)\n      dup1\n      swap2\n      sub\n      swap1\n      return\n        /* \"contracts/ODI_with _referral.sol\":7404:7608  function change_upperLimit(uint _upper_limit,uint _round)  public... */\n    tag_15:\n      tag_69\n      0x04\n      dup1\n      calldatasize\n      sub\n      dup2\n      add\n      swap1\n      tag_70\n      swap2\n      swap1\n      tag_71\n      jump\t// in\n    tag_70:\n      tag_72\n      jump\t// in\n    tag_69:\n      stop\n        /* \"contracts/ODI_with _referral.sol\":1932:1952  uint public time_end */\n    tag_16:\n      tag_73\n      tag_74\n      jump\t// in\n    tag_73:\n      mload(0x40)\n      tag_75\n      swap2\n      swap1\n      tag_43\n      jump\t// in\n    tag_75:\n      mload(0x40)\n      dup1\n      swap2\n      sub\n      swap1\n      return\n        /* \"contracts/ODI_with _referral.sol\":7614:7772  function transferOwnership(address _owner)  public... */\n    tag_17:\n      tag_76\n      0x04\n      dup1\n      calldatasize\n      sub\n      dup2\n      add\n      swap1\n      tag_77\n      swap2\n      swap1\n      tag_55\n      jump\t// in\n    tag_77:\n      tag_78\n      jump\t// in\n    tag_76:\n      stop\n        /* \"contracts/ODI_with _referral.sol\":1839:1866  address public usdt_address */\n    tag_22:\n      0x02\n      0x00\n      swap1\n      sload\n      swap1\n      0x0100\n      exp\n      swap1\n      div\n      0xffffffffffffffffffffffffffffffffffffffff\n      and\n      dup2\n      jump\t// out\n        /* \"contracts/ODI_with _referral.sol\":5263:6096  function claim_bought_tokens(uint _num) external returns(bool)... */\n    tag_28:\n        /* \"contracts/ODI_with _referral.sol\":5320:5324  bool */\n      0x00\n        /* \"contracts/ODI_with _referral.sol\":5397:5398  0 */\n      dup1\n        /* \"contracts/ODI_with _referral.sol\":5348:5352  user */\n      0x00\n        /* \"contracts/ODI_with _referral.sol\":5348:5364  user[msg.sender] */\n      dup1\n        /* \"contracts/ODI_with _referral.sol\":5353:5363  msg.sender */\n      caller\n        /* \"contracts/ODI_with _referral.sol\":5348:5364  user[msg.sender] */\n      0xffffffffffffffffffffffffffffffffffffffff\n      and\n      0xffffffffffffffffffffffffffffffffffffffff\n      and\n      dup2\n      mstore\n      0x20\n      add\n      swap1\n      dup2\n      mstore\n      0x20\n      add\n      0x00\n      keccak256\n        /* \"contracts/ODI_with _referral.sol\":5348:5375  user[msg.sender].investment */\n      0x00\n      add\n        /* \"contracts/ODI_with _referral.sol\":5348:5381  user[msg.sender].investment[_num] */\n      0x00\n        /* \"contracts/ODI_with _referral.sol\":5376:5380  _num */\n      dup5\n        /* \"contracts/ODI_with _referral.sol\":5348:5381  user[msg.sender].investment[_num] */\n      dup2\n      mstore\n      0x20\n      add\n      swap1\n      dup2\n      mstore\n      0x20\n      add\n      0x00\n      keccak256\n        /* \"contracts/ODI_with _referral.sol\":5348:5396  user[msg.sender].investment[_num].investedAmount */\n      0x00\n      add\n      sload\n        /* \"contracts/ODI_with _referral.sol\":5348:5398  user[msg.sender].investment[_num].investedAmount>0 */\n      gt\n        /* \"contracts/ODI_with _referral.sol\":5340:5431  require(user[msg.sender].investment[_num].investedAmount>0,\"you dont have tokens to claim\") */\n      tag_80\n      jumpi\n      mload(0x40)\n      0x08c379a000000000000000000000000000000000000000000000000000000000\n      dup2\n      mstore\n      0x04\n      add\n      tag_81\n      swap1\n      tag_82\n      jump\t// in\n    tag_81:\n      mload(0x40)\n      dup1\n      swap2\n      sub\n      swap1\n      revert\n    tag_80:\n        /* \"contracts/ODI_with _referral.sol\":5649:5650  0 */\n      0x00\n        /* \"contracts/ODI_with _referral.sol\":5627:5632  round */\n      0x01\n        /* \"contracts/ODI_with _referral.sol\":5627:5635  round[2] */\n      0x00\n        /* \"contracts/ODI_with _referral.sol\":5633:5634  2 */\n      0x02\n        /* \"contracts/ODI_with _referral.sol\":5627:5635  round[2] */\n      dup2\n      mstore\n      0x20\n      add\n      swap1\n      dup2\n      mstore\n      0x20\n      add\n      0x00\n      keccak256\n        /* \"contracts/ODI_with _referral.sol\":5627:5647  round[2].total_limit */\n      0x02\n      add\n      sload\n        /* \"contracts/ODI_with _referral.sol\":5627:5650  round[2].total_limit==0 */\n      eq\n        /* \"contracts/ODI_with _referral.sol\":5627:5666  round[2].total_limit==0 && time_end > 0 */\n      dup1\n      iszero\n      tag_83\n      jumpi\n      pop\n        /* \"contracts/ODI_with _referral.sol\":5665:5666  0 */\n      0x00\n        /* \"contracts/ODI_with _referral.sol\":5654:5662  time_end */\n      sload(0x05)\n        /* \"contracts/ODI_with _referral.sol\":5654:5666  time_end > 0 */\n      gt\n        /* \"contracts/ODI_with _referral.sol\":5627:5666  round[2].total_limit==0 && time_end > 0 */\n    tag_83:\n        /* \"contracts/ODI_with _referral.sol\":5627:5696  round[2].total_limit==0 && time_end > 0 && time_end > block.timestamp */\n      dup1\n      iszero\n      tag_84\n      jumpi\n      pop\n        /* \"contracts/ODI_with _referral.sol\":5681:5696  block.timestamp */\n      timestamp\n        /* \"contracts/ODI_with _referral.sol\":5670:5678  time_end */\n      sload(0x05)\n        /* \"contracts/ODI_with _referral.sol\":5670:5696  time_end > block.timestamp */\n      gt\n        /* \"contracts/ODI_with _referral.sol\":5627:5696  round[2].total_limit==0 && time_end > 0 && time_end > block.timestamp */\n    tag_84:\n        /* \"contracts/ODI_with _referral.sol\":5619:5697  require(round[2].total_limit==0 && time_end > 0 && time_end > block.timestamp) */\n      tag_85\n      jumpi\n      0x00\n      dup1\n      revert\n    tag_85:\n        /* \"contracts/ODI_with _referral.sol\":5716:5720  user */\n      0x00\n        /* \"contracts/ODI_with _referral.sol\":5716:5732  user[msg.sender] */\n      dup1\n        /* \"contracts/ODI_with _referral.sol\":5721:5731  msg.sender */\n      caller\n        /* \"contracts/ODI_with _referral.sol\":5716:5732  user[msg.sender] */\n      0xffffffffffffffffffffffffffffffffffffffff\n      and\n      0xffffffffffffffffffffffffffffffffffffffff\n      and\n      dup2\n      mstore\n      0x20\n      add\n      swap1\n      dup2\n      mstore\n      0x20\n      add\n      0x00\n      keccak256\n        /* \"contracts/ODI_with _referral.sol\":5716:5743  user[msg.sender].investment */\n      0x00\n      add\n        /* \"contracts/ODI_with _referral.sol\":5716:5749  user[msg.sender].investment[_num] */\n      0x00\n        /* \"contracts/ODI_with _referral.sol\":5744:5748  _num */\n      dup4\n        /* \"contracts/ODI_with _referral.sol\":5716:5749  user[msg.sender].investment[_num] */\n      dup2\n      mstore\n      0x20\n      add\n      swap1\n      dup2\n      mstore\n      0x20\n      add\n      0x00\n      keccak256\n        /* \"contracts/ODI_with _referral.sol\":5716:5757  user[msg.sender].investment[_num].claimed */\n      0x05\n      add\n      0x00\n      swap1\n      sload\n      swap1\n      0x0100\n      exp\n      swap1\n      div\n      0xff\n      and\n        /* \"contracts/ODI_with _referral.sol\":5715:5757  !user[msg.sender].investment[_num].claimed */\n      iszero\n        /* \"contracts/ODI_with _referral.sol\":5707:5804  require(!user[msg.sender].investment[_num].claimed,\"investment claim time time is not completed\") */\n      tag_86\n      jumpi\n      mload(0x40)\n      0x08c379a000000000000000000000000000000000000000000000000000000000\n      dup2\n      mstore\n      0x04\n      add\n      tag_87\n      swap1\n      tag_88\n      jump\t// in\n    tag_87:\n      mload(0x40)\n      dup1\n      swap2\n      sub\n      swap1\n      revert\n    tag_86:\n        /* \"contracts/ODI_with _referral.sol\":5820:5833  buy_token_add */\n      0x03\n      0x00\n      swap1\n      sload\n      swap1\n      0x0100\n      exp\n      swap1\n      div\n      0xffffffffffffffffffffffffffffffffffffffff\n      and\n        /* \"contracts/ODI_with _referral.sol\":5815:5843  USDT(buy_token_add).transfer */\n      0xffffffffffffffffffffffffffffffffffffffff\n      and\n      0xa9059cbb\n        /* \"contracts/ODI_with _referral.sol\":5844:5854  msg.sender */\n      caller\n        /* \"contracts/ODI_with _referral.sol\":5906:5912  10**18 */\n      0x0de0b6b3a7640000\n        /* \"contracts/ODI_with _referral.sol\":5856:5860  user */\n      0x00\n        /* \"contracts/ODI_with _referral.sol\":5856:5872  user[msg.sender] */\n      dup1\n        /* \"contracts/ODI_with _referral.sol\":5861:5871  msg.sender */\n      caller\n        /* \"contracts/ODI_with _referral.sol\":5856:5872  user[msg.sender] */\n      0xffffffffffffffffffffffffffffffffffffffff\n      and\n      0xffffffffffffffffffffffffffffffffffffffff\n      and\n      dup2\n      mstore\n      0x20\n      add\n      swap1\n      dup2\n      mstore\n      0x20\n      add\n      0x00\n      keccak256\n        /* \"contracts/ODI_with _referral.sol\":5856:5883  user[msg.sender].investment */\n      0x00\n      add\n        /* \"contracts/ODI_with _referral.sol\":5856:5889  user[msg.sender].investment[_num] */\n      0x00\n        /* \"contracts/ODI_with _referral.sol\":5884:5888  _num */\n      dup8\n        /* \"contracts/ODI_with _referral.sol\":5856:5889  user[msg.sender].investment[_num] */\n      dup2\n      mstore\n      0x20\n      add\n      swap1\n      dup2\n      mstore\n      0x20\n      add\n      0x00\n      keccak256\n        /* \"contracts/ODI_with _referral.sol\":5856:5904  user[msg.sender].investment[_num].investedAmount */\n      0x00\n      add\n      sload\n        /* \"contracts/ODI_with _referral.sol\":5855:5912  (user[msg.sender].investment[_num].investedAmount)*10**18 */\n      tag_89\n      swap2\n      swap1\n      tag_90\n      jump\t// in\n    tag_89:\n        /* \"contracts/ODI_with _referral.sol\":5815:5913  USDT(buy_token_add).transfer(msg.sender,(user[msg.sender].investment[_num].investedAmount)*10**18) */\n      mload(0x40)\n      dup4\n      0xffffffff\n      and\n      0xe0\n      shl\n      dup2\n      mstore\n      0x04\n      add\n      tag_91\n      swap3\n      swap2\n      swap1\n      tag_92\n      jump\t// in\n    tag_91:\n      0x20\n      mload(0x40)\n      dup1\n      dup4\n      sub\n      dup2\n      0x00\n      dup8\n      dup1\n      extcodesize\n      iszero\n      dup1\n      iszero\n      tag_93\n      jumpi\n      0x00\n      dup1\n      revert\n    tag_93:\n      pop\n      gas\n      call\n      iszero\n      dup1\n      iszero\n      tag_95\n      jumpi\n      returndatasize\n      0x00\n      dup1\n      returndatacopy\n      revert(0x00, returndatasize)\n    tag_95:\n      pop\n      pop\n      pop\n      pop\n      mload(0x40)\n      returndatasize\n      not(0x1f)\n      0x1f\n      dup3\n      add\n      and\n      dup3\n      add\n      dup1\n      0x40\n      mstore\n      pop\n      dup2\n      add\n      swap1\n      tag_96\n      swap2\n      swap1\n      tag_97\n      jump\t// in\n    tag_96:\n      pop\n        /* \"contracts/ODI_with _referral.sol\":5965:5969  true */\n      0x01\n        /* \"contracts/ODI_with _referral.sol\":5923:5927  user */\n      0x00\n        /* \"contracts/ODI_with _referral.sol\":5923:5939  user[msg.sender] */\n      dup1\n        /* \"contracts/ODI_with _referral.sol\":5928:5938  msg.sender */\n      caller\n        /* \"contracts/ODI_with _referral.sol\":5923:5939  user[msg.sender] */\n      0xffffffffffffffffffffffffffffffffffffffff\n      and\n      0xffffffffffffffffffffffffffffffffffffffff\n      and\n      dup2\n      mstore\n      0x20\n      add\n      swap1\n      dup2\n      mstore\n      0x20\n      add\n      0x00\n      keccak256\n        /* \"contracts/ODI_with _referral.sol\":5923:5950  user[msg.sender].investment */\n      0x00\n      add\n        /* \"contracts/ODI_with _referral.sol\":5923:5956  user[msg.sender].investment[_num] */\n      0x00\n        /* \"contracts/ODI_with _referral.sol\":5951:5955  _num */\n      dup5\n        /* \"contracts/ODI_with _referral.sol\":5923:5956  user[msg.sender].investment[_num] */\n      dup2\n      mstore\n      0x20\n      add\n      swap1\n      dup2\n      mstore\n      0x20\n      add\n      0x00\n      keccak256\n        /* \"contracts/ODI_with _referral.sol\":5923:5964  user[msg.sender].investment[_num].claimed */\n      0x05\n      add\n      0x00\n        /* \"contracts/ODI_with _referral.sol\":5923:5969  user[msg.sender].investment[_num].claimed=true */\n      0x0100\n      exp\n      dup2\n      sload\n      dup2\n      0xff\n      mul\n      not\n      and\n      swap1\n      dup4\n      iszero\n      iszero\n      mul\n      or\n      swap1\n      sstore\n      pop\n        /* \"contracts/ODI_with _referral.sol\":6017:6021  user */\n      0x00\n        /* \"contracts/ODI_with _referral.sol\":6017:6033  user[msg.sender] */\n      dup1\n        /* \"contracts/ODI_with _referral.sol\":6022:6032  msg.sender */\n      caller\n        /* \"contracts/ODI_with _referral.sol\":6017:6033  user[msg.sender] */\n      0xffffffffffffffffffffffffffffffffffffffff\n      and\n      0xffffffffffffffffffffffffffffffffffffffff\n      and\n      dup2\n      mstore\n      0x20\n      add\n      swap1\n      dup2\n      mstore\n      0x20\n      add\n      0x00\n      keccak256\n        /* \"contracts/ODI_with _referral.sol\":6017:6044  user[msg.sender].investment */\n      0x00\n      add\n        /* \"contracts/ODI_with _referral.sol\":6017:6050  user[msg.sender].investment[_num] */\n      0x00\n        /* \"contracts/ODI_with _referral.sol\":6045:6049  _num */\n      dup4\n        /* \"contracts/ODI_with _referral.sol\":6017:6050  user[msg.sender].investment[_num] */\n      dup2\n      mstore\n      0x20\n      add\n      swap1\n      dup2\n      mstore\n      0x20\n      add\n      0x00\n      keccak256\n        /* \"contracts/ODI_with _referral.sol\":6017:6065  user[msg.sender].investment[_num].investedAmount */\n      0x00\n      add\n      sload\n        /* \"contracts/ODI_with _referral.sol\":5979:5983  user */\n      0x00\n        /* \"contracts/ODI_with _referral.sol\":5979:5995  user[msg.sender] */\n      dup1\n        /* \"contracts/ODI_with _referral.sol\":5984:5994  msg.sender */\n      caller\n        /* \"contracts/ODI_with _referral.sol\":5979:5995  user[msg.sender] */\n      0xffffffffffffffffffffffffffffffffffffffff\n      and\n      0xffffffffffffffffffffffffffffffffffffffff\n      and\n      dup2\n      mstore\n      0x20\n      add\n      swap1\n      dup2\n      mstore\n      0x20\n      add\n      0x00\n      keccak256\n        /* \"contracts/ODI_with _referral.sol\":5979:6015  user[msg.sender].tokens_for_claiming */\n      0x01\n      add\n      0x00\n        /* \"contracts/ODI_with _referral.sol\":5979:6065  user[msg.sender].tokens_for_claiming-=user[msg.sender].investment[_num].investedAmount */\n      dup3\n      dup3\n      sload\n      tag_98\n      swap2\n      swap1\n      tag_99\n      jump\t// in\n    tag_98:\n      swap3\n      pop\n      pop\n      dup2\n      swap1\n      sstore\n      pop\n        /* \"contracts/ODI_with _referral.sol\":6085:6089  true */\n      0x01\n        /* \"contracts/ODI_with _referral.sol\":6078:6089  return true */\n      swap1\n      pop\n        /* \"contracts/ODI_with _referral.sol\":5263:6096  function claim_bought_tokens(uint _num) external returns(bool)... */\n      swap2\n      swap1\n      pop\n      jump\t// out\n        /* \"contracts/ODI_with _referral.sol\":1801:1833  mapping(uint=>Data) public round */\n    tag_33:\n      mstore(0x20, 0x01)\n      dup1\n      0x00\n      mstore\n      keccak256(0x00, 0x40)\n      0x00\n      swap2\n      pop\n      swap1\n      pop\n      dup1\n      0x00\n      add\n      sload\n      swap1\n      dup1\n      0x01\n      add\n      sload\n      swap1\n      dup1\n      0x02\n      add\n      sload\n      swap1\n      pop\n      dup4\n      jump\t// out\n        /* \"contracts/ODI_with _referral.sol\":6102:7137  function getAll_Buyings() public view returns (allInvestments[] memory) { //this function will return the all investments of the investor and withware date... */\n    tag_37:\n        /* \"contracts/ODI_with _referral.sol\":6149:6172  allInvestments[] memory */\n      0x60\n        /* \"contracts/ODI_with _referral.sol\":6270:6279  uint _num */\n      0x00\n        /* \"contracts/ODI_with _referral.sol\":6282:6286  user */\n      dup1\n        /* \"contracts/ODI_with _referral.sol\":6282:6298  user[msg.sender] */\n      0x00\n        /* \"contracts/ODI_with _referral.sol\":6287:6297  msg.sender */\n      caller\n        /* \"contracts/ODI_with _referral.sol\":6282:6298  user[msg.sender] */\n      0xffffffffffffffffffffffffffffffffffffffff\n      and\n      0xffffffffffffffffffffffffffffffffffffffff\n      and\n      dup2\n      mstore\n      0x20\n      add\n      swap1\n      dup2\n      mstore\n      0x20\n      add\n      0x00\n      keccak256\n        /* \"contracts/ODI_with _referral.sol\":6282:6316  user[msg.sender].total_investments */\n      0x05\n      add\n      sload\n        /* \"contracts/ODI_with _referral.sol\":6270:6316  uint _num = user[msg.sender].total_investments */\n      swap1\n      pop\n        /* \"contracts/ODI_with _referral.sol\":6330:6339  uint temp */\n      0x00\n        /* \"contracts/ODI_with _referral.sol\":6353:6370  uint currentIndex */\n      dup1\n        /* \"contracts/ODI_with _referral.sol\":6401:6407  uint i */\n      0x00\n        /* \"contracts/ODI_with _referral.sol\":6397:6609  for(uint i=0;i<_num;i++)... */\n    tag_101:\n        /* \"contracts/ODI_with _referral.sol\":6412:6416  _num */\n      dup4\n        /* \"contracts/ODI_with _referral.sol\":6410:6411  i */\n      dup2\n        /* \"contracts/ODI_with _referral.sol\":6410:6416  i<_num */\n      lt\n        /* \"contracts/ODI_with _referral.sol\":6397:6609  for(uint i=0;i<_num;i++)... */\n      iszero\n      tag_102\n      jumpi\n        /* \"contracts/ODI_with _referral.sol\":6503:6504  0 */\n      0x00\n        /* \"contracts/ODI_with _referral.sol\":6455:6459  user */\n      dup1\n        /* \"contracts/ODI_with _referral.sol\":6455:6471  user[msg.sender] */\n      0x00\n        /* \"contracts/ODI_with _referral.sol\":6460:6470  msg.sender */\n      caller\n        /* \"contracts/ODI_with _referral.sol\":6455:6471  user[msg.sender] */\n      0xffffffffffffffffffffffffffffffffffffffff\n      and\n      0xffffffffffffffffffffffffffffffffffffffff\n      and\n      dup2\n      mstore\n      0x20\n      add\n      swap1\n      dup2\n      mstore\n      0x20\n      add\n      0x00\n      keccak256\n        /* \"contracts/ODI_with _referral.sol\":6455:6482  user[msg.sender].investment */\n      0x00\n      add\n        /* \"contracts/ODI_with _referral.sol\":6455:6485  user[msg.sender].investment[i] */\n      0x00\n        /* \"contracts/ODI_with _referral.sol\":6483:6484  i */\n      dup4\n        /* \"contracts/ODI_with _referral.sol\":6455:6485  user[msg.sender].investment[i] */\n      dup2\n      mstore\n      0x20\n      add\n      swap1\n      dup2\n      mstore\n      0x20\n      add\n      0x00\n      keccak256\n        /* \"contracts/ODI_with _referral.sol\":6455:6500  user[msg.sender].investment[i].investedAmount */\n      0x00\n      add\n      sload\n        /* \"contracts/ODI_with _referral.sol\":6455:6504  user[msg.sender].investment[i].investedAmount > 0 */\n      gt\n        /* \"contracts/ODI_with _referral.sol\":6455:6547  user[msg.sender].investment[i].investedAmount > 0 && !user[msg.sender].investment[i].claimed */\n      dup1\n      iszero\n      tag_104\n      jumpi\n      pop\n        /* \"contracts/ODI_with _referral.sol\":6509:6513  user */\n      0x00\n        /* \"contracts/ODI_with _referral.sol\":6509:6525  user[msg.sender] */\n      dup1\n        /* \"contracts/ODI_with _referral.sol\":6514:6524  msg.sender */\n      caller\n        /* \"contracts/ODI_with _referral.sol\":6509:6525  user[msg.sender] */\n      0xffffffffffffffffffffffffffffffffffffffff\n      and\n      0xffffffffffffffffffffffffffffffffffffffff\n      and\n      dup2\n      mstore\n      0x20\n      add\n      swap1\n      dup2\n      mstore\n      0x20\n      add\n      0x00\n      keccak256\n        /* \"contracts/ODI_with _referral.sol\":6509:6536  user[msg.sender].investment */\n      0x00\n      add\n        /* \"contracts/ODI_with _referral.sol\":6509:6539  user[msg.sender].investment[i] */\n      0x00\n        /* \"contracts/ODI_with _referral.sol\":6537:6538  i */\n      dup3\n        /* \"contracts/ODI_with _referral.sol\":6509:6539  user[msg.sender].investment[i] */\n      dup2\n      mstore\n      0x20\n      add\n      swap1\n      dup2\n      mstore\n      0x20\n      add\n      0x00\n      keccak256\n        /* \"contracts/ODI_with _referral.sol\":6509:6547  user[msg.sender].investment[i].claimed */\n      0x05\n      add\n      0x00\n      swap1\n      sload\n      swap1\n      0x0100\n      exp\n      swap1\n      div\n      0xff\n      and\n        /* \"contracts/ODI_with _referral.sol\":6508:6547  !user[msg.sender].investment[i].claimed */\n      iszero\n        /* \"contracts/ODI_with _referral.sol\":6455:6547  user[msg.sender].investment[i].investedAmount > 0 && !user[msg.sender].investment[i].claimed */\n    tag_104:\n        /* \"contracts/ODI_with _referral.sol\":6451:6594  if( user[msg.sender].investment[i].investedAmount > 0 && !user[msg.sender].investment[i].claimed ){... */\n      iszero\n      tag_105\n      jumpi\n        /* \"contracts/ODI_with _referral.sol\":6570:6576  temp++ */\n      dup3\n      dup1\n      tag_106\n      swap1\n      tag_107\n      jump\t// in\n    tag_106:\n      swap4\n      pop\n      pop\n        /* \"contracts/ODI_with _referral.sol\":6451:6594  if( user[msg.sender].investment[i].investedAmount > 0 && !user[msg.sender].investment[i].claimed ){... */\n    tag_105:\n        /* \"contracts/ODI_with _referral.sol\":6417:6420  i++ */\n      dup1\n      dup1\n      tag_108\n      swap1\n      tag_107\n      jump\t// in\n    tag_108:\n      swap2\n      pop\n      pop\n        /* \"contracts/ODI_with _referral.sol\":6397:6609  for(uint i=0;i<_num;i++)... */\n      jump(tag_101)\n    tag_102:\n      pop\n        /* \"contracts/ODI_with _referral.sol\":6632:6664  allInvestments[] memory Invested */\n      0x00\n        /* \"contracts/ODI_with _referral.sol\":6689:6693  temp */\n      dup3\n        /* \"contracts/ODI_with _referral.sol\":6668:6694  new allInvestments[](temp) */\n      0xffffffffffffffff\n      dup2\n      gt\n      iszero\n      tag_109\n      jumpi\n      tag_110\n      tag_111\n      jump\t// in\n    tag_110:\n    tag_109:\n      mload(0x40)\n      swap1\n      dup1\n      dup3\n      mstore\n      dup1\n      0x20\n      mul\n      0x20\n      add\n      dup3\n      add\n      0x40\n      mstore\n      dup1\n      iszero\n      tag_112\n      jumpi\n      dup2\n      0x20\n      add\n    tag_113:\n      tag_114\n      tag_115\n      jump\t// in\n    tag_114:\n      dup2\n      mstore\n      0x20\n      add\n      swap1\n      0x01\n      swap1\n      sub\n      swap1\n      dup2\n      tag_113\n      jumpi\n      swap1\n      pop\n    tag_112:\n      pop\n        /* \"contracts/ODI_with _referral.sol\":6632:6694  allInvestments[] memory Invested =  new allInvestments[](temp) */\n      swap1\n      pop\n        /* \"contracts/ODI_with _referral.sol\":6714:6720  uint i */\n      0x00\n        /* \"contracts/ODI_with _referral.sol\":6710:7097  for(uint i=0;i<_num;i++)... */\n    tag_116:\n        /* \"contracts/ODI_with _referral.sol\":6725:6729  _num */\n      dup5\n        /* \"contracts/ODI_with _referral.sol\":6723:6724  i */\n      dup2\n        /* \"contracts/ODI_with _referral.sol\":6723:6729  i<_num */\n      lt\n        /* \"contracts/ODI_with _referral.sol\":6710:7097  for(uint i=0;i<_num;i++)... */\n      iszero\n      tag_117\n      jumpi\n        /* \"contracts/ODI_with _referral.sol\":6816:6817  0 */\n      0x00\n        /* \"contracts/ODI_with _referral.sol\":6768:6772  user */\n      dup1\n        /* \"contracts/ODI_with _referral.sol\":6768:6784  user[msg.sender] */\n      0x00\n        /* \"contracts/ODI_with _referral.sol\":6773:6783  msg.sender */\n      caller\n        /* \"contracts/ODI_with _referral.sol\":6768:6784  user[msg.sender] */\n      0xffffffffffffffffffffffffffffffffffffffff\n      and\n      0xffffffffffffffffffffffffffffffffffffffff\n      and\n      dup2\n      mstore\n      0x20\n      add\n      swap1\n      dup2\n      mstore\n      0x20\n      add\n      0x00\n      keccak256\n        /* \"contracts/ODI_with _referral.sol\":6768:6795  user[msg.sender].investment */\n      0x00\n      add\n        /* \"contracts/ODI_with _referral.sol\":6768:6798  user[msg.sender].investment[i] */\n      0x00\n        /* \"contracts/ODI_with _referral.sol\":6796:6797  i */\n      dup4\n        /* \"contracts/ODI_with _referral.sol\":6768:6798  user[msg.sender].investment[i] */\n      dup2\n      mstore\n      0x20\n      add\n      swap1\n      dup2\n      mstore\n      0x20\n      add\n      0x00\n      keccak256\n        /* \"contracts/ODI_with _referral.sol\":6768:6813  user[msg.sender].investment[i].investedAmount */\n      0x00\n      add\n      sload\n        /* \"contracts/ODI_with _referral.sol\":6768:6817  user[msg.sender].investment[i].investedAmount > 0 */\n      gt\n        /* \"contracts/ODI_with _referral.sol\":6768:6860  user[msg.sender].investment[i].investedAmount > 0 && !user[msg.sender].investment[i].claimed */\n      dup1\n      iszero\n      tag_119\n      jumpi\n      pop\n        /* \"contracts/ODI_with _referral.sol\":6822:6826  user */\n      0x00\n        /* \"contracts/ODI_with _referral.sol\":6822:6838  user[msg.sender] */\n      dup1\n        /* \"contracts/ODI_with _referral.sol\":6827:6837  msg.sender */\n      caller\n        /* \"contracts/ODI_with _referral.sol\":6822:6838  user[msg.sender] */\n      0xffffffffffffffffffffffffffffffffffffffff\n      and\n      0xffffffffffffffffffffffffffffffffffffffff\n      and\n      dup2\n      mstore\n      0x20\n      add\n      swap1\n      dup2\n      mstore\n      0x20\n      add\n      0x00\n      keccak256\n        /* \"contracts/ODI_with _referral.sol\":6822:6849  user[msg.sender].investment */\n      0x00\n      add\n        /* \"contracts/ODI_with _referral.sol\":6822:6852  user[msg.sender].investment[i] */\n      0x00\n        /* \"contracts/ODI_with _referral.sol\":6850:6851  i */\n      dup3\n        /* \"contracts/ODI_with _referral.sol\":6822:6852  user[msg.sender].investment[i] */\n      dup2\n      mstore\n      0x20\n      add\n      swap1\n      dup2\n      mstore\n      0x20\n      add\n      0x00\n      keccak256\n        /* \"contracts/ODI_with _referral.sol\":6822:6860  user[msg.sender].investment[i].claimed */\n      0x05\n      add\n      0x00\n      swap1\n      sload\n      swap1\n      0x0100\n      exp\n      swap1\n      div\n      0xff\n      and\n        /* \"contracts/ODI_with _referral.sol\":6821:6860  !user[msg.sender].investment[i].claimed */\n      iszero\n        /* \"contracts/ODI_with _referral.sol\":6768:6860  user[msg.sender].investment[i].investedAmount > 0 && !user[msg.sender].investment[i].claimed */\n    tag_119:\n        /* \"contracts/ODI_with _referral.sol\":6764:7082  if( user[msg.sender].investment[i].investedAmount > 0 && !user[msg.sender].investment[i].claimed){... */\n      iszero\n      tag_120\n      jumpi\n        /* \"contracts/ODI_with _referral.sol\":6999:7003  user */\n      0x00\n        /* \"contracts/ODI_with _referral.sol\":6999:7015  user[msg.sender] */\n      dup1\n        /* \"contracts/ODI_with _referral.sol\":7004:7014  msg.sender */\n      caller\n        /* \"contracts/ODI_with _referral.sol\":6999:7015  user[msg.sender] */\n      0xffffffffffffffffffffffffffffffffffffffff\n      and\n      0xffffffffffffffffffffffffffffffffffffffff\n      and\n      dup2\n      mstore\n      0x20\n      add\n      swap1\n      dup2\n      mstore\n      0x20\n      add\n      0x00\n      keccak256\n        /* \"contracts/ODI_with _referral.sol\":6999:7026  user[msg.sender].investment */\n      0x00\n      add\n        /* \"contracts/ODI_with _referral.sol\":6999:7029  user[msg.sender].investment[i] */\n      0x00\n        /* \"contracts/ODI_with _referral.sol\":7027:7028  i */\n      dup3\n        /* \"contracts/ODI_with _referral.sol\":6999:7029  user[msg.sender].investment[i] */\n      dup2\n      mstore\n      0x20\n      add\n      swap1\n      dup2\n      mstore\n      0x20\n      add\n      0x00\n      keccak256\n        /* \"contracts/ODI_with _referral.sol\":6976:7029  Invested[currentIndex]=user[msg.sender].investment[i] */\n      mload(0x40)\n      dup1\n      0xc0\n      add\n      0x40\n      mstore\n      swap1\n      dup2\n      0x00\n      dup3\n      add\n      sload\n      dup2\n      mstore\n      0x20\n      add\n      0x01\n      dup3\n      add\n      sload\n      dup2\n      mstore\n      0x20\n      add\n      0x02\n      dup3\n      add\n      sload\n      dup2\n      mstore\n      0x20\n      add\n      0x03\n      dup3\n      add\n      sload\n      dup2\n      mstore\n      0x20\n      add\n      0x04\n      dup3\n      add\n      sload\n      dup2\n      mstore\n      0x20\n      add\n      0x05\n      dup3\n      add\n      0x00\n      swap1\n      sload\n      swap1\n      0x0100\n      exp\n      swap1\n      div\n      0xff\n      and\n      iszero\n      iszero\n      iszero\n      iszero\n      dup2\n      mstore\n      pop\n      pop\n        /* \"contracts/ODI_with _referral.sol\":6976:6984  Invested */\n      dup3\n        /* \"contracts/ODI_with _referral.sol\":6985:6997  currentIndex */\n      dup5\n        /* \"contracts/ODI_with _referral.sol\":6976:6998  Invested[currentIndex] */\n      dup2\n      mload\n      dup2\n      lt\n      tag_121\n      jumpi\n      tag_122\n      tag_123\n      jump\t// in\n    tag_122:\n    tag_121:\n      0x20\n      mul\n      0x20\n      add\n      add\n        /* \"contracts/ODI_with _referral.sol\":6976:7029  Invested[currentIndex]=user[msg.sender].investment[i] */\n      dup2\n      swap1\n      mstore\n      pop\n        /* \"contracts/ODI_with _referral.sol\":7050:7064  currentIndex++ */\n      dup3\n      dup1\n      tag_124\n      swap1\n      tag_107\n      jump\t// in\n    tag_124:\n      swap4\n      pop\n      pop\n        /* \"contracts/ODI_with _referral.sol\":6764:7082  if( user[msg.sender].investment[i].investedAmount > 0 && !user[msg.sender].investment[i].claimed){... */\n    tag_120:\n        /* \"contracts/ODI_with _referral.sol\":6730:6733  i++ */\n      dup1\n      dup1\n      tag_125\n      swap1\n      tag_107\n      jump\t// in\n    tag_125:\n      swap2\n      pop\n      pop\n        /* \"contracts/ODI_with _referral.sol\":6710:7097  for(uint i=0;i<_num;i++)... */\n      jump(tag_116)\n    tag_117:\n      pop\n        /* \"contracts/ODI_with _referral.sol\":7117:7125  Invested */\n      dup1\n        /* \"contracts/ODI_with _referral.sol\":7110:7125  return Invested */\n      swap5\n      pop\n      pop\n      pop\n      pop\n      pop\n        /* \"contracts/ODI_with _referral.sol\":6102:7137  function getAll_Buyings() public view returns (allInvestments[] memory) { //this function will return the all investments of the investor and withware date... */\n      swap1\n      jump\t// out\n        /* \"contracts/ODI_with _referral.sol\":1959:1974  uint public num */\n    tag_41:\n      sload(0x06)\n      dup2\n      jump\t// out\n        /* \"contracts/ODI_with _referral.sol\":1872:1900  address public buy_token_add */\n    tag_45:\n      0x03\n      0x00\n      swap1\n      sload\n      swap1\n      0x0100\n      exp\n      swap1\n      div\n      0xffffffffffffffffffffffffffffffffffffffff\n      and\n      dup2\n      jump\t// out\n        /* \"contracts/ODI_with _referral.sol\":4850:5257  function claim_ref_tokens() external returns(bool)... */\n    tag_48:\n        /* \"contracts/ODI_with _referral.sol\":4895:4899  bool */\n      0x00\n        /* \"contracts/ODI_with _referral.sol\":4960:4961  0 */\n      dup1\n        /* \"contracts/ODI_with _referral.sol\":4923:4927  user */\n      0x00\n        /* \"contracts/ODI_with _referral.sol\":4923:4939  user[msg.sender] */\n      dup1\n        /* \"contracts/ODI_with _referral.sol\":4928:4938  msg.sender */\n      caller\n        /* \"contracts/ODI_with _referral.sol\":4923:4939  user[msg.sender] */\n      0xffffffffffffffffffffffffffffffffffffffff\n      and\n      0xffffffffffffffffffffffffffffffffffffffff\n      and\n      dup2\n      mstore\n      0x20\n      add\n      swap1\n      dup2\n      mstore\n      0x20\n      add\n      0x00\n      keccak256\n        /* \"contracts/ODI_with _referral.sol\":4923:4959  user[msg.sender].ref_tokens_claiming */\n      0x04\n      add\n      sload\n        /* \"contracts/ODI_with _referral.sol\":4923:4961  user[msg.sender].ref_tokens_claiming>0 */\n      gt\n        /* \"contracts/ODI_with _referral.sol\":4915:4994  require(user[msg.sender].ref_tokens_claiming>0,\"you dont have tokens to claim\") */\n      tag_127\n      jumpi\n      mload(0x40)\n      0x08c379a000000000000000000000000000000000000000000000000000000000\n      dup2\n      mstore\n      0x04\n      add\n      tag_128\n      swap1\n      tag_82\n      jump\t// in\n    tag_128:\n      mload(0x40)\n      dup1\n      swap2\n      sub\n      swap1\n      revert\n    tag_127:\n        /* \"contracts/ODI_with _referral.sol\":5034:5035  0 */\n      0x00\n        /* \"contracts/ODI_with _referral.sol\":5012:5017  round */\n      0x01\n        /* \"contracts/ODI_with _referral.sol\":5012:5020  round[2] */\n      0x00\n        /* \"contracts/ODI_with _referral.sol\":5018:5019  2 */\n      0x02\n        /* \"contracts/ODI_with _referral.sol\":5012:5020  round[2] */\n      dup2\n      mstore\n      0x20\n      add\n      swap1\n      dup2\n      mstore\n      0x20\n      add\n      0x00\n      keccak256\n        /* \"contracts/ODI_with _referral.sol\":5012:5032  round[2].total_limit */\n      0x02\n      add\n      sload\n        /* \"contracts/ODI_with _referral.sol\":5012:5035  round[2].total_limit==0 */\n      eq\n        /* \"contracts/ODI_with _referral.sol\":5012:5051  round[2].total_limit==0 && time_end > 0 */\n      dup1\n      iszero\n      tag_129\n      jumpi\n      pop\n        /* \"contracts/ODI_with _referral.sol\":5050:5051  0 */\n      0x00\n        /* \"contracts/ODI_with _referral.sol\":5039:5047  time_end */\n      sload(0x05)\n        /* \"contracts/ODI_with _referral.sol\":5039:5051  time_end > 0 */\n      gt\n        /* \"contracts/ODI_with _referral.sol\":5012:5051  round[2].total_limit==0 && time_end > 0 */\n    tag_129:\n        /* \"contracts/ODI_with _referral.sol\":5012:5081  round[2].total_limit==0 && time_end > 0 && time_end > block.timestamp */\n      dup1\n      iszero\n      tag_130\n      jumpi\n      pop\n        /* \"contracts/ODI_with _referral.sol\":5066:5081  block.timestamp */\n      timestamp\n        /* \"contracts/ODI_with _referral.sol\":5055:5063  time_end */\n      sload(0x05)\n        /* \"contracts/ODI_with _referral.sol\":5055:5081  time_end > block.timestamp */\n      gt\n        /* \"contracts/ODI_with _referral.sol\":5012:5081  round[2].total_limit==0 && time_end > 0 && time_end > block.timestamp */\n    tag_130:\n        /* \"contracts/ODI_with _referral.sol\":5004:5082  require(round[2].total_limit==0 && time_end > 0 && time_end > block.timestamp) */\n      tag_131\n      jumpi\n      0x00\n      dup1\n      revert\n    tag_131:\n        /* \"contracts/ODI_with _referral.sol\":5098:5111  buy_token_add */\n      0x03\n      0x00\n      swap1\n      sload\n      swap1\n      0x0100\n      exp\n      swap1\n      div\n      0xffffffffffffffffffffffffffffffffffffffff\n      and\n        /* \"contracts/ODI_with _referral.sol\":5093:5121  USDT(buy_token_add).transfer */\n      0xffffffffffffffffffffffffffffffffffffffff\n      and\n      0xa9059cbb\n        /* \"contracts/ODI_with _referral.sol\":5122:5132  msg.sender */\n      caller\n        /* \"contracts/ODI_with _referral.sol\":5172:5178  10**18 */\n      0x0de0b6b3a7640000\n        /* \"contracts/ODI_with _referral.sol\":5134:5138  user */\n      0x00\n        /* \"contracts/ODI_with _referral.sol\":5134:5150  user[msg.sender] */\n      dup1\n        /* \"contracts/ODI_with _referral.sol\":5139:5149  msg.sender */\n      caller\n        /* \"contracts/ODI_with _referral.sol\":5134:5150  user[msg.sender] */\n      0xffffffffffffffffffffffffffffffffffffffff\n      and\n      0xffffffffffffffffffffffffffffffffffffffff\n      and\n      dup2\n      mstore\n      0x20\n      add\n      swap1\n      dup2\n      mstore\n      0x20\n      add\n      0x00\n      keccak256\n        /* \"contracts/ODI_with _referral.sol\":5134:5170  user[msg.sender].ref_tokens_claiming */\n      0x04\n      add\n      sload\n        /* \"contracts/ODI_with _referral.sol\":5133:5178  (user[msg.sender].ref_tokens_claiming)*10**18 */\n      tag_132\n      swap2\n      swap1\n      tag_90\n      jump\t// in\n    tag_132:\n        /* \"contracts/ODI_with _referral.sol\":5093:5179  USDT(buy_token_add).transfer(msg.sender,(user[msg.sender].ref_tokens_claiming)*10**18) */\n      mload(0x40)\n      dup4\n      0xffffffff\n      and\n      0xe0\n      shl\n      dup2\n      mstore\n      0x04\n      add\n      tag_133\n      swap3\n      swap2\n      swap1\n      tag_92\n      jump\t// in\n    tag_133:\n      0x20\n      mload(0x40)\n      dup1\n      dup4\n      sub\n      dup2\n      0x00\n      dup8\n      dup1\n      extcodesize\n      iszero\n      dup1\n      iszero\n      tag_134\n      jumpi\n      0x00\n      dup1\n      revert\n    tag_134:\n      pop\n      gas\n      call\n      iszero\n      dup1\n      iszero\n      tag_136\n      jumpi\n      returndatasize\n      0x00\n      dup1\n      returndatacopy\n      revert(0x00, returndatasize)\n    tag_136:\n      pop\n      pop\n      pop\n      pop\n      mload(0x40)\n      returndatasize\n      not(0x1f)\n      0x1f\n      dup3\n      add\n      and\n      dup3\n      add\n      dup1\n      0x40\n      mstore\n      pop\n      dup2\n      add\n      swap1\n      tag_137\n      swap2\n      swap1\n      tag_97\n      jump\t// in\n    tag_137:\n      pop\n        /* \"contracts/ODI_with _referral.sol\":5226:5227  0 */\n      0x00\n        /* \"contracts/ODI_with _referral.sol\":5189:5193  user */\n      dup1\n        /* \"contracts/ODI_with _referral.sol\":5189:5205  user[msg.sender] */\n      0x00\n        /* \"contracts/ODI_with _referral.sol\":5194:5204  msg.sender */\n      caller\n        /* \"contracts/ODI_with _referral.sol\":5189:5205  user[msg.sender] */\n      0xffffffffffffffffffffffffffffffffffffffff\n      and\n      0xffffffffffffffffffffffffffffffffffffffff\n      and\n      dup2\n      mstore\n      0x20\n      add\n      swap1\n      dup2\n      mstore\n      0x20\n      add\n      0x00\n      keccak256\n        /* \"contracts/ODI_with _referral.sol\":5189:5225  user[msg.sender].ref_tokens_claiming */\n      0x04\n      add\n        /* \"contracts/ODI_with _referral.sol\":5189:5227  user[msg.sender].ref_tokens_claiming=0 */\n      dup2\n      swap1\n      sstore\n      pop\n        /* \"contracts/ODI_with _referral.sol\":5246:5250  true */\n      0x01\n        /* \"contracts/ODI_with _referral.sol\":5239:5250  return true */\n      swap1\n      pop\n        /* \"contracts/ODI_with _referral.sol\":4850:5257  function claim_ref_tokens() external returns(bool)... */\n      swap1\n      jump\t// out\n        /* \"contracts/ODI_with _referral.sol\":7144:7268  function get_claim_ref_tokens() external view returns(uint)... */\n    tag_51:\n        /* \"contracts/ODI_with _referral.sol\":7198:7202  uint */\n      0x00\n        /* \"contracts/ODI_with _referral.sol\":7225:7229  user */\n      dup1\n        /* \"contracts/ODI_with _referral.sol\":7225:7241  user[msg.sender] */\n      0x00\n        /* \"contracts/ODI_with _referral.sol\":7230:7240  msg.sender */\n      caller\n        /* \"contracts/ODI_with _referral.sol\":7225:7241  user[msg.sender] */\n      0xffffffffffffffffffffffffffffffffffffffff\n      and\n      0xffffffffffffffffffffffffffffffffffffffff\n      and\n      dup2\n      mstore\n      0x20\n      add\n      swap1\n      dup2\n      mstore\n      0x20\n      add\n      0x00\n      keccak256\n        /* \"contracts/ODI_with _referral.sol\":7225:7261  user[msg.sender].ref_tokens_claiming */\n      0x04\n      add\n      sload\n        /* \"contracts/ODI_with _referral.sol\":7218:7261  return user[msg.sender].ref_tokens_claiming */\n      swap1\n      pop\n        /* \"contracts/ODI_with _referral.sol\":7144:7268  function get_claim_ref_tokens() external view returns(uint)... */\n      swap1\n      jump\t// out\n        /* \"contracts/ODI_with _referral.sol\":1756:1795  mapping(address=>user_info) public user */\n    tag_56:\n      mstore(0x20, 0x00)\n      dup1\n      0x00\n      mstore\n      keccak256(0x00, 0x40)\n      0x00\n      swap2\n      pop\n      swap1\n      pop\n      dup1\n      0x01\n      add\n      sload\n      swap1\n      dup1\n      0x02\n      add\n      0x00\n      swap1\n      sload\n      swap1\n      0x0100\n      exp\n      swap1\n      div\n      0xffffffffffffffffffffffffffffffffffffffff\n      and\n      swap1\n      dup1\n      0x02\n      add\n      0x14\n      swap1\n      sload\n      swap1\n      0x0100\n      exp\n      swap1\n      div\n      0xff\n      and\n      swap1\n      dup1\n      0x04\n      add\n      sload\n      swap1\n      dup1\n      0x05\n      add\n      sload\n      swap1\n      pop\n      dup6\n      jump\t// out\n        /* \"contracts/ODI_with _referral.sol\":1906:1926  address public owner */\n    tag_60:\n      0x04\n      0x00\n      swap1\n      sload\n      swap1\n      0x0100\n      exp\n      swap1\n      div\n      0xffffffffffffffffffffffffffffffffffffffff\n      and\n      dup2\n      jump\t// out\n        /* \"contracts/ODI_with _referral.sol\":7274:7398  function get_claimable_tokens() external view returns(uint)... */\n    tag_63:\n        /* \"contracts/ODI_with _referral.sol\":7328:7332  uint */\n      0x00\n        /* \"contracts/ODI_with _referral.sol\":7355:7359  user */\n      dup1\n        /* \"contracts/ODI_with _referral.sol\":7355:7371  user[msg.sender] */\n      0x00\n        /* \"contracts/ODI_with _referral.sol\":7360:7370  msg.sender */\n      caller\n        /* \"contracts/ODI_with _referral.sol\":7355:7371  user[msg.sender] */\n      0xffffffffffffffffffffffffffffffffffffffff\n      and\n      0xffffffffffffffffffffffffffffffffffffffff\n      and\n      dup2\n      mstore\n      0x20\n      add\n      swap1\n      dup2\n      mstore\n      0x20\n      add\n      0x00\n      keccak256\n        /* \"contracts/ODI_with _referral.sol\":7355:7391  user[msg.sender].tokens_for_claiming */\n      0x01\n      add\n      sload\n        /* \"contracts/ODI_with _referral.sol\":7348:7391  return user[msg.sender].tokens_for_claiming */\n      swap1\n      pop\n        /* \"contracts/ODI_with _referral.sol\":7274:7398  function get_claimable_tokens() external view returns(uint)... */\n      swap1\n      jump\t// out\n        /* \"contracts/ODI_with _referral.sol\":2964:4844  function buy_tokens(address _referral) external returns(bool){... */\n    tag_67:\n        /* \"contracts/ODI_with _referral.sol\":3020:3024  bool */\n      0x00\n        /* \"contracts/ODI_with _referral.sol\":3064:3069  round */\n      0x01\n        /* \"contracts/ODI_with _referral.sol\":3064:3074  round[num] */\n      0x00\n        /* \"contracts/ODI_with _referral.sol\":3070:3073  num */\n      sload(0x06)\n        /* \"contracts/ODI_with _referral.sol\":3064:3074  round[num] */\n      dup2\n      mstore\n      0x20\n      add\n      swap1\n      dup2\n      mstore\n      0x20\n      add\n      0x00\n      keccak256\n        /* \"contracts/ODI_with _referral.sol\":3064:3086  round[num].total_limit */\n      0x02\n      add\n      sload\n        /* \"contracts/ODI_with _referral.sol\":3043:3048  round */\n      0x01\n        /* \"contracts/ODI_with _referral.sol\":3043:3053  round[num] */\n      0x00\n        /* \"contracts/ODI_with _referral.sol\":3049:3052  num */\n      sload(0x06)\n        /* \"contracts/ODI_with _referral.sol\":3043:3053  round[num] */\n      dup2\n      mstore\n      0x20\n      add\n      swap1\n      dup2\n      mstore\n      0x20\n      add\n      0x00\n      keccak256\n        /* \"contracts/ODI_with _referral.sol\":3043:3062  round[num].quantity */\n      0x01\n      add\n      sload\n        /* \"contracts/ODI_with _referral.sol\":3043:3086  round[num].quantity<=round[num].total_limit */\n      gt\n      iszero\n        /* \"contracts/ODI_with _referral.sol\":3035:3127  require(round[num].quantity<=round[num].total_limit,\"asking tokens are more than the limit\") */\n      tag_141\n      jumpi\n      mload(0x40)\n      0x08c379a000000000000000000000000000000000000000000000000000000000\n      dup2\n      mstore\n      0x04\n      add\n      tag_142\n      swap1\n      tag_143\n      jump\t// in\n    tag_142:\n      mload(0x40)\n      dup1\n      swap2\n      sub\n      swap1\n      revert\n    tag_141:\n        /* \"contracts/ODI_with _referral.sol\":3209:3215  10**18 */\n      0x0de0b6b3a7640000\n        /* \"contracts/ODI_with _referral.sol\":3186:3191  round */\n      0x01\n        /* \"contracts/ODI_with _referral.sol\":3186:3196  round[num] */\n      0x00\n        /* \"contracts/ODI_with _referral.sol\":3192:3195  num */\n      sload(0x06)\n        /* \"contracts/ODI_with _referral.sol\":3186:3196  round[num] */\n      dup2\n      mstore\n      0x20\n      add\n      swap1\n      dup2\n      mstore\n      0x20\n      add\n      0x00\n      keccak256\n        /* \"contracts/ODI_with _referral.sol\":3186:3208  round[num].upper_limit */\n      0x00\n      add\n      sload\n        /* \"contracts/ODI_with _referral.sol\":3186:3215  round[num].upper_limit*10**18 */\n      tag_144\n      swap2\n      swap1\n      tag_90\n      jump\t// in\n    tag_144:\n        /* \"contracts/ODI_with _referral.sol\":3150:3162  usdt_address */\n      0x02\n      0x00\n      swap1\n      sload\n      swap1\n      0x0100\n      exp\n      swap1\n      div\n      0xffffffffffffffffffffffffffffffffffffffff\n      and\n        /* \"contracts/ODI_with _referral.sol\":3145:3173  USDT(usdt_address).balanceOf */\n      0xffffffffffffffffffffffffffffffffffffffff\n      and\n      0x70a08231\n        /* \"contracts/ODI_with _referral.sol\":3174:3184  msg.sender */\n      caller\n        /* \"contracts/ODI_with _referral.sol\":3145:3185  USDT(usdt_address).balanceOf(msg.sender) */\n      mload(0x40)\n      dup3\n      0xffffffff\n      and\n      0xe0\n      shl\n      dup2\n      mstore\n      0x04\n      add\n      tag_145\n      swap2\n      swap1\n      tag_24\n      jump\t// in\n    tag_145:\n      0x20\n      mload(0x40)\n      dup1\n      dup4\n      sub\n      dup2\n      dup7\n      dup1\n      extcodesize\n      iszero\n      dup1\n      iszero\n      tag_146\n      jumpi\n      0x00\n      dup1\n      revert\n    tag_146:\n      pop\n      gas\n      staticcall\n      iszero\n      dup1\n      iszero\n      tag_148\n      jumpi\n      returndatasize\n      0x00\n      dup1\n      returndatacopy\n      revert(0x00, returndatasize)\n    tag_148:\n      pop\n      pop\n      pop\n      pop\n      mload(0x40)\n      returndatasize\n      not(0x1f)\n      0x1f\n      dup3\n      add\n      and\n      dup3\n      add\n      dup1\n      0x40\n      mstore\n      pop\n      dup2\n      add\n      swap1\n      tag_149\n      swap2\n      swap1\n      tag_150\n      jump\t// in\n    tag_149:\n        /* \"contracts/ODI_with _referral.sol\":3145:3215  USDT(usdt_address).balanceOf(msg.sender)>round[num].upper_limit*10**18 */\n      gt\n        /* \"contracts/ODI_with _referral.sol\":3137:3254  require(USDT(usdt_address).balanceOf(msg.sender)>round[num].upper_limit*10**18,\"you dont have enough balance to buy\") */\n      tag_151\n      jumpi\n      mload(0x40)\n      0x08c379a000000000000000000000000000000000000000000000000000000000\n      dup2\n      mstore\n      0x04\n      add\n      tag_152\n      swap1\n      tag_153\n      jump\t// in\n    tag_152:\n      mload(0x40)\n      dup1\n      swap2\n      sub\n      swap1\n      revert\n    tag_151:\n        /* \"contracts/ODI_with _referral.sol\":3277:3289  usdt_address */\n      0x02\n      0x00\n      swap1\n      sload\n      swap1\n      0x0100\n      exp\n      swap1\n      div\n      0xffffffffffffffffffffffffffffffffffffffff\n      and\n        /* \"contracts/ODI_with _referral.sol\":3272:3303  USDT(usdt_address).transferFrom */\n      0xffffffffffffffffffffffffffffffffffffffff\n      and\n      0x23b872dd\n        /* \"contracts/ODI_with _referral.sol\":3304:3314  msg.sender */\n      caller\n        /* \"contracts/ODI_with _referral.sol\":3315:3320  owner */\n      0x04\n      0x00\n      swap1\n      sload\n      swap1\n      0x0100\n      exp\n      swap1\n      div\n      0xffffffffffffffffffffffffffffffffffffffff\n      and\n        /* \"contracts/ODI_with _referral.sol\":3344:3350  10**18 */\n      0x0de0b6b3a7640000\n        /* \"contracts/ODI_with _referral.sol\":3321:3326  round */\n      0x01\n        /* \"contracts/ODI_with _referral.sol\":3321:3331  round[num] */\n      0x00\n        /* \"contracts/ODI_with _referral.sol\":3327:3330  num */\n      sload(0x06)\n        /* \"contracts/ODI_with _referral.sol\":3321:3331  round[num] */\n      dup2\n      mstore\n      0x20\n      add\n      swap1\n      dup2\n      mstore\n      0x20\n      add\n      0x00\n      keccak256\n        /* \"contracts/ODI_with _referral.sol\":3321:3343  round[num].upper_limit */\n      0x00\n      add\n      sload\n        /* \"contracts/ODI_with _referral.sol\":3321:3350  round[num].upper_limit*10**18 */\n      tag_154\n      swap2\n      swap1\n      tag_90\n      jump\t// in\n    tag_154:\n        /* \"contracts/ODI_with _referral.sol\":3272:3351  USDT(usdt_address).transferFrom(msg.sender,owner,round[num].upper_limit*10**18) */\n      mload(0x40)\n      dup5\n      0xffffffff\n      and\n      0xe0\n      shl\n      dup2\n      mstore\n      0x04\n      add\n      tag_155\n      swap4\n      swap3\n      swap2\n      swap1\n      tag_156\n      jump\t// in\n    tag_155:\n      0x20\n      mload(0x40)\n      dup1\n      dup4\n      sub\n      dup2\n      0x00\n      dup8\n      dup1\n      extcodesize\n      iszero\n      dup1\n      iszero\n      tag_157\n      jumpi\n      0x00\n      dup1\n      revert\n    tag_157:\n      pop\n      gas\n      call\n      iszero\n      dup1\n      iszero\n      tag_159\n      jumpi\n      returndatasize\n      0x00\n      dup1\n      returndatacopy\n      revert(0x00, returndatasize)\n    tag_159:\n      pop\n      pop\n      pop\n      pop\n      mload(0x40)\n      returndatasize\n      not(0x1f)\n      0x1f\n      dup3\n      add\n      and\n      dup3\n      add\n      dup1\n      0x40\n      mstore\n      pop\n      dup2\n      add\n      swap1\n      tag_160\n      swap2\n      swap1\n      tag_97\n      jump\t// in\n    tag_160:\n        /* \"contracts/ODI_with _referral.sol\":3264:3382  require(USDT(usdt_address).transferFrom(msg.sender,owner,round[num].upper_limit*10**18),\"tokens does not transferred\") */\n      tag_161\n      jumpi\n      mload(0x40)\n      0x08c379a000000000000000000000000000000000000000000000000000000000\n      dup2\n      mstore\n      0x04\n      add\n      tag_162\n      swap1\n      tag_163\n      jump\t// in\n    tag_162:\n      mload(0x40)\n      dup1\n      swap2\n      sub\n      swap1\n      revert\n    tag_161:\n        /* \"contracts/ODI_with _referral.sol\":3472:3477  round */\n      0x01\n        /* \"contracts/ODI_with _referral.sol\":3472:3482  round[num] */\n      0x00\n        /* \"contracts/ODI_with _referral.sol\":3478:3481  num */\n      sload(0x06)\n        /* \"contracts/ODI_with _referral.sol\":3472:3482  round[num] */\n      dup2\n      mstore\n      0x20\n      add\n      swap1\n      dup2\n      mstore\n      0x20\n      add\n      0x00\n      keccak256\n        /* \"contracts/ODI_with _referral.sol\":3472:3491  round[num].quantity */\n      0x01\n      add\n      sload\n        /* \"contracts/ODI_with _referral.sol\":3393:3397  user */\n      0x00\n        /* \"contracts/ODI_with _referral.sol\":3393:3409  user[msg.sender] */\n      dup1\n        /* \"contracts/ODI_with _referral.sol\":3398:3408  msg.sender */\n      caller\n        /* \"contracts/ODI_with _referral.sol\":3393:3409  user[msg.sender] */\n      0xffffffffffffffffffffffffffffffffffffffff\n      and\n      0xffffffffffffffffffffffffffffffffffffffff\n      and\n      dup2\n      mstore\n      0x20\n      add\n      swap1\n      dup2\n      mstore\n      0x20\n      add\n      0x00\n      keccak256\n        /* \"contracts/ODI_with _referral.sol\":3393:3420  user[msg.sender].investment */\n      0x00\n      add\n        /* \"contracts/ODI_with _referral.sol\":3393:3456  user[msg.sender].investment[user[msg.sender].total_investments] */\n      0x00\n        /* \"contracts/ODI_with _referral.sol\":3421:3425  user */\n      dup1\n        /* \"contracts/ODI_with _referral.sol\":3421:3437  user[msg.sender] */\n      0x00\n        /* \"contracts/ODI_with _referral.sol\":3426:3436  msg.sender */\n      caller\n        /* \"contracts/ODI_with _referral.sol\":3421:3437  user[msg.sender] */\n      0xffffffffffffffffffffffffffffffffffffffff\n      and\n      0xffffffffffffffffffffffffffffffffffffffff\n      and\n      dup2\n      mstore\n      0x20\n      add\n      swap1\n      dup2\n      mstore\n      0x20\n      add\n      0x00\n      keccak256\n        /* \"contracts/ODI_with _referral.sol\":3421:3455  user[msg.sender].total_investments */\n      0x05\n      add\n      sload\n        /* \"contracts/ODI_with _referral.sol\":3393:3456  user[msg.sender].investment[user[msg.sender].total_investments] */\n      dup2\n      mstore\n      0x20\n      add\n      swap1\n      dup2\n      mstore\n      0x20\n      add\n      0x00\n      keccak256\n        /* \"contracts/ODI_with _referral.sol\":3393:3471  user[msg.sender].investment[user[msg.sender].total_investments].investedAmount */\n      0x00\n      add\n        /* \"contracts/ODI_with _referral.sol\":3393:3491  user[msg.sender].investment[user[msg.sender].total_investments].investedAmount=round[num].quantity */\n      dup2\n      swap1\n      sstore\n      pop\n        /* \"contracts/ODI_with _referral.sol\":3577:3592  block.timestamp */\n      timestamp\n        /* \"contracts/ODI_with _referral.sol\":3501:3505  user */\n      0x00\n        /* \"contracts/ODI_with _referral.sol\":3501:3517  user[msg.sender] */\n      dup1\n        /* \"contracts/ODI_with _referral.sol\":3506:3516  msg.sender */\n      caller\n        /* \"contracts/ODI_with _referral.sol\":3501:3517  user[msg.sender] */\n      0xffffffffffffffffffffffffffffffffffffffff\n      and\n      0xffffffffffffffffffffffffffffffffffffffff\n      and\n      dup2\n      mstore\n      0x20\n      add\n      swap1\n      dup2\n      mstore\n      0x20\n      add\n      0x00\n      keccak256\n        /* \"contracts/ODI_with _referral.sol\":3501:3528  user[msg.sender].investment */\n      0x00\n      add\n        /* \"contracts/ODI_with _referral.sol\":3501:3564  user[msg.sender].investment[user[msg.sender].total_investments] */\n      0x00\n        /* \"contracts/ODI_with _referral.sol\":3529:3533  user */\n      dup1\n        /* \"contracts/ODI_with _referral.sol\":3529:3545  user[msg.sender] */\n      0x00\n        /* \"contracts/ODI_with _referral.sol\":3534:3544  msg.sender */\n      caller\n        /* \"contracts/ODI_with _referral.sol\":3529:3545  user[msg.sender] */\n      0xffffffffffffffffffffffffffffffffffffffff\n      and\n      0xffffffffffffffffffffffffffffffffffffffff\n      and\n      dup2\n      mstore\n      0x20\n      add\n      swap1\n      dup2\n      mstore\n      0x20\n      add\n      0x00\n      keccak256\n        /* \"contracts/ODI_with _referral.sol\":3529:3563  user[msg.sender].total_investments */\n      0x05\n      add\n      sload\n        /* \"contracts/ODI_with _referral.sol\":3501:3564  user[msg.sender].investment[user[msg.sender].total_investments] */\n      dup2\n      mstore\n      0x20\n      add\n      swap1\n      dup2\n      mstore\n      0x20\n      add\n      0x00\n      keccak256\n        /* \"contracts/ODI_with _referral.sol\":3501:3576  user[msg.sender].investment[user[msg.sender].total_investments].buying_Time */\n      0x02\n      add\n        /* \"contracts/ODI_with _referral.sol\":3501:3592  user[msg.sender].investment[user[msg.sender].total_investments].buying_Time=block.timestamp */\n      dup2\n      swap1\n      sstore\n      pop\n        /* \"contracts/ODI_with _referral.sol\":3715:3719  user */\n      0x00\n        /* \"contracts/ODI_with _referral.sol\":3715:3731  user[msg.sender] */\n      dup1\n        /* \"contracts/ODI_with _referral.sol\":3720:3730  msg.sender */\n      caller\n        /* \"contracts/ODI_with _referral.sol\":3715:3731  user[msg.sender] */\n      0xffffffffffffffffffffffffffffffffffffffff\n      and\n      0xffffffffffffffffffffffffffffffffffffffff\n      and\n      dup2\n      mstore\n      0x20\n      add\n      swap1\n      dup2\n      mstore\n      0x20\n      add\n      0x00\n      keccak256\n        /* \"contracts/ODI_with _referral.sol\":3715:3749  user[msg.sender].total_investments */\n      0x05\n      add\n      0x00\n        /* \"contracts/ODI_with _referral.sol\":3715:3751  user[msg.sender].total_investments++ */\n      dup2\n      sload\n      dup1\n      swap3\n      swap2\n      swap1\n      tag_164\n      swap1\n      tag_107\n      jump\t// in\n    tag_164:\n      swap2\n      swap1\n      pop\n      sstore\n      pop\n        /* \"contracts/ODI_with _referral.sol\":3799:3804  round */\n      0x01\n        /* \"contracts/ODI_with _referral.sol\":3799:3809  round[num] */\n      0x00\n        /* \"contracts/ODI_with _referral.sol\":3805:3808  num */\n      sload(0x06)\n        /* \"contracts/ODI_with _referral.sol\":3799:3809  round[num] */\n      dup2\n      mstore\n      0x20\n      add\n      swap1\n      dup2\n      mstore\n      0x20\n      add\n      0x00\n      keccak256\n        /* \"contracts/ODI_with _referral.sol\":3799:3818  round[num].quantity */\n      0x01\n      add\n      sload\n        /* \"contracts/ODI_with _referral.sol\":3761:3765  user */\n      0x00\n        /* \"contracts/ODI_with _referral.sol\":3761:3777  user[msg.sender] */\n      dup1\n        /* \"contracts/ODI_with _referral.sol\":3766:3776  msg.sender */\n      caller\n        /* \"contracts/ODI_with _referral.sol\":3761:3777  user[msg.sender] */\n      0xffffffffffffffffffffffffffffffffffffffff\n      and\n      0xffffffffffffffffffffffffffffffffffffffff\n      and\n      dup2\n      mstore\n      0x20\n      add\n      swap1\n      dup2\n      mstore\n      0x20\n      add\n      0x00\n      keccak256\n        /* \"contracts/ODI_with _referral.sol\":3761:3797  user[msg.sender].tokens_for_claiming */\n      0x01\n      add\n      0x00\n        /* \"contracts/ODI_with _referral.sol\":3761:3818  user[msg.sender].tokens_for_claiming+=round[num].quantity */\n      dup3\n      dup3\n      sload\n      tag_165\n      swap2\n      swap1\n      tag_166\n      jump\t// in\n    tag_165:\n      swap3\n      pop\n      pop\n      dup2\n      swap1\n      sstore\n      pop\n        /* \"contracts/ODI_with _referral.sol\":3852:3857  round */\n      0x01\n        /* \"contracts/ODI_with _referral.sol\":3852:3862  round[num] */\n      0x00\n        /* \"contracts/ODI_with _referral.sol\":3858:3861  num */\n      sload(0x06)\n        /* \"contracts/ODI_with _referral.sol\":3852:3862  round[num] */\n      dup2\n      mstore\n      0x20\n      add\n      swap1\n      dup2\n      mstore\n      0x20\n      add\n      0x00\n      keccak256\n        /* \"contracts/ODI_with _referral.sol\":3852:3871  round[num].quantity */\n      0x01\n      add\n      sload\n        /* \"contracts/ODI_with _referral.sol\":3828:3833  round */\n      0x01\n        /* \"contracts/ODI_with _referral.sol\":3828:3838  round[num] */\n      0x00\n        /* \"contracts/ODI_with _referral.sol\":3834:3837  num */\n      sload(0x06)\n        /* \"contracts/ODI_with _referral.sol\":3828:3838  round[num] */\n      dup2\n      mstore\n      0x20\n      add\n      swap1\n      dup2\n      mstore\n      0x20\n      add\n      0x00\n      keccak256\n        /* \"contracts/ODI_with _referral.sol\":3828:3850  round[num].total_limit */\n      0x02\n      add\n      0x00\n        /* \"contracts/ODI_with _referral.sol\":3828:3871  round[num].total_limit-=round[num].quantity */\n      dup3\n      dup3\n      sload\n      tag_167\n      swap2\n      swap1\n      tag_99\n      jump\t// in\n    tag_167:\n      swap3\n      pop\n      pop\n      dup2\n      swap1\n      sstore\n      pop\n        /* \"contracts/ODI_with _referral.sol\":3912:3913  0 */\n      0x00\n        /* \"contracts/ODI_with _referral.sol\":3893:3914  _referral==address(0) */\n      0xffffffffffffffffffffffffffffffffffffffff\n      and\n        /* \"contracts/ODI_with _referral.sol\":3893:3902  _referral */\n      dup3\n        /* \"contracts/ODI_with _referral.sol\":3893:3914  _referral==address(0) */\n      0xffffffffffffffffffffffffffffffffffffffff\n      and\n      eq\n        /* \"contracts/ODI_with _referral.sol\":3893:3939  _referral==address(0) || _referral==msg.sender */\n      dup1\n      tag_168\n      jumpi\n      pop\n        /* \"contracts/ODI_with _referral.sol\":3929:3939  msg.sender */\n      caller\n        /* \"contracts/ODI_with _referral.sol\":3918:3939  _referral==msg.sender */\n      0xffffffffffffffffffffffffffffffffffffffff\n      and\n        /* \"contracts/ODI_with _referral.sol\":3918:3927  _referral */\n      dup3\n        /* \"contracts/ODI_with _referral.sol\":3918:3939  _referral==msg.sender */\n      0xffffffffffffffffffffffffffffffffffffffff\n      and\n      eq\n        /* \"contracts/ODI_with _referral.sol\":3893:3939  _referral==address(0) || _referral==msg.sender */\n    tag_168:\n        /* \"contracts/ODI_with _referral.sol\":3890:4514  if(_referral==address(0) || _referral==msg.sender)                                         //checking that investor comes from the referral link or not... */\n      iszero\n      tag_169\n      jumpi\n        /* \"contracts/ODI_with _referral.sol\":4105:4106  0 */\n      0x00\n        /* \"contracts/ODI_with _referral.sol\":4065:4069  user */\n      dup1\n        /* \"contracts/ODI_with _referral.sol\":4065:4081  user[msg.sender] */\n      0x00\n        /* \"contracts/ODI_with _referral.sol\":4070:4080  msg.sender */\n      caller\n        /* \"contracts/ODI_with _referral.sol\":4065:4081  user[msg.sender] */\n      0xffffffffffffffffffffffffffffffffffffffff\n      and\n      0xffffffffffffffffffffffffffffffffffffffff\n      and\n      dup2\n      mstore\n      0x20\n      add\n      swap1\n      dup2\n      mstore\n      0x20\n      add\n      0x00\n      keccak256\n        /* \"contracts/ODI_with _referral.sol\":4065:4094  user[msg.sender].referralFrom */\n      0x02\n      add\n      0x00\n        /* \"contracts/ODI_with _referral.sol\":4065:4107  user[msg.sender].referralFrom = address(0) */\n      0x0100\n      exp\n      dup2\n      sload\n      dup2\n      0xffffffffffffffffffffffffffffffffffffffff\n      mul\n      not\n      and\n      swap1\n      dup4\n      0xffffffffffffffffffffffffffffffffffffffff\n      and\n      mul\n      or\n      swap1\n      sstore\n      pop\n        /* \"contracts/ODI_with _referral.sol\":3890:4514  if(_referral==address(0) || _referral==msg.sender)                                         //checking that investor comes from the referral link or not... */\n      jump(tag_170)\n    tag_169:\n        /* \"contracts/ODI_with _referral.sol\":4190:4195  false */\n      0x00\n        /* \"contracts/ODI_with _referral.sol\":4157:4195  user[msg.sender].investBefore == false */\n      iszero\n      iszero\n        /* \"contracts/ODI_with _referral.sol\":4157:4161  user */\n      0x00\n        /* \"contracts/ODI_with _referral.sol\":4157:4173  user[msg.sender] */\n      dup1\n        /* \"contracts/ODI_with _referral.sol\":4162:4172  msg.sender */\n      caller\n        /* \"contracts/ODI_with _referral.sol\":4157:4173  user[msg.sender] */\n      0xffffffffffffffffffffffffffffffffffffffff\n      and\n      0xffffffffffffffffffffffffffffffffffffffff\n      and\n      dup2\n      mstore\n      0x20\n      add\n      swap1\n      dup2\n      mstore\n      0x20\n      add\n      0x00\n      keccak256\n        /* \"contracts/ODI_with _referral.sol\":4157:4186  user[msg.sender].investBefore */\n      0x02\n      add\n      0x14\n      swap1\n      sload\n      swap1\n      0x0100\n      exp\n      swap1\n      div\n      0xff\n      and\n        /* \"contracts/ODI_with _referral.sol\":4157:4195  user[msg.sender].investBefore == false */\n      iszero\n      iszero\n      eq\n        /* \"contracts/ODI_with _referral.sol\":4154:4347  if(user[msg.sender].investBefore == false)... */\n      iszero\n      tag_171\n      jumpi\n        /* \"contracts/ODI_with _referral.sol\":4260:4269  _referral */\n      dup2\n        /* \"contracts/ODI_with _referral.sol\":4228:4232  user */\n      0x00\n        /* \"contracts/ODI_with _referral.sol\":4228:4244  user[msg.sender] */\n      dup1\n        /* \"contracts/ODI_with _referral.sol\":4233:4243  msg.sender */\n      caller\n        /* \"contracts/ODI_with _referral.sol\":4228:4244  user[msg.sender] */\n      0xffffffffffffffffffffffffffffffffffffffff\n      and\n      0xffffffffffffffffffffffffffffffffffffffff\n      and\n      dup2\n      mstore\n      0x20\n      add\n      swap1\n      dup2\n      mstore\n      0x20\n      add\n      0x00\n      keccak256\n        /* \"contracts/ODI_with _referral.sol\":4228:4257  user[msg.sender].referralFrom */\n      0x02\n      add\n      0x00\n        /* \"contracts/ODI_with _referral.sol\":4228:4269  user[msg.sender].referralFrom = _referral */\n      0x0100\n      exp\n      dup2\n      sload\n      dup2\n      0xffffffffffffffffffffffffffffffffffffffff\n      mul\n      not\n      and\n      swap1\n      dup4\n      0xffffffffffffffffffffffffffffffffffffffff\n      and\n      mul\n      or\n      swap1\n      sstore\n      pop\n        /* \"contracts/ODI_with _referral.sol\":4287:4291  user */\n      0x00\n        /* \"contracts/ODI_with _referral.sol\":4287:4302  user[_referral] */\n      dup1\n        /* \"contracts/ODI_with _referral.sol\":4292:4301  _referral */\n      dup4\n        /* \"contracts/ODI_with _referral.sol\":4287:4302  user[_referral] */\n      0xffffffffffffffffffffffffffffffffffffffff\n      and\n      0xffffffffffffffffffffffffffffffffffffffff\n      and\n      dup2\n      mstore\n      0x20\n      add\n      swap1\n      dup2\n      mstore\n      0x20\n      add\n      0x00\n      keccak256\n        /* \"contracts/ODI_with _referral.sol\":4287:4315  user[_referral].hisReferrals */\n      0x03\n      add\n        /* \"contracts/ODI_with _referral.sol\":4321:4331  msg.sender */\n      caller\n        /* \"contracts/ODI_with _referral.sol\":4287:4332  user[_referral].hisReferrals.push(msg.sender) */\n      swap1\n      dup1\n      0x01\n      dup2\n      sload\n      add\n      dup1\n      dup3\n      sstore\n      dup1\n      swap2\n      pop\n      pop\n      0x01\n      swap1\n      sub\n      swap1\n      0x00\n      mstore\n      keccak256(0x00, 0x20)\n      add\n      0x00\n      swap1\n      swap2\n      swap1\n      swap2\n      swap1\n      swap2\n      0x0100\n      exp\n      dup2\n      sload\n      dup2\n      0xffffffffffffffffffffffffffffffffffffffff\n      mul\n      not\n      and\n      swap1\n      dup4\n      0xffffffffffffffffffffffffffffffffffffffff\n      and\n      mul\n      or\n      swap1\n      sstore\n      pop\n        /* \"contracts/ODI_with _referral.sol\":4154:4347  if(user[msg.sender].investBefore == false)... */\n    tag_171:\n        /* \"contracts/ODI_with _referral.sol\":4360:4413  sendRewardToReferrals(msg.sender,round[num].quantity) */\n      tag_173\n        /* \"contracts/ODI_with _referral.sol\":4382:4392  msg.sender */\n      caller\n        /* \"contracts/ODI_with _referral.sol\":4393:4398  round */\n      0x01\n        /* \"contracts/ODI_with _referral.sol\":4393:4403  round[num] */\n      0x00\n        /* \"contracts/ODI_with _referral.sol\":4399:4402  num */\n      sload(0x06)\n        /* \"contracts/ODI_with _referral.sol\":4393:4403  round[num] */\n      dup2\n      mstore\n      0x20\n      add\n      swap1\n      dup2\n      mstore\n      0x20\n      add\n      0x00\n      keccak256\n        /* \"contracts/ODI_with _referral.sol\":4393:4412  round[num].quantity */\n      0x01\n      add\n      sload\n        /* \"contracts/ODI_with _referral.sol\":4360:4381  sendRewardToReferrals */\n      tag_174\n        /* \"contracts/ODI_with _referral.sol\":4360:4413  sendRewardToReferrals(msg.sender,round[num].quantity) */\n      jump\t// in\n    tag_173:\n        /* \"contracts/ODI_with _referral.sol\":3890:4514  if(_referral==address(0) || _referral==msg.sender)                                         //checking that investor comes from the referral link or not... */\n    tag_170:\n        /* \"contracts/ODI_with _referral.sol\":4550:4551  0 */\n      0x00\n        /* \"contracts/ODI_with _referral.sol\":4526:4531  round */\n      0x01\n        /* \"contracts/ODI_with _referral.sol\":4526:4536  round[num] */\n      0x00\n        /* \"contracts/ODI_with _referral.sol\":4532:4535  num */\n      sload(0x06)\n        /* \"contracts/ODI_with _referral.sol\":4526:4536  round[num] */\n      dup2\n      mstore\n      0x20\n      add\n      swap1\n      dup2\n      mstore\n      0x20\n      add\n      0x00\n      keccak256\n        /* \"contracts/ODI_with _referral.sol\":4526:4548  round[num].total_limit */\n      0x02\n      add\n      sload\n        /* \"contracts/ODI_with _referral.sol\":4526:4551  round[num].total_limit==0 */\n      eq\n        /* \"contracts/ODI_with _referral.sol\":4523:4772  if(round[num].total_limit==0)... */\n      iszero\n      tag_175\n      jumpi\n        /* \"contracts/ODI_with _referral.sol\":4583:4584  2 */\n      0x02\n        /* \"contracts/ODI_with _referral.sol\":4578:4581  num */\n      sload(0x06)\n        /* \"contracts/ODI_with _referral.sol\":4578:4584  num==2 */\n      eq\n        /* \"contracts/ODI_with _referral.sol\":4575:4743  if(num==2)... */\n      iszero\n      tag_176\n      jumpi\n        /* \"contracts/ODI_with _referral.sol\":4707:4716  2 minutes */\n      0x78\n        /* \"contracts/ODI_with _referral.sol\":4691:4706  block.timestamp */\n      timestamp\n        /* \"contracts/ODI_with _referral.sol\":4691:4716  block.timestamp+2 minutes */\n      tag_177\n      swap2\n      swap1\n      tag_166\n      jump\t// in\n    tag_177:\n        /* \"contracts/ODI_with _referral.sol\":4682:4690  time_end */\n      0x05\n        /* \"contracts/ODI_with _referral.sol\":4682:4716  time_end=block.timestamp+2 minutes */\n      dup2\n      swap1\n      sstore\n      pop\n        /* \"contracts/ODI_with _referral.sol\":4575:4743  if(num==2)... */\n    tag_176:\n        /* \"contracts/ODI_with _referral.sol\":4756:4759  num */\n      0x06\n      0x00\n        /* \"contracts/ODI_with _referral.sol\":4756:4761  num++ */\n      dup2\n      sload\n      dup1\n      swap3\n      swap2\n      swap1\n      tag_178\n      swap1\n      tag_107\n      jump\t// in\n    tag_178:\n      swap2\n      swap1\n      pop\n      sstore\n      pop\n        /* \"contracts/ODI_with _referral.sol\":4523:4772  if(round[num].total_limit==0)... */\n    tag_175:\n        /* \"contracts/ODI_with _referral.sol\":4811:4815  true */\n      0x01\n        /* \"contracts/ODI_with _referral.sol\":4781:4785  user */\n      0x00\n        /* \"contracts/ODI_with _referral.sol\":4781:4797  user[msg.sender] */\n      dup1\n        /* \"contracts/ODI_with _referral.sol\":4786:4796  msg.sender */\n      caller\n        /* \"contracts/ODI_with _referral.sol\":4781:4797  user[msg.sender] */\n      0xffffffffffffffffffffffffffffffffffffffff\n      and\n      0xffffffffffffffffffffffffffffffffffffffff\n      and\n      dup2\n      mstore\n      0x20\n      add\n      swap1\n      dup2\n      mstore\n      0x20\n      add\n      0x00\n      keccak256\n        /* \"contracts/ODI_with _referral.sol\":4781:4810  user[msg.sender].investBefore */\n      0x02\n      add\n      0x14\n        /* \"contracts/ODI_with _referral.sol\":4781:4815  user[msg.sender].investBefore=true */\n      0x0100\n      exp\n      dup2\n      sload\n      dup2\n      0xff\n      mul\n      not\n      and\n      swap1\n      dup4\n      iszero\n      iszero\n      mul\n      or\n      swap1\n      sstore\n      pop\n        /* \"contracts/ODI_with _referral.sol\":4833:4837  true */\n      0x01\n        /* \"contracts/ODI_with _referral.sol\":4826:4837  return true */\n      swap1\n      pop\n        /* \"contracts/ODI_with _referral.sol\":2964:4844  function buy_tokens(address _referral) external returns(bool){... */\n      swap2\n      swap1\n      pop\n      jump\t// out\n        /* \"contracts/ODI_with _referral.sol\":7404:7608  function change_upperLimit(uint _upper_limit,uint _round)  public... */\n    tag_72:\n        /* \"contracts/ODI_with _referral.sol\":7504:7509  owner */\n      0x04\n      0x00\n      swap1\n      sload\n      swap1\n      0x0100\n      exp\n      swap1\n      div\n      0xffffffffffffffffffffffffffffffffffffffff\n      and\n        /* \"contracts/ODI_with _referral.sol\":7492:7509  msg.sender==owner */\n      0xffffffffffffffffffffffffffffffffffffffff\n      and\n        /* \"contracts/ODI_with _referral.sol\":7492:7502  msg.sender */\n      caller\n        /* \"contracts/ODI_with _referral.sol\":7492:7509  msg.sender==owner */\n      0xffffffffffffffffffffffffffffffffffffffff\n      and\n      eq\n        /* \"contracts/ODI_with _referral.sol\":7484:7546  require(msg.sender==owner,\"only Owner can call this function\") */\n      tag_180\n      jumpi\n      mload(0x40)\n      0x08c379a000000000000000000000000000000000000000000000000000000000\n      dup2\n      mstore\n      0x04\n      add\n      tag_181\n      swap1\n      tag_182\n      jump\t// in\n    tag_181:\n      mload(0x40)\n      dup1\n      swap2\n      sub\n      swap1\n      revert\n    tag_180:\n        /* \"contracts/ODI_with _referral.sol\":7584:7596  _upper_limit */\n      dup2\n        /* \"contracts/ODI_with _referral.sol\":7556:7561  round */\n      0x01\n        /* \"contracts/ODI_with _referral.sol\":7556:7571  round[_round-1] */\n      0x00\n        /* \"contracts/ODI_with _referral.sol\":7569:7570  1 */\n      0x01\n        /* \"contracts/ODI_with _referral.sol\":7562:7568  _round */\n      dup5\n        /* \"contracts/ODI_with _referral.sol\":7562:7570  _round-1 */\n      tag_183\n      swap2\n      swap1\n      tag_99\n      jump\t// in\n    tag_183:\n        /* \"contracts/ODI_with _referral.sol\":7556:7571  round[_round-1] */\n      dup2\n      mstore\n      0x20\n      add\n      swap1\n      dup2\n      mstore\n      0x20\n      add\n      0x00\n      keccak256\n        /* \"contracts/ODI_with _referral.sol\":7556:7583  round[_round-1].upper_limit */\n      0x00\n      add\n        /* \"contracts/ODI_with _referral.sol\":7556:7596  round[_round-1].upper_limit=_upper_limit */\n      dup2\n      swap1\n      sstore\n      pop\n        /* \"contracts/ODI_with _referral.sol\":7404:7608  function change_upperLimit(uint _upper_limit,uint _round)  public... */\n      pop\n      pop\n      jump\t// out\n        /* \"contracts/ODI_with _referral.sol\":1932:1952  uint public time_end */\n    tag_74:\n      sload(0x05)\n      dup2\n      jump\t// out\n        /* \"contracts/ODI_with _referral.sol\":7614:7772  function transferOwnership(address _owner)  public... */\n    tag_78:\n        /* \"contracts/ODI_with _referral.sol\":7699:7704  owner */\n      0x04\n      0x00\n      swap1\n      sload\n      swap1\n      0x0100\n      exp\n      swap1\n      div\n      0xffffffffffffffffffffffffffffffffffffffff\n      and\n        /* \"contracts/ODI_with _referral.sol\":7687:7704  msg.sender==owner */\n      0xffffffffffffffffffffffffffffffffffffffff\n      and\n        /* \"contracts/ODI_with _referral.sol\":7687:7697  msg.sender */\n      caller\n        /* \"contracts/ODI_with _referral.sol\":7687:7704  msg.sender==owner */\n      0xffffffffffffffffffffffffffffffffffffffff\n      and\n      eq\n        /* \"contracts/ODI_with _referral.sol\":7679:7741  require(msg.sender==owner,\"only Owner can call this function\") */\n      tag_185\n      jumpi\n      mload(0x40)\n      0x08c379a000000000000000000000000000000000000000000000000000000000\n      dup2\n      mstore\n      0x04\n      add\n      tag_186\n      swap1\n      tag_182\n      jump\t// in\n    tag_186:\n      mload(0x40)\n      dup1\n      swap2\n      sub\n      swap1\n      revert\n    tag_185:\n        /* \"contracts/ODI_with _referral.sol\":7759:7765  _owner */\n      dup1\n        /* \"contracts/ODI_with _referral.sol\":7751:7756  owner */\n      0x04\n      0x00\n        /* \"contracts/ODI_with _referral.sol\":7751:7765  owner = _owner */\n      0x0100\n      exp\n      dup2\n      sload\n      dup2\n      0xffffffffffffffffffffffffffffffffffffffff\n      mul\n      not\n      and\n      swap1\n      dup4\n      0xffffffffffffffffffffffffffffffffffffffff\n      and\n      mul\n      or\n      swap1\n      sstore\n      pop\n        /* \"contracts/ODI_with _referral.sol\":7614:7772  function transferOwnership(address _owner)  public... */\n      pop\n      jump\t// out\n        /* \"contracts/ODI_with _referral.sol\":1981:2954  function sendRewardToReferrals(address investor,uint _investedAmount)  internal  //this is the freferral function to transfer the reawards to referrals... */\n    tag_174:\n        /* \"contracts/ODI_with _referral.sol\":2149:2161  address temp */\n      0x00\n        /* \"contracts/ODI_with _referral.sol\":2164:2172  investor */\n      dup3\n        /* \"contracts/ODI_with _referral.sol\":2149:2172  address temp = investor */\n      swap1\n      pop\n        /* \"contracts/ODI_with _referral.sol\":2189:2213  uint[] memory percentage */\n      0x00\n        /* \"contracts/ODI_with _referral.sol\":2227:2228  5 */\n      0x05\n        /* \"contracts/ODI_with _referral.sol\":2216:2229  new uint[](5) */\n      0xffffffffffffffff\n      dup2\n      gt\n      iszero\n      tag_188\n      jumpi\n      tag_189\n      tag_111\n      jump\t// in\n    tag_189:\n    tag_188:\n      mload(0x40)\n      swap1\n      dup1\n      dup3\n      mstore\n      dup1\n      0x20\n      mul\n      0x20\n      add\n      dup3\n      add\n      0x40\n      mstore\n      dup1\n      iszero\n      tag_190\n      jumpi\n      dup2\n      0x20\n      add\n      0x20\n      dup3\n      mul\n      dup1\n      calldatasize\n      dup4\n      calldatacopy\n      dup1\n      dup3\n      add\n      swap2\n      pop\n      pop\n      swap1\n      pop\n    tag_190:\n      pop\n        /* \"contracts/ODI_with _referral.sol\":2189:2229  uint[] memory percentage = new uint[](5) */\n      swap1\n      pop\n        /* \"contracts/ODI_with _referral.sol\":2255:2256  5 */\n      0x05\n        /* \"contracts/ODI_with _referral.sol\":2239:2249  percentage */\n      dup2\n        /* \"contracts/ODI_with _referral.sol\":2250:2251  0 */\n      0x00\n        /* \"contracts/ODI_with _referral.sol\":2239:2252  percentage[0] */\n      dup2\n      mload\n      dup2\n      lt\n      tag_191\n      jumpi\n      tag_192\n      tag_123\n      jump\t// in\n    tag_192:\n    tag_191:\n      0x20\n      mul\n      0x20\n      add\n      add\n        /* \"contracts/ODI_with _referral.sol\":2239:2256  percentage[0] = 5 */\n      dup2\n      dup2\n      mstore\n      pop\n      pop\n        /* \"contracts/ODI_with _referral.sol\":2282:2283  4 */\n      0x04\n        /* \"contracts/ODI_with _referral.sol\":2266:2276  percentage */\n      dup2\n        /* \"contracts/ODI_with _referral.sol\":2277:2278  1 */\n      0x01\n        /* \"contracts/ODI_with _referral.sol\":2266:2279  percentage[1] */\n      dup2\n      mload\n      dup2\n      lt\n      tag_193\n      jumpi\n      tag_194\n      tag_123\n      jump\t// in\n    tag_194:\n    tag_193:\n      0x20\n      mul\n      0x20\n      add\n      add\n        /* \"contracts/ODI_with _referral.sol\":2266:2283  percentage[1] = 4 */\n      dup2\n      dup2\n      mstore\n      pop\n      pop\n        /* \"contracts/ODI_with _referral.sol\":2326:2332  uint j */\n      0x00\n        /* \"contracts/ODI_with _referral.sol\":2349:2355  uint i */\n      dup1\n        /* \"contracts/ODI_with _referral.sol\":2356:2357  0 */\n      0x00\n        /* \"contracts/ODI_with _referral.sol\":2349:2357  uint i=0 */\n      swap1\n      pop\n        /* \"contracts/ODI_with _referral.sol\":2345:2947  for(uint i=0;i<2;i++)... */\n    tag_195:\n        /* \"contracts/ODI_with _referral.sol\":2360:2361  2 */\n      0x02\n        /* \"contracts/ODI_with _referral.sol\":2358:2359  i */\n      dup2\n        /* \"contracts/ODI_with _referral.sol\":2358:2361  i<2 */\n      lt\n        /* \"contracts/ODI_with _referral.sol\":2345:2947  for(uint i=0;i<2;i++)... */\n      iszero\n      tag_196\n      jumpi\n        /* \"contracts/ODI_with _referral.sol\":2396:2397  0 */\n      0x00\n        /* \"contracts/ODI_with _referral.sol\":2393:2394  i */\n      dup2\n        /* \"contracts/ODI_with _referral.sol\":2393:2397  i==0 */\n      eq\n        /* \"contracts/ODI_with _referral.sol\":2390:2522  if(i==0)... */\n      iszero\n      tag_198\n      jumpi\n        /* \"contracts/ODI_with _referral.sol\":2431:2432  0 */\n      0x00\n        /* \"contracts/ODI_with _referral.sol\":2429:2432  j=0 */\n      swap2\n      pop\n        /* \"contracts/ODI_with _referral.sol\":2390:2522  if(i==0)... */\n      jump(tag_199)\n    tag_198:\n        /* \"contracts/ODI_with _referral.sol\":2471:2472  1 */\n      0x01\n        /* \"contracts/ODI_with _referral.sol\":2468:2469  i */\n      dup2\n        /* \"contracts/ODI_with _referral.sol\":2468:2472  i==1 */\n      eq\n        /* \"contracts/ODI_with _referral.sol\":2465:2522  if(i==1)... */\n      iszero\n      tag_200\n      jumpi\n        /* \"contracts/ODI_with _referral.sol\":2506:2507  1 */\n      0x01\n        /* \"contracts/ODI_with _referral.sol\":2504:2507  j=1 */\n      swap2\n      pop\n        /* \"contracts/ODI_with _referral.sol\":2465:2522  if(i==1)... */\n    tag_200:\n        /* \"contracts/ODI_with _referral.sol\":2390:2522  if(i==0)... */\n    tag_199:\n        /* \"contracts/ODI_with _referral.sol\":2671:2672  0 */\n      0x00\n        /* \"contracts/ODI_with _referral.sol\":2638:2673  user[temp].referralFrom!=address(0) */\n      0xffffffffffffffffffffffffffffffffffffffff\n      and\n        /* \"contracts/ODI_with _referral.sol\":2638:2642  user */\n      0x00\n        /* \"contracts/ODI_with _referral.sol\":2638:2648  user[temp] */\n      dup1\n        /* \"contracts/ODI_with _referral.sol\":2643:2647  temp */\n      dup7\n        /* \"contracts/ODI_with _referral.sol\":2638:2648  user[temp] */\n      0xffffffffffffffffffffffffffffffffffffffff\n      and\n      0xffffffffffffffffffffffffffffffffffffffff\n      and\n      dup2\n      mstore\n      0x20\n      add\n      swap1\n      dup2\n      mstore\n      0x20\n      add\n      0x00\n      keccak256\n        /* \"contracts/ODI_with _referral.sol\":2638:2661  user[temp].referralFrom */\n      0x02\n      add\n      0x00\n      swap1\n      sload\n      swap1\n      0x0100\n      exp\n      swap1\n      div\n      0xffffffffffffffffffffffffffffffffffffffff\n      and\n        /* \"contracts/ODI_with _referral.sol\":2638:2673  user[temp].referralFrom!=address(0) */\n      0xffffffffffffffffffffffffffffffffffffffff\n      and\n      eq\n        /* \"contracts/ODI_with _referral.sol\":2635:2936  if(user[temp].referralFrom!=address(0))... */\n      tag_201\n      jumpi\n        /* \"contracts/ODI_with _referral.sol\":2711:2715  user */\n      0x00\n        /* \"contracts/ODI_with _referral.sol\":2711:2721  user[temp] */\n      dup1\n        /* \"contracts/ODI_with _referral.sol\":2716:2720  temp */\n      dup6\n        /* \"contracts/ODI_with _referral.sol\":2711:2721  user[temp] */\n      0xffffffffffffffffffffffffffffffffffffffff\n      and\n      0xffffffffffffffffffffffffffffffffffffffff\n      and\n      dup2\n      mstore\n      0x20\n      add\n      swap1\n      dup2\n      mstore\n      0x20\n      add\n      0x00\n      keccak256\n        /* \"contracts/ODI_with _referral.sol\":2711:2734  user[temp].referralFrom */\n      0x02\n      add\n      0x00\n      swap1\n      sload\n      swap1\n      0x0100\n      exp\n      swap1\n      div\n      0xffffffffffffffffffffffffffffffffffffffff\n      and\n        /* \"contracts/ODI_with _referral.sol\":2706:2734  temp=user[temp].referralFrom */\n      swap4\n      pop\n        /* \"contracts/ODI_with _referral.sol\":2752:2764  uint reward1 */\n      0x00\n        /* \"contracts/ODI_with _referral.sol\":2801:2804  100 */\n      0x64\n        /* \"contracts/ODI_with _referral.sol\":2784:2799  _investedAmount */\n      dup7\n        /* \"contracts/ODI_with _referral.sol\":2768:2778  percentage */\n      dup6\n        /* \"contracts/ODI_with _referral.sol\":2779:2780  j */\n      dup6\n        /* \"contracts/ODI_with _referral.sol\":2768:2781  percentage[j] */\n      dup2\n      mload\n      dup2\n      lt\n      tag_202\n      jumpi\n      tag_203\n      tag_123\n      jump\t// in\n    tag_203:\n    tag_202:\n      0x20\n      mul\n      0x20\n      add\n      add\n      mload\n        /* \"contracts/ODI_with _referral.sol\":2768:2799  percentage[j] * _investedAmount */\n      tag_204\n      swap2\n      swap1\n      tag_90\n      jump\t// in\n    tag_204:\n        /* \"contracts/ODI_with _referral.sol\":2767:2804  (percentage[j] * _investedAmount)/100 */\n      tag_205\n      swap2\n      swap1\n      tag_206\n      jump\t// in\n    tag_205:\n        /* \"contracts/ODI_with _referral.sol\":2752:2804  uint reward1 = (percentage[j] * _investedAmount)/100 */\n      swap1\n      pop\n        /* \"contracts/ODI_with _referral.sol\":2855:2862  reward1 */\n      dup1\n        /* \"contracts/ODI_with _referral.sol\":2823:2827  user */\n      0x00\n        /* \"contracts/ODI_with _referral.sol\":2823:2833  user[temp] */\n      dup1\n        /* \"contracts/ODI_with _referral.sol\":2828:2832  temp */\n      dup8\n        /* \"contracts/ODI_with _referral.sol\":2823:2833  user[temp] */\n      0xffffffffffffffffffffffffffffffffffffffff\n      and\n      0xffffffffffffffffffffffffffffffffffffffff\n      and\n      dup2\n      mstore\n      0x20\n      add\n      swap1\n      dup2\n      mstore\n      0x20\n      add\n      0x00\n      keccak256\n        /* \"contracts/ODI_with _referral.sol\":2823:2853  user[temp].ref_tokens_claiming */\n      0x04\n      add\n      0x00\n        /* \"contracts/ODI_with _referral.sol\":2823:2862  user[temp].ref_tokens_claiming+=reward1 */\n      dup3\n      dup3\n      sload\n      tag_207\n      swap2\n      swap1\n      tag_166\n      jump\t// in\n    tag_207:\n      swap3\n      pop\n      pop\n      dup2\n      swap1\n      sstore\n      pop\n        /* \"contracts/ODI_with _referral.sol\":2687:2880  {... */\n      pop\n        /* \"contracts/ODI_with _referral.sol\":2635:2936  if(user[temp].referralFrom!=address(0))... */\n      jump(tag_208)\n    tag_201:\n        /* \"contracts/ODI_with _referral.sol\":2916:2921  break */\n      jump(tag_196)\n        /* \"contracts/ODI_with _referral.sol\":2635:2936  if(user[temp].referralFrom!=address(0))... */\n    tag_208:\n        /* \"contracts/ODI_with _referral.sol\":2362:2365  i++ */\n      dup1\n      dup1\n      tag_209\n      swap1\n      tag_107\n      jump\t// in\n    tag_209:\n      swap2\n      pop\n      pop\n        /* \"contracts/ODI_with _referral.sol\":2345:2947  for(uint i=0;i<2;i++)... */\n      jump(tag_195)\n    tag_196:\n      pop\n        /* \"contracts/ODI_with _referral.sol\":2137:2954  { ... */\n      pop\n      pop\n      pop\n        /* \"contracts/ODI_with _referral.sol\":1981:2954  function sendRewardToReferrals(address investor,uint _investedAmount)  internal  //this is the freferral function to transfer the reawards to referrals... */\n      pop\n      pop\n      jump\t// out\n    tag_115:\n      mload(0x40)\n      dup1\n      0xc0\n      add\n      0x40\n      mstore\n      dup1\n      0x00\n      dup2\n      mstore\n      0x20\n      add\n      0x00\n      dup2\n      mstore\n      0x20\n      add\n      0x00\n      dup2\n      mstore\n      0x20\n      add\n      0x00\n      dup2\n      mstore\n      0x20\n      add\n      0x00\n      dup2\n      mstore\n      0x20\n      add\n      iszero(iszero(0x00))\n      dup2\n      mstore\n      pop\n      swap1\n      jump\t// out\n        /* \"#utility.yul\":7:146   */\n    tag_211:\n        /* \"#utility.yul\":53:58   */\n      0x00\n        /* \"#utility.yul\":91:97   */\n      dup2\n        /* \"#utility.yul\":78:98   */\n      calldataload\n        /* \"#utility.yul\":69:98   */\n      swap1\n      pop\n        /* \"#utility.yul\":107:140   */\n      tag_213\n        /* \"#utility.yul\":134:139   */\n      dup2\n        /* \"#utility.yul\":107:140   */\n      tag_214\n      jump\t// in\n    tag_213:\n        /* \"#utility.yul\":7:146   */\n      swap3\n      swap2\n      pop\n      pop\n      jump\t// out\n        /* \"#utility.yul\":152:289   */\n    tag_215:\n        /* \"#utility.yul\":206:211   */\n      0x00\n        /* \"#utility.yul\":237:243   */\n      dup2\n        /* \"#utility.yul\":231:244   */\n      mload\n        /* \"#utility.yul\":222:244   */\n      swap1\n      pop\n        /* \"#utility.yul\":253:283   */\n      tag_217\n        /* \"#utility.yul\":277:282   */\n      dup2\n        /* \"#utility.yul\":253:283   */\n      tag_218\n      jump\t// in\n    tag_217:\n        /* \"#utility.yul\":152:289   */\n      swap3\n      swap2\n      pop\n      pop\n      jump\t// out\n        /* \"#utility.yul\":295:434   */\n    tag_219:\n        /* \"#utility.yul\":341:346   */\n      0x00\n        /* \"#utility.yul\":379:385   */\n      dup2\n        /* \"#utility.yul\":366:386   */\n      calldataload\n        /* \"#utility.yul\":357:386   */\n      swap1\n      pop\n        /* \"#utility.yul\":395:428   */\n      tag_221\n        /* \"#utility.yul\":422:427   */\n      dup2\n        /* \"#utility.yul\":395:428   */\n      tag_222\n      jump\t// in\n    tag_221:\n        /* \"#utility.yul\":295:434   */\n      swap3\n      swap2\n      pop\n      pop\n      jump\t// out\n        /* \"#utility.yul\":440:583   */\n    tag_223:\n        /* \"#utility.yul\":497:502   */\n      0x00\n        /* \"#utility.yul\":528:534   */\n      dup2\n        /* \"#utility.yul\":522:535   */\n      mload\n        /* \"#utility.yul\":513:535   */\n      swap1\n      pop\n        /* \"#utility.yul\":544:577   */\n      tag_225\n        /* \"#utility.yul\":571:576   */\n      dup2\n        /* \"#utility.yul\":544:577   */\n      tag_222\n      jump\t// in\n    tag_225:\n        /* \"#utility.yul\":440:583   */\n      swap3\n      swap2\n      pop\n      pop\n      jump\t// out\n        /* \"#utility.yul\":589:918   */\n    tag_55:\n        /* \"#utility.yul\":648:654   */\n      0x00\n        /* \"#utility.yul\":697:699   */\n      0x20\n        /* \"#utility.yul\":685:694   */\n      dup3\n        /* \"#utility.yul\":676:683   */\n      dup5\n        /* \"#utility.yul\":672:695   */\n      sub\n        /* \"#utility.yul\":668:700   */\n      slt\n        /* \"#utility.yul\":665:784   */\n      iszero\n      tag_227\n      jumpi\n        /* \"#utility.yul\":703:782   */\n      tag_228\n      tag_229\n      jump\t// in\n    tag_228:\n        /* \"#utility.yul\":665:784   */\n    tag_227:\n        /* \"#utility.yul\":823:824   */\n      0x00\n        /* \"#utility.yul\":848:901   */\n      tag_230\n        /* \"#utility.yul\":893:900   */\n      dup5\n        /* \"#utility.yul\":884:890   */\n      dup3\n        /* \"#utility.yul\":873:882   */\n      dup6\n        /* \"#utility.yul\":869:891   */\n      add\n        /* \"#utility.yul\":848:901   */\n      tag_211\n      jump\t// in\n    tag_230:\n        /* \"#utility.yul\":838:901   */\n      swap2\n      pop\n        /* \"#utility.yul\":794:911   */\n      pop\n        /* \"#utility.yul\":589:918   */\n      swap3\n      swap2\n      pop\n      pop\n      jump\t// out\n        /* \"#utility.yul\":924:1269   */\n    tag_97:\n        /* \"#utility.yul\":991:997   */\n      0x00\n        /* \"#utility.yul\":1040:1042   */\n      0x20\n        /* \"#utility.yul\":1028:1037   */\n      dup3\n        /* \"#utility.yul\":1019:1026   */\n      dup5\n        /* \"#utility.yul\":1015:1038   */\n      sub\n        /* \"#utility.yul\":1011:1043   */\n      slt\n        /* \"#utility.yul\":1008:1127   */\n      iszero\n      tag_232\n      jumpi\n        /* \"#utility.yul\":1046:1125   */\n      tag_233\n      tag_229\n      jump\t// in\n    tag_233:\n        /* \"#utility.yul\":1008:1127   */\n    tag_232:\n        /* \"#utility.yul\":1166:1167   */\n      0x00\n        /* \"#utility.yul\":1191:1252   */\n      tag_234\n        /* \"#utility.yul\":1244:1251   */\n      dup5\n        /* \"#utility.yul\":1235:1241   */\n      dup3\n        /* \"#utility.yul\":1224:1233   */\n      dup6\n        /* \"#utility.yul\":1220:1242   */\n      add\n        /* \"#utility.yul\":1191:1252   */\n      tag_215\n      jump\t// in\n    tag_234:\n        /* \"#utility.yul\":1181:1252   */\n      swap2\n      pop\n        /* \"#utility.yul\":1137:1262   */\n      pop\n        /* \"#utility.yul\":924:1269   */\n      swap3\n      swap2\n      pop\n      pop\n      jump\t// out\n        /* \"#utility.yul\":1275:1604   */\n    tag_27:\n        /* \"#utility.yul\":1334:1340   */\n      0x00\n        /* \"#utility.yul\":1383:1385   */\n      0x20\n        /* \"#utility.yul\":1371:1380   */\n      dup3\n        /* \"#utility.yul\":1362:1369   */\n      dup5\n        /* \"#utility.yul\":1358:1381   */\n      sub\n        /* \"#utility.yul\":1354:1386   */\n      slt\n        /* \"#utility.yul\":1351:1470   */\n      iszero\n      tag_236\n      jumpi\n        /* \"#utility.yul\":1389:1468   */\n      tag_237\n      tag_229\n      jump\t// in\n    tag_237:\n        /* \"#utility.yul\":1351:1470   */\n    tag_236:\n        /* \"#utility.yul\":1509:1510   */\n      0x00\n        /* \"#utility.yul\":1534:1587   */\n      tag_238\n        /* \"#utility.yul\":1579:1586   */\n      dup5\n        /* \"#utility.yul\":1570:1576   */\n      dup3\n        /* \"#utility.yul\":1559:1568   */\n      dup6\n        /* \"#utility.yul\":1555:1577   */\n      add\n        /* \"#utility.yul\":1534:1587   */\n      tag_219\n      jump\t// in\n    tag_238:\n        /* \"#utility.yul\":1524:1587   */\n      swap2\n      pop\n        /* \"#utility.yul\":1480:1597   */\n      pop\n        /* \"#utility.yul\":1275:1604   */\n      swap3\n      swap2\n      pop\n      pop\n      jump\t// out\n        /* \"#utility.yul\":1610:1961   */\n    tag_150:\n        /* \"#utility.yul\":1680:1686   */\n      0x00\n        /* \"#utility.yul\":1729:1731   */\n      0x20\n        /* \"#utility.yul\":1717:1726   */\n      dup3\n        /* \"#utility.yul\":1708:1715   */\n      dup5\n        /* \"#utility.yul\":1704:1727   */\n      sub\n        /* \"#utility.yul\":1700:1732   */\n      slt\n        /* \"#utility.yul\":1697:1816   */\n      iszero\n      tag_240\n      jumpi\n        /* \"#utility.yul\":1735:1814   */\n      tag_241\n      tag_229\n      jump\t// in\n    tag_241:\n        /* \"#utility.yul\":1697:1816   */\n    tag_240:\n        /* \"#utility.yul\":1855:1856   */\n      0x00\n        /* \"#utility.yul\":1880:1944   */\n      tag_242\n        /* \"#utility.yul\":1936:1943   */\n      dup5\n        /* \"#utility.yul\":1927:1933   */\n      dup3\n        /* \"#utility.yul\":1916:1925   */\n      dup6\n        /* \"#utility.yul\":1912:1934   */\n      add\n        /* \"#utility.yul\":1880:1944   */\n      tag_223\n      jump\t// in\n    tag_242:\n        /* \"#utility.yul\":1870:1944   */\n      swap2\n      pop\n        /* \"#utility.yul\":1826:1954   */\n      pop\n        /* \"#utility.yul\":1610:1961   */\n      swap3\n      swap2\n      pop\n      pop\n      jump\t// out\n        /* \"#utility.yul\":1967:2441   */\n    tag_71:\n        /* \"#utility.yul\":2035:2041   */\n      0x00\n        /* \"#utility.yul\":2043:2049   */\n      dup1\n        /* \"#utility.yul\":2092:2094   */\n      0x40\n        /* \"#utility.yul\":2080:2089   */\n      dup4\n        /* \"#utility.yul\":2071:2078   */\n      dup6\n        /* \"#utility.yul\":2067:2090   */\n      sub\n        /* \"#utility.yul\":2063:2095   */\n      slt\n        /* \"#utility.yul\":2060:2179   */\n      iszero\n      tag_244\n      jumpi\n        /* \"#utility.yul\":2098:2177   */\n      tag_245\n      tag_229\n      jump\t// in\n    tag_245:\n        /* \"#utility.yul\":2060:2179   */\n    tag_244:\n        /* \"#utility.yul\":2218:2219   */\n      0x00\n        /* \"#utility.yul\":2243:2296   */\n      tag_246\n        /* \"#utility.yul\":2288:2295   */\n      dup6\n        /* \"#utility.yul\":2279:2285   */\n      dup3\n        /* \"#utility.yul\":2268:2277   */\n      dup7\n        /* \"#utility.yul\":2264:2286   */\n      add\n        /* \"#utility.yul\":2243:2296   */\n      tag_219\n      jump\t// in\n    tag_246:\n        /* \"#utility.yul\":2233:2296   */\n      swap3\n      pop\n        /* \"#utility.yul\":2189:2306   */\n      pop\n        /* \"#utility.yul\":2345:2347   */\n      0x20\n        /* \"#utility.yul\":2371:2424   */\n      tag_247\n        /* \"#utility.yul\":2416:2423   */\n      dup6\n        /* \"#utility.yul\":2407:2413   */\n      dup3\n        /* \"#utility.yul\":2396:2405   */\n      dup7\n        /* \"#utility.yul\":2392:2414   */\n      add\n        /* \"#utility.yul\":2371:2424   */\n      tag_219\n      jump\t// in\n    tag_247:\n        /* \"#utility.yul\":2361:2424   */\n      swap2\n      pop\n        /* \"#utility.yul\":2316:2434   */\n      pop\n        /* \"#utility.yul\":1967:2441   */\n      swap3\n      pop\n      swap3\n      swap1\n      pop\n      jump\t// out\n        /* \"#utility.yul\":2447:2746   */\n    tag_248:\n        /* \"#utility.yul\":2576:2586   */\n      0x00\n        /* \"#utility.yul\":2597:2703   */\n      tag_250\n        /* \"#utility.yul\":2699:2702   */\n      dup4\n        /* \"#utility.yul\":2691:2697   */\n      dup4\n        /* \"#utility.yul\":2597:2703   */\n      tag_251\n      jump\t// in\n    tag_250:\n        /* \"#utility.yul\":2735:2739   */\n      0xc0\n        /* \"#utility.yul\":2730:2733   */\n      dup4\n        /* \"#utility.yul\":2726:2740   */\n      add\n        /* \"#utility.yul\":2712:2740   */\n      swap1\n      pop\n        /* \"#utility.yul\":2447:2746   */\n      swap3\n      swap2\n      pop\n      pop\n      jump\t// out\n        /* \"#utility.yul\":2752:2870   */\n    tag_252:\n        /* \"#utility.yul\":2839:2863   */\n      tag_254\n        /* \"#utility.yul\":2857:2862   */\n      dup2\n        /* \"#utility.yul\":2839:2863   */\n      tag_255\n      jump\t// in\n    tag_254:\n        /* \"#utility.yul\":2834:2837   */\n      dup3\n        /* \"#utility.yul\":2827:2864   */\n      mstore\n        /* \"#utility.yul\":2752:2870   */\n      pop\n      pop\n      jump\t// out\n        /* \"#utility.yul\":2942:3914   */\n    tag_256:\n        /* \"#utility.yul\":3121:3124   */\n      0x00\n        /* \"#utility.yul\":3150:3234   */\n      tag_258\n        /* \"#utility.yul\":3228:3233   */\n      dup3\n        /* \"#utility.yul\":3150:3234   */\n      tag_259\n      jump\t// in\n    tag_258:\n        /* \"#utility.yul\":3250:3366   */\n      tag_260\n        /* \"#utility.yul\":3359:3365   */\n      dup2\n        /* \"#utility.yul\":3354:3357   */\n      dup6\n        /* \"#utility.yul\":3250:3366   */\n      tag_261\n      jump\t// in\n    tag_260:\n        /* \"#utility.yul\":3243:3366   */\n      swap4\n      pop\n        /* \"#utility.yul\":3390:3476   */\n      tag_262\n        /* \"#utility.yul\":3470:3475   */\n      dup4\n        /* \"#utility.yul\":3390:3476   */\n      tag_263\n      jump\t// in\n    tag_262:\n        /* \"#utility.yul\":3499:3506   */\n      dup1\n        /* \"#utility.yul\":3530:3531   */\n      0x00\n        /* \"#utility.yul\":3515:3889   */\n    tag_264:\n        /* \"#utility.yul\":3540:3546   */\n      dup4\n        /* \"#utility.yul\":3537:3538   */\n      dup2\n        /* \"#utility.yul\":3534:3547   */\n      lt\n        /* \"#utility.yul\":3515:3889   */\n      iszero\n      tag_266\n      jumpi\n        /* \"#utility.yul\":3616:3622   */\n      dup2\n        /* \"#utility.yul\":3610:3623   */\n      mload\n        /* \"#utility.yul\":3643:3766   */\n      tag_267\n        /* \"#utility.yul\":3762:3765   */\n      dup9\n        /* \"#utility.yul\":3747:3760   */\n      dup3\n        /* \"#utility.yul\":3643:3766   */\n      tag_248\n      jump\t// in\n    tag_267:\n        /* \"#utility.yul\":3636:3766   */\n      swap8\n      pop\n        /* \"#utility.yul\":3789:3879   */\n      tag_268\n        /* \"#utility.yul\":3872:3878   */\n      dup4\n        /* \"#utility.yul\":3789:3879   */\n      tag_269\n      jump\t// in\n    tag_268:\n        /* \"#utility.yul\":3779:3879   */\n      swap3\n      pop\n        /* \"#utility.yul\":3575:3889   */\n      pop\n        /* \"#utility.yul\":3562:3563   */\n      0x01\n        /* \"#utility.yul\":3559:3560   */\n      dup2\n        /* \"#utility.yul\":3555:3564   */\n      add\n        /* \"#utility.yul\":3550:3564   */\n      swap1\n      pop\n        /* \"#utility.yul\":3515:3889   */\n      jump(tag_264)\n    tag_266:\n        /* \"#utility.yul\":3519:3533   */\n      pop\n        /* \"#utility.yul\":3905:3908   */\n      dup6\n        /* \"#utility.yul\":3898:3908   */\n      swap4\n      pop\n        /* \"#utility.yul\":3126:3914   */\n      pop\n      pop\n      pop\n        /* \"#utility.yul\":2942:3914   */\n      swap3\n      swap2\n      pop\n      pop\n      jump\t// out\n        /* \"#utility.yul\":3920:4019   */\n    tag_270:\n        /* \"#utility.yul\":3991:4012   */\n      tag_272\n        /* \"#utility.yul\":4006:4011   */\n      dup2\n        /* \"#utility.yul\":3991:4012   */\n      tag_273\n      jump\t// in\n    tag_272:\n        /* \"#utility.yul\":3986:3989   */\n      dup3\n        /* \"#utility.yul\":3979:4013   */\n      mstore\n        /* \"#utility.yul\":3920:4019   */\n      pop\n      pop\n      jump\t// out\n        /* \"#utility.yul\":4025:4134   */\n    tag_274:\n        /* \"#utility.yul\":4106:4127   */\n      tag_276\n        /* \"#utility.yul\":4121:4126   */\n      dup2\n        /* \"#utility.yul\":4106:4127   */\n      tag_273\n      jump\t// in\n    tag_276:\n        /* \"#utility.yul\":4101:4104   */\n      dup3\n        /* \"#utility.yul\":4094:4128   */\n      mstore\n        /* \"#utility.yul\":4025:4134   */\n      pop\n      pop\n      jump\t// out\n        /* \"#utility.yul\":4140:4506   */\n    tag_277:\n        /* \"#utility.yul\":4282:4285   */\n      0x00\n        /* \"#utility.yul\":4303:4370   */\n      tag_279\n        /* \"#utility.yul\":4367:4369   */\n      0x1d\n        /* \"#utility.yul\":4362:4365   */\n      dup4\n        /* \"#utility.yul\":4303:4370   */\n      tag_280\n      jump\t// in\n    tag_279:\n        /* \"#utility.yul\":4296:4370   */\n      swap2\n      pop\n        /* \"#utility.yul\":4379:4472   */\n      tag_281\n        /* \"#utility.yul\":4468:4471   */\n      dup3\n        /* \"#utility.yul\":4379:4472   */\n      tag_282\n      jump\t// in\n    tag_281:\n        /* \"#utility.yul\":4497:4499   */\n      0x20\n        /* \"#utility.yul\":4492:4495   */\n      dup3\n        /* \"#utility.yul\":4488:4500   */\n      add\n        /* \"#utility.yul\":4481:4500   */\n      swap1\n      pop\n        /* \"#utility.yul\":4140:4506   */\n      swap2\n      swap1\n      pop\n      jump\t// out\n        /* \"#utility.yul\":4512:4878   */\n    tag_283:\n        /* \"#utility.yul\":4654:4657   */\n      0x00\n        /* \"#utility.yul\":4675:4742   */\n      tag_285\n        /* \"#utility.yul\":4739:4741   */\n      0x2b\n        /* \"#utility.yul\":4734:4737   */\n      dup4\n        /* \"#utility.yul\":4675:4742   */\n      tag_280\n      jump\t// in\n    tag_285:\n        /* \"#utility.yul\":4668:4742   */\n      swap2\n      pop\n        /* \"#utility.yul\":4751:4844   */\n      tag_286\n        /* \"#utility.yul\":4840:4843   */\n      dup3\n        /* \"#utility.yul\":4751:4844   */\n      tag_287\n      jump\t// in\n    tag_286:\n        /* \"#utility.yul\":4869:4871   */\n      0x40\n        /* \"#utility.yul\":4864:4867   */\n      dup3\n        /* \"#utility.yul\":4860:4872   */\n      add\n        /* \"#utility.yul\":4853:4872   */\n      swap1\n      pop\n        /* \"#utility.yul\":4512:4878   */\n      swap2\n      swap1\n      pop\n      jump\t// out\n        /* \"#utility.yul\":4884:5250   */\n    tag_288:\n        /* \"#utility.yul\":5026:5029   */\n      0x00\n        /* \"#utility.yul\":5047:5114   */\n      tag_290\n        /* \"#utility.yul\":5111:5113   */\n      0x25\n        /* \"#utility.yul\":5106:5109   */\n      dup4\n        /* \"#utility.yul\":5047:5114   */\n      tag_280\n      jump\t// in\n    tag_290:\n        /* \"#utility.yul\":5040:5114   */\n      swap2\n      pop\n        /* \"#utility.yul\":5123:5216   */\n      tag_291\n        /* \"#utility.yul\":5212:5215   */\n      dup3\n        /* \"#utility.yul\":5123:5216   */\n      tag_292\n      jump\t// in\n    tag_291:\n        /* \"#utility.yul\":5241:5243   */\n      0x40\n        /* \"#utility.yul\":5236:5239   */\n      dup3\n        /* \"#utility.yul\":5232:5244   */\n      add\n        /* \"#utility.yul\":5225:5244   */\n      swap1\n      pop\n        /* \"#utility.yul\":4884:5250   */\n      swap2\n      swap1\n      pop\n      jump\t// out\n        /* \"#utility.yul\":5256:5622   */\n    tag_293:\n        /* \"#utility.yul\":5398:5401   */\n      0x00\n        /* \"#utility.yul\":5419:5486   */\n      tag_295\n        /* \"#utility.yul\":5483:5485   */\n      0x21\n        /* \"#utility.yul\":5478:5481   */\n      dup4\n        /* \"#utility.yul\":5419:5486   */\n      tag_280\n      jump\t// in\n    tag_295:\n        /* \"#utility.yul\":5412:5486   */\n      swap2\n      pop\n        /* \"#utility.yul\":5495:5588   */\n      tag_296\n        /* \"#utility.yul\":5584:5587   */\n      dup3\n        /* \"#utility.yul\":5495:5588   */\n      tag_297\n      jump\t// in\n    tag_296:\n        /* \"#utility.yul\":5613:5615   */\n      0x40\n        /* \"#utility.yul\":5608:5611   */\n      dup3\n        /* \"#utility.yul\":5604:5616   */\n      add\n        /* \"#utility.yul\":5597:5616   */\n      swap1\n      pop\n        /* \"#utility.yul\":5256:5622   */\n      swap2\n      swap1\n      pop\n      jump\t// out\n        /* \"#utility.yul\":5628:5994   */\n    tag_298:\n        /* \"#utility.yul\":5770:5773   */\n      0x00\n        /* \"#utility.yul\":5791:5858   */\n      tag_300\n        /* \"#utility.yul\":5855:5857   */\n      0x1b\n        /* \"#utility.yul\":5850:5853   */\n      dup4\n        /* \"#utility.yul\":5791:5858   */\n      tag_280\n      jump\t// in\n    tag_300:\n        /* \"#utility.yul\":5784:5858   */\n      swap2\n      pop\n        /* \"#utility.yul\":5867:5960   */\n      tag_301\n        /* \"#utility.yul\":5956:5959   */\n      dup3\n        /* \"#utility.yul\":5867:5960   */\n      tag_302\n      jump\t// in\n    tag_301:\n        /* \"#utility.yul\":5985:5987   */\n      0x20\n        /* \"#utility.yul\":5980:5983   */\n      dup3\n        /* \"#utility.yul\":5976:5988   */\n      add\n        /* \"#utility.yul\":5969:5988   */\n      swap1\n      pop\n        /* \"#utility.yul\":5628:5994   */\n      swap2\n      swap1\n      pop\n      jump\t// out\n        /* \"#utility.yul\":6000:6366   */\n    tag_303:\n        /* \"#utility.yul\":6142:6145   */\n      0x00\n        /* \"#utility.yul\":6163:6230   */\n      tag_305\n        /* \"#utility.yul\":6227:6229   */\n      0x23\n        /* \"#utility.yul\":6222:6225   */\n      dup4\n        /* \"#utility.yul\":6163:6230   */\n      tag_280\n      jump\t// in\n    tag_305:\n        /* \"#utility.yul\":6156:6230   */\n      swap2\n      pop\n        /* \"#utility.yul\":6239:6332   */\n      tag_306\n        /* \"#utility.yul\":6328:6331   */\n      dup3\n        /* \"#utility.yul\":6239:6332   */\n      tag_307\n      jump\t// in\n    tag_306:\n        /* \"#utility.yul\":6357:6359   */\n      0x40\n        /* \"#utility.yul\":6352:6355   */\n      dup3\n        /* \"#utility.yul\":6348:6360   */\n      add\n        /* \"#utility.yul\":6341:6360   */\n      swap1\n      pop\n        /* \"#utility.yul\":6000:6366   */\n      swap2\n      swap1\n      pop\n      jump\t// out\n        /* \"#utility.yul\":6434:7673   */\n    tag_251:\n        /* \"#utility.yul\":6581:6585   */\n      0xc0\n        /* \"#utility.yul\":6576:6579   */\n      dup3\n        /* \"#utility.yul\":6572:6586   */\n      add\n        /* \"#utility.yul\":6678:6682   */\n      0x00\n        /* \"#utility.yul\":6671:6676   */\n      dup3\n        /* \"#utility.yul\":6667:6683   */\n      add\n        /* \"#utility.yul\":6661:6684   */\n      mload\n        /* \"#utility.yul\":6697:6760   */\n      tag_309\n        /* \"#utility.yul\":6754:6758   */\n      0x00\n        /* \"#utility.yul\":6749:6752   */\n      dup6\n        /* \"#utility.yul\":6745:6759   */\n      add\n        /* \"#utility.yul\":6731:6743   */\n      dup3\n        /* \"#utility.yul\":6697:6760   */\n      tag_310\n      jump\t// in\n    tag_309:\n        /* \"#utility.yul\":6596:6770   */\n      pop\n        /* \"#utility.yul\":6858:6862   */\n      0x20\n        /* \"#utility.yul\":6851:6856   */\n      dup3\n        /* \"#utility.yul\":6847:6863   */\n      add\n        /* \"#utility.yul\":6841:6864   */\n      mload\n        /* \"#utility.yul\":6877:6940   */\n      tag_311\n        /* \"#utility.yul\":6934:6938   */\n      0x20\n        /* \"#utility.yul\":6929:6932   */\n      dup6\n        /* \"#utility.yul\":6925:6939   */\n      add\n        /* \"#utility.yul\":6911:6923   */\n      dup3\n        /* \"#utility.yul\":6877:6940   */\n      tag_310\n      jump\t// in\n    tag_311:\n        /* \"#utility.yul\":6780:6950   */\n      pop\n        /* \"#utility.yul\":7039:7043   */\n      0x40\n        /* \"#utility.yul\":7032:7037   */\n      dup3\n        /* \"#utility.yul\":7028:7044   */\n      add\n        /* \"#utility.yul\":7022:7045   */\n      mload\n        /* \"#utility.yul\":7058:7121   */\n      tag_312\n        /* \"#utility.yul\":7115:7119   */\n      0x40\n        /* \"#utility.yul\":7110:7113   */\n      dup6\n        /* \"#utility.yul\":7106:7120   */\n      add\n        /* \"#utility.yul\":7092:7104   */\n      dup3\n        /* \"#utility.yul\":7058:7121   */\n      tag_310\n      jump\t// in\n    tag_312:\n        /* \"#utility.yul\":6960:7131   */\n      pop\n        /* \"#utility.yul\":7222:7226   */\n      0x60\n        /* \"#utility.yul\":7215:7220   */\n      dup3\n        /* \"#utility.yul\":7211:7227   */\n      add\n        /* \"#utility.yul\":7205:7228   */\n      mload\n        /* \"#utility.yul\":7241:7304   */\n      tag_313\n        /* \"#utility.yul\":7298:7302   */\n      0x60\n        /* \"#utility.yul\":7293:7296   */\n      dup6\n        /* \"#utility.yul\":7289:7303   */\n      add\n        /* \"#utility.yul\":7275:7287   */\n      dup3\n        /* \"#utility.yul\":7241:7304   */\n      tag_310\n      jump\t// in\n    tag_313:\n        /* \"#utility.yul\":7141:7314   */\n      pop\n        /* \"#utility.yul\":7403:7407   */\n      0x80\n        /* \"#utility.yul\":7396:7401   */\n      dup3\n        /* \"#utility.yul\":7392:7408   */\n      add\n        /* \"#utility.yul\":7386:7409   */\n      mload\n        /* \"#utility.yul\":7422:7485   */\n      tag_314\n        /* \"#utility.yul\":7479:7483   */\n      0x80\n        /* \"#utility.yul\":7474:7477   */\n      dup6\n        /* \"#utility.yul\":7470:7484   */\n      add\n        /* \"#utility.yul\":7456:7468   */\n      dup3\n        /* \"#utility.yul\":7422:7485   */\n      tag_310\n      jump\t// in\n    tag_314:\n        /* \"#utility.yul\":7324:7495   */\n      pop\n        /* \"#utility.yul\":7580:7584   */\n      0xa0\n        /* \"#utility.yul\":7573:7578   */\n      dup3\n        /* \"#utility.yul\":7569:7585   */\n      add\n        /* \"#utility.yul\":7563:7586   */\n      mload\n        /* \"#utility.yul\":7599:7656   */\n      tag_315\n        /* \"#utility.yul\":7650:7654   */\n      0xa0\n        /* \"#utility.yul\":7645:7648   */\n      dup6\n        /* \"#utility.yul\":7641:7655   */\n      add\n        /* \"#utility.yul\":7627:7639   */\n      dup3\n        /* \"#utility.yul\":7599:7656   */\n      tag_270\n      jump\t// in\n    tag_315:\n        /* \"#utility.yul\":7505:7666   */\n      pop\n        /* \"#utility.yul\":6550:7673   */\n      pop\n        /* \"#utility.yul\":6434:7673   */\n      pop\n      pop\n      jump\t// out\n        /* \"#utility.yul\":7679:7787   */\n    tag_310:\n        /* \"#utility.yul\":7756:7780   */\n      tag_317\n        /* \"#utility.yul\":7774:7779   */\n      dup2\n        /* \"#utility.yul\":7756:7780   */\n      tag_318\n      jump\t// in\n    tag_317:\n        /* \"#utility.yul\":7751:7754   */\n      dup3\n        /* \"#utility.yul\":7744:7781   */\n      mstore\n        /* \"#utility.yul\":7679:7787   */\n      pop\n      pop\n      jump\t// out\n        /* \"#utility.yul\":7793:7911   */\n    tag_319:\n        /* \"#utility.yul\":7880:7904   */\n      tag_321\n        /* \"#utility.yul\":7898:7903   */\n      dup2\n        /* \"#utility.yul\":7880:7904   */\n      tag_318\n      jump\t// in\n    tag_321:\n        /* \"#utility.yul\":7875:7878   */\n      dup3\n        /* \"#utility.yul\":7868:7905   */\n      mstore\n        /* \"#utility.yul\":7793:7911   */\n      pop\n      pop\n      jump\t// out\n        /* \"#utility.yul\":7917:8139   */\n    tag_24:\n        /* \"#utility.yul\":8010:8014   */\n      0x00\n        /* \"#utility.yul\":8048:8050   */\n      0x20\n        /* \"#utility.yul\":8037:8046   */\n      dup3\n        /* \"#utility.yul\":8033:8051   */\n      add\n        /* \"#utility.yul\":8025:8051   */\n      swap1\n      pop\n        /* \"#utility.yul\":8061:8132   */\n      tag_323\n        /* \"#utility.yul\":8129:8130   */\n      0x00\n        /* \"#utility.yul\":8118:8127   */\n      dup4\n        /* \"#utility.yul\":8114:8131   */\n      add\n        /* \"#utility.yul\":8105:8111   */\n      dup5\n        /* \"#utility.yul\":8061:8132   */\n      tag_252\n      jump\t// in\n    tag_323:\n        /* \"#utility.yul\":7917:8139   */\n      swap3\n      swap2\n      pop\n      pop\n      jump\t// out\n        /* \"#utility.yul\":8145:8587   */\n    tag_156:\n        /* \"#utility.yul\":8294:8298   */\n      0x00\n        /* \"#utility.yul\":8332:8334   */\n      0x60\n        /* \"#utility.yul\":8321:8330   */\n      dup3\n        /* \"#utility.yul\":8317:8335   */\n      add\n        /* \"#utility.yul\":8309:8335   */\n      swap1\n      pop\n        /* \"#utility.yul\":8345:8416   */\n      tag_325\n        /* \"#utility.yul\":8413:8414   */\n      0x00\n        /* \"#utility.yul\":8402:8411   */\n      dup4\n        /* \"#utility.yul\":8398:8415   */\n      add\n        /* \"#utility.yul\":8389:8395   */\n      dup7\n        /* \"#utility.yul\":8345:8416   */\n      tag_252\n      jump\t// in\n    tag_325:\n        /* \"#utility.yul\":8426:8498   */\n      tag_326\n        /* \"#utility.yul\":8494:8496   */\n      0x20\n        /* \"#utility.yul\":8483:8492   */\n      dup4\n        /* \"#utility.yul\":8479:8497   */\n      add\n        /* \"#utility.yul\":8470:8476   */\n      dup6\n        /* \"#utility.yul\":8426:8498   */\n      tag_252\n      jump\t// in\n    tag_326:\n        /* \"#utility.yul\":8508:8580   */\n      tag_327\n        /* \"#utility.yul\":8576:8578   */\n      0x40\n        /* \"#utility.yul\":8565:8574   */\n      dup4\n        /* \"#utility.yul\":8561:8579   */\n      add\n        /* \"#utility.yul\":8552:8558   */\n      dup5\n        /* \"#utility.yul\":8508:8580   */\n      tag_319\n      jump\t// in\n    tag_327:\n        /* \"#utility.yul\":8145:8587   */\n      swap5\n      swap4\n      pop\n      pop\n      pop\n      pop\n      jump\t// out\n        /* \"#utility.yul\":8593:8925   */\n    tag_92:\n        /* \"#utility.yul\":8714:8718   */\n      0x00\n        /* \"#utility.yul\":8752:8754   */\n      0x40\n        /* \"#utility.yul\":8741:8750   */\n      dup3\n        /* \"#utility.yul\":8737:8755   */\n      add\n        /* \"#utility.yul\":8729:8755   */\n      swap1\n      pop\n        /* \"#utility.yul\":8765:8836   */\n      tag_329\n        /* \"#utility.yul\":8833:8834   */\n      0x00\n        /* \"#utility.yul\":8822:8831   */\n      dup4\n        /* \"#utility.yul\":8818:8835   */\n      add\n        /* \"#utility.yul\":8809:8815   */\n      dup6\n        /* \"#utility.yul\":8765:8836   */\n      tag_252\n      jump\t// in\n    tag_329:\n        /* \"#utility.yul\":8846:8918   */\n      tag_330\n        /* \"#utility.yul\":8914:8916   */\n      0x20\n        /* \"#utility.yul\":8903:8912   */\n      dup4\n        /* \"#utility.yul\":8899:8917   */\n      add\n        /* \"#utility.yul\":8890:8896   */\n      dup5\n        /* \"#utility.yul\":8846:8918   */\n      tag_319\n      jump\t// in\n    tag_330:\n        /* \"#utility.yul\":8593:8925   */\n      swap4\n      swap3\n      pop\n      pop\n      pop\n      jump\t// out\n        /* \"#utility.yul\":8931:9424   */\n    tag_39:\n        /* \"#utility.yul\":9134:9138   */\n      0x00\n        /* \"#utility.yul\":9172:9174   */\n      0x20\n        /* \"#utility.yul\":9161:9170   */\n      dup3\n        /* \"#utility.yul\":9157:9175   */\n      add\n        /* \"#utility.yul\":9149:9175   */\n      swap1\n      pop\n        /* \"#utility.yul\":9221:9230   */\n      dup2\n        /* \"#utility.yul\":9215:9219   */\n      dup2\n        /* \"#utility.yul\":9211:9231   */\n      sub\n        /* \"#utility.yul\":9207:9208   */\n      0x00\n        /* \"#utility.yul\":9196:9205   */\n      dup4\n        /* \"#utility.yul\":9192:9209   */\n      add\n        /* \"#utility.yul\":9185:9232   */\n      mstore\n        /* \"#utility.yul\":9249:9417   */\n      tag_332\n        /* \"#utility.yul\":9412:9416   */\n      dup2\n        /* \"#utility.yul\":9403:9409   */\n      dup5\n        /* \"#utility.yul\":9249:9417   */\n      tag_256\n      jump\t// in\n    tag_332:\n        /* \"#utility.yul\":9241:9417   */\n      swap1\n      pop\n        /* \"#utility.yul\":8931:9424   */\n      swap3\n      swap2\n      pop\n      pop\n      jump\t// out\n        /* \"#utility.yul\":9430:9640   */\n    tag_30:\n        /* \"#utility.yul\":9517:9521   */\n      0x00\n        /* \"#utility.yul\":9555:9557   */\n      0x20\n        /* \"#utility.yul\":9544:9553   */\n      dup3\n        /* \"#utility.yul\":9540:9558   */\n      add\n        /* \"#utility.yul\":9532:9558   */\n      swap1\n      pop\n        /* \"#utility.yul\":9568:9633   */\n      tag_334\n        /* \"#utility.yul\":9630:9631   */\n      0x00\n        /* \"#utility.yul\":9619:9628   */\n      dup4\n        /* \"#utility.yul\":9615:9632   */\n      add\n        /* \"#utility.yul\":9606:9612   */\n      dup5\n        /* \"#utility.yul\":9568:9633   */\n      tag_274\n      jump\t// in\n    tag_334:\n        /* \"#utility.yul\":9430:9640   */\n      swap3\n      swap2\n      pop\n      pop\n      jump\t// out\n        /* \"#utility.yul\":9646:10065   */\n    tag_82:\n        /* \"#utility.yul\":9812:9816   */\n      0x00\n        /* \"#utility.yul\":9850:9852   */\n      0x20\n        /* \"#utility.yul\":9839:9848   */\n      dup3\n        /* \"#utility.yul\":9835:9853   */\n      add\n        /* \"#utility.yul\":9827:9853   */\n      swap1\n      pop\n        /* \"#utility.yul\":9899:9908   */\n      dup2\n        /* \"#utility.yul\":9893:9897   */\n      dup2\n        /* \"#utility.yul\":9889:9909   */\n      sub\n        /* \"#utility.yul\":9885:9886   */\n      0x00\n        /* \"#utility.yul\":9874:9883   */\n      dup4\n        /* \"#utility.yul\":9870:9887   */\n      add\n        /* \"#utility.yul\":9863:9910   */\n      mstore\n        /* \"#utility.yul\":9927:10058   */\n      tag_336\n        /* \"#utility.yul\":10053:10057   */\n      dup2\n        /* \"#utility.yul\":9927:10058   */\n      tag_277\n      jump\t// in\n    tag_336:\n        /* \"#utility.yul\":9919:10058   */\n      swap1\n      pop\n        /* \"#utility.yul\":9646:10065   */\n      swap2\n      swap1\n      pop\n      jump\t// out\n        /* \"#utility.yul\":10071:10490   */\n    tag_88:\n        /* \"#utility.yul\":10237:10241   */\n      0x00\n        /* \"#utility.yul\":10275:10277   */\n      0x20\n        /* \"#utility.yul\":10264:10273   */\n      dup3\n        /* \"#utility.yul\":10260:10278   */\n      add\n        /* \"#utility.yul\":10252:10278   */\n      swap1\n      pop\n        /* \"#utility.yul\":10324:10333   */\n      dup2\n        /* \"#utility.yul\":10318:10322   */\n      dup2\n        /* \"#utility.yul\":10314:10334   */\n      sub\n        /* \"#utility.yul\":10310:10311   */\n      0x00\n        /* \"#utility.yul\":10299:10308   */\n      dup4\n        /* \"#utility.yul\":10295:10312   */\n      add\n        /* \"#utility.yul\":10288:10335   */\n      mstore\n        /* \"#utility.yul\":10352:10483   */\n      tag_338\n        /* \"#utility.yul\":10478:10482   */\n      dup2\n        /* \"#utility.yul\":10352:10483   */\n      tag_283\n      jump\t// in\n    tag_338:\n        /* \"#utility.yul\":10344:10483   */\n      swap1\n      pop\n        /* \"#utility.yul\":10071:10490   */\n      swap2\n      swap1\n      pop\n      jump\t// out\n        /* \"#utility.yul\":10496:10915   */\n    tag_143:\n        /* \"#utility.yul\":10662:10666   */\n      0x00\n        /* \"#utility.yul\":10700:10702   */\n      0x20\n        /* \"#utility.yul\":10689:10698   */\n      dup3\n        /* \"#utility.yul\":10685:10703   */\n      add\n        /* \"#utility.yul\":10677:10703   */\n      swap1\n      pop\n        /* \"#utility.yul\":10749:10758   */\n      dup2\n        /* \"#utility.yul\":10743:10747   */\n      dup2\n        /* \"#utility.yul\":10739:10759   */\n      sub\n        /* \"#utility.yul\":10735:10736   */\n      0x00\n        /* \"#utility.yul\":10724:10733   */\n      dup4\n        /* \"#utility.yul\":10720:10737   */\n      add\n        /* \"#utility.yul\":10713:10760   */\n      mstore\n        /* \"#utility.yul\":10777:10908   */\n      tag_340\n        /* \"#utility.yul\":10903:10907   */\n      dup2\n        /* \"#utility.yul\":10777:10908   */\n      tag_288\n      jump\t// in\n    tag_340:\n        /* \"#utility.yul\":10769:10908   */\n      swap1\n      pop\n        /* \"#utility.yul\":10496:10915   */\n      swap2\n      swap1\n      pop\n      jump\t// out\n        /* \"#utility.yul\":10921:11340   */\n    tag_182:\n        /* \"#utility.yul\":11087:11091   */\n      0x00\n        /* \"#utility.yul\":11125:11127   */\n      0x20\n        /* \"#utility.yul\":11114:11123   */\n      dup3\n        /* \"#utility.yul\":11110:11128   */\n      add\n        /* \"#utility.yul\":11102:11128   */\n      swap1\n      pop\n        /* \"#utility.yul\":11174:11183   */\n      dup2\n        /* \"#utility.yul\":11168:11172   */\n      dup2\n        /* \"#utility.yul\":11164:11184   */\n      sub\n        /* \"#utility.yul\":11160:11161   */\n      0x00\n        /* \"#utility.yul\":11149:11158   */\n      dup4\n        /* \"#utility.yul\":11145:11162   */\n      add\n        /* \"#utility.yul\":11138:11185   */\n      mstore\n        /* \"#utility.yul\":11202:11333   */\n      tag_342\n        /* \"#utility.yul\":11328:11332   */\n      dup2\n        /* \"#utility.yul\":11202:11333   */\n      tag_293\n      jump\t// in\n    tag_342:\n        /* \"#utility.yul\":11194:11333   */\n      swap1\n      pop\n        /* \"#utility.yul\":10921:11340   */\n      swap2\n      swap1\n      pop\n      jump\t// out\n        /* \"#utility.yul\":11346:11765   */\n    tag_163:\n        /* \"#utility.yul\":11512:11516   */\n      0x00\n        /* \"#utility.yul\":11550:11552   */\n      0x20\n        /* \"#utility.yul\":11539:11548   */\n      dup3\n        /* \"#utility.yul\":11535:11553   */\n      add\n        /* \"#utility.yul\":11527:11553   */\n      swap1\n      pop\n        /* \"#utility.yul\":11599:11608   */\n      dup2\n        /* \"#utility.yul\":11593:11597   */\n      dup2\n        /* \"#utility.yul\":11589:11609   */\n      sub\n        /* \"#utility.yul\":11585:11586   */\n      0x00\n        /* \"#utility.yul\":11574:11583   */\n      dup4\n        /* \"#utility.yul\":11570:11587   */\n      add\n        /* \"#utility.yul\":11563:11610   */\n      mstore\n        /* \"#utility.yul\":11627:11758   */\n      tag_344\n        /* \"#utility.yul\":11753:11757   */\n      dup2\n        /* \"#utility.yul\":11627:11758   */\n      tag_298\n      jump\t// in\n    tag_344:\n        /* \"#utility.yul\":11619:11758   */\n      swap1\n      pop\n        /* \"#utility.yul\":11346:11765   */\n      swap2\n      swap1\n      pop\n      jump\t// out\n        /* \"#utility.yul\":11771:12190   */\n    tag_153:\n        /* \"#utility.yul\":11937:11941   */\n      0x00\n        /* \"#utility.yul\":11975:11977   */\n      0x20\n        /* \"#utility.yul\":11964:11973   */\n      dup3\n        /* \"#utility.yul\":11960:11978   */\n      add\n        /* \"#utility.yul\":11952:11978   */\n      swap1\n      pop\n        /* \"#utility.yul\":12024:12033   */\n      dup2\n        /* \"#utility.yul\":12018:12022   */\n      dup2\n        /* \"#utility.yul\":12014:12034   */\n      sub\n        /* \"#utility.yul\":12010:12011   */\n      0x00\n        /* \"#utility.yul\":11999:12008   */\n      dup4\n        /* \"#utility.yul\":11995:12012   */\n      add\n        /* \"#utility.yul\":11988:12035   */\n      mstore\n        /* \"#utility.yul\":12052:12183   */\n      tag_346\n        /* \"#utility.yul\":12178:12182   */\n      dup2\n        /* \"#utility.yul\":12052:12183   */\n      tag_303\n      jump\t// in\n    tag_346:\n        /* \"#utility.yul\":12044:12183   */\n      swap1\n      pop\n        /* \"#utility.yul\":11771:12190   */\n      swap2\n      swap1\n      pop\n      jump\t// out\n        /* \"#utility.yul\":12196:12418   */\n    tag_43:\n        /* \"#utility.yul\":12289:12293   */\n      0x00\n        /* \"#utility.yul\":12327:12329   */\n      0x20\n        /* \"#utility.yul\":12316:12325   */\n      dup3\n        /* \"#utility.yul\":12312:12330   */\n      add\n        /* \"#utility.yul\":12304:12330   */\n      swap1\n      pop\n        /* \"#utility.yul\":12340:12411   */\n      tag_348\n        /* \"#utility.yul\":12408:12409   */\n      0x00\n        /* \"#utility.yul\":12397:12406   */\n      dup4\n        /* \"#utility.yul\":12393:12410   */\n      add\n        /* \"#utility.yul\":12384:12390   */\n      dup5\n        /* \"#utility.yul\":12340:12411   */\n      tag_319\n      jump\t// in\n    tag_348:\n        /* \"#utility.yul\":12196:12418   */\n      swap3\n      swap2\n      pop\n      pop\n      jump\t// out\n        /* \"#utility.yul\":12424:13076   */\n    tag_58:\n        /* \"#utility.yul\":12623:12627   */\n      0x00\n        /* \"#utility.yul\":12661:12664   */\n      0xa0\n        /* \"#utility.yul\":12650:12659   */\n      dup3\n        /* \"#utility.yul\":12646:12665   */\n      add\n        /* \"#utility.yul\":12638:12665   */\n      swap1\n      pop\n        /* \"#utility.yul\":12675:12746   */\n      tag_350\n        /* \"#utility.yul\":12743:12744   */\n      0x00\n        /* \"#utility.yul\":12732:12741   */\n      dup4\n        /* \"#utility.yul\":12728:12745   */\n      add\n        /* \"#utility.yul\":12719:12725   */\n      dup9\n        /* \"#utility.yul\":12675:12746   */\n      tag_319\n      jump\t// in\n    tag_350:\n        /* \"#utility.yul\":12756:12828   */\n      tag_351\n        /* \"#utility.yul\":12824:12826   */\n      0x20\n        /* \"#utility.yul\":12813:12822   */\n      dup4\n        /* \"#utility.yul\":12809:12827   */\n      add\n        /* \"#utility.yul\":12800:12806   */\n      dup8\n        /* \"#utility.yul\":12756:12828   */\n      tag_252\n      jump\t// in\n    tag_351:\n        /* \"#utility.yul\":12838:12904   */\n      tag_352\n        /* \"#utility.yul\":12900:12902   */\n      0x40\n        /* \"#utility.yul\":12889:12898   */\n      dup4\n        /* \"#utility.yul\":12885:12903   */\n      add\n        /* \"#utility.yul\":12876:12882   */\n      dup7\n        /* \"#utility.yul\":12838:12904   */\n      tag_274\n      jump\t// in\n    tag_352:\n        /* \"#utility.yul\":12914:12986   */\n      tag_353\n        /* \"#utility.yul\":12982:12984   */\n      0x60\n        /* \"#utility.yul\":12971:12980   */\n      dup4\n        /* \"#utility.yul\":12967:12985   */\n      add\n        /* \"#utility.yul\":12958:12964   */\n      dup6\n        /* \"#utility.yul\":12914:12986   */\n      tag_319\n      jump\t// in\n    tag_353:\n        /* \"#utility.yul\":12996:13069   */\n      tag_354\n        /* \"#utility.yul\":13064:13067   */\n      0x80\n        /* \"#utility.yul\":13053:13062   */\n      dup4\n        /* \"#utility.yul\":13049:13068   */\n      add\n        /* \"#utility.yul\":13040:13046   */\n      dup5\n        /* \"#utility.yul\":12996:13069   */\n      tag_319\n      jump\t// in\n    tag_354:\n        /* \"#utility.yul\":12424:13076   */\n      swap7\n      swap6\n      pop\n      pop\n      pop\n      pop\n      pop\n      pop\n      jump\t// out\n        /* \"#utility.yul\":13082:13524   */\n    tag_35:\n        /* \"#utility.yul\":13231:13235   */\n      0x00\n        /* \"#utility.yul\":13269:13271   */\n      0x60\n        /* \"#utility.yul\":13258:13267   */\n      dup3\n        /* \"#utility.yul\":13254:13272   */\n      add\n        /* \"#utility.yul\":13246:13272   */\n      swap1\n      pop\n        /* \"#utility.yul\":13282:13353   */\n      tag_356\n        /* \"#utility.yul\":13350:13351   */\n      0x00\n        /* \"#utility.yul\":13339:13348   */\n      dup4\n        /* \"#utility.yul\":13335:13352   */\n      add\n        /* \"#utility.yul\":13326:13332   */\n      dup7\n        /* \"#utility.yul\":13282:13353   */\n      tag_319\n      jump\t// in\n    tag_356:\n        /* \"#utility.yul\":13363:13435   */\n      tag_357\n        /* \"#utility.yul\":13431:13433   */\n      0x20\n        /* \"#utility.yul\":13420:13429   */\n      dup4\n        /* \"#utility.yul\":13416:13434   */\n      add\n        /* \"#utility.yul\":13407:13413   */\n      dup6\n        /* \"#utility.yul\":13363:13435   */\n      tag_319\n      jump\t// in\n    tag_357:\n        /* \"#utility.yul\":13445:13517   */\n      tag_358\n        /* \"#utility.yul\":13513:13515   */\n      0x40\n        /* \"#utility.yul\":13502:13511   */\n      dup4\n        /* \"#utility.yul\":13498:13516   */\n      add\n        /* \"#utility.yul\":13489:13495   */\n      dup5\n        /* \"#utility.yul\":13445:13517   */\n      tag_319\n      jump\t// in\n    tag_358:\n        /* \"#utility.yul\":13082:13524   */\n      swap5\n      swap4\n      pop\n      pop\n      pop\n      pop\n      jump\t// out\n        /* \"#utility.yul\":13611:13773   */\n    tag_263:\n        /* \"#utility.yul\":13708:13712   */\n      0x00\n        /* \"#utility.yul\":13731:13734   */\n      dup2\n        /* \"#utility.yul\":13723:13734   */\n      swap1\n      pop\n        /* \"#utility.yul\":13761:13765   */\n      0x20\n        /* \"#utility.yul\":13756:13759   */\n      dup3\n        /* \"#utility.yul\":13752:13766   */\n      add\n        /* \"#utility.yul\":13744:13766   */\n      swap1\n      pop\n        /* \"#utility.yul\":13611:13773   */\n      swap2\n      swap1\n      pop\n      jump\t// out\n        /* \"#utility.yul\":13779:13923   */\n    tag_259:\n        /* \"#utility.yul\":13876:13882   */\n      0x00\n        /* \"#utility.yul\":13910:13915   */\n      dup2\n        /* \"#utility.yul\":13904:13916   */\n      mload\n        /* \"#utility.yul\":13894:13916   */\n      swap1\n      pop\n        /* \"#utility.yul\":13779:13923   */\n      swap2\n      swap1\n      pop\n      jump\t// out\n        /* \"#utility.yul\":13929:14072   */\n    tag_269:\n        /* \"#utility.yul\":14029:14033   */\n      0x00\n        /* \"#utility.yul\":14061:14065   */\n      0x20\n        /* \"#utility.yul\":14056:14059   */\n      dup3\n        /* \"#utility.yul\":14052:14066   */\n      add\n        /* \"#utility.yul\":14044:14066   */\n      swap1\n      pop\n        /* \"#utility.yul\":13929:14072   */\n      swap2\n      swap1\n      pop\n      jump\t// out\n        /* \"#utility.yul\":14078:14292   */\n    tag_261:\n        /* \"#utility.yul\":14207:14218   */\n      0x00\n        /* \"#utility.yul\":14241:14247   */\n      dup3\n        /* \"#utility.yul\":14236:14239   */\n      dup3\n        /* \"#utility.yul\":14229:14248   */\n      mstore\n        /* \"#utility.yul\":14281:14285   */\n      0x20\n        /* \"#utility.yul\":14276:14279   */\n      dup3\n        /* \"#utility.yul\":14272:14286   */\n      add\n        /* \"#utility.yul\":14257:14286   */\n      swap1\n      pop\n        /* \"#utility.yul\":14078:14292   */\n      swap3\n      swap2\n      pop\n      pop\n      jump\t// out\n        /* \"#utility.yul\":14298:14467   */\n    tag_280:\n        /* \"#utility.yul\":14382:14393   */\n      0x00\n        /* \"#utility.yul\":14416:14422   */\n      dup3\n        /* \"#utility.yul\":14411:14414   */\n      dup3\n        /* \"#utility.yul\":14404:14423   */\n      mstore\n        /* \"#utility.yul\":14456:14460   */\n      0x20\n        /* \"#utility.yul\":14451:14454   */\n      dup3\n        /* \"#utility.yul\":14447:14461   */\n      add\n        /* \"#utility.yul\":14432:14461   */\n      swap1\n      pop\n        /* \"#utility.yul\":14298:14467   */\n      swap3\n      swap2\n      pop\n      pop\n      jump\t// out\n        /* \"#utility.yul\":14473:14778   */\n    tag_166:\n        /* \"#utility.yul\":14513:14516   */\n      0x00\n        /* \"#utility.yul\":14532:14552   */\n      tag_367\n        /* \"#utility.yul\":14550:14551   */\n      dup3\n        /* \"#utility.yul\":14532:14552   */\n      tag_318\n      jump\t// in\n    tag_367:\n        /* \"#utility.yul\":14527:14552   */\n      swap2\n      pop\n        /* \"#utility.yul\":14566:14586   */\n      tag_368\n        /* \"#utility.yul\":14584:14585   */\n      dup4\n        /* \"#utility.yul\":14566:14586   */\n      tag_318\n      jump\t// in\n    tag_368:\n        /* \"#utility.yul\":14561:14586   */\n      swap3\n      pop\n        /* \"#utility.yul\":14720:14721   */\n      dup3\n        /* \"#utility.yul\":14652:14718   */\n      0xffffffffffffffffffffffffffffffffffffffffffffffffffffffffffffffff\n        /* \"#utility.yul\":14648:14722   */\n      sub\n        /* \"#utility.yul\":14645:14646   */\n      dup3\n        /* \"#utility.yul\":14642:14723   */\n      gt\n        /* \"#utility.yul\":14639:14746   */\n      iszero\n      tag_369\n      jumpi\n        /* \"#utility.yul\":14726:14744   */\n      tag_370\n      tag_371\n      jump\t// in\n    tag_370:\n        /* \"#utility.yul\":14639:14746   */\n    tag_369:\n        /* \"#utility.yul\":14770:14771   */\n      dup3\n        /* \"#utility.yul\":14767:14768   */\n      dup3\n        /* \"#utility.yul\":14763:14772   */\n      add\n        /* \"#utility.yul\":14756:14772   */\n      swap1\n      pop\n        /* \"#utility.yul\":14473:14778   */\n      swap3\n      swap2\n      pop\n      pop\n      jump\t// out\n        /* \"#utility.yul\":14784:14969   */\n    tag_206:\n        /* \"#utility.yul\":14824:14825   */\n      0x00\n        /* \"#utility.yul\":14841:14861   */\n      tag_373\n        /* \"#utility.yul\":14859:14860   */\n      dup3\n        /* \"#utility.yul\":14841:14861   */\n      tag_318\n      jump\t// in\n    tag_373:\n        /* \"#utility.yul\":14836:14861   */\n      swap2\n      pop\n        /* \"#utility.yul\":14875:14895   */\n      tag_374\n        /* \"#utility.yul\":14893:14894   */\n      dup4\n        /* \"#utility.yul\":14875:14895   */\n      tag_318\n      jump\t// in\n    tag_374:\n        /* \"#utility.yul\":14870:14895   */\n      swap3\n      pop\n        /* \"#utility.yul\":14914:14915   */\n      dup3\n        /* \"#utility.yul\":14904:14939   */\n      tag_375\n      jumpi\n        /* \"#utility.yul\":14919:14937   */\n      tag_376\n      tag_377\n      jump\t// in\n    tag_376:\n        /* \"#utility.yul\":14904:14939   */\n    tag_375:\n        /* \"#utility.yul\":14961:14962   */\n      dup3\n        /* \"#utility.yul\":14958:14959   */\n      dup3\n        /* \"#utility.yul\":14954:14963   */\n      div\n        /* \"#utility.yul\":14949:14963   */\n      swap1\n      pop\n        /* \"#utility.yul\":14784:14969   */\n      swap3\n      swap2\n      pop\n      pop\n      jump\t// out\n        /* \"#utility.yul\":14975:15323   */\n    tag_90:\n        /* \"#utility.yul\":15015:15022   */\n      0x00\n        /* \"#utility.yul\":15038:15058   */\n      tag_379\n        /* \"#utility.yul\":15056:15057   */\n      dup3\n        /* \"#utility.yul\":15038:15058   */\n      tag_318\n      jump\t// in\n    tag_379:\n        /* \"#utility.yul\":15033:15058   */\n      swap2\n      pop\n        /* \"#utility.yul\":15072:15092   */\n      tag_380\n        /* \"#utility.yul\":15090:15091   */\n      dup4\n        /* \"#utility.yul\":15072:15092   */\n      tag_318\n      jump\t// in\n    tag_380:\n        /* \"#utility.yul\":15067:15092   */\n      swap3\n      pop\n        /* \"#utility.yul\":15260:15261   */\n      dup2\n        /* \"#utility.yul\":15192:15258   */\n      0xffffffffffffffffffffffffffffffffffffffffffffffffffffffffffffffff\n        /* \"#utility.yul\":15188:15262   */\n      div\n        /* \"#utility.yul\":15185:15186   */\n      dup4\n        /* \"#utility.yul\":15182:15263   */\n      gt\n        /* \"#utility.yul\":15177:15178   */\n      dup3\n        /* \"#utility.yul\":15170:15179   */\n      iszero\n        /* \"#utility.yul\":15163:15180   */\n      iszero\n        /* \"#utility.yul\":15159:15264   */\n      and\n        /* \"#utility.yul\":15156:15287   */\n      iszero\n      tag_381\n      jumpi\n        /* \"#utility.yul\":15267:15285   */\n      tag_382\n      tag_371\n      jump\t// in\n    tag_382:\n        /* \"#utility.yul\":15156:15287   */\n    tag_381:\n        /* \"#utility.yul\":15315:15316   */\n      dup3\n        /* \"#utility.yul\":15312:15313   */\n      dup3\n        /* \"#utility.yul\":15308:15317   */\n      mul\n        /* \"#utility.yul\":15297:15317   */\n      swap1\n      pop\n        /* \"#utility.yul\":14975:15323   */\n      swap3\n      swap2\n      pop\n      pop\n      jump\t// out\n        /* \"#utility.yul\":15329:15520   */\n    tag_99:\n        /* \"#utility.yul\":15369:15373   */\n      0x00\n        /* \"#utility.yul\":15389:15409   */\n      tag_384\n        /* \"#utility.yul\":15407:15408   */\n      dup3\n        /* \"#utility.yul\":15389:15409   */\n      tag_318\n      jump\t// in\n    tag_384:\n        /* \"#utility.yul\":15384:15409   */\n      swap2\n      pop\n        /* \"#utility.yul\":15423:15443   */\n      tag_385\n        /* \"#utility.yul\":15441:15442   */\n      dup4\n        /* \"#utility.yul\":15423:15443   */\n      tag_318\n      jump\t// in\n    tag_385:\n        /* \"#utility.yul\":15418:15443   */\n      swap3\n      pop\n        /* \"#utility.yul\":15462:15463   */\n      dup3\n        /* \"#utility.yul\":15459:15460   */\n      dup3\n        /* \"#utility.yul\":15456:15464   */\n      lt\n        /* \"#utility.yul\":15453:15487   */\n      iszero\n      tag_386\n      jumpi\n        /* \"#utility.yul\":15467:15485   */\n      tag_387\n      tag_371\n      jump\t// in\n    tag_387:\n        /* \"#utility.yul\":15453:15487   */\n    tag_386:\n        /* \"#utility.yul\":15512:15513   */\n      dup3\n        /* \"#utility.yul\":15509:15510   */\n      dup3\n        /* \"#utility.yul\":15505:15514   */\n      sub\n        /* \"#utility.yul\":15497:15514   */\n      swap1\n      pop\n        /* \"#utility.yul\":15329:15520   */\n      swap3\n      swap2\n      pop\n      pop\n      jump\t// out\n        /* \"#utility.yul\":15526:15622   */\n    tag_255:\n        /* \"#utility.yul\":15563:15570   */\n      0x00\n        /* \"#utility.yul\":15592:15616   */\n      tag_389\n        /* \"#utility.yul\":15610:15615   */\n      dup3\n        /* \"#utility.yul\":15592:15616   */\n      tag_390\n      jump\t// in\n    tag_389:\n        /* \"#utility.yul\":15581:15616   */\n      swap1\n      pop\n        /* \"#utility.yul\":15526:15622   */\n      swap2\n      swap1\n      pop\n      jump\t// out\n        /* \"#utility.yul\":15628:15718   */\n    tag_273:\n        /* \"#utility.yul\":15662:15669   */\n      0x00\n        /* \"#utility.yul\":15705:15710   */\n      dup2\n        /* \"#utility.yul\":15698:15711   */\n      iszero\n        /* \"#utility.yul\":15691:15712   */\n      iszero\n        /* \"#utility.yul\":15680:15712   */\n      swap1\n      pop\n        /* \"#utility.yul\":15628:15718   */\n      swap2\n      swap1\n      pop\n      jump\t// out\n        /* \"#utility.yul\":15724:15850   */\n    tag_390:\n        /* \"#utility.yul\":15761:15768   */\n      0x00\n        /* \"#utility.yul\":15801:15843   */\n      0xffffffffffffffffffffffffffffffffffffffff\n        /* \"#utility.yul\":15794:15799   */\n      dup3\n        /* \"#utility.yul\":15790:15844   */\n      and\n        /* \"#utility.yul\":15779:15844   */\n      swap1\n      pop\n        /* \"#utility.yul\":15724:15850   */\n      swap2\n      swap1\n      pop\n      jump\t// out\n        /* \"#utility.yul\":15856:15933   */\n    tag_318:\n        /* \"#utility.yul\":15893:15900   */\n      0x00\n        /* \"#utility.yul\":15922:15927   */\n      dup2\n        /* \"#utility.yul\":15911:15927   */\n      swap1\n      pop\n        /* \"#utility.yul\":15856:15933   */\n      swap2\n      swap1\n      pop\n      jump\t// out\n        /* \"#utility.yul\":15939:16172   */\n    tag_107:\n        /* \"#utility.yul\":15978:15981   */\n      0x00\n        /* \"#utility.yul\":16001:16025   */\n      tag_395\n        /* \"#utility.yul\":16019:16024   */\n      dup3\n        /* \"#utility.yul\":16001:16025   */\n      tag_318\n      jump\t// in\n    tag_395:\n        /* \"#utility.yul\":15992:16025   */\n      swap2\n      pop\n        /* \"#utility.yul\":16047:16113   */\n      0xffffffffffffffffffffffffffffffffffffffffffffffffffffffffffffffff\n        /* \"#utility.yul\":16040:16045   */\n      dup3\n        /* \"#utility.yul\":16037:16114   */\n      eq\n        /* \"#utility.yul\":16034:16137   */\n      iszero\n      tag_396\n      jumpi\n        /* \"#utility.yul\":16117:16135   */\n      tag_397\n      tag_371\n      jump\t// in\n    tag_397:\n        /* \"#utility.yul\":16034:16137   */\n    tag_396:\n        /* \"#utility.yul\":16164:16165   */\n      0x01\n        /* \"#utility.yul\":16157:16162   */\n      dup3\n        /* \"#utility.yul\":16153:16166   */\n      add\n        /* \"#utility.yul\":16146:16166   */\n      swap1\n      pop\n        /* \"#utility.yul\":15939:16172   */\n      swap2\n      swap1\n      pop\n      jump\t// out\n        /* \"#utility.yul\":16178:16358   */\n    tag_371:\n        /* \"#utility.yul\":16226:16303   */\n      0x4e487b7100000000000000000000000000000000000000000000000000000000\n        /* \"#utility.yul\":16223:16224   */\n      0x00\n        /* \"#utility.yul\":16216:16304   */\n      mstore\n        /* \"#utility.yul\":16323:16327   */\n      0x11\n        /* \"#utility.yul\":16320:16321   */\n      0x04\n        /* \"#utility.yul\":16313:16328   */\n      mstore\n        /* \"#utility.yul\":16347:16351   */\n      0x24\n        /* \"#utility.yul\":16344:16345   */\n      0x00\n        /* \"#utility.yul\":16337:16352   */\n      revert\n        /* \"#utility.yul\":16364:16544   */\n    tag_377:\n        /* \"#utility.yul\":16412:16489   */\n      0x4e487b7100000000000000000000000000000000000000000000000000000000\n        /* \"#utility.yul\":16409:16410   */\n      0x00\n        /* \"#utility.yul\":16402:16490   */\n      mstore\n        /* \"#utility.yul\":16509:16513   */\n      0x12\n        /* \"#utility.yul\":16506:16507   */\n      0x04\n        /* \"#utility.yul\":16499:16514   */\n      mstore\n        /* \"#utility.yul\":16533:16537   */\n      0x24\n        /* \"#utility.yul\":16530:16531   */\n      0x00\n        /* \"#utility.yul\":16523:16538   */\n      revert\n        /* \"#utility.yul\":16550:16730   */\n    tag_123:\n        /* \"#utility.yul\":16598:16675   */\n      0x4e487b7100000000000000000000000000000000000000000000000000000000\n        /* \"#utility.yul\":16595:16596   */\n      0x00\n        /* \"#utility.yul\":16588:16676   */\n      mstore\n        /* \"#utility.yul\":16695:16699   */\n      0x32\n        /* \"#utility.yul\":16692:16693   */\n      0x04\n        /* \"#utility.yul\":16685:16700   */\n      mstore\n        /* \"#utility.yul\":16719:16723   */\n      0x24\n        /* \"#utility.yul\":16716:16717   */\n      0x00\n        /* \"#utility.yul\":16709:16724   */\n      revert\n        /* \"#utility.yul\":16736:16916   */\n    tag_111:\n        /* \"#utility.yul\":16784:16861   */\n      0x4e487b7100000000000000000000000000000000000000000000000000000000\n        /* \"#utility.yul\":16781:16782   */\n      0x00\n        /* \"#utility.yul\":16774:16862   */\n      mstore\n        /* \"#utility.yul\":16881:16885   */\n      0x41\n        /* \"#utility.yul\":16878:16879   */\n      0x04\n        /* \"#utility.yul\":16871:16886   */\n      mstore\n        /* \"#utility.yul\":16905:16909   */\n      0x24\n        /* \"#utility.yul\":16902:16903   */\n      0x00\n        /* \"#utility.yul\":16895:16910   */\n      revert\n        /* \"#utility.yul\":17045:17162   */\n    tag_229:\n        /* \"#utility.yul\":17154:17155   */\n      0x00\n        /* \"#utility.yul\":17151:17152   */\n      dup1\n        /* \"#utility.yul\":17144:17156   */\n      revert\n        /* \"#utility.yul\":17168:17347   */\n    tag_282:\n        /* \"#utility.yul\":17308:17339   */\n      0x796f7520646f6e74206861766520746f6b656e7320746f20636c61696d000000\n        /* \"#utility.yul\":17304:17305   */\n      0x00\n        /* \"#utility.yul\":17296:17302   */\n      dup3\n        /* \"#utility.yul\":17292:17306   */\n      add\n        /* \"#utility.yul\":17285:17340   */\n      mstore\n        /* \"#utility.yul\":17168:17347   */\n      pop\n      jump\t// out\n        /* \"#utility.yul\":17353:17583   */\n    tag_287:\n        /* \"#utility.yul\":17493:17527   */\n      0x696e766573746d656e7420636c61696d2074696d652074696d65206973206e6f\n        /* \"#utility.yul\":17489:17490   */\n      0x00\n        /* \"#utility.yul\":17481:17487   */\n      dup3\n        /* \"#utility.yul\":17477:17491   */\n      add\n        /* \"#utility.yul\":17470:17528   */\n      mstore\n        /* \"#utility.yul\":17562:17575   */\n      0x7420636f6d706c65746564000000000000000000000000000000000000000000\n        /* \"#utility.yul\":17557:17559   */\n      0x20\n        /* \"#utility.yul\":17549:17555   */\n      dup3\n        /* \"#utility.yul\":17545:17560   */\n      add\n        /* \"#utility.yul\":17538:17576   */\n      mstore\n        /* \"#utility.yul\":17353:17583   */\n      pop\n      jump\t// out\n        /* \"#utility.yul\":17589:17813   */\n    tag_292:\n        /* \"#utility.yul\":17729:17763   */\n      0x61736b696e6720746f6b656e7320617265206d6f7265207468616e2074686520\n        /* \"#utility.yul\":17725:17726   */\n      0x00\n        /* \"#utility.yul\":17717:17723   */\n      dup3\n        /* \"#utility.yul\":17713:17727   */\n      add\n        /* \"#utility.yul\":17706:17764   */\n      mstore\n        /* \"#utility.yul\":17798:17805   */\n      0x6c696d6974000000000000000000000000000000000000000000000000000000\n        /* \"#utility.yul\":17793:17795   */\n      0x20\n        /* \"#utility.yul\":17785:17791   */\n      dup3\n        /* \"#utility.yul\":17781:17796   */\n      add\n        /* \"#utility.yul\":17774:17806   */\n      mstore\n        /* \"#utility.yul\":17589:17813   */\n      pop\n      jump\t// out\n        /* \"#utility.yul\":17819:18039   */\n    tag_297:\n        /* \"#utility.yul\":17959:17993   */\n      0x6f6e6c79204f776e65722063616e2063616c6c20746869732066756e6374696f\n        /* \"#utility.yul\":17955:17956   */\n      0x00\n        /* \"#utility.yul\":17947:17953   */\n      dup3\n        /* \"#utility.yul\":17943:17957   */\n      add\n        /* \"#utility.yul\":17936:17994   */\n      mstore\n        /* \"#utility.yul\":18028:18031   */\n      0x6e00000000000000000000000000000000000000000000000000000000000000\n        /* \"#utility.yul\":18023:18025   */\n      0x20\n        /* \"#utility.yul\":18015:18021   */\n      dup3\n        /* \"#utility.yul\":18011:18026   */\n      add\n        /* \"#utility.yul\":18004:18032   */\n      mstore\n        /* \"#utility.yul\":17819:18039   */\n      pop\n      jump\t// out\n        /* \"#utility.yul\":18045:18222   */\n    tag_302:\n        /* \"#utility.yul\":18185:18214   */\n      0x746f6b656e7320646f6573206e6f74207472616e736665727265640000000000\n        /* \"#utility.yul\":18181:18182   */\n      0x00\n        /* \"#utility.yul\":18173:18179   */\n      dup3\n        /* \"#utility.yul\":18169:18183   */\n      add\n        /* \"#utility.yul\":18162:18215   */\n      mstore\n        /* \"#utility.yul\":18045:18222   */\n      pop\n      jump\t// out\n        /* \"#utility.yul\":18228:18450   */\n    tag_307:\n        /* \"#utility.yul\":18368:18402   */\n      0x796f7520646f6e74206861766520656e6f7567682062616c616e636520746f20\n        /* \"#utility.yul\":18364:18365   */\n      0x00\n        /* \"#utility.yul\":18356:18362   */\n      dup3\n        /* \"#utility.yul\":18352:18366   */\n      add\n        /* \"#utility.yul\":18345:18403   */\n      mstore\n        /* \"#utility.yul\":18437:18442   */\n      0x6275790000000000000000000000000000000000000000000000000000000000\n        /* \"#utility.yul\":18432:18434   */\n      0x20\n        /* \"#utility.yul\":18424:18430   */\n      dup3\n        /* \"#utility.yul\":18420:18435   */\n      add\n        /* \"#utility.yul\":18413:18443   */\n      mstore\n        /* \"#utility.yul\":18228:18450   */\n      pop\n      jump\t// out\n        /* \"#utility.yul\":18456:18578   */\n    tag_214:\n        /* \"#utility.yul\":18529:18553   */\n      tag_412\n        /* \"#utility.yul\":18547:18552   */\n      dup2\n        /* \"#utility.yul\":18529:18553   */\n      tag_255\n      jump\t// in\n    tag_412:\n        /* \"#utility.yul\":18522:18527   */\n      dup2\n        /* \"#utility.yul\":18519:18554   */\n      eq\n        /* \"#utility.yul\":18509:18572   */\n      tag_413\n      jumpi\n        /* \"#utility.yul\":18568:18569   */\n      0x00\n        /* \"#utility.yul\":18565:18566   */\n      dup1\n        /* \"#utility.yul\":18558:18570   */\n      revert\n        /* \"#utility.yul\":18509:18572   */\n    tag_413:\n        /* \"#utility.yul\":18456:18578   */\n      pop\n      jump\t// out\n        /* \"#utility.yul\":18584:18700   */\n    tag_218:\n        /* \"#utility.yul\":18654:18675   */\n      tag_415\n        /* \"#utility.yul\":18669:18674   */\n      dup2\n        /* \"#utility.yul\":18654:18675   */\n      tag_273\n      jump\t// in\n    tag_415:\n        /* \"#utility.yul\":18647:18652   */\n      dup2\n        /* \"#utility.yul\":18644:18676   */\n      eq\n        /* \"#utility.yul\":18634:18694   */\n      tag_416\n      jumpi\n        /* \"#utility.yul\":18690:18691   */\n      0x00\n        /* \"#utility.yul\":18687:18688   */\n      dup1\n        /* \"#utility.yul\":18680:18692   */\n      revert\n        /* \"#utility.yul\":18634:18694   */\n    tag_416:\n        /* \"#utility.yul\":18584:18700   */\n      pop\n      jump\t// out\n        /* \"#utility.yul\":18706:18828   */\n    tag_222:\n        /* \"#utility.yul\":18779:18803   */\n      tag_418\n        /* \"#utility.yul\":18797:18802   */\n      dup2\n        /* \"#utility.yul\":18779:18803   */\n      tag_318\n      jump\t// in\n    tag_418:\n        /* \"#utility.yul\":18772:18777   */\n      dup2\n        /* \"#utility.yul\":18769:18804   */\n      eq\n        /* \"#utility.yul\":18759:18822   */\n      tag_419\n      jumpi\n        /* \"#utility.yul\":18818:18819   */\n      0x00\n        /* \"#utility.yul\":18815:18816   */\n      dup1\n        /* \"#utility.yul\":18808:18820   */\n      revert\n        /* \"#utility.yul\":18759:18822   */\n    tag_419:\n        /* \"#utility.yul\":18706:18828   */\n      pop\n      jump\t// out\n\n    auxdata: 0xa26469706673582212204d81914c52247e87ceb709325f27f38876ae2744396e8551137de2b5b1cdade064736f6c63430008070033\n}\n",
				"bytecode": {
					"linkReferences": {},
					"object": "60806040523480156200001157600080fd5b506040516200284b3803806200284b833981810160405281019062000037919062000268565b81600260006101000a81548173ffffffffffffffffffffffffffffffffffffffff021916908373ffffffffffffffffffffffffffffffffffffffff16021790555080600360006101000a81548173ffffffffffffffffffffffffffffffffffffffff021916908373ffffffffffffffffffffffffffffffffffffffff16021790555033600460006101000a81548173ffffffffffffffffffffffffffffffffffffffff021916908373ffffffffffffffffffffffffffffffffffffffff16021790555060005b6003811015620002485760008114156200016a576064600160008381526020019081526020016000206000018190555061138860016000838152602001908152602001600020600101819055506302faf08060016000838152602001908152602001600020600201819055505b6001811415620001ce576101f460016000838152602001908152602001600020600001819055506107d060016000838152602001908152602001600020600101819055506302faf08060016000838152602001908152602001600020600201819055505b600281141562000232576103e860016000838152602001908152602001600020600001819055506107d060016000838152602001908152602001600020600101819055506303f940ab60016000838152602001908152602001600020600201819055505b80806200023f90620002ed565b915050620000fd565b50505062000389565b60008151905062000262816200036f565b92915050565b600080604083850312156200028257620002816200036a565b5b6000620002928582860162000251565b9250506020620002a58582860162000251565b9150509250929050565b6000620002bc82620002c3565b9050919050565b600073ffffffffffffffffffffffffffffffffffffffff82169050919050565b6000819050919050565b6000620002fa82620002e3565b91507fffffffffffffffffffffffffffffffffffffffffffffffffffffffffffffffff82141562000330576200032f6200033b565b5b600182019050919050565b7f4e487b7100000000000000000000000000000000000000000000000000000000600052601160045260246000fd5b600080fd5b6200037a81620002af565b81146200038657600080fd5b50565b6124b280620003996000396000f3fe608060405234801561001057600080fd5b50600436106100f55760003560e01c80637d43577c11610097578063c68d4a3811610066578063c68d4a3814610280578063d1869d89146102b0578063df075292146102cc578063f2fde38b146102ea576100f5565b80637d43577c146101f257806381e7e20e146102105780638da5cb5b14610244578063935f311114610262576100f5565b806344476bfb116100d357806344476bfb1461017a5780634e70b1dc146101985780636f75c969146101b6578063783c94a7146101d4576100f5565b80631fef3056146100fa5780632f8bf52c1461011857806334d5f37b14610148575b600080fd5b610102610306565b60405161010f9190611ddb565b60405180910390f35b610132600480360381019061012d9190611b33565b61032c565b60405161013f9190611e78565b60405180910390f35b610162600480360381019061015d9190611b33565b6106e3565b60405161017193929190611fc1565b60405180910390f35b61018261070d565b60405161018f9190611e56565b60405180910390f35b6101a0610a72565b6040516101ad9190611f53565b60405180910390f35b6101be610a78565b6040516101cb9190611ddb565b60405180910390f35b6101dc610a9e565b6040516101e99190611e78565b60405180910390f35b6101fa610cb4565b6040516102079190611f53565b60405180910390f35b61022a60048036038101906102259190611ad9565b610cfd565b60405161023b959493929190611f6e565b60405180910390f35b61024c610d60565b6040516102599190611ddb565b60405180910390f35b61026a610d86565b6040516102779190611f53565b60405180910390f35b61029a60048036038101906102959190611ad9565b610dcf565b6040516102a79190611e78565b60405180910390f35b6102ca60048036038101906102c59190611b8d565b611642565b005b6102d46116fd565b6040516102e19190611f53565b60405180910390f35b61030460048036038101906102ff9190611ad9565b611703565b005b600260009054906101000a900473ffffffffffffffffffffffffffffffffffffffff1681565b6000806000803373ffffffffffffffffffffffffffffffffffffffff1673ffffffffffffffffffffffffffffffffffffffff168152602001908152602001600020600001600084815260200190815260200160002060000154116103c5576040517f08c379a00000000000000000000000000000000000000000000000000000000081526004016103bc90611e93565b60405180910390fd5b60006001600060028152602001908152602001600020600201541480156103ee57506000600554115b80156103fb575042600554115b61040457600080fd5b6000803373ffffffffffffffffffffffffffffffffffffffff1673ffffffffffffffffffffffffffffffffffffffff168152602001908152602001600020600001600083815260200190815260200160002060050160009054906101000a900460ff16156104a7576040517f08c379a000000000000000000000000000000000000000000000000000000000815260040161049e90611eb3565b60405180910390fd5b600360009054906101000a900473ffffffffffffffffffffffffffffffffffffffff1673ffffffffffffffffffffffffffffffffffffffff1663a9059cbb33670de0b6b3a76400006000803373ffffffffffffffffffffffffffffffffffffffff1673ffffffffffffffffffffffffffffffffffffffff16815260200190815260200160002060000160008781526020019081526020016000206000015461054f91906120c9565b6040518363ffffffff1660e01b815260040161056c929190611e2d565b602060405180830381600087803b15801561058657600080fd5b505af115801561059a573d6000803e3d6000fd5b505050506040513d601f19601f820116820180604052508101906105be9190611b06565b5060016000803373ffffffffffffffffffffffffffffffffffffffff1673ffffffffffffffffffffffffffffffffffffffff168152602001908152602001600020600001600084815260200190815260200160002060050160006101000a81548160ff0219169083151502179055506000803373ffffffffffffffffffffffffffffffffffffffff1673ffffffffffffffffffffffffffffffffffffffff1681526020019081526020016000206000016000838152602001908152602001600020600001546000803373ffffffffffffffffffffffffffffffffffffffff1673ffffffffffffffffffffffffffffffffffffffff16815260200190815260200160002060010160008282546106d39190612123565b9250508190555060019050919050565b60016020528060005260406000206000915090508060000154908060010154908060020154905083565b606060008060003373ffffffffffffffffffffffffffffffffffffffff1673ffffffffffffffffffffffffffffffffffffffff16815260200190815260200160002060050154905060008060005b8381101561084f5760008060003373ffffffffffffffffffffffffffffffffffffffff1673ffffffffffffffffffffffffffffffffffffffff16815260200190815260200160002060000160008381526020019081526020016000206000015411801561082857506000803373ffffffffffffffffffffffffffffffffffffffff1673ffffffffffffffffffffffffffffffffffffffff168152602001908152602001600020600001600082815260200190815260200160002060050160009054906101000a900460ff16155b1561083c5782806108389061219f565b9350505b80806108479061219f565b91505061075b565b5060008267ffffffffffffffff81111561086c5761086b612275565b5b6040519080825280602002602001820160405280156108a557816020015b610892611a4d565b81526020019060019003908161088a5790505b50905060005b84811015610a675760008060003373ffffffffffffffffffffffffffffffffffffffff1673ffffffffffffffffffffffffffffffffffffffff16815260200190815260200160002060000160008381526020019081526020016000206000015411801561097857506000803373ffffffffffffffffffffffffffffffffffffffff1673ffffffffffffffffffffffffffffffffffffffff168152602001908152602001600020600001600082815260200190815260200160002060050160009054906101000a900460ff16155b15610a54576000803373ffffffffffffffffffffffffffffffffffffffff1673ffffffffffffffffffffffffffffffffffffffff16815260200190815260200160002060000160008281526020019081526020016000206040518060c001604052908160008201548152602001600182015481526020016002820154815260200160038201548152602001600482015481526020016005820160009054906101000a900460ff161515151581525050828481518110610a3a57610a39612246565b5b60200260200101819052508280610a509061219f565b9350505b8080610a5f9061219f565b9150506108ab565b508094505050505090565b60065481565b600360009054906101000a900473ffffffffffffffffffffffffffffffffffffffff1681565b6000806000803373ffffffffffffffffffffffffffffffffffffffff1673ffffffffffffffffffffffffffffffffffffffff1681526020019081526020016000206004015411610b23576040517f08c379a0000000000000000000000000000000000000000000000000000000008152600401610b1a90611e93565b60405180910390fd5b6000600160006002815260200190815260200160002060020154148015610b4c57506000600554115b8015610b59575042600554115b610b6257600080fd5b600360009054906101000a900473ffffffffffffffffffffffffffffffffffffffff1673ffffffffffffffffffffffffffffffffffffffff1663a9059cbb33670de0b6b3a76400006000803373ffffffffffffffffffffffffffffffffffffffff1673ffffffffffffffffffffffffffffffffffffffff16815260200190815260200160002060040154610bf691906120c9565b6040518363ffffffff1660e01b8152600401610c13929190611e2d565b602060405180830381600087803b158015610c2d57600080fd5b505af1158015610c41573d6000803e3d6000fd5b505050506040513d601f19601f82011682018060405250810190610c659190611b06565b5060008060003373ffffffffffffffffffffffffffffffffffffffff1673ffffffffffffffffffffffffffffffffffffffff168152602001908152602001600020600401819055506001905090565b60008060003373ffffffffffffffffffffffffffffffffffffffff1673ffffffffffffffffffffffffffffffffffffffff16815260200190815260200160002060040154905090565b60006020528060005260406000206000915090508060010154908060020160009054906101000a900473ffffffffffffffffffffffffffffffffffffffff16908060020160149054906101000a900460ff16908060040154908060050154905085565b600460009054906101000a900473ffffffffffffffffffffffffffffffffffffffff1681565b60008060003373ffffffffffffffffffffffffffffffffffffffff1673ffffffffffffffffffffffffffffffffffffffff16815260200190815260200160002060010154905090565b600060016000600654815260200190815260200160002060020154600160006006548152602001908152602001600020600101541115610e44576040517f08c379a0000000000000000000000000000000000000000000000000000000008152600401610e3b90611ed3565b60405180910390fd5b670de0b6b3a764000060016000600654815260200190815260200160002060000154610e7091906120c9565b600260009054906101000a900473ffffffffffffffffffffffffffffffffffffffff1673ffffffffffffffffffffffffffffffffffffffff166370a08231336040518263ffffffff1660e01b8152600401610ecb9190611ddb565b60206040518083038186803b158015610ee357600080fd5b505afa158015610ef7573d6000803e3d6000fd5b505050506040513d601f19601f82011682018060405250810190610f1b9190611b60565b11610f5b576040517f08c379a0000000000000000000000000000000000000000000000000000000008152600401610f5290611f33565b60405180910390fd5b600260009054906101000a900473ffffffffffffffffffffffffffffffffffffffff1673ffffffffffffffffffffffffffffffffffffffff166323b872dd33600460009054906101000a900473ffffffffffffffffffffffffffffffffffffffff16670de0b6b3a764000060016000600654815260200190815260200160002060000154610fe991906120c9565b6040518463ffffffff1660e01b815260040161100793929190611df6565b602060405180830381600087803b15801561102157600080fd5b505af1158015611035573d6000803e3d6000fd5b505050506040513d601f19601f820116820180604052508101906110599190611b06565b611098576040517f08c379a000000000000000000000000000000000000000000000000000000000815260040161108f90611f13565b60405180910390fd5b600160006006548152602001908152602001600020600101546000803373ffffffffffffffffffffffffffffffffffffffff1673ffffffffffffffffffffffffffffffffffffffff16815260200190815260200160002060000160008060003373ffffffffffffffffffffffffffffffffffffffff1673ffffffffffffffffffffffffffffffffffffffff16815260200190815260200160002060050154815260200190815260200160002060000181905550426000803373ffffffffffffffffffffffffffffffffffffffff1673ffffffffffffffffffffffffffffffffffffffff16815260200190815260200160002060000160008060003373ffffffffffffffffffffffffffffffffffffffff1673ffffffffffffffffffffffffffffffffffffffff168152602001908152602001600020600501548152602001908152602001600020600201819055506000803373ffffffffffffffffffffffffffffffffffffffff1673ffffffffffffffffffffffffffffffffffffffff16815260200190815260200160002060050160008154809291906112389061219f565b9190505550600160006006548152602001908152602001600020600101546000803373ffffffffffffffffffffffffffffffffffffffff1673ffffffffffffffffffffffffffffffffffffffff16815260200190815260200160002060010160008282546112a69190612042565b925050819055506001600060065481526020019081526020016000206001015460016000600654815260200190815260200160002060020160008282546112ed9190612123565b92505081905550600073ffffffffffffffffffffffffffffffffffffffff168273ffffffffffffffffffffffffffffffffffffffff16148061135a57503373ffffffffffffffffffffffffffffffffffffffff168273ffffffffffffffffffffffffffffffffffffffff16145b156113e55760008060003373ffffffffffffffffffffffffffffffffffffffff1673ffffffffffffffffffffffffffffffffffffffff16815260200190815260200160002060020160006101000a81548173ffffffffffffffffffffffffffffffffffffffff021916908373ffffffffffffffffffffffffffffffffffffffff160217905550611586565b600015156000803373ffffffffffffffffffffffffffffffffffffffff1673ffffffffffffffffffffffffffffffffffffffff16815260200190815260200160002060020160149054906101000a900460ff161515141561156357816000803373ffffffffffffffffffffffffffffffffffffffff1673ffffffffffffffffffffffffffffffffffffffff16815260200190815260200160002060020160006101000a81548173ffffffffffffffffffffffffffffffffffffffff021916908373ffffffffffffffffffffffffffffffffffffffff1602179055506000808373ffffffffffffffffffffffffffffffffffffffff1673ffffffffffffffffffffffffffffffffffffffff168152602001908152602001600020600301339080600181540180825580915050600190039060005260206000200160009091909190916101000a81548173ffffffffffffffffffffffffffffffffffffffff021916908373ffffffffffffffffffffffffffffffffffffffff1602179055505b61158533600160006006548152602001908152602001600020600101546117d7565b5b60006001600060065481526020019081526020016000206002015414156115df57600260065414156115c6576078426115bf9190612042565b6005819055505b600660008154809291906115d99061219f565b91905055505b60016000803373ffffffffffffffffffffffffffffffffffffffff1673ffffffffffffffffffffffffffffffffffffffff16815260200190815260200160002060020160146101000a81548160ff02191690831515021790555060019050919050565b600460009054906101000a900473ffffffffffffffffffffffffffffffffffffffff1673ffffffffffffffffffffffffffffffffffffffff163373ffffffffffffffffffffffffffffffffffffffff16146116d2576040517f08c379a00000000000000000000000000000000000000000000000000000000081526004016116c990611ef3565b60405180910390fd5b81600160006001846116e49190612123565b8152602001908152602001600020600001819055505050565b60055481565b600460009054906101000a900473ffffffffffffffffffffffffffffffffffffffff1673ffffffffffffffffffffffffffffffffffffffff163373ffffffffffffffffffffffffffffffffffffffff1614611793576040517f08c379a000000000000000000000000000000000000000000000000000000000815260040161178a90611ef3565b60405180910390fd5b80600460006101000a81548173ffffffffffffffffffffffffffffffffffffffff021916908373ffffffffffffffffffffffffffffffffffffffff16021790555050565b60008290506000600567ffffffffffffffff8111156117f9576117f8612275565b5b6040519080825280602002602001820160405280156118275781602001602082028036833780820191505090505b5090506005816000815181106118405761183f612246565b5b60200260200101818152505060048160018151811061186257611861612246565b5b602002602001018181525050600080600090505b6002811015611a4557600081141561189157600091506118a0565b600181141561189f57600191505b5b600073ffffffffffffffffffffffffffffffffffffffff166000808673ffffffffffffffffffffffffffffffffffffffff1673ffffffffffffffffffffffffffffffffffffffff16815260200190815260200160002060020160009054906101000a900473ffffffffffffffffffffffffffffffffffffffff1673ffffffffffffffffffffffffffffffffffffffff1614611a2d576000808573ffffffffffffffffffffffffffffffffffffffff1673ffffffffffffffffffffffffffffffffffffffff16815260200190815260200160002060020160009054906101000a900473ffffffffffffffffffffffffffffffffffffffff16935060006064868585815181106119b1576119b0612246565b5b60200260200101516119c391906120c9565b6119cd9190612098565b9050806000808773ffffffffffffffffffffffffffffffffffffffff1673ffffffffffffffffffffffffffffffffffffffff1681526020019081526020016000206004016000828254611a209190612042565b9250508190555050611a32565b611a45565b8080611a3d9061219f565b915050611876565b505050505050565b6040518060c0016040528060008152602001600081526020016000815260200160008152602001600081526020016000151581525090565b600081359050611a9481612437565b92915050565b600081519050611aa98161244e565b92915050565b600081359050611abe81612465565b92915050565b600081519050611ad381612465565b92915050565b600060208284031215611aef57611aee6122a4565b5b6000611afd84828501611a85565b91505092915050565b600060208284031215611b1c57611b1b6122a4565b5b6000611b2a84828501611a9a565b91505092915050565b600060208284031215611b4957611b486122a4565b5b6000611b5784828501611aaf565b91505092915050565b600060208284031215611b7657611b756122a4565b5b6000611b8484828501611ac4565b91505092915050565b60008060408385031215611ba457611ba36122a4565b5b6000611bb285828601611aaf565b9250506020611bc385828601611aaf565b9150509250929050565b6000611bd98383611d42565b60c08301905092915050565b611bee81612157565b82525050565b6000611bff82612008565b611c098185612020565b9350611c1483611ff8565b8060005b83811015611c45578151611c2c8882611bcd565b9750611c3783612013565b925050600181019050611c18565b5085935050505092915050565b611c5b81612169565b82525050565b611c6a81612169565b82525050565b6000611c7d601d83612031565b9150611c88826122a9565b602082019050919050565b6000611ca0602b83612031565b9150611cab826122d2565b604082019050919050565b6000611cc3602583612031565b9150611cce82612321565b604082019050919050565b6000611ce6602183612031565b9150611cf182612370565b604082019050919050565b6000611d09601b83612031565b9150611d14826123bf565b602082019050919050565b6000611d2c602383612031565b9150611d37826123e8565b604082019050919050565b60c082016000820151611d586000850182611dbd565b506020820151611d6b6020850182611dbd565b506040820151611d7e6040850182611dbd565b506060820151611d916060850182611dbd565b506080820151611da46080850182611dbd565b5060a0820151611db760a0850182611c52565b50505050565b611dc681612195565b82525050565b611dd581612195565b82525050565b6000602082019050611df06000830184611be5565b92915050565b6000606082019050611e0b6000830186611be5565b611e186020830185611be5565b611e256040830184611dcc565b949350505050565b6000604082019050611e426000830185611be5565b611e4f6020830184611dcc565b9392505050565b60006020820190508181036000830152611e708184611bf4565b905092915050565b6000602082019050611e8d6000830184611c61565b92915050565b60006020820190508181036000830152611eac81611c70565b9050919050565b60006020820190508181036000830152611ecc81611c93565b9050919050565b60006020820190508181036000830152611eec81611cb6565b9050919050565b60006020820190508181036000830152611f0c81611cd9565b9050919050565b60006020820190508181036000830152611f2c81611cfc565b9050919050565b60006020820190508181036000830152611f4c81611d1f565b9050919050565b6000602082019050611f686000830184611dcc565b92915050565b600060a082019050611f836000830188611dcc565b611f906020830187611be5565b611f9d6040830186611c61565b611faa6060830185611dcc565b611fb76080830184611dcc565b9695505050505050565b6000606082019050611fd66000830186611dcc565b611fe36020830185611dcc565b611ff06040830184611dcc565b949350505050565b6000819050602082019050919050565b600081519050919050565b6000602082019050919050565b600082825260208201905092915050565b600082825260208201905092915050565b600061204d82612195565b915061205883612195565b9250827fffffffffffffffffffffffffffffffffffffffffffffffffffffffffffffffff0382111561208d5761208c6121e8565b5b828201905092915050565b60006120a382612195565b91506120ae83612195565b9250826120be576120bd612217565b5b828204905092915050565b60006120d482612195565b91506120df83612195565b9250817fffffffffffffffffffffffffffffffffffffffffffffffffffffffffffffffff0483118215151615612118576121176121e8565b5b828202905092915050565b600061212e82612195565b915061213983612195565b92508282101561214c5761214b6121e8565b5b828203905092915050565b600061216282612175565b9050919050565b60008115159050919050565b600073ffffffffffffffffffffffffffffffffffffffff82169050919050565b6000819050919050565b60006121aa82612195565b91507fffffffffffffffffffffffffffffffffffffffffffffffffffffffffffffffff8214156121dd576121dc6121e8565b5b600182019050919050565b7f4e487b7100000000000000000000000000000000000000000000000000000000600052601160045260246000fd5b7f4e487b7100000000000000000000000000000000000000000000000000000000600052601260045260246000fd5b7f4e487b7100000000000000000000000000000000000000000000000000000000600052603260045260246000fd5b7f4e487b7100000000000000000000000000000000000000000000000000000000600052604160045260246000fd5b600080fd5b7f796f7520646f6e74206861766520746f6b656e7320746f20636c61696d000000600082015250565b7f696e766573746d656e7420636c61696d2074696d652074696d65206973206e6f60008201527f7420636f6d706c65746564000000000000000000000000000000000000000000602082015250565b7f61736b696e6720746f6b656e7320617265206d6f7265207468616e207468652060008201527f6c696d6974000000000000000000000000000000000000000000000000000000602082015250565b7f6f6e6c79204f776e65722063616e2063616c6c20746869732066756e6374696f60008201527f6e00000000000000000000000000000000000000000000000000000000000000602082015250565b7f746f6b656e7320646f6573206e6f74207472616e736665727265640000000000600082015250565b7f796f7520646f6e74206861766520656e6f7567682062616c616e636520746f2060008201527f6275790000000000000000000000000000000000000000000000000000000000602082015250565b61244081612157565b811461244b57600080fd5b50565b61245781612169565b811461246257600080fd5b50565b61246e81612195565b811461247957600080fd5b5056fea26469706673582212204d81914c52247e87ceb709325f27f38876ae2744396e8551137de2b5b1cdade064736f6c63430008070033",
					"opcodes": "PUSH1 0x80 PUSH1 0x40 MSTORE CALLVALUE DUP1 ISZERO PUSH3 0x11 JUMPI PUSH1 0x0 DUP1 REVERT JUMPDEST POP PUSH1 0x40 MLOAD PUSH3 0x284B CODESIZE SUB DUP1 PUSH3 0x284B DUP4 CODECOPY DUP2 DUP2 ADD PUSH1 0x40 MSTORE DUP2 ADD SWAP1 PUSH3 0x37 SWAP2 SWAP1 PUSH3 0x268 JUMP JUMPDEST DUP2 PUSH1 0x2 PUSH1 0x0 PUSH2 0x100 EXP DUP2 SLOAD DUP2 PUSH20 0xFFFFFFFFFFFFFFFFFFFFFFFFFFFFFFFFFFFFFFFF MUL NOT AND SWAP1 DUP4 PUSH20 0xFFFFFFFFFFFFFFFFFFFFFFFFFFFFFFFFFFFFFFFF AND MUL OR SWAP1 SSTORE POP DUP1 PUSH1 0x3 PUSH1 0x0 PUSH2 0x100 EXP DUP2 SLOAD DUP2 PUSH20 0xFFFFFFFFFFFFFFFFFFFFFFFFFFFFFFFFFFFFFFFF MUL NOT AND SWAP1 DUP4 PUSH20 0xFFFFFFFFFFFFFFFFFFFFFFFFFFFFFFFFFFFFFFFF AND MUL OR SWAP1 SSTORE POP CALLER PUSH1 0x4 PUSH1 0x0 PUSH2 0x100 EXP DUP2 SLOAD DUP2 PUSH20 0xFFFFFFFFFFFFFFFFFFFFFFFFFFFFFFFFFFFFFFFF MUL NOT AND SWAP1 DUP4 PUSH20 0xFFFFFFFFFFFFFFFFFFFFFFFFFFFFFFFFFFFFFFFF AND MUL OR SWAP1 SSTORE POP PUSH1 0x0 JUMPDEST PUSH1 0x3 DUP2 LT ISZERO PUSH3 0x248 JUMPI PUSH1 0x0 DUP2 EQ ISZERO PUSH3 0x16A JUMPI PUSH1 0x64 PUSH1 0x1 PUSH1 0x0 DUP4 DUP2 MSTORE PUSH1 0x20 ADD SWAP1 DUP2 MSTORE PUSH1 0x20 ADD PUSH1 0x0 KECCAK256 PUSH1 0x0 ADD DUP2 SWAP1 SSTORE POP PUSH2 0x1388 PUSH1 0x1 PUSH1 0x0 DUP4 DUP2 MSTORE PUSH1 0x20 ADD SWAP1 DUP2 MSTORE PUSH1 0x20 ADD PUSH1 0x0 KECCAK256 PUSH1 0x1 ADD DUP2 SWAP1 SSTORE POP PUSH4 0x2FAF080 PUSH1 0x1 PUSH1 0x0 DUP4 DUP2 MSTORE PUSH1 0x20 ADD SWAP1 DUP2 MSTORE PUSH1 0x20 ADD PUSH1 0x0 KECCAK256 PUSH1 0x2 ADD DUP2 SWAP1 SSTORE POP JUMPDEST PUSH1 0x1 DUP2 EQ ISZERO PUSH3 0x1CE JUMPI PUSH2 0x1F4 PUSH1 0x1 PUSH1 0x0 DUP4 DUP2 MSTORE PUSH1 0x20 ADD SWAP1 DUP2 MSTORE PUSH1 0x20 ADD PUSH1 0x0 KECCAK256 PUSH1 0x0 ADD DUP2 SWAP1 SSTORE POP PUSH2 0x7D0 PUSH1 0x1 PUSH1 0x0 DUP4 DUP2 MSTORE PUSH1 0x20 ADD SWAP1 DUP2 MSTORE PUSH1 0x20 ADD PUSH1 0x0 KECCAK256 PUSH1 0x1 ADD DUP2 SWAP1 SSTORE POP PUSH4 0x2FAF080 PUSH1 0x1 PUSH1 0x0 DUP4 DUP2 MSTORE PUSH1 0x20 ADD SWAP1 DUP2 MSTORE PUSH1 0x20 ADD PUSH1 0x0 KECCAK256 PUSH1 0x2 ADD DUP2 SWAP1 SSTORE POP JUMPDEST PUSH1 0x2 DUP2 EQ ISZERO PUSH3 0x232 JUMPI PUSH2 0x3E8 PUSH1 0x1 PUSH1 0x0 DUP4 DUP2 MSTORE PUSH1 0x20 ADD SWAP1 DUP2 MSTORE PUSH1 0x20 ADD PUSH1 0x0 KECCAK256 PUSH1 0x0 ADD DUP2 SWAP1 SSTORE POP PUSH2 0x7D0 PUSH1 0x1 PUSH1 0x0 DUP4 DUP2 MSTORE PUSH1 0x20 ADD SWAP1 DUP2 MSTORE PUSH1 0x20 ADD PUSH1 0x0 KECCAK256 PUSH1 0x1 ADD DUP2 SWAP1 SSTORE POP PUSH4 0x3F940AB PUSH1 0x1 PUSH1 0x0 DUP4 DUP2 MSTORE PUSH1 0x20 ADD SWAP1 DUP2 MSTORE PUSH1 0x20 ADD PUSH1 0x0 KECCAK256 PUSH1 0x2 ADD DUP2 SWAP1 SSTORE POP JUMPDEST DUP1 DUP1 PUSH3 0x23F SWAP1 PUSH3 0x2ED JUMP JUMPDEST SWAP2 POP POP PUSH3 0xFD JUMP JUMPDEST POP POP POP PUSH3 0x389 JUMP JUMPDEST PUSH1 0x0 DUP2 MLOAD SWAP1 POP PUSH3 0x262 DUP2 PUSH3 0x36F JUMP JUMPDEST SWAP3 SWAP2 POP POP JUMP JUMPDEST PUSH1 0x0 DUP1 PUSH1 0x40 DUP4 DUP6 SUB SLT ISZERO PUSH3 0x282 JUMPI PUSH3 0x281 PUSH3 0x36A JUMP JUMPDEST JUMPDEST PUSH1 0x0 PUSH3 0x292 DUP6 DUP3 DUP7 ADD PUSH3 0x251 JUMP JUMPDEST SWAP3 POP POP PUSH1 0x20 PUSH3 0x2A5 DUP6 DUP3 DUP7 ADD PUSH3 0x251 JUMP JUMPDEST SWAP2 POP POP SWAP3 POP SWAP3 SWAP1 POP JUMP JUMPDEST PUSH1 0x0 PUSH3 0x2BC DUP3 PUSH3 0x2C3 JUMP JUMPDEST SWAP1 POP SWAP2 SWAP1 POP JUMP JUMPDEST PUSH1 0x0 PUSH20 0xFFFFFFFFFFFFFFFFFFFFFFFFFFFFFFFFFFFFFFFF DUP3 AND SWAP1 POP SWAP2 SWAP1 POP JUMP JUMPDEST PUSH1 0x0 DUP2 SWAP1 POP SWAP2 SWAP1 POP JUMP JUMPDEST PUSH1 0x0 PUSH3 0x2FA DUP3 PUSH3 0x2E3 JUMP JUMPDEST SWAP2 POP PUSH32 0xFFFFFFFFFFFFFFFFFFFFFFFFFFFFFFFFFFFFFFFFFFFFFFFFFFFFFFFFFFFFFFFF DUP3 EQ ISZERO PUSH3 0x330 JUMPI PUSH3 0x32F PUSH3 0x33B JUMP JUMPDEST JUMPDEST PUSH1 0x1 DUP3 ADD SWAP1 POP SWAP2 SWAP1 POP JUMP JUMPDEST PUSH32 0x4E487B7100000000000000000000000000000000000000000000000000000000 PUSH1 0x0 MSTORE PUSH1 0x11 PUSH1 0x4 MSTORE PUSH1 0x24 PUSH1 0x0 REVERT JUMPDEST PUSH1 0x0 DUP1 REVERT JUMPDEST PUSH3 0x37A DUP2 PUSH3 0x2AF JUMP JUMPDEST DUP2 EQ PUSH3 0x386 JUMPI PUSH1 0x0 DUP1 REVERT JUMPDEST POP JUMP JUMPDEST PUSH2 0x24B2 DUP1 PUSH3 0x399 PUSH1 0x0 CODECOPY PUSH1 0x0 RETURN INVALID PUSH1 0x80 PUSH1 0x40 MSTORE CALLVALUE DUP1 ISZERO PUSH2 0x10 JUMPI PUSH1 0x0 DUP1 REVERT JUMPDEST POP PUSH1 0x4 CALLDATASIZE LT PUSH2 0xF5 JUMPI PUSH1 0x0 CALLDATALOAD PUSH1 0xE0 SHR DUP1 PUSH4 0x7D43577C GT PUSH2 0x97 JUMPI DUP1 PUSH4 0xC68D4A38 GT PUSH2 0x66 JUMPI DUP1 PUSH4 0xC68D4A38 EQ PUSH2 0x280 JUMPI DUP1 PUSH4 0xD1869D89 EQ PUSH2 0x2B0 JUMPI DUP1 PUSH4 0xDF075292 EQ PUSH2 0x2CC JUMPI DUP1 PUSH4 0xF2FDE38B EQ PUSH2 0x2EA JUMPI PUSH2 0xF5 JUMP JUMPDEST DUP1 PUSH4 0x7D43577C EQ PUSH2 0x1F2 JUMPI DUP1 PUSH4 0x81E7E20E EQ PUSH2 0x210 JUMPI DUP1 PUSH4 0x8DA5CB5B EQ PUSH2 0x244 JUMPI DUP1 PUSH4 0x935F3111 EQ PUSH2 0x262 JUMPI PUSH2 0xF5 JUMP JUMPDEST DUP1 PUSH4 0x44476BFB GT PUSH2 0xD3 JUMPI DUP1 PUSH4 0x44476BFB EQ PUSH2 0x17A JUMPI DUP1 PUSH4 0x4E70B1DC EQ PUSH2 0x198 JUMPI DUP1 PUSH4 0x6F75C969 EQ PUSH2 0x1B6 JUMPI DUP1 PUSH4 0x783C94A7 EQ PUSH2 0x1D4 JUMPI PUSH2 0xF5 JUMP JUMPDEST DUP1 PUSH4 0x1FEF3056 EQ PUSH2 0xFA JUMPI DUP1 PUSH4 0x2F8BF52C EQ PUSH2 0x118 JUMPI DUP1 PUSH4 0x34D5F37B EQ PUSH2 0x148 JUMPI JUMPDEST PUSH1 0x0 DUP1 REVERT JUMPDEST PUSH2 0x102 PUSH2 0x306 JUMP JUMPDEST PUSH1 0x40 MLOAD PUSH2 0x10F SWAP2 SWAP1 PUSH2 0x1DDB JUMP JUMPDEST PUSH1 0x40 MLOAD DUP1 SWAP2 SUB SWAP1 RETURN JUMPDEST PUSH2 0x132 PUSH1 0x4 DUP1 CALLDATASIZE SUB DUP2 ADD SWAP1 PUSH2 0x12D SWAP2 SWAP1 PUSH2 0x1B33 JUMP JUMPDEST PUSH2 0x32C JUMP JUMPDEST PUSH1 0x40 MLOAD PUSH2 0x13F SWAP2 SWAP1 PUSH2 0x1E78 JUMP JUMPDEST PUSH1 0x40 MLOAD DUP1 SWAP2 SUB SWAP1 RETURN JUMPDEST PUSH2 0x162 PUSH1 0x4 DUP1 CALLDATASIZE SUB DUP2 ADD SWAP1 PUSH2 0x15D SWAP2 SWAP1 PUSH2 0x1B33 JUMP JUMPDEST PUSH2 0x6E3 JUMP JUMPDEST PUSH1 0x40 MLOAD PUSH2 0x171 SWAP4 SWAP3 SWAP2 SWAP1 PUSH2 0x1FC1 JUMP JUMPDEST PUSH1 0x40 MLOAD DUP1 SWAP2 SUB SWAP1 RETURN JUMPDEST PUSH2 0x182 PUSH2 0x70D JUMP JUMPDEST PUSH1 0x40 MLOAD PUSH2 0x18F SWAP2 SWAP1 PUSH2 0x1E56 JUMP JUMPDEST PUSH1 0x40 MLOAD DUP1 SWAP2 SUB SWAP1 RETURN JUMPDEST PUSH2 0x1A0 PUSH2 0xA72 JUMP JUMPDEST PUSH1 0x40 MLOAD PUSH2 0x1AD SWAP2 SWAP1 PUSH2 0x1F53 JUMP JUMPDEST PUSH1 0x40 MLOAD DUP1 SWAP2 SUB SWAP1 RETURN JUMPDEST PUSH2 0x1BE PUSH2 0xA78 JUMP JUMPDEST PUSH1 0x40 MLOAD PUSH2 0x1CB SWAP2 SWAP1 PUSH2 0x1DDB JUMP JUMPDEST PUSH1 0x40 MLOAD DUP1 SWAP2 SUB SWAP1 RETURN JUMPDEST PUSH2 0x1DC PUSH2 0xA9E JUMP JUMPDEST PUSH1 0x40 MLOAD PUSH2 0x1E9 SWAP2 SWAP1 PUSH2 0x1E78 JUMP JUMPDEST PUSH1 0x40 MLOAD DUP1 SWAP2 SUB SWAP1 RETURN JUMPDEST PUSH2 0x1FA PUSH2 0xCB4 JUMP JUMPDEST PUSH1 0x40 MLOAD PUSH2 0x207 SWAP2 SWAP1 PUSH2 0x1F53 JUMP JUMPDEST PUSH1 0x40 MLOAD DUP1 SWAP2 SUB SWAP1 RETURN JUMPDEST PUSH2 0x22A PUSH1 0x4 DUP1 CALLDATASIZE SUB DUP2 ADD SWAP1 PUSH2 0x225 SWAP2 SWAP1 PUSH2 0x1AD9 JUMP JUMPDEST PUSH2 0xCFD JUMP JUMPDEST PUSH1 0x40 MLOAD PUSH2 0x23B SWAP6 SWAP5 SWAP4 SWAP3 SWAP2 SWAP1 PUSH2 0x1F6E JUMP JUMPDEST PUSH1 0x40 MLOAD DUP1 SWAP2 SUB SWAP1 RETURN JUMPDEST PUSH2 0x24C PUSH2 0xD60 JUMP JUMPDEST PUSH1 0x40 MLOAD PUSH2 0x259 SWAP2 SWAP1 PUSH2 0x1DDB JUMP JUMPDEST PUSH1 0x40 MLOAD DUP1 SWAP2 SUB SWAP1 RETURN JUMPDEST PUSH2 0x26A PUSH2 0xD86 JUMP JUMPDEST PUSH1 0x40 MLOAD PUSH2 0x277 SWAP2 SWAP1 PUSH2 0x1F53 JUMP JUMPDEST PUSH1 0x40 MLOAD DUP1 SWAP2 SUB SWAP1 RETURN JUMPDEST PUSH2 0x29A PUSH1 0x4 DUP1 CALLDATASIZE SUB DUP2 ADD SWAP1 PUSH2 0x295 SWAP2 SWAP1 PUSH2 0x1AD9 JUMP JUMPDEST PUSH2 0xDCF JUMP JUMPDEST PUSH1 0x40 MLOAD PUSH2 0x2A7 SWAP2 SWAP1 PUSH2 0x1E78 JUMP JUMPDEST PUSH1 0x40 MLOAD DUP1 SWAP2 SUB SWAP1 RETURN JUMPDEST PUSH2 0x2CA PUSH1 0x4 DUP1 CALLDATASIZE SUB DUP2 ADD SWAP1 PUSH2 0x2C5 SWAP2 SWAP1 PUSH2 0x1B8D JUMP JUMPDEST PUSH2 0x1642 JUMP JUMPDEST STOP JUMPDEST PUSH2 0x2D4 PUSH2 0x16FD JUMP JUMPDEST PUSH1 0x40 MLOAD PUSH2 0x2E1 SWAP2 SWAP1 PUSH2 0x1F53 JUMP JUMPDEST PUSH1 0x40 MLOAD DUP1 SWAP2 SUB SWAP1 RETURN JUMPDEST PUSH2 0x304 PUSH1 0x4 DUP1 CALLDATASIZE SUB DUP2 ADD SWAP1 PUSH2 0x2FF SWAP2 SWAP1 PUSH2 0x1AD9 JUMP JUMPDEST PUSH2 0x1703 JUMP JUMPDEST STOP JUMPDEST PUSH1 0x2 PUSH1 0x0 SWAP1 SLOAD SWAP1 PUSH2 0x100 EXP SWAP1 DIV PUSH20 0xFFFFFFFFFFFFFFFFFFFFFFFFFFFFFFFFFFFFFFFF AND DUP2 JUMP JUMPDEST PUSH1 0x0 DUP1 PUSH1 0x0 DUP1 CALLER PUSH20 0xFFFFFFFFFFFFFFFFFFFFFFFFFFFFFFFFFFFFFFFF AND PUSH20 0xFFFFFFFFFFFFFFFFFFFFFFFFFFFFFFFFFFFFFFFF AND DUP2 MSTORE PUSH1 0x20 ADD SWAP1 DUP2 MSTORE PUSH1 0x20 ADD PUSH1 0x0 KECCAK256 PUSH1 0x0 ADD PUSH1 0x0 DUP5 DUP2 MSTORE PUSH1 0x20 ADD SWAP1 DUP2 MSTORE PUSH1 0x20 ADD PUSH1 0x0 KECCAK256 PUSH1 0x0 ADD SLOAD GT PUSH2 0x3C5 JUMPI PUSH1 0x40 MLOAD PUSH32 0x8C379A000000000000000000000000000000000000000000000000000000000 DUP2 MSTORE PUSH1 0x4 ADD PUSH2 0x3BC SWAP1 PUSH2 0x1E93 JUMP JUMPDEST PUSH1 0x40 MLOAD DUP1 SWAP2 SUB SWAP1 REVERT JUMPDEST PUSH1 0x0 PUSH1 0x1 PUSH1 0x0 PUSH1 0x2 DUP2 MSTORE PUSH1 0x20 ADD SWAP1 DUP2 MSTORE PUSH1 0x20 ADD PUSH1 0x0 KECCAK256 PUSH1 0x2 ADD SLOAD EQ DUP1 ISZERO PUSH2 0x3EE JUMPI POP PUSH1 0x0 PUSH1 0x5 SLOAD GT JUMPDEST DUP1 ISZERO PUSH2 0x3FB JUMPI POP TIMESTAMP PUSH1 0x5 SLOAD GT JUMPDEST PUSH2 0x404 JUMPI PUSH1 0x0 DUP1 REVERT JUMPDEST PUSH1 0x0 DUP1 CALLER PUSH20 0xFFFFFFFFFFFFFFFFFFFFFFFFFFFFFFFFFFFFFFFF AND PUSH20 0xFFFFFFFFFFFFFFFFFFFFFFFFFFFFFFFFFFFFFFFF AND DUP2 MSTORE PUSH1 0x20 ADD SWAP1 DUP2 MSTORE PUSH1 0x20 ADD PUSH1 0x0 KECCAK256 PUSH1 0x0 ADD PUSH1 0x0 DUP4 DUP2 MSTORE PUSH1 0x20 ADD SWAP1 DUP2 MSTORE PUSH1 0x20 ADD PUSH1 0x0 KECCAK256 PUSH1 0x5 ADD PUSH1 0x0 SWAP1 SLOAD SWAP1 PUSH2 0x100 EXP SWAP1 DIV PUSH1 0xFF AND ISZERO PUSH2 0x4A7 JUMPI PUSH1 0x40 MLOAD PUSH32 0x8C379A000000000000000000000000000000000000000000000000000000000 DUP2 MSTORE PUSH1 0x4 ADD PUSH2 0x49E SWAP1 PUSH2 0x1EB3 JUMP JUMPDEST PUSH1 0x40 MLOAD DUP1 SWAP2 SUB SWAP1 REVERT JUMPDEST PUSH1 0x3 PUSH1 0x0 SWAP1 SLOAD SWAP1 PUSH2 0x100 EXP SWAP1 DIV PUSH20 0xFFFFFFFFFFFFFFFFFFFFFFFFFFFFFFFFFFFFFFFF AND PUSH20 0xFFFFFFFFFFFFFFFFFFFFFFFFFFFFFFFFFFFFFFFF AND PUSH4 0xA9059CBB CALLER PUSH8 0xDE0B6B3A7640000 PUSH1 0x0 DUP1 CALLER PUSH20 0xFFFFFFFFFFFFFFFFFFFFFFFFFFFFFFFFFFFFFFFF AND PUSH20 0xFFFFFFFFFFFFFFFFFFFFFFFFFFFFFFFFFFFFFFFF AND DUP2 MSTORE PUSH1 0x20 ADD SWAP1 DUP2 MSTORE PUSH1 0x20 ADD PUSH1 0x0 KECCAK256 PUSH1 0x0 ADD PUSH1 0x0 DUP8 DUP2 MSTORE PUSH1 0x20 ADD SWAP1 DUP2 MSTORE PUSH1 0x20 ADD PUSH1 0x0 KECCAK256 PUSH1 0x0 ADD SLOAD PUSH2 0x54F SWAP2 SWAP1 PUSH2 0x20C9 JUMP JUMPDEST PUSH1 0x40 MLOAD DUP4 PUSH4 0xFFFFFFFF AND PUSH1 0xE0 SHL DUP2 MSTORE PUSH1 0x4 ADD PUSH2 0x56C SWAP3 SWAP2 SWAP1 PUSH2 0x1E2D JUMP JUMPDEST PUSH1 0x20 PUSH1 0x40 MLOAD DUP1 DUP4 SUB DUP2 PUSH1 0x0 DUP8 DUP1 EXTCODESIZE ISZERO DUP1 ISZERO PUSH2 0x586 JUMPI PUSH1 0x0 DUP1 REVERT JUMPDEST POP GAS CALL ISZERO DUP1 ISZERO PUSH2 0x59A JUMPI RETURNDATASIZE PUSH1 0x0 DUP1 RETURNDATACOPY RETURNDATASIZE PUSH1 0x0 REVERT JUMPDEST POP POP POP POP PUSH1 0x40 MLOAD RETURNDATASIZE PUSH1 0x1F NOT PUSH1 0x1F DUP3 ADD AND DUP3 ADD DUP1 PUSH1 0x40 MSTORE POP DUP2 ADD SWAP1 PUSH2 0x5BE SWAP2 SWAP1 PUSH2 0x1B06 JUMP JUMPDEST POP PUSH1 0x1 PUSH1 0x0 DUP1 CALLER PUSH20 0xFFFFFFFFFFFFFFFFFFFFFFFFFFFFFFFFFFFFFFFF AND PUSH20 0xFFFFFFFFFFFFFFFFFFFFFFFFFFFFFFFFFFFFFFFF AND DUP2 MSTORE PUSH1 0x20 ADD SWAP1 DUP2 MSTORE PUSH1 0x20 ADD PUSH1 0x0 KECCAK256 PUSH1 0x0 ADD PUSH1 0x0 DUP5 DUP2 MSTORE PUSH1 0x20 ADD SWAP1 DUP2 MSTORE PUSH1 0x20 ADD PUSH1 0x0 KECCAK256 PUSH1 0x5 ADD PUSH1 0x0 PUSH2 0x100 EXP DUP2 SLOAD DUP2 PUSH1 0xFF MUL NOT AND SWAP1 DUP4 ISZERO ISZERO MUL OR SWAP1 SSTORE POP PUSH1 0x0 DUP1 CALLER PUSH20 0xFFFFFFFFFFFFFFFFFFFFFFFFFFFFFFFFFFFFFFFF AND PUSH20 0xFFFFFFFFFFFFFFFFFFFFFFFFFFFFFFFFFFFFFFFF AND DUP2 MSTORE PUSH1 0x20 ADD SWAP1 DUP2 MSTORE PUSH1 0x20 ADD PUSH1 0x0 KECCAK256 PUSH1 0x0 ADD PUSH1 0x0 DUP4 DUP2 MSTORE PUSH1 0x20 ADD SWAP1 DUP2 MSTORE PUSH1 0x20 ADD PUSH1 0x0 KECCAK256 PUSH1 0x0 ADD SLOAD PUSH1 0x0 DUP1 CALLER PUSH20 0xFFFFFFFFFFFFFFFFFFFFFFFFFFFFFFFFFFFFFFFF AND PUSH20 0xFFFFFFFFFFFFFFFFFFFFFFFFFFFFFFFFFFFFFFFF AND DUP2 MSTORE PUSH1 0x20 ADD SWAP1 DUP2 MSTORE PUSH1 0x20 ADD PUSH1 0x0 KECCAK256 PUSH1 0x1 ADD PUSH1 0x0 DUP3 DUP3 SLOAD PUSH2 0x6D3 SWAP2 SWAP1 PUSH2 0x2123 JUMP JUMPDEST SWAP3 POP POP DUP2 SWAP1 SSTORE POP PUSH1 0x1 SWAP1 POP SWAP2 SWAP1 POP JUMP JUMPDEST PUSH1 0x1 PUSH1 0x20 MSTORE DUP1 PUSH1 0x0 MSTORE PUSH1 0x40 PUSH1 0x0 KECCAK256 PUSH1 0x0 SWAP2 POP SWAP1 POP DUP1 PUSH1 0x0 ADD SLOAD SWAP1 DUP1 PUSH1 0x1 ADD SLOAD SWAP1 DUP1 PUSH1 0x2 ADD SLOAD SWAP1 POP DUP4 JUMP JUMPDEST PUSH1 0x60 PUSH1 0x0 DUP1 PUSH1 0x0 CALLER PUSH20 0xFFFFFFFFFFFFFFFFFFFFFFFFFFFFFFFFFFFFFFFF AND PUSH20 0xFFFFFFFFFFFFFFFFFFFFFFFFFFFFFFFFFFFFFFFF AND DUP2 MSTORE PUSH1 0x20 ADD SWAP1 DUP2 MSTORE PUSH1 0x20 ADD PUSH1 0x0 KECCAK256 PUSH1 0x5 ADD SLOAD SWAP1 POP PUSH1 0x0 DUP1 PUSH1 0x0 JUMPDEST DUP4 DUP2 LT ISZERO PUSH2 0x84F JUMPI PUSH1 0x0 DUP1 PUSH1 0x0 CALLER PUSH20 0xFFFFFFFFFFFFFFFFFFFFFFFFFFFFFFFFFFFFFFFF AND PUSH20 0xFFFFFFFFFFFFFFFFFFFFFFFFFFFFFFFFFFFFFFFF AND DUP2 MSTORE PUSH1 0x20 ADD SWAP1 DUP2 MSTORE PUSH1 0x20 ADD PUSH1 0x0 KECCAK256 PUSH1 0x0 ADD PUSH1 0x0 DUP4 DUP2 MSTORE PUSH1 0x20 ADD SWAP1 DUP2 MSTORE PUSH1 0x20 ADD PUSH1 0x0 KECCAK256 PUSH1 0x0 ADD SLOAD GT DUP1 ISZERO PUSH2 0x828 JUMPI POP PUSH1 0x0 DUP1 CALLER PUSH20 0xFFFFFFFFFFFFFFFFFFFFFFFFFFFFFFFFFFFFFFFF AND PUSH20 0xFFFFFFFFFFFFFFFFFFFFFFFFFFFFFFFFFFFFFFFF AND DUP2 MSTORE PUSH1 0x20 ADD SWAP1 DUP2 MSTORE PUSH1 0x20 ADD PUSH1 0x0 KECCAK256 PUSH1 0x0 ADD PUSH1 0x0 DUP3 DUP2 MSTORE PUSH1 0x20 ADD SWAP1 DUP2 MSTORE PUSH1 0x20 ADD PUSH1 0x0 KECCAK256 PUSH1 0x5 ADD PUSH1 0x0 SWAP1 SLOAD SWAP1 PUSH2 0x100 EXP SWAP1 DIV PUSH1 0xFF AND ISZERO JUMPDEST ISZERO PUSH2 0x83C JUMPI DUP3 DUP1 PUSH2 0x838 SWAP1 PUSH2 0x219F JUMP JUMPDEST SWAP4 POP POP JUMPDEST DUP1 DUP1 PUSH2 0x847 SWAP1 PUSH2 0x219F JUMP JUMPDEST SWAP2 POP POP PUSH2 0x75B JUMP JUMPDEST POP PUSH1 0x0 DUP3 PUSH8 0xFFFFFFFFFFFFFFFF DUP2 GT ISZERO PUSH2 0x86C JUMPI PUSH2 0x86B PUSH2 0x2275 JUMP JUMPDEST JUMPDEST PUSH1 0x40 MLOAD SWAP1 DUP1 DUP3 MSTORE DUP1 PUSH1 0x20 MUL PUSH1 0x20 ADD DUP3 ADD PUSH1 0x40 MSTORE DUP1 ISZERO PUSH2 0x8A5 JUMPI DUP2 PUSH1 0x20 ADD JUMPDEST PUSH2 0x892 PUSH2 0x1A4D JUMP JUMPDEST DUP2 MSTORE PUSH1 0x20 ADD SWAP1 PUSH1 0x1 SWAP1 SUB SWAP1 DUP2 PUSH2 0x88A JUMPI SWAP1 POP JUMPDEST POP SWAP1 POP PUSH1 0x0 JUMPDEST DUP5 DUP2 LT ISZERO PUSH2 0xA67 JUMPI PUSH1 0x0 DUP1 PUSH1 0x0 CALLER PUSH20 0xFFFFFFFFFFFFFFFFFFFFFFFFFFFFFFFFFFFFFFFF AND PUSH20 0xFFFFFFFFFFFFFFFFFFFFFFFFFFFFFFFFFFFFFFFF AND DUP2 MSTORE PUSH1 0x20 ADD SWAP1 DUP2 MSTORE PUSH1 0x20 ADD PUSH1 0x0 KECCAK256 PUSH1 0x0 ADD PUSH1 0x0 DUP4 DUP2 MSTORE PUSH1 0x20 ADD SWAP1 DUP2 MSTORE PUSH1 0x20 ADD PUSH1 0x0 KECCAK256 PUSH1 0x0 ADD SLOAD GT DUP1 ISZERO PUSH2 0x978 JUMPI POP PUSH1 0x0 DUP1 CALLER PUSH20 0xFFFFFFFFFFFFFFFFFFFFFFFFFFFFFFFFFFFFFFFF AND PUSH20 0xFFFFFFFFFFFFFFFFFFFFFFFFFFFFFFFFFFFFFFFF AND DUP2 MSTORE PUSH1 0x20 ADD SWAP1 DUP2 MSTORE PUSH1 0x20 ADD PUSH1 0x0 KECCAK256 PUSH1 0x0 ADD PUSH1 0x0 DUP3 DUP2 MSTORE PUSH1 0x20 ADD SWAP1 DUP2 MSTORE PUSH1 0x20 ADD PUSH1 0x0 KECCAK256 PUSH1 0x5 ADD PUSH1 0x0 SWAP1 SLOAD SWAP1 PUSH2 0x100 EXP SWAP1 DIV PUSH1 0xFF AND ISZERO JUMPDEST ISZERO PUSH2 0xA54 JUMPI PUSH1 0x0 DUP1 CALLER PUSH20 0xFFFFFFFFFFFFFFFFFFFFFFFFFFFFFFFFFFFFFFFF AND PUSH20 0xFFFFFFFFFFFFFFFFFFFFFFFFFFFFFFFFFFFFFFFF AND DUP2 MSTORE PUSH1 0x20 ADD SWAP1 DUP2 MSTORE PUSH1 0x20 ADD PUSH1 0x0 KECCAK256 PUSH1 0x0 ADD PUSH1 0x0 DUP3 DUP2 MSTORE PUSH1 0x20 ADD SWAP1 DUP2 MSTORE PUSH1 0x20 ADD PUSH1 0x0 KECCAK256 PUSH1 0x40 MLOAD DUP1 PUSH1 0xC0 ADD PUSH1 0x40 MSTORE SWAP1 DUP2 PUSH1 0x0 DUP3 ADD SLOAD DUP2 MSTORE PUSH1 0x20 ADD PUSH1 0x1 DUP3 ADD SLOAD DUP2 MSTORE PUSH1 0x20 ADD PUSH1 0x2 DUP3 ADD SLOAD DUP2 MSTORE PUSH1 0x20 ADD PUSH1 0x3 DUP3 ADD SLOAD DUP2 MSTORE PUSH1 0x20 ADD PUSH1 0x4 DUP3 ADD SLOAD DUP2 MSTORE PUSH1 0x20 ADD PUSH1 0x5 DUP3 ADD PUSH1 0x0 SWAP1 SLOAD SWAP1 PUSH2 0x100 EXP SWAP1 DIV PUSH1 0xFF AND ISZERO ISZERO ISZERO ISZERO DUP2 MSTORE POP POP DUP3 DUP5 DUP2 MLOAD DUP2 LT PUSH2 0xA3A JUMPI PUSH2 0xA39 PUSH2 0x2246 JUMP JUMPDEST JUMPDEST PUSH1 0x20 MUL PUSH1 0x20 ADD ADD DUP2 SWAP1 MSTORE POP DUP3 DUP1 PUSH2 0xA50 SWAP1 PUSH2 0x219F JUMP JUMPDEST SWAP4 POP POP JUMPDEST DUP1 DUP1 PUSH2 0xA5F SWAP1 PUSH2 0x219F JUMP JUMPDEST SWAP2 POP POP PUSH2 0x8AB JUMP JUMPDEST POP DUP1 SWAP5 POP POP POP POP POP SWAP1 JUMP JUMPDEST PUSH1 0x6 SLOAD DUP2 JUMP JUMPDEST PUSH1 0x3 PUSH1 0x0 SWAP1 SLOAD SWAP1 PUSH2 0x100 EXP SWAP1 DIV PUSH20 0xFFFFFFFFFFFFFFFFFFFFFFFFFFFFFFFFFFFFFFFF AND DUP2 JUMP JUMPDEST PUSH1 0x0 DUP1 PUSH1 0x0 DUP1 CALLER PUSH20 0xFFFFFFFFFFFFFFFFFFFFFFFFFFFFFFFFFFFFFFFF AND PUSH20 0xFFFFFFFFFFFFFFFFFFFFFFFFFFFFFFFFFFFFFFFF AND DUP2 MSTORE PUSH1 0x20 ADD SWAP1 DUP2 MSTORE PUSH1 0x20 ADD PUSH1 0x0 KECCAK256 PUSH1 0x4 ADD SLOAD GT PUSH2 0xB23 JUMPI PUSH1 0x40 MLOAD PUSH32 0x8C379A000000000000000000000000000000000000000000000000000000000 DUP2 MSTORE PUSH1 0x4 ADD PUSH2 0xB1A SWAP1 PUSH2 0x1E93 JUMP JUMPDEST PUSH1 0x40 MLOAD DUP1 SWAP2 SUB SWAP1 REVERT JUMPDEST PUSH1 0x0 PUSH1 0x1 PUSH1 0x0 PUSH1 0x2 DUP2 MSTORE PUSH1 0x20 ADD SWAP1 DUP2 MSTORE PUSH1 0x20 ADD PUSH1 0x0 KECCAK256 PUSH1 0x2 ADD SLOAD EQ DUP1 ISZERO PUSH2 0xB4C JUMPI POP PUSH1 0x0 PUSH1 0x5 SLOAD GT JUMPDEST DUP1 ISZERO PUSH2 0xB59 JUMPI POP TIMESTAMP PUSH1 0x5 SLOAD GT JUMPDEST PUSH2 0xB62 JUMPI PUSH1 0x0 DUP1 REVERT JUMPDEST PUSH1 0x3 PUSH1 0x0 SWAP1 SLOAD SWAP1 PUSH2 0x100 EXP SWAP1 DIV PUSH20 0xFFFFFFFFFFFFFFFFFFFFFFFFFFFFFFFFFFFFFFFF AND PUSH20 0xFFFFFFFFFFFFFFFFFFFFFFFFFFFFFFFFFFFFFFFF AND PUSH4 0xA9059CBB CALLER PUSH8 0xDE0B6B3A7640000 PUSH1 0x0 DUP1 CALLER PUSH20 0xFFFFFFFFFFFFFFFFFFFFFFFFFFFFFFFFFFFFFFFF AND PUSH20 0xFFFFFFFFFFFFFFFFFFFFFFFFFFFFFFFFFFFFFFFF AND DUP2 MSTORE PUSH1 0x20 ADD SWAP1 DUP2 MSTORE PUSH1 0x20 ADD PUSH1 0x0 KECCAK256 PUSH1 0x4 ADD SLOAD PUSH2 0xBF6 SWAP2 SWAP1 PUSH2 0x20C9 JUMP JUMPDEST PUSH1 0x40 MLOAD DUP4 PUSH4 0xFFFFFFFF AND PUSH1 0xE0 SHL DUP2 MSTORE PUSH1 0x4 ADD PUSH2 0xC13 SWAP3 SWAP2 SWAP1 PUSH2 0x1E2D JUMP JUMPDEST PUSH1 0x20 PUSH1 0x40 MLOAD DUP1 DUP4 SUB DUP2 PUSH1 0x0 DUP8 DUP1 EXTCODESIZE ISZERO DUP1 ISZERO PUSH2 0xC2D JUMPI PUSH1 0x0 DUP1 REVERT JUMPDEST POP GAS CALL ISZERO DUP1 ISZERO PUSH2 0xC41 JUMPI RETURNDATASIZE PUSH1 0x0 DUP1 RETURNDATACOPY RETURNDATASIZE PUSH1 0x0 REVERT JUMPDEST POP POP POP POP PUSH1 0x40 MLOAD RETURNDATASIZE PUSH1 0x1F NOT PUSH1 0x1F DUP3 ADD AND DUP3 ADD DUP1 PUSH1 0x40 MSTORE POP DUP2 ADD SWAP1 PUSH2 0xC65 SWAP2 SWAP1 PUSH2 0x1B06 JUMP JUMPDEST POP PUSH1 0x0 DUP1 PUSH1 0x0 CALLER PUSH20 0xFFFFFFFFFFFFFFFFFFFFFFFFFFFFFFFFFFFFFFFF AND PUSH20 0xFFFFFFFFFFFFFFFFFFFFFFFFFFFFFFFFFFFFFFFF AND DUP2 MSTORE PUSH1 0x20 ADD SWAP1 DUP2 MSTORE PUSH1 0x20 ADD PUSH1 0x0 KECCAK256 PUSH1 0x4 ADD DUP2 SWAP1 SSTORE POP PUSH1 0x1 SWAP1 POP SWAP1 JUMP JUMPDEST PUSH1 0x0 DUP1 PUSH1 0x0 CALLER PUSH20 0xFFFFFFFFFFFFFFFFFFFFFFFFFFFFFFFFFFFFFFFF AND PUSH20 0xFFFFFFFFFFFFFFFFFFFFFFFFFFFFFFFFFFFFFFFF AND DUP2 MSTORE PUSH1 0x20 ADD SWAP1 DUP2 MSTORE PUSH1 0x20 ADD PUSH1 0x0 KECCAK256 PUSH1 0x4 ADD SLOAD SWAP1 POP SWAP1 JUMP JUMPDEST PUSH1 0x0 PUSH1 0x20 MSTORE DUP1 PUSH1 0x0 MSTORE PUSH1 0x40 PUSH1 0x0 KECCAK256 PUSH1 0x0 SWAP2 POP SWAP1 POP DUP1 PUSH1 0x1 ADD SLOAD SWAP1 DUP1 PUSH1 0x2 ADD PUSH1 0x0 SWAP1 SLOAD SWAP1 PUSH2 0x100 EXP SWAP1 DIV PUSH20 0xFFFFFFFFFFFFFFFFFFFFFFFFFFFFFFFFFFFFFFFF AND SWAP1 DUP1 PUSH1 0x2 ADD PUSH1 0x14 SWAP1 SLOAD SWAP1 PUSH2 0x100 EXP SWAP1 DIV PUSH1 0xFF AND SWAP1 DUP1 PUSH1 0x4 ADD SLOAD SWAP1 DUP1 PUSH1 0x5 ADD SLOAD SWAP1 POP DUP6 JUMP JUMPDEST PUSH1 0x4 PUSH1 0x0 SWAP1 SLOAD SWAP1 PUSH2 0x100 EXP SWAP1 DIV PUSH20 0xFFFFFFFFFFFFFFFFFFFFFFFFFFFFFFFFFFFFFFFF AND DUP2 JUMP JUMPDEST PUSH1 0x0 DUP1 PUSH1 0x0 CALLER PUSH20 0xFFFFFFFFFFFFFFFFFFFFFFFFFFFFFFFFFFFFFFFF AND PUSH20 0xFFFFFFFFFFFFFFFFFFFFFFFFFFFFFFFFFFFFFFFF AND DUP2 MSTORE PUSH1 0x20 ADD SWAP1 DUP2 MSTORE PUSH1 0x20 ADD PUSH1 0x0 KECCAK256 PUSH1 0x1 ADD SLOAD SWAP1 POP SWAP1 JUMP JUMPDEST PUSH1 0x0 PUSH1 0x1 PUSH1 0x0 PUSH1 0x6 SLOAD DUP2 MSTORE PUSH1 0x20 ADD SWAP1 DUP2 MSTORE PUSH1 0x20 ADD PUSH1 0x0 KECCAK256 PUSH1 0x2 ADD SLOAD PUSH1 0x1 PUSH1 0x0 PUSH1 0x6 SLOAD DUP2 MSTORE PUSH1 0x20 ADD SWAP1 DUP2 MSTORE PUSH1 0x20 ADD PUSH1 0x0 KECCAK256 PUSH1 0x1 ADD SLOAD GT ISZERO PUSH2 0xE44 JUMPI PUSH1 0x40 MLOAD PUSH32 0x8C379A000000000000000000000000000000000000000000000000000000000 DUP2 MSTORE PUSH1 0x4 ADD PUSH2 0xE3B SWAP1 PUSH2 0x1ED3 JUMP JUMPDEST PUSH1 0x40 MLOAD DUP1 SWAP2 SUB SWAP1 REVERT JUMPDEST PUSH8 0xDE0B6B3A7640000 PUSH1 0x1 PUSH1 0x0 PUSH1 0x6 SLOAD DUP2 MSTORE PUSH1 0x20 ADD SWAP1 DUP2 MSTORE PUSH1 0x20 ADD PUSH1 0x0 KECCAK256 PUSH1 0x0 ADD SLOAD PUSH2 0xE70 SWAP2 SWAP1 PUSH2 0x20C9 JUMP JUMPDEST PUSH1 0x2 PUSH1 0x0 SWAP1 SLOAD SWAP1 PUSH2 0x100 EXP SWAP1 DIV PUSH20 0xFFFFFFFFFFFFFFFFFFFFFFFFFFFFFFFFFFFFFFFF AND PUSH20 0xFFFFFFFFFFFFFFFFFFFFFFFFFFFFFFFFFFFFFFFF AND PUSH4 0x70A08231 CALLER PUSH1 0x40 MLOAD DUP3 PUSH4 0xFFFFFFFF AND PUSH1 0xE0 SHL DUP2 MSTORE PUSH1 0x4 ADD PUSH2 0xECB SWAP2 SWAP1 PUSH2 0x1DDB JUMP JUMPDEST PUSH1 0x20 PUSH1 0x40 MLOAD DUP1 DUP4 SUB DUP2 DUP7 DUP1 EXTCODESIZE ISZERO DUP1 ISZERO PUSH2 0xEE3 JUMPI PUSH1 0x0 DUP1 REVERT JUMPDEST POP GAS STATICCALL ISZERO DUP1 ISZERO PUSH2 0xEF7 JUMPI RETURNDATASIZE PUSH1 0x0 DUP1 RETURNDATACOPY RETURNDATASIZE PUSH1 0x0 REVERT JUMPDEST POP POP POP POP PUSH1 0x40 MLOAD RETURNDATASIZE PUSH1 0x1F NOT PUSH1 0x1F DUP3 ADD AND DUP3 ADD DUP1 PUSH1 0x40 MSTORE POP DUP2 ADD SWAP1 PUSH2 0xF1B SWAP2 SWAP1 PUSH2 0x1B60 JUMP JUMPDEST GT PUSH2 0xF5B JUMPI PUSH1 0x40 MLOAD PUSH32 0x8C379A000000000000000000000000000000000000000000000000000000000 DUP2 MSTORE PUSH1 0x4 ADD PUSH2 0xF52 SWAP1 PUSH2 0x1F33 JUMP JUMPDEST PUSH1 0x40 MLOAD DUP1 SWAP2 SUB SWAP1 REVERT JUMPDEST PUSH1 0x2 PUSH1 0x0 SWAP1 SLOAD SWAP1 PUSH2 0x100 EXP SWAP1 DIV PUSH20 0xFFFFFFFFFFFFFFFFFFFFFFFFFFFFFFFFFFFFFFFF AND PUSH20 0xFFFFFFFFFFFFFFFFFFFFFFFFFFFFFFFFFFFFFFFF AND PUSH4 0x23B872DD CALLER PUSH1 0x4 PUSH1 0x0 SWAP1 SLOAD SWAP1 PUSH2 0x100 EXP SWAP1 DIV PUSH20 0xFFFFFFFFFFFFFFFFFFFFFFFFFFFFFFFFFFFFFFFF AND PUSH8 0xDE0B6B3A7640000 PUSH1 0x1 PUSH1 0x0 PUSH1 0x6 SLOAD DUP2 MSTORE PUSH1 0x20 ADD SWAP1 DUP2 MSTORE PUSH1 0x20 ADD PUSH1 0x0 KECCAK256 PUSH1 0x0 ADD SLOAD PUSH2 0xFE9 SWAP2 SWAP1 PUSH2 0x20C9 JUMP JUMPDEST PUSH1 0x40 MLOAD DUP5 PUSH4 0xFFFFFFFF AND PUSH1 0xE0 SHL DUP2 MSTORE PUSH1 0x4 ADD PUSH2 0x1007 SWAP4 SWAP3 SWAP2 SWAP1 PUSH2 0x1DF6 JUMP JUMPDEST PUSH1 0x20 PUSH1 0x40 MLOAD DUP1 DUP4 SUB DUP2 PUSH1 0x0 DUP8 DUP1 EXTCODESIZE ISZERO DUP1 ISZERO PUSH2 0x1021 JUMPI PUSH1 0x0 DUP1 REVERT JUMPDEST POP GAS CALL ISZERO DUP1 ISZERO PUSH2 0x1035 JUMPI RETURNDATASIZE PUSH1 0x0 DUP1 RETURNDATACOPY RETURNDATASIZE PUSH1 0x0 REVERT JUMPDEST POP POP POP POP PUSH1 0x40 MLOAD RETURNDATASIZE PUSH1 0x1F NOT PUSH1 0x1F DUP3 ADD AND DUP3 ADD DUP1 PUSH1 0x40 MSTORE POP DUP2 ADD SWAP1 PUSH2 0x1059 SWAP2 SWAP1 PUSH2 0x1B06 JUMP JUMPDEST PUSH2 0x1098 JUMPI PUSH1 0x40 MLOAD PUSH32 0x8C379A000000000000000000000000000000000000000000000000000000000 DUP2 MSTORE PUSH1 0x4 ADD PUSH2 0x108F SWAP1 PUSH2 0x1F13 JUMP JUMPDEST PUSH1 0x40 MLOAD DUP1 SWAP2 SUB SWAP1 REVERT JUMPDEST PUSH1 0x1 PUSH1 0x0 PUSH1 0x6 SLOAD DUP2 MSTORE PUSH1 0x20 ADD SWAP1 DUP2 MSTORE PUSH1 0x20 ADD PUSH1 0x0 KECCAK256 PUSH1 0x1 ADD SLOAD PUSH1 0x0 DUP1 CALLER PUSH20 0xFFFFFFFFFFFFFFFFFFFFFFFFFFFFFFFFFFFFFFFF AND PUSH20 0xFFFFFFFFFFFFFFFFFFFFFFFFFFFFFFFFFFFFFFFF AND DUP2 MSTORE PUSH1 0x20 ADD SWAP1 DUP2 MSTORE PUSH1 0x20 ADD PUSH1 0x0 KECCAK256 PUSH1 0x0 ADD PUSH1 0x0 DUP1 PUSH1 0x0 CALLER PUSH20 0xFFFFFFFFFFFFFFFFFFFFFFFFFFFFFFFFFFFFFFFF AND PUSH20 0xFFFFFFFFFFFFFFFFFFFFFFFFFFFFFFFFFFFFFFFF AND DUP2 MSTORE PUSH1 0x20 ADD SWAP1 DUP2 MSTORE PUSH1 0x20 ADD PUSH1 0x0 KECCAK256 PUSH1 0x5 ADD SLOAD DUP2 MSTORE PUSH1 0x20 ADD SWAP1 DUP2 MSTORE PUSH1 0x20 ADD PUSH1 0x0 KECCAK256 PUSH1 0x0 ADD DUP2 SWAP1 SSTORE POP TIMESTAMP PUSH1 0x0 DUP1 CALLER PUSH20 0xFFFFFFFFFFFFFFFFFFFFFFFFFFFFFFFFFFFFFFFF AND PUSH20 0xFFFFFFFFFFFFFFFFFFFFFFFFFFFFFFFFFFFFFFFF AND DUP2 MSTORE PUSH1 0x20 ADD SWAP1 DUP2 MSTORE PUSH1 0x20 ADD PUSH1 0x0 KECCAK256 PUSH1 0x0 ADD PUSH1 0x0 DUP1 PUSH1 0x0 CALLER PUSH20 0xFFFFFFFFFFFFFFFFFFFFFFFFFFFFFFFFFFFFFFFF AND PUSH20 0xFFFFFFFFFFFFFFFFFFFFFFFFFFFFFFFFFFFFFFFF AND DUP2 MSTORE PUSH1 0x20 ADD SWAP1 DUP2 MSTORE PUSH1 0x20 ADD PUSH1 0x0 KECCAK256 PUSH1 0x5 ADD SLOAD DUP2 MSTORE PUSH1 0x20 ADD SWAP1 DUP2 MSTORE PUSH1 0x20 ADD PUSH1 0x0 KECCAK256 PUSH1 0x2 ADD DUP2 SWAP1 SSTORE POP PUSH1 0x0 DUP1 CALLER PUSH20 0xFFFFFFFFFFFFFFFFFFFFFFFFFFFFFFFFFFFFFFFF AND PUSH20 0xFFFFFFFFFFFFFFFFFFFFFFFFFFFFFFFFFFFFFFFF AND DUP2 MSTORE PUSH1 0x20 ADD SWAP1 DUP2 MSTORE PUSH1 0x20 ADD PUSH1 0x0 KECCAK256 PUSH1 0x5 ADD PUSH1 0x0 DUP2 SLOAD DUP1 SWAP3 SWAP2 SWAP1 PUSH2 0x1238 SWAP1 PUSH2 0x219F JUMP JUMPDEST SWAP2 SWAP1 POP SSTORE POP PUSH1 0x1 PUSH1 0x0 PUSH1 0x6 SLOAD DUP2 MSTORE PUSH1 0x20 ADD SWAP1 DUP2 MSTORE PUSH1 0x20 ADD PUSH1 0x0 KECCAK256 PUSH1 0x1 ADD SLOAD PUSH1 0x0 DUP1 CALLER PUSH20 0xFFFFFFFFFFFFFFFFFFFFFFFFFFFFFFFFFFFFFFFF AND PUSH20 0xFFFFFFFFFFFFFFFFFFFFFFFFFFFFFFFFFFFFFFFF AND DUP2 MSTORE PUSH1 0x20 ADD SWAP1 DUP2 MSTORE PUSH1 0x20 ADD PUSH1 0x0 KECCAK256 PUSH1 0x1 ADD PUSH1 0x0 DUP3 DUP3 SLOAD PUSH2 0x12A6 SWAP2 SWAP1 PUSH2 0x2042 JUMP JUMPDEST SWAP3 POP POP DUP2 SWAP1 SSTORE POP PUSH1 0x1 PUSH1 0x0 PUSH1 0x6 SLOAD DUP2 MSTORE PUSH1 0x20 ADD SWAP1 DUP2 MSTORE PUSH1 0x20 ADD PUSH1 0x0 KECCAK256 PUSH1 0x1 ADD SLOAD PUSH1 0x1 PUSH1 0x0 PUSH1 0x6 SLOAD DUP2 MSTORE PUSH1 0x20 ADD SWAP1 DUP2 MSTORE PUSH1 0x20 ADD PUSH1 0x0 KECCAK256 PUSH1 0x2 ADD PUSH1 0x0 DUP3 DUP3 SLOAD PUSH2 0x12ED SWAP2 SWAP1 PUSH2 0x2123 JUMP JUMPDEST SWAP3 POP POP DUP2 SWAP1 SSTORE POP PUSH1 0x0 PUSH20 0xFFFFFFFFFFFFFFFFFFFFFFFFFFFFFFFFFFFFFFFF AND DUP3 PUSH20 0xFFFFFFFFFFFFFFFFFFFFFFFFFFFFFFFFFFFFFFFF AND EQ DUP1 PUSH2 0x135A JUMPI POP CALLER PUSH20 0xFFFFFFFFFFFFFFFFFFFFFFFFFFFFFFFFFFFFFFFF AND DUP3 PUSH20 0xFFFFFFFFFFFFFFFFFFFFFFFFFFFFFFFFFFFFFFFF AND EQ JUMPDEST ISZERO PUSH2 0x13E5 JUMPI PUSH1 0x0 DUP1 PUSH1 0x0 CALLER PUSH20 0xFFFFFFFFFFFFFFFFFFFFFFFFFFFFFFFFFFFFFFFF AND PUSH20 0xFFFFFFFFFFFFFFFFFFFFFFFFFFFFFFFFFFFFFFFF AND DUP2 MSTORE PUSH1 0x20 ADD SWAP1 DUP2 MSTORE PUSH1 0x20 ADD PUSH1 0x0 KECCAK256 PUSH1 0x2 ADD PUSH1 0x0 PUSH2 0x100 EXP DUP2 SLOAD DUP2 PUSH20 0xFFFFFFFFFFFFFFFFFFFFFFFFFFFFFFFFFFFFFFFF MUL NOT AND SWAP1 DUP4 PUSH20 0xFFFFFFFFFFFFFFFFFFFFFFFFFFFFFFFFFFFFFFFF AND MUL OR SWAP1 SSTORE POP PUSH2 0x1586 JUMP JUMPDEST PUSH1 0x0 ISZERO ISZERO PUSH1 0x0 DUP1 CALLER PUSH20 0xFFFFFFFFFFFFFFFFFFFFFFFFFFFFFFFFFFFFFFFF AND PUSH20 0xFFFFFFFFFFFFFFFFFFFFFFFFFFFFFFFFFFFFFFFF AND DUP2 MSTORE PUSH1 0x20 ADD SWAP1 DUP2 MSTORE PUSH1 0x20 ADD PUSH1 0x0 KECCAK256 PUSH1 0x2 ADD PUSH1 0x14 SWAP1 SLOAD SWAP1 PUSH2 0x100 EXP SWAP1 DIV PUSH1 0xFF AND ISZERO ISZERO EQ ISZERO PUSH2 0x1563 JUMPI DUP2 PUSH1 0x0 DUP1 CALLER PUSH20 0xFFFFFFFFFFFFFFFFFFFFFFFFFFFFFFFFFFFFFFFF AND PUSH20 0xFFFFFFFFFFFFFFFFFFFFFFFFFFFFFFFFFFFFFFFF AND DUP2 MSTORE PUSH1 0x20 ADD SWAP1 DUP2 MSTORE PUSH1 0x20 ADD PUSH1 0x0 KECCAK256 PUSH1 0x2 ADD PUSH1 0x0 PUSH2 0x100 EXP DUP2 SLOAD DUP2 PUSH20 0xFFFFFFFFFFFFFFFFFFFFFFFFFFFFFFFFFFFFFFFF MUL NOT AND SWAP1 DUP4 PUSH20 0xFFFFFFFFFFFFFFFFFFFFFFFFFFFFFFFFFFFFFFFF AND MUL OR SWAP1 SSTORE POP PUSH1 0x0 DUP1 DUP4 PUSH20 0xFFFFFFFFFFFFFFFFFFFFFFFFFFFFFFFFFFFFFFFF AND PUSH20 0xFFFFFFFFFFFFFFFFFFFFFFFFFFFFFFFFFFFFFFFF AND DUP2 MSTORE PUSH1 0x20 ADD SWAP1 DUP2 MSTORE PUSH1 0x20 ADD PUSH1 0x0 KECCAK256 PUSH1 0x3 ADD CALLER SWAP1 DUP1 PUSH1 0x1 DUP2 SLOAD ADD DUP1 DUP3 SSTORE DUP1 SWAP2 POP POP PUSH1 0x1 SWAP1 SUB SWAP1 PUSH1 0x0 MSTORE PUSH1 0x20 PUSH1 0x0 KECCAK256 ADD PUSH1 0x0 SWAP1 SWAP2 SWAP1 SWAP2 SWAP1 SWAP2 PUSH2 0x100 EXP DUP2 SLOAD DUP2 PUSH20 0xFFFFFFFFFFFFFFFFFFFFFFFFFFFFFFFFFFFFFFFF MUL NOT AND SWAP1 DUP4 PUSH20 0xFFFFFFFFFFFFFFFFFFFFFFFFFFFFFFFFFFFFFFFF AND MUL OR SWAP1 SSTORE POP JUMPDEST PUSH2 0x1585 CALLER PUSH1 0x1 PUSH1 0x0 PUSH1 0x6 SLOAD DUP2 MSTORE PUSH1 0x20 ADD SWAP1 DUP2 MSTORE PUSH1 0x20 ADD PUSH1 0x0 KECCAK256 PUSH1 0x1 ADD SLOAD PUSH2 0x17D7 JUMP JUMPDEST JUMPDEST PUSH1 0x0 PUSH1 0x1 PUSH1 0x0 PUSH1 0x6 SLOAD DUP2 MSTORE PUSH1 0x20 ADD SWAP1 DUP2 MSTORE PUSH1 0x20 ADD PUSH1 0x0 KECCAK256 PUSH1 0x2 ADD SLOAD EQ ISZERO PUSH2 0x15DF JUMPI PUSH1 0x2 PUSH1 0x6 SLOAD EQ ISZERO PUSH2 0x15C6 JUMPI PUSH1 0x78 TIMESTAMP PUSH2 0x15BF SWAP2 SWAP1 PUSH2 0x2042 JUMP JUMPDEST PUSH1 0x5 DUP2 SWAP1 SSTORE POP JUMPDEST PUSH1 0x6 PUSH1 0x0 DUP2 SLOAD DUP1 SWAP3 SWAP2 SWAP1 PUSH2 0x15D9 SWAP1 PUSH2 0x219F JUMP JUMPDEST SWAP2 SWAP1 POP SSTORE POP JUMPDEST PUSH1 0x1 PUSH1 0x0 DUP1 CALLER PUSH20 0xFFFFFFFFFFFFFFFFFFFFFFFFFFFFFFFFFFFFFFFF AND PUSH20 0xFFFFFFFFFFFFFFFFFFFFFFFFFFFFFFFFFFFFFFFF AND DUP2 MSTORE PUSH1 0x20 ADD SWAP1 DUP2 MSTORE PUSH1 0x20 ADD PUSH1 0x0 KECCAK256 PUSH1 0x2 ADD PUSH1 0x14 PUSH2 0x100 EXP DUP2 SLOAD DUP2 PUSH1 0xFF MUL NOT AND SWAP1 DUP4 ISZERO ISZERO MUL OR SWAP1 SSTORE POP PUSH1 0x1 SWAP1 POP SWAP2 SWAP1 POP JUMP JUMPDEST PUSH1 0x4 PUSH1 0x0 SWAP1 SLOAD SWAP1 PUSH2 0x100 EXP SWAP1 DIV PUSH20 0xFFFFFFFFFFFFFFFFFFFFFFFFFFFFFFFFFFFFFFFF AND PUSH20 0xFFFFFFFFFFFFFFFFFFFFFFFFFFFFFFFFFFFFFFFF AND CALLER PUSH20 0xFFFFFFFFFFFFFFFFFFFFFFFFFFFFFFFFFFFFFFFF AND EQ PUSH2 0x16D2 JUMPI PUSH1 0x40 MLOAD PUSH32 0x8C379A000000000000000000000000000000000000000000000000000000000 DUP2 MSTORE PUSH1 0x4 ADD PUSH2 0x16C9 SWAP1 PUSH2 0x1EF3 JUMP JUMPDEST PUSH1 0x40 MLOAD DUP1 SWAP2 SUB SWAP1 REVERT JUMPDEST DUP2 PUSH1 0x1 PUSH1 0x0 PUSH1 0x1 DUP5 PUSH2 0x16E4 SWAP2 SWAP1 PUSH2 0x2123 JUMP JUMPDEST DUP2 MSTORE PUSH1 0x20 ADD SWAP1 DUP2 MSTORE PUSH1 0x20 ADD PUSH1 0x0 KECCAK256 PUSH1 0x0 ADD DUP2 SWAP1 SSTORE POP POP POP JUMP JUMPDEST PUSH1 0x5 SLOAD DUP2 JUMP JUMPDEST PUSH1 0x4 PUSH1 0x0 SWAP1 SLOAD SWAP1 PUSH2 0x100 EXP SWAP1 DIV PUSH20 0xFFFFFFFFFFFFFFFFFFFFFFFFFFFFFFFFFFFFFFFF AND PUSH20 0xFFFFFFFFFFFFFFFFFFFFFFFFFFFFFFFFFFFFFFFF AND CALLER PUSH20 0xFFFFFFFFFFFFFFFFFFFFFFFFFFFFFFFFFFFFFFFF AND EQ PUSH2 0x1793 JUMPI PUSH1 0x40 MLOAD PUSH32 0x8C379A000000000000000000000000000000000000000000000000000000000 DUP2 MSTORE PUSH1 0x4 ADD PUSH2 0x178A SWAP1 PUSH2 0x1EF3 JUMP JUMPDEST PUSH1 0x40 MLOAD DUP1 SWAP2 SUB SWAP1 REVERT JUMPDEST DUP1 PUSH1 0x4 PUSH1 0x0 PUSH2 0x100 EXP DUP2 SLOAD DUP2 PUSH20 0xFFFFFFFFFFFFFFFFFFFFFFFFFFFFFFFFFFFFFFFF MUL NOT AND SWAP1 DUP4 PUSH20 0xFFFFFFFFFFFFFFFFFFFFFFFFFFFFFFFFFFFFFFFF AND MUL OR SWAP1 SSTORE POP POP JUMP JUMPDEST PUSH1 0x0 DUP3 SWAP1 POP PUSH1 0x0 PUSH1 0x5 PUSH8 0xFFFFFFFFFFFFFFFF DUP2 GT ISZERO PUSH2 0x17F9 JUMPI PUSH2 0x17F8 PUSH2 0x2275 JUMP JUMPDEST JUMPDEST PUSH1 0x40 MLOAD SWAP1 DUP1 DUP3 MSTORE DUP1 PUSH1 0x20 MUL PUSH1 0x20 ADD DUP3 ADD PUSH1 0x40 MSTORE DUP1 ISZERO PUSH2 0x1827 JUMPI DUP2 PUSH1 0x20 ADD PUSH1 0x20 DUP3 MUL DUP1 CALLDATASIZE DUP4 CALLDATACOPY DUP1 DUP3 ADD SWAP2 POP POP SWAP1 POP JUMPDEST POP SWAP1 POP PUSH1 0x5 DUP2 PUSH1 0x0 DUP2 MLOAD DUP2 LT PUSH2 0x1840 JUMPI PUSH2 0x183F PUSH2 0x2246 JUMP JUMPDEST JUMPDEST PUSH1 0x20 MUL PUSH1 0x20 ADD ADD DUP2 DUP2 MSTORE POP POP PUSH1 0x4 DUP2 PUSH1 0x1 DUP2 MLOAD DUP2 LT PUSH2 0x1862 JUMPI PUSH2 0x1861 PUSH2 0x2246 JUMP JUMPDEST JUMPDEST PUSH1 0x20 MUL PUSH1 0x20 ADD ADD DUP2 DUP2 MSTORE POP POP PUSH1 0x0 DUP1 PUSH1 0x0 SWAP1 POP JUMPDEST PUSH1 0x2 DUP2 LT ISZERO PUSH2 0x1A45 JUMPI PUSH1 0x0 DUP2 EQ ISZERO PUSH2 0x1891 JUMPI PUSH1 0x0 SWAP2 POP PUSH2 0x18A0 JUMP JUMPDEST PUSH1 0x1 DUP2 EQ ISZERO PUSH2 0x189F JUMPI PUSH1 0x1 SWAP2 POP JUMPDEST JUMPDEST PUSH1 0x0 PUSH20 0xFFFFFFFFFFFFFFFFFFFFFFFFFFFFFFFFFFFFFFFF AND PUSH1 0x0 DUP1 DUP7 PUSH20 0xFFFFFFFFFFFFFFFFFFFFFFFFFFFFFFFFFFFFFFFF AND PUSH20 0xFFFFFFFFFFFFFFFFFFFFFFFFFFFFFFFFFFFFFFFF AND DUP2 MSTORE PUSH1 0x20 ADD SWAP1 DUP2 MSTORE PUSH1 0x20 ADD PUSH1 0x0 KECCAK256 PUSH1 0x2 ADD PUSH1 0x0 SWAP1 SLOAD SWAP1 PUSH2 0x100 EXP SWAP1 DIV PUSH20 0xFFFFFFFFFFFFFFFFFFFFFFFFFFFFFFFFFFFFFFFF AND PUSH20 0xFFFFFFFFFFFFFFFFFFFFFFFFFFFFFFFFFFFFFFFF AND EQ PUSH2 0x1A2D JUMPI PUSH1 0x0 DUP1 DUP6 PUSH20 0xFFFFFFFFFFFFFFFFFFFFFFFFFFFFFFFFFFFFFFFF AND PUSH20 0xFFFFFFFFFFFFFFFFFFFFFFFFFFFFFFFFFFFFFFFF AND DUP2 MSTORE PUSH1 0x20 ADD SWAP1 DUP2 MSTORE PUSH1 0x20 ADD PUSH1 0x0 KECCAK256 PUSH1 0x2 ADD PUSH1 0x0 SWAP1 SLOAD SWAP1 PUSH2 0x100 EXP SWAP1 DIV PUSH20 0xFFFFFFFFFFFFFFFFFFFFFFFFFFFFFFFFFFFFFFFF AND SWAP4 POP PUSH1 0x0 PUSH1 0x64 DUP7 DUP6 DUP6 DUP2 MLOAD DUP2 LT PUSH2 0x19B1 JUMPI PUSH2 0x19B0 PUSH2 0x2246 JUMP JUMPDEST JUMPDEST PUSH1 0x20 MUL PUSH1 0x20 ADD ADD MLOAD PUSH2 0x19C3 SWAP2 SWAP1 PUSH2 0x20C9 JUMP JUMPDEST PUSH2 0x19CD SWAP2 SWAP1 PUSH2 0x2098 JUMP JUMPDEST SWAP1 POP DUP1 PUSH1 0x0 DUP1 DUP8 PUSH20 0xFFFFFFFFFFFFFFFFFFFFFFFFFFFFFFFFFFFFFFFF AND PUSH20 0xFFFFFFFFFFFFFFFFFFFFFFFFFFFFFFFFFFFFFFFF AND DUP2 MSTORE PUSH1 0x20 ADD SWAP1 DUP2 MSTORE PUSH1 0x20 ADD PUSH1 0x0 KECCAK256 PUSH1 0x4 ADD PUSH1 0x0 DUP3 DUP3 SLOAD PUSH2 0x1A20 SWAP2 SWAP1 PUSH2 0x2042 JUMP JUMPDEST SWAP3 POP POP DUP2 SWAP1 SSTORE POP POP PUSH2 0x1A32 JUMP JUMPDEST PUSH2 0x1A45 JUMP JUMPDEST DUP1 DUP1 PUSH2 0x1A3D SWAP1 PUSH2 0x219F JUMP JUMPDEST SWAP2 POP POP PUSH2 0x1876 JUMP JUMPDEST POP POP POP POP POP POP JUMP JUMPDEST PUSH1 0x40 MLOAD DUP1 PUSH1 0xC0 ADD PUSH1 0x40 MSTORE DUP1 PUSH1 0x0 DUP2 MSTORE PUSH1 0x20 ADD PUSH1 0x0 DUP2 MSTORE PUSH1 0x20 ADD PUSH1 0x0 DUP2 MSTORE PUSH1 0x20 ADD PUSH1 0x0 DUP2 MSTORE PUSH1 0x20 ADD PUSH1 0x0 DUP2 MSTORE PUSH1 0x20 ADD PUSH1 0x0 ISZERO ISZERO DUP2 MSTORE POP SWAP1 JUMP JUMPDEST PUSH1 0x0 DUP2 CALLDATALOAD SWAP1 POP PUSH2 0x1A94 DUP2 PUSH2 0x2437 JUMP JUMPDEST SWAP3 SWAP2 POP POP JUMP JUMPDEST PUSH1 0x0 DUP2 MLOAD SWAP1 POP PUSH2 0x1AA9 DUP2 PUSH2 0x244E JUMP JUMPDEST SWAP3 SWAP2 POP POP JUMP JUMPDEST PUSH1 0x0 DUP2 CALLDATALOAD SWAP1 POP PUSH2 0x1ABE DUP2 PUSH2 0x2465 JUMP JUMPDEST SWAP3 SWAP2 POP POP JUMP JUMPDEST PUSH1 0x0 DUP2 MLOAD SWAP1 POP PUSH2 0x1AD3 DUP2 PUSH2 0x2465 JUMP JUMPDEST SWAP3 SWAP2 POP POP JUMP JUMPDEST PUSH1 0x0 PUSH1 0x20 DUP3 DUP5 SUB SLT ISZERO PUSH2 0x1AEF JUMPI PUSH2 0x1AEE PUSH2 0x22A4 JUMP JUMPDEST JUMPDEST PUSH1 0x0 PUSH2 0x1AFD DUP5 DUP3 DUP6 ADD PUSH2 0x1A85 JUMP JUMPDEST SWAP2 POP POP SWAP3 SWAP2 POP POP JUMP JUMPDEST PUSH1 0x0 PUSH1 0x20 DUP3 DUP5 SUB SLT ISZERO PUSH2 0x1B1C JUMPI PUSH2 0x1B1B PUSH2 0x22A4 JUMP JUMPDEST JUMPDEST PUSH1 0x0 PUSH2 0x1B2A DUP5 DUP3 DUP6 ADD PUSH2 0x1A9A JUMP JUMPDEST SWAP2 POP POP SWAP3 SWAP2 POP POP JUMP JUMPDEST PUSH1 0x0 PUSH1 0x20 DUP3 DUP5 SUB SLT ISZERO PUSH2 0x1B49 JUMPI PUSH2 0x1B48 PUSH2 0x22A4 JUMP JUMPDEST JUMPDEST PUSH1 0x0 PUSH2 0x1B57 DUP5 DUP3 DUP6 ADD PUSH2 0x1AAF JUMP JUMPDEST SWAP2 POP POP SWAP3 SWAP2 POP POP JUMP JUMPDEST PUSH1 0x0 PUSH1 0x20 DUP3 DUP5 SUB SLT ISZERO PUSH2 0x1B76 JUMPI PUSH2 0x1B75 PUSH2 0x22A4 JUMP JUMPDEST JUMPDEST PUSH1 0x0 PUSH2 0x1B84 DUP5 DUP3 DUP6 ADD PUSH2 0x1AC4 JUMP JUMPDEST SWAP2 POP POP SWAP3 SWAP2 POP POP JUMP JUMPDEST PUSH1 0x0 DUP1 PUSH1 0x40 DUP4 DUP6 SUB SLT ISZERO PUSH2 0x1BA4 JUMPI PUSH2 0x1BA3 PUSH2 0x22A4 JUMP JUMPDEST JUMPDEST PUSH1 0x0 PUSH2 0x1BB2 DUP6 DUP3 DUP7 ADD PUSH2 0x1AAF JUMP JUMPDEST SWAP3 POP POP PUSH1 0x20 PUSH2 0x1BC3 DUP6 DUP3 DUP7 ADD PUSH2 0x1AAF JUMP JUMPDEST SWAP2 POP POP SWAP3 POP SWAP3 SWAP1 POP JUMP JUMPDEST PUSH1 0x0 PUSH2 0x1BD9 DUP4 DUP4 PUSH2 0x1D42 JUMP JUMPDEST PUSH1 0xC0 DUP4 ADD SWAP1 POP SWAP3 SWAP2 POP POP JUMP JUMPDEST PUSH2 0x1BEE DUP2 PUSH2 0x2157 JUMP JUMPDEST DUP3 MSTORE POP POP JUMP JUMPDEST PUSH1 0x0 PUSH2 0x1BFF DUP3 PUSH2 0x2008 JUMP JUMPDEST PUSH2 0x1C09 DUP2 DUP6 PUSH2 0x2020 JUMP JUMPDEST SWAP4 POP PUSH2 0x1C14 DUP4 PUSH2 0x1FF8 JUMP JUMPDEST DUP1 PUSH1 0x0 JUMPDEST DUP4 DUP2 LT ISZERO PUSH2 0x1C45 JUMPI DUP2 MLOAD PUSH2 0x1C2C DUP9 DUP3 PUSH2 0x1BCD JUMP JUMPDEST SWAP8 POP PUSH2 0x1C37 DUP4 PUSH2 0x2013 JUMP JUMPDEST SWAP3 POP POP PUSH1 0x1 DUP2 ADD SWAP1 POP PUSH2 0x1C18 JUMP JUMPDEST POP DUP6 SWAP4 POP POP POP POP SWAP3 SWAP2 POP POP JUMP JUMPDEST PUSH2 0x1C5B DUP2 PUSH2 0x2169 JUMP JUMPDEST DUP3 MSTORE POP POP JUMP JUMPDEST PUSH2 0x1C6A DUP2 PUSH2 0x2169 JUMP JUMPDEST DUP3 MSTORE POP POP JUMP JUMPDEST PUSH1 0x0 PUSH2 0x1C7D PUSH1 0x1D DUP4 PUSH2 0x2031 JUMP JUMPDEST SWAP2 POP PUSH2 0x1C88 DUP3 PUSH2 0x22A9 JUMP JUMPDEST PUSH1 0x20 DUP3 ADD SWAP1 POP SWAP2 SWAP1 POP JUMP JUMPDEST PUSH1 0x0 PUSH2 0x1CA0 PUSH1 0x2B DUP4 PUSH2 0x2031 JUMP JUMPDEST SWAP2 POP PUSH2 0x1CAB DUP3 PUSH2 0x22D2 JUMP JUMPDEST PUSH1 0x40 DUP3 ADD SWAP1 POP SWAP2 SWAP1 POP JUMP JUMPDEST PUSH1 0x0 PUSH2 0x1CC3 PUSH1 0x25 DUP4 PUSH2 0x2031 JUMP JUMPDEST SWAP2 POP PUSH2 0x1CCE DUP3 PUSH2 0x2321 JUMP JUMPDEST PUSH1 0x40 DUP3 ADD SWAP1 POP SWAP2 SWAP1 POP JUMP JUMPDEST PUSH1 0x0 PUSH2 0x1CE6 PUSH1 0x21 DUP4 PUSH2 0x2031 JUMP JUMPDEST SWAP2 POP PUSH2 0x1CF1 DUP3 PUSH2 0x2370 JUMP JUMPDEST PUSH1 0x40 DUP3 ADD SWAP1 POP SWAP2 SWAP1 POP JUMP JUMPDEST PUSH1 0x0 PUSH2 0x1D09 PUSH1 0x1B DUP4 PUSH2 0x2031 JUMP JUMPDEST SWAP2 POP PUSH2 0x1D14 DUP3 PUSH2 0x23BF JUMP JUMPDEST PUSH1 0x20 DUP3 ADD SWAP1 POP SWAP2 SWAP1 POP JUMP JUMPDEST PUSH1 0x0 PUSH2 0x1D2C PUSH1 0x23 DUP4 PUSH2 0x2031 JUMP JUMPDEST SWAP2 POP PUSH2 0x1D37 DUP3 PUSH2 0x23E8 JUMP JUMPDEST PUSH1 0x40 DUP3 ADD SWAP1 POP SWAP2 SWAP1 POP JUMP JUMPDEST PUSH1 0xC0 DUP3 ADD PUSH1 0x0 DUP3 ADD MLOAD PUSH2 0x1D58 PUSH1 0x0 DUP6 ADD DUP3 PUSH2 0x1DBD JUMP JUMPDEST POP PUSH1 0x20 DUP3 ADD MLOAD PUSH2 0x1D6B PUSH1 0x20 DUP6 ADD DUP3 PUSH2 0x1DBD JUMP JUMPDEST POP PUSH1 0x40 DUP3 ADD MLOAD PUSH2 0x1D7E PUSH1 0x40 DUP6 ADD DUP3 PUSH2 0x1DBD JUMP JUMPDEST POP PUSH1 0x60 DUP3 ADD MLOAD PUSH2 0x1D91 PUSH1 0x60 DUP6 ADD DUP3 PUSH2 0x1DBD JUMP JUMPDEST POP PUSH1 0x80 DUP3 ADD MLOAD PUSH2 0x1DA4 PUSH1 0x80 DUP6 ADD DUP3 PUSH2 0x1DBD JUMP JUMPDEST POP PUSH1 0xA0 DUP3 ADD MLOAD PUSH2 0x1DB7 PUSH1 0xA0 DUP6 ADD DUP3 PUSH2 0x1C52 JUMP JUMPDEST POP POP POP POP JUMP JUMPDEST PUSH2 0x1DC6 DUP2 PUSH2 0x2195 JUMP JUMPDEST DUP3 MSTORE POP POP JUMP JUMPDEST PUSH2 0x1DD5 DUP2 PUSH2 0x2195 JUMP JUMPDEST DUP3 MSTORE POP POP JUMP JUMPDEST PUSH1 0x0 PUSH1 0x20 DUP3 ADD SWAP1 POP PUSH2 0x1DF0 PUSH1 0x0 DUP4 ADD DUP5 PUSH2 0x1BE5 JUMP JUMPDEST SWAP3 SWAP2 POP POP JUMP JUMPDEST PUSH1 0x0 PUSH1 0x60 DUP3 ADD SWAP1 POP PUSH2 0x1E0B PUSH1 0x0 DUP4 ADD DUP7 PUSH2 0x1BE5 JUMP JUMPDEST PUSH2 0x1E18 PUSH1 0x20 DUP4 ADD DUP6 PUSH2 0x1BE5 JUMP JUMPDEST PUSH2 0x1E25 PUSH1 0x40 DUP4 ADD DUP5 PUSH2 0x1DCC JUMP JUMPDEST SWAP5 SWAP4 POP POP POP POP JUMP JUMPDEST PUSH1 0x0 PUSH1 0x40 DUP3 ADD SWAP1 POP PUSH2 0x1E42 PUSH1 0x0 DUP4 ADD DUP6 PUSH2 0x1BE5 JUMP JUMPDEST PUSH2 0x1E4F PUSH1 0x20 DUP4 ADD DUP5 PUSH2 0x1DCC JUMP JUMPDEST SWAP4 SWAP3 POP POP POP JUMP JUMPDEST PUSH1 0x0 PUSH1 0x20 DUP3 ADD SWAP1 POP DUP2 DUP2 SUB PUSH1 0x0 DUP4 ADD MSTORE PUSH2 0x1E70 DUP2 DUP5 PUSH2 0x1BF4 JUMP JUMPDEST SWAP1 POP SWAP3 SWAP2 POP POP JUMP JUMPDEST PUSH1 0x0 PUSH1 0x20 DUP3 ADD SWAP1 POP PUSH2 0x1E8D PUSH1 0x0 DUP4 ADD DUP5 PUSH2 0x1C61 JUMP JUMPDEST SWAP3 SWAP2 POP POP JUMP JUMPDEST PUSH1 0x0 PUSH1 0x20 DUP3 ADD SWAP1 POP DUP2 DUP2 SUB PUSH1 0x0 DUP4 ADD MSTORE PUSH2 0x1EAC DUP2 PUSH2 0x1C70 JUMP JUMPDEST SWAP1 POP SWAP2 SWAP1 POP JUMP JUMPDEST PUSH1 0x0 PUSH1 0x20 DUP3 ADD SWAP1 POP DUP2 DUP2 SUB PUSH1 0x0 DUP4 ADD MSTORE PUSH2 0x1ECC DUP2 PUSH2 0x1C93 JUMP JUMPDEST SWAP1 POP SWAP2 SWAP1 POP JUMP JUMPDEST PUSH1 0x0 PUSH1 0x20 DUP3 ADD SWAP1 POP DUP2 DUP2 SUB PUSH1 0x0 DUP4 ADD MSTORE PUSH2 0x1EEC DUP2 PUSH2 0x1CB6 JUMP JUMPDEST SWAP1 POP SWAP2 SWAP1 POP JUMP JUMPDEST PUSH1 0x0 PUSH1 0x20 DUP3 ADD SWAP1 POP DUP2 DUP2 SUB PUSH1 0x0 DUP4 ADD MSTORE PUSH2 0x1F0C DUP2 PUSH2 0x1CD9 JUMP JUMPDEST SWAP1 POP SWAP2 SWAP1 POP JUMP JUMPDEST PUSH1 0x0 PUSH1 0x20 DUP3 ADD SWAP1 POP DUP2 DUP2 SUB PUSH1 0x0 DUP4 ADD MSTORE PUSH2 0x1F2C DUP2 PUSH2 0x1CFC JUMP JUMPDEST SWAP1 POP SWAP2 SWAP1 POP JUMP JUMPDEST PUSH1 0x0 PUSH1 0x20 DUP3 ADD SWAP1 POP DUP2 DUP2 SUB PUSH1 0x0 DUP4 ADD MSTORE PUSH2 0x1F4C DUP2 PUSH2 0x1D1F JUMP JUMPDEST SWAP1 POP SWAP2 SWAP1 POP JUMP JUMPDEST PUSH1 0x0 PUSH1 0x20 DUP3 ADD SWAP1 POP PUSH2 0x1F68 PUSH1 0x0 DUP4 ADD DUP5 PUSH2 0x1DCC JUMP JUMPDEST SWAP3 SWAP2 POP POP JUMP JUMPDEST PUSH1 0x0 PUSH1 0xA0 DUP3 ADD SWAP1 POP PUSH2 0x1F83 PUSH1 0x0 DUP4 ADD DUP9 PUSH2 0x1DCC JUMP JUMPDEST PUSH2 0x1F90 PUSH1 0x20 DUP4 ADD DUP8 PUSH2 0x1BE5 JUMP JUMPDEST PUSH2 0x1F9D PUSH1 0x40 DUP4 ADD DUP7 PUSH2 0x1C61 JUMP JUMPDEST PUSH2 0x1FAA PUSH1 0x60 DUP4 ADD DUP6 PUSH2 0x1DCC JUMP JUMPDEST PUSH2 0x1FB7 PUSH1 0x80 DUP4 ADD DUP5 PUSH2 0x1DCC JUMP JUMPDEST SWAP7 SWAP6 POP POP POP POP POP POP JUMP JUMPDEST PUSH1 0x0 PUSH1 0x60 DUP3 ADD SWAP1 POP PUSH2 0x1FD6 PUSH1 0x0 DUP4 ADD DUP7 PUSH2 0x1DCC JUMP JUMPDEST PUSH2 0x1FE3 PUSH1 0x20 DUP4 ADD DUP6 PUSH2 0x1DCC JUMP JUMPDEST PUSH2 0x1FF0 PUSH1 0x40 DUP4 ADD DUP5 PUSH2 0x1DCC JUMP JUMPDEST SWAP5 SWAP4 POP POP POP POP JUMP JUMPDEST PUSH1 0x0 DUP2 SWAP1 POP PUSH1 0x20 DUP3 ADD SWAP1 POP SWAP2 SWAP1 POP JUMP JUMPDEST PUSH1 0x0 DUP2 MLOAD SWAP1 POP SWAP2 SWAP1 POP JUMP JUMPDEST PUSH1 0x0 PUSH1 0x20 DUP3 ADD SWAP1 POP SWAP2 SWAP1 POP JUMP JUMPDEST PUSH1 0x0 DUP3 DUP3 MSTORE PUSH1 0x20 DUP3 ADD SWAP1 POP SWAP3 SWAP2 POP POP JUMP JUMPDEST PUSH1 0x0 DUP3 DUP3 MSTORE PUSH1 0x20 DUP3 ADD SWAP1 POP SWAP3 SWAP2 POP POP JUMP JUMPDEST PUSH1 0x0 PUSH2 0x204D DUP3 PUSH2 0x2195 JUMP JUMPDEST SWAP2 POP PUSH2 0x2058 DUP4 PUSH2 0x2195 JUMP JUMPDEST SWAP3 POP DUP3 PUSH32 0xFFFFFFFFFFFFFFFFFFFFFFFFFFFFFFFFFFFFFFFFFFFFFFFFFFFFFFFFFFFFFFFF SUB DUP3 GT ISZERO PUSH2 0x208D JUMPI PUSH2 0x208C PUSH2 0x21E8 JUMP JUMPDEST JUMPDEST DUP3 DUP3 ADD SWAP1 POP SWAP3 SWAP2 POP POP JUMP JUMPDEST PUSH1 0x0 PUSH2 0x20A3 DUP3 PUSH2 0x2195 JUMP JUMPDEST SWAP2 POP PUSH2 0x20AE DUP4 PUSH2 0x2195 JUMP JUMPDEST SWAP3 POP DUP3 PUSH2 0x20BE JUMPI PUSH2 0x20BD PUSH2 0x2217 JUMP JUMPDEST JUMPDEST DUP3 DUP3 DIV SWAP1 POP SWAP3 SWAP2 POP POP JUMP JUMPDEST PUSH1 0x0 PUSH2 0x20D4 DUP3 PUSH2 0x2195 JUMP JUMPDEST SWAP2 POP PUSH2 0x20DF DUP4 PUSH2 0x2195 JUMP JUMPDEST SWAP3 POP DUP2 PUSH32 0xFFFFFFFFFFFFFFFFFFFFFFFFFFFFFFFFFFFFFFFFFFFFFFFFFFFFFFFFFFFFFFFF DIV DUP4 GT DUP3 ISZERO ISZERO AND ISZERO PUSH2 0x2118 JUMPI PUSH2 0x2117 PUSH2 0x21E8 JUMP JUMPDEST JUMPDEST DUP3 DUP3 MUL SWAP1 POP SWAP3 SWAP2 POP POP JUMP JUMPDEST PUSH1 0x0 PUSH2 0x212E DUP3 PUSH2 0x2195 JUMP JUMPDEST SWAP2 POP PUSH2 0x2139 DUP4 PUSH2 0x2195 JUMP JUMPDEST SWAP3 POP DUP3 DUP3 LT ISZERO PUSH2 0x214C JUMPI PUSH2 0x214B PUSH2 0x21E8 JUMP JUMPDEST JUMPDEST DUP3 DUP3 SUB SWAP1 POP SWAP3 SWAP2 POP POP JUMP JUMPDEST PUSH1 0x0 PUSH2 0x2162 DUP3 PUSH2 0x2175 JUMP JUMPDEST SWAP1 POP SWAP2 SWAP1 POP JUMP JUMPDEST PUSH1 0x0 DUP2 ISZERO ISZERO SWAP1 POP SWAP2 SWAP1 POP JUMP JUMPDEST PUSH1 0x0 PUSH20 0xFFFFFFFFFFFFFFFFFFFFFFFFFFFFFFFFFFFFFFFF DUP3 AND SWAP1 POP SWAP2 SWAP1 POP JUMP JUMPDEST PUSH1 0x0 DUP2 SWAP1 POP SWAP2 SWAP1 POP JUMP JUMPDEST PUSH1 0x0 PUSH2 0x21AA DUP3 PUSH2 0x2195 JUMP JUMPDEST SWAP2 POP PUSH32 0xFFFFFFFFFFFFFFFFFFFFFFFFFFFFFFFFFFFFFFFFFFFFFFFFFFFFFFFFFFFFFFFF DUP3 EQ ISZERO PUSH2 0x21DD JUMPI PUSH2 0x21DC PUSH2 0x21E8 JUMP JUMPDEST JUMPDEST PUSH1 0x1 DUP3 ADD SWAP1 POP SWAP2 SWAP1 POP JUMP JUMPDEST PUSH32 0x4E487B7100000000000000000000000000000000000000000000000000000000 PUSH1 0x0 MSTORE PUSH1 0x11 PUSH1 0x4 MSTORE PUSH1 0x24 PUSH1 0x0 REVERT JUMPDEST PUSH32 0x4E487B7100000000000000000000000000000000000000000000000000000000 PUSH1 0x0 MSTORE PUSH1 0x12 PUSH1 0x4 MSTORE PUSH1 0x24 PUSH1 0x0 REVERT JUMPDEST PUSH32 0x4E487B7100000000000000000000000000000000000000000000000000000000 PUSH1 0x0 MSTORE PUSH1 0x32 PUSH1 0x4 MSTORE PUSH1 0x24 PUSH1 0x0 REVERT JUMPDEST PUSH32 0x4E487B7100000000000000000000000000000000000000000000000000000000 PUSH1 0x0 MSTORE PUSH1 0x41 PUSH1 0x4 MSTORE PUSH1 0x24 PUSH1 0x0 REVERT JUMPDEST PUSH1 0x0 DUP1 REVERT JUMPDEST PUSH32 0x796F7520646F6E74206861766520746F6B656E7320746F20636C61696D000000 PUSH1 0x0 DUP3 ADD MSTORE POP JUMP JUMPDEST PUSH32 0x696E766573746D656E7420636C61696D2074696D652074696D65206973206E6F PUSH1 0x0 DUP3 ADD MSTORE PUSH32 0x7420636F6D706C65746564000000000000000000000000000000000000000000 PUSH1 0x20 DUP3 ADD MSTORE POP JUMP JUMPDEST PUSH32 0x61736B696E6720746F6B656E7320617265206D6F7265207468616E2074686520 PUSH1 0x0 DUP3 ADD MSTORE PUSH32 0x6C696D6974000000000000000000000000000000000000000000000000000000 PUSH1 0x20 DUP3 ADD MSTORE POP JUMP JUMPDEST PUSH32 0x6F6E6C79204F776E65722063616E2063616C6C20746869732066756E6374696F PUSH1 0x0 DUP3 ADD MSTORE PUSH32 0x6E00000000000000000000000000000000000000000000000000000000000000 PUSH1 0x20 DUP3 ADD MSTORE POP JUMP JUMPDEST PUSH32 0x746F6B656E7320646F6573206E6F74207472616E736665727265640000000000 PUSH1 0x0 DUP3 ADD MSTORE POP JUMP JUMPDEST PUSH32 0x796F7520646F6E74206861766520656E6F7567682062616C616E636520746F20 PUSH1 0x0 DUP3 ADD MSTORE PUSH32 0x6275790000000000000000000000000000000000000000000000000000000000 PUSH1 0x20 DUP3 ADD MSTORE POP JUMP JUMPDEST PUSH2 0x2440 DUP2 PUSH2 0x2157 JUMP JUMPDEST DUP2 EQ PUSH2 0x244B JUMPI PUSH1 0x0 DUP1 REVERT JUMPDEST POP JUMP JUMPDEST PUSH2 0x2457 DUP2 PUSH2 0x2169 JUMP JUMPDEST DUP2 EQ PUSH2 0x2462 JUMPI PUSH1 0x0 DUP1 REVERT JUMPDEST POP JUMP JUMPDEST PUSH2 0x246E DUP2 PUSH2 0x2195 JUMP JUMPDEST DUP2 EQ PUSH2 0x2479 JUMPI PUSH1 0x0 DUP1 REVERT JUMPDEST POP JUMP INVALID LOG2 PUSH5 0x6970667358 0x22 SLT KECCAK256 0x4D DUP2 SWAP2 0x4C MSTORE 0x24 PUSH31 0x87CEB709325F27F38876AE2744396E8551137DE2B5B1CDADE064736F6C6343 STOP ADDMOD SMOD STOP CALLER "
				},
				"gasEstimates": {
					"creation": {
						"codeDepositCost": "1878800",
						"executionCost": "infinite",
						"totalCost": "infinite"
					},
					"external": {
						"buy_token_add()": "2581",
						"buy_tokens(address)": "infinite",
						"change_upperLimit(uint256,uint256)": "infinite",
						"claim_bought_tokens(uint256)": "infinite",
						"claim_ref_tokens()": "infinite",
						"getAll_Buyings()": "infinite",
						"get_claim_ref_tokens()": "2555",
						"get_claimable_tokens()": "2621",
						"num()": "2474",
						"owner()": "2581",
						"round(uint256)": "infinite",
						"time_end()": "2495",
						"transferOwnership(address)": "26980",
						"usdt_address()": "2538",
						"user(address)": "infinite"
					},
					"internal": {
						"sendRewardToReferrals(address,uint256)": "infinite"
					}
				},
				"methodIdentifiers": {
					"buy_token_add()": "6f75c969",
					"buy_tokens(address)": "c68d4a38",
					"change_upperLimit(uint256,uint256)": "d1869d89",
					"claim_bought_tokens(uint256)": "2f8bf52c",
					"claim_ref_tokens()": "783c94a7",
					"getAll_Buyings()": "44476bfb",
					"get_claim_ref_tokens()": "7d43577c",
					"get_claimable_tokens()": "935f3111",
					"num()": "4e70b1dc",
					"owner()": "8da5cb5b",
					"round(uint256)": "34d5f37b",
					"time_end()": "df075292",
					"transferOwnership(address)": "f2fde38b",
					"usdt_address()": "1fef3056",
					"user(address)": "81e7e20e"
				}
			},
			"storageLayout": {
				"storage": [
					{
						"astId": 184,
						"contract": "contracts/ODI_with _referral.sol:DOI",
						"label": "user",
						"offset": 0,
						"slot": "0",
						"type": "t_mapping(t_address,t_struct(user_info)61_storage)"
					},
					{
						"astId": 189,
						"contract": "contracts/ODI_with _referral.sol:DOI",
						"label": "round",
						"offset": 0,
						"slot": "1",
						"type": "t_mapping(t_uint256,t_struct(Data)68_storage)"
					},
					{
						"astId": 191,
						"contract": "contracts/ODI_with _referral.sol:DOI",
						"label": "usdt_address",
						"offset": 0,
						"slot": "2",
						"type": "t_address"
					},
					{
						"astId": 193,
						"contract": "contracts/ODI_with _referral.sol:DOI",
						"label": "buy_token_add",
						"offset": 0,
						"slot": "3",
						"type": "t_address"
					},
					{
						"astId": 195,
						"contract": "contracts/ODI_with _referral.sol:DOI",
						"label": "owner",
						"offset": 0,
						"slot": "4",
						"type": "t_address"
					},
					{
						"astId": 197,
						"contract": "contracts/ODI_with _referral.sol:DOI",
						"label": "time_end",
						"offset": 0,
						"slot": "5",
						"type": "t_uint256"
					},
					{
						"astId": 199,
						"contract": "contracts/ODI_with _referral.sol:DOI",
						"label": "num",
						"offset": 0,
						"slot": "6",
						"type": "t_uint256"
					}
				],
				"types": {
					"t_address": {
						"encoding": "inplace",
						"label": "address",
						"numberOfBytes": "20"
					},
					"t_array(t_address)dyn_storage": {
						"base": "t_address",
						"encoding": "dynamic_array",
						"label": "address[]",
						"numberOfBytes": "32"
					},
					"t_bool": {
						"encoding": "inplace",
						"label": "bool",
						"numberOfBytes": "1"
					},
					"t_mapping(t_address,t_struct(user_info)61_storage)": {
						"encoding": "mapping",
						"key": "t_address",
						"label": "mapping(address => struct DOI.user_info)",
						"numberOfBytes": "32",
						"value": "t_struct(user_info)61_storage"
					},
					"t_mapping(t_uint256,t_struct(Data)68_storage)": {
						"encoding": "mapping",
						"key": "t_uint256",
						"label": "mapping(uint256 => struct DOI.Data)",
						"numberOfBytes": "32",
						"value": "t_struct(Data)68_storage"
					},
					"t_mapping(t_uint256,t_struct(allInvestments)42_storage)": {
						"encoding": "mapping",
						"key": "t_uint256",
						"label": "mapping(uint256 => struct DOI.allInvestments)",
						"numberOfBytes": "32",
						"value": "t_struct(allInvestments)42_storage"
					},
					"t_struct(Data)68_storage": {
						"encoding": "inplace",
						"label": "struct DOI.Data",
						"members": [
							{
								"astId": 63,
								"contract": "contracts/ODI_with _referral.sol:DOI",
								"label": "upper_limit",
								"offset": 0,
								"slot": "0",
								"type": "t_uint256"
							},
							{
								"astId": 65,
								"contract": "contracts/ODI_with _referral.sol:DOI",
								"label": "quantity",
								"offset": 0,
								"slot": "1",
								"type": "t_uint256"
							},
							{
								"astId": 67,
								"contract": "contracts/ODI_with _referral.sol:DOI",
								"label": "total_limit",
								"offset": 0,
								"slot": "2",
								"type": "t_uint256"
							}
						],
						"numberOfBytes": "96"
					},
					"t_struct(allInvestments)42_storage": {
						"encoding": "inplace",
						"label": "struct DOI.allInvestments",
						"members": [
							{
								"astId": 31,
								"contract": "contracts/ODI_with _referral.sol:DOI",
								"label": "investedAmount",
								"offset": 0,
								"slot": "0",
								"type": "t_uint256"
							},
							{
								"astId": 33,
								"contract": "contracts/ODI_with _referral.sol:DOI",
								"label": "claim_Time",
								"offset": 0,
								"slot": "1",
								"type": "t_uint256"
							},
							{
								"astId": 35,
								"contract": "contracts/ODI_with _referral.sol:DOI",
								"label": "buying_Time",
								"offset": 0,
								"slot": "2",
								"type": "t_uint256"
							},
							{
								"astId": 37,
								"contract": "contracts/ODI_with _referral.sol:DOI",
								"label": "investmentNum",
								"offset": 0,
								"slot": "3",
								"type": "t_uint256"
							},
							{
								"astId": 39,
								"contract": "contracts/ODI_with _referral.sol:DOI",
								"label": "unstakeTime",
								"offset": 0,
								"slot": "4",
								"type": "t_uint256"
							},
							{
								"astId": 41,
								"contract": "contracts/ODI_with _referral.sol:DOI",
								"label": "claimed",
								"offset": 0,
								"slot": "5",
								"type": "t_bool"
							}
						],
						"numberOfBytes": "192"
					},
					"t_struct(user_info)61_storage": {
						"encoding": "inplace",
						"label": "struct DOI.user_info",
						"members": [
							{
								"astId": 47,
								"contract": "contracts/ODI_with _referral.sol:DOI",
								"label": "investment",
								"offset": 0,
								"slot": "0",
								"type": "t_mapping(t_uint256,t_struct(allInvestments)42_storage)"
							},
							{
								"astId": 49,
								"contract": "contracts/ODI_with _referral.sol:DOI",
								"label": "tokens_for_claiming",
								"offset": 0,
								"slot": "1",
								"type": "t_uint256"
							},
							{
								"astId": 51,
								"contract": "contracts/ODI_with _referral.sol:DOI",
								"label": "referralFrom",
								"offset": 0,
								"slot": "2",
								"type": "t_address"
							},
							{
								"astId": 53,
								"contract": "contracts/ODI_with _referral.sol:DOI",
								"label": "investBefore",
								"offset": 20,
								"slot": "2",
								"type": "t_bool"
							},
							{
								"astId": 56,
								"contract": "contracts/ODI_with _referral.sol:DOI",
								"label": "hisReferrals",
								"offset": 0,
								"slot": "3",
								"type": "t_array(t_address)dyn_storage"
							},
							{
								"astId": 58,
								"contract": "contracts/ODI_with _referral.sol:DOI",
								"label": "ref_tokens_claiming",
								"offset": 0,
								"slot": "4",
								"type": "t_uint256"
							},
							{
								"astId": 60,
								"contract": "contracts/ODI_with _referral.sol:DOI",
								"label": "total_investments",
								"offset": 0,
								"slot": "5",
								"type": "t_uint256"
							}
						],
						"numberOfBytes": "192"
					},
					"t_uint256": {
						"encoding": "inplace",
						"label": "uint256",
						"numberOfBytes": "32"
					}
				}
			},
			"userdoc": {
				"kind": "user",
				"methods": {},
				"version": 1
			}
		}
	}
}