{
	"contracts/stake_reward_MLM.sol": {
		"Invest": {
			"abi": [
				{
					"inputs": [],
					"stateMutability": "nonpayable",
					"type": "constructor"
				},
				{
					"inputs": [],
					"name": "DUSDReferralsList",
					"outputs": [
						{
							"internalType": "address[]",
							"name": "",
							"type": "address[]"
						}
					],
					"stateMutability": "view",
					"type": "function"
				},
				{
					"inputs": [],
					"name": "DUSDTotalReferrals",
					"outputs": [
						{
							"internalType": "uint256",
							"name": "",
							"type": "uint256"
						}
					],
					"stateMutability": "view",
					"type": "function"
				},
				{
					"inputs": [
						{
							"internalType": "address",
							"name": "",
							"type": "address"
						}
					],
					"name": "DUSDinvestor",
					"outputs": [
						{
							"internalType": "address",
							"name": "referralFrom",
							"type": "address"
						},
						{
							"internalType": "uint256",
							"name": "reward",
							"type": "uint256"
						},
						{
							"internalType": "uint256",
							"name": "noOfInvestment",
							"type": "uint256"
						},
						{
							"internalType": "uint256",
							"name": "totalInvestment",
							"type": "uint256"
						},
						{
							"internalType": "uint256",
							"name": "totalWithdraw_reward",
							"type": "uint256"
						},
						{
							"internalType": "bool",
							"name": "investBefore",
							"type": "bool"
						},
						{
							"internalType": "uint256",
							"name": "stakeTime",
							"type": "uint256"
						}
					],
					"stateMutability": "view",
					"type": "function"
				},
				{
					"inputs": [
						{
							"internalType": "uint256",
							"name": "_investedamount",
							"type": "uint256"
						},
						{
							"internalType": "address",
							"name": "_referral",
							"type": "address"
						}
					],
					"name": "Stake",
					"outputs": [
						{
							"internalType": "bool",
							"name": "success",
							"type": "bool"
						}
					],
					"stateMutability": "nonpayable",
					"type": "function"
				},
				{
					"inputs": [],
					"name": "denomenator",
					"outputs": [
						{
							"internalType": "uint256",
							"name": "",
							"type": "uint256"
						}
					],
					"stateMutability": "view",
					"type": "function"
				},
				{
					"inputs": [],
					"name": "div_done",
					"outputs": [
						{
							"internalType": "uint256",
							"name": "",
							"type": "uint256"
						}
					],
					"stateMutability": "view",
					"type": "function"
				},
				{
					"inputs": [],
					"name": "getAllDUSDinvestments",
					"outputs": [
						{
							"components": [
								{
									"internalType": "uint256",
									"name": "investedAmount",
									"type": "uint256"
								},
								{
									"internalType": "uint256",
									"name": "withdrawnTime",
									"type": "uint256"
								},
								{
									"internalType": "uint256",
									"name": "DepositTime",
									"type": "uint256"
								},
								{
									"internalType": "uint256",
									"name": "investmentNum",
									"type": "uint256"
								},
								{
									"internalType": "uint256",
									"name": "unstakeTime",
									"type": "uint256"
								},
								{
									"internalType": "bool",
									"name": "unstake",
									"type": "bool"
								}
							],
							"internalType": "struct Invest.allInvestments[]",
							"name": "",
							"type": "tuple[]"
						}
					],
					"stateMutability": "view",
					"type": "function"
				},
				{
					"inputs": [],
					"name": "getReward",
					"outputs": [
						{
							"internalType": "uint256",
							"name": "",
							"type": "uint256"
						}
					],
					"stateMutability": "view",
					"type": "function"
				},
				{
					"inputs": [],
					"name": "getTotalInvestmentDUSD",
					"outputs": [
						{
							"internalType": "uint256",
							"name": "",
							"type": "uint256"
						}
					],
					"stateMutability": "view",
					"type": "function"
				},
				{
					"inputs": [],
					"name": "i_value",
					"outputs": [
						{
							"internalType": "uint256",
							"name": "",
							"type": "uint256"
						}
					],
					"stateMutability": "view",
					"type": "function"
				},
				{
					"inputs": [],
					"name": "investmentPeriod",
					"outputs": [
						{
							"internalType": "uint256",
							"name": "",
							"type": "uint256"
						}
					],
					"stateMutability": "view",
					"type": "function"
				},
				{
					"inputs": [],
					"name": "max_Stake_amount",
					"outputs": [
						{
							"internalType": "uint256",
							"name": "",
							"type": "uint256"
						}
					],
					"stateMutability": "view",
					"type": "function"
				},
				{
					"inputs": [],
					"name": "min_Stake_amount",
					"outputs": [
						{
							"internalType": "uint256",
							"name": "",
							"type": "uint256"
						}
					],
					"stateMutability": "view",
					"type": "function"
				},
				{
					"inputs": [],
					"name": "owner",
					"outputs": [
						{
							"internalType": "address",
							"name": "",
							"type": "address"
						}
					],
					"stateMutability": "view",
					"type": "function"
				},
				{
					"inputs": [],
					"name": "referralLevel_count",
					"outputs": [
						{
							"internalType": "uint256[]",
							"name": "arr",
							"type": "uint256[]"
						}
					],
					"stateMutability": "view",
					"type": "function"
				},
				{
					"inputs": [],
					"name": "referralLevel_earning",
					"outputs": [
						{
							"internalType": "uint256[]",
							"name": "arr",
							"type": "uint256[]"
						}
					],
					"stateMutability": "view",
					"type": "function"
				},
				{
					"inputs": [],
					"name": "rewardToken",
					"outputs": [
						{
							"internalType": "uint256",
							"name": "",
							"type": "uint256"
						}
					],
					"stateMutability": "view",
					"type": "function"
				},
				{
					"inputs": [
						{
							"internalType": "uint256",
							"name": "_amount",
							"type": "uint256"
						},
						{
							"internalType": "uint256",
							"name": "_denomenator",
							"type": "uint256"
						}
					],
					"name": "setReward",
					"outputs": [],
					"stateMutability": "nonpayable",
					"type": "function"
				},
				{
					"inputs": [
						{
							"internalType": "uint256",
							"name": "_amount",
							"type": "uint256"
						}
					],
					"name": "set_max_Stake_amount",
					"outputs": [],
					"stateMutability": "nonpayable",
					"type": "function"
				},
				{
					"inputs": [
						{
							"internalType": "uint256",
							"name": "_amount",
							"type": "uint256"
						}
					],
					"name": "set_min_Stake_amount",
					"outputs": [],
					"stateMutability": "nonpayable",
					"type": "function"
				},
				{
					"inputs": [
						{
							"internalType": "uint256",
							"name": "min_stake",
							"type": "uint256"
						},
						{
							"internalType": "uint256",
							"name": "max_stake",
							"type": "uint256"
						},
						{
							"internalType": "uint256",
							"name": "reward_per_day",
							"type": "uint256"
						},
						{
							"internalType": "uint256",
							"name": "_denomenator",
							"type": "uint256"
						}
					],
					"name": "set_values",
					"outputs": [],
					"stateMutability": "nonpayable",
					"type": "function"
				},
				{
					"inputs": [],
					"name": "totalDUSDInvestors",
					"outputs": [
						{
							"internalType": "uint256",
							"name": "",
							"type": "uint256"
						}
					],
					"stateMutability": "view",
					"type": "function"
				},
				{
					"inputs": [],
					"name": "totalbusiness",
					"outputs": [
						{
							"internalType": "uint256",
							"name": "",
							"type": "uint256"
						}
					],
					"stateMutability": "view",
					"type": "function"
				},
				{
					"inputs": [
						{
							"internalType": "address",
							"name": "_owner",
							"type": "address"
						}
					],
					"name": "transferOwnership",
					"outputs": [],
					"stateMutability": "nonpayable",
					"type": "function"
				},
				{
					"inputs": [],
					"name": "unStake",
					"outputs": [
						{
							"internalType": "bool",
							"name": "success",
							"type": "bool"
						}
					],
					"stateMutability": "nonpayable",
					"type": "function"
				},
				{
					"inputs": [],
					"name": "withdrawReward",
					"outputs": [
						{
							"internalType": "bool",
							"name": "success",
							"type": "bool"
						}
					],
					"stateMutability": "nonpayable",
					"type": "function"
				}
			],
			"devdoc": {
				"kind": "dev",
				"methods": {},
				"version": 1
			},
			"evm": {
				"assembly": "    /* \"contracts/stake_reward_MLM.sol\":262:12655  contract Invest... */\n  mstore(0x40, 0x80)\n    /* \"contracts/stake_reward_MLM.sol\":351:393  0x4d00DDCC526c14Fd353131F289b1e62C856E9737 */\n  0x4d00ddcc526c14fd353131f289b1e62c856e9737\n    /* \"contracts/stake_reward_MLM.sol\":331:393  address SMCcontract=0x4d00DDCC526c14Fd353131F289b1e62C856E9737 */\n  0x01\n  exp(0x0100, 0x00)\n  dup2\n  sload\n  dup2\n  0xffffffffffffffffffffffffffffffffffffffff\n  mul\n  not\n  and\n  swap1\n  dup4\n  0xffffffffffffffffffffffffffffffffffffffff\n  and\n  mul\n  or\n  swap1\n  sstore\n  pop\n    /* \"contracts/stake_reward_MLM.sol\":424:466  0xe9e7CEA3DedcA5984780Bafc599bD69ADd087D56 */\n  0xe9e7cea3dedca5984780bafc599bd69add087d56\n    /* \"contracts/stake_reward_MLM.sol\":403:466  address BUSDcontract=0xe9e7CEA3DedcA5984780Bafc599bD69ADd087D56 */\n  0x02\n  exp(0x0100, 0x00)\n  dup2\n  sload\n  dup2\n  0xffffffffffffffffffffffffffffffffffffffff\n  mul\n  not\n  and\n  swap1\n  dup4\n  0xffffffffffffffffffffffffffffffffffffffff\n  and\n  mul\n  or\n  swap1\n  sstore\n  pop\n    /* \"contracts/stake_reward_MLM.sol\":752:771  5000000000000000000 */\n  0x4563918244f40000\n    /* \"contracts/stake_reward_MLM.sol\":728:771  uint public rewardToken=5000000000000000000 */\n  0x06\n  sstore\n    /* \"contracts/stake_reward_MLM.sol\":820:825  10000 */\n  0x2710\n    /* \"contracts/stake_reward_MLM.sol\":791:825  uint public min_Stake_amount=10000 */\n  0x07\n  sstore\n    /* \"contracts/stake_reward_MLM.sol\":891:898  5000000 */\n  0x4c4b40\n    /* \"contracts/stake_reward_MLM.sol\":862:898  uint public max_Stake_amount=5000000 */\n  0x08\n  sstore\n    /* \"contracts/stake_reward_MLM.sol\":960:966  100000 */\n  0x0186a0\n    /* \"contracts/stake_reward_MLM.sol\":936:966  uint public denomenator=100000 */\n  0x09\n  sstore\n    /* \"contracts/stake_reward_MLM.sol\":1033:1041  300 days */\n  0x018b8200\n    /* \"contracts/stake_reward_MLM.sol\":1004:1041  uint public investmentPeriod=300 days */\n  0x0a\n  sstore\n    /* \"contracts/stake_reward_MLM.sol\":1884:2014  constructor(){... */\n  callvalue\n  dup1\n  iszero\n  tag_1\n  jumpi\n  0x00\n  dup1\n  revert\ntag_1:\n  pop\n    /* \"contracts/stake_reward_MLM.sol\":1930:1940  msg.sender */\n  caller\n    /* \"contracts/stake_reward_MLM.sol\":1924:1929  owner */\n  0x00\n  dup1\n    /* \"contracts/stake_reward_MLM.sol\":1924:1940  owner=msg.sender */\n  0x0100\n  exp\n  dup2\n  sload\n  dup2\n  0xffffffffffffffffffffffffffffffffffffffff\n  mul\n  not\n  and\n  swap1\n  dup4\n  0xffffffffffffffffffffffffffffffffffffffff\n  and\n  mul\n  or\n  swap1\n  sstore\n  pop\n    /* \"contracts/stake_reward_MLM.sol\":262:12655  contract Invest... */\n  dataSize(sub_0)\n  dup1\n  dataOffset(sub_0)\n  0x00\n  codecopy\n  0x00\n  return\nstop\n\nsub_0: assembly {\n        /* \"contracts/stake_reward_MLM.sol\":262:12655  contract Invest... */\n      mstore(0x40, 0x80)\n      callvalue\n      dup1\n      iszero\n      tag_1\n      jumpi\n      0x00\n      dup1\n      revert\n    tag_1:\n      pop\n      jumpi(tag_2, lt(calldatasize, 0x04))\n      shr(0xe0, calldataload(0x00))\n      dup1\n      0x9740a1bc\n      gt\n      tag_29\n      jumpi\n      dup1\n      0xc885bc58\n      gt\n      tag_30\n      jumpi\n      dup1\n      0xf2fde38b\n      gt\n      tag_31\n      jumpi\n      dup1\n      0xf2fde38b\n      eq\n      tag_25\n      jumpi\n      dup1\n      0xf790b81a\n      eq\n      tag_26\n      jumpi\n      dup1\n      0xf7c618c1\n      eq\n      tag_27\n      jumpi\n      dup1\n      0xfae730bc\n      eq\n      tag_28\n      jumpi\n      jump(tag_2)\n    tag_31:\n      dup1\n      0xc885bc58\n      eq\n      tag_22\n      jumpi\n      dup1\n      0xd3560ee8\n      eq\n      tag_23\n      jumpi\n      dup1\n      0xe2033fcb\n      eq\n      tag_24\n      jumpi\n      jump(tag_2)\n    tag_30:\n      dup1\n      0x9740a1bc\n      eq\n      tag_16\n      jumpi\n      dup1\n      0x9a5bb417\n      eq\n      tag_17\n      jumpi\n      dup1\n      0xa47bd496\n      eq\n      tag_18\n      jumpi\n      dup1\n      0xa61be99d\n      eq\n      tag_19\n      jumpi\n      dup1\n      0xb8df2d0e\n      eq\n      tag_20\n      jumpi\n      dup1\n      0xbc67eaff\n      eq\n      tag_21\n      jumpi\n      jump(tag_2)\n    tag_29:\n      dup1\n      0x3d18b912\n      gt\n      tag_32\n      jumpi\n      dup1\n      0x523cddfe\n      gt\n      tag_33\n      jumpi\n      dup1\n      0x523cddfe\n      eq\n      tag_12\n      jumpi\n      dup1\n      0x73cf575a\n      eq\n      tag_13\n      jumpi\n      dup1\n      0x8da5cb5b\n      eq\n      tag_14\n      jumpi\n      dup1\n      0x929f6bbe\n      eq\n      tag_15\n      jumpi\n      jump(tag_2)\n    tag_33:\n      dup1\n      0x3d18b912\n      eq\n      tag_9\n      jumpi\n      dup1\n      0x4eb1ecc9\n      eq\n      tag_10\n      jumpi\n      dup1\n      0x500cb85f\n      eq\n      tag_11\n      jumpi\n      jump(tag_2)\n    tag_32:\n      dup1\n      0x0c5f58f4\n      eq\n      tag_3\n      jumpi\n      dup1\n      0x10cde60a\n      eq\n      tag_4\n      jumpi\n      dup1\n      0x1e8aba35\n      eq\n      tag_5\n      jumpi\n      dup1\n      0x2bccdce6\n      eq\n      tag_6\n      jumpi\n      dup1\n      0x32d4e783\n      eq\n      tag_7\n      jumpi\n      dup1\n      0x3a1e0833\n      eq\n      tag_8\n      jumpi\n    tag_2:\n      0x00\n      dup1\n      revert\n        /* \"contracts/stake_reward_MLM.sol\":10415:10624  function DUSDReferralsList() public view returns(address[] memory){ //this function is to get the all investors list with there account number... */\n    tag_3:\n      tag_34\n      tag_35\n      jump\t// in\n    tag_34:\n      mload(0x40)\n      tag_36\n      swap2\n      swap1\n      tag_37\n      jump\t// in\n    tag_36:\n      mload(0x40)\n      dup1\n      swap2\n      sub\n      swap1\n      return\n        /* \"contracts/stake_reward_MLM.sol\":688:718  uint public totalDUSDInvestors */\n    tag_4:\n      tag_38\n      tag_39\n      jump\t// in\n    tag_38:\n      mload(0x40)\n      tag_40\n      swap2\n      swap1\n      tag_41\n      jump\t// in\n    tag_40:\n      mload(0x40)\n      dup1\n      swap2\n      sub\n      swap1\n      return\n        /* \"contracts/stake_reward_MLM.sol\":10214:10405  function DUSDTotalReferrals() public view returns(uint){ // this function is to get the total number of referrals ... */\n    tag_5:\n      tag_42\n      tag_43\n      jump\t// in\n    tag_42:\n      mload(0x40)\n      tag_44\n      swap2\n      swap1\n      tag_41\n      jump\t// in\n    tag_44:\n      mload(0x40)\n      dup1\n      swap2\n      sub\n      swap1\n      return\n        /* \"contracts/stake_reward_MLM.sol\":3764:5832  function Stake(uint _investedamount,address _referral) external returns(bool success){... */\n    tag_6:\n      tag_45\n      0x04\n      dup1\n      calldatasize\n      sub\n      dup2\n      add\n      swap1\n      tag_46\n      swap2\n      swap1\n      tag_47\n      jump\t// in\n    tag_46:\n      tag_48\n      jump\t// in\n    tag_45:\n      mload(0x40)\n      tag_49\n      swap2\n      swap1\n      tag_50\n      jump\t// in\n    tag_49:\n      mload(0x40)\n      dup1\n      swap2\n      sub\n      swap1\n      return\n        /* \"contracts/stake_reward_MLM.sol\":10796:10907  function set_min_Stake_amount(uint _amount) public ... */\n    tag_7:\n      tag_51\n      0x04\n      dup1\n      calldatasize\n      sub\n      dup2\n      add\n      swap1\n      tag_52\n      swap2\n      swap1\n      tag_53\n      jump\t// in\n    tag_52:\n      tag_54\n      jump\t// in\n    tag_51:\n      stop\n        /* \"contracts/stake_reward_MLM.sol\":9219:10202  function getAllDUSDinvestments() public view returns (allInvestments[] memory) { //this function will return the all investments of the investor and withware date... */\n    tag_8:\n      tag_55\n      tag_56\n      jump\t// in\n    tag_55:\n      mload(0x40)\n      tag_57\n      swap2\n      swap1\n      tag_58\n      jump\t// in\n    tag_57:\n      mload(0x40)\n      dup1\n      swap2\n      sub\n      swap1\n      return\n        /* \"contracts/stake_reward_MLM.sol\":5841:6935  function getReward() view public returns(uint){ //this function is get the total reward balance of the investor... */\n    tag_9:\n      tag_59\n      tag_60\n      jump\t// in\n    tag_59:\n      mload(0x40)\n      tag_61\n      swap2\n      swap1\n      tag_41\n      jump\t// in\n    tag_61:\n      mload(0x40)\n      dup1\n      swap2\n      sub\n      swap1\n      return\n        /* \"contracts/stake_reward_MLM.sol\":11036:11318  function set_values(uint min_stake,uint max_stake,uint reward_per_day,uint _denomenator) public ... */\n    tag_10:\n      tag_62\n      0x04\n      dup1\n      calldatasize\n      sub\n      dup2\n      add\n      swap1\n      tag_63\n      swap2\n      swap1\n      tag_64\n      jump\t// in\n    tag_63:\n      tag_65\n      jump\t// in\n    tag_62:\n      stop\n        /* \"contracts/stake_reward_MLM.sol\":10916:11027  function set_max_Stake_amount(uint _amount) public ... */\n    tag_11:\n      tag_66\n      0x04\n      dup1\n      calldatasize\n      sub\n      dup2\n      add\n      swap1\n      tag_67\n      swap2\n      swap1\n      tag_53\n      jump\t// in\n    tag_67:\n      tag_68\n      jump\t// in\n    tag_66:\n      stop\n        /* \"contracts/stake_reward_MLM.sol\":1004:1041  uint public investmentPeriod=300 days */\n    tag_12:\n      tag_69\n      tag_70\n      jump\t// in\n    tag_69:\n      mload(0x40)\n      tag_71\n      swap2\n      swap1\n      tag_41\n      jump\t// in\n    tag_71:\n      mload(0x40)\n      dup1\n      swap2\n      sub\n      swap1\n      return\n        /* \"contracts/stake_reward_MLM.sol\":7437:8989  function unStake() external  returns (bool success){... */\n    tag_13:\n      tag_72\n      tag_73\n      jump\t// in\n    tag_72:\n      mload(0x40)\n      tag_74\n      swap2\n      swap1\n      tag_50\n      jump\t// in\n    tag_74:\n      mload(0x40)\n      dup1\n      swap2\n      sub\n      swap1\n      return\n        /* \"contracts/stake_reward_MLM.sol\":300:321  address  public owner */\n    tag_14:\n      tag_75\n      tag_76\n      jump\t// in\n    tag_75:\n      mload(0x40)\n      tag_77\n      swap2\n      swap1\n      tag_78\n      jump\t// in\n    tag_77:\n      mload(0x40)\n      dup1\n      swap2\n      sub\n      swap1\n      return\n        /* \"contracts/stake_reward_MLM.sol\":8999:9209  function getTotalInvestmentDUSD() public view returns(uint) {   //this function is to get the total investment of the ivestor... */\n    tag_15:\n      tag_79\n      tag_80\n      jump\t// in\n    tag_79:\n      mload(0x40)\n      tag_81\n      swap2\n      swap1\n      tag_41\n      jump\t// in\n    tag_81:\n      mload(0x40)\n      dup1\n      swap2\n      sub\n      swap1\n      return\n        /* \"contracts/stake_reward_MLM.sol\":936:966  uint public denomenator=100000 */\n    tag_16:\n      tag_82\n      tag_83\n      jump\t// in\n    tag_82:\n      mload(0x40)\n      tag_84\n      swap2\n      swap1\n      tag_41\n      jump\t// in\n    tag_84:\n      mload(0x40)\n      dup1\n      swap2\n      sub\n      swap1\n      return\n        /* \"contracts/stake_reward_MLM.sol\":476:496  uint public div_done */\n    tag_17:\n      tag_85\n      tag_86\n      jump\t// in\n    tag_85:\n      mload(0x40)\n      tag_87\n      swap2\n      swap1\n      tag_41\n      jump\t// in\n    tag_87:\n      mload(0x40)\n      dup1\n      swap2\n      sub\n      swap1\n      return\n        /* \"contracts/stake_reward_MLM.sol\":10633:10787  function setReward(uint _amount,uint _denomenator) public ... */\n    tag_18:\n      tag_88\n      0x04\n      dup1\n      calldatasize\n      sub\n      dup2\n      add\n      swap1\n      tag_89\n      swap2\n      swap1\n      tag_90\n      jump\t// in\n    tag_89:\n      tag_91\n      jump\t// in\n    tag_88:\n      stop\n        /* \"contracts/stake_reward_MLM.sol\":11511:12076  function referralLevel_earning() public view returns( uint[] memory arr )... */\n    tag_19:\n      tag_92\n      tag_93\n      jump\t// in\n    tag_92:\n      mload(0x40)\n      tag_94\n      swap2\n      swap1\n      tag_95\n      jump\t// in\n    tag_94:\n      mload(0x40)\n      dup1\n      swap2\n      sub\n      swap1\n      return\n        /* \"contracts/stake_reward_MLM.sol\":506:525  uint public i_value */\n    tag_20:\n      tag_96\n      tag_97\n      jump\t// in\n    tag_96:\n      mload(0x40)\n      tag_98\n      swap2\n      swap1\n      tag_41\n      jump\t// in\n    tag_98:\n      mload(0x40)\n      dup1\n      swap2\n      sub\n      swap1\n      return\n        /* \"contracts/stake_reward_MLM.sol\":791:825  uint public min_Stake_amount=10000 */\n    tag_21:\n      tag_99\n      tag_100\n      jump\t// in\n    tag_99:\n      mload(0x40)\n      tag_101\n      swap2\n      swap1\n      tag_41\n      jump\t// in\n    tag_101:\n      mload(0x40)\n      dup1\n      swap2\n      sub\n      swap1\n      return\n        /* \"contracts/stake_reward_MLM.sol\":6945:7426  function withdrawReward() external returns (bool success){... */\n    tag_22:\n      tag_102\n      tag_103\n      jump\t// in\n    tag_102:\n      mload(0x40)\n      tag_104\n      swap2\n      swap1\n      tag_50\n      jump\t// in\n    tag_104:\n      mload(0x40)\n      dup1\n      swap2\n      sub\n      swap1\n      return\n        /* \"contracts/stake_reward_MLM.sol\":1831:1873  mapping(address=>Data) public DUSDinvestor */\n    tag_23:\n      tag_105\n      0x04\n      dup1\n      calldatasize\n      sub\n      dup2\n      add\n      swap1\n      tag_106\n      swap2\n      swap1\n      tag_107\n      jump\t// in\n    tag_106:\n      tag_108\n      jump\t// in\n    tag_105:\n      mload(0x40)\n      tag_109\n      swap8\n      swap7\n      swap6\n      swap5\n      swap4\n      swap3\n      swap2\n      swap1\n      tag_110\n      jump\t// in\n    tag_109:\n      mload(0x40)\n      dup1\n      swap2\n      sub\n      swap1\n      return\n        /* \"contracts/stake_reward_MLM.sol\":1051:1076  uint public totalbusiness */\n    tag_24:\n      tag_111\n      tag_112\n      jump\t// in\n    tag_111:\n      mload(0x40)\n      tag_113\n      swap2\n      swap1\n      tag_41\n      jump\t// in\n    tag_113:\n      mload(0x40)\n      dup1\n      swap2\n      sub\n      swap1\n      return\n        /* \"contracts/stake_reward_MLM.sol\":11327:11501  function transferOwnership(address _owner)  public... */\n    tag_25:\n      tag_114\n      0x04\n      dup1\n      calldatasize\n      sub\n      dup2\n      add\n      swap1\n      tag_115\n      swap2\n      swap1\n      tag_107\n      jump\t// in\n    tag_115:\n      tag_116\n      jump\t// in\n    tag_114:\n      stop\n        /* \"contracts/stake_reward_MLM.sol\":12085:12646  function referralLevel_count() public view returns( uint[] memory arr )... */\n    tag_26:\n      tag_117\n      tag_118\n      jump\t// in\n    tag_117:\n      mload(0x40)\n      tag_119\n      swap2\n      swap1\n      tag_95\n      jump\t// in\n    tag_119:\n      mload(0x40)\n      dup1\n      swap2\n      sub\n      swap1\n      return\n        /* \"contracts/stake_reward_MLM.sol\":728:771  uint public rewardToken=5000000000000000000 */\n    tag_27:\n      tag_120\n      tag_121\n      jump\t// in\n    tag_120:\n      mload(0x40)\n      tag_122\n      swap2\n      swap1\n      tag_41\n      jump\t// in\n    tag_122:\n      mload(0x40)\n      dup1\n      swap2\n      sub\n      swap1\n      return\n        /* \"contracts/stake_reward_MLM.sol\":862:898  uint public max_Stake_amount=5000000 */\n    tag_28:\n      tag_123\n      tag_124\n      jump\t// in\n    tag_123:\n      mload(0x40)\n      tag_125\n      swap2\n      swap1\n      tag_41\n      jump\t// in\n    tag_125:\n      mload(0x40)\n      dup1\n      swap2\n      sub\n      swap1\n      return\n        /* \"contracts/stake_reward_MLM.sol\":10415:10624  function DUSDReferralsList() public view returns(address[] memory){ //this function is to get the all investors list with there account number... */\n    tag_35:\n        /* \"contracts/stake_reward_MLM.sol\":10464:10480  address[] memory */\n      0x60\n        /* \"contracts/stake_reward_MLM.sol\":10576:10588  DUSDinvestor */\n      0x0d\n        /* \"contracts/stake_reward_MLM.sol\":10576:10600  DUSDinvestor[msg.sender] */\n      0x00\n        /* \"contracts/stake_reward_MLM.sol\":10589:10599  msg.sender */\n      caller\n        /* \"contracts/stake_reward_MLM.sol\":10576:10600  DUSDinvestor[msg.sender] */\n      0xffffffffffffffffffffffffffffffffffffffff\n      and\n      0xffffffffffffffffffffffffffffffffffffffff\n      and\n      dup2\n      mstore\n      0x20\n      add\n      swap1\n      dup2\n      mstore\n      0x20\n      add\n      0x00\n      keccak256\n        /* \"contracts/stake_reward_MLM.sol\":10576:10613  DUSDinvestor[msg.sender].hisReferrals */\n      0x01\n      add\n        /* \"contracts/stake_reward_MLM.sol\":10569:10613  return DUSDinvestor[msg.sender].hisReferrals */\n      dup1\n      sload\n      dup1\n      0x20\n      mul\n      0x20\n      add\n      mload(0x40)\n      swap1\n      dup2\n      add\n      0x40\n      mstore\n      dup1\n      swap3\n      swap2\n      swap1\n      dup2\n      dup2\n      mstore\n      0x20\n      add\n      dup3\n      dup1\n      sload\n      dup1\n      iszero\n      tag_127\n      jumpi\n      0x20\n      mul\n      dup3\n      add\n      swap2\n      swap1\n      0x00\n      mstore\n      keccak256(0x00, 0x20)\n      swap1\n    tag_128:\n      dup2\n      0x00\n      swap1\n      sload\n      swap1\n      0x0100\n      exp\n      swap1\n      div\n      0xffffffffffffffffffffffffffffffffffffffff\n      and\n      0xffffffffffffffffffffffffffffffffffffffff\n      and\n      dup2\n      mstore\n      0x20\n      add\n      swap1\n      0x01\n      add\n      swap1\n      dup1\n      dup4\n      gt\n      tag_128\n      jumpi\n    tag_127:\n      pop\n      pop\n      pop\n      pop\n      pop\n      swap1\n      pop\n        /* \"contracts/stake_reward_MLM.sol\":10415:10624  function DUSDReferralsList() public view returns(address[] memory){ //this function is to get the all investors list with there account number... */\n      swap1\n      jump\t// out\n        /* \"contracts/stake_reward_MLM.sol\":688:718  uint public totalDUSDInvestors */\n    tag_39:\n      sload(0x05)\n      dup2\n      jump\t// out\n        /* \"contracts/stake_reward_MLM.sol\":10214:10405  function DUSDTotalReferrals() public view returns(uint){ // this function is to get the total number of referrals ... */\n    tag_43:\n        /* \"contracts/stake_reward_MLM.sol\":10264:10268  uint */\n      0x00\n        /* \"contracts/stake_reward_MLM.sol\":10349:10361  DUSDinvestor */\n      0x0d\n        /* \"contracts/stake_reward_MLM.sol\":10349:10373  DUSDinvestor[msg.sender] */\n      0x00\n        /* \"contracts/stake_reward_MLM.sol\":10362:10372  msg.sender */\n      caller\n        /* \"contracts/stake_reward_MLM.sol\":10349:10373  DUSDinvestor[msg.sender] */\n      0xffffffffffffffffffffffffffffffffffffffff\n      and\n      0xffffffffffffffffffffffffffffffffffffffff\n      and\n      dup2\n      mstore\n      0x20\n      add\n      swap1\n      dup2\n      mstore\n      0x20\n      add\n      0x00\n      keccak256\n        /* \"contracts/stake_reward_MLM.sol\":10349:10386  DUSDinvestor[msg.sender].hisReferrals */\n      0x01\n      add\n        /* \"contracts/stake_reward_MLM.sol\":10348:10394  (DUSDinvestor[msg.sender].hisReferrals).length */\n      dup1\n      sload\n      swap1\n      pop\n        /* \"contracts/stake_reward_MLM.sol\":10341:10394  return (DUSDinvestor[msg.sender].hisReferrals).length */\n      swap1\n      pop\n        /* \"contracts/stake_reward_MLM.sol\":10214:10405  function DUSDTotalReferrals() public view returns(uint){ // this function is to get the total number of referrals ... */\n      swap1\n      jump\t// out\n        /* \"contracts/stake_reward_MLM.sol\":3764:5832  function Stake(uint _investedamount,address _referral) external returns(bool success){... */\n    tag_48:\n        /* \"contracts/stake_reward_MLM.sol\":3836:3848  bool success */\n      0x00\n        /* \"contracts/stake_reward_MLM.sol\":3890:3906  min_Stake_amount */\n      sload(0x07)\n        /* \"contracts/stake_reward_MLM.sol\":3871:3886  _investedamount */\n      dup4\n        /* \"contracts/stake_reward_MLM.sol\":3871:3906  _investedamount >= min_Stake_amount */\n      lt\n      iszero\n        /* \"contracts/stake_reward_MLM.sol\":3871:3945  _investedamount >= min_Stake_amount && _investedamount <= max_Stake_amount */\n      dup1\n      iszero\n      tag_131\n      jumpi\n      pop\n        /* \"contracts/stake_reward_MLM.sol\":3929:3945  max_Stake_amount */\n      sload(0x08)\n        /* \"contracts/stake_reward_MLM.sol\":3910:3925  _investedamount */\n      dup4\n        /* \"contracts/stake_reward_MLM.sol\":3910:3945  _investedamount <= max_Stake_amount */\n      gt\n      iszero\n        /* \"contracts/stake_reward_MLM.sol\":3871:3945  _investedamount >= min_Stake_amount && _investedamount <= max_Stake_amount */\n    tag_131:\n        /* \"contracts/stake_reward_MLM.sol\":3863:4002  require(_investedamount >= min_Stake_amount && _investedamount <= max_Stake_amount,\"value is not greater than 10000 and less than 5000000\") */\n      tag_132\n      jumpi\n      mload(0x40)\n      0x08c379a000000000000000000000000000000000000000000000000000000000\n      dup2\n      mstore\n      0x04\n      add\n      tag_133\n      swap1\n      tag_134\n      jump\t// in\n    tag_133:\n      mload(0x40)\n      dup1\n      swap2\n      sub\n      swap1\n      revert\n    tag_132:\n        /* \"contracts/stake_reward_MLM.sol\":4131:4136  false */\n      0x00\n        /* \"contracts/stake_reward_MLM.sol\":4090:4136  DUSDinvestor[msg.sender].investBefore == false */\n      iszero\n      iszero\n        /* \"contracts/stake_reward_MLM.sol\":4090:4102  DUSDinvestor */\n      0x0d\n        /* \"contracts/stake_reward_MLM.sol\":4090:4114  DUSDinvestor[msg.sender] */\n      0x00\n        /* \"contracts/stake_reward_MLM.sol\":4103:4113  msg.sender */\n      caller\n        /* \"contracts/stake_reward_MLM.sol\":4090:4114  DUSDinvestor[msg.sender] */\n      0xffffffffffffffffffffffffffffffffffffffff\n      and\n      0xffffffffffffffffffffffffffffffffffffffff\n      and\n      dup2\n      mstore\n      0x20\n      add\n      swap1\n      dup2\n      mstore\n      0x20\n      add\n      0x00\n      keccak256\n        /* \"contracts/stake_reward_MLM.sol\":4090:4127  DUSDinvestor[msg.sender].investBefore */\n      0x08\n      add\n      0x00\n      swap1\n      sload\n      swap1\n      0x0100\n      exp\n      swap1\n      div\n      0xff\n      and\n        /* \"contracts/stake_reward_MLM.sol\":4090:4136  DUSDinvestor[msg.sender].investBefore == false */\n      iszero\n      iszero\n      eq\n        /* \"contracts/stake_reward_MLM.sol\":4087:4241  if(DUSDinvestor[msg.sender].investBefore == false)... */\n      iszero\n      tag_135\n      jumpi\n        /* \"contracts/stake_reward_MLM.sol\":4169:4187  totalDUSDInvestors */\n      0x05\n      0x00\n        /* \"contracts/stake_reward_MLM.sol\":4169:4189  totalDUSDInvestors++ */\n      dup2\n      sload\n      dup1\n      swap3\n      swap2\n      swap1\n      tag_136\n      swap1\n      tag_137\n      jump\t// in\n    tag_136:\n      swap2\n      swap1\n      pop\n      sstore\n      pop\n        /* \"contracts/stake_reward_MLM.sol\":4087:4241  if(DUSDinvestor[msg.sender].investBefore == false)... */\n    tag_135:\n        /* \"contracts/stake_reward_MLM.sol\":4301:4302  0 */\n      0x00\n        /* \"contracts/stake_reward_MLM.sol\":4257:4269  DUSDinvestor */\n      0x0d\n        /* \"contracts/stake_reward_MLM.sol\":4257:4281  DUSDinvestor[msg.sender] */\n      0x00\n        /* \"contracts/stake_reward_MLM.sol\":4270:4280  msg.sender */\n      caller\n        /* \"contracts/stake_reward_MLM.sol\":4257:4281  DUSDinvestor[msg.sender] */\n      0xffffffffffffffffffffffffffffffffffffffff\n      and\n      0xffffffffffffffffffffffffffffffffffffffff\n      and\n      dup2\n      mstore\n      0x20\n      add\n      swap1\n      dup2\n      mstore\n      0x20\n      add\n      0x00\n      keccak256\n        /* \"contracts/stake_reward_MLM.sol\":4257:4297  DUSDinvestor[msg.sender].totalInvestment */\n      0x06\n      add\n      sload\n        /* \"contracts/stake_reward_MLM.sol\":4257:4302  DUSDinvestor[msg.sender].totalInvestment == 0 */\n      eq\n        /* \"contracts/stake_reward_MLM.sol\":4254:4413  if(DUSDinvestor[msg.sender].totalInvestment == 0)... */\n      iszero\n      tag_138\n      jumpi\n        /* \"contracts/stake_reward_MLM.sol\":4390:4398  300 days */\n      0x018b8200\n        /* \"contracts/stake_reward_MLM.sol\":4372:4387  block.timestamp */\n      timestamp\n        /* \"contracts/stake_reward_MLM.sol\":4372:4398  block.timestamp + 300 days */\n      tag_139\n      swap2\n      swap1\n      tag_140\n      jump\t// in\n    tag_139:\n        /* \"contracts/stake_reward_MLM.sol\":4335:4347  DUSDinvestor */\n      0x0d\n        /* \"contracts/stake_reward_MLM.sol\":4335:4359  DUSDinvestor[msg.sender] */\n      0x00\n        /* \"contracts/stake_reward_MLM.sol\":4348:4358  msg.sender */\n      caller\n        /* \"contracts/stake_reward_MLM.sol\":4335:4359  DUSDinvestor[msg.sender] */\n      0xffffffffffffffffffffffffffffffffffffffff\n      and\n      0xffffffffffffffffffffffffffffffffffffffff\n      and\n      dup2\n      mstore\n      0x20\n      add\n      swap1\n      dup2\n      mstore\n      0x20\n      add\n      0x00\n      keccak256\n        /* \"contracts/stake_reward_MLM.sol\":4335:4369  DUSDinvestor[msg.sender].stakeTime */\n      0x09\n      add\n        /* \"contracts/stake_reward_MLM.sol\":4335:4398  DUSDinvestor[msg.sender].stakeTime = block.timestamp + 300 days */\n      dup2\n      swap1\n      sstore\n      pop\n        /* \"contracts/stake_reward_MLM.sol\":4254:4413  if(DUSDinvestor[msg.sender].totalInvestment == 0)... */\n    tag_138:\n        /* \"contracts/stake_reward_MLM.sol\":4427:4435  uint num */\n      0x00\n        /* \"contracts/stake_reward_MLM.sol\":4438:4450  DUSDinvestor */\n      0x0d\n        /* \"contracts/stake_reward_MLM.sol\":4438:4462  DUSDinvestor[msg.sender] */\n      0x00\n        /* \"contracts/stake_reward_MLM.sol\":4451:4461  msg.sender */\n      caller\n        /* \"contracts/stake_reward_MLM.sol\":4438:4462  DUSDinvestor[msg.sender] */\n      0xffffffffffffffffffffffffffffffffffffffff\n      and\n      0xffffffffffffffffffffffffffffffffffffffff\n      and\n      dup2\n      mstore\n      0x20\n      add\n      swap1\n      dup2\n      mstore\n      0x20\n      add\n      0x00\n      keccak256\n        /* \"contracts/stake_reward_MLM.sol\":4438:4477  DUSDinvestor[msg.sender].noOfInvestment */\n      0x05\n      add\n      sload\n        /* \"contracts/stake_reward_MLM.sol\":4427:4477  uint num = DUSDinvestor[msg.sender].noOfInvestment */\n      swap1\n      pop\n        /* \"contracts/stake_reward_MLM.sol\":4548:4563  _investedamount */\n      dup4\n        /* \"contracts/stake_reward_MLM.sol\":4491:4503  DUSDinvestor */\n      0x0d\n        /* \"contracts/stake_reward_MLM.sol\":4491:4515  DUSDinvestor[msg.sender] */\n      0x00\n        /* \"contracts/stake_reward_MLM.sol\":4504:4514  msg.sender */\n      caller\n        /* \"contracts/stake_reward_MLM.sol\":4491:4515  DUSDinvestor[msg.sender] */\n      0xffffffffffffffffffffffffffffffffffffffff\n      and\n      0xffffffffffffffffffffffffffffffffffffffff\n      and\n      dup2\n      mstore\n      0x20\n      add\n      swap1\n      dup2\n      mstore\n      0x20\n      add\n      0x00\n      keccak256\n        /* \"contracts/stake_reward_MLM.sol\":4491:4526  DUSDinvestor[msg.sender].investment */\n      0x00\n      add\n        /* \"contracts/stake_reward_MLM.sol\":4491:4531  DUSDinvestor[msg.sender].investment[num] */\n      0x00\n        /* \"contracts/stake_reward_MLM.sol\":4527:4530  num */\n      dup4\n        /* \"contracts/stake_reward_MLM.sol\":4491:4531  DUSDinvestor[msg.sender].investment[num] */\n      dup2\n      mstore\n      0x20\n      add\n      swap1\n      dup2\n      mstore\n      0x20\n      add\n      0x00\n      keccak256\n        /* \"contracts/stake_reward_MLM.sol\":4491:4546  DUSDinvestor[msg.sender].investment[num].investedAmount */\n      0x00\n      add\n        /* \"contracts/stake_reward_MLM.sol\":4491:4563  DUSDinvestor[msg.sender].investment[num].investedAmount =_investedamount */\n      dup2\n      swap1\n      sstore\n      pop\n        /* \"contracts/stake_reward_MLM.sol\":4630:4645  block.timestamp */\n      timestamp\n        /* \"contracts/stake_reward_MLM.sol\":4577:4589  DUSDinvestor */\n      0x0d\n        /* \"contracts/stake_reward_MLM.sol\":4577:4601  DUSDinvestor[msg.sender] */\n      0x00\n        /* \"contracts/stake_reward_MLM.sol\":4590:4600  msg.sender */\n      caller\n        /* \"contracts/stake_reward_MLM.sol\":4577:4601  DUSDinvestor[msg.sender] */\n      0xffffffffffffffffffffffffffffffffffffffff\n      and\n      0xffffffffffffffffffffffffffffffffffffffff\n      and\n      dup2\n      mstore\n      0x20\n      add\n      swap1\n      dup2\n      mstore\n      0x20\n      add\n      0x00\n      keccak256\n        /* \"contracts/stake_reward_MLM.sol\":4577:4612  DUSDinvestor[msg.sender].investment */\n      0x00\n      add\n        /* \"contracts/stake_reward_MLM.sol\":4577:4617  DUSDinvestor[msg.sender].investment[num] */\n      0x00\n        /* \"contracts/stake_reward_MLM.sol\":4613:4616  num */\n      dup4\n        /* \"contracts/stake_reward_MLM.sol\":4577:4617  DUSDinvestor[msg.sender].investment[num] */\n      dup2\n      mstore\n      0x20\n      add\n      swap1\n      dup2\n      mstore\n      0x20\n      add\n      0x00\n      keccak256\n        /* \"contracts/stake_reward_MLM.sol\":4577:4629  DUSDinvestor[msg.sender].investment[num].DepositTime */\n      0x02\n      add\n        /* \"contracts/stake_reward_MLM.sol\":4577:4645  DUSDinvestor[msg.sender].investment[num].DepositTime=block.timestamp */\n      dup2\n      swap1\n      sstore\n      pop\n        /* \"contracts/stake_reward_MLM.sol\":4732:4748  investmentPeriod */\n      sload(0x0a)\n        /* \"contracts/stake_reward_MLM.sol\":4714:4729  block.timestamp */\n      timestamp\n        /* \"contracts/stake_reward_MLM.sol\":4714:4748  block.timestamp + investmentPeriod */\n      tag_141\n      swap2\n      swap1\n      tag_140\n      jump\t// in\n    tag_141:\n        /* \"contracts/stake_reward_MLM.sol\":4659:4671  DUSDinvestor */\n      0x0d\n        /* \"contracts/stake_reward_MLM.sol\":4659:4683  DUSDinvestor[msg.sender] */\n      0x00\n        /* \"contracts/stake_reward_MLM.sol\":4672:4682  msg.sender */\n      caller\n        /* \"contracts/stake_reward_MLM.sol\":4659:4683  DUSDinvestor[msg.sender] */\n      0xffffffffffffffffffffffffffffffffffffffff\n      and\n      0xffffffffffffffffffffffffffffffffffffffff\n      and\n      dup2\n      mstore\n      0x20\n      add\n      swap1\n      dup2\n      mstore\n      0x20\n      add\n      0x00\n      keccak256\n        /* \"contracts/stake_reward_MLM.sol\":4659:4694  DUSDinvestor[msg.sender].investment */\n      0x00\n      add\n        /* \"contracts/stake_reward_MLM.sol\":4659:4699  DUSDinvestor[msg.sender].investment[num] */\n      0x00\n        /* \"contracts/stake_reward_MLM.sol\":4695:4698  num */\n      dup4\n        /* \"contracts/stake_reward_MLM.sol\":4659:4699  DUSDinvestor[msg.sender].investment[num] */\n      dup2\n      mstore\n      0x20\n      add\n      swap1\n      dup2\n      mstore\n      0x20\n      add\n      0x00\n      keccak256\n        /* \"contracts/stake_reward_MLM.sol\":4659:4713  DUSDinvestor[msg.sender].investment[num].withdrawnTime */\n      0x01\n      add\n        /* \"contracts/stake_reward_MLM.sol\":4659:4748  DUSDinvestor[msg.sender].investment[num].withdrawnTime=block.timestamp + investmentPeriod */\n      dup2\n      swap1\n      sstore\n      pop\n        /* \"contracts/stake_reward_MLM.sol\":4831:4834  num */\n      dup1\n        /* \"contracts/stake_reward_MLM.sol\":4776:4788  DUSDinvestor */\n      0x0d\n        /* \"contracts/stake_reward_MLM.sol\":4776:4800  DUSDinvestor[msg.sender] */\n      0x00\n        /* \"contracts/stake_reward_MLM.sol\":4789:4799  msg.sender */\n      caller\n        /* \"contracts/stake_reward_MLM.sol\":4776:4800  DUSDinvestor[msg.sender] */\n      0xffffffffffffffffffffffffffffffffffffffff\n      and\n      0xffffffffffffffffffffffffffffffffffffffff\n      and\n      dup2\n      mstore\n      0x20\n      add\n      swap1\n      dup2\n      mstore\n      0x20\n      add\n      0x00\n      keccak256\n        /* \"contracts/stake_reward_MLM.sol\":4776:4811  DUSDinvestor[msg.sender].investment */\n      0x00\n      add\n        /* \"contracts/stake_reward_MLM.sol\":4776:4816  DUSDinvestor[msg.sender].investment[num] */\n      0x00\n        /* \"contracts/stake_reward_MLM.sol\":4812:4815  num */\n      dup4\n        /* \"contracts/stake_reward_MLM.sol\":4776:4816  DUSDinvestor[msg.sender].investment[num] */\n      dup2\n      mstore\n      0x20\n      add\n      swap1\n      dup2\n      mstore\n      0x20\n      add\n      0x00\n      keccak256\n        /* \"contracts/stake_reward_MLM.sol\":4776:4830  DUSDinvestor[msg.sender].investment[num].investmentNum */\n      0x03\n      add\n        /* \"contracts/stake_reward_MLM.sol\":4776:4834  DUSDinvestor[msg.sender].investment[num].investmentNum=num */\n      dup2\n      swap1\n      sstore\n      pop\n        /* \"contracts/stake_reward_MLM.sol\":4890:4905  _investedamount */\n      dup4\n        /* \"contracts/stake_reward_MLM.sol\":4848:4860  DUSDinvestor */\n      0x0d\n        /* \"contracts/stake_reward_MLM.sol\":4848:4872  DUSDinvestor[msg.sender] */\n      0x00\n        /* \"contracts/stake_reward_MLM.sol\":4861:4871  msg.sender */\n      caller\n        /* \"contracts/stake_reward_MLM.sol\":4848:4872  DUSDinvestor[msg.sender] */\n      0xffffffffffffffffffffffffffffffffffffffff\n      and\n      0xffffffffffffffffffffffffffffffffffffffff\n      and\n      dup2\n      mstore\n      0x20\n      add\n      swap1\n      dup2\n      mstore\n      0x20\n      add\n      0x00\n      keccak256\n        /* \"contracts/stake_reward_MLM.sol\":4848:4888  DUSDinvestor[msg.sender].totalInvestment */\n      0x06\n      add\n      0x00\n        /* \"contracts/stake_reward_MLM.sol\":4848:4905  DUSDinvestor[msg.sender].totalInvestment+=_investedamount */\n      dup3\n      dup3\n      sload\n      tag_142\n      swap2\n      swap1\n      tag_140\n      jump\t// in\n    tag_142:\n      swap3\n      pop\n      pop\n      dup2\n      swap1\n      sstore\n      pop\n        /* \"contracts/stake_reward_MLM.sol\":4919:4931  DUSDinvestor */\n      0x0d\n        /* \"contracts/stake_reward_MLM.sol\":4919:4943  DUSDinvestor[msg.sender] */\n      0x00\n        /* \"contracts/stake_reward_MLM.sol\":4932:4942  msg.sender */\n      caller\n        /* \"contracts/stake_reward_MLM.sol\":4919:4943  DUSDinvestor[msg.sender] */\n      0xffffffffffffffffffffffffffffffffffffffff\n      and\n      0xffffffffffffffffffffffffffffffffffffffff\n      and\n      dup2\n      mstore\n      0x20\n      add\n      swap1\n      dup2\n      mstore\n      0x20\n      add\n      0x00\n      keccak256\n        /* \"contracts/stake_reward_MLM.sol\":4919:4958  DUSDinvestor[msg.sender].noOfInvestment */\n      0x05\n      add\n      0x00\n        /* \"contracts/stake_reward_MLM.sol\":4919:4960  DUSDinvestor[msg.sender].noOfInvestment++ */\n      dup2\n      sload\n      dup1\n      swap3\n      swap2\n      swap1\n      tag_143\n      swap1\n      tag_137\n      jump\t// in\n    tag_143:\n      swap2\n      swap1\n      pop\n      sstore\n      pop\n        /* \"contracts/stake_reward_MLM.sol\":4989:5004  _investedamount */\n      dup4\n        /* \"contracts/stake_reward_MLM.sol\":4974:4987  totalbusiness */\n      0x0b\n      0x00\n        /* \"contracts/stake_reward_MLM.sol\":4974:5004  totalbusiness+=_investedamount */\n      dup3\n      dup3\n      sload\n      tag_144\n      swap2\n      swap1\n      tag_140\n      jump\t// in\n    tag_144:\n      swap3\n      pop\n      pop\n      dup2\n      swap1\n      sstore\n      pop\n        /* \"contracts/stake_reward_MLM.sol\":5136:5137  0 */\n      0x00\n        /* \"contracts/stake_reward_MLM.sol\":5117:5138  _referral==address(0) */\n      0xffffffffffffffffffffffffffffffffffffffff\n      and\n        /* \"contracts/stake_reward_MLM.sol\":5117:5126  _referral */\n      dup4\n        /* \"contracts/stake_reward_MLM.sol\":5117:5138  _referral==address(0) */\n      0xffffffffffffffffffffffffffffffffffffffff\n      and\n      eq\n        /* \"contracts/stake_reward_MLM.sol\":5117:5163  _referral==address(0) || _referral==msg.sender */\n      dup1\n      tag_145\n      jumpi\n      pop\n        /* \"contracts/stake_reward_MLM.sol\":5153:5163  msg.sender */\n      caller\n        /* \"contracts/stake_reward_MLM.sol\":5142:5163  _referral==msg.sender */\n      0xffffffffffffffffffffffffffffffffffffffff\n      and\n        /* \"contracts/stake_reward_MLM.sol\":5142:5151  _referral */\n      dup4\n        /* \"contracts/stake_reward_MLM.sol\":5142:5163  _referral==msg.sender */\n      0xffffffffffffffffffffffffffffffffffffffff\n      and\n      eq\n        /* \"contracts/stake_reward_MLM.sol\":5117:5163  _referral==address(0) || _referral==msg.sender */\n    tag_145:\n        /* \"contracts/stake_reward_MLM.sol\":5114:5727  if(_referral==address(0) || _referral==msg.sender)                                         //checking that investor comes from the referral link or not... */\n      iszero\n      tag_146\n      jumpi\n        /* \"contracts/stake_reward_MLM.sol\":5345:5346  0 */\n      0x00\n        /* \"contracts/stake_reward_MLM.sol\":5297:5309  DUSDinvestor */\n      0x0d\n        /* \"contracts/stake_reward_MLM.sol\":5297:5321  DUSDinvestor[msg.sender] */\n      0x00\n        /* \"contracts/stake_reward_MLM.sol\":5310:5320  msg.sender */\n      caller\n        /* \"contracts/stake_reward_MLM.sol\":5297:5321  DUSDinvestor[msg.sender] */\n      0xffffffffffffffffffffffffffffffffffffffff\n      and\n      0xffffffffffffffffffffffffffffffffffffffff\n      and\n      dup2\n      mstore\n      0x20\n      add\n      swap1\n      dup2\n      mstore\n      0x20\n      add\n      0x00\n      keccak256\n        /* \"contracts/stake_reward_MLM.sol\":5297:5334  DUSDinvestor[msg.sender].referralFrom */\n      0x02\n      add\n      0x00\n        /* \"contracts/stake_reward_MLM.sol\":5297:5347  DUSDinvestor[msg.sender].referralFrom = address(0) */\n      0x0100\n      exp\n      dup2\n      sload\n      dup2\n      0xffffffffffffffffffffffffffffffffffffffff\n      mul\n      not\n      and\n      swap1\n      dup4\n      0xffffffffffffffffffffffffffffffffffffffff\n      and\n      mul\n      or\n      swap1\n      sstore\n      pop\n        /* \"contracts/stake_reward_MLM.sol\":5114:5727  if(_referral==address(0) || _referral==msg.sender)                                         //checking that investor comes from the referral link or not... */\n      jump(tag_147)\n    tag_146:\n        /* \"contracts/stake_reward_MLM.sol\":5467:5476  _referral */\n      dup3\n        /* \"contracts/stake_reward_MLM.sol\":5427:5439  DUSDinvestor */\n      0x0d\n        /* \"contracts/stake_reward_MLM.sol\":5427:5451  DUSDinvestor[msg.sender] */\n      0x00\n        /* \"contracts/stake_reward_MLM.sol\":5440:5450  msg.sender */\n      caller\n        /* \"contracts/stake_reward_MLM.sol\":5427:5451  DUSDinvestor[msg.sender] */\n      0xffffffffffffffffffffffffffffffffffffffff\n      and\n      0xffffffffffffffffffffffffffffffffffffffff\n      and\n      dup2\n      mstore\n      0x20\n      add\n      swap1\n      dup2\n      mstore\n      0x20\n      add\n      0x00\n      keccak256\n        /* \"contracts/stake_reward_MLM.sol\":5427:5464  DUSDinvestor[msg.sender].referralFrom */\n      0x02\n      add\n      0x00\n        /* \"contracts/stake_reward_MLM.sol\":5427:5476  DUSDinvestor[msg.sender].referralFrom = _referral */\n      0x0100\n      exp\n      dup2\n      sload\n      dup2\n      0xffffffffffffffffffffffffffffffffffffffff\n      mul\n      not\n      and\n      swap1\n      dup4\n      0xffffffffffffffffffffffffffffffffffffffff\n      and\n      mul\n      or\n      swap1\n      sstore\n      pop\n        /* \"contracts/stake_reward_MLM.sol\":5494:5506  DUSDinvestor */\n      0x0d\n        /* \"contracts/stake_reward_MLM.sol\":5494:5517  DUSDinvestor[_referral] */\n      0x00\n        /* \"contracts/stake_reward_MLM.sol\":5507:5516  _referral */\n      dup5\n        /* \"contracts/stake_reward_MLM.sol\":5494:5517  DUSDinvestor[_referral] */\n      0xffffffffffffffffffffffffffffffffffffffff\n      and\n      0xffffffffffffffffffffffffffffffffffffffff\n      and\n      dup2\n      mstore\n      0x20\n      add\n      swap1\n      dup2\n      mstore\n      0x20\n      add\n      0x00\n      keccak256\n        /* \"contracts/stake_reward_MLM.sol\":5494:5530  DUSDinvestor[_referral].hisReferrals */\n      0x01\n      add\n        /* \"contracts/stake_reward_MLM.sol\":5536:5546  msg.sender */\n      caller\n        /* \"contracts/stake_reward_MLM.sol\":5494:5547  DUSDinvestor[_referral].hisReferrals.push(msg.sender) */\n      swap1\n      dup1\n      0x01\n      dup2\n      sload\n      add\n      dup1\n      dup3\n      sstore\n      dup1\n      swap2\n      pop\n      pop\n      0x01\n      swap1\n      sub\n      swap1\n      0x00\n      mstore\n      keccak256(0x00, 0x20)\n      add\n      0x00\n      swap1\n      swap2\n      swap1\n      swap2\n      swap1\n      swap2\n      0x0100\n      exp\n      dup2\n      sload\n      dup2\n      0xffffffffffffffffffffffffffffffffffffffff\n      mul\n      not\n      and\n      swap1\n      dup4\n      0xffffffffffffffffffffffffffffffffffffffff\n      and\n      mul\n      or\n      swap1\n      sstore\n      pop\n        /* \"contracts/stake_reward_MLM.sol\":5565:5618  sendRewardToDUSDReferrals(msg.sender,_investedamount) */\n      tag_149\n        /* \"contracts/stake_reward_MLM.sol\":5591:5601  msg.sender */\n      caller\n        /* \"contracts/stake_reward_MLM.sol\":5602:5617  _investedamount */\n      dup6\n        /* \"contracts/stake_reward_MLM.sol\":5565:5590  sendRewardToDUSDReferrals */\n      tag_150\n        /* \"contracts/stake_reward_MLM.sol\":5565:5618  sendRewardToDUSDReferrals(msg.sender,_investedamount) */\n      jump\t// in\n    tag_149:\n        /* \"contracts/stake_reward_MLM.sol\":5114:5727  if(_referral==address(0) || _referral==msg.sender)                                         //checking that investor comes from the referral link or not... */\n    tag_147:\n        /* \"contracts/stake_reward_MLM.sol\":5778:5782  true */\n      0x01\n        /* \"contracts/stake_reward_MLM.sol\":5740:5752  DUSDinvestor */\n      0x0d\n        /* \"contracts/stake_reward_MLM.sol\":5740:5764  DUSDinvestor[msg.sender] */\n      0x00\n        /* \"contracts/stake_reward_MLM.sol\":5753:5763  msg.sender */\n      caller\n        /* \"contracts/stake_reward_MLM.sol\":5740:5764  DUSDinvestor[msg.sender] */\n      0xffffffffffffffffffffffffffffffffffffffff\n      and\n      0xffffffffffffffffffffffffffffffffffffffff\n      and\n      dup2\n      mstore\n      0x20\n      add\n      swap1\n      dup2\n      mstore\n      0x20\n      add\n      0x00\n      keccak256\n        /* \"contracts/stake_reward_MLM.sol\":5740:5777  DUSDinvestor[msg.sender].investBefore */\n      0x08\n      add\n      0x00\n        /* \"contracts/stake_reward_MLM.sol\":5740:5782  DUSDinvestor[msg.sender].investBefore=true */\n      0x0100\n      exp\n      dup2\n      sload\n      dup2\n      0xff\n      mul\n      not\n      and\n      swap1\n      dup4\n      iszero\n      iszero\n      mul\n      or\n      swap1\n      sstore\n      pop\n        /* \"contracts/stake_reward_MLM.sol\":5804:5808  true */\n      0x01\n        /* \"contracts/stake_reward_MLM.sol\":5797:5808  return true */\n      swap2\n      pop\n      pop\n        /* \"contracts/stake_reward_MLM.sol\":3764:5832  function Stake(uint _investedamount,address _referral) external returns(bool success){... */\n      swap3\n      swap2\n      pop\n      pop\n      jump\t// out\n        /* \"contracts/stake_reward_MLM.sol\":10796:10907  function set_min_Stake_amount(uint _amount) public ... */\n    tag_54:\n        /* \"contracts/stake_reward_MLM.sol\":10889:10896  _amount */\n      dup1\n        /* \"contracts/stake_reward_MLM.sol\":10870:10886  min_Stake_amount */\n      0x07\n        /* \"contracts/stake_reward_MLM.sol\":10870:10896  min_Stake_amount = _amount */\n      dup2\n      swap1\n      sstore\n      pop\n        /* \"contracts/stake_reward_MLM.sol\":10796:10907  function set_min_Stake_amount(uint _amount) public ... */\n      pop\n      jump\t// out\n        /* \"contracts/stake_reward_MLM.sol\":9219:10202  function getAllDUSDinvestments() public view returns (allInvestments[] memory) { //this function will return the all investments of the investor and withware date... */\n    tag_56:\n        /* \"contracts/stake_reward_MLM.sol\":9273:9296  allInvestments[] memory */\n      0x60\n        /* \"contracts/stake_reward_MLM.sol\":9394:9402  uint num */\n      0x00\n        /* \"contracts/stake_reward_MLM.sol\":9405:9417  DUSDinvestor */\n      0x0d\n        /* \"contracts/stake_reward_MLM.sol\":9405:9429  DUSDinvestor[msg.sender] */\n      0x00\n        /* \"contracts/stake_reward_MLM.sol\":9418:9428  msg.sender */\n      caller\n        /* \"contracts/stake_reward_MLM.sol\":9405:9429  DUSDinvestor[msg.sender] */\n      0xffffffffffffffffffffffffffffffffffffffff\n      and\n      0xffffffffffffffffffffffffffffffffffffffff\n      and\n      dup2\n      mstore\n      0x20\n      add\n      swap1\n      dup2\n      mstore\n      0x20\n      add\n      0x00\n      keccak256\n        /* \"contracts/stake_reward_MLM.sol\":9405:9444  DUSDinvestor[msg.sender].noOfInvestment */\n      0x05\n      add\n      sload\n        /* \"contracts/stake_reward_MLM.sol\":9394:9444  uint num = DUSDinvestor[msg.sender].noOfInvestment */\n      swap1\n      pop\n        /* \"contracts/stake_reward_MLM.sol\":9458:9467  uint temp */\n      0x00\n        /* \"contracts/stake_reward_MLM.sol\":9481:9498  uint currentIndex */\n      dup1\n        /* \"contracts/stake_reward_MLM.sol\":9529:9535  uint i */\n      0x00\n        /* \"contracts/stake_reward_MLM.sol\":9525:9701  for(uint i=0;i<num;i++)... */\n    tag_153:\n        /* \"contracts/stake_reward_MLM.sol\":9540:9543  num */\n      dup4\n        /* \"contracts/stake_reward_MLM.sol\":9538:9539  i */\n      dup2\n        /* \"contracts/stake_reward_MLM.sol\":9538:9543  i<num */\n      lt\n        /* \"contracts/stake_reward_MLM.sol\":9525:9701  for(uint i=0;i<num;i++)... */\n      iszero\n      tag_154\n      jumpi\n        /* \"contracts/stake_reward_MLM.sol\":9638:9639  0 */\n      0x00\n        /* \"contracts/stake_reward_MLM.sol\":9582:9594  DUSDinvestor */\n      0x0d\n        /* \"contracts/stake_reward_MLM.sol\":9582:9606  DUSDinvestor[msg.sender] */\n      0x00\n        /* \"contracts/stake_reward_MLM.sol\":9595:9605  msg.sender */\n      caller\n        /* \"contracts/stake_reward_MLM.sol\":9582:9606  DUSDinvestor[msg.sender] */\n      0xffffffffffffffffffffffffffffffffffffffff\n      and\n      0xffffffffffffffffffffffffffffffffffffffff\n      and\n      dup2\n      mstore\n      0x20\n      add\n      swap1\n      dup2\n      mstore\n      0x20\n      add\n      0x00\n      keccak256\n        /* \"contracts/stake_reward_MLM.sol\":9582:9617  DUSDinvestor[msg.sender].investment */\n      0x00\n      add\n        /* \"contracts/stake_reward_MLM.sol\":9582:9620  DUSDinvestor[msg.sender].investment[i] */\n      0x00\n        /* \"contracts/stake_reward_MLM.sol\":9618:9619  i */\n      dup4\n        /* \"contracts/stake_reward_MLM.sol\":9582:9620  DUSDinvestor[msg.sender].investment[i] */\n      dup2\n      mstore\n      0x20\n      add\n      swap1\n      dup2\n      mstore\n      0x20\n      add\n      0x00\n      keccak256\n        /* \"contracts/stake_reward_MLM.sol\":9582:9635  DUSDinvestor[msg.sender].investment[i].investedAmount */\n      0x00\n      add\n      sload\n        /* \"contracts/stake_reward_MLM.sol\":9582:9639  DUSDinvestor[msg.sender].investment[i].investedAmount > 0 */\n      gt\n        /* \"contracts/stake_reward_MLM.sol\":9578:9686  if( DUSDinvestor[msg.sender].investment[i].investedAmount > 0 ){... */\n      iszero\n      tag_156\n      jumpi\n        /* \"contracts/stake_reward_MLM.sol\":9662:9668  temp++ */\n      dup3\n      dup1\n      tag_157\n      swap1\n      tag_137\n      jump\t// in\n    tag_157:\n      swap4\n      pop\n      pop\n        /* \"contracts/stake_reward_MLM.sol\":9578:9686  if( DUSDinvestor[msg.sender].investment[i].investedAmount > 0 ){... */\n    tag_156:\n        /* \"contracts/stake_reward_MLM.sol\":9544:9547  i++ */\n      dup1\n      dup1\n      tag_158\n      swap1\n      tag_137\n      jump\t// in\n    tag_158:\n      swap2\n      pop\n      pop\n        /* \"contracts/stake_reward_MLM.sol\":9525:9701  for(uint i=0;i<num;i++)... */\n      jump(tag_153)\n    tag_154:\n      pop\n        /* \"contracts/stake_reward_MLM.sol\":9724:9756  allInvestments[] memory Invested */\n      0x00\n        /* \"contracts/stake_reward_MLM.sol\":9781:9785  temp */\n      dup3\n        /* \"contracts/stake_reward_MLM.sol\":9760:9786  new allInvestments[](temp) */\n      0xffffffffffffffff\n      dup2\n      gt\n      iszero\n      tag_159\n      jumpi\n      tag_160\n      tag_161\n      jump\t// in\n    tag_160:\n    tag_159:\n      mload(0x40)\n      swap1\n      dup1\n      dup3\n      mstore\n      dup1\n      0x20\n      mul\n      0x20\n      add\n      dup3\n      add\n      0x40\n      mstore\n      dup1\n      iszero\n      tag_162\n      jumpi\n      dup2\n      0x20\n      add\n    tag_163:\n      tag_164\n      tag_165\n      jump\t// in\n    tag_164:\n      dup2\n      mstore\n      0x20\n      add\n      swap1\n      0x01\n      swap1\n      sub\n      swap1\n      dup2\n      tag_163\n      jumpi\n      swap1\n      pop\n    tag_162:\n      pop\n        /* \"contracts/stake_reward_MLM.sol\":9724:9786  allInvestments[] memory Invested =  new allInvestments[](temp) */\n      swap1\n      pop\n        /* \"contracts/stake_reward_MLM.sol\":9806:9812  uint i */\n      0x00\n        /* \"contracts/stake_reward_MLM.sol\":9802:10162  for(uint i=0;i<num;i++)... */\n    tag_166:\n        /* \"contracts/stake_reward_MLM.sol\":9817:9820  num */\n      dup5\n        /* \"contracts/stake_reward_MLM.sol\":9815:9816  i */\n      dup2\n        /* \"contracts/stake_reward_MLM.sol\":9815:9820  i<num */\n      lt\n        /* \"contracts/stake_reward_MLM.sol\":9802:10162  for(uint i=0;i<num;i++)... */\n      iszero\n      tag_167\n      jumpi\n        /* \"contracts/stake_reward_MLM.sol\":9915:9916  0 */\n      0x00\n        /* \"contracts/stake_reward_MLM.sol\":9859:9871  DUSDinvestor */\n      0x0d\n        /* \"contracts/stake_reward_MLM.sol\":9859:9883  DUSDinvestor[msg.sender] */\n      0x00\n        /* \"contracts/stake_reward_MLM.sol\":9872:9882  msg.sender */\n      caller\n        /* \"contracts/stake_reward_MLM.sol\":9859:9883  DUSDinvestor[msg.sender] */\n      0xffffffffffffffffffffffffffffffffffffffff\n      and\n      0xffffffffffffffffffffffffffffffffffffffff\n      and\n      dup2\n      mstore\n      0x20\n      add\n      swap1\n      dup2\n      mstore\n      0x20\n      add\n      0x00\n      keccak256\n        /* \"contracts/stake_reward_MLM.sol\":9859:9894  DUSDinvestor[msg.sender].investment */\n      0x00\n      add\n        /* \"contracts/stake_reward_MLM.sol\":9859:9897  DUSDinvestor[msg.sender].investment[i] */\n      0x00\n        /* \"contracts/stake_reward_MLM.sol\":9895:9896  i */\n      dup4\n        /* \"contracts/stake_reward_MLM.sol\":9859:9897  DUSDinvestor[msg.sender].investment[i] */\n      dup2\n      mstore\n      0x20\n      add\n      swap1\n      dup2\n      mstore\n      0x20\n      add\n      0x00\n      keccak256\n        /* \"contracts/stake_reward_MLM.sol\":9859:9912  DUSDinvestor[msg.sender].investment[i].investedAmount */\n      0x00\n      add\n      sload\n        /* \"contracts/stake_reward_MLM.sol\":9859:9916  DUSDinvestor[msg.sender].investment[i].investedAmount > 0 */\n      gt\n        /* \"contracts/stake_reward_MLM.sol\":9855:10147  if( DUSDinvestor[msg.sender].investment[i].investedAmount > 0 ){... */\n      iszero\n      tag_169\n      jumpi\n        /* \"contracts/stake_reward_MLM.sol\":10056:10068  DUSDinvestor */\n      0x0d\n        /* \"contracts/stake_reward_MLM.sol\":10056:10080  DUSDinvestor[msg.sender] */\n      0x00\n        /* \"contracts/stake_reward_MLM.sol\":10069:10079  msg.sender */\n      caller\n        /* \"contracts/stake_reward_MLM.sol\":10056:10080  DUSDinvestor[msg.sender] */\n      0xffffffffffffffffffffffffffffffffffffffff\n      and\n      0xffffffffffffffffffffffffffffffffffffffff\n      and\n      dup2\n      mstore\n      0x20\n      add\n      swap1\n      dup2\n      mstore\n      0x20\n      add\n      0x00\n      keccak256\n        /* \"contracts/stake_reward_MLM.sol\":10056:10091  DUSDinvestor[msg.sender].investment */\n      0x00\n      add\n        /* \"contracts/stake_reward_MLM.sol\":10056:10094  DUSDinvestor[msg.sender].investment[i] */\n      0x00\n        /* \"contracts/stake_reward_MLM.sol\":10092:10093  i */\n      dup3\n        /* \"contracts/stake_reward_MLM.sol\":10056:10094  DUSDinvestor[msg.sender].investment[i] */\n      dup2\n      mstore\n      0x20\n      add\n      swap1\n      dup2\n      mstore\n      0x20\n      add\n      0x00\n      keccak256\n        /* \"contracts/stake_reward_MLM.sol\":10033:10094  Invested[currentIndex]=DUSDinvestor[msg.sender].investment[i] */\n      mload(0x40)\n      dup1\n      0xc0\n      add\n      0x40\n      mstore\n      swap1\n      dup2\n      0x00\n      dup3\n      add\n      sload\n      dup2\n      mstore\n      0x20\n      add\n      0x01\n      dup3\n      add\n      sload\n      dup2\n      mstore\n      0x20\n      add\n      0x02\n      dup3\n      add\n      sload\n      dup2\n      mstore\n      0x20\n      add\n      0x03\n      dup3\n      add\n      sload\n      dup2\n      mstore\n      0x20\n      add\n      0x04\n      dup3\n      add\n      sload\n      dup2\n      mstore\n      0x20\n      add\n      0x05\n      dup3\n      add\n      0x00\n      swap1\n      sload\n      swap1\n      0x0100\n      exp\n      swap1\n      div\n      0xff\n      and\n      iszero\n      iszero\n      iszero\n      iszero\n      dup2\n      mstore\n      pop\n      pop\n        /* \"contracts/stake_reward_MLM.sol\":10033:10041  Invested */\n      dup3\n        /* \"contracts/stake_reward_MLM.sol\":10042:10054  currentIndex */\n      dup5\n        /* \"contracts/stake_reward_MLM.sol\":10033:10055  Invested[currentIndex] */\n      dup2\n      mload\n      dup2\n      lt\n      tag_170\n      jumpi\n      tag_171\n      tag_172\n      jump\t// in\n    tag_171:\n    tag_170:\n      0x20\n      mul\n      0x20\n      add\n      add\n        /* \"contracts/stake_reward_MLM.sol\":10033:10094  Invested[currentIndex]=DUSDinvestor[msg.sender].investment[i] */\n      dup2\n      swap1\n      mstore\n      pop\n        /* \"contracts/stake_reward_MLM.sol\":10115:10129  currentIndex++ */\n      dup3\n      dup1\n      tag_173\n      swap1\n      tag_137\n      jump\t// in\n    tag_173:\n      swap4\n      pop\n      pop\n        /* \"contracts/stake_reward_MLM.sol\":9855:10147  if( DUSDinvestor[msg.sender].investment[i].investedAmount > 0 ){... */\n    tag_169:\n        /* \"contracts/stake_reward_MLM.sol\":9821:9824  i++ */\n      dup1\n      dup1\n      tag_174\n      swap1\n      tag_137\n      jump\t// in\n    tag_174:\n      swap2\n      pop\n      pop\n        /* \"contracts/stake_reward_MLM.sol\":9802:10162  for(uint i=0;i<num;i++)... */\n      jump(tag_166)\n    tag_167:\n      pop\n        /* \"contracts/stake_reward_MLM.sol\":10182:10190  Invested */\n      dup1\n        /* \"contracts/stake_reward_MLM.sol\":10175:10190  return Invested */\n      swap5\n      pop\n      pop\n      pop\n      pop\n      pop\n        /* \"contracts/stake_reward_MLM.sol\":9219:10202  function getAllDUSDinvestments() public view returns (allInvestments[] memory) { //this function will return the all investments of the investor and withware date... */\n      swap1\n      jump\t// out\n        /* \"contracts/stake_reward_MLM.sol\":5841:6935  function getReward() view public returns(uint){ //this function is get the total reward balance of the investor... */\n    tag_60:\n        /* \"contracts/stake_reward_MLM.sol\":5882:5886  uint */\n      0x00\n        /* \"contracts/stake_reward_MLM.sol\":5965:5981  uint totalReward */\n      dup1\n        /* \"contracts/stake_reward_MLM.sol\":5995:6007  uint depTime */\n      0x00\n        /* \"contracts/stake_reward_MLM.sol\":6021:6029  uint rew */\n      dup1\n        /* \"contracts/stake_reward_MLM.sol\":6043:6052  uint temp */\n      0x00\n        /* \"contracts/stake_reward_MLM.sol\":6055:6067  DUSDinvestor */\n      0x0d\n        /* \"contracts/stake_reward_MLM.sol\":6055:6079  DUSDinvestor[msg.sender] */\n      0x00\n        /* \"contracts/stake_reward_MLM.sol\":6068:6078  msg.sender */\n      caller\n        /* \"contracts/stake_reward_MLM.sol\":6055:6079  DUSDinvestor[msg.sender] */\n      0xffffffffffffffffffffffffffffffffffffffff\n      and\n      0xffffffffffffffffffffffffffffffffffffffff\n      and\n      dup2\n      mstore\n      0x20\n      add\n      swap1\n      dup2\n      mstore\n      0x20\n      add\n      0x00\n      keccak256\n        /* \"contracts/stake_reward_MLM.sol\":6055:6094  DUSDinvestor[msg.sender].noOfInvestment */\n      0x05\n      add\n      sload\n        /* \"contracts/stake_reward_MLM.sol\":6043:6094  uint temp = DUSDinvestor[msg.sender].noOfInvestment */\n      swap1\n      pop\n        /* \"contracts/stake_reward_MLM.sol\":6113:6119  uint i */\n      0x00\n        /* \"contracts/stake_reward_MLM.sol\":6108:6818  for( uint i = 0;i < temp;i++)... */\n    tag_176:\n        /* \"contracts/stake_reward_MLM.sol\":6128:6132  temp */\n      dup2\n        /* \"contracts/stake_reward_MLM.sol\":6124:6125  i */\n      dup2\n        /* \"contracts/stake_reward_MLM.sol\":6124:6132  i < temp */\n      lt\n        /* \"contracts/stake_reward_MLM.sol\":6108:6818  for( uint i = 0;i < temp;i++)... */\n      iszero\n      tag_177\n      jumpi\n        /* \"contracts/stake_reward_MLM.sol\":6175:6187  DUSDinvestor */\n      0x0d\n        /* \"contracts/stake_reward_MLM.sol\":6175:6199  DUSDinvestor[msg.sender] */\n      0x00\n        /* \"contracts/stake_reward_MLM.sol\":6188:6198  msg.sender */\n      caller\n        /* \"contracts/stake_reward_MLM.sol\":6175:6199  DUSDinvestor[msg.sender] */\n      0xffffffffffffffffffffffffffffffffffffffff\n      and\n      0xffffffffffffffffffffffffffffffffffffffff\n      and\n      dup2\n      mstore\n      0x20\n      add\n      swap1\n      dup2\n      mstore\n      0x20\n      add\n      0x00\n      keccak256\n        /* \"contracts/stake_reward_MLM.sol\":6175:6210  DUSDinvestor[msg.sender].investment */\n      0x00\n      add\n        /* \"contracts/stake_reward_MLM.sol\":6175:6213  DUSDinvestor[msg.sender].investment[i] */\n      0x00\n        /* \"contracts/stake_reward_MLM.sol\":6211:6212  i */\n      dup3\n        /* \"contracts/stake_reward_MLM.sol\":6175:6213  DUSDinvestor[msg.sender].investment[i] */\n      dup2\n      mstore\n      0x20\n      add\n      swap1\n      dup2\n      mstore\n      0x20\n      add\n      0x00\n      keccak256\n        /* \"contracts/stake_reward_MLM.sol\":6175:6221  DUSDinvestor[msg.sender].investment[i].unstake */\n      0x05\n      add\n      0x00\n      swap1\n      sload\n      swap1\n      0x0100\n      exp\n      swap1\n      div\n      0xff\n      and\n        /* \"contracts/stake_reward_MLM.sol\":6171:6531  if(!DUSDinvestor[msg.sender].investment[i].unstake)... */\n      tag_179\n      jumpi\n        /* \"contracts/stake_reward_MLM.sol\":6288:6300  DUSDinvestor */\n      0x0d\n        /* \"contracts/stake_reward_MLM.sol\":6288:6312  DUSDinvestor[msg.sender] */\n      0x00\n        /* \"contracts/stake_reward_MLM.sol\":6301:6311  msg.sender */\n      caller\n        /* \"contracts/stake_reward_MLM.sol\":6288:6312  DUSDinvestor[msg.sender] */\n      0xffffffffffffffffffffffffffffffffffffffff\n      and\n      0xffffffffffffffffffffffffffffffffffffffff\n      and\n      dup2\n      mstore\n      0x20\n      add\n      swap1\n      dup2\n      mstore\n      0x20\n      add\n      0x00\n      keccak256\n        /* \"contracts/stake_reward_MLM.sol\":6288:6323  DUSDinvestor[msg.sender].investment */\n      0x00\n      add\n        /* \"contracts/stake_reward_MLM.sol\":6288:6326  DUSDinvestor[msg.sender].investment[i] */\n      0x00\n        /* \"contracts/stake_reward_MLM.sol\":6324:6325  i */\n      dup3\n        /* \"contracts/stake_reward_MLM.sol\":6288:6326  DUSDinvestor[msg.sender].investment[i] */\n      dup2\n      mstore\n      0x20\n      add\n      swap1\n      dup2\n      mstore\n      0x20\n      add\n      0x00\n      keccak256\n        /* \"contracts/stake_reward_MLM.sol\":6288:6338  DUSDinvestor[msg.sender].investment[i].DepositTime */\n      0x02\n      add\n      sload\n        /* \"contracts/stake_reward_MLM.sol\":6270:6285  block.timestamp */\n      timestamp\n        /* \"contracts/stake_reward_MLM.sol\":6270:6338  block.timestamp - DUSDinvestor[msg.sender].investment[i].DepositTime */\n      tag_180\n      swap2\n      swap1\n      tag_181\n      jump\t// in\n    tag_180:\n        /* \"contracts/stake_reward_MLM.sol\":6261:6338  depTime =block.timestamp - DUSDinvestor[msg.sender].investment[i].DepositTime */\n      swap4\n      pop\n        /* \"contracts/stake_reward_MLM.sol\":6171:6531  if(!DUSDinvestor[msg.sender].investment[i].unstake)... */\n      jump(tag_182)\n    tag_179:\n        /* \"contracts/stake_reward_MLM.sol\":6462:6474  DUSDinvestor */\n      0x0d\n        /* \"contracts/stake_reward_MLM.sol\":6462:6486  DUSDinvestor[msg.sender] */\n      0x00\n        /* \"contracts/stake_reward_MLM.sol\":6475:6485  msg.sender */\n      caller\n        /* \"contracts/stake_reward_MLM.sol\":6462:6486  DUSDinvestor[msg.sender] */\n      0xffffffffffffffffffffffffffffffffffffffff\n      and\n      0xffffffffffffffffffffffffffffffffffffffff\n      and\n      dup2\n      mstore\n      0x20\n      add\n      swap1\n      dup2\n      mstore\n      0x20\n      add\n      0x00\n      keccak256\n        /* \"contracts/stake_reward_MLM.sol\":6462:6497  DUSDinvestor[msg.sender].investment */\n      0x00\n      add\n        /* \"contracts/stake_reward_MLM.sol\":6462:6500  DUSDinvestor[msg.sender].investment[i] */\n      0x00\n        /* \"contracts/stake_reward_MLM.sol\":6498:6499  i */\n      dup3\n        /* \"contracts/stake_reward_MLM.sol\":6462:6500  DUSDinvestor[msg.sender].investment[i] */\n      dup2\n      mstore\n      0x20\n      add\n      swap1\n      dup2\n      mstore\n      0x20\n      add\n      0x00\n      keccak256\n        /* \"contracts/stake_reward_MLM.sol\":6462:6512  DUSDinvestor[msg.sender].investment[i].DepositTime */\n      0x02\n      add\n      sload\n        /* \"contracts/stake_reward_MLM.sol\":6409:6421  DUSDinvestor */\n      0x0d\n        /* \"contracts/stake_reward_MLM.sol\":6409:6433  DUSDinvestor[msg.sender] */\n      0x00\n        /* \"contracts/stake_reward_MLM.sol\":6422:6432  msg.sender */\n      caller\n        /* \"contracts/stake_reward_MLM.sol\":6409:6433  DUSDinvestor[msg.sender] */\n      0xffffffffffffffffffffffffffffffffffffffff\n      and\n      0xffffffffffffffffffffffffffffffffffffffff\n      and\n      dup2\n      mstore\n      0x20\n      add\n      swap1\n      dup2\n      mstore\n      0x20\n      add\n      0x00\n      keccak256\n        /* \"contracts/stake_reward_MLM.sol\":6409:6444  DUSDinvestor[msg.sender].investment */\n      0x00\n      add\n        /* \"contracts/stake_reward_MLM.sol\":6409:6447  DUSDinvestor[msg.sender].investment[i] */\n      0x00\n        /* \"contracts/stake_reward_MLM.sol\":6445:6446  i */\n      dup4\n        /* \"contracts/stake_reward_MLM.sol\":6409:6447  DUSDinvestor[msg.sender].investment[i] */\n      dup2\n      mstore\n      0x20\n      add\n      swap1\n      dup2\n      mstore\n      0x20\n      add\n      0x00\n      keccak256\n        /* \"contracts/stake_reward_MLM.sol\":6409:6459  DUSDinvestor[msg.sender].investment[i].unstakeTime */\n      0x04\n      add\n      sload\n        /* \"contracts/stake_reward_MLM.sol\":6409:6512  DUSDinvestor[msg.sender].investment[i].unstakeTime - DUSDinvestor[msg.sender].investment[i].DepositTime */\n      tag_183\n      swap2\n      swap1\n      tag_181\n      jump\t// in\n    tag_183:\n        /* \"contracts/stake_reward_MLM.sol\":6400:6512  depTime =DUSDinvestor[msg.sender].investment[i].unstakeTime - DUSDinvestor[msg.sender].investment[i].DepositTime */\n      swap4\n      pop\n        /* \"contracts/stake_reward_MLM.sol\":6171:6531  if(!DUSDinvestor[msg.sender].investment[i].unstake)... */\n    tag_182:\n        /* \"contracts/stake_reward_MLM.sol\":6564:6569  86400 */\n      0x015180\n        /* \"contracts/stake_reward_MLM.sol\":6556:6563  depTime */\n      dup5\n        /* \"contracts/stake_reward_MLM.sol\":6556:6569  depTime/86400 */\n      tag_184\n      swap2\n      swap1\n      tag_185\n      jump\t// in\n    tag_184:\n        /* \"contracts/stake_reward_MLM.sol\":6548:6569  depTime=depTime/86400 */\n      swap4\n      pop\n        /* \"contracts/stake_reward_MLM.sol\":6606:6607  0 */\n      0x00\n        /* \"contracts/stake_reward_MLM.sol\":6598:6605  depTime */\n      dup5\n        /* \"contracts/stake_reward_MLM.sol\":6598:6607  depTime>0 */\n      gt\n        /* \"contracts/stake_reward_MLM.sol\":6595:6804  if(depTime>0)... */\n      iszero\n      tag_186\n      jumpi\n        /* \"contracts/stake_reward_MLM.sol\":6724:6735  denomenator */\n      sload(0x09)\n        /* \"contracts/stake_reward_MLM.sol\":6711:6722  rewardToken */\n      sload(0x06)\n        /* \"contracts/stake_reward_MLM.sol\":6656:6668  DUSDinvestor */\n      0x0d\n        /* \"contracts/stake_reward_MLM.sol\":6656:6680  DUSDinvestor[msg.sender] */\n      0x00\n        /* \"contracts/stake_reward_MLM.sol\":6669:6679  msg.sender */\n      caller\n        /* \"contracts/stake_reward_MLM.sol\":6656:6680  DUSDinvestor[msg.sender] */\n      0xffffffffffffffffffffffffffffffffffffffff\n      and\n      0xffffffffffffffffffffffffffffffffffffffff\n      and\n      dup2\n      mstore\n      0x20\n      add\n      swap1\n      dup2\n      mstore\n      0x20\n      add\n      0x00\n      keccak256\n        /* \"contracts/stake_reward_MLM.sol\":6656:6691  DUSDinvestor[msg.sender].investment */\n      0x00\n      add\n        /* \"contracts/stake_reward_MLM.sol\":6656:6694  DUSDinvestor[msg.sender].investment[i] */\n      0x00\n        /* \"contracts/stake_reward_MLM.sol\":6692:6693  i */\n      dup5\n        /* \"contracts/stake_reward_MLM.sol\":6656:6694  DUSDinvestor[msg.sender].investment[i] */\n      dup2\n      mstore\n      0x20\n      add\n      swap1\n      dup2\n      mstore\n      0x20\n      add\n      0x00\n      keccak256\n        /* \"contracts/stake_reward_MLM.sol\":6656:6709  DUSDinvestor[msg.sender].investment[i].investedAmount */\n      0x00\n      add\n      sload\n        /* \"contracts/stake_reward_MLM.sol\":6655:6722  (DUSDinvestor[msg.sender].investment[i].investedAmount)*rewardToken */\n      tag_187\n      swap2\n      swap1\n      tag_188\n      jump\t// in\n    tag_187:\n        /* \"contracts/stake_reward_MLM.sol\":6654:6735  ((DUSDinvestor[msg.sender].investment[i].investedAmount)*rewardToken)/denomenator */\n      tag_189\n      swap2\n      swap1\n      tag_185\n      jump\t// in\n    tag_189:\n        /* \"contracts/stake_reward_MLM.sol\":6647:6735  rew  = ((DUSDinvestor[msg.sender].investment[i].investedAmount)*rewardToken)/denomenator */\n      swap3\n      pop\n        /* \"contracts/stake_reward_MLM.sol\":6782:6785  rew */\n      dup3\n        /* \"contracts/stake_reward_MLM.sol\":6772:6779  depTime */\n      dup5\n        /* \"contracts/stake_reward_MLM.sol\":6772:6785  depTime * rew */\n      tag_190\n      swap2\n      swap1\n      tag_188\n      jump\t// in\n    tag_190:\n        /* \"contracts/stake_reward_MLM.sol\":6757:6785  totalReward += depTime * rew */\n      dup6\n      tag_191\n      swap2\n      swap1\n      tag_140\n      jump\t// in\n    tag_191:\n      swap5\n      pop\n        /* \"contracts/stake_reward_MLM.sol\":6595:6804  if(depTime>0)... */\n    tag_186:\n        /* \"contracts/stake_reward_MLM.sol\":6133:6136  i++ */\n      dup1\n      dup1\n      tag_192\n      swap1\n      tag_137\n      jump\t// in\n    tag_192:\n      swap2\n      pop\n      pop\n        /* \"contracts/stake_reward_MLM.sol\":6108:6818  for( uint i = 0;i < temp;i++)... */\n      jump(tag_176)\n    tag_177:\n      pop\n        /* \"contracts/stake_reward_MLM.sol\":6846:6858  DUSDinvestor */\n      0x0d\n        /* \"contracts/stake_reward_MLM.sol\":6846:6870  DUSDinvestor[msg.sender] */\n      0x00\n        /* \"contracts/stake_reward_MLM.sol\":6859:6869  msg.sender */\n      caller\n        /* \"contracts/stake_reward_MLM.sol\":6846:6870  DUSDinvestor[msg.sender] */\n      0xffffffffffffffffffffffffffffffffffffffff\n      and\n      0xffffffffffffffffffffffffffffffffffffffff\n      and\n      dup2\n      mstore\n      0x20\n      add\n      swap1\n      dup2\n      mstore\n      0x20\n      add\n      0x00\n      keccak256\n        /* \"contracts/stake_reward_MLM.sol\":6846:6891  DUSDinvestor[msg.sender].totalWithdraw_reward */\n      0x07\n      add\n      sload\n        /* \"contracts/stake_reward_MLM.sol\":6831:6891  totalReward -= DUSDinvestor[msg.sender].totalWithdraw_reward */\n      dup5\n      tag_193\n      swap2\n      swap1\n      tag_181\n      jump\t// in\n    tag_193:\n      swap4\n      pop\n        /* \"contracts/stake_reward_MLM.sol\":6913:6924  totalReward */\n      dup4\n        /* \"contracts/stake_reward_MLM.sol\":6906:6924  return totalReward */\n      swap5\n      pop\n      pop\n      pop\n      pop\n      pop\n        /* \"contracts/stake_reward_MLM.sol\":5841:6935  function getReward() view public returns(uint){ //this function is get the total reward balance of the investor... */\n      swap1\n      jump\t// out\n        /* \"contracts/stake_reward_MLM.sol\":11036:11318  function set_values(uint min_stake,uint max_stake,uint reward_per_day,uint _denomenator) public ... */\n    tag_65:\n        /* \"contracts/stake_reward_MLM.sol\":11174:11183  max_stake */\n      dup3\n        /* \"contracts/stake_reward_MLM.sol\":11155:11171  max_Stake_amount */\n      0x08\n        /* \"contracts/stake_reward_MLM.sol\":11155:11183  max_Stake_amount = max_stake */\n      dup2\n      swap1\n      sstore\n      pop\n        /* \"contracts/stake_reward_MLM.sol\":11216:11225  min_stake */\n      dup4\n        /* \"contracts/stake_reward_MLM.sol\":11197:11213  min_Stake_amount */\n      0x07\n        /* \"contracts/stake_reward_MLM.sol\":11197:11225  min_Stake_amount = min_stake */\n      dup2\n      swap1\n      sstore\n      pop\n        /* \"contracts/stake_reward_MLM.sol\":11253:11267  reward_per_day */\n      dup2\n        /* \"contracts/stake_reward_MLM.sol\":11239:11250  rewardToken */\n      0x06\n        /* \"contracts/stake_reward_MLM.sol\":11239:11267  rewardToken = reward_per_day */\n      dup2\n      swap1\n      sstore\n      pop\n        /* \"contracts/stake_reward_MLM.sol\":11295:11307  _denomenator */\n      dup1\n        /* \"contracts/stake_reward_MLM.sol\":11281:11292  denomenator */\n      0x09\n        /* \"contracts/stake_reward_MLM.sol\":11281:11307  denomenator = _denomenator */\n      dup2\n      swap1\n      sstore\n      pop\n        /* \"contracts/stake_reward_MLM.sol\":11036:11318  function set_values(uint min_stake,uint max_stake,uint reward_per_day,uint _denomenator) public ... */\n      pop\n      pop\n      pop\n      pop\n      jump\t// out\n        /* \"contracts/stake_reward_MLM.sol\":10916:11027  function set_max_Stake_amount(uint _amount) public ... */\n    tag_68:\n        /* \"contracts/stake_reward_MLM.sol\":11009:11016  _amount */\n      dup1\n        /* \"contracts/stake_reward_MLM.sol\":10990:11006  max_Stake_amount */\n      0x08\n        /* \"contracts/stake_reward_MLM.sol\":10990:11016  max_Stake_amount = _amount */\n      dup2\n      swap1\n      sstore\n      pop\n        /* \"contracts/stake_reward_MLM.sol\":10916:11027  function set_max_Stake_amount(uint _amount) public ... */\n      pop\n      jump\t// out\n        /* \"contracts/stake_reward_MLM.sol\":1004:1041  uint public investmentPeriod=300 days */\n    tag_70:\n      sload(0x0a)\n      dup2\n      jump\t// out\n        /* \"contracts/stake_reward_MLM.sol\":7437:8989  function unStake() external  returns (bool success){... */\n    tag_73:\n        /* \"contracts/stake_reward_MLM.sol\":7475:7487  bool success */\n      0x00\n        /* \"contracts/stake_reward_MLM.sol\":7551:7552  0 */\n      dup1\n        /* \"contracts/stake_reward_MLM.sol\":7510:7522  DUSDinvestor */\n      0x0d\n        /* \"contracts/stake_reward_MLM.sol\":7510:7534  DUSDinvestor[msg.sender] */\n      0x00\n        /* \"contracts/stake_reward_MLM.sol\":7523:7533  msg.sender */\n      caller\n        /* \"contracts/stake_reward_MLM.sol\":7510:7534  DUSDinvestor[msg.sender] */\n      0xffffffffffffffffffffffffffffffffffffffff\n      and\n      0xffffffffffffffffffffffffffffffffffffffff\n      and\n      dup2\n      mstore\n      0x20\n      add\n      swap1\n      dup2\n      mstore\n      0x20\n      add\n      0x00\n      keccak256\n        /* \"contracts/stake_reward_MLM.sol\":7510:7550  DUSDinvestor[msg.sender].totalInvestment */\n      0x06\n      add\n      sload\n        /* \"contracts/stake_reward_MLM.sol\":7510:7552  DUSDinvestor[msg.sender].totalInvestment>0 */\n      gt\n        /* \"contracts/stake_reward_MLM.sol\":7502:7593  require(DUSDinvestor[msg.sender].totalInvestment>0,\"you dont have investment to withdrawn\") */\n      tag_197\n      jumpi\n      mload(0x40)\n      0x08c379a000000000000000000000000000000000000000000000000000000000\n      dup2\n      mstore\n      0x04\n      add\n      tag_198\n      swap1\n      tag_199\n      jump\t// in\n    tag_198:\n      mload(0x40)\n      dup1\n      swap2\n      sub\n      swap1\n      revert\n    tag_197:\n        /* \"contracts/stake_reward_MLM.sol\":7665:7676  uint amount */\n      0x00\n        /* \"contracts/stake_reward_MLM.sol\":7677:7689  DUSDinvestor */\n      0x0d\n        /* \"contracts/stake_reward_MLM.sol\":7677:7701  DUSDinvestor[msg.sender] */\n      0x00\n        /* \"contracts/stake_reward_MLM.sol\":7690:7700  msg.sender */\n      caller\n        /* \"contracts/stake_reward_MLM.sol\":7677:7701  DUSDinvestor[msg.sender] */\n      0xffffffffffffffffffffffffffffffffffffffff\n      and\n      0xffffffffffffffffffffffffffffffffffffffff\n      and\n      dup2\n      mstore\n      0x20\n      add\n      swap1\n      dup2\n      mstore\n      0x20\n      add\n      0x00\n      keccak256\n        /* \"contracts/stake_reward_MLM.sol\":7677:7717  DUSDinvestor[msg.sender].totalInvestment */\n      0x06\n      add\n      sload\n        /* \"contracts/stake_reward_MLM.sol\":7665:7717  uint amount=DUSDinvestor[msg.sender].totalInvestment */\n      swap1\n      pop\n        /* \"contracts/stake_reward_MLM.sol\":7731:7740  uint temp */\n      0x00\n        /* \"contracts/stake_reward_MLM.sol\":7743:7755  DUSDinvestor */\n      0x0d\n        /* \"contracts/stake_reward_MLM.sol\":7743:7767  DUSDinvestor[msg.sender] */\n      0x00\n        /* \"contracts/stake_reward_MLM.sol\":7756:7766  msg.sender */\n      caller\n        /* \"contracts/stake_reward_MLM.sol\":7743:7767  DUSDinvestor[msg.sender] */\n      0xffffffffffffffffffffffffffffffffffffffff\n      and\n      0xffffffffffffffffffffffffffffffffffffffff\n      and\n      dup2\n      mstore\n      0x20\n      add\n      swap1\n      dup2\n      mstore\n      0x20\n      add\n      0x00\n      keccak256\n        /* \"contracts/stake_reward_MLM.sol\":7743:7782  DUSDinvestor[msg.sender].noOfInvestment */\n      0x05\n      add\n      sload\n        /* \"contracts/stake_reward_MLM.sol\":7731:7782  uint temp = DUSDinvestor[msg.sender].noOfInvestment */\n      swap1\n      pop\n        /* \"contracts/stake_reward_MLM.sol\":7796:7805  uint from */\n      0x00\n        /* \"contracts/stake_reward_MLM.sol\":7808:7821  rew_till_done */\n      sload(0x0c)\n        /* \"contracts/stake_reward_MLM.sol\":7796:7821  uint from = rew_till_done */\n      swap1\n      pop\n        /* \"contracts/stake_reward_MLM.sol\":7835:7848  uint amount30 */\n      0x00\n        /* \"contracts/stake_reward_MLM.sol\":7862:7875  uint amount70 */\n      dup1\n        /* \"contracts/stake_reward_MLM.sol\":7929:7944  block.timestamp */\n      timestamp\n        /* \"contracts/stake_reward_MLM.sol\":7892:7904  DUSDinvestor */\n      0x0d\n        /* \"contracts/stake_reward_MLM.sol\":7892:7916  DUSDinvestor[msg.sender] */\n      0x00\n        /* \"contracts/stake_reward_MLM.sol\":7905:7915  msg.sender */\n      caller\n        /* \"contracts/stake_reward_MLM.sol\":7892:7916  DUSDinvestor[msg.sender] */\n      0xffffffffffffffffffffffffffffffffffffffff\n      and\n      0xffffffffffffffffffffffffffffffffffffffff\n      and\n      dup2\n      mstore\n      0x20\n      add\n      swap1\n      dup2\n      mstore\n      0x20\n      add\n      0x00\n      keccak256\n        /* \"contracts/stake_reward_MLM.sol\":7892:7926  DUSDinvestor[msg.sender].stakeTime */\n      0x09\n      add\n      sload\n        /* \"contracts/stake_reward_MLM.sol\":7892:7944  DUSDinvestor[msg.sender].stakeTime > block.timestamp */\n      gt\n        /* \"contracts/stake_reward_MLM.sol\":7889:8445  if(DUSDinvestor[msg.sender].stakeTime > block.timestamp)... */\n      iszero\n      tag_200\n      jumpi\n        /* \"contracts/stake_reward_MLM.sol\":7999:8002  100 */\n      0x64\n        /* \"contracts/stake_reward_MLM.sol\":7995:7997  30 */\n      0x1e\n        /* \"contracts/stake_reward_MLM.sol\":7988:7994  amount */\n      dup7\n        /* \"contracts/stake_reward_MLM.sol\":7988:7997  amount*30 */\n      tag_201\n      swap2\n      swap1\n      tag_188\n      jump\t// in\n    tag_201:\n        /* \"contracts/stake_reward_MLM.sol\":7987:8002  (amount*30)/100 */\n      tag_202\n      swap2\n      swap1\n      tag_185\n      jump\t// in\n    tag_202:\n        /* \"contracts/stake_reward_MLM.sol\":7976:8002  amount30 = (amount*30)/100 */\n      swap2\n      pop\n        /* \"contracts/stake_reward_MLM.sol\":8043:8046  100 */\n      0x64\n        /* \"contracts/stake_reward_MLM.sol\":8039:8041  70 */\n      0x46\n        /* \"contracts/stake_reward_MLM.sol\":8032:8038  amount */\n      dup7\n        /* \"contracts/stake_reward_MLM.sol\":8032:8041  amount*70 */\n      tag_203\n      swap2\n      swap1\n      tag_188\n      jump\t// in\n    tag_203:\n        /* \"contracts/stake_reward_MLM.sol\":8031:8046  (amount*70)/100 */\n      tag_204\n      swap2\n      swap1\n      tag_185\n      jump\t// in\n    tag_204:\n        /* \"contracts/stake_reward_MLM.sol\":8020:8046  amount70 = (amount*70)/100 */\n      swap1\n      pop\n        /* \"contracts/stake_reward_MLM.sol\":8069:8080  SMCcontract */\n      0x01\n      0x00\n      swap1\n      sload\n      swap1\n      0x0100\n      exp\n      swap1\n      div\n      0xffffffffffffffffffffffffffffffffffffffff\n      and\n        /* \"contracts/stake_reward_MLM.sol\":8064:8090  DUSD(SMCcontract).transfer */\n      0xffffffffffffffffffffffffffffffffffffffff\n      and\n      0xa9059cbb\n        /* \"contracts/stake_reward_MLM.sol\":8091:8101  msg.sender */\n      caller\n        /* \"contracts/stake_reward_MLM.sol\":8113:8118  10**8 */\n      0x05f5e100\n        /* \"contracts/stake_reward_MLM.sol\":8102:8110  amount30 */\n      dup6\n        /* \"contracts/stake_reward_MLM.sol\":8102:8118  amount30 * 10**8 */\n      tag_205\n      swap2\n      swap1\n      tag_188\n      jump\t// in\n    tag_205:\n        /* \"contracts/stake_reward_MLM.sol\":8064:8119  DUSD(SMCcontract).transfer(msg.sender,amount30 * 10**8) */\n      mload(0x40)\n      dup4\n      0xffffffff\n      and\n      0xe0\n      shl\n      dup2\n      mstore\n      0x04\n      add\n      tag_206\n      swap3\n      swap2\n      swap1\n      tag_207\n      jump\t// in\n    tag_206:\n      0x20\n      mload(0x40)\n      dup1\n      dup4\n      sub\n      dup2\n      0x00\n      dup8\n      dup1\n      extcodesize\n      iszero\n      dup1\n      iszero\n      tag_208\n      jumpi\n      0x00\n      dup1\n      revert\n    tag_208:\n      pop\n      gas\n      call\n      iszero\n      dup1\n      iszero\n      tag_210\n      jumpi\n      returndatasize\n      0x00\n      dup1\n      returndatacopy\n      revert(0x00, returndatasize)\n    tag_210:\n      pop\n      pop\n      pop\n      pop\n      mload(0x40)\n      returndatasize\n      not(0x1f)\n      0x1f\n      dup3\n      add\n      and\n      dup3\n      add\n      dup1\n      0x40\n      mstore\n      pop\n      dup2\n      add\n      swap1\n      tag_211\n      swap2\n      swap1\n      tag_212\n      jump\t// in\n    tag_211:\n      pop\n        /* \"contracts/stake_reward_MLM.sol\":8210:8221  SMCcontract */\n      0x01\n      0x00\n      swap1\n      sload\n      swap1\n      0x0100\n      exp\n      swap1\n      div\n      0xffffffffffffffffffffffffffffffffffffffff\n      and\n        /* \"contracts/stake_reward_MLM.sol\":8205:8231  DUSD(SMCcontract).transfer */\n      0xffffffffffffffffffffffffffffffffffffffff\n      and\n      0xa9059cbb\n        /* \"contracts/stake_reward_MLM.sol\":8232:8237  owner */\n      0x00\n      dup1\n      sload\n      swap1\n      0x0100\n      exp\n      swap1\n      div\n      0xffffffffffffffffffffffffffffffffffffffff\n      and\n        /* \"contracts/stake_reward_MLM.sol\":8249:8254  10**8 */\n      0x05f5e100\n        /* \"contracts/stake_reward_MLM.sol\":8238:8246  amount70 */\n      dup5\n        /* \"contracts/stake_reward_MLM.sol\":8238:8254  amount70 * 10**8 */\n      tag_213\n      swap2\n      swap1\n      tag_188\n      jump\t// in\n    tag_213:\n        /* \"contracts/stake_reward_MLM.sol\":8205:8255  DUSD(SMCcontract).transfer(owner,amount70 * 10**8) */\n      mload(0x40)\n      dup4\n      0xffffffff\n      and\n      0xe0\n      shl\n      dup2\n      mstore\n      0x04\n      add\n      tag_214\n      swap3\n      swap2\n      swap1\n      tag_207\n      jump\t// in\n    tag_214:\n      0x20\n      mload(0x40)\n      dup1\n      dup4\n      sub\n      dup2\n      0x00\n      dup8\n      dup1\n      extcodesize\n      iszero\n      dup1\n      iszero\n      tag_215\n      jumpi\n      0x00\n      dup1\n      revert\n    tag_215:\n      pop\n      gas\n      call\n      iszero\n      dup1\n      iszero\n      tag_217\n      jumpi\n      returndatasize\n      0x00\n      dup1\n      returndatacopy\n      revert(0x00, returndatasize)\n    tag_217:\n      pop\n      pop\n      pop\n      pop\n      mload(0x40)\n      returndatasize\n      not(0x1f)\n      0x1f\n      dup3\n      add\n      and\n      dup3\n      add\n      dup1\n      0x40\n      mstore\n      pop\n      dup2\n      add\n      swap1\n      tag_218\n      swap2\n      swap1\n      tag_212\n      jump\t// in\n    tag_218:\n      pop\n        /* \"contracts/stake_reward_MLM.sol\":7889:8445  if(DUSDinvestor[msg.sender].stakeTime > block.timestamp)... */\n      jump(tag_219)\n    tag_200:\n        /* \"contracts/stake_reward_MLM.sol\":8315:8326  SMCcontract */\n      0x01\n      0x00\n      swap1\n      sload\n      swap1\n      0x0100\n      exp\n      swap1\n      div\n      0xffffffffffffffffffffffffffffffffffffffff\n      and\n        /* \"contracts/stake_reward_MLM.sol\":8310:8336  DUSD(SMCcontract).transfer */\n      0xffffffffffffffffffffffffffffffffffffffff\n      and\n      0xa9059cbb\n        /* \"contracts/stake_reward_MLM.sol\":8337:8347  msg.sender */\n      caller\n        /* \"contracts/stake_reward_MLM.sol\":8356:8361  10**8 */\n      0x05f5e100\n        /* \"contracts/stake_reward_MLM.sol\":8348:8354  amount */\n      dup9\n        /* \"contracts/stake_reward_MLM.sol\":8348:8361  amount* 10**8 */\n      tag_220\n      swap2\n      swap1\n      tag_188\n      jump\t// in\n    tag_220:\n        /* \"contracts/stake_reward_MLM.sol\":8310:8362  DUSD(SMCcontract).transfer(msg.sender,amount* 10**8) */\n      mload(0x40)\n      dup4\n      0xffffffff\n      and\n      0xe0\n      shl\n      dup2\n      mstore\n      0x04\n      add\n      tag_221\n      swap3\n      swap2\n      swap1\n      tag_207\n      jump\t// in\n    tag_221:\n      0x20\n      mload(0x40)\n      dup1\n      dup4\n      sub\n      dup2\n      0x00\n      dup8\n      dup1\n      extcodesize\n      iszero\n      dup1\n      iszero\n      tag_222\n      jumpi\n      0x00\n      dup1\n      revert\n    tag_222:\n      pop\n      gas\n      call\n      iszero\n      dup1\n      iszero\n      tag_224\n      jumpi\n      returndatasize\n      0x00\n      dup1\n      returndatacopy\n      revert(0x00, returndatasize)\n    tag_224:\n      pop\n      pop\n      pop\n      pop\n      mload(0x40)\n      returndatasize\n      not(0x1f)\n      0x1f\n      dup3\n      add\n      and\n      dup3\n      add\n      dup1\n      0x40\n      mstore\n      pop\n      dup2\n      add\n      swap1\n      tag_225\n      swap2\n      swap1\n      tag_212\n      jump\t// in\n    tag_225:\n      pop\n        /* \"contracts/stake_reward_MLM.sol\":7889:8445  if(DUSDinvestor[msg.sender].stakeTime > block.timestamp)... */\n    tag_219:\n        /* \"contracts/stake_reward_MLM.sol\":8468:8469  0 */\n      0x00\n        /* \"contracts/stake_reward_MLM.sol\":8463:8469  from=0 */\n      swap3\n      pop\n        /* \"contracts/stake_reward_MLM.sol\":8458:8720  for( from=0;from < temp;from++)... */\n    tag_226:\n        /* \"contracts/stake_reward_MLM.sol\":8477:8481  temp */\n      dup4\n        /* \"contracts/stake_reward_MLM.sol\":8470:8474  from */\n      dup4\n        /* \"contracts/stake_reward_MLM.sol\":8470:8481  from < temp */\n      lt\n        /* \"contracts/stake_reward_MLM.sol\":8458:8720  for( from=0;from < temp;from++)... */\n      iszero\n      tag_227\n      jumpi\n        /* \"contracts/stake_reward_MLM.sol\":8574:8578  true */\n      0x01\n        /* \"contracts/stake_reward_MLM.sol\":8523:8535  DUSDinvestor */\n      0x0d\n        /* \"contracts/stake_reward_MLM.sol\":8523:8547  DUSDinvestor[msg.sender] */\n      0x00\n        /* \"contracts/stake_reward_MLM.sol\":8536:8546  msg.sender */\n      caller\n        /* \"contracts/stake_reward_MLM.sol\":8523:8547  DUSDinvestor[msg.sender] */\n      0xffffffffffffffffffffffffffffffffffffffff\n      and\n      0xffffffffffffffffffffffffffffffffffffffff\n      and\n      dup2\n      mstore\n      0x20\n      add\n      swap1\n      dup2\n      mstore\n      0x20\n      add\n      0x00\n      keccak256\n        /* \"contracts/stake_reward_MLM.sol\":8523:8558  DUSDinvestor[msg.sender].investment */\n      0x00\n      add\n        /* \"contracts/stake_reward_MLM.sol\":8523:8564  DUSDinvestor[msg.sender].investment[from] */\n      0x00\n        /* \"contracts/stake_reward_MLM.sol\":8559:8563  from */\n      dup6\n        /* \"contracts/stake_reward_MLM.sol\":8523:8564  DUSDinvestor[msg.sender].investment[from] */\n      dup2\n      mstore\n      0x20\n      add\n      swap1\n      dup2\n      mstore\n      0x20\n      add\n      0x00\n      keccak256\n        /* \"contracts/stake_reward_MLM.sol\":8523:8572  DUSDinvestor[msg.sender].investment[from].unstake */\n      0x05\n      add\n      0x00\n        /* \"contracts/stake_reward_MLM.sol\":8523:8578  DUSDinvestor[msg.sender].investment[from].unstake =true */\n      0x0100\n      exp\n      dup2\n      sload\n      dup2\n      0xff\n      mul\n      not\n      and\n      swap1\n      dup4\n      iszero\n      iszero\n      mul\n      or\n      swap1\n      sstore\n      pop\n        /* \"contracts/stake_reward_MLM.sol\":8655:8670  block.timestamp */\n      timestamp\n        /* \"contracts/stake_reward_MLM.sol\":8600:8612  DUSDinvestor */\n      0x0d\n        /* \"contracts/stake_reward_MLM.sol\":8600:8624  DUSDinvestor[msg.sender] */\n      0x00\n        /* \"contracts/stake_reward_MLM.sol\":8613:8623  msg.sender */\n      caller\n        /* \"contracts/stake_reward_MLM.sol\":8600:8624  DUSDinvestor[msg.sender] */\n      0xffffffffffffffffffffffffffffffffffffffff\n      and\n      0xffffffffffffffffffffffffffffffffffffffff\n      and\n      dup2\n      mstore\n      0x20\n      add\n      swap1\n      dup2\n      mstore\n      0x20\n      add\n      0x00\n      keccak256\n        /* \"contracts/stake_reward_MLM.sol\":8600:8635  DUSDinvestor[msg.sender].investment */\n      0x00\n      add\n        /* \"contracts/stake_reward_MLM.sol\":8600:8641  DUSDinvestor[msg.sender].investment[from] */\n      0x00\n        /* \"contracts/stake_reward_MLM.sol\":8636:8640  from */\n      dup6\n        /* \"contracts/stake_reward_MLM.sol\":8600:8641  DUSDinvestor[msg.sender].investment[from] */\n      dup2\n      mstore\n      0x20\n      add\n      swap1\n      dup2\n      mstore\n      0x20\n      add\n      0x00\n      keccak256\n        /* \"contracts/stake_reward_MLM.sol\":8600:8653  DUSDinvestor[msg.sender].investment[from].unstakeTime */\n      0x04\n      add\n        /* \"contracts/stake_reward_MLM.sol\":8600:8670  DUSDinvestor[msg.sender].investment[from].unstakeTime =block.timestamp */\n      dup2\n      swap1\n      sstore\n      pop\n        /* \"contracts/stake_reward_MLM.sol\":8482:8488  from++ */\n      dup3\n      dup1\n      tag_229\n      swap1\n      tag_137\n      jump\t// in\n    tag_229:\n      swap4\n      pop\n      pop\n        /* \"contracts/stake_reward_MLM.sol\":8458:8720  for( from=0;from < temp;from++)... */\n      jump(tag_226)\n    tag_227:\n        /* \"contracts/stake_reward_MLM.sol\":8748:8760  DUSDinvestor */\n      0x0d\n        /* \"contracts/stake_reward_MLM.sol\":8748:8772  DUSDinvestor[msg.sender] */\n      0x00\n        /* \"contracts/stake_reward_MLM.sol\":8761:8771  msg.sender */\n      caller\n        /* \"contracts/stake_reward_MLM.sol\":8748:8772  DUSDinvestor[msg.sender] */\n      0xffffffffffffffffffffffffffffffffffffffff\n      and\n      0xffffffffffffffffffffffffffffffffffffffff\n      and\n      dup2\n      mstore\n      0x20\n      add\n      swap1\n      dup2\n      mstore\n      0x20\n      add\n      0x00\n      keccak256\n        /* \"contracts/stake_reward_MLM.sol\":8748:8787  DUSDinvestor[msg.sender].noOfInvestment */\n      0x05\n      add\n      sload\n        /* \"contracts/stake_reward_MLM.sol\":8733:8746  rew_till_done */\n      0x0c\n        /* \"contracts/stake_reward_MLM.sol\":8733:8787  rew_till_done =DUSDinvestor[msg.sender].noOfInvestment */\n      dup2\n      swap1\n      sstore\n      pop\n        /* \"contracts/stake_reward_MLM.sol\":8881:8882  0 */\n      0x00\n        /* \"contracts/stake_reward_MLM.sol\":8840:8852  DUSDinvestor */\n      0x0d\n        /* \"contracts/stake_reward_MLM.sol\":8840:8864  DUSDinvestor[msg.sender] */\n      0x00\n        /* \"contracts/stake_reward_MLM.sol\":8853:8863  msg.sender */\n      caller\n        /* \"contracts/stake_reward_MLM.sol\":8840:8864  DUSDinvestor[msg.sender] */\n      0xffffffffffffffffffffffffffffffffffffffff\n      and\n      0xffffffffffffffffffffffffffffffffffffffff\n      and\n      dup2\n      mstore\n      0x20\n      add\n      swap1\n      dup2\n      mstore\n      0x20\n      add\n      0x00\n      keccak256\n        /* \"contracts/stake_reward_MLM.sol\":8840:8880  DUSDinvestor[msg.sender].totalInvestment */\n      0x06\n      add\n        /* \"contracts/stake_reward_MLM.sol\":8840:8882  DUSDinvestor[msg.sender].totalInvestment=0 */\n      dup2\n      swap1\n      sstore\n      pop\n        /* \"contracts/stake_reward_MLM.sol\":8973:8977  true */\n      0x01\n        /* \"contracts/stake_reward_MLM.sol\":8966:8977  return true */\n      swap6\n      pop\n      pop\n      pop\n      pop\n      pop\n      pop\n        /* \"contracts/stake_reward_MLM.sol\":7437:8989  function unStake() external  returns (bool success){... */\n      swap1\n      jump\t// out\n        /* \"contracts/stake_reward_MLM.sol\":300:321  address  public owner */\n    tag_76:\n      0x00\n      dup1\n      sload\n      swap1\n      0x0100\n      exp\n      swap1\n      div\n      0xffffffffffffffffffffffffffffffffffffffff\n      and\n      dup2\n      jump\t// out\n        /* \"contracts/stake_reward_MLM.sol\":8999:9209  function getTotalInvestmentDUSD() public view returns(uint) {   //this function is to get the total investment of the ivestor... */\n    tag_80:\n        /* \"contracts/stake_reward_MLM.sol\":9053:9057  uint */\n      0x00\n        /* \"contracts/stake_reward_MLM.sol\":9157:9169  DUSDinvestor */\n      0x0d\n        /* \"contracts/stake_reward_MLM.sol\":9157:9181  DUSDinvestor[msg.sender] */\n      0x00\n        /* \"contracts/stake_reward_MLM.sol\":9170:9180  msg.sender */\n      caller\n        /* \"contracts/stake_reward_MLM.sol\":9157:9181  DUSDinvestor[msg.sender] */\n      0xffffffffffffffffffffffffffffffffffffffff\n      and\n      0xffffffffffffffffffffffffffffffffffffffff\n      and\n      dup2\n      mstore\n      0x20\n      add\n      swap1\n      dup2\n      mstore\n      0x20\n      add\n      0x00\n      keccak256\n        /* \"contracts/stake_reward_MLM.sol\":9157:9197  DUSDinvestor[msg.sender].totalInvestment */\n      0x06\n      add\n      sload\n        /* \"contracts/stake_reward_MLM.sol\":9150:9197  return DUSDinvestor[msg.sender].totalInvestment */\n      swap1\n      pop\n        /* \"contracts/stake_reward_MLM.sol\":8999:9209  function getTotalInvestmentDUSD() public view returns(uint) {   //this function is to get the total investment of the ivestor... */\n      swap1\n      jump\t// out\n        /* \"contracts/stake_reward_MLM.sol\":936:966  uint public denomenator=100000 */\n    tag_83:\n      sload(0x09)\n      dup2\n      jump\t// out\n        /* \"contracts/stake_reward_MLM.sol\":476:496  uint public div_done */\n    tag_86:\n      sload(0x03)\n      dup2\n      jump\t// out\n        /* \"contracts/stake_reward_MLM.sol\":10633:10787  function setReward(uint _amount,uint _denomenator) public ... */\n    tag_91:\n        /* \"contracts/stake_reward_MLM.sol\":10728:10735  _amount */\n      dup2\n        /* \"contracts/stake_reward_MLM.sol\":10714:10725  rewardToken */\n      0x06\n        /* \"contracts/stake_reward_MLM.sol\":10714:10735  rewardToken = _amount */\n      dup2\n      swap1\n      sstore\n      pop\n        /* \"contracts/stake_reward_MLM.sol\":10763:10775  _denomenator */\n      dup1\n        /* \"contracts/stake_reward_MLM.sol\":10749:10760  denomenator */\n      0x09\n        /* \"contracts/stake_reward_MLM.sol\":10749:10775  denomenator = _denomenator */\n      dup2\n      swap1\n      sstore\n      pop\n        /* \"contracts/stake_reward_MLM.sol\":10633:10787  function setReward(uint _amount,uint _denomenator) public ... */\n      pop\n      pop\n      jump\t// out\n        /* \"contracts/stake_reward_MLM.sol\":11511:12076  function referralLevel_earning() public view returns( uint[] memory arr )... */\n    tag_93:\n        /* \"contracts/stake_reward_MLM.sol\":11565:11582  uint[] memory arr */\n      0x60\n        /* \"contracts/stake_reward_MLM.sol\":11607:11642  uint[] memory referralLevels_reward */\n      0x00\n        /* \"contracts/stake_reward_MLM.sol\":11654:11656  20 */\n      0x14\n        /* \"contracts/stake_reward_MLM.sol\":11643:11657  new uint[](20) */\n      0xffffffffffffffff\n      dup2\n      gt\n      iszero\n      tag_233\n      jumpi\n      tag_234\n      tag_161\n      jump\t// in\n    tag_234:\n    tag_233:\n      mload(0x40)\n      swap1\n      dup1\n      dup3\n      mstore\n      dup1\n      0x20\n      mul\n      0x20\n      add\n      dup3\n      add\n      0x40\n      mstore\n      dup1\n      iszero\n      tag_235\n      jumpi\n      dup2\n      0x20\n      add\n      0x20\n      dup3\n      mul\n      dup1\n      calldatasize\n      dup4\n      calldatacopy\n      dup1\n      dup3\n      add\n      swap2\n      pop\n      pop\n      swap1\n      pop\n    tag_235:\n      pop\n        /* \"contracts/stake_reward_MLM.sol\":11607:11657  uint[] memory referralLevels_reward=new uint[](20) */\n      swap1\n      pop\n        /* \"contracts/stake_reward_MLM.sol\":11675:11681  uint i */\n      0x00\n        /* \"contracts/stake_reward_MLM.sol\":11671:12021  for(uint i=0;i<20;i++)... */\n    tag_236:\n        /* \"contracts/stake_reward_MLM.sol\":11686:11688  20 */\n      0x14\n        /* \"contracts/stake_reward_MLM.sol\":11684:11685  i */\n      dup2\n        /* \"contracts/stake_reward_MLM.sol\":11684:11688  i<20 */\n      lt\n        /* \"contracts/stake_reward_MLM.sol\":11671:12021  for(uint i=0;i<20;i++)... */\n      iszero\n      tag_237\n      jumpi\n        /* \"contracts/stake_reward_MLM.sol\":11776:11777  0 */\n      0x00\n        /* \"contracts/stake_reward_MLM.sol\":11727:11739  DUSDinvestor */\n      0x0d\n        /* \"contracts/stake_reward_MLM.sol\":11727:11751  DUSDinvestor[msg.sender] */\n      0x00\n        /* \"contracts/stake_reward_MLM.sol\":11740:11750  msg.sender */\n      caller\n        /* \"contracts/stake_reward_MLM.sol\":11727:11751  DUSDinvestor[msg.sender] */\n      0xffffffffffffffffffffffffffffffffffffffff\n      and\n      0xffffffffffffffffffffffffffffffffffffffff\n      and\n      dup2\n      mstore\n      0x20\n      add\n      swap1\n      dup2\n      mstore\n      0x20\n      add\n      0x00\n      keccak256\n        /* \"contracts/stake_reward_MLM.sol\":11727:11765  DUSDinvestor[msg.sender].referralLevel */\n      0x03\n      add\n        /* \"contracts/stake_reward_MLM.sol\":11727:11768  DUSDinvestor[msg.sender].referralLevel[i] */\n      0x00\n        /* \"contracts/stake_reward_MLM.sol\":11766:11767  i */\n      dup4\n        /* \"contracts/stake_reward_MLM.sol\":11727:11768  DUSDinvestor[msg.sender].referralLevel[i] */\n      dup2\n      mstore\n      0x20\n      add\n      swap1\n      dup2\n      mstore\n      0x20\n      add\n      0x00\n      keccak256\n        /* \"contracts/stake_reward_MLM.sol\":11727:11775  DUSDinvestor[msg.sender].referralLevel[i].reward */\n      0x00\n      add\n      sload\n        /* \"contracts/stake_reward_MLM.sol\":11727:11777  DUSDinvestor[msg.sender].referralLevel[i].reward>0 */\n      gt\n        /* \"contracts/stake_reward_MLM.sol\":11724:12005  if(DUSDinvestor[msg.sender].referralLevel[i].reward>0)... */\n      iszero\n      tag_239\n      jumpi\n        /* \"contracts/stake_reward_MLM.sol\":11844:11856  DUSDinvestor */\n      0x0d\n        /* \"contracts/stake_reward_MLM.sol\":11844:11868  DUSDinvestor[msg.sender] */\n      0x00\n        /* \"contracts/stake_reward_MLM.sol\":11857:11867  msg.sender */\n      caller\n        /* \"contracts/stake_reward_MLM.sol\":11844:11868  DUSDinvestor[msg.sender] */\n      0xffffffffffffffffffffffffffffffffffffffff\n      and\n      0xffffffffffffffffffffffffffffffffffffffff\n      and\n      dup2\n      mstore\n      0x20\n      add\n      swap1\n      dup2\n      mstore\n      0x20\n      add\n      0x00\n      keccak256\n        /* \"contracts/stake_reward_MLM.sol\":11844:11882  DUSDinvestor[msg.sender].referralLevel */\n      0x03\n      add\n        /* \"contracts/stake_reward_MLM.sol\":11844:11885  DUSDinvestor[msg.sender].referralLevel[i] */\n      0x00\n        /* \"contracts/stake_reward_MLM.sol\":11883:11884  i */\n      dup3\n        /* \"contracts/stake_reward_MLM.sol\":11844:11885  DUSDinvestor[msg.sender].referralLevel[i] */\n      dup2\n      mstore\n      0x20\n      add\n      swap1\n      dup2\n      mstore\n      0x20\n      add\n      0x00\n      keccak256\n        /* \"contracts/stake_reward_MLM.sol\":11844:11892  DUSDinvestor[msg.sender].referralLevel[i].reward */\n      0x00\n      add\n      sload\n        /* \"contracts/stake_reward_MLM.sol\":11817:11838  referralLevels_reward */\n      dup3\n        /* \"contracts/stake_reward_MLM.sol\":11839:11840  i */\n      dup3\n        /* \"contracts/stake_reward_MLM.sol\":11817:11841  referralLevels_reward[i] */\n      dup2\n      mload\n      dup2\n      lt\n      tag_240\n      jumpi\n      tag_241\n      tag_172\n      jump\t// in\n    tag_241:\n    tag_240:\n      0x20\n      mul\n      0x20\n      add\n      add\n        /* \"contracts/stake_reward_MLM.sol\":11817:11892  referralLevels_reward[i] = DUSDinvestor[msg.sender].referralLevel[i].reward */\n      dup2\n      dup2\n      mstore\n      pop\n      pop\n        /* \"contracts/stake_reward_MLM.sol\":11724:12005  if(DUSDinvestor[msg.sender].referralLevel[i].reward>0)... */\n      jump(tag_242)\n    tag_239:\n        /* \"contracts/stake_reward_MLM.sol\":11984:11985  0 */\n      0x00\n        /* \"contracts/stake_reward_MLM.sol\":11957:11978  referralLevels_reward */\n      dup3\n        /* \"contracts/stake_reward_MLM.sol\":11979:11980  i */\n      dup3\n        /* \"contracts/stake_reward_MLM.sol\":11957:11981  referralLevels_reward[i] */\n      dup2\n      mload\n      dup2\n      lt\n      tag_243\n      jumpi\n      tag_244\n      tag_172\n      jump\t// in\n    tag_244:\n    tag_243:\n      0x20\n      mul\n      0x20\n      add\n      add\n        /* \"contracts/stake_reward_MLM.sol\":11957:11985  referralLevels_reward[i] = 0 */\n      dup2\n      dup2\n      mstore\n      pop\n      pop\n        /* \"contracts/stake_reward_MLM.sol\":11724:12005  if(DUSDinvestor[msg.sender].referralLevel[i].reward>0)... */\n    tag_242:\n        /* \"contracts/stake_reward_MLM.sol\":11689:11692  i++ */\n      dup1\n      dup1\n      tag_245\n      swap1\n      tag_137\n      jump\t// in\n    tag_245:\n      swap2\n      pop\n      pop\n        /* \"contracts/stake_reward_MLM.sol\":11671:12021  for(uint i=0;i<20;i++)... */\n      jump(tag_236)\n    tag_237:\n      pop\n        /* \"contracts/stake_reward_MLM.sol\":12041:12062  referralLevels_reward */\n      dup1\n        /* \"contracts/stake_reward_MLM.sol\":12034:12062  return referralLevels_reward */\n      swap2\n      pop\n      pop\n        /* \"contracts/stake_reward_MLM.sol\":11511:12076  function referralLevel_earning() public view returns( uint[] memory arr )... */\n      swap1\n      jump\t// out\n        /* \"contracts/stake_reward_MLM.sol\":506:525  uint public i_value */\n    tag_97:\n      sload(0x04)\n      dup2\n      jump\t// out\n        /* \"contracts/stake_reward_MLM.sol\":791:825  uint public min_Stake_amount=10000 */\n    tag_100:\n      sload(0x07)\n      dup2\n      jump\t// out\n        /* \"contracts/stake_reward_MLM.sol\":6945:7426  function withdrawReward() external returns (bool success){... */\n    tag_103:\n        /* \"contracts/stake_reward_MLM.sol\":6989:7001  bool success */\n      0x00\n        /* \"contracts/stake_reward_MLM.sol\":7016:7033  uint Total_reward */\n      dup1\n        /* \"contracts/stake_reward_MLM.sol\":7036:7047  getReward() */\n      tag_247\n        /* \"contracts/stake_reward_MLM.sol\":7036:7045  getReward */\n      tag_60\n        /* \"contracts/stake_reward_MLM.sol\":7036:7047  getReward() */\n      jump\t// in\n    tag_247:\n        /* \"contracts/stake_reward_MLM.sol\":7016:7047  uint Total_reward = getReward() */\n      swap1\n      pop\n        /* \"contracts/stake_reward_MLM.sol\":7082:7083  0 */\n      0x00\n        /* \"contracts/stake_reward_MLM.sol\":7069:7081  Total_reward */\n      dup2\n        /* \"contracts/stake_reward_MLM.sol\":7069:7083  Total_reward>0 */\n      gt\n        /* \"contracts/stake_reward_MLM.sol\":7061:7121  require(Total_reward>0,\"you dont have rewards to withdrawn\") */\n      tag_248\n      jumpi\n      mload(0x40)\n      0x08c379a000000000000000000000000000000000000000000000000000000000\n      dup2\n      mstore\n      0x04\n      add\n      tag_249\n      swap1\n      tag_250\n      jump\t// in\n    tag_249:\n      mload(0x40)\n      dup1\n      swap2\n      sub\n      swap1\n      revert\n    tag_248:\n        /* \"contracts/stake_reward_MLM.sol\":7205:7217  BUSDcontract */\n      0x02\n      0x00\n      swap1\n      sload\n      swap1\n      0x0100\n      exp\n      swap1\n      div\n      0xffffffffffffffffffffffffffffffffffffffff\n      and\n        /* \"contracts/stake_reward_MLM.sol\":7200:7227  DUSD(BUSDcontract).transfer */\n      0xffffffffffffffffffffffffffffffffffffffff\n      and\n      0xa9059cbb\n        /* \"contracts/stake_reward_MLM.sol\":7228:7238  msg.sender */\n      caller\n        /* \"contracts/stake_reward_MLM.sol\":7239:7251  Total_reward */\n      dup4\n        /* \"contracts/stake_reward_MLM.sol\":7200:7252  DUSD(BUSDcontract).transfer(msg.sender,Total_reward) */\n      mload(0x40)\n      dup4\n      0xffffffff\n      and\n      0xe0\n      shl\n      dup2\n      mstore\n      0x04\n      add\n      tag_251\n      swap3\n      swap2\n      swap1\n      tag_207\n      jump\t// in\n    tag_251:\n      0x20\n      mload(0x40)\n      dup1\n      dup4\n      sub\n      dup2\n      0x00\n      dup8\n      dup1\n      extcodesize\n      iszero\n      dup1\n      iszero\n      tag_252\n      jumpi\n      0x00\n      dup1\n      revert\n    tag_252:\n      pop\n      gas\n      call\n      iszero\n      dup1\n      iszero\n      tag_254\n      jumpi\n      returndatasize\n      0x00\n      dup1\n      returndatacopy\n      revert(0x00, returndatasize)\n    tag_254:\n      pop\n      pop\n      pop\n      pop\n      mload(0x40)\n      returndatasize\n      not(0x1f)\n      0x1f\n      dup3\n      add\n      and\n      dup3\n      add\n      dup1\n      0x40\n      mstore\n      pop\n      dup2\n      add\n      swap1\n      tag_255\n      swap2\n      swap1\n      tag_212\n      jump\t// in\n    tag_255:\n      pop\n        /* \"contracts/stake_reward_MLM.sol\":7376:7388  Total_reward */\n      dup1\n        /* \"contracts/stake_reward_MLM.sol\":7329:7341  DUSDinvestor */\n      0x0d\n        /* \"contracts/stake_reward_MLM.sol\":7329:7353  DUSDinvestor[msg.sender] */\n      0x00\n        /* \"contracts/stake_reward_MLM.sol\":7342:7352  msg.sender */\n      caller\n        /* \"contracts/stake_reward_MLM.sol\":7329:7353  DUSDinvestor[msg.sender] */\n      0xffffffffffffffffffffffffffffffffffffffff\n      and\n      0xffffffffffffffffffffffffffffffffffffffff\n      and\n      dup2\n      mstore\n      0x20\n      add\n      swap1\n      dup2\n      mstore\n      0x20\n      add\n      0x00\n      keccak256\n        /* \"contracts/stake_reward_MLM.sol\":7329:7374  DUSDinvestor[msg.sender].totalWithdraw_reward */\n      0x07\n      add\n      0x00\n        /* \"contracts/stake_reward_MLM.sol\":7329:7388  DUSDinvestor[msg.sender].totalWithdraw_reward+=Total_reward */\n      dup3\n      dup3\n      sload\n      tag_256\n      swap2\n      swap1\n      tag_140\n      jump\t// in\n    tag_256:\n      swap3\n      pop\n      pop\n      dup2\n      swap1\n      sstore\n      pop\n        /* \"contracts/stake_reward_MLM.sol\":7410:7414  true */\n      0x01\n        /* \"contracts/stake_reward_MLM.sol\":7403:7414  return true */\n      swap2\n      pop\n      pop\n        /* \"contracts/stake_reward_MLM.sol\":6945:7426  function withdrawReward() external returns (bool success){... */\n      swap1\n      jump\t// out\n        /* \"contracts/stake_reward_MLM.sol\":1831:1873  mapping(address=>Data) public DUSDinvestor */\n    tag_108:\n      mstore(0x20, 0x0d)\n      dup1\n      0x00\n      mstore\n      keccak256(0x00, 0x40)\n      0x00\n      swap2\n      pop\n      swap1\n      pop\n      dup1\n      0x02\n      add\n      0x00\n      swap1\n      sload\n      swap1\n      0x0100\n      exp\n      swap1\n      div\n      0xffffffffffffffffffffffffffffffffffffffff\n      and\n      swap1\n      dup1\n      0x04\n      add\n      sload\n      swap1\n      dup1\n      0x05\n      add\n      sload\n      swap1\n      dup1\n      0x06\n      add\n      sload\n      swap1\n      dup1\n      0x07\n      add\n      sload\n      swap1\n      dup1\n      0x08\n      add\n      0x00\n      swap1\n      sload\n      swap1\n      0x0100\n      exp\n      swap1\n      div\n      0xff\n      and\n      swap1\n      dup1\n      0x09\n      add\n      sload\n      swap1\n      pop\n      dup8\n      jump\t// out\n        /* \"contracts/stake_reward_MLM.sol\":1051:1076  uint public totalbusiness */\n    tag_112:\n      sload(0x0b)\n      dup2\n      jump\t// out\n        /* \"contracts/stake_reward_MLM.sol\":11327:11501  function transferOwnership(address _owner)  public... */\n    tag_116:\n        /* \"contracts/stake_reward_MLM.sol\":11420:11425  owner */\n      0x00\n      dup1\n      sload\n      swap1\n      0x0100\n      exp\n      swap1\n      div\n      0xffffffffffffffffffffffffffffffffffffffff\n      and\n        /* \"contracts/stake_reward_MLM.sol\":11408:11425  msg.sender==owner */\n      0xffffffffffffffffffffffffffffffffffffffff\n      and\n        /* \"contracts/stake_reward_MLM.sol\":11408:11418  msg.sender */\n      caller\n        /* \"contracts/stake_reward_MLM.sol\":11408:11425  msg.sender==owner */\n      0xffffffffffffffffffffffffffffffffffffffff\n      and\n      eq\n        /* \"contracts/stake_reward_MLM.sol\":11400:11462  require(msg.sender==owner,\"only Owner can call this function\") */\n      tag_258\n      jumpi\n      mload(0x40)\n      0x08c379a000000000000000000000000000000000000000000000000000000000\n      dup2\n      mstore\n      0x04\n      add\n      tag_259\n      swap1\n      tag_260\n      jump\t// in\n    tag_259:\n      mload(0x40)\n      dup1\n      swap2\n      sub\n      swap1\n      revert\n    tag_258:\n        /* \"contracts/stake_reward_MLM.sol\":11484:11490  _owner */\n      dup1\n        /* \"contracts/stake_reward_MLM.sol\":11476:11481  owner */\n      0x00\n      dup1\n        /* \"contracts/stake_reward_MLM.sol\":11476:11490  owner = _owner */\n      0x0100\n      exp\n      dup2\n      sload\n      dup2\n      0xffffffffffffffffffffffffffffffffffffffff\n      mul\n      not\n      and\n      swap1\n      dup4\n      0xffffffffffffffffffffffffffffffffffffffff\n      and\n      mul\n      or\n      swap1\n      sstore\n      pop\n        /* \"contracts/stake_reward_MLM.sol\":11327:11501  function transferOwnership(address _owner)  public... */\n      pop\n      jump\t// out\n        /* \"contracts/stake_reward_MLM.sol\":12085:12646  function referralLevel_count() public view returns( uint[] memory arr )... */\n    tag_118:\n        /* \"contracts/stake_reward_MLM.sol\":12137:12154  uint[] memory arr */\n      0x60\n        /* \"contracts/stake_reward_MLM.sol\":12179:12214  uint[] memory referralLevels_reward */\n      0x00\n        /* \"contracts/stake_reward_MLM.sol\":12226:12228  20 */\n      0x14\n        /* \"contracts/stake_reward_MLM.sol\":12215:12229  new uint[](20) */\n      0xffffffffffffffff\n      dup2\n      gt\n      iszero\n      tag_262\n      jumpi\n      tag_263\n      tag_161\n      jump\t// in\n    tag_263:\n    tag_262:\n      mload(0x40)\n      swap1\n      dup1\n      dup3\n      mstore\n      dup1\n      0x20\n      mul\n      0x20\n      add\n      dup3\n      add\n      0x40\n      mstore\n      dup1\n      iszero\n      tag_264\n      jumpi\n      dup2\n      0x20\n      add\n      0x20\n      dup3\n      mul\n      dup1\n      calldatasize\n      dup4\n      calldatacopy\n      dup1\n      dup3\n      add\n      swap2\n      pop\n      pop\n      swap1\n      pop\n    tag_264:\n      pop\n        /* \"contracts/stake_reward_MLM.sol\":12179:12229  uint[] memory referralLevels_reward=new uint[](20) */\n      swap1\n      pop\n        /* \"contracts/stake_reward_MLM.sol\":12247:12253  uint i */\n      0x00\n        /* \"contracts/stake_reward_MLM.sol\":12243:12591  for(uint i=0;i<20;i++)... */\n    tag_265:\n        /* \"contracts/stake_reward_MLM.sol\":12258:12260  20 */\n      0x14\n        /* \"contracts/stake_reward_MLM.sol\":12256:12257  i */\n      dup2\n        /* \"contracts/stake_reward_MLM.sol\":12256:12260  i<20 */\n      lt\n        /* \"contracts/stake_reward_MLM.sol\":12243:12591  for(uint i=0;i<20;i++)... */\n      iszero\n      tag_266\n      jumpi\n        /* \"contracts/stake_reward_MLM.sol\":12348:12349  0 */\n      0x00\n        /* \"contracts/stake_reward_MLM.sol\":12299:12311  DUSDinvestor */\n      0x0d\n        /* \"contracts/stake_reward_MLM.sol\":12299:12323  DUSDinvestor[msg.sender] */\n      0x00\n        /* \"contracts/stake_reward_MLM.sol\":12312:12322  msg.sender */\n      caller\n        /* \"contracts/stake_reward_MLM.sol\":12299:12323  DUSDinvestor[msg.sender] */\n      0xffffffffffffffffffffffffffffffffffffffff\n      and\n      0xffffffffffffffffffffffffffffffffffffffff\n      and\n      dup2\n      mstore\n      0x20\n      add\n      swap1\n      dup2\n      mstore\n      0x20\n      add\n      0x00\n      keccak256\n        /* \"contracts/stake_reward_MLM.sol\":12299:12337  DUSDinvestor[msg.sender].referralLevel */\n      0x03\n      add\n        /* \"contracts/stake_reward_MLM.sol\":12299:12340  DUSDinvestor[msg.sender].referralLevel[i] */\n      0x00\n        /* \"contracts/stake_reward_MLM.sol\":12338:12339  i */\n      dup4\n        /* \"contracts/stake_reward_MLM.sol\":12299:12340  DUSDinvestor[msg.sender].referralLevel[i] */\n      dup2\n      mstore\n      0x20\n      add\n      swap1\n      dup2\n      mstore\n      0x20\n      add\n      0x00\n      keccak256\n        /* \"contracts/stake_reward_MLM.sol\":12299:12347  DUSDinvestor[msg.sender].referralLevel[i].reward */\n      0x00\n      add\n      sload\n        /* \"contracts/stake_reward_MLM.sol\":12299:12349  DUSDinvestor[msg.sender].referralLevel[i].reward>0 */\n      gt\n        /* \"contracts/stake_reward_MLM.sol\":12296:12575  if(DUSDinvestor[msg.sender].referralLevel[i].reward>0)... */\n      iszero\n      tag_268\n      jumpi\n        /* \"contracts/stake_reward_MLM.sol\":12416:12428  DUSDinvestor */\n      0x0d\n        /* \"contracts/stake_reward_MLM.sol\":12416:12440  DUSDinvestor[msg.sender] */\n      0x00\n        /* \"contracts/stake_reward_MLM.sol\":12429:12439  msg.sender */\n      caller\n        /* \"contracts/stake_reward_MLM.sol\":12416:12440  DUSDinvestor[msg.sender] */\n      0xffffffffffffffffffffffffffffffffffffffff\n      and\n      0xffffffffffffffffffffffffffffffffffffffff\n      and\n      dup2\n      mstore\n      0x20\n      add\n      swap1\n      dup2\n      mstore\n      0x20\n      add\n      0x00\n      keccak256\n        /* \"contracts/stake_reward_MLM.sol\":12416:12454  DUSDinvestor[msg.sender].referralLevel */\n      0x03\n      add\n        /* \"contracts/stake_reward_MLM.sol\":12416:12457  DUSDinvestor[msg.sender].referralLevel[i] */\n      0x00\n        /* \"contracts/stake_reward_MLM.sol\":12455:12456  i */\n      dup3\n        /* \"contracts/stake_reward_MLM.sol\":12416:12457  DUSDinvestor[msg.sender].referralLevel[i] */\n      dup2\n      mstore\n      0x20\n      add\n      swap1\n      dup2\n      mstore\n      0x20\n      add\n      0x00\n      keccak256\n        /* \"contracts/stake_reward_MLM.sol\":12416:12463  DUSDinvestor[msg.sender].referralLevel[i].count */\n      0x01\n      add\n      sload\n        /* \"contracts/stake_reward_MLM.sol\":12389:12410  referralLevels_reward */\n      dup3\n        /* \"contracts/stake_reward_MLM.sol\":12411:12412  i */\n      dup3\n        /* \"contracts/stake_reward_MLM.sol\":12389:12413  referralLevels_reward[i] */\n      dup2\n      mload\n      dup2\n      lt\n      tag_269\n      jumpi\n      tag_270\n      tag_172\n      jump\t// in\n    tag_270:\n    tag_269:\n      0x20\n      mul\n      0x20\n      add\n      add\n        /* \"contracts/stake_reward_MLM.sol\":12389:12463  referralLevels_reward[i] = DUSDinvestor[msg.sender].referralLevel[i].count */\n      dup2\n      dup2\n      mstore\n      pop\n      pop\n        /* \"contracts/stake_reward_MLM.sol\":12296:12575  if(DUSDinvestor[msg.sender].referralLevel[i].reward>0)... */\n      jump(tag_271)\n    tag_268:\n        /* \"contracts/stake_reward_MLM.sol\":12554:12555  0 */\n      0x00\n        /* \"contracts/stake_reward_MLM.sol\":12527:12548  referralLevels_reward */\n      dup3\n        /* \"contracts/stake_reward_MLM.sol\":12549:12550  i */\n      dup3\n        /* \"contracts/stake_reward_MLM.sol\":12527:12551  referralLevels_reward[i] */\n      dup2\n      mload\n      dup2\n      lt\n      tag_272\n      jumpi\n      tag_273\n      tag_172\n      jump\t// in\n    tag_273:\n    tag_272:\n      0x20\n      mul\n      0x20\n      add\n      add\n        /* \"contracts/stake_reward_MLM.sol\":12527:12555  referralLevels_reward[i] = 0 */\n      dup2\n      dup2\n      mstore\n      pop\n      pop\n        /* \"contracts/stake_reward_MLM.sol\":12296:12575  if(DUSDinvestor[msg.sender].referralLevel[i].reward>0)... */\n    tag_271:\n        /* \"contracts/stake_reward_MLM.sol\":12261:12264  i++ */\n      dup1\n      dup1\n      tag_274\n      swap1\n      tag_137\n      jump\t// in\n    tag_274:\n      swap2\n      pop\n      pop\n        /* \"contracts/stake_reward_MLM.sol\":12243:12591  for(uint i=0;i<20;i++)... */\n      jump(tag_265)\n    tag_266:\n      pop\n        /* \"contracts/stake_reward_MLM.sol\":12611:12632  referralLevels_reward */\n      dup1\n        /* \"contracts/stake_reward_MLM.sol\":12604:12632  return referralLevels_reward */\n      swap2\n      pop\n      pop\n        /* \"contracts/stake_reward_MLM.sol\":12085:12646  function referralLevel_count() public view returns( uint[] memory arr )... */\n      swap1\n      jump\t// out\n        /* \"contracts/stake_reward_MLM.sol\":728:771  uint public rewardToken=5000000000000000000 */\n    tag_121:\n      sload(0x06)\n      dup2\n      jump\t// out\n        /* \"contracts/stake_reward_MLM.sol\":862:898  uint public max_Stake_amount=5000000 */\n    tag_124:\n      sload(0x08)\n      dup2\n      jump\t// out\n        /* \"contracts/stake_reward_MLM.sol\":2024:3753  function sendRewardToDUSDReferrals(address investor,uint _investedAmount)  internal  //this is the freferral function to transfer the reawards to referrals... */\n    tag_150:\n        /* \"contracts/stake_reward_MLM.sol\":2204:2216  address temp */\n      0x00\n        /* \"contracts/stake_reward_MLM.sol\":2219:2227  investor */\n      dup3\n        /* \"contracts/stake_reward_MLM.sol\":2204:2227  address temp = investor */\n      swap1\n      pop\n        /* \"contracts/stake_reward_MLM.sol\":2248:2272  uint[] memory percentage */\n      0x00\n        /* \"contracts/stake_reward_MLM.sol\":2286:2287  5 */\n      0x05\n        /* \"contracts/stake_reward_MLM.sol\":2275:2288  new uint[](5) */\n      0xffffffffffffffff\n      dup2\n      gt\n      iszero\n      tag_276\n      jumpi\n      tag_277\n      tag_161\n      jump\t// in\n    tag_277:\n    tag_276:\n      mload(0x40)\n      swap1\n      dup1\n      dup3\n      mstore\n      dup1\n      0x20\n      mul\n      0x20\n      add\n      dup3\n      add\n      0x40\n      mstore\n      dup1\n      iszero\n      tag_278\n      jumpi\n      dup2\n      0x20\n      add\n      0x20\n      dup3\n      mul\n      dup1\n      calldatasize\n      dup4\n      calldatacopy\n      dup1\n      dup3\n      add\n      swap2\n      pop\n      pop\n      swap1\n      pop\n    tag_278:\n      pop\n        /* \"contracts/stake_reward_MLM.sol\":2248:2288  uint[] memory percentage = new uint[](5) */\n      swap1\n      pop\n        /* \"contracts/stake_reward_MLM.sol\":2318:2319  1 */\n      0x01\n        /* \"contracts/stake_reward_MLM.sol\":2302:2312  percentage */\n      dup2\n        /* \"contracts/stake_reward_MLM.sol\":2313:2314  0 */\n      0x00\n        /* \"contracts/stake_reward_MLM.sol\":2302:2315  percentage[0] */\n      dup2\n      mload\n      dup2\n      lt\n      tag_279\n      jumpi\n      tag_280\n      tag_172\n      jump\t// in\n    tag_280:\n    tag_279:\n      0x20\n      mul\n      0x20\n      add\n      add\n        /* \"contracts/stake_reward_MLM.sol\":2302:2319  percentage[0] = 1 */\n      dup2\n      dup2\n      mstore\n      pop\n      pop\n        /* \"contracts/stake_reward_MLM.sol\":2349:2350  3 */\n      0x03\n        /* \"contracts/stake_reward_MLM.sol\":2333:2343  percentage */\n      dup2\n        /* \"contracts/stake_reward_MLM.sol\":2344:2345  1 */\n      0x01\n        /* \"contracts/stake_reward_MLM.sol\":2333:2346  percentage[1] */\n      dup2\n      mload\n      dup2\n      lt\n      tag_281\n      jumpi\n      tag_282\n      tag_172\n      jump\t// in\n    tag_282:\n    tag_281:\n      0x20\n      mul\n      0x20\n      add\n      add\n        /* \"contracts/stake_reward_MLM.sol\":2333:2350  percentage[1] = 3 */\n      dup2\n      dup2\n      mstore\n      pop\n      pop\n        /* \"contracts/stake_reward_MLM.sol\":2380:2381  2 */\n      0x02\n        /* \"contracts/stake_reward_MLM.sol\":2364:2374  percentage */\n      dup2\n        /* \"contracts/stake_reward_MLM.sol\":2375:2376  2 */\n      0x02\n        /* \"contracts/stake_reward_MLM.sol\":2364:2377  percentage[2] */\n      dup2\n      mload\n      dup2\n      lt\n      tag_283\n      jumpi\n      tag_284\n      tag_172\n      jump\t// in\n    tag_284:\n    tag_283:\n      0x20\n      mul\n      0x20\n      add\n      add\n        /* \"contracts/stake_reward_MLM.sol\":2364:2381  percentage[2] = 2 */\n      dup2\n      dup2\n      mstore\n      pop\n      pop\n        /* \"contracts/stake_reward_MLM.sol\":2411:2412  1 */\n      0x01\n        /* \"contracts/stake_reward_MLM.sol\":2395:2405  percentage */\n      dup2\n        /* \"contracts/stake_reward_MLM.sol\":2406:2407  3 */\n      0x03\n        /* \"contracts/stake_reward_MLM.sol\":2395:2408  percentage[3] */\n      dup2\n      mload\n      dup2\n      lt\n      tag_285\n      jumpi\n      tag_286\n      tag_172\n      jump\t// in\n    tag_286:\n    tag_285:\n      0x20\n      mul\n      0x20\n      add\n      add\n        /* \"contracts/stake_reward_MLM.sol\":2395:2412  percentage[3] = 1 */\n      dup2\n      dup2\n      mstore\n      pop\n      pop\n        /* \"contracts/stake_reward_MLM.sol\":2442:2443  1 */\n      0x01\n        /* \"contracts/stake_reward_MLM.sol\":2426:2436  percentage */\n      dup2\n        /* \"contracts/stake_reward_MLM.sol\":2437:2438  4 */\n      0x04\n        /* \"contracts/stake_reward_MLM.sol\":2426:2439  percentage[4] */\n      dup2\n      mload\n      dup2\n      lt\n      tag_287\n      jumpi\n      tag_288\n      tag_172\n      jump\t// in\n    tag_288:\n    tag_287:\n      0x20\n      mul\n      0x20\n      add\n      add\n        /* \"contracts/stake_reward_MLM.sol\":2426:2443  percentage[4] = 1 */\n      dup2\n      dup2\n      mstore\n      pop\n      pop\n        /* \"contracts/stake_reward_MLM.sol\":2459:2465  uint j */\n      0x00\n        /* \"contracts/stake_reward_MLM.sol\":2486:2492  uint i */\n      dup1\n        /* \"contracts/stake_reward_MLM.sol\":2493:2494  0 */\n      0x00\n        /* \"contracts/stake_reward_MLM.sol\":2486:2494  uint i=0 */\n      swap1\n      pop\n        /* \"contracts/stake_reward_MLM.sol\":2482:3742  for(uint i=0;i<20;i++)... */\n    tag_289:\n        /* \"contracts/stake_reward_MLM.sol\":2497:2499  20 */\n      0x14\n        /* \"contracts/stake_reward_MLM.sol\":2495:2496  i */\n      dup2\n        /* \"contracts/stake_reward_MLM.sol\":2495:2499  i<20 */\n      lt\n        /* \"contracts/stake_reward_MLM.sol\":2482:3742  for(uint i=0;i<20;i++)... */\n      iszero\n      tag_290\n      jumpi\n        /* \"contracts/stake_reward_MLM.sol\":2543:2544  i */\n      dup1\n        /* \"contracts/stake_reward_MLM.sol\":2535:2542  i_value */\n      0x04\n        /* \"contracts/stake_reward_MLM.sol\":2535:2544  i_value=i */\n      dup2\n      swap1\n      sstore\n      pop\n        /* \"contracts/stake_reward_MLM.sol\":2568:2569  0 */\n      0x00\n        /* \"contracts/stake_reward_MLM.sol\":2565:2566  i */\n      dup2\n        /* \"contracts/stake_reward_MLM.sol\":2565:2569  i==0 */\n      eq\n        /* \"contracts/stake_reward_MLM.sol\":2562:2994  if(i==0)... */\n      iszero\n      tag_292\n      jumpi\n        /* \"contracts/stake_reward_MLM.sol\":2611:2612  0 */\n      0x00\n        /* \"contracts/stake_reward_MLM.sol\":2609:2612  j=0 */\n      swap2\n      pop\n        /* \"contracts/stake_reward_MLM.sol\":2562:2994  if(i==0)... */\n      jump(tag_293)\n    tag_292:\n        /* \"contracts/stake_reward_MLM.sol\":2659:2660  1 */\n      0x01\n        /* \"contracts/stake_reward_MLM.sol\":2656:2657  i */\n      dup2\n        /* \"contracts/stake_reward_MLM.sol\":2656:2660  i==1 */\n      eq\n        /* \"contracts/stake_reward_MLM.sol\":2653:2994  if(i==1)... */\n      iszero\n      tag_294\n      jumpi\n        /* \"contracts/stake_reward_MLM.sol\":2702:2703  1 */\n      0x01\n        /* \"contracts/stake_reward_MLM.sol\":2700:2703  j=1 */\n      swap2\n      pop\n        /* \"contracts/stake_reward_MLM.sol\":2653:2994  if(i==1)... */\n      jump(tag_295)\n    tag_294:\n        /* \"contracts/stake_reward_MLM.sol\":2750:2751  2 */\n      0x02\n        /* \"contracts/stake_reward_MLM.sol\":2747:2748  i */\n      dup2\n        /* \"contracts/stake_reward_MLM.sol\":2747:2751  i==2 */\n      eq\n        /* \"contracts/stake_reward_MLM.sol\":2744:2994  if(i==2)... */\n      iszero\n      tag_296\n      jumpi\n        /* \"contracts/stake_reward_MLM.sol\":2793:2794  2 */\n      0x02\n        /* \"contracts/stake_reward_MLM.sol\":2791:2794  j=2 */\n      swap2\n      pop\n        /* \"contracts/stake_reward_MLM.sol\":2744:2994  if(i==2)... */\n      jump(tag_297)\n    tag_296:\n        /* \"contracts/stake_reward_MLM.sol\":2841:2842  2 */\n      0x02\n        /* \"contracts/stake_reward_MLM.sol\":2839:2840  i */\n      dup2\n        /* \"contracts/stake_reward_MLM.sol\":2839:2842  i>2 */\n      gt\n        /* \"contracts/stake_reward_MLM.sol\":2836:2994  if(i>2)... */\n      iszero\n      tag_298\n      jumpi\n        /* \"contracts/stake_reward_MLM.sol\":2884:2885  3 */\n      0x03\n        /* \"contracts/stake_reward_MLM.sol\":2882:2885  j=3 */\n      swap2\n      pop\n        /* \"contracts/stake_reward_MLM.sol\":2836:2994  if(i>2)... */\n      jump(tag_299)\n    tag_298:\n        /* \"contracts/stake_reward_MLM.sol\":2931:2932  7 */\n      0x07\n        /* \"contracts/stake_reward_MLM.sol\":2929:2930  i */\n      dup2\n        /* \"contracts/stake_reward_MLM.sol\":2929:2932  i>7 */\n      gt\n        /* \"contracts/stake_reward_MLM.sol\":2926:2994  if(i>7)... */\n      iszero\n      tag_300\n      jumpi\n        /* \"contracts/stake_reward_MLM.sol\":2974:2975  4 */\n      0x04\n        /* \"contracts/stake_reward_MLM.sol\":2972:2975  j=4 */\n      swap2\n      pop\n        /* \"contracts/stake_reward_MLM.sol\":2926:2994  if(i>7)... */\n    tag_300:\n        /* \"contracts/stake_reward_MLM.sol\":2836:2994  if(i>2)... */\n    tag_299:\n        /* \"contracts/stake_reward_MLM.sol\":2744:2994  if(i==2)... */\n    tag_297:\n        /* \"contracts/stake_reward_MLM.sol\":2653:2994  if(i==1)... */\n    tag_295:\n        /* \"contracts/stake_reward_MLM.sol\":2562:2994  if(i==0)... */\n    tag_293:\n        /* \"contracts/stake_reward_MLM.sol\":3072:3073  0 */\n      0x00\n        /* \"contracts/stake_reward_MLM.sol\":3031:3074  DUSDinvestor[temp].referralFrom!=address(0) */\n      0xffffffffffffffffffffffffffffffffffffffff\n      and\n        /* \"contracts/stake_reward_MLM.sol\":3031:3043  DUSDinvestor */\n      0x0d\n        /* \"contracts/stake_reward_MLM.sol\":3031:3049  DUSDinvestor[temp] */\n      0x00\n        /* \"contracts/stake_reward_MLM.sol\":3044:3048  temp */\n      dup7\n        /* \"contracts/stake_reward_MLM.sol\":3031:3049  DUSDinvestor[temp] */\n      0xffffffffffffffffffffffffffffffffffffffff\n      and\n      0xffffffffffffffffffffffffffffffffffffffff\n      and\n      dup2\n      mstore\n      0x20\n      add\n      swap1\n      dup2\n      mstore\n      0x20\n      add\n      0x00\n      keccak256\n        /* \"contracts/stake_reward_MLM.sol\":3031:3062  DUSDinvestor[temp].referralFrom */\n      0x02\n      add\n      0x00\n      swap1\n      sload\n      swap1\n      0x0100\n      exp\n      swap1\n      div\n      0xffffffffffffffffffffffffffffffffffffffff\n      and\n        /* \"contracts/stake_reward_MLM.sol\":3031:3074  DUSDinvestor[temp].referralFrom!=address(0) */\n      0xffffffffffffffffffffffffffffffffffffffff\n      and\n      eq\n        /* \"contracts/stake_reward_MLM.sol\":3028:3727  if(DUSDinvestor[temp].referralFrom!=address(0))... */\n      tag_301\n      jumpi\n        /* \"contracts/stake_reward_MLM.sol\":3120:3132  DUSDinvestor */\n      0x0d\n        /* \"contracts/stake_reward_MLM.sol\":3120:3138  DUSDinvestor[temp] */\n      0x00\n        /* \"contracts/stake_reward_MLM.sol\":3133:3137  temp */\n      dup6\n        /* \"contracts/stake_reward_MLM.sol\":3120:3138  DUSDinvestor[temp] */\n      0xffffffffffffffffffffffffffffffffffffffff\n      and\n      0xffffffffffffffffffffffffffffffffffffffff\n      and\n      dup2\n      mstore\n      0x20\n      add\n      swap1\n      dup2\n      mstore\n      0x20\n      add\n      0x00\n      keccak256\n        /* \"contracts/stake_reward_MLM.sol\":3120:3151  DUSDinvestor[temp].referralFrom */\n      0x02\n      add\n      0x00\n      swap1\n      sload\n      swap1\n      0x0100\n      exp\n      swap1\n      div\n      0xffffffffffffffffffffffffffffffffffffffff\n      and\n        /* \"contracts/stake_reward_MLM.sol\":3115:3151  temp=DUSDinvestor[temp].referralFrom */\n      swap4\n      pop\n        /* \"contracts/stake_reward_MLM.sol\":3173:3185  uint reward1 */\n      0x00\n        /* \"contracts/stake_reward_MLM.sol\":3234:3237  100 */\n      0x64\n        /* \"contracts/stake_reward_MLM.sol\":3217:3232  _investedAmount */\n      dup7\n        /* \"contracts/stake_reward_MLM.sol\":3204:3213  100000000 */\n      0x05f5e100\n        /* \"contracts/stake_reward_MLM.sol\":3190:3200  percentage */\n      dup7\n        /* \"contracts/stake_reward_MLM.sol\":3201:3202  j */\n      dup7\n        /* \"contracts/stake_reward_MLM.sol\":3190:3203  percentage[j] */\n      dup2\n      mload\n      dup2\n      lt\n      tag_302\n      jumpi\n      tag_303\n      tag_172\n      jump\t// in\n    tag_303:\n    tag_302:\n      0x20\n      mul\n      0x20\n      add\n      add\n      mload\n        /* \"contracts/stake_reward_MLM.sol\":3190:3213  percentage[j]*100000000 */\n      tag_304\n      swap2\n      swap1\n      tag_188\n      jump\t// in\n    tag_304:\n        /* \"contracts/stake_reward_MLM.sol\":3189:3232  (percentage[j]*100000000) * _investedAmount */\n      tag_305\n      swap2\n      swap1\n      tag_188\n      jump\t// in\n    tag_305:\n        /* \"contracts/stake_reward_MLM.sol\":3188:3237  ((percentage[j]*100000000) * _investedAmount)/100 */\n      tag_306\n      swap2\n      swap1\n      tag_185\n      jump\t// in\n    tag_306:\n        /* \"contracts/stake_reward_MLM.sol\":3173:3237  uint reward1 = ((percentage[j]*100000000) * _investedAmount)/100 */\n      swap1\n      pop\n        /* \"contracts/stake_reward_MLM.sol\":3265:3266  0 */\n      0x00\n        /* \"contracts/stake_reward_MLM.sol\":3262:3263  j */\n      dup4\n        /* \"contracts/stake_reward_MLM.sol\":3262:3266  j==0 */\n      eq\n        /* \"contracts/stake_reward_MLM.sol\":3259:3392  if(j==0)... */\n      iszero\n      tag_307\n      jumpi\n        /* \"contracts/stake_reward_MLM.sol\":3332:3333  2 */\n      0x02\n        /* \"contracts/stake_reward_MLM.sol\":3324:3331  reward1 */\n      dup2\n        /* \"contracts/stake_reward_MLM.sol\":3324:3333  reward1/2 */\n      tag_308\n      swap2\n      swap1\n      tag_185\n      jump\t// in\n    tag_308:\n        /* \"contracts/stake_reward_MLM.sol\":3314:3333  reward1 = reward1/2 */\n      swap1\n      pop\n        /* \"contracts/stake_reward_MLM.sol\":3359:3367  div_done */\n      0x03\n      0x00\n        /* \"contracts/stake_reward_MLM.sol\":3359:3369  div_done++ */\n      dup2\n      sload\n      dup1\n      swap3\n      swap2\n      swap1\n      tag_309\n      swap1\n      tag_137\n      jump\t// in\n    tag_309:\n      swap2\n      swap1\n      pop\n      sstore\n      pop\n        /* \"contracts/stake_reward_MLM.sol\":3259:3392  if(j==0)... */\n    tag_307:\n        /* \"contracts/stake_reward_MLM.sol\":3566:3573  reward1 */\n      dup1\n        /* \"contracts/stake_reward_MLM.sol\":3522:3534  DUSDinvestor */\n      0x0d\n        /* \"contracts/stake_reward_MLM.sol\":3522:3540  DUSDinvestor[temp] */\n      0x00\n        /* \"contracts/stake_reward_MLM.sol\":3535:3539  temp */\n      dup8\n        /* \"contracts/stake_reward_MLM.sol\":3522:3540  DUSDinvestor[temp] */\n      0xffffffffffffffffffffffffffffffffffffffff\n      and\n      0xffffffffffffffffffffffffffffffffffffffff\n      and\n      dup2\n      mstore\n      0x20\n      add\n      swap1\n      dup2\n      mstore\n      0x20\n      add\n      0x00\n      keccak256\n        /* \"contracts/stake_reward_MLM.sol\":3522:3554  DUSDinvestor[temp].referralLevel */\n      0x03\n      add\n        /* \"contracts/stake_reward_MLM.sol\":3522:3557  DUSDinvestor[temp].referralLevel[i] */\n      0x00\n        /* \"contracts/stake_reward_MLM.sol\":3555:3556  i */\n      dup5\n        /* \"contracts/stake_reward_MLM.sol\":3522:3557  DUSDinvestor[temp].referralLevel[i] */\n      dup2\n      mstore\n      0x20\n      add\n      swap1\n      dup2\n      mstore\n      0x20\n      add\n      0x00\n      keccak256\n        /* \"contracts/stake_reward_MLM.sol\":3522:3564  DUSDinvestor[temp].referralLevel[i].reward */\n      0x00\n      add\n      0x00\n        /* \"contracts/stake_reward_MLM.sol\":3522:3573  DUSDinvestor[temp].referralLevel[i].reward+=reward1 */\n      dup3\n      dup3\n      sload\n      tag_310\n      swap2\n      swap1\n      tag_140\n      jump\t// in\n    tag_310:\n      swap3\n      pop\n      pop\n      dup2\n      swap1\n      sstore\n      pop\n        /* \"contracts/stake_reward_MLM.sol\":3595:3607  DUSDinvestor */\n      0x0d\n        /* \"contracts/stake_reward_MLM.sol\":3595:3613  DUSDinvestor[temp] */\n      0x00\n        /* \"contracts/stake_reward_MLM.sol\":3608:3612  temp */\n      dup7\n        /* \"contracts/stake_reward_MLM.sol\":3595:3613  DUSDinvestor[temp] */\n      0xffffffffffffffffffffffffffffffffffffffff\n      and\n      0xffffffffffffffffffffffffffffffffffffffff\n      and\n      dup2\n      mstore\n      0x20\n      add\n      swap1\n      dup2\n      mstore\n      0x20\n      add\n      0x00\n      keccak256\n        /* \"contracts/stake_reward_MLM.sol\":3595:3627  DUSDinvestor[temp].referralLevel */\n      0x03\n      add\n        /* \"contracts/stake_reward_MLM.sol\":3595:3630  DUSDinvestor[temp].referralLevel[i] */\n      0x00\n        /* \"contracts/stake_reward_MLM.sol\":3628:3629  i */\n      dup4\n        /* \"contracts/stake_reward_MLM.sol\":3595:3630  DUSDinvestor[temp].referralLevel[i] */\n      dup2\n      mstore\n      0x20\n      add\n      swap1\n      dup2\n      mstore\n      0x20\n      add\n      0x00\n      keccak256\n        /* \"contracts/stake_reward_MLM.sol\":3595:3636  DUSDinvestor[temp].referralLevel[i].count */\n      0x01\n      add\n      0x00\n        /* \"contracts/stake_reward_MLM.sol\":3595:3638  DUSDinvestor[temp].referralLevel[i].count++ */\n      dup2\n      sload\n      dup1\n      swap3\n      swap2\n      swap1\n      tag_311\n      swap1\n      tag_137\n      jump\t// in\n    tag_311:\n      swap2\n      swap1\n      pop\n      sstore\n      pop\n        /* \"contracts/stake_reward_MLM.sol\":3092:3659  {... */\n      pop\n        /* \"contracts/stake_reward_MLM.sol\":3028:3727  if(DUSDinvestor[temp].referralFrom!=address(0))... */\n      jump(tag_312)\n    tag_301:\n        /* \"contracts/stake_reward_MLM.sol\":3703:3708  break */\n      jump(tag_290)\n        /* \"contracts/stake_reward_MLM.sol\":3028:3727  if(DUSDinvestor[temp].referralFrom!=address(0))... */\n    tag_312:\n        /* \"contracts/stake_reward_MLM.sol\":2500:2503  i++ */\n      dup1\n      dup1\n      tag_313\n      swap1\n      tag_137\n      jump\t// in\n    tag_313:\n      swap2\n      pop\n      pop\n        /* \"contracts/stake_reward_MLM.sol\":2482:3742  for(uint i=0;i<20;i++)... */\n      jump(tag_289)\n    tag_290:\n      pop\n        /* \"contracts/stake_reward_MLM.sol\":2188:3753  { ... */\n      pop\n      pop\n      pop\n        /* \"contracts/stake_reward_MLM.sol\":2024:3753  function sendRewardToDUSDReferrals(address investor,uint _investedAmount)  internal  //this is the freferral function to transfer the reawards to referrals... */\n      pop\n      pop\n      jump\t// out\n    tag_165:\n      mload(0x40)\n      dup1\n      0xc0\n      add\n      0x40\n      mstore\n      dup1\n      0x00\n      dup2\n      mstore\n      0x20\n      add\n      0x00\n      dup2\n      mstore\n      0x20\n      add\n      0x00\n      dup2\n      mstore\n      0x20\n      add\n      0x00\n      dup2\n      mstore\n      0x20\n      add\n      0x00\n      dup2\n      mstore\n      0x20\n      add\n      iszero(iszero(0x00))\n      dup2\n      mstore\n      pop\n      swap1\n      jump\t// out\n        /* \"#utility.yul\":7:146   */\n    tag_315:\n        /* \"#utility.yul\":53:58   */\n      0x00\n        /* \"#utility.yul\":91:97   */\n      dup2\n        /* \"#utility.yul\":78:98   */\n      calldataload\n        /* \"#utility.yul\":69:98   */\n      swap1\n      pop\n        /* \"#utility.yul\":107:140   */\n      tag_317\n        /* \"#utility.yul\":134:139   */\n      dup2\n        /* \"#utility.yul\":107:140   */\n      tag_318\n      jump\t// in\n    tag_317:\n        /* \"#utility.yul\":7:146   */\n      swap3\n      swap2\n      pop\n      pop\n      jump\t// out\n        /* \"#utility.yul\":152:289   */\n    tag_319:\n        /* \"#utility.yul\":206:211   */\n      0x00\n        /* \"#utility.yul\":237:243   */\n      dup2\n        /* \"#utility.yul\":231:244   */\n      mload\n        /* \"#utility.yul\":222:244   */\n      swap1\n      pop\n        /* \"#utility.yul\":253:283   */\n      tag_321\n        /* \"#utility.yul\":277:282   */\n      dup2\n        /* \"#utility.yul\":253:283   */\n      tag_322\n      jump\t// in\n    tag_321:\n        /* \"#utility.yul\":152:289   */\n      swap3\n      swap2\n      pop\n      pop\n      jump\t// out\n        /* \"#utility.yul\":295:434   */\n    tag_323:\n        /* \"#utility.yul\":341:346   */\n      0x00\n        /* \"#utility.yul\":379:385   */\n      dup2\n        /* \"#utility.yul\":366:386   */\n      calldataload\n        /* \"#utility.yul\":357:386   */\n      swap1\n      pop\n        /* \"#utility.yul\":395:428   */\n      tag_325\n        /* \"#utility.yul\":422:427   */\n      dup2\n        /* \"#utility.yul\":395:428   */\n      tag_326\n      jump\t// in\n    tag_325:\n        /* \"#utility.yul\":295:434   */\n      swap3\n      swap2\n      pop\n      pop\n      jump\t// out\n        /* \"#utility.yul\":440:769   */\n    tag_107:\n        /* \"#utility.yul\":499:505   */\n      0x00\n        /* \"#utility.yul\":548:550   */\n      0x20\n        /* \"#utility.yul\":536:545   */\n      dup3\n        /* \"#utility.yul\":527:534   */\n      dup5\n        /* \"#utility.yul\":523:546   */\n      sub\n        /* \"#utility.yul\":519:551   */\n      slt\n        /* \"#utility.yul\":516:635   */\n      iszero\n      tag_328\n      jumpi\n        /* \"#utility.yul\":554:633   */\n      tag_329\n      tag_330\n      jump\t// in\n    tag_329:\n        /* \"#utility.yul\":516:635   */\n    tag_328:\n        /* \"#utility.yul\":674:675   */\n      0x00\n        /* \"#utility.yul\":699:752   */\n      tag_331\n        /* \"#utility.yul\":744:751   */\n      dup5\n        /* \"#utility.yul\":735:741   */\n      dup3\n        /* \"#utility.yul\":724:733   */\n      dup6\n        /* \"#utility.yul\":720:742   */\n      add\n        /* \"#utility.yul\":699:752   */\n      tag_315\n      jump\t// in\n    tag_331:\n        /* \"#utility.yul\":689:752   */\n      swap2\n      pop\n        /* \"#utility.yul\":645:762   */\n      pop\n        /* \"#utility.yul\":440:769   */\n      swap3\n      swap2\n      pop\n      pop\n      jump\t// out\n        /* \"#utility.yul\":775:1120   */\n    tag_212:\n        /* \"#utility.yul\":842:848   */\n      0x00\n        /* \"#utility.yul\":891:893   */\n      0x20\n        /* \"#utility.yul\":879:888   */\n      dup3\n        /* \"#utility.yul\":870:877   */\n      dup5\n        /* \"#utility.yul\":866:889   */\n      sub\n        /* \"#utility.yul\":862:894   */\n      slt\n        /* \"#utility.yul\":859:978   */\n      iszero\n      tag_333\n      jumpi\n        /* \"#utility.yul\":897:976   */\n      tag_334\n      tag_330\n      jump\t// in\n    tag_334:\n        /* \"#utility.yul\":859:978   */\n    tag_333:\n        /* \"#utility.yul\":1017:1018   */\n      0x00\n        /* \"#utility.yul\":1042:1103   */\n      tag_335\n        /* \"#utility.yul\":1095:1102   */\n      dup5\n        /* \"#utility.yul\":1086:1092   */\n      dup3\n        /* \"#utility.yul\":1075:1084   */\n      dup6\n        /* \"#utility.yul\":1071:1093   */\n      add\n        /* \"#utility.yul\":1042:1103   */\n      tag_319\n      jump\t// in\n    tag_335:\n        /* \"#utility.yul\":1032:1103   */\n      swap2\n      pop\n        /* \"#utility.yul\":988:1113   */\n      pop\n        /* \"#utility.yul\":775:1120   */\n      swap3\n      swap2\n      pop\n      pop\n      jump\t// out\n        /* \"#utility.yul\":1126:1455   */\n    tag_53:\n        /* \"#utility.yul\":1185:1191   */\n      0x00\n        /* \"#utility.yul\":1234:1236   */\n      0x20\n        /* \"#utility.yul\":1222:1231   */\n      dup3\n        /* \"#utility.yul\":1213:1220   */\n      dup5\n        /* \"#utility.yul\":1209:1232   */\n      sub\n        /* \"#utility.yul\":1205:1237   */\n      slt\n        /* \"#utility.yul\":1202:1321   */\n      iszero\n      tag_337\n      jumpi\n        /* \"#utility.yul\":1240:1319   */\n      tag_338\n      tag_330\n      jump\t// in\n    tag_338:\n        /* \"#utility.yul\":1202:1321   */\n    tag_337:\n        /* \"#utility.yul\":1360:1361   */\n      0x00\n        /* \"#utility.yul\":1385:1438   */\n      tag_339\n        /* \"#utility.yul\":1430:1437   */\n      dup5\n        /* \"#utility.yul\":1421:1427   */\n      dup3\n        /* \"#utility.yul\":1410:1419   */\n      dup6\n        /* \"#utility.yul\":1406:1428   */\n      add\n        /* \"#utility.yul\":1385:1438   */\n      tag_323\n      jump\t// in\n    tag_339:\n        /* \"#utility.yul\":1375:1438   */\n      swap2\n      pop\n        /* \"#utility.yul\":1331:1448   */\n      pop\n        /* \"#utility.yul\":1126:1455   */\n      swap3\n      swap2\n      pop\n      pop\n      jump\t// out\n        /* \"#utility.yul\":1461:1935   */\n    tag_47:\n        /* \"#utility.yul\":1529:1535   */\n      0x00\n        /* \"#utility.yul\":1537:1543   */\n      dup1\n        /* \"#utility.yul\":1586:1588   */\n      0x40\n        /* \"#utility.yul\":1574:1583   */\n      dup4\n        /* \"#utility.yul\":1565:1572   */\n      dup6\n        /* \"#utility.yul\":1561:1584   */\n      sub\n        /* \"#utility.yul\":1557:1589   */\n      slt\n        /* \"#utility.yul\":1554:1673   */\n      iszero\n      tag_341\n      jumpi\n        /* \"#utility.yul\":1592:1671   */\n      tag_342\n      tag_330\n      jump\t// in\n    tag_342:\n        /* \"#utility.yul\":1554:1673   */\n    tag_341:\n        /* \"#utility.yul\":1712:1713   */\n      0x00\n        /* \"#utility.yul\":1737:1790   */\n      tag_343\n        /* \"#utility.yul\":1782:1789   */\n      dup6\n        /* \"#utility.yul\":1773:1779   */\n      dup3\n        /* \"#utility.yul\":1762:1771   */\n      dup7\n        /* \"#utility.yul\":1758:1780   */\n      add\n        /* \"#utility.yul\":1737:1790   */\n      tag_323\n      jump\t// in\n    tag_343:\n        /* \"#utility.yul\":1727:1790   */\n      swap3\n      pop\n        /* \"#utility.yul\":1683:1800   */\n      pop\n        /* \"#utility.yul\":1839:1841   */\n      0x20\n        /* \"#utility.yul\":1865:1918   */\n      tag_344\n        /* \"#utility.yul\":1910:1917   */\n      dup6\n        /* \"#utility.yul\":1901:1907   */\n      dup3\n        /* \"#utility.yul\":1890:1899   */\n      dup7\n        /* \"#utility.yul\":1886:1908   */\n      add\n        /* \"#utility.yul\":1865:1918   */\n      tag_315\n      jump\t// in\n    tag_344:\n        /* \"#utility.yul\":1855:1918   */\n      swap2\n      pop\n        /* \"#utility.yul\":1810:1928   */\n      pop\n        /* \"#utility.yul\":1461:1935   */\n      swap3\n      pop\n      swap3\n      swap1\n      pop\n      jump\t// out\n        /* \"#utility.yul\":1941:2415   */\n    tag_90:\n        /* \"#utility.yul\":2009:2015   */\n      0x00\n        /* \"#utility.yul\":2017:2023   */\n      dup1\n        /* \"#utility.yul\":2066:2068   */\n      0x40\n        /* \"#utility.yul\":2054:2063   */\n      dup4\n        /* \"#utility.yul\":2045:2052   */\n      dup6\n        /* \"#utility.yul\":2041:2064   */\n      sub\n        /* \"#utility.yul\":2037:2069   */\n      slt\n        /* \"#utility.yul\":2034:2153   */\n      iszero\n      tag_346\n      jumpi\n        /* \"#utility.yul\":2072:2151   */\n      tag_347\n      tag_330\n      jump\t// in\n    tag_347:\n        /* \"#utility.yul\":2034:2153   */\n    tag_346:\n        /* \"#utility.yul\":2192:2193   */\n      0x00\n        /* \"#utility.yul\":2217:2270   */\n      tag_348\n        /* \"#utility.yul\":2262:2269   */\n      dup6\n        /* \"#utility.yul\":2253:2259   */\n      dup3\n        /* \"#utility.yul\":2242:2251   */\n      dup7\n        /* \"#utility.yul\":2238:2260   */\n      add\n        /* \"#utility.yul\":2217:2270   */\n      tag_323\n      jump\t// in\n    tag_348:\n        /* \"#utility.yul\":2207:2270   */\n      swap3\n      pop\n        /* \"#utility.yul\":2163:2280   */\n      pop\n        /* \"#utility.yul\":2319:2321   */\n      0x20\n        /* \"#utility.yul\":2345:2398   */\n      tag_349\n        /* \"#utility.yul\":2390:2397   */\n      dup6\n        /* \"#utility.yul\":2381:2387   */\n      dup3\n        /* \"#utility.yul\":2370:2379   */\n      dup7\n        /* \"#utility.yul\":2366:2388   */\n      add\n        /* \"#utility.yul\":2345:2398   */\n      tag_323\n      jump\t// in\n    tag_349:\n        /* \"#utility.yul\":2335:2398   */\n      swap2\n      pop\n        /* \"#utility.yul\":2290:2408   */\n      pop\n        /* \"#utility.yul\":1941:2415   */\n      swap3\n      pop\n      swap3\n      swap1\n      pop\n      jump\t// out\n        /* \"#utility.yul\":2421:3186   */\n    tag_64:\n        /* \"#utility.yul\":2507:2513   */\n      0x00\n        /* \"#utility.yul\":2515:2521   */\n      dup1\n        /* \"#utility.yul\":2523:2529   */\n      0x00\n        /* \"#utility.yul\":2531:2537   */\n      dup1\n        /* \"#utility.yul\":2580:2583   */\n      0x80\n        /* \"#utility.yul\":2568:2577   */\n      dup6\n        /* \"#utility.yul\":2559:2566   */\n      dup8\n        /* \"#utility.yul\":2555:2578   */\n      sub\n        /* \"#utility.yul\":2551:2584   */\n      slt\n        /* \"#utility.yul\":2548:2668   */\n      iszero\n      tag_351\n      jumpi\n        /* \"#utility.yul\":2587:2666   */\n      tag_352\n      tag_330\n      jump\t// in\n    tag_352:\n        /* \"#utility.yul\":2548:2668   */\n    tag_351:\n        /* \"#utility.yul\":2707:2708   */\n      0x00\n        /* \"#utility.yul\":2732:2785   */\n      tag_353\n        /* \"#utility.yul\":2777:2784   */\n      dup8\n        /* \"#utility.yul\":2768:2774   */\n      dup3\n        /* \"#utility.yul\":2757:2766   */\n      dup9\n        /* \"#utility.yul\":2753:2775   */\n      add\n        /* \"#utility.yul\":2732:2785   */\n      tag_323\n      jump\t// in\n    tag_353:\n        /* \"#utility.yul\":2722:2785   */\n      swap5\n      pop\n        /* \"#utility.yul\":2678:2795   */\n      pop\n        /* \"#utility.yul\":2834:2836   */\n      0x20\n        /* \"#utility.yul\":2860:2913   */\n      tag_354\n        /* \"#utility.yul\":2905:2912   */\n      dup8\n        /* \"#utility.yul\":2896:2902   */\n      dup3\n        /* \"#utility.yul\":2885:2894   */\n      dup9\n        /* \"#utility.yul\":2881:2903   */\n      add\n        /* \"#utility.yul\":2860:2913   */\n      tag_323\n      jump\t// in\n    tag_354:\n        /* \"#utility.yul\":2850:2913   */\n      swap4\n      pop\n        /* \"#utility.yul\":2805:2923   */\n      pop\n        /* \"#utility.yul\":2962:2964   */\n      0x40\n        /* \"#utility.yul\":2988:3041   */\n      tag_355\n        /* \"#utility.yul\":3033:3040   */\n      dup8\n        /* \"#utility.yul\":3024:3030   */\n      dup3\n        /* \"#utility.yul\":3013:3022   */\n      dup9\n        /* \"#utility.yul\":3009:3031   */\n      add\n        /* \"#utility.yul\":2988:3041   */\n      tag_323\n      jump\t// in\n    tag_355:\n        /* \"#utility.yul\":2978:3041   */\n      swap3\n      pop\n        /* \"#utility.yul\":2933:3051   */\n      pop\n        /* \"#utility.yul\":3090:3092   */\n      0x60\n        /* \"#utility.yul\":3116:3169   */\n      tag_356\n        /* \"#utility.yul\":3161:3168   */\n      dup8\n        /* \"#utility.yul\":3152:3158   */\n      dup3\n        /* \"#utility.yul\":3141:3150   */\n      dup9\n        /* \"#utility.yul\":3137:3159   */\n      add\n        /* \"#utility.yul\":3116:3169   */\n      tag_323\n      jump\t// in\n    tag_356:\n        /* \"#utility.yul\":3106:3169   */\n      swap2\n      pop\n        /* \"#utility.yul\":3061:3179   */\n      pop\n        /* \"#utility.yul\":2421:3186   */\n      swap3\n      swap6\n      swap2\n      swap5\n      pop\n      swap3\n      pop\n      jump\t// out\n        /* \"#utility.yul\":3192:3371   */\n    tag_357:\n        /* \"#utility.yul\":3261:3271   */\n      0x00\n        /* \"#utility.yul\":3282:3328   */\n      tag_359\n        /* \"#utility.yul\":3324:3327   */\n      dup4\n        /* \"#utility.yul\":3316:3322   */\n      dup4\n        /* \"#utility.yul\":3282:3328   */\n      tag_360\n      jump\t// in\n    tag_359:\n        /* \"#utility.yul\":3360:3364   */\n      0x20\n        /* \"#utility.yul\":3355:3358   */\n      dup4\n        /* \"#utility.yul\":3351:3365   */\n      add\n        /* \"#utility.yul\":3337:3365   */\n      swap1\n      pop\n        /* \"#utility.yul\":3192:3371   */\n      swap3\n      swap2\n      pop\n      pop\n      jump\t// out\n        /* \"#utility.yul\":3377:3676   */\n    tag_361:\n        /* \"#utility.yul\":3506:3516   */\n      0x00\n        /* \"#utility.yul\":3527:3633   */\n      tag_363\n        /* \"#utility.yul\":3629:3632   */\n      dup4\n        /* \"#utility.yul\":3621:3627   */\n      dup4\n        /* \"#utility.yul\":3527:3633   */\n      tag_364\n      jump\t// in\n    tag_363:\n        /* \"#utility.yul\":3665:3669   */\n      0xc0\n        /* \"#utility.yul\":3660:3663   */\n      dup4\n        /* \"#utility.yul\":3656:3670   */\n      add\n        /* \"#utility.yul\":3642:3670   */\n      swap1\n      pop\n        /* \"#utility.yul\":3377:3676   */\n      swap3\n      swap2\n      pop\n      pop\n      jump\t// out\n        /* \"#utility.yul\":3682:3861   */\n    tag_365:\n        /* \"#utility.yul\":3751:3761   */\n      0x00\n        /* \"#utility.yul\":3772:3818   */\n      tag_367\n        /* \"#utility.yul\":3814:3817   */\n      dup4\n        /* \"#utility.yul\":3806:3812   */\n      dup4\n        /* \"#utility.yul\":3772:3818   */\n      tag_368\n      jump\t// in\n    tag_367:\n        /* \"#utility.yul\":3850:3854   */\n      0x20\n        /* \"#utility.yul\":3845:3848   */\n      dup4\n        /* \"#utility.yul\":3841:3855   */\n      add\n        /* \"#utility.yul\":3827:3855   */\n      swap1\n      pop\n        /* \"#utility.yul\":3682:3861   */\n      swap3\n      swap2\n      pop\n      pop\n      jump\t// out\n        /* \"#utility.yul\":3867:3975   */\n    tag_360:\n        /* \"#utility.yul\":3944:3968   */\n      tag_370\n        /* \"#utility.yul\":3962:3967   */\n      dup2\n        /* \"#utility.yul\":3944:3968   */\n      tag_371\n      jump\t// in\n    tag_370:\n        /* \"#utility.yul\":3939:3942   */\n      dup3\n        /* \"#utility.yul\":3932:3969   */\n      mstore\n        /* \"#utility.yul\":3867:3975   */\n      pop\n      pop\n      jump\t// out\n        /* \"#utility.yul\":3981:4099   */\n    tag_372:\n        /* \"#utility.yul\":4068:4092   */\n      tag_374\n        /* \"#utility.yul\":4086:4091   */\n      dup2\n        /* \"#utility.yul\":4068:4092   */\n      tag_371\n      jump\t// in\n    tag_374:\n        /* \"#utility.yul\":4063:4066   */\n      dup3\n        /* \"#utility.yul\":4056:4093   */\n      mstore\n        /* \"#utility.yul\":3981:4099   */\n      pop\n      pop\n      jump\t// out\n        /* \"#utility.yul\":4135:4867   */\n    tag_375:\n        /* \"#utility.yul\":4254:4257   */\n      0x00\n        /* \"#utility.yul\":4283:4337   */\n      tag_377\n        /* \"#utility.yul\":4331:4336   */\n      dup3\n        /* \"#utility.yul\":4283:4337   */\n      tag_378\n      jump\t// in\n    tag_377:\n        /* \"#utility.yul\":4353:4439   */\n      tag_379\n        /* \"#utility.yul\":4432:4438   */\n      dup2\n        /* \"#utility.yul\":4427:4430   */\n      dup6\n        /* \"#utility.yul\":4353:4439   */\n      tag_380\n      jump\t// in\n    tag_379:\n        /* \"#utility.yul\":4346:4439   */\n      swap4\n      pop\n        /* \"#utility.yul\":4463:4519   */\n      tag_381\n        /* \"#utility.yul\":4513:4518   */\n      dup4\n        /* \"#utility.yul\":4463:4519   */\n      tag_382\n      jump\t// in\n    tag_381:\n        /* \"#utility.yul\":4542:4549   */\n      dup1\n        /* \"#utility.yul\":4573:4574   */\n      0x00\n        /* \"#utility.yul\":4558:4842   */\n    tag_383:\n        /* \"#utility.yul\":4583:4589   */\n      dup4\n        /* \"#utility.yul\":4580:4581   */\n      dup2\n        /* \"#utility.yul\":4577:4590   */\n      lt\n        /* \"#utility.yul\":4558:4842   */\n      iszero\n      tag_385\n      jumpi\n        /* \"#utility.yul\":4659:4665   */\n      dup2\n        /* \"#utility.yul\":4653:4666   */\n      mload\n        /* \"#utility.yul\":4686:4749   */\n      tag_386\n        /* \"#utility.yul\":4745:4748   */\n      dup9\n        /* \"#utility.yul\":4730:4743   */\n      dup3\n        /* \"#utility.yul\":4686:4749   */\n      tag_357\n      jump\t// in\n    tag_386:\n        /* \"#utility.yul\":4679:4749   */\n      swap8\n      pop\n        /* \"#utility.yul\":4772:4832   */\n      tag_387\n        /* \"#utility.yul\":4825:4831   */\n      dup4\n        /* \"#utility.yul\":4772:4832   */\n      tag_388\n      jump\t// in\n    tag_387:\n        /* \"#utility.yul\":4762:4832   */\n      swap3\n      pop\n        /* \"#utility.yul\":4618:4842   */\n      pop\n        /* \"#utility.yul\":4605:4606   */\n      0x01\n        /* \"#utility.yul\":4602:4603   */\n      dup2\n        /* \"#utility.yul\":4598:4607   */\n      add\n        /* \"#utility.yul\":4593:4607   */\n      swap1\n      pop\n        /* \"#utility.yul\":4558:4842   */\n      jump(tag_383)\n    tag_385:\n        /* \"#utility.yul\":4562:4576   */\n      pop\n        /* \"#utility.yul\":4858:4861   */\n      dup6\n        /* \"#utility.yul\":4851:4861   */\n      swap4\n      pop\n        /* \"#utility.yul\":4259:4867   */\n      pop\n      pop\n      pop\n        /* \"#utility.yul\":4135:4867   */\n      swap3\n      swap2\n      pop\n      pop\n      jump\t// out\n        /* \"#utility.yul\":4945:5917   */\n    tag_389:\n        /* \"#utility.yul\":5124:5127   */\n      0x00\n        /* \"#utility.yul\":5153:5237   */\n      tag_391\n        /* \"#utility.yul\":5231:5236   */\n      dup3\n        /* \"#utility.yul\":5153:5237   */\n      tag_392\n      jump\t// in\n    tag_391:\n        /* \"#utility.yul\":5253:5369   */\n      tag_393\n        /* \"#utility.yul\":5362:5368   */\n      dup2\n        /* \"#utility.yul\":5357:5360   */\n      dup6\n        /* \"#utility.yul\":5253:5369   */\n      tag_394\n      jump\t// in\n    tag_393:\n        /* \"#utility.yul\":5246:5369   */\n      swap4\n      pop\n        /* \"#utility.yul\":5393:5479   */\n      tag_395\n        /* \"#utility.yul\":5473:5478   */\n      dup4\n        /* \"#utility.yul\":5393:5479   */\n      tag_396\n      jump\t// in\n    tag_395:\n        /* \"#utility.yul\":5502:5509   */\n      dup1\n        /* \"#utility.yul\":5533:5534   */\n      0x00\n        /* \"#utility.yul\":5518:5892   */\n    tag_397:\n        /* \"#utility.yul\":5543:5549   */\n      dup4\n        /* \"#utility.yul\":5540:5541   */\n      dup2\n        /* \"#utility.yul\":5537:5550   */\n      lt\n        /* \"#utility.yul\":5518:5892   */\n      iszero\n      tag_399\n      jumpi\n        /* \"#utility.yul\":5619:5625   */\n      dup2\n        /* \"#utility.yul\":5613:5626   */\n      mload\n        /* \"#utility.yul\":5646:5769   */\n      tag_400\n        /* \"#utility.yul\":5765:5768   */\n      dup9\n        /* \"#utility.yul\":5750:5763   */\n      dup3\n        /* \"#utility.yul\":5646:5769   */\n      tag_361\n      jump\t// in\n    tag_400:\n        /* \"#utility.yul\":5639:5769   */\n      swap8\n      pop\n        /* \"#utility.yul\":5792:5882   */\n      tag_401\n        /* \"#utility.yul\":5875:5881   */\n      dup4\n        /* \"#utility.yul\":5792:5882   */\n      tag_402\n      jump\t// in\n    tag_401:\n        /* \"#utility.yul\":5782:5882   */\n      swap3\n      pop\n        /* \"#utility.yul\":5578:5892   */\n      pop\n        /* \"#utility.yul\":5565:5566   */\n      0x01\n        /* \"#utility.yul\":5562:5563   */\n      dup2\n        /* \"#utility.yul\":5558:5567   */\n      add\n        /* \"#utility.yul\":5553:5567   */\n      swap1\n      pop\n        /* \"#utility.yul\":5518:5892   */\n      jump(tag_397)\n    tag_399:\n        /* \"#utility.yul\":5522:5536   */\n      pop\n        /* \"#utility.yul\":5908:5911   */\n      dup6\n        /* \"#utility.yul\":5901:5911   */\n      swap4\n      pop\n        /* \"#utility.yul\":5129:5917   */\n      pop\n      pop\n      pop\n        /* \"#utility.yul\":4945:5917   */\n      swap3\n      swap2\n      pop\n      pop\n      jump\t// out\n        /* \"#utility.yul\":5953:6685   */\n    tag_403:\n        /* \"#utility.yul\":6072:6075   */\n      0x00\n        /* \"#utility.yul\":6101:6155   */\n      tag_405\n        /* \"#utility.yul\":6149:6154   */\n      dup3\n        /* \"#utility.yul\":6101:6155   */\n      tag_406\n      jump\t// in\n    tag_405:\n        /* \"#utility.yul\":6171:6257   */\n      tag_407\n        /* \"#utility.yul\":6250:6256   */\n      dup2\n        /* \"#utility.yul\":6245:6248   */\n      dup6\n        /* \"#utility.yul\":6171:6257   */\n      tag_408\n      jump\t// in\n    tag_407:\n        /* \"#utility.yul\":6164:6257   */\n      swap4\n      pop\n        /* \"#utility.yul\":6281:6337   */\n      tag_409\n        /* \"#utility.yul\":6331:6336   */\n      dup4\n        /* \"#utility.yul\":6281:6337   */\n      tag_410\n      jump\t// in\n    tag_409:\n        /* \"#utility.yul\":6360:6367   */\n      dup1\n        /* \"#utility.yul\":6391:6392   */\n      0x00\n        /* \"#utility.yul\":6376:6660   */\n    tag_411:\n        /* \"#utility.yul\":6401:6407   */\n      dup4\n        /* \"#utility.yul\":6398:6399   */\n      dup2\n        /* \"#utility.yul\":6395:6408   */\n      lt\n        /* \"#utility.yul\":6376:6660   */\n      iszero\n      tag_413\n      jumpi\n        /* \"#utility.yul\":6477:6483   */\n      dup2\n        /* \"#utility.yul\":6471:6484   */\n      mload\n        /* \"#utility.yul\":6504:6567   */\n      tag_414\n        /* \"#utility.yul\":6563:6566   */\n      dup9\n        /* \"#utility.yul\":6548:6561   */\n      dup3\n        /* \"#utility.yul\":6504:6567   */\n      tag_365\n      jump\t// in\n    tag_414:\n        /* \"#utility.yul\":6497:6567   */\n      swap8\n      pop\n        /* \"#utility.yul\":6590:6650   */\n      tag_415\n        /* \"#utility.yul\":6643:6649   */\n      dup4\n        /* \"#utility.yul\":6590:6650   */\n      tag_416\n      jump\t// in\n    tag_415:\n        /* \"#utility.yul\":6580:6650   */\n      swap3\n      pop\n        /* \"#utility.yul\":6436:6660   */\n      pop\n        /* \"#utility.yul\":6423:6424   */\n      0x01\n        /* \"#utility.yul\":6420:6421   */\n      dup2\n        /* \"#utility.yul\":6416:6425   */\n      add\n        /* \"#utility.yul\":6411:6425   */\n      swap1\n      pop\n        /* \"#utility.yul\":6376:6660   */\n      jump(tag_411)\n    tag_413:\n        /* \"#utility.yul\":6380:6394   */\n      pop\n        /* \"#utility.yul\":6676:6679   */\n      dup6\n        /* \"#utility.yul\":6669:6679   */\n      swap4\n      pop\n        /* \"#utility.yul\":6077:6685   */\n      pop\n      pop\n      pop\n        /* \"#utility.yul\":5953:6685   */\n      swap3\n      swap2\n      pop\n      pop\n      jump\t// out\n        /* \"#utility.yul\":6691:6790   */\n    tag_417:\n        /* \"#utility.yul\":6762:6783   */\n      tag_419\n        /* \"#utility.yul\":6777:6782   */\n      dup2\n        /* \"#utility.yul\":6762:6783   */\n      tag_420\n      jump\t// in\n    tag_419:\n        /* \"#utility.yul\":6757:6760   */\n      dup3\n        /* \"#utility.yul\":6750:6784   */\n      mstore\n        /* \"#utility.yul\":6691:6790   */\n      pop\n      pop\n      jump\t// out\n        /* \"#utility.yul\":6796:6905   */\n    tag_421:\n        /* \"#utility.yul\":6877:6898   */\n      tag_423\n        /* \"#utility.yul\":6892:6897   */\n      dup2\n        /* \"#utility.yul\":6877:6898   */\n      tag_420\n      jump\t// in\n    tag_423:\n        /* \"#utility.yul\":6872:6875   */\n      dup3\n        /* \"#utility.yul\":6865:6899   */\n      mstore\n        /* \"#utility.yul\":6796:6905   */\n      pop\n      pop\n      jump\t// out\n        /* \"#utility.yul\":6911:7277   */\n    tag_424:\n        /* \"#utility.yul\":7053:7056   */\n      0x00\n        /* \"#utility.yul\":7074:7141   */\n      tag_426\n        /* \"#utility.yul\":7138:7140   */\n      0x25\n        /* \"#utility.yul\":7133:7136   */\n      dup4\n        /* \"#utility.yul\":7074:7141   */\n      tag_427\n      jump\t// in\n    tag_426:\n        /* \"#utility.yul\":7067:7141   */\n      swap2\n      pop\n        /* \"#utility.yul\":7150:7243   */\n      tag_428\n        /* \"#utility.yul\":7239:7242   */\n      dup3\n        /* \"#utility.yul\":7150:7243   */\n      tag_429\n      jump\t// in\n    tag_428:\n        /* \"#utility.yul\":7268:7270   */\n      0x40\n        /* \"#utility.yul\":7263:7266   */\n      dup3\n        /* \"#utility.yul\":7259:7271   */\n      add\n        /* \"#utility.yul\":7252:7271   */\n      swap1\n      pop\n        /* \"#utility.yul\":6911:7277   */\n      swap2\n      swap1\n      pop\n      jump\t// out\n        /* \"#utility.yul\":7283:7649   */\n    tag_430:\n        /* \"#utility.yul\":7425:7428   */\n      0x00\n        /* \"#utility.yul\":7446:7513   */\n      tag_432\n        /* \"#utility.yul\":7510:7512   */\n      0x35\n        /* \"#utility.yul\":7505:7508   */\n      dup4\n        /* \"#utility.yul\":7446:7513   */\n      tag_427\n      jump\t// in\n    tag_432:\n        /* \"#utility.yul\":7439:7513   */\n      swap2\n      pop\n        /* \"#utility.yul\":7522:7615   */\n      tag_433\n        /* \"#utility.yul\":7611:7614   */\n      dup3\n        /* \"#utility.yul\":7522:7615   */\n      tag_434\n      jump\t// in\n    tag_433:\n        /* \"#utility.yul\":7640:7642   */\n      0x40\n        /* \"#utility.yul\":7635:7638   */\n      dup3\n        /* \"#utility.yul\":7631:7643   */\n      add\n        /* \"#utility.yul\":7624:7643   */\n      swap1\n      pop\n        /* \"#utility.yul\":7283:7649   */\n      swap2\n      swap1\n      pop\n      jump\t// out\n        /* \"#utility.yul\":7655:8021   */\n    tag_435:\n        /* \"#utility.yul\":7797:7800   */\n      0x00\n        /* \"#utility.yul\":7818:7885   */\n      tag_437\n        /* \"#utility.yul\":7882:7884   */\n      0x22\n        /* \"#utility.yul\":7877:7880   */\n      dup4\n        /* \"#utility.yul\":7818:7885   */\n      tag_427\n      jump\t// in\n    tag_437:\n        /* \"#utility.yul\":7811:7885   */\n      swap2\n      pop\n        /* \"#utility.yul\":7894:7987   */\n      tag_438\n        /* \"#utility.yul\":7983:7986   */\n      dup3\n        /* \"#utility.yul\":7894:7987   */\n      tag_439\n      jump\t// in\n    tag_438:\n        /* \"#utility.yul\":8012:8014   */\n      0x40\n        /* \"#utility.yul\":8007:8010   */\n      dup3\n        /* \"#utility.yul\":8003:8015   */\n      add\n        /* \"#utility.yul\":7996:8015   */\n      swap1\n      pop\n        /* \"#utility.yul\":7655:8021   */\n      swap2\n      swap1\n      pop\n      jump\t// out\n        /* \"#utility.yul\":8027:8393   */\n    tag_440:\n        /* \"#utility.yul\":8169:8172   */\n      0x00\n        /* \"#utility.yul\":8190:8257   */\n      tag_442\n        /* \"#utility.yul\":8254:8256   */\n      0x21\n        /* \"#utility.yul\":8249:8252   */\n      dup4\n        /* \"#utility.yul\":8190:8257   */\n      tag_427\n      jump\t// in\n    tag_442:\n        /* \"#utility.yul\":8183:8257   */\n      swap2\n      pop\n        /* \"#utility.yul\":8266:8359   */\n      tag_443\n        /* \"#utility.yul\":8355:8358   */\n      dup3\n        /* \"#utility.yul\":8266:8359   */\n      tag_444\n      jump\t// in\n    tag_443:\n        /* \"#utility.yul\":8384:8386   */\n      0x40\n        /* \"#utility.yul\":8379:8382   */\n      dup3\n        /* \"#utility.yul\":8375:8387   */\n      add\n        /* \"#utility.yul\":8368:8387   */\n      swap1\n      pop\n        /* \"#utility.yul\":8027:8393   */\n      swap2\n      swap1\n      pop\n      jump\t// out\n        /* \"#utility.yul\":8467:9709   */\n    tag_364:\n        /* \"#utility.yul\":8614:8618   */\n      0xc0\n        /* \"#utility.yul\":8609:8612   */\n      dup3\n        /* \"#utility.yul\":8605:8619   */\n      add\n        /* \"#utility.yul\":8711:8715   */\n      0x00\n        /* \"#utility.yul\":8704:8709   */\n      dup3\n        /* \"#utility.yul\":8700:8716   */\n      add\n        /* \"#utility.yul\":8694:8717   */\n      mload\n        /* \"#utility.yul\":8730:8793   */\n      tag_446\n        /* \"#utility.yul\":8787:8791   */\n      0x00\n        /* \"#utility.yul\":8782:8785   */\n      dup6\n        /* \"#utility.yul\":8778:8792   */\n      add\n        /* \"#utility.yul\":8764:8776   */\n      dup3\n        /* \"#utility.yul\":8730:8793   */\n      tag_368\n      jump\t// in\n    tag_446:\n        /* \"#utility.yul\":8629:8803   */\n      pop\n        /* \"#utility.yul\":8894:8898   */\n      0x20\n        /* \"#utility.yul\":8887:8892   */\n      dup3\n        /* \"#utility.yul\":8883:8899   */\n      add\n        /* \"#utility.yul\":8877:8900   */\n      mload\n        /* \"#utility.yul\":8913:8976   */\n      tag_447\n        /* \"#utility.yul\":8970:8974   */\n      0x20\n        /* \"#utility.yul\":8965:8968   */\n      dup6\n        /* \"#utility.yul\":8961:8975   */\n      add\n        /* \"#utility.yul\":8947:8959   */\n      dup3\n        /* \"#utility.yul\":8913:8976   */\n      tag_368\n      jump\t// in\n    tag_447:\n        /* \"#utility.yul\":8813:8986   */\n      pop\n        /* \"#utility.yul\":9075:9079   */\n      0x40\n        /* \"#utility.yul\":9068:9073   */\n      dup3\n        /* \"#utility.yul\":9064:9080   */\n      add\n        /* \"#utility.yul\":9058:9081   */\n      mload\n        /* \"#utility.yul\":9094:9157   */\n      tag_448\n        /* \"#utility.yul\":9151:9155   */\n      0x40\n        /* \"#utility.yul\":9146:9149   */\n      dup6\n        /* \"#utility.yul\":9142:9156   */\n      add\n        /* \"#utility.yul\":9128:9140   */\n      dup3\n        /* \"#utility.yul\":9094:9157   */\n      tag_368\n      jump\t// in\n    tag_448:\n        /* \"#utility.yul\":8996:9167   */\n      pop\n        /* \"#utility.yul\":9258:9262   */\n      0x60\n        /* \"#utility.yul\":9251:9256   */\n      dup3\n        /* \"#utility.yul\":9247:9263   */\n      add\n        /* \"#utility.yul\":9241:9264   */\n      mload\n        /* \"#utility.yul\":9277:9340   */\n      tag_449\n        /* \"#utility.yul\":9334:9338   */\n      0x60\n        /* \"#utility.yul\":9329:9332   */\n      dup6\n        /* \"#utility.yul\":9325:9339   */\n      add\n        /* \"#utility.yul\":9311:9323   */\n      dup3\n        /* \"#utility.yul\":9277:9340   */\n      tag_368\n      jump\t// in\n    tag_449:\n        /* \"#utility.yul\":9177:9350   */\n      pop\n        /* \"#utility.yul\":9439:9443   */\n      0x80\n        /* \"#utility.yul\":9432:9437   */\n      dup3\n        /* \"#utility.yul\":9428:9444   */\n      add\n        /* \"#utility.yul\":9422:9445   */\n      mload\n        /* \"#utility.yul\":9458:9521   */\n      tag_450\n        /* \"#utility.yul\":9515:9519   */\n      0x80\n        /* \"#utility.yul\":9510:9513   */\n      dup6\n        /* \"#utility.yul\":9506:9520   */\n      add\n        /* \"#utility.yul\":9492:9504   */\n      dup3\n        /* \"#utility.yul\":9458:9521   */\n      tag_368\n      jump\t// in\n    tag_450:\n        /* \"#utility.yul\":9360:9531   */\n      pop\n        /* \"#utility.yul\":9616:9620   */\n      0xa0\n        /* \"#utility.yul\":9609:9614   */\n      dup3\n        /* \"#utility.yul\":9605:9621   */\n      add\n        /* \"#utility.yul\":9599:9622   */\n      mload\n        /* \"#utility.yul\":9635:9692   */\n      tag_451\n        /* \"#utility.yul\":9686:9690   */\n      0xa0\n        /* \"#utility.yul\":9681:9684   */\n      dup6\n        /* \"#utility.yul\":9677:9691   */\n      add\n        /* \"#utility.yul\":9663:9675   */\n      dup3\n        /* \"#utility.yul\":9635:9692   */\n      tag_417\n      jump\t// in\n    tag_451:\n        /* \"#utility.yul\":9541:9702   */\n      pop\n        /* \"#utility.yul\":8583:9709   */\n      pop\n        /* \"#utility.yul\":8467:9709   */\n      pop\n      pop\n      jump\t// out\n        /* \"#utility.yul\":9715:9823   */\n    tag_368:\n        /* \"#utility.yul\":9792:9816   */\n      tag_453\n        /* \"#utility.yul\":9810:9815   */\n      dup2\n        /* \"#utility.yul\":9792:9816   */\n      tag_454\n      jump\t// in\n    tag_453:\n        /* \"#utility.yul\":9787:9790   */\n      dup3\n        /* \"#utility.yul\":9780:9817   */\n      mstore\n        /* \"#utility.yul\":9715:9823   */\n      pop\n      pop\n      jump\t// out\n        /* \"#utility.yul\":9829:9947   */\n    tag_455:\n        /* \"#utility.yul\":9916:9940   */\n      tag_457\n        /* \"#utility.yul\":9934:9939   */\n      dup2\n        /* \"#utility.yul\":9916:9940   */\n      tag_454\n      jump\t// in\n    tag_457:\n        /* \"#utility.yul\":9911:9914   */\n      dup3\n        /* \"#utility.yul\":9904:9941   */\n      mstore\n        /* \"#utility.yul\":9829:9947   */\n      pop\n      pop\n      jump\t// out\n        /* \"#utility.yul\":9953:10175   */\n    tag_78:\n        /* \"#utility.yul\":10046:10050   */\n      0x00\n        /* \"#utility.yul\":10084:10086   */\n      0x20\n        /* \"#utility.yul\":10073:10082   */\n      dup3\n        /* \"#utility.yul\":10069:10087   */\n      add\n        /* \"#utility.yul\":10061:10087   */\n      swap1\n      pop\n        /* \"#utility.yul\":10097:10168   */\n      tag_459\n        /* \"#utility.yul\":10165:10166   */\n      0x00\n        /* \"#utility.yul\":10154:10163   */\n      dup4\n        /* \"#utility.yul\":10150:10167   */\n      add\n        /* \"#utility.yul\":10141:10147   */\n      dup5\n        /* \"#utility.yul\":10097:10168   */\n      tag_372\n      jump\t// in\n    tag_459:\n        /* \"#utility.yul\":9953:10175   */\n      swap3\n      swap2\n      pop\n      pop\n      jump\t// out\n        /* \"#utility.yul\":10181:10513   */\n    tag_207:\n        /* \"#utility.yul\":10302:10306   */\n      0x00\n        /* \"#utility.yul\":10340:10342   */\n      0x40\n        /* \"#utility.yul\":10329:10338   */\n      dup3\n        /* \"#utility.yul\":10325:10343   */\n      add\n        /* \"#utility.yul\":10317:10343   */\n      swap1\n      pop\n        /* \"#utility.yul\":10353:10424   */\n      tag_461\n        /* \"#utility.yul\":10421:10422   */\n      0x00\n        /* \"#utility.yul\":10410:10419   */\n      dup4\n        /* \"#utility.yul\":10406:10423   */\n      add\n        /* \"#utility.yul\":10397:10403   */\n      dup6\n        /* \"#utility.yul\":10353:10424   */\n      tag_372\n      jump\t// in\n    tag_461:\n        /* \"#utility.yul\":10434:10506   */\n      tag_462\n        /* \"#utility.yul\":10502:10504   */\n      0x20\n        /* \"#utility.yul\":10491:10500   */\n      dup4\n        /* \"#utility.yul\":10487:10505   */\n      add\n        /* \"#utility.yul\":10478:10484   */\n      dup5\n        /* \"#utility.yul\":10434:10506   */\n      tag_455\n      jump\t// in\n    tag_462:\n        /* \"#utility.yul\":10181:10513   */\n      swap4\n      swap3\n      pop\n      pop\n      pop\n      jump\t// out\n        /* \"#utility.yul\":10519:11393   */\n    tag_110:\n        /* \"#utility.yul\":10774:10778   */\n      0x00\n        /* \"#utility.yul\":10812:10815   */\n      0xe0\n        /* \"#utility.yul\":10801:10810   */\n      dup3\n        /* \"#utility.yul\":10797:10816   */\n      add\n        /* \"#utility.yul\":10789:10816   */\n      swap1\n      pop\n        /* \"#utility.yul\":10826:10897   */\n      tag_464\n        /* \"#utility.yul\":10894:10895   */\n      0x00\n        /* \"#utility.yul\":10883:10892   */\n      dup4\n        /* \"#utility.yul\":10879:10896   */\n      add\n        /* \"#utility.yul\":10870:10876   */\n      dup11\n        /* \"#utility.yul\":10826:10897   */\n      tag_372\n      jump\t// in\n    tag_464:\n        /* \"#utility.yul\":10907:10979   */\n      tag_465\n        /* \"#utility.yul\":10975:10977   */\n      0x20\n        /* \"#utility.yul\":10964:10973   */\n      dup4\n        /* \"#utility.yul\":10960:10978   */\n      add\n        /* \"#utility.yul\":10951:10957   */\n      dup10\n        /* \"#utility.yul\":10907:10979   */\n      tag_455\n      jump\t// in\n    tag_465:\n        /* \"#utility.yul\":10989:11061   */\n      tag_466\n        /* \"#utility.yul\":11057:11059   */\n      0x40\n        /* \"#utility.yul\":11046:11055   */\n      dup4\n        /* \"#utility.yul\":11042:11060   */\n      add\n        /* \"#utility.yul\":11033:11039   */\n      dup9\n        /* \"#utility.yul\":10989:11061   */\n      tag_455\n      jump\t// in\n    tag_466:\n        /* \"#utility.yul\":11071:11143   */\n      tag_467\n        /* \"#utility.yul\":11139:11141   */\n      0x60\n        /* \"#utility.yul\":11128:11137   */\n      dup4\n        /* \"#utility.yul\":11124:11142   */\n      add\n        /* \"#utility.yul\":11115:11121   */\n      dup8\n        /* \"#utility.yul\":11071:11143   */\n      tag_455\n      jump\t// in\n    tag_467:\n        /* \"#utility.yul\":11153:11226   */\n      tag_468\n        /* \"#utility.yul\":11221:11224   */\n      0x80\n        /* \"#utility.yul\":11210:11219   */\n      dup4\n        /* \"#utility.yul\":11206:11225   */\n      add\n        /* \"#utility.yul\":11197:11203   */\n      dup7\n        /* \"#utility.yul\":11153:11226   */\n      tag_455\n      jump\t// in\n    tag_468:\n        /* \"#utility.yul\":11236:11303   */\n      tag_469\n        /* \"#utility.yul\":11298:11301   */\n      0xa0\n        /* \"#utility.yul\":11287:11296   */\n      dup4\n        /* \"#utility.yul\":11283:11302   */\n      add\n        /* \"#utility.yul\":11274:11280   */\n      dup6\n        /* \"#utility.yul\":11236:11303   */\n      tag_421\n      jump\t// in\n    tag_469:\n        /* \"#utility.yul\":11313:11386   */\n      tag_470\n        /* \"#utility.yul\":11381:11384   */\n      0xc0\n        /* \"#utility.yul\":11370:11379   */\n      dup4\n        /* \"#utility.yul\":11366:11385   */\n      add\n        /* \"#utility.yul\":11357:11363   */\n      dup5\n        /* \"#utility.yul\":11313:11386   */\n      tag_455\n      jump\t// in\n    tag_470:\n        /* \"#utility.yul\":10519:11393   */\n      swap9\n      swap8\n      pop\n      pop\n      pop\n      pop\n      pop\n      pop\n      pop\n      pop\n      jump\t// out\n        /* \"#utility.yul\":11399:11772   */\n    tag_37:\n        /* \"#utility.yul\":11542:11546   */\n      0x00\n        /* \"#utility.yul\":11580:11582   */\n      0x20\n        /* \"#utility.yul\":11569:11578   */\n      dup3\n        /* \"#utility.yul\":11565:11583   */\n      add\n        /* \"#utility.yul\":11557:11583   */\n      swap1\n      pop\n        /* \"#utility.yul\":11629:11638   */\n      dup2\n        /* \"#utility.yul\":11623:11627   */\n      dup2\n        /* \"#utility.yul\":11619:11639   */\n      sub\n        /* \"#utility.yul\":11615:11616   */\n      0x00\n        /* \"#utility.yul\":11604:11613   */\n      dup4\n        /* \"#utility.yul\":11600:11617   */\n      add\n        /* \"#utility.yul\":11593:11640   */\n      mstore\n        /* \"#utility.yul\":11657:11765   */\n      tag_472\n        /* \"#utility.yul\":11760:11764   */\n      dup2\n        /* \"#utility.yul\":11751:11757   */\n      dup5\n        /* \"#utility.yul\":11657:11765   */\n      tag_375\n      jump\t// in\n    tag_472:\n        /* \"#utility.yul\":11649:11765   */\n      swap1\n      pop\n        /* \"#utility.yul\":11399:11772   */\n      swap3\n      swap2\n      pop\n      pop\n      jump\t// out\n        /* \"#utility.yul\":11778:12271   */\n    tag_58:\n        /* \"#utility.yul\":11981:11985   */\n      0x00\n        /* \"#utility.yul\":12019:12021   */\n      0x20\n        /* \"#utility.yul\":12008:12017   */\n      dup3\n        /* \"#utility.yul\":12004:12022   */\n      add\n        /* \"#utility.yul\":11996:12022   */\n      swap1\n      pop\n        /* \"#utility.yul\":12068:12077   */\n      dup2\n        /* \"#utility.yul\":12062:12066   */\n      dup2\n        /* \"#utility.yul\":12058:12078   */\n      sub\n        /* \"#utility.yul\":12054:12055   */\n      0x00\n        /* \"#utility.yul\":12043:12052   */\n      dup4\n        /* \"#utility.yul\":12039:12056   */\n      add\n        /* \"#utility.yul\":12032:12079   */\n      mstore\n        /* \"#utility.yul\":12096:12264   */\n      tag_474\n        /* \"#utility.yul\":12259:12263   */\n      dup2\n        /* \"#utility.yul\":12250:12256   */\n      dup5\n        /* \"#utility.yul\":12096:12264   */\n      tag_389\n      jump\t// in\n    tag_474:\n        /* \"#utility.yul\":12088:12264   */\n      swap1\n      pop\n        /* \"#utility.yul\":11778:12271   */\n      swap3\n      swap2\n      pop\n      pop\n      jump\t// out\n        /* \"#utility.yul\":12277:12650   */\n    tag_95:\n        /* \"#utility.yul\":12420:12424   */\n      0x00\n        /* \"#utility.yul\":12458:12460   */\n      0x20\n        /* \"#utility.yul\":12447:12456   */\n      dup3\n        /* \"#utility.yul\":12443:12461   */\n      add\n        /* \"#utility.yul\":12435:12461   */\n      swap1\n      pop\n        /* \"#utility.yul\":12507:12516   */\n      dup2\n        /* \"#utility.yul\":12501:12505   */\n      dup2\n        /* \"#utility.yul\":12497:12517   */\n      sub\n        /* \"#utility.yul\":12493:12494   */\n      0x00\n        /* \"#utility.yul\":12482:12491   */\n      dup4\n        /* \"#utility.yul\":12478:12495   */\n      add\n        /* \"#utility.yul\":12471:12518   */\n      mstore\n        /* \"#utility.yul\":12535:12643   */\n      tag_476\n        /* \"#utility.yul\":12638:12642   */\n      dup2\n        /* \"#utility.yul\":12629:12635   */\n      dup5\n        /* \"#utility.yul\":12535:12643   */\n      tag_403\n      jump\t// in\n    tag_476:\n        /* \"#utility.yul\":12527:12643   */\n      swap1\n      pop\n        /* \"#utility.yul\":12277:12650   */\n      swap3\n      swap2\n      pop\n      pop\n      jump\t// out\n        /* \"#utility.yul\":12656:12866   */\n    tag_50:\n        /* \"#utility.yul\":12743:12747   */\n      0x00\n        /* \"#utility.yul\":12781:12783   */\n      0x20\n        /* \"#utility.yul\":12770:12779   */\n      dup3\n        /* \"#utility.yul\":12766:12784   */\n      add\n        /* \"#utility.yul\":12758:12784   */\n      swap1\n      pop\n        /* \"#utility.yul\":12794:12859   */\n      tag_478\n        /* \"#utility.yul\":12856:12857   */\n      0x00\n        /* \"#utility.yul\":12845:12854   */\n      dup4\n        /* \"#utility.yul\":12841:12858   */\n      add\n        /* \"#utility.yul\":12832:12838   */\n      dup5\n        /* \"#utility.yul\":12794:12859   */\n      tag_421\n      jump\t// in\n    tag_478:\n        /* \"#utility.yul\":12656:12866   */\n      swap3\n      swap2\n      pop\n      pop\n      jump\t// out\n        /* \"#utility.yul\":12872:13291   */\n    tag_199:\n        /* \"#utility.yul\":13038:13042   */\n      0x00\n        /* \"#utility.yul\":13076:13078   */\n      0x20\n        /* \"#utility.yul\":13065:13074   */\n      dup3\n        /* \"#utility.yul\":13061:13079   */\n      add\n        /* \"#utility.yul\":13053:13079   */\n      swap1\n      pop\n        /* \"#utility.yul\":13125:13134   */\n      dup2\n        /* \"#utility.yul\":13119:13123   */\n      dup2\n        /* \"#utility.yul\":13115:13135   */\n      sub\n        /* \"#utility.yul\":13111:13112   */\n      0x00\n        /* \"#utility.yul\":13100:13109   */\n      dup4\n        /* \"#utility.yul\":13096:13113   */\n      add\n        /* \"#utility.yul\":13089:13136   */\n      mstore\n        /* \"#utility.yul\":13153:13284   */\n      tag_480\n        /* \"#utility.yul\":13279:13283   */\n      dup2\n        /* \"#utility.yul\":13153:13284   */\n      tag_424\n      jump\t// in\n    tag_480:\n        /* \"#utility.yul\":13145:13284   */\n      swap1\n      pop\n        /* \"#utility.yul\":12872:13291   */\n      swap2\n      swap1\n      pop\n      jump\t// out\n        /* \"#utility.yul\":13297:13716   */\n    tag_134:\n        /* \"#utility.yul\":13463:13467   */\n      0x00\n        /* \"#utility.yul\":13501:13503   */\n      0x20\n        /* \"#utility.yul\":13490:13499   */\n      dup3\n        /* \"#utility.yul\":13486:13504   */\n      add\n        /* \"#utility.yul\":13478:13504   */\n      swap1\n      pop\n        /* \"#utility.yul\":13550:13559   */\n      dup2\n        /* \"#utility.yul\":13544:13548   */\n      dup2\n        /* \"#utility.yul\":13540:13560   */\n      sub\n        /* \"#utility.yul\":13536:13537   */\n      0x00\n        /* \"#utility.yul\":13525:13534   */\n      dup4\n        /* \"#utility.yul\":13521:13538   */\n      add\n        /* \"#utility.yul\":13514:13561   */\n      mstore\n        /* \"#utility.yul\":13578:13709   */\n      tag_482\n        /* \"#utility.yul\":13704:13708   */\n      dup2\n        /* \"#utility.yul\":13578:13709   */\n      tag_430\n      jump\t// in\n    tag_482:\n        /* \"#utility.yul\":13570:13709   */\n      swap1\n      pop\n        /* \"#utility.yul\":13297:13716   */\n      swap2\n      swap1\n      pop\n      jump\t// out\n        /* \"#utility.yul\":13722:14141   */\n    tag_250:\n        /* \"#utility.yul\":13888:13892   */\n      0x00\n        /* \"#utility.yul\":13926:13928   */\n      0x20\n        /* \"#utility.yul\":13915:13924   */\n      dup3\n        /* \"#utility.yul\":13911:13929   */\n      add\n        /* \"#utility.yul\":13903:13929   */\n      swap1\n      pop\n        /* \"#utility.yul\":13975:13984   */\n      dup2\n        /* \"#utility.yul\":13969:13973   */\n      dup2\n        /* \"#utility.yul\":13965:13985   */\n      sub\n        /* \"#utility.yul\":13961:13962   */\n      0x00\n        /* \"#utility.yul\":13950:13959   */\n      dup4\n        /* \"#utility.yul\":13946:13963   */\n      add\n        /* \"#utility.yul\":13939:13986   */\n      mstore\n        /* \"#utility.yul\":14003:14134   */\n      tag_484\n        /* \"#utility.yul\":14129:14133   */\n      dup2\n        /* \"#utility.yul\":14003:14134   */\n      tag_435\n      jump\t// in\n    tag_484:\n        /* \"#utility.yul\":13995:14134   */\n      swap1\n      pop\n        /* \"#utility.yul\":13722:14141   */\n      swap2\n      swap1\n      pop\n      jump\t// out\n        /* \"#utility.yul\":14147:14566   */\n    tag_260:\n        /* \"#utility.yul\":14313:14317   */\n      0x00\n        /* \"#utility.yul\":14351:14353   */\n      0x20\n        /* \"#utility.yul\":14340:14349   */\n      dup3\n        /* \"#utility.yul\":14336:14354   */\n      add\n        /* \"#utility.yul\":14328:14354   */\n      swap1\n      pop\n        /* \"#utility.yul\":14400:14409   */\n      dup2\n        /* \"#utility.yul\":14394:14398   */\n      dup2\n        /* \"#utility.yul\":14390:14410   */\n      sub\n        /* \"#utility.yul\":14386:14387   */\n      0x00\n        /* \"#utility.yul\":14375:14384   */\n      dup4\n        /* \"#utility.yul\":14371:14388   */\n      add\n        /* \"#utility.yul\":14364:14411   */\n      mstore\n        /* \"#utility.yul\":14428:14559   */\n      tag_486\n        /* \"#utility.yul\":14554:14558   */\n      dup2\n        /* \"#utility.yul\":14428:14559   */\n      tag_440\n      jump\t// in\n    tag_486:\n        /* \"#utility.yul\":14420:14559   */\n      swap1\n      pop\n        /* \"#utility.yul\":14147:14566   */\n      swap2\n      swap1\n      pop\n      jump\t// out\n        /* \"#utility.yul\":14572:14794   */\n    tag_41:\n        /* \"#utility.yul\":14665:14669   */\n      0x00\n        /* \"#utility.yul\":14703:14705   */\n      0x20\n        /* \"#utility.yul\":14692:14701   */\n      dup3\n        /* \"#utility.yul\":14688:14706   */\n      add\n        /* \"#utility.yul\":14680:14706   */\n      swap1\n      pop\n        /* \"#utility.yul\":14716:14787   */\n      tag_488\n        /* \"#utility.yul\":14784:14785   */\n      0x00\n        /* \"#utility.yul\":14773:14782   */\n      dup4\n        /* \"#utility.yul\":14769:14786   */\n      add\n        /* \"#utility.yul\":14760:14766   */\n      dup5\n        /* \"#utility.yul\":14716:14787   */\n      tag_455\n      jump\t// in\n    tag_488:\n        /* \"#utility.yul\":14572:14794   */\n      swap3\n      swap2\n      pop\n      pop\n      jump\t// out\n        /* \"#utility.yul\":14881:15013   */\n    tag_382:\n        /* \"#utility.yul\":14948:14952   */\n      0x00\n        /* \"#utility.yul\":14971:14974   */\n      dup2\n        /* \"#utility.yul\":14963:14974   */\n      swap1\n      pop\n        /* \"#utility.yul\":15001:15005   */\n      0x20\n        /* \"#utility.yul\":14996:14999   */\n      dup3\n        /* \"#utility.yul\":14992:15006   */\n      add\n        /* \"#utility.yul\":14984:15006   */\n      swap1\n      pop\n        /* \"#utility.yul\":14881:15013   */\n      swap2\n      swap1\n      pop\n      jump\t// out\n        /* \"#utility.yul\":15019:15181   */\n    tag_396:\n        /* \"#utility.yul\":15116:15120   */\n      0x00\n        /* \"#utility.yul\":15139:15142   */\n      dup2\n        /* \"#utility.yul\":15131:15142   */\n      swap1\n      pop\n        /* \"#utility.yul\":15169:15173   */\n      0x20\n        /* \"#utility.yul\":15164:15167   */\n      dup3\n        /* \"#utility.yul\":15160:15174   */\n      add\n        /* \"#utility.yul\":15152:15174   */\n      swap1\n      pop\n        /* \"#utility.yul\":15019:15181   */\n      swap2\n      swap1\n      pop\n      jump\t// out\n        /* \"#utility.yul\":15187:15319   */\n    tag_410:\n        /* \"#utility.yul\":15254:15258   */\n      0x00\n        /* \"#utility.yul\":15277:15280   */\n      dup2\n        /* \"#utility.yul\":15269:15280   */\n      swap1\n      pop\n        /* \"#utility.yul\":15307:15311   */\n      0x20\n        /* \"#utility.yul\":15302:15305   */\n      dup3\n        /* \"#utility.yul\":15298:15312   */\n      add\n        /* \"#utility.yul\":15290:15312   */\n      swap1\n      pop\n        /* \"#utility.yul\":15187:15319   */\n      swap2\n      swap1\n      pop\n      jump\t// out\n        /* \"#utility.yul\":15325:15439   */\n    tag_378:\n        /* \"#utility.yul\":15392:15398   */\n      0x00\n        /* \"#utility.yul\":15426:15431   */\n      dup2\n        /* \"#utility.yul\":15420:15432   */\n      mload\n        /* \"#utility.yul\":15410:15432   */\n      swap1\n      pop\n        /* \"#utility.yul\":15325:15439   */\n      swap2\n      swap1\n      pop\n      jump\t// out\n        /* \"#utility.yul\":15445:15589   */\n    tag_392:\n        /* \"#utility.yul\":15542:15548   */\n      0x00\n        /* \"#utility.yul\":15576:15581   */\n      dup2\n        /* \"#utility.yul\":15570:15582   */\n      mload\n        /* \"#utility.yul\":15560:15582   */\n      swap1\n      pop\n        /* \"#utility.yul\":15445:15589   */\n      swap2\n      swap1\n      pop\n      jump\t// out\n        /* \"#utility.yul\":15595:15709   */\n    tag_406:\n        /* \"#utility.yul\":15662:15668   */\n      0x00\n        /* \"#utility.yul\":15696:15701   */\n      dup2\n        /* \"#utility.yul\":15690:15702   */\n      mload\n        /* \"#utility.yul\":15680:15702   */\n      swap1\n      pop\n        /* \"#utility.yul\":15595:15709   */\n      swap2\n      swap1\n      pop\n      jump\t// out\n        /* \"#utility.yul\":15715:15828   */\n    tag_388:\n        /* \"#utility.yul\":15785:15789   */\n      0x00\n        /* \"#utility.yul\":15817:15821   */\n      0x20\n        /* \"#utility.yul\":15812:15815   */\n      dup3\n        /* \"#utility.yul\":15808:15822   */\n      add\n        /* \"#utility.yul\":15800:15822   */\n      swap1\n      pop\n        /* \"#utility.yul\":15715:15828   */\n      swap2\n      swap1\n      pop\n      jump\t// out\n        /* \"#utility.yul\":15834:15977   */\n    tag_402:\n        /* \"#utility.yul\":15934:15938   */\n      0x00\n        /* \"#utility.yul\":15966:15970   */\n      0x20\n        /* \"#utility.yul\":15961:15964   */\n      dup3\n        /* \"#utility.yul\":15957:15971   */\n      add\n        /* \"#utility.yul\":15949:15971   */\n      swap1\n      pop\n        /* \"#utility.yul\":15834:15977   */\n      swap2\n      swap1\n      pop\n      jump\t// out\n        /* \"#utility.yul\":15983:16096   */\n    tag_416:\n        /* \"#utility.yul\":16053:16057   */\n      0x00\n        /* \"#utility.yul\":16085:16089   */\n      0x20\n        /* \"#utility.yul\":16080:16083   */\n      dup3\n        /* \"#utility.yul\":16076:16090   */\n      add\n        /* \"#utility.yul\":16068:16090   */\n      swap1\n      pop\n        /* \"#utility.yul\":15983:16096   */\n      swap2\n      swap1\n      pop\n      jump\t// out\n        /* \"#utility.yul\":16102:16286   */\n    tag_380:\n        /* \"#utility.yul\":16201:16212   */\n      0x00\n        /* \"#utility.yul\":16235:16241   */\n      dup3\n        /* \"#utility.yul\":16230:16233   */\n      dup3\n        /* \"#utility.yul\":16223:16242   */\n      mstore\n        /* \"#utility.yul\":16275:16279   */\n      0x20\n        /* \"#utility.yul\":16270:16273   */\n      dup3\n        /* \"#utility.yul\":16266:16280   */\n      add\n        /* \"#utility.yul\":16251:16280   */\n      swap1\n      pop\n        /* \"#utility.yul\":16102:16286   */\n      swap3\n      swap2\n      pop\n      pop\n      jump\t// out\n        /* \"#utility.yul\":16292:16506   */\n    tag_394:\n        /* \"#utility.yul\":16421:16432   */\n      0x00\n        /* \"#utility.yul\":16455:16461   */\n      dup3\n        /* \"#utility.yul\":16450:16453   */\n      dup3\n        /* \"#utility.yul\":16443:16462   */\n      mstore\n        /* \"#utility.yul\":16495:16499   */\n      0x20\n        /* \"#utility.yul\":16490:16493   */\n      dup3\n        /* \"#utility.yul\":16486:16500   */\n      add\n        /* \"#utility.yul\":16471:16500   */\n      swap1\n      pop\n        /* \"#utility.yul\":16292:16506   */\n      swap3\n      swap2\n      pop\n      pop\n      jump\t// out\n        /* \"#utility.yul\":16512:16696   */\n    tag_408:\n        /* \"#utility.yul\":16611:16622   */\n      0x00\n        /* \"#utility.yul\":16645:16651   */\n      dup3\n        /* \"#utility.yul\":16640:16643   */\n      dup3\n        /* \"#utility.yul\":16633:16652   */\n      mstore\n        /* \"#utility.yul\":16685:16689   */\n      0x20\n        /* \"#utility.yul\":16680:16683   */\n      dup3\n        /* \"#utility.yul\":16676:16690   */\n      add\n        /* \"#utility.yul\":16661:16690   */\n      swap1\n      pop\n        /* \"#utility.yul\":16512:16696   */\n      swap3\n      swap2\n      pop\n      pop\n      jump\t// out\n        /* \"#utility.yul\":16702:16871   */\n    tag_427:\n        /* \"#utility.yul\":16786:16797   */\n      0x00\n        /* \"#utility.yul\":16820:16826   */\n      dup3\n        /* \"#utility.yul\":16815:16818   */\n      dup3\n        /* \"#utility.yul\":16808:16827   */\n      mstore\n        /* \"#utility.yul\":16860:16864   */\n      0x20\n        /* \"#utility.yul\":16855:16858   */\n      dup3\n        /* \"#utility.yul\":16851:16865   */\n      add\n        /* \"#utility.yul\":16836:16865   */\n      swap1\n      pop\n        /* \"#utility.yul\":16702:16871   */\n      swap3\n      swap2\n      pop\n      pop\n      jump\t// out\n        /* \"#utility.yul\":16877:17182   */\n    tag_140:\n        /* \"#utility.yul\":16917:16920   */\n      0x00\n        /* \"#utility.yul\":16936:16956   */\n      tag_505\n        /* \"#utility.yul\":16954:16955   */\n      dup3\n        /* \"#utility.yul\":16936:16956   */\n      tag_454\n      jump\t// in\n    tag_505:\n        /* \"#utility.yul\":16931:16956   */\n      swap2\n      pop\n        /* \"#utility.yul\":16970:16990   */\n      tag_506\n        /* \"#utility.yul\":16988:16989   */\n      dup4\n        /* \"#utility.yul\":16970:16990   */\n      tag_454\n      jump\t// in\n    tag_506:\n        /* \"#utility.yul\":16965:16990   */\n      swap3\n      pop\n        /* \"#utility.yul\":17124:17125   */\n      dup3\n        /* \"#utility.yul\":17056:17122   */\n      0xffffffffffffffffffffffffffffffffffffffffffffffffffffffffffffffff\n        /* \"#utility.yul\":17052:17126   */\n      sub\n        /* \"#utility.yul\":17049:17050   */\n      dup3\n        /* \"#utility.yul\":17046:17127   */\n      gt\n        /* \"#utility.yul\":17043:17150   */\n      iszero\n      tag_507\n      jumpi\n        /* \"#utility.yul\":17130:17148   */\n      tag_508\n      tag_509\n      jump\t// in\n    tag_508:\n        /* \"#utility.yul\":17043:17150   */\n    tag_507:\n        /* \"#utility.yul\":17174:17175   */\n      dup3\n        /* \"#utility.yul\":17171:17172   */\n      dup3\n        /* \"#utility.yul\":17167:17176   */\n      add\n        /* \"#utility.yul\":17160:17176   */\n      swap1\n      pop\n        /* \"#utility.yul\":16877:17182   */\n      swap3\n      swap2\n      pop\n      pop\n      jump\t// out\n        /* \"#utility.yul\":17188:17373   */\n    tag_185:\n        /* \"#utility.yul\":17228:17229   */\n      0x00\n        /* \"#utility.yul\":17245:17265   */\n      tag_511\n        /* \"#utility.yul\":17263:17264   */\n      dup3\n        /* \"#utility.yul\":17245:17265   */\n      tag_454\n      jump\t// in\n    tag_511:\n        /* \"#utility.yul\":17240:17265   */\n      swap2\n      pop\n        /* \"#utility.yul\":17279:17299   */\n      tag_512\n        /* \"#utility.yul\":17297:17298   */\n      dup4\n        /* \"#utility.yul\":17279:17299   */\n      tag_454\n      jump\t// in\n    tag_512:\n        /* \"#utility.yul\":17274:17299   */\n      swap3\n      pop\n        /* \"#utility.yul\":17318:17319   */\n      dup3\n        /* \"#utility.yul\":17308:17343   */\n      tag_513\n      jumpi\n        /* \"#utility.yul\":17323:17341   */\n      tag_514\n      tag_515\n      jump\t// in\n    tag_514:\n        /* \"#utility.yul\":17308:17343   */\n    tag_513:\n        /* \"#utility.yul\":17365:17366   */\n      dup3\n        /* \"#utility.yul\":17362:17363   */\n      dup3\n        /* \"#utility.yul\":17358:17367   */\n      div\n        /* \"#utility.yul\":17353:17367   */\n      swap1\n      pop\n        /* \"#utility.yul\":17188:17373   */\n      swap3\n      swap2\n      pop\n      pop\n      jump\t// out\n        /* \"#utility.yul\":17379:17727   */\n    tag_188:\n        /* \"#utility.yul\":17419:17426   */\n      0x00\n        /* \"#utility.yul\":17442:17462   */\n      tag_517\n        /* \"#utility.yul\":17460:17461   */\n      dup3\n        /* \"#utility.yul\":17442:17462   */\n      tag_454\n      jump\t// in\n    tag_517:\n        /* \"#utility.yul\":17437:17462   */\n      swap2\n      pop\n        /* \"#utility.yul\":17476:17496   */\n      tag_518\n        /* \"#utility.yul\":17494:17495   */\n      dup4\n        /* \"#utility.yul\":17476:17496   */\n      tag_454\n      jump\t// in\n    tag_518:\n        /* \"#utility.yul\":17471:17496   */\n      swap3\n      pop\n        /* \"#utility.yul\":17664:17665   */\n      dup2\n        /* \"#utility.yul\":17596:17662   */\n      0xffffffffffffffffffffffffffffffffffffffffffffffffffffffffffffffff\n        /* \"#utility.yul\":17592:17666   */\n      div\n        /* \"#utility.yul\":17589:17590   */\n      dup4\n        /* \"#utility.yul\":17586:17667   */\n      gt\n        /* \"#utility.yul\":17581:17582   */\n      dup3\n        /* \"#utility.yul\":17574:17583   */\n      iszero\n        /* \"#utility.yul\":17567:17584   */\n      iszero\n        /* \"#utility.yul\":17563:17668   */\n      and\n        /* \"#utility.yul\":17560:17691   */\n      iszero\n      tag_519\n      jumpi\n        /* \"#utility.yul\":17671:17689   */\n      tag_520\n      tag_509\n      jump\t// in\n    tag_520:\n        /* \"#utility.yul\":17560:17691   */\n    tag_519:\n        /* \"#utility.yul\":17719:17720   */\n      dup3\n        /* \"#utility.yul\":17716:17717   */\n      dup3\n        /* \"#utility.yul\":17712:17721   */\n      mul\n        /* \"#utility.yul\":17701:17721   */\n      swap1\n      pop\n        /* \"#utility.yul\":17379:17727   */\n      swap3\n      swap2\n      pop\n      pop\n      jump\t// out\n        /* \"#utility.yul\":17733:17924   */\n    tag_181:\n        /* \"#utility.yul\":17773:17777   */\n      0x00\n        /* \"#utility.yul\":17793:17813   */\n      tag_522\n        /* \"#utility.yul\":17811:17812   */\n      dup3\n        /* \"#utility.yul\":17793:17813   */\n      tag_454\n      jump\t// in\n    tag_522:\n        /* \"#utility.yul\":17788:17813   */\n      swap2\n      pop\n        /* \"#utility.yul\":17827:17847   */\n      tag_523\n        /* \"#utility.yul\":17845:17846   */\n      dup4\n        /* \"#utility.yul\":17827:17847   */\n      tag_454\n      jump\t// in\n    tag_523:\n        /* \"#utility.yul\":17822:17847   */\n      swap3\n      pop\n        /* \"#utility.yul\":17866:17867   */\n      dup3\n        /* \"#utility.yul\":17863:17864   */\n      dup3\n        /* \"#utility.yul\":17860:17868   */\n      lt\n        /* \"#utility.yul\":17857:17891   */\n      iszero\n      tag_524\n      jumpi\n        /* \"#utility.yul\":17871:17889   */\n      tag_525\n      tag_509\n      jump\t// in\n    tag_525:\n        /* \"#utility.yul\":17857:17891   */\n    tag_524:\n        /* \"#utility.yul\":17916:17917   */\n      dup3\n        /* \"#utility.yul\":17913:17914   */\n      dup3\n        /* \"#utility.yul\":17909:17918   */\n      sub\n        /* \"#utility.yul\":17901:17918   */\n      swap1\n      pop\n        /* \"#utility.yul\":17733:17924   */\n      swap3\n      swap2\n      pop\n      pop\n      jump\t// out\n        /* \"#utility.yul\":17930:18026   */\n    tag_371:\n        /* \"#utility.yul\":17967:17974   */\n      0x00\n        /* \"#utility.yul\":17996:18020   */\n      tag_527\n        /* \"#utility.yul\":18014:18019   */\n      dup3\n        /* \"#utility.yul\":17996:18020   */\n      tag_528\n      jump\t// in\n    tag_527:\n        /* \"#utility.yul\":17985:18020   */\n      swap1\n      pop\n        /* \"#utility.yul\":17930:18026   */\n      swap2\n      swap1\n      pop\n      jump\t// out\n        /* \"#utility.yul\":18032:18122   */\n    tag_420:\n        /* \"#utility.yul\":18066:18073   */\n      0x00\n        /* \"#utility.yul\":18109:18114   */\n      dup2\n        /* \"#utility.yul\":18102:18115   */\n      iszero\n        /* \"#utility.yul\":18095:18116   */\n      iszero\n        /* \"#utility.yul\":18084:18116   */\n      swap1\n      pop\n        /* \"#utility.yul\":18032:18122   */\n      swap2\n      swap1\n      pop\n      jump\t// out\n        /* \"#utility.yul\":18128:18254   */\n    tag_528:\n        /* \"#utility.yul\":18165:18172   */\n      0x00\n        /* \"#utility.yul\":18205:18247   */\n      0xffffffffffffffffffffffffffffffffffffffff\n        /* \"#utility.yul\":18198:18203   */\n      dup3\n        /* \"#utility.yul\":18194:18248   */\n      and\n        /* \"#utility.yul\":18183:18248   */\n      swap1\n      pop\n        /* \"#utility.yul\":18128:18254   */\n      swap2\n      swap1\n      pop\n      jump\t// out\n        /* \"#utility.yul\":18260:18337   */\n    tag_454:\n        /* \"#utility.yul\":18297:18304   */\n      0x00\n        /* \"#utility.yul\":18326:18331   */\n      dup2\n        /* \"#utility.yul\":18315:18331   */\n      swap1\n      pop\n        /* \"#utility.yul\":18260:18337   */\n      swap2\n      swap1\n      pop\n      jump\t// out\n        /* \"#utility.yul\":18343:18576   */\n    tag_137:\n        /* \"#utility.yul\":18382:18385   */\n      0x00\n        /* \"#utility.yul\":18405:18429   */\n      tag_533\n        /* \"#utility.yul\":18423:18428   */\n      dup3\n        /* \"#utility.yul\":18405:18429   */\n      tag_454\n      jump\t// in\n    tag_533:\n        /* \"#utility.yul\":18396:18429   */\n      swap2\n      pop\n        /* \"#utility.yul\":18451:18517   */\n      0xffffffffffffffffffffffffffffffffffffffffffffffffffffffffffffffff\n        /* \"#utility.yul\":18444:18449   */\n      dup3\n        /* \"#utility.yul\":18441:18518   */\n      eq\n        /* \"#utility.yul\":18438:18541   */\n      iszero\n      tag_534\n      jumpi\n        /* \"#utility.yul\":18521:18539   */\n      tag_535\n      tag_509\n      jump\t// in\n    tag_535:\n        /* \"#utility.yul\":18438:18541   */\n    tag_534:\n        /* \"#utility.yul\":18568:18569   */\n      0x01\n        /* \"#utility.yul\":18561:18566   */\n      dup3\n        /* \"#utility.yul\":18557:18570   */\n      add\n        /* \"#utility.yul\":18550:18570   */\n      swap1\n      pop\n        /* \"#utility.yul\":18343:18576   */\n      swap2\n      swap1\n      pop\n      jump\t// out\n        /* \"#utility.yul\":18582:18762   */\n    tag_509:\n        /* \"#utility.yul\":18630:18707   */\n      0x4e487b7100000000000000000000000000000000000000000000000000000000\n        /* \"#utility.yul\":18627:18628   */\n      0x00\n        /* \"#utility.yul\":18620:18708   */\n      mstore\n        /* \"#utility.yul\":18727:18731   */\n      0x11\n        /* \"#utility.yul\":18724:18725   */\n      0x04\n        /* \"#utility.yul\":18717:18732   */\n      mstore\n        /* \"#utility.yul\":18751:18755   */\n      0x24\n        /* \"#utility.yul\":18748:18749   */\n      0x00\n        /* \"#utility.yul\":18741:18756   */\n      revert\n        /* \"#utility.yul\":18768:18948   */\n    tag_515:\n        /* \"#utility.yul\":18816:18893   */\n      0x4e487b7100000000000000000000000000000000000000000000000000000000\n        /* \"#utility.yul\":18813:18814   */\n      0x00\n        /* \"#utility.yul\":18806:18894   */\n      mstore\n        /* \"#utility.yul\":18913:18917   */\n      0x12\n        /* \"#utility.yul\":18910:18911   */\n      0x04\n        /* \"#utility.yul\":18903:18918   */\n      mstore\n        /* \"#utility.yul\":18937:18941   */\n      0x24\n        /* \"#utility.yul\":18934:18935   */\n      0x00\n        /* \"#utility.yul\":18927:18942   */\n      revert\n        /* \"#utility.yul\":18954:19134   */\n    tag_172:\n        /* \"#utility.yul\":19002:19079   */\n      0x4e487b7100000000000000000000000000000000000000000000000000000000\n        /* \"#utility.yul\":18999:19000   */\n      0x00\n        /* \"#utility.yul\":18992:19080   */\n      mstore\n        /* \"#utility.yul\":19099:19103   */\n      0x32\n        /* \"#utility.yul\":19096:19097   */\n      0x04\n        /* \"#utility.yul\":19089:19104   */\n      mstore\n        /* \"#utility.yul\":19123:19127   */\n      0x24\n        /* \"#utility.yul\":19120:19121   */\n      0x00\n        /* \"#utility.yul\":19113:19128   */\n      revert\n        /* \"#utility.yul\":19140:19320   */\n    tag_161:\n        /* \"#utility.yul\":19188:19265   */\n      0x4e487b7100000000000000000000000000000000000000000000000000000000\n        /* \"#utility.yul\":19185:19186   */\n      0x00\n        /* \"#utility.yul\":19178:19266   */\n      mstore\n        /* \"#utility.yul\":19285:19289   */\n      0x41\n        /* \"#utility.yul\":19282:19283   */\n      0x04\n        /* \"#utility.yul\":19275:19290   */\n      mstore\n        /* \"#utility.yul\":19309:19313   */\n      0x24\n        /* \"#utility.yul\":19306:19307   */\n      0x00\n        /* \"#utility.yul\":19299:19314   */\n      revert\n        /* \"#utility.yul\":19449:19566   */\n    tag_330:\n        /* \"#utility.yul\":19558:19559   */\n      0x00\n        /* \"#utility.yul\":19555:19556   */\n      dup1\n        /* \"#utility.yul\":19548:19560   */\n      revert\n        /* \"#utility.yul\":19572:19796   */\n    tag_429:\n        /* \"#utility.yul\":19712:19746   */\n      0x796f7520646f6e74206861766520696e766573746d656e7420746f2077697468\n        /* \"#utility.yul\":19708:19709   */\n      0x00\n        /* \"#utility.yul\":19700:19706   */\n      dup3\n        /* \"#utility.yul\":19696:19710   */\n      add\n        /* \"#utility.yul\":19689:19747   */\n      mstore\n        /* \"#utility.yul\":19781:19788   */\n      0x647261776e000000000000000000000000000000000000000000000000000000\n        /* \"#utility.yul\":19776:19778   */\n      0x20\n        /* \"#utility.yul\":19768:19774   */\n      dup3\n        /* \"#utility.yul\":19764:19779   */\n      add\n        /* \"#utility.yul\":19757:19789   */\n      mstore\n        /* \"#utility.yul\":19572:19796   */\n      pop\n      jump\t// out\n        /* \"#utility.yul\":19802:20042   */\n    tag_434:\n        /* \"#utility.yul\":19942:19976   */\n      0x76616c7565206973206e6f742067726561746572207468616e20313030303020\n        /* \"#utility.yul\":19938:19939   */\n      0x00\n        /* \"#utility.yul\":19930:19936   */\n      dup3\n        /* \"#utility.yul\":19926:19940   */\n      add\n        /* \"#utility.yul\":19919:19977   */\n      mstore\n        /* \"#utility.yul\":20011:20034   */\n      0x616e64206c657373207468616e20353030303030300000000000000000000000\n        /* \"#utility.yul\":20006:20008   */\n      0x20\n        /* \"#utility.yul\":19998:20004   */\n      dup3\n        /* \"#utility.yul\":19994:20009   */\n      add\n        /* \"#utility.yul\":19987:20035   */\n      mstore\n        /* \"#utility.yul\":19802:20042   */\n      pop\n      jump\t// out\n        /* \"#utility.yul\":20048:20269   */\n    tag_439:\n        /* \"#utility.yul\":20188:20222   */\n      0x796f7520646f6e742068617665207265776172647320746f2077697468647261\n        /* \"#utility.yul\":20184:20185   */\n      0x00\n        /* \"#utility.yul\":20176:20182   */\n      dup3\n        /* \"#utility.yul\":20172:20186   */\n      add\n        /* \"#utility.yul\":20165:20223   */\n      mstore\n        /* \"#utility.yul\":20257:20261   */\n      0x776e000000000000000000000000000000000000000000000000000000000000\n        /* \"#utility.yul\":20252:20254   */\n      0x20\n        /* \"#utility.yul\":20244:20250   */\n      dup3\n        /* \"#utility.yul\":20240:20255   */\n      add\n        /* \"#utility.yul\":20233:20262   */\n      mstore\n        /* \"#utility.yul\":20048:20269   */\n      pop\n      jump\t// out\n        /* \"#utility.yul\":20275:20495   */\n    tag_444:\n        /* \"#utility.yul\":20415:20449   */\n      0x6f6e6c79204f776e65722063616e2063616c6c20746869732066756e6374696f\n        /* \"#utility.yul\":20411:20412   */\n      0x00\n        /* \"#utility.yul\":20403:20409   */\n      dup3\n        /* \"#utility.yul\":20399:20413   */\n      add\n        /* \"#utility.yul\":20392:20450   */\n      mstore\n        /* \"#utility.yul\":20484:20487   */\n      0x6e00000000000000000000000000000000000000000000000000000000000000\n        /* \"#utility.yul\":20479:20481   */\n      0x20\n        /* \"#utility.yul\":20471:20477   */\n      dup3\n        /* \"#utility.yul\":20467:20482   */\n      add\n        /* \"#utility.yul\":20460:20488   */\n      mstore\n        /* \"#utility.yul\":20275:20495   */\n      pop\n      jump\t// out\n        /* \"#utility.yul\":20501:20623   */\n    tag_318:\n        /* \"#utility.yul\":20574:20598   */\n      tag_548\n        /* \"#utility.yul\":20592:20597   */\n      dup2\n        /* \"#utility.yul\":20574:20598   */\n      tag_371\n      jump\t// in\n    tag_548:\n        /* \"#utility.yul\":20567:20572   */\n      dup2\n        /* \"#utility.yul\":20564:20599   */\n      eq\n        /* \"#utility.yul\":20554:20617   */\n      tag_549\n      jumpi\n        /* \"#utility.yul\":20613:20614   */\n      0x00\n        /* \"#utility.yul\":20610:20611   */\n      dup1\n        /* \"#utility.yul\":20603:20615   */\n      revert\n        /* \"#utility.yul\":20554:20617   */\n    tag_549:\n        /* \"#utility.yul\":20501:20623   */\n      pop\n      jump\t// out\n        /* \"#utility.yul\":20629:20745   */\n    tag_322:\n        /* \"#utility.yul\":20699:20720   */\n      tag_551\n        /* \"#utility.yul\":20714:20719   */\n      dup2\n        /* \"#utility.yul\":20699:20720   */\n      tag_420\n      jump\t// in\n    tag_551:\n        /* \"#utility.yul\":20692:20697   */\n      dup2\n        /* \"#utility.yul\":20689:20721   */\n      eq\n        /* \"#utility.yul\":20679:20739   */\n      tag_552\n      jumpi\n        /* \"#utility.yul\":20735:20736   */\n      0x00\n        /* \"#utility.yul\":20732:20733   */\n      dup1\n        /* \"#utility.yul\":20725:20737   */\n      revert\n        /* \"#utility.yul\":20679:20739   */\n    tag_552:\n        /* \"#utility.yul\":20629:20745   */\n      pop\n      jump\t// out\n        /* \"#utility.yul\":20751:20873   */\n    tag_326:\n        /* \"#utility.yul\":20824:20848   */\n      tag_554\n        /* \"#utility.yul\":20842:20847   */\n      dup2\n        /* \"#utility.yul\":20824:20848   */\n      tag_454\n      jump\t// in\n    tag_554:\n        /* \"#utility.yul\":20817:20822   */\n      dup2\n        /* \"#utility.yul\":20814:20849   */\n      eq\n        /* \"#utility.yul\":20804:20867   */\n      tag_555\n      jumpi\n        /* \"#utility.yul\":20863:20864   */\n      0x00\n        /* \"#utility.yul\":20860:20861   */\n      dup1\n        /* \"#utility.yul\":20853:20865   */\n      revert\n        /* \"#utility.yul\":20804:20867   */\n    tag_555:\n        /* \"#utility.yul\":20751:20873   */\n      pop\n      jump\t// out\n\n    auxdata: 0xa2646970667358221220e39387cf9adb0db96a4513eec2bcb15985c48ec32c7f18cefda2853f9cc045f364736f6c63430008070033\n}\n",
				"bytecode": {
					"linkReferences": {},
					"object": "6080604052734d00ddcc526c14fd353131f289b1e62c856e9737600160006101000a81548173ffffffffffffffffffffffffffffffffffffffff021916908373ffffffffffffffffffffffffffffffffffffffff16021790555073e9e7cea3dedca5984780bafc599bd69add087d56600260006101000a81548173ffffffffffffffffffffffffffffffffffffffff021916908373ffffffffffffffffffffffffffffffffffffffff160217905550674563918244f40000600655612710600755624c4b40600855620186a060095563018b8200600a553480156100e257600080fd5b50336000806101000a81548173ffffffffffffffffffffffffffffffffffffffff021916908373ffffffffffffffffffffffffffffffffffffffff160217905550612d0c806101326000396000f3fe608060405234801561001057600080fd5b506004361061018e5760003560e01c80639740a1bc116100de578063c885bc5811610097578063f2fde38b11610071578063f2fde38b14610449578063f790b81a14610465578063f7c618c114610483578063fae730bc146104a15761018e565b8063c885bc58146103d7578063d3560ee8146103f5578063e2033fcb1461042b5761018e565b80639740a1bc146103255780639a5bb41714610343578063a47bd49614610361578063a61be99d1461037d578063b8df2d0e1461039b578063bc67eaff146103b95761018e565b80633d18b9121161014b578063523cddfe11610125578063523cddfe146102ad57806373cf575a146102cb5780638da5cb5b146102e9578063929f6bbe146103075761018e565b80633d18b912146102575780634eb1ecc914610275578063500cb85f146102915761018e565b80630c5f58f41461019357806310cde60a146101b15780631e8aba35146101cf5780632bccdce6146101ed57806332d4e7831461021d5780633a1e083314610239575b600080fd5b61019b6104bf565b6040516101a89190612716565b60405180910390f35b6101b961058d565b6040516101c69190612817565b60405180910390f35b6101d7610593565b6040516101e49190612817565b60405180910390f35b610207600480360381019061020291906122b9565b6105e0565b604051610214919061277c565b60405180910390f35b6102376004803603810190610232919061228c565b610c5d565b005b610241610c67565b60405161024e9190612738565b60405180910390f35b61025f610ef8565b60405161026c9190612817565b60405180910390f35b61028f600480360381019061028a9190612339565b6111f1565b005b6102ab60048036038101906102a6919061228c565b611213565b005b6102b561121d565b6040516102c29190612817565b60405180910390f35b6102d3611223565b6040516102e0919061277c565b60405180910390f35b6102f16117ab565b6040516102fe9190612663565b60405180910390f35b61030f6117cf565b60405161031c9190612817565b60405180910390f35b61032d611819565b60405161033a9190612817565b60405180910390f35b61034b61181f565b6040516103589190612817565b60405180910390f35b61037b600480360381019061037691906122f9565b611825565b005b610385611837565b604051610392919061275a565b60405180910390f35b6103a36119aa565b6040516103b09190612817565b60405180910390f35b6103c16119b0565b6040516103ce9190612817565b60405180910390f35b6103df6119b6565b6040516103ec919061277c565b60405180910390f35b61040f600480360381019061040a9190612232565b611b17565b60405161042297969594939291906126a7565b60405180910390f35b610433611b86565b6040516104409190612817565b60405180910390f35b610463600480360381019061045e9190612232565b611b8c565b005b61046d611c5d565b60405161047a919061275a565b60405180910390f35b61048b611dd0565b6040516104989190612817565b60405180910390f35b6104a9611dd6565b6040516104b69190612817565b60405180910390f35b6060600d60003373ffffffffffffffffffffffffffffffffffffffff1673ffffffffffffffffffffffffffffffffffffffff16815260200190815260200160002060010180548060200260200160405190810160405280929190818152602001828054801561058357602002820191906000526020600020905b8160009054906101000a900473ffffffffffffffffffffffffffffffffffffffff1673ffffffffffffffffffffffffffffffffffffffff1681526020019060010190808311610539575b5050505050905090565b60055481565b6000600d60003373ffffffffffffffffffffffffffffffffffffffff1673ffffffffffffffffffffffffffffffffffffffff16815260200190815260200160002060010180549050905090565b600060075483101580156105f657506008548311155b610635576040517f08c379a000000000000000000000000000000000000000000000000000000000815260040161062c906127b7565b60405180910390fd5b60001515600d60003373ffffffffffffffffffffffffffffffffffffffff1673ffffffffffffffffffffffffffffffffffffffff16815260200190815260200160002060080160009054906101000a900460ff16151514156106aa57600560008154809291906106a490612a4b565b91905055505b6000600d60003373ffffffffffffffffffffffffffffffffffffffff1673ffffffffffffffffffffffffffffffffffffffff16815260200190815260200160002060060154141561074c5763018b82004261070591906128ee565b600d60003373ffffffffffffffffffffffffffffffffffffffff1673ffffffffffffffffffffffffffffffffffffffff168152602001908152602001600020600901819055505b6000600d60003373ffffffffffffffffffffffffffffffffffffffff1673ffffffffffffffffffffffffffffffffffffffff16815260200190815260200160002060050154905083600d60003373ffffffffffffffffffffffffffffffffffffffff1673ffffffffffffffffffffffffffffffffffffffff16815260200190815260200160002060000160008381526020019081526020016000206000018190555042600d60003373ffffffffffffffffffffffffffffffffffffffff1673ffffffffffffffffffffffffffffffffffffffff168152602001908152602001600020600001600083815260200190815260200160002060020181905550600a544261085791906128ee565b600d60003373ffffffffffffffffffffffffffffffffffffffff1673ffffffffffffffffffffffffffffffffffffffff16815260200190815260200160002060000160008381526020019081526020016000206001018190555080600d60003373ffffffffffffffffffffffffffffffffffffffff1673ffffffffffffffffffffffffffffffffffffffff16815260200190815260200160002060000160008381526020019081526020016000206003018190555083600d60003373ffffffffffffffffffffffffffffffffffffffff1673ffffffffffffffffffffffffffffffffffffffff168152602001908152602001600020600601600082825461095e91906128ee565b92505081905550600d60003373ffffffffffffffffffffffffffffffffffffffff1673ffffffffffffffffffffffffffffffffffffffff16815260200190815260200160002060050160008154809291906109b890612a4b565b919050555083600b60008282546109cf91906128ee565b92505081905550600073ffffffffffffffffffffffffffffffffffffffff168373ffffffffffffffffffffffffffffffffffffffff161480610a3c57503373ffffffffffffffffffffffffffffffffffffffff168373ffffffffffffffffffffffffffffffffffffffff16145b15610ac8576000600d60003373ffffffffffffffffffffffffffffffffffffffff1673ffffffffffffffffffffffffffffffffffffffff16815260200190815260200160002060020160006101000a81548173ffffffffffffffffffffffffffffffffffffffff021916908373ffffffffffffffffffffffffffffffffffffffff160217905550610bf7565b82600d60003373ffffffffffffffffffffffffffffffffffffffff1673ffffffffffffffffffffffffffffffffffffffff16815260200190815260200160002060020160006101000a81548173ffffffffffffffffffffffffffffffffffffffff021916908373ffffffffffffffffffffffffffffffffffffffff160217905550600d60008473ffffffffffffffffffffffffffffffffffffffff1673ffffffffffffffffffffffffffffffffffffffff168152602001908152602001600020600101339080600181540180825580915050600190039060005260206000200160009091909190916101000a81548173ffffffffffffffffffffffffffffffffffffffff021916908373ffffffffffffffffffffffffffffffffffffffff160217905550610bf63385611ddc565b5b6001600d60003373ffffffffffffffffffffffffffffffffffffffff1673ffffffffffffffffffffffffffffffffffffffff16815260200190815260200160002060080160006101000a81548160ff021916908315150217905550600191505092915050565b8060078190555050565b60606000600d60003373ffffffffffffffffffffffffffffffffffffffff1673ffffffffffffffffffffffffffffffffffffffff16815260200190815260200160002060050154905060008060005b83811015610d3f576000600d60003373ffffffffffffffffffffffffffffffffffffffff1673ffffffffffffffffffffffffffffffffffffffff1681526020019081526020016000206000016000838152602001908152602001600020600001541115610d2c578280610d2890612a4b565b9350505b8080610d3790612a4b565b915050610cb6565b5060008267ffffffffffffffff811115610d5c57610d5b612b21565b5b604051908082528060200260200182016040528015610d9557816020015b610d826121bb565b815260200190600190039081610d7a5790505b50905060005b84811015610eed576000600d60003373ffffffffffffffffffffffffffffffffffffffff1673ffffffffffffffffffffffffffffffffffffffff1681526020019081526020016000206000016000838152602001908152602001600020600001541115610eda57600d60003373ffffffffffffffffffffffffffffffffffffffff1673ffffffffffffffffffffffffffffffffffffffff16815260200190815260200160002060000160008281526020019081526020016000206040518060c001604052908160008201548152602001600182015481526020016002820154815260200160038201548152602001600482015481526020016005820160009054906101000a900460ff161515151581525050828481518110610ec057610ebf612af2565b5b60200260200101819052508280610ed690612a4b565b9350505b8080610ee590612a4b565b915050610d9b565b508094505050505090565b6000806000806000600d60003373ffffffffffffffffffffffffffffffffffffffff1673ffffffffffffffffffffffffffffffffffffffff16815260200190815260200160002060050154905060005b8181101561119657600d60003373ffffffffffffffffffffffffffffffffffffffff1673ffffffffffffffffffffffffffffffffffffffff168152602001908152602001600020600001600082815260200190815260200160002060050160009054906101000a900460ff1661102157600d60003373ffffffffffffffffffffffffffffffffffffffff1673ffffffffffffffffffffffffffffffffffffffff1681526020019081526020016000206000016000828152602001908152602001600020600201544261101a91906129cf565b93506110dc565b600d60003373ffffffffffffffffffffffffffffffffffffffff1673ffffffffffffffffffffffffffffffffffffffff168152602001908152602001600020600001600082815260200190815260200160002060020154600d60003373ffffffffffffffffffffffffffffffffffffffff1673ffffffffffffffffffffffffffffffffffffffff1681526020019081526020016000206000016000838152602001908152602001600020600401546110d991906129cf565b93505b62015180846110eb9190612944565b9350600084111561118357600954600654600d60003373ffffffffffffffffffffffffffffffffffffffff1673ffffffffffffffffffffffffffffffffffffffff16815260200190815260200160002060000160008481526020019081526020016000206000015461115d9190612975565b6111679190612944565b925082846111759190612975565b8561118091906128ee565b94505b808061118e90612a4b565b915050610f48565b50600d60003373ffffffffffffffffffffffffffffffffffffffff1673ffffffffffffffffffffffffffffffffffffffff16815260200190815260200160002060070154846111e591906129cf565b93508394505050505090565b8260088190555083600781905550816006819055508060098190555050505050565b8060088190555050565b600a5481565b600080600d60003373ffffffffffffffffffffffffffffffffffffffff1673ffffffffffffffffffffffffffffffffffffffff16815260200190815260200160002060060154116112a9576040517f08c379a00000000000000000000000000000000000000000000000000000000081526004016112a090612797565b60405180910390fd5b6000600d60003373ffffffffffffffffffffffffffffffffffffffff1673ffffffffffffffffffffffffffffffffffffffff1681526020019081526020016000206006015490506000600d60003373ffffffffffffffffffffffffffffffffffffffff1673ffffffffffffffffffffffffffffffffffffffff1681526020019081526020016000206005015490506000600c54905060008042600d60003373ffffffffffffffffffffffffffffffffffffffff1673ffffffffffffffffffffffffffffffffffffffff168152602001908152602001600020600901541115611564576064601e8661139a9190612975565b6113a49190612944565b915060646046866113b59190612975565b6113bf9190612944565b9050600160009054906101000a900473ffffffffffffffffffffffffffffffffffffffff1673ffffffffffffffffffffffffffffffffffffffff1663a9059cbb336305f5e100856114109190612975565b6040518363ffffffff1660e01b815260040161142d92919061267e565b602060405180830381600087803b15801561144757600080fd5b505af115801561145b573d6000803e3d6000fd5b505050506040513d601f19601f8201168201806040525081019061147f919061225f565b50600160009054906101000a900473ffffffffffffffffffffffffffffffffffffffff1673ffffffffffffffffffffffffffffffffffffffff1663a9059cbb60008054906101000a900473ffffffffffffffffffffffffffffffffffffffff166305f5e100846114ef9190612975565b6040518363ffffffff1660e01b815260040161150c92919061267e565b602060405180830381600087803b15801561152657600080fd5b505af115801561153a573d6000803e3d6000fd5b505050506040513d601f19601f8201168201806040525081019061155e919061225f565b50611624565b600160009054906101000a900473ffffffffffffffffffffffffffffffffffffffff1673ffffffffffffffffffffffffffffffffffffffff1663a9059cbb336305f5e100886115b39190612975565b6040518363ffffffff1660e01b81526004016115d092919061267e565b602060405180830381600087803b1580156115ea57600080fd5b505af11580156115fe573d6000803e3d6000fd5b505050506040513d601f19601f82011682018060405250810190611622919061225f565b505b600092505b8383101561170e576001600d60003373ffffffffffffffffffffffffffffffffffffffff1673ffffffffffffffffffffffffffffffffffffffff168152602001908152602001600020600001600085815260200190815260200160002060050160006101000a81548160ff02191690831515021790555042600d60003373ffffffffffffffffffffffffffffffffffffffff1673ffffffffffffffffffffffffffffffffffffffff168152602001908152602001600020600001600085815260200190815260200160002060040181905550828061170690612a4b565b935050611629565b600d60003373ffffffffffffffffffffffffffffffffffffffff1673ffffffffffffffffffffffffffffffffffffffff16815260200190815260200160002060050154600c819055506000600d60003373ffffffffffffffffffffffffffffffffffffffff1673ffffffffffffffffffffffffffffffffffffffff1681526020019081526020016000206006018190555060019550505050505090565b60008054906101000a900473ffffffffffffffffffffffffffffffffffffffff1681565b6000600d60003373ffffffffffffffffffffffffffffffffffffffff1673ffffffffffffffffffffffffffffffffffffffff16815260200190815260200160002060060154905090565b60095481565b60035481565b81600681905550806009819055505050565b60606000601467ffffffffffffffff81111561185657611855612b21565b5b6040519080825280602002602001820160405280156118845781602001602082028036833780820191505090505b50905060005b60148110156119a2576000600d60003373ffffffffffffffffffffffffffffffffffffffff1673ffffffffffffffffffffffffffffffffffffffff168152602001908152602001600020600301600083815260200190815260200160002060000154111561196d57600d60003373ffffffffffffffffffffffffffffffffffffffff1673ffffffffffffffffffffffffffffffffffffffff16815260200190815260200160002060030160008281526020019081526020016000206000015482828151811061195c5761195b612af2565b5b60200260200101818152505061198f565b600082828151811061198257611981612af2565b5b6020026020010181815250505b808061199a90612a4b565b91505061188a565b508091505090565b60045481565b60075481565b6000806119c1610ef8565b905060008111611a06576040517f08c379a00000000000000000000000000000000000000000000000000000000081526004016119fd906127d7565b60405180910390fd5b600260009054906101000a900473ffffffffffffffffffffffffffffffffffffffff1673ffffffffffffffffffffffffffffffffffffffff1663a9059cbb33836040518363ffffffff1660e01b8152600401611a6392919061267e565b602060405180830381600087803b158015611a7d57600080fd5b505af1158015611a91573d6000803e3d6000fd5b505050506040513d601f19601f82011682018060405250810190611ab5919061225f565b5080600d60003373ffffffffffffffffffffffffffffffffffffffff1673ffffffffffffffffffffffffffffffffffffffff1681526020019081526020016000206007016000828254611b0891906128ee565b92505081905550600191505090565b600d6020528060005260406000206000915090508060020160009054906101000a900473ffffffffffffffffffffffffffffffffffffffff16908060040154908060050154908060060154908060070154908060080160009054906101000a900460ff16908060090154905087565b600b5481565b60008054906101000a900473ffffffffffffffffffffffffffffffffffffffff1673ffffffffffffffffffffffffffffffffffffffff163373ffffffffffffffffffffffffffffffffffffffff1614611c1a576040517f08c379a0000000000000000000000000000000000000000000000000000000008152600401611c11906127f7565b60405180910390fd5b806000806101000a81548173ffffffffffffffffffffffffffffffffffffffff021916908373ffffffffffffffffffffffffffffffffffffffff16021790555050565b60606000601467ffffffffffffffff811115611c7c57611c7b612b21565b5b604051908082528060200260200182016040528015611caa5781602001602082028036833780820191505090505b50905060005b6014811015611dc8576000600d60003373ffffffffffffffffffffffffffffffffffffffff1673ffffffffffffffffffffffffffffffffffffffff1681526020019081526020016000206003016000838152602001908152602001600020600001541115611d9357600d60003373ffffffffffffffffffffffffffffffffffffffff1673ffffffffffffffffffffffffffffffffffffffff168152602001908152602001600020600301600082815260200190815260200160002060010154828281518110611d8257611d81612af2565b5b602002602001018181525050611db5565b6000828281518110611da857611da7612af2565b5b6020026020010181815250505b8080611dc090612a4b565b915050611cb0565b508091505090565b60065481565b60085481565b60008290506000600567ffffffffffffffff811115611dfe57611dfd612b21565b5b604051908082528060200260200182016040528015611e2c5781602001602082028036833780820191505090505b509050600181600081518110611e4557611e44612af2565b5b602002602001018181525050600381600181518110611e6757611e66612af2565b5b602002602001018181525050600281600281518110611e8957611e88612af2565b5b602002602001018181525050600181600381518110611eab57611eaa612af2565b5b602002602001018181525050600181600481518110611ecd57611ecc612af2565b5b602002602001018181525050600080600090505b60148110156121b357806004819055506000811415611f035760009150611f4b565b6001811415611f155760019150611f4a565b6002811415611f275760029150611f49565b6002811115611f395760039150611f48565b6007811115611f4757600491505b5b5b5b5b600073ffffffffffffffffffffffffffffffffffffffff16600d60008673ffffffffffffffffffffffffffffffffffffffff1673ffffffffffffffffffffffffffffffffffffffff16815260200190815260200160002060020160009054906101000a900473ffffffffffffffffffffffffffffffffffffffff1673ffffffffffffffffffffffffffffffffffffffff161461219b57600d60008573ffffffffffffffffffffffffffffffffffffffff1673ffffffffffffffffffffffffffffffffffffffff16815260200190815260200160002060020160009054906101000a900473ffffffffffffffffffffffffffffffffffffffff16935060006064866305f5e10086868151811061206357612062612af2565b5b60200260200101516120759190612975565b61207f9190612975565b6120899190612944565b905060008314156120bc576002816120a19190612944565b9050600360008154809291906120b690612a4b565b91905055505b80600d60008773ffffffffffffffffffffffffffffffffffffffff1673ffffffffffffffffffffffffffffffffffffffff1681526020019081526020016000206003016000848152602001908152602001600020600001600082825461212291906128ee565b92505081905550600d60008673ffffffffffffffffffffffffffffffffffffffff1673ffffffffffffffffffffffffffffffffffffffff1681526020019081526020016000206003016000838152602001908152602001600020600101600081548092919061219090612a4b565b9190505550506121a0565b6121b3565b80806121ab90612a4b565b915050611ee1565b505050505050565b6040518060c0016040528060008152602001600081526020016000815260200160008152602001600081526020016000151581525090565b60008135905061220281612c91565b92915050565b60008151905061221781612ca8565b92915050565b60008135905061222c81612cbf565b92915050565b60006020828403121561224857612247612b50565b5b6000612256848285016121f3565b91505092915050565b60006020828403121561227557612274612b50565b5b600061228384828501612208565b91505092915050565b6000602082840312156122a2576122a1612b50565b5b60006122b08482850161221d565b91505092915050565b600080604083850312156122d0576122cf612b50565b5b60006122de8582860161221d565b92505060206122ef858286016121f3565b9150509250929050565b600080604083850312156123105761230f612b50565b5b600061231e8582860161221d565b925050602061232f8582860161221d565b9150509250929050565b6000806000806080858703121561235357612352612b50565b5b60006123618782880161221d565b94505060206123728782880161221d565b93505060406123838782880161221d565b92505060606123948782880161221d565b91505092959194509250565b60006123ac83836123e8565b60208301905092915050565b60006123c483836125ca565b60c08301905092915050565b60006123dc8383612645565b60208301905092915050565b6123f181612a03565b82525050565b61240081612a03565b82525050565b600061241182612862565b61241b81856128aa565b935061242683612832565b8060005b8381101561245757815161243e88826123a0565b975061244983612883565b92505060018101905061242a565b5085935050505092915050565b600061246f8261286d565b61247981856128bb565b935061248483612842565b8060005b838110156124b557815161249c88826123b8565b97506124a783612890565b925050600181019050612488565b5085935050505092915050565b60006124cd82612878565b6124d781856128cc565b93506124e283612852565b8060005b838110156125135781516124fa88826123d0565b97506125058361289d565b9250506001810190506124e6565b5085935050505092915050565b61252981612a15565b82525050565b61253881612a15565b82525050565b600061254b6025836128dd565b915061255682612b55565b604082019050919050565b600061256e6035836128dd565b915061257982612ba4565b604082019050919050565b60006125916022836128dd565b915061259c82612bf3565b604082019050919050565b60006125b46021836128dd565b91506125bf82612c42565b604082019050919050565b60c0820160008201516125e06000850182612645565b5060208201516125f36020850182612645565b5060408201516126066040850182612645565b5060608201516126196060850182612645565b50608082015161262c6080850182612645565b5060a082015161263f60a0850182612520565b50505050565b61264e81612a41565b82525050565b61265d81612a41565b82525050565b600060208201905061267860008301846123f7565b92915050565b600060408201905061269360008301856123f7565b6126a06020830184612654565b9392505050565b600060e0820190506126bc600083018a6123f7565b6126c96020830189612654565b6126d66040830188612654565b6126e36060830187612654565b6126f06080830186612654565b6126fd60a083018561252f565b61270a60c0830184612654565b98975050505050505050565b600060208201905081810360008301526127308184612406565b905092915050565b600060208201905081810360008301526127528184612464565b905092915050565b6000602082019050818103600083015261277481846124c2565b905092915050565b6000602082019050612791600083018461252f565b92915050565b600060208201905081810360008301526127b08161253e565b9050919050565b600060208201905081810360008301526127d081612561565b9050919050565b600060208201905081810360008301526127f081612584565b9050919050565b60006020820190508181036000830152612810816125a7565b9050919050565b600060208201905061282c6000830184612654565b92915050565b6000819050602082019050919050565b6000819050602082019050919050565b6000819050602082019050919050565b600081519050919050565b600081519050919050565b600081519050919050565b6000602082019050919050565b6000602082019050919050565b6000602082019050919050565b600082825260208201905092915050565b600082825260208201905092915050565b600082825260208201905092915050565b600082825260208201905092915050565b60006128f982612a41565b915061290483612a41565b9250827fffffffffffffffffffffffffffffffffffffffffffffffffffffffffffffffff0382111561293957612938612a94565b5b828201905092915050565b600061294f82612a41565b915061295a83612a41565b92508261296a57612969612ac3565b5b828204905092915050565b600061298082612a41565b915061298b83612a41565b9250817fffffffffffffffffffffffffffffffffffffffffffffffffffffffffffffffff04831182151516156129c4576129c3612a94565b5b828202905092915050565b60006129da82612a41565b91506129e583612a41565b9250828210156129f8576129f7612a94565b5b828203905092915050565b6000612a0e82612a21565b9050919050565b60008115159050919050565b600073ffffffffffffffffffffffffffffffffffffffff82169050919050565b6000819050919050565b6000612a5682612a41565b91507fffffffffffffffffffffffffffffffffffffffffffffffffffffffffffffffff821415612a8957612a88612a94565b5b600182019050919050565b7f4e487b7100000000000000000000000000000000000000000000000000000000600052601160045260246000fd5b7f4e487b7100000000000000000000000000000000000000000000000000000000600052601260045260246000fd5b7f4e487b7100000000000000000000000000000000000000000000000000000000600052603260045260246000fd5b7f4e487b7100000000000000000000000000000000000000000000000000000000600052604160045260246000fd5b600080fd5b7f796f7520646f6e74206861766520696e766573746d656e7420746f207769746860008201527f647261776e000000000000000000000000000000000000000000000000000000602082015250565b7f76616c7565206973206e6f742067726561746572207468616e2031303030302060008201527f616e64206c657373207468616e20353030303030300000000000000000000000602082015250565b7f796f7520646f6e742068617665207265776172647320746f207769746864726160008201527f776e000000000000000000000000000000000000000000000000000000000000602082015250565b7f6f6e6c79204f776e65722063616e2063616c6c20746869732066756e6374696f60008201527f6e00000000000000000000000000000000000000000000000000000000000000602082015250565b612c9a81612a03565b8114612ca557600080fd5b50565b612cb181612a15565b8114612cbc57600080fd5b50565b612cc881612a41565b8114612cd357600080fd5b5056fea2646970667358221220e39387cf9adb0db96a4513eec2bcb15985c48ec32c7f18cefda2853f9cc045f364736f6c63430008070033",
					"opcodes": "PUSH1 0x80 PUSH1 0x40 MSTORE PUSH20 0x4D00DDCC526C14FD353131F289B1E62C856E9737 PUSH1 0x1 PUSH1 0x0 PUSH2 0x100 EXP DUP2 SLOAD DUP2 PUSH20 0xFFFFFFFFFFFFFFFFFFFFFFFFFFFFFFFFFFFFFFFF MUL NOT AND SWAP1 DUP4 PUSH20 0xFFFFFFFFFFFFFFFFFFFFFFFFFFFFFFFFFFFFFFFF AND MUL OR SWAP1 SSTORE POP PUSH20 0xE9E7CEA3DEDCA5984780BAFC599BD69ADD087D56 PUSH1 0x2 PUSH1 0x0 PUSH2 0x100 EXP DUP2 SLOAD DUP2 PUSH20 0xFFFFFFFFFFFFFFFFFFFFFFFFFFFFFFFFFFFFFFFF MUL NOT AND SWAP1 DUP4 PUSH20 0xFFFFFFFFFFFFFFFFFFFFFFFFFFFFFFFFFFFFFFFF AND MUL OR SWAP1 SSTORE POP PUSH8 0x4563918244F40000 PUSH1 0x6 SSTORE PUSH2 0x2710 PUSH1 0x7 SSTORE PUSH3 0x4C4B40 PUSH1 0x8 SSTORE PUSH3 0x186A0 PUSH1 0x9 SSTORE PUSH4 0x18B8200 PUSH1 0xA SSTORE CALLVALUE DUP1 ISZERO PUSH2 0xE2 JUMPI PUSH1 0x0 DUP1 REVERT JUMPDEST POP CALLER PUSH1 0x0 DUP1 PUSH2 0x100 EXP DUP2 SLOAD DUP2 PUSH20 0xFFFFFFFFFFFFFFFFFFFFFFFFFFFFFFFFFFFFFFFF MUL NOT AND SWAP1 DUP4 PUSH20 0xFFFFFFFFFFFFFFFFFFFFFFFFFFFFFFFFFFFFFFFF AND MUL OR SWAP1 SSTORE POP PUSH2 0x2D0C DUP1 PUSH2 0x132 PUSH1 0x0 CODECOPY PUSH1 0x0 RETURN INVALID PUSH1 0x80 PUSH1 0x40 MSTORE CALLVALUE DUP1 ISZERO PUSH2 0x10 JUMPI PUSH1 0x0 DUP1 REVERT JUMPDEST POP PUSH1 0x4 CALLDATASIZE LT PUSH2 0x18E JUMPI PUSH1 0x0 CALLDATALOAD PUSH1 0xE0 SHR DUP1 PUSH4 0x9740A1BC GT PUSH2 0xDE JUMPI DUP1 PUSH4 0xC885BC58 GT PUSH2 0x97 JUMPI DUP1 PUSH4 0xF2FDE38B GT PUSH2 0x71 JUMPI DUP1 PUSH4 0xF2FDE38B EQ PUSH2 0x449 JUMPI DUP1 PUSH4 0xF790B81A EQ PUSH2 0x465 JUMPI DUP1 PUSH4 0xF7C618C1 EQ PUSH2 0x483 JUMPI DUP1 PUSH4 0xFAE730BC EQ PUSH2 0x4A1 JUMPI PUSH2 0x18E JUMP JUMPDEST DUP1 PUSH4 0xC885BC58 EQ PUSH2 0x3D7 JUMPI DUP1 PUSH4 0xD3560EE8 EQ PUSH2 0x3F5 JUMPI DUP1 PUSH4 0xE2033FCB EQ PUSH2 0x42B JUMPI PUSH2 0x18E JUMP JUMPDEST DUP1 PUSH4 0x9740A1BC EQ PUSH2 0x325 JUMPI DUP1 PUSH4 0x9A5BB417 EQ PUSH2 0x343 JUMPI DUP1 PUSH4 0xA47BD496 EQ PUSH2 0x361 JUMPI DUP1 PUSH4 0xA61BE99D EQ PUSH2 0x37D JUMPI DUP1 PUSH4 0xB8DF2D0E EQ PUSH2 0x39B JUMPI DUP1 PUSH4 0xBC67EAFF EQ PUSH2 0x3B9 JUMPI PUSH2 0x18E JUMP JUMPDEST DUP1 PUSH4 0x3D18B912 GT PUSH2 0x14B JUMPI DUP1 PUSH4 0x523CDDFE GT PUSH2 0x125 JUMPI DUP1 PUSH4 0x523CDDFE EQ PUSH2 0x2AD JUMPI DUP1 PUSH4 0x73CF575A EQ PUSH2 0x2CB JUMPI DUP1 PUSH4 0x8DA5CB5B EQ PUSH2 0x2E9 JUMPI DUP1 PUSH4 0x929F6BBE EQ PUSH2 0x307 JUMPI PUSH2 0x18E JUMP JUMPDEST DUP1 PUSH4 0x3D18B912 EQ PUSH2 0x257 JUMPI DUP1 PUSH4 0x4EB1ECC9 EQ PUSH2 0x275 JUMPI DUP1 PUSH4 0x500CB85F EQ PUSH2 0x291 JUMPI PUSH2 0x18E JUMP JUMPDEST DUP1 PUSH4 0xC5F58F4 EQ PUSH2 0x193 JUMPI DUP1 PUSH4 0x10CDE60A EQ PUSH2 0x1B1 JUMPI DUP1 PUSH4 0x1E8ABA35 EQ PUSH2 0x1CF JUMPI DUP1 PUSH4 0x2BCCDCE6 EQ PUSH2 0x1ED JUMPI DUP1 PUSH4 0x32D4E783 EQ PUSH2 0x21D JUMPI DUP1 PUSH4 0x3A1E0833 EQ PUSH2 0x239 JUMPI JUMPDEST PUSH1 0x0 DUP1 REVERT JUMPDEST PUSH2 0x19B PUSH2 0x4BF JUMP JUMPDEST PUSH1 0x40 MLOAD PUSH2 0x1A8 SWAP2 SWAP1 PUSH2 0x2716 JUMP JUMPDEST PUSH1 0x40 MLOAD DUP1 SWAP2 SUB SWAP1 RETURN JUMPDEST PUSH2 0x1B9 PUSH2 0x58D JUMP JUMPDEST PUSH1 0x40 MLOAD PUSH2 0x1C6 SWAP2 SWAP1 PUSH2 0x2817 JUMP JUMPDEST PUSH1 0x40 MLOAD DUP1 SWAP2 SUB SWAP1 RETURN JUMPDEST PUSH2 0x1D7 PUSH2 0x593 JUMP JUMPDEST PUSH1 0x40 MLOAD PUSH2 0x1E4 SWAP2 SWAP1 PUSH2 0x2817 JUMP JUMPDEST PUSH1 0x40 MLOAD DUP1 SWAP2 SUB SWAP1 RETURN JUMPDEST PUSH2 0x207 PUSH1 0x4 DUP1 CALLDATASIZE SUB DUP2 ADD SWAP1 PUSH2 0x202 SWAP2 SWAP1 PUSH2 0x22B9 JUMP JUMPDEST PUSH2 0x5E0 JUMP JUMPDEST PUSH1 0x40 MLOAD PUSH2 0x214 SWAP2 SWAP1 PUSH2 0x277C JUMP JUMPDEST PUSH1 0x40 MLOAD DUP1 SWAP2 SUB SWAP1 RETURN JUMPDEST PUSH2 0x237 PUSH1 0x4 DUP1 CALLDATASIZE SUB DUP2 ADD SWAP1 PUSH2 0x232 SWAP2 SWAP1 PUSH2 0x228C JUMP JUMPDEST PUSH2 0xC5D JUMP JUMPDEST STOP JUMPDEST PUSH2 0x241 PUSH2 0xC67 JUMP JUMPDEST PUSH1 0x40 MLOAD PUSH2 0x24E SWAP2 SWAP1 PUSH2 0x2738 JUMP JUMPDEST PUSH1 0x40 MLOAD DUP1 SWAP2 SUB SWAP1 RETURN JUMPDEST PUSH2 0x25F PUSH2 0xEF8 JUMP JUMPDEST PUSH1 0x40 MLOAD PUSH2 0x26C SWAP2 SWAP1 PUSH2 0x2817 JUMP JUMPDEST PUSH1 0x40 MLOAD DUP1 SWAP2 SUB SWAP1 RETURN JUMPDEST PUSH2 0x28F PUSH1 0x4 DUP1 CALLDATASIZE SUB DUP2 ADD SWAP1 PUSH2 0x28A SWAP2 SWAP1 PUSH2 0x2339 JUMP JUMPDEST PUSH2 0x11F1 JUMP JUMPDEST STOP JUMPDEST PUSH2 0x2AB PUSH1 0x4 DUP1 CALLDATASIZE SUB DUP2 ADD SWAP1 PUSH2 0x2A6 SWAP2 SWAP1 PUSH2 0x228C JUMP JUMPDEST PUSH2 0x1213 JUMP JUMPDEST STOP JUMPDEST PUSH2 0x2B5 PUSH2 0x121D JUMP JUMPDEST PUSH1 0x40 MLOAD PUSH2 0x2C2 SWAP2 SWAP1 PUSH2 0x2817 JUMP JUMPDEST PUSH1 0x40 MLOAD DUP1 SWAP2 SUB SWAP1 RETURN JUMPDEST PUSH2 0x2D3 PUSH2 0x1223 JUMP JUMPDEST PUSH1 0x40 MLOAD PUSH2 0x2E0 SWAP2 SWAP1 PUSH2 0x277C JUMP JUMPDEST PUSH1 0x40 MLOAD DUP1 SWAP2 SUB SWAP1 RETURN JUMPDEST PUSH2 0x2F1 PUSH2 0x17AB JUMP JUMPDEST PUSH1 0x40 MLOAD PUSH2 0x2FE SWAP2 SWAP1 PUSH2 0x2663 JUMP JUMPDEST PUSH1 0x40 MLOAD DUP1 SWAP2 SUB SWAP1 RETURN JUMPDEST PUSH2 0x30F PUSH2 0x17CF JUMP JUMPDEST PUSH1 0x40 MLOAD PUSH2 0x31C SWAP2 SWAP1 PUSH2 0x2817 JUMP JUMPDEST PUSH1 0x40 MLOAD DUP1 SWAP2 SUB SWAP1 RETURN JUMPDEST PUSH2 0x32D PUSH2 0x1819 JUMP JUMPDEST PUSH1 0x40 MLOAD PUSH2 0x33A SWAP2 SWAP1 PUSH2 0x2817 JUMP JUMPDEST PUSH1 0x40 MLOAD DUP1 SWAP2 SUB SWAP1 RETURN JUMPDEST PUSH2 0x34B PUSH2 0x181F JUMP JUMPDEST PUSH1 0x40 MLOAD PUSH2 0x358 SWAP2 SWAP1 PUSH2 0x2817 JUMP JUMPDEST PUSH1 0x40 MLOAD DUP1 SWAP2 SUB SWAP1 RETURN JUMPDEST PUSH2 0x37B PUSH1 0x4 DUP1 CALLDATASIZE SUB DUP2 ADD SWAP1 PUSH2 0x376 SWAP2 SWAP1 PUSH2 0x22F9 JUMP JUMPDEST PUSH2 0x1825 JUMP JUMPDEST STOP JUMPDEST PUSH2 0x385 PUSH2 0x1837 JUMP JUMPDEST PUSH1 0x40 MLOAD PUSH2 0x392 SWAP2 SWAP1 PUSH2 0x275A JUMP JUMPDEST PUSH1 0x40 MLOAD DUP1 SWAP2 SUB SWAP1 RETURN JUMPDEST PUSH2 0x3A3 PUSH2 0x19AA JUMP JUMPDEST PUSH1 0x40 MLOAD PUSH2 0x3B0 SWAP2 SWAP1 PUSH2 0x2817 JUMP JUMPDEST PUSH1 0x40 MLOAD DUP1 SWAP2 SUB SWAP1 RETURN JUMPDEST PUSH2 0x3C1 PUSH2 0x19B0 JUMP JUMPDEST PUSH1 0x40 MLOAD PUSH2 0x3CE SWAP2 SWAP1 PUSH2 0x2817 JUMP JUMPDEST PUSH1 0x40 MLOAD DUP1 SWAP2 SUB SWAP1 RETURN JUMPDEST PUSH2 0x3DF PUSH2 0x19B6 JUMP JUMPDEST PUSH1 0x40 MLOAD PUSH2 0x3EC SWAP2 SWAP1 PUSH2 0x277C JUMP JUMPDEST PUSH1 0x40 MLOAD DUP1 SWAP2 SUB SWAP1 RETURN JUMPDEST PUSH2 0x40F PUSH1 0x4 DUP1 CALLDATASIZE SUB DUP2 ADD SWAP1 PUSH2 0x40A SWAP2 SWAP1 PUSH2 0x2232 JUMP JUMPDEST PUSH2 0x1B17 JUMP JUMPDEST PUSH1 0x40 MLOAD PUSH2 0x422 SWAP8 SWAP7 SWAP6 SWAP5 SWAP4 SWAP3 SWAP2 SWAP1 PUSH2 0x26A7 JUMP JUMPDEST PUSH1 0x40 MLOAD DUP1 SWAP2 SUB SWAP1 RETURN JUMPDEST PUSH2 0x433 PUSH2 0x1B86 JUMP JUMPDEST PUSH1 0x40 MLOAD PUSH2 0x440 SWAP2 SWAP1 PUSH2 0x2817 JUMP JUMPDEST PUSH1 0x40 MLOAD DUP1 SWAP2 SUB SWAP1 RETURN JUMPDEST PUSH2 0x463 PUSH1 0x4 DUP1 CALLDATASIZE SUB DUP2 ADD SWAP1 PUSH2 0x45E SWAP2 SWAP1 PUSH2 0x2232 JUMP JUMPDEST PUSH2 0x1B8C JUMP JUMPDEST STOP JUMPDEST PUSH2 0x46D PUSH2 0x1C5D JUMP JUMPDEST PUSH1 0x40 MLOAD PUSH2 0x47A SWAP2 SWAP1 PUSH2 0x275A JUMP JUMPDEST PUSH1 0x40 MLOAD DUP1 SWAP2 SUB SWAP1 RETURN JUMPDEST PUSH2 0x48B PUSH2 0x1DD0 JUMP JUMPDEST PUSH1 0x40 MLOAD PUSH2 0x498 SWAP2 SWAP1 PUSH2 0x2817 JUMP JUMPDEST PUSH1 0x40 MLOAD DUP1 SWAP2 SUB SWAP1 RETURN JUMPDEST PUSH2 0x4A9 PUSH2 0x1DD6 JUMP JUMPDEST PUSH1 0x40 MLOAD PUSH2 0x4B6 SWAP2 SWAP1 PUSH2 0x2817 JUMP JUMPDEST PUSH1 0x40 MLOAD DUP1 SWAP2 SUB SWAP1 RETURN JUMPDEST PUSH1 0x60 PUSH1 0xD PUSH1 0x0 CALLER PUSH20 0xFFFFFFFFFFFFFFFFFFFFFFFFFFFFFFFFFFFFFFFF AND PUSH20 0xFFFFFFFFFFFFFFFFFFFFFFFFFFFFFFFFFFFFFFFF AND DUP2 MSTORE PUSH1 0x20 ADD SWAP1 DUP2 MSTORE PUSH1 0x20 ADD PUSH1 0x0 KECCAK256 PUSH1 0x1 ADD DUP1 SLOAD DUP1 PUSH1 0x20 MUL PUSH1 0x20 ADD PUSH1 0x40 MLOAD SWAP1 DUP2 ADD PUSH1 0x40 MSTORE DUP1 SWAP3 SWAP2 SWAP1 DUP2 DUP2 MSTORE PUSH1 0x20 ADD DUP3 DUP1 SLOAD DUP1 ISZERO PUSH2 0x583 JUMPI PUSH1 0x20 MUL DUP3 ADD SWAP2 SWAP1 PUSH1 0x0 MSTORE PUSH1 0x20 PUSH1 0x0 KECCAK256 SWAP1 JUMPDEST DUP2 PUSH1 0x0 SWAP1 SLOAD SWAP1 PUSH2 0x100 EXP SWAP1 DIV PUSH20 0xFFFFFFFFFFFFFFFFFFFFFFFFFFFFFFFFFFFFFFFF AND PUSH20 0xFFFFFFFFFFFFFFFFFFFFFFFFFFFFFFFFFFFFFFFF AND DUP2 MSTORE PUSH1 0x20 ADD SWAP1 PUSH1 0x1 ADD SWAP1 DUP1 DUP4 GT PUSH2 0x539 JUMPI JUMPDEST POP POP POP POP POP SWAP1 POP SWAP1 JUMP JUMPDEST PUSH1 0x5 SLOAD DUP2 JUMP JUMPDEST PUSH1 0x0 PUSH1 0xD PUSH1 0x0 CALLER PUSH20 0xFFFFFFFFFFFFFFFFFFFFFFFFFFFFFFFFFFFFFFFF AND PUSH20 0xFFFFFFFFFFFFFFFFFFFFFFFFFFFFFFFFFFFFFFFF AND DUP2 MSTORE PUSH1 0x20 ADD SWAP1 DUP2 MSTORE PUSH1 0x20 ADD PUSH1 0x0 KECCAK256 PUSH1 0x1 ADD DUP1 SLOAD SWAP1 POP SWAP1 POP SWAP1 JUMP JUMPDEST PUSH1 0x0 PUSH1 0x7 SLOAD DUP4 LT ISZERO DUP1 ISZERO PUSH2 0x5F6 JUMPI POP PUSH1 0x8 SLOAD DUP4 GT ISZERO JUMPDEST PUSH2 0x635 JUMPI PUSH1 0x40 MLOAD PUSH32 0x8C379A000000000000000000000000000000000000000000000000000000000 DUP2 MSTORE PUSH1 0x4 ADD PUSH2 0x62C SWAP1 PUSH2 0x27B7 JUMP JUMPDEST PUSH1 0x40 MLOAD DUP1 SWAP2 SUB SWAP1 REVERT JUMPDEST PUSH1 0x0 ISZERO ISZERO PUSH1 0xD PUSH1 0x0 CALLER PUSH20 0xFFFFFFFFFFFFFFFFFFFFFFFFFFFFFFFFFFFFFFFF AND PUSH20 0xFFFFFFFFFFFFFFFFFFFFFFFFFFFFFFFFFFFFFFFF AND DUP2 MSTORE PUSH1 0x20 ADD SWAP1 DUP2 MSTORE PUSH1 0x20 ADD PUSH1 0x0 KECCAK256 PUSH1 0x8 ADD PUSH1 0x0 SWAP1 SLOAD SWAP1 PUSH2 0x100 EXP SWAP1 DIV PUSH1 0xFF AND ISZERO ISZERO EQ ISZERO PUSH2 0x6AA JUMPI PUSH1 0x5 PUSH1 0x0 DUP2 SLOAD DUP1 SWAP3 SWAP2 SWAP1 PUSH2 0x6A4 SWAP1 PUSH2 0x2A4B JUMP JUMPDEST SWAP2 SWAP1 POP SSTORE POP JUMPDEST PUSH1 0x0 PUSH1 0xD PUSH1 0x0 CALLER PUSH20 0xFFFFFFFFFFFFFFFFFFFFFFFFFFFFFFFFFFFFFFFF AND PUSH20 0xFFFFFFFFFFFFFFFFFFFFFFFFFFFFFFFFFFFFFFFF AND DUP2 MSTORE PUSH1 0x20 ADD SWAP1 DUP2 MSTORE PUSH1 0x20 ADD PUSH1 0x0 KECCAK256 PUSH1 0x6 ADD SLOAD EQ ISZERO PUSH2 0x74C JUMPI PUSH4 0x18B8200 TIMESTAMP PUSH2 0x705 SWAP2 SWAP1 PUSH2 0x28EE JUMP JUMPDEST PUSH1 0xD PUSH1 0x0 CALLER PUSH20 0xFFFFFFFFFFFFFFFFFFFFFFFFFFFFFFFFFFFFFFFF AND PUSH20 0xFFFFFFFFFFFFFFFFFFFFFFFFFFFFFFFFFFFFFFFF AND DUP2 MSTORE PUSH1 0x20 ADD SWAP1 DUP2 MSTORE PUSH1 0x20 ADD PUSH1 0x0 KECCAK256 PUSH1 0x9 ADD DUP2 SWAP1 SSTORE POP JUMPDEST PUSH1 0x0 PUSH1 0xD PUSH1 0x0 CALLER PUSH20 0xFFFFFFFFFFFFFFFFFFFFFFFFFFFFFFFFFFFFFFFF AND PUSH20 0xFFFFFFFFFFFFFFFFFFFFFFFFFFFFFFFFFFFFFFFF AND DUP2 MSTORE PUSH1 0x20 ADD SWAP1 DUP2 MSTORE PUSH1 0x20 ADD PUSH1 0x0 KECCAK256 PUSH1 0x5 ADD SLOAD SWAP1 POP DUP4 PUSH1 0xD PUSH1 0x0 CALLER PUSH20 0xFFFFFFFFFFFFFFFFFFFFFFFFFFFFFFFFFFFFFFFF AND PUSH20 0xFFFFFFFFFFFFFFFFFFFFFFFFFFFFFFFFFFFFFFFF AND DUP2 MSTORE PUSH1 0x20 ADD SWAP1 DUP2 MSTORE PUSH1 0x20 ADD PUSH1 0x0 KECCAK256 PUSH1 0x0 ADD PUSH1 0x0 DUP4 DUP2 MSTORE PUSH1 0x20 ADD SWAP1 DUP2 MSTORE PUSH1 0x20 ADD PUSH1 0x0 KECCAK256 PUSH1 0x0 ADD DUP2 SWAP1 SSTORE POP TIMESTAMP PUSH1 0xD PUSH1 0x0 CALLER PUSH20 0xFFFFFFFFFFFFFFFFFFFFFFFFFFFFFFFFFFFFFFFF AND PUSH20 0xFFFFFFFFFFFFFFFFFFFFFFFFFFFFFFFFFFFFFFFF AND DUP2 MSTORE PUSH1 0x20 ADD SWAP1 DUP2 MSTORE PUSH1 0x20 ADD PUSH1 0x0 KECCAK256 PUSH1 0x0 ADD PUSH1 0x0 DUP4 DUP2 MSTORE PUSH1 0x20 ADD SWAP1 DUP2 MSTORE PUSH1 0x20 ADD PUSH1 0x0 KECCAK256 PUSH1 0x2 ADD DUP2 SWAP1 SSTORE POP PUSH1 0xA SLOAD TIMESTAMP PUSH2 0x857 SWAP2 SWAP1 PUSH2 0x28EE JUMP JUMPDEST PUSH1 0xD PUSH1 0x0 CALLER PUSH20 0xFFFFFFFFFFFFFFFFFFFFFFFFFFFFFFFFFFFFFFFF AND PUSH20 0xFFFFFFFFFFFFFFFFFFFFFFFFFFFFFFFFFFFFFFFF AND DUP2 MSTORE PUSH1 0x20 ADD SWAP1 DUP2 MSTORE PUSH1 0x20 ADD PUSH1 0x0 KECCAK256 PUSH1 0x0 ADD PUSH1 0x0 DUP4 DUP2 MSTORE PUSH1 0x20 ADD SWAP1 DUP2 MSTORE PUSH1 0x20 ADD PUSH1 0x0 KECCAK256 PUSH1 0x1 ADD DUP2 SWAP1 SSTORE POP DUP1 PUSH1 0xD PUSH1 0x0 CALLER PUSH20 0xFFFFFFFFFFFFFFFFFFFFFFFFFFFFFFFFFFFFFFFF AND PUSH20 0xFFFFFFFFFFFFFFFFFFFFFFFFFFFFFFFFFFFFFFFF AND DUP2 MSTORE PUSH1 0x20 ADD SWAP1 DUP2 MSTORE PUSH1 0x20 ADD PUSH1 0x0 KECCAK256 PUSH1 0x0 ADD PUSH1 0x0 DUP4 DUP2 MSTORE PUSH1 0x20 ADD SWAP1 DUP2 MSTORE PUSH1 0x20 ADD PUSH1 0x0 KECCAK256 PUSH1 0x3 ADD DUP2 SWAP1 SSTORE POP DUP4 PUSH1 0xD PUSH1 0x0 CALLER PUSH20 0xFFFFFFFFFFFFFFFFFFFFFFFFFFFFFFFFFFFFFFFF AND PUSH20 0xFFFFFFFFFFFFFFFFFFFFFFFFFFFFFFFFFFFFFFFF AND DUP2 MSTORE PUSH1 0x20 ADD SWAP1 DUP2 MSTORE PUSH1 0x20 ADD PUSH1 0x0 KECCAK256 PUSH1 0x6 ADD PUSH1 0x0 DUP3 DUP3 SLOAD PUSH2 0x95E SWAP2 SWAP1 PUSH2 0x28EE JUMP JUMPDEST SWAP3 POP POP DUP2 SWAP1 SSTORE POP PUSH1 0xD PUSH1 0x0 CALLER PUSH20 0xFFFFFFFFFFFFFFFFFFFFFFFFFFFFFFFFFFFFFFFF AND PUSH20 0xFFFFFFFFFFFFFFFFFFFFFFFFFFFFFFFFFFFFFFFF AND DUP2 MSTORE PUSH1 0x20 ADD SWAP1 DUP2 MSTORE PUSH1 0x20 ADD PUSH1 0x0 KECCAK256 PUSH1 0x5 ADD PUSH1 0x0 DUP2 SLOAD DUP1 SWAP3 SWAP2 SWAP1 PUSH2 0x9B8 SWAP1 PUSH2 0x2A4B JUMP JUMPDEST SWAP2 SWAP1 POP SSTORE POP DUP4 PUSH1 0xB PUSH1 0x0 DUP3 DUP3 SLOAD PUSH2 0x9CF SWAP2 SWAP1 PUSH2 0x28EE JUMP JUMPDEST SWAP3 POP POP DUP2 SWAP1 SSTORE POP PUSH1 0x0 PUSH20 0xFFFFFFFFFFFFFFFFFFFFFFFFFFFFFFFFFFFFFFFF AND DUP4 PUSH20 0xFFFFFFFFFFFFFFFFFFFFFFFFFFFFFFFFFFFFFFFF AND EQ DUP1 PUSH2 0xA3C JUMPI POP CALLER PUSH20 0xFFFFFFFFFFFFFFFFFFFFFFFFFFFFFFFFFFFFFFFF AND DUP4 PUSH20 0xFFFFFFFFFFFFFFFFFFFFFFFFFFFFFFFFFFFFFFFF AND EQ JUMPDEST ISZERO PUSH2 0xAC8 JUMPI PUSH1 0x0 PUSH1 0xD PUSH1 0x0 CALLER PUSH20 0xFFFFFFFFFFFFFFFFFFFFFFFFFFFFFFFFFFFFFFFF AND PUSH20 0xFFFFFFFFFFFFFFFFFFFFFFFFFFFFFFFFFFFFFFFF AND DUP2 MSTORE PUSH1 0x20 ADD SWAP1 DUP2 MSTORE PUSH1 0x20 ADD PUSH1 0x0 KECCAK256 PUSH1 0x2 ADD PUSH1 0x0 PUSH2 0x100 EXP DUP2 SLOAD DUP2 PUSH20 0xFFFFFFFFFFFFFFFFFFFFFFFFFFFFFFFFFFFFFFFF MUL NOT AND SWAP1 DUP4 PUSH20 0xFFFFFFFFFFFFFFFFFFFFFFFFFFFFFFFFFFFFFFFF AND MUL OR SWAP1 SSTORE POP PUSH2 0xBF7 JUMP JUMPDEST DUP3 PUSH1 0xD PUSH1 0x0 CALLER PUSH20 0xFFFFFFFFFFFFFFFFFFFFFFFFFFFFFFFFFFFFFFFF AND PUSH20 0xFFFFFFFFFFFFFFFFFFFFFFFFFFFFFFFFFFFFFFFF AND DUP2 MSTORE PUSH1 0x20 ADD SWAP1 DUP2 MSTORE PUSH1 0x20 ADD PUSH1 0x0 KECCAK256 PUSH1 0x2 ADD PUSH1 0x0 PUSH2 0x100 EXP DUP2 SLOAD DUP2 PUSH20 0xFFFFFFFFFFFFFFFFFFFFFFFFFFFFFFFFFFFFFFFF MUL NOT AND SWAP1 DUP4 PUSH20 0xFFFFFFFFFFFFFFFFFFFFFFFFFFFFFFFFFFFFFFFF AND MUL OR SWAP1 SSTORE POP PUSH1 0xD PUSH1 0x0 DUP5 PUSH20 0xFFFFFFFFFFFFFFFFFFFFFFFFFFFFFFFFFFFFFFFF AND PUSH20 0xFFFFFFFFFFFFFFFFFFFFFFFFFFFFFFFFFFFFFFFF AND DUP2 MSTORE PUSH1 0x20 ADD SWAP1 DUP2 MSTORE PUSH1 0x20 ADD PUSH1 0x0 KECCAK256 PUSH1 0x1 ADD CALLER SWAP1 DUP1 PUSH1 0x1 DUP2 SLOAD ADD DUP1 DUP3 SSTORE DUP1 SWAP2 POP POP PUSH1 0x1 SWAP1 SUB SWAP1 PUSH1 0x0 MSTORE PUSH1 0x20 PUSH1 0x0 KECCAK256 ADD PUSH1 0x0 SWAP1 SWAP2 SWAP1 SWAP2 SWAP1 SWAP2 PUSH2 0x100 EXP DUP2 SLOAD DUP2 PUSH20 0xFFFFFFFFFFFFFFFFFFFFFFFFFFFFFFFFFFFFFFFF MUL NOT AND SWAP1 DUP4 PUSH20 0xFFFFFFFFFFFFFFFFFFFFFFFFFFFFFFFFFFFFFFFF AND MUL OR SWAP1 SSTORE POP PUSH2 0xBF6 CALLER DUP6 PUSH2 0x1DDC JUMP JUMPDEST JUMPDEST PUSH1 0x1 PUSH1 0xD PUSH1 0x0 CALLER PUSH20 0xFFFFFFFFFFFFFFFFFFFFFFFFFFFFFFFFFFFFFFFF AND PUSH20 0xFFFFFFFFFFFFFFFFFFFFFFFFFFFFFFFFFFFFFFFF AND DUP2 MSTORE PUSH1 0x20 ADD SWAP1 DUP2 MSTORE PUSH1 0x20 ADD PUSH1 0x0 KECCAK256 PUSH1 0x8 ADD PUSH1 0x0 PUSH2 0x100 EXP DUP2 SLOAD DUP2 PUSH1 0xFF MUL NOT AND SWAP1 DUP4 ISZERO ISZERO MUL OR SWAP1 SSTORE POP PUSH1 0x1 SWAP2 POP POP SWAP3 SWAP2 POP POP JUMP JUMPDEST DUP1 PUSH1 0x7 DUP2 SWAP1 SSTORE POP POP JUMP JUMPDEST PUSH1 0x60 PUSH1 0x0 PUSH1 0xD PUSH1 0x0 CALLER PUSH20 0xFFFFFFFFFFFFFFFFFFFFFFFFFFFFFFFFFFFFFFFF AND PUSH20 0xFFFFFFFFFFFFFFFFFFFFFFFFFFFFFFFFFFFFFFFF AND DUP2 MSTORE PUSH1 0x20 ADD SWAP1 DUP2 MSTORE PUSH1 0x20 ADD PUSH1 0x0 KECCAK256 PUSH1 0x5 ADD SLOAD SWAP1 POP PUSH1 0x0 DUP1 PUSH1 0x0 JUMPDEST DUP4 DUP2 LT ISZERO PUSH2 0xD3F JUMPI PUSH1 0x0 PUSH1 0xD PUSH1 0x0 CALLER PUSH20 0xFFFFFFFFFFFFFFFFFFFFFFFFFFFFFFFFFFFFFFFF AND PUSH20 0xFFFFFFFFFFFFFFFFFFFFFFFFFFFFFFFFFFFFFFFF AND DUP2 MSTORE PUSH1 0x20 ADD SWAP1 DUP2 MSTORE PUSH1 0x20 ADD PUSH1 0x0 KECCAK256 PUSH1 0x0 ADD PUSH1 0x0 DUP4 DUP2 MSTORE PUSH1 0x20 ADD SWAP1 DUP2 MSTORE PUSH1 0x20 ADD PUSH1 0x0 KECCAK256 PUSH1 0x0 ADD SLOAD GT ISZERO PUSH2 0xD2C JUMPI DUP3 DUP1 PUSH2 0xD28 SWAP1 PUSH2 0x2A4B JUMP JUMPDEST SWAP4 POP POP JUMPDEST DUP1 DUP1 PUSH2 0xD37 SWAP1 PUSH2 0x2A4B JUMP JUMPDEST SWAP2 POP POP PUSH2 0xCB6 JUMP JUMPDEST POP PUSH1 0x0 DUP3 PUSH8 0xFFFFFFFFFFFFFFFF DUP2 GT ISZERO PUSH2 0xD5C JUMPI PUSH2 0xD5B PUSH2 0x2B21 JUMP JUMPDEST JUMPDEST PUSH1 0x40 MLOAD SWAP1 DUP1 DUP3 MSTORE DUP1 PUSH1 0x20 MUL PUSH1 0x20 ADD DUP3 ADD PUSH1 0x40 MSTORE DUP1 ISZERO PUSH2 0xD95 JUMPI DUP2 PUSH1 0x20 ADD JUMPDEST PUSH2 0xD82 PUSH2 0x21BB JUMP JUMPDEST DUP2 MSTORE PUSH1 0x20 ADD SWAP1 PUSH1 0x1 SWAP1 SUB SWAP1 DUP2 PUSH2 0xD7A JUMPI SWAP1 POP JUMPDEST POP SWAP1 POP PUSH1 0x0 JUMPDEST DUP5 DUP2 LT ISZERO PUSH2 0xEED JUMPI PUSH1 0x0 PUSH1 0xD PUSH1 0x0 CALLER PUSH20 0xFFFFFFFFFFFFFFFFFFFFFFFFFFFFFFFFFFFFFFFF AND PUSH20 0xFFFFFFFFFFFFFFFFFFFFFFFFFFFFFFFFFFFFFFFF AND DUP2 MSTORE PUSH1 0x20 ADD SWAP1 DUP2 MSTORE PUSH1 0x20 ADD PUSH1 0x0 KECCAK256 PUSH1 0x0 ADD PUSH1 0x0 DUP4 DUP2 MSTORE PUSH1 0x20 ADD SWAP1 DUP2 MSTORE PUSH1 0x20 ADD PUSH1 0x0 KECCAK256 PUSH1 0x0 ADD SLOAD GT ISZERO PUSH2 0xEDA JUMPI PUSH1 0xD PUSH1 0x0 CALLER PUSH20 0xFFFFFFFFFFFFFFFFFFFFFFFFFFFFFFFFFFFFFFFF AND PUSH20 0xFFFFFFFFFFFFFFFFFFFFFFFFFFFFFFFFFFFFFFFF AND DUP2 MSTORE PUSH1 0x20 ADD SWAP1 DUP2 MSTORE PUSH1 0x20 ADD PUSH1 0x0 KECCAK256 PUSH1 0x0 ADD PUSH1 0x0 DUP3 DUP2 MSTORE PUSH1 0x20 ADD SWAP1 DUP2 MSTORE PUSH1 0x20 ADD PUSH1 0x0 KECCAK256 PUSH1 0x40 MLOAD DUP1 PUSH1 0xC0 ADD PUSH1 0x40 MSTORE SWAP1 DUP2 PUSH1 0x0 DUP3 ADD SLOAD DUP2 MSTORE PUSH1 0x20 ADD PUSH1 0x1 DUP3 ADD SLOAD DUP2 MSTORE PUSH1 0x20 ADD PUSH1 0x2 DUP3 ADD SLOAD DUP2 MSTORE PUSH1 0x20 ADD PUSH1 0x3 DUP3 ADD SLOAD DUP2 MSTORE PUSH1 0x20 ADD PUSH1 0x4 DUP3 ADD SLOAD DUP2 MSTORE PUSH1 0x20 ADD PUSH1 0x5 DUP3 ADD PUSH1 0x0 SWAP1 SLOAD SWAP1 PUSH2 0x100 EXP SWAP1 DIV PUSH1 0xFF AND ISZERO ISZERO ISZERO ISZERO DUP2 MSTORE POP POP DUP3 DUP5 DUP2 MLOAD DUP2 LT PUSH2 0xEC0 JUMPI PUSH2 0xEBF PUSH2 0x2AF2 JUMP JUMPDEST JUMPDEST PUSH1 0x20 MUL PUSH1 0x20 ADD ADD DUP2 SWAP1 MSTORE POP DUP3 DUP1 PUSH2 0xED6 SWAP1 PUSH2 0x2A4B JUMP JUMPDEST SWAP4 POP POP JUMPDEST DUP1 DUP1 PUSH2 0xEE5 SWAP1 PUSH2 0x2A4B JUMP JUMPDEST SWAP2 POP POP PUSH2 0xD9B JUMP JUMPDEST POP DUP1 SWAP5 POP POP POP POP POP SWAP1 JUMP JUMPDEST PUSH1 0x0 DUP1 PUSH1 0x0 DUP1 PUSH1 0x0 PUSH1 0xD PUSH1 0x0 CALLER PUSH20 0xFFFFFFFFFFFFFFFFFFFFFFFFFFFFFFFFFFFFFFFF AND PUSH20 0xFFFFFFFFFFFFFFFFFFFFFFFFFFFFFFFFFFFFFFFF AND DUP2 MSTORE PUSH1 0x20 ADD SWAP1 DUP2 MSTORE PUSH1 0x20 ADD PUSH1 0x0 KECCAK256 PUSH1 0x5 ADD SLOAD SWAP1 POP PUSH1 0x0 JUMPDEST DUP2 DUP2 LT ISZERO PUSH2 0x1196 JUMPI PUSH1 0xD PUSH1 0x0 CALLER PUSH20 0xFFFFFFFFFFFFFFFFFFFFFFFFFFFFFFFFFFFFFFFF AND PUSH20 0xFFFFFFFFFFFFFFFFFFFFFFFFFFFFFFFFFFFFFFFF AND DUP2 MSTORE PUSH1 0x20 ADD SWAP1 DUP2 MSTORE PUSH1 0x20 ADD PUSH1 0x0 KECCAK256 PUSH1 0x0 ADD PUSH1 0x0 DUP3 DUP2 MSTORE PUSH1 0x20 ADD SWAP1 DUP2 MSTORE PUSH1 0x20 ADD PUSH1 0x0 KECCAK256 PUSH1 0x5 ADD PUSH1 0x0 SWAP1 SLOAD SWAP1 PUSH2 0x100 EXP SWAP1 DIV PUSH1 0xFF AND PUSH2 0x1021 JUMPI PUSH1 0xD PUSH1 0x0 CALLER PUSH20 0xFFFFFFFFFFFFFFFFFFFFFFFFFFFFFFFFFFFFFFFF AND PUSH20 0xFFFFFFFFFFFFFFFFFFFFFFFFFFFFFFFFFFFFFFFF AND DUP2 MSTORE PUSH1 0x20 ADD SWAP1 DUP2 MSTORE PUSH1 0x20 ADD PUSH1 0x0 KECCAK256 PUSH1 0x0 ADD PUSH1 0x0 DUP3 DUP2 MSTORE PUSH1 0x20 ADD SWAP1 DUP2 MSTORE PUSH1 0x20 ADD PUSH1 0x0 KECCAK256 PUSH1 0x2 ADD SLOAD TIMESTAMP PUSH2 0x101A SWAP2 SWAP1 PUSH2 0x29CF JUMP JUMPDEST SWAP4 POP PUSH2 0x10DC JUMP JUMPDEST PUSH1 0xD PUSH1 0x0 CALLER PUSH20 0xFFFFFFFFFFFFFFFFFFFFFFFFFFFFFFFFFFFFFFFF AND PUSH20 0xFFFFFFFFFFFFFFFFFFFFFFFFFFFFFFFFFFFFFFFF AND DUP2 MSTORE PUSH1 0x20 ADD SWAP1 DUP2 MSTORE PUSH1 0x20 ADD PUSH1 0x0 KECCAK256 PUSH1 0x0 ADD PUSH1 0x0 DUP3 DUP2 MSTORE PUSH1 0x20 ADD SWAP1 DUP2 MSTORE PUSH1 0x20 ADD PUSH1 0x0 KECCAK256 PUSH1 0x2 ADD SLOAD PUSH1 0xD PUSH1 0x0 CALLER PUSH20 0xFFFFFFFFFFFFFFFFFFFFFFFFFFFFFFFFFFFFFFFF AND PUSH20 0xFFFFFFFFFFFFFFFFFFFFFFFFFFFFFFFFFFFFFFFF AND DUP2 MSTORE PUSH1 0x20 ADD SWAP1 DUP2 MSTORE PUSH1 0x20 ADD PUSH1 0x0 KECCAK256 PUSH1 0x0 ADD PUSH1 0x0 DUP4 DUP2 MSTORE PUSH1 0x20 ADD SWAP1 DUP2 MSTORE PUSH1 0x20 ADD PUSH1 0x0 KECCAK256 PUSH1 0x4 ADD SLOAD PUSH2 0x10D9 SWAP2 SWAP1 PUSH2 0x29CF JUMP JUMPDEST SWAP4 POP JUMPDEST PUSH3 0x15180 DUP5 PUSH2 0x10EB SWAP2 SWAP1 PUSH2 0x2944 JUMP JUMPDEST SWAP4 POP PUSH1 0x0 DUP5 GT ISZERO PUSH2 0x1183 JUMPI PUSH1 0x9 SLOAD PUSH1 0x6 SLOAD PUSH1 0xD PUSH1 0x0 CALLER PUSH20 0xFFFFFFFFFFFFFFFFFFFFFFFFFFFFFFFFFFFFFFFF AND PUSH20 0xFFFFFFFFFFFFFFFFFFFFFFFFFFFFFFFFFFFFFFFF AND DUP2 MSTORE PUSH1 0x20 ADD SWAP1 DUP2 MSTORE PUSH1 0x20 ADD PUSH1 0x0 KECCAK256 PUSH1 0x0 ADD PUSH1 0x0 DUP5 DUP2 MSTORE PUSH1 0x20 ADD SWAP1 DUP2 MSTORE PUSH1 0x20 ADD PUSH1 0x0 KECCAK256 PUSH1 0x0 ADD SLOAD PUSH2 0x115D SWAP2 SWAP1 PUSH2 0x2975 JUMP JUMPDEST PUSH2 0x1167 SWAP2 SWAP1 PUSH2 0x2944 JUMP JUMPDEST SWAP3 POP DUP3 DUP5 PUSH2 0x1175 SWAP2 SWAP1 PUSH2 0x2975 JUMP JUMPDEST DUP6 PUSH2 0x1180 SWAP2 SWAP1 PUSH2 0x28EE JUMP JUMPDEST SWAP5 POP JUMPDEST DUP1 DUP1 PUSH2 0x118E SWAP1 PUSH2 0x2A4B JUMP JUMPDEST SWAP2 POP POP PUSH2 0xF48 JUMP JUMPDEST POP PUSH1 0xD PUSH1 0x0 CALLER PUSH20 0xFFFFFFFFFFFFFFFFFFFFFFFFFFFFFFFFFFFFFFFF AND PUSH20 0xFFFFFFFFFFFFFFFFFFFFFFFFFFFFFFFFFFFFFFFF AND DUP2 MSTORE PUSH1 0x20 ADD SWAP1 DUP2 MSTORE PUSH1 0x20 ADD PUSH1 0x0 KECCAK256 PUSH1 0x7 ADD SLOAD DUP5 PUSH2 0x11E5 SWAP2 SWAP1 PUSH2 0x29CF JUMP JUMPDEST SWAP4 POP DUP4 SWAP5 POP POP POP POP POP SWAP1 JUMP JUMPDEST DUP3 PUSH1 0x8 DUP2 SWAP1 SSTORE POP DUP4 PUSH1 0x7 DUP2 SWAP1 SSTORE POP DUP2 PUSH1 0x6 DUP2 SWAP1 SSTORE POP DUP1 PUSH1 0x9 DUP2 SWAP1 SSTORE POP POP POP POP POP JUMP JUMPDEST DUP1 PUSH1 0x8 DUP2 SWAP1 SSTORE POP POP JUMP JUMPDEST PUSH1 0xA SLOAD DUP2 JUMP JUMPDEST PUSH1 0x0 DUP1 PUSH1 0xD PUSH1 0x0 CALLER PUSH20 0xFFFFFFFFFFFFFFFFFFFFFFFFFFFFFFFFFFFFFFFF AND PUSH20 0xFFFFFFFFFFFFFFFFFFFFFFFFFFFFFFFFFFFFFFFF AND DUP2 MSTORE PUSH1 0x20 ADD SWAP1 DUP2 MSTORE PUSH1 0x20 ADD PUSH1 0x0 KECCAK256 PUSH1 0x6 ADD SLOAD GT PUSH2 0x12A9 JUMPI PUSH1 0x40 MLOAD PUSH32 0x8C379A000000000000000000000000000000000000000000000000000000000 DUP2 MSTORE PUSH1 0x4 ADD PUSH2 0x12A0 SWAP1 PUSH2 0x2797 JUMP JUMPDEST PUSH1 0x40 MLOAD DUP1 SWAP2 SUB SWAP1 REVERT JUMPDEST PUSH1 0x0 PUSH1 0xD PUSH1 0x0 CALLER PUSH20 0xFFFFFFFFFFFFFFFFFFFFFFFFFFFFFFFFFFFFFFFF AND PUSH20 0xFFFFFFFFFFFFFFFFFFFFFFFFFFFFFFFFFFFFFFFF AND DUP2 MSTORE PUSH1 0x20 ADD SWAP1 DUP2 MSTORE PUSH1 0x20 ADD PUSH1 0x0 KECCAK256 PUSH1 0x6 ADD SLOAD SWAP1 POP PUSH1 0x0 PUSH1 0xD PUSH1 0x0 CALLER PUSH20 0xFFFFFFFFFFFFFFFFFFFFFFFFFFFFFFFFFFFFFFFF AND PUSH20 0xFFFFFFFFFFFFFFFFFFFFFFFFFFFFFFFFFFFFFFFF AND DUP2 MSTORE PUSH1 0x20 ADD SWAP1 DUP2 MSTORE PUSH1 0x20 ADD PUSH1 0x0 KECCAK256 PUSH1 0x5 ADD SLOAD SWAP1 POP PUSH1 0x0 PUSH1 0xC SLOAD SWAP1 POP PUSH1 0x0 DUP1 TIMESTAMP PUSH1 0xD PUSH1 0x0 CALLER PUSH20 0xFFFFFFFFFFFFFFFFFFFFFFFFFFFFFFFFFFFFFFFF AND PUSH20 0xFFFFFFFFFFFFFFFFFFFFFFFFFFFFFFFFFFFFFFFF AND DUP2 MSTORE PUSH1 0x20 ADD SWAP1 DUP2 MSTORE PUSH1 0x20 ADD PUSH1 0x0 KECCAK256 PUSH1 0x9 ADD SLOAD GT ISZERO PUSH2 0x1564 JUMPI PUSH1 0x64 PUSH1 0x1E DUP7 PUSH2 0x139A SWAP2 SWAP1 PUSH2 0x2975 JUMP JUMPDEST PUSH2 0x13A4 SWAP2 SWAP1 PUSH2 0x2944 JUMP JUMPDEST SWAP2 POP PUSH1 0x64 PUSH1 0x46 DUP7 PUSH2 0x13B5 SWAP2 SWAP1 PUSH2 0x2975 JUMP JUMPDEST PUSH2 0x13BF SWAP2 SWAP1 PUSH2 0x2944 JUMP JUMPDEST SWAP1 POP PUSH1 0x1 PUSH1 0x0 SWAP1 SLOAD SWAP1 PUSH2 0x100 EXP SWAP1 DIV PUSH20 0xFFFFFFFFFFFFFFFFFFFFFFFFFFFFFFFFFFFFFFFF AND PUSH20 0xFFFFFFFFFFFFFFFFFFFFFFFFFFFFFFFFFFFFFFFF AND PUSH4 0xA9059CBB CALLER PUSH4 0x5F5E100 DUP6 PUSH2 0x1410 SWAP2 SWAP1 PUSH2 0x2975 JUMP JUMPDEST PUSH1 0x40 MLOAD DUP4 PUSH4 0xFFFFFFFF AND PUSH1 0xE0 SHL DUP2 MSTORE PUSH1 0x4 ADD PUSH2 0x142D SWAP3 SWAP2 SWAP1 PUSH2 0x267E JUMP JUMPDEST PUSH1 0x20 PUSH1 0x40 MLOAD DUP1 DUP4 SUB DUP2 PUSH1 0x0 DUP8 DUP1 EXTCODESIZE ISZERO DUP1 ISZERO PUSH2 0x1447 JUMPI PUSH1 0x0 DUP1 REVERT JUMPDEST POP GAS CALL ISZERO DUP1 ISZERO PUSH2 0x145B JUMPI RETURNDATASIZE PUSH1 0x0 DUP1 RETURNDATACOPY RETURNDATASIZE PUSH1 0x0 REVERT JUMPDEST POP POP POP POP PUSH1 0x40 MLOAD RETURNDATASIZE PUSH1 0x1F NOT PUSH1 0x1F DUP3 ADD AND DUP3 ADD DUP1 PUSH1 0x40 MSTORE POP DUP2 ADD SWAP1 PUSH2 0x147F SWAP2 SWAP1 PUSH2 0x225F JUMP JUMPDEST POP PUSH1 0x1 PUSH1 0x0 SWAP1 SLOAD SWAP1 PUSH2 0x100 EXP SWAP1 DIV PUSH20 0xFFFFFFFFFFFFFFFFFFFFFFFFFFFFFFFFFFFFFFFF AND PUSH20 0xFFFFFFFFFFFFFFFFFFFFFFFFFFFFFFFFFFFFFFFF AND PUSH4 0xA9059CBB PUSH1 0x0 DUP1 SLOAD SWAP1 PUSH2 0x100 EXP SWAP1 DIV PUSH20 0xFFFFFFFFFFFFFFFFFFFFFFFFFFFFFFFFFFFFFFFF AND PUSH4 0x5F5E100 DUP5 PUSH2 0x14EF SWAP2 SWAP1 PUSH2 0x2975 JUMP JUMPDEST PUSH1 0x40 MLOAD DUP4 PUSH4 0xFFFFFFFF AND PUSH1 0xE0 SHL DUP2 MSTORE PUSH1 0x4 ADD PUSH2 0x150C SWAP3 SWAP2 SWAP1 PUSH2 0x267E JUMP JUMPDEST PUSH1 0x20 PUSH1 0x40 MLOAD DUP1 DUP4 SUB DUP2 PUSH1 0x0 DUP8 DUP1 EXTCODESIZE ISZERO DUP1 ISZERO PUSH2 0x1526 JUMPI PUSH1 0x0 DUP1 REVERT JUMPDEST POP GAS CALL ISZERO DUP1 ISZERO PUSH2 0x153A JUMPI RETURNDATASIZE PUSH1 0x0 DUP1 RETURNDATACOPY RETURNDATASIZE PUSH1 0x0 REVERT JUMPDEST POP POP POP POP PUSH1 0x40 MLOAD RETURNDATASIZE PUSH1 0x1F NOT PUSH1 0x1F DUP3 ADD AND DUP3 ADD DUP1 PUSH1 0x40 MSTORE POP DUP2 ADD SWAP1 PUSH2 0x155E SWAP2 SWAP1 PUSH2 0x225F JUMP JUMPDEST POP PUSH2 0x1624 JUMP JUMPDEST PUSH1 0x1 PUSH1 0x0 SWAP1 SLOAD SWAP1 PUSH2 0x100 EXP SWAP1 DIV PUSH20 0xFFFFFFFFFFFFFFFFFFFFFFFFFFFFFFFFFFFFFFFF AND PUSH20 0xFFFFFFFFFFFFFFFFFFFFFFFFFFFFFFFFFFFFFFFF AND PUSH4 0xA9059CBB CALLER PUSH4 0x5F5E100 DUP9 PUSH2 0x15B3 SWAP2 SWAP1 PUSH2 0x2975 JUMP JUMPDEST PUSH1 0x40 MLOAD DUP4 PUSH4 0xFFFFFFFF AND PUSH1 0xE0 SHL DUP2 MSTORE PUSH1 0x4 ADD PUSH2 0x15D0 SWAP3 SWAP2 SWAP1 PUSH2 0x267E JUMP JUMPDEST PUSH1 0x20 PUSH1 0x40 MLOAD DUP1 DUP4 SUB DUP2 PUSH1 0x0 DUP8 DUP1 EXTCODESIZE ISZERO DUP1 ISZERO PUSH2 0x15EA JUMPI PUSH1 0x0 DUP1 REVERT JUMPDEST POP GAS CALL ISZERO DUP1 ISZERO PUSH2 0x15FE JUMPI RETURNDATASIZE PUSH1 0x0 DUP1 RETURNDATACOPY RETURNDATASIZE PUSH1 0x0 REVERT JUMPDEST POP POP POP POP PUSH1 0x40 MLOAD RETURNDATASIZE PUSH1 0x1F NOT PUSH1 0x1F DUP3 ADD AND DUP3 ADD DUP1 PUSH1 0x40 MSTORE POP DUP2 ADD SWAP1 PUSH2 0x1622 SWAP2 SWAP1 PUSH2 0x225F JUMP JUMPDEST POP JUMPDEST PUSH1 0x0 SWAP3 POP JUMPDEST DUP4 DUP4 LT ISZERO PUSH2 0x170E JUMPI PUSH1 0x1 PUSH1 0xD PUSH1 0x0 CALLER PUSH20 0xFFFFFFFFFFFFFFFFFFFFFFFFFFFFFFFFFFFFFFFF AND PUSH20 0xFFFFFFFFFFFFFFFFFFFFFFFFFFFFFFFFFFFFFFFF AND DUP2 MSTORE PUSH1 0x20 ADD SWAP1 DUP2 MSTORE PUSH1 0x20 ADD PUSH1 0x0 KECCAK256 PUSH1 0x0 ADD PUSH1 0x0 DUP6 DUP2 MSTORE PUSH1 0x20 ADD SWAP1 DUP2 MSTORE PUSH1 0x20 ADD PUSH1 0x0 KECCAK256 PUSH1 0x5 ADD PUSH1 0x0 PUSH2 0x100 EXP DUP2 SLOAD DUP2 PUSH1 0xFF MUL NOT AND SWAP1 DUP4 ISZERO ISZERO MUL OR SWAP1 SSTORE POP TIMESTAMP PUSH1 0xD PUSH1 0x0 CALLER PUSH20 0xFFFFFFFFFFFFFFFFFFFFFFFFFFFFFFFFFFFFFFFF AND PUSH20 0xFFFFFFFFFFFFFFFFFFFFFFFFFFFFFFFFFFFFFFFF AND DUP2 MSTORE PUSH1 0x20 ADD SWAP1 DUP2 MSTORE PUSH1 0x20 ADD PUSH1 0x0 KECCAK256 PUSH1 0x0 ADD PUSH1 0x0 DUP6 DUP2 MSTORE PUSH1 0x20 ADD SWAP1 DUP2 MSTORE PUSH1 0x20 ADD PUSH1 0x0 KECCAK256 PUSH1 0x4 ADD DUP2 SWAP1 SSTORE POP DUP3 DUP1 PUSH2 0x1706 SWAP1 PUSH2 0x2A4B JUMP JUMPDEST SWAP4 POP POP PUSH2 0x1629 JUMP JUMPDEST PUSH1 0xD PUSH1 0x0 CALLER PUSH20 0xFFFFFFFFFFFFFFFFFFFFFFFFFFFFFFFFFFFFFFFF AND PUSH20 0xFFFFFFFFFFFFFFFFFFFFFFFFFFFFFFFFFFFFFFFF AND DUP2 MSTORE PUSH1 0x20 ADD SWAP1 DUP2 MSTORE PUSH1 0x20 ADD PUSH1 0x0 KECCAK256 PUSH1 0x5 ADD SLOAD PUSH1 0xC DUP2 SWAP1 SSTORE POP PUSH1 0x0 PUSH1 0xD PUSH1 0x0 CALLER PUSH20 0xFFFFFFFFFFFFFFFFFFFFFFFFFFFFFFFFFFFFFFFF AND PUSH20 0xFFFFFFFFFFFFFFFFFFFFFFFFFFFFFFFFFFFFFFFF AND DUP2 MSTORE PUSH1 0x20 ADD SWAP1 DUP2 MSTORE PUSH1 0x20 ADD PUSH1 0x0 KECCAK256 PUSH1 0x6 ADD DUP2 SWAP1 SSTORE POP PUSH1 0x1 SWAP6 POP POP POP POP POP POP SWAP1 JUMP JUMPDEST PUSH1 0x0 DUP1 SLOAD SWAP1 PUSH2 0x100 EXP SWAP1 DIV PUSH20 0xFFFFFFFFFFFFFFFFFFFFFFFFFFFFFFFFFFFFFFFF AND DUP2 JUMP JUMPDEST PUSH1 0x0 PUSH1 0xD PUSH1 0x0 CALLER PUSH20 0xFFFFFFFFFFFFFFFFFFFFFFFFFFFFFFFFFFFFFFFF AND PUSH20 0xFFFFFFFFFFFFFFFFFFFFFFFFFFFFFFFFFFFFFFFF AND DUP2 MSTORE PUSH1 0x20 ADD SWAP1 DUP2 MSTORE PUSH1 0x20 ADD PUSH1 0x0 KECCAK256 PUSH1 0x6 ADD SLOAD SWAP1 POP SWAP1 JUMP JUMPDEST PUSH1 0x9 SLOAD DUP2 JUMP JUMPDEST PUSH1 0x3 SLOAD DUP2 JUMP JUMPDEST DUP2 PUSH1 0x6 DUP2 SWAP1 SSTORE POP DUP1 PUSH1 0x9 DUP2 SWAP1 SSTORE POP POP POP JUMP JUMPDEST PUSH1 0x60 PUSH1 0x0 PUSH1 0x14 PUSH8 0xFFFFFFFFFFFFFFFF DUP2 GT ISZERO PUSH2 0x1856 JUMPI PUSH2 0x1855 PUSH2 0x2B21 JUMP JUMPDEST JUMPDEST PUSH1 0x40 MLOAD SWAP1 DUP1 DUP3 MSTORE DUP1 PUSH1 0x20 MUL PUSH1 0x20 ADD DUP3 ADD PUSH1 0x40 MSTORE DUP1 ISZERO PUSH2 0x1884 JUMPI DUP2 PUSH1 0x20 ADD PUSH1 0x20 DUP3 MUL DUP1 CALLDATASIZE DUP4 CALLDATACOPY DUP1 DUP3 ADD SWAP2 POP POP SWAP1 POP JUMPDEST POP SWAP1 POP PUSH1 0x0 JUMPDEST PUSH1 0x14 DUP2 LT ISZERO PUSH2 0x19A2 JUMPI PUSH1 0x0 PUSH1 0xD PUSH1 0x0 CALLER PUSH20 0xFFFFFFFFFFFFFFFFFFFFFFFFFFFFFFFFFFFFFFFF AND PUSH20 0xFFFFFFFFFFFFFFFFFFFFFFFFFFFFFFFFFFFFFFFF AND DUP2 MSTORE PUSH1 0x20 ADD SWAP1 DUP2 MSTORE PUSH1 0x20 ADD PUSH1 0x0 KECCAK256 PUSH1 0x3 ADD PUSH1 0x0 DUP4 DUP2 MSTORE PUSH1 0x20 ADD SWAP1 DUP2 MSTORE PUSH1 0x20 ADD PUSH1 0x0 KECCAK256 PUSH1 0x0 ADD SLOAD GT ISZERO PUSH2 0x196D JUMPI PUSH1 0xD PUSH1 0x0 CALLER PUSH20 0xFFFFFFFFFFFFFFFFFFFFFFFFFFFFFFFFFFFFFFFF AND PUSH20 0xFFFFFFFFFFFFFFFFFFFFFFFFFFFFFFFFFFFFFFFF AND DUP2 MSTORE PUSH1 0x20 ADD SWAP1 DUP2 MSTORE PUSH1 0x20 ADD PUSH1 0x0 KECCAK256 PUSH1 0x3 ADD PUSH1 0x0 DUP3 DUP2 MSTORE PUSH1 0x20 ADD SWAP1 DUP2 MSTORE PUSH1 0x20 ADD PUSH1 0x0 KECCAK256 PUSH1 0x0 ADD SLOAD DUP3 DUP3 DUP2 MLOAD DUP2 LT PUSH2 0x195C JUMPI PUSH2 0x195B PUSH2 0x2AF2 JUMP JUMPDEST JUMPDEST PUSH1 0x20 MUL PUSH1 0x20 ADD ADD DUP2 DUP2 MSTORE POP POP PUSH2 0x198F JUMP JUMPDEST PUSH1 0x0 DUP3 DUP3 DUP2 MLOAD DUP2 LT PUSH2 0x1982 JUMPI PUSH2 0x1981 PUSH2 0x2AF2 JUMP JUMPDEST JUMPDEST PUSH1 0x20 MUL PUSH1 0x20 ADD ADD DUP2 DUP2 MSTORE POP POP JUMPDEST DUP1 DUP1 PUSH2 0x199A SWAP1 PUSH2 0x2A4B JUMP JUMPDEST SWAP2 POP POP PUSH2 0x188A JUMP JUMPDEST POP DUP1 SWAP2 POP POP SWAP1 JUMP JUMPDEST PUSH1 0x4 SLOAD DUP2 JUMP JUMPDEST PUSH1 0x7 SLOAD DUP2 JUMP JUMPDEST PUSH1 0x0 DUP1 PUSH2 0x19C1 PUSH2 0xEF8 JUMP JUMPDEST SWAP1 POP PUSH1 0x0 DUP2 GT PUSH2 0x1A06 JUMPI PUSH1 0x40 MLOAD PUSH32 0x8C379A000000000000000000000000000000000000000000000000000000000 DUP2 MSTORE PUSH1 0x4 ADD PUSH2 0x19FD SWAP1 PUSH2 0x27D7 JUMP JUMPDEST PUSH1 0x40 MLOAD DUP1 SWAP2 SUB SWAP1 REVERT JUMPDEST PUSH1 0x2 PUSH1 0x0 SWAP1 SLOAD SWAP1 PUSH2 0x100 EXP SWAP1 DIV PUSH20 0xFFFFFFFFFFFFFFFFFFFFFFFFFFFFFFFFFFFFFFFF AND PUSH20 0xFFFFFFFFFFFFFFFFFFFFFFFFFFFFFFFFFFFFFFFF AND PUSH4 0xA9059CBB CALLER DUP4 PUSH1 0x40 MLOAD DUP4 PUSH4 0xFFFFFFFF AND PUSH1 0xE0 SHL DUP2 MSTORE PUSH1 0x4 ADD PUSH2 0x1A63 SWAP3 SWAP2 SWAP1 PUSH2 0x267E JUMP JUMPDEST PUSH1 0x20 PUSH1 0x40 MLOAD DUP1 DUP4 SUB DUP2 PUSH1 0x0 DUP8 DUP1 EXTCODESIZE ISZERO DUP1 ISZERO PUSH2 0x1A7D JUMPI PUSH1 0x0 DUP1 REVERT JUMPDEST POP GAS CALL ISZERO DUP1 ISZERO PUSH2 0x1A91 JUMPI RETURNDATASIZE PUSH1 0x0 DUP1 RETURNDATACOPY RETURNDATASIZE PUSH1 0x0 REVERT JUMPDEST POP POP POP POP PUSH1 0x40 MLOAD RETURNDATASIZE PUSH1 0x1F NOT PUSH1 0x1F DUP3 ADD AND DUP3 ADD DUP1 PUSH1 0x40 MSTORE POP DUP2 ADD SWAP1 PUSH2 0x1AB5 SWAP2 SWAP1 PUSH2 0x225F JUMP JUMPDEST POP DUP1 PUSH1 0xD PUSH1 0x0 CALLER PUSH20 0xFFFFFFFFFFFFFFFFFFFFFFFFFFFFFFFFFFFFFFFF AND PUSH20 0xFFFFFFFFFFFFFFFFFFFFFFFFFFFFFFFFFFFFFFFF AND DUP2 MSTORE PUSH1 0x20 ADD SWAP1 DUP2 MSTORE PUSH1 0x20 ADD PUSH1 0x0 KECCAK256 PUSH1 0x7 ADD PUSH1 0x0 DUP3 DUP3 SLOAD PUSH2 0x1B08 SWAP2 SWAP1 PUSH2 0x28EE JUMP JUMPDEST SWAP3 POP POP DUP2 SWAP1 SSTORE POP PUSH1 0x1 SWAP2 POP POP SWAP1 JUMP JUMPDEST PUSH1 0xD PUSH1 0x20 MSTORE DUP1 PUSH1 0x0 MSTORE PUSH1 0x40 PUSH1 0x0 KECCAK256 PUSH1 0x0 SWAP2 POP SWAP1 POP DUP1 PUSH1 0x2 ADD PUSH1 0x0 SWAP1 SLOAD SWAP1 PUSH2 0x100 EXP SWAP1 DIV PUSH20 0xFFFFFFFFFFFFFFFFFFFFFFFFFFFFFFFFFFFFFFFF AND SWAP1 DUP1 PUSH1 0x4 ADD SLOAD SWAP1 DUP1 PUSH1 0x5 ADD SLOAD SWAP1 DUP1 PUSH1 0x6 ADD SLOAD SWAP1 DUP1 PUSH1 0x7 ADD SLOAD SWAP1 DUP1 PUSH1 0x8 ADD PUSH1 0x0 SWAP1 SLOAD SWAP1 PUSH2 0x100 EXP SWAP1 DIV PUSH1 0xFF AND SWAP1 DUP1 PUSH1 0x9 ADD SLOAD SWAP1 POP DUP8 JUMP JUMPDEST PUSH1 0xB SLOAD DUP2 JUMP JUMPDEST PUSH1 0x0 DUP1 SLOAD SWAP1 PUSH2 0x100 EXP SWAP1 DIV PUSH20 0xFFFFFFFFFFFFFFFFFFFFFFFFFFFFFFFFFFFFFFFF AND PUSH20 0xFFFFFFFFFFFFFFFFFFFFFFFFFFFFFFFFFFFFFFFF AND CALLER PUSH20 0xFFFFFFFFFFFFFFFFFFFFFFFFFFFFFFFFFFFFFFFF AND EQ PUSH2 0x1C1A JUMPI PUSH1 0x40 MLOAD PUSH32 0x8C379A000000000000000000000000000000000000000000000000000000000 DUP2 MSTORE PUSH1 0x4 ADD PUSH2 0x1C11 SWAP1 PUSH2 0x27F7 JUMP JUMPDEST PUSH1 0x40 MLOAD DUP1 SWAP2 SUB SWAP1 REVERT JUMPDEST DUP1 PUSH1 0x0 DUP1 PUSH2 0x100 EXP DUP2 SLOAD DUP2 PUSH20 0xFFFFFFFFFFFFFFFFFFFFFFFFFFFFFFFFFFFFFFFF MUL NOT AND SWAP1 DUP4 PUSH20 0xFFFFFFFFFFFFFFFFFFFFFFFFFFFFFFFFFFFFFFFF AND MUL OR SWAP1 SSTORE POP POP JUMP JUMPDEST PUSH1 0x60 PUSH1 0x0 PUSH1 0x14 PUSH8 0xFFFFFFFFFFFFFFFF DUP2 GT ISZERO PUSH2 0x1C7C JUMPI PUSH2 0x1C7B PUSH2 0x2B21 JUMP JUMPDEST JUMPDEST PUSH1 0x40 MLOAD SWAP1 DUP1 DUP3 MSTORE DUP1 PUSH1 0x20 MUL PUSH1 0x20 ADD DUP3 ADD PUSH1 0x40 MSTORE DUP1 ISZERO PUSH2 0x1CAA JUMPI DUP2 PUSH1 0x20 ADD PUSH1 0x20 DUP3 MUL DUP1 CALLDATASIZE DUP4 CALLDATACOPY DUP1 DUP3 ADD SWAP2 POP POP SWAP1 POP JUMPDEST POP SWAP1 POP PUSH1 0x0 JUMPDEST PUSH1 0x14 DUP2 LT ISZERO PUSH2 0x1DC8 JUMPI PUSH1 0x0 PUSH1 0xD PUSH1 0x0 CALLER PUSH20 0xFFFFFFFFFFFFFFFFFFFFFFFFFFFFFFFFFFFFFFFF AND PUSH20 0xFFFFFFFFFFFFFFFFFFFFFFFFFFFFFFFFFFFFFFFF AND DUP2 MSTORE PUSH1 0x20 ADD SWAP1 DUP2 MSTORE PUSH1 0x20 ADD PUSH1 0x0 KECCAK256 PUSH1 0x3 ADD PUSH1 0x0 DUP4 DUP2 MSTORE PUSH1 0x20 ADD SWAP1 DUP2 MSTORE PUSH1 0x20 ADD PUSH1 0x0 KECCAK256 PUSH1 0x0 ADD SLOAD GT ISZERO PUSH2 0x1D93 JUMPI PUSH1 0xD PUSH1 0x0 CALLER PUSH20 0xFFFFFFFFFFFFFFFFFFFFFFFFFFFFFFFFFFFFFFFF AND PUSH20 0xFFFFFFFFFFFFFFFFFFFFFFFFFFFFFFFFFFFFFFFF AND DUP2 MSTORE PUSH1 0x20 ADD SWAP1 DUP2 MSTORE PUSH1 0x20 ADD PUSH1 0x0 KECCAK256 PUSH1 0x3 ADD PUSH1 0x0 DUP3 DUP2 MSTORE PUSH1 0x20 ADD SWAP1 DUP2 MSTORE PUSH1 0x20 ADD PUSH1 0x0 KECCAK256 PUSH1 0x1 ADD SLOAD DUP3 DUP3 DUP2 MLOAD DUP2 LT PUSH2 0x1D82 JUMPI PUSH2 0x1D81 PUSH2 0x2AF2 JUMP JUMPDEST JUMPDEST PUSH1 0x20 MUL PUSH1 0x20 ADD ADD DUP2 DUP2 MSTORE POP POP PUSH2 0x1DB5 JUMP JUMPDEST PUSH1 0x0 DUP3 DUP3 DUP2 MLOAD DUP2 LT PUSH2 0x1DA8 JUMPI PUSH2 0x1DA7 PUSH2 0x2AF2 JUMP JUMPDEST JUMPDEST PUSH1 0x20 MUL PUSH1 0x20 ADD ADD DUP2 DUP2 MSTORE POP POP JUMPDEST DUP1 DUP1 PUSH2 0x1DC0 SWAP1 PUSH2 0x2A4B JUMP JUMPDEST SWAP2 POP POP PUSH2 0x1CB0 JUMP JUMPDEST POP DUP1 SWAP2 POP POP SWAP1 JUMP JUMPDEST PUSH1 0x6 SLOAD DUP2 JUMP JUMPDEST PUSH1 0x8 SLOAD DUP2 JUMP JUMPDEST PUSH1 0x0 DUP3 SWAP1 POP PUSH1 0x0 PUSH1 0x5 PUSH8 0xFFFFFFFFFFFFFFFF DUP2 GT ISZERO PUSH2 0x1DFE JUMPI PUSH2 0x1DFD PUSH2 0x2B21 JUMP JUMPDEST JUMPDEST PUSH1 0x40 MLOAD SWAP1 DUP1 DUP3 MSTORE DUP1 PUSH1 0x20 MUL PUSH1 0x20 ADD DUP3 ADD PUSH1 0x40 MSTORE DUP1 ISZERO PUSH2 0x1E2C JUMPI DUP2 PUSH1 0x20 ADD PUSH1 0x20 DUP3 MUL DUP1 CALLDATASIZE DUP4 CALLDATACOPY DUP1 DUP3 ADD SWAP2 POP POP SWAP1 POP JUMPDEST POP SWAP1 POP PUSH1 0x1 DUP2 PUSH1 0x0 DUP2 MLOAD DUP2 LT PUSH2 0x1E45 JUMPI PUSH2 0x1E44 PUSH2 0x2AF2 JUMP JUMPDEST JUMPDEST PUSH1 0x20 MUL PUSH1 0x20 ADD ADD DUP2 DUP2 MSTORE POP POP PUSH1 0x3 DUP2 PUSH1 0x1 DUP2 MLOAD DUP2 LT PUSH2 0x1E67 JUMPI PUSH2 0x1E66 PUSH2 0x2AF2 JUMP JUMPDEST JUMPDEST PUSH1 0x20 MUL PUSH1 0x20 ADD ADD DUP2 DUP2 MSTORE POP POP PUSH1 0x2 DUP2 PUSH1 0x2 DUP2 MLOAD DUP2 LT PUSH2 0x1E89 JUMPI PUSH2 0x1E88 PUSH2 0x2AF2 JUMP JUMPDEST JUMPDEST PUSH1 0x20 MUL PUSH1 0x20 ADD ADD DUP2 DUP2 MSTORE POP POP PUSH1 0x1 DUP2 PUSH1 0x3 DUP2 MLOAD DUP2 LT PUSH2 0x1EAB JUMPI PUSH2 0x1EAA PUSH2 0x2AF2 JUMP JUMPDEST JUMPDEST PUSH1 0x20 MUL PUSH1 0x20 ADD ADD DUP2 DUP2 MSTORE POP POP PUSH1 0x1 DUP2 PUSH1 0x4 DUP2 MLOAD DUP2 LT PUSH2 0x1ECD JUMPI PUSH2 0x1ECC PUSH2 0x2AF2 JUMP JUMPDEST JUMPDEST PUSH1 0x20 MUL PUSH1 0x20 ADD ADD DUP2 DUP2 MSTORE POP POP PUSH1 0x0 DUP1 PUSH1 0x0 SWAP1 POP JUMPDEST PUSH1 0x14 DUP2 LT ISZERO PUSH2 0x21B3 JUMPI DUP1 PUSH1 0x4 DUP2 SWAP1 SSTORE POP PUSH1 0x0 DUP2 EQ ISZERO PUSH2 0x1F03 JUMPI PUSH1 0x0 SWAP2 POP PUSH2 0x1F4B JUMP JUMPDEST PUSH1 0x1 DUP2 EQ ISZERO PUSH2 0x1F15 JUMPI PUSH1 0x1 SWAP2 POP PUSH2 0x1F4A JUMP JUMPDEST PUSH1 0x2 DUP2 EQ ISZERO PUSH2 0x1F27 JUMPI PUSH1 0x2 SWAP2 POP PUSH2 0x1F49 JUMP JUMPDEST PUSH1 0x2 DUP2 GT ISZERO PUSH2 0x1F39 JUMPI PUSH1 0x3 SWAP2 POP PUSH2 0x1F48 JUMP JUMPDEST PUSH1 0x7 DUP2 GT ISZERO PUSH2 0x1F47 JUMPI PUSH1 0x4 SWAP2 POP JUMPDEST JUMPDEST JUMPDEST JUMPDEST JUMPDEST PUSH1 0x0 PUSH20 0xFFFFFFFFFFFFFFFFFFFFFFFFFFFFFFFFFFFFFFFF AND PUSH1 0xD PUSH1 0x0 DUP7 PUSH20 0xFFFFFFFFFFFFFFFFFFFFFFFFFFFFFFFFFFFFFFFF AND PUSH20 0xFFFFFFFFFFFFFFFFFFFFFFFFFFFFFFFFFFFFFFFF AND DUP2 MSTORE PUSH1 0x20 ADD SWAP1 DUP2 MSTORE PUSH1 0x20 ADD PUSH1 0x0 KECCAK256 PUSH1 0x2 ADD PUSH1 0x0 SWAP1 SLOAD SWAP1 PUSH2 0x100 EXP SWAP1 DIV PUSH20 0xFFFFFFFFFFFFFFFFFFFFFFFFFFFFFFFFFFFFFFFF AND PUSH20 0xFFFFFFFFFFFFFFFFFFFFFFFFFFFFFFFFFFFFFFFF AND EQ PUSH2 0x219B JUMPI PUSH1 0xD PUSH1 0x0 DUP6 PUSH20 0xFFFFFFFFFFFFFFFFFFFFFFFFFFFFFFFFFFFFFFFF AND PUSH20 0xFFFFFFFFFFFFFFFFFFFFFFFFFFFFFFFFFFFFFFFF AND DUP2 MSTORE PUSH1 0x20 ADD SWAP1 DUP2 MSTORE PUSH1 0x20 ADD PUSH1 0x0 KECCAK256 PUSH1 0x2 ADD PUSH1 0x0 SWAP1 SLOAD SWAP1 PUSH2 0x100 EXP SWAP1 DIV PUSH20 0xFFFFFFFFFFFFFFFFFFFFFFFFFFFFFFFFFFFFFFFF AND SWAP4 POP PUSH1 0x0 PUSH1 0x64 DUP7 PUSH4 0x5F5E100 DUP7 DUP7 DUP2 MLOAD DUP2 LT PUSH2 0x2063 JUMPI PUSH2 0x2062 PUSH2 0x2AF2 JUMP JUMPDEST JUMPDEST PUSH1 0x20 MUL PUSH1 0x20 ADD ADD MLOAD PUSH2 0x2075 SWAP2 SWAP1 PUSH2 0x2975 JUMP JUMPDEST PUSH2 0x207F SWAP2 SWAP1 PUSH2 0x2975 JUMP JUMPDEST PUSH2 0x2089 SWAP2 SWAP1 PUSH2 0x2944 JUMP JUMPDEST SWAP1 POP PUSH1 0x0 DUP4 EQ ISZERO PUSH2 0x20BC JUMPI PUSH1 0x2 DUP2 PUSH2 0x20A1 SWAP2 SWAP1 PUSH2 0x2944 JUMP JUMPDEST SWAP1 POP PUSH1 0x3 PUSH1 0x0 DUP2 SLOAD DUP1 SWAP3 SWAP2 SWAP1 PUSH2 0x20B6 SWAP1 PUSH2 0x2A4B JUMP JUMPDEST SWAP2 SWAP1 POP SSTORE POP JUMPDEST DUP1 PUSH1 0xD PUSH1 0x0 DUP8 PUSH20 0xFFFFFFFFFFFFFFFFFFFFFFFFFFFFFFFFFFFFFFFF AND PUSH20 0xFFFFFFFFFFFFFFFFFFFFFFFFFFFFFFFFFFFFFFFF AND DUP2 MSTORE PUSH1 0x20 ADD SWAP1 DUP2 MSTORE PUSH1 0x20 ADD PUSH1 0x0 KECCAK256 PUSH1 0x3 ADD PUSH1 0x0 DUP5 DUP2 MSTORE PUSH1 0x20 ADD SWAP1 DUP2 MSTORE PUSH1 0x20 ADD PUSH1 0x0 KECCAK256 PUSH1 0x0 ADD PUSH1 0x0 DUP3 DUP3 SLOAD PUSH2 0x2122 SWAP2 SWAP1 PUSH2 0x28EE JUMP JUMPDEST SWAP3 POP POP DUP2 SWAP1 SSTORE POP PUSH1 0xD PUSH1 0x0 DUP7 PUSH20 0xFFFFFFFFFFFFFFFFFFFFFFFFFFFFFFFFFFFFFFFF AND PUSH20 0xFFFFFFFFFFFFFFFFFFFFFFFFFFFFFFFFFFFFFFFF AND DUP2 MSTORE PUSH1 0x20 ADD SWAP1 DUP2 MSTORE PUSH1 0x20 ADD PUSH1 0x0 KECCAK256 PUSH1 0x3 ADD PUSH1 0x0 DUP4 DUP2 MSTORE PUSH1 0x20 ADD SWAP1 DUP2 MSTORE PUSH1 0x20 ADD PUSH1 0x0 KECCAK256 PUSH1 0x1 ADD PUSH1 0x0 DUP2 SLOAD DUP1 SWAP3 SWAP2 SWAP1 PUSH2 0x2190 SWAP1 PUSH2 0x2A4B JUMP JUMPDEST SWAP2 SWAP1 POP SSTORE POP POP PUSH2 0x21A0 JUMP JUMPDEST PUSH2 0x21B3 JUMP JUMPDEST DUP1 DUP1 PUSH2 0x21AB SWAP1 PUSH2 0x2A4B JUMP JUMPDEST SWAP2 POP POP PUSH2 0x1EE1 JUMP JUMPDEST POP POP POP POP POP POP JUMP JUMPDEST PUSH1 0x40 MLOAD DUP1 PUSH1 0xC0 ADD PUSH1 0x40 MSTORE DUP1 PUSH1 0x0 DUP2 MSTORE PUSH1 0x20 ADD PUSH1 0x0 DUP2 MSTORE PUSH1 0x20 ADD PUSH1 0x0 DUP2 MSTORE PUSH1 0x20 ADD PUSH1 0x0 DUP2 MSTORE PUSH1 0x20 ADD PUSH1 0x0 DUP2 MSTORE PUSH1 0x20 ADD PUSH1 0x0 ISZERO ISZERO DUP2 MSTORE POP SWAP1 JUMP JUMPDEST PUSH1 0x0 DUP2 CALLDATALOAD SWAP1 POP PUSH2 0x2202 DUP2 PUSH2 0x2C91 JUMP JUMPDEST SWAP3 SWAP2 POP POP JUMP JUMPDEST PUSH1 0x0 DUP2 MLOAD SWAP1 POP PUSH2 0x2217 DUP2 PUSH2 0x2CA8 JUMP JUMPDEST SWAP3 SWAP2 POP POP JUMP JUMPDEST PUSH1 0x0 DUP2 CALLDATALOAD SWAP1 POP PUSH2 0x222C DUP2 PUSH2 0x2CBF JUMP JUMPDEST SWAP3 SWAP2 POP POP JUMP JUMPDEST PUSH1 0x0 PUSH1 0x20 DUP3 DUP5 SUB SLT ISZERO PUSH2 0x2248 JUMPI PUSH2 0x2247 PUSH2 0x2B50 JUMP JUMPDEST JUMPDEST PUSH1 0x0 PUSH2 0x2256 DUP5 DUP3 DUP6 ADD PUSH2 0x21F3 JUMP JUMPDEST SWAP2 POP POP SWAP3 SWAP2 POP POP JUMP JUMPDEST PUSH1 0x0 PUSH1 0x20 DUP3 DUP5 SUB SLT ISZERO PUSH2 0x2275 JUMPI PUSH2 0x2274 PUSH2 0x2B50 JUMP JUMPDEST JUMPDEST PUSH1 0x0 PUSH2 0x2283 DUP5 DUP3 DUP6 ADD PUSH2 0x2208 JUMP JUMPDEST SWAP2 POP POP SWAP3 SWAP2 POP POP JUMP JUMPDEST PUSH1 0x0 PUSH1 0x20 DUP3 DUP5 SUB SLT ISZERO PUSH2 0x22A2 JUMPI PUSH2 0x22A1 PUSH2 0x2B50 JUMP JUMPDEST JUMPDEST PUSH1 0x0 PUSH2 0x22B0 DUP5 DUP3 DUP6 ADD PUSH2 0x221D JUMP JUMPDEST SWAP2 POP POP SWAP3 SWAP2 POP POP JUMP JUMPDEST PUSH1 0x0 DUP1 PUSH1 0x40 DUP4 DUP6 SUB SLT ISZERO PUSH2 0x22D0 JUMPI PUSH2 0x22CF PUSH2 0x2B50 JUMP JUMPDEST JUMPDEST PUSH1 0x0 PUSH2 0x22DE DUP6 DUP3 DUP7 ADD PUSH2 0x221D JUMP JUMPDEST SWAP3 POP POP PUSH1 0x20 PUSH2 0x22EF DUP6 DUP3 DUP7 ADD PUSH2 0x21F3 JUMP JUMPDEST SWAP2 POP POP SWAP3 POP SWAP3 SWAP1 POP JUMP JUMPDEST PUSH1 0x0 DUP1 PUSH1 0x40 DUP4 DUP6 SUB SLT ISZERO PUSH2 0x2310 JUMPI PUSH2 0x230F PUSH2 0x2B50 JUMP JUMPDEST JUMPDEST PUSH1 0x0 PUSH2 0x231E DUP6 DUP3 DUP7 ADD PUSH2 0x221D JUMP JUMPDEST SWAP3 POP POP PUSH1 0x20 PUSH2 0x232F DUP6 DUP3 DUP7 ADD PUSH2 0x221D JUMP JUMPDEST SWAP2 POP POP SWAP3 POP SWAP3 SWAP1 POP JUMP JUMPDEST PUSH1 0x0 DUP1 PUSH1 0x0 DUP1 PUSH1 0x80 DUP6 DUP8 SUB SLT ISZERO PUSH2 0x2353 JUMPI PUSH2 0x2352 PUSH2 0x2B50 JUMP JUMPDEST JUMPDEST PUSH1 0x0 PUSH2 0x2361 DUP8 DUP3 DUP9 ADD PUSH2 0x221D JUMP JUMPDEST SWAP5 POP POP PUSH1 0x20 PUSH2 0x2372 DUP8 DUP3 DUP9 ADD PUSH2 0x221D JUMP JUMPDEST SWAP4 POP POP PUSH1 0x40 PUSH2 0x2383 DUP8 DUP3 DUP9 ADD PUSH2 0x221D JUMP JUMPDEST SWAP3 POP POP PUSH1 0x60 PUSH2 0x2394 DUP8 DUP3 DUP9 ADD PUSH2 0x221D JUMP JUMPDEST SWAP2 POP POP SWAP3 SWAP6 SWAP2 SWAP5 POP SWAP3 POP JUMP JUMPDEST PUSH1 0x0 PUSH2 0x23AC DUP4 DUP4 PUSH2 0x23E8 JUMP JUMPDEST PUSH1 0x20 DUP4 ADD SWAP1 POP SWAP3 SWAP2 POP POP JUMP JUMPDEST PUSH1 0x0 PUSH2 0x23C4 DUP4 DUP4 PUSH2 0x25CA JUMP JUMPDEST PUSH1 0xC0 DUP4 ADD SWAP1 POP SWAP3 SWAP2 POP POP JUMP JUMPDEST PUSH1 0x0 PUSH2 0x23DC DUP4 DUP4 PUSH2 0x2645 JUMP JUMPDEST PUSH1 0x20 DUP4 ADD SWAP1 POP SWAP3 SWAP2 POP POP JUMP JUMPDEST PUSH2 0x23F1 DUP2 PUSH2 0x2A03 JUMP JUMPDEST DUP3 MSTORE POP POP JUMP JUMPDEST PUSH2 0x2400 DUP2 PUSH2 0x2A03 JUMP JUMPDEST DUP3 MSTORE POP POP JUMP JUMPDEST PUSH1 0x0 PUSH2 0x2411 DUP3 PUSH2 0x2862 JUMP JUMPDEST PUSH2 0x241B DUP2 DUP6 PUSH2 0x28AA JUMP JUMPDEST SWAP4 POP PUSH2 0x2426 DUP4 PUSH2 0x2832 JUMP JUMPDEST DUP1 PUSH1 0x0 JUMPDEST DUP4 DUP2 LT ISZERO PUSH2 0x2457 JUMPI DUP2 MLOAD PUSH2 0x243E DUP9 DUP3 PUSH2 0x23A0 JUMP JUMPDEST SWAP8 POP PUSH2 0x2449 DUP4 PUSH2 0x2883 JUMP JUMPDEST SWAP3 POP POP PUSH1 0x1 DUP2 ADD SWAP1 POP PUSH2 0x242A JUMP JUMPDEST POP DUP6 SWAP4 POP POP POP POP SWAP3 SWAP2 POP POP JUMP JUMPDEST PUSH1 0x0 PUSH2 0x246F DUP3 PUSH2 0x286D JUMP JUMPDEST PUSH2 0x2479 DUP2 DUP6 PUSH2 0x28BB JUMP JUMPDEST SWAP4 POP PUSH2 0x2484 DUP4 PUSH2 0x2842 JUMP JUMPDEST DUP1 PUSH1 0x0 JUMPDEST DUP4 DUP2 LT ISZERO PUSH2 0x24B5 JUMPI DUP2 MLOAD PUSH2 0x249C DUP9 DUP3 PUSH2 0x23B8 JUMP JUMPDEST SWAP8 POP PUSH2 0x24A7 DUP4 PUSH2 0x2890 JUMP JUMPDEST SWAP3 POP POP PUSH1 0x1 DUP2 ADD SWAP1 POP PUSH2 0x2488 JUMP JUMPDEST POP DUP6 SWAP4 POP POP POP POP SWAP3 SWAP2 POP POP JUMP JUMPDEST PUSH1 0x0 PUSH2 0x24CD DUP3 PUSH2 0x2878 JUMP JUMPDEST PUSH2 0x24D7 DUP2 DUP6 PUSH2 0x28CC JUMP JUMPDEST SWAP4 POP PUSH2 0x24E2 DUP4 PUSH2 0x2852 JUMP JUMPDEST DUP1 PUSH1 0x0 JUMPDEST DUP4 DUP2 LT ISZERO PUSH2 0x2513 JUMPI DUP2 MLOAD PUSH2 0x24FA DUP9 DUP3 PUSH2 0x23D0 JUMP JUMPDEST SWAP8 POP PUSH2 0x2505 DUP4 PUSH2 0x289D JUMP JUMPDEST SWAP3 POP POP PUSH1 0x1 DUP2 ADD SWAP1 POP PUSH2 0x24E6 JUMP JUMPDEST POP DUP6 SWAP4 POP POP POP POP SWAP3 SWAP2 POP POP JUMP JUMPDEST PUSH2 0x2529 DUP2 PUSH2 0x2A15 JUMP JUMPDEST DUP3 MSTORE POP POP JUMP JUMPDEST PUSH2 0x2538 DUP2 PUSH2 0x2A15 JUMP JUMPDEST DUP3 MSTORE POP POP JUMP JUMPDEST PUSH1 0x0 PUSH2 0x254B PUSH1 0x25 DUP4 PUSH2 0x28DD JUMP JUMPDEST SWAP2 POP PUSH2 0x2556 DUP3 PUSH2 0x2B55 JUMP JUMPDEST PUSH1 0x40 DUP3 ADD SWAP1 POP SWAP2 SWAP1 POP JUMP JUMPDEST PUSH1 0x0 PUSH2 0x256E PUSH1 0x35 DUP4 PUSH2 0x28DD JUMP JUMPDEST SWAP2 POP PUSH2 0x2579 DUP3 PUSH2 0x2BA4 JUMP JUMPDEST PUSH1 0x40 DUP3 ADD SWAP1 POP SWAP2 SWAP1 POP JUMP JUMPDEST PUSH1 0x0 PUSH2 0x2591 PUSH1 0x22 DUP4 PUSH2 0x28DD JUMP JUMPDEST SWAP2 POP PUSH2 0x259C DUP3 PUSH2 0x2BF3 JUMP JUMPDEST PUSH1 0x40 DUP3 ADD SWAP1 POP SWAP2 SWAP1 POP JUMP JUMPDEST PUSH1 0x0 PUSH2 0x25B4 PUSH1 0x21 DUP4 PUSH2 0x28DD JUMP JUMPDEST SWAP2 POP PUSH2 0x25BF DUP3 PUSH2 0x2C42 JUMP JUMPDEST PUSH1 0x40 DUP3 ADD SWAP1 POP SWAP2 SWAP1 POP JUMP JUMPDEST PUSH1 0xC0 DUP3 ADD PUSH1 0x0 DUP3 ADD MLOAD PUSH2 0x25E0 PUSH1 0x0 DUP6 ADD DUP3 PUSH2 0x2645 JUMP JUMPDEST POP PUSH1 0x20 DUP3 ADD MLOAD PUSH2 0x25F3 PUSH1 0x20 DUP6 ADD DUP3 PUSH2 0x2645 JUMP JUMPDEST POP PUSH1 0x40 DUP3 ADD MLOAD PUSH2 0x2606 PUSH1 0x40 DUP6 ADD DUP3 PUSH2 0x2645 JUMP JUMPDEST POP PUSH1 0x60 DUP3 ADD MLOAD PUSH2 0x2619 PUSH1 0x60 DUP6 ADD DUP3 PUSH2 0x2645 JUMP JUMPDEST POP PUSH1 0x80 DUP3 ADD MLOAD PUSH2 0x262C PUSH1 0x80 DUP6 ADD DUP3 PUSH2 0x2645 JUMP JUMPDEST POP PUSH1 0xA0 DUP3 ADD MLOAD PUSH2 0x263F PUSH1 0xA0 DUP6 ADD DUP3 PUSH2 0x2520 JUMP JUMPDEST POP POP POP POP JUMP JUMPDEST PUSH2 0x264E DUP2 PUSH2 0x2A41 JUMP JUMPDEST DUP3 MSTORE POP POP JUMP JUMPDEST PUSH2 0x265D DUP2 PUSH2 0x2A41 JUMP JUMPDEST DUP3 MSTORE POP POP JUMP JUMPDEST PUSH1 0x0 PUSH1 0x20 DUP3 ADD SWAP1 POP PUSH2 0x2678 PUSH1 0x0 DUP4 ADD DUP5 PUSH2 0x23F7 JUMP JUMPDEST SWAP3 SWAP2 POP POP JUMP JUMPDEST PUSH1 0x0 PUSH1 0x40 DUP3 ADD SWAP1 POP PUSH2 0x2693 PUSH1 0x0 DUP4 ADD DUP6 PUSH2 0x23F7 JUMP JUMPDEST PUSH2 0x26A0 PUSH1 0x20 DUP4 ADD DUP5 PUSH2 0x2654 JUMP JUMPDEST SWAP4 SWAP3 POP POP POP JUMP JUMPDEST PUSH1 0x0 PUSH1 0xE0 DUP3 ADD SWAP1 POP PUSH2 0x26BC PUSH1 0x0 DUP4 ADD DUP11 PUSH2 0x23F7 JUMP JUMPDEST PUSH2 0x26C9 PUSH1 0x20 DUP4 ADD DUP10 PUSH2 0x2654 JUMP JUMPDEST PUSH2 0x26D6 PUSH1 0x40 DUP4 ADD DUP9 PUSH2 0x2654 JUMP JUMPDEST PUSH2 0x26E3 PUSH1 0x60 DUP4 ADD DUP8 PUSH2 0x2654 JUMP JUMPDEST PUSH2 0x26F0 PUSH1 0x80 DUP4 ADD DUP7 PUSH2 0x2654 JUMP JUMPDEST PUSH2 0x26FD PUSH1 0xA0 DUP4 ADD DUP6 PUSH2 0x252F JUMP JUMPDEST PUSH2 0x270A PUSH1 0xC0 DUP4 ADD DUP5 PUSH2 0x2654 JUMP JUMPDEST SWAP9 SWAP8 POP POP POP POP POP POP POP POP JUMP JUMPDEST PUSH1 0x0 PUSH1 0x20 DUP3 ADD SWAP1 POP DUP2 DUP2 SUB PUSH1 0x0 DUP4 ADD MSTORE PUSH2 0x2730 DUP2 DUP5 PUSH2 0x2406 JUMP JUMPDEST SWAP1 POP SWAP3 SWAP2 POP POP JUMP JUMPDEST PUSH1 0x0 PUSH1 0x20 DUP3 ADD SWAP1 POP DUP2 DUP2 SUB PUSH1 0x0 DUP4 ADD MSTORE PUSH2 0x2752 DUP2 DUP5 PUSH2 0x2464 JUMP JUMPDEST SWAP1 POP SWAP3 SWAP2 POP POP JUMP JUMPDEST PUSH1 0x0 PUSH1 0x20 DUP3 ADD SWAP1 POP DUP2 DUP2 SUB PUSH1 0x0 DUP4 ADD MSTORE PUSH2 0x2774 DUP2 DUP5 PUSH2 0x24C2 JUMP JUMPDEST SWAP1 POP SWAP3 SWAP2 POP POP JUMP JUMPDEST PUSH1 0x0 PUSH1 0x20 DUP3 ADD SWAP1 POP PUSH2 0x2791 PUSH1 0x0 DUP4 ADD DUP5 PUSH2 0x252F JUMP JUMPDEST SWAP3 SWAP2 POP POP JUMP JUMPDEST PUSH1 0x0 PUSH1 0x20 DUP3 ADD SWAP1 POP DUP2 DUP2 SUB PUSH1 0x0 DUP4 ADD MSTORE PUSH2 0x27B0 DUP2 PUSH2 0x253E JUMP JUMPDEST SWAP1 POP SWAP2 SWAP1 POP JUMP JUMPDEST PUSH1 0x0 PUSH1 0x20 DUP3 ADD SWAP1 POP DUP2 DUP2 SUB PUSH1 0x0 DUP4 ADD MSTORE PUSH2 0x27D0 DUP2 PUSH2 0x2561 JUMP JUMPDEST SWAP1 POP SWAP2 SWAP1 POP JUMP JUMPDEST PUSH1 0x0 PUSH1 0x20 DUP3 ADD SWAP1 POP DUP2 DUP2 SUB PUSH1 0x0 DUP4 ADD MSTORE PUSH2 0x27F0 DUP2 PUSH2 0x2584 JUMP JUMPDEST SWAP1 POP SWAP2 SWAP1 POP JUMP JUMPDEST PUSH1 0x0 PUSH1 0x20 DUP3 ADD SWAP1 POP DUP2 DUP2 SUB PUSH1 0x0 DUP4 ADD MSTORE PUSH2 0x2810 DUP2 PUSH2 0x25A7 JUMP JUMPDEST SWAP1 POP SWAP2 SWAP1 POP JUMP JUMPDEST PUSH1 0x0 PUSH1 0x20 DUP3 ADD SWAP1 POP PUSH2 0x282C PUSH1 0x0 DUP4 ADD DUP5 PUSH2 0x2654 JUMP JUMPDEST SWAP3 SWAP2 POP POP JUMP JUMPDEST PUSH1 0x0 DUP2 SWAP1 POP PUSH1 0x20 DUP3 ADD SWAP1 POP SWAP2 SWAP1 POP JUMP JUMPDEST PUSH1 0x0 DUP2 SWAP1 POP PUSH1 0x20 DUP3 ADD SWAP1 POP SWAP2 SWAP1 POP JUMP JUMPDEST PUSH1 0x0 DUP2 SWAP1 POP PUSH1 0x20 DUP3 ADD SWAP1 POP SWAP2 SWAP1 POP JUMP JUMPDEST PUSH1 0x0 DUP2 MLOAD SWAP1 POP SWAP2 SWAP1 POP JUMP JUMPDEST PUSH1 0x0 DUP2 MLOAD SWAP1 POP SWAP2 SWAP1 POP JUMP JUMPDEST PUSH1 0x0 DUP2 MLOAD SWAP1 POP SWAP2 SWAP1 POP JUMP JUMPDEST PUSH1 0x0 PUSH1 0x20 DUP3 ADD SWAP1 POP SWAP2 SWAP1 POP JUMP JUMPDEST PUSH1 0x0 PUSH1 0x20 DUP3 ADD SWAP1 POP SWAP2 SWAP1 POP JUMP JUMPDEST PUSH1 0x0 PUSH1 0x20 DUP3 ADD SWAP1 POP SWAP2 SWAP1 POP JUMP JUMPDEST PUSH1 0x0 DUP3 DUP3 MSTORE PUSH1 0x20 DUP3 ADD SWAP1 POP SWAP3 SWAP2 POP POP JUMP JUMPDEST PUSH1 0x0 DUP3 DUP3 MSTORE PUSH1 0x20 DUP3 ADD SWAP1 POP SWAP3 SWAP2 POP POP JUMP JUMPDEST PUSH1 0x0 DUP3 DUP3 MSTORE PUSH1 0x20 DUP3 ADD SWAP1 POP SWAP3 SWAP2 POP POP JUMP JUMPDEST PUSH1 0x0 DUP3 DUP3 MSTORE PUSH1 0x20 DUP3 ADD SWAP1 POP SWAP3 SWAP2 POP POP JUMP JUMPDEST PUSH1 0x0 PUSH2 0x28F9 DUP3 PUSH2 0x2A41 JUMP JUMPDEST SWAP2 POP PUSH2 0x2904 DUP4 PUSH2 0x2A41 JUMP JUMPDEST SWAP3 POP DUP3 PUSH32 0xFFFFFFFFFFFFFFFFFFFFFFFFFFFFFFFFFFFFFFFFFFFFFFFFFFFFFFFFFFFFFFFF SUB DUP3 GT ISZERO PUSH2 0x2939 JUMPI PUSH2 0x2938 PUSH2 0x2A94 JUMP JUMPDEST JUMPDEST DUP3 DUP3 ADD SWAP1 POP SWAP3 SWAP2 POP POP JUMP JUMPDEST PUSH1 0x0 PUSH2 0x294F DUP3 PUSH2 0x2A41 JUMP JUMPDEST SWAP2 POP PUSH2 0x295A DUP4 PUSH2 0x2A41 JUMP JUMPDEST SWAP3 POP DUP3 PUSH2 0x296A JUMPI PUSH2 0x2969 PUSH2 0x2AC3 JUMP JUMPDEST JUMPDEST DUP3 DUP3 DIV SWAP1 POP SWAP3 SWAP2 POP POP JUMP JUMPDEST PUSH1 0x0 PUSH2 0x2980 DUP3 PUSH2 0x2A41 JUMP JUMPDEST SWAP2 POP PUSH2 0x298B DUP4 PUSH2 0x2A41 JUMP JUMPDEST SWAP3 POP DUP2 PUSH32 0xFFFFFFFFFFFFFFFFFFFFFFFFFFFFFFFFFFFFFFFFFFFFFFFFFFFFFFFFFFFFFFFF DIV DUP4 GT DUP3 ISZERO ISZERO AND ISZERO PUSH2 0x29C4 JUMPI PUSH2 0x29C3 PUSH2 0x2A94 JUMP JUMPDEST JUMPDEST DUP3 DUP3 MUL SWAP1 POP SWAP3 SWAP2 POP POP JUMP JUMPDEST PUSH1 0x0 PUSH2 0x29DA DUP3 PUSH2 0x2A41 JUMP JUMPDEST SWAP2 POP PUSH2 0x29E5 DUP4 PUSH2 0x2A41 JUMP JUMPDEST SWAP3 POP DUP3 DUP3 LT ISZERO PUSH2 0x29F8 JUMPI PUSH2 0x29F7 PUSH2 0x2A94 JUMP JUMPDEST JUMPDEST DUP3 DUP3 SUB SWAP1 POP SWAP3 SWAP2 POP POP JUMP JUMPDEST PUSH1 0x0 PUSH2 0x2A0E DUP3 PUSH2 0x2A21 JUMP JUMPDEST SWAP1 POP SWAP2 SWAP1 POP JUMP JUMPDEST PUSH1 0x0 DUP2 ISZERO ISZERO SWAP1 POP SWAP2 SWAP1 POP JUMP JUMPDEST PUSH1 0x0 PUSH20 0xFFFFFFFFFFFFFFFFFFFFFFFFFFFFFFFFFFFFFFFF DUP3 AND SWAP1 POP SWAP2 SWAP1 POP JUMP JUMPDEST PUSH1 0x0 DUP2 SWAP1 POP SWAP2 SWAP1 POP JUMP JUMPDEST PUSH1 0x0 PUSH2 0x2A56 DUP3 PUSH2 0x2A41 JUMP JUMPDEST SWAP2 POP PUSH32 0xFFFFFFFFFFFFFFFFFFFFFFFFFFFFFFFFFFFFFFFFFFFFFFFFFFFFFFFFFFFFFFFF DUP3 EQ ISZERO PUSH2 0x2A89 JUMPI PUSH2 0x2A88 PUSH2 0x2A94 JUMP JUMPDEST JUMPDEST PUSH1 0x1 DUP3 ADD SWAP1 POP SWAP2 SWAP1 POP JUMP JUMPDEST PUSH32 0x4E487B7100000000000000000000000000000000000000000000000000000000 PUSH1 0x0 MSTORE PUSH1 0x11 PUSH1 0x4 MSTORE PUSH1 0x24 PUSH1 0x0 REVERT JUMPDEST PUSH32 0x4E487B7100000000000000000000000000000000000000000000000000000000 PUSH1 0x0 MSTORE PUSH1 0x12 PUSH1 0x4 MSTORE PUSH1 0x24 PUSH1 0x0 REVERT JUMPDEST PUSH32 0x4E487B7100000000000000000000000000000000000000000000000000000000 PUSH1 0x0 MSTORE PUSH1 0x32 PUSH1 0x4 MSTORE PUSH1 0x24 PUSH1 0x0 REVERT JUMPDEST PUSH32 0x4E487B7100000000000000000000000000000000000000000000000000000000 PUSH1 0x0 MSTORE PUSH1 0x41 PUSH1 0x4 MSTORE PUSH1 0x24 PUSH1 0x0 REVERT JUMPDEST PUSH1 0x0 DUP1 REVERT JUMPDEST PUSH32 0x796F7520646F6E74206861766520696E766573746D656E7420746F2077697468 PUSH1 0x0 DUP3 ADD MSTORE PUSH32 0x647261776E000000000000000000000000000000000000000000000000000000 PUSH1 0x20 DUP3 ADD MSTORE POP JUMP JUMPDEST PUSH32 0x76616C7565206973206E6F742067726561746572207468616E20313030303020 PUSH1 0x0 DUP3 ADD MSTORE PUSH32 0x616E64206C657373207468616E20353030303030300000000000000000000000 PUSH1 0x20 DUP3 ADD MSTORE POP JUMP JUMPDEST PUSH32 0x796F7520646F6E742068617665207265776172647320746F2077697468647261 PUSH1 0x0 DUP3 ADD MSTORE PUSH32 0x776E000000000000000000000000000000000000000000000000000000000000 PUSH1 0x20 DUP3 ADD MSTORE POP JUMP JUMPDEST PUSH32 0x6F6E6C79204F776E65722063616E2063616C6C20746869732066756E6374696F PUSH1 0x0 DUP3 ADD MSTORE PUSH32 0x6E00000000000000000000000000000000000000000000000000000000000000 PUSH1 0x20 DUP3 ADD MSTORE POP JUMP JUMPDEST PUSH2 0x2C9A DUP2 PUSH2 0x2A03 JUMP JUMPDEST DUP2 EQ PUSH2 0x2CA5 JUMPI PUSH1 0x0 DUP1 REVERT JUMPDEST POP JUMP JUMPDEST PUSH2 0x2CB1 DUP2 PUSH2 0x2A15 JUMP JUMPDEST DUP2 EQ PUSH2 0x2CBC JUMPI PUSH1 0x0 DUP1 REVERT JUMPDEST POP JUMP JUMPDEST PUSH2 0x2CC8 DUP2 PUSH2 0x2A41 JUMP JUMPDEST DUP2 EQ PUSH2 0x2CD3 JUMPI PUSH1 0x0 DUP1 REVERT JUMPDEST POP JUMP INVALID LOG2 PUSH5 0x6970667358 0x22 SLT KECCAK256 0xE3 SWAP4 DUP8 0xCF SWAP11 0xDB 0xD 0xB9 PUSH11 0x4513EEC2BCB15985C48EC3 0x2C PUSH32 0x18CEFDA2853F9CC045F364736F6C634300080700330000000000000000000000 "
				},
				"gasEstimates": {
					"creation": {
						"codeDepositCost": "2306400",
						"executionCost": "185801",
						"totalCost": "2492201"
					},
					"external": {
						"DUSDReferralsList()": "infinite",
						"DUSDTotalReferrals()": "2608",
						"DUSDinvestor(address)": "infinite",
						"Stake(uint256,address)": "infinite",
						"denomenator()": "2452",
						"div_done()": "2474",
						"getAllDUSDinvestments()": "infinite",
						"getReward()": "infinite",
						"getTotalInvestmentDUSD()": "2643",
						"i_value()": "2540",
						"investmentPeriod()": "2474",
						"max_Stake_amount()": "2539",
						"min_Stake_amount()": "2562",
						"owner()": "2600",
						"referralLevel_count()": "infinite",
						"referralLevel_earning()": "infinite",
						"rewardToken()": "2517",
						"setReward(uint256,uint256)": "infinite",
						"set_max_Stake_amount(uint256)": "22610",
						"set_min_Stake_amount(uint256)": "22632",
						"set_values(uint256,uint256,uint256,uint256)": "infinite",
						"totalDUSDInvestors()": "2475",
						"totalbusiness()": "2518",
						"transferOwnership(address)": "26933",
						"unStake()": "infinite",
						"withdrawReward()": "infinite"
					},
					"internal": {
						"sendRewardToDUSDReferrals(address,uint256)": "infinite"
					}
				},
				"methodIdentifiers": {
					"DUSDReferralsList()": "0c5f58f4",
					"DUSDTotalReferrals()": "1e8aba35",
					"DUSDinvestor(address)": "d3560ee8",
					"Stake(uint256,address)": "2bccdce6",
					"denomenator()": "9740a1bc",
					"div_done()": "9a5bb417",
					"getAllDUSDinvestments()": "3a1e0833",
					"getReward()": "3d18b912",
					"getTotalInvestmentDUSD()": "929f6bbe",
					"i_value()": "b8df2d0e",
					"investmentPeriod()": "523cddfe",
					"max_Stake_amount()": "fae730bc",
					"min_Stake_amount()": "bc67eaff",
					"owner()": "8da5cb5b",
					"referralLevel_count()": "f790b81a",
					"referralLevel_earning()": "a61be99d",
					"rewardToken()": "f7c618c1",
					"setReward(uint256,uint256)": "a47bd496",
					"set_max_Stake_amount(uint256)": "500cb85f",
					"set_min_Stake_amount(uint256)": "32d4e783",
					"set_values(uint256,uint256,uint256,uint256)": "4eb1ecc9",
					"totalDUSDInvestors()": "10cde60a",
					"totalbusiness()": "e2033fcb",
					"transferOwnership(address)": "f2fde38b",
					"unStake()": "73cf575a",
					"withdrawReward()": "c885bc58"
				}
			},
			"storageLayout": {
				"storage": [
					{
						"astId": 24,
						"contract": "contracts/stake_reward_MLM.sol:Invest",
						"label": "owner",
						"offset": 0,
						"slot": "0",
						"type": "t_address"
					},
					{
						"astId": 27,
						"contract": "contracts/stake_reward_MLM.sol:Invest",
						"label": "SMCcontract",
						"offset": 0,
						"slot": "1",
						"type": "t_address"
					},
					{
						"astId": 30,
						"contract": "contracts/stake_reward_MLM.sol:Invest",
						"label": "BUSDcontract",
						"offset": 0,
						"slot": "2",
						"type": "t_address"
					},
					{
						"astId": 32,
						"contract": "contracts/stake_reward_MLM.sol:Invest",
						"label": "div_done",
						"offset": 0,
						"slot": "3",
						"type": "t_uint256"
					},
					{
						"astId": 34,
						"contract": "contracts/stake_reward_MLM.sol:Invest",
						"label": "i_value",
						"offset": 0,
						"slot": "4",
						"type": "t_uint256"
					},
					{
						"astId": 36,
						"contract": "contracts/stake_reward_MLM.sol:Invest",
						"label": "totalDUSDInvestors",
						"offset": 0,
						"slot": "5",
						"type": "t_uint256"
					},
					{
						"astId": 39,
						"contract": "contracts/stake_reward_MLM.sol:Invest",
						"label": "rewardToken",
						"offset": 0,
						"slot": "6",
						"type": "t_uint256"
					},
					{
						"astId": 42,
						"contract": "contracts/stake_reward_MLM.sol:Invest",
						"label": "min_Stake_amount",
						"offset": 0,
						"slot": "7",
						"type": "t_uint256"
					},
					{
						"astId": 45,
						"contract": "contracts/stake_reward_MLM.sol:Invest",
						"label": "max_Stake_amount",
						"offset": 0,
						"slot": "8",
						"type": "t_uint256"
					},
					{
						"astId": 48,
						"contract": "contracts/stake_reward_MLM.sol:Invest",
						"label": "denomenator",
						"offset": 0,
						"slot": "9",
						"type": "t_uint256"
					},
					{
						"astId": 51,
						"contract": "contracts/stake_reward_MLM.sol:Invest",
						"label": "investmentPeriod",
						"offset": 0,
						"slot": "10",
						"type": "t_uint256"
					},
					{
						"astId": 53,
						"contract": "contracts/stake_reward_MLM.sol:Invest",
						"label": "totalbusiness",
						"offset": 0,
						"slot": "11",
						"type": "t_uint256"
					},
					{
						"astId": 55,
						"contract": "contracts/stake_reward_MLM.sol:Invest",
						"label": "rew_till_done",
						"offset": 0,
						"slot": "12",
						"type": "t_uint256"
					},
					{
						"astId": 106,
						"contract": "contracts/stake_reward_MLM.sol:Invest",
						"label": "DUSDinvestor",
						"offset": 0,
						"slot": "13",
						"type": "t_mapping(t_address,t_struct(Data)101_storage)"
					}
				],
				"types": {
					"t_address": {
						"encoding": "inplace",
						"label": "address",
						"numberOfBytes": "20"
					},
					"t_array(t_address)dyn_storage": {
						"base": "t_address",
						"encoding": "dynamic_array",
						"label": "address[]",
						"numberOfBytes": "32"
					},
					"t_bool": {
						"encoding": "inplace",
						"label": "bool",
						"numberOfBytes": "1"
					},
					"t_mapping(t_address,t_struct(Data)101_storage)": {
						"encoding": "mapping",
						"key": "t_address",
						"label": "mapping(address => struct Invest.Data)",
						"numberOfBytes": "32",
						"value": "t_struct(Data)101_storage"
					},
					"t_mapping(t_uint256,t_struct(allInvestments)68_storage)": {
						"encoding": "mapping",
						"key": "t_uint256",
						"label": "mapping(uint256 => struct Invest.allInvestments)",
						"numberOfBytes": "32",
						"value": "t_struct(allInvestments)68_storage"
					},
					"t_mapping(t_uint256,t_struct(ref_data)73_storage)": {
						"encoding": "mapping",
						"key": "t_uint256",
						"label": "mapping(uint256 => struct Invest.ref_data)",
						"numberOfBytes": "32",
						"value": "t_struct(ref_data)73_storage"
					},
					"t_struct(Data)101_storage": {
						"encoding": "inplace",
						"label": "struct Invest.Data",
						"members": [
							{
								"astId": 78,
								"contract": "contracts/stake_reward_MLM.sol:Invest",
								"label": "investment",
								"offset": 0,
								"slot": "0",
								"type": "t_mapping(t_uint256,t_struct(allInvestments)68_storage)"
							},
							{
								"astId": 81,
								"contract": "contracts/stake_reward_MLM.sol:Invest",
								"label": "hisReferrals",
								"offset": 0,
								"slot": "1",
								"type": "t_array(t_address)dyn_storage"
							},
							{
								"astId": 83,
								"contract": "contracts/stake_reward_MLM.sol:Invest",
								"label": "referralFrom",
								"offset": 0,
								"slot": "2",
								"type": "t_address"
							},
							{
								"astId": 88,
								"contract": "contracts/stake_reward_MLM.sol:Invest",
								"label": "referralLevel",
								"offset": 0,
								"slot": "3",
								"type": "t_mapping(t_uint256,t_struct(ref_data)73_storage)"
							},
							{
								"astId": 90,
								"contract": "contracts/stake_reward_MLM.sol:Invest",
								"label": "reward",
								"offset": 0,
								"slot": "4",
								"type": "t_uint256"
							},
							{
								"astId": 92,
								"contract": "contracts/stake_reward_MLM.sol:Invest",
								"label": "noOfInvestment",
								"offset": 0,
								"slot": "5",
								"type": "t_uint256"
							},
							{
								"astId": 94,
								"contract": "contracts/stake_reward_MLM.sol:Invest",
								"label": "totalInvestment",
								"offset": 0,
								"slot": "6",
								"type": "t_uint256"
							},
							{
								"astId": 96,
								"contract": "contracts/stake_reward_MLM.sol:Invest",
								"label": "totalWithdraw_reward",
								"offset": 0,
								"slot": "7",
								"type": "t_uint256"
							},
							{
								"astId": 98,
								"contract": "contracts/stake_reward_MLM.sol:Invest",
								"label": "investBefore",
								"offset": 0,
								"slot": "8",
								"type": "t_bool"
							},
							{
								"astId": 100,
								"contract": "contracts/stake_reward_MLM.sol:Invest",
								"label": "stakeTime",
								"offset": 0,
								"slot": "9",
								"type": "t_uint256"
							}
						],
						"numberOfBytes": "320"
					},
					"t_struct(allInvestments)68_storage": {
						"encoding": "inplace",
						"label": "struct Invest.allInvestments",
						"members": [
							{
								"astId": 57,
								"contract": "contracts/stake_reward_MLM.sol:Invest",
								"label": "investedAmount",
								"offset": 0,
								"slot": "0",
								"type": "t_uint256"
							},
							{
								"astId": 59,
								"contract": "contracts/stake_reward_MLM.sol:Invest",
								"label": "withdrawnTime",
								"offset": 0,
								"slot": "1",
								"type": "t_uint256"
							},
							{
								"astId": 61,
								"contract": "contracts/stake_reward_MLM.sol:Invest",
								"label": "DepositTime",
								"offset": 0,
								"slot": "2",
								"type": "t_uint256"
							},
							{
								"astId": 63,
								"contract": "contracts/stake_reward_MLM.sol:Invest",
								"label": "investmentNum",
								"offset": 0,
								"slot": "3",
								"type": "t_uint256"
							},
							{
								"astId": 65,
								"contract": "contracts/stake_reward_MLM.sol:Invest",
								"label": "unstakeTime",
								"offset": 0,
								"slot": "4",
								"type": "t_uint256"
							},
							{
								"astId": 67,
								"contract": "contracts/stake_reward_MLM.sol:Invest",
								"label": "unstake",
								"offset": 0,
								"slot": "5",
								"type": "t_bool"
							}
						],
						"numberOfBytes": "192"
					},
					"t_struct(ref_data)73_storage": {
						"encoding": "inplace",
						"label": "struct Invest.ref_data",
						"members": [
							{
								"astId": 70,
								"contract": "contracts/stake_reward_MLM.sol:Invest",
								"label": "reward",
								"offset": 0,
								"slot": "0",
								"type": "t_uint256"
							},
							{
								"astId": 72,
								"contract": "contracts/stake_reward_MLM.sol:Invest",
								"label": "count",
								"offset": 0,
								"slot": "1",
								"type": "t_uint256"
							}
						],
						"numberOfBytes": "64"
					},
					"t_uint256": {
						"encoding": "inplace",
						"label": "uint256",
						"numberOfBytes": "32"
					}
				}
			},
			"userdoc": {
				"kind": "user",
				"methods": {},
				"version": 1
			}
		}
	}
}