{
	"contracts/cropsFarmer.sol": {
		"BNB_V3": {
			"abi": [
				{
					"inputs": [
						{
							"internalType": "address payable",
							"name": "_dev1",
							"type": "address"
						},
						{
							"internalType": "address payable",
							"name": "_dev2",
							"type": "address"
						},
						{
							"internalType": "address payable",
							"name": "_dev3",
							"type": "address"
						},
						{
							"internalType": "address payable",
							"name": "_prtnr1",
							"type": "address"
						},
						{
							"internalType": "address payable",
							"name": "_prtnr2",
							"type": "address"
						},
						{
							"internalType": "address payable",
							"name": "_mkt",
							"type": "address"
						}
					],
					"stateMutability": "nonpayable",
					"type": "constructor"
				},
				{
					"inputs": [
						{
							"internalType": "uint256",
							"name": "value",
							"type": "uint256"
						}
					],
					"name": "BONUS_COMPOUND_STEP",
					"outputs": [],
					"stateMutability": "nonpayable",
					"type": "function"
				},
				{
					"inputs": [
						{
							"internalType": "uint256",
							"name": "value",
							"type": "uint256"
						}
					],
					"name": "BONUS_DAILY_COMPOUND",
					"outputs": [],
					"stateMutability": "nonpayable",
					"type": "function"
				},
				{
					"inputs": [
						{
							"internalType": "uint256",
							"name": "value",
							"type": "uint256"
						}
					],
					"name": "BONUS_DAILY_COMPOUND_BONUS_MAX_TIMES",
					"outputs": [],
					"stateMutability": "nonpayable",
					"type": "function"
				},
				{
					"inputs": [
						{
							"internalType": "address",
							"name": "",
							"type": "address"
						}
					],
					"name": "Blacklisted",
					"outputs": [
						{
							"internalType": "bool",
							"name": "",
							"type": "bool"
						}
					],
					"stateMutability": "view",
					"type": "function"
				},
				{
					"inputs": [
						{
							"internalType": "address",
							"name": "value",
							"type": "address"
						}
					],
					"name": "CHANGE_OWNERSHIP",
					"outputs": [],
					"stateMutability": "nonpayable",
					"type": "function"
				},
				{
					"inputs": [],
					"name": "COMPOUND_BONUS",
					"outputs": [
						{
							"internalType": "uint256",
							"name": "",
							"type": "uint256"
						}
					],
					"stateMutability": "view",
					"type": "function"
				},
				{
					"inputs": [],
					"name": "COMPOUND_BONUS_MAX_TIMES",
					"outputs": [
						{
							"internalType": "uint256",
							"name": "",
							"type": "uint256"
						}
					],
					"stateMutability": "view",
					"type": "function"
				},
				{
					"inputs": [],
					"name": "COMPOUND_FOR_NO_TAX_WITHDRAWAL",
					"outputs": [
						{
							"internalType": "uint256",
							"name": "",
							"type": "uint256"
						}
					],
					"stateMutability": "view",
					"type": "function"
				},
				{
					"inputs": [],
					"name": "COMPOUND_STEP",
					"outputs": [
						{
							"internalType": "uint256",
							"name": "",
							"type": "uint256"
						}
					],
					"stateMutability": "view",
					"type": "function"
				},
				{
					"inputs": [],
					"name": "CUTOFF_STEP",
					"outputs": [
						{
							"internalType": "uint256",
							"name": "",
							"type": "uint256"
						}
					],
					"stateMutability": "view",
					"type": "function"
				},
				{
					"inputs": [],
					"name": "EGGS_TO_HIRE_1MINERS",
					"outputs": [
						{
							"internalType": "uint256",
							"name": "",
							"type": "uint256"
						}
					],
					"stateMutability": "view",
					"type": "function"
				},
				{
					"inputs": [],
					"name": "MARKET_EGGS_DIVISOR",
					"outputs": [
						{
							"internalType": "uint256",
							"name": "",
							"type": "uint256"
						}
					],
					"stateMutability": "view",
					"type": "function"
				},
				{
					"inputs": [],
					"name": "MIN_INVEST_LIMIT",
					"outputs": [
						{
							"internalType": "uint256",
							"name": "",
							"type": "uint256"
						}
					],
					"stateMutability": "view",
					"type": "function"
				},
				{
					"inputs": [],
					"name": "MKT",
					"outputs": [
						{
							"internalType": "uint256",
							"name": "",
							"type": "uint256"
						}
					],
					"stateMutability": "view",
					"type": "function"
				},
				{
					"inputs": [],
					"name": "PERCENTS_DIVIDER",
					"outputs": [
						{
							"internalType": "uint256",
							"name": "",
							"type": "uint256"
						}
					],
					"stateMutability": "view",
					"type": "function"
				},
				{
					"inputs": [
						{
							"internalType": "uint256",
							"name": "value",
							"type": "uint256"
						}
					],
					"name": "PRC_EGGS_TO_HIRE_1MINERS",
					"outputs": [],
					"stateMutability": "nonpayable",
					"type": "function"
				},
				{
					"inputs": [
						{
							"internalType": "uint256",
							"name": "value",
							"type": "uint256"
						}
					],
					"name": "PRC_MARKET_EGGS_DIVISOR",
					"outputs": [],
					"stateMutability": "nonpayable",
					"type": "function"
				},
				{
					"inputs": [
						{
							"internalType": "uint256",
							"name": "value",
							"type": "uint256"
						}
					],
					"name": "PRC_MKT",
					"outputs": [],
					"stateMutability": "nonpayable",
					"type": "function"
				},
				{
					"inputs": [
						{
							"internalType": "uint256",
							"name": "value",
							"type": "uint256"
						}
					],
					"name": "PRC_REFERRAL",
					"outputs": [],
					"stateMutability": "nonpayable",
					"type": "function"
				},
				{
					"inputs": [
						{
							"internalType": "uint256",
							"name": "value",
							"type": "uint256"
						}
					],
					"name": "PRC_TAX",
					"outputs": [],
					"stateMutability": "nonpayable",
					"type": "function"
				},
				{
					"inputs": [],
					"name": "REFERRAL",
					"outputs": [
						{
							"internalType": "uint256",
							"name": "",
							"type": "uint256"
						}
					],
					"stateMutability": "view",
					"type": "function"
				},
				{
					"inputs": [
						{
							"internalType": "uint256",
							"name": "value",
							"type": "uint256"
						}
					],
					"name": "SET_COMPOUND_FOR_NO_TAX_WITHDRAWAL",
					"outputs": [],
					"stateMutability": "nonpayable",
					"type": "function"
				},
				{
					"inputs": [
						{
							"internalType": "uint256",
							"name": "value",
							"type": "uint256"
						}
					],
					"name": "SET_CUTOFF_STEP",
					"outputs": [],
					"stateMutability": "nonpayable",
					"type": "function"
				},
				{
					"inputs": [
						{
							"internalType": "uint256",
							"name": "value",
							"type": "uint256"
						}
					],
					"name": "SET_INVEST_MIN",
					"outputs": [],
					"stateMutability": "nonpayable",
					"type": "function"
				},
				{
					"inputs": [
						{
							"internalType": "uint256",
							"name": "value",
							"type": "uint256"
						}
					],
					"name": "SET_WALLET_DEPOSIT_LIMIT",
					"outputs": [],
					"stateMutability": "nonpayable",
					"type": "function"
				},
				{
					"inputs": [
						{
							"internalType": "uint256",
							"name": "value",
							"type": "uint256"
						}
					],
					"name": "SET_WITHDRAWAL_TAX",
					"outputs": [],
					"stateMutability": "nonpayable",
					"type": "function"
				},
				{
					"inputs": [
						{
							"internalType": "uint256",
							"name": "value",
							"type": "uint256"
						}
					],
					"name": "SET_WITHDRAW_COOLDOWN",
					"outputs": [],
					"stateMutability": "nonpayable",
					"type": "function"
				},
				{
					"inputs": [],
					"name": "TAX",
					"outputs": [
						{
							"internalType": "uint256",
							"name": "",
							"type": "uint256"
						}
					],
					"stateMutability": "view",
					"type": "function"
				},
				{
					"inputs": [],
					"name": "WALLET_DEPOSIT_LIMIT",
					"outputs": [
						{
							"internalType": "uint256",
							"name": "",
							"type": "uint256"
						}
					],
					"stateMutability": "view",
					"type": "function"
				},
				{
					"inputs": [],
					"name": "WITHDRAWAL_TAX",
					"outputs": [
						{
							"internalType": "uint256",
							"name": "",
							"type": "uint256"
						}
					],
					"stateMutability": "view",
					"type": "function"
				},
				{
					"inputs": [],
					"name": "WITHDRAW_COOLDOWN",
					"outputs": [
						{
							"internalType": "uint256",
							"name": "",
							"type": "uint256"
						}
					],
					"stateMutability": "view",
					"type": "function"
				},
				{
					"inputs": [
						{
							"internalType": "address",
							"name": "Wallet",
							"type": "address"
						},
						{
							"internalType": "bool",
							"name": "isBlacklisted",
							"type": "bool"
						}
					],
					"name": "blackListWallet",
					"outputs": [],
					"stateMutability": "nonpayable",
					"type": "function"
				},
				{
					"inputs": [
						{
							"internalType": "address[]",
							"name": "Wallet",
							"type": "address[]"
						},
						{
							"internalType": "bool",
							"name": "isBlacklisted",
							"type": "bool"
						}
					],
					"name": "blackMultipleWallets",
					"outputs": [],
					"stateMutability": "nonpayable",
					"type": "function"
				},
				{
					"inputs": [],
					"name": "blacklistActive",
					"outputs": [
						{
							"internalType": "bool",
							"name": "",
							"type": "bool"
						}
					],
					"stateMutability": "view",
					"type": "function"
				},
				{
					"inputs": [
						{
							"internalType": "uint256",
							"name": "eth",
							"type": "uint256"
						},
						{
							"internalType": "uint256",
							"name": "contractBalance",
							"type": "uint256"
						}
					],
					"name": "calculateEggBuy",
					"outputs": [
						{
							"internalType": "uint256",
							"name": "",
							"type": "uint256"
						}
					],
					"stateMutability": "view",
					"type": "function"
				},
				{
					"inputs": [
						{
							"internalType": "uint256",
							"name": "eth",
							"type": "uint256"
						}
					],
					"name": "calculateEggBuySimple",
					"outputs": [
						{
							"internalType": "uint256",
							"name": "",
							"type": "uint256"
						}
					],
					"stateMutability": "view",
					"type": "function"
				},
				{
					"inputs": [
						{
							"internalType": "uint256",
							"name": "eggs",
							"type": "uint256"
						}
					],
					"name": "calculateEggSell",
					"outputs": [
						{
							"internalType": "uint256",
							"name": "",
							"type": "uint256"
						}
					],
					"stateMutability": "view",
					"type": "function"
				},
				{
					"inputs": [
						{
							"internalType": "uint256",
							"name": "eggs",
							"type": "uint256"
						},
						{
							"internalType": "uint256",
							"name": "amount",
							"type": "uint256"
						}
					],
					"name": "calculateEggSellForYield",
					"outputs": [
						{
							"internalType": "uint256",
							"name": "",
							"type": "uint256"
						}
					],
					"stateMutability": "view",
					"type": "function"
				},
				{
					"inputs": [
						{
							"internalType": "uint256",
							"name": "rt",
							"type": "uint256"
						},
						{
							"internalType": "uint256",
							"name": "rs",
							"type": "uint256"
						},
						{
							"internalType": "uint256",
							"name": "bs",
							"type": "uint256"
						}
					],
					"name": "calculateTrade",
					"outputs": [
						{
							"internalType": "uint256",
							"name": "",
							"type": "uint256"
						}
					],
					"stateMutability": "view",
					"type": "function"
				},
				{
					"inputs": [
						{
							"internalType": "address",
							"name": "Wallet",
							"type": "address"
						}
					],
					"name": "checkIfBlacklisted",
					"outputs": [
						{
							"internalType": "bool",
							"name": "blacklisted",
							"type": "bool"
						}
					],
					"stateMutability": "view",
					"type": "function"
				},
				{
					"inputs": [],
					"name": "contractStarted",
					"outputs": [
						{
							"internalType": "bool",
							"name": "",
							"type": "bool"
						}
					],
					"stateMutability": "view",
					"type": "function"
				},
				{
					"inputs": [],
					"name": "dev1",
					"outputs": [
						{
							"internalType": "address payable",
							"name": "",
							"type": "address"
						}
					],
					"stateMutability": "view",
					"type": "function"
				},
				{
					"inputs": [],
					"name": "dev2",
					"outputs": [
						{
							"internalType": "address payable",
							"name": "",
							"type": "address"
						}
					],
					"stateMutability": "view",
					"type": "function"
				},
				{
					"inputs": [],
					"name": "dev3",
					"outputs": [
						{
							"internalType": "address payable",
							"name": "",
							"type": "address"
						}
					],
					"stateMutability": "view",
					"type": "function"
				},
				{
					"inputs": [
						{
							"internalType": "address",
							"name": "",
							"type": "address"
						}
					],
					"name": "firstDeposit",
					"outputs": [
						{
							"internalType": "uint256",
							"name": "",
							"type": "uint256"
						}
					],
					"stateMutability": "view",
					"type": "function"
				},
				{
					"inputs": [],
					"name": "fundContract",
					"outputs": [],
					"stateMutability": "payable",
					"type": "function"
				},
				{
					"inputs": [
						{
							"internalType": "address",
							"name": "_adr",
							"type": "address"
						}
					],
					"name": "getAvailableEarnings",
					"outputs": [
						{
							"internalType": "uint256",
							"name": "",
							"type": "uint256"
						}
					],
					"stateMutability": "view",
					"type": "function"
				},
				{
					"inputs": [],
					"name": "getBalance",
					"outputs": [
						{
							"internalType": "uint256",
							"name": "",
							"type": "uint256"
						}
					],
					"stateMutability": "view",
					"type": "function"
				},
				{
					"inputs": [
						{
							"internalType": "address",
							"name": "_adr",
							"type": "address"
						},
						{
							"internalType": "uint256",
							"name": "amount",
							"type": "uint256"
						}
					],
					"name": "getDailyCompoundBonus",
					"outputs": [
						{
							"internalType": "uint256",
							"name": "",
							"type": "uint256"
						}
					],
					"stateMutability": "view",
					"type": "function"
				},
				{
					"inputs": [
						{
							"internalType": "address",
							"name": "adr",
							"type": "address"
						}
					],
					"name": "getEggsSinceLastHatch",
					"outputs": [
						{
							"internalType": "uint256",
							"name": "",
							"type": "uint256"
						}
					],
					"stateMutability": "view",
					"type": "function"
				},
				{
					"inputs": [
						{
							"internalType": "uint256",
							"name": "amount",
							"type": "uint256"
						}
					],
					"name": "getEggsYield",
					"outputs": [
						{
							"internalType": "uint256",
							"name": "",
							"type": "uint256"
						},
						{
							"internalType": "uint256",
							"name": "",
							"type": "uint256"
						}
					],
					"stateMutability": "view",
					"type": "function"
				},
				{
					"inputs": [],
					"name": "getMyEggs",
					"outputs": [
						{
							"internalType": "uint256",
							"name": "",
							"type": "uint256"
						}
					],
					"stateMutability": "view",
					"type": "function"
				},
				{
					"inputs": [],
					"name": "getMyMiners",
					"outputs": [
						{
							"internalType": "uint256",
							"name": "",
							"type": "uint256"
						}
					],
					"stateMutability": "view",
					"type": "function"
				},
				{
					"inputs": [],
					"name": "getSiteInfo",
					"outputs": [
						{
							"internalType": "uint256",
							"name": "_totalStaked",
							"type": "uint256"
						},
						{
							"internalType": "uint256",
							"name": "_totalDeposits",
							"type": "uint256"
						},
						{
							"internalType": "uint256",
							"name": "_totalCompound",
							"type": "uint256"
						},
						{
							"internalType": "uint256",
							"name": "_totalRefBonus",
							"type": "uint256"
						}
					],
					"stateMutability": "view",
					"type": "function"
				},
				{
					"inputs": [],
					"name": "getTimeStamp",
					"outputs": [
						{
							"internalType": "uint256",
							"name": "",
							"type": "uint256"
						}
					],
					"stateMutability": "view",
					"type": "function"
				},
				{
					"inputs": [
						{
							"internalType": "address",
							"name": "_adr",
							"type": "address"
						}
					],
					"name": "getUserInfo",
					"outputs": [
						{
							"internalType": "uint256",
							"name": "_initialDeposit",
							"type": "uint256"
						},
						{
							"internalType": "uint256",
							"name": "_userDeposit",
							"type": "uint256"
						},
						{
							"internalType": "uint256",
							"name": "_miners",
							"type": "uint256"
						},
						{
							"internalType": "uint256",
							"name": "_claimedEggs",
							"type": "uint256"
						},
						{
							"internalType": "uint256",
							"name": "_lastHatch",
							"type": "uint256"
						},
						{
							"internalType": "address",
							"name": "_referrer",
							"type": "address"
						},
						{
							"internalType": "uint256",
							"name": "_referrals",
							"type": "uint256"
						},
						{
							"internalType": "uint256",
							"name": "_totalWithdrawn",
							"type": "uint256"
						},
						{
							"internalType": "uint256",
							"name": "_referralEggRewards",
							"type": "uint256"
						},
						{
							"internalType": "uint256",
							"name": "_dailyCompoundBonus",
							"type": "uint256"
						},
						{
							"internalType": "uint256",
							"name": "_farmerCompoundCount",
							"type": "uint256"
						},
						{
							"internalType": "uint256",
							"name": "_lastWithdrawTime",
							"type": "uint256"
						}
					],
					"stateMutability": "view",
					"type": "function"
				},
				{
					"inputs": [
						{
							"internalType": "address",
							"name": "ref",
							"type": "address"
						}
					],
					"name": "hireFarmers",
					"outputs": [],
					"stateMutability": "payable",
					"type": "function"
				},
				{
					"inputs": [
						{
							"internalType": "bool",
							"name": "isCompound",
							"type": "bool"
						}
					],
					"name": "hireMoreFarmers",
					"outputs": [],
					"stateMutability": "nonpayable",
					"type": "function"
				},
				{
					"inputs": [],
					"name": "marketEggs",
					"outputs": [
						{
							"internalType": "uint256",
							"name": "",
							"type": "uint256"
						}
					],
					"stateMutability": "view",
					"type": "function"
				},
				{
					"inputs": [],
					"name": "mkt",
					"outputs": [
						{
							"internalType": "address payable",
							"name": "",
							"type": "address"
						}
					],
					"stateMutability": "view",
					"type": "function"
				},
				{
					"inputs": [],
					"name": "owner",
					"outputs": [
						{
							"internalType": "address",
							"name": "",
							"type": "address"
						}
					],
					"stateMutability": "view",
					"type": "function"
				},
				{
					"inputs": [],
					"name": "prtnr1",
					"outputs": [
						{
							"internalType": "address payable",
							"name": "",
							"type": "address"
						}
					],
					"stateMutability": "view",
					"type": "function"
				},
				{
					"inputs": [],
					"name": "prtnr2",
					"outputs": [
						{
							"internalType": "address payable",
							"name": "",
							"type": "address"
						}
					],
					"stateMutability": "view",
					"type": "function"
				},
				{
					"inputs": [
						{
							"internalType": "address",
							"name": "",
							"type": "address"
						}
					],
					"name": "referralEarning",
					"outputs": [
						{
							"internalType": "uint256",
							"name": "",
							"type": "uint256"
						}
					],
					"stateMutability": "view",
					"type": "function"
				},
				{
					"inputs": [],
					"name": "sellCrops",
					"outputs": [],
					"stateMutability": "nonpayable",
					"type": "function"
				},
				{
					"inputs": [
						{
							"internalType": "bool",
							"name": "isActive",
							"type": "bool"
						}
					],
					"name": "setblacklistActive",
					"outputs": [],
					"stateMutability": "nonpayable",
					"type": "function"
				},
				{
					"inputs": [
						{
							"internalType": "address",
							"name": "addr",
							"type": "address"
						}
					],
					"name": "startFarm",
					"outputs": [],
					"stateMutability": "payable",
					"type": "function"
				},
				{
					"inputs": [],
					"name": "totalCompound",
					"outputs": [
						{
							"internalType": "uint256",
							"name": "",
							"type": "uint256"
						}
					],
					"stateMutability": "view",
					"type": "function"
				},
				{
					"inputs": [],
					"name": "totalDeposits",
					"outputs": [
						{
							"internalType": "uint256",
							"name": "",
							"type": "uint256"
						}
					],
					"stateMutability": "view",
					"type": "function"
				},
				{
					"inputs": [],
					"name": "totalRefBonus",
					"outputs": [
						{
							"internalType": "uint256",
							"name": "",
							"type": "uint256"
						}
					],
					"stateMutability": "view",
					"type": "function"
				},
				{
					"inputs": [],
					"name": "totalStaked",
					"outputs": [
						{
							"internalType": "uint256",
							"name": "",
							"type": "uint256"
						}
					],
					"stateMutability": "view",
					"type": "function"
				},
				{
					"inputs": [],
					"name": "totalWithdrawn",
					"outputs": [
						{
							"internalType": "uint256",
							"name": "",
							"type": "uint256"
						}
					],
					"stateMutability": "view",
					"type": "function"
				},
				{
					"inputs": [
						{
							"internalType": "address",
							"name": "",
							"type": "address"
						}
					],
					"name": "users",
					"outputs": [
						{
							"internalType": "uint256",
							"name": "initialDeposit",
							"type": "uint256"
						},
						{
							"internalType": "uint256",
							"name": "userDeposit",
							"type": "uint256"
						},
						{
							"internalType": "uint256",
							"name": "miners",
							"type": "uint256"
						},
						{
							"internalType": "uint256",
							"name": "claimedEggs",
							"type": "uint256"
						},
						{
							"internalType": "uint256",
							"name": "lastHatch",
							"type": "uint256"
						},
						{
							"internalType": "address",
							"name": "referrer",
							"type": "address"
						},
						{
							"internalType": "uint256",
							"name": "referralsCount",
							"type": "uint256"
						},
						{
							"internalType": "uint256",
							"name": "referralEggRewards",
							"type": "uint256"
						},
						{
							"internalType": "uint256",
							"name": "totalWithdrawn",
							"type": "uint256"
						},
						{
							"internalType": "uint256",
							"name": "dailyCompoundBonus",
							"type": "uint256"
						},
						{
							"internalType": "uint256",
							"name": "farmerCompoundCount",
							"type": "uint256"
						},
						{
							"internalType": "uint256",
							"name": "lastWithdrawTime",
							"type": "uint256"
						}
					],
					"stateMutability": "view",
					"type": "function"
				}
			],
			"devdoc": {
				"kind": "dev",
				"methods": {},
				"version": 1
			},
			"evm": {
				"assembly": "    /* \"contracts/cropsFarmer.sol\":56:18171  contract BNB_V3 {... */\n  mstore(0x40, 0x80)\n    /* \"contracts/cropsFarmer.sol\":177:184  1440000 */\n  0x15f900\n    /* \"contracts/cropsFarmer.sol\":139:184  uint256 public EGGS_TO_HIRE_1MINERS = 1440000 */\n  0x00\n  sstore\n    /* \"contracts/cropsFarmer.sol\":216:218  70 */\n  0x46\n    /* \"contracts/cropsFarmer.sol\":190:218  uint256 public REFERRAL = 70 */\n  0x01\n  sstore\n    /* \"contracts/cropsFarmer.sol\":258:262  1000 */\n  0x03e8\n    /* \"contracts/cropsFarmer.sol\":224:262  uint256 public PERCENTS_DIVIDER = 1000 */\n  0x02\n  sstore\n    /* \"contracts/cropsFarmer.sol\":289:290  9 */\n  0x09\n    /* \"contracts/cropsFarmer.sol\":268:290  uint256 public TAX = 9 */\n  0x03\n  sstore\n    /* \"contracts/cropsFarmer.sol\":317:319  12 */\n  0x0c\n    /* \"contracts/cropsFarmer.sol\":296:319  uint256 public MKT = 12 */\n  0x04\n  sstore\n    /* \"contracts/cropsFarmer.sol\":362:363  2 */\n  0x02\n    /* \"contracts/cropsFarmer.sol\":325:363  uint256 public MARKET_EGGS_DIVISOR = 2 */\n  0x05\n  sstore\n    /* \"contracts/cropsFarmer.sol\":404:421  30000000000000000 */\n  0x6a94d74f430000\n    /* \"contracts/cropsFarmer.sol\":370:421  uint256 public MIN_INVEST_LIMIT = 30000000000000000 */\n  0x06\n  sstore\n    /* \"contracts/cropsFarmer.sol\":483:492  25 * 1e18 */\n  0x015af1d78b58c40000\n    /* \"contracts/cropsFarmer.sol\":445:492  uint256 public WALLET_DEPOSIT_LIMIT = 25 * 1e18 */\n  0x07\n  sstore\n    /* \"contracts/cropsFarmer.sol\":544:546  20 */\n  0x14\n    /* \"contracts/cropsFarmer.sol\":512:546  uint256 public COMPOUND_BONUS = 20 */\n  0x08\n  sstore\n    /* \"contracts/cropsFarmer.sol\":591:593  10 */\n  0x0a\n    /* \"contracts/cropsFarmer.sol\":549:593  uint256 public COMPOUND_BONUS_MAX_TIMES = 10 */\n  0x09\n  sstore\n    /* \"contracts/cropsFarmer.sol\":630:636  5 * 60 */\n  0x012c\n    /* \"contracts/cropsFarmer.sol\":599:636  uint256 public COMPOUND_STEP = 5 * 60 */\n  0x0a\n  sstore\n    /* \"contracts/cropsFarmer.sol\":690:693  350 */\n  0x015e\n    /* \"contracts/cropsFarmer.sol\":658:693  uint256 public WITHDRAWAL_TAX = 350 */\n  0x0b\n  sstore\n    /* \"contracts/cropsFarmer.sol\":752:754  10 */\n  0x0a\n    /* \"contracts/cropsFarmer.sol\":704:754  uint256 public COMPOUND_FOR_NO_TAX_WITHDRAWAL = 10 */\n  0x0c\n  sstore\n    /* \"contracts/cropsFarmer.sol\":976:981  10000 */\n  0x2710\n    /* \"contracts/cropsFarmer.sol\":962:981  uint256 PSN = 10000 */\n  0x13\n  sstore\n    /* \"contracts/cropsFarmer.sol\":1002:1006  5000 */\n  0x1388\n    /* \"contracts/cropsFarmer.sol\":987:1006  uint256 PSNH = 5000 */\n  0x14\n  sstore\n    /* \"contracts/cropsFarmer.sol\":1075:1079  true */\n  0x01\n    /* \"contracts/cropsFarmer.sol\":1045:1079  bool public blacklistActive = true */\n  0x15\n  exp(0x0100, 0x01)\n  dup2\n  sload\n  dup2\n  0xff\n  mul\n  not\n  and\n  swap1\n  dup4\n  iszero\n  iszero\n  mul\n  or\n  swap1\n  sstore\n  pop\n    /* \"contracts/cropsFarmer.sol\":1266:1278  48 * 60 * 60 */\n  0x02a300\n    /* \"contracts/cropsFarmer.sol\":1237:1278  uint256 public CUTOFF_STEP = 48 * 60 * 60 */\n  0x19\n  sstore\n    /* \"contracts/cropsFarmer.sol\":1316:1327  4 * 60 * 60 */\n  0x3840\n    /* \"contracts/cropsFarmer.sol\":1281:1327  uint256 public WITHDRAW_COOLDOWN = 4 * 60 * 60 */\n  0x1a\n  sstore\n    /* \"contracts/cropsFarmer.sol\":2085:2560  constructor(address payable _dev1, address payable _dev2, address payable _dev3, ... */\n  callvalue\n  dup1\n  iszero\n  tag_1\n  jumpi\n  0x00\n  dup1\n  revert\ntag_1:\n  pop\n  mload(0x40)\n  sub(codesize, bytecodeSize)\n  dup1\n  bytecodeSize\n  dup4\n  codecopy\n  dup2\n  dup2\n  add\n  0x40\n  mstore\n  dup2\n  add\n  swap1\n  tag_2\n  swap2\n  swap1\n  tag_3\n  jump\t// in\ntag_2:\n    /* \"contracts/cropsFarmer.sol\":2256:2273  isContract(_dev1) */\n  tag_6\n    /* \"contracts/cropsFarmer.sol\":2267:2272  _dev1 */\n  dup7\n    /* \"contracts/cropsFarmer.sol\":2256:2266  isContract */\n  shl(0x20, tag_7)\n    /* \"contracts/cropsFarmer.sol\":2256:2273  isContract(_dev1) */\n  0x20\n  shr\n  jump\t// in\ntag_6:\n    /* \"contracts/cropsFarmer.sol\":2255:2273  !isContract(_dev1) */\n  iszero\n    /* \"contracts/cropsFarmer.sol\":2255:2295  !isContract(_dev1) && !isContract(_dev2) */\n  dup1\n  iszero\n  tag_8\n  jumpi\n  pop\n    /* \"contracts/cropsFarmer.sol\":2278:2295  isContract(_dev2) */\n  tag_9\n    /* \"contracts/cropsFarmer.sol\":2289:2294  _dev2 */\n  dup6\n    /* \"contracts/cropsFarmer.sol\":2278:2288  isContract */\n  shl(0x20, tag_7)\n    /* \"contracts/cropsFarmer.sol\":2278:2295  isContract(_dev2) */\n  0x20\n  shr\n  jump\t// in\ntag_9:\n    /* \"contracts/cropsFarmer.sol\":2277:2295  !isContract(_dev2) */\n  iszero\n    /* \"contracts/cropsFarmer.sol\":2255:2295  !isContract(_dev1) && !isContract(_dev2) */\ntag_8:\n    /* \"contracts/cropsFarmer.sol\":2255:2317  !isContract(_dev1) && !isContract(_dev2) && !isContract(_dev3) */\n  dup1\n  iszero\n  tag_10\n  jumpi\n  pop\n    /* \"contracts/cropsFarmer.sol\":2300:2317  isContract(_dev3) */\n  tag_11\n    /* \"contracts/cropsFarmer.sol\":2311:2316  _dev3 */\n  dup5\n    /* \"contracts/cropsFarmer.sol\":2300:2310  isContract */\n  shl(0x20, tag_7)\n    /* \"contracts/cropsFarmer.sol\":2300:2317  isContract(_dev3) */\n  0x20\n  shr\n  jump\t// in\ntag_11:\n    /* \"contracts/cropsFarmer.sol\":2299:2317  !isContract(_dev3) */\n  iszero\n    /* \"contracts/cropsFarmer.sol\":2255:2317  !isContract(_dev1) && !isContract(_dev2) && !isContract(_dev3) */\ntag_10:\n    /* \"contracts/cropsFarmer.sol\":2255:2341  !isContract(_dev1) && !isContract(_dev2) && !isContract(_dev3) && !isContract(_prtnr1) */\n  dup1\n  iszero\n  tag_12\n  jumpi\n  pop\n    /* \"contracts/cropsFarmer.sol\":2322:2341  isContract(_prtnr1) */\n  tag_13\n    /* \"contracts/cropsFarmer.sol\":2333:2340  _prtnr1 */\n  dup4\n    /* \"contracts/cropsFarmer.sol\":2322:2332  isContract */\n  shl(0x20, tag_7)\n    /* \"contracts/cropsFarmer.sol\":2322:2341  isContract(_prtnr1) */\n  0x20\n  shr\n  jump\t// in\ntag_13:\n    /* \"contracts/cropsFarmer.sol\":2321:2341  !isContract(_prtnr1) */\n  iszero\n    /* \"contracts/cropsFarmer.sol\":2255:2341  !isContract(_dev1) && !isContract(_dev2) && !isContract(_dev3) && !isContract(_prtnr1) */\ntag_12:\n    /* \"contracts/cropsFarmer.sol\":2255:2365  !isContract(_dev1) && !isContract(_dev2) && !isContract(_dev3) && !isContract(_prtnr1) && !isContract(_prtnr2) */\n  dup1\n  iszero\n  tag_14\n  jumpi\n  pop\n    /* \"contracts/cropsFarmer.sol\":2346:2365  isContract(_prtnr2) */\n  tag_15\n    /* \"contracts/cropsFarmer.sol\":2357:2364  _prtnr2 */\n  dup3\n    /* \"contracts/cropsFarmer.sol\":2346:2356  isContract */\n  shl(0x20, tag_7)\n    /* \"contracts/cropsFarmer.sol\":2346:2365  isContract(_prtnr2) */\n  0x20\n  shr\n  jump\t// in\ntag_15:\n    /* \"contracts/cropsFarmer.sol\":2345:2365  !isContract(_prtnr2) */\n  iszero\n    /* \"contracts/cropsFarmer.sol\":2255:2365  !isContract(_dev1) && !isContract(_dev2) && !isContract(_dev3) && !isContract(_prtnr1) && !isContract(_prtnr2) */\ntag_14:\n    /* \"contracts/cropsFarmer.sol\":2255:2386  !isContract(_dev1) && !isContract(_dev2) && !isContract(_dev3) && !isContract(_prtnr1) && !isContract(_prtnr2) && !isContract(_mkt) */\n  dup1\n  iszero\n  tag_16\n  jumpi\n  pop\n    /* \"contracts/cropsFarmer.sol\":2370:2386  isContract(_mkt) */\n  tag_17\n    /* \"contracts/cropsFarmer.sol\":2381:2385  _mkt */\n  dup2\n    /* \"contracts/cropsFarmer.sol\":2370:2380  isContract */\n  shl(0x20, tag_7)\n    /* \"contracts/cropsFarmer.sol\":2370:2386  isContract(_mkt) */\n  0x20\n  shr\n  jump\t// in\ntag_17:\n    /* \"contracts/cropsFarmer.sol\":2369:2386  !isContract(_mkt) */\n  iszero\n    /* \"contracts/cropsFarmer.sol\":2255:2386  !isContract(_dev1) && !isContract(_dev2) && !isContract(_dev3) && !isContract(_prtnr1) && !isContract(_prtnr2) && !isContract(_mkt) */\ntag_16:\n    /* \"contracts/cropsFarmer.sol\":2247:2387  require(!isContract(_dev1) && !isContract(_dev2) && !isContract(_dev3) && !isContract(_prtnr1) && !isContract(_prtnr2) && !isContract(_mkt)) */\n  tag_18\n  jumpi\n  0x00\n  dup1\n  revert\ntag_18:\n    /* \"contracts/cropsFarmer.sol\":2405:2415  msg.sender */\n  caller\n    /* \"contracts/cropsFarmer.sol\":2397:2402  owner */\n  0x1b\n  0x00\n    /* \"contracts/cropsFarmer.sol\":2397:2415  owner = msg.sender */\n  0x0100\n  exp\n  dup2\n  sload\n  dup2\n  0xffffffffffffffffffffffffffffffffffffffff\n  mul\n  not\n  and\n  swap1\n  dup4\n  0xffffffffffffffffffffffffffffffffffffffff\n  and\n  mul\n  or\n  swap1\n  sstore\n  pop\n    /* \"contracts/cropsFarmer.sol\":2432:2437  _dev1 */\n  dup6\n    /* \"contracts/cropsFarmer.sol\":2425:2429  dev1 */\n  0x1c\n  0x00\n    /* \"contracts/cropsFarmer.sol\":2425:2437  dev1 = _dev1 */\n  0x0100\n  exp\n  dup2\n  sload\n  dup2\n  0xffffffffffffffffffffffffffffffffffffffff\n  mul\n  not\n  and\n  swap1\n  dup4\n  0xffffffffffffffffffffffffffffffffffffffff\n  and\n  mul\n  or\n  swap1\n  sstore\n  pop\n    /* \"contracts/cropsFarmer.sol\":2454:2459  _dev2 */\n  dup5\n    /* \"contracts/cropsFarmer.sol\":2447:2451  dev2 */\n  0x1d\n  0x00\n    /* \"contracts/cropsFarmer.sol\":2447:2459  dev2 = _dev2 */\n  0x0100\n  exp\n  dup2\n  sload\n  dup2\n  0xffffffffffffffffffffffffffffffffffffffff\n  mul\n  not\n  and\n  swap1\n  dup4\n  0xffffffffffffffffffffffffffffffffffffffff\n  and\n  mul\n  or\n  swap1\n  sstore\n  pop\n    /* \"contracts/cropsFarmer.sol\":2476:2481  _dev3 */\n  dup4\n    /* \"contracts/cropsFarmer.sol\":2469:2473  dev3 */\n  0x1e\n  0x00\n    /* \"contracts/cropsFarmer.sol\":2469:2481  dev3 = _dev3 */\n  0x0100\n  exp\n  dup2\n  sload\n  dup2\n  0xffffffffffffffffffffffffffffffffffffffff\n  mul\n  not\n  and\n  swap1\n  dup4\n  0xffffffffffffffffffffffffffffffffffffffff\n  and\n  mul\n  or\n  swap1\n  sstore\n  pop\n    /* \"contracts/cropsFarmer.sol\":2500:2507  _prtnr1 */\n  dup3\n    /* \"contracts/cropsFarmer.sol\":2491:2497  prtnr1 */\n  0x1f\n  0x00\n    /* \"contracts/cropsFarmer.sol\":2491:2507  prtnr1 = _prtnr1 */\n  0x0100\n  exp\n  dup2\n  sload\n  dup2\n  0xffffffffffffffffffffffffffffffffffffffff\n  mul\n  not\n  and\n  swap1\n  dup4\n  0xffffffffffffffffffffffffffffffffffffffff\n  and\n  mul\n  or\n  swap1\n  sstore\n  pop\n    /* \"contracts/cropsFarmer.sol\":2526:2533  _prtnr2 */\n  dup2\n    /* \"contracts/cropsFarmer.sol\":2517:2523  prtnr2 */\n  0x20\n  0x00\n    /* \"contracts/cropsFarmer.sol\":2517:2533  prtnr2 = _prtnr2 */\n  0x0100\n  exp\n  dup2\n  sload\n  dup2\n  0xffffffffffffffffffffffffffffffffffffffff\n  mul\n  not\n  and\n  swap1\n  dup4\n  0xffffffffffffffffffffffffffffffffffffffff\n  and\n  mul\n  or\n  swap1\n  sstore\n  pop\n    /* \"contracts/cropsFarmer.sol\":2549:2553  _mkt */\n  dup1\n    /* \"contracts/cropsFarmer.sol\":2543:2546  mkt */\n  0x21\n  0x00\n    /* \"contracts/cropsFarmer.sol\":2543:2553  mkt = _mkt */\n  0x0100\n  exp\n  dup2\n  sload\n  dup2\n  0xffffffffffffffffffffffffffffffffffffffff\n  mul\n  not\n  and\n  swap1\n  dup4\n  0xffffffffffffffffffffffffffffffffffffffff\n  and\n  mul\n  or\n  swap1\n  sstore\n  pop\n    /* \"contracts/cropsFarmer.sol\":2085:2560  constructor(address payable _dev1, address payable _dev2, address payable _dev3, ... */\n  pop\n  pop\n  pop\n  pop\n  pop\n  pop\n    /* \"contracts/cropsFarmer.sol\":56:18171  contract BNB_V3 {... */\n  jump(tag_19)\n    /* \"contracts/cropsFarmer.sol\":2563:2724  function isContract(address addr) internal view returns (bool) {... */\ntag_7:\n    /* \"contracts/cropsFarmer.sol\":2620:2624  bool */\n  0x00\n    /* \"contracts/cropsFarmer.sol\":2636:2645  uint size */\n  dup1\n    /* \"contracts/cropsFarmer.sol\":2686:2690  addr */\n  dup3\n    /* \"contracts/cropsFarmer.sol\":2674:2691  extcodesize(addr) */\n  extcodesize\n    /* \"contracts/cropsFarmer.sol\":2666:2691  size := extcodesize(addr) */\n  swap1\n  pop\n    /* \"contracts/cropsFarmer.sol\":2716:2717  0 */\n  0x00\n    /* \"contracts/cropsFarmer.sol\":2709:2713  size */\n  dup2\n    /* \"contracts/cropsFarmer.sol\":2709:2717  size > 0 */\n  gt\n    /* \"contracts/cropsFarmer.sol\":2702:2717  return size > 0 */\n  swap2\n  pop\n  pop\n    /* \"contracts/cropsFarmer.sol\":2563:2724  function isContract(address addr) internal view returns (bool) {... */\n  swap2\n  swap1\n  pop\n  jump\t// out\n    /* \"#utility.yul\":88:205   */\ntag_22:\n    /* \"#utility.yul\":197:198   */\n  0x00\n    /* \"#utility.yul\":194:195   */\n  dup1\n    /* \"#utility.yul\":187:199   */\n  revert\n    /* \"#utility.yul\":334:460   */\ntag_24:\n    /* \"#utility.yul\":371:378   */\n  0x00\n    /* \"#utility.yul\":411:453   */\n  0xffffffffffffffffffffffffffffffffffffffff\n    /* \"#utility.yul\":404:409   */\n  dup3\n    /* \"#utility.yul\":400:454   */\n  and\n    /* \"#utility.yul\":389:454   */\n  swap1\n  pop\n    /* \"#utility.yul\":334:460   */\n  swap2\n  swap1\n  pop\n  jump\t// out\n    /* \"#utility.yul\":466:570   */\ntag_25:\n    /* \"#utility.yul\":511:518   */\n  0x00\n    /* \"#utility.yul\":540:564   */\n  tag_34\n    /* \"#utility.yul\":558:563   */\n  dup3\n    /* \"#utility.yul\":540:564   */\n  tag_24\n  jump\t// in\ntag_34:\n    /* \"#utility.yul\":529:564   */\n  swap1\n  pop\n    /* \"#utility.yul\":466:570   */\n  swap2\n  swap1\n  pop\n  jump\t// out\n    /* \"#utility.yul\":576:714   */\ntag_26:\n    /* \"#utility.yul\":657:689   */\n  tag_36\n    /* \"#utility.yul\":683:688   */\n  dup2\n    /* \"#utility.yul\":657:689   */\n  tag_25\n  jump\t// in\ntag_36:\n    /* \"#utility.yul\":650:655   */\n  dup2\n    /* \"#utility.yul\":647:690   */\n  eq\n    /* \"#utility.yul\":637:708   */\n  tag_37\n  jumpi\n    /* \"#utility.yul\":704:705   */\n  0x00\n    /* \"#utility.yul\":701:702   */\n  dup1\n    /* \"#utility.yul\":694:706   */\n  revert\n    /* \"#utility.yul\":637:708   */\ntag_37:\n    /* \"#utility.yul\":576:714   */\n  pop\n  jump\t// out\n    /* \"#utility.yul\":720:879   */\ntag_27:\n    /* \"#utility.yul\":785:790   */\n  0x00\n    /* \"#utility.yul\":816:822   */\n  dup2\n    /* \"#utility.yul\":810:823   */\n  mload\n    /* \"#utility.yul\":801:823   */\n  swap1\n  pop\n    /* \"#utility.yul\":832:873   */\n  tag_39\n    /* \"#utility.yul\":867:872   */\n  dup2\n    /* \"#utility.yul\":832:873   */\n  tag_26\n  jump\t// in\ntag_39:\n    /* \"#utility.yul\":720:879   */\n  swap3\n  swap2\n  pop\n  pop\n  jump\t// out\n    /* \"#utility.yul\":885:2115   */\ntag_3:\n    /* \"#utility.yul\":1048:1054   */\n  0x00\n    /* \"#utility.yul\":1056:1062   */\n  dup1\n    /* \"#utility.yul\":1064:1070   */\n  0x00\n    /* \"#utility.yul\":1072:1078   */\n  dup1\n    /* \"#utility.yul\":1080:1086   */\n  0x00\n    /* \"#utility.yul\":1088:1094   */\n  dup1\n    /* \"#utility.yul\":1137:1140   */\n  0xc0\n    /* \"#utility.yul\":1125:1134   */\n  dup8\n    /* \"#utility.yul\":1116:1123   */\n  dup10\n    /* \"#utility.yul\":1112:1135   */\n  sub\n    /* \"#utility.yul\":1108:1141   */\n  slt\n    /* \"#utility.yul\":1105:1225   */\n  iszero\n  tag_41\n  jumpi\n    /* \"#utility.yul\":1144:1223   */\n  tag_42\n  tag_22\n  jump\t// in\ntag_42:\n    /* \"#utility.yul\":1105:1225   */\ntag_41:\n    /* \"#utility.yul\":1264:1265   */\n  0x00\n    /* \"#utility.yul\":1289:1361   */\n  tag_43\n    /* \"#utility.yul\":1353:1360   */\n  dup10\n    /* \"#utility.yul\":1344:1350   */\n  dup3\n    /* \"#utility.yul\":1333:1342   */\n  dup11\n    /* \"#utility.yul\":1329:1351   */\n  add\n    /* \"#utility.yul\":1289:1361   */\n  tag_27\n  jump\t// in\ntag_43:\n    /* \"#utility.yul\":1279:1361   */\n  swap7\n  pop\n    /* \"#utility.yul\":1235:1371   */\n  pop\n    /* \"#utility.yul\":1410:1412   */\n  0x20\n    /* \"#utility.yul\":1436:1508   */\n  tag_44\n    /* \"#utility.yul\":1500:1507   */\n  dup10\n    /* \"#utility.yul\":1491:1497   */\n  dup3\n    /* \"#utility.yul\":1480:1489   */\n  dup11\n    /* \"#utility.yul\":1476:1498   */\n  add\n    /* \"#utility.yul\":1436:1508   */\n  tag_27\n  jump\t// in\ntag_44:\n    /* \"#utility.yul\":1426:1508   */\n  swap6\n  pop\n    /* \"#utility.yul\":1381:1518   */\n  pop\n    /* \"#utility.yul\":1557:1559   */\n  0x40\n    /* \"#utility.yul\":1583:1655   */\n  tag_45\n    /* \"#utility.yul\":1647:1654   */\n  dup10\n    /* \"#utility.yul\":1638:1644   */\n  dup3\n    /* \"#utility.yul\":1627:1636   */\n  dup11\n    /* \"#utility.yul\":1623:1645   */\n  add\n    /* \"#utility.yul\":1583:1655   */\n  tag_27\n  jump\t// in\ntag_45:\n    /* \"#utility.yul\":1573:1655   */\n  swap5\n  pop\n    /* \"#utility.yul\":1528:1665   */\n  pop\n    /* \"#utility.yul\":1704:1706   */\n  0x60\n    /* \"#utility.yul\":1730:1802   */\n  tag_46\n    /* \"#utility.yul\":1794:1801   */\n  dup10\n    /* \"#utility.yul\":1785:1791   */\n  dup3\n    /* \"#utility.yul\":1774:1783   */\n  dup11\n    /* \"#utility.yul\":1770:1792   */\n  add\n    /* \"#utility.yul\":1730:1802   */\n  tag_27\n  jump\t// in\ntag_46:\n    /* \"#utility.yul\":1720:1802   */\n  swap4\n  pop\n    /* \"#utility.yul\":1675:1812   */\n  pop\n    /* \"#utility.yul\":1851:1854   */\n  0x80\n    /* \"#utility.yul\":1878:1950   */\n  tag_47\n    /* \"#utility.yul\":1942:1949   */\n  dup10\n    /* \"#utility.yul\":1933:1939   */\n  dup3\n    /* \"#utility.yul\":1922:1931   */\n  dup11\n    /* \"#utility.yul\":1918:1940   */\n  add\n    /* \"#utility.yul\":1878:1950   */\n  tag_27\n  jump\t// in\ntag_47:\n    /* \"#utility.yul\":1868:1950   */\n  swap3\n  pop\n    /* \"#utility.yul\":1822:1960   */\n  pop\n    /* \"#utility.yul\":1999:2002   */\n  0xa0\n    /* \"#utility.yul\":2026:2098   */\n  tag_48\n    /* \"#utility.yul\":2090:2097   */\n  dup10\n    /* \"#utility.yul\":2081:2087   */\n  dup3\n    /* \"#utility.yul\":2070:2079   */\n  dup11\n    /* \"#utility.yul\":2066:2088   */\n  add\n    /* \"#utility.yul\":2026:2098   */\n  tag_27\n  jump\t// in\ntag_48:\n    /* \"#utility.yul\":2016:2098   */\n  swap2\n  pop\n    /* \"#utility.yul\":1970:2108   */\n  pop\n    /* \"#utility.yul\":885:2115   */\n  swap3\n  swap6\n  pop\n  swap3\n  swap6\n  pop\n  swap3\n  swap6\n  jump\t// out\n    /* \"contracts/cropsFarmer.sol\":56:18171  contract BNB_V3 {... */\ntag_19:\n  dataSize(sub_0)\n  dup1\n  dataOffset(sub_0)\n  0x00\n  codecopy\n  0x00\n  return\nstop\n\nsub_0: assembly {\n        /* \"contracts/cropsFarmer.sol\":56:18171  contract BNB_V3 {... */\n      mstore(0x40, 0x80)\n      jumpi(tag_1, lt(calldatasize, 0x04))\n      shr(0xe0, calldataload(0x00))\n      dup1\n      0x7c8e4b4c\n      gt\n      tag_75\n      jumpi\n      dup1\n      0xb6e6fcf6\n      gt\n      tag_76\n      jumpi\n      dup1\n      0xd7206d5d\n      gt\n      tag_77\n      jumpi\n      dup1\n      0xe6dc9558\n      gt\n      tag_78\n      jumpi\n      dup1\n      0xe6dc9558\n      eq\n      tag_70\n      jumpi\n      dup1\n      0xe7576943\n      eq\n      tag_71\n      jumpi\n      dup1\n      0xeb271268\n      eq\n      tag_72\n      jumpi\n      dup1\n      0xf6f62886\n      eq\n      tag_73\n      jumpi\n      dup1\n      0xffa4e618\n      eq\n      tag_74\n      jumpi\n      jump(tag_1)\n    tag_78:\n      dup1\n      0xd7206d5d\n      eq\n      tag_65\n      jumpi\n      dup1\n      0xd7c8843b\n      eq\n      tag_66\n      jumpi\n      dup1\n      0xd989b4b3\n      eq\n      tag_67\n      jumpi\n      dup1\n      0xda235b22\n      eq\n      tag_68\n      jumpi\n      dup1\n      0xda5d4cc5\n      eq\n      tag_69\n      jumpi\n      jump(tag_1)\n    tag_77:\n      dup1\n      0xc3251b40\n      gt\n      tag_79\n      jumpi\n      dup1\n      0xc3251b40\n      eq\n      tag_60\n      jumpi\n      dup1\n      0xc63568c7\n      eq\n      tag_61\n      jumpi\n      dup1\n      0xc688f0fb\n      eq\n      tag_62\n      jumpi\n      dup1\n      0xcc3e9c78\n      eq\n      tag_63\n      jumpi\n      dup1\n      0xcd329fc3\n      eq\n      tag_64\n      jumpi\n      jump(tag_1)\n    tag_79:\n      dup1\n      0xb6e6fcf6\n      eq\n      tag_56\n      jumpi\n      dup1\n      0xbd097e21\n      eq\n      tag_57\n      jumpi\n      dup1\n      0xbdd1ca27\n      eq\n      tag_58\n      jumpi\n      dup1\n      0xbfa9f304\n      eq\n      tag_59\n      jumpi\n      jump(tag_1)\n    tag_76:\n      dup1\n      0x8da5cb5b\n      gt\n      tag_80\n      jumpi\n      dup1\n      0x9b9cb69f\n      gt\n      tag_81\n      jumpi\n      dup1\n      0x9b9cb69f\n      eq\n      tag_51\n      jumpi\n      dup1\n      0x9e9300a5\n      eq\n      tag_52\n      jumpi\n      dup1\n      0xa327c45d\n      eq\n      tag_53\n      jumpi\n      dup1\n      0xa87430ba\n      eq\n      tag_54\n      jumpi\n      dup1\n      0xac4b3c04\n      eq\n      tag_55\n      jumpi\n      jump(tag_1)\n    tag_81:\n      dup1\n      0x8da5cb5b\n      eq\n      tag_47\n      jumpi\n      dup1\n      0x8e316327\n      eq\n      tag_48\n      jumpi\n      dup1\n      0x950d91e9\n      eq\n      tag_49\n      jumpi\n      dup1\n      0x959c95b3\n      eq\n      tag_50\n      jumpi\n      jump(tag_1)\n    tag_80:\n      dup1\n      0x7e56fde5\n      gt\n      tag_82\n      jumpi\n      dup1\n      0x7e56fde5\n      eq\n      tag_42\n      jumpi\n      dup1\n      0x7ee28e3c\n      eq\n      tag_43\n      jumpi\n      dup1\n      0x8013f3a7\n      eq\n      tag_44\n      jumpi\n      dup1\n      0x817b1cd2\n      eq\n      tag_45\n      jumpi\n      dup1\n      0x8a315efd\n      eq\n      tag_46\n      jumpi\n      jump(tag_1)\n    tag_82:\n      dup1\n      0x7c8e4b4c\n      eq\n      tag_38\n      jumpi\n      dup1\n      0x7cc5b1e6\n      eq\n      tag_39\n      jumpi\n      dup1\n      0x7d882097\n      eq\n      tag_40\n      jumpi\n      dup1\n      0x7db07c9d\n      eq\n      tag_41\n      jumpi\n      jump(tag_1)\n    tag_75:\n      dup1\n      0x3578584f\n      gt\n      tag_83\n      jumpi\n      dup1\n      0x57386225\n      gt\n      tag_84\n      jumpi\n      dup1\n      0x68f58b03\n      gt\n      tag_85\n      jumpi\n      dup1\n      0x68f58b03\n      eq\n      tag_33\n      jumpi\n      dup1\n      0x69b11dd5\n      eq\n      tag_34\n      jumpi\n      dup1\n      0x6f969d28\n      eq\n      tag_35\n      jumpi\n      dup1\n      0x752a2628\n      eq\n      tag_36\n      jumpi\n      dup1\n      0x7a62ead7\n      eq\n      tag_37\n      jumpi\n      jump(tag_1)\n    tag_85:\n      dup1\n      0x57386225\n      eq\n      tag_29\n      jumpi\n      dup1\n      0x59eec895\n      eq\n      tag_30\n      jumpi\n      dup1\n      0x6386c1c7\n      eq\n      tag_31\n      jumpi\n      dup1\n      0x64c03a5e\n      eq\n      tag_32\n      jumpi\n      jump(tag_1)\n    tag_84:\n      dup1\n      0x4b319713\n      gt\n      tag_86\n      jumpi\n      dup1\n      0x4b319713\n      eq\n      tag_24\n      jumpi\n      dup1\n      0x4ce87053\n      eq\n      tag_25\n      jumpi\n      dup1\n      0x50637dbd\n      eq\n      tag_26\n      jumpi\n      dup1\n      0x50cf1c7a\n      eq\n      tag_27\n      jumpi\n      dup1\n      0x570c2979\n      eq\n      tag_28\n      jumpi\n      jump(tag_1)\n    tag_86:\n      dup1\n      0x3578584f\n      eq\n      tag_20\n      jumpi\n      dup1\n      0x43ce7422\n      eq\n      tag_21\n      jumpi\n      dup1\n      0x45a6a6e0\n      eq\n      tag_22\n      jumpi\n      dup1\n      0x45f98c29\n      eq\n      tag_23\n      jumpi\n      jump(tag_1)\n    tag_83:\n      dup1\n      0x1bd8225d\n      gt\n      tag_87\n      jumpi\n      dup1\n      0x298ea310\n      gt\n      tag_88\n      jumpi\n      dup1\n      0x298ea310\n      eq\n      tag_15\n      jumpi\n      dup1\n      0x2b039d0e\n      eq\n      tag_16\n      jumpi\n      dup1\n      0x2bc82f7f\n      eq\n      tag_17\n      jumpi\n      dup1\n      0x2e9392bb\n      eq\n      tag_18\n      jumpi\n      dup1\n      0x333f57b3\n      eq\n      tag_19\n      jumpi\n      jump(tag_1)\n    tag_88:\n      dup1\n      0x1bd8225d\n      eq\n      tag_11\n      jumpi\n      dup1\n      0x229824c4\n      eq\n      tag_12\n      jumpi\n      dup1\n      0x2362ce89\n      eq\n      tag_13\n      jumpi\n      dup1\n      0x26fd8422\n      eq\n      tag_14\n      jumpi\n      jump(tag_1)\n    tag_87:\n      dup1\n      0x12065fe0\n      gt\n      tag_89\n      jumpi\n      dup1\n      0x12065fe0\n      eq\n      tag_6\n      jumpi\n      dup1\n      0x1848b8dc\n      eq\n      tag_7\n      jumpi\n      dup1\n      0x18c819d8\n      eq\n      tag_8\n      jumpi\n      dup1\n      0x195a7339\n      eq\n      tag_9\n      jumpi\n      dup1\n      0x1a7b8d4f\n      eq\n      tag_10\n      jumpi\n      jump(tag_1)\n    tag_89:\n      dup1\n      0x01c234a8\n      eq\n      tag_2\n      jumpi\n      dup1\n      0x0420c98e\n      eq\n      tag_3\n      jumpi\n      dup1\n      0x07aeb7f0\n      eq\n      tag_4\n      jumpi\n      dup1\n      0x0a76e5ed\n      eq\n      tag_5\n      jumpi\n    tag_1:\n      0x00\n      dup1\n      revert\n        /* \"contracts/cropsFarmer.sol\":224:262  uint256 public PERCENTS_DIVIDER = 1000 */\n    tag_2:\n      callvalue\n      dup1\n      iszero\n      tag_90\n      jumpi\n      0x00\n      dup1\n      revert\n    tag_90:\n      pop\n      tag_91\n      tag_92\n      jump\t// in\n    tag_91:\n      mload(0x40)\n      tag_93\n      swap2\n      swap1\n      tag_94\n      jump\t// in\n    tag_93:\n      mload(0x40)\n      dup1\n      swap2\n      sub\n      swap1\n      return\n        /* \"contracts/cropsFarmer.sol\":658:693  uint256 public WITHDRAWAL_TAX = 350 */\n    tag_3:\n      callvalue\n      dup1\n      iszero\n      tag_95\n      jumpi\n      0x00\n      dup1\n      revert\n    tag_95:\n      pop\n      tag_96\n      tag_97\n      jump\t// in\n    tag_96:\n      mload(0x40)\n      tag_98\n      swap2\n      swap1\n      tag_94\n      jump\t// in\n    tag_98:\n      mload(0x40)\n      dup1\n      swap2\n      sub\n      swap1\n      return\n        /* \"contracts/cropsFarmer.sol\":1479:1508  address payable public prtnr1 */\n    tag_4:\n      callvalue\n      dup1\n      iszero\n      tag_99\n      jumpi\n      0x00\n      dup1\n      revert\n    tag_99:\n      pop\n      tag_100\n      tag_101\n      jump\t// in\n    tag_100:\n      mload(0x40)\n      tag_102\n      swap2\n      swap1\n      tag_103\n      jump\t// in\n    tag_102:\n      mload(0x40)\n      dup1\n      swap2\n      sub\n      swap1\n      return\n        /* \"contracts/cropsFarmer.sol\":13511:13610  function getMyMiners() public view returns(uint256){... */\n    tag_5:\n      callvalue\n      dup1\n      iszero\n      tag_104\n      jumpi\n      0x00\n      dup1\n      revert\n    tag_104:\n      pop\n      tag_105\n      tag_106\n      jump\t// in\n    tag_105:\n      mload(0x40)\n      tag_107\n      swap2\n      swap1\n      tag_94\n      jump\t// in\n    tag_107:\n      mload(0x40)\n      dup1\n      swap2\n      sub\n      swap1\n      return\n        /* \"contracts/cropsFarmer.sol\":11268:11363  function getBalance() public view returns(uint256){... */\n    tag_6:\n      callvalue\n      dup1\n      iszero\n      tag_108\n      jumpi\n      0x00\n      dup1\n      revert\n    tag_108:\n      pop\n      tag_109\n      tag_110\n      jump\t// in\n    tag_109:\n      mload(0x40)\n      tag_111\n      swap2\n      swap1\n      tag_94\n      jump\t// in\n    tag_111:\n      mload(0x40)\n      dup1\n      swap2\n      sub\n      swap1\n      return\n        /* \"contracts/cropsFarmer.sol\":445:492  uint256 public WALLET_DEPOSIT_LIMIT = 25 * 1e18 */\n    tag_7:\n      callvalue\n      dup1\n      iszero\n      tag_112\n      jumpi\n      0x00\n      dup1\n      revert\n    tag_112:\n      pop\n      tag_113\n      tag_114\n      jump\t// in\n    tag_113:\n      mload(0x40)\n      tag_115\n      swap2\n      swap1\n      tag_94\n      jump\t// in\n    tag_115:\n      mload(0x40)\n      dup1\n      swap2\n      sub\n      swap1\n      return\n        /* \"contracts/cropsFarmer.sol\":3950:5204  function hireMoreFarmers(bool isCompound) public {... */\n    tag_8:\n      callvalue\n      dup1\n      iszero\n      tag_116\n      jumpi\n      0x00\n      dup1\n      revert\n    tag_116:\n      pop\n      tag_117\n      0x04\n      dup1\n      calldatasize\n      sub\n      dup2\n      add\n      swap1\n      tag_118\n      swap2\n      swap1\n      tag_119\n      jump\t// in\n    tag_118:\n      tag_120\n      jump\t// in\n    tag_117:\n      stop\n        /* \"contracts/cropsFarmer.sol\":139:184  uint256 public EGGS_TO_HIRE_1MINERS = 1440000 */\n    tag_9:\n      callvalue\n      dup1\n      iszero\n      tag_121\n      jumpi\n      0x00\n      dup1\n      revert\n    tag_121:\n      pop\n      tag_122\n      tag_123\n      jump\t// in\n    tag_122:\n      mload(0x40)\n      tag_124\n      swap2\n      swap1\n      tag_94\n      jump\t// in\n    tag_124:\n      mload(0x40)\n      dup1\n      swap2\n      sub\n      swap1\n      return\n        /* \"contracts/cropsFarmer.sol\":15906:16062  function PRC_MKT(uint256 value) external {... */\n    tag_10:\n      callvalue\n      dup1\n      iszero\n      tag_125\n      jumpi\n      0x00\n      dup1\n      revert\n    tag_125:\n      pop\n      tag_126\n      0x04\n      dup1\n      calldatasize\n      sub\n      dup2\n      add\n      swap1\n      tag_127\n      swap2\n      swap1\n      tag_128\n      jump\t// in\n    tag_127:\n      tag_129\n      jump\t// in\n    tag_126:\n      stop\n        /* \"contracts/cropsFarmer.sol\":1184:1231  mapping(address => uint) public referralEarning */\n    tag_11:\n      callvalue\n      dup1\n      iszero\n      tag_130\n      jumpi\n      0x00\n      dup1\n      revert\n    tag_130:\n      pop\n      tag_131\n      0x04\n      dup1\n      calldatasize\n      sub\n      dup2\n      add\n      swap1\n      tag_132\n      swap2\n      swap1\n      tag_133\n      jump\t// in\n    tag_132:\n      tag_134\n      jump\t// in\n    tag_131:\n      mload(0x40)\n      tag_135\n      swap2\n      swap1\n      tag_94\n      jump\t// in\n    tag_135:\n      mload(0x40)\n      dup1\n      swap2\n      sub\n      swap1\n      return\n        /* \"contracts/cropsFarmer.sol\":11682:12130  function calculateTrade(uint256 rt,uint256 rs, uint256 bs) public view returns(uint256){... */\n    tag_12:\n      callvalue\n      dup1\n      iszero\n      tag_136\n      jumpi\n      0x00\n      dup1\n      revert\n    tag_136:\n      pop\n      tag_137\n      0x04\n      dup1\n      calldatasize\n      sub\n      dup2\n      add\n      swap1\n      tag_138\n      swap2\n      swap1\n      tag_139\n      jump\t// in\n    tag_138:\n      tag_140\n      jump\t// in\n    tag_137:\n      mload(0x40)\n      tag_141\n      swap2\n      swap1\n      tag_94\n      jump\t// in\n    tag_141:\n      mload(0x40)\n      dup1\n      swap2\n      sub\n      swap1\n      return\n        /* \"contracts/cropsFarmer.sol\":1446:1473  address payable public dev3 */\n    tag_13:\n      callvalue\n      dup1\n      iszero\n      tag_142\n      jumpi\n      0x00\n      dup1\n      revert\n    tag_142:\n      pop\n      tag_143\n      tag_144\n      jump\t// in\n    tag_143:\n      mload(0x40)\n      tag_145\n      swap2\n      swap1\n      tag_103\n      jump\t// in\n    tag_145:\n      mload(0x40)\n      dup1\n      swap2\n      sub\n      swap1\n      return\n        /* \"contracts/cropsFarmer.sol\":12280:12442  function calculateEggBuy(uint256 eth,uint256 contractBalance) public view returns(uint256){... */\n    tag_14:\n      callvalue\n      dup1\n      iszero\n      tag_146\n      jumpi\n      0x00\n      dup1\n      revert\n    tag_146:\n      pop\n      tag_147\n      0x04\n      dup1\n      calldatasize\n      sub\n      dup2\n      add\n      swap1\n      tag_148\n      swap2\n      swap1\n      tag_149\n      jump\t// in\n    tag_148:\n      tag_150\n      jump\t// in\n    tag_147:\n      mload(0x40)\n      tag_151\n      swap2\n      swap1\n      tag_94\n      jump\t// in\n    tag_151:\n      mload(0x40)\n      dup1\n      swap2\n      sub\n      swap1\n      return\n        /* \"contracts/cropsFarmer.sol\":15744:15900  function PRC_TAX(uint256 value) external {... */\n    tag_15:\n      callvalue\n      dup1\n      iszero\n      tag_152\n      jumpi\n      0x00\n      dup1\n      revert\n    tag_152:\n      pop\n      tag_153\n      0x04\n      dup1\n      calldatasize\n      sub\n      dup2\n      add\n      swap1\n      tag_154\n      swap2\n      swap1\n      tag_128\n      jump\t// in\n    tag_154:\n      tag_155\n      jump\t// in\n    tag_153:\n      stop\n        /* \"contracts/cropsFarmer.sol\":14284:14421  function CHANGE_OWNERSHIP(address value) external {... */\n    tag_16:\n      callvalue\n      dup1\n      iszero\n      tag_156\n      jumpi\n      0x00\n      dup1\n      revert\n    tag_156:\n      pop\n      tag_157\n      0x04\n      dup1\n      calldatasize\n      sub\n      dup2\n      add\n      swap1\n      tag_158\n      swap2\n      swap1\n      tag_133\n      jump\t// in\n    tag_158:\n      tag_159\n      jump\t// in\n    tag_157:\n      stop\n        /* \"contracts/cropsFarmer.sol\":296:319  uint256 public MKT = 12 */\n    tag_17:\n      callvalue\n      dup1\n      iszero\n      tag_160\n      jumpi\n      0x00\n      dup1\n      revert\n    tag_160:\n      pop\n      tag_161\n      tag_162\n      jump\t// in\n    tag_161:\n      mload(0x40)\n      tag_163\n      swap2\n      swap1\n      tag_94\n      jump\t// in\n    tag_163:\n      mload(0x40)\n      dup1\n      swap2\n      sub\n      swap1\n      return\n        /* \"contracts/cropsFarmer.sol\":931:956  uint256 public marketEggs */\n    tag_18:\n      callvalue\n      dup1\n      iszero\n      tag_164\n      jumpi\n      0x00\n      dup1\n      revert\n    tag_164:\n      pop\n      tag_165\n      tag_166\n      jump\t// in\n    tag_165:\n      mload(0x40)\n      tag_167\n      swap2\n      swap1\n      tag_94\n      jump\t// in\n    tag_167:\n      mload(0x40)\n      dup1\n      swap2\n      sub\n      swap1\n      return\n        /* \"contracts/cropsFarmer.sol\":1012:1039  bool public contractStarted */\n    tag_19:\n      callvalue\n      dup1\n      iszero\n      tag_168\n      jumpi\n      0x00\n      dup1\n      revert\n    tag_168:\n      pop\n      tag_169\n      tag_170\n      jump\t// in\n    tag_169:\n      mload(0x40)\n      tag_171\n      swap2\n      swap1\n      tag_172\n      jump\t// in\n    tag_171:\n      mload(0x40)\n      dup1\n      swap2\n      sub\n      swap1\n      return\n        /* \"contracts/cropsFarmer.sol\":1237:1278  uint256 public CUTOFF_STEP = 48 * 60 * 60 */\n    tag_20:\n      callvalue\n      dup1\n      iszero\n      tag_173\n      jumpi\n      0x00\n      dup1\n      revert\n    tag_173:\n      pop\n      tag_174\n      tag_175\n      jump\t// in\n    tag_174:\n      mload(0x40)\n      tag_176\n      swap2\n      swap1\n      tag_94\n      jump\t// in\n    tag_176:\n      mload(0x40)\n      dup1\n      swap2\n      sub\n      swap1\n      return\n        /* \"contracts/cropsFarmer.sol\":13616:13757  function getMyEggs() public view returns(uint256){... */\n    tag_21:\n      callvalue\n      dup1\n      iszero\n      tag_177\n      jumpi\n      0x00\n      dup1\n      revert\n    tag_177:\n      pop\n      tag_178\n      tag_179\n      jump\t// in\n    tag_178:\n      mload(0x40)\n      tag_180\n      swap2\n      swap1\n      tag_94\n      jump\t// in\n    tag_180:\n      mload(0x40)\n      dup1\n      swap2\n      sub\n      swap1\n      return\n        /* \"contracts/cropsFarmer.sol\":17551:17744  function SET_WITHDRAW_COOLDOWN(uint256 value) external {... */\n    tag_22:\n      callvalue\n      dup1\n      iszero\n      tag_181\n      jumpi\n      0x00\n      dup1\n      revert\n    tag_181:\n      pop\n      tag_182\n      0x04\n      dup1\n      calldatasize\n      sub\n      dup2\n      add\n      swap1\n      tag_183\n      swap2\n      swap1\n      tag_128\n      jump\t// in\n    tag_183:\n      tag_184\n      jump\t// in\n    tag_182:\n      stop\n        /* \"contracts/cropsFarmer.sol\":17243:17388  function SET_INVEST_MIN(uint256 value) external {... */\n    tag_23:\n      callvalue\n      dup1\n      iszero\n      tag_185\n      jumpi\n      0x00\n      dup1\n      revert\n    tag_185:\n      pop\n      tag_186\n      0x04\n      dup1\n      calldatasize\n      sub\n      dup2\n      add\n      swap1\n      tag_187\n      swap2\n      swap1\n      tag_128\n      jump\t// in\n    tag_187:\n      tag_188\n      jump\t// in\n    tag_186:\n      stop\n        /* \"contracts/cropsFarmer.sol\":895:924  uint256 public totalWithdrawn */\n    tag_24:\n      callvalue\n      dup1\n      iszero\n      tag_189\n      jumpi\n      0x00\n      dup1\n      revert\n    tag_189:\n      pop\n      tag_190\n      tag_191\n      jump\t// in\n    tag_190:\n      mload(0x40)\n      tag_192\n      swap2\n      swap1\n      tag_94\n      jump\t// in\n    tag_192:\n      mload(0x40)\n      dup1\n      swap2\n      sub\n      swap1\n      return\n        /* \"contracts/cropsFarmer.sol\":13285:13505  function getSiteInfo() public view returns (uint256 _totalStaked, uint256 _totalDeposits, uint256 _totalCompound, uint256 _totalRefBonus) {... */\n    tag_25:\n      callvalue\n      dup1\n      iszero\n      tag_193\n      jumpi\n      0x00\n      dup1\n      revert\n    tag_193:\n      pop\n      tag_194\n      tag_195\n      jump\t// in\n    tag_194:\n      mload(0x40)\n      tag_196\n      swap5\n      swap4\n      swap3\n      swap2\n      swap1\n      tag_197\n      jump\t// in\n    tag_196:\n      mload(0x40)\n      dup1\n      swap2\n      sub\n      swap1\n      return\n        /* \"contracts/cropsFarmer.sol\":9887:10270  function getDailyCompoundBonus(address _adr, uint256 amount) public view returns(uint256){... */\n    tag_26:\n      callvalue\n      dup1\n      iszero\n      tag_198\n      jumpi\n      0x00\n      dup1\n      revert\n    tag_198:\n      pop\n      tag_199\n      0x04\n      dup1\n      calldatasize\n      sub\n      dup2\n      add\n      swap1\n      tag_200\n      swap2\n      swap1\n      tag_201\n      jump\t// in\n    tag_200:\n      tag_202\n      jump\t// in\n    tag_199:\n      mload(0x40)\n      tag_203\n      swap2\n      swap1\n      tag_94\n      jump\t// in\n    tag_203:\n      mload(0x40)\n      dup1\n      swap2\n      sub\n      swap1\n      return\n        /* \"contracts/cropsFarmer.sol\":7623:9457  function hireFarmers(address ref) public payable{... */\n    tag_27:\n      tag_204\n      0x04\n      dup1\n      calldatasize\n      sub\n      dup2\n      add\n      swap1\n      tag_205\n      swap2\n      swap1\n      tag_133\n      jump\t// in\n    tag_205:\n      tag_206\n      jump\t// in\n    tag_204:\n      stop\n        /* \"contracts/cropsFarmer.sol\":16068:16250  function PRC_REFERRAL(uint256 value) external {... */\n    tag_28:\n      callvalue\n      dup1\n      iszero\n      tag_207\n      jumpi\n      0x00\n      dup1\n      revert\n    tag_207:\n      pop\n      tag_208\n      0x04\n      dup1\n      calldatasize\n      sub\n      dup2\n      add\n      swap1\n      tag_209\n      swap2\n      swap1\n      tag_128\n      jump\t// in\n    tag_209:\n      tag_210\n      jump\t// in\n    tag_208:\n      stop\n        /* \"contracts/cropsFarmer.sol\":5210:6667  function sellCrops() public{... */\n    tag_29:\n      callvalue\n      dup1\n      iszero\n      tag_211\n      jumpi\n      0x00\n      dup1\n      revert\n    tag_211:\n      pop\n      tag_212\n      tag_213\n      jump\t// in\n    tag_212:\n      stop\n        /* \"contracts/cropsFarmer.sol\":325:363  uint256 public MARKET_EGGS_DIVISOR = 2 */\n    tag_30:\n      callvalue\n      dup1\n      iszero\n      tag_214\n      jumpi\n      0x00\n      dup1\n      revert\n    tag_214:\n      pop\n      tag_215\n      tag_216\n      jump\t// in\n    tag_215:\n      mload(0x40)\n      tag_217\n      swap2\n      swap1\n      tag_94\n      jump\t// in\n    tag_217:\n      mload(0x40)\n      dup1\n      swap2\n      sub\n      swap1\n      return\n        /* \"contracts/cropsFarmer.sol\":10276:11262  function getUserInfo(address _adr) public view returns(uint256 _initialDeposit, uint256 _userDeposit, uint256 _miners,... */\n    tag_31:\n      callvalue\n      dup1\n      iszero\n      tag_218\n      jumpi\n      0x00\n      dup1\n      revert\n    tag_218:\n      pop\n      tag_219\n      0x04\n      dup1\n      calldatasize\n      sub\n      dup2\n      add\n      swap1\n      tag_220\n      swap2\n      swap1\n      tag_133\n      jump\t// in\n    tag_220:\n      tag_221\n      jump\t// in\n    tag_219:\n      mload(0x40)\n      tag_222\n      swap13\n      swap12\n      swap11\n      swap10\n      swap9\n      swap8\n      swap7\n      swap6\n      swap5\n      swap4\n      swap3\n      swap2\n      swap1\n      tag_223\n      jump\t// in\n    tag_222:\n      mload(0x40)\n      dup1\n      swap2\n      sub\n      swap1\n      return\n        /* \"contracts/cropsFarmer.sol\":11468:11676  function getAvailableEarnings(address _adr) public view returns(uint256) {... */\n    tag_32:\n      callvalue\n      dup1\n      iszero\n      tag_224\n      jumpi\n      0x00\n      dup1\n      revert\n    tag_224:\n      pop\n      tag_225\n      0x04\n      dup1\n      calldatasize\n      sub\n      dup2\n      add\n      swap1\n      tag_226\n      swap2\n      swap1\n      tag_133\n      jump\t// in\n    tag_226:\n      tag_227\n      jump\t// in\n    tag_225:\n      mload(0x40)\n      tag_228\n      swap2\n      swap1\n      tag_94\n      jump\t// in\n    tag_228:\n      mload(0x40)\n      dup1\n      swap2\n      sub\n      swap1\n      return\n        /* \"contracts/cropsFarmer.sol\":268:290  uint256 public TAX = 9 */\n    tag_33:\n      callvalue\n      dup1\n      iszero\n      tag_229\n      jumpi\n      0x00\n      dup1\n      revert\n    tag_229:\n      pop\n      tag_230\n      tag_231\n      jump\t// in\n    tag_230:\n      mload(0x40)\n      tag_232\n      swap2\n      swap1\n      tag_94\n      jump\t// in\n    tag_232:\n      mload(0x40)\n      dup1\n      swap2\n      sub\n      swap1\n      return\n        /* \"contracts/cropsFarmer.sol\":861:889  uint256 public totalRefBonus */\n    tag_34:\n      callvalue\n      dup1\n      iszero\n      tag_233\n      jumpi\n      0x00\n      dup1\n      revert\n    tag_233:\n      pop\n      tag_234\n      tag_235\n      jump\t// in\n    tag_234:\n      mload(0x40)\n      tag_236\n      swap2\n      swap1\n      tag_94\n      jump\t// in\n    tag_236:\n      mload(0x40)\n      dup1\n      swap2\n      sub\n      swap1\n      return\n        /* \"contracts/cropsFarmer.sol\":16635:16831  function BONUS_DAILY_COMPOUND(uint256 value) external {... */\n    tag_35:\n      callvalue\n      dup1\n      iszero\n      tag_237\n      jumpi\n      0x00\n      dup1\n      revert\n    tag_237:\n      pop\n      tag_238\n      0x04\n      dup1\n      calldatasize\n      sub\n      dup2\n      add\n      swap1\n      tag_239\n      swap2\n      swap1\n      tag_128\n      jump\t// in\n    tag_239:\n      tag_240\n      jump\t// in\n    tag_238:\n      stop\n        /* \"contracts/cropsFarmer.sol\":599:636  uint256 public COMPOUND_STEP = 5 * 60 */\n    tag_36:\n      callvalue\n      dup1\n      iszero\n      tag_241\n      jumpi\n      0x00\n      dup1\n      revert\n    tag_241:\n      pop\n      tag_242\n      tag_243\n      jump\t// in\n    tag_242:\n      mload(0x40)\n      tag_244\n      swap2\n      swap1\n      tag_94\n      jump\t// in\n    tag_244:\n      mload(0x40)\n      dup1\n      swap2\n      sub\n      swap1\n      return\n        /* \"contracts/cropsFarmer.sol\":16256:16444  function PRC_MARKET_EGGS_DIVISOR(uint256 value) external {... */\n    tag_37:\n      callvalue\n      dup1\n      iszero\n      tag_245\n      jumpi\n      0x00\n      dup1\n      revert\n    tag_245:\n      pop\n      tag_246\n      0x04\n      dup1\n      calldatasize\n      sub\n      dup2\n      add\n      swap1\n      tag_247\n      swap2\n      swap1\n      tag_128\n      jump\t// in\n    tag_247:\n      tag_248\n      jump\t// in\n    tag_246:\n      stop\n        /* \"contracts/cropsFarmer.sol\":17394:17545  function SET_CUTOFF_STEP(uint256 value) external {... */\n    tag_38:\n      callvalue\n      dup1\n      iszero\n      tag_249\n      jumpi\n      0x00\n      dup1\n      revert\n    tag_249:\n      pop\n      tag_250\n      0x04\n      dup1\n      calldatasize\n      sub\n      dup2\n      add\n      swap1\n      tag_251\n      swap2\n      swap1\n      tag_128\n      jump\t// in\n    tag_251:\n      tag_252\n      jump\t// in\n    tag_250:\n      stop\n        /* \"contracts/cropsFarmer.sol\":1549:1575  address payable public mkt */\n    tag_39:\n      callvalue\n      dup1\n      iszero\n      tag_253\n      jumpi\n      0x00\n      dup1\n      revert\n    tag_253:\n      pop\n      tag_254\n      tag_255\n      jump\t// in\n    tag_254:\n      mload(0x40)\n      tag_256\n      swap2\n      swap1\n      tag_103\n      jump\t// in\n    tag_256:\n      mload(0x40)\n      dup1\n      swap2\n      sub\n      swap1\n      return\n        /* \"contracts/cropsFarmer.sol\":793:821  uint256 public totalDeposits */\n    tag_40:\n      callvalue\n      dup1\n      iszero\n      tag_257\n      jumpi\n      0x00\n      dup1\n      revert\n    tag_257:\n      pop\n      tag_258\n      tag_259\n      jump\t// in\n    tag_258:\n      mload(0x40)\n      tag_260\n      swap2\n      swap1\n      tag_94\n      jump\t// in\n    tag_260:\n      mload(0x40)\n      dup1\n      swap2\n      sub\n      swap1\n      return\n        /* \"contracts/cropsFarmer.sol\":827:855  uint256 public totalCompound */\n    tag_41:\n      callvalue\n      dup1\n      iszero\n      tag_261\n      jumpi\n      0x00\n      dup1\n      revert\n    tag_261:\n      pop\n      tag_262\n      tag_263\n      jump\t// in\n    tag_262:\n      mload(0x40)\n      tag_264\n      swap2\n      swap1\n      tag_94\n      jump\t// in\n    tag_264:\n      mload(0x40)\n      dup1\n      swap2\n      sub\n      swap1\n      return\n        /* \"contracts/cropsFarmer.sol\":12448:12578  function calculateEggBuySimple(uint256 eth) public view returns(uint256){... */\n    tag_42:\n      callvalue\n      dup1\n      iszero\n      tag_265\n      jumpi\n      0x00\n      dup1\n      revert\n    tag_265:\n      pop\n      tag_266\n      0x04\n      dup1\n      calldatasize\n      sub\n      dup2\n      add\n      swap1\n      tag_267\n      swap2\n      swap1\n      tag_128\n      jump\t// in\n    tag_267:\n      tag_268\n      jump\t// in\n    tag_266:\n      mload(0x40)\n      tag_269\n      swap2\n      swap1\n      tag_94\n      jump\t// in\n    tag_269:\n      mload(0x40)\n      dup1\n      swap2\n      sub\n      swap1\n      return\n        /* \"contracts/cropsFarmer.sol\":17750:17949  function SET_WALLET_DEPOSIT_LIMIT(uint256 value) external {... */\n    tag_43:\n      callvalue\n      dup1\n      iszero\n      tag_270\n      jumpi\n      0x00\n      dup1\n      revert\n    tag_270:\n      pop\n      tag_271\n      0x04\n      dup1\n      calldatasize\n      sub\n      dup2\n      add\n      swap1\n      tag_272\n      swap2\n      swap1\n      tag_128\n      jump\t// in\n    tag_272:\n      tag_273\n      jump\t// in\n    tag_271:\n      stop\n        /* \"contracts/cropsFarmer.sol\":1413:1440  address payable public dev2 */\n    tag_44:\n      callvalue\n      dup1\n      iszero\n      tag_274\n      jumpi\n      0x00\n      dup1\n      revert\n    tag_274:\n      pop\n      tag_275\n      tag_276\n      jump\t// in\n    tag_275:\n      mload(0x40)\n      tag_277\n      swap2\n      swap1\n      tag_103\n      jump\t// in\n    tag_277:\n      mload(0x40)\n      dup1\n      swap2\n      sub\n      swap1\n      return\n        /* \"contracts/cropsFarmer.sol\":761:787  uint256 public totalStaked */\n    tag_45:\n      callvalue\n      dup1\n      iszero\n      tag_278\n      jumpi\n      0x00\n      dup1\n      revert\n    tag_278:\n      pop\n      tag_279\n      tag_280\n      jump\t// in\n    tag_279:\n      mload(0x40)\n      tag_281\n      swap2\n      swap1\n      tag_94\n      jump\t// in\n    tag_281:\n      mload(0x40)\n      dup1\n      swap2\n      sub\n      swap1\n      return\n        /* \"contracts/cropsFarmer.sol\":1514:1543  address payable public prtnr2 */\n    tag_46:\n      callvalue\n      dup1\n      iszero\n      tag_282\n      jumpi\n      0x00\n      dup1\n      revert\n    tag_282:\n      pop\n      tag_283\n      tag_284\n      jump\t// in\n    tag_283:\n      mload(0x40)\n      tag_285\n      swap2\n      swap1\n      tag_103\n      jump\t// in\n    tag_285:\n      mload(0x40)\n      dup1\n      swap2\n      sub\n      swap1\n      return\n        /* \"contracts/cropsFarmer.sol\":1354:1374  address public owner */\n    tag_47:\n      callvalue\n      dup1\n      iszero\n      tag_286\n      jumpi\n      0x00\n      dup1\n      revert\n    tag_286:\n      pop\n      tag_287\n      tag_288\n      jump\t// in\n    tag_287:\n      mload(0x40)\n      tag_289\n      swap2\n      swap1\n      tag_290\n      jump\t// in\n    tag_289:\n      mload(0x40)\n      dup1\n      swap2\n      sub\n      swap1\n      return\n        /* \"contracts/cropsFarmer.sol\":12136:12274  function calculateEggSell(uint256 eggs) public view returns(uint256){... */\n    tag_48:\n      callvalue\n      dup1\n      iszero\n      tag_291\n      jumpi\n      0x00\n      dup1\n      revert\n    tag_291:\n      pop\n      tag_292\n      0x04\n      dup1\n      calldatasize\n      sub\n      dup2\n      add\n      swap1\n      tag_293\n      swap2\n      swap1\n      tag_128\n      jump\t// in\n    tag_293:\n      tag_294\n      jump\t// in\n    tag_292:\n      mload(0x40)\n      tag_295\n      swap2\n      swap1\n      tag_94\n      jump\t// in\n    tag_295:\n      mload(0x40)\n      dup1\n      swap2\n      sub\n      swap1\n      return\n        /* \"contracts/cropsFarmer.sol\":1281:1327  uint256 public WITHDRAW_COOLDOWN = 4 * 60 * 60 */\n    tag_49:\n      callvalue\n      dup1\n      iszero\n      tag_296\n      jumpi\n      0x00\n      dup1\n      revert\n    tag_296:\n      pop\n      tag_297\n      tag_298\n      jump\t// in\n    tag_297:\n      mload(0x40)\n      tag_299\n      swap2\n      swap1\n      tag_94\n      jump\t// in\n    tag_299:\n      mload(0x40)\n      dup1\n      swap2\n      sub\n      swap1\n      return\n        /* \"contracts/cropsFarmer.sol\":17049:17237  function BONUS_COMPOUND_STEP(uint256 value) external {... */\n    tag_50:\n      callvalue\n      dup1\n      iszero\n      tag_300\n      jumpi\n      0x00\n      dup1\n      revert\n    tag_300:\n      pop\n      tag_301\n      0x04\n      dup1\n      calldatasize\n      sub\n      dup2\n      add\n      swap1\n      tag_302\n      swap2\n      swap1\n      tag_128\n      jump\t// in\n    tag_302:\n      tag_303\n      jump\t// in\n    tag_301:\n      stop\n        /* \"contracts/cropsFarmer.sol\":16837:17043  function BONUS_DAILY_COMPOUND_BONUS_MAX_TIMES(uint256 value) external {... */\n    tag_51:\n      callvalue\n      dup1\n      iszero\n      tag_304\n      jumpi\n      0x00\n      dup1\n      revert\n    tag_304:\n      pop\n      tag_305\n      0x04\n      dup1\n      calldatasize\n      sub\n      dup2\n      add\n      swap1\n      tag_306\n      swap2\n      swap1\n      tag_128\n      jump\t// in\n    tag_306:\n      tag_307\n      jump\t// in\n    tag_305:\n      stop\n        /* \"contracts/cropsFarmer.sol\":2730:2879  function setblacklistActive(bool isActive) public{... */\n    tag_52:\n      callvalue\n      dup1\n      iszero\n      tag_308\n      jumpi\n      0x00\n      dup1\n      revert\n    tag_308:\n      pop\n      tag_309\n      0x04\n      dup1\n      calldatasize\n      sub\n      dup2\n      add\n      swap1\n      tag_310\n      swap2\n      swap1\n      tag_119\n      jump\t// in\n    tag_310:\n      tag_311\n      jump\t// in\n    tag_309:\n      stop\n        /* \"contracts/cropsFarmer.sol\":1380:1407  address payable public dev1 */\n    tag_53:\n      callvalue\n      dup1\n      iszero\n      tag_312\n      jumpi\n      0x00\n      dup1\n      revert\n    tag_312:\n      pop\n      tag_313\n      tag_314\n      jump\t// in\n    tag_313:\n      mload(0x40)\n      tag_315\n      swap2\n      swap1\n      tag_103\n      jump\t// in\n    tag_315:\n      mload(0x40)\n      dup1\n      swap2\n      sub\n      swap1\n      return\n        /* \"contracts/cropsFarmer.sol\":2041:2078  mapping(address => User) public users */\n    tag_54:\n      callvalue\n      dup1\n      iszero\n      tag_316\n      jumpi\n      0x00\n      dup1\n      revert\n    tag_316:\n      pop\n      tag_317\n      0x04\n      dup1\n      calldatasize\n      sub\n      dup2\n      add\n      swap1\n      tag_318\n      swap2\n      swap1\n      tag_133\n      jump\t// in\n    tag_318:\n      tag_319\n      jump\t// in\n    tag_317:\n      mload(0x40)\n      tag_320\n      swap13\n      swap12\n      swap11\n      swap10\n      swap9\n      swap8\n      swap7\n      swap6\n      swap5\n      swap4\n      swap3\n      swap2\n      swap1\n      tag_223\n      jump\t// in\n    tag_320:\n      mload(0x40)\n      dup1\n      swap2\n      sub\n      swap1\n      return\n        /* \"contracts/cropsFarmer.sol\":1134:1178  mapping(address => uint) public firstDeposit */\n    tag_55:\n      callvalue\n      dup1\n      iszero\n      tag_321\n      jumpi\n      0x00\n      dup1\n      revert\n    tag_321:\n      pop\n      tag_322\n      0x04\n      dup1\n      calldatasize\n      sub\n      dup2\n      add\n      swap1\n      tag_323\n      swap2\n      swap1\n      tag_133\n      jump\t// in\n    tag_323:\n      tag_324\n      jump\t// in\n    tag_322:\n      mload(0x40)\n      tag_325\n      swap2\n      swap1\n      tag_94\n      jump\t// in\n    tag_325:\n      mload(0x40)\n      dup1\n      swap2\n      sub\n      swap1\n      return\n        /* \"contracts/cropsFarmer.sol\":1045:1079  bool public blacklistActive = true */\n    tag_56:\n      callvalue\n      dup1\n      iszero\n      tag_326\n      jumpi\n      0x00\n      dup1\n      revert\n    tag_326:\n      pop\n      tag_327\n      tag_328\n      jump\t// in\n    tag_327:\n      mload(0x40)\n      tag_329\n      swap2\n      swap1\n      tag_172\n      jump\t// in\n    tag_329:\n      mload(0x40)\n      dup1\n      swap2\n      sub\n      swap1\n      return\n        /* \"contracts/cropsFarmer.sol\":3901:3944  function fundContract() external payable {} */\n    tag_57:\n      tag_330\n      tag_331\n      jump\t// in\n    tag_330:\n      stop\n        /* \"contracts/cropsFarmer.sol\":12668:13101  function getEggsYield(uint256 amount) public view returns(uint256,uint256) {... */\n    tag_58:\n      callvalue\n      dup1\n      iszero\n      tag_332\n      jumpi\n      0x00\n      dup1\n      revert\n    tag_332:\n      pop\n      tag_333\n      0x04\n      dup1\n      calldatasize\n      sub\n      dup2\n      add\n      swap1\n      tag_334\n      swap2\n      swap1\n      tag_128\n      jump\t// in\n    tag_334:\n      tag_335\n      jump\t// in\n    tag_333:\n      mload(0x40)\n      tag_336\n      swap3\n      swap2\n      swap1\n      tag_337\n      jump\t// in\n    tag_336:\n      mload(0x40)\n      dup1\n      swap2\n      sub\n      swap1\n      return\n        /* \"contracts/cropsFarmer.sol\":16450:16629  function SET_WITHDRAWAL_TAX(uint256 value) external {... */\n    tag_59:\n      callvalue\n      dup1\n      iszero\n      tag_338\n      jumpi\n      0x00\n      dup1\n      revert\n    tag_338:\n      pop\n      tag_339\n      0x04\n      dup1\n      calldatasize\n      sub\n      dup2\n      add\n      swap1\n      tag_340\n      swap2\n      swap1\n      tag_128\n      jump\t// in\n    tag_340:\n      tag_341\n      jump\t// in\n    tag_339:\n      stop\n        /* \"contracts/cropsFarmer.sol\":3335:3523  function checkIfBlacklisted(address Wallet) public view returns(bool blacklisted){... */\n    tag_60:\n      callvalue\n      dup1\n      iszero\n      tag_342\n      jumpi\n      0x00\n      dup1\n      revert\n    tag_342:\n      pop\n      tag_343\n      0x04\n      dup1\n      calldatasize\n      sub\n      dup2\n      add\n      swap1\n      tag_344\n      swap2\n      swap1\n      tag_133\n      jump\t// in\n    tag_344:\n      tag_345\n      jump\t// in\n    tag_343:\n      mload(0x40)\n      tag_346\n      swap2\n      swap1\n      tag_172\n      jump\t// in\n    tag_346:\n      mload(0x40)\n      dup1\n      swap2\n      sub\n      swap1\n      return\n        /* \"contracts/cropsFarmer.sol\":190:218  uint256 public REFERRAL = 70 */\n    tag_61:\n      callvalue\n      dup1\n      iszero\n      tag_347\n      jumpi\n      0x00\n      dup1\n      revert\n    tag_347:\n      pop\n      tag_348\n      tag_349\n      jump\t// in\n    tag_348:\n      mload(0x40)\n      tag_350\n      swap2\n      swap1\n      tag_94\n      jump\t// in\n    tag_350:\n      mload(0x40)\n      dup1\n      swap2\n      sub\n      swap1\n      return\n        /* \"contracts/cropsFarmer.sol\":549:593  uint256 public COMPOUND_BONUS_MAX_TIMES = 10 */\n    tag_62:\n      callvalue\n      dup1\n      iszero\n      tag_351\n      jumpi\n      0x00\n      dup1\n      revert\n    tag_351:\n      pop\n      tag_352\n      tag_353\n      jump\t// in\n    tag_352:\n      mload(0x40)\n      tag_354\n      swap2\n      swap1\n      tag_94\n      jump\t// in\n    tag_354:\n      mload(0x40)\n      dup1\n      swap2\n      sub\n      swap1\n      return\n        /* \"contracts/cropsFarmer.sol\":13107:13279  function calculateEggSellForYield(uint256 eggs,uint256 amount) public view returns(uint256){... */\n    tag_63:\n      callvalue\n      dup1\n      iszero\n      tag_355\n      jumpi\n      0x00\n      dup1\n      revert\n    tag_355:\n      pop\n      tag_356\n      0x04\n      dup1\n      calldatasize\n      sub\n      dup2\n      add\n      swap1\n      tag_357\n      swap2\n      swap1\n      tag_149\n      jump\t// in\n    tag_357:\n      tag_358\n      jump\t// in\n    tag_356:\n      mload(0x40)\n      tag_359\n      swap2\n      swap1\n      tag_94\n      jump\t// in\n    tag_359:\n      mload(0x40)\n      dup1\n      swap2\n      sub\n      swap1\n      return\n        /* \"contracts/cropsFarmer.sol\":370:421  uint256 public MIN_INVEST_LIMIT = 30000000000000000 */\n    tag_64:\n      callvalue\n      dup1\n      iszero\n      tag_360\n      jumpi\n      0x00\n      dup1\n      revert\n    tag_360:\n      pop\n      tag_361\n      tag_362\n      jump\t// in\n    tag_361:\n      mload(0x40)\n      tag_363\n      swap2\n      swap1\n      tag_94\n      jump\t// in\n    tag_363:\n      mload(0x40)\n      dup1\n      swap2\n      sub\n      swap1\n      return\n        /* \"contracts/cropsFarmer.sol\":512:546  uint256 public COMPOUND_BONUS = 20 */\n    tag_65:\n      callvalue\n      dup1\n      iszero\n      tag_364\n      jumpi\n      0x00\n      dup1\n      revert\n    tag_364:\n      pop\n      tag_365\n      tag_366\n      jump\t// in\n    tag_365:\n      mload(0x40)\n      tag_367\n      swap2\n      swap1\n      tag_94\n      jump\t// in\n    tag_367:\n      mload(0x40)\n      dup1\n      swap2\n      sub\n      swap1\n      return\n        /* \"contracts/cropsFarmer.sol\":13763:14169  function getEggsSinceLastHatch(address adr) public view returns(uint256){... */\n    tag_66:\n      callvalue\n      dup1\n      iszero\n      tag_368\n      jumpi\n      0x00\n      dup1\n      revert\n    tag_368:\n      pop\n      tag_369\n      0x04\n      dup1\n      calldatasize\n      sub\n      dup2\n      add\n      swap1\n      tag_370\n      swap2\n      swap1\n      tag_133\n      jump\t// in\n    tag_370:\n      tag_371\n      jump\t// in\n    tag_369:\n      mload(0x40)\n      tag_372\n      swap2\n      swap1\n      tag_94\n      jump\t// in\n    tag_372:\n      mload(0x40)\n      dup1\n      swap2\n      sub\n      swap1\n      return\n        /* \"contracts/cropsFarmer.sol\":2885:3061  function blackListWallet(address Wallet, bool isBlacklisted) public{... */\n    tag_67:\n      callvalue\n      dup1\n      iszero\n      tag_373\n      jumpi\n      0x00\n      dup1\n      revert\n    tag_373:\n      pop\n      tag_374\n      0x04\n      dup1\n      calldatasize\n      sub\n      dup2\n      add\n      swap1\n      tag_375\n      swap2\n      swap1\n      tag_376\n      jump\t// in\n    tag_375:\n      tag_377\n      jump\t// in\n    tag_374:\n      stop\n        /* \"contracts/cropsFarmer.sol\":11369:11462  function getTimeStamp() public view returns (uint256) {... */\n    tag_68:\n      callvalue\n      dup1\n      iszero\n      tag_378\n      jumpi\n      0x00\n      dup1\n      revert\n    tag_378:\n      pop\n      tag_379\n      tag_380\n      jump\t// in\n    tag_379:\n      mload(0x40)\n      tag_381\n      swap2\n      swap1\n      tag_94\n      jump\t// in\n    tag_381:\n      mload(0x40)\n      dup1\n      swap2\n      sub\n      swap1\n      return\n        /* \"contracts/cropsFarmer.sol\":3529:3851  function startFarm(address addr) public payable{... */\n    tag_69:\n      tag_382\n      0x04\n      dup1\n      calldatasize\n      sub\n      dup2\n      add\n      swap1\n      tag_383\n      swap2\n      swap1\n      tag_133\n      jump\t// in\n    tag_383:\n      tag_384\n      jump\t// in\n    tag_382:\n      stop\n        /* \"contracts/cropsFarmer.sol\":15503:15738  function PRC_EGGS_TO_HIRE_1MINERS(uint256 value) external {... */\n    tag_70:\n      callvalue\n      dup1\n      iszero\n      tag_385\n      jumpi\n      0x00\n      dup1\n      revert\n    tag_385:\n      pop\n      tag_386\n      0x04\n      dup1\n      calldatasize\n      sub\n      dup2\n      add\n      swap1\n      tag_387\n      swap2\n      swap1\n      tag_128\n      jump\t// in\n    tag_387:\n      tag_388\n      jump\t// in\n    tag_386:\n      stop\n        /* \"contracts/cropsFarmer.sol\":17959:18169  function SET_COMPOUND_FOR_NO_TAX_WITHDRAWAL(uint256 value) external {... */\n    tag_71:\n      callvalue\n      dup1\n      iszero\n      tag_389\n      jumpi\n      0x00\n      dup1\n      revert\n    tag_389:\n      pop\n      tag_390\n      0x04\n      dup1\n      calldatasize\n      sub\n      dup2\n      add\n      swap1\n      tag_391\n      swap2\n      swap1\n      tag_128\n      jump\t// in\n    tag_391:\n      tag_392\n      jump\t// in\n    tag_390:\n      stop\n        /* \"contracts/cropsFarmer.sol\":3067:3329  function blackMultipleWallets(address[] calldata Wallet, bool isBlacklisted) public{... */\n    tag_72:\n      callvalue\n      dup1\n      iszero\n      tag_393\n      jumpi\n      0x00\n      dup1\n      revert\n    tag_393:\n      pop\n      tag_394\n      0x04\n      dup1\n      calldatasize\n      sub\n      dup2\n      add\n      swap1\n      tag_395\n      swap2\n      swap1\n      tag_396\n      jump\t// in\n    tag_395:\n      tag_397\n      jump\t// in\n    tag_394:\n      stop\n        /* \"contracts/cropsFarmer.sol\":704:754  uint256 public COMPOUND_FOR_NO_TAX_WITHDRAWAL = 10 */\n    tag_73:\n      callvalue\n      dup1\n      iszero\n      tag_398\n      jumpi\n      0x00\n      dup1\n      revert\n    tag_398:\n      pop\n      tag_399\n      tag_400\n      jump\t// in\n    tag_399:\n      mload(0x40)\n      tag_401\n      swap2\n      swap1\n      tag_94\n      jump\t// in\n    tag_401:\n      mload(0x40)\n      dup1\n      swap2\n      sub\n      swap1\n      return\n        /* \"contracts/cropsFarmer.sol\":1085:1128  mapping(address => bool) public Blacklisted */\n    tag_74:\n      callvalue\n      dup1\n      iszero\n      tag_402\n      jumpi\n      0x00\n      dup1\n      revert\n    tag_402:\n      pop\n      tag_403\n      0x04\n      dup1\n      calldatasize\n      sub\n      dup2\n      add\n      swap1\n      tag_404\n      swap2\n      swap1\n      tag_133\n      jump\t// in\n    tag_404:\n      tag_405\n      jump\t// in\n    tag_403:\n      mload(0x40)\n      tag_406\n      swap2\n      swap1\n      tag_172\n      jump\t// in\n    tag_406:\n      mload(0x40)\n      dup1\n      swap2\n      sub\n      swap1\n      return\n        /* \"contracts/cropsFarmer.sol\":224:262  uint256 public PERCENTS_DIVIDER = 1000 */\n    tag_92:\n      sload(0x02)\n      dup2\n      jump\t// out\n        /* \"contracts/cropsFarmer.sol\":658:693  uint256 public WITHDRAWAL_TAX = 350 */\n    tag_97:\n      sload(0x0b)\n      dup2\n      jump\t// out\n        /* \"contracts/cropsFarmer.sol\":1479:1508  address payable public prtnr1 */\n    tag_101:\n      0x1f\n      0x00\n      swap1\n      sload\n      swap1\n      0x0100\n      exp\n      swap1\n      div\n      0xffffffffffffffffffffffffffffffffffffffff\n      and\n      dup2\n      jump\t// out\n        /* \"contracts/cropsFarmer.sol\":13511:13610  function getMyMiners() public view returns(uint256){... */\n    tag_106:\n        /* \"contracts/cropsFarmer.sol\":13554:13561  uint256 */\n      0x00\n        /* \"contracts/cropsFarmer.sol\":13579:13584  users */\n      0x22\n        /* \"contracts/cropsFarmer.sol\":13579:13596  users[msg.sender] */\n      0x00\n        /* \"contracts/cropsFarmer.sol\":13585:13595  msg.sender */\n      caller\n        /* \"contracts/cropsFarmer.sol\":13579:13596  users[msg.sender] */\n      0xffffffffffffffffffffffffffffffffffffffff\n      and\n      0xffffffffffffffffffffffffffffffffffffffff\n      and\n      dup2\n      mstore\n      0x20\n      add\n      swap1\n      dup2\n      mstore\n      0x20\n      add\n      0x00\n      keccak256\n        /* \"contracts/cropsFarmer.sol\":13579:13603  users[msg.sender].miners */\n      0x02\n      add\n      sload\n        /* \"contracts/cropsFarmer.sol\":13572:13603  return users[msg.sender].miners */\n      swap1\n      pop\n        /* \"contracts/cropsFarmer.sol\":13511:13610  function getMyMiners() public view returns(uint256){... */\n      swap1\n      jump\t// out\n        /* \"contracts/cropsFarmer.sol\":11268:11363  function getBalance() public view returns(uint256){... */\n    tag_110:\n        /* \"contracts/cropsFarmer.sol\":11310:11317  uint256 */\n      0x00\n        /* \"contracts/cropsFarmer.sol\":11335:11356  address(this).balance */\n      selfbalance\n        /* \"contracts/cropsFarmer.sol\":11328:11356  return address(this).balance */\n      swap1\n      pop\n        /* \"contracts/cropsFarmer.sol\":11268:11363  function getBalance() public view returns(uint256){... */\n      swap1\n      jump\t// out\n        /* \"contracts/cropsFarmer.sol\":445:492  uint256 public WALLET_DEPOSIT_LIMIT = 25 * 1e18 */\n    tag_114:\n      sload(0x07)\n      dup2\n      jump\t// out\n        /* \"contracts/cropsFarmer.sol\":3950:5204  function hireMoreFarmers(bool isCompound) public {... */\n    tag_120:\n        /* \"contracts/cropsFarmer.sol\":4009:4026  User storage user */\n      0x00\n        /* \"contracts/cropsFarmer.sol\":4029:4034  users */\n      0x22\n        /* \"contracts/cropsFarmer.sol\":4029:4046  users[msg.sender] */\n      0x00\n        /* \"contracts/cropsFarmer.sol\":4035:4045  msg.sender */\n      caller\n        /* \"contracts/cropsFarmer.sol\":4029:4046  users[msg.sender] */\n      0xffffffffffffffffffffffffffffffffffffffff\n      and\n      0xffffffffffffffffffffffffffffffffffffffff\n      and\n      dup2\n      mstore\n      0x20\n      add\n      swap1\n      dup2\n      mstore\n      0x20\n      add\n      0x00\n      keccak256\n        /* \"contracts/cropsFarmer.sol\":4009:4046  User storage user = users[msg.sender] */\n      swap1\n      pop\n        /* \"contracts/cropsFarmer.sol\":4064:4079  contractStarted */\n      0x15\n      0x00\n      swap1\n      sload\n      swap1\n      0x0100\n      exp\n      swap1\n      div\n      0xff\n      and\n        /* \"contracts/cropsFarmer.sol\":4056:4109  require(contractStarted, \"Contract not yet Started.\") */\n      tag_410\n      jumpi\n      mload(0x40)\n      0x08c379a000000000000000000000000000000000000000000000000000000000\n      dup2\n      mstore\n      0x04\n      add\n      tag_411\n      swap1\n      tag_412\n      jump\t// in\n    tag_411:\n      mload(0x40)\n      dup1\n      swap2\n      sub\n      swap1\n      revert\n    tag_410:\n        /* \"contracts/cropsFarmer.sol\":4120:4136  uint256 eggsUsed */\n      0x00\n        /* \"contracts/cropsFarmer.sol\":4139:4150  getMyEggs() */\n      tag_413\n        /* \"contracts/cropsFarmer.sol\":4139:4148  getMyEggs */\n      tag_179\n        /* \"contracts/cropsFarmer.sol\":4139:4150  getMyEggs() */\n      jump\t// in\n    tag_413:\n        /* \"contracts/cropsFarmer.sol\":4120:4150  uint256 eggsUsed = getMyEggs() */\n      swap1\n      pop\n        /* \"contracts/cropsFarmer.sol\":4160:4183  uint256 eggsForCompound */\n      0x00\n        /* \"contracts/cropsFarmer.sol\":4186:4194  eggsUsed */\n      dup2\n        /* \"contracts/cropsFarmer.sol\":4160:4194  uint256 eggsForCompound = eggsUsed */\n      swap1\n      pop\n        /* \"contracts/cropsFarmer.sol\":4208:4218  isCompound */\n      dup4\n        /* \"contracts/cropsFarmer.sol\":4205:4596  if(isCompound) {... */\n      iszero\n      tag_414\n      jumpi\n        /* \"contracts/cropsFarmer.sol\":4234:4260  uint256 dailyCompoundBonus */\n      0x00\n        /* \"contracts/cropsFarmer.sol\":4263:4313  getDailyCompoundBonus(msg.sender, eggsForCompound) */\n      tag_415\n        /* \"contracts/cropsFarmer.sol\":4285:4295  msg.sender */\n      caller\n        /* \"contracts/cropsFarmer.sol\":4297:4312  eggsForCompound */\n      dup4\n        /* \"contracts/cropsFarmer.sol\":4263:4284  getDailyCompoundBonus */\n      tag_202\n        /* \"contracts/cropsFarmer.sol\":4263:4313  getDailyCompoundBonus(msg.sender, eggsForCompound) */\n      jump\t// in\n    tag_415:\n        /* \"contracts/cropsFarmer.sol\":4234:4313  uint256 dailyCompoundBonus = getDailyCompoundBonus(msg.sender, eggsForCompound) */\n      swap1\n      pop\n        /* \"contracts/cropsFarmer.sol\":4345:4384  eggsForCompound.add(dailyCompoundBonus) */\n      tag_416\n        /* \"contracts/cropsFarmer.sol\":4365:4383  dailyCompoundBonus */\n      dup2\n        /* \"contracts/cropsFarmer.sol\":4345:4360  eggsForCompound */\n      dup4\n        /* \"contracts/cropsFarmer.sol\":4345:4364  eggsForCompound.add */\n      tag_417\n      swap1\n        /* \"contracts/cropsFarmer.sol\":4345:4384  eggsForCompound.add(dailyCompoundBonus) */\n      swap2\n      swap1\n      0xffffffff\n      and\n      jump\t// in\n    tag_416:\n        /* \"contracts/cropsFarmer.sol\":4327:4384  eggsForCompound = eggsForCompound.add(dailyCompoundBonus) */\n      swap2\n      pop\n        /* \"contracts/cropsFarmer.sol\":4398:4419  uint256 eggsUsedValue */\n      0x00\n        /* \"contracts/cropsFarmer.sol\":4422:4455  calculateEggSell(eggsForCompound) */\n      tag_418\n        /* \"contracts/cropsFarmer.sol\":4439:4454  eggsForCompound */\n      dup4\n        /* \"contracts/cropsFarmer.sol\":4422:4438  calculateEggSell */\n      tag_294\n        /* \"contracts/cropsFarmer.sol\":4422:4455  calculateEggSell(eggsForCompound) */\n      jump\t// in\n    tag_418:\n        /* \"contracts/cropsFarmer.sol\":4398:4455  uint256 eggsUsedValue = calculateEggSell(eggsForCompound) */\n      swap1\n      pop\n        /* \"contracts/cropsFarmer.sol\":4488:4523  user.userDeposit.add(eggsUsedValue) */\n      tag_419\n        /* \"contracts/cropsFarmer.sol\":4509:4522  eggsUsedValue */\n      dup2\n        /* \"contracts/cropsFarmer.sol\":4488:4492  user */\n      dup7\n        /* \"contracts/cropsFarmer.sol\":4488:4504  user.userDeposit */\n      0x01\n      add\n      sload\n        /* \"contracts/cropsFarmer.sol\":4488:4508  user.userDeposit.add */\n      tag_417\n      swap1\n        /* \"contracts/cropsFarmer.sol\":4488:4523  user.userDeposit.add(eggsUsedValue) */\n      swap2\n      swap1\n      0xffffffff\n      and\n      jump\t// in\n    tag_419:\n        /* \"contracts/cropsFarmer.sol\":4469:4473  user */\n      dup6\n        /* \"contracts/cropsFarmer.sol\":4469:4485  user.userDeposit */\n      0x01\n      add\n        /* \"contracts/cropsFarmer.sol\":4469:4523  user.userDeposit = user.userDeposit.add(eggsUsedValue) */\n      dup2\n      swap1\n      sstore\n      pop\n        /* \"contracts/cropsFarmer.sol\":4553:4585  totalCompound.add(eggsUsedValue) */\n      tag_420\n        /* \"contracts/cropsFarmer.sol\":4571:4584  eggsUsedValue */\n      dup2\n        /* \"contracts/cropsFarmer.sol\":4553:4566  totalCompound */\n      sload(0x0f)\n        /* \"contracts/cropsFarmer.sol\":4553:4570  totalCompound.add */\n      tag_417\n      swap1\n        /* \"contracts/cropsFarmer.sol\":4553:4585  totalCompound.add(eggsUsedValue) */\n      swap2\n      swap1\n      0xffffffff\n      and\n      jump\t// in\n    tag_420:\n        /* \"contracts/cropsFarmer.sol\":4537:4550  totalCompound */\n      0x0f\n        /* \"contracts/cropsFarmer.sol\":4537:4585  totalCompound = totalCompound.add(eggsUsedValue) */\n      dup2\n      swap1\n      sstore\n      pop\n        /* \"contracts/cropsFarmer.sol\":4220:4596  {... */\n      pop\n      pop\n        /* \"contracts/cropsFarmer.sol\":4205:4596  if(isCompound) {... */\n    tag_414:\n        /* \"contracts/cropsFarmer.sol\":4649:4662  COMPOUND_STEP */\n      sload(0x0a)\n        /* \"contracts/cropsFarmer.sol\":4610:4645  block.timestamp.sub(user.lastHatch) */\n      tag_421\n        /* \"contracts/cropsFarmer.sol\":4630:4634  user */\n      dup5\n        /* \"contracts/cropsFarmer.sol\":4630:4644  user.lastHatch */\n      0x04\n      add\n      sload\n        /* \"contracts/cropsFarmer.sol\":4610:4625  block.timestamp */\n      timestamp\n        /* \"contracts/cropsFarmer.sol\":4610:4629  block.timestamp.sub */\n      tag_422\n      swap1\n        /* \"contracts/cropsFarmer.sol\":4610:4645  block.timestamp.sub(user.lastHatch) */\n      swap2\n      swap1\n      0xffffffff\n      and\n      jump\t// in\n    tag_421:\n        /* \"contracts/cropsFarmer.sol\":4610:4662  block.timestamp.sub(user.lastHatch) >= COMPOUND_STEP */\n      lt\n        /* \"contracts/cropsFarmer.sol\":4607:4962  if(block.timestamp.sub(user.lastHatch) >= COMPOUND_STEP) {... */\n      tag_423\n      jumpi\n        /* \"contracts/cropsFarmer.sol\":4707:4731  COMPOUND_BONUS_MAX_TIMES */\n      sload(0x09)\n        /* \"contracts/cropsFarmer.sol\":4681:4685  user */\n      dup4\n        /* \"contracts/cropsFarmer.sol\":4681:4704  user.dailyCompoundBonus */\n      0x09\n      add\n      sload\n        /* \"contracts/cropsFarmer.sol\":4681:4731  user.dailyCompoundBonus < COMPOUND_BONUS_MAX_TIMES */\n      lt\n        /* \"contracts/cropsFarmer.sol\":4678:4822  if(user.dailyCompoundBonus < COMPOUND_BONUS_MAX_TIMES) {... */\n      iszero\n      tag_424\n      jumpi\n        /* \"contracts/cropsFarmer.sol\":4777:4807  user.dailyCompoundBonus.add(2) */\n      tag_425\n        /* \"contracts/cropsFarmer.sol\":4805:4806  2 */\n      0x02\n        /* \"contracts/cropsFarmer.sol\":4777:4781  user */\n      dup5\n        /* \"contracts/cropsFarmer.sol\":4777:4800  user.dailyCompoundBonus */\n      0x09\n      add\n      sload\n        /* \"contracts/cropsFarmer.sol\":4777:4804  user.dailyCompoundBonus.add */\n      tag_417\n      swap1\n        /* \"contracts/cropsFarmer.sol\":4777:4807  user.dailyCompoundBonus.add(2) */\n      swap2\n      swap1\n      0xffffffff\n      and\n      jump\t// in\n    tag_425:\n        /* \"contracts/cropsFarmer.sol\":4751:4755  user */\n      dup4\n        /* \"contracts/cropsFarmer.sol\":4751:4774  user.dailyCompoundBonus */\n      0x09\n      add\n        /* \"contracts/cropsFarmer.sol\":4751:4807  user.dailyCompoundBonus = user.dailyCompoundBonus.add(2) */\n      dup2\n      swap1\n      sstore\n      pop\n        /* \"contracts/cropsFarmer.sol\":4678:4822  if(user.dailyCompoundBonus < COMPOUND_BONUS_MAX_TIMES) {... */\n    tag_424:\n        /* \"contracts/cropsFarmer.sol\":4919:4951  user.farmerCompoundCount .add(1) */\n      tag_426\n        /* \"contracts/cropsFarmer.sol\":4949:4950  1 */\n      0x01\n        /* \"contracts/cropsFarmer.sol\":4919:4923  user */\n      dup5\n        /* \"contracts/cropsFarmer.sol\":4919:4943  user.farmerCompoundCount */\n      0x0a\n      add\n      sload\n        /* \"contracts/cropsFarmer.sol\":4919:4948  user.farmerCompoundCount .add */\n      tag_417\n      swap1\n        /* \"contracts/cropsFarmer.sol\":4919:4951  user.farmerCompoundCount .add(1) */\n      swap2\n      swap1\n      0xffffffff\n      and\n      jump\t// in\n    tag_426:\n        /* \"contracts/cropsFarmer.sol\":4892:4896  user */\n      dup4\n        /* \"contracts/cropsFarmer.sol\":4892:4916  user.farmerCompoundCount */\n      0x0a\n      add\n        /* \"contracts/cropsFarmer.sol\":4892:4951  user.farmerCompoundCount = user.farmerCompoundCount .add(1) */\n      dup2\n      swap1\n      sstore\n      pop\n        /* \"contracts/cropsFarmer.sol\":4607:4962  if(block.timestamp.sub(user.lastHatch) >= COMPOUND_STEP) {... */\n    tag_423:\n        /* \"contracts/cropsFarmer.sol\":4994:5052  user.miners.add(eggsForCompound.div(EGGS_TO_HIRE_1MINERS)) */\n      tag_427\n        /* \"contracts/cropsFarmer.sol\":5010:5051  eggsForCompound.div(EGGS_TO_HIRE_1MINERS) */\n      tag_428\n        /* \"contracts/cropsFarmer.sol\":5030:5050  EGGS_TO_HIRE_1MINERS */\n      sload(0x00)\n        /* \"contracts/cropsFarmer.sol\":5010:5025  eggsForCompound */\n      dup4\n        /* \"contracts/cropsFarmer.sol\":5010:5029  eggsForCompound.div */\n      tag_429\n      swap1\n        /* \"contracts/cropsFarmer.sol\":5010:5051  eggsForCompound.div(EGGS_TO_HIRE_1MINERS) */\n      swap2\n      swap1\n      0xffffffff\n      and\n      jump\t// in\n    tag_428:\n        /* \"contracts/cropsFarmer.sol\":4994:4998  user */\n      dup5\n        /* \"contracts/cropsFarmer.sol\":4994:5005  user.miners */\n      0x02\n      add\n      sload\n        /* \"contracts/cropsFarmer.sol\":4994:5009  user.miners.add */\n      tag_417\n      swap1\n        /* \"contracts/cropsFarmer.sol\":4994:5052  user.miners.add(eggsForCompound.div(EGGS_TO_HIRE_1MINERS)) */\n      swap2\n      swap1\n      0xffffffff\n      and\n      jump\t// in\n    tag_427:\n        /* \"contracts/cropsFarmer.sol\":4980:4984  user */\n      dup4\n        /* \"contracts/cropsFarmer.sol\":4980:4991  user.miners */\n      0x02\n      add\n        /* \"contracts/cropsFarmer.sol\":4980:5052  user.miners = user.miners.add(eggsForCompound.div(EGGS_TO_HIRE_1MINERS)) */\n      dup2\n      swap1\n      sstore\n      pop\n        /* \"contracts/cropsFarmer.sol\":5081:5082  0 */\n      0x00\n        /* \"contracts/cropsFarmer.sol\":5062:5066  user */\n      dup4\n        /* \"contracts/cropsFarmer.sol\":5062:5078  user.claimedEggs */\n      0x03\n      add\n        /* \"contracts/cropsFarmer.sol\":5062:5082  user.claimedEggs = 0 */\n      dup2\n      swap1\n      sstore\n      pop\n        /* \"contracts/cropsFarmer.sol\":5109:5124  block.timestamp */\n      timestamp\n        /* \"contracts/cropsFarmer.sol\":5092:5096  user */\n      dup4\n        /* \"contracts/cropsFarmer.sol\":5092:5106  user.lastHatch */\n      0x04\n      add\n        /* \"contracts/cropsFarmer.sol\":5092:5124  user.lastHatch = block.timestamp */\n      dup2\n      swap1\n      sstore\n      pop\n        /* \"contracts/cropsFarmer.sol\":5148:5197  marketEggs.add(eggsUsed.div(MARKET_EGGS_DIVISOR)) */\n      tag_430\n        /* \"contracts/cropsFarmer.sol\":5163:5196  eggsUsed.div(MARKET_EGGS_DIVISOR) */\n      tag_431\n        /* \"contracts/cropsFarmer.sol\":5176:5195  MARKET_EGGS_DIVISOR */\n      sload(0x05)\n        /* \"contracts/cropsFarmer.sol\":5163:5171  eggsUsed */\n      dup5\n        /* \"contracts/cropsFarmer.sol\":5163:5175  eggsUsed.div */\n      tag_429\n      swap1\n        /* \"contracts/cropsFarmer.sol\":5163:5196  eggsUsed.div(MARKET_EGGS_DIVISOR) */\n      swap2\n      swap1\n      0xffffffff\n      and\n      jump\t// in\n    tag_431:\n        /* \"contracts/cropsFarmer.sol\":5148:5158  marketEggs */\n      sload(0x12)\n        /* \"contracts/cropsFarmer.sol\":5148:5162  marketEggs.add */\n      tag_417\n      swap1\n        /* \"contracts/cropsFarmer.sol\":5148:5197  marketEggs.add(eggsUsed.div(MARKET_EGGS_DIVISOR)) */\n      swap2\n      swap1\n      0xffffffff\n      and\n      jump\t// in\n    tag_430:\n        /* \"contracts/cropsFarmer.sol\":5135:5145  marketEggs */\n      0x12\n        /* \"contracts/cropsFarmer.sol\":5135:5197  marketEggs = marketEggs.add(eggsUsed.div(MARKET_EGGS_DIVISOR)) */\n      dup2\n      swap1\n      sstore\n      pop\n        /* \"contracts/cropsFarmer.sol\":3999:5204  {... */\n      pop\n      pop\n      pop\n        /* \"contracts/cropsFarmer.sol\":3950:5204  function hireMoreFarmers(bool isCompound) public {... */\n      pop\n      jump\t// out\n        /* \"contracts/cropsFarmer.sol\":139:184  uint256 public EGGS_TO_HIRE_1MINERS = 1440000 */\n    tag_123:\n      sload(0x00)\n      dup2\n      jump\t// out\n        /* \"contracts/cropsFarmer.sol\":15906:16062  function PRC_MKT(uint256 value) external {... */\n    tag_129:\n        /* \"contracts/cropsFarmer.sol\":15979:15984  owner */\n      0x1b\n      0x00\n      swap1\n      sload\n      swap1\n      0x0100\n      exp\n      swap1\n      div\n      0xffffffffffffffffffffffffffffffffffffffff\n      and\n        /* \"contracts/cropsFarmer.sol\":15965:15984  msg.sender == owner */\n      0xffffffffffffffffffffffffffffffffffffffff\n      and\n        /* \"contracts/cropsFarmer.sol\":15965:15975  msg.sender */\n      caller\n        /* \"contracts/cropsFarmer.sol\":15965:15984  msg.sender == owner */\n      0xffffffffffffffffffffffffffffffffffffffff\n      and\n      eq\n        /* \"contracts/cropsFarmer.sol\":15957:16004  require(msg.sender == owner, \"Admin use only.\") */\n      tag_433\n      jumpi\n      mload(0x40)\n      0x08c379a000000000000000000000000000000000000000000000000000000000\n      dup2\n      mstore\n      0x04\n      add\n      tag_434\n      swap1\n      tag_435\n      jump\t// in\n    tag_434:\n      mload(0x40)\n      dup1\n      swap2\n      sub\n      swap1\n      revert\n    tag_433:\n        /* \"contracts/cropsFarmer.sol\":16031:16033  20 */\n      0x14\n        /* \"contracts/cropsFarmer.sol\":16022:16027  value */\n      dup2\n        /* \"contracts/cropsFarmer.sol\":16022:16033  value <= 20 */\n      gt\n      iszero\n        /* \"contracts/cropsFarmer.sol\":16014:16034  require(value <= 20) */\n      tag_436\n      jumpi\n      0x00\n      dup1\n      revert\n    tag_436:\n        /* \"contracts/cropsFarmer.sol\":16050:16055  value */\n      dup1\n        /* \"contracts/cropsFarmer.sol\":16044:16047  MKT */\n      0x04\n        /* \"contracts/cropsFarmer.sol\":16044:16055  MKT = value */\n      dup2\n      swap1\n      sstore\n      pop\n        /* \"contracts/cropsFarmer.sol\":15906:16062  function PRC_MKT(uint256 value) external {... */\n      pop\n      jump\t// out\n        /* \"contracts/cropsFarmer.sol\":1184:1231  mapping(address => uint) public referralEarning */\n    tag_134:\n      mstore(0x20, 0x18)\n      dup1\n      0x00\n      mstore\n      keccak256(0x00, 0x40)\n      0x00\n      swap2\n      pop\n      swap1\n      pop\n      sload\n      dup2\n      jump\t// out\n        /* \"contracts/cropsFarmer.sol\":11682:12130  function calculateTrade(uint256 rt,uint256 rs, uint256 bs) public view returns(uint256){... */\n    tag_140:\n        /* \"contracts/cropsFarmer.sol\":11761:11768  uint256 */\n      0x00\n        /* \"contracts/cropsFarmer.sol\":11786:12123  SafeMath.div(... */\n      tag_438\n        /* \"contracts/cropsFarmer.sol\":11816:11837  SafeMath.mul(PSN, bs) */\n      tag_439\n        /* \"contracts/cropsFarmer.sol\":11829:11832  PSN */\n      sload(0x13)\n        /* \"contracts/cropsFarmer.sol\":11834:11836  bs */\n      dup5\n        /* \"contracts/cropsFarmer.sol\":11816:11828  SafeMath.mul */\n      tag_440\n        /* \"contracts/cropsFarmer.sol\":11816:11837  SafeMath.mul(PSN, bs) */\n      jump\t// in\n    tag_439:\n        /* \"contracts/cropsFarmer.sol\":11860:12122  SafeMath.add(PSNH, ... */\n      tag_441\n        /* \"contracts/cropsFarmer.sol\":11873:11877  PSNH */\n      sload(0x14)\n        /* \"contracts/cropsFarmer.sol\":11904:12121  SafeMath.div(... */\n      tag_442\n        /* \"contracts/cropsFarmer.sol\":11946:12075  SafeMath.add(... */\n      tag_443\n        /* \"contracts/cropsFarmer.sol\":11992:12013  SafeMath.mul(PSN, rs) */\n      tag_444\n        /* \"contracts/cropsFarmer.sol\":12005:12008  PSN */\n      sload(0x13)\n        /* \"contracts/cropsFarmer.sol\":12010:12012  rs */\n      dup11\n        /* \"contracts/cropsFarmer.sol\":11992:12004  SafeMath.mul */\n      tag_440\n        /* \"contracts/cropsFarmer.sol\":11992:12013  SafeMath.mul(PSN, rs) */\n      jump\t// in\n    tag_444:\n        /* \"contracts/cropsFarmer.sol\":12052:12074  SafeMath.mul(PSNH, rt) */\n      tag_445\n        /* \"contracts/cropsFarmer.sol\":12065:12069  PSNH */\n      sload(0x14)\n        /* \"contracts/cropsFarmer.sol\":12071:12073  rt */\n      dup13\n        /* \"contracts/cropsFarmer.sol\":12052:12064  SafeMath.mul */\n      tag_440\n        /* \"contracts/cropsFarmer.sol\":12052:12074  SafeMath.mul(PSNH, rt) */\n      jump\t// in\n    tag_445:\n        /* \"contracts/cropsFarmer.sol\":11946:11958  SafeMath.add */\n      tag_417\n        /* \"contracts/cropsFarmer.sol\":11946:12075  SafeMath.add(... */\n      jump\t// in\n    tag_443:\n        /* \"contracts/cropsFarmer.sol\":12118:12120  rt */\n      dup10\n        /* \"contracts/cropsFarmer.sol\":11904:11916  SafeMath.div */\n      tag_429\n        /* \"contracts/cropsFarmer.sol\":11904:12121  SafeMath.div(... */\n      jump\t// in\n    tag_442:\n        /* \"contracts/cropsFarmer.sol\":11860:11872  SafeMath.add */\n      tag_417\n        /* \"contracts/cropsFarmer.sol\":11860:12122  SafeMath.add(PSNH, ... */\n      jump\t// in\n    tag_441:\n        /* \"contracts/cropsFarmer.sol\":11786:11798  SafeMath.div */\n      tag_429\n        /* \"contracts/cropsFarmer.sol\":11786:12123  SafeMath.div(... */\n      jump\t// in\n    tag_438:\n        /* \"contracts/cropsFarmer.sol\":11779:12123  return SafeMath.div(... */\n      swap1\n      pop\n        /* \"contracts/cropsFarmer.sol\":11682:12130  function calculateTrade(uint256 rt,uint256 rs, uint256 bs) public view returns(uint256){... */\n      swap4\n      swap3\n      pop\n      pop\n      pop\n      jump\t// out\n        /* \"contracts/cropsFarmer.sol\":1446:1473  address payable public dev3 */\n    tag_144:\n      0x1e\n      0x00\n      swap1\n      sload\n      swap1\n      0x0100\n      exp\n      swap1\n      div\n      0xffffffffffffffffffffffffffffffffffffffff\n      and\n      dup2\n      jump\t// out\n        /* \"contracts/cropsFarmer.sol\":12280:12442  function calculateEggBuy(uint256 eth,uint256 contractBalance) public view returns(uint256){... */\n    tag_150:\n        /* \"contracts/cropsFarmer.sol\":12362:12369  uint256 */\n      0x00\n        /* \"contracts/cropsFarmer.sol\":12387:12435  calculateTrade(eth, contractBalance, marketEggs) */\n      tag_447\n        /* \"contracts/cropsFarmer.sol\":12402:12405  eth */\n      dup4\n        /* \"contracts/cropsFarmer.sol\":12407:12422  contractBalance */\n      dup4\n        /* \"contracts/cropsFarmer.sol\":12424:12434  marketEggs */\n      sload(0x12)\n        /* \"contracts/cropsFarmer.sol\":12387:12401  calculateTrade */\n      tag_140\n        /* \"contracts/cropsFarmer.sol\":12387:12435  calculateTrade(eth, contractBalance, marketEggs) */\n      jump\t// in\n    tag_447:\n        /* \"contracts/cropsFarmer.sol\":12380:12435  return calculateTrade(eth, contractBalance, marketEggs) */\n      swap1\n      pop\n        /* \"contracts/cropsFarmer.sol\":12280:12442  function calculateEggBuy(uint256 eth,uint256 contractBalance) public view returns(uint256){... */\n      swap3\n      swap2\n      pop\n      pop\n      jump\t// out\n        /* \"contracts/cropsFarmer.sol\":15744:15900  function PRC_TAX(uint256 value) external {... */\n    tag_155:\n        /* \"contracts/cropsFarmer.sol\":15817:15822  owner */\n      0x1b\n      0x00\n      swap1\n      sload\n      swap1\n      0x0100\n      exp\n      swap1\n      div\n      0xffffffffffffffffffffffffffffffffffffffff\n      and\n        /* \"contracts/cropsFarmer.sol\":15803:15822  msg.sender == owner */\n      0xffffffffffffffffffffffffffffffffffffffff\n      and\n        /* \"contracts/cropsFarmer.sol\":15803:15813  msg.sender */\n      caller\n        /* \"contracts/cropsFarmer.sol\":15803:15822  msg.sender == owner */\n      0xffffffffffffffffffffffffffffffffffffffff\n      and\n      eq\n        /* \"contracts/cropsFarmer.sol\":15795:15842  require(msg.sender == owner, \"Admin use only.\") */\n      tag_449\n      jumpi\n      mload(0x40)\n      0x08c379a000000000000000000000000000000000000000000000000000000000\n      dup2\n      mstore\n      0x04\n      add\n      tag_450\n      swap1\n      tag_435\n      jump\t// in\n    tag_450:\n      mload(0x40)\n      dup1\n      swap2\n      sub\n      swap1\n      revert\n    tag_449:\n        /* \"contracts/cropsFarmer.sol\":15869:15871  15 */\n      0x0f\n        /* \"contracts/cropsFarmer.sol\":15860:15865  value */\n      dup2\n        /* \"contracts/cropsFarmer.sol\":15860:15871  value <= 15 */\n      gt\n      iszero\n        /* \"contracts/cropsFarmer.sol\":15852:15872  require(value <= 15) */\n      tag_451\n      jumpi\n      0x00\n      dup1\n      revert\n    tag_451:\n        /* \"contracts/cropsFarmer.sol\":15888:15893  value */\n      dup1\n        /* \"contracts/cropsFarmer.sol\":15882:15885  TAX */\n      0x03\n        /* \"contracts/cropsFarmer.sol\":15882:15893  TAX = value */\n      dup2\n      swap1\n      sstore\n      pop\n        /* \"contracts/cropsFarmer.sol\":15744:15900  function PRC_TAX(uint256 value) external {... */\n      pop\n      jump\t// out\n        /* \"contracts/cropsFarmer.sol\":14284:14421  function CHANGE_OWNERSHIP(address value) external {... */\n    tag_159:\n        /* \"contracts/cropsFarmer.sol\":14366:14371  owner */\n      0x1b\n      0x00\n      swap1\n      sload\n      swap1\n      0x0100\n      exp\n      swap1\n      div\n      0xffffffffffffffffffffffffffffffffffffffff\n      and\n        /* \"contracts/cropsFarmer.sol\":14352:14371  msg.sender == owner */\n      0xffffffffffffffffffffffffffffffffffffffff\n      and\n        /* \"contracts/cropsFarmer.sol\":14352:14362  msg.sender */\n      caller\n        /* \"contracts/cropsFarmer.sol\":14352:14371  msg.sender == owner */\n      0xffffffffffffffffffffffffffffffffffffffff\n      and\n      eq\n        /* \"contracts/cropsFarmer.sol\":14344:14391  require(msg.sender == owner, \"Admin use only.\") */\n      tag_453\n      jumpi\n      mload(0x40)\n      0x08c379a000000000000000000000000000000000000000000000000000000000\n      dup2\n      mstore\n      0x04\n      add\n      tag_454\n      swap1\n      tag_435\n      jump\t// in\n    tag_454:\n      mload(0x40)\n      dup1\n      swap2\n      sub\n      swap1\n      revert\n    tag_453:\n        /* \"contracts/cropsFarmer.sol\":14409:14414  value */\n      dup1\n        /* \"contracts/cropsFarmer.sol\":14401:14406  owner */\n      0x1b\n      0x00\n        /* \"contracts/cropsFarmer.sol\":14401:14414  owner = value */\n      0x0100\n      exp\n      dup2\n      sload\n      dup2\n      0xffffffffffffffffffffffffffffffffffffffff\n      mul\n      not\n      and\n      swap1\n      dup4\n      0xffffffffffffffffffffffffffffffffffffffff\n      and\n      mul\n      or\n      swap1\n      sstore\n      pop\n        /* \"contracts/cropsFarmer.sol\":14284:14421  function CHANGE_OWNERSHIP(address value) external {... */\n      pop\n      jump\t// out\n        /* \"contracts/cropsFarmer.sol\":296:319  uint256 public MKT = 12 */\n    tag_162:\n      sload(0x04)\n      dup2\n      jump\t// out\n        /* \"contracts/cropsFarmer.sol\":931:956  uint256 public marketEggs */\n    tag_166:\n      sload(0x12)\n      dup2\n      jump\t// out\n        /* \"contracts/cropsFarmer.sol\":1012:1039  bool public contractStarted */\n    tag_170:\n      0x15\n      0x00\n      swap1\n      sload\n      swap1\n      0x0100\n      exp\n      swap1\n      div\n      0xff\n      and\n      dup2\n      jump\t// out\n        /* \"contracts/cropsFarmer.sol\":1237:1278  uint256 public CUTOFF_STEP = 48 * 60 * 60 */\n    tag_175:\n      sload(0x19)\n      dup2\n      jump\t// out\n        /* \"contracts/cropsFarmer.sol\":13616:13757  function getMyEggs() public view returns(uint256){... */\n    tag_179:\n        /* \"contracts/cropsFarmer.sol\":13657:13664  uint256 */\n      0x00\n        /* \"contracts/cropsFarmer.sol\":13682:13750  users[msg.sender].claimedEggs.add(getEggsSinceLastHatch(msg.sender)) */\n      tag_456\n        /* \"contracts/cropsFarmer.sol\":13716:13749  getEggsSinceLastHatch(msg.sender) */\n      tag_457\n        /* \"contracts/cropsFarmer.sol\":13738:13748  msg.sender */\n      caller\n        /* \"contracts/cropsFarmer.sol\":13716:13737  getEggsSinceLastHatch */\n      tag_371\n        /* \"contracts/cropsFarmer.sol\":13716:13749  getEggsSinceLastHatch(msg.sender) */\n      jump\t// in\n    tag_457:\n        /* \"contracts/cropsFarmer.sol\":13682:13687  users */\n      0x22\n        /* \"contracts/cropsFarmer.sol\":13682:13699  users[msg.sender] */\n      0x00\n        /* \"contracts/cropsFarmer.sol\":13688:13698  msg.sender */\n      caller\n        /* \"contracts/cropsFarmer.sol\":13682:13699  users[msg.sender] */\n      0xffffffffffffffffffffffffffffffffffffffff\n      and\n      0xffffffffffffffffffffffffffffffffffffffff\n      and\n      dup2\n      mstore\n      0x20\n      add\n      swap1\n      dup2\n      mstore\n      0x20\n      add\n      0x00\n      keccak256\n        /* \"contracts/cropsFarmer.sol\":13682:13711  users[msg.sender].claimedEggs */\n      0x03\n      add\n      sload\n        /* \"contracts/cropsFarmer.sol\":13682:13715  users[msg.sender].claimedEggs.add */\n      tag_417\n      swap1\n        /* \"contracts/cropsFarmer.sol\":13682:13750  users[msg.sender].claimedEggs.add(getEggsSinceLastHatch(msg.sender)) */\n      swap2\n      swap1\n      0xffffffff\n      and\n      jump\t// in\n    tag_456:\n        /* \"contracts/cropsFarmer.sol\":13675:13750  return users[msg.sender].claimedEggs.add(getEggsSinceLastHatch(msg.sender)) */\n      swap1\n      pop\n        /* \"contracts/cropsFarmer.sol\":13616:13757  function getMyEggs() public view returns(uint256){... */\n      swap1\n      jump\t// out\n        /* \"contracts/cropsFarmer.sol\":17551:17744  function SET_WITHDRAW_COOLDOWN(uint256 value) external {... */\n    tag_184:\n        /* \"contracts/cropsFarmer.sol\":17638:17643  owner */\n      0x1b\n      0x00\n      swap1\n      sload\n      swap1\n      0x0100\n      exp\n      swap1\n      div\n      0xffffffffffffffffffffffffffffffffffffffff\n      and\n        /* \"contracts/cropsFarmer.sol\":17624:17643  msg.sender == owner */\n      0xffffffffffffffffffffffffffffffffffffffff\n      and\n        /* \"contracts/cropsFarmer.sol\":17624:17634  msg.sender */\n      caller\n        /* \"contracts/cropsFarmer.sol\":17624:17643  msg.sender == owner */\n      0xffffffffffffffffffffffffffffffffffffffff\n      and\n      eq\n        /* \"contracts/cropsFarmer.sol\":17616:17662  require(msg.sender == owner, \"Admin use only\") */\n      tag_459\n      jumpi\n      mload(0x40)\n      0x08c379a000000000000000000000000000000000000000000000000000000000\n      dup2\n      mstore\n      0x04\n      add\n      tag_460\n      swap1\n      tag_461\n      jump\t// in\n    tag_460:\n      mload(0x40)\n      dup1\n      swap2\n      sub\n      swap1\n      revert\n    tag_459:\n        /* \"contracts/cropsFarmer.sol\":17689:17691  24 */\n      0x18\n        /* \"contracts/cropsFarmer.sol\":17680:17685  value */\n      dup2\n        /* \"contracts/cropsFarmer.sol\":17680:17691  value <= 24 */\n      gt\n      iszero\n        /* \"contracts/cropsFarmer.sol\":17672:17692  require(value <= 24) */\n      tag_462\n      jumpi\n      0x00\n      dup1\n      revert\n    tag_462:\n        /* \"contracts/cropsFarmer.sol\":17735:17737  60 */\n      0x3c\n        /* \"contracts/cropsFarmer.sol\":17730:17732  60 */\n      dup1\n        /* \"contracts/cropsFarmer.sol\":17722:17727  value */\n      dup3\n        /* \"contracts/cropsFarmer.sol\":17722:17732  value * 60 */\n      tag_463\n      swap2\n      swap1\n      tag_464\n      jump\t// in\n    tag_463:\n        /* \"contracts/cropsFarmer.sol\":17722:17737  value * 60 * 60 */\n      tag_465\n      swap2\n      swap1\n      tag_464\n      jump\t// in\n    tag_465:\n        /* \"contracts/cropsFarmer.sol\":17702:17719  WITHDRAW_COOLDOWN */\n      0x1a\n        /* \"contracts/cropsFarmer.sol\":17702:17737  WITHDRAW_COOLDOWN = value * 60 * 60 */\n      dup2\n      swap1\n      sstore\n      pop\n        /* \"contracts/cropsFarmer.sol\":17551:17744  function SET_WITHDRAW_COOLDOWN(uint256 value) external {... */\n      pop\n      jump\t// out\n        /* \"contracts/cropsFarmer.sol\":17243:17388  function SET_INVEST_MIN(uint256 value) external {... */\n    tag_188:\n        /* \"contracts/cropsFarmer.sol\":17323:17328  owner */\n      0x1b\n      0x00\n      swap1\n      sload\n      swap1\n      0x0100\n      exp\n      swap1\n      div\n      0xffffffffffffffffffffffffffffffffffffffff\n      and\n        /* \"contracts/cropsFarmer.sol\":17309:17328  msg.sender == owner */\n      0xffffffffffffffffffffffffffffffffffffffff\n      and\n        /* \"contracts/cropsFarmer.sol\":17309:17319  msg.sender */\n      caller\n        /* \"contracts/cropsFarmer.sol\":17309:17328  msg.sender == owner */\n      0xffffffffffffffffffffffffffffffffffffffff\n      and\n      eq\n        /* \"contracts/cropsFarmer.sol\":17301:17347  require(msg.sender == owner, \"Admin use only\") */\n      tag_467\n      jumpi\n      mload(0x40)\n      0x08c379a000000000000000000000000000000000000000000000000000000000\n      dup2\n      mstore\n      0x04\n      add\n      tag_468\n      swap1\n      tag_461\n      jump\t// in\n    tag_468:\n      mload(0x40)\n      dup1\n      swap2\n      sub\n      swap1\n      revert\n    tag_467:\n        /* \"contracts/cropsFarmer.sol\":17376:17381  value */\n      dup1\n        /* \"contracts/cropsFarmer.sol\":17357:17373  MIN_INVEST_LIMIT */\n      0x06\n        /* \"contracts/cropsFarmer.sol\":17357:17381  MIN_INVEST_LIMIT = value */\n      dup2\n      swap1\n      sstore\n      pop\n        /* \"contracts/cropsFarmer.sol\":17243:17388  function SET_INVEST_MIN(uint256 value) external {... */\n      pop\n      jump\t// out\n        /* \"contracts/cropsFarmer.sol\":895:924  uint256 public totalWithdrawn */\n    tag_191:\n      sload(0x11)\n      dup2\n      jump\t// out\n        /* \"contracts/cropsFarmer.sol\":13285:13505  function getSiteInfo() public view returns (uint256 _totalStaked, uint256 _totalDeposits, uint256 _totalCompound, uint256 _totalRefBonus) {... */\n    tag_195:\n        /* \"contracts/cropsFarmer.sol\":13329:13349  uint256 _totalStaked */\n      0x00\n        /* \"contracts/cropsFarmer.sol\":13351:13373  uint256 _totalDeposits */\n      dup1\n        /* \"contracts/cropsFarmer.sol\":13375:13397  uint256 _totalCompound */\n      0x00\n        /* \"contracts/cropsFarmer.sol\":13399:13421  uint256 _totalRefBonus */\n      dup1\n        /* \"contracts/cropsFarmer.sol\":13441:13452  totalStaked */\n      sload(0x0d)\n        /* \"contracts/cropsFarmer.sol\":13454:13467  totalDeposits */\n      sload(0x0e)\n        /* \"contracts/cropsFarmer.sol\":13469:13482  totalCompound */\n      sload(0x0f)\n        /* \"contracts/cropsFarmer.sol\":13484:13497  totalRefBonus */\n      sload(0x10)\n        /* \"contracts/cropsFarmer.sol\":13433:13498  return (totalStaked, totalDeposits, totalCompound, totalRefBonus) */\n      swap4\n      pop\n      swap4\n      pop\n      swap4\n      pop\n      swap4\n      pop\n        /* \"contracts/cropsFarmer.sol\":13285:13505  function getSiteInfo() public view returns (uint256 _totalStaked, uint256 _totalDeposits, uint256 _totalCompound, uint256 _totalRefBonus) {... */\n      swap1\n      swap2\n      swap3\n      swap4\n      jump\t// out\n        /* \"contracts/cropsFarmer.sol\":9887:10270  function getDailyCompoundBonus(address _adr, uint256 amount) public view returns(uint256){... */\n    tag_202:\n        /* \"contracts/cropsFarmer.sol\":9968:9975  uint256 */\n      0x00\n        /* \"contracts/cropsFarmer.sol\":10023:10024  0 */\n      dup1\n        /* \"contracts/cropsFarmer.sol\":9989:9994  users */\n      0x22\n        /* \"contracts/cropsFarmer.sol\":9989:10000  users[_adr] */\n      0x00\n        /* \"contracts/cropsFarmer.sol\":9995:9999  _adr */\n      dup6\n        /* \"contracts/cropsFarmer.sol\":9989:10000  users[_adr] */\n      0xffffffffffffffffffffffffffffffffffffffff\n      and\n      0xffffffffffffffffffffffffffffffffffffffff\n      and\n      dup2\n      mstore\n      0x20\n      add\n      swap1\n      dup2\n      mstore\n      0x20\n      add\n      0x00\n      keccak256\n        /* \"contracts/cropsFarmer.sol\":9989:10019  users[_adr].dailyCompoundBonus */\n      0x09\n      add\n      sload\n        /* \"contracts/cropsFarmer.sol\":9989:10024  users[_adr].dailyCompoundBonus == 0 */\n      eq\n        /* \"contracts/cropsFarmer.sol\":9986:10264  if(users[_adr].dailyCompoundBonus == 0) {... */\n      iszero\n      tag_471\n      jumpi\n        /* \"contracts/cropsFarmer.sol\":10047:10048  0 */\n      0x00\n        /* \"contracts/cropsFarmer.sol\":10040:10048  return 0 */\n      swap1\n      pop\n      jump(tag_470)\n        /* \"contracts/cropsFarmer.sol\":9986:10264  if(users[_adr].dailyCompoundBonus == 0) {... */\n    tag_471:\n        /* \"contracts/cropsFarmer.sol\":10079:10097  uint256 totalBonus */\n      0x00\n        /* \"contracts/cropsFarmer.sol\":10100:10150  users[_adr].dailyCompoundBonus.mul(COMPOUND_BONUS) */\n      tag_473\n        /* \"contracts/cropsFarmer.sol\":10135:10149  COMPOUND_BONUS */\n      sload(0x08)\n        /* \"contracts/cropsFarmer.sol\":10100:10105  users */\n      0x22\n        /* \"contracts/cropsFarmer.sol\":10100:10111  users[_adr] */\n      0x00\n        /* \"contracts/cropsFarmer.sol\":10106:10110  _adr */\n      dup8\n        /* \"contracts/cropsFarmer.sol\":10100:10111  users[_adr] */\n      0xffffffffffffffffffffffffffffffffffffffff\n      and\n      0xffffffffffffffffffffffffffffffffffffffff\n      and\n      dup2\n      mstore\n      0x20\n      add\n      swap1\n      dup2\n      mstore\n      0x20\n      add\n      0x00\n      keccak256\n        /* \"contracts/cropsFarmer.sol\":10100:10130  users[_adr].dailyCompoundBonus */\n      0x09\n      add\n      sload\n        /* \"contracts/cropsFarmer.sol\":10100:10134  users[_adr].dailyCompoundBonus.mul */\n      tag_440\n      swap1\n        /* \"contracts/cropsFarmer.sol\":10100:10150  users[_adr].dailyCompoundBonus.mul(COMPOUND_BONUS) */\n      swap2\n      swap1\n      0xffffffff\n      and\n      jump\t// in\n    tag_473:\n        /* \"contracts/cropsFarmer.sol\":10079:10150  uint256 totalBonus = users[_adr].dailyCompoundBonus.mul(COMPOUND_BONUS) */\n      swap1\n      pop\n        /* \"contracts/cropsFarmer.sol\":10165:10179  uint256 result */\n      0x00\n        /* \"contracts/cropsFarmer.sol\":10182:10226  amount.mul(totalBonus).div(PERCENTS_DIVIDER) */\n      tag_474\n        /* \"contracts/cropsFarmer.sol\":10209:10225  PERCENTS_DIVIDER */\n      sload(0x02)\n        /* \"contracts/cropsFarmer.sol\":10182:10204  amount.mul(totalBonus) */\n      tag_475\n        /* \"contracts/cropsFarmer.sol\":10193:10203  totalBonus */\n      dup5\n        /* \"contracts/cropsFarmer.sol\":10182:10188  amount */\n      dup8\n        /* \"contracts/cropsFarmer.sol\":10182:10192  amount.mul */\n      tag_440\n      swap1\n        /* \"contracts/cropsFarmer.sol\":10182:10204  amount.mul(totalBonus) */\n      swap2\n      swap1\n      0xffffffff\n      and\n      jump\t// in\n    tag_475:\n        /* \"contracts/cropsFarmer.sol\":10182:10208  amount.mul(totalBonus).div */\n      tag_429\n      swap1\n        /* \"contracts/cropsFarmer.sol\":10182:10226  amount.mul(totalBonus).div(PERCENTS_DIVIDER) */\n      swap2\n      swap1\n      0xffffffff\n      and\n      jump\t// in\n    tag_474:\n        /* \"contracts/cropsFarmer.sol\":10165:10226  uint256 result = amount.mul(totalBonus).div(PERCENTS_DIVIDER) */\n      swap1\n      pop\n        /* \"contracts/cropsFarmer.sol\":10247:10253  result */\n      dup1\n        /* \"contracts/cropsFarmer.sol\":10240:10253  return result */\n      swap3\n      pop\n      pop\n      pop\n        /* \"contracts/cropsFarmer.sol\":9887:10270  function getDailyCompoundBonus(address _adr, uint256 amount) public view returns(uint256){... */\n    tag_470:\n      swap3\n      swap2\n      pop\n      pop\n      jump\t// out\n        /* \"contracts/cropsFarmer.sol\":7623:9457  function hireFarmers(address ref) public payable{... */\n    tag_206:\n        /* \"contracts/cropsFarmer.sol\":7689:7704  contractStarted */\n      0x15\n      0x00\n      swap1\n      sload\n      swap1\n      0x0100\n      exp\n      swap1\n      div\n      0xff\n      and\n        /* \"contracts/cropsFarmer.sol\":7681:7734  require(contractStarted, \"Contract not yet Started.\") */\n      tag_477\n      jumpi\n      mload(0x40)\n      0x08c379a000000000000000000000000000000000000000000000000000000000\n      dup2\n      mstore\n      0x04\n      add\n      tag_478\n      swap1\n      tag_412\n      jump\t// in\n    tag_478:\n      mload(0x40)\n      dup1\n      swap2\n      sub\n      swap1\n      revert\n    tag_477:\n        /* \"contracts/cropsFarmer.sol\":7744:7761  User storage user */\n      0x00\n        /* \"contracts/cropsFarmer.sol\":7764:7769  users */\n      0x22\n        /* \"contracts/cropsFarmer.sol\":7764:7781  users[msg.sender] */\n      0x00\n        /* \"contracts/cropsFarmer.sol\":7770:7780  msg.sender */\n      caller\n        /* \"contracts/cropsFarmer.sol\":7764:7781  users[msg.sender] */\n      0xffffffffffffffffffffffffffffffffffffffff\n      and\n      0xffffffffffffffffffffffffffffffffffffffff\n      and\n      dup2\n      mstore\n      0x20\n      add\n      swap1\n      dup2\n      mstore\n      0x20\n      add\n      0x00\n      keccak256\n        /* \"contracts/cropsFarmer.sol\":7744:7781  User storage user = users[msg.sender] */\n      swap1\n      pop\n        /* \"contracts/cropsFarmer.sol\":7812:7828  MIN_INVEST_LIMIT */\n      sload(0x06)\n        /* \"contracts/cropsFarmer.sol\":7799:7808  msg.value */\n      callvalue\n        /* \"contracts/cropsFarmer.sol\":7799:7828  msg.value >= MIN_INVEST_LIMIT */\n      lt\n      iszero\n        /* \"contracts/cropsFarmer.sol\":7791:7860  require(msg.value >= MIN_INVEST_LIMIT, \"Mininum investment not met.\") */\n      tag_479\n      jumpi\n      mload(0x40)\n      0x08c379a000000000000000000000000000000000000000000000000000000000\n      dup2\n      mstore\n      0x04\n      add\n      tag_480\n      swap1\n      tag_481\n      jump\t// in\n    tag_480:\n      mload(0x40)\n      dup1\n      swap2\n      sub\n      swap1\n      revert\n    tag_479:\n        /* \"contracts/cropsFarmer.sol\":7916:7936  WALLET_DEPOSIT_LIMIT */\n      sload(0x07)\n        /* \"contracts/cropsFarmer.sol\":7878:7912  user.initialDeposit.add(msg.value) */\n      tag_482\n        /* \"contracts/cropsFarmer.sol\":7902:7911  msg.value */\n      callvalue\n        /* \"contracts/cropsFarmer.sol\":7878:7882  user */\n      dup4\n        /* \"contracts/cropsFarmer.sol\":7878:7897  user.initialDeposit */\n      0x00\n      add\n      sload\n        /* \"contracts/cropsFarmer.sol\":7878:7901  user.initialDeposit.add */\n      tag_417\n      swap1\n        /* \"contracts/cropsFarmer.sol\":7878:7912  user.initialDeposit.add(msg.value) */\n      swap2\n      swap1\n      0xffffffff\n      and\n      jump\t// in\n    tag_482:\n        /* \"contracts/cropsFarmer.sol\":7878:7936  user.initialDeposit.add(msg.value) <= WALLET_DEPOSIT_LIMIT */\n      gt\n      iszero\n        /* \"contracts/cropsFarmer.sol\":7870:7967  require(user.initialDeposit.add(msg.value) <= WALLET_DEPOSIT_LIMIT, \"Max deposit limit reached.\") */\n      tag_483\n      jumpi\n      mload(0x40)\n      0x08c379a000000000000000000000000000000000000000000000000000000000\n      dup2\n      mstore\n      0x04\n      add\n      tag_484\n      swap1\n      tag_485\n      jump\t// in\n    tag_484:\n      mload(0x40)\n      dup1\n      swap2\n      sub\n      swap1\n      revert\n    tag_483:\n        /* \"contracts/cropsFarmer.sol\":8001:8002  0 */\n      0x00\n        /* \"contracts/cropsFarmer.sol\":7980:7984  user */\n      dup2\n        /* \"contracts/cropsFarmer.sol\":7980:7999  user.initialDeposit */\n      0x00\n      add\n      sload\n        /* \"contracts/cropsFarmer.sol\":7980:8002  user.initialDeposit==0 */\n      eq\n        /* \"contracts/cropsFarmer.sol\":7977:8066  if(user.initialDeposit==0){... */\n      iszero\n      tag_486\n      jumpi\n        /* \"contracts/cropsFarmer.sol\":8045:8054  msg.value */\n      callvalue\n        /* \"contracts/cropsFarmer.sol\":8018:8030  firstDeposit */\n      0x17\n        /* \"contracts/cropsFarmer.sol\":8018:8042  firstDeposit[msg.sender] */\n      0x00\n        /* \"contracts/cropsFarmer.sol\":8031:8041  msg.sender */\n      caller\n        /* \"contracts/cropsFarmer.sol\":8018:8042  firstDeposit[msg.sender] */\n      0xffffffffffffffffffffffffffffffffffffffff\n      and\n      0xffffffffffffffffffffffffffffffffffffffff\n      and\n      dup2\n      mstore\n      0x20\n      add\n      swap1\n      dup2\n      mstore\n      0x20\n      add\n      0x00\n      keccak256\n        /* \"contracts/cropsFarmer.sol\":8018:8054  firstDeposit[msg.sender] = msg.value */\n      dup2\n      swap1\n      sstore\n      pop\n        /* \"contracts/cropsFarmer.sol\":7977:8066  if(user.initialDeposit==0){... */\n    tag_486:\n        /* \"contracts/cropsFarmer.sol\":8075:8093  uint256 eggsBought */\n      0x00\n        /* \"contracts/cropsFarmer.sol\":8096:8160  calculateEggBuy(msg.value, address(this).balance.sub(msg.value)) */\n      tag_487\n        /* \"contracts/cropsFarmer.sol\":8112:8121  msg.value */\n      callvalue\n        /* \"contracts/cropsFarmer.sol\":8123:8159  address(this).balance.sub(msg.value) */\n      tag_488\n        /* \"contracts/cropsFarmer.sol\":8149:8158  msg.value */\n      callvalue\n        /* \"contracts/cropsFarmer.sol\":8123:8144  address(this).balance */\n      selfbalance\n        /* \"contracts/cropsFarmer.sol\":8123:8148  address(this).balance.sub */\n      tag_422\n      swap1\n        /* \"contracts/cropsFarmer.sol\":8123:8159  address(this).balance.sub(msg.value) */\n      swap2\n      swap1\n      0xffffffff\n      and\n      jump\t// in\n    tag_488:\n        /* \"contracts/cropsFarmer.sol\":8096:8111  calculateEggBuy */\n      tag_150\n        /* \"contracts/cropsFarmer.sol\":8096:8160  calculateEggBuy(msg.value, address(this).balance.sub(msg.value)) */\n      jump\t// in\n    tag_487:\n        /* \"contracts/cropsFarmer.sol\":8075:8160  uint256 eggsBought = calculateEggBuy(msg.value, address(this).balance.sub(msg.value)) */\n      swap1\n      pop\n        /* \"contracts/cropsFarmer.sol\":8189:8220  user.userDeposit.add(msg.value) */\n      tag_489\n        /* \"contracts/cropsFarmer.sol\":8210:8219  msg.value */\n      callvalue\n        /* \"contracts/cropsFarmer.sol\":8189:8193  user */\n      dup4\n        /* \"contracts/cropsFarmer.sol\":8189:8205  user.userDeposit */\n      0x01\n      add\n      sload\n        /* \"contracts/cropsFarmer.sol\":8189:8209  user.userDeposit.add */\n      tag_417\n      swap1\n        /* \"contracts/cropsFarmer.sol\":8189:8220  user.userDeposit.add(msg.value) */\n      swap2\n      swap1\n      0xffffffff\n      and\n      jump\t// in\n    tag_489:\n        /* \"contracts/cropsFarmer.sol\":8170:8174  user */\n      dup3\n        /* \"contracts/cropsFarmer.sol\":8170:8186  user.userDeposit */\n      0x01\n      add\n        /* \"contracts/cropsFarmer.sol\":8170:8220  user.userDeposit = user.userDeposit.add(msg.value) */\n      dup2\n      swap1\n      sstore\n      pop\n        /* \"contracts/cropsFarmer.sol\":8252:8286  user.initialDeposit.add(msg.value) */\n      tag_490\n        /* \"contracts/cropsFarmer.sol\":8276:8285  msg.value */\n      callvalue\n        /* \"contracts/cropsFarmer.sol\":8252:8256  user */\n      dup4\n        /* \"contracts/cropsFarmer.sol\":8252:8271  user.initialDeposit */\n      0x00\n      add\n      sload\n        /* \"contracts/cropsFarmer.sol\":8252:8275  user.initialDeposit.add */\n      tag_417\n      swap1\n        /* \"contracts/cropsFarmer.sol\":8252:8286  user.initialDeposit.add(msg.value) */\n      swap2\n      swap1\n      0xffffffff\n      and\n      jump\t// in\n    tag_490:\n        /* \"contracts/cropsFarmer.sol\":8230:8234  user */\n      dup3\n        /* \"contracts/cropsFarmer.sol\":8230:8249  user.initialDeposit */\n      0x00\n      add\n        /* \"contracts/cropsFarmer.sol\":8230:8286  user.initialDeposit = user.initialDeposit.add(msg.value) */\n      dup2\n      swap1\n      sstore\n      pop\n        /* \"contracts/cropsFarmer.sol\":8315:8347  user.claimedEggs.add(eggsBought) */\n      tag_491\n        /* \"contracts/cropsFarmer.sol\":8336:8346  eggsBought */\n      dup2\n        /* \"contracts/cropsFarmer.sol\":8315:8319  user */\n      dup4\n        /* \"contracts/cropsFarmer.sol\":8315:8331  user.claimedEggs */\n      0x03\n      add\n      sload\n        /* \"contracts/cropsFarmer.sol\":8315:8335  user.claimedEggs.add */\n      tag_417\n      swap1\n        /* \"contracts/cropsFarmer.sol\":8315:8347  user.claimedEggs.add(eggsBought) */\n      swap2\n      swap1\n      0xffffffff\n      and\n      jump\t// in\n    tag_491:\n        /* \"contracts/cropsFarmer.sol\":8296:8300  user */\n      dup3\n        /* \"contracts/cropsFarmer.sol\":8296:8312  user.claimedEggs */\n      0x03\n      add\n        /* \"contracts/cropsFarmer.sol\":8296:8347  user.claimedEggs = user.claimedEggs.add(eggsBought) */\n      dup2\n      swap1\n      sstore\n      pop\n        /* \"contracts/cropsFarmer.sol\":8396:8397  0 */\n      0x00\n        /* \"contracts/cropsFarmer.sol\":8371:8398  user.referrer == address(0) */\n      0xffffffffffffffffffffffffffffffffffffffff\n      and\n        /* \"contracts/cropsFarmer.sol\":8371:8375  user */\n      dup3\n        /* \"contracts/cropsFarmer.sol\":8371:8384  user.referrer */\n      0x05\n      add\n      0x00\n      swap1\n      sload\n      swap1\n      0x0100\n      exp\n      swap1\n      div\n      0xffffffffffffffffffffffffffffffffffffffff\n      and\n        /* \"contracts/cropsFarmer.sol\":8371:8398  user.referrer == address(0) */\n      0xffffffffffffffffffffffffffffffffffffffff\n      and\n      eq\n        /* \"contracts/cropsFarmer.sol\":8367:8686  if (user.referrer == address(0)) {... */\n      iszero\n      tag_492\n      jumpi\n        /* \"contracts/cropsFarmer.sol\":8425:8435  msg.sender */\n      caller\n        /* \"contracts/cropsFarmer.sol\":8418:8435  ref != msg.sender */\n      0xffffffffffffffffffffffffffffffffffffffff\n      and\n        /* \"contracts/cropsFarmer.sol\":8418:8421  ref */\n      dup4\n        /* \"contracts/cropsFarmer.sol\":8418:8435  ref != msg.sender */\n      0xffffffffffffffffffffffffffffffffffffffff\n      and\n      eq\n        /* \"contracts/cropsFarmer.sol\":8414:8489  if (ref != msg.sender) {... */\n      tag_493\n      jumpi\n        /* \"contracts/cropsFarmer.sol\":8471:8474  ref */\n      dup3\n        /* \"contracts/cropsFarmer.sol\":8455:8459  user */\n      dup3\n        /* \"contracts/cropsFarmer.sol\":8455:8468  user.referrer */\n      0x05\n      add\n      0x00\n        /* \"contracts/cropsFarmer.sol\":8455:8474  user.referrer = ref */\n      0x0100\n      exp\n      dup2\n      sload\n      dup2\n      0xffffffffffffffffffffffffffffffffffffffff\n      mul\n      not\n      and\n      swap1\n      dup4\n      0xffffffffffffffffffffffffffffffffffffffff\n      and\n      mul\n      or\n      swap1\n      sstore\n      pop\n        /* \"contracts/cropsFarmer.sol\":8414:8489  if (ref != msg.sender) {... */\n    tag_493:\n        /* \"contracts/cropsFarmer.sol\":8503:8518  address upline1 */\n      0x00\n        /* \"contracts/cropsFarmer.sol\":8521:8525  user */\n      dup3\n        /* \"contracts/cropsFarmer.sol\":8521:8534  user.referrer */\n      0x05\n      add\n      0x00\n      swap1\n      sload\n      swap1\n      0x0100\n      exp\n      swap1\n      div\n      0xffffffffffffffffffffffffffffffffffffffff\n      and\n        /* \"contracts/cropsFarmer.sol\":8503:8534  address upline1 = user.referrer */\n      swap1\n      pop\n        /* \"contracts/cropsFarmer.sol\":8571:8572  0 */\n      0x00\n        /* \"contracts/cropsFarmer.sol\":8552:8573  upline1 != address(0) */\n      0xffffffffffffffffffffffffffffffffffffffff\n      and\n        /* \"contracts/cropsFarmer.sol\":8552:8559  upline1 */\n      dup2\n        /* \"contracts/cropsFarmer.sol\":8552:8573  upline1 != address(0) */\n      0xffffffffffffffffffffffffffffffffffffffff\n      and\n      eq\n        /* \"contracts/cropsFarmer.sol\":8548:8676  if (upline1 != address(0)) {... */\n      tag_494\n      jumpi\n        /* \"contracts/cropsFarmer.sol\":8625:8661  users[upline1].referralsCount.add(1) */\n      tag_495\n        /* \"contracts/cropsFarmer.sol\":8659:8660  1 */\n      0x01\n        /* \"contracts/cropsFarmer.sol\":8625:8630  users */\n      0x22\n        /* \"contracts/cropsFarmer.sol\":8625:8639  users[upline1] */\n      0x00\n        /* \"contracts/cropsFarmer.sol\":8631:8638  upline1 */\n      dup5\n        /* \"contracts/cropsFarmer.sol\":8625:8639  users[upline1] */\n      0xffffffffffffffffffffffffffffffffffffffff\n      and\n      0xffffffffffffffffffffffffffffffffffffffff\n      and\n      dup2\n      mstore\n      0x20\n      add\n      swap1\n      dup2\n      mstore\n      0x20\n      add\n      0x00\n      keccak256\n        /* \"contracts/cropsFarmer.sol\":8625:8654  users[upline1].referralsCount */\n      0x06\n      add\n      sload\n        /* \"contracts/cropsFarmer.sol\":8625:8658  users[upline1].referralsCount.add */\n      tag_417\n      swap1\n        /* \"contracts/cropsFarmer.sol\":8625:8661  users[upline1].referralsCount.add(1) */\n      swap2\n      swap1\n      0xffffffff\n      and\n      jump\t// in\n    tag_495:\n        /* \"contracts/cropsFarmer.sol\":8593:8598  users */\n      0x22\n        /* \"contracts/cropsFarmer.sol\":8593:8607  users[upline1] */\n      0x00\n        /* \"contracts/cropsFarmer.sol\":8599:8606  upline1 */\n      dup4\n        /* \"contracts/cropsFarmer.sol\":8593:8607  users[upline1] */\n      0xffffffffffffffffffffffffffffffffffffffff\n      and\n      0xffffffffffffffffffffffffffffffffffffffff\n      and\n      dup2\n      mstore\n      0x20\n      add\n      swap1\n      dup2\n      mstore\n      0x20\n      add\n      0x00\n      keccak256\n        /* \"contracts/cropsFarmer.sol\":8593:8622  users[upline1].referralsCount */\n      0x06\n      add\n        /* \"contracts/cropsFarmer.sol\":8593:8661  users[upline1].referralsCount = users[upline1].referralsCount.add(1) */\n      dup2\n      swap1\n      sstore\n      pop\n        /* \"contracts/cropsFarmer.sol\":8548:8676  if (upline1 != address(0)) {... */\n    tag_494:\n        /* \"contracts/cropsFarmer.sol\":8400:8686  {... */\n      pop\n        /* \"contracts/cropsFarmer.sol\":8367:8686  if (user.referrer == address(0)) {... */\n    tag_492:\n        /* \"contracts/cropsFarmer.sol\":8741:8742  0 */\n      0x00\n        /* \"contracts/cropsFarmer.sol\":8716:8743  user.referrer != address(0) */\n      0xffffffffffffffffffffffffffffffffffffffff\n      and\n        /* \"contracts/cropsFarmer.sol\":8716:8720  user */\n      dup3\n        /* \"contracts/cropsFarmer.sol\":8716:8729  user.referrer */\n      0x05\n      add\n      0x00\n      swap1\n      sload\n      swap1\n      0x0100\n      exp\n      swap1\n      div\n      0xffffffffffffffffffffffffffffffffffffffff\n      and\n        /* \"contracts/cropsFarmer.sol\":8716:8743  user.referrer != address(0) */\n      0xffffffffffffffffffffffffffffffffffffffff\n      and\n      eq\n        /* \"contracts/cropsFarmer.sol\":8712:9257  if (user.referrer != address(0)) {... */\n      tag_496\n      jumpi\n        /* \"contracts/cropsFarmer.sol\":8772:8815  sendRewardToReferrals(msg.sender,msg.value) */\n      tag_497\n        /* \"contracts/cropsFarmer.sol\":8794:8804  msg.sender */\n      caller\n        /* \"contracts/cropsFarmer.sol\":8805:8814  msg.value */\n      callvalue\n        /* \"contracts/cropsFarmer.sol\":8772:8793  sendRewardToReferrals */\n      tag_498\n        /* \"contracts/cropsFarmer.sol\":8772:8815  sendRewardToReferrals(msg.sender,msg.value) */\n      jump\t// in\n    tag_497:\n        /* \"contracts/cropsFarmer.sol\":8712:9257  if (user.referrer != address(0)) {... */\n    tag_496:\n        /* \"contracts/cropsFarmer.sol\":9267:9285  uint256 eggsPayout */\n      0x00\n        /* \"contracts/cropsFarmer.sol\":9288:9306  payFees(msg.value) */\n      tag_499\n        /* \"contracts/cropsFarmer.sol\":9296:9305  msg.value */\n      callvalue\n        /* \"contracts/cropsFarmer.sol\":9288:9295  payFees */\n      tag_500\n        /* \"contracts/cropsFarmer.sol\":9288:9306  payFees(msg.value) */\n      jump\t// in\n    tag_499:\n        /* \"contracts/cropsFarmer.sol\":9267:9306  uint256 eggsPayout = payFees(msg.value) */\n      swap1\n      pop\n        /* \"contracts/cropsFarmer.sol\":9330:9372  totalStaked.add(msg.value.sub(eggsPayout)) */\n      tag_501\n        /* \"contracts/cropsFarmer.sol\":9346:9371  msg.value.sub(eggsPayout) */\n      tag_502\n        /* \"contracts/cropsFarmer.sol\":9360:9370  eggsPayout */\n      dup3\n        /* \"contracts/cropsFarmer.sol\":9346:9355  msg.value */\n      callvalue\n        /* \"contracts/cropsFarmer.sol\":9346:9359  msg.value.sub */\n      tag_422\n      swap1\n        /* \"contracts/cropsFarmer.sol\":9346:9371  msg.value.sub(eggsPayout) */\n      swap2\n      swap1\n      0xffffffff\n      and\n      jump\t// in\n    tag_502:\n        /* \"contracts/cropsFarmer.sol\":9330:9341  totalStaked */\n      sload(0x0d)\n        /* \"contracts/cropsFarmer.sol\":9330:9345  totalStaked.add */\n      tag_417\n      swap1\n        /* \"contracts/cropsFarmer.sol\":9330:9372  totalStaked.add(msg.value.sub(eggsPayout)) */\n      swap2\n      swap1\n      0xffffffff\n      and\n      jump\t// in\n    tag_501:\n        /* \"contracts/cropsFarmer.sol\":9316:9327  totalStaked */\n      0x0d\n        /* \"contracts/cropsFarmer.sol\":9316:9372  totalStaked = totalStaked.add(msg.value.sub(eggsPayout)) */\n      dup2\n      swap1\n      sstore\n      pop\n        /* \"contracts/cropsFarmer.sol\":9398:9418  totalDeposits.add(1) */\n      tag_503\n        /* \"contracts/cropsFarmer.sol\":9416:9417  1 */\n      0x01\n        /* \"contracts/cropsFarmer.sol\":9398:9411  totalDeposits */\n      sload(0x0e)\n        /* \"contracts/cropsFarmer.sol\":9398:9415  totalDeposits.add */\n      tag_417\n      swap1\n        /* \"contracts/cropsFarmer.sol\":9398:9418  totalDeposits.add(1) */\n      swap2\n      swap1\n      0xffffffff\n      and\n      jump\t// in\n    tag_503:\n        /* \"contracts/cropsFarmer.sol\":9382:9395  totalDeposits */\n      0x0e\n        /* \"contracts/cropsFarmer.sol\":9382:9418  totalDeposits = totalDeposits.add(1) */\n      dup2\n      swap1\n      sstore\n      pop\n        /* \"contracts/cropsFarmer.sol\":9428:9450  hireMoreFarmers(false) */\n      tag_504\n        /* \"contracts/cropsFarmer.sol\":9444:9449  false */\n      0x00\n        /* \"contracts/cropsFarmer.sol\":9428:9443  hireMoreFarmers */\n      tag_120\n        /* \"contracts/cropsFarmer.sol\":9428:9450  hireMoreFarmers(false) */\n      jump\t// in\n    tag_504:\n        /* \"contracts/cropsFarmer.sol\":7671:9457  {... */\n      pop\n      pop\n      pop\n        /* \"contracts/cropsFarmer.sol\":7623:9457  function hireFarmers(address ref) public payable{... */\n      pop\n      jump\t// out\n        /* \"contracts/cropsFarmer.sol\":16068:16250  function PRC_REFERRAL(uint256 value) external {... */\n    tag_210:\n        /* \"contracts/cropsFarmer.sol\":16146:16151  owner */\n      0x1b\n      0x00\n      swap1\n      sload\n      swap1\n      0x0100\n      exp\n      swap1\n      div\n      0xffffffffffffffffffffffffffffffffffffffff\n      and\n        /* \"contracts/cropsFarmer.sol\":16132:16151  msg.sender == owner */\n      0xffffffffffffffffffffffffffffffffffffffff\n      and\n        /* \"contracts/cropsFarmer.sol\":16132:16142  msg.sender */\n      caller\n        /* \"contracts/cropsFarmer.sol\":16132:16151  msg.sender == owner */\n      0xffffffffffffffffffffffffffffffffffffffff\n      and\n      eq\n        /* \"contracts/cropsFarmer.sol\":16124:16171  require(msg.sender == owner, \"Admin use only.\") */\n      tag_506\n      jumpi\n      mload(0x40)\n      0x08c379a000000000000000000000000000000000000000000000000000000000\n      dup2\n      mstore\n      0x04\n      add\n      tag_507\n      swap1\n      tag_435\n      jump\t// in\n    tag_507:\n      mload(0x40)\n      dup1\n      swap2\n      sub\n      swap1\n      revert\n    tag_506:\n        /* \"contracts/cropsFarmer.sol\":16198:16200  10 */\n      0x0a\n        /* \"contracts/cropsFarmer.sol\":16189:16194  value */\n      dup2\n        /* \"contracts/cropsFarmer.sol\":16189:16200  value >= 10 */\n      lt\n      iszero\n        /* \"contracts/cropsFarmer.sol\":16189:16216  value >= 10 && value <= 100 */\n      dup1\n      iszero\n      tag_508\n      jumpi\n      pop\n        /* \"contracts/cropsFarmer.sol\":16213:16216  100 */\n      0x64\n        /* \"contracts/cropsFarmer.sol\":16204:16209  value */\n      dup2\n        /* \"contracts/cropsFarmer.sol\":16204:16216  value <= 100 */\n      gt\n      iszero\n        /* \"contracts/cropsFarmer.sol\":16189:16216  value >= 10 && value <= 100 */\n    tag_508:\n        /* \"contracts/cropsFarmer.sol\":16181:16217  require(value >= 10 && value <= 100) */\n      tag_509\n      jumpi\n      0x00\n      dup1\n      revert\n    tag_509:\n        /* \"contracts/cropsFarmer.sol\":16238:16243  value */\n      dup1\n        /* \"contracts/cropsFarmer.sol\":16227:16235  REFERRAL */\n      0x01\n        /* \"contracts/cropsFarmer.sol\":16227:16243  REFERRAL = value */\n      dup2\n      swap1\n      sstore\n      pop\n        /* \"contracts/cropsFarmer.sol\":16068:16250  function PRC_REFERRAL(uint256 value) external {... */\n      pop\n      jump\t// out\n        /* \"contracts/cropsFarmer.sol\":5210:6667  function sellCrops() public{... */\n    tag_213:\n        /* \"contracts/cropsFarmer.sol\":5255:5270  contractStarted */\n      0x15\n      0x00\n      swap1\n      sload\n      swap1\n      0x0100\n      exp\n      swap1\n      div\n      0xff\n      and\n        /* \"contracts/cropsFarmer.sol\":5247:5300  require(contractStarted, \"Contract not yet Started.\") */\n      tag_511\n      jumpi\n      mload(0x40)\n      0x08c379a000000000000000000000000000000000000000000000000000000000\n      dup2\n      mstore\n      0x04\n      add\n      tag_512\n      swap1\n      tag_412\n      jump\t// in\n    tag_512:\n      mload(0x40)\n      dup1\n      swap2\n      sub\n      swap1\n      revert\n    tag_511:\n        /* \"contracts/cropsFarmer.sol\":5315:5330  blacklistActive */\n      0x15\n      0x01\n      swap1\n      sload\n      swap1\n      0x0100\n      exp\n      swap1\n      div\n      0xff\n      and\n        /* \"contracts/cropsFarmer.sol\":5311:5417  if (blacklistActive) {... */\n      iszero\n      tag_513\n      jumpi\n        /* \"contracts/cropsFarmer.sol\":5355:5366  Blacklisted */\n      0x16\n        /* \"contracts/cropsFarmer.sol\":5355:5378  Blacklisted[msg.sender] */\n      0x00\n        /* \"contracts/cropsFarmer.sol\":5367:5377  msg.sender */\n      caller\n        /* \"contracts/cropsFarmer.sol\":5355:5378  Blacklisted[msg.sender] */\n      0xffffffffffffffffffffffffffffffffffffffff\n      and\n      0xffffffffffffffffffffffffffffffffffffffff\n      and\n      dup2\n      mstore\n      0x20\n      add\n      swap1\n      dup2\n      mstore\n      0x20\n      add\n      0x00\n      keccak256\n      0x00\n      swap1\n      sload\n      swap1\n      0x0100\n      exp\n      swap1\n      div\n      0xff\n      and\n        /* \"contracts/cropsFarmer.sol\":5354:5378  !Blacklisted[msg.sender] */\n      iszero\n        /* \"contracts/cropsFarmer.sol\":5346:5406  require(!Blacklisted[msg.sender], \"Address is blacklisted.\") */\n      tag_514\n      jumpi\n      mload(0x40)\n      0x08c379a000000000000000000000000000000000000000000000000000000000\n      dup2\n      mstore\n      0x04\n      add\n      tag_515\n      swap1\n      tag_516\n      jump\t// in\n    tag_515:\n      mload(0x40)\n      dup1\n      swap2\n      sub\n      swap1\n      revert\n    tag_514:\n        /* \"contracts/cropsFarmer.sol\":5311:5417  if (blacklistActive) {... */\n    tag_513:\n        /* \"contracts/cropsFarmer.sol\":5427:5444  User storage user */\n      0x00\n        /* \"contracts/cropsFarmer.sol\":5447:5452  users */\n      0x22\n        /* \"contracts/cropsFarmer.sol\":5447:5464  users[msg.sender] */\n      0x00\n        /* \"contracts/cropsFarmer.sol\":5453:5463  msg.sender */\n      caller\n        /* \"contracts/cropsFarmer.sol\":5447:5464  users[msg.sender] */\n      0xffffffffffffffffffffffffffffffffffffffff\n      and\n      0xffffffffffffffffffffffffffffffffffffffff\n      and\n      dup2\n      mstore\n      0x20\n      add\n      swap1\n      dup2\n      mstore\n      0x20\n      add\n      0x00\n      keccak256\n        /* \"contracts/cropsFarmer.sol\":5427:5464  User storage user = users[msg.sender] */\n      swap1\n      pop\n        /* \"contracts/cropsFarmer.sol\":5474:5489  uint256 hasEggs */\n      0x00\n        /* \"contracts/cropsFarmer.sol\":5492:5503  getMyEggs() */\n      tag_517\n        /* \"contracts/cropsFarmer.sol\":5492:5501  getMyEggs */\n      tag_179\n        /* \"contracts/cropsFarmer.sol\":5492:5503  getMyEggs() */\n      jump\t// in\n    tag_517:\n        /* \"contracts/cropsFarmer.sol\":5474:5503  uint256 hasEggs = getMyEggs() */\n      swap1\n      pop\n        /* \"contracts/cropsFarmer.sol\":5513:5529  uint256 eggValue */\n      0x00\n        /* \"contracts/cropsFarmer.sol\":5532:5557  calculateEggSell(hasEggs) */\n      tag_518\n        /* \"contracts/cropsFarmer.sol\":5549:5556  hasEggs */\n      dup3\n        /* \"contracts/cropsFarmer.sol\":5532:5548  calculateEggSell */\n      tag_294\n        /* \"contracts/cropsFarmer.sol\":5532:5557  calculateEggSell(hasEggs) */\n      jump\t// in\n    tag_518:\n        /* \"contracts/cropsFarmer.sol\":5513:5557  uint256 eggValue = calculateEggSell(hasEggs) */\n      swap1\n      pop\n        /* \"contracts/cropsFarmer.sol\":5679:5709  COMPOUND_FOR_NO_TAX_WITHDRAWAL */\n      sload(0x0c)\n        /* \"contracts/cropsFarmer.sol\":5653:5657  user */\n      dup4\n        /* \"contracts/cropsFarmer.sol\":5653:5676  user.dailyCompoundBonus */\n      0x09\n      add\n      sload\n        /* \"contracts/cropsFarmer.sol\":5653:5709  user.dailyCompoundBonus < COMPOUND_FOR_NO_TAX_WITHDRAWAL */\n      lt\n        /* \"contracts/cropsFarmer.sol\":5650:6118  if(user.dailyCompoundBonus < COMPOUND_FOR_NO_TAX_WITHDRAWAL){... */\n      iszero\n      tag_519\n      jumpi\n        /* \"contracts/cropsFarmer.sol\":5844:5908  eggValue.sub(eggValue.mul(WITHDRAWAL_TAX).div(PERCENTS_DIVIDER)) */\n      tag_520\n        /* \"contracts/cropsFarmer.sol\":5857:5907  eggValue.mul(WITHDRAWAL_TAX).div(PERCENTS_DIVIDER) */\n      tag_521\n        /* \"contracts/cropsFarmer.sol\":5890:5906  PERCENTS_DIVIDER */\n      sload(0x02)\n        /* \"contracts/cropsFarmer.sol\":5857:5885  eggValue.mul(WITHDRAWAL_TAX) */\n      tag_522\n        /* \"contracts/cropsFarmer.sol\":5870:5884  WITHDRAWAL_TAX */\n      sload(0x0b)\n        /* \"contracts/cropsFarmer.sol\":5857:5865  eggValue */\n      dup6\n        /* \"contracts/cropsFarmer.sol\":5857:5869  eggValue.mul */\n      tag_440\n      swap1\n        /* \"contracts/cropsFarmer.sol\":5857:5885  eggValue.mul(WITHDRAWAL_TAX) */\n      swap2\n      swap1\n      0xffffffff\n      and\n      jump\t// in\n    tag_522:\n        /* \"contracts/cropsFarmer.sol\":5857:5889  eggValue.mul(WITHDRAWAL_TAX).div */\n      tag_429\n      swap1\n        /* \"contracts/cropsFarmer.sol\":5857:5907  eggValue.mul(WITHDRAWAL_TAX).div(PERCENTS_DIVIDER) */\n      swap2\n      swap1\n      0xffffffff\n      and\n      jump\t// in\n    tag_521:\n        /* \"contracts/cropsFarmer.sol\":5844:5852  eggValue */\n      dup3\n        /* \"contracts/cropsFarmer.sol\":5844:5856  eggValue.sub */\n      tag_422\n      swap1\n        /* \"contracts/cropsFarmer.sol\":5844:5908  eggValue.sub(eggValue.mul(WITHDRAWAL_TAX).div(PERCENTS_DIVIDER)) */\n      swap2\n      swap1\n      0xffffffff\n      and\n      jump\t// in\n    tag_520:\n        /* \"contracts/cropsFarmer.sol\":5833:5908  eggValue = eggValue.sub(eggValue.mul(WITHDRAWAL_TAX).div(PERCENTS_DIVIDER)) */\n      swap1\n      pop\n        /* \"contracts/cropsFarmer.sol\":5650:6118  if(user.dailyCompoundBonus < COMPOUND_FOR_NO_TAX_WITHDRAWAL){... */\n      jump(tag_523)\n    tag_519:\n        /* \"contracts/cropsFarmer.sol\":6058:6059  0 */\n      0x00\n        /* \"contracts/cropsFarmer.sol\":6032:6036  user */\n      dup4\n        /* \"contracts/cropsFarmer.sol\":6032:6055  user.dailyCompoundBonus */\n      0x09\n      add\n        /* \"contracts/cropsFarmer.sol\":6032:6059  user.dailyCompoundBonus = 0 */\n      dup2\n      swap1\n      sstore\n      pop\n        /* \"contracts/cropsFarmer.sol\":6104:6105  0 */\n      0x00\n        /* \"contracts/cropsFarmer.sol\":6077:6081  user */\n      dup4\n        /* \"contracts/cropsFarmer.sol\":6077:6101  user.farmerCompoundCount */\n      0x0a\n      add\n        /* \"contracts/cropsFarmer.sol\":6077:6105  user.farmerCompoundCount = 0 */\n      dup2\n      swap1\n      sstore\n      pop\n        /* \"contracts/cropsFarmer.sol\":5650:6118  if(user.dailyCompoundBonus < COMPOUND_FOR_NO_TAX_WITHDRAWAL){... */\n    tag_523:\n        /* \"contracts/cropsFarmer.sol\":6160:6175  block.timestamp */\n      timestamp\n        /* \"contracts/cropsFarmer.sol\":6136:6140  user */\n      dup4\n        /* \"contracts/cropsFarmer.sol\":6136:6157  user.lastWithdrawTime */\n      0x0b\n      add\n        /* \"contracts/cropsFarmer.sol\":6136:6175  user.lastWithdrawTime = block.timestamp */\n      dup2\n      swap1\n      sstore\n      pop\n        /* \"contracts/cropsFarmer.sol\":6204:6205  0 */\n      0x00\n        /* \"contracts/cropsFarmer.sol\":6185:6189  user */\n      dup4\n        /* \"contracts/cropsFarmer.sol\":6185:6201  user.claimedEggs */\n      0x03\n      add\n        /* \"contracts/cropsFarmer.sol\":6185:6205  user.claimedEggs = 0 */\n      dup2\n      swap1\n      sstore\n      pop\n        /* \"contracts/cropsFarmer.sol\":6234:6249  block.timestamp */\n      timestamp\n        /* \"contracts/cropsFarmer.sol\":6217:6221  user */\n      dup4\n        /* \"contracts/cropsFarmer.sol\":6217:6231  user.lastHatch */\n      0x04\n      add\n        /* \"contracts/cropsFarmer.sol\":6217:6249  user.lastHatch = block.timestamp */\n      dup2\n      swap1\n      sstore\n      pop\n        /* \"contracts/cropsFarmer.sol\":6272:6320  marketEggs.add(hasEggs.div(MARKET_EGGS_DIVISOR)) */\n      tag_524\n        /* \"contracts/cropsFarmer.sol\":6287:6319  hasEggs.div(MARKET_EGGS_DIVISOR) */\n      tag_525\n        /* \"contracts/cropsFarmer.sol\":6299:6318  MARKET_EGGS_DIVISOR */\n      sload(0x05)\n        /* \"contracts/cropsFarmer.sol\":6287:6294  hasEggs */\n      dup5\n        /* \"contracts/cropsFarmer.sol\":6287:6298  hasEggs.div */\n      tag_429\n      swap1\n        /* \"contracts/cropsFarmer.sol\":6287:6319  hasEggs.div(MARKET_EGGS_DIVISOR) */\n      swap2\n      swap1\n      0xffffffff\n      and\n      jump\t// in\n    tag_525:\n        /* \"contracts/cropsFarmer.sol\":6272:6282  marketEggs */\n      sload(0x12)\n        /* \"contracts/cropsFarmer.sol\":6272:6286  marketEggs.add */\n      tag_417\n      swap1\n        /* \"contracts/cropsFarmer.sol\":6272:6320  marketEggs.add(hasEggs.div(MARKET_EGGS_DIVISOR)) */\n      swap2\n      swap1\n      0xffffffff\n      and\n      jump\t// in\n    tag_524:\n        /* \"contracts/cropsFarmer.sol\":6259:6269  marketEggs */\n      0x12\n        /* \"contracts/cropsFarmer.sol\":6259:6320  marketEggs = marketEggs.add(hasEggs.div(MARKET_EGGS_DIVISOR)) */\n      dup2\n      swap1\n      sstore\n      pop\n        /* \"contracts/cropsFarmer.sol\":6357:6365  eggValue */\n      dup1\n        /* \"contracts/cropsFarmer.sol\":6342:6354  getBalance() */\n      tag_526\n        /* \"contracts/cropsFarmer.sol\":6342:6352  getBalance */\n      tag_110\n        /* \"contracts/cropsFarmer.sol\":6342:6354  getBalance() */\n      jump\t// in\n    tag_526:\n        /* \"contracts/cropsFarmer.sol\":6342:6365  getBalance() < eggValue */\n      lt\n        /* \"contracts/cropsFarmer.sol\":6339:6415  if(getBalance() < eggValue) {... */\n      iszero\n      tag_527\n      jumpi\n        /* \"contracts/cropsFarmer.sol\":6392:6404  getBalance() */\n      tag_528\n        /* \"contracts/cropsFarmer.sol\":6392:6402  getBalance */\n      tag_110\n        /* \"contracts/cropsFarmer.sol\":6392:6404  getBalance() */\n      jump\t// in\n    tag_528:\n        /* \"contracts/cropsFarmer.sol\":6381:6404  eggValue = getBalance() */\n      swap1\n      pop\n        /* \"contracts/cropsFarmer.sol\":6339:6415  if(getBalance() < eggValue) {... */\n    tag_527:\n        /* \"contracts/cropsFarmer.sol\":6425:6443  uint256 eggsPayout */\n      0x00\n        /* \"contracts/cropsFarmer.sol\":6446:6477  eggValue.sub(payFees(eggValue)) */\n      tag_529\n        /* \"contracts/cropsFarmer.sol\":6459:6476  payFees(eggValue) */\n      tag_530\n        /* \"contracts/cropsFarmer.sol\":6467:6475  eggValue */\n      dup4\n        /* \"contracts/cropsFarmer.sol\":6459:6466  payFees */\n      tag_500\n        /* \"contracts/cropsFarmer.sol\":6459:6476  payFees(eggValue) */\n      jump\t// in\n    tag_530:\n        /* \"contracts/cropsFarmer.sol\":6446:6454  eggValue */\n      dup4\n        /* \"contracts/cropsFarmer.sol\":6446:6458  eggValue.sub */\n      tag_422\n      swap1\n        /* \"contracts/cropsFarmer.sol\":6446:6477  eggValue.sub(payFees(eggValue)) */\n      swap2\n      swap1\n      0xffffffff\n      and\n      jump\t// in\n    tag_529:\n        /* \"contracts/cropsFarmer.sol\":6425:6477  uint256 eggsPayout = eggValue.sub(payFees(eggValue)) */\n      swap1\n      pop\n        /* \"contracts/cropsFarmer.sol\":6503:6513  msg.sender */\n      caller\n        /* \"contracts/cropsFarmer.sol\":6487:6524  payable(address(msg.sender)).transfer */\n      0xffffffffffffffffffffffffffffffffffffffff\n      and\n        /* \"contracts/cropsFarmer.sol\":6487:6536  payable(address(msg.sender)).transfer(eggsPayout) */\n      0x08fc\n        /* \"contracts/cropsFarmer.sol\":6525:6535  eggsPayout */\n      dup3\n        /* \"contracts/cropsFarmer.sol\":6487:6536  payable(address(msg.sender)).transfer(eggsPayout) */\n      swap1\n      dup2\n      iszero\n      mul\n      swap1\n      mload(0x40)\n      0x00\n      mload(0x40)\n      dup1\n      dup4\n      sub\n      dup2\n      dup6\n      dup9\n      dup9\n      call\n      swap4\n      pop\n      pop\n      pop\n      pop\n      iszero\n      dup1\n      iszero\n      tag_532\n      jumpi\n      returndatasize\n      0x00\n      dup1\n      returndatacopy\n      revert(0x00, returndatasize)\n    tag_532:\n      pop\n        /* \"contracts/cropsFarmer.sol\":6568:6603  user.totalWithdrawn.add(eggsPayout) */\n      tag_533\n        /* \"contracts/cropsFarmer.sol\":6592:6602  eggsPayout */\n      dup2\n        /* \"contracts/cropsFarmer.sol\":6568:6572  user */\n      dup6\n        /* \"contracts/cropsFarmer.sol\":6568:6587  user.totalWithdrawn */\n      0x08\n      add\n      sload\n        /* \"contracts/cropsFarmer.sol\":6568:6591  user.totalWithdrawn.add */\n      tag_417\n      swap1\n        /* \"contracts/cropsFarmer.sol\":6568:6603  user.totalWithdrawn.add(eggsPayout) */\n      swap2\n      swap1\n      0xffffffff\n      and\n      jump\t// in\n    tag_533:\n        /* \"contracts/cropsFarmer.sol\":6546:6550  user */\n      dup5\n        /* \"contracts/cropsFarmer.sol\":6546:6565  user.totalWithdrawn */\n      0x08\n      add\n        /* \"contracts/cropsFarmer.sol\":6546:6603  user.totalWithdrawn = user.totalWithdrawn.add(eggsPayout) */\n      dup2\n      swap1\n      sstore\n      pop\n        /* \"contracts/cropsFarmer.sol\":6630:6660  totalWithdrawn.add(eggsPayout) */\n      tag_534\n        /* \"contracts/cropsFarmer.sol\":6649:6659  eggsPayout */\n      dup2\n        /* \"contracts/cropsFarmer.sol\":6630:6644  totalWithdrawn */\n      sload(0x11)\n        /* \"contracts/cropsFarmer.sol\":6630:6648  totalWithdrawn.add */\n      tag_417\n      swap1\n        /* \"contracts/cropsFarmer.sol\":6630:6660  totalWithdrawn.add(eggsPayout) */\n      swap2\n      swap1\n      0xffffffff\n      and\n      jump\t// in\n    tag_534:\n        /* \"contracts/cropsFarmer.sol\":6613:6627  totalWithdrawn */\n      0x11\n        /* \"contracts/cropsFarmer.sol\":6613:6660  totalWithdrawn = totalWithdrawn.add(eggsPayout) */\n      dup2\n      swap1\n      sstore\n      pop\n        /* \"contracts/cropsFarmer.sol\":5237:6667  {... */\n      pop\n      pop\n      pop\n      pop\n        /* \"contracts/cropsFarmer.sol\":5210:6667  function sellCrops() public{... */\n      jump\t// out\n        /* \"contracts/cropsFarmer.sol\":325:363  uint256 public MARKET_EGGS_DIVISOR = 2 */\n    tag_216:\n      sload(0x05)\n      dup2\n      jump\t// out\n        /* \"contracts/cropsFarmer.sol\":10276:11262  function getUserInfo(address _adr) public view returns(uint256 _initialDeposit, uint256 _userDeposit, uint256 _miners,... */\n    tag_221:\n        /* \"contracts/cropsFarmer.sol\":10331:10354  uint256 _initialDeposit */\n      0x00\n        /* \"contracts/cropsFarmer.sol\":10356:10376  uint256 _userDeposit */\n      dup1\n        /* \"contracts/cropsFarmer.sol\":10378:10393  uint256 _miners */\n      0x00\n        /* \"contracts/cropsFarmer.sol\":10400:10420  uint256 _claimedEggs */\n      dup1\n        /* \"contracts/cropsFarmer.sol\":10422:10440  uint256 _lastHatch */\n      0x00\n        /* \"contracts/cropsFarmer.sol\":10442:10459  address _referrer */\n      dup1\n        /* \"contracts/cropsFarmer.sol\":10461:10479  uint256 _referrals */\n      0x00\n        /* \"contracts/cropsFarmer.sol\":10483:10506  uint256 _totalWithdrawn */\n      dup1\n        /* \"contracts/cropsFarmer.sol\":10508:10535  uint256 _referralEggRewards */\n      0x00\n        /* \"contracts/cropsFarmer.sol\":10537:10564  uint256 _dailyCompoundBonus */\n      dup1\n        /* \"contracts/cropsFarmer.sol\":10566:10594  uint256 _farmerCompoundCount */\n      0x00\n        /* \"contracts/cropsFarmer.sol\":10596:10621  uint256 _lastWithdrawTime */\n      dup1\n        /* \"contracts/cropsFarmer.sol\":10652:10657  users */\n      0x22\n        /* \"contracts/cropsFarmer.sol\":10652:10663  users[_adr] */\n      0x00\n        /* \"contracts/cropsFarmer.sol\":10658:10662  _adr */\n      dup15\n        /* \"contracts/cropsFarmer.sol\":10652:10663  users[_adr] */\n      0xffffffffffffffffffffffffffffffffffffffff\n      and\n      0xffffffffffffffffffffffffffffffffffffffff\n      and\n      dup2\n      mstore\n      0x20\n      add\n      swap1\n      dup2\n      mstore\n      0x20\n      add\n      0x00\n      keccak256\n        /* \"contracts/cropsFarmer.sol\":10652:10678  users[_adr].initialDeposit */\n      0x00\n      add\n      sload\n        /* \"contracts/cropsFarmer.sol\":10634:10678  _initialDeposit = users[_adr].initialDeposit */\n      swap12\n      pop\n        /* \"contracts/cropsFarmer.sol\":10704:10709  users */\n      0x22\n        /* \"contracts/cropsFarmer.sol\":10704:10715  users[_adr] */\n      0x00\n        /* \"contracts/cropsFarmer.sol\":10710:10714  _adr */\n      dup15\n        /* \"contracts/cropsFarmer.sol\":10704:10715  users[_adr] */\n      0xffffffffffffffffffffffffffffffffffffffff\n      and\n      0xffffffffffffffffffffffffffffffffffffffff\n      and\n      dup2\n      mstore\n      0x20\n      add\n      swap1\n      dup2\n      mstore\n      0x20\n      add\n      0x00\n      keccak256\n        /* \"contracts/cropsFarmer.sol\":10704:10727  users[_adr].userDeposit */\n      0x01\n      add\n      sload\n        /* \"contracts/cropsFarmer.sol\":10689:10727  _userDeposit = users[_adr].userDeposit */\n      swap11\n      pop\n        /* \"contracts/cropsFarmer.sol\":10748:10753  users */\n      0x22\n        /* \"contracts/cropsFarmer.sol\":10748:10759  users[_adr] */\n      0x00\n        /* \"contracts/cropsFarmer.sol\":10754:10758  _adr */\n      dup15\n        /* \"contracts/cropsFarmer.sol\":10748:10759  users[_adr] */\n      0xffffffffffffffffffffffffffffffffffffffff\n      and\n      0xffffffffffffffffffffffffffffffffffffffff\n      and\n      dup2\n      mstore\n      0x20\n      add\n      swap1\n      dup2\n      mstore\n      0x20\n      add\n      0x00\n      keccak256\n        /* \"contracts/cropsFarmer.sol\":10748:10766  users[_adr].miners */\n      0x02\n      add\n      sload\n        /* \"contracts/cropsFarmer.sol\":10738:10766  _miners = users[_adr].miners */\n      swap10\n      pop\n        /* \"contracts/cropsFarmer.sol\":10792:10797  users */\n      0x22\n        /* \"contracts/cropsFarmer.sol\":10792:10803  users[_adr] */\n      0x00\n        /* \"contracts/cropsFarmer.sol\":10798:10802  _adr */\n      dup15\n        /* \"contracts/cropsFarmer.sol\":10792:10803  users[_adr] */\n      0xffffffffffffffffffffffffffffffffffffffff\n      and\n      0xffffffffffffffffffffffffffffffffffffffff\n      and\n      dup2\n      mstore\n      0x20\n      add\n      swap1\n      dup2\n      mstore\n      0x20\n      add\n      0x00\n      keccak256\n        /* \"contracts/cropsFarmer.sol\":10792:10815  users[_adr].claimedEggs */\n      0x03\n      add\n      sload\n        /* \"contracts/cropsFarmer.sol\":10777:10815  _claimedEggs = users[_adr].claimedEggs */\n      swap9\n      pop\n        /* \"contracts/cropsFarmer.sol\":10839:10844  users */\n      0x22\n        /* \"contracts/cropsFarmer.sol\":10839:10850  users[_adr] */\n      0x00\n        /* \"contracts/cropsFarmer.sol\":10845:10849  _adr */\n      dup15\n        /* \"contracts/cropsFarmer.sol\":10839:10850  users[_adr] */\n      0xffffffffffffffffffffffffffffffffffffffff\n      and\n      0xffffffffffffffffffffffffffffffffffffffff\n      and\n      dup2\n      mstore\n      0x20\n      add\n      swap1\n      dup2\n      mstore\n      0x20\n      add\n      0x00\n      keccak256\n        /* \"contracts/cropsFarmer.sol\":10839:10860  users[_adr].lastHatch */\n      0x04\n      add\n      sload\n        /* \"contracts/cropsFarmer.sol\":10826:10860  _lastHatch = users[_adr].lastHatch */\n      swap8\n      pop\n        /* \"contracts/cropsFarmer.sol\":10883:10888  users */\n      0x22\n        /* \"contracts/cropsFarmer.sol\":10883:10894  users[_adr] */\n      0x00\n        /* \"contracts/cropsFarmer.sol\":10889:10893  _adr */\n      dup15\n        /* \"contracts/cropsFarmer.sol\":10883:10894  users[_adr] */\n      0xffffffffffffffffffffffffffffffffffffffff\n      and\n      0xffffffffffffffffffffffffffffffffffffffff\n      and\n      dup2\n      mstore\n      0x20\n      add\n      swap1\n      dup2\n      mstore\n      0x20\n      add\n      0x00\n      keccak256\n        /* \"contracts/cropsFarmer.sol\":10883:10903  users[_adr].referrer */\n      0x05\n      add\n      0x00\n      swap1\n      sload\n      swap1\n      0x0100\n      exp\n      swap1\n      div\n      0xffffffffffffffffffffffffffffffffffffffff\n      and\n        /* \"contracts/cropsFarmer.sol\":10871:10903  _referrer = users[_adr].referrer */\n      swap7\n      pop\n        /* \"contracts/cropsFarmer.sol\":10927:10932  users */\n      0x22\n        /* \"contracts/cropsFarmer.sol\":10927:10938  users[_adr] */\n      0x00\n        /* \"contracts/cropsFarmer.sol\":10933:10937  _adr */\n      dup15\n        /* \"contracts/cropsFarmer.sol\":10927:10938  users[_adr] */\n      0xffffffffffffffffffffffffffffffffffffffff\n      and\n      0xffffffffffffffffffffffffffffffffffffffff\n      and\n      dup2\n      mstore\n      0x20\n      add\n      swap1\n      dup2\n      mstore\n      0x20\n      add\n      0x00\n      keccak256\n        /* \"contracts/cropsFarmer.sol\":10927:10953  users[_adr].referralsCount */\n      0x06\n      add\n      sload\n        /* \"contracts/cropsFarmer.sol\":10914:10953  _referrals = users[_adr].referralsCount */\n      swap6\n      pop\n        /* \"contracts/cropsFarmer.sol\":10982:10987  users */\n      0x22\n        /* \"contracts/cropsFarmer.sol\":10982:10993  users[_adr] */\n      0x00\n        /* \"contracts/cropsFarmer.sol\":10988:10992  _adr */\n      dup15\n        /* \"contracts/cropsFarmer.sol\":10982:10993  users[_adr] */\n      0xffffffffffffffffffffffffffffffffffffffff\n      and\n      0xffffffffffffffffffffffffffffffffffffffff\n      and\n      dup2\n      mstore\n      0x20\n      add\n      swap1\n      dup2\n      mstore\n      0x20\n      add\n      0x00\n      keccak256\n        /* \"contracts/cropsFarmer.sol\":10982:11008  users[_adr].totalWithdrawn */\n      0x08\n      add\n      sload\n        /* \"contracts/cropsFarmer.sol\":10964:11008  _totalWithdrawn = users[_adr].totalWithdrawn */\n      swap5\n      pop\n        /* \"contracts/cropsFarmer.sol\":11041:11046  users */\n      0x22\n        /* \"contracts/cropsFarmer.sol\":11041:11052  users[_adr] */\n      0x00\n        /* \"contracts/cropsFarmer.sol\":11047:11051  _adr */\n      dup15\n        /* \"contracts/cropsFarmer.sol\":11041:11052  users[_adr] */\n      0xffffffffffffffffffffffffffffffffffffffff\n      and\n      0xffffffffffffffffffffffffffffffffffffffff\n      and\n      dup2\n      mstore\n      0x20\n      add\n      swap1\n      dup2\n      mstore\n      0x20\n      add\n      0x00\n      keccak256\n        /* \"contracts/cropsFarmer.sol\":11041:11071  users[_adr].referralEggRewards */\n      0x07\n      add\n      sload\n        /* \"contracts/cropsFarmer.sol\":11019:11071  _referralEggRewards = users[_adr].referralEggRewards */\n      swap4\n      pop\n        /* \"contracts/cropsFarmer.sol\":11104:11109  users */\n      0x22\n        /* \"contracts/cropsFarmer.sol\":11104:11115  users[_adr] */\n      0x00\n        /* \"contracts/cropsFarmer.sol\":11110:11114  _adr */\n      dup15\n        /* \"contracts/cropsFarmer.sol\":11104:11115  users[_adr] */\n      0xffffffffffffffffffffffffffffffffffffffff\n      and\n      0xffffffffffffffffffffffffffffffffffffffff\n      and\n      dup2\n      mstore\n      0x20\n      add\n      swap1\n      dup2\n      mstore\n      0x20\n      add\n      0x00\n      keccak256\n        /* \"contracts/cropsFarmer.sol\":11104:11134  users[_adr].dailyCompoundBonus */\n      0x09\n      add\n      sload\n        /* \"contracts/cropsFarmer.sol\":11082:11134  _dailyCompoundBonus = users[_adr].dailyCompoundBonus */\n      swap3\n      pop\n        /* \"contracts/cropsFarmer.sol\":11168:11173  users */\n      0x22\n        /* \"contracts/cropsFarmer.sol\":11168:11179  users[_adr] */\n      0x00\n        /* \"contracts/cropsFarmer.sol\":11174:11178  _adr */\n      dup15\n        /* \"contracts/cropsFarmer.sol\":11168:11179  users[_adr] */\n      0xffffffffffffffffffffffffffffffffffffffff\n      and\n      0xffffffffffffffffffffffffffffffffffffffff\n      and\n      dup2\n      mstore\n      0x20\n      add\n      swap1\n      dup2\n      mstore\n      0x20\n      add\n      0x00\n      keccak256\n        /* \"contracts/cropsFarmer.sol\":11168:11199  users[_adr].farmerCompoundCount */\n      0x0a\n      add\n      sload\n        /* \"contracts/cropsFarmer.sol\":11145:11199  _farmerCompoundCount = users[_adr].farmerCompoundCount */\n      swap2\n      pop\n        /* \"contracts/cropsFarmer.sol\":11230:11235  users */\n      0x22\n        /* \"contracts/cropsFarmer.sol\":11230:11241  users[_adr] */\n      0x00\n        /* \"contracts/cropsFarmer.sol\":11236:11240  _adr */\n      dup15\n        /* \"contracts/cropsFarmer.sol\":11230:11241  users[_adr] */\n      0xffffffffffffffffffffffffffffffffffffffff\n      and\n      0xffffffffffffffffffffffffffffffffffffffff\n      and\n      dup2\n      mstore\n      0x20\n      add\n      swap1\n      dup2\n      mstore\n      0x20\n      add\n      0x00\n      keccak256\n        /* \"contracts/cropsFarmer.sol\":11230:11258  users[_adr].lastWithdrawTime */\n      0x0b\n      add\n      sload\n        /* \"contracts/cropsFarmer.sol\":11210:11258  _lastWithdrawTime = users[_adr].lastWithdrawTime */\n      swap1\n      pop\n        /* \"contracts/cropsFarmer.sol\":10276:11262  function getUserInfo(address _adr) public view returns(uint256 _initialDeposit, uint256 _userDeposit, uint256 _miners,... */\n      swap2\n      swap4\n      swap6\n      swap8\n      swap10\n      swap12\n      pop\n      swap2\n      swap4\n      swap6\n      swap8\n      swap10\n      swap12\n      jump\t// out\n        /* \"contracts/cropsFarmer.sol\":11468:11676  function getAvailableEarnings(address _adr) public view returns(uint256) {... */\n    tag_227:\n        /* \"contracts/cropsFarmer.sol\":11532:11539  uint256 */\n      0x00\n        /* \"contracts/cropsFarmer.sol\":11551:11567  uint256 userEggs */\n      dup1\n        /* \"contracts/cropsFarmer.sol\":11570:11626  users[_adr].claimedEggs.add(getEggsSinceLastHatch(_adr)) */\n      tag_537\n        /* \"contracts/cropsFarmer.sol\":11598:11625  getEggsSinceLastHatch(_adr) */\n      tag_538\n        /* \"contracts/cropsFarmer.sol\":11620:11624  _adr */\n      dup5\n        /* \"contracts/cropsFarmer.sol\":11598:11619  getEggsSinceLastHatch */\n      tag_371\n        /* \"contracts/cropsFarmer.sol\":11598:11625  getEggsSinceLastHatch(_adr) */\n      jump\t// in\n    tag_538:\n        /* \"contracts/cropsFarmer.sol\":11570:11575  users */\n      0x22\n        /* \"contracts/cropsFarmer.sol\":11570:11581  users[_adr] */\n      0x00\n        /* \"contracts/cropsFarmer.sol\":11576:11580  _adr */\n      dup7\n        /* \"contracts/cropsFarmer.sol\":11570:11581  users[_adr] */\n      0xffffffffffffffffffffffffffffffffffffffff\n      and\n      0xffffffffffffffffffffffffffffffffffffffff\n      and\n      dup2\n      mstore\n      0x20\n      add\n      swap1\n      dup2\n      mstore\n      0x20\n      add\n      0x00\n      keccak256\n        /* \"contracts/cropsFarmer.sol\":11570:11593  users[_adr].claimedEggs */\n      0x03\n      add\n      sload\n        /* \"contracts/cropsFarmer.sol\":11570:11597  users[_adr].claimedEggs.add */\n      tag_417\n      swap1\n        /* \"contracts/cropsFarmer.sol\":11570:11626  users[_adr].claimedEggs.add(getEggsSinceLastHatch(_adr)) */\n      swap2\n      swap1\n      0xffffffff\n      and\n      jump\t// in\n    tag_537:\n        /* \"contracts/cropsFarmer.sol\":11551:11626  uint256 userEggs = users[_adr].claimedEggs.add(getEggsSinceLastHatch(_adr)) */\n      swap1\n      pop\n        /* \"contracts/cropsFarmer.sol\":11643:11669  calculateEggSell(userEggs) */\n      tag_539\n        /* \"contracts/cropsFarmer.sol\":11660:11668  userEggs */\n      dup2\n        /* \"contracts/cropsFarmer.sol\":11643:11659  calculateEggSell */\n      tag_294\n        /* \"contracts/cropsFarmer.sol\":11643:11669  calculateEggSell(userEggs) */\n      jump\t// in\n    tag_539:\n        /* \"contracts/cropsFarmer.sol\":11636:11669  return calculateEggSell(userEggs) */\n      swap2\n      pop\n      pop\n        /* \"contracts/cropsFarmer.sol\":11468:11676  function getAvailableEarnings(address _adr) public view returns(uint256) {... */\n      swap2\n      swap1\n      pop\n      jump\t// out\n        /* \"contracts/cropsFarmer.sol\":268:290  uint256 public TAX = 9 */\n    tag_231:\n      sload(0x03)\n      dup2\n      jump\t// out\n        /* \"contracts/cropsFarmer.sol\":861:889  uint256 public totalRefBonus */\n    tag_235:\n      sload(0x10)\n      dup2\n      jump\t// out\n        /* \"contracts/cropsFarmer.sol\":16635:16831  function BONUS_DAILY_COMPOUND(uint256 value) external {... */\n    tag_240:\n        /* \"contracts/cropsFarmer.sol\":16721:16726  owner */\n      0x1b\n      0x00\n      swap1\n      sload\n      swap1\n      0x0100\n      exp\n      swap1\n      div\n      0xffffffffffffffffffffffffffffffffffffffff\n      and\n        /* \"contracts/cropsFarmer.sol\":16707:16726  msg.sender == owner */\n      0xffffffffffffffffffffffffffffffffffffffff\n      and\n        /* \"contracts/cropsFarmer.sol\":16707:16717  msg.sender */\n      caller\n        /* \"contracts/cropsFarmer.sol\":16707:16726  msg.sender == owner */\n      0xffffffffffffffffffffffffffffffffffffffff\n      and\n      eq\n        /* \"contracts/cropsFarmer.sol\":16699:16746  require(msg.sender == owner, \"Admin use only.\") */\n      tag_541\n      jumpi\n      mload(0x40)\n      0x08c379a000000000000000000000000000000000000000000000000000000000\n      dup2\n      mstore\n      0x04\n      add\n      tag_542\n      swap1\n      tag_435\n      jump\t// in\n    tag_542:\n      mload(0x40)\n      dup1\n      swap2\n      sub\n      swap1\n      revert\n    tag_541:\n        /* \"contracts/cropsFarmer.sol\":16773:16775  10 */\n      0x0a\n        /* \"contracts/cropsFarmer.sol\":16764:16769  value */\n      dup2\n        /* \"contracts/cropsFarmer.sol\":16764:16775  value >= 10 */\n      lt\n      iszero\n        /* \"contracts/cropsFarmer.sol\":16764:16791  value >= 10 && value <= 900 */\n      dup1\n      iszero\n      tag_543\n      jumpi\n      pop\n        /* \"contracts/cropsFarmer.sol\":16788:16791  900 */\n      0x0384\n        /* \"contracts/cropsFarmer.sol\":16779:16784  value */\n      dup2\n        /* \"contracts/cropsFarmer.sol\":16779:16791  value <= 900 */\n      gt\n      iszero\n        /* \"contracts/cropsFarmer.sol\":16764:16791  value >= 10 && value <= 900 */\n    tag_543:\n        /* \"contracts/cropsFarmer.sol\":16756:16792  require(value >= 10 && value <= 900) */\n      tag_544\n      jumpi\n      0x00\n      dup1\n      revert\n    tag_544:\n        /* \"contracts/cropsFarmer.sol\":16819:16824  value */\n      dup1\n        /* \"contracts/cropsFarmer.sol\":16802:16816  COMPOUND_BONUS */\n      0x08\n        /* \"contracts/cropsFarmer.sol\":16802:16824  COMPOUND_BONUS = value */\n      dup2\n      swap1\n      sstore\n      pop\n        /* \"contracts/cropsFarmer.sol\":16635:16831  function BONUS_DAILY_COMPOUND(uint256 value) external {... */\n      pop\n      jump\t// out\n        /* \"contracts/cropsFarmer.sol\":599:636  uint256 public COMPOUND_STEP = 5 * 60 */\n    tag_243:\n      sload(0x0a)\n      dup2\n      jump\t// out\n        /* \"contracts/cropsFarmer.sol\":16256:16444  function PRC_MARKET_EGGS_DIVISOR(uint256 value) external {... */\n    tag_248:\n        /* \"contracts/cropsFarmer.sol\":16345:16350  owner */\n      0x1b\n      0x00\n      swap1\n      sload\n      swap1\n      0x0100\n      exp\n      swap1\n      div\n      0xffffffffffffffffffffffffffffffffffffffff\n      and\n        /* \"contracts/cropsFarmer.sol\":16331:16350  msg.sender == owner */\n      0xffffffffffffffffffffffffffffffffffffffff\n      and\n        /* \"contracts/cropsFarmer.sol\":16331:16341  msg.sender */\n      caller\n        /* \"contracts/cropsFarmer.sol\":16331:16350  msg.sender == owner */\n      0xffffffffffffffffffffffffffffffffffffffff\n      and\n      eq\n        /* \"contracts/cropsFarmer.sol\":16323:16370  require(msg.sender == owner, \"Admin use only.\") */\n      tag_546\n      jumpi\n      mload(0x40)\n      0x08c379a000000000000000000000000000000000000000000000000000000000\n      dup2\n      mstore\n      0x04\n      add\n      tag_547\n      swap1\n      tag_435\n      jump\t// in\n    tag_547:\n      mload(0x40)\n      dup1\n      swap2\n      sub\n      swap1\n      revert\n    tag_546:\n        /* \"contracts/cropsFarmer.sol\":16397:16399  50 */\n      0x32\n        /* \"contracts/cropsFarmer.sol\":16388:16393  value */\n      dup2\n        /* \"contracts/cropsFarmer.sol\":16388:16399  value <= 50 */\n      gt\n      iszero\n        /* \"contracts/cropsFarmer.sol\":16380:16400  require(value <= 50) */\n      tag_548\n      jumpi\n      0x00\n      dup1\n      revert\n    tag_548:\n        /* \"contracts/cropsFarmer.sol\":16432:16437  value */\n      dup1\n        /* \"contracts/cropsFarmer.sol\":16410:16429  MARKET_EGGS_DIVISOR */\n      0x05\n        /* \"contracts/cropsFarmer.sol\":16410:16437  MARKET_EGGS_DIVISOR = value */\n      dup2\n      swap1\n      sstore\n      pop\n        /* \"contracts/cropsFarmer.sol\":16256:16444  function PRC_MARKET_EGGS_DIVISOR(uint256 value) external {... */\n      pop\n      jump\t// out\n        /* \"contracts/cropsFarmer.sol\":17394:17545  function SET_CUTOFF_STEP(uint256 value) external {... */\n    tag_252:\n        /* \"contracts/cropsFarmer.sol\":17475:17480  owner */\n      0x1b\n      0x00\n      swap1\n      sload\n      swap1\n      0x0100\n      exp\n      swap1\n      div\n      0xffffffffffffffffffffffffffffffffffffffff\n      and\n        /* \"contracts/cropsFarmer.sol\":17461:17480  msg.sender == owner */\n      0xffffffffffffffffffffffffffffffffffffffff\n      and\n        /* \"contracts/cropsFarmer.sol\":17461:17471  msg.sender */\n      caller\n        /* \"contracts/cropsFarmer.sol\":17461:17480  msg.sender == owner */\n      0xffffffffffffffffffffffffffffffffffffffff\n      and\n      eq\n        /* \"contracts/cropsFarmer.sol\":17453:17499  require(msg.sender == owner, \"Admin use only\") */\n      tag_550\n      jumpi\n      mload(0x40)\n      0x08c379a000000000000000000000000000000000000000000000000000000000\n      dup2\n      mstore\n      0x04\n      add\n      tag_551\n      swap1\n      tag_461\n      jump\t// in\n    tag_551:\n      mload(0x40)\n      dup1\n      swap2\n      sub\n      swap1\n      revert\n    tag_550:\n        /* \"contracts/cropsFarmer.sol\":17536:17538  60 */\n      0x3c\n        /* \"contracts/cropsFarmer.sol\":17531:17533  60 */\n      dup1\n        /* \"contracts/cropsFarmer.sol\":17523:17528  value */\n      dup3\n        /* \"contracts/cropsFarmer.sol\":17523:17533  value * 60 */\n      tag_552\n      swap2\n      swap1\n      tag_464\n      jump\t// in\n    tag_552:\n        /* \"contracts/cropsFarmer.sol\":17523:17538  value * 60 * 60 */\n      tag_553\n      swap2\n      swap1\n      tag_464\n      jump\t// in\n    tag_553:\n        /* \"contracts/cropsFarmer.sol\":17509:17520  CUTOFF_STEP */\n      0x19\n        /* \"contracts/cropsFarmer.sol\":17509:17538  CUTOFF_STEP = value * 60 * 60 */\n      dup2\n      swap1\n      sstore\n      pop\n        /* \"contracts/cropsFarmer.sol\":17394:17545  function SET_CUTOFF_STEP(uint256 value) external {... */\n      pop\n      jump\t// out\n        /* \"contracts/cropsFarmer.sol\":1549:1575  address payable public mkt */\n    tag_255:\n      0x21\n      0x00\n      swap1\n      sload\n      swap1\n      0x0100\n      exp\n      swap1\n      div\n      0xffffffffffffffffffffffffffffffffffffffff\n      and\n      dup2\n      jump\t// out\n        /* \"contracts/cropsFarmer.sol\":793:821  uint256 public totalDeposits */\n    tag_259:\n      sload(0x0e)\n      dup2\n      jump\t// out\n        /* \"contracts/cropsFarmer.sol\":827:855  uint256 public totalCompound */\n    tag_263:\n      sload(0x0f)\n      dup2\n      jump\t// out\n        /* \"contracts/cropsFarmer.sol\":12448:12578  function calculateEggBuySimple(uint256 eth) public view returns(uint256){... */\n    tag_268:\n        /* \"contracts/cropsFarmer.sol\":12512:12519  uint256 */\n      0x00\n        /* \"contracts/cropsFarmer.sol\":12537:12571  calculateEggBuy(eth, getBalance()) */\n      tag_555\n        /* \"contracts/cropsFarmer.sol\":12553:12556  eth */\n      dup3\n        /* \"contracts/cropsFarmer.sol\":12558:12570  getBalance() */\n      tag_556\n        /* \"contracts/cropsFarmer.sol\":12558:12568  getBalance */\n      tag_110\n        /* \"contracts/cropsFarmer.sol\":12558:12570  getBalance() */\n      jump\t// in\n    tag_556:\n        /* \"contracts/cropsFarmer.sol\":12537:12552  calculateEggBuy */\n      tag_150\n        /* \"contracts/cropsFarmer.sol\":12537:12571  calculateEggBuy(eth, getBalance()) */\n      jump\t// in\n    tag_555:\n        /* \"contracts/cropsFarmer.sol\":12530:12571  return calculateEggBuy(eth, getBalance()) */\n      swap1\n      pop\n        /* \"contracts/cropsFarmer.sol\":12448:12578  function calculateEggBuySimple(uint256 eth) public view returns(uint256){... */\n      swap2\n      swap1\n      pop\n      jump\t// out\n        /* \"contracts/cropsFarmer.sol\":17750:17949  function SET_WALLET_DEPOSIT_LIMIT(uint256 value) external {... */\n    tag_273:\n        /* \"contracts/cropsFarmer.sol\":17840:17845  owner */\n      0x1b\n      0x00\n      swap1\n      sload\n      swap1\n      0x0100\n      exp\n      swap1\n      div\n      0xffffffffffffffffffffffffffffffffffffffff\n      and\n        /* \"contracts/cropsFarmer.sol\":17826:17845  msg.sender == owner */\n      0xffffffffffffffffffffffffffffffffffffffff\n      and\n        /* \"contracts/cropsFarmer.sol\":17826:17836  msg.sender */\n      caller\n        /* \"contracts/cropsFarmer.sol\":17826:17845  msg.sender == owner */\n      0xffffffffffffffffffffffffffffffffffffffff\n      and\n      eq\n        /* \"contracts/cropsFarmer.sol\":17818:17864  require(msg.sender == owner, \"Admin use only\") */\n      tag_558\n      jumpi\n      mload(0x40)\n      0x08c379a000000000000000000000000000000000000000000000000000000000\n      dup2\n      mstore\n      0x04\n      add\n      tag_559\n      swap1\n      tag_461\n      jump\t// in\n    tag_559:\n      mload(0x40)\n      dup1\n      swap2\n      sub\n      swap1\n      revert\n    tag_558:\n        /* \"contracts/cropsFarmer.sol\":17891:17893  10 */\n      0x0a\n        /* \"contracts/cropsFarmer.sol\":17882:17887  value */\n      dup2\n        /* \"contracts/cropsFarmer.sol\":17882:17893  value >= 10 */\n      lt\n      iszero\n        /* \"contracts/cropsFarmer.sol\":17874:17894  require(value >= 10) */\n      tag_560\n      jumpi\n      0x00\n      dup1\n      revert\n    tag_560:\n        /* \"contracts/cropsFarmer.sol\":17935:17942  1 ether */\n      0x0de0b6b3a7640000\n        /* \"contracts/cropsFarmer.sol\":17927:17932  value */\n      dup2\n        /* \"contracts/cropsFarmer.sol\":17927:17942  value * 1 ether */\n      tag_561\n      swap2\n      swap1\n      tag_464\n      jump\t// in\n    tag_561:\n        /* \"contracts/cropsFarmer.sol\":17904:17924  WALLET_DEPOSIT_LIMIT */\n      0x07\n        /* \"contracts/cropsFarmer.sol\":17904:17942  WALLET_DEPOSIT_LIMIT = value * 1 ether */\n      dup2\n      swap1\n      sstore\n      pop\n        /* \"contracts/cropsFarmer.sol\":17750:17949  function SET_WALLET_DEPOSIT_LIMIT(uint256 value) external {... */\n      pop\n      jump\t// out\n        /* \"contracts/cropsFarmer.sol\":1413:1440  address payable public dev2 */\n    tag_276:\n      0x1d\n      0x00\n      swap1\n      sload\n      swap1\n      0x0100\n      exp\n      swap1\n      div\n      0xffffffffffffffffffffffffffffffffffffffff\n      and\n      dup2\n      jump\t// out\n        /* \"contracts/cropsFarmer.sol\":761:787  uint256 public totalStaked */\n    tag_280:\n      sload(0x0d)\n      dup2\n      jump\t// out\n        /* \"contracts/cropsFarmer.sol\":1514:1543  address payable public prtnr2 */\n    tag_284:\n      0x20\n      0x00\n      swap1\n      sload\n      swap1\n      0x0100\n      exp\n      swap1\n      div\n      0xffffffffffffffffffffffffffffffffffffffff\n      and\n      dup2\n      jump\t// out\n        /* \"contracts/cropsFarmer.sol\":1354:1374  address public owner */\n    tag_288:\n      0x1b\n      0x00\n      swap1\n      sload\n      swap1\n      0x0100\n      exp\n      swap1\n      div\n      0xffffffffffffffffffffffffffffffffffffffff\n      and\n      dup2\n      jump\t// out\n        /* \"contracts/cropsFarmer.sol\":12136:12274  function calculateEggSell(uint256 eggs) public view returns(uint256){... */\n    tag_294:\n        /* \"contracts/cropsFarmer.sol\":12196:12203  uint256 */\n      0x00\n        /* \"contracts/cropsFarmer.sol\":12221:12267  calculateTrade(eggs, marketEggs, getBalance()) */\n      tag_563\n        /* \"contracts/cropsFarmer.sol\":12236:12240  eggs */\n      dup3\n        /* \"contracts/cropsFarmer.sol\":12242:12252  marketEggs */\n      sload(0x12)\n        /* \"contracts/cropsFarmer.sol\":12254:12266  getBalance() */\n      tag_564\n        /* \"contracts/cropsFarmer.sol\":12254:12264  getBalance */\n      tag_110\n        /* \"contracts/cropsFarmer.sol\":12254:12266  getBalance() */\n      jump\t// in\n    tag_564:\n        /* \"contracts/cropsFarmer.sol\":12221:12235  calculateTrade */\n      tag_140\n        /* \"contracts/cropsFarmer.sol\":12221:12267  calculateTrade(eggs, marketEggs, getBalance()) */\n      jump\t// in\n    tag_563:\n        /* \"contracts/cropsFarmer.sol\":12214:12267  return calculateTrade(eggs, marketEggs, getBalance()) */\n      swap1\n      pop\n        /* \"contracts/cropsFarmer.sol\":12136:12274  function calculateEggSell(uint256 eggs) public view returns(uint256){... */\n      swap2\n      swap1\n      pop\n      jump\t// out\n        /* \"contracts/cropsFarmer.sol\":1281:1327  uint256 public WITHDRAW_COOLDOWN = 4 * 60 * 60 */\n    tag_298:\n      sload(0x1a)\n      dup2\n      jump\t// out\n        /* \"contracts/cropsFarmer.sol\":17049:17237  function BONUS_COMPOUND_STEP(uint256 value) external {... */\n    tag_303:\n        /* \"contracts/cropsFarmer.sol\":17134:17139  owner */\n      0x1b\n      0x00\n      swap1\n      sload\n      swap1\n      0x0100\n      exp\n      swap1\n      div\n      0xffffffffffffffffffffffffffffffffffffffff\n      and\n        /* \"contracts/cropsFarmer.sol\":17120:17139  msg.sender == owner */\n      0xffffffffffffffffffffffffffffffffffffffff\n      and\n        /* \"contracts/cropsFarmer.sol\":17120:17130  msg.sender */\n      caller\n        /* \"contracts/cropsFarmer.sol\":17120:17139  msg.sender == owner */\n      0xffffffffffffffffffffffffffffffffffffffff\n      and\n      eq\n        /* \"contracts/cropsFarmer.sol\":17112:17159  require(msg.sender == owner, \"Admin use only.\") */\n      tag_566\n      jumpi\n      mload(0x40)\n      0x08c379a000000000000000000000000000000000000000000000000000000000\n      dup2\n      mstore\n      0x04\n      add\n      tag_567\n      swap1\n      tag_435\n      jump\t// in\n    tag_567:\n      mload(0x40)\n      dup1\n      swap2\n      sub\n      swap1\n      revert\n    tag_566:\n        /* \"contracts/cropsFarmer.sol\":17186:17188  24 */\n      0x18\n        /* \"contracts/cropsFarmer.sol\":17177:17182  value */\n      dup2\n        /* \"contracts/cropsFarmer.sol\":17177:17188  value <= 24 */\n      gt\n      iszero\n        /* \"contracts/cropsFarmer.sol\":17169:17189  require(value <= 24) */\n      tag_568\n      jumpi\n      0x00\n      dup1\n      revert\n    tag_568:\n        /* \"contracts/cropsFarmer.sol\":17228:17230  60 */\n      0x3c\n        /* \"contracts/cropsFarmer.sol\":17223:17225  60 */\n      dup1\n        /* \"contracts/cropsFarmer.sol\":17215:17220  value */\n      dup3\n        /* \"contracts/cropsFarmer.sol\":17215:17225  value * 60 */\n      tag_569\n      swap2\n      swap1\n      tag_464\n      jump\t// in\n    tag_569:\n        /* \"contracts/cropsFarmer.sol\":17215:17230  value * 60 * 60 */\n      tag_570\n      swap2\n      swap1\n      tag_464\n      jump\t// in\n    tag_570:\n        /* \"contracts/cropsFarmer.sol\":17199:17212  COMPOUND_STEP */\n      0x0a\n        /* \"contracts/cropsFarmer.sol\":17199:17230  COMPOUND_STEP = value * 60 * 60 */\n      dup2\n      swap1\n      sstore\n      pop\n        /* \"contracts/cropsFarmer.sol\":17049:17237  function BONUS_COMPOUND_STEP(uint256 value) external {... */\n      pop\n      jump\t// out\n        /* \"contracts/cropsFarmer.sol\":16837:17043  function BONUS_DAILY_COMPOUND_BONUS_MAX_TIMES(uint256 value) external {... */\n    tag_307:\n        /* \"contracts/cropsFarmer.sol\":16939:16944  owner */\n      0x1b\n      0x00\n      swap1\n      sload\n      swap1\n      0x0100\n      exp\n      swap1\n      div\n      0xffffffffffffffffffffffffffffffffffffffff\n      and\n        /* \"contracts/cropsFarmer.sol\":16925:16944  msg.sender == owner */\n      0xffffffffffffffffffffffffffffffffffffffff\n      and\n        /* \"contracts/cropsFarmer.sol\":16925:16935  msg.sender */\n      caller\n        /* \"contracts/cropsFarmer.sol\":16925:16944  msg.sender == owner */\n      0xffffffffffffffffffffffffffffffffffffffff\n      and\n      eq\n        /* \"contracts/cropsFarmer.sol\":16917:16964  require(msg.sender == owner, \"Admin use only.\") */\n      tag_572\n      jumpi\n      mload(0x40)\n      0x08c379a000000000000000000000000000000000000000000000000000000000\n      dup2\n      mstore\n      0x04\n      add\n      tag_573\n      swap1\n      tag_435\n      jump\t// in\n    tag_573:\n      mload(0x40)\n      dup1\n      swap2\n      sub\n      swap1\n      revert\n    tag_572:\n        /* \"contracts/cropsFarmer.sol\":16991:16993  30 */\n      0x1e\n        /* \"contracts/cropsFarmer.sol\":16982:16987  value */\n      dup2\n        /* \"contracts/cropsFarmer.sol\":16982:16993  value <= 30 */\n      gt\n      iszero\n        /* \"contracts/cropsFarmer.sol\":16974:16994  require(value <= 30) */\n      tag_574\n      jumpi\n      0x00\n      dup1\n      revert\n    tag_574:\n        /* \"contracts/cropsFarmer.sol\":17031:17036  value */\n      dup1\n        /* \"contracts/cropsFarmer.sol\":17004:17028  COMPOUND_BONUS_MAX_TIMES */\n      0x09\n        /* \"contracts/cropsFarmer.sol\":17004:17036  COMPOUND_BONUS_MAX_TIMES = value */\n      dup2\n      swap1\n      sstore\n      pop\n        /* \"contracts/cropsFarmer.sol\":16837:17043  function BONUS_DAILY_COMPOUND_BONUS_MAX_TIMES(uint256 value) external {... */\n      pop\n      jump\t// out\n        /* \"contracts/cropsFarmer.sol\":2730:2879  function setblacklistActive(bool isActive) public{... */\n    tag_311:\n        /* \"contracts/cropsFarmer.sol\":2811:2816  owner */\n      0x1b\n      0x00\n      swap1\n      sload\n      swap1\n      0x0100\n      exp\n      swap1\n      div\n      0xffffffffffffffffffffffffffffffffffffffff\n      and\n        /* \"contracts/cropsFarmer.sol\":2797:2816  msg.sender == owner */\n      0xffffffffffffffffffffffffffffffffffffffff\n      and\n        /* \"contracts/cropsFarmer.sol\":2797:2807  msg.sender */\n      caller\n        /* \"contracts/cropsFarmer.sol\":2797:2816  msg.sender == owner */\n      0xffffffffffffffffffffffffffffffffffffffff\n      and\n      eq\n        /* \"contracts/cropsFarmer.sol\":2789:2836  require(msg.sender == owner, \"Admin use only.\") */\n      tag_576\n      jumpi\n      mload(0x40)\n      0x08c379a000000000000000000000000000000000000000000000000000000000\n      dup2\n      mstore\n      0x04\n      add\n      tag_577\n      swap1\n      tag_435\n      jump\t// in\n    tag_577:\n      mload(0x40)\n      dup1\n      swap2\n      sub\n      swap1\n      revert\n    tag_576:\n        /* \"contracts/cropsFarmer.sol\":2864:2872  isActive */\n      dup1\n        /* \"contracts/cropsFarmer.sol\":2846:2861  blacklistActive */\n      0x15\n      0x01\n        /* \"contracts/cropsFarmer.sol\":2846:2872  blacklistActive = isActive */\n      0x0100\n      exp\n      dup2\n      sload\n      dup2\n      0xff\n      mul\n      not\n      and\n      swap1\n      dup4\n      iszero\n      iszero\n      mul\n      or\n      swap1\n      sstore\n      pop\n        /* \"contracts/cropsFarmer.sol\":2730:2879  function setblacklistActive(bool isActive) public{... */\n      pop\n      jump\t// out\n        /* \"contracts/cropsFarmer.sol\":1380:1407  address payable public dev1 */\n    tag_314:\n      0x1c\n      0x00\n      swap1\n      sload\n      swap1\n      0x0100\n      exp\n      swap1\n      div\n      0xffffffffffffffffffffffffffffffffffffffff\n      and\n      dup2\n      jump\t// out\n        /* \"contracts/cropsFarmer.sol\":2041:2078  mapping(address => User) public users */\n    tag_319:\n      mstore(0x20, 0x22)\n      dup1\n      0x00\n      mstore\n      keccak256(0x00, 0x40)\n      0x00\n      swap2\n      pop\n      swap1\n      pop\n      dup1\n      0x00\n      add\n      sload\n      swap1\n      dup1\n      0x01\n      add\n      sload\n      swap1\n      dup1\n      0x02\n      add\n      sload\n      swap1\n      dup1\n      0x03\n      add\n      sload\n      swap1\n      dup1\n      0x04\n      add\n      sload\n      swap1\n      dup1\n      0x05\n      add\n      0x00\n      swap1\n      sload\n      swap1\n      0x0100\n      exp\n      swap1\n      div\n      0xffffffffffffffffffffffffffffffffffffffff\n      and\n      swap1\n      dup1\n      0x06\n      add\n      sload\n      swap1\n      dup1\n      0x07\n      add\n      sload\n      swap1\n      dup1\n      0x08\n      add\n      sload\n      swap1\n      dup1\n      0x09\n      add\n      sload\n      swap1\n      dup1\n      0x0a\n      add\n      sload\n      swap1\n      dup1\n      0x0b\n      add\n      sload\n      swap1\n      pop\n      dup13\n      jump\t// out\n        /* \"contracts/cropsFarmer.sol\":1134:1178  mapping(address => uint) public firstDeposit */\n    tag_324:\n      mstore(0x20, 0x17)\n      dup1\n      0x00\n      mstore\n      keccak256(0x00, 0x40)\n      0x00\n      swap2\n      pop\n      swap1\n      pop\n      sload\n      dup2\n      jump\t// out\n        /* \"contracts/cropsFarmer.sol\":1045:1079  bool public blacklistActive = true */\n    tag_328:\n      0x15\n      0x01\n      swap1\n      sload\n      swap1\n      0x0100\n      exp\n      swap1\n      div\n      0xff\n      and\n      dup2\n      jump\t// out\n        /* \"contracts/cropsFarmer.sol\":3901:3944  function fundContract() external payable {} */\n    tag_331:\n      jump\t// out\n        /* \"contracts/cropsFarmer.sol\":12668:13101  function getEggsYield(uint256 amount) public view returns(uint256,uint256) {... */\n    tag_335:\n        /* \"contracts/cropsFarmer.sol\":12726:12733  uint256 */\n      0x00\n        /* \"contracts/cropsFarmer.sol\":12734:12741  uint256 */\n      dup1\n        /* \"contracts/cropsFarmer.sol\":12753:12771  uint256 eggsAmount */\n      0x00\n        /* \"contracts/cropsFarmer.sol\":12774:12836  calculateEggBuy(amount , getBalance().add(amount).sub(amount)) */\n      tag_580\n        /* \"contracts/cropsFarmer.sol\":12790:12796  amount */\n      dup5\n        /* \"contracts/cropsFarmer.sol\":12799:12835  getBalance().add(amount).sub(amount) */\n      tag_581\n        /* \"contracts/cropsFarmer.sol\":12828:12834  amount */\n      dup7\n        /* \"contracts/cropsFarmer.sol\":12799:12823  getBalance().add(amount) */\n      tag_582\n        /* \"contracts/cropsFarmer.sol\":12816:12822  amount */\n      dup9\n        /* \"contracts/cropsFarmer.sol\":12799:12811  getBalance() */\n      tag_583\n        /* \"contracts/cropsFarmer.sol\":12799:12809  getBalance */\n      tag_110\n        /* \"contracts/cropsFarmer.sol\":12799:12811  getBalance() */\n      jump\t// in\n    tag_583:\n        /* \"contracts/cropsFarmer.sol\":12799:12815  getBalance().add */\n      tag_417\n      swap1\n        /* \"contracts/cropsFarmer.sol\":12799:12823  getBalance().add(amount) */\n      swap2\n      swap1\n      0xffffffff\n      and\n      jump\t// in\n    tag_582:\n        /* \"contracts/cropsFarmer.sol\":12799:12827  getBalance().add(amount).sub */\n      tag_422\n      swap1\n        /* \"contracts/cropsFarmer.sol\":12799:12835  getBalance().add(amount).sub(amount) */\n      swap2\n      swap1\n      0xffffffff\n      and\n      jump\t// in\n    tag_581:\n        /* \"contracts/cropsFarmer.sol\":12774:12789  calculateEggBuy */\n      tag_150\n        /* \"contracts/cropsFarmer.sol\":12774:12836  calculateEggBuy(amount , getBalance().add(amount).sub(amount)) */\n      jump\t// in\n    tag_580:\n        /* \"contracts/cropsFarmer.sol\":12753:12836  uint256 eggsAmount = calculateEggBuy(amount , getBalance().add(amount).sub(amount)) */\n      swap1\n      pop\n        /* \"contracts/cropsFarmer.sol\":12846:12860  uint256 miners */\n      0x00\n        /* \"contracts/cropsFarmer.sol\":12863:12899  eggsAmount.div(EGGS_TO_HIRE_1MINERS) */\n      tag_584\n        /* \"contracts/cropsFarmer.sol\":12878:12898  EGGS_TO_HIRE_1MINERS */\n      sload(0x00)\n        /* \"contracts/cropsFarmer.sol\":12863:12873  eggsAmount */\n      dup4\n        /* \"contracts/cropsFarmer.sol\":12863:12877  eggsAmount.div */\n      tag_429\n      swap1\n        /* \"contracts/cropsFarmer.sol\":12863:12899  eggsAmount.div(EGGS_TO_HIRE_1MINERS) */\n      swap2\n      swap1\n      0xffffffff\n      and\n      jump\t// in\n    tag_584:\n        /* \"contracts/cropsFarmer.sol\":12846:12899  uint256 miners = eggsAmount.div(EGGS_TO_HIRE_1MINERS) */\n      swap1\n      pop\n        /* \"contracts/cropsFarmer.sol\":12909:12920  uint256 day */\n      0x00\n        /* \"contracts/cropsFarmer.sol\":12923:12929  1 days */\n      0x015180\n        /* \"contracts/cropsFarmer.sol\":12909:12929  uint256 day = 1 days */\n      swap1\n      pop\n        /* \"contracts/cropsFarmer.sol\":12939:12957  uint256 eggsPerDay */\n      0x00\n        /* \"contracts/cropsFarmer.sol\":12960:12975  day.mul(miners) */\n      tag_585\n        /* \"contracts/cropsFarmer.sol\":12968:12974  miners */\n      dup4\n        /* \"contracts/cropsFarmer.sol\":12960:12963  day */\n      dup4\n        /* \"contracts/cropsFarmer.sol\":12960:12967  day.mul */\n      tag_440\n      swap1\n        /* \"contracts/cropsFarmer.sol\":12960:12975  day.mul(miners) */\n      swap2\n      swap1\n      0xffffffff\n      and\n      jump\t// in\n    tag_585:\n        /* \"contracts/cropsFarmer.sol\":12939:12975  uint256 eggsPerDay = day.mul(miners) */\n      swap1\n      pop\n        /* \"contracts/cropsFarmer.sol\":12985:13007  uint256 earningsPerDay */\n      0x00\n        /* \"contracts/cropsFarmer.sol\":13010:13054  calculateEggSellForYield(eggsPerDay, amount) */\n      tag_586\n        /* \"contracts/cropsFarmer.sol\":13035:13045  eggsPerDay */\n      dup3\n        /* \"contracts/cropsFarmer.sol\":13047:13053  amount */\n      dup10\n        /* \"contracts/cropsFarmer.sol\":13010:13034  calculateEggSellForYield */\n      tag_358\n        /* \"contracts/cropsFarmer.sol\":13010:13054  calculateEggSellForYield(eggsPerDay, amount) */\n      jump\t// in\n    tag_586:\n        /* \"contracts/cropsFarmer.sol\":12985:13054  uint256 earningsPerDay = calculateEggSellForYield(eggsPerDay, amount) */\n      swap1\n      pop\n        /* \"contracts/cropsFarmer.sol\":13071:13077  miners */\n      dup4\n        /* \"contracts/cropsFarmer.sol\":13079:13093  earningsPerDay */\n      dup2\n        /* \"contracts/cropsFarmer.sol\":13064:13094  return(miners, earningsPerDay) */\n      swap7\n      pop\n      swap7\n      pop\n      pop\n      pop\n      pop\n      pop\n      pop\n        /* \"contracts/cropsFarmer.sol\":12668:13101  function getEggsYield(uint256 amount) public view returns(uint256,uint256) {... */\n      swap2\n      pop\n      swap2\n      jump\t// out\n        /* \"contracts/cropsFarmer.sol\":16450:16629  function SET_WITHDRAWAL_TAX(uint256 value) external {... */\n    tag_341:\n        /* \"contracts/cropsFarmer.sol\":16534:16539  owner */\n      0x1b\n      0x00\n      swap1\n      sload\n      swap1\n      0x0100\n      exp\n      swap1\n      div\n      0xffffffffffffffffffffffffffffffffffffffff\n      and\n        /* \"contracts/cropsFarmer.sol\":16520:16539  msg.sender == owner */\n      0xffffffffffffffffffffffffffffffffffffffff\n      and\n        /* \"contracts/cropsFarmer.sol\":16520:16530  msg.sender */\n      caller\n        /* \"contracts/cropsFarmer.sol\":16520:16539  msg.sender == owner */\n      0xffffffffffffffffffffffffffffffffffffffff\n      and\n      eq\n        /* \"contracts/cropsFarmer.sol\":16512:16559  require(msg.sender == owner, \"Admin use only.\") */\n      tag_588\n      jumpi\n      mload(0x40)\n      0x08c379a000000000000000000000000000000000000000000000000000000000\n      dup2\n      mstore\n      0x04\n      add\n      tag_589\n      swap1\n      tag_435\n      jump\t// in\n    tag_589:\n      mload(0x40)\n      dup1\n      swap2\n      sub\n      swap1\n      revert\n    tag_588:\n        /* \"contracts/cropsFarmer.sol\":16586:16589  900 */\n      0x0384\n        /* \"contracts/cropsFarmer.sol\":16577:16582  value */\n      dup2\n        /* \"contracts/cropsFarmer.sol\":16577:16589  value <= 900 */\n      gt\n      iszero\n        /* \"contracts/cropsFarmer.sol\":16569:16590  require(value <= 900) */\n      tag_590\n      jumpi\n      0x00\n      dup1\n      revert\n    tag_590:\n        /* \"contracts/cropsFarmer.sol\":16617:16622  value */\n      dup1\n        /* \"contracts/cropsFarmer.sol\":16600:16614  WITHDRAWAL_TAX */\n      0x0b\n        /* \"contracts/cropsFarmer.sol\":16600:16622  WITHDRAWAL_TAX = value */\n      dup2\n      swap1\n      sstore\n      pop\n        /* \"contracts/cropsFarmer.sol\":16450:16629  function SET_WITHDRAWAL_TAX(uint256 value) external {... */\n      pop\n      jump\t// out\n        /* \"contracts/cropsFarmer.sol\":3335:3523  function checkIfBlacklisted(address Wallet) public view returns(bool blacklisted){... */\n    tag_345:\n        /* \"contracts/cropsFarmer.sol\":3399:3415  bool blacklisted */\n      0x00\n        /* \"contracts/cropsFarmer.sol\":3448:3453  owner */\n      0x1b\n      0x00\n      swap1\n      sload\n      swap1\n      0x0100\n      exp\n      swap1\n      div\n      0xffffffffffffffffffffffffffffffffffffffff\n      and\n        /* \"contracts/cropsFarmer.sol\":3434:3453  msg.sender == owner */\n      0xffffffffffffffffffffffffffffffffffffffff\n      and\n        /* \"contracts/cropsFarmer.sol\":3434:3444  msg.sender */\n      caller\n        /* \"contracts/cropsFarmer.sol\":3434:3453  msg.sender == owner */\n      0xffffffffffffffffffffffffffffffffffffffff\n      and\n      eq\n        /* \"contracts/cropsFarmer.sol\":3426:3473  require(msg.sender == owner, \"Admin use only.\") */\n      tag_592\n      jumpi\n      mload(0x40)\n      0x08c379a000000000000000000000000000000000000000000000000000000000\n      dup2\n      mstore\n      0x04\n      add\n      tag_593\n      swap1\n      tag_435\n      jump\t// in\n    tag_593:\n      mload(0x40)\n      dup1\n      swap2\n      sub\n      swap1\n      revert\n    tag_592:\n        /* \"contracts/cropsFarmer.sol\":3497:3508  Blacklisted */\n      0x16\n        /* \"contracts/cropsFarmer.sol\":3497:3516  Blacklisted[Wallet] */\n      0x00\n        /* \"contracts/cropsFarmer.sol\":3509:3515  Wallet */\n      dup4\n        /* \"contracts/cropsFarmer.sol\":3497:3516  Blacklisted[Wallet] */\n      0xffffffffffffffffffffffffffffffffffffffff\n      and\n      0xffffffffffffffffffffffffffffffffffffffff\n      and\n      dup2\n      mstore\n      0x20\n      add\n      swap1\n      dup2\n      mstore\n      0x20\n      add\n      0x00\n      keccak256\n      0x00\n      swap1\n      sload\n      swap1\n      0x0100\n      exp\n      swap1\n      div\n      0xff\n      and\n        /* \"contracts/cropsFarmer.sol\":3483:3516  blacklisted = Blacklisted[Wallet] */\n      swap1\n      pop\n        /* \"contracts/cropsFarmer.sol\":3335:3523  function checkIfBlacklisted(address Wallet) public view returns(bool blacklisted){... */\n      swap2\n      swap1\n      pop\n      jump\t// out\n        /* \"contracts/cropsFarmer.sol\":190:218  uint256 public REFERRAL = 70 */\n    tag_349:\n      sload(0x01)\n      dup2\n      jump\t// out\n        /* \"contracts/cropsFarmer.sol\":549:593  uint256 public COMPOUND_BONUS_MAX_TIMES = 10 */\n    tag_353:\n      sload(0x09)\n      dup2\n      jump\t// out\n        /* \"contracts/cropsFarmer.sol\":13107:13279  function calculateEggSellForYield(uint256 eggs,uint256 amount) public view returns(uint256){... */\n    tag_358:\n        /* \"contracts/cropsFarmer.sol\":13190:13197  uint256 */\n      0x00\n        /* \"contracts/cropsFarmer.sol\":13215:13272  calculateTrade(eggs,marketEggs, getBalance().add(amount)) */\n      tag_595\n        /* \"contracts/cropsFarmer.sol\":13230:13234  eggs */\n      dup4\n        /* \"contracts/cropsFarmer.sol\":13235:13245  marketEggs */\n      sload(0x12)\n        /* \"contracts/cropsFarmer.sol\":13247:13271  getBalance().add(amount) */\n      tag_596\n        /* \"contracts/cropsFarmer.sol\":13264:13270  amount */\n      dup6\n        /* \"contracts/cropsFarmer.sol\":13247:13259  getBalance() */\n      tag_597\n        /* \"contracts/cropsFarmer.sol\":13247:13257  getBalance */\n      tag_110\n        /* \"contracts/cropsFarmer.sol\":13247:13259  getBalance() */\n      jump\t// in\n    tag_597:\n        /* \"contracts/cropsFarmer.sol\":13247:13263  getBalance().add */\n      tag_417\n      swap1\n        /* \"contracts/cropsFarmer.sol\":13247:13271  getBalance().add(amount) */\n      swap2\n      swap1\n      0xffffffff\n      and\n      jump\t// in\n    tag_596:\n        /* \"contracts/cropsFarmer.sol\":13215:13229  calculateTrade */\n      tag_140\n        /* \"contracts/cropsFarmer.sol\":13215:13272  calculateTrade(eggs,marketEggs, getBalance().add(amount)) */\n      jump\t// in\n    tag_595:\n        /* \"contracts/cropsFarmer.sol\":13208:13272  return calculateTrade(eggs,marketEggs, getBalance().add(amount)) */\n      swap1\n      pop\n        /* \"contracts/cropsFarmer.sol\":13107:13279  function calculateEggSellForYield(uint256 eggs,uint256 amount) public view returns(uint256){... */\n      swap3\n      swap2\n      pop\n      pop\n      jump\t// out\n        /* \"contracts/cropsFarmer.sol\":370:421  uint256 public MIN_INVEST_LIMIT = 30000000000000000 */\n    tag_362:\n      sload(0x06)\n      dup2\n      jump\t// out\n        /* \"contracts/cropsFarmer.sol\":512:546  uint256 public COMPOUND_BONUS = 20 */\n    tag_366:\n      sload(0x08)\n      dup2\n      jump\t// out\n        /* \"contracts/cropsFarmer.sol\":13763:14169  function getEggsSinceLastHatch(address adr) public view returns(uint256){... */\n    tag_371:\n        /* \"contracts/cropsFarmer.sol\":13827:13834  uint256 */\n      0x00\n        /* \"contracts/cropsFarmer.sol\":13845:13874  uint256 secondsSinceLastHatch */\n      dup1\n        /* \"contracts/cropsFarmer.sol\":13877:13918  block.timestamp.sub(users[adr].lastHatch) */\n      tag_599\n        /* \"contracts/cropsFarmer.sol\":13897:13902  users */\n      0x22\n        /* \"contracts/cropsFarmer.sol\":13897:13907  users[adr] */\n      0x00\n        /* \"contracts/cropsFarmer.sol\":13903:13906  adr */\n      dup6\n        /* \"contracts/cropsFarmer.sol\":13897:13907  users[adr] */\n      0xffffffffffffffffffffffffffffffffffffffff\n      and\n      0xffffffffffffffffffffffffffffffffffffffff\n      and\n      dup2\n      mstore\n      0x20\n      add\n      swap1\n      dup2\n      mstore\n      0x20\n      add\n      0x00\n      keccak256\n        /* \"contracts/cropsFarmer.sol\":13897:13917  users[adr].lastHatch */\n      0x04\n      add\n      sload\n        /* \"contracts/cropsFarmer.sol\":13877:13892  block.timestamp */\n      timestamp\n        /* \"contracts/cropsFarmer.sol\":13877:13896  block.timestamp.sub */\n      tag_422\n      swap1\n        /* \"contracts/cropsFarmer.sol\":13877:13918  block.timestamp.sub(users[adr].lastHatch) */\n      swap2\n      swap1\n      0xffffffff\n      and\n      jump\t// in\n    tag_599:\n        /* \"contracts/cropsFarmer.sol\":13845:13918  uint256 secondsSinceLastHatch = block.timestamp.sub(users[adr].lastHatch) */\n      swap1\n      pop\n        /* \"contracts/cropsFarmer.sol\":13978:13996  uint256 cutoffTime */\n      0x00\n        /* \"contracts/cropsFarmer.sol\":13999:14038  min(secondsSinceLastHatch, CUTOFF_STEP) */\n      tag_600\n        /* \"contracts/cropsFarmer.sol\":14003:14024  secondsSinceLastHatch */\n      dup3\n        /* \"contracts/cropsFarmer.sol\":14026:14037  CUTOFF_STEP */\n      sload(0x19)\n        /* \"contracts/cropsFarmer.sol\":13999:14002  min */\n      tag_601\n        /* \"contracts/cropsFarmer.sol\":13999:14038  min(secondsSinceLastHatch, CUTOFF_STEP) */\n      jump\t// in\n    tag_600:\n        /* \"contracts/cropsFarmer.sol\":13978:14038  uint256 cutoffTime = min(secondsSinceLastHatch, CUTOFF_STEP) */\n      swap1\n      pop\n        /* \"contracts/cropsFarmer.sol\":14048:14069  uint256 secondsPassed */\n      0x00\n        /* \"contracts/cropsFarmer.sol\":14072:14109  min(EGGS_TO_HIRE_1MINERS, cutoffTime) */\n      tag_602\n        /* \"contracts/cropsFarmer.sol\":14076:14096  EGGS_TO_HIRE_1MINERS */\n      sload(0x00)\n        /* \"contracts/cropsFarmer.sol\":14098:14108  cutoffTime */\n      dup4\n        /* \"contracts/cropsFarmer.sol\":14072:14075  min */\n      tag_601\n        /* \"contracts/cropsFarmer.sol\":14072:14109  min(EGGS_TO_HIRE_1MINERS, cutoffTime) */\n      jump\t// in\n    tag_602:\n        /* \"contracts/cropsFarmer.sol\":14048:14109  uint256 secondsPassed = min(EGGS_TO_HIRE_1MINERS, cutoffTime) */\n      swap1\n      pop\n        /* \"contracts/cropsFarmer.sol\":14126:14162  secondsPassed.mul(users[adr].miners) */\n      tag_603\n        /* \"contracts/cropsFarmer.sol\":14144:14149  users */\n      0x22\n        /* \"contracts/cropsFarmer.sol\":14144:14154  users[adr] */\n      0x00\n        /* \"contracts/cropsFarmer.sol\":14150:14153  adr */\n      dup8\n        /* \"contracts/cropsFarmer.sol\":14144:14154  users[adr] */\n      0xffffffffffffffffffffffffffffffffffffffff\n      and\n      0xffffffffffffffffffffffffffffffffffffffff\n      and\n      dup2\n      mstore\n      0x20\n      add\n      swap1\n      dup2\n      mstore\n      0x20\n      add\n      0x00\n      keccak256\n        /* \"contracts/cropsFarmer.sol\":14144:14161  users[adr].miners */\n      0x02\n      add\n      sload\n        /* \"contracts/cropsFarmer.sol\":14126:14139  secondsPassed */\n      dup3\n        /* \"contracts/cropsFarmer.sol\":14126:14143  secondsPassed.mul */\n      tag_440\n      swap1\n        /* \"contracts/cropsFarmer.sol\":14126:14162  secondsPassed.mul(users[adr].miners) */\n      swap2\n      swap1\n      0xffffffff\n      and\n      jump\t// in\n    tag_603:\n        /* \"contracts/cropsFarmer.sol\":14119:14162  return secondsPassed.mul(users[adr].miners) */\n      swap4\n      pop\n      pop\n      pop\n      pop\n        /* \"contracts/cropsFarmer.sol\":13763:14169  function getEggsSinceLastHatch(address adr) public view returns(uint256){... */\n      swap2\n      swap1\n      pop\n      jump\t// out\n        /* \"contracts/cropsFarmer.sol\":2885:3061  function blackListWallet(address Wallet, bool isBlacklisted) public{... */\n    tag_377:\n        /* \"contracts/cropsFarmer.sol\":2984:2989  owner */\n      0x1b\n      0x00\n      swap1\n      sload\n      swap1\n      0x0100\n      exp\n      swap1\n      div\n      0xffffffffffffffffffffffffffffffffffffffff\n      and\n        /* \"contracts/cropsFarmer.sol\":2970:2989  msg.sender == owner */\n      0xffffffffffffffffffffffffffffffffffffffff\n      and\n        /* \"contracts/cropsFarmer.sol\":2970:2980  msg.sender */\n      caller\n        /* \"contracts/cropsFarmer.sol\":2970:2989  msg.sender == owner */\n      0xffffffffffffffffffffffffffffffffffffffff\n      and\n      eq\n        /* \"contracts/cropsFarmer.sol\":2962:3009  require(msg.sender == owner, \"Admin use only.\") */\n      tag_605\n      jumpi\n      mload(0x40)\n      0x08c379a000000000000000000000000000000000000000000000000000000000\n      dup2\n      mstore\n      0x04\n      add\n      tag_606\n      swap1\n      tag_435\n      jump\t// in\n    tag_606:\n      mload(0x40)\n      dup1\n      swap2\n      sub\n      swap1\n      revert\n    tag_605:\n        /* \"contracts/cropsFarmer.sol\":3041:3054  isBlacklisted */\n      dup1\n        /* \"contracts/cropsFarmer.sol\":3019:3030  Blacklisted */\n      0x16\n        /* \"contracts/cropsFarmer.sol\":3019:3038  Blacklisted[Wallet] */\n      0x00\n        /* \"contracts/cropsFarmer.sol\":3031:3037  Wallet */\n      dup5\n        /* \"contracts/cropsFarmer.sol\":3019:3038  Blacklisted[Wallet] */\n      0xffffffffffffffffffffffffffffffffffffffff\n      and\n      0xffffffffffffffffffffffffffffffffffffffff\n      and\n      dup2\n      mstore\n      0x20\n      add\n      swap1\n      dup2\n      mstore\n      0x20\n      add\n      0x00\n      keccak256\n      0x00\n        /* \"contracts/cropsFarmer.sol\":3019:3054  Blacklisted[Wallet] = isBlacklisted */\n      0x0100\n      exp\n      dup2\n      sload\n      dup2\n      0xff\n      mul\n      not\n      and\n      swap1\n      dup4\n      iszero\n      iszero\n      mul\n      or\n      swap1\n      sstore\n      pop\n        /* \"contracts/cropsFarmer.sol\":2885:3061  function blackListWallet(address Wallet, bool isBlacklisted) public{... */\n      pop\n      pop\n      jump\t// out\n        /* \"contracts/cropsFarmer.sol\":11369:11462  function getTimeStamp() public view returns (uint256) {... */\n    tag_380:\n        /* \"contracts/cropsFarmer.sol\":11414:11421  uint256 */\n      0x00\n        /* \"contracts/cropsFarmer.sol\":11440:11455  block.timestamp */\n      timestamp\n        /* \"contracts/cropsFarmer.sol\":11433:11455  return block.timestamp */\n      swap1\n      pop\n        /* \"contracts/cropsFarmer.sol\":11369:11462  function getTimeStamp() public view returns (uint256) {... */\n      swap1\n      jump\t// out\n        /* \"contracts/cropsFarmer.sol\":3529:3851  function startFarm(address addr) public payable{... */\n    tag_384:\n        /* \"contracts/cropsFarmer.sol\":3591:3606  contractStarted */\n      0x15\n      0x00\n      swap1\n      sload\n      swap1\n      0x0100\n      exp\n      swap1\n      div\n      0xff\n      and\n        /* \"contracts/cropsFarmer.sol\":3586:3845  if (!contractStarted) {... */\n      tag_609\n      jumpi\n        /* \"contracts/cropsFarmer.sol\":3634:3639  owner */\n      0x1b\n      0x00\n      swap1\n      sload\n      swap1\n      0x0100\n      exp\n      swap1\n      div\n      0xffffffffffffffffffffffffffffffffffffffff\n      and\n        /* \"contracts/cropsFarmer.sol\":3620:3639  msg.sender == owner */\n      0xffffffffffffffffffffffffffffffffffffffff\n      and\n        /* \"contracts/cropsFarmer.sol\":3620:3630  msg.sender */\n      caller\n        /* \"contracts/cropsFarmer.sol\":3620:3639  msg.sender == owner */\n      0xffffffffffffffffffffffffffffffffffffffff\n      and\n      eq\n        /* \"contracts/cropsFarmer.sol\":3616:3837  if (msg.sender == owner) {... */\n      iszero\n      tag_610\n      jumpi\n        /* \"contracts/cropsFarmer.sol\":3675:3676  0 */\n      0x00\n        /* \"contracts/cropsFarmer.sol\":3661:3671  marketEggs */\n      sload(0x12)\n        /* \"contracts/cropsFarmer.sol\":3661:3676  marketEggs == 0 */\n      eq\n        /* \"contracts/cropsFarmer.sol\":3653:3677  require(marketEggs == 0) */\n      tag_611\n      jumpi\n      0x00\n      dup1\n      revert\n    tag_611:\n        /* \"contracts/cropsFarmer.sol\":3704:3708  true */\n      0x01\n        /* \"contracts/cropsFarmer.sol\":3686:3701  contractStarted */\n      0x15\n      0x00\n        /* \"contracts/cropsFarmer.sol\":3686:3708  contractStarted = true */\n      0x0100\n      exp\n      dup2\n      sload\n      dup2\n      0xff\n      mul\n      not\n      and\n      swap1\n      dup4\n      iszero\n      iszero\n      mul\n      or\n      swap1\n      sstore\n      pop\n        /* \"contracts/cropsFarmer.sol\":3739:3751  144000000000 */\n      0x218711a000\n        /* \"contracts/cropsFarmer.sol\":3726:3736  marketEggs */\n      0x12\n        /* \"contracts/cropsFarmer.sol\":3726:3751  marketEggs = 144000000000 */\n      dup2\n      swap1\n      sstore\n      pop\n        /* \"contracts/cropsFarmer.sol\":3770:3787  hireFarmers(addr) */\n      tag_612\n        /* \"contracts/cropsFarmer.sol\":3782:3786  addr */\n      dup2\n        /* \"contracts/cropsFarmer.sol\":3770:3781  hireFarmers */\n      tag_206\n        /* \"contracts/cropsFarmer.sol\":3770:3787  hireFarmers(addr) */\n      jump\t// in\n    tag_612:\n        /* \"contracts/cropsFarmer.sol\":3616:3837  if (msg.sender == owner) {... */\n      jump(tag_613)\n    tag_610:\n        /* \"contracts/cropsFarmer.sol\":3802:3837  revert(\"Contract not yet started.\") */\n      mload(0x40)\n      0x08c379a000000000000000000000000000000000000000000000000000000000\n      dup2\n      mstore\n      0x04\n      add\n      tag_614\n      swap1\n      tag_615\n      jump\t// in\n    tag_614:\n      mload(0x40)\n      dup1\n      swap2\n      sub\n      swap1\n      revert\n        /* \"contracts/cropsFarmer.sol\":3616:3837  if (msg.sender == owner) {... */\n    tag_613:\n        /* \"contracts/cropsFarmer.sol\":3586:3845  if (!contractStarted) {... */\n    tag_609:\n        /* \"contracts/cropsFarmer.sol\":3529:3851  function startFarm(address addr) public payable{... */\n      pop\n      jump\t// out\n        /* \"contracts/cropsFarmer.sol\":15503:15738  function PRC_EGGS_TO_HIRE_1MINERS(uint256 value) external {... */\n    tag_388:\n        /* \"contracts/cropsFarmer.sol\":15593:15598  owner */\n      0x1b\n      0x00\n      swap1\n      sload\n      swap1\n      0x0100\n      exp\n      swap1\n      div\n      0xffffffffffffffffffffffffffffffffffffffff\n      and\n        /* \"contracts/cropsFarmer.sol\":15579:15598  msg.sender == owner */\n      0xffffffffffffffffffffffffffffffffffffffff\n      and\n        /* \"contracts/cropsFarmer.sol\":15579:15589  msg.sender */\n      caller\n        /* \"contracts/cropsFarmer.sol\":15579:15598  msg.sender == owner */\n      0xffffffffffffffffffffffffffffffffffffffff\n      and\n      eq\n        /* \"contracts/cropsFarmer.sol\":15571:15618  require(msg.sender == owner, \"Admin use only.\") */\n      tag_617\n      jumpi\n      mload(0x40)\n      0x08c379a000000000000000000000000000000000000000000000000000000000\n      dup2\n      mstore\n      0x04\n      add\n      tag_618\n      swap1\n      tag_435\n      jump\t// in\n    tag_618:\n      mload(0x40)\n      dup1\n      swap2\n      sub\n      swap1\n      revert\n    tag_617:\n        /* \"contracts/cropsFarmer.sol\":15645:15651  479520 */\n      0x075120\n        /* \"contracts/cropsFarmer.sol\":15636:15641  value */\n      dup2\n        /* \"contracts/cropsFarmer.sol\":15636:15651  value >= 479520 */\n      lt\n      iszero\n        /* \"contracts/cropsFarmer.sol\":15636:15670  value >= 479520 && value <= 720000 */\n      dup1\n      iszero\n      tag_619\n      jumpi\n      pop\n        /* \"contracts/cropsFarmer.sol\":15664:15670  720000 */\n      0x0afc80\n        /* \"contracts/cropsFarmer.sol\":15655:15660  value */\n      dup2\n        /* \"contracts/cropsFarmer.sol\":15655:15670  value <= 720000 */\n      gt\n      iszero\n        /* \"contracts/cropsFarmer.sol\":15636:15670  value >= 479520 && value <= 720000 */\n    tag_619:\n        /* \"contracts/cropsFarmer.sol\":15628:15671  require(value >= 479520 && value <= 720000) */\n      tag_620\n      jumpi\n      0x00\n      dup1\n      revert\n    tag_620:\n        /* \"contracts/cropsFarmer.sol\":15726:15731  value */\n      dup1\n        /* \"contracts/cropsFarmer.sol\":15703:15723  EGGS_TO_HIRE_1MINERS */\n      0x00\n        /* \"contracts/cropsFarmer.sol\":15703:15731  EGGS_TO_HIRE_1MINERS = value */\n      dup2\n      swap1\n      sstore\n      pop\n        /* \"contracts/cropsFarmer.sol\":15503:15738  function PRC_EGGS_TO_HIRE_1MINERS(uint256 value) external {... */\n      pop\n      jump\t// out\n        /* \"contracts/cropsFarmer.sol\":17959:18169  function SET_COMPOUND_FOR_NO_TAX_WITHDRAWAL(uint256 value) external {... */\n    tag_392:\n        /* \"contracts/cropsFarmer.sol\":18059:18064  owner */\n      0x1b\n      0x00\n      swap1\n      sload\n      swap1\n      0x0100\n      exp\n      swap1\n      div\n      0xffffffffffffffffffffffffffffffffffffffff\n      and\n        /* \"contracts/cropsFarmer.sol\":18045:18064  msg.sender == owner */\n      0xffffffffffffffffffffffffffffffffffffffff\n      and\n        /* \"contracts/cropsFarmer.sol\":18045:18055  msg.sender */\n      caller\n        /* \"contracts/cropsFarmer.sol\":18045:18064  msg.sender == owner */\n      0xffffffffffffffffffffffffffffffffffffffff\n      and\n      eq\n        /* \"contracts/cropsFarmer.sol\":18037:18084  require(msg.sender == owner, \"Admin use only.\") */\n      tag_622\n      jumpi\n      mload(0x40)\n      0x08c379a000000000000000000000000000000000000000000000000000000000\n      dup2\n      mstore\n      0x04\n      add\n      tag_623\n      swap1\n      tag_435\n      jump\t// in\n    tag_623:\n      mload(0x40)\n      dup1\n      swap2\n      sub\n      swap1\n      revert\n    tag_622:\n        /* \"contracts/cropsFarmer.sol\":18111:18113  12 */\n      0x0c\n        /* \"contracts/cropsFarmer.sol\":18102:18107  value */\n      dup2\n        /* \"contracts/cropsFarmer.sol\":18102:18113  value <= 12 */\n      gt\n      iszero\n        /* \"contracts/cropsFarmer.sol\":18094:18114  require(value <= 12) */\n      tag_624\n      jumpi\n      0x00\n      dup1\n      revert\n    tag_624:\n        /* \"contracts/cropsFarmer.sol\":18157:18162  value */\n      dup1\n        /* \"contracts/cropsFarmer.sol\":18124:18154  COMPOUND_FOR_NO_TAX_WITHDRAWAL */\n      0x0c\n        /* \"contracts/cropsFarmer.sol\":18124:18162  COMPOUND_FOR_NO_TAX_WITHDRAWAL = value */\n      dup2\n      swap1\n      sstore\n      pop\n        /* \"contracts/cropsFarmer.sol\":17959:18169  function SET_COMPOUND_FOR_NO_TAX_WITHDRAWAL(uint256 value) external {... */\n      pop\n      jump\t// out\n        /* \"contracts/cropsFarmer.sol\":3067:3329  function blackMultipleWallets(address[] calldata Wallet, bool isBlacklisted) public{... */\n    tag_397:\n        /* \"contracts/cropsFarmer.sol\":3182:3187  owner */\n      0x1b\n      0x00\n      swap1\n      sload\n      swap1\n      0x0100\n      exp\n      swap1\n      div\n      0xffffffffffffffffffffffffffffffffffffffff\n      and\n        /* \"contracts/cropsFarmer.sol\":3168:3187  msg.sender == owner */\n      0xffffffffffffffffffffffffffffffffffffffff\n      and\n        /* \"contracts/cropsFarmer.sol\":3168:3178  msg.sender */\n      caller\n        /* \"contracts/cropsFarmer.sol\":3168:3187  msg.sender == owner */\n      0xffffffffffffffffffffffffffffffffffffffff\n      and\n      eq\n        /* \"contracts/cropsFarmer.sol\":3160:3207  require(msg.sender == owner, \"Admin use only.\") */\n      tag_626\n      jumpi\n      mload(0x40)\n      0x08c379a000000000000000000000000000000000000000000000000000000000\n      dup2\n      mstore\n      0x04\n      add\n      tag_627\n      swap1\n      tag_435\n      jump\t// in\n    tag_627:\n      mload(0x40)\n      dup1\n      swap2\n      sub\n      swap1\n      revert\n    tag_626:\n        /* \"contracts/cropsFarmer.sol\":3221:3230  uint256 i */\n      0x00\n        /* \"contracts/cropsFarmer.sol\":3217:3323  for(uint256 i = 0; i < Wallet.length; i++) {... */\n    tag_628:\n        /* \"contracts/cropsFarmer.sol\":3240:3246  Wallet */\n      dup4\n      dup4\n        /* \"contracts/cropsFarmer.sol\":3240:3253  Wallet.length */\n      swap1\n      pop\n        /* \"contracts/cropsFarmer.sol\":3236:3237  i */\n      dup2\n        /* \"contracts/cropsFarmer.sol\":3236:3253  i < Wallet.length */\n      lt\n        /* \"contracts/cropsFarmer.sol\":3217:3323  for(uint256 i = 0; i < Wallet.length; i++) {... */\n      iszero\n      tag_629\n      jumpi\n        /* \"contracts/cropsFarmer.sol\":3299:3312  isBlacklisted */\n      dup2\n        /* \"contracts/cropsFarmer.sol\":3274:3285  Blacklisted */\n      0x16\n        /* \"contracts/cropsFarmer.sol\":3274:3296  Blacklisted[Wallet[i]] */\n      0x00\n        /* \"contracts/cropsFarmer.sol\":3286:3292  Wallet */\n      dup7\n      dup7\n        /* \"contracts/cropsFarmer.sol\":3293:3294  i */\n      dup6\n        /* \"contracts/cropsFarmer.sol\":3286:3295  Wallet[i] */\n      dup2\n      dup2\n      lt\n      tag_631\n      jumpi\n      tag_632\n      tag_633\n      jump\t// in\n    tag_632:\n    tag_631:\n      swap1\n      pop\n      0x20\n      mul\n      add\n      0x20\n      dup2\n      add\n      swap1\n      tag_634\n      swap2\n      swap1\n      tag_133\n      jump\t// in\n    tag_634:\n        /* \"contracts/cropsFarmer.sol\":3274:3296  Blacklisted[Wallet[i]] */\n      0xffffffffffffffffffffffffffffffffffffffff\n      and\n      0xffffffffffffffffffffffffffffffffffffffff\n      and\n      dup2\n      mstore\n      0x20\n      add\n      swap1\n      dup2\n      mstore\n      0x20\n      add\n      0x00\n      keccak256\n      0x00\n        /* \"contracts/cropsFarmer.sol\":3274:3312  Blacklisted[Wallet[i]] = isBlacklisted */\n      0x0100\n      exp\n      dup2\n      sload\n      dup2\n      0xff\n      mul\n      not\n      and\n      swap1\n      dup4\n      iszero\n      iszero\n      mul\n      or\n      swap1\n      sstore\n      pop\n        /* \"contracts/cropsFarmer.sol\":3255:3258  i++ */\n      dup1\n      dup1\n      tag_635\n      swap1\n      tag_636\n      jump\t// in\n    tag_635:\n      swap2\n      pop\n      pop\n        /* \"contracts/cropsFarmer.sol\":3217:3323  for(uint256 i = 0; i < Wallet.length; i++) {... */\n      jump(tag_628)\n    tag_629:\n      pop\n        /* \"contracts/cropsFarmer.sol\":3067:3329  function blackMultipleWallets(address[] calldata Wallet, bool isBlacklisted) public{... */\n      pop\n      pop\n      pop\n      jump\t// out\n        /* \"contracts/cropsFarmer.sol\":704:754  uint256 public COMPOUND_FOR_NO_TAX_WITHDRAWAL = 10 */\n    tag_400:\n      sload(0x0c)\n      dup2\n      jump\t// out\n        /* \"contracts/cropsFarmer.sol\":1085:1128  mapping(address => bool) public Blacklisted */\n    tag_405:\n      mstore(0x20, 0x16)\n      dup1\n      0x00\n      mstore\n      keccak256(0x00, 0x40)\n      0x00\n      swap2\n      pop\n      sload\n      swap1\n      0x0100\n      exp\n      swap1\n      div\n      0xff\n      and\n      dup2\n      jump\t// out\n        /* \"contracts/cropsFarmer.sol\":18599:18728  function add(uint256 a, uint256 b) internal pure returns (uint256) {... */\n    tag_417:\n        /* \"contracts/cropsFarmer.sol\":18657:18664  uint256 */\n      0x00\n        /* \"contracts/cropsFarmer.sol\":18672:18681  uint256 c */\n      dup1\n        /* \"contracts/cropsFarmer.sol\":18688:18689  b */\n      dup3\n        /* \"contracts/cropsFarmer.sol\":18684:18685  a */\n      dup5\n        /* \"contracts/cropsFarmer.sol\":18684:18689  a + b */\n      tag_638\n      swap2\n      swap1\n      tag_639\n      jump\t// in\n    tag_638:\n        /* \"contracts/cropsFarmer.sol\":18672:18689  uint256 c = a + b */\n      swap1\n      pop\n        /* \"contracts/cropsFarmer.sol\":18707:18708  a */\n      dup4\n        /* \"contracts/cropsFarmer.sol\":18702:18703  c */\n      dup2\n        /* \"contracts/cropsFarmer.sol\":18702:18708  c >= a */\n      lt\n      iszero\n        /* \"contracts/cropsFarmer.sol\":18695:18709  assert(c >= a) */\n      tag_640\n      jumpi\n      tag_641\n      tag_642\n      jump\t// in\n    tag_641:\n    tag_640:\n        /* \"contracts/cropsFarmer.sol\":18722:18723  c */\n      dup1\n        /* \"contracts/cropsFarmer.sol\":18715:18723  return c */\n      swap2\n      pop\n      pop\n        /* \"contracts/cropsFarmer.sol\":18599:18728  function add(uint256 a, uint256 b) internal pure returns (uint256) {... */\n      swap3\n      swap2\n      pop\n      pop\n      jump\t// out\n        /* \"contracts/cropsFarmer.sol\":18485:18595  function sub(uint256 a, uint256 b) internal pure returns (uint256) {... */\n    tag_422:\n        /* \"contracts/cropsFarmer.sol\":18543:18550  uint256 */\n      0x00\n        /* \"contracts/cropsFarmer.sol\":18570:18571  a */\n      dup3\n        /* \"contracts/cropsFarmer.sol\":18565:18566  b */\n      dup3\n        /* \"contracts/cropsFarmer.sol\":18565:18571  b <= a */\n      gt\n      iszero\n        /* \"contracts/cropsFarmer.sol\":18558:18572  assert(b <= a) */\n      tag_644\n      jumpi\n      tag_645\n      tag_642\n      jump\t// in\n    tag_645:\n    tag_644:\n        /* \"contracts/cropsFarmer.sol\":18589:18590  b */\n      dup2\n        /* \"contracts/cropsFarmer.sol\":18585:18586  a */\n      dup4\n        /* \"contracts/cropsFarmer.sol\":18585:18590  a - b */\n      tag_646\n      swap2\n      swap1\n      tag_647\n      jump\t// in\n    tag_646:\n        /* \"contracts/cropsFarmer.sol\":18578:18590  return a - b */\n      swap1\n      pop\n        /* \"contracts/cropsFarmer.sol\":18485:18595  function sub(uint256 a, uint256 b) internal pure returns (uint256) {... */\n      swap3\n      swap2\n      pop\n      pop\n      jump\t// out\n        /* \"contracts/cropsFarmer.sol\":18372:18481  function div(uint256 a, uint256 b) internal pure returns (uint256) {... */\n    tag_429:\n        /* \"contracts/cropsFarmer.sol\":18430:18437  uint256 */\n      0x00\n        /* \"contracts/cropsFarmer.sol\":18445:18454  uint256 c */\n      dup1\n        /* \"contracts/cropsFarmer.sol\":18461:18462  b */\n      dup3\n        /* \"contracts/cropsFarmer.sol\":18457:18458  a */\n      dup5\n        /* \"contracts/cropsFarmer.sol\":18457:18462  a / b */\n      tag_649\n      swap2\n      swap1\n      tag_650\n      jump\t// in\n    tag_649:\n        /* \"contracts/cropsFarmer.sol\":18445:18462  uint256 c = a / b */\n      swap1\n      pop\n        /* \"contracts/cropsFarmer.sol\":18475:18476  c */\n      dup1\n        /* \"contracts/cropsFarmer.sol\":18468:18476  return c */\n      swap2\n      pop\n      pop\n        /* \"contracts/cropsFarmer.sol\":18372:18481  function div(uint256 a, uint256 b) internal pure returns (uint256) {... */\n      swap3\n      swap2\n      pop\n      pop\n      jump\t// out\n        /* \"contracts/cropsFarmer.sol\":18195:18368  function mul(uint256 a, uint256 b) internal pure returns (uint256) {... */\n    tag_440:\n        /* \"contracts/cropsFarmer.sol\":18253:18260  uint256 */\n      0x00\n        /* \"contracts/cropsFarmer.sol\":18277:18278  0 */\n      dup1\n        /* \"contracts/cropsFarmer.sol\":18272:18273  a */\n      dup4\n        /* \"contracts/cropsFarmer.sol\":18272:18278  a == 0 */\n      eq\n        /* \"contracts/cropsFarmer.sol\":18268:18303  if (a == 0) {... */\n      iszero\n      tag_652\n      jumpi\n        /* \"contracts/cropsFarmer.sol\":18295:18296  0 */\n      0x00\n        /* \"contracts/cropsFarmer.sol\":18288:18296  return 0 */\n      swap1\n      pop\n      jump(tag_651)\n        /* \"contracts/cropsFarmer.sol\":18268:18303  if (a == 0) {... */\n    tag_652:\n        /* \"contracts/cropsFarmer.sol\":18308:18317  uint256 c */\n      0x00\n        /* \"contracts/cropsFarmer.sol\":18324:18325  b */\n      dup3\n        /* \"contracts/cropsFarmer.sol\":18320:18321  a */\n      dup5\n        /* \"contracts/cropsFarmer.sol\":18320:18325  a * b */\n      tag_653\n      swap2\n      swap1\n      tag_464\n      jump\t// in\n    tag_653:\n        /* \"contracts/cropsFarmer.sol\":18308:18325  uint256 c = a * b */\n      swap1\n      pop\n        /* \"contracts/cropsFarmer.sol\":18347:18348  b */\n      dup3\n        /* \"contracts/cropsFarmer.sol\":18342:18343  a */\n      dup5\n        /* \"contracts/cropsFarmer.sol\":18338:18339  c */\n      dup3\n        /* \"contracts/cropsFarmer.sol\":18338:18343  c / a */\n      tag_654\n      swap2\n      swap1\n      tag_650\n      jump\t// in\n    tag_654:\n        /* \"contracts/cropsFarmer.sol\":18338:18348  c / a == b */\n      eq\n        /* \"contracts/cropsFarmer.sol\":18331:18349  assert(c / a == b) */\n      tag_655\n      jumpi\n      tag_656\n      tag_642\n      jump\t// in\n    tag_656:\n    tag_655:\n        /* \"contracts/cropsFarmer.sol\":18362:18363  c */\n      dup1\n        /* \"contracts/cropsFarmer.sol\":18355:18363  return c */\n      swap2\n      pop\n      pop\n        /* \"contracts/cropsFarmer.sol\":18195:18368  function mul(uint256 a, uint256 b) internal pure returns (uint256) {... */\n    tag_651:\n      swap3\n      swap2\n      pop\n      pop\n      jump\t// out\n        /* \"contracts/cropsFarmer.sol\":6674:7577  function sendRewardToReferrals(address investor,uint _investedAmount)  internal  //this is the freferral function to transfer the reawards to referrals... */\n    tag_498:\n        /* \"contracts/cropsFarmer.sol\":6842:6854  address temp */\n      0x00\n        /* \"contracts/cropsFarmer.sol\":6857:6865  investor */\n      dup3\n        /* \"contracts/cropsFarmer.sol\":6842:6865  address temp = investor */\n      swap1\n      pop\n        /* \"contracts/cropsFarmer.sol\":6882:6906  uint[] memory percentage */\n      0x00\n        /* \"contracts/cropsFarmer.sol\":6920:6921  3 */\n      0x03\n        /* \"contracts/cropsFarmer.sol\":6909:6922  new uint[](3) */\n      0xffffffffffffffff\n      dup2\n      gt\n      iszero\n      tag_658\n      jumpi\n      tag_659\n      tag_660\n      jump\t// in\n    tag_659:\n    tag_658:\n      mload(0x40)\n      swap1\n      dup1\n      dup3\n      mstore\n      dup1\n      0x20\n      mul\n      0x20\n      add\n      dup3\n      add\n      0x40\n      mstore\n      dup1\n      iszero\n      tag_661\n      jumpi\n      dup2\n      0x20\n      add\n      0x20\n      dup3\n      mul\n      dup1\n      calldatasize\n      dup4\n      calldatacopy\n      dup1\n      dup3\n      add\n      swap2\n      pop\n      pop\n      swap1\n      pop\n    tag_661:\n      pop\n        /* \"contracts/cropsFarmer.sol\":6882:6922  uint[] memory percentage = new uint[](3) */\n      swap1\n      pop\n        /* \"contracts/cropsFarmer.sol\":6948:6949  8 */\n      0x08\n        /* \"contracts/cropsFarmer.sol\":6932:6942  percentage */\n      dup2\n        /* \"contracts/cropsFarmer.sol\":6943:6944  0 */\n      0x00\n        /* \"contracts/cropsFarmer.sol\":6932:6945  percentage[0] */\n      dup2\n      mload\n      dup2\n      lt\n      tag_662\n      jumpi\n      tag_663\n      tag_633\n      jump\t// in\n    tag_663:\n    tag_662:\n      0x20\n      mul\n      0x20\n      add\n      add\n        /* \"contracts/cropsFarmer.sol\":6932:6949  percentage[0] = 8 */\n      dup2\n      dup2\n      mstore\n      pop\n      pop\n        /* \"contracts/cropsFarmer.sol\":6975:6976  3 */\n      0x03\n        /* \"contracts/cropsFarmer.sol\":6959:6969  percentage */\n      dup2\n        /* \"contracts/cropsFarmer.sol\":6970:6971  1 */\n      0x01\n        /* \"contracts/cropsFarmer.sol\":6959:6972  percentage[1] */\n      dup2\n      mload\n      dup2\n      lt\n      tag_664\n      jumpi\n      tag_665\n      tag_633\n      jump\t// in\n    tag_665:\n    tag_664:\n      0x20\n      mul\n      0x20\n      add\n      add\n        /* \"contracts/cropsFarmer.sol\":6959:6976  percentage[1] = 3 */\n      dup2\n      dup2\n      mstore\n      pop\n      pop\n        /* \"contracts/cropsFarmer.sol\":7002:7003  2 */\n      0x02\n        /* \"contracts/cropsFarmer.sol\":6986:6996  percentage */\n      dup2\n        /* \"contracts/cropsFarmer.sol\":6997:6998  2 */\n      0x02\n        /* \"contracts/cropsFarmer.sol\":6986:6999  percentage[2] */\n      dup2\n      mload\n      dup2\n      lt\n      tag_666\n      jumpi\n      tag_667\n      tag_633\n      jump\t// in\n    tag_667:\n    tag_666:\n      0x20\n      mul\n      0x20\n      add\n      add\n        /* \"contracts/cropsFarmer.sol\":6986:7003  percentage[2] = 2 */\n      dup2\n      dup2\n      mstore\n      pop\n      pop\n        /* \"contracts/cropsFarmer.sol\":7021:7027  uint i */\n      0x00\n        /* \"contracts/cropsFarmer.sol\":7017:7570  for(uint i=0;i<3;i++)... */\n    tag_668:\n        /* \"contracts/cropsFarmer.sol\":7032:7033  3 */\n      0x03\n        /* \"contracts/cropsFarmer.sol\":7030:7031  i */\n      dup2\n        /* \"contracts/cropsFarmer.sol\":7030:7033  i<3 */\n      lt\n        /* \"contracts/cropsFarmer.sol\":7017:7570  for(uint i=0;i<3;i++)... */\n      iszero\n      tag_669\n      jumpi\n        /* \"contracts/cropsFarmer.sol\":7095:7096  0 */\n      0x00\n        /* \"contracts/cropsFarmer.sol\":7065:7097  users[temp].referrer!=address(0) */\n      0xffffffffffffffffffffffffffffffffffffffff\n      and\n        /* \"contracts/cropsFarmer.sol\":7065:7070  users */\n      0x22\n        /* \"contracts/cropsFarmer.sol\":7065:7076  users[temp] */\n      0x00\n        /* \"contracts/cropsFarmer.sol\":7071:7075  temp */\n      dup6\n        /* \"contracts/cropsFarmer.sol\":7065:7076  users[temp] */\n      0xffffffffffffffffffffffffffffffffffffffff\n      and\n      0xffffffffffffffffffffffffffffffffffffffff\n      and\n      dup2\n      mstore\n      0x20\n      add\n      swap1\n      dup2\n      mstore\n      0x20\n      add\n      0x00\n      keccak256\n        /* \"contracts/cropsFarmer.sol\":7065:7085  users[temp].referrer */\n      0x05\n      add\n      0x00\n      swap1\n      sload\n      swap1\n      0x0100\n      exp\n      swap1\n      div\n      0xffffffffffffffffffffffffffffffffffffffff\n      and\n        /* \"contracts/cropsFarmer.sol\":7065:7097  users[temp].referrer!=address(0) */\n      0xffffffffffffffffffffffffffffffffffffffff\n      and\n      eq\n        /* \"contracts/cropsFarmer.sol\":7062:7559  if(users[temp].referrer!=address(0))... */\n      tag_671\n      jumpi\n        /* \"contracts/cropsFarmer.sol\":7135:7140  users */\n      0x22\n        /* \"contracts/cropsFarmer.sol\":7135:7146  users[temp] */\n      0x00\n        /* \"contracts/cropsFarmer.sol\":7141:7145  temp */\n      dup5\n        /* \"contracts/cropsFarmer.sol\":7135:7146  users[temp] */\n      0xffffffffffffffffffffffffffffffffffffffff\n      and\n      0xffffffffffffffffffffffffffffffffffffffff\n      and\n      dup2\n      mstore\n      0x20\n      add\n      swap1\n      dup2\n      mstore\n      0x20\n      add\n      0x00\n      keccak256\n        /* \"contracts/cropsFarmer.sol\":7135:7155  users[temp].referrer */\n      0x05\n      add\n      0x00\n      swap1\n      sload\n      swap1\n      0x0100\n      exp\n      swap1\n      div\n      0xffffffffffffffffffffffffffffffffffffffff\n      and\n        /* \"contracts/cropsFarmer.sol\":7130:7155  temp=users[temp].referrer */\n      swap3\n      pop\n        /* \"contracts/cropsFarmer.sol\":7173:7185  uint reward1 */\n      0x00\n        /* \"contracts/cropsFarmer.sol\":7222:7225  100 */\n      0x64\n        /* \"contracts/cropsFarmer.sol\":7205:7220  _investedAmount */\n      dup6\n        /* \"contracts/cropsFarmer.sol\":7189:7199  percentage */\n      dup5\n        /* \"contracts/cropsFarmer.sol\":7200:7201  i */\n      dup5\n        /* \"contracts/cropsFarmer.sol\":7189:7202  percentage[i] */\n      dup2\n      mload\n      dup2\n      lt\n      tag_672\n      jumpi\n      tag_673\n      tag_633\n      jump\t// in\n    tag_673:\n    tag_672:\n      0x20\n      mul\n      0x20\n      add\n      add\n      mload\n        /* \"contracts/cropsFarmer.sol\":7189:7220  percentage[i] * _investedAmount */\n      tag_674\n      swap2\n      swap1\n      tag_464\n      jump\t// in\n    tag_674:\n        /* \"contracts/cropsFarmer.sol\":7188:7225  (percentage[i] * _investedAmount)/100 */\n      tag_675\n      swap2\n      swap1\n      tag_650\n      jump\t// in\n    tag_675:\n        /* \"contracts/cropsFarmer.sol\":7173:7225  uint reward1 = (percentage[i] * _investedAmount)/100 */\n      swap1\n      pop\n        /* \"contracts/cropsFarmer.sol\":7267:7274  reward1 */\n      dup1\n        /* \"contracts/cropsFarmer.sol\":7244:7259  referralEarning */\n      0x18\n        /* \"contracts/cropsFarmer.sol\":7244:7265  referralEarning[temp] */\n      0x00\n        /* \"contracts/cropsFarmer.sol\":7260:7264  temp */\n      dup7\n        /* \"contracts/cropsFarmer.sol\":7244:7265  referralEarning[temp] */\n      0xffffffffffffffffffffffffffffffffffffffff\n      and\n      0xffffffffffffffffffffffffffffffffffffffff\n      and\n      dup2\n      mstore\n      0x20\n      add\n      swap1\n      dup2\n      mstore\n      0x20\n      add\n      0x00\n      keccak256\n      0x00\n        /* \"contracts/cropsFarmer.sol\":7244:7274  referralEarning[temp]+=reward1 */\n      dup3\n      dup3\n      sload\n      tag_676\n      swap2\n      swap1\n      tag_639\n      jump\t// in\n    tag_676:\n      swap3\n      pop\n      pop\n      dup2\n      swap1\n      sstore\n      pop\n        /* \"contracts/cropsFarmer.sol\":7308:7312  temp */\n      dup4\n        /* \"contracts/cropsFarmer.sol\":7292:7323  payable(address(temp)).transfer */\n      0xffffffffffffffffffffffffffffffffffffffff\n      and\n        /* \"contracts/cropsFarmer.sol\":7292:7332  payable(address(temp)).transfer(reward1) */\n      0x08fc\n        /* \"contracts/cropsFarmer.sol\":7324:7331  reward1 */\n      dup3\n        /* \"contracts/cropsFarmer.sol\":7292:7332  payable(address(temp)).transfer(reward1) */\n      swap1\n      dup2\n      iszero\n      mul\n      swap1\n      mload(0x40)\n      0x00\n      mload(0x40)\n      dup1\n      dup4\n      sub\n      dup2\n      dup6\n      dup9\n      dup9\n      call\n      swap4\n      pop\n      pop\n      pop\n      pop\n      iszero\n      dup1\n      iszero\n      tag_678\n      jumpi\n      returndatasize\n      0x00\n      dup1\n      returndatacopy\n      revert(0x00, returndatasize)\n    tag_678:\n      pop\n        /* \"contracts/cropsFarmer.sol\":7383:7426  users[temp].referralEggRewards.add(reward1) */\n      tag_679\n        /* \"contracts/cropsFarmer.sol\":7418:7425  reward1 */\n      dup2\n        /* \"contracts/cropsFarmer.sol\":7383:7388  users */\n      0x22\n        /* \"contracts/cropsFarmer.sol\":7383:7394  users[temp] */\n      0x00\n        /* \"contracts/cropsFarmer.sol\":7389:7393  temp */\n      dup8\n        /* \"contracts/cropsFarmer.sol\":7383:7394  users[temp] */\n      0xffffffffffffffffffffffffffffffffffffffff\n      and\n      0xffffffffffffffffffffffffffffffffffffffff\n      and\n      dup2\n      mstore\n      0x20\n      add\n      swap1\n      dup2\n      mstore\n      0x20\n      add\n      0x00\n      keccak256\n        /* \"contracts/cropsFarmer.sol\":7383:7413  users[temp].referralEggRewards */\n      0x07\n      add\n      sload\n        /* \"contracts/cropsFarmer.sol\":7383:7417  users[temp].referralEggRewards.add */\n      tag_417\n      swap1\n        /* \"contracts/cropsFarmer.sol\":7383:7426  users[temp].referralEggRewards.add(reward1) */\n      swap2\n      swap1\n      0xffffffff\n      and\n      jump\t// in\n    tag_679:\n        /* \"contracts/cropsFarmer.sol\":7350:7355  users */\n      0x22\n        /* \"contracts/cropsFarmer.sol\":7350:7361  users[temp] */\n      0x00\n        /* \"contracts/cropsFarmer.sol\":7356:7360  temp */\n      dup7\n        /* \"contracts/cropsFarmer.sol\":7350:7361  users[temp] */\n      0xffffffffffffffffffffffffffffffffffffffff\n      and\n      0xffffffffffffffffffffffffffffffffffffffff\n      and\n      dup2\n      mstore\n      0x20\n      add\n      swap1\n      dup2\n      mstore\n      0x20\n      add\n      0x00\n      keccak256\n        /* \"contracts/cropsFarmer.sol\":7350:7380  users[temp].referralEggRewards */\n      0x07\n      add\n        /* \"contracts/cropsFarmer.sol\":7350:7426  users[temp].referralEggRewards = users[temp].referralEggRewards.add(reward1) */\n      dup2\n      swap1\n      sstore\n      pop\n        /* \"contracts/cropsFarmer.sol\":7460:7486  totalRefBonus.add(reward1) */\n      tag_680\n        /* \"contracts/cropsFarmer.sol\":7478:7485  reward1 */\n      dup2\n        /* \"contracts/cropsFarmer.sol\":7460:7473  totalRefBonus */\n      sload(0x10)\n        /* \"contracts/cropsFarmer.sol\":7460:7477  totalRefBonus.add */\n      tag_417\n      swap1\n        /* \"contracts/cropsFarmer.sol\":7460:7486  totalRefBonus.add(reward1) */\n      swap2\n      swap1\n      0xffffffff\n      and\n      jump\t// in\n    tag_680:\n        /* \"contracts/cropsFarmer.sol\":7444:7457  totalRefBonus */\n      0x10\n        /* \"contracts/cropsFarmer.sol\":7444:7486  totalRefBonus = totalRefBonus.add(reward1) */\n      dup2\n      swap1\n      sstore\n      pop\n        /* \"contracts/cropsFarmer.sol\":7111:7503  {... */\n      pop\n        /* \"contracts/cropsFarmer.sol\":7062:7559  if(users[temp].referrer!=address(0))... */\n      jump(tag_681)\n    tag_671:\n        /* \"contracts/cropsFarmer.sol\":7539:7544  break */\n      jump(tag_669)\n        /* \"contracts/cropsFarmer.sol\":7062:7559  if(users[temp].referrer!=address(0))... */\n    tag_681:\n        /* \"contracts/cropsFarmer.sol\":7034:7037  i++ */\n      dup1\n      dup1\n      tag_682\n      swap1\n      tag_636\n      jump\t// in\n    tag_682:\n      swap2\n      pop\n      pop\n        /* \"contracts/cropsFarmer.sol\":7017:7570  for(uint i=0;i<3;i++)... */\n      jump(tag_668)\n    tag_669:\n      pop\n        /* \"contracts/cropsFarmer.sol\":6830:7577  { ... */\n      pop\n      pop\n        /* \"contracts/cropsFarmer.sol\":6674:7577  function sendRewardToReferrals(address investor,uint _investedAmount)  internal  //this is the freferral function to transfer the reawards to referrals... */\n      pop\n      pop\n      jump\t// out\n        /* \"contracts/cropsFarmer.sol\":9463:9881  function payFees(uint256 eggValue) internal returns(uint256){... */\n    tag_500:\n        /* \"contracts/cropsFarmer.sol\":9515:9522  uint256 */\n      0x00\n        /* \"contracts/cropsFarmer.sol\":9533:9544  uint256 tax */\n      dup1\n        /* \"contracts/cropsFarmer.sol\":9547:9586  eggValue.mul(TAX).div(PERCENTS_DIVIDER) */\n      tag_684\n        /* \"contracts/cropsFarmer.sol\":9569:9585  PERCENTS_DIVIDER */\n      sload(0x02)\n        /* \"contracts/cropsFarmer.sol\":9547:9564  eggValue.mul(TAX) */\n      tag_685\n        /* \"contracts/cropsFarmer.sol\":9560:9563  TAX */\n      sload(0x03)\n        /* \"contracts/cropsFarmer.sol\":9547:9555  eggValue */\n      dup7\n        /* \"contracts/cropsFarmer.sol\":9547:9559  eggValue.mul */\n      tag_440\n      swap1\n        /* \"contracts/cropsFarmer.sol\":9547:9564  eggValue.mul(TAX) */\n      swap2\n      swap1\n      0xffffffff\n      and\n      jump\t// in\n    tag_685:\n        /* \"contracts/cropsFarmer.sol\":9547:9568  eggValue.mul(TAX).div */\n      tag_429\n      swap1\n        /* \"contracts/cropsFarmer.sol\":9547:9586  eggValue.mul(TAX).div(PERCENTS_DIVIDER) */\n      swap2\n      swap1\n      0xffffffff\n      and\n      jump\t// in\n    tag_684:\n        /* \"contracts/cropsFarmer.sol\":9533:9586  uint256 tax = eggValue.mul(TAX).div(PERCENTS_DIVIDER) */\n      swap1\n      pop\n        /* \"contracts/cropsFarmer.sol\":9596:9609  uint256 mktng */\n      0x00\n        /* \"contracts/cropsFarmer.sol\":9612:9651  eggValue.mul(MKT).div(PERCENTS_DIVIDER) */\n      tag_686\n        /* \"contracts/cropsFarmer.sol\":9634:9650  PERCENTS_DIVIDER */\n      sload(0x02)\n        /* \"contracts/cropsFarmer.sol\":9612:9629  eggValue.mul(MKT) */\n      tag_687\n        /* \"contracts/cropsFarmer.sol\":9625:9628  MKT */\n      sload(0x04)\n        /* \"contracts/cropsFarmer.sol\":9612:9620  eggValue */\n      dup8\n        /* \"contracts/cropsFarmer.sol\":9612:9624  eggValue.mul */\n      tag_440\n      swap1\n        /* \"contracts/cropsFarmer.sol\":9612:9629  eggValue.mul(MKT) */\n      swap2\n      swap1\n      0xffffffff\n      and\n      jump\t// in\n    tag_687:\n        /* \"contracts/cropsFarmer.sol\":9612:9633  eggValue.mul(MKT).div */\n      tag_429\n      swap1\n        /* \"contracts/cropsFarmer.sol\":9612:9651  eggValue.mul(MKT).div(PERCENTS_DIVIDER) */\n      swap2\n      swap1\n      0xffffffff\n      and\n      jump\t// in\n    tag_686:\n        /* \"contracts/cropsFarmer.sol\":9596:9651  uint256 mktng = eggValue.mul(MKT).div(PERCENTS_DIVIDER) */\n      swap1\n      pop\n        /* \"contracts/cropsFarmer.sol\":9661:9665  dev1 */\n      0x1c\n      0x00\n      swap1\n      sload\n      swap1\n      0x0100\n      exp\n      swap1\n      div\n      0xffffffffffffffffffffffffffffffffffffffff\n      and\n        /* \"contracts/cropsFarmer.sol\":9661:9674  dev1.transfer */\n      0xffffffffffffffffffffffffffffffffffffffff\n      and\n        /* \"contracts/cropsFarmer.sol\":9661:9679  dev1.transfer(tax) */\n      0x08fc\n        /* \"contracts/cropsFarmer.sol\":9675:9678  tax */\n      dup4\n        /* \"contracts/cropsFarmer.sol\":9661:9679  dev1.transfer(tax) */\n      swap1\n      dup2\n      iszero\n      mul\n      swap1\n      mload(0x40)\n      0x00\n      mload(0x40)\n      dup1\n      dup4\n      sub\n      dup2\n      dup6\n      dup9\n      dup9\n      call\n      swap4\n      pop\n      pop\n      pop\n      pop\n      iszero\n      dup1\n      iszero\n      tag_689\n      jumpi\n      returndatasize\n      0x00\n      dup1\n      returndatacopy\n      revert(0x00, returndatasize)\n    tag_689:\n      pop\n        /* \"contracts/cropsFarmer.sol\":9817:9820  mkt */\n      0x21\n      0x00\n      swap1\n      sload\n      swap1\n      0x0100\n      exp\n      swap1\n      div\n      0xffffffffffffffffffffffffffffffffffffffff\n      and\n        /* \"contracts/cropsFarmer.sol\":9817:9829  mkt.transfer */\n      0xffffffffffffffffffffffffffffffffffffffff\n      and\n        /* \"contracts/cropsFarmer.sol\":9817:9836  mkt.transfer(mktng) */\n      0x08fc\n        /* \"contracts/cropsFarmer.sol\":9830:9835  mktng */\n      dup3\n        /* \"contracts/cropsFarmer.sol\":9817:9836  mkt.transfer(mktng) */\n      swap1\n      dup2\n      iszero\n      mul\n      swap1\n      mload(0x40)\n      0x00\n      mload(0x40)\n      dup1\n      dup4\n      sub\n      dup2\n      dup6\n      dup9\n      dup9\n      call\n      swap4\n      pop\n      pop\n      pop\n      pop\n      iszero\n      dup1\n      iszero\n      tag_691\n      jumpi\n      returndatasize\n      0x00\n      dup1\n      returndatacopy\n      revert(0x00, returndatasize)\n    tag_691:\n      pop\n        /* \"contracts/cropsFarmer.sol\":9853:9874  mktng.add(tax.mul(1)) */\n      tag_692\n        /* \"contracts/cropsFarmer.sol\":9863:9873  tax.mul(1) */\n      tag_693\n        /* \"contracts/cropsFarmer.sol\":9871:9872  1 */\n      0x01\n        /* \"contracts/cropsFarmer.sol\":9863:9866  tax */\n      dup5\n        /* \"contracts/cropsFarmer.sol\":9863:9870  tax.mul */\n      tag_440\n      swap1\n        /* \"contracts/cropsFarmer.sol\":9863:9873  tax.mul(1) */\n      swap2\n      swap1\n      0xffffffff\n      and\n      jump\t// in\n    tag_693:\n        /* \"contracts/cropsFarmer.sol\":9853:9858  mktng */\n      dup3\n        /* \"contracts/cropsFarmer.sol\":9853:9862  mktng.add */\n      tag_417\n      swap1\n        /* \"contracts/cropsFarmer.sol\":9853:9874  mktng.add(tax.mul(1)) */\n      swap2\n      swap1\n      0xffffffff\n      and\n      jump\t// in\n    tag_692:\n        /* \"contracts/cropsFarmer.sol\":9846:9874  return mktng.add(tax.mul(1)) */\n      swap3\n      pop\n      pop\n      pop\n        /* \"contracts/cropsFarmer.sol\":9463:9881  function payFees(uint256 eggValue) internal returns(uint256){... */\n      swap2\n      swap1\n      pop\n      jump\t// out\n        /* \"contracts/cropsFarmer.sol\":14175:14278  function min(uint256 a, uint256 b) private pure returns (uint256) {... */\n    tag_601:\n        /* \"contracts/cropsFarmer.sol\":14232:14239  uint256 */\n      0x00\n        /* \"contracts/cropsFarmer.sol\":14262:14263  b */\n      dup2\n        /* \"contracts/cropsFarmer.sol\":14258:14259  a */\n      dup4\n        /* \"contracts/cropsFarmer.sol\":14258:14263  a < b */\n      lt\n        /* \"contracts/cropsFarmer.sol\":14258:14271  a < b ? a : b */\n      tag_695\n      jumpi\n        /* \"contracts/cropsFarmer.sol\":14270:14271  b */\n      dup2\n        /* \"contracts/cropsFarmer.sol\":14258:14271  a < b ? a : b */\n      jump(tag_696)\n    tag_695:\n        /* \"contracts/cropsFarmer.sol\":14266:14267  a */\n      dup3\n        /* \"contracts/cropsFarmer.sol\":14258:14271  a < b ? a : b */\n    tag_696:\n        /* \"contracts/cropsFarmer.sol\":14251:14271  return a < b ? a : b */\n      swap1\n      pop\n        /* \"contracts/cropsFarmer.sol\":14175:14278  function min(uint256 a, uint256 b) private pure returns (uint256) {... */\n      swap3\n      swap2\n      pop\n      pop\n      jump\t// out\n        /* \"#utility.yul\":7:84   */\n    tag_697:\n        /* \"#utility.yul\":44:51   */\n      0x00\n        /* \"#utility.yul\":73:78   */\n      dup2\n        /* \"#utility.yul\":62:78   */\n      swap1\n      pop\n        /* \"#utility.yul\":7:84   */\n      swap2\n      swap1\n      pop\n      jump\t// out\n        /* \"#utility.yul\":90:208   */\n    tag_698:\n        /* \"#utility.yul\":177:201   */\n      tag_739\n        /* \"#utility.yul\":195:200   */\n      dup2\n        /* \"#utility.yul\":177:201   */\n      tag_697\n      jump\t// in\n    tag_739:\n        /* \"#utility.yul\":172:175   */\n      dup3\n        /* \"#utility.yul\":165:202   */\n      mstore\n        /* \"#utility.yul\":90:208   */\n      pop\n      pop\n      jump\t// out\n        /* \"#utility.yul\":214:436   */\n    tag_94:\n        /* \"#utility.yul\":307:311   */\n      0x00\n        /* \"#utility.yul\":345:347   */\n      0x20\n        /* \"#utility.yul\":334:343   */\n      dup3\n        /* \"#utility.yul\":330:348   */\n      add\n        /* \"#utility.yul\":322:348   */\n      swap1\n      pop\n        /* \"#utility.yul\":358:429   */\n      tag_741\n        /* \"#utility.yul\":426:427   */\n      0x00\n        /* \"#utility.yul\":415:424   */\n      dup4\n        /* \"#utility.yul\":411:428   */\n      add\n        /* \"#utility.yul\":402:408   */\n      dup5\n        /* \"#utility.yul\":358:429   */\n      tag_698\n      jump\t// in\n    tag_741:\n        /* \"#utility.yul\":214:436   */\n      swap3\n      swap2\n      pop\n      pop\n      jump\t// out\n        /* \"#utility.yul\":442:568   */\n    tag_699:\n        /* \"#utility.yul\":479:486   */\n      0x00\n        /* \"#utility.yul\":519:561   */\n      0xffffffffffffffffffffffffffffffffffffffff\n        /* \"#utility.yul\":512:517   */\n      dup3\n        /* \"#utility.yul\":508:562   */\n      and\n        /* \"#utility.yul\":497:562   */\n      swap1\n      pop\n        /* \"#utility.yul\":442:568   */\n      swap2\n      swap1\n      pop\n      jump\t// out\n        /* \"#utility.yul\":574:678   */\n    tag_700:\n        /* \"#utility.yul\":619:626   */\n      0x00\n        /* \"#utility.yul\":648:672   */\n      tag_744\n        /* \"#utility.yul\":666:671   */\n      dup3\n        /* \"#utility.yul\":648:672   */\n      tag_699\n      jump\t// in\n    tag_744:\n        /* \"#utility.yul\":637:672   */\n      swap1\n      pop\n        /* \"#utility.yul\":574:678   */\n      swap2\n      swap1\n      pop\n      jump\t// out\n        /* \"#utility.yul\":684:826   */\n    tag_701:\n        /* \"#utility.yul\":787:819   */\n      tag_746\n        /* \"#utility.yul\":813:818   */\n      dup2\n        /* \"#utility.yul\":787:819   */\n      tag_700\n      jump\t// in\n    tag_746:\n        /* \"#utility.yul\":782:785   */\n      dup3\n        /* \"#utility.yul\":775:820   */\n      mstore\n        /* \"#utility.yul\":684:826   */\n      pop\n      pop\n      jump\t// out\n        /* \"#utility.yul\":832:1086   */\n    tag_103:\n        /* \"#utility.yul\":941:945   */\n      0x00\n        /* \"#utility.yul\":979:981   */\n      0x20\n        /* \"#utility.yul\":968:977   */\n      dup3\n        /* \"#utility.yul\":964:982   */\n      add\n        /* \"#utility.yul\":956:982   */\n      swap1\n      pop\n        /* \"#utility.yul\":992:1079   */\n      tag_748\n        /* \"#utility.yul\":1076:1077   */\n      0x00\n        /* \"#utility.yul\":1065:1074   */\n      dup4\n        /* \"#utility.yul\":1061:1078   */\n      add\n        /* \"#utility.yul\":1052:1058   */\n      dup5\n        /* \"#utility.yul\":992:1079   */\n      tag_701\n      jump\t// in\n    tag_748:\n        /* \"#utility.yul\":832:1086   */\n      swap3\n      swap2\n      pop\n      pop\n      jump\t// out\n        /* \"#utility.yul\":1173:1290   */\n    tag_703:\n        /* \"#utility.yul\":1282:1283   */\n      0x00\n        /* \"#utility.yul\":1279:1280   */\n      dup1\n        /* \"#utility.yul\":1272:1284   */\n      revert\n        /* \"#utility.yul\":1296:1413   */\n    tag_704:\n        /* \"#utility.yul\":1405:1406   */\n      0x00\n        /* \"#utility.yul\":1402:1403   */\n      dup1\n        /* \"#utility.yul\":1395:1407   */\n      revert\n        /* \"#utility.yul\":1419:1509   */\n    tag_705:\n        /* \"#utility.yul\":1453:1460   */\n      0x00\n        /* \"#utility.yul\":1496:1501   */\n      dup2\n        /* \"#utility.yul\":1489:1502   */\n      iszero\n        /* \"#utility.yul\":1482:1503   */\n      iszero\n        /* \"#utility.yul\":1471:1503   */\n      swap1\n      pop\n        /* \"#utility.yul\":1419:1509   */\n      swap2\n      swap1\n      pop\n      jump\t// out\n        /* \"#utility.yul\":1515:1631   */\n    tag_706:\n        /* \"#utility.yul\":1585:1606   */\n      tag_754\n        /* \"#utility.yul\":1600:1605   */\n      dup2\n        /* \"#utility.yul\":1585:1606   */\n      tag_705\n      jump\t// in\n    tag_754:\n        /* \"#utility.yul\":1578:1583   */\n      dup2\n        /* \"#utility.yul\":1575:1607   */\n      eq\n        /* \"#utility.yul\":1565:1625   */\n      tag_755\n      jumpi\n        /* \"#utility.yul\":1621:1622   */\n      0x00\n        /* \"#utility.yul\":1618:1619   */\n      dup1\n        /* \"#utility.yul\":1611:1623   */\n      revert\n        /* \"#utility.yul\":1565:1625   */\n    tag_755:\n        /* \"#utility.yul\":1515:1631   */\n      pop\n      jump\t// out\n        /* \"#utility.yul\":1637:1770   */\n    tag_707:\n        /* \"#utility.yul\":1680:1685   */\n      0x00\n        /* \"#utility.yul\":1718:1724   */\n      dup2\n        /* \"#utility.yul\":1705:1725   */\n      calldataload\n        /* \"#utility.yul\":1696:1725   */\n      swap1\n      pop\n        /* \"#utility.yul\":1734:1764   */\n      tag_757\n        /* \"#utility.yul\":1758:1763   */\n      dup2\n        /* \"#utility.yul\":1734:1764   */\n      tag_706\n      jump\t// in\n    tag_757:\n        /* \"#utility.yul\":1637:1770   */\n      swap3\n      swap2\n      pop\n      pop\n      jump\t// out\n        /* \"#utility.yul\":1776:2099   */\n    tag_119:\n        /* \"#utility.yul\":1832:1838   */\n      0x00\n        /* \"#utility.yul\":1881:1883   */\n      0x20\n        /* \"#utility.yul\":1869:1878   */\n      dup3\n        /* \"#utility.yul\":1860:1867   */\n      dup5\n        /* \"#utility.yul\":1856:1879   */\n      sub\n        /* \"#utility.yul\":1852:1884   */\n      slt\n        /* \"#utility.yul\":1849:1968   */\n      iszero\n      tag_759\n      jumpi\n        /* \"#utility.yul\":1887:1966   */\n      tag_760\n      tag_703\n      jump\t// in\n    tag_760:\n        /* \"#utility.yul\":1849:1968   */\n    tag_759:\n        /* \"#utility.yul\":2007:2008   */\n      0x00\n        /* \"#utility.yul\":2032:2082   */\n      tag_761\n        /* \"#utility.yul\":2074:2081   */\n      dup5\n        /* \"#utility.yul\":2065:2071   */\n      dup3\n        /* \"#utility.yul\":2054:2063   */\n      dup6\n        /* \"#utility.yul\":2050:2072   */\n      add\n        /* \"#utility.yul\":2032:2082   */\n      tag_707\n      jump\t// in\n    tag_761:\n        /* \"#utility.yul\":2022:2082   */\n      swap2\n      pop\n        /* \"#utility.yul\":1978:2092   */\n      pop\n        /* \"#utility.yul\":1776:2099   */\n      swap3\n      swap2\n      pop\n      pop\n      jump\t// out\n        /* \"#utility.yul\":2105:2227   */\n    tag_708:\n        /* \"#utility.yul\":2178:2202   */\n      tag_763\n        /* \"#utility.yul\":2196:2201   */\n      dup2\n        /* \"#utility.yul\":2178:2202   */\n      tag_697\n      jump\t// in\n    tag_763:\n        /* \"#utility.yul\":2171:2176   */\n      dup2\n        /* \"#utility.yul\":2168:2203   */\n      eq\n        /* \"#utility.yul\":2158:2221   */\n      tag_764\n      jumpi\n        /* \"#utility.yul\":2217:2218   */\n      0x00\n        /* \"#utility.yul\":2214:2215   */\n      dup1\n        /* \"#utility.yul\":2207:2219   */\n      revert\n        /* \"#utility.yul\":2158:2221   */\n    tag_764:\n        /* \"#utility.yul\":2105:2227   */\n      pop\n      jump\t// out\n        /* \"#utility.yul\":2233:2372   */\n    tag_709:\n        /* \"#utility.yul\":2279:2284   */\n      0x00\n        /* \"#utility.yul\":2317:2323   */\n      dup2\n        /* \"#utility.yul\":2304:2324   */\n      calldataload\n        /* \"#utility.yul\":2295:2324   */\n      swap1\n      pop\n        /* \"#utility.yul\":2333:2366   */\n      tag_766\n        /* \"#utility.yul\":2360:2365   */\n      dup2\n        /* \"#utility.yul\":2333:2366   */\n      tag_708\n      jump\t// in\n    tag_766:\n        /* \"#utility.yul\":2233:2372   */\n      swap3\n      swap2\n      pop\n      pop\n      jump\t// out\n        /* \"#utility.yul\":2378:2707   */\n    tag_128:\n        /* \"#utility.yul\":2437:2443   */\n      0x00\n        /* \"#utility.yul\":2486:2488   */\n      0x20\n        /* \"#utility.yul\":2474:2483   */\n      dup3\n        /* \"#utility.yul\":2465:2472   */\n      dup5\n        /* \"#utility.yul\":2461:2484   */\n      sub\n        /* \"#utility.yul\":2457:2489   */\n      slt\n        /* \"#utility.yul\":2454:2573   */\n      iszero\n      tag_768\n      jumpi\n        /* \"#utility.yul\":2492:2571   */\n      tag_769\n      tag_703\n      jump\t// in\n    tag_769:\n        /* \"#utility.yul\":2454:2573   */\n    tag_768:\n        /* \"#utility.yul\":2612:2613   */\n      0x00\n        /* \"#utility.yul\":2637:2690   */\n      tag_770\n        /* \"#utility.yul\":2682:2689   */\n      dup5\n        /* \"#utility.yul\":2673:2679   */\n      dup3\n        /* \"#utility.yul\":2662:2671   */\n      dup6\n        /* \"#utility.yul\":2658:2680   */\n      add\n        /* \"#utility.yul\":2637:2690   */\n      tag_709\n      jump\t// in\n    tag_770:\n        /* \"#utility.yul\":2627:2690   */\n      swap2\n      pop\n        /* \"#utility.yul\":2583:2700   */\n      pop\n        /* \"#utility.yul\":2378:2707   */\n      swap3\n      swap2\n      pop\n      pop\n      jump\t// out\n        /* \"#utility.yul\":2713:2809   */\n    tag_710:\n        /* \"#utility.yul\":2750:2757   */\n      0x00\n        /* \"#utility.yul\":2779:2803   */\n      tag_772\n        /* \"#utility.yul\":2797:2802   */\n      dup3\n        /* \"#utility.yul\":2779:2803   */\n      tag_699\n      jump\t// in\n    tag_772:\n        /* \"#utility.yul\":2768:2803   */\n      swap1\n      pop\n        /* \"#utility.yul\":2713:2809   */\n      swap2\n      swap1\n      pop\n      jump\t// out\n        /* \"#utility.yul\":2815:2937   */\n    tag_711:\n        /* \"#utility.yul\":2888:2912   */\n      tag_774\n        /* \"#utility.yul\":2906:2911   */\n      dup2\n        /* \"#utility.yul\":2888:2912   */\n      tag_710\n      jump\t// in\n    tag_774:\n        /* \"#utility.yul\":2881:2886   */\n      dup2\n        /* \"#utility.yul\":2878:2913   */\n      eq\n        /* \"#utility.yul\":2868:2931   */\n      tag_775\n      jumpi\n        /* \"#utility.yul\":2927:2928   */\n      0x00\n        /* \"#utility.yul\":2924:2925   */\n      dup1\n        /* \"#utility.yul\":2917:2929   */\n      revert\n        /* \"#utility.yul\":2868:2931   */\n    tag_775:\n        /* \"#utility.yul\":2815:2937   */\n      pop\n      jump\t// out\n        /* \"#utility.yul\":2943:3082   */\n    tag_712:\n        /* \"#utility.yul\":2989:2994   */\n      0x00\n        /* \"#utility.yul\":3027:3033   */\n      dup2\n        /* \"#utility.yul\":3014:3034   */\n      calldataload\n        /* \"#utility.yul\":3005:3034   */\n      swap1\n      pop\n        /* \"#utility.yul\":3043:3076   */\n      tag_777\n        /* \"#utility.yul\":3070:3075   */\n      dup2\n        /* \"#utility.yul\":3043:3076   */\n      tag_711\n      jump\t// in\n    tag_777:\n        /* \"#utility.yul\":2943:3082   */\n      swap3\n      swap2\n      pop\n      pop\n      jump\t// out\n        /* \"#utility.yul\":3088:3417   */\n    tag_133:\n        /* \"#utility.yul\":3147:3153   */\n      0x00\n        /* \"#utility.yul\":3196:3198   */\n      0x20\n        /* \"#utility.yul\":3184:3193   */\n      dup3\n        /* \"#utility.yul\":3175:3182   */\n      dup5\n        /* \"#utility.yul\":3171:3194   */\n      sub\n        /* \"#utility.yul\":3167:3199   */\n      slt\n        /* \"#utility.yul\":3164:3283   */\n      iszero\n      tag_779\n      jumpi\n        /* \"#utility.yul\":3202:3281   */\n      tag_780\n      tag_703\n      jump\t// in\n    tag_780:\n        /* \"#utility.yul\":3164:3283   */\n    tag_779:\n        /* \"#utility.yul\":3322:3323   */\n      0x00\n        /* \"#utility.yul\":3347:3400   */\n      tag_781\n        /* \"#utility.yul\":3392:3399   */\n      dup5\n        /* \"#utility.yul\":3383:3389   */\n      dup3\n        /* \"#utility.yul\":3372:3381   */\n      dup6\n        /* \"#utility.yul\":3368:3390   */\n      add\n        /* \"#utility.yul\":3347:3400   */\n      tag_712\n      jump\t// in\n    tag_781:\n        /* \"#utility.yul\":3337:3400   */\n      swap2\n      pop\n        /* \"#utility.yul\":3293:3410   */\n      pop\n        /* \"#utility.yul\":3088:3417   */\n      swap3\n      swap2\n      pop\n      pop\n      jump\t// out\n        /* \"#utility.yul\":3423:4042   */\n    tag_139:\n        /* \"#utility.yul\":3500:3506   */\n      0x00\n        /* \"#utility.yul\":3508:3514   */\n      dup1\n        /* \"#utility.yul\":3516:3522   */\n      0x00\n        /* \"#utility.yul\":3565:3567   */\n      0x60\n        /* \"#utility.yul\":3553:3562   */\n      dup5\n        /* \"#utility.yul\":3544:3551   */\n      dup7\n        /* \"#utility.yul\":3540:3563   */\n      sub\n        /* \"#utility.yul\":3536:3568   */\n      slt\n        /* \"#utility.yul\":3533:3652   */\n      iszero\n      tag_783\n      jumpi\n        /* \"#utility.yul\":3571:3650   */\n      tag_784\n      tag_703\n      jump\t// in\n    tag_784:\n        /* \"#utility.yul\":3533:3652   */\n    tag_783:\n        /* \"#utility.yul\":3691:3692   */\n      0x00\n        /* \"#utility.yul\":3716:3769   */\n      tag_785\n        /* \"#utility.yul\":3761:3768   */\n      dup7\n        /* \"#utility.yul\":3752:3758   */\n      dup3\n        /* \"#utility.yul\":3741:3750   */\n      dup8\n        /* \"#utility.yul\":3737:3759   */\n      add\n        /* \"#utility.yul\":3716:3769   */\n      tag_709\n      jump\t// in\n    tag_785:\n        /* \"#utility.yul\":3706:3769   */\n      swap4\n      pop\n        /* \"#utility.yul\":3662:3779   */\n      pop\n        /* \"#utility.yul\":3818:3820   */\n      0x20\n        /* \"#utility.yul\":3844:3897   */\n      tag_786\n        /* \"#utility.yul\":3889:3896   */\n      dup7\n        /* \"#utility.yul\":3880:3886   */\n      dup3\n        /* \"#utility.yul\":3869:3878   */\n      dup8\n        /* \"#utility.yul\":3865:3887   */\n      add\n        /* \"#utility.yul\":3844:3897   */\n      tag_709\n      jump\t// in\n    tag_786:\n        /* \"#utility.yul\":3834:3897   */\n      swap3\n      pop\n        /* \"#utility.yul\":3789:3907   */\n      pop\n        /* \"#utility.yul\":3946:3948   */\n      0x40\n        /* \"#utility.yul\":3972:4025   */\n      tag_787\n        /* \"#utility.yul\":4017:4024   */\n      dup7\n        /* \"#utility.yul\":4008:4014   */\n      dup3\n        /* \"#utility.yul\":3997:4006   */\n      dup8\n        /* \"#utility.yul\":3993:4015   */\n      add\n        /* \"#utility.yul\":3972:4025   */\n      tag_709\n      jump\t// in\n    tag_787:\n        /* \"#utility.yul\":3962:4025   */\n      swap2\n      pop\n        /* \"#utility.yul\":3917:4035   */\n      pop\n        /* \"#utility.yul\":3423:4042   */\n      swap3\n      pop\n      swap3\n      pop\n      swap3\n      jump\t// out\n        /* \"#utility.yul\":4048:4522   */\n    tag_149:\n        /* \"#utility.yul\":4116:4122   */\n      0x00\n        /* \"#utility.yul\":4124:4130   */\n      dup1\n        /* \"#utility.yul\":4173:4175   */\n      0x40\n        /* \"#utility.yul\":4161:4170   */\n      dup4\n        /* \"#utility.yul\":4152:4159   */\n      dup6\n        /* \"#utility.yul\":4148:4171   */\n      sub\n        /* \"#utility.yul\":4144:4176   */\n      slt\n        /* \"#utility.yul\":4141:4260   */\n      iszero\n      tag_789\n      jumpi\n        /* \"#utility.yul\":4179:4258   */\n      tag_790\n      tag_703\n      jump\t// in\n    tag_790:\n        /* \"#utility.yul\":4141:4260   */\n    tag_789:\n        /* \"#utility.yul\":4299:4300   */\n      0x00\n        /* \"#utility.yul\":4324:4377   */\n      tag_791\n        /* \"#utility.yul\":4369:4376   */\n      dup6\n        /* \"#utility.yul\":4360:4366   */\n      dup3\n        /* \"#utility.yul\":4349:4358   */\n      dup7\n        /* \"#utility.yul\":4345:4367   */\n      add\n        /* \"#utility.yul\":4324:4377   */\n      tag_709\n      jump\t// in\n    tag_791:\n        /* \"#utility.yul\":4314:4377   */\n      swap3\n      pop\n        /* \"#utility.yul\":4270:4387   */\n      pop\n        /* \"#utility.yul\":4426:4428   */\n      0x20\n        /* \"#utility.yul\":4452:4505   */\n      tag_792\n        /* \"#utility.yul\":4497:4504   */\n      dup6\n        /* \"#utility.yul\":4488:4494   */\n      dup3\n        /* \"#utility.yul\":4477:4486   */\n      dup7\n        /* \"#utility.yul\":4473:4495   */\n      add\n        /* \"#utility.yul\":4452:4505   */\n      tag_709\n      jump\t// in\n    tag_792:\n        /* \"#utility.yul\":4442:4505   */\n      swap2\n      pop\n        /* \"#utility.yul\":4397:4515   */\n      pop\n        /* \"#utility.yul\":4048:4522   */\n      swap3\n      pop\n      swap3\n      swap1\n      pop\n      jump\t// out\n        /* \"#utility.yul\":4528:4637   */\n    tag_713:\n        /* \"#utility.yul\":4609:4630   */\n      tag_794\n        /* \"#utility.yul\":4624:4629   */\n      dup2\n        /* \"#utility.yul\":4609:4630   */\n      tag_705\n      jump\t// in\n    tag_794:\n        /* \"#utility.yul\":4604:4607   */\n      dup3\n        /* \"#utility.yul\":4597:4631   */\n      mstore\n        /* \"#utility.yul\":4528:4637   */\n      pop\n      pop\n      jump\t// out\n        /* \"#utility.yul\":4643:4853   */\n    tag_172:\n        /* \"#utility.yul\":4730:4734   */\n      0x00\n        /* \"#utility.yul\":4768:4770   */\n      0x20\n        /* \"#utility.yul\":4757:4766   */\n      dup3\n        /* \"#utility.yul\":4753:4771   */\n      add\n        /* \"#utility.yul\":4745:4771   */\n      swap1\n      pop\n        /* \"#utility.yul\":4781:4846   */\n      tag_796\n        /* \"#utility.yul\":4843:4844   */\n      0x00\n        /* \"#utility.yul\":4832:4841   */\n      dup4\n        /* \"#utility.yul\":4828:4845   */\n      add\n        /* \"#utility.yul\":4819:4825   */\n      dup5\n        /* \"#utility.yul\":4781:4846   */\n      tag_713\n      jump\t// in\n    tag_796:\n        /* \"#utility.yul\":4643:4853   */\n      swap3\n      swap2\n      pop\n      pop\n      jump\t// out\n        /* \"#utility.yul\":4859:5412   */\n    tag_197:\n        /* \"#utility.yul\":5036:5040   */\n      0x00\n        /* \"#utility.yul\":5074:5077   */\n      0x80\n        /* \"#utility.yul\":5063:5072   */\n      dup3\n        /* \"#utility.yul\":5059:5078   */\n      add\n        /* \"#utility.yul\":5051:5078   */\n      swap1\n      pop\n        /* \"#utility.yul\":5088:5159   */\n      tag_798\n        /* \"#utility.yul\":5156:5157   */\n      0x00\n        /* \"#utility.yul\":5145:5154   */\n      dup4\n        /* \"#utility.yul\":5141:5158   */\n      add\n        /* \"#utility.yul\":5132:5138   */\n      dup8\n        /* \"#utility.yul\":5088:5159   */\n      tag_698\n      jump\t// in\n    tag_798:\n        /* \"#utility.yul\":5169:5241   */\n      tag_799\n        /* \"#utility.yul\":5237:5239   */\n      0x20\n        /* \"#utility.yul\":5226:5235   */\n      dup4\n        /* \"#utility.yul\":5222:5240   */\n      add\n        /* \"#utility.yul\":5213:5219   */\n      dup7\n        /* \"#utility.yul\":5169:5241   */\n      tag_698\n      jump\t// in\n    tag_799:\n        /* \"#utility.yul\":5251:5323   */\n      tag_800\n        /* \"#utility.yul\":5319:5321   */\n      0x40\n        /* \"#utility.yul\":5308:5317   */\n      dup4\n        /* \"#utility.yul\":5304:5322   */\n      add\n        /* \"#utility.yul\":5295:5301   */\n      dup6\n        /* \"#utility.yul\":5251:5323   */\n      tag_698\n      jump\t// in\n    tag_800:\n        /* \"#utility.yul\":5333:5405   */\n      tag_801\n        /* \"#utility.yul\":5401:5403   */\n      0x60\n        /* \"#utility.yul\":5390:5399   */\n      dup4\n        /* \"#utility.yul\":5386:5404   */\n      add\n        /* \"#utility.yul\":5377:5383   */\n      dup5\n        /* \"#utility.yul\":5333:5405   */\n      tag_698\n      jump\t// in\n    tag_801:\n        /* \"#utility.yul\":4859:5412   */\n      swap6\n      swap5\n      pop\n      pop\n      pop\n      pop\n      pop\n      jump\t// out\n        /* \"#utility.yul\":5418:5892   */\n    tag_201:\n        /* \"#utility.yul\":5486:5492   */\n      0x00\n        /* \"#utility.yul\":5494:5500   */\n      dup1\n        /* \"#utility.yul\":5543:5545   */\n      0x40\n        /* \"#utility.yul\":5531:5540   */\n      dup4\n        /* \"#utility.yul\":5522:5529   */\n      dup6\n        /* \"#utility.yul\":5518:5541   */\n      sub\n        /* \"#utility.yul\":5514:5546   */\n      slt\n        /* \"#utility.yul\":5511:5630   */\n      iszero\n      tag_803\n      jumpi\n        /* \"#utility.yul\":5549:5628   */\n      tag_804\n      tag_703\n      jump\t// in\n    tag_804:\n        /* \"#utility.yul\":5511:5630   */\n    tag_803:\n        /* \"#utility.yul\":5669:5670   */\n      0x00\n        /* \"#utility.yul\":5694:5747   */\n      tag_805\n        /* \"#utility.yul\":5739:5746   */\n      dup6\n        /* \"#utility.yul\":5730:5736   */\n      dup3\n        /* \"#utility.yul\":5719:5728   */\n      dup7\n        /* \"#utility.yul\":5715:5737   */\n      add\n        /* \"#utility.yul\":5694:5747   */\n      tag_712\n      jump\t// in\n    tag_805:\n        /* \"#utility.yul\":5684:5747   */\n      swap3\n      pop\n        /* \"#utility.yul\":5640:5757   */\n      pop\n        /* \"#utility.yul\":5796:5798   */\n      0x20\n        /* \"#utility.yul\":5822:5875   */\n      tag_806\n        /* \"#utility.yul\":5867:5874   */\n      dup6\n        /* \"#utility.yul\":5858:5864   */\n      dup3\n        /* \"#utility.yul\":5847:5856   */\n      dup7\n        /* \"#utility.yul\":5843:5865   */\n      add\n        /* \"#utility.yul\":5822:5875   */\n      tag_709\n      jump\t// in\n    tag_806:\n        /* \"#utility.yul\":5812:5875   */\n      swap2\n      pop\n        /* \"#utility.yul\":5767:5885   */\n      pop\n        /* \"#utility.yul\":5418:5892   */\n      swap3\n      pop\n      swap3\n      swap1\n      pop\n      jump\t// out\n        /* \"#utility.yul\":5898:6016   */\n    tag_714:\n        /* \"#utility.yul\":5985:6009   */\n      tag_808\n        /* \"#utility.yul\":6003:6008   */\n      dup2\n        /* \"#utility.yul\":5985:6009   */\n      tag_710\n      jump\t// in\n    tag_808:\n        /* \"#utility.yul\":5980:5983   */\n      dup3\n        /* \"#utility.yul\":5973:6010   */\n      mstore\n        /* \"#utility.yul\":5898:6016   */\n      pop\n      pop\n      jump\t// out\n        /* \"#utility.yul\":6022:7467   */\n    tag_223:\n        /* \"#utility.yul\":6425:6429   */\n      0x00\n        /* \"#utility.yul\":6463:6466   */\n      0x0180\n        /* \"#utility.yul\":6452:6461   */\n      dup3\n        /* \"#utility.yul\":6448:6467   */\n      add\n        /* \"#utility.yul\":6440:6467   */\n      swap1\n      pop\n        /* \"#utility.yul\":6477:6548   */\n      tag_810\n        /* \"#utility.yul\":6545:6546   */\n      0x00\n        /* \"#utility.yul\":6534:6543   */\n      dup4\n        /* \"#utility.yul\":6530:6547   */\n      add\n        /* \"#utility.yul\":6521:6527   */\n      dup16\n        /* \"#utility.yul\":6477:6548   */\n      tag_698\n      jump\t// in\n    tag_810:\n        /* \"#utility.yul\":6558:6630   */\n      tag_811\n        /* \"#utility.yul\":6626:6628   */\n      0x20\n        /* \"#utility.yul\":6615:6624   */\n      dup4\n        /* \"#utility.yul\":6611:6629   */\n      add\n        /* \"#utility.yul\":6602:6608   */\n      dup15\n        /* \"#utility.yul\":6558:6630   */\n      tag_698\n      jump\t// in\n    tag_811:\n        /* \"#utility.yul\":6640:6712   */\n      tag_812\n        /* \"#utility.yul\":6708:6710   */\n      0x40\n        /* \"#utility.yul\":6697:6706   */\n      dup4\n        /* \"#utility.yul\":6693:6711   */\n      add\n        /* \"#utility.yul\":6684:6690   */\n      dup14\n        /* \"#utility.yul\":6640:6712   */\n      tag_698\n      jump\t// in\n    tag_812:\n        /* \"#utility.yul\":6722:6794   */\n      tag_813\n        /* \"#utility.yul\":6790:6792   */\n      0x60\n        /* \"#utility.yul\":6779:6788   */\n      dup4\n        /* \"#utility.yul\":6775:6793   */\n      add\n        /* \"#utility.yul\":6766:6772   */\n      dup13\n        /* \"#utility.yul\":6722:6794   */\n      tag_698\n      jump\t// in\n    tag_813:\n        /* \"#utility.yul\":6804:6877   */\n      tag_814\n        /* \"#utility.yul\":6872:6875   */\n      0x80\n        /* \"#utility.yul\":6861:6870   */\n      dup4\n        /* \"#utility.yul\":6857:6876   */\n      add\n        /* \"#utility.yul\":6848:6854   */\n      dup12\n        /* \"#utility.yul\":6804:6877   */\n      tag_698\n      jump\t// in\n    tag_814:\n        /* \"#utility.yul\":6887:6960   */\n      tag_815\n        /* \"#utility.yul\":6955:6958   */\n      0xa0\n        /* \"#utility.yul\":6944:6953   */\n      dup4\n        /* \"#utility.yul\":6940:6959   */\n      add\n        /* \"#utility.yul\":6931:6937   */\n      dup11\n        /* \"#utility.yul\":6887:6960   */\n      tag_714\n      jump\t// in\n    tag_815:\n        /* \"#utility.yul\":6970:7043   */\n      tag_816\n        /* \"#utility.yul\":7038:7041   */\n      0xc0\n        /* \"#utility.yul\":7027:7036   */\n      dup4\n        /* \"#utility.yul\":7023:7042   */\n      add\n        /* \"#utility.yul\":7014:7020   */\n      dup10\n        /* \"#utility.yul\":6970:7043   */\n      tag_698\n      jump\t// in\n    tag_816:\n        /* \"#utility.yul\":7053:7126   */\n      tag_817\n        /* \"#utility.yul\":7121:7124   */\n      0xe0\n        /* \"#utility.yul\":7110:7119   */\n      dup4\n        /* \"#utility.yul\":7106:7125   */\n      add\n        /* \"#utility.yul\":7097:7103   */\n      dup9\n        /* \"#utility.yul\":7053:7126   */\n      tag_698\n      jump\t// in\n    tag_817:\n        /* \"#utility.yul\":7136:7209   */\n      tag_818\n        /* \"#utility.yul\":7204:7207   */\n      0x0100\n        /* \"#utility.yul\":7193:7202   */\n      dup4\n        /* \"#utility.yul\":7189:7208   */\n      add\n        /* \"#utility.yul\":7180:7186   */\n      dup8\n        /* \"#utility.yul\":7136:7209   */\n      tag_698\n      jump\t// in\n    tag_818:\n        /* \"#utility.yul\":7219:7292   */\n      tag_819\n        /* \"#utility.yul\":7287:7290   */\n      0x0120\n        /* \"#utility.yul\":7276:7285   */\n      dup4\n        /* \"#utility.yul\":7272:7291   */\n      add\n        /* \"#utility.yul\":7263:7269   */\n      dup7\n        /* \"#utility.yul\":7219:7292   */\n      tag_698\n      jump\t// in\n    tag_819:\n        /* \"#utility.yul\":7302:7376   */\n      tag_820\n        /* \"#utility.yul\":7371:7374   */\n      0x0140\n        /* \"#utility.yul\":7360:7369   */\n      dup4\n        /* \"#utility.yul\":7356:7375   */\n      add\n        /* \"#utility.yul\":7346:7353   */\n      dup6\n        /* \"#utility.yul\":7302:7376   */\n      tag_698\n      jump\t// in\n    tag_820:\n        /* \"#utility.yul\":7386:7460   */\n      tag_821\n        /* \"#utility.yul\":7455:7458   */\n      0x0160\n        /* \"#utility.yul\":7444:7453   */\n      dup4\n        /* \"#utility.yul\":7440:7459   */\n      add\n        /* \"#utility.yul\":7430:7437   */\n      dup5\n        /* \"#utility.yul\":7386:7460   */\n      tag_698\n      jump\t// in\n    tag_821:\n        /* \"#utility.yul\":6022:7467   */\n      swap14\n      swap13\n      pop\n      pop\n      pop\n      pop\n      pop\n      pop\n      pop\n      pop\n      pop\n      pop\n      pop\n      pop\n      pop\n      jump\t// out\n        /* \"#utility.yul\":7473:7695   */\n    tag_290:\n        /* \"#utility.yul\":7566:7570   */\n      0x00\n        /* \"#utility.yul\":7604:7606   */\n      0x20\n        /* \"#utility.yul\":7593:7602   */\n      dup3\n        /* \"#utility.yul\":7589:7607   */\n      add\n        /* \"#utility.yul\":7581:7607   */\n      swap1\n      pop\n        /* \"#utility.yul\":7617:7688   */\n      tag_823\n        /* \"#utility.yul\":7685:7686   */\n      0x00\n        /* \"#utility.yul\":7674:7683   */\n      dup4\n        /* \"#utility.yul\":7670:7687   */\n      add\n        /* \"#utility.yul\":7661:7667   */\n      dup5\n        /* \"#utility.yul\":7617:7688   */\n      tag_714\n      jump\t// in\n    tag_823:\n        /* \"#utility.yul\":7473:7695   */\n      swap3\n      swap2\n      pop\n      pop\n      jump\t// out\n        /* \"#utility.yul\":7701:8033   */\n    tag_337:\n        /* \"#utility.yul\":7822:7826   */\n      0x00\n        /* \"#utility.yul\":7860:7862   */\n      0x40\n        /* \"#utility.yul\":7849:7858   */\n      dup3\n        /* \"#utility.yul\":7845:7863   */\n      add\n        /* \"#utility.yul\":7837:7863   */\n      swap1\n      pop\n        /* \"#utility.yul\":7873:7944   */\n      tag_825\n        /* \"#utility.yul\":7941:7942   */\n      0x00\n        /* \"#utility.yul\":7930:7939   */\n      dup4\n        /* \"#utility.yul\":7926:7943   */\n      add\n        /* \"#utility.yul\":7917:7923   */\n      dup6\n        /* \"#utility.yul\":7873:7944   */\n      tag_698\n      jump\t// in\n    tag_825:\n        /* \"#utility.yul\":7954:8026   */\n      tag_826\n        /* \"#utility.yul\":8022:8024   */\n      0x20\n        /* \"#utility.yul\":8011:8020   */\n      dup4\n        /* \"#utility.yul\":8007:8025   */\n      add\n        /* \"#utility.yul\":7998:8004   */\n      dup5\n        /* \"#utility.yul\":7954:8026   */\n      tag_698\n      jump\t// in\n    tag_826:\n        /* \"#utility.yul\":7701:8033   */\n      swap4\n      swap3\n      pop\n      pop\n      pop\n      jump\t// out\n        /* \"#utility.yul\":8039:8507   */\n    tag_376:\n        /* \"#utility.yul\":8104:8110   */\n      0x00\n        /* \"#utility.yul\":8112:8118   */\n      dup1\n        /* \"#utility.yul\":8161:8163   */\n      0x40\n        /* \"#utility.yul\":8149:8158   */\n      dup4\n        /* \"#utility.yul\":8140:8147   */\n      dup6\n        /* \"#utility.yul\":8136:8159   */\n      sub\n        /* \"#utility.yul\":8132:8164   */\n      slt\n        /* \"#utility.yul\":8129:8248   */\n      iszero\n      tag_828\n      jumpi\n        /* \"#utility.yul\":8167:8246   */\n      tag_829\n      tag_703\n      jump\t// in\n    tag_829:\n        /* \"#utility.yul\":8129:8248   */\n    tag_828:\n        /* \"#utility.yul\":8287:8288   */\n      0x00\n        /* \"#utility.yul\":8312:8365   */\n      tag_830\n        /* \"#utility.yul\":8357:8364   */\n      dup6\n        /* \"#utility.yul\":8348:8354   */\n      dup3\n        /* \"#utility.yul\":8337:8346   */\n      dup7\n        /* \"#utility.yul\":8333:8355   */\n      add\n        /* \"#utility.yul\":8312:8365   */\n      tag_712\n      jump\t// in\n    tag_830:\n        /* \"#utility.yul\":8302:8365   */\n      swap3\n      pop\n        /* \"#utility.yul\":8258:8375   */\n      pop\n        /* \"#utility.yul\":8414:8416   */\n      0x20\n        /* \"#utility.yul\":8440:8490   */\n      tag_831\n        /* \"#utility.yul\":8482:8489   */\n      dup6\n        /* \"#utility.yul\":8473:8479   */\n      dup3\n        /* \"#utility.yul\":8462:8471   */\n      dup7\n        /* \"#utility.yul\":8458:8480   */\n      add\n        /* \"#utility.yul\":8440:8490   */\n      tag_707\n      jump\t// in\n    tag_831:\n        /* \"#utility.yul\":8430:8490   */\n      swap2\n      pop\n        /* \"#utility.yul\":8385:8500   */\n      pop\n        /* \"#utility.yul\":8039:8507   */\n      swap3\n      pop\n      swap3\n      swap1\n      pop\n      jump\t// out\n        /* \"#utility.yul\":8513:8630   */\n    tag_715:\n        /* \"#utility.yul\":8622:8623   */\n      0x00\n        /* \"#utility.yul\":8619:8620   */\n      dup1\n        /* \"#utility.yul\":8612:8624   */\n      revert\n        /* \"#utility.yul\":8636:8753   */\n    tag_716:\n        /* \"#utility.yul\":8745:8746   */\n      0x00\n        /* \"#utility.yul\":8742:8743   */\n      dup1\n        /* \"#utility.yul\":8735:8747   */\n      revert\n        /* \"#utility.yul\":8759:8876   */\n    tag_717:\n        /* \"#utility.yul\":8868:8869   */\n      0x00\n        /* \"#utility.yul\":8865:8866   */\n      dup1\n        /* \"#utility.yul\":8858:8870   */\n      revert\n        /* \"#utility.yul\":8899:9467   */\n    tag_718:\n        /* \"#utility.yul\":8972:8980   */\n      0x00\n        /* \"#utility.yul\":8982:8988   */\n      dup1\n        /* \"#utility.yul\":9032:9035   */\n      dup4\n        /* \"#utility.yul\":9025:9029   */\n      0x1f\n        /* \"#utility.yul\":9017:9023   */\n      dup5\n        /* \"#utility.yul\":9013:9030   */\n      add\n        /* \"#utility.yul\":9009:9036   */\n      slt\n        /* \"#utility.yul\":8999:9121   */\n      tag_836\n      jumpi\n        /* \"#utility.yul\":9040:9119   */\n      tag_837\n      tag_715\n      jump\t// in\n    tag_837:\n        /* \"#utility.yul\":8999:9121   */\n    tag_836:\n        /* \"#utility.yul\":9153:9159   */\n      dup3\n        /* \"#utility.yul\":9140:9160   */\n      calldataload\n        /* \"#utility.yul\":9130:9160   */\n      swap1\n      pop\n        /* \"#utility.yul\":9183:9201   */\n      0xffffffffffffffff\n        /* \"#utility.yul\":9175:9181   */\n      dup2\n        /* \"#utility.yul\":9172:9202   */\n      gt\n        /* \"#utility.yul\":9169:9286   */\n      iszero\n      tag_838\n      jumpi\n        /* \"#utility.yul\":9205:9284   */\n      tag_839\n      tag_716\n      jump\t// in\n    tag_839:\n        /* \"#utility.yul\":9169:9286   */\n    tag_838:\n        /* \"#utility.yul\":9319:9323   */\n      0x20\n        /* \"#utility.yul\":9311:9317   */\n      dup4\n        /* \"#utility.yul\":9307:9324   */\n      add\n        /* \"#utility.yul\":9295:9324   */\n      swap2\n      pop\n        /* \"#utility.yul\":9373:9376   */\n      dup4\n        /* \"#utility.yul\":9365:9369   */\n      0x20\n        /* \"#utility.yul\":9357:9363   */\n      dup3\n        /* \"#utility.yul\":9353:9370   */\n      mul\n        /* \"#utility.yul\":9343:9351   */\n      dup4\n        /* \"#utility.yul\":9339:9371   */\n      add\n        /* \"#utility.yul\":9336:9377   */\n      gt\n        /* \"#utility.yul\":9333:9461   */\n      iszero\n      tag_840\n      jumpi\n        /* \"#utility.yul\":9380:9459   */\n      tag_841\n      tag_717\n      jump\t// in\n    tag_841:\n        /* \"#utility.yul\":9333:9461   */\n    tag_840:\n        /* \"#utility.yul\":8899:9467   */\n      swap3\n      pop\n      swap3\n      swap1\n      pop\n      jump\t// out\n        /* \"#utility.yul\":9473:10171   */\n    tag_396:\n        /* \"#utility.yul\":9565:9571   */\n      0x00\n        /* \"#utility.yul\":9573:9579   */\n      dup1\n        /* \"#utility.yul\":9581:9587   */\n      0x00\n        /* \"#utility.yul\":9630:9632   */\n      0x40\n        /* \"#utility.yul\":9618:9627   */\n      dup5\n        /* \"#utility.yul\":9609:9616   */\n      dup7\n        /* \"#utility.yul\":9605:9628   */\n      sub\n        /* \"#utility.yul\":9601:9633   */\n      slt\n        /* \"#utility.yul\":9598:9717   */\n      iszero\n      tag_843\n      jumpi\n        /* \"#utility.yul\":9636:9715   */\n      tag_844\n      tag_703\n      jump\t// in\n    tag_844:\n        /* \"#utility.yul\":9598:9717   */\n    tag_843:\n        /* \"#utility.yul\":9784:9785   */\n      0x00\n        /* \"#utility.yul\":9773:9782   */\n      dup5\n        /* \"#utility.yul\":9769:9786   */\n      add\n        /* \"#utility.yul\":9756:9787   */\n      calldataload\n        /* \"#utility.yul\":9814:9832   */\n      0xffffffffffffffff\n        /* \"#utility.yul\":9806:9812   */\n      dup2\n        /* \"#utility.yul\":9803:9833   */\n      gt\n        /* \"#utility.yul\":9800:9917   */\n      iszero\n      tag_845\n      jumpi\n        /* \"#utility.yul\":9836:9915   */\n      tag_846\n      tag_704\n      jump\t// in\n    tag_846:\n        /* \"#utility.yul\":9800:9917   */\n    tag_845:\n        /* \"#utility.yul\":9949:10029   */\n      tag_847\n        /* \"#utility.yul\":10021:10028   */\n      dup7\n        /* \"#utility.yul\":10012:10018   */\n      dup3\n        /* \"#utility.yul\":10001:10010   */\n      dup8\n        /* \"#utility.yul\":9997:10019   */\n      add\n        /* \"#utility.yul\":9949:10029   */\n      tag_718\n      jump\t// in\n    tag_847:\n        /* \"#utility.yul\":9931:10029   */\n      swap4\n      pop\n      swap4\n      pop\n        /* \"#utility.yul\":9727:10039   */\n      pop\n        /* \"#utility.yul\":10078:10080   */\n      0x20\n        /* \"#utility.yul\":10104:10154   */\n      tag_848\n        /* \"#utility.yul\":10146:10153   */\n      dup7\n        /* \"#utility.yul\":10137:10143   */\n      dup3\n        /* \"#utility.yul\":10126:10135   */\n      dup8\n        /* \"#utility.yul\":10122:10144   */\n      add\n        /* \"#utility.yul\":10104:10154   */\n      tag_707\n      jump\t// in\n    tag_848:\n        /* \"#utility.yul\":10094:10154   */\n      swap2\n      pop\n        /* \"#utility.yul\":10049:10164   */\n      pop\n        /* \"#utility.yul\":9473:10171   */\n      swap3\n      pop\n      swap3\n      pop\n      swap3\n      jump\t// out\n        /* \"#utility.yul\":10177:10346   */\n    tag_719:\n        /* \"#utility.yul\":10261:10272   */\n      0x00\n        /* \"#utility.yul\":10295:10301   */\n      dup3\n        /* \"#utility.yul\":10290:10293   */\n      dup3\n        /* \"#utility.yul\":10283:10302   */\n      mstore\n        /* \"#utility.yul\":10335:10339   */\n      0x20\n        /* \"#utility.yul\":10330:10333   */\n      dup3\n        /* \"#utility.yul\":10326:10340   */\n      add\n        /* \"#utility.yul\":10311:10340   */\n      swap1\n      pop\n        /* \"#utility.yul\":10177:10346   */\n      swap3\n      swap2\n      pop\n      pop\n      jump\t// out\n        /* \"#utility.yul\":10352:10527   */\n    tag_720:\n        /* \"#utility.yul\":10492:10519   */\n      0x436f6e7472616374206e6f742079657420537461727465642e00000000000000\n        /* \"#utility.yul\":10488:10489   */\n      0x00\n        /* \"#utility.yul\":10480:10486   */\n      dup3\n        /* \"#utility.yul\":10476:10490   */\n      add\n        /* \"#utility.yul\":10469:10520   */\n      mstore\n        /* \"#utility.yul\":10352:10527   */\n      pop\n      jump\t// out\n        /* \"#utility.yul\":10533:10899   */\n    tag_721:\n        /* \"#utility.yul\":10675:10678   */\n      0x00\n        /* \"#utility.yul\":10696:10763   */\n      tag_852\n        /* \"#utility.yul\":10760:10762   */\n      0x19\n        /* \"#utility.yul\":10755:10758   */\n      dup4\n        /* \"#utility.yul\":10696:10763   */\n      tag_719\n      jump\t// in\n    tag_852:\n        /* \"#utility.yul\":10689:10763   */\n      swap2\n      pop\n        /* \"#utility.yul\":10772:10865   */\n      tag_853\n        /* \"#utility.yul\":10861:10864   */\n      dup3\n        /* \"#utility.yul\":10772:10865   */\n      tag_720\n      jump\t// in\n    tag_853:\n        /* \"#utility.yul\":10890:10892   */\n      0x20\n        /* \"#utility.yul\":10885:10888   */\n      dup3\n        /* \"#utility.yul\":10881:10893   */\n      add\n        /* \"#utility.yul\":10874:10893   */\n      swap1\n      pop\n        /* \"#utility.yul\":10533:10899   */\n      swap2\n      swap1\n      pop\n      jump\t// out\n        /* \"#utility.yul\":10905:11324   */\n    tag_412:\n        /* \"#utility.yul\":11071:11075   */\n      0x00\n        /* \"#utility.yul\":11109:11111   */\n      0x20\n        /* \"#utility.yul\":11098:11107   */\n      dup3\n        /* \"#utility.yul\":11094:11112   */\n      add\n        /* \"#utility.yul\":11086:11112   */\n      swap1\n      pop\n        /* \"#utility.yul\":11158:11167   */\n      dup2\n        /* \"#utility.yul\":11152:11156   */\n      dup2\n        /* \"#utility.yul\":11148:11168   */\n      sub\n        /* \"#utility.yul\":11144:11145   */\n      0x00\n        /* \"#utility.yul\":11133:11142   */\n      dup4\n        /* \"#utility.yul\":11129:11146   */\n      add\n        /* \"#utility.yul\":11122:11169   */\n      mstore\n        /* \"#utility.yul\":11186:11317   */\n      tag_855\n        /* \"#utility.yul\":11312:11316   */\n      dup2\n        /* \"#utility.yul\":11186:11317   */\n      tag_721\n      jump\t// in\n    tag_855:\n        /* \"#utility.yul\":11178:11317   */\n      swap1\n      pop\n        /* \"#utility.yul\":10905:11324   */\n      swap2\n      swap1\n      pop\n      jump\t// out\n        /* \"#utility.yul\":11330:11495   */\n    tag_722:\n        /* \"#utility.yul\":11470:11487   */\n      0x41646d696e20757365206f6e6c792e0000000000000000000000000000000000\n        /* \"#utility.yul\":11466:11467   */\n      0x00\n        /* \"#utility.yul\":11458:11464   */\n      dup3\n        /* \"#utility.yul\":11454:11468   */\n      add\n        /* \"#utility.yul\":11447:11488   */\n      mstore\n        /* \"#utility.yul\":11330:11495   */\n      pop\n      jump\t// out\n        /* \"#utility.yul\":11501:11867   */\n    tag_723:\n        /* \"#utility.yul\":11643:11646   */\n      0x00\n        /* \"#utility.yul\":11664:11731   */\n      tag_858\n        /* \"#utility.yul\":11728:11730   */\n      0x0f\n        /* \"#utility.yul\":11723:11726   */\n      dup4\n        /* \"#utility.yul\":11664:11731   */\n      tag_719\n      jump\t// in\n    tag_858:\n        /* \"#utility.yul\":11657:11731   */\n      swap2\n      pop\n        /* \"#utility.yul\":11740:11833   */\n      tag_859\n        /* \"#utility.yul\":11829:11832   */\n      dup3\n        /* \"#utility.yul\":11740:11833   */\n      tag_722\n      jump\t// in\n    tag_859:\n        /* \"#utility.yul\":11858:11860   */\n      0x20\n        /* \"#utility.yul\":11853:11856   */\n      dup3\n        /* \"#utility.yul\":11849:11861   */\n      add\n        /* \"#utility.yul\":11842:11861   */\n      swap1\n      pop\n        /* \"#utility.yul\":11501:11867   */\n      swap2\n      swap1\n      pop\n      jump\t// out\n        /* \"#utility.yul\":11873:12292   */\n    tag_435:\n        /* \"#utility.yul\":12039:12043   */\n      0x00\n        /* \"#utility.yul\":12077:12079   */\n      0x20\n        /* \"#utility.yul\":12066:12075   */\n      dup3\n        /* \"#utility.yul\":12062:12080   */\n      add\n        /* \"#utility.yul\":12054:12080   */\n      swap1\n      pop\n        /* \"#utility.yul\":12126:12135   */\n      dup2\n        /* \"#utility.yul\":12120:12124   */\n      dup2\n        /* \"#utility.yul\":12116:12136   */\n      sub\n        /* \"#utility.yul\":12112:12113   */\n      0x00\n        /* \"#utility.yul\":12101:12110   */\n      dup4\n        /* \"#utility.yul\":12097:12114   */\n      add\n        /* \"#utility.yul\":12090:12137   */\n      mstore\n        /* \"#utility.yul\":12154:12285   */\n      tag_861\n        /* \"#utility.yul\":12280:12284   */\n      dup2\n        /* \"#utility.yul\":12154:12285   */\n      tag_723\n      jump\t// in\n    tag_861:\n        /* \"#utility.yul\":12146:12285   */\n      swap1\n      pop\n        /* \"#utility.yul\":11873:12292   */\n      swap2\n      swap1\n      pop\n      jump\t// out\n        /* \"#utility.yul\":12298:12462   */\n    tag_724:\n        /* \"#utility.yul\":12438:12454   */\n      0x41646d696e20757365206f6e6c79000000000000000000000000000000000000\n        /* \"#utility.yul\":12434:12435   */\n      0x00\n        /* \"#utility.yul\":12426:12432   */\n      dup3\n        /* \"#utility.yul\":12422:12436   */\n      add\n        /* \"#utility.yul\":12415:12455   */\n      mstore\n        /* \"#utility.yul\":12298:12462   */\n      pop\n      jump\t// out\n        /* \"#utility.yul\":12468:12834   */\n    tag_725:\n        /* \"#utility.yul\":12610:12613   */\n      0x00\n        /* \"#utility.yul\":12631:12698   */\n      tag_864\n        /* \"#utility.yul\":12695:12697   */\n      0x0e\n        /* \"#utility.yul\":12690:12693   */\n      dup4\n        /* \"#utility.yul\":12631:12698   */\n      tag_719\n      jump\t// in\n    tag_864:\n        /* \"#utility.yul\":12624:12698   */\n      swap2\n      pop\n        /* \"#utility.yul\":12707:12800   */\n      tag_865\n        /* \"#utility.yul\":12796:12799   */\n      dup3\n        /* \"#utility.yul\":12707:12800   */\n      tag_724\n      jump\t// in\n    tag_865:\n        /* \"#utility.yul\":12825:12827   */\n      0x20\n        /* \"#utility.yul\":12820:12823   */\n      dup3\n        /* \"#utility.yul\":12816:12828   */\n      add\n        /* \"#utility.yul\":12809:12828   */\n      swap1\n      pop\n        /* \"#utility.yul\":12468:12834   */\n      swap2\n      swap1\n      pop\n      jump\t// out\n        /* \"#utility.yul\":12840:13259   */\n    tag_461:\n        /* \"#utility.yul\":13006:13010   */\n      0x00\n        /* \"#utility.yul\":13044:13046   */\n      0x20\n        /* \"#utility.yul\":13033:13042   */\n      dup3\n        /* \"#utility.yul\":13029:13047   */\n      add\n        /* \"#utility.yul\":13021:13047   */\n      swap1\n      pop\n        /* \"#utility.yul\":13093:13102   */\n      dup2\n        /* \"#utility.yul\":13087:13091   */\n      dup2\n        /* \"#utility.yul\":13083:13103   */\n      sub\n        /* \"#utility.yul\":13079:13080   */\n      0x00\n        /* \"#utility.yul\":13068:13077   */\n      dup4\n        /* \"#utility.yul\":13064:13081   */\n      add\n        /* \"#utility.yul\":13057:13104   */\n      mstore\n        /* \"#utility.yul\":13121:13252   */\n      tag_867\n        /* \"#utility.yul\":13247:13251   */\n      dup2\n        /* \"#utility.yul\":13121:13252   */\n      tag_725\n      jump\t// in\n    tag_867:\n        /* \"#utility.yul\":13113:13252   */\n      swap1\n      pop\n        /* \"#utility.yul\":12840:13259   */\n      swap2\n      swap1\n      pop\n      jump\t// out\n        /* \"#utility.yul\":13265:13445   */\n    tag_726:\n        /* \"#utility.yul\":13313:13390   */\n      0x4e487b7100000000000000000000000000000000000000000000000000000000\n        /* \"#utility.yul\":13310:13311   */\n      0x00\n        /* \"#utility.yul\":13303:13391   */\n      mstore\n        /* \"#utility.yul\":13410:13414   */\n      0x11\n        /* \"#utility.yul\":13407:13408   */\n      0x04\n        /* \"#utility.yul\":13400:13415   */\n      mstore\n        /* \"#utility.yul\":13434:13438   */\n      0x24\n        /* \"#utility.yul\":13431:13432   */\n      0x00\n        /* \"#utility.yul\":13424:13439   */\n      revert\n        /* \"#utility.yul\":13451:13799   */\n    tag_464:\n        /* \"#utility.yul\":13491:13498   */\n      0x00\n        /* \"#utility.yul\":13514:13534   */\n      tag_870\n        /* \"#utility.yul\":13532:13533   */\n      dup3\n        /* \"#utility.yul\":13514:13534   */\n      tag_697\n      jump\t// in\n    tag_870:\n        /* \"#utility.yul\":13509:13534   */\n      swap2\n      pop\n        /* \"#utility.yul\":13548:13568   */\n      tag_871\n        /* \"#utility.yul\":13566:13567   */\n      dup4\n        /* \"#utility.yul\":13548:13568   */\n      tag_697\n      jump\t// in\n    tag_871:\n        /* \"#utility.yul\":13543:13568   */\n      swap3\n      pop\n        /* \"#utility.yul\":13736:13737   */\n      dup2\n        /* \"#utility.yul\":13668:13734   */\n      0xffffffffffffffffffffffffffffffffffffffffffffffffffffffffffffffff\n        /* \"#utility.yul\":13664:13738   */\n      div\n        /* \"#utility.yul\":13661:13662   */\n      dup4\n        /* \"#utility.yul\":13658:13739   */\n      gt\n        /* \"#utility.yul\":13653:13654   */\n      dup3\n        /* \"#utility.yul\":13646:13655   */\n      iszero\n        /* \"#utility.yul\":13639:13656   */\n      iszero\n        /* \"#utility.yul\":13635:13740   */\n      and\n        /* \"#utility.yul\":13632:13763   */\n      iszero\n      tag_872\n      jumpi\n        /* \"#utility.yul\":13743:13761   */\n      tag_873\n      tag_726\n      jump\t// in\n    tag_873:\n        /* \"#utility.yul\":13632:13763   */\n    tag_872:\n        /* \"#utility.yul\":13791:13792   */\n      dup3\n        /* \"#utility.yul\":13788:13789   */\n      dup3\n        /* \"#utility.yul\":13784:13793   */\n      mul\n        /* \"#utility.yul\":13773:13793   */\n      swap1\n      pop\n        /* \"#utility.yul\":13451:13799   */\n      swap3\n      swap2\n      pop\n      pop\n      jump\t// out\n        /* \"#utility.yul\":13805:13982   */\n    tag_727:\n        /* \"#utility.yul\":13945:13974   */\n      0x4d696e696e756d20696e766573746d656e74206e6f74206d65742e0000000000\n        /* \"#utility.yul\":13941:13942   */\n      0x00\n        /* \"#utility.yul\":13933:13939   */\n      dup3\n        /* \"#utility.yul\":13929:13943   */\n      add\n        /* \"#utility.yul\":13922:13975   */\n      mstore\n        /* \"#utility.yul\":13805:13982   */\n      pop\n      jump\t// out\n        /* \"#utility.yul\":13988:14354   */\n    tag_728:\n        /* \"#utility.yul\":14130:14133   */\n      0x00\n        /* \"#utility.yul\":14151:14218   */\n      tag_876\n        /* \"#utility.yul\":14215:14217   */\n      0x1b\n        /* \"#utility.yul\":14210:14213   */\n      dup4\n        /* \"#utility.yul\":14151:14218   */\n      tag_719\n      jump\t// in\n    tag_876:\n        /* \"#utility.yul\":14144:14218   */\n      swap2\n      pop\n        /* \"#utility.yul\":14227:14320   */\n      tag_877\n        /* \"#utility.yul\":14316:14319   */\n      dup3\n        /* \"#utility.yul\":14227:14320   */\n      tag_727\n      jump\t// in\n    tag_877:\n        /* \"#utility.yul\":14345:14347   */\n      0x20\n        /* \"#utility.yul\":14340:14343   */\n      dup3\n        /* \"#utility.yul\":14336:14348   */\n      add\n        /* \"#utility.yul\":14329:14348   */\n      swap1\n      pop\n        /* \"#utility.yul\":13988:14354   */\n      swap2\n      swap1\n      pop\n      jump\t// out\n        /* \"#utility.yul\":14360:14779   */\n    tag_481:\n        /* \"#utility.yul\":14526:14530   */\n      0x00\n        /* \"#utility.yul\":14564:14566   */\n      0x20\n        /* \"#utility.yul\":14553:14562   */\n      dup3\n        /* \"#utility.yul\":14549:14567   */\n      add\n        /* \"#utility.yul\":14541:14567   */\n      swap1\n      pop\n        /* \"#utility.yul\":14613:14622   */\n      dup2\n        /* \"#utility.yul\":14607:14611   */\n      dup2\n        /* \"#utility.yul\":14603:14623   */\n      sub\n        /* \"#utility.yul\":14599:14600   */\n      0x00\n        /* \"#utility.yul\":14588:14597   */\n      dup4\n        /* \"#utility.yul\":14584:14601   */\n      add\n        /* \"#utility.yul\":14577:14624   */\n      mstore\n        /* \"#utility.yul\":14641:14772   */\n      tag_879\n        /* \"#utility.yul\":14767:14771   */\n      dup2\n        /* \"#utility.yul\":14641:14772   */\n      tag_728\n      jump\t// in\n    tag_879:\n        /* \"#utility.yul\":14633:14772   */\n      swap1\n      pop\n        /* \"#utility.yul\":14360:14779   */\n      swap2\n      swap1\n      pop\n      jump\t// out\n        /* \"#utility.yul\":14785:14961   */\n    tag_729:\n        /* \"#utility.yul\":14925:14953   */\n      0x4d6178206465706f736974206c696d697420726561636865642e000000000000\n        /* \"#utility.yul\":14921:14922   */\n      0x00\n        /* \"#utility.yul\":14913:14919   */\n      dup3\n        /* \"#utility.yul\":14909:14923   */\n      add\n        /* \"#utility.yul\":14902:14954   */\n      mstore\n        /* \"#utility.yul\":14785:14961   */\n      pop\n      jump\t// out\n        /* \"#utility.yul\":14967:15333   */\n    tag_730:\n        /* \"#utility.yul\":15109:15112   */\n      0x00\n        /* \"#utility.yul\":15130:15197   */\n      tag_882\n        /* \"#utility.yul\":15194:15196   */\n      0x1a\n        /* \"#utility.yul\":15189:15192   */\n      dup4\n        /* \"#utility.yul\":15130:15197   */\n      tag_719\n      jump\t// in\n    tag_882:\n        /* \"#utility.yul\":15123:15197   */\n      swap2\n      pop\n        /* \"#utility.yul\":15206:15299   */\n      tag_883\n        /* \"#utility.yul\":15295:15298   */\n      dup3\n        /* \"#utility.yul\":15206:15299   */\n      tag_729\n      jump\t// in\n    tag_883:\n        /* \"#utility.yul\":15324:15326   */\n      0x20\n        /* \"#utility.yul\":15319:15322   */\n      dup3\n        /* \"#utility.yul\":15315:15327   */\n      add\n        /* \"#utility.yul\":15308:15327   */\n      swap1\n      pop\n        /* \"#utility.yul\":14967:15333   */\n      swap2\n      swap1\n      pop\n      jump\t// out\n        /* \"#utility.yul\":15339:15758   */\n    tag_485:\n        /* \"#utility.yul\":15505:15509   */\n      0x00\n        /* \"#utility.yul\":15543:15545   */\n      0x20\n        /* \"#utility.yul\":15532:15541   */\n      dup3\n        /* \"#utility.yul\":15528:15546   */\n      add\n        /* \"#utility.yul\":15520:15546   */\n      swap1\n      pop\n        /* \"#utility.yul\":15592:15601   */\n      dup2\n        /* \"#utility.yul\":15586:15590   */\n      dup2\n        /* \"#utility.yul\":15582:15602   */\n      sub\n        /* \"#utility.yul\":15578:15579   */\n      0x00\n        /* \"#utility.yul\":15567:15576   */\n      dup4\n        /* \"#utility.yul\":15563:15580   */\n      add\n        /* \"#utility.yul\":15556:15603   */\n      mstore\n        /* \"#utility.yul\":15620:15751   */\n      tag_885\n        /* \"#utility.yul\":15746:15750   */\n      dup2\n        /* \"#utility.yul\":15620:15751   */\n      tag_730\n      jump\t// in\n    tag_885:\n        /* \"#utility.yul\":15612:15751   */\n      swap1\n      pop\n        /* \"#utility.yul\":15339:15758   */\n      swap2\n      swap1\n      pop\n      jump\t// out\n        /* \"#utility.yul\":15764:15937   */\n    tag_731:\n        /* \"#utility.yul\":15904:15929   */\n      0x4164647265737320697320626c61636b6c69737465642e000000000000000000\n        /* \"#utility.yul\":15900:15901   */\n      0x00\n        /* \"#utility.yul\":15892:15898   */\n      dup3\n        /* \"#utility.yul\":15888:15902   */\n      add\n        /* \"#utility.yul\":15881:15930   */\n      mstore\n        /* \"#utility.yul\":15764:15937   */\n      pop\n      jump\t// out\n        /* \"#utility.yul\":15943:16309   */\n    tag_732:\n        /* \"#utility.yul\":16085:16088   */\n      0x00\n        /* \"#utility.yul\":16106:16173   */\n      tag_888\n        /* \"#utility.yul\":16170:16172   */\n      0x17\n        /* \"#utility.yul\":16165:16168   */\n      dup4\n        /* \"#utility.yul\":16106:16173   */\n      tag_719\n      jump\t// in\n    tag_888:\n        /* \"#utility.yul\":16099:16173   */\n      swap2\n      pop\n        /* \"#utility.yul\":16182:16275   */\n      tag_889\n        /* \"#utility.yul\":16271:16274   */\n      dup3\n        /* \"#utility.yul\":16182:16275   */\n      tag_731\n      jump\t// in\n    tag_889:\n        /* \"#utility.yul\":16300:16302   */\n      0x20\n        /* \"#utility.yul\":16295:16298   */\n      dup3\n        /* \"#utility.yul\":16291:16303   */\n      add\n        /* \"#utility.yul\":16284:16303   */\n      swap1\n      pop\n        /* \"#utility.yul\":15943:16309   */\n      swap2\n      swap1\n      pop\n      jump\t// out\n        /* \"#utility.yul\":16315:16734   */\n    tag_516:\n        /* \"#utility.yul\":16481:16485   */\n      0x00\n        /* \"#utility.yul\":16519:16521   */\n      0x20\n        /* \"#utility.yul\":16508:16517   */\n      dup3\n        /* \"#utility.yul\":16504:16522   */\n      add\n        /* \"#utility.yul\":16496:16522   */\n      swap1\n      pop\n        /* \"#utility.yul\":16568:16577   */\n      dup2\n        /* \"#utility.yul\":16562:16566   */\n      dup2\n        /* \"#utility.yul\":16558:16578   */\n      sub\n        /* \"#utility.yul\":16554:16555   */\n      0x00\n        /* \"#utility.yul\":16543:16552   */\n      dup4\n        /* \"#utility.yul\":16539:16556   */\n      add\n        /* \"#utility.yul\":16532:16579   */\n      mstore\n        /* \"#utility.yul\":16596:16727   */\n      tag_891\n        /* \"#utility.yul\":16722:16726   */\n      dup2\n        /* \"#utility.yul\":16596:16727   */\n      tag_732\n      jump\t// in\n    tag_891:\n        /* \"#utility.yul\":16588:16727   */\n      swap1\n      pop\n        /* \"#utility.yul\":16315:16734   */\n      swap2\n      swap1\n      pop\n      jump\t// out\n        /* \"#utility.yul\":16740:16915   */\n    tag_733:\n        /* \"#utility.yul\":16880:16907   */\n      0x436f6e7472616374206e6f742079657420737461727465642e00000000000000\n        /* \"#utility.yul\":16876:16877   */\n      0x00\n        /* \"#utility.yul\":16868:16874   */\n      dup3\n        /* \"#utility.yul\":16864:16878   */\n      add\n        /* \"#utility.yul\":16857:16908   */\n      mstore\n        /* \"#utility.yul\":16740:16915   */\n      pop\n      jump\t// out\n        /* \"#utility.yul\":16921:17287   */\n    tag_734:\n        /* \"#utility.yul\":17063:17066   */\n      0x00\n        /* \"#utility.yul\":17084:17151   */\n      tag_894\n        /* \"#utility.yul\":17148:17150   */\n      0x19\n        /* \"#utility.yul\":17143:17146   */\n      dup4\n        /* \"#utility.yul\":17084:17151   */\n      tag_719\n      jump\t// in\n    tag_894:\n        /* \"#utility.yul\":17077:17151   */\n      swap2\n      pop\n        /* \"#utility.yul\":17160:17253   */\n      tag_895\n        /* \"#utility.yul\":17249:17252   */\n      dup3\n        /* \"#utility.yul\":17160:17253   */\n      tag_733\n      jump\t// in\n    tag_895:\n        /* \"#utility.yul\":17278:17280   */\n      0x20\n        /* \"#utility.yul\":17273:17276   */\n      dup3\n        /* \"#utility.yul\":17269:17281   */\n      add\n        /* \"#utility.yul\":17262:17281   */\n      swap1\n      pop\n        /* \"#utility.yul\":16921:17287   */\n      swap2\n      swap1\n      pop\n      jump\t// out\n        /* \"#utility.yul\":17293:17712   */\n    tag_615:\n        /* \"#utility.yul\":17459:17463   */\n      0x00\n        /* \"#utility.yul\":17497:17499   */\n      0x20\n        /* \"#utility.yul\":17486:17495   */\n      dup3\n        /* \"#utility.yul\":17482:17500   */\n      add\n        /* \"#utility.yul\":17474:17500   */\n      swap1\n      pop\n        /* \"#utility.yul\":17546:17555   */\n      dup2\n        /* \"#utility.yul\":17540:17544   */\n      dup2\n        /* \"#utility.yul\":17536:17556   */\n      sub\n        /* \"#utility.yul\":17532:17533   */\n      0x00\n        /* \"#utility.yul\":17521:17530   */\n      dup4\n        /* \"#utility.yul\":17517:17534   */\n      add\n        /* \"#utility.yul\":17510:17557   */\n      mstore\n        /* \"#utility.yul\":17574:17705   */\n      tag_897\n        /* \"#utility.yul\":17700:17704   */\n      dup2\n        /* \"#utility.yul\":17574:17705   */\n      tag_734\n      jump\t// in\n    tag_897:\n        /* \"#utility.yul\":17566:17705   */\n      swap1\n      pop\n        /* \"#utility.yul\":17293:17712   */\n      swap2\n      swap1\n      pop\n      jump\t// out\n        /* \"#utility.yul\":17718:17898   */\n    tag_633:\n        /* \"#utility.yul\":17766:17843   */\n      0x4e487b7100000000000000000000000000000000000000000000000000000000\n        /* \"#utility.yul\":17763:17764   */\n      0x00\n        /* \"#utility.yul\":17756:17844   */\n      mstore\n        /* \"#utility.yul\":17863:17867   */\n      0x32\n        /* \"#utility.yul\":17860:17861   */\n      0x04\n        /* \"#utility.yul\":17853:17868   */\n      mstore\n        /* \"#utility.yul\":17887:17891   */\n      0x24\n        /* \"#utility.yul\":17884:17885   */\n      0x00\n        /* \"#utility.yul\":17877:17892   */\n      revert\n        /* \"#utility.yul\":17904:18137   */\n    tag_636:\n        /* \"#utility.yul\":17943:17946   */\n      0x00\n        /* \"#utility.yul\":17966:17990   */\n      tag_900\n        /* \"#utility.yul\":17984:17989   */\n      dup3\n        /* \"#utility.yul\":17966:17990   */\n      tag_697\n      jump\t// in\n    tag_900:\n        /* \"#utility.yul\":17957:17990   */\n      swap2\n      pop\n        /* \"#utility.yul\":18012:18078   */\n      0xffffffffffffffffffffffffffffffffffffffffffffffffffffffffffffffff\n        /* \"#utility.yul\":18005:18010   */\n      dup3\n        /* \"#utility.yul\":18002:18079   */\n      eq\n        /* \"#utility.yul\":17999:18102   */\n      iszero\n      tag_901\n      jumpi\n        /* \"#utility.yul\":18082:18100   */\n      tag_902\n      tag_726\n      jump\t// in\n    tag_902:\n        /* \"#utility.yul\":17999:18102   */\n    tag_901:\n        /* \"#utility.yul\":18129:18130   */\n      0x01\n        /* \"#utility.yul\":18122:18127   */\n      dup3\n        /* \"#utility.yul\":18118:18131   */\n      add\n        /* \"#utility.yul\":18111:18131   */\n      swap1\n      pop\n        /* \"#utility.yul\":17904:18137   */\n      swap2\n      swap1\n      pop\n      jump\t// out\n        /* \"#utility.yul\":18143:18448   */\n    tag_639:\n        /* \"#utility.yul\":18183:18186   */\n      0x00\n        /* \"#utility.yul\":18202:18222   */\n      tag_904\n        /* \"#utility.yul\":18220:18221   */\n      dup3\n        /* \"#utility.yul\":18202:18222   */\n      tag_697\n      jump\t// in\n    tag_904:\n        /* \"#utility.yul\":18197:18222   */\n      swap2\n      pop\n        /* \"#utility.yul\":18236:18256   */\n      tag_905\n        /* \"#utility.yul\":18254:18255   */\n      dup4\n        /* \"#utility.yul\":18236:18256   */\n      tag_697\n      jump\t// in\n    tag_905:\n        /* \"#utility.yul\":18231:18256   */\n      swap3\n      pop\n        /* \"#utility.yul\":18390:18391   */\n      dup3\n        /* \"#utility.yul\":18322:18388   */\n      0xffffffffffffffffffffffffffffffffffffffffffffffffffffffffffffffff\n        /* \"#utility.yul\":18318:18392   */\n      sub\n        /* \"#utility.yul\":18315:18316   */\n      dup3\n        /* \"#utility.yul\":18312:18393   */\n      gt\n        /* \"#utility.yul\":18309:18416   */\n      iszero\n      tag_906\n      jumpi\n        /* \"#utility.yul\":18396:18414   */\n      tag_907\n      tag_726\n      jump\t// in\n    tag_907:\n        /* \"#utility.yul\":18309:18416   */\n    tag_906:\n        /* \"#utility.yul\":18440:18441   */\n      dup3\n        /* \"#utility.yul\":18437:18438   */\n      dup3\n        /* \"#utility.yul\":18433:18442   */\n      add\n        /* \"#utility.yul\":18426:18442   */\n      swap1\n      pop\n        /* \"#utility.yul\":18143:18448   */\n      swap3\n      swap2\n      pop\n      pop\n      jump\t// out\n        /* \"#utility.yul\":18454:18634   */\n    tag_642:\n        /* \"#utility.yul\":18502:18579   */\n      0x4e487b7100000000000000000000000000000000000000000000000000000000\n        /* \"#utility.yul\":18499:18500   */\n      0x00\n        /* \"#utility.yul\":18492:18580   */\n      mstore\n        /* \"#utility.yul\":18599:18603   */\n      0x01\n        /* \"#utility.yul\":18596:18597   */\n      0x04\n        /* \"#utility.yul\":18589:18604   */\n      mstore\n        /* \"#utility.yul\":18623:18627   */\n      0x24\n        /* \"#utility.yul\":18620:18621   */\n      0x00\n        /* \"#utility.yul\":18613:18628   */\n      revert\n        /* \"#utility.yul\":18640:18831   */\n    tag_647:\n        /* \"#utility.yul\":18680:18684   */\n      0x00\n        /* \"#utility.yul\":18700:18720   */\n      tag_910\n        /* \"#utility.yul\":18718:18719   */\n      dup3\n        /* \"#utility.yul\":18700:18720   */\n      tag_697\n      jump\t// in\n    tag_910:\n        /* \"#utility.yul\":18695:18720   */\n      swap2\n      pop\n        /* \"#utility.yul\":18734:18754   */\n      tag_911\n        /* \"#utility.yul\":18752:18753   */\n      dup4\n        /* \"#utility.yul\":18734:18754   */\n      tag_697\n      jump\t// in\n    tag_911:\n        /* \"#utility.yul\":18729:18754   */\n      swap3\n      pop\n        /* \"#utility.yul\":18773:18774   */\n      dup3\n        /* \"#utility.yul\":18770:18771   */\n      dup3\n        /* \"#utility.yul\":18767:18775   */\n      lt\n        /* \"#utility.yul\":18764:18798   */\n      iszero\n      tag_912\n      jumpi\n        /* \"#utility.yul\":18778:18796   */\n      tag_913\n      tag_726\n      jump\t// in\n    tag_913:\n        /* \"#utility.yul\":18764:18798   */\n    tag_912:\n        /* \"#utility.yul\":18823:18824   */\n      dup3\n        /* \"#utility.yul\":18820:18821   */\n      dup3\n        /* \"#utility.yul\":18816:18825   */\n      sub\n        /* \"#utility.yul\":18808:18825   */\n      swap1\n      pop\n        /* \"#utility.yul\":18640:18831   */\n      swap3\n      swap2\n      pop\n      pop\n      jump\t// out\n        /* \"#utility.yul\":18837:19017   */\n    tag_735:\n        /* \"#utility.yul\":18885:18962   */\n      0x4e487b7100000000000000000000000000000000000000000000000000000000\n        /* \"#utility.yul\":18882:18883   */\n      0x00\n        /* \"#utility.yul\":18875:18963   */\n      mstore\n        /* \"#utility.yul\":18982:18986   */\n      0x12\n        /* \"#utility.yul\":18979:18980   */\n      0x04\n        /* \"#utility.yul\":18972:18987   */\n      mstore\n        /* \"#utility.yul\":19006:19010   */\n      0x24\n        /* \"#utility.yul\":19003:19004   */\n      0x00\n        /* \"#utility.yul\":18996:19011   */\n      revert\n        /* \"#utility.yul\":19023:19208   */\n    tag_650:\n        /* \"#utility.yul\":19063:19064   */\n      0x00\n        /* \"#utility.yul\":19080:19100   */\n      tag_916\n        /* \"#utility.yul\":19098:19099   */\n      dup3\n        /* \"#utility.yul\":19080:19100   */\n      tag_697\n      jump\t// in\n    tag_916:\n        /* \"#utility.yul\":19075:19100   */\n      swap2\n      pop\n        /* \"#utility.yul\":19114:19134   */\n      tag_917\n        /* \"#utility.yul\":19132:19133   */\n      dup4\n        /* \"#utility.yul\":19114:19134   */\n      tag_697\n      jump\t// in\n    tag_917:\n        /* \"#utility.yul\":19109:19134   */\n      swap3\n      pop\n        /* \"#utility.yul\":19153:19154   */\n      dup3\n        /* \"#utility.yul\":19143:19178   */\n      tag_918\n      jumpi\n        /* \"#utility.yul\":19158:19176   */\n      tag_919\n      tag_735\n      jump\t// in\n    tag_919:\n        /* \"#utility.yul\":19143:19178   */\n    tag_918:\n        /* \"#utility.yul\":19200:19201   */\n      dup3\n        /* \"#utility.yul\":19197:19198   */\n      dup3\n        /* \"#utility.yul\":19193:19202   */\n      div\n        /* \"#utility.yul\":19188:19202   */\n      swap1\n      pop\n        /* \"#utility.yul\":19023:19208   */\n      swap3\n      swap2\n      pop\n      pop\n      jump\t// out\n        /* \"#utility.yul\":19214:19394   */\n    tag_660:\n        /* \"#utility.yul\":19262:19339   */\n      0x4e487b7100000000000000000000000000000000000000000000000000000000\n        /* \"#utility.yul\":19259:19260   */\n      0x00\n        /* \"#utility.yul\":19252:19340   */\n      mstore\n        /* \"#utility.yul\":19359:19363   */\n      0x41\n        /* \"#utility.yul\":19356:19357   */\n      0x04\n        /* \"#utility.yul\":19349:19364   */\n      mstore\n        /* \"#utility.yul\":19383:19387   */\n      0x24\n        /* \"#utility.yul\":19380:19381   */\n      0x00\n        /* \"#utility.yul\":19373:19388   */\n      revert\n\n    auxdata: 0xa2646970667358221220309a96aff67f264a744c482bf96fd9a8d1f50ffd5a4397d30aaa838f18ce391d64736f6c63430008090033\n}\n",
				"bytecode": {
					"linkReferences": {},
					"object": "60806040526215f90060005560466001556103e86002556009600355600c6004556002600555666a94d74f43000060065568015af1d78b58c400006007556014600855600a60095561012c600a5561015e600b55600a600c556127106013556113886014556001601560016101000a81548160ff0219169083151502179055506202a300601955613840601a553480156200009957600080fd5b5060405162004882380380620048828339818101604052810190620000bf9190620003b2565b620000d0866200033560201b60201c565b158015620000ec5750620000ea856200033560201b60201c565b155b801562000107575062000105846200033560201b60201c565b155b801562000122575062000120836200033560201b60201c565b155b80156200013d57506200013b826200033560201b60201c565b155b801562000158575062000156816200033560201b60201c565b155b6200016257600080fd5b33601b60006101000a81548173ffffffffffffffffffffffffffffffffffffffff021916908373ffffffffffffffffffffffffffffffffffffffff16021790555085601c60006101000a81548173ffffffffffffffffffffffffffffffffffffffff021916908373ffffffffffffffffffffffffffffffffffffffff16021790555084601d60006101000a81548173ffffffffffffffffffffffffffffffffffffffff021916908373ffffffffffffffffffffffffffffffffffffffff16021790555083601e60006101000a81548173ffffffffffffffffffffffffffffffffffffffff021916908373ffffffffffffffffffffffffffffffffffffffff16021790555082601f60006101000a81548173ffffffffffffffffffffffffffffffffffffffff021916908373ffffffffffffffffffffffffffffffffffffffff16021790555081602060006101000a81548173ffffffffffffffffffffffffffffffffffffffff021916908373ffffffffffffffffffffffffffffffffffffffff16021790555080602160006101000a81548173ffffffffffffffffffffffffffffffffffffffff021916908373ffffffffffffffffffffffffffffffffffffffff1602179055505050505050506200044e565b600080823b905060008111915050919050565b600080fd5b600073ffffffffffffffffffffffffffffffffffffffff82169050919050565b60006200037a826200034d565b9050919050565b6200038c816200036d565b81146200039857600080fd5b50565b600081519050620003ac8162000381565b92915050565b60008060008060008060c08789031215620003d257620003d162000348565b5b6000620003e289828a016200039b565b9650506020620003f589828a016200039b565b95505060406200040889828a016200039b565b94505060606200041b89828a016200039b565b93505060806200042e89828a016200039b565b92505060a06200044189828a016200039b565b9150509295509295509295565b614424806200045e6000396000f3fe6080604052600436106104265760003560e01c80637c8e4b4c11610229578063b6e6fcf61161012e578063d7206d5d116100b6578063e6dc95581161007a578063e6dc95581461103a578063e757694314611063578063eb2712681461108c578063f6f62886146110b5578063ffa4e618146110e057610426565b8063d7206d5d14610f62578063d7c8843b14610f8d578063d989b4b314610fca578063da235b2214610ff3578063da5d4cc51461101e57610426565b8063c3251b40116100fd578063c3251b4014610e67578063c63568c714610ea4578063c688f0fb14610ecf578063cc3e9c7814610efa578063cd329fc314610f3757610426565b8063b6e6fcf614610dcb578063bd097e2114610df6578063bdd1ca2714610e00578063bfa9f30414610e3e57610426565b80638da5cb5b116101b15780639b9cb69f116101805780639b9cb69f14610cc95780639e9300a514610cf2578063a327c45d14610d1b578063a87430ba14610d46578063ac4b3c0414610d8e57610426565b80638da5cb5b14610c0d5780638e31632714610c38578063950d91e914610c75578063959c95b314610ca057610426565b80637e56fde5116101f85780637e56fde514610b265780637ee28e3c14610b635780638013f3a714610b8c578063817b1cd214610bb75780638a315efd14610be257610426565b80637c8e4b4c14610a7c5780637cc5b1e614610aa55780637d88209714610ad05780637db07c9d14610afb57610426565b80633578584f1161032f57806357386225116102b757806368f58b031161028657806368f58b03146109a957806369b11dd5146109d45780636f969d28146109ff578063752a262814610a285780637a62ead714610a5357610426565b806357386225146108e257806359eec895146108f95780636386c1c71461092457806364c03a5e1461096c57610426565b80634b319713116102fe5780634b319713146108075780634ce870531461083257806350637dbd1461086057806350cf1c7a1461089d578063570c2979146108b957610426565b80633578584f1461075f57806343ce74221461078a57806345a6a6e0146107b557806345f98c29146107de57610426565b80631bd8225d116103b2578063298ea31011610381578063298ea3101461068c5780632b039d0e146106b55780632bc82f7f146106de5780632e9392bb14610709578063333f57b31461073457610426565b80631bd8225d146105aa578063229824c4146105e75780632362ce891461062457806326fd84221461064f57610426565b806312065fe0116103f957806312065fe0146104d75780631848b8dc1461050257806318c819d81461052d578063195a7339146105565780631a7b8d4f1461058157610426565b806301c234a81461042b5780630420c98e1461045657806307aeb7f0146104815780630a76e5ed146104ac575b600080fd5b34801561043757600080fd5b5061044061111d565b60405161044d91906139a2565b60405180910390f35b34801561046257600080fd5b5061046b611123565b60405161047891906139a2565b60405180910390f35b34801561048d57600080fd5b50610496611129565b6040516104a391906139fe565b60405180910390f35b3480156104b857600080fd5b506104c161114f565b6040516104ce91906139a2565b60405180910390f35b3480156104e357600080fd5b506104ec611199565b6040516104f991906139a2565b60405180910390f35b34801561050e57600080fd5b506105176111a1565b60405161052491906139a2565b60405180910390f35b34801561053957600080fd5b50610554600480360381019061054f9190613a5b565b6111a7565b005b34801561056257600080fd5b5061056b6113a7565b60405161057891906139a2565b60405180910390f35b34801561058d57600080fd5b506105a860048036038101906105a39190613ab4565b6113ad565b005b3480156105b657600080fd5b506105d160048036038101906105cc9190613b1f565b611455565b6040516105de91906139a2565b60405180910390f35b3480156105f357600080fd5b5061060e60048036038101906106099190613b4c565b61146d565b60405161061b91906139a2565b60405180910390f35b34801561063057600080fd5b506106396114c0565b60405161064691906139fe565b60405180910390f35b34801561065b57600080fd5b5061067660048036038101906106719190613b9f565b6114e6565b60405161068391906139a2565b60405180910390f35b34801561069857600080fd5b506106b360048036038101906106ae9190613ab4565b6114fd565b005b3480156106c157600080fd5b506106dc60048036038101906106d79190613b1f565b6115a5565b005b3480156106ea57600080fd5b506106f3611679565b60405161070091906139a2565b60405180910390f35b34801561071557600080fd5b5061071e61167f565b60405161072b91906139a2565b60405180910390f35b34801561074057600080fd5b50610749611685565b6040516107569190613bee565b60405180910390f35b34801561076b57600080fd5b50610774611698565b60405161078191906139a2565b60405180910390f35b34801561079657600080fd5b5061079f61169e565b6040516107ac91906139a2565b60405180910390f35b3480156107c157600080fd5b506107dc60048036038101906107d79190613ab4565b611702565b005b3480156107ea57600080fd5b5061080560048036038101906108009190613ab4565b6117c1565b005b34801561081357600080fd5b5061081c61185b565b60405161082991906139a2565b60405180910390f35b34801561083e57600080fd5b50610847611861565b6040516108579493929190613c09565b60405180910390f35b34801561086c57600080fd5b5061088760048036038101906108829190613c4e565b611881565b60405161089491906139a2565b60405180910390f35b6108b760048036038101906108b29190613b1f565b611968565b005b3480156108c557600080fd5b506108e060048036038101906108db9190613ab4565b611dfe565b005b3480156108ee57600080fd5b506108f7611eb3565b005b34801561090557600080fd5b5061090e612171565b60405161091b91906139a2565b60405180910390f35b34801561093057600080fd5b5061094b60048036038101906109469190613b1f565b612177565b6040516109639c9b9a99989796959493929190613c9d565b60405180910390f35b34801561097857600080fd5b50610993600480360381019061098e9190613b1f565b6124f4565b6040516109a091906139a2565b60405180910390f35b3480156109b557600080fd5b506109be612567565b6040516109cb91906139a2565b60405180910390f35b3480156109e057600080fd5b506109e961256d565b6040516109f691906139a2565b60405180910390f35b348015610a0b57600080fd5b50610a266004803603810190610a219190613ab4565b612573565b005b348015610a3457600080fd5b50610a3d612629565b604051610a4a91906139a2565b60405180910390f35b348015610a5f57600080fd5b50610a7a6004803603810190610a759190613ab4565b61262f565b005b348015610a8857600080fd5b50610aa36004803603810190610a9e9190613ab4565b6126d7565b005b348015610ab157600080fd5b50610aba612788565b604051610ac791906139fe565b60405180910390f35b348015610adc57600080fd5b50610ae56127ae565b604051610af291906139a2565b60405180910390f35b348015610b0757600080fd5b50610b106127b4565b604051610b1d91906139a2565b60405180910390f35b348015610b3257600080fd5b50610b4d6004803603810190610b489190613ab4565b6127ba565b604051610b5a91906139a2565b60405180910390f35b348015610b6f57600080fd5b50610b8a6004803603810190610b859190613ab4565b6127d4565b005b348015610b9857600080fd5b50610ba161288f565b604051610bae91906139fe565b60405180910390f35b348015610bc357600080fd5b50610bcc6128b5565b604051610bd991906139a2565b60405180910390f35b348015610bee57600080fd5b50610bf76128bb565b604051610c0491906139fe565b60405180910390f35b348015610c1957600080fd5b50610c226128e1565b604051610c2f9190613d57565b60405180910390f35b348015610c4457600080fd5b50610c5f6004803603810190610c5a9190613ab4565b612907565b604051610c6c91906139a2565b60405180910390f35b348015610c8157600080fd5b50610c8a612924565b604051610c9791906139a2565b60405180910390f35b348015610cac57600080fd5b50610cc76004803603810190610cc29190613ab4565b61292a565b005b348015610cd557600080fd5b50610cf06004803603810190610ceb9190613ab4565b6129e9565b005b348015610cfe57600080fd5b50610d196004803603810190610d149190613a5b565b612a91565b005b348015610d2757600080fd5b50610d30612b3e565b604051610d3d91906139fe565b60405180910390f35b348015610d5257600080fd5b50610d6d6004803603810190610d689190613b1f565b612b64565b604051610d859c9b9a99989796959493929190613c9d565b60405180910390f35b348015610d9a57600080fd5b50610db56004803603810190610db09190613b1f565b612be4565b604051610dc291906139a2565b60405180910390f35b348015610dd757600080fd5b50610de0612bfc565b604051610ded9190613bee565b60405180910390f35b610dfe612c0f565b005b348015610e0c57600080fd5b50610e276004803603810190610e229190613ab4565b612c11565b604051610e35929190613d72565b60405180910390f35b348015610e4a57600080fd5b50610e656004803603810190610e609190613ab4565b612ca3565b005b348015610e7357600080fd5b50610e8e6004803603810190610e899190613b1f565b612d4c565b604051610e9b9190613bee565b60405180910390f35b348015610eb057600080fd5b50610eb9612e32565b604051610ec691906139a2565b60405180910390f35b348015610edb57600080fd5b50610ee4612e38565b604051610ef191906139a2565b60405180910390f35b348015610f0657600080fd5b50610f216004803603810190610f1c9190613b9f565b612e3e565b604051610f2e91906139a2565b60405180910390f35b348015610f4357600080fd5b50610f4c612e6e565b604051610f5991906139a2565b60405180910390f35b348015610f6e57600080fd5b50610f77612e74565b604051610f8491906139a2565b60405180910390f35b348015610f9957600080fd5b50610fb46004803603810190610faf9190613b1f565b612e7a565b604051610fc191906139a2565b60405180910390f35b348015610fd657600080fd5b50610ff16004803603810190610fec9190613d9b565b612f53565b005b348015610fff57600080fd5b5061100861303e565b60405161101591906139a2565b60405180910390f35b61103860048036038101906110339190613b1f565b613046565b005b34801561104657600080fd5b50611061600480360381019061105c9190613ab4565b613133565b005b34801561106f57600080fd5b5061108a60048036038101906110859190613ab4565b6131ec565b005b34801561109857600080fd5b506110b360048036038101906110ae9190613e40565b613294565b005b3480156110c157600080fd5b506110ca6133c9565b6040516110d791906139a2565b60405180910390f35b3480156110ec57600080fd5b5061110760048036038101906111029190613b1f565b6133cf565b6040516111149190613bee565b60405180910390f35b60025481565b600b5481565b601f60009054906101000a900473ffffffffffffffffffffffffffffffffffffffff1681565b6000602260003373ffffffffffffffffffffffffffffffffffffffff1673ffffffffffffffffffffffffffffffffffffffff16815260200190815260200160002060020154905090565b600047905090565b60075481565b6000602260003373ffffffffffffffffffffffffffffffffffffffff1673ffffffffffffffffffffffffffffffffffffffff1681526020019081526020016000209050601560009054906101000a900460ff16611239576040517f08c379a000000000000000000000000000000000000000000000000000000000815260040161123090613efd565b60405180910390fd5b600061124361169e565b9050600081905083156112bd57600061125c3383611881565b905061127181836133ef90919063ffffffff16565b9150600061127e83612907565b90506112978186600101546133ef90919063ffffffff16565b85600101819055506112b481600f546133ef90919063ffffffff16565b600f8190555050505b600a546112d784600401544261341b90919063ffffffff16565b1061132c576009548360090154101561130b57611302600284600901546133ef90919063ffffffff16565b83600901819055505b611323600184600a01546133ef90919063ffffffff16565b83600a01819055505b6113576113446000548361344290919063ffffffff16565b84600201546133ef90919063ffffffff16565b83600201819055506000836003018190555042836004018190555061139b61138a6005548461344290919063ffffffff16565b6012546133ef90919063ffffffff16565b60128190555050505050565b60005481565b601b60009054906101000a900473ffffffffffffffffffffffffffffffffffffffff1673ffffffffffffffffffffffffffffffffffffffff163373ffffffffffffffffffffffffffffffffffffffff161461143d576040517f08c379a000000000000000000000000000000000000000000000000000000000815260040161143490613f69565b60405180910390fd5b601481111561144b57600080fd5b8060048190555050565b60186020528060005260406000206000915090505481565b60006114b761147e6013548461345d565b6114b26014546114ad6114a76114966013548a61345d565b6114a26014548c61345d565b6133ef565b89613442565b6133ef565b613442565b90509392505050565b601e60009054906101000a900473ffffffffffffffffffffffffffffffffffffffff1681565b60006114f5838360125461146d565b905092915050565b601b60009054906101000a900473ffffffffffffffffffffffffffffffffffffffff1673ffffffffffffffffffffffffffffffffffffffff163373ffffffffffffffffffffffffffffffffffffffff161461158d576040517f08c379a000000000000000000000000000000000000000000000000000000000815260040161158490613f69565b60405180910390fd5b600f81111561159b57600080fd5b8060038190555050565b601b60009054906101000a900473ffffffffffffffffffffffffffffffffffffffff1673ffffffffffffffffffffffffffffffffffffffff163373ffffffffffffffffffffffffffffffffffffffff1614611635576040517f08c379a000000000000000000000000000000000000000000000000000000000815260040161162c90613f69565b60405180910390fd5b80601b60006101000a81548173ffffffffffffffffffffffffffffffffffffffff021916908373ffffffffffffffffffffffffffffffffffffffff16021790555050565b60045481565b60125481565b601560009054906101000a900460ff1681565b60195481565b60006116fd6116ac33612e7a565b602260003373ffffffffffffffffffffffffffffffffffffffff1673ffffffffffffffffffffffffffffffffffffffff168152602001908152602001600020600301546133ef90919063ffffffff16565b905090565b601b60009054906101000a900473ffffffffffffffffffffffffffffffffffffffff1673ffffffffffffffffffffffffffffffffffffffff163373ffffffffffffffffffffffffffffffffffffffff1614611792576040517f08c379a000000000000000000000000000000000000000000000000000000000815260040161178990613fd5565b60405180910390fd5b60188111156117a057600080fd5b603c80826117ae9190614024565b6117b89190614024565b601a8190555050565b601b60009054906101000a900473ffffffffffffffffffffffffffffffffffffffff1673ffffffffffffffffffffffffffffffffffffffff163373ffffffffffffffffffffffffffffffffffffffff1614611851576040517f08c379a000000000000000000000000000000000000000000000000000000000815260040161184890613fd5565b60405180910390fd5b8060068190555050565b60115481565b600080600080600d54600e54600f54601054935093509350935090919293565b600080602260008573ffffffffffffffffffffffffffffffffffffffff1673ffffffffffffffffffffffffffffffffffffffff1681526020019081526020016000206009015414156118d65760009050611962565b600061192f600854602260008773ffffffffffffffffffffffffffffffffffffffff1673ffffffffffffffffffffffffffffffffffffffff1681526020019081526020016000206009015461345d90919063ffffffff16565b9050600061195a60025461194c848761345d90919063ffffffff16565b61344290919063ffffffff16565b905080925050505b92915050565b601560009054906101000a900460ff166119b7576040517f08c379a00000000000000000000000000000000000000000000000000000000081526004016119ae90613efd565b60405180910390fd5b6000602260003373ffffffffffffffffffffffffffffffffffffffff1673ffffffffffffffffffffffffffffffffffffffff1681526020019081526020016000209050600654341015611a3f576040517f08c379a0000000000000000000000000000000000000000000000000000000008152600401611a36906140ca565b60405180910390fd5b600754611a593483600001546133ef90919063ffffffff16565b1115611a9a576040517f08c379a0000000000000000000000000000000000000000000000000000000008152600401611a9190614136565b60405180910390fd5b600081600001541415611aec5734601760003373ffffffffffffffffffffffffffffffffffffffff1673ffffffffffffffffffffffffffffffffffffffff168152602001908152602001600020819055505b6000611b0a34611b05344761341b90919063ffffffff16565b6114e6565b9050611b233483600101546133ef90919063ffffffff16565b8260010181905550611b423483600001546133ef90919063ffffffff16565b8260000181905550611b618183600301546133ef90919063ffffffff16565b8260030181905550600073ffffffffffffffffffffffffffffffffffffffff168260050160009054906101000a900473ffffffffffffffffffffffffffffffffffffffff1673ffffffffffffffffffffffffffffffffffffffff161415611d35573373ffffffffffffffffffffffffffffffffffffffff168373ffffffffffffffffffffffffffffffffffffffff1614611c3957828260050160006101000a81548173ffffffffffffffffffffffffffffffffffffffff021916908373ffffffffffffffffffffffffffffffffffffffff1602179055505b60008260050160009054906101000a900473ffffffffffffffffffffffffffffffffffffffff169050600073ffffffffffffffffffffffffffffffffffffffff168173ffffffffffffffffffffffffffffffffffffffff1614611d3357611cec6001602260008473ffffffffffffffffffffffffffffffffffffffff1673ffffffffffffffffffffffffffffffffffffffff168152602001908152602001600020600601546133ef90919063ffffffff16565b602260008373ffffffffffffffffffffffffffffffffffffffff1673ffffffffffffffffffffffffffffffffffffffff168152602001908152602001600020600601819055505b505b600073ffffffffffffffffffffffffffffffffffffffff168260050160009054906101000a900473ffffffffffffffffffffffffffffffffffffffff1673ffffffffffffffffffffffffffffffffffffffff1614611d9857611d9733346134a6565b5b6000611da334613814565b9050611dcc611dbb823461341b90919063ffffffff16565b600d546133ef90919063ffffffff16565b600d81905550611de86001600e546133ef90919063ffffffff16565b600e81905550611df860006111a7565b50505050565b601b60009054906101000a900473ffffffffffffffffffffffffffffffffffffffff1673ffffffffffffffffffffffffffffffffffffffff163373ffffffffffffffffffffffffffffffffffffffff1614611e8e576040517f08c379a0000000000000000000000000000000000000000000000000000000008152600401611e8590613f69565b60405180910390fd5b600a8110158015611ea0575060648111155b611ea957600080fd5b8060018190555050565b601560009054906101000a900460ff16611f02576040517f08c379a0000000000000000000000000000000000000000000000000000000008152600401611ef990613efd565b60405180910390fd5b601560019054906101000a900460ff1615611fa557601660003373ffffffffffffffffffffffffffffffffffffffff1673ffffffffffffffffffffffffffffffffffffffff16815260200190815260200160002060009054906101000a900460ff1615611fa4576040517f08c379a0000000000000000000000000000000000000000000000000000000008152600401611f9b906141a2565b60405180910390fd5b5b6000602260003373ffffffffffffffffffffffffffffffffffffffff1673ffffffffffffffffffffffffffffffffffffffff16815260200190815260200160002090506000611ff261169e565b90506000611fff82612907565b9050600c54836009015410156120515761204a61203b60025461202d600b548561345d90919063ffffffff16565b61344290919063ffffffff16565b8261341b90919063ffffffff16565b9050612066565b60008360090181905550600083600a01819055505b4283600b0181905550600083600301819055504283600401819055506120ab61209a6005548461344290919063ffffffff16565b6012546133ef90919063ffffffff16565b601281905550806120ba611199565b10156120cb576120c8611199565b90505b60006120e86120d983613814565b8361341b90919063ffffffff16565b90503373ffffffffffffffffffffffffffffffffffffffff166108fc829081150290604051600060405180830381858888f19350505050158015612130573d6000803e3d6000fd5b506121488185600801546133ef90919063ffffffff16565b8460080181905550612165816011546133ef90919063ffffffff16565b60118190555050505050565b60055481565b600080600080600080600080600080600080602260008e73ffffffffffffffffffffffffffffffffffffffff1673ffffffffffffffffffffffffffffffffffffffff168152602001908152602001600020600001549b50602260008e73ffffffffffffffffffffffffffffffffffffffff1673ffffffffffffffffffffffffffffffffffffffff168152602001908152602001600020600101549a50602260008e73ffffffffffffffffffffffffffffffffffffffff1673ffffffffffffffffffffffffffffffffffffffff168152602001908152602001600020600201549950602260008e73ffffffffffffffffffffffffffffffffffffffff1673ffffffffffffffffffffffffffffffffffffffff168152602001908152602001600020600301549850602260008e73ffffffffffffffffffffffffffffffffffffffff1673ffffffffffffffffffffffffffffffffffffffff168152602001908152602001600020600401549750602260008e73ffffffffffffffffffffffffffffffffffffffff1673ffffffffffffffffffffffffffffffffffffffff16815260200190815260200160002060050160009054906101000a900473ffffffffffffffffffffffffffffffffffffffff169650602260008e73ffffffffffffffffffffffffffffffffffffffff1673ffffffffffffffffffffffffffffffffffffffff168152602001908152602001600020600601549550602260008e73ffffffffffffffffffffffffffffffffffffffff1673ffffffffffffffffffffffffffffffffffffffff168152602001908152602001600020600801549450602260008e73ffffffffffffffffffffffffffffffffffffffff1673ffffffffffffffffffffffffffffffffffffffff168152602001908152602001600020600701549350602260008e73ffffffffffffffffffffffffffffffffffffffff1673ffffffffffffffffffffffffffffffffffffffff168152602001908152602001600020600901549250602260008e73ffffffffffffffffffffffffffffffffffffffff1673ffffffffffffffffffffffffffffffffffffffff168152602001908152602001600020600a01549150602260008e73ffffffffffffffffffffffffffffffffffffffff1673ffffffffffffffffffffffffffffffffffffffff168152602001908152602001600020600b0154905091939597999b5091939597999b565b60008061255461250384612e7a565b602260008673ffffffffffffffffffffffffffffffffffffffff1673ffffffffffffffffffffffffffffffffffffffff168152602001908152602001600020600301546133ef90919063ffffffff16565b905061255f81612907565b915050919050565b60035481565b60105481565b601b60009054906101000a900473ffffffffffffffffffffffffffffffffffffffff1673ffffffffffffffffffffffffffffffffffffffff163373ffffffffffffffffffffffffffffffffffffffff1614612603576040517f08c379a00000000000000000000000000000000000000000000000000000000081526004016125fa90613f69565b60405180910390fd5b600a811015801561261657506103848111155b61261f57600080fd5b8060088190555050565b600a5481565b601b60009054906101000a900473ffffffffffffffffffffffffffffffffffffffff1673ffffffffffffffffffffffffffffffffffffffff163373ffffffffffffffffffffffffffffffffffffffff16146126bf576040517f08c379a00000000000000000000000000000000000000000000000000000000081526004016126b690613f69565b60405180910390fd5b60328111156126cd57600080fd5b8060058190555050565b601b60009054906101000a900473ffffffffffffffffffffffffffffffffffffffff1673ffffffffffffffffffffffffffffffffffffffff163373ffffffffffffffffffffffffffffffffffffffff1614612767576040517f08c379a000000000000000000000000000000000000000000000000000000000815260040161275e90613fd5565b60405180910390fd5b603c80826127759190614024565b61277f9190614024565b60198190555050565b602160009054906101000a900473ffffffffffffffffffffffffffffffffffffffff1681565b600e5481565b600f5481565b60006127cd826127c8611199565b6114e6565b9050919050565b601b60009054906101000a900473ffffffffffffffffffffffffffffffffffffffff1673ffffffffffffffffffffffffffffffffffffffff163373ffffffffffffffffffffffffffffffffffffffff1614612864576040517f08c379a000000000000000000000000000000000000000000000000000000000815260040161285b90613fd5565b60405180910390fd5b600a81101561287257600080fd5b670de0b6b3a7640000816128869190614024565b60078190555050565b601d60009054906101000a900473ffffffffffffffffffffffffffffffffffffffff1681565b600d5481565b602060009054906101000a900473ffffffffffffffffffffffffffffffffffffffff1681565b601b60009054906101000a900473ffffffffffffffffffffffffffffffffffffffff1681565b600061291d82601254612918611199565b61146d565b9050919050565b601a5481565b601b60009054906101000a900473ffffffffffffffffffffffffffffffffffffffff1673ffffffffffffffffffffffffffffffffffffffff163373ffffffffffffffffffffffffffffffffffffffff16146129ba576040517f08c379a00000000000000000000000000000000000000000000000000000000081526004016129b190613f69565b60405180910390fd5b60188111156129c857600080fd5b603c80826129d69190614024565b6129e09190614024565b600a8190555050565b601b60009054906101000a900473ffffffffffffffffffffffffffffffffffffffff1673ffffffffffffffffffffffffffffffffffffffff163373ffffffffffffffffffffffffffffffffffffffff1614612a79576040517f08c379a0000000000000000000000000000000000000000000000000000000008152600401612a7090613f69565b60405180910390fd5b601e811115612a8757600080fd5b8060098190555050565b601b60009054906101000a900473ffffffffffffffffffffffffffffffffffffffff1673ffffffffffffffffffffffffffffffffffffffff163373ffffffffffffffffffffffffffffffffffffffff1614612b21576040517f08c379a0000000000000000000000000000000000000000000000000000000008152600401612b1890613f69565b60405180910390fd5b80601560016101000a81548160ff02191690831515021790555050565b601c60009054906101000a900473ffffffffffffffffffffffffffffffffffffffff1681565b60226020528060005260406000206000915090508060000154908060010154908060020154908060030154908060040154908060050160009054906101000a900473ffffffffffffffffffffffffffffffffffffffff169080600601549080600701549080600801549080600901549080600a01549080600b015490508c565b60176020528060005260406000206000915090505481565b601560019054906101000a900460ff1681565b565b6000806000612c4b84612c4686612c3888612c2a611199565b6133ef90919063ffffffff16565b61341b90919063ffffffff16565b6114e6565b90506000612c646000548361344290919063ffffffff16565b905060006201518090506000612c83838361345d90919063ffffffff16565b90506000612c918289612e3e565b90508381965096505050505050915091565b601b60009054906101000a900473ffffffffffffffffffffffffffffffffffffffff1673ffffffffffffffffffffffffffffffffffffffff163373ffffffffffffffffffffffffffffffffffffffff1614612d33576040517f08c379a0000000000000000000000000000000000000000000000000000000008152600401612d2a90613f69565b60405180910390fd5b610384811115612d4257600080fd5b80600b8190555050565b6000601b60009054906101000a900473ffffffffffffffffffffffffffffffffffffffff1673ffffffffffffffffffffffffffffffffffffffff163373ffffffffffffffffffffffffffffffffffffffff1614612dde576040517f08c379a0000000000000000000000000000000000000000000000000000000008152600401612dd590613f69565b60405180910390fd5b601660008373ffffffffffffffffffffffffffffffffffffffff1673ffffffffffffffffffffffffffffffffffffffff16815260200190815260200160002060009054906101000a900460ff169050919050565b60015481565b60095481565b6000612e6683601254612e6185612e53611199565b6133ef90919063ffffffff16565b61146d565b905092915050565b60065481565b60085481565b600080612ed2602260008573ffffffffffffffffffffffffffffffffffffffff1673ffffffffffffffffffffffffffffffffffffffff168152602001908152602001600020600401544261341b90919063ffffffff16565b90506000612ee282601954613970565b90506000612ef260005483613970565b9050612f49602260008773ffffffffffffffffffffffffffffffffffffffff1673ffffffffffffffffffffffffffffffffffffffff168152602001908152602001600020600201548261345d90919063ffffffff16565b9350505050919050565b601b60009054906101000a900473ffffffffffffffffffffffffffffffffffffffff1673ffffffffffffffffffffffffffffffffffffffff163373ffffffffffffffffffffffffffffffffffffffff1614612fe3576040517f08c379a0000000000000000000000000000000000000000000000000000000008152600401612fda90613f69565b60405180910390fd5b80601660008473ffffffffffffffffffffffffffffffffffffffff1673ffffffffffffffffffffffffffffffffffffffff16815260200190815260200160002060006101000a81548160ff0219169083151502179055505050565b600042905090565b601560009054906101000a900460ff1661313057601b60009054906101000a900473ffffffffffffffffffffffffffffffffffffffff1673ffffffffffffffffffffffffffffffffffffffff163373ffffffffffffffffffffffffffffffffffffffff1614156130f4576000601254146130bf57600080fd5b6001601560006101000a81548160ff02191690831515021790555064218711a0006012819055506130ef81611968565b61312f565b6040517f08c379a00000000000000000000000000000000000000000000000000000000081526004016131269061420e565b60405180910390fd5b5b50565b601b60009054906101000a900473ffffffffffffffffffffffffffffffffffffffff1673ffffffffffffffffffffffffffffffffffffffff163373ffffffffffffffffffffffffffffffffffffffff16146131c3576040517f08c379a00000000000000000000000000000000000000000000000000000000081526004016131ba90613f69565b60405180910390fd5b6207512081101580156131d95750620afc808111155b6131e257600080fd5b8060008190555050565b601b60009054906101000a900473ffffffffffffffffffffffffffffffffffffffff1673ffffffffffffffffffffffffffffffffffffffff163373ffffffffffffffffffffffffffffffffffffffff161461327c576040517f08c379a000000000000000000000000000000000000000000000000000000000815260040161327390613f69565b60405180910390fd5b600c81111561328a57600080fd5b80600c8190555050565b601b60009054906101000a900473ffffffffffffffffffffffffffffffffffffffff1673ffffffffffffffffffffffffffffffffffffffff163373ffffffffffffffffffffffffffffffffffffffff1614613324576040517f08c379a000000000000000000000000000000000000000000000000000000000815260040161331b90613f69565b60405180910390fd5b60005b838390508110156133c357816016600086868581811061334a5761334961422e565b5b905060200201602081019061335f9190613b1f565b73ffffffffffffffffffffffffffffffffffffffff1673ffffffffffffffffffffffffffffffffffffffff16815260200190815260200160002060006101000a81548160ff02191690831515021790555080806133bb9061425d565b915050613327565b50505050565b600c5481565b60166020528060005260406000206000915054906101000a900460ff1681565b60008082846133fe91906142a6565b905083811015613411576134106142fc565b5b8091505092915050565b60008282111561342e5761342d6142fc565b5b818361343a919061432b565b905092915050565b6000808284613451919061438e565b90508091505092915050565b60008083141561347057600090506134a0565b6000828461347e9190614024565b905082848261348d919061438e565b1461349b5761349a6142fc565b5b809150505b92915050565b60008290506000600367ffffffffffffffff8111156134c8576134c76143bf565b5b6040519080825280602002602001820160405280156134f65781602001602082028036833780820191505090505b50905060088160008151811061350f5761350e61422e565b5b6020026020010181815250506003816001815181106135315761353061422e565b5b6020026020010181815250506002816002815181106135535761355261422e565b5b60200260200101818152505060005b600381101561380d57600073ffffffffffffffffffffffffffffffffffffffff16602260008573ffffffffffffffffffffffffffffffffffffffff1673ffffffffffffffffffffffffffffffffffffffff16815260200190815260200160002060050160009054906101000a900473ffffffffffffffffffffffffffffffffffffffff1673ffffffffffffffffffffffffffffffffffffffff16146137f557602260008473ffffffffffffffffffffffffffffffffffffffff1673ffffffffffffffffffffffffffffffffffffffff16815260200190815260200160002060050160009054906101000a900473ffffffffffffffffffffffffffffffffffffffff169250600060648584848151811061367e5761367d61422e565b5b60200260200101516136909190614024565b61369a919061438e565b905080601860008673ffffffffffffffffffffffffffffffffffffffff1673ffffffffffffffffffffffffffffffffffffffff16815260200190815260200160002060008282546136eb91906142a6565b925050819055508373ffffffffffffffffffffffffffffffffffffffff166108fc829081150290604051600060405180830381858888f19350505050158015613738573d6000803e3d6000fd5b5061378e81602260008773ffffffffffffffffffffffffffffffffffffffff1673ffffffffffffffffffffffffffffffffffffffff168152602001908152602001600020600701546133ef90919063ffffffff16565b602260008673ffffffffffffffffffffffffffffffffffffffff1673ffffffffffffffffffffffffffffffffffffffff168152602001908152602001600020600701819055506137e9816010546133ef90919063ffffffff16565b601081905550506137fa565b61380d565b80806138059061425d565b915050613562565b5050505050565b6000806138406002546138326003548661345d90919063ffffffff16565b61344290919063ffffffff16565b9050600061386d60025461385f6004548761345d90919063ffffffff16565b61344290919063ffffffff16565b9050601c60009054906101000a900473ffffffffffffffffffffffffffffffffffffffff1673ffffffffffffffffffffffffffffffffffffffff166108fc839081150290604051600060405180830381858888f193505050501580156138d7573d6000803e3d6000fd5b50602160009054906101000a900473ffffffffffffffffffffffffffffffffffffffff1673ffffffffffffffffffffffffffffffffffffffff166108fc829081150290604051600060405180830381858888f19350505050158015613940573d6000803e3d6000fd5b5061396761395860018461345d90919063ffffffff16565b826133ef90919063ffffffff16565b92505050919050565b600081831061397f5781613981565b825b905092915050565b6000819050919050565b61399c81613989565b82525050565b60006020820190506139b76000830184613993565b92915050565b600073ffffffffffffffffffffffffffffffffffffffff82169050919050565b60006139e8826139bd565b9050919050565b6139f8816139dd565b82525050565b6000602082019050613a1360008301846139ef565b92915050565b600080fd5b600080fd5b60008115159050919050565b613a3881613a23565b8114613a4357600080fd5b50565b600081359050613a5581613a2f565b92915050565b600060208284031215613a7157613a70613a19565b5b6000613a7f84828501613a46565b91505092915050565b613a9181613989565b8114613a9c57600080fd5b50565b600081359050613aae81613a88565b92915050565b600060208284031215613aca57613ac9613a19565b5b6000613ad884828501613a9f565b91505092915050565b6000613aec826139bd565b9050919050565b613afc81613ae1565b8114613b0757600080fd5b50565b600081359050613b1981613af3565b92915050565b600060208284031215613b3557613b34613a19565b5b6000613b4384828501613b0a565b91505092915050565b600080600060608486031215613b6557613b64613a19565b5b6000613b7386828701613a9f565b9350506020613b8486828701613a9f565b9250506040613b9586828701613a9f565b9150509250925092565b60008060408385031215613bb657613bb5613a19565b5b6000613bc485828601613a9f565b9250506020613bd585828601613a9f565b9150509250929050565b613be881613a23565b82525050565b6000602082019050613c036000830184613bdf565b92915050565b6000608082019050613c1e6000830187613993565b613c2b6020830186613993565b613c386040830185613993565b613c456060830184613993565b95945050505050565b60008060408385031215613c6557613c64613a19565b5b6000613c7385828601613b0a565b9250506020613c8485828601613a9f565b9150509250929050565b613c9781613ae1565b82525050565b600061018082019050613cb3600083018f613993565b613cc0602083018e613993565b613ccd604083018d613993565b613cda606083018c613993565b613ce7608083018b613993565b613cf460a083018a613c8e565b613d0160c0830189613993565b613d0e60e0830188613993565b613d1c610100830187613993565b613d2a610120830186613993565b613d38610140830185613993565b613d46610160830184613993565b9d9c50505050505050505050505050565b6000602082019050613d6c6000830184613c8e565b92915050565b6000604082019050613d876000830185613993565b613d946020830184613993565b9392505050565b60008060408385031215613db257613db1613a19565b5b6000613dc085828601613b0a565b9250506020613dd185828601613a46565b9150509250929050565b600080fd5b600080fd5b600080fd5b60008083601f840112613e0057613dff613ddb565b5b8235905067ffffffffffffffff811115613e1d57613e1c613de0565b5b602083019150836020820283011115613e3957613e38613de5565b5b9250929050565b600080600060408486031215613e5957613e58613a19565b5b600084013567ffffffffffffffff811115613e7757613e76613a1e565b5b613e8386828701613dea565b93509350506020613e9686828701613a46565b9150509250925092565b600082825260208201905092915050565b7f436f6e7472616374206e6f742079657420537461727465642e00000000000000600082015250565b6000613ee7601983613ea0565b9150613ef282613eb1565b602082019050919050565b60006020820190508181036000830152613f1681613eda565b9050919050565b7f41646d696e20757365206f6e6c792e0000000000000000000000000000000000600082015250565b6000613f53600f83613ea0565b9150613f5e82613f1d565b602082019050919050565b60006020820190508181036000830152613f8281613f46565b9050919050565b7f41646d696e20757365206f6e6c79000000000000000000000000000000000000600082015250565b6000613fbf600e83613ea0565b9150613fca82613f89565b602082019050919050565b60006020820190508181036000830152613fee81613fb2565b9050919050565b7f4e487b7100000000000000000000000000000000000000000000000000000000600052601160045260246000fd5b600061402f82613989565b915061403a83613989565b9250817fffffffffffffffffffffffffffffffffffffffffffffffffffffffffffffffff048311821515161561407357614072613ff5565b5b828202905092915050565b7f4d696e696e756d20696e766573746d656e74206e6f74206d65742e0000000000600082015250565b60006140b4601b83613ea0565b91506140bf8261407e565b602082019050919050565b600060208201905081810360008301526140e3816140a7565b9050919050565b7f4d6178206465706f736974206c696d697420726561636865642e000000000000600082015250565b6000614120601a83613ea0565b915061412b826140ea565b602082019050919050565b6000602082019050818103600083015261414f81614113565b9050919050565b7f4164647265737320697320626c61636b6c69737465642e000000000000000000600082015250565b600061418c601783613ea0565b915061419782614156565b602082019050919050565b600060208201905081810360008301526141bb8161417f565b9050919050565b7f436f6e7472616374206e6f742079657420737461727465642e00000000000000600082015250565b60006141f8601983613ea0565b9150614203826141c2565b602082019050919050565b60006020820190508181036000830152614227816141eb565b9050919050565b7f4e487b7100000000000000000000000000000000000000000000000000000000600052603260045260246000fd5b600061426882613989565b91507fffffffffffffffffffffffffffffffffffffffffffffffffffffffffffffffff82141561429b5761429a613ff5565b5b600182019050919050565b60006142b182613989565b91506142bc83613989565b9250827fffffffffffffffffffffffffffffffffffffffffffffffffffffffffffffffff038211156142f1576142f0613ff5565b5b828201905092915050565b7f4e487b7100000000000000000000000000000000000000000000000000000000600052600160045260246000fd5b600061433682613989565b915061434183613989565b92508282101561435457614353613ff5565b5b828203905092915050565b7f4e487b7100000000000000000000000000000000000000000000000000000000600052601260045260246000fd5b600061439982613989565b91506143a483613989565b9250826143b4576143b361435f565b5b828204905092915050565b7f4e487b7100000000000000000000000000000000000000000000000000000000600052604160045260246000fdfea2646970667358221220309a96aff67f264a744c482bf96fd9a8d1f50ffd5a4397d30aaa838f18ce391d64736f6c63430008090033",
					"opcodes": "PUSH1 0x80 PUSH1 0x40 MSTORE PUSH3 0x15F900 PUSH1 0x0 SSTORE PUSH1 0x46 PUSH1 0x1 SSTORE PUSH2 0x3E8 PUSH1 0x2 SSTORE PUSH1 0x9 PUSH1 0x3 SSTORE PUSH1 0xC PUSH1 0x4 SSTORE PUSH1 0x2 PUSH1 0x5 SSTORE PUSH7 0x6A94D74F430000 PUSH1 0x6 SSTORE PUSH9 0x15AF1D78B58C40000 PUSH1 0x7 SSTORE PUSH1 0x14 PUSH1 0x8 SSTORE PUSH1 0xA PUSH1 0x9 SSTORE PUSH2 0x12C PUSH1 0xA SSTORE PUSH2 0x15E PUSH1 0xB SSTORE PUSH1 0xA PUSH1 0xC SSTORE PUSH2 0x2710 PUSH1 0x13 SSTORE PUSH2 0x1388 PUSH1 0x14 SSTORE PUSH1 0x1 PUSH1 0x15 PUSH1 0x1 PUSH2 0x100 EXP DUP2 SLOAD DUP2 PUSH1 0xFF MUL NOT AND SWAP1 DUP4 ISZERO ISZERO MUL OR SWAP1 SSTORE POP PUSH3 0x2A300 PUSH1 0x19 SSTORE PUSH2 0x3840 PUSH1 0x1A SSTORE CALLVALUE DUP1 ISZERO PUSH3 0x99 JUMPI PUSH1 0x0 DUP1 REVERT JUMPDEST POP PUSH1 0x40 MLOAD PUSH3 0x4882 CODESIZE SUB DUP1 PUSH3 0x4882 DUP4 CODECOPY DUP2 DUP2 ADD PUSH1 0x40 MSTORE DUP2 ADD SWAP1 PUSH3 0xBF SWAP2 SWAP1 PUSH3 0x3B2 JUMP JUMPDEST PUSH3 0xD0 DUP7 PUSH3 0x335 PUSH1 0x20 SHL PUSH1 0x20 SHR JUMP JUMPDEST ISZERO DUP1 ISZERO PUSH3 0xEC JUMPI POP PUSH3 0xEA DUP6 PUSH3 0x335 PUSH1 0x20 SHL PUSH1 0x20 SHR JUMP JUMPDEST ISZERO JUMPDEST DUP1 ISZERO PUSH3 0x107 JUMPI POP PUSH3 0x105 DUP5 PUSH3 0x335 PUSH1 0x20 SHL PUSH1 0x20 SHR JUMP JUMPDEST ISZERO JUMPDEST DUP1 ISZERO PUSH3 0x122 JUMPI POP PUSH3 0x120 DUP4 PUSH3 0x335 PUSH1 0x20 SHL PUSH1 0x20 SHR JUMP JUMPDEST ISZERO JUMPDEST DUP1 ISZERO PUSH3 0x13D JUMPI POP PUSH3 0x13B DUP3 PUSH3 0x335 PUSH1 0x20 SHL PUSH1 0x20 SHR JUMP JUMPDEST ISZERO JUMPDEST DUP1 ISZERO PUSH3 0x158 JUMPI POP PUSH3 0x156 DUP2 PUSH3 0x335 PUSH1 0x20 SHL PUSH1 0x20 SHR JUMP JUMPDEST ISZERO JUMPDEST PUSH3 0x162 JUMPI PUSH1 0x0 DUP1 REVERT JUMPDEST CALLER PUSH1 0x1B PUSH1 0x0 PUSH2 0x100 EXP DUP2 SLOAD DUP2 PUSH20 0xFFFFFFFFFFFFFFFFFFFFFFFFFFFFFFFFFFFFFFFF MUL NOT AND SWAP1 DUP4 PUSH20 0xFFFFFFFFFFFFFFFFFFFFFFFFFFFFFFFFFFFFFFFF AND MUL OR SWAP1 SSTORE POP DUP6 PUSH1 0x1C PUSH1 0x0 PUSH2 0x100 EXP DUP2 SLOAD DUP2 PUSH20 0xFFFFFFFFFFFFFFFFFFFFFFFFFFFFFFFFFFFFFFFF MUL NOT AND SWAP1 DUP4 PUSH20 0xFFFFFFFFFFFFFFFFFFFFFFFFFFFFFFFFFFFFFFFF AND MUL OR SWAP1 SSTORE POP DUP5 PUSH1 0x1D PUSH1 0x0 PUSH2 0x100 EXP DUP2 SLOAD DUP2 PUSH20 0xFFFFFFFFFFFFFFFFFFFFFFFFFFFFFFFFFFFFFFFF MUL NOT AND SWAP1 DUP4 PUSH20 0xFFFFFFFFFFFFFFFFFFFFFFFFFFFFFFFFFFFFFFFF AND MUL OR SWAP1 SSTORE POP DUP4 PUSH1 0x1E PUSH1 0x0 PUSH2 0x100 EXP DUP2 SLOAD DUP2 PUSH20 0xFFFFFFFFFFFFFFFFFFFFFFFFFFFFFFFFFFFFFFFF MUL NOT AND SWAP1 DUP4 PUSH20 0xFFFFFFFFFFFFFFFFFFFFFFFFFFFFFFFFFFFFFFFF AND MUL OR SWAP1 SSTORE POP DUP3 PUSH1 0x1F PUSH1 0x0 PUSH2 0x100 EXP DUP2 SLOAD DUP2 PUSH20 0xFFFFFFFFFFFFFFFFFFFFFFFFFFFFFFFFFFFFFFFF MUL NOT AND SWAP1 DUP4 PUSH20 0xFFFFFFFFFFFFFFFFFFFFFFFFFFFFFFFFFFFFFFFF AND MUL OR SWAP1 SSTORE POP DUP2 PUSH1 0x20 PUSH1 0x0 PUSH2 0x100 EXP DUP2 SLOAD DUP2 PUSH20 0xFFFFFFFFFFFFFFFFFFFFFFFFFFFFFFFFFFFFFFFF MUL NOT AND SWAP1 DUP4 PUSH20 0xFFFFFFFFFFFFFFFFFFFFFFFFFFFFFFFFFFFFFFFF AND MUL OR SWAP1 SSTORE POP DUP1 PUSH1 0x21 PUSH1 0x0 PUSH2 0x100 EXP DUP2 SLOAD DUP2 PUSH20 0xFFFFFFFFFFFFFFFFFFFFFFFFFFFFFFFFFFFFFFFF MUL NOT AND SWAP1 DUP4 PUSH20 0xFFFFFFFFFFFFFFFFFFFFFFFFFFFFFFFFFFFFFFFF AND MUL OR SWAP1 SSTORE POP POP POP POP POP POP POP PUSH3 0x44E JUMP JUMPDEST PUSH1 0x0 DUP1 DUP3 EXTCODESIZE SWAP1 POP PUSH1 0x0 DUP2 GT SWAP2 POP POP SWAP2 SWAP1 POP JUMP JUMPDEST PUSH1 0x0 DUP1 REVERT JUMPDEST PUSH1 0x0 PUSH20 0xFFFFFFFFFFFFFFFFFFFFFFFFFFFFFFFFFFFFFFFF DUP3 AND SWAP1 POP SWAP2 SWAP1 POP JUMP JUMPDEST PUSH1 0x0 PUSH3 0x37A DUP3 PUSH3 0x34D JUMP JUMPDEST SWAP1 POP SWAP2 SWAP1 POP JUMP JUMPDEST PUSH3 0x38C DUP2 PUSH3 0x36D JUMP JUMPDEST DUP2 EQ PUSH3 0x398 JUMPI PUSH1 0x0 DUP1 REVERT JUMPDEST POP JUMP JUMPDEST PUSH1 0x0 DUP2 MLOAD SWAP1 POP PUSH3 0x3AC DUP2 PUSH3 0x381 JUMP JUMPDEST SWAP3 SWAP2 POP POP JUMP JUMPDEST PUSH1 0x0 DUP1 PUSH1 0x0 DUP1 PUSH1 0x0 DUP1 PUSH1 0xC0 DUP8 DUP10 SUB SLT ISZERO PUSH3 0x3D2 JUMPI PUSH3 0x3D1 PUSH3 0x348 JUMP JUMPDEST JUMPDEST PUSH1 0x0 PUSH3 0x3E2 DUP10 DUP3 DUP11 ADD PUSH3 0x39B JUMP JUMPDEST SWAP7 POP POP PUSH1 0x20 PUSH3 0x3F5 DUP10 DUP3 DUP11 ADD PUSH3 0x39B JUMP JUMPDEST SWAP6 POP POP PUSH1 0x40 PUSH3 0x408 DUP10 DUP3 DUP11 ADD PUSH3 0x39B JUMP JUMPDEST SWAP5 POP POP PUSH1 0x60 PUSH3 0x41B DUP10 DUP3 DUP11 ADD PUSH3 0x39B JUMP JUMPDEST SWAP4 POP POP PUSH1 0x80 PUSH3 0x42E DUP10 DUP3 DUP11 ADD PUSH3 0x39B JUMP JUMPDEST SWAP3 POP POP PUSH1 0xA0 PUSH3 0x441 DUP10 DUP3 DUP11 ADD PUSH3 0x39B JUMP JUMPDEST SWAP2 POP POP SWAP3 SWAP6 POP SWAP3 SWAP6 POP SWAP3 SWAP6 JUMP JUMPDEST PUSH2 0x4424 DUP1 PUSH3 0x45E PUSH1 0x0 CODECOPY PUSH1 0x0 RETURN INVALID PUSH1 0x80 PUSH1 0x40 MSTORE PUSH1 0x4 CALLDATASIZE LT PUSH2 0x426 JUMPI PUSH1 0x0 CALLDATALOAD PUSH1 0xE0 SHR DUP1 PUSH4 0x7C8E4B4C GT PUSH2 0x229 JUMPI DUP1 PUSH4 0xB6E6FCF6 GT PUSH2 0x12E JUMPI DUP1 PUSH4 0xD7206D5D GT PUSH2 0xB6 JUMPI DUP1 PUSH4 0xE6DC9558 GT PUSH2 0x7A JUMPI DUP1 PUSH4 0xE6DC9558 EQ PUSH2 0x103A JUMPI DUP1 PUSH4 0xE7576943 EQ PUSH2 0x1063 JUMPI DUP1 PUSH4 0xEB271268 EQ PUSH2 0x108C JUMPI DUP1 PUSH4 0xF6F62886 EQ PUSH2 0x10B5 JUMPI DUP1 PUSH4 0xFFA4E618 EQ PUSH2 0x10E0 JUMPI PUSH2 0x426 JUMP JUMPDEST DUP1 PUSH4 0xD7206D5D EQ PUSH2 0xF62 JUMPI DUP1 PUSH4 0xD7C8843B EQ PUSH2 0xF8D JUMPI DUP1 PUSH4 0xD989B4B3 EQ PUSH2 0xFCA JUMPI DUP1 PUSH4 0xDA235B22 EQ PUSH2 0xFF3 JUMPI DUP1 PUSH4 0xDA5D4CC5 EQ PUSH2 0x101E JUMPI PUSH2 0x426 JUMP JUMPDEST DUP1 PUSH4 0xC3251B40 GT PUSH2 0xFD JUMPI DUP1 PUSH4 0xC3251B40 EQ PUSH2 0xE67 JUMPI DUP1 PUSH4 0xC63568C7 EQ PUSH2 0xEA4 JUMPI DUP1 PUSH4 0xC688F0FB EQ PUSH2 0xECF JUMPI DUP1 PUSH4 0xCC3E9C78 EQ PUSH2 0xEFA JUMPI DUP1 PUSH4 0xCD329FC3 EQ PUSH2 0xF37 JUMPI PUSH2 0x426 JUMP JUMPDEST DUP1 PUSH4 0xB6E6FCF6 EQ PUSH2 0xDCB JUMPI DUP1 PUSH4 0xBD097E21 EQ PUSH2 0xDF6 JUMPI DUP1 PUSH4 0xBDD1CA27 EQ PUSH2 0xE00 JUMPI DUP1 PUSH4 0xBFA9F304 EQ PUSH2 0xE3E JUMPI PUSH2 0x426 JUMP JUMPDEST DUP1 PUSH4 0x8DA5CB5B GT PUSH2 0x1B1 JUMPI DUP1 PUSH4 0x9B9CB69F GT PUSH2 0x180 JUMPI DUP1 PUSH4 0x9B9CB69F EQ PUSH2 0xCC9 JUMPI DUP1 PUSH4 0x9E9300A5 EQ PUSH2 0xCF2 JUMPI DUP1 PUSH4 0xA327C45D EQ PUSH2 0xD1B JUMPI DUP1 PUSH4 0xA87430BA EQ PUSH2 0xD46 JUMPI DUP1 PUSH4 0xAC4B3C04 EQ PUSH2 0xD8E JUMPI PUSH2 0x426 JUMP JUMPDEST DUP1 PUSH4 0x8DA5CB5B EQ PUSH2 0xC0D JUMPI DUP1 PUSH4 0x8E316327 EQ PUSH2 0xC38 JUMPI DUP1 PUSH4 0x950D91E9 EQ PUSH2 0xC75 JUMPI DUP1 PUSH4 0x959C95B3 EQ PUSH2 0xCA0 JUMPI PUSH2 0x426 JUMP JUMPDEST DUP1 PUSH4 0x7E56FDE5 GT PUSH2 0x1F8 JUMPI DUP1 PUSH4 0x7E56FDE5 EQ PUSH2 0xB26 JUMPI DUP1 PUSH4 0x7EE28E3C EQ PUSH2 0xB63 JUMPI DUP1 PUSH4 0x8013F3A7 EQ PUSH2 0xB8C JUMPI DUP1 PUSH4 0x817B1CD2 EQ PUSH2 0xBB7 JUMPI DUP1 PUSH4 0x8A315EFD EQ PUSH2 0xBE2 JUMPI PUSH2 0x426 JUMP JUMPDEST DUP1 PUSH4 0x7C8E4B4C EQ PUSH2 0xA7C JUMPI DUP1 PUSH4 0x7CC5B1E6 EQ PUSH2 0xAA5 JUMPI DUP1 PUSH4 0x7D882097 EQ PUSH2 0xAD0 JUMPI DUP1 PUSH4 0x7DB07C9D EQ PUSH2 0xAFB JUMPI PUSH2 0x426 JUMP JUMPDEST DUP1 PUSH4 0x3578584F GT PUSH2 0x32F JUMPI DUP1 PUSH4 0x57386225 GT PUSH2 0x2B7 JUMPI DUP1 PUSH4 0x68F58B03 GT PUSH2 0x286 JUMPI DUP1 PUSH4 0x68F58B03 EQ PUSH2 0x9A9 JUMPI DUP1 PUSH4 0x69B11DD5 EQ PUSH2 0x9D4 JUMPI DUP1 PUSH4 0x6F969D28 EQ PUSH2 0x9FF JUMPI DUP1 PUSH4 0x752A2628 EQ PUSH2 0xA28 JUMPI DUP1 PUSH4 0x7A62EAD7 EQ PUSH2 0xA53 JUMPI PUSH2 0x426 JUMP JUMPDEST DUP1 PUSH4 0x57386225 EQ PUSH2 0x8E2 JUMPI DUP1 PUSH4 0x59EEC895 EQ PUSH2 0x8F9 JUMPI DUP1 PUSH4 0x6386C1C7 EQ PUSH2 0x924 JUMPI DUP1 PUSH4 0x64C03A5E EQ PUSH2 0x96C JUMPI PUSH2 0x426 JUMP JUMPDEST DUP1 PUSH4 0x4B319713 GT PUSH2 0x2FE JUMPI DUP1 PUSH4 0x4B319713 EQ PUSH2 0x807 JUMPI DUP1 PUSH4 0x4CE87053 EQ PUSH2 0x832 JUMPI DUP1 PUSH4 0x50637DBD EQ PUSH2 0x860 JUMPI DUP1 PUSH4 0x50CF1C7A EQ PUSH2 0x89D JUMPI DUP1 PUSH4 0x570C2979 EQ PUSH2 0x8B9 JUMPI PUSH2 0x426 JUMP JUMPDEST DUP1 PUSH4 0x3578584F EQ PUSH2 0x75F JUMPI DUP1 PUSH4 0x43CE7422 EQ PUSH2 0x78A JUMPI DUP1 PUSH4 0x45A6A6E0 EQ PUSH2 0x7B5 JUMPI DUP1 PUSH4 0x45F98C29 EQ PUSH2 0x7DE JUMPI PUSH2 0x426 JUMP JUMPDEST DUP1 PUSH4 0x1BD8225D GT PUSH2 0x3B2 JUMPI DUP1 PUSH4 0x298EA310 GT PUSH2 0x381 JUMPI DUP1 PUSH4 0x298EA310 EQ PUSH2 0x68C JUMPI DUP1 PUSH4 0x2B039D0E EQ PUSH2 0x6B5 JUMPI DUP1 PUSH4 0x2BC82F7F EQ PUSH2 0x6DE JUMPI DUP1 PUSH4 0x2E9392BB EQ PUSH2 0x709 JUMPI DUP1 PUSH4 0x333F57B3 EQ PUSH2 0x734 JUMPI PUSH2 0x426 JUMP JUMPDEST DUP1 PUSH4 0x1BD8225D EQ PUSH2 0x5AA JUMPI DUP1 PUSH4 0x229824C4 EQ PUSH2 0x5E7 JUMPI DUP1 PUSH4 0x2362CE89 EQ PUSH2 0x624 JUMPI DUP1 PUSH4 0x26FD8422 EQ PUSH2 0x64F JUMPI PUSH2 0x426 JUMP JUMPDEST DUP1 PUSH4 0x12065FE0 GT PUSH2 0x3F9 JUMPI DUP1 PUSH4 0x12065FE0 EQ PUSH2 0x4D7 JUMPI DUP1 PUSH4 0x1848B8DC EQ PUSH2 0x502 JUMPI DUP1 PUSH4 0x18C819D8 EQ PUSH2 0x52D JUMPI DUP1 PUSH4 0x195A7339 EQ PUSH2 0x556 JUMPI DUP1 PUSH4 0x1A7B8D4F EQ PUSH2 0x581 JUMPI PUSH2 0x426 JUMP JUMPDEST DUP1 PUSH4 0x1C234A8 EQ PUSH2 0x42B JUMPI DUP1 PUSH4 0x420C98E EQ PUSH2 0x456 JUMPI DUP1 PUSH4 0x7AEB7F0 EQ PUSH2 0x481 JUMPI DUP1 PUSH4 0xA76E5ED EQ PUSH2 0x4AC JUMPI JUMPDEST PUSH1 0x0 DUP1 REVERT JUMPDEST CALLVALUE DUP1 ISZERO PUSH2 0x437 JUMPI PUSH1 0x0 DUP1 REVERT JUMPDEST POP PUSH2 0x440 PUSH2 0x111D JUMP JUMPDEST PUSH1 0x40 MLOAD PUSH2 0x44D SWAP2 SWAP1 PUSH2 0x39A2 JUMP JUMPDEST PUSH1 0x40 MLOAD DUP1 SWAP2 SUB SWAP1 RETURN JUMPDEST CALLVALUE DUP1 ISZERO PUSH2 0x462 JUMPI PUSH1 0x0 DUP1 REVERT JUMPDEST POP PUSH2 0x46B PUSH2 0x1123 JUMP JUMPDEST PUSH1 0x40 MLOAD PUSH2 0x478 SWAP2 SWAP1 PUSH2 0x39A2 JUMP JUMPDEST PUSH1 0x40 MLOAD DUP1 SWAP2 SUB SWAP1 RETURN JUMPDEST CALLVALUE DUP1 ISZERO PUSH2 0x48D JUMPI PUSH1 0x0 DUP1 REVERT JUMPDEST POP PUSH2 0x496 PUSH2 0x1129 JUMP JUMPDEST PUSH1 0x40 MLOAD PUSH2 0x4A3 SWAP2 SWAP1 PUSH2 0x39FE JUMP JUMPDEST PUSH1 0x40 MLOAD DUP1 SWAP2 SUB SWAP1 RETURN JUMPDEST CALLVALUE DUP1 ISZERO PUSH2 0x4B8 JUMPI PUSH1 0x0 DUP1 REVERT JUMPDEST POP PUSH2 0x4C1 PUSH2 0x114F JUMP JUMPDEST PUSH1 0x40 MLOAD PUSH2 0x4CE SWAP2 SWAP1 PUSH2 0x39A2 JUMP JUMPDEST PUSH1 0x40 MLOAD DUP1 SWAP2 SUB SWAP1 RETURN JUMPDEST CALLVALUE DUP1 ISZERO PUSH2 0x4E3 JUMPI PUSH1 0x0 DUP1 REVERT JUMPDEST POP PUSH2 0x4EC PUSH2 0x1199 JUMP JUMPDEST PUSH1 0x40 MLOAD PUSH2 0x4F9 SWAP2 SWAP1 PUSH2 0x39A2 JUMP JUMPDEST PUSH1 0x40 MLOAD DUP1 SWAP2 SUB SWAP1 RETURN JUMPDEST CALLVALUE DUP1 ISZERO PUSH2 0x50E JUMPI PUSH1 0x0 DUP1 REVERT JUMPDEST POP PUSH2 0x517 PUSH2 0x11A1 JUMP JUMPDEST PUSH1 0x40 MLOAD PUSH2 0x524 SWAP2 SWAP1 PUSH2 0x39A2 JUMP JUMPDEST PUSH1 0x40 MLOAD DUP1 SWAP2 SUB SWAP1 RETURN JUMPDEST CALLVALUE DUP1 ISZERO PUSH2 0x539 JUMPI PUSH1 0x0 DUP1 REVERT JUMPDEST POP PUSH2 0x554 PUSH1 0x4 DUP1 CALLDATASIZE SUB DUP2 ADD SWAP1 PUSH2 0x54F SWAP2 SWAP1 PUSH2 0x3A5B JUMP JUMPDEST PUSH2 0x11A7 JUMP JUMPDEST STOP JUMPDEST CALLVALUE DUP1 ISZERO PUSH2 0x562 JUMPI PUSH1 0x0 DUP1 REVERT JUMPDEST POP PUSH2 0x56B PUSH2 0x13A7 JUMP JUMPDEST PUSH1 0x40 MLOAD PUSH2 0x578 SWAP2 SWAP1 PUSH2 0x39A2 JUMP JUMPDEST PUSH1 0x40 MLOAD DUP1 SWAP2 SUB SWAP1 RETURN JUMPDEST CALLVALUE DUP1 ISZERO PUSH2 0x58D JUMPI PUSH1 0x0 DUP1 REVERT JUMPDEST POP PUSH2 0x5A8 PUSH1 0x4 DUP1 CALLDATASIZE SUB DUP2 ADD SWAP1 PUSH2 0x5A3 SWAP2 SWAP1 PUSH2 0x3AB4 JUMP JUMPDEST PUSH2 0x13AD JUMP JUMPDEST STOP JUMPDEST CALLVALUE DUP1 ISZERO PUSH2 0x5B6 JUMPI PUSH1 0x0 DUP1 REVERT JUMPDEST POP PUSH2 0x5D1 PUSH1 0x4 DUP1 CALLDATASIZE SUB DUP2 ADD SWAP1 PUSH2 0x5CC SWAP2 SWAP1 PUSH2 0x3B1F JUMP JUMPDEST PUSH2 0x1455 JUMP JUMPDEST PUSH1 0x40 MLOAD PUSH2 0x5DE SWAP2 SWAP1 PUSH2 0x39A2 JUMP JUMPDEST PUSH1 0x40 MLOAD DUP1 SWAP2 SUB SWAP1 RETURN JUMPDEST CALLVALUE DUP1 ISZERO PUSH2 0x5F3 JUMPI PUSH1 0x0 DUP1 REVERT JUMPDEST POP PUSH2 0x60E PUSH1 0x4 DUP1 CALLDATASIZE SUB DUP2 ADD SWAP1 PUSH2 0x609 SWAP2 SWAP1 PUSH2 0x3B4C JUMP JUMPDEST PUSH2 0x146D JUMP JUMPDEST PUSH1 0x40 MLOAD PUSH2 0x61B SWAP2 SWAP1 PUSH2 0x39A2 JUMP JUMPDEST PUSH1 0x40 MLOAD DUP1 SWAP2 SUB SWAP1 RETURN JUMPDEST CALLVALUE DUP1 ISZERO PUSH2 0x630 JUMPI PUSH1 0x0 DUP1 REVERT JUMPDEST POP PUSH2 0x639 PUSH2 0x14C0 JUMP JUMPDEST PUSH1 0x40 MLOAD PUSH2 0x646 SWAP2 SWAP1 PUSH2 0x39FE JUMP JUMPDEST PUSH1 0x40 MLOAD DUP1 SWAP2 SUB SWAP1 RETURN JUMPDEST CALLVALUE DUP1 ISZERO PUSH2 0x65B JUMPI PUSH1 0x0 DUP1 REVERT JUMPDEST POP PUSH2 0x676 PUSH1 0x4 DUP1 CALLDATASIZE SUB DUP2 ADD SWAP1 PUSH2 0x671 SWAP2 SWAP1 PUSH2 0x3B9F JUMP JUMPDEST PUSH2 0x14E6 JUMP JUMPDEST PUSH1 0x40 MLOAD PUSH2 0x683 SWAP2 SWAP1 PUSH2 0x39A2 JUMP JUMPDEST PUSH1 0x40 MLOAD DUP1 SWAP2 SUB SWAP1 RETURN JUMPDEST CALLVALUE DUP1 ISZERO PUSH2 0x698 JUMPI PUSH1 0x0 DUP1 REVERT JUMPDEST POP PUSH2 0x6B3 PUSH1 0x4 DUP1 CALLDATASIZE SUB DUP2 ADD SWAP1 PUSH2 0x6AE SWAP2 SWAP1 PUSH2 0x3AB4 JUMP JUMPDEST PUSH2 0x14FD JUMP JUMPDEST STOP JUMPDEST CALLVALUE DUP1 ISZERO PUSH2 0x6C1 JUMPI PUSH1 0x0 DUP1 REVERT JUMPDEST POP PUSH2 0x6DC PUSH1 0x4 DUP1 CALLDATASIZE SUB DUP2 ADD SWAP1 PUSH2 0x6D7 SWAP2 SWAP1 PUSH2 0x3B1F JUMP JUMPDEST PUSH2 0x15A5 JUMP JUMPDEST STOP JUMPDEST CALLVALUE DUP1 ISZERO PUSH2 0x6EA JUMPI PUSH1 0x0 DUP1 REVERT JUMPDEST POP PUSH2 0x6F3 PUSH2 0x1679 JUMP JUMPDEST PUSH1 0x40 MLOAD PUSH2 0x700 SWAP2 SWAP1 PUSH2 0x39A2 JUMP JUMPDEST PUSH1 0x40 MLOAD DUP1 SWAP2 SUB SWAP1 RETURN JUMPDEST CALLVALUE DUP1 ISZERO PUSH2 0x715 JUMPI PUSH1 0x0 DUP1 REVERT JUMPDEST POP PUSH2 0x71E PUSH2 0x167F JUMP JUMPDEST PUSH1 0x40 MLOAD PUSH2 0x72B SWAP2 SWAP1 PUSH2 0x39A2 JUMP JUMPDEST PUSH1 0x40 MLOAD DUP1 SWAP2 SUB SWAP1 RETURN JUMPDEST CALLVALUE DUP1 ISZERO PUSH2 0x740 JUMPI PUSH1 0x0 DUP1 REVERT JUMPDEST POP PUSH2 0x749 PUSH2 0x1685 JUMP JUMPDEST PUSH1 0x40 MLOAD PUSH2 0x756 SWAP2 SWAP1 PUSH2 0x3BEE JUMP JUMPDEST PUSH1 0x40 MLOAD DUP1 SWAP2 SUB SWAP1 RETURN JUMPDEST CALLVALUE DUP1 ISZERO PUSH2 0x76B JUMPI PUSH1 0x0 DUP1 REVERT JUMPDEST POP PUSH2 0x774 PUSH2 0x1698 JUMP JUMPDEST PUSH1 0x40 MLOAD PUSH2 0x781 SWAP2 SWAP1 PUSH2 0x39A2 JUMP JUMPDEST PUSH1 0x40 MLOAD DUP1 SWAP2 SUB SWAP1 RETURN JUMPDEST CALLVALUE DUP1 ISZERO PUSH2 0x796 JUMPI PUSH1 0x0 DUP1 REVERT JUMPDEST POP PUSH2 0x79F PUSH2 0x169E JUMP JUMPDEST PUSH1 0x40 MLOAD PUSH2 0x7AC SWAP2 SWAP1 PUSH2 0x39A2 JUMP JUMPDEST PUSH1 0x40 MLOAD DUP1 SWAP2 SUB SWAP1 RETURN JUMPDEST CALLVALUE DUP1 ISZERO PUSH2 0x7C1 JUMPI PUSH1 0x0 DUP1 REVERT JUMPDEST POP PUSH2 0x7DC PUSH1 0x4 DUP1 CALLDATASIZE SUB DUP2 ADD SWAP1 PUSH2 0x7D7 SWAP2 SWAP1 PUSH2 0x3AB4 JUMP JUMPDEST PUSH2 0x1702 JUMP JUMPDEST STOP JUMPDEST CALLVALUE DUP1 ISZERO PUSH2 0x7EA JUMPI PUSH1 0x0 DUP1 REVERT JUMPDEST POP PUSH2 0x805 PUSH1 0x4 DUP1 CALLDATASIZE SUB DUP2 ADD SWAP1 PUSH2 0x800 SWAP2 SWAP1 PUSH2 0x3AB4 JUMP JUMPDEST PUSH2 0x17C1 JUMP JUMPDEST STOP JUMPDEST CALLVALUE DUP1 ISZERO PUSH2 0x813 JUMPI PUSH1 0x0 DUP1 REVERT JUMPDEST POP PUSH2 0x81C PUSH2 0x185B JUMP JUMPDEST PUSH1 0x40 MLOAD PUSH2 0x829 SWAP2 SWAP1 PUSH2 0x39A2 JUMP JUMPDEST PUSH1 0x40 MLOAD DUP1 SWAP2 SUB SWAP1 RETURN JUMPDEST CALLVALUE DUP1 ISZERO PUSH2 0x83E JUMPI PUSH1 0x0 DUP1 REVERT JUMPDEST POP PUSH2 0x847 PUSH2 0x1861 JUMP JUMPDEST PUSH1 0x40 MLOAD PUSH2 0x857 SWAP5 SWAP4 SWAP3 SWAP2 SWAP1 PUSH2 0x3C09 JUMP JUMPDEST PUSH1 0x40 MLOAD DUP1 SWAP2 SUB SWAP1 RETURN JUMPDEST CALLVALUE DUP1 ISZERO PUSH2 0x86C JUMPI PUSH1 0x0 DUP1 REVERT JUMPDEST POP PUSH2 0x887 PUSH1 0x4 DUP1 CALLDATASIZE SUB DUP2 ADD SWAP1 PUSH2 0x882 SWAP2 SWAP1 PUSH2 0x3C4E JUMP JUMPDEST PUSH2 0x1881 JUMP JUMPDEST PUSH1 0x40 MLOAD PUSH2 0x894 SWAP2 SWAP1 PUSH2 0x39A2 JUMP JUMPDEST PUSH1 0x40 MLOAD DUP1 SWAP2 SUB SWAP1 RETURN JUMPDEST PUSH2 0x8B7 PUSH1 0x4 DUP1 CALLDATASIZE SUB DUP2 ADD SWAP1 PUSH2 0x8B2 SWAP2 SWAP1 PUSH2 0x3B1F JUMP JUMPDEST PUSH2 0x1968 JUMP JUMPDEST STOP JUMPDEST CALLVALUE DUP1 ISZERO PUSH2 0x8C5 JUMPI PUSH1 0x0 DUP1 REVERT JUMPDEST POP PUSH2 0x8E0 PUSH1 0x4 DUP1 CALLDATASIZE SUB DUP2 ADD SWAP1 PUSH2 0x8DB SWAP2 SWAP1 PUSH2 0x3AB4 JUMP JUMPDEST PUSH2 0x1DFE JUMP JUMPDEST STOP JUMPDEST CALLVALUE DUP1 ISZERO PUSH2 0x8EE JUMPI PUSH1 0x0 DUP1 REVERT JUMPDEST POP PUSH2 0x8F7 PUSH2 0x1EB3 JUMP JUMPDEST STOP JUMPDEST CALLVALUE DUP1 ISZERO PUSH2 0x905 JUMPI PUSH1 0x0 DUP1 REVERT JUMPDEST POP PUSH2 0x90E PUSH2 0x2171 JUMP JUMPDEST PUSH1 0x40 MLOAD PUSH2 0x91B SWAP2 SWAP1 PUSH2 0x39A2 JUMP JUMPDEST PUSH1 0x40 MLOAD DUP1 SWAP2 SUB SWAP1 RETURN JUMPDEST CALLVALUE DUP1 ISZERO PUSH2 0x930 JUMPI PUSH1 0x0 DUP1 REVERT JUMPDEST POP PUSH2 0x94B PUSH1 0x4 DUP1 CALLDATASIZE SUB DUP2 ADD SWAP1 PUSH2 0x946 SWAP2 SWAP1 PUSH2 0x3B1F JUMP JUMPDEST PUSH2 0x2177 JUMP JUMPDEST PUSH1 0x40 MLOAD PUSH2 0x963 SWAP13 SWAP12 SWAP11 SWAP10 SWAP9 SWAP8 SWAP7 SWAP6 SWAP5 SWAP4 SWAP3 SWAP2 SWAP1 PUSH2 0x3C9D JUMP JUMPDEST PUSH1 0x40 MLOAD DUP1 SWAP2 SUB SWAP1 RETURN JUMPDEST CALLVALUE DUP1 ISZERO PUSH2 0x978 JUMPI PUSH1 0x0 DUP1 REVERT JUMPDEST POP PUSH2 0x993 PUSH1 0x4 DUP1 CALLDATASIZE SUB DUP2 ADD SWAP1 PUSH2 0x98E SWAP2 SWAP1 PUSH2 0x3B1F JUMP JUMPDEST PUSH2 0x24F4 JUMP JUMPDEST PUSH1 0x40 MLOAD PUSH2 0x9A0 SWAP2 SWAP1 PUSH2 0x39A2 JUMP JUMPDEST PUSH1 0x40 MLOAD DUP1 SWAP2 SUB SWAP1 RETURN JUMPDEST CALLVALUE DUP1 ISZERO PUSH2 0x9B5 JUMPI PUSH1 0x0 DUP1 REVERT JUMPDEST POP PUSH2 0x9BE PUSH2 0x2567 JUMP JUMPDEST PUSH1 0x40 MLOAD PUSH2 0x9CB SWAP2 SWAP1 PUSH2 0x39A2 JUMP JUMPDEST PUSH1 0x40 MLOAD DUP1 SWAP2 SUB SWAP1 RETURN JUMPDEST CALLVALUE DUP1 ISZERO PUSH2 0x9E0 JUMPI PUSH1 0x0 DUP1 REVERT JUMPDEST POP PUSH2 0x9E9 PUSH2 0x256D JUMP JUMPDEST PUSH1 0x40 MLOAD PUSH2 0x9F6 SWAP2 SWAP1 PUSH2 0x39A2 JUMP JUMPDEST PUSH1 0x40 MLOAD DUP1 SWAP2 SUB SWAP1 RETURN JUMPDEST CALLVALUE DUP1 ISZERO PUSH2 0xA0B JUMPI PUSH1 0x0 DUP1 REVERT JUMPDEST POP PUSH2 0xA26 PUSH1 0x4 DUP1 CALLDATASIZE SUB DUP2 ADD SWAP1 PUSH2 0xA21 SWAP2 SWAP1 PUSH2 0x3AB4 JUMP JUMPDEST PUSH2 0x2573 JUMP JUMPDEST STOP JUMPDEST CALLVALUE DUP1 ISZERO PUSH2 0xA34 JUMPI PUSH1 0x0 DUP1 REVERT JUMPDEST POP PUSH2 0xA3D PUSH2 0x2629 JUMP JUMPDEST PUSH1 0x40 MLOAD PUSH2 0xA4A SWAP2 SWAP1 PUSH2 0x39A2 JUMP JUMPDEST PUSH1 0x40 MLOAD DUP1 SWAP2 SUB SWAP1 RETURN JUMPDEST CALLVALUE DUP1 ISZERO PUSH2 0xA5F JUMPI PUSH1 0x0 DUP1 REVERT JUMPDEST POP PUSH2 0xA7A PUSH1 0x4 DUP1 CALLDATASIZE SUB DUP2 ADD SWAP1 PUSH2 0xA75 SWAP2 SWAP1 PUSH2 0x3AB4 JUMP JUMPDEST PUSH2 0x262F JUMP JUMPDEST STOP JUMPDEST CALLVALUE DUP1 ISZERO PUSH2 0xA88 JUMPI PUSH1 0x0 DUP1 REVERT JUMPDEST POP PUSH2 0xAA3 PUSH1 0x4 DUP1 CALLDATASIZE SUB DUP2 ADD SWAP1 PUSH2 0xA9E SWAP2 SWAP1 PUSH2 0x3AB4 JUMP JUMPDEST PUSH2 0x26D7 JUMP JUMPDEST STOP JUMPDEST CALLVALUE DUP1 ISZERO PUSH2 0xAB1 JUMPI PUSH1 0x0 DUP1 REVERT JUMPDEST POP PUSH2 0xABA PUSH2 0x2788 JUMP JUMPDEST PUSH1 0x40 MLOAD PUSH2 0xAC7 SWAP2 SWAP1 PUSH2 0x39FE JUMP JUMPDEST PUSH1 0x40 MLOAD DUP1 SWAP2 SUB SWAP1 RETURN JUMPDEST CALLVALUE DUP1 ISZERO PUSH2 0xADC JUMPI PUSH1 0x0 DUP1 REVERT JUMPDEST POP PUSH2 0xAE5 PUSH2 0x27AE JUMP JUMPDEST PUSH1 0x40 MLOAD PUSH2 0xAF2 SWAP2 SWAP1 PUSH2 0x39A2 JUMP JUMPDEST PUSH1 0x40 MLOAD DUP1 SWAP2 SUB SWAP1 RETURN JUMPDEST CALLVALUE DUP1 ISZERO PUSH2 0xB07 JUMPI PUSH1 0x0 DUP1 REVERT JUMPDEST POP PUSH2 0xB10 PUSH2 0x27B4 JUMP JUMPDEST PUSH1 0x40 MLOAD PUSH2 0xB1D SWAP2 SWAP1 PUSH2 0x39A2 JUMP JUMPDEST PUSH1 0x40 MLOAD DUP1 SWAP2 SUB SWAP1 RETURN JUMPDEST CALLVALUE DUP1 ISZERO PUSH2 0xB32 JUMPI PUSH1 0x0 DUP1 REVERT JUMPDEST POP PUSH2 0xB4D PUSH1 0x4 DUP1 CALLDATASIZE SUB DUP2 ADD SWAP1 PUSH2 0xB48 SWAP2 SWAP1 PUSH2 0x3AB4 JUMP JUMPDEST PUSH2 0x27BA JUMP JUMPDEST PUSH1 0x40 MLOAD PUSH2 0xB5A SWAP2 SWAP1 PUSH2 0x39A2 JUMP JUMPDEST PUSH1 0x40 MLOAD DUP1 SWAP2 SUB SWAP1 RETURN JUMPDEST CALLVALUE DUP1 ISZERO PUSH2 0xB6F JUMPI PUSH1 0x0 DUP1 REVERT JUMPDEST POP PUSH2 0xB8A PUSH1 0x4 DUP1 CALLDATASIZE SUB DUP2 ADD SWAP1 PUSH2 0xB85 SWAP2 SWAP1 PUSH2 0x3AB4 JUMP JUMPDEST PUSH2 0x27D4 JUMP JUMPDEST STOP JUMPDEST CALLVALUE DUP1 ISZERO PUSH2 0xB98 JUMPI PUSH1 0x0 DUP1 REVERT JUMPDEST POP PUSH2 0xBA1 PUSH2 0x288F JUMP JUMPDEST PUSH1 0x40 MLOAD PUSH2 0xBAE SWAP2 SWAP1 PUSH2 0x39FE JUMP JUMPDEST PUSH1 0x40 MLOAD DUP1 SWAP2 SUB SWAP1 RETURN JUMPDEST CALLVALUE DUP1 ISZERO PUSH2 0xBC3 JUMPI PUSH1 0x0 DUP1 REVERT JUMPDEST POP PUSH2 0xBCC PUSH2 0x28B5 JUMP JUMPDEST PUSH1 0x40 MLOAD PUSH2 0xBD9 SWAP2 SWAP1 PUSH2 0x39A2 JUMP JUMPDEST PUSH1 0x40 MLOAD DUP1 SWAP2 SUB SWAP1 RETURN JUMPDEST CALLVALUE DUP1 ISZERO PUSH2 0xBEE JUMPI PUSH1 0x0 DUP1 REVERT JUMPDEST POP PUSH2 0xBF7 PUSH2 0x28BB JUMP JUMPDEST PUSH1 0x40 MLOAD PUSH2 0xC04 SWAP2 SWAP1 PUSH2 0x39FE JUMP JUMPDEST PUSH1 0x40 MLOAD DUP1 SWAP2 SUB SWAP1 RETURN JUMPDEST CALLVALUE DUP1 ISZERO PUSH2 0xC19 JUMPI PUSH1 0x0 DUP1 REVERT JUMPDEST POP PUSH2 0xC22 PUSH2 0x28E1 JUMP JUMPDEST PUSH1 0x40 MLOAD PUSH2 0xC2F SWAP2 SWAP1 PUSH2 0x3D57 JUMP JUMPDEST PUSH1 0x40 MLOAD DUP1 SWAP2 SUB SWAP1 RETURN JUMPDEST CALLVALUE DUP1 ISZERO PUSH2 0xC44 JUMPI PUSH1 0x0 DUP1 REVERT JUMPDEST POP PUSH2 0xC5F PUSH1 0x4 DUP1 CALLDATASIZE SUB DUP2 ADD SWAP1 PUSH2 0xC5A SWAP2 SWAP1 PUSH2 0x3AB4 JUMP JUMPDEST PUSH2 0x2907 JUMP JUMPDEST PUSH1 0x40 MLOAD PUSH2 0xC6C SWAP2 SWAP1 PUSH2 0x39A2 JUMP JUMPDEST PUSH1 0x40 MLOAD DUP1 SWAP2 SUB SWAP1 RETURN JUMPDEST CALLVALUE DUP1 ISZERO PUSH2 0xC81 JUMPI PUSH1 0x0 DUP1 REVERT JUMPDEST POP PUSH2 0xC8A PUSH2 0x2924 JUMP JUMPDEST PUSH1 0x40 MLOAD PUSH2 0xC97 SWAP2 SWAP1 PUSH2 0x39A2 JUMP JUMPDEST PUSH1 0x40 MLOAD DUP1 SWAP2 SUB SWAP1 RETURN JUMPDEST CALLVALUE DUP1 ISZERO PUSH2 0xCAC JUMPI PUSH1 0x0 DUP1 REVERT JUMPDEST POP PUSH2 0xCC7 PUSH1 0x4 DUP1 CALLDATASIZE SUB DUP2 ADD SWAP1 PUSH2 0xCC2 SWAP2 SWAP1 PUSH2 0x3AB4 JUMP JUMPDEST PUSH2 0x292A JUMP JUMPDEST STOP JUMPDEST CALLVALUE DUP1 ISZERO PUSH2 0xCD5 JUMPI PUSH1 0x0 DUP1 REVERT JUMPDEST POP PUSH2 0xCF0 PUSH1 0x4 DUP1 CALLDATASIZE SUB DUP2 ADD SWAP1 PUSH2 0xCEB SWAP2 SWAP1 PUSH2 0x3AB4 JUMP JUMPDEST PUSH2 0x29E9 JUMP JUMPDEST STOP JUMPDEST CALLVALUE DUP1 ISZERO PUSH2 0xCFE JUMPI PUSH1 0x0 DUP1 REVERT JUMPDEST POP PUSH2 0xD19 PUSH1 0x4 DUP1 CALLDATASIZE SUB DUP2 ADD SWAP1 PUSH2 0xD14 SWAP2 SWAP1 PUSH2 0x3A5B JUMP JUMPDEST PUSH2 0x2A91 JUMP JUMPDEST STOP JUMPDEST CALLVALUE DUP1 ISZERO PUSH2 0xD27 JUMPI PUSH1 0x0 DUP1 REVERT JUMPDEST POP PUSH2 0xD30 PUSH2 0x2B3E JUMP JUMPDEST PUSH1 0x40 MLOAD PUSH2 0xD3D SWAP2 SWAP1 PUSH2 0x39FE JUMP JUMPDEST PUSH1 0x40 MLOAD DUP1 SWAP2 SUB SWAP1 RETURN JUMPDEST CALLVALUE DUP1 ISZERO PUSH2 0xD52 JUMPI PUSH1 0x0 DUP1 REVERT JUMPDEST POP PUSH2 0xD6D PUSH1 0x4 DUP1 CALLDATASIZE SUB DUP2 ADD SWAP1 PUSH2 0xD68 SWAP2 SWAP1 PUSH2 0x3B1F JUMP JUMPDEST PUSH2 0x2B64 JUMP JUMPDEST PUSH1 0x40 MLOAD PUSH2 0xD85 SWAP13 SWAP12 SWAP11 SWAP10 SWAP9 SWAP8 SWAP7 SWAP6 SWAP5 SWAP4 SWAP3 SWAP2 SWAP1 PUSH2 0x3C9D JUMP JUMPDEST PUSH1 0x40 MLOAD DUP1 SWAP2 SUB SWAP1 RETURN JUMPDEST CALLVALUE DUP1 ISZERO PUSH2 0xD9A JUMPI PUSH1 0x0 DUP1 REVERT JUMPDEST POP PUSH2 0xDB5 PUSH1 0x4 DUP1 CALLDATASIZE SUB DUP2 ADD SWAP1 PUSH2 0xDB0 SWAP2 SWAP1 PUSH2 0x3B1F JUMP JUMPDEST PUSH2 0x2BE4 JUMP JUMPDEST PUSH1 0x40 MLOAD PUSH2 0xDC2 SWAP2 SWAP1 PUSH2 0x39A2 JUMP JUMPDEST PUSH1 0x40 MLOAD DUP1 SWAP2 SUB SWAP1 RETURN JUMPDEST CALLVALUE DUP1 ISZERO PUSH2 0xDD7 JUMPI PUSH1 0x0 DUP1 REVERT JUMPDEST POP PUSH2 0xDE0 PUSH2 0x2BFC JUMP JUMPDEST PUSH1 0x40 MLOAD PUSH2 0xDED SWAP2 SWAP1 PUSH2 0x3BEE JUMP JUMPDEST PUSH1 0x40 MLOAD DUP1 SWAP2 SUB SWAP1 RETURN JUMPDEST PUSH2 0xDFE PUSH2 0x2C0F JUMP JUMPDEST STOP JUMPDEST CALLVALUE DUP1 ISZERO PUSH2 0xE0C JUMPI PUSH1 0x0 DUP1 REVERT JUMPDEST POP PUSH2 0xE27 PUSH1 0x4 DUP1 CALLDATASIZE SUB DUP2 ADD SWAP1 PUSH2 0xE22 SWAP2 SWAP1 PUSH2 0x3AB4 JUMP JUMPDEST PUSH2 0x2C11 JUMP JUMPDEST PUSH1 0x40 MLOAD PUSH2 0xE35 SWAP3 SWAP2 SWAP1 PUSH2 0x3D72 JUMP JUMPDEST PUSH1 0x40 MLOAD DUP1 SWAP2 SUB SWAP1 RETURN JUMPDEST CALLVALUE DUP1 ISZERO PUSH2 0xE4A JUMPI PUSH1 0x0 DUP1 REVERT JUMPDEST POP PUSH2 0xE65 PUSH1 0x4 DUP1 CALLDATASIZE SUB DUP2 ADD SWAP1 PUSH2 0xE60 SWAP2 SWAP1 PUSH2 0x3AB4 JUMP JUMPDEST PUSH2 0x2CA3 JUMP JUMPDEST STOP JUMPDEST CALLVALUE DUP1 ISZERO PUSH2 0xE73 JUMPI PUSH1 0x0 DUP1 REVERT JUMPDEST POP PUSH2 0xE8E PUSH1 0x4 DUP1 CALLDATASIZE SUB DUP2 ADD SWAP1 PUSH2 0xE89 SWAP2 SWAP1 PUSH2 0x3B1F JUMP JUMPDEST PUSH2 0x2D4C JUMP JUMPDEST PUSH1 0x40 MLOAD PUSH2 0xE9B SWAP2 SWAP1 PUSH2 0x3BEE JUMP JUMPDEST PUSH1 0x40 MLOAD DUP1 SWAP2 SUB SWAP1 RETURN JUMPDEST CALLVALUE DUP1 ISZERO PUSH2 0xEB0 JUMPI PUSH1 0x0 DUP1 REVERT JUMPDEST POP PUSH2 0xEB9 PUSH2 0x2E32 JUMP JUMPDEST PUSH1 0x40 MLOAD PUSH2 0xEC6 SWAP2 SWAP1 PUSH2 0x39A2 JUMP JUMPDEST PUSH1 0x40 MLOAD DUP1 SWAP2 SUB SWAP1 RETURN JUMPDEST CALLVALUE DUP1 ISZERO PUSH2 0xEDB JUMPI PUSH1 0x0 DUP1 REVERT JUMPDEST POP PUSH2 0xEE4 PUSH2 0x2E38 JUMP JUMPDEST PUSH1 0x40 MLOAD PUSH2 0xEF1 SWAP2 SWAP1 PUSH2 0x39A2 JUMP JUMPDEST PUSH1 0x40 MLOAD DUP1 SWAP2 SUB SWAP1 RETURN JUMPDEST CALLVALUE DUP1 ISZERO PUSH2 0xF06 JUMPI PUSH1 0x0 DUP1 REVERT JUMPDEST POP PUSH2 0xF21 PUSH1 0x4 DUP1 CALLDATASIZE SUB DUP2 ADD SWAP1 PUSH2 0xF1C SWAP2 SWAP1 PUSH2 0x3B9F JUMP JUMPDEST PUSH2 0x2E3E JUMP JUMPDEST PUSH1 0x40 MLOAD PUSH2 0xF2E SWAP2 SWAP1 PUSH2 0x39A2 JUMP JUMPDEST PUSH1 0x40 MLOAD DUP1 SWAP2 SUB SWAP1 RETURN JUMPDEST CALLVALUE DUP1 ISZERO PUSH2 0xF43 JUMPI PUSH1 0x0 DUP1 REVERT JUMPDEST POP PUSH2 0xF4C PUSH2 0x2E6E JUMP JUMPDEST PUSH1 0x40 MLOAD PUSH2 0xF59 SWAP2 SWAP1 PUSH2 0x39A2 JUMP JUMPDEST PUSH1 0x40 MLOAD DUP1 SWAP2 SUB SWAP1 RETURN JUMPDEST CALLVALUE DUP1 ISZERO PUSH2 0xF6E JUMPI PUSH1 0x0 DUP1 REVERT JUMPDEST POP PUSH2 0xF77 PUSH2 0x2E74 JUMP JUMPDEST PUSH1 0x40 MLOAD PUSH2 0xF84 SWAP2 SWAP1 PUSH2 0x39A2 JUMP JUMPDEST PUSH1 0x40 MLOAD DUP1 SWAP2 SUB SWAP1 RETURN JUMPDEST CALLVALUE DUP1 ISZERO PUSH2 0xF99 JUMPI PUSH1 0x0 DUP1 REVERT JUMPDEST POP PUSH2 0xFB4 PUSH1 0x4 DUP1 CALLDATASIZE SUB DUP2 ADD SWAP1 PUSH2 0xFAF SWAP2 SWAP1 PUSH2 0x3B1F JUMP JUMPDEST PUSH2 0x2E7A JUMP JUMPDEST PUSH1 0x40 MLOAD PUSH2 0xFC1 SWAP2 SWAP1 PUSH2 0x39A2 JUMP JUMPDEST PUSH1 0x40 MLOAD DUP1 SWAP2 SUB SWAP1 RETURN JUMPDEST CALLVALUE DUP1 ISZERO PUSH2 0xFD6 JUMPI PUSH1 0x0 DUP1 REVERT JUMPDEST POP PUSH2 0xFF1 PUSH1 0x4 DUP1 CALLDATASIZE SUB DUP2 ADD SWAP1 PUSH2 0xFEC SWAP2 SWAP1 PUSH2 0x3D9B JUMP JUMPDEST PUSH2 0x2F53 JUMP JUMPDEST STOP JUMPDEST CALLVALUE DUP1 ISZERO PUSH2 0xFFF JUMPI PUSH1 0x0 DUP1 REVERT JUMPDEST POP PUSH2 0x1008 PUSH2 0x303E JUMP JUMPDEST PUSH1 0x40 MLOAD PUSH2 0x1015 SWAP2 SWAP1 PUSH2 0x39A2 JUMP JUMPDEST PUSH1 0x40 MLOAD DUP1 SWAP2 SUB SWAP1 RETURN JUMPDEST PUSH2 0x1038 PUSH1 0x4 DUP1 CALLDATASIZE SUB DUP2 ADD SWAP1 PUSH2 0x1033 SWAP2 SWAP1 PUSH2 0x3B1F JUMP JUMPDEST PUSH2 0x3046 JUMP JUMPDEST STOP JUMPDEST CALLVALUE DUP1 ISZERO PUSH2 0x1046 JUMPI PUSH1 0x0 DUP1 REVERT JUMPDEST POP PUSH2 0x1061 PUSH1 0x4 DUP1 CALLDATASIZE SUB DUP2 ADD SWAP1 PUSH2 0x105C SWAP2 SWAP1 PUSH2 0x3AB4 JUMP JUMPDEST PUSH2 0x3133 JUMP JUMPDEST STOP JUMPDEST CALLVALUE DUP1 ISZERO PUSH2 0x106F JUMPI PUSH1 0x0 DUP1 REVERT JUMPDEST POP PUSH2 0x108A PUSH1 0x4 DUP1 CALLDATASIZE SUB DUP2 ADD SWAP1 PUSH2 0x1085 SWAP2 SWAP1 PUSH2 0x3AB4 JUMP JUMPDEST PUSH2 0x31EC JUMP JUMPDEST STOP JUMPDEST CALLVALUE DUP1 ISZERO PUSH2 0x1098 JUMPI PUSH1 0x0 DUP1 REVERT JUMPDEST POP PUSH2 0x10B3 PUSH1 0x4 DUP1 CALLDATASIZE SUB DUP2 ADD SWAP1 PUSH2 0x10AE SWAP2 SWAP1 PUSH2 0x3E40 JUMP JUMPDEST PUSH2 0x3294 JUMP JUMPDEST STOP JUMPDEST CALLVALUE DUP1 ISZERO PUSH2 0x10C1 JUMPI PUSH1 0x0 DUP1 REVERT JUMPDEST POP PUSH2 0x10CA PUSH2 0x33C9 JUMP JUMPDEST PUSH1 0x40 MLOAD PUSH2 0x10D7 SWAP2 SWAP1 PUSH2 0x39A2 JUMP JUMPDEST PUSH1 0x40 MLOAD DUP1 SWAP2 SUB SWAP1 RETURN JUMPDEST CALLVALUE DUP1 ISZERO PUSH2 0x10EC JUMPI PUSH1 0x0 DUP1 REVERT JUMPDEST POP PUSH2 0x1107 PUSH1 0x4 DUP1 CALLDATASIZE SUB DUP2 ADD SWAP1 PUSH2 0x1102 SWAP2 SWAP1 PUSH2 0x3B1F JUMP JUMPDEST PUSH2 0x33CF JUMP JUMPDEST PUSH1 0x40 MLOAD PUSH2 0x1114 SWAP2 SWAP1 PUSH2 0x3BEE JUMP JUMPDEST PUSH1 0x40 MLOAD DUP1 SWAP2 SUB SWAP1 RETURN JUMPDEST PUSH1 0x2 SLOAD DUP2 JUMP JUMPDEST PUSH1 0xB SLOAD DUP2 JUMP JUMPDEST PUSH1 0x1F PUSH1 0x0 SWAP1 SLOAD SWAP1 PUSH2 0x100 EXP SWAP1 DIV PUSH20 0xFFFFFFFFFFFFFFFFFFFFFFFFFFFFFFFFFFFFFFFF AND DUP2 JUMP JUMPDEST PUSH1 0x0 PUSH1 0x22 PUSH1 0x0 CALLER PUSH20 0xFFFFFFFFFFFFFFFFFFFFFFFFFFFFFFFFFFFFFFFF AND PUSH20 0xFFFFFFFFFFFFFFFFFFFFFFFFFFFFFFFFFFFFFFFF AND DUP2 MSTORE PUSH1 0x20 ADD SWAP1 DUP2 MSTORE PUSH1 0x20 ADD PUSH1 0x0 KECCAK256 PUSH1 0x2 ADD SLOAD SWAP1 POP SWAP1 JUMP JUMPDEST PUSH1 0x0 SELFBALANCE SWAP1 POP SWAP1 JUMP JUMPDEST PUSH1 0x7 SLOAD DUP2 JUMP JUMPDEST PUSH1 0x0 PUSH1 0x22 PUSH1 0x0 CALLER PUSH20 0xFFFFFFFFFFFFFFFFFFFFFFFFFFFFFFFFFFFFFFFF AND PUSH20 0xFFFFFFFFFFFFFFFFFFFFFFFFFFFFFFFFFFFFFFFF AND DUP2 MSTORE PUSH1 0x20 ADD SWAP1 DUP2 MSTORE PUSH1 0x20 ADD PUSH1 0x0 KECCAK256 SWAP1 POP PUSH1 0x15 PUSH1 0x0 SWAP1 SLOAD SWAP1 PUSH2 0x100 EXP SWAP1 DIV PUSH1 0xFF AND PUSH2 0x1239 JUMPI PUSH1 0x40 MLOAD PUSH32 0x8C379A000000000000000000000000000000000000000000000000000000000 DUP2 MSTORE PUSH1 0x4 ADD PUSH2 0x1230 SWAP1 PUSH2 0x3EFD JUMP JUMPDEST PUSH1 0x40 MLOAD DUP1 SWAP2 SUB SWAP1 REVERT JUMPDEST PUSH1 0x0 PUSH2 0x1243 PUSH2 0x169E JUMP JUMPDEST SWAP1 POP PUSH1 0x0 DUP2 SWAP1 POP DUP4 ISZERO PUSH2 0x12BD JUMPI PUSH1 0x0 PUSH2 0x125C CALLER DUP4 PUSH2 0x1881 JUMP JUMPDEST SWAP1 POP PUSH2 0x1271 DUP2 DUP4 PUSH2 0x33EF SWAP1 SWAP2 SWAP1 PUSH4 0xFFFFFFFF AND JUMP JUMPDEST SWAP2 POP PUSH1 0x0 PUSH2 0x127E DUP4 PUSH2 0x2907 JUMP JUMPDEST SWAP1 POP PUSH2 0x1297 DUP2 DUP7 PUSH1 0x1 ADD SLOAD PUSH2 0x33EF SWAP1 SWAP2 SWAP1 PUSH4 0xFFFFFFFF AND JUMP JUMPDEST DUP6 PUSH1 0x1 ADD DUP2 SWAP1 SSTORE POP PUSH2 0x12B4 DUP2 PUSH1 0xF SLOAD PUSH2 0x33EF SWAP1 SWAP2 SWAP1 PUSH4 0xFFFFFFFF AND JUMP JUMPDEST PUSH1 0xF DUP2 SWAP1 SSTORE POP POP POP JUMPDEST PUSH1 0xA SLOAD PUSH2 0x12D7 DUP5 PUSH1 0x4 ADD SLOAD TIMESTAMP PUSH2 0x341B SWAP1 SWAP2 SWAP1 PUSH4 0xFFFFFFFF AND JUMP JUMPDEST LT PUSH2 0x132C JUMPI PUSH1 0x9 SLOAD DUP4 PUSH1 0x9 ADD SLOAD LT ISZERO PUSH2 0x130B JUMPI PUSH2 0x1302 PUSH1 0x2 DUP5 PUSH1 0x9 ADD SLOAD PUSH2 0x33EF SWAP1 SWAP2 SWAP1 PUSH4 0xFFFFFFFF AND JUMP JUMPDEST DUP4 PUSH1 0x9 ADD DUP2 SWAP1 SSTORE POP JUMPDEST PUSH2 0x1323 PUSH1 0x1 DUP5 PUSH1 0xA ADD SLOAD PUSH2 0x33EF SWAP1 SWAP2 SWAP1 PUSH4 0xFFFFFFFF AND JUMP JUMPDEST DUP4 PUSH1 0xA ADD DUP2 SWAP1 SSTORE POP JUMPDEST PUSH2 0x1357 PUSH2 0x1344 PUSH1 0x0 SLOAD DUP4 PUSH2 0x3442 SWAP1 SWAP2 SWAP1 PUSH4 0xFFFFFFFF AND JUMP JUMPDEST DUP5 PUSH1 0x2 ADD SLOAD PUSH2 0x33EF SWAP1 SWAP2 SWAP1 PUSH4 0xFFFFFFFF AND JUMP JUMPDEST DUP4 PUSH1 0x2 ADD DUP2 SWAP1 SSTORE POP PUSH1 0x0 DUP4 PUSH1 0x3 ADD DUP2 SWAP1 SSTORE POP TIMESTAMP DUP4 PUSH1 0x4 ADD DUP2 SWAP1 SSTORE POP PUSH2 0x139B PUSH2 0x138A PUSH1 0x5 SLOAD DUP5 PUSH2 0x3442 SWAP1 SWAP2 SWAP1 PUSH4 0xFFFFFFFF AND JUMP JUMPDEST PUSH1 0x12 SLOAD PUSH2 0x33EF SWAP1 SWAP2 SWAP1 PUSH4 0xFFFFFFFF AND JUMP JUMPDEST PUSH1 0x12 DUP2 SWAP1 SSTORE POP POP POP POP POP JUMP JUMPDEST PUSH1 0x0 SLOAD DUP2 JUMP JUMPDEST PUSH1 0x1B PUSH1 0x0 SWAP1 SLOAD SWAP1 PUSH2 0x100 EXP SWAP1 DIV PUSH20 0xFFFFFFFFFFFFFFFFFFFFFFFFFFFFFFFFFFFFFFFF AND PUSH20 0xFFFFFFFFFFFFFFFFFFFFFFFFFFFFFFFFFFFFFFFF AND CALLER PUSH20 0xFFFFFFFFFFFFFFFFFFFFFFFFFFFFFFFFFFFFFFFF AND EQ PUSH2 0x143D JUMPI PUSH1 0x40 MLOAD PUSH32 0x8C379A000000000000000000000000000000000000000000000000000000000 DUP2 MSTORE PUSH1 0x4 ADD PUSH2 0x1434 SWAP1 PUSH2 0x3F69 JUMP JUMPDEST PUSH1 0x40 MLOAD DUP1 SWAP2 SUB SWAP1 REVERT JUMPDEST PUSH1 0x14 DUP2 GT ISZERO PUSH2 0x144B JUMPI PUSH1 0x0 DUP1 REVERT JUMPDEST DUP1 PUSH1 0x4 DUP2 SWAP1 SSTORE POP POP JUMP JUMPDEST PUSH1 0x18 PUSH1 0x20 MSTORE DUP1 PUSH1 0x0 MSTORE PUSH1 0x40 PUSH1 0x0 KECCAK256 PUSH1 0x0 SWAP2 POP SWAP1 POP SLOAD DUP2 JUMP JUMPDEST PUSH1 0x0 PUSH2 0x14B7 PUSH2 0x147E PUSH1 0x13 SLOAD DUP5 PUSH2 0x345D JUMP JUMPDEST PUSH2 0x14B2 PUSH1 0x14 SLOAD PUSH2 0x14AD PUSH2 0x14A7 PUSH2 0x1496 PUSH1 0x13 SLOAD DUP11 PUSH2 0x345D JUMP JUMPDEST PUSH2 0x14A2 PUSH1 0x14 SLOAD DUP13 PUSH2 0x345D JUMP JUMPDEST PUSH2 0x33EF JUMP JUMPDEST DUP10 PUSH2 0x3442 JUMP JUMPDEST PUSH2 0x33EF JUMP JUMPDEST PUSH2 0x3442 JUMP JUMPDEST SWAP1 POP SWAP4 SWAP3 POP POP POP JUMP JUMPDEST PUSH1 0x1E PUSH1 0x0 SWAP1 SLOAD SWAP1 PUSH2 0x100 EXP SWAP1 DIV PUSH20 0xFFFFFFFFFFFFFFFFFFFFFFFFFFFFFFFFFFFFFFFF AND DUP2 JUMP JUMPDEST PUSH1 0x0 PUSH2 0x14F5 DUP4 DUP4 PUSH1 0x12 SLOAD PUSH2 0x146D JUMP JUMPDEST SWAP1 POP SWAP3 SWAP2 POP POP JUMP JUMPDEST PUSH1 0x1B PUSH1 0x0 SWAP1 SLOAD SWAP1 PUSH2 0x100 EXP SWAP1 DIV PUSH20 0xFFFFFFFFFFFFFFFFFFFFFFFFFFFFFFFFFFFFFFFF AND PUSH20 0xFFFFFFFFFFFFFFFFFFFFFFFFFFFFFFFFFFFFFFFF AND CALLER PUSH20 0xFFFFFFFFFFFFFFFFFFFFFFFFFFFFFFFFFFFFFFFF AND EQ PUSH2 0x158D JUMPI PUSH1 0x40 MLOAD PUSH32 0x8C379A000000000000000000000000000000000000000000000000000000000 DUP2 MSTORE PUSH1 0x4 ADD PUSH2 0x1584 SWAP1 PUSH2 0x3F69 JUMP JUMPDEST PUSH1 0x40 MLOAD DUP1 SWAP2 SUB SWAP1 REVERT JUMPDEST PUSH1 0xF DUP2 GT ISZERO PUSH2 0x159B JUMPI PUSH1 0x0 DUP1 REVERT JUMPDEST DUP1 PUSH1 0x3 DUP2 SWAP1 SSTORE POP POP JUMP JUMPDEST PUSH1 0x1B PUSH1 0x0 SWAP1 SLOAD SWAP1 PUSH2 0x100 EXP SWAP1 DIV PUSH20 0xFFFFFFFFFFFFFFFFFFFFFFFFFFFFFFFFFFFFFFFF AND PUSH20 0xFFFFFFFFFFFFFFFFFFFFFFFFFFFFFFFFFFFFFFFF AND CALLER PUSH20 0xFFFFFFFFFFFFFFFFFFFFFFFFFFFFFFFFFFFFFFFF AND EQ PUSH2 0x1635 JUMPI PUSH1 0x40 MLOAD PUSH32 0x8C379A000000000000000000000000000000000000000000000000000000000 DUP2 MSTORE PUSH1 0x4 ADD PUSH2 0x162C SWAP1 PUSH2 0x3F69 JUMP JUMPDEST PUSH1 0x40 MLOAD DUP1 SWAP2 SUB SWAP1 REVERT JUMPDEST DUP1 PUSH1 0x1B PUSH1 0x0 PUSH2 0x100 EXP DUP2 SLOAD DUP2 PUSH20 0xFFFFFFFFFFFFFFFFFFFFFFFFFFFFFFFFFFFFFFFF MUL NOT AND SWAP1 DUP4 PUSH20 0xFFFFFFFFFFFFFFFFFFFFFFFFFFFFFFFFFFFFFFFF AND MUL OR SWAP1 SSTORE POP POP JUMP JUMPDEST PUSH1 0x4 SLOAD DUP2 JUMP JUMPDEST PUSH1 0x12 SLOAD DUP2 JUMP JUMPDEST PUSH1 0x15 PUSH1 0x0 SWAP1 SLOAD SWAP1 PUSH2 0x100 EXP SWAP1 DIV PUSH1 0xFF AND DUP2 JUMP JUMPDEST PUSH1 0x19 SLOAD DUP2 JUMP JUMPDEST PUSH1 0x0 PUSH2 0x16FD PUSH2 0x16AC CALLER PUSH2 0x2E7A JUMP JUMPDEST PUSH1 0x22 PUSH1 0x0 CALLER PUSH20 0xFFFFFFFFFFFFFFFFFFFFFFFFFFFFFFFFFFFFFFFF AND PUSH20 0xFFFFFFFFFFFFFFFFFFFFFFFFFFFFFFFFFFFFFFFF AND DUP2 MSTORE PUSH1 0x20 ADD SWAP1 DUP2 MSTORE PUSH1 0x20 ADD PUSH1 0x0 KECCAK256 PUSH1 0x3 ADD SLOAD PUSH2 0x33EF SWAP1 SWAP2 SWAP1 PUSH4 0xFFFFFFFF AND JUMP JUMPDEST SWAP1 POP SWAP1 JUMP JUMPDEST PUSH1 0x1B PUSH1 0x0 SWAP1 SLOAD SWAP1 PUSH2 0x100 EXP SWAP1 DIV PUSH20 0xFFFFFFFFFFFFFFFFFFFFFFFFFFFFFFFFFFFFFFFF AND PUSH20 0xFFFFFFFFFFFFFFFFFFFFFFFFFFFFFFFFFFFFFFFF AND CALLER PUSH20 0xFFFFFFFFFFFFFFFFFFFFFFFFFFFFFFFFFFFFFFFF AND EQ PUSH2 0x1792 JUMPI PUSH1 0x40 MLOAD PUSH32 0x8C379A000000000000000000000000000000000000000000000000000000000 DUP2 MSTORE PUSH1 0x4 ADD PUSH2 0x1789 SWAP1 PUSH2 0x3FD5 JUMP JUMPDEST PUSH1 0x40 MLOAD DUP1 SWAP2 SUB SWAP1 REVERT JUMPDEST PUSH1 0x18 DUP2 GT ISZERO PUSH2 0x17A0 JUMPI PUSH1 0x0 DUP1 REVERT JUMPDEST PUSH1 0x3C DUP1 DUP3 PUSH2 0x17AE SWAP2 SWAP1 PUSH2 0x4024 JUMP JUMPDEST PUSH2 0x17B8 SWAP2 SWAP1 PUSH2 0x4024 JUMP JUMPDEST PUSH1 0x1A DUP2 SWAP1 SSTORE POP POP JUMP JUMPDEST PUSH1 0x1B PUSH1 0x0 SWAP1 SLOAD SWAP1 PUSH2 0x100 EXP SWAP1 DIV PUSH20 0xFFFFFFFFFFFFFFFFFFFFFFFFFFFFFFFFFFFFFFFF AND PUSH20 0xFFFFFFFFFFFFFFFFFFFFFFFFFFFFFFFFFFFFFFFF AND CALLER PUSH20 0xFFFFFFFFFFFFFFFFFFFFFFFFFFFFFFFFFFFFFFFF AND EQ PUSH2 0x1851 JUMPI PUSH1 0x40 MLOAD PUSH32 0x8C379A000000000000000000000000000000000000000000000000000000000 DUP2 MSTORE PUSH1 0x4 ADD PUSH2 0x1848 SWAP1 PUSH2 0x3FD5 JUMP JUMPDEST PUSH1 0x40 MLOAD DUP1 SWAP2 SUB SWAP1 REVERT JUMPDEST DUP1 PUSH1 0x6 DUP2 SWAP1 SSTORE POP POP JUMP JUMPDEST PUSH1 0x11 SLOAD DUP2 JUMP JUMPDEST PUSH1 0x0 DUP1 PUSH1 0x0 DUP1 PUSH1 0xD SLOAD PUSH1 0xE SLOAD PUSH1 0xF SLOAD PUSH1 0x10 SLOAD SWAP4 POP SWAP4 POP SWAP4 POP SWAP4 POP SWAP1 SWAP2 SWAP3 SWAP4 JUMP JUMPDEST PUSH1 0x0 DUP1 PUSH1 0x22 PUSH1 0x0 DUP6 PUSH20 0xFFFFFFFFFFFFFFFFFFFFFFFFFFFFFFFFFFFFFFFF AND PUSH20 0xFFFFFFFFFFFFFFFFFFFFFFFFFFFFFFFFFFFFFFFF AND DUP2 MSTORE PUSH1 0x20 ADD SWAP1 DUP2 MSTORE PUSH1 0x20 ADD PUSH1 0x0 KECCAK256 PUSH1 0x9 ADD SLOAD EQ ISZERO PUSH2 0x18D6 JUMPI PUSH1 0x0 SWAP1 POP PUSH2 0x1962 JUMP JUMPDEST PUSH1 0x0 PUSH2 0x192F PUSH1 0x8 SLOAD PUSH1 0x22 PUSH1 0x0 DUP8 PUSH20 0xFFFFFFFFFFFFFFFFFFFFFFFFFFFFFFFFFFFFFFFF AND PUSH20 0xFFFFFFFFFFFFFFFFFFFFFFFFFFFFFFFFFFFFFFFF AND DUP2 MSTORE PUSH1 0x20 ADD SWAP1 DUP2 MSTORE PUSH1 0x20 ADD PUSH1 0x0 KECCAK256 PUSH1 0x9 ADD SLOAD PUSH2 0x345D SWAP1 SWAP2 SWAP1 PUSH4 0xFFFFFFFF AND JUMP JUMPDEST SWAP1 POP PUSH1 0x0 PUSH2 0x195A PUSH1 0x2 SLOAD PUSH2 0x194C DUP5 DUP8 PUSH2 0x345D SWAP1 SWAP2 SWAP1 PUSH4 0xFFFFFFFF AND JUMP JUMPDEST PUSH2 0x3442 SWAP1 SWAP2 SWAP1 PUSH4 0xFFFFFFFF AND JUMP JUMPDEST SWAP1 POP DUP1 SWAP3 POP POP POP JUMPDEST SWAP3 SWAP2 POP POP JUMP JUMPDEST PUSH1 0x15 PUSH1 0x0 SWAP1 SLOAD SWAP1 PUSH2 0x100 EXP SWAP1 DIV PUSH1 0xFF AND PUSH2 0x19B7 JUMPI PUSH1 0x40 MLOAD PUSH32 0x8C379A000000000000000000000000000000000000000000000000000000000 DUP2 MSTORE PUSH1 0x4 ADD PUSH2 0x19AE SWAP1 PUSH2 0x3EFD JUMP JUMPDEST PUSH1 0x40 MLOAD DUP1 SWAP2 SUB SWAP1 REVERT JUMPDEST PUSH1 0x0 PUSH1 0x22 PUSH1 0x0 CALLER PUSH20 0xFFFFFFFFFFFFFFFFFFFFFFFFFFFFFFFFFFFFFFFF AND PUSH20 0xFFFFFFFFFFFFFFFFFFFFFFFFFFFFFFFFFFFFFFFF AND DUP2 MSTORE PUSH1 0x20 ADD SWAP1 DUP2 MSTORE PUSH1 0x20 ADD PUSH1 0x0 KECCAK256 SWAP1 POP PUSH1 0x6 SLOAD CALLVALUE LT ISZERO PUSH2 0x1A3F JUMPI PUSH1 0x40 MLOAD PUSH32 0x8C379A000000000000000000000000000000000000000000000000000000000 DUP2 MSTORE PUSH1 0x4 ADD PUSH2 0x1A36 SWAP1 PUSH2 0x40CA JUMP JUMPDEST PUSH1 0x40 MLOAD DUP1 SWAP2 SUB SWAP1 REVERT JUMPDEST PUSH1 0x7 SLOAD PUSH2 0x1A59 CALLVALUE DUP4 PUSH1 0x0 ADD SLOAD PUSH2 0x33EF SWAP1 SWAP2 SWAP1 PUSH4 0xFFFFFFFF AND JUMP JUMPDEST GT ISZERO PUSH2 0x1A9A JUMPI PUSH1 0x40 MLOAD PUSH32 0x8C379A000000000000000000000000000000000000000000000000000000000 DUP2 MSTORE PUSH1 0x4 ADD PUSH2 0x1A91 SWAP1 PUSH2 0x4136 JUMP JUMPDEST PUSH1 0x40 MLOAD DUP1 SWAP2 SUB SWAP1 REVERT JUMPDEST PUSH1 0x0 DUP2 PUSH1 0x0 ADD SLOAD EQ ISZERO PUSH2 0x1AEC JUMPI CALLVALUE PUSH1 0x17 PUSH1 0x0 CALLER PUSH20 0xFFFFFFFFFFFFFFFFFFFFFFFFFFFFFFFFFFFFFFFF AND PUSH20 0xFFFFFFFFFFFFFFFFFFFFFFFFFFFFFFFFFFFFFFFF AND DUP2 MSTORE PUSH1 0x20 ADD SWAP1 DUP2 MSTORE PUSH1 0x20 ADD PUSH1 0x0 KECCAK256 DUP2 SWAP1 SSTORE POP JUMPDEST PUSH1 0x0 PUSH2 0x1B0A CALLVALUE PUSH2 0x1B05 CALLVALUE SELFBALANCE PUSH2 0x341B SWAP1 SWAP2 SWAP1 PUSH4 0xFFFFFFFF AND JUMP JUMPDEST PUSH2 0x14E6 JUMP JUMPDEST SWAP1 POP PUSH2 0x1B23 CALLVALUE DUP4 PUSH1 0x1 ADD SLOAD PUSH2 0x33EF SWAP1 SWAP2 SWAP1 PUSH4 0xFFFFFFFF AND JUMP JUMPDEST DUP3 PUSH1 0x1 ADD DUP2 SWAP1 SSTORE POP PUSH2 0x1B42 CALLVALUE DUP4 PUSH1 0x0 ADD SLOAD PUSH2 0x33EF SWAP1 SWAP2 SWAP1 PUSH4 0xFFFFFFFF AND JUMP JUMPDEST DUP3 PUSH1 0x0 ADD DUP2 SWAP1 SSTORE POP PUSH2 0x1B61 DUP2 DUP4 PUSH1 0x3 ADD SLOAD PUSH2 0x33EF SWAP1 SWAP2 SWAP1 PUSH4 0xFFFFFFFF AND JUMP JUMPDEST DUP3 PUSH1 0x3 ADD DUP2 SWAP1 SSTORE POP PUSH1 0x0 PUSH20 0xFFFFFFFFFFFFFFFFFFFFFFFFFFFFFFFFFFFFFFFF AND DUP3 PUSH1 0x5 ADD PUSH1 0x0 SWAP1 SLOAD SWAP1 PUSH2 0x100 EXP SWAP1 DIV PUSH20 0xFFFFFFFFFFFFFFFFFFFFFFFFFFFFFFFFFFFFFFFF AND PUSH20 0xFFFFFFFFFFFFFFFFFFFFFFFFFFFFFFFFFFFFFFFF AND EQ ISZERO PUSH2 0x1D35 JUMPI CALLER PUSH20 0xFFFFFFFFFFFFFFFFFFFFFFFFFFFFFFFFFFFFFFFF AND DUP4 PUSH20 0xFFFFFFFFFFFFFFFFFFFFFFFFFFFFFFFFFFFFFFFF AND EQ PUSH2 0x1C39 JUMPI DUP3 DUP3 PUSH1 0x5 ADD PUSH1 0x0 PUSH2 0x100 EXP DUP2 SLOAD DUP2 PUSH20 0xFFFFFFFFFFFFFFFFFFFFFFFFFFFFFFFFFFFFFFFF MUL NOT AND SWAP1 DUP4 PUSH20 0xFFFFFFFFFFFFFFFFFFFFFFFFFFFFFFFFFFFFFFFF AND MUL OR SWAP1 SSTORE POP JUMPDEST PUSH1 0x0 DUP3 PUSH1 0x5 ADD PUSH1 0x0 SWAP1 SLOAD SWAP1 PUSH2 0x100 EXP SWAP1 DIV PUSH20 0xFFFFFFFFFFFFFFFFFFFFFFFFFFFFFFFFFFFFFFFF AND SWAP1 POP PUSH1 0x0 PUSH20 0xFFFFFFFFFFFFFFFFFFFFFFFFFFFFFFFFFFFFFFFF AND DUP2 PUSH20 0xFFFFFFFFFFFFFFFFFFFFFFFFFFFFFFFFFFFFFFFF AND EQ PUSH2 0x1D33 JUMPI PUSH2 0x1CEC PUSH1 0x1 PUSH1 0x22 PUSH1 0x0 DUP5 PUSH20 0xFFFFFFFFFFFFFFFFFFFFFFFFFFFFFFFFFFFFFFFF AND PUSH20 0xFFFFFFFFFFFFFFFFFFFFFFFFFFFFFFFFFFFFFFFF AND DUP2 MSTORE PUSH1 0x20 ADD SWAP1 DUP2 MSTORE PUSH1 0x20 ADD PUSH1 0x0 KECCAK256 PUSH1 0x6 ADD SLOAD PUSH2 0x33EF SWAP1 SWAP2 SWAP1 PUSH4 0xFFFFFFFF AND JUMP JUMPDEST PUSH1 0x22 PUSH1 0x0 DUP4 PUSH20 0xFFFFFFFFFFFFFFFFFFFFFFFFFFFFFFFFFFFFFFFF AND PUSH20 0xFFFFFFFFFFFFFFFFFFFFFFFFFFFFFFFFFFFFFFFF AND DUP2 MSTORE PUSH1 0x20 ADD SWAP1 DUP2 MSTORE PUSH1 0x20 ADD PUSH1 0x0 KECCAK256 PUSH1 0x6 ADD DUP2 SWAP1 SSTORE POP JUMPDEST POP JUMPDEST PUSH1 0x0 PUSH20 0xFFFFFFFFFFFFFFFFFFFFFFFFFFFFFFFFFFFFFFFF AND DUP3 PUSH1 0x5 ADD PUSH1 0x0 SWAP1 SLOAD SWAP1 PUSH2 0x100 EXP SWAP1 DIV PUSH20 0xFFFFFFFFFFFFFFFFFFFFFFFFFFFFFFFFFFFFFFFF AND PUSH20 0xFFFFFFFFFFFFFFFFFFFFFFFFFFFFFFFFFFFFFFFF AND EQ PUSH2 0x1D98 JUMPI PUSH2 0x1D97 CALLER CALLVALUE PUSH2 0x34A6 JUMP JUMPDEST JUMPDEST PUSH1 0x0 PUSH2 0x1DA3 CALLVALUE PUSH2 0x3814 JUMP JUMPDEST SWAP1 POP PUSH2 0x1DCC PUSH2 0x1DBB DUP3 CALLVALUE PUSH2 0x341B SWAP1 SWAP2 SWAP1 PUSH4 0xFFFFFFFF AND JUMP JUMPDEST PUSH1 0xD SLOAD PUSH2 0x33EF SWAP1 SWAP2 SWAP1 PUSH4 0xFFFFFFFF AND JUMP JUMPDEST PUSH1 0xD DUP2 SWAP1 SSTORE POP PUSH2 0x1DE8 PUSH1 0x1 PUSH1 0xE SLOAD PUSH2 0x33EF SWAP1 SWAP2 SWAP1 PUSH4 0xFFFFFFFF AND JUMP JUMPDEST PUSH1 0xE DUP2 SWAP1 SSTORE POP PUSH2 0x1DF8 PUSH1 0x0 PUSH2 0x11A7 JUMP JUMPDEST POP POP POP POP JUMP JUMPDEST PUSH1 0x1B PUSH1 0x0 SWAP1 SLOAD SWAP1 PUSH2 0x100 EXP SWAP1 DIV PUSH20 0xFFFFFFFFFFFFFFFFFFFFFFFFFFFFFFFFFFFFFFFF AND PUSH20 0xFFFFFFFFFFFFFFFFFFFFFFFFFFFFFFFFFFFFFFFF AND CALLER PUSH20 0xFFFFFFFFFFFFFFFFFFFFFFFFFFFFFFFFFFFFFFFF AND EQ PUSH2 0x1E8E JUMPI PUSH1 0x40 MLOAD PUSH32 0x8C379A000000000000000000000000000000000000000000000000000000000 DUP2 MSTORE PUSH1 0x4 ADD PUSH2 0x1E85 SWAP1 PUSH2 0x3F69 JUMP JUMPDEST PUSH1 0x40 MLOAD DUP1 SWAP2 SUB SWAP1 REVERT JUMPDEST PUSH1 0xA DUP2 LT ISZERO DUP1 ISZERO PUSH2 0x1EA0 JUMPI POP PUSH1 0x64 DUP2 GT ISZERO JUMPDEST PUSH2 0x1EA9 JUMPI PUSH1 0x0 DUP1 REVERT JUMPDEST DUP1 PUSH1 0x1 DUP2 SWAP1 SSTORE POP POP JUMP JUMPDEST PUSH1 0x15 PUSH1 0x0 SWAP1 SLOAD SWAP1 PUSH2 0x100 EXP SWAP1 DIV PUSH1 0xFF AND PUSH2 0x1F02 JUMPI PUSH1 0x40 MLOAD PUSH32 0x8C379A000000000000000000000000000000000000000000000000000000000 DUP2 MSTORE PUSH1 0x4 ADD PUSH2 0x1EF9 SWAP1 PUSH2 0x3EFD JUMP JUMPDEST PUSH1 0x40 MLOAD DUP1 SWAP2 SUB SWAP1 REVERT JUMPDEST PUSH1 0x15 PUSH1 0x1 SWAP1 SLOAD SWAP1 PUSH2 0x100 EXP SWAP1 DIV PUSH1 0xFF AND ISZERO PUSH2 0x1FA5 JUMPI PUSH1 0x16 PUSH1 0x0 CALLER PUSH20 0xFFFFFFFFFFFFFFFFFFFFFFFFFFFFFFFFFFFFFFFF AND PUSH20 0xFFFFFFFFFFFFFFFFFFFFFFFFFFFFFFFFFFFFFFFF AND DUP2 MSTORE PUSH1 0x20 ADD SWAP1 DUP2 MSTORE PUSH1 0x20 ADD PUSH1 0x0 KECCAK256 PUSH1 0x0 SWAP1 SLOAD SWAP1 PUSH2 0x100 EXP SWAP1 DIV PUSH1 0xFF AND ISZERO PUSH2 0x1FA4 JUMPI PUSH1 0x40 MLOAD PUSH32 0x8C379A000000000000000000000000000000000000000000000000000000000 DUP2 MSTORE PUSH1 0x4 ADD PUSH2 0x1F9B SWAP1 PUSH2 0x41A2 JUMP JUMPDEST PUSH1 0x40 MLOAD DUP1 SWAP2 SUB SWAP1 REVERT JUMPDEST JUMPDEST PUSH1 0x0 PUSH1 0x22 PUSH1 0x0 CALLER PUSH20 0xFFFFFFFFFFFFFFFFFFFFFFFFFFFFFFFFFFFFFFFF AND PUSH20 0xFFFFFFFFFFFFFFFFFFFFFFFFFFFFFFFFFFFFFFFF AND DUP2 MSTORE PUSH1 0x20 ADD SWAP1 DUP2 MSTORE PUSH1 0x20 ADD PUSH1 0x0 KECCAK256 SWAP1 POP PUSH1 0x0 PUSH2 0x1FF2 PUSH2 0x169E JUMP JUMPDEST SWAP1 POP PUSH1 0x0 PUSH2 0x1FFF DUP3 PUSH2 0x2907 JUMP JUMPDEST SWAP1 POP PUSH1 0xC SLOAD DUP4 PUSH1 0x9 ADD SLOAD LT ISZERO PUSH2 0x2051 JUMPI PUSH2 0x204A PUSH2 0x203B PUSH1 0x2 SLOAD PUSH2 0x202D PUSH1 0xB SLOAD DUP6 PUSH2 0x345D SWAP1 SWAP2 SWAP1 PUSH4 0xFFFFFFFF AND JUMP JUMPDEST PUSH2 0x3442 SWAP1 SWAP2 SWAP1 PUSH4 0xFFFFFFFF AND JUMP JUMPDEST DUP3 PUSH2 0x341B SWAP1 SWAP2 SWAP1 PUSH4 0xFFFFFFFF AND JUMP JUMPDEST SWAP1 POP PUSH2 0x2066 JUMP JUMPDEST PUSH1 0x0 DUP4 PUSH1 0x9 ADD DUP2 SWAP1 SSTORE POP PUSH1 0x0 DUP4 PUSH1 0xA ADD DUP2 SWAP1 SSTORE POP JUMPDEST TIMESTAMP DUP4 PUSH1 0xB ADD DUP2 SWAP1 SSTORE POP PUSH1 0x0 DUP4 PUSH1 0x3 ADD DUP2 SWAP1 SSTORE POP TIMESTAMP DUP4 PUSH1 0x4 ADD DUP2 SWAP1 SSTORE POP PUSH2 0x20AB PUSH2 0x209A PUSH1 0x5 SLOAD DUP5 PUSH2 0x3442 SWAP1 SWAP2 SWAP1 PUSH4 0xFFFFFFFF AND JUMP JUMPDEST PUSH1 0x12 SLOAD PUSH2 0x33EF SWAP1 SWAP2 SWAP1 PUSH4 0xFFFFFFFF AND JUMP JUMPDEST PUSH1 0x12 DUP2 SWAP1 SSTORE POP DUP1 PUSH2 0x20BA PUSH2 0x1199 JUMP JUMPDEST LT ISZERO PUSH2 0x20CB JUMPI PUSH2 0x20C8 PUSH2 0x1199 JUMP JUMPDEST SWAP1 POP JUMPDEST PUSH1 0x0 PUSH2 0x20E8 PUSH2 0x20D9 DUP4 PUSH2 0x3814 JUMP JUMPDEST DUP4 PUSH2 0x341B SWAP1 SWAP2 SWAP1 PUSH4 0xFFFFFFFF AND JUMP JUMPDEST SWAP1 POP CALLER PUSH20 0xFFFFFFFFFFFFFFFFFFFFFFFFFFFFFFFFFFFFFFFF AND PUSH2 0x8FC DUP3 SWAP1 DUP2 ISZERO MUL SWAP1 PUSH1 0x40 MLOAD PUSH1 0x0 PUSH1 0x40 MLOAD DUP1 DUP4 SUB DUP2 DUP6 DUP9 DUP9 CALL SWAP4 POP POP POP POP ISZERO DUP1 ISZERO PUSH2 0x2130 JUMPI RETURNDATASIZE PUSH1 0x0 DUP1 RETURNDATACOPY RETURNDATASIZE PUSH1 0x0 REVERT JUMPDEST POP PUSH2 0x2148 DUP2 DUP6 PUSH1 0x8 ADD SLOAD PUSH2 0x33EF SWAP1 SWAP2 SWAP1 PUSH4 0xFFFFFFFF AND JUMP JUMPDEST DUP5 PUSH1 0x8 ADD DUP2 SWAP1 SSTORE POP PUSH2 0x2165 DUP2 PUSH1 0x11 SLOAD PUSH2 0x33EF SWAP1 SWAP2 SWAP1 PUSH4 0xFFFFFFFF AND JUMP JUMPDEST PUSH1 0x11 DUP2 SWAP1 SSTORE POP POP POP POP POP JUMP JUMPDEST PUSH1 0x5 SLOAD DUP2 JUMP JUMPDEST PUSH1 0x0 DUP1 PUSH1 0x0 DUP1 PUSH1 0x0 DUP1 PUSH1 0x0 DUP1 PUSH1 0x0 DUP1 PUSH1 0x0 DUP1 PUSH1 0x22 PUSH1 0x0 DUP15 PUSH20 0xFFFFFFFFFFFFFFFFFFFFFFFFFFFFFFFFFFFFFFFF AND PUSH20 0xFFFFFFFFFFFFFFFFFFFFFFFFFFFFFFFFFFFFFFFF AND DUP2 MSTORE PUSH1 0x20 ADD SWAP1 DUP2 MSTORE PUSH1 0x20 ADD PUSH1 0x0 KECCAK256 PUSH1 0x0 ADD SLOAD SWAP12 POP PUSH1 0x22 PUSH1 0x0 DUP15 PUSH20 0xFFFFFFFFFFFFFFFFFFFFFFFFFFFFFFFFFFFFFFFF AND PUSH20 0xFFFFFFFFFFFFFFFFFFFFFFFFFFFFFFFFFFFFFFFF AND DUP2 MSTORE PUSH1 0x20 ADD SWAP1 DUP2 MSTORE PUSH1 0x20 ADD PUSH1 0x0 KECCAK256 PUSH1 0x1 ADD SLOAD SWAP11 POP PUSH1 0x22 PUSH1 0x0 DUP15 PUSH20 0xFFFFFFFFFFFFFFFFFFFFFFFFFFFFFFFFFFFFFFFF AND PUSH20 0xFFFFFFFFFFFFFFFFFFFFFFFFFFFFFFFFFFFFFFFF AND DUP2 MSTORE PUSH1 0x20 ADD SWAP1 DUP2 MSTORE PUSH1 0x20 ADD PUSH1 0x0 KECCAK256 PUSH1 0x2 ADD SLOAD SWAP10 POP PUSH1 0x22 PUSH1 0x0 DUP15 PUSH20 0xFFFFFFFFFFFFFFFFFFFFFFFFFFFFFFFFFFFFFFFF AND PUSH20 0xFFFFFFFFFFFFFFFFFFFFFFFFFFFFFFFFFFFFFFFF AND DUP2 MSTORE PUSH1 0x20 ADD SWAP1 DUP2 MSTORE PUSH1 0x20 ADD PUSH1 0x0 KECCAK256 PUSH1 0x3 ADD SLOAD SWAP9 POP PUSH1 0x22 PUSH1 0x0 DUP15 PUSH20 0xFFFFFFFFFFFFFFFFFFFFFFFFFFFFFFFFFFFFFFFF AND PUSH20 0xFFFFFFFFFFFFFFFFFFFFFFFFFFFFFFFFFFFFFFFF AND DUP2 MSTORE PUSH1 0x20 ADD SWAP1 DUP2 MSTORE PUSH1 0x20 ADD PUSH1 0x0 KECCAK256 PUSH1 0x4 ADD SLOAD SWAP8 POP PUSH1 0x22 PUSH1 0x0 DUP15 PUSH20 0xFFFFFFFFFFFFFFFFFFFFFFFFFFFFFFFFFFFFFFFF AND PUSH20 0xFFFFFFFFFFFFFFFFFFFFFFFFFFFFFFFFFFFFFFFF AND DUP2 MSTORE PUSH1 0x20 ADD SWAP1 DUP2 MSTORE PUSH1 0x20 ADD PUSH1 0x0 KECCAK256 PUSH1 0x5 ADD PUSH1 0x0 SWAP1 SLOAD SWAP1 PUSH2 0x100 EXP SWAP1 DIV PUSH20 0xFFFFFFFFFFFFFFFFFFFFFFFFFFFFFFFFFFFFFFFF AND SWAP7 POP PUSH1 0x22 PUSH1 0x0 DUP15 PUSH20 0xFFFFFFFFFFFFFFFFFFFFFFFFFFFFFFFFFFFFFFFF AND PUSH20 0xFFFFFFFFFFFFFFFFFFFFFFFFFFFFFFFFFFFFFFFF AND DUP2 MSTORE PUSH1 0x20 ADD SWAP1 DUP2 MSTORE PUSH1 0x20 ADD PUSH1 0x0 KECCAK256 PUSH1 0x6 ADD SLOAD SWAP6 POP PUSH1 0x22 PUSH1 0x0 DUP15 PUSH20 0xFFFFFFFFFFFFFFFFFFFFFFFFFFFFFFFFFFFFFFFF AND PUSH20 0xFFFFFFFFFFFFFFFFFFFFFFFFFFFFFFFFFFFFFFFF AND DUP2 MSTORE PUSH1 0x20 ADD SWAP1 DUP2 MSTORE PUSH1 0x20 ADD PUSH1 0x0 KECCAK256 PUSH1 0x8 ADD SLOAD SWAP5 POP PUSH1 0x22 PUSH1 0x0 DUP15 PUSH20 0xFFFFFFFFFFFFFFFFFFFFFFFFFFFFFFFFFFFFFFFF AND PUSH20 0xFFFFFFFFFFFFFFFFFFFFFFFFFFFFFFFFFFFFFFFF AND DUP2 MSTORE PUSH1 0x20 ADD SWAP1 DUP2 MSTORE PUSH1 0x20 ADD PUSH1 0x0 KECCAK256 PUSH1 0x7 ADD SLOAD SWAP4 POP PUSH1 0x22 PUSH1 0x0 DUP15 PUSH20 0xFFFFFFFFFFFFFFFFFFFFFFFFFFFFFFFFFFFFFFFF AND PUSH20 0xFFFFFFFFFFFFFFFFFFFFFFFFFFFFFFFFFFFFFFFF AND DUP2 MSTORE PUSH1 0x20 ADD SWAP1 DUP2 MSTORE PUSH1 0x20 ADD PUSH1 0x0 KECCAK256 PUSH1 0x9 ADD SLOAD SWAP3 POP PUSH1 0x22 PUSH1 0x0 DUP15 PUSH20 0xFFFFFFFFFFFFFFFFFFFFFFFFFFFFFFFFFFFFFFFF AND PUSH20 0xFFFFFFFFFFFFFFFFFFFFFFFFFFFFFFFFFFFFFFFF AND DUP2 MSTORE PUSH1 0x20 ADD SWAP1 DUP2 MSTORE PUSH1 0x20 ADD PUSH1 0x0 KECCAK256 PUSH1 0xA ADD SLOAD SWAP2 POP PUSH1 0x22 PUSH1 0x0 DUP15 PUSH20 0xFFFFFFFFFFFFFFFFFFFFFFFFFFFFFFFFFFFFFFFF AND PUSH20 0xFFFFFFFFFFFFFFFFFFFFFFFFFFFFFFFFFFFFFFFF AND DUP2 MSTORE PUSH1 0x20 ADD SWAP1 DUP2 MSTORE PUSH1 0x20 ADD PUSH1 0x0 KECCAK256 PUSH1 0xB ADD SLOAD SWAP1 POP SWAP2 SWAP4 SWAP6 SWAP8 SWAP10 SWAP12 POP SWAP2 SWAP4 SWAP6 SWAP8 SWAP10 SWAP12 JUMP JUMPDEST PUSH1 0x0 DUP1 PUSH2 0x2554 PUSH2 0x2503 DUP5 PUSH2 0x2E7A JUMP JUMPDEST PUSH1 0x22 PUSH1 0x0 DUP7 PUSH20 0xFFFFFFFFFFFFFFFFFFFFFFFFFFFFFFFFFFFFFFFF AND PUSH20 0xFFFFFFFFFFFFFFFFFFFFFFFFFFFFFFFFFFFFFFFF AND DUP2 MSTORE PUSH1 0x20 ADD SWAP1 DUP2 MSTORE PUSH1 0x20 ADD PUSH1 0x0 KECCAK256 PUSH1 0x3 ADD SLOAD PUSH2 0x33EF SWAP1 SWAP2 SWAP1 PUSH4 0xFFFFFFFF AND JUMP JUMPDEST SWAP1 POP PUSH2 0x255F DUP2 PUSH2 0x2907 JUMP JUMPDEST SWAP2 POP POP SWAP2 SWAP1 POP JUMP JUMPDEST PUSH1 0x3 SLOAD DUP2 JUMP JUMPDEST PUSH1 0x10 SLOAD DUP2 JUMP JUMPDEST PUSH1 0x1B PUSH1 0x0 SWAP1 SLOAD SWAP1 PUSH2 0x100 EXP SWAP1 DIV PUSH20 0xFFFFFFFFFFFFFFFFFFFFFFFFFFFFFFFFFFFFFFFF AND PUSH20 0xFFFFFFFFFFFFFFFFFFFFFFFFFFFFFFFFFFFFFFFF AND CALLER PUSH20 0xFFFFFFFFFFFFFFFFFFFFFFFFFFFFFFFFFFFFFFFF AND EQ PUSH2 0x2603 JUMPI PUSH1 0x40 MLOAD PUSH32 0x8C379A000000000000000000000000000000000000000000000000000000000 DUP2 MSTORE PUSH1 0x4 ADD PUSH2 0x25FA SWAP1 PUSH2 0x3F69 JUMP JUMPDEST PUSH1 0x40 MLOAD DUP1 SWAP2 SUB SWAP1 REVERT JUMPDEST PUSH1 0xA DUP2 LT ISZERO DUP1 ISZERO PUSH2 0x2616 JUMPI POP PUSH2 0x384 DUP2 GT ISZERO JUMPDEST PUSH2 0x261F JUMPI PUSH1 0x0 DUP1 REVERT JUMPDEST DUP1 PUSH1 0x8 DUP2 SWAP1 SSTORE POP POP JUMP JUMPDEST PUSH1 0xA SLOAD DUP2 JUMP JUMPDEST PUSH1 0x1B PUSH1 0x0 SWAP1 SLOAD SWAP1 PUSH2 0x100 EXP SWAP1 DIV PUSH20 0xFFFFFFFFFFFFFFFFFFFFFFFFFFFFFFFFFFFFFFFF AND PUSH20 0xFFFFFFFFFFFFFFFFFFFFFFFFFFFFFFFFFFFFFFFF AND CALLER PUSH20 0xFFFFFFFFFFFFFFFFFFFFFFFFFFFFFFFFFFFFFFFF AND EQ PUSH2 0x26BF JUMPI PUSH1 0x40 MLOAD PUSH32 0x8C379A000000000000000000000000000000000000000000000000000000000 DUP2 MSTORE PUSH1 0x4 ADD PUSH2 0x26B6 SWAP1 PUSH2 0x3F69 JUMP JUMPDEST PUSH1 0x40 MLOAD DUP1 SWAP2 SUB SWAP1 REVERT JUMPDEST PUSH1 0x32 DUP2 GT ISZERO PUSH2 0x26CD JUMPI PUSH1 0x0 DUP1 REVERT JUMPDEST DUP1 PUSH1 0x5 DUP2 SWAP1 SSTORE POP POP JUMP JUMPDEST PUSH1 0x1B PUSH1 0x0 SWAP1 SLOAD SWAP1 PUSH2 0x100 EXP SWAP1 DIV PUSH20 0xFFFFFFFFFFFFFFFFFFFFFFFFFFFFFFFFFFFFFFFF AND PUSH20 0xFFFFFFFFFFFFFFFFFFFFFFFFFFFFFFFFFFFFFFFF AND CALLER PUSH20 0xFFFFFFFFFFFFFFFFFFFFFFFFFFFFFFFFFFFFFFFF AND EQ PUSH2 0x2767 JUMPI PUSH1 0x40 MLOAD PUSH32 0x8C379A000000000000000000000000000000000000000000000000000000000 DUP2 MSTORE PUSH1 0x4 ADD PUSH2 0x275E SWAP1 PUSH2 0x3FD5 JUMP JUMPDEST PUSH1 0x40 MLOAD DUP1 SWAP2 SUB SWAP1 REVERT JUMPDEST PUSH1 0x3C DUP1 DUP3 PUSH2 0x2775 SWAP2 SWAP1 PUSH2 0x4024 JUMP JUMPDEST PUSH2 0x277F SWAP2 SWAP1 PUSH2 0x4024 JUMP JUMPDEST PUSH1 0x19 DUP2 SWAP1 SSTORE POP POP JUMP JUMPDEST PUSH1 0x21 PUSH1 0x0 SWAP1 SLOAD SWAP1 PUSH2 0x100 EXP SWAP1 DIV PUSH20 0xFFFFFFFFFFFFFFFFFFFFFFFFFFFFFFFFFFFFFFFF AND DUP2 JUMP JUMPDEST PUSH1 0xE SLOAD DUP2 JUMP JUMPDEST PUSH1 0xF SLOAD DUP2 JUMP JUMPDEST PUSH1 0x0 PUSH2 0x27CD DUP3 PUSH2 0x27C8 PUSH2 0x1199 JUMP JUMPDEST PUSH2 0x14E6 JUMP JUMPDEST SWAP1 POP SWAP2 SWAP1 POP JUMP JUMPDEST PUSH1 0x1B PUSH1 0x0 SWAP1 SLOAD SWAP1 PUSH2 0x100 EXP SWAP1 DIV PUSH20 0xFFFFFFFFFFFFFFFFFFFFFFFFFFFFFFFFFFFFFFFF AND PUSH20 0xFFFFFFFFFFFFFFFFFFFFFFFFFFFFFFFFFFFFFFFF AND CALLER PUSH20 0xFFFFFFFFFFFFFFFFFFFFFFFFFFFFFFFFFFFFFFFF AND EQ PUSH2 0x2864 JUMPI PUSH1 0x40 MLOAD PUSH32 0x8C379A000000000000000000000000000000000000000000000000000000000 DUP2 MSTORE PUSH1 0x4 ADD PUSH2 0x285B SWAP1 PUSH2 0x3FD5 JUMP JUMPDEST PUSH1 0x40 MLOAD DUP1 SWAP2 SUB SWAP1 REVERT JUMPDEST PUSH1 0xA DUP2 LT ISZERO PUSH2 0x2872 JUMPI PUSH1 0x0 DUP1 REVERT JUMPDEST PUSH8 0xDE0B6B3A7640000 DUP2 PUSH2 0x2886 SWAP2 SWAP1 PUSH2 0x4024 JUMP JUMPDEST PUSH1 0x7 DUP2 SWAP1 SSTORE POP POP JUMP JUMPDEST PUSH1 0x1D PUSH1 0x0 SWAP1 SLOAD SWAP1 PUSH2 0x100 EXP SWAP1 DIV PUSH20 0xFFFFFFFFFFFFFFFFFFFFFFFFFFFFFFFFFFFFFFFF AND DUP2 JUMP JUMPDEST PUSH1 0xD SLOAD DUP2 JUMP JUMPDEST PUSH1 0x20 PUSH1 0x0 SWAP1 SLOAD SWAP1 PUSH2 0x100 EXP SWAP1 DIV PUSH20 0xFFFFFFFFFFFFFFFFFFFFFFFFFFFFFFFFFFFFFFFF AND DUP2 JUMP JUMPDEST PUSH1 0x1B PUSH1 0x0 SWAP1 SLOAD SWAP1 PUSH2 0x100 EXP SWAP1 DIV PUSH20 0xFFFFFFFFFFFFFFFFFFFFFFFFFFFFFFFFFFFFFFFF AND DUP2 JUMP JUMPDEST PUSH1 0x0 PUSH2 0x291D DUP3 PUSH1 0x12 SLOAD PUSH2 0x2918 PUSH2 0x1199 JUMP JUMPDEST PUSH2 0x146D JUMP JUMPDEST SWAP1 POP SWAP2 SWAP1 POP JUMP JUMPDEST PUSH1 0x1A SLOAD DUP2 JUMP JUMPDEST PUSH1 0x1B PUSH1 0x0 SWAP1 SLOAD SWAP1 PUSH2 0x100 EXP SWAP1 DIV PUSH20 0xFFFFFFFFFFFFFFFFFFFFFFFFFFFFFFFFFFFFFFFF AND PUSH20 0xFFFFFFFFFFFFFFFFFFFFFFFFFFFFFFFFFFFFFFFF AND CALLER PUSH20 0xFFFFFFFFFFFFFFFFFFFFFFFFFFFFFFFFFFFFFFFF AND EQ PUSH2 0x29BA JUMPI PUSH1 0x40 MLOAD PUSH32 0x8C379A000000000000000000000000000000000000000000000000000000000 DUP2 MSTORE PUSH1 0x4 ADD PUSH2 0x29B1 SWAP1 PUSH2 0x3F69 JUMP JUMPDEST PUSH1 0x40 MLOAD DUP1 SWAP2 SUB SWAP1 REVERT JUMPDEST PUSH1 0x18 DUP2 GT ISZERO PUSH2 0x29C8 JUMPI PUSH1 0x0 DUP1 REVERT JUMPDEST PUSH1 0x3C DUP1 DUP3 PUSH2 0x29D6 SWAP2 SWAP1 PUSH2 0x4024 JUMP JUMPDEST PUSH2 0x29E0 SWAP2 SWAP1 PUSH2 0x4024 JUMP JUMPDEST PUSH1 0xA DUP2 SWAP1 SSTORE POP POP JUMP JUMPDEST PUSH1 0x1B PUSH1 0x0 SWAP1 SLOAD SWAP1 PUSH2 0x100 EXP SWAP1 DIV PUSH20 0xFFFFFFFFFFFFFFFFFFFFFFFFFFFFFFFFFFFFFFFF AND PUSH20 0xFFFFFFFFFFFFFFFFFFFFFFFFFFFFFFFFFFFFFFFF AND CALLER PUSH20 0xFFFFFFFFFFFFFFFFFFFFFFFFFFFFFFFFFFFFFFFF AND EQ PUSH2 0x2A79 JUMPI PUSH1 0x40 MLOAD PUSH32 0x8C379A000000000000000000000000000000000000000000000000000000000 DUP2 MSTORE PUSH1 0x4 ADD PUSH2 0x2A70 SWAP1 PUSH2 0x3F69 JUMP JUMPDEST PUSH1 0x40 MLOAD DUP1 SWAP2 SUB SWAP1 REVERT JUMPDEST PUSH1 0x1E DUP2 GT ISZERO PUSH2 0x2A87 JUMPI PUSH1 0x0 DUP1 REVERT JUMPDEST DUP1 PUSH1 0x9 DUP2 SWAP1 SSTORE POP POP JUMP JUMPDEST PUSH1 0x1B PUSH1 0x0 SWAP1 SLOAD SWAP1 PUSH2 0x100 EXP SWAP1 DIV PUSH20 0xFFFFFFFFFFFFFFFFFFFFFFFFFFFFFFFFFFFFFFFF AND PUSH20 0xFFFFFFFFFFFFFFFFFFFFFFFFFFFFFFFFFFFFFFFF AND CALLER PUSH20 0xFFFFFFFFFFFFFFFFFFFFFFFFFFFFFFFFFFFFFFFF AND EQ PUSH2 0x2B21 JUMPI PUSH1 0x40 MLOAD PUSH32 0x8C379A000000000000000000000000000000000000000000000000000000000 DUP2 MSTORE PUSH1 0x4 ADD PUSH2 0x2B18 SWAP1 PUSH2 0x3F69 JUMP JUMPDEST PUSH1 0x40 MLOAD DUP1 SWAP2 SUB SWAP1 REVERT JUMPDEST DUP1 PUSH1 0x15 PUSH1 0x1 PUSH2 0x100 EXP DUP2 SLOAD DUP2 PUSH1 0xFF MUL NOT AND SWAP1 DUP4 ISZERO ISZERO MUL OR SWAP1 SSTORE POP POP JUMP JUMPDEST PUSH1 0x1C PUSH1 0x0 SWAP1 SLOAD SWAP1 PUSH2 0x100 EXP SWAP1 DIV PUSH20 0xFFFFFFFFFFFFFFFFFFFFFFFFFFFFFFFFFFFFFFFF AND DUP2 JUMP JUMPDEST PUSH1 0x22 PUSH1 0x20 MSTORE DUP1 PUSH1 0x0 MSTORE PUSH1 0x40 PUSH1 0x0 KECCAK256 PUSH1 0x0 SWAP2 POP SWAP1 POP DUP1 PUSH1 0x0 ADD SLOAD SWAP1 DUP1 PUSH1 0x1 ADD SLOAD SWAP1 DUP1 PUSH1 0x2 ADD SLOAD SWAP1 DUP1 PUSH1 0x3 ADD SLOAD SWAP1 DUP1 PUSH1 0x4 ADD SLOAD SWAP1 DUP1 PUSH1 0x5 ADD PUSH1 0x0 SWAP1 SLOAD SWAP1 PUSH2 0x100 EXP SWAP1 DIV PUSH20 0xFFFFFFFFFFFFFFFFFFFFFFFFFFFFFFFFFFFFFFFF AND SWAP1 DUP1 PUSH1 0x6 ADD SLOAD SWAP1 DUP1 PUSH1 0x7 ADD SLOAD SWAP1 DUP1 PUSH1 0x8 ADD SLOAD SWAP1 DUP1 PUSH1 0x9 ADD SLOAD SWAP1 DUP1 PUSH1 0xA ADD SLOAD SWAP1 DUP1 PUSH1 0xB ADD SLOAD SWAP1 POP DUP13 JUMP JUMPDEST PUSH1 0x17 PUSH1 0x20 MSTORE DUP1 PUSH1 0x0 MSTORE PUSH1 0x40 PUSH1 0x0 KECCAK256 PUSH1 0x0 SWAP2 POP SWAP1 POP SLOAD DUP2 JUMP JUMPDEST PUSH1 0x15 PUSH1 0x1 SWAP1 SLOAD SWAP1 PUSH2 0x100 EXP SWAP1 DIV PUSH1 0xFF AND DUP2 JUMP JUMPDEST JUMP JUMPDEST PUSH1 0x0 DUP1 PUSH1 0x0 PUSH2 0x2C4B DUP5 PUSH2 0x2C46 DUP7 PUSH2 0x2C38 DUP9 PUSH2 0x2C2A PUSH2 0x1199 JUMP JUMPDEST PUSH2 0x33EF SWAP1 SWAP2 SWAP1 PUSH4 0xFFFFFFFF AND JUMP JUMPDEST PUSH2 0x341B SWAP1 SWAP2 SWAP1 PUSH4 0xFFFFFFFF AND JUMP JUMPDEST PUSH2 0x14E6 JUMP JUMPDEST SWAP1 POP PUSH1 0x0 PUSH2 0x2C64 PUSH1 0x0 SLOAD DUP4 PUSH2 0x3442 SWAP1 SWAP2 SWAP1 PUSH4 0xFFFFFFFF AND JUMP JUMPDEST SWAP1 POP PUSH1 0x0 PUSH3 0x15180 SWAP1 POP PUSH1 0x0 PUSH2 0x2C83 DUP4 DUP4 PUSH2 0x345D SWAP1 SWAP2 SWAP1 PUSH4 0xFFFFFFFF AND JUMP JUMPDEST SWAP1 POP PUSH1 0x0 PUSH2 0x2C91 DUP3 DUP10 PUSH2 0x2E3E JUMP JUMPDEST SWAP1 POP DUP4 DUP2 SWAP7 POP SWAP7 POP POP POP POP POP POP SWAP2 POP SWAP2 JUMP JUMPDEST PUSH1 0x1B PUSH1 0x0 SWAP1 SLOAD SWAP1 PUSH2 0x100 EXP SWAP1 DIV PUSH20 0xFFFFFFFFFFFFFFFFFFFFFFFFFFFFFFFFFFFFFFFF AND PUSH20 0xFFFFFFFFFFFFFFFFFFFFFFFFFFFFFFFFFFFFFFFF AND CALLER PUSH20 0xFFFFFFFFFFFFFFFFFFFFFFFFFFFFFFFFFFFFFFFF AND EQ PUSH2 0x2D33 JUMPI PUSH1 0x40 MLOAD PUSH32 0x8C379A000000000000000000000000000000000000000000000000000000000 DUP2 MSTORE PUSH1 0x4 ADD PUSH2 0x2D2A SWAP1 PUSH2 0x3F69 JUMP JUMPDEST PUSH1 0x40 MLOAD DUP1 SWAP2 SUB SWAP1 REVERT JUMPDEST PUSH2 0x384 DUP2 GT ISZERO PUSH2 0x2D42 JUMPI PUSH1 0x0 DUP1 REVERT JUMPDEST DUP1 PUSH1 0xB DUP2 SWAP1 SSTORE POP POP JUMP JUMPDEST PUSH1 0x0 PUSH1 0x1B PUSH1 0x0 SWAP1 SLOAD SWAP1 PUSH2 0x100 EXP SWAP1 DIV PUSH20 0xFFFFFFFFFFFFFFFFFFFFFFFFFFFFFFFFFFFFFFFF AND PUSH20 0xFFFFFFFFFFFFFFFFFFFFFFFFFFFFFFFFFFFFFFFF AND CALLER PUSH20 0xFFFFFFFFFFFFFFFFFFFFFFFFFFFFFFFFFFFFFFFF AND EQ PUSH2 0x2DDE JUMPI PUSH1 0x40 MLOAD PUSH32 0x8C379A000000000000000000000000000000000000000000000000000000000 DUP2 MSTORE PUSH1 0x4 ADD PUSH2 0x2DD5 SWAP1 PUSH2 0x3F69 JUMP JUMPDEST PUSH1 0x40 MLOAD DUP1 SWAP2 SUB SWAP1 REVERT JUMPDEST PUSH1 0x16 PUSH1 0x0 DUP4 PUSH20 0xFFFFFFFFFFFFFFFFFFFFFFFFFFFFFFFFFFFFFFFF AND PUSH20 0xFFFFFFFFFFFFFFFFFFFFFFFFFFFFFFFFFFFFFFFF AND DUP2 MSTORE PUSH1 0x20 ADD SWAP1 DUP2 MSTORE PUSH1 0x20 ADD PUSH1 0x0 KECCAK256 PUSH1 0x0 SWAP1 SLOAD SWAP1 PUSH2 0x100 EXP SWAP1 DIV PUSH1 0xFF AND SWAP1 POP SWAP2 SWAP1 POP JUMP JUMPDEST PUSH1 0x1 SLOAD DUP2 JUMP JUMPDEST PUSH1 0x9 SLOAD DUP2 JUMP JUMPDEST PUSH1 0x0 PUSH2 0x2E66 DUP4 PUSH1 0x12 SLOAD PUSH2 0x2E61 DUP6 PUSH2 0x2E53 PUSH2 0x1199 JUMP JUMPDEST PUSH2 0x33EF SWAP1 SWAP2 SWAP1 PUSH4 0xFFFFFFFF AND JUMP JUMPDEST PUSH2 0x146D JUMP JUMPDEST SWAP1 POP SWAP3 SWAP2 POP POP JUMP JUMPDEST PUSH1 0x6 SLOAD DUP2 JUMP JUMPDEST PUSH1 0x8 SLOAD DUP2 JUMP JUMPDEST PUSH1 0x0 DUP1 PUSH2 0x2ED2 PUSH1 0x22 PUSH1 0x0 DUP6 PUSH20 0xFFFFFFFFFFFFFFFFFFFFFFFFFFFFFFFFFFFFFFFF AND PUSH20 0xFFFFFFFFFFFFFFFFFFFFFFFFFFFFFFFFFFFFFFFF AND DUP2 MSTORE PUSH1 0x20 ADD SWAP1 DUP2 MSTORE PUSH1 0x20 ADD PUSH1 0x0 KECCAK256 PUSH1 0x4 ADD SLOAD TIMESTAMP PUSH2 0x341B SWAP1 SWAP2 SWAP1 PUSH4 0xFFFFFFFF AND JUMP JUMPDEST SWAP1 POP PUSH1 0x0 PUSH2 0x2EE2 DUP3 PUSH1 0x19 SLOAD PUSH2 0x3970 JUMP JUMPDEST SWAP1 POP PUSH1 0x0 PUSH2 0x2EF2 PUSH1 0x0 SLOAD DUP4 PUSH2 0x3970 JUMP JUMPDEST SWAP1 POP PUSH2 0x2F49 PUSH1 0x22 PUSH1 0x0 DUP8 PUSH20 0xFFFFFFFFFFFFFFFFFFFFFFFFFFFFFFFFFFFFFFFF AND PUSH20 0xFFFFFFFFFFFFFFFFFFFFFFFFFFFFFFFFFFFFFFFF AND DUP2 MSTORE PUSH1 0x20 ADD SWAP1 DUP2 MSTORE PUSH1 0x20 ADD PUSH1 0x0 KECCAK256 PUSH1 0x2 ADD SLOAD DUP3 PUSH2 0x345D SWAP1 SWAP2 SWAP1 PUSH4 0xFFFFFFFF AND JUMP JUMPDEST SWAP4 POP POP POP POP SWAP2 SWAP1 POP JUMP JUMPDEST PUSH1 0x1B PUSH1 0x0 SWAP1 SLOAD SWAP1 PUSH2 0x100 EXP SWAP1 DIV PUSH20 0xFFFFFFFFFFFFFFFFFFFFFFFFFFFFFFFFFFFFFFFF AND PUSH20 0xFFFFFFFFFFFFFFFFFFFFFFFFFFFFFFFFFFFFFFFF AND CALLER PUSH20 0xFFFFFFFFFFFFFFFFFFFFFFFFFFFFFFFFFFFFFFFF AND EQ PUSH2 0x2FE3 JUMPI PUSH1 0x40 MLOAD PUSH32 0x8C379A000000000000000000000000000000000000000000000000000000000 DUP2 MSTORE PUSH1 0x4 ADD PUSH2 0x2FDA SWAP1 PUSH2 0x3F69 JUMP JUMPDEST PUSH1 0x40 MLOAD DUP1 SWAP2 SUB SWAP1 REVERT JUMPDEST DUP1 PUSH1 0x16 PUSH1 0x0 DUP5 PUSH20 0xFFFFFFFFFFFFFFFFFFFFFFFFFFFFFFFFFFFFFFFF AND PUSH20 0xFFFFFFFFFFFFFFFFFFFFFFFFFFFFFFFFFFFFFFFF AND DUP2 MSTORE PUSH1 0x20 ADD SWAP1 DUP2 MSTORE PUSH1 0x20 ADD PUSH1 0x0 KECCAK256 PUSH1 0x0 PUSH2 0x100 EXP DUP2 SLOAD DUP2 PUSH1 0xFF MUL NOT AND SWAP1 DUP4 ISZERO ISZERO MUL OR SWAP1 SSTORE POP POP POP JUMP JUMPDEST PUSH1 0x0 TIMESTAMP SWAP1 POP SWAP1 JUMP JUMPDEST PUSH1 0x15 PUSH1 0x0 SWAP1 SLOAD SWAP1 PUSH2 0x100 EXP SWAP1 DIV PUSH1 0xFF AND PUSH2 0x3130 JUMPI PUSH1 0x1B PUSH1 0x0 SWAP1 SLOAD SWAP1 PUSH2 0x100 EXP SWAP1 DIV PUSH20 0xFFFFFFFFFFFFFFFFFFFFFFFFFFFFFFFFFFFFFFFF AND PUSH20 0xFFFFFFFFFFFFFFFFFFFFFFFFFFFFFFFFFFFFFFFF AND CALLER PUSH20 0xFFFFFFFFFFFFFFFFFFFFFFFFFFFFFFFFFFFFFFFF AND EQ ISZERO PUSH2 0x30F4 JUMPI PUSH1 0x0 PUSH1 0x12 SLOAD EQ PUSH2 0x30BF JUMPI PUSH1 0x0 DUP1 REVERT JUMPDEST PUSH1 0x1 PUSH1 0x15 PUSH1 0x0 PUSH2 0x100 EXP DUP2 SLOAD DUP2 PUSH1 0xFF MUL NOT AND SWAP1 DUP4 ISZERO ISZERO MUL OR SWAP1 SSTORE POP PUSH5 0x218711A000 PUSH1 0x12 DUP2 SWAP1 SSTORE POP PUSH2 0x30EF DUP2 PUSH2 0x1968 JUMP JUMPDEST PUSH2 0x312F JUMP JUMPDEST PUSH1 0x40 MLOAD PUSH32 0x8C379A000000000000000000000000000000000000000000000000000000000 DUP2 MSTORE PUSH1 0x4 ADD PUSH2 0x3126 SWAP1 PUSH2 0x420E JUMP JUMPDEST PUSH1 0x40 MLOAD DUP1 SWAP2 SUB SWAP1 REVERT JUMPDEST JUMPDEST POP JUMP JUMPDEST PUSH1 0x1B PUSH1 0x0 SWAP1 SLOAD SWAP1 PUSH2 0x100 EXP SWAP1 DIV PUSH20 0xFFFFFFFFFFFFFFFFFFFFFFFFFFFFFFFFFFFFFFFF AND PUSH20 0xFFFFFFFFFFFFFFFFFFFFFFFFFFFFFFFFFFFFFFFF AND CALLER PUSH20 0xFFFFFFFFFFFFFFFFFFFFFFFFFFFFFFFFFFFFFFFF AND EQ PUSH2 0x31C3 JUMPI PUSH1 0x40 MLOAD PUSH32 0x8C379A000000000000000000000000000000000000000000000000000000000 DUP2 MSTORE PUSH1 0x4 ADD PUSH2 0x31BA SWAP1 PUSH2 0x3F69 JUMP JUMPDEST PUSH1 0x40 MLOAD DUP1 SWAP2 SUB SWAP1 REVERT JUMPDEST PUSH3 0x75120 DUP2 LT ISZERO DUP1 ISZERO PUSH2 0x31D9 JUMPI POP PUSH3 0xAFC80 DUP2 GT ISZERO JUMPDEST PUSH2 0x31E2 JUMPI PUSH1 0x0 DUP1 REVERT JUMPDEST DUP1 PUSH1 0x0 DUP2 SWAP1 SSTORE POP POP JUMP JUMPDEST PUSH1 0x1B PUSH1 0x0 SWAP1 SLOAD SWAP1 PUSH2 0x100 EXP SWAP1 DIV PUSH20 0xFFFFFFFFFFFFFFFFFFFFFFFFFFFFFFFFFFFFFFFF AND PUSH20 0xFFFFFFFFFFFFFFFFFFFFFFFFFFFFFFFFFFFFFFFF AND CALLER PUSH20 0xFFFFFFFFFFFFFFFFFFFFFFFFFFFFFFFFFFFFFFFF AND EQ PUSH2 0x327C JUMPI PUSH1 0x40 MLOAD PUSH32 0x8C379A000000000000000000000000000000000000000000000000000000000 DUP2 MSTORE PUSH1 0x4 ADD PUSH2 0x3273 SWAP1 PUSH2 0x3F69 JUMP JUMPDEST PUSH1 0x40 MLOAD DUP1 SWAP2 SUB SWAP1 REVERT JUMPDEST PUSH1 0xC DUP2 GT ISZERO PUSH2 0x328A JUMPI PUSH1 0x0 DUP1 REVERT JUMPDEST DUP1 PUSH1 0xC DUP2 SWAP1 SSTORE POP POP JUMP JUMPDEST PUSH1 0x1B PUSH1 0x0 SWAP1 SLOAD SWAP1 PUSH2 0x100 EXP SWAP1 DIV PUSH20 0xFFFFFFFFFFFFFFFFFFFFFFFFFFFFFFFFFFFFFFFF AND PUSH20 0xFFFFFFFFFFFFFFFFFFFFFFFFFFFFFFFFFFFFFFFF AND CALLER PUSH20 0xFFFFFFFFFFFFFFFFFFFFFFFFFFFFFFFFFFFFFFFF AND EQ PUSH2 0x3324 JUMPI PUSH1 0x40 MLOAD PUSH32 0x8C379A000000000000000000000000000000000000000000000000000000000 DUP2 MSTORE PUSH1 0x4 ADD PUSH2 0x331B SWAP1 PUSH2 0x3F69 JUMP JUMPDEST PUSH1 0x40 MLOAD DUP1 SWAP2 SUB SWAP1 REVERT JUMPDEST PUSH1 0x0 JUMPDEST DUP4 DUP4 SWAP1 POP DUP2 LT ISZERO PUSH2 0x33C3 JUMPI DUP2 PUSH1 0x16 PUSH1 0x0 DUP7 DUP7 DUP6 DUP2 DUP2 LT PUSH2 0x334A JUMPI PUSH2 0x3349 PUSH2 0x422E JUMP JUMPDEST JUMPDEST SWAP1 POP PUSH1 0x20 MUL ADD PUSH1 0x20 DUP2 ADD SWAP1 PUSH2 0x335F SWAP2 SWAP1 PUSH2 0x3B1F JUMP JUMPDEST PUSH20 0xFFFFFFFFFFFFFFFFFFFFFFFFFFFFFFFFFFFFFFFF AND PUSH20 0xFFFFFFFFFFFFFFFFFFFFFFFFFFFFFFFFFFFFFFFF AND DUP2 MSTORE PUSH1 0x20 ADD SWAP1 DUP2 MSTORE PUSH1 0x20 ADD PUSH1 0x0 KECCAK256 PUSH1 0x0 PUSH2 0x100 EXP DUP2 SLOAD DUP2 PUSH1 0xFF MUL NOT AND SWAP1 DUP4 ISZERO ISZERO MUL OR SWAP1 SSTORE POP DUP1 DUP1 PUSH2 0x33BB SWAP1 PUSH2 0x425D JUMP JUMPDEST SWAP2 POP POP PUSH2 0x3327 JUMP JUMPDEST POP POP POP POP JUMP JUMPDEST PUSH1 0xC SLOAD DUP2 JUMP JUMPDEST PUSH1 0x16 PUSH1 0x20 MSTORE DUP1 PUSH1 0x0 MSTORE PUSH1 0x40 PUSH1 0x0 KECCAK256 PUSH1 0x0 SWAP2 POP SLOAD SWAP1 PUSH2 0x100 EXP SWAP1 DIV PUSH1 0xFF AND DUP2 JUMP JUMPDEST PUSH1 0x0 DUP1 DUP3 DUP5 PUSH2 0x33FE SWAP2 SWAP1 PUSH2 0x42A6 JUMP JUMPDEST SWAP1 POP DUP4 DUP2 LT ISZERO PUSH2 0x3411 JUMPI PUSH2 0x3410 PUSH2 0x42FC JUMP JUMPDEST JUMPDEST DUP1 SWAP2 POP POP SWAP3 SWAP2 POP POP JUMP JUMPDEST PUSH1 0x0 DUP3 DUP3 GT ISZERO PUSH2 0x342E JUMPI PUSH2 0x342D PUSH2 0x42FC JUMP JUMPDEST JUMPDEST DUP2 DUP4 PUSH2 0x343A SWAP2 SWAP1 PUSH2 0x432B JUMP JUMPDEST SWAP1 POP SWAP3 SWAP2 POP POP JUMP JUMPDEST PUSH1 0x0 DUP1 DUP3 DUP5 PUSH2 0x3451 SWAP2 SWAP1 PUSH2 0x438E JUMP JUMPDEST SWAP1 POP DUP1 SWAP2 POP POP SWAP3 SWAP2 POP POP JUMP JUMPDEST PUSH1 0x0 DUP1 DUP4 EQ ISZERO PUSH2 0x3470 JUMPI PUSH1 0x0 SWAP1 POP PUSH2 0x34A0 JUMP JUMPDEST PUSH1 0x0 DUP3 DUP5 PUSH2 0x347E SWAP2 SWAP1 PUSH2 0x4024 JUMP JUMPDEST SWAP1 POP DUP3 DUP5 DUP3 PUSH2 0x348D SWAP2 SWAP1 PUSH2 0x438E JUMP JUMPDEST EQ PUSH2 0x349B JUMPI PUSH2 0x349A PUSH2 0x42FC JUMP JUMPDEST JUMPDEST DUP1 SWAP2 POP POP JUMPDEST SWAP3 SWAP2 POP POP JUMP JUMPDEST PUSH1 0x0 DUP3 SWAP1 POP PUSH1 0x0 PUSH1 0x3 PUSH8 0xFFFFFFFFFFFFFFFF DUP2 GT ISZERO PUSH2 0x34C8 JUMPI PUSH2 0x34C7 PUSH2 0x43BF JUMP JUMPDEST JUMPDEST PUSH1 0x40 MLOAD SWAP1 DUP1 DUP3 MSTORE DUP1 PUSH1 0x20 MUL PUSH1 0x20 ADD DUP3 ADD PUSH1 0x40 MSTORE DUP1 ISZERO PUSH2 0x34F6 JUMPI DUP2 PUSH1 0x20 ADD PUSH1 0x20 DUP3 MUL DUP1 CALLDATASIZE DUP4 CALLDATACOPY DUP1 DUP3 ADD SWAP2 POP POP SWAP1 POP JUMPDEST POP SWAP1 POP PUSH1 0x8 DUP2 PUSH1 0x0 DUP2 MLOAD DUP2 LT PUSH2 0x350F JUMPI PUSH2 0x350E PUSH2 0x422E JUMP JUMPDEST JUMPDEST PUSH1 0x20 MUL PUSH1 0x20 ADD ADD DUP2 DUP2 MSTORE POP POP PUSH1 0x3 DUP2 PUSH1 0x1 DUP2 MLOAD DUP2 LT PUSH2 0x3531 JUMPI PUSH2 0x3530 PUSH2 0x422E JUMP JUMPDEST JUMPDEST PUSH1 0x20 MUL PUSH1 0x20 ADD ADD DUP2 DUP2 MSTORE POP POP PUSH1 0x2 DUP2 PUSH1 0x2 DUP2 MLOAD DUP2 LT PUSH2 0x3553 JUMPI PUSH2 0x3552 PUSH2 0x422E JUMP JUMPDEST JUMPDEST PUSH1 0x20 MUL PUSH1 0x20 ADD ADD DUP2 DUP2 MSTORE POP POP PUSH1 0x0 JUMPDEST PUSH1 0x3 DUP2 LT ISZERO PUSH2 0x380D JUMPI PUSH1 0x0 PUSH20 0xFFFFFFFFFFFFFFFFFFFFFFFFFFFFFFFFFFFFFFFF AND PUSH1 0x22 PUSH1 0x0 DUP6 PUSH20 0xFFFFFFFFFFFFFFFFFFFFFFFFFFFFFFFFFFFFFFFF AND PUSH20 0xFFFFFFFFFFFFFFFFFFFFFFFFFFFFFFFFFFFFFFFF AND DUP2 MSTORE PUSH1 0x20 ADD SWAP1 DUP2 MSTORE PUSH1 0x20 ADD PUSH1 0x0 KECCAK256 PUSH1 0x5 ADD PUSH1 0x0 SWAP1 SLOAD SWAP1 PUSH2 0x100 EXP SWAP1 DIV PUSH20 0xFFFFFFFFFFFFFFFFFFFFFFFFFFFFFFFFFFFFFFFF AND PUSH20 0xFFFFFFFFFFFFFFFFFFFFFFFFFFFFFFFFFFFFFFFF AND EQ PUSH2 0x37F5 JUMPI PUSH1 0x22 PUSH1 0x0 DUP5 PUSH20 0xFFFFFFFFFFFFFFFFFFFFFFFFFFFFFFFFFFFFFFFF AND PUSH20 0xFFFFFFFFFFFFFFFFFFFFFFFFFFFFFFFFFFFFFFFF AND DUP2 MSTORE PUSH1 0x20 ADD SWAP1 DUP2 MSTORE PUSH1 0x20 ADD PUSH1 0x0 KECCAK256 PUSH1 0x5 ADD PUSH1 0x0 SWAP1 SLOAD SWAP1 PUSH2 0x100 EXP SWAP1 DIV PUSH20 0xFFFFFFFFFFFFFFFFFFFFFFFFFFFFFFFFFFFFFFFF AND SWAP3 POP PUSH1 0x0 PUSH1 0x64 DUP6 DUP5 DUP5 DUP2 MLOAD DUP2 LT PUSH2 0x367E JUMPI PUSH2 0x367D PUSH2 0x422E JUMP JUMPDEST JUMPDEST PUSH1 0x20 MUL PUSH1 0x20 ADD ADD MLOAD PUSH2 0x3690 SWAP2 SWAP1 PUSH2 0x4024 JUMP JUMPDEST PUSH2 0x369A SWAP2 SWAP1 PUSH2 0x438E JUMP JUMPDEST SWAP1 POP DUP1 PUSH1 0x18 PUSH1 0x0 DUP7 PUSH20 0xFFFFFFFFFFFFFFFFFFFFFFFFFFFFFFFFFFFFFFFF AND PUSH20 0xFFFFFFFFFFFFFFFFFFFFFFFFFFFFFFFFFFFFFFFF AND DUP2 MSTORE PUSH1 0x20 ADD SWAP1 DUP2 MSTORE PUSH1 0x20 ADD PUSH1 0x0 KECCAK256 PUSH1 0x0 DUP3 DUP3 SLOAD PUSH2 0x36EB SWAP2 SWAP1 PUSH2 0x42A6 JUMP JUMPDEST SWAP3 POP POP DUP2 SWAP1 SSTORE POP DUP4 PUSH20 0xFFFFFFFFFFFFFFFFFFFFFFFFFFFFFFFFFFFFFFFF AND PUSH2 0x8FC DUP3 SWAP1 DUP2 ISZERO MUL SWAP1 PUSH1 0x40 MLOAD PUSH1 0x0 PUSH1 0x40 MLOAD DUP1 DUP4 SUB DUP2 DUP6 DUP9 DUP9 CALL SWAP4 POP POP POP POP ISZERO DUP1 ISZERO PUSH2 0x3738 JUMPI RETURNDATASIZE PUSH1 0x0 DUP1 RETURNDATACOPY RETURNDATASIZE PUSH1 0x0 REVERT JUMPDEST POP PUSH2 0x378E DUP2 PUSH1 0x22 PUSH1 0x0 DUP8 PUSH20 0xFFFFFFFFFFFFFFFFFFFFFFFFFFFFFFFFFFFFFFFF AND PUSH20 0xFFFFFFFFFFFFFFFFFFFFFFFFFFFFFFFFFFFFFFFF AND DUP2 MSTORE PUSH1 0x20 ADD SWAP1 DUP2 MSTORE PUSH1 0x20 ADD PUSH1 0x0 KECCAK256 PUSH1 0x7 ADD SLOAD PUSH2 0x33EF SWAP1 SWAP2 SWAP1 PUSH4 0xFFFFFFFF AND JUMP JUMPDEST PUSH1 0x22 PUSH1 0x0 DUP7 PUSH20 0xFFFFFFFFFFFFFFFFFFFFFFFFFFFFFFFFFFFFFFFF AND PUSH20 0xFFFFFFFFFFFFFFFFFFFFFFFFFFFFFFFFFFFFFFFF AND DUP2 MSTORE PUSH1 0x20 ADD SWAP1 DUP2 MSTORE PUSH1 0x20 ADD PUSH1 0x0 KECCAK256 PUSH1 0x7 ADD DUP2 SWAP1 SSTORE POP PUSH2 0x37E9 DUP2 PUSH1 0x10 SLOAD PUSH2 0x33EF SWAP1 SWAP2 SWAP1 PUSH4 0xFFFFFFFF AND JUMP JUMPDEST PUSH1 0x10 DUP2 SWAP1 SSTORE POP POP PUSH2 0x37FA JUMP JUMPDEST PUSH2 0x380D JUMP JUMPDEST DUP1 DUP1 PUSH2 0x3805 SWAP1 PUSH2 0x425D JUMP JUMPDEST SWAP2 POP POP PUSH2 0x3562 JUMP JUMPDEST POP POP POP POP POP JUMP JUMPDEST PUSH1 0x0 DUP1 PUSH2 0x3840 PUSH1 0x2 SLOAD PUSH2 0x3832 PUSH1 0x3 SLOAD DUP7 PUSH2 0x345D SWAP1 SWAP2 SWAP1 PUSH4 0xFFFFFFFF AND JUMP JUMPDEST PUSH2 0x3442 SWAP1 SWAP2 SWAP1 PUSH4 0xFFFFFFFF AND JUMP JUMPDEST SWAP1 POP PUSH1 0x0 PUSH2 0x386D PUSH1 0x2 SLOAD PUSH2 0x385F PUSH1 0x4 SLOAD DUP8 PUSH2 0x345D SWAP1 SWAP2 SWAP1 PUSH4 0xFFFFFFFF AND JUMP JUMPDEST PUSH2 0x3442 SWAP1 SWAP2 SWAP1 PUSH4 0xFFFFFFFF AND JUMP JUMPDEST SWAP1 POP PUSH1 0x1C PUSH1 0x0 SWAP1 SLOAD SWAP1 PUSH2 0x100 EXP SWAP1 DIV PUSH20 0xFFFFFFFFFFFFFFFFFFFFFFFFFFFFFFFFFFFFFFFF AND PUSH20 0xFFFFFFFFFFFFFFFFFFFFFFFFFFFFFFFFFFFFFFFF AND PUSH2 0x8FC DUP4 SWAP1 DUP2 ISZERO MUL SWAP1 PUSH1 0x40 MLOAD PUSH1 0x0 PUSH1 0x40 MLOAD DUP1 DUP4 SUB DUP2 DUP6 DUP9 DUP9 CALL SWAP4 POP POP POP POP ISZERO DUP1 ISZERO PUSH2 0x38D7 JUMPI RETURNDATASIZE PUSH1 0x0 DUP1 RETURNDATACOPY RETURNDATASIZE PUSH1 0x0 REVERT JUMPDEST POP PUSH1 0x21 PUSH1 0x0 SWAP1 SLOAD SWAP1 PUSH2 0x100 EXP SWAP1 DIV PUSH20 0xFFFFFFFFFFFFFFFFFFFFFFFFFFFFFFFFFFFFFFFF AND PUSH20 0xFFFFFFFFFFFFFFFFFFFFFFFFFFFFFFFFFFFFFFFF AND PUSH2 0x8FC DUP3 SWAP1 DUP2 ISZERO MUL SWAP1 PUSH1 0x40 MLOAD PUSH1 0x0 PUSH1 0x40 MLOAD DUP1 DUP4 SUB DUP2 DUP6 DUP9 DUP9 CALL SWAP4 POP POP POP POP ISZERO DUP1 ISZERO PUSH2 0x3940 JUMPI RETURNDATASIZE PUSH1 0x0 DUP1 RETURNDATACOPY RETURNDATASIZE PUSH1 0x0 REVERT JUMPDEST POP PUSH2 0x3967 PUSH2 0x3958 PUSH1 0x1 DUP5 PUSH2 0x345D SWAP1 SWAP2 SWAP1 PUSH4 0xFFFFFFFF AND JUMP JUMPDEST DUP3 PUSH2 0x33EF SWAP1 SWAP2 SWAP1 PUSH4 0xFFFFFFFF AND JUMP JUMPDEST SWAP3 POP POP POP SWAP2 SWAP1 POP JUMP JUMPDEST PUSH1 0x0 DUP2 DUP4 LT PUSH2 0x397F JUMPI DUP2 PUSH2 0x3981 JUMP JUMPDEST DUP3 JUMPDEST SWAP1 POP SWAP3 SWAP2 POP POP JUMP JUMPDEST PUSH1 0x0 DUP2 SWAP1 POP SWAP2 SWAP1 POP JUMP JUMPDEST PUSH2 0x399C DUP2 PUSH2 0x3989 JUMP JUMPDEST DUP3 MSTORE POP POP JUMP JUMPDEST PUSH1 0x0 PUSH1 0x20 DUP3 ADD SWAP1 POP PUSH2 0x39B7 PUSH1 0x0 DUP4 ADD DUP5 PUSH2 0x3993 JUMP JUMPDEST SWAP3 SWAP2 POP POP JUMP JUMPDEST PUSH1 0x0 PUSH20 0xFFFFFFFFFFFFFFFFFFFFFFFFFFFFFFFFFFFFFFFF DUP3 AND SWAP1 POP SWAP2 SWAP1 POP JUMP JUMPDEST PUSH1 0x0 PUSH2 0x39E8 DUP3 PUSH2 0x39BD JUMP JUMPDEST SWAP1 POP SWAP2 SWAP1 POP JUMP JUMPDEST PUSH2 0x39F8 DUP2 PUSH2 0x39DD JUMP JUMPDEST DUP3 MSTORE POP POP JUMP JUMPDEST PUSH1 0x0 PUSH1 0x20 DUP3 ADD SWAP1 POP PUSH2 0x3A13 PUSH1 0x0 DUP4 ADD DUP5 PUSH2 0x39EF JUMP JUMPDEST SWAP3 SWAP2 POP POP JUMP JUMPDEST PUSH1 0x0 DUP1 REVERT JUMPDEST PUSH1 0x0 DUP1 REVERT JUMPDEST PUSH1 0x0 DUP2 ISZERO ISZERO SWAP1 POP SWAP2 SWAP1 POP JUMP JUMPDEST PUSH2 0x3A38 DUP2 PUSH2 0x3A23 JUMP JUMPDEST DUP2 EQ PUSH2 0x3A43 JUMPI PUSH1 0x0 DUP1 REVERT JUMPDEST POP JUMP JUMPDEST PUSH1 0x0 DUP2 CALLDATALOAD SWAP1 POP PUSH2 0x3A55 DUP2 PUSH2 0x3A2F JUMP JUMPDEST SWAP3 SWAP2 POP POP JUMP JUMPDEST PUSH1 0x0 PUSH1 0x20 DUP3 DUP5 SUB SLT ISZERO PUSH2 0x3A71 JUMPI PUSH2 0x3A70 PUSH2 0x3A19 JUMP JUMPDEST JUMPDEST PUSH1 0x0 PUSH2 0x3A7F DUP5 DUP3 DUP6 ADD PUSH2 0x3A46 JUMP JUMPDEST SWAP2 POP POP SWAP3 SWAP2 POP POP JUMP JUMPDEST PUSH2 0x3A91 DUP2 PUSH2 0x3989 JUMP JUMPDEST DUP2 EQ PUSH2 0x3A9C JUMPI PUSH1 0x0 DUP1 REVERT JUMPDEST POP JUMP JUMPDEST PUSH1 0x0 DUP2 CALLDATALOAD SWAP1 POP PUSH2 0x3AAE DUP2 PUSH2 0x3A88 JUMP JUMPDEST SWAP3 SWAP2 POP POP JUMP JUMPDEST PUSH1 0x0 PUSH1 0x20 DUP3 DUP5 SUB SLT ISZERO PUSH2 0x3ACA JUMPI PUSH2 0x3AC9 PUSH2 0x3A19 JUMP JUMPDEST JUMPDEST PUSH1 0x0 PUSH2 0x3AD8 DUP5 DUP3 DUP6 ADD PUSH2 0x3A9F JUMP JUMPDEST SWAP2 POP POP SWAP3 SWAP2 POP POP JUMP JUMPDEST PUSH1 0x0 PUSH2 0x3AEC DUP3 PUSH2 0x39BD JUMP JUMPDEST SWAP1 POP SWAP2 SWAP1 POP JUMP JUMPDEST PUSH2 0x3AFC DUP2 PUSH2 0x3AE1 JUMP JUMPDEST DUP2 EQ PUSH2 0x3B07 JUMPI PUSH1 0x0 DUP1 REVERT JUMPDEST POP JUMP JUMPDEST PUSH1 0x0 DUP2 CALLDATALOAD SWAP1 POP PUSH2 0x3B19 DUP2 PUSH2 0x3AF3 JUMP JUMPDEST SWAP3 SWAP2 POP POP JUMP JUMPDEST PUSH1 0x0 PUSH1 0x20 DUP3 DUP5 SUB SLT ISZERO PUSH2 0x3B35 JUMPI PUSH2 0x3B34 PUSH2 0x3A19 JUMP JUMPDEST JUMPDEST PUSH1 0x0 PUSH2 0x3B43 DUP5 DUP3 DUP6 ADD PUSH2 0x3B0A JUMP JUMPDEST SWAP2 POP POP SWAP3 SWAP2 POP POP JUMP JUMPDEST PUSH1 0x0 DUP1 PUSH1 0x0 PUSH1 0x60 DUP5 DUP7 SUB SLT ISZERO PUSH2 0x3B65 JUMPI PUSH2 0x3B64 PUSH2 0x3A19 JUMP JUMPDEST JUMPDEST PUSH1 0x0 PUSH2 0x3B73 DUP7 DUP3 DUP8 ADD PUSH2 0x3A9F JUMP JUMPDEST SWAP4 POP POP PUSH1 0x20 PUSH2 0x3B84 DUP7 DUP3 DUP8 ADD PUSH2 0x3A9F JUMP JUMPDEST SWAP3 POP POP PUSH1 0x40 PUSH2 0x3B95 DUP7 DUP3 DUP8 ADD PUSH2 0x3A9F JUMP JUMPDEST SWAP2 POP POP SWAP3 POP SWAP3 POP SWAP3 JUMP JUMPDEST PUSH1 0x0 DUP1 PUSH1 0x40 DUP4 DUP6 SUB SLT ISZERO PUSH2 0x3BB6 JUMPI PUSH2 0x3BB5 PUSH2 0x3A19 JUMP JUMPDEST JUMPDEST PUSH1 0x0 PUSH2 0x3BC4 DUP6 DUP3 DUP7 ADD PUSH2 0x3A9F JUMP JUMPDEST SWAP3 POP POP PUSH1 0x20 PUSH2 0x3BD5 DUP6 DUP3 DUP7 ADD PUSH2 0x3A9F JUMP JUMPDEST SWAP2 POP POP SWAP3 POP SWAP3 SWAP1 POP JUMP JUMPDEST PUSH2 0x3BE8 DUP2 PUSH2 0x3A23 JUMP JUMPDEST DUP3 MSTORE POP POP JUMP JUMPDEST PUSH1 0x0 PUSH1 0x20 DUP3 ADD SWAP1 POP PUSH2 0x3C03 PUSH1 0x0 DUP4 ADD DUP5 PUSH2 0x3BDF JUMP JUMPDEST SWAP3 SWAP2 POP POP JUMP JUMPDEST PUSH1 0x0 PUSH1 0x80 DUP3 ADD SWAP1 POP PUSH2 0x3C1E PUSH1 0x0 DUP4 ADD DUP8 PUSH2 0x3993 JUMP JUMPDEST PUSH2 0x3C2B PUSH1 0x20 DUP4 ADD DUP7 PUSH2 0x3993 JUMP JUMPDEST PUSH2 0x3C38 PUSH1 0x40 DUP4 ADD DUP6 PUSH2 0x3993 JUMP JUMPDEST PUSH2 0x3C45 PUSH1 0x60 DUP4 ADD DUP5 PUSH2 0x3993 JUMP JUMPDEST SWAP6 SWAP5 POP POP POP POP POP JUMP JUMPDEST PUSH1 0x0 DUP1 PUSH1 0x40 DUP4 DUP6 SUB SLT ISZERO PUSH2 0x3C65 JUMPI PUSH2 0x3C64 PUSH2 0x3A19 JUMP JUMPDEST JUMPDEST PUSH1 0x0 PUSH2 0x3C73 DUP6 DUP3 DUP7 ADD PUSH2 0x3B0A JUMP JUMPDEST SWAP3 POP POP PUSH1 0x20 PUSH2 0x3C84 DUP6 DUP3 DUP7 ADD PUSH2 0x3A9F JUMP JUMPDEST SWAP2 POP POP SWAP3 POP SWAP3 SWAP1 POP JUMP JUMPDEST PUSH2 0x3C97 DUP2 PUSH2 0x3AE1 JUMP JUMPDEST DUP3 MSTORE POP POP JUMP JUMPDEST PUSH1 0x0 PUSH2 0x180 DUP3 ADD SWAP1 POP PUSH2 0x3CB3 PUSH1 0x0 DUP4 ADD DUP16 PUSH2 0x3993 JUMP JUMPDEST PUSH2 0x3CC0 PUSH1 0x20 DUP4 ADD DUP15 PUSH2 0x3993 JUMP JUMPDEST PUSH2 0x3CCD PUSH1 0x40 DUP4 ADD DUP14 PUSH2 0x3993 JUMP JUMPDEST PUSH2 0x3CDA PUSH1 0x60 DUP4 ADD DUP13 PUSH2 0x3993 JUMP JUMPDEST PUSH2 0x3CE7 PUSH1 0x80 DUP4 ADD DUP12 PUSH2 0x3993 JUMP JUMPDEST PUSH2 0x3CF4 PUSH1 0xA0 DUP4 ADD DUP11 PUSH2 0x3C8E JUMP JUMPDEST PUSH2 0x3D01 PUSH1 0xC0 DUP4 ADD DUP10 PUSH2 0x3993 JUMP JUMPDEST PUSH2 0x3D0E PUSH1 0xE0 DUP4 ADD DUP9 PUSH2 0x3993 JUMP JUMPDEST PUSH2 0x3D1C PUSH2 0x100 DUP4 ADD DUP8 PUSH2 0x3993 JUMP JUMPDEST PUSH2 0x3D2A PUSH2 0x120 DUP4 ADD DUP7 PUSH2 0x3993 JUMP JUMPDEST PUSH2 0x3D38 PUSH2 0x140 DUP4 ADD DUP6 PUSH2 0x3993 JUMP JUMPDEST PUSH2 0x3D46 PUSH2 0x160 DUP4 ADD DUP5 PUSH2 0x3993 JUMP JUMPDEST SWAP14 SWAP13 POP POP POP POP POP POP POP POP POP POP POP POP POP JUMP JUMPDEST PUSH1 0x0 PUSH1 0x20 DUP3 ADD SWAP1 POP PUSH2 0x3D6C PUSH1 0x0 DUP4 ADD DUP5 PUSH2 0x3C8E JUMP JUMPDEST SWAP3 SWAP2 POP POP JUMP JUMPDEST PUSH1 0x0 PUSH1 0x40 DUP3 ADD SWAP1 POP PUSH2 0x3D87 PUSH1 0x0 DUP4 ADD DUP6 PUSH2 0x3993 JUMP JUMPDEST PUSH2 0x3D94 PUSH1 0x20 DUP4 ADD DUP5 PUSH2 0x3993 JUMP JUMPDEST SWAP4 SWAP3 POP POP POP JUMP JUMPDEST PUSH1 0x0 DUP1 PUSH1 0x40 DUP4 DUP6 SUB SLT ISZERO PUSH2 0x3DB2 JUMPI PUSH2 0x3DB1 PUSH2 0x3A19 JUMP JUMPDEST JUMPDEST PUSH1 0x0 PUSH2 0x3DC0 DUP6 DUP3 DUP7 ADD PUSH2 0x3B0A JUMP JUMPDEST SWAP3 POP POP PUSH1 0x20 PUSH2 0x3DD1 DUP6 DUP3 DUP7 ADD PUSH2 0x3A46 JUMP JUMPDEST SWAP2 POP POP SWAP3 POP SWAP3 SWAP1 POP JUMP JUMPDEST PUSH1 0x0 DUP1 REVERT JUMPDEST PUSH1 0x0 DUP1 REVERT JUMPDEST PUSH1 0x0 DUP1 REVERT JUMPDEST PUSH1 0x0 DUP1 DUP4 PUSH1 0x1F DUP5 ADD SLT PUSH2 0x3E00 JUMPI PUSH2 0x3DFF PUSH2 0x3DDB JUMP JUMPDEST JUMPDEST DUP3 CALLDATALOAD SWAP1 POP PUSH8 0xFFFFFFFFFFFFFFFF DUP2 GT ISZERO PUSH2 0x3E1D JUMPI PUSH2 0x3E1C PUSH2 0x3DE0 JUMP JUMPDEST JUMPDEST PUSH1 0x20 DUP4 ADD SWAP2 POP DUP4 PUSH1 0x20 DUP3 MUL DUP4 ADD GT ISZERO PUSH2 0x3E39 JUMPI PUSH2 0x3E38 PUSH2 0x3DE5 JUMP JUMPDEST JUMPDEST SWAP3 POP SWAP3 SWAP1 POP JUMP JUMPDEST PUSH1 0x0 DUP1 PUSH1 0x0 PUSH1 0x40 DUP5 DUP7 SUB SLT ISZERO PUSH2 0x3E59 JUMPI PUSH2 0x3E58 PUSH2 0x3A19 JUMP JUMPDEST JUMPDEST PUSH1 0x0 DUP5 ADD CALLDATALOAD PUSH8 0xFFFFFFFFFFFFFFFF DUP2 GT ISZERO PUSH2 0x3E77 JUMPI PUSH2 0x3E76 PUSH2 0x3A1E JUMP JUMPDEST JUMPDEST PUSH2 0x3E83 DUP7 DUP3 DUP8 ADD PUSH2 0x3DEA JUMP JUMPDEST SWAP4 POP SWAP4 POP POP PUSH1 0x20 PUSH2 0x3E96 DUP7 DUP3 DUP8 ADD PUSH2 0x3A46 JUMP JUMPDEST SWAP2 POP POP SWAP3 POP SWAP3 POP SWAP3 JUMP JUMPDEST PUSH1 0x0 DUP3 DUP3 MSTORE PUSH1 0x20 DUP3 ADD SWAP1 POP SWAP3 SWAP2 POP POP JUMP JUMPDEST PUSH32 0x436F6E7472616374206E6F742079657420537461727465642E00000000000000 PUSH1 0x0 DUP3 ADD MSTORE POP JUMP JUMPDEST PUSH1 0x0 PUSH2 0x3EE7 PUSH1 0x19 DUP4 PUSH2 0x3EA0 JUMP JUMPDEST SWAP2 POP PUSH2 0x3EF2 DUP3 PUSH2 0x3EB1 JUMP JUMPDEST PUSH1 0x20 DUP3 ADD SWAP1 POP SWAP2 SWAP1 POP JUMP JUMPDEST PUSH1 0x0 PUSH1 0x20 DUP3 ADD SWAP1 POP DUP2 DUP2 SUB PUSH1 0x0 DUP4 ADD MSTORE PUSH2 0x3F16 DUP2 PUSH2 0x3EDA JUMP JUMPDEST SWAP1 POP SWAP2 SWAP1 POP JUMP JUMPDEST PUSH32 0x41646D696E20757365206F6E6C792E0000000000000000000000000000000000 PUSH1 0x0 DUP3 ADD MSTORE POP JUMP JUMPDEST PUSH1 0x0 PUSH2 0x3F53 PUSH1 0xF DUP4 PUSH2 0x3EA0 JUMP JUMPDEST SWAP2 POP PUSH2 0x3F5E DUP3 PUSH2 0x3F1D JUMP JUMPDEST PUSH1 0x20 DUP3 ADD SWAP1 POP SWAP2 SWAP1 POP JUMP JUMPDEST PUSH1 0x0 PUSH1 0x20 DUP3 ADD SWAP1 POP DUP2 DUP2 SUB PUSH1 0x0 DUP4 ADD MSTORE PUSH2 0x3F82 DUP2 PUSH2 0x3F46 JUMP JUMPDEST SWAP1 POP SWAP2 SWAP1 POP JUMP JUMPDEST PUSH32 0x41646D696E20757365206F6E6C79000000000000000000000000000000000000 PUSH1 0x0 DUP3 ADD MSTORE POP JUMP JUMPDEST PUSH1 0x0 PUSH2 0x3FBF PUSH1 0xE DUP4 PUSH2 0x3EA0 JUMP JUMPDEST SWAP2 POP PUSH2 0x3FCA DUP3 PUSH2 0x3F89 JUMP JUMPDEST PUSH1 0x20 DUP3 ADD SWAP1 POP SWAP2 SWAP1 POP JUMP JUMPDEST PUSH1 0x0 PUSH1 0x20 DUP3 ADD SWAP1 POP DUP2 DUP2 SUB PUSH1 0x0 DUP4 ADD MSTORE PUSH2 0x3FEE DUP2 PUSH2 0x3FB2 JUMP JUMPDEST SWAP1 POP SWAP2 SWAP1 POP JUMP JUMPDEST PUSH32 0x4E487B7100000000000000000000000000000000000000000000000000000000 PUSH1 0x0 MSTORE PUSH1 0x11 PUSH1 0x4 MSTORE PUSH1 0x24 PUSH1 0x0 REVERT JUMPDEST PUSH1 0x0 PUSH2 0x402F DUP3 PUSH2 0x3989 JUMP JUMPDEST SWAP2 POP PUSH2 0x403A DUP4 PUSH2 0x3989 JUMP JUMPDEST SWAP3 POP DUP2 PUSH32 0xFFFFFFFFFFFFFFFFFFFFFFFFFFFFFFFFFFFFFFFFFFFFFFFFFFFFFFFFFFFFFFFF DIV DUP4 GT DUP3 ISZERO ISZERO AND ISZERO PUSH2 0x4073 JUMPI PUSH2 0x4072 PUSH2 0x3FF5 JUMP JUMPDEST JUMPDEST DUP3 DUP3 MUL SWAP1 POP SWAP3 SWAP2 POP POP JUMP JUMPDEST PUSH32 0x4D696E696E756D20696E766573746D656E74206E6F74206D65742E0000000000 PUSH1 0x0 DUP3 ADD MSTORE POP JUMP JUMPDEST PUSH1 0x0 PUSH2 0x40B4 PUSH1 0x1B DUP4 PUSH2 0x3EA0 JUMP JUMPDEST SWAP2 POP PUSH2 0x40BF DUP3 PUSH2 0x407E JUMP JUMPDEST PUSH1 0x20 DUP3 ADD SWAP1 POP SWAP2 SWAP1 POP JUMP JUMPDEST PUSH1 0x0 PUSH1 0x20 DUP3 ADD SWAP1 POP DUP2 DUP2 SUB PUSH1 0x0 DUP4 ADD MSTORE PUSH2 0x40E3 DUP2 PUSH2 0x40A7 JUMP JUMPDEST SWAP1 POP SWAP2 SWAP1 POP JUMP JUMPDEST PUSH32 0x4D6178206465706F736974206C696D697420726561636865642E000000000000 PUSH1 0x0 DUP3 ADD MSTORE POP JUMP JUMPDEST PUSH1 0x0 PUSH2 0x4120 PUSH1 0x1A DUP4 PUSH2 0x3EA0 JUMP JUMPDEST SWAP2 POP PUSH2 0x412B DUP3 PUSH2 0x40EA JUMP JUMPDEST PUSH1 0x20 DUP3 ADD SWAP1 POP SWAP2 SWAP1 POP JUMP JUMPDEST PUSH1 0x0 PUSH1 0x20 DUP3 ADD SWAP1 POP DUP2 DUP2 SUB PUSH1 0x0 DUP4 ADD MSTORE PUSH2 0x414F DUP2 PUSH2 0x4113 JUMP JUMPDEST SWAP1 POP SWAP2 SWAP1 POP JUMP JUMPDEST PUSH32 0x4164647265737320697320626C61636B6C69737465642E000000000000000000 PUSH1 0x0 DUP3 ADD MSTORE POP JUMP JUMPDEST PUSH1 0x0 PUSH2 0x418C PUSH1 0x17 DUP4 PUSH2 0x3EA0 JUMP JUMPDEST SWAP2 POP PUSH2 0x4197 DUP3 PUSH2 0x4156 JUMP JUMPDEST PUSH1 0x20 DUP3 ADD SWAP1 POP SWAP2 SWAP1 POP JUMP JUMPDEST PUSH1 0x0 PUSH1 0x20 DUP3 ADD SWAP1 POP DUP2 DUP2 SUB PUSH1 0x0 DUP4 ADD MSTORE PUSH2 0x41BB DUP2 PUSH2 0x417F JUMP JUMPDEST SWAP1 POP SWAP2 SWAP1 POP JUMP JUMPDEST PUSH32 0x436F6E7472616374206E6F742079657420737461727465642E00000000000000 PUSH1 0x0 DUP3 ADD MSTORE POP JUMP JUMPDEST PUSH1 0x0 PUSH2 0x41F8 PUSH1 0x19 DUP4 PUSH2 0x3EA0 JUMP JUMPDEST SWAP2 POP PUSH2 0x4203 DUP3 PUSH2 0x41C2 JUMP JUMPDEST PUSH1 0x20 DUP3 ADD SWAP1 POP SWAP2 SWAP1 POP JUMP JUMPDEST PUSH1 0x0 PUSH1 0x20 DUP3 ADD SWAP1 POP DUP2 DUP2 SUB PUSH1 0x0 DUP4 ADD MSTORE PUSH2 0x4227 DUP2 PUSH2 0x41EB JUMP JUMPDEST SWAP1 POP SWAP2 SWAP1 POP JUMP JUMPDEST PUSH32 0x4E487B7100000000000000000000000000000000000000000000000000000000 PUSH1 0x0 MSTORE PUSH1 0x32 PUSH1 0x4 MSTORE PUSH1 0x24 PUSH1 0x0 REVERT JUMPDEST PUSH1 0x0 PUSH2 0x4268 DUP3 PUSH2 0x3989 JUMP JUMPDEST SWAP2 POP PUSH32 0xFFFFFFFFFFFFFFFFFFFFFFFFFFFFFFFFFFFFFFFFFFFFFFFFFFFFFFFFFFFFFFFF DUP3 EQ ISZERO PUSH2 0x429B JUMPI PUSH2 0x429A PUSH2 0x3FF5 JUMP JUMPDEST JUMPDEST PUSH1 0x1 DUP3 ADD SWAP1 POP SWAP2 SWAP1 POP JUMP JUMPDEST PUSH1 0x0 PUSH2 0x42B1 DUP3 PUSH2 0x3989 JUMP JUMPDEST SWAP2 POP PUSH2 0x42BC DUP4 PUSH2 0x3989 JUMP JUMPDEST SWAP3 POP DUP3 PUSH32 0xFFFFFFFFFFFFFFFFFFFFFFFFFFFFFFFFFFFFFFFFFFFFFFFFFFFFFFFFFFFFFFFF SUB DUP3 GT ISZERO PUSH2 0x42F1 JUMPI PUSH2 0x42F0 PUSH2 0x3FF5 JUMP JUMPDEST JUMPDEST DUP3 DUP3 ADD SWAP1 POP SWAP3 SWAP2 POP POP JUMP JUMPDEST PUSH32 0x4E487B7100000000000000000000000000000000000000000000000000000000 PUSH1 0x0 MSTORE PUSH1 0x1 PUSH1 0x4 MSTORE PUSH1 0x24 PUSH1 0x0 REVERT JUMPDEST PUSH1 0x0 PUSH2 0x4336 DUP3 PUSH2 0x3989 JUMP JUMPDEST SWAP2 POP PUSH2 0x4341 DUP4 PUSH2 0x3989 JUMP JUMPDEST SWAP3 POP DUP3 DUP3 LT ISZERO PUSH2 0x4354 JUMPI PUSH2 0x4353 PUSH2 0x3FF5 JUMP JUMPDEST JUMPDEST DUP3 DUP3 SUB SWAP1 POP SWAP3 SWAP2 POP POP JUMP JUMPDEST PUSH32 0x4E487B7100000000000000000000000000000000000000000000000000000000 PUSH1 0x0 MSTORE PUSH1 0x12 PUSH1 0x4 MSTORE PUSH1 0x24 PUSH1 0x0 REVERT JUMPDEST PUSH1 0x0 PUSH2 0x4399 DUP3 PUSH2 0x3989 JUMP JUMPDEST SWAP2 POP PUSH2 0x43A4 DUP4 PUSH2 0x3989 JUMP JUMPDEST SWAP3 POP DUP3 PUSH2 0x43B4 JUMPI PUSH2 0x43B3 PUSH2 0x435F JUMP JUMPDEST JUMPDEST DUP3 DUP3 DIV SWAP1 POP SWAP3 SWAP2 POP POP JUMP JUMPDEST PUSH32 0x4E487B7100000000000000000000000000000000000000000000000000000000 PUSH1 0x0 MSTORE PUSH1 0x41 PUSH1 0x4 MSTORE PUSH1 0x24 PUSH1 0x0 REVERT INVALID LOG2 PUSH5 0x6970667358 0x22 SLT KECCAK256 ADDRESS SWAP11 SWAP7 0xAF 0xF6 PUSH32 0x264A744C482BF96FD9A8D1F50FFD5A4397D30AAA838F18CE391D64736F6C6343 STOP ADDMOD MULMOD STOP CALLER "
				},
				"gasEstimates": {
					"creation": {
						"codeDepositCost": "3488800",
						"executionCost": "infinite",
						"totalCost": "infinite"
					},
					"external": {
						"BONUS_COMPOUND_STEP(uint256)": "infinite",
						"BONUS_DAILY_COMPOUND(uint256)": "24861",
						"BONUS_DAILY_COMPOUND_BONUS_MAX_TIMES(uint256)": "24783",
						"Blacklisted(address)": "2999",
						"CHANGE_OWNERSHIP(address)": "26982",
						"COMPOUND_BONUS()": "2496",
						"COMPOUND_BONUS_MAX_TIMES()": "2540",
						"COMPOUND_FOR_NO_TAX_WITHDRAWAL()": "2561",
						"COMPOUND_STEP()": "2562",
						"CUTOFF_STEP()": "2498",
						"EGGS_TO_HIRE_1MINERS()": "2564",
						"MARKET_EGGS_DIVISOR()": "2519",
						"MIN_INVEST_LIMIT()": "2584",
						"MKT()": "2541",
						"PERCENTS_DIVIDER()": "2499",
						"PRC_EGGS_TO_HIRE_1MINERS(uint256)": "24816",
						"PRC_MARKET_EGGS_DIVISOR(uint256)": "24871",
						"PRC_MKT(uint256)": "24873",
						"PRC_REFERRAL(uint256)": "24906",
						"PRC_TAX(uint256)": "24784",
						"REFERRAL()": "2518",
						"SET_COMPOUND_FOR_NO_TAX_WITHDRAWAL(uint256)": "24804",
						"SET_CUTOFF_STEP(uint256)": "infinite",
						"SET_INVEST_MIN(uint256)": "24825",
						"SET_WALLET_DEPOSIT_LIMIT(uint256)": "infinite",
						"SET_WITHDRAWAL_TAX(uint256)": "24850",
						"SET_WITHDRAW_COOLDOWN(uint256)": "infinite",
						"TAX()": "2496",
						"WALLET_DEPOSIT_LIMIT()": "2520",
						"WITHDRAWAL_TAX()": "2521",
						"WITHDRAW_COOLDOWN()": "2541",
						"blackListWallet(address,bool)": "27272",
						"blackMultipleWallets(address[],bool)": "infinite",
						"blacklistActive()": "2589",
						"calculateEggBuy(uint256,uint256)": "infinite",
						"calculateEggBuySimple(uint256)": "infinite",
						"calculateEggSell(uint256)": "infinite",
						"calculateEggSellForYield(uint256,uint256)": "infinite",
						"calculateTrade(uint256,uint256,uint256)": "infinite",
						"checkIfBlacklisted(address)": "5120",
						"contractStarted()": "2627",
						"dev1()": "2625",
						"dev2()": "2626",
						"dev3()": "2627",
						"firstDeposit(address)": "2969",
						"fundContract()": "210",
						"getAvailableEarnings(address)": "infinite",
						"getBalance()": "408",
						"getDailyCompoundBonus(address,uint256)": "infinite",
						"getEggsSinceLastHatch(address)": "infinite",
						"getEggsYield(uint256)": "infinite",
						"getMyEggs()": "infinite",
						"getMyMiners()": "2668",
						"getSiteInfo()": "infinite",
						"getTimeStamp()": "469",
						"getUserInfo(address)": "infinite",
						"hireFarmers(address)": "infinite",
						"hireMoreFarmers(bool)": "infinite",
						"marketEggs()": "2563",
						"mkt()": "2605",
						"owner()": "2582",
						"prtnr1()": "2628",
						"prtnr2()": "2670",
						"referralEarning(address)": "2883",
						"sellCrops()": "infinite",
						"setblacklistActive(bool)": "26988",
						"startFarm(address)": "infinite",
						"totalCompound()": "2564",
						"totalDeposits()": "2542",
						"totalRefBonus()": "2518",
						"totalStaked()": "2563",
						"totalWithdrawn()": "2497",
						"users(address)": "infinite"
					},
					"internal": {
						"isContract(address)": "infinite",
						"min(uint256,uint256)": "64",
						"payFees(uint256)": "infinite",
						"sendRewardToReferrals(address,uint256)": "infinite"
					}
				},
				"methodIdentifiers": {
					"BONUS_COMPOUND_STEP(uint256)": "959c95b3",
					"BONUS_DAILY_COMPOUND(uint256)": "6f969d28",
					"BONUS_DAILY_COMPOUND_BONUS_MAX_TIMES(uint256)": "9b9cb69f",
					"Blacklisted(address)": "ffa4e618",
					"CHANGE_OWNERSHIP(address)": "2b039d0e",
					"COMPOUND_BONUS()": "d7206d5d",
					"COMPOUND_BONUS_MAX_TIMES()": "c688f0fb",
					"COMPOUND_FOR_NO_TAX_WITHDRAWAL()": "f6f62886",
					"COMPOUND_STEP()": "752a2628",
					"CUTOFF_STEP()": "3578584f",
					"EGGS_TO_HIRE_1MINERS()": "195a7339",
					"MARKET_EGGS_DIVISOR()": "59eec895",
					"MIN_INVEST_LIMIT()": "cd329fc3",
					"MKT()": "2bc82f7f",
					"PERCENTS_DIVIDER()": "01c234a8",
					"PRC_EGGS_TO_HIRE_1MINERS(uint256)": "e6dc9558",
					"PRC_MARKET_EGGS_DIVISOR(uint256)": "7a62ead7",
					"PRC_MKT(uint256)": "1a7b8d4f",
					"PRC_REFERRAL(uint256)": "570c2979",
					"PRC_TAX(uint256)": "298ea310",
					"REFERRAL()": "c63568c7",
					"SET_COMPOUND_FOR_NO_TAX_WITHDRAWAL(uint256)": "e7576943",
					"SET_CUTOFF_STEP(uint256)": "7c8e4b4c",
					"SET_INVEST_MIN(uint256)": "45f98c29",
					"SET_WALLET_DEPOSIT_LIMIT(uint256)": "7ee28e3c",
					"SET_WITHDRAWAL_TAX(uint256)": "bfa9f304",
					"SET_WITHDRAW_COOLDOWN(uint256)": "45a6a6e0",
					"TAX()": "68f58b03",
					"WALLET_DEPOSIT_LIMIT()": "1848b8dc",
					"WITHDRAWAL_TAX()": "0420c98e",
					"WITHDRAW_COOLDOWN()": "950d91e9",
					"blackListWallet(address,bool)": "d989b4b3",
					"blackMultipleWallets(address[],bool)": "eb271268",
					"blacklistActive()": "b6e6fcf6",
					"calculateEggBuy(uint256,uint256)": "26fd8422",
					"calculateEggBuySimple(uint256)": "7e56fde5",
					"calculateEggSell(uint256)": "8e316327",
					"calculateEggSellForYield(uint256,uint256)": "cc3e9c78",
					"calculateTrade(uint256,uint256,uint256)": "229824c4",
					"checkIfBlacklisted(address)": "c3251b40",
					"contractStarted()": "333f57b3",
					"dev1()": "a327c45d",
					"dev2()": "8013f3a7",
					"dev3()": "2362ce89",
					"firstDeposit(address)": "ac4b3c04",
					"fundContract()": "bd097e21",
					"getAvailableEarnings(address)": "64c03a5e",
					"getBalance()": "12065fe0",
					"getDailyCompoundBonus(address,uint256)": "50637dbd",
					"getEggsSinceLastHatch(address)": "d7c8843b",
					"getEggsYield(uint256)": "bdd1ca27",
					"getMyEggs()": "43ce7422",
					"getMyMiners()": "0a76e5ed",
					"getSiteInfo()": "4ce87053",
					"getTimeStamp()": "da235b22",
					"getUserInfo(address)": "6386c1c7",
					"hireFarmers(address)": "50cf1c7a",
					"hireMoreFarmers(bool)": "18c819d8",
					"marketEggs()": "2e9392bb",
					"mkt()": "7cc5b1e6",
					"owner()": "8da5cb5b",
					"prtnr1()": "07aeb7f0",
					"prtnr2()": "8a315efd",
					"referralEarning(address)": "1bd8225d",
					"sellCrops()": "57386225",
					"setblacklistActive(bool)": "9e9300a5",
					"startFarm(address)": "da5d4cc5",
					"totalCompound()": "7db07c9d",
					"totalDeposits()": "7d882097",
					"totalRefBonus()": "69b11dd5",
					"totalStaked()": "817b1cd2",
					"totalWithdrawn()": "4b319713",
					"users(address)": "a87430ba"
				}
			},
			"storageLayout": {
				"storage": [
					{
						"astId": 8,
						"contract": "contracts/cropsFarmer.sol:BNB_V3",
						"label": "EGGS_TO_HIRE_1MINERS",
						"offset": 0,
						"slot": "0",
						"type": "t_uint256"
					},
					{
						"astId": 11,
						"contract": "contracts/cropsFarmer.sol:BNB_V3",
						"label": "REFERRAL",
						"offset": 0,
						"slot": "1",
						"type": "t_uint256"
					},
					{
						"astId": 14,
						"contract": "contracts/cropsFarmer.sol:BNB_V3",
						"label": "PERCENTS_DIVIDER",
						"offset": 0,
						"slot": "2",
						"type": "t_uint256"
					},
					{
						"astId": 17,
						"contract": "contracts/cropsFarmer.sol:BNB_V3",
						"label": "TAX",
						"offset": 0,
						"slot": "3",
						"type": "t_uint256"
					},
					{
						"astId": 20,
						"contract": "contracts/cropsFarmer.sol:BNB_V3",
						"label": "MKT",
						"offset": 0,
						"slot": "4",
						"type": "t_uint256"
					},
					{
						"astId": 23,
						"contract": "contracts/cropsFarmer.sol:BNB_V3",
						"label": "MARKET_EGGS_DIVISOR",
						"offset": 0,
						"slot": "5",
						"type": "t_uint256"
					},
					{
						"astId": 26,
						"contract": "contracts/cropsFarmer.sol:BNB_V3",
						"label": "MIN_INVEST_LIMIT",
						"offset": 0,
						"slot": "6",
						"type": "t_uint256"
					},
					{
						"astId": 32,
						"contract": "contracts/cropsFarmer.sol:BNB_V3",
						"label": "WALLET_DEPOSIT_LIMIT",
						"offset": 0,
						"slot": "7",
						"type": "t_uint256"
					},
					{
						"astId": 36,
						"contract": "contracts/cropsFarmer.sol:BNB_V3",
						"label": "COMPOUND_BONUS",
						"offset": 0,
						"slot": "8",
						"type": "t_uint256"
					},
					{
						"astId": 39,
						"contract": "contracts/cropsFarmer.sol:BNB_V3",
						"label": "COMPOUND_BONUS_MAX_TIMES",
						"offset": 0,
						"slot": "9",
						"type": "t_uint256"
					},
					{
						"astId": 44,
						"contract": "contracts/cropsFarmer.sol:BNB_V3",
						"label": "COMPOUND_STEP",
						"offset": 0,
						"slot": "10",
						"type": "t_uint256"
					},
					{
						"astId": 47,
						"contract": "contracts/cropsFarmer.sol:BNB_V3",
						"label": "WITHDRAWAL_TAX",
						"offset": 0,
						"slot": "11",
						"type": "t_uint256"
					},
					{
						"astId": 50,
						"contract": "contracts/cropsFarmer.sol:BNB_V3",
						"label": "COMPOUND_FOR_NO_TAX_WITHDRAWAL",
						"offset": 0,
						"slot": "12",
						"type": "t_uint256"
					},
					{
						"astId": 52,
						"contract": "contracts/cropsFarmer.sol:BNB_V3",
						"label": "totalStaked",
						"offset": 0,
						"slot": "13",
						"type": "t_uint256"
					},
					{
						"astId": 54,
						"contract": "contracts/cropsFarmer.sol:BNB_V3",
						"label": "totalDeposits",
						"offset": 0,
						"slot": "14",
						"type": "t_uint256"
					},
					{
						"astId": 56,
						"contract": "contracts/cropsFarmer.sol:BNB_V3",
						"label": "totalCompound",
						"offset": 0,
						"slot": "15",
						"type": "t_uint256"
					},
					{
						"astId": 58,
						"contract": "contracts/cropsFarmer.sol:BNB_V3",
						"label": "totalRefBonus",
						"offset": 0,
						"slot": "16",
						"type": "t_uint256"
					},
					{
						"astId": 60,
						"contract": "contracts/cropsFarmer.sol:BNB_V3",
						"label": "totalWithdrawn",
						"offset": 0,
						"slot": "17",
						"type": "t_uint256"
					},
					{
						"astId": 62,
						"contract": "contracts/cropsFarmer.sol:BNB_V3",
						"label": "marketEggs",
						"offset": 0,
						"slot": "18",
						"type": "t_uint256"
					},
					{
						"astId": 65,
						"contract": "contracts/cropsFarmer.sol:BNB_V3",
						"label": "PSN",
						"offset": 0,
						"slot": "19",
						"type": "t_uint256"
					},
					{
						"astId": 68,
						"contract": "contracts/cropsFarmer.sol:BNB_V3",
						"label": "PSNH",
						"offset": 0,
						"slot": "20",
						"type": "t_uint256"
					},
					{
						"astId": 70,
						"contract": "contracts/cropsFarmer.sol:BNB_V3",
						"label": "contractStarted",
						"offset": 0,
						"slot": "21",
						"type": "t_bool"
					},
					{
						"astId": 73,
						"contract": "contracts/cropsFarmer.sol:BNB_V3",
						"label": "blacklistActive",
						"offset": 1,
						"slot": "21",
						"type": "t_bool"
					},
					{
						"astId": 77,
						"contract": "contracts/cropsFarmer.sol:BNB_V3",
						"label": "Blacklisted",
						"offset": 0,
						"slot": "22",
						"type": "t_mapping(t_address,t_bool)"
					},
					{
						"astId": 81,
						"contract": "contracts/cropsFarmer.sol:BNB_V3",
						"label": "firstDeposit",
						"offset": 0,
						"slot": "23",
						"type": "t_mapping(t_address,t_uint256)"
					},
					{
						"astId": 85,
						"contract": "contracts/cropsFarmer.sol:BNB_V3",
						"label": "referralEarning",
						"offset": 0,
						"slot": "24",
						"type": "t_mapping(t_address,t_uint256)"
					},
					{
						"astId": 92,
						"contract": "contracts/cropsFarmer.sol:BNB_V3",
						"label": "CUTOFF_STEP",
						"offset": 0,
						"slot": "25",
						"type": "t_uint256"
					},
					{
						"astId": 99,
						"contract": "contracts/cropsFarmer.sol:BNB_V3",
						"label": "WITHDRAW_COOLDOWN",
						"offset": 0,
						"slot": "26",
						"type": "t_uint256"
					},
					{
						"astId": 101,
						"contract": "contracts/cropsFarmer.sol:BNB_V3",
						"label": "owner",
						"offset": 0,
						"slot": "27",
						"type": "t_address"
					},
					{
						"astId": 103,
						"contract": "contracts/cropsFarmer.sol:BNB_V3",
						"label": "dev1",
						"offset": 0,
						"slot": "28",
						"type": "t_address_payable"
					},
					{
						"astId": 105,
						"contract": "contracts/cropsFarmer.sol:BNB_V3",
						"label": "dev2",
						"offset": 0,
						"slot": "29",
						"type": "t_address_payable"
					},
					{
						"astId": 107,
						"contract": "contracts/cropsFarmer.sol:BNB_V3",
						"label": "dev3",
						"offset": 0,
						"slot": "30",
						"type": "t_address_payable"
					},
					{
						"astId": 109,
						"contract": "contracts/cropsFarmer.sol:BNB_V3",
						"label": "prtnr1",
						"offset": 0,
						"slot": "31",
						"type": "t_address_payable"
					},
					{
						"astId": 111,
						"contract": "contracts/cropsFarmer.sol:BNB_V3",
						"label": "prtnr2",
						"offset": 0,
						"slot": "32",
						"type": "t_address_payable"
					},
					{
						"astId": 113,
						"contract": "contracts/cropsFarmer.sol:BNB_V3",
						"label": "mkt",
						"offset": 0,
						"slot": "33",
						"type": "t_address_payable"
					},
					{
						"astId": 143,
						"contract": "contracts/cropsFarmer.sol:BNB_V3",
						"label": "users",
						"offset": 0,
						"slot": "34",
						"type": "t_mapping(t_address,t_struct(User)138_storage)"
					}
				],
				"types": {
					"t_address": {
						"encoding": "inplace",
						"label": "address",
						"numberOfBytes": "20"
					},
					"t_address_payable": {
						"encoding": "inplace",
						"label": "address payable",
						"numberOfBytes": "20"
					},
					"t_bool": {
						"encoding": "inplace",
						"label": "bool",
						"numberOfBytes": "1"
					},
					"t_mapping(t_address,t_bool)": {
						"encoding": "mapping",
						"key": "t_address",
						"label": "mapping(address => bool)",
						"numberOfBytes": "32",
						"value": "t_bool"
					},
					"t_mapping(t_address,t_struct(User)138_storage)": {
						"encoding": "mapping",
						"key": "t_address",
						"label": "mapping(address => struct BNB_V3.User)",
						"numberOfBytes": "32",
						"value": "t_struct(User)138_storage"
					},
					"t_mapping(t_address,t_uint256)": {
						"encoding": "mapping",
						"key": "t_address",
						"label": "mapping(address => uint256)",
						"numberOfBytes": "32",
						"value": "t_uint256"
					},
					"t_struct(User)138_storage": {
						"encoding": "inplace",
						"label": "struct BNB_V3.User",
						"members": [
							{
								"astId": 115,
								"contract": "contracts/cropsFarmer.sol:BNB_V3",
								"label": "initialDeposit",
								"offset": 0,
								"slot": "0",
								"type": "t_uint256"
							},
							{
								"astId": 117,
								"contract": "contracts/cropsFarmer.sol:BNB_V3",
								"label": "userDeposit",
								"offset": 0,
								"slot": "1",
								"type": "t_uint256"
							},
							{
								"astId": 119,
								"contract": "contracts/cropsFarmer.sol:BNB_V3",
								"label": "miners",
								"offset": 0,
								"slot": "2",
								"type": "t_uint256"
							},
							{
								"astId": 121,
								"contract": "contracts/cropsFarmer.sol:BNB_V3",
								"label": "claimedEggs",
								"offset": 0,
								"slot": "3",
								"type": "t_uint256"
							},
							{
								"astId": 123,
								"contract": "contracts/cropsFarmer.sol:BNB_V3",
								"label": "lastHatch",
								"offset": 0,
								"slot": "4",
								"type": "t_uint256"
							},
							{
								"astId": 125,
								"contract": "contracts/cropsFarmer.sol:BNB_V3",
								"label": "referrer",
								"offset": 0,
								"slot": "5",
								"type": "t_address"
							},
							{
								"astId": 127,
								"contract": "contracts/cropsFarmer.sol:BNB_V3",
								"label": "referralsCount",
								"offset": 0,
								"slot": "6",
								"type": "t_uint256"
							},
							{
								"astId": 129,
								"contract": "contracts/cropsFarmer.sol:BNB_V3",
								"label": "referralEggRewards",
								"offset": 0,
								"slot": "7",
								"type": "t_uint256"
							},
							{
								"astId": 131,
								"contract": "contracts/cropsFarmer.sol:BNB_V3",
								"label": "totalWithdrawn",
								"offset": 0,
								"slot": "8",
								"type": "t_uint256"
							},
							{
								"astId": 133,
								"contract": "contracts/cropsFarmer.sol:BNB_V3",
								"label": "dailyCompoundBonus",
								"offset": 0,
								"slot": "9",
								"type": "t_uint256"
							},
							{
								"astId": 135,
								"contract": "contracts/cropsFarmer.sol:BNB_V3",
								"label": "farmerCompoundCount",
								"offset": 0,
								"slot": "10",
								"type": "t_uint256"
							},
							{
								"astId": 137,
								"contract": "contracts/cropsFarmer.sol:BNB_V3",
								"label": "lastWithdrawTime",
								"offset": 0,
								"slot": "11",
								"type": "t_uint256"
							}
						],
						"numberOfBytes": "384"
					},
					"t_uint256": {
						"encoding": "inplace",
						"label": "uint256",
						"numberOfBytes": "32"
					}
				}
			},
			"userdoc": {
				"kind": "user",
				"methods": {
					"COMPOUND_BONUS()": {
						"notice": "25 BNB  *"
					},
					"EGGS_TO_HIRE_1MINERS()": {
						"notice": "base parameters *"
					},
					"PRC_EGGS_TO_HIRE_1MINERS(uint256)": {
						"notice": "percentage setters *"
					},
					"WALLET_DEPOSIT_LIMIT()": {
						"notice": "0.03 BNB  *"
					},
					"getEggsYield(uint256)": {
						"notice": "How many miners and eggs per day user will recieve based on BNB deposit *"
					},
					"hireFarmers(address)": {
						"notice": "transfer amount of BNB *"
					}
				},
				"version": 1
			}
		}
	}
}