{
	"contracts/cropsFarmer.sol": {
		"BNB_V3": {
			"abi": [
				{
					"inputs": [
						{
							"internalType": "address payable",
							"name": "_dev1",
							"type": "address"
						},
						{
							"internalType": "address payable",
							"name": "_mkt",
							"type": "address"
						}
					],
					"stateMutability": "nonpayable",
					"type": "constructor"
				},
				{
					"inputs": [
						{
							"internalType": "uint256",
							"name": "value",
							"type": "uint256"
						}
					],
					"name": "BONUS_COMPOUND_STEP",
					"outputs": [],
					"stateMutability": "nonpayable",
					"type": "function"
				},
				{
					"inputs": [
						{
							"internalType": "uint256",
							"name": "value",
							"type": "uint256"
						}
					],
					"name": "BONUS_DAILY_COMPOUND",
					"outputs": [],
					"stateMutability": "nonpayable",
					"type": "function"
				},
				{
					"inputs": [
						{
							"internalType": "uint256",
							"name": "value",
							"type": "uint256"
						}
					],
					"name": "BONUS_DAILY_COMPOUND_BONUS_MAX_TIMES",
					"outputs": [],
					"stateMutability": "nonpayable",
					"type": "function"
				},
				{
					"inputs": [
						{
							"internalType": "address",
							"name": "",
							"type": "address"
						}
					],
					"name": "Blacklisted",
					"outputs": [
						{
							"internalType": "bool",
							"name": "",
							"type": "bool"
						}
					],
					"stateMutability": "view",
					"type": "function"
				},
				{
					"inputs": [
						{
							"internalType": "address",
							"name": "value",
							"type": "address"
						}
					],
					"name": "CHANGE_OWNERSHIP",
					"outputs": [],
					"stateMutability": "nonpayable",
					"type": "function"
				},
				{
					"inputs": [],
					"name": "COMPOUND_BONUS",
					"outputs": [
						{
							"internalType": "uint256",
							"name": "",
							"type": "uint256"
						}
					],
					"stateMutability": "view",
					"type": "function"
				},
				{
					"inputs": [],
					"name": "COMPOUND_BONUS_MAX_TIMES",
					"outputs": [
						{
							"internalType": "uint256",
							"name": "",
							"type": "uint256"
						}
					],
					"stateMutability": "view",
					"type": "function"
				},
				{
					"inputs": [],
					"name": "COMPOUND_FOR_NO_TAX_WITHDRAWAL",
					"outputs": [
						{
							"internalType": "uint256",
							"name": "",
							"type": "uint256"
						}
					],
					"stateMutability": "view",
					"type": "function"
				},
				{
					"inputs": [],
					"name": "COMPOUND_STEP",
					"outputs": [
						{
							"internalType": "uint256",
							"name": "",
							"type": "uint256"
						}
					],
					"stateMutability": "view",
					"type": "function"
				},
				{
					"inputs": [],
					"name": "CUTOFF_STEP",
					"outputs": [
						{
							"internalType": "uint256",
							"name": "",
							"type": "uint256"
						}
					],
					"stateMutability": "view",
					"type": "function"
				},
				{
					"inputs": [],
					"name": "EGGS_TO_HIRE_1MINERS",
					"outputs": [
						{
							"internalType": "uint256",
							"name": "",
							"type": "uint256"
						}
					],
					"stateMutability": "view",
					"type": "function"
				},
				{
					"inputs": [],
					"name": "MARKET_EGGS_DIVISOR",
					"outputs": [
						{
							"internalType": "uint256",
							"name": "",
							"type": "uint256"
						}
					],
					"stateMutability": "view",
					"type": "function"
				},
				{
					"inputs": [],
					"name": "MIN_INVEST_LIMIT",
					"outputs": [
						{
							"internalType": "uint256",
							"name": "",
							"type": "uint256"
						}
					],
					"stateMutability": "view",
					"type": "function"
				},
				{
					"inputs": [],
					"name": "MKT",
					"outputs": [
						{
							"internalType": "uint256",
							"name": "",
							"type": "uint256"
						}
					],
					"stateMutability": "view",
					"type": "function"
				},
				{
					"inputs": [],
					"name": "PERCENTS_DIVIDER",
					"outputs": [
						{
							"internalType": "uint256",
							"name": "",
							"type": "uint256"
						}
					],
					"stateMutability": "view",
					"type": "function"
				},
				{
					"inputs": [
						{
							"internalType": "uint256",
							"name": "value",
							"type": "uint256"
						}
					],
					"name": "PRC_EGGS_TO_HIRE_1MINERS",
					"outputs": [],
					"stateMutability": "nonpayable",
					"type": "function"
				},
				{
					"inputs": [
						{
							"internalType": "uint256",
							"name": "value",
							"type": "uint256"
						}
					],
					"name": "PRC_MARKET_EGGS_DIVISOR",
					"outputs": [],
					"stateMutability": "nonpayable",
					"type": "function"
				},
				{
					"inputs": [
						{
							"internalType": "uint256",
							"name": "value",
							"type": "uint256"
						}
					],
					"name": "PRC_MKT",
					"outputs": [],
					"stateMutability": "nonpayable",
					"type": "function"
				},
				{
					"inputs": [
						{
							"internalType": "uint256",
							"name": "value",
							"type": "uint256"
						}
					],
					"name": "PRC_REFERRAL",
					"outputs": [],
					"stateMutability": "nonpayable",
					"type": "function"
				},
				{
					"inputs": [
						{
							"internalType": "uint256",
							"name": "value",
							"type": "uint256"
						}
					],
					"name": "PRC_TAX",
					"outputs": [],
					"stateMutability": "nonpayable",
					"type": "function"
				},
				{
					"inputs": [],
					"name": "REFERRAL",
					"outputs": [
						{
							"internalType": "uint256",
							"name": "",
							"type": "uint256"
						}
					],
					"stateMutability": "view",
					"type": "function"
				},
				{
					"inputs": [
						{
							"internalType": "uint256",
							"name": "value",
							"type": "uint256"
						}
					],
					"name": "SET_COMPOUND_FOR_NO_TAX_WITHDRAWAL",
					"outputs": [],
					"stateMutability": "nonpayable",
					"type": "function"
				},
				{
					"inputs": [
						{
							"internalType": "uint256",
							"name": "value",
							"type": "uint256"
						}
					],
					"name": "SET_CUTOFF_STEP",
					"outputs": [],
					"stateMutability": "nonpayable",
					"type": "function"
				},
				{
					"inputs": [
						{
							"internalType": "uint256",
							"name": "value",
							"type": "uint256"
						}
					],
					"name": "SET_INVEST_MIN",
					"outputs": [],
					"stateMutability": "nonpayable",
					"type": "function"
				},
				{
					"inputs": [
						{
							"internalType": "uint256",
							"name": "value",
							"type": "uint256"
						}
					],
					"name": "SET_WALLET_DEPOSIT_LIMIT",
					"outputs": [],
					"stateMutability": "nonpayable",
					"type": "function"
				},
				{
					"inputs": [
						{
							"internalType": "uint256",
							"name": "value",
							"type": "uint256"
						}
					],
					"name": "SET_WITHDRAWAL_TAX",
					"outputs": [],
					"stateMutability": "nonpayable",
					"type": "function"
				},
				{
					"inputs": [
						{
							"internalType": "uint256",
							"name": "value",
							"type": "uint256"
						}
					],
					"name": "SET_WITHDRAW_COOLDOWN",
					"outputs": [],
					"stateMutability": "nonpayable",
					"type": "function"
				},
				{
					"inputs": [],
					"name": "TAX",
					"outputs": [
						{
							"internalType": "uint256",
							"name": "",
							"type": "uint256"
						}
					],
					"stateMutability": "view",
					"type": "function"
				},
				{
					"inputs": [],
					"name": "WALLET_DEPOSIT_LIMIT",
					"outputs": [
						{
							"internalType": "uint256",
							"name": "",
							"type": "uint256"
						}
					],
					"stateMutability": "view",
					"type": "function"
				},
				{
					"inputs": [],
					"name": "WITHDRAWAL_TAX",
					"outputs": [
						{
							"internalType": "uint256",
							"name": "",
							"type": "uint256"
						}
					],
					"stateMutability": "view",
					"type": "function"
				},
				{
					"inputs": [],
					"name": "WITHDRAW_COOLDOWN",
					"outputs": [
						{
							"internalType": "uint256",
							"name": "",
							"type": "uint256"
						}
					],
					"stateMutability": "view",
					"type": "function"
				},
				{
					"inputs": [
						{
							"internalType": "address",
							"name": "Wallet",
							"type": "address"
						},
						{
							"internalType": "bool",
							"name": "isBlacklisted",
							"type": "bool"
						}
					],
					"name": "blackListWallet",
					"outputs": [],
					"stateMutability": "nonpayable",
					"type": "function"
				},
				{
					"inputs": [
						{
							"internalType": "address[]",
							"name": "Wallet",
							"type": "address[]"
						},
						{
							"internalType": "bool",
							"name": "isBlacklisted",
							"type": "bool"
						}
					],
					"name": "blackMultipleWallets",
					"outputs": [],
					"stateMutability": "nonpayable",
					"type": "function"
				},
				{
					"inputs": [],
					"name": "blacklistActive",
					"outputs": [
						{
							"internalType": "bool",
							"name": "",
							"type": "bool"
						}
					],
					"stateMutability": "view",
					"type": "function"
				},
				{
					"inputs": [
						{
							"internalType": "uint256",
							"name": "eth",
							"type": "uint256"
						},
						{
							"internalType": "uint256",
							"name": "contractBalance",
							"type": "uint256"
						}
					],
					"name": "calculateEggBuy",
					"outputs": [
						{
							"internalType": "uint256",
							"name": "",
							"type": "uint256"
						}
					],
					"stateMutability": "view",
					"type": "function"
				},
				{
					"inputs": [
						{
							"internalType": "uint256",
							"name": "eth",
							"type": "uint256"
						}
					],
					"name": "calculateEggBuySimple",
					"outputs": [
						{
							"internalType": "uint256",
							"name": "",
							"type": "uint256"
						}
					],
					"stateMutability": "view",
					"type": "function"
				},
				{
					"inputs": [
						{
							"internalType": "uint256",
							"name": "eggs",
							"type": "uint256"
						}
					],
					"name": "calculateEggSell",
					"outputs": [
						{
							"internalType": "uint256",
							"name": "",
							"type": "uint256"
						}
					],
					"stateMutability": "view",
					"type": "function"
				},
				{
					"inputs": [
						{
							"internalType": "uint256",
							"name": "eggs",
							"type": "uint256"
						},
						{
							"internalType": "uint256",
							"name": "amount",
							"type": "uint256"
						}
					],
					"name": "calculateEggSellForYield",
					"outputs": [
						{
							"internalType": "uint256",
							"name": "",
							"type": "uint256"
						}
					],
					"stateMutability": "view",
					"type": "function"
				},
				{
					"inputs": [
						{
							"internalType": "uint256",
							"name": "rt",
							"type": "uint256"
						},
						{
							"internalType": "uint256",
							"name": "rs",
							"type": "uint256"
						},
						{
							"internalType": "uint256",
							"name": "bs",
							"type": "uint256"
						}
					],
					"name": "calculateTrade",
					"outputs": [
						{
							"internalType": "uint256",
							"name": "",
							"type": "uint256"
						}
					],
					"stateMutability": "view",
					"type": "function"
				},
				{
					"inputs": [
						{
							"internalType": "address",
							"name": "Wallet",
							"type": "address"
						}
					],
					"name": "checkIfBlacklisted",
					"outputs": [
						{
							"internalType": "bool",
							"name": "blacklisted",
							"type": "bool"
						}
					],
					"stateMutability": "view",
					"type": "function"
				},
				{
					"inputs": [],
					"name": "contractStarted",
					"outputs": [
						{
							"internalType": "bool",
							"name": "",
							"type": "bool"
						}
					],
					"stateMutability": "view",
					"type": "function"
				},
				{
					"inputs": [],
					"name": "dev1",
					"outputs": [
						{
							"internalType": "address payable",
							"name": "",
							"type": "address"
						}
					],
					"stateMutability": "view",
					"type": "function"
				},
				{
					"inputs": [],
					"name": "dev2",
					"outputs": [
						{
							"internalType": "address payable",
							"name": "",
							"type": "address"
						}
					],
					"stateMutability": "view",
					"type": "function"
				},
				{
					"inputs": [],
					"name": "dev3",
					"outputs": [
						{
							"internalType": "address payable",
							"name": "",
							"type": "address"
						}
					],
					"stateMutability": "view",
					"type": "function"
				},
				{
					"inputs": [
						{
							"internalType": "address",
							"name": "",
							"type": "address"
						}
					],
					"name": "firstDeposit",
					"outputs": [
						{
							"internalType": "uint256",
							"name": "",
							"type": "uint256"
						}
					],
					"stateMutability": "view",
					"type": "function"
				},
				{
					"inputs": [],
					"name": "fundContract",
					"outputs": [],
					"stateMutability": "payable",
					"type": "function"
				},
				{
					"inputs": [
						{
							"internalType": "address",
							"name": "_adr",
							"type": "address"
						}
					],
					"name": "getAvailableEarnings",
					"outputs": [
						{
							"internalType": "uint256",
							"name": "",
							"type": "uint256"
						}
					],
					"stateMutability": "view",
					"type": "function"
				},
				{
					"inputs": [],
					"name": "getBalance",
					"outputs": [
						{
							"internalType": "uint256",
							"name": "",
							"type": "uint256"
						}
					],
					"stateMutability": "view",
					"type": "function"
				},
				{
					"inputs": [
						{
							"internalType": "address",
							"name": "_adr",
							"type": "address"
						},
						{
							"internalType": "uint256",
							"name": "amount",
							"type": "uint256"
						}
					],
					"name": "getDailyCompoundBonus",
					"outputs": [
						{
							"internalType": "uint256",
							"name": "",
							"type": "uint256"
						}
					],
					"stateMutability": "view",
					"type": "function"
				},
				{
					"inputs": [
						{
							"internalType": "address",
							"name": "adr",
							"type": "address"
						}
					],
					"name": "getEggsSinceLastHatch",
					"outputs": [
						{
							"internalType": "uint256",
							"name": "",
							"type": "uint256"
						}
					],
					"stateMutability": "view",
					"type": "function"
				},
				{
					"inputs": [
						{
							"internalType": "uint256",
							"name": "amount",
							"type": "uint256"
						}
					],
					"name": "getEggsYield",
					"outputs": [
						{
							"internalType": "uint256",
							"name": "",
							"type": "uint256"
						},
						{
							"internalType": "uint256",
							"name": "",
							"type": "uint256"
						}
					],
					"stateMutability": "view",
					"type": "function"
				},
				{
					"inputs": [],
					"name": "getMyEggs",
					"outputs": [
						{
							"internalType": "uint256",
							"name": "",
							"type": "uint256"
						}
					],
					"stateMutability": "view",
					"type": "function"
				},
				{
					"inputs": [],
					"name": "getMyMiners",
					"outputs": [
						{
							"internalType": "uint256",
							"name": "",
							"type": "uint256"
						}
					],
					"stateMutability": "view",
					"type": "function"
				},
				{
					"inputs": [],
					"name": "getSiteInfo",
					"outputs": [
						{
							"internalType": "uint256",
							"name": "_totalStaked",
							"type": "uint256"
						},
						{
							"internalType": "uint256",
							"name": "_totalDeposits",
							"type": "uint256"
						},
						{
							"internalType": "uint256",
							"name": "_totalCompound",
							"type": "uint256"
						},
						{
							"internalType": "uint256",
							"name": "_totalRefBonus",
							"type": "uint256"
						}
					],
					"stateMutability": "view",
					"type": "function"
				},
				{
					"inputs": [],
					"name": "getTimeStamp",
					"outputs": [
						{
							"internalType": "uint256",
							"name": "",
							"type": "uint256"
						}
					],
					"stateMutability": "view",
					"type": "function"
				},
				{
					"inputs": [
						{
							"internalType": "address",
							"name": "_adr",
							"type": "address"
						}
					],
					"name": "getUserInfo",
					"outputs": [
						{
							"internalType": "uint256",
							"name": "_initialDeposit",
							"type": "uint256"
						},
						{
							"internalType": "uint256",
							"name": "_userDeposit",
							"type": "uint256"
						},
						{
							"internalType": "uint256",
							"name": "_miners",
							"type": "uint256"
						},
						{
							"internalType": "uint256",
							"name": "_claimedEggs",
							"type": "uint256"
						},
						{
							"internalType": "uint256",
							"name": "_lastHatch",
							"type": "uint256"
						},
						{
							"internalType": "address",
							"name": "_referrer",
							"type": "address"
						},
						{
							"internalType": "uint256",
							"name": "_referrals",
							"type": "uint256"
						},
						{
							"internalType": "uint256",
							"name": "_totalWithdrawn",
							"type": "uint256"
						},
						{
							"internalType": "uint256",
							"name": "_referralEggRewards",
							"type": "uint256"
						},
						{
							"internalType": "uint256",
							"name": "_dailyCompoundBonus",
							"type": "uint256"
						},
						{
							"internalType": "uint256",
							"name": "_farmerCompoundCount",
							"type": "uint256"
						},
						{
							"internalType": "uint256",
							"name": "_lastWithdrawTime",
							"type": "uint256"
						}
					],
					"stateMutability": "view",
					"type": "function"
				},
				{
					"inputs": [
						{
							"internalType": "address",
							"name": "ref",
							"type": "address"
						}
					],
					"name": "hireFarmers",
					"outputs": [],
					"stateMutability": "payable",
					"type": "function"
				},
				{
					"inputs": [
						{
							"internalType": "bool",
							"name": "isCompound",
							"type": "bool"
						}
					],
					"name": "hireMoreFarmers",
					"outputs": [],
					"stateMutability": "nonpayable",
					"type": "function"
				},
				{
					"inputs": [],
					"name": "marketEggs",
					"outputs": [
						{
							"internalType": "uint256",
							"name": "",
							"type": "uint256"
						}
					],
					"stateMutability": "view",
					"type": "function"
				},
				{
					"inputs": [],
					"name": "mkt",
					"outputs": [
						{
							"internalType": "address payable",
							"name": "",
							"type": "address"
						}
					],
					"stateMutability": "view",
					"type": "function"
				},
				{
					"inputs": [],
					"name": "owner",
					"outputs": [
						{
							"internalType": "address",
							"name": "",
							"type": "address"
						}
					],
					"stateMutability": "view",
					"type": "function"
				},
				{
					"inputs": [],
					"name": "prtnr1",
					"outputs": [
						{
							"internalType": "address payable",
							"name": "",
							"type": "address"
						}
					],
					"stateMutability": "view",
					"type": "function"
				},
				{
					"inputs": [],
					"name": "prtnr2",
					"outputs": [
						{
							"internalType": "address payable",
							"name": "",
							"type": "address"
						}
					],
					"stateMutability": "view",
					"type": "function"
				},
				{
					"inputs": [
						{
							"internalType": "address",
							"name": "",
							"type": "address"
						}
					],
					"name": "referralEarning",
					"outputs": [
						{
							"internalType": "uint256",
							"name": "",
							"type": "uint256"
						}
					],
					"stateMutability": "view",
					"type": "function"
				},
				{
					"inputs": [],
					"name": "sellCrops",
					"outputs": [],
					"stateMutability": "nonpayable",
					"type": "function"
				},
				{
					"inputs": [
						{
							"internalType": "bool",
							"name": "isActive",
							"type": "bool"
						}
					],
					"name": "setblacklistActive",
					"outputs": [],
					"stateMutability": "nonpayable",
					"type": "function"
				},
				{
					"inputs": [
						{
							"internalType": "address",
							"name": "addr",
							"type": "address"
						}
					],
					"name": "startFarm",
					"outputs": [],
					"stateMutability": "payable",
					"type": "function"
				},
				{
					"inputs": [],
					"name": "totalCompound",
					"outputs": [
						{
							"internalType": "uint256",
							"name": "",
							"type": "uint256"
						}
					],
					"stateMutability": "view",
					"type": "function"
				},
				{
					"inputs": [],
					"name": "totalDeposits",
					"outputs": [
						{
							"internalType": "uint256",
							"name": "",
							"type": "uint256"
						}
					],
					"stateMutability": "view",
					"type": "function"
				},
				{
					"inputs": [],
					"name": "totalRefBonus",
					"outputs": [
						{
							"internalType": "uint256",
							"name": "",
							"type": "uint256"
						}
					],
					"stateMutability": "view",
					"type": "function"
				},
				{
					"inputs": [],
					"name": "totalStaked",
					"outputs": [
						{
							"internalType": "uint256",
							"name": "",
							"type": "uint256"
						}
					],
					"stateMutability": "view",
					"type": "function"
				},
				{
					"inputs": [],
					"name": "totalWithdrawn",
					"outputs": [
						{
							"internalType": "uint256",
							"name": "",
							"type": "uint256"
						}
					],
					"stateMutability": "view",
					"type": "function"
				},
				{
					"inputs": [
						{
							"internalType": "address",
							"name": "",
							"type": "address"
						}
					],
					"name": "total_Bonus",
					"outputs": [
						{
							"internalType": "uint256",
							"name": "",
							"type": "uint256"
						}
					],
					"stateMutability": "view",
					"type": "function"
				},
				{
					"inputs": [
						{
							"internalType": "address",
							"name": "",
							"type": "address"
						}
					],
					"name": "users",
					"outputs": [
						{
							"internalType": "uint256",
							"name": "initialDeposit",
							"type": "uint256"
						},
						{
							"internalType": "uint256",
							"name": "userDeposit",
							"type": "uint256"
						},
						{
							"internalType": "uint256",
							"name": "miners",
							"type": "uint256"
						},
						{
							"internalType": "uint256",
							"name": "claimedEggs",
							"type": "uint256"
						},
						{
							"internalType": "uint256",
							"name": "lastHatch",
							"type": "uint256"
						},
						{
							"internalType": "address",
							"name": "referrer",
							"type": "address"
						},
						{
							"internalType": "uint256",
							"name": "referralsCount",
							"type": "uint256"
						},
						{
							"internalType": "uint256",
							"name": "referralEggRewards",
							"type": "uint256"
						},
						{
							"internalType": "uint256",
							"name": "totalWithdrawn",
							"type": "uint256"
						},
						{
							"internalType": "uint256",
							"name": "dailyCompoundBonus",
							"type": "uint256"
						},
						{
							"internalType": "uint256",
							"name": "farmerCompoundCount",
							"type": "uint256"
						},
						{
							"internalType": "uint256",
							"name": "lastWithdrawTime",
							"type": "uint256"
						}
					],
					"stateMutability": "view",
					"type": "function"
				},
				{
					"inputs": [],
					"name": "withdraw",
					"outputs": [],
					"stateMutability": "payable",
					"type": "function"
				}
			],
			"devdoc": {
				"kind": "dev",
				"methods": {},
				"version": 1
			},
			"evm": {
				"assembly": "    /* \"contracts/cropsFarmer.sol\":56:18291  contract BNB_V3 {... */\n  mstore(0x40, 0x80)\n    /* \"contracts/cropsFarmer.sol\":177:184  1440000 */\n  0x15f900\n    /* \"contracts/cropsFarmer.sol\":139:184  uint256 public EGGS_TO_HIRE_1MINERS = 1440000 */\n  0x00\n  sstore\n    /* \"contracts/cropsFarmer.sol\":216:218  70 */\n  0x46\n    /* \"contracts/cropsFarmer.sol\":190:218  uint256 public REFERRAL = 70 */\n  0x01\n  sstore\n    /* \"contracts/cropsFarmer.sol\":258:262  1000 */\n  0x03e8\n    /* \"contracts/cropsFarmer.sol\":224:262  uint256 public PERCENTS_DIVIDER = 1000 */\n  0x02\n  sstore\n    /* \"contracts/cropsFarmer.sol\":289:290  9 */\n  0x09\n    /* \"contracts/cropsFarmer.sol\":268:290  uint256 public TAX = 9 */\n  0x03\n  sstore\n    /* \"contracts/cropsFarmer.sol\":317:319  12 */\n  0x0c\n    /* \"contracts/cropsFarmer.sol\":296:319  uint256 public MKT = 12 */\n  0x04\n  sstore\n    /* \"contracts/cropsFarmer.sol\":362:363  2 */\n  0x02\n    /* \"contracts/cropsFarmer.sol\":325:363  uint256 public MARKET_EGGS_DIVISOR = 2 */\n  0x05\n  sstore\n    /* \"contracts/cropsFarmer.sol\":404:421  30000000000000000 */\n  0x6a94d74f430000\n    /* \"contracts/cropsFarmer.sol\":370:421  uint256 public MIN_INVEST_LIMIT = 30000000000000000 */\n  0x06\n  sstore\n    /* \"contracts/cropsFarmer.sol\":483:492  25 * 1e18 */\n  0x015af1d78b58c40000\n    /* \"contracts/cropsFarmer.sol\":445:492  uint256 public WALLET_DEPOSIT_LIMIT = 25 * 1e18 */\n  0x07\n  sstore\n    /* \"contracts/cropsFarmer.sol\":544:546  20 */\n  0x14\n    /* \"contracts/cropsFarmer.sol\":512:546  uint256 public COMPOUND_BONUS = 20 */\n  0x08\n  sstore\n    /* \"contracts/cropsFarmer.sol\":591:593  10 */\n  0x0a\n    /* \"contracts/cropsFarmer.sol\":549:593  uint256 public COMPOUND_BONUS_MAX_TIMES = 10 */\n  0x09\n  sstore\n    /* \"contracts/cropsFarmer.sol\":630:642  12 * 60 * 60 */\n  0xa8c0\n    /* \"contracts/cropsFarmer.sol\":599:642  uint256 public COMPOUND_STEP = 12 * 60 * 60 */\n  0x0a\n  sstore\n    /* \"contracts/cropsFarmer.sol\":681:684  350 */\n  0x015e\n    /* \"contracts/cropsFarmer.sol\":649:684  uint256 public WITHDRAWAL_TAX = 350 */\n  0x0b\n  sstore\n    /* \"contracts/cropsFarmer.sol\":743:745  10 */\n  0x0a\n    /* \"contracts/cropsFarmer.sol\":695:745  uint256 public COMPOUND_FOR_NO_TAX_WITHDRAWAL = 10 */\n  0x0c\n  sstore\n    /* \"contracts/cropsFarmer.sol\":967:972  10000 */\n  0x2710\n    /* \"contracts/cropsFarmer.sol\":953:972  uint256 PSN = 10000 */\n  0x13\n  sstore\n    /* \"contracts/cropsFarmer.sol\":993:997  5000 */\n  0x1388\n    /* \"contracts/cropsFarmer.sol\":978:997  uint256 PSNH = 5000 */\n  0x14\n  sstore\n    /* \"contracts/cropsFarmer.sol\":1066:1070  true */\n  0x01\n    /* \"contracts/cropsFarmer.sol\":1036:1070  bool public blacklistActive = true */\n  0x15\n  exp(0x0100, 0x01)\n  dup2\n  sload\n  dup2\n  0xff\n  mul\n  not\n  and\n  swap1\n  dup4\n  iszero\n  iszero\n  mul\n  or\n  swap1\n  sstore\n  pop\n    /* \"contracts/cropsFarmer.sol\":1307:1319  48 * 60 * 60 */\n  0x02a300\n    /* \"contracts/cropsFarmer.sol\":1278:1319  uint256 public CUTOFF_STEP = 48 * 60 * 60 */\n  0x1a\n  sstore\n    /* \"contracts/cropsFarmer.sol\":1357:1368  4 * 60 * 60 */\n  0x3840\n    /* \"contracts/cropsFarmer.sol\":1322:1368  uint256 public WITHDRAW_COOLDOWN = 4 * 60 * 60 */\n  0x1b\n  sstore\n    /* \"contracts/cropsFarmer.sol\":2126:2322  constructor(address payable _dev1,... */\n  callvalue\n  dup1\n  iszero\n  tag_1\n  jumpi\n  0x00\n  dup1\n  revert\ntag_1:\n  pop\n  mload(0x40)\n  sub(codesize, bytecodeSize)\n  dup1\n  bytecodeSize\n  dup4\n  codecopy\n  dup2\n  dup2\n  add\n  0x40\n  mstore\n  dup2\n  add\n  swap1\n  tag_2\n  swap2\n  swap1\n  tag_3\n  jump\t// in\ntag_2:\n    /* \"contracts/cropsFarmer.sol\":2201:2218  isContract(_dev1) */\n  tag_6\n    /* \"contracts/cropsFarmer.sol\":2212:2217  _dev1 */\n  dup3\n    /* \"contracts/cropsFarmer.sol\":2201:2211  isContract */\n  shl(0x20, tag_7)\n    /* \"contracts/cropsFarmer.sol\":2201:2218  isContract(_dev1) */\n  0x20\n  shr\n  jump\t// in\ntag_6:\n    /* \"contracts/cropsFarmer.sol\":2200:2218  !isContract(_dev1) */\n  iszero\n    /* \"contracts/cropsFarmer.sol\":2200:2239  !isContract(_dev1) && !isContract(_mkt) */\n  dup1\n  iszero\n  tag_8\n  jumpi\n  pop\n    /* \"contracts/cropsFarmer.sol\":2223:2239  isContract(_mkt) */\n  tag_9\n    /* \"contracts/cropsFarmer.sol\":2234:2238  _mkt */\n  dup2\n    /* \"contracts/cropsFarmer.sol\":2223:2233  isContract */\n  shl(0x20, tag_7)\n    /* \"contracts/cropsFarmer.sol\":2223:2239  isContract(_mkt) */\n  0x20\n  shr\n  jump\t// in\ntag_9:\n    /* \"contracts/cropsFarmer.sol\":2222:2239  !isContract(_mkt) */\n  iszero\n    /* \"contracts/cropsFarmer.sol\":2200:2239  !isContract(_dev1) && !isContract(_mkt) */\ntag_8:\n    /* \"contracts/cropsFarmer.sol\":2192:2240  require(!isContract(_dev1) && !isContract(_mkt)) */\n  tag_10\n  jumpi\n  0x00\n  dup1\n  revert\ntag_10:\n    /* \"contracts/cropsFarmer.sol\":2258:2268  msg.sender */\n  caller\n    /* \"contracts/cropsFarmer.sol\":2250:2255  owner */\n  0x1c\n  0x00\n    /* \"contracts/cropsFarmer.sol\":2250:2268  owner = msg.sender */\n  0x0100\n  exp\n  dup2\n  sload\n  dup2\n  0xffffffffffffffffffffffffffffffffffffffff\n  mul\n  not\n  and\n  swap1\n  dup4\n  0xffffffffffffffffffffffffffffffffffffffff\n  and\n  mul\n  or\n  swap1\n  sstore\n  pop\n    /* \"contracts/cropsFarmer.sol\":2285:2290  _dev1 */\n  dup2\n    /* \"contracts/cropsFarmer.sol\":2278:2282  dev1 */\n  0x1d\n  0x00\n    /* \"contracts/cropsFarmer.sol\":2278:2290  dev1 = _dev1 */\n  0x0100\n  exp\n  dup2\n  sload\n  dup2\n  0xffffffffffffffffffffffffffffffffffffffff\n  mul\n  not\n  and\n  swap1\n  dup4\n  0xffffffffffffffffffffffffffffffffffffffff\n  and\n  mul\n  or\n  swap1\n  sstore\n  pop\n    /* \"contracts/cropsFarmer.sol\":2311:2315  _mkt */\n  dup1\n    /* \"contracts/cropsFarmer.sol\":2305:2308  mkt */\n  0x22\n  0x00\n    /* \"contracts/cropsFarmer.sol\":2305:2315  mkt = _mkt */\n  0x0100\n  exp\n  dup2\n  sload\n  dup2\n  0xffffffffffffffffffffffffffffffffffffffff\n  mul\n  not\n  and\n  swap1\n  dup4\n  0xffffffffffffffffffffffffffffffffffffffff\n  and\n  mul\n  or\n  swap1\n  sstore\n  pop\n    /* \"contracts/cropsFarmer.sol\":2126:2322  constructor(address payable _dev1,... */\n  pop\n  pop\n    /* \"contracts/cropsFarmer.sol\":56:18291  contract BNB_V3 {... */\n  jump(tag_11)\n    /* \"contracts/cropsFarmer.sol\":2325:2486  function isContract(address addr) internal view returns (bool) {... */\ntag_7:\n    /* \"contracts/cropsFarmer.sol\":2382:2386  bool */\n  0x00\n    /* \"contracts/cropsFarmer.sol\":2398:2407  uint size */\n  dup1\n    /* \"contracts/cropsFarmer.sol\":2448:2452  addr */\n  dup3\n    /* \"contracts/cropsFarmer.sol\":2436:2453  extcodesize(addr) */\n  extcodesize\n    /* \"contracts/cropsFarmer.sol\":2428:2453  size := extcodesize(addr) */\n  swap1\n  pop\n    /* \"contracts/cropsFarmer.sol\":2478:2479  0 */\n  0x00\n    /* \"contracts/cropsFarmer.sol\":2471:2475  size */\n  dup2\n    /* \"contracts/cropsFarmer.sol\":2471:2479  size > 0 */\n  gt\n    /* \"contracts/cropsFarmer.sol\":2464:2479  return size > 0 */\n  swap2\n  pop\n  pop\n    /* \"contracts/cropsFarmer.sol\":2325:2486  function isContract(address addr) internal view returns (bool) {... */\n  swap2\n  swap1\n  pop\n  jump\t// out\n    /* \"#utility.yul\":88:205   */\ntag_14:\n    /* \"#utility.yul\":197:198   */\n  0x00\n    /* \"#utility.yul\":194:195   */\n  dup1\n    /* \"#utility.yul\":187:199   */\n  revert\n    /* \"#utility.yul\":334:460   */\ntag_16:\n    /* \"#utility.yul\":371:378   */\n  0x00\n    /* \"#utility.yul\":411:453   */\n  0xffffffffffffffffffffffffffffffffffffffff\n    /* \"#utility.yul\":404:409   */\n  dup3\n    /* \"#utility.yul\":400:454   */\n  and\n    /* \"#utility.yul\":389:454   */\n  swap1\n  pop\n    /* \"#utility.yul\":334:460   */\n  swap2\n  swap1\n  pop\n  jump\t// out\n    /* \"#utility.yul\":466:570   */\ntag_17:\n    /* \"#utility.yul\":511:518   */\n  0x00\n    /* \"#utility.yul\":540:564   */\n  tag_26\n    /* \"#utility.yul\":558:563   */\n  dup3\n    /* \"#utility.yul\":540:564   */\n  tag_16\n  jump\t// in\ntag_26:\n    /* \"#utility.yul\":529:564   */\n  swap1\n  pop\n    /* \"#utility.yul\":466:570   */\n  swap2\n  swap1\n  pop\n  jump\t// out\n    /* \"#utility.yul\":576:714   */\ntag_18:\n    /* \"#utility.yul\":657:689   */\n  tag_28\n    /* \"#utility.yul\":683:688   */\n  dup2\n    /* \"#utility.yul\":657:689   */\n  tag_17\n  jump\t// in\ntag_28:\n    /* \"#utility.yul\":650:655   */\n  dup2\n    /* \"#utility.yul\":647:690   */\n  eq\n    /* \"#utility.yul\":637:708   */\n  tag_29\n  jumpi\n    /* \"#utility.yul\":704:705   */\n  0x00\n    /* \"#utility.yul\":701:702   */\n  dup1\n    /* \"#utility.yul\":694:706   */\n  revert\n    /* \"#utility.yul\":637:708   */\ntag_29:\n    /* \"#utility.yul\":576:714   */\n  pop\n  jump\t// out\n    /* \"#utility.yul\":720:879   */\ntag_19:\n    /* \"#utility.yul\":785:790   */\n  0x00\n    /* \"#utility.yul\":816:822   */\n  dup2\n    /* \"#utility.yul\":810:823   */\n  mload\n    /* \"#utility.yul\":801:823   */\n  swap1\n  pop\n    /* \"#utility.yul\":832:873   */\n  tag_31\n    /* \"#utility.yul\":867:872   */\n  dup2\n    /* \"#utility.yul\":832:873   */\n  tag_18\n  jump\t// in\ntag_31:\n    /* \"#utility.yul\":720:879   */\n  swap3\n  swap2\n  pop\n  pop\n  jump\t// out\n    /* \"#utility.yul\":885:1424   */\ntag_3:\n    /* \"#utility.yul\":980:986   */\n  0x00\n    /* \"#utility.yul\":988:994   */\n  dup1\n    /* \"#utility.yul\":1037:1039   */\n  0x40\n    /* \"#utility.yul\":1025:1034   */\n  dup4\n    /* \"#utility.yul\":1016:1023   */\n  dup6\n    /* \"#utility.yul\":1012:1035   */\n  sub\n    /* \"#utility.yul\":1008:1040   */\n  slt\n    /* \"#utility.yul\":1005:1124   */\n  iszero\n  tag_33\n  jumpi\n    /* \"#utility.yul\":1043:1122   */\n  tag_34\n  tag_14\n  jump\t// in\ntag_34:\n    /* \"#utility.yul\":1005:1124   */\ntag_33:\n    /* \"#utility.yul\":1163:1164   */\n  0x00\n    /* \"#utility.yul\":1188:1260   */\n  tag_35\n    /* \"#utility.yul\":1252:1259   */\n  dup6\n    /* \"#utility.yul\":1243:1249   */\n  dup3\n    /* \"#utility.yul\":1232:1241   */\n  dup7\n    /* \"#utility.yul\":1228:1250   */\n  add\n    /* \"#utility.yul\":1188:1260   */\n  tag_19\n  jump\t// in\ntag_35:\n    /* \"#utility.yul\":1178:1260   */\n  swap3\n  pop\n    /* \"#utility.yul\":1134:1270   */\n  pop\n    /* \"#utility.yul\":1309:1311   */\n  0x20\n    /* \"#utility.yul\":1335:1407   */\n  tag_36\n    /* \"#utility.yul\":1399:1406   */\n  dup6\n    /* \"#utility.yul\":1390:1396   */\n  dup3\n    /* \"#utility.yul\":1379:1388   */\n  dup7\n    /* \"#utility.yul\":1375:1397   */\n  add\n    /* \"#utility.yul\":1335:1407   */\n  tag_19\n  jump\t// in\ntag_36:\n    /* \"#utility.yul\":1325:1407   */\n  swap2\n  pop\n    /* \"#utility.yul\":1280:1417   */\n  pop\n    /* \"#utility.yul\":885:1424   */\n  swap3\n  pop\n  swap3\n  swap1\n  pop\n  jump\t// out\n    /* \"contracts/cropsFarmer.sol\":56:18291  contract BNB_V3 {... */\ntag_11:\n  dataSize(sub_0)\n  dup1\n  dataOffset(sub_0)\n  0x00\n  codecopy\n  0x00\n  return\nstop\n\nsub_0: assembly {\n        /* \"contracts/cropsFarmer.sol\":56:18291  contract BNB_V3 {... */\n      mstore(0x40, 0x80)\n      jumpi(tag_1, lt(calldatasize, 0x04))\n      shr(0xe0, calldataload(0x00))\n      dup1\n      0x7c8e4b4c\n      gt\n      tag_77\n      jumpi\n      dup1\n      0xb6e6fcf6\n      gt\n      tag_78\n      jumpi\n      dup1\n      0xd7206d5d\n      gt\n      tag_79\n      jumpi\n      dup1\n      0xe6dc9558\n      gt\n      tag_80\n      jumpi\n      dup1\n      0xe6dc9558\n      eq\n      tag_72\n      jumpi\n      dup1\n      0xe7576943\n      eq\n      tag_73\n      jumpi\n      dup1\n      0xeb271268\n      eq\n      tag_74\n      jumpi\n      dup1\n      0xf6f62886\n      eq\n      tag_75\n      jumpi\n      dup1\n      0xffa4e618\n      eq\n      tag_76\n      jumpi\n      jump(tag_1)\n    tag_80:\n      dup1\n      0xd7206d5d\n      eq\n      tag_67\n      jumpi\n      dup1\n      0xd7c8843b\n      eq\n      tag_68\n      jumpi\n      dup1\n      0xd989b4b3\n      eq\n      tag_69\n      jumpi\n      dup1\n      0xda235b22\n      eq\n      tag_70\n      jumpi\n      dup1\n      0xda5d4cc5\n      eq\n      tag_71\n      jumpi\n      jump(tag_1)\n    tag_79:\n      dup1\n      0xc3251b40\n      gt\n      tag_81\n      jumpi\n      dup1\n      0xc3251b40\n      eq\n      tag_62\n      jumpi\n      dup1\n      0xc63568c7\n      eq\n      tag_63\n      jumpi\n      dup1\n      0xc688f0fb\n      eq\n      tag_64\n      jumpi\n      dup1\n      0xcc3e9c78\n      eq\n      tag_65\n      jumpi\n      dup1\n      0xcd329fc3\n      eq\n      tag_66\n      jumpi\n      jump(tag_1)\n    tag_81:\n      dup1\n      0xb6e6fcf6\n      eq\n      tag_58\n      jumpi\n      dup1\n      0xbd097e21\n      eq\n      tag_59\n      jumpi\n      dup1\n      0xbdd1ca27\n      eq\n      tag_60\n      jumpi\n      dup1\n      0xbfa9f304\n      eq\n      tag_61\n      jumpi\n      jump(tag_1)\n    tag_78:\n      dup1\n      0x8da5cb5b\n      gt\n      tag_82\n      jumpi\n      dup1\n      0x9d3af13f\n      gt\n      tag_83\n      jumpi\n      dup1\n      0x9d3af13f\n      eq\n      tag_53\n      jumpi\n      dup1\n      0x9e9300a5\n      eq\n      tag_54\n      jumpi\n      dup1\n      0xa327c45d\n      eq\n      tag_55\n      jumpi\n      dup1\n      0xa87430ba\n      eq\n      tag_56\n      jumpi\n      dup1\n      0xac4b3c04\n      eq\n      tag_57\n      jumpi\n      jump(tag_1)\n    tag_83:\n      dup1\n      0x8da5cb5b\n      eq\n      tag_48\n      jumpi\n      dup1\n      0x8e316327\n      eq\n      tag_49\n      jumpi\n      dup1\n      0x950d91e9\n      eq\n      tag_50\n      jumpi\n      dup1\n      0x959c95b3\n      eq\n      tag_51\n      jumpi\n      dup1\n      0x9b9cb69f\n      eq\n      tag_52\n      jumpi\n      jump(tag_1)\n    tag_82:\n      dup1\n      0x7e56fde5\n      gt\n      tag_84\n      jumpi\n      dup1\n      0x7e56fde5\n      eq\n      tag_43\n      jumpi\n      dup1\n      0x7ee28e3c\n      eq\n      tag_44\n      jumpi\n      dup1\n      0x8013f3a7\n      eq\n      tag_45\n      jumpi\n      dup1\n      0x817b1cd2\n      eq\n      tag_46\n      jumpi\n      dup1\n      0x8a315efd\n      eq\n      tag_47\n      jumpi\n      jump(tag_1)\n    tag_84:\n      dup1\n      0x7c8e4b4c\n      eq\n      tag_39\n      jumpi\n      dup1\n      0x7cc5b1e6\n      eq\n      tag_40\n      jumpi\n      dup1\n      0x7d882097\n      eq\n      tag_41\n      jumpi\n      dup1\n      0x7db07c9d\n      eq\n      tag_42\n      jumpi\n      jump(tag_1)\n    tag_77:\n      dup1\n      0x3578584f\n      gt\n      tag_85\n      jumpi\n      dup1\n      0x570c2979\n      gt\n      tag_86\n      jumpi\n      dup1\n      0x68f58b03\n      gt\n      tag_87\n      jumpi\n      dup1\n      0x68f58b03\n      eq\n      tag_34\n      jumpi\n      dup1\n      0x69b11dd5\n      eq\n      tag_35\n      jumpi\n      dup1\n      0x6f969d28\n      eq\n      tag_36\n      jumpi\n      dup1\n      0x752a2628\n      eq\n      tag_37\n      jumpi\n      dup1\n      0x7a62ead7\n      eq\n      tag_38\n      jumpi\n      jump(tag_1)\n    tag_87:\n      dup1\n      0x570c2979\n      eq\n      tag_29\n      jumpi\n      dup1\n      0x57386225\n      eq\n      tag_30\n      jumpi\n      dup1\n      0x59eec895\n      eq\n      tag_31\n      jumpi\n      dup1\n      0x6386c1c7\n      eq\n      tag_32\n      jumpi\n      dup1\n      0x64c03a5e\n      eq\n      tag_33\n      jumpi\n      jump(tag_1)\n    tag_86:\n      dup1\n      0x45f98c29\n      gt\n      tag_88\n      jumpi\n      dup1\n      0x45f98c29\n      eq\n      tag_24\n      jumpi\n      dup1\n      0x4b319713\n      eq\n      tag_25\n      jumpi\n      dup1\n      0x4ce87053\n      eq\n      tag_26\n      jumpi\n      dup1\n      0x50637dbd\n      eq\n      tag_27\n      jumpi\n      dup1\n      0x50cf1c7a\n      eq\n      tag_28\n      jumpi\n      jump(tag_1)\n    tag_88:\n      dup1\n      0x3578584f\n      eq\n      tag_20\n      jumpi\n      dup1\n      0x3ccfd60b\n      eq\n      tag_21\n      jumpi\n      dup1\n      0x43ce7422\n      eq\n      tag_22\n      jumpi\n      dup1\n      0x45a6a6e0\n      eq\n      tag_23\n      jumpi\n      jump(tag_1)\n    tag_85:\n      dup1\n      0x1bd8225d\n      gt\n      tag_89\n      jumpi\n      dup1\n      0x298ea310\n      gt\n      tag_90\n      jumpi\n      dup1\n      0x298ea310\n      eq\n      tag_15\n      jumpi\n      dup1\n      0x2b039d0e\n      eq\n      tag_16\n      jumpi\n      dup1\n      0x2bc82f7f\n      eq\n      tag_17\n      jumpi\n      dup1\n      0x2e9392bb\n      eq\n      tag_18\n      jumpi\n      dup1\n      0x333f57b3\n      eq\n      tag_19\n      jumpi\n      jump(tag_1)\n    tag_90:\n      dup1\n      0x1bd8225d\n      eq\n      tag_11\n      jumpi\n      dup1\n      0x229824c4\n      eq\n      tag_12\n      jumpi\n      dup1\n      0x2362ce89\n      eq\n      tag_13\n      jumpi\n      dup1\n      0x26fd8422\n      eq\n      tag_14\n      jumpi\n      jump(tag_1)\n    tag_89:\n      dup1\n      0x12065fe0\n      gt\n      tag_91\n      jumpi\n      dup1\n      0x12065fe0\n      eq\n      tag_6\n      jumpi\n      dup1\n      0x1848b8dc\n      eq\n      tag_7\n      jumpi\n      dup1\n      0x18c819d8\n      eq\n      tag_8\n      jumpi\n      dup1\n      0x195a7339\n      eq\n      tag_9\n      jumpi\n      dup1\n      0x1a7b8d4f\n      eq\n      tag_10\n      jumpi\n      jump(tag_1)\n    tag_91:\n      dup1\n      0x01c234a8\n      eq\n      tag_2\n      jumpi\n      dup1\n      0x0420c98e\n      eq\n      tag_3\n      jumpi\n      dup1\n      0x07aeb7f0\n      eq\n      tag_4\n      jumpi\n      dup1\n      0x0a76e5ed\n      eq\n      tag_5\n      jumpi\n    tag_1:\n      0x00\n      dup1\n      revert\n        /* \"contracts/cropsFarmer.sol\":224:262  uint256 public PERCENTS_DIVIDER = 1000 */\n    tag_2:\n      callvalue\n      dup1\n      iszero\n      tag_92\n      jumpi\n      0x00\n      dup1\n      revert\n    tag_92:\n      pop\n      tag_93\n      tag_94\n      jump\t// in\n    tag_93:\n      mload(0x40)\n      tag_95\n      swap2\n      swap1\n      tag_96\n      jump\t// in\n    tag_95:\n      mload(0x40)\n      dup1\n      swap2\n      sub\n      swap1\n      return\n        /* \"contracts/cropsFarmer.sol\":649:684  uint256 public WITHDRAWAL_TAX = 350 */\n    tag_3:\n      callvalue\n      dup1\n      iszero\n      tag_97\n      jumpi\n      0x00\n      dup1\n      revert\n    tag_97:\n      pop\n      tag_98\n      tag_99\n      jump\t// in\n    tag_98:\n      mload(0x40)\n      tag_100\n      swap2\n      swap1\n      tag_96\n      jump\t// in\n    tag_100:\n      mload(0x40)\n      dup1\n      swap2\n      sub\n      swap1\n      return\n        /* \"contracts/cropsFarmer.sol\":1520:1549  address payable public prtnr1 */\n    tag_4:\n      callvalue\n      dup1\n      iszero\n      tag_101\n      jumpi\n      0x00\n      dup1\n      revert\n    tag_101:\n      pop\n      tag_102\n      tag_103\n      jump\t// in\n    tag_102:\n      mload(0x40)\n      tag_104\n      swap2\n      swap1\n      tag_105\n      jump\t// in\n    tag_104:\n      mload(0x40)\n      dup1\n      swap2\n      sub\n      swap1\n      return\n        /* \"contracts/cropsFarmer.sol\":13386:13485  function getMyMiners() public view returns(uint256){... */\n    tag_5:\n      callvalue\n      dup1\n      iszero\n      tag_106\n      jumpi\n      0x00\n      dup1\n      revert\n    tag_106:\n      pop\n      tag_107\n      tag_108\n      jump\t// in\n    tag_107:\n      mload(0x40)\n      tag_109\n      swap2\n      swap1\n      tag_96\n      jump\t// in\n    tag_109:\n      mload(0x40)\n      dup1\n      swap2\n      sub\n      swap1\n      return\n        /* \"contracts/cropsFarmer.sol\":11143:11238  function getBalance() public view returns(uint256){... */\n    tag_6:\n      callvalue\n      dup1\n      iszero\n      tag_110\n      jumpi\n      0x00\n      dup1\n      revert\n    tag_110:\n      pop\n      tag_111\n      tag_112\n      jump\t// in\n    tag_111:\n      mload(0x40)\n      tag_113\n      swap2\n      swap1\n      tag_96\n      jump\t// in\n    tag_113:\n      mload(0x40)\n      dup1\n      swap2\n      sub\n      swap1\n      return\n        /* \"contracts/cropsFarmer.sol\":445:492  uint256 public WALLET_DEPOSIT_LIMIT = 25 * 1e18 */\n    tag_7:\n      callvalue\n      dup1\n      iszero\n      tag_114\n      jumpi\n      0x00\n      dup1\n      revert\n    tag_114:\n      pop\n      tag_115\n      tag_116\n      jump\t// in\n    tag_115:\n      mload(0x40)\n      tag_117\n      swap2\n      swap1\n      tag_96\n      jump\t// in\n    tag_117:\n      mload(0x40)\n      dup1\n      swap2\n      sub\n      swap1\n      return\n        /* \"contracts/cropsFarmer.sol\":3712:5039  function hireMoreFarmers(bool isCompound) public {... */\n    tag_8:\n      callvalue\n      dup1\n      iszero\n      tag_118\n      jumpi\n      0x00\n      dup1\n      revert\n    tag_118:\n      pop\n      tag_119\n      0x04\n      dup1\n      calldatasize\n      sub\n      dup2\n      add\n      swap1\n      tag_120\n      swap2\n      swap1\n      tag_121\n      jump\t// in\n    tag_120:\n      tag_122\n      jump\t// in\n    tag_119:\n      stop\n        /* \"contracts/cropsFarmer.sol\":139:184  uint256 public EGGS_TO_HIRE_1MINERS = 1440000 */\n    tag_9:\n      callvalue\n      dup1\n      iszero\n      tag_123\n      jumpi\n      0x00\n      dup1\n      revert\n    tag_123:\n      pop\n      tag_124\n      tag_125\n      jump\t// in\n    tag_124:\n      mload(0x40)\n      tag_126\n      swap2\n      swap1\n      tag_96\n      jump\t// in\n    tag_126:\n      mload(0x40)\n      dup1\n      swap2\n      sub\n      swap1\n      return\n        /* \"contracts/cropsFarmer.sol\":15781:15937  function PRC_MKT(uint256 value) external {... */\n    tag_10:\n      callvalue\n      dup1\n      iszero\n      tag_127\n      jumpi\n      0x00\n      dup1\n      revert\n    tag_127:\n      pop\n      tag_128\n      0x04\n      dup1\n      calldatasize\n      sub\n      dup2\n      add\n      swap1\n      tag_129\n      swap2\n      swap1\n      tag_130\n      jump\t// in\n    tag_129:\n      tag_131\n      jump\t// in\n    tag_128:\n      stop\n        /* \"contracts/cropsFarmer.sol\":1175:1222  mapping(address => uint) public referralEarning */\n    tag_11:\n      callvalue\n      dup1\n      iszero\n      tag_132\n      jumpi\n      0x00\n      dup1\n      revert\n    tag_132:\n      pop\n      tag_133\n      0x04\n      dup1\n      calldatasize\n      sub\n      dup2\n      add\n      swap1\n      tag_134\n      swap2\n      swap1\n      tag_135\n      jump\t// in\n    tag_134:\n      tag_136\n      jump\t// in\n    tag_133:\n      mload(0x40)\n      tag_137\n      swap2\n      swap1\n      tag_96\n      jump\t// in\n    tag_137:\n      mload(0x40)\n      dup1\n      swap2\n      sub\n      swap1\n      return\n        /* \"contracts/cropsFarmer.sol\":11557:12005  function calculateTrade(uint256 rt,uint256 rs, uint256 bs) public view returns(uint256){... */\n    tag_12:\n      callvalue\n      dup1\n      iszero\n      tag_138\n      jumpi\n      0x00\n      dup1\n      revert\n    tag_138:\n      pop\n      tag_139\n      0x04\n      dup1\n      calldatasize\n      sub\n      dup2\n      add\n      swap1\n      tag_140\n      swap2\n      swap1\n      tag_141\n      jump\t// in\n    tag_140:\n      tag_142\n      jump\t// in\n    tag_139:\n      mload(0x40)\n      tag_143\n      swap2\n      swap1\n      tag_96\n      jump\t// in\n    tag_143:\n      mload(0x40)\n      dup1\n      swap2\n      sub\n      swap1\n      return\n        /* \"contracts/cropsFarmer.sol\":1487:1514  address payable public dev3 */\n    tag_13:\n      callvalue\n      dup1\n      iszero\n      tag_144\n      jumpi\n      0x00\n      dup1\n      revert\n    tag_144:\n      pop\n      tag_145\n      tag_146\n      jump\t// in\n    tag_145:\n      mload(0x40)\n      tag_147\n      swap2\n      swap1\n      tag_105\n      jump\t// in\n    tag_147:\n      mload(0x40)\n      dup1\n      swap2\n      sub\n      swap1\n      return\n        /* \"contracts/cropsFarmer.sol\":12155:12317  function calculateEggBuy(uint256 eth,uint256 contractBalance) public view returns(uint256){... */\n    tag_14:\n      callvalue\n      dup1\n      iszero\n      tag_148\n      jumpi\n      0x00\n      dup1\n      revert\n    tag_148:\n      pop\n      tag_149\n      0x04\n      dup1\n      calldatasize\n      sub\n      dup2\n      add\n      swap1\n      tag_150\n      swap2\n      swap1\n      tag_151\n      jump\t// in\n    tag_150:\n      tag_152\n      jump\t// in\n    tag_149:\n      mload(0x40)\n      tag_153\n      swap2\n      swap1\n      tag_96\n      jump\t// in\n    tag_153:\n      mload(0x40)\n      dup1\n      swap2\n      sub\n      swap1\n      return\n        /* \"contracts/cropsFarmer.sol\":15619:15775  function PRC_TAX(uint256 value) external {... */\n    tag_15:\n      callvalue\n      dup1\n      iszero\n      tag_154\n      jumpi\n      0x00\n      dup1\n      revert\n    tag_154:\n      pop\n      tag_155\n      0x04\n      dup1\n      calldatasize\n      sub\n      dup2\n      add\n      swap1\n      tag_156\n      swap2\n      swap1\n      tag_130\n      jump\t// in\n    tag_156:\n      tag_157\n      jump\t// in\n    tag_155:\n      stop\n        /* \"contracts/cropsFarmer.sol\":14159:14296  function CHANGE_OWNERSHIP(address value) external {... */\n    tag_16:\n      callvalue\n      dup1\n      iszero\n      tag_158\n      jumpi\n      0x00\n      dup1\n      revert\n    tag_158:\n      pop\n      tag_159\n      0x04\n      dup1\n      calldatasize\n      sub\n      dup2\n      add\n      swap1\n      tag_160\n      swap2\n      swap1\n      tag_135\n      jump\t// in\n    tag_160:\n      tag_161\n      jump\t// in\n    tag_159:\n      stop\n        /* \"contracts/cropsFarmer.sol\":296:319  uint256 public MKT = 12 */\n    tag_17:\n      callvalue\n      dup1\n      iszero\n      tag_162\n      jumpi\n      0x00\n      dup1\n      revert\n    tag_162:\n      pop\n      tag_163\n      tag_164\n      jump\t// in\n    tag_163:\n      mload(0x40)\n      tag_165\n      swap2\n      swap1\n      tag_96\n      jump\t// in\n    tag_165:\n      mload(0x40)\n      dup1\n      swap2\n      sub\n      swap1\n      return\n        /* \"contracts/cropsFarmer.sol\":922:947  uint256 public marketEggs */\n    tag_18:\n      callvalue\n      dup1\n      iszero\n      tag_166\n      jumpi\n      0x00\n      dup1\n      revert\n    tag_166:\n      pop\n      tag_167\n      tag_168\n      jump\t// in\n    tag_167:\n      mload(0x40)\n      tag_169\n      swap2\n      swap1\n      tag_96\n      jump\t// in\n    tag_169:\n      mload(0x40)\n      dup1\n      swap2\n      sub\n      swap1\n      return\n        /* \"contracts/cropsFarmer.sol\":1003:1030  bool public contractStarted */\n    tag_19:\n      callvalue\n      dup1\n      iszero\n      tag_170\n      jumpi\n      0x00\n      dup1\n      revert\n    tag_170:\n      pop\n      tag_171\n      tag_172\n      jump\t// in\n    tag_171:\n      mload(0x40)\n      tag_173\n      swap2\n      swap1\n      tag_174\n      jump\t// in\n    tag_173:\n      mload(0x40)\n      dup1\n      swap2\n      sub\n      swap1\n      return\n        /* \"contracts/cropsFarmer.sol\":1278:1319  uint256 public CUTOFF_STEP = 48 * 60 * 60 */\n    tag_20:\n      callvalue\n      dup1\n      iszero\n      tag_175\n      jumpi\n      0x00\n      dup1\n      revert\n    tag_175:\n      pop\n      tag_176\n      tag_177\n      jump\t// in\n    tag_176:\n      mload(0x40)\n      tag_178\n      swap2\n      swap1\n      tag_96\n      jump\t// in\n    tag_178:\n      mload(0x40)\n      dup1\n      swap2\n      sub\n      swap1\n      return\n        /* \"contracts/cropsFarmer.sol\":18053:18289  function withdraw() public payable  {... */\n    tag_21:\n      tag_179\n      tag_180\n      jump\t// in\n    tag_179:\n      stop\n        /* \"contracts/cropsFarmer.sol\":13491:13632  function getMyEggs() public view returns(uint256){... */\n    tag_22:\n      callvalue\n      dup1\n      iszero\n      tag_181\n      jumpi\n      0x00\n      dup1\n      revert\n    tag_181:\n      pop\n      tag_182\n      tag_183\n      jump\t// in\n    tag_182:\n      mload(0x40)\n      tag_184\n      swap2\n      swap1\n      tag_96\n      jump\t// in\n    tag_184:\n      mload(0x40)\n      dup1\n      swap2\n      sub\n      swap1\n      return\n        /* \"contracts/cropsFarmer.sol\":17426:17619  function SET_WITHDRAW_COOLDOWN(uint256 value) external {... */\n    tag_23:\n      callvalue\n      dup1\n      iszero\n      tag_185\n      jumpi\n      0x00\n      dup1\n      revert\n    tag_185:\n      pop\n      tag_186\n      0x04\n      dup1\n      calldatasize\n      sub\n      dup2\n      add\n      swap1\n      tag_187\n      swap2\n      swap1\n      tag_130\n      jump\t// in\n    tag_187:\n      tag_188\n      jump\t// in\n    tag_186:\n      stop\n        /* \"contracts/cropsFarmer.sol\":17118:17263  function SET_INVEST_MIN(uint256 value) external {... */\n    tag_24:\n      callvalue\n      dup1\n      iszero\n      tag_189\n      jumpi\n      0x00\n      dup1\n      revert\n    tag_189:\n      pop\n      tag_190\n      0x04\n      dup1\n      calldatasize\n      sub\n      dup2\n      add\n      swap1\n      tag_191\n      swap2\n      swap1\n      tag_130\n      jump\t// in\n    tag_191:\n      tag_192\n      jump\t// in\n    tag_190:\n      stop\n        /* \"contracts/cropsFarmer.sol\":886:915  uint256 public totalWithdrawn */\n    tag_25:\n      callvalue\n      dup1\n      iszero\n      tag_193\n      jumpi\n      0x00\n      dup1\n      revert\n    tag_193:\n      pop\n      tag_194\n      tag_195\n      jump\t// in\n    tag_194:\n      mload(0x40)\n      tag_196\n      swap2\n      swap1\n      tag_96\n      jump\t// in\n    tag_196:\n      mload(0x40)\n      dup1\n      swap2\n      sub\n      swap1\n      return\n        /* \"contracts/cropsFarmer.sol\":13160:13380  function getSiteInfo() public view returns (uint256 _totalStaked, uint256 _totalDeposits, uint256 _totalCompound, uint256 _totalRefBonus) {... */\n    tag_26:\n      callvalue\n      dup1\n      iszero\n      tag_197\n      jumpi\n      0x00\n      dup1\n      revert\n    tag_197:\n      pop\n      tag_198\n      tag_199\n      jump\t// in\n    tag_198:\n      mload(0x40)\n      tag_200\n      swap5\n      swap4\n      swap3\n      swap2\n      swap1\n      tag_201\n      jump\t// in\n    tag_200:\n      mload(0x40)\n      dup1\n      swap2\n      sub\n      swap1\n      return\n        /* \"contracts/cropsFarmer.sol\":9762:10145  function getDailyCompoundBonus(address _adr, uint256 amount) public view returns(uint256){... */\n    tag_27:\n      callvalue\n      dup1\n      iszero\n      tag_202\n      jumpi\n      0x00\n      dup1\n      revert\n    tag_202:\n      pop\n      tag_203\n      0x04\n      dup1\n      calldatasize\n      sub\n      dup2\n      add\n      swap1\n      tag_204\n      swap2\n      swap1\n      tag_205\n      jump\t// in\n    tag_204:\n      tag_206\n      jump\t// in\n    tag_203:\n      mload(0x40)\n      tag_207\n      swap2\n      swap1\n      tag_96\n      jump\t// in\n    tag_207:\n      mload(0x40)\n      dup1\n      swap2\n      sub\n      swap1\n      return\n        /* \"contracts/cropsFarmer.sol\":7498:9332  function hireFarmers(address ref) public payable{... */\n    tag_28:\n      tag_208\n      0x04\n      dup1\n      calldatasize\n      sub\n      dup2\n      add\n      swap1\n      tag_209\n      swap2\n      swap1\n      tag_135\n      jump\t// in\n    tag_209:\n      tag_210\n      jump\t// in\n    tag_208:\n      stop\n        /* \"contracts/cropsFarmer.sol\":15943:16125  function PRC_REFERRAL(uint256 value) external {... */\n    tag_29:\n      callvalue\n      dup1\n      iszero\n      tag_211\n      jumpi\n      0x00\n      dup1\n      revert\n    tag_211:\n      pop\n      tag_212\n      0x04\n      dup1\n      calldatasize\n      sub\n      dup2\n      add\n      swap1\n      tag_213\n      swap2\n      swap1\n      tag_130\n      jump\t// in\n    tag_213:\n      tag_214\n      jump\t// in\n    tag_212:\n      stop\n        /* \"contracts/cropsFarmer.sol\":5045:6542  function sellCrops() public{... */\n    tag_30:\n      callvalue\n      dup1\n      iszero\n      tag_215\n      jumpi\n      0x00\n      dup1\n      revert\n    tag_215:\n      pop\n      tag_216\n      tag_217\n      jump\t// in\n    tag_216:\n      stop\n        /* \"contracts/cropsFarmer.sol\":325:363  uint256 public MARKET_EGGS_DIVISOR = 2 */\n    tag_31:\n      callvalue\n      dup1\n      iszero\n      tag_218\n      jumpi\n      0x00\n      dup1\n      revert\n    tag_218:\n      pop\n      tag_219\n      tag_220\n      jump\t// in\n    tag_219:\n      mload(0x40)\n      tag_221\n      swap2\n      swap1\n      tag_96\n      jump\t// in\n    tag_221:\n      mload(0x40)\n      dup1\n      swap2\n      sub\n      swap1\n      return\n        /* \"contracts/cropsFarmer.sol\":10151:11137  function getUserInfo(address _adr) public view returns(uint256 _initialDeposit, uint256 _userDeposit, uint256 _miners,... */\n    tag_32:\n      callvalue\n      dup1\n      iszero\n      tag_222\n      jumpi\n      0x00\n      dup1\n      revert\n    tag_222:\n      pop\n      tag_223\n      0x04\n      dup1\n      calldatasize\n      sub\n      dup2\n      add\n      swap1\n      tag_224\n      swap2\n      swap1\n      tag_135\n      jump\t// in\n    tag_224:\n      tag_225\n      jump\t// in\n    tag_223:\n      mload(0x40)\n      tag_226\n      swap13\n      swap12\n      swap11\n      swap10\n      swap9\n      swap8\n      swap7\n      swap6\n      swap5\n      swap4\n      swap3\n      swap2\n      swap1\n      tag_227\n      jump\t// in\n    tag_226:\n      mload(0x40)\n      dup1\n      swap2\n      sub\n      swap1\n      return\n        /* \"contracts/cropsFarmer.sol\":11343:11551  function getAvailableEarnings(address _adr) public view returns(uint256) {... */\n    tag_33:\n      callvalue\n      dup1\n      iszero\n      tag_228\n      jumpi\n      0x00\n      dup1\n      revert\n    tag_228:\n      pop\n      tag_229\n      0x04\n      dup1\n      calldatasize\n      sub\n      dup2\n      add\n      swap1\n      tag_230\n      swap2\n      swap1\n      tag_135\n      jump\t// in\n    tag_230:\n      tag_231\n      jump\t// in\n    tag_229:\n      mload(0x40)\n      tag_232\n      swap2\n      swap1\n      tag_96\n      jump\t// in\n    tag_232:\n      mload(0x40)\n      dup1\n      swap2\n      sub\n      swap1\n      return\n        /* \"contracts/cropsFarmer.sol\":268:290  uint256 public TAX = 9 */\n    tag_34:\n      callvalue\n      dup1\n      iszero\n      tag_233\n      jumpi\n      0x00\n      dup1\n      revert\n    tag_233:\n      pop\n      tag_234\n      tag_235\n      jump\t// in\n    tag_234:\n      mload(0x40)\n      tag_236\n      swap2\n      swap1\n      tag_96\n      jump\t// in\n    tag_236:\n      mload(0x40)\n      dup1\n      swap2\n      sub\n      swap1\n      return\n        /* \"contracts/cropsFarmer.sol\":852:880  uint256 public totalRefBonus */\n    tag_35:\n      callvalue\n      dup1\n      iszero\n      tag_237\n      jumpi\n      0x00\n      dup1\n      revert\n    tag_237:\n      pop\n      tag_238\n      tag_239\n      jump\t// in\n    tag_238:\n      mload(0x40)\n      tag_240\n      swap2\n      swap1\n      tag_96\n      jump\t// in\n    tag_240:\n      mload(0x40)\n      dup1\n      swap2\n      sub\n      swap1\n      return\n        /* \"contracts/cropsFarmer.sol\":16510:16706  function BONUS_DAILY_COMPOUND(uint256 value) external {... */\n    tag_36:\n      callvalue\n      dup1\n      iszero\n      tag_241\n      jumpi\n      0x00\n      dup1\n      revert\n    tag_241:\n      pop\n      tag_242\n      0x04\n      dup1\n      calldatasize\n      sub\n      dup2\n      add\n      swap1\n      tag_243\n      swap2\n      swap1\n      tag_130\n      jump\t// in\n    tag_243:\n      tag_244\n      jump\t// in\n    tag_242:\n      stop\n        /* \"contracts/cropsFarmer.sol\":599:642  uint256 public COMPOUND_STEP = 12 * 60 * 60 */\n    tag_37:\n      callvalue\n      dup1\n      iszero\n      tag_245\n      jumpi\n      0x00\n      dup1\n      revert\n    tag_245:\n      pop\n      tag_246\n      tag_247\n      jump\t// in\n    tag_246:\n      mload(0x40)\n      tag_248\n      swap2\n      swap1\n      tag_96\n      jump\t// in\n    tag_248:\n      mload(0x40)\n      dup1\n      swap2\n      sub\n      swap1\n      return\n        /* \"contracts/cropsFarmer.sol\":16131:16319  function PRC_MARKET_EGGS_DIVISOR(uint256 value) external {... */\n    tag_38:\n      callvalue\n      dup1\n      iszero\n      tag_249\n      jumpi\n      0x00\n      dup1\n      revert\n    tag_249:\n      pop\n      tag_250\n      0x04\n      dup1\n      calldatasize\n      sub\n      dup2\n      add\n      swap1\n      tag_251\n      swap2\n      swap1\n      tag_130\n      jump\t// in\n    tag_251:\n      tag_252\n      jump\t// in\n    tag_250:\n      stop\n        /* \"contracts/cropsFarmer.sol\":17269:17420  function SET_CUTOFF_STEP(uint256 value) external {... */\n    tag_39:\n      callvalue\n      dup1\n      iszero\n      tag_253\n      jumpi\n      0x00\n      dup1\n      revert\n    tag_253:\n      pop\n      tag_254\n      0x04\n      dup1\n      calldatasize\n      sub\n      dup2\n      add\n      swap1\n      tag_255\n      swap2\n      swap1\n      tag_130\n      jump\t// in\n    tag_255:\n      tag_256\n      jump\t// in\n    tag_254:\n      stop\n        /* \"contracts/cropsFarmer.sol\":1590:1616  address payable public mkt */\n    tag_40:\n      callvalue\n      dup1\n      iszero\n      tag_257\n      jumpi\n      0x00\n      dup1\n      revert\n    tag_257:\n      pop\n      tag_258\n      tag_259\n      jump\t// in\n    tag_258:\n      mload(0x40)\n      tag_260\n      swap2\n      swap1\n      tag_105\n      jump\t// in\n    tag_260:\n      mload(0x40)\n      dup1\n      swap2\n      sub\n      swap1\n      return\n        /* \"contracts/cropsFarmer.sol\":784:812  uint256 public totalDeposits */\n    tag_41:\n      callvalue\n      dup1\n      iszero\n      tag_261\n      jumpi\n      0x00\n      dup1\n      revert\n    tag_261:\n      pop\n      tag_262\n      tag_263\n      jump\t// in\n    tag_262:\n      mload(0x40)\n      tag_264\n      swap2\n      swap1\n      tag_96\n      jump\t// in\n    tag_264:\n      mload(0x40)\n      dup1\n      swap2\n      sub\n      swap1\n      return\n        /* \"contracts/cropsFarmer.sol\":818:846  uint256 public totalCompound */\n    tag_42:\n      callvalue\n      dup1\n      iszero\n      tag_265\n      jumpi\n      0x00\n      dup1\n      revert\n    tag_265:\n      pop\n      tag_266\n      tag_267\n      jump\t// in\n    tag_266:\n      mload(0x40)\n      tag_268\n      swap2\n      swap1\n      tag_96\n      jump\t// in\n    tag_268:\n      mload(0x40)\n      dup1\n      swap2\n      sub\n      swap1\n      return\n        /* \"contracts/cropsFarmer.sol\":12323:12453  function calculateEggBuySimple(uint256 eth) public view returns(uint256){... */\n    tag_43:\n      callvalue\n      dup1\n      iszero\n      tag_269\n      jumpi\n      0x00\n      dup1\n      revert\n    tag_269:\n      pop\n      tag_270\n      0x04\n      dup1\n      calldatasize\n      sub\n      dup2\n      add\n      swap1\n      tag_271\n      swap2\n      swap1\n      tag_130\n      jump\t// in\n    tag_271:\n      tag_272\n      jump\t// in\n    tag_270:\n      mload(0x40)\n      tag_273\n      swap2\n      swap1\n      tag_96\n      jump\t// in\n    tag_273:\n      mload(0x40)\n      dup1\n      swap2\n      sub\n      swap1\n      return\n        /* \"contracts/cropsFarmer.sol\":17625:17824  function SET_WALLET_DEPOSIT_LIMIT(uint256 value) external {... */\n    tag_44:\n      callvalue\n      dup1\n      iszero\n      tag_274\n      jumpi\n      0x00\n      dup1\n      revert\n    tag_274:\n      pop\n      tag_275\n      0x04\n      dup1\n      calldatasize\n      sub\n      dup2\n      add\n      swap1\n      tag_276\n      swap2\n      swap1\n      tag_130\n      jump\t// in\n    tag_276:\n      tag_277\n      jump\t// in\n    tag_275:\n      stop\n        /* \"contracts/cropsFarmer.sol\":1454:1481  address payable public dev2 */\n    tag_45:\n      callvalue\n      dup1\n      iszero\n      tag_278\n      jumpi\n      0x00\n      dup1\n      revert\n    tag_278:\n      pop\n      tag_279\n      tag_280\n      jump\t// in\n    tag_279:\n      mload(0x40)\n      tag_281\n      swap2\n      swap1\n      tag_105\n      jump\t// in\n    tag_281:\n      mload(0x40)\n      dup1\n      swap2\n      sub\n      swap1\n      return\n        /* \"contracts/cropsFarmer.sol\":752:778  uint256 public totalStaked */\n    tag_46:\n      callvalue\n      dup1\n      iszero\n      tag_282\n      jumpi\n      0x00\n      dup1\n      revert\n    tag_282:\n      pop\n      tag_283\n      tag_284\n      jump\t// in\n    tag_283:\n      mload(0x40)\n      tag_285\n      swap2\n      swap1\n      tag_96\n      jump\t// in\n    tag_285:\n      mload(0x40)\n      dup1\n      swap2\n      sub\n      swap1\n      return\n        /* \"contracts/cropsFarmer.sol\":1555:1584  address payable public prtnr2 */\n    tag_47:\n      callvalue\n      dup1\n      iszero\n      tag_286\n      jumpi\n      0x00\n      dup1\n      revert\n    tag_286:\n      pop\n      tag_287\n      tag_288\n      jump\t// in\n    tag_287:\n      mload(0x40)\n      tag_289\n      swap2\n      swap1\n      tag_105\n      jump\t// in\n    tag_289:\n      mload(0x40)\n      dup1\n      swap2\n      sub\n      swap1\n      return\n        /* \"contracts/cropsFarmer.sol\":1395:1415  address public owner */\n    tag_48:\n      callvalue\n      dup1\n      iszero\n      tag_290\n      jumpi\n      0x00\n      dup1\n      revert\n    tag_290:\n      pop\n      tag_291\n      tag_292\n      jump\t// in\n    tag_291:\n      mload(0x40)\n      tag_293\n      swap2\n      swap1\n      tag_294\n      jump\t// in\n    tag_293:\n      mload(0x40)\n      dup1\n      swap2\n      sub\n      swap1\n      return\n        /* \"contracts/cropsFarmer.sol\":12011:12149  function calculateEggSell(uint256 eggs) public view returns(uint256){... */\n    tag_49:\n      callvalue\n      dup1\n      iszero\n      tag_295\n      jumpi\n      0x00\n      dup1\n      revert\n    tag_295:\n      pop\n      tag_296\n      0x04\n      dup1\n      calldatasize\n      sub\n      dup2\n      add\n      swap1\n      tag_297\n      swap2\n      swap1\n      tag_130\n      jump\t// in\n    tag_297:\n      tag_298\n      jump\t// in\n    tag_296:\n      mload(0x40)\n      tag_299\n      swap2\n      swap1\n      tag_96\n      jump\t// in\n    tag_299:\n      mload(0x40)\n      dup1\n      swap2\n      sub\n      swap1\n      return\n        /* \"contracts/cropsFarmer.sol\":1322:1368  uint256 public WITHDRAW_COOLDOWN = 4 * 60 * 60 */\n    tag_50:\n      callvalue\n      dup1\n      iszero\n      tag_300\n      jumpi\n      0x00\n      dup1\n      revert\n    tag_300:\n      pop\n      tag_301\n      tag_302\n      jump\t// in\n    tag_301:\n      mload(0x40)\n      tag_303\n      swap2\n      swap1\n      tag_96\n      jump\t// in\n    tag_303:\n      mload(0x40)\n      dup1\n      swap2\n      sub\n      swap1\n      return\n        /* \"contracts/cropsFarmer.sol\":16924:17112  function BONUS_COMPOUND_STEP(uint256 value) external {... */\n    tag_51:\n      callvalue\n      dup1\n      iszero\n      tag_304\n      jumpi\n      0x00\n      dup1\n      revert\n    tag_304:\n      pop\n      tag_305\n      0x04\n      dup1\n      calldatasize\n      sub\n      dup2\n      add\n      swap1\n      tag_306\n      swap2\n      swap1\n      tag_130\n      jump\t// in\n    tag_306:\n      tag_307\n      jump\t// in\n    tag_305:\n      stop\n        /* \"contracts/cropsFarmer.sol\":16712:16918  function BONUS_DAILY_COMPOUND_BONUS_MAX_TIMES(uint256 value) external {... */\n    tag_52:\n      callvalue\n      dup1\n      iszero\n      tag_308\n      jumpi\n      0x00\n      dup1\n      revert\n    tag_308:\n      pop\n      tag_309\n      0x04\n      dup1\n      calldatasize\n      sub\n      dup2\n      add\n      swap1\n      tag_310\n      swap2\n      swap1\n      tag_130\n      jump\t// in\n    tag_310:\n      tag_311\n      jump\t// in\n    tag_309:\n      stop\n        /* \"contracts/cropsFarmer.sol\":1228:1271  mapping(address => uint) public total_Bonus */\n    tag_53:\n      callvalue\n      dup1\n      iszero\n      tag_312\n      jumpi\n      0x00\n      dup1\n      revert\n    tag_312:\n      pop\n      tag_313\n      0x04\n      dup1\n      calldatasize\n      sub\n      dup2\n      add\n      swap1\n      tag_314\n      swap2\n      swap1\n      tag_135\n      jump\t// in\n    tag_314:\n      tag_315\n      jump\t// in\n    tag_313:\n      mload(0x40)\n      tag_316\n      swap2\n      swap1\n      tag_96\n      jump\t// in\n    tag_316:\n      mload(0x40)\n      dup1\n      swap2\n      sub\n      swap1\n      return\n        /* \"contracts/cropsFarmer.sol\":2492:2641  function setblacklistActive(bool isActive) public{... */\n    tag_54:\n      callvalue\n      dup1\n      iszero\n      tag_317\n      jumpi\n      0x00\n      dup1\n      revert\n    tag_317:\n      pop\n      tag_318\n      0x04\n      dup1\n      calldatasize\n      sub\n      dup2\n      add\n      swap1\n      tag_319\n      swap2\n      swap1\n      tag_121\n      jump\t// in\n    tag_319:\n      tag_320\n      jump\t// in\n    tag_318:\n      stop\n        /* \"contracts/cropsFarmer.sol\":1421:1448  address payable public dev1 */\n    tag_55:\n      callvalue\n      dup1\n      iszero\n      tag_321\n      jumpi\n      0x00\n      dup1\n      revert\n    tag_321:\n      pop\n      tag_322\n      tag_323\n      jump\t// in\n    tag_322:\n      mload(0x40)\n      tag_324\n      swap2\n      swap1\n      tag_105\n      jump\t// in\n    tag_324:\n      mload(0x40)\n      dup1\n      swap2\n      sub\n      swap1\n      return\n        /* \"contracts/cropsFarmer.sol\":2082:2119  mapping(address => User) public users */\n    tag_56:\n      callvalue\n      dup1\n      iszero\n      tag_325\n      jumpi\n      0x00\n      dup1\n      revert\n    tag_325:\n      pop\n      tag_326\n      0x04\n      dup1\n      calldatasize\n      sub\n      dup2\n      add\n      swap1\n      tag_327\n      swap2\n      swap1\n      tag_135\n      jump\t// in\n    tag_327:\n      tag_328\n      jump\t// in\n    tag_326:\n      mload(0x40)\n      tag_329\n      swap13\n      swap12\n      swap11\n      swap10\n      swap9\n      swap8\n      swap7\n      swap6\n      swap5\n      swap4\n      swap3\n      swap2\n      swap1\n      tag_227\n      jump\t// in\n    tag_329:\n      mload(0x40)\n      dup1\n      swap2\n      sub\n      swap1\n      return\n        /* \"contracts/cropsFarmer.sol\":1125:1169  mapping(address => uint) public firstDeposit */\n    tag_57:\n      callvalue\n      dup1\n      iszero\n      tag_330\n      jumpi\n      0x00\n      dup1\n      revert\n    tag_330:\n      pop\n      tag_331\n      0x04\n      dup1\n      calldatasize\n      sub\n      dup2\n      add\n      swap1\n      tag_332\n      swap2\n      swap1\n      tag_135\n      jump\t// in\n    tag_332:\n      tag_333\n      jump\t// in\n    tag_331:\n      mload(0x40)\n      tag_334\n      swap2\n      swap1\n      tag_96\n      jump\t// in\n    tag_334:\n      mload(0x40)\n      dup1\n      swap2\n      sub\n      swap1\n      return\n        /* \"contracts/cropsFarmer.sol\":1036:1070  bool public blacklistActive = true */\n    tag_58:\n      callvalue\n      dup1\n      iszero\n      tag_335\n      jumpi\n      0x00\n      dup1\n      revert\n    tag_335:\n      pop\n      tag_336\n      tag_337\n      jump\t// in\n    tag_336:\n      mload(0x40)\n      tag_338\n      swap2\n      swap1\n      tag_174\n      jump\t// in\n    tag_338:\n      mload(0x40)\n      dup1\n      swap2\n      sub\n      swap1\n      return\n        /* \"contracts/cropsFarmer.sol\":3663:3706  function fundContract() external payable {} */\n    tag_59:\n      tag_339\n      tag_340\n      jump\t// in\n    tag_339:\n      stop\n        /* \"contracts/cropsFarmer.sol\":12543:12976  function getEggsYield(uint256 amount) public view returns(uint256,uint256) {... */\n    tag_60:\n      callvalue\n      dup1\n      iszero\n      tag_341\n      jumpi\n      0x00\n      dup1\n      revert\n    tag_341:\n      pop\n      tag_342\n      0x04\n      dup1\n      calldatasize\n      sub\n      dup2\n      add\n      swap1\n      tag_343\n      swap2\n      swap1\n      tag_130\n      jump\t// in\n    tag_343:\n      tag_344\n      jump\t// in\n    tag_342:\n      mload(0x40)\n      tag_345\n      swap3\n      swap2\n      swap1\n      tag_346\n      jump\t// in\n    tag_345:\n      mload(0x40)\n      dup1\n      swap2\n      sub\n      swap1\n      return\n        /* \"contracts/cropsFarmer.sol\":16325:16504  function SET_WITHDRAWAL_TAX(uint256 value) external {... */\n    tag_61:\n      callvalue\n      dup1\n      iszero\n      tag_347\n      jumpi\n      0x00\n      dup1\n      revert\n    tag_347:\n      pop\n      tag_348\n      0x04\n      dup1\n      calldatasize\n      sub\n      dup2\n      add\n      swap1\n      tag_349\n      swap2\n      swap1\n      tag_130\n      jump\t// in\n    tag_349:\n      tag_350\n      jump\t// in\n    tag_348:\n      stop\n        /* \"contracts/cropsFarmer.sol\":3097:3285  function checkIfBlacklisted(address Wallet) public view returns(bool blacklisted){... */\n    tag_62:\n      callvalue\n      dup1\n      iszero\n      tag_351\n      jumpi\n      0x00\n      dup1\n      revert\n    tag_351:\n      pop\n      tag_352\n      0x04\n      dup1\n      calldatasize\n      sub\n      dup2\n      add\n      swap1\n      tag_353\n      swap2\n      swap1\n      tag_135\n      jump\t// in\n    tag_353:\n      tag_354\n      jump\t// in\n    tag_352:\n      mload(0x40)\n      tag_355\n      swap2\n      swap1\n      tag_174\n      jump\t// in\n    tag_355:\n      mload(0x40)\n      dup1\n      swap2\n      sub\n      swap1\n      return\n        /* \"contracts/cropsFarmer.sol\":190:218  uint256 public REFERRAL = 70 */\n    tag_63:\n      callvalue\n      dup1\n      iszero\n      tag_356\n      jumpi\n      0x00\n      dup1\n      revert\n    tag_356:\n      pop\n      tag_357\n      tag_358\n      jump\t// in\n    tag_357:\n      mload(0x40)\n      tag_359\n      swap2\n      swap1\n      tag_96\n      jump\t// in\n    tag_359:\n      mload(0x40)\n      dup1\n      swap2\n      sub\n      swap1\n      return\n        /* \"contracts/cropsFarmer.sol\":549:593  uint256 public COMPOUND_BONUS_MAX_TIMES = 10 */\n    tag_64:\n      callvalue\n      dup1\n      iszero\n      tag_360\n      jumpi\n      0x00\n      dup1\n      revert\n    tag_360:\n      pop\n      tag_361\n      tag_362\n      jump\t// in\n    tag_361:\n      mload(0x40)\n      tag_363\n      swap2\n      swap1\n      tag_96\n      jump\t// in\n    tag_363:\n      mload(0x40)\n      dup1\n      swap2\n      sub\n      swap1\n      return\n        /* \"contracts/cropsFarmer.sol\":12982:13154  function calculateEggSellForYield(uint256 eggs,uint256 amount) public view returns(uint256){... */\n    tag_65:\n      callvalue\n      dup1\n      iszero\n      tag_364\n      jumpi\n      0x00\n      dup1\n      revert\n    tag_364:\n      pop\n      tag_365\n      0x04\n      dup1\n      calldatasize\n      sub\n      dup2\n      add\n      swap1\n      tag_366\n      swap2\n      swap1\n      tag_151\n      jump\t// in\n    tag_366:\n      tag_367\n      jump\t// in\n    tag_365:\n      mload(0x40)\n      tag_368\n      swap2\n      swap1\n      tag_96\n      jump\t// in\n    tag_368:\n      mload(0x40)\n      dup1\n      swap2\n      sub\n      swap1\n      return\n        /* \"contracts/cropsFarmer.sol\":370:421  uint256 public MIN_INVEST_LIMIT = 30000000000000000 */\n    tag_66:\n      callvalue\n      dup1\n      iszero\n      tag_369\n      jumpi\n      0x00\n      dup1\n      revert\n    tag_369:\n      pop\n      tag_370\n      tag_371\n      jump\t// in\n    tag_370:\n      mload(0x40)\n      tag_372\n      swap2\n      swap1\n      tag_96\n      jump\t// in\n    tag_372:\n      mload(0x40)\n      dup1\n      swap2\n      sub\n      swap1\n      return\n        /* \"contracts/cropsFarmer.sol\":512:546  uint256 public COMPOUND_BONUS = 20 */\n    tag_67:\n      callvalue\n      dup1\n      iszero\n      tag_373\n      jumpi\n      0x00\n      dup1\n      revert\n    tag_373:\n      pop\n      tag_374\n      tag_375\n      jump\t// in\n    tag_374:\n      mload(0x40)\n      tag_376\n      swap2\n      swap1\n      tag_96\n      jump\t// in\n    tag_376:\n      mload(0x40)\n      dup1\n      swap2\n      sub\n      swap1\n      return\n        /* \"contracts/cropsFarmer.sol\":13638:14044  function getEggsSinceLastHatch(address adr) public view returns(uint256){... */\n    tag_68:\n      callvalue\n      dup1\n      iszero\n      tag_377\n      jumpi\n      0x00\n      dup1\n      revert\n    tag_377:\n      pop\n      tag_378\n      0x04\n      dup1\n      calldatasize\n      sub\n      dup2\n      add\n      swap1\n      tag_379\n      swap2\n      swap1\n      tag_135\n      jump\t// in\n    tag_379:\n      tag_380\n      jump\t// in\n    tag_378:\n      mload(0x40)\n      tag_381\n      swap2\n      swap1\n      tag_96\n      jump\t// in\n    tag_381:\n      mload(0x40)\n      dup1\n      swap2\n      sub\n      swap1\n      return\n        /* \"contracts/cropsFarmer.sol\":2647:2823  function blackListWallet(address Wallet, bool isBlacklisted) public{... */\n    tag_69:\n      callvalue\n      dup1\n      iszero\n      tag_382\n      jumpi\n      0x00\n      dup1\n      revert\n    tag_382:\n      pop\n      tag_383\n      0x04\n      dup1\n      calldatasize\n      sub\n      dup2\n      add\n      swap1\n      tag_384\n      swap2\n      swap1\n      tag_385\n      jump\t// in\n    tag_384:\n      tag_386\n      jump\t// in\n    tag_383:\n      stop\n        /* \"contracts/cropsFarmer.sol\":11244:11337  function getTimeStamp() public view returns (uint256) {... */\n    tag_70:\n      callvalue\n      dup1\n      iszero\n      tag_387\n      jumpi\n      0x00\n      dup1\n      revert\n    tag_387:\n      pop\n      tag_388\n      tag_389\n      jump\t// in\n    tag_388:\n      mload(0x40)\n      tag_390\n      swap2\n      swap1\n      tag_96\n      jump\t// in\n    tag_390:\n      mload(0x40)\n      dup1\n      swap2\n      sub\n      swap1\n      return\n        /* \"contracts/cropsFarmer.sol\":3291:3613  function startFarm(address addr) public payable{... */\n    tag_71:\n      tag_391\n      0x04\n      dup1\n      calldatasize\n      sub\n      dup2\n      add\n      swap1\n      tag_392\n      swap2\n      swap1\n      tag_135\n      jump\t// in\n    tag_392:\n      tag_393\n      jump\t// in\n    tag_391:\n      stop\n        /* \"contracts/cropsFarmer.sol\":15378:15613  function PRC_EGGS_TO_HIRE_1MINERS(uint256 value) external {... */\n    tag_72:\n      callvalue\n      dup1\n      iszero\n      tag_394\n      jumpi\n      0x00\n      dup1\n      revert\n    tag_394:\n      pop\n      tag_395\n      0x04\n      dup1\n      calldatasize\n      sub\n      dup2\n      add\n      swap1\n      tag_396\n      swap2\n      swap1\n      tag_130\n      jump\t// in\n    tag_396:\n      tag_397\n      jump\t// in\n    tag_395:\n      stop\n        /* \"contracts/cropsFarmer.sol\":17834:18044  function SET_COMPOUND_FOR_NO_TAX_WITHDRAWAL(uint256 value) external {... */\n    tag_73:\n      callvalue\n      dup1\n      iszero\n      tag_398\n      jumpi\n      0x00\n      dup1\n      revert\n    tag_398:\n      pop\n      tag_399\n      0x04\n      dup1\n      calldatasize\n      sub\n      dup2\n      add\n      swap1\n      tag_400\n      swap2\n      swap1\n      tag_130\n      jump\t// in\n    tag_400:\n      tag_401\n      jump\t// in\n    tag_399:\n      stop\n        /* \"contracts/cropsFarmer.sol\":2829:3091  function blackMultipleWallets(address[] calldata Wallet, bool isBlacklisted) public{... */\n    tag_74:\n      callvalue\n      dup1\n      iszero\n      tag_402\n      jumpi\n      0x00\n      dup1\n      revert\n    tag_402:\n      pop\n      tag_403\n      0x04\n      dup1\n      calldatasize\n      sub\n      dup2\n      add\n      swap1\n      tag_404\n      swap2\n      swap1\n      tag_405\n      jump\t// in\n    tag_404:\n      tag_406\n      jump\t// in\n    tag_403:\n      stop\n        /* \"contracts/cropsFarmer.sol\":695:745  uint256 public COMPOUND_FOR_NO_TAX_WITHDRAWAL = 10 */\n    tag_75:\n      callvalue\n      dup1\n      iszero\n      tag_407\n      jumpi\n      0x00\n      dup1\n      revert\n    tag_407:\n      pop\n      tag_408\n      tag_409\n      jump\t// in\n    tag_408:\n      mload(0x40)\n      tag_410\n      swap2\n      swap1\n      tag_96\n      jump\t// in\n    tag_410:\n      mload(0x40)\n      dup1\n      swap2\n      sub\n      swap1\n      return\n        /* \"contracts/cropsFarmer.sol\":1076:1119  mapping(address => bool) public Blacklisted */\n    tag_76:\n      callvalue\n      dup1\n      iszero\n      tag_411\n      jumpi\n      0x00\n      dup1\n      revert\n    tag_411:\n      pop\n      tag_412\n      0x04\n      dup1\n      calldatasize\n      sub\n      dup2\n      add\n      swap1\n      tag_413\n      swap2\n      swap1\n      tag_135\n      jump\t// in\n    tag_413:\n      tag_414\n      jump\t// in\n    tag_412:\n      mload(0x40)\n      tag_415\n      swap2\n      swap1\n      tag_174\n      jump\t// in\n    tag_415:\n      mload(0x40)\n      dup1\n      swap2\n      sub\n      swap1\n      return\n        /* \"contracts/cropsFarmer.sol\":224:262  uint256 public PERCENTS_DIVIDER = 1000 */\n    tag_94:\n      sload(0x02)\n      dup2\n      jump\t// out\n        /* \"contracts/cropsFarmer.sol\":649:684  uint256 public WITHDRAWAL_TAX = 350 */\n    tag_99:\n      sload(0x0b)\n      dup2\n      jump\t// out\n        /* \"contracts/cropsFarmer.sol\":1520:1549  address payable public prtnr1 */\n    tag_103:\n      0x20\n      0x00\n      swap1\n      sload\n      swap1\n      0x0100\n      exp\n      swap1\n      div\n      0xffffffffffffffffffffffffffffffffffffffff\n      and\n      dup2\n      jump\t// out\n        /* \"contracts/cropsFarmer.sol\":13386:13485  function getMyMiners() public view returns(uint256){... */\n    tag_108:\n        /* \"contracts/cropsFarmer.sol\":13429:13436  uint256 */\n      0x00\n        /* \"contracts/cropsFarmer.sol\":13454:13459  users */\n      0x23\n        /* \"contracts/cropsFarmer.sol\":13454:13471  users[msg.sender] */\n      0x00\n        /* \"contracts/cropsFarmer.sol\":13460:13470  msg.sender */\n      caller\n        /* \"contracts/cropsFarmer.sol\":13454:13471  users[msg.sender] */\n      0xffffffffffffffffffffffffffffffffffffffff\n      and\n      0xffffffffffffffffffffffffffffffffffffffff\n      and\n      dup2\n      mstore\n      0x20\n      add\n      swap1\n      dup2\n      mstore\n      0x20\n      add\n      0x00\n      keccak256\n        /* \"contracts/cropsFarmer.sol\":13454:13478  users[msg.sender].miners */\n      0x02\n      add\n      sload\n        /* \"contracts/cropsFarmer.sol\":13447:13478  return users[msg.sender].miners */\n      swap1\n      pop\n        /* \"contracts/cropsFarmer.sol\":13386:13485  function getMyMiners() public view returns(uint256){... */\n      swap1\n      jump\t// out\n        /* \"contracts/cropsFarmer.sol\":11143:11238  function getBalance() public view returns(uint256){... */\n    tag_112:\n        /* \"contracts/cropsFarmer.sol\":11185:11192  uint256 */\n      0x00\n        /* \"contracts/cropsFarmer.sol\":11210:11231  address(this).balance */\n      selfbalance\n        /* \"contracts/cropsFarmer.sol\":11203:11231  return address(this).balance */\n      swap1\n      pop\n        /* \"contracts/cropsFarmer.sol\":11143:11238  function getBalance() public view returns(uint256){... */\n      swap1\n      jump\t// out\n        /* \"contracts/cropsFarmer.sol\":445:492  uint256 public WALLET_DEPOSIT_LIMIT = 25 * 1e18 */\n    tag_116:\n      sload(0x07)\n      dup2\n      jump\t// out\n        /* \"contracts/cropsFarmer.sol\":3712:5039  function hireMoreFarmers(bool isCompound) public {... */\n    tag_122:\n        /* \"contracts/cropsFarmer.sol\":3771:3788  User storage user */\n      0x00\n        /* \"contracts/cropsFarmer.sol\":3791:3796  users */\n      0x23\n        /* \"contracts/cropsFarmer.sol\":3791:3808  users[msg.sender] */\n      0x00\n        /* \"contracts/cropsFarmer.sol\":3797:3807  msg.sender */\n      caller\n        /* \"contracts/cropsFarmer.sol\":3791:3808  users[msg.sender] */\n      0xffffffffffffffffffffffffffffffffffffffff\n      and\n      0xffffffffffffffffffffffffffffffffffffffff\n      and\n      dup2\n      mstore\n      0x20\n      add\n      swap1\n      dup2\n      mstore\n      0x20\n      add\n      0x00\n      keccak256\n        /* \"contracts/cropsFarmer.sol\":3771:3808  User storage user = users[msg.sender] */\n      swap1\n      pop\n        /* \"contracts/cropsFarmer.sol\":3826:3841  contractStarted */\n      0x15\n      0x00\n      swap1\n      sload\n      swap1\n      0x0100\n      exp\n      swap1\n      div\n      0xff\n      and\n        /* \"contracts/cropsFarmer.sol\":3818:3871  require(contractStarted, \"Contract not yet Started.\") */\n      tag_419\n      jumpi\n      mload(0x40)\n      0x08c379a000000000000000000000000000000000000000000000000000000000\n      dup2\n      mstore\n      0x04\n      add\n      tag_420\n      swap1\n      tag_421\n      jump\t// in\n    tag_420:\n      mload(0x40)\n      dup1\n      swap2\n      sub\n      swap1\n      revert\n    tag_419:\n        /* \"contracts/cropsFarmer.sol\":3882:3898  uint256 eggsUsed */\n      0x00\n        /* \"contracts/cropsFarmer.sol\":3901:3912  getMyEggs() */\n      tag_422\n        /* \"contracts/cropsFarmer.sol\":3901:3910  getMyEggs */\n      tag_183\n        /* \"contracts/cropsFarmer.sol\":3901:3912  getMyEggs() */\n      jump\t// in\n    tag_422:\n        /* \"contracts/cropsFarmer.sol\":3882:3912  uint256 eggsUsed = getMyEggs() */\n      swap1\n      pop\n        /* \"contracts/cropsFarmer.sol\":3922:3945  uint256 eggsForCompound */\n      0x00\n        /* \"contracts/cropsFarmer.sol\":3948:3956  eggsUsed */\n      dup2\n        /* \"contracts/cropsFarmer.sol\":3922:3956  uint256 eggsForCompound = eggsUsed */\n      swap1\n      pop\n        /* \"contracts/cropsFarmer.sol\":3970:3980  isCompound */\n      dup4\n        /* \"contracts/cropsFarmer.sol\":3967:4358  if(isCompound) {... */\n      iszero\n      tag_423\n      jumpi\n        /* \"contracts/cropsFarmer.sol\":3996:4022  uint256 dailyCompoundBonus */\n      0x00\n        /* \"contracts/cropsFarmer.sol\":4025:4075  getDailyCompoundBonus(msg.sender, eggsForCompound) */\n      tag_424\n        /* \"contracts/cropsFarmer.sol\":4047:4057  msg.sender */\n      caller\n        /* \"contracts/cropsFarmer.sol\":4059:4074  eggsForCompound */\n      dup4\n        /* \"contracts/cropsFarmer.sol\":4025:4046  getDailyCompoundBonus */\n      tag_206\n        /* \"contracts/cropsFarmer.sol\":4025:4075  getDailyCompoundBonus(msg.sender, eggsForCompound) */\n      jump\t// in\n    tag_424:\n        /* \"contracts/cropsFarmer.sol\":3996:4075  uint256 dailyCompoundBonus = getDailyCompoundBonus(msg.sender, eggsForCompound) */\n      swap1\n      pop\n        /* \"contracts/cropsFarmer.sol\":4107:4146  eggsForCompound.add(dailyCompoundBonus) */\n      tag_425\n        /* \"contracts/cropsFarmer.sol\":4127:4145  dailyCompoundBonus */\n      dup2\n        /* \"contracts/cropsFarmer.sol\":4107:4122  eggsForCompound */\n      dup4\n        /* \"contracts/cropsFarmer.sol\":4107:4126  eggsForCompound.add */\n      tag_426\n      swap1\n        /* \"contracts/cropsFarmer.sol\":4107:4146  eggsForCompound.add(dailyCompoundBonus) */\n      swap2\n      swap1\n      0xffffffff\n      and\n      jump\t// in\n    tag_425:\n        /* \"contracts/cropsFarmer.sol\":4089:4146  eggsForCompound = eggsForCompound.add(dailyCompoundBonus) */\n      swap2\n      pop\n        /* \"contracts/cropsFarmer.sol\":4160:4181  uint256 eggsUsedValue */\n      0x00\n        /* \"contracts/cropsFarmer.sol\":4184:4217  calculateEggSell(eggsForCompound) */\n      tag_427\n        /* \"contracts/cropsFarmer.sol\":4201:4216  eggsForCompound */\n      dup4\n        /* \"contracts/cropsFarmer.sol\":4184:4200  calculateEggSell */\n      tag_298\n        /* \"contracts/cropsFarmer.sol\":4184:4217  calculateEggSell(eggsForCompound) */\n      jump\t// in\n    tag_427:\n        /* \"contracts/cropsFarmer.sol\":4160:4217  uint256 eggsUsedValue = calculateEggSell(eggsForCompound) */\n      swap1\n      pop\n        /* \"contracts/cropsFarmer.sol\":4250:4285  user.userDeposit.add(eggsUsedValue) */\n      tag_428\n        /* \"contracts/cropsFarmer.sol\":4271:4284  eggsUsedValue */\n      dup2\n        /* \"contracts/cropsFarmer.sol\":4250:4254  user */\n      dup7\n        /* \"contracts/cropsFarmer.sol\":4250:4266  user.userDeposit */\n      0x01\n      add\n      sload\n        /* \"contracts/cropsFarmer.sol\":4250:4270  user.userDeposit.add */\n      tag_426\n      swap1\n        /* \"contracts/cropsFarmer.sol\":4250:4285  user.userDeposit.add(eggsUsedValue) */\n      swap2\n      swap1\n      0xffffffff\n      and\n      jump\t// in\n    tag_428:\n        /* \"contracts/cropsFarmer.sol\":4231:4235  user */\n      dup6\n        /* \"contracts/cropsFarmer.sol\":4231:4247  user.userDeposit */\n      0x01\n      add\n        /* \"contracts/cropsFarmer.sol\":4231:4285  user.userDeposit = user.userDeposit.add(eggsUsedValue) */\n      dup2\n      swap1\n      sstore\n      pop\n        /* \"contracts/cropsFarmer.sol\":4315:4347  totalCompound.add(eggsUsedValue) */\n      tag_429\n        /* \"contracts/cropsFarmer.sol\":4333:4346  eggsUsedValue */\n      dup2\n        /* \"contracts/cropsFarmer.sol\":4315:4328  totalCompound */\n      sload(0x0f)\n        /* \"contracts/cropsFarmer.sol\":4315:4332  totalCompound.add */\n      tag_426\n      swap1\n        /* \"contracts/cropsFarmer.sol\":4315:4347  totalCompound.add(eggsUsedValue) */\n      swap2\n      swap1\n      0xffffffff\n      and\n      jump\t// in\n    tag_429:\n        /* \"contracts/cropsFarmer.sol\":4299:4312  totalCompound */\n      0x0f\n        /* \"contracts/cropsFarmer.sol\":4299:4347  totalCompound = totalCompound.add(eggsUsedValue) */\n      dup2\n      swap1\n      sstore\n      pop\n        /* \"contracts/cropsFarmer.sol\":3982:4358  {... */\n      pop\n      pop\n        /* \"contracts/cropsFarmer.sol\":3967:4358  if(isCompound) {... */\n    tag_423:\n        /* \"contracts/cropsFarmer.sol\":4411:4424  COMPOUND_STEP */\n      sload(0x0a)\n        /* \"contracts/cropsFarmer.sol\":4372:4407  block.timestamp.sub(user.lastHatch) */\n      tag_430\n        /* \"contracts/cropsFarmer.sol\":4392:4396  user */\n      dup5\n        /* \"contracts/cropsFarmer.sol\":4392:4406  user.lastHatch */\n      0x04\n      add\n      sload\n        /* \"contracts/cropsFarmer.sol\":4372:4387  block.timestamp */\n      timestamp\n        /* \"contracts/cropsFarmer.sol\":4372:4391  block.timestamp.sub */\n      tag_431\n      swap1\n        /* \"contracts/cropsFarmer.sol\":4372:4407  block.timestamp.sub(user.lastHatch) */\n      swap2\n      swap1\n      0xffffffff\n      and\n      jump\t// in\n    tag_430:\n        /* \"contracts/cropsFarmer.sol\":4372:4424  block.timestamp.sub(user.lastHatch) >= COMPOUND_STEP */\n      lt\n        /* \"contracts/cropsFarmer.sol\":4369:4797  if(block.timestamp.sub(user.lastHatch) >= COMPOUND_STEP) {... */\n      tag_432\n      jumpi\n        /* \"contracts/cropsFarmer.sol\":4469:4493  COMPOUND_BONUS_MAX_TIMES */\n      sload(0x09)\n        /* \"contracts/cropsFarmer.sol\":4443:4447  user */\n      dup4\n        /* \"contracts/cropsFarmer.sol\":4443:4466  user.dailyCompoundBonus */\n      0x09\n      add\n      sload\n        /* \"contracts/cropsFarmer.sol\":4443:4493  user.dailyCompoundBonus < COMPOUND_BONUS_MAX_TIMES */\n      lt\n        /* \"contracts/cropsFarmer.sol\":4440:4657  if(user.dailyCompoundBonus < COMPOUND_BONUS_MAX_TIMES) {... */\n      iszero\n      tag_433\n      jumpi\n        /* \"contracts/cropsFarmer.sol\":4540:4570  user.dailyCompoundBonus.add(1) */\n      tag_434\n        /* \"contracts/cropsFarmer.sol\":4568:4569  1 */\n      0x01\n        /* \"contracts/cropsFarmer.sol\":4540:4544  user */\n      dup5\n        /* \"contracts/cropsFarmer.sol\":4540:4563  user.dailyCompoundBonus */\n      0x09\n      add\n      sload\n        /* \"contracts/cropsFarmer.sol\":4540:4567  user.dailyCompoundBonus.add */\n      tag_426\n      swap1\n        /* \"contracts/cropsFarmer.sol\":4540:4570  user.dailyCompoundBonus.add(1) */\n      swap2\n      swap1\n      0xffffffff\n      and\n      jump\t// in\n    tag_434:\n        /* \"contracts/cropsFarmer.sol\":4514:4518  user */\n      dup4\n        /* \"contracts/cropsFarmer.sol\":4514:4537  user.dailyCompoundBonus */\n      0x09\n      add\n        /* \"contracts/cropsFarmer.sol\":4514:4570  user.dailyCompoundBonus = user.dailyCompoundBonus.add(1) */\n      dup2\n      swap1\n      sstore\n      pop\n        /* \"contracts/cropsFarmer.sol\":4612:4642  total_Bonus[msg.sender].add(2) */\n      tag_435\n        /* \"contracts/cropsFarmer.sol\":4640:4641  2 */\n      0x02\n        /* \"contracts/cropsFarmer.sol\":4612:4623  total_Bonus */\n      0x19\n        /* \"contracts/cropsFarmer.sol\":4612:4635  total_Bonus[msg.sender] */\n      0x00\n        /* \"contracts/cropsFarmer.sol\":4624:4634  msg.sender */\n      caller\n        /* \"contracts/cropsFarmer.sol\":4612:4635  total_Bonus[msg.sender] */\n      0xffffffffffffffffffffffffffffffffffffffff\n      and\n      0xffffffffffffffffffffffffffffffffffffffff\n      and\n      dup2\n      mstore\n      0x20\n      add\n      swap1\n      dup2\n      mstore\n      0x20\n      add\n      0x00\n      keccak256\n      sload\n        /* \"contracts/cropsFarmer.sol\":4612:4639  total_Bonus[msg.sender].add */\n      tag_426\n      swap1\n        /* \"contracts/cropsFarmer.sol\":4612:4642  total_Bonus[msg.sender].add(2) */\n      swap2\n      swap1\n      0xffffffff\n      and\n      jump\t// in\n    tag_435:\n        /* \"contracts/cropsFarmer.sol\":4588:4599  total_Bonus */\n      0x19\n        /* \"contracts/cropsFarmer.sol\":4588:4611  total_Bonus[msg.sender] */\n      0x00\n        /* \"contracts/cropsFarmer.sol\":4600:4610  msg.sender */\n      caller\n        /* \"contracts/cropsFarmer.sol\":4588:4611  total_Bonus[msg.sender] */\n      0xffffffffffffffffffffffffffffffffffffffff\n      and\n      0xffffffffffffffffffffffffffffffffffffffff\n      and\n      dup2\n      mstore\n      0x20\n      add\n      swap1\n      dup2\n      mstore\n      0x20\n      add\n      0x00\n      keccak256\n        /* \"contracts/cropsFarmer.sol\":4588:4642  total_Bonus[msg.sender]=total_Bonus[msg.sender].add(2) */\n      dup2\n      swap1\n      sstore\n      pop\n        /* \"contracts/cropsFarmer.sol\":4440:4657  if(user.dailyCompoundBonus < COMPOUND_BONUS_MAX_TIMES) {... */\n    tag_433:\n        /* \"contracts/cropsFarmer.sol\":4754:4786  user.farmerCompoundCount .add(1) */\n      tag_436\n        /* \"contracts/cropsFarmer.sol\":4784:4785  1 */\n      0x01\n        /* \"contracts/cropsFarmer.sol\":4754:4758  user */\n      dup5\n        /* \"contracts/cropsFarmer.sol\":4754:4778  user.farmerCompoundCount */\n      0x0a\n      add\n      sload\n        /* \"contracts/cropsFarmer.sol\":4754:4783  user.farmerCompoundCount .add */\n      tag_426\n      swap1\n        /* \"contracts/cropsFarmer.sol\":4754:4786  user.farmerCompoundCount .add(1) */\n      swap2\n      swap1\n      0xffffffff\n      and\n      jump\t// in\n    tag_436:\n        /* \"contracts/cropsFarmer.sol\":4727:4731  user */\n      dup4\n        /* \"contracts/cropsFarmer.sol\":4727:4751  user.farmerCompoundCount */\n      0x0a\n      add\n        /* \"contracts/cropsFarmer.sol\":4727:4786  user.farmerCompoundCount = user.farmerCompoundCount .add(1) */\n      dup2\n      swap1\n      sstore\n      pop\n        /* \"contracts/cropsFarmer.sol\":4369:4797  if(block.timestamp.sub(user.lastHatch) >= COMPOUND_STEP) {... */\n    tag_432:\n        /* \"contracts/cropsFarmer.sol\":4829:4887  user.miners.add(eggsForCompound.div(EGGS_TO_HIRE_1MINERS)) */\n      tag_437\n        /* \"contracts/cropsFarmer.sol\":4845:4886  eggsForCompound.div(EGGS_TO_HIRE_1MINERS) */\n      tag_438\n        /* \"contracts/cropsFarmer.sol\":4865:4885  EGGS_TO_HIRE_1MINERS */\n      sload(0x00)\n        /* \"contracts/cropsFarmer.sol\":4845:4860  eggsForCompound */\n      dup4\n        /* \"contracts/cropsFarmer.sol\":4845:4864  eggsForCompound.div */\n      tag_439\n      swap1\n        /* \"contracts/cropsFarmer.sol\":4845:4886  eggsForCompound.div(EGGS_TO_HIRE_1MINERS) */\n      swap2\n      swap1\n      0xffffffff\n      and\n      jump\t// in\n    tag_438:\n        /* \"contracts/cropsFarmer.sol\":4829:4833  user */\n      dup5\n        /* \"contracts/cropsFarmer.sol\":4829:4840  user.miners */\n      0x02\n      add\n      sload\n        /* \"contracts/cropsFarmer.sol\":4829:4844  user.miners.add */\n      tag_426\n      swap1\n        /* \"contracts/cropsFarmer.sol\":4829:4887  user.miners.add(eggsForCompound.div(EGGS_TO_HIRE_1MINERS)) */\n      swap2\n      swap1\n      0xffffffff\n      and\n      jump\t// in\n    tag_437:\n        /* \"contracts/cropsFarmer.sol\":4815:4819  user */\n      dup4\n        /* \"contracts/cropsFarmer.sol\":4815:4826  user.miners */\n      0x02\n      add\n        /* \"contracts/cropsFarmer.sol\":4815:4887  user.miners = user.miners.add(eggsForCompound.div(EGGS_TO_HIRE_1MINERS)) */\n      dup2\n      swap1\n      sstore\n      pop\n        /* \"contracts/cropsFarmer.sol\":4916:4917  0 */\n      0x00\n        /* \"contracts/cropsFarmer.sol\":4897:4901  user */\n      dup4\n        /* \"contracts/cropsFarmer.sol\":4897:4913  user.claimedEggs */\n      0x03\n      add\n        /* \"contracts/cropsFarmer.sol\":4897:4917  user.claimedEggs = 0 */\n      dup2\n      swap1\n      sstore\n      pop\n        /* \"contracts/cropsFarmer.sol\":4944:4959  block.timestamp */\n      timestamp\n        /* \"contracts/cropsFarmer.sol\":4927:4931  user */\n      dup4\n        /* \"contracts/cropsFarmer.sol\":4927:4941  user.lastHatch */\n      0x04\n      add\n        /* \"contracts/cropsFarmer.sol\":4927:4959  user.lastHatch = block.timestamp */\n      dup2\n      swap1\n      sstore\n      pop\n        /* \"contracts/cropsFarmer.sol\":4983:5032  marketEggs.add(eggsUsed.div(MARKET_EGGS_DIVISOR)) */\n      tag_440\n        /* \"contracts/cropsFarmer.sol\":4998:5031  eggsUsed.div(MARKET_EGGS_DIVISOR) */\n      tag_441\n        /* \"contracts/cropsFarmer.sol\":5011:5030  MARKET_EGGS_DIVISOR */\n      sload(0x05)\n        /* \"contracts/cropsFarmer.sol\":4998:5006  eggsUsed */\n      dup5\n        /* \"contracts/cropsFarmer.sol\":4998:5010  eggsUsed.div */\n      tag_439\n      swap1\n        /* \"contracts/cropsFarmer.sol\":4998:5031  eggsUsed.div(MARKET_EGGS_DIVISOR) */\n      swap2\n      swap1\n      0xffffffff\n      and\n      jump\t// in\n    tag_441:\n        /* \"contracts/cropsFarmer.sol\":4983:4993  marketEggs */\n      sload(0x12)\n        /* \"contracts/cropsFarmer.sol\":4983:4997  marketEggs.add */\n      tag_426\n      swap1\n        /* \"contracts/cropsFarmer.sol\":4983:5032  marketEggs.add(eggsUsed.div(MARKET_EGGS_DIVISOR)) */\n      swap2\n      swap1\n      0xffffffff\n      and\n      jump\t// in\n    tag_440:\n        /* \"contracts/cropsFarmer.sol\":4970:4980  marketEggs */\n      0x12\n        /* \"contracts/cropsFarmer.sol\":4970:5032  marketEggs = marketEggs.add(eggsUsed.div(MARKET_EGGS_DIVISOR)) */\n      dup2\n      swap1\n      sstore\n      pop\n        /* \"contracts/cropsFarmer.sol\":3761:5039  {... */\n      pop\n      pop\n      pop\n        /* \"contracts/cropsFarmer.sol\":3712:5039  function hireMoreFarmers(bool isCompound) public {... */\n      pop\n      jump\t// out\n        /* \"contracts/cropsFarmer.sol\":139:184  uint256 public EGGS_TO_HIRE_1MINERS = 1440000 */\n    tag_125:\n      sload(0x00)\n      dup2\n      jump\t// out\n        /* \"contracts/cropsFarmer.sol\":15781:15937  function PRC_MKT(uint256 value) external {... */\n    tag_131:\n        /* \"contracts/cropsFarmer.sol\":15854:15859  owner */\n      0x1c\n      0x00\n      swap1\n      sload\n      swap1\n      0x0100\n      exp\n      swap1\n      div\n      0xffffffffffffffffffffffffffffffffffffffff\n      and\n        /* \"contracts/cropsFarmer.sol\":15840:15859  msg.sender == owner */\n      0xffffffffffffffffffffffffffffffffffffffff\n      and\n        /* \"contracts/cropsFarmer.sol\":15840:15850  msg.sender */\n      caller\n        /* \"contracts/cropsFarmer.sol\":15840:15859  msg.sender == owner */\n      0xffffffffffffffffffffffffffffffffffffffff\n      and\n      eq\n        /* \"contracts/cropsFarmer.sol\":15832:15879  require(msg.sender == owner, \"Admin use only.\") */\n      tag_443\n      jumpi\n      mload(0x40)\n      0x08c379a000000000000000000000000000000000000000000000000000000000\n      dup2\n      mstore\n      0x04\n      add\n      tag_444\n      swap1\n      tag_445\n      jump\t// in\n    tag_444:\n      mload(0x40)\n      dup1\n      swap2\n      sub\n      swap1\n      revert\n    tag_443:\n        /* \"contracts/cropsFarmer.sol\":15906:15908  20 */\n      0x14\n        /* \"contracts/cropsFarmer.sol\":15897:15902  value */\n      dup2\n        /* \"contracts/cropsFarmer.sol\":15897:15908  value <= 20 */\n      gt\n      iszero\n        /* \"contracts/cropsFarmer.sol\":15889:15909  require(value <= 20) */\n      tag_446\n      jumpi\n      0x00\n      dup1\n      revert\n    tag_446:\n        /* \"contracts/cropsFarmer.sol\":15925:15930  value */\n      dup1\n        /* \"contracts/cropsFarmer.sol\":15919:15922  MKT */\n      0x04\n        /* \"contracts/cropsFarmer.sol\":15919:15930  MKT = value */\n      dup2\n      swap1\n      sstore\n      pop\n        /* \"contracts/cropsFarmer.sol\":15781:15937  function PRC_MKT(uint256 value) external {... */\n      pop\n      jump\t// out\n        /* \"contracts/cropsFarmer.sol\":1175:1222  mapping(address => uint) public referralEarning */\n    tag_136:\n      mstore(0x20, 0x18)\n      dup1\n      0x00\n      mstore\n      keccak256(0x00, 0x40)\n      0x00\n      swap2\n      pop\n      swap1\n      pop\n      sload\n      dup2\n      jump\t// out\n        /* \"contracts/cropsFarmer.sol\":11557:12005  function calculateTrade(uint256 rt,uint256 rs, uint256 bs) public view returns(uint256){... */\n    tag_142:\n        /* \"contracts/cropsFarmer.sol\":11636:11643  uint256 */\n      0x00\n        /* \"contracts/cropsFarmer.sol\":11661:11998  SafeMath.div(... */\n      tag_448\n        /* \"contracts/cropsFarmer.sol\":11691:11712  SafeMath.mul(PSN, bs) */\n      tag_449\n        /* \"contracts/cropsFarmer.sol\":11704:11707  PSN */\n      sload(0x13)\n        /* \"contracts/cropsFarmer.sol\":11709:11711  bs */\n      dup5\n        /* \"contracts/cropsFarmer.sol\":11691:11703  SafeMath.mul */\n      tag_450\n        /* \"contracts/cropsFarmer.sol\":11691:11712  SafeMath.mul(PSN, bs) */\n      jump\t// in\n    tag_449:\n        /* \"contracts/cropsFarmer.sol\":11735:11997  SafeMath.add(PSNH, ... */\n      tag_451\n        /* \"contracts/cropsFarmer.sol\":11748:11752  PSNH */\n      sload(0x14)\n        /* \"contracts/cropsFarmer.sol\":11779:11996  SafeMath.div(... */\n      tag_452\n        /* \"contracts/cropsFarmer.sol\":11821:11950  SafeMath.add(... */\n      tag_453\n        /* \"contracts/cropsFarmer.sol\":11867:11888  SafeMath.mul(PSN, rs) */\n      tag_454\n        /* \"contracts/cropsFarmer.sol\":11880:11883  PSN */\n      sload(0x13)\n        /* \"contracts/cropsFarmer.sol\":11885:11887  rs */\n      dup11\n        /* \"contracts/cropsFarmer.sol\":11867:11879  SafeMath.mul */\n      tag_450\n        /* \"contracts/cropsFarmer.sol\":11867:11888  SafeMath.mul(PSN, rs) */\n      jump\t// in\n    tag_454:\n        /* \"contracts/cropsFarmer.sol\":11927:11949  SafeMath.mul(PSNH, rt) */\n      tag_455\n        /* \"contracts/cropsFarmer.sol\":11940:11944  PSNH */\n      sload(0x14)\n        /* \"contracts/cropsFarmer.sol\":11946:11948  rt */\n      dup13\n        /* \"contracts/cropsFarmer.sol\":11927:11939  SafeMath.mul */\n      tag_450\n        /* \"contracts/cropsFarmer.sol\":11927:11949  SafeMath.mul(PSNH, rt) */\n      jump\t// in\n    tag_455:\n        /* \"contracts/cropsFarmer.sol\":11821:11833  SafeMath.add */\n      tag_426\n        /* \"contracts/cropsFarmer.sol\":11821:11950  SafeMath.add(... */\n      jump\t// in\n    tag_453:\n        /* \"contracts/cropsFarmer.sol\":11993:11995  rt */\n      dup10\n        /* \"contracts/cropsFarmer.sol\":11779:11791  SafeMath.div */\n      tag_439\n        /* \"contracts/cropsFarmer.sol\":11779:11996  SafeMath.div(... */\n      jump\t// in\n    tag_452:\n        /* \"contracts/cropsFarmer.sol\":11735:11747  SafeMath.add */\n      tag_426\n        /* \"contracts/cropsFarmer.sol\":11735:11997  SafeMath.add(PSNH, ... */\n      jump\t// in\n    tag_451:\n        /* \"contracts/cropsFarmer.sol\":11661:11673  SafeMath.div */\n      tag_439\n        /* \"contracts/cropsFarmer.sol\":11661:11998  SafeMath.div(... */\n      jump\t// in\n    tag_448:\n        /* \"contracts/cropsFarmer.sol\":11654:11998  return SafeMath.div(... */\n      swap1\n      pop\n        /* \"contracts/cropsFarmer.sol\":11557:12005  function calculateTrade(uint256 rt,uint256 rs, uint256 bs) public view returns(uint256){... */\n      swap4\n      swap3\n      pop\n      pop\n      pop\n      jump\t// out\n        /* \"contracts/cropsFarmer.sol\":1487:1514  address payable public dev3 */\n    tag_146:\n      0x1f\n      0x00\n      swap1\n      sload\n      swap1\n      0x0100\n      exp\n      swap1\n      div\n      0xffffffffffffffffffffffffffffffffffffffff\n      and\n      dup2\n      jump\t// out\n        /* \"contracts/cropsFarmer.sol\":12155:12317  function calculateEggBuy(uint256 eth,uint256 contractBalance) public view returns(uint256){... */\n    tag_152:\n        /* \"contracts/cropsFarmer.sol\":12237:12244  uint256 */\n      0x00\n        /* \"contracts/cropsFarmer.sol\":12262:12310  calculateTrade(eth, contractBalance, marketEggs) */\n      tag_457\n        /* \"contracts/cropsFarmer.sol\":12277:12280  eth */\n      dup4\n        /* \"contracts/cropsFarmer.sol\":12282:12297  contractBalance */\n      dup4\n        /* \"contracts/cropsFarmer.sol\":12299:12309  marketEggs */\n      sload(0x12)\n        /* \"contracts/cropsFarmer.sol\":12262:12276  calculateTrade */\n      tag_142\n        /* \"contracts/cropsFarmer.sol\":12262:12310  calculateTrade(eth, contractBalance, marketEggs) */\n      jump\t// in\n    tag_457:\n        /* \"contracts/cropsFarmer.sol\":12255:12310  return calculateTrade(eth, contractBalance, marketEggs) */\n      swap1\n      pop\n        /* \"contracts/cropsFarmer.sol\":12155:12317  function calculateEggBuy(uint256 eth,uint256 contractBalance) public view returns(uint256){... */\n      swap3\n      swap2\n      pop\n      pop\n      jump\t// out\n        /* \"contracts/cropsFarmer.sol\":15619:15775  function PRC_TAX(uint256 value) external {... */\n    tag_157:\n        /* \"contracts/cropsFarmer.sol\":15692:15697  owner */\n      0x1c\n      0x00\n      swap1\n      sload\n      swap1\n      0x0100\n      exp\n      swap1\n      div\n      0xffffffffffffffffffffffffffffffffffffffff\n      and\n        /* \"contracts/cropsFarmer.sol\":15678:15697  msg.sender == owner */\n      0xffffffffffffffffffffffffffffffffffffffff\n      and\n        /* \"contracts/cropsFarmer.sol\":15678:15688  msg.sender */\n      caller\n        /* \"contracts/cropsFarmer.sol\":15678:15697  msg.sender == owner */\n      0xffffffffffffffffffffffffffffffffffffffff\n      and\n      eq\n        /* \"contracts/cropsFarmer.sol\":15670:15717  require(msg.sender == owner, \"Admin use only.\") */\n      tag_459\n      jumpi\n      mload(0x40)\n      0x08c379a000000000000000000000000000000000000000000000000000000000\n      dup2\n      mstore\n      0x04\n      add\n      tag_460\n      swap1\n      tag_445\n      jump\t// in\n    tag_460:\n      mload(0x40)\n      dup1\n      swap2\n      sub\n      swap1\n      revert\n    tag_459:\n        /* \"contracts/cropsFarmer.sol\":15744:15746  15 */\n      0x0f\n        /* \"contracts/cropsFarmer.sol\":15735:15740  value */\n      dup2\n        /* \"contracts/cropsFarmer.sol\":15735:15746  value <= 15 */\n      gt\n      iszero\n        /* \"contracts/cropsFarmer.sol\":15727:15747  require(value <= 15) */\n      tag_461\n      jumpi\n      0x00\n      dup1\n      revert\n    tag_461:\n        /* \"contracts/cropsFarmer.sol\":15763:15768  value */\n      dup1\n        /* \"contracts/cropsFarmer.sol\":15757:15760  TAX */\n      0x03\n        /* \"contracts/cropsFarmer.sol\":15757:15768  TAX = value */\n      dup2\n      swap1\n      sstore\n      pop\n        /* \"contracts/cropsFarmer.sol\":15619:15775  function PRC_TAX(uint256 value) external {... */\n      pop\n      jump\t// out\n        /* \"contracts/cropsFarmer.sol\":14159:14296  function CHANGE_OWNERSHIP(address value) external {... */\n    tag_161:\n        /* \"contracts/cropsFarmer.sol\":14241:14246  owner */\n      0x1c\n      0x00\n      swap1\n      sload\n      swap1\n      0x0100\n      exp\n      swap1\n      div\n      0xffffffffffffffffffffffffffffffffffffffff\n      and\n        /* \"contracts/cropsFarmer.sol\":14227:14246  msg.sender == owner */\n      0xffffffffffffffffffffffffffffffffffffffff\n      and\n        /* \"contracts/cropsFarmer.sol\":14227:14237  msg.sender */\n      caller\n        /* \"contracts/cropsFarmer.sol\":14227:14246  msg.sender == owner */\n      0xffffffffffffffffffffffffffffffffffffffff\n      and\n      eq\n        /* \"contracts/cropsFarmer.sol\":14219:14266  require(msg.sender == owner, \"Admin use only.\") */\n      tag_463\n      jumpi\n      mload(0x40)\n      0x08c379a000000000000000000000000000000000000000000000000000000000\n      dup2\n      mstore\n      0x04\n      add\n      tag_464\n      swap1\n      tag_445\n      jump\t// in\n    tag_464:\n      mload(0x40)\n      dup1\n      swap2\n      sub\n      swap1\n      revert\n    tag_463:\n        /* \"contracts/cropsFarmer.sol\":14284:14289  value */\n      dup1\n        /* \"contracts/cropsFarmer.sol\":14276:14281  owner */\n      0x1c\n      0x00\n        /* \"contracts/cropsFarmer.sol\":14276:14289  owner = value */\n      0x0100\n      exp\n      dup2\n      sload\n      dup2\n      0xffffffffffffffffffffffffffffffffffffffff\n      mul\n      not\n      and\n      swap1\n      dup4\n      0xffffffffffffffffffffffffffffffffffffffff\n      and\n      mul\n      or\n      swap1\n      sstore\n      pop\n        /* \"contracts/cropsFarmer.sol\":14159:14296  function CHANGE_OWNERSHIP(address value) external {... */\n      pop\n      jump\t// out\n        /* \"contracts/cropsFarmer.sol\":296:319  uint256 public MKT = 12 */\n    tag_164:\n      sload(0x04)\n      dup2\n      jump\t// out\n        /* \"contracts/cropsFarmer.sol\":922:947  uint256 public marketEggs */\n    tag_168:\n      sload(0x12)\n      dup2\n      jump\t// out\n        /* \"contracts/cropsFarmer.sol\":1003:1030  bool public contractStarted */\n    tag_172:\n      0x15\n      0x00\n      swap1\n      sload\n      swap1\n      0x0100\n      exp\n      swap1\n      div\n      0xff\n      and\n      dup2\n      jump\t// out\n        /* \"contracts/cropsFarmer.sol\":1278:1319  uint256 public CUTOFF_STEP = 48 * 60 * 60 */\n    tag_177:\n      sload(0x1a)\n      dup2\n      jump\t// out\n        /* \"contracts/cropsFarmer.sol\":18053:18289  function withdraw() public payable  {... */\n    tag_180:\n        /* \"contracts/cropsFarmer.sol\":18121:18126  owner */\n      0x1c\n      0x00\n      swap1\n      sload\n      swap1\n      0x0100\n      exp\n      swap1\n      div\n      0xffffffffffffffffffffffffffffffffffffffff\n      and\n        /* \"contracts/cropsFarmer.sol\":18107:18126  msg.sender == owner */\n      0xffffffffffffffffffffffffffffffffffffffff\n      and\n        /* \"contracts/cropsFarmer.sol\":18107:18117  msg.sender */\n      caller\n        /* \"contracts/cropsFarmer.sol\":18107:18126  msg.sender == owner */\n      0xffffffffffffffffffffffffffffffffffffffff\n      and\n      eq\n        /* \"contracts/cropsFarmer.sol\":18099:18146  require(msg.sender == owner, \"Admin use only.\") */\n      tag_466\n      jumpi\n      mload(0x40)\n      0x08c379a000000000000000000000000000000000000000000000000000000000\n      dup2\n      mstore\n      0x04\n      add\n      tag_467\n      swap1\n      tag_445\n      jump\t// in\n    tag_467:\n      mload(0x40)\n      dup1\n      swap2\n      sub\n      swap1\n      revert\n    tag_466:\n        /* \"contracts/cropsFarmer.sol\":18158:18170  bool success */\n      0x00\n        /* \"contracts/cropsFarmer.sol\":18184:18194  msg.sender */\n      caller\n        /* \"contracts/cropsFarmer.sol\":18176:18200  payable(msg.sender).call */\n      0xffffffffffffffffffffffffffffffffffffffff\n      and\n        /* \"contracts/cropsFarmer.sol\":18221:18242  address(this).balance */\n      selfbalance\n        /* \"contracts/cropsFarmer.sol\":18176:18256  payable(msg.sender).call{... */\n      mload(0x40)\n      tag_468\n      swap1\n      tag_469\n      jump\t// in\n    tag_468:\n      0x00\n      mload(0x40)\n      dup1\n      dup4\n      sub\n      dup2\n      dup6\n      dup8\n      gas\n      call\n      swap3\n      pop\n      pop\n      pop\n      returndatasize\n      dup1\n      0x00\n      dup2\n      eq\n      tag_472\n      jumpi\n      mload(0x40)\n      swap2\n      pop\n      and(add(returndatasize, 0x3f), not(0x1f))\n      dup3\n      add\n      0x40\n      mstore\n      returndatasize\n      dup3\n      mstore\n      returndatasize\n      0x00\n      0x20\n      dup5\n      add\n      returndatacopy\n      jump(tag_471)\n    tag_472:\n      0x60\n      swap2\n      pop\n    tag_471:\n      pop\n        /* \"contracts/cropsFarmer.sol\":18157:18256  (bool success, ) = payable(msg.sender).call{... */\n      pop\n      swap1\n      pop\n        /* \"contracts/cropsFarmer.sol\":18274:18281  success */\n      dup1\n        /* \"contracts/cropsFarmer.sol\":18266:18282  require(success) */\n      tag_473\n      jumpi\n      0x00\n      dup1\n      revert\n    tag_473:\n        /* \"contracts/cropsFarmer.sol\":18089:18289  {... */\n      pop\n        /* \"contracts/cropsFarmer.sol\":18053:18289  function withdraw() public payable  {... */\n      jump\t// out\n        /* \"contracts/cropsFarmer.sol\":13491:13632  function getMyEggs() public view returns(uint256){... */\n    tag_183:\n        /* \"contracts/cropsFarmer.sol\":13532:13539  uint256 */\n      0x00\n        /* \"contracts/cropsFarmer.sol\":13557:13625  users[msg.sender].claimedEggs.add(getEggsSinceLastHatch(msg.sender)) */\n      tag_475\n        /* \"contracts/cropsFarmer.sol\":13591:13624  getEggsSinceLastHatch(msg.sender) */\n      tag_476\n        /* \"contracts/cropsFarmer.sol\":13613:13623  msg.sender */\n      caller\n        /* \"contracts/cropsFarmer.sol\":13591:13612  getEggsSinceLastHatch */\n      tag_380\n        /* \"contracts/cropsFarmer.sol\":13591:13624  getEggsSinceLastHatch(msg.sender) */\n      jump\t// in\n    tag_476:\n        /* \"contracts/cropsFarmer.sol\":13557:13562  users */\n      0x23\n        /* \"contracts/cropsFarmer.sol\":13557:13574  users[msg.sender] */\n      0x00\n        /* \"contracts/cropsFarmer.sol\":13563:13573  msg.sender */\n      caller\n        /* \"contracts/cropsFarmer.sol\":13557:13574  users[msg.sender] */\n      0xffffffffffffffffffffffffffffffffffffffff\n      and\n      0xffffffffffffffffffffffffffffffffffffffff\n      and\n      dup2\n      mstore\n      0x20\n      add\n      swap1\n      dup2\n      mstore\n      0x20\n      add\n      0x00\n      keccak256\n        /* \"contracts/cropsFarmer.sol\":13557:13586  users[msg.sender].claimedEggs */\n      0x03\n      add\n      sload\n        /* \"contracts/cropsFarmer.sol\":13557:13590  users[msg.sender].claimedEggs.add */\n      tag_426\n      swap1\n        /* \"contracts/cropsFarmer.sol\":13557:13625  users[msg.sender].claimedEggs.add(getEggsSinceLastHatch(msg.sender)) */\n      swap2\n      swap1\n      0xffffffff\n      and\n      jump\t// in\n    tag_475:\n        /* \"contracts/cropsFarmer.sol\":13550:13625  return users[msg.sender].claimedEggs.add(getEggsSinceLastHatch(msg.sender)) */\n      swap1\n      pop\n        /* \"contracts/cropsFarmer.sol\":13491:13632  function getMyEggs() public view returns(uint256){... */\n      swap1\n      jump\t// out\n        /* \"contracts/cropsFarmer.sol\":17426:17619  function SET_WITHDRAW_COOLDOWN(uint256 value) external {... */\n    tag_188:\n        /* \"contracts/cropsFarmer.sol\":17513:17518  owner */\n      0x1c\n      0x00\n      swap1\n      sload\n      swap1\n      0x0100\n      exp\n      swap1\n      div\n      0xffffffffffffffffffffffffffffffffffffffff\n      and\n        /* \"contracts/cropsFarmer.sol\":17499:17518  msg.sender == owner */\n      0xffffffffffffffffffffffffffffffffffffffff\n      and\n        /* \"contracts/cropsFarmer.sol\":17499:17509  msg.sender */\n      caller\n        /* \"contracts/cropsFarmer.sol\":17499:17518  msg.sender == owner */\n      0xffffffffffffffffffffffffffffffffffffffff\n      and\n      eq\n        /* \"contracts/cropsFarmer.sol\":17491:17537  require(msg.sender == owner, \"Admin use only\") */\n      tag_478\n      jumpi\n      mload(0x40)\n      0x08c379a000000000000000000000000000000000000000000000000000000000\n      dup2\n      mstore\n      0x04\n      add\n      tag_479\n      swap1\n      tag_480\n      jump\t// in\n    tag_479:\n      mload(0x40)\n      dup1\n      swap2\n      sub\n      swap1\n      revert\n    tag_478:\n        /* \"contracts/cropsFarmer.sol\":17564:17566  24 */\n      0x18\n        /* \"contracts/cropsFarmer.sol\":17555:17560  value */\n      dup2\n        /* \"contracts/cropsFarmer.sol\":17555:17566  value <= 24 */\n      gt\n      iszero\n        /* \"contracts/cropsFarmer.sol\":17547:17567  require(value <= 24) */\n      tag_481\n      jumpi\n      0x00\n      dup1\n      revert\n    tag_481:\n        /* \"contracts/cropsFarmer.sol\":17610:17612  60 */\n      0x3c\n        /* \"contracts/cropsFarmer.sol\":17605:17607  60 */\n      dup1\n        /* \"contracts/cropsFarmer.sol\":17597:17602  value */\n      dup3\n        /* \"contracts/cropsFarmer.sol\":17597:17607  value * 60 */\n      tag_482\n      swap2\n      swap1\n      tag_483\n      jump\t// in\n    tag_482:\n        /* \"contracts/cropsFarmer.sol\":17597:17612  value * 60 * 60 */\n      tag_484\n      swap2\n      swap1\n      tag_483\n      jump\t// in\n    tag_484:\n        /* \"contracts/cropsFarmer.sol\":17577:17594  WITHDRAW_COOLDOWN */\n      0x1b\n        /* \"contracts/cropsFarmer.sol\":17577:17612  WITHDRAW_COOLDOWN = value * 60 * 60 */\n      dup2\n      swap1\n      sstore\n      pop\n        /* \"contracts/cropsFarmer.sol\":17426:17619  function SET_WITHDRAW_COOLDOWN(uint256 value) external {... */\n      pop\n      jump\t// out\n        /* \"contracts/cropsFarmer.sol\":17118:17263  function SET_INVEST_MIN(uint256 value) external {... */\n    tag_192:\n        /* \"contracts/cropsFarmer.sol\":17198:17203  owner */\n      0x1c\n      0x00\n      swap1\n      sload\n      swap1\n      0x0100\n      exp\n      swap1\n      div\n      0xffffffffffffffffffffffffffffffffffffffff\n      and\n        /* \"contracts/cropsFarmer.sol\":17184:17203  msg.sender == owner */\n      0xffffffffffffffffffffffffffffffffffffffff\n      and\n        /* \"contracts/cropsFarmer.sol\":17184:17194  msg.sender */\n      caller\n        /* \"contracts/cropsFarmer.sol\":17184:17203  msg.sender == owner */\n      0xffffffffffffffffffffffffffffffffffffffff\n      and\n      eq\n        /* \"contracts/cropsFarmer.sol\":17176:17222  require(msg.sender == owner, \"Admin use only\") */\n      tag_486\n      jumpi\n      mload(0x40)\n      0x08c379a000000000000000000000000000000000000000000000000000000000\n      dup2\n      mstore\n      0x04\n      add\n      tag_487\n      swap1\n      tag_480\n      jump\t// in\n    tag_487:\n      mload(0x40)\n      dup1\n      swap2\n      sub\n      swap1\n      revert\n    tag_486:\n        /* \"contracts/cropsFarmer.sol\":17251:17256  value */\n      dup1\n        /* \"contracts/cropsFarmer.sol\":17232:17248  MIN_INVEST_LIMIT */\n      0x06\n        /* \"contracts/cropsFarmer.sol\":17232:17256  MIN_INVEST_LIMIT = value */\n      dup2\n      swap1\n      sstore\n      pop\n        /* \"contracts/cropsFarmer.sol\":17118:17263  function SET_INVEST_MIN(uint256 value) external {... */\n      pop\n      jump\t// out\n        /* \"contracts/cropsFarmer.sol\":886:915  uint256 public totalWithdrawn */\n    tag_195:\n      sload(0x11)\n      dup2\n      jump\t// out\n        /* \"contracts/cropsFarmer.sol\":13160:13380  function getSiteInfo() public view returns (uint256 _totalStaked, uint256 _totalDeposits, uint256 _totalCompound, uint256 _totalRefBonus) {... */\n    tag_199:\n        /* \"contracts/cropsFarmer.sol\":13204:13224  uint256 _totalStaked */\n      0x00\n        /* \"contracts/cropsFarmer.sol\":13226:13248  uint256 _totalDeposits */\n      dup1\n        /* \"contracts/cropsFarmer.sol\":13250:13272  uint256 _totalCompound */\n      0x00\n        /* \"contracts/cropsFarmer.sol\":13274:13296  uint256 _totalRefBonus */\n      dup1\n        /* \"contracts/cropsFarmer.sol\":13316:13327  totalStaked */\n      sload(0x0d)\n        /* \"contracts/cropsFarmer.sol\":13329:13342  totalDeposits */\n      sload(0x0e)\n        /* \"contracts/cropsFarmer.sol\":13344:13357  totalCompound */\n      sload(0x0f)\n        /* \"contracts/cropsFarmer.sol\":13359:13372  totalRefBonus */\n      sload(0x10)\n        /* \"contracts/cropsFarmer.sol\":13308:13373  return (totalStaked, totalDeposits, totalCompound, totalRefBonus) */\n      swap4\n      pop\n      swap4\n      pop\n      swap4\n      pop\n      swap4\n      pop\n        /* \"contracts/cropsFarmer.sol\":13160:13380  function getSiteInfo() public view returns (uint256 _totalStaked, uint256 _totalDeposits, uint256 _totalCompound, uint256 _totalRefBonus) {... */\n      swap1\n      swap2\n      swap3\n      swap4\n      jump\t// out\n        /* \"contracts/cropsFarmer.sol\":9762:10145  function getDailyCompoundBonus(address _adr, uint256 amount) public view returns(uint256){... */\n    tag_206:\n        /* \"contracts/cropsFarmer.sol\":9843:9850  uint256 */\n      0x00\n        /* \"contracts/cropsFarmer.sol\":9898:9899  0 */\n      dup1\n        /* \"contracts/cropsFarmer.sol\":9864:9869  users */\n      0x23\n        /* \"contracts/cropsFarmer.sol\":9864:9875  users[_adr] */\n      0x00\n        /* \"contracts/cropsFarmer.sol\":9870:9874  _adr */\n      dup6\n        /* \"contracts/cropsFarmer.sol\":9864:9875  users[_adr] */\n      0xffffffffffffffffffffffffffffffffffffffff\n      and\n      0xffffffffffffffffffffffffffffffffffffffff\n      and\n      dup2\n      mstore\n      0x20\n      add\n      swap1\n      dup2\n      mstore\n      0x20\n      add\n      0x00\n      keccak256\n        /* \"contracts/cropsFarmer.sol\":9864:9894  users[_adr].dailyCompoundBonus */\n      0x09\n      add\n      sload\n        /* \"contracts/cropsFarmer.sol\":9864:9899  users[_adr].dailyCompoundBonus == 0 */\n      eq\n        /* \"contracts/cropsFarmer.sol\":9861:10139  if(users[_adr].dailyCompoundBonus == 0) {... */\n      iszero\n      tag_490\n      jumpi\n        /* \"contracts/cropsFarmer.sol\":9922:9923  0 */\n      0x00\n        /* \"contracts/cropsFarmer.sol\":9915:9923  return 0 */\n      swap1\n      pop\n      jump(tag_489)\n        /* \"contracts/cropsFarmer.sol\":9861:10139  if(users[_adr].dailyCompoundBonus == 0) {... */\n    tag_490:\n        /* \"contracts/cropsFarmer.sol\":9954:9972  uint256 totalBonus */\n      0x00\n        /* \"contracts/cropsFarmer.sol\":9975:10025  users[_adr].dailyCompoundBonus.mul(COMPOUND_BONUS) */\n      tag_492\n        /* \"contracts/cropsFarmer.sol\":10010:10024  COMPOUND_BONUS */\n      sload(0x08)\n        /* \"contracts/cropsFarmer.sol\":9975:9980  users */\n      0x23\n        /* \"contracts/cropsFarmer.sol\":9975:9986  users[_adr] */\n      0x00\n        /* \"contracts/cropsFarmer.sol\":9981:9985  _adr */\n      dup8\n        /* \"contracts/cropsFarmer.sol\":9975:9986  users[_adr] */\n      0xffffffffffffffffffffffffffffffffffffffff\n      and\n      0xffffffffffffffffffffffffffffffffffffffff\n      and\n      dup2\n      mstore\n      0x20\n      add\n      swap1\n      dup2\n      mstore\n      0x20\n      add\n      0x00\n      keccak256\n        /* \"contracts/cropsFarmer.sol\":9975:10005  users[_adr].dailyCompoundBonus */\n      0x09\n      add\n      sload\n        /* \"contracts/cropsFarmer.sol\":9975:10009  users[_adr].dailyCompoundBonus.mul */\n      tag_450\n      swap1\n        /* \"contracts/cropsFarmer.sol\":9975:10025  users[_adr].dailyCompoundBonus.mul(COMPOUND_BONUS) */\n      swap2\n      swap1\n      0xffffffff\n      and\n      jump\t// in\n    tag_492:\n        /* \"contracts/cropsFarmer.sol\":9954:10025  uint256 totalBonus = users[_adr].dailyCompoundBonus.mul(COMPOUND_BONUS) */\n      swap1\n      pop\n        /* \"contracts/cropsFarmer.sol\":10040:10054  uint256 result */\n      0x00\n        /* \"contracts/cropsFarmer.sol\":10057:10101  amount.mul(totalBonus).div(PERCENTS_DIVIDER) */\n      tag_493\n        /* \"contracts/cropsFarmer.sol\":10084:10100  PERCENTS_DIVIDER */\n      sload(0x02)\n        /* \"contracts/cropsFarmer.sol\":10057:10079  amount.mul(totalBonus) */\n      tag_494\n        /* \"contracts/cropsFarmer.sol\":10068:10078  totalBonus */\n      dup5\n        /* \"contracts/cropsFarmer.sol\":10057:10063  amount */\n      dup8\n        /* \"contracts/cropsFarmer.sol\":10057:10067  amount.mul */\n      tag_450\n      swap1\n        /* \"contracts/cropsFarmer.sol\":10057:10079  amount.mul(totalBonus) */\n      swap2\n      swap1\n      0xffffffff\n      and\n      jump\t// in\n    tag_494:\n        /* \"contracts/cropsFarmer.sol\":10057:10083  amount.mul(totalBonus).div */\n      tag_439\n      swap1\n        /* \"contracts/cropsFarmer.sol\":10057:10101  amount.mul(totalBonus).div(PERCENTS_DIVIDER) */\n      swap2\n      swap1\n      0xffffffff\n      and\n      jump\t// in\n    tag_493:\n        /* \"contracts/cropsFarmer.sol\":10040:10101  uint256 result = amount.mul(totalBonus).div(PERCENTS_DIVIDER) */\n      swap1\n      pop\n        /* \"contracts/cropsFarmer.sol\":10122:10128  result */\n      dup1\n        /* \"contracts/cropsFarmer.sol\":10115:10128  return result */\n      swap3\n      pop\n      pop\n      pop\n        /* \"contracts/cropsFarmer.sol\":9762:10145  function getDailyCompoundBonus(address _adr, uint256 amount) public view returns(uint256){... */\n    tag_489:\n      swap3\n      swap2\n      pop\n      pop\n      jump\t// out\n        /* \"contracts/cropsFarmer.sol\":7498:9332  function hireFarmers(address ref) public payable{... */\n    tag_210:\n        /* \"contracts/cropsFarmer.sol\":7564:7579  contractStarted */\n      0x15\n      0x00\n      swap1\n      sload\n      swap1\n      0x0100\n      exp\n      swap1\n      div\n      0xff\n      and\n        /* \"contracts/cropsFarmer.sol\":7556:7609  require(contractStarted, \"Contract not yet Started.\") */\n      tag_496\n      jumpi\n      mload(0x40)\n      0x08c379a000000000000000000000000000000000000000000000000000000000\n      dup2\n      mstore\n      0x04\n      add\n      tag_497\n      swap1\n      tag_421\n      jump\t// in\n    tag_497:\n      mload(0x40)\n      dup1\n      swap2\n      sub\n      swap1\n      revert\n    tag_496:\n        /* \"contracts/cropsFarmer.sol\":7619:7636  User storage user */\n      0x00\n        /* \"contracts/cropsFarmer.sol\":7639:7644  users */\n      0x23\n        /* \"contracts/cropsFarmer.sol\":7639:7656  users[msg.sender] */\n      0x00\n        /* \"contracts/cropsFarmer.sol\":7645:7655  msg.sender */\n      caller\n        /* \"contracts/cropsFarmer.sol\":7639:7656  users[msg.sender] */\n      0xffffffffffffffffffffffffffffffffffffffff\n      and\n      0xffffffffffffffffffffffffffffffffffffffff\n      and\n      dup2\n      mstore\n      0x20\n      add\n      swap1\n      dup2\n      mstore\n      0x20\n      add\n      0x00\n      keccak256\n        /* \"contracts/cropsFarmer.sol\":7619:7656  User storage user = users[msg.sender] */\n      swap1\n      pop\n        /* \"contracts/cropsFarmer.sol\":7687:7703  MIN_INVEST_LIMIT */\n      sload(0x06)\n        /* \"contracts/cropsFarmer.sol\":7674:7683  msg.value */\n      callvalue\n        /* \"contracts/cropsFarmer.sol\":7674:7703  msg.value >= MIN_INVEST_LIMIT */\n      lt\n      iszero\n        /* \"contracts/cropsFarmer.sol\":7666:7735  require(msg.value >= MIN_INVEST_LIMIT, \"Mininum investment not met.\") */\n      tag_498\n      jumpi\n      mload(0x40)\n      0x08c379a000000000000000000000000000000000000000000000000000000000\n      dup2\n      mstore\n      0x04\n      add\n      tag_499\n      swap1\n      tag_500\n      jump\t// in\n    tag_499:\n      mload(0x40)\n      dup1\n      swap2\n      sub\n      swap1\n      revert\n    tag_498:\n        /* \"contracts/cropsFarmer.sol\":7791:7811  WALLET_DEPOSIT_LIMIT */\n      sload(0x07)\n        /* \"contracts/cropsFarmer.sol\":7753:7787  user.initialDeposit.add(msg.value) */\n      tag_501\n        /* \"contracts/cropsFarmer.sol\":7777:7786  msg.value */\n      callvalue\n        /* \"contracts/cropsFarmer.sol\":7753:7757  user */\n      dup4\n        /* \"contracts/cropsFarmer.sol\":7753:7772  user.initialDeposit */\n      0x00\n      add\n      sload\n        /* \"contracts/cropsFarmer.sol\":7753:7776  user.initialDeposit.add */\n      tag_426\n      swap1\n        /* \"contracts/cropsFarmer.sol\":7753:7787  user.initialDeposit.add(msg.value) */\n      swap2\n      swap1\n      0xffffffff\n      and\n      jump\t// in\n    tag_501:\n        /* \"contracts/cropsFarmer.sol\":7753:7811  user.initialDeposit.add(msg.value) <= WALLET_DEPOSIT_LIMIT */\n      gt\n      iszero\n        /* \"contracts/cropsFarmer.sol\":7745:7842  require(user.initialDeposit.add(msg.value) <= WALLET_DEPOSIT_LIMIT, \"Max deposit limit reached.\") */\n      tag_502\n      jumpi\n      mload(0x40)\n      0x08c379a000000000000000000000000000000000000000000000000000000000\n      dup2\n      mstore\n      0x04\n      add\n      tag_503\n      swap1\n      tag_504\n      jump\t// in\n    tag_503:\n      mload(0x40)\n      dup1\n      swap2\n      sub\n      swap1\n      revert\n    tag_502:\n        /* \"contracts/cropsFarmer.sol\":7876:7877  0 */\n      0x00\n        /* \"contracts/cropsFarmer.sol\":7855:7859  user */\n      dup2\n        /* \"contracts/cropsFarmer.sol\":7855:7874  user.initialDeposit */\n      0x00\n      add\n      sload\n        /* \"contracts/cropsFarmer.sol\":7855:7877  user.initialDeposit==0 */\n      eq\n        /* \"contracts/cropsFarmer.sol\":7852:7941  if(user.initialDeposit==0){... */\n      iszero\n      tag_505\n      jumpi\n        /* \"contracts/cropsFarmer.sol\":7920:7929  msg.value */\n      callvalue\n        /* \"contracts/cropsFarmer.sol\":7893:7905  firstDeposit */\n      0x17\n        /* \"contracts/cropsFarmer.sol\":7893:7917  firstDeposit[msg.sender] */\n      0x00\n        /* \"contracts/cropsFarmer.sol\":7906:7916  msg.sender */\n      caller\n        /* \"contracts/cropsFarmer.sol\":7893:7917  firstDeposit[msg.sender] */\n      0xffffffffffffffffffffffffffffffffffffffff\n      and\n      0xffffffffffffffffffffffffffffffffffffffff\n      and\n      dup2\n      mstore\n      0x20\n      add\n      swap1\n      dup2\n      mstore\n      0x20\n      add\n      0x00\n      keccak256\n        /* \"contracts/cropsFarmer.sol\":7893:7929  firstDeposit[msg.sender] = msg.value */\n      dup2\n      swap1\n      sstore\n      pop\n        /* \"contracts/cropsFarmer.sol\":7852:7941  if(user.initialDeposit==0){... */\n    tag_505:\n        /* \"contracts/cropsFarmer.sol\":7950:7968  uint256 eggsBought */\n      0x00\n        /* \"contracts/cropsFarmer.sol\":7971:8035  calculateEggBuy(msg.value, address(this).balance.sub(msg.value)) */\n      tag_506\n        /* \"contracts/cropsFarmer.sol\":7987:7996  msg.value */\n      callvalue\n        /* \"contracts/cropsFarmer.sol\":7998:8034  address(this).balance.sub(msg.value) */\n      tag_507\n        /* \"contracts/cropsFarmer.sol\":8024:8033  msg.value */\n      callvalue\n        /* \"contracts/cropsFarmer.sol\":7998:8019  address(this).balance */\n      selfbalance\n        /* \"contracts/cropsFarmer.sol\":7998:8023  address(this).balance.sub */\n      tag_431\n      swap1\n        /* \"contracts/cropsFarmer.sol\":7998:8034  address(this).balance.sub(msg.value) */\n      swap2\n      swap1\n      0xffffffff\n      and\n      jump\t// in\n    tag_507:\n        /* \"contracts/cropsFarmer.sol\":7971:7986  calculateEggBuy */\n      tag_152\n        /* \"contracts/cropsFarmer.sol\":7971:8035  calculateEggBuy(msg.value, address(this).balance.sub(msg.value)) */\n      jump\t// in\n    tag_506:\n        /* \"contracts/cropsFarmer.sol\":7950:8035  uint256 eggsBought = calculateEggBuy(msg.value, address(this).balance.sub(msg.value)) */\n      swap1\n      pop\n        /* \"contracts/cropsFarmer.sol\":8064:8095  user.userDeposit.add(msg.value) */\n      tag_508\n        /* \"contracts/cropsFarmer.sol\":8085:8094  msg.value */\n      callvalue\n        /* \"contracts/cropsFarmer.sol\":8064:8068  user */\n      dup4\n        /* \"contracts/cropsFarmer.sol\":8064:8080  user.userDeposit */\n      0x01\n      add\n      sload\n        /* \"contracts/cropsFarmer.sol\":8064:8084  user.userDeposit.add */\n      tag_426\n      swap1\n        /* \"contracts/cropsFarmer.sol\":8064:8095  user.userDeposit.add(msg.value) */\n      swap2\n      swap1\n      0xffffffff\n      and\n      jump\t// in\n    tag_508:\n        /* \"contracts/cropsFarmer.sol\":8045:8049  user */\n      dup3\n        /* \"contracts/cropsFarmer.sol\":8045:8061  user.userDeposit */\n      0x01\n      add\n        /* \"contracts/cropsFarmer.sol\":8045:8095  user.userDeposit = user.userDeposit.add(msg.value) */\n      dup2\n      swap1\n      sstore\n      pop\n        /* \"contracts/cropsFarmer.sol\":8127:8161  user.initialDeposit.add(msg.value) */\n      tag_509\n        /* \"contracts/cropsFarmer.sol\":8151:8160  msg.value */\n      callvalue\n        /* \"contracts/cropsFarmer.sol\":8127:8131  user */\n      dup4\n        /* \"contracts/cropsFarmer.sol\":8127:8146  user.initialDeposit */\n      0x00\n      add\n      sload\n        /* \"contracts/cropsFarmer.sol\":8127:8150  user.initialDeposit.add */\n      tag_426\n      swap1\n        /* \"contracts/cropsFarmer.sol\":8127:8161  user.initialDeposit.add(msg.value) */\n      swap2\n      swap1\n      0xffffffff\n      and\n      jump\t// in\n    tag_509:\n        /* \"contracts/cropsFarmer.sol\":8105:8109  user */\n      dup3\n        /* \"contracts/cropsFarmer.sol\":8105:8124  user.initialDeposit */\n      0x00\n      add\n        /* \"contracts/cropsFarmer.sol\":8105:8161  user.initialDeposit = user.initialDeposit.add(msg.value) */\n      dup2\n      swap1\n      sstore\n      pop\n        /* \"contracts/cropsFarmer.sol\":8190:8222  user.claimedEggs.add(eggsBought) */\n      tag_510\n        /* \"contracts/cropsFarmer.sol\":8211:8221  eggsBought */\n      dup2\n        /* \"contracts/cropsFarmer.sol\":8190:8194  user */\n      dup4\n        /* \"contracts/cropsFarmer.sol\":8190:8206  user.claimedEggs */\n      0x03\n      add\n      sload\n        /* \"contracts/cropsFarmer.sol\":8190:8210  user.claimedEggs.add */\n      tag_426\n      swap1\n        /* \"contracts/cropsFarmer.sol\":8190:8222  user.claimedEggs.add(eggsBought) */\n      swap2\n      swap1\n      0xffffffff\n      and\n      jump\t// in\n    tag_510:\n        /* \"contracts/cropsFarmer.sol\":8171:8175  user */\n      dup3\n        /* \"contracts/cropsFarmer.sol\":8171:8187  user.claimedEggs */\n      0x03\n      add\n        /* \"contracts/cropsFarmer.sol\":8171:8222  user.claimedEggs = user.claimedEggs.add(eggsBought) */\n      dup2\n      swap1\n      sstore\n      pop\n        /* \"contracts/cropsFarmer.sol\":8271:8272  0 */\n      0x00\n        /* \"contracts/cropsFarmer.sol\":8246:8273  user.referrer == address(0) */\n      0xffffffffffffffffffffffffffffffffffffffff\n      and\n        /* \"contracts/cropsFarmer.sol\":8246:8250  user */\n      dup3\n        /* \"contracts/cropsFarmer.sol\":8246:8259  user.referrer */\n      0x05\n      add\n      0x00\n      swap1\n      sload\n      swap1\n      0x0100\n      exp\n      swap1\n      div\n      0xffffffffffffffffffffffffffffffffffffffff\n      and\n        /* \"contracts/cropsFarmer.sol\":8246:8273  user.referrer == address(0) */\n      0xffffffffffffffffffffffffffffffffffffffff\n      and\n      eq\n        /* \"contracts/cropsFarmer.sol\":8242:8561  if (user.referrer == address(0)) {... */\n      iszero\n      tag_511\n      jumpi\n        /* \"contracts/cropsFarmer.sol\":8300:8310  msg.sender */\n      caller\n        /* \"contracts/cropsFarmer.sol\":8293:8310  ref != msg.sender */\n      0xffffffffffffffffffffffffffffffffffffffff\n      and\n        /* \"contracts/cropsFarmer.sol\":8293:8296  ref */\n      dup4\n        /* \"contracts/cropsFarmer.sol\":8293:8310  ref != msg.sender */\n      0xffffffffffffffffffffffffffffffffffffffff\n      and\n      eq\n        /* \"contracts/cropsFarmer.sol\":8289:8364  if (ref != msg.sender) {... */\n      tag_512\n      jumpi\n        /* \"contracts/cropsFarmer.sol\":8346:8349  ref */\n      dup3\n        /* \"contracts/cropsFarmer.sol\":8330:8334  user */\n      dup3\n        /* \"contracts/cropsFarmer.sol\":8330:8343  user.referrer */\n      0x05\n      add\n      0x00\n        /* \"contracts/cropsFarmer.sol\":8330:8349  user.referrer = ref */\n      0x0100\n      exp\n      dup2\n      sload\n      dup2\n      0xffffffffffffffffffffffffffffffffffffffff\n      mul\n      not\n      and\n      swap1\n      dup4\n      0xffffffffffffffffffffffffffffffffffffffff\n      and\n      mul\n      or\n      swap1\n      sstore\n      pop\n        /* \"contracts/cropsFarmer.sol\":8289:8364  if (ref != msg.sender) {... */\n    tag_512:\n        /* \"contracts/cropsFarmer.sol\":8378:8393  address upline1 */\n      0x00\n        /* \"contracts/cropsFarmer.sol\":8396:8400  user */\n      dup3\n        /* \"contracts/cropsFarmer.sol\":8396:8409  user.referrer */\n      0x05\n      add\n      0x00\n      swap1\n      sload\n      swap1\n      0x0100\n      exp\n      swap1\n      div\n      0xffffffffffffffffffffffffffffffffffffffff\n      and\n        /* \"contracts/cropsFarmer.sol\":8378:8409  address upline1 = user.referrer */\n      swap1\n      pop\n        /* \"contracts/cropsFarmer.sol\":8446:8447  0 */\n      0x00\n        /* \"contracts/cropsFarmer.sol\":8427:8448  upline1 != address(0) */\n      0xffffffffffffffffffffffffffffffffffffffff\n      and\n        /* \"contracts/cropsFarmer.sol\":8427:8434  upline1 */\n      dup2\n        /* \"contracts/cropsFarmer.sol\":8427:8448  upline1 != address(0) */\n      0xffffffffffffffffffffffffffffffffffffffff\n      and\n      eq\n        /* \"contracts/cropsFarmer.sol\":8423:8551  if (upline1 != address(0)) {... */\n      tag_513\n      jumpi\n        /* \"contracts/cropsFarmer.sol\":8500:8536  users[upline1].referralsCount.add(1) */\n      tag_514\n        /* \"contracts/cropsFarmer.sol\":8534:8535  1 */\n      0x01\n        /* \"contracts/cropsFarmer.sol\":8500:8505  users */\n      0x23\n        /* \"contracts/cropsFarmer.sol\":8500:8514  users[upline1] */\n      0x00\n        /* \"contracts/cropsFarmer.sol\":8506:8513  upline1 */\n      dup5\n        /* \"contracts/cropsFarmer.sol\":8500:8514  users[upline1] */\n      0xffffffffffffffffffffffffffffffffffffffff\n      and\n      0xffffffffffffffffffffffffffffffffffffffff\n      and\n      dup2\n      mstore\n      0x20\n      add\n      swap1\n      dup2\n      mstore\n      0x20\n      add\n      0x00\n      keccak256\n        /* \"contracts/cropsFarmer.sol\":8500:8529  users[upline1].referralsCount */\n      0x06\n      add\n      sload\n        /* \"contracts/cropsFarmer.sol\":8500:8533  users[upline1].referralsCount.add */\n      tag_426\n      swap1\n        /* \"contracts/cropsFarmer.sol\":8500:8536  users[upline1].referralsCount.add(1) */\n      swap2\n      swap1\n      0xffffffff\n      and\n      jump\t// in\n    tag_514:\n        /* \"contracts/cropsFarmer.sol\":8468:8473  users */\n      0x23\n        /* \"contracts/cropsFarmer.sol\":8468:8482  users[upline1] */\n      0x00\n        /* \"contracts/cropsFarmer.sol\":8474:8481  upline1 */\n      dup4\n        /* \"contracts/cropsFarmer.sol\":8468:8482  users[upline1] */\n      0xffffffffffffffffffffffffffffffffffffffff\n      and\n      0xffffffffffffffffffffffffffffffffffffffff\n      and\n      dup2\n      mstore\n      0x20\n      add\n      swap1\n      dup2\n      mstore\n      0x20\n      add\n      0x00\n      keccak256\n        /* \"contracts/cropsFarmer.sol\":8468:8497  users[upline1].referralsCount */\n      0x06\n      add\n        /* \"contracts/cropsFarmer.sol\":8468:8536  users[upline1].referralsCount = users[upline1].referralsCount.add(1) */\n      dup2\n      swap1\n      sstore\n      pop\n        /* \"contracts/cropsFarmer.sol\":8423:8551  if (upline1 != address(0)) {... */\n    tag_513:\n        /* \"contracts/cropsFarmer.sol\":8275:8561  {... */\n      pop\n        /* \"contracts/cropsFarmer.sol\":8242:8561  if (user.referrer == address(0)) {... */\n    tag_511:\n        /* \"contracts/cropsFarmer.sol\":8616:8617  0 */\n      0x00\n        /* \"contracts/cropsFarmer.sol\":8591:8618  user.referrer != address(0) */\n      0xffffffffffffffffffffffffffffffffffffffff\n      and\n        /* \"contracts/cropsFarmer.sol\":8591:8595  user */\n      dup3\n        /* \"contracts/cropsFarmer.sol\":8591:8604  user.referrer */\n      0x05\n      add\n      0x00\n      swap1\n      sload\n      swap1\n      0x0100\n      exp\n      swap1\n      div\n      0xffffffffffffffffffffffffffffffffffffffff\n      and\n        /* \"contracts/cropsFarmer.sol\":8591:8618  user.referrer != address(0) */\n      0xffffffffffffffffffffffffffffffffffffffff\n      and\n      eq\n        /* \"contracts/cropsFarmer.sol\":8587:9132  if (user.referrer != address(0)) {... */\n      tag_515\n      jumpi\n        /* \"contracts/cropsFarmer.sol\":8647:8690  sendRewardToReferrals(msg.sender,msg.value) */\n      tag_516\n        /* \"contracts/cropsFarmer.sol\":8669:8679  msg.sender */\n      caller\n        /* \"contracts/cropsFarmer.sol\":8680:8689  msg.value */\n      callvalue\n        /* \"contracts/cropsFarmer.sol\":8647:8668  sendRewardToReferrals */\n      tag_517\n        /* \"contracts/cropsFarmer.sol\":8647:8690  sendRewardToReferrals(msg.sender,msg.value) */\n      jump\t// in\n    tag_516:\n        /* \"contracts/cropsFarmer.sol\":8587:9132  if (user.referrer != address(0)) {... */\n    tag_515:\n        /* \"contracts/cropsFarmer.sol\":9142:9160  uint256 eggsPayout */\n      0x00\n        /* \"contracts/cropsFarmer.sol\":9163:9181  payFees(msg.value) */\n      tag_518\n        /* \"contracts/cropsFarmer.sol\":9171:9180  msg.value */\n      callvalue\n        /* \"contracts/cropsFarmer.sol\":9163:9170  payFees */\n      tag_519\n        /* \"contracts/cropsFarmer.sol\":9163:9181  payFees(msg.value) */\n      jump\t// in\n    tag_518:\n        /* \"contracts/cropsFarmer.sol\":9142:9181  uint256 eggsPayout = payFees(msg.value) */\n      swap1\n      pop\n        /* \"contracts/cropsFarmer.sol\":9205:9247  totalStaked.add(msg.value.sub(eggsPayout)) */\n      tag_520\n        /* \"contracts/cropsFarmer.sol\":9221:9246  msg.value.sub(eggsPayout) */\n      tag_521\n        /* \"contracts/cropsFarmer.sol\":9235:9245  eggsPayout */\n      dup3\n        /* \"contracts/cropsFarmer.sol\":9221:9230  msg.value */\n      callvalue\n        /* \"contracts/cropsFarmer.sol\":9221:9234  msg.value.sub */\n      tag_431\n      swap1\n        /* \"contracts/cropsFarmer.sol\":9221:9246  msg.value.sub(eggsPayout) */\n      swap2\n      swap1\n      0xffffffff\n      and\n      jump\t// in\n    tag_521:\n        /* \"contracts/cropsFarmer.sol\":9205:9216  totalStaked */\n      sload(0x0d)\n        /* \"contracts/cropsFarmer.sol\":9205:9220  totalStaked.add */\n      tag_426\n      swap1\n        /* \"contracts/cropsFarmer.sol\":9205:9247  totalStaked.add(msg.value.sub(eggsPayout)) */\n      swap2\n      swap1\n      0xffffffff\n      and\n      jump\t// in\n    tag_520:\n        /* \"contracts/cropsFarmer.sol\":9191:9202  totalStaked */\n      0x0d\n        /* \"contracts/cropsFarmer.sol\":9191:9247  totalStaked = totalStaked.add(msg.value.sub(eggsPayout)) */\n      dup2\n      swap1\n      sstore\n      pop\n        /* \"contracts/cropsFarmer.sol\":9273:9293  totalDeposits.add(1) */\n      tag_522\n        /* \"contracts/cropsFarmer.sol\":9291:9292  1 */\n      0x01\n        /* \"contracts/cropsFarmer.sol\":9273:9286  totalDeposits */\n      sload(0x0e)\n        /* \"contracts/cropsFarmer.sol\":9273:9290  totalDeposits.add */\n      tag_426\n      swap1\n        /* \"contracts/cropsFarmer.sol\":9273:9293  totalDeposits.add(1) */\n      swap2\n      swap1\n      0xffffffff\n      and\n      jump\t// in\n    tag_522:\n        /* \"contracts/cropsFarmer.sol\":9257:9270  totalDeposits */\n      0x0e\n        /* \"contracts/cropsFarmer.sol\":9257:9293  totalDeposits = totalDeposits.add(1) */\n      dup2\n      swap1\n      sstore\n      pop\n        /* \"contracts/cropsFarmer.sol\":9303:9325  hireMoreFarmers(false) */\n      tag_523\n        /* \"contracts/cropsFarmer.sol\":9319:9324  false */\n      0x00\n        /* \"contracts/cropsFarmer.sol\":9303:9318  hireMoreFarmers */\n      tag_122\n        /* \"contracts/cropsFarmer.sol\":9303:9325  hireMoreFarmers(false) */\n      jump\t// in\n    tag_523:\n        /* \"contracts/cropsFarmer.sol\":7546:9332  {... */\n      pop\n      pop\n      pop\n        /* \"contracts/cropsFarmer.sol\":7498:9332  function hireFarmers(address ref) public payable{... */\n      pop\n      jump\t// out\n        /* \"contracts/cropsFarmer.sol\":15943:16125  function PRC_REFERRAL(uint256 value) external {... */\n    tag_214:\n        /* \"contracts/cropsFarmer.sol\":16021:16026  owner */\n      0x1c\n      0x00\n      swap1\n      sload\n      swap1\n      0x0100\n      exp\n      swap1\n      div\n      0xffffffffffffffffffffffffffffffffffffffff\n      and\n        /* \"contracts/cropsFarmer.sol\":16007:16026  msg.sender == owner */\n      0xffffffffffffffffffffffffffffffffffffffff\n      and\n        /* \"contracts/cropsFarmer.sol\":16007:16017  msg.sender */\n      caller\n        /* \"contracts/cropsFarmer.sol\":16007:16026  msg.sender == owner */\n      0xffffffffffffffffffffffffffffffffffffffff\n      and\n      eq\n        /* \"contracts/cropsFarmer.sol\":15999:16046  require(msg.sender == owner, \"Admin use only.\") */\n      tag_525\n      jumpi\n      mload(0x40)\n      0x08c379a000000000000000000000000000000000000000000000000000000000\n      dup2\n      mstore\n      0x04\n      add\n      tag_526\n      swap1\n      tag_445\n      jump\t// in\n    tag_526:\n      mload(0x40)\n      dup1\n      swap2\n      sub\n      swap1\n      revert\n    tag_525:\n        /* \"contracts/cropsFarmer.sol\":16073:16075  10 */\n      0x0a\n        /* \"contracts/cropsFarmer.sol\":16064:16069  value */\n      dup2\n        /* \"contracts/cropsFarmer.sol\":16064:16075  value >= 10 */\n      lt\n      iszero\n        /* \"contracts/cropsFarmer.sol\":16064:16091  value >= 10 && value <= 100 */\n      dup1\n      iszero\n      tag_527\n      jumpi\n      pop\n        /* \"contracts/cropsFarmer.sol\":16088:16091  100 */\n      0x64\n        /* \"contracts/cropsFarmer.sol\":16079:16084  value */\n      dup2\n        /* \"contracts/cropsFarmer.sol\":16079:16091  value <= 100 */\n      gt\n      iszero\n        /* \"contracts/cropsFarmer.sol\":16064:16091  value >= 10 && value <= 100 */\n    tag_527:\n        /* \"contracts/cropsFarmer.sol\":16056:16092  require(value >= 10 && value <= 100) */\n      tag_528\n      jumpi\n      0x00\n      dup1\n      revert\n    tag_528:\n        /* \"contracts/cropsFarmer.sol\":16113:16118  value */\n      dup1\n        /* \"contracts/cropsFarmer.sol\":16102:16110  REFERRAL */\n      0x01\n        /* \"contracts/cropsFarmer.sol\":16102:16118  REFERRAL = value */\n      dup2\n      swap1\n      sstore\n      pop\n        /* \"contracts/cropsFarmer.sol\":15943:16125  function PRC_REFERRAL(uint256 value) external {... */\n      pop\n      jump\t// out\n        /* \"contracts/cropsFarmer.sol\":5045:6542  function sellCrops() public{... */\n    tag_217:\n        /* \"contracts/cropsFarmer.sol\":5090:5105  contractStarted */\n      0x15\n      0x00\n      swap1\n      sload\n      swap1\n      0x0100\n      exp\n      swap1\n      div\n      0xff\n      and\n        /* \"contracts/cropsFarmer.sol\":5082:5135  require(contractStarted, \"Contract not yet Started.\") */\n      tag_530\n      jumpi\n      mload(0x40)\n      0x08c379a000000000000000000000000000000000000000000000000000000000\n      dup2\n      mstore\n      0x04\n      add\n      tag_531\n      swap1\n      tag_421\n      jump\t// in\n    tag_531:\n      mload(0x40)\n      dup1\n      swap2\n      sub\n      swap1\n      revert\n    tag_530:\n        /* \"contracts/cropsFarmer.sol\":5150:5165  blacklistActive */\n      0x15\n      0x01\n      swap1\n      sload\n      swap1\n      0x0100\n      exp\n      swap1\n      div\n      0xff\n      and\n        /* \"contracts/cropsFarmer.sol\":5146:5252  if (blacklistActive) {... */\n      iszero\n      tag_532\n      jumpi\n        /* \"contracts/cropsFarmer.sol\":5190:5201  Blacklisted */\n      0x16\n        /* \"contracts/cropsFarmer.sol\":5190:5213  Blacklisted[msg.sender] */\n      0x00\n        /* \"contracts/cropsFarmer.sol\":5202:5212  msg.sender */\n      caller\n        /* \"contracts/cropsFarmer.sol\":5190:5213  Blacklisted[msg.sender] */\n      0xffffffffffffffffffffffffffffffffffffffff\n      and\n      0xffffffffffffffffffffffffffffffffffffffff\n      and\n      dup2\n      mstore\n      0x20\n      add\n      swap1\n      dup2\n      mstore\n      0x20\n      add\n      0x00\n      keccak256\n      0x00\n      swap1\n      sload\n      swap1\n      0x0100\n      exp\n      swap1\n      div\n      0xff\n      and\n        /* \"contracts/cropsFarmer.sol\":5189:5213  !Blacklisted[msg.sender] */\n      iszero\n        /* \"contracts/cropsFarmer.sol\":5181:5241  require(!Blacklisted[msg.sender], \"Address is blacklisted.\") */\n      tag_533\n      jumpi\n      mload(0x40)\n      0x08c379a000000000000000000000000000000000000000000000000000000000\n      dup2\n      mstore\n      0x04\n      add\n      tag_534\n      swap1\n      tag_535\n      jump\t// in\n    tag_534:\n      mload(0x40)\n      dup1\n      swap2\n      sub\n      swap1\n      revert\n    tag_533:\n        /* \"contracts/cropsFarmer.sol\":5146:5252  if (blacklistActive) {... */\n    tag_532:\n        /* \"contracts/cropsFarmer.sol\":5262:5279  User storage user */\n      0x00\n        /* \"contracts/cropsFarmer.sol\":5282:5287  users */\n      0x23\n        /* \"contracts/cropsFarmer.sol\":5282:5299  users[msg.sender] */\n      0x00\n        /* \"contracts/cropsFarmer.sol\":5288:5298  msg.sender */\n      caller\n        /* \"contracts/cropsFarmer.sol\":5282:5299  users[msg.sender] */\n      0xffffffffffffffffffffffffffffffffffffffff\n      and\n      0xffffffffffffffffffffffffffffffffffffffff\n      and\n      dup2\n      mstore\n      0x20\n      add\n      swap1\n      dup2\n      mstore\n      0x20\n      add\n      0x00\n      keccak256\n        /* \"contracts/cropsFarmer.sol\":5262:5299  User storage user = users[msg.sender] */\n      swap1\n      pop\n        /* \"contracts/cropsFarmer.sol\":5309:5324  uint256 hasEggs */\n      0x00\n        /* \"contracts/cropsFarmer.sol\":5327:5338  getMyEggs() */\n      tag_536\n        /* \"contracts/cropsFarmer.sol\":5327:5336  getMyEggs */\n      tag_183\n        /* \"contracts/cropsFarmer.sol\":5327:5338  getMyEggs() */\n      jump\t// in\n    tag_536:\n        /* \"contracts/cropsFarmer.sol\":5309:5338  uint256 hasEggs = getMyEggs() */\n      swap1\n      pop\n        /* \"contracts/cropsFarmer.sol\":5348:5364  uint256 eggValue */\n      0x00\n        /* \"contracts/cropsFarmer.sol\":5367:5392  calculateEggSell(hasEggs) */\n      tag_537\n        /* \"contracts/cropsFarmer.sol\":5384:5391  hasEggs */\n      dup3\n        /* \"contracts/cropsFarmer.sol\":5367:5383  calculateEggSell */\n      tag_298\n        /* \"contracts/cropsFarmer.sol\":5367:5392  calculateEggSell(hasEggs) */\n      jump\t// in\n    tag_537:\n        /* \"contracts/cropsFarmer.sol\":5348:5392  uint256 eggValue = calculateEggSell(hasEggs) */\n      swap1\n      pop\n        /* \"contracts/cropsFarmer.sol\":5514:5544  COMPOUND_FOR_NO_TAX_WITHDRAWAL */\n      sload(0x0c)\n        /* \"contracts/cropsFarmer.sol\":5488:5492  user */\n      dup4\n        /* \"contracts/cropsFarmer.sol\":5488:5511  user.dailyCompoundBonus */\n      0x09\n      add\n      sload\n        /* \"contracts/cropsFarmer.sol\":5488:5544  user.dailyCompoundBonus < COMPOUND_FOR_NO_TAX_WITHDRAWAL */\n      lt\n        /* \"contracts/cropsFarmer.sol\":5485:5993  if(user.dailyCompoundBonus < COMPOUND_FOR_NO_TAX_WITHDRAWAL){... */\n      iszero\n      tag_538\n      jumpi\n        /* \"contracts/cropsFarmer.sol\":5679:5743  eggValue.sub(eggValue.mul(WITHDRAWAL_TAX).div(PERCENTS_DIVIDER)) */\n      tag_539\n        /* \"contracts/cropsFarmer.sol\":5692:5742  eggValue.mul(WITHDRAWAL_TAX).div(PERCENTS_DIVIDER) */\n      tag_540\n        /* \"contracts/cropsFarmer.sol\":5725:5741  PERCENTS_DIVIDER */\n      sload(0x02)\n        /* \"contracts/cropsFarmer.sol\":5692:5720  eggValue.mul(WITHDRAWAL_TAX) */\n      tag_541\n        /* \"contracts/cropsFarmer.sol\":5705:5719  WITHDRAWAL_TAX */\n      sload(0x0b)\n        /* \"contracts/cropsFarmer.sol\":5692:5700  eggValue */\n      dup6\n        /* \"contracts/cropsFarmer.sol\":5692:5704  eggValue.mul */\n      tag_450\n      swap1\n        /* \"contracts/cropsFarmer.sol\":5692:5720  eggValue.mul(WITHDRAWAL_TAX) */\n      swap2\n      swap1\n      0xffffffff\n      and\n      jump\t// in\n    tag_541:\n        /* \"contracts/cropsFarmer.sol\":5692:5724  eggValue.mul(WITHDRAWAL_TAX).div */\n      tag_439\n      swap1\n        /* \"contracts/cropsFarmer.sol\":5692:5742  eggValue.mul(WITHDRAWAL_TAX).div(PERCENTS_DIVIDER) */\n      swap2\n      swap1\n      0xffffffff\n      and\n      jump\t// in\n    tag_540:\n        /* \"contracts/cropsFarmer.sol\":5679:5687  eggValue */\n      dup3\n        /* \"contracts/cropsFarmer.sol\":5679:5691  eggValue.sub */\n      tag_431\n      swap1\n        /* \"contracts/cropsFarmer.sol\":5679:5743  eggValue.sub(eggValue.mul(WITHDRAWAL_TAX).div(PERCENTS_DIVIDER)) */\n      swap2\n      swap1\n      0xffffffff\n      and\n      jump\t// in\n    tag_539:\n        /* \"contracts/cropsFarmer.sol\":5668:5743  eggValue = eggValue.sub(eggValue.mul(WITHDRAWAL_TAX).div(PERCENTS_DIVIDER)) */\n      swap1\n      pop\n        /* \"contracts/cropsFarmer.sol\":5485:5993  if(user.dailyCompoundBonus < COMPOUND_FOR_NO_TAX_WITHDRAWAL){... */\n      jump(tag_542)\n    tag_538:\n        /* \"contracts/cropsFarmer.sol\":5893:5894  0 */\n      0x00\n        /* \"contracts/cropsFarmer.sol\":5867:5871  user */\n      dup4\n        /* \"contracts/cropsFarmer.sol\":5867:5890  user.dailyCompoundBonus */\n      0x09\n      add\n        /* \"contracts/cropsFarmer.sol\":5867:5894  user.dailyCompoundBonus = 0 */\n      dup2\n      swap1\n      sstore\n      pop\n        /* \"contracts/cropsFarmer.sol\":5939:5940  0 */\n      0x00\n        /* \"contracts/cropsFarmer.sol\":5912:5916  user */\n      dup4\n        /* \"contracts/cropsFarmer.sol\":5912:5936  user.farmerCompoundCount */\n      0x0a\n      add\n        /* \"contracts/cropsFarmer.sol\":5912:5940  user.farmerCompoundCount = 0 */\n      dup2\n      swap1\n      sstore\n      pop\n        /* \"contracts/cropsFarmer.sol\":5981:5982  0 */\n      0x00\n        /* \"contracts/cropsFarmer.sol\":5957:5968  total_Bonus */\n      0x19\n        /* \"contracts/cropsFarmer.sol\":5957:5980  total_Bonus[msg.sender] */\n      0x00\n        /* \"contracts/cropsFarmer.sol\":5969:5979  msg.sender */\n      caller\n        /* \"contracts/cropsFarmer.sol\":5957:5980  total_Bonus[msg.sender] */\n      0xffffffffffffffffffffffffffffffffffffffff\n      and\n      0xffffffffffffffffffffffffffffffffffffffff\n      and\n      dup2\n      mstore\n      0x20\n      add\n      swap1\n      dup2\n      mstore\n      0x20\n      add\n      0x00\n      keccak256\n        /* \"contracts/cropsFarmer.sol\":5957:5982  total_Bonus[msg.sender]=0 */\n      dup2\n      swap1\n      sstore\n      pop\n        /* \"contracts/cropsFarmer.sol\":5485:5993  if(user.dailyCompoundBonus < COMPOUND_FOR_NO_TAX_WITHDRAWAL){... */\n    tag_542:\n        /* \"contracts/cropsFarmer.sol\":6035:6050  block.timestamp */\n      timestamp\n        /* \"contracts/cropsFarmer.sol\":6011:6015  user */\n      dup4\n        /* \"contracts/cropsFarmer.sol\":6011:6032  user.lastWithdrawTime */\n      0x0b\n      add\n        /* \"contracts/cropsFarmer.sol\":6011:6050  user.lastWithdrawTime = block.timestamp */\n      dup2\n      swap1\n      sstore\n      pop\n        /* \"contracts/cropsFarmer.sol\":6079:6080  0 */\n      0x00\n        /* \"contracts/cropsFarmer.sol\":6060:6064  user */\n      dup4\n        /* \"contracts/cropsFarmer.sol\":6060:6076  user.claimedEggs */\n      0x03\n      add\n        /* \"contracts/cropsFarmer.sol\":6060:6080  user.claimedEggs = 0 */\n      dup2\n      swap1\n      sstore\n      pop\n        /* \"contracts/cropsFarmer.sol\":6109:6124  block.timestamp */\n      timestamp\n        /* \"contracts/cropsFarmer.sol\":6092:6096  user */\n      dup4\n        /* \"contracts/cropsFarmer.sol\":6092:6106  user.lastHatch */\n      0x04\n      add\n        /* \"contracts/cropsFarmer.sol\":6092:6124  user.lastHatch = block.timestamp */\n      dup2\n      swap1\n      sstore\n      pop\n        /* \"contracts/cropsFarmer.sol\":6147:6195  marketEggs.add(hasEggs.div(MARKET_EGGS_DIVISOR)) */\n      tag_543\n        /* \"contracts/cropsFarmer.sol\":6162:6194  hasEggs.div(MARKET_EGGS_DIVISOR) */\n      tag_544\n        /* \"contracts/cropsFarmer.sol\":6174:6193  MARKET_EGGS_DIVISOR */\n      sload(0x05)\n        /* \"contracts/cropsFarmer.sol\":6162:6169  hasEggs */\n      dup5\n        /* \"contracts/cropsFarmer.sol\":6162:6173  hasEggs.div */\n      tag_439\n      swap1\n        /* \"contracts/cropsFarmer.sol\":6162:6194  hasEggs.div(MARKET_EGGS_DIVISOR) */\n      swap2\n      swap1\n      0xffffffff\n      and\n      jump\t// in\n    tag_544:\n        /* \"contracts/cropsFarmer.sol\":6147:6157  marketEggs */\n      sload(0x12)\n        /* \"contracts/cropsFarmer.sol\":6147:6161  marketEggs.add */\n      tag_426\n      swap1\n        /* \"contracts/cropsFarmer.sol\":6147:6195  marketEggs.add(hasEggs.div(MARKET_EGGS_DIVISOR)) */\n      swap2\n      swap1\n      0xffffffff\n      and\n      jump\t// in\n    tag_543:\n        /* \"contracts/cropsFarmer.sol\":6134:6144  marketEggs */\n      0x12\n        /* \"contracts/cropsFarmer.sol\":6134:6195  marketEggs = marketEggs.add(hasEggs.div(MARKET_EGGS_DIVISOR)) */\n      dup2\n      swap1\n      sstore\n      pop\n        /* \"contracts/cropsFarmer.sol\":6232:6240  eggValue */\n      dup1\n        /* \"contracts/cropsFarmer.sol\":6217:6229  getBalance() */\n      tag_545\n        /* \"contracts/cropsFarmer.sol\":6217:6227  getBalance */\n      tag_112\n        /* \"contracts/cropsFarmer.sol\":6217:6229  getBalance() */\n      jump\t// in\n    tag_545:\n        /* \"contracts/cropsFarmer.sol\":6217:6240  getBalance() < eggValue */\n      lt\n        /* \"contracts/cropsFarmer.sol\":6214:6290  if(getBalance() < eggValue) {... */\n      iszero\n      tag_546\n      jumpi\n        /* \"contracts/cropsFarmer.sol\":6267:6279  getBalance() */\n      tag_547\n        /* \"contracts/cropsFarmer.sol\":6267:6277  getBalance */\n      tag_112\n        /* \"contracts/cropsFarmer.sol\":6267:6279  getBalance() */\n      jump\t// in\n    tag_547:\n        /* \"contracts/cropsFarmer.sol\":6256:6279  eggValue = getBalance() */\n      swap1\n      pop\n        /* \"contracts/cropsFarmer.sol\":6214:6290  if(getBalance() < eggValue) {... */\n    tag_546:\n        /* \"contracts/cropsFarmer.sol\":6300:6318  uint256 eggsPayout */\n      0x00\n        /* \"contracts/cropsFarmer.sol\":6321:6352  eggValue.sub(payFees(eggValue)) */\n      tag_548\n        /* \"contracts/cropsFarmer.sol\":6334:6351  payFees(eggValue) */\n      tag_549\n        /* \"contracts/cropsFarmer.sol\":6342:6350  eggValue */\n      dup4\n        /* \"contracts/cropsFarmer.sol\":6334:6341  payFees */\n      tag_519\n        /* \"contracts/cropsFarmer.sol\":6334:6351  payFees(eggValue) */\n      jump\t// in\n    tag_549:\n        /* \"contracts/cropsFarmer.sol\":6321:6329  eggValue */\n      dup4\n        /* \"contracts/cropsFarmer.sol\":6321:6333  eggValue.sub */\n      tag_431\n      swap1\n        /* \"contracts/cropsFarmer.sol\":6321:6352  eggValue.sub(payFees(eggValue)) */\n      swap2\n      swap1\n      0xffffffff\n      and\n      jump\t// in\n    tag_548:\n        /* \"contracts/cropsFarmer.sol\":6300:6352  uint256 eggsPayout = eggValue.sub(payFees(eggValue)) */\n      swap1\n      pop\n        /* \"contracts/cropsFarmer.sol\":6378:6388  msg.sender */\n      caller\n        /* \"contracts/cropsFarmer.sol\":6362:6399  payable(address(msg.sender)).transfer */\n      0xffffffffffffffffffffffffffffffffffffffff\n      and\n        /* \"contracts/cropsFarmer.sol\":6362:6411  payable(address(msg.sender)).transfer(eggsPayout) */\n      0x08fc\n        /* \"contracts/cropsFarmer.sol\":6400:6410  eggsPayout */\n      dup3\n        /* \"contracts/cropsFarmer.sol\":6362:6411  payable(address(msg.sender)).transfer(eggsPayout) */\n      swap1\n      dup2\n      iszero\n      mul\n      swap1\n      mload(0x40)\n      0x00\n      mload(0x40)\n      dup1\n      dup4\n      sub\n      dup2\n      dup6\n      dup9\n      dup9\n      call\n      swap4\n      pop\n      pop\n      pop\n      pop\n      iszero\n      dup1\n      iszero\n      tag_551\n      jumpi\n      returndatasize\n      0x00\n      dup1\n      returndatacopy\n      revert(0x00, returndatasize)\n    tag_551:\n      pop\n        /* \"contracts/cropsFarmer.sol\":6443:6478  user.totalWithdrawn.add(eggsPayout) */\n      tag_552\n        /* \"contracts/cropsFarmer.sol\":6467:6477  eggsPayout */\n      dup2\n        /* \"contracts/cropsFarmer.sol\":6443:6447  user */\n      dup6\n        /* \"contracts/cropsFarmer.sol\":6443:6462  user.totalWithdrawn */\n      0x08\n      add\n      sload\n        /* \"contracts/cropsFarmer.sol\":6443:6466  user.totalWithdrawn.add */\n      tag_426\n      swap1\n        /* \"contracts/cropsFarmer.sol\":6443:6478  user.totalWithdrawn.add(eggsPayout) */\n      swap2\n      swap1\n      0xffffffff\n      and\n      jump\t// in\n    tag_552:\n        /* \"contracts/cropsFarmer.sol\":6421:6425  user */\n      dup5\n        /* \"contracts/cropsFarmer.sol\":6421:6440  user.totalWithdrawn */\n      0x08\n      add\n        /* \"contracts/cropsFarmer.sol\":6421:6478  user.totalWithdrawn = user.totalWithdrawn.add(eggsPayout) */\n      dup2\n      swap1\n      sstore\n      pop\n        /* \"contracts/cropsFarmer.sol\":6505:6535  totalWithdrawn.add(eggsPayout) */\n      tag_553\n        /* \"contracts/cropsFarmer.sol\":6524:6534  eggsPayout */\n      dup2\n        /* \"contracts/cropsFarmer.sol\":6505:6519  totalWithdrawn */\n      sload(0x11)\n        /* \"contracts/cropsFarmer.sol\":6505:6523  totalWithdrawn.add */\n      tag_426\n      swap1\n        /* \"contracts/cropsFarmer.sol\":6505:6535  totalWithdrawn.add(eggsPayout) */\n      swap2\n      swap1\n      0xffffffff\n      and\n      jump\t// in\n    tag_553:\n        /* \"contracts/cropsFarmer.sol\":6488:6502  totalWithdrawn */\n      0x11\n        /* \"contracts/cropsFarmer.sol\":6488:6535  totalWithdrawn = totalWithdrawn.add(eggsPayout) */\n      dup2\n      swap1\n      sstore\n      pop\n        /* \"contracts/cropsFarmer.sol\":5072:6542  {... */\n      pop\n      pop\n      pop\n      pop\n        /* \"contracts/cropsFarmer.sol\":5045:6542  function sellCrops() public{... */\n      jump\t// out\n        /* \"contracts/cropsFarmer.sol\":325:363  uint256 public MARKET_EGGS_DIVISOR = 2 */\n    tag_220:\n      sload(0x05)\n      dup2\n      jump\t// out\n        /* \"contracts/cropsFarmer.sol\":10151:11137  function getUserInfo(address _adr) public view returns(uint256 _initialDeposit, uint256 _userDeposit, uint256 _miners,... */\n    tag_225:\n        /* \"contracts/cropsFarmer.sol\":10206:10229  uint256 _initialDeposit */\n      0x00\n        /* \"contracts/cropsFarmer.sol\":10231:10251  uint256 _userDeposit */\n      dup1\n        /* \"contracts/cropsFarmer.sol\":10253:10268  uint256 _miners */\n      0x00\n        /* \"contracts/cropsFarmer.sol\":10275:10295  uint256 _claimedEggs */\n      dup1\n        /* \"contracts/cropsFarmer.sol\":10297:10315  uint256 _lastHatch */\n      0x00\n        /* \"contracts/cropsFarmer.sol\":10317:10334  address _referrer */\n      dup1\n        /* \"contracts/cropsFarmer.sol\":10336:10354  uint256 _referrals */\n      0x00\n        /* \"contracts/cropsFarmer.sol\":10358:10381  uint256 _totalWithdrawn */\n      dup1\n        /* \"contracts/cropsFarmer.sol\":10383:10410  uint256 _referralEggRewards */\n      0x00\n        /* \"contracts/cropsFarmer.sol\":10412:10439  uint256 _dailyCompoundBonus */\n      dup1\n        /* \"contracts/cropsFarmer.sol\":10441:10469  uint256 _farmerCompoundCount */\n      0x00\n        /* \"contracts/cropsFarmer.sol\":10471:10496  uint256 _lastWithdrawTime */\n      dup1\n        /* \"contracts/cropsFarmer.sol\":10527:10532  users */\n      0x23\n        /* \"contracts/cropsFarmer.sol\":10527:10538  users[_adr] */\n      0x00\n        /* \"contracts/cropsFarmer.sol\":10533:10537  _adr */\n      dup15\n        /* \"contracts/cropsFarmer.sol\":10527:10538  users[_adr] */\n      0xffffffffffffffffffffffffffffffffffffffff\n      and\n      0xffffffffffffffffffffffffffffffffffffffff\n      and\n      dup2\n      mstore\n      0x20\n      add\n      swap1\n      dup2\n      mstore\n      0x20\n      add\n      0x00\n      keccak256\n        /* \"contracts/cropsFarmer.sol\":10527:10553  users[_adr].initialDeposit */\n      0x00\n      add\n      sload\n        /* \"contracts/cropsFarmer.sol\":10509:10553  _initialDeposit = users[_adr].initialDeposit */\n      swap12\n      pop\n        /* \"contracts/cropsFarmer.sol\":10579:10584  users */\n      0x23\n        /* \"contracts/cropsFarmer.sol\":10579:10590  users[_adr] */\n      0x00\n        /* \"contracts/cropsFarmer.sol\":10585:10589  _adr */\n      dup15\n        /* \"contracts/cropsFarmer.sol\":10579:10590  users[_adr] */\n      0xffffffffffffffffffffffffffffffffffffffff\n      and\n      0xffffffffffffffffffffffffffffffffffffffff\n      and\n      dup2\n      mstore\n      0x20\n      add\n      swap1\n      dup2\n      mstore\n      0x20\n      add\n      0x00\n      keccak256\n        /* \"contracts/cropsFarmer.sol\":10579:10602  users[_adr].userDeposit */\n      0x01\n      add\n      sload\n        /* \"contracts/cropsFarmer.sol\":10564:10602  _userDeposit = users[_adr].userDeposit */\n      swap11\n      pop\n        /* \"contracts/cropsFarmer.sol\":10623:10628  users */\n      0x23\n        /* \"contracts/cropsFarmer.sol\":10623:10634  users[_adr] */\n      0x00\n        /* \"contracts/cropsFarmer.sol\":10629:10633  _adr */\n      dup15\n        /* \"contracts/cropsFarmer.sol\":10623:10634  users[_adr] */\n      0xffffffffffffffffffffffffffffffffffffffff\n      and\n      0xffffffffffffffffffffffffffffffffffffffff\n      and\n      dup2\n      mstore\n      0x20\n      add\n      swap1\n      dup2\n      mstore\n      0x20\n      add\n      0x00\n      keccak256\n        /* \"contracts/cropsFarmer.sol\":10623:10641  users[_adr].miners */\n      0x02\n      add\n      sload\n        /* \"contracts/cropsFarmer.sol\":10613:10641  _miners = users[_adr].miners */\n      swap10\n      pop\n        /* \"contracts/cropsFarmer.sol\":10667:10672  users */\n      0x23\n        /* \"contracts/cropsFarmer.sol\":10667:10678  users[_adr] */\n      0x00\n        /* \"contracts/cropsFarmer.sol\":10673:10677  _adr */\n      dup15\n        /* \"contracts/cropsFarmer.sol\":10667:10678  users[_adr] */\n      0xffffffffffffffffffffffffffffffffffffffff\n      and\n      0xffffffffffffffffffffffffffffffffffffffff\n      and\n      dup2\n      mstore\n      0x20\n      add\n      swap1\n      dup2\n      mstore\n      0x20\n      add\n      0x00\n      keccak256\n        /* \"contracts/cropsFarmer.sol\":10667:10690  users[_adr].claimedEggs */\n      0x03\n      add\n      sload\n        /* \"contracts/cropsFarmer.sol\":10652:10690  _claimedEggs = users[_adr].claimedEggs */\n      swap9\n      pop\n        /* \"contracts/cropsFarmer.sol\":10714:10719  users */\n      0x23\n        /* \"contracts/cropsFarmer.sol\":10714:10725  users[_adr] */\n      0x00\n        /* \"contracts/cropsFarmer.sol\":10720:10724  _adr */\n      dup15\n        /* \"contracts/cropsFarmer.sol\":10714:10725  users[_adr] */\n      0xffffffffffffffffffffffffffffffffffffffff\n      and\n      0xffffffffffffffffffffffffffffffffffffffff\n      and\n      dup2\n      mstore\n      0x20\n      add\n      swap1\n      dup2\n      mstore\n      0x20\n      add\n      0x00\n      keccak256\n        /* \"contracts/cropsFarmer.sol\":10714:10735  users[_adr].lastHatch */\n      0x04\n      add\n      sload\n        /* \"contracts/cropsFarmer.sol\":10701:10735  _lastHatch = users[_adr].lastHatch */\n      swap8\n      pop\n        /* \"contracts/cropsFarmer.sol\":10758:10763  users */\n      0x23\n        /* \"contracts/cropsFarmer.sol\":10758:10769  users[_adr] */\n      0x00\n        /* \"contracts/cropsFarmer.sol\":10764:10768  _adr */\n      dup15\n        /* \"contracts/cropsFarmer.sol\":10758:10769  users[_adr] */\n      0xffffffffffffffffffffffffffffffffffffffff\n      and\n      0xffffffffffffffffffffffffffffffffffffffff\n      and\n      dup2\n      mstore\n      0x20\n      add\n      swap1\n      dup2\n      mstore\n      0x20\n      add\n      0x00\n      keccak256\n        /* \"contracts/cropsFarmer.sol\":10758:10778  users[_adr].referrer */\n      0x05\n      add\n      0x00\n      swap1\n      sload\n      swap1\n      0x0100\n      exp\n      swap1\n      div\n      0xffffffffffffffffffffffffffffffffffffffff\n      and\n        /* \"contracts/cropsFarmer.sol\":10746:10778  _referrer = users[_adr].referrer */\n      swap7\n      pop\n        /* \"contracts/cropsFarmer.sol\":10802:10807  users */\n      0x23\n        /* \"contracts/cropsFarmer.sol\":10802:10813  users[_adr] */\n      0x00\n        /* \"contracts/cropsFarmer.sol\":10808:10812  _adr */\n      dup15\n        /* \"contracts/cropsFarmer.sol\":10802:10813  users[_adr] */\n      0xffffffffffffffffffffffffffffffffffffffff\n      and\n      0xffffffffffffffffffffffffffffffffffffffff\n      and\n      dup2\n      mstore\n      0x20\n      add\n      swap1\n      dup2\n      mstore\n      0x20\n      add\n      0x00\n      keccak256\n        /* \"contracts/cropsFarmer.sol\":10802:10828  users[_adr].referralsCount */\n      0x06\n      add\n      sload\n        /* \"contracts/cropsFarmer.sol\":10789:10828  _referrals = users[_adr].referralsCount */\n      swap6\n      pop\n        /* \"contracts/cropsFarmer.sol\":10857:10862  users */\n      0x23\n        /* \"contracts/cropsFarmer.sol\":10857:10868  users[_adr] */\n      0x00\n        /* \"contracts/cropsFarmer.sol\":10863:10867  _adr */\n      dup15\n        /* \"contracts/cropsFarmer.sol\":10857:10868  users[_adr] */\n      0xffffffffffffffffffffffffffffffffffffffff\n      and\n      0xffffffffffffffffffffffffffffffffffffffff\n      and\n      dup2\n      mstore\n      0x20\n      add\n      swap1\n      dup2\n      mstore\n      0x20\n      add\n      0x00\n      keccak256\n        /* \"contracts/cropsFarmer.sol\":10857:10883  users[_adr].totalWithdrawn */\n      0x08\n      add\n      sload\n        /* \"contracts/cropsFarmer.sol\":10839:10883  _totalWithdrawn = users[_adr].totalWithdrawn */\n      swap5\n      pop\n        /* \"contracts/cropsFarmer.sol\":10916:10921  users */\n      0x23\n        /* \"contracts/cropsFarmer.sol\":10916:10927  users[_adr] */\n      0x00\n        /* \"contracts/cropsFarmer.sol\":10922:10926  _adr */\n      dup15\n        /* \"contracts/cropsFarmer.sol\":10916:10927  users[_adr] */\n      0xffffffffffffffffffffffffffffffffffffffff\n      and\n      0xffffffffffffffffffffffffffffffffffffffff\n      and\n      dup2\n      mstore\n      0x20\n      add\n      swap1\n      dup2\n      mstore\n      0x20\n      add\n      0x00\n      keccak256\n        /* \"contracts/cropsFarmer.sol\":10916:10946  users[_adr].referralEggRewards */\n      0x07\n      add\n      sload\n        /* \"contracts/cropsFarmer.sol\":10894:10946  _referralEggRewards = users[_adr].referralEggRewards */\n      swap4\n      pop\n        /* \"contracts/cropsFarmer.sol\":10979:10984  users */\n      0x23\n        /* \"contracts/cropsFarmer.sol\":10979:10990  users[_adr] */\n      0x00\n        /* \"contracts/cropsFarmer.sol\":10985:10989  _adr */\n      dup15\n        /* \"contracts/cropsFarmer.sol\":10979:10990  users[_adr] */\n      0xffffffffffffffffffffffffffffffffffffffff\n      and\n      0xffffffffffffffffffffffffffffffffffffffff\n      and\n      dup2\n      mstore\n      0x20\n      add\n      swap1\n      dup2\n      mstore\n      0x20\n      add\n      0x00\n      keccak256\n        /* \"contracts/cropsFarmer.sol\":10979:11009  users[_adr].dailyCompoundBonus */\n      0x09\n      add\n      sload\n        /* \"contracts/cropsFarmer.sol\":10957:11009  _dailyCompoundBonus = users[_adr].dailyCompoundBonus */\n      swap3\n      pop\n        /* \"contracts/cropsFarmer.sol\":11043:11048  users */\n      0x23\n        /* \"contracts/cropsFarmer.sol\":11043:11054  users[_adr] */\n      0x00\n        /* \"contracts/cropsFarmer.sol\":11049:11053  _adr */\n      dup15\n        /* \"contracts/cropsFarmer.sol\":11043:11054  users[_adr] */\n      0xffffffffffffffffffffffffffffffffffffffff\n      and\n      0xffffffffffffffffffffffffffffffffffffffff\n      and\n      dup2\n      mstore\n      0x20\n      add\n      swap1\n      dup2\n      mstore\n      0x20\n      add\n      0x00\n      keccak256\n        /* \"contracts/cropsFarmer.sol\":11043:11074  users[_adr].farmerCompoundCount */\n      0x0a\n      add\n      sload\n        /* \"contracts/cropsFarmer.sol\":11020:11074  _farmerCompoundCount = users[_adr].farmerCompoundCount */\n      swap2\n      pop\n        /* \"contracts/cropsFarmer.sol\":11105:11110  users */\n      0x23\n        /* \"contracts/cropsFarmer.sol\":11105:11116  users[_adr] */\n      0x00\n        /* \"contracts/cropsFarmer.sol\":11111:11115  _adr */\n      dup15\n        /* \"contracts/cropsFarmer.sol\":11105:11116  users[_adr] */\n      0xffffffffffffffffffffffffffffffffffffffff\n      and\n      0xffffffffffffffffffffffffffffffffffffffff\n      and\n      dup2\n      mstore\n      0x20\n      add\n      swap1\n      dup2\n      mstore\n      0x20\n      add\n      0x00\n      keccak256\n        /* \"contracts/cropsFarmer.sol\":11105:11133  users[_adr].lastWithdrawTime */\n      0x0b\n      add\n      sload\n        /* \"contracts/cropsFarmer.sol\":11085:11133  _lastWithdrawTime = users[_adr].lastWithdrawTime */\n      swap1\n      pop\n        /* \"contracts/cropsFarmer.sol\":10151:11137  function getUserInfo(address _adr) public view returns(uint256 _initialDeposit, uint256 _userDeposit, uint256 _miners,... */\n      swap2\n      swap4\n      swap6\n      swap8\n      swap10\n      swap12\n      pop\n      swap2\n      swap4\n      swap6\n      swap8\n      swap10\n      swap12\n      jump\t// out\n        /* \"contracts/cropsFarmer.sol\":11343:11551  function getAvailableEarnings(address _adr) public view returns(uint256) {... */\n    tag_231:\n        /* \"contracts/cropsFarmer.sol\":11407:11414  uint256 */\n      0x00\n        /* \"contracts/cropsFarmer.sol\":11426:11442  uint256 userEggs */\n      dup1\n        /* \"contracts/cropsFarmer.sol\":11445:11501  users[_adr].claimedEggs.add(getEggsSinceLastHatch(_adr)) */\n      tag_556\n        /* \"contracts/cropsFarmer.sol\":11473:11500  getEggsSinceLastHatch(_adr) */\n      tag_557\n        /* \"contracts/cropsFarmer.sol\":11495:11499  _adr */\n      dup5\n        /* \"contracts/cropsFarmer.sol\":11473:11494  getEggsSinceLastHatch */\n      tag_380\n        /* \"contracts/cropsFarmer.sol\":11473:11500  getEggsSinceLastHatch(_adr) */\n      jump\t// in\n    tag_557:\n        /* \"contracts/cropsFarmer.sol\":11445:11450  users */\n      0x23\n        /* \"contracts/cropsFarmer.sol\":11445:11456  users[_adr] */\n      0x00\n        /* \"contracts/cropsFarmer.sol\":11451:11455  _adr */\n      dup7\n        /* \"contracts/cropsFarmer.sol\":11445:11456  users[_adr] */\n      0xffffffffffffffffffffffffffffffffffffffff\n      and\n      0xffffffffffffffffffffffffffffffffffffffff\n      and\n      dup2\n      mstore\n      0x20\n      add\n      swap1\n      dup2\n      mstore\n      0x20\n      add\n      0x00\n      keccak256\n        /* \"contracts/cropsFarmer.sol\":11445:11468  users[_adr].claimedEggs */\n      0x03\n      add\n      sload\n        /* \"contracts/cropsFarmer.sol\":11445:11472  users[_adr].claimedEggs.add */\n      tag_426\n      swap1\n        /* \"contracts/cropsFarmer.sol\":11445:11501  users[_adr].claimedEggs.add(getEggsSinceLastHatch(_adr)) */\n      swap2\n      swap1\n      0xffffffff\n      and\n      jump\t// in\n    tag_556:\n        /* \"contracts/cropsFarmer.sol\":11426:11501  uint256 userEggs = users[_adr].claimedEggs.add(getEggsSinceLastHatch(_adr)) */\n      swap1\n      pop\n        /* \"contracts/cropsFarmer.sol\":11518:11544  calculateEggSell(userEggs) */\n      tag_558\n        /* \"contracts/cropsFarmer.sol\":11535:11543  userEggs */\n      dup2\n        /* \"contracts/cropsFarmer.sol\":11518:11534  calculateEggSell */\n      tag_298\n        /* \"contracts/cropsFarmer.sol\":11518:11544  calculateEggSell(userEggs) */\n      jump\t// in\n    tag_558:\n        /* \"contracts/cropsFarmer.sol\":11511:11544  return calculateEggSell(userEggs) */\n      swap2\n      pop\n      pop\n        /* \"contracts/cropsFarmer.sol\":11343:11551  function getAvailableEarnings(address _adr) public view returns(uint256) {... */\n      swap2\n      swap1\n      pop\n      jump\t// out\n        /* \"contracts/cropsFarmer.sol\":268:290  uint256 public TAX = 9 */\n    tag_235:\n      sload(0x03)\n      dup2\n      jump\t// out\n        /* \"contracts/cropsFarmer.sol\":852:880  uint256 public totalRefBonus */\n    tag_239:\n      sload(0x10)\n      dup2\n      jump\t// out\n        /* \"contracts/cropsFarmer.sol\":16510:16706  function BONUS_DAILY_COMPOUND(uint256 value) external {... */\n    tag_244:\n        /* \"contracts/cropsFarmer.sol\":16596:16601  owner */\n      0x1c\n      0x00\n      swap1\n      sload\n      swap1\n      0x0100\n      exp\n      swap1\n      div\n      0xffffffffffffffffffffffffffffffffffffffff\n      and\n        /* \"contracts/cropsFarmer.sol\":16582:16601  msg.sender == owner */\n      0xffffffffffffffffffffffffffffffffffffffff\n      and\n        /* \"contracts/cropsFarmer.sol\":16582:16592  msg.sender */\n      caller\n        /* \"contracts/cropsFarmer.sol\":16582:16601  msg.sender == owner */\n      0xffffffffffffffffffffffffffffffffffffffff\n      and\n      eq\n        /* \"contracts/cropsFarmer.sol\":16574:16621  require(msg.sender == owner, \"Admin use only.\") */\n      tag_560\n      jumpi\n      mload(0x40)\n      0x08c379a000000000000000000000000000000000000000000000000000000000\n      dup2\n      mstore\n      0x04\n      add\n      tag_561\n      swap1\n      tag_445\n      jump\t// in\n    tag_561:\n      mload(0x40)\n      dup1\n      swap2\n      sub\n      swap1\n      revert\n    tag_560:\n        /* \"contracts/cropsFarmer.sol\":16648:16650  10 */\n      0x0a\n        /* \"contracts/cropsFarmer.sol\":16639:16644  value */\n      dup2\n        /* \"contracts/cropsFarmer.sol\":16639:16650  value >= 10 */\n      lt\n      iszero\n        /* \"contracts/cropsFarmer.sol\":16639:16666  value >= 10 && value <= 900 */\n      dup1\n      iszero\n      tag_562\n      jumpi\n      pop\n        /* \"contracts/cropsFarmer.sol\":16663:16666  900 */\n      0x0384\n        /* \"contracts/cropsFarmer.sol\":16654:16659  value */\n      dup2\n        /* \"contracts/cropsFarmer.sol\":16654:16666  value <= 900 */\n      gt\n      iszero\n        /* \"contracts/cropsFarmer.sol\":16639:16666  value >= 10 && value <= 900 */\n    tag_562:\n        /* \"contracts/cropsFarmer.sol\":16631:16667  require(value >= 10 && value <= 900) */\n      tag_563\n      jumpi\n      0x00\n      dup1\n      revert\n    tag_563:\n        /* \"contracts/cropsFarmer.sol\":16694:16699  value */\n      dup1\n        /* \"contracts/cropsFarmer.sol\":16677:16691  COMPOUND_BONUS */\n      0x08\n        /* \"contracts/cropsFarmer.sol\":16677:16699  COMPOUND_BONUS = value */\n      dup2\n      swap1\n      sstore\n      pop\n        /* \"contracts/cropsFarmer.sol\":16510:16706  function BONUS_DAILY_COMPOUND(uint256 value) external {... */\n      pop\n      jump\t// out\n        /* \"contracts/cropsFarmer.sol\":599:642  uint256 public COMPOUND_STEP = 12 * 60 * 60 */\n    tag_247:\n      sload(0x0a)\n      dup2\n      jump\t// out\n        /* \"contracts/cropsFarmer.sol\":16131:16319  function PRC_MARKET_EGGS_DIVISOR(uint256 value) external {... */\n    tag_252:\n        /* \"contracts/cropsFarmer.sol\":16220:16225  owner */\n      0x1c\n      0x00\n      swap1\n      sload\n      swap1\n      0x0100\n      exp\n      swap1\n      div\n      0xffffffffffffffffffffffffffffffffffffffff\n      and\n        /* \"contracts/cropsFarmer.sol\":16206:16225  msg.sender == owner */\n      0xffffffffffffffffffffffffffffffffffffffff\n      and\n        /* \"contracts/cropsFarmer.sol\":16206:16216  msg.sender */\n      caller\n        /* \"contracts/cropsFarmer.sol\":16206:16225  msg.sender == owner */\n      0xffffffffffffffffffffffffffffffffffffffff\n      and\n      eq\n        /* \"contracts/cropsFarmer.sol\":16198:16245  require(msg.sender == owner, \"Admin use only.\") */\n      tag_565\n      jumpi\n      mload(0x40)\n      0x08c379a000000000000000000000000000000000000000000000000000000000\n      dup2\n      mstore\n      0x04\n      add\n      tag_566\n      swap1\n      tag_445\n      jump\t// in\n    tag_566:\n      mload(0x40)\n      dup1\n      swap2\n      sub\n      swap1\n      revert\n    tag_565:\n        /* \"contracts/cropsFarmer.sol\":16272:16274  50 */\n      0x32\n        /* \"contracts/cropsFarmer.sol\":16263:16268  value */\n      dup2\n        /* \"contracts/cropsFarmer.sol\":16263:16274  value <= 50 */\n      gt\n      iszero\n        /* \"contracts/cropsFarmer.sol\":16255:16275  require(value <= 50) */\n      tag_567\n      jumpi\n      0x00\n      dup1\n      revert\n    tag_567:\n        /* \"contracts/cropsFarmer.sol\":16307:16312  value */\n      dup1\n        /* \"contracts/cropsFarmer.sol\":16285:16304  MARKET_EGGS_DIVISOR */\n      0x05\n        /* \"contracts/cropsFarmer.sol\":16285:16312  MARKET_EGGS_DIVISOR = value */\n      dup2\n      swap1\n      sstore\n      pop\n        /* \"contracts/cropsFarmer.sol\":16131:16319  function PRC_MARKET_EGGS_DIVISOR(uint256 value) external {... */\n      pop\n      jump\t// out\n        /* \"contracts/cropsFarmer.sol\":17269:17420  function SET_CUTOFF_STEP(uint256 value) external {... */\n    tag_256:\n        /* \"contracts/cropsFarmer.sol\":17350:17355  owner */\n      0x1c\n      0x00\n      swap1\n      sload\n      swap1\n      0x0100\n      exp\n      swap1\n      div\n      0xffffffffffffffffffffffffffffffffffffffff\n      and\n        /* \"contracts/cropsFarmer.sol\":17336:17355  msg.sender == owner */\n      0xffffffffffffffffffffffffffffffffffffffff\n      and\n        /* \"contracts/cropsFarmer.sol\":17336:17346  msg.sender */\n      caller\n        /* \"contracts/cropsFarmer.sol\":17336:17355  msg.sender == owner */\n      0xffffffffffffffffffffffffffffffffffffffff\n      and\n      eq\n        /* \"contracts/cropsFarmer.sol\":17328:17374  require(msg.sender == owner, \"Admin use only\") */\n      tag_569\n      jumpi\n      mload(0x40)\n      0x08c379a000000000000000000000000000000000000000000000000000000000\n      dup2\n      mstore\n      0x04\n      add\n      tag_570\n      swap1\n      tag_480\n      jump\t// in\n    tag_570:\n      mload(0x40)\n      dup1\n      swap2\n      sub\n      swap1\n      revert\n    tag_569:\n        /* \"contracts/cropsFarmer.sol\":17411:17413  60 */\n      0x3c\n        /* \"contracts/cropsFarmer.sol\":17406:17408  60 */\n      dup1\n        /* \"contracts/cropsFarmer.sol\":17398:17403  value */\n      dup3\n        /* \"contracts/cropsFarmer.sol\":17398:17408  value * 60 */\n      tag_571\n      swap2\n      swap1\n      tag_483\n      jump\t// in\n    tag_571:\n        /* \"contracts/cropsFarmer.sol\":17398:17413  value * 60 * 60 */\n      tag_572\n      swap2\n      swap1\n      tag_483\n      jump\t// in\n    tag_572:\n        /* \"contracts/cropsFarmer.sol\":17384:17395  CUTOFF_STEP */\n      0x1a\n        /* \"contracts/cropsFarmer.sol\":17384:17413  CUTOFF_STEP = value * 60 * 60 */\n      dup2\n      swap1\n      sstore\n      pop\n        /* \"contracts/cropsFarmer.sol\":17269:17420  function SET_CUTOFF_STEP(uint256 value) external {... */\n      pop\n      jump\t// out\n        /* \"contracts/cropsFarmer.sol\":1590:1616  address payable public mkt */\n    tag_259:\n      0x22\n      0x00\n      swap1\n      sload\n      swap1\n      0x0100\n      exp\n      swap1\n      div\n      0xffffffffffffffffffffffffffffffffffffffff\n      and\n      dup2\n      jump\t// out\n        /* \"contracts/cropsFarmer.sol\":784:812  uint256 public totalDeposits */\n    tag_263:\n      sload(0x0e)\n      dup2\n      jump\t// out\n        /* \"contracts/cropsFarmer.sol\":818:846  uint256 public totalCompound */\n    tag_267:\n      sload(0x0f)\n      dup2\n      jump\t// out\n        /* \"contracts/cropsFarmer.sol\":12323:12453  function calculateEggBuySimple(uint256 eth) public view returns(uint256){... */\n    tag_272:\n        /* \"contracts/cropsFarmer.sol\":12387:12394  uint256 */\n      0x00\n        /* \"contracts/cropsFarmer.sol\":12412:12446  calculateEggBuy(eth, getBalance()) */\n      tag_574\n        /* \"contracts/cropsFarmer.sol\":12428:12431  eth */\n      dup3\n        /* \"contracts/cropsFarmer.sol\":12433:12445  getBalance() */\n      tag_575\n        /* \"contracts/cropsFarmer.sol\":12433:12443  getBalance */\n      tag_112\n        /* \"contracts/cropsFarmer.sol\":12433:12445  getBalance() */\n      jump\t// in\n    tag_575:\n        /* \"contracts/cropsFarmer.sol\":12412:12427  calculateEggBuy */\n      tag_152\n        /* \"contracts/cropsFarmer.sol\":12412:12446  calculateEggBuy(eth, getBalance()) */\n      jump\t// in\n    tag_574:\n        /* \"contracts/cropsFarmer.sol\":12405:12446  return calculateEggBuy(eth, getBalance()) */\n      swap1\n      pop\n        /* \"contracts/cropsFarmer.sol\":12323:12453  function calculateEggBuySimple(uint256 eth) public view returns(uint256){... */\n      swap2\n      swap1\n      pop\n      jump\t// out\n        /* \"contracts/cropsFarmer.sol\":17625:17824  function SET_WALLET_DEPOSIT_LIMIT(uint256 value) external {... */\n    tag_277:\n        /* \"contracts/cropsFarmer.sol\":17715:17720  owner */\n      0x1c\n      0x00\n      swap1\n      sload\n      swap1\n      0x0100\n      exp\n      swap1\n      div\n      0xffffffffffffffffffffffffffffffffffffffff\n      and\n        /* \"contracts/cropsFarmer.sol\":17701:17720  msg.sender == owner */\n      0xffffffffffffffffffffffffffffffffffffffff\n      and\n        /* \"contracts/cropsFarmer.sol\":17701:17711  msg.sender */\n      caller\n        /* \"contracts/cropsFarmer.sol\":17701:17720  msg.sender == owner */\n      0xffffffffffffffffffffffffffffffffffffffff\n      and\n      eq\n        /* \"contracts/cropsFarmer.sol\":17693:17739  require(msg.sender == owner, \"Admin use only\") */\n      tag_577\n      jumpi\n      mload(0x40)\n      0x08c379a000000000000000000000000000000000000000000000000000000000\n      dup2\n      mstore\n      0x04\n      add\n      tag_578\n      swap1\n      tag_480\n      jump\t// in\n    tag_578:\n      mload(0x40)\n      dup1\n      swap2\n      sub\n      swap1\n      revert\n    tag_577:\n        /* \"contracts/cropsFarmer.sol\":17766:17768  10 */\n      0x0a\n        /* \"contracts/cropsFarmer.sol\":17757:17762  value */\n      dup2\n        /* \"contracts/cropsFarmer.sol\":17757:17768  value >= 10 */\n      lt\n      iszero\n        /* \"contracts/cropsFarmer.sol\":17749:17769  require(value >= 10) */\n      tag_579\n      jumpi\n      0x00\n      dup1\n      revert\n    tag_579:\n        /* \"contracts/cropsFarmer.sol\":17810:17817  1 ether */\n      0x0de0b6b3a7640000\n        /* \"contracts/cropsFarmer.sol\":17802:17807  value */\n      dup2\n        /* \"contracts/cropsFarmer.sol\":17802:17817  value * 1 ether */\n      tag_580\n      swap2\n      swap1\n      tag_483\n      jump\t// in\n    tag_580:\n        /* \"contracts/cropsFarmer.sol\":17779:17799  WALLET_DEPOSIT_LIMIT */\n      0x07\n        /* \"contracts/cropsFarmer.sol\":17779:17817  WALLET_DEPOSIT_LIMIT = value * 1 ether */\n      dup2\n      swap1\n      sstore\n      pop\n        /* \"contracts/cropsFarmer.sol\":17625:17824  function SET_WALLET_DEPOSIT_LIMIT(uint256 value) external {... */\n      pop\n      jump\t// out\n        /* \"contracts/cropsFarmer.sol\":1454:1481  address payable public dev2 */\n    tag_280:\n      0x1e\n      0x00\n      swap1\n      sload\n      swap1\n      0x0100\n      exp\n      swap1\n      div\n      0xffffffffffffffffffffffffffffffffffffffff\n      and\n      dup2\n      jump\t// out\n        /* \"contracts/cropsFarmer.sol\":752:778  uint256 public totalStaked */\n    tag_284:\n      sload(0x0d)\n      dup2\n      jump\t// out\n        /* \"contracts/cropsFarmer.sol\":1555:1584  address payable public prtnr2 */\n    tag_288:\n      0x21\n      0x00\n      swap1\n      sload\n      swap1\n      0x0100\n      exp\n      swap1\n      div\n      0xffffffffffffffffffffffffffffffffffffffff\n      and\n      dup2\n      jump\t// out\n        /* \"contracts/cropsFarmer.sol\":1395:1415  address public owner */\n    tag_292:\n      0x1c\n      0x00\n      swap1\n      sload\n      swap1\n      0x0100\n      exp\n      swap1\n      div\n      0xffffffffffffffffffffffffffffffffffffffff\n      and\n      dup2\n      jump\t// out\n        /* \"contracts/cropsFarmer.sol\":12011:12149  function calculateEggSell(uint256 eggs) public view returns(uint256){... */\n    tag_298:\n        /* \"contracts/cropsFarmer.sol\":12071:12078  uint256 */\n      0x00\n        /* \"contracts/cropsFarmer.sol\":12096:12142  calculateTrade(eggs, marketEggs, getBalance()) */\n      tag_582\n        /* \"contracts/cropsFarmer.sol\":12111:12115  eggs */\n      dup3\n        /* \"contracts/cropsFarmer.sol\":12117:12127  marketEggs */\n      sload(0x12)\n        /* \"contracts/cropsFarmer.sol\":12129:12141  getBalance() */\n      tag_583\n        /* \"contracts/cropsFarmer.sol\":12129:12139  getBalance */\n      tag_112\n        /* \"contracts/cropsFarmer.sol\":12129:12141  getBalance() */\n      jump\t// in\n    tag_583:\n        /* \"contracts/cropsFarmer.sol\":12096:12110  calculateTrade */\n      tag_142\n        /* \"contracts/cropsFarmer.sol\":12096:12142  calculateTrade(eggs, marketEggs, getBalance()) */\n      jump\t// in\n    tag_582:\n        /* \"contracts/cropsFarmer.sol\":12089:12142  return calculateTrade(eggs, marketEggs, getBalance()) */\n      swap1\n      pop\n        /* \"contracts/cropsFarmer.sol\":12011:12149  function calculateEggSell(uint256 eggs) public view returns(uint256){... */\n      swap2\n      swap1\n      pop\n      jump\t// out\n        /* \"contracts/cropsFarmer.sol\":1322:1368  uint256 public WITHDRAW_COOLDOWN = 4 * 60 * 60 */\n    tag_302:\n      sload(0x1b)\n      dup2\n      jump\t// out\n        /* \"contracts/cropsFarmer.sol\":16924:17112  function BONUS_COMPOUND_STEP(uint256 value) external {... */\n    tag_307:\n        /* \"contracts/cropsFarmer.sol\":17009:17014  owner */\n      0x1c\n      0x00\n      swap1\n      sload\n      swap1\n      0x0100\n      exp\n      swap1\n      div\n      0xffffffffffffffffffffffffffffffffffffffff\n      and\n        /* \"contracts/cropsFarmer.sol\":16995:17014  msg.sender == owner */\n      0xffffffffffffffffffffffffffffffffffffffff\n      and\n        /* \"contracts/cropsFarmer.sol\":16995:17005  msg.sender */\n      caller\n        /* \"contracts/cropsFarmer.sol\":16995:17014  msg.sender == owner */\n      0xffffffffffffffffffffffffffffffffffffffff\n      and\n      eq\n        /* \"contracts/cropsFarmer.sol\":16987:17034  require(msg.sender == owner, \"Admin use only.\") */\n      tag_585\n      jumpi\n      mload(0x40)\n      0x08c379a000000000000000000000000000000000000000000000000000000000\n      dup2\n      mstore\n      0x04\n      add\n      tag_586\n      swap1\n      tag_445\n      jump\t// in\n    tag_586:\n      mload(0x40)\n      dup1\n      swap2\n      sub\n      swap1\n      revert\n    tag_585:\n        /* \"contracts/cropsFarmer.sol\":17061:17063  24 */\n      0x18\n        /* \"contracts/cropsFarmer.sol\":17052:17057  value */\n      dup2\n        /* \"contracts/cropsFarmer.sol\":17052:17063  value <= 24 */\n      gt\n      iszero\n        /* \"contracts/cropsFarmer.sol\":17044:17064  require(value <= 24) */\n      tag_587\n      jumpi\n      0x00\n      dup1\n      revert\n    tag_587:\n        /* \"contracts/cropsFarmer.sol\":17103:17105  60 */\n      0x3c\n        /* \"contracts/cropsFarmer.sol\":17098:17100  60 */\n      dup1\n        /* \"contracts/cropsFarmer.sol\":17090:17095  value */\n      dup3\n        /* \"contracts/cropsFarmer.sol\":17090:17100  value * 60 */\n      tag_588\n      swap2\n      swap1\n      tag_483\n      jump\t// in\n    tag_588:\n        /* \"contracts/cropsFarmer.sol\":17090:17105  value * 60 * 60 */\n      tag_589\n      swap2\n      swap1\n      tag_483\n      jump\t// in\n    tag_589:\n        /* \"contracts/cropsFarmer.sol\":17074:17087  COMPOUND_STEP */\n      0x0a\n        /* \"contracts/cropsFarmer.sol\":17074:17105  COMPOUND_STEP = value * 60 * 60 */\n      dup2\n      swap1\n      sstore\n      pop\n        /* \"contracts/cropsFarmer.sol\":16924:17112  function BONUS_COMPOUND_STEP(uint256 value) external {... */\n      pop\n      jump\t// out\n        /* \"contracts/cropsFarmer.sol\":16712:16918  function BONUS_DAILY_COMPOUND_BONUS_MAX_TIMES(uint256 value) external {... */\n    tag_311:\n        /* \"contracts/cropsFarmer.sol\":16814:16819  owner */\n      0x1c\n      0x00\n      swap1\n      sload\n      swap1\n      0x0100\n      exp\n      swap1\n      div\n      0xffffffffffffffffffffffffffffffffffffffff\n      and\n        /* \"contracts/cropsFarmer.sol\":16800:16819  msg.sender == owner */\n      0xffffffffffffffffffffffffffffffffffffffff\n      and\n        /* \"contracts/cropsFarmer.sol\":16800:16810  msg.sender */\n      caller\n        /* \"contracts/cropsFarmer.sol\":16800:16819  msg.sender == owner */\n      0xffffffffffffffffffffffffffffffffffffffff\n      and\n      eq\n        /* \"contracts/cropsFarmer.sol\":16792:16839  require(msg.sender == owner, \"Admin use only.\") */\n      tag_591\n      jumpi\n      mload(0x40)\n      0x08c379a000000000000000000000000000000000000000000000000000000000\n      dup2\n      mstore\n      0x04\n      add\n      tag_592\n      swap1\n      tag_445\n      jump\t// in\n    tag_592:\n      mload(0x40)\n      dup1\n      swap2\n      sub\n      swap1\n      revert\n    tag_591:\n        /* \"contracts/cropsFarmer.sol\":16866:16868  30 */\n      0x1e\n        /* \"contracts/cropsFarmer.sol\":16857:16862  value */\n      dup2\n        /* \"contracts/cropsFarmer.sol\":16857:16868  value <= 30 */\n      gt\n      iszero\n        /* \"contracts/cropsFarmer.sol\":16849:16869  require(value <= 30) */\n      tag_593\n      jumpi\n      0x00\n      dup1\n      revert\n    tag_593:\n        /* \"contracts/cropsFarmer.sol\":16906:16911  value */\n      dup1\n        /* \"contracts/cropsFarmer.sol\":16879:16903  COMPOUND_BONUS_MAX_TIMES */\n      0x09\n        /* \"contracts/cropsFarmer.sol\":16879:16911  COMPOUND_BONUS_MAX_TIMES = value */\n      dup2\n      swap1\n      sstore\n      pop\n        /* \"contracts/cropsFarmer.sol\":16712:16918  function BONUS_DAILY_COMPOUND_BONUS_MAX_TIMES(uint256 value) external {... */\n      pop\n      jump\t// out\n        /* \"contracts/cropsFarmer.sol\":1228:1271  mapping(address => uint) public total_Bonus */\n    tag_315:\n      mstore(0x20, 0x19)\n      dup1\n      0x00\n      mstore\n      keccak256(0x00, 0x40)\n      0x00\n      swap2\n      pop\n      swap1\n      pop\n      sload\n      dup2\n      jump\t// out\n        /* \"contracts/cropsFarmer.sol\":2492:2641  function setblacklistActive(bool isActive) public{... */\n    tag_320:\n        /* \"contracts/cropsFarmer.sol\":2573:2578  owner */\n      0x1c\n      0x00\n      swap1\n      sload\n      swap1\n      0x0100\n      exp\n      swap1\n      div\n      0xffffffffffffffffffffffffffffffffffffffff\n      and\n        /* \"contracts/cropsFarmer.sol\":2559:2578  msg.sender == owner */\n      0xffffffffffffffffffffffffffffffffffffffff\n      and\n        /* \"contracts/cropsFarmer.sol\":2559:2569  msg.sender */\n      caller\n        /* \"contracts/cropsFarmer.sol\":2559:2578  msg.sender == owner */\n      0xffffffffffffffffffffffffffffffffffffffff\n      and\n      eq\n        /* \"contracts/cropsFarmer.sol\":2551:2598  require(msg.sender == owner, \"Admin use only.\") */\n      tag_595\n      jumpi\n      mload(0x40)\n      0x08c379a000000000000000000000000000000000000000000000000000000000\n      dup2\n      mstore\n      0x04\n      add\n      tag_596\n      swap1\n      tag_445\n      jump\t// in\n    tag_596:\n      mload(0x40)\n      dup1\n      swap2\n      sub\n      swap1\n      revert\n    tag_595:\n        /* \"contracts/cropsFarmer.sol\":2626:2634  isActive */\n      dup1\n        /* \"contracts/cropsFarmer.sol\":2608:2623  blacklistActive */\n      0x15\n      0x01\n        /* \"contracts/cropsFarmer.sol\":2608:2634  blacklistActive = isActive */\n      0x0100\n      exp\n      dup2\n      sload\n      dup2\n      0xff\n      mul\n      not\n      and\n      swap1\n      dup4\n      iszero\n      iszero\n      mul\n      or\n      swap1\n      sstore\n      pop\n        /* \"contracts/cropsFarmer.sol\":2492:2641  function setblacklistActive(bool isActive) public{... */\n      pop\n      jump\t// out\n        /* \"contracts/cropsFarmer.sol\":1421:1448  address payable public dev1 */\n    tag_323:\n      0x1d\n      0x00\n      swap1\n      sload\n      swap1\n      0x0100\n      exp\n      swap1\n      div\n      0xffffffffffffffffffffffffffffffffffffffff\n      and\n      dup2\n      jump\t// out\n        /* \"contracts/cropsFarmer.sol\":2082:2119  mapping(address => User) public users */\n    tag_328:\n      mstore(0x20, 0x23)\n      dup1\n      0x00\n      mstore\n      keccak256(0x00, 0x40)\n      0x00\n      swap2\n      pop\n      swap1\n      pop\n      dup1\n      0x00\n      add\n      sload\n      swap1\n      dup1\n      0x01\n      add\n      sload\n      swap1\n      dup1\n      0x02\n      add\n      sload\n      swap1\n      dup1\n      0x03\n      add\n      sload\n      swap1\n      dup1\n      0x04\n      add\n      sload\n      swap1\n      dup1\n      0x05\n      add\n      0x00\n      swap1\n      sload\n      swap1\n      0x0100\n      exp\n      swap1\n      div\n      0xffffffffffffffffffffffffffffffffffffffff\n      and\n      swap1\n      dup1\n      0x06\n      add\n      sload\n      swap1\n      dup1\n      0x07\n      add\n      sload\n      swap1\n      dup1\n      0x08\n      add\n      sload\n      swap1\n      dup1\n      0x09\n      add\n      sload\n      swap1\n      dup1\n      0x0a\n      add\n      sload\n      swap1\n      dup1\n      0x0b\n      add\n      sload\n      swap1\n      pop\n      dup13\n      jump\t// out\n        /* \"contracts/cropsFarmer.sol\":1125:1169  mapping(address => uint) public firstDeposit */\n    tag_333:\n      mstore(0x20, 0x17)\n      dup1\n      0x00\n      mstore\n      keccak256(0x00, 0x40)\n      0x00\n      swap2\n      pop\n      swap1\n      pop\n      sload\n      dup2\n      jump\t// out\n        /* \"contracts/cropsFarmer.sol\":1036:1070  bool public blacklistActive = true */\n    tag_337:\n      0x15\n      0x01\n      swap1\n      sload\n      swap1\n      0x0100\n      exp\n      swap1\n      div\n      0xff\n      and\n      dup2\n      jump\t// out\n        /* \"contracts/cropsFarmer.sol\":3663:3706  function fundContract() external payable {} */\n    tag_340:\n      jump\t// out\n        /* \"contracts/cropsFarmer.sol\":12543:12976  function getEggsYield(uint256 amount) public view returns(uint256,uint256) {... */\n    tag_344:\n        /* \"contracts/cropsFarmer.sol\":12601:12608  uint256 */\n      0x00\n        /* \"contracts/cropsFarmer.sol\":12609:12616  uint256 */\n      dup1\n        /* \"contracts/cropsFarmer.sol\":12628:12646  uint256 eggsAmount */\n      0x00\n        /* \"contracts/cropsFarmer.sol\":12649:12711  calculateEggBuy(amount , getBalance().add(amount).sub(amount)) */\n      tag_599\n        /* \"contracts/cropsFarmer.sol\":12665:12671  amount */\n      dup5\n        /* \"contracts/cropsFarmer.sol\":12674:12710  getBalance().add(amount).sub(amount) */\n      tag_600\n        /* \"contracts/cropsFarmer.sol\":12703:12709  amount */\n      dup7\n        /* \"contracts/cropsFarmer.sol\":12674:12698  getBalance().add(amount) */\n      tag_601\n        /* \"contracts/cropsFarmer.sol\":12691:12697  amount */\n      dup9\n        /* \"contracts/cropsFarmer.sol\":12674:12686  getBalance() */\n      tag_602\n        /* \"contracts/cropsFarmer.sol\":12674:12684  getBalance */\n      tag_112\n        /* \"contracts/cropsFarmer.sol\":12674:12686  getBalance() */\n      jump\t// in\n    tag_602:\n        /* \"contracts/cropsFarmer.sol\":12674:12690  getBalance().add */\n      tag_426\n      swap1\n        /* \"contracts/cropsFarmer.sol\":12674:12698  getBalance().add(amount) */\n      swap2\n      swap1\n      0xffffffff\n      and\n      jump\t// in\n    tag_601:\n        /* \"contracts/cropsFarmer.sol\":12674:12702  getBalance().add(amount).sub */\n      tag_431\n      swap1\n        /* \"contracts/cropsFarmer.sol\":12674:12710  getBalance().add(amount).sub(amount) */\n      swap2\n      swap1\n      0xffffffff\n      and\n      jump\t// in\n    tag_600:\n        /* \"contracts/cropsFarmer.sol\":12649:12664  calculateEggBuy */\n      tag_152\n        /* \"contracts/cropsFarmer.sol\":12649:12711  calculateEggBuy(amount , getBalance().add(amount).sub(amount)) */\n      jump\t// in\n    tag_599:\n        /* \"contracts/cropsFarmer.sol\":12628:12711  uint256 eggsAmount = calculateEggBuy(amount , getBalance().add(amount).sub(amount)) */\n      swap1\n      pop\n        /* \"contracts/cropsFarmer.sol\":12721:12735  uint256 miners */\n      0x00\n        /* \"contracts/cropsFarmer.sol\":12738:12774  eggsAmount.div(EGGS_TO_HIRE_1MINERS) */\n      tag_603\n        /* \"contracts/cropsFarmer.sol\":12753:12773  EGGS_TO_HIRE_1MINERS */\n      sload(0x00)\n        /* \"contracts/cropsFarmer.sol\":12738:12748  eggsAmount */\n      dup4\n        /* \"contracts/cropsFarmer.sol\":12738:12752  eggsAmount.div */\n      tag_439\n      swap1\n        /* \"contracts/cropsFarmer.sol\":12738:12774  eggsAmount.div(EGGS_TO_HIRE_1MINERS) */\n      swap2\n      swap1\n      0xffffffff\n      and\n      jump\t// in\n    tag_603:\n        /* \"contracts/cropsFarmer.sol\":12721:12774  uint256 miners = eggsAmount.div(EGGS_TO_HIRE_1MINERS) */\n      swap1\n      pop\n        /* \"contracts/cropsFarmer.sol\":12784:12795  uint256 day */\n      0x00\n        /* \"contracts/cropsFarmer.sol\":12798:12804  1 days */\n      0x015180\n        /* \"contracts/cropsFarmer.sol\":12784:12804  uint256 day = 1 days */\n      swap1\n      pop\n        /* \"contracts/cropsFarmer.sol\":12814:12832  uint256 eggsPerDay */\n      0x00\n        /* \"contracts/cropsFarmer.sol\":12835:12850  day.mul(miners) */\n      tag_604\n        /* \"contracts/cropsFarmer.sol\":12843:12849  miners */\n      dup4\n        /* \"contracts/cropsFarmer.sol\":12835:12838  day */\n      dup4\n        /* \"contracts/cropsFarmer.sol\":12835:12842  day.mul */\n      tag_450\n      swap1\n        /* \"contracts/cropsFarmer.sol\":12835:12850  day.mul(miners) */\n      swap2\n      swap1\n      0xffffffff\n      and\n      jump\t// in\n    tag_604:\n        /* \"contracts/cropsFarmer.sol\":12814:12850  uint256 eggsPerDay = day.mul(miners) */\n      swap1\n      pop\n        /* \"contracts/cropsFarmer.sol\":12860:12882  uint256 earningsPerDay */\n      0x00\n        /* \"contracts/cropsFarmer.sol\":12885:12929  calculateEggSellForYield(eggsPerDay, amount) */\n      tag_605\n        /* \"contracts/cropsFarmer.sol\":12910:12920  eggsPerDay */\n      dup3\n        /* \"contracts/cropsFarmer.sol\":12922:12928  amount */\n      dup10\n        /* \"contracts/cropsFarmer.sol\":12885:12909  calculateEggSellForYield */\n      tag_367\n        /* \"contracts/cropsFarmer.sol\":12885:12929  calculateEggSellForYield(eggsPerDay, amount) */\n      jump\t// in\n    tag_605:\n        /* \"contracts/cropsFarmer.sol\":12860:12929  uint256 earningsPerDay = calculateEggSellForYield(eggsPerDay, amount) */\n      swap1\n      pop\n        /* \"contracts/cropsFarmer.sol\":12946:12952  miners */\n      dup4\n        /* \"contracts/cropsFarmer.sol\":12954:12968  earningsPerDay */\n      dup2\n        /* \"contracts/cropsFarmer.sol\":12939:12969  return(miners, earningsPerDay) */\n      swap7\n      pop\n      swap7\n      pop\n      pop\n      pop\n      pop\n      pop\n      pop\n        /* \"contracts/cropsFarmer.sol\":12543:12976  function getEggsYield(uint256 amount) public view returns(uint256,uint256) {... */\n      swap2\n      pop\n      swap2\n      jump\t// out\n        /* \"contracts/cropsFarmer.sol\":16325:16504  function SET_WITHDRAWAL_TAX(uint256 value) external {... */\n    tag_350:\n        /* \"contracts/cropsFarmer.sol\":16409:16414  owner */\n      0x1c\n      0x00\n      swap1\n      sload\n      swap1\n      0x0100\n      exp\n      swap1\n      div\n      0xffffffffffffffffffffffffffffffffffffffff\n      and\n        /* \"contracts/cropsFarmer.sol\":16395:16414  msg.sender == owner */\n      0xffffffffffffffffffffffffffffffffffffffff\n      and\n        /* \"contracts/cropsFarmer.sol\":16395:16405  msg.sender */\n      caller\n        /* \"contracts/cropsFarmer.sol\":16395:16414  msg.sender == owner */\n      0xffffffffffffffffffffffffffffffffffffffff\n      and\n      eq\n        /* \"contracts/cropsFarmer.sol\":16387:16434  require(msg.sender == owner, \"Admin use only.\") */\n      tag_607\n      jumpi\n      mload(0x40)\n      0x08c379a000000000000000000000000000000000000000000000000000000000\n      dup2\n      mstore\n      0x04\n      add\n      tag_608\n      swap1\n      tag_445\n      jump\t// in\n    tag_608:\n      mload(0x40)\n      dup1\n      swap2\n      sub\n      swap1\n      revert\n    tag_607:\n        /* \"contracts/cropsFarmer.sol\":16461:16464  900 */\n      0x0384\n        /* \"contracts/cropsFarmer.sol\":16452:16457  value */\n      dup2\n        /* \"contracts/cropsFarmer.sol\":16452:16464  value <= 900 */\n      gt\n      iszero\n        /* \"contracts/cropsFarmer.sol\":16444:16465  require(value <= 900) */\n      tag_609\n      jumpi\n      0x00\n      dup1\n      revert\n    tag_609:\n        /* \"contracts/cropsFarmer.sol\":16492:16497  value */\n      dup1\n        /* \"contracts/cropsFarmer.sol\":16475:16489  WITHDRAWAL_TAX */\n      0x0b\n        /* \"contracts/cropsFarmer.sol\":16475:16497  WITHDRAWAL_TAX = value */\n      dup2\n      swap1\n      sstore\n      pop\n        /* \"contracts/cropsFarmer.sol\":16325:16504  function SET_WITHDRAWAL_TAX(uint256 value) external {... */\n      pop\n      jump\t// out\n        /* \"contracts/cropsFarmer.sol\":3097:3285  function checkIfBlacklisted(address Wallet) public view returns(bool blacklisted){... */\n    tag_354:\n        /* \"contracts/cropsFarmer.sol\":3161:3177  bool blacklisted */\n      0x00\n        /* \"contracts/cropsFarmer.sol\":3210:3215  owner */\n      0x1c\n      0x00\n      swap1\n      sload\n      swap1\n      0x0100\n      exp\n      swap1\n      div\n      0xffffffffffffffffffffffffffffffffffffffff\n      and\n        /* \"contracts/cropsFarmer.sol\":3196:3215  msg.sender == owner */\n      0xffffffffffffffffffffffffffffffffffffffff\n      and\n        /* \"contracts/cropsFarmer.sol\":3196:3206  msg.sender */\n      caller\n        /* \"contracts/cropsFarmer.sol\":3196:3215  msg.sender == owner */\n      0xffffffffffffffffffffffffffffffffffffffff\n      and\n      eq\n        /* \"contracts/cropsFarmer.sol\":3188:3235  require(msg.sender == owner, \"Admin use only.\") */\n      tag_611\n      jumpi\n      mload(0x40)\n      0x08c379a000000000000000000000000000000000000000000000000000000000\n      dup2\n      mstore\n      0x04\n      add\n      tag_612\n      swap1\n      tag_445\n      jump\t// in\n    tag_612:\n      mload(0x40)\n      dup1\n      swap2\n      sub\n      swap1\n      revert\n    tag_611:\n        /* \"contracts/cropsFarmer.sol\":3259:3270  Blacklisted */\n      0x16\n        /* \"contracts/cropsFarmer.sol\":3259:3278  Blacklisted[Wallet] */\n      0x00\n        /* \"contracts/cropsFarmer.sol\":3271:3277  Wallet */\n      dup4\n        /* \"contracts/cropsFarmer.sol\":3259:3278  Blacklisted[Wallet] */\n      0xffffffffffffffffffffffffffffffffffffffff\n      and\n      0xffffffffffffffffffffffffffffffffffffffff\n      and\n      dup2\n      mstore\n      0x20\n      add\n      swap1\n      dup2\n      mstore\n      0x20\n      add\n      0x00\n      keccak256\n      0x00\n      swap1\n      sload\n      swap1\n      0x0100\n      exp\n      swap1\n      div\n      0xff\n      and\n        /* \"contracts/cropsFarmer.sol\":3245:3278  blacklisted = Blacklisted[Wallet] */\n      swap1\n      pop\n        /* \"contracts/cropsFarmer.sol\":3097:3285  function checkIfBlacklisted(address Wallet) public view returns(bool blacklisted){... */\n      swap2\n      swap1\n      pop\n      jump\t// out\n        /* \"contracts/cropsFarmer.sol\":190:218  uint256 public REFERRAL = 70 */\n    tag_358:\n      sload(0x01)\n      dup2\n      jump\t// out\n        /* \"contracts/cropsFarmer.sol\":549:593  uint256 public COMPOUND_BONUS_MAX_TIMES = 10 */\n    tag_362:\n      sload(0x09)\n      dup2\n      jump\t// out\n        /* \"contracts/cropsFarmer.sol\":12982:13154  function calculateEggSellForYield(uint256 eggs,uint256 amount) public view returns(uint256){... */\n    tag_367:\n        /* \"contracts/cropsFarmer.sol\":13065:13072  uint256 */\n      0x00\n        /* \"contracts/cropsFarmer.sol\":13090:13147  calculateTrade(eggs,marketEggs, getBalance().add(amount)) */\n      tag_614\n        /* \"contracts/cropsFarmer.sol\":13105:13109  eggs */\n      dup4\n        /* \"contracts/cropsFarmer.sol\":13110:13120  marketEggs */\n      sload(0x12)\n        /* \"contracts/cropsFarmer.sol\":13122:13146  getBalance().add(amount) */\n      tag_615\n        /* \"contracts/cropsFarmer.sol\":13139:13145  amount */\n      dup6\n        /* \"contracts/cropsFarmer.sol\":13122:13134  getBalance() */\n      tag_616\n        /* \"contracts/cropsFarmer.sol\":13122:13132  getBalance */\n      tag_112\n        /* \"contracts/cropsFarmer.sol\":13122:13134  getBalance() */\n      jump\t// in\n    tag_616:\n        /* \"contracts/cropsFarmer.sol\":13122:13138  getBalance().add */\n      tag_426\n      swap1\n        /* \"contracts/cropsFarmer.sol\":13122:13146  getBalance().add(amount) */\n      swap2\n      swap1\n      0xffffffff\n      and\n      jump\t// in\n    tag_615:\n        /* \"contracts/cropsFarmer.sol\":13090:13104  calculateTrade */\n      tag_142\n        /* \"contracts/cropsFarmer.sol\":13090:13147  calculateTrade(eggs,marketEggs, getBalance().add(amount)) */\n      jump\t// in\n    tag_614:\n        /* \"contracts/cropsFarmer.sol\":13083:13147  return calculateTrade(eggs,marketEggs, getBalance().add(amount)) */\n      swap1\n      pop\n        /* \"contracts/cropsFarmer.sol\":12982:13154  function calculateEggSellForYield(uint256 eggs,uint256 amount) public view returns(uint256){... */\n      swap3\n      swap2\n      pop\n      pop\n      jump\t// out\n        /* \"contracts/cropsFarmer.sol\":370:421  uint256 public MIN_INVEST_LIMIT = 30000000000000000 */\n    tag_371:\n      sload(0x06)\n      dup2\n      jump\t// out\n        /* \"contracts/cropsFarmer.sol\":512:546  uint256 public COMPOUND_BONUS = 20 */\n    tag_375:\n      sload(0x08)\n      dup2\n      jump\t// out\n        /* \"contracts/cropsFarmer.sol\":13638:14044  function getEggsSinceLastHatch(address adr) public view returns(uint256){... */\n    tag_380:\n        /* \"contracts/cropsFarmer.sol\":13702:13709  uint256 */\n      0x00\n        /* \"contracts/cropsFarmer.sol\":13720:13749  uint256 secondsSinceLastHatch */\n      dup1\n        /* \"contracts/cropsFarmer.sol\":13752:13793  block.timestamp.sub(users[adr].lastHatch) */\n      tag_618\n        /* \"contracts/cropsFarmer.sol\":13772:13777  users */\n      0x23\n        /* \"contracts/cropsFarmer.sol\":13772:13782  users[adr] */\n      0x00\n        /* \"contracts/cropsFarmer.sol\":13778:13781  adr */\n      dup6\n        /* \"contracts/cropsFarmer.sol\":13772:13782  users[adr] */\n      0xffffffffffffffffffffffffffffffffffffffff\n      and\n      0xffffffffffffffffffffffffffffffffffffffff\n      and\n      dup2\n      mstore\n      0x20\n      add\n      swap1\n      dup2\n      mstore\n      0x20\n      add\n      0x00\n      keccak256\n        /* \"contracts/cropsFarmer.sol\":13772:13792  users[adr].lastHatch */\n      0x04\n      add\n      sload\n        /* \"contracts/cropsFarmer.sol\":13752:13767  block.timestamp */\n      timestamp\n        /* \"contracts/cropsFarmer.sol\":13752:13771  block.timestamp.sub */\n      tag_431\n      swap1\n        /* \"contracts/cropsFarmer.sol\":13752:13793  block.timestamp.sub(users[adr].lastHatch) */\n      swap2\n      swap1\n      0xffffffff\n      and\n      jump\t// in\n    tag_618:\n        /* \"contracts/cropsFarmer.sol\":13720:13793  uint256 secondsSinceLastHatch = block.timestamp.sub(users[adr].lastHatch) */\n      swap1\n      pop\n        /* \"contracts/cropsFarmer.sol\":13853:13871  uint256 cutoffTime */\n      0x00\n        /* \"contracts/cropsFarmer.sol\":13874:13913  min(secondsSinceLastHatch, CUTOFF_STEP) */\n      tag_619\n        /* \"contracts/cropsFarmer.sol\":13878:13899  secondsSinceLastHatch */\n      dup3\n        /* \"contracts/cropsFarmer.sol\":13901:13912  CUTOFF_STEP */\n      sload(0x1a)\n        /* \"contracts/cropsFarmer.sol\":13874:13877  min */\n      tag_620\n        /* \"contracts/cropsFarmer.sol\":13874:13913  min(secondsSinceLastHatch, CUTOFF_STEP) */\n      jump\t// in\n    tag_619:\n        /* \"contracts/cropsFarmer.sol\":13853:13913  uint256 cutoffTime = min(secondsSinceLastHatch, CUTOFF_STEP) */\n      swap1\n      pop\n        /* \"contracts/cropsFarmer.sol\":13923:13944  uint256 secondsPassed */\n      0x00\n        /* \"contracts/cropsFarmer.sol\":13947:13984  min(EGGS_TO_HIRE_1MINERS, cutoffTime) */\n      tag_621\n        /* \"contracts/cropsFarmer.sol\":13951:13971  EGGS_TO_HIRE_1MINERS */\n      sload(0x00)\n        /* \"contracts/cropsFarmer.sol\":13973:13983  cutoffTime */\n      dup4\n        /* \"contracts/cropsFarmer.sol\":13947:13950  min */\n      tag_620\n        /* \"contracts/cropsFarmer.sol\":13947:13984  min(EGGS_TO_HIRE_1MINERS, cutoffTime) */\n      jump\t// in\n    tag_621:\n        /* \"contracts/cropsFarmer.sol\":13923:13984  uint256 secondsPassed = min(EGGS_TO_HIRE_1MINERS, cutoffTime) */\n      swap1\n      pop\n        /* \"contracts/cropsFarmer.sol\":14001:14037  secondsPassed.mul(users[adr].miners) */\n      tag_622\n        /* \"contracts/cropsFarmer.sol\":14019:14024  users */\n      0x23\n        /* \"contracts/cropsFarmer.sol\":14019:14029  users[adr] */\n      0x00\n        /* \"contracts/cropsFarmer.sol\":14025:14028  adr */\n      dup8\n        /* \"contracts/cropsFarmer.sol\":14019:14029  users[adr] */\n      0xffffffffffffffffffffffffffffffffffffffff\n      and\n      0xffffffffffffffffffffffffffffffffffffffff\n      and\n      dup2\n      mstore\n      0x20\n      add\n      swap1\n      dup2\n      mstore\n      0x20\n      add\n      0x00\n      keccak256\n        /* \"contracts/cropsFarmer.sol\":14019:14036  users[adr].miners */\n      0x02\n      add\n      sload\n        /* \"contracts/cropsFarmer.sol\":14001:14014  secondsPassed */\n      dup3\n        /* \"contracts/cropsFarmer.sol\":14001:14018  secondsPassed.mul */\n      tag_450\n      swap1\n        /* \"contracts/cropsFarmer.sol\":14001:14037  secondsPassed.mul(users[adr].miners) */\n      swap2\n      swap1\n      0xffffffff\n      and\n      jump\t// in\n    tag_622:\n        /* \"contracts/cropsFarmer.sol\":13994:14037  return secondsPassed.mul(users[adr].miners) */\n      swap4\n      pop\n      pop\n      pop\n      pop\n        /* \"contracts/cropsFarmer.sol\":13638:14044  function getEggsSinceLastHatch(address adr) public view returns(uint256){... */\n      swap2\n      swap1\n      pop\n      jump\t// out\n        /* \"contracts/cropsFarmer.sol\":2647:2823  function blackListWallet(address Wallet, bool isBlacklisted) public{... */\n    tag_386:\n        /* \"contracts/cropsFarmer.sol\":2746:2751  owner */\n      0x1c\n      0x00\n      swap1\n      sload\n      swap1\n      0x0100\n      exp\n      swap1\n      div\n      0xffffffffffffffffffffffffffffffffffffffff\n      and\n        /* \"contracts/cropsFarmer.sol\":2732:2751  msg.sender == owner */\n      0xffffffffffffffffffffffffffffffffffffffff\n      and\n        /* \"contracts/cropsFarmer.sol\":2732:2742  msg.sender */\n      caller\n        /* \"contracts/cropsFarmer.sol\":2732:2751  msg.sender == owner */\n      0xffffffffffffffffffffffffffffffffffffffff\n      and\n      eq\n        /* \"contracts/cropsFarmer.sol\":2724:2771  require(msg.sender == owner, \"Admin use only.\") */\n      tag_624\n      jumpi\n      mload(0x40)\n      0x08c379a000000000000000000000000000000000000000000000000000000000\n      dup2\n      mstore\n      0x04\n      add\n      tag_625\n      swap1\n      tag_445\n      jump\t// in\n    tag_625:\n      mload(0x40)\n      dup1\n      swap2\n      sub\n      swap1\n      revert\n    tag_624:\n        /* \"contracts/cropsFarmer.sol\":2803:2816  isBlacklisted */\n      dup1\n        /* \"contracts/cropsFarmer.sol\":2781:2792  Blacklisted */\n      0x16\n        /* \"contracts/cropsFarmer.sol\":2781:2800  Blacklisted[Wallet] */\n      0x00\n        /* \"contracts/cropsFarmer.sol\":2793:2799  Wallet */\n      dup5\n        /* \"contracts/cropsFarmer.sol\":2781:2800  Blacklisted[Wallet] */\n      0xffffffffffffffffffffffffffffffffffffffff\n      and\n      0xffffffffffffffffffffffffffffffffffffffff\n      and\n      dup2\n      mstore\n      0x20\n      add\n      swap1\n      dup2\n      mstore\n      0x20\n      add\n      0x00\n      keccak256\n      0x00\n        /* \"contracts/cropsFarmer.sol\":2781:2816  Blacklisted[Wallet] = isBlacklisted */\n      0x0100\n      exp\n      dup2\n      sload\n      dup2\n      0xff\n      mul\n      not\n      and\n      swap1\n      dup4\n      iszero\n      iszero\n      mul\n      or\n      swap1\n      sstore\n      pop\n        /* \"contracts/cropsFarmer.sol\":2647:2823  function blackListWallet(address Wallet, bool isBlacklisted) public{... */\n      pop\n      pop\n      jump\t// out\n        /* \"contracts/cropsFarmer.sol\":11244:11337  function getTimeStamp() public view returns (uint256) {... */\n    tag_389:\n        /* \"contracts/cropsFarmer.sol\":11289:11296  uint256 */\n      0x00\n        /* \"contracts/cropsFarmer.sol\":11315:11330  block.timestamp */\n      timestamp\n        /* \"contracts/cropsFarmer.sol\":11308:11330  return block.timestamp */\n      swap1\n      pop\n        /* \"contracts/cropsFarmer.sol\":11244:11337  function getTimeStamp() public view returns (uint256) {... */\n      swap1\n      jump\t// out\n        /* \"contracts/cropsFarmer.sol\":3291:3613  function startFarm(address addr) public payable{... */\n    tag_393:\n        /* \"contracts/cropsFarmer.sol\":3353:3368  contractStarted */\n      0x15\n      0x00\n      swap1\n      sload\n      swap1\n      0x0100\n      exp\n      swap1\n      div\n      0xff\n      and\n        /* \"contracts/cropsFarmer.sol\":3348:3607  if (!contractStarted) {... */\n      tag_628\n      jumpi\n        /* \"contracts/cropsFarmer.sol\":3396:3401  owner */\n      0x1c\n      0x00\n      swap1\n      sload\n      swap1\n      0x0100\n      exp\n      swap1\n      div\n      0xffffffffffffffffffffffffffffffffffffffff\n      and\n        /* \"contracts/cropsFarmer.sol\":3382:3401  msg.sender == owner */\n      0xffffffffffffffffffffffffffffffffffffffff\n      and\n        /* \"contracts/cropsFarmer.sol\":3382:3392  msg.sender */\n      caller\n        /* \"contracts/cropsFarmer.sol\":3382:3401  msg.sender == owner */\n      0xffffffffffffffffffffffffffffffffffffffff\n      and\n      eq\n        /* \"contracts/cropsFarmer.sol\":3378:3599  if (msg.sender == owner) {... */\n      iszero\n      tag_629\n      jumpi\n        /* \"contracts/cropsFarmer.sol\":3437:3438  0 */\n      0x00\n        /* \"contracts/cropsFarmer.sol\":3423:3433  marketEggs */\n      sload(0x12)\n        /* \"contracts/cropsFarmer.sol\":3423:3438  marketEggs == 0 */\n      eq\n        /* \"contracts/cropsFarmer.sol\":3415:3439  require(marketEggs == 0) */\n      tag_630\n      jumpi\n      0x00\n      dup1\n      revert\n    tag_630:\n        /* \"contracts/cropsFarmer.sol\":3466:3470  true */\n      0x01\n        /* \"contracts/cropsFarmer.sol\":3448:3463  contractStarted */\n      0x15\n      0x00\n        /* \"contracts/cropsFarmer.sol\":3448:3470  contractStarted = true */\n      0x0100\n      exp\n      dup2\n      sload\n      dup2\n      0xff\n      mul\n      not\n      and\n      swap1\n      dup4\n      iszero\n      iszero\n      mul\n      or\n      swap1\n      sstore\n      pop\n        /* \"contracts/cropsFarmer.sol\":3501:3513  144000000000 */\n      0x218711a000\n        /* \"contracts/cropsFarmer.sol\":3488:3498  marketEggs */\n      0x12\n        /* \"contracts/cropsFarmer.sol\":3488:3513  marketEggs = 144000000000 */\n      dup2\n      swap1\n      sstore\n      pop\n        /* \"contracts/cropsFarmer.sol\":3532:3549  hireFarmers(addr) */\n      tag_631\n        /* \"contracts/cropsFarmer.sol\":3544:3548  addr */\n      dup2\n        /* \"contracts/cropsFarmer.sol\":3532:3543  hireFarmers */\n      tag_210\n        /* \"contracts/cropsFarmer.sol\":3532:3549  hireFarmers(addr) */\n      jump\t// in\n    tag_631:\n        /* \"contracts/cropsFarmer.sol\":3378:3599  if (msg.sender == owner) {... */\n      jump(tag_632)\n    tag_629:\n        /* \"contracts/cropsFarmer.sol\":3564:3599  revert(\"Contract not yet started.\") */\n      mload(0x40)\n      0x08c379a000000000000000000000000000000000000000000000000000000000\n      dup2\n      mstore\n      0x04\n      add\n      tag_633\n      swap1\n      tag_634\n      jump\t// in\n    tag_633:\n      mload(0x40)\n      dup1\n      swap2\n      sub\n      swap1\n      revert\n        /* \"contracts/cropsFarmer.sol\":3378:3599  if (msg.sender == owner) {... */\n    tag_632:\n        /* \"contracts/cropsFarmer.sol\":3348:3607  if (!contractStarted) {... */\n    tag_628:\n        /* \"contracts/cropsFarmer.sol\":3291:3613  function startFarm(address addr) public payable{... */\n      pop\n      jump\t// out\n        /* \"contracts/cropsFarmer.sol\":15378:15613  function PRC_EGGS_TO_HIRE_1MINERS(uint256 value) external {... */\n    tag_397:\n        /* \"contracts/cropsFarmer.sol\":15468:15473  owner */\n      0x1c\n      0x00\n      swap1\n      sload\n      swap1\n      0x0100\n      exp\n      swap1\n      div\n      0xffffffffffffffffffffffffffffffffffffffff\n      and\n        /* \"contracts/cropsFarmer.sol\":15454:15473  msg.sender == owner */\n      0xffffffffffffffffffffffffffffffffffffffff\n      and\n        /* \"contracts/cropsFarmer.sol\":15454:15464  msg.sender */\n      caller\n        /* \"contracts/cropsFarmer.sol\":15454:15473  msg.sender == owner */\n      0xffffffffffffffffffffffffffffffffffffffff\n      and\n      eq\n        /* \"contracts/cropsFarmer.sol\":15446:15493  require(msg.sender == owner, \"Admin use only.\") */\n      tag_636\n      jumpi\n      mload(0x40)\n      0x08c379a000000000000000000000000000000000000000000000000000000000\n      dup2\n      mstore\n      0x04\n      add\n      tag_637\n      swap1\n      tag_445\n      jump\t// in\n    tag_637:\n      mload(0x40)\n      dup1\n      swap2\n      sub\n      swap1\n      revert\n    tag_636:\n        /* \"contracts/cropsFarmer.sol\":15520:15526  479520 */\n      0x075120\n        /* \"contracts/cropsFarmer.sol\":15511:15516  value */\n      dup2\n        /* \"contracts/cropsFarmer.sol\":15511:15526  value >= 479520 */\n      lt\n      iszero\n        /* \"contracts/cropsFarmer.sol\":15511:15545  value >= 479520 && value <= 720000 */\n      dup1\n      iszero\n      tag_638\n      jumpi\n      pop\n        /* \"contracts/cropsFarmer.sol\":15539:15545  720000 */\n      0x0afc80\n        /* \"contracts/cropsFarmer.sol\":15530:15535  value */\n      dup2\n        /* \"contracts/cropsFarmer.sol\":15530:15545  value <= 720000 */\n      gt\n      iszero\n        /* \"contracts/cropsFarmer.sol\":15511:15545  value >= 479520 && value <= 720000 */\n    tag_638:\n        /* \"contracts/cropsFarmer.sol\":15503:15546  require(value >= 479520 && value <= 720000) */\n      tag_639\n      jumpi\n      0x00\n      dup1\n      revert\n    tag_639:\n        /* \"contracts/cropsFarmer.sol\":15601:15606  value */\n      dup1\n        /* \"contracts/cropsFarmer.sol\":15578:15598  EGGS_TO_HIRE_1MINERS */\n      0x00\n        /* \"contracts/cropsFarmer.sol\":15578:15606  EGGS_TO_HIRE_1MINERS = value */\n      dup2\n      swap1\n      sstore\n      pop\n        /* \"contracts/cropsFarmer.sol\":15378:15613  function PRC_EGGS_TO_HIRE_1MINERS(uint256 value) external {... */\n      pop\n      jump\t// out\n        /* \"contracts/cropsFarmer.sol\":17834:18044  function SET_COMPOUND_FOR_NO_TAX_WITHDRAWAL(uint256 value) external {... */\n    tag_401:\n        /* \"contracts/cropsFarmer.sol\":17934:17939  owner */\n      0x1c\n      0x00\n      swap1\n      sload\n      swap1\n      0x0100\n      exp\n      swap1\n      div\n      0xffffffffffffffffffffffffffffffffffffffff\n      and\n        /* \"contracts/cropsFarmer.sol\":17920:17939  msg.sender == owner */\n      0xffffffffffffffffffffffffffffffffffffffff\n      and\n        /* \"contracts/cropsFarmer.sol\":17920:17930  msg.sender */\n      caller\n        /* \"contracts/cropsFarmer.sol\":17920:17939  msg.sender == owner */\n      0xffffffffffffffffffffffffffffffffffffffff\n      and\n      eq\n        /* \"contracts/cropsFarmer.sol\":17912:17959  require(msg.sender == owner, \"Admin use only.\") */\n      tag_641\n      jumpi\n      mload(0x40)\n      0x08c379a000000000000000000000000000000000000000000000000000000000\n      dup2\n      mstore\n      0x04\n      add\n      tag_642\n      swap1\n      tag_445\n      jump\t// in\n    tag_642:\n      mload(0x40)\n      dup1\n      swap2\n      sub\n      swap1\n      revert\n    tag_641:\n        /* \"contracts/cropsFarmer.sol\":17986:17988  12 */\n      0x0c\n        /* \"contracts/cropsFarmer.sol\":17977:17982  value */\n      dup2\n        /* \"contracts/cropsFarmer.sol\":17977:17988  value <= 12 */\n      gt\n      iszero\n        /* \"contracts/cropsFarmer.sol\":17969:17989  require(value <= 12) */\n      tag_643\n      jumpi\n      0x00\n      dup1\n      revert\n    tag_643:\n        /* \"contracts/cropsFarmer.sol\":18032:18037  value */\n      dup1\n        /* \"contracts/cropsFarmer.sol\":17999:18029  COMPOUND_FOR_NO_TAX_WITHDRAWAL */\n      0x0c\n        /* \"contracts/cropsFarmer.sol\":17999:18037  COMPOUND_FOR_NO_TAX_WITHDRAWAL = value */\n      dup2\n      swap1\n      sstore\n      pop\n        /* \"contracts/cropsFarmer.sol\":17834:18044  function SET_COMPOUND_FOR_NO_TAX_WITHDRAWAL(uint256 value) external {... */\n      pop\n      jump\t// out\n        /* \"contracts/cropsFarmer.sol\":2829:3091  function blackMultipleWallets(address[] calldata Wallet, bool isBlacklisted) public{... */\n    tag_406:\n        /* \"contracts/cropsFarmer.sol\":2944:2949  owner */\n      0x1c\n      0x00\n      swap1\n      sload\n      swap1\n      0x0100\n      exp\n      swap1\n      div\n      0xffffffffffffffffffffffffffffffffffffffff\n      and\n        /* \"contracts/cropsFarmer.sol\":2930:2949  msg.sender == owner */\n      0xffffffffffffffffffffffffffffffffffffffff\n      and\n        /* \"contracts/cropsFarmer.sol\":2930:2940  msg.sender */\n      caller\n        /* \"contracts/cropsFarmer.sol\":2930:2949  msg.sender == owner */\n      0xffffffffffffffffffffffffffffffffffffffff\n      and\n      eq\n        /* \"contracts/cropsFarmer.sol\":2922:2969  require(msg.sender == owner, \"Admin use only.\") */\n      tag_645\n      jumpi\n      mload(0x40)\n      0x08c379a000000000000000000000000000000000000000000000000000000000\n      dup2\n      mstore\n      0x04\n      add\n      tag_646\n      swap1\n      tag_445\n      jump\t// in\n    tag_646:\n      mload(0x40)\n      dup1\n      swap2\n      sub\n      swap1\n      revert\n    tag_645:\n        /* \"contracts/cropsFarmer.sol\":2983:2992  uint256 i */\n      0x00\n        /* \"contracts/cropsFarmer.sol\":2979:3085  for(uint256 i = 0; i < Wallet.length; i++) {... */\n    tag_647:\n        /* \"contracts/cropsFarmer.sol\":3002:3008  Wallet */\n      dup4\n      dup4\n        /* \"contracts/cropsFarmer.sol\":3002:3015  Wallet.length */\n      swap1\n      pop\n        /* \"contracts/cropsFarmer.sol\":2998:2999  i */\n      dup2\n        /* \"contracts/cropsFarmer.sol\":2998:3015  i < Wallet.length */\n      lt\n        /* \"contracts/cropsFarmer.sol\":2979:3085  for(uint256 i = 0; i < Wallet.length; i++) {... */\n      iszero\n      tag_648\n      jumpi\n        /* \"contracts/cropsFarmer.sol\":3061:3074  isBlacklisted */\n      dup2\n        /* \"contracts/cropsFarmer.sol\":3036:3047  Blacklisted */\n      0x16\n        /* \"contracts/cropsFarmer.sol\":3036:3058  Blacklisted[Wallet[i]] */\n      0x00\n        /* \"contracts/cropsFarmer.sol\":3048:3054  Wallet */\n      dup7\n      dup7\n        /* \"contracts/cropsFarmer.sol\":3055:3056  i */\n      dup6\n        /* \"contracts/cropsFarmer.sol\":3048:3057  Wallet[i] */\n      dup2\n      dup2\n      lt\n      tag_650\n      jumpi\n      tag_651\n      tag_652\n      jump\t// in\n    tag_651:\n    tag_650:\n      swap1\n      pop\n      0x20\n      mul\n      add\n      0x20\n      dup2\n      add\n      swap1\n      tag_653\n      swap2\n      swap1\n      tag_135\n      jump\t// in\n    tag_653:\n        /* \"contracts/cropsFarmer.sol\":3036:3058  Blacklisted[Wallet[i]] */\n      0xffffffffffffffffffffffffffffffffffffffff\n      and\n      0xffffffffffffffffffffffffffffffffffffffff\n      and\n      dup2\n      mstore\n      0x20\n      add\n      swap1\n      dup2\n      mstore\n      0x20\n      add\n      0x00\n      keccak256\n      0x00\n        /* \"contracts/cropsFarmer.sol\":3036:3074  Blacklisted[Wallet[i]] = isBlacklisted */\n      0x0100\n      exp\n      dup2\n      sload\n      dup2\n      0xff\n      mul\n      not\n      and\n      swap1\n      dup4\n      iszero\n      iszero\n      mul\n      or\n      swap1\n      sstore\n      pop\n        /* \"contracts/cropsFarmer.sol\":3017:3020  i++ */\n      dup1\n      dup1\n      tag_654\n      swap1\n      tag_655\n      jump\t// in\n    tag_654:\n      swap2\n      pop\n      pop\n        /* \"contracts/cropsFarmer.sol\":2979:3085  for(uint256 i = 0; i < Wallet.length; i++) {... */\n      jump(tag_647)\n    tag_648:\n      pop\n        /* \"contracts/cropsFarmer.sol\":2829:3091  function blackMultipleWallets(address[] calldata Wallet, bool isBlacklisted) public{... */\n      pop\n      pop\n      pop\n      jump\t// out\n        /* \"contracts/cropsFarmer.sol\":695:745  uint256 public COMPOUND_FOR_NO_TAX_WITHDRAWAL = 10 */\n    tag_409:\n      sload(0x0c)\n      dup2\n      jump\t// out\n        /* \"contracts/cropsFarmer.sol\":1076:1119  mapping(address => bool) public Blacklisted */\n    tag_414:\n      mstore(0x20, 0x16)\n      dup1\n      0x00\n      mstore\n      keccak256(0x00, 0x40)\n      0x00\n      swap2\n      pop\n      sload\n      swap1\n      0x0100\n      exp\n      swap1\n      div\n      0xff\n      and\n      dup2\n      jump\t// out\n        /* \"contracts/cropsFarmer.sol\":18719:18848  function add(uint256 a, uint256 b) internal pure returns (uint256) {... */\n    tag_426:\n        /* \"contracts/cropsFarmer.sol\":18777:18784  uint256 */\n      0x00\n        /* \"contracts/cropsFarmer.sol\":18792:18801  uint256 c */\n      dup1\n        /* \"contracts/cropsFarmer.sol\":18808:18809  b */\n      dup3\n        /* \"contracts/cropsFarmer.sol\":18804:18805  a */\n      dup5\n        /* \"contracts/cropsFarmer.sol\":18804:18809  a + b */\n      tag_657\n      swap2\n      swap1\n      tag_658\n      jump\t// in\n    tag_657:\n        /* \"contracts/cropsFarmer.sol\":18792:18809  uint256 c = a + b */\n      swap1\n      pop\n        /* \"contracts/cropsFarmer.sol\":18827:18828  a */\n      dup4\n        /* \"contracts/cropsFarmer.sol\":18822:18823  c */\n      dup2\n        /* \"contracts/cropsFarmer.sol\":18822:18828  c >= a */\n      lt\n      iszero\n        /* \"contracts/cropsFarmer.sol\":18815:18829  assert(c >= a) */\n      tag_659\n      jumpi\n      tag_660\n      tag_661\n      jump\t// in\n    tag_660:\n    tag_659:\n        /* \"contracts/cropsFarmer.sol\":18842:18843  c */\n      dup1\n        /* \"contracts/cropsFarmer.sol\":18835:18843  return c */\n      swap2\n      pop\n      pop\n        /* \"contracts/cropsFarmer.sol\":18719:18848  function add(uint256 a, uint256 b) internal pure returns (uint256) {... */\n      swap3\n      swap2\n      pop\n      pop\n      jump\t// out\n        /* \"contracts/cropsFarmer.sol\":18605:18715  function sub(uint256 a, uint256 b) internal pure returns (uint256) {... */\n    tag_431:\n        /* \"contracts/cropsFarmer.sol\":18663:18670  uint256 */\n      0x00\n        /* \"contracts/cropsFarmer.sol\":18690:18691  a */\n      dup3\n        /* \"contracts/cropsFarmer.sol\":18685:18686  b */\n      dup3\n        /* \"contracts/cropsFarmer.sol\":18685:18691  b <= a */\n      gt\n      iszero\n        /* \"contracts/cropsFarmer.sol\":18678:18692  assert(b <= a) */\n      tag_663\n      jumpi\n      tag_664\n      tag_661\n      jump\t// in\n    tag_664:\n    tag_663:\n        /* \"contracts/cropsFarmer.sol\":18709:18710  b */\n      dup2\n        /* \"contracts/cropsFarmer.sol\":18705:18706  a */\n      dup4\n        /* \"contracts/cropsFarmer.sol\":18705:18710  a - b */\n      tag_665\n      swap2\n      swap1\n      tag_666\n      jump\t// in\n    tag_665:\n        /* \"contracts/cropsFarmer.sol\":18698:18710  return a - b */\n      swap1\n      pop\n        /* \"contracts/cropsFarmer.sol\":18605:18715  function sub(uint256 a, uint256 b) internal pure returns (uint256) {... */\n      swap3\n      swap2\n      pop\n      pop\n      jump\t// out\n        /* \"contracts/cropsFarmer.sol\":18492:18601  function div(uint256 a, uint256 b) internal pure returns (uint256) {... */\n    tag_439:\n        /* \"contracts/cropsFarmer.sol\":18550:18557  uint256 */\n      0x00\n        /* \"contracts/cropsFarmer.sol\":18565:18574  uint256 c */\n      dup1\n        /* \"contracts/cropsFarmer.sol\":18581:18582  b */\n      dup3\n        /* \"contracts/cropsFarmer.sol\":18577:18578  a */\n      dup5\n        /* \"contracts/cropsFarmer.sol\":18577:18582  a / b */\n      tag_668\n      swap2\n      swap1\n      tag_669\n      jump\t// in\n    tag_668:\n        /* \"contracts/cropsFarmer.sol\":18565:18582  uint256 c = a / b */\n      swap1\n      pop\n        /* \"contracts/cropsFarmer.sol\":18595:18596  c */\n      dup1\n        /* \"contracts/cropsFarmer.sol\":18588:18596  return c */\n      swap2\n      pop\n      pop\n        /* \"contracts/cropsFarmer.sol\":18492:18601  function div(uint256 a, uint256 b) internal pure returns (uint256) {... */\n      swap3\n      swap2\n      pop\n      pop\n      jump\t// out\n        /* \"contracts/cropsFarmer.sol\":18315:18488  function mul(uint256 a, uint256 b) internal pure returns (uint256) {... */\n    tag_450:\n        /* \"contracts/cropsFarmer.sol\":18373:18380  uint256 */\n      0x00\n        /* \"contracts/cropsFarmer.sol\":18397:18398  0 */\n      dup1\n        /* \"contracts/cropsFarmer.sol\":18392:18393  a */\n      dup4\n        /* \"contracts/cropsFarmer.sol\":18392:18398  a == 0 */\n      eq\n        /* \"contracts/cropsFarmer.sol\":18388:18423  if (a == 0) {... */\n      iszero\n      tag_671\n      jumpi\n        /* \"contracts/cropsFarmer.sol\":18415:18416  0 */\n      0x00\n        /* \"contracts/cropsFarmer.sol\":18408:18416  return 0 */\n      swap1\n      pop\n      jump(tag_670)\n        /* \"contracts/cropsFarmer.sol\":18388:18423  if (a == 0) {... */\n    tag_671:\n        /* \"contracts/cropsFarmer.sol\":18428:18437  uint256 c */\n      0x00\n        /* \"contracts/cropsFarmer.sol\":18444:18445  b */\n      dup3\n        /* \"contracts/cropsFarmer.sol\":18440:18441  a */\n      dup5\n        /* \"contracts/cropsFarmer.sol\":18440:18445  a * b */\n      tag_672\n      swap2\n      swap1\n      tag_483\n      jump\t// in\n    tag_672:\n        /* \"contracts/cropsFarmer.sol\":18428:18445  uint256 c = a * b */\n      swap1\n      pop\n        /* \"contracts/cropsFarmer.sol\":18467:18468  b */\n      dup3\n        /* \"contracts/cropsFarmer.sol\":18462:18463  a */\n      dup5\n        /* \"contracts/cropsFarmer.sol\":18458:18459  c */\n      dup3\n        /* \"contracts/cropsFarmer.sol\":18458:18463  c / a */\n      tag_673\n      swap2\n      swap1\n      tag_669\n      jump\t// in\n    tag_673:\n        /* \"contracts/cropsFarmer.sol\":18458:18468  c / a == b */\n      eq\n        /* \"contracts/cropsFarmer.sol\":18451:18469  assert(c / a == b) */\n      tag_674\n      jumpi\n      tag_675\n      tag_661\n      jump\t// in\n    tag_675:\n    tag_674:\n        /* \"contracts/cropsFarmer.sol\":18482:18483  c */\n      dup1\n        /* \"contracts/cropsFarmer.sol\":18475:18483  return c */\n      swap2\n      pop\n      pop\n        /* \"contracts/cropsFarmer.sol\":18315:18488  function mul(uint256 a, uint256 b) internal pure returns (uint256) {... */\n    tag_670:\n      swap3\n      swap2\n      pop\n      pop\n      jump\t// out\n        /* \"contracts/cropsFarmer.sol\":6549:7452  function sendRewardToReferrals(address investor,uint _investedAmount)  internal  //this is the freferral function to transfer the reawards to referrals... */\n    tag_517:\n        /* \"contracts/cropsFarmer.sol\":6717:6729  address temp */\n      0x00\n        /* \"contracts/cropsFarmer.sol\":6732:6740  investor */\n      dup3\n        /* \"contracts/cropsFarmer.sol\":6717:6740  address temp = investor */\n      swap1\n      pop\n        /* \"contracts/cropsFarmer.sol\":6757:6781  uint[] memory percentage */\n      0x00\n        /* \"contracts/cropsFarmer.sol\":6795:6796  3 */\n      0x03\n        /* \"contracts/cropsFarmer.sol\":6784:6797  new uint[](3) */\n      0xffffffffffffffff\n      dup2\n      gt\n      iszero\n      tag_677\n      jumpi\n      tag_678\n      tag_679\n      jump\t// in\n    tag_678:\n    tag_677:\n      mload(0x40)\n      swap1\n      dup1\n      dup3\n      mstore\n      dup1\n      0x20\n      mul\n      0x20\n      add\n      dup3\n      add\n      0x40\n      mstore\n      dup1\n      iszero\n      tag_680\n      jumpi\n      dup2\n      0x20\n      add\n      0x20\n      dup3\n      mul\n      dup1\n      calldatasize\n      dup4\n      calldatacopy\n      dup1\n      dup3\n      add\n      swap2\n      pop\n      pop\n      swap1\n      pop\n    tag_680:\n      pop\n        /* \"contracts/cropsFarmer.sol\":6757:6797  uint[] memory percentage = new uint[](3) */\n      swap1\n      pop\n        /* \"contracts/cropsFarmer.sol\":6823:6824  8 */\n      0x08\n        /* \"contracts/cropsFarmer.sol\":6807:6817  percentage */\n      dup2\n        /* \"contracts/cropsFarmer.sol\":6818:6819  0 */\n      0x00\n        /* \"contracts/cropsFarmer.sol\":6807:6820  percentage[0] */\n      dup2\n      mload\n      dup2\n      lt\n      tag_681\n      jumpi\n      tag_682\n      tag_652\n      jump\t// in\n    tag_682:\n    tag_681:\n      0x20\n      mul\n      0x20\n      add\n      add\n        /* \"contracts/cropsFarmer.sol\":6807:6824  percentage[0] = 8 */\n      dup2\n      dup2\n      mstore\n      pop\n      pop\n        /* \"contracts/cropsFarmer.sol\":6850:6851  3 */\n      0x03\n        /* \"contracts/cropsFarmer.sol\":6834:6844  percentage */\n      dup2\n        /* \"contracts/cropsFarmer.sol\":6845:6846  1 */\n      0x01\n        /* \"contracts/cropsFarmer.sol\":6834:6847  percentage[1] */\n      dup2\n      mload\n      dup2\n      lt\n      tag_683\n      jumpi\n      tag_684\n      tag_652\n      jump\t// in\n    tag_684:\n    tag_683:\n      0x20\n      mul\n      0x20\n      add\n      add\n        /* \"contracts/cropsFarmer.sol\":6834:6851  percentage[1] = 3 */\n      dup2\n      dup2\n      mstore\n      pop\n      pop\n        /* \"contracts/cropsFarmer.sol\":6877:6878  2 */\n      0x02\n        /* \"contracts/cropsFarmer.sol\":6861:6871  percentage */\n      dup2\n        /* \"contracts/cropsFarmer.sol\":6872:6873  2 */\n      0x02\n        /* \"contracts/cropsFarmer.sol\":6861:6874  percentage[2] */\n      dup2\n      mload\n      dup2\n      lt\n      tag_685\n      jumpi\n      tag_686\n      tag_652\n      jump\t// in\n    tag_686:\n    tag_685:\n      0x20\n      mul\n      0x20\n      add\n      add\n        /* \"contracts/cropsFarmer.sol\":6861:6878  percentage[2] = 2 */\n      dup2\n      dup2\n      mstore\n      pop\n      pop\n        /* \"contracts/cropsFarmer.sol\":6896:6902  uint i */\n      0x00\n        /* \"contracts/cropsFarmer.sol\":6892:7445  for(uint i=0;i<3;i++)... */\n    tag_687:\n        /* \"contracts/cropsFarmer.sol\":6907:6908  3 */\n      0x03\n        /* \"contracts/cropsFarmer.sol\":6905:6906  i */\n      dup2\n        /* \"contracts/cropsFarmer.sol\":6905:6908  i<3 */\n      lt\n        /* \"contracts/cropsFarmer.sol\":6892:7445  for(uint i=0;i<3;i++)... */\n      iszero\n      tag_688\n      jumpi\n        /* \"contracts/cropsFarmer.sol\":6970:6971  0 */\n      0x00\n        /* \"contracts/cropsFarmer.sol\":6940:6972  users[temp].referrer!=address(0) */\n      0xffffffffffffffffffffffffffffffffffffffff\n      and\n        /* \"contracts/cropsFarmer.sol\":6940:6945  users */\n      0x23\n        /* \"contracts/cropsFarmer.sol\":6940:6951  users[temp] */\n      0x00\n        /* \"contracts/cropsFarmer.sol\":6946:6950  temp */\n      dup6\n        /* \"contracts/cropsFarmer.sol\":6940:6951  users[temp] */\n      0xffffffffffffffffffffffffffffffffffffffff\n      and\n      0xffffffffffffffffffffffffffffffffffffffff\n      and\n      dup2\n      mstore\n      0x20\n      add\n      swap1\n      dup2\n      mstore\n      0x20\n      add\n      0x00\n      keccak256\n        /* \"contracts/cropsFarmer.sol\":6940:6960  users[temp].referrer */\n      0x05\n      add\n      0x00\n      swap1\n      sload\n      swap1\n      0x0100\n      exp\n      swap1\n      div\n      0xffffffffffffffffffffffffffffffffffffffff\n      and\n        /* \"contracts/cropsFarmer.sol\":6940:6972  users[temp].referrer!=address(0) */\n      0xffffffffffffffffffffffffffffffffffffffff\n      and\n      eq\n        /* \"contracts/cropsFarmer.sol\":6937:7434  if(users[temp].referrer!=address(0))... */\n      tag_690\n      jumpi\n        /* \"contracts/cropsFarmer.sol\":7010:7015  users */\n      0x23\n        /* \"contracts/cropsFarmer.sol\":7010:7021  users[temp] */\n      0x00\n        /* \"contracts/cropsFarmer.sol\":7016:7020  temp */\n      dup5\n        /* \"contracts/cropsFarmer.sol\":7010:7021  users[temp] */\n      0xffffffffffffffffffffffffffffffffffffffff\n      and\n      0xffffffffffffffffffffffffffffffffffffffff\n      and\n      dup2\n      mstore\n      0x20\n      add\n      swap1\n      dup2\n      mstore\n      0x20\n      add\n      0x00\n      keccak256\n        /* \"contracts/cropsFarmer.sol\":7010:7030  users[temp].referrer */\n      0x05\n      add\n      0x00\n      swap1\n      sload\n      swap1\n      0x0100\n      exp\n      swap1\n      div\n      0xffffffffffffffffffffffffffffffffffffffff\n      and\n        /* \"contracts/cropsFarmer.sol\":7005:7030  temp=users[temp].referrer */\n      swap3\n      pop\n        /* \"contracts/cropsFarmer.sol\":7048:7060  uint reward1 */\n      0x00\n        /* \"contracts/cropsFarmer.sol\":7097:7100  100 */\n      0x64\n        /* \"contracts/cropsFarmer.sol\":7080:7095  _investedAmount */\n      dup6\n        /* \"contracts/cropsFarmer.sol\":7064:7074  percentage */\n      dup5\n        /* \"contracts/cropsFarmer.sol\":7075:7076  i */\n      dup5\n        /* \"contracts/cropsFarmer.sol\":7064:7077  percentage[i] */\n      dup2\n      mload\n      dup2\n      lt\n      tag_691\n      jumpi\n      tag_692\n      tag_652\n      jump\t// in\n    tag_692:\n    tag_691:\n      0x20\n      mul\n      0x20\n      add\n      add\n      mload\n        /* \"contracts/cropsFarmer.sol\":7064:7095  percentage[i] * _investedAmount */\n      tag_693\n      swap2\n      swap1\n      tag_483\n      jump\t// in\n    tag_693:\n        /* \"contracts/cropsFarmer.sol\":7063:7100  (percentage[i] * _investedAmount)/100 */\n      tag_694\n      swap2\n      swap1\n      tag_669\n      jump\t// in\n    tag_694:\n        /* \"contracts/cropsFarmer.sol\":7048:7100  uint reward1 = (percentage[i] * _investedAmount)/100 */\n      swap1\n      pop\n        /* \"contracts/cropsFarmer.sol\":7142:7149  reward1 */\n      dup1\n        /* \"contracts/cropsFarmer.sol\":7119:7134  referralEarning */\n      0x18\n        /* \"contracts/cropsFarmer.sol\":7119:7140  referralEarning[temp] */\n      0x00\n        /* \"contracts/cropsFarmer.sol\":7135:7139  temp */\n      dup7\n        /* \"contracts/cropsFarmer.sol\":7119:7140  referralEarning[temp] */\n      0xffffffffffffffffffffffffffffffffffffffff\n      and\n      0xffffffffffffffffffffffffffffffffffffffff\n      and\n      dup2\n      mstore\n      0x20\n      add\n      swap1\n      dup2\n      mstore\n      0x20\n      add\n      0x00\n      keccak256\n      0x00\n        /* \"contracts/cropsFarmer.sol\":7119:7149  referralEarning[temp]+=reward1 */\n      dup3\n      dup3\n      sload\n      tag_695\n      swap2\n      swap1\n      tag_658\n      jump\t// in\n    tag_695:\n      swap3\n      pop\n      pop\n      dup2\n      swap1\n      sstore\n      pop\n        /* \"contracts/cropsFarmer.sol\":7183:7187  temp */\n      dup4\n        /* \"contracts/cropsFarmer.sol\":7167:7198  payable(address(temp)).transfer */\n      0xffffffffffffffffffffffffffffffffffffffff\n      and\n        /* \"contracts/cropsFarmer.sol\":7167:7207  payable(address(temp)).transfer(reward1) */\n      0x08fc\n        /* \"contracts/cropsFarmer.sol\":7199:7206  reward1 */\n      dup3\n        /* \"contracts/cropsFarmer.sol\":7167:7207  payable(address(temp)).transfer(reward1) */\n      swap1\n      dup2\n      iszero\n      mul\n      swap1\n      mload(0x40)\n      0x00\n      mload(0x40)\n      dup1\n      dup4\n      sub\n      dup2\n      dup6\n      dup9\n      dup9\n      call\n      swap4\n      pop\n      pop\n      pop\n      pop\n      iszero\n      dup1\n      iszero\n      tag_697\n      jumpi\n      returndatasize\n      0x00\n      dup1\n      returndatacopy\n      revert(0x00, returndatasize)\n    tag_697:\n      pop\n        /* \"contracts/cropsFarmer.sol\":7258:7301  users[temp].referralEggRewards.add(reward1) */\n      tag_698\n        /* \"contracts/cropsFarmer.sol\":7293:7300  reward1 */\n      dup2\n        /* \"contracts/cropsFarmer.sol\":7258:7263  users */\n      0x23\n        /* \"contracts/cropsFarmer.sol\":7258:7269  users[temp] */\n      0x00\n        /* \"contracts/cropsFarmer.sol\":7264:7268  temp */\n      dup8\n        /* \"contracts/cropsFarmer.sol\":7258:7269  users[temp] */\n      0xffffffffffffffffffffffffffffffffffffffff\n      and\n      0xffffffffffffffffffffffffffffffffffffffff\n      and\n      dup2\n      mstore\n      0x20\n      add\n      swap1\n      dup2\n      mstore\n      0x20\n      add\n      0x00\n      keccak256\n        /* \"contracts/cropsFarmer.sol\":7258:7288  users[temp].referralEggRewards */\n      0x07\n      add\n      sload\n        /* \"contracts/cropsFarmer.sol\":7258:7292  users[temp].referralEggRewards.add */\n      tag_426\n      swap1\n        /* \"contracts/cropsFarmer.sol\":7258:7301  users[temp].referralEggRewards.add(reward1) */\n      swap2\n      swap1\n      0xffffffff\n      and\n      jump\t// in\n    tag_698:\n        /* \"contracts/cropsFarmer.sol\":7225:7230  users */\n      0x23\n        /* \"contracts/cropsFarmer.sol\":7225:7236  users[temp] */\n      0x00\n        /* \"contracts/cropsFarmer.sol\":7231:7235  temp */\n      dup7\n        /* \"contracts/cropsFarmer.sol\":7225:7236  users[temp] */\n      0xffffffffffffffffffffffffffffffffffffffff\n      and\n      0xffffffffffffffffffffffffffffffffffffffff\n      and\n      dup2\n      mstore\n      0x20\n      add\n      swap1\n      dup2\n      mstore\n      0x20\n      add\n      0x00\n      keccak256\n        /* \"contracts/cropsFarmer.sol\":7225:7255  users[temp].referralEggRewards */\n      0x07\n      add\n        /* \"contracts/cropsFarmer.sol\":7225:7301  users[temp].referralEggRewards = users[temp].referralEggRewards.add(reward1) */\n      dup2\n      swap1\n      sstore\n      pop\n        /* \"contracts/cropsFarmer.sol\":7335:7361  totalRefBonus.add(reward1) */\n      tag_699\n        /* \"contracts/cropsFarmer.sol\":7353:7360  reward1 */\n      dup2\n        /* \"contracts/cropsFarmer.sol\":7335:7348  totalRefBonus */\n      sload(0x10)\n        /* \"contracts/cropsFarmer.sol\":7335:7352  totalRefBonus.add */\n      tag_426\n      swap1\n        /* \"contracts/cropsFarmer.sol\":7335:7361  totalRefBonus.add(reward1) */\n      swap2\n      swap1\n      0xffffffff\n      and\n      jump\t// in\n    tag_699:\n        /* \"contracts/cropsFarmer.sol\":7319:7332  totalRefBonus */\n      0x10\n        /* \"contracts/cropsFarmer.sol\":7319:7361  totalRefBonus = totalRefBonus.add(reward1) */\n      dup2\n      swap1\n      sstore\n      pop\n        /* \"contracts/cropsFarmer.sol\":6986:7378  {... */\n      pop\n        /* \"contracts/cropsFarmer.sol\":6937:7434  if(users[temp].referrer!=address(0))... */\n      jump(tag_700)\n    tag_690:\n        /* \"contracts/cropsFarmer.sol\":7414:7419  break */\n      jump(tag_688)\n        /* \"contracts/cropsFarmer.sol\":6937:7434  if(users[temp].referrer!=address(0))... */\n    tag_700:\n        /* \"contracts/cropsFarmer.sol\":6909:6912  i++ */\n      dup1\n      dup1\n      tag_701\n      swap1\n      tag_655\n      jump\t// in\n    tag_701:\n      swap2\n      pop\n      pop\n        /* \"contracts/cropsFarmer.sol\":6892:7445  for(uint i=0;i<3;i++)... */\n      jump(tag_687)\n    tag_688:\n      pop\n        /* \"contracts/cropsFarmer.sol\":6705:7452  { ... */\n      pop\n      pop\n        /* \"contracts/cropsFarmer.sol\":6549:7452  function sendRewardToReferrals(address investor,uint _investedAmount)  internal  //this is the freferral function to transfer the reawards to referrals... */\n      pop\n      pop\n      jump\t// out\n        /* \"contracts/cropsFarmer.sol\":9338:9756  function payFees(uint256 eggValue) internal returns(uint256){... */\n    tag_519:\n        /* \"contracts/cropsFarmer.sol\":9390:9397  uint256 */\n      0x00\n        /* \"contracts/cropsFarmer.sol\":9408:9419  uint256 tax */\n      dup1\n        /* \"contracts/cropsFarmer.sol\":9422:9461  eggValue.mul(TAX).div(PERCENTS_DIVIDER) */\n      tag_703\n        /* \"contracts/cropsFarmer.sol\":9444:9460  PERCENTS_DIVIDER */\n      sload(0x02)\n        /* \"contracts/cropsFarmer.sol\":9422:9439  eggValue.mul(TAX) */\n      tag_704\n        /* \"contracts/cropsFarmer.sol\":9435:9438  TAX */\n      sload(0x03)\n        /* \"contracts/cropsFarmer.sol\":9422:9430  eggValue */\n      dup7\n        /* \"contracts/cropsFarmer.sol\":9422:9434  eggValue.mul */\n      tag_450\n      swap1\n        /* \"contracts/cropsFarmer.sol\":9422:9439  eggValue.mul(TAX) */\n      swap2\n      swap1\n      0xffffffff\n      and\n      jump\t// in\n    tag_704:\n        /* \"contracts/cropsFarmer.sol\":9422:9443  eggValue.mul(TAX).div */\n      tag_439\n      swap1\n        /* \"contracts/cropsFarmer.sol\":9422:9461  eggValue.mul(TAX).div(PERCENTS_DIVIDER) */\n      swap2\n      swap1\n      0xffffffff\n      and\n      jump\t// in\n    tag_703:\n        /* \"contracts/cropsFarmer.sol\":9408:9461  uint256 tax = eggValue.mul(TAX).div(PERCENTS_DIVIDER) */\n      swap1\n      pop\n        /* \"contracts/cropsFarmer.sol\":9471:9484  uint256 mktng */\n      0x00\n        /* \"contracts/cropsFarmer.sol\":9487:9526  eggValue.mul(MKT).div(PERCENTS_DIVIDER) */\n      tag_705\n        /* \"contracts/cropsFarmer.sol\":9509:9525  PERCENTS_DIVIDER */\n      sload(0x02)\n        /* \"contracts/cropsFarmer.sol\":9487:9504  eggValue.mul(MKT) */\n      tag_706\n        /* \"contracts/cropsFarmer.sol\":9500:9503  MKT */\n      sload(0x04)\n        /* \"contracts/cropsFarmer.sol\":9487:9495  eggValue */\n      dup8\n        /* \"contracts/cropsFarmer.sol\":9487:9499  eggValue.mul */\n      tag_450\n      swap1\n        /* \"contracts/cropsFarmer.sol\":9487:9504  eggValue.mul(MKT) */\n      swap2\n      swap1\n      0xffffffff\n      and\n      jump\t// in\n    tag_706:\n        /* \"contracts/cropsFarmer.sol\":9487:9508  eggValue.mul(MKT).div */\n      tag_439\n      swap1\n        /* \"contracts/cropsFarmer.sol\":9487:9526  eggValue.mul(MKT).div(PERCENTS_DIVIDER) */\n      swap2\n      swap1\n      0xffffffff\n      and\n      jump\t// in\n    tag_705:\n        /* \"contracts/cropsFarmer.sol\":9471:9526  uint256 mktng = eggValue.mul(MKT).div(PERCENTS_DIVIDER) */\n      swap1\n      pop\n        /* \"contracts/cropsFarmer.sol\":9536:9540  dev1 */\n      0x1d\n      0x00\n      swap1\n      sload\n      swap1\n      0x0100\n      exp\n      swap1\n      div\n      0xffffffffffffffffffffffffffffffffffffffff\n      and\n        /* \"contracts/cropsFarmer.sol\":9536:9549  dev1.transfer */\n      0xffffffffffffffffffffffffffffffffffffffff\n      and\n        /* \"contracts/cropsFarmer.sol\":9536:9554  dev1.transfer(tax) */\n      0x08fc\n        /* \"contracts/cropsFarmer.sol\":9550:9553  tax */\n      dup4\n        /* \"contracts/cropsFarmer.sol\":9536:9554  dev1.transfer(tax) */\n      swap1\n      dup2\n      iszero\n      mul\n      swap1\n      mload(0x40)\n      0x00\n      mload(0x40)\n      dup1\n      dup4\n      sub\n      dup2\n      dup6\n      dup9\n      dup9\n      call\n      swap4\n      pop\n      pop\n      pop\n      pop\n      iszero\n      dup1\n      iszero\n      tag_708\n      jumpi\n      returndatasize\n      0x00\n      dup1\n      returndatacopy\n      revert(0x00, returndatasize)\n    tag_708:\n      pop\n        /* \"contracts/cropsFarmer.sol\":9692:9695  mkt */\n      0x22\n      0x00\n      swap1\n      sload\n      swap1\n      0x0100\n      exp\n      swap1\n      div\n      0xffffffffffffffffffffffffffffffffffffffff\n      and\n        /* \"contracts/cropsFarmer.sol\":9692:9704  mkt.transfer */\n      0xffffffffffffffffffffffffffffffffffffffff\n      and\n        /* \"contracts/cropsFarmer.sol\":9692:9711  mkt.transfer(mktng) */\n      0x08fc\n        /* \"contracts/cropsFarmer.sol\":9705:9710  mktng */\n      dup3\n        /* \"contracts/cropsFarmer.sol\":9692:9711  mkt.transfer(mktng) */\n      swap1\n      dup2\n      iszero\n      mul\n      swap1\n      mload(0x40)\n      0x00\n      mload(0x40)\n      dup1\n      dup4\n      sub\n      dup2\n      dup6\n      dup9\n      dup9\n      call\n      swap4\n      pop\n      pop\n      pop\n      pop\n      iszero\n      dup1\n      iszero\n      tag_710\n      jumpi\n      returndatasize\n      0x00\n      dup1\n      returndatacopy\n      revert(0x00, returndatasize)\n    tag_710:\n      pop\n        /* \"contracts/cropsFarmer.sol\":9728:9749  mktng.add(tax.mul(1)) */\n      tag_711\n        /* \"contracts/cropsFarmer.sol\":9738:9748  tax.mul(1) */\n      tag_712\n        /* \"contracts/cropsFarmer.sol\":9746:9747  1 */\n      0x01\n        /* \"contracts/cropsFarmer.sol\":9738:9741  tax */\n      dup5\n        /* \"contracts/cropsFarmer.sol\":9738:9745  tax.mul */\n      tag_450\n      swap1\n        /* \"contracts/cropsFarmer.sol\":9738:9748  tax.mul(1) */\n      swap2\n      swap1\n      0xffffffff\n      and\n      jump\t// in\n    tag_712:\n        /* \"contracts/cropsFarmer.sol\":9728:9733  mktng */\n      dup3\n        /* \"contracts/cropsFarmer.sol\":9728:9737  mktng.add */\n      tag_426\n      swap1\n        /* \"contracts/cropsFarmer.sol\":9728:9749  mktng.add(tax.mul(1)) */\n      swap2\n      swap1\n      0xffffffff\n      and\n      jump\t// in\n    tag_711:\n        /* \"contracts/cropsFarmer.sol\":9721:9749  return mktng.add(tax.mul(1)) */\n      swap3\n      pop\n      pop\n      pop\n        /* \"contracts/cropsFarmer.sol\":9338:9756  function payFees(uint256 eggValue) internal returns(uint256){... */\n      swap2\n      swap1\n      pop\n      jump\t// out\n        /* \"contracts/cropsFarmer.sol\":14050:14153  function min(uint256 a, uint256 b) private pure returns (uint256) {... */\n    tag_620:\n        /* \"contracts/cropsFarmer.sol\":14107:14114  uint256 */\n      0x00\n        /* \"contracts/cropsFarmer.sol\":14137:14138  b */\n      dup2\n        /* \"contracts/cropsFarmer.sol\":14133:14134  a */\n      dup4\n        /* \"contracts/cropsFarmer.sol\":14133:14138  a < b */\n      lt\n        /* \"contracts/cropsFarmer.sol\":14133:14146  a < b ? a : b */\n      tag_714\n      jumpi\n        /* \"contracts/cropsFarmer.sol\":14145:14146  b */\n      dup2\n        /* \"contracts/cropsFarmer.sol\":14133:14146  a < b ? a : b */\n      jump(tag_715)\n    tag_714:\n        /* \"contracts/cropsFarmer.sol\":14141:14142  a */\n      dup3\n        /* \"contracts/cropsFarmer.sol\":14133:14146  a < b ? a : b */\n    tag_715:\n        /* \"contracts/cropsFarmer.sol\":14126:14146  return a < b ? a : b */\n      swap1\n      pop\n        /* \"contracts/cropsFarmer.sol\":14050:14153  function min(uint256 a, uint256 b) private pure returns (uint256) {... */\n      swap3\n      swap2\n      pop\n      pop\n      jump\t// out\n        /* \"#utility.yul\":7:84   */\n    tag_716:\n        /* \"#utility.yul\":44:51   */\n      0x00\n        /* \"#utility.yul\":73:78   */\n      dup2\n        /* \"#utility.yul\":62:78   */\n      swap1\n      pop\n        /* \"#utility.yul\":7:84   */\n      swap2\n      swap1\n      pop\n      jump\t// out\n        /* \"#utility.yul\":90:208   */\n    tag_717:\n        /* \"#utility.yul\":177:201   */\n      tag_761\n        /* \"#utility.yul\":195:200   */\n      dup2\n        /* \"#utility.yul\":177:201   */\n      tag_716\n      jump\t// in\n    tag_761:\n        /* \"#utility.yul\":172:175   */\n      dup3\n        /* \"#utility.yul\":165:202   */\n      mstore\n        /* \"#utility.yul\":90:208   */\n      pop\n      pop\n      jump\t// out\n        /* \"#utility.yul\":214:436   */\n    tag_96:\n        /* \"#utility.yul\":307:311   */\n      0x00\n        /* \"#utility.yul\":345:347   */\n      0x20\n        /* \"#utility.yul\":334:343   */\n      dup3\n        /* \"#utility.yul\":330:348   */\n      add\n        /* \"#utility.yul\":322:348   */\n      swap1\n      pop\n        /* \"#utility.yul\":358:429   */\n      tag_763\n        /* \"#utility.yul\":426:427   */\n      0x00\n        /* \"#utility.yul\":415:424   */\n      dup4\n        /* \"#utility.yul\":411:428   */\n      add\n        /* \"#utility.yul\":402:408   */\n      dup5\n        /* \"#utility.yul\":358:429   */\n      tag_717\n      jump\t// in\n    tag_763:\n        /* \"#utility.yul\":214:436   */\n      swap3\n      swap2\n      pop\n      pop\n      jump\t// out\n        /* \"#utility.yul\":442:568   */\n    tag_718:\n        /* \"#utility.yul\":479:486   */\n      0x00\n        /* \"#utility.yul\":519:561   */\n      0xffffffffffffffffffffffffffffffffffffffff\n        /* \"#utility.yul\":512:517   */\n      dup3\n        /* \"#utility.yul\":508:562   */\n      and\n        /* \"#utility.yul\":497:562   */\n      swap1\n      pop\n        /* \"#utility.yul\":442:568   */\n      swap2\n      swap1\n      pop\n      jump\t// out\n        /* \"#utility.yul\":574:678   */\n    tag_719:\n        /* \"#utility.yul\":619:626   */\n      0x00\n        /* \"#utility.yul\":648:672   */\n      tag_766\n        /* \"#utility.yul\":666:671   */\n      dup3\n        /* \"#utility.yul\":648:672   */\n      tag_718\n      jump\t// in\n    tag_766:\n        /* \"#utility.yul\":637:672   */\n      swap1\n      pop\n        /* \"#utility.yul\":574:678   */\n      swap2\n      swap1\n      pop\n      jump\t// out\n        /* \"#utility.yul\":684:826   */\n    tag_720:\n        /* \"#utility.yul\":787:819   */\n      tag_768\n        /* \"#utility.yul\":813:818   */\n      dup2\n        /* \"#utility.yul\":787:819   */\n      tag_719\n      jump\t// in\n    tag_768:\n        /* \"#utility.yul\":782:785   */\n      dup3\n        /* \"#utility.yul\":775:820   */\n      mstore\n        /* \"#utility.yul\":684:826   */\n      pop\n      pop\n      jump\t// out\n        /* \"#utility.yul\":832:1086   */\n    tag_105:\n        /* \"#utility.yul\":941:945   */\n      0x00\n        /* \"#utility.yul\":979:981   */\n      0x20\n        /* \"#utility.yul\":968:977   */\n      dup3\n        /* \"#utility.yul\":964:982   */\n      add\n        /* \"#utility.yul\":956:982   */\n      swap1\n      pop\n        /* \"#utility.yul\":992:1079   */\n      tag_770\n        /* \"#utility.yul\":1076:1077   */\n      0x00\n        /* \"#utility.yul\":1065:1074   */\n      dup4\n        /* \"#utility.yul\":1061:1078   */\n      add\n        /* \"#utility.yul\":1052:1058   */\n      dup5\n        /* \"#utility.yul\":992:1079   */\n      tag_720\n      jump\t// in\n    tag_770:\n        /* \"#utility.yul\":832:1086   */\n      swap3\n      swap2\n      pop\n      pop\n      jump\t// out\n        /* \"#utility.yul\":1173:1290   */\n    tag_722:\n        /* \"#utility.yul\":1282:1283   */\n      0x00\n        /* \"#utility.yul\":1279:1280   */\n      dup1\n        /* \"#utility.yul\":1272:1284   */\n      revert\n        /* \"#utility.yul\":1296:1413   */\n    tag_723:\n        /* \"#utility.yul\":1405:1406   */\n      0x00\n        /* \"#utility.yul\":1402:1403   */\n      dup1\n        /* \"#utility.yul\":1395:1407   */\n      revert\n        /* \"#utility.yul\":1419:1509   */\n    tag_724:\n        /* \"#utility.yul\":1453:1460   */\n      0x00\n        /* \"#utility.yul\":1496:1501   */\n      dup2\n        /* \"#utility.yul\":1489:1502   */\n      iszero\n        /* \"#utility.yul\":1482:1503   */\n      iszero\n        /* \"#utility.yul\":1471:1503   */\n      swap1\n      pop\n        /* \"#utility.yul\":1419:1509   */\n      swap2\n      swap1\n      pop\n      jump\t// out\n        /* \"#utility.yul\":1515:1631   */\n    tag_725:\n        /* \"#utility.yul\":1585:1606   */\n      tag_776\n        /* \"#utility.yul\":1600:1605   */\n      dup2\n        /* \"#utility.yul\":1585:1606   */\n      tag_724\n      jump\t// in\n    tag_776:\n        /* \"#utility.yul\":1578:1583   */\n      dup2\n        /* \"#utility.yul\":1575:1607   */\n      eq\n        /* \"#utility.yul\":1565:1625   */\n      tag_777\n      jumpi\n        /* \"#utility.yul\":1621:1622   */\n      0x00\n        /* \"#utility.yul\":1618:1619   */\n      dup1\n        /* \"#utility.yul\":1611:1623   */\n      revert\n        /* \"#utility.yul\":1565:1625   */\n    tag_777:\n        /* \"#utility.yul\":1515:1631   */\n      pop\n      jump\t// out\n        /* \"#utility.yul\":1637:1770   */\n    tag_726:\n        /* \"#utility.yul\":1680:1685   */\n      0x00\n        /* \"#utility.yul\":1718:1724   */\n      dup2\n        /* \"#utility.yul\":1705:1725   */\n      calldataload\n        /* \"#utility.yul\":1696:1725   */\n      swap1\n      pop\n        /* \"#utility.yul\":1734:1764   */\n      tag_779\n        /* \"#utility.yul\":1758:1763   */\n      dup2\n        /* \"#utility.yul\":1734:1764   */\n      tag_725\n      jump\t// in\n    tag_779:\n        /* \"#utility.yul\":1637:1770   */\n      swap3\n      swap2\n      pop\n      pop\n      jump\t// out\n        /* \"#utility.yul\":1776:2099   */\n    tag_121:\n        /* \"#utility.yul\":1832:1838   */\n      0x00\n        /* \"#utility.yul\":1881:1883   */\n      0x20\n        /* \"#utility.yul\":1869:1878   */\n      dup3\n        /* \"#utility.yul\":1860:1867   */\n      dup5\n        /* \"#utility.yul\":1856:1879   */\n      sub\n        /* \"#utility.yul\":1852:1884   */\n      slt\n        /* \"#utility.yul\":1849:1968   */\n      iszero\n      tag_781\n      jumpi\n        /* \"#utility.yul\":1887:1966   */\n      tag_782\n      tag_722\n      jump\t// in\n    tag_782:\n        /* \"#utility.yul\":1849:1968   */\n    tag_781:\n        /* \"#utility.yul\":2007:2008   */\n      0x00\n        /* \"#utility.yul\":2032:2082   */\n      tag_783\n        /* \"#utility.yul\":2074:2081   */\n      dup5\n        /* \"#utility.yul\":2065:2071   */\n      dup3\n        /* \"#utility.yul\":2054:2063   */\n      dup6\n        /* \"#utility.yul\":2050:2072   */\n      add\n        /* \"#utility.yul\":2032:2082   */\n      tag_726\n      jump\t// in\n    tag_783:\n        /* \"#utility.yul\":2022:2082   */\n      swap2\n      pop\n        /* \"#utility.yul\":1978:2092   */\n      pop\n        /* \"#utility.yul\":1776:2099   */\n      swap3\n      swap2\n      pop\n      pop\n      jump\t// out\n        /* \"#utility.yul\":2105:2227   */\n    tag_727:\n        /* \"#utility.yul\":2178:2202   */\n      tag_785\n        /* \"#utility.yul\":2196:2201   */\n      dup2\n        /* \"#utility.yul\":2178:2202   */\n      tag_716\n      jump\t// in\n    tag_785:\n        /* \"#utility.yul\":2171:2176   */\n      dup2\n        /* \"#utility.yul\":2168:2203   */\n      eq\n        /* \"#utility.yul\":2158:2221   */\n      tag_786\n      jumpi\n        /* \"#utility.yul\":2217:2218   */\n      0x00\n        /* \"#utility.yul\":2214:2215   */\n      dup1\n        /* \"#utility.yul\":2207:2219   */\n      revert\n        /* \"#utility.yul\":2158:2221   */\n    tag_786:\n        /* \"#utility.yul\":2105:2227   */\n      pop\n      jump\t// out\n        /* \"#utility.yul\":2233:2372   */\n    tag_728:\n        /* \"#utility.yul\":2279:2284   */\n      0x00\n        /* \"#utility.yul\":2317:2323   */\n      dup2\n        /* \"#utility.yul\":2304:2324   */\n      calldataload\n        /* \"#utility.yul\":2295:2324   */\n      swap1\n      pop\n        /* \"#utility.yul\":2333:2366   */\n      tag_788\n        /* \"#utility.yul\":2360:2365   */\n      dup2\n        /* \"#utility.yul\":2333:2366   */\n      tag_727\n      jump\t// in\n    tag_788:\n        /* \"#utility.yul\":2233:2372   */\n      swap3\n      swap2\n      pop\n      pop\n      jump\t// out\n        /* \"#utility.yul\":2378:2707   */\n    tag_130:\n        /* \"#utility.yul\":2437:2443   */\n      0x00\n        /* \"#utility.yul\":2486:2488   */\n      0x20\n        /* \"#utility.yul\":2474:2483   */\n      dup3\n        /* \"#utility.yul\":2465:2472   */\n      dup5\n        /* \"#utility.yul\":2461:2484   */\n      sub\n        /* \"#utility.yul\":2457:2489   */\n      slt\n        /* \"#utility.yul\":2454:2573   */\n      iszero\n      tag_790\n      jumpi\n        /* \"#utility.yul\":2492:2571   */\n      tag_791\n      tag_722\n      jump\t// in\n    tag_791:\n        /* \"#utility.yul\":2454:2573   */\n    tag_790:\n        /* \"#utility.yul\":2612:2613   */\n      0x00\n        /* \"#utility.yul\":2637:2690   */\n      tag_792\n        /* \"#utility.yul\":2682:2689   */\n      dup5\n        /* \"#utility.yul\":2673:2679   */\n      dup3\n        /* \"#utility.yul\":2662:2671   */\n      dup6\n        /* \"#utility.yul\":2658:2680   */\n      add\n        /* \"#utility.yul\":2637:2690   */\n      tag_728\n      jump\t// in\n    tag_792:\n        /* \"#utility.yul\":2627:2690   */\n      swap2\n      pop\n        /* \"#utility.yul\":2583:2700   */\n      pop\n        /* \"#utility.yul\":2378:2707   */\n      swap3\n      swap2\n      pop\n      pop\n      jump\t// out\n        /* \"#utility.yul\":2713:2809   */\n    tag_729:\n        /* \"#utility.yul\":2750:2757   */\n      0x00\n        /* \"#utility.yul\":2779:2803   */\n      tag_794\n        /* \"#utility.yul\":2797:2802   */\n      dup3\n        /* \"#utility.yul\":2779:2803   */\n      tag_718\n      jump\t// in\n    tag_794:\n        /* \"#utility.yul\":2768:2803   */\n      swap1\n      pop\n        /* \"#utility.yul\":2713:2809   */\n      swap2\n      swap1\n      pop\n      jump\t// out\n        /* \"#utility.yul\":2815:2937   */\n    tag_730:\n        /* \"#utility.yul\":2888:2912   */\n      tag_796\n        /* \"#utility.yul\":2906:2911   */\n      dup2\n        /* \"#utility.yul\":2888:2912   */\n      tag_729\n      jump\t// in\n    tag_796:\n        /* \"#utility.yul\":2881:2886   */\n      dup2\n        /* \"#utility.yul\":2878:2913   */\n      eq\n        /* \"#utility.yul\":2868:2931   */\n      tag_797\n      jumpi\n        /* \"#utility.yul\":2927:2928   */\n      0x00\n        /* \"#utility.yul\":2924:2925   */\n      dup1\n        /* \"#utility.yul\":2917:2929   */\n      revert\n        /* \"#utility.yul\":2868:2931   */\n    tag_797:\n        /* \"#utility.yul\":2815:2937   */\n      pop\n      jump\t// out\n        /* \"#utility.yul\":2943:3082   */\n    tag_731:\n        /* \"#utility.yul\":2989:2994   */\n      0x00\n        /* \"#utility.yul\":3027:3033   */\n      dup2\n        /* \"#utility.yul\":3014:3034   */\n      calldataload\n        /* \"#utility.yul\":3005:3034   */\n      swap1\n      pop\n        /* \"#utility.yul\":3043:3076   */\n      tag_799\n        /* \"#utility.yul\":3070:3075   */\n      dup2\n        /* \"#utility.yul\":3043:3076   */\n      tag_730\n      jump\t// in\n    tag_799:\n        /* \"#utility.yul\":2943:3082   */\n      swap3\n      swap2\n      pop\n      pop\n      jump\t// out\n        /* \"#utility.yul\":3088:3417   */\n    tag_135:\n        /* \"#utility.yul\":3147:3153   */\n      0x00\n        /* \"#utility.yul\":3196:3198   */\n      0x20\n        /* \"#utility.yul\":3184:3193   */\n      dup3\n        /* \"#utility.yul\":3175:3182   */\n      dup5\n        /* \"#utility.yul\":3171:3194   */\n      sub\n        /* \"#utility.yul\":3167:3199   */\n      slt\n        /* \"#utility.yul\":3164:3283   */\n      iszero\n      tag_801\n      jumpi\n        /* \"#utility.yul\":3202:3281   */\n      tag_802\n      tag_722\n      jump\t// in\n    tag_802:\n        /* \"#utility.yul\":3164:3283   */\n    tag_801:\n        /* \"#utility.yul\":3322:3323   */\n      0x00\n        /* \"#utility.yul\":3347:3400   */\n      tag_803\n        /* \"#utility.yul\":3392:3399   */\n      dup5\n        /* \"#utility.yul\":3383:3389   */\n      dup3\n        /* \"#utility.yul\":3372:3381   */\n      dup6\n        /* \"#utility.yul\":3368:3390   */\n      add\n        /* \"#utility.yul\":3347:3400   */\n      tag_731\n      jump\t// in\n    tag_803:\n        /* \"#utility.yul\":3337:3400   */\n      swap2\n      pop\n        /* \"#utility.yul\":3293:3410   */\n      pop\n        /* \"#utility.yul\":3088:3417   */\n      swap3\n      swap2\n      pop\n      pop\n      jump\t// out\n        /* \"#utility.yul\":3423:4042   */\n    tag_141:\n        /* \"#utility.yul\":3500:3506   */\n      0x00\n        /* \"#utility.yul\":3508:3514   */\n      dup1\n        /* \"#utility.yul\":3516:3522   */\n      0x00\n        /* \"#utility.yul\":3565:3567   */\n      0x60\n        /* \"#utility.yul\":3553:3562   */\n      dup5\n        /* \"#utility.yul\":3544:3551   */\n      dup7\n        /* \"#utility.yul\":3540:3563   */\n      sub\n        /* \"#utility.yul\":3536:3568   */\n      slt\n        /* \"#utility.yul\":3533:3652   */\n      iszero\n      tag_805\n      jumpi\n        /* \"#utility.yul\":3571:3650   */\n      tag_806\n      tag_722\n      jump\t// in\n    tag_806:\n        /* \"#utility.yul\":3533:3652   */\n    tag_805:\n        /* \"#utility.yul\":3691:3692   */\n      0x00\n        /* \"#utility.yul\":3716:3769   */\n      tag_807\n        /* \"#utility.yul\":3761:3768   */\n      dup7\n        /* \"#utility.yul\":3752:3758   */\n      dup3\n        /* \"#utility.yul\":3741:3750   */\n      dup8\n        /* \"#utility.yul\":3737:3759   */\n      add\n        /* \"#utility.yul\":3716:3769   */\n      tag_728\n      jump\t// in\n    tag_807:\n        /* \"#utility.yul\":3706:3769   */\n      swap4\n      pop\n        /* \"#utility.yul\":3662:3779   */\n      pop\n        /* \"#utility.yul\":3818:3820   */\n      0x20\n        /* \"#utility.yul\":3844:3897   */\n      tag_808\n        /* \"#utility.yul\":3889:3896   */\n      dup7\n        /* \"#utility.yul\":3880:3886   */\n      dup3\n        /* \"#utility.yul\":3869:3878   */\n      dup8\n        /* \"#utility.yul\":3865:3887   */\n      add\n        /* \"#utility.yul\":3844:3897   */\n      tag_728\n      jump\t// in\n    tag_808:\n        /* \"#utility.yul\":3834:3897   */\n      swap3\n      pop\n        /* \"#utility.yul\":3789:3907   */\n      pop\n        /* \"#utility.yul\":3946:3948   */\n      0x40\n        /* \"#utility.yul\":3972:4025   */\n      tag_809\n        /* \"#utility.yul\":4017:4024   */\n      dup7\n        /* \"#utility.yul\":4008:4014   */\n      dup3\n        /* \"#utility.yul\":3997:4006   */\n      dup8\n        /* \"#utility.yul\":3993:4015   */\n      add\n        /* \"#utility.yul\":3972:4025   */\n      tag_728\n      jump\t// in\n    tag_809:\n        /* \"#utility.yul\":3962:4025   */\n      swap2\n      pop\n        /* \"#utility.yul\":3917:4035   */\n      pop\n        /* \"#utility.yul\":3423:4042   */\n      swap3\n      pop\n      swap3\n      pop\n      swap3\n      jump\t// out\n        /* \"#utility.yul\":4048:4522   */\n    tag_151:\n        /* \"#utility.yul\":4116:4122   */\n      0x00\n        /* \"#utility.yul\":4124:4130   */\n      dup1\n        /* \"#utility.yul\":4173:4175   */\n      0x40\n        /* \"#utility.yul\":4161:4170   */\n      dup4\n        /* \"#utility.yul\":4152:4159   */\n      dup6\n        /* \"#utility.yul\":4148:4171   */\n      sub\n        /* \"#utility.yul\":4144:4176   */\n      slt\n        /* \"#utility.yul\":4141:4260   */\n      iszero\n      tag_811\n      jumpi\n        /* \"#utility.yul\":4179:4258   */\n      tag_812\n      tag_722\n      jump\t// in\n    tag_812:\n        /* \"#utility.yul\":4141:4260   */\n    tag_811:\n        /* \"#utility.yul\":4299:4300   */\n      0x00\n        /* \"#utility.yul\":4324:4377   */\n      tag_813\n        /* \"#utility.yul\":4369:4376   */\n      dup6\n        /* \"#utility.yul\":4360:4366   */\n      dup3\n        /* \"#utility.yul\":4349:4358   */\n      dup7\n        /* \"#utility.yul\":4345:4367   */\n      add\n        /* \"#utility.yul\":4324:4377   */\n      tag_728\n      jump\t// in\n    tag_813:\n        /* \"#utility.yul\":4314:4377   */\n      swap3\n      pop\n        /* \"#utility.yul\":4270:4387   */\n      pop\n        /* \"#utility.yul\":4426:4428   */\n      0x20\n        /* \"#utility.yul\":4452:4505   */\n      tag_814\n        /* \"#utility.yul\":4497:4504   */\n      dup6\n        /* \"#utility.yul\":4488:4494   */\n      dup3\n        /* \"#utility.yul\":4477:4486   */\n      dup7\n        /* \"#utility.yul\":4473:4495   */\n      add\n        /* \"#utility.yul\":4452:4505   */\n      tag_728\n      jump\t// in\n    tag_814:\n        /* \"#utility.yul\":4442:4505   */\n      swap2\n      pop\n        /* \"#utility.yul\":4397:4515   */\n      pop\n        /* \"#utility.yul\":4048:4522   */\n      swap3\n      pop\n      swap3\n      swap1\n      pop\n      jump\t// out\n        /* \"#utility.yul\":4528:4637   */\n    tag_732:\n        /* \"#utility.yul\":4609:4630   */\n      tag_816\n        /* \"#utility.yul\":4624:4629   */\n      dup2\n        /* \"#utility.yul\":4609:4630   */\n      tag_724\n      jump\t// in\n    tag_816:\n        /* \"#utility.yul\":4604:4607   */\n      dup3\n        /* \"#utility.yul\":4597:4631   */\n      mstore\n        /* \"#utility.yul\":4528:4637   */\n      pop\n      pop\n      jump\t// out\n        /* \"#utility.yul\":4643:4853   */\n    tag_174:\n        /* \"#utility.yul\":4730:4734   */\n      0x00\n        /* \"#utility.yul\":4768:4770   */\n      0x20\n        /* \"#utility.yul\":4757:4766   */\n      dup3\n        /* \"#utility.yul\":4753:4771   */\n      add\n        /* \"#utility.yul\":4745:4771   */\n      swap1\n      pop\n        /* \"#utility.yul\":4781:4846   */\n      tag_818\n        /* \"#utility.yul\":4843:4844   */\n      0x00\n        /* \"#utility.yul\":4832:4841   */\n      dup4\n        /* \"#utility.yul\":4828:4845   */\n      add\n        /* \"#utility.yul\":4819:4825   */\n      dup5\n        /* \"#utility.yul\":4781:4846   */\n      tag_732\n      jump\t// in\n    tag_818:\n        /* \"#utility.yul\":4643:4853   */\n      swap3\n      swap2\n      pop\n      pop\n      jump\t// out\n        /* \"#utility.yul\":4859:5412   */\n    tag_201:\n        /* \"#utility.yul\":5036:5040   */\n      0x00\n        /* \"#utility.yul\":5074:5077   */\n      0x80\n        /* \"#utility.yul\":5063:5072   */\n      dup3\n        /* \"#utility.yul\":5059:5078   */\n      add\n        /* \"#utility.yul\":5051:5078   */\n      swap1\n      pop\n        /* \"#utility.yul\":5088:5159   */\n      tag_820\n        /* \"#utility.yul\":5156:5157   */\n      0x00\n        /* \"#utility.yul\":5145:5154   */\n      dup4\n        /* \"#utility.yul\":5141:5158   */\n      add\n        /* \"#utility.yul\":5132:5138   */\n      dup8\n        /* \"#utility.yul\":5088:5159   */\n      tag_717\n      jump\t// in\n    tag_820:\n        /* \"#utility.yul\":5169:5241   */\n      tag_821\n        /* \"#utility.yul\":5237:5239   */\n      0x20\n        /* \"#utility.yul\":5226:5235   */\n      dup4\n        /* \"#utility.yul\":5222:5240   */\n      add\n        /* \"#utility.yul\":5213:5219   */\n      dup7\n        /* \"#utility.yul\":5169:5241   */\n      tag_717\n      jump\t// in\n    tag_821:\n        /* \"#utility.yul\":5251:5323   */\n      tag_822\n        /* \"#utility.yul\":5319:5321   */\n      0x40\n        /* \"#utility.yul\":5308:5317   */\n      dup4\n        /* \"#utility.yul\":5304:5322   */\n      add\n        /* \"#utility.yul\":5295:5301   */\n      dup6\n        /* \"#utility.yul\":5251:5323   */\n      tag_717\n      jump\t// in\n    tag_822:\n        /* \"#utility.yul\":5333:5405   */\n      tag_823\n        /* \"#utility.yul\":5401:5403   */\n      0x60\n        /* \"#utility.yul\":5390:5399   */\n      dup4\n        /* \"#utility.yul\":5386:5404   */\n      add\n        /* \"#utility.yul\":5377:5383   */\n      dup5\n        /* \"#utility.yul\":5333:5405   */\n      tag_717\n      jump\t// in\n    tag_823:\n        /* \"#utility.yul\":4859:5412   */\n      swap6\n      swap5\n      pop\n      pop\n      pop\n      pop\n      pop\n      jump\t// out\n        /* \"#utility.yul\":5418:5892   */\n    tag_205:\n        /* \"#utility.yul\":5486:5492   */\n      0x00\n        /* \"#utility.yul\":5494:5500   */\n      dup1\n        /* \"#utility.yul\":5543:5545   */\n      0x40\n        /* \"#utility.yul\":5531:5540   */\n      dup4\n        /* \"#utility.yul\":5522:5529   */\n      dup6\n        /* \"#utility.yul\":5518:5541   */\n      sub\n        /* \"#utility.yul\":5514:5546   */\n      slt\n        /* \"#utility.yul\":5511:5630   */\n      iszero\n      tag_825\n      jumpi\n        /* \"#utility.yul\":5549:5628   */\n      tag_826\n      tag_722\n      jump\t// in\n    tag_826:\n        /* \"#utility.yul\":5511:5630   */\n    tag_825:\n        /* \"#utility.yul\":5669:5670   */\n      0x00\n        /* \"#utility.yul\":5694:5747   */\n      tag_827\n        /* \"#utility.yul\":5739:5746   */\n      dup6\n        /* \"#utility.yul\":5730:5736   */\n      dup3\n        /* \"#utility.yul\":5719:5728   */\n      dup7\n        /* \"#utility.yul\":5715:5737   */\n      add\n        /* \"#utility.yul\":5694:5747   */\n      tag_731\n      jump\t// in\n    tag_827:\n        /* \"#utility.yul\":5684:5747   */\n      swap3\n      pop\n        /* \"#utility.yul\":5640:5757   */\n      pop\n        /* \"#utility.yul\":5796:5798   */\n      0x20\n        /* \"#utility.yul\":5822:5875   */\n      tag_828\n        /* \"#utility.yul\":5867:5874   */\n      dup6\n        /* \"#utility.yul\":5858:5864   */\n      dup3\n        /* \"#utility.yul\":5847:5856   */\n      dup7\n        /* \"#utility.yul\":5843:5865   */\n      add\n        /* \"#utility.yul\":5822:5875   */\n      tag_728\n      jump\t// in\n    tag_828:\n        /* \"#utility.yul\":5812:5875   */\n      swap2\n      pop\n        /* \"#utility.yul\":5767:5885   */\n      pop\n        /* \"#utility.yul\":5418:5892   */\n      swap3\n      pop\n      swap3\n      swap1\n      pop\n      jump\t// out\n        /* \"#utility.yul\":5898:6016   */\n    tag_733:\n        /* \"#utility.yul\":5985:6009   */\n      tag_830\n        /* \"#utility.yul\":6003:6008   */\n      dup2\n        /* \"#utility.yul\":5985:6009   */\n      tag_729\n      jump\t// in\n    tag_830:\n        /* \"#utility.yul\":5980:5983   */\n      dup3\n        /* \"#utility.yul\":5973:6010   */\n      mstore\n        /* \"#utility.yul\":5898:6016   */\n      pop\n      pop\n      jump\t// out\n        /* \"#utility.yul\":6022:7467   */\n    tag_227:\n        /* \"#utility.yul\":6425:6429   */\n      0x00\n        /* \"#utility.yul\":6463:6466   */\n      0x0180\n        /* \"#utility.yul\":6452:6461   */\n      dup3\n        /* \"#utility.yul\":6448:6467   */\n      add\n        /* \"#utility.yul\":6440:6467   */\n      swap1\n      pop\n        /* \"#utility.yul\":6477:6548   */\n      tag_832\n        /* \"#utility.yul\":6545:6546   */\n      0x00\n        /* \"#utility.yul\":6534:6543   */\n      dup4\n        /* \"#utility.yul\":6530:6547   */\n      add\n        /* \"#utility.yul\":6521:6527   */\n      dup16\n        /* \"#utility.yul\":6477:6548   */\n      tag_717\n      jump\t// in\n    tag_832:\n        /* \"#utility.yul\":6558:6630   */\n      tag_833\n        /* \"#utility.yul\":6626:6628   */\n      0x20\n        /* \"#utility.yul\":6615:6624   */\n      dup4\n        /* \"#utility.yul\":6611:6629   */\n      add\n        /* \"#utility.yul\":6602:6608   */\n      dup15\n        /* \"#utility.yul\":6558:6630   */\n      tag_717\n      jump\t// in\n    tag_833:\n        /* \"#utility.yul\":6640:6712   */\n      tag_834\n        /* \"#utility.yul\":6708:6710   */\n      0x40\n        /* \"#utility.yul\":6697:6706   */\n      dup4\n        /* \"#utility.yul\":6693:6711   */\n      add\n        /* \"#utility.yul\":6684:6690   */\n      dup14\n        /* \"#utility.yul\":6640:6712   */\n      tag_717\n      jump\t// in\n    tag_834:\n        /* \"#utility.yul\":6722:6794   */\n      tag_835\n        /* \"#utility.yul\":6790:6792   */\n      0x60\n        /* \"#utility.yul\":6779:6788   */\n      dup4\n        /* \"#utility.yul\":6775:6793   */\n      add\n        /* \"#utility.yul\":6766:6772   */\n      dup13\n        /* \"#utility.yul\":6722:6794   */\n      tag_717\n      jump\t// in\n    tag_835:\n        /* \"#utility.yul\":6804:6877   */\n      tag_836\n        /* \"#utility.yul\":6872:6875   */\n      0x80\n        /* \"#utility.yul\":6861:6870   */\n      dup4\n        /* \"#utility.yul\":6857:6876   */\n      add\n        /* \"#utility.yul\":6848:6854   */\n      dup12\n        /* \"#utility.yul\":6804:6877   */\n      tag_717\n      jump\t// in\n    tag_836:\n        /* \"#utility.yul\":6887:6960   */\n      tag_837\n        /* \"#utility.yul\":6955:6958   */\n      0xa0\n        /* \"#utility.yul\":6944:6953   */\n      dup4\n        /* \"#utility.yul\":6940:6959   */\n      add\n        /* \"#utility.yul\":6931:6937   */\n      dup11\n        /* \"#utility.yul\":6887:6960   */\n      tag_733\n      jump\t// in\n    tag_837:\n        /* \"#utility.yul\":6970:7043   */\n      tag_838\n        /* \"#utility.yul\":7038:7041   */\n      0xc0\n        /* \"#utility.yul\":7027:7036   */\n      dup4\n        /* \"#utility.yul\":7023:7042   */\n      add\n        /* \"#utility.yul\":7014:7020   */\n      dup10\n        /* \"#utility.yul\":6970:7043   */\n      tag_717\n      jump\t// in\n    tag_838:\n        /* \"#utility.yul\":7053:7126   */\n      tag_839\n        /* \"#utility.yul\":7121:7124   */\n      0xe0\n        /* \"#utility.yul\":7110:7119   */\n      dup4\n        /* \"#utility.yul\":7106:7125   */\n      add\n        /* \"#utility.yul\":7097:7103   */\n      dup9\n        /* \"#utility.yul\":7053:7126   */\n      tag_717\n      jump\t// in\n    tag_839:\n        /* \"#utility.yul\":7136:7209   */\n      tag_840\n        /* \"#utility.yul\":7204:7207   */\n      0x0100\n        /* \"#utility.yul\":7193:7202   */\n      dup4\n        /* \"#utility.yul\":7189:7208   */\n      add\n        /* \"#utility.yul\":7180:7186   */\n      dup8\n        /* \"#utility.yul\":7136:7209   */\n      tag_717\n      jump\t// in\n    tag_840:\n        /* \"#utility.yul\":7219:7292   */\n      tag_841\n        /* \"#utility.yul\":7287:7290   */\n      0x0120\n        /* \"#utility.yul\":7276:7285   */\n      dup4\n        /* \"#utility.yul\":7272:7291   */\n      add\n        /* \"#utility.yul\":7263:7269   */\n      dup7\n        /* \"#utility.yul\":7219:7292   */\n      tag_717\n      jump\t// in\n    tag_841:\n        /* \"#utility.yul\":7302:7376   */\n      tag_842\n        /* \"#utility.yul\":7371:7374   */\n      0x0140\n        /* \"#utility.yul\":7360:7369   */\n      dup4\n        /* \"#utility.yul\":7356:7375   */\n      add\n        /* \"#utility.yul\":7346:7353   */\n      dup6\n        /* \"#utility.yul\":7302:7376   */\n      tag_717\n      jump\t// in\n    tag_842:\n        /* \"#utility.yul\":7386:7460   */\n      tag_843\n        /* \"#utility.yul\":7455:7458   */\n      0x0160\n        /* \"#utility.yul\":7444:7453   */\n      dup4\n        /* \"#utility.yul\":7440:7459   */\n      add\n        /* \"#utility.yul\":7430:7437   */\n      dup5\n        /* \"#utility.yul\":7386:7460   */\n      tag_717\n      jump\t// in\n    tag_843:\n        /* \"#utility.yul\":6022:7467   */\n      swap14\n      swap13\n      pop\n      pop\n      pop\n      pop\n      pop\n      pop\n      pop\n      pop\n      pop\n      pop\n      pop\n      pop\n      pop\n      jump\t// out\n        /* \"#utility.yul\":7473:7695   */\n    tag_294:\n        /* \"#utility.yul\":7566:7570   */\n      0x00\n        /* \"#utility.yul\":7604:7606   */\n      0x20\n        /* \"#utility.yul\":7593:7602   */\n      dup3\n        /* \"#utility.yul\":7589:7607   */\n      add\n        /* \"#utility.yul\":7581:7607   */\n      swap1\n      pop\n        /* \"#utility.yul\":7617:7688   */\n      tag_845\n        /* \"#utility.yul\":7685:7686   */\n      0x00\n        /* \"#utility.yul\":7674:7683   */\n      dup4\n        /* \"#utility.yul\":7670:7687   */\n      add\n        /* \"#utility.yul\":7661:7667   */\n      dup5\n        /* \"#utility.yul\":7617:7688   */\n      tag_733\n      jump\t// in\n    tag_845:\n        /* \"#utility.yul\":7473:7695   */\n      swap3\n      swap2\n      pop\n      pop\n      jump\t// out\n        /* \"#utility.yul\":7701:8033   */\n    tag_346:\n        /* \"#utility.yul\":7822:7826   */\n      0x00\n        /* \"#utility.yul\":7860:7862   */\n      0x40\n        /* \"#utility.yul\":7849:7858   */\n      dup3\n        /* \"#utility.yul\":7845:7863   */\n      add\n        /* \"#utility.yul\":7837:7863   */\n      swap1\n      pop\n        /* \"#utility.yul\":7873:7944   */\n      tag_847\n        /* \"#utility.yul\":7941:7942   */\n      0x00\n        /* \"#utility.yul\":7930:7939   */\n      dup4\n        /* \"#utility.yul\":7926:7943   */\n      add\n        /* \"#utility.yul\":7917:7923   */\n      dup6\n        /* \"#utility.yul\":7873:7944   */\n      tag_717\n      jump\t// in\n    tag_847:\n        /* \"#utility.yul\":7954:8026   */\n      tag_848\n        /* \"#utility.yul\":8022:8024   */\n      0x20\n        /* \"#utility.yul\":8011:8020   */\n      dup4\n        /* \"#utility.yul\":8007:8025   */\n      add\n        /* \"#utility.yul\":7998:8004   */\n      dup5\n        /* \"#utility.yul\":7954:8026   */\n      tag_717\n      jump\t// in\n    tag_848:\n        /* \"#utility.yul\":7701:8033   */\n      swap4\n      swap3\n      pop\n      pop\n      pop\n      jump\t// out\n        /* \"#utility.yul\":8039:8507   */\n    tag_385:\n        /* \"#utility.yul\":8104:8110   */\n      0x00\n        /* \"#utility.yul\":8112:8118   */\n      dup1\n        /* \"#utility.yul\":8161:8163   */\n      0x40\n        /* \"#utility.yul\":8149:8158   */\n      dup4\n        /* \"#utility.yul\":8140:8147   */\n      dup6\n        /* \"#utility.yul\":8136:8159   */\n      sub\n        /* \"#utility.yul\":8132:8164   */\n      slt\n        /* \"#utility.yul\":8129:8248   */\n      iszero\n      tag_850\n      jumpi\n        /* \"#utility.yul\":8167:8246   */\n      tag_851\n      tag_722\n      jump\t// in\n    tag_851:\n        /* \"#utility.yul\":8129:8248   */\n    tag_850:\n        /* \"#utility.yul\":8287:8288   */\n      0x00\n        /* \"#utility.yul\":8312:8365   */\n      tag_852\n        /* \"#utility.yul\":8357:8364   */\n      dup6\n        /* \"#utility.yul\":8348:8354   */\n      dup3\n        /* \"#utility.yul\":8337:8346   */\n      dup7\n        /* \"#utility.yul\":8333:8355   */\n      add\n        /* \"#utility.yul\":8312:8365   */\n      tag_731\n      jump\t// in\n    tag_852:\n        /* \"#utility.yul\":8302:8365   */\n      swap3\n      pop\n        /* \"#utility.yul\":8258:8375   */\n      pop\n        /* \"#utility.yul\":8414:8416   */\n      0x20\n        /* \"#utility.yul\":8440:8490   */\n      tag_853\n        /* \"#utility.yul\":8482:8489   */\n      dup6\n        /* \"#utility.yul\":8473:8479   */\n      dup3\n        /* \"#utility.yul\":8462:8471   */\n      dup7\n        /* \"#utility.yul\":8458:8480   */\n      add\n        /* \"#utility.yul\":8440:8490   */\n      tag_726\n      jump\t// in\n    tag_853:\n        /* \"#utility.yul\":8430:8490   */\n      swap2\n      pop\n        /* \"#utility.yul\":8385:8500   */\n      pop\n        /* \"#utility.yul\":8039:8507   */\n      swap3\n      pop\n      swap3\n      swap1\n      pop\n      jump\t// out\n        /* \"#utility.yul\":8513:8630   */\n    tag_734:\n        /* \"#utility.yul\":8622:8623   */\n      0x00\n        /* \"#utility.yul\":8619:8620   */\n      dup1\n        /* \"#utility.yul\":8612:8624   */\n      revert\n        /* \"#utility.yul\":8636:8753   */\n    tag_735:\n        /* \"#utility.yul\":8745:8746   */\n      0x00\n        /* \"#utility.yul\":8742:8743   */\n      dup1\n        /* \"#utility.yul\":8735:8747   */\n      revert\n        /* \"#utility.yul\":8759:8876   */\n    tag_736:\n        /* \"#utility.yul\":8868:8869   */\n      0x00\n        /* \"#utility.yul\":8865:8866   */\n      dup1\n        /* \"#utility.yul\":8858:8870   */\n      revert\n        /* \"#utility.yul\":8899:9467   */\n    tag_737:\n        /* \"#utility.yul\":8972:8980   */\n      0x00\n        /* \"#utility.yul\":8982:8988   */\n      dup1\n        /* \"#utility.yul\":9032:9035   */\n      dup4\n        /* \"#utility.yul\":9025:9029   */\n      0x1f\n        /* \"#utility.yul\":9017:9023   */\n      dup5\n        /* \"#utility.yul\":9013:9030   */\n      add\n        /* \"#utility.yul\":9009:9036   */\n      slt\n        /* \"#utility.yul\":8999:9121   */\n      tag_858\n      jumpi\n        /* \"#utility.yul\":9040:9119   */\n      tag_859\n      tag_734\n      jump\t// in\n    tag_859:\n        /* \"#utility.yul\":8999:9121   */\n    tag_858:\n        /* \"#utility.yul\":9153:9159   */\n      dup3\n        /* \"#utility.yul\":9140:9160   */\n      calldataload\n        /* \"#utility.yul\":9130:9160   */\n      swap1\n      pop\n        /* \"#utility.yul\":9183:9201   */\n      0xffffffffffffffff\n        /* \"#utility.yul\":9175:9181   */\n      dup2\n        /* \"#utility.yul\":9172:9202   */\n      gt\n        /* \"#utility.yul\":9169:9286   */\n      iszero\n      tag_860\n      jumpi\n        /* \"#utility.yul\":9205:9284   */\n      tag_861\n      tag_735\n      jump\t// in\n    tag_861:\n        /* \"#utility.yul\":9169:9286   */\n    tag_860:\n        /* \"#utility.yul\":9319:9323   */\n      0x20\n        /* \"#utility.yul\":9311:9317   */\n      dup4\n        /* \"#utility.yul\":9307:9324   */\n      add\n        /* \"#utility.yul\":9295:9324   */\n      swap2\n      pop\n        /* \"#utility.yul\":9373:9376   */\n      dup4\n        /* \"#utility.yul\":9365:9369   */\n      0x20\n        /* \"#utility.yul\":9357:9363   */\n      dup3\n        /* \"#utility.yul\":9353:9370   */\n      mul\n        /* \"#utility.yul\":9343:9351   */\n      dup4\n        /* \"#utility.yul\":9339:9371   */\n      add\n        /* \"#utility.yul\":9336:9377   */\n      gt\n        /* \"#utility.yul\":9333:9461   */\n      iszero\n      tag_862\n      jumpi\n        /* \"#utility.yul\":9380:9459   */\n      tag_863\n      tag_736\n      jump\t// in\n    tag_863:\n        /* \"#utility.yul\":9333:9461   */\n    tag_862:\n        /* \"#utility.yul\":8899:9467   */\n      swap3\n      pop\n      swap3\n      swap1\n      pop\n      jump\t// out\n        /* \"#utility.yul\":9473:10171   */\n    tag_405:\n        /* \"#utility.yul\":9565:9571   */\n      0x00\n        /* \"#utility.yul\":9573:9579   */\n      dup1\n        /* \"#utility.yul\":9581:9587   */\n      0x00\n        /* \"#utility.yul\":9630:9632   */\n      0x40\n        /* \"#utility.yul\":9618:9627   */\n      dup5\n        /* \"#utility.yul\":9609:9616   */\n      dup7\n        /* \"#utility.yul\":9605:9628   */\n      sub\n        /* \"#utility.yul\":9601:9633   */\n      slt\n        /* \"#utility.yul\":9598:9717   */\n      iszero\n      tag_865\n      jumpi\n        /* \"#utility.yul\":9636:9715   */\n      tag_866\n      tag_722\n      jump\t// in\n    tag_866:\n        /* \"#utility.yul\":9598:9717   */\n    tag_865:\n        /* \"#utility.yul\":9784:9785   */\n      0x00\n        /* \"#utility.yul\":9773:9782   */\n      dup5\n        /* \"#utility.yul\":9769:9786   */\n      add\n        /* \"#utility.yul\":9756:9787   */\n      calldataload\n        /* \"#utility.yul\":9814:9832   */\n      0xffffffffffffffff\n        /* \"#utility.yul\":9806:9812   */\n      dup2\n        /* \"#utility.yul\":9803:9833   */\n      gt\n        /* \"#utility.yul\":9800:9917   */\n      iszero\n      tag_867\n      jumpi\n        /* \"#utility.yul\":9836:9915   */\n      tag_868\n      tag_723\n      jump\t// in\n    tag_868:\n        /* \"#utility.yul\":9800:9917   */\n    tag_867:\n        /* \"#utility.yul\":9949:10029   */\n      tag_869\n        /* \"#utility.yul\":10021:10028   */\n      dup7\n        /* \"#utility.yul\":10012:10018   */\n      dup3\n        /* \"#utility.yul\":10001:10010   */\n      dup8\n        /* \"#utility.yul\":9997:10019   */\n      add\n        /* \"#utility.yul\":9949:10029   */\n      tag_737\n      jump\t// in\n    tag_869:\n        /* \"#utility.yul\":9931:10029   */\n      swap4\n      pop\n      swap4\n      pop\n        /* \"#utility.yul\":9727:10039   */\n      pop\n        /* \"#utility.yul\":10078:10080   */\n      0x20\n        /* \"#utility.yul\":10104:10154   */\n      tag_870\n        /* \"#utility.yul\":10146:10153   */\n      dup7\n        /* \"#utility.yul\":10137:10143   */\n      dup3\n        /* \"#utility.yul\":10126:10135   */\n      dup8\n        /* \"#utility.yul\":10122:10144   */\n      add\n        /* \"#utility.yul\":10104:10154   */\n      tag_726\n      jump\t// in\n    tag_870:\n        /* \"#utility.yul\":10094:10154   */\n      swap2\n      pop\n        /* \"#utility.yul\":10049:10164   */\n      pop\n        /* \"#utility.yul\":9473:10171   */\n      swap3\n      pop\n      swap3\n      pop\n      swap3\n      jump\t// out\n        /* \"#utility.yul\":10177:10346   */\n    tag_738:\n        /* \"#utility.yul\":10261:10272   */\n      0x00\n        /* \"#utility.yul\":10295:10301   */\n      dup3\n        /* \"#utility.yul\":10290:10293   */\n      dup3\n        /* \"#utility.yul\":10283:10302   */\n      mstore\n        /* \"#utility.yul\":10335:10339   */\n      0x20\n        /* \"#utility.yul\":10330:10333   */\n      dup3\n        /* \"#utility.yul\":10326:10340   */\n      add\n        /* \"#utility.yul\":10311:10340   */\n      swap1\n      pop\n        /* \"#utility.yul\":10177:10346   */\n      swap3\n      swap2\n      pop\n      pop\n      jump\t// out\n        /* \"#utility.yul\":10352:10527   */\n    tag_739:\n        /* \"#utility.yul\":10492:10519   */\n      0x436f6e7472616374206e6f742079657420537461727465642e00000000000000\n        /* \"#utility.yul\":10488:10489   */\n      0x00\n        /* \"#utility.yul\":10480:10486   */\n      dup3\n        /* \"#utility.yul\":10476:10490   */\n      add\n        /* \"#utility.yul\":10469:10520   */\n      mstore\n        /* \"#utility.yul\":10352:10527   */\n      pop\n      jump\t// out\n        /* \"#utility.yul\":10533:10899   */\n    tag_740:\n        /* \"#utility.yul\":10675:10678   */\n      0x00\n        /* \"#utility.yul\":10696:10763   */\n      tag_874\n        /* \"#utility.yul\":10760:10762   */\n      0x19\n        /* \"#utility.yul\":10755:10758   */\n      dup4\n        /* \"#utility.yul\":10696:10763   */\n      tag_738\n      jump\t// in\n    tag_874:\n        /* \"#utility.yul\":10689:10763   */\n      swap2\n      pop\n        /* \"#utility.yul\":10772:10865   */\n      tag_875\n        /* \"#utility.yul\":10861:10864   */\n      dup3\n        /* \"#utility.yul\":10772:10865   */\n      tag_739\n      jump\t// in\n    tag_875:\n        /* \"#utility.yul\":10890:10892   */\n      0x20\n        /* \"#utility.yul\":10885:10888   */\n      dup3\n        /* \"#utility.yul\":10881:10893   */\n      add\n        /* \"#utility.yul\":10874:10893   */\n      swap1\n      pop\n        /* \"#utility.yul\":10533:10899   */\n      swap2\n      swap1\n      pop\n      jump\t// out\n        /* \"#utility.yul\":10905:11324   */\n    tag_421:\n        /* \"#utility.yul\":11071:11075   */\n      0x00\n        /* \"#utility.yul\":11109:11111   */\n      0x20\n        /* \"#utility.yul\":11098:11107   */\n      dup3\n        /* \"#utility.yul\":11094:11112   */\n      add\n        /* \"#utility.yul\":11086:11112   */\n      swap1\n      pop\n        /* \"#utility.yul\":11158:11167   */\n      dup2\n        /* \"#utility.yul\":11152:11156   */\n      dup2\n        /* \"#utility.yul\":11148:11168   */\n      sub\n        /* \"#utility.yul\":11144:11145   */\n      0x00\n        /* \"#utility.yul\":11133:11142   */\n      dup4\n        /* \"#utility.yul\":11129:11146   */\n      add\n        /* \"#utility.yul\":11122:11169   */\n      mstore\n        /* \"#utility.yul\":11186:11317   */\n      tag_877\n        /* \"#utility.yul\":11312:11316   */\n      dup2\n        /* \"#utility.yul\":11186:11317   */\n      tag_740\n      jump\t// in\n    tag_877:\n        /* \"#utility.yul\":11178:11317   */\n      swap1\n      pop\n        /* \"#utility.yul\":10905:11324   */\n      swap2\n      swap1\n      pop\n      jump\t// out\n        /* \"#utility.yul\":11330:11495   */\n    tag_741:\n        /* \"#utility.yul\":11470:11487   */\n      0x41646d696e20757365206f6e6c792e0000000000000000000000000000000000\n        /* \"#utility.yul\":11466:11467   */\n      0x00\n        /* \"#utility.yul\":11458:11464   */\n      dup3\n        /* \"#utility.yul\":11454:11468   */\n      add\n        /* \"#utility.yul\":11447:11488   */\n      mstore\n        /* \"#utility.yul\":11330:11495   */\n      pop\n      jump\t// out\n        /* \"#utility.yul\":11501:11867   */\n    tag_742:\n        /* \"#utility.yul\":11643:11646   */\n      0x00\n        /* \"#utility.yul\":11664:11731   */\n      tag_880\n        /* \"#utility.yul\":11728:11730   */\n      0x0f\n        /* \"#utility.yul\":11723:11726   */\n      dup4\n        /* \"#utility.yul\":11664:11731   */\n      tag_738\n      jump\t// in\n    tag_880:\n        /* \"#utility.yul\":11657:11731   */\n      swap2\n      pop\n        /* \"#utility.yul\":11740:11833   */\n      tag_881\n        /* \"#utility.yul\":11829:11832   */\n      dup3\n        /* \"#utility.yul\":11740:11833   */\n      tag_741\n      jump\t// in\n    tag_881:\n        /* \"#utility.yul\":11858:11860   */\n      0x20\n        /* \"#utility.yul\":11853:11856   */\n      dup3\n        /* \"#utility.yul\":11849:11861   */\n      add\n        /* \"#utility.yul\":11842:11861   */\n      swap1\n      pop\n        /* \"#utility.yul\":11501:11867   */\n      swap2\n      swap1\n      pop\n      jump\t// out\n        /* \"#utility.yul\":11873:12292   */\n    tag_445:\n        /* \"#utility.yul\":12039:12043   */\n      0x00\n        /* \"#utility.yul\":12077:12079   */\n      0x20\n        /* \"#utility.yul\":12066:12075   */\n      dup3\n        /* \"#utility.yul\":12062:12080   */\n      add\n        /* \"#utility.yul\":12054:12080   */\n      swap1\n      pop\n        /* \"#utility.yul\":12126:12135   */\n      dup2\n        /* \"#utility.yul\":12120:12124   */\n      dup2\n        /* \"#utility.yul\":12116:12136   */\n      sub\n        /* \"#utility.yul\":12112:12113   */\n      0x00\n        /* \"#utility.yul\":12101:12110   */\n      dup4\n        /* \"#utility.yul\":12097:12114   */\n      add\n        /* \"#utility.yul\":12090:12137   */\n      mstore\n        /* \"#utility.yul\":12154:12285   */\n      tag_883\n        /* \"#utility.yul\":12280:12284   */\n      dup2\n        /* \"#utility.yul\":12154:12285   */\n      tag_742\n      jump\t// in\n    tag_883:\n        /* \"#utility.yul\":12146:12285   */\n      swap1\n      pop\n        /* \"#utility.yul\":11873:12292   */\n      swap2\n      swap1\n      pop\n      jump\t// out\n        /* \"#utility.yul\":12298:12445   */\n    tag_743:\n        /* \"#utility.yul\":12399:12410   */\n      0x00\n        /* \"#utility.yul\":12436:12439   */\n      dup2\n        /* \"#utility.yul\":12421:12439   */\n      swap1\n      pop\n        /* \"#utility.yul\":12298:12445   */\n      swap3\n      swap2\n      pop\n      pop\n      jump\t// out\n        /* \"#utility.yul\":12451:12565   */\n    tag_744:\n      pop\n      jump\t// out\n        /* \"#utility.yul\":12571:12969   */\n    tag_745:\n        /* \"#utility.yul\":12730:12733   */\n      0x00\n        /* \"#utility.yul\":12751:12834   */\n      tag_887\n        /* \"#utility.yul\":12832:12833   */\n      0x00\n        /* \"#utility.yul\":12827:12830   */\n      dup4\n        /* \"#utility.yul\":12751:12834   */\n      tag_743\n      jump\t// in\n    tag_887:\n        /* \"#utility.yul\":12744:12834   */\n      swap2\n      pop\n        /* \"#utility.yul\":12843:12936   */\n      tag_888\n        /* \"#utility.yul\":12932:12935   */\n      dup3\n        /* \"#utility.yul\":12843:12936   */\n      tag_744\n      jump\t// in\n    tag_888:\n        /* \"#utility.yul\":12961:12962   */\n      0x00\n        /* \"#utility.yul\":12956:12959   */\n      dup3\n        /* \"#utility.yul\":12952:12963   */\n      add\n        /* \"#utility.yul\":12945:12963   */\n      swap1\n      pop\n        /* \"#utility.yul\":12571:12969   */\n      swap2\n      swap1\n      pop\n      jump\t// out\n        /* \"#utility.yul\":12975:13354   */\n    tag_469:\n        /* \"#utility.yul\":13159:13162   */\n      0x00\n        /* \"#utility.yul\":13181:13328   */\n      tag_890\n        /* \"#utility.yul\":13324:13327   */\n      dup3\n        /* \"#utility.yul\":13181:13328   */\n      tag_745\n      jump\t// in\n    tag_890:\n        /* \"#utility.yul\":13174:13328   */\n      swap2\n      pop\n        /* \"#utility.yul\":13345:13348   */\n      dup2\n        /* \"#utility.yul\":13338:13348   */\n      swap1\n      pop\n        /* \"#utility.yul\":12975:13354   */\n      swap2\n      swap1\n      pop\n      jump\t// out\n        /* \"#utility.yul\":13360:13524   */\n    tag_746:\n        /* \"#utility.yul\":13500:13516   */\n      0x41646d696e20757365206f6e6c79000000000000000000000000000000000000\n        /* \"#utility.yul\":13496:13497   */\n      0x00\n        /* \"#utility.yul\":13488:13494   */\n      dup3\n        /* \"#utility.yul\":13484:13498   */\n      add\n        /* \"#utility.yul\":13477:13517   */\n      mstore\n        /* \"#utility.yul\":13360:13524   */\n      pop\n      jump\t// out\n        /* \"#utility.yul\":13530:13896   */\n    tag_747:\n        /* \"#utility.yul\":13672:13675   */\n      0x00\n        /* \"#utility.yul\":13693:13760   */\n      tag_893\n        /* \"#utility.yul\":13757:13759   */\n      0x0e\n        /* \"#utility.yul\":13752:13755   */\n      dup4\n        /* \"#utility.yul\":13693:13760   */\n      tag_738\n      jump\t// in\n    tag_893:\n        /* \"#utility.yul\":13686:13760   */\n      swap2\n      pop\n        /* \"#utility.yul\":13769:13862   */\n      tag_894\n        /* \"#utility.yul\":13858:13861   */\n      dup3\n        /* \"#utility.yul\":13769:13862   */\n      tag_746\n      jump\t// in\n    tag_894:\n        /* \"#utility.yul\":13887:13889   */\n      0x20\n        /* \"#utility.yul\":13882:13885   */\n      dup3\n        /* \"#utility.yul\":13878:13890   */\n      add\n        /* \"#utility.yul\":13871:13890   */\n      swap1\n      pop\n        /* \"#utility.yul\":13530:13896   */\n      swap2\n      swap1\n      pop\n      jump\t// out\n        /* \"#utility.yul\":13902:14321   */\n    tag_480:\n        /* \"#utility.yul\":14068:14072   */\n      0x00\n        /* \"#utility.yul\":14106:14108   */\n      0x20\n        /* \"#utility.yul\":14095:14104   */\n      dup3\n        /* \"#utility.yul\":14091:14109   */\n      add\n        /* \"#utility.yul\":14083:14109   */\n      swap1\n      pop\n        /* \"#utility.yul\":14155:14164   */\n      dup2\n        /* \"#utility.yul\":14149:14153   */\n      dup2\n        /* \"#utility.yul\":14145:14165   */\n      sub\n        /* \"#utility.yul\":14141:14142   */\n      0x00\n        /* \"#utility.yul\":14130:14139   */\n      dup4\n        /* \"#utility.yul\":14126:14143   */\n      add\n        /* \"#utility.yul\":14119:14166   */\n      mstore\n        /* \"#utility.yul\":14183:14314   */\n      tag_896\n        /* \"#utility.yul\":14309:14313   */\n      dup2\n        /* \"#utility.yul\":14183:14314   */\n      tag_747\n      jump\t// in\n    tag_896:\n        /* \"#utility.yul\":14175:14314   */\n      swap1\n      pop\n        /* \"#utility.yul\":13902:14321   */\n      swap2\n      swap1\n      pop\n      jump\t// out\n        /* \"#utility.yul\":14327:14507   */\n    tag_748:\n        /* \"#utility.yul\":14375:14452   */\n      0x4e487b7100000000000000000000000000000000000000000000000000000000\n        /* \"#utility.yul\":14372:14373   */\n      0x00\n        /* \"#utility.yul\":14365:14453   */\n      mstore\n        /* \"#utility.yul\":14472:14476   */\n      0x11\n        /* \"#utility.yul\":14469:14470   */\n      0x04\n        /* \"#utility.yul\":14462:14477   */\n      mstore\n        /* \"#utility.yul\":14496:14500   */\n      0x24\n        /* \"#utility.yul\":14493:14494   */\n      0x00\n        /* \"#utility.yul\":14486:14501   */\n      revert\n        /* \"#utility.yul\":14513:14861   */\n    tag_483:\n        /* \"#utility.yul\":14553:14560   */\n      0x00\n        /* \"#utility.yul\":14576:14596   */\n      tag_899\n        /* \"#utility.yul\":14594:14595   */\n      dup3\n        /* \"#utility.yul\":14576:14596   */\n      tag_716\n      jump\t// in\n    tag_899:\n        /* \"#utility.yul\":14571:14596   */\n      swap2\n      pop\n        /* \"#utility.yul\":14610:14630   */\n      tag_900\n        /* \"#utility.yul\":14628:14629   */\n      dup4\n        /* \"#utility.yul\":14610:14630   */\n      tag_716\n      jump\t// in\n    tag_900:\n        /* \"#utility.yul\":14605:14630   */\n      swap3\n      pop\n        /* \"#utility.yul\":14798:14799   */\n      dup2\n        /* \"#utility.yul\":14730:14796   */\n      0xffffffffffffffffffffffffffffffffffffffffffffffffffffffffffffffff\n        /* \"#utility.yul\":14726:14800   */\n      div\n        /* \"#utility.yul\":14723:14724   */\n      dup4\n        /* \"#utility.yul\":14720:14801   */\n      gt\n        /* \"#utility.yul\":14715:14716   */\n      dup3\n        /* \"#utility.yul\":14708:14717   */\n      iszero\n        /* \"#utility.yul\":14701:14718   */\n      iszero\n        /* \"#utility.yul\":14697:14802   */\n      and\n        /* \"#utility.yul\":14694:14825   */\n      iszero\n      tag_901\n      jumpi\n        /* \"#utility.yul\":14805:14823   */\n      tag_902\n      tag_748\n      jump\t// in\n    tag_902:\n        /* \"#utility.yul\":14694:14825   */\n    tag_901:\n        /* \"#utility.yul\":14853:14854   */\n      dup3\n        /* \"#utility.yul\":14850:14851   */\n      dup3\n        /* \"#utility.yul\":14846:14855   */\n      mul\n        /* \"#utility.yul\":14835:14855   */\n      swap1\n      pop\n        /* \"#utility.yul\":14513:14861   */\n      swap3\n      swap2\n      pop\n      pop\n      jump\t// out\n        /* \"#utility.yul\":14867:15044   */\n    tag_749:\n        /* \"#utility.yul\":15007:15036   */\n      0x4d696e696e756d20696e766573746d656e74206e6f74206d65742e0000000000\n        /* \"#utility.yul\":15003:15004   */\n      0x00\n        /* \"#utility.yul\":14995:15001   */\n      dup3\n        /* \"#utility.yul\":14991:15005   */\n      add\n        /* \"#utility.yul\":14984:15037   */\n      mstore\n        /* \"#utility.yul\":14867:15044   */\n      pop\n      jump\t// out\n        /* \"#utility.yul\":15050:15416   */\n    tag_750:\n        /* \"#utility.yul\":15192:15195   */\n      0x00\n        /* \"#utility.yul\":15213:15280   */\n      tag_905\n        /* \"#utility.yul\":15277:15279   */\n      0x1b\n        /* \"#utility.yul\":15272:15275   */\n      dup4\n        /* \"#utility.yul\":15213:15280   */\n      tag_738\n      jump\t// in\n    tag_905:\n        /* \"#utility.yul\":15206:15280   */\n      swap2\n      pop\n        /* \"#utility.yul\":15289:15382   */\n      tag_906\n        /* \"#utility.yul\":15378:15381   */\n      dup3\n        /* \"#utility.yul\":15289:15382   */\n      tag_749\n      jump\t// in\n    tag_906:\n        /* \"#utility.yul\":15407:15409   */\n      0x20\n        /* \"#utility.yul\":15402:15405   */\n      dup3\n        /* \"#utility.yul\":15398:15410   */\n      add\n        /* \"#utility.yul\":15391:15410   */\n      swap1\n      pop\n        /* \"#utility.yul\":15050:15416   */\n      swap2\n      swap1\n      pop\n      jump\t// out\n        /* \"#utility.yul\":15422:15841   */\n    tag_500:\n        /* \"#utility.yul\":15588:15592   */\n      0x00\n        /* \"#utility.yul\":15626:15628   */\n      0x20\n        /* \"#utility.yul\":15615:15624   */\n      dup3\n        /* \"#utility.yul\":15611:15629   */\n      add\n        /* \"#utility.yul\":15603:15629   */\n      swap1\n      pop\n        /* \"#utility.yul\":15675:15684   */\n      dup2\n        /* \"#utility.yul\":15669:15673   */\n      dup2\n        /* \"#utility.yul\":15665:15685   */\n      sub\n        /* \"#utility.yul\":15661:15662   */\n      0x00\n        /* \"#utility.yul\":15650:15659   */\n      dup4\n        /* \"#utility.yul\":15646:15663   */\n      add\n        /* \"#utility.yul\":15639:15686   */\n      mstore\n        /* \"#utility.yul\":15703:15834   */\n      tag_908\n        /* \"#utility.yul\":15829:15833   */\n      dup2\n        /* \"#utility.yul\":15703:15834   */\n      tag_750\n      jump\t// in\n    tag_908:\n        /* \"#utility.yul\":15695:15834   */\n      swap1\n      pop\n        /* \"#utility.yul\":15422:15841   */\n      swap2\n      swap1\n      pop\n      jump\t// out\n        /* \"#utility.yul\":15847:16023   */\n    tag_751:\n        /* \"#utility.yul\":15987:16015   */\n      0x4d6178206465706f736974206c696d697420726561636865642e000000000000\n        /* \"#utility.yul\":15983:15984   */\n      0x00\n        /* \"#utility.yul\":15975:15981   */\n      dup3\n        /* \"#utility.yul\":15971:15985   */\n      add\n        /* \"#utility.yul\":15964:16016   */\n      mstore\n        /* \"#utility.yul\":15847:16023   */\n      pop\n      jump\t// out\n        /* \"#utility.yul\":16029:16395   */\n    tag_752:\n        /* \"#utility.yul\":16171:16174   */\n      0x00\n        /* \"#utility.yul\":16192:16259   */\n      tag_911\n        /* \"#utility.yul\":16256:16258   */\n      0x1a\n        /* \"#utility.yul\":16251:16254   */\n      dup4\n        /* \"#utility.yul\":16192:16259   */\n      tag_738\n      jump\t// in\n    tag_911:\n        /* \"#utility.yul\":16185:16259   */\n      swap2\n      pop\n        /* \"#utility.yul\":16268:16361   */\n      tag_912\n        /* \"#utility.yul\":16357:16360   */\n      dup3\n        /* \"#utility.yul\":16268:16361   */\n      tag_751\n      jump\t// in\n    tag_912:\n        /* \"#utility.yul\":16386:16388   */\n      0x20\n        /* \"#utility.yul\":16381:16384   */\n      dup3\n        /* \"#utility.yul\":16377:16389   */\n      add\n        /* \"#utility.yul\":16370:16389   */\n      swap1\n      pop\n        /* \"#utility.yul\":16029:16395   */\n      swap2\n      swap1\n      pop\n      jump\t// out\n        /* \"#utility.yul\":16401:16820   */\n    tag_504:\n        /* \"#utility.yul\":16567:16571   */\n      0x00\n        /* \"#utility.yul\":16605:16607   */\n      0x20\n        /* \"#utility.yul\":16594:16603   */\n      dup3\n        /* \"#utility.yul\":16590:16608   */\n      add\n        /* \"#utility.yul\":16582:16608   */\n      swap1\n      pop\n        /* \"#utility.yul\":16654:16663   */\n      dup2\n        /* \"#utility.yul\":16648:16652   */\n      dup2\n        /* \"#utility.yul\":16644:16664   */\n      sub\n        /* \"#utility.yul\":16640:16641   */\n      0x00\n        /* \"#utility.yul\":16629:16638   */\n      dup4\n        /* \"#utility.yul\":16625:16642   */\n      add\n        /* \"#utility.yul\":16618:16665   */\n      mstore\n        /* \"#utility.yul\":16682:16813   */\n      tag_914\n        /* \"#utility.yul\":16808:16812   */\n      dup2\n        /* \"#utility.yul\":16682:16813   */\n      tag_752\n      jump\t// in\n    tag_914:\n        /* \"#utility.yul\":16674:16813   */\n      swap1\n      pop\n        /* \"#utility.yul\":16401:16820   */\n      swap2\n      swap1\n      pop\n      jump\t// out\n        /* \"#utility.yul\":16826:16999   */\n    tag_753:\n        /* \"#utility.yul\":16966:16991   */\n      0x4164647265737320697320626c61636b6c69737465642e000000000000000000\n        /* \"#utility.yul\":16962:16963   */\n      0x00\n        /* \"#utility.yul\":16954:16960   */\n      dup3\n        /* \"#utility.yul\":16950:16964   */\n      add\n        /* \"#utility.yul\":16943:16992   */\n      mstore\n        /* \"#utility.yul\":16826:16999   */\n      pop\n      jump\t// out\n        /* \"#utility.yul\":17005:17371   */\n    tag_754:\n        /* \"#utility.yul\":17147:17150   */\n      0x00\n        /* \"#utility.yul\":17168:17235   */\n      tag_917\n        /* \"#utility.yul\":17232:17234   */\n      0x17\n        /* \"#utility.yul\":17227:17230   */\n      dup4\n        /* \"#utility.yul\":17168:17235   */\n      tag_738\n      jump\t// in\n    tag_917:\n        /* \"#utility.yul\":17161:17235   */\n      swap2\n      pop\n        /* \"#utility.yul\":17244:17337   */\n      tag_918\n        /* \"#utility.yul\":17333:17336   */\n      dup3\n        /* \"#utility.yul\":17244:17337   */\n      tag_753\n      jump\t// in\n    tag_918:\n        /* \"#utility.yul\":17362:17364   */\n      0x20\n        /* \"#utility.yul\":17357:17360   */\n      dup3\n        /* \"#utility.yul\":17353:17365   */\n      add\n        /* \"#utility.yul\":17346:17365   */\n      swap1\n      pop\n        /* \"#utility.yul\":17005:17371   */\n      swap2\n      swap1\n      pop\n      jump\t// out\n        /* \"#utility.yul\":17377:17796   */\n    tag_535:\n        /* \"#utility.yul\":17543:17547   */\n      0x00\n        /* \"#utility.yul\":17581:17583   */\n      0x20\n        /* \"#utility.yul\":17570:17579   */\n      dup3\n        /* \"#utility.yul\":17566:17584   */\n      add\n        /* \"#utility.yul\":17558:17584   */\n      swap1\n      pop\n        /* \"#utility.yul\":17630:17639   */\n      dup2\n        /* \"#utility.yul\":17624:17628   */\n      dup2\n        /* \"#utility.yul\":17620:17640   */\n      sub\n        /* \"#utility.yul\":17616:17617   */\n      0x00\n        /* \"#utility.yul\":17605:17614   */\n      dup4\n        /* \"#utility.yul\":17601:17618   */\n      add\n        /* \"#utility.yul\":17594:17641   */\n      mstore\n        /* \"#utility.yul\":17658:17789   */\n      tag_920\n        /* \"#utility.yul\":17784:17788   */\n      dup2\n        /* \"#utility.yul\":17658:17789   */\n      tag_754\n      jump\t// in\n    tag_920:\n        /* \"#utility.yul\":17650:17789   */\n      swap1\n      pop\n        /* \"#utility.yul\":17377:17796   */\n      swap2\n      swap1\n      pop\n      jump\t// out\n        /* \"#utility.yul\":17802:17977   */\n    tag_755:\n        /* \"#utility.yul\":17942:17969   */\n      0x436f6e7472616374206e6f742079657420737461727465642e00000000000000\n        /* \"#utility.yul\":17938:17939   */\n      0x00\n        /* \"#utility.yul\":17930:17936   */\n      dup3\n        /* \"#utility.yul\":17926:17940   */\n      add\n        /* \"#utility.yul\":17919:17970   */\n      mstore\n        /* \"#utility.yul\":17802:17977   */\n      pop\n      jump\t// out\n        /* \"#utility.yul\":17983:18349   */\n    tag_756:\n        /* \"#utility.yul\":18125:18128   */\n      0x00\n        /* \"#utility.yul\":18146:18213   */\n      tag_923\n        /* \"#utility.yul\":18210:18212   */\n      0x19\n        /* \"#utility.yul\":18205:18208   */\n      dup4\n        /* \"#utility.yul\":18146:18213   */\n      tag_738\n      jump\t// in\n    tag_923:\n        /* \"#utility.yul\":18139:18213   */\n      swap2\n      pop\n        /* \"#utility.yul\":18222:18315   */\n      tag_924\n        /* \"#utility.yul\":18311:18314   */\n      dup3\n        /* \"#utility.yul\":18222:18315   */\n      tag_755\n      jump\t// in\n    tag_924:\n        /* \"#utility.yul\":18340:18342   */\n      0x20\n        /* \"#utility.yul\":18335:18338   */\n      dup3\n        /* \"#utility.yul\":18331:18343   */\n      add\n        /* \"#utility.yul\":18324:18343   */\n      swap1\n      pop\n        /* \"#utility.yul\":17983:18349   */\n      swap2\n      swap1\n      pop\n      jump\t// out\n        /* \"#utility.yul\":18355:18774   */\n    tag_634:\n        /* \"#utility.yul\":18521:18525   */\n      0x00\n        /* \"#utility.yul\":18559:18561   */\n      0x20\n        /* \"#utility.yul\":18548:18557   */\n      dup3\n        /* \"#utility.yul\":18544:18562   */\n      add\n        /* \"#utility.yul\":18536:18562   */\n      swap1\n      pop\n        /* \"#utility.yul\":18608:18617   */\n      dup2\n        /* \"#utility.yul\":18602:18606   */\n      dup2\n        /* \"#utility.yul\":18598:18618   */\n      sub\n        /* \"#utility.yul\":18594:18595   */\n      0x00\n        /* \"#utility.yul\":18583:18592   */\n      dup4\n        /* \"#utility.yul\":18579:18596   */\n      add\n        /* \"#utility.yul\":18572:18619   */\n      mstore\n        /* \"#utility.yul\":18636:18767   */\n      tag_926\n        /* \"#utility.yul\":18762:18766   */\n      dup2\n        /* \"#utility.yul\":18636:18767   */\n      tag_756\n      jump\t// in\n    tag_926:\n        /* \"#utility.yul\":18628:18767   */\n      swap1\n      pop\n        /* \"#utility.yul\":18355:18774   */\n      swap2\n      swap1\n      pop\n      jump\t// out\n        /* \"#utility.yul\":18780:18960   */\n    tag_652:\n        /* \"#utility.yul\":18828:18905   */\n      0x4e487b7100000000000000000000000000000000000000000000000000000000\n        /* \"#utility.yul\":18825:18826   */\n      0x00\n        /* \"#utility.yul\":18818:18906   */\n      mstore\n        /* \"#utility.yul\":18925:18929   */\n      0x32\n        /* \"#utility.yul\":18922:18923   */\n      0x04\n        /* \"#utility.yul\":18915:18930   */\n      mstore\n        /* \"#utility.yul\":18949:18953   */\n      0x24\n        /* \"#utility.yul\":18946:18947   */\n      0x00\n        /* \"#utility.yul\":18939:18954   */\n      revert\n        /* \"#utility.yul\":18966:19199   */\n    tag_655:\n        /* \"#utility.yul\":19005:19008   */\n      0x00\n        /* \"#utility.yul\":19028:19052   */\n      tag_929\n        /* \"#utility.yul\":19046:19051   */\n      dup3\n        /* \"#utility.yul\":19028:19052   */\n      tag_716\n      jump\t// in\n    tag_929:\n        /* \"#utility.yul\":19019:19052   */\n      swap2\n      pop\n        /* \"#utility.yul\":19074:19140   */\n      0xffffffffffffffffffffffffffffffffffffffffffffffffffffffffffffffff\n        /* \"#utility.yul\":19067:19072   */\n      dup3\n        /* \"#utility.yul\":19064:19141   */\n      eq\n        /* \"#utility.yul\":19061:19164   */\n      iszero\n      tag_930\n      jumpi\n        /* \"#utility.yul\":19144:19162   */\n      tag_931\n      tag_748\n      jump\t// in\n    tag_931:\n        /* \"#utility.yul\":19061:19164   */\n    tag_930:\n        /* \"#utility.yul\":19191:19192   */\n      0x01\n        /* \"#utility.yul\":19184:19189   */\n      dup3\n        /* \"#utility.yul\":19180:19193   */\n      add\n        /* \"#utility.yul\":19173:19193   */\n      swap1\n      pop\n        /* \"#utility.yul\":18966:19199   */\n      swap2\n      swap1\n      pop\n      jump\t// out\n        /* \"#utility.yul\":19205:19510   */\n    tag_658:\n        /* \"#utility.yul\":19245:19248   */\n      0x00\n        /* \"#utility.yul\":19264:19284   */\n      tag_933\n        /* \"#utility.yul\":19282:19283   */\n      dup3\n        /* \"#utility.yul\":19264:19284   */\n      tag_716\n      jump\t// in\n    tag_933:\n        /* \"#utility.yul\":19259:19284   */\n      swap2\n      pop\n        /* \"#utility.yul\":19298:19318   */\n      tag_934\n        /* \"#utility.yul\":19316:19317   */\n      dup4\n        /* \"#utility.yul\":19298:19318   */\n      tag_716\n      jump\t// in\n    tag_934:\n        /* \"#utility.yul\":19293:19318   */\n      swap3\n      pop\n        /* \"#utility.yul\":19452:19453   */\n      dup3\n        /* \"#utility.yul\":19384:19450   */\n      0xffffffffffffffffffffffffffffffffffffffffffffffffffffffffffffffff\n        /* \"#utility.yul\":19380:19454   */\n      sub\n        /* \"#utility.yul\":19377:19378   */\n      dup3\n        /* \"#utility.yul\":19374:19455   */\n      gt\n        /* \"#utility.yul\":19371:19478   */\n      iszero\n      tag_935\n      jumpi\n        /* \"#utility.yul\":19458:19476   */\n      tag_936\n      tag_748\n      jump\t// in\n    tag_936:\n        /* \"#utility.yul\":19371:19478   */\n    tag_935:\n        /* \"#utility.yul\":19502:19503   */\n      dup3\n        /* \"#utility.yul\":19499:19500   */\n      dup3\n        /* \"#utility.yul\":19495:19504   */\n      add\n        /* \"#utility.yul\":19488:19504   */\n      swap1\n      pop\n        /* \"#utility.yul\":19205:19510   */\n      swap3\n      swap2\n      pop\n      pop\n      jump\t// out\n        /* \"#utility.yul\":19516:19696   */\n    tag_661:\n        /* \"#utility.yul\":19564:19641   */\n      0x4e487b7100000000000000000000000000000000000000000000000000000000\n        /* \"#utility.yul\":19561:19562   */\n      0x00\n        /* \"#utility.yul\":19554:19642   */\n      mstore\n        /* \"#utility.yul\":19661:19665   */\n      0x01\n        /* \"#utility.yul\":19658:19659   */\n      0x04\n        /* \"#utility.yul\":19651:19666   */\n      mstore\n        /* \"#utility.yul\":19685:19689   */\n      0x24\n        /* \"#utility.yul\":19682:19683   */\n      0x00\n        /* \"#utility.yul\":19675:19690   */\n      revert\n        /* \"#utility.yul\":19702:19893   */\n    tag_666:\n        /* \"#utility.yul\":19742:19746   */\n      0x00\n        /* \"#utility.yul\":19762:19782   */\n      tag_939\n        /* \"#utility.yul\":19780:19781   */\n      dup3\n        /* \"#utility.yul\":19762:19782   */\n      tag_716\n      jump\t// in\n    tag_939:\n        /* \"#utility.yul\":19757:19782   */\n      swap2\n      pop\n        /* \"#utility.yul\":19796:19816   */\n      tag_940\n        /* \"#utility.yul\":19814:19815   */\n      dup4\n        /* \"#utility.yul\":19796:19816   */\n      tag_716\n      jump\t// in\n    tag_940:\n        /* \"#utility.yul\":19791:19816   */\n      swap3\n      pop\n        /* \"#utility.yul\":19835:19836   */\n      dup3\n        /* \"#utility.yul\":19832:19833   */\n      dup3\n        /* \"#utility.yul\":19829:19837   */\n      lt\n        /* \"#utility.yul\":19826:19860   */\n      iszero\n      tag_941\n      jumpi\n        /* \"#utility.yul\":19840:19858   */\n      tag_942\n      tag_748\n      jump\t// in\n    tag_942:\n        /* \"#utility.yul\":19826:19860   */\n    tag_941:\n        /* \"#utility.yul\":19885:19886   */\n      dup3\n        /* \"#utility.yul\":19882:19883   */\n      dup3\n        /* \"#utility.yul\":19878:19887   */\n      sub\n        /* \"#utility.yul\":19870:19887   */\n      swap1\n      pop\n        /* \"#utility.yul\":19702:19893   */\n      swap3\n      swap2\n      pop\n      pop\n      jump\t// out\n        /* \"#utility.yul\":19899:20079   */\n    tag_757:\n        /* \"#utility.yul\":19947:20024   */\n      0x4e487b7100000000000000000000000000000000000000000000000000000000\n        /* \"#utility.yul\":19944:19945   */\n      0x00\n        /* \"#utility.yul\":19937:20025   */\n      mstore\n        /* \"#utility.yul\":20044:20048   */\n      0x12\n        /* \"#utility.yul\":20041:20042   */\n      0x04\n        /* \"#utility.yul\":20034:20049   */\n      mstore\n        /* \"#utility.yul\":20068:20072   */\n      0x24\n        /* \"#utility.yul\":20065:20066   */\n      0x00\n        /* \"#utility.yul\":20058:20073   */\n      revert\n        /* \"#utility.yul\":20085:20270   */\n    tag_669:\n        /* \"#utility.yul\":20125:20126   */\n      0x00\n        /* \"#utility.yul\":20142:20162   */\n      tag_945\n        /* \"#utility.yul\":20160:20161   */\n      dup3\n        /* \"#utility.yul\":20142:20162   */\n      tag_716\n      jump\t// in\n    tag_945:\n        /* \"#utility.yul\":20137:20162   */\n      swap2\n      pop\n        /* \"#utility.yul\":20176:20196   */\n      tag_946\n        /* \"#utility.yul\":20194:20195   */\n      dup4\n        /* \"#utility.yul\":20176:20196   */\n      tag_716\n      jump\t// in\n    tag_946:\n        /* \"#utility.yul\":20171:20196   */\n      swap3\n      pop\n        /* \"#utility.yul\":20215:20216   */\n      dup3\n        /* \"#utility.yul\":20205:20240   */\n      tag_947\n      jumpi\n        /* \"#utility.yul\":20220:20238   */\n      tag_948\n      tag_757\n      jump\t// in\n    tag_948:\n        /* \"#utility.yul\":20205:20240   */\n    tag_947:\n        /* \"#utility.yul\":20262:20263   */\n      dup3\n        /* \"#utility.yul\":20259:20260   */\n      dup3\n        /* \"#utility.yul\":20255:20264   */\n      div\n        /* \"#utility.yul\":20250:20264   */\n      swap1\n      pop\n        /* \"#utility.yul\":20085:20270   */\n      swap3\n      swap2\n      pop\n      pop\n      jump\t// out\n        /* \"#utility.yul\":20276:20456   */\n    tag_679:\n        /* \"#utility.yul\":20324:20401   */\n      0x4e487b7100000000000000000000000000000000000000000000000000000000\n        /* \"#utility.yul\":20321:20322   */\n      0x00\n        /* \"#utility.yul\":20314:20402   */\n      mstore\n        /* \"#utility.yul\":20421:20425   */\n      0x41\n        /* \"#utility.yul\":20418:20419   */\n      0x04\n        /* \"#utility.yul\":20411:20426   */\n      mstore\n        /* \"#utility.yul\":20445:20449   */\n      0x24\n        /* \"#utility.yul\":20442:20443   */\n      0x00\n        /* \"#utility.yul\":20435:20450   */\n      revert\n\n    auxdata: 0xa2646970667358221220865a42aeb2cff9418ce0c268cd4bf05bdd740f819bbaf7bd02da9cb390a2383264736f6c63430008090033\n}\n",
				"bytecode": {
					"linkReferences": {},
					"object": "60806040526215f90060005560466001556103e86002556009600355600c6004556002600555666a94d74f43000060065568015af1d78b58c400006007556014600855600a60095561a8c0600a5561015e600b55600a600c556127106013556113886014556001601560016101000a81548160ff0219169083151502179055506202a300601a55613840601b553480156200009957600080fd5b5060405162004958380380620049588339818101604052810190620000bf91906200023e565b620000d082620001c160201b60201c565b158015620000ec5750620000ea81620001c160201b60201c565b155b620000f657600080fd5b33601c60006101000a81548173ffffffffffffffffffffffffffffffffffffffff021916908373ffffffffffffffffffffffffffffffffffffffff16021790555081601d60006101000a81548173ffffffffffffffffffffffffffffffffffffffff021916908373ffffffffffffffffffffffffffffffffffffffff16021790555080602260006101000a81548173ffffffffffffffffffffffffffffffffffffffff021916908373ffffffffffffffffffffffffffffffffffffffff160217905550505062000285565b600080823b905060008111915050919050565b600080fd5b600073ffffffffffffffffffffffffffffffffffffffff82169050919050565b60006200020682620001d9565b9050919050565b6200021881620001f9565b81146200022457600080fd5b50565b60008151905062000238816200020d565b92915050565b60008060408385031215620002585762000257620001d4565b5b6000620002688582860162000227565b92505060206200027b8582860162000227565b9150509250929050565b6146c380620002956000396000f3fe60806040526004361061043c5760003560e01c80637c8e4b4c11610234578063b6e6fcf61161012e578063d7206d5d116100b6578063e6dc95581161007a578063e6dc955814611097578063e7576943146110c0578063eb271268146110e9578063f6f6288614611112578063ffa4e6181461113d5761043c565b8063d7206d5d14610fbf578063d7c8843b14610fea578063d989b4b314611027578063da235b2214611050578063da5d4cc51461107b5761043c565b8063c3251b40116100fd578063c3251b4014610ec4578063c63568c714610f01578063c688f0fb14610f2c578063cc3e9c7814610f57578063cd329fc314610f945761043c565b8063b6e6fcf614610e28578063bd097e2114610e53578063bdd1ca2714610e5d578063bfa9f30414610e9b5761043c565b80638da5cb5b116101bc5780639d3af13f116101805780639d3af13f14610d125780639e9300a514610d4f578063a327c45d14610d78578063a87430ba14610da3578063ac4b3c0414610deb5761043c565b80638da5cb5b14610c2d5780638e31632714610c58578063950d91e914610c95578063959c95b314610cc05780639b9cb69f14610ce95761043c565b80637e56fde5116102035780637e56fde514610b465780637ee28e3c14610b835780638013f3a714610bac578063817b1cd214610bd75780638a315efd14610c025761043c565b80637c8e4b4c14610a9c5780637cc5b1e614610ac55780637d88209714610af05780637db07c9d14610b1b5761043c565b80633578584f11610345578063570c2979116102cd57806368f58b031161029157806368f58b03146109c957806369b11dd5146109f45780636f969d2814610a1f578063752a262814610a485780637a62ead714610a735761043c565b8063570c2979146108d9578063573862251461090257806359eec895146109195780636386c1c71461094457806364c03a5e1461098c5761043c565b806345f98c291161031457806345f98c29146107fe5780634b319713146108275780634ce870531461085257806350637dbd1461088057806350cf1c7a146108bd5761043c565b80633578584f146107755780633ccfd60b146107a057806343ce7422146107aa57806345a6a6e0146107d55761043c565b80631bd8225d116103c8578063298ea31011610397578063298ea310146106a25780632b039d0e146106cb5780632bc82f7f146106f45780632e9392bb1461071f578063333f57b31461074a5761043c565b80631bd8225d146105c0578063229824c4146105fd5780632362ce891461063a57806326fd8422146106655761043c565b806312065fe01161040f57806312065fe0146104ed5780631848b8dc1461051857806318c819d814610543578063195a73391461056c5780631a7b8d4f146105975761043c565b806301c234a8146104415780630420c98e1461046c57806307aeb7f0146104975780630a76e5ed146104c2575b600080fd5b34801561044d57600080fd5b5061045661117a565b6040516104639190613bfb565b60405180910390f35b34801561047857600080fd5b50610481611180565b60405161048e9190613bfb565b60405180910390f35b3480156104a357600080fd5b506104ac611186565b6040516104b99190613c57565b60405180910390f35b3480156104ce57600080fd5b506104d76111ac565b6040516104e49190613bfb565b60405180910390f35b3480156104f957600080fd5b506105026111f6565b60405161050f9190613bfb565b60405180910390f35b34801561052457600080fd5b5061052d6111fe565b60405161053a9190613bfb565b60405180910390f35b34801561054f57600080fd5b5061056a60048036038101906105659190613cb4565b611204565b005b34801561057857600080fd5b5061058161149a565b60405161058e9190613bfb565b60405180910390f35b3480156105a357600080fd5b506105be60048036038101906105b99190613d0d565b6114a0565b005b3480156105cc57600080fd5b506105e760048036038101906105e29190613d78565b611548565b6040516105f49190613bfb565b60405180910390f35b34801561060957600080fd5b50610624600480360381019061061f9190613da5565b611560565b6040516106319190613bfb565b60405180910390f35b34801561064657600080fd5b5061064f6115b3565b60405161065c9190613c57565b60405180910390f35b34801561067157600080fd5b5061068c60048036038101906106879190613df8565b6115d9565b6040516106999190613bfb565b60405180910390f35b3480156106ae57600080fd5b506106c960048036038101906106c49190613d0d565b6115f0565b005b3480156106d757600080fd5b506106f260048036038101906106ed9190613d78565b611698565b005b34801561070057600080fd5b5061070961176c565b6040516107169190613bfb565b60405180910390f35b34801561072b57600080fd5b50610734611772565b6040516107419190613bfb565b60405180910390f35b34801561075657600080fd5b5061075f611778565b60405161076c9190613e47565b60405180910390f35b34801561078157600080fd5b5061078a61178b565b6040516107979190613bfb565b60405180910390f35b6107a8611791565b005b3480156107b657600080fd5b506107bf61189a565b6040516107cc9190613bfb565b60405180910390f35b3480156107e157600080fd5b506107fc60048036038101906107f79190613d0d565b6118fe565b005b34801561080a57600080fd5b5061082560048036038101906108209190613d0d565b6119bd565b005b34801561083357600080fd5b5061083c611a57565b6040516108499190613bfb565b60405180910390f35b34801561085e57600080fd5b50610867611a5d565b6040516108779493929190613e62565b60405180910390f35b34801561088c57600080fd5b506108a760048036038101906108a29190613ea7565b611a7d565b6040516108b49190613bfb565b60405180910390f35b6108d760048036038101906108d29190613d78565b611b64565b005b3480156108e557600080fd5b5061090060048036038101906108fb9190613d0d565b611ffa565b005b34801561090e57600080fd5b506109176120af565b005b34801561092557600080fd5b5061092e6123b2565b60405161093b9190613bfb565b60405180910390f35b34801561095057600080fd5b5061096b60048036038101906109669190613d78565b6123b8565b6040516109839c9b9a99989796959493929190613ef6565b60405180910390f35b34801561099857600080fd5b506109b360048036038101906109ae9190613d78565b612735565b6040516109c09190613bfb565b60405180910390f35b3480156109d557600080fd5b506109de6127a8565b6040516109eb9190613bfb565b60405180910390f35b348015610a0057600080fd5b50610a096127ae565b604051610a169190613bfb565b60405180910390f35b348015610a2b57600080fd5b50610a466004803603810190610a419190613d0d565b6127b4565b005b348015610a5457600080fd5b50610a5d61286a565b604051610a6a9190613bfb565b60405180910390f35b348015610a7f57600080fd5b50610a9a6004803603810190610a959190613d0d565b612870565b005b348015610aa857600080fd5b50610ac36004803603810190610abe9190613d0d565b612918565b005b348015610ad157600080fd5b50610ada6129c9565b604051610ae79190613c57565b60405180910390f35b348015610afc57600080fd5b50610b056129ef565b604051610b129190613bfb565b60405180910390f35b348015610b2757600080fd5b50610b306129f5565b604051610b3d9190613bfb565b60405180910390f35b348015610b5257600080fd5b50610b6d6004803603810190610b689190613d0d565b6129fb565b604051610b7a9190613bfb565b60405180910390f35b348015610b8f57600080fd5b50610baa6004803603810190610ba59190613d0d565b612a15565b005b348015610bb857600080fd5b50610bc1612ad0565b604051610bce9190613c57565b60405180910390f35b348015610be357600080fd5b50610bec612af6565b604051610bf99190613bfb565b60405180910390f35b348015610c0e57600080fd5b50610c17612afc565b604051610c249190613c57565b60405180910390f35b348015610c3957600080fd5b50610c42612b22565b604051610c4f9190613fb0565b60405180910390f35b348015610c6457600080fd5b50610c7f6004803603810190610c7a9190613d0d565b612b48565b604051610c8c9190613bfb565b60405180910390f35b348015610ca157600080fd5b50610caa612b65565b604051610cb79190613bfb565b60405180910390f35b348015610ccc57600080fd5b50610ce76004803603810190610ce29190613d0d565b612b6b565b005b348015610cf557600080fd5b50610d106004803603810190610d0b9190613d0d565b612c2a565b005b348015610d1e57600080fd5b50610d396004803603810190610d349190613d78565b612cd2565b604051610d469190613bfb565b60405180910390f35b348015610d5b57600080fd5b50610d766004803603810190610d719190613cb4565b612cea565b005b348015610d8457600080fd5b50610d8d612d97565b604051610d9a9190613c57565b60405180910390f35b348015610daf57600080fd5b50610dca6004803603810190610dc59190613d78565b612dbd565b604051610de29c9b9a99989796959493929190613ef6565b60405180910390f35b348015610df757600080fd5b50610e126004803603810190610e0d9190613d78565b612e3d565b604051610e1f9190613bfb565b60405180910390f35b348015610e3457600080fd5b50610e3d612e55565b604051610e4a9190613e47565b60405180910390f35b610e5b612e68565b005b348015610e6957600080fd5b50610e846004803603810190610e7f9190613d0d565b612e6a565b604051610e92929190613fcb565b60405180910390f35b348015610ea757600080fd5b50610ec26004803603810190610ebd9190613d0d565b612efc565b005b348015610ed057600080fd5b50610eeb6004803603810190610ee69190613d78565b612fa5565b604051610ef89190613e47565b60405180910390f35b348015610f0d57600080fd5b50610f1661308b565b604051610f239190613bfb565b60405180910390f35b348015610f3857600080fd5b50610f41613091565b604051610f4e9190613bfb565b60405180910390f35b348015610f6357600080fd5b50610f7e6004803603810190610f799190613df8565b613097565b604051610f8b9190613bfb565b60405180910390f35b348015610fa057600080fd5b50610fa96130c7565b604051610fb69190613bfb565b60405180910390f35b348015610fcb57600080fd5b50610fd46130cd565b604051610fe19190613bfb565b60405180910390f35b348015610ff657600080fd5b50611011600480360381019061100c9190613d78565b6130d3565b60405161101e9190613bfb565b60405180910390f35b34801561103357600080fd5b5061104e60048036038101906110499190613ff4565b6131ac565b005b34801561105c57600080fd5b50611065613297565b6040516110729190613bfb565b60405180910390f35b61109560048036038101906110909190613d78565b61329f565b005b3480156110a357600080fd5b506110be60048036038101906110b99190613d0d565b61338c565b005b3480156110cc57600080fd5b506110e760048036038101906110e29190613d0d565b613445565b005b3480156110f557600080fd5b50611110600480360381019061110b9190614099565b6134ed565b005b34801561111e57600080fd5b50611127613622565b6040516111349190613bfb565b60405180910390f35b34801561114957600080fd5b50611164600480360381019061115f9190613d78565b613628565b6040516111719190613e47565b60405180910390f35b60025481565b600b5481565b602060009054906101000a900473ffffffffffffffffffffffffffffffffffffffff1681565b6000602360003373ffffffffffffffffffffffffffffffffffffffff1673ffffffffffffffffffffffffffffffffffffffff16815260200190815260200160002060020154905090565b600047905090565b60075481565b6000602360003373ffffffffffffffffffffffffffffffffffffffff1673ffffffffffffffffffffffffffffffffffffffff1681526020019081526020016000209050601560009054906101000a900460ff16611296576040517f08c379a000000000000000000000000000000000000000000000000000000000815260040161128d90614156565b60405180910390fd5b60006112a061189a565b90506000819050831561131a5760006112b93383611a7d565b90506112ce818361364890919063ffffffff16565b915060006112db83612b48565b90506112f481866001015461364890919063ffffffff16565b856001018190555061131181600f5461364890919063ffffffff16565b600f8190555050505b600a5461133484600401544261367490919063ffffffff16565b1061141f57600954836009015410156113fe5761135f6001846009015461364890919063ffffffff16565b83600901819055506113ba6002601960003373ffffffffffffffffffffffffffffffffffffffff1673ffffffffffffffffffffffffffffffffffffffff1681526020019081526020016000205461364890919063ffffffff16565b601960003373ffffffffffffffffffffffffffffffffffffffff1673ffffffffffffffffffffffffffffffffffffffff168152602001908152602001600020819055505b611416600184600a015461364890919063ffffffff16565b83600a01819055505b61144a6114376000548361369b90919063ffffffff16565b846002015461364890919063ffffffff16565b83600201819055506000836003018190555042836004018190555061148e61147d6005548461369b90919063ffffffff16565b60125461364890919063ffffffff16565b60128190555050505050565b60005481565b601c60009054906101000a900473ffffffffffffffffffffffffffffffffffffffff1673ffffffffffffffffffffffffffffffffffffffff163373ffffffffffffffffffffffffffffffffffffffff1614611530576040517f08c379a0000000000000000000000000000000000000000000000000000000008152600401611527906141c2565b60405180910390fd5b601481111561153e57600080fd5b8060048190555050565b60186020528060005260406000206000915090505481565b60006115aa611571601354846136b6565b6115a56014546115a061159a6115896013548a6136b6565b6115956014548c6136b6565b613648565b8961369b565b613648565b61369b565b90509392505050565b601f60009054906101000a900473ffffffffffffffffffffffffffffffffffffffff1681565b60006115e88383601254611560565b905092915050565b601c60009054906101000a900473ffffffffffffffffffffffffffffffffffffffff1673ffffffffffffffffffffffffffffffffffffffff163373ffffffffffffffffffffffffffffffffffffffff1614611680576040517f08c379a0000000000000000000000000000000000000000000000000000000008152600401611677906141c2565b60405180910390fd5b600f81111561168e57600080fd5b8060038190555050565b601c60009054906101000a900473ffffffffffffffffffffffffffffffffffffffff1673ffffffffffffffffffffffffffffffffffffffff163373ffffffffffffffffffffffffffffffffffffffff1614611728576040517f08c379a000000000000000000000000000000000000000000000000000000000815260040161171f906141c2565b60405180910390fd5b80601c60006101000a81548173ffffffffffffffffffffffffffffffffffffffff021916908373ffffffffffffffffffffffffffffffffffffffff16021790555050565b60045481565b60125481565b601560009054906101000a900460ff1681565b601a5481565b601c60009054906101000a900473ffffffffffffffffffffffffffffffffffffffff1673ffffffffffffffffffffffffffffffffffffffff163373ffffffffffffffffffffffffffffffffffffffff1614611821576040517f08c379a0000000000000000000000000000000000000000000000000000000008152600401611818906141c2565b60405180910390fd5b60003373ffffffffffffffffffffffffffffffffffffffff164760405161184790614213565b60006040518083038185875af1925050503d8060008114611884576040519150601f19603f3d011682016040523d82523d6000602084013e611889565b606091505b505090508061189757600080fd5b50565b60006118f96118a8336130d3565b602360003373ffffffffffffffffffffffffffffffffffffffff1673ffffffffffffffffffffffffffffffffffffffff1681526020019081526020016000206003015461364890919063ffffffff16565b905090565b601c60009054906101000a900473ffffffffffffffffffffffffffffffffffffffff1673ffffffffffffffffffffffffffffffffffffffff163373ffffffffffffffffffffffffffffffffffffffff161461198e576040517f08c379a000000000000000000000000000000000000000000000000000000000815260040161198590614274565b60405180910390fd5b601881111561199c57600080fd5b603c80826119aa91906142c3565b6119b491906142c3565b601b8190555050565b601c60009054906101000a900473ffffffffffffffffffffffffffffffffffffffff1673ffffffffffffffffffffffffffffffffffffffff163373ffffffffffffffffffffffffffffffffffffffff1614611a4d576040517f08c379a0000000000000000000000000000000000000000000000000000000008152600401611a4490614274565b60405180910390fd5b8060068190555050565b60115481565b600080600080600d54600e54600f54601054935093509350935090919293565b600080602360008573ffffffffffffffffffffffffffffffffffffffff1673ffffffffffffffffffffffffffffffffffffffff168152602001908152602001600020600901541415611ad25760009050611b5e565b6000611b2b600854602360008773ffffffffffffffffffffffffffffffffffffffff1673ffffffffffffffffffffffffffffffffffffffff168152602001908152602001600020600901546136b690919063ffffffff16565b90506000611b56600254611b4884876136b690919063ffffffff16565b61369b90919063ffffffff16565b905080925050505b92915050565b601560009054906101000a900460ff16611bb3576040517f08c379a0000000000000000000000000000000000000000000000000000000008152600401611baa90614156565b60405180910390fd5b6000602360003373ffffffffffffffffffffffffffffffffffffffff1673ffffffffffffffffffffffffffffffffffffffff1681526020019081526020016000209050600654341015611c3b576040517f08c379a0000000000000000000000000000000000000000000000000000000008152600401611c3290614369565b60405180910390fd5b600754611c5534836000015461364890919063ffffffff16565b1115611c96576040517f08c379a0000000000000000000000000000000000000000000000000000000008152600401611c8d906143d5565b60405180910390fd5b600081600001541415611ce85734601760003373ffffffffffffffffffffffffffffffffffffffff1673ffffffffffffffffffffffffffffffffffffffff168152602001908152602001600020819055505b6000611d0634611d01344761367490919063ffffffff16565b6115d9565b9050611d1f34836001015461364890919063ffffffff16565b8260010181905550611d3e34836000015461364890919063ffffffff16565b8260000181905550611d5d81836003015461364890919063ffffffff16565b8260030181905550600073ffffffffffffffffffffffffffffffffffffffff168260050160009054906101000a900473ffffffffffffffffffffffffffffffffffffffff1673ffffffffffffffffffffffffffffffffffffffff161415611f31573373ffffffffffffffffffffffffffffffffffffffff168373ffffffffffffffffffffffffffffffffffffffff1614611e3557828260050160006101000a81548173ffffffffffffffffffffffffffffffffffffffff021916908373ffffffffffffffffffffffffffffffffffffffff1602179055505b60008260050160009054906101000a900473ffffffffffffffffffffffffffffffffffffffff169050600073ffffffffffffffffffffffffffffffffffffffff168173ffffffffffffffffffffffffffffffffffffffff1614611f2f57611ee86001602360008473ffffffffffffffffffffffffffffffffffffffff1673ffffffffffffffffffffffffffffffffffffffff1681526020019081526020016000206006015461364890919063ffffffff16565b602360008373ffffffffffffffffffffffffffffffffffffffff1673ffffffffffffffffffffffffffffffffffffffff168152602001908152602001600020600601819055505b505b600073ffffffffffffffffffffffffffffffffffffffff168260050160009054906101000a900473ffffffffffffffffffffffffffffffffffffffff1673ffffffffffffffffffffffffffffffffffffffff1614611f9457611f9333346136ff565b5b6000611f9f34613a6d565b9050611fc8611fb7823461367490919063ffffffff16565b600d5461364890919063ffffffff16565b600d81905550611fe46001600e5461364890919063ffffffff16565b600e81905550611ff46000611204565b50505050565b601c60009054906101000a900473ffffffffffffffffffffffffffffffffffffffff1673ffffffffffffffffffffffffffffffffffffffff163373ffffffffffffffffffffffffffffffffffffffff161461208a576040517f08c379a0000000000000000000000000000000000000000000000000000000008152600401612081906141c2565b60405180910390fd5b600a811015801561209c575060648111155b6120a557600080fd5b8060018190555050565b601560009054906101000a900460ff166120fe576040517f08c379a00000000000000000000000000000000000000000000000000000000081526004016120f590614156565b60405180910390fd5b601560019054906101000a900460ff16156121a157601660003373ffffffffffffffffffffffffffffffffffffffff1673ffffffffffffffffffffffffffffffffffffffff16815260200190815260200160002060009054906101000a900460ff16156121a0576040517f08c379a000000000000000000000000000000000000000000000000000000000815260040161219790614441565b60405180910390fd5b5b6000602360003373ffffffffffffffffffffffffffffffffffffffff1673ffffffffffffffffffffffffffffffffffffffff168152602001908152602001600020905060006121ee61189a565b905060006121fb82612b48565b9050600c548360090154101561224d57612246612237600254612229600b54856136b690919063ffffffff16565b61369b90919063ffffffff16565b8261367490919063ffffffff16565b90506122a7565b60008360090181905550600083600a01819055506000601960003373ffffffffffffffffffffffffffffffffffffffff1673ffffffffffffffffffffffffffffffffffffffff168152602001908152602001600020819055505b4283600b0181905550600083600301819055504283600401819055506122ec6122db6005548461369b90919063ffffffff16565b60125461364890919063ffffffff16565b601281905550806122fb6111f6565b101561230c576123096111f6565b90505b600061232961231a83613a6d565b8361367490919063ffffffff16565b90503373ffffffffffffffffffffffffffffffffffffffff166108fc829081150290604051600060405180830381858888f19350505050158015612371573d6000803e3d6000fd5b5061238981856008015461364890919063ffffffff16565b84600801819055506123a68160115461364890919063ffffffff16565b60118190555050505050565b60055481565b600080600080600080600080600080600080602360008e73ffffffffffffffffffffffffffffffffffffffff1673ffffffffffffffffffffffffffffffffffffffff168152602001908152602001600020600001549b50602360008e73ffffffffffffffffffffffffffffffffffffffff1673ffffffffffffffffffffffffffffffffffffffff168152602001908152602001600020600101549a50602360008e73ffffffffffffffffffffffffffffffffffffffff1673ffffffffffffffffffffffffffffffffffffffff168152602001908152602001600020600201549950602360008e73ffffffffffffffffffffffffffffffffffffffff1673ffffffffffffffffffffffffffffffffffffffff168152602001908152602001600020600301549850602360008e73ffffffffffffffffffffffffffffffffffffffff1673ffffffffffffffffffffffffffffffffffffffff168152602001908152602001600020600401549750602360008e73ffffffffffffffffffffffffffffffffffffffff1673ffffffffffffffffffffffffffffffffffffffff16815260200190815260200160002060050160009054906101000a900473ffffffffffffffffffffffffffffffffffffffff169650602360008e73ffffffffffffffffffffffffffffffffffffffff1673ffffffffffffffffffffffffffffffffffffffff168152602001908152602001600020600601549550602360008e73ffffffffffffffffffffffffffffffffffffffff1673ffffffffffffffffffffffffffffffffffffffff168152602001908152602001600020600801549450602360008e73ffffffffffffffffffffffffffffffffffffffff1673ffffffffffffffffffffffffffffffffffffffff168152602001908152602001600020600701549350602360008e73ffffffffffffffffffffffffffffffffffffffff1673ffffffffffffffffffffffffffffffffffffffff168152602001908152602001600020600901549250602360008e73ffffffffffffffffffffffffffffffffffffffff1673ffffffffffffffffffffffffffffffffffffffff168152602001908152602001600020600a01549150602360008e73ffffffffffffffffffffffffffffffffffffffff1673ffffffffffffffffffffffffffffffffffffffff168152602001908152602001600020600b0154905091939597999b5091939597999b565b600080612795612744846130d3565b602360008673ffffffffffffffffffffffffffffffffffffffff1673ffffffffffffffffffffffffffffffffffffffff1681526020019081526020016000206003015461364890919063ffffffff16565b90506127a081612b48565b915050919050565b60035481565b60105481565b601c60009054906101000a900473ffffffffffffffffffffffffffffffffffffffff1673ffffffffffffffffffffffffffffffffffffffff163373ffffffffffffffffffffffffffffffffffffffff1614612844576040517f08c379a000000000000000000000000000000000000000000000000000000000815260040161283b906141c2565b60405180910390fd5b600a811015801561285757506103848111155b61286057600080fd5b8060088190555050565b600a5481565b601c60009054906101000a900473ffffffffffffffffffffffffffffffffffffffff1673ffffffffffffffffffffffffffffffffffffffff163373ffffffffffffffffffffffffffffffffffffffff1614612900576040517f08c379a00000000000000000000000000000000000000000000000000000000081526004016128f7906141c2565b60405180910390fd5b603281111561290e57600080fd5b8060058190555050565b601c60009054906101000a900473ffffffffffffffffffffffffffffffffffffffff1673ffffffffffffffffffffffffffffffffffffffff163373ffffffffffffffffffffffffffffffffffffffff16146129a8576040517f08c379a000000000000000000000000000000000000000000000000000000000815260040161299f90614274565b60405180910390fd5b603c80826129b691906142c3565b6129c091906142c3565b601a8190555050565b602260009054906101000a900473ffffffffffffffffffffffffffffffffffffffff1681565b600e5481565b600f5481565b6000612a0e82612a096111f6565b6115d9565b9050919050565b601c60009054906101000a900473ffffffffffffffffffffffffffffffffffffffff1673ffffffffffffffffffffffffffffffffffffffff163373ffffffffffffffffffffffffffffffffffffffff1614612aa5576040517f08c379a0000000000000000000000000000000000000000000000000000000008152600401612a9c90614274565b60405180910390fd5b600a811015612ab357600080fd5b670de0b6b3a764000081612ac791906142c3565b60078190555050565b601e60009054906101000a900473ffffffffffffffffffffffffffffffffffffffff1681565b600d5481565b602160009054906101000a900473ffffffffffffffffffffffffffffffffffffffff1681565b601c60009054906101000a900473ffffffffffffffffffffffffffffffffffffffff1681565b6000612b5e82601254612b596111f6565b611560565b9050919050565b601b5481565b601c60009054906101000a900473ffffffffffffffffffffffffffffffffffffffff1673ffffffffffffffffffffffffffffffffffffffff163373ffffffffffffffffffffffffffffffffffffffff1614612bfb576040517f08c379a0000000000000000000000000000000000000000000000000000000008152600401612bf2906141c2565b60405180910390fd5b6018811115612c0957600080fd5b603c8082612c1791906142c3565b612c2191906142c3565b600a8190555050565b601c60009054906101000a900473ffffffffffffffffffffffffffffffffffffffff1673ffffffffffffffffffffffffffffffffffffffff163373ffffffffffffffffffffffffffffffffffffffff1614612cba576040517f08c379a0000000000000000000000000000000000000000000000000000000008152600401612cb1906141c2565b60405180910390fd5b601e811115612cc857600080fd5b8060098190555050565b60196020528060005260406000206000915090505481565b601c60009054906101000a900473ffffffffffffffffffffffffffffffffffffffff1673ffffffffffffffffffffffffffffffffffffffff163373ffffffffffffffffffffffffffffffffffffffff1614612d7a576040517f08c379a0000000000000000000000000000000000000000000000000000000008152600401612d71906141c2565b60405180910390fd5b80601560016101000a81548160ff02191690831515021790555050565b601d60009054906101000a900473ffffffffffffffffffffffffffffffffffffffff1681565b60236020528060005260406000206000915090508060000154908060010154908060020154908060030154908060040154908060050160009054906101000a900473ffffffffffffffffffffffffffffffffffffffff169080600601549080600701549080600801549080600901549080600a01549080600b015490508c565b60176020528060005260406000206000915090505481565b601560019054906101000a900460ff1681565b565b6000806000612ea484612e9f86612e9188612e836111f6565b61364890919063ffffffff16565b61367490919063ffffffff16565b6115d9565b90506000612ebd6000548361369b90919063ffffffff16565b905060006201518090506000612edc83836136b690919063ffffffff16565b90506000612eea8289613097565b90508381965096505050505050915091565b601c60009054906101000a900473ffffffffffffffffffffffffffffffffffffffff1673ffffffffffffffffffffffffffffffffffffffff163373ffffffffffffffffffffffffffffffffffffffff1614612f8c576040517f08c379a0000000000000000000000000000000000000000000000000000000008152600401612f83906141c2565b60405180910390fd5b610384811115612f9b57600080fd5b80600b8190555050565b6000601c60009054906101000a900473ffffffffffffffffffffffffffffffffffffffff1673ffffffffffffffffffffffffffffffffffffffff163373ffffffffffffffffffffffffffffffffffffffff1614613037576040517f08c379a000000000000000000000000000000000000000000000000000000000815260040161302e906141c2565b60405180910390fd5b601660008373ffffffffffffffffffffffffffffffffffffffff1673ffffffffffffffffffffffffffffffffffffffff16815260200190815260200160002060009054906101000a900460ff169050919050565b60015481565b60095481565b60006130bf836012546130ba856130ac6111f6565b61364890919063ffffffff16565b611560565b905092915050565b60065481565b60085481565b60008061312b602360008573ffffffffffffffffffffffffffffffffffffffff1673ffffffffffffffffffffffffffffffffffffffff168152602001908152602001600020600401544261367490919063ffffffff16565b9050600061313b82601a54613bc9565b9050600061314b60005483613bc9565b90506131a2602360008773ffffffffffffffffffffffffffffffffffffffff1673ffffffffffffffffffffffffffffffffffffffff16815260200190815260200160002060020154826136b690919063ffffffff16565b9350505050919050565b601c60009054906101000a900473ffffffffffffffffffffffffffffffffffffffff1673ffffffffffffffffffffffffffffffffffffffff163373ffffffffffffffffffffffffffffffffffffffff161461323c576040517f08c379a0000000000000000000000000000000000000000000000000000000008152600401613233906141c2565b60405180910390fd5b80601660008473ffffffffffffffffffffffffffffffffffffffff1673ffffffffffffffffffffffffffffffffffffffff16815260200190815260200160002060006101000a81548160ff0219169083151502179055505050565b600042905090565b601560009054906101000a900460ff1661338957601c60009054906101000a900473ffffffffffffffffffffffffffffffffffffffff1673ffffffffffffffffffffffffffffffffffffffff163373ffffffffffffffffffffffffffffffffffffffff16141561334d5760006012541461331857600080fd5b6001601560006101000a81548160ff02191690831515021790555064218711a00060128190555061334881611b64565b613388565b6040517f08c379a000000000000000000000000000000000000000000000000000000000815260040161337f906144ad565b60405180910390fd5b5b50565b601c60009054906101000a900473ffffffffffffffffffffffffffffffffffffffff1673ffffffffffffffffffffffffffffffffffffffff163373ffffffffffffffffffffffffffffffffffffffff161461341c576040517f08c379a0000000000000000000000000000000000000000000000000000000008152600401613413906141c2565b60405180910390fd5b6207512081101580156134325750620afc808111155b61343b57600080fd5b8060008190555050565b601c60009054906101000a900473ffffffffffffffffffffffffffffffffffffffff1673ffffffffffffffffffffffffffffffffffffffff163373ffffffffffffffffffffffffffffffffffffffff16146134d5576040517f08c379a00000000000000000000000000000000000000000000000000000000081526004016134cc906141c2565b60405180910390fd5b600c8111156134e357600080fd5b80600c8190555050565b601c60009054906101000a900473ffffffffffffffffffffffffffffffffffffffff1673ffffffffffffffffffffffffffffffffffffffff163373ffffffffffffffffffffffffffffffffffffffff161461357d576040517f08c379a0000000000000000000000000000000000000000000000000000000008152600401613574906141c2565b60405180910390fd5b60005b8383905081101561361c5781601660008686858181106135a3576135a26144cd565b5b90506020020160208101906135b89190613d78565b73ffffffffffffffffffffffffffffffffffffffff1673ffffffffffffffffffffffffffffffffffffffff16815260200190815260200160002060006101000a81548160ff0219169083151502179055508080613614906144fc565b915050613580565b50505050565b600c5481565b60166020528060005260406000206000915054906101000a900460ff1681565b60008082846136579190614545565b90508381101561366a5761366961459b565b5b8091505092915050565b6000828211156136875761368661459b565b5b818361369391906145ca565b905092915050565b60008082846136aa919061462d565b90508091505092915050565b6000808314156136c957600090506136f9565b600082846136d791906142c3565b90508284826136e6919061462d565b146136f4576136f361459b565b5b809150505b92915050565b60008290506000600367ffffffffffffffff8111156137215761372061465e565b5b60405190808252806020026020018201604052801561374f5781602001602082028036833780820191505090505b509050600881600081518110613768576137676144cd565b5b60200260200101818152505060038160018151811061378a576137896144cd565b5b6020026020010181815250506002816002815181106137ac576137ab6144cd565b5b60200260200101818152505060005b6003811015613a6657600073ffffffffffffffffffffffffffffffffffffffff16602360008573ffffffffffffffffffffffffffffffffffffffff1673ffffffffffffffffffffffffffffffffffffffff16815260200190815260200160002060050160009054906101000a900473ffffffffffffffffffffffffffffffffffffffff1673ffffffffffffffffffffffffffffffffffffffff1614613a4e57602360008473ffffffffffffffffffffffffffffffffffffffff1673ffffffffffffffffffffffffffffffffffffffff16815260200190815260200160002060050160009054906101000a900473ffffffffffffffffffffffffffffffffffffffff16925060006064858484815181106138d7576138d66144cd565b5b60200260200101516138e991906142c3565b6138f3919061462d565b905080601860008673ffffffffffffffffffffffffffffffffffffffff1673ffffffffffffffffffffffffffffffffffffffff16815260200190815260200160002060008282546139449190614545565b925050819055508373ffffffffffffffffffffffffffffffffffffffff166108fc829081150290604051600060405180830381858888f19350505050158015613991573d6000803e3d6000fd5b506139e781602360008773ffffffffffffffffffffffffffffffffffffffff1673ffffffffffffffffffffffffffffffffffffffff1681526020019081526020016000206007015461364890919063ffffffff16565b602360008673ffffffffffffffffffffffffffffffffffffffff1673ffffffffffffffffffffffffffffffffffffffff16815260200190815260200160002060070181905550613a428160105461364890919063ffffffff16565b60108190555050613a53565b613a66565b8080613a5e906144fc565b9150506137bb565b5050505050565b600080613a99600254613a8b600354866136b690919063ffffffff16565b61369b90919063ffffffff16565b90506000613ac6600254613ab8600454876136b690919063ffffffff16565b61369b90919063ffffffff16565b9050601d60009054906101000a900473ffffffffffffffffffffffffffffffffffffffff1673ffffffffffffffffffffffffffffffffffffffff166108fc839081150290604051600060405180830381858888f19350505050158015613b30573d6000803e3d6000fd5b50602260009054906101000a900473ffffffffffffffffffffffffffffffffffffffff1673ffffffffffffffffffffffffffffffffffffffff166108fc829081150290604051600060405180830381858888f19350505050158015613b99573d6000803e3d6000fd5b50613bc0613bb16001846136b690919063ffffffff16565b8261364890919063ffffffff16565b92505050919050565b6000818310613bd85781613bda565b825b905092915050565b6000819050919050565b613bf581613be2565b82525050565b6000602082019050613c106000830184613bec565b92915050565b600073ffffffffffffffffffffffffffffffffffffffff82169050919050565b6000613c4182613c16565b9050919050565b613c5181613c36565b82525050565b6000602082019050613c6c6000830184613c48565b92915050565b600080fd5b600080fd5b60008115159050919050565b613c9181613c7c565b8114613c9c57600080fd5b50565b600081359050613cae81613c88565b92915050565b600060208284031215613cca57613cc9613c72565b5b6000613cd884828501613c9f565b91505092915050565b613cea81613be2565b8114613cf557600080fd5b50565b600081359050613d0781613ce1565b92915050565b600060208284031215613d2357613d22613c72565b5b6000613d3184828501613cf8565b91505092915050565b6000613d4582613c16565b9050919050565b613d5581613d3a565b8114613d6057600080fd5b50565b600081359050613d7281613d4c565b92915050565b600060208284031215613d8e57613d8d613c72565b5b6000613d9c84828501613d63565b91505092915050565b600080600060608486031215613dbe57613dbd613c72565b5b6000613dcc86828701613cf8565b9350506020613ddd86828701613cf8565b9250506040613dee86828701613cf8565b9150509250925092565b60008060408385031215613e0f57613e0e613c72565b5b6000613e1d85828601613cf8565b9250506020613e2e85828601613cf8565b9150509250929050565b613e4181613c7c565b82525050565b6000602082019050613e5c6000830184613e38565b92915050565b6000608082019050613e776000830187613bec565b613e846020830186613bec565b613e916040830185613bec565b613e9e6060830184613bec565b95945050505050565b60008060408385031215613ebe57613ebd613c72565b5b6000613ecc85828601613d63565b9250506020613edd85828601613cf8565b9150509250929050565b613ef081613d3a565b82525050565b600061018082019050613f0c600083018f613bec565b613f19602083018e613bec565b613f26604083018d613bec565b613f33606083018c613bec565b613f40608083018b613bec565b613f4d60a083018a613ee7565b613f5a60c0830189613bec565b613f6760e0830188613bec565b613f75610100830187613bec565b613f83610120830186613bec565b613f91610140830185613bec565b613f9f610160830184613bec565b9d9c50505050505050505050505050565b6000602082019050613fc56000830184613ee7565b92915050565b6000604082019050613fe06000830185613bec565b613fed6020830184613bec565b9392505050565b6000806040838503121561400b5761400a613c72565b5b600061401985828601613d63565b925050602061402a85828601613c9f565b9150509250929050565b600080fd5b600080fd5b600080fd5b60008083601f84011261405957614058614034565b5b8235905067ffffffffffffffff81111561407657614075614039565b5b6020830191508360208202830111156140925761409161403e565b5b9250929050565b6000806000604084860312156140b2576140b1613c72565b5b600084013567ffffffffffffffff8111156140d0576140cf613c77565b5b6140dc86828701614043565b935093505060206140ef86828701613c9f565b9150509250925092565b600082825260208201905092915050565b7f436f6e7472616374206e6f742079657420537461727465642e00000000000000600082015250565b60006141406019836140f9565b915061414b8261410a565b602082019050919050565b6000602082019050818103600083015261416f81614133565b9050919050565b7f41646d696e20757365206f6e6c792e0000000000000000000000000000000000600082015250565b60006141ac600f836140f9565b91506141b782614176565b602082019050919050565b600060208201905081810360008301526141db8161419f565b9050919050565b600081905092915050565b50565b60006141fd6000836141e2565b9150614208826141ed565b600082019050919050565b600061421e826141f0565b9150819050919050565b7f41646d696e20757365206f6e6c79000000000000000000000000000000000000600082015250565b600061425e600e836140f9565b915061426982614228565b602082019050919050565b6000602082019050818103600083015261428d81614251565b9050919050565b7f4e487b7100000000000000000000000000000000000000000000000000000000600052601160045260246000fd5b60006142ce82613be2565b91506142d983613be2565b9250817fffffffffffffffffffffffffffffffffffffffffffffffffffffffffffffffff048311821515161561431257614311614294565b5b828202905092915050565b7f4d696e696e756d20696e766573746d656e74206e6f74206d65742e0000000000600082015250565b6000614353601b836140f9565b915061435e8261431d565b602082019050919050565b6000602082019050818103600083015261438281614346565b9050919050565b7f4d6178206465706f736974206c696d697420726561636865642e000000000000600082015250565b60006143bf601a836140f9565b91506143ca82614389565b602082019050919050565b600060208201905081810360008301526143ee816143b2565b9050919050565b7f4164647265737320697320626c61636b6c69737465642e000000000000000000600082015250565b600061442b6017836140f9565b9150614436826143f5565b602082019050919050565b6000602082019050818103600083015261445a8161441e565b9050919050565b7f436f6e7472616374206e6f742079657420737461727465642e00000000000000600082015250565b60006144976019836140f9565b91506144a282614461565b602082019050919050565b600060208201905081810360008301526144c68161448a565b9050919050565b7f4e487b7100000000000000000000000000000000000000000000000000000000600052603260045260246000fd5b600061450782613be2565b91507fffffffffffffffffffffffffffffffffffffffffffffffffffffffffffffffff82141561453a57614539614294565b5b600182019050919050565b600061455082613be2565b915061455b83613be2565b9250827fffffffffffffffffffffffffffffffffffffffffffffffffffffffffffffffff038211156145905761458f614294565b5b828201905092915050565b7f4e487b7100000000000000000000000000000000000000000000000000000000600052600160045260246000fd5b60006145d582613be2565b91506145e083613be2565b9250828210156145f3576145f2614294565b5b828203905092915050565b7f4e487b7100000000000000000000000000000000000000000000000000000000600052601260045260246000fd5b600061463882613be2565b915061464383613be2565b925082614653576146526145fe565b5b828204905092915050565b7f4e487b7100000000000000000000000000000000000000000000000000000000600052604160045260246000fdfea2646970667358221220865a42aeb2cff9418ce0c268cd4bf05bdd740f819bbaf7bd02da9cb390a2383264736f6c63430008090033",
					"opcodes": "PUSH1 0x80 PUSH1 0x40 MSTORE PUSH3 0x15F900 PUSH1 0x0 SSTORE PUSH1 0x46 PUSH1 0x1 SSTORE PUSH2 0x3E8 PUSH1 0x2 SSTORE PUSH1 0x9 PUSH1 0x3 SSTORE PUSH1 0xC PUSH1 0x4 SSTORE PUSH1 0x2 PUSH1 0x5 SSTORE PUSH7 0x6A94D74F430000 PUSH1 0x6 SSTORE PUSH9 0x15AF1D78B58C40000 PUSH1 0x7 SSTORE PUSH1 0x14 PUSH1 0x8 SSTORE PUSH1 0xA PUSH1 0x9 SSTORE PUSH2 0xA8C0 PUSH1 0xA SSTORE PUSH2 0x15E PUSH1 0xB SSTORE PUSH1 0xA PUSH1 0xC SSTORE PUSH2 0x2710 PUSH1 0x13 SSTORE PUSH2 0x1388 PUSH1 0x14 SSTORE PUSH1 0x1 PUSH1 0x15 PUSH1 0x1 PUSH2 0x100 EXP DUP2 SLOAD DUP2 PUSH1 0xFF MUL NOT AND SWAP1 DUP4 ISZERO ISZERO MUL OR SWAP1 SSTORE POP PUSH3 0x2A300 PUSH1 0x1A SSTORE PUSH2 0x3840 PUSH1 0x1B SSTORE CALLVALUE DUP1 ISZERO PUSH3 0x99 JUMPI PUSH1 0x0 DUP1 REVERT JUMPDEST POP PUSH1 0x40 MLOAD PUSH3 0x4958 CODESIZE SUB DUP1 PUSH3 0x4958 DUP4 CODECOPY DUP2 DUP2 ADD PUSH1 0x40 MSTORE DUP2 ADD SWAP1 PUSH3 0xBF SWAP2 SWAP1 PUSH3 0x23E JUMP JUMPDEST PUSH3 0xD0 DUP3 PUSH3 0x1C1 PUSH1 0x20 SHL PUSH1 0x20 SHR JUMP JUMPDEST ISZERO DUP1 ISZERO PUSH3 0xEC JUMPI POP PUSH3 0xEA DUP2 PUSH3 0x1C1 PUSH1 0x20 SHL PUSH1 0x20 SHR JUMP JUMPDEST ISZERO JUMPDEST PUSH3 0xF6 JUMPI PUSH1 0x0 DUP1 REVERT JUMPDEST CALLER PUSH1 0x1C PUSH1 0x0 PUSH2 0x100 EXP DUP2 SLOAD DUP2 PUSH20 0xFFFFFFFFFFFFFFFFFFFFFFFFFFFFFFFFFFFFFFFF MUL NOT AND SWAP1 DUP4 PUSH20 0xFFFFFFFFFFFFFFFFFFFFFFFFFFFFFFFFFFFFFFFF AND MUL OR SWAP1 SSTORE POP DUP2 PUSH1 0x1D PUSH1 0x0 PUSH2 0x100 EXP DUP2 SLOAD DUP2 PUSH20 0xFFFFFFFFFFFFFFFFFFFFFFFFFFFFFFFFFFFFFFFF MUL NOT AND SWAP1 DUP4 PUSH20 0xFFFFFFFFFFFFFFFFFFFFFFFFFFFFFFFFFFFFFFFF AND MUL OR SWAP1 SSTORE POP DUP1 PUSH1 0x22 PUSH1 0x0 PUSH2 0x100 EXP DUP2 SLOAD DUP2 PUSH20 0xFFFFFFFFFFFFFFFFFFFFFFFFFFFFFFFFFFFFFFFF MUL NOT AND SWAP1 DUP4 PUSH20 0xFFFFFFFFFFFFFFFFFFFFFFFFFFFFFFFFFFFFFFFF AND MUL OR SWAP1 SSTORE POP POP POP PUSH3 0x285 JUMP JUMPDEST PUSH1 0x0 DUP1 DUP3 EXTCODESIZE SWAP1 POP PUSH1 0x0 DUP2 GT SWAP2 POP POP SWAP2 SWAP1 POP JUMP JUMPDEST PUSH1 0x0 DUP1 REVERT JUMPDEST PUSH1 0x0 PUSH20 0xFFFFFFFFFFFFFFFFFFFFFFFFFFFFFFFFFFFFFFFF DUP3 AND SWAP1 POP SWAP2 SWAP1 POP JUMP JUMPDEST PUSH1 0x0 PUSH3 0x206 DUP3 PUSH3 0x1D9 JUMP JUMPDEST SWAP1 POP SWAP2 SWAP1 POP JUMP JUMPDEST PUSH3 0x218 DUP2 PUSH3 0x1F9 JUMP JUMPDEST DUP2 EQ PUSH3 0x224 JUMPI PUSH1 0x0 DUP1 REVERT JUMPDEST POP JUMP JUMPDEST PUSH1 0x0 DUP2 MLOAD SWAP1 POP PUSH3 0x238 DUP2 PUSH3 0x20D JUMP JUMPDEST SWAP3 SWAP2 POP POP JUMP JUMPDEST PUSH1 0x0 DUP1 PUSH1 0x40 DUP4 DUP6 SUB SLT ISZERO PUSH3 0x258 JUMPI PUSH3 0x257 PUSH3 0x1D4 JUMP JUMPDEST JUMPDEST PUSH1 0x0 PUSH3 0x268 DUP6 DUP3 DUP7 ADD PUSH3 0x227 JUMP JUMPDEST SWAP3 POP POP PUSH1 0x20 PUSH3 0x27B DUP6 DUP3 DUP7 ADD PUSH3 0x227 JUMP JUMPDEST SWAP2 POP POP SWAP3 POP SWAP3 SWAP1 POP JUMP JUMPDEST PUSH2 0x46C3 DUP1 PUSH3 0x295 PUSH1 0x0 CODECOPY PUSH1 0x0 RETURN INVALID PUSH1 0x80 PUSH1 0x40 MSTORE PUSH1 0x4 CALLDATASIZE LT PUSH2 0x43C JUMPI PUSH1 0x0 CALLDATALOAD PUSH1 0xE0 SHR DUP1 PUSH4 0x7C8E4B4C GT PUSH2 0x234 JUMPI DUP1 PUSH4 0xB6E6FCF6 GT PUSH2 0x12E JUMPI DUP1 PUSH4 0xD7206D5D GT PUSH2 0xB6 JUMPI DUP1 PUSH4 0xE6DC9558 GT PUSH2 0x7A JUMPI DUP1 PUSH4 0xE6DC9558 EQ PUSH2 0x1097 JUMPI DUP1 PUSH4 0xE7576943 EQ PUSH2 0x10C0 JUMPI DUP1 PUSH4 0xEB271268 EQ PUSH2 0x10E9 JUMPI DUP1 PUSH4 0xF6F62886 EQ PUSH2 0x1112 JUMPI DUP1 PUSH4 0xFFA4E618 EQ PUSH2 0x113D JUMPI PUSH2 0x43C JUMP JUMPDEST DUP1 PUSH4 0xD7206D5D EQ PUSH2 0xFBF JUMPI DUP1 PUSH4 0xD7C8843B EQ PUSH2 0xFEA JUMPI DUP1 PUSH4 0xD989B4B3 EQ PUSH2 0x1027 JUMPI DUP1 PUSH4 0xDA235B22 EQ PUSH2 0x1050 JUMPI DUP1 PUSH4 0xDA5D4CC5 EQ PUSH2 0x107B JUMPI PUSH2 0x43C JUMP JUMPDEST DUP1 PUSH4 0xC3251B40 GT PUSH2 0xFD JUMPI DUP1 PUSH4 0xC3251B40 EQ PUSH2 0xEC4 JUMPI DUP1 PUSH4 0xC63568C7 EQ PUSH2 0xF01 JUMPI DUP1 PUSH4 0xC688F0FB EQ PUSH2 0xF2C JUMPI DUP1 PUSH4 0xCC3E9C78 EQ PUSH2 0xF57 JUMPI DUP1 PUSH4 0xCD329FC3 EQ PUSH2 0xF94 JUMPI PUSH2 0x43C JUMP JUMPDEST DUP1 PUSH4 0xB6E6FCF6 EQ PUSH2 0xE28 JUMPI DUP1 PUSH4 0xBD097E21 EQ PUSH2 0xE53 JUMPI DUP1 PUSH4 0xBDD1CA27 EQ PUSH2 0xE5D JUMPI DUP1 PUSH4 0xBFA9F304 EQ PUSH2 0xE9B JUMPI PUSH2 0x43C JUMP JUMPDEST DUP1 PUSH4 0x8DA5CB5B GT PUSH2 0x1BC JUMPI DUP1 PUSH4 0x9D3AF13F GT PUSH2 0x180 JUMPI DUP1 PUSH4 0x9D3AF13F EQ PUSH2 0xD12 JUMPI DUP1 PUSH4 0x9E9300A5 EQ PUSH2 0xD4F JUMPI DUP1 PUSH4 0xA327C45D EQ PUSH2 0xD78 JUMPI DUP1 PUSH4 0xA87430BA EQ PUSH2 0xDA3 JUMPI DUP1 PUSH4 0xAC4B3C04 EQ PUSH2 0xDEB JUMPI PUSH2 0x43C JUMP JUMPDEST DUP1 PUSH4 0x8DA5CB5B EQ PUSH2 0xC2D JUMPI DUP1 PUSH4 0x8E316327 EQ PUSH2 0xC58 JUMPI DUP1 PUSH4 0x950D91E9 EQ PUSH2 0xC95 JUMPI DUP1 PUSH4 0x959C95B3 EQ PUSH2 0xCC0 JUMPI DUP1 PUSH4 0x9B9CB69F EQ PUSH2 0xCE9 JUMPI PUSH2 0x43C JUMP JUMPDEST DUP1 PUSH4 0x7E56FDE5 GT PUSH2 0x203 JUMPI DUP1 PUSH4 0x7E56FDE5 EQ PUSH2 0xB46 JUMPI DUP1 PUSH4 0x7EE28E3C EQ PUSH2 0xB83 JUMPI DUP1 PUSH4 0x8013F3A7 EQ PUSH2 0xBAC JUMPI DUP1 PUSH4 0x817B1CD2 EQ PUSH2 0xBD7 JUMPI DUP1 PUSH4 0x8A315EFD EQ PUSH2 0xC02 JUMPI PUSH2 0x43C JUMP JUMPDEST DUP1 PUSH4 0x7C8E4B4C EQ PUSH2 0xA9C JUMPI DUP1 PUSH4 0x7CC5B1E6 EQ PUSH2 0xAC5 JUMPI DUP1 PUSH4 0x7D882097 EQ PUSH2 0xAF0 JUMPI DUP1 PUSH4 0x7DB07C9D EQ PUSH2 0xB1B JUMPI PUSH2 0x43C JUMP JUMPDEST DUP1 PUSH4 0x3578584F GT PUSH2 0x345 JUMPI DUP1 PUSH4 0x570C2979 GT PUSH2 0x2CD JUMPI DUP1 PUSH4 0x68F58B03 GT PUSH2 0x291 JUMPI DUP1 PUSH4 0x68F58B03 EQ PUSH2 0x9C9 JUMPI DUP1 PUSH4 0x69B11DD5 EQ PUSH2 0x9F4 JUMPI DUP1 PUSH4 0x6F969D28 EQ PUSH2 0xA1F JUMPI DUP1 PUSH4 0x752A2628 EQ PUSH2 0xA48 JUMPI DUP1 PUSH4 0x7A62EAD7 EQ PUSH2 0xA73 JUMPI PUSH2 0x43C JUMP JUMPDEST DUP1 PUSH4 0x570C2979 EQ PUSH2 0x8D9 JUMPI DUP1 PUSH4 0x57386225 EQ PUSH2 0x902 JUMPI DUP1 PUSH4 0x59EEC895 EQ PUSH2 0x919 JUMPI DUP1 PUSH4 0x6386C1C7 EQ PUSH2 0x944 JUMPI DUP1 PUSH4 0x64C03A5E EQ PUSH2 0x98C JUMPI PUSH2 0x43C JUMP JUMPDEST DUP1 PUSH4 0x45F98C29 GT PUSH2 0x314 JUMPI DUP1 PUSH4 0x45F98C29 EQ PUSH2 0x7FE JUMPI DUP1 PUSH4 0x4B319713 EQ PUSH2 0x827 JUMPI DUP1 PUSH4 0x4CE87053 EQ PUSH2 0x852 JUMPI DUP1 PUSH4 0x50637DBD EQ PUSH2 0x880 JUMPI DUP1 PUSH4 0x50CF1C7A EQ PUSH2 0x8BD JUMPI PUSH2 0x43C JUMP JUMPDEST DUP1 PUSH4 0x3578584F EQ PUSH2 0x775 JUMPI DUP1 PUSH4 0x3CCFD60B EQ PUSH2 0x7A0 JUMPI DUP1 PUSH4 0x43CE7422 EQ PUSH2 0x7AA JUMPI DUP1 PUSH4 0x45A6A6E0 EQ PUSH2 0x7D5 JUMPI PUSH2 0x43C JUMP JUMPDEST DUP1 PUSH4 0x1BD8225D GT PUSH2 0x3C8 JUMPI DUP1 PUSH4 0x298EA310 GT PUSH2 0x397 JUMPI DUP1 PUSH4 0x298EA310 EQ PUSH2 0x6A2 JUMPI DUP1 PUSH4 0x2B039D0E EQ PUSH2 0x6CB JUMPI DUP1 PUSH4 0x2BC82F7F EQ PUSH2 0x6F4 JUMPI DUP1 PUSH4 0x2E9392BB EQ PUSH2 0x71F JUMPI DUP1 PUSH4 0x333F57B3 EQ PUSH2 0x74A JUMPI PUSH2 0x43C JUMP JUMPDEST DUP1 PUSH4 0x1BD8225D EQ PUSH2 0x5C0 JUMPI DUP1 PUSH4 0x229824C4 EQ PUSH2 0x5FD JUMPI DUP1 PUSH4 0x2362CE89 EQ PUSH2 0x63A JUMPI DUP1 PUSH4 0x26FD8422 EQ PUSH2 0x665 JUMPI PUSH2 0x43C JUMP JUMPDEST DUP1 PUSH4 0x12065FE0 GT PUSH2 0x40F JUMPI DUP1 PUSH4 0x12065FE0 EQ PUSH2 0x4ED JUMPI DUP1 PUSH4 0x1848B8DC EQ PUSH2 0x518 JUMPI DUP1 PUSH4 0x18C819D8 EQ PUSH2 0x543 JUMPI DUP1 PUSH4 0x195A7339 EQ PUSH2 0x56C JUMPI DUP1 PUSH4 0x1A7B8D4F EQ PUSH2 0x597 JUMPI PUSH2 0x43C JUMP JUMPDEST DUP1 PUSH4 0x1C234A8 EQ PUSH2 0x441 JUMPI DUP1 PUSH4 0x420C98E EQ PUSH2 0x46C JUMPI DUP1 PUSH4 0x7AEB7F0 EQ PUSH2 0x497 JUMPI DUP1 PUSH4 0xA76E5ED EQ PUSH2 0x4C2 JUMPI JUMPDEST PUSH1 0x0 DUP1 REVERT JUMPDEST CALLVALUE DUP1 ISZERO PUSH2 0x44D JUMPI PUSH1 0x0 DUP1 REVERT JUMPDEST POP PUSH2 0x456 PUSH2 0x117A JUMP JUMPDEST PUSH1 0x40 MLOAD PUSH2 0x463 SWAP2 SWAP1 PUSH2 0x3BFB JUMP JUMPDEST PUSH1 0x40 MLOAD DUP1 SWAP2 SUB SWAP1 RETURN JUMPDEST CALLVALUE DUP1 ISZERO PUSH2 0x478 JUMPI PUSH1 0x0 DUP1 REVERT JUMPDEST POP PUSH2 0x481 PUSH2 0x1180 JUMP JUMPDEST PUSH1 0x40 MLOAD PUSH2 0x48E SWAP2 SWAP1 PUSH2 0x3BFB JUMP JUMPDEST PUSH1 0x40 MLOAD DUP1 SWAP2 SUB SWAP1 RETURN JUMPDEST CALLVALUE DUP1 ISZERO PUSH2 0x4A3 JUMPI PUSH1 0x0 DUP1 REVERT JUMPDEST POP PUSH2 0x4AC PUSH2 0x1186 JUMP JUMPDEST PUSH1 0x40 MLOAD PUSH2 0x4B9 SWAP2 SWAP1 PUSH2 0x3C57 JUMP JUMPDEST PUSH1 0x40 MLOAD DUP1 SWAP2 SUB SWAP1 RETURN JUMPDEST CALLVALUE DUP1 ISZERO PUSH2 0x4CE JUMPI PUSH1 0x0 DUP1 REVERT JUMPDEST POP PUSH2 0x4D7 PUSH2 0x11AC JUMP JUMPDEST PUSH1 0x40 MLOAD PUSH2 0x4E4 SWAP2 SWAP1 PUSH2 0x3BFB JUMP JUMPDEST PUSH1 0x40 MLOAD DUP1 SWAP2 SUB SWAP1 RETURN JUMPDEST CALLVALUE DUP1 ISZERO PUSH2 0x4F9 JUMPI PUSH1 0x0 DUP1 REVERT JUMPDEST POP PUSH2 0x502 PUSH2 0x11F6 JUMP JUMPDEST PUSH1 0x40 MLOAD PUSH2 0x50F SWAP2 SWAP1 PUSH2 0x3BFB JUMP JUMPDEST PUSH1 0x40 MLOAD DUP1 SWAP2 SUB SWAP1 RETURN JUMPDEST CALLVALUE DUP1 ISZERO PUSH2 0x524 JUMPI PUSH1 0x0 DUP1 REVERT JUMPDEST POP PUSH2 0x52D PUSH2 0x11FE JUMP JUMPDEST PUSH1 0x40 MLOAD PUSH2 0x53A SWAP2 SWAP1 PUSH2 0x3BFB JUMP JUMPDEST PUSH1 0x40 MLOAD DUP1 SWAP2 SUB SWAP1 RETURN JUMPDEST CALLVALUE DUP1 ISZERO PUSH2 0x54F JUMPI PUSH1 0x0 DUP1 REVERT JUMPDEST POP PUSH2 0x56A PUSH1 0x4 DUP1 CALLDATASIZE SUB DUP2 ADD SWAP1 PUSH2 0x565 SWAP2 SWAP1 PUSH2 0x3CB4 JUMP JUMPDEST PUSH2 0x1204 JUMP JUMPDEST STOP JUMPDEST CALLVALUE DUP1 ISZERO PUSH2 0x578 JUMPI PUSH1 0x0 DUP1 REVERT JUMPDEST POP PUSH2 0x581 PUSH2 0x149A JUMP JUMPDEST PUSH1 0x40 MLOAD PUSH2 0x58E SWAP2 SWAP1 PUSH2 0x3BFB JUMP JUMPDEST PUSH1 0x40 MLOAD DUP1 SWAP2 SUB SWAP1 RETURN JUMPDEST CALLVALUE DUP1 ISZERO PUSH2 0x5A3 JUMPI PUSH1 0x0 DUP1 REVERT JUMPDEST POP PUSH2 0x5BE PUSH1 0x4 DUP1 CALLDATASIZE SUB DUP2 ADD SWAP1 PUSH2 0x5B9 SWAP2 SWAP1 PUSH2 0x3D0D JUMP JUMPDEST PUSH2 0x14A0 JUMP JUMPDEST STOP JUMPDEST CALLVALUE DUP1 ISZERO PUSH2 0x5CC JUMPI PUSH1 0x0 DUP1 REVERT JUMPDEST POP PUSH2 0x5E7 PUSH1 0x4 DUP1 CALLDATASIZE SUB DUP2 ADD SWAP1 PUSH2 0x5E2 SWAP2 SWAP1 PUSH2 0x3D78 JUMP JUMPDEST PUSH2 0x1548 JUMP JUMPDEST PUSH1 0x40 MLOAD PUSH2 0x5F4 SWAP2 SWAP1 PUSH2 0x3BFB JUMP JUMPDEST PUSH1 0x40 MLOAD DUP1 SWAP2 SUB SWAP1 RETURN JUMPDEST CALLVALUE DUP1 ISZERO PUSH2 0x609 JUMPI PUSH1 0x0 DUP1 REVERT JUMPDEST POP PUSH2 0x624 PUSH1 0x4 DUP1 CALLDATASIZE SUB DUP2 ADD SWAP1 PUSH2 0x61F SWAP2 SWAP1 PUSH2 0x3DA5 JUMP JUMPDEST PUSH2 0x1560 JUMP JUMPDEST PUSH1 0x40 MLOAD PUSH2 0x631 SWAP2 SWAP1 PUSH2 0x3BFB JUMP JUMPDEST PUSH1 0x40 MLOAD DUP1 SWAP2 SUB SWAP1 RETURN JUMPDEST CALLVALUE DUP1 ISZERO PUSH2 0x646 JUMPI PUSH1 0x0 DUP1 REVERT JUMPDEST POP PUSH2 0x64F PUSH2 0x15B3 JUMP JUMPDEST PUSH1 0x40 MLOAD PUSH2 0x65C SWAP2 SWAP1 PUSH2 0x3C57 JUMP JUMPDEST PUSH1 0x40 MLOAD DUP1 SWAP2 SUB SWAP1 RETURN JUMPDEST CALLVALUE DUP1 ISZERO PUSH2 0x671 JUMPI PUSH1 0x0 DUP1 REVERT JUMPDEST POP PUSH2 0x68C PUSH1 0x4 DUP1 CALLDATASIZE SUB DUP2 ADD SWAP1 PUSH2 0x687 SWAP2 SWAP1 PUSH2 0x3DF8 JUMP JUMPDEST PUSH2 0x15D9 JUMP JUMPDEST PUSH1 0x40 MLOAD PUSH2 0x699 SWAP2 SWAP1 PUSH2 0x3BFB JUMP JUMPDEST PUSH1 0x40 MLOAD DUP1 SWAP2 SUB SWAP1 RETURN JUMPDEST CALLVALUE DUP1 ISZERO PUSH2 0x6AE JUMPI PUSH1 0x0 DUP1 REVERT JUMPDEST POP PUSH2 0x6C9 PUSH1 0x4 DUP1 CALLDATASIZE SUB DUP2 ADD SWAP1 PUSH2 0x6C4 SWAP2 SWAP1 PUSH2 0x3D0D JUMP JUMPDEST PUSH2 0x15F0 JUMP JUMPDEST STOP JUMPDEST CALLVALUE DUP1 ISZERO PUSH2 0x6D7 JUMPI PUSH1 0x0 DUP1 REVERT JUMPDEST POP PUSH2 0x6F2 PUSH1 0x4 DUP1 CALLDATASIZE SUB DUP2 ADD SWAP1 PUSH2 0x6ED SWAP2 SWAP1 PUSH2 0x3D78 JUMP JUMPDEST PUSH2 0x1698 JUMP JUMPDEST STOP JUMPDEST CALLVALUE DUP1 ISZERO PUSH2 0x700 JUMPI PUSH1 0x0 DUP1 REVERT JUMPDEST POP PUSH2 0x709 PUSH2 0x176C JUMP JUMPDEST PUSH1 0x40 MLOAD PUSH2 0x716 SWAP2 SWAP1 PUSH2 0x3BFB JUMP JUMPDEST PUSH1 0x40 MLOAD DUP1 SWAP2 SUB SWAP1 RETURN JUMPDEST CALLVALUE DUP1 ISZERO PUSH2 0x72B JUMPI PUSH1 0x0 DUP1 REVERT JUMPDEST POP PUSH2 0x734 PUSH2 0x1772 JUMP JUMPDEST PUSH1 0x40 MLOAD PUSH2 0x741 SWAP2 SWAP1 PUSH2 0x3BFB JUMP JUMPDEST PUSH1 0x40 MLOAD DUP1 SWAP2 SUB SWAP1 RETURN JUMPDEST CALLVALUE DUP1 ISZERO PUSH2 0x756 JUMPI PUSH1 0x0 DUP1 REVERT JUMPDEST POP PUSH2 0x75F PUSH2 0x1778 JUMP JUMPDEST PUSH1 0x40 MLOAD PUSH2 0x76C SWAP2 SWAP1 PUSH2 0x3E47 JUMP JUMPDEST PUSH1 0x40 MLOAD DUP1 SWAP2 SUB SWAP1 RETURN JUMPDEST CALLVALUE DUP1 ISZERO PUSH2 0x781 JUMPI PUSH1 0x0 DUP1 REVERT JUMPDEST POP PUSH2 0x78A PUSH2 0x178B JUMP JUMPDEST PUSH1 0x40 MLOAD PUSH2 0x797 SWAP2 SWAP1 PUSH2 0x3BFB JUMP JUMPDEST PUSH1 0x40 MLOAD DUP1 SWAP2 SUB SWAP1 RETURN JUMPDEST PUSH2 0x7A8 PUSH2 0x1791 JUMP JUMPDEST STOP JUMPDEST CALLVALUE DUP1 ISZERO PUSH2 0x7B6 JUMPI PUSH1 0x0 DUP1 REVERT JUMPDEST POP PUSH2 0x7BF PUSH2 0x189A JUMP JUMPDEST PUSH1 0x40 MLOAD PUSH2 0x7CC SWAP2 SWAP1 PUSH2 0x3BFB JUMP JUMPDEST PUSH1 0x40 MLOAD DUP1 SWAP2 SUB SWAP1 RETURN JUMPDEST CALLVALUE DUP1 ISZERO PUSH2 0x7E1 JUMPI PUSH1 0x0 DUP1 REVERT JUMPDEST POP PUSH2 0x7FC PUSH1 0x4 DUP1 CALLDATASIZE SUB DUP2 ADD SWAP1 PUSH2 0x7F7 SWAP2 SWAP1 PUSH2 0x3D0D JUMP JUMPDEST PUSH2 0x18FE JUMP JUMPDEST STOP JUMPDEST CALLVALUE DUP1 ISZERO PUSH2 0x80A JUMPI PUSH1 0x0 DUP1 REVERT JUMPDEST POP PUSH2 0x825 PUSH1 0x4 DUP1 CALLDATASIZE SUB DUP2 ADD SWAP1 PUSH2 0x820 SWAP2 SWAP1 PUSH2 0x3D0D JUMP JUMPDEST PUSH2 0x19BD JUMP JUMPDEST STOP JUMPDEST CALLVALUE DUP1 ISZERO PUSH2 0x833 JUMPI PUSH1 0x0 DUP1 REVERT JUMPDEST POP PUSH2 0x83C PUSH2 0x1A57 JUMP JUMPDEST PUSH1 0x40 MLOAD PUSH2 0x849 SWAP2 SWAP1 PUSH2 0x3BFB JUMP JUMPDEST PUSH1 0x40 MLOAD DUP1 SWAP2 SUB SWAP1 RETURN JUMPDEST CALLVALUE DUP1 ISZERO PUSH2 0x85E JUMPI PUSH1 0x0 DUP1 REVERT JUMPDEST POP PUSH2 0x867 PUSH2 0x1A5D JUMP JUMPDEST PUSH1 0x40 MLOAD PUSH2 0x877 SWAP5 SWAP4 SWAP3 SWAP2 SWAP1 PUSH2 0x3E62 JUMP JUMPDEST PUSH1 0x40 MLOAD DUP1 SWAP2 SUB SWAP1 RETURN JUMPDEST CALLVALUE DUP1 ISZERO PUSH2 0x88C JUMPI PUSH1 0x0 DUP1 REVERT JUMPDEST POP PUSH2 0x8A7 PUSH1 0x4 DUP1 CALLDATASIZE SUB DUP2 ADD SWAP1 PUSH2 0x8A2 SWAP2 SWAP1 PUSH2 0x3EA7 JUMP JUMPDEST PUSH2 0x1A7D JUMP JUMPDEST PUSH1 0x40 MLOAD PUSH2 0x8B4 SWAP2 SWAP1 PUSH2 0x3BFB JUMP JUMPDEST PUSH1 0x40 MLOAD DUP1 SWAP2 SUB SWAP1 RETURN JUMPDEST PUSH2 0x8D7 PUSH1 0x4 DUP1 CALLDATASIZE SUB DUP2 ADD SWAP1 PUSH2 0x8D2 SWAP2 SWAP1 PUSH2 0x3D78 JUMP JUMPDEST PUSH2 0x1B64 JUMP JUMPDEST STOP JUMPDEST CALLVALUE DUP1 ISZERO PUSH2 0x8E5 JUMPI PUSH1 0x0 DUP1 REVERT JUMPDEST POP PUSH2 0x900 PUSH1 0x4 DUP1 CALLDATASIZE SUB DUP2 ADD SWAP1 PUSH2 0x8FB SWAP2 SWAP1 PUSH2 0x3D0D JUMP JUMPDEST PUSH2 0x1FFA JUMP JUMPDEST STOP JUMPDEST CALLVALUE DUP1 ISZERO PUSH2 0x90E JUMPI PUSH1 0x0 DUP1 REVERT JUMPDEST POP PUSH2 0x917 PUSH2 0x20AF JUMP JUMPDEST STOP JUMPDEST CALLVALUE DUP1 ISZERO PUSH2 0x925 JUMPI PUSH1 0x0 DUP1 REVERT JUMPDEST POP PUSH2 0x92E PUSH2 0x23B2 JUMP JUMPDEST PUSH1 0x40 MLOAD PUSH2 0x93B SWAP2 SWAP1 PUSH2 0x3BFB JUMP JUMPDEST PUSH1 0x40 MLOAD DUP1 SWAP2 SUB SWAP1 RETURN JUMPDEST CALLVALUE DUP1 ISZERO PUSH2 0x950 JUMPI PUSH1 0x0 DUP1 REVERT JUMPDEST POP PUSH2 0x96B PUSH1 0x4 DUP1 CALLDATASIZE SUB DUP2 ADD SWAP1 PUSH2 0x966 SWAP2 SWAP1 PUSH2 0x3D78 JUMP JUMPDEST PUSH2 0x23B8 JUMP JUMPDEST PUSH1 0x40 MLOAD PUSH2 0x983 SWAP13 SWAP12 SWAP11 SWAP10 SWAP9 SWAP8 SWAP7 SWAP6 SWAP5 SWAP4 SWAP3 SWAP2 SWAP1 PUSH2 0x3EF6 JUMP JUMPDEST PUSH1 0x40 MLOAD DUP1 SWAP2 SUB SWAP1 RETURN JUMPDEST CALLVALUE DUP1 ISZERO PUSH2 0x998 JUMPI PUSH1 0x0 DUP1 REVERT JUMPDEST POP PUSH2 0x9B3 PUSH1 0x4 DUP1 CALLDATASIZE SUB DUP2 ADD SWAP1 PUSH2 0x9AE SWAP2 SWAP1 PUSH2 0x3D78 JUMP JUMPDEST PUSH2 0x2735 JUMP JUMPDEST PUSH1 0x40 MLOAD PUSH2 0x9C0 SWAP2 SWAP1 PUSH2 0x3BFB JUMP JUMPDEST PUSH1 0x40 MLOAD DUP1 SWAP2 SUB SWAP1 RETURN JUMPDEST CALLVALUE DUP1 ISZERO PUSH2 0x9D5 JUMPI PUSH1 0x0 DUP1 REVERT JUMPDEST POP PUSH2 0x9DE PUSH2 0x27A8 JUMP JUMPDEST PUSH1 0x40 MLOAD PUSH2 0x9EB SWAP2 SWAP1 PUSH2 0x3BFB JUMP JUMPDEST PUSH1 0x40 MLOAD DUP1 SWAP2 SUB SWAP1 RETURN JUMPDEST CALLVALUE DUP1 ISZERO PUSH2 0xA00 JUMPI PUSH1 0x0 DUP1 REVERT JUMPDEST POP PUSH2 0xA09 PUSH2 0x27AE JUMP JUMPDEST PUSH1 0x40 MLOAD PUSH2 0xA16 SWAP2 SWAP1 PUSH2 0x3BFB JUMP JUMPDEST PUSH1 0x40 MLOAD DUP1 SWAP2 SUB SWAP1 RETURN JUMPDEST CALLVALUE DUP1 ISZERO PUSH2 0xA2B JUMPI PUSH1 0x0 DUP1 REVERT JUMPDEST POP PUSH2 0xA46 PUSH1 0x4 DUP1 CALLDATASIZE SUB DUP2 ADD SWAP1 PUSH2 0xA41 SWAP2 SWAP1 PUSH2 0x3D0D JUMP JUMPDEST PUSH2 0x27B4 JUMP JUMPDEST STOP JUMPDEST CALLVALUE DUP1 ISZERO PUSH2 0xA54 JUMPI PUSH1 0x0 DUP1 REVERT JUMPDEST POP PUSH2 0xA5D PUSH2 0x286A JUMP JUMPDEST PUSH1 0x40 MLOAD PUSH2 0xA6A SWAP2 SWAP1 PUSH2 0x3BFB JUMP JUMPDEST PUSH1 0x40 MLOAD DUP1 SWAP2 SUB SWAP1 RETURN JUMPDEST CALLVALUE DUP1 ISZERO PUSH2 0xA7F JUMPI PUSH1 0x0 DUP1 REVERT JUMPDEST POP PUSH2 0xA9A PUSH1 0x4 DUP1 CALLDATASIZE SUB DUP2 ADD SWAP1 PUSH2 0xA95 SWAP2 SWAP1 PUSH2 0x3D0D JUMP JUMPDEST PUSH2 0x2870 JUMP JUMPDEST STOP JUMPDEST CALLVALUE DUP1 ISZERO PUSH2 0xAA8 JUMPI PUSH1 0x0 DUP1 REVERT JUMPDEST POP PUSH2 0xAC3 PUSH1 0x4 DUP1 CALLDATASIZE SUB DUP2 ADD SWAP1 PUSH2 0xABE SWAP2 SWAP1 PUSH2 0x3D0D JUMP JUMPDEST PUSH2 0x2918 JUMP JUMPDEST STOP JUMPDEST CALLVALUE DUP1 ISZERO PUSH2 0xAD1 JUMPI PUSH1 0x0 DUP1 REVERT JUMPDEST POP PUSH2 0xADA PUSH2 0x29C9 JUMP JUMPDEST PUSH1 0x40 MLOAD PUSH2 0xAE7 SWAP2 SWAP1 PUSH2 0x3C57 JUMP JUMPDEST PUSH1 0x40 MLOAD DUP1 SWAP2 SUB SWAP1 RETURN JUMPDEST CALLVALUE DUP1 ISZERO PUSH2 0xAFC JUMPI PUSH1 0x0 DUP1 REVERT JUMPDEST POP PUSH2 0xB05 PUSH2 0x29EF JUMP JUMPDEST PUSH1 0x40 MLOAD PUSH2 0xB12 SWAP2 SWAP1 PUSH2 0x3BFB JUMP JUMPDEST PUSH1 0x40 MLOAD DUP1 SWAP2 SUB SWAP1 RETURN JUMPDEST CALLVALUE DUP1 ISZERO PUSH2 0xB27 JUMPI PUSH1 0x0 DUP1 REVERT JUMPDEST POP PUSH2 0xB30 PUSH2 0x29F5 JUMP JUMPDEST PUSH1 0x40 MLOAD PUSH2 0xB3D SWAP2 SWAP1 PUSH2 0x3BFB JUMP JUMPDEST PUSH1 0x40 MLOAD DUP1 SWAP2 SUB SWAP1 RETURN JUMPDEST CALLVALUE DUP1 ISZERO PUSH2 0xB52 JUMPI PUSH1 0x0 DUP1 REVERT JUMPDEST POP PUSH2 0xB6D PUSH1 0x4 DUP1 CALLDATASIZE SUB DUP2 ADD SWAP1 PUSH2 0xB68 SWAP2 SWAP1 PUSH2 0x3D0D JUMP JUMPDEST PUSH2 0x29FB JUMP JUMPDEST PUSH1 0x40 MLOAD PUSH2 0xB7A SWAP2 SWAP1 PUSH2 0x3BFB JUMP JUMPDEST PUSH1 0x40 MLOAD DUP1 SWAP2 SUB SWAP1 RETURN JUMPDEST CALLVALUE DUP1 ISZERO PUSH2 0xB8F JUMPI PUSH1 0x0 DUP1 REVERT JUMPDEST POP PUSH2 0xBAA PUSH1 0x4 DUP1 CALLDATASIZE SUB DUP2 ADD SWAP1 PUSH2 0xBA5 SWAP2 SWAP1 PUSH2 0x3D0D JUMP JUMPDEST PUSH2 0x2A15 JUMP JUMPDEST STOP JUMPDEST CALLVALUE DUP1 ISZERO PUSH2 0xBB8 JUMPI PUSH1 0x0 DUP1 REVERT JUMPDEST POP PUSH2 0xBC1 PUSH2 0x2AD0 JUMP JUMPDEST PUSH1 0x40 MLOAD PUSH2 0xBCE SWAP2 SWAP1 PUSH2 0x3C57 JUMP JUMPDEST PUSH1 0x40 MLOAD DUP1 SWAP2 SUB SWAP1 RETURN JUMPDEST CALLVALUE DUP1 ISZERO PUSH2 0xBE3 JUMPI PUSH1 0x0 DUP1 REVERT JUMPDEST POP PUSH2 0xBEC PUSH2 0x2AF6 JUMP JUMPDEST PUSH1 0x40 MLOAD PUSH2 0xBF9 SWAP2 SWAP1 PUSH2 0x3BFB JUMP JUMPDEST PUSH1 0x40 MLOAD DUP1 SWAP2 SUB SWAP1 RETURN JUMPDEST CALLVALUE DUP1 ISZERO PUSH2 0xC0E JUMPI PUSH1 0x0 DUP1 REVERT JUMPDEST POP PUSH2 0xC17 PUSH2 0x2AFC JUMP JUMPDEST PUSH1 0x40 MLOAD PUSH2 0xC24 SWAP2 SWAP1 PUSH2 0x3C57 JUMP JUMPDEST PUSH1 0x40 MLOAD DUP1 SWAP2 SUB SWAP1 RETURN JUMPDEST CALLVALUE DUP1 ISZERO PUSH2 0xC39 JUMPI PUSH1 0x0 DUP1 REVERT JUMPDEST POP PUSH2 0xC42 PUSH2 0x2B22 JUMP JUMPDEST PUSH1 0x40 MLOAD PUSH2 0xC4F SWAP2 SWAP1 PUSH2 0x3FB0 JUMP JUMPDEST PUSH1 0x40 MLOAD DUP1 SWAP2 SUB SWAP1 RETURN JUMPDEST CALLVALUE DUP1 ISZERO PUSH2 0xC64 JUMPI PUSH1 0x0 DUP1 REVERT JUMPDEST POP PUSH2 0xC7F PUSH1 0x4 DUP1 CALLDATASIZE SUB DUP2 ADD SWAP1 PUSH2 0xC7A SWAP2 SWAP1 PUSH2 0x3D0D JUMP JUMPDEST PUSH2 0x2B48 JUMP JUMPDEST PUSH1 0x40 MLOAD PUSH2 0xC8C SWAP2 SWAP1 PUSH2 0x3BFB JUMP JUMPDEST PUSH1 0x40 MLOAD DUP1 SWAP2 SUB SWAP1 RETURN JUMPDEST CALLVALUE DUP1 ISZERO PUSH2 0xCA1 JUMPI PUSH1 0x0 DUP1 REVERT JUMPDEST POP PUSH2 0xCAA PUSH2 0x2B65 JUMP JUMPDEST PUSH1 0x40 MLOAD PUSH2 0xCB7 SWAP2 SWAP1 PUSH2 0x3BFB JUMP JUMPDEST PUSH1 0x40 MLOAD DUP1 SWAP2 SUB SWAP1 RETURN JUMPDEST CALLVALUE DUP1 ISZERO PUSH2 0xCCC JUMPI PUSH1 0x0 DUP1 REVERT JUMPDEST POP PUSH2 0xCE7 PUSH1 0x4 DUP1 CALLDATASIZE SUB DUP2 ADD SWAP1 PUSH2 0xCE2 SWAP2 SWAP1 PUSH2 0x3D0D JUMP JUMPDEST PUSH2 0x2B6B JUMP JUMPDEST STOP JUMPDEST CALLVALUE DUP1 ISZERO PUSH2 0xCF5 JUMPI PUSH1 0x0 DUP1 REVERT JUMPDEST POP PUSH2 0xD10 PUSH1 0x4 DUP1 CALLDATASIZE SUB DUP2 ADD SWAP1 PUSH2 0xD0B SWAP2 SWAP1 PUSH2 0x3D0D JUMP JUMPDEST PUSH2 0x2C2A JUMP JUMPDEST STOP JUMPDEST CALLVALUE DUP1 ISZERO PUSH2 0xD1E JUMPI PUSH1 0x0 DUP1 REVERT JUMPDEST POP PUSH2 0xD39 PUSH1 0x4 DUP1 CALLDATASIZE SUB DUP2 ADD SWAP1 PUSH2 0xD34 SWAP2 SWAP1 PUSH2 0x3D78 JUMP JUMPDEST PUSH2 0x2CD2 JUMP JUMPDEST PUSH1 0x40 MLOAD PUSH2 0xD46 SWAP2 SWAP1 PUSH2 0x3BFB JUMP JUMPDEST PUSH1 0x40 MLOAD DUP1 SWAP2 SUB SWAP1 RETURN JUMPDEST CALLVALUE DUP1 ISZERO PUSH2 0xD5B JUMPI PUSH1 0x0 DUP1 REVERT JUMPDEST POP PUSH2 0xD76 PUSH1 0x4 DUP1 CALLDATASIZE SUB DUP2 ADD SWAP1 PUSH2 0xD71 SWAP2 SWAP1 PUSH2 0x3CB4 JUMP JUMPDEST PUSH2 0x2CEA JUMP JUMPDEST STOP JUMPDEST CALLVALUE DUP1 ISZERO PUSH2 0xD84 JUMPI PUSH1 0x0 DUP1 REVERT JUMPDEST POP PUSH2 0xD8D PUSH2 0x2D97 JUMP JUMPDEST PUSH1 0x40 MLOAD PUSH2 0xD9A SWAP2 SWAP1 PUSH2 0x3C57 JUMP JUMPDEST PUSH1 0x40 MLOAD DUP1 SWAP2 SUB SWAP1 RETURN JUMPDEST CALLVALUE DUP1 ISZERO PUSH2 0xDAF JUMPI PUSH1 0x0 DUP1 REVERT JUMPDEST POP PUSH2 0xDCA PUSH1 0x4 DUP1 CALLDATASIZE SUB DUP2 ADD SWAP1 PUSH2 0xDC5 SWAP2 SWAP1 PUSH2 0x3D78 JUMP JUMPDEST PUSH2 0x2DBD JUMP JUMPDEST PUSH1 0x40 MLOAD PUSH2 0xDE2 SWAP13 SWAP12 SWAP11 SWAP10 SWAP9 SWAP8 SWAP7 SWAP6 SWAP5 SWAP4 SWAP3 SWAP2 SWAP1 PUSH2 0x3EF6 JUMP JUMPDEST PUSH1 0x40 MLOAD DUP1 SWAP2 SUB SWAP1 RETURN JUMPDEST CALLVALUE DUP1 ISZERO PUSH2 0xDF7 JUMPI PUSH1 0x0 DUP1 REVERT JUMPDEST POP PUSH2 0xE12 PUSH1 0x4 DUP1 CALLDATASIZE SUB DUP2 ADD SWAP1 PUSH2 0xE0D SWAP2 SWAP1 PUSH2 0x3D78 JUMP JUMPDEST PUSH2 0x2E3D JUMP JUMPDEST PUSH1 0x40 MLOAD PUSH2 0xE1F SWAP2 SWAP1 PUSH2 0x3BFB JUMP JUMPDEST PUSH1 0x40 MLOAD DUP1 SWAP2 SUB SWAP1 RETURN JUMPDEST CALLVALUE DUP1 ISZERO PUSH2 0xE34 JUMPI PUSH1 0x0 DUP1 REVERT JUMPDEST POP PUSH2 0xE3D PUSH2 0x2E55 JUMP JUMPDEST PUSH1 0x40 MLOAD PUSH2 0xE4A SWAP2 SWAP1 PUSH2 0x3E47 JUMP JUMPDEST PUSH1 0x40 MLOAD DUP1 SWAP2 SUB SWAP1 RETURN JUMPDEST PUSH2 0xE5B PUSH2 0x2E68 JUMP JUMPDEST STOP JUMPDEST CALLVALUE DUP1 ISZERO PUSH2 0xE69 JUMPI PUSH1 0x0 DUP1 REVERT JUMPDEST POP PUSH2 0xE84 PUSH1 0x4 DUP1 CALLDATASIZE SUB DUP2 ADD SWAP1 PUSH2 0xE7F SWAP2 SWAP1 PUSH2 0x3D0D JUMP JUMPDEST PUSH2 0x2E6A JUMP JUMPDEST PUSH1 0x40 MLOAD PUSH2 0xE92 SWAP3 SWAP2 SWAP1 PUSH2 0x3FCB JUMP JUMPDEST PUSH1 0x40 MLOAD DUP1 SWAP2 SUB SWAP1 RETURN JUMPDEST CALLVALUE DUP1 ISZERO PUSH2 0xEA7 JUMPI PUSH1 0x0 DUP1 REVERT JUMPDEST POP PUSH2 0xEC2 PUSH1 0x4 DUP1 CALLDATASIZE SUB DUP2 ADD SWAP1 PUSH2 0xEBD SWAP2 SWAP1 PUSH2 0x3D0D JUMP JUMPDEST PUSH2 0x2EFC JUMP JUMPDEST STOP JUMPDEST CALLVALUE DUP1 ISZERO PUSH2 0xED0 JUMPI PUSH1 0x0 DUP1 REVERT JUMPDEST POP PUSH2 0xEEB PUSH1 0x4 DUP1 CALLDATASIZE SUB DUP2 ADD SWAP1 PUSH2 0xEE6 SWAP2 SWAP1 PUSH2 0x3D78 JUMP JUMPDEST PUSH2 0x2FA5 JUMP JUMPDEST PUSH1 0x40 MLOAD PUSH2 0xEF8 SWAP2 SWAP1 PUSH2 0x3E47 JUMP JUMPDEST PUSH1 0x40 MLOAD DUP1 SWAP2 SUB SWAP1 RETURN JUMPDEST CALLVALUE DUP1 ISZERO PUSH2 0xF0D JUMPI PUSH1 0x0 DUP1 REVERT JUMPDEST POP PUSH2 0xF16 PUSH2 0x308B JUMP JUMPDEST PUSH1 0x40 MLOAD PUSH2 0xF23 SWAP2 SWAP1 PUSH2 0x3BFB JUMP JUMPDEST PUSH1 0x40 MLOAD DUP1 SWAP2 SUB SWAP1 RETURN JUMPDEST CALLVALUE DUP1 ISZERO PUSH2 0xF38 JUMPI PUSH1 0x0 DUP1 REVERT JUMPDEST POP PUSH2 0xF41 PUSH2 0x3091 JUMP JUMPDEST PUSH1 0x40 MLOAD PUSH2 0xF4E SWAP2 SWAP1 PUSH2 0x3BFB JUMP JUMPDEST PUSH1 0x40 MLOAD DUP1 SWAP2 SUB SWAP1 RETURN JUMPDEST CALLVALUE DUP1 ISZERO PUSH2 0xF63 JUMPI PUSH1 0x0 DUP1 REVERT JUMPDEST POP PUSH2 0xF7E PUSH1 0x4 DUP1 CALLDATASIZE SUB DUP2 ADD SWAP1 PUSH2 0xF79 SWAP2 SWAP1 PUSH2 0x3DF8 JUMP JUMPDEST PUSH2 0x3097 JUMP JUMPDEST PUSH1 0x40 MLOAD PUSH2 0xF8B SWAP2 SWAP1 PUSH2 0x3BFB JUMP JUMPDEST PUSH1 0x40 MLOAD DUP1 SWAP2 SUB SWAP1 RETURN JUMPDEST CALLVALUE DUP1 ISZERO PUSH2 0xFA0 JUMPI PUSH1 0x0 DUP1 REVERT JUMPDEST POP PUSH2 0xFA9 PUSH2 0x30C7 JUMP JUMPDEST PUSH1 0x40 MLOAD PUSH2 0xFB6 SWAP2 SWAP1 PUSH2 0x3BFB JUMP JUMPDEST PUSH1 0x40 MLOAD DUP1 SWAP2 SUB SWAP1 RETURN JUMPDEST CALLVALUE DUP1 ISZERO PUSH2 0xFCB JUMPI PUSH1 0x0 DUP1 REVERT JUMPDEST POP PUSH2 0xFD4 PUSH2 0x30CD JUMP JUMPDEST PUSH1 0x40 MLOAD PUSH2 0xFE1 SWAP2 SWAP1 PUSH2 0x3BFB JUMP JUMPDEST PUSH1 0x40 MLOAD DUP1 SWAP2 SUB SWAP1 RETURN JUMPDEST CALLVALUE DUP1 ISZERO PUSH2 0xFF6 JUMPI PUSH1 0x0 DUP1 REVERT JUMPDEST POP PUSH2 0x1011 PUSH1 0x4 DUP1 CALLDATASIZE SUB DUP2 ADD SWAP1 PUSH2 0x100C SWAP2 SWAP1 PUSH2 0x3D78 JUMP JUMPDEST PUSH2 0x30D3 JUMP JUMPDEST PUSH1 0x40 MLOAD PUSH2 0x101E SWAP2 SWAP1 PUSH2 0x3BFB JUMP JUMPDEST PUSH1 0x40 MLOAD DUP1 SWAP2 SUB SWAP1 RETURN JUMPDEST CALLVALUE DUP1 ISZERO PUSH2 0x1033 JUMPI PUSH1 0x0 DUP1 REVERT JUMPDEST POP PUSH2 0x104E PUSH1 0x4 DUP1 CALLDATASIZE SUB DUP2 ADD SWAP1 PUSH2 0x1049 SWAP2 SWAP1 PUSH2 0x3FF4 JUMP JUMPDEST PUSH2 0x31AC JUMP JUMPDEST STOP JUMPDEST CALLVALUE DUP1 ISZERO PUSH2 0x105C JUMPI PUSH1 0x0 DUP1 REVERT JUMPDEST POP PUSH2 0x1065 PUSH2 0x3297 JUMP JUMPDEST PUSH1 0x40 MLOAD PUSH2 0x1072 SWAP2 SWAP1 PUSH2 0x3BFB JUMP JUMPDEST PUSH1 0x40 MLOAD DUP1 SWAP2 SUB SWAP1 RETURN JUMPDEST PUSH2 0x1095 PUSH1 0x4 DUP1 CALLDATASIZE SUB DUP2 ADD SWAP1 PUSH2 0x1090 SWAP2 SWAP1 PUSH2 0x3D78 JUMP JUMPDEST PUSH2 0x329F JUMP JUMPDEST STOP JUMPDEST CALLVALUE DUP1 ISZERO PUSH2 0x10A3 JUMPI PUSH1 0x0 DUP1 REVERT JUMPDEST POP PUSH2 0x10BE PUSH1 0x4 DUP1 CALLDATASIZE SUB DUP2 ADD SWAP1 PUSH2 0x10B9 SWAP2 SWAP1 PUSH2 0x3D0D JUMP JUMPDEST PUSH2 0x338C JUMP JUMPDEST STOP JUMPDEST CALLVALUE DUP1 ISZERO PUSH2 0x10CC JUMPI PUSH1 0x0 DUP1 REVERT JUMPDEST POP PUSH2 0x10E7 PUSH1 0x4 DUP1 CALLDATASIZE SUB DUP2 ADD SWAP1 PUSH2 0x10E2 SWAP2 SWAP1 PUSH2 0x3D0D JUMP JUMPDEST PUSH2 0x3445 JUMP JUMPDEST STOP JUMPDEST CALLVALUE DUP1 ISZERO PUSH2 0x10F5 JUMPI PUSH1 0x0 DUP1 REVERT JUMPDEST POP PUSH2 0x1110 PUSH1 0x4 DUP1 CALLDATASIZE SUB DUP2 ADD SWAP1 PUSH2 0x110B SWAP2 SWAP1 PUSH2 0x4099 JUMP JUMPDEST PUSH2 0x34ED JUMP JUMPDEST STOP JUMPDEST CALLVALUE DUP1 ISZERO PUSH2 0x111E JUMPI PUSH1 0x0 DUP1 REVERT JUMPDEST POP PUSH2 0x1127 PUSH2 0x3622 JUMP JUMPDEST PUSH1 0x40 MLOAD PUSH2 0x1134 SWAP2 SWAP1 PUSH2 0x3BFB JUMP JUMPDEST PUSH1 0x40 MLOAD DUP1 SWAP2 SUB SWAP1 RETURN JUMPDEST CALLVALUE DUP1 ISZERO PUSH2 0x1149 JUMPI PUSH1 0x0 DUP1 REVERT JUMPDEST POP PUSH2 0x1164 PUSH1 0x4 DUP1 CALLDATASIZE SUB DUP2 ADD SWAP1 PUSH2 0x115F SWAP2 SWAP1 PUSH2 0x3D78 JUMP JUMPDEST PUSH2 0x3628 JUMP JUMPDEST PUSH1 0x40 MLOAD PUSH2 0x1171 SWAP2 SWAP1 PUSH2 0x3E47 JUMP JUMPDEST PUSH1 0x40 MLOAD DUP1 SWAP2 SUB SWAP1 RETURN JUMPDEST PUSH1 0x2 SLOAD DUP2 JUMP JUMPDEST PUSH1 0xB SLOAD DUP2 JUMP JUMPDEST PUSH1 0x20 PUSH1 0x0 SWAP1 SLOAD SWAP1 PUSH2 0x100 EXP SWAP1 DIV PUSH20 0xFFFFFFFFFFFFFFFFFFFFFFFFFFFFFFFFFFFFFFFF AND DUP2 JUMP JUMPDEST PUSH1 0x0 PUSH1 0x23 PUSH1 0x0 CALLER PUSH20 0xFFFFFFFFFFFFFFFFFFFFFFFFFFFFFFFFFFFFFFFF AND PUSH20 0xFFFFFFFFFFFFFFFFFFFFFFFFFFFFFFFFFFFFFFFF AND DUP2 MSTORE PUSH1 0x20 ADD SWAP1 DUP2 MSTORE PUSH1 0x20 ADD PUSH1 0x0 KECCAK256 PUSH1 0x2 ADD SLOAD SWAP1 POP SWAP1 JUMP JUMPDEST PUSH1 0x0 SELFBALANCE SWAP1 POP SWAP1 JUMP JUMPDEST PUSH1 0x7 SLOAD DUP2 JUMP JUMPDEST PUSH1 0x0 PUSH1 0x23 PUSH1 0x0 CALLER PUSH20 0xFFFFFFFFFFFFFFFFFFFFFFFFFFFFFFFFFFFFFFFF AND PUSH20 0xFFFFFFFFFFFFFFFFFFFFFFFFFFFFFFFFFFFFFFFF AND DUP2 MSTORE PUSH1 0x20 ADD SWAP1 DUP2 MSTORE PUSH1 0x20 ADD PUSH1 0x0 KECCAK256 SWAP1 POP PUSH1 0x15 PUSH1 0x0 SWAP1 SLOAD SWAP1 PUSH2 0x100 EXP SWAP1 DIV PUSH1 0xFF AND PUSH2 0x1296 JUMPI PUSH1 0x40 MLOAD PUSH32 0x8C379A000000000000000000000000000000000000000000000000000000000 DUP2 MSTORE PUSH1 0x4 ADD PUSH2 0x128D SWAP1 PUSH2 0x4156 JUMP JUMPDEST PUSH1 0x40 MLOAD DUP1 SWAP2 SUB SWAP1 REVERT JUMPDEST PUSH1 0x0 PUSH2 0x12A0 PUSH2 0x189A JUMP JUMPDEST SWAP1 POP PUSH1 0x0 DUP2 SWAP1 POP DUP4 ISZERO PUSH2 0x131A JUMPI PUSH1 0x0 PUSH2 0x12B9 CALLER DUP4 PUSH2 0x1A7D JUMP JUMPDEST SWAP1 POP PUSH2 0x12CE DUP2 DUP4 PUSH2 0x3648 SWAP1 SWAP2 SWAP1 PUSH4 0xFFFFFFFF AND JUMP JUMPDEST SWAP2 POP PUSH1 0x0 PUSH2 0x12DB DUP4 PUSH2 0x2B48 JUMP JUMPDEST SWAP1 POP PUSH2 0x12F4 DUP2 DUP7 PUSH1 0x1 ADD SLOAD PUSH2 0x3648 SWAP1 SWAP2 SWAP1 PUSH4 0xFFFFFFFF AND JUMP JUMPDEST DUP6 PUSH1 0x1 ADD DUP2 SWAP1 SSTORE POP PUSH2 0x1311 DUP2 PUSH1 0xF SLOAD PUSH2 0x3648 SWAP1 SWAP2 SWAP1 PUSH4 0xFFFFFFFF AND JUMP JUMPDEST PUSH1 0xF DUP2 SWAP1 SSTORE POP POP POP JUMPDEST PUSH1 0xA SLOAD PUSH2 0x1334 DUP5 PUSH1 0x4 ADD SLOAD TIMESTAMP PUSH2 0x3674 SWAP1 SWAP2 SWAP1 PUSH4 0xFFFFFFFF AND JUMP JUMPDEST LT PUSH2 0x141F JUMPI PUSH1 0x9 SLOAD DUP4 PUSH1 0x9 ADD SLOAD LT ISZERO PUSH2 0x13FE JUMPI PUSH2 0x135F PUSH1 0x1 DUP5 PUSH1 0x9 ADD SLOAD PUSH2 0x3648 SWAP1 SWAP2 SWAP1 PUSH4 0xFFFFFFFF AND JUMP JUMPDEST DUP4 PUSH1 0x9 ADD DUP2 SWAP1 SSTORE POP PUSH2 0x13BA PUSH1 0x2 PUSH1 0x19 PUSH1 0x0 CALLER PUSH20 0xFFFFFFFFFFFFFFFFFFFFFFFFFFFFFFFFFFFFFFFF AND PUSH20 0xFFFFFFFFFFFFFFFFFFFFFFFFFFFFFFFFFFFFFFFF AND DUP2 MSTORE PUSH1 0x20 ADD SWAP1 DUP2 MSTORE PUSH1 0x20 ADD PUSH1 0x0 KECCAK256 SLOAD PUSH2 0x3648 SWAP1 SWAP2 SWAP1 PUSH4 0xFFFFFFFF AND JUMP JUMPDEST PUSH1 0x19 PUSH1 0x0 CALLER PUSH20 0xFFFFFFFFFFFFFFFFFFFFFFFFFFFFFFFFFFFFFFFF AND PUSH20 0xFFFFFFFFFFFFFFFFFFFFFFFFFFFFFFFFFFFFFFFF AND DUP2 MSTORE PUSH1 0x20 ADD SWAP1 DUP2 MSTORE PUSH1 0x20 ADD PUSH1 0x0 KECCAK256 DUP2 SWAP1 SSTORE POP JUMPDEST PUSH2 0x1416 PUSH1 0x1 DUP5 PUSH1 0xA ADD SLOAD PUSH2 0x3648 SWAP1 SWAP2 SWAP1 PUSH4 0xFFFFFFFF AND JUMP JUMPDEST DUP4 PUSH1 0xA ADD DUP2 SWAP1 SSTORE POP JUMPDEST PUSH2 0x144A PUSH2 0x1437 PUSH1 0x0 SLOAD DUP4 PUSH2 0x369B SWAP1 SWAP2 SWAP1 PUSH4 0xFFFFFFFF AND JUMP JUMPDEST DUP5 PUSH1 0x2 ADD SLOAD PUSH2 0x3648 SWAP1 SWAP2 SWAP1 PUSH4 0xFFFFFFFF AND JUMP JUMPDEST DUP4 PUSH1 0x2 ADD DUP2 SWAP1 SSTORE POP PUSH1 0x0 DUP4 PUSH1 0x3 ADD DUP2 SWAP1 SSTORE POP TIMESTAMP DUP4 PUSH1 0x4 ADD DUP2 SWAP1 SSTORE POP PUSH2 0x148E PUSH2 0x147D PUSH1 0x5 SLOAD DUP5 PUSH2 0x369B SWAP1 SWAP2 SWAP1 PUSH4 0xFFFFFFFF AND JUMP JUMPDEST PUSH1 0x12 SLOAD PUSH2 0x3648 SWAP1 SWAP2 SWAP1 PUSH4 0xFFFFFFFF AND JUMP JUMPDEST PUSH1 0x12 DUP2 SWAP1 SSTORE POP POP POP POP POP JUMP JUMPDEST PUSH1 0x0 SLOAD DUP2 JUMP JUMPDEST PUSH1 0x1C PUSH1 0x0 SWAP1 SLOAD SWAP1 PUSH2 0x100 EXP SWAP1 DIV PUSH20 0xFFFFFFFFFFFFFFFFFFFFFFFFFFFFFFFFFFFFFFFF AND PUSH20 0xFFFFFFFFFFFFFFFFFFFFFFFFFFFFFFFFFFFFFFFF AND CALLER PUSH20 0xFFFFFFFFFFFFFFFFFFFFFFFFFFFFFFFFFFFFFFFF AND EQ PUSH2 0x1530 JUMPI PUSH1 0x40 MLOAD PUSH32 0x8C379A000000000000000000000000000000000000000000000000000000000 DUP2 MSTORE PUSH1 0x4 ADD PUSH2 0x1527 SWAP1 PUSH2 0x41C2 JUMP JUMPDEST PUSH1 0x40 MLOAD DUP1 SWAP2 SUB SWAP1 REVERT JUMPDEST PUSH1 0x14 DUP2 GT ISZERO PUSH2 0x153E JUMPI PUSH1 0x0 DUP1 REVERT JUMPDEST DUP1 PUSH1 0x4 DUP2 SWAP1 SSTORE POP POP JUMP JUMPDEST PUSH1 0x18 PUSH1 0x20 MSTORE DUP1 PUSH1 0x0 MSTORE PUSH1 0x40 PUSH1 0x0 KECCAK256 PUSH1 0x0 SWAP2 POP SWAP1 POP SLOAD DUP2 JUMP JUMPDEST PUSH1 0x0 PUSH2 0x15AA PUSH2 0x1571 PUSH1 0x13 SLOAD DUP5 PUSH2 0x36B6 JUMP JUMPDEST PUSH2 0x15A5 PUSH1 0x14 SLOAD PUSH2 0x15A0 PUSH2 0x159A PUSH2 0x1589 PUSH1 0x13 SLOAD DUP11 PUSH2 0x36B6 JUMP JUMPDEST PUSH2 0x1595 PUSH1 0x14 SLOAD DUP13 PUSH2 0x36B6 JUMP JUMPDEST PUSH2 0x3648 JUMP JUMPDEST DUP10 PUSH2 0x369B JUMP JUMPDEST PUSH2 0x3648 JUMP JUMPDEST PUSH2 0x369B JUMP JUMPDEST SWAP1 POP SWAP4 SWAP3 POP POP POP JUMP JUMPDEST PUSH1 0x1F PUSH1 0x0 SWAP1 SLOAD SWAP1 PUSH2 0x100 EXP SWAP1 DIV PUSH20 0xFFFFFFFFFFFFFFFFFFFFFFFFFFFFFFFFFFFFFFFF AND DUP2 JUMP JUMPDEST PUSH1 0x0 PUSH2 0x15E8 DUP4 DUP4 PUSH1 0x12 SLOAD PUSH2 0x1560 JUMP JUMPDEST SWAP1 POP SWAP3 SWAP2 POP POP JUMP JUMPDEST PUSH1 0x1C PUSH1 0x0 SWAP1 SLOAD SWAP1 PUSH2 0x100 EXP SWAP1 DIV PUSH20 0xFFFFFFFFFFFFFFFFFFFFFFFFFFFFFFFFFFFFFFFF AND PUSH20 0xFFFFFFFFFFFFFFFFFFFFFFFFFFFFFFFFFFFFFFFF AND CALLER PUSH20 0xFFFFFFFFFFFFFFFFFFFFFFFFFFFFFFFFFFFFFFFF AND EQ PUSH2 0x1680 JUMPI PUSH1 0x40 MLOAD PUSH32 0x8C379A000000000000000000000000000000000000000000000000000000000 DUP2 MSTORE PUSH1 0x4 ADD PUSH2 0x1677 SWAP1 PUSH2 0x41C2 JUMP JUMPDEST PUSH1 0x40 MLOAD DUP1 SWAP2 SUB SWAP1 REVERT JUMPDEST PUSH1 0xF DUP2 GT ISZERO PUSH2 0x168E JUMPI PUSH1 0x0 DUP1 REVERT JUMPDEST DUP1 PUSH1 0x3 DUP2 SWAP1 SSTORE POP POP JUMP JUMPDEST PUSH1 0x1C PUSH1 0x0 SWAP1 SLOAD SWAP1 PUSH2 0x100 EXP SWAP1 DIV PUSH20 0xFFFFFFFFFFFFFFFFFFFFFFFFFFFFFFFFFFFFFFFF AND PUSH20 0xFFFFFFFFFFFFFFFFFFFFFFFFFFFFFFFFFFFFFFFF AND CALLER PUSH20 0xFFFFFFFFFFFFFFFFFFFFFFFFFFFFFFFFFFFFFFFF AND EQ PUSH2 0x1728 JUMPI PUSH1 0x40 MLOAD PUSH32 0x8C379A000000000000000000000000000000000000000000000000000000000 DUP2 MSTORE PUSH1 0x4 ADD PUSH2 0x171F SWAP1 PUSH2 0x41C2 JUMP JUMPDEST PUSH1 0x40 MLOAD DUP1 SWAP2 SUB SWAP1 REVERT JUMPDEST DUP1 PUSH1 0x1C PUSH1 0x0 PUSH2 0x100 EXP DUP2 SLOAD DUP2 PUSH20 0xFFFFFFFFFFFFFFFFFFFFFFFFFFFFFFFFFFFFFFFF MUL NOT AND SWAP1 DUP4 PUSH20 0xFFFFFFFFFFFFFFFFFFFFFFFFFFFFFFFFFFFFFFFF AND MUL OR SWAP1 SSTORE POP POP JUMP JUMPDEST PUSH1 0x4 SLOAD DUP2 JUMP JUMPDEST PUSH1 0x12 SLOAD DUP2 JUMP JUMPDEST PUSH1 0x15 PUSH1 0x0 SWAP1 SLOAD SWAP1 PUSH2 0x100 EXP SWAP1 DIV PUSH1 0xFF AND DUP2 JUMP JUMPDEST PUSH1 0x1A SLOAD DUP2 JUMP JUMPDEST PUSH1 0x1C PUSH1 0x0 SWAP1 SLOAD SWAP1 PUSH2 0x100 EXP SWAP1 DIV PUSH20 0xFFFFFFFFFFFFFFFFFFFFFFFFFFFFFFFFFFFFFFFF AND PUSH20 0xFFFFFFFFFFFFFFFFFFFFFFFFFFFFFFFFFFFFFFFF AND CALLER PUSH20 0xFFFFFFFFFFFFFFFFFFFFFFFFFFFFFFFFFFFFFFFF AND EQ PUSH2 0x1821 JUMPI PUSH1 0x40 MLOAD PUSH32 0x8C379A000000000000000000000000000000000000000000000000000000000 DUP2 MSTORE PUSH1 0x4 ADD PUSH2 0x1818 SWAP1 PUSH2 0x41C2 JUMP JUMPDEST PUSH1 0x40 MLOAD DUP1 SWAP2 SUB SWAP1 REVERT JUMPDEST PUSH1 0x0 CALLER PUSH20 0xFFFFFFFFFFFFFFFFFFFFFFFFFFFFFFFFFFFFFFFF AND SELFBALANCE PUSH1 0x40 MLOAD PUSH2 0x1847 SWAP1 PUSH2 0x4213 JUMP JUMPDEST PUSH1 0x0 PUSH1 0x40 MLOAD DUP1 DUP4 SUB DUP2 DUP6 DUP8 GAS CALL SWAP3 POP POP POP RETURNDATASIZE DUP1 PUSH1 0x0 DUP2 EQ PUSH2 0x1884 JUMPI PUSH1 0x40 MLOAD SWAP2 POP PUSH1 0x1F NOT PUSH1 0x3F RETURNDATASIZE ADD AND DUP3 ADD PUSH1 0x40 MSTORE RETURNDATASIZE DUP3 MSTORE RETURNDATASIZE PUSH1 0x0 PUSH1 0x20 DUP5 ADD RETURNDATACOPY PUSH2 0x1889 JUMP JUMPDEST PUSH1 0x60 SWAP2 POP JUMPDEST POP POP SWAP1 POP DUP1 PUSH2 0x1897 JUMPI PUSH1 0x0 DUP1 REVERT JUMPDEST POP JUMP JUMPDEST PUSH1 0x0 PUSH2 0x18F9 PUSH2 0x18A8 CALLER PUSH2 0x30D3 JUMP JUMPDEST PUSH1 0x23 PUSH1 0x0 CALLER PUSH20 0xFFFFFFFFFFFFFFFFFFFFFFFFFFFFFFFFFFFFFFFF AND PUSH20 0xFFFFFFFFFFFFFFFFFFFFFFFFFFFFFFFFFFFFFFFF AND DUP2 MSTORE PUSH1 0x20 ADD SWAP1 DUP2 MSTORE PUSH1 0x20 ADD PUSH1 0x0 KECCAK256 PUSH1 0x3 ADD SLOAD PUSH2 0x3648 SWAP1 SWAP2 SWAP1 PUSH4 0xFFFFFFFF AND JUMP JUMPDEST SWAP1 POP SWAP1 JUMP JUMPDEST PUSH1 0x1C PUSH1 0x0 SWAP1 SLOAD SWAP1 PUSH2 0x100 EXP SWAP1 DIV PUSH20 0xFFFFFFFFFFFFFFFFFFFFFFFFFFFFFFFFFFFFFFFF AND PUSH20 0xFFFFFFFFFFFFFFFFFFFFFFFFFFFFFFFFFFFFFFFF AND CALLER PUSH20 0xFFFFFFFFFFFFFFFFFFFFFFFFFFFFFFFFFFFFFFFF AND EQ PUSH2 0x198E JUMPI PUSH1 0x40 MLOAD PUSH32 0x8C379A000000000000000000000000000000000000000000000000000000000 DUP2 MSTORE PUSH1 0x4 ADD PUSH2 0x1985 SWAP1 PUSH2 0x4274 JUMP JUMPDEST PUSH1 0x40 MLOAD DUP1 SWAP2 SUB SWAP1 REVERT JUMPDEST PUSH1 0x18 DUP2 GT ISZERO PUSH2 0x199C JUMPI PUSH1 0x0 DUP1 REVERT JUMPDEST PUSH1 0x3C DUP1 DUP3 PUSH2 0x19AA SWAP2 SWAP1 PUSH2 0x42C3 JUMP JUMPDEST PUSH2 0x19B4 SWAP2 SWAP1 PUSH2 0x42C3 JUMP JUMPDEST PUSH1 0x1B DUP2 SWAP1 SSTORE POP POP JUMP JUMPDEST PUSH1 0x1C PUSH1 0x0 SWAP1 SLOAD SWAP1 PUSH2 0x100 EXP SWAP1 DIV PUSH20 0xFFFFFFFFFFFFFFFFFFFFFFFFFFFFFFFFFFFFFFFF AND PUSH20 0xFFFFFFFFFFFFFFFFFFFFFFFFFFFFFFFFFFFFFFFF AND CALLER PUSH20 0xFFFFFFFFFFFFFFFFFFFFFFFFFFFFFFFFFFFFFFFF AND EQ PUSH2 0x1A4D JUMPI PUSH1 0x40 MLOAD PUSH32 0x8C379A000000000000000000000000000000000000000000000000000000000 DUP2 MSTORE PUSH1 0x4 ADD PUSH2 0x1A44 SWAP1 PUSH2 0x4274 JUMP JUMPDEST PUSH1 0x40 MLOAD DUP1 SWAP2 SUB SWAP1 REVERT JUMPDEST DUP1 PUSH1 0x6 DUP2 SWAP1 SSTORE POP POP JUMP JUMPDEST PUSH1 0x11 SLOAD DUP2 JUMP JUMPDEST PUSH1 0x0 DUP1 PUSH1 0x0 DUP1 PUSH1 0xD SLOAD PUSH1 0xE SLOAD PUSH1 0xF SLOAD PUSH1 0x10 SLOAD SWAP4 POP SWAP4 POP SWAP4 POP SWAP4 POP SWAP1 SWAP2 SWAP3 SWAP4 JUMP JUMPDEST PUSH1 0x0 DUP1 PUSH1 0x23 PUSH1 0x0 DUP6 PUSH20 0xFFFFFFFFFFFFFFFFFFFFFFFFFFFFFFFFFFFFFFFF AND PUSH20 0xFFFFFFFFFFFFFFFFFFFFFFFFFFFFFFFFFFFFFFFF AND DUP2 MSTORE PUSH1 0x20 ADD SWAP1 DUP2 MSTORE PUSH1 0x20 ADD PUSH1 0x0 KECCAK256 PUSH1 0x9 ADD SLOAD EQ ISZERO PUSH2 0x1AD2 JUMPI PUSH1 0x0 SWAP1 POP PUSH2 0x1B5E JUMP JUMPDEST PUSH1 0x0 PUSH2 0x1B2B PUSH1 0x8 SLOAD PUSH1 0x23 PUSH1 0x0 DUP8 PUSH20 0xFFFFFFFFFFFFFFFFFFFFFFFFFFFFFFFFFFFFFFFF AND PUSH20 0xFFFFFFFFFFFFFFFFFFFFFFFFFFFFFFFFFFFFFFFF AND DUP2 MSTORE PUSH1 0x20 ADD SWAP1 DUP2 MSTORE PUSH1 0x20 ADD PUSH1 0x0 KECCAK256 PUSH1 0x9 ADD SLOAD PUSH2 0x36B6 SWAP1 SWAP2 SWAP1 PUSH4 0xFFFFFFFF AND JUMP JUMPDEST SWAP1 POP PUSH1 0x0 PUSH2 0x1B56 PUSH1 0x2 SLOAD PUSH2 0x1B48 DUP5 DUP8 PUSH2 0x36B6 SWAP1 SWAP2 SWAP1 PUSH4 0xFFFFFFFF AND JUMP JUMPDEST PUSH2 0x369B SWAP1 SWAP2 SWAP1 PUSH4 0xFFFFFFFF AND JUMP JUMPDEST SWAP1 POP DUP1 SWAP3 POP POP POP JUMPDEST SWAP3 SWAP2 POP POP JUMP JUMPDEST PUSH1 0x15 PUSH1 0x0 SWAP1 SLOAD SWAP1 PUSH2 0x100 EXP SWAP1 DIV PUSH1 0xFF AND PUSH2 0x1BB3 JUMPI PUSH1 0x40 MLOAD PUSH32 0x8C379A000000000000000000000000000000000000000000000000000000000 DUP2 MSTORE PUSH1 0x4 ADD PUSH2 0x1BAA SWAP1 PUSH2 0x4156 JUMP JUMPDEST PUSH1 0x40 MLOAD DUP1 SWAP2 SUB SWAP1 REVERT JUMPDEST PUSH1 0x0 PUSH1 0x23 PUSH1 0x0 CALLER PUSH20 0xFFFFFFFFFFFFFFFFFFFFFFFFFFFFFFFFFFFFFFFF AND PUSH20 0xFFFFFFFFFFFFFFFFFFFFFFFFFFFFFFFFFFFFFFFF AND DUP2 MSTORE PUSH1 0x20 ADD SWAP1 DUP2 MSTORE PUSH1 0x20 ADD PUSH1 0x0 KECCAK256 SWAP1 POP PUSH1 0x6 SLOAD CALLVALUE LT ISZERO PUSH2 0x1C3B JUMPI PUSH1 0x40 MLOAD PUSH32 0x8C379A000000000000000000000000000000000000000000000000000000000 DUP2 MSTORE PUSH1 0x4 ADD PUSH2 0x1C32 SWAP1 PUSH2 0x4369 JUMP JUMPDEST PUSH1 0x40 MLOAD DUP1 SWAP2 SUB SWAP1 REVERT JUMPDEST PUSH1 0x7 SLOAD PUSH2 0x1C55 CALLVALUE DUP4 PUSH1 0x0 ADD SLOAD PUSH2 0x3648 SWAP1 SWAP2 SWAP1 PUSH4 0xFFFFFFFF AND JUMP JUMPDEST GT ISZERO PUSH2 0x1C96 JUMPI PUSH1 0x40 MLOAD PUSH32 0x8C379A000000000000000000000000000000000000000000000000000000000 DUP2 MSTORE PUSH1 0x4 ADD PUSH2 0x1C8D SWAP1 PUSH2 0x43D5 JUMP JUMPDEST PUSH1 0x40 MLOAD DUP1 SWAP2 SUB SWAP1 REVERT JUMPDEST PUSH1 0x0 DUP2 PUSH1 0x0 ADD SLOAD EQ ISZERO PUSH2 0x1CE8 JUMPI CALLVALUE PUSH1 0x17 PUSH1 0x0 CALLER PUSH20 0xFFFFFFFFFFFFFFFFFFFFFFFFFFFFFFFFFFFFFFFF AND PUSH20 0xFFFFFFFFFFFFFFFFFFFFFFFFFFFFFFFFFFFFFFFF AND DUP2 MSTORE PUSH1 0x20 ADD SWAP1 DUP2 MSTORE PUSH1 0x20 ADD PUSH1 0x0 KECCAK256 DUP2 SWAP1 SSTORE POP JUMPDEST PUSH1 0x0 PUSH2 0x1D06 CALLVALUE PUSH2 0x1D01 CALLVALUE SELFBALANCE PUSH2 0x3674 SWAP1 SWAP2 SWAP1 PUSH4 0xFFFFFFFF AND JUMP JUMPDEST PUSH2 0x15D9 JUMP JUMPDEST SWAP1 POP PUSH2 0x1D1F CALLVALUE DUP4 PUSH1 0x1 ADD SLOAD PUSH2 0x3648 SWAP1 SWAP2 SWAP1 PUSH4 0xFFFFFFFF AND JUMP JUMPDEST DUP3 PUSH1 0x1 ADD DUP2 SWAP1 SSTORE POP PUSH2 0x1D3E CALLVALUE DUP4 PUSH1 0x0 ADD SLOAD PUSH2 0x3648 SWAP1 SWAP2 SWAP1 PUSH4 0xFFFFFFFF AND JUMP JUMPDEST DUP3 PUSH1 0x0 ADD DUP2 SWAP1 SSTORE POP PUSH2 0x1D5D DUP2 DUP4 PUSH1 0x3 ADD SLOAD PUSH2 0x3648 SWAP1 SWAP2 SWAP1 PUSH4 0xFFFFFFFF AND JUMP JUMPDEST DUP3 PUSH1 0x3 ADD DUP2 SWAP1 SSTORE POP PUSH1 0x0 PUSH20 0xFFFFFFFFFFFFFFFFFFFFFFFFFFFFFFFFFFFFFFFF AND DUP3 PUSH1 0x5 ADD PUSH1 0x0 SWAP1 SLOAD SWAP1 PUSH2 0x100 EXP SWAP1 DIV PUSH20 0xFFFFFFFFFFFFFFFFFFFFFFFFFFFFFFFFFFFFFFFF AND PUSH20 0xFFFFFFFFFFFFFFFFFFFFFFFFFFFFFFFFFFFFFFFF AND EQ ISZERO PUSH2 0x1F31 JUMPI CALLER PUSH20 0xFFFFFFFFFFFFFFFFFFFFFFFFFFFFFFFFFFFFFFFF AND DUP4 PUSH20 0xFFFFFFFFFFFFFFFFFFFFFFFFFFFFFFFFFFFFFFFF AND EQ PUSH2 0x1E35 JUMPI DUP3 DUP3 PUSH1 0x5 ADD PUSH1 0x0 PUSH2 0x100 EXP DUP2 SLOAD DUP2 PUSH20 0xFFFFFFFFFFFFFFFFFFFFFFFFFFFFFFFFFFFFFFFF MUL NOT AND SWAP1 DUP4 PUSH20 0xFFFFFFFFFFFFFFFFFFFFFFFFFFFFFFFFFFFFFFFF AND MUL OR SWAP1 SSTORE POP JUMPDEST PUSH1 0x0 DUP3 PUSH1 0x5 ADD PUSH1 0x0 SWAP1 SLOAD SWAP1 PUSH2 0x100 EXP SWAP1 DIV PUSH20 0xFFFFFFFFFFFFFFFFFFFFFFFFFFFFFFFFFFFFFFFF AND SWAP1 POP PUSH1 0x0 PUSH20 0xFFFFFFFFFFFFFFFFFFFFFFFFFFFFFFFFFFFFFFFF AND DUP2 PUSH20 0xFFFFFFFFFFFFFFFFFFFFFFFFFFFFFFFFFFFFFFFF AND EQ PUSH2 0x1F2F JUMPI PUSH2 0x1EE8 PUSH1 0x1 PUSH1 0x23 PUSH1 0x0 DUP5 PUSH20 0xFFFFFFFFFFFFFFFFFFFFFFFFFFFFFFFFFFFFFFFF AND PUSH20 0xFFFFFFFFFFFFFFFFFFFFFFFFFFFFFFFFFFFFFFFF AND DUP2 MSTORE PUSH1 0x20 ADD SWAP1 DUP2 MSTORE PUSH1 0x20 ADD PUSH1 0x0 KECCAK256 PUSH1 0x6 ADD SLOAD PUSH2 0x3648 SWAP1 SWAP2 SWAP1 PUSH4 0xFFFFFFFF AND JUMP JUMPDEST PUSH1 0x23 PUSH1 0x0 DUP4 PUSH20 0xFFFFFFFFFFFFFFFFFFFFFFFFFFFFFFFFFFFFFFFF AND PUSH20 0xFFFFFFFFFFFFFFFFFFFFFFFFFFFFFFFFFFFFFFFF AND DUP2 MSTORE PUSH1 0x20 ADD SWAP1 DUP2 MSTORE PUSH1 0x20 ADD PUSH1 0x0 KECCAK256 PUSH1 0x6 ADD DUP2 SWAP1 SSTORE POP JUMPDEST POP JUMPDEST PUSH1 0x0 PUSH20 0xFFFFFFFFFFFFFFFFFFFFFFFFFFFFFFFFFFFFFFFF AND DUP3 PUSH1 0x5 ADD PUSH1 0x0 SWAP1 SLOAD SWAP1 PUSH2 0x100 EXP SWAP1 DIV PUSH20 0xFFFFFFFFFFFFFFFFFFFFFFFFFFFFFFFFFFFFFFFF AND PUSH20 0xFFFFFFFFFFFFFFFFFFFFFFFFFFFFFFFFFFFFFFFF AND EQ PUSH2 0x1F94 JUMPI PUSH2 0x1F93 CALLER CALLVALUE PUSH2 0x36FF JUMP JUMPDEST JUMPDEST PUSH1 0x0 PUSH2 0x1F9F CALLVALUE PUSH2 0x3A6D JUMP JUMPDEST SWAP1 POP PUSH2 0x1FC8 PUSH2 0x1FB7 DUP3 CALLVALUE PUSH2 0x3674 SWAP1 SWAP2 SWAP1 PUSH4 0xFFFFFFFF AND JUMP JUMPDEST PUSH1 0xD SLOAD PUSH2 0x3648 SWAP1 SWAP2 SWAP1 PUSH4 0xFFFFFFFF AND JUMP JUMPDEST PUSH1 0xD DUP2 SWAP1 SSTORE POP PUSH2 0x1FE4 PUSH1 0x1 PUSH1 0xE SLOAD PUSH2 0x3648 SWAP1 SWAP2 SWAP1 PUSH4 0xFFFFFFFF AND JUMP JUMPDEST PUSH1 0xE DUP2 SWAP1 SSTORE POP PUSH2 0x1FF4 PUSH1 0x0 PUSH2 0x1204 JUMP JUMPDEST POP POP POP POP JUMP JUMPDEST PUSH1 0x1C PUSH1 0x0 SWAP1 SLOAD SWAP1 PUSH2 0x100 EXP SWAP1 DIV PUSH20 0xFFFFFFFFFFFFFFFFFFFFFFFFFFFFFFFFFFFFFFFF AND PUSH20 0xFFFFFFFFFFFFFFFFFFFFFFFFFFFFFFFFFFFFFFFF AND CALLER PUSH20 0xFFFFFFFFFFFFFFFFFFFFFFFFFFFFFFFFFFFFFFFF AND EQ PUSH2 0x208A JUMPI PUSH1 0x40 MLOAD PUSH32 0x8C379A000000000000000000000000000000000000000000000000000000000 DUP2 MSTORE PUSH1 0x4 ADD PUSH2 0x2081 SWAP1 PUSH2 0x41C2 JUMP JUMPDEST PUSH1 0x40 MLOAD DUP1 SWAP2 SUB SWAP1 REVERT JUMPDEST PUSH1 0xA DUP2 LT ISZERO DUP1 ISZERO PUSH2 0x209C JUMPI POP PUSH1 0x64 DUP2 GT ISZERO JUMPDEST PUSH2 0x20A5 JUMPI PUSH1 0x0 DUP1 REVERT JUMPDEST DUP1 PUSH1 0x1 DUP2 SWAP1 SSTORE POP POP JUMP JUMPDEST PUSH1 0x15 PUSH1 0x0 SWAP1 SLOAD SWAP1 PUSH2 0x100 EXP SWAP1 DIV PUSH1 0xFF AND PUSH2 0x20FE JUMPI PUSH1 0x40 MLOAD PUSH32 0x8C379A000000000000000000000000000000000000000000000000000000000 DUP2 MSTORE PUSH1 0x4 ADD PUSH2 0x20F5 SWAP1 PUSH2 0x4156 JUMP JUMPDEST PUSH1 0x40 MLOAD DUP1 SWAP2 SUB SWAP1 REVERT JUMPDEST PUSH1 0x15 PUSH1 0x1 SWAP1 SLOAD SWAP1 PUSH2 0x100 EXP SWAP1 DIV PUSH1 0xFF AND ISZERO PUSH2 0x21A1 JUMPI PUSH1 0x16 PUSH1 0x0 CALLER PUSH20 0xFFFFFFFFFFFFFFFFFFFFFFFFFFFFFFFFFFFFFFFF AND PUSH20 0xFFFFFFFFFFFFFFFFFFFFFFFFFFFFFFFFFFFFFFFF AND DUP2 MSTORE PUSH1 0x20 ADD SWAP1 DUP2 MSTORE PUSH1 0x20 ADD PUSH1 0x0 KECCAK256 PUSH1 0x0 SWAP1 SLOAD SWAP1 PUSH2 0x100 EXP SWAP1 DIV PUSH1 0xFF AND ISZERO PUSH2 0x21A0 JUMPI PUSH1 0x40 MLOAD PUSH32 0x8C379A000000000000000000000000000000000000000000000000000000000 DUP2 MSTORE PUSH1 0x4 ADD PUSH2 0x2197 SWAP1 PUSH2 0x4441 JUMP JUMPDEST PUSH1 0x40 MLOAD DUP1 SWAP2 SUB SWAP1 REVERT JUMPDEST JUMPDEST PUSH1 0x0 PUSH1 0x23 PUSH1 0x0 CALLER PUSH20 0xFFFFFFFFFFFFFFFFFFFFFFFFFFFFFFFFFFFFFFFF AND PUSH20 0xFFFFFFFFFFFFFFFFFFFFFFFFFFFFFFFFFFFFFFFF AND DUP2 MSTORE PUSH1 0x20 ADD SWAP1 DUP2 MSTORE PUSH1 0x20 ADD PUSH1 0x0 KECCAK256 SWAP1 POP PUSH1 0x0 PUSH2 0x21EE PUSH2 0x189A JUMP JUMPDEST SWAP1 POP PUSH1 0x0 PUSH2 0x21FB DUP3 PUSH2 0x2B48 JUMP JUMPDEST SWAP1 POP PUSH1 0xC SLOAD DUP4 PUSH1 0x9 ADD SLOAD LT ISZERO PUSH2 0x224D JUMPI PUSH2 0x2246 PUSH2 0x2237 PUSH1 0x2 SLOAD PUSH2 0x2229 PUSH1 0xB SLOAD DUP6 PUSH2 0x36B6 SWAP1 SWAP2 SWAP1 PUSH4 0xFFFFFFFF AND JUMP JUMPDEST PUSH2 0x369B SWAP1 SWAP2 SWAP1 PUSH4 0xFFFFFFFF AND JUMP JUMPDEST DUP3 PUSH2 0x3674 SWAP1 SWAP2 SWAP1 PUSH4 0xFFFFFFFF AND JUMP JUMPDEST SWAP1 POP PUSH2 0x22A7 JUMP JUMPDEST PUSH1 0x0 DUP4 PUSH1 0x9 ADD DUP2 SWAP1 SSTORE POP PUSH1 0x0 DUP4 PUSH1 0xA ADD DUP2 SWAP1 SSTORE POP PUSH1 0x0 PUSH1 0x19 PUSH1 0x0 CALLER PUSH20 0xFFFFFFFFFFFFFFFFFFFFFFFFFFFFFFFFFFFFFFFF AND PUSH20 0xFFFFFFFFFFFFFFFFFFFFFFFFFFFFFFFFFFFFFFFF AND DUP2 MSTORE PUSH1 0x20 ADD SWAP1 DUP2 MSTORE PUSH1 0x20 ADD PUSH1 0x0 KECCAK256 DUP2 SWAP1 SSTORE POP JUMPDEST TIMESTAMP DUP4 PUSH1 0xB ADD DUP2 SWAP1 SSTORE POP PUSH1 0x0 DUP4 PUSH1 0x3 ADD DUP2 SWAP1 SSTORE POP TIMESTAMP DUP4 PUSH1 0x4 ADD DUP2 SWAP1 SSTORE POP PUSH2 0x22EC PUSH2 0x22DB PUSH1 0x5 SLOAD DUP5 PUSH2 0x369B SWAP1 SWAP2 SWAP1 PUSH4 0xFFFFFFFF AND JUMP JUMPDEST PUSH1 0x12 SLOAD PUSH2 0x3648 SWAP1 SWAP2 SWAP1 PUSH4 0xFFFFFFFF AND JUMP JUMPDEST PUSH1 0x12 DUP2 SWAP1 SSTORE POP DUP1 PUSH2 0x22FB PUSH2 0x11F6 JUMP JUMPDEST LT ISZERO PUSH2 0x230C JUMPI PUSH2 0x2309 PUSH2 0x11F6 JUMP JUMPDEST SWAP1 POP JUMPDEST PUSH1 0x0 PUSH2 0x2329 PUSH2 0x231A DUP4 PUSH2 0x3A6D JUMP JUMPDEST DUP4 PUSH2 0x3674 SWAP1 SWAP2 SWAP1 PUSH4 0xFFFFFFFF AND JUMP JUMPDEST SWAP1 POP CALLER PUSH20 0xFFFFFFFFFFFFFFFFFFFFFFFFFFFFFFFFFFFFFFFF AND PUSH2 0x8FC DUP3 SWAP1 DUP2 ISZERO MUL SWAP1 PUSH1 0x40 MLOAD PUSH1 0x0 PUSH1 0x40 MLOAD DUP1 DUP4 SUB DUP2 DUP6 DUP9 DUP9 CALL SWAP4 POP POP POP POP ISZERO DUP1 ISZERO PUSH2 0x2371 JUMPI RETURNDATASIZE PUSH1 0x0 DUP1 RETURNDATACOPY RETURNDATASIZE PUSH1 0x0 REVERT JUMPDEST POP PUSH2 0x2389 DUP2 DUP6 PUSH1 0x8 ADD SLOAD PUSH2 0x3648 SWAP1 SWAP2 SWAP1 PUSH4 0xFFFFFFFF AND JUMP JUMPDEST DUP5 PUSH1 0x8 ADD DUP2 SWAP1 SSTORE POP PUSH2 0x23A6 DUP2 PUSH1 0x11 SLOAD PUSH2 0x3648 SWAP1 SWAP2 SWAP1 PUSH4 0xFFFFFFFF AND JUMP JUMPDEST PUSH1 0x11 DUP2 SWAP1 SSTORE POP POP POP POP POP JUMP JUMPDEST PUSH1 0x5 SLOAD DUP2 JUMP JUMPDEST PUSH1 0x0 DUP1 PUSH1 0x0 DUP1 PUSH1 0x0 DUP1 PUSH1 0x0 DUP1 PUSH1 0x0 DUP1 PUSH1 0x0 DUP1 PUSH1 0x23 PUSH1 0x0 DUP15 PUSH20 0xFFFFFFFFFFFFFFFFFFFFFFFFFFFFFFFFFFFFFFFF AND PUSH20 0xFFFFFFFFFFFFFFFFFFFFFFFFFFFFFFFFFFFFFFFF AND DUP2 MSTORE PUSH1 0x20 ADD SWAP1 DUP2 MSTORE PUSH1 0x20 ADD PUSH1 0x0 KECCAK256 PUSH1 0x0 ADD SLOAD SWAP12 POP PUSH1 0x23 PUSH1 0x0 DUP15 PUSH20 0xFFFFFFFFFFFFFFFFFFFFFFFFFFFFFFFFFFFFFFFF AND PUSH20 0xFFFFFFFFFFFFFFFFFFFFFFFFFFFFFFFFFFFFFFFF AND DUP2 MSTORE PUSH1 0x20 ADD SWAP1 DUP2 MSTORE PUSH1 0x20 ADD PUSH1 0x0 KECCAK256 PUSH1 0x1 ADD SLOAD SWAP11 POP PUSH1 0x23 PUSH1 0x0 DUP15 PUSH20 0xFFFFFFFFFFFFFFFFFFFFFFFFFFFFFFFFFFFFFFFF AND PUSH20 0xFFFFFFFFFFFFFFFFFFFFFFFFFFFFFFFFFFFFFFFF AND DUP2 MSTORE PUSH1 0x20 ADD SWAP1 DUP2 MSTORE PUSH1 0x20 ADD PUSH1 0x0 KECCAK256 PUSH1 0x2 ADD SLOAD SWAP10 POP PUSH1 0x23 PUSH1 0x0 DUP15 PUSH20 0xFFFFFFFFFFFFFFFFFFFFFFFFFFFFFFFFFFFFFFFF AND PUSH20 0xFFFFFFFFFFFFFFFFFFFFFFFFFFFFFFFFFFFFFFFF AND DUP2 MSTORE PUSH1 0x20 ADD SWAP1 DUP2 MSTORE PUSH1 0x20 ADD PUSH1 0x0 KECCAK256 PUSH1 0x3 ADD SLOAD SWAP9 POP PUSH1 0x23 PUSH1 0x0 DUP15 PUSH20 0xFFFFFFFFFFFFFFFFFFFFFFFFFFFFFFFFFFFFFFFF AND PUSH20 0xFFFFFFFFFFFFFFFFFFFFFFFFFFFFFFFFFFFFFFFF AND DUP2 MSTORE PUSH1 0x20 ADD SWAP1 DUP2 MSTORE PUSH1 0x20 ADD PUSH1 0x0 KECCAK256 PUSH1 0x4 ADD SLOAD SWAP8 POP PUSH1 0x23 PUSH1 0x0 DUP15 PUSH20 0xFFFFFFFFFFFFFFFFFFFFFFFFFFFFFFFFFFFFFFFF AND PUSH20 0xFFFFFFFFFFFFFFFFFFFFFFFFFFFFFFFFFFFFFFFF AND DUP2 MSTORE PUSH1 0x20 ADD SWAP1 DUP2 MSTORE PUSH1 0x20 ADD PUSH1 0x0 KECCAK256 PUSH1 0x5 ADD PUSH1 0x0 SWAP1 SLOAD SWAP1 PUSH2 0x100 EXP SWAP1 DIV PUSH20 0xFFFFFFFFFFFFFFFFFFFFFFFFFFFFFFFFFFFFFFFF AND SWAP7 POP PUSH1 0x23 PUSH1 0x0 DUP15 PUSH20 0xFFFFFFFFFFFFFFFFFFFFFFFFFFFFFFFFFFFFFFFF AND PUSH20 0xFFFFFFFFFFFFFFFFFFFFFFFFFFFFFFFFFFFFFFFF AND DUP2 MSTORE PUSH1 0x20 ADD SWAP1 DUP2 MSTORE PUSH1 0x20 ADD PUSH1 0x0 KECCAK256 PUSH1 0x6 ADD SLOAD SWAP6 POP PUSH1 0x23 PUSH1 0x0 DUP15 PUSH20 0xFFFFFFFFFFFFFFFFFFFFFFFFFFFFFFFFFFFFFFFF AND PUSH20 0xFFFFFFFFFFFFFFFFFFFFFFFFFFFFFFFFFFFFFFFF AND DUP2 MSTORE PUSH1 0x20 ADD SWAP1 DUP2 MSTORE PUSH1 0x20 ADD PUSH1 0x0 KECCAK256 PUSH1 0x8 ADD SLOAD SWAP5 POP PUSH1 0x23 PUSH1 0x0 DUP15 PUSH20 0xFFFFFFFFFFFFFFFFFFFFFFFFFFFFFFFFFFFFFFFF AND PUSH20 0xFFFFFFFFFFFFFFFFFFFFFFFFFFFFFFFFFFFFFFFF AND DUP2 MSTORE PUSH1 0x20 ADD SWAP1 DUP2 MSTORE PUSH1 0x20 ADD PUSH1 0x0 KECCAK256 PUSH1 0x7 ADD SLOAD SWAP4 POP PUSH1 0x23 PUSH1 0x0 DUP15 PUSH20 0xFFFFFFFFFFFFFFFFFFFFFFFFFFFFFFFFFFFFFFFF AND PUSH20 0xFFFFFFFFFFFFFFFFFFFFFFFFFFFFFFFFFFFFFFFF AND DUP2 MSTORE PUSH1 0x20 ADD SWAP1 DUP2 MSTORE PUSH1 0x20 ADD PUSH1 0x0 KECCAK256 PUSH1 0x9 ADD SLOAD SWAP3 POP PUSH1 0x23 PUSH1 0x0 DUP15 PUSH20 0xFFFFFFFFFFFFFFFFFFFFFFFFFFFFFFFFFFFFFFFF AND PUSH20 0xFFFFFFFFFFFFFFFFFFFFFFFFFFFFFFFFFFFFFFFF AND DUP2 MSTORE PUSH1 0x20 ADD SWAP1 DUP2 MSTORE PUSH1 0x20 ADD PUSH1 0x0 KECCAK256 PUSH1 0xA ADD SLOAD SWAP2 POP PUSH1 0x23 PUSH1 0x0 DUP15 PUSH20 0xFFFFFFFFFFFFFFFFFFFFFFFFFFFFFFFFFFFFFFFF AND PUSH20 0xFFFFFFFFFFFFFFFFFFFFFFFFFFFFFFFFFFFFFFFF AND DUP2 MSTORE PUSH1 0x20 ADD SWAP1 DUP2 MSTORE PUSH1 0x20 ADD PUSH1 0x0 KECCAK256 PUSH1 0xB ADD SLOAD SWAP1 POP SWAP2 SWAP4 SWAP6 SWAP8 SWAP10 SWAP12 POP SWAP2 SWAP4 SWAP6 SWAP8 SWAP10 SWAP12 JUMP JUMPDEST PUSH1 0x0 DUP1 PUSH2 0x2795 PUSH2 0x2744 DUP5 PUSH2 0x30D3 JUMP JUMPDEST PUSH1 0x23 PUSH1 0x0 DUP7 PUSH20 0xFFFFFFFFFFFFFFFFFFFFFFFFFFFFFFFFFFFFFFFF AND PUSH20 0xFFFFFFFFFFFFFFFFFFFFFFFFFFFFFFFFFFFFFFFF AND DUP2 MSTORE PUSH1 0x20 ADD SWAP1 DUP2 MSTORE PUSH1 0x20 ADD PUSH1 0x0 KECCAK256 PUSH1 0x3 ADD SLOAD PUSH2 0x3648 SWAP1 SWAP2 SWAP1 PUSH4 0xFFFFFFFF AND JUMP JUMPDEST SWAP1 POP PUSH2 0x27A0 DUP2 PUSH2 0x2B48 JUMP JUMPDEST SWAP2 POP POP SWAP2 SWAP1 POP JUMP JUMPDEST PUSH1 0x3 SLOAD DUP2 JUMP JUMPDEST PUSH1 0x10 SLOAD DUP2 JUMP JUMPDEST PUSH1 0x1C PUSH1 0x0 SWAP1 SLOAD SWAP1 PUSH2 0x100 EXP SWAP1 DIV PUSH20 0xFFFFFFFFFFFFFFFFFFFFFFFFFFFFFFFFFFFFFFFF AND PUSH20 0xFFFFFFFFFFFFFFFFFFFFFFFFFFFFFFFFFFFFFFFF AND CALLER PUSH20 0xFFFFFFFFFFFFFFFFFFFFFFFFFFFFFFFFFFFFFFFF AND EQ PUSH2 0x2844 JUMPI PUSH1 0x40 MLOAD PUSH32 0x8C379A000000000000000000000000000000000000000000000000000000000 DUP2 MSTORE PUSH1 0x4 ADD PUSH2 0x283B SWAP1 PUSH2 0x41C2 JUMP JUMPDEST PUSH1 0x40 MLOAD DUP1 SWAP2 SUB SWAP1 REVERT JUMPDEST PUSH1 0xA DUP2 LT ISZERO DUP1 ISZERO PUSH2 0x2857 JUMPI POP PUSH2 0x384 DUP2 GT ISZERO JUMPDEST PUSH2 0x2860 JUMPI PUSH1 0x0 DUP1 REVERT JUMPDEST DUP1 PUSH1 0x8 DUP2 SWAP1 SSTORE POP POP JUMP JUMPDEST PUSH1 0xA SLOAD DUP2 JUMP JUMPDEST PUSH1 0x1C PUSH1 0x0 SWAP1 SLOAD SWAP1 PUSH2 0x100 EXP SWAP1 DIV PUSH20 0xFFFFFFFFFFFFFFFFFFFFFFFFFFFFFFFFFFFFFFFF AND PUSH20 0xFFFFFFFFFFFFFFFFFFFFFFFFFFFFFFFFFFFFFFFF AND CALLER PUSH20 0xFFFFFFFFFFFFFFFFFFFFFFFFFFFFFFFFFFFFFFFF AND EQ PUSH2 0x2900 JUMPI PUSH1 0x40 MLOAD PUSH32 0x8C379A000000000000000000000000000000000000000000000000000000000 DUP2 MSTORE PUSH1 0x4 ADD PUSH2 0x28F7 SWAP1 PUSH2 0x41C2 JUMP JUMPDEST PUSH1 0x40 MLOAD DUP1 SWAP2 SUB SWAP1 REVERT JUMPDEST PUSH1 0x32 DUP2 GT ISZERO PUSH2 0x290E JUMPI PUSH1 0x0 DUP1 REVERT JUMPDEST DUP1 PUSH1 0x5 DUP2 SWAP1 SSTORE POP POP JUMP JUMPDEST PUSH1 0x1C PUSH1 0x0 SWAP1 SLOAD SWAP1 PUSH2 0x100 EXP SWAP1 DIV PUSH20 0xFFFFFFFFFFFFFFFFFFFFFFFFFFFFFFFFFFFFFFFF AND PUSH20 0xFFFFFFFFFFFFFFFFFFFFFFFFFFFFFFFFFFFFFFFF AND CALLER PUSH20 0xFFFFFFFFFFFFFFFFFFFFFFFFFFFFFFFFFFFFFFFF AND EQ PUSH2 0x29A8 JUMPI PUSH1 0x40 MLOAD PUSH32 0x8C379A000000000000000000000000000000000000000000000000000000000 DUP2 MSTORE PUSH1 0x4 ADD PUSH2 0x299F SWAP1 PUSH2 0x4274 JUMP JUMPDEST PUSH1 0x40 MLOAD DUP1 SWAP2 SUB SWAP1 REVERT JUMPDEST PUSH1 0x3C DUP1 DUP3 PUSH2 0x29B6 SWAP2 SWAP1 PUSH2 0x42C3 JUMP JUMPDEST PUSH2 0x29C0 SWAP2 SWAP1 PUSH2 0x42C3 JUMP JUMPDEST PUSH1 0x1A DUP2 SWAP1 SSTORE POP POP JUMP JUMPDEST PUSH1 0x22 PUSH1 0x0 SWAP1 SLOAD SWAP1 PUSH2 0x100 EXP SWAP1 DIV PUSH20 0xFFFFFFFFFFFFFFFFFFFFFFFFFFFFFFFFFFFFFFFF AND DUP2 JUMP JUMPDEST PUSH1 0xE SLOAD DUP2 JUMP JUMPDEST PUSH1 0xF SLOAD DUP2 JUMP JUMPDEST PUSH1 0x0 PUSH2 0x2A0E DUP3 PUSH2 0x2A09 PUSH2 0x11F6 JUMP JUMPDEST PUSH2 0x15D9 JUMP JUMPDEST SWAP1 POP SWAP2 SWAP1 POP JUMP JUMPDEST PUSH1 0x1C PUSH1 0x0 SWAP1 SLOAD SWAP1 PUSH2 0x100 EXP SWAP1 DIV PUSH20 0xFFFFFFFFFFFFFFFFFFFFFFFFFFFFFFFFFFFFFFFF AND PUSH20 0xFFFFFFFFFFFFFFFFFFFFFFFFFFFFFFFFFFFFFFFF AND CALLER PUSH20 0xFFFFFFFFFFFFFFFFFFFFFFFFFFFFFFFFFFFFFFFF AND EQ PUSH2 0x2AA5 JUMPI PUSH1 0x40 MLOAD PUSH32 0x8C379A000000000000000000000000000000000000000000000000000000000 DUP2 MSTORE PUSH1 0x4 ADD PUSH2 0x2A9C SWAP1 PUSH2 0x4274 JUMP JUMPDEST PUSH1 0x40 MLOAD DUP1 SWAP2 SUB SWAP1 REVERT JUMPDEST PUSH1 0xA DUP2 LT ISZERO PUSH2 0x2AB3 JUMPI PUSH1 0x0 DUP1 REVERT JUMPDEST PUSH8 0xDE0B6B3A7640000 DUP2 PUSH2 0x2AC7 SWAP2 SWAP1 PUSH2 0x42C3 JUMP JUMPDEST PUSH1 0x7 DUP2 SWAP1 SSTORE POP POP JUMP JUMPDEST PUSH1 0x1E PUSH1 0x0 SWAP1 SLOAD SWAP1 PUSH2 0x100 EXP SWAP1 DIV PUSH20 0xFFFFFFFFFFFFFFFFFFFFFFFFFFFFFFFFFFFFFFFF AND DUP2 JUMP JUMPDEST PUSH1 0xD SLOAD DUP2 JUMP JUMPDEST PUSH1 0x21 PUSH1 0x0 SWAP1 SLOAD SWAP1 PUSH2 0x100 EXP SWAP1 DIV PUSH20 0xFFFFFFFFFFFFFFFFFFFFFFFFFFFFFFFFFFFFFFFF AND DUP2 JUMP JUMPDEST PUSH1 0x1C PUSH1 0x0 SWAP1 SLOAD SWAP1 PUSH2 0x100 EXP SWAP1 DIV PUSH20 0xFFFFFFFFFFFFFFFFFFFFFFFFFFFFFFFFFFFFFFFF AND DUP2 JUMP JUMPDEST PUSH1 0x0 PUSH2 0x2B5E DUP3 PUSH1 0x12 SLOAD PUSH2 0x2B59 PUSH2 0x11F6 JUMP JUMPDEST PUSH2 0x1560 JUMP JUMPDEST SWAP1 POP SWAP2 SWAP1 POP JUMP JUMPDEST PUSH1 0x1B SLOAD DUP2 JUMP JUMPDEST PUSH1 0x1C PUSH1 0x0 SWAP1 SLOAD SWAP1 PUSH2 0x100 EXP SWAP1 DIV PUSH20 0xFFFFFFFFFFFFFFFFFFFFFFFFFFFFFFFFFFFFFFFF AND PUSH20 0xFFFFFFFFFFFFFFFFFFFFFFFFFFFFFFFFFFFFFFFF AND CALLER PUSH20 0xFFFFFFFFFFFFFFFFFFFFFFFFFFFFFFFFFFFFFFFF AND EQ PUSH2 0x2BFB JUMPI PUSH1 0x40 MLOAD PUSH32 0x8C379A000000000000000000000000000000000000000000000000000000000 DUP2 MSTORE PUSH1 0x4 ADD PUSH2 0x2BF2 SWAP1 PUSH2 0x41C2 JUMP JUMPDEST PUSH1 0x40 MLOAD DUP1 SWAP2 SUB SWAP1 REVERT JUMPDEST PUSH1 0x18 DUP2 GT ISZERO PUSH2 0x2C09 JUMPI PUSH1 0x0 DUP1 REVERT JUMPDEST PUSH1 0x3C DUP1 DUP3 PUSH2 0x2C17 SWAP2 SWAP1 PUSH2 0x42C3 JUMP JUMPDEST PUSH2 0x2C21 SWAP2 SWAP1 PUSH2 0x42C3 JUMP JUMPDEST PUSH1 0xA DUP2 SWAP1 SSTORE POP POP JUMP JUMPDEST PUSH1 0x1C PUSH1 0x0 SWAP1 SLOAD SWAP1 PUSH2 0x100 EXP SWAP1 DIV PUSH20 0xFFFFFFFFFFFFFFFFFFFFFFFFFFFFFFFFFFFFFFFF AND PUSH20 0xFFFFFFFFFFFFFFFFFFFFFFFFFFFFFFFFFFFFFFFF AND CALLER PUSH20 0xFFFFFFFFFFFFFFFFFFFFFFFFFFFFFFFFFFFFFFFF AND EQ PUSH2 0x2CBA JUMPI PUSH1 0x40 MLOAD PUSH32 0x8C379A000000000000000000000000000000000000000000000000000000000 DUP2 MSTORE PUSH1 0x4 ADD PUSH2 0x2CB1 SWAP1 PUSH2 0x41C2 JUMP JUMPDEST PUSH1 0x40 MLOAD DUP1 SWAP2 SUB SWAP1 REVERT JUMPDEST PUSH1 0x1E DUP2 GT ISZERO PUSH2 0x2CC8 JUMPI PUSH1 0x0 DUP1 REVERT JUMPDEST DUP1 PUSH1 0x9 DUP2 SWAP1 SSTORE POP POP JUMP JUMPDEST PUSH1 0x19 PUSH1 0x20 MSTORE DUP1 PUSH1 0x0 MSTORE PUSH1 0x40 PUSH1 0x0 KECCAK256 PUSH1 0x0 SWAP2 POP SWAP1 POP SLOAD DUP2 JUMP JUMPDEST PUSH1 0x1C PUSH1 0x0 SWAP1 SLOAD SWAP1 PUSH2 0x100 EXP SWAP1 DIV PUSH20 0xFFFFFFFFFFFFFFFFFFFFFFFFFFFFFFFFFFFFFFFF AND PUSH20 0xFFFFFFFFFFFFFFFFFFFFFFFFFFFFFFFFFFFFFFFF AND CALLER PUSH20 0xFFFFFFFFFFFFFFFFFFFFFFFFFFFFFFFFFFFFFFFF AND EQ PUSH2 0x2D7A JUMPI PUSH1 0x40 MLOAD PUSH32 0x8C379A000000000000000000000000000000000000000000000000000000000 DUP2 MSTORE PUSH1 0x4 ADD PUSH2 0x2D71 SWAP1 PUSH2 0x41C2 JUMP JUMPDEST PUSH1 0x40 MLOAD DUP1 SWAP2 SUB SWAP1 REVERT JUMPDEST DUP1 PUSH1 0x15 PUSH1 0x1 PUSH2 0x100 EXP DUP2 SLOAD DUP2 PUSH1 0xFF MUL NOT AND SWAP1 DUP4 ISZERO ISZERO MUL OR SWAP1 SSTORE POP POP JUMP JUMPDEST PUSH1 0x1D PUSH1 0x0 SWAP1 SLOAD SWAP1 PUSH2 0x100 EXP SWAP1 DIV PUSH20 0xFFFFFFFFFFFFFFFFFFFFFFFFFFFFFFFFFFFFFFFF AND DUP2 JUMP JUMPDEST PUSH1 0x23 PUSH1 0x20 MSTORE DUP1 PUSH1 0x0 MSTORE PUSH1 0x40 PUSH1 0x0 KECCAK256 PUSH1 0x0 SWAP2 POP SWAP1 POP DUP1 PUSH1 0x0 ADD SLOAD SWAP1 DUP1 PUSH1 0x1 ADD SLOAD SWAP1 DUP1 PUSH1 0x2 ADD SLOAD SWAP1 DUP1 PUSH1 0x3 ADD SLOAD SWAP1 DUP1 PUSH1 0x4 ADD SLOAD SWAP1 DUP1 PUSH1 0x5 ADD PUSH1 0x0 SWAP1 SLOAD SWAP1 PUSH2 0x100 EXP SWAP1 DIV PUSH20 0xFFFFFFFFFFFFFFFFFFFFFFFFFFFFFFFFFFFFFFFF AND SWAP1 DUP1 PUSH1 0x6 ADD SLOAD SWAP1 DUP1 PUSH1 0x7 ADD SLOAD SWAP1 DUP1 PUSH1 0x8 ADD SLOAD SWAP1 DUP1 PUSH1 0x9 ADD SLOAD SWAP1 DUP1 PUSH1 0xA ADD SLOAD SWAP1 DUP1 PUSH1 0xB ADD SLOAD SWAP1 POP DUP13 JUMP JUMPDEST PUSH1 0x17 PUSH1 0x20 MSTORE DUP1 PUSH1 0x0 MSTORE PUSH1 0x40 PUSH1 0x0 KECCAK256 PUSH1 0x0 SWAP2 POP SWAP1 POP SLOAD DUP2 JUMP JUMPDEST PUSH1 0x15 PUSH1 0x1 SWAP1 SLOAD SWAP1 PUSH2 0x100 EXP SWAP1 DIV PUSH1 0xFF AND DUP2 JUMP JUMPDEST JUMP JUMPDEST PUSH1 0x0 DUP1 PUSH1 0x0 PUSH2 0x2EA4 DUP5 PUSH2 0x2E9F DUP7 PUSH2 0x2E91 DUP9 PUSH2 0x2E83 PUSH2 0x11F6 JUMP JUMPDEST PUSH2 0x3648 SWAP1 SWAP2 SWAP1 PUSH4 0xFFFFFFFF AND JUMP JUMPDEST PUSH2 0x3674 SWAP1 SWAP2 SWAP1 PUSH4 0xFFFFFFFF AND JUMP JUMPDEST PUSH2 0x15D9 JUMP JUMPDEST SWAP1 POP PUSH1 0x0 PUSH2 0x2EBD PUSH1 0x0 SLOAD DUP4 PUSH2 0x369B SWAP1 SWAP2 SWAP1 PUSH4 0xFFFFFFFF AND JUMP JUMPDEST SWAP1 POP PUSH1 0x0 PUSH3 0x15180 SWAP1 POP PUSH1 0x0 PUSH2 0x2EDC DUP4 DUP4 PUSH2 0x36B6 SWAP1 SWAP2 SWAP1 PUSH4 0xFFFFFFFF AND JUMP JUMPDEST SWAP1 POP PUSH1 0x0 PUSH2 0x2EEA DUP3 DUP10 PUSH2 0x3097 JUMP JUMPDEST SWAP1 POP DUP4 DUP2 SWAP7 POP SWAP7 POP POP POP POP POP POP SWAP2 POP SWAP2 JUMP JUMPDEST PUSH1 0x1C PUSH1 0x0 SWAP1 SLOAD SWAP1 PUSH2 0x100 EXP SWAP1 DIV PUSH20 0xFFFFFFFFFFFFFFFFFFFFFFFFFFFFFFFFFFFFFFFF AND PUSH20 0xFFFFFFFFFFFFFFFFFFFFFFFFFFFFFFFFFFFFFFFF AND CALLER PUSH20 0xFFFFFFFFFFFFFFFFFFFFFFFFFFFFFFFFFFFFFFFF AND EQ PUSH2 0x2F8C JUMPI PUSH1 0x40 MLOAD PUSH32 0x8C379A000000000000000000000000000000000000000000000000000000000 DUP2 MSTORE PUSH1 0x4 ADD PUSH2 0x2F83 SWAP1 PUSH2 0x41C2 JUMP JUMPDEST PUSH1 0x40 MLOAD DUP1 SWAP2 SUB SWAP1 REVERT JUMPDEST PUSH2 0x384 DUP2 GT ISZERO PUSH2 0x2F9B JUMPI PUSH1 0x0 DUP1 REVERT JUMPDEST DUP1 PUSH1 0xB DUP2 SWAP1 SSTORE POP POP JUMP JUMPDEST PUSH1 0x0 PUSH1 0x1C PUSH1 0x0 SWAP1 SLOAD SWAP1 PUSH2 0x100 EXP SWAP1 DIV PUSH20 0xFFFFFFFFFFFFFFFFFFFFFFFFFFFFFFFFFFFFFFFF AND PUSH20 0xFFFFFFFFFFFFFFFFFFFFFFFFFFFFFFFFFFFFFFFF AND CALLER PUSH20 0xFFFFFFFFFFFFFFFFFFFFFFFFFFFFFFFFFFFFFFFF AND EQ PUSH2 0x3037 JUMPI PUSH1 0x40 MLOAD PUSH32 0x8C379A000000000000000000000000000000000000000000000000000000000 DUP2 MSTORE PUSH1 0x4 ADD PUSH2 0x302E SWAP1 PUSH2 0x41C2 JUMP JUMPDEST PUSH1 0x40 MLOAD DUP1 SWAP2 SUB SWAP1 REVERT JUMPDEST PUSH1 0x16 PUSH1 0x0 DUP4 PUSH20 0xFFFFFFFFFFFFFFFFFFFFFFFFFFFFFFFFFFFFFFFF AND PUSH20 0xFFFFFFFFFFFFFFFFFFFFFFFFFFFFFFFFFFFFFFFF AND DUP2 MSTORE PUSH1 0x20 ADD SWAP1 DUP2 MSTORE PUSH1 0x20 ADD PUSH1 0x0 KECCAK256 PUSH1 0x0 SWAP1 SLOAD SWAP1 PUSH2 0x100 EXP SWAP1 DIV PUSH1 0xFF AND SWAP1 POP SWAP2 SWAP1 POP JUMP JUMPDEST PUSH1 0x1 SLOAD DUP2 JUMP JUMPDEST PUSH1 0x9 SLOAD DUP2 JUMP JUMPDEST PUSH1 0x0 PUSH2 0x30BF DUP4 PUSH1 0x12 SLOAD PUSH2 0x30BA DUP6 PUSH2 0x30AC PUSH2 0x11F6 JUMP JUMPDEST PUSH2 0x3648 SWAP1 SWAP2 SWAP1 PUSH4 0xFFFFFFFF AND JUMP JUMPDEST PUSH2 0x1560 JUMP JUMPDEST SWAP1 POP SWAP3 SWAP2 POP POP JUMP JUMPDEST PUSH1 0x6 SLOAD DUP2 JUMP JUMPDEST PUSH1 0x8 SLOAD DUP2 JUMP JUMPDEST PUSH1 0x0 DUP1 PUSH2 0x312B PUSH1 0x23 PUSH1 0x0 DUP6 PUSH20 0xFFFFFFFFFFFFFFFFFFFFFFFFFFFFFFFFFFFFFFFF AND PUSH20 0xFFFFFFFFFFFFFFFFFFFFFFFFFFFFFFFFFFFFFFFF AND DUP2 MSTORE PUSH1 0x20 ADD SWAP1 DUP2 MSTORE PUSH1 0x20 ADD PUSH1 0x0 KECCAK256 PUSH1 0x4 ADD SLOAD TIMESTAMP PUSH2 0x3674 SWAP1 SWAP2 SWAP1 PUSH4 0xFFFFFFFF AND JUMP JUMPDEST SWAP1 POP PUSH1 0x0 PUSH2 0x313B DUP3 PUSH1 0x1A SLOAD PUSH2 0x3BC9 JUMP JUMPDEST SWAP1 POP PUSH1 0x0 PUSH2 0x314B PUSH1 0x0 SLOAD DUP4 PUSH2 0x3BC9 JUMP JUMPDEST SWAP1 POP PUSH2 0x31A2 PUSH1 0x23 PUSH1 0x0 DUP8 PUSH20 0xFFFFFFFFFFFFFFFFFFFFFFFFFFFFFFFFFFFFFFFF AND PUSH20 0xFFFFFFFFFFFFFFFFFFFFFFFFFFFFFFFFFFFFFFFF AND DUP2 MSTORE PUSH1 0x20 ADD SWAP1 DUP2 MSTORE PUSH1 0x20 ADD PUSH1 0x0 KECCAK256 PUSH1 0x2 ADD SLOAD DUP3 PUSH2 0x36B6 SWAP1 SWAP2 SWAP1 PUSH4 0xFFFFFFFF AND JUMP JUMPDEST SWAP4 POP POP POP POP SWAP2 SWAP1 POP JUMP JUMPDEST PUSH1 0x1C PUSH1 0x0 SWAP1 SLOAD SWAP1 PUSH2 0x100 EXP SWAP1 DIV PUSH20 0xFFFFFFFFFFFFFFFFFFFFFFFFFFFFFFFFFFFFFFFF AND PUSH20 0xFFFFFFFFFFFFFFFFFFFFFFFFFFFFFFFFFFFFFFFF AND CALLER PUSH20 0xFFFFFFFFFFFFFFFFFFFFFFFFFFFFFFFFFFFFFFFF AND EQ PUSH2 0x323C JUMPI PUSH1 0x40 MLOAD PUSH32 0x8C379A000000000000000000000000000000000000000000000000000000000 DUP2 MSTORE PUSH1 0x4 ADD PUSH2 0x3233 SWAP1 PUSH2 0x41C2 JUMP JUMPDEST PUSH1 0x40 MLOAD DUP1 SWAP2 SUB SWAP1 REVERT JUMPDEST DUP1 PUSH1 0x16 PUSH1 0x0 DUP5 PUSH20 0xFFFFFFFFFFFFFFFFFFFFFFFFFFFFFFFFFFFFFFFF AND PUSH20 0xFFFFFFFFFFFFFFFFFFFFFFFFFFFFFFFFFFFFFFFF AND DUP2 MSTORE PUSH1 0x20 ADD SWAP1 DUP2 MSTORE PUSH1 0x20 ADD PUSH1 0x0 KECCAK256 PUSH1 0x0 PUSH2 0x100 EXP DUP2 SLOAD DUP2 PUSH1 0xFF MUL NOT AND SWAP1 DUP4 ISZERO ISZERO MUL OR SWAP1 SSTORE POP POP POP JUMP JUMPDEST PUSH1 0x0 TIMESTAMP SWAP1 POP SWAP1 JUMP JUMPDEST PUSH1 0x15 PUSH1 0x0 SWAP1 SLOAD SWAP1 PUSH2 0x100 EXP SWAP1 DIV PUSH1 0xFF AND PUSH2 0x3389 JUMPI PUSH1 0x1C PUSH1 0x0 SWAP1 SLOAD SWAP1 PUSH2 0x100 EXP SWAP1 DIV PUSH20 0xFFFFFFFFFFFFFFFFFFFFFFFFFFFFFFFFFFFFFFFF AND PUSH20 0xFFFFFFFFFFFFFFFFFFFFFFFFFFFFFFFFFFFFFFFF AND CALLER PUSH20 0xFFFFFFFFFFFFFFFFFFFFFFFFFFFFFFFFFFFFFFFF AND EQ ISZERO PUSH2 0x334D JUMPI PUSH1 0x0 PUSH1 0x12 SLOAD EQ PUSH2 0x3318 JUMPI PUSH1 0x0 DUP1 REVERT JUMPDEST PUSH1 0x1 PUSH1 0x15 PUSH1 0x0 PUSH2 0x100 EXP DUP2 SLOAD DUP2 PUSH1 0xFF MUL NOT AND SWAP1 DUP4 ISZERO ISZERO MUL OR SWAP1 SSTORE POP PUSH5 0x218711A000 PUSH1 0x12 DUP2 SWAP1 SSTORE POP PUSH2 0x3348 DUP2 PUSH2 0x1B64 JUMP JUMPDEST PUSH2 0x3388 JUMP JUMPDEST PUSH1 0x40 MLOAD PUSH32 0x8C379A000000000000000000000000000000000000000000000000000000000 DUP2 MSTORE PUSH1 0x4 ADD PUSH2 0x337F SWAP1 PUSH2 0x44AD JUMP JUMPDEST PUSH1 0x40 MLOAD DUP1 SWAP2 SUB SWAP1 REVERT JUMPDEST JUMPDEST POP JUMP JUMPDEST PUSH1 0x1C PUSH1 0x0 SWAP1 SLOAD SWAP1 PUSH2 0x100 EXP SWAP1 DIV PUSH20 0xFFFFFFFFFFFFFFFFFFFFFFFFFFFFFFFFFFFFFFFF AND PUSH20 0xFFFFFFFFFFFFFFFFFFFFFFFFFFFFFFFFFFFFFFFF AND CALLER PUSH20 0xFFFFFFFFFFFFFFFFFFFFFFFFFFFFFFFFFFFFFFFF AND EQ PUSH2 0x341C JUMPI PUSH1 0x40 MLOAD PUSH32 0x8C379A000000000000000000000000000000000000000000000000000000000 DUP2 MSTORE PUSH1 0x4 ADD PUSH2 0x3413 SWAP1 PUSH2 0x41C2 JUMP JUMPDEST PUSH1 0x40 MLOAD DUP1 SWAP2 SUB SWAP1 REVERT JUMPDEST PUSH3 0x75120 DUP2 LT ISZERO DUP1 ISZERO PUSH2 0x3432 JUMPI POP PUSH3 0xAFC80 DUP2 GT ISZERO JUMPDEST PUSH2 0x343B JUMPI PUSH1 0x0 DUP1 REVERT JUMPDEST DUP1 PUSH1 0x0 DUP2 SWAP1 SSTORE POP POP JUMP JUMPDEST PUSH1 0x1C PUSH1 0x0 SWAP1 SLOAD SWAP1 PUSH2 0x100 EXP SWAP1 DIV PUSH20 0xFFFFFFFFFFFFFFFFFFFFFFFFFFFFFFFFFFFFFFFF AND PUSH20 0xFFFFFFFFFFFFFFFFFFFFFFFFFFFFFFFFFFFFFFFF AND CALLER PUSH20 0xFFFFFFFFFFFFFFFFFFFFFFFFFFFFFFFFFFFFFFFF AND EQ PUSH2 0x34D5 JUMPI PUSH1 0x40 MLOAD PUSH32 0x8C379A000000000000000000000000000000000000000000000000000000000 DUP2 MSTORE PUSH1 0x4 ADD PUSH2 0x34CC SWAP1 PUSH2 0x41C2 JUMP JUMPDEST PUSH1 0x40 MLOAD DUP1 SWAP2 SUB SWAP1 REVERT JUMPDEST PUSH1 0xC DUP2 GT ISZERO PUSH2 0x34E3 JUMPI PUSH1 0x0 DUP1 REVERT JUMPDEST DUP1 PUSH1 0xC DUP2 SWAP1 SSTORE POP POP JUMP JUMPDEST PUSH1 0x1C PUSH1 0x0 SWAP1 SLOAD SWAP1 PUSH2 0x100 EXP SWAP1 DIV PUSH20 0xFFFFFFFFFFFFFFFFFFFFFFFFFFFFFFFFFFFFFFFF AND PUSH20 0xFFFFFFFFFFFFFFFFFFFFFFFFFFFFFFFFFFFFFFFF AND CALLER PUSH20 0xFFFFFFFFFFFFFFFFFFFFFFFFFFFFFFFFFFFFFFFF AND EQ PUSH2 0x357D JUMPI PUSH1 0x40 MLOAD PUSH32 0x8C379A000000000000000000000000000000000000000000000000000000000 DUP2 MSTORE PUSH1 0x4 ADD PUSH2 0x3574 SWAP1 PUSH2 0x41C2 JUMP JUMPDEST PUSH1 0x40 MLOAD DUP1 SWAP2 SUB SWAP1 REVERT JUMPDEST PUSH1 0x0 JUMPDEST DUP4 DUP4 SWAP1 POP DUP2 LT ISZERO PUSH2 0x361C JUMPI DUP2 PUSH1 0x16 PUSH1 0x0 DUP7 DUP7 DUP6 DUP2 DUP2 LT PUSH2 0x35A3 JUMPI PUSH2 0x35A2 PUSH2 0x44CD JUMP JUMPDEST JUMPDEST SWAP1 POP PUSH1 0x20 MUL ADD PUSH1 0x20 DUP2 ADD SWAP1 PUSH2 0x35B8 SWAP2 SWAP1 PUSH2 0x3D78 JUMP JUMPDEST PUSH20 0xFFFFFFFFFFFFFFFFFFFFFFFFFFFFFFFFFFFFFFFF AND PUSH20 0xFFFFFFFFFFFFFFFFFFFFFFFFFFFFFFFFFFFFFFFF AND DUP2 MSTORE PUSH1 0x20 ADD SWAP1 DUP2 MSTORE PUSH1 0x20 ADD PUSH1 0x0 KECCAK256 PUSH1 0x0 PUSH2 0x100 EXP DUP2 SLOAD DUP2 PUSH1 0xFF MUL NOT AND SWAP1 DUP4 ISZERO ISZERO MUL OR SWAP1 SSTORE POP DUP1 DUP1 PUSH2 0x3614 SWAP1 PUSH2 0x44FC JUMP JUMPDEST SWAP2 POP POP PUSH2 0x3580 JUMP JUMPDEST POP POP POP POP JUMP JUMPDEST PUSH1 0xC SLOAD DUP2 JUMP JUMPDEST PUSH1 0x16 PUSH1 0x20 MSTORE DUP1 PUSH1 0x0 MSTORE PUSH1 0x40 PUSH1 0x0 KECCAK256 PUSH1 0x0 SWAP2 POP SLOAD SWAP1 PUSH2 0x100 EXP SWAP1 DIV PUSH1 0xFF AND DUP2 JUMP JUMPDEST PUSH1 0x0 DUP1 DUP3 DUP5 PUSH2 0x3657 SWAP2 SWAP1 PUSH2 0x4545 JUMP JUMPDEST SWAP1 POP DUP4 DUP2 LT ISZERO PUSH2 0x366A JUMPI PUSH2 0x3669 PUSH2 0x459B JUMP JUMPDEST JUMPDEST DUP1 SWAP2 POP POP SWAP3 SWAP2 POP POP JUMP JUMPDEST PUSH1 0x0 DUP3 DUP3 GT ISZERO PUSH2 0x3687 JUMPI PUSH2 0x3686 PUSH2 0x459B JUMP JUMPDEST JUMPDEST DUP2 DUP4 PUSH2 0x3693 SWAP2 SWAP1 PUSH2 0x45CA JUMP JUMPDEST SWAP1 POP SWAP3 SWAP2 POP POP JUMP JUMPDEST PUSH1 0x0 DUP1 DUP3 DUP5 PUSH2 0x36AA SWAP2 SWAP1 PUSH2 0x462D JUMP JUMPDEST SWAP1 POP DUP1 SWAP2 POP POP SWAP3 SWAP2 POP POP JUMP JUMPDEST PUSH1 0x0 DUP1 DUP4 EQ ISZERO PUSH2 0x36C9 JUMPI PUSH1 0x0 SWAP1 POP PUSH2 0x36F9 JUMP JUMPDEST PUSH1 0x0 DUP3 DUP5 PUSH2 0x36D7 SWAP2 SWAP1 PUSH2 0x42C3 JUMP JUMPDEST SWAP1 POP DUP3 DUP5 DUP3 PUSH2 0x36E6 SWAP2 SWAP1 PUSH2 0x462D JUMP JUMPDEST EQ PUSH2 0x36F4 JUMPI PUSH2 0x36F3 PUSH2 0x459B JUMP JUMPDEST JUMPDEST DUP1 SWAP2 POP POP JUMPDEST SWAP3 SWAP2 POP POP JUMP JUMPDEST PUSH1 0x0 DUP3 SWAP1 POP PUSH1 0x0 PUSH1 0x3 PUSH8 0xFFFFFFFFFFFFFFFF DUP2 GT ISZERO PUSH2 0x3721 JUMPI PUSH2 0x3720 PUSH2 0x465E JUMP JUMPDEST JUMPDEST PUSH1 0x40 MLOAD SWAP1 DUP1 DUP3 MSTORE DUP1 PUSH1 0x20 MUL PUSH1 0x20 ADD DUP3 ADD PUSH1 0x40 MSTORE DUP1 ISZERO PUSH2 0x374F JUMPI DUP2 PUSH1 0x20 ADD PUSH1 0x20 DUP3 MUL DUP1 CALLDATASIZE DUP4 CALLDATACOPY DUP1 DUP3 ADD SWAP2 POP POP SWAP1 POP JUMPDEST POP SWAP1 POP PUSH1 0x8 DUP2 PUSH1 0x0 DUP2 MLOAD DUP2 LT PUSH2 0x3768 JUMPI PUSH2 0x3767 PUSH2 0x44CD JUMP JUMPDEST JUMPDEST PUSH1 0x20 MUL PUSH1 0x20 ADD ADD DUP2 DUP2 MSTORE POP POP PUSH1 0x3 DUP2 PUSH1 0x1 DUP2 MLOAD DUP2 LT PUSH2 0x378A JUMPI PUSH2 0x3789 PUSH2 0x44CD JUMP JUMPDEST JUMPDEST PUSH1 0x20 MUL PUSH1 0x20 ADD ADD DUP2 DUP2 MSTORE POP POP PUSH1 0x2 DUP2 PUSH1 0x2 DUP2 MLOAD DUP2 LT PUSH2 0x37AC JUMPI PUSH2 0x37AB PUSH2 0x44CD JUMP JUMPDEST JUMPDEST PUSH1 0x20 MUL PUSH1 0x20 ADD ADD DUP2 DUP2 MSTORE POP POP PUSH1 0x0 JUMPDEST PUSH1 0x3 DUP2 LT ISZERO PUSH2 0x3A66 JUMPI PUSH1 0x0 PUSH20 0xFFFFFFFFFFFFFFFFFFFFFFFFFFFFFFFFFFFFFFFF AND PUSH1 0x23 PUSH1 0x0 DUP6 PUSH20 0xFFFFFFFFFFFFFFFFFFFFFFFFFFFFFFFFFFFFFFFF AND PUSH20 0xFFFFFFFFFFFFFFFFFFFFFFFFFFFFFFFFFFFFFFFF AND DUP2 MSTORE PUSH1 0x20 ADD SWAP1 DUP2 MSTORE PUSH1 0x20 ADD PUSH1 0x0 KECCAK256 PUSH1 0x5 ADD PUSH1 0x0 SWAP1 SLOAD SWAP1 PUSH2 0x100 EXP SWAP1 DIV PUSH20 0xFFFFFFFFFFFFFFFFFFFFFFFFFFFFFFFFFFFFFFFF AND PUSH20 0xFFFFFFFFFFFFFFFFFFFFFFFFFFFFFFFFFFFFFFFF AND EQ PUSH2 0x3A4E JUMPI PUSH1 0x23 PUSH1 0x0 DUP5 PUSH20 0xFFFFFFFFFFFFFFFFFFFFFFFFFFFFFFFFFFFFFFFF AND PUSH20 0xFFFFFFFFFFFFFFFFFFFFFFFFFFFFFFFFFFFFFFFF AND DUP2 MSTORE PUSH1 0x20 ADD SWAP1 DUP2 MSTORE PUSH1 0x20 ADD PUSH1 0x0 KECCAK256 PUSH1 0x5 ADD PUSH1 0x0 SWAP1 SLOAD SWAP1 PUSH2 0x100 EXP SWAP1 DIV PUSH20 0xFFFFFFFFFFFFFFFFFFFFFFFFFFFFFFFFFFFFFFFF AND SWAP3 POP PUSH1 0x0 PUSH1 0x64 DUP6 DUP5 DUP5 DUP2 MLOAD DUP2 LT PUSH2 0x38D7 JUMPI PUSH2 0x38D6 PUSH2 0x44CD JUMP JUMPDEST JUMPDEST PUSH1 0x20 MUL PUSH1 0x20 ADD ADD MLOAD PUSH2 0x38E9 SWAP2 SWAP1 PUSH2 0x42C3 JUMP JUMPDEST PUSH2 0x38F3 SWAP2 SWAP1 PUSH2 0x462D JUMP JUMPDEST SWAP1 POP DUP1 PUSH1 0x18 PUSH1 0x0 DUP7 PUSH20 0xFFFFFFFFFFFFFFFFFFFFFFFFFFFFFFFFFFFFFFFF AND PUSH20 0xFFFFFFFFFFFFFFFFFFFFFFFFFFFFFFFFFFFFFFFF AND DUP2 MSTORE PUSH1 0x20 ADD SWAP1 DUP2 MSTORE PUSH1 0x20 ADD PUSH1 0x0 KECCAK256 PUSH1 0x0 DUP3 DUP3 SLOAD PUSH2 0x3944 SWAP2 SWAP1 PUSH2 0x4545 JUMP JUMPDEST SWAP3 POP POP DUP2 SWAP1 SSTORE POP DUP4 PUSH20 0xFFFFFFFFFFFFFFFFFFFFFFFFFFFFFFFFFFFFFFFF AND PUSH2 0x8FC DUP3 SWAP1 DUP2 ISZERO MUL SWAP1 PUSH1 0x40 MLOAD PUSH1 0x0 PUSH1 0x40 MLOAD DUP1 DUP4 SUB DUP2 DUP6 DUP9 DUP9 CALL SWAP4 POP POP POP POP ISZERO DUP1 ISZERO PUSH2 0x3991 JUMPI RETURNDATASIZE PUSH1 0x0 DUP1 RETURNDATACOPY RETURNDATASIZE PUSH1 0x0 REVERT JUMPDEST POP PUSH2 0x39E7 DUP2 PUSH1 0x23 PUSH1 0x0 DUP8 PUSH20 0xFFFFFFFFFFFFFFFFFFFFFFFFFFFFFFFFFFFFFFFF AND PUSH20 0xFFFFFFFFFFFFFFFFFFFFFFFFFFFFFFFFFFFFFFFF AND DUP2 MSTORE PUSH1 0x20 ADD SWAP1 DUP2 MSTORE PUSH1 0x20 ADD PUSH1 0x0 KECCAK256 PUSH1 0x7 ADD SLOAD PUSH2 0x3648 SWAP1 SWAP2 SWAP1 PUSH4 0xFFFFFFFF AND JUMP JUMPDEST PUSH1 0x23 PUSH1 0x0 DUP7 PUSH20 0xFFFFFFFFFFFFFFFFFFFFFFFFFFFFFFFFFFFFFFFF AND PUSH20 0xFFFFFFFFFFFFFFFFFFFFFFFFFFFFFFFFFFFFFFFF AND DUP2 MSTORE PUSH1 0x20 ADD SWAP1 DUP2 MSTORE PUSH1 0x20 ADD PUSH1 0x0 KECCAK256 PUSH1 0x7 ADD DUP2 SWAP1 SSTORE POP PUSH2 0x3A42 DUP2 PUSH1 0x10 SLOAD PUSH2 0x3648 SWAP1 SWAP2 SWAP1 PUSH4 0xFFFFFFFF AND JUMP JUMPDEST PUSH1 0x10 DUP2 SWAP1 SSTORE POP POP PUSH2 0x3A53 JUMP JUMPDEST PUSH2 0x3A66 JUMP JUMPDEST DUP1 DUP1 PUSH2 0x3A5E SWAP1 PUSH2 0x44FC JUMP JUMPDEST SWAP2 POP POP PUSH2 0x37BB JUMP JUMPDEST POP POP POP POP POP JUMP JUMPDEST PUSH1 0x0 DUP1 PUSH2 0x3A99 PUSH1 0x2 SLOAD PUSH2 0x3A8B PUSH1 0x3 SLOAD DUP7 PUSH2 0x36B6 SWAP1 SWAP2 SWAP1 PUSH4 0xFFFFFFFF AND JUMP JUMPDEST PUSH2 0x369B SWAP1 SWAP2 SWAP1 PUSH4 0xFFFFFFFF AND JUMP JUMPDEST SWAP1 POP PUSH1 0x0 PUSH2 0x3AC6 PUSH1 0x2 SLOAD PUSH2 0x3AB8 PUSH1 0x4 SLOAD DUP8 PUSH2 0x36B6 SWAP1 SWAP2 SWAP1 PUSH4 0xFFFFFFFF AND JUMP JUMPDEST PUSH2 0x369B SWAP1 SWAP2 SWAP1 PUSH4 0xFFFFFFFF AND JUMP JUMPDEST SWAP1 POP PUSH1 0x1D PUSH1 0x0 SWAP1 SLOAD SWAP1 PUSH2 0x100 EXP SWAP1 DIV PUSH20 0xFFFFFFFFFFFFFFFFFFFFFFFFFFFFFFFFFFFFFFFF AND PUSH20 0xFFFFFFFFFFFFFFFFFFFFFFFFFFFFFFFFFFFFFFFF AND PUSH2 0x8FC DUP4 SWAP1 DUP2 ISZERO MUL SWAP1 PUSH1 0x40 MLOAD PUSH1 0x0 PUSH1 0x40 MLOAD DUP1 DUP4 SUB DUP2 DUP6 DUP9 DUP9 CALL SWAP4 POP POP POP POP ISZERO DUP1 ISZERO PUSH2 0x3B30 JUMPI RETURNDATASIZE PUSH1 0x0 DUP1 RETURNDATACOPY RETURNDATASIZE PUSH1 0x0 REVERT JUMPDEST POP PUSH1 0x22 PUSH1 0x0 SWAP1 SLOAD SWAP1 PUSH2 0x100 EXP SWAP1 DIV PUSH20 0xFFFFFFFFFFFFFFFFFFFFFFFFFFFFFFFFFFFFFFFF AND PUSH20 0xFFFFFFFFFFFFFFFFFFFFFFFFFFFFFFFFFFFFFFFF AND PUSH2 0x8FC DUP3 SWAP1 DUP2 ISZERO MUL SWAP1 PUSH1 0x40 MLOAD PUSH1 0x0 PUSH1 0x40 MLOAD DUP1 DUP4 SUB DUP2 DUP6 DUP9 DUP9 CALL SWAP4 POP POP POP POP ISZERO DUP1 ISZERO PUSH2 0x3B99 JUMPI RETURNDATASIZE PUSH1 0x0 DUP1 RETURNDATACOPY RETURNDATASIZE PUSH1 0x0 REVERT JUMPDEST POP PUSH2 0x3BC0 PUSH2 0x3BB1 PUSH1 0x1 DUP5 PUSH2 0x36B6 SWAP1 SWAP2 SWAP1 PUSH4 0xFFFFFFFF AND JUMP JUMPDEST DUP3 PUSH2 0x3648 SWAP1 SWAP2 SWAP1 PUSH4 0xFFFFFFFF AND JUMP JUMPDEST SWAP3 POP POP POP SWAP2 SWAP1 POP JUMP JUMPDEST PUSH1 0x0 DUP2 DUP4 LT PUSH2 0x3BD8 JUMPI DUP2 PUSH2 0x3BDA JUMP JUMPDEST DUP3 JUMPDEST SWAP1 POP SWAP3 SWAP2 POP POP JUMP JUMPDEST PUSH1 0x0 DUP2 SWAP1 POP SWAP2 SWAP1 POP JUMP JUMPDEST PUSH2 0x3BF5 DUP2 PUSH2 0x3BE2 JUMP JUMPDEST DUP3 MSTORE POP POP JUMP JUMPDEST PUSH1 0x0 PUSH1 0x20 DUP3 ADD SWAP1 POP PUSH2 0x3C10 PUSH1 0x0 DUP4 ADD DUP5 PUSH2 0x3BEC JUMP JUMPDEST SWAP3 SWAP2 POP POP JUMP JUMPDEST PUSH1 0x0 PUSH20 0xFFFFFFFFFFFFFFFFFFFFFFFFFFFFFFFFFFFFFFFF DUP3 AND SWAP1 POP SWAP2 SWAP1 POP JUMP JUMPDEST PUSH1 0x0 PUSH2 0x3C41 DUP3 PUSH2 0x3C16 JUMP JUMPDEST SWAP1 POP SWAP2 SWAP1 POP JUMP JUMPDEST PUSH2 0x3C51 DUP2 PUSH2 0x3C36 JUMP JUMPDEST DUP3 MSTORE POP POP JUMP JUMPDEST PUSH1 0x0 PUSH1 0x20 DUP3 ADD SWAP1 POP PUSH2 0x3C6C PUSH1 0x0 DUP4 ADD DUP5 PUSH2 0x3C48 JUMP JUMPDEST SWAP3 SWAP2 POP POP JUMP JUMPDEST PUSH1 0x0 DUP1 REVERT JUMPDEST PUSH1 0x0 DUP1 REVERT JUMPDEST PUSH1 0x0 DUP2 ISZERO ISZERO SWAP1 POP SWAP2 SWAP1 POP JUMP JUMPDEST PUSH2 0x3C91 DUP2 PUSH2 0x3C7C JUMP JUMPDEST DUP2 EQ PUSH2 0x3C9C JUMPI PUSH1 0x0 DUP1 REVERT JUMPDEST POP JUMP JUMPDEST PUSH1 0x0 DUP2 CALLDATALOAD SWAP1 POP PUSH2 0x3CAE DUP2 PUSH2 0x3C88 JUMP JUMPDEST SWAP3 SWAP2 POP POP JUMP JUMPDEST PUSH1 0x0 PUSH1 0x20 DUP3 DUP5 SUB SLT ISZERO PUSH2 0x3CCA JUMPI PUSH2 0x3CC9 PUSH2 0x3C72 JUMP JUMPDEST JUMPDEST PUSH1 0x0 PUSH2 0x3CD8 DUP5 DUP3 DUP6 ADD PUSH2 0x3C9F JUMP JUMPDEST SWAP2 POP POP SWAP3 SWAP2 POP POP JUMP JUMPDEST PUSH2 0x3CEA DUP2 PUSH2 0x3BE2 JUMP JUMPDEST DUP2 EQ PUSH2 0x3CF5 JUMPI PUSH1 0x0 DUP1 REVERT JUMPDEST POP JUMP JUMPDEST PUSH1 0x0 DUP2 CALLDATALOAD SWAP1 POP PUSH2 0x3D07 DUP2 PUSH2 0x3CE1 JUMP JUMPDEST SWAP3 SWAP2 POP POP JUMP JUMPDEST PUSH1 0x0 PUSH1 0x20 DUP3 DUP5 SUB SLT ISZERO PUSH2 0x3D23 JUMPI PUSH2 0x3D22 PUSH2 0x3C72 JUMP JUMPDEST JUMPDEST PUSH1 0x0 PUSH2 0x3D31 DUP5 DUP3 DUP6 ADD PUSH2 0x3CF8 JUMP JUMPDEST SWAP2 POP POP SWAP3 SWAP2 POP POP JUMP JUMPDEST PUSH1 0x0 PUSH2 0x3D45 DUP3 PUSH2 0x3C16 JUMP JUMPDEST SWAP1 POP SWAP2 SWAP1 POP JUMP JUMPDEST PUSH2 0x3D55 DUP2 PUSH2 0x3D3A JUMP JUMPDEST DUP2 EQ PUSH2 0x3D60 JUMPI PUSH1 0x0 DUP1 REVERT JUMPDEST POP JUMP JUMPDEST PUSH1 0x0 DUP2 CALLDATALOAD SWAP1 POP PUSH2 0x3D72 DUP2 PUSH2 0x3D4C JUMP JUMPDEST SWAP3 SWAP2 POP POP JUMP JUMPDEST PUSH1 0x0 PUSH1 0x20 DUP3 DUP5 SUB SLT ISZERO PUSH2 0x3D8E JUMPI PUSH2 0x3D8D PUSH2 0x3C72 JUMP JUMPDEST JUMPDEST PUSH1 0x0 PUSH2 0x3D9C DUP5 DUP3 DUP6 ADD PUSH2 0x3D63 JUMP JUMPDEST SWAP2 POP POP SWAP3 SWAP2 POP POP JUMP JUMPDEST PUSH1 0x0 DUP1 PUSH1 0x0 PUSH1 0x60 DUP5 DUP7 SUB SLT ISZERO PUSH2 0x3DBE JUMPI PUSH2 0x3DBD PUSH2 0x3C72 JUMP JUMPDEST JUMPDEST PUSH1 0x0 PUSH2 0x3DCC DUP7 DUP3 DUP8 ADD PUSH2 0x3CF8 JUMP JUMPDEST SWAP4 POP POP PUSH1 0x20 PUSH2 0x3DDD DUP7 DUP3 DUP8 ADD PUSH2 0x3CF8 JUMP JUMPDEST SWAP3 POP POP PUSH1 0x40 PUSH2 0x3DEE DUP7 DUP3 DUP8 ADD PUSH2 0x3CF8 JUMP JUMPDEST SWAP2 POP POP SWAP3 POP SWAP3 POP SWAP3 JUMP JUMPDEST PUSH1 0x0 DUP1 PUSH1 0x40 DUP4 DUP6 SUB SLT ISZERO PUSH2 0x3E0F JUMPI PUSH2 0x3E0E PUSH2 0x3C72 JUMP JUMPDEST JUMPDEST PUSH1 0x0 PUSH2 0x3E1D DUP6 DUP3 DUP7 ADD PUSH2 0x3CF8 JUMP JUMPDEST SWAP3 POP POP PUSH1 0x20 PUSH2 0x3E2E DUP6 DUP3 DUP7 ADD PUSH2 0x3CF8 JUMP JUMPDEST SWAP2 POP POP SWAP3 POP SWAP3 SWAP1 POP JUMP JUMPDEST PUSH2 0x3E41 DUP2 PUSH2 0x3C7C JUMP JUMPDEST DUP3 MSTORE POP POP JUMP JUMPDEST PUSH1 0x0 PUSH1 0x20 DUP3 ADD SWAP1 POP PUSH2 0x3E5C PUSH1 0x0 DUP4 ADD DUP5 PUSH2 0x3E38 JUMP JUMPDEST SWAP3 SWAP2 POP POP JUMP JUMPDEST PUSH1 0x0 PUSH1 0x80 DUP3 ADD SWAP1 POP PUSH2 0x3E77 PUSH1 0x0 DUP4 ADD DUP8 PUSH2 0x3BEC JUMP JUMPDEST PUSH2 0x3E84 PUSH1 0x20 DUP4 ADD DUP7 PUSH2 0x3BEC JUMP JUMPDEST PUSH2 0x3E91 PUSH1 0x40 DUP4 ADD DUP6 PUSH2 0x3BEC JUMP JUMPDEST PUSH2 0x3E9E PUSH1 0x60 DUP4 ADD DUP5 PUSH2 0x3BEC JUMP JUMPDEST SWAP6 SWAP5 POP POP POP POP POP JUMP JUMPDEST PUSH1 0x0 DUP1 PUSH1 0x40 DUP4 DUP6 SUB SLT ISZERO PUSH2 0x3EBE JUMPI PUSH2 0x3EBD PUSH2 0x3C72 JUMP JUMPDEST JUMPDEST PUSH1 0x0 PUSH2 0x3ECC DUP6 DUP3 DUP7 ADD PUSH2 0x3D63 JUMP JUMPDEST SWAP3 POP POP PUSH1 0x20 PUSH2 0x3EDD DUP6 DUP3 DUP7 ADD PUSH2 0x3CF8 JUMP JUMPDEST SWAP2 POP POP SWAP3 POP SWAP3 SWAP1 POP JUMP JUMPDEST PUSH2 0x3EF0 DUP2 PUSH2 0x3D3A JUMP JUMPDEST DUP3 MSTORE POP POP JUMP JUMPDEST PUSH1 0x0 PUSH2 0x180 DUP3 ADD SWAP1 POP PUSH2 0x3F0C PUSH1 0x0 DUP4 ADD DUP16 PUSH2 0x3BEC JUMP JUMPDEST PUSH2 0x3F19 PUSH1 0x20 DUP4 ADD DUP15 PUSH2 0x3BEC JUMP JUMPDEST PUSH2 0x3F26 PUSH1 0x40 DUP4 ADD DUP14 PUSH2 0x3BEC JUMP JUMPDEST PUSH2 0x3F33 PUSH1 0x60 DUP4 ADD DUP13 PUSH2 0x3BEC JUMP JUMPDEST PUSH2 0x3F40 PUSH1 0x80 DUP4 ADD DUP12 PUSH2 0x3BEC JUMP JUMPDEST PUSH2 0x3F4D PUSH1 0xA0 DUP4 ADD DUP11 PUSH2 0x3EE7 JUMP JUMPDEST PUSH2 0x3F5A PUSH1 0xC0 DUP4 ADD DUP10 PUSH2 0x3BEC JUMP JUMPDEST PUSH2 0x3F67 PUSH1 0xE0 DUP4 ADD DUP9 PUSH2 0x3BEC JUMP JUMPDEST PUSH2 0x3F75 PUSH2 0x100 DUP4 ADD DUP8 PUSH2 0x3BEC JUMP JUMPDEST PUSH2 0x3F83 PUSH2 0x120 DUP4 ADD DUP7 PUSH2 0x3BEC JUMP JUMPDEST PUSH2 0x3F91 PUSH2 0x140 DUP4 ADD DUP6 PUSH2 0x3BEC JUMP JUMPDEST PUSH2 0x3F9F PUSH2 0x160 DUP4 ADD DUP5 PUSH2 0x3BEC JUMP JUMPDEST SWAP14 SWAP13 POP POP POP POP POP POP POP POP POP POP POP POP POP JUMP JUMPDEST PUSH1 0x0 PUSH1 0x20 DUP3 ADD SWAP1 POP PUSH2 0x3FC5 PUSH1 0x0 DUP4 ADD DUP5 PUSH2 0x3EE7 JUMP JUMPDEST SWAP3 SWAP2 POP POP JUMP JUMPDEST PUSH1 0x0 PUSH1 0x40 DUP3 ADD SWAP1 POP PUSH2 0x3FE0 PUSH1 0x0 DUP4 ADD DUP6 PUSH2 0x3BEC JUMP JUMPDEST PUSH2 0x3FED PUSH1 0x20 DUP4 ADD DUP5 PUSH2 0x3BEC JUMP JUMPDEST SWAP4 SWAP3 POP POP POP JUMP JUMPDEST PUSH1 0x0 DUP1 PUSH1 0x40 DUP4 DUP6 SUB SLT ISZERO PUSH2 0x400B JUMPI PUSH2 0x400A PUSH2 0x3C72 JUMP JUMPDEST JUMPDEST PUSH1 0x0 PUSH2 0x4019 DUP6 DUP3 DUP7 ADD PUSH2 0x3D63 JUMP JUMPDEST SWAP3 POP POP PUSH1 0x20 PUSH2 0x402A DUP6 DUP3 DUP7 ADD PUSH2 0x3C9F JUMP JUMPDEST SWAP2 POP POP SWAP3 POP SWAP3 SWAP1 POP JUMP JUMPDEST PUSH1 0x0 DUP1 REVERT JUMPDEST PUSH1 0x0 DUP1 REVERT JUMPDEST PUSH1 0x0 DUP1 REVERT JUMPDEST PUSH1 0x0 DUP1 DUP4 PUSH1 0x1F DUP5 ADD SLT PUSH2 0x4059 JUMPI PUSH2 0x4058 PUSH2 0x4034 JUMP JUMPDEST JUMPDEST DUP3 CALLDATALOAD SWAP1 POP PUSH8 0xFFFFFFFFFFFFFFFF DUP2 GT ISZERO PUSH2 0x4076 JUMPI PUSH2 0x4075 PUSH2 0x4039 JUMP JUMPDEST JUMPDEST PUSH1 0x20 DUP4 ADD SWAP2 POP DUP4 PUSH1 0x20 DUP3 MUL DUP4 ADD GT ISZERO PUSH2 0x4092 JUMPI PUSH2 0x4091 PUSH2 0x403E JUMP JUMPDEST JUMPDEST SWAP3 POP SWAP3 SWAP1 POP JUMP JUMPDEST PUSH1 0x0 DUP1 PUSH1 0x0 PUSH1 0x40 DUP5 DUP7 SUB SLT ISZERO PUSH2 0x40B2 JUMPI PUSH2 0x40B1 PUSH2 0x3C72 JUMP JUMPDEST JUMPDEST PUSH1 0x0 DUP5 ADD CALLDATALOAD PUSH8 0xFFFFFFFFFFFFFFFF DUP2 GT ISZERO PUSH2 0x40D0 JUMPI PUSH2 0x40CF PUSH2 0x3C77 JUMP JUMPDEST JUMPDEST PUSH2 0x40DC DUP7 DUP3 DUP8 ADD PUSH2 0x4043 JUMP JUMPDEST SWAP4 POP SWAP4 POP POP PUSH1 0x20 PUSH2 0x40EF DUP7 DUP3 DUP8 ADD PUSH2 0x3C9F JUMP JUMPDEST SWAP2 POP POP SWAP3 POP SWAP3 POP SWAP3 JUMP JUMPDEST PUSH1 0x0 DUP3 DUP3 MSTORE PUSH1 0x20 DUP3 ADD SWAP1 POP SWAP3 SWAP2 POP POP JUMP JUMPDEST PUSH32 0x436F6E7472616374206E6F742079657420537461727465642E00000000000000 PUSH1 0x0 DUP3 ADD MSTORE POP JUMP JUMPDEST PUSH1 0x0 PUSH2 0x4140 PUSH1 0x19 DUP4 PUSH2 0x40F9 JUMP JUMPDEST SWAP2 POP PUSH2 0x414B DUP3 PUSH2 0x410A JUMP JUMPDEST PUSH1 0x20 DUP3 ADD SWAP1 POP SWAP2 SWAP1 POP JUMP JUMPDEST PUSH1 0x0 PUSH1 0x20 DUP3 ADD SWAP1 POP DUP2 DUP2 SUB PUSH1 0x0 DUP4 ADD MSTORE PUSH2 0x416F DUP2 PUSH2 0x4133 JUMP JUMPDEST SWAP1 POP SWAP2 SWAP1 POP JUMP JUMPDEST PUSH32 0x41646D696E20757365206F6E6C792E0000000000000000000000000000000000 PUSH1 0x0 DUP3 ADD MSTORE POP JUMP JUMPDEST PUSH1 0x0 PUSH2 0x41AC PUSH1 0xF DUP4 PUSH2 0x40F9 JUMP JUMPDEST SWAP2 POP PUSH2 0x41B7 DUP3 PUSH2 0x4176 JUMP JUMPDEST PUSH1 0x20 DUP3 ADD SWAP1 POP SWAP2 SWAP1 POP JUMP JUMPDEST PUSH1 0x0 PUSH1 0x20 DUP3 ADD SWAP1 POP DUP2 DUP2 SUB PUSH1 0x0 DUP4 ADD MSTORE PUSH2 0x41DB DUP2 PUSH2 0x419F JUMP JUMPDEST SWAP1 POP SWAP2 SWAP1 POP JUMP JUMPDEST PUSH1 0x0 DUP2 SWAP1 POP SWAP3 SWAP2 POP POP JUMP JUMPDEST POP JUMP JUMPDEST PUSH1 0x0 PUSH2 0x41FD PUSH1 0x0 DUP4 PUSH2 0x41E2 JUMP JUMPDEST SWAP2 POP PUSH2 0x4208 DUP3 PUSH2 0x41ED JUMP JUMPDEST PUSH1 0x0 DUP3 ADD SWAP1 POP SWAP2 SWAP1 POP JUMP JUMPDEST PUSH1 0x0 PUSH2 0x421E DUP3 PUSH2 0x41F0 JUMP JUMPDEST SWAP2 POP DUP2 SWAP1 POP SWAP2 SWAP1 POP JUMP JUMPDEST PUSH32 0x41646D696E20757365206F6E6C79000000000000000000000000000000000000 PUSH1 0x0 DUP3 ADD MSTORE POP JUMP JUMPDEST PUSH1 0x0 PUSH2 0x425E PUSH1 0xE DUP4 PUSH2 0x40F9 JUMP JUMPDEST SWAP2 POP PUSH2 0x4269 DUP3 PUSH2 0x4228 JUMP JUMPDEST PUSH1 0x20 DUP3 ADD SWAP1 POP SWAP2 SWAP1 POP JUMP JUMPDEST PUSH1 0x0 PUSH1 0x20 DUP3 ADD SWAP1 POP DUP2 DUP2 SUB PUSH1 0x0 DUP4 ADD MSTORE PUSH2 0x428D DUP2 PUSH2 0x4251 JUMP JUMPDEST SWAP1 POP SWAP2 SWAP1 POP JUMP JUMPDEST PUSH32 0x4E487B7100000000000000000000000000000000000000000000000000000000 PUSH1 0x0 MSTORE PUSH1 0x11 PUSH1 0x4 MSTORE PUSH1 0x24 PUSH1 0x0 REVERT JUMPDEST PUSH1 0x0 PUSH2 0x42CE DUP3 PUSH2 0x3BE2 JUMP JUMPDEST SWAP2 POP PUSH2 0x42D9 DUP4 PUSH2 0x3BE2 JUMP JUMPDEST SWAP3 POP DUP2 PUSH32 0xFFFFFFFFFFFFFFFFFFFFFFFFFFFFFFFFFFFFFFFFFFFFFFFFFFFFFFFFFFFFFFFF DIV DUP4 GT DUP3 ISZERO ISZERO AND ISZERO PUSH2 0x4312 JUMPI PUSH2 0x4311 PUSH2 0x4294 JUMP JUMPDEST JUMPDEST DUP3 DUP3 MUL SWAP1 POP SWAP3 SWAP2 POP POP JUMP JUMPDEST PUSH32 0x4D696E696E756D20696E766573746D656E74206E6F74206D65742E0000000000 PUSH1 0x0 DUP3 ADD MSTORE POP JUMP JUMPDEST PUSH1 0x0 PUSH2 0x4353 PUSH1 0x1B DUP4 PUSH2 0x40F9 JUMP JUMPDEST SWAP2 POP PUSH2 0x435E DUP3 PUSH2 0x431D JUMP JUMPDEST PUSH1 0x20 DUP3 ADD SWAP1 POP SWAP2 SWAP1 POP JUMP JUMPDEST PUSH1 0x0 PUSH1 0x20 DUP3 ADD SWAP1 POP DUP2 DUP2 SUB PUSH1 0x0 DUP4 ADD MSTORE PUSH2 0x4382 DUP2 PUSH2 0x4346 JUMP JUMPDEST SWAP1 POP SWAP2 SWAP1 POP JUMP JUMPDEST PUSH32 0x4D6178206465706F736974206C696D697420726561636865642E000000000000 PUSH1 0x0 DUP3 ADD MSTORE POP JUMP JUMPDEST PUSH1 0x0 PUSH2 0x43BF PUSH1 0x1A DUP4 PUSH2 0x40F9 JUMP JUMPDEST SWAP2 POP PUSH2 0x43CA DUP3 PUSH2 0x4389 JUMP JUMPDEST PUSH1 0x20 DUP3 ADD SWAP1 POP SWAP2 SWAP1 POP JUMP JUMPDEST PUSH1 0x0 PUSH1 0x20 DUP3 ADD SWAP1 POP DUP2 DUP2 SUB PUSH1 0x0 DUP4 ADD MSTORE PUSH2 0x43EE DUP2 PUSH2 0x43B2 JUMP JUMPDEST SWAP1 POP SWAP2 SWAP1 POP JUMP JUMPDEST PUSH32 0x4164647265737320697320626C61636B6C69737465642E000000000000000000 PUSH1 0x0 DUP3 ADD MSTORE POP JUMP JUMPDEST PUSH1 0x0 PUSH2 0x442B PUSH1 0x17 DUP4 PUSH2 0x40F9 JUMP JUMPDEST SWAP2 POP PUSH2 0x4436 DUP3 PUSH2 0x43F5 JUMP JUMPDEST PUSH1 0x20 DUP3 ADD SWAP1 POP SWAP2 SWAP1 POP JUMP JUMPDEST PUSH1 0x0 PUSH1 0x20 DUP3 ADD SWAP1 POP DUP2 DUP2 SUB PUSH1 0x0 DUP4 ADD MSTORE PUSH2 0x445A DUP2 PUSH2 0x441E JUMP JUMPDEST SWAP1 POP SWAP2 SWAP1 POP JUMP JUMPDEST PUSH32 0x436F6E7472616374206E6F742079657420737461727465642E00000000000000 PUSH1 0x0 DUP3 ADD MSTORE POP JUMP JUMPDEST PUSH1 0x0 PUSH2 0x4497 PUSH1 0x19 DUP4 PUSH2 0x40F9 JUMP JUMPDEST SWAP2 POP PUSH2 0x44A2 DUP3 PUSH2 0x4461 JUMP JUMPDEST PUSH1 0x20 DUP3 ADD SWAP1 POP SWAP2 SWAP1 POP JUMP JUMPDEST PUSH1 0x0 PUSH1 0x20 DUP3 ADD SWAP1 POP DUP2 DUP2 SUB PUSH1 0x0 DUP4 ADD MSTORE PUSH2 0x44C6 DUP2 PUSH2 0x448A JUMP JUMPDEST SWAP1 POP SWAP2 SWAP1 POP JUMP JUMPDEST PUSH32 0x4E487B7100000000000000000000000000000000000000000000000000000000 PUSH1 0x0 MSTORE PUSH1 0x32 PUSH1 0x4 MSTORE PUSH1 0x24 PUSH1 0x0 REVERT JUMPDEST PUSH1 0x0 PUSH2 0x4507 DUP3 PUSH2 0x3BE2 JUMP JUMPDEST SWAP2 POP PUSH32 0xFFFFFFFFFFFFFFFFFFFFFFFFFFFFFFFFFFFFFFFFFFFFFFFFFFFFFFFFFFFFFFFF DUP3 EQ ISZERO PUSH2 0x453A JUMPI PUSH2 0x4539 PUSH2 0x4294 JUMP JUMPDEST JUMPDEST PUSH1 0x1 DUP3 ADD SWAP1 POP SWAP2 SWAP1 POP JUMP JUMPDEST PUSH1 0x0 PUSH2 0x4550 DUP3 PUSH2 0x3BE2 JUMP JUMPDEST SWAP2 POP PUSH2 0x455B DUP4 PUSH2 0x3BE2 JUMP JUMPDEST SWAP3 POP DUP3 PUSH32 0xFFFFFFFFFFFFFFFFFFFFFFFFFFFFFFFFFFFFFFFFFFFFFFFFFFFFFFFFFFFFFFFF SUB DUP3 GT ISZERO PUSH2 0x4590 JUMPI PUSH2 0x458F PUSH2 0x4294 JUMP JUMPDEST JUMPDEST DUP3 DUP3 ADD SWAP1 POP SWAP3 SWAP2 POP POP JUMP JUMPDEST PUSH32 0x4E487B7100000000000000000000000000000000000000000000000000000000 PUSH1 0x0 MSTORE PUSH1 0x1 PUSH1 0x4 MSTORE PUSH1 0x24 PUSH1 0x0 REVERT JUMPDEST PUSH1 0x0 PUSH2 0x45D5 DUP3 PUSH2 0x3BE2 JUMP JUMPDEST SWAP2 POP PUSH2 0x45E0 DUP4 PUSH2 0x3BE2 JUMP JUMPDEST SWAP3 POP DUP3 DUP3 LT ISZERO PUSH2 0x45F3 JUMPI PUSH2 0x45F2 PUSH2 0x4294 JUMP JUMPDEST JUMPDEST DUP3 DUP3 SUB SWAP1 POP SWAP3 SWAP2 POP POP JUMP JUMPDEST PUSH32 0x4E487B7100000000000000000000000000000000000000000000000000000000 PUSH1 0x0 MSTORE PUSH1 0x12 PUSH1 0x4 MSTORE PUSH1 0x24 PUSH1 0x0 REVERT JUMPDEST PUSH1 0x0 PUSH2 0x4638 DUP3 PUSH2 0x3BE2 JUMP JUMPDEST SWAP2 POP PUSH2 0x4643 DUP4 PUSH2 0x3BE2 JUMP JUMPDEST SWAP3 POP DUP3 PUSH2 0x4653 JUMPI PUSH2 0x4652 PUSH2 0x45FE JUMP JUMPDEST JUMPDEST DUP3 DUP3 DIV SWAP1 POP SWAP3 SWAP2 POP POP JUMP JUMPDEST PUSH32 0x4E487B7100000000000000000000000000000000000000000000000000000000 PUSH1 0x0 MSTORE PUSH1 0x41 PUSH1 0x4 MSTORE PUSH1 0x24 PUSH1 0x0 REVERT INVALID LOG2 PUSH5 0x6970667358 0x22 SLT KECCAK256 DUP7 GAS TIMESTAMP 0xAE 0xB2 0xCF 0xF9 COINBASE DUP13 0xE0 0xC2 PUSH9 0xCD4BF05BDD740F819B 0xBA 0xF7 0xBD MUL 0xDA SWAP13 0xB3 SWAP1 LOG2 CODESIZE ORIGIN PUSH5 0x736F6C6343 STOP ADDMOD MULMOD STOP CALLER "
				},
				"gasEstimates": {
					"creation": {
						"codeDepositCost": "3623000",
						"executionCost": "infinite",
						"totalCost": "infinite"
					},
					"external": {
						"BONUS_COMPOUND_STEP(uint256)": "infinite",
						"BONUS_DAILY_COMPOUND(uint256)": "24861",
						"BONUS_DAILY_COMPOUND_BONUS_MAX_TIMES(uint256)": "24872",
						"Blacklisted(address)": "2999",
						"CHANGE_OWNERSHIP(address)": "26982",
						"COMPOUND_BONUS()": "2496",
						"COMPOUND_BONUS_MAX_TIMES()": "2540",
						"COMPOUND_FOR_NO_TAX_WITHDRAWAL()": "2561",
						"COMPOUND_STEP()": "2562",
						"CUTOFF_STEP()": "2498",
						"EGGS_TO_HIRE_1MINERS()": "2564",
						"MARKET_EGGS_DIVISOR()": "2541",
						"MIN_INVEST_LIMIT()": "2584",
						"MKT()": "2541",
						"PERCENTS_DIVIDER()": "2499",
						"PRC_EGGS_TO_HIRE_1MINERS(uint256)": "24816",
						"PRC_MARKET_EGGS_DIVISOR(uint256)": "24871",
						"PRC_MKT(uint256)": "24873",
						"PRC_REFERRAL(uint256)": "24818",
						"PRC_TAX(uint256)": "24784",
						"REFERRAL()": "2518",
						"SET_COMPOUND_FOR_NO_TAX_WITHDRAWAL(uint256)": "24804",
						"SET_CUTOFF_STEP(uint256)": "infinite",
						"SET_INVEST_MIN(uint256)": "24758",
						"SET_WALLET_DEPOSIT_LIMIT(uint256)": "infinite",
						"SET_WITHDRAWAL_TAX(uint256)": "24850",
						"SET_WITHDRAW_COOLDOWN(uint256)": "infinite",
						"TAX()": "2496",
						"WALLET_DEPOSIT_LIMIT()": "2520",
						"WITHDRAWAL_TAX()": "2521",
						"WITHDRAW_COOLDOWN()": "2541",
						"blackListWallet(address,bool)": "27272",
						"blackMultipleWallets(address[],bool)": "infinite",
						"blacklistActive()": "2589",
						"calculateEggBuy(uint256,uint256)": "infinite",
						"calculateEggBuySimple(uint256)": "infinite",
						"calculateEggSell(uint256)": "infinite",
						"calculateEggSellForYield(uint256,uint256)": "infinite",
						"calculateTrade(uint256,uint256,uint256)": "infinite",
						"checkIfBlacklisted(address)": "5120",
						"contractStarted()": "2627",
						"dev1()": "2625",
						"dev2()": "2626",
						"dev3()": "2627",
						"firstDeposit(address)": "2969",
						"fundContract()": "210",
						"getAvailableEarnings(address)": "infinite",
						"getBalance()": "408",
						"getDailyCompoundBonus(address,uint256)": "infinite",
						"getEggsSinceLastHatch(address)": "infinite",
						"getEggsYield(uint256)": "infinite",
						"getMyEggs()": "infinite",
						"getMyMiners()": "2668",
						"getSiteInfo()": "infinite",
						"getTimeStamp()": "469",
						"getUserInfo(address)": "infinite",
						"hireFarmers(address)": "infinite",
						"hireMoreFarmers(bool)": "infinite",
						"marketEggs()": "2563",
						"mkt()": "2605",
						"owner()": "2582",
						"prtnr1()": "2628",
						"prtnr2()": "2670",
						"referralEarning(address)": "2883",
						"sellCrops()": "infinite",
						"setblacklistActive(bool)": "26988",
						"startFarm(address)": "infinite",
						"totalCompound()": "2564",
						"totalDeposits()": "2542",
						"totalRefBonus()": "2518",
						"totalStaked()": "2563",
						"totalWithdrawn()": "2519",
						"total_Bonus(address)": "2881",
						"users(address)": "infinite",
						"withdraw()": "infinite"
					},
					"internal": {
						"isContract(address)": "infinite",
						"min(uint256,uint256)": "64",
						"payFees(uint256)": "infinite",
						"sendRewardToReferrals(address,uint256)": "infinite"
					}
				},
				"methodIdentifiers": {
					"BONUS_COMPOUND_STEP(uint256)": "959c95b3",
					"BONUS_DAILY_COMPOUND(uint256)": "6f969d28",
					"BONUS_DAILY_COMPOUND_BONUS_MAX_TIMES(uint256)": "9b9cb69f",
					"Blacklisted(address)": "ffa4e618",
					"CHANGE_OWNERSHIP(address)": "2b039d0e",
					"COMPOUND_BONUS()": "d7206d5d",
					"COMPOUND_BONUS_MAX_TIMES()": "c688f0fb",
					"COMPOUND_FOR_NO_TAX_WITHDRAWAL()": "f6f62886",
					"COMPOUND_STEP()": "752a2628",
					"CUTOFF_STEP()": "3578584f",
					"EGGS_TO_HIRE_1MINERS()": "195a7339",
					"MARKET_EGGS_DIVISOR()": "59eec895",
					"MIN_INVEST_LIMIT()": "cd329fc3",
					"MKT()": "2bc82f7f",
					"PERCENTS_DIVIDER()": "01c234a8",
					"PRC_EGGS_TO_HIRE_1MINERS(uint256)": "e6dc9558",
					"PRC_MARKET_EGGS_DIVISOR(uint256)": "7a62ead7",
					"PRC_MKT(uint256)": "1a7b8d4f",
					"PRC_REFERRAL(uint256)": "570c2979",
					"PRC_TAX(uint256)": "298ea310",
					"REFERRAL()": "c63568c7",
					"SET_COMPOUND_FOR_NO_TAX_WITHDRAWAL(uint256)": "e7576943",
					"SET_CUTOFF_STEP(uint256)": "7c8e4b4c",
					"SET_INVEST_MIN(uint256)": "45f98c29",
					"SET_WALLET_DEPOSIT_LIMIT(uint256)": "7ee28e3c",
					"SET_WITHDRAWAL_TAX(uint256)": "bfa9f304",
					"SET_WITHDRAW_COOLDOWN(uint256)": "45a6a6e0",
					"TAX()": "68f58b03",
					"WALLET_DEPOSIT_LIMIT()": "1848b8dc",
					"WITHDRAWAL_TAX()": "0420c98e",
					"WITHDRAW_COOLDOWN()": "950d91e9",
					"blackListWallet(address,bool)": "d989b4b3",
					"blackMultipleWallets(address[],bool)": "eb271268",
					"blacklistActive()": "b6e6fcf6",
					"calculateEggBuy(uint256,uint256)": "26fd8422",
					"calculateEggBuySimple(uint256)": "7e56fde5",
					"calculateEggSell(uint256)": "8e316327",
					"calculateEggSellForYield(uint256,uint256)": "cc3e9c78",
					"calculateTrade(uint256,uint256,uint256)": "229824c4",
					"checkIfBlacklisted(address)": "c3251b40",
					"contractStarted()": "333f57b3",
					"dev1()": "a327c45d",
					"dev2()": "8013f3a7",
					"dev3()": "2362ce89",
					"firstDeposit(address)": "ac4b3c04",
					"fundContract()": "bd097e21",
					"getAvailableEarnings(address)": "64c03a5e",
					"getBalance()": "12065fe0",
					"getDailyCompoundBonus(address,uint256)": "50637dbd",
					"getEggsSinceLastHatch(address)": "d7c8843b",
					"getEggsYield(uint256)": "bdd1ca27",
					"getMyEggs()": "43ce7422",
					"getMyMiners()": "0a76e5ed",
					"getSiteInfo()": "4ce87053",
					"getTimeStamp()": "da235b22",
					"getUserInfo(address)": "6386c1c7",
					"hireFarmers(address)": "50cf1c7a",
					"hireMoreFarmers(bool)": "18c819d8",
					"marketEggs()": "2e9392bb",
					"mkt()": "7cc5b1e6",
					"owner()": "8da5cb5b",
					"prtnr1()": "07aeb7f0",
					"prtnr2()": "8a315efd",
					"referralEarning(address)": "1bd8225d",
					"sellCrops()": "57386225",
					"setblacklistActive(bool)": "9e9300a5",
					"startFarm(address)": "da5d4cc5",
					"totalCompound()": "7db07c9d",
					"totalDeposits()": "7d882097",
					"totalRefBonus()": "69b11dd5",
					"totalStaked()": "817b1cd2",
					"totalWithdrawn()": "4b319713",
					"total_Bonus(address)": "9d3af13f",
					"users(address)": "a87430ba",
					"withdraw()": "3ccfd60b"
				}
			},
			"storageLayout": {
				"storage": [
					{
						"astId": 8,
						"contract": "contracts/cropsFarmer.sol:BNB_V3",
						"label": "EGGS_TO_HIRE_1MINERS",
						"offset": 0,
						"slot": "0",
						"type": "t_uint256"
					},
					{
						"astId": 11,
						"contract": "contracts/cropsFarmer.sol:BNB_V3",
						"label": "REFERRAL",
						"offset": 0,
						"slot": "1",
						"type": "t_uint256"
					},
					{
						"astId": 14,
						"contract": "contracts/cropsFarmer.sol:BNB_V3",
						"label": "PERCENTS_DIVIDER",
						"offset": 0,
						"slot": "2",
						"type": "t_uint256"
					},
					{
						"astId": 17,
						"contract": "contracts/cropsFarmer.sol:BNB_V3",
						"label": "TAX",
						"offset": 0,
						"slot": "3",
						"type": "t_uint256"
					},
					{
						"astId": 20,
						"contract": "contracts/cropsFarmer.sol:BNB_V3",
						"label": "MKT",
						"offset": 0,
						"slot": "4",
						"type": "t_uint256"
					},
					{
						"astId": 23,
						"contract": "contracts/cropsFarmer.sol:BNB_V3",
						"label": "MARKET_EGGS_DIVISOR",
						"offset": 0,
						"slot": "5",
						"type": "t_uint256"
					},
					{
						"astId": 26,
						"contract": "contracts/cropsFarmer.sol:BNB_V3",
						"label": "MIN_INVEST_LIMIT",
						"offset": 0,
						"slot": "6",
						"type": "t_uint256"
					},
					{
						"astId": 32,
						"contract": "contracts/cropsFarmer.sol:BNB_V3",
						"label": "WALLET_DEPOSIT_LIMIT",
						"offset": 0,
						"slot": "7",
						"type": "t_uint256"
					},
					{
						"astId": 36,
						"contract": "contracts/cropsFarmer.sol:BNB_V3",
						"label": "COMPOUND_BONUS",
						"offset": 0,
						"slot": "8",
						"type": "t_uint256"
					},
					{
						"astId": 39,
						"contract": "contracts/cropsFarmer.sol:BNB_V3",
						"label": "COMPOUND_BONUS_MAX_TIMES",
						"offset": 0,
						"slot": "9",
						"type": "t_uint256"
					},
					{
						"astId": 46,
						"contract": "contracts/cropsFarmer.sol:BNB_V3",
						"label": "COMPOUND_STEP",
						"offset": 0,
						"slot": "10",
						"type": "t_uint256"
					},
					{
						"astId": 49,
						"contract": "contracts/cropsFarmer.sol:BNB_V3",
						"label": "WITHDRAWAL_TAX",
						"offset": 0,
						"slot": "11",
						"type": "t_uint256"
					},
					{
						"astId": 52,
						"contract": "contracts/cropsFarmer.sol:BNB_V3",
						"label": "COMPOUND_FOR_NO_TAX_WITHDRAWAL",
						"offset": 0,
						"slot": "12",
						"type": "t_uint256"
					},
					{
						"astId": 54,
						"contract": "contracts/cropsFarmer.sol:BNB_V3",
						"label": "totalStaked",
						"offset": 0,
						"slot": "13",
						"type": "t_uint256"
					},
					{
						"astId": 56,
						"contract": "contracts/cropsFarmer.sol:BNB_V3",
						"label": "totalDeposits",
						"offset": 0,
						"slot": "14",
						"type": "t_uint256"
					},
					{
						"astId": 58,
						"contract": "contracts/cropsFarmer.sol:BNB_V3",
						"label": "totalCompound",
						"offset": 0,
						"slot": "15",
						"type": "t_uint256"
					},
					{
						"astId": 60,
						"contract": "contracts/cropsFarmer.sol:BNB_V3",
						"label": "totalRefBonus",
						"offset": 0,
						"slot": "16",
						"type": "t_uint256"
					},
					{
						"astId": 62,
						"contract": "contracts/cropsFarmer.sol:BNB_V3",
						"label": "totalWithdrawn",
						"offset": 0,
						"slot": "17",
						"type": "t_uint256"
					},
					{
						"astId": 64,
						"contract": "contracts/cropsFarmer.sol:BNB_V3",
						"label": "marketEggs",
						"offset": 0,
						"slot": "18",
						"type": "t_uint256"
					},
					{
						"astId": 67,
						"contract": "contracts/cropsFarmer.sol:BNB_V3",
						"label": "PSN",
						"offset": 0,
						"slot": "19",
						"type": "t_uint256"
					},
					{
						"astId": 70,
						"contract": "contracts/cropsFarmer.sol:BNB_V3",
						"label": "PSNH",
						"offset": 0,
						"slot": "20",
						"type": "t_uint256"
					},
					{
						"astId": 72,
						"contract": "contracts/cropsFarmer.sol:BNB_V3",
						"label": "contractStarted",
						"offset": 0,
						"slot": "21",
						"type": "t_bool"
					},
					{
						"astId": 75,
						"contract": "contracts/cropsFarmer.sol:BNB_V3",
						"label": "blacklistActive",
						"offset": 1,
						"slot": "21",
						"type": "t_bool"
					},
					{
						"astId": 79,
						"contract": "contracts/cropsFarmer.sol:BNB_V3",
						"label": "Blacklisted",
						"offset": 0,
						"slot": "22",
						"type": "t_mapping(t_address,t_bool)"
					},
					{
						"astId": 83,
						"contract": "contracts/cropsFarmer.sol:BNB_V3",
						"label": "firstDeposit",
						"offset": 0,
						"slot": "23",
						"type": "t_mapping(t_address,t_uint256)"
					},
					{
						"astId": 87,
						"contract": "contracts/cropsFarmer.sol:BNB_V3",
						"label": "referralEarning",
						"offset": 0,
						"slot": "24",
						"type": "t_mapping(t_address,t_uint256)"
					},
					{
						"astId": 91,
						"contract": "contracts/cropsFarmer.sol:BNB_V3",
						"label": "total_Bonus",
						"offset": 0,
						"slot": "25",
						"type": "t_mapping(t_address,t_uint256)"
					},
					{
						"astId": 98,
						"contract": "contracts/cropsFarmer.sol:BNB_V3",
						"label": "CUTOFF_STEP",
						"offset": 0,
						"slot": "26",
						"type": "t_uint256"
					},
					{
						"astId": 105,
						"contract": "contracts/cropsFarmer.sol:BNB_V3",
						"label": "WITHDRAW_COOLDOWN",
						"offset": 0,
						"slot": "27",
						"type": "t_uint256"
					},
					{
						"astId": 107,
						"contract": "contracts/cropsFarmer.sol:BNB_V3",
						"label": "owner",
						"offset": 0,
						"slot": "28",
						"type": "t_address"
					},
					{
						"astId": 109,
						"contract": "contracts/cropsFarmer.sol:BNB_V3",
						"label": "dev1",
						"offset": 0,
						"slot": "29",
						"type": "t_address_payable"
					},
					{
						"astId": 111,
						"contract": "contracts/cropsFarmer.sol:BNB_V3",
						"label": "dev2",
						"offset": 0,
						"slot": "30",
						"type": "t_address_payable"
					},
					{
						"astId": 113,
						"contract": "contracts/cropsFarmer.sol:BNB_V3",
						"label": "dev3",
						"offset": 0,
						"slot": "31",
						"type": "t_address_payable"
					},
					{
						"astId": 115,
						"contract": "contracts/cropsFarmer.sol:BNB_V3",
						"label": "prtnr1",
						"offset": 0,
						"slot": "32",
						"type": "t_address_payable"
					},
					{
						"astId": 117,
						"contract": "contracts/cropsFarmer.sol:BNB_V3",
						"label": "prtnr2",
						"offset": 0,
						"slot": "33",
						"type": "t_address_payable"
					},
					{
						"astId": 119,
						"contract": "contracts/cropsFarmer.sol:BNB_V3",
						"label": "mkt",
						"offset": 0,
						"slot": "34",
						"type": "t_address_payable"
					},
					{
						"astId": 149,
						"contract": "contracts/cropsFarmer.sol:BNB_V3",
						"label": "users",
						"offset": 0,
						"slot": "35",
						"type": "t_mapping(t_address,t_struct(User)144_storage)"
					}
				],
				"types": {
					"t_address": {
						"encoding": "inplace",
						"label": "address",
						"numberOfBytes": "20"
					},
					"t_address_payable": {
						"encoding": "inplace",
						"label": "address payable",
						"numberOfBytes": "20"
					},
					"t_bool": {
						"encoding": "inplace",
						"label": "bool",
						"numberOfBytes": "1"
					},
					"t_mapping(t_address,t_bool)": {
						"encoding": "mapping",
						"key": "t_address",
						"label": "mapping(address => bool)",
						"numberOfBytes": "32",
						"value": "t_bool"
					},
					"t_mapping(t_address,t_struct(User)144_storage)": {
						"encoding": "mapping",
						"key": "t_address",
						"label": "mapping(address => struct BNB_V3.User)",
						"numberOfBytes": "32",
						"value": "t_struct(User)144_storage"
					},
					"t_mapping(t_address,t_uint256)": {
						"encoding": "mapping",
						"key": "t_address",
						"label": "mapping(address => uint256)",
						"numberOfBytes": "32",
						"value": "t_uint256"
					},
					"t_struct(User)144_storage": {
						"encoding": "inplace",
						"label": "struct BNB_V3.User",
						"members": [
							{
								"astId": 121,
								"contract": "contracts/cropsFarmer.sol:BNB_V3",
								"label": "initialDeposit",
								"offset": 0,
								"slot": "0",
								"type": "t_uint256"
							},
							{
								"astId": 123,
								"contract": "contracts/cropsFarmer.sol:BNB_V3",
								"label": "userDeposit",
								"offset": 0,
								"slot": "1",
								"type": "t_uint256"
							},
							{
								"astId": 125,
								"contract": "contracts/cropsFarmer.sol:BNB_V3",
								"label": "miners",
								"offset": 0,
								"slot": "2",
								"type": "t_uint256"
							},
							{
								"astId": 127,
								"contract": "contracts/cropsFarmer.sol:BNB_V3",
								"label": "claimedEggs",
								"offset": 0,
								"slot": "3",
								"type": "t_uint256"
							},
							{
								"astId": 129,
								"contract": "contracts/cropsFarmer.sol:BNB_V3",
								"label": "lastHatch",
								"offset": 0,
								"slot": "4",
								"type": "t_uint256"
							},
							{
								"astId": 131,
								"contract": "contracts/cropsFarmer.sol:BNB_V3",
								"label": "referrer",
								"offset": 0,
								"slot": "5",
								"type": "t_address"
							},
							{
								"astId": 133,
								"contract": "contracts/cropsFarmer.sol:BNB_V3",
								"label": "referralsCount",
								"offset": 0,
								"slot": "6",
								"type": "t_uint256"
							},
							{
								"astId": 135,
								"contract": "contracts/cropsFarmer.sol:BNB_V3",
								"label": "referralEggRewards",
								"offset": 0,
								"slot": "7",
								"type": "t_uint256"
							},
							{
								"astId": 137,
								"contract": "contracts/cropsFarmer.sol:BNB_V3",
								"label": "totalWithdrawn",
								"offset": 0,
								"slot": "8",
								"type": "t_uint256"
							},
							{
								"astId": 139,
								"contract": "contracts/cropsFarmer.sol:BNB_V3",
								"label": "dailyCompoundBonus",
								"offset": 0,
								"slot": "9",
								"type": "t_uint256"
							},
							{
								"astId": 141,
								"contract": "contracts/cropsFarmer.sol:BNB_V3",
								"label": "farmerCompoundCount",
								"offset": 0,
								"slot": "10",
								"type": "t_uint256"
							},
							{
								"astId": 143,
								"contract": "contracts/cropsFarmer.sol:BNB_V3",
								"label": "lastWithdrawTime",
								"offset": 0,
								"slot": "11",
								"type": "t_uint256"
							}
						],
						"numberOfBytes": "384"
					},
					"t_uint256": {
						"encoding": "inplace",
						"label": "uint256",
						"numberOfBytes": "32"
					}
				}
			},
			"userdoc": {
				"kind": "user",
				"methods": {
					"COMPOUND_BONUS()": {
						"notice": "25 BNB  *"
					},
					"EGGS_TO_HIRE_1MINERS()": {
						"notice": "base parameters *"
					},
					"PRC_EGGS_TO_HIRE_1MINERS(uint256)": {
						"notice": "percentage setters *"
					},
					"WALLET_DEPOSIT_LIMIT()": {
						"notice": "0.03 BNB  *"
					},
					"getEggsYield(uint256)": {
						"notice": "How many miners and eggs per day user will recieve based on BNB deposit *"
					},
					"hireFarmers(address)": {
						"notice": "transfer amount of BNB *"
					}
				},
				"version": 1
			}
		}
	}
}