{
	"contracts/stake_reward_MLM.sol": {
		"Invest": {
			"abi": [
				{
					"inputs": [],
					"stateMutability": "nonpayable",
					"type": "constructor"
				},
				{
					"inputs": [],
					"name": "DUSDReferralsList",
					"outputs": [
						{
							"internalType": "address[]",
							"name": "",
							"type": "address[]"
						}
					],
					"stateMutability": "view",
					"type": "function"
				},
				{
					"inputs": [],
					"name": "DUSDTotalReferrals",
					"outputs": [
						{
							"internalType": "uint256",
							"name": "",
							"type": "uint256"
						}
					],
					"stateMutability": "view",
					"type": "function"
				},
				{
					"inputs": [
						{
							"internalType": "address",
							"name": "",
							"type": "address"
						}
					],
					"name": "DUSDinvestor",
					"outputs": [
						{
							"internalType": "address",
							"name": "referralFrom",
							"type": "address"
						},
						{
							"internalType": "uint256",
							"name": "reward",
							"type": "uint256"
						},
						{
							"internalType": "uint256",
							"name": "noOfInvestment",
							"type": "uint256"
						},
						{
							"internalType": "uint256",
							"name": "totalInvestment",
							"type": "uint256"
						},
						{
							"internalType": "uint256",
							"name": "totalWithdraw_reward",
							"type": "uint256"
						},
						{
							"internalType": "bool",
							"name": "investBefore",
							"type": "bool"
						},
						{
							"internalType": "uint256",
							"name": "stakeTime",
							"type": "uint256"
						}
					],
					"stateMutability": "view",
					"type": "function"
				},
				{
					"inputs": [
						{
							"internalType": "uint256",
							"name": "_investedamount",
							"type": "uint256"
						},
						{
							"internalType": "address",
							"name": "_referral",
							"type": "address"
						}
					],
					"name": "Stake",
					"outputs": [
						{
							"internalType": "bool",
							"name": "success",
							"type": "bool"
						}
					],
					"stateMutability": "nonpayable",
					"type": "function"
				},
				{
					"inputs": [],
					"name": "denomenator",
					"outputs": [
						{
							"internalType": "uint256",
							"name": "",
							"type": "uint256"
						}
					],
					"stateMutability": "view",
					"type": "function"
				},
				{
					"inputs": [],
					"name": "getAllDUSDinvestments",
					"outputs": [
						{
							"components": [
								{
									"internalType": "uint256",
									"name": "investedAmount",
									"type": "uint256"
								},
								{
									"internalType": "uint256",
									"name": "withdrawnTime",
									"type": "uint256"
								},
								{
									"internalType": "uint256",
									"name": "DepositTime",
									"type": "uint256"
								},
								{
									"internalType": "uint256",
									"name": "investmentNum",
									"type": "uint256"
								},
								{
									"internalType": "uint256",
									"name": "unstakeTime",
									"type": "uint256"
								},
								{
									"internalType": "bool",
									"name": "unstake",
									"type": "bool"
								}
							],
							"internalType": "struct Invest.allInvestments[]",
							"name": "",
							"type": "tuple[]"
						}
					],
					"stateMutability": "view",
					"type": "function"
				},
				{
					"inputs": [],
					"name": "getReward",
					"outputs": [
						{
							"internalType": "uint256",
							"name": "",
							"type": "uint256"
						}
					],
					"stateMutability": "view",
					"type": "function"
				},
				{
					"inputs": [],
					"name": "getTotalInvestmentDUSD",
					"outputs": [
						{
							"internalType": "uint256",
							"name": "",
							"type": "uint256"
						}
					],
					"stateMutability": "view",
					"type": "function"
				},
				{
					"inputs": [],
					"name": "investmentPeriod",
					"outputs": [
						{
							"internalType": "uint256",
							"name": "",
							"type": "uint256"
						}
					],
					"stateMutability": "view",
					"type": "function"
				},
				{
					"inputs": [],
					"name": "max_Stake_amount",
					"outputs": [
						{
							"internalType": "uint256",
							"name": "",
							"type": "uint256"
						}
					],
					"stateMutability": "view",
					"type": "function"
				},
				{
					"inputs": [],
					"name": "min_Stake_amount",
					"outputs": [
						{
							"internalType": "uint256",
							"name": "",
							"type": "uint256"
						}
					],
					"stateMutability": "view",
					"type": "function"
				},
				{
					"inputs": [],
					"name": "owner",
					"outputs": [
						{
							"internalType": "address",
							"name": "",
							"type": "address"
						}
					],
					"stateMutability": "view",
					"type": "function"
				},
				{
					"inputs": [],
					"name": "referralLevel_count",
					"outputs": [
						{
							"internalType": "uint256[]",
							"name": "arr",
							"type": "uint256[]"
						}
					],
					"stateMutability": "view",
					"type": "function"
				},
				{
					"inputs": [],
					"name": "referralLevel_earning",
					"outputs": [
						{
							"internalType": "uint256[]",
							"name": "arr",
							"type": "uint256[]"
						}
					],
					"stateMutability": "view",
					"type": "function"
				},
				{
					"inputs": [],
					"name": "rewardToken",
					"outputs": [
						{
							"internalType": "uint256",
							"name": "",
							"type": "uint256"
						}
					],
					"stateMutability": "view",
					"type": "function"
				},
				{
					"inputs": [
						{
							"internalType": "uint256",
							"name": "_amount",
							"type": "uint256"
						},
						{
							"internalType": "uint256",
							"name": "_denomenator",
							"type": "uint256"
						}
					],
					"name": "setReward",
					"outputs": [],
					"stateMutability": "nonpayable",
					"type": "function"
				},
				{
					"inputs": [
						{
							"internalType": "uint256",
							"name": "_amount",
							"type": "uint256"
						}
					],
					"name": "set_max_Stake_amount",
					"outputs": [],
					"stateMutability": "nonpayable",
					"type": "function"
				},
				{
					"inputs": [
						{
							"internalType": "uint256",
							"name": "_amount",
							"type": "uint256"
						}
					],
					"name": "set_min_Stake_amount",
					"outputs": [],
					"stateMutability": "nonpayable",
					"type": "function"
				},
				{
					"inputs": [
						{
							"internalType": "uint256",
							"name": "min_stake",
							"type": "uint256"
						},
						{
							"internalType": "uint256",
							"name": "max_stake",
							"type": "uint256"
						},
						{
							"internalType": "uint256",
							"name": "reward_per_day",
							"type": "uint256"
						},
						{
							"internalType": "uint256",
							"name": "_denomenator",
							"type": "uint256"
						}
					],
					"name": "set_values",
					"outputs": [],
					"stateMutability": "nonpayable",
					"type": "function"
				},
				{
					"inputs": [],
					"name": "totalDUSDInvestors",
					"outputs": [
						{
							"internalType": "uint256",
							"name": "",
							"type": "uint256"
						}
					],
					"stateMutability": "view",
					"type": "function"
				},
				{
					"inputs": [],
					"name": "totalbusiness",
					"outputs": [
						{
							"internalType": "uint256",
							"name": "",
							"type": "uint256"
						}
					],
					"stateMutability": "view",
					"type": "function"
				},
				{
					"inputs": [
						{
							"internalType": "address",
							"name": "_owner",
							"type": "address"
						}
					],
					"name": "transferOwnership",
					"outputs": [],
					"stateMutability": "nonpayable",
					"type": "function"
				},
				{
					"inputs": [],
					"name": "unStake",
					"outputs": [
						{
							"internalType": "bool",
							"name": "success",
							"type": "bool"
						}
					],
					"stateMutability": "nonpayable",
					"type": "function"
				},
				{
					"inputs": [],
					"name": "withdrawReward",
					"outputs": [
						{
							"internalType": "bool",
							"name": "success",
							"type": "bool"
						}
					],
					"stateMutability": "nonpayable",
					"type": "function"
				}
			],
			"devdoc": {
				"kind": "dev",
				"methods": {},
				"version": 1
			},
			"evm": {
				"assembly": "    /* \"contracts/stake_reward_MLM.sol\":262:12406  contract Invest... */\n  mstore(0x40, 0x80)\n    /* \"contracts/stake_reward_MLM.sol\":351:393  0x4d00DDCC526c14Fd353131F289b1e62C856E9737 */\n  0x4d00ddcc526c14fd353131f289b1e62c856e9737\n    /* \"contracts/stake_reward_MLM.sol\":331:393  address SMCcontract=0x4d00DDCC526c14Fd353131F289b1e62C856E9737 */\n  0x01\n  exp(0x0100, 0x00)\n  dup2\n  sload\n  dup2\n  0xffffffffffffffffffffffffffffffffffffffff\n  mul\n  not\n  and\n  swap1\n  dup4\n  0xffffffffffffffffffffffffffffffffffffffff\n  and\n  mul\n  or\n  swap1\n  sstore\n  pop\n    /* \"contracts/stake_reward_MLM.sol\":424:466  0xe9e7CEA3DedcA5984780Bafc599bD69ADd087D56 */\n  0xe9e7cea3dedca5984780bafc599bd69add087d56\n    /* \"contracts/stake_reward_MLM.sol\":403:466  address BUSDcontract=0xe9e7CEA3DedcA5984780Bafc599bD69ADd087D56 */\n  0x02\n  exp(0x0100, 0x00)\n  dup2\n  sload\n  dup2\n  0xffffffffffffffffffffffffffffffffffffffff\n  mul\n  not\n  and\n  swap1\n  dup4\n  0xffffffffffffffffffffffffffffffffffffffff\n  and\n  mul\n  or\n  swap1\n  sstore\n  pop\n    /* \"contracts/stake_reward_MLM.sol\":540:559  5000000000000000000 */\n  0x4563918244f40000\n    /* \"contracts/stake_reward_MLM.sol\":516:559  uint public rewardToken=5000000000000000000 */\n  0x04\n  sstore\n    /* \"contracts/stake_reward_MLM.sol\":608:613  10000 */\n  0x2710\n    /* \"contracts/stake_reward_MLM.sol\":579:613  uint public min_Stake_amount=10000 */\n  0x05\n  sstore\n    /* \"contracts/stake_reward_MLM.sol\":679:686  5000000 */\n  0x4c4b40\n    /* \"contracts/stake_reward_MLM.sol\":650:686  uint public max_Stake_amount=5000000 */\n  0x06\n  sstore\n    /* \"contracts/stake_reward_MLM.sol\":748:754  100000 */\n  0x0186a0\n    /* \"contracts/stake_reward_MLM.sol\":724:754  uint public denomenator=100000 */\n  0x07\n  sstore\n    /* \"contracts/stake_reward_MLM.sol\":821:829  300 days */\n  0x018b8200\n    /* \"contracts/stake_reward_MLM.sol\":792:829  uint public investmentPeriod=300 days */\n  0x08\n  sstore\n    /* \"contracts/stake_reward_MLM.sol\":1672:1802  constructor(){... */\n  callvalue\n  dup1\n  iszero\n  tag_1\n  jumpi\n  0x00\n  dup1\n  revert\ntag_1:\n  pop\n    /* \"contracts/stake_reward_MLM.sol\":1718:1728  msg.sender */\n  caller\n    /* \"contracts/stake_reward_MLM.sol\":1712:1717  owner */\n  0x00\n  dup1\n    /* \"contracts/stake_reward_MLM.sol\":1712:1728  owner=msg.sender */\n  0x0100\n  exp\n  dup2\n  sload\n  dup2\n  0xffffffffffffffffffffffffffffffffffffffff\n  mul\n  not\n  and\n  swap1\n  dup4\n  0xffffffffffffffffffffffffffffffffffffffff\n  and\n  mul\n  or\n  swap1\n  sstore\n  pop\n    /* \"contracts/stake_reward_MLM.sol\":262:12406  contract Invest... */\n  dataSize(sub_0)\n  dup1\n  dataOffset(sub_0)\n  0x00\n  codecopy\n  0x00\n  return\nstop\n\nsub_0: assembly {\n        /* \"contracts/stake_reward_MLM.sol\":262:12406  contract Invest... */\n      mstore(0x40, 0x80)\n      callvalue\n      dup1\n      iszero\n      tag_1\n      jumpi\n      0x00\n      dup1\n      revert\n    tag_1:\n      pop\n      jumpi(tag_2, lt(calldatasize, 0x04))\n      shr(0xe0, calldataload(0x00))\n      dup1\n      0x929f6bbe\n      gt\n      tag_27\n      jumpi\n      dup1\n      0xd3560ee8\n      gt\n      tag_28\n      jumpi\n      dup1\n      0xd3560ee8\n      eq\n      tag_21\n      jumpi\n      dup1\n      0xe2033fcb\n      eq\n      tag_22\n      jumpi\n      dup1\n      0xf2fde38b\n      eq\n      tag_23\n      jumpi\n      dup1\n      0xf790b81a\n      eq\n      tag_24\n      jumpi\n      dup1\n      0xf7c618c1\n      eq\n      tag_25\n      jumpi\n      dup1\n      0xfae730bc\n      eq\n      tag_26\n      jumpi\n      jump(tag_2)\n    tag_28:\n      dup1\n      0x929f6bbe\n      eq\n      tag_15\n      jumpi\n      dup1\n      0x9740a1bc\n      eq\n      tag_16\n      jumpi\n      dup1\n      0xa47bd496\n      eq\n      tag_17\n      jumpi\n      dup1\n      0xa61be99d\n      eq\n      tag_18\n      jumpi\n      dup1\n      0xbc67eaff\n      eq\n      tag_19\n      jumpi\n      dup1\n      0xc885bc58\n      eq\n      tag_20\n      jumpi\n      jump(tag_2)\n    tag_27:\n      dup1\n      0x3d18b912\n      gt\n      tag_29\n      jumpi\n      dup1\n      0x3d18b912\n      eq\n      tag_9\n      jumpi\n      dup1\n      0x4eb1ecc9\n      eq\n      tag_10\n      jumpi\n      dup1\n      0x500cb85f\n      eq\n      tag_11\n      jumpi\n      dup1\n      0x523cddfe\n      eq\n      tag_12\n      jumpi\n      dup1\n      0x73cf575a\n      eq\n      tag_13\n      jumpi\n      dup1\n      0x8da5cb5b\n      eq\n      tag_14\n      jumpi\n      jump(tag_2)\n    tag_29:\n      dup1\n      0x0c5f58f4\n      eq\n      tag_3\n      jumpi\n      dup1\n      0x10cde60a\n      eq\n      tag_4\n      jumpi\n      dup1\n      0x1e8aba35\n      eq\n      tag_5\n      jumpi\n      dup1\n      0x2bccdce6\n      eq\n      tag_6\n      jumpi\n      dup1\n      0x32d4e783\n      eq\n      tag_7\n      jumpi\n      dup1\n      0x3a1e0833\n      eq\n      tag_8\n      jumpi\n    tag_2:\n      0x00\n      dup1\n      revert\n        /* \"contracts/stake_reward_MLM.sol\":10166:10375  function DUSDReferralsList() public view returns(address[] memory){ //this function is to get the all investors list with there account number... */\n    tag_3:\n      tag_30\n      tag_31\n      jump\t// in\n    tag_30:\n      mload(0x40)\n      tag_32\n      swap2\n      swap1\n      tag_33\n      jump\t// in\n    tag_32:\n      mload(0x40)\n      dup1\n      swap2\n      sub\n      swap1\n      return\n        /* \"contracts/stake_reward_MLM.sol\":476:506  uint public totalDUSDInvestors */\n    tag_4:\n      tag_34\n      tag_35\n      jump\t// in\n    tag_34:\n      mload(0x40)\n      tag_36\n      swap2\n      swap1\n      tag_37\n      jump\t// in\n    tag_36:\n      mload(0x40)\n      dup1\n      swap2\n      sub\n      swap1\n      return\n        /* \"contracts/stake_reward_MLM.sol\":9965:10156  function DUSDTotalReferrals() public view returns(uint){ // this function is to get the total number of referrals ... */\n    tag_5:\n      tag_38\n      tag_39\n      jump\t// in\n    tag_38:\n      mload(0x40)\n      tag_40\n      swap2\n      swap1\n      tag_37\n      jump\t// in\n    tag_40:\n      mload(0x40)\n      dup1\n      swap2\n      sub\n      swap1\n      return\n        /* \"contracts/stake_reward_MLM.sol\":3488:5583  function Stake(uint _investedamount,address _referral) external returns(bool success){... */\n    tag_6:\n      tag_41\n      0x04\n      dup1\n      calldatasize\n      sub\n      dup2\n      add\n      swap1\n      tag_42\n      swap2\n      swap1\n      tag_43\n      jump\t// in\n    tag_42:\n      tag_44\n      jump\t// in\n    tag_41:\n      mload(0x40)\n      tag_45\n      swap2\n      swap1\n      tag_46\n      jump\t// in\n    tag_45:\n      mload(0x40)\n      dup1\n      swap2\n      sub\n      swap1\n      return\n        /* \"contracts/stake_reward_MLM.sol\":10547:10658  function set_min_Stake_amount(uint _amount) public ... */\n    tag_7:\n      tag_47\n      0x04\n      dup1\n      calldatasize\n      sub\n      dup2\n      add\n      swap1\n      tag_48\n      swap2\n      swap1\n      tag_49\n      jump\t// in\n    tag_48:\n      tag_50\n      jump\t// in\n    tag_47:\n      stop\n        /* \"contracts/stake_reward_MLM.sol\":8970:9953  function getAllDUSDinvestments() public view returns (allInvestments[] memory) { //this function will return the all investments of the investor and withware date... */\n    tag_8:\n      tag_51\n      tag_52\n      jump\t// in\n    tag_51:\n      mload(0x40)\n      tag_53\n      swap2\n      swap1\n      tag_54\n      jump\t// in\n    tag_53:\n      mload(0x40)\n      dup1\n      swap2\n      sub\n      swap1\n      return\n        /* \"contracts/stake_reward_MLM.sol\":5592:6686  function getReward() view public returns(uint){ //this function is get the total reward balance of the investor... */\n    tag_9:\n      tag_55\n      tag_56\n      jump\t// in\n    tag_55:\n      mload(0x40)\n      tag_57\n      swap2\n      swap1\n      tag_37\n      jump\t// in\n    tag_57:\n      mload(0x40)\n      dup1\n      swap2\n      sub\n      swap1\n      return\n        /* \"contracts/stake_reward_MLM.sol\":10787:11069  function set_values(uint min_stake,uint max_stake,uint reward_per_day,uint _denomenator) public ... */\n    tag_10:\n      tag_58\n      0x04\n      dup1\n      calldatasize\n      sub\n      dup2\n      add\n      swap1\n      tag_59\n      swap2\n      swap1\n      tag_60\n      jump\t// in\n    tag_59:\n      tag_61\n      jump\t// in\n    tag_58:\n      stop\n        /* \"contracts/stake_reward_MLM.sol\":10667:10778  function set_max_Stake_amount(uint _amount) public ... */\n    tag_11:\n      tag_62\n      0x04\n      dup1\n      calldatasize\n      sub\n      dup2\n      add\n      swap1\n      tag_63\n      swap2\n      swap1\n      tag_49\n      jump\t// in\n    tag_63:\n      tag_64\n      jump\t// in\n    tag_62:\n      stop\n        /* \"contracts/stake_reward_MLM.sol\":792:829  uint public investmentPeriod=300 days */\n    tag_12:\n      tag_65\n      tag_66\n      jump\t// in\n    tag_65:\n      mload(0x40)\n      tag_67\n      swap2\n      swap1\n      tag_37\n      jump\t// in\n    tag_67:\n      mload(0x40)\n      dup1\n      swap2\n      sub\n      swap1\n      return\n        /* \"contracts/stake_reward_MLM.sol\":7188:8740  function unStake() external  returns (bool success){... */\n    tag_13:\n      tag_68\n      tag_69\n      jump\t// in\n    tag_68:\n      mload(0x40)\n      tag_70\n      swap2\n      swap1\n      tag_46\n      jump\t// in\n    tag_70:\n      mload(0x40)\n      dup1\n      swap2\n      sub\n      swap1\n      return\n        /* \"contracts/stake_reward_MLM.sol\":300:321  address  public owner */\n    tag_14:\n      tag_71\n      tag_72\n      jump\t// in\n    tag_71:\n      mload(0x40)\n      tag_73\n      swap2\n      swap1\n      tag_74\n      jump\t// in\n    tag_73:\n      mload(0x40)\n      dup1\n      swap2\n      sub\n      swap1\n      return\n        /* \"contracts/stake_reward_MLM.sol\":8750:8960  function getTotalInvestmentDUSD() public view returns(uint) {   //this function is to get the total investment of the ivestor... */\n    tag_15:\n      tag_75\n      tag_76\n      jump\t// in\n    tag_75:\n      mload(0x40)\n      tag_77\n      swap2\n      swap1\n      tag_37\n      jump\t// in\n    tag_77:\n      mload(0x40)\n      dup1\n      swap2\n      sub\n      swap1\n      return\n        /* \"contracts/stake_reward_MLM.sol\":724:754  uint public denomenator=100000 */\n    tag_16:\n      tag_78\n      tag_79\n      jump\t// in\n    tag_78:\n      mload(0x40)\n      tag_80\n      swap2\n      swap1\n      tag_37\n      jump\t// in\n    tag_80:\n      mload(0x40)\n      dup1\n      swap2\n      sub\n      swap1\n      return\n        /* \"contracts/stake_reward_MLM.sol\":10384:10538  function setReward(uint _amount,uint _denomenator) public ... */\n    tag_17:\n      tag_81\n      0x04\n      dup1\n      calldatasize\n      sub\n      dup2\n      add\n      swap1\n      tag_82\n      swap2\n      swap1\n      tag_83\n      jump\t// in\n    tag_82:\n      tag_84\n      jump\t// in\n    tag_81:\n      stop\n        /* \"contracts/stake_reward_MLM.sol\":11262:11827  function referralLevel_earning() public view returns( uint[] memory arr )... */\n    tag_18:\n      tag_85\n      tag_86\n      jump\t// in\n    tag_85:\n      mload(0x40)\n      tag_87\n      swap2\n      swap1\n      tag_88\n      jump\t// in\n    tag_87:\n      mload(0x40)\n      dup1\n      swap2\n      sub\n      swap1\n      return\n        /* \"contracts/stake_reward_MLM.sol\":579:613  uint public min_Stake_amount=10000 */\n    tag_19:\n      tag_89\n      tag_90\n      jump\t// in\n    tag_89:\n      mload(0x40)\n      tag_91\n      swap2\n      swap1\n      tag_37\n      jump\t// in\n    tag_91:\n      mload(0x40)\n      dup1\n      swap2\n      sub\n      swap1\n      return\n        /* \"contracts/stake_reward_MLM.sol\":6696:7177  function withdrawReward() external returns (bool success){... */\n    tag_20:\n      tag_92\n      tag_93\n      jump\t// in\n    tag_92:\n      mload(0x40)\n      tag_94\n      swap2\n      swap1\n      tag_46\n      jump\t// in\n    tag_94:\n      mload(0x40)\n      dup1\n      swap2\n      sub\n      swap1\n      return\n        /* \"contracts/stake_reward_MLM.sol\":1619:1661  mapping(address=>Data) public DUSDinvestor */\n    tag_21:\n      tag_95\n      0x04\n      dup1\n      calldatasize\n      sub\n      dup2\n      add\n      swap1\n      tag_96\n      swap2\n      swap1\n      tag_97\n      jump\t// in\n    tag_96:\n      tag_98\n      jump\t// in\n    tag_95:\n      mload(0x40)\n      tag_99\n      swap8\n      swap7\n      swap6\n      swap5\n      swap4\n      swap3\n      swap2\n      swap1\n      tag_100\n      jump\t// in\n    tag_99:\n      mload(0x40)\n      dup1\n      swap2\n      sub\n      swap1\n      return\n        /* \"contracts/stake_reward_MLM.sol\":839:864  uint public totalbusiness */\n    tag_22:\n      tag_101\n      tag_102\n      jump\t// in\n    tag_101:\n      mload(0x40)\n      tag_103\n      swap2\n      swap1\n      tag_37\n      jump\t// in\n    tag_103:\n      mload(0x40)\n      dup1\n      swap2\n      sub\n      swap1\n      return\n        /* \"contracts/stake_reward_MLM.sol\":11078:11252  function transferOwnership(address _owner)  public... */\n    tag_23:\n      tag_104\n      0x04\n      dup1\n      calldatasize\n      sub\n      dup2\n      add\n      swap1\n      tag_105\n      swap2\n      swap1\n      tag_97\n      jump\t// in\n    tag_105:\n      tag_106\n      jump\t// in\n    tag_104:\n      stop\n        /* \"contracts/stake_reward_MLM.sol\":11836:12397  function referralLevel_count() public view returns( uint[] memory arr )... */\n    tag_24:\n      tag_107\n      tag_108\n      jump\t// in\n    tag_107:\n      mload(0x40)\n      tag_109\n      swap2\n      swap1\n      tag_88\n      jump\t// in\n    tag_109:\n      mload(0x40)\n      dup1\n      swap2\n      sub\n      swap1\n      return\n        /* \"contracts/stake_reward_MLM.sol\":516:559  uint public rewardToken=5000000000000000000 */\n    tag_25:\n      tag_110\n      tag_111\n      jump\t// in\n    tag_110:\n      mload(0x40)\n      tag_112\n      swap2\n      swap1\n      tag_37\n      jump\t// in\n    tag_112:\n      mload(0x40)\n      dup1\n      swap2\n      sub\n      swap1\n      return\n        /* \"contracts/stake_reward_MLM.sol\":650:686  uint public max_Stake_amount=5000000 */\n    tag_26:\n      tag_113\n      tag_114\n      jump\t// in\n    tag_113:\n      mload(0x40)\n      tag_115\n      swap2\n      swap1\n      tag_37\n      jump\t// in\n    tag_115:\n      mload(0x40)\n      dup1\n      swap2\n      sub\n      swap1\n      return\n        /* \"contracts/stake_reward_MLM.sol\":10166:10375  function DUSDReferralsList() public view returns(address[] memory){ //this function is to get the all investors list with there account number... */\n    tag_31:\n        /* \"contracts/stake_reward_MLM.sol\":10215:10231  address[] memory */\n      0x60\n        /* \"contracts/stake_reward_MLM.sol\":10327:10339  DUSDinvestor */\n      0x0b\n        /* \"contracts/stake_reward_MLM.sol\":10327:10351  DUSDinvestor[msg.sender] */\n      0x00\n        /* \"contracts/stake_reward_MLM.sol\":10340:10350  msg.sender */\n      caller\n        /* \"contracts/stake_reward_MLM.sol\":10327:10351  DUSDinvestor[msg.sender] */\n      0xffffffffffffffffffffffffffffffffffffffff\n      and\n      0xffffffffffffffffffffffffffffffffffffffff\n      and\n      dup2\n      mstore\n      0x20\n      add\n      swap1\n      dup2\n      mstore\n      0x20\n      add\n      0x00\n      keccak256\n        /* \"contracts/stake_reward_MLM.sol\":10327:10364  DUSDinvestor[msg.sender].hisReferrals */\n      0x01\n      add\n        /* \"contracts/stake_reward_MLM.sol\":10320:10364  return DUSDinvestor[msg.sender].hisReferrals */\n      dup1\n      sload\n      dup1\n      0x20\n      mul\n      0x20\n      add\n      mload(0x40)\n      swap1\n      dup2\n      add\n      0x40\n      mstore\n      dup1\n      swap3\n      swap2\n      swap1\n      dup2\n      dup2\n      mstore\n      0x20\n      add\n      dup3\n      dup1\n      sload\n      dup1\n      iszero\n      tag_117\n      jumpi\n      0x20\n      mul\n      dup3\n      add\n      swap2\n      swap1\n      0x00\n      mstore\n      keccak256(0x00, 0x20)\n      swap1\n    tag_118:\n      dup2\n      0x00\n      swap1\n      sload\n      swap1\n      0x0100\n      exp\n      swap1\n      div\n      0xffffffffffffffffffffffffffffffffffffffff\n      and\n      0xffffffffffffffffffffffffffffffffffffffff\n      and\n      dup2\n      mstore\n      0x20\n      add\n      swap1\n      0x01\n      add\n      swap1\n      dup1\n      dup4\n      gt\n      tag_118\n      jumpi\n    tag_117:\n      pop\n      pop\n      pop\n      pop\n      pop\n      swap1\n      pop\n        /* \"contracts/stake_reward_MLM.sol\":10166:10375  function DUSDReferralsList() public view returns(address[] memory){ //this function is to get the all investors list with there account number... */\n      swap1\n      jump\t// out\n        /* \"contracts/stake_reward_MLM.sol\":476:506  uint public totalDUSDInvestors */\n    tag_35:\n      sload(0x03)\n      dup2\n      jump\t// out\n        /* \"contracts/stake_reward_MLM.sol\":9965:10156  function DUSDTotalReferrals() public view returns(uint){ // this function is to get the total number of referrals ... */\n    tag_39:\n        /* \"contracts/stake_reward_MLM.sol\":10015:10019  uint */\n      0x00\n        /* \"contracts/stake_reward_MLM.sol\":10100:10112  DUSDinvestor */\n      0x0b\n        /* \"contracts/stake_reward_MLM.sol\":10100:10124  DUSDinvestor[msg.sender] */\n      0x00\n        /* \"contracts/stake_reward_MLM.sol\":10113:10123  msg.sender */\n      caller\n        /* \"contracts/stake_reward_MLM.sol\":10100:10124  DUSDinvestor[msg.sender] */\n      0xffffffffffffffffffffffffffffffffffffffff\n      and\n      0xffffffffffffffffffffffffffffffffffffffff\n      and\n      dup2\n      mstore\n      0x20\n      add\n      swap1\n      dup2\n      mstore\n      0x20\n      add\n      0x00\n      keccak256\n        /* \"contracts/stake_reward_MLM.sol\":10100:10137  DUSDinvestor[msg.sender].hisReferrals */\n      0x01\n      add\n        /* \"contracts/stake_reward_MLM.sol\":10099:10145  (DUSDinvestor[msg.sender].hisReferrals).length */\n      dup1\n      sload\n      swap1\n      pop\n        /* \"contracts/stake_reward_MLM.sol\":10092:10145  return (DUSDinvestor[msg.sender].hisReferrals).length */\n      swap1\n      pop\n        /* \"contracts/stake_reward_MLM.sol\":9965:10156  function DUSDTotalReferrals() public view returns(uint){ // this function is to get the total number of referrals ... */\n      swap1\n      jump\t// out\n        /* \"contracts/stake_reward_MLM.sol\":3488:5583  function Stake(uint _investedamount,address _referral) external returns(bool success){... */\n    tag_44:\n        /* \"contracts/stake_reward_MLM.sol\":3560:3572  bool success */\n      0x00\n        /* \"contracts/stake_reward_MLM.sol\":3614:3630  min_Stake_amount */\n      sload(0x05)\n        /* \"contracts/stake_reward_MLM.sol\":3595:3610  _investedamount */\n      dup4\n        /* \"contracts/stake_reward_MLM.sol\":3595:3630  _investedamount >= min_Stake_amount */\n      lt\n      iszero\n        /* \"contracts/stake_reward_MLM.sol\":3595:3669  _investedamount >= min_Stake_amount && _investedamount <= max_Stake_amount */\n      dup1\n      iszero\n      tag_121\n      jumpi\n      pop\n        /* \"contracts/stake_reward_MLM.sol\":3653:3669  max_Stake_amount */\n      sload(0x06)\n        /* \"contracts/stake_reward_MLM.sol\":3634:3649  _investedamount */\n      dup4\n        /* \"contracts/stake_reward_MLM.sol\":3634:3669  _investedamount <= max_Stake_amount */\n      gt\n      iszero\n        /* \"contracts/stake_reward_MLM.sol\":3595:3669  _investedamount >= min_Stake_amount && _investedamount <= max_Stake_amount */\n    tag_121:\n        /* \"contracts/stake_reward_MLM.sol\":3587:3726  require(_investedamount >= min_Stake_amount && _investedamount <= max_Stake_amount,\"value is not greater than 10000 and less than 5000000\") */\n      tag_122\n      jumpi\n      mload(0x40)\n      0x08c379a000000000000000000000000000000000000000000000000000000000\n      dup2\n      mstore\n      0x04\n      add\n      tag_123\n      swap1\n      tag_124\n      jump\t// in\n    tag_123:\n      mload(0x40)\n      dup1\n      swap2\n      sub\n      swap1\n      revert\n    tag_122:\n        /* \"contracts/stake_reward_MLM.sol\":3855:3860  false */\n      0x00\n        /* \"contracts/stake_reward_MLM.sol\":3814:3860  DUSDinvestor[msg.sender].investBefore == false */\n      iszero\n      iszero\n        /* \"contracts/stake_reward_MLM.sol\":3814:3826  DUSDinvestor */\n      0x0b\n        /* \"contracts/stake_reward_MLM.sol\":3814:3838  DUSDinvestor[msg.sender] */\n      0x00\n        /* \"contracts/stake_reward_MLM.sol\":3827:3837  msg.sender */\n      caller\n        /* \"contracts/stake_reward_MLM.sol\":3814:3838  DUSDinvestor[msg.sender] */\n      0xffffffffffffffffffffffffffffffffffffffff\n      and\n      0xffffffffffffffffffffffffffffffffffffffff\n      and\n      dup2\n      mstore\n      0x20\n      add\n      swap1\n      dup2\n      mstore\n      0x20\n      add\n      0x00\n      keccak256\n        /* \"contracts/stake_reward_MLM.sol\":3814:3851  DUSDinvestor[msg.sender].investBefore */\n      0x08\n      add\n      0x00\n      swap1\n      sload\n      swap1\n      0x0100\n      exp\n      swap1\n      div\n      0xff\n      and\n        /* \"contracts/stake_reward_MLM.sol\":3814:3860  DUSDinvestor[msg.sender].investBefore == false */\n      iszero\n      iszero\n      eq\n        /* \"contracts/stake_reward_MLM.sol\":3811:3965  if(DUSDinvestor[msg.sender].investBefore == false)... */\n      iszero\n      tag_125\n      jumpi\n        /* \"contracts/stake_reward_MLM.sol\":3893:3911  totalDUSDInvestors */\n      0x03\n      0x00\n        /* \"contracts/stake_reward_MLM.sol\":3893:3913  totalDUSDInvestors++ */\n      dup2\n      sload\n      dup1\n      swap3\n      swap2\n      swap1\n      tag_126\n      swap1\n      tag_127\n      jump\t// in\n    tag_126:\n      swap2\n      swap1\n      pop\n      sstore\n      pop\n        /* \"contracts/stake_reward_MLM.sol\":3811:3965  if(DUSDinvestor[msg.sender].investBefore == false)... */\n    tag_125:\n        /* \"contracts/stake_reward_MLM.sol\":4025:4026  0 */\n      0x00\n        /* \"contracts/stake_reward_MLM.sol\":3981:3993  DUSDinvestor */\n      0x0b\n        /* \"contracts/stake_reward_MLM.sol\":3981:4005  DUSDinvestor[msg.sender] */\n      0x00\n        /* \"contracts/stake_reward_MLM.sol\":3994:4004  msg.sender */\n      caller\n        /* \"contracts/stake_reward_MLM.sol\":3981:4005  DUSDinvestor[msg.sender] */\n      0xffffffffffffffffffffffffffffffffffffffff\n      and\n      0xffffffffffffffffffffffffffffffffffffffff\n      and\n      dup2\n      mstore\n      0x20\n      add\n      swap1\n      dup2\n      mstore\n      0x20\n      add\n      0x00\n      keccak256\n        /* \"contracts/stake_reward_MLM.sol\":3981:4021  DUSDinvestor[msg.sender].totalInvestment */\n      0x06\n      add\n      sload\n        /* \"contracts/stake_reward_MLM.sol\":3981:4026  DUSDinvestor[msg.sender].totalInvestment == 0 */\n      eq\n        /* \"contracts/stake_reward_MLM.sol\":3978:4137  if(DUSDinvestor[msg.sender].totalInvestment == 0)... */\n      iszero\n      tag_128\n      jumpi\n        /* \"contracts/stake_reward_MLM.sol\":4114:4122  300 days */\n      0x018b8200\n        /* \"contracts/stake_reward_MLM.sol\":4096:4111  block.timestamp */\n      timestamp\n        /* \"contracts/stake_reward_MLM.sol\":4096:4122  block.timestamp + 300 days */\n      tag_129\n      swap2\n      swap1\n      tag_130\n      jump\t// in\n    tag_129:\n        /* \"contracts/stake_reward_MLM.sol\":4059:4071  DUSDinvestor */\n      0x0b\n        /* \"contracts/stake_reward_MLM.sol\":4059:4083  DUSDinvestor[msg.sender] */\n      0x00\n        /* \"contracts/stake_reward_MLM.sol\":4072:4082  msg.sender */\n      caller\n        /* \"contracts/stake_reward_MLM.sol\":4059:4083  DUSDinvestor[msg.sender] */\n      0xffffffffffffffffffffffffffffffffffffffff\n      and\n      0xffffffffffffffffffffffffffffffffffffffff\n      and\n      dup2\n      mstore\n      0x20\n      add\n      swap1\n      dup2\n      mstore\n      0x20\n      add\n      0x00\n      keccak256\n        /* \"contracts/stake_reward_MLM.sol\":4059:4093  DUSDinvestor[msg.sender].stakeTime */\n      0x09\n      add\n        /* \"contracts/stake_reward_MLM.sol\":4059:4122  DUSDinvestor[msg.sender].stakeTime = block.timestamp + 300 days */\n      dup2\n      swap1\n      sstore\n      pop\n        /* \"contracts/stake_reward_MLM.sol\":3978:4137  if(DUSDinvestor[msg.sender].totalInvestment == 0)... */\n    tag_128:\n        /* \"contracts/stake_reward_MLM.sol\":4151:4159  uint num */\n      0x00\n        /* \"contracts/stake_reward_MLM.sol\":4162:4174  DUSDinvestor */\n      0x0b\n        /* \"contracts/stake_reward_MLM.sol\":4162:4186  DUSDinvestor[msg.sender] */\n      0x00\n        /* \"contracts/stake_reward_MLM.sol\":4175:4185  msg.sender */\n      caller\n        /* \"contracts/stake_reward_MLM.sol\":4162:4186  DUSDinvestor[msg.sender] */\n      0xffffffffffffffffffffffffffffffffffffffff\n      and\n      0xffffffffffffffffffffffffffffffffffffffff\n      and\n      dup2\n      mstore\n      0x20\n      add\n      swap1\n      dup2\n      mstore\n      0x20\n      add\n      0x00\n      keccak256\n        /* \"contracts/stake_reward_MLM.sol\":4162:4201  DUSDinvestor[msg.sender].noOfInvestment */\n      0x05\n      add\n      sload\n        /* \"contracts/stake_reward_MLM.sol\":4151:4201  uint num = DUSDinvestor[msg.sender].noOfInvestment */\n      swap1\n      pop\n        /* \"contracts/stake_reward_MLM.sol\":4272:4287  _investedamount */\n      dup4\n        /* \"contracts/stake_reward_MLM.sol\":4215:4227  DUSDinvestor */\n      0x0b\n        /* \"contracts/stake_reward_MLM.sol\":4215:4239  DUSDinvestor[msg.sender] */\n      0x00\n        /* \"contracts/stake_reward_MLM.sol\":4228:4238  msg.sender */\n      caller\n        /* \"contracts/stake_reward_MLM.sol\":4215:4239  DUSDinvestor[msg.sender] */\n      0xffffffffffffffffffffffffffffffffffffffff\n      and\n      0xffffffffffffffffffffffffffffffffffffffff\n      and\n      dup2\n      mstore\n      0x20\n      add\n      swap1\n      dup2\n      mstore\n      0x20\n      add\n      0x00\n      keccak256\n        /* \"contracts/stake_reward_MLM.sol\":4215:4250  DUSDinvestor[msg.sender].investment */\n      0x00\n      add\n        /* \"contracts/stake_reward_MLM.sol\":4215:4255  DUSDinvestor[msg.sender].investment[num] */\n      0x00\n        /* \"contracts/stake_reward_MLM.sol\":4251:4254  num */\n      dup4\n        /* \"contracts/stake_reward_MLM.sol\":4215:4255  DUSDinvestor[msg.sender].investment[num] */\n      dup2\n      mstore\n      0x20\n      add\n      swap1\n      dup2\n      mstore\n      0x20\n      add\n      0x00\n      keccak256\n        /* \"contracts/stake_reward_MLM.sol\":4215:4270  DUSDinvestor[msg.sender].investment[num].investedAmount */\n      0x00\n      add\n        /* \"contracts/stake_reward_MLM.sol\":4215:4287  DUSDinvestor[msg.sender].investment[num].investedAmount =_investedamount */\n      dup2\n      swap1\n      sstore\n      pop\n        /* \"contracts/stake_reward_MLM.sol\":4354:4369  block.timestamp */\n      timestamp\n        /* \"contracts/stake_reward_MLM.sol\":4301:4313  DUSDinvestor */\n      0x0b\n        /* \"contracts/stake_reward_MLM.sol\":4301:4325  DUSDinvestor[msg.sender] */\n      0x00\n        /* \"contracts/stake_reward_MLM.sol\":4314:4324  msg.sender */\n      caller\n        /* \"contracts/stake_reward_MLM.sol\":4301:4325  DUSDinvestor[msg.sender] */\n      0xffffffffffffffffffffffffffffffffffffffff\n      and\n      0xffffffffffffffffffffffffffffffffffffffff\n      and\n      dup2\n      mstore\n      0x20\n      add\n      swap1\n      dup2\n      mstore\n      0x20\n      add\n      0x00\n      keccak256\n        /* \"contracts/stake_reward_MLM.sol\":4301:4336  DUSDinvestor[msg.sender].investment */\n      0x00\n      add\n        /* \"contracts/stake_reward_MLM.sol\":4301:4341  DUSDinvestor[msg.sender].investment[num] */\n      0x00\n        /* \"contracts/stake_reward_MLM.sol\":4337:4340  num */\n      dup4\n        /* \"contracts/stake_reward_MLM.sol\":4301:4341  DUSDinvestor[msg.sender].investment[num] */\n      dup2\n      mstore\n      0x20\n      add\n      swap1\n      dup2\n      mstore\n      0x20\n      add\n      0x00\n      keccak256\n        /* \"contracts/stake_reward_MLM.sol\":4301:4353  DUSDinvestor[msg.sender].investment[num].DepositTime */\n      0x02\n      add\n        /* \"contracts/stake_reward_MLM.sol\":4301:4369  DUSDinvestor[msg.sender].investment[num].DepositTime=block.timestamp */\n      dup2\n      swap1\n      sstore\n      pop\n        /* \"contracts/stake_reward_MLM.sol\":4456:4472  investmentPeriod */\n      sload(0x08)\n        /* \"contracts/stake_reward_MLM.sol\":4438:4453  block.timestamp */\n      timestamp\n        /* \"contracts/stake_reward_MLM.sol\":4438:4472  block.timestamp + investmentPeriod */\n      tag_131\n      swap2\n      swap1\n      tag_130\n      jump\t// in\n    tag_131:\n        /* \"contracts/stake_reward_MLM.sol\":4383:4395  DUSDinvestor */\n      0x0b\n        /* \"contracts/stake_reward_MLM.sol\":4383:4407  DUSDinvestor[msg.sender] */\n      0x00\n        /* \"contracts/stake_reward_MLM.sol\":4396:4406  msg.sender */\n      caller\n        /* \"contracts/stake_reward_MLM.sol\":4383:4407  DUSDinvestor[msg.sender] */\n      0xffffffffffffffffffffffffffffffffffffffff\n      and\n      0xffffffffffffffffffffffffffffffffffffffff\n      and\n      dup2\n      mstore\n      0x20\n      add\n      swap1\n      dup2\n      mstore\n      0x20\n      add\n      0x00\n      keccak256\n        /* \"contracts/stake_reward_MLM.sol\":4383:4418  DUSDinvestor[msg.sender].investment */\n      0x00\n      add\n        /* \"contracts/stake_reward_MLM.sol\":4383:4423  DUSDinvestor[msg.sender].investment[num] */\n      0x00\n        /* \"contracts/stake_reward_MLM.sol\":4419:4422  num */\n      dup4\n        /* \"contracts/stake_reward_MLM.sol\":4383:4423  DUSDinvestor[msg.sender].investment[num] */\n      dup2\n      mstore\n      0x20\n      add\n      swap1\n      dup2\n      mstore\n      0x20\n      add\n      0x00\n      keccak256\n        /* \"contracts/stake_reward_MLM.sol\":4383:4437  DUSDinvestor[msg.sender].investment[num].withdrawnTime */\n      0x01\n      add\n        /* \"contracts/stake_reward_MLM.sol\":4383:4472  DUSDinvestor[msg.sender].investment[num].withdrawnTime=block.timestamp + investmentPeriod */\n      dup2\n      swap1\n      sstore\n      pop\n        /* \"contracts/stake_reward_MLM.sol\":4555:4558  num */\n      dup1\n        /* \"contracts/stake_reward_MLM.sol\":4500:4512  DUSDinvestor */\n      0x0b\n        /* \"contracts/stake_reward_MLM.sol\":4500:4524  DUSDinvestor[msg.sender] */\n      0x00\n        /* \"contracts/stake_reward_MLM.sol\":4513:4523  msg.sender */\n      caller\n        /* \"contracts/stake_reward_MLM.sol\":4500:4524  DUSDinvestor[msg.sender] */\n      0xffffffffffffffffffffffffffffffffffffffff\n      and\n      0xffffffffffffffffffffffffffffffffffffffff\n      and\n      dup2\n      mstore\n      0x20\n      add\n      swap1\n      dup2\n      mstore\n      0x20\n      add\n      0x00\n      keccak256\n        /* \"contracts/stake_reward_MLM.sol\":4500:4535  DUSDinvestor[msg.sender].investment */\n      0x00\n      add\n        /* \"contracts/stake_reward_MLM.sol\":4500:4540  DUSDinvestor[msg.sender].investment[num] */\n      0x00\n        /* \"contracts/stake_reward_MLM.sol\":4536:4539  num */\n      dup4\n        /* \"contracts/stake_reward_MLM.sol\":4500:4540  DUSDinvestor[msg.sender].investment[num] */\n      dup2\n      mstore\n      0x20\n      add\n      swap1\n      dup2\n      mstore\n      0x20\n      add\n      0x00\n      keccak256\n        /* \"contracts/stake_reward_MLM.sol\":4500:4554  DUSDinvestor[msg.sender].investment[num].investmentNum */\n      0x03\n      add\n        /* \"contracts/stake_reward_MLM.sol\":4500:4558  DUSDinvestor[msg.sender].investment[num].investmentNum=num */\n      dup2\n      swap1\n      sstore\n      pop\n        /* \"contracts/stake_reward_MLM.sol\":4614:4629  _investedamount */\n      dup4\n        /* \"contracts/stake_reward_MLM.sol\":4572:4584  DUSDinvestor */\n      0x0b\n        /* \"contracts/stake_reward_MLM.sol\":4572:4596  DUSDinvestor[msg.sender] */\n      0x00\n        /* \"contracts/stake_reward_MLM.sol\":4585:4595  msg.sender */\n      caller\n        /* \"contracts/stake_reward_MLM.sol\":4572:4596  DUSDinvestor[msg.sender] */\n      0xffffffffffffffffffffffffffffffffffffffff\n      and\n      0xffffffffffffffffffffffffffffffffffffffff\n      and\n      dup2\n      mstore\n      0x20\n      add\n      swap1\n      dup2\n      mstore\n      0x20\n      add\n      0x00\n      keccak256\n        /* \"contracts/stake_reward_MLM.sol\":4572:4612  DUSDinvestor[msg.sender].totalInvestment */\n      0x06\n      add\n      0x00\n        /* \"contracts/stake_reward_MLM.sol\":4572:4629  DUSDinvestor[msg.sender].totalInvestment+=_investedamount */\n      dup3\n      dup3\n      sload\n      tag_132\n      swap2\n      swap1\n      tag_130\n      jump\t// in\n    tag_132:\n      swap3\n      pop\n      pop\n      dup2\n      swap1\n      sstore\n      pop\n        /* \"contracts/stake_reward_MLM.sol\":4643:4655  DUSDinvestor */\n      0x0b\n        /* \"contracts/stake_reward_MLM.sol\":4643:4667  DUSDinvestor[msg.sender] */\n      0x00\n        /* \"contracts/stake_reward_MLM.sol\":4656:4666  msg.sender */\n      caller\n        /* \"contracts/stake_reward_MLM.sol\":4643:4667  DUSDinvestor[msg.sender] */\n      0xffffffffffffffffffffffffffffffffffffffff\n      and\n      0xffffffffffffffffffffffffffffffffffffffff\n      and\n      dup2\n      mstore\n      0x20\n      add\n      swap1\n      dup2\n      mstore\n      0x20\n      add\n      0x00\n      keccak256\n        /* \"contracts/stake_reward_MLM.sol\":4643:4682  DUSDinvestor[msg.sender].noOfInvestment */\n      0x05\n      add\n      0x00\n        /* \"contracts/stake_reward_MLM.sol\":4643:4684  DUSDinvestor[msg.sender].noOfInvestment++ */\n      dup2\n      sload\n      dup1\n      swap3\n      swap2\n      swap1\n      tag_133\n      swap1\n      tag_127\n      jump\t// in\n    tag_133:\n      swap2\n      swap1\n      pop\n      sstore\n      pop\n        /* \"contracts/stake_reward_MLM.sol\":4713:4728  _investedamount */\n      dup4\n        /* \"contracts/stake_reward_MLM.sol\":4698:4711  totalbusiness */\n      0x09\n      0x00\n        /* \"contracts/stake_reward_MLM.sol\":4698:4728  totalbusiness+=_investedamount */\n      dup3\n      dup3\n      sload\n      tag_134\n      swap2\n      swap1\n      tag_130\n      jump\t// in\n    tag_134:\n      swap3\n      pop\n      pop\n      dup2\n      swap1\n      sstore\n      pop\n        /* \"contracts/stake_reward_MLM.sol\":4747:4758  SMCcontract */\n      0x01\n      0x00\n      swap1\n      sload\n      swap1\n      0x0100\n      exp\n      swap1\n      div\n      0xffffffffffffffffffffffffffffffffffffffff\n      and\n        /* \"contracts/stake_reward_MLM.sol\":4742:4772  DUSD(SMCcontract).transferFrom */\n      0xffffffffffffffffffffffffffffffffffffffff\n      and\n      0x23b872dd\n        /* \"contracts/stake_reward_MLM.sol\":4773:4783  msg.sender */\n      caller\n        /* \"contracts/stake_reward_MLM.sol\":4792:4796  this */\n      address\n        /* \"contracts/stake_reward_MLM.sol\":4814:4819  10**8 */\n      0x05f5e100\n        /* \"contracts/stake_reward_MLM.sol\":4798:4813  _investedamount */\n      dup9\n        /* \"contracts/stake_reward_MLM.sol\":4798:4819  _investedamount*10**8 */\n      tag_135\n      swap2\n      swap1\n      tag_136\n      jump\t// in\n    tag_135:\n        /* \"contracts/stake_reward_MLM.sol\":4742:4820  DUSD(SMCcontract).transferFrom(msg.sender,address(this),_investedamount*10**8) */\n      mload(0x40)\n      dup5\n      0xffffffff\n      and\n      0xe0\n      shl\n      dup2\n      mstore\n      0x04\n      add\n      tag_137\n      swap4\n      swap3\n      swap2\n      swap1\n      tag_138\n      jump\t// in\n    tag_137:\n      0x20\n      mload(0x40)\n      dup1\n      dup4\n      sub\n      dup2\n      0x00\n      dup8\n      dup1\n      extcodesize\n      iszero\n      dup1\n      iszero\n      tag_139\n      jumpi\n      0x00\n      dup1\n      revert\n    tag_139:\n      pop\n      gas\n      call\n      iszero\n      dup1\n      iszero\n      tag_141\n      jumpi\n      returndatasize\n      0x00\n      dup1\n      returndatacopy\n      revert(0x00, returndatasize)\n    tag_141:\n      pop\n      pop\n      pop\n      pop\n      mload(0x40)\n      returndatasize\n      not(0x1f)\n      0x1f\n      dup3\n      add\n      and\n      dup3\n      add\n      dup1\n      0x40\n      mstore\n      pop\n      dup2\n      add\n      swap1\n      tag_142\n      swap2\n      swap1\n      tag_143\n      jump\t// in\n    tag_142:\n      pop\n        /* \"contracts/stake_reward_MLM.sol\":4857:4858  0 */\n      0x00\n        /* \"contracts/stake_reward_MLM.sol\":4838:4859  _referral==address(0) */\n      0xffffffffffffffffffffffffffffffffffffffff\n      and\n        /* \"contracts/stake_reward_MLM.sol\":4838:4847  _referral */\n      dup4\n        /* \"contracts/stake_reward_MLM.sol\":4838:4859  _referral==address(0) */\n      0xffffffffffffffffffffffffffffffffffffffff\n      and\n      eq\n        /* \"contracts/stake_reward_MLM.sol\":4838:4884  _referral==address(0) || _referral==msg.sender */\n      dup1\n      tag_144\n      jumpi\n      pop\n        /* \"contracts/stake_reward_MLM.sol\":4874:4884  msg.sender */\n      caller\n        /* \"contracts/stake_reward_MLM.sol\":4863:4884  _referral==msg.sender */\n      0xffffffffffffffffffffffffffffffffffffffff\n      and\n        /* \"contracts/stake_reward_MLM.sol\":4863:4872  _referral */\n      dup4\n        /* \"contracts/stake_reward_MLM.sol\":4863:4884  _referral==msg.sender */\n      0xffffffffffffffffffffffffffffffffffffffff\n      and\n      eq\n        /* \"contracts/stake_reward_MLM.sol\":4838:4884  _referral==address(0) || _referral==msg.sender */\n    tag_144:\n        /* \"contracts/stake_reward_MLM.sol\":4838:4931  _referral==address(0) || _referral==msg.sender || DUSDinvestor[msg.sender].investBefore==true */\n      dup1\n      tag_145\n      jumpi\n      pop\n        /* \"contracts/stake_reward_MLM.sol\":4927:4931  true */\n      0x01\n        /* \"contracts/stake_reward_MLM.sol\":4888:4931  DUSDinvestor[msg.sender].investBefore==true */\n      iszero\n      iszero\n        /* \"contracts/stake_reward_MLM.sol\":4888:4900  DUSDinvestor */\n      0x0b\n        /* \"contracts/stake_reward_MLM.sol\":4888:4912  DUSDinvestor[msg.sender] */\n      0x00\n        /* \"contracts/stake_reward_MLM.sol\":4901:4911  msg.sender */\n      caller\n        /* \"contracts/stake_reward_MLM.sol\":4888:4912  DUSDinvestor[msg.sender] */\n      0xffffffffffffffffffffffffffffffffffffffff\n      and\n      0xffffffffffffffffffffffffffffffffffffffff\n      and\n      dup2\n      mstore\n      0x20\n      add\n      swap1\n      dup2\n      mstore\n      0x20\n      add\n      0x00\n      keccak256\n        /* \"contracts/stake_reward_MLM.sol\":4888:4925  DUSDinvestor[msg.sender].investBefore */\n      0x08\n      add\n      0x00\n      swap1\n      sload\n      swap1\n      0x0100\n      exp\n      swap1\n      div\n      0xff\n      and\n        /* \"contracts/stake_reward_MLM.sol\":4888:4931  DUSDinvestor[msg.sender].investBefore==true */\n      iszero\n      iszero\n      eq\n        /* \"contracts/stake_reward_MLM.sol\":4838:4931  _referral==address(0) || _referral==msg.sender || DUSDinvestor[msg.sender].investBefore==true */\n    tag_145:\n        /* \"contracts/stake_reward_MLM.sol\":4835:5478  if(_referral==address(0) || _referral==msg.sender || DUSDinvestor[msg.sender].investBefore==true)                                         //checking that investor comes from the referral link or not... */\n      iszero\n      tag_146\n      jumpi\n        /* \"contracts/stake_reward_MLM.sol\":5113:5114  0 */\n      0x00\n        /* \"contracts/stake_reward_MLM.sol\":5065:5077  DUSDinvestor */\n      0x0b\n        /* \"contracts/stake_reward_MLM.sol\":5065:5089  DUSDinvestor[msg.sender] */\n      0x00\n        /* \"contracts/stake_reward_MLM.sol\":5078:5088  msg.sender */\n      caller\n        /* \"contracts/stake_reward_MLM.sol\":5065:5089  DUSDinvestor[msg.sender] */\n      0xffffffffffffffffffffffffffffffffffffffff\n      and\n      0xffffffffffffffffffffffffffffffffffffffff\n      and\n      dup2\n      mstore\n      0x20\n      add\n      swap1\n      dup2\n      mstore\n      0x20\n      add\n      0x00\n      keccak256\n        /* \"contracts/stake_reward_MLM.sol\":5065:5102  DUSDinvestor[msg.sender].referralFrom */\n      0x02\n      add\n      0x00\n        /* \"contracts/stake_reward_MLM.sol\":5065:5115  DUSDinvestor[msg.sender].referralFrom = address(0) */\n      0x0100\n      exp\n      dup2\n      sload\n      dup2\n      0xffffffffffffffffffffffffffffffffffffffff\n      mul\n      not\n      and\n      swap1\n      dup4\n      0xffffffffffffffffffffffffffffffffffffffff\n      and\n      mul\n      or\n      swap1\n      sstore\n      pop\n        /* \"contracts/stake_reward_MLM.sol\":4835:5478  if(_referral==address(0) || _referral==msg.sender || DUSDinvestor[msg.sender].investBefore==true)                                         //checking that investor comes from the referral link or not... */\n      jump(tag_147)\n    tag_146:\n        /* \"contracts/stake_reward_MLM.sol\":5218:5227  _referral */\n      dup3\n        /* \"contracts/stake_reward_MLM.sol\":5178:5190  DUSDinvestor */\n      0x0b\n        /* \"contracts/stake_reward_MLM.sol\":5178:5202  DUSDinvestor[msg.sender] */\n      0x00\n        /* \"contracts/stake_reward_MLM.sol\":5191:5201  msg.sender */\n      caller\n        /* \"contracts/stake_reward_MLM.sol\":5178:5202  DUSDinvestor[msg.sender] */\n      0xffffffffffffffffffffffffffffffffffffffff\n      and\n      0xffffffffffffffffffffffffffffffffffffffff\n      and\n      dup2\n      mstore\n      0x20\n      add\n      swap1\n      dup2\n      mstore\n      0x20\n      add\n      0x00\n      keccak256\n        /* \"contracts/stake_reward_MLM.sol\":5178:5215  DUSDinvestor[msg.sender].referralFrom */\n      0x02\n      add\n      0x00\n        /* \"contracts/stake_reward_MLM.sol\":5178:5227  DUSDinvestor[msg.sender].referralFrom = _referral */\n      0x0100\n      exp\n      dup2\n      sload\n      dup2\n      0xffffffffffffffffffffffffffffffffffffffff\n      mul\n      not\n      and\n      swap1\n      dup4\n      0xffffffffffffffffffffffffffffffffffffffff\n      and\n      mul\n      or\n      swap1\n      sstore\n      pop\n        /* \"contracts/stake_reward_MLM.sol\":5245:5257  DUSDinvestor */\n      0x0b\n        /* \"contracts/stake_reward_MLM.sol\":5245:5268  DUSDinvestor[_referral] */\n      0x00\n        /* \"contracts/stake_reward_MLM.sol\":5258:5267  _referral */\n      dup5\n        /* \"contracts/stake_reward_MLM.sol\":5245:5268  DUSDinvestor[_referral] */\n      0xffffffffffffffffffffffffffffffffffffffff\n      and\n      0xffffffffffffffffffffffffffffffffffffffff\n      and\n      dup2\n      mstore\n      0x20\n      add\n      swap1\n      dup2\n      mstore\n      0x20\n      add\n      0x00\n      keccak256\n        /* \"contracts/stake_reward_MLM.sol\":5245:5281  DUSDinvestor[_referral].hisReferrals */\n      0x01\n      add\n        /* \"contracts/stake_reward_MLM.sol\":5287:5297  msg.sender */\n      caller\n        /* \"contracts/stake_reward_MLM.sol\":5245:5298  DUSDinvestor[_referral].hisReferrals.push(msg.sender) */\n      swap1\n      dup1\n      0x01\n      dup2\n      sload\n      add\n      dup1\n      dup3\n      sstore\n      dup1\n      swap2\n      pop\n      pop\n      0x01\n      swap1\n      sub\n      swap1\n      0x00\n      mstore\n      keccak256(0x00, 0x20)\n      add\n      0x00\n      swap1\n      swap2\n      swap1\n      swap2\n      swap1\n      swap2\n      0x0100\n      exp\n      dup2\n      sload\n      dup2\n      0xffffffffffffffffffffffffffffffffffffffff\n      mul\n      not\n      and\n      swap1\n      dup4\n      0xffffffffffffffffffffffffffffffffffffffff\n      and\n      mul\n      or\n      swap1\n      sstore\n      pop\n        /* \"contracts/stake_reward_MLM.sol\":5316:5369  sendRewardToDUSDReferrals(msg.sender,_investedamount) */\n      tag_149\n        /* \"contracts/stake_reward_MLM.sol\":5342:5352  msg.sender */\n      caller\n        /* \"contracts/stake_reward_MLM.sol\":5353:5368  _investedamount */\n      dup6\n        /* \"contracts/stake_reward_MLM.sol\":5316:5341  sendRewardToDUSDReferrals */\n      tag_150\n        /* \"contracts/stake_reward_MLM.sol\":5316:5369  sendRewardToDUSDReferrals(msg.sender,_investedamount) */\n      jump\t// in\n    tag_149:\n        /* \"contracts/stake_reward_MLM.sol\":4835:5478  if(_referral==address(0) || _referral==msg.sender || DUSDinvestor[msg.sender].investBefore==true)                                         //checking that investor comes from the referral link or not... */\n    tag_147:\n        /* \"contracts/stake_reward_MLM.sol\":5529:5533  true */\n      0x01\n        /* \"contracts/stake_reward_MLM.sol\":5491:5503  DUSDinvestor */\n      0x0b\n        /* \"contracts/stake_reward_MLM.sol\":5491:5515  DUSDinvestor[msg.sender] */\n      0x00\n        /* \"contracts/stake_reward_MLM.sol\":5504:5514  msg.sender */\n      caller\n        /* \"contracts/stake_reward_MLM.sol\":5491:5515  DUSDinvestor[msg.sender] */\n      0xffffffffffffffffffffffffffffffffffffffff\n      and\n      0xffffffffffffffffffffffffffffffffffffffff\n      and\n      dup2\n      mstore\n      0x20\n      add\n      swap1\n      dup2\n      mstore\n      0x20\n      add\n      0x00\n      keccak256\n        /* \"contracts/stake_reward_MLM.sol\":5491:5528  DUSDinvestor[msg.sender].investBefore */\n      0x08\n      add\n      0x00\n        /* \"contracts/stake_reward_MLM.sol\":5491:5533  DUSDinvestor[msg.sender].investBefore=true */\n      0x0100\n      exp\n      dup2\n      sload\n      dup2\n      0xff\n      mul\n      not\n      and\n      swap1\n      dup4\n      iszero\n      iszero\n      mul\n      or\n      swap1\n      sstore\n      pop\n        /* \"contracts/stake_reward_MLM.sol\":5555:5559  true */\n      0x01\n        /* \"contracts/stake_reward_MLM.sol\":5548:5559  return true */\n      swap2\n      pop\n      pop\n        /* \"contracts/stake_reward_MLM.sol\":3488:5583  function Stake(uint _investedamount,address _referral) external returns(bool success){... */\n      swap3\n      swap2\n      pop\n      pop\n      jump\t// out\n        /* \"contracts/stake_reward_MLM.sol\":10547:10658  function set_min_Stake_amount(uint _amount) public ... */\n    tag_50:\n        /* \"contracts/stake_reward_MLM.sol\":10640:10647  _amount */\n      dup1\n        /* \"contracts/stake_reward_MLM.sol\":10621:10637  min_Stake_amount */\n      0x05\n        /* \"contracts/stake_reward_MLM.sol\":10621:10647  min_Stake_amount = _amount */\n      dup2\n      swap1\n      sstore\n      pop\n        /* \"contracts/stake_reward_MLM.sol\":10547:10658  function set_min_Stake_amount(uint _amount) public ... */\n      pop\n      jump\t// out\n        /* \"contracts/stake_reward_MLM.sol\":8970:9953  function getAllDUSDinvestments() public view returns (allInvestments[] memory) { //this function will return the all investments of the investor and withware date... */\n    tag_52:\n        /* \"contracts/stake_reward_MLM.sol\":9024:9047  allInvestments[] memory */\n      0x60\n        /* \"contracts/stake_reward_MLM.sol\":9145:9153  uint num */\n      0x00\n        /* \"contracts/stake_reward_MLM.sol\":9156:9168  DUSDinvestor */\n      0x0b\n        /* \"contracts/stake_reward_MLM.sol\":9156:9180  DUSDinvestor[msg.sender] */\n      0x00\n        /* \"contracts/stake_reward_MLM.sol\":9169:9179  msg.sender */\n      caller\n        /* \"contracts/stake_reward_MLM.sol\":9156:9180  DUSDinvestor[msg.sender] */\n      0xffffffffffffffffffffffffffffffffffffffff\n      and\n      0xffffffffffffffffffffffffffffffffffffffff\n      and\n      dup2\n      mstore\n      0x20\n      add\n      swap1\n      dup2\n      mstore\n      0x20\n      add\n      0x00\n      keccak256\n        /* \"contracts/stake_reward_MLM.sol\":9156:9195  DUSDinvestor[msg.sender].noOfInvestment */\n      0x05\n      add\n      sload\n        /* \"contracts/stake_reward_MLM.sol\":9145:9195  uint num = DUSDinvestor[msg.sender].noOfInvestment */\n      swap1\n      pop\n        /* \"contracts/stake_reward_MLM.sol\":9209:9218  uint temp */\n      0x00\n        /* \"contracts/stake_reward_MLM.sol\":9232:9249  uint currentIndex */\n      dup1\n        /* \"contracts/stake_reward_MLM.sol\":9280:9286  uint i */\n      0x00\n        /* \"contracts/stake_reward_MLM.sol\":9276:9452  for(uint i=0;i<num;i++)... */\n    tag_153:\n        /* \"contracts/stake_reward_MLM.sol\":9291:9294  num */\n      dup4\n        /* \"contracts/stake_reward_MLM.sol\":9289:9290  i */\n      dup2\n        /* \"contracts/stake_reward_MLM.sol\":9289:9294  i<num */\n      lt\n        /* \"contracts/stake_reward_MLM.sol\":9276:9452  for(uint i=0;i<num;i++)... */\n      iszero\n      tag_154\n      jumpi\n        /* \"contracts/stake_reward_MLM.sol\":9389:9390  0 */\n      0x00\n        /* \"contracts/stake_reward_MLM.sol\":9333:9345  DUSDinvestor */\n      0x0b\n        /* \"contracts/stake_reward_MLM.sol\":9333:9357  DUSDinvestor[msg.sender] */\n      0x00\n        /* \"contracts/stake_reward_MLM.sol\":9346:9356  msg.sender */\n      caller\n        /* \"contracts/stake_reward_MLM.sol\":9333:9357  DUSDinvestor[msg.sender] */\n      0xffffffffffffffffffffffffffffffffffffffff\n      and\n      0xffffffffffffffffffffffffffffffffffffffff\n      and\n      dup2\n      mstore\n      0x20\n      add\n      swap1\n      dup2\n      mstore\n      0x20\n      add\n      0x00\n      keccak256\n        /* \"contracts/stake_reward_MLM.sol\":9333:9368  DUSDinvestor[msg.sender].investment */\n      0x00\n      add\n        /* \"contracts/stake_reward_MLM.sol\":9333:9371  DUSDinvestor[msg.sender].investment[i] */\n      0x00\n        /* \"contracts/stake_reward_MLM.sol\":9369:9370  i */\n      dup4\n        /* \"contracts/stake_reward_MLM.sol\":9333:9371  DUSDinvestor[msg.sender].investment[i] */\n      dup2\n      mstore\n      0x20\n      add\n      swap1\n      dup2\n      mstore\n      0x20\n      add\n      0x00\n      keccak256\n        /* \"contracts/stake_reward_MLM.sol\":9333:9386  DUSDinvestor[msg.sender].investment[i].investedAmount */\n      0x00\n      add\n      sload\n        /* \"contracts/stake_reward_MLM.sol\":9333:9390  DUSDinvestor[msg.sender].investment[i].investedAmount > 0 */\n      gt\n        /* \"contracts/stake_reward_MLM.sol\":9329:9437  if( DUSDinvestor[msg.sender].investment[i].investedAmount > 0 ){... */\n      iszero\n      tag_156\n      jumpi\n        /* \"contracts/stake_reward_MLM.sol\":9413:9419  temp++ */\n      dup3\n      dup1\n      tag_157\n      swap1\n      tag_127\n      jump\t// in\n    tag_157:\n      swap4\n      pop\n      pop\n        /* \"contracts/stake_reward_MLM.sol\":9329:9437  if( DUSDinvestor[msg.sender].investment[i].investedAmount > 0 ){... */\n    tag_156:\n        /* \"contracts/stake_reward_MLM.sol\":9295:9298  i++ */\n      dup1\n      dup1\n      tag_158\n      swap1\n      tag_127\n      jump\t// in\n    tag_158:\n      swap2\n      pop\n      pop\n        /* \"contracts/stake_reward_MLM.sol\":9276:9452  for(uint i=0;i<num;i++)... */\n      jump(tag_153)\n    tag_154:\n      pop\n        /* \"contracts/stake_reward_MLM.sol\":9475:9507  allInvestments[] memory Invested */\n      0x00\n        /* \"contracts/stake_reward_MLM.sol\":9532:9536  temp */\n      dup3\n        /* \"contracts/stake_reward_MLM.sol\":9511:9537  new allInvestments[](temp) */\n      0xffffffffffffffff\n      dup2\n      gt\n      iszero\n      tag_159\n      jumpi\n      tag_160\n      tag_161\n      jump\t// in\n    tag_160:\n    tag_159:\n      mload(0x40)\n      swap1\n      dup1\n      dup3\n      mstore\n      dup1\n      0x20\n      mul\n      0x20\n      add\n      dup3\n      add\n      0x40\n      mstore\n      dup1\n      iszero\n      tag_162\n      jumpi\n      dup2\n      0x20\n      add\n    tag_163:\n      tag_164\n      tag_165\n      jump\t// in\n    tag_164:\n      dup2\n      mstore\n      0x20\n      add\n      swap1\n      0x01\n      swap1\n      sub\n      swap1\n      dup2\n      tag_163\n      jumpi\n      swap1\n      pop\n    tag_162:\n      pop\n        /* \"contracts/stake_reward_MLM.sol\":9475:9537  allInvestments[] memory Invested =  new allInvestments[](temp) */\n      swap1\n      pop\n        /* \"contracts/stake_reward_MLM.sol\":9557:9563  uint i */\n      0x00\n        /* \"contracts/stake_reward_MLM.sol\":9553:9913  for(uint i=0;i<num;i++)... */\n    tag_166:\n        /* \"contracts/stake_reward_MLM.sol\":9568:9571  num */\n      dup5\n        /* \"contracts/stake_reward_MLM.sol\":9566:9567  i */\n      dup2\n        /* \"contracts/stake_reward_MLM.sol\":9566:9571  i<num */\n      lt\n        /* \"contracts/stake_reward_MLM.sol\":9553:9913  for(uint i=0;i<num;i++)... */\n      iszero\n      tag_167\n      jumpi\n        /* \"contracts/stake_reward_MLM.sol\":9666:9667  0 */\n      0x00\n        /* \"contracts/stake_reward_MLM.sol\":9610:9622  DUSDinvestor */\n      0x0b\n        /* \"contracts/stake_reward_MLM.sol\":9610:9634  DUSDinvestor[msg.sender] */\n      0x00\n        /* \"contracts/stake_reward_MLM.sol\":9623:9633  msg.sender */\n      caller\n        /* \"contracts/stake_reward_MLM.sol\":9610:9634  DUSDinvestor[msg.sender] */\n      0xffffffffffffffffffffffffffffffffffffffff\n      and\n      0xffffffffffffffffffffffffffffffffffffffff\n      and\n      dup2\n      mstore\n      0x20\n      add\n      swap1\n      dup2\n      mstore\n      0x20\n      add\n      0x00\n      keccak256\n        /* \"contracts/stake_reward_MLM.sol\":9610:9645  DUSDinvestor[msg.sender].investment */\n      0x00\n      add\n        /* \"contracts/stake_reward_MLM.sol\":9610:9648  DUSDinvestor[msg.sender].investment[i] */\n      0x00\n        /* \"contracts/stake_reward_MLM.sol\":9646:9647  i */\n      dup4\n        /* \"contracts/stake_reward_MLM.sol\":9610:9648  DUSDinvestor[msg.sender].investment[i] */\n      dup2\n      mstore\n      0x20\n      add\n      swap1\n      dup2\n      mstore\n      0x20\n      add\n      0x00\n      keccak256\n        /* \"contracts/stake_reward_MLM.sol\":9610:9663  DUSDinvestor[msg.sender].investment[i].investedAmount */\n      0x00\n      add\n      sload\n        /* \"contracts/stake_reward_MLM.sol\":9610:9667  DUSDinvestor[msg.sender].investment[i].investedAmount > 0 */\n      gt\n        /* \"contracts/stake_reward_MLM.sol\":9606:9898  if( DUSDinvestor[msg.sender].investment[i].investedAmount > 0 ){... */\n      iszero\n      tag_169\n      jumpi\n        /* \"contracts/stake_reward_MLM.sol\":9807:9819  DUSDinvestor */\n      0x0b\n        /* \"contracts/stake_reward_MLM.sol\":9807:9831  DUSDinvestor[msg.sender] */\n      0x00\n        /* \"contracts/stake_reward_MLM.sol\":9820:9830  msg.sender */\n      caller\n        /* \"contracts/stake_reward_MLM.sol\":9807:9831  DUSDinvestor[msg.sender] */\n      0xffffffffffffffffffffffffffffffffffffffff\n      and\n      0xffffffffffffffffffffffffffffffffffffffff\n      and\n      dup2\n      mstore\n      0x20\n      add\n      swap1\n      dup2\n      mstore\n      0x20\n      add\n      0x00\n      keccak256\n        /* \"contracts/stake_reward_MLM.sol\":9807:9842  DUSDinvestor[msg.sender].investment */\n      0x00\n      add\n        /* \"contracts/stake_reward_MLM.sol\":9807:9845  DUSDinvestor[msg.sender].investment[i] */\n      0x00\n        /* \"contracts/stake_reward_MLM.sol\":9843:9844  i */\n      dup3\n        /* \"contracts/stake_reward_MLM.sol\":9807:9845  DUSDinvestor[msg.sender].investment[i] */\n      dup2\n      mstore\n      0x20\n      add\n      swap1\n      dup2\n      mstore\n      0x20\n      add\n      0x00\n      keccak256\n        /* \"contracts/stake_reward_MLM.sol\":9784:9845  Invested[currentIndex]=DUSDinvestor[msg.sender].investment[i] */\n      mload(0x40)\n      dup1\n      0xc0\n      add\n      0x40\n      mstore\n      swap1\n      dup2\n      0x00\n      dup3\n      add\n      sload\n      dup2\n      mstore\n      0x20\n      add\n      0x01\n      dup3\n      add\n      sload\n      dup2\n      mstore\n      0x20\n      add\n      0x02\n      dup3\n      add\n      sload\n      dup2\n      mstore\n      0x20\n      add\n      0x03\n      dup3\n      add\n      sload\n      dup2\n      mstore\n      0x20\n      add\n      0x04\n      dup3\n      add\n      sload\n      dup2\n      mstore\n      0x20\n      add\n      0x05\n      dup3\n      add\n      0x00\n      swap1\n      sload\n      swap1\n      0x0100\n      exp\n      swap1\n      div\n      0xff\n      and\n      iszero\n      iszero\n      iszero\n      iszero\n      dup2\n      mstore\n      pop\n      pop\n        /* \"contracts/stake_reward_MLM.sol\":9784:9792  Invested */\n      dup3\n        /* \"contracts/stake_reward_MLM.sol\":9793:9805  currentIndex */\n      dup5\n        /* \"contracts/stake_reward_MLM.sol\":9784:9806  Invested[currentIndex] */\n      dup2\n      mload\n      dup2\n      lt\n      tag_170\n      jumpi\n      tag_171\n      tag_172\n      jump\t// in\n    tag_171:\n    tag_170:\n      0x20\n      mul\n      0x20\n      add\n      add\n        /* \"contracts/stake_reward_MLM.sol\":9784:9845  Invested[currentIndex]=DUSDinvestor[msg.sender].investment[i] */\n      dup2\n      swap1\n      mstore\n      pop\n        /* \"contracts/stake_reward_MLM.sol\":9866:9880  currentIndex++ */\n      dup3\n      dup1\n      tag_173\n      swap1\n      tag_127\n      jump\t// in\n    tag_173:\n      swap4\n      pop\n      pop\n        /* \"contracts/stake_reward_MLM.sol\":9606:9898  if( DUSDinvestor[msg.sender].investment[i].investedAmount > 0 ){... */\n    tag_169:\n        /* \"contracts/stake_reward_MLM.sol\":9572:9575  i++ */\n      dup1\n      dup1\n      tag_174\n      swap1\n      tag_127\n      jump\t// in\n    tag_174:\n      swap2\n      pop\n      pop\n        /* \"contracts/stake_reward_MLM.sol\":9553:9913  for(uint i=0;i<num;i++)... */\n      jump(tag_166)\n    tag_167:\n      pop\n        /* \"contracts/stake_reward_MLM.sol\":9933:9941  Invested */\n      dup1\n        /* \"contracts/stake_reward_MLM.sol\":9926:9941  return Invested */\n      swap5\n      pop\n      pop\n      pop\n      pop\n      pop\n        /* \"contracts/stake_reward_MLM.sol\":8970:9953  function getAllDUSDinvestments() public view returns (allInvestments[] memory) { //this function will return the all investments of the investor and withware date... */\n      swap1\n      jump\t// out\n        /* \"contracts/stake_reward_MLM.sol\":5592:6686  function getReward() view public returns(uint){ //this function is get the total reward balance of the investor... */\n    tag_56:\n        /* \"contracts/stake_reward_MLM.sol\":5633:5637  uint */\n      0x00\n        /* \"contracts/stake_reward_MLM.sol\":5716:5732  uint totalReward */\n      dup1\n        /* \"contracts/stake_reward_MLM.sol\":5746:5758  uint depTime */\n      0x00\n        /* \"contracts/stake_reward_MLM.sol\":5772:5780  uint rew */\n      dup1\n        /* \"contracts/stake_reward_MLM.sol\":5794:5803  uint temp */\n      0x00\n        /* \"contracts/stake_reward_MLM.sol\":5806:5818  DUSDinvestor */\n      0x0b\n        /* \"contracts/stake_reward_MLM.sol\":5806:5830  DUSDinvestor[msg.sender] */\n      0x00\n        /* \"contracts/stake_reward_MLM.sol\":5819:5829  msg.sender */\n      caller\n        /* \"contracts/stake_reward_MLM.sol\":5806:5830  DUSDinvestor[msg.sender] */\n      0xffffffffffffffffffffffffffffffffffffffff\n      and\n      0xffffffffffffffffffffffffffffffffffffffff\n      and\n      dup2\n      mstore\n      0x20\n      add\n      swap1\n      dup2\n      mstore\n      0x20\n      add\n      0x00\n      keccak256\n        /* \"contracts/stake_reward_MLM.sol\":5806:5845  DUSDinvestor[msg.sender].noOfInvestment */\n      0x05\n      add\n      sload\n        /* \"contracts/stake_reward_MLM.sol\":5794:5845  uint temp = DUSDinvestor[msg.sender].noOfInvestment */\n      swap1\n      pop\n        /* \"contracts/stake_reward_MLM.sol\":5864:5870  uint i */\n      0x00\n        /* \"contracts/stake_reward_MLM.sol\":5859:6569  for( uint i = 0;i < temp;i++)... */\n    tag_176:\n        /* \"contracts/stake_reward_MLM.sol\":5879:5883  temp */\n      dup2\n        /* \"contracts/stake_reward_MLM.sol\":5875:5876  i */\n      dup2\n        /* \"contracts/stake_reward_MLM.sol\":5875:5883  i < temp */\n      lt\n        /* \"contracts/stake_reward_MLM.sol\":5859:6569  for( uint i = 0;i < temp;i++)... */\n      iszero\n      tag_177\n      jumpi\n        /* \"contracts/stake_reward_MLM.sol\":5926:5938  DUSDinvestor */\n      0x0b\n        /* \"contracts/stake_reward_MLM.sol\":5926:5950  DUSDinvestor[msg.sender] */\n      0x00\n        /* \"contracts/stake_reward_MLM.sol\":5939:5949  msg.sender */\n      caller\n        /* \"contracts/stake_reward_MLM.sol\":5926:5950  DUSDinvestor[msg.sender] */\n      0xffffffffffffffffffffffffffffffffffffffff\n      and\n      0xffffffffffffffffffffffffffffffffffffffff\n      and\n      dup2\n      mstore\n      0x20\n      add\n      swap1\n      dup2\n      mstore\n      0x20\n      add\n      0x00\n      keccak256\n        /* \"contracts/stake_reward_MLM.sol\":5926:5961  DUSDinvestor[msg.sender].investment */\n      0x00\n      add\n        /* \"contracts/stake_reward_MLM.sol\":5926:5964  DUSDinvestor[msg.sender].investment[i] */\n      0x00\n        /* \"contracts/stake_reward_MLM.sol\":5962:5963  i */\n      dup3\n        /* \"contracts/stake_reward_MLM.sol\":5926:5964  DUSDinvestor[msg.sender].investment[i] */\n      dup2\n      mstore\n      0x20\n      add\n      swap1\n      dup2\n      mstore\n      0x20\n      add\n      0x00\n      keccak256\n        /* \"contracts/stake_reward_MLM.sol\":5926:5972  DUSDinvestor[msg.sender].investment[i].unstake */\n      0x05\n      add\n      0x00\n      swap1\n      sload\n      swap1\n      0x0100\n      exp\n      swap1\n      div\n      0xff\n      and\n        /* \"contracts/stake_reward_MLM.sol\":5922:6282  if(!DUSDinvestor[msg.sender].investment[i].unstake)... */\n      tag_179\n      jumpi\n        /* \"contracts/stake_reward_MLM.sol\":6039:6051  DUSDinvestor */\n      0x0b\n        /* \"contracts/stake_reward_MLM.sol\":6039:6063  DUSDinvestor[msg.sender] */\n      0x00\n        /* \"contracts/stake_reward_MLM.sol\":6052:6062  msg.sender */\n      caller\n        /* \"contracts/stake_reward_MLM.sol\":6039:6063  DUSDinvestor[msg.sender] */\n      0xffffffffffffffffffffffffffffffffffffffff\n      and\n      0xffffffffffffffffffffffffffffffffffffffff\n      and\n      dup2\n      mstore\n      0x20\n      add\n      swap1\n      dup2\n      mstore\n      0x20\n      add\n      0x00\n      keccak256\n        /* \"contracts/stake_reward_MLM.sol\":6039:6074  DUSDinvestor[msg.sender].investment */\n      0x00\n      add\n        /* \"contracts/stake_reward_MLM.sol\":6039:6077  DUSDinvestor[msg.sender].investment[i] */\n      0x00\n        /* \"contracts/stake_reward_MLM.sol\":6075:6076  i */\n      dup3\n        /* \"contracts/stake_reward_MLM.sol\":6039:6077  DUSDinvestor[msg.sender].investment[i] */\n      dup2\n      mstore\n      0x20\n      add\n      swap1\n      dup2\n      mstore\n      0x20\n      add\n      0x00\n      keccak256\n        /* \"contracts/stake_reward_MLM.sol\":6039:6089  DUSDinvestor[msg.sender].investment[i].DepositTime */\n      0x02\n      add\n      sload\n        /* \"contracts/stake_reward_MLM.sol\":6021:6036  block.timestamp */\n      timestamp\n        /* \"contracts/stake_reward_MLM.sol\":6021:6089  block.timestamp - DUSDinvestor[msg.sender].investment[i].DepositTime */\n      tag_180\n      swap2\n      swap1\n      tag_181\n      jump\t// in\n    tag_180:\n        /* \"contracts/stake_reward_MLM.sol\":6012:6089  depTime =block.timestamp - DUSDinvestor[msg.sender].investment[i].DepositTime */\n      swap4\n      pop\n        /* \"contracts/stake_reward_MLM.sol\":5922:6282  if(!DUSDinvestor[msg.sender].investment[i].unstake)... */\n      jump(tag_182)\n    tag_179:\n        /* \"contracts/stake_reward_MLM.sol\":6213:6225  DUSDinvestor */\n      0x0b\n        /* \"contracts/stake_reward_MLM.sol\":6213:6237  DUSDinvestor[msg.sender] */\n      0x00\n        /* \"contracts/stake_reward_MLM.sol\":6226:6236  msg.sender */\n      caller\n        /* \"contracts/stake_reward_MLM.sol\":6213:6237  DUSDinvestor[msg.sender] */\n      0xffffffffffffffffffffffffffffffffffffffff\n      and\n      0xffffffffffffffffffffffffffffffffffffffff\n      and\n      dup2\n      mstore\n      0x20\n      add\n      swap1\n      dup2\n      mstore\n      0x20\n      add\n      0x00\n      keccak256\n        /* \"contracts/stake_reward_MLM.sol\":6213:6248  DUSDinvestor[msg.sender].investment */\n      0x00\n      add\n        /* \"contracts/stake_reward_MLM.sol\":6213:6251  DUSDinvestor[msg.sender].investment[i] */\n      0x00\n        /* \"contracts/stake_reward_MLM.sol\":6249:6250  i */\n      dup3\n        /* \"contracts/stake_reward_MLM.sol\":6213:6251  DUSDinvestor[msg.sender].investment[i] */\n      dup2\n      mstore\n      0x20\n      add\n      swap1\n      dup2\n      mstore\n      0x20\n      add\n      0x00\n      keccak256\n        /* \"contracts/stake_reward_MLM.sol\":6213:6263  DUSDinvestor[msg.sender].investment[i].DepositTime */\n      0x02\n      add\n      sload\n        /* \"contracts/stake_reward_MLM.sol\":6160:6172  DUSDinvestor */\n      0x0b\n        /* \"contracts/stake_reward_MLM.sol\":6160:6184  DUSDinvestor[msg.sender] */\n      0x00\n        /* \"contracts/stake_reward_MLM.sol\":6173:6183  msg.sender */\n      caller\n        /* \"contracts/stake_reward_MLM.sol\":6160:6184  DUSDinvestor[msg.sender] */\n      0xffffffffffffffffffffffffffffffffffffffff\n      and\n      0xffffffffffffffffffffffffffffffffffffffff\n      and\n      dup2\n      mstore\n      0x20\n      add\n      swap1\n      dup2\n      mstore\n      0x20\n      add\n      0x00\n      keccak256\n        /* \"contracts/stake_reward_MLM.sol\":6160:6195  DUSDinvestor[msg.sender].investment */\n      0x00\n      add\n        /* \"contracts/stake_reward_MLM.sol\":6160:6198  DUSDinvestor[msg.sender].investment[i] */\n      0x00\n        /* \"contracts/stake_reward_MLM.sol\":6196:6197  i */\n      dup4\n        /* \"contracts/stake_reward_MLM.sol\":6160:6198  DUSDinvestor[msg.sender].investment[i] */\n      dup2\n      mstore\n      0x20\n      add\n      swap1\n      dup2\n      mstore\n      0x20\n      add\n      0x00\n      keccak256\n        /* \"contracts/stake_reward_MLM.sol\":6160:6210  DUSDinvestor[msg.sender].investment[i].unstakeTime */\n      0x04\n      add\n      sload\n        /* \"contracts/stake_reward_MLM.sol\":6160:6263  DUSDinvestor[msg.sender].investment[i].unstakeTime - DUSDinvestor[msg.sender].investment[i].DepositTime */\n      tag_183\n      swap2\n      swap1\n      tag_181\n      jump\t// in\n    tag_183:\n        /* \"contracts/stake_reward_MLM.sol\":6151:6263  depTime =DUSDinvestor[msg.sender].investment[i].unstakeTime - DUSDinvestor[msg.sender].investment[i].DepositTime */\n      swap4\n      pop\n        /* \"contracts/stake_reward_MLM.sol\":5922:6282  if(!DUSDinvestor[msg.sender].investment[i].unstake)... */\n    tag_182:\n        /* \"contracts/stake_reward_MLM.sol\":6315:6320  86400 */\n      0x015180\n        /* \"contracts/stake_reward_MLM.sol\":6307:6314  depTime */\n      dup5\n        /* \"contracts/stake_reward_MLM.sol\":6307:6320  depTime/86400 */\n      tag_184\n      swap2\n      swap1\n      tag_185\n      jump\t// in\n    tag_184:\n        /* \"contracts/stake_reward_MLM.sol\":6299:6320  depTime=depTime/86400 */\n      swap4\n      pop\n        /* \"contracts/stake_reward_MLM.sol\":6357:6358  0 */\n      0x00\n        /* \"contracts/stake_reward_MLM.sol\":6349:6356  depTime */\n      dup5\n        /* \"contracts/stake_reward_MLM.sol\":6349:6358  depTime>0 */\n      gt\n        /* \"contracts/stake_reward_MLM.sol\":6346:6555  if(depTime>0)... */\n      iszero\n      tag_186\n      jumpi\n        /* \"contracts/stake_reward_MLM.sol\":6475:6486  denomenator */\n      sload(0x07)\n        /* \"contracts/stake_reward_MLM.sol\":6462:6473  rewardToken */\n      sload(0x04)\n        /* \"contracts/stake_reward_MLM.sol\":6407:6419  DUSDinvestor */\n      0x0b\n        /* \"contracts/stake_reward_MLM.sol\":6407:6431  DUSDinvestor[msg.sender] */\n      0x00\n        /* \"contracts/stake_reward_MLM.sol\":6420:6430  msg.sender */\n      caller\n        /* \"contracts/stake_reward_MLM.sol\":6407:6431  DUSDinvestor[msg.sender] */\n      0xffffffffffffffffffffffffffffffffffffffff\n      and\n      0xffffffffffffffffffffffffffffffffffffffff\n      and\n      dup2\n      mstore\n      0x20\n      add\n      swap1\n      dup2\n      mstore\n      0x20\n      add\n      0x00\n      keccak256\n        /* \"contracts/stake_reward_MLM.sol\":6407:6442  DUSDinvestor[msg.sender].investment */\n      0x00\n      add\n        /* \"contracts/stake_reward_MLM.sol\":6407:6445  DUSDinvestor[msg.sender].investment[i] */\n      0x00\n        /* \"contracts/stake_reward_MLM.sol\":6443:6444  i */\n      dup5\n        /* \"contracts/stake_reward_MLM.sol\":6407:6445  DUSDinvestor[msg.sender].investment[i] */\n      dup2\n      mstore\n      0x20\n      add\n      swap1\n      dup2\n      mstore\n      0x20\n      add\n      0x00\n      keccak256\n        /* \"contracts/stake_reward_MLM.sol\":6407:6460  DUSDinvestor[msg.sender].investment[i].investedAmount */\n      0x00\n      add\n      sload\n        /* \"contracts/stake_reward_MLM.sol\":6406:6473  (DUSDinvestor[msg.sender].investment[i].investedAmount)*rewardToken */\n      tag_187\n      swap2\n      swap1\n      tag_136\n      jump\t// in\n    tag_187:\n        /* \"contracts/stake_reward_MLM.sol\":6405:6486  ((DUSDinvestor[msg.sender].investment[i].investedAmount)*rewardToken)/denomenator */\n      tag_188\n      swap2\n      swap1\n      tag_185\n      jump\t// in\n    tag_188:\n        /* \"contracts/stake_reward_MLM.sol\":6398:6486  rew  = ((DUSDinvestor[msg.sender].investment[i].investedAmount)*rewardToken)/denomenator */\n      swap3\n      pop\n        /* \"contracts/stake_reward_MLM.sol\":6533:6536  rew */\n      dup3\n        /* \"contracts/stake_reward_MLM.sol\":6523:6530  depTime */\n      dup5\n        /* \"contracts/stake_reward_MLM.sol\":6523:6536  depTime * rew */\n      tag_189\n      swap2\n      swap1\n      tag_136\n      jump\t// in\n    tag_189:\n        /* \"contracts/stake_reward_MLM.sol\":6508:6536  totalReward += depTime * rew */\n      dup6\n      tag_190\n      swap2\n      swap1\n      tag_130\n      jump\t// in\n    tag_190:\n      swap5\n      pop\n        /* \"contracts/stake_reward_MLM.sol\":6346:6555  if(depTime>0)... */\n    tag_186:\n        /* \"contracts/stake_reward_MLM.sol\":5884:5887  i++ */\n      dup1\n      dup1\n      tag_191\n      swap1\n      tag_127\n      jump\t// in\n    tag_191:\n      swap2\n      pop\n      pop\n        /* \"contracts/stake_reward_MLM.sol\":5859:6569  for( uint i = 0;i < temp;i++)... */\n      jump(tag_176)\n    tag_177:\n      pop\n        /* \"contracts/stake_reward_MLM.sol\":6597:6609  DUSDinvestor */\n      0x0b\n        /* \"contracts/stake_reward_MLM.sol\":6597:6621  DUSDinvestor[msg.sender] */\n      0x00\n        /* \"contracts/stake_reward_MLM.sol\":6610:6620  msg.sender */\n      caller\n        /* \"contracts/stake_reward_MLM.sol\":6597:6621  DUSDinvestor[msg.sender] */\n      0xffffffffffffffffffffffffffffffffffffffff\n      and\n      0xffffffffffffffffffffffffffffffffffffffff\n      and\n      dup2\n      mstore\n      0x20\n      add\n      swap1\n      dup2\n      mstore\n      0x20\n      add\n      0x00\n      keccak256\n        /* \"contracts/stake_reward_MLM.sol\":6597:6642  DUSDinvestor[msg.sender].totalWithdraw_reward */\n      0x07\n      add\n      sload\n        /* \"contracts/stake_reward_MLM.sol\":6582:6642  totalReward -= DUSDinvestor[msg.sender].totalWithdraw_reward */\n      dup5\n      tag_192\n      swap2\n      swap1\n      tag_181\n      jump\t// in\n    tag_192:\n      swap4\n      pop\n        /* \"contracts/stake_reward_MLM.sol\":6664:6675  totalReward */\n      dup4\n        /* \"contracts/stake_reward_MLM.sol\":6657:6675  return totalReward */\n      swap5\n      pop\n      pop\n      pop\n      pop\n      pop\n        /* \"contracts/stake_reward_MLM.sol\":5592:6686  function getReward() view public returns(uint){ //this function is get the total reward balance of the investor... */\n      swap1\n      jump\t// out\n        /* \"contracts/stake_reward_MLM.sol\":10787:11069  function set_values(uint min_stake,uint max_stake,uint reward_per_day,uint _denomenator) public ... */\n    tag_61:\n        /* \"contracts/stake_reward_MLM.sol\":10925:10934  max_stake */\n      dup3\n        /* \"contracts/stake_reward_MLM.sol\":10906:10922  max_Stake_amount */\n      0x06\n        /* \"contracts/stake_reward_MLM.sol\":10906:10934  max_Stake_amount = max_stake */\n      dup2\n      swap1\n      sstore\n      pop\n        /* \"contracts/stake_reward_MLM.sol\":10967:10976  min_stake */\n      dup4\n        /* \"contracts/stake_reward_MLM.sol\":10948:10964  min_Stake_amount */\n      0x05\n        /* \"contracts/stake_reward_MLM.sol\":10948:10976  min_Stake_amount = min_stake */\n      dup2\n      swap1\n      sstore\n      pop\n        /* \"contracts/stake_reward_MLM.sol\":11004:11018  reward_per_day */\n      dup2\n        /* \"contracts/stake_reward_MLM.sol\":10990:11001  rewardToken */\n      0x04\n        /* \"contracts/stake_reward_MLM.sol\":10990:11018  rewardToken = reward_per_day */\n      dup2\n      swap1\n      sstore\n      pop\n        /* \"contracts/stake_reward_MLM.sol\":11046:11058  _denomenator */\n      dup1\n        /* \"contracts/stake_reward_MLM.sol\":11032:11043  denomenator */\n      0x07\n        /* \"contracts/stake_reward_MLM.sol\":11032:11058  denomenator = _denomenator */\n      dup2\n      swap1\n      sstore\n      pop\n        /* \"contracts/stake_reward_MLM.sol\":10787:11069  function set_values(uint min_stake,uint max_stake,uint reward_per_day,uint _denomenator) public ... */\n      pop\n      pop\n      pop\n      pop\n      jump\t// out\n        /* \"contracts/stake_reward_MLM.sol\":10667:10778  function set_max_Stake_amount(uint _amount) public ... */\n    tag_64:\n        /* \"contracts/stake_reward_MLM.sol\":10760:10767  _amount */\n      dup1\n        /* \"contracts/stake_reward_MLM.sol\":10741:10757  max_Stake_amount */\n      0x06\n        /* \"contracts/stake_reward_MLM.sol\":10741:10767  max_Stake_amount = _amount */\n      dup2\n      swap1\n      sstore\n      pop\n        /* \"contracts/stake_reward_MLM.sol\":10667:10778  function set_max_Stake_amount(uint _amount) public ... */\n      pop\n      jump\t// out\n        /* \"contracts/stake_reward_MLM.sol\":792:829  uint public investmentPeriod=300 days */\n    tag_66:\n      sload(0x08)\n      dup2\n      jump\t// out\n        /* \"contracts/stake_reward_MLM.sol\":7188:8740  function unStake() external  returns (bool success){... */\n    tag_69:\n        /* \"contracts/stake_reward_MLM.sol\":7226:7238  bool success */\n      0x00\n        /* \"contracts/stake_reward_MLM.sol\":7302:7303  0 */\n      dup1\n        /* \"contracts/stake_reward_MLM.sol\":7261:7273  DUSDinvestor */\n      0x0b\n        /* \"contracts/stake_reward_MLM.sol\":7261:7285  DUSDinvestor[msg.sender] */\n      0x00\n        /* \"contracts/stake_reward_MLM.sol\":7274:7284  msg.sender */\n      caller\n        /* \"contracts/stake_reward_MLM.sol\":7261:7285  DUSDinvestor[msg.sender] */\n      0xffffffffffffffffffffffffffffffffffffffff\n      and\n      0xffffffffffffffffffffffffffffffffffffffff\n      and\n      dup2\n      mstore\n      0x20\n      add\n      swap1\n      dup2\n      mstore\n      0x20\n      add\n      0x00\n      keccak256\n        /* \"contracts/stake_reward_MLM.sol\":7261:7301  DUSDinvestor[msg.sender].totalInvestment */\n      0x06\n      add\n      sload\n        /* \"contracts/stake_reward_MLM.sol\":7261:7303  DUSDinvestor[msg.sender].totalInvestment>0 */\n      gt\n        /* \"contracts/stake_reward_MLM.sol\":7253:7344  require(DUSDinvestor[msg.sender].totalInvestment>0,\"you dont have investment to withdrawn\") */\n      tag_196\n      jumpi\n      mload(0x40)\n      0x08c379a000000000000000000000000000000000000000000000000000000000\n      dup2\n      mstore\n      0x04\n      add\n      tag_197\n      swap1\n      tag_198\n      jump\t// in\n    tag_197:\n      mload(0x40)\n      dup1\n      swap2\n      sub\n      swap1\n      revert\n    tag_196:\n        /* \"contracts/stake_reward_MLM.sol\":7416:7427  uint amount */\n      0x00\n        /* \"contracts/stake_reward_MLM.sol\":7428:7440  DUSDinvestor */\n      0x0b\n        /* \"contracts/stake_reward_MLM.sol\":7428:7452  DUSDinvestor[msg.sender] */\n      0x00\n        /* \"contracts/stake_reward_MLM.sol\":7441:7451  msg.sender */\n      caller\n        /* \"contracts/stake_reward_MLM.sol\":7428:7452  DUSDinvestor[msg.sender] */\n      0xffffffffffffffffffffffffffffffffffffffff\n      and\n      0xffffffffffffffffffffffffffffffffffffffff\n      and\n      dup2\n      mstore\n      0x20\n      add\n      swap1\n      dup2\n      mstore\n      0x20\n      add\n      0x00\n      keccak256\n        /* \"contracts/stake_reward_MLM.sol\":7428:7468  DUSDinvestor[msg.sender].totalInvestment */\n      0x06\n      add\n      sload\n        /* \"contracts/stake_reward_MLM.sol\":7416:7468  uint amount=DUSDinvestor[msg.sender].totalInvestment */\n      swap1\n      pop\n        /* \"contracts/stake_reward_MLM.sol\":7482:7491  uint temp */\n      0x00\n        /* \"contracts/stake_reward_MLM.sol\":7494:7506  DUSDinvestor */\n      0x0b\n        /* \"contracts/stake_reward_MLM.sol\":7494:7518  DUSDinvestor[msg.sender] */\n      0x00\n        /* \"contracts/stake_reward_MLM.sol\":7507:7517  msg.sender */\n      caller\n        /* \"contracts/stake_reward_MLM.sol\":7494:7518  DUSDinvestor[msg.sender] */\n      0xffffffffffffffffffffffffffffffffffffffff\n      and\n      0xffffffffffffffffffffffffffffffffffffffff\n      and\n      dup2\n      mstore\n      0x20\n      add\n      swap1\n      dup2\n      mstore\n      0x20\n      add\n      0x00\n      keccak256\n        /* \"contracts/stake_reward_MLM.sol\":7494:7533  DUSDinvestor[msg.sender].noOfInvestment */\n      0x05\n      add\n      sload\n        /* \"contracts/stake_reward_MLM.sol\":7482:7533  uint temp = DUSDinvestor[msg.sender].noOfInvestment */\n      swap1\n      pop\n        /* \"contracts/stake_reward_MLM.sol\":7547:7556  uint from */\n      0x00\n        /* \"contracts/stake_reward_MLM.sol\":7559:7572  rew_till_done */\n      sload(0x0a)\n        /* \"contracts/stake_reward_MLM.sol\":7547:7572  uint from = rew_till_done */\n      swap1\n      pop\n        /* \"contracts/stake_reward_MLM.sol\":7586:7599  uint amount30 */\n      0x00\n        /* \"contracts/stake_reward_MLM.sol\":7613:7626  uint amount70 */\n      dup1\n        /* \"contracts/stake_reward_MLM.sol\":7680:7695  block.timestamp */\n      timestamp\n        /* \"contracts/stake_reward_MLM.sol\":7643:7655  DUSDinvestor */\n      0x0b\n        /* \"contracts/stake_reward_MLM.sol\":7643:7667  DUSDinvestor[msg.sender] */\n      0x00\n        /* \"contracts/stake_reward_MLM.sol\":7656:7666  msg.sender */\n      caller\n        /* \"contracts/stake_reward_MLM.sol\":7643:7667  DUSDinvestor[msg.sender] */\n      0xffffffffffffffffffffffffffffffffffffffff\n      and\n      0xffffffffffffffffffffffffffffffffffffffff\n      and\n      dup2\n      mstore\n      0x20\n      add\n      swap1\n      dup2\n      mstore\n      0x20\n      add\n      0x00\n      keccak256\n        /* \"contracts/stake_reward_MLM.sol\":7643:7677  DUSDinvestor[msg.sender].stakeTime */\n      0x09\n      add\n      sload\n        /* \"contracts/stake_reward_MLM.sol\":7643:7695  DUSDinvestor[msg.sender].stakeTime > block.timestamp */\n      gt\n        /* \"contracts/stake_reward_MLM.sol\":7640:8196  if(DUSDinvestor[msg.sender].stakeTime > block.timestamp)... */\n      iszero\n      tag_199\n      jumpi\n        /* \"contracts/stake_reward_MLM.sol\":7750:7753  100 */\n      0x64\n        /* \"contracts/stake_reward_MLM.sol\":7746:7748  30 */\n      0x1e\n        /* \"contracts/stake_reward_MLM.sol\":7739:7745  amount */\n      dup7\n        /* \"contracts/stake_reward_MLM.sol\":7739:7748  amount*30 */\n      tag_200\n      swap2\n      swap1\n      tag_136\n      jump\t// in\n    tag_200:\n        /* \"contracts/stake_reward_MLM.sol\":7738:7753  (amount*30)/100 */\n      tag_201\n      swap2\n      swap1\n      tag_185\n      jump\t// in\n    tag_201:\n        /* \"contracts/stake_reward_MLM.sol\":7727:7753  amount30 = (amount*30)/100 */\n      swap2\n      pop\n        /* \"contracts/stake_reward_MLM.sol\":7794:7797  100 */\n      0x64\n        /* \"contracts/stake_reward_MLM.sol\":7790:7792  70 */\n      0x46\n        /* \"contracts/stake_reward_MLM.sol\":7783:7789  amount */\n      dup7\n        /* \"contracts/stake_reward_MLM.sol\":7783:7792  amount*70 */\n      tag_202\n      swap2\n      swap1\n      tag_136\n      jump\t// in\n    tag_202:\n        /* \"contracts/stake_reward_MLM.sol\":7782:7797  (amount*70)/100 */\n      tag_203\n      swap2\n      swap1\n      tag_185\n      jump\t// in\n    tag_203:\n        /* \"contracts/stake_reward_MLM.sol\":7771:7797  amount70 = (amount*70)/100 */\n      swap1\n      pop\n        /* \"contracts/stake_reward_MLM.sol\":7820:7831  SMCcontract */\n      0x01\n      0x00\n      swap1\n      sload\n      swap1\n      0x0100\n      exp\n      swap1\n      div\n      0xffffffffffffffffffffffffffffffffffffffff\n      and\n        /* \"contracts/stake_reward_MLM.sol\":7815:7841  DUSD(SMCcontract).transfer */\n      0xffffffffffffffffffffffffffffffffffffffff\n      and\n      0xa9059cbb\n        /* \"contracts/stake_reward_MLM.sol\":7842:7852  msg.sender */\n      caller\n        /* \"contracts/stake_reward_MLM.sol\":7864:7869  10**8 */\n      0x05f5e100\n        /* \"contracts/stake_reward_MLM.sol\":7853:7861  amount30 */\n      dup6\n        /* \"contracts/stake_reward_MLM.sol\":7853:7869  amount30 * 10**8 */\n      tag_204\n      swap2\n      swap1\n      tag_136\n      jump\t// in\n    tag_204:\n        /* \"contracts/stake_reward_MLM.sol\":7815:7870  DUSD(SMCcontract).transfer(msg.sender,amount30 * 10**8) */\n      mload(0x40)\n      dup4\n      0xffffffff\n      and\n      0xe0\n      shl\n      dup2\n      mstore\n      0x04\n      add\n      tag_205\n      swap3\n      swap2\n      swap1\n      tag_206\n      jump\t// in\n    tag_205:\n      0x20\n      mload(0x40)\n      dup1\n      dup4\n      sub\n      dup2\n      0x00\n      dup8\n      dup1\n      extcodesize\n      iszero\n      dup1\n      iszero\n      tag_207\n      jumpi\n      0x00\n      dup1\n      revert\n    tag_207:\n      pop\n      gas\n      call\n      iszero\n      dup1\n      iszero\n      tag_209\n      jumpi\n      returndatasize\n      0x00\n      dup1\n      returndatacopy\n      revert(0x00, returndatasize)\n    tag_209:\n      pop\n      pop\n      pop\n      pop\n      mload(0x40)\n      returndatasize\n      not(0x1f)\n      0x1f\n      dup3\n      add\n      and\n      dup3\n      add\n      dup1\n      0x40\n      mstore\n      pop\n      dup2\n      add\n      swap1\n      tag_210\n      swap2\n      swap1\n      tag_143\n      jump\t// in\n    tag_210:\n      pop\n        /* \"contracts/stake_reward_MLM.sol\":7961:7972  SMCcontract */\n      0x01\n      0x00\n      swap1\n      sload\n      swap1\n      0x0100\n      exp\n      swap1\n      div\n      0xffffffffffffffffffffffffffffffffffffffff\n      and\n        /* \"contracts/stake_reward_MLM.sol\":7956:7982  DUSD(SMCcontract).transfer */\n      0xffffffffffffffffffffffffffffffffffffffff\n      and\n      0xa9059cbb\n        /* \"contracts/stake_reward_MLM.sol\":7983:7988  owner */\n      0x00\n      dup1\n      sload\n      swap1\n      0x0100\n      exp\n      swap1\n      div\n      0xffffffffffffffffffffffffffffffffffffffff\n      and\n        /* \"contracts/stake_reward_MLM.sol\":8000:8005  10**8 */\n      0x05f5e100\n        /* \"contracts/stake_reward_MLM.sol\":7989:7997  amount70 */\n      dup5\n        /* \"contracts/stake_reward_MLM.sol\":7989:8005  amount70 * 10**8 */\n      tag_211\n      swap2\n      swap1\n      tag_136\n      jump\t// in\n    tag_211:\n        /* \"contracts/stake_reward_MLM.sol\":7956:8006  DUSD(SMCcontract).transfer(owner,amount70 * 10**8) */\n      mload(0x40)\n      dup4\n      0xffffffff\n      and\n      0xe0\n      shl\n      dup2\n      mstore\n      0x04\n      add\n      tag_212\n      swap3\n      swap2\n      swap1\n      tag_206\n      jump\t// in\n    tag_212:\n      0x20\n      mload(0x40)\n      dup1\n      dup4\n      sub\n      dup2\n      0x00\n      dup8\n      dup1\n      extcodesize\n      iszero\n      dup1\n      iszero\n      tag_213\n      jumpi\n      0x00\n      dup1\n      revert\n    tag_213:\n      pop\n      gas\n      call\n      iszero\n      dup1\n      iszero\n      tag_215\n      jumpi\n      returndatasize\n      0x00\n      dup1\n      returndatacopy\n      revert(0x00, returndatasize)\n    tag_215:\n      pop\n      pop\n      pop\n      pop\n      mload(0x40)\n      returndatasize\n      not(0x1f)\n      0x1f\n      dup3\n      add\n      and\n      dup3\n      add\n      dup1\n      0x40\n      mstore\n      pop\n      dup2\n      add\n      swap1\n      tag_216\n      swap2\n      swap1\n      tag_143\n      jump\t// in\n    tag_216:\n      pop\n        /* \"contracts/stake_reward_MLM.sol\":7640:8196  if(DUSDinvestor[msg.sender].stakeTime > block.timestamp)... */\n      jump(tag_217)\n    tag_199:\n        /* \"contracts/stake_reward_MLM.sol\":8066:8077  SMCcontract */\n      0x01\n      0x00\n      swap1\n      sload\n      swap1\n      0x0100\n      exp\n      swap1\n      div\n      0xffffffffffffffffffffffffffffffffffffffff\n      and\n        /* \"contracts/stake_reward_MLM.sol\":8061:8087  DUSD(SMCcontract).transfer */\n      0xffffffffffffffffffffffffffffffffffffffff\n      and\n      0xa9059cbb\n        /* \"contracts/stake_reward_MLM.sol\":8088:8098  msg.sender */\n      caller\n        /* \"contracts/stake_reward_MLM.sol\":8107:8112  10**8 */\n      0x05f5e100\n        /* \"contracts/stake_reward_MLM.sol\":8099:8105  amount */\n      dup9\n        /* \"contracts/stake_reward_MLM.sol\":8099:8112  amount* 10**8 */\n      tag_218\n      swap2\n      swap1\n      tag_136\n      jump\t// in\n    tag_218:\n        /* \"contracts/stake_reward_MLM.sol\":8061:8113  DUSD(SMCcontract).transfer(msg.sender,amount* 10**8) */\n      mload(0x40)\n      dup4\n      0xffffffff\n      and\n      0xe0\n      shl\n      dup2\n      mstore\n      0x04\n      add\n      tag_219\n      swap3\n      swap2\n      swap1\n      tag_206\n      jump\t// in\n    tag_219:\n      0x20\n      mload(0x40)\n      dup1\n      dup4\n      sub\n      dup2\n      0x00\n      dup8\n      dup1\n      extcodesize\n      iszero\n      dup1\n      iszero\n      tag_220\n      jumpi\n      0x00\n      dup1\n      revert\n    tag_220:\n      pop\n      gas\n      call\n      iszero\n      dup1\n      iszero\n      tag_222\n      jumpi\n      returndatasize\n      0x00\n      dup1\n      returndatacopy\n      revert(0x00, returndatasize)\n    tag_222:\n      pop\n      pop\n      pop\n      pop\n      mload(0x40)\n      returndatasize\n      not(0x1f)\n      0x1f\n      dup3\n      add\n      and\n      dup3\n      add\n      dup1\n      0x40\n      mstore\n      pop\n      dup2\n      add\n      swap1\n      tag_223\n      swap2\n      swap1\n      tag_143\n      jump\t// in\n    tag_223:\n      pop\n        /* \"contracts/stake_reward_MLM.sol\":7640:8196  if(DUSDinvestor[msg.sender].stakeTime > block.timestamp)... */\n    tag_217:\n        /* \"contracts/stake_reward_MLM.sol\":8219:8220  0 */\n      0x00\n        /* \"contracts/stake_reward_MLM.sol\":8214:8220  from=0 */\n      swap3\n      pop\n        /* \"contracts/stake_reward_MLM.sol\":8209:8471  for( from=0;from < temp;from++)... */\n    tag_224:\n        /* \"contracts/stake_reward_MLM.sol\":8228:8232  temp */\n      dup4\n        /* \"contracts/stake_reward_MLM.sol\":8221:8225  from */\n      dup4\n        /* \"contracts/stake_reward_MLM.sol\":8221:8232  from < temp */\n      lt\n        /* \"contracts/stake_reward_MLM.sol\":8209:8471  for( from=0;from < temp;from++)... */\n      iszero\n      tag_225\n      jumpi\n        /* \"contracts/stake_reward_MLM.sol\":8325:8329  true */\n      0x01\n        /* \"contracts/stake_reward_MLM.sol\":8274:8286  DUSDinvestor */\n      0x0b\n        /* \"contracts/stake_reward_MLM.sol\":8274:8298  DUSDinvestor[msg.sender] */\n      0x00\n        /* \"contracts/stake_reward_MLM.sol\":8287:8297  msg.sender */\n      caller\n        /* \"contracts/stake_reward_MLM.sol\":8274:8298  DUSDinvestor[msg.sender] */\n      0xffffffffffffffffffffffffffffffffffffffff\n      and\n      0xffffffffffffffffffffffffffffffffffffffff\n      and\n      dup2\n      mstore\n      0x20\n      add\n      swap1\n      dup2\n      mstore\n      0x20\n      add\n      0x00\n      keccak256\n        /* \"contracts/stake_reward_MLM.sol\":8274:8309  DUSDinvestor[msg.sender].investment */\n      0x00\n      add\n        /* \"contracts/stake_reward_MLM.sol\":8274:8315  DUSDinvestor[msg.sender].investment[from] */\n      0x00\n        /* \"contracts/stake_reward_MLM.sol\":8310:8314  from */\n      dup6\n        /* \"contracts/stake_reward_MLM.sol\":8274:8315  DUSDinvestor[msg.sender].investment[from] */\n      dup2\n      mstore\n      0x20\n      add\n      swap1\n      dup2\n      mstore\n      0x20\n      add\n      0x00\n      keccak256\n        /* \"contracts/stake_reward_MLM.sol\":8274:8323  DUSDinvestor[msg.sender].investment[from].unstake */\n      0x05\n      add\n      0x00\n        /* \"contracts/stake_reward_MLM.sol\":8274:8329  DUSDinvestor[msg.sender].investment[from].unstake =true */\n      0x0100\n      exp\n      dup2\n      sload\n      dup2\n      0xff\n      mul\n      not\n      and\n      swap1\n      dup4\n      iszero\n      iszero\n      mul\n      or\n      swap1\n      sstore\n      pop\n        /* \"contracts/stake_reward_MLM.sol\":8406:8421  block.timestamp */\n      timestamp\n        /* \"contracts/stake_reward_MLM.sol\":8351:8363  DUSDinvestor */\n      0x0b\n        /* \"contracts/stake_reward_MLM.sol\":8351:8375  DUSDinvestor[msg.sender] */\n      0x00\n        /* \"contracts/stake_reward_MLM.sol\":8364:8374  msg.sender */\n      caller\n        /* \"contracts/stake_reward_MLM.sol\":8351:8375  DUSDinvestor[msg.sender] */\n      0xffffffffffffffffffffffffffffffffffffffff\n      and\n      0xffffffffffffffffffffffffffffffffffffffff\n      and\n      dup2\n      mstore\n      0x20\n      add\n      swap1\n      dup2\n      mstore\n      0x20\n      add\n      0x00\n      keccak256\n        /* \"contracts/stake_reward_MLM.sol\":8351:8386  DUSDinvestor[msg.sender].investment */\n      0x00\n      add\n        /* \"contracts/stake_reward_MLM.sol\":8351:8392  DUSDinvestor[msg.sender].investment[from] */\n      0x00\n        /* \"contracts/stake_reward_MLM.sol\":8387:8391  from */\n      dup6\n        /* \"contracts/stake_reward_MLM.sol\":8351:8392  DUSDinvestor[msg.sender].investment[from] */\n      dup2\n      mstore\n      0x20\n      add\n      swap1\n      dup2\n      mstore\n      0x20\n      add\n      0x00\n      keccak256\n        /* \"contracts/stake_reward_MLM.sol\":8351:8404  DUSDinvestor[msg.sender].investment[from].unstakeTime */\n      0x04\n      add\n        /* \"contracts/stake_reward_MLM.sol\":8351:8421  DUSDinvestor[msg.sender].investment[from].unstakeTime =block.timestamp */\n      dup2\n      swap1\n      sstore\n      pop\n        /* \"contracts/stake_reward_MLM.sol\":8233:8239  from++ */\n      dup3\n      dup1\n      tag_227\n      swap1\n      tag_127\n      jump\t// in\n    tag_227:\n      swap4\n      pop\n      pop\n        /* \"contracts/stake_reward_MLM.sol\":8209:8471  for( from=0;from < temp;from++)... */\n      jump(tag_224)\n    tag_225:\n        /* \"contracts/stake_reward_MLM.sol\":8499:8511  DUSDinvestor */\n      0x0b\n        /* \"contracts/stake_reward_MLM.sol\":8499:8523  DUSDinvestor[msg.sender] */\n      0x00\n        /* \"contracts/stake_reward_MLM.sol\":8512:8522  msg.sender */\n      caller\n        /* \"contracts/stake_reward_MLM.sol\":8499:8523  DUSDinvestor[msg.sender] */\n      0xffffffffffffffffffffffffffffffffffffffff\n      and\n      0xffffffffffffffffffffffffffffffffffffffff\n      and\n      dup2\n      mstore\n      0x20\n      add\n      swap1\n      dup2\n      mstore\n      0x20\n      add\n      0x00\n      keccak256\n        /* \"contracts/stake_reward_MLM.sol\":8499:8538  DUSDinvestor[msg.sender].noOfInvestment */\n      0x05\n      add\n      sload\n        /* \"contracts/stake_reward_MLM.sol\":8484:8497  rew_till_done */\n      0x0a\n        /* \"contracts/stake_reward_MLM.sol\":8484:8538  rew_till_done =DUSDinvestor[msg.sender].noOfInvestment */\n      dup2\n      swap1\n      sstore\n      pop\n        /* \"contracts/stake_reward_MLM.sol\":8632:8633  0 */\n      0x00\n        /* \"contracts/stake_reward_MLM.sol\":8591:8603  DUSDinvestor */\n      0x0b\n        /* \"contracts/stake_reward_MLM.sol\":8591:8615  DUSDinvestor[msg.sender] */\n      0x00\n        /* \"contracts/stake_reward_MLM.sol\":8604:8614  msg.sender */\n      caller\n        /* \"contracts/stake_reward_MLM.sol\":8591:8615  DUSDinvestor[msg.sender] */\n      0xffffffffffffffffffffffffffffffffffffffff\n      and\n      0xffffffffffffffffffffffffffffffffffffffff\n      and\n      dup2\n      mstore\n      0x20\n      add\n      swap1\n      dup2\n      mstore\n      0x20\n      add\n      0x00\n      keccak256\n        /* \"contracts/stake_reward_MLM.sol\":8591:8631  DUSDinvestor[msg.sender].totalInvestment */\n      0x06\n      add\n        /* \"contracts/stake_reward_MLM.sol\":8591:8633  DUSDinvestor[msg.sender].totalInvestment=0 */\n      dup2\n      swap1\n      sstore\n      pop\n        /* \"contracts/stake_reward_MLM.sol\":8724:8728  true */\n      0x01\n        /* \"contracts/stake_reward_MLM.sol\":8717:8728  return true */\n      swap6\n      pop\n      pop\n      pop\n      pop\n      pop\n      pop\n        /* \"contracts/stake_reward_MLM.sol\":7188:8740  function unStake() external  returns (bool success){... */\n      swap1\n      jump\t// out\n        /* \"contracts/stake_reward_MLM.sol\":300:321  address  public owner */\n    tag_72:\n      0x00\n      dup1\n      sload\n      swap1\n      0x0100\n      exp\n      swap1\n      div\n      0xffffffffffffffffffffffffffffffffffffffff\n      and\n      dup2\n      jump\t// out\n        /* \"contracts/stake_reward_MLM.sol\":8750:8960  function getTotalInvestmentDUSD() public view returns(uint) {   //this function is to get the total investment of the ivestor... */\n    tag_76:\n        /* \"contracts/stake_reward_MLM.sol\":8804:8808  uint */\n      0x00\n        /* \"contracts/stake_reward_MLM.sol\":8908:8920  DUSDinvestor */\n      0x0b\n        /* \"contracts/stake_reward_MLM.sol\":8908:8932  DUSDinvestor[msg.sender] */\n      0x00\n        /* \"contracts/stake_reward_MLM.sol\":8921:8931  msg.sender */\n      caller\n        /* \"contracts/stake_reward_MLM.sol\":8908:8932  DUSDinvestor[msg.sender] */\n      0xffffffffffffffffffffffffffffffffffffffff\n      and\n      0xffffffffffffffffffffffffffffffffffffffff\n      and\n      dup2\n      mstore\n      0x20\n      add\n      swap1\n      dup2\n      mstore\n      0x20\n      add\n      0x00\n      keccak256\n        /* \"contracts/stake_reward_MLM.sol\":8908:8948  DUSDinvestor[msg.sender].totalInvestment */\n      0x06\n      add\n      sload\n        /* \"contracts/stake_reward_MLM.sol\":8901:8948  return DUSDinvestor[msg.sender].totalInvestment */\n      swap1\n      pop\n        /* \"contracts/stake_reward_MLM.sol\":8750:8960  function getTotalInvestmentDUSD() public view returns(uint) {   //this function is to get the total investment of the ivestor... */\n      swap1\n      jump\t// out\n        /* \"contracts/stake_reward_MLM.sol\":724:754  uint public denomenator=100000 */\n    tag_79:\n      sload(0x07)\n      dup2\n      jump\t// out\n        /* \"contracts/stake_reward_MLM.sol\":10384:10538  function setReward(uint _amount,uint _denomenator) public ... */\n    tag_84:\n        /* \"contracts/stake_reward_MLM.sol\":10479:10486  _amount */\n      dup2\n        /* \"contracts/stake_reward_MLM.sol\":10465:10476  rewardToken */\n      0x04\n        /* \"contracts/stake_reward_MLM.sol\":10465:10486  rewardToken = _amount */\n      dup2\n      swap1\n      sstore\n      pop\n        /* \"contracts/stake_reward_MLM.sol\":10514:10526  _denomenator */\n      dup1\n        /* \"contracts/stake_reward_MLM.sol\":10500:10511  denomenator */\n      0x07\n        /* \"contracts/stake_reward_MLM.sol\":10500:10526  denomenator = _denomenator */\n      dup2\n      swap1\n      sstore\n      pop\n        /* \"contracts/stake_reward_MLM.sol\":10384:10538  function setReward(uint _amount,uint _denomenator) public ... */\n      pop\n      pop\n      jump\t// out\n        /* \"contracts/stake_reward_MLM.sol\":11262:11827  function referralLevel_earning() public view returns( uint[] memory arr )... */\n    tag_86:\n        /* \"contracts/stake_reward_MLM.sol\":11316:11333  uint[] memory arr */\n      0x60\n        /* \"contracts/stake_reward_MLM.sol\":11358:11393  uint[] memory referralLevels_reward */\n      0x00\n        /* \"contracts/stake_reward_MLM.sol\":11405:11407  20 */\n      0x14\n        /* \"contracts/stake_reward_MLM.sol\":11394:11408  new uint[](20) */\n      0xffffffffffffffff\n      dup2\n      gt\n      iszero\n      tag_231\n      jumpi\n      tag_232\n      tag_161\n      jump\t// in\n    tag_232:\n    tag_231:\n      mload(0x40)\n      swap1\n      dup1\n      dup3\n      mstore\n      dup1\n      0x20\n      mul\n      0x20\n      add\n      dup3\n      add\n      0x40\n      mstore\n      dup1\n      iszero\n      tag_233\n      jumpi\n      dup2\n      0x20\n      add\n      0x20\n      dup3\n      mul\n      dup1\n      calldatasize\n      dup4\n      calldatacopy\n      dup1\n      dup3\n      add\n      swap2\n      pop\n      pop\n      swap1\n      pop\n    tag_233:\n      pop\n        /* \"contracts/stake_reward_MLM.sol\":11358:11408  uint[] memory referralLevels_reward=new uint[](20) */\n      swap1\n      pop\n        /* \"contracts/stake_reward_MLM.sol\":11426:11432  uint i */\n      0x00\n        /* \"contracts/stake_reward_MLM.sol\":11422:11772  for(uint i=0;i<20;i++)... */\n    tag_234:\n        /* \"contracts/stake_reward_MLM.sol\":11437:11439  20 */\n      0x14\n        /* \"contracts/stake_reward_MLM.sol\":11435:11436  i */\n      dup2\n        /* \"contracts/stake_reward_MLM.sol\":11435:11439  i<20 */\n      lt\n        /* \"contracts/stake_reward_MLM.sol\":11422:11772  for(uint i=0;i<20;i++)... */\n      iszero\n      tag_235\n      jumpi\n        /* \"contracts/stake_reward_MLM.sol\":11527:11528  0 */\n      0x00\n        /* \"contracts/stake_reward_MLM.sol\":11478:11490  DUSDinvestor */\n      0x0b\n        /* \"contracts/stake_reward_MLM.sol\":11478:11502  DUSDinvestor[msg.sender] */\n      0x00\n        /* \"contracts/stake_reward_MLM.sol\":11491:11501  msg.sender */\n      caller\n        /* \"contracts/stake_reward_MLM.sol\":11478:11502  DUSDinvestor[msg.sender] */\n      0xffffffffffffffffffffffffffffffffffffffff\n      and\n      0xffffffffffffffffffffffffffffffffffffffff\n      and\n      dup2\n      mstore\n      0x20\n      add\n      swap1\n      dup2\n      mstore\n      0x20\n      add\n      0x00\n      keccak256\n        /* \"contracts/stake_reward_MLM.sol\":11478:11516  DUSDinvestor[msg.sender].referralLevel */\n      0x03\n      add\n        /* \"contracts/stake_reward_MLM.sol\":11478:11519  DUSDinvestor[msg.sender].referralLevel[i] */\n      0x00\n        /* \"contracts/stake_reward_MLM.sol\":11517:11518  i */\n      dup4\n        /* \"contracts/stake_reward_MLM.sol\":11478:11519  DUSDinvestor[msg.sender].referralLevel[i] */\n      dup2\n      mstore\n      0x20\n      add\n      swap1\n      dup2\n      mstore\n      0x20\n      add\n      0x00\n      keccak256\n        /* \"contracts/stake_reward_MLM.sol\":11478:11526  DUSDinvestor[msg.sender].referralLevel[i].reward */\n      0x00\n      add\n      sload\n        /* \"contracts/stake_reward_MLM.sol\":11478:11528  DUSDinvestor[msg.sender].referralLevel[i].reward>0 */\n      gt\n        /* \"contracts/stake_reward_MLM.sol\":11475:11756  if(DUSDinvestor[msg.sender].referralLevel[i].reward>0)... */\n      iszero\n      tag_237\n      jumpi\n        /* \"contracts/stake_reward_MLM.sol\":11595:11607  DUSDinvestor */\n      0x0b\n        /* \"contracts/stake_reward_MLM.sol\":11595:11619  DUSDinvestor[msg.sender] */\n      0x00\n        /* \"contracts/stake_reward_MLM.sol\":11608:11618  msg.sender */\n      caller\n        /* \"contracts/stake_reward_MLM.sol\":11595:11619  DUSDinvestor[msg.sender] */\n      0xffffffffffffffffffffffffffffffffffffffff\n      and\n      0xffffffffffffffffffffffffffffffffffffffff\n      and\n      dup2\n      mstore\n      0x20\n      add\n      swap1\n      dup2\n      mstore\n      0x20\n      add\n      0x00\n      keccak256\n        /* \"contracts/stake_reward_MLM.sol\":11595:11633  DUSDinvestor[msg.sender].referralLevel */\n      0x03\n      add\n        /* \"contracts/stake_reward_MLM.sol\":11595:11636  DUSDinvestor[msg.sender].referralLevel[i] */\n      0x00\n        /* \"contracts/stake_reward_MLM.sol\":11634:11635  i */\n      dup3\n        /* \"contracts/stake_reward_MLM.sol\":11595:11636  DUSDinvestor[msg.sender].referralLevel[i] */\n      dup2\n      mstore\n      0x20\n      add\n      swap1\n      dup2\n      mstore\n      0x20\n      add\n      0x00\n      keccak256\n        /* \"contracts/stake_reward_MLM.sol\":11595:11643  DUSDinvestor[msg.sender].referralLevel[i].reward */\n      0x00\n      add\n      sload\n        /* \"contracts/stake_reward_MLM.sol\":11568:11589  referralLevels_reward */\n      dup3\n        /* \"contracts/stake_reward_MLM.sol\":11590:11591  i */\n      dup3\n        /* \"contracts/stake_reward_MLM.sol\":11568:11592  referralLevels_reward[i] */\n      dup2\n      mload\n      dup2\n      lt\n      tag_238\n      jumpi\n      tag_239\n      tag_172\n      jump\t// in\n    tag_239:\n    tag_238:\n      0x20\n      mul\n      0x20\n      add\n      add\n        /* \"contracts/stake_reward_MLM.sol\":11568:11643  referralLevels_reward[i] = DUSDinvestor[msg.sender].referralLevel[i].reward */\n      dup2\n      dup2\n      mstore\n      pop\n      pop\n        /* \"contracts/stake_reward_MLM.sol\":11475:11756  if(DUSDinvestor[msg.sender].referralLevel[i].reward>0)... */\n      jump(tag_240)\n    tag_237:\n        /* \"contracts/stake_reward_MLM.sol\":11735:11736  0 */\n      0x00\n        /* \"contracts/stake_reward_MLM.sol\":11708:11729  referralLevels_reward */\n      dup3\n        /* \"contracts/stake_reward_MLM.sol\":11730:11731  i */\n      dup3\n        /* \"contracts/stake_reward_MLM.sol\":11708:11732  referralLevels_reward[i] */\n      dup2\n      mload\n      dup2\n      lt\n      tag_241\n      jumpi\n      tag_242\n      tag_172\n      jump\t// in\n    tag_242:\n    tag_241:\n      0x20\n      mul\n      0x20\n      add\n      add\n        /* \"contracts/stake_reward_MLM.sol\":11708:11736  referralLevels_reward[i] = 0 */\n      dup2\n      dup2\n      mstore\n      pop\n      pop\n        /* \"contracts/stake_reward_MLM.sol\":11475:11756  if(DUSDinvestor[msg.sender].referralLevel[i].reward>0)... */\n    tag_240:\n        /* \"contracts/stake_reward_MLM.sol\":11440:11443  i++ */\n      dup1\n      dup1\n      tag_243\n      swap1\n      tag_127\n      jump\t// in\n    tag_243:\n      swap2\n      pop\n      pop\n        /* \"contracts/stake_reward_MLM.sol\":11422:11772  for(uint i=0;i<20;i++)... */\n      jump(tag_234)\n    tag_235:\n      pop\n        /* \"contracts/stake_reward_MLM.sol\":11792:11813  referralLevels_reward */\n      dup1\n        /* \"contracts/stake_reward_MLM.sol\":11785:11813  return referralLevels_reward */\n      swap2\n      pop\n      pop\n        /* \"contracts/stake_reward_MLM.sol\":11262:11827  function referralLevel_earning() public view returns( uint[] memory arr )... */\n      swap1\n      jump\t// out\n        /* \"contracts/stake_reward_MLM.sol\":579:613  uint public min_Stake_amount=10000 */\n    tag_90:\n      sload(0x05)\n      dup2\n      jump\t// out\n        /* \"contracts/stake_reward_MLM.sol\":6696:7177  function withdrawReward() external returns (bool success){... */\n    tag_93:\n        /* \"contracts/stake_reward_MLM.sol\":6740:6752  bool success */\n      0x00\n        /* \"contracts/stake_reward_MLM.sol\":6767:6784  uint Total_reward */\n      dup1\n        /* \"contracts/stake_reward_MLM.sol\":6787:6798  getReward() */\n      tag_245\n        /* \"contracts/stake_reward_MLM.sol\":6787:6796  getReward */\n      tag_56\n        /* \"contracts/stake_reward_MLM.sol\":6787:6798  getReward() */\n      jump\t// in\n    tag_245:\n        /* \"contracts/stake_reward_MLM.sol\":6767:6798  uint Total_reward = getReward() */\n      swap1\n      pop\n        /* \"contracts/stake_reward_MLM.sol\":6833:6834  0 */\n      0x00\n        /* \"contracts/stake_reward_MLM.sol\":6820:6832  Total_reward */\n      dup2\n        /* \"contracts/stake_reward_MLM.sol\":6820:6834  Total_reward>0 */\n      gt\n        /* \"contracts/stake_reward_MLM.sol\":6812:6872  require(Total_reward>0,\"you dont have rewards to withdrawn\") */\n      tag_246\n      jumpi\n      mload(0x40)\n      0x08c379a000000000000000000000000000000000000000000000000000000000\n      dup2\n      mstore\n      0x04\n      add\n      tag_247\n      swap1\n      tag_248\n      jump\t// in\n    tag_247:\n      mload(0x40)\n      dup1\n      swap2\n      sub\n      swap1\n      revert\n    tag_246:\n        /* \"contracts/stake_reward_MLM.sol\":6956:6968  BUSDcontract */\n      0x02\n      0x00\n      swap1\n      sload\n      swap1\n      0x0100\n      exp\n      swap1\n      div\n      0xffffffffffffffffffffffffffffffffffffffff\n      and\n        /* \"contracts/stake_reward_MLM.sol\":6951:6978  DUSD(BUSDcontract).transfer */\n      0xffffffffffffffffffffffffffffffffffffffff\n      and\n      0xa9059cbb\n        /* \"contracts/stake_reward_MLM.sol\":6979:6989  msg.sender */\n      caller\n        /* \"contracts/stake_reward_MLM.sol\":6990:7002  Total_reward */\n      dup4\n        /* \"contracts/stake_reward_MLM.sol\":6951:7003  DUSD(BUSDcontract).transfer(msg.sender,Total_reward) */\n      mload(0x40)\n      dup4\n      0xffffffff\n      and\n      0xe0\n      shl\n      dup2\n      mstore\n      0x04\n      add\n      tag_249\n      swap3\n      swap2\n      swap1\n      tag_206\n      jump\t// in\n    tag_249:\n      0x20\n      mload(0x40)\n      dup1\n      dup4\n      sub\n      dup2\n      0x00\n      dup8\n      dup1\n      extcodesize\n      iszero\n      dup1\n      iszero\n      tag_250\n      jumpi\n      0x00\n      dup1\n      revert\n    tag_250:\n      pop\n      gas\n      call\n      iszero\n      dup1\n      iszero\n      tag_252\n      jumpi\n      returndatasize\n      0x00\n      dup1\n      returndatacopy\n      revert(0x00, returndatasize)\n    tag_252:\n      pop\n      pop\n      pop\n      pop\n      mload(0x40)\n      returndatasize\n      not(0x1f)\n      0x1f\n      dup3\n      add\n      and\n      dup3\n      add\n      dup1\n      0x40\n      mstore\n      pop\n      dup2\n      add\n      swap1\n      tag_253\n      swap2\n      swap1\n      tag_143\n      jump\t// in\n    tag_253:\n      pop\n        /* \"contracts/stake_reward_MLM.sol\":7127:7139  Total_reward */\n      dup1\n        /* \"contracts/stake_reward_MLM.sol\":7080:7092  DUSDinvestor */\n      0x0b\n        /* \"contracts/stake_reward_MLM.sol\":7080:7104  DUSDinvestor[msg.sender] */\n      0x00\n        /* \"contracts/stake_reward_MLM.sol\":7093:7103  msg.sender */\n      caller\n        /* \"contracts/stake_reward_MLM.sol\":7080:7104  DUSDinvestor[msg.sender] */\n      0xffffffffffffffffffffffffffffffffffffffff\n      and\n      0xffffffffffffffffffffffffffffffffffffffff\n      and\n      dup2\n      mstore\n      0x20\n      add\n      swap1\n      dup2\n      mstore\n      0x20\n      add\n      0x00\n      keccak256\n        /* \"contracts/stake_reward_MLM.sol\":7080:7125  DUSDinvestor[msg.sender].totalWithdraw_reward */\n      0x07\n      add\n      0x00\n        /* \"contracts/stake_reward_MLM.sol\":7080:7139  DUSDinvestor[msg.sender].totalWithdraw_reward+=Total_reward */\n      dup3\n      dup3\n      sload\n      tag_254\n      swap2\n      swap1\n      tag_130\n      jump\t// in\n    tag_254:\n      swap3\n      pop\n      pop\n      dup2\n      swap1\n      sstore\n      pop\n        /* \"contracts/stake_reward_MLM.sol\":7161:7165  true */\n      0x01\n        /* \"contracts/stake_reward_MLM.sol\":7154:7165  return true */\n      swap2\n      pop\n      pop\n        /* \"contracts/stake_reward_MLM.sol\":6696:7177  function withdrawReward() external returns (bool success){... */\n      swap1\n      jump\t// out\n        /* \"contracts/stake_reward_MLM.sol\":1619:1661  mapping(address=>Data) public DUSDinvestor */\n    tag_98:\n      mstore(0x20, 0x0b)\n      dup1\n      0x00\n      mstore\n      keccak256(0x00, 0x40)\n      0x00\n      swap2\n      pop\n      swap1\n      pop\n      dup1\n      0x02\n      add\n      0x00\n      swap1\n      sload\n      swap1\n      0x0100\n      exp\n      swap1\n      div\n      0xffffffffffffffffffffffffffffffffffffffff\n      and\n      swap1\n      dup1\n      0x04\n      add\n      sload\n      swap1\n      dup1\n      0x05\n      add\n      sload\n      swap1\n      dup1\n      0x06\n      add\n      sload\n      swap1\n      dup1\n      0x07\n      add\n      sload\n      swap1\n      dup1\n      0x08\n      add\n      0x00\n      swap1\n      sload\n      swap1\n      0x0100\n      exp\n      swap1\n      div\n      0xff\n      and\n      swap1\n      dup1\n      0x09\n      add\n      sload\n      swap1\n      pop\n      dup8\n      jump\t// out\n        /* \"contracts/stake_reward_MLM.sol\":839:864  uint public totalbusiness */\n    tag_102:\n      sload(0x09)\n      dup2\n      jump\t// out\n        /* \"contracts/stake_reward_MLM.sol\":11078:11252  function transferOwnership(address _owner)  public... */\n    tag_106:\n        /* \"contracts/stake_reward_MLM.sol\":11171:11176  owner */\n      0x00\n      dup1\n      sload\n      swap1\n      0x0100\n      exp\n      swap1\n      div\n      0xffffffffffffffffffffffffffffffffffffffff\n      and\n        /* \"contracts/stake_reward_MLM.sol\":11159:11176  msg.sender==owner */\n      0xffffffffffffffffffffffffffffffffffffffff\n      and\n        /* \"contracts/stake_reward_MLM.sol\":11159:11169  msg.sender */\n      caller\n        /* \"contracts/stake_reward_MLM.sol\":11159:11176  msg.sender==owner */\n      0xffffffffffffffffffffffffffffffffffffffff\n      and\n      eq\n        /* \"contracts/stake_reward_MLM.sol\":11151:11213  require(msg.sender==owner,\"only Owner can call this function\") */\n      tag_256\n      jumpi\n      mload(0x40)\n      0x08c379a000000000000000000000000000000000000000000000000000000000\n      dup2\n      mstore\n      0x04\n      add\n      tag_257\n      swap1\n      tag_258\n      jump\t// in\n    tag_257:\n      mload(0x40)\n      dup1\n      swap2\n      sub\n      swap1\n      revert\n    tag_256:\n        /* \"contracts/stake_reward_MLM.sol\":11235:11241  _owner */\n      dup1\n        /* \"contracts/stake_reward_MLM.sol\":11227:11232  owner */\n      0x00\n      dup1\n        /* \"contracts/stake_reward_MLM.sol\":11227:11241  owner = _owner */\n      0x0100\n      exp\n      dup2\n      sload\n      dup2\n      0xffffffffffffffffffffffffffffffffffffffff\n      mul\n      not\n      and\n      swap1\n      dup4\n      0xffffffffffffffffffffffffffffffffffffffff\n      and\n      mul\n      or\n      swap1\n      sstore\n      pop\n        /* \"contracts/stake_reward_MLM.sol\":11078:11252  function transferOwnership(address _owner)  public... */\n      pop\n      jump\t// out\n        /* \"contracts/stake_reward_MLM.sol\":11836:12397  function referralLevel_count() public view returns( uint[] memory arr )... */\n    tag_108:\n        /* \"contracts/stake_reward_MLM.sol\":11888:11905  uint[] memory arr */\n      0x60\n        /* \"contracts/stake_reward_MLM.sol\":11930:11965  uint[] memory referralLevels_reward */\n      0x00\n        /* \"contracts/stake_reward_MLM.sol\":11977:11979  20 */\n      0x14\n        /* \"contracts/stake_reward_MLM.sol\":11966:11980  new uint[](20) */\n      0xffffffffffffffff\n      dup2\n      gt\n      iszero\n      tag_260\n      jumpi\n      tag_261\n      tag_161\n      jump\t// in\n    tag_261:\n    tag_260:\n      mload(0x40)\n      swap1\n      dup1\n      dup3\n      mstore\n      dup1\n      0x20\n      mul\n      0x20\n      add\n      dup3\n      add\n      0x40\n      mstore\n      dup1\n      iszero\n      tag_262\n      jumpi\n      dup2\n      0x20\n      add\n      0x20\n      dup3\n      mul\n      dup1\n      calldatasize\n      dup4\n      calldatacopy\n      dup1\n      dup3\n      add\n      swap2\n      pop\n      pop\n      swap1\n      pop\n    tag_262:\n      pop\n        /* \"contracts/stake_reward_MLM.sol\":11930:11980  uint[] memory referralLevels_reward=new uint[](20) */\n      swap1\n      pop\n        /* \"contracts/stake_reward_MLM.sol\":11998:12004  uint i */\n      0x00\n        /* \"contracts/stake_reward_MLM.sol\":11994:12342  for(uint i=0;i<20;i++)... */\n    tag_263:\n        /* \"contracts/stake_reward_MLM.sol\":12009:12011  20 */\n      0x14\n        /* \"contracts/stake_reward_MLM.sol\":12007:12008  i */\n      dup2\n        /* \"contracts/stake_reward_MLM.sol\":12007:12011  i<20 */\n      lt\n        /* \"contracts/stake_reward_MLM.sol\":11994:12342  for(uint i=0;i<20;i++)... */\n      iszero\n      tag_264\n      jumpi\n        /* \"contracts/stake_reward_MLM.sol\":12099:12100  0 */\n      0x00\n        /* \"contracts/stake_reward_MLM.sol\":12050:12062  DUSDinvestor */\n      0x0b\n        /* \"contracts/stake_reward_MLM.sol\":12050:12074  DUSDinvestor[msg.sender] */\n      0x00\n        /* \"contracts/stake_reward_MLM.sol\":12063:12073  msg.sender */\n      caller\n        /* \"contracts/stake_reward_MLM.sol\":12050:12074  DUSDinvestor[msg.sender] */\n      0xffffffffffffffffffffffffffffffffffffffff\n      and\n      0xffffffffffffffffffffffffffffffffffffffff\n      and\n      dup2\n      mstore\n      0x20\n      add\n      swap1\n      dup2\n      mstore\n      0x20\n      add\n      0x00\n      keccak256\n        /* \"contracts/stake_reward_MLM.sol\":12050:12088  DUSDinvestor[msg.sender].referralLevel */\n      0x03\n      add\n        /* \"contracts/stake_reward_MLM.sol\":12050:12091  DUSDinvestor[msg.sender].referralLevel[i] */\n      0x00\n        /* \"contracts/stake_reward_MLM.sol\":12089:12090  i */\n      dup4\n        /* \"contracts/stake_reward_MLM.sol\":12050:12091  DUSDinvestor[msg.sender].referralLevel[i] */\n      dup2\n      mstore\n      0x20\n      add\n      swap1\n      dup2\n      mstore\n      0x20\n      add\n      0x00\n      keccak256\n        /* \"contracts/stake_reward_MLM.sol\":12050:12098  DUSDinvestor[msg.sender].referralLevel[i].reward */\n      0x00\n      add\n      sload\n        /* \"contracts/stake_reward_MLM.sol\":12050:12100  DUSDinvestor[msg.sender].referralLevel[i].reward>0 */\n      gt\n        /* \"contracts/stake_reward_MLM.sol\":12047:12326  if(DUSDinvestor[msg.sender].referralLevel[i].reward>0)... */\n      iszero\n      tag_266\n      jumpi\n        /* \"contracts/stake_reward_MLM.sol\":12167:12179  DUSDinvestor */\n      0x0b\n        /* \"contracts/stake_reward_MLM.sol\":12167:12191  DUSDinvestor[msg.sender] */\n      0x00\n        /* \"contracts/stake_reward_MLM.sol\":12180:12190  msg.sender */\n      caller\n        /* \"contracts/stake_reward_MLM.sol\":12167:12191  DUSDinvestor[msg.sender] */\n      0xffffffffffffffffffffffffffffffffffffffff\n      and\n      0xffffffffffffffffffffffffffffffffffffffff\n      and\n      dup2\n      mstore\n      0x20\n      add\n      swap1\n      dup2\n      mstore\n      0x20\n      add\n      0x00\n      keccak256\n        /* \"contracts/stake_reward_MLM.sol\":12167:12205  DUSDinvestor[msg.sender].referralLevel */\n      0x03\n      add\n        /* \"contracts/stake_reward_MLM.sol\":12167:12208  DUSDinvestor[msg.sender].referralLevel[i] */\n      0x00\n        /* \"contracts/stake_reward_MLM.sol\":12206:12207  i */\n      dup3\n        /* \"contracts/stake_reward_MLM.sol\":12167:12208  DUSDinvestor[msg.sender].referralLevel[i] */\n      dup2\n      mstore\n      0x20\n      add\n      swap1\n      dup2\n      mstore\n      0x20\n      add\n      0x00\n      keccak256\n        /* \"contracts/stake_reward_MLM.sol\":12167:12214  DUSDinvestor[msg.sender].referralLevel[i].count */\n      0x01\n      add\n      sload\n        /* \"contracts/stake_reward_MLM.sol\":12140:12161  referralLevels_reward */\n      dup3\n        /* \"contracts/stake_reward_MLM.sol\":12162:12163  i */\n      dup3\n        /* \"contracts/stake_reward_MLM.sol\":12140:12164  referralLevels_reward[i] */\n      dup2\n      mload\n      dup2\n      lt\n      tag_267\n      jumpi\n      tag_268\n      tag_172\n      jump\t// in\n    tag_268:\n    tag_267:\n      0x20\n      mul\n      0x20\n      add\n      add\n        /* \"contracts/stake_reward_MLM.sol\":12140:12214  referralLevels_reward[i] = DUSDinvestor[msg.sender].referralLevel[i].count */\n      dup2\n      dup2\n      mstore\n      pop\n      pop\n        /* \"contracts/stake_reward_MLM.sol\":12047:12326  if(DUSDinvestor[msg.sender].referralLevel[i].reward>0)... */\n      jump(tag_269)\n    tag_266:\n        /* \"contracts/stake_reward_MLM.sol\":12305:12306  0 */\n      0x00\n        /* \"contracts/stake_reward_MLM.sol\":12278:12299  referralLevels_reward */\n      dup3\n        /* \"contracts/stake_reward_MLM.sol\":12300:12301  i */\n      dup3\n        /* \"contracts/stake_reward_MLM.sol\":12278:12302  referralLevels_reward[i] */\n      dup2\n      mload\n      dup2\n      lt\n      tag_270\n      jumpi\n      tag_271\n      tag_172\n      jump\t// in\n    tag_271:\n    tag_270:\n      0x20\n      mul\n      0x20\n      add\n      add\n        /* \"contracts/stake_reward_MLM.sol\":12278:12306  referralLevels_reward[i] = 0 */\n      dup2\n      dup2\n      mstore\n      pop\n      pop\n        /* \"contracts/stake_reward_MLM.sol\":12047:12326  if(DUSDinvestor[msg.sender].referralLevel[i].reward>0)... */\n    tag_269:\n        /* \"contracts/stake_reward_MLM.sol\":12012:12015  i++ */\n      dup1\n      dup1\n      tag_272\n      swap1\n      tag_127\n      jump\t// in\n    tag_272:\n      swap2\n      pop\n      pop\n        /* \"contracts/stake_reward_MLM.sol\":11994:12342  for(uint i=0;i<20;i++)... */\n      jump(tag_263)\n    tag_264:\n      pop\n        /* \"contracts/stake_reward_MLM.sol\":12362:12383  referralLevels_reward */\n      dup1\n        /* \"contracts/stake_reward_MLM.sol\":12355:12383  return referralLevels_reward */\n      swap2\n      pop\n      pop\n        /* \"contracts/stake_reward_MLM.sol\":11836:12397  function referralLevel_count() public view returns( uint[] memory arr )... */\n      swap1\n      jump\t// out\n        /* \"contracts/stake_reward_MLM.sol\":516:559  uint public rewardToken=5000000000000000000 */\n    tag_111:\n      sload(0x04)\n      dup2\n      jump\t// out\n        /* \"contracts/stake_reward_MLM.sol\":650:686  uint public max_Stake_amount=5000000 */\n    tag_114:\n      sload(0x06)\n      dup2\n      jump\t// out\n        /* \"contracts/stake_reward_MLM.sol\":1812:3477  function sendRewardToDUSDReferrals(address investor,uint _investedAmount)  internal  //this is the freferral function to transfer the reawards to referrals... */\n    tag_150:\n        /* \"contracts/stake_reward_MLM.sol\":1992:2004  address temp */\n      0x00\n        /* \"contracts/stake_reward_MLM.sol\":2007:2015  investor */\n      dup3\n        /* \"contracts/stake_reward_MLM.sol\":1992:2015  address temp = investor */\n      swap1\n      pop\n        /* \"contracts/stake_reward_MLM.sol\":2036:2060  uint[] memory percentage */\n      0x00\n        /* \"contracts/stake_reward_MLM.sol\":2074:2075  5 */\n      0x05\n        /* \"contracts/stake_reward_MLM.sol\":2063:2076  new uint[](5) */\n      0xffffffffffffffff\n      dup2\n      gt\n      iszero\n      tag_274\n      jumpi\n      tag_275\n      tag_161\n      jump\t// in\n    tag_275:\n    tag_274:\n      mload(0x40)\n      swap1\n      dup1\n      dup3\n      mstore\n      dup1\n      0x20\n      mul\n      0x20\n      add\n      dup3\n      add\n      0x40\n      mstore\n      dup1\n      iszero\n      tag_276\n      jumpi\n      dup2\n      0x20\n      add\n      0x20\n      dup3\n      mul\n      dup1\n      calldatasize\n      dup4\n      calldatacopy\n      dup1\n      dup3\n      add\n      swap2\n      pop\n      pop\n      swap1\n      pop\n    tag_276:\n      pop\n        /* \"contracts/stake_reward_MLM.sol\":2036:2076  uint[] memory percentage = new uint[](5) */\n      swap1\n      pop\n        /* \"contracts/stake_reward_MLM.sol\":2106:2107  5 */\n      0x05\n        /* \"contracts/stake_reward_MLM.sol\":2090:2100  percentage */\n      dup2\n        /* \"contracts/stake_reward_MLM.sol\":2101:2102  0 */\n      0x00\n        /* \"contracts/stake_reward_MLM.sol\":2090:2103  percentage[0] */\n      dup2\n      mload\n      dup2\n      lt\n      tag_277\n      jumpi\n      tag_278\n      tag_172\n      jump\t// in\n    tag_278:\n    tag_277:\n      0x20\n      mul\n      0x20\n      add\n      add\n        /* \"contracts/stake_reward_MLM.sol\":2090:2107  percentage[0] = 5 */\n      dup2\n      dup2\n      mstore\n      pop\n      pop\n        /* \"contracts/stake_reward_MLM.sol\":2137:2138  3 */\n      0x03\n        /* \"contracts/stake_reward_MLM.sol\":2121:2131  percentage */\n      dup2\n        /* \"contracts/stake_reward_MLM.sol\":2132:2133  1 */\n      0x01\n        /* \"contracts/stake_reward_MLM.sol\":2121:2134  percentage[1] */\n      dup2\n      mload\n      dup2\n      lt\n      tag_279\n      jumpi\n      tag_280\n      tag_172\n      jump\t// in\n    tag_280:\n    tag_279:\n      0x20\n      mul\n      0x20\n      add\n      add\n        /* \"contracts/stake_reward_MLM.sol\":2121:2138  percentage[1] = 3 */\n      dup2\n      dup2\n      mstore\n      pop\n      pop\n        /* \"contracts/stake_reward_MLM.sol\":2168:2169  2 */\n      0x02\n        /* \"contracts/stake_reward_MLM.sol\":2152:2162  percentage */\n      dup2\n        /* \"contracts/stake_reward_MLM.sol\":2163:2164  2 */\n      0x02\n        /* \"contracts/stake_reward_MLM.sol\":2152:2165  percentage[2] */\n      dup2\n      mload\n      dup2\n      lt\n      tag_281\n      jumpi\n      tag_282\n      tag_172\n      jump\t// in\n    tag_282:\n    tag_281:\n      0x20\n      mul\n      0x20\n      add\n      add\n        /* \"contracts/stake_reward_MLM.sol\":2152:2169  percentage[2] = 2 */\n      dup2\n      dup2\n      mstore\n      pop\n      pop\n        /* \"contracts/stake_reward_MLM.sol\":2199:2200  1 */\n      0x01\n        /* \"contracts/stake_reward_MLM.sol\":2183:2193  percentage */\n      dup2\n        /* \"contracts/stake_reward_MLM.sol\":2194:2195  3 */\n      0x03\n        /* \"contracts/stake_reward_MLM.sol\":2183:2196  percentage[3] */\n      dup2\n      mload\n      dup2\n      lt\n      tag_283\n      jumpi\n      tag_284\n      tag_172\n      jump\t// in\n    tag_284:\n    tag_283:\n      0x20\n      mul\n      0x20\n      add\n      add\n        /* \"contracts/stake_reward_MLM.sol\":2183:2200  percentage[3] = 1 */\n      dup2\n      dup2\n      mstore\n      pop\n      pop\n        /* \"contracts/stake_reward_MLM.sol\":2230:2231  1 */\n      0x01\n        /* \"contracts/stake_reward_MLM.sol\":2214:2224  percentage */\n      dup2\n        /* \"contracts/stake_reward_MLM.sol\":2225:2226  4 */\n      0x04\n        /* \"contracts/stake_reward_MLM.sol\":2214:2227  percentage[4] */\n      dup2\n      mload\n      dup2\n      lt\n      tag_285\n      jumpi\n      tag_286\n      tag_172\n      jump\t// in\n    tag_286:\n    tag_285:\n      0x20\n      mul\n      0x20\n      add\n      add\n        /* \"contracts/stake_reward_MLM.sol\":2214:2231  percentage[4] = 1 */\n      dup2\n      dup2\n      mstore\n      pop\n      pop\n        /* \"contracts/stake_reward_MLM.sol\":2247:2253  uint j */\n      0x00\n        /* \"contracts/stake_reward_MLM.sol\":2274:2280  uint i */\n      dup1\n        /* \"contracts/stake_reward_MLM.sol\":2281:2282  0 */\n      0x00\n        /* \"contracts/stake_reward_MLM.sol\":2274:2282  uint i=0 */\n      swap1\n      pop\n        /* \"contracts/stake_reward_MLM.sol\":2270:3466  for(uint i=0;i<20;i++)... */\n    tag_287:\n        /* \"contracts/stake_reward_MLM.sol\":2285:2287  20 */\n      0x14\n        /* \"contracts/stake_reward_MLM.sol\":2283:2284  i */\n      dup2\n        /* \"contracts/stake_reward_MLM.sol\":2283:2287  i<20 */\n      lt\n        /* \"contracts/stake_reward_MLM.sol\":2270:3466  for(uint i=0;i<20;i++)... */\n      iszero\n      tag_288\n      jumpi\n        /* \"contracts/stake_reward_MLM.sol\":2330:2331  0 */\n      0x00\n        /* \"contracts/stake_reward_MLM.sol\":2327:2328  i */\n      dup2\n        /* \"contracts/stake_reward_MLM.sol\":2327:2331  i==0 */\n      eq\n        /* \"contracts/stake_reward_MLM.sol\":2324:2756  if(i==0)... */\n      iszero\n      tag_290\n      jumpi\n        /* \"contracts/stake_reward_MLM.sol\":2373:2374  0 */\n      0x00\n        /* \"contracts/stake_reward_MLM.sol\":2371:2374  j=0 */\n      swap2\n      pop\n        /* \"contracts/stake_reward_MLM.sol\":2324:2756  if(i==0)... */\n      jump(tag_291)\n    tag_290:\n        /* \"contracts/stake_reward_MLM.sol\":2421:2422  1 */\n      0x01\n        /* \"contracts/stake_reward_MLM.sol\":2418:2419  i */\n      dup2\n        /* \"contracts/stake_reward_MLM.sol\":2418:2422  i==1 */\n      eq\n        /* \"contracts/stake_reward_MLM.sol\":2415:2756  if(i==1)... */\n      iszero\n      tag_292\n      jumpi\n        /* \"contracts/stake_reward_MLM.sol\":2464:2465  1 */\n      0x01\n        /* \"contracts/stake_reward_MLM.sol\":2462:2465  j=1 */\n      swap2\n      pop\n        /* \"contracts/stake_reward_MLM.sol\":2415:2756  if(i==1)... */\n      jump(tag_293)\n    tag_292:\n        /* \"contracts/stake_reward_MLM.sol\":2512:2513  2 */\n      0x02\n        /* \"contracts/stake_reward_MLM.sol\":2509:2510  i */\n      dup2\n        /* \"contracts/stake_reward_MLM.sol\":2509:2513  i==2 */\n      eq\n        /* \"contracts/stake_reward_MLM.sol\":2506:2756  if(i==2)... */\n      iszero\n      tag_294\n      jumpi\n        /* \"contracts/stake_reward_MLM.sol\":2555:2556  2 */\n      0x02\n        /* \"contracts/stake_reward_MLM.sol\":2553:2556  j=2 */\n      swap2\n      pop\n        /* \"contracts/stake_reward_MLM.sol\":2506:2756  if(i==2)... */\n      jump(tag_295)\n    tag_294:\n        /* \"contracts/stake_reward_MLM.sol\":2603:2604  2 */\n      0x02\n        /* \"contracts/stake_reward_MLM.sol\":2601:2602  i */\n      dup2\n        /* \"contracts/stake_reward_MLM.sol\":2601:2604  i>2 */\n      gt\n        /* \"contracts/stake_reward_MLM.sol\":2598:2756  if(i>2)... */\n      iszero\n      tag_296\n      jumpi\n        /* \"contracts/stake_reward_MLM.sol\":2646:2647  3 */\n      0x03\n        /* \"contracts/stake_reward_MLM.sol\":2644:2647  j=3 */\n      swap2\n      pop\n        /* \"contracts/stake_reward_MLM.sol\":2598:2756  if(i>2)... */\n      jump(tag_297)\n    tag_296:\n        /* \"contracts/stake_reward_MLM.sol\":2693:2694  7 */\n      0x07\n        /* \"contracts/stake_reward_MLM.sol\":2691:2692  i */\n      dup2\n        /* \"contracts/stake_reward_MLM.sol\":2691:2694  i>7 */\n      gt\n        /* \"contracts/stake_reward_MLM.sol\":2688:2756  if(i>7)... */\n      iszero\n      tag_298\n      jumpi\n        /* \"contracts/stake_reward_MLM.sol\":2736:2737  4 */\n      0x04\n        /* \"contracts/stake_reward_MLM.sol\":2734:2737  j=4 */\n      swap2\n      pop\n        /* \"contracts/stake_reward_MLM.sol\":2688:2756  if(i>7)... */\n    tag_298:\n        /* \"contracts/stake_reward_MLM.sol\":2598:2756  if(i>2)... */\n    tag_297:\n        /* \"contracts/stake_reward_MLM.sol\":2506:2756  if(i==2)... */\n    tag_295:\n        /* \"contracts/stake_reward_MLM.sol\":2415:2756  if(i==1)... */\n    tag_293:\n        /* \"contracts/stake_reward_MLM.sol\":2324:2756  if(i==0)... */\n    tag_291:\n        /* \"contracts/stake_reward_MLM.sol\":2834:2835  0 */\n      0x00\n        /* \"contracts/stake_reward_MLM.sol\":2793:2836  DUSDinvestor[temp].referralFrom!=address(0) */\n      0xffffffffffffffffffffffffffffffffffffffff\n      and\n        /* \"contracts/stake_reward_MLM.sol\":2793:2805  DUSDinvestor */\n      0x0b\n        /* \"contracts/stake_reward_MLM.sol\":2793:2811  DUSDinvestor[temp] */\n      0x00\n        /* \"contracts/stake_reward_MLM.sol\":2806:2810  temp */\n      dup7\n        /* \"contracts/stake_reward_MLM.sol\":2793:2811  DUSDinvestor[temp] */\n      0xffffffffffffffffffffffffffffffffffffffff\n      and\n      0xffffffffffffffffffffffffffffffffffffffff\n      and\n      dup2\n      mstore\n      0x20\n      add\n      swap1\n      dup2\n      mstore\n      0x20\n      add\n      0x00\n      keccak256\n        /* \"contracts/stake_reward_MLM.sol\":2793:2824  DUSDinvestor[temp].referralFrom */\n      0x02\n      add\n      0x00\n      swap1\n      sload\n      swap1\n      0x0100\n      exp\n      swap1\n      div\n      0xffffffffffffffffffffffffffffffffffffffff\n      and\n        /* \"contracts/stake_reward_MLM.sol\":2793:2836  DUSDinvestor[temp].referralFrom!=address(0) */\n      0xffffffffffffffffffffffffffffffffffffffff\n      and\n      eq\n        /* \"contracts/stake_reward_MLM.sol\":2790:3451  if(DUSDinvestor[temp].referralFrom!=address(0))... */\n      tag_299\n      jumpi\n        /* \"contracts/stake_reward_MLM.sol\":2882:2894  DUSDinvestor */\n      0x0b\n        /* \"contracts/stake_reward_MLM.sol\":2882:2900  DUSDinvestor[temp] */\n      0x00\n        /* \"contracts/stake_reward_MLM.sol\":2895:2899  temp */\n      dup6\n        /* \"contracts/stake_reward_MLM.sol\":2882:2900  DUSDinvestor[temp] */\n      0xffffffffffffffffffffffffffffffffffffffff\n      and\n      0xffffffffffffffffffffffffffffffffffffffff\n      and\n      dup2\n      mstore\n      0x20\n      add\n      swap1\n      dup2\n      mstore\n      0x20\n      add\n      0x00\n      keccak256\n        /* \"contracts/stake_reward_MLM.sol\":2882:2913  DUSDinvestor[temp].referralFrom */\n      0x02\n      add\n      0x00\n      swap1\n      sload\n      swap1\n      0x0100\n      exp\n      swap1\n      div\n      0xffffffffffffffffffffffffffffffffffffffff\n      and\n        /* \"contracts/stake_reward_MLM.sol\":2877:2913  temp=DUSDinvestor[temp].referralFrom */\n      swap4\n      pop\n        /* \"contracts/stake_reward_MLM.sol\":2935:2947  uint reward1 */\n      0x00\n        /* \"contracts/stake_reward_MLM.sol\":2996:2999  100 */\n      0x64\n        /* \"contracts/stake_reward_MLM.sol\":2979:2994  _investedAmount */\n      dup7\n        /* \"contracts/stake_reward_MLM.sol\":2966:2975  100000000 */\n      0x05f5e100\n        /* \"contracts/stake_reward_MLM.sol\":2952:2962  percentage */\n      dup7\n        /* \"contracts/stake_reward_MLM.sol\":2963:2964  j */\n      dup7\n        /* \"contracts/stake_reward_MLM.sol\":2952:2965  percentage[j] */\n      dup2\n      mload\n      dup2\n      lt\n      tag_300\n      jumpi\n      tag_301\n      tag_172\n      jump\t// in\n    tag_301:\n    tag_300:\n      0x20\n      mul\n      0x20\n      add\n      add\n      mload\n        /* \"contracts/stake_reward_MLM.sol\":2952:2975  percentage[j]*100000000 */\n      tag_302\n      swap2\n      swap1\n      tag_136\n      jump\t// in\n    tag_302:\n        /* \"contracts/stake_reward_MLM.sol\":2951:2994  (percentage[j]*100000000) * _investedAmount */\n      tag_303\n      swap2\n      swap1\n      tag_136\n      jump\t// in\n    tag_303:\n        /* \"contracts/stake_reward_MLM.sol\":2950:2999  ((percentage[j]*100000000) * _investedAmount)/100 */\n      tag_304\n      swap2\n      swap1\n      tag_185\n      jump\t// in\n    tag_304:\n        /* \"contracts/stake_reward_MLM.sol\":2935:2999  uint reward1 = ((percentage[j]*100000000) * _investedAmount)/100 */\n      swap1\n      pop\n        /* \"contracts/stake_reward_MLM.sol\":3028:3029  4 */\n      0x04\n        /* \"contracts/stake_reward_MLM.sol\":3025:3026  j */\n      dup4\n        /* \"contracts/stake_reward_MLM.sol\":3025:3029  j==4 */\n      eq\n        /* \"contracts/stake_reward_MLM.sol\":3022:3119  if(j==4)... */\n      iszero\n      tag_305\n      jumpi\n        /* \"contracts/stake_reward_MLM.sol\":3095:3096  2 */\n      0x02\n        /* \"contracts/stake_reward_MLM.sol\":3087:3094  reward1 */\n      dup2\n        /* \"contracts/stake_reward_MLM.sol\":3087:3096  reward1/2 */\n      tag_306\n      swap2\n      swap1\n      tag_185\n      jump\t// in\n    tag_306:\n        /* \"contracts/stake_reward_MLM.sol\":3077:3096  reward1 = reward1/2 */\n      swap1\n      pop\n        /* \"contracts/stake_reward_MLM.sol\":3022:3119  if(j==4)... */\n    tag_305:\n        /* \"contracts/stake_reward_MLM.sol\":3189:3200  SMCcontract */\n      0x01\n      0x00\n      swap1\n      sload\n      swap1\n      0x0100\n      exp\n      swap1\n      div\n      0xffffffffffffffffffffffffffffffffffffffff\n      and\n        /* \"contracts/stake_reward_MLM.sol\":3184:3210  DUSD(SMCcontract).transfer */\n      0xffffffffffffffffffffffffffffffffffffffff\n      and\n      0xa9059cbb\n        /* \"contracts/stake_reward_MLM.sol\":3211:3215  temp */\n      dup7\n        /* \"contracts/stake_reward_MLM.sol\":3216:3223  reward1 */\n      dup4\n        /* \"contracts/stake_reward_MLM.sol\":3184:3224  DUSD(SMCcontract).transfer(temp,reward1) */\n      mload(0x40)\n      dup4\n      0xffffffff\n      and\n      0xe0\n      shl\n      dup2\n      mstore\n      0x04\n      add\n      tag_307\n      swap3\n      swap2\n      swap1\n      tag_206\n      jump\t// in\n    tag_307:\n      0x20\n      mload(0x40)\n      dup1\n      dup4\n      sub\n      dup2\n      0x00\n      dup8\n      dup1\n      extcodesize\n      iszero\n      dup1\n      iszero\n      tag_308\n      jumpi\n      0x00\n      dup1\n      revert\n    tag_308:\n      pop\n      gas\n      call\n      iszero\n      dup1\n      iszero\n      tag_310\n      jumpi\n      returndatasize\n      0x00\n      dup1\n      returndatacopy\n      revert(0x00, returndatasize)\n    tag_310:\n      pop\n      pop\n      pop\n      pop\n      mload(0x40)\n      returndatasize\n      not(0x1f)\n      0x1f\n      dup3\n      add\n      and\n      dup3\n      add\n      dup1\n      0x40\n      mstore\n      pop\n      dup2\n      add\n      swap1\n      tag_311\n      swap2\n      swap1\n      tag_143\n      jump\t// in\n    tag_311:\n      pop\n        /* \"contracts/stake_reward_MLM.sol\":3290:3297  reward1 */\n      dup1\n        /* \"contracts/stake_reward_MLM.sol\":3246:3258  DUSDinvestor */\n      0x0b\n        /* \"contracts/stake_reward_MLM.sol\":3246:3264  DUSDinvestor[temp] */\n      0x00\n        /* \"contracts/stake_reward_MLM.sol\":3259:3263  temp */\n      dup8\n        /* \"contracts/stake_reward_MLM.sol\":3246:3264  DUSDinvestor[temp] */\n      0xffffffffffffffffffffffffffffffffffffffff\n      and\n      0xffffffffffffffffffffffffffffffffffffffff\n      and\n      dup2\n      mstore\n      0x20\n      add\n      swap1\n      dup2\n      mstore\n      0x20\n      add\n      0x00\n      keccak256\n        /* \"contracts/stake_reward_MLM.sol\":3246:3278  DUSDinvestor[temp].referralLevel */\n      0x03\n      add\n        /* \"contracts/stake_reward_MLM.sol\":3246:3281  DUSDinvestor[temp].referralLevel[i] */\n      0x00\n        /* \"contracts/stake_reward_MLM.sol\":3279:3280  i */\n      dup5\n        /* \"contracts/stake_reward_MLM.sol\":3246:3281  DUSDinvestor[temp].referralLevel[i] */\n      dup2\n      mstore\n      0x20\n      add\n      swap1\n      dup2\n      mstore\n      0x20\n      add\n      0x00\n      keccak256\n        /* \"contracts/stake_reward_MLM.sol\":3246:3288  DUSDinvestor[temp].referralLevel[i].reward */\n      0x00\n      add\n      0x00\n        /* \"contracts/stake_reward_MLM.sol\":3246:3297  DUSDinvestor[temp].referralLevel[i].reward+=reward1 */\n      dup3\n      dup3\n      sload\n      tag_312\n      swap2\n      swap1\n      tag_130\n      jump\t// in\n    tag_312:\n      swap3\n      pop\n      pop\n      dup2\n      swap1\n      sstore\n      pop\n        /* \"contracts/stake_reward_MLM.sol\":3319:3331  DUSDinvestor */\n      0x0b\n        /* \"contracts/stake_reward_MLM.sol\":3319:3337  DUSDinvestor[temp] */\n      0x00\n        /* \"contracts/stake_reward_MLM.sol\":3332:3336  temp */\n      dup7\n        /* \"contracts/stake_reward_MLM.sol\":3319:3337  DUSDinvestor[temp] */\n      0xffffffffffffffffffffffffffffffffffffffff\n      and\n      0xffffffffffffffffffffffffffffffffffffffff\n      and\n      dup2\n      mstore\n      0x20\n      add\n      swap1\n      dup2\n      mstore\n      0x20\n      add\n      0x00\n      keccak256\n        /* \"contracts/stake_reward_MLM.sol\":3319:3351  DUSDinvestor[temp].referralLevel */\n      0x03\n      add\n        /* \"contracts/stake_reward_MLM.sol\":3319:3354  DUSDinvestor[temp].referralLevel[i] */\n      0x00\n        /* \"contracts/stake_reward_MLM.sol\":3352:3353  i */\n      dup4\n        /* \"contracts/stake_reward_MLM.sol\":3319:3354  DUSDinvestor[temp].referralLevel[i] */\n      dup2\n      mstore\n      0x20\n      add\n      swap1\n      dup2\n      mstore\n      0x20\n      add\n      0x00\n      keccak256\n        /* \"contracts/stake_reward_MLM.sol\":3319:3360  DUSDinvestor[temp].referralLevel[i].count */\n      0x01\n      add\n      0x00\n        /* \"contracts/stake_reward_MLM.sol\":3319:3362  DUSDinvestor[temp].referralLevel[i].count++ */\n      dup2\n      sload\n      dup1\n      swap3\n      swap2\n      swap1\n      tag_313\n      swap1\n      tag_127\n      jump\t// in\n    tag_313:\n      swap2\n      swap1\n      pop\n      sstore\n      pop\n        /* \"contracts/stake_reward_MLM.sol\":2854:3383  {... */\n      pop\n        /* \"contracts/stake_reward_MLM.sol\":2790:3451  if(DUSDinvestor[temp].referralFrom!=address(0))... */\n      jump(tag_314)\n    tag_299:\n        /* \"contracts/stake_reward_MLM.sol\":3427:3432  break */\n      jump(tag_288)\n        /* \"contracts/stake_reward_MLM.sol\":2790:3451  if(DUSDinvestor[temp].referralFrom!=address(0))... */\n    tag_314:\n        /* \"contracts/stake_reward_MLM.sol\":2288:2291  i++ */\n      dup1\n      dup1\n      tag_315\n      swap1\n      tag_127\n      jump\t// in\n    tag_315:\n      swap2\n      pop\n      pop\n        /* \"contracts/stake_reward_MLM.sol\":2270:3466  for(uint i=0;i<20;i++)... */\n      jump(tag_287)\n    tag_288:\n      pop\n        /* \"contracts/stake_reward_MLM.sol\":1976:3477  { ... */\n      pop\n      pop\n      pop\n        /* \"contracts/stake_reward_MLM.sol\":1812:3477  function sendRewardToDUSDReferrals(address investor,uint _investedAmount)  internal  //this is the freferral function to transfer the reawards to referrals... */\n      pop\n      pop\n      jump\t// out\n    tag_165:\n      mload(0x40)\n      dup1\n      0xc0\n      add\n      0x40\n      mstore\n      dup1\n      0x00\n      dup2\n      mstore\n      0x20\n      add\n      0x00\n      dup2\n      mstore\n      0x20\n      add\n      0x00\n      dup2\n      mstore\n      0x20\n      add\n      0x00\n      dup2\n      mstore\n      0x20\n      add\n      0x00\n      dup2\n      mstore\n      0x20\n      add\n      iszero(iszero(0x00))\n      dup2\n      mstore\n      pop\n      swap1\n      jump\t// out\n        /* \"#utility.yul\":7:121   */\n    tag_316:\n        /* \"#utility.yul\":74:80   */\n      0x00\n        /* \"#utility.yul\":108:113   */\n      dup2\n        /* \"#utility.yul\":102:114   */\n      mload\n        /* \"#utility.yul\":92:114   */\n      swap1\n      pop\n        /* \"#utility.yul\":7:121   */\n      swap2\n      swap1\n      pop\n      jump\t// out\n        /* \"#utility.yul\":127:311   */\n    tag_317:\n        /* \"#utility.yul\":226:237   */\n      0x00\n        /* \"#utility.yul\":260:266   */\n      dup3\n        /* \"#utility.yul\":255:258   */\n      dup3\n        /* \"#utility.yul\":248:267   */\n      mstore\n        /* \"#utility.yul\":300:304   */\n      0x20\n        /* \"#utility.yul\":295:298   */\n      dup3\n        /* \"#utility.yul\":291:305   */\n      add\n        /* \"#utility.yul\":276:305   */\n      swap1\n      pop\n        /* \"#utility.yul\":127:311   */\n      swap3\n      swap2\n      pop\n      pop\n      jump\t// out\n        /* \"#utility.yul\":317:449   */\n    tag_318:\n        /* \"#utility.yul\":384:388   */\n      0x00\n        /* \"#utility.yul\":407:410   */\n      dup2\n        /* \"#utility.yul\":399:410   */\n      swap1\n      pop\n        /* \"#utility.yul\":437:441   */\n      0x20\n        /* \"#utility.yul\":432:435   */\n      dup3\n        /* \"#utility.yul\":428:442   */\n      add\n        /* \"#utility.yul\":420:442   */\n      swap1\n      pop\n        /* \"#utility.yul\":317:449   */\n      swap2\n      swap1\n      pop\n      jump\t// out\n        /* \"#utility.yul\":455:581   */\n    tag_319:\n        /* \"#utility.yul\":492:499   */\n      0x00\n        /* \"#utility.yul\":532:574   */\n      0xffffffffffffffffffffffffffffffffffffffff\n        /* \"#utility.yul\":525:530   */\n      dup3\n        /* \"#utility.yul\":521:575   */\n      and\n        /* \"#utility.yul\":510:575   */\n      swap1\n      pop\n        /* \"#utility.yul\":455:581   */\n      swap2\n      swap1\n      pop\n      jump\t// out\n        /* \"#utility.yul\":587:683   */\n    tag_320:\n        /* \"#utility.yul\":624:631   */\n      0x00\n        /* \"#utility.yul\":653:677   */\n      tag_371\n        /* \"#utility.yul\":671:676   */\n      dup3\n        /* \"#utility.yul\":653:677   */\n      tag_319\n      jump\t// in\n    tag_371:\n        /* \"#utility.yul\":642:677   */\n      swap1\n      pop\n        /* \"#utility.yul\":587:683   */\n      swap2\n      swap1\n      pop\n      jump\t// out\n        /* \"#utility.yul\":689:797   */\n    tag_321:\n        /* \"#utility.yul\":766:790   */\n      tag_373\n        /* \"#utility.yul\":784:789   */\n      dup2\n        /* \"#utility.yul\":766:790   */\n      tag_320\n      jump\t// in\n    tag_373:\n        /* \"#utility.yul\":761:764   */\n      dup3\n        /* \"#utility.yul\":754:791   */\n      mstore\n        /* \"#utility.yul\":689:797   */\n      pop\n      pop\n      jump\t// out\n        /* \"#utility.yul\":803:982   */\n    tag_322:\n        /* \"#utility.yul\":872:882   */\n      0x00\n        /* \"#utility.yul\":893:939   */\n      tag_375\n        /* \"#utility.yul\":935:938   */\n      dup4\n        /* \"#utility.yul\":927:933   */\n      dup4\n        /* \"#utility.yul\":893:939   */\n      tag_321\n      jump\t// in\n    tag_375:\n        /* \"#utility.yul\":971:975   */\n      0x20\n        /* \"#utility.yul\":966:969   */\n      dup4\n        /* \"#utility.yul\":962:976   */\n      add\n        /* \"#utility.yul\":948:976   */\n      swap1\n      pop\n        /* \"#utility.yul\":803:982   */\n      swap3\n      swap2\n      pop\n      pop\n      jump\t// out\n        /* \"#utility.yul\":988:1101   */\n    tag_323:\n        /* \"#utility.yul\":1058:1062   */\n      0x00\n        /* \"#utility.yul\":1090:1094   */\n      0x20\n        /* \"#utility.yul\":1085:1088   */\n      dup3\n        /* \"#utility.yul\":1081:1095   */\n      add\n        /* \"#utility.yul\":1073:1095   */\n      swap1\n      pop\n        /* \"#utility.yul\":988:1101   */\n      swap2\n      swap1\n      pop\n      jump\t// out\n        /* \"#utility.yul\":1137:1869   */\n    tag_324:\n        /* \"#utility.yul\":1256:1259   */\n      0x00\n        /* \"#utility.yul\":1285:1339   */\n      tag_378\n        /* \"#utility.yul\":1333:1338   */\n      dup3\n        /* \"#utility.yul\":1285:1339   */\n      tag_316\n      jump\t// in\n    tag_378:\n        /* \"#utility.yul\":1355:1441   */\n      tag_379\n        /* \"#utility.yul\":1434:1440   */\n      dup2\n        /* \"#utility.yul\":1429:1432   */\n      dup6\n        /* \"#utility.yul\":1355:1441   */\n      tag_317\n      jump\t// in\n    tag_379:\n        /* \"#utility.yul\":1348:1441   */\n      swap4\n      pop\n        /* \"#utility.yul\":1465:1521   */\n      tag_380\n        /* \"#utility.yul\":1515:1520   */\n      dup4\n        /* \"#utility.yul\":1465:1521   */\n      tag_318\n      jump\t// in\n    tag_380:\n        /* \"#utility.yul\":1544:1551   */\n      dup1\n        /* \"#utility.yul\":1575:1576   */\n      0x00\n        /* \"#utility.yul\":1560:1844   */\n    tag_381:\n        /* \"#utility.yul\":1585:1591   */\n      dup4\n        /* \"#utility.yul\":1582:1583   */\n      dup2\n        /* \"#utility.yul\":1579:1592   */\n      lt\n        /* \"#utility.yul\":1560:1844   */\n      iszero\n      tag_383\n      jumpi\n        /* \"#utility.yul\":1661:1667   */\n      dup2\n        /* \"#utility.yul\":1655:1668   */\n      mload\n        /* \"#utility.yul\":1688:1751   */\n      tag_384\n        /* \"#utility.yul\":1747:1750   */\n      dup9\n        /* \"#utility.yul\":1732:1745   */\n      dup3\n        /* \"#utility.yul\":1688:1751   */\n      tag_322\n      jump\t// in\n    tag_384:\n        /* \"#utility.yul\":1681:1751   */\n      swap8\n      pop\n        /* \"#utility.yul\":1774:1834   */\n      tag_385\n        /* \"#utility.yul\":1827:1833   */\n      dup4\n        /* \"#utility.yul\":1774:1834   */\n      tag_323\n      jump\t// in\n    tag_385:\n        /* \"#utility.yul\":1764:1834   */\n      swap3\n      pop\n        /* \"#utility.yul\":1620:1844   */\n      pop\n        /* \"#utility.yul\":1607:1608   */\n      0x01\n        /* \"#utility.yul\":1604:1605   */\n      dup2\n        /* \"#utility.yul\":1600:1609   */\n      add\n        /* \"#utility.yul\":1595:1609   */\n      swap1\n      pop\n        /* \"#utility.yul\":1560:1844   */\n      jump(tag_381)\n    tag_383:\n        /* \"#utility.yul\":1564:1578   */\n      pop\n        /* \"#utility.yul\":1860:1863   */\n      dup6\n        /* \"#utility.yul\":1853:1863   */\n      swap4\n      pop\n        /* \"#utility.yul\":1261:1869   */\n      pop\n      pop\n      pop\n        /* \"#utility.yul\":1137:1869   */\n      swap3\n      swap2\n      pop\n      pop\n      jump\t// out\n        /* \"#utility.yul\":1875:2248   */\n    tag_33:\n        /* \"#utility.yul\":2018:2022   */\n      0x00\n        /* \"#utility.yul\":2056:2058   */\n      0x20\n        /* \"#utility.yul\":2045:2054   */\n      dup3\n        /* \"#utility.yul\":2041:2059   */\n      add\n        /* \"#utility.yul\":2033:2059   */\n      swap1\n      pop\n        /* \"#utility.yul\":2105:2114   */\n      dup2\n        /* \"#utility.yul\":2099:2103   */\n      dup2\n        /* \"#utility.yul\":2095:2115   */\n      sub\n        /* \"#utility.yul\":2091:2092   */\n      0x00\n        /* \"#utility.yul\":2080:2089   */\n      dup4\n        /* \"#utility.yul\":2076:2093   */\n      add\n        /* \"#utility.yul\":2069:2116   */\n      mstore\n        /* \"#utility.yul\":2133:2241   */\n      tag_387\n        /* \"#utility.yul\":2236:2240   */\n      dup2\n        /* \"#utility.yul\":2227:2233   */\n      dup5\n        /* \"#utility.yul\":2133:2241   */\n      tag_324\n      jump\t// in\n    tag_387:\n        /* \"#utility.yul\":2125:2241   */\n      swap1\n      pop\n        /* \"#utility.yul\":1875:2248   */\n      swap3\n      swap2\n      pop\n      pop\n      jump\t// out\n        /* \"#utility.yul\":2254:2331   */\n    tag_325:\n        /* \"#utility.yul\":2291:2298   */\n      0x00\n        /* \"#utility.yul\":2320:2325   */\n      dup2\n        /* \"#utility.yul\":2309:2325   */\n      swap1\n      pop\n        /* \"#utility.yul\":2254:2331   */\n      swap2\n      swap1\n      pop\n      jump\t// out\n        /* \"#utility.yul\":2337:2455   */\n    tag_326:\n        /* \"#utility.yul\":2424:2448   */\n      tag_390\n        /* \"#utility.yul\":2442:2447   */\n      dup2\n        /* \"#utility.yul\":2424:2448   */\n      tag_325\n      jump\t// in\n    tag_390:\n        /* \"#utility.yul\":2419:2422   */\n      dup3\n        /* \"#utility.yul\":2412:2449   */\n      mstore\n        /* \"#utility.yul\":2337:2455   */\n      pop\n      pop\n      jump\t// out\n        /* \"#utility.yul\":2461:2683   */\n    tag_37:\n        /* \"#utility.yul\":2554:2558   */\n      0x00\n        /* \"#utility.yul\":2592:2594   */\n      0x20\n        /* \"#utility.yul\":2581:2590   */\n      dup3\n        /* \"#utility.yul\":2577:2595   */\n      add\n        /* \"#utility.yul\":2569:2595   */\n      swap1\n      pop\n        /* \"#utility.yul\":2605:2676   */\n      tag_392\n        /* \"#utility.yul\":2673:2674   */\n      0x00\n        /* \"#utility.yul\":2662:2671   */\n      dup4\n        /* \"#utility.yul\":2658:2675   */\n      add\n        /* \"#utility.yul\":2649:2655   */\n      dup5\n        /* \"#utility.yul\":2605:2676   */\n      tag_326\n      jump\t// in\n    tag_392:\n        /* \"#utility.yul\":2461:2683   */\n      swap3\n      swap2\n      pop\n      pop\n      jump\t// out\n        /* \"#utility.yul\":2770:2887   */\n    tag_328:\n        /* \"#utility.yul\":2879:2880   */\n      0x00\n        /* \"#utility.yul\":2876:2877   */\n      dup1\n        /* \"#utility.yul\":2869:2881   */\n      revert\n        /* \"#utility.yul\":3016:3138   */\n    tag_330:\n        /* \"#utility.yul\":3089:3113   */\n      tag_397\n        /* \"#utility.yul\":3107:3112   */\n      dup2\n        /* \"#utility.yul\":3089:3113   */\n      tag_325\n      jump\t// in\n    tag_397:\n        /* \"#utility.yul\":3082:3087   */\n      dup2\n        /* \"#utility.yul\":3079:3114   */\n      eq\n        /* \"#utility.yul\":3069:3132   */\n      tag_398\n      jumpi\n        /* \"#utility.yul\":3128:3129   */\n      0x00\n        /* \"#utility.yul\":3125:3126   */\n      dup1\n        /* \"#utility.yul\":3118:3130   */\n      revert\n        /* \"#utility.yul\":3069:3132   */\n    tag_398:\n        /* \"#utility.yul\":3016:3138   */\n      pop\n      jump\t// out\n        /* \"#utility.yul\":3144:3283   */\n    tag_331:\n        /* \"#utility.yul\":3190:3195   */\n      0x00\n        /* \"#utility.yul\":3228:3234   */\n      dup2\n        /* \"#utility.yul\":3215:3235   */\n      calldataload\n        /* \"#utility.yul\":3206:3235   */\n      swap1\n      pop\n        /* \"#utility.yul\":3244:3277   */\n      tag_400\n        /* \"#utility.yul\":3271:3276   */\n      dup2\n        /* \"#utility.yul\":3244:3277   */\n      tag_330\n      jump\t// in\n    tag_400:\n        /* \"#utility.yul\":3144:3283   */\n      swap3\n      swap2\n      pop\n      pop\n      jump\t// out\n        /* \"#utility.yul\":3289:3411   */\n    tag_332:\n        /* \"#utility.yul\":3362:3386   */\n      tag_402\n        /* \"#utility.yul\":3380:3385   */\n      dup2\n        /* \"#utility.yul\":3362:3386   */\n      tag_320\n      jump\t// in\n    tag_402:\n        /* \"#utility.yul\":3355:3360   */\n      dup2\n        /* \"#utility.yul\":3352:3387   */\n      eq\n        /* \"#utility.yul\":3342:3405   */\n      tag_403\n      jumpi\n        /* \"#utility.yul\":3401:3402   */\n      0x00\n        /* \"#utility.yul\":3398:3399   */\n      dup1\n        /* \"#utility.yul\":3391:3403   */\n      revert\n        /* \"#utility.yul\":3342:3405   */\n    tag_403:\n        /* \"#utility.yul\":3289:3411   */\n      pop\n      jump\t// out\n        /* \"#utility.yul\":3417:3556   */\n    tag_333:\n        /* \"#utility.yul\":3463:3468   */\n      0x00\n        /* \"#utility.yul\":3501:3507   */\n      dup2\n        /* \"#utility.yul\":3488:3508   */\n      calldataload\n        /* \"#utility.yul\":3479:3508   */\n      swap1\n      pop\n        /* \"#utility.yul\":3517:3550   */\n      tag_405\n        /* \"#utility.yul\":3544:3549   */\n      dup2\n        /* \"#utility.yul\":3517:3550   */\n      tag_332\n      jump\t// in\n    tag_405:\n        /* \"#utility.yul\":3417:3556   */\n      swap3\n      swap2\n      pop\n      pop\n      jump\t// out\n        /* \"#utility.yul\":3562:4036   */\n    tag_43:\n        /* \"#utility.yul\":3630:3636   */\n      0x00\n        /* \"#utility.yul\":3638:3644   */\n      dup1\n        /* \"#utility.yul\":3687:3689   */\n      0x40\n        /* \"#utility.yul\":3675:3684   */\n      dup4\n        /* \"#utility.yul\":3666:3673   */\n      dup6\n        /* \"#utility.yul\":3662:3685   */\n      sub\n        /* \"#utility.yul\":3658:3690   */\n      slt\n        /* \"#utility.yul\":3655:3774   */\n      iszero\n      tag_407\n      jumpi\n        /* \"#utility.yul\":3693:3772   */\n      tag_408\n      tag_328\n      jump\t// in\n    tag_408:\n        /* \"#utility.yul\":3655:3774   */\n    tag_407:\n        /* \"#utility.yul\":3813:3814   */\n      0x00\n        /* \"#utility.yul\":3838:3891   */\n      tag_409\n        /* \"#utility.yul\":3883:3890   */\n      dup6\n        /* \"#utility.yul\":3874:3880   */\n      dup3\n        /* \"#utility.yul\":3863:3872   */\n      dup7\n        /* \"#utility.yul\":3859:3881   */\n      add\n        /* \"#utility.yul\":3838:3891   */\n      tag_331\n      jump\t// in\n    tag_409:\n        /* \"#utility.yul\":3828:3891   */\n      swap3\n      pop\n        /* \"#utility.yul\":3784:3901   */\n      pop\n        /* \"#utility.yul\":3940:3942   */\n      0x20\n        /* \"#utility.yul\":3966:4019   */\n      tag_410\n        /* \"#utility.yul\":4011:4018   */\n      dup6\n        /* \"#utility.yul\":4002:4008   */\n      dup3\n        /* \"#utility.yul\":3991:4000   */\n      dup7\n        /* \"#utility.yul\":3987:4009   */\n      add\n        /* \"#utility.yul\":3966:4019   */\n      tag_333\n      jump\t// in\n    tag_410:\n        /* \"#utility.yul\":3956:4019   */\n      swap2\n      pop\n        /* \"#utility.yul\":3911:4029   */\n      pop\n        /* \"#utility.yul\":3562:4036   */\n      swap3\n      pop\n      swap3\n      swap1\n      pop\n      jump\t// out\n        /* \"#utility.yul\":4042:4132   */\n    tag_334:\n        /* \"#utility.yul\":4076:4083   */\n      0x00\n        /* \"#utility.yul\":4119:4124   */\n      dup2\n        /* \"#utility.yul\":4112:4125   */\n      iszero\n        /* \"#utility.yul\":4105:4126   */\n      iszero\n        /* \"#utility.yul\":4094:4126   */\n      swap1\n      pop\n        /* \"#utility.yul\":4042:4132   */\n      swap2\n      swap1\n      pop\n      jump\t// out\n        /* \"#utility.yul\":4138:4247   */\n    tag_335:\n        /* \"#utility.yul\":4219:4240   */\n      tag_413\n        /* \"#utility.yul\":4234:4239   */\n      dup2\n        /* \"#utility.yul\":4219:4240   */\n      tag_334\n      jump\t// in\n    tag_413:\n        /* \"#utility.yul\":4214:4217   */\n      dup3\n        /* \"#utility.yul\":4207:4241   */\n      mstore\n        /* \"#utility.yul\":4138:4247   */\n      pop\n      pop\n      jump\t// out\n        /* \"#utility.yul\":4253:4463   */\n    tag_46:\n        /* \"#utility.yul\":4340:4344   */\n      0x00\n        /* \"#utility.yul\":4378:4380   */\n      0x20\n        /* \"#utility.yul\":4367:4376   */\n      dup3\n        /* \"#utility.yul\":4363:4381   */\n      add\n        /* \"#utility.yul\":4355:4381   */\n      swap1\n      pop\n        /* \"#utility.yul\":4391:4456   */\n      tag_415\n        /* \"#utility.yul\":4453:4454   */\n      0x00\n        /* \"#utility.yul\":4442:4451   */\n      dup4\n        /* \"#utility.yul\":4438:4455   */\n      add\n        /* \"#utility.yul\":4429:4435   */\n      dup5\n        /* \"#utility.yul\":4391:4456   */\n      tag_335\n      jump\t// in\n    tag_415:\n        /* \"#utility.yul\":4253:4463   */\n      swap3\n      swap2\n      pop\n      pop\n      jump\t// out\n        /* \"#utility.yul\":4469:4798   */\n    tag_49:\n        /* \"#utility.yul\":4528:4534   */\n      0x00\n        /* \"#utility.yul\":4577:4579   */\n      0x20\n        /* \"#utility.yul\":4565:4574   */\n      dup3\n        /* \"#utility.yul\":4556:4563   */\n      dup5\n        /* \"#utility.yul\":4552:4575   */\n      sub\n        /* \"#utility.yul\":4548:4580   */\n      slt\n        /* \"#utility.yul\":4545:4664   */\n      iszero\n      tag_417\n      jumpi\n        /* \"#utility.yul\":4583:4662   */\n      tag_418\n      tag_328\n      jump\t// in\n    tag_418:\n        /* \"#utility.yul\":4545:4664   */\n    tag_417:\n        /* \"#utility.yul\":4703:4704   */\n      0x00\n        /* \"#utility.yul\":4728:4781   */\n      tag_419\n        /* \"#utility.yul\":4773:4780   */\n      dup5\n        /* \"#utility.yul\":4764:4770   */\n      dup3\n        /* \"#utility.yul\":4753:4762   */\n      dup6\n        /* \"#utility.yul\":4749:4771   */\n      add\n        /* \"#utility.yul\":4728:4781   */\n      tag_331\n      jump\t// in\n    tag_419:\n        /* \"#utility.yul\":4718:4781   */\n      swap2\n      pop\n        /* \"#utility.yul\":4674:4791   */\n      pop\n        /* \"#utility.yul\":4469:4798   */\n      swap3\n      swap2\n      pop\n      pop\n      jump\t// out\n        /* \"#utility.yul\":4804:4948   */\n    tag_336:\n        /* \"#utility.yul\":4901:4907   */\n      0x00\n        /* \"#utility.yul\":4935:4940   */\n      dup2\n        /* \"#utility.yul\":4929:4941   */\n      mload\n        /* \"#utility.yul\":4919:4941   */\n      swap1\n      pop\n        /* \"#utility.yul\":4804:4948   */\n      swap2\n      swap1\n      pop\n      jump\t// out\n        /* \"#utility.yul\":4954:5168   */\n    tag_337:\n        /* \"#utility.yul\":5083:5094   */\n      0x00\n        /* \"#utility.yul\":5117:5123   */\n      dup3\n        /* \"#utility.yul\":5112:5115   */\n      dup3\n        /* \"#utility.yul\":5105:5124   */\n      mstore\n        /* \"#utility.yul\":5157:5161   */\n      0x20\n        /* \"#utility.yul\":5152:5155   */\n      dup3\n        /* \"#utility.yul\":5148:5162   */\n      add\n        /* \"#utility.yul\":5133:5162   */\n      swap1\n      pop\n        /* \"#utility.yul\":4954:5168   */\n      swap3\n      swap2\n      pop\n      pop\n      jump\t// out\n        /* \"#utility.yul\":5174:5336   */\n    tag_338:\n        /* \"#utility.yul\":5271:5275   */\n      0x00\n        /* \"#utility.yul\":5294:5297   */\n      dup2\n        /* \"#utility.yul\":5286:5297   */\n      swap1\n      pop\n        /* \"#utility.yul\":5324:5328   */\n      0x20\n        /* \"#utility.yul\":5319:5322   */\n      dup3\n        /* \"#utility.yul\":5315:5329   */\n      add\n        /* \"#utility.yul\":5307:5329   */\n      swap1\n      pop\n        /* \"#utility.yul\":5174:5336   */\n      swap2\n      swap1\n      pop\n      jump\t// out\n        /* \"#utility.yul\":5342:5450   */\n    tag_339:\n        /* \"#utility.yul\":5419:5443   */\n      tag_424\n        /* \"#utility.yul\":5437:5442   */\n      dup2\n        /* \"#utility.yul\":5419:5443   */\n      tag_325\n      jump\t// in\n    tag_424:\n        /* \"#utility.yul\":5414:5417   */\n      dup3\n        /* \"#utility.yul\":5407:5444   */\n      mstore\n        /* \"#utility.yul\":5342:5450   */\n      pop\n      pop\n      jump\t// out\n        /* \"#utility.yul\":5456:5555   */\n    tag_340:\n        /* \"#utility.yul\":5527:5548   */\n      tag_426\n        /* \"#utility.yul\":5542:5547   */\n      dup2\n        /* \"#utility.yul\":5527:5548   */\n      tag_334\n      jump\t// in\n    tag_426:\n        /* \"#utility.yul\":5522:5525   */\n      dup3\n        /* \"#utility.yul\":5515:5549   */\n      mstore\n        /* \"#utility.yul\":5456:5555   */\n      pop\n      pop\n      jump\t// out\n        /* \"#utility.yul\":5629:6871   */\n    tag_341:\n        /* \"#utility.yul\":5776:5780   */\n      0xc0\n        /* \"#utility.yul\":5771:5774   */\n      dup3\n        /* \"#utility.yul\":5767:5781   */\n      add\n        /* \"#utility.yul\":5873:5877   */\n      0x00\n        /* \"#utility.yul\":5866:5871   */\n      dup3\n        /* \"#utility.yul\":5862:5878   */\n      add\n        /* \"#utility.yul\":5856:5879   */\n      mload\n        /* \"#utility.yul\":5892:5955   */\n      tag_428\n        /* \"#utility.yul\":5949:5953   */\n      0x00\n        /* \"#utility.yul\":5944:5947   */\n      dup6\n        /* \"#utility.yul\":5940:5954   */\n      add\n        /* \"#utility.yul\":5926:5938   */\n      dup3\n        /* \"#utility.yul\":5892:5955   */\n      tag_339\n      jump\t// in\n    tag_428:\n        /* \"#utility.yul\":5791:5965   */\n      pop\n        /* \"#utility.yul\":6056:6060   */\n      0x20\n        /* \"#utility.yul\":6049:6054   */\n      dup3\n        /* \"#utility.yul\":6045:6061   */\n      add\n        /* \"#utility.yul\":6039:6062   */\n      mload\n        /* \"#utility.yul\":6075:6138   */\n      tag_429\n        /* \"#utility.yul\":6132:6136   */\n      0x20\n        /* \"#utility.yul\":6127:6130   */\n      dup6\n        /* \"#utility.yul\":6123:6137   */\n      add\n        /* \"#utility.yul\":6109:6121   */\n      dup3\n        /* \"#utility.yul\":6075:6138   */\n      tag_339\n      jump\t// in\n    tag_429:\n        /* \"#utility.yul\":5975:6148   */\n      pop\n        /* \"#utility.yul\":6237:6241   */\n      0x40\n        /* \"#utility.yul\":6230:6235   */\n      dup3\n        /* \"#utility.yul\":6226:6242   */\n      add\n        /* \"#utility.yul\":6220:6243   */\n      mload\n        /* \"#utility.yul\":6256:6319   */\n      tag_430\n        /* \"#utility.yul\":6313:6317   */\n      0x40\n        /* \"#utility.yul\":6308:6311   */\n      dup6\n        /* \"#utility.yul\":6304:6318   */\n      add\n        /* \"#utility.yul\":6290:6302   */\n      dup3\n        /* \"#utility.yul\":6256:6319   */\n      tag_339\n      jump\t// in\n    tag_430:\n        /* \"#utility.yul\":6158:6329   */\n      pop\n        /* \"#utility.yul\":6420:6424   */\n      0x60\n        /* \"#utility.yul\":6413:6418   */\n      dup3\n        /* \"#utility.yul\":6409:6425   */\n      add\n        /* \"#utility.yul\":6403:6426   */\n      mload\n        /* \"#utility.yul\":6439:6502   */\n      tag_431\n        /* \"#utility.yul\":6496:6500   */\n      0x60\n        /* \"#utility.yul\":6491:6494   */\n      dup6\n        /* \"#utility.yul\":6487:6501   */\n      add\n        /* \"#utility.yul\":6473:6485   */\n      dup3\n        /* \"#utility.yul\":6439:6502   */\n      tag_339\n      jump\t// in\n    tag_431:\n        /* \"#utility.yul\":6339:6512   */\n      pop\n        /* \"#utility.yul\":6601:6605   */\n      0x80\n        /* \"#utility.yul\":6594:6599   */\n      dup3\n        /* \"#utility.yul\":6590:6606   */\n      add\n        /* \"#utility.yul\":6584:6607   */\n      mload\n        /* \"#utility.yul\":6620:6683   */\n      tag_432\n        /* \"#utility.yul\":6677:6681   */\n      0x80\n        /* \"#utility.yul\":6672:6675   */\n      dup6\n        /* \"#utility.yul\":6668:6682   */\n      add\n        /* \"#utility.yul\":6654:6666   */\n      dup3\n        /* \"#utility.yul\":6620:6683   */\n      tag_339\n      jump\t// in\n    tag_432:\n        /* \"#utility.yul\":6522:6693   */\n      pop\n        /* \"#utility.yul\":6778:6782   */\n      0xa0\n        /* \"#utility.yul\":6771:6776   */\n      dup3\n        /* \"#utility.yul\":6767:6783   */\n      add\n        /* \"#utility.yul\":6761:6784   */\n      mload\n        /* \"#utility.yul\":6797:6854   */\n      tag_433\n        /* \"#utility.yul\":6848:6852   */\n      0xa0\n        /* \"#utility.yul\":6843:6846   */\n      dup6\n        /* \"#utility.yul\":6839:6853   */\n      add\n        /* \"#utility.yul\":6825:6837   */\n      dup3\n        /* \"#utility.yul\":6797:6854   */\n      tag_340\n      jump\t// in\n    tag_433:\n        /* \"#utility.yul\":6703:6864   */\n      pop\n        /* \"#utility.yul\":5745:6871   */\n      pop\n        /* \"#utility.yul\":5629:6871   */\n      pop\n      pop\n      jump\t// out\n        /* \"#utility.yul\":6877:7176   */\n    tag_342:\n        /* \"#utility.yul\":7006:7016   */\n      0x00\n        /* \"#utility.yul\":7027:7133   */\n      tag_435\n        /* \"#utility.yul\":7129:7132   */\n      dup4\n        /* \"#utility.yul\":7121:7127   */\n      dup4\n        /* \"#utility.yul\":7027:7133   */\n      tag_341\n      jump\t// in\n    tag_435:\n        /* \"#utility.yul\":7165:7169   */\n      0xc0\n        /* \"#utility.yul\":7160:7163   */\n      dup4\n        /* \"#utility.yul\":7156:7170   */\n      add\n        /* \"#utility.yul\":7142:7170   */\n      swap1\n      pop\n        /* \"#utility.yul\":6877:7176   */\n      swap3\n      swap2\n      pop\n      pop\n      jump\t// out\n        /* \"#utility.yul\":7182:7325   */\n    tag_343:\n        /* \"#utility.yul\":7282:7286   */\n      0x00\n        /* \"#utility.yul\":7314:7318   */\n      0x20\n        /* \"#utility.yul\":7309:7312   */\n      dup3\n        /* \"#utility.yul\":7305:7319   */\n      add\n        /* \"#utility.yul\":7297:7319   */\n      swap1\n      pop\n        /* \"#utility.yul\":7182:7325   */\n      swap2\n      swap1\n      pop\n      jump\t// out\n        /* \"#utility.yul\":7403:8375   */\n    tag_344:\n        /* \"#utility.yul\":7582:7585   */\n      0x00\n        /* \"#utility.yul\":7611:7695   */\n      tag_438\n        /* \"#utility.yul\":7689:7694   */\n      dup3\n        /* \"#utility.yul\":7611:7695   */\n      tag_336\n      jump\t// in\n    tag_438:\n        /* \"#utility.yul\":7711:7827   */\n      tag_439\n        /* \"#utility.yul\":7820:7826   */\n      dup2\n        /* \"#utility.yul\":7815:7818   */\n      dup6\n        /* \"#utility.yul\":7711:7827   */\n      tag_337\n      jump\t// in\n    tag_439:\n        /* \"#utility.yul\":7704:7827   */\n      swap4\n      pop\n        /* \"#utility.yul\":7851:7937   */\n      tag_440\n        /* \"#utility.yul\":7931:7936   */\n      dup4\n        /* \"#utility.yul\":7851:7937   */\n      tag_338\n      jump\t// in\n    tag_440:\n        /* \"#utility.yul\":7960:7967   */\n      dup1\n        /* \"#utility.yul\":7991:7992   */\n      0x00\n        /* \"#utility.yul\":7976:8350   */\n    tag_441:\n        /* \"#utility.yul\":8001:8007   */\n      dup4\n        /* \"#utility.yul\":7998:7999   */\n      dup2\n        /* \"#utility.yul\":7995:8008   */\n      lt\n        /* \"#utility.yul\":7976:8350   */\n      iszero\n      tag_443\n      jumpi\n        /* \"#utility.yul\":8077:8083   */\n      dup2\n        /* \"#utility.yul\":8071:8084   */\n      mload\n        /* \"#utility.yul\":8104:8227   */\n      tag_444\n        /* \"#utility.yul\":8223:8226   */\n      dup9\n        /* \"#utility.yul\":8208:8221   */\n      dup3\n        /* \"#utility.yul\":8104:8227   */\n      tag_342\n      jump\t// in\n    tag_444:\n        /* \"#utility.yul\":8097:8227   */\n      swap8\n      pop\n        /* \"#utility.yul\":8250:8340   */\n      tag_445\n        /* \"#utility.yul\":8333:8339   */\n      dup4\n        /* \"#utility.yul\":8250:8340   */\n      tag_343\n      jump\t// in\n    tag_445:\n        /* \"#utility.yul\":8240:8340   */\n      swap3\n      pop\n        /* \"#utility.yul\":8036:8350   */\n      pop\n        /* \"#utility.yul\":8023:8024   */\n      0x01\n        /* \"#utility.yul\":8020:8021   */\n      dup2\n        /* \"#utility.yul\":8016:8025   */\n      add\n        /* \"#utility.yul\":8011:8025   */\n      swap1\n      pop\n        /* \"#utility.yul\":7976:8350   */\n      jump(tag_441)\n    tag_443:\n        /* \"#utility.yul\":7980:7994   */\n      pop\n        /* \"#utility.yul\":8366:8369   */\n      dup6\n        /* \"#utility.yul\":8359:8369   */\n      swap4\n      pop\n        /* \"#utility.yul\":7587:8375   */\n      pop\n      pop\n      pop\n        /* \"#utility.yul\":7403:8375   */\n      swap3\n      swap2\n      pop\n      pop\n      jump\t// out\n        /* \"#utility.yul\":8381:8874   */\n    tag_54:\n        /* \"#utility.yul\":8584:8588   */\n      0x00\n        /* \"#utility.yul\":8622:8624   */\n      0x20\n        /* \"#utility.yul\":8611:8620   */\n      dup3\n        /* \"#utility.yul\":8607:8625   */\n      add\n        /* \"#utility.yul\":8599:8625   */\n      swap1\n      pop\n        /* \"#utility.yul\":8671:8680   */\n      dup2\n        /* \"#utility.yul\":8665:8669   */\n      dup2\n        /* \"#utility.yul\":8661:8681   */\n      sub\n        /* \"#utility.yul\":8657:8658   */\n      0x00\n        /* \"#utility.yul\":8646:8655   */\n      dup4\n        /* \"#utility.yul\":8642:8659   */\n      add\n        /* \"#utility.yul\":8635:8682   */\n      mstore\n        /* \"#utility.yul\":8699:8867   */\n      tag_447\n        /* \"#utility.yul\":8862:8866   */\n      dup2\n        /* \"#utility.yul\":8853:8859   */\n      dup5\n        /* \"#utility.yul\":8699:8867   */\n      tag_344\n      jump\t// in\n    tag_447:\n        /* \"#utility.yul\":8691:8867   */\n      swap1\n      pop\n        /* \"#utility.yul\":8381:8874   */\n      swap3\n      swap2\n      pop\n      pop\n      jump\t// out\n        /* \"#utility.yul\":8880:9645   */\n    tag_60:\n        /* \"#utility.yul\":8966:8972   */\n      0x00\n        /* \"#utility.yul\":8974:8980   */\n      dup1\n        /* \"#utility.yul\":8982:8988   */\n      0x00\n        /* \"#utility.yul\":8990:8996   */\n      dup1\n        /* \"#utility.yul\":9039:9042   */\n      0x80\n        /* \"#utility.yul\":9027:9036   */\n      dup6\n        /* \"#utility.yul\":9018:9025   */\n      dup8\n        /* \"#utility.yul\":9014:9037   */\n      sub\n        /* \"#utility.yul\":9010:9043   */\n      slt\n        /* \"#utility.yul\":9007:9127   */\n      iszero\n      tag_449\n      jumpi\n        /* \"#utility.yul\":9046:9125   */\n      tag_450\n      tag_328\n      jump\t// in\n    tag_450:\n        /* \"#utility.yul\":9007:9127   */\n    tag_449:\n        /* \"#utility.yul\":9166:9167   */\n      0x00\n        /* \"#utility.yul\":9191:9244   */\n      tag_451\n        /* \"#utility.yul\":9236:9243   */\n      dup8\n        /* \"#utility.yul\":9227:9233   */\n      dup3\n        /* \"#utility.yul\":9216:9225   */\n      dup9\n        /* \"#utility.yul\":9212:9234   */\n      add\n        /* \"#utility.yul\":9191:9244   */\n      tag_331\n      jump\t// in\n    tag_451:\n        /* \"#utility.yul\":9181:9244   */\n      swap5\n      pop\n        /* \"#utility.yul\":9137:9254   */\n      pop\n        /* \"#utility.yul\":9293:9295   */\n      0x20\n        /* \"#utility.yul\":9319:9372   */\n      tag_452\n        /* \"#utility.yul\":9364:9371   */\n      dup8\n        /* \"#utility.yul\":9355:9361   */\n      dup3\n        /* \"#utility.yul\":9344:9353   */\n      dup9\n        /* \"#utility.yul\":9340:9362   */\n      add\n        /* \"#utility.yul\":9319:9372   */\n      tag_331\n      jump\t// in\n    tag_452:\n        /* \"#utility.yul\":9309:9372   */\n      swap4\n      pop\n        /* \"#utility.yul\":9264:9382   */\n      pop\n        /* \"#utility.yul\":9421:9423   */\n      0x40\n        /* \"#utility.yul\":9447:9500   */\n      tag_453\n        /* \"#utility.yul\":9492:9499   */\n      dup8\n        /* \"#utility.yul\":9483:9489   */\n      dup3\n        /* \"#utility.yul\":9472:9481   */\n      dup9\n        /* \"#utility.yul\":9468:9490   */\n      add\n        /* \"#utility.yul\":9447:9500   */\n      tag_331\n      jump\t// in\n    tag_453:\n        /* \"#utility.yul\":9437:9500   */\n      swap3\n      pop\n        /* \"#utility.yul\":9392:9510   */\n      pop\n        /* \"#utility.yul\":9549:9551   */\n      0x60\n        /* \"#utility.yul\":9575:9628   */\n      tag_454\n        /* \"#utility.yul\":9620:9627   */\n      dup8\n        /* \"#utility.yul\":9611:9617   */\n      dup3\n        /* \"#utility.yul\":9600:9609   */\n      dup9\n        /* \"#utility.yul\":9596:9618   */\n      add\n        /* \"#utility.yul\":9575:9628   */\n      tag_331\n      jump\t// in\n    tag_454:\n        /* \"#utility.yul\":9565:9628   */\n      swap2\n      pop\n        /* \"#utility.yul\":9520:9638   */\n      pop\n        /* \"#utility.yul\":8880:9645   */\n      swap3\n      swap6\n      swap2\n      swap5\n      pop\n      swap3\n      pop\n      jump\t// out\n        /* \"#utility.yul\":9651:9769   */\n    tag_345:\n        /* \"#utility.yul\":9738:9762   */\n      tag_456\n        /* \"#utility.yul\":9756:9761   */\n      dup2\n        /* \"#utility.yul\":9738:9762   */\n      tag_320\n      jump\t// in\n    tag_456:\n        /* \"#utility.yul\":9733:9736   */\n      dup3\n        /* \"#utility.yul\":9726:9763   */\n      mstore\n        /* \"#utility.yul\":9651:9769   */\n      pop\n      pop\n      jump\t// out\n        /* \"#utility.yul\":9775:9997   */\n    tag_74:\n        /* \"#utility.yul\":9868:9872   */\n      0x00\n        /* \"#utility.yul\":9906:9908   */\n      0x20\n        /* \"#utility.yul\":9895:9904   */\n      dup3\n        /* \"#utility.yul\":9891:9909   */\n      add\n        /* \"#utility.yul\":9883:9909   */\n      swap1\n      pop\n        /* \"#utility.yul\":9919:9990   */\n      tag_458\n        /* \"#utility.yul\":9987:9988   */\n      0x00\n        /* \"#utility.yul\":9976:9985   */\n      dup4\n        /* \"#utility.yul\":9972:9989   */\n      add\n        /* \"#utility.yul\":9963:9969   */\n      dup5\n        /* \"#utility.yul\":9919:9990   */\n      tag_345\n      jump\t// in\n    tag_458:\n        /* \"#utility.yul\":9775:9997   */\n      swap3\n      swap2\n      pop\n      pop\n      jump\t// out\n        /* \"#utility.yul\":10003:10477   */\n    tag_83:\n        /* \"#utility.yul\":10071:10077   */\n      0x00\n        /* \"#utility.yul\":10079:10085   */\n      dup1\n        /* \"#utility.yul\":10128:10130   */\n      0x40\n        /* \"#utility.yul\":10116:10125   */\n      dup4\n        /* \"#utility.yul\":10107:10114   */\n      dup6\n        /* \"#utility.yul\":10103:10126   */\n      sub\n        /* \"#utility.yul\":10099:10131   */\n      slt\n        /* \"#utility.yul\":10096:10215   */\n      iszero\n      tag_460\n      jumpi\n        /* \"#utility.yul\":10134:10213   */\n      tag_461\n      tag_328\n      jump\t// in\n    tag_461:\n        /* \"#utility.yul\":10096:10215   */\n    tag_460:\n        /* \"#utility.yul\":10254:10255   */\n      0x00\n        /* \"#utility.yul\":10279:10332   */\n      tag_462\n        /* \"#utility.yul\":10324:10331   */\n      dup6\n        /* \"#utility.yul\":10315:10321   */\n      dup3\n        /* \"#utility.yul\":10304:10313   */\n      dup7\n        /* \"#utility.yul\":10300:10322   */\n      add\n        /* \"#utility.yul\":10279:10332   */\n      tag_331\n      jump\t// in\n    tag_462:\n        /* \"#utility.yul\":10269:10332   */\n      swap3\n      pop\n        /* \"#utility.yul\":10225:10342   */\n      pop\n        /* \"#utility.yul\":10381:10383   */\n      0x20\n        /* \"#utility.yul\":10407:10460   */\n      tag_463\n        /* \"#utility.yul\":10452:10459   */\n      dup6\n        /* \"#utility.yul\":10443:10449   */\n      dup3\n        /* \"#utility.yul\":10432:10441   */\n      dup7\n        /* \"#utility.yul\":10428:10450   */\n      add\n        /* \"#utility.yul\":10407:10460   */\n      tag_331\n      jump\t// in\n    tag_463:\n        /* \"#utility.yul\":10397:10460   */\n      swap2\n      pop\n        /* \"#utility.yul\":10352:10470   */\n      pop\n        /* \"#utility.yul\":10003:10477   */\n      swap3\n      pop\n      swap3\n      swap1\n      pop\n      jump\t// out\n        /* \"#utility.yul\":10483:10597   */\n    tag_346:\n        /* \"#utility.yul\":10550:10556   */\n      0x00\n        /* \"#utility.yul\":10584:10589   */\n      dup2\n        /* \"#utility.yul\":10578:10590   */\n      mload\n        /* \"#utility.yul\":10568:10590   */\n      swap1\n      pop\n        /* \"#utility.yul\":10483:10597   */\n      swap2\n      swap1\n      pop\n      jump\t// out\n        /* \"#utility.yul\":10603:10787   */\n    tag_347:\n        /* \"#utility.yul\":10702:10713   */\n      0x00\n        /* \"#utility.yul\":10736:10742   */\n      dup3\n        /* \"#utility.yul\":10731:10734   */\n      dup3\n        /* \"#utility.yul\":10724:10743   */\n      mstore\n        /* \"#utility.yul\":10776:10780   */\n      0x20\n        /* \"#utility.yul\":10771:10774   */\n      dup3\n        /* \"#utility.yul\":10767:10781   */\n      add\n        /* \"#utility.yul\":10752:10781   */\n      swap1\n      pop\n        /* \"#utility.yul\":10603:10787   */\n      swap3\n      swap2\n      pop\n      pop\n      jump\t// out\n        /* \"#utility.yul\":10793:10925   */\n    tag_348:\n        /* \"#utility.yul\":10860:10864   */\n      0x00\n        /* \"#utility.yul\":10883:10886   */\n      dup2\n        /* \"#utility.yul\":10875:10886   */\n      swap1\n      pop\n        /* \"#utility.yul\":10913:10917   */\n      0x20\n        /* \"#utility.yul\":10908:10911   */\n      dup3\n        /* \"#utility.yul\":10904:10918   */\n      add\n        /* \"#utility.yul\":10896:10918   */\n      swap1\n      pop\n        /* \"#utility.yul\":10793:10925   */\n      swap2\n      swap1\n      pop\n      jump\t// out\n        /* \"#utility.yul\":10931:11110   */\n    tag_349:\n        /* \"#utility.yul\":11000:11010   */\n      0x00\n        /* \"#utility.yul\":11021:11067   */\n      tag_468\n        /* \"#utility.yul\":11063:11066   */\n      dup4\n        /* \"#utility.yul\":11055:11061   */\n      dup4\n        /* \"#utility.yul\":11021:11067   */\n      tag_339\n      jump\t// in\n    tag_468:\n        /* \"#utility.yul\":11099:11103   */\n      0x20\n        /* \"#utility.yul\":11094:11097   */\n      dup4\n        /* \"#utility.yul\":11090:11104   */\n      add\n        /* \"#utility.yul\":11076:11104   */\n      swap1\n      pop\n        /* \"#utility.yul\":10931:11110   */\n      swap3\n      swap2\n      pop\n      pop\n      jump\t// out\n        /* \"#utility.yul\":11116:11229   */\n    tag_350:\n        /* \"#utility.yul\":11186:11190   */\n      0x00\n        /* \"#utility.yul\":11218:11222   */\n      0x20\n        /* \"#utility.yul\":11213:11216   */\n      dup3\n        /* \"#utility.yul\":11209:11223   */\n      add\n        /* \"#utility.yul\":11201:11223   */\n      swap1\n      pop\n        /* \"#utility.yul\":11116:11229   */\n      swap2\n      swap1\n      pop\n      jump\t// out\n        /* \"#utility.yul\":11265:11997   */\n    tag_351:\n        /* \"#utility.yul\":11384:11387   */\n      0x00\n        /* \"#utility.yul\":11413:11467   */\n      tag_471\n        /* \"#utility.yul\":11461:11466   */\n      dup3\n        /* \"#utility.yul\":11413:11467   */\n      tag_346\n      jump\t// in\n    tag_471:\n        /* \"#utility.yul\":11483:11569   */\n      tag_472\n        /* \"#utility.yul\":11562:11568   */\n      dup2\n        /* \"#utility.yul\":11557:11560   */\n      dup6\n        /* \"#utility.yul\":11483:11569   */\n      tag_347\n      jump\t// in\n    tag_472:\n        /* \"#utility.yul\":11476:11569   */\n      swap4\n      pop\n        /* \"#utility.yul\":11593:11649   */\n      tag_473\n        /* \"#utility.yul\":11643:11648   */\n      dup4\n        /* \"#utility.yul\":11593:11649   */\n      tag_348\n      jump\t// in\n    tag_473:\n        /* \"#utility.yul\":11672:11679   */\n      dup1\n        /* \"#utility.yul\":11703:11704   */\n      0x00\n        /* \"#utility.yul\":11688:11972   */\n    tag_474:\n        /* \"#utility.yul\":11713:11719   */\n      dup4\n        /* \"#utility.yul\":11710:11711   */\n      dup2\n        /* \"#utility.yul\":11707:11720   */\n      lt\n        /* \"#utility.yul\":11688:11972   */\n      iszero\n      tag_476\n      jumpi\n        /* \"#utility.yul\":11789:11795   */\n      dup2\n        /* \"#utility.yul\":11783:11796   */\n      mload\n        /* \"#utility.yul\":11816:11879   */\n      tag_477\n        /* \"#utility.yul\":11875:11878   */\n      dup9\n        /* \"#utility.yul\":11860:11873   */\n      dup3\n        /* \"#utility.yul\":11816:11879   */\n      tag_349\n      jump\t// in\n    tag_477:\n        /* \"#utility.yul\":11809:11879   */\n      swap8\n      pop\n        /* \"#utility.yul\":11902:11962   */\n      tag_478\n        /* \"#utility.yul\":11955:11961   */\n      dup4\n        /* \"#utility.yul\":11902:11962   */\n      tag_350\n      jump\t// in\n    tag_478:\n        /* \"#utility.yul\":11892:11962   */\n      swap3\n      pop\n        /* \"#utility.yul\":11748:11972   */\n      pop\n        /* \"#utility.yul\":11735:11736   */\n      0x01\n        /* \"#utility.yul\":11732:11733   */\n      dup2\n        /* \"#utility.yul\":11728:11737   */\n      add\n        /* \"#utility.yul\":11723:11737   */\n      swap1\n      pop\n        /* \"#utility.yul\":11688:11972   */\n      jump(tag_474)\n    tag_476:\n        /* \"#utility.yul\":11692:11706   */\n      pop\n        /* \"#utility.yul\":11988:11991   */\n      dup6\n        /* \"#utility.yul\":11981:11991   */\n      swap4\n      pop\n        /* \"#utility.yul\":11389:11997   */\n      pop\n      pop\n      pop\n        /* \"#utility.yul\":11265:11997   */\n      swap3\n      swap2\n      pop\n      pop\n      jump\t// out\n        /* \"#utility.yul\":12003:12376   */\n    tag_88:\n        /* \"#utility.yul\":12146:12150   */\n      0x00\n        /* \"#utility.yul\":12184:12186   */\n      0x20\n        /* \"#utility.yul\":12173:12182   */\n      dup3\n        /* \"#utility.yul\":12169:12187   */\n      add\n        /* \"#utility.yul\":12161:12187   */\n      swap1\n      pop\n        /* \"#utility.yul\":12233:12242   */\n      dup2\n        /* \"#utility.yul\":12227:12231   */\n      dup2\n        /* \"#utility.yul\":12223:12243   */\n      sub\n        /* \"#utility.yul\":12219:12220   */\n      0x00\n        /* \"#utility.yul\":12208:12217   */\n      dup4\n        /* \"#utility.yul\":12204:12221   */\n      add\n        /* \"#utility.yul\":12197:12244   */\n      mstore\n        /* \"#utility.yul\":12261:12369   */\n      tag_480\n        /* \"#utility.yul\":12364:12368   */\n      dup2\n        /* \"#utility.yul\":12355:12361   */\n      dup5\n        /* \"#utility.yul\":12261:12369   */\n      tag_351\n      jump\t// in\n    tag_480:\n        /* \"#utility.yul\":12253:12369   */\n      swap1\n      pop\n        /* \"#utility.yul\":12003:12376   */\n      swap3\n      swap2\n      pop\n      pop\n      jump\t// out\n        /* \"#utility.yul\":12382:12711   */\n    tag_97:\n        /* \"#utility.yul\":12441:12447   */\n      0x00\n        /* \"#utility.yul\":12490:12492   */\n      0x20\n        /* \"#utility.yul\":12478:12487   */\n      dup3\n        /* \"#utility.yul\":12469:12476   */\n      dup5\n        /* \"#utility.yul\":12465:12488   */\n      sub\n        /* \"#utility.yul\":12461:12493   */\n      slt\n        /* \"#utility.yul\":12458:12577   */\n      iszero\n      tag_482\n      jumpi\n        /* \"#utility.yul\":12496:12575   */\n      tag_483\n      tag_328\n      jump\t// in\n    tag_483:\n        /* \"#utility.yul\":12458:12577   */\n    tag_482:\n        /* \"#utility.yul\":12616:12617   */\n      0x00\n        /* \"#utility.yul\":12641:12694   */\n      tag_484\n        /* \"#utility.yul\":12686:12693   */\n      dup5\n        /* \"#utility.yul\":12677:12683   */\n      dup3\n        /* \"#utility.yul\":12666:12675   */\n      dup6\n        /* \"#utility.yul\":12662:12684   */\n      add\n        /* \"#utility.yul\":12641:12694   */\n      tag_333\n      jump\t// in\n    tag_484:\n        /* \"#utility.yul\":12631:12694   */\n      swap2\n      pop\n        /* \"#utility.yul\":12587:12704   */\n      pop\n        /* \"#utility.yul\":12382:12711   */\n      swap3\n      swap2\n      pop\n      pop\n      jump\t// out\n        /* \"#utility.yul\":12717:13591   */\n    tag_100:\n        /* \"#utility.yul\":12972:12976   */\n      0x00\n        /* \"#utility.yul\":13010:13013   */\n      0xe0\n        /* \"#utility.yul\":12999:13008   */\n      dup3\n        /* \"#utility.yul\":12995:13014   */\n      add\n        /* \"#utility.yul\":12987:13014   */\n      swap1\n      pop\n        /* \"#utility.yul\":13024:13095   */\n      tag_486\n        /* \"#utility.yul\":13092:13093   */\n      0x00\n        /* \"#utility.yul\":13081:13090   */\n      dup4\n        /* \"#utility.yul\":13077:13094   */\n      add\n        /* \"#utility.yul\":13068:13074   */\n      dup11\n        /* \"#utility.yul\":13024:13095   */\n      tag_345\n      jump\t// in\n    tag_486:\n        /* \"#utility.yul\":13105:13177   */\n      tag_487\n        /* \"#utility.yul\":13173:13175   */\n      0x20\n        /* \"#utility.yul\":13162:13171   */\n      dup4\n        /* \"#utility.yul\":13158:13176   */\n      add\n        /* \"#utility.yul\":13149:13155   */\n      dup10\n        /* \"#utility.yul\":13105:13177   */\n      tag_326\n      jump\t// in\n    tag_487:\n        /* \"#utility.yul\":13187:13259   */\n      tag_488\n        /* \"#utility.yul\":13255:13257   */\n      0x40\n        /* \"#utility.yul\":13244:13253   */\n      dup4\n        /* \"#utility.yul\":13240:13258   */\n      add\n        /* \"#utility.yul\":13231:13237   */\n      dup9\n        /* \"#utility.yul\":13187:13259   */\n      tag_326\n      jump\t// in\n    tag_488:\n        /* \"#utility.yul\":13269:13341   */\n      tag_489\n        /* \"#utility.yul\":13337:13339   */\n      0x60\n        /* \"#utility.yul\":13326:13335   */\n      dup4\n        /* \"#utility.yul\":13322:13340   */\n      add\n        /* \"#utility.yul\":13313:13319   */\n      dup8\n        /* \"#utility.yul\":13269:13341   */\n      tag_326\n      jump\t// in\n    tag_489:\n        /* \"#utility.yul\":13351:13424   */\n      tag_490\n        /* \"#utility.yul\":13419:13422   */\n      0x80\n        /* \"#utility.yul\":13408:13417   */\n      dup4\n        /* \"#utility.yul\":13404:13423   */\n      add\n        /* \"#utility.yul\":13395:13401   */\n      dup7\n        /* \"#utility.yul\":13351:13424   */\n      tag_326\n      jump\t// in\n    tag_490:\n        /* \"#utility.yul\":13434:13501   */\n      tag_491\n        /* \"#utility.yul\":13496:13499   */\n      0xa0\n        /* \"#utility.yul\":13485:13494   */\n      dup4\n        /* \"#utility.yul\":13481:13500   */\n      add\n        /* \"#utility.yul\":13472:13478   */\n      dup6\n        /* \"#utility.yul\":13434:13501   */\n      tag_335\n      jump\t// in\n    tag_491:\n        /* \"#utility.yul\":13511:13584   */\n      tag_492\n        /* \"#utility.yul\":13579:13582   */\n      0xc0\n        /* \"#utility.yul\":13568:13577   */\n      dup4\n        /* \"#utility.yul\":13564:13583   */\n      add\n        /* \"#utility.yul\":13555:13561   */\n      dup5\n        /* \"#utility.yul\":13511:13584   */\n      tag_326\n      jump\t// in\n    tag_492:\n        /* \"#utility.yul\":12717:13591   */\n      swap9\n      swap8\n      pop\n      pop\n      pop\n      pop\n      pop\n      pop\n      pop\n      pop\n      jump\t// out\n        /* \"#utility.yul\":13597:13766   */\n    tag_352:\n        /* \"#utility.yul\":13681:13692   */\n      0x00\n        /* \"#utility.yul\":13715:13721   */\n      dup3\n        /* \"#utility.yul\":13710:13713   */\n      dup3\n        /* \"#utility.yul\":13703:13722   */\n      mstore\n        /* \"#utility.yul\":13755:13759   */\n      0x20\n        /* \"#utility.yul\":13750:13753   */\n      dup3\n        /* \"#utility.yul\":13746:13760   */\n      add\n        /* \"#utility.yul\":13731:13760   */\n      swap1\n      pop\n        /* \"#utility.yul\":13597:13766   */\n      swap3\n      swap2\n      pop\n      pop\n      jump\t// out\n        /* \"#utility.yul\":13772:14012   */\n    tag_353:\n        /* \"#utility.yul\":13912:13946   */\n      0x76616c7565206973206e6f742067726561746572207468616e20313030303020\n        /* \"#utility.yul\":13908:13909   */\n      0x00\n        /* \"#utility.yul\":13900:13906   */\n      dup3\n        /* \"#utility.yul\":13896:13910   */\n      add\n        /* \"#utility.yul\":13889:13947   */\n      mstore\n        /* \"#utility.yul\":13981:14004   */\n      0x616e64206c657373207468616e20353030303030300000000000000000000000\n        /* \"#utility.yul\":13976:13978   */\n      0x20\n        /* \"#utility.yul\":13968:13974   */\n      dup3\n        /* \"#utility.yul\":13964:13979   */\n      add\n        /* \"#utility.yul\":13957:14005   */\n      mstore\n        /* \"#utility.yul\":13772:14012   */\n      pop\n      jump\t// out\n        /* \"#utility.yul\":14018:14384   */\n    tag_354:\n        /* \"#utility.yul\":14160:14163   */\n      0x00\n        /* \"#utility.yul\":14181:14248   */\n      tag_496\n        /* \"#utility.yul\":14245:14247   */\n      0x35\n        /* \"#utility.yul\":14240:14243   */\n      dup4\n        /* \"#utility.yul\":14181:14248   */\n      tag_352\n      jump\t// in\n    tag_496:\n        /* \"#utility.yul\":14174:14248   */\n      swap2\n      pop\n        /* \"#utility.yul\":14257:14350   */\n      tag_497\n        /* \"#utility.yul\":14346:14349   */\n      dup3\n        /* \"#utility.yul\":14257:14350   */\n      tag_353\n      jump\t// in\n    tag_497:\n        /* \"#utility.yul\":14375:14377   */\n      0x40\n        /* \"#utility.yul\":14370:14373   */\n      dup3\n        /* \"#utility.yul\":14366:14378   */\n      add\n        /* \"#utility.yul\":14359:14378   */\n      swap1\n      pop\n        /* \"#utility.yul\":14018:14384   */\n      swap2\n      swap1\n      pop\n      jump\t// out\n        /* \"#utility.yul\":14390:14809   */\n    tag_124:\n        /* \"#utility.yul\":14556:14560   */\n      0x00\n        /* \"#utility.yul\":14594:14596   */\n      0x20\n        /* \"#utility.yul\":14583:14592   */\n      dup3\n        /* \"#utility.yul\":14579:14597   */\n      add\n        /* \"#utility.yul\":14571:14597   */\n      swap1\n      pop\n        /* \"#utility.yul\":14643:14652   */\n      dup2\n        /* \"#utility.yul\":14637:14641   */\n      dup2\n        /* \"#utility.yul\":14633:14653   */\n      sub\n        /* \"#utility.yul\":14629:14630   */\n      0x00\n        /* \"#utility.yul\":14618:14627   */\n      dup4\n        /* \"#utility.yul\":14614:14631   */\n      add\n        /* \"#utility.yul\":14607:14654   */\n      mstore\n        /* \"#utility.yul\":14671:14802   */\n      tag_499\n        /* \"#utility.yul\":14797:14801   */\n      dup2\n        /* \"#utility.yul\":14671:14802   */\n      tag_354\n      jump\t// in\n    tag_499:\n        /* \"#utility.yul\":14663:14802   */\n      swap1\n      pop\n        /* \"#utility.yul\":14390:14809   */\n      swap2\n      swap1\n      pop\n      jump\t// out\n        /* \"#utility.yul\":14815:14995   */\n    tag_355:\n        /* \"#utility.yul\":14863:14940   */\n      0x4e487b7100000000000000000000000000000000000000000000000000000000\n        /* \"#utility.yul\":14860:14861   */\n      0x00\n        /* \"#utility.yul\":14853:14941   */\n      mstore\n        /* \"#utility.yul\":14960:14964   */\n      0x11\n        /* \"#utility.yul\":14957:14958   */\n      0x04\n        /* \"#utility.yul\":14950:14965   */\n      mstore\n        /* \"#utility.yul\":14984:14988   */\n      0x24\n        /* \"#utility.yul\":14981:14982   */\n      0x00\n        /* \"#utility.yul\":14974:14989   */\n      revert\n        /* \"#utility.yul\":15001:15234   */\n    tag_127:\n        /* \"#utility.yul\":15040:15043   */\n      0x00\n        /* \"#utility.yul\":15063:15087   */\n      tag_502\n        /* \"#utility.yul\":15081:15086   */\n      dup3\n        /* \"#utility.yul\":15063:15087   */\n      tag_325\n      jump\t// in\n    tag_502:\n        /* \"#utility.yul\":15054:15087   */\n      swap2\n      pop\n        /* \"#utility.yul\":15109:15175   */\n      0xffffffffffffffffffffffffffffffffffffffffffffffffffffffffffffffff\n        /* \"#utility.yul\":15102:15107   */\n      dup3\n        /* \"#utility.yul\":15099:15176   */\n      eq\n        /* \"#utility.yul\":15096:15199   */\n      iszero\n      tag_503\n      jumpi\n        /* \"#utility.yul\":15179:15197   */\n      tag_504\n      tag_355\n      jump\t// in\n    tag_504:\n        /* \"#utility.yul\":15096:15199   */\n    tag_503:\n        /* \"#utility.yul\":15226:15227   */\n      0x01\n        /* \"#utility.yul\":15219:15224   */\n      dup3\n        /* \"#utility.yul\":15215:15228   */\n      add\n        /* \"#utility.yul\":15208:15228   */\n      swap1\n      pop\n        /* \"#utility.yul\":15001:15234   */\n      swap2\n      swap1\n      pop\n      jump\t// out\n        /* \"#utility.yul\":15240:15545   */\n    tag_130:\n        /* \"#utility.yul\":15280:15283   */\n      0x00\n        /* \"#utility.yul\":15299:15319   */\n      tag_506\n        /* \"#utility.yul\":15317:15318   */\n      dup3\n        /* \"#utility.yul\":15299:15319   */\n      tag_325\n      jump\t// in\n    tag_506:\n        /* \"#utility.yul\":15294:15319   */\n      swap2\n      pop\n        /* \"#utility.yul\":15333:15353   */\n      tag_507\n        /* \"#utility.yul\":15351:15352   */\n      dup4\n        /* \"#utility.yul\":15333:15353   */\n      tag_325\n      jump\t// in\n    tag_507:\n        /* \"#utility.yul\":15328:15353   */\n      swap3\n      pop\n        /* \"#utility.yul\":15487:15488   */\n      dup3\n        /* \"#utility.yul\":15419:15485   */\n      0xffffffffffffffffffffffffffffffffffffffffffffffffffffffffffffffff\n        /* \"#utility.yul\":15415:15489   */\n      sub\n        /* \"#utility.yul\":15412:15413   */\n      dup3\n        /* \"#utility.yul\":15409:15490   */\n      gt\n        /* \"#utility.yul\":15406:15513   */\n      iszero\n      tag_508\n      jumpi\n        /* \"#utility.yul\":15493:15511   */\n      tag_509\n      tag_355\n      jump\t// in\n    tag_509:\n        /* \"#utility.yul\":15406:15513   */\n    tag_508:\n        /* \"#utility.yul\":15537:15538   */\n      dup3\n        /* \"#utility.yul\":15534:15535   */\n      dup3\n        /* \"#utility.yul\":15530:15539   */\n      add\n        /* \"#utility.yul\":15523:15539   */\n      swap1\n      pop\n        /* \"#utility.yul\":15240:15545   */\n      swap3\n      swap2\n      pop\n      pop\n      jump\t// out\n        /* \"#utility.yul\":15551:15899   */\n    tag_136:\n        /* \"#utility.yul\":15591:15598   */\n      0x00\n        /* \"#utility.yul\":15614:15634   */\n      tag_511\n        /* \"#utility.yul\":15632:15633   */\n      dup3\n        /* \"#utility.yul\":15614:15634   */\n      tag_325\n      jump\t// in\n    tag_511:\n        /* \"#utility.yul\":15609:15634   */\n      swap2\n      pop\n        /* \"#utility.yul\":15648:15668   */\n      tag_512\n        /* \"#utility.yul\":15666:15667   */\n      dup4\n        /* \"#utility.yul\":15648:15668   */\n      tag_325\n      jump\t// in\n    tag_512:\n        /* \"#utility.yul\":15643:15668   */\n      swap3\n      pop\n        /* \"#utility.yul\":15836:15837   */\n      dup2\n        /* \"#utility.yul\":15768:15834   */\n      0xffffffffffffffffffffffffffffffffffffffffffffffffffffffffffffffff\n        /* \"#utility.yul\":15764:15838   */\n      div\n        /* \"#utility.yul\":15761:15762   */\n      dup4\n        /* \"#utility.yul\":15758:15839   */\n      gt\n        /* \"#utility.yul\":15753:15754   */\n      dup3\n        /* \"#utility.yul\":15746:15755   */\n      iszero\n        /* \"#utility.yul\":15739:15756   */\n      iszero\n        /* \"#utility.yul\":15735:15840   */\n      and\n        /* \"#utility.yul\":15732:15863   */\n      iszero\n      tag_513\n      jumpi\n        /* \"#utility.yul\":15843:15861   */\n      tag_514\n      tag_355\n      jump\t// in\n    tag_514:\n        /* \"#utility.yul\":15732:15863   */\n    tag_513:\n        /* \"#utility.yul\":15891:15892   */\n      dup3\n        /* \"#utility.yul\":15888:15889   */\n      dup3\n        /* \"#utility.yul\":15884:15893   */\n      mul\n        /* \"#utility.yul\":15873:15893   */\n      swap1\n      pop\n        /* \"#utility.yul\":15551:15899   */\n      swap3\n      swap2\n      pop\n      pop\n      jump\t// out\n        /* \"#utility.yul\":15905:16347   */\n    tag_138:\n        /* \"#utility.yul\":16054:16058   */\n      0x00\n        /* \"#utility.yul\":16092:16094   */\n      0x60\n        /* \"#utility.yul\":16081:16090   */\n      dup3\n        /* \"#utility.yul\":16077:16095   */\n      add\n        /* \"#utility.yul\":16069:16095   */\n      swap1\n      pop\n        /* \"#utility.yul\":16105:16176   */\n      tag_516\n        /* \"#utility.yul\":16173:16174   */\n      0x00\n        /* \"#utility.yul\":16162:16171   */\n      dup4\n        /* \"#utility.yul\":16158:16175   */\n      add\n        /* \"#utility.yul\":16149:16155   */\n      dup7\n        /* \"#utility.yul\":16105:16176   */\n      tag_345\n      jump\t// in\n    tag_516:\n        /* \"#utility.yul\":16186:16258   */\n      tag_517\n        /* \"#utility.yul\":16254:16256   */\n      0x20\n        /* \"#utility.yul\":16243:16252   */\n      dup4\n        /* \"#utility.yul\":16239:16257   */\n      add\n        /* \"#utility.yul\":16230:16236   */\n      dup6\n        /* \"#utility.yul\":16186:16258   */\n      tag_345\n      jump\t// in\n    tag_517:\n        /* \"#utility.yul\":16268:16340   */\n      tag_518\n        /* \"#utility.yul\":16336:16338   */\n      0x40\n        /* \"#utility.yul\":16325:16334   */\n      dup4\n        /* \"#utility.yul\":16321:16339   */\n      add\n        /* \"#utility.yul\":16312:16318   */\n      dup5\n        /* \"#utility.yul\":16268:16340   */\n      tag_326\n      jump\t// in\n    tag_518:\n        /* \"#utility.yul\":15905:16347   */\n      swap5\n      swap4\n      pop\n      pop\n      pop\n      pop\n      jump\t// out\n        /* \"#utility.yul\":16353:16469   */\n    tag_356:\n        /* \"#utility.yul\":16423:16444   */\n      tag_520\n        /* \"#utility.yul\":16438:16443   */\n      dup2\n        /* \"#utility.yul\":16423:16444   */\n      tag_334\n      jump\t// in\n    tag_520:\n        /* \"#utility.yul\":16416:16421   */\n      dup2\n        /* \"#utility.yul\":16413:16445   */\n      eq\n        /* \"#utility.yul\":16403:16463   */\n      tag_521\n      jumpi\n        /* \"#utility.yul\":16459:16460   */\n      0x00\n        /* \"#utility.yul\":16456:16457   */\n      dup1\n        /* \"#utility.yul\":16449:16461   */\n      revert\n        /* \"#utility.yul\":16403:16463   */\n    tag_521:\n        /* \"#utility.yul\":16353:16469   */\n      pop\n      jump\t// out\n        /* \"#utility.yul\":16475:16612   */\n    tag_357:\n        /* \"#utility.yul\":16529:16534   */\n      0x00\n        /* \"#utility.yul\":16560:16566   */\n      dup2\n        /* \"#utility.yul\":16554:16567   */\n      mload\n        /* \"#utility.yul\":16545:16567   */\n      swap1\n      pop\n        /* \"#utility.yul\":16576:16606   */\n      tag_523\n        /* \"#utility.yul\":16600:16605   */\n      dup2\n        /* \"#utility.yul\":16576:16606   */\n      tag_356\n      jump\t// in\n    tag_523:\n        /* \"#utility.yul\":16475:16612   */\n      swap3\n      swap2\n      pop\n      pop\n      jump\t// out\n        /* \"#utility.yul\":16618:16963   */\n    tag_143:\n        /* \"#utility.yul\":16685:16691   */\n      0x00\n        /* \"#utility.yul\":16734:16736   */\n      0x20\n        /* \"#utility.yul\":16722:16731   */\n      dup3\n        /* \"#utility.yul\":16713:16720   */\n      dup5\n        /* \"#utility.yul\":16709:16732   */\n      sub\n        /* \"#utility.yul\":16705:16737   */\n      slt\n        /* \"#utility.yul\":16702:16821   */\n      iszero\n      tag_525\n      jumpi\n        /* \"#utility.yul\":16740:16819   */\n      tag_526\n      tag_328\n      jump\t// in\n    tag_526:\n        /* \"#utility.yul\":16702:16821   */\n    tag_525:\n        /* \"#utility.yul\":16860:16861   */\n      0x00\n        /* \"#utility.yul\":16885:16946   */\n      tag_527\n        /* \"#utility.yul\":16938:16945   */\n      dup5\n        /* \"#utility.yul\":16929:16935   */\n      dup3\n        /* \"#utility.yul\":16918:16927   */\n      dup6\n        /* \"#utility.yul\":16914:16936   */\n      add\n        /* \"#utility.yul\":16885:16946   */\n      tag_357\n      jump\t// in\n    tag_527:\n        /* \"#utility.yul\":16875:16946   */\n      swap2\n      pop\n        /* \"#utility.yul\":16831:16956   */\n      pop\n        /* \"#utility.yul\":16618:16963   */\n      swap3\n      swap2\n      pop\n      pop\n      jump\t// out\n        /* \"#utility.yul\":16969:17149   */\n    tag_161:\n        /* \"#utility.yul\":17017:17094   */\n      0x4e487b7100000000000000000000000000000000000000000000000000000000\n        /* \"#utility.yul\":17014:17015   */\n      0x00\n        /* \"#utility.yul\":17007:17095   */\n      mstore\n        /* \"#utility.yul\":17114:17118   */\n      0x41\n        /* \"#utility.yul\":17111:17112   */\n      0x04\n        /* \"#utility.yul\":17104:17119   */\n      mstore\n        /* \"#utility.yul\":17138:17142   */\n      0x24\n        /* \"#utility.yul\":17135:17136   */\n      0x00\n        /* \"#utility.yul\":17128:17143   */\n      revert\n        /* \"#utility.yul\":17155:17335   */\n    tag_172:\n        /* \"#utility.yul\":17203:17280   */\n      0x4e487b7100000000000000000000000000000000000000000000000000000000\n        /* \"#utility.yul\":17200:17201   */\n      0x00\n        /* \"#utility.yul\":17193:17281   */\n      mstore\n        /* \"#utility.yul\":17300:17304   */\n      0x32\n        /* \"#utility.yul\":17297:17298   */\n      0x04\n        /* \"#utility.yul\":17290:17305   */\n      mstore\n        /* \"#utility.yul\":17324:17328   */\n      0x24\n        /* \"#utility.yul\":17321:17322   */\n      0x00\n        /* \"#utility.yul\":17314:17329   */\n      revert\n        /* \"#utility.yul\":17341:17532   */\n    tag_181:\n        /* \"#utility.yul\":17381:17385   */\n      0x00\n        /* \"#utility.yul\":17401:17421   */\n      tag_531\n        /* \"#utility.yul\":17419:17420   */\n      dup3\n        /* \"#utility.yul\":17401:17421   */\n      tag_325\n      jump\t// in\n    tag_531:\n        /* \"#utility.yul\":17396:17421   */\n      swap2\n      pop\n        /* \"#utility.yul\":17435:17455   */\n      tag_532\n        /* \"#utility.yul\":17453:17454   */\n      dup4\n        /* \"#utility.yul\":17435:17455   */\n      tag_325\n      jump\t// in\n    tag_532:\n        /* \"#utility.yul\":17430:17455   */\n      swap3\n      pop\n        /* \"#utility.yul\":17474:17475   */\n      dup3\n        /* \"#utility.yul\":17471:17472   */\n      dup3\n        /* \"#utility.yul\":17468:17476   */\n      lt\n        /* \"#utility.yul\":17465:17499   */\n      iszero\n      tag_533\n      jumpi\n        /* \"#utility.yul\":17479:17497   */\n      tag_534\n      tag_355\n      jump\t// in\n    tag_534:\n        /* \"#utility.yul\":17465:17499   */\n    tag_533:\n        /* \"#utility.yul\":17524:17525   */\n      dup3\n        /* \"#utility.yul\":17521:17522   */\n      dup3\n        /* \"#utility.yul\":17517:17526   */\n      sub\n        /* \"#utility.yul\":17509:17526   */\n      swap1\n      pop\n        /* \"#utility.yul\":17341:17532   */\n      swap3\n      swap2\n      pop\n      pop\n      jump\t// out\n        /* \"#utility.yul\":17538:17718   */\n    tag_358:\n        /* \"#utility.yul\":17586:17663   */\n      0x4e487b7100000000000000000000000000000000000000000000000000000000\n        /* \"#utility.yul\":17583:17584   */\n      0x00\n        /* \"#utility.yul\":17576:17664   */\n      mstore\n        /* \"#utility.yul\":17683:17687   */\n      0x12\n        /* \"#utility.yul\":17680:17681   */\n      0x04\n        /* \"#utility.yul\":17673:17688   */\n      mstore\n        /* \"#utility.yul\":17707:17711   */\n      0x24\n        /* \"#utility.yul\":17704:17705   */\n      0x00\n        /* \"#utility.yul\":17697:17712   */\n      revert\n        /* \"#utility.yul\":17724:17909   */\n    tag_185:\n        /* \"#utility.yul\":17764:17765   */\n      0x00\n        /* \"#utility.yul\":17781:17801   */\n      tag_537\n        /* \"#utility.yul\":17799:17800   */\n      dup3\n        /* \"#utility.yul\":17781:17801   */\n      tag_325\n      jump\t// in\n    tag_537:\n        /* \"#utility.yul\":17776:17801   */\n      swap2\n      pop\n        /* \"#utility.yul\":17815:17835   */\n      tag_538\n        /* \"#utility.yul\":17833:17834   */\n      dup4\n        /* \"#utility.yul\":17815:17835   */\n      tag_325\n      jump\t// in\n    tag_538:\n        /* \"#utility.yul\":17810:17835   */\n      swap3\n      pop\n        /* \"#utility.yul\":17854:17855   */\n      dup3\n        /* \"#utility.yul\":17844:17879   */\n      tag_539\n      jumpi\n        /* \"#utility.yul\":17859:17877   */\n      tag_540\n      tag_358\n      jump\t// in\n    tag_540:\n        /* \"#utility.yul\":17844:17879   */\n    tag_539:\n        /* \"#utility.yul\":17901:17902   */\n      dup3\n        /* \"#utility.yul\":17898:17899   */\n      dup3\n        /* \"#utility.yul\":17894:17903   */\n      div\n        /* \"#utility.yul\":17889:17903   */\n      swap1\n      pop\n        /* \"#utility.yul\":17724:17909   */\n      swap3\n      swap2\n      pop\n      pop\n      jump\t// out\n        /* \"#utility.yul\":17915:18139   */\n    tag_359:\n        /* \"#utility.yul\":18055:18089   */\n      0x796f7520646f6e74206861766520696e766573746d656e7420746f2077697468\n        /* \"#utility.yul\":18051:18052   */\n      0x00\n        /* \"#utility.yul\":18043:18049   */\n      dup3\n        /* \"#utility.yul\":18039:18053   */\n      add\n        /* \"#utility.yul\":18032:18090   */\n      mstore\n        /* \"#utility.yul\":18124:18131   */\n      0x647261776e000000000000000000000000000000000000000000000000000000\n        /* \"#utility.yul\":18119:18121   */\n      0x20\n        /* \"#utility.yul\":18111:18117   */\n      dup3\n        /* \"#utility.yul\":18107:18122   */\n      add\n        /* \"#utility.yul\":18100:18132   */\n      mstore\n        /* \"#utility.yul\":17915:18139   */\n      pop\n      jump\t// out\n        /* \"#utility.yul\":18145:18511   */\n    tag_360:\n        /* \"#utility.yul\":18287:18290   */\n      0x00\n        /* \"#utility.yul\":18308:18375   */\n      tag_543\n        /* \"#utility.yul\":18372:18374   */\n      0x25\n        /* \"#utility.yul\":18367:18370   */\n      dup4\n        /* \"#utility.yul\":18308:18375   */\n      tag_352\n      jump\t// in\n    tag_543:\n        /* \"#utility.yul\":18301:18375   */\n      swap2\n      pop\n        /* \"#utility.yul\":18384:18477   */\n      tag_544\n        /* \"#utility.yul\":18473:18476   */\n      dup3\n        /* \"#utility.yul\":18384:18477   */\n      tag_359\n      jump\t// in\n    tag_544:\n        /* \"#utility.yul\":18502:18504   */\n      0x40\n        /* \"#utility.yul\":18497:18500   */\n      dup3\n        /* \"#utility.yul\":18493:18505   */\n      add\n        /* \"#utility.yul\":18486:18505   */\n      swap1\n      pop\n        /* \"#utility.yul\":18145:18511   */\n      swap2\n      swap1\n      pop\n      jump\t// out\n        /* \"#utility.yul\":18517:18936   */\n    tag_198:\n        /* \"#utility.yul\":18683:18687   */\n      0x00\n        /* \"#utility.yul\":18721:18723   */\n      0x20\n        /* \"#utility.yul\":18710:18719   */\n      dup3\n        /* \"#utility.yul\":18706:18724   */\n      add\n        /* \"#utility.yul\":18698:18724   */\n      swap1\n      pop\n        /* \"#utility.yul\":18770:18779   */\n      dup2\n        /* \"#utility.yul\":18764:18768   */\n      dup2\n        /* \"#utility.yul\":18760:18780   */\n      sub\n        /* \"#utility.yul\":18756:18757   */\n      0x00\n        /* \"#utility.yul\":18745:18754   */\n      dup4\n        /* \"#utility.yul\":18741:18758   */\n      add\n        /* \"#utility.yul\":18734:18781   */\n      mstore\n        /* \"#utility.yul\":18798:18929   */\n      tag_546\n        /* \"#utility.yul\":18924:18928   */\n      dup2\n        /* \"#utility.yul\":18798:18929   */\n      tag_360\n      jump\t// in\n    tag_546:\n        /* \"#utility.yul\":18790:18929   */\n      swap1\n      pop\n        /* \"#utility.yul\":18517:18936   */\n      swap2\n      swap1\n      pop\n      jump\t// out\n        /* \"#utility.yul\":18942:19274   */\n    tag_206:\n        /* \"#utility.yul\":19063:19067   */\n      0x00\n        /* \"#utility.yul\":19101:19103   */\n      0x40\n        /* \"#utility.yul\":19090:19099   */\n      dup3\n        /* \"#utility.yul\":19086:19104   */\n      add\n        /* \"#utility.yul\":19078:19104   */\n      swap1\n      pop\n        /* \"#utility.yul\":19114:19185   */\n      tag_548\n        /* \"#utility.yul\":19182:19183   */\n      0x00\n        /* \"#utility.yul\":19171:19180   */\n      dup4\n        /* \"#utility.yul\":19167:19184   */\n      add\n        /* \"#utility.yul\":19158:19164   */\n      dup6\n        /* \"#utility.yul\":19114:19185   */\n      tag_345\n      jump\t// in\n    tag_548:\n        /* \"#utility.yul\":19195:19267   */\n      tag_549\n        /* \"#utility.yul\":19263:19265   */\n      0x20\n        /* \"#utility.yul\":19252:19261   */\n      dup4\n        /* \"#utility.yul\":19248:19266   */\n      add\n        /* \"#utility.yul\":19239:19245   */\n      dup5\n        /* \"#utility.yul\":19195:19267   */\n      tag_326\n      jump\t// in\n    tag_549:\n        /* \"#utility.yul\":18942:19274   */\n      swap4\n      swap3\n      pop\n      pop\n      pop\n      jump\t// out\n        /* \"#utility.yul\":19280:19501   */\n    tag_361:\n        /* \"#utility.yul\":19420:19454   */\n      0x796f7520646f6e742068617665207265776172647320746f2077697468647261\n        /* \"#utility.yul\":19416:19417   */\n      0x00\n        /* \"#utility.yul\":19408:19414   */\n      dup3\n        /* \"#utility.yul\":19404:19418   */\n      add\n        /* \"#utility.yul\":19397:19455   */\n      mstore\n        /* \"#utility.yul\":19489:19493   */\n      0x776e000000000000000000000000000000000000000000000000000000000000\n        /* \"#utility.yul\":19484:19486   */\n      0x20\n        /* \"#utility.yul\":19476:19482   */\n      dup3\n        /* \"#utility.yul\":19472:19487   */\n      add\n        /* \"#utility.yul\":19465:19494   */\n      mstore\n        /* \"#utility.yul\":19280:19501   */\n      pop\n      jump\t// out\n        /* \"#utility.yul\":19507:19873   */\n    tag_362:\n        /* \"#utility.yul\":19649:19652   */\n      0x00\n        /* \"#utility.yul\":19670:19737   */\n      tag_552\n        /* \"#utility.yul\":19734:19736   */\n      0x22\n        /* \"#utility.yul\":19729:19732   */\n      dup4\n        /* \"#utility.yul\":19670:19737   */\n      tag_352\n      jump\t// in\n    tag_552:\n        /* \"#utility.yul\":19663:19737   */\n      swap2\n      pop\n        /* \"#utility.yul\":19746:19839   */\n      tag_553\n        /* \"#utility.yul\":19835:19838   */\n      dup3\n        /* \"#utility.yul\":19746:19839   */\n      tag_361\n      jump\t// in\n    tag_553:\n        /* \"#utility.yul\":19864:19866   */\n      0x40\n        /* \"#utility.yul\":19859:19862   */\n      dup3\n        /* \"#utility.yul\":19855:19867   */\n      add\n        /* \"#utility.yul\":19848:19867   */\n      swap1\n      pop\n        /* \"#utility.yul\":19507:19873   */\n      swap2\n      swap1\n      pop\n      jump\t// out\n        /* \"#utility.yul\":19879:20298   */\n    tag_248:\n        /* \"#utility.yul\":20045:20049   */\n      0x00\n        /* \"#utility.yul\":20083:20085   */\n      0x20\n        /* \"#utility.yul\":20072:20081   */\n      dup3\n        /* \"#utility.yul\":20068:20086   */\n      add\n        /* \"#utility.yul\":20060:20086   */\n      swap1\n      pop\n        /* \"#utility.yul\":20132:20141   */\n      dup2\n        /* \"#utility.yul\":20126:20130   */\n      dup2\n        /* \"#utility.yul\":20122:20142   */\n      sub\n        /* \"#utility.yul\":20118:20119   */\n      0x00\n        /* \"#utility.yul\":20107:20116   */\n      dup4\n        /* \"#utility.yul\":20103:20120   */\n      add\n        /* \"#utility.yul\":20096:20143   */\n      mstore\n        /* \"#utility.yul\":20160:20291   */\n      tag_555\n        /* \"#utility.yul\":20286:20290   */\n      dup2\n        /* \"#utility.yul\":20160:20291   */\n      tag_362\n      jump\t// in\n    tag_555:\n        /* \"#utility.yul\":20152:20291   */\n      swap1\n      pop\n        /* \"#utility.yul\":19879:20298   */\n      swap2\n      swap1\n      pop\n      jump\t// out\n        /* \"#utility.yul\":20304:20524   */\n    tag_363:\n        /* \"#utility.yul\":20444:20478   */\n      0x6f6e6c79204f776e65722063616e2063616c6c20746869732066756e6374696f\n        /* \"#utility.yul\":20440:20441   */\n      0x00\n        /* \"#utility.yul\":20432:20438   */\n      dup3\n        /* \"#utility.yul\":20428:20442   */\n      add\n        /* \"#utility.yul\":20421:20479   */\n      mstore\n        /* \"#utility.yul\":20513:20516   */\n      0x6e00000000000000000000000000000000000000000000000000000000000000\n        /* \"#utility.yul\":20508:20510   */\n      0x20\n        /* \"#utility.yul\":20500:20506   */\n      dup3\n        /* \"#utility.yul\":20496:20511   */\n      add\n        /* \"#utility.yul\":20489:20517   */\n      mstore\n        /* \"#utility.yul\":20304:20524   */\n      pop\n      jump\t// out\n        /* \"#utility.yul\":20530:20896   */\n    tag_364:\n        /* \"#utility.yul\":20672:20675   */\n      0x00\n        /* \"#utility.yul\":20693:20760   */\n      tag_558\n        /* \"#utility.yul\":20757:20759   */\n      0x21\n        /* \"#utility.yul\":20752:20755   */\n      dup4\n        /* \"#utility.yul\":20693:20760   */\n      tag_352\n      jump\t// in\n    tag_558:\n        /* \"#utility.yul\":20686:20760   */\n      swap2\n      pop\n        /* \"#utility.yul\":20769:20862   */\n      tag_559\n        /* \"#utility.yul\":20858:20861   */\n      dup3\n        /* \"#utility.yul\":20769:20862   */\n      tag_363\n      jump\t// in\n    tag_559:\n        /* \"#utility.yul\":20887:20889   */\n      0x40\n        /* \"#utility.yul\":20882:20885   */\n      dup3\n        /* \"#utility.yul\":20878:20890   */\n      add\n        /* \"#utility.yul\":20871:20890   */\n      swap1\n      pop\n        /* \"#utility.yul\":20530:20896   */\n      swap2\n      swap1\n      pop\n      jump\t// out\n        /* \"#utility.yul\":20902:21321   */\n    tag_258:\n        /* \"#utility.yul\":21068:21072   */\n      0x00\n        /* \"#utility.yul\":21106:21108   */\n      0x20\n        /* \"#utility.yul\":21095:21104   */\n      dup3\n        /* \"#utility.yul\":21091:21109   */\n      add\n        /* \"#utility.yul\":21083:21109   */\n      swap1\n      pop\n        /* \"#utility.yul\":21155:21164   */\n      dup2\n        /* \"#utility.yul\":21149:21153   */\n      dup2\n        /* \"#utility.yul\":21145:21165   */\n      sub\n        /* \"#utility.yul\":21141:21142   */\n      0x00\n        /* \"#utility.yul\":21130:21139   */\n      dup4\n        /* \"#utility.yul\":21126:21143   */\n      add\n        /* \"#utility.yul\":21119:21166   */\n      mstore\n        /* \"#utility.yul\":21183:21314   */\n      tag_561\n        /* \"#utility.yul\":21309:21313   */\n      dup2\n        /* \"#utility.yul\":21183:21314   */\n      tag_364\n      jump\t// in\n    tag_561:\n        /* \"#utility.yul\":21175:21314   */\n      swap1\n      pop\n        /* \"#utility.yul\":20902:21321   */\n      swap2\n      swap1\n      pop\n      jump\t// out\n\n    auxdata: 0xa2646970667358221220d0ab7fe7d8752070edd94e34b5288ffc55b1021d7da2d4b21caa23fadd4a244664736f6c63430008090033\n}\n",
				"bytecode": {
					"linkReferences": {},
					"object": "6080604052734d00ddcc526c14fd353131f289b1e62c856e9737600160006101000a81548173ffffffffffffffffffffffffffffffffffffffff021916908373ffffffffffffffffffffffffffffffffffffffff16021790555073e9e7cea3dedca5984780bafc599bd69add087d56600260006101000a81548173ffffffffffffffffffffffffffffffffffffffff021916908373ffffffffffffffffffffffffffffffffffffffff160217905550674563918244f40000600455612710600555624c4b40600655620186a060075563018b82006008553480156100e257600080fd5b50336000806101000a81548173ffffffffffffffffffffffffffffffffffffffff021916908373ffffffffffffffffffffffffffffffffffffffff160217905550612e75806101326000396000f3fe608060405234801561001057600080fd5b50600436106101585760003560e01c8063929f6bbe116100c3578063d3560ee81161007c578063d3560ee814610383578063e2033fcb146103b9578063f2fde38b146103d7578063f790b81a146103f3578063f7c618c114610411578063fae730bc1461042f57610158565b8063929f6bbe146102d15780639740a1bc146102ef578063a47bd4961461030d578063a61be99d14610329578063bc67eaff14610347578063c885bc581461036557610158565b80633d18b912116101155780633d18b912146102215780634eb1ecc91461023f578063500cb85f1461025b578063523cddfe1461027757806373cf575a146102955780638da5cb5b146102b357610158565b80630c5f58f41461015d57806310cde60a1461017b5780631e8aba35146101995780632bccdce6146101b757806332d4e783146101e75780633a1e083314610203575b600080fd5b61016561044d565b6040516101729190612415565b60405180910390f35b61018361051b565b6040516101909190612450565b60405180910390f35b6101a1610521565b6040516101ae9190612450565b60405180910390f35b6101d160048036038101906101cc91906124c8565b61056e565b6040516101de9190612523565b60405180910390f35b61020160048036038101906101fc919061253e565b610d0a565b005b61020b610d14565b60405161021891906126b3565b60405180910390f35b610229610fa5565b6040516102369190612450565b60405180910390f35b610259600480360381019061025491906126d5565b61129e565b005b6102756004803603810190610270919061253e565b6112c0565b005b61027f6112ca565b60405161028c9190612450565b60405180910390f35b61029d6112d0565b6040516102aa9190612523565b60405180910390f35b6102bb611858565b6040516102c8919061274b565b60405180910390f35b6102d961187c565b6040516102e69190612450565b60405180910390f35b6102f76118c6565b6040516103049190612450565b60405180910390f35b61032760048036038101906103229190612766565b6118cc565b005b6103316118de565b60405161033e9190612855565b60405180910390f35b61034f611a51565b60405161035c9190612450565b60405180910390f35b61036d611a57565b60405161037a9190612523565b60405180910390f35b61039d60048036038101906103989190612877565b611bb8565b6040516103b097969594939291906128a4565b60405180910390f35b6103c1611c27565b6040516103ce9190612450565b60405180910390f35b6103f160048036038101906103ec9190612877565b611c2d565b005b6103fb611cfe565b6040516104089190612855565b60405180910390f35b610419611e71565b6040516104269190612450565b60405180910390f35b610437611e77565b6040516104449190612450565b60405180910390f35b6060600b60003373ffffffffffffffffffffffffffffffffffffffff1673ffffffffffffffffffffffffffffffffffffffff16815260200190815260200160002060010180548060200260200160405190810160405280929190818152602001828054801561051157602002820191906000526020600020905b8160009054906101000a900473ffffffffffffffffffffffffffffffffffffffff1673ffffffffffffffffffffffffffffffffffffffff16815260200190600101908083116104c7575b5050505050905090565b60035481565b6000600b60003373ffffffffffffffffffffffffffffffffffffffff1673ffffffffffffffffffffffffffffffffffffffff16815260200190815260200160002060010180549050905090565b6000600554831015801561058457506006548311155b6105c3576040517f08c379a00000000000000000000000000000000000000000000000000000000081526004016105ba90612996565b60405180910390fd5b60001515600b60003373ffffffffffffffffffffffffffffffffffffffff1673ffffffffffffffffffffffffffffffffffffffff16815260200190815260200160002060080160009054906101000a900460ff16151514156106385760036000815480929190610632906129e5565b91905055505b6000600b60003373ffffffffffffffffffffffffffffffffffffffff1673ffffffffffffffffffffffffffffffffffffffff1681526020019081526020016000206006015414156106da5763018b8200426106939190612a2e565b600b60003373ffffffffffffffffffffffffffffffffffffffff1673ffffffffffffffffffffffffffffffffffffffff168152602001908152602001600020600901819055505b6000600b60003373ffffffffffffffffffffffffffffffffffffffff1673ffffffffffffffffffffffffffffffffffffffff16815260200190815260200160002060050154905083600b60003373ffffffffffffffffffffffffffffffffffffffff1673ffffffffffffffffffffffffffffffffffffffff16815260200190815260200160002060000160008381526020019081526020016000206000018190555042600b60003373ffffffffffffffffffffffffffffffffffffffff1673ffffffffffffffffffffffffffffffffffffffff168152602001908152602001600020600001600083815260200190815260200160002060020181905550600854426107e59190612a2e565b600b60003373ffffffffffffffffffffffffffffffffffffffff1673ffffffffffffffffffffffffffffffffffffffff16815260200190815260200160002060000160008381526020019081526020016000206001018190555080600b60003373ffffffffffffffffffffffffffffffffffffffff1673ffffffffffffffffffffffffffffffffffffffff16815260200190815260200160002060000160008381526020019081526020016000206003018190555083600b60003373ffffffffffffffffffffffffffffffffffffffff1673ffffffffffffffffffffffffffffffffffffffff16815260200190815260200160002060060160008282546108ec9190612a2e565b92505081905550600b60003373ffffffffffffffffffffffffffffffffffffffff1673ffffffffffffffffffffffffffffffffffffffff1681526020019081526020016000206005016000815480929190610946906129e5565b9190505550836009600082825461095d9190612a2e565b92505081905550600160009054906101000a900473ffffffffffffffffffffffffffffffffffffffff1673ffffffffffffffffffffffffffffffffffffffff166323b872dd33306305f5e100886109b49190612a84565b6040518463ffffffff1660e01b81526004016109d293929190612ade565b602060405180830381600087803b1580156109ec57600080fd5b505af1158015610a00573d6000803e3d6000fd5b505050506040513d601f19601f82011682018060405250810190610a249190612b41565b50600073ffffffffffffffffffffffffffffffffffffffff168373ffffffffffffffffffffffffffffffffffffffff161480610a8b57503373ffffffffffffffffffffffffffffffffffffffff168373ffffffffffffffffffffffffffffffffffffffff16145b80610ae9575060011515600b60003373ffffffffffffffffffffffffffffffffffffffff1673ffffffffffffffffffffffffffffffffffffffff16815260200190815260200160002060080160009054906101000a900460ff161515145b15610b75576000600b60003373ffffffffffffffffffffffffffffffffffffffff1673ffffffffffffffffffffffffffffffffffffffff16815260200190815260200160002060020160006101000a81548173ffffffffffffffffffffffffffffffffffffffff021916908373ffffffffffffffffffffffffffffffffffffffff160217905550610ca4565b82600b60003373ffffffffffffffffffffffffffffffffffffffff1673ffffffffffffffffffffffffffffffffffffffff16815260200190815260200160002060020160006101000a81548173ffffffffffffffffffffffffffffffffffffffff021916908373ffffffffffffffffffffffffffffffffffffffff160217905550600b60008473ffffffffffffffffffffffffffffffffffffffff1673ffffffffffffffffffffffffffffffffffffffff168152602001908152602001600020600101339080600181540180825580915050600190039060005260206000200160009091909190916101000a81548173ffffffffffffffffffffffffffffffffffffffff021916908373ffffffffffffffffffffffffffffffffffffffff160217905550610ca33385611e7d565b5b6001600b60003373ffffffffffffffffffffffffffffffffffffffff1673ffffffffffffffffffffffffffffffffffffffff16815260200190815260200160002060080160006101000a81548160ff021916908315150217905550600191505092915050565b8060058190555050565b60606000600b60003373ffffffffffffffffffffffffffffffffffffffff1673ffffffffffffffffffffffffffffffffffffffff16815260200190815260200160002060050154905060008060005b83811015610dec576000600b60003373ffffffffffffffffffffffffffffffffffffffff1673ffffffffffffffffffffffffffffffffffffffff1681526020019081526020016000206000016000838152602001908152602001600020600001541115610dd9578280610dd5906129e5565b9350505b8080610de4906129e5565b915050610d63565b5060008267ffffffffffffffff811115610e0957610e08612b6e565b5b604051908082528060200260200182016040528015610e4257816020015b610e2f6122ed565b815260200190600190039081610e275790505b50905060005b84811015610f9a576000600b60003373ffffffffffffffffffffffffffffffffffffffff1673ffffffffffffffffffffffffffffffffffffffff1681526020019081526020016000206000016000838152602001908152602001600020600001541115610f8757600b60003373ffffffffffffffffffffffffffffffffffffffff1673ffffffffffffffffffffffffffffffffffffffff16815260200190815260200160002060000160008281526020019081526020016000206040518060c001604052908160008201548152602001600182015481526020016002820154815260200160038201548152602001600482015481526020016005820160009054906101000a900460ff161515151581525050828481518110610f6d57610f6c612b9d565b5b60200260200101819052508280610f83906129e5565b9350505b8080610f92906129e5565b915050610e48565b508094505050505090565b6000806000806000600b60003373ffffffffffffffffffffffffffffffffffffffff1673ffffffffffffffffffffffffffffffffffffffff16815260200190815260200160002060050154905060005b8181101561124357600b60003373ffffffffffffffffffffffffffffffffffffffff1673ffffffffffffffffffffffffffffffffffffffff168152602001908152602001600020600001600082815260200190815260200160002060050160009054906101000a900460ff166110ce57600b60003373ffffffffffffffffffffffffffffffffffffffff1673ffffffffffffffffffffffffffffffffffffffff168152602001908152602001600020600001600082815260200190815260200160002060020154426110c79190612bcc565b9350611189565b600b60003373ffffffffffffffffffffffffffffffffffffffff1673ffffffffffffffffffffffffffffffffffffffff168152602001908152602001600020600001600082815260200190815260200160002060020154600b60003373ffffffffffffffffffffffffffffffffffffffff1673ffffffffffffffffffffffffffffffffffffffff1681526020019081526020016000206000016000838152602001908152602001600020600401546111869190612bcc565b93505b62015180846111989190612c2f565b9350600084111561123057600754600454600b60003373ffffffffffffffffffffffffffffffffffffffff1673ffffffffffffffffffffffffffffffffffffffff16815260200190815260200160002060000160008481526020019081526020016000206000015461120a9190612a84565b6112149190612c2f565b925082846112229190612a84565b8561122d9190612a2e565b94505b808061123b906129e5565b915050610ff5565b50600b60003373ffffffffffffffffffffffffffffffffffffffff1673ffffffffffffffffffffffffffffffffffffffff16815260200190815260200160002060070154846112929190612bcc565b93508394505050505090565b8260068190555083600581905550816004819055508060078190555050505050565b8060068190555050565b60085481565b600080600b60003373ffffffffffffffffffffffffffffffffffffffff1673ffffffffffffffffffffffffffffffffffffffff1681526020019081526020016000206006015411611356576040517f08c379a000000000000000000000000000000000000000000000000000000000815260040161134d90612cd2565b60405180910390fd5b6000600b60003373ffffffffffffffffffffffffffffffffffffffff1673ffffffffffffffffffffffffffffffffffffffff1681526020019081526020016000206006015490506000600b60003373ffffffffffffffffffffffffffffffffffffffff1673ffffffffffffffffffffffffffffffffffffffff1681526020019081526020016000206005015490506000600a54905060008042600b60003373ffffffffffffffffffffffffffffffffffffffff1673ffffffffffffffffffffffffffffffffffffffff168152602001908152602001600020600901541115611611576064601e866114479190612a84565b6114519190612c2f565b915060646046866114629190612a84565b61146c9190612c2f565b9050600160009054906101000a900473ffffffffffffffffffffffffffffffffffffffff1673ffffffffffffffffffffffffffffffffffffffff1663a9059cbb336305f5e100856114bd9190612a84565b6040518363ffffffff1660e01b81526004016114da929190612cf2565b602060405180830381600087803b1580156114f457600080fd5b505af1158015611508573d6000803e3d6000fd5b505050506040513d601f19601f8201168201806040525081019061152c9190612b41565b50600160009054906101000a900473ffffffffffffffffffffffffffffffffffffffff1673ffffffffffffffffffffffffffffffffffffffff1663a9059cbb60008054906101000a900473ffffffffffffffffffffffffffffffffffffffff166305f5e1008461159c9190612a84565b6040518363ffffffff1660e01b81526004016115b9929190612cf2565b602060405180830381600087803b1580156115d357600080fd5b505af11580156115e7573d6000803e3d6000fd5b505050506040513d601f19601f8201168201806040525081019061160b9190612b41565b506116d1565b600160009054906101000a900473ffffffffffffffffffffffffffffffffffffffff1673ffffffffffffffffffffffffffffffffffffffff1663a9059cbb336305f5e100886116609190612a84565b6040518363ffffffff1660e01b815260040161167d929190612cf2565b602060405180830381600087803b15801561169757600080fd5b505af11580156116ab573d6000803e3d6000fd5b505050506040513d601f19601f820116820180604052508101906116cf9190612b41565b505b600092505b838310156117bb576001600b60003373ffffffffffffffffffffffffffffffffffffffff1673ffffffffffffffffffffffffffffffffffffffff168152602001908152602001600020600001600085815260200190815260200160002060050160006101000a81548160ff02191690831515021790555042600b60003373ffffffffffffffffffffffffffffffffffffffff1673ffffffffffffffffffffffffffffffffffffffff16815260200190815260200160002060000160008581526020019081526020016000206004018190555082806117b3906129e5565b9350506116d6565b600b60003373ffffffffffffffffffffffffffffffffffffffff1673ffffffffffffffffffffffffffffffffffffffff16815260200190815260200160002060050154600a819055506000600b60003373ffffffffffffffffffffffffffffffffffffffff1673ffffffffffffffffffffffffffffffffffffffff1681526020019081526020016000206006018190555060019550505050505090565b60008054906101000a900473ffffffffffffffffffffffffffffffffffffffff1681565b6000600b60003373ffffffffffffffffffffffffffffffffffffffff1673ffffffffffffffffffffffffffffffffffffffff16815260200190815260200160002060060154905090565b60075481565b81600481905550806007819055505050565b60606000601467ffffffffffffffff8111156118fd576118fc612b6e565b5b60405190808252806020026020018201604052801561192b5781602001602082028036833780820191505090505b50905060005b6014811015611a49576000600b60003373ffffffffffffffffffffffffffffffffffffffff1673ffffffffffffffffffffffffffffffffffffffff1681526020019081526020016000206003016000838152602001908152602001600020600001541115611a1457600b60003373ffffffffffffffffffffffffffffffffffffffff1673ffffffffffffffffffffffffffffffffffffffff168152602001908152602001600020600301600082815260200190815260200160002060000154828281518110611a0357611a02612b9d565b5b602002602001018181525050611a36565b6000828281518110611a2957611a28612b9d565b5b6020026020010181815250505b8080611a41906129e5565b915050611931565b508091505090565b60055481565b600080611a62610fa5565b905060008111611aa7576040517f08c379a0000000000000000000000000000000000000000000000000000000008152600401611a9e90612d8d565b60405180910390fd5b600260009054906101000a900473ffffffffffffffffffffffffffffffffffffffff1673ffffffffffffffffffffffffffffffffffffffff1663a9059cbb33836040518363ffffffff1660e01b8152600401611b04929190612cf2565b602060405180830381600087803b158015611b1e57600080fd5b505af1158015611b32573d6000803e3d6000fd5b505050506040513d601f19601f82011682018060405250810190611b569190612b41565b5080600b60003373ffffffffffffffffffffffffffffffffffffffff1673ffffffffffffffffffffffffffffffffffffffff1681526020019081526020016000206007016000828254611ba99190612a2e565b92505081905550600191505090565b600b6020528060005260406000206000915090508060020160009054906101000a900473ffffffffffffffffffffffffffffffffffffffff16908060040154908060050154908060060154908060070154908060080160009054906101000a900460ff16908060090154905087565b60095481565b60008054906101000a900473ffffffffffffffffffffffffffffffffffffffff1673ffffffffffffffffffffffffffffffffffffffff163373ffffffffffffffffffffffffffffffffffffffff1614611cbb576040517f08c379a0000000000000000000000000000000000000000000000000000000008152600401611cb290612e1f565b60405180910390fd5b806000806101000a81548173ffffffffffffffffffffffffffffffffffffffff021916908373ffffffffffffffffffffffffffffffffffffffff16021790555050565b60606000601467ffffffffffffffff811115611d1d57611d1c612b6e565b5b604051908082528060200260200182016040528015611d4b5781602001602082028036833780820191505090505b50905060005b6014811015611e69576000600b60003373ffffffffffffffffffffffffffffffffffffffff1673ffffffffffffffffffffffffffffffffffffffff1681526020019081526020016000206003016000838152602001908152602001600020600001541115611e3457600b60003373ffffffffffffffffffffffffffffffffffffffff1673ffffffffffffffffffffffffffffffffffffffff168152602001908152602001600020600301600082815260200190815260200160002060010154828281518110611e2357611e22612b9d565b5b602002602001018181525050611e56565b6000828281518110611e4957611e48612b9d565b5b6020026020010181815250505b8080611e61906129e5565b915050611d51565b508091505090565b60045481565b60065481565b60008290506000600567ffffffffffffffff811115611e9f57611e9e612b6e565b5b604051908082528060200260200182016040528015611ecd5781602001602082028036833780820191505090505b509050600581600081518110611ee657611ee5612b9d565b5b602002602001018181525050600381600181518110611f0857611f07612b9d565b5b602002602001018181525050600281600281518110611f2a57611f29612b9d565b5b602002602001018181525050600181600381518110611f4c57611f4b612b9d565b5b602002602001018181525050600181600481518110611f6e57611f6d612b9d565b5b602002602001018181525050600080600090505b60148110156122e5576000811415611f9d5760009150611fe5565b6001811415611faf5760019150611fe4565b6002811415611fc15760029150611fe3565b6002811115611fd35760039150611fe2565b6007811115611fe157600491505b5b5b5b5b600073ffffffffffffffffffffffffffffffffffffffff16600b60008673ffffffffffffffffffffffffffffffffffffffff1673ffffffffffffffffffffffffffffffffffffffff16815260200190815260200160002060020160009054906101000a900473ffffffffffffffffffffffffffffffffffffffff1673ffffffffffffffffffffffffffffffffffffffff16146122cd57600b60008573ffffffffffffffffffffffffffffffffffffffff1673ffffffffffffffffffffffffffffffffffffffff16815260200190815260200160002060020160009054906101000a900473ffffffffffffffffffffffffffffffffffffffff16935060006064866305f5e1008686815181106120fd576120fc612b9d565b5b602002602001015161210f9190612a84565b6121199190612a84565b6121239190612c2f565b9050600483141561213e5760028161213b9190612c2f565b90505b600160009054906101000a900473ffffffffffffffffffffffffffffffffffffffff1673ffffffffffffffffffffffffffffffffffffffff1663a9059cbb86836040518363ffffffff1660e01b815260040161219b929190612cf2565b602060405180830381600087803b1580156121b557600080fd5b505af11580156121c9573d6000803e3d6000fd5b505050506040513d601f19601f820116820180604052508101906121ed9190612b41565b5080600b60008773ffffffffffffffffffffffffffffffffffffffff1673ffffffffffffffffffffffffffffffffffffffff168152602001908152602001600020600301600084815260200190815260200160002060000160008282546122549190612a2e565b92505081905550600b60008673ffffffffffffffffffffffffffffffffffffffff1673ffffffffffffffffffffffffffffffffffffffff168152602001908152602001600020600301600083815260200190815260200160002060010160008154809291906122c2906129e5565b9190505550506122d2565b6122e5565b80806122dd906129e5565b915050611f82565b505050505050565b6040518060c0016040528060008152602001600081526020016000815260200160008152602001600081526020016000151581525090565b600081519050919050565b600082825260208201905092915050565b6000819050602082019050919050565b600073ffffffffffffffffffffffffffffffffffffffff82169050919050565b600061237c82612351565b9050919050565b61238c81612371565b82525050565b600061239e8383612383565b60208301905092915050565b6000602082019050919050565b60006123c282612325565b6123cc8185612330565b93506123d783612341565b8060005b838110156124085781516123ef8882612392565b97506123fa836123aa565b9250506001810190506123db565b5085935050505092915050565b6000602082019050818103600083015261242f81846123b7565b905092915050565b6000819050919050565b61244a81612437565b82525050565b60006020820190506124656000830184612441565b92915050565b600080fd5b61247981612437565b811461248457600080fd5b50565b60008135905061249681612470565b92915050565b6124a581612371565b81146124b057600080fd5b50565b6000813590506124c28161249c565b92915050565b600080604083850312156124df576124de61246b565b5b60006124ed85828601612487565b92505060206124fe858286016124b3565b9150509250929050565b60008115159050919050565b61251d81612508565b82525050565b60006020820190506125386000830184612514565b92915050565b6000602082840312156125545761255361246b565b5b600061256284828501612487565b91505092915050565b600081519050919050565b600082825260208201905092915050565b6000819050602082019050919050565b6125a081612437565b82525050565b6125af81612508565b82525050565b60c0820160008201516125cb6000850182612597565b5060208201516125de6020850182612597565b5060408201516125f16040850182612597565b5060608201516126046060850182612597565b5060808201516126176080850182612597565b5060a082015161262a60a08501826125a6565b50505050565b600061263c83836125b5565b60c08301905092915050565b6000602082019050919050565b60006126608261256b565b61266a8185612576565b935061267583612587565b8060005b838110156126a657815161268d8882612630565b975061269883612648565b925050600181019050612679565b5085935050505092915050565b600060208201905081810360008301526126cd8184612655565b905092915050565b600080600080608085870312156126ef576126ee61246b565b5b60006126fd87828801612487565b945050602061270e87828801612487565b935050604061271f87828801612487565b925050606061273087828801612487565b91505092959194509250565b61274581612371565b82525050565b6000602082019050612760600083018461273c565b92915050565b6000806040838503121561277d5761277c61246b565b5b600061278b85828601612487565b925050602061279c85828601612487565b9150509250929050565b600081519050919050565b600082825260208201905092915050565b6000819050602082019050919050565b60006127de8383612597565b60208301905092915050565b6000602082019050919050565b6000612802826127a6565b61280c81856127b1565b9350612817836127c2565b8060005b8381101561284857815161282f88826127d2565b975061283a836127ea565b92505060018101905061281b565b5085935050505092915050565b6000602082019050818103600083015261286f81846127f7565b905092915050565b60006020828403121561288d5761288c61246b565b5b600061289b848285016124b3565b91505092915050565b600060e0820190506128b9600083018a61273c565b6128c66020830189612441565b6128d36040830188612441565b6128e06060830187612441565b6128ed6080830186612441565b6128fa60a0830185612514565b61290760c0830184612441565b98975050505050505050565b600082825260208201905092915050565b7f76616c7565206973206e6f742067726561746572207468616e2031303030302060008201527f616e64206c657373207468616e20353030303030300000000000000000000000602082015250565b6000612980603583612913565b915061298b82612924565b604082019050919050565b600060208201905081810360008301526129af81612973565b9050919050565b7f4e487b7100000000000000000000000000000000000000000000000000000000600052601160045260246000fd5b60006129f082612437565b91507fffffffffffffffffffffffffffffffffffffffffffffffffffffffffffffffff821415612a2357612a226129b6565b5b600182019050919050565b6000612a3982612437565b9150612a4483612437565b9250827fffffffffffffffffffffffffffffffffffffffffffffffffffffffffffffffff03821115612a7957612a786129b6565b5b828201905092915050565b6000612a8f82612437565b9150612a9a83612437565b9250817fffffffffffffffffffffffffffffffffffffffffffffffffffffffffffffffff0483118215151615612ad357612ad26129b6565b5b828202905092915050565b6000606082019050612af3600083018661273c565b612b00602083018561273c565b612b0d6040830184612441565b949350505050565b612b1e81612508565b8114612b2957600080fd5b50565b600081519050612b3b81612b15565b92915050565b600060208284031215612b5757612b5661246b565b5b6000612b6584828501612b2c565b91505092915050565b7f4e487b7100000000000000000000000000000000000000000000000000000000600052604160045260246000fd5b7f4e487b7100000000000000000000000000000000000000000000000000000000600052603260045260246000fd5b6000612bd782612437565b9150612be283612437565b925082821015612bf557612bf46129b6565b5b828203905092915050565b7f4e487b7100000000000000000000000000000000000000000000000000000000600052601260045260246000fd5b6000612c3a82612437565b9150612c4583612437565b925082612c5557612c54612c00565b5b828204905092915050565b7f796f7520646f6e74206861766520696e766573746d656e7420746f207769746860008201527f647261776e000000000000000000000000000000000000000000000000000000602082015250565b6000612cbc602583612913565b9150612cc782612c60565b604082019050919050565b60006020820190508181036000830152612ceb81612caf565b9050919050565b6000604082019050612d07600083018561273c565b612d146020830184612441565b9392505050565b7f796f7520646f6e742068617665207265776172647320746f207769746864726160008201527f776e000000000000000000000000000000000000000000000000000000000000602082015250565b6000612d77602283612913565b9150612d8282612d1b565b604082019050919050565b60006020820190508181036000830152612da681612d6a565b9050919050565b7f6f6e6c79204f776e65722063616e2063616c6c20746869732066756e6374696f60008201527f6e00000000000000000000000000000000000000000000000000000000000000602082015250565b6000612e09602183612913565b9150612e1482612dad565b604082019050919050565b60006020820190508181036000830152612e3881612dfc565b905091905056fea2646970667358221220d0ab7fe7d8752070edd94e34b5288ffc55b1021d7da2d4b21caa23fadd4a244664736f6c63430008090033",
					"opcodes": "PUSH1 0x80 PUSH1 0x40 MSTORE PUSH20 0x4D00DDCC526C14FD353131F289B1E62C856E9737 PUSH1 0x1 PUSH1 0x0 PUSH2 0x100 EXP DUP2 SLOAD DUP2 PUSH20 0xFFFFFFFFFFFFFFFFFFFFFFFFFFFFFFFFFFFFFFFF MUL NOT AND SWAP1 DUP4 PUSH20 0xFFFFFFFFFFFFFFFFFFFFFFFFFFFFFFFFFFFFFFFF AND MUL OR SWAP1 SSTORE POP PUSH20 0xE9E7CEA3DEDCA5984780BAFC599BD69ADD087D56 PUSH1 0x2 PUSH1 0x0 PUSH2 0x100 EXP DUP2 SLOAD DUP2 PUSH20 0xFFFFFFFFFFFFFFFFFFFFFFFFFFFFFFFFFFFFFFFF MUL NOT AND SWAP1 DUP4 PUSH20 0xFFFFFFFFFFFFFFFFFFFFFFFFFFFFFFFFFFFFFFFF AND MUL OR SWAP1 SSTORE POP PUSH8 0x4563918244F40000 PUSH1 0x4 SSTORE PUSH2 0x2710 PUSH1 0x5 SSTORE PUSH3 0x4C4B40 PUSH1 0x6 SSTORE PUSH3 0x186A0 PUSH1 0x7 SSTORE PUSH4 0x18B8200 PUSH1 0x8 SSTORE CALLVALUE DUP1 ISZERO PUSH2 0xE2 JUMPI PUSH1 0x0 DUP1 REVERT JUMPDEST POP CALLER PUSH1 0x0 DUP1 PUSH2 0x100 EXP DUP2 SLOAD DUP2 PUSH20 0xFFFFFFFFFFFFFFFFFFFFFFFFFFFFFFFFFFFFFFFF MUL NOT AND SWAP1 DUP4 PUSH20 0xFFFFFFFFFFFFFFFFFFFFFFFFFFFFFFFFFFFFFFFF AND MUL OR SWAP1 SSTORE POP PUSH2 0x2E75 DUP1 PUSH2 0x132 PUSH1 0x0 CODECOPY PUSH1 0x0 RETURN INVALID PUSH1 0x80 PUSH1 0x40 MSTORE CALLVALUE DUP1 ISZERO PUSH2 0x10 JUMPI PUSH1 0x0 DUP1 REVERT JUMPDEST POP PUSH1 0x4 CALLDATASIZE LT PUSH2 0x158 JUMPI PUSH1 0x0 CALLDATALOAD PUSH1 0xE0 SHR DUP1 PUSH4 0x929F6BBE GT PUSH2 0xC3 JUMPI DUP1 PUSH4 0xD3560EE8 GT PUSH2 0x7C JUMPI DUP1 PUSH4 0xD3560EE8 EQ PUSH2 0x383 JUMPI DUP1 PUSH4 0xE2033FCB EQ PUSH2 0x3B9 JUMPI DUP1 PUSH4 0xF2FDE38B EQ PUSH2 0x3D7 JUMPI DUP1 PUSH4 0xF790B81A EQ PUSH2 0x3F3 JUMPI DUP1 PUSH4 0xF7C618C1 EQ PUSH2 0x411 JUMPI DUP1 PUSH4 0xFAE730BC EQ PUSH2 0x42F JUMPI PUSH2 0x158 JUMP JUMPDEST DUP1 PUSH4 0x929F6BBE EQ PUSH2 0x2D1 JUMPI DUP1 PUSH4 0x9740A1BC EQ PUSH2 0x2EF JUMPI DUP1 PUSH4 0xA47BD496 EQ PUSH2 0x30D JUMPI DUP1 PUSH4 0xA61BE99D EQ PUSH2 0x329 JUMPI DUP1 PUSH4 0xBC67EAFF EQ PUSH2 0x347 JUMPI DUP1 PUSH4 0xC885BC58 EQ PUSH2 0x365 JUMPI PUSH2 0x158 JUMP JUMPDEST DUP1 PUSH4 0x3D18B912 GT PUSH2 0x115 JUMPI DUP1 PUSH4 0x3D18B912 EQ PUSH2 0x221 JUMPI DUP1 PUSH4 0x4EB1ECC9 EQ PUSH2 0x23F JUMPI DUP1 PUSH4 0x500CB85F EQ PUSH2 0x25B JUMPI DUP1 PUSH4 0x523CDDFE EQ PUSH2 0x277 JUMPI DUP1 PUSH4 0x73CF575A EQ PUSH2 0x295 JUMPI DUP1 PUSH4 0x8DA5CB5B EQ PUSH2 0x2B3 JUMPI PUSH2 0x158 JUMP JUMPDEST DUP1 PUSH4 0xC5F58F4 EQ PUSH2 0x15D JUMPI DUP1 PUSH4 0x10CDE60A EQ PUSH2 0x17B JUMPI DUP1 PUSH4 0x1E8ABA35 EQ PUSH2 0x199 JUMPI DUP1 PUSH4 0x2BCCDCE6 EQ PUSH2 0x1B7 JUMPI DUP1 PUSH4 0x32D4E783 EQ PUSH2 0x1E7 JUMPI DUP1 PUSH4 0x3A1E0833 EQ PUSH2 0x203 JUMPI JUMPDEST PUSH1 0x0 DUP1 REVERT JUMPDEST PUSH2 0x165 PUSH2 0x44D JUMP JUMPDEST PUSH1 0x40 MLOAD PUSH2 0x172 SWAP2 SWAP1 PUSH2 0x2415 JUMP JUMPDEST PUSH1 0x40 MLOAD DUP1 SWAP2 SUB SWAP1 RETURN JUMPDEST PUSH2 0x183 PUSH2 0x51B JUMP JUMPDEST PUSH1 0x40 MLOAD PUSH2 0x190 SWAP2 SWAP1 PUSH2 0x2450 JUMP JUMPDEST PUSH1 0x40 MLOAD DUP1 SWAP2 SUB SWAP1 RETURN JUMPDEST PUSH2 0x1A1 PUSH2 0x521 JUMP JUMPDEST PUSH1 0x40 MLOAD PUSH2 0x1AE SWAP2 SWAP1 PUSH2 0x2450 JUMP JUMPDEST PUSH1 0x40 MLOAD DUP1 SWAP2 SUB SWAP1 RETURN JUMPDEST PUSH2 0x1D1 PUSH1 0x4 DUP1 CALLDATASIZE SUB DUP2 ADD SWAP1 PUSH2 0x1CC SWAP2 SWAP1 PUSH2 0x24C8 JUMP JUMPDEST PUSH2 0x56E JUMP JUMPDEST PUSH1 0x40 MLOAD PUSH2 0x1DE SWAP2 SWAP1 PUSH2 0x2523 JUMP JUMPDEST PUSH1 0x40 MLOAD DUP1 SWAP2 SUB SWAP1 RETURN JUMPDEST PUSH2 0x201 PUSH1 0x4 DUP1 CALLDATASIZE SUB DUP2 ADD SWAP1 PUSH2 0x1FC SWAP2 SWAP1 PUSH2 0x253E JUMP JUMPDEST PUSH2 0xD0A JUMP JUMPDEST STOP JUMPDEST PUSH2 0x20B PUSH2 0xD14 JUMP JUMPDEST PUSH1 0x40 MLOAD PUSH2 0x218 SWAP2 SWAP1 PUSH2 0x26B3 JUMP JUMPDEST PUSH1 0x40 MLOAD DUP1 SWAP2 SUB SWAP1 RETURN JUMPDEST PUSH2 0x229 PUSH2 0xFA5 JUMP JUMPDEST PUSH1 0x40 MLOAD PUSH2 0x236 SWAP2 SWAP1 PUSH2 0x2450 JUMP JUMPDEST PUSH1 0x40 MLOAD DUP1 SWAP2 SUB SWAP1 RETURN JUMPDEST PUSH2 0x259 PUSH1 0x4 DUP1 CALLDATASIZE SUB DUP2 ADD SWAP1 PUSH2 0x254 SWAP2 SWAP1 PUSH2 0x26D5 JUMP JUMPDEST PUSH2 0x129E JUMP JUMPDEST STOP JUMPDEST PUSH2 0x275 PUSH1 0x4 DUP1 CALLDATASIZE SUB DUP2 ADD SWAP1 PUSH2 0x270 SWAP2 SWAP1 PUSH2 0x253E JUMP JUMPDEST PUSH2 0x12C0 JUMP JUMPDEST STOP JUMPDEST PUSH2 0x27F PUSH2 0x12CA JUMP JUMPDEST PUSH1 0x40 MLOAD PUSH2 0x28C SWAP2 SWAP1 PUSH2 0x2450 JUMP JUMPDEST PUSH1 0x40 MLOAD DUP1 SWAP2 SUB SWAP1 RETURN JUMPDEST PUSH2 0x29D PUSH2 0x12D0 JUMP JUMPDEST PUSH1 0x40 MLOAD PUSH2 0x2AA SWAP2 SWAP1 PUSH2 0x2523 JUMP JUMPDEST PUSH1 0x40 MLOAD DUP1 SWAP2 SUB SWAP1 RETURN JUMPDEST PUSH2 0x2BB PUSH2 0x1858 JUMP JUMPDEST PUSH1 0x40 MLOAD PUSH2 0x2C8 SWAP2 SWAP1 PUSH2 0x274B JUMP JUMPDEST PUSH1 0x40 MLOAD DUP1 SWAP2 SUB SWAP1 RETURN JUMPDEST PUSH2 0x2D9 PUSH2 0x187C JUMP JUMPDEST PUSH1 0x40 MLOAD PUSH2 0x2E6 SWAP2 SWAP1 PUSH2 0x2450 JUMP JUMPDEST PUSH1 0x40 MLOAD DUP1 SWAP2 SUB SWAP1 RETURN JUMPDEST PUSH2 0x2F7 PUSH2 0x18C6 JUMP JUMPDEST PUSH1 0x40 MLOAD PUSH2 0x304 SWAP2 SWAP1 PUSH2 0x2450 JUMP JUMPDEST PUSH1 0x40 MLOAD DUP1 SWAP2 SUB SWAP1 RETURN JUMPDEST PUSH2 0x327 PUSH1 0x4 DUP1 CALLDATASIZE SUB DUP2 ADD SWAP1 PUSH2 0x322 SWAP2 SWAP1 PUSH2 0x2766 JUMP JUMPDEST PUSH2 0x18CC JUMP JUMPDEST STOP JUMPDEST PUSH2 0x331 PUSH2 0x18DE JUMP JUMPDEST PUSH1 0x40 MLOAD PUSH2 0x33E SWAP2 SWAP1 PUSH2 0x2855 JUMP JUMPDEST PUSH1 0x40 MLOAD DUP1 SWAP2 SUB SWAP1 RETURN JUMPDEST PUSH2 0x34F PUSH2 0x1A51 JUMP JUMPDEST PUSH1 0x40 MLOAD PUSH2 0x35C SWAP2 SWAP1 PUSH2 0x2450 JUMP JUMPDEST PUSH1 0x40 MLOAD DUP1 SWAP2 SUB SWAP1 RETURN JUMPDEST PUSH2 0x36D PUSH2 0x1A57 JUMP JUMPDEST PUSH1 0x40 MLOAD PUSH2 0x37A SWAP2 SWAP1 PUSH2 0x2523 JUMP JUMPDEST PUSH1 0x40 MLOAD DUP1 SWAP2 SUB SWAP1 RETURN JUMPDEST PUSH2 0x39D PUSH1 0x4 DUP1 CALLDATASIZE SUB DUP2 ADD SWAP1 PUSH2 0x398 SWAP2 SWAP1 PUSH2 0x2877 JUMP JUMPDEST PUSH2 0x1BB8 JUMP JUMPDEST PUSH1 0x40 MLOAD PUSH2 0x3B0 SWAP8 SWAP7 SWAP6 SWAP5 SWAP4 SWAP3 SWAP2 SWAP1 PUSH2 0x28A4 JUMP JUMPDEST PUSH1 0x40 MLOAD DUP1 SWAP2 SUB SWAP1 RETURN JUMPDEST PUSH2 0x3C1 PUSH2 0x1C27 JUMP JUMPDEST PUSH1 0x40 MLOAD PUSH2 0x3CE SWAP2 SWAP1 PUSH2 0x2450 JUMP JUMPDEST PUSH1 0x40 MLOAD DUP1 SWAP2 SUB SWAP1 RETURN JUMPDEST PUSH2 0x3F1 PUSH1 0x4 DUP1 CALLDATASIZE SUB DUP2 ADD SWAP1 PUSH2 0x3EC SWAP2 SWAP1 PUSH2 0x2877 JUMP JUMPDEST PUSH2 0x1C2D JUMP JUMPDEST STOP JUMPDEST PUSH2 0x3FB PUSH2 0x1CFE JUMP JUMPDEST PUSH1 0x40 MLOAD PUSH2 0x408 SWAP2 SWAP1 PUSH2 0x2855 JUMP JUMPDEST PUSH1 0x40 MLOAD DUP1 SWAP2 SUB SWAP1 RETURN JUMPDEST PUSH2 0x419 PUSH2 0x1E71 JUMP JUMPDEST PUSH1 0x40 MLOAD PUSH2 0x426 SWAP2 SWAP1 PUSH2 0x2450 JUMP JUMPDEST PUSH1 0x40 MLOAD DUP1 SWAP2 SUB SWAP1 RETURN JUMPDEST PUSH2 0x437 PUSH2 0x1E77 JUMP JUMPDEST PUSH1 0x40 MLOAD PUSH2 0x444 SWAP2 SWAP1 PUSH2 0x2450 JUMP JUMPDEST PUSH1 0x40 MLOAD DUP1 SWAP2 SUB SWAP1 RETURN JUMPDEST PUSH1 0x60 PUSH1 0xB PUSH1 0x0 CALLER PUSH20 0xFFFFFFFFFFFFFFFFFFFFFFFFFFFFFFFFFFFFFFFF AND PUSH20 0xFFFFFFFFFFFFFFFFFFFFFFFFFFFFFFFFFFFFFFFF AND DUP2 MSTORE PUSH1 0x20 ADD SWAP1 DUP2 MSTORE PUSH1 0x20 ADD PUSH1 0x0 KECCAK256 PUSH1 0x1 ADD DUP1 SLOAD DUP1 PUSH1 0x20 MUL PUSH1 0x20 ADD PUSH1 0x40 MLOAD SWAP1 DUP2 ADD PUSH1 0x40 MSTORE DUP1 SWAP3 SWAP2 SWAP1 DUP2 DUP2 MSTORE PUSH1 0x20 ADD DUP3 DUP1 SLOAD DUP1 ISZERO PUSH2 0x511 JUMPI PUSH1 0x20 MUL DUP3 ADD SWAP2 SWAP1 PUSH1 0x0 MSTORE PUSH1 0x20 PUSH1 0x0 KECCAK256 SWAP1 JUMPDEST DUP2 PUSH1 0x0 SWAP1 SLOAD SWAP1 PUSH2 0x100 EXP SWAP1 DIV PUSH20 0xFFFFFFFFFFFFFFFFFFFFFFFFFFFFFFFFFFFFFFFF AND PUSH20 0xFFFFFFFFFFFFFFFFFFFFFFFFFFFFFFFFFFFFFFFF AND DUP2 MSTORE PUSH1 0x20 ADD SWAP1 PUSH1 0x1 ADD SWAP1 DUP1 DUP4 GT PUSH2 0x4C7 JUMPI JUMPDEST POP POP POP POP POP SWAP1 POP SWAP1 JUMP JUMPDEST PUSH1 0x3 SLOAD DUP2 JUMP JUMPDEST PUSH1 0x0 PUSH1 0xB PUSH1 0x0 CALLER PUSH20 0xFFFFFFFFFFFFFFFFFFFFFFFFFFFFFFFFFFFFFFFF AND PUSH20 0xFFFFFFFFFFFFFFFFFFFFFFFFFFFFFFFFFFFFFFFF AND DUP2 MSTORE PUSH1 0x20 ADD SWAP1 DUP2 MSTORE PUSH1 0x20 ADD PUSH1 0x0 KECCAK256 PUSH1 0x1 ADD DUP1 SLOAD SWAP1 POP SWAP1 POP SWAP1 JUMP JUMPDEST PUSH1 0x0 PUSH1 0x5 SLOAD DUP4 LT ISZERO DUP1 ISZERO PUSH2 0x584 JUMPI POP PUSH1 0x6 SLOAD DUP4 GT ISZERO JUMPDEST PUSH2 0x5C3 JUMPI PUSH1 0x40 MLOAD PUSH32 0x8C379A000000000000000000000000000000000000000000000000000000000 DUP2 MSTORE PUSH1 0x4 ADD PUSH2 0x5BA SWAP1 PUSH2 0x2996 JUMP JUMPDEST PUSH1 0x40 MLOAD DUP1 SWAP2 SUB SWAP1 REVERT JUMPDEST PUSH1 0x0 ISZERO ISZERO PUSH1 0xB PUSH1 0x0 CALLER PUSH20 0xFFFFFFFFFFFFFFFFFFFFFFFFFFFFFFFFFFFFFFFF AND PUSH20 0xFFFFFFFFFFFFFFFFFFFFFFFFFFFFFFFFFFFFFFFF AND DUP2 MSTORE PUSH1 0x20 ADD SWAP1 DUP2 MSTORE PUSH1 0x20 ADD PUSH1 0x0 KECCAK256 PUSH1 0x8 ADD PUSH1 0x0 SWAP1 SLOAD SWAP1 PUSH2 0x100 EXP SWAP1 DIV PUSH1 0xFF AND ISZERO ISZERO EQ ISZERO PUSH2 0x638 JUMPI PUSH1 0x3 PUSH1 0x0 DUP2 SLOAD DUP1 SWAP3 SWAP2 SWAP1 PUSH2 0x632 SWAP1 PUSH2 0x29E5 JUMP JUMPDEST SWAP2 SWAP1 POP SSTORE POP JUMPDEST PUSH1 0x0 PUSH1 0xB PUSH1 0x0 CALLER PUSH20 0xFFFFFFFFFFFFFFFFFFFFFFFFFFFFFFFFFFFFFFFF AND PUSH20 0xFFFFFFFFFFFFFFFFFFFFFFFFFFFFFFFFFFFFFFFF AND DUP2 MSTORE PUSH1 0x20 ADD SWAP1 DUP2 MSTORE PUSH1 0x20 ADD PUSH1 0x0 KECCAK256 PUSH1 0x6 ADD SLOAD EQ ISZERO PUSH2 0x6DA JUMPI PUSH4 0x18B8200 TIMESTAMP PUSH2 0x693 SWAP2 SWAP1 PUSH2 0x2A2E JUMP JUMPDEST PUSH1 0xB PUSH1 0x0 CALLER PUSH20 0xFFFFFFFFFFFFFFFFFFFFFFFFFFFFFFFFFFFFFFFF AND PUSH20 0xFFFFFFFFFFFFFFFFFFFFFFFFFFFFFFFFFFFFFFFF AND DUP2 MSTORE PUSH1 0x20 ADD SWAP1 DUP2 MSTORE PUSH1 0x20 ADD PUSH1 0x0 KECCAK256 PUSH1 0x9 ADD DUP2 SWAP1 SSTORE POP JUMPDEST PUSH1 0x0 PUSH1 0xB PUSH1 0x0 CALLER PUSH20 0xFFFFFFFFFFFFFFFFFFFFFFFFFFFFFFFFFFFFFFFF AND PUSH20 0xFFFFFFFFFFFFFFFFFFFFFFFFFFFFFFFFFFFFFFFF AND DUP2 MSTORE PUSH1 0x20 ADD SWAP1 DUP2 MSTORE PUSH1 0x20 ADD PUSH1 0x0 KECCAK256 PUSH1 0x5 ADD SLOAD SWAP1 POP DUP4 PUSH1 0xB PUSH1 0x0 CALLER PUSH20 0xFFFFFFFFFFFFFFFFFFFFFFFFFFFFFFFFFFFFFFFF AND PUSH20 0xFFFFFFFFFFFFFFFFFFFFFFFFFFFFFFFFFFFFFFFF AND DUP2 MSTORE PUSH1 0x20 ADD SWAP1 DUP2 MSTORE PUSH1 0x20 ADD PUSH1 0x0 KECCAK256 PUSH1 0x0 ADD PUSH1 0x0 DUP4 DUP2 MSTORE PUSH1 0x20 ADD SWAP1 DUP2 MSTORE PUSH1 0x20 ADD PUSH1 0x0 KECCAK256 PUSH1 0x0 ADD DUP2 SWAP1 SSTORE POP TIMESTAMP PUSH1 0xB PUSH1 0x0 CALLER PUSH20 0xFFFFFFFFFFFFFFFFFFFFFFFFFFFFFFFFFFFFFFFF AND PUSH20 0xFFFFFFFFFFFFFFFFFFFFFFFFFFFFFFFFFFFFFFFF AND DUP2 MSTORE PUSH1 0x20 ADD SWAP1 DUP2 MSTORE PUSH1 0x20 ADD PUSH1 0x0 KECCAK256 PUSH1 0x0 ADD PUSH1 0x0 DUP4 DUP2 MSTORE PUSH1 0x20 ADD SWAP1 DUP2 MSTORE PUSH1 0x20 ADD PUSH1 0x0 KECCAK256 PUSH1 0x2 ADD DUP2 SWAP1 SSTORE POP PUSH1 0x8 SLOAD TIMESTAMP PUSH2 0x7E5 SWAP2 SWAP1 PUSH2 0x2A2E JUMP JUMPDEST PUSH1 0xB PUSH1 0x0 CALLER PUSH20 0xFFFFFFFFFFFFFFFFFFFFFFFFFFFFFFFFFFFFFFFF AND PUSH20 0xFFFFFFFFFFFFFFFFFFFFFFFFFFFFFFFFFFFFFFFF AND DUP2 MSTORE PUSH1 0x20 ADD SWAP1 DUP2 MSTORE PUSH1 0x20 ADD PUSH1 0x0 KECCAK256 PUSH1 0x0 ADD PUSH1 0x0 DUP4 DUP2 MSTORE PUSH1 0x20 ADD SWAP1 DUP2 MSTORE PUSH1 0x20 ADD PUSH1 0x0 KECCAK256 PUSH1 0x1 ADD DUP2 SWAP1 SSTORE POP DUP1 PUSH1 0xB PUSH1 0x0 CALLER PUSH20 0xFFFFFFFFFFFFFFFFFFFFFFFFFFFFFFFFFFFFFFFF AND PUSH20 0xFFFFFFFFFFFFFFFFFFFFFFFFFFFFFFFFFFFFFFFF AND DUP2 MSTORE PUSH1 0x20 ADD SWAP1 DUP2 MSTORE PUSH1 0x20 ADD PUSH1 0x0 KECCAK256 PUSH1 0x0 ADD PUSH1 0x0 DUP4 DUP2 MSTORE PUSH1 0x20 ADD SWAP1 DUP2 MSTORE PUSH1 0x20 ADD PUSH1 0x0 KECCAK256 PUSH1 0x3 ADD DUP2 SWAP1 SSTORE POP DUP4 PUSH1 0xB PUSH1 0x0 CALLER PUSH20 0xFFFFFFFFFFFFFFFFFFFFFFFFFFFFFFFFFFFFFFFF AND PUSH20 0xFFFFFFFFFFFFFFFFFFFFFFFFFFFFFFFFFFFFFFFF AND DUP2 MSTORE PUSH1 0x20 ADD SWAP1 DUP2 MSTORE PUSH1 0x20 ADD PUSH1 0x0 KECCAK256 PUSH1 0x6 ADD PUSH1 0x0 DUP3 DUP3 SLOAD PUSH2 0x8EC SWAP2 SWAP1 PUSH2 0x2A2E JUMP JUMPDEST SWAP3 POP POP DUP2 SWAP1 SSTORE POP PUSH1 0xB PUSH1 0x0 CALLER PUSH20 0xFFFFFFFFFFFFFFFFFFFFFFFFFFFFFFFFFFFFFFFF AND PUSH20 0xFFFFFFFFFFFFFFFFFFFFFFFFFFFFFFFFFFFFFFFF AND DUP2 MSTORE PUSH1 0x20 ADD SWAP1 DUP2 MSTORE PUSH1 0x20 ADD PUSH1 0x0 KECCAK256 PUSH1 0x5 ADD PUSH1 0x0 DUP2 SLOAD DUP1 SWAP3 SWAP2 SWAP1 PUSH2 0x946 SWAP1 PUSH2 0x29E5 JUMP JUMPDEST SWAP2 SWAP1 POP SSTORE POP DUP4 PUSH1 0x9 PUSH1 0x0 DUP3 DUP3 SLOAD PUSH2 0x95D SWAP2 SWAP1 PUSH2 0x2A2E JUMP JUMPDEST SWAP3 POP POP DUP2 SWAP1 SSTORE POP PUSH1 0x1 PUSH1 0x0 SWAP1 SLOAD SWAP1 PUSH2 0x100 EXP SWAP1 DIV PUSH20 0xFFFFFFFFFFFFFFFFFFFFFFFFFFFFFFFFFFFFFFFF AND PUSH20 0xFFFFFFFFFFFFFFFFFFFFFFFFFFFFFFFFFFFFFFFF AND PUSH4 0x23B872DD CALLER ADDRESS PUSH4 0x5F5E100 DUP9 PUSH2 0x9B4 SWAP2 SWAP1 PUSH2 0x2A84 JUMP JUMPDEST PUSH1 0x40 MLOAD DUP5 PUSH4 0xFFFFFFFF AND PUSH1 0xE0 SHL DUP2 MSTORE PUSH1 0x4 ADD PUSH2 0x9D2 SWAP4 SWAP3 SWAP2 SWAP1 PUSH2 0x2ADE JUMP JUMPDEST PUSH1 0x20 PUSH1 0x40 MLOAD DUP1 DUP4 SUB DUP2 PUSH1 0x0 DUP8 DUP1 EXTCODESIZE ISZERO DUP1 ISZERO PUSH2 0x9EC JUMPI PUSH1 0x0 DUP1 REVERT JUMPDEST POP GAS CALL ISZERO DUP1 ISZERO PUSH2 0xA00 JUMPI RETURNDATASIZE PUSH1 0x0 DUP1 RETURNDATACOPY RETURNDATASIZE PUSH1 0x0 REVERT JUMPDEST POP POP POP POP PUSH1 0x40 MLOAD RETURNDATASIZE PUSH1 0x1F NOT PUSH1 0x1F DUP3 ADD AND DUP3 ADD DUP1 PUSH1 0x40 MSTORE POP DUP2 ADD SWAP1 PUSH2 0xA24 SWAP2 SWAP1 PUSH2 0x2B41 JUMP JUMPDEST POP PUSH1 0x0 PUSH20 0xFFFFFFFFFFFFFFFFFFFFFFFFFFFFFFFFFFFFFFFF AND DUP4 PUSH20 0xFFFFFFFFFFFFFFFFFFFFFFFFFFFFFFFFFFFFFFFF AND EQ DUP1 PUSH2 0xA8B JUMPI POP CALLER PUSH20 0xFFFFFFFFFFFFFFFFFFFFFFFFFFFFFFFFFFFFFFFF AND DUP4 PUSH20 0xFFFFFFFFFFFFFFFFFFFFFFFFFFFFFFFFFFFFFFFF AND EQ JUMPDEST DUP1 PUSH2 0xAE9 JUMPI POP PUSH1 0x1 ISZERO ISZERO PUSH1 0xB PUSH1 0x0 CALLER PUSH20 0xFFFFFFFFFFFFFFFFFFFFFFFFFFFFFFFFFFFFFFFF AND PUSH20 0xFFFFFFFFFFFFFFFFFFFFFFFFFFFFFFFFFFFFFFFF AND DUP2 MSTORE PUSH1 0x20 ADD SWAP1 DUP2 MSTORE PUSH1 0x20 ADD PUSH1 0x0 KECCAK256 PUSH1 0x8 ADD PUSH1 0x0 SWAP1 SLOAD SWAP1 PUSH2 0x100 EXP SWAP1 DIV PUSH1 0xFF AND ISZERO ISZERO EQ JUMPDEST ISZERO PUSH2 0xB75 JUMPI PUSH1 0x0 PUSH1 0xB PUSH1 0x0 CALLER PUSH20 0xFFFFFFFFFFFFFFFFFFFFFFFFFFFFFFFFFFFFFFFF AND PUSH20 0xFFFFFFFFFFFFFFFFFFFFFFFFFFFFFFFFFFFFFFFF AND DUP2 MSTORE PUSH1 0x20 ADD SWAP1 DUP2 MSTORE PUSH1 0x20 ADD PUSH1 0x0 KECCAK256 PUSH1 0x2 ADD PUSH1 0x0 PUSH2 0x100 EXP DUP2 SLOAD DUP2 PUSH20 0xFFFFFFFFFFFFFFFFFFFFFFFFFFFFFFFFFFFFFFFF MUL NOT AND SWAP1 DUP4 PUSH20 0xFFFFFFFFFFFFFFFFFFFFFFFFFFFFFFFFFFFFFFFF AND MUL OR SWAP1 SSTORE POP PUSH2 0xCA4 JUMP JUMPDEST DUP3 PUSH1 0xB PUSH1 0x0 CALLER PUSH20 0xFFFFFFFFFFFFFFFFFFFFFFFFFFFFFFFFFFFFFFFF AND PUSH20 0xFFFFFFFFFFFFFFFFFFFFFFFFFFFFFFFFFFFFFFFF AND DUP2 MSTORE PUSH1 0x20 ADD SWAP1 DUP2 MSTORE PUSH1 0x20 ADD PUSH1 0x0 KECCAK256 PUSH1 0x2 ADD PUSH1 0x0 PUSH2 0x100 EXP DUP2 SLOAD DUP2 PUSH20 0xFFFFFFFFFFFFFFFFFFFFFFFFFFFFFFFFFFFFFFFF MUL NOT AND SWAP1 DUP4 PUSH20 0xFFFFFFFFFFFFFFFFFFFFFFFFFFFFFFFFFFFFFFFF AND MUL OR SWAP1 SSTORE POP PUSH1 0xB PUSH1 0x0 DUP5 PUSH20 0xFFFFFFFFFFFFFFFFFFFFFFFFFFFFFFFFFFFFFFFF AND PUSH20 0xFFFFFFFFFFFFFFFFFFFFFFFFFFFFFFFFFFFFFFFF AND DUP2 MSTORE PUSH1 0x20 ADD SWAP1 DUP2 MSTORE PUSH1 0x20 ADD PUSH1 0x0 KECCAK256 PUSH1 0x1 ADD CALLER SWAP1 DUP1 PUSH1 0x1 DUP2 SLOAD ADD DUP1 DUP3 SSTORE DUP1 SWAP2 POP POP PUSH1 0x1 SWAP1 SUB SWAP1 PUSH1 0x0 MSTORE PUSH1 0x20 PUSH1 0x0 KECCAK256 ADD PUSH1 0x0 SWAP1 SWAP2 SWAP1 SWAP2 SWAP1 SWAP2 PUSH2 0x100 EXP DUP2 SLOAD DUP2 PUSH20 0xFFFFFFFFFFFFFFFFFFFFFFFFFFFFFFFFFFFFFFFF MUL NOT AND SWAP1 DUP4 PUSH20 0xFFFFFFFFFFFFFFFFFFFFFFFFFFFFFFFFFFFFFFFF AND MUL OR SWAP1 SSTORE POP PUSH2 0xCA3 CALLER DUP6 PUSH2 0x1E7D JUMP JUMPDEST JUMPDEST PUSH1 0x1 PUSH1 0xB PUSH1 0x0 CALLER PUSH20 0xFFFFFFFFFFFFFFFFFFFFFFFFFFFFFFFFFFFFFFFF AND PUSH20 0xFFFFFFFFFFFFFFFFFFFFFFFFFFFFFFFFFFFFFFFF AND DUP2 MSTORE PUSH1 0x20 ADD SWAP1 DUP2 MSTORE PUSH1 0x20 ADD PUSH1 0x0 KECCAK256 PUSH1 0x8 ADD PUSH1 0x0 PUSH2 0x100 EXP DUP2 SLOAD DUP2 PUSH1 0xFF MUL NOT AND SWAP1 DUP4 ISZERO ISZERO MUL OR SWAP1 SSTORE POP PUSH1 0x1 SWAP2 POP POP SWAP3 SWAP2 POP POP JUMP JUMPDEST DUP1 PUSH1 0x5 DUP2 SWAP1 SSTORE POP POP JUMP JUMPDEST PUSH1 0x60 PUSH1 0x0 PUSH1 0xB PUSH1 0x0 CALLER PUSH20 0xFFFFFFFFFFFFFFFFFFFFFFFFFFFFFFFFFFFFFFFF AND PUSH20 0xFFFFFFFFFFFFFFFFFFFFFFFFFFFFFFFFFFFFFFFF AND DUP2 MSTORE PUSH1 0x20 ADD SWAP1 DUP2 MSTORE PUSH1 0x20 ADD PUSH1 0x0 KECCAK256 PUSH1 0x5 ADD SLOAD SWAP1 POP PUSH1 0x0 DUP1 PUSH1 0x0 JUMPDEST DUP4 DUP2 LT ISZERO PUSH2 0xDEC JUMPI PUSH1 0x0 PUSH1 0xB PUSH1 0x0 CALLER PUSH20 0xFFFFFFFFFFFFFFFFFFFFFFFFFFFFFFFFFFFFFFFF AND PUSH20 0xFFFFFFFFFFFFFFFFFFFFFFFFFFFFFFFFFFFFFFFF AND DUP2 MSTORE PUSH1 0x20 ADD SWAP1 DUP2 MSTORE PUSH1 0x20 ADD PUSH1 0x0 KECCAK256 PUSH1 0x0 ADD PUSH1 0x0 DUP4 DUP2 MSTORE PUSH1 0x20 ADD SWAP1 DUP2 MSTORE PUSH1 0x20 ADD PUSH1 0x0 KECCAK256 PUSH1 0x0 ADD SLOAD GT ISZERO PUSH2 0xDD9 JUMPI DUP3 DUP1 PUSH2 0xDD5 SWAP1 PUSH2 0x29E5 JUMP JUMPDEST SWAP4 POP POP JUMPDEST DUP1 DUP1 PUSH2 0xDE4 SWAP1 PUSH2 0x29E5 JUMP JUMPDEST SWAP2 POP POP PUSH2 0xD63 JUMP JUMPDEST POP PUSH1 0x0 DUP3 PUSH8 0xFFFFFFFFFFFFFFFF DUP2 GT ISZERO PUSH2 0xE09 JUMPI PUSH2 0xE08 PUSH2 0x2B6E JUMP JUMPDEST JUMPDEST PUSH1 0x40 MLOAD SWAP1 DUP1 DUP3 MSTORE DUP1 PUSH1 0x20 MUL PUSH1 0x20 ADD DUP3 ADD PUSH1 0x40 MSTORE DUP1 ISZERO PUSH2 0xE42 JUMPI DUP2 PUSH1 0x20 ADD JUMPDEST PUSH2 0xE2F PUSH2 0x22ED JUMP JUMPDEST DUP2 MSTORE PUSH1 0x20 ADD SWAP1 PUSH1 0x1 SWAP1 SUB SWAP1 DUP2 PUSH2 0xE27 JUMPI SWAP1 POP JUMPDEST POP SWAP1 POP PUSH1 0x0 JUMPDEST DUP5 DUP2 LT ISZERO PUSH2 0xF9A JUMPI PUSH1 0x0 PUSH1 0xB PUSH1 0x0 CALLER PUSH20 0xFFFFFFFFFFFFFFFFFFFFFFFFFFFFFFFFFFFFFFFF AND PUSH20 0xFFFFFFFFFFFFFFFFFFFFFFFFFFFFFFFFFFFFFFFF AND DUP2 MSTORE PUSH1 0x20 ADD SWAP1 DUP2 MSTORE PUSH1 0x20 ADD PUSH1 0x0 KECCAK256 PUSH1 0x0 ADD PUSH1 0x0 DUP4 DUP2 MSTORE PUSH1 0x20 ADD SWAP1 DUP2 MSTORE PUSH1 0x20 ADD PUSH1 0x0 KECCAK256 PUSH1 0x0 ADD SLOAD GT ISZERO PUSH2 0xF87 JUMPI PUSH1 0xB PUSH1 0x0 CALLER PUSH20 0xFFFFFFFFFFFFFFFFFFFFFFFFFFFFFFFFFFFFFFFF AND PUSH20 0xFFFFFFFFFFFFFFFFFFFFFFFFFFFFFFFFFFFFFFFF AND DUP2 MSTORE PUSH1 0x20 ADD SWAP1 DUP2 MSTORE PUSH1 0x20 ADD PUSH1 0x0 KECCAK256 PUSH1 0x0 ADD PUSH1 0x0 DUP3 DUP2 MSTORE PUSH1 0x20 ADD SWAP1 DUP2 MSTORE PUSH1 0x20 ADD PUSH1 0x0 KECCAK256 PUSH1 0x40 MLOAD DUP1 PUSH1 0xC0 ADD PUSH1 0x40 MSTORE SWAP1 DUP2 PUSH1 0x0 DUP3 ADD SLOAD DUP2 MSTORE PUSH1 0x20 ADD PUSH1 0x1 DUP3 ADD SLOAD DUP2 MSTORE PUSH1 0x20 ADD PUSH1 0x2 DUP3 ADD SLOAD DUP2 MSTORE PUSH1 0x20 ADD PUSH1 0x3 DUP3 ADD SLOAD DUP2 MSTORE PUSH1 0x20 ADD PUSH1 0x4 DUP3 ADD SLOAD DUP2 MSTORE PUSH1 0x20 ADD PUSH1 0x5 DUP3 ADD PUSH1 0x0 SWAP1 SLOAD SWAP1 PUSH2 0x100 EXP SWAP1 DIV PUSH1 0xFF AND ISZERO ISZERO ISZERO ISZERO DUP2 MSTORE POP POP DUP3 DUP5 DUP2 MLOAD DUP2 LT PUSH2 0xF6D JUMPI PUSH2 0xF6C PUSH2 0x2B9D JUMP JUMPDEST JUMPDEST PUSH1 0x20 MUL PUSH1 0x20 ADD ADD DUP2 SWAP1 MSTORE POP DUP3 DUP1 PUSH2 0xF83 SWAP1 PUSH2 0x29E5 JUMP JUMPDEST SWAP4 POP POP JUMPDEST DUP1 DUP1 PUSH2 0xF92 SWAP1 PUSH2 0x29E5 JUMP JUMPDEST SWAP2 POP POP PUSH2 0xE48 JUMP JUMPDEST POP DUP1 SWAP5 POP POP POP POP POP SWAP1 JUMP JUMPDEST PUSH1 0x0 DUP1 PUSH1 0x0 DUP1 PUSH1 0x0 PUSH1 0xB PUSH1 0x0 CALLER PUSH20 0xFFFFFFFFFFFFFFFFFFFFFFFFFFFFFFFFFFFFFFFF AND PUSH20 0xFFFFFFFFFFFFFFFFFFFFFFFFFFFFFFFFFFFFFFFF AND DUP2 MSTORE PUSH1 0x20 ADD SWAP1 DUP2 MSTORE PUSH1 0x20 ADD PUSH1 0x0 KECCAK256 PUSH1 0x5 ADD SLOAD SWAP1 POP PUSH1 0x0 JUMPDEST DUP2 DUP2 LT ISZERO PUSH2 0x1243 JUMPI PUSH1 0xB PUSH1 0x0 CALLER PUSH20 0xFFFFFFFFFFFFFFFFFFFFFFFFFFFFFFFFFFFFFFFF AND PUSH20 0xFFFFFFFFFFFFFFFFFFFFFFFFFFFFFFFFFFFFFFFF AND DUP2 MSTORE PUSH1 0x20 ADD SWAP1 DUP2 MSTORE PUSH1 0x20 ADD PUSH1 0x0 KECCAK256 PUSH1 0x0 ADD PUSH1 0x0 DUP3 DUP2 MSTORE PUSH1 0x20 ADD SWAP1 DUP2 MSTORE PUSH1 0x20 ADD PUSH1 0x0 KECCAK256 PUSH1 0x5 ADD PUSH1 0x0 SWAP1 SLOAD SWAP1 PUSH2 0x100 EXP SWAP1 DIV PUSH1 0xFF AND PUSH2 0x10CE JUMPI PUSH1 0xB PUSH1 0x0 CALLER PUSH20 0xFFFFFFFFFFFFFFFFFFFFFFFFFFFFFFFFFFFFFFFF AND PUSH20 0xFFFFFFFFFFFFFFFFFFFFFFFFFFFFFFFFFFFFFFFF AND DUP2 MSTORE PUSH1 0x20 ADD SWAP1 DUP2 MSTORE PUSH1 0x20 ADD PUSH1 0x0 KECCAK256 PUSH1 0x0 ADD PUSH1 0x0 DUP3 DUP2 MSTORE PUSH1 0x20 ADD SWAP1 DUP2 MSTORE PUSH1 0x20 ADD PUSH1 0x0 KECCAK256 PUSH1 0x2 ADD SLOAD TIMESTAMP PUSH2 0x10C7 SWAP2 SWAP1 PUSH2 0x2BCC JUMP JUMPDEST SWAP4 POP PUSH2 0x1189 JUMP JUMPDEST PUSH1 0xB PUSH1 0x0 CALLER PUSH20 0xFFFFFFFFFFFFFFFFFFFFFFFFFFFFFFFFFFFFFFFF AND PUSH20 0xFFFFFFFFFFFFFFFFFFFFFFFFFFFFFFFFFFFFFFFF AND DUP2 MSTORE PUSH1 0x20 ADD SWAP1 DUP2 MSTORE PUSH1 0x20 ADD PUSH1 0x0 KECCAK256 PUSH1 0x0 ADD PUSH1 0x0 DUP3 DUP2 MSTORE PUSH1 0x20 ADD SWAP1 DUP2 MSTORE PUSH1 0x20 ADD PUSH1 0x0 KECCAK256 PUSH1 0x2 ADD SLOAD PUSH1 0xB PUSH1 0x0 CALLER PUSH20 0xFFFFFFFFFFFFFFFFFFFFFFFFFFFFFFFFFFFFFFFF AND PUSH20 0xFFFFFFFFFFFFFFFFFFFFFFFFFFFFFFFFFFFFFFFF AND DUP2 MSTORE PUSH1 0x20 ADD SWAP1 DUP2 MSTORE PUSH1 0x20 ADD PUSH1 0x0 KECCAK256 PUSH1 0x0 ADD PUSH1 0x0 DUP4 DUP2 MSTORE PUSH1 0x20 ADD SWAP1 DUP2 MSTORE PUSH1 0x20 ADD PUSH1 0x0 KECCAK256 PUSH1 0x4 ADD SLOAD PUSH2 0x1186 SWAP2 SWAP1 PUSH2 0x2BCC JUMP JUMPDEST SWAP4 POP JUMPDEST PUSH3 0x15180 DUP5 PUSH2 0x1198 SWAP2 SWAP1 PUSH2 0x2C2F JUMP JUMPDEST SWAP4 POP PUSH1 0x0 DUP5 GT ISZERO PUSH2 0x1230 JUMPI PUSH1 0x7 SLOAD PUSH1 0x4 SLOAD PUSH1 0xB PUSH1 0x0 CALLER PUSH20 0xFFFFFFFFFFFFFFFFFFFFFFFFFFFFFFFFFFFFFFFF AND PUSH20 0xFFFFFFFFFFFFFFFFFFFFFFFFFFFFFFFFFFFFFFFF AND DUP2 MSTORE PUSH1 0x20 ADD SWAP1 DUP2 MSTORE PUSH1 0x20 ADD PUSH1 0x0 KECCAK256 PUSH1 0x0 ADD PUSH1 0x0 DUP5 DUP2 MSTORE PUSH1 0x20 ADD SWAP1 DUP2 MSTORE PUSH1 0x20 ADD PUSH1 0x0 KECCAK256 PUSH1 0x0 ADD SLOAD PUSH2 0x120A SWAP2 SWAP1 PUSH2 0x2A84 JUMP JUMPDEST PUSH2 0x1214 SWAP2 SWAP1 PUSH2 0x2C2F JUMP JUMPDEST SWAP3 POP DUP3 DUP5 PUSH2 0x1222 SWAP2 SWAP1 PUSH2 0x2A84 JUMP JUMPDEST DUP6 PUSH2 0x122D SWAP2 SWAP1 PUSH2 0x2A2E JUMP JUMPDEST SWAP5 POP JUMPDEST DUP1 DUP1 PUSH2 0x123B SWAP1 PUSH2 0x29E5 JUMP JUMPDEST SWAP2 POP POP PUSH2 0xFF5 JUMP JUMPDEST POP PUSH1 0xB PUSH1 0x0 CALLER PUSH20 0xFFFFFFFFFFFFFFFFFFFFFFFFFFFFFFFFFFFFFFFF AND PUSH20 0xFFFFFFFFFFFFFFFFFFFFFFFFFFFFFFFFFFFFFFFF AND DUP2 MSTORE PUSH1 0x20 ADD SWAP1 DUP2 MSTORE PUSH1 0x20 ADD PUSH1 0x0 KECCAK256 PUSH1 0x7 ADD SLOAD DUP5 PUSH2 0x1292 SWAP2 SWAP1 PUSH2 0x2BCC JUMP JUMPDEST SWAP4 POP DUP4 SWAP5 POP POP POP POP POP SWAP1 JUMP JUMPDEST DUP3 PUSH1 0x6 DUP2 SWAP1 SSTORE POP DUP4 PUSH1 0x5 DUP2 SWAP1 SSTORE POP DUP2 PUSH1 0x4 DUP2 SWAP1 SSTORE POP DUP1 PUSH1 0x7 DUP2 SWAP1 SSTORE POP POP POP POP POP JUMP JUMPDEST DUP1 PUSH1 0x6 DUP2 SWAP1 SSTORE POP POP JUMP JUMPDEST PUSH1 0x8 SLOAD DUP2 JUMP JUMPDEST PUSH1 0x0 DUP1 PUSH1 0xB PUSH1 0x0 CALLER PUSH20 0xFFFFFFFFFFFFFFFFFFFFFFFFFFFFFFFFFFFFFFFF AND PUSH20 0xFFFFFFFFFFFFFFFFFFFFFFFFFFFFFFFFFFFFFFFF AND DUP2 MSTORE PUSH1 0x20 ADD SWAP1 DUP2 MSTORE PUSH1 0x20 ADD PUSH1 0x0 KECCAK256 PUSH1 0x6 ADD SLOAD GT PUSH2 0x1356 JUMPI PUSH1 0x40 MLOAD PUSH32 0x8C379A000000000000000000000000000000000000000000000000000000000 DUP2 MSTORE PUSH1 0x4 ADD PUSH2 0x134D SWAP1 PUSH2 0x2CD2 JUMP JUMPDEST PUSH1 0x40 MLOAD DUP1 SWAP2 SUB SWAP1 REVERT JUMPDEST PUSH1 0x0 PUSH1 0xB PUSH1 0x0 CALLER PUSH20 0xFFFFFFFFFFFFFFFFFFFFFFFFFFFFFFFFFFFFFFFF AND PUSH20 0xFFFFFFFFFFFFFFFFFFFFFFFFFFFFFFFFFFFFFFFF AND DUP2 MSTORE PUSH1 0x20 ADD SWAP1 DUP2 MSTORE PUSH1 0x20 ADD PUSH1 0x0 KECCAK256 PUSH1 0x6 ADD SLOAD SWAP1 POP PUSH1 0x0 PUSH1 0xB PUSH1 0x0 CALLER PUSH20 0xFFFFFFFFFFFFFFFFFFFFFFFFFFFFFFFFFFFFFFFF AND PUSH20 0xFFFFFFFFFFFFFFFFFFFFFFFFFFFFFFFFFFFFFFFF AND DUP2 MSTORE PUSH1 0x20 ADD SWAP1 DUP2 MSTORE PUSH1 0x20 ADD PUSH1 0x0 KECCAK256 PUSH1 0x5 ADD SLOAD SWAP1 POP PUSH1 0x0 PUSH1 0xA SLOAD SWAP1 POP PUSH1 0x0 DUP1 TIMESTAMP PUSH1 0xB PUSH1 0x0 CALLER PUSH20 0xFFFFFFFFFFFFFFFFFFFFFFFFFFFFFFFFFFFFFFFF AND PUSH20 0xFFFFFFFFFFFFFFFFFFFFFFFFFFFFFFFFFFFFFFFF AND DUP2 MSTORE PUSH1 0x20 ADD SWAP1 DUP2 MSTORE PUSH1 0x20 ADD PUSH1 0x0 KECCAK256 PUSH1 0x9 ADD SLOAD GT ISZERO PUSH2 0x1611 JUMPI PUSH1 0x64 PUSH1 0x1E DUP7 PUSH2 0x1447 SWAP2 SWAP1 PUSH2 0x2A84 JUMP JUMPDEST PUSH2 0x1451 SWAP2 SWAP1 PUSH2 0x2C2F JUMP JUMPDEST SWAP2 POP PUSH1 0x64 PUSH1 0x46 DUP7 PUSH2 0x1462 SWAP2 SWAP1 PUSH2 0x2A84 JUMP JUMPDEST PUSH2 0x146C SWAP2 SWAP1 PUSH2 0x2C2F JUMP JUMPDEST SWAP1 POP PUSH1 0x1 PUSH1 0x0 SWAP1 SLOAD SWAP1 PUSH2 0x100 EXP SWAP1 DIV PUSH20 0xFFFFFFFFFFFFFFFFFFFFFFFFFFFFFFFFFFFFFFFF AND PUSH20 0xFFFFFFFFFFFFFFFFFFFFFFFFFFFFFFFFFFFFFFFF AND PUSH4 0xA9059CBB CALLER PUSH4 0x5F5E100 DUP6 PUSH2 0x14BD SWAP2 SWAP1 PUSH2 0x2A84 JUMP JUMPDEST PUSH1 0x40 MLOAD DUP4 PUSH4 0xFFFFFFFF AND PUSH1 0xE0 SHL DUP2 MSTORE PUSH1 0x4 ADD PUSH2 0x14DA SWAP3 SWAP2 SWAP1 PUSH2 0x2CF2 JUMP JUMPDEST PUSH1 0x20 PUSH1 0x40 MLOAD DUP1 DUP4 SUB DUP2 PUSH1 0x0 DUP8 DUP1 EXTCODESIZE ISZERO DUP1 ISZERO PUSH2 0x14F4 JUMPI PUSH1 0x0 DUP1 REVERT JUMPDEST POP GAS CALL ISZERO DUP1 ISZERO PUSH2 0x1508 JUMPI RETURNDATASIZE PUSH1 0x0 DUP1 RETURNDATACOPY RETURNDATASIZE PUSH1 0x0 REVERT JUMPDEST POP POP POP POP PUSH1 0x40 MLOAD RETURNDATASIZE PUSH1 0x1F NOT PUSH1 0x1F DUP3 ADD AND DUP3 ADD DUP1 PUSH1 0x40 MSTORE POP DUP2 ADD SWAP1 PUSH2 0x152C SWAP2 SWAP1 PUSH2 0x2B41 JUMP JUMPDEST POP PUSH1 0x1 PUSH1 0x0 SWAP1 SLOAD SWAP1 PUSH2 0x100 EXP SWAP1 DIV PUSH20 0xFFFFFFFFFFFFFFFFFFFFFFFFFFFFFFFFFFFFFFFF AND PUSH20 0xFFFFFFFFFFFFFFFFFFFFFFFFFFFFFFFFFFFFFFFF AND PUSH4 0xA9059CBB PUSH1 0x0 DUP1 SLOAD SWAP1 PUSH2 0x100 EXP SWAP1 DIV PUSH20 0xFFFFFFFFFFFFFFFFFFFFFFFFFFFFFFFFFFFFFFFF AND PUSH4 0x5F5E100 DUP5 PUSH2 0x159C SWAP2 SWAP1 PUSH2 0x2A84 JUMP JUMPDEST PUSH1 0x40 MLOAD DUP4 PUSH4 0xFFFFFFFF AND PUSH1 0xE0 SHL DUP2 MSTORE PUSH1 0x4 ADD PUSH2 0x15B9 SWAP3 SWAP2 SWAP1 PUSH2 0x2CF2 JUMP JUMPDEST PUSH1 0x20 PUSH1 0x40 MLOAD DUP1 DUP4 SUB DUP2 PUSH1 0x0 DUP8 DUP1 EXTCODESIZE ISZERO DUP1 ISZERO PUSH2 0x15D3 JUMPI PUSH1 0x0 DUP1 REVERT JUMPDEST POP GAS CALL ISZERO DUP1 ISZERO PUSH2 0x15E7 JUMPI RETURNDATASIZE PUSH1 0x0 DUP1 RETURNDATACOPY RETURNDATASIZE PUSH1 0x0 REVERT JUMPDEST POP POP POP POP PUSH1 0x40 MLOAD RETURNDATASIZE PUSH1 0x1F NOT PUSH1 0x1F DUP3 ADD AND DUP3 ADD DUP1 PUSH1 0x40 MSTORE POP DUP2 ADD SWAP1 PUSH2 0x160B SWAP2 SWAP1 PUSH2 0x2B41 JUMP JUMPDEST POP PUSH2 0x16D1 JUMP JUMPDEST PUSH1 0x1 PUSH1 0x0 SWAP1 SLOAD SWAP1 PUSH2 0x100 EXP SWAP1 DIV PUSH20 0xFFFFFFFFFFFFFFFFFFFFFFFFFFFFFFFFFFFFFFFF AND PUSH20 0xFFFFFFFFFFFFFFFFFFFFFFFFFFFFFFFFFFFFFFFF AND PUSH4 0xA9059CBB CALLER PUSH4 0x5F5E100 DUP9 PUSH2 0x1660 SWAP2 SWAP1 PUSH2 0x2A84 JUMP JUMPDEST PUSH1 0x40 MLOAD DUP4 PUSH4 0xFFFFFFFF AND PUSH1 0xE0 SHL DUP2 MSTORE PUSH1 0x4 ADD PUSH2 0x167D SWAP3 SWAP2 SWAP1 PUSH2 0x2CF2 JUMP JUMPDEST PUSH1 0x20 PUSH1 0x40 MLOAD DUP1 DUP4 SUB DUP2 PUSH1 0x0 DUP8 DUP1 EXTCODESIZE ISZERO DUP1 ISZERO PUSH2 0x1697 JUMPI PUSH1 0x0 DUP1 REVERT JUMPDEST POP GAS CALL ISZERO DUP1 ISZERO PUSH2 0x16AB JUMPI RETURNDATASIZE PUSH1 0x0 DUP1 RETURNDATACOPY RETURNDATASIZE PUSH1 0x0 REVERT JUMPDEST POP POP POP POP PUSH1 0x40 MLOAD RETURNDATASIZE PUSH1 0x1F NOT PUSH1 0x1F DUP3 ADD AND DUP3 ADD DUP1 PUSH1 0x40 MSTORE POP DUP2 ADD SWAP1 PUSH2 0x16CF SWAP2 SWAP1 PUSH2 0x2B41 JUMP JUMPDEST POP JUMPDEST PUSH1 0x0 SWAP3 POP JUMPDEST DUP4 DUP4 LT ISZERO PUSH2 0x17BB JUMPI PUSH1 0x1 PUSH1 0xB PUSH1 0x0 CALLER PUSH20 0xFFFFFFFFFFFFFFFFFFFFFFFFFFFFFFFFFFFFFFFF AND PUSH20 0xFFFFFFFFFFFFFFFFFFFFFFFFFFFFFFFFFFFFFFFF AND DUP2 MSTORE PUSH1 0x20 ADD SWAP1 DUP2 MSTORE PUSH1 0x20 ADD PUSH1 0x0 KECCAK256 PUSH1 0x0 ADD PUSH1 0x0 DUP6 DUP2 MSTORE PUSH1 0x20 ADD SWAP1 DUP2 MSTORE PUSH1 0x20 ADD PUSH1 0x0 KECCAK256 PUSH1 0x5 ADD PUSH1 0x0 PUSH2 0x100 EXP DUP2 SLOAD DUP2 PUSH1 0xFF MUL NOT AND SWAP1 DUP4 ISZERO ISZERO MUL OR SWAP1 SSTORE POP TIMESTAMP PUSH1 0xB PUSH1 0x0 CALLER PUSH20 0xFFFFFFFFFFFFFFFFFFFFFFFFFFFFFFFFFFFFFFFF AND PUSH20 0xFFFFFFFFFFFFFFFFFFFFFFFFFFFFFFFFFFFFFFFF AND DUP2 MSTORE PUSH1 0x20 ADD SWAP1 DUP2 MSTORE PUSH1 0x20 ADD PUSH1 0x0 KECCAK256 PUSH1 0x0 ADD PUSH1 0x0 DUP6 DUP2 MSTORE PUSH1 0x20 ADD SWAP1 DUP2 MSTORE PUSH1 0x20 ADD PUSH1 0x0 KECCAK256 PUSH1 0x4 ADD DUP2 SWAP1 SSTORE POP DUP3 DUP1 PUSH2 0x17B3 SWAP1 PUSH2 0x29E5 JUMP JUMPDEST SWAP4 POP POP PUSH2 0x16D6 JUMP JUMPDEST PUSH1 0xB PUSH1 0x0 CALLER PUSH20 0xFFFFFFFFFFFFFFFFFFFFFFFFFFFFFFFFFFFFFFFF AND PUSH20 0xFFFFFFFFFFFFFFFFFFFFFFFFFFFFFFFFFFFFFFFF AND DUP2 MSTORE PUSH1 0x20 ADD SWAP1 DUP2 MSTORE PUSH1 0x20 ADD PUSH1 0x0 KECCAK256 PUSH1 0x5 ADD SLOAD PUSH1 0xA DUP2 SWAP1 SSTORE POP PUSH1 0x0 PUSH1 0xB PUSH1 0x0 CALLER PUSH20 0xFFFFFFFFFFFFFFFFFFFFFFFFFFFFFFFFFFFFFFFF AND PUSH20 0xFFFFFFFFFFFFFFFFFFFFFFFFFFFFFFFFFFFFFFFF AND DUP2 MSTORE PUSH1 0x20 ADD SWAP1 DUP2 MSTORE PUSH1 0x20 ADD PUSH1 0x0 KECCAK256 PUSH1 0x6 ADD DUP2 SWAP1 SSTORE POP PUSH1 0x1 SWAP6 POP POP POP POP POP POP SWAP1 JUMP JUMPDEST PUSH1 0x0 DUP1 SLOAD SWAP1 PUSH2 0x100 EXP SWAP1 DIV PUSH20 0xFFFFFFFFFFFFFFFFFFFFFFFFFFFFFFFFFFFFFFFF AND DUP2 JUMP JUMPDEST PUSH1 0x0 PUSH1 0xB PUSH1 0x0 CALLER PUSH20 0xFFFFFFFFFFFFFFFFFFFFFFFFFFFFFFFFFFFFFFFF AND PUSH20 0xFFFFFFFFFFFFFFFFFFFFFFFFFFFFFFFFFFFFFFFF AND DUP2 MSTORE PUSH1 0x20 ADD SWAP1 DUP2 MSTORE PUSH1 0x20 ADD PUSH1 0x0 KECCAK256 PUSH1 0x6 ADD SLOAD SWAP1 POP SWAP1 JUMP JUMPDEST PUSH1 0x7 SLOAD DUP2 JUMP JUMPDEST DUP2 PUSH1 0x4 DUP2 SWAP1 SSTORE POP DUP1 PUSH1 0x7 DUP2 SWAP1 SSTORE POP POP POP JUMP JUMPDEST PUSH1 0x60 PUSH1 0x0 PUSH1 0x14 PUSH8 0xFFFFFFFFFFFFFFFF DUP2 GT ISZERO PUSH2 0x18FD JUMPI PUSH2 0x18FC PUSH2 0x2B6E JUMP JUMPDEST JUMPDEST PUSH1 0x40 MLOAD SWAP1 DUP1 DUP3 MSTORE DUP1 PUSH1 0x20 MUL PUSH1 0x20 ADD DUP3 ADD PUSH1 0x40 MSTORE DUP1 ISZERO PUSH2 0x192B JUMPI DUP2 PUSH1 0x20 ADD PUSH1 0x20 DUP3 MUL DUP1 CALLDATASIZE DUP4 CALLDATACOPY DUP1 DUP3 ADD SWAP2 POP POP SWAP1 POP JUMPDEST POP SWAP1 POP PUSH1 0x0 JUMPDEST PUSH1 0x14 DUP2 LT ISZERO PUSH2 0x1A49 JUMPI PUSH1 0x0 PUSH1 0xB PUSH1 0x0 CALLER PUSH20 0xFFFFFFFFFFFFFFFFFFFFFFFFFFFFFFFFFFFFFFFF AND PUSH20 0xFFFFFFFFFFFFFFFFFFFFFFFFFFFFFFFFFFFFFFFF AND DUP2 MSTORE PUSH1 0x20 ADD SWAP1 DUP2 MSTORE PUSH1 0x20 ADD PUSH1 0x0 KECCAK256 PUSH1 0x3 ADD PUSH1 0x0 DUP4 DUP2 MSTORE PUSH1 0x20 ADD SWAP1 DUP2 MSTORE PUSH1 0x20 ADD PUSH1 0x0 KECCAK256 PUSH1 0x0 ADD SLOAD GT ISZERO PUSH2 0x1A14 JUMPI PUSH1 0xB PUSH1 0x0 CALLER PUSH20 0xFFFFFFFFFFFFFFFFFFFFFFFFFFFFFFFFFFFFFFFF AND PUSH20 0xFFFFFFFFFFFFFFFFFFFFFFFFFFFFFFFFFFFFFFFF AND DUP2 MSTORE PUSH1 0x20 ADD SWAP1 DUP2 MSTORE PUSH1 0x20 ADD PUSH1 0x0 KECCAK256 PUSH1 0x3 ADD PUSH1 0x0 DUP3 DUP2 MSTORE PUSH1 0x20 ADD SWAP1 DUP2 MSTORE PUSH1 0x20 ADD PUSH1 0x0 KECCAK256 PUSH1 0x0 ADD SLOAD DUP3 DUP3 DUP2 MLOAD DUP2 LT PUSH2 0x1A03 JUMPI PUSH2 0x1A02 PUSH2 0x2B9D JUMP JUMPDEST JUMPDEST PUSH1 0x20 MUL PUSH1 0x20 ADD ADD DUP2 DUP2 MSTORE POP POP PUSH2 0x1A36 JUMP JUMPDEST PUSH1 0x0 DUP3 DUP3 DUP2 MLOAD DUP2 LT PUSH2 0x1A29 JUMPI PUSH2 0x1A28 PUSH2 0x2B9D JUMP JUMPDEST JUMPDEST PUSH1 0x20 MUL PUSH1 0x20 ADD ADD DUP2 DUP2 MSTORE POP POP JUMPDEST DUP1 DUP1 PUSH2 0x1A41 SWAP1 PUSH2 0x29E5 JUMP JUMPDEST SWAP2 POP POP PUSH2 0x1931 JUMP JUMPDEST POP DUP1 SWAP2 POP POP SWAP1 JUMP JUMPDEST PUSH1 0x5 SLOAD DUP2 JUMP JUMPDEST PUSH1 0x0 DUP1 PUSH2 0x1A62 PUSH2 0xFA5 JUMP JUMPDEST SWAP1 POP PUSH1 0x0 DUP2 GT PUSH2 0x1AA7 JUMPI PUSH1 0x40 MLOAD PUSH32 0x8C379A000000000000000000000000000000000000000000000000000000000 DUP2 MSTORE PUSH1 0x4 ADD PUSH2 0x1A9E SWAP1 PUSH2 0x2D8D JUMP JUMPDEST PUSH1 0x40 MLOAD DUP1 SWAP2 SUB SWAP1 REVERT JUMPDEST PUSH1 0x2 PUSH1 0x0 SWAP1 SLOAD SWAP1 PUSH2 0x100 EXP SWAP1 DIV PUSH20 0xFFFFFFFFFFFFFFFFFFFFFFFFFFFFFFFFFFFFFFFF AND PUSH20 0xFFFFFFFFFFFFFFFFFFFFFFFFFFFFFFFFFFFFFFFF AND PUSH4 0xA9059CBB CALLER DUP4 PUSH1 0x40 MLOAD DUP4 PUSH4 0xFFFFFFFF AND PUSH1 0xE0 SHL DUP2 MSTORE PUSH1 0x4 ADD PUSH2 0x1B04 SWAP3 SWAP2 SWAP1 PUSH2 0x2CF2 JUMP JUMPDEST PUSH1 0x20 PUSH1 0x40 MLOAD DUP1 DUP4 SUB DUP2 PUSH1 0x0 DUP8 DUP1 EXTCODESIZE ISZERO DUP1 ISZERO PUSH2 0x1B1E JUMPI PUSH1 0x0 DUP1 REVERT JUMPDEST POP GAS CALL ISZERO DUP1 ISZERO PUSH2 0x1B32 JUMPI RETURNDATASIZE PUSH1 0x0 DUP1 RETURNDATACOPY RETURNDATASIZE PUSH1 0x0 REVERT JUMPDEST POP POP POP POP PUSH1 0x40 MLOAD RETURNDATASIZE PUSH1 0x1F NOT PUSH1 0x1F DUP3 ADD AND DUP3 ADD DUP1 PUSH1 0x40 MSTORE POP DUP2 ADD SWAP1 PUSH2 0x1B56 SWAP2 SWAP1 PUSH2 0x2B41 JUMP JUMPDEST POP DUP1 PUSH1 0xB PUSH1 0x0 CALLER PUSH20 0xFFFFFFFFFFFFFFFFFFFFFFFFFFFFFFFFFFFFFFFF AND PUSH20 0xFFFFFFFFFFFFFFFFFFFFFFFFFFFFFFFFFFFFFFFF AND DUP2 MSTORE PUSH1 0x20 ADD SWAP1 DUP2 MSTORE PUSH1 0x20 ADD PUSH1 0x0 KECCAK256 PUSH1 0x7 ADD PUSH1 0x0 DUP3 DUP3 SLOAD PUSH2 0x1BA9 SWAP2 SWAP1 PUSH2 0x2A2E JUMP JUMPDEST SWAP3 POP POP DUP2 SWAP1 SSTORE POP PUSH1 0x1 SWAP2 POP POP SWAP1 JUMP JUMPDEST PUSH1 0xB PUSH1 0x20 MSTORE DUP1 PUSH1 0x0 MSTORE PUSH1 0x40 PUSH1 0x0 KECCAK256 PUSH1 0x0 SWAP2 POP SWAP1 POP DUP1 PUSH1 0x2 ADD PUSH1 0x0 SWAP1 SLOAD SWAP1 PUSH2 0x100 EXP SWAP1 DIV PUSH20 0xFFFFFFFFFFFFFFFFFFFFFFFFFFFFFFFFFFFFFFFF AND SWAP1 DUP1 PUSH1 0x4 ADD SLOAD SWAP1 DUP1 PUSH1 0x5 ADD SLOAD SWAP1 DUP1 PUSH1 0x6 ADD SLOAD SWAP1 DUP1 PUSH1 0x7 ADD SLOAD SWAP1 DUP1 PUSH1 0x8 ADD PUSH1 0x0 SWAP1 SLOAD SWAP1 PUSH2 0x100 EXP SWAP1 DIV PUSH1 0xFF AND SWAP1 DUP1 PUSH1 0x9 ADD SLOAD SWAP1 POP DUP8 JUMP JUMPDEST PUSH1 0x9 SLOAD DUP2 JUMP JUMPDEST PUSH1 0x0 DUP1 SLOAD SWAP1 PUSH2 0x100 EXP SWAP1 DIV PUSH20 0xFFFFFFFFFFFFFFFFFFFFFFFFFFFFFFFFFFFFFFFF AND PUSH20 0xFFFFFFFFFFFFFFFFFFFFFFFFFFFFFFFFFFFFFFFF AND CALLER PUSH20 0xFFFFFFFFFFFFFFFFFFFFFFFFFFFFFFFFFFFFFFFF AND EQ PUSH2 0x1CBB JUMPI PUSH1 0x40 MLOAD PUSH32 0x8C379A000000000000000000000000000000000000000000000000000000000 DUP2 MSTORE PUSH1 0x4 ADD PUSH2 0x1CB2 SWAP1 PUSH2 0x2E1F JUMP JUMPDEST PUSH1 0x40 MLOAD DUP1 SWAP2 SUB SWAP1 REVERT JUMPDEST DUP1 PUSH1 0x0 DUP1 PUSH2 0x100 EXP DUP2 SLOAD DUP2 PUSH20 0xFFFFFFFFFFFFFFFFFFFFFFFFFFFFFFFFFFFFFFFF MUL NOT AND SWAP1 DUP4 PUSH20 0xFFFFFFFFFFFFFFFFFFFFFFFFFFFFFFFFFFFFFFFF AND MUL OR SWAP1 SSTORE POP POP JUMP JUMPDEST PUSH1 0x60 PUSH1 0x0 PUSH1 0x14 PUSH8 0xFFFFFFFFFFFFFFFF DUP2 GT ISZERO PUSH2 0x1D1D JUMPI PUSH2 0x1D1C PUSH2 0x2B6E JUMP JUMPDEST JUMPDEST PUSH1 0x40 MLOAD SWAP1 DUP1 DUP3 MSTORE DUP1 PUSH1 0x20 MUL PUSH1 0x20 ADD DUP3 ADD PUSH1 0x40 MSTORE DUP1 ISZERO PUSH2 0x1D4B JUMPI DUP2 PUSH1 0x20 ADD PUSH1 0x20 DUP3 MUL DUP1 CALLDATASIZE DUP4 CALLDATACOPY DUP1 DUP3 ADD SWAP2 POP POP SWAP1 POP JUMPDEST POP SWAP1 POP PUSH1 0x0 JUMPDEST PUSH1 0x14 DUP2 LT ISZERO PUSH2 0x1E69 JUMPI PUSH1 0x0 PUSH1 0xB PUSH1 0x0 CALLER PUSH20 0xFFFFFFFFFFFFFFFFFFFFFFFFFFFFFFFFFFFFFFFF AND PUSH20 0xFFFFFFFFFFFFFFFFFFFFFFFFFFFFFFFFFFFFFFFF AND DUP2 MSTORE PUSH1 0x20 ADD SWAP1 DUP2 MSTORE PUSH1 0x20 ADD PUSH1 0x0 KECCAK256 PUSH1 0x3 ADD PUSH1 0x0 DUP4 DUP2 MSTORE PUSH1 0x20 ADD SWAP1 DUP2 MSTORE PUSH1 0x20 ADD PUSH1 0x0 KECCAK256 PUSH1 0x0 ADD SLOAD GT ISZERO PUSH2 0x1E34 JUMPI PUSH1 0xB PUSH1 0x0 CALLER PUSH20 0xFFFFFFFFFFFFFFFFFFFFFFFFFFFFFFFFFFFFFFFF AND PUSH20 0xFFFFFFFFFFFFFFFFFFFFFFFFFFFFFFFFFFFFFFFF AND DUP2 MSTORE PUSH1 0x20 ADD SWAP1 DUP2 MSTORE PUSH1 0x20 ADD PUSH1 0x0 KECCAK256 PUSH1 0x3 ADD PUSH1 0x0 DUP3 DUP2 MSTORE PUSH1 0x20 ADD SWAP1 DUP2 MSTORE PUSH1 0x20 ADD PUSH1 0x0 KECCAK256 PUSH1 0x1 ADD SLOAD DUP3 DUP3 DUP2 MLOAD DUP2 LT PUSH2 0x1E23 JUMPI PUSH2 0x1E22 PUSH2 0x2B9D JUMP JUMPDEST JUMPDEST PUSH1 0x20 MUL PUSH1 0x20 ADD ADD DUP2 DUP2 MSTORE POP POP PUSH2 0x1E56 JUMP JUMPDEST PUSH1 0x0 DUP3 DUP3 DUP2 MLOAD DUP2 LT PUSH2 0x1E49 JUMPI PUSH2 0x1E48 PUSH2 0x2B9D JUMP JUMPDEST JUMPDEST PUSH1 0x20 MUL PUSH1 0x20 ADD ADD DUP2 DUP2 MSTORE POP POP JUMPDEST DUP1 DUP1 PUSH2 0x1E61 SWAP1 PUSH2 0x29E5 JUMP JUMPDEST SWAP2 POP POP PUSH2 0x1D51 JUMP JUMPDEST POP DUP1 SWAP2 POP POP SWAP1 JUMP JUMPDEST PUSH1 0x4 SLOAD DUP2 JUMP JUMPDEST PUSH1 0x6 SLOAD DUP2 JUMP JUMPDEST PUSH1 0x0 DUP3 SWAP1 POP PUSH1 0x0 PUSH1 0x5 PUSH8 0xFFFFFFFFFFFFFFFF DUP2 GT ISZERO PUSH2 0x1E9F JUMPI PUSH2 0x1E9E PUSH2 0x2B6E JUMP JUMPDEST JUMPDEST PUSH1 0x40 MLOAD SWAP1 DUP1 DUP3 MSTORE DUP1 PUSH1 0x20 MUL PUSH1 0x20 ADD DUP3 ADD PUSH1 0x40 MSTORE DUP1 ISZERO PUSH2 0x1ECD JUMPI DUP2 PUSH1 0x20 ADD PUSH1 0x20 DUP3 MUL DUP1 CALLDATASIZE DUP4 CALLDATACOPY DUP1 DUP3 ADD SWAP2 POP POP SWAP1 POP JUMPDEST POP SWAP1 POP PUSH1 0x5 DUP2 PUSH1 0x0 DUP2 MLOAD DUP2 LT PUSH2 0x1EE6 JUMPI PUSH2 0x1EE5 PUSH2 0x2B9D JUMP JUMPDEST JUMPDEST PUSH1 0x20 MUL PUSH1 0x20 ADD ADD DUP2 DUP2 MSTORE POP POP PUSH1 0x3 DUP2 PUSH1 0x1 DUP2 MLOAD DUP2 LT PUSH2 0x1F08 JUMPI PUSH2 0x1F07 PUSH2 0x2B9D JUMP JUMPDEST JUMPDEST PUSH1 0x20 MUL PUSH1 0x20 ADD ADD DUP2 DUP2 MSTORE POP POP PUSH1 0x2 DUP2 PUSH1 0x2 DUP2 MLOAD DUP2 LT PUSH2 0x1F2A JUMPI PUSH2 0x1F29 PUSH2 0x2B9D JUMP JUMPDEST JUMPDEST PUSH1 0x20 MUL PUSH1 0x20 ADD ADD DUP2 DUP2 MSTORE POP POP PUSH1 0x1 DUP2 PUSH1 0x3 DUP2 MLOAD DUP2 LT PUSH2 0x1F4C JUMPI PUSH2 0x1F4B PUSH2 0x2B9D JUMP JUMPDEST JUMPDEST PUSH1 0x20 MUL PUSH1 0x20 ADD ADD DUP2 DUP2 MSTORE POP POP PUSH1 0x1 DUP2 PUSH1 0x4 DUP2 MLOAD DUP2 LT PUSH2 0x1F6E JUMPI PUSH2 0x1F6D PUSH2 0x2B9D JUMP JUMPDEST JUMPDEST PUSH1 0x20 MUL PUSH1 0x20 ADD ADD DUP2 DUP2 MSTORE POP POP PUSH1 0x0 DUP1 PUSH1 0x0 SWAP1 POP JUMPDEST PUSH1 0x14 DUP2 LT ISZERO PUSH2 0x22E5 JUMPI PUSH1 0x0 DUP2 EQ ISZERO PUSH2 0x1F9D JUMPI PUSH1 0x0 SWAP2 POP PUSH2 0x1FE5 JUMP JUMPDEST PUSH1 0x1 DUP2 EQ ISZERO PUSH2 0x1FAF JUMPI PUSH1 0x1 SWAP2 POP PUSH2 0x1FE4 JUMP JUMPDEST PUSH1 0x2 DUP2 EQ ISZERO PUSH2 0x1FC1 JUMPI PUSH1 0x2 SWAP2 POP PUSH2 0x1FE3 JUMP JUMPDEST PUSH1 0x2 DUP2 GT ISZERO PUSH2 0x1FD3 JUMPI PUSH1 0x3 SWAP2 POP PUSH2 0x1FE2 JUMP JUMPDEST PUSH1 0x7 DUP2 GT ISZERO PUSH2 0x1FE1 JUMPI PUSH1 0x4 SWAP2 POP JUMPDEST JUMPDEST JUMPDEST JUMPDEST JUMPDEST PUSH1 0x0 PUSH20 0xFFFFFFFFFFFFFFFFFFFFFFFFFFFFFFFFFFFFFFFF AND PUSH1 0xB PUSH1 0x0 DUP7 PUSH20 0xFFFFFFFFFFFFFFFFFFFFFFFFFFFFFFFFFFFFFFFF AND PUSH20 0xFFFFFFFFFFFFFFFFFFFFFFFFFFFFFFFFFFFFFFFF AND DUP2 MSTORE PUSH1 0x20 ADD SWAP1 DUP2 MSTORE PUSH1 0x20 ADD PUSH1 0x0 KECCAK256 PUSH1 0x2 ADD PUSH1 0x0 SWAP1 SLOAD SWAP1 PUSH2 0x100 EXP SWAP1 DIV PUSH20 0xFFFFFFFFFFFFFFFFFFFFFFFFFFFFFFFFFFFFFFFF AND PUSH20 0xFFFFFFFFFFFFFFFFFFFFFFFFFFFFFFFFFFFFFFFF AND EQ PUSH2 0x22CD JUMPI PUSH1 0xB PUSH1 0x0 DUP6 PUSH20 0xFFFFFFFFFFFFFFFFFFFFFFFFFFFFFFFFFFFFFFFF AND PUSH20 0xFFFFFFFFFFFFFFFFFFFFFFFFFFFFFFFFFFFFFFFF AND DUP2 MSTORE PUSH1 0x20 ADD SWAP1 DUP2 MSTORE PUSH1 0x20 ADD PUSH1 0x0 KECCAK256 PUSH1 0x2 ADD PUSH1 0x0 SWAP1 SLOAD SWAP1 PUSH2 0x100 EXP SWAP1 DIV PUSH20 0xFFFFFFFFFFFFFFFFFFFFFFFFFFFFFFFFFFFFFFFF AND SWAP4 POP PUSH1 0x0 PUSH1 0x64 DUP7 PUSH4 0x5F5E100 DUP7 DUP7 DUP2 MLOAD DUP2 LT PUSH2 0x20FD JUMPI PUSH2 0x20FC PUSH2 0x2B9D JUMP JUMPDEST JUMPDEST PUSH1 0x20 MUL PUSH1 0x20 ADD ADD MLOAD PUSH2 0x210F SWAP2 SWAP1 PUSH2 0x2A84 JUMP JUMPDEST PUSH2 0x2119 SWAP2 SWAP1 PUSH2 0x2A84 JUMP JUMPDEST PUSH2 0x2123 SWAP2 SWAP1 PUSH2 0x2C2F JUMP JUMPDEST SWAP1 POP PUSH1 0x4 DUP4 EQ ISZERO PUSH2 0x213E JUMPI PUSH1 0x2 DUP2 PUSH2 0x213B SWAP2 SWAP1 PUSH2 0x2C2F JUMP JUMPDEST SWAP1 POP JUMPDEST PUSH1 0x1 PUSH1 0x0 SWAP1 SLOAD SWAP1 PUSH2 0x100 EXP SWAP1 DIV PUSH20 0xFFFFFFFFFFFFFFFFFFFFFFFFFFFFFFFFFFFFFFFF AND PUSH20 0xFFFFFFFFFFFFFFFFFFFFFFFFFFFFFFFFFFFFFFFF AND PUSH4 0xA9059CBB DUP7 DUP4 PUSH1 0x40 MLOAD DUP4 PUSH4 0xFFFFFFFF AND PUSH1 0xE0 SHL DUP2 MSTORE PUSH1 0x4 ADD PUSH2 0x219B SWAP3 SWAP2 SWAP1 PUSH2 0x2CF2 JUMP JUMPDEST PUSH1 0x20 PUSH1 0x40 MLOAD DUP1 DUP4 SUB DUP2 PUSH1 0x0 DUP8 DUP1 EXTCODESIZE ISZERO DUP1 ISZERO PUSH2 0x21B5 JUMPI PUSH1 0x0 DUP1 REVERT JUMPDEST POP GAS CALL ISZERO DUP1 ISZERO PUSH2 0x21C9 JUMPI RETURNDATASIZE PUSH1 0x0 DUP1 RETURNDATACOPY RETURNDATASIZE PUSH1 0x0 REVERT JUMPDEST POP POP POP POP PUSH1 0x40 MLOAD RETURNDATASIZE PUSH1 0x1F NOT PUSH1 0x1F DUP3 ADD AND DUP3 ADD DUP1 PUSH1 0x40 MSTORE POP DUP2 ADD SWAP1 PUSH2 0x21ED SWAP2 SWAP1 PUSH2 0x2B41 JUMP JUMPDEST POP DUP1 PUSH1 0xB PUSH1 0x0 DUP8 PUSH20 0xFFFFFFFFFFFFFFFFFFFFFFFFFFFFFFFFFFFFFFFF AND PUSH20 0xFFFFFFFFFFFFFFFFFFFFFFFFFFFFFFFFFFFFFFFF AND DUP2 MSTORE PUSH1 0x20 ADD SWAP1 DUP2 MSTORE PUSH1 0x20 ADD PUSH1 0x0 KECCAK256 PUSH1 0x3 ADD PUSH1 0x0 DUP5 DUP2 MSTORE PUSH1 0x20 ADD SWAP1 DUP2 MSTORE PUSH1 0x20 ADD PUSH1 0x0 KECCAK256 PUSH1 0x0 ADD PUSH1 0x0 DUP3 DUP3 SLOAD PUSH2 0x2254 SWAP2 SWAP1 PUSH2 0x2A2E JUMP JUMPDEST SWAP3 POP POP DUP2 SWAP1 SSTORE POP PUSH1 0xB PUSH1 0x0 DUP7 PUSH20 0xFFFFFFFFFFFFFFFFFFFFFFFFFFFFFFFFFFFFFFFF AND PUSH20 0xFFFFFFFFFFFFFFFFFFFFFFFFFFFFFFFFFFFFFFFF AND DUP2 MSTORE PUSH1 0x20 ADD SWAP1 DUP2 MSTORE PUSH1 0x20 ADD PUSH1 0x0 KECCAK256 PUSH1 0x3 ADD PUSH1 0x0 DUP4 DUP2 MSTORE PUSH1 0x20 ADD SWAP1 DUP2 MSTORE PUSH1 0x20 ADD PUSH1 0x0 KECCAK256 PUSH1 0x1 ADD PUSH1 0x0 DUP2 SLOAD DUP1 SWAP3 SWAP2 SWAP1 PUSH2 0x22C2 SWAP1 PUSH2 0x29E5 JUMP JUMPDEST SWAP2 SWAP1 POP SSTORE POP POP PUSH2 0x22D2 JUMP JUMPDEST PUSH2 0x22E5 JUMP JUMPDEST DUP1 DUP1 PUSH2 0x22DD SWAP1 PUSH2 0x29E5 JUMP JUMPDEST SWAP2 POP POP PUSH2 0x1F82 JUMP JUMPDEST POP POP POP POP POP POP JUMP JUMPDEST PUSH1 0x40 MLOAD DUP1 PUSH1 0xC0 ADD PUSH1 0x40 MSTORE DUP1 PUSH1 0x0 DUP2 MSTORE PUSH1 0x20 ADD PUSH1 0x0 DUP2 MSTORE PUSH1 0x20 ADD PUSH1 0x0 DUP2 MSTORE PUSH1 0x20 ADD PUSH1 0x0 DUP2 MSTORE PUSH1 0x20 ADD PUSH1 0x0 DUP2 MSTORE PUSH1 0x20 ADD PUSH1 0x0 ISZERO ISZERO DUP2 MSTORE POP SWAP1 JUMP JUMPDEST PUSH1 0x0 DUP2 MLOAD SWAP1 POP SWAP2 SWAP1 POP JUMP JUMPDEST PUSH1 0x0 DUP3 DUP3 MSTORE PUSH1 0x20 DUP3 ADD SWAP1 POP SWAP3 SWAP2 POP POP JUMP JUMPDEST PUSH1 0x0 DUP2 SWAP1 POP PUSH1 0x20 DUP3 ADD SWAP1 POP SWAP2 SWAP1 POP JUMP JUMPDEST PUSH1 0x0 PUSH20 0xFFFFFFFFFFFFFFFFFFFFFFFFFFFFFFFFFFFFFFFF DUP3 AND SWAP1 POP SWAP2 SWAP1 POP JUMP JUMPDEST PUSH1 0x0 PUSH2 0x237C DUP3 PUSH2 0x2351 JUMP JUMPDEST SWAP1 POP SWAP2 SWAP1 POP JUMP JUMPDEST PUSH2 0x238C DUP2 PUSH2 0x2371 JUMP JUMPDEST DUP3 MSTORE POP POP JUMP JUMPDEST PUSH1 0x0 PUSH2 0x239E DUP4 DUP4 PUSH2 0x2383 JUMP JUMPDEST PUSH1 0x20 DUP4 ADD SWAP1 POP SWAP3 SWAP2 POP POP JUMP JUMPDEST PUSH1 0x0 PUSH1 0x20 DUP3 ADD SWAP1 POP SWAP2 SWAP1 POP JUMP JUMPDEST PUSH1 0x0 PUSH2 0x23C2 DUP3 PUSH2 0x2325 JUMP JUMPDEST PUSH2 0x23CC DUP2 DUP6 PUSH2 0x2330 JUMP JUMPDEST SWAP4 POP PUSH2 0x23D7 DUP4 PUSH2 0x2341 JUMP JUMPDEST DUP1 PUSH1 0x0 JUMPDEST DUP4 DUP2 LT ISZERO PUSH2 0x2408 JUMPI DUP2 MLOAD PUSH2 0x23EF DUP9 DUP3 PUSH2 0x2392 JUMP JUMPDEST SWAP8 POP PUSH2 0x23FA DUP4 PUSH2 0x23AA JUMP JUMPDEST SWAP3 POP POP PUSH1 0x1 DUP2 ADD SWAP1 POP PUSH2 0x23DB JUMP JUMPDEST POP DUP6 SWAP4 POP POP POP POP SWAP3 SWAP2 POP POP JUMP JUMPDEST PUSH1 0x0 PUSH1 0x20 DUP3 ADD SWAP1 POP DUP2 DUP2 SUB PUSH1 0x0 DUP4 ADD MSTORE PUSH2 0x242F DUP2 DUP5 PUSH2 0x23B7 JUMP JUMPDEST SWAP1 POP SWAP3 SWAP2 POP POP JUMP JUMPDEST PUSH1 0x0 DUP2 SWAP1 POP SWAP2 SWAP1 POP JUMP JUMPDEST PUSH2 0x244A DUP2 PUSH2 0x2437 JUMP JUMPDEST DUP3 MSTORE POP POP JUMP JUMPDEST PUSH1 0x0 PUSH1 0x20 DUP3 ADD SWAP1 POP PUSH2 0x2465 PUSH1 0x0 DUP4 ADD DUP5 PUSH2 0x2441 JUMP JUMPDEST SWAP3 SWAP2 POP POP JUMP JUMPDEST PUSH1 0x0 DUP1 REVERT JUMPDEST PUSH2 0x2479 DUP2 PUSH2 0x2437 JUMP JUMPDEST DUP2 EQ PUSH2 0x2484 JUMPI PUSH1 0x0 DUP1 REVERT JUMPDEST POP JUMP JUMPDEST PUSH1 0x0 DUP2 CALLDATALOAD SWAP1 POP PUSH2 0x2496 DUP2 PUSH2 0x2470 JUMP JUMPDEST SWAP3 SWAP2 POP POP JUMP JUMPDEST PUSH2 0x24A5 DUP2 PUSH2 0x2371 JUMP JUMPDEST DUP2 EQ PUSH2 0x24B0 JUMPI PUSH1 0x0 DUP1 REVERT JUMPDEST POP JUMP JUMPDEST PUSH1 0x0 DUP2 CALLDATALOAD SWAP1 POP PUSH2 0x24C2 DUP2 PUSH2 0x249C JUMP JUMPDEST SWAP3 SWAP2 POP POP JUMP JUMPDEST PUSH1 0x0 DUP1 PUSH1 0x40 DUP4 DUP6 SUB SLT ISZERO PUSH2 0x24DF JUMPI PUSH2 0x24DE PUSH2 0x246B JUMP JUMPDEST JUMPDEST PUSH1 0x0 PUSH2 0x24ED DUP6 DUP3 DUP7 ADD PUSH2 0x2487 JUMP JUMPDEST SWAP3 POP POP PUSH1 0x20 PUSH2 0x24FE DUP6 DUP3 DUP7 ADD PUSH2 0x24B3 JUMP JUMPDEST SWAP2 POP POP SWAP3 POP SWAP3 SWAP1 POP JUMP JUMPDEST PUSH1 0x0 DUP2 ISZERO ISZERO SWAP1 POP SWAP2 SWAP1 POP JUMP JUMPDEST PUSH2 0x251D DUP2 PUSH2 0x2508 JUMP JUMPDEST DUP3 MSTORE POP POP JUMP JUMPDEST PUSH1 0x0 PUSH1 0x20 DUP3 ADD SWAP1 POP PUSH2 0x2538 PUSH1 0x0 DUP4 ADD DUP5 PUSH2 0x2514 JUMP JUMPDEST SWAP3 SWAP2 POP POP JUMP JUMPDEST PUSH1 0x0 PUSH1 0x20 DUP3 DUP5 SUB SLT ISZERO PUSH2 0x2554 JUMPI PUSH2 0x2553 PUSH2 0x246B JUMP JUMPDEST JUMPDEST PUSH1 0x0 PUSH2 0x2562 DUP5 DUP3 DUP6 ADD PUSH2 0x2487 JUMP JUMPDEST SWAP2 POP POP SWAP3 SWAP2 POP POP JUMP JUMPDEST PUSH1 0x0 DUP2 MLOAD SWAP1 POP SWAP2 SWAP1 POP JUMP JUMPDEST PUSH1 0x0 DUP3 DUP3 MSTORE PUSH1 0x20 DUP3 ADD SWAP1 POP SWAP3 SWAP2 POP POP JUMP JUMPDEST PUSH1 0x0 DUP2 SWAP1 POP PUSH1 0x20 DUP3 ADD SWAP1 POP SWAP2 SWAP1 POP JUMP JUMPDEST PUSH2 0x25A0 DUP2 PUSH2 0x2437 JUMP JUMPDEST DUP3 MSTORE POP POP JUMP JUMPDEST PUSH2 0x25AF DUP2 PUSH2 0x2508 JUMP JUMPDEST DUP3 MSTORE POP POP JUMP JUMPDEST PUSH1 0xC0 DUP3 ADD PUSH1 0x0 DUP3 ADD MLOAD PUSH2 0x25CB PUSH1 0x0 DUP6 ADD DUP3 PUSH2 0x2597 JUMP JUMPDEST POP PUSH1 0x20 DUP3 ADD MLOAD PUSH2 0x25DE PUSH1 0x20 DUP6 ADD DUP3 PUSH2 0x2597 JUMP JUMPDEST POP PUSH1 0x40 DUP3 ADD MLOAD PUSH2 0x25F1 PUSH1 0x40 DUP6 ADD DUP3 PUSH2 0x2597 JUMP JUMPDEST POP PUSH1 0x60 DUP3 ADD MLOAD PUSH2 0x2604 PUSH1 0x60 DUP6 ADD DUP3 PUSH2 0x2597 JUMP JUMPDEST POP PUSH1 0x80 DUP3 ADD MLOAD PUSH2 0x2617 PUSH1 0x80 DUP6 ADD DUP3 PUSH2 0x2597 JUMP JUMPDEST POP PUSH1 0xA0 DUP3 ADD MLOAD PUSH2 0x262A PUSH1 0xA0 DUP6 ADD DUP3 PUSH2 0x25A6 JUMP JUMPDEST POP POP POP POP JUMP JUMPDEST PUSH1 0x0 PUSH2 0x263C DUP4 DUP4 PUSH2 0x25B5 JUMP JUMPDEST PUSH1 0xC0 DUP4 ADD SWAP1 POP SWAP3 SWAP2 POP POP JUMP JUMPDEST PUSH1 0x0 PUSH1 0x20 DUP3 ADD SWAP1 POP SWAP2 SWAP1 POP JUMP JUMPDEST PUSH1 0x0 PUSH2 0x2660 DUP3 PUSH2 0x256B JUMP JUMPDEST PUSH2 0x266A DUP2 DUP6 PUSH2 0x2576 JUMP JUMPDEST SWAP4 POP PUSH2 0x2675 DUP4 PUSH2 0x2587 JUMP JUMPDEST DUP1 PUSH1 0x0 JUMPDEST DUP4 DUP2 LT ISZERO PUSH2 0x26A6 JUMPI DUP2 MLOAD PUSH2 0x268D DUP9 DUP3 PUSH2 0x2630 JUMP JUMPDEST SWAP8 POP PUSH2 0x2698 DUP4 PUSH2 0x2648 JUMP JUMPDEST SWAP3 POP POP PUSH1 0x1 DUP2 ADD SWAP1 POP PUSH2 0x2679 JUMP JUMPDEST POP DUP6 SWAP4 POP POP POP POP SWAP3 SWAP2 POP POP JUMP JUMPDEST PUSH1 0x0 PUSH1 0x20 DUP3 ADD SWAP1 POP DUP2 DUP2 SUB PUSH1 0x0 DUP4 ADD MSTORE PUSH2 0x26CD DUP2 DUP5 PUSH2 0x2655 JUMP JUMPDEST SWAP1 POP SWAP3 SWAP2 POP POP JUMP JUMPDEST PUSH1 0x0 DUP1 PUSH1 0x0 DUP1 PUSH1 0x80 DUP6 DUP8 SUB SLT ISZERO PUSH2 0x26EF JUMPI PUSH2 0x26EE PUSH2 0x246B JUMP JUMPDEST JUMPDEST PUSH1 0x0 PUSH2 0x26FD DUP8 DUP3 DUP9 ADD PUSH2 0x2487 JUMP JUMPDEST SWAP5 POP POP PUSH1 0x20 PUSH2 0x270E DUP8 DUP3 DUP9 ADD PUSH2 0x2487 JUMP JUMPDEST SWAP4 POP POP PUSH1 0x40 PUSH2 0x271F DUP8 DUP3 DUP9 ADD PUSH2 0x2487 JUMP JUMPDEST SWAP3 POP POP PUSH1 0x60 PUSH2 0x2730 DUP8 DUP3 DUP9 ADD PUSH2 0x2487 JUMP JUMPDEST SWAP2 POP POP SWAP3 SWAP6 SWAP2 SWAP5 POP SWAP3 POP JUMP JUMPDEST PUSH2 0x2745 DUP2 PUSH2 0x2371 JUMP JUMPDEST DUP3 MSTORE POP POP JUMP JUMPDEST PUSH1 0x0 PUSH1 0x20 DUP3 ADD SWAP1 POP PUSH2 0x2760 PUSH1 0x0 DUP4 ADD DUP5 PUSH2 0x273C JUMP JUMPDEST SWAP3 SWAP2 POP POP JUMP JUMPDEST PUSH1 0x0 DUP1 PUSH1 0x40 DUP4 DUP6 SUB SLT ISZERO PUSH2 0x277D JUMPI PUSH2 0x277C PUSH2 0x246B JUMP JUMPDEST JUMPDEST PUSH1 0x0 PUSH2 0x278B DUP6 DUP3 DUP7 ADD PUSH2 0x2487 JUMP JUMPDEST SWAP3 POP POP PUSH1 0x20 PUSH2 0x279C DUP6 DUP3 DUP7 ADD PUSH2 0x2487 JUMP JUMPDEST SWAP2 POP POP SWAP3 POP SWAP3 SWAP1 POP JUMP JUMPDEST PUSH1 0x0 DUP2 MLOAD SWAP1 POP SWAP2 SWAP1 POP JUMP JUMPDEST PUSH1 0x0 DUP3 DUP3 MSTORE PUSH1 0x20 DUP3 ADD SWAP1 POP SWAP3 SWAP2 POP POP JUMP JUMPDEST PUSH1 0x0 DUP2 SWAP1 POP PUSH1 0x20 DUP3 ADD SWAP1 POP SWAP2 SWAP1 POP JUMP JUMPDEST PUSH1 0x0 PUSH2 0x27DE DUP4 DUP4 PUSH2 0x2597 JUMP JUMPDEST PUSH1 0x20 DUP4 ADD SWAP1 POP SWAP3 SWAP2 POP POP JUMP JUMPDEST PUSH1 0x0 PUSH1 0x20 DUP3 ADD SWAP1 POP SWAP2 SWAP1 POP JUMP JUMPDEST PUSH1 0x0 PUSH2 0x2802 DUP3 PUSH2 0x27A6 JUMP JUMPDEST PUSH2 0x280C DUP2 DUP6 PUSH2 0x27B1 JUMP JUMPDEST SWAP4 POP PUSH2 0x2817 DUP4 PUSH2 0x27C2 JUMP JUMPDEST DUP1 PUSH1 0x0 JUMPDEST DUP4 DUP2 LT ISZERO PUSH2 0x2848 JUMPI DUP2 MLOAD PUSH2 0x282F DUP9 DUP3 PUSH2 0x27D2 JUMP JUMPDEST SWAP8 POP PUSH2 0x283A DUP4 PUSH2 0x27EA JUMP JUMPDEST SWAP3 POP POP PUSH1 0x1 DUP2 ADD SWAP1 POP PUSH2 0x281B JUMP JUMPDEST POP DUP6 SWAP4 POP POP POP POP SWAP3 SWAP2 POP POP JUMP JUMPDEST PUSH1 0x0 PUSH1 0x20 DUP3 ADD SWAP1 POP DUP2 DUP2 SUB PUSH1 0x0 DUP4 ADD MSTORE PUSH2 0x286F DUP2 DUP5 PUSH2 0x27F7 JUMP JUMPDEST SWAP1 POP SWAP3 SWAP2 POP POP JUMP JUMPDEST PUSH1 0x0 PUSH1 0x20 DUP3 DUP5 SUB SLT ISZERO PUSH2 0x288D JUMPI PUSH2 0x288C PUSH2 0x246B JUMP JUMPDEST JUMPDEST PUSH1 0x0 PUSH2 0x289B DUP5 DUP3 DUP6 ADD PUSH2 0x24B3 JUMP JUMPDEST SWAP2 POP POP SWAP3 SWAP2 POP POP JUMP JUMPDEST PUSH1 0x0 PUSH1 0xE0 DUP3 ADD SWAP1 POP PUSH2 0x28B9 PUSH1 0x0 DUP4 ADD DUP11 PUSH2 0x273C JUMP JUMPDEST PUSH2 0x28C6 PUSH1 0x20 DUP4 ADD DUP10 PUSH2 0x2441 JUMP JUMPDEST PUSH2 0x28D3 PUSH1 0x40 DUP4 ADD DUP9 PUSH2 0x2441 JUMP JUMPDEST PUSH2 0x28E0 PUSH1 0x60 DUP4 ADD DUP8 PUSH2 0x2441 JUMP JUMPDEST PUSH2 0x28ED PUSH1 0x80 DUP4 ADD DUP7 PUSH2 0x2441 JUMP JUMPDEST PUSH2 0x28FA PUSH1 0xA0 DUP4 ADD DUP6 PUSH2 0x2514 JUMP JUMPDEST PUSH2 0x2907 PUSH1 0xC0 DUP4 ADD DUP5 PUSH2 0x2441 JUMP JUMPDEST SWAP9 SWAP8 POP POP POP POP POP POP POP POP JUMP JUMPDEST PUSH1 0x0 DUP3 DUP3 MSTORE PUSH1 0x20 DUP3 ADD SWAP1 POP SWAP3 SWAP2 POP POP JUMP JUMPDEST PUSH32 0x76616C7565206973206E6F742067726561746572207468616E20313030303020 PUSH1 0x0 DUP3 ADD MSTORE PUSH32 0x616E64206C657373207468616E20353030303030300000000000000000000000 PUSH1 0x20 DUP3 ADD MSTORE POP JUMP JUMPDEST PUSH1 0x0 PUSH2 0x2980 PUSH1 0x35 DUP4 PUSH2 0x2913 JUMP JUMPDEST SWAP2 POP PUSH2 0x298B DUP3 PUSH2 0x2924 JUMP JUMPDEST PUSH1 0x40 DUP3 ADD SWAP1 POP SWAP2 SWAP1 POP JUMP JUMPDEST PUSH1 0x0 PUSH1 0x20 DUP3 ADD SWAP1 POP DUP2 DUP2 SUB PUSH1 0x0 DUP4 ADD MSTORE PUSH2 0x29AF DUP2 PUSH2 0x2973 JUMP JUMPDEST SWAP1 POP SWAP2 SWAP1 POP JUMP JUMPDEST PUSH32 0x4E487B7100000000000000000000000000000000000000000000000000000000 PUSH1 0x0 MSTORE PUSH1 0x11 PUSH1 0x4 MSTORE PUSH1 0x24 PUSH1 0x0 REVERT JUMPDEST PUSH1 0x0 PUSH2 0x29F0 DUP3 PUSH2 0x2437 JUMP JUMPDEST SWAP2 POP PUSH32 0xFFFFFFFFFFFFFFFFFFFFFFFFFFFFFFFFFFFFFFFFFFFFFFFFFFFFFFFFFFFFFFFF DUP3 EQ ISZERO PUSH2 0x2A23 JUMPI PUSH2 0x2A22 PUSH2 0x29B6 JUMP JUMPDEST JUMPDEST PUSH1 0x1 DUP3 ADD SWAP1 POP SWAP2 SWAP1 POP JUMP JUMPDEST PUSH1 0x0 PUSH2 0x2A39 DUP3 PUSH2 0x2437 JUMP JUMPDEST SWAP2 POP PUSH2 0x2A44 DUP4 PUSH2 0x2437 JUMP JUMPDEST SWAP3 POP DUP3 PUSH32 0xFFFFFFFFFFFFFFFFFFFFFFFFFFFFFFFFFFFFFFFFFFFFFFFFFFFFFFFFFFFFFFFF SUB DUP3 GT ISZERO PUSH2 0x2A79 JUMPI PUSH2 0x2A78 PUSH2 0x29B6 JUMP JUMPDEST JUMPDEST DUP3 DUP3 ADD SWAP1 POP SWAP3 SWAP2 POP POP JUMP JUMPDEST PUSH1 0x0 PUSH2 0x2A8F DUP3 PUSH2 0x2437 JUMP JUMPDEST SWAP2 POP PUSH2 0x2A9A DUP4 PUSH2 0x2437 JUMP JUMPDEST SWAP3 POP DUP2 PUSH32 0xFFFFFFFFFFFFFFFFFFFFFFFFFFFFFFFFFFFFFFFFFFFFFFFFFFFFFFFFFFFFFFFF DIV DUP4 GT DUP3 ISZERO ISZERO AND ISZERO PUSH2 0x2AD3 JUMPI PUSH2 0x2AD2 PUSH2 0x29B6 JUMP JUMPDEST JUMPDEST DUP3 DUP3 MUL SWAP1 POP SWAP3 SWAP2 POP POP JUMP JUMPDEST PUSH1 0x0 PUSH1 0x60 DUP3 ADD SWAP1 POP PUSH2 0x2AF3 PUSH1 0x0 DUP4 ADD DUP7 PUSH2 0x273C JUMP JUMPDEST PUSH2 0x2B00 PUSH1 0x20 DUP4 ADD DUP6 PUSH2 0x273C JUMP JUMPDEST PUSH2 0x2B0D PUSH1 0x40 DUP4 ADD DUP5 PUSH2 0x2441 JUMP JUMPDEST SWAP5 SWAP4 POP POP POP POP JUMP JUMPDEST PUSH2 0x2B1E DUP2 PUSH2 0x2508 JUMP JUMPDEST DUP2 EQ PUSH2 0x2B29 JUMPI PUSH1 0x0 DUP1 REVERT JUMPDEST POP JUMP JUMPDEST PUSH1 0x0 DUP2 MLOAD SWAP1 POP PUSH2 0x2B3B DUP2 PUSH2 0x2B15 JUMP JUMPDEST SWAP3 SWAP2 POP POP JUMP JUMPDEST PUSH1 0x0 PUSH1 0x20 DUP3 DUP5 SUB SLT ISZERO PUSH2 0x2B57 JUMPI PUSH2 0x2B56 PUSH2 0x246B JUMP JUMPDEST JUMPDEST PUSH1 0x0 PUSH2 0x2B65 DUP5 DUP3 DUP6 ADD PUSH2 0x2B2C JUMP JUMPDEST SWAP2 POP POP SWAP3 SWAP2 POP POP JUMP JUMPDEST PUSH32 0x4E487B7100000000000000000000000000000000000000000000000000000000 PUSH1 0x0 MSTORE PUSH1 0x41 PUSH1 0x4 MSTORE PUSH1 0x24 PUSH1 0x0 REVERT JUMPDEST PUSH32 0x4E487B7100000000000000000000000000000000000000000000000000000000 PUSH1 0x0 MSTORE PUSH1 0x32 PUSH1 0x4 MSTORE PUSH1 0x24 PUSH1 0x0 REVERT JUMPDEST PUSH1 0x0 PUSH2 0x2BD7 DUP3 PUSH2 0x2437 JUMP JUMPDEST SWAP2 POP PUSH2 0x2BE2 DUP4 PUSH2 0x2437 JUMP JUMPDEST SWAP3 POP DUP3 DUP3 LT ISZERO PUSH2 0x2BF5 JUMPI PUSH2 0x2BF4 PUSH2 0x29B6 JUMP JUMPDEST JUMPDEST DUP3 DUP3 SUB SWAP1 POP SWAP3 SWAP2 POP POP JUMP JUMPDEST PUSH32 0x4E487B7100000000000000000000000000000000000000000000000000000000 PUSH1 0x0 MSTORE PUSH1 0x12 PUSH1 0x4 MSTORE PUSH1 0x24 PUSH1 0x0 REVERT JUMPDEST PUSH1 0x0 PUSH2 0x2C3A DUP3 PUSH2 0x2437 JUMP JUMPDEST SWAP2 POP PUSH2 0x2C45 DUP4 PUSH2 0x2437 JUMP JUMPDEST SWAP3 POP DUP3 PUSH2 0x2C55 JUMPI PUSH2 0x2C54 PUSH2 0x2C00 JUMP JUMPDEST JUMPDEST DUP3 DUP3 DIV SWAP1 POP SWAP3 SWAP2 POP POP JUMP JUMPDEST PUSH32 0x796F7520646F6E74206861766520696E766573746D656E7420746F2077697468 PUSH1 0x0 DUP3 ADD MSTORE PUSH32 0x647261776E000000000000000000000000000000000000000000000000000000 PUSH1 0x20 DUP3 ADD MSTORE POP JUMP JUMPDEST PUSH1 0x0 PUSH2 0x2CBC PUSH1 0x25 DUP4 PUSH2 0x2913 JUMP JUMPDEST SWAP2 POP PUSH2 0x2CC7 DUP3 PUSH2 0x2C60 JUMP JUMPDEST PUSH1 0x40 DUP3 ADD SWAP1 POP SWAP2 SWAP1 POP JUMP JUMPDEST PUSH1 0x0 PUSH1 0x20 DUP3 ADD SWAP1 POP DUP2 DUP2 SUB PUSH1 0x0 DUP4 ADD MSTORE PUSH2 0x2CEB DUP2 PUSH2 0x2CAF JUMP JUMPDEST SWAP1 POP SWAP2 SWAP1 POP JUMP JUMPDEST PUSH1 0x0 PUSH1 0x40 DUP3 ADD SWAP1 POP PUSH2 0x2D07 PUSH1 0x0 DUP4 ADD DUP6 PUSH2 0x273C JUMP JUMPDEST PUSH2 0x2D14 PUSH1 0x20 DUP4 ADD DUP5 PUSH2 0x2441 JUMP JUMPDEST SWAP4 SWAP3 POP POP POP JUMP JUMPDEST PUSH32 0x796F7520646F6E742068617665207265776172647320746F2077697468647261 PUSH1 0x0 DUP3 ADD MSTORE PUSH32 0x776E000000000000000000000000000000000000000000000000000000000000 PUSH1 0x20 DUP3 ADD MSTORE POP JUMP JUMPDEST PUSH1 0x0 PUSH2 0x2D77 PUSH1 0x22 DUP4 PUSH2 0x2913 JUMP JUMPDEST SWAP2 POP PUSH2 0x2D82 DUP3 PUSH2 0x2D1B JUMP JUMPDEST PUSH1 0x40 DUP3 ADD SWAP1 POP SWAP2 SWAP1 POP JUMP JUMPDEST PUSH1 0x0 PUSH1 0x20 DUP3 ADD SWAP1 POP DUP2 DUP2 SUB PUSH1 0x0 DUP4 ADD MSTORE PUSH2 0x2DA6 DUP2 PUSH2 0x2D6A JUMP JUMPDEST SWAP1 POP SWAP2 SWAP1 POP JUMP JUMPDEST PUSH32 0x6F6E6C79204F776E65722063616E2063616C6C20746869732066756E6374696F PUSH1 0x0 DUP3 ADD MSTORE PUSH32 0x6E00000000000000000000000000000000000000000000000000000000000000 PUSH1 0x20 DUP3 ADD MSTORE POP JUMP JUMPDEST PUSH1 0x0 PUSH2 0x2E09 PUSH1 0x21 DUP4 PUSH2 0x2913 JUMP JUMPDEST SWAP2 POP PUSH2 0x2E14 DUP3 PUSH2 0x2DAD JUMP JUMPDEST PUSH1 0x40 DUP3 ADD SWAP1 POP SWAP2 SWAP1 POP JUMP JUMPDEST PUSH1 0x0 PUSH1 0x20 DUP3 ADD SWAP1 POP DUP2 DUP2 SUB PUSH1 0x0 DUP4 ADD MSTORE PUSH2 0x2E38 DUP2 PUSH2 0x2DFC JUMP JUMPDEST SWAP1 POP SWAP2 SWAP1 POP JUMP INVALID LOG2 PUSH5 0x6970667358 0x22 SLT KECCAK256 0xD0 0xAB PUSH32 0xE7D8752070EDD94E34B5288FFC55B1021D7DA2D4B21CAA23FADD4A244664736F PUSH13 0x63430008090033000000000000 "
				},
				"gasEstimates": {
					"creation": {
						"codeDepositCost": "2378600",
						"executionCost": "185883",
						"totalCost": "2564483"
					},
					"external": {
						"DUSDReferralsList()": "infinite",
						"DUSDTotalReferrals()": "2608",
						"DUSDinvestor(address)": "infinite",
						"Stake(uint256,address)": "infinite",
						"denomenator()": "2474",
						"getAllDUSDinvestments()": "infinite",
						"getReward()": "infinite",
						"getTotalInvestmentDUSD()": "2555",
						"investmentPeriod()": "2518",
						"max_Stake_amount()": "2561",
						"min_Stake_amount()": "2540",
						"owner()": "2644",
						"referralLevel_count()": "infinite",
						"referralLevel_earning()": "infinite",
						"rewardToken()": "2539",
						"setReward(uint256,uint256)": "infinite",
						"set_max_Stake_amount(uint256)": "22587",
						"set_min_Stake_amount(uint256)": "22632",
						"set_values(uint256,uint256,uint256,uint256)": "infinite",
						"totalDUSDInvestors()": "2475",
						"totalbusiness()": "2473",
						"transferOwnership(address)": "26955",
						"unStake()": "infinite",
						"withdrawReward()": "infinite"
					},
					"internal": {
						"sendRewardToDUSDReferrals(address,uint256)": "infinite"
					}
				},
				"methodIdentifiers": {
					"DUSDReferralsList()": "0c5f58f4",
					"DUSDTotalReferrals()": "1e8aba35",
					"DUSDinvestor(address)": "d3560ee8",
					"Stake(uint256,address)": "2bccdce6",
					"denomenator()": "9740a1bc",
					"getAllDUSDinvestments()": "3a1e0833",
					"getReward()": "3d18b912",
					"getTotalInvestmentDUSD()": "929f6bbe",
					"investmentPeriod()": "523cddfe",
					"max_Stake_amount()": "fae730bc",
					"min_Stake_amount()": "bc67eaff",
					"owner()": "8da5cb5b",
					"referralLevel_count()": "f790b81a",
					"referralLevel_earning()": "a61be99d",
					"rewardToken()": "f7c618c1",
					"setReward(uint256,uint256)": "a47bd496",
					"set_max_Stake_amount(uint256)": "500cb85f",
					"set_min_Stake_amount(uint256)": "32d4e783",
					"set_values(uint256,uint256,uint256,uint256)": "4eb1ecc9",
					"totalDUSDInvestors()": "10cde60a",
					"totalbusiness()": "e2033fcb",
					"transferOwnership(address)": "f2fde38b",
					"unStake()": "73cf575a",
					"withdrawReward()": "c885bc58"
				}
			},
			"storageLayout": {
				"storage": [
					{
						"astId": 24,
						"contract": "contracts/stake_reward_MLM.sol:Invest",
						"label": "owner",
						"offset": 0,
						"slot": "0",
						"type": "t_address"
					},
					{
						"astId": 27,
						"contract": "contracts/stake_reward_MLM.sol:Invest",
						"label": "SMCcontract",
						"offset": 0,
						"slot": "1",
						"type": "t_address"
					},
					{
						"astId": 30,
						"contract": "contracts/stake_reward_MLM.sol:Invest",
						"label": "BUSDcontract",
						"offset": 0,
						"slot": "2",
						"type": "t_address"
					},
					{
						"astId": 32,
						"contract": "contracts/stake_reward_MLM.sol:Invest",
						"label": "totalDUSDInvestors",
						"offset": 0,
						"slot": "3",
						"type": "t_uint256"
					},
					{
						"astId": 35,
						"contract": "contracts/stake_reward_MLM.sol:Invest",
						"label": "rewardToken",
						"offset": 0,
						"slot": "4",
						"type": "t_uint256"
					},
					{
						"astId": 38,
						"contract": "contracts/stake_reward_MLM.sol:Invest",
						"label": "min_Stake_amount",
						"offset": 0,
						"slot": "5",
						"type": "t_uint256"
					},
					{
						"astId": 41,
						"contract": "contracts/stake_reward_MLM.sol:Invest",
						"label": "max_Stake_amount",
						"offset": 0,
						"slot": "6",
						"type": "t_uint256"
					},
					{
						"astId": 44,
						"contract": "contracts/stake_reward_MLM.sol:Invest",
						"label": "denomenator",
						"offset": 0,
						"slot": "7",
						"type": "t_uint256"
					},
					{
						"astId": 47,
						"contract": "contracts/stake_reward_MLM.sol:Invest",
						"label": "investmentPeriod",
						"offset": 0,
						"slot": "8",
						"type": "t_uint256"
					},
					{
						"astId": 49,
						"contract": "contracts/stake_reward_MLM.sol:Invest",
						"label": "totalbusiness",
						"offset": 0,
						"slot": "9",
						"type": "t_uint256"
					},
					{
						"astId": 51,
						"contract": "contracts/stake_reward_MLM.sol:Invest",
						"label": "rew_till_done",
						"offset": 0,
						"slot": "10",
						"type": "t_uint256"
					},
					{
						"astId": 102,
						"contract": "contracts/stake_reward_MLM.sol:Invest",
						"label": "DUSDinvestor",
						"offset": 0,
						"slot": "11",
						"type": "t_mapping(t_address,t_struct(Data)97_storage)"
					}
				],
				"types": {
					"t_address": {
						"encoding": "inplace",
						"label": "address",
						"numberOfBytes": "20"
					},
					"t_array(t_address)dyn_storage": {
						"base": "t_address",
						"encoding": "dynamic_array",
						"label": "address[]",
						"numberOfBytes": "32"
					},
					"t_bool": {
						"encoding": "inplace",
						"label": "bool",
						"numberOfBytes": "1"
					},
					"t_mapping(t_address,t_struct(Data)97_storage)": {
						"encoding": "mapping",
						"key": "t_address",
						"label": "mapping(address => struct Invest.Data)",
						"numberOfBytes": "32",
						"value": "t_struct(Data)97_storage"
					},
					"t_mapping(t_uint256,t_struct(allInvestments)64_storage)": {
						"encoding": "mapping",
						"key": "t_uint256",
						"label": "mapping(uint256 => struct Invest.allInvestments)",
						"numberOfBytes": "32",
						"value": "t_struct(allInvestments)64_storage"
					},
					"t_mapping(t_uint256,t_struct(ref_data)69_storage)": {
						"encoding": "mapping",
						"key": "t_uint256",
						"label": "mapping(uint256 => struct Invest.ref_data)",
						"numberOfBytes": "32",
						"value": "t_struct(ref_data)69_storage"
					},
					"t_struct(Data)97_storage": {
						"encoding": "inplace",
						"label": "struct Invest.Data",
						"members": [
							{
								"astId": 74,
								"contract": "contracts/stake_reward_MLM.sol:Invest",
								"label": "investment",
								"offset": 0,
								"slot": "0",
								"type": "t_mapping(t_uint256,t_struct(allInvestments)64_storage)"
							},
							{
								"astId": 77,
								"contract": "contracts/stake_reward_MLM.sol:Invest",
								"label": "hisReferrals",
								"offset": 0,
								"slot": "1",
								"type": "t_array(t_address)dyn_storage"
							},
							{
								"astId": 79,
								"contract": "contracts/stake_reward_MLM.sol:Invest",
								"label": "referralFrom",
								"offset": 0,
								"slot": "2",
								"type": "t_address"
							},
							{
								"astId": 84,
								"contract": "contracts/stake_reward_MLM.sol:Invest",
								"label": "referralLevel",
								"offset": 0,
								"slot": "3",
								"type": "t_mapping(t_uint256,t_struct(ref_data)69_storage)"
							},
							{
								"astId": 86,
								"contract": "contracts/stake_reward_MLM.sol:Invest",
								"label": "reward",
								"offset": 0,
								"slot": "4",
								"type": "t_uint256"
							},
							{
								"astId": 88,
								"contract": "contracts/stake_reward_MLM.sol:Invest",
								"label": "noOfInvestment",
								"offset": 0,
								"slot": "5",
								"type": "t_uint256"
							},
							{
								"astId": 90,
								"contract": "contracts/stake_reward_MLM.sol:Invest",
								"label": "totalInvestment",
								"offset": 0,
								"slot": "6",
								"type": "t_uint256"
							},
							{
								"astId": 92,
								"contract": "contracts/stake_reward_MLM.sol:Invest",
								"label": "totalWithdraw_reward",
								"offset": 0,
								"slot": "7",
								"type": "t_uint256"
							},
							{
								"astId": 94,
								"contract": "contracts/stake_reward_MLM.sol:Invest",
								"label": "investBefore",
								"offset": 0,
								"slot": "8",
								"type": "t_bool"
							},
							{
								"astId": 96,
								"contract": "contracts/stake_reward_MLM.sol:Invest",
								"label": "stakeTime",
								"offset": 0,
								"slot": "9",
								"type": "t_uint256"
							}
						],
						"numberOfBytes": "320"
					},
					"t_struct(allInvestments)64_storage": {
						"encoding": "inplace",
						"label": "struct Invest.allInvestments",
						"members": [
							{
								"astId": 53,
								"contract": "contracts/stake_reward_MLM.sol:Invest",
								"label": "investedAmount",
								"offset": 0,
								"slot": "0",
								"type": "t_uint256"
							},
							{
								"astId": 55,
								"contract": "contracts/stake_reward_MLM.sol:Invest",
								"label": "withdrawnTime",
								"offset": 0,
								"slot": "1",
								"type": "t_uint256"
							},
							{
								"astId": 57,
								"contract": "contracts/stake_reward_MLM.sol:Invest",
								"label": "DepositTime",
								"offset": 0,
								"slot": "2",
								"type": "t_uint256"
							},
							{
								"astId": 59,
								"contract": "contracts/stake_reward_MLM.sol:Invest",
								"label": "investmentNum",
								"offset": 0,
								"slot": "3",
								"type": "t_uint256"
							},
							{
								"astId": 61,
								"contract": "contracts/stake_reward_MLM.sol:Invest",
								"label": "unstakeTime",
								"offset": 0,
								"slot": "4",
								"type": "t_uint256"
							},
							{
								"astId": 63,
								"contract": "contracts/stake_reward_MLM.sol:Invest",
								"label": "unstake",
								"offset": 0,
								"slot": "5",
								"type": "t_bool"
							}
						],
						"numberOfBytes": "192"
					},
					"t_struct(ref_data)69_storage": {
						"encoding": "inplace",
						"label": "struct Invest.ref_data",
						"members": [
							{
								"astId": 66,
								"contract": "contracts/stake_reward_MLM.sol:Invest",
								"label": "reward",
								"offset": 0,
								"slot": "0",
								"type": "t_uint256"
							},
							{
								"astId": 68,
								"contract": "contracts/stake_reward_MLM.sol:Invest",
								"label": "count",
								"offset": 0,
								"slot": "1",
								"type": "t_uint256"
							}
						],
						"numberOfBytes": "64"
					},
					"t_uint256": {
						"encoding": "inplace",
						"label": "uint256",
						"numberOfBytes": "32"
					}
				}
			},
			"userdoc": {
				"kind": "user",
				"methods": {},
				"version": 1
			}
		}
	}
}