{
	"contracts/cropsFarmer.sol": {
		"BNB_V3": {
			"abi": [
				{
					"inputs": [
						{
							"internalType": "address payable",
							"name": "_dev1",
							"type": "address"
						},
						{
							"internalType": "address payable",
							"name": "_dev2",
							"type": "address"
						},
						{
							"internalType": "address payable",
							"name": "_dev3",
							"type": "address"
						},
						{
							"internalType": "address payable",
							"name": "_prtnr1",
							"type": "address"
						},
						{
							"internalType": "address payable",
							"name": "_prtnr2",
							"type": "address"
						},
						{
							"internalType": "address payable",
							"name": "_mkt",
							"type": "address"
						}
					],
					"stateMutability": "nonpayable",
					"type": "constructor"
				},
				{
					"inputs": [
						{
							"internalType": "uint256",
							"name": "value",
							"type": "uint256"
						}
					],
					"name": "BONUS_COMPOUND_STEP",
					"outputs": [],
					"stateMutability": "nonpayable",
					"type": "function"
				},
				{
					"inputs": [
						{
							"internalType": "uint256",
							"name": "value",
							"type": "uint256"
						}
					],
					"name": "BONUS_DAILY_COMPOUND",
					"outputs": [],
					"stateMutability": "nonpayable",
					"type": "function"
				},
				{
					"inputs": [
						{
							"internalType": "uint256",
							"name": "value",
							"type": "uint256"
						}
					],
					"name": "BONUS_DAILY_COMPOUND_BONUS_MAX_TIMES",
					"outputs": [],
					"stateMutability": "nonpayable",
					"type": "function"
				},
				{
					"inputs": [
						{
							"internalType": "address",
							"name": "",
							"type": "address"
						}
					],
					"name": "Blacklisted",
					"outputs": [
						{
							"internalType": "bool",
							"name": "",
							"type": "bool"
						}
					],
					"stateMutability": "view",
					"type": "function"
				},
				{
					"inputs": [
						{
							"internalType": "address",
							"name": "value",
							"type": "address"
						}
					],
					"name": "CHANGE_OWNERSHIP",
					"outputs": [],
					"stateMutability": "nonpayable",
					"type": "function"
				},
				{
					"inputs": [],
					"name": "COMPOUND_BONUS",
					"outputs": [
						{
							"internalType": "uint256",
							"name": "",
							"type": "uint256"
						}
					],
					"stateMutability": "view",
					"type": "function"
				},
				{
					"inputs": [],
					"name": "COMPOUND_BONUS_MAX_TIMES",
					"outputs": [
						{
							"internalType": "uint256",
							"name": "",
							"type": "uint256"
						}
					],
					"stateMutability": "view",
					"type": "function"
				},
				{
					"inputs": [],
					"name": "COMPOUND_FOR_NO_TAX_WITHDRAWAL",
					"outputs": [
						{
							"internalType": "uint256",
							"name": "",
							"type": "uint256"
						}
					],
					"stateMutability": "view",
					"type": "function"
				},
				{
					"inputs": [],
					"name": "COMPOUND_STEP",
					"outputs": [
						{
							"internalType": "uint256",
							"name": "",
							"type": "uint256"
						}
					],
					"stateMutability": "view",
					"type": "function"
				},
				{
					"inputs": [],
					"name": "CUTOFF_STEP",
					"outputs": [
						{
							"internalType": "uint256",
							"name": "",
							"type": "uint256"
						}
					],
					"stateMutability": "view",
					"type": "function"
				},
				{
					"inputs": [],
					"name": "EGGS_TO_HIRE_1MINERS",
					"outputs": [
						{
							"internalType": "uint256",
							"name": "",
							"type": "uint256"
						}
					],
					"stateMutability": "view",
					"type": "function"
				},
				{
					"inputs": [],
					"name": "MARKET_EGGS_DIVISOR",
					"outputs": [
						{
							"internalType": "uint256",
							"name": "",
							"type": "uint256"
						}
					],
					"stateMutability": "view",
					"type": "function"
				},
				{
					"inputs": [],
					"name": "MIN_INVEST_LIMIT",
					"outputs": [
						{
							"internalType": "uint256",
							"name": "",
							"type": "uint256"
						}
					],
					"stateMutability": "view",
					"type": "function"
				},
				{
					"inputs": [],
					"name": "MKT",
					"outputs": [
						{
							"internalType": "uint256",
							"name": "",
							"type": "uint256"
						}
					],
					"stateMutability": "view",
					"type": "function"
				},
				{
					"inputs": [],
					"name": "PERCENTS_DIVIDER",
					"outputs": [
						{
							"internalType": "uint256",
							"name": "",
							"type": "uint256"
						}
					],
					"stateMutability": "view",
					"type": "function"
				},
				{
					"inputs": [
						{
							"internalType": "uint256",
							"name": "value",
							"type": "uint256"
						}
					],
					"name": "PRC_EGGS_TO_HIRE_1MINERS",
					"outputs": [],
					"stateMutability": "nonpayable",
					"type": "function"
				},
				{
					"inputs": [
						{
							"internalType": "uint256",
							"name": "value",
							"type": "uint256"
						}
					],
					"name": "PRC_MARKET_EGGS_DIVISOR",
					"outputs": [],
					"stateMutability": "nonpayable",
					"type": "function"
				},
				{
					"inputs": [
						{
							"internalType": "uint256",
							"name": "value",
							"type": "uint256"
						}
					],
					"name": "PRC_MKT",
					"outputs": [],
					"stateMutability": "nonpayable",
					"type": "function"
				},
				{
					"inputs": [
						{
							"internalType": "uint256",
							"name": "value",
							"type": "uint256"
						}
					],
					"name": "PRC_REFERRAL",
					"outputs": [],
					"stateMutability": "nonpayable",
					"type": "function"
				},
				{
					"inputs": [
						{
							"internalType": "uint256",
							"name": "value",
							"type": "uint256"
						}
					],
					"name": "PRC_TAX",
					"outputs": [],
					"stateMutability": "nonpayable",
					"type": "function"
				},
				{
					"inputs": [],
					"name": "REFERRAL",
					"outputs": [
						{
							"internalType": "uint256",
							"name": "",
							"type": "uint256"
						}
					],
					"stateMutability": "view",
					"type": "function"
				},
				{
					"inputs": [
						{
							"internalType": "uint256",
							"name": "value",
							"type": "uint256"
						}
					],
					"name": "SET_COMPOUND_FOR_NO_TAX_WITHDRAWAL",
					"outputs": [],
					"stateMutability": "nonpayable",
					"type": "function"
				},
				{
					"inputs": [
						{
							"internalType": "uint256",
							"name": "value",
							"type": "uint256"
						}
					],
					"name": "SET_CUTOFF_STEP",
					"outputs": [],
					"stateMutability": "nonpayable",
					"type": "function"
				},
				{
					"inputs": [
						{
							"internalType": "uint256",
							"name": "value",
							"type": "uint256"
						}
					],
					"name": "SET_INVEST_MIN",
					"outputs": [],
					"stateMutability": "nonpayable",
					"type": "function"
				},
				{
					"inputs": [
						{
							"internalType": "uint256",
							"name": "value",
							"type": "uint256"
						}
					],
					"name": "SET_WALLET_DEPOSIT_LIMIT",
					"outputs": [],
					"stateMutability": "nonpayable",
					"type": "function"
				},
				{
					"inputs": [
						{
							"internalType": "uint256",
							"name": "value",
							"type": "uint256"
						}
					],
					"name": "SET_WITHDRAWAL_TAX",
					"outputs": [],
					"stateMutability": "nonpayable",
					"type": "function"
				},
				{
					"inputs": [
						{
							"internalType": "uint256",
							"name": "value",
							"type": "uint256"
						}
					],
					"name": "SET_WITHDRAW_COOLDOWN",
					"outputs": [],
					"stateMutability": "nonpayable",
					"type": "function"
				},
				{
					"inputs": [],
					"name": "TAX",
					"outputs": [
						{
							"internalType": "uint256",
							"name": "",
							"type": "uint256"
						}
					],
					"stateMutability": "view",
					"type": "function"
				},
				{
					"inputs": [],
					"name": "WALLET_DEPOSIT_LIMIT",
					"outputs": [
						{
							"internalType": "uint256",
							"name": "",
							"type": "uint256"
						}
					],
					"stateMutability": "view",
					"type": "function"
				},
				{
					"inputs": [],
					"name": "WITHDRAWAL_TAX",
					"outputs": [
						{
							"internalType": "uint256",
							"name": "",
							"type": "uint256"
						}
					],
					"stateMutability": "view",
					"type": "function"
				},
				{
					"inputs": [],
					"name": "WITHDRAW_COOLDOWN",
					"outputs": [
						{
							"internalType": "uint256",
							"name": "",
							"type": "uint256"
						}
					],
					"stateMutability": "view",
					"type": "function"
				},
				{
					"inputs": [
						{
							"internalType": "address",
							"name": "Wallet",
							"type": "address"
						},
						{
							"internalType": "bool",
							"name": "isBlacklisted",
							"type": "bool"
						}
					],
					"name": "blackListWallet",
					"outputs": [],
					"stateMutability": "nonpayable",
					"type": "function"
				},
				{
					"inputs": [
						{
							"internalType": "address[]",
							"name": "Wallet",
							"type": "address[]"
						},
						{
							"internalType": "bool",
							"name": "isBlacklisted",
							"type": "bool"
						}
					],
					"name": "blackMultipleWallets",
					"outputs": [],
					"stateMutability": "nonpayable",
					"type": "function"
				},
				{
					"inputs": [],
					"name": "blacklistActive",
					"outputs": [
						{
							"internalType": "bool",
							"name": "",
							"type": "bool"
						}
					],
					"stateMutability": "view",
					"type": "function"
				},
				{
					"inputs": [
						{
							"internalType": "uint256",
							"name": "eth",
							"type": "uint256"
						},
						{
							"internalType": "uint256",
							"name": "contractBalance",
							"type": "uint256"
						}
					],
					"name": "calculateEggBuy",
					"outputs": [
						{
							"internalType": "uint256",
							"name": "",
							"type": "uint256"
						}
					],
					"stateMutability": "view",
					"type": "function"
				},
				{
					"inputs": [
						{
							"internalType": "uint256",
							"name": "eth",
							"type": "uint256"
						}
					],
					"name": "calculateEggBuySimple",
					"outputs": [
						{
							"internalType": "uint256",
							"name": "",
							"type": "uint256"
						}
					],
					"stateMutability": "view",
					"type": "function"
				},
				{
					"inputs": [
						{
							"internalType": "uint256",
							"name": "eggs",
							"type": "uint256"
						}
					],
					"name": "calculateEggSell",
					"outputs": [
						{
							"internalType": "uint256",
							"name": "",
							"type": "uint256"
						}
					],
					"stateMutability": "view",
					"type": "function"
				},
				{
					"inputs": [
						{
							"internalType": "uint256",
							"name": "eggs",
							"type": "uint256"
						},
						{
							"internalType": "uint256",
							"name": "amount",
							"type": "uint256"
						}
					],
					"name": "calculateEggSellForYield",
					"outputs": [
						{
							"internalType": "uint256",
							"name": "",
							"type": "uint256"
						}
					],
					"stateMutability": "view",
					"type": "function"
				},
				{
					"inputs": [
						{
							"internalType": "uint256",
							"name": "rt",
							"type": "uint256"
						},
						{
							"internalType": "uint256",
							"name": "rs",
							"type": "uint256"
						},
						{
							"internalType": "uint256",
							"name": "bs",
							"type": "uint256"
						}
					],
					"name": "calculateTrade",
					"outputs": [
						{
							"internalType": "uint256",
							"name": "",
							"type": "uint256"
						}
					],
					"stateMutability": "view",
					"type": "function"
				},
				{
					"inputs": [
						{
							"internalType": "address",
							"name": "Wallet",
							"type": "address"
						}
					],
					"name": "checkIfBlacklisted",
					"outputs": [
						{
							"internalType": "bool",
							"name": "blacklisted",
							"type": "bool"
						}
					],
					"stateMutability": "view",
					"type": "function"
				},
				{
					"inputs": [],
					"name": "contractStarted",
					"outputs": [
						{
							"internalType": "bool",
							"name": "",
							"type": "bool"
						}
					],
					"stateMutability": "view",
					"type": "function"
				},
				{
					"inputs": [],
					"name": "dev1",
					"outputs": [
						{
							"internalType": "address payable",
							"name": "",
							"type": "address"
						}
					],
					"stateMutability": "view",
					"type": "function"
				},
				{
					"inputs": [],
					"name": "dev2",
					"outputs": [
						{
							"internalType": "address payable",
							"name": "",
							"type": "address"
						}
					],
					"stateMutability": "view",
					"type": "function"
				},
				{
					"inputs": [],
					"name": "dev3",
					"outputs": [
						{
							"internalType": "address payable",
							"name": "",
							"type": "address"
						}
					],
					"stateMutability": "view",
					"type": "function"
				},
				{
					"inputs": [],
					"name": "fundContract",
					"outputs": [],
					"stateMutability": "payable",
					"type": "function"
				},
				{
					"inputs": [
						{
							"internalType": "address",
							"name": "_adr",
							"type": "address"
						}
					],
					"name": "getAvailableEarnings",
					"outputs": [
						{
							"internalType": "uint256",
							"name": "",
							"type": "uint256"
						}
					],
					"stateMutability": "view",
					"type": "function"
				},
				{
					"inputs": [],
					"name": "getBalance",
					"outputs": [
						{
							"internalType": "uint256",
							"name": "",
							"type": "uint256"
						}
					],
					"stateMutability": "view",
					"type": "function"
				},
				{
					"inputs": [
						{
							"internalType": "address",
							"name": "_adr",
							"type": "address"
						},
						{
							"internalType": "uint256",
							"name": "amount",
							"type": "uint256"
						}
					],
					"name": "getDailyCompoundBonus",
					"outputs": [
						{
							"internalType": "uint256",
							"name": "",
							"type": "uint256"
						}
					],
					"stateMutability": "view",
					"type": "function"
				},
				{
					"inputs": [
						{
							"internalType": "address",
							"name": "adr",
							"type": "address"
						}
					],
					"name": "getEggsSinceLastHatch",
					"outputs": [
						{
							"internalType": "uint256",
							"name": "",
							"type": "uint256"
						}
					],
					"stateMutability": "view",
					"type": "function"
				},
				{
					"inputs": [
						{
							"internalType": "uint256",
							"name": "amount",
							"type": "uint256"
						}
					],
					"name": "getEggsYield",
					"outputs": [
						{
							"internalType": "uint256",
							"name": "",
							"type": "uint256"
						},
						{
							"internalType": "uint256",
							"name": "",
							"type": "uint256"
						}
					],
					"stateMutability": "view",
					"type": "function"
				},
				{
					"inputs": [],
					"name": "getMyEggs",
					"outputs": [
						{
							"internalType": "uint256",
							"name": "",
							"type": "uint256"
						}
					],
					"stateMutability": "view",
					"type": "function"
				},
				{
					"inputs": [],
					"name": "getMyMiners",
					"outputs": [
						{
							"internalType": "uint256",
							"name": "",
							"type": "uint256"
						}
					],
					"stateMutability": "view",
					"type": "function"
				},
				{
					"inputs": [],
					"name": "getSiteInfo",
					"outputs": [
						{
							"internalType": "uint256",
							"name": "_totalStaked",
							"type": "uint256"
						},
						{
							"internalType": "uint256",
							"name": "_totalDeposits",
							"type": "uint256"
						},
						{
							"internalType": "uint256",
							"name": "_totalCompound",
							"type": "uint256"
						},
						{
							"internalType": "uint256",
							"name": "_totalRefBonus",
							"type": "uint256"
						}
					],
					"stateMutability": "view",
					"type": "function"
				},
				{
					"inputs": [],
					"name": "getTimeStamp",
					"outputs": [
						{
							"internalType": "uint256",
							"name": "",
							"type": "uint256"
						}
					],
					"stateMutability": "view",
					"type": "function"
				},
				{
					"inputs": [
						{
							"internalType": "address",
							"name": "_adr",
							"type": "address"
						}
					],
					"name": "getUserInfo",
					"outputs": [
						{
							"internalType": "uint256",
							"name": "_initialDeposit",
							"type": "uint256"
						},
						{
							"internalType": "uint256",
							"name": "_userDeposit",
							"type": "uint256"
						},
						{
							"internalType": "uint256",
							"name": "_miners",
							"type": "uint256"
						},
						{
							"internalType": "uint256",
							"name": "_claimedEggs",
							"type": "uint256"
						},
						{
							"internalType": "uint256",
							"name": "_lastHatch",
							"type": "uint256"
						},
						{
							"internalType": "address",
							"name": "_referrer",
							"type": "address"
						},
						{
							"internalType": "uint256",
							"name": "_referrals",
							"type": "uint256"
						},
						{
							"internalType": "uint256",
							"name": "_totalWithdrawn",
							"type": "uint256"
						},
						{
							"internalType": "uint256",
							"name": "_referralEggRewards",
							"type": "uint256"
						},
						{
							"internalType": "uint256",
							"name": "_dailyCompoundBonus",
							"type": "uint256"
						},
						{
							"internalType": "uint256",
							"name": "_farmerCompoundCount",
							"type": "uint256"
						},
						{
							"internalType": "uint256",
							"name": "_lastWithdrawTime",
							"type": "uint256"
						}
					],
					"stateMutability": "view",
					"type": "function"
				},
				{
					"inputs": [
						{
							"internalType": "address",
							"name": "ref",
							"type": "address"
						}
					],
					"name": "hireFarmers",
					"outputs": [],
					"stateMutability": "payable",
					"type": "function"
				},
				{
					"inputs": [
						{
							"internalType": "bool",
							"name": "isCompound",
							"type": "bool"
						}
					],
					"name": "hireMoreFarmers",
					"outputs": [],
					"stateMutability": "nonpayable",
					"type": "function"
				},
				{
					"inputs": [],
					"name": "marketEggs",
					"outputs": [
						{
							"internalType": "uint256",
							"name": "",
							"type": "uint256"
						}
					],
					"stateMutability": "view",
					"type": "function"
				},
				{
					"inputs": [],
					"name": "mkt",
					"outputs": [
						{
							"internalType": "address payable",
							"name": "",
							"type": "address"
						}
					],
					"stateMutability": "view",
					"type": "function"
				},
				{
					"inputs": [],
					"name": "owner",
					"outputs": [
						{
							"internalType": "address",
							"name": "",
							"type": "address"
						}
					],
					"stateMutability": "view",
					"type": "function"
				},
				{
					"inputs": [],
					"name": "prtnr1",
					"outputs": [
						{
							"internalType": "address payable",
							"name": "",
							"type": "address"
						}
					],
					"stateMutability": "view",
					"type": "function"
				},
				{
					"inputs": [],
					"name": "prtnr2",
					"outputs": [
						{
							"internalType": "address payable",
							"name": "",
							"type": "address"
						}
					],
					"stateMutability": "view",
					"type": "function"
				},
				{
					"inputs": [],
					"name": "sellCrops",
					"outputs": [],
					"stateMutability": "nonpayable",
					"type": "function"
				},
				{
					"inputs": [
						{
							"internalType": "bool",
							"name": "isActive",
							"type": "bool"
						}
					],
					"name": "setblacklistActive",
					"outputs": [],
					"stateMutability": "nonpayable",
					"type": "function"
				},
				{
					"inputs": [
						{
							"internalType": "address",
							"name": "addr",
							"type": "address"
						}
					],
					"name": "startFarm",
					"outputs": [],
					"stateMutability": "payable",
					"type": "function"
				},
				{
					"inputs": [],
					"name": "totalCompound",
					"outputs": [
						{
							"internalType": "uint256",
							"name": "",
							"type": "uint256"
						}
					],
					"stateMutability": "view",
					"type": "function"
				},
				{
					"inputs": [],
					"name": "totalDeposits",
					"outputs": [
						{
							"internalType": "uint256",
							"name": "",
							"type": "uint256"
						}
					],
					"stateMutability": "view",
					"type": "function"
				},
				{
					"inputs": [],
					"name": "totalRefBonus",
					"outputs": [
						{
							"internalType": "uint256",
							"name": "",
							"type": "uint256"
						}
					],
					"stateMutability": "view",
					"type": "function"
				},
				{
					"inputs": [],
					"name": "totalStaked",
					"outputs": [
						{
							"internalType": "uint256",
							"name": "",
							"type": "uint256"
						}
					],
					"stateMutability": "view",
					"type": "function"
				},
				{
					"inputs": [],
					"name": "totalWithdrawn",
					"outputs": [
						{
							"internalType": "uint256",
							"name": "",
							"type": "uint256"
						}
					],
					"stateMutability": "view",
					"type": "function"
				},
				{
					"inputs": [
						{
							"internalType": "address",
							"name": "",
							"type": "address"
						}
					],
					"name": "users",
					"outputs": [
						{
							"internalType": "uint256",
							"name": "initialDeposit",
							"type": "uint256"
						},
						{
							"internalType": "uint256",
							"name": "userDeposit",
							"type": "uint256"
						},
						{
							"internalType": "uint256",
							"name": "miners",
							"type": "uint256"
						},
						{
							"internalType": "uint256",
							"name": "claimedEggs",
							"type": "uint256"
						},
						{
							"internalType": "uint256",
							"name": "lastHatch",
							"type": "uint256"
						},
						{
							"internalType": "address",
							"name": "referrer",
							"type": "address"
						},
						{
							"internalType": "uint256",
							"name": "referralsCount",
							"type": "uint256"
						},
						{
							"internalType": "uint256",
							"name": "referralEggRewards",
							"type": "uint256"
						},
						{
							"internalType": "uint256",
							"name": "totalWithdrawn",
							"type": "uint256"
						},
						{
							"internalType": "uint256",
							"name": "dailyCompoundBonus",
							"type": "uint256"
						},
						{
							"internalType": "uint256",
							"name": "farmerCompoundCount",
							"type": "uint256"
						},
						{
							"internalType": "uint256",
							"name": "lastWithdrawTime",
							"type": "uint256"
						}
					],
					"stateMutability": "view",
					"type": "function"
				}
			],
			"devdoc": {
				"kind": "dev",
				"methods": {},
				"version": 1
			},
			"evm": {
				"assembly": "    /* \"contracts/cropsFarmer.sol\":56:17911  contract BNB_V3 {... */\n  mstore(0x40, 0x80)\n    /* \"contracts/cropsFarmer.sol\":177:184  1440000 */\n  0x15f900\n    /* \"contracts/cropsFarmer.sol\":139:184  uint256 public EGGS_TO_HIRE_1MINERS = 1440000 */\n  0x00\n  sstore\n    /* \"contracts/cropsFarmer.sol\":216:218  70 */\n  0x46\n    /* \"contracts/cropsFarmer.sol\":190:218  uint256 public REFERRAL = 70 */\n  0x01\n  sstore\n    /* \"contracts/cropsFarmer.sol\":258:262  1000 */\n  0x03e8\n    /* \"contracts/cropsFarmer.sol\":224:262  uint256 public PERCENTS_DIVIDER = 1000 */\n  0x02\n  sstore\n    /* \"contracts/cropsFarmer.sol\":289:290  9 */\n  0x09\n    /* \"contracts/cropsFarmer.sol\":268:290  uint256 public TAX = 9 */\n  0x03\n  sstore\n    /* \"contracts/cropsFarmer.sol\":317:319  12 */\n  0x0c\n    /* \"contracts/cropsFarmer.sol\":296:319  uint256 public MKT = 12 */\n  0x04\n  sstore\n    /* \"contracts/cropsFarmer.sol\":362:363  2 */\n  0x02\n    /* \"contracts/cropsFarmer.sol\":325:363  uint256 public MARKET_EGGS_DIVISOR = 2 */\n  0x05\n  sstore\n    /* \"contracts/cropsFarmer.sol\":404:412  1 * 1e17 */\n  0x016345785d8a0000\n    /* \"contracts/cropsFarmer.sol\":370:412  uint256 public MIN_INVEST_LIMIT = 1 * 1e17 */\n  0x06\n  sstore\n    /* \"contracts/cropsFarmer.sol\":473:482  25 * 1e18 */\n  0x015af1d78b58c40000\n    /* \"contracts/cropsFarmer.sol\":435:482  uint256 public WALLET_DEPOSIT_LIMIT = 25 * 1e18 */\n  0x07\n  sstore\n    /* \"contracts/cropsFarmer.sol\":534:536  20 */\n  0x14\n    /* \"contracts/cropsFarmer.sol\":502:536  uint256 public COMPOUND_BONUS = 20 */\n  0x08\n  sstore\n    /* \"contracts/cropsFarmer.sol\":581:583  10 */\n  0x0a\n    /* \"contracts/cropsFarmer.sol\":539:583  uint256 public COMPOUND_BONUS_MAX_TIMES = 10 */\n  0x09\n  sstore\n    /* \"contracts/cropsFarmer.sol\":620:632  12 * 60 * 60 */\n  0xa8c0\n    /* \"contracts/cropsFarmer.sol\":589:632  uint256 public COMPOUND_STEP = 12 * 60 * 60 */\n  0x0a\n  sstore\n    /* \"contracts/cropsFarmer.sol\":671:674  350 */\n  0x015e\n    /* \"contracts/cropsFarmer.sol\":639:674  uint256 public WITHDRAWAL_TAX = 350 */\n  0x0b\n  sstore\n    /* \"contracts/cropsFarmer.sol\":733:735  10 */\n  0x0a\n    /* \"contracts/cropsFarmer.sol\":685:735  uint256 public COMPOUND_FOR_NO_TAX_WITHDRAWAL = 10 */\n  0x0c\n  sstore\n    /* \"contracts/cropsFarmer.sol\":957:962  10000 */\n  0x2710\n    /* \"contracts/cropsFarmer.sol\":943:962  uint256 PSN = 10000 */\n  0x13\n  sstore\n    /* \"contracts/cropsFarmer.sol\":983:987  5000 */\n  0x1388\n    /* \"contracts/cropsFarmer.sol\":968:987  uint256 PSNH = 5000 */\n  0x14\n  sstore\n    /* \"contracts/cropsFarmer.sol\":1056:1060  true */\n  0x01\n    /* \"contracts/cropsFarmer.sol\":1026:1060  bool public blacklistActive = true */\n  0x15\n  exp(0x0100, 0x01)\n  dup2\n  sload\n  dup2\n  0xff\n  mul\n  not\n  and\n  swap1\n  dup4\n  iszero\n  iszero\n  mul\n  or\n  swap1\n  sstore\n  pop\n    /* \"contracts/cropsFarmer.sol\":1142:1154  48 * 60 * 60 */\n  0x02a300\n    /* \"contracts/cropsFarmer.sol\":1113:1154  uint256 public CUTOFF_STEP = 48 * 60 * 60 */\n  0x17\n  sstore\n    /* \"contracts/cropsFarmer.sol\":1192:1203  4 * 60 * 60 */\n  0x3840\n    /* \"contracts/cropsFarmer.sol\":1157:1203  uint256 public WITHDRAW_COOLDOWN = 4 * 60 * 60 */\n  0x18\n  sstore\n    /* \"contracts/cropsFarmer.sol\":1960:2435  constructor(address payable _dev1, address payable _dev2, address payable _dev3, ... */\n  callvalue\n  dup1\n  iszero\n  tag_1\n  jumpi\n  0x00\n  dup1\n  revert\ntag_1:\n  pop\n  mload(0x40)\n  sub(codesize, bytecodeSize)\n  dup1\n  bytecodeSize\n  dup4\n  codecopy\n  dup2\n  dup2\n  add\n  0x40\n  mstore\n  dup2\n  add\n  swap1\n  tag_2\n  swap2\n  swap1\n  tag_3\n  jump\t// in\ntag_2:\n    /* \"contracts/cropsFarmer.sol\":2131:2148  isContract(_dev1) */\n  tag_6\n    /* \"contracts/cropsFarmer.sol\":2142:2147  _dev1 */\n  dup7\n    /* \"contracts/cropsFarmer.sol\":2131:2141  isContract */\n  shl(0x20, tag_7)\n    /* \"contracts/cropsFarmer.sol\":2131:2148  isContract(_dev1) */\n  0x20\n  shr\n  jump\t// in\ntag_6:\n    /* \"contracts/cropsFarmer.sol\":2130:2148  !isContract(_dev1) */\n  iszero\n    /* \"contracts/cropsFarmer.sol\":2130:2170  !isContract(_dev1) && !isContract(_dev2) */\n  dup1\n  iszero\n  tag_8\n  jumpi\n  pop\n    /* \"contracts/cropsFarmer.sol\":2153:2170  isContract(_dev2) */\n  tag_9\n    /* \"contracts/cropsFarmer.sol\":2164:2169  _dev2 */\n  dup6\n    /* \"contracts/cropsFarmer.sol\":2153:2163  isContract */\n  shl(0x20, tag_7)\n    /* \"contracts/cropsFarmer.sol\":2153:2170  isContract(_dev2) */\n  0x20\n  shr\n  jump\t// in\ntag_9:\n    /* \"contracts/cropsFarmer.sol\":2152:2170  !isContract(_dev2) */\n  iszero\n    /* \"contracts/cropsFarmer.sol\":2130:2170  !isContract(_dev1) && !isContract(_dev2) */\ntag_8:\n    /* \"contracts/cropsFarmer.sol\":2130:2192  !isContract(_dev1) && !isContract(_dev2) && !isContract(_dev3) */\n  dup1\n  iszero\n  tag_10\n  jumpi\n  pop\n    /* \"contracts/cropsFarmer.sol\":2175:2192  isContract(_dev3) */\n  tag_11\n    /* \"contracts/cropsFarmer.sol\":2186:2191  _dev3 */\n  dup5\n    /* \"contracts/cropsFarmer.sol\":2175:2185  isContract */\n  shl(0x20, tag_7)\n    /* \"contracts/cropsFarmer.sol\":2175:2192  isContract(_dev3) */\n  0x20\n  shr\n  jump\t// in\ntag_11:\n    /* \"contracts/cropsFarmer.sol\":2174:2192  !isContract(_dev3) */\n  iszero\n    /* \"contracts/cropsFarmer.sol\":2130:2192  !isContract(_dev1) && !isContract(_dev2) && !isContract(_dev3) */\ntag_10:\n    /* \"contracts/cropsFarmer.sol\":2130:2216  !isContract(_dev1) && !isContract(_dev2) && !isContract(_dev3) && !isContract(_prtnr1) */\n  dup1\n  iszero\n  tag_12\n  jumpi\n  pop\n    /* \"contracts/cropsFarmer.sol\":2197:2216  isContract(_prtnr1) */\n  tag_13\n    /* \"contracts/cropsFarmer.sol\":2208:2215  _prtnr1 */\n  dup4\n    /* \"contracts/cropsFarmer.sol\":2197:2207  isContract */\n  shl(0x20, tag_7)\n    /* \"contracts/cropsFarmer.sol\":2197:2216  isContract(_prtnr1) */\n  0x20\n  shr\n  jump\t// in\ntag_13:\n    /* \"contracts/cropsFarmer.sol\":2196:2216  !isContract(_prtnr1) */\n  iszero\n    /* \"contracts/cropsFarmer.sol\":2130:2216  !isContract(_dev1) && !isContract(_dev2) && !isContract(_dev3) && !isContract(_prtnr1) */\ntag_12:\n    /* \"contracts/cropsFarmer.sol\":2130:2240  !isContract(_dev1) && !isContract(_dev2) && !isContract(_dev3) && !isContract(_prtnr1) && !isContract(_prtnr2) */\n  dup1\n  iszero\n  tag_14\n  jumpi\n  pop\n    /* \"contracts/cropsFarmer.sol\":2221:2240  isContract(_prtnr2) */\n  tag_15\n    /* \"contracts/cropsFarmer.sol\":2232:2239  _prtnr2 */\n  dup3\n    /* \"contracts/cropsFarmer.sol\":2221:2231  isContract */\n  shl(0x20, tag_7)\n    /* \"contracts/cropsFarmer.sol\":2221:2240  isContract(_prtnr2) */\n  0x20\n  shr\n  jump\t// in\ntag_15:\n    /* \"contracts/cropsFarmer.sol\":2220:2240  !isContract(_prtnr2) */\n  iszero\n    /* \"contracts/cropsFarmer.sol\":2130:2240  !isContract(_dev1) && !isContract(_dev2) && !isContract(_dev3) && !isContract(_prtnr1) && !isContract(_prtnr2) */\ntag_14:\n    /* \"contracts/cropsFarmer.sol\":2130:2261  !isContract(_dev1) && !isContract(_dev2) && !isContract(_dev3) && !isContract(_prtnr1) && !isContract(_prtnr2) && !isContract(_mkt) */\n  dup1\n  iszero\n  tag_16\n  jumpi\n  pop\n    /* \"contracts/cropsFarmer.sol\":2245:2261  isContract(_mkt) */\n  tag_17\n    /* \"contracts/cropsFarmer.sol\":2256:2260  _mkt */\n  dup2\n    /* \"contracts/cropsFarmer.sol\":2245:2255  isContract */\n  shl(0x20, tag_7)\n    /* \"contracts/cropsFarmer.sol\":2245:2261  isContract(_mkt) */\n  0x20\n  shr\n  jump\t// in\ntag_17:\n    /* \"contracts/cropsFarmer.sol\":2244:2261  !isContract(_mkt) */\n  iszero\n    /* \"contracts/cropsFarmer.sol\":2130:2261  !isContract(_dev1) && !isContract(_dev2) && !isContract(_dev3) && !isContract(_prtnr1) && !isContract(_prtnr2) && !isContract(_mkt) */\ntag_16:\n    /* \"contracts/cropsFarmer.sol\":2122:2262  require(!isContract(_dev1) && !isContract(_dev2) && !isContract(_dev3) && !isContract(_prtnr1) && !isContract(_prtnr2) && !isContract(_mkt)) */\n  tag_18\n  jumpi\n  0x00\n  dup1\n  revert\ntag_18:\n    /* \"contracts/cropsFarmer.sol\":2280:2290  msg.sender */\n  caller\n    /* \"contracts/cropsFarmer.sol\":2272:2277  owner */\n  0x19\n  0x00\n    /* \"contracts/cropsFarmer.sol\":2272:2290  owner = msg.sender */\n  0x0100\n  exp\n  dup2\n  sload\n  dup2\n  0xffffffffffffffffffffffffffffffffffffffff\n  mul\n  not\n  and\n  swap1\n  dup4\n  0xffffffffffffffffffffffffffffffffffffffff\n  and\n  mul\n  or\n  swap1\n  sstore\n  pop\n    /* \"contracts/cropsFarmer.sol\":2307:2312  _dev1 */\n  dup6\n    /* \"contracts/cropsFarmer.sol\":2300:2304  dev1 */\n  0x1a\n  0x00\n    /* \"contracts/cropsFarmer.sol\":2300:2312  dev1 = _dev1 */\n  0x0100\n  exp\n  dup2\n  sload\n  dup2\n  0xffffffffffffffffffffffffffffffffffffffff\n  mul\n  not\n  and\n  swap1\n  dup4\n  0xffffffffffffffffffffffffffffffffffffffff\n  and\n  mul\n  or\n  swap1\n  sstore\n  pop\n    /* \"contracts/cropsFarmer.sol\":2329:2334  _dev2 */\n  dup5\n    /* \"contracts/cropsFarmer.sol\":2322:2326  dev2 */\n  0x1b\n  0x00\n    /* \"contracts/cropsFarmer.sol\":2322:2334  dev2 = _dev2 */\n  0x0100\n  exp\n  dup2\n  sload\n  dup2\n  0xffffffffffffffffffffffffffffffffffffffff\n  mul\n  not\n  and\n  swap1\n  dup4\n  0xffffffffffffffffffffffffffffffffffffffff\n  and\n  mul\n  or\n  swap1\n  sstore\n  pop\n    /* \"contracts/cropsFarmer.sol\":2351:2356  _dev3 */\n  dup4\n    /* \"contracts/cropsFarmer.sol\":2344:2348  dev3 */\n  0x1c\n  0x00\n    /* \"contracts/cropsFarmer.sol\":2344:2356  dev3 = _dev3 */\n  0x0100\n  exp\n  dup2\n  sload\n  dup2\n  0xffffffffffffffffffffffffffffffffffffffff\n  mul\n  not\n  and\n  swap1\n  dup4\n  0xffffffffffffffffffffffffffffffffffffffff\n  and\n  mul\n  or\n  swap1\n  sstore\n  pop\n    /* \"contracts/cropsFarmer.sol\":2375:2382  _prtnr1 */\n  dup3\n    /* \"contracts/cropsFarmer.sol\":2366:2372  prtnr1 */\n  0x1d\n  0x00\n    /* \"contracts/cropsFarmer.sol\":2366:2382  prtnr1 = _prtnr1 */\n  0x0100\n  exp\n  dup2\n  sload\n  dup2\n  0xffffffffffffffffffffffffffffffffffffffff\n  mul\n  not\n  and\n  swap1\n  dup4\n  0xffffffffffffffffffffffffffffffffffffffff\n  and\n  mul\n  or\n  swap1\n  sstore\n  pop\n    /* \"contracts/cropsFarmer.sol\":2401:2408  _prtnr2 */\n  dup2\n    /* \"contracts/cropsFarmer.sol\":2392:2398  prtnr2 */\n  0x1e\n  0x00\n    /* \"contracts/cropsFarmer.sol\":2392:2408  prtnr2 = _prtnr2 */\n  0x0100\n  exp\n  dup2\n  sload\n  dup2\n  0xffffffffffffffffffffffffffffffffffffffff\n  mul\n  not\n  and\n  swap1\n  dup4\n  0xffffffffffffffffffffffffffffffffffffffff\n  and\n  mul\n  or\n  swap1\n  sstore\n  pop\n    /* \"contracts/cropsFarmer.sol\":2424:2428  _mkt */\n  dup1\n    /* \"contracts/cropsFarmer.sol\":2418:2421  mkt */\n  0x1f\n  0x00\n    /* \"contracts/cropsFarmer.sol\":2418:2428  mkt = _mkt */\n  0x0100\n  exp\n  dup2\n  sload\n  dup2\n  0xffffffffffffffffffffffffffffffffffffffff\n  mul\n  not\n  and\n  swap1\n  dup4\n  0xffffffffffffffffffffffffffffffffffffffff\n  and\n  mul\n  or\n  swap1\n  sstore\n  pop\n    /* \"contracts/cropsFarmer.sol\":1960:2435  constructor(address payable _dev1, address payable _dev2, address payable _dev3, ... */\n  pop\n  pop\n  pop\n  pop\n  pop\n  pop\n    /* \"contracts/cropsFarmer.sol\":56:17911  contract BNB_V3 {... */\n  jump(tag_19)\n    /* \"contracts/cropsFarmer.sol\":2438:2599  function isContract(address addr) internal view returns (bool) {... */\ntag_7:\n    /* \"contracts/cropsFarmer.sol\":2495:2499  bool */\n  0x00\n    /* \"contracts/cropsFarmer.sol\":2511:2520  uint size */\n  dup1\n    /* \"contracts/cropsFarmer.sol\":2561:2565  addr */\n  dup3\n    /* \"contracts/cropsFarmer.sol\":2549:2566  extcodesize(addr) */\n  extcodesize\n    /* \"contracts/cropsFarmer.sol\":2541:2566  size := extcodesize(addr) */\n  swap1\n  pop\n    /* \"contracts/cropsFarmer.sol\":2591:2592  0 */\n  0x00\n    /* \"contracts/cropsFarmer.sol\":2584:2588  size */\n  dup2\n    /* \"contracts/cropsFarmer.sol\":2584:2592  size > 0 */\n  gt\n    /* \"contracts/cropsFarmer.sol\":2577:2592  return size > 0 */\n  swap2\n  pop\n  pop\n    /* \"contracts/cropsFarmer.sol\":2438:2599  function isContract(address addr) internal view returns (bool) {... */\n  swap2\n  swap1\n  pop\n  jump\t// out\n    /* \"#utility.yul\":88:205   */\ntag_22:\n    /* \"#utility.yul\":197:198   */\n  0x00\n    /* \"#utility.yul\":194:195   */\n  dup1\n    /* \"#utility.yul\":187:199   */\n  revert\n    /* \"#utility.yul\":334:460   */\ntag_24:\n    /* \"#utility.yul\":371:378   */\n  0x00\n    /* \"#utility.yul\":411:453   */\n  0xffffffffffffffffffffffffffffffffffffffff\n    /* \"#utility.yul\":404:409   */\n  dup3\n    /* \"#utility.yul\":400:454   */\n  and\n    /* \"#utility.yul\":389:454   */\n  swap1\n  pop\n    /* \"#utility.yul\":334:460   */\n  swap2\n  swap1\n  pop\n  jump\t// out\n    /* \"#utility.yul\":466:570   */\ntag_25:\n    /* \"#utility.yul\":511:518   */\n  0x00\n    /* \"#utility.yul\":540:564   */\n  tag_34\n    /* \"#utility.yul\":558:563   */\n  dup3\n    /* \"#utility.yul\":540:564   */\n  tag_24\n  jump\t// in\ntag_34:\n    /* \"#utility.yul\":529:564   */\n  swap1\n  pop\n    /* \"#utility.yul\":466:570   */\n  swap2\n  swap1\n  pop\n  jump\t// out\n    /* \"#utility.yul\":576:714   */\ntag_26:\n    /* \"#utility.yul\":657:689   */\n  tag_36\n    /* \"#utility.yul\":683:688   */\n  dup2\n    /* \"#utility.yul\":657:689   */\n  tag_25\n  jump\t// in\ntag_36:\n    /* \"#utility.yul\":650:655   */\n  dup2\n    /* \"#utility.yul\":647:690   */\n  eq\n    /* \"#utility.yul\":637:708   */\n  tag_37\n  jumpi\n    /* \"#utility.yul\":704:705   */\n  0x00\n    /* \"#utility.yul\":701:702   */\n  dup1\n    /* \"#utility.yul\":694:706   */\n  revert\n    /* \"#utility.yul\":637:708   */\ntag_37:\n    /* \"#utility.yul\":576:714   */\n  pop\n  jump\t// out\n    /* \"#utility.yul\":720:879   */\ntag_27:\n    /* \"#utility.yul\":785:790   */\n  0x00\n    /* \"#utility.yul\":816:822   */\n  dup2\n    /* \"#utility.yul\":810:823   */\n  mload\n    /* \"#utility.yul\":801:823   */\n  swap1\n  pop\n    /* \"#utility.yul\":832:873   */\n  tag_39\n    /* \"#utility.yul\":867:872   */\n  dup2\n    /* \"#utility.yul\":832:873   */\n  tag_26\n  jump\t// in\ntag_39:\n    /* \"#utility.yul\":720:879   */\n  swap3\n  swap2\n  pop\n  pop\n  jump\t// out\n    /* \"#utility.yul\":885:2115   */\ntag_3:\n    /* \"#utility.yul\":1048:1054   */\n  0x00\n    /* \"#utility.yul\":1056:1062   */\n  dup1\n    /* \"#utility.yul\":1064:1070   */\n  0x00\n    /* \"#utility.yul\":1072:1078   */\n  dup1\n    /* \"#utility.yul\":1080:1086   */\n  0x00\n    /* \"#utility.yul\":1088:1094   */\n  dup1\n    /* \"#utility.yul\":1137:1140   */\n  0xc0\n    /* \"#utility.yul\":1125:1134   */\n  dup8\n    /* \"#utility.yul\":1116:1123   */\n  dup10\n    /* \"#utility.yul\":1112:1135   */\n  sub\n    /* \"#utility.yul\":1108:1141   */\n  slt\n    /* \"#utility.yul\":1105:1225   */\n  iszero\n  tag_41\n  jumpi\n    /* \"#utility.yul\":1144:1223   */\n  tag_42\n  tag_22\n  jump\t// in\ntag_42:\n    /* \"#utility.yul\":1105:1225   */\ntag_41:\n    /* \"#utility.yul\":1264:1265   */\n  0x00\n    /* \"#utility.yul\":1289:1361   */\n  tag_43\n    /* \"#utility.yul\":1353:1360   */\n  dup10\n    /* \"#utility.yul\":1344:1350   */\n  dup3\n    /* \"#utility.yul\":1333:1342   */\n  dup11\n    /* \"#utility.yul\":1329:1351   */\n  add\n    /* \"#utility.yul\":1289:1361   */\n  tag_27\n  jump\t// in\ntag_43:\n    /* \"#utility.yul\":1279:1361   */\n  swap7\n  pop\n    /* \"#utility.yul\":1235:1371   */\n  pop\n    /* \"#utility.yul\":1410:1412   */\n  0x20\n    /* \"#utility.yul\":1436:1508   */\n  tag_44\n    /* \"#utility.yul\":1500:1507   */\n  dup10\n    /* \"#utility.yul\":1491:1497   */\n  dup3\n    /* \"#utility.yul\":1480:1489   */\n  dup11\n    /* \"#utility.yul\":1476:1498   */\n  add\n    /* \"#utility.yul\":1436:1508   */\n  tag_27\n  jump\t// in\ntag_44:\n    /* \"#utility.yul\":1426:1508   */\n  swap6\n  pop\n    /* \"#utility.yul\":1381:1518   */\n  pop\n    /* \"#utility.yul\":1557:1559   */\n  0x40\n    /* \"#utility.yul\":1583:1655   */\n  tag_45\n    /* \"#utility.yul\":1647:1654   */\n  dup10\n    /* \"#utility.yul\":1638:1644   */\n  dup3\n    /* \"#utility.yul\":1627:1636   */\n  dup11\n    /* \"#utility.yul\":1623:1645   */\n  add\n    /* \"#utility.yul\":1583:1655   */\n  tag_27\n  jump\t// in\ntag_45:\n    /* \"#utility.yul\":1573:1655   */\n  swap5\n  pop\n    /* \"#utility.yul\":1528:1665   */\n  pop\n    /* \"#utility.yul\":1704:1706   */\n  0x60\n    /* \"#utility.yul\":1730:1802   */\n  tag_46\n    /* \"#utility.yul\":1794:1801   */\n  dup10\n    /* \"#utility.yul\":1785:1791   */\n  dup3\n    /* \"#utility.yul\":1774:1783   */\n  dup11\n    /* \"#utility.yul\":1770:1792   */\n  add\n    /* \"#utility.yul\":1730:1802   */\n  tag_27\n  jump\t// in\ntag_46:\n    /* \"#utility.yul\":1720:1802   */\n  swap4\n  pop\n    /* \"#utility.yul\":1675:1812   */\n  pop\n    /* \"#utility.yul\":1851:1854   */\n  0x80\n    /* \"#utility.yul\":1878:1950   */\n  tag_47\n    /* \"#utility.yul\":1942:1949   */\n  dup10\n    /* \"#utility.yul\":1933:1939   */\n  dup3\n    /* \"#utility.yul\":1922:1931   */\n  dup11\n    /* \"#utility.yul\":1918:1940   */\n  add\n    /* \"#utility.yul\":1878:1950   */\n  tag_27\n  jump\t// in\ntag_47:\n    /* \"#utility.yul\":1868:1950   */\n  swap3\n  pop\n    /* \"#utility.yul\":1822:1960   */\n  pop\n    /* \"#utility.yul\":1999:2002   */\n  0xa0\n    /* \"#utility.yul\":2026:2098   */\n  tag_48\n    /* \"#utility.yul\":2090:2097   */\n  dup10\n    /* \"#utility.yul\":2081:2087   */\n  dup3\n    /* \"#utility.yul\":2070:2079   */\n  dup11\n    /* \"#utility.yul\":2066:2088   */\n  add\n    /* \"#utility.yul\":2026:2098   */\n  tag_27\n  jump\t// in\ntag_48:\n    /* \"#utility.yul\":2016:2098   */\n  swap2\n  pop\n    /* \"#utility.yul\":1970:2108   */\n  pop\n    /* \"#utility.yul\":885:2115   */\n  swap3\n  swap6\n  pop\n  swap3\n  swap6\n  pop\n  swap3\n  swap6\n  jump\t// out\n    /* \"contracts/cropsFarmer.sol\":56:17911  contract BNB_V3 {... */\ntag_19:\n  dataSize(sub_0)\n  dup1\n  dataOffset(sub_0)\n  0x00\n  codecopy\n  0x00\n  return\nstop\n\nsub_0: assembly {\n        /* \"contracts/cropsFarmer.sol\":56:17911  contract BNB_V3 {... */\n      mstore(0x40, 0x80)\n      jumpi(tag_1, lt(calldatasize, 0x04))\n      shr(0xe0, calldataload(0x00))\n      dup1\n      0x7c8e4b4c\n      gt\n      tag_73\n      jumpi\n      dup1\n      0xbd097e21\n      gt\n      tag_74\n      jumpi\n      dup1\n      0xd7c8843b\n      gt\n      tag_75\n      jumpi\n      dup1\n      0xe6dc9558\n      gt\n      tag_76\n      jumpi\n      dup1\n      0xe6dc9558\n      eq\n      tag_68\n      jumpi\n      dup1\n      0xe7576943\n      eq\n      tag_69\n      jumpi\n      dup1\n      0xeb271268\n      eq\n      tag_70\n      jumpi\n      dup1\n      0xf6f62886\n      eq\n      tag_71\n      jumpi\n      dup1\n      0xffa4e618\n      eq\n      tag_72\n      jumpi\n      jump(tag_1)\n    tag_76:\n      dup1\n      0xd7c8843b\n      eq\n      tag_64\n      jumpi\n      dup1\n      0xd989b4b3\n      eq\n      tag_65\n      jumpi\n      dup1\n      0xda235b22\n      eq\n      tag_66\n      jumpi\n      dup1\n      0xda5d4cc5\n      eq\n      tag_67\n      jumpi\n      jump(tag_1)\n    tag_75:\n      dup1\n      0xc63568c7\n      gt\n      tag_77\n      jumpi\n      dup1\n      0xc63568c7\n      eq\n      tag_59\n      jumpi\n      dup1\n      0xc688f0fb\n      eq\n      tag_60\n      jumpi\n      dup1\n      0xcc3e9c78\n      eq\n      tag_61\n      jumpi\n      dup1\n      0xcd329fc3\n      eq\n      tag_62\n      jumpi\n      dup1\n      0xd7206d5d\n      eq\n      tag_63\n      jumpi\n      jump(tag_1)\n    tag_77:\n      dup1\n      0xbd097e21\n      eq\n      tag_55\n      jumpi\n      dup1\n      0xbdd1ca27\n      eq\n      tag_56\n      jumpi\n      dup1\n      0xbfa9f304\n      eq\n      tag_57\n      jumpi\n      dup1\n      0xc3251b40\n      eq\n      tag_58\n      jumpi\n      jump(tag_1)\n    tag_74:\n      dup1\n      0x8da5cb5b\n      gt\n      tag_78\n      jumpi\n      dup1\n      0x9b9cb69f\n      gt\n      tag_79\n      jumpi\n      dup1\n      0x9b9cb69f\n      eq\n      tag_50\n      jumpi\n      dup1\n      0x9e9300a5\n      eq\n      tag_51\n      jumpi\n      dup1\n      0xa327c45d\n      eq\n      tag_52\n      jumpi\n      dup1\n      0xa87430ba\n      eq\n      tag_53\n      jumpi\n      dup1\n      0xb6e6fcf6\n      eq\n      tag_54\n      jumpi\n      jump(tag_1)\n    tag_79:\n      dup1\n      0x8da5cb5b\n      eq\n      tag_46\n      jumpi\n      dup1\n      0x8e316327\n      eq\n      tag_47\n      jumpi\n      dup1\n      0x950d91e9\n      eq\n      tag_48\n      jumpi\n      dup1\n      0x959c95b3\n      eq\n      tag_49\n      jumpi\n      jump(tag_1)\n    tag_78:\n      dup1\n      0x7e56fde5\n      gt\n      tag_80\n      jumpi\n      dup1\n      0x7e56fde5\n      eq\n      tag_41\n      jumpi\n      dup1\n      0x7ee28e3c\n      eq\n      tag_42\n      jumpi\n      dup1\n      0x8013f3a7\n      eq\n      tag_43\n      jumpi\n      dup1\n      0x817b1cd2\n      eq\n      tag_44\n      jumpi\n      dup1\n      0x8a315efd\n      eq\n      tag_45\n      jumpi\n      jump(tag_1)\n    tag_80:\n      dup1\n      0x7c8e4b4c\n      eq\n      tag_37\n      jumpi\n      dup1\n      0x7cc5b1e6\n      eq\n      tag_38\n      jumpi\n      dup1\n      0x7d882097\n      eq\n      tag_39\n      jumpi\n      dup1\n      0x7db07c9d\n      eq\n      tag_40\n      jumpi\n      jump(tag_1)\n    tag_73:\n      dup1\n      0x3578584f\n      gt\n      tag_81\n      jumpi\n      dup1\n      0x57386225\n      gt\n      tag_82\n      jumpi\n      dup1\n      0x68f58b03\n      gt\n      tag_83\n      jumpi\n      dup1\n      0x68f58b03\n      eq\n      tag_32\n      jumpi\n      dup1\n      0x69b11dd5\n      eq\n      tag_33\n      jumpi\n      dup1\n      0x6f969d28\n      eq\n      tag_34\n      jumpi\n      dup1\n      0x752a2628\n      eq\n      tag_35\n      jumpi\n      dup1\n      0x7a62ead7\n      eq\n      tag_36\n      jumpi\n      jump(tag_1)\n    tag_83:\n      dup1\n      0x57386225\n      eq\n      tag_28\n      jumpi\n      dup1\n      0x59eec895\n      eq\n      tag_29\n      jumpi\n      dup1\n      0x6386c1c7\n      eq\n      tag_30\n      jumpi\n      dup1\n      0x64c03a5e\n      eq\n      tag_31\n      jumpi\n      jump(tag_1)\n    tag_82:\n      dup1\n      0x4b319713\n      gt\n      tag_84\n      jumpi\n      dup1\n      0x4b319713\n      eq\n      tag_23\n      jumpi\n      dup1\n      0x4ce87053\n      eq\n      tag_24\n      jumpi\n      dup1\n      0x50637dbd\n      eq\n      tag_25\n      jumpi\n      dup1\n      0x50cf1c7a\n      eq\n      tag_26\n      jumpi\n      dup1\n      0x570c2979\n      eq\n      tag_27\n      jumpi\n      jump(tag_1)\n    tag_84:\n      dup1\n      0x3578584f\n      eq\n      tag_19\n      jumpi\n      dup1\n      0x43ce7422\n      eq\n      tag_20\n      jumpi\n      dup1\n      0x45a6a6e0\n      eq\n      tag_21\n      jumpi\n      dup1\n      0x45f98c29\n      eq\n      tag_22\n      jumpi\n      jump(tag_1)\n    tag_81:\n      dup1\n      0x1a7b8d4f\n      gt\n      tag_85\n      jumpi\n      dup1\n      0x298ea310\n      gt\n      tag_86\n      jumpi\n      dup1\n      0x298ea310\n      eq\n      tag_14\n      jumpi\n      dup1\n      0x2b039d0e\n      eq\n      tag_15\n      jumpi\n      dup1\n      0x2bc82f7f\n      eq\n      tag_16\n      jumpi\n      dup1\n      0x2e9392bb\n      eq\n      tag_17\n      jumpi\n      dup1\n      0x333f57b3\n      eq\n      tag_18\n      jumpi\n      jump(tag_1)\n    tag_86:\n      dup1\n      0x1a7b8d4f\n      eq\n      tag_10\n      jumpi\n      dup1\n      0x229824c4\n      eq\n      tag_11\n      jumpi\n      dup1\n      0x2362ce89\n      eq\n      tag_12\n      jumpi\n      dup1\n      0x26fd8422\n      eq\n      tag_13\n      jumpi\n      jump(tag_1)\n    tag_85:\n      dup1\n      0x12065fe0\n      gt\n      tag_87\n      jumpi\n      dup1\n      0x12065fe0\n      eq\n      tag_6\n      jumpi\n      dup1\n      0x1848b8dc\n      eq\n      tag_7\n      jumpi\n      dup1\n      0x18c819d8\n      eq\n      tag_8\n      jumpi\n      dup1\n      0x195a7339\n      eq\n      tag_9\n      jumpi\n      jump(tag_1)\n    tag_87:\n      dup1\n      0x01c234a8\n      eq\n      tag_2\n      jumpi\n      dup1\n      0x0420c98e\n      eq\n      tag_3\n      jumpi\n      dup1\n      0x07aeb7f0\n      eq\n      tag_4\n      jumpi\n      dup1\n      0x0a76e5ed\n      eq\n      tag_5\n      jumpi\n    tag_1:\n      0x00\n      dup1\n      revert\n        /* \"contracts/cropsFarmer.sol\":224:262  uint256 public PERCENTS_DIVIDER = 1000 */\n    tag_2:\n      callvalue\n      dup1\n      iszero\n      tag_88\n      jumpi\n      0x00\n      dup1\n      revert\n    tag_88:\n      pop\n      tag_89\n      tag_90\n      jump\t// in\n    tag_89:\n      mload(0x40)\n      tag_91\n      swap2\n      swap1\n      tag_92\n      jump\t// in\n    tag_91:\n      mload(0x40)\n      dup1\n      swap2\n      sub\n      swap1\n      return\n        /* \"contracts/cropsFarmer.sol\":639:674  uint256 public WITHDRAWAL_TAX = 350 */\n    tag_3:\n      callvalue\n      dup1\n      iszero\n      tag_93\n      jumpi\n      0x00\n      dup1\n      revert\n    tag_93:\n      pop\n      tag_94\n      tag_95\n      jump\t// in\n    tag_94:\n      mload(0x40)\n      tag_96\n      swap2\n      swap1\n      tag_92\n      jump\t// in\n    tag_96:\n      mload(0x40)\n      dup1\n      swap2\n      sub\n      swap1\n      return\n        /* \"contracts/cropsFarmer.sol\":1355:1384  address payable public prtnr1 */\n    tag_4:\n      callvalue\n      dup1\n      iszero\n      tag_97\n      jumpi\n      0x00\n      dup1\n      revert\n    tag_97:\n      pop\n      tag_98\n      tag_99\n      jump\t// in\n    tag_98:\n      mload(0x40)\n      tag_100\n      swap2\n      swap1\n      tag_101\n      jump\t// in\n    tag_100:\n      mload(0x40)\n      dup1\n      swap2\n      sub\n      swap1\n      return\n        /* \"contracts/cropsFarmer.sol\":13244:13343  function getMyMiners() public view returns(uint256){... */\n    tag_5:\n      callvalue\n      dup1\n      iszero\n      tag_102\n      jumpi\n      0x00\n      dup1\n      revert\n    tag_102:\n      pop\n      tag_103\n      tag_104\n      jump\t// in\n    tag_103:\n      mload(0x40)\n      tag_105\n      swap2\n      swap1\n      tag_92\n      jump\t// in\n    tag_105:\n      mload(0x40)\n      dup1\n      swap2\n      sub\n      swap1\n      return\n        /* \"contracts/cropsFarmer.sol\":11001:11096  function getBalance() public view returns(uint256){... */\n    tag_6:\n      callvalue\n      dup1\n      iszero\n      tag_106\n      jumpi\n      0x00\n      dup1\n      revert\n    tag_106:\n      pop\n      tag_107\n      tag_108\n      jump\t// in\n    tag_107:\n      mload(0x40)\n      tag_109\n      swap2\n      swap1\n      tag_92\n      jump\t// in\n    tag_109:\n      mload(0x40)\n      dup1\n      swap2\n      sub\n      swap1\n      return\n        /* \"contracts/cropsFarmer.sol\":435:482  uint256 public WALLET_DEPOSIT_LIMIT = 25 * 1e18 */\n    tag_7:\n      callvalue\n      dup1\n      iszero\n      tag_110\n      jumpi\n      0x00\n      dup1\n      revert\n    tag_110:\n      pop\n      tag_111\n      tag_112\n      jump\t// in\n    tag_111:\n      mload(0x40)\n      tag_113\n      swap2\n      swap1\n      tag_92\n      jump\t// in\n    tag_113:\n      mload(0x40)\n      dup1\n      swap2\n      sub\n      swap1\n      return\n        /* \"contracts/cropsFarmer.sol\":3825:5079  function hireMoreFarmers(bool isCompound) public {... */\n    tag_8:\n      callvalue\n      dup1\n      iszero\n      tag_114\n      jumpi\n      0x00\n      dup1\n      revert\n    tag_114:\n      pop\n      tag_115\n      0x04\n      dup1\n      calldatasize\n      sub\n      dup2\n      add\n      swap1\n      tag_116\n      swap2\n      swap1\n      tag_117\n      jump\t// in\n    tag_116:\n      tag_118\n      jump\t// in\n    tag_115:\n      stop\n        /* \"contracts/cropsFarmer.sol\":139:184  uint256 public EGGS_TO_HIRE_1MINERS = 1440000 */\n    tag_9:\n      callvalue\n      dup1\n      iszero\n      tag_119\n      jumpi\n      0x00\n      dup1\n      revert\n    tag_119:\n      pop\n      tag_120\n      tag_121\n      jump\t// in\n    tag_120:\n      mload(0x40)\n      tag_122\n      swap2\n      swap1\n      tag_92\n      jump\t// in\n    tag_122:\n      mload(0x40)\n      dup1\n      swap2\n      sub\n      swap1\n      return\n        /* \"contracts/cropsFarmer.sol\":15639:15795  function PRC_MKT(uint256 value) external {... */\n    tag_10:\n      callvalue\n      dup1\n      iszero\n      tag_123\n      jumpi\n      0x00\n      dup1\n      revert\n    tag_123:\n      pop\n      tag_124\n      0x04\n      dup1\n      calldatasize\n      sub\n      dup2\n      add\n      swap1\n      tag_125\n      swap2\n      swap1\n      tag_126\n      jump\t// in\n    tag_125:\n      tag_127\n      jump\t// in\n    tag_124:\n      stop\n        /* \"contracts/cropsFarmer.sol\":11415:11863  function calculateTrade(uint256 rt,uint256 rs, uint256 bs) public view returns(uint256){... */\n    tag_11:\n      callvalue\n      dup1\n      iszero\n      tag_128\n      jumpi\n      0x00\n      dup1\n      revert\n    tag_128:\n      pop\n      tag_129\n      0x04\n      dup1\n      calldatasize\n      sub\n      dup2\n      add\n      swap1\n      tag_130\n      swap2\n      swap1\n      tag_131\n      jump\t// in\n    tag_130:\n      tag_132\n      jump\t// in\n    tag_129:\n      mload(0x40)\n      tag_133\n      swap2\n      swap1\n      tag_92\n      jump\t// in\n    tag_133:\n      mload(0x40)\n      dup1\n      swap2\n      sub\n      swap1\n      return\n        /* \"contracts/cropsFarmer.sol\":1322:1349  address payable public dev3 */\n    tag_12:\n      callvalue\n      dup1\n      iszero\n      tag_134\n      jumpi\n      0x00\n      dup1\n      revert\n    tag_134:\n      pop\n      tag_135\n      tag_136\n      jump\t// in\n    tag_135:\n      mload(0x40)\n      tag_137\n      swap2\n      swap1\n      tag_101\n      jump\t// in\n    tag_137:\n      mload(0x40)\n      dup1\n      swap2\n      sub\n      swap1\n      return\n        /* \"contracts/cropsFarmer.sol\":12013:12175  function calculateEggBuy(uint256 eth,uint256 contractBalance) public view returns(uint256){... */\n    tag_13:\n      callvalue\n      dup1\n      iszero\n      tag_138\n      jumpi\n      0x00\n      dup1\n      revert\n    tag_138:\n      pop\n      tag_139\n      0x04\n      dup1\n      calldatasize\n      sub\n      dup2\n      add\n      swap1\n      tag_140\n      swap2\n      swap1\n      tag_141\n      jump\t// in\n    tag_140:\n      tag_142\n      jump\t// in\n    tag_139:\n      mload(0x40)\n      tag_143\n      swap2\n      swap1\n      tag_92\n      jump\t// in\n    tag_143:\n      mload(0x40)\n      dup1\n      swap2\n      sub\n      swap1\n      return\n        /* \"contracts/cropsFarmer.sol\":15477:15633  function PRC_TAX(uint256 value) external {... */\n    tag_14:\n      callvalue\n      dup1\n      iszero\n      tag_144\n      jumpi\n      0x00\n      dup1\n      revert\n    tag_144:\n      pop\n      tag_145\n      0x04\n      dup1\n      calldatasize\n      sub\n      dup2\n      add\n      swap1\n      tag_146\n      swap2\n      swap1\n      tag_126\n      jump\t// in\n    tag_146:\n      tag_147\n      jump\t// in\n    tag_145:\n      stop\n        /* \"contracts/cropsFarmer.sol\":14017:14154  function CHANGE_OWNERSHIP(address value) external {... */\n    tag_15:\n      callvalue\n      dup1\n      iszero\n      tag_148\n      jumpi\n      0x00\n      dup1\n      revert\n    tag_148:\n      pop\n      tag_149\n      0x04\n      dup1\n      calldatasize\n      sub\n      dup2\n      add\n      swap1\n      tag_150\n      swap2\n      swap1\n      tag_151\n      jump\t// in\n    tag_150:\n      tag_152\n      jump\t// in\n    tag_149:\n      stop\n        /* \"contracts/cropsFarmer.sol\":296:319  uint256 public MKT = 12 */\n    tag_16:\n      callvalue\n      dup1\n      iszero\n      tag_153\n      jumpi\n      0x00\n      dup1\n      revert\n    tag_153:\n      pop\n      tag_154\n      tag_155\n      jump\t// in\n    tag_154:\n      mload(0x40)\n      tag_156\n      swap2\n      swap1\n      tag_92\n      jump\t// in\n    tag_156:\n      mload(0x40)\n      dup1\n      swap2\n      sub\n      swap1\n      return\n        /* \"contracts/cropsFarmer.sol\":912:937  uint256 public marketEggs */\n    tag_17:\n      callvalue\n      dup1\n      iszero\n      tag_157\n      jumpi\n      0x00\n      dup1\n      revert\n    tag_157:\n      pop\n      tag_158\n      tag_159\n      jump\t// in\n    tag_158:\n      mload(0x40)\n      tag_160\n      swap2\n      swap1\n      tag_92\n      jump\t// in\n    tag_160:\n      mload(0x40)\n      dup1\n      swap2\n      sub\n      swap1\n      return\n        /* \"contracts/cropsFarmer.sol\":993:1020  bool public contractStarted */\n    tag_18:\n      callvalue\n      dup1\n      iszero\n      tag_161\n      jumpi\n      0x00\n      dup1\n      revert\n    tag_161:\n      pop\n      tag_162\n      tag_163\n      jump\t// in\n    tag_162:\n      mload(0x40)\n      tag_164\n      swap2\n      swap1\n      tag_165\n      jump\t// in\n    tag_164:\n      mload(0x40)\n      dup1\n      swap2\n      sub\n      swap1\n      return\n        /* \"contracts/cropsFarmer.sol\":1113:1154  uint256 public CUTOFF_STEP = 48 * 60 * 60 */\n    tag_19:\n      callvalue\n      dup1\n      iszero\n      tag_166\n      jumpi\n      0x00\n      dup1\n      revert\n    tag_166:\n      pop\n      tag_167\n      tag_168\n      jump\t// in\n    tag_167:\n      mload(0x40)\n      tag_169\n      swap2\n      swap1\n      tag_92\n      jump\t// in\n    tag_169:\n      mload(0x40)\n      dup1\n      swap2\n      sub\n      swap1\n      return\n        /* \"contracts/cropsFarmer.sol\":13349:13490  function getMyEggs() public view returns(uint256){... */\n    tag_20:\n      callvalue\n      dup1\n      iszero\n      tag_170\n      jumpi\n      0x00\n      dup1\n      revert\n    tag_170:\n      pop\n      tag_171\n      tag_172\n      jump\t// in\n    tag_171:\n      mload(0x40)\n      tag_173\n      swap2\n      swap1\n      tag_92\n      jump\t// in\n    tag_173:\n      mload(0x40)\n      dup1\n      swap2\n      sub\n      swap1\n      return\n        /* \"contracts/cropsFarmer.sol\":17291:17484  function SET_WITHDRAW_COOLDOWN(uint256 value) external {... */\n    tag_21:\n      callvalue\n      dup1\n      iszero\n      tag_174\n      jumpi\n      0x00\n      dup1\n      revert\n    tag_174:\n      pop\n      tag_175\n      0x04\n      dup1\n      calldatasize\n      sub\n      dup2\n      add\n      swap1\n      tag_176\n      swap2\n      swap1\n      tag_126\n      jump\t// in\n    tag_176:\n      tag_177\n      jump\t// in\n    tag_175:\n      stop\n        /* \"contracts/cropsFarmer.sol\":16976:17128  function SET_INVEST_MIN(uint256 value) external {... */\n    tag_22:\n      callvalue\n      dup1\n      iszero\n      tag_178\n      jumpi\n      0x00\n      dup1\n      revert\n    tag_178:\n      pop\n      tag_179\n      0x04\n      dup1\n      calldatasize\n      sub\n      dup2\n      add\n      swap1\n      tag_180\n      swap2\n      swap1\n      tag_126\n      jump\t// in\n    tag_180:\n      tag_181\n      jump\t// in\n    tag_179:\n      stop\n        /* \"contracts/cropsFarmer.sol\":876:905  uint256 public totalWithdrawn */\n    tag_23:\n      callvalue\n      dup1\n      iszero\n      tag_182\n      jumpi\n      0x00\n      dup1\n      revert\n    tag_182:\n      pop\n      tag_183\n      tag_184\n      jump\t// in\n    tag_183:\n      mload(0x40)\n      tag_185\n      swap2\n      swap1\n      tag_92\n      jump\t// in\n    tag_185:\n      mload(0x40)\n      dup1\n      swap2\n      sub\n      swap1\n      return\n        /* \"contracts/cropsFarmer.sol\":13018:13238  function getSiteInfo() public view returns (uint256 _totalStaked, uint256 _totalDeposits, uint256 _totalCompound, uint256 _totalRefBonus) {... */\n    tag_24:\n      callvalue\n      dup1\n      iszero\n      tag_186\n      jumpi\n      0x00\n      dup1\n      revert\n    tag_186:\n      pop\n      tag_187\n      tag_188\n      jump\t// in\n    tag_187:\n      mload(0x40)\n      tag_189\n      swap5\n      swap4\n      swap3\n      swap2\n      swap1\n      tag_190\n      jump\t// in\n    tag_189:\n      mload(0x40)\n      dup1\n      swap2\n      sub\n      swap1\n      return\n        /* \"contracts/cropsFarmer.sol\":9620:10003  function getDailyCompoundBonus(address _adr, uint256 amount) public view returns(uint256){... */\n    tag_25:\n      callvalue\n      dup1\n      iszero\n      tag_191\n      jumpi\n      0x00\n      dup1\n      revert\n    tag_191:\n      pop\n      tag_192\n      0x04\n      dup1\n      calldatasize\n      sub\n      dup2\n      add\n      swap1\n      tag_193\n      swap2\n      swap1\n      tag_194\n      jump\t// in\n    tag_193:\n      tag_195\n      jump\t// in\n    tag_192:\n      mload(0x40)\n      tag_196\n      swap2\n      swap1\n      tag_92\n      jump\t// in\n    tag_196:\n      mload(0x40)\n      dup1\n      swap2\n      sub\n      swap1\n      return\n        /* \"contracts/cropsFarmer.sol\":7451:9187  function hireFarmers(address ref) public payable{... */\n    tag_26:\n      tag_197\n      0x04\n      dup1\n      calldatasize\n      sub\n      dup2\n      add\n      swap1\n      tag_198\n      swap2\n      swap1\n      tag_151\n      jump\t// in\n    tag_198:\n      tag_199\n      jump\t// in\n    tag_197:\n      stop\n        /* \"contracts/cropsFarmer.sol\":15801:15983  function PRC_REFERRAL(uint256 value) external {... */\n    tag_27:\n      callvalue\n      dup1\n      iszero\n      tag_200\n      jumpi\n      0x00\n      dup1\n      revert\n    tag_200:\n      pop\n      tag_201\n      0x04\n      dup1\n      calldatasize\n      sub\n      dup2\n      add\n      swap1\n      tag_202\n      swap2\n      swap1\n      tag_126\n      jump\t// in\n    tag_202:\n      tag_203\n      jump\t// in\n    tag_201:\n      stop\n        /* \"contracts/cropsFarmer.sol\":5085:6542  function sellCrops() public{... */\n    tag_28:\n      callvalue\n      dup1\n      iszero\n      tag_204\n      jumpi\n      0x00\n      dup1\n      revert\n    tag_204:\n      pop\n      tag_205\n      tag_206\n      jump\t// in\n    tag_205:\n      stop\n        /* \"contracts/cropsFarmer.sol\":325:363  uint256 public MARKET_EGGS_DIVISOR = 2 */\n    tag_29:\n      callvalue\n      dup1\n      iszero\n      tag_207\n      jumpi\n      0x00\n      dup1\n      revert\n    tag_207:\n      pop\n      tag_208\n      tag_209\n      jump\t// in\n    tag_208:\n      mload(0x40)\n      tag_210\n      swap2\n      swap1\n      tag_92\n      jump\t// in\n    tag_210:\n      mload(0x40)\n      dup1\n      swap2\n      sub\n      swap1\n      return\n        /* \"contracts/cropsFarmer.sol\":10009:10995  function getUserInfo(address _adr) public view returns(uint256 _initialDeposit, uint256 _userDeposit, uint256 _miners,... */\n    tag_30:\n      callvalue\n      dup1\n      iszero\n      tag_211\n      jumpi\n      0x00\n      dup1\n      revert\n    tag_211:\n      pop\n      tag_212\n      0x04\n      dup1\n      calldatasize\n      sub\n      dup2\n      add\n      swap1\n      tag_213\n      swap2\n      swap1\n      tag_151\n      jump\t// in\n    tag_213:\n      tag_214\n      jump\t// in\n    tag_212:\n      mload(0x40)\n      tag_215\n      swap13\n      swap12\n      swap11\n      swap10\n      swap9\n      swap8\n      swap7\n      swap6\n      swap5\n      swap4\n      swap3\n      swap2\n      swap1\n      tag_216\n      jump\t// in\n    tag_215:\n      mload(0x40)\n      dup1\n      swap2\n      sub\n      swap1\n      return\n        /* \"contracts/cropsFarmer.sol\":11201:11409  function getAvailableEarnings(address _adr) public view returns(uint256) {... */\n    tag_31:\n      callvalue\n      dup1\n      iszero\n      tag_217\n      jumpi\n      0x00\n      dup1\n      revert\n    tag_217:\n      pop\n      tag_218\n      0x04\n      dup1\n      calldatasize\n      sub\n      dup2\n      add\n      swap1\n      tag_219\n      swap2\n      swap1\n      tag_151\n      jump\t// in\n    tag_219:\n      tag_220\n      jump\t// in\n    tag_218:\n      mload(0x40)\n      tag_221\n      swap2\n      swap1\n      tag_92\n      jump\t// in\n    tag_221:\n      mload(0x40)\n      dup1\n      swap2\n      sub\n      swap1\n      return\n        /* \"contracts/cropsFarmer.sol\":268:290  uint256 public TAX = 9 */\n    tag_32:\n      callvalue\n      dup1\n      iszero\n      tag_222\n      jumpi\n      0x00\n      dup1\n      revert\n    tag_222:\n      pop\n      tag_223\n      tag_224\n      jump\t// in\n    tag_223:\n      mload(0x40)\n      tag_225\n      swap2\n      swap1\n      tag_92\n      jump\t// in\n    tag_225:\n      mload(0x40)\n      dup1\n      swap2\n      sub\n      swap1\n      return\n        /* \"contracts/cropsFarmer.sol\":842:870  uint256 public totalRefBonus */\n    tag_33:\n      callvalue\n      dup1\n      iszero\n      tag_226\n      jumpi\n      0x00\n      dup1\n      revert\n    tag_226:\n      pop\n      tag_227\n      tag_228\n      jump\t// in\n    tag_227:\n      mload(0x40)\n      tag_229\n      swap2\n      swap1\n      tag_92\n      jump\t// in\n    tag_229:\n      mload(0x40)\n      dup1\n      swap2\n      sub\n      swap1\n      return\n        /* \"contracts/cropsFarmer.sol\":16368:16564  function BONUS_DAILY_COMPOUND(uint256 value) external {... */\n    tag_34:\n      callvalue\n      dup1\n      iszero\n      tag_230\n      jumpi\n      0x00\n      dup1\n      revert\n    tag_230:\n      pop\n      tag_231\n      0x04\n      dup1\n      calldatasize\n      sub\n      dup2\n      add\n      swap1\n      tag_232\n      swap2\n      swap1\n      tag_126\n      jump\t// in\n    tag_232:\n      tag_233\n      jump\t// in\n    tag_231:\n      stop\n        /* \"contracts/cropsFarmer.sol\":589:632  uint256 public COMPOUND_STEP = 12 * 60 * 60 */\n    tag_35:\n      callvalue\n      dup1\n      iszero\n      tag_234\n      jumpi\n      0x00\n      dup1\n      revert\n    tag_234:\n      pop\n      tag_235\n      tag_236\n      jump\t// in\n    tag_235:\n      mload(0x40)\n      tag_237\n      swap2\n      swap1\n      tag_92\n      jump\t// in\n    tag_237:\n      mload(0x40)\n      dup1\n      swap2\n      sub\n      swap1\n      return\n        /* \"contracts/cropsFarmer.sol\":15989:16177  function PRC_MARKET_EGGS_DIVISOR(uint256 value) external {... */\n    tag_36:\n      callvalue\n      dup1\n      iszero\n      tag_238\n      jumpi\n      0x00\n      dup1\n      revert\n    tag_238:\n      pop\n      tag_239\n      0x04\n      dup1\n      calldatasize\n      sub\n      dup2\n      add\n      swap1\n      tag_240\n      swap2\n      swap1\n      tag_126\n      jump\t// in\n    tag_240:\n      tag_241\n      jump\t// in\n    tag_239:\n      stop\n        /* \"contracts/cropsFarmer.sol\":17134:17285  function SET_CUTOFF_STEP(uint256 value) external {... */\n    tag_37:\n      callvalue\n      dup1\n      iszero\n      tag_242\n      jumpi\n      0x00\n      dup1\n      revert\n    tag_242:\n      pop\n      tag_243\n      0x04\n      dup1\n      calldatasize\n      sub\n      dup2\n      add\n      swap1\n      tag_244\n      swap2\n      swap1\n      tag_126\n      jump\t// in\n    tag_244:\n      tag_245\n      jump\t// in\n    tag_243:\n      stop\n        /* \"contracts/cropsFarmer.sol\":1425:1451  address payable public mkt */\n    tag_38:\n      callvalue\n      dup1\n      iszero\n      tag_246\n      jumpi\n      0x00\n      dup1\n      revert\n    tag_246:\n      pop\n      tag_247\n      tag_248\n      jump\t// in\n    tag_247:\n      mload(0x40)\n      tag_249\n      swap2\n      swap1\n      tag_101\n      jump\t// in\n    tag_249:\n      mload(0x40)\n      dup1\n      swap2\n      sub\n      swap1\n      return\n        /* \"contracts/cropsFarmer.sol\":774:802  uint256 public totalDeposits */\n    tag_39:\n      callvalue\n      dup1\n      iszero\n      tag_250\n      jumpi\n      0x00\n      dup1\n      revert\n    tag_250:\n      pop\n      tag_251\n      tag_252\n      jump\t// in\n    tag_251:\n      mload(0x40)\n      tag_253\n      swap2\n      swap1\n      tag_92\n      jump\t// in\n    tag_253:\n      mload(0x40)\n      dup1\n      swap2\n      sub\n      swap1\n      return\n        /* \"contracts/cropsFarmer.sol\":808:836  uint256 public totalCompound */\n    tag_40:\n      callvalue\n      dup1\n      iszero\n      tag_254\n      jumpi\n      0x00\n      dup1\n      revert\n    tag_254:\n      pop\n      tag_255\n      tag_256\n      jump\t// in\n    tag_255:\n      mload(0x40)\n      tag_257\n      swap2\n      swap1\n      tag_92\n      jump\t// in\n    tag_257:\n      mload(0x40)\n      dup1\n      swap2\n      sub\n      swap1\n      return\n        /* \"contracts/cropsFarmer.sol\":12181:12311  function calculateEggBuySimple(uint256 eth) public view returns(uint256){... */\n    tag_41:\n      callvalue\n      dup1\n      iszero\n      tag_258\n      jumpi\n      0x00\n      dup1\n      revert\n    tag_258:\n      pop\n      tag_259\n      0x04\n      dup1\n      calldatasize\n      sub\n      dup2\n      add\n      swap1\n      tag_260\n      swap2\n      swap1\n      tag_126\n      jump\t// in\n    tag_260:\n      tag_261\n      jump\t// in\n    tag_259:\n      mload(0x40)\n      tag_262\n      swap2\n      swap1\n      tag_92\n      jump\t// in\n    tag_262:\n      mload(0x40)\n      dup1\n      swap2\n      sub\n      swap1\n      return\n        /* \"contracts/cropsFarmer.sol\":17490:17689  function SET_WALLET_DEPOSIT_LIMIT(uint256 value) external {... */\n    tag_42:\n      callvalue\n      dup1\n      iszero\n      tag_263\n      jumpi\n      0x00\n      dup1\n      revert\n    tag_263:\n      pop\n      tag_264\n      0x04\n      dup1\n      calldatasize\n      sub\n      dup2\n      add\n      swap1\n      tag_265\n      swap2\n      swap1\n      tag_126\n      jump\t// in\n    tag_265:\n      tag_266\n      jump\t// in\n    tag_264:\n      stop\n        /* \"contracts/cropsFarmer.sol\":1289:1316  address payable public dev2 */\n    tag_43:\n      callvalue\n      dup1\n      iszero\n      tag_267\n      jumpi\n      0x00\n      dup1\n      revert\n    tag_267:\n      pop\n      tag_268\n      tag_269\n      jump\t// in\n    tag_268:\n      mload(0x40)\n      tag_270\n      swap2\n      swap1\n      tag_101\n      jump\t// in\n    tag_270:\n      mload(0x40)\n      dup1\n      swap2\n      sub\n      swap1\n      return\n        /* \"contracts/cropsFarmer.sol\":742:768  uint256 public totalStaked */\n    tag_44:\n      callvalue\n      dup1\n      iszero\n      tag_271\n      jumpi\n      0x00\n      dup1\n      revert\n    tag_271:\n      pop\n      tag_272\n      tag_273\n      jump\t// in\n    tag_272:\n      mload(0x40)\n      tag_274\n      swap2\n      swap1\n      tag_92\n      jump\t// in\n    tag_274:\n      mload(0x40)\n      dup1\n      swap2\n      sub\n      swap1\n      return\n        /* \"contracts/cropsFarmer.sol\":1390:1419  address payable public prtnr2 */\n    tag_45:\n      callvalue\n      dup1\n      iszero\n      tag_275\n      jumpi\n      0x00\n      dup1\n      revert\n    tag_275:\n      pop\n      tag_276\n      tag_277\n      jump\t// in\n    tag_276:\n      mload(0x40)\n      tag_278\n      swap2\n      swap1\n      tag_101\n      jump\t// in\n    tag_278:\n      mload(0x40)\n      dup1\n      swap2\n      sub\n      swap1\n      return\n        /* \"contracts/cropsFarmer.sol\":1230:1250  address public owner */\n    tag_46:\n      callvalue\n      dup1\n      iszero\n      tag_279\n      jumpi\n      0x00\n      dup1\n      revert\n    tag_279:\n      pop\n      tag_280\n      tag_281\n      jump\t// in\n    tag_280:\n      mload(0x40)\n      tag_282\n      swap2\n      swap1\n      tag_283\n      jump\t// in\n    tag_282:\n      mload(0x40)\n      dup1\n      swap2\n      sub\n      swap1\n      return\n        /* \"contracts/cropsFarmer.sol\":11869:12007  function calculateEggSell(uint256 eggs) public view returns(uint256){... */\n    tag_47:\n      callvalue\n      dup1\n      iszero\n      tag_284\n      jumpi\n      0x00\n      dup1\n      revert\n    tag_284:\n      pop\n      tag_285\n      0x04\n      dup1\n      calldatasize\n      sub\n      dup2\n      add\n      swap1\n      tag_286\n      swap2\n      swap1\n      tag_126\n      jump\t// in\n    tag_286:\n      tag_287\n      jump\t// in\n    tag_285:\n      mload(0x40)\n      tag_288\n      swap2\n      swap1\n      tag_92\n      jump\t// in\n    tag_288:\n      mload(0x40)\n      dup1\n      swap2\n      sub\n      swap1\n      return\n        /* \"contracts/cropsFarmer.sol\":1157:1203  uint256 public WITHDRAW_COOLDOWN = 4 * 60 * 60 */\n    tag_48:\n      callvalue\n      dup1\n      iszero\n      tag_289\n      jumpi\n      0x00\n      dup1\n      revert\n    tag_289:\n      pop\n      tag_290\n      tag_291\n      jump\t// in\n    tag_290:\n      mload(0x40)\n      tag_292\n      swap2\n      swap1\n      tag_92\n      jump\t// in\n    tag_292:\n      mload(0x40)\n      dup1\n      swap2\n      sub\n      swap1\n      return\n        /* \"contracts/cropsFarmer.sol\":16782:16970  function BONUS_COMPOUND_STEP(uint256 value) external {... */\n    tag_49:\n      callvalue\n      dup1\n      iszero\n      tag_293\n      jumpi\n      0x00\n      dup1\n      revert\n    tag_293:\n      pop\n      tag_294\n      0x04\n      dup1\n      calldatasize\n      sub\n      dup2\n      add\n      swap1\n      tag_295\n      swap2\n      swap1\n      tag_126\n      jump\t// in\n    tag_295:\n      tag_296\n      jump\t// in\n    tag_294:\n      stop\n        /* \"contracts/cropsFarmer.sol\":16570:16776  function BONUS_DAILY_COMPOUND_BONUS_MAX_TIMES(uint256 value) external {... */\n    tag_50:\n      callvalue\n      dup1\n      iszero\n      tag_297\n      jumpi\n      0x00\n      dup1\n      revert\n    tag_297:\n      pop\n      tag_298\n      0x04\n      dup1\n      calldatasize\n      sub\n      dup2\n      add\n      swap1\n      tag_299\n      swap2\n      swap1\n      tag_126\n      jump\t// in\n    tag_299:\n      tag_300\n      jump\t// in\n    tag_298:\n      stop\n        /* \"contracts/cropsFarmer.sol\":2605:2754  function setblacklistActive(bool isActive) public{... */\n    tag_51:\n      callvalue\n      dup1\n      iszero\n      tag_301\n      jumpi\n      0x00\n      dup1\n      revert\n    tag_301:\n      pop\n      tag_302\n      0x04\n      dup1\n      calldatasize\n      sub\n      dup2\n      add\n      swap1\n      tag_303\n      swap2\n      swap1\n      tag_117\n      jump\t// in\n    tag_303:\n      tag_304\n      jump\t// in\n    tag_302:\n      stop\n        /* \"contracts/cropsFarmer.sol\":1256:1283  address payable public dev1 */\n    tag_52:\n      callvalue\n      dup1\n      iszero\n      tag_305\n      jumpi\n      0x00\n      dup1\n      revert\n    tag_305:\n      pop\n      tag_306\n      tag_307\n      jump\t// in\n    tag_306:\n      mload(0x40)\n      tag_308\n      swap2\n      swap1\n      tag_101\n      jump\t// in\n    tag_308:\n      mload(0x40)\n      dup1\n      swap2\n      sub\n      swap1\n      return\n        /* \"contracts/cropsFarmer.sol\":1916:1953  mapping(address => User) public users */\n    tag_53:\n      callvalue\n      dup1\n      iszero\n      tag_309\n      jumpi\n      0x00\n      dup1\n      revert\n    tag_309:\n      pop\n      tag_310\n      0x04\n      dup1\n      calldatasize\n      sub\n      dup2\n      add\n      swap1\n      tag_311\n      swap2\n      swap1\n      tag_151\n      jump\t// in\n    tag_311:\n      tag_312\n      jump\t// in\n    tag_310:\n      mload(0x40)\n      tag_313\n      swap13\n      swap12\n      swap11\n      swap10\n      swap9\n      swap8\n      swap7\n      swap6\n      swap5\n      swap4\n      swap3\n      swap2\n      swap1\n      tag_216\n      jump\t// in\n    tag_313:\n      mload(0x40)\n      dup1\n      swap2\n      sub\n      swap1\n      return\n        /* \"contracts/cropsFarmer.sol\":1026:1060  bool public blacklistActive = true */\n    tag_54:\n      callvalue\n      dup1\n      iszero\n      tag_314\n      jumpi\n      0x00\n      dup1\n      revert\n    tag_314:\n      pop\n      tag_315\n      tag_316\n      jump\t// in\n    tag_315:\n      mload(0x40)\n      tag_317\n      swap2\n      swap1\n      tag_165\n      jump\t// in\n    tag_317:\n      mload(0x40)\n      dup1\n      swap2\n      sub\n      swap1\n      return\n        /* \"contracts/cropsFarmer.sol\":3776:3819  function fundContract() external payable {} */\n    tag_55:\n      tag_318\n      tag_319\n      jump\t// in\n    tag_318:\n      stop\n        /* \"contracts/cropsFarmer.sol\":12401:12834  function getEggsYield(uint256 amount) public view returns(uint256,uint256) {... */\n    tag_56:\n      callvalue\n      dup1\n      iszero\n      tag_320\n      jumpi\n      0x00\n      dup1\n      revert\n    tag_320:\n      pop\n      tag_321\n      0x04\n      dup1\n      calldatasize\n      sub\n      dup2\n      add\n      swap1\n      tag_322\n      swap2\n      swap1\n      tag_126\n      jump\t// in\n    tag_322:\n      tag_323\n      jump\t// in\n    tag_321:\n      mload(0x40)\n      tag_324\n      swap3\n      swap2\n      swap1\n      tag_325\n      jump\t// in\n    tag_324:\n      mload(0x40)\n      dup1\n      swap2\n      sub\n      swap1\n      return\n        /* \"contracts/cropsFarmer.sol\":16183:16362  function SET_WITHDRAWAL_TAX(uint256 value) external {... */\n    tag_57:\n      callvalue\n      dup1\n      iszero\n      tag_326\n      jumpi\n      0x00\n      dup1\n      revert\n    tag_326:\n      pop\n      tag_327\n      0x04\n      dup1\n      calldatasize\n      sub\n      dup2\n      add\n      swap1\n      tag_328\n      swap2\n      swap1\n      tag_126\n      jump\t// in\n    tag_328:\n      tag_329\n      jump\t// in\n    tag_327:\n      stop\n        /* \"contracts/cropsFarmer.sol\":3210:3398  function checkIfBlacklisted(address Wallet) public view returns(bool blacklisted){... */\n    tag_58:\n      callvalue\n      dup1\n      iszero\n      tag_330\n      jumpi\n      0x00\n      dup1\n      revert\n    tag_330:\n      pop\n      tag_331\n      0x04\n      dup1\n      calldatasize\n      sub\n      dup2\n      add\n      swap1\n      tag_332\n      swap2\n      swap1\n      tag_151\n      jump\t// in\n    tag_332:\n      tag_333\n      jump\t// in\n    tag_331:\n      mload(0x40)\n      tag_334\n      swap2\n      swap1\n      tag_165\n      jump\t// in\n    tag_334:\n      mload(0x40)\n      dup1\n      swap2\n      sub\n      swap1\n      return\n        /* \"contracts/cropsFarmer.sol\":190:218  uint256 public REFERRAL = 70 */\n    tag_59:\n      callvalue\n      dup1\n      iszero\n      tag_335\n      jumpi\n      0x00\n      dup1\n      revert\n    tag_335:\n      pop\n      tag_336\n      tag_337\n      jump\t// in\n    tag_336:\n      mload(0x40)\n      tag_338\n      swap2\n      swap1\n      tag_92\n      jump\t// in\n    tag_338:\n      mload(0x40)\n      dup1\n      swap2\n      sub\n      swap1\n      return\n        /* \"contracts/cropsFarmer.sol\":539:583  uint256 public COMPOUND_BONUS_MAX_TIMES = 10 */\n    tag_60:\n      callvalue\n      dup1\n      iszero\n      tag_339\n      jumpi\n      0x00\n      dup1\n      revert\n    tag_339:\n      pop\n      tag_340\n      tag_341\n      jump\t// in\n    tag_340:\n      mload(0x40)\n      tag_342\n      swap2\n      swap1\n      tag_92\n      jump\t// in\n    tag_342:\n      mload(0x40)\n      dup1\n      swap2\n      sub\n      swap1\n      return\n        /* \"contracts/cropsFarmer.sol\":12840:13012  function calculateEggSellForYield(uint256 eggs,uint256 amount) public view returns(uint256){... */\n    tag_61:\n      callvalue\n      dup1\n      iszero\n      tag_343\n      jumpi\n      0x00\n      dup1\n      revert\n    tag_343:\n      pop\n      tag_344\n      0x04\n      dup1\n      calldatasize\n      sub\n      dup2\n      add\n      swap1\n      tag_345\n      swap2\n      swap1\n      tag_141\n      jump\t// in\n    tag_345:\n      tag_346\n      jump\t// in\n    tag_344:\n      mload(0x40)\n      tag_347\n      swap2\n      swap1\n      tag_92\n      jump\t// in\n    tag_347:\n      mload(0x40)\n      dup1\n      swap2\n      sub\n      swap1\n      return\n        /* \"contracts/cropsFarmer.sol\":370:412  uint256 public MIN_INVEST_LIMIT = 1 * 1e17 */\n    tag_62:\n      callvalue\n      dup1\n      iszero\n      tag_348\n      jumpi\n      0x00\n      dup1\n      revert\n    tag_348:\n      pop\n      tag_349\n      tag_350\n      jump\t// in\n    tag_349:\n      mload(0x40)\n      tag_351\n      swap2\n      swap1\n      tag_92\n      jump\t// in\n    tag_351:\n      mload(0x40)\n      dup1\n      swap2\n      sub\n      swap1\n      return\n        /* \"contracts/cropsFarmer.sol\":502:536  uint256 public COMPOUND_BONUS = 20 */\n    tag_63:\n      callvalue\n      dup1\n      iszero\n      tag_352\n      jumpi\n      0x00\n      dup1\n      revert\n    tag_352:\n      pop\n      tag_353\n      tag_354\n      jump\t// in\n    tag_353:\n      mload(0x40)\n      tag_355\n      swap2\n      swap1\n      tag_92\n      jump\t// in\n    tag_355:\n      mload(0x40)\n      dup1\n      swap2\n      sub\n      swap1\n      return\n        /* \"contracts/cropsFarmer.sol\":13496:13902  function getEggsSinceLastHatch(address adr) public view returns(uint256){... */\n    tag_64:\n      callvalue\n      dup1\n      iszero\n      tag_356\n      jumpi\n      0x00\n      dup1\n      revert\n    tag_356:\n      pop\n      tag_357\n      0x04\n      dup1\n      calldatasize\n      sub\n      dup2\n      add\n      swap1\n      tag_358\n      swap2\n      swap1\n      tag_151\n      jump\t// in\n    tag_358:\n      tag_359\n      jump\t// in\n    tag_357:\n      mload(0x40)\n      tag_360\n      swap2\n      swap1\n      tag_92\n      jump\t// in\n    tag_360:\n      mload(0x40)\n      dup1\n      swap2\n      sub\n      swap1\n      return\n        /* \"contracts/cropsFarmer.sol\":2760:2936  function blackListWallet(address Wallet, bool isBlacklisted) public{... */\n    tag_65:\n      callvalue\n      dup1\n      iszero\n      tag_361\n      jumpi\n      0x00\n      dup1\n      revert\n    tag_361:\n      pop\n      tag_362\n      0x04\n      dup1\n      calldatasize\n      sub\n      dup2\n      add\n      swap1\n      tag_363\n      swap2\n      swap1\n      tag_364\n      jump\t// in\n    tag_363:\n      tag_365\n      jump\t// in\n    tag_362:\n      stop\n        /* \"contracts/cropsFarmer.sol\":11102:11195  function getTimeStamp() public view returns (uint256) {... */\n    tag_66:\n      callvalue\n      dup1\n      iszero\n      tag_366\n      jumpi\n      0x00\n      dup1\n      revert\n    tag_366:\n      pop\n      tag_367\n      tag_368\n      jump\t// in\n    tag_367:\n      mload(0x40)\n      tag_369\n      swap2\n      swap1\n      tag_92\n      jump\t// in\n    tag_369:\n      mload(0x40)\n      dup1\n      swap2\n      sub\n      swap1\n      return\n        /* \"contracts/cropsFarmer.sol\":3404:3726  function startFarm(address addr) public payable{... */\n    tag_67:\n      tag_370\n      0x04\n      dup1\n      calldatasize\n      sub\n      dup2\n      add\n      swap1\n      tag_371\n      swap2\n      swap1\n      tag_151\n      jump\t// in\n    tag_371:\n      tag_372\n      jump\t// in\n    tag_370:\n      stop\n        /* \"contracts/cropsFarmer.sol\":15236:15471  function PRC_EGGS_TO_HIRE_1MINERS(uint256 value) external {... */\n    tag_68:\n      callvalue\n      dup1\n      iszero\n      tag_373\n      jumpi\n      0x00\n      dup1\n      revert\n    tag_373:\n      pop\n      tag_374\n      0x04\n      dup1\n      calldatasize\n      sub\n      dup2\n      add\n      swap1\n      tag_375\n      swap2\n      swap1\n      tag_126\n      jump\t// in\n    tag_375:\n      tag_376\n      jump\t// in\n    tag_374:\n      stop\n        /* \"contracts/cropsFarmer.sol\":17699:17909  function SET_COMPOUND_FOR_NO_TAX_WITHDRAWAL(uint256 value) external {... */\n    tag_69:\n      callvalue\n      dup1\n      iszero\n      tag_377\n      jumpi\n      0x00\n      dup1\n      revert\n    tag_377:\n      pop\n      tag_378\n      0x04\n      dup1\n      calldatasize\n      sub\n      dup2\n      add\n      swap1\n      tag_379\n      swap2\n      swap1\n      tag_126\n      jump\t// in\n    tag_379:\n      tag_380\n      jump\t// in\n    tag_378:\n      stop\n        /* \"contracts/cropsFarmer.sol\":2942:3204  function blackMultipleWallets(address[] calldata Wallet, bool isBlacklisted) public{... */\n    tag_70:\n      callvalue\n      dup1\n      iszero\n      tag_381\n      jumpi\n      0x00\n      dup1\n      revert\n    tag_381:\n      pop\n      tag_382\n      0x04\n      dup1\n      calldatasize\n      sub\n      dup2\n      add\n      swap1\n      tag_383\n      swap2\n      swap1\n      tag_384\n      jump\t// in\n    tag_383:\n      tag_385\n      jump\t// in\n    tag_382:\n      stop\n        /* \"contracts/cropsFarmer.sol\":685:735  uint256 public COMPOUND_FOR_NO_TAX_WITHDRAWAL = 10 */\n    tag_71:\n      callvalue\n      dup1\n      iszero\n      tag_386\n      jumpi\n      0x00\n      dup1\n      revert\n    tag_386:\n      pop\n      tag_387\n      tag_388\n      jump\t// in\n    tag_387:\n      mload(0x40)\n      tag_389\n      swap2\n      swap1\n      tag_92\n      jump\t// in\n    tag_389:\n      mload(0x40)\n      dup1\n      swap2\n      sub\n      swap1\n      return\n        /* \"contracts/cropsFarmer.sol\":1066:1109  mapping(address => bool) public Blacklisted */\n    tag_72:\n      callvalue\n      dup1\n      iszero\n      tag_390\n      jumpi\n      0x00\n      dup1\n      revert\n    tag_390:\n      pop\n      tag_391\n      0x04\n      dup1\n      calldatasize\n      sub\n      dup2\n      add\n      swap1\n      tag_392\n      swap2\n      swap1\n      tag_151\n      jump\t// in\n    tag_392:\n      tag_393\n      jump\t// in\n    tag_391:\n      mload(0x40)\n      tag_394\n      swap2\n      swap1\n      tag_165\n      jump\t// in\n    tag_394:\n      mload(0x40)\n      dup1\n      swap2\n      sub\n      swap1\n      return\n        /* \"contracts/cropsFarmer.sol\":224:262  uint256 public PERCENTS_DIVIDER = 1000 */\n    tag_90:\n      sload(0x02)\n      dup2\n      jump\t// out\n        /* \"contracts/cropsFarmer.sol\":639:674  uint256 public WITHDRAWAL_TAX = 350 */\n    tag_95:\n      sload(0x0b)\n      dup2\n      jump\t// out\n        /* \"contracts/cropsFarmer.sol\":1355:1384  address payable public prtnr1 */\n    tag_99:\n      0x1d\n      0x00\n      swap1\n      sload\n      swap1\n      0x0100\n      exp\n      swap1\n      div\n      0xffffffffffffffffffffffffffffffffffffffff\n      and\n      dup2\n      jump\t// out\n        /* \"contracts/cropsFarmer.sol\":13244:13343  function getMyMiners() public view returns(uint256){... */\n    tag_104:\n        /* \"contracts/cropsFarmer.sol\":13287:13294  uint256 */\n      0x00\n        /* \"contracts/cropsFarmer.sol\":13312:13317  users */\n      0x20\n        /* \"contracts/cropsFarmer.sol\":13312:13329  users[msg.sender] */\n      0x00\n        /* \"contracts/cropsFarmer.sol\":13318:13328  msg.sender */\n      caller\n        /* \"contracts/cropsFarmer.sol\":13312:13329  users[msg.sender] */\n      0xffffffffffffffffffffffffffffffffffffffff\n      and\n      0xffffffffffffffffffffffffffffffffffffffff\n      and\n      dup2\n      mstore\n      0x20\n      add\n      swap1\n      dup2\n      mstore\n      0x20\n      add\n      0x00\n      keccak256\n        /* \"contracts/cropsFarmer.sol\":13312:13336  users[msg.sender].miners */\n      0x02\n      add\n      sload\n        /* \"contracts/cropsFarmer.sol\":13305:13336  return users[msg.sender].miners */\n      swap1\n      pop\n        /* \"contracts/cropsFarmer.sol\":13244:13343  function getMyMiners() public view returns(uint256){... */\n      swap1\n      jump\t// out\n        /* \"contracts/cropsFarmer.sol\":11001:11096  function getBalance() public view returns(uint256){... */\n    tag_108:\n        /* \"contracts/cropsFarmer.sol\":11043:11050  uint256 */\n      0x00\n        /* \"contracts/cropsFarmer.sol\":11068:11089  address(this).balance */\n      selfbalance\n        /* \"contracts/cropsFarmer.sol\":11061:11089  return address(this).balance */\n      swap1\n      pop\n        /* \"contracts/cropsFarmer.sol\":11001:11096  function getBalance() public view returns(uint256){... */\n      swap1\n      jump\t// out\n        /* \"contracts/cropsFarmer.sol\":435:482  uint256 public WALLET_DEPOSIT_LIMIT = 25 * 1e18 */\n    tag_112:\n      sload(0x07)\n      dup2\n      jump\t// out\n        /* \"contracts/cropsFarmer.sol\":3825:5079  function hireMoreFarmers(bool isCompound) public {... */\n    tag_118:\n        /* \"contracts/cropsFarmer.sol\":3884:3901  User storage user */\n      0x00\n        /* \"contracts/cropsFarmer.sol\":3904:3909  users */\n      0x20\n        /* \"contracts/cropsFarmer.sol\":3904:3921  users[msg.sender] */\n      0x00\n        /* \"contracts/cropsFarmer.sol\":3910:3920  msg.sender */\n      caller\n        /* \"contracts/cropsFarmer.sol\":3904:3921  users[msg.sender] */\n      0xffffffffffffffffffffffffffffffffffffffff\n      and\n      0xffffffffffffffffffffffffffffffffffffffff\n      and\n      dup2\n      mstore\n      0x20\n      add\n      swap1\n      dup2\n      mstore\n      0x20\n      add\n      0x00\n      keccak256\n        /* \"contracts/cropsFarmer.sol\":3884:3921  User storage user = users[msg.sender] */\n      swap1\n      pop\n        /* \"contracts/cropsFarmer.sol\":3939:3954  contractStarted */\n      0x15\n      0x00\n      swap1\n      sload\n      swap1\n      0x0100\n      exp\n      swap1\n      div\n      0xff\n      and\n        /* \"contracts/cropsFarmer.sol\":3931:3984  require(contractStarted, \"Contract not yet Started.\") */\n      tag_398\n      jumpi\n      mload(0x40)\n      0x08c379a000000000000000000000000000000000000000000000000000000000\n      dup2\n      mstore\n      0x04\n      add\n      tag_399\n      swap1\n      tag_400\n      jump\t// in\n    tag_399:\n      mload(0x40)\n      dup1\n      swap2\n      sub\n      swap1\n      revert\n    tag_398:\n        /* \"contracts/cropsFarmer.sol\":3995:4011  uint256 eggsUsed */\n      0x00\n        /* \"contracts/cropsFarmer.sol\":4014:4025  getMyEggs() */\n      tag_401\n        /* \"contracts/cropsFarmer.sol\":4014:4023  getMyEggs */\n      tag_172\n        /* \"contracts/cropsFarmer.sol\":4014:4025  getMyEggs() */\n      jump\t// in\n    tag_401:\n        /* \"contracts/cropsFarmer.sol\":3995:4025  uint256 eggsUsed = getMyEggs() */\n      swap1\n      pop\n        /* \"contracts/cropsFarmer.sol\":4035:4058  uint256 eggsForCompound */\n      0x00\n        /* \"contracts/cropsFarmer.sol\":4061:4069  eggsUsed */\n      dup2\n        /* \"contracts/cropsFarmer.sol\":4035:4069  uint256 eggsForCompound = eggsUsed */\n      swap1\n      pop\n        /* \"contracts/cropsFarmer.sol\":4083:4093  isCompound */\n      dup4\n        /* \"contracts/cropsFarmer.sol\":4080:4471  if(isCompound) {... */\n      iszero\n      tag_402\n      jumpi\n        /* \"contracts/cropsFarmer.sol\":4109:4135  uint256 dailyCompoundBonus */\n      0x00\n        /* \"contracts/cropsFarmer.sol\":4138:4188  getDailyCompoundBonus(msg.sender, eggsForCompound) */\n      tag_403\n        /* \"contracts/cropsFarmer.sol\":4160:4170  msg.sender */\n      caller\n        /* \"contracts/cropsFarmer.sol\":4172:4187  eggsForCompound */\n      dup4\n        /* \"contracts/cropsFarmer.sol\":4138:4159  getDailyCompoundBonus */\n      tag_195\n        /* \"contracts/cropsFarmer.sol\":4138:4188  getDailyCompoundBonus(msg.sender, eggsForCompound) */\n      jump\t// in\n    tag_403:\n        /* \"contracts/cropsFarmer.sol\":4109:4188  uint256 dailyCompoundBonus = getDailyCompoundBonus(msg.sender, eggsForCompound) */\n      swap1\n      pop\n        /* \"contracts/cropsFarmer.sol\":4220:4259  eggsForCompound.add(dailyCompoundBonus) */\n      tag_404\n        /* \"contracts/cropsFarmer.sol\":4240:4258  dailyCompoundBonus */\n      dup2\n        /* \"contracts/cropsFarmer.sol\":4220:4235  eggsForCompound */\n      dup4\n        /* \"contracts/cropsFarmer.sol\":4220:4239  eggsForCompound.add */\n      tag_405\n      swap1\n        /* \"contracts/cropsFarmer.sol\":4220:4259  eggsForCompound.add(dailyCompoundBonus) */\n      swap2\n      swap1\n      0xffffffff\n      and\n      jump\t// in\n    tag_404:\n        /* \"contracts/cropsFarmer.sol\":4202:4259  eggsForCompound = eggsForCompound.add(dailyCompoundBonus) */\n      swap2\n      pop\n        /* \"contracts/cropsFarmer.sol\":4273:4294  uint256 eggsUsedValue */\n      0x00\n        /* \"contracts/cropsFarmer.sol\":4297:4330  calculateEggSell(eggsForCompound) */\n      tag_406\n        /* \"contracts/cropsFarmer.sol\":4314:4329  eggsForCompound */\n      dup4\n        /* \"contracts/cropsFarmer.sol\":4297:4313  calculateEggSell */\n      tag_287\n        /* \"contracts/cropsFarmer.sol\":4297:4330  calculateEggSell(eggsForCompound) */\n      jump\t// in\n    tag_406:\n        /* \"contracts/cropsFarmer.sol\":4273:4330  uint256 eggsUsedValue = calculateEggSell(eggsForCompound) */\n      swap1\n      pop\n        /* \"contracts/cropsFarmer.sol\":4363:4398  user.userDeposit.add(eggsUsedValue) */\n      tag_407\n        /* \"contracts/cropsFarmer.sol\":4384:4397  eggsUsedValue */\n      dup2\n        /* \"contracts/cropsFarmer.sol\":4363:4367  user */\n      dup7\n        /* \"contracts/cropsFarmer.sol\":4363:4379  user.userDeposit */\n      0x01\n      add\n      sload\n        /* \"contracts/cropsFarmer.sol\":4363:4383  user.userDeposit.add */\n      tag_405\n      swap1\n        /* \"contracts/cropsFarmer.sol\":4363:4398  user.userDeposit.add(eggsUsedValue) */\n      swap2\n      swap1\n      0xffffffff\n      and\n      jump\t// in\n    tag_407:\n        /* \"contracts/cropsFarmer.sol\":4344:4348  user */\n      dup6\n        /* \"contracts/cropsFarmer.sol\":4344:4360  user.userDeposit */\n      0x01\n      add\n        /* \"contracts/cropsFarmer.sol\":4344:4398  user.userDeposit = user.userDeposit.add(eggsUsedValue) */\n      dup2\n      swap1\n      sstore\n      pop\n        /* \"contracts/cropsFarmer.sol\":4428:4460  totalCompound.add(eggsUsedValue) */\n      tag_408\n        /* \"contracts/cropsFarmer.sol\":4446:4459  eggsUsedValue */\n      dup2\n        /* \"contracts/cropsFarmer.sol\":4428:4441  totalCompound */\n      sload(0x0f)\n        /* \"contracts/cropsFarmer.sol\":4428:4445  totalCompound.add */\n      tag_405\n      swap1\n        /* \"contracts/cropsFarmer.sol\":4428:4460  totalCompound.add(eggsUsedValue) */\n      swap2\n      swap1\n      0xffffffff\n      and\n      jump\t// in\n    tag_408:\n        /* \"contracts/cropsFarmer.sol\":4412:4425  totalCompound */\n      0x0f\n        /* \"contracts/cropsFarmer.sol\":4412:4460  totalCompound = totalCompound.add(eggsUsedValue) */\n      dup2\n      swap1\n      sstore\n      pop\n        /* \"contracts/cropsFarmer.sol\":4095:4471  {... */\n      pop\n      pop\n        /* \"contracts/cropsFarmer.sol\":4080:4471  if(isCompound) {... */\n    tag_402:\n        /* \"contracts/cropsFarmer.sol\":4524:4537  COMPOUND_STEP */\n      sload(0x0a)\n        /* \"contracts/cropsFarmer.sol\":4485:4520  block.timestamp.sub(user.lastHatch) */\n      tag_409\n        /* \"contracts/cropsFarmer.sol\":4505:4509  user */\n      dup5\n        /* \"contracts/cropsFarmer.sol\":4505:4519  user.lastHatch */\n      0x04\n      add\n      sload\n        /* \"contracts/cropsFarmer.sol\":4485:4500  block.timestamp */\n      timestamp\n        /* \"contracts/cropsFarmer.sol\":4485:4504  block.timestamp.sub */\n      tag_410\n      swap1\n        /* \"contracts/cropsFarmer.sol\":4485:4520  block.timestamp.sub(user.lastHatch) */\n      swap2\n      swap1\n      0xffffffff\n      and\n      jump\t// in\n    tag_409:\n        /* \"contracts/cropsFarmer.sol\":4485:4537  block.timestamp.sub(user.lastHatch) >= COMPOUND_STEP */\n      lt\n        /* \"contracts/cropsFarmer.sol\":4482:4837  if(block.timestamp.sub(user.lastHatch) >= COMPOUND_STEP) {... */\n      tag_411\n      jumpi\n        /* \"contracts/cropsFarmer.sol\":4582:4606  COMPOUND_BONUS_MAX_TIMES */\n      sload(0x09)\n        /* \"contracts/cropsFarmer.sol\":4556:4560  user */\n      dup4\n        /* \"contracts/cropsFarmer.sol\":4556:4579  user.dailyCompoundBonus */\n      0x09\n      add\n      sload\n        /* \"contracts/cropsFarmer.sol\":4556:4606  user.dailyCompoundBonus < COMPOUND_BONUS_MAX_TIMES */\n      lt\n        /* \"contracts/cropsFarmer.sol\":4553:4697  if(user.dailyCompoundBonus < COMPOUND_BONUS_MAX_TIMES) {... */\n      iszero\n      tag_412\n      jumpi\n        /* \"contracts/cropsFarmer.sol\":4652:4682  user.dailyCompoundBonus.add(1) */\n      tag_413\n        /* \"contracts/cropsFarmer.sol\":4680:4681  1 */\n      0x01\n        /* \"contracts/cropsFarmer.sol\":4652:4656  user */\n      dup5\n        /* \"contracts/cropsFarmer.sol\":4652:4675  user.dailyCompoundBonus */\n      0x09\n      add\n      sload\n        /* \"contracts/cropsFarmer.sol\":4652:4679  user.dailyCompoundBonus.add */\n      tag_405\n      swap1\n        /* \"contracts/cropsFarmer.sol\":4652:4682  user.dailyCompoundBonus.add(1) */\n      swap2\n      swap1\n      0xffffffff\n      and\n      jump\t// in\n    tag_413:\n        /* \"contracts/cropsFarmer.sol\":4626:4630  user */\n      dup4\n        /* \"contracts/cropsFarmer.sol\":4626:4649  user.dailyCompoundBonus */\n      0x09\n      add\n        /* \"contracts/cropsFarmer.sol\":4626:4682  user.dailyCompoundBonus = user.dailyCompoundBonus.add(1) */\n      dup2\n      swap1\n      sstore\n      pop\n        /* \"contracts/cropsFarmer.sol\":4553:4697  if(user.dailyCompoundBonus < COMPOUND_BONUS_MAX_TIMES) {... */\n    tag_412:\n        /* \"contracts/cropsFarmer.sol\":4794:4826  user.farmerCompoundCount .add(1) */\n      tag_414\n        /* \"contracts/cropsFarmer.sol\":4824:4825  1 */\n      0x01\n        /* \"contracts/cropsFarmer.sol\":4794:4798  user */\n      dup5\n        /* \"contracts/cropsFarmer.sol\":4794:4818  user.farmerCompoundCount */\n      0x0a\n      add\n      sload\n        /* \"contracts/cropsFarmer.sol\":4794:4823  user.farmerCompoundCount .add */\n      tag_405\n      swap1\n        /* \"contracts/cropsFarmer.sol\":4794:4826  user.farmerCompoundCount .add(1) */\n      swap2\n      swap1\n      0xffffffff\n      and\n      jump\t// in\n    tag_414:\n        /* \"contracts/cropsFarmer.sol\":4767:4771  user */\n      dup4\n        /* \"contracts/cropsFarmer.sol\":4767:4791  user.farmerCompoundCount */\n      0x0a\n      add\n        /* \"contracts/cropsFarmer.sol\":4767:4826  user.farmerCompoundCount = user.farmerCompoundCount .add(1) */\n      dup2\n      swap1\n      sstore\n      pop\n        /* \"contracts/cropsFarmer.sol\":4482:4837  if(block.timestamp.sub(user.lastHatch) >= COMPOUND_STEP) {... */\n    tag_411:\n        /* \"contracts/cropsFarmer.sol\":4869:4927  user.miners.add(eggsForCompound.div(EGGS_TO_HIRE_1MINERS)) */\n      tag_415\n        /* \"contracts/cropsFarmer.sol\":4885:4926  eggsForCompound.div(EGGS_TO_HIRE_1MINERS) */\n      tag_416\n        /* \"contracts/cropsFarmer.sol\":4905:4925  EGGS_TO_HIRE_1MINERS */\n      sload(0x00)\n        /* \"contracts/cropsFarmer.sol\":4885:4900  eggsForCompound */\n      dup4\n        /* \"contracts/cropsFarmer.sol\":4885:4904  eggsForCompound.div */\n      tag_417\n      swap1\n        /* \"contracts/cropsFarmer.sol\":4885:4926  eggsForCompound.div(EGGS_TO_HIRE_1MINERS) */\n      swap2\n      swap1\n      0xffffffff\n      and\n      jump\t// in\n    tag_416:\n        /* \"contracts/cropsFarmer.sol\":4869:4873  user */\n      dup5\n        /* \"contracts/cropsFarmer.sol\":4869:4880  user.miners */\n      0x02\n      add\n      sload\n        /* \"contracts/cropsFarmer.sol\":4869:4884  user.miners.add */\n      tag_405\n      swap1\n        /* \"contracts/cropsFarmer.sol\":4869:4927  user.miners.add(eggsForCompound.div(EGGS_TO_HIRE_1MINERS)) */\n      swap2\n      swap1\n      0xffffffff\n      and\n      jump\t// in\n    tag_415:\n        /* \"contracts/cropsFarmer.sol\":4855:4859  user */\n      dup4\n        /* \"contracts/cropsFarmer.sol\":4855:4866  user.miners */\n      0x02\n      add\n        /* \"contracts/cropsFarmer.sol\":4855:4927  user.miners = user.miners.add(eggsForCompound.div(EGGS_TO_HIRE_1MINERS)) */\n      dup2\n      swap1\n      sstore\n      pop\n        /* \"contracts/cropsFarmer.sol\":4956:4957  0 */\n      0x00\n        /* \"contracts/cropsFarmer.sol\":4937:4941  user */\n      dup4\n        /* \"contracts/cropsFarmer.sol\":4937:4953  user.claimedEggs */\n      0x03\n      add\n        /* \"contracts/cropsFarmer.sol\":4937:4957  user.claimedEggs = 0 */\n      dup2\n      swap1\n      sstore\n      pop\n        /* \"contracts/cropsFarmer.sol\":4984:4999  block.timestamp */\n      timestamp\n        /* \"contracts/cropsFarmer.sol\":4967:4971  user */\n      dup4\n        /* \"contracts/cropsFarmer.sol\":4967:4981  user.lastHatch */\n      0x04\n      add\n        /* \"contracts/cropsFarmer.sol\":4967:4999  user.lastHatch = block.timestamp */\n      dup2\n      swap1\n      sstore\n      pop\n        /* \"contracts/cropsFarmer.sol\":5023:5072  marketEggs.add(eggsUsed.div(MARKET_EGGS_DIVISOR)) */\n      tag_418\n        /* \"contracts/cropsFarmer.sol\":5038:5071  eggsUsed.div(MARKET_EGGS_DIVISOR) */\n      tag_419\n        /* \"contracts/cropsFarmer.sol\":5051:5070  MARKET_EGGS_DIVISOR */\n      sload(0x05)\n        /* \"contracts/cropsFarmer.sol\":5038:5046  eggsUsed */\n      dup5\n        /* \"contracts/cropsFarmer.sol\":5038:5050  eggsUsed.div */\n      tag_417\n      swap1\n        /* \"contracts/cropsFarmer.sol\":5038:5071  eggsUsed.div(MARKET_EGGS_DIVISOR) */\n      swap2\n      swap1\n      0xffffffff\n      and\n      jump\t// in\n    tag_419:\n        /* \"contracts/cropsFarmer.sol\":5023:5033  marketEggs */\n      sload(0x12)\n        /* \"contracts/cropsFarmer.sol\":5023:5037  marketEggs.add */\n      tag_405\n      swap1\n        /* \"contracts/cropsFarmer.sol\":5023:5072  marketEggs.add(eggsUsed.div(MARKET_EGGS_DIVISOR)) */\n      swap2\n      swap1\n      0xffffffff\n      and\n      jump\t// in\n    tag_418:\n        /* \"contracts/cropsFarmer.sol\":5010:5020  marketEggs */\n      0x12\n        /* \"contracts/cropsFarmer.sol\":5010:5072  marketEggs = marketEggs.add(eggsUsed.div(MARKET_EGGS_DIVISOR)) */\n      dup2\n      swap1\n      sstore\n      pop\n        /* \"contracts/cropsFarmer.sol\":3874:5079  {... */\n      pop\n      pop\n      pop\n        /* \"contracts/cropsFarmer.sol\":3825:5079  function hireMoreFarmers(bool isCompound) public {... */\n      pop\n      jump\t// out\n        /* \"contracts/cropsFarmer.sol\":139:184  uint256 public EGGS_TO_HIRE_1MINERS = 1440000 */\n    tag_121:\n      sload(0x00)\n      dup2\n      jump\t// out\n        /* \"contracts/cropsFarmer.sol\":15639:15795  function PRC_MKT(uint256 value) external {... */\n    tag_127:\n        /* \"contracts/cropsFarmer.sol\":15712:15717  owner */\n      0x19\n      0x00\n      swap1\n      sload\n      swap1\n      0x0100\n      exp\n      swap1\n      div\n      0xffffffffffffffffffffffffffffffffffffffff\n      and\n        /* \"contracts/cropsFarmer.sol\":15698:15717  msg.sender == owner */\n      0xffffffffffffffffffffffffffffffffffffffff\n      and\n        /* \"contracts/cropsFarmer.sol\":15698:15708  msg.sender */\n      caller\n        /* \"contracts/cropsFarmer.sol\":15698:15717  msg.sender == owner */\n      0xffffffffffffffffffffffffffffffffffffffff\n      and\n      eq\n        /* \"contracts/cropsFarmer.sol\":15690:15737  require(msg.sender == owner, \"Admin use only.\") */\n      tag_421\n      jumpi\n      mload(0x40)\n      0x08c379a000000000000000000000000000000000000000000000000000000000\n      dup2\n      mstore\n      0x04\n      add\n      tag_422\n      swap1\n      tag_423\n      jump\t// in\n    tag_422:\n      mload(0x40)\n      dup1\n      swap2\n      sub\n      swap1\n      revert\n    tag_421:\n        /* \"contracts/cropsFarmer.sol\":15764:15766  20 */\n      0x14\n        /* \"contracts/cropsFarmer.sol\":15755:15760  value */\n      dup2\n        /* \"contracts/cropsFarmer.sol\":15755:15766  value <= 20 */\n      gt\n      iszero\n        /* \"contracts/cropsFarmer.sol\":15747:15767  require(value <= 20) */\n      tag_424\n      jumpi\n      0x00\n      dup1\n      revert\n    tag_424:\n        /* \"contracts/cropsFarmer.sol\":15783:15788  value */\n      dup1\n        /* \"contracts/cropsFarmer.sol\":15777:15780  MKT */\n      0x04\n        /* \"contracts/cropsFarmer.sol\":15777:15788  MKT = value */\n      dup2\n      swap1\n      sstore\n      pop\n        /* \"contracts/cropsFarmer.sol\":15639:15795  function PRC_MKT(uint256 value) external {... */\n      pop\n      jump\t// out\n        /* \"contracts/cropsFarmer.sol\":11415:11863  function calculateTrade(uint256 rt,uint256 rs, uint256 bs) public view returns(uint256){... */\n    tag_132:\n        /* \"contracts/cropsFarmer.sol\":11494:11501  uint256 */\n      0x00\n        /* \"contracts/cropsFarmer.sol\":11519:11856  SafeMath.div(... */\n      tag_426\n        /* \"contracts/cropsFarmer.sol\":11549:11570  SafeMath.mul(PSN, bs) */\n      tag_427\n        /* \"contracts/cropsFarmer.sol\":11562:11565  PSN */\n      sload(0x13)\n        /* \"contracts/cropsFarmer.sol\":11567:11569  bs */\n      dup5\n        /* \"contracts/cropsFarmer.sol\":11549:11561  SafeMath.mul */\n      tag_428\n        /* \"contracts/cropsFarmer.sol\":11549:11570  SafeMath.mul(PSN, bs) */\n      jump\t// in\n    tag_427:\n        /* \"contracts/cropsFarmer.sol\":11593:11855  SafeMath.add(PSNH, ... */\n      tag_429\n        /* \"contracts/cropsFarmer.sol\":11606:11610  PSNH */\n      sload(0x14)\n        /* \"contracts/cropsFarmer.sol\":11637:11854  SafeMath.div(... */\n      tag_430\n        /* \"contracts/cropsFarmer.sol\":11679:11808  SafeMath.add(... */\n      tag_431\n        /* \"contracts/cropsFarmer.sol\":11725:11746  SafeMath.mul(PSN, rs) */\n      tag_432\n        /* \"contracts/cropsFarmer.sol\":11738:11741  PSN */\n      sload(0x13)\n        /* \"contracts/cropsFarmer.sol\":11743:11745  rs */\n      dup11\n        /* \"contracts/cropsFarmer.sol\":11725:11737  SafeMath.mul */\n      tag_428\n        /* \"contracts/cropsFarmer.sol\":11725:11746  SafeMath.mul(PSN, rs) */\n      jump\t// in\n    tag_432:\n        /* \"contracts/cropsFarmer.sol\":11785:11807  SafeMath.mul(PSNH, rt) */\n      tag_433\n        /* \"contracts/cropsFarmer.sol\":11798:11802  PSNH */\n      sload(0x14)\n        /* \"contracts/cropsFarmer.sol\":11804:11806  rt */\n      dup13\n        /* \"contracts/cropsFarmer.sol\":11785:11797  SafeMath.mul */\n      tag_428\n        /* \"contracts/cropsFarmer.sol\":11785:11807  SafeMath.mul(PSNH, rt) */\n      jump\t// in\n    tag_433:\n        /* \"contracts/cropsFarmer.sol\":11679:11691  SafeMath.add */\n      tag_405\n        /* \"contracts/cropsFarmer.sol\":11679:11808  SafeMath.add(... */\n      jump\t// in\n    tag_431:\n        /* \"contracts/cropsFarmer.sol\":11851:11853  rt */\n      dup10\n        /* \"contracts/cropsFarmer.sol\":11637:11649  SafeMath.div */\n      tag_417\n        /* \"contracts/cropsFarmer.sol\":11637:11854  SafeMath.div(... */\n      jump\t// in\n    tag_430:\n        /* \"contracts/cropsFarmer.sol\":11593:11605  SafeMath.add */\n      tag_405\n        /* \"contracts/cropsFarmer.sol\":11593:11855  SafeMath.add(PSNH, ... */\n      jump\t// in\n    tag_429:\n        /* \"contracts/cropsFarmer.sol\":11519:11531  SafeMath.div */\n      tag_417\n        /* \"contracts/cropsFarmer.sol\":11519:11856  SafeMath.div(... */\n      jump\t// in\n    tag_426:\n        /* \"contracts/cropsFarmer.sol\":11512:11856  return SafeMath.div(... */\n      swap1\n      pop\n        /* \"contracts/cropsFarmer.sol\":11415:11863  function calculateTrade(uint256 rt,uint256 rs, uint256 bs) public view returns(uint256){... */\n      swap4\n      swap3\n      pop\n      pop\n      pop\n      jump\t// out\n        /* \"contracts/cropsFarmer.sol\":1322:1349  address payable public dev3 */\n    tag_136:\n      0x1c\n      0x00\n      swap1\n      sload\n      swap1\n      0x0100\n      exp\n      swap1\n      div\n      0xffffffffffffffffffffffffffffffffffffffff\n      and\n      dup2\n      jump\t// out\n        /* \"contracts/cropsFarmer.sol\":12013:12175  function calculateEggBuy(uint256 eth,uint256 contractBalance) public view returns(uint256){... */\n    tag_142:\n        /* \"contracts/cropsFarmer.sol\":12095:12102  uint256 */\n      0x00\n        /* \"contracts/cropsFarmer.sol\":12120:12168  calculateTrade(eth, contractBalance, marketEggs) */\n      tag_435\n        /* \"contracts/cropsFarmer.sol\":12135:12138  eth */\n      dup4\n        /* \"contracts/cropsFarmer.sol\":12140:12155  contractBalance */\n      dup4\n        /* \"contracts/cropsFarmer.sol\":12157:12167  marketEggs */\n      sload(0x12)\n        /* \"contracts/cropsFarmer.sol\":12120:12134  calculateTrade */\n      tag_132\n        /* \"contracts/cropsFarmer.sol\":12120:12168  calculateTrade(eth, contractBalance, marketEggs) */\n      jump\t// in\n    tag_435:\n        /* \"contracts/cropsFarmer.sol\":12113:12168  return calculateTrade(eth, contractBalance, marketEggs) */\n      swap1\n      pop\n        /* \"contracts/cropsFarmer.sol\":12013:12175  function calculateEggBuy(uint256 eth,uint256 contractBalance) public view returns(uint256){... */\n      swap3\n      swap2\n      pop\n      pop\n      jump\t// out\n        /* \"contracts/cropsFarmer.sol\":15477:15633  function PRC_TAX(uint256 value) external {... */\n    tag_147:\n        /* \"contracts/cropsFarmer.sol\":15550:15555  owner */\n      0x19\n      0x00\n      swap1\n      sload\n      swap1\n      0x0100\n      exp\n      swap1\n      div\n      0xffffffffffffffffffffffffffffffffffffffff\n      and\n        /* \"contracts/cropsFarmer.sol\":15536:15555  msg.sender == owner */\n      0xffffffffffffffffffffffffffffffffffffffff\n      and\n        /* \"contracts/cropsFarmer.sol\":15536:15546  msg.sender */\n      caller\n        /* \"contracts/cropsFarmer.sol\":15536:15555  msg.sender == owner */\n      0xffffffffffffffffffffffffffffffffffffffff\n      and\n      eq\n        /* \"contracts/cropsFarmer.sol\":15528:15575  require(msg.sender == owner, \"Admin use only.\") */\n      tag_437\n      jumpi\n      mload(0x40)\n      0x08c379a000000000000000000000000000000000000000000000000000000000\n      dup2\n      mstore\n      0x04\n      add\n      tag_438\n      swap1\n      tag_423\n      jump\t// in\n    tag_438:\n      mload(0x40)\n      dup1\n      swap2\n      sub\n      swap1\n      revert\n    tag_437:\n        /* \"contracts/cropsFarmer.sol\":15602:15604  15 */\n      0x0f\n        /* \"contracts/cropsFarmer.sol\":15593:15598  value */\n      dup2\n        /* \"contracts/cropsFarmer.sol\":15593:15604  value <= 15 */\n      gt\n      iszero\n        /* \"contracts/cropsFarmer.sol\":15585:15605  require(value <= 15) */\n      tag_439\n      jumpi\n      0x00\n      dup1\n      revert\n    tag_439:\n        /* \"contracts/cropsFarmer.sol\":15621:15626  value */\n      dup1\n        /* \"contracts/cropsFarmer.sol\":15615:15618  TAX */\n      0x03\n        /* \"contracts/cropsFarmer.sol\":15615:15626  TAX = value */\n      dup2\n      swap1\n      sstore\n      pop\n        /* \"contracts/cropsFarmer.sol\":15477:15633  function PRC_TAX(uint256 value) external {... */\n      pop\n      jump\t// out\n        /* \"contracts/cropsFarmer.sol\":14017:14154  function CHANGE_OWNERSHIP(address value) external {... */\n    tag_152:\n        /* \"contracts/cropsFarmer.sol\":14099:14104  owner */\n      0x19\n      0x00\n      swap1\n      sload\n      swap1\n      0x0100\n      exp\n      swap1\n      div\n      0xffffffffffffffffffffffffffffffffffffffff\n      and\n        /* \"contracts/cropsFarmer.sol\":14085:14104  msg.sender == owner */\n      0xffffffffffffffffffffffffffffffffffffffff\n      and\n        /* \"contracts/cropsFarmer.sol\":14085:14095  msg.sender */\n      caller\n        /* \"contracts/cropsFarmer.sol\":14085:14104  msg.sender == owner */\n      0xffffffffffffffffffffffffffffffffffffffff\n      and\n      eq\n        /* \"contracts/cropsFarmer.sol\":14077:14124  require(msg.sender == owner, \"Admin use only.\") */\n      tag_441\n      jumpi\n      mload(0x40)\n      0x08c379a000000000000000000000000000000000000000000000000000000000\n      dup2\n      mstore\n      0x04\n      add\n      tag_442\n      swap1\n      tag_423\n      jump\t// in\n    tag_442:\n      mload(0x40)\n      dup1\n      swap2\n      sub\n      swap1\n      revert\n    tag_441:\n        /* \"contracts/cropsFarmer.sol\":14142:14147  value */\n      dup1\n        /* \"contracts/cropsFarmer.sol\":14134:14139  owner */\n      0x19\n      0x00\n        /* \"contracts/cropsFarmer.sol\":14134:14147  owner = value */\n      0x0100\n      exp\n      dup2\n      sload\n      dup2\n      0xffffffffffffffffffffffffffffffffffffffff\n      mul\n      not\n      and\n      swap1\n      dup4\n      0xffffffffffffffffffffffffffffffffffffffff\n      and\n      mul\n      or\n      swap1\n      sstore\n      pop\n        /* \"contracts/cropsFarmer.sol\":14017:14154  function CHANGE_OWNERSHIP(address value) external {... */\n      pop\n      jump\t// out\n        /* \"contracts/cropsFarmer.sol\":296:319  uint256 public MKT = 12 */\n    tag_155:\n      sload(0x04)\n      dup2\n      jump\t// out\n        /* \"contracts/cropsFarmer.sol\":912:937  uint256 public marketEggs */\n    tag_159:\n      sload(0x12)\n      dup2\n      jump\t// out\n        /* \"contracts/cropsFarmer.sol\":993:1020  bool public contractStarted */\n    tag_163:\n      0x15\n      0x00\n      swap1\n      sload\n      swap1\n      0x0100\n      exp\n      swap1\n      div\n      0xff\n      and\n      dup2\n      jump\t// out\n        /* \"contracts/cropsFarmer.sol\":1113:1154  uint256 public CUTOFF_STEP = 48 * 60 * 60 */\n    tag_168:\n      sload(0x17)\n      dup2\n      jump\t// out\n        /* \"contracts/cropsFarmer.sol\":13349:13490  function getMyEggs() public view returns(uint256){... */\n    tag_172:\n        /* \"contracts/cropsFarmer.sol\":13390:13397  uint256 */\n      0x00\n        /* \"contracts/cropsFarmer.sol\":13415:13483  users[msg.sender].claimedEggs.add(getEggsSinceLastHatch(msg.sender)) */\n      tag_444\n        /* \"contracts/cropsFarmer.sol\":13449:13482  getEggsSinceLastHatch(msg.sender) */\n      tag_445\n        /* \"contracts/cropsFarmer.sol\":13471:13481  msg.sender */\n      caller\n        /* \"contracts/cropsFarmer.sol\":13449:13470  getEggsSinceLastHatch */\n      tag_359\n        /* \"contracts/cropsFarmer.sol\":13449:13482  getEggsSinceLastHatch(msg.sender) */\n      jump\t// in\n    tag_445:\n        /* \"contracts/cropsFarmer.sol\":13415:13420  users */\n      0x20\n        /* \"contracts/cropsFarmer.sol\":13415:13432  users[msg.sender] */\n      0x00\n        /* \"contracts/cropsFarmer.sol\":13421:13431  msg.sender */\n      caller\n        /* \"contracts/cropsFarmer.sol\":13415:13432  users[msg.sender] */\n      0xffffffffffffffffffffffffffffffffffffffff\n      and\n      0xffffffffffffffffffffffffffffffffffffffff\n      and\n      dup2\n      mstore\n      0x20\n      add\n      swap1\n      dup2\n      mstore\n      0x20\n      add\n      0x00\n      keccak256\n        /* \"contracts/cropsFarmer.sol\":13415:13444  users[msg.sender].claimedEggs */\n      0x03\n      add\n      sload\n        /* \"contracts/cropsFarmer.sol\":13415:13448  users[msg.sender].claimedEggs.add */\n      tag_405\n      swap1\n        /* \"contracts/cropsFarmer.sol\":13415:13483  users[msg.sender].claimedEggs.add(getEggsSinceLastHatch(msg.sender)) */\n      swap2\n      swap1\n      0xffffffff\n      and\n      jump\t// in\n    tag_444:\n        /* \"contracts/cropsFarmer.sol\":13408:13483  return users[msg.sender].claimedEggs.add(getEggsSinceLastHatch(msg.sender)) */\n      swap1\n      pop\n        /* \"contracts/cropsFarmer.sol\":13349:13490  function getMyEggs() public view returns(uint256){... */\n      swap1\n      jump\t// out\n        /* \"contracts/cropsFarmer.sol\":17291:17484  function SET_WITHDRAW_COOLDOWN(uint256 value) external {... */\n    tag_177:\n        /* \"contracts/cropsFarmer.sol\":17378:17383  owner */\n      0x19\n      0x00\n      swap1\n      sload\n      swap1\n      0x0100\n      exp\n      swap1\n      div\n      0xffffffffffffffffffffffffffffffffffffffff\n      and\n        /* \"contracts/cropsFarmer.sol\":17364:17383  msg.sender == owner */\n      0xffffffffffffffffffffffffffffffffffffffff\n      and\n        /* \"contracts/cropsFarmer.sol\":17364:17374  msg.sender */\n      caller\n        /* \"contracts/cropsFarmer.sol\":17364:17383  msg.sender == owner */\n      0xffffffffffffffffffffffffffffffffffffffff\n      and\n      eq\n        /* \"contracts/cropsFarmer.sol\":17356:17402  require(msg.sender == owner, \"Admin use only\") */\n      tag_447\n      jumpi\n      mload(0x40)\n      0x08c379a000000000000000000000000000000000000000000000000000000000\n      dup2\n      mstore\n      0x04\n      add\n      tag_448\n      swap1\n      tag_449\n      jump\t// in\n    tag_448:\n      mload(0x40)\n      dup1\n      swap2\n      sub\n      swap1\n      revert\n    tag_447:\n        /* \"contracts/cropsFarmer.sol\":17429:17431  24 */\n      0x18\n        /* \"contracts/cropsFarmer.sol\":17420:17425  value */\n      dup2\n        /* \"contracts/cropsFarmer.sol\":17420:17431  value <= 24 */\n      gt\n      iszero\n        /* \"contracts/cropsFarmer.sol\":17412:17432  require(value <= 24) */\n      tag_450\n      jumpi\n      0x00\n      dup1\n      revert\n    tag_450:\n        /* \"contracts/cropsFarmer.sol\":17475:17477  60 */\n      0x3c\n        /* \"contracts/cropsFarmer.sol\":17470:17472  60 */\n      dup1\n        /* \"contracts/cropsFarmer.sol\":17462:17467  value */\n      dup3\n        /* \"contracts/cropsFarmer.sol\":17462:17472  value * 60 */\n      tag_451\n      swap2\n      swap1\n      tag_452\n      jump\t// in\n    tag_451:\n        /* \"contracts/cropsFarmer.sol\":17462:17477  value * 60 * 60 */\n      tag_453\n      swap2\n      swap1\n      tag_452\n      jump\t// in\n    tag_453:\n        /* \"contracts/cropsFarmer.sol\":17442:17459  WITHDRAW_COOLDOWN */\n      0x18\n        /* \"contracts/cropsFarmer.sol\":17442:17477  WITHDRAW_COOLDOWN = value * 60 * 60 */\n      dup2\n      swap1\n      sstore\n      pop\n        /* \"contracts/cropsFarmer.sol\":17291:17484  function SET_WITHDRAW_COOLDOWN(uint256 value) external {... */\n      pop\n      jump\t// out\n        /* \"contracts/cropsFarmer.sol\":16976:17128  function SET_INVEST_MIN(uint256 value) external {... */\n    tag_181:\n        /* \"contracts/cropsFarmer.sol\":17056:17061  owner */\n      0x19\n      0x00\n      swap1\n      sload\n      swap1\n      0x0100\n      exp\n      swap1\n      div\n      0xffffffffffffffffffffffffffffffffffffffff\n      and\n        /* \"contracts/cropsFarmer.sol\":17042:17061  msg.sender == owner */\n      0xffffffffffffffffffffffffffffffffffffffff\n      and\n        /* \"contracts/cropsFarmer.sol\":17042:17052  msg.sender */\n      caller\n        /* \"contracts/cropsFarmer.sol\":17042:17061  msg.sender == owner */\n      0xffffffffffffffffffffffffffffffffffffffff\n      and\n      eq\n        /* \"contracts/cropsFarmer.sol\":17034:17080  require(msg.sender == owner, \"Admin use only\") */\n      tag_455\n      jumpi\n      mload(0x40)\n      0x08c379a000000000000000000000000000000000000000000000000000000000\n      dup2\n      mstore\n      0x04\n      add\n      tag_456\n      swap1\n      tag_449\n      jump\t// in\n    tag_456:\n      mload(0x40)\n      dup1\n      swap2\n      sub\n      swap1\n      revert\n    tag_455:\n        /* \"contracts/cropsFarmer.sol\":17117:17121  1e17 */\n      0x016345785d8a0000\n        /* \"contracts/cropsFarmer.sol\":17109:17114  value */\n      dup2\n        /* \"contracts/cropsFarmer.sol\":17109:17121  value * 1e17 */\n      tag_457\n      swap2\n      swap1\n      tag_452\n      jump\t// in\n    tag_457:\n        /* \"contracts/cropsFarmer.sol\":17090:17106  MIN_INVEST_LIMIT */\n      0x06\n        /* \"contracts/cropsFarmer.sol\":17090:17121  MIN_INVEST_LIMIT = value * 1e17 */\n      dup2\n      swap1\n      sstore\n      pop\n        /* \"contracts/cropsFarmer.sol\":16976:17128  function SET_INVEST_MIN(uint256 value) external {... */\n      pop\n      jump\t// out\n        /* \"contracts/cropsFarmer.sol\":876:905  uint256 public totalWithdrawn */\n    tag_184:\n      sload(0x11)\n      dup2\n      jump\t// out\n        /* \"contracts/cropsFarmer.sol\":13018:13238  function getSiteInfo() public view returns (uint256 _totalStaked, uint256 _totalDeposits, uint256 _totalCompound, uint256 _totalRefBonus) {... */\n    tag_188:\n        /* \"contracts/cropsFarmer.sol\":13062:13082  uint256 _totalStaked */\n      0x00\n        /* \"contracts/cropsFarmer.sol\":13084:13106  uint256 _totalDeposits */\n      dup1\n        /* \"contracts/cropsFarmer.sol\":13108:13130  uint256 _totalCompound */\n      0x00\n        /* \"contracts/cropsFarmer.sol\":13132:13154  uint256 _totalRefBonus */\n      dup1\n        /* \"contracts/cropsFarmer.sol\":13174:13185  totalStaked */\n      sload(0x0d)\n        /* \"contracts/cropsFarmer.sol\":13187:13200  totalDeposits */\n      sload(0x0e)\n        /* \"contracts/cropsFarmer.sol\":13202:13215  totalCompound */\n      sload(0x0f)\n        /* \"contracts/cropsFarmer.sol\":13217:13230  totalRefBonus */\n      sload(0x10)\n        /* \"contracts/cropsFarmer.sol\":13166:13231  return (totalStaked, totalDeposits, totalCompound, totalRefBonus) */\n      swap4\n      pop\n      swap4\n      pop\n      swap4\n      pop\n      swap4\n      pop\n        /* \"contracts/cropsFarmer.sol\":13018:13238  function getSiteInfo() public view returns (uint256 _totalStaked, uint256 _totalDeposits, uint256 _totalCompound, uint256 _totalRefBonus) {... */\n      swap1\n      swap2\n      swap3\n      swap4\n      jump\t// out\n        /* \"contracts/cropsFarmer.sol\":9620:10003  function getDailyCompoundBonus(address _adr, uint256 amount) public view returns(uint256){... */\n    tag_195:\n        /* \"contracts/cropsFarmer.sol\":9701:9708  uint256 */\n      0x00\n        /* \"contracts/cropsFarmer.sol\":9756:9757  0 */\n      dup1\n        /* \"contracts/cropsFarmer.sol\":9722:9727  users */\n      0x20\n        /* \"contracts/cropsFarmer.sol\":9722:9733  users[_adr] */\n      0x00\n        /* \"contracts/cropsFarmer.sol\":9728:9732  _adr */\n      dup6\n        /* \"contracts/cropsFarmer.sol\":9722:9733  users[_adr] */\n      0xffffffffffffffffffffffffffffffffffffffff\n      and\n      0xffffffffffffffffffffffffffffffffffffffff\n      and\n      dup2\n      mstore\n      0x20\n      add\n      swap1\n      dup2\n      mstore\n      0x20\n      add\n      0x00\n      keccak256\n        /* \"contracts/cropsFarmer.sol\":9722:9752  users[_adr].dailyCompoundBonus */\n      0x09\n      add\n      sload\n        /* \"contracts/cropsFarmer.sol\":9722:9757  users[_adr].dailyCompoundBonus == 0 */\n      eq\n        /* \"contracts/cropsFarmer.sol\":9719:9997  if(users[_adr].dailyCompoundBonus == 0) {... */\n      iszero\n      tag_460\n      jumpi\n        /* \"contracts/cropsFarmer.sol\":9780:9781  0 */\n      0x00\n        /* \"contracts/cropsFarmer.sol\":9773:9781  return 0 */\n      swap1\n      pop\n      jump(tag_459)\n        /* \"contracts/cropsFarmer.sol\":9719:9997  if(users[_adr].dailyCompoundBonus == 0) {... */\n    tag_460:\n        /* \"contracts/cropsFarmer.sol\":9812:9830  uint256 totalBonus */\n      0x00\n        /* \"contracts/cropsFarmer.sol\":9833:9883  users[_adr].dailyCompoundBonus.mul(COMPOUND_BONUS) */\n      tag_462\n        /* \"contracts/cropsFarmer.sol\":9868:9882  COMPOUND_BONUS */\n      sload(0x08)\n        /* \"contracts/cropsFarmer.sol\":9833:9838  users */\n      0x20\n        /* \"contracts/cropsFarmer.sol\":9833:9844  users[_adr] */\n      0x00\n        /* \"contracts/cropsFarmer.sol\":9839:9843  _adr */\n      dup8\n        /* \"contracts/cropsFarmer.sol\":9833:9844  users[_adr] */\n      0xffffffffffffffffffffffffffffffffffffffff\n      and\n      0xffffffffffffffffffffffffffffffffffffffff\n      and\n      dup2\n      mstore\n      0x20\n      add\n      swap1\n      dup2\n      mstore\n      0x20\n      add\n      0x00\n      keccak256\n        /* \"contracts/cropsFarmer.sol\":9833:9863  users[_adr].dailyCompoundBonus */\n      0x09\n      add\n      sload\n        /* \"contracts/cropsFarmer.sol\":9833:9867  users[_adr].dailyCompoundBonus.mul */\n      tag_428\n      swap1\n        /* \"contracts/cropsFarmer.sol\":9833:9883  users[_adr].dailyCompoundBonus.mul(COMPOUND_BONUS) */\n      swap2\n      swap1\n      0xffffffff\n      and\n      jump\t// in\n    tag_462:\n        /* \"contracts/cropsFarmer.sol\":9812:9883  uint256 totalBonus = users[_adr].dailyCompoundBonus.mul(COMPOUND_BONUS) */\n      swap1\n      pop\n        /* \"contracts/cropsFarmer.sol\":9898:9912  uint256 result */\n      0x00\n        /* \"contracts/cropsFarmer.sol\":9915:9959  amount.mul(totalBonus).div(PERCENTS_DIVIDER) */\n      tag_463\n        /* \"contracts/cropsFarmer.sol\":9942:9958  PERCENTS_DIVIDER */\n      sload(0x02)\n        /* \"contracts/cropsFarmer.sol\":9915:9937  amount.mul(totalBonus) */\n      tag_464\n        /* \"contracts/cropsFarmer.sol\":9926:9936  totalBonus */\n      dup5\n        /* \"contracts/cropsFarmer.sol\":9915:9921  amount */\n      dup8\n        /* \"contracts/cropsFarmer.sol\":9915:9925  amount.mul */\n      tag_428\n      swap1\n        /* \"contracts/cropsFarmer.sol\":9915:9937  amount.mul(totalBonus) */\n      swap2\n      swap1\n      0xffffffff\n      and\n      jump\t// in\n    tag_464:\n        /* \"contracts/cropsFarmer.sol\":9915:9941  amount.mul(totalBonus).div */\n      tag_417\n      swap1\n        /* \"contracts/cropsFarmer.sol\":9915:9959  amount.mul(totalBonus).div(PERCENTS_DIVIDER) */\n      swap2\n      swap1\n      0xffffffff\n      and\n      jump\t// in\n    tag_463:\n        /* \"contracts/cropsFarmer.sol\":9898:9959  uint256 result = amount.mul(totalBonus).div(PERCENTS_DIVIDER) */\n      swap1\n      pop\n        /* \"contracts/cropsFarmer.sol\":9980:9986  result */\n      dup1\n        /* \"contracts/cropsFarmer.sol\":9973:9986  return result */\n      swap3\n      pop\n      pop\n      pop\n        /* \"contracts/cropsFarmer.sol\":9620:10003  function getDailyCompoundBonus(address _adr, uint256 amount) public view returns(uint256){... */\n    tag_459:\n      swap3\n      swap2\n      pop\n      pop\n      jump\t// out\n        /* \"contracts/cropsFarmer.sol\":7451:9187  function hireFarmers(address ref) public payable{... */\n    tag_199:\n        /* \"contracts/cropsFarmer.sol\":7517:7532  contractStarted */\n      0x15\n      0x00\n      swap1\n      sload\n      swap1\n      0x0100\n      exp\n      swap1\n      div\n      0xff\n      and\n        /* \"contracts/cropsFarmer.sol\":7509:7562  require(contractStarted, \"Contract not yet Started.\") */\n      tag_466\n      jumpi\n      mload(0x40)\n      0x08c379a000000000000000000000000000000000000000000000000000000000\n      dup2\n      mstore\n      0x04\n      add\n      tag_467\n      swap1\n      tag_400\n      jump\t// in\n    tag_467:\n      mload(0x40)\n      dup1\n      swap2\n      sub\n      swap1\n      revert\n    tag_466:\n        /* \"contracts/cropsFarmer.sol\":7572:7589  User storage user */\n      0x00\n        /* \"contracts/cropsFarmer.sol\":7592:7597  users */\n      0x20\n        /* \"contracts/cropsFarmer.sol\":7592:7609  users[msg.sender] */\n      0x00\n        /* \"contracts/cropsFarmer.sol\":7598:7608  msg.sender */\n      caller\n        /* \"contracts/cropsFarmer.sol\":7592:7609  users[msg.sender] */\n      0xffffffffffffffffffffffffffffffffffffffff\n      and\n      0xffffffffffffffffffffffffffffffffffffffff\n      and\n      dup2\n      mstore\n      0x20\n      add\n      swap1\n      dup2\n      mstore\n      0x20\n      add\n      0x00\n      keccak256\n        /* \"contracts/cropsFarmer.sol\":7572:7609  User storage user = users[msg.sender] */\n      swap1\n      pop\n        /* \"contracts/cropsFarmer.sol\":7640:7656  MIN_INVEST_LIMIT */\n      sload(0x06)\n        /* \"contracts/cropsFarmer.sol\":7627:7636  msg.value */\n      callvalue\n        /* \"contracts/cropsFarmer.sol\":7627:7656  msg.value >= MIN_INVEST_LIMIT */\n      lt\n      iszero\n        /* \"contracts/cropsFarmer.sol\":7619:7688  require(msg.value >= MIN_INVEST_LIMIT, \"Mininum investment not met.\") */\n      tag_468\n      jumpi\n      mload(0x40)\n      0x08c379a000000000000000000000000000000000000000000000000000000000\n      dup2\n      mstore\n      0x04\n      add\n      tag_469\n      swap1\n      tag_470\n      jump\t// in\n    tag_469:\n      mload(0x40)\n      dup1\n      swap2\n      sub\n      swap1\n      revert\n    tag_468:\n        /* \"contracts/cropsFarmer.sol\":7744:7764  WALLET_DEPOSIT_LIMIT */\n      sload(0x07)\n        /* \"contracts/cropsFarmer.sol\":7706:7740  user.initialDeposit.add(msg.value) */\n      tag_471\n        /* \"contracts/cropsFarmer.sol\":7730:7739  msg.value */\n      callvalue\n        /* \"contracts/cropsFarmer.sol\":7706:7710  user */\n      dup4\n        /* \"contracts/cropsFarmer.sol\":7706:7725  user.initialDeposit */\n      0x00\n      add\n      sload\n        /* \"contracts/cropsFarmer.sol\":7706:7729  user.initialDeposit.add */\n      tag_405\n      swap1\n        /* \"contracts/cropsFarmer.sol\":7706:7740  user.initialDeposit.add(msg.value) */\n      swap2\n      swap1\n      0xffffffff\n      and\n      jump\t// in\n    tag_471:\n        /* \"contracts/cropsFarmer.sol\":7706:7764  user.initialDeposit.add(msg.value) <= WALLET_DEPOSIT_LIMIT */\n      gt\n      iszero\n        /* \"contracts/cropsFarmer.sol\":7698:7795  require(user.initialDeposit.add(msg.value) <= WALLET_DEPOSIT_LIMIT, \"Max deposit limit reached.\") */\n      tag_472\n      jumpi\n      mload(0x40)\n      0x08c379a000000000000000000000000000000000000000000000000000000000\n      dup2\n      mstore\n      0x04\n      add\n      tag_473\n      swap1\n      tag_474\n      jump\t// in\n    tag_473:\n      mload(0x40)\n      dup1\n      swap2\n      sub\n      swap1\n      revert\n    tag_472:\n        /* \"contracts/cropsFarmer.sol\":7805:7823  uint256 eggsBought */\n      0x00\n        /* \"contracts/cropsFarmer.sol\":7826:7890  calculateEggBuy(msg.value, address(this).balance.sub(msg.value)) */\n      tag_475\n        /* \"contracts/cropsFarmer.sol\":7842:7851  msg.value */\n      callvalue\n        /* \"contracts/cropsFarmer.sol\":7853:7889  address(this).balance.sub(msg.value) */\n      tag_476\n        /* \"contracts/cropsFarmer.sol\":7879:7888  msg.value */\n      callvalue\n        /* \"contracts/cropsFarmer.sol\":7853:7874  address(this).balance */\n      selfbalance\n        /* \"contracts/cropsFarmer.sol\":7853:7878  address(this).balance.sub */\n      tag_410\n      swap1\n        /* \"contracts/cropsFarmer.sol\":7853:7889  address(this).balance.sub(msg.value) */\n      swap2\n      swap1\n      0xffffffff\n      and\n      jump\t// in\n    tag_476:\n        /* \"contracts/cropsFarmer.sol\":7826:7841  calculateEggBuy */\n      tag_142\n        /* \"contracts/cropsFarmer.sol\":7826:7890  calculateEggBuy(msg.value, address(this).balance.sub(msg.value)) */\n      jump\t// in\n    tag_475:\n        /* \"contracts/cropsFarmer.sol\":7805:7890  uint256 eggsBought = calculateEggBuy(msg.value, address(this).balance.sub(msg.value)) */\n      swap1\n      pop\n        /* \"contracts/cropsFarmer.sol\":7919:7950  user.userDeposit.add(msg.value) */\n      tag_477\n        /* \"contracts/cropsFarmer.sol\":7940:7949  msg.value */\n      callvalue\n        /* \"contracts/cropsFarmer.sol\":7919:7923  user */\n      dup4\n        /* \"contracts/cropsFarmer.sol\":7919:7935  user.userDeposit */\n      0x01\n      add\n      sload\n        /* \"contracts/cropsFarmer.sol\":7919:7939  user.userDeposit.add */\n      tag_405\n      swap1\n        /* \"contracts/cropsFarmer.sol\":7919:7950  user.userDeposit.add(msg.value) */\n      swap2\n      swap1\n      0xffffffff\n      and\n      jump\t// in\n    tag_477:\n        /* \"contracts/cropsFarmer.sol\":7900:7904  user */\n      dup3\n        /* \"contracts/cropsFarmer.sol\":7900:7916  user.userDeposit */\n      0x01\n      add\n        /* \"contracts/cropsFarmer.sol\":7900:7950  user.userDeposit = user.userDeposit.add(msg.value) */\n      dup2\n      swap1\n      sstore\n      pop\n        /* \"contracts/cropsFarmer.sol\":7982:8016  user.initialDeposit.add(msg.value) */\n      tag_478\n        /* \"contracts/cropsFarmer.sol\":8006:8015  msg.value */\n      callvalue\n        /* \"contracts/cropsFarmer.sol\":7982:7986  user */\n      dup4\n        /* \"contracts/cropsFarmer.sol\":7982:8001  user.initialDeposit */\n      0x00\n      add\n      sload\n        /* \"contracts/cropsFarmer.sol\":7982:8005  user.initialDeposit.add */\n      tag_405\n      swap1\n        /* \"contracts/cropsFarmer.sol\":7982:8016  user.initialDeposit.add(msg.value) */\n      swap2\n      swap1\n      0xffffffff\n      and\n      jump\t// in\n    tag_478:\n        /* \"contracts/cropsFarmer.sol\":7960:7964  user */\n      dup3\n        /* \"contracts/cropsFarmer.sol\":7960:7979  user.initialDeposit */\n      0x00\n      add\n        /* \"contracts/cropsFarmer.sol\":7960:8016  user.initialDeposit = user.initialDeposit.add(msg.value) */\n      dup2\n      swap1\n      sstore\n      pop\n        /* \"contracts/cropsFarmer.sol\":8045:8077  user.claimedEggs.add(eggsBought) */\n      tag_479\n        /* \"contracts/cropsFarmer.sol\":8066:8076  eggsBought */\n      dup2\n        /* \"contracts/cropsFarmer.sol\":8045:8049  user */\n      dup4\n        /* \"contracts/cropsFarmer.sol\":8045:8061  user.claimedEggs */\n      0x03\n      add\n      sload\n        /* \"contracts/cropsFarmer.sol\":8045:8065  user.claimedEggs.add */\n      tag_405\n      swap1\n        /* \"contracts/cropsFarmer.sol\":8045:8077  user.claimedEggs.add(eggsBought) */\n      swap2\n      swap1\n      0xffffffff\n      and\n      jump\t// in\n    tag_479:\n        /* \"contracts/cropsFarmer.sol\":8026:8030  user */\n      dup3\n        /* \"contracts/cropsFarmer.sol\":8026:8042  user.claimedEggs */\n      0x03\n      add\n        /* \"contracts/cropsFarmer.sol\":8026:8077  user.claimedEggs = user.claimedEggs.add(eggsBought) */\n      dup2\n      swap1\n      sstore\n      pop\n        /* \"contracts/cropsFarmer.sol\":8126:8127  0 */\n      0x00\n        /* \"contracts/cropsFarmer.sol\":8101:8128  user.referrer == address(0) */\n      0xffffffffffffffffffffffffffffffffffffffff\n      and\n        /* \"contracts/cropsFarmer.sol\":8101:8105  user */\n      dup3\n        /* \"contracts/cropsFarmer.sol\":8101:8114  user.referrer */\n      0x05\n      add\n      0x00\n      swap1\n      sload\n      swap1\n      0x0100\n      exp\n      swap1\n      div\n      0xffffffffffffffffffffffffffffffffffffffff\n      and\n        /* \"contracts/cropsFarmer.sol\":8101:8128  user.referrer == address(0) */\n      0xffffffffffffffffffffffffffffffffffffffff\n      and\n      eq\n        /* \"contracts/cropsFarmer.sol\":8097:8416  if (user.referrer == address(0)) {... */\n      iszero\n      tag_480\n      jumpi\n        /* \"contracts/cropsFarmer.sol\":8155:8165  msg.sender */\n      caller\n        /* \"contracts/cropsFarmer.sol\":8148:8165  ref != msg.sender */\n      0xffffffffffffffffffffffffffffffffffffffff\n      and\n        /* \"contracts/cropsFarmer.sol\":8148:8151  ref */\n      dup4\n        /* \"contracts/cropsFarmer.sol\":8148:8165  ref != msg.sender */\n      0xffffffffffffffffffffffffffffffffffffffff\n      and\n      eq\n        /* \"contracts/cropsFarmer.sol\":8144:8219  if (ref != msg.sender) {... */\n      tag_481\n      jumpi\n        /* \"contracts/cropsFarmer.sol\":8201:8204  ref */\n      dup3\n        /* \"contracts/cropsFarmer.sol\":8185:8189  user */\n      dup3\n        /* \"contracts/cropsFarmer.sol\":8185:8198  user.referrer */\n      0x05\n      add\n      0x00\n        /* \"contracts/cropsFarmer.sol\":8185:8204  user.referrer = ref */\n      0x0100\n      exp\n      dup2\n      sload\n      dup2\n      0xffffffffffffffffffffffffffffffffffffffff\n      mul\n      not\n      and\n      swap1\n      dup4\n      0xffffffffffffffffffffffffffffffffffffffff\n      and\n      mul\n      or\n      swap1\n      sstore\n      pop\n        /* \"contracts/cropsFarmer.sol\":8144:8219  if (ref != msg.sender) {... */\n    tag_481:\n        /* \"contracts/cropsFarmer.sol\":8233:8248  address upline1 */\n      0x00\n        /* \"contracts/cropsFarmer.sol\":8251:8255  user */\n      dup3\n        /* \"contracts/cropsFarmer.sol\":8251:8264  user.referrer */\n      0x05\n      add\n      0x00\n      swap1\n      sload\n      swap1\n      0x0100\n      exp\n      swap1\n      div\n      0xffffffffffffffffffffffffffffffffffffffff\n      and\n        /* \"contracts/cropsFarmer.sol\":8233:8264  address upline1 = user.referrer */\n      swap1\n      pop\n        /* \"contracts/cropsFarmer.sol\":8301:8302  0 */\n      0x00\n        /* \"contracts/cropsFarmer.sol\":8282:8303  upline1 != address(0) */\n      0xffffffffffffffffffffffffffffffffffffffff\n      and\n        /* \"contracts/cropsFarmer.sol\":8282:8289  upline1 */\n      dup2\n        /* \"contracts/cropsFarmer.sol\":8282:8303  upline1 != address(0) */\n      0xffffffffffffffffffffffffffffffffffffffff\n      and\n      eq\n        /* \"contracts/cropsFarmer.sol\":8278:8406  if (upline1 != address(0)) {... */\n      tag_482\n      jumpi\n        /* \"contracts/cropsFarmer.sol\":8355:8391  users[upline1].referralsCount.add(1) */\n      tag_483\n        /* \"contracts/cropsFarmer.sol\":8389:8390  1 */\n      0x01\n        /* \"contracts/cropsFarmer.sol\":8355:8360  users */\n      0x20\n        /* \"contracts/cropsFarmer.sol\":8355:8369  users[upline1] */\n      0x00\n        /* \"contracts/cropsFarmer.sol\":8361:8368  upline1 */\n      dup5\n        /* \"contracts/cropsFarmer.sol\":8355:8369  users[upline1] */\n      0xffffffffffffffffffffffffffffffffffffffff\n      and\n      0xffffffffffffffffffffffffffffffffffffffff\n      and\n      dup2\n      mstore\n      0x20\n      add\n      swap1\n      dup2\n      mstore\n      0x20\n      add\n      0x00\n      keccak256\n        /* \"contracts/cropsFarmer.sol\":8355:8384  users[upline1].referralsCount */\n      0x06\n      add\n      sload\n        /* \"contracts/cropsFarmer.sol\":8355:8388  users[upline1].referralsCount.add */\n      tag_405\n      swap1\n        /* \"contracts/cropsFarmer.sol\":8355:8391  users[upline1].referralsCount.add(1) */\n      swap2\n      swap1\n      0xffffffff\n      and\n      jump\t// in\n    tag_483:\n        /* \"contracts/cropsFarmer.sol\":8323:8328  users */\n      0x20\n        /* \"contracts/cropsFarmer.sol\":8323:8337  users[upline1] */\n      0x00\n        /* \"contracts/cropsFarmer.sol\":8329:8336  upline1 */\n      dup4\n        /* \"contracts/cropsFarmer.sol\":8323:8337  users[upline1] */\n      0xffffffffffffffffffffffffffffffffffffffff\n      and\n      0xffffffffffffffffffffffffffffffffffffffff\n      and\n      dup2\n      mstore\n      0x20\n      add\n      swap1\n      dup2\n      mstore\n      0x20\n      add\n      0x00\n      keccak256\n        /* \"contracts/cropsFarmer.sol\":8323:8352  users[upline1].referralsCount */\n      0x06\n      add\n        /* \"contracts/cropsFarmer.sol\":8323:8391  users[upline1].referralsCount = users[upline1].referralsCount.add(1) */\n      dup2\n      swap1\n      sstore\n      pop\n        /* \"contracts/cropsFarmer.sol\":8278:8406  if (upline1 != address(0)) {... */\n    tag_482:\n        /* \"contracts/cropsFarmer.sol\":8130:8416  {... */\n      pop\n        /* \"contracts/cropsFarmer.sol\":8097:8416  if (user.referrer == address(0)) {... */\n    tag_480:\n        /* \"contracts/cropsFarmer.sol\":8471:8472  0 */\n      0x00\n        /* \"contracts/cropsFarmer.sol\":8446:8473  user.referrer != address(0) */\n      0xffffffffffffffffffffffffffffffffffffffff\n      and\n        /* \"contracts/cropsFarmer.sol\":8446:8450  user */\n      dup3\n        /* \"contracts/cropsFarmer.sol\":8446:8459  user.referrer */\n      0x05\n      add\n      0x00\n      swap1\n      sload\n      swap1\n      0x0100\n      exp\n      swap1\n      div\n      0xffffffffffffffffffffffffffffffffffffffff\n      and\n        /* \"contracts/cropsFarmer.sol\":8446:8473  user.referrer != address(0) */\n      0xffffffffffffffffffffffffffffffffffffffff\n      and\n      eq\n        /* \"contracts/cropsFarmer.sol\":8442:8987  if (user.referrer != address(0)) {... */\n      tag_484\n      jumpi\n        /* \"contracts/cropsFarmer.sol\":8502:8545  sendRewardToReferrals(msg.sender,msg.value) */\n      tag_485\n        /* \"contracts/cropsFarmer.sol\":8524:8534  msg.sender */\n      caller\n        /* \"contracts/cropsFarmer.sol\":8535:8544  msg.value */\n      callvalue\n        /* \"contracts/cropsFarmer.sol\":8502:8523  sendRewardToReferrals */\n      tag_486\n        /* \"contracts/cropsFarmer.sol\":8502:8545  sendRewardToReferrals(msg.sender,msg.value) */\n      jump\t// in\n    tag_485:\n        /* \"contracts/cropsFarmer.sol\":8442:8987  if (user.referrer != address(0)) {... */\n    tag_484:\n        /* \"contracts/cropsFarmer.sol\":8997:9015  uint256 eggsPayout */\n      0x00\n        /* \"contracts/cropsFarmer.sol\":9018:9036  payFees(msg.value) */\n      tag_487\n        /* \"contracts/cropsFarmer.sol\":9026:9035  msg.value */\n      callvalue\n        /* \"contracts/cropsFarmer.sol\":9018:9025  payFees */\n      tag_488\n        /* \"contracts/cropsFarmer.sol\":9018:9036  payFees(msg.value) */\n      jump\t// in\n    tag_487:\n        /* \"contracts/cropsFarmer.sol\":8997:9036  uint256 eggsPayout = payFees(msg.value) */\n      swap1\n      pop\n        /* \"contracts/cropsFarmer.sol\":9060:9102  totalStaked.add(msg.value.sub(eggsPayout)) */\n      tag_489\n        /* \"contracts/cropsFarmer.sol\":9076:9101  msg.value.sub(eggsPayout) */\n      tag_490\n        /* \"contracts/cropsFarmer.sol\":9090:9100  eggsPayout */\n      dup3\n        /* \"contracts/cropsFarmer.sol\":9076:9085  msg.value */\n      callvalue\n        /* \"contracts/cropsFarmer.sol\":9076:9089  msg.value.sub */\n      tag_410\n      swap1\n        /* \"contracts/cropsFarmer.sol\":9076:9101  msg.value.sub(eggsPayout) */\n      swap2\n      swap1\n      0xffffffff\n      and\n      jump\t// in\n    tag_490:\n        /* \"contracts/cropsFarmer.sol\":9060:9071  totalStaked */\n      sload(0x0d)\n        /* \"contracts/cropsFarmer.sol\":9060:9075  totalStaked.add */\n      tag_405\n      swap1\n        /* \"contracts/cropsFarmer.sol\":9060:9102  totalStaked.add(msg.value.sub(eggsPayout)) */\n      swap2\n      swap1\n      0xffffffff\n      and\n      jump\t// in\n    tag_489:\n        /* \"contracts/cropsFarmer.sol\":9046:9057  totalStaked */\n      0x0d\n        /* \"contracts/cropsFarmer.sol\":9046:9102  totalStaked = totalStaked.add(msg.value.sub(eggsPayout)) */\n      dup2\n      swap1\n      sstore\n      pop\n        /* \"contracts/cropsFarmer.sol\":9128:9148  totalDeposits.add(1) */\n      tag_491\n        /* \"contracts/cropsFarmer.sol\":9146:9147  1 */\n      0x01\n        /* \"contracts/cropsFarmer.sol\":9128:9141  totalDeposits */\n      sload(0x0e)\n        /* \"contracts/cropsFarmer.sol\":9128:9145  totalDeposits.add */\n      tag_405\n      swap1\n        /* \"contracts/cropsFarmer.sol\":9128:9148  totalDeposits.add(1) */\n      swap2\n      swap1\n      0xffffffff\n      and\n      jump\t// in\n    tag_491:\n        /* \"contracts/cropsFarmer.sol\":9112:9125  totalDeposits */\n      0x0e\n        /* \"contracts/cropsFarmer.sol\":9112:9148  totalDeposits = totalDeposits.add(1) */\n      dup2\n      swap1\n      sstore\n      pop\n        /* \"contracts/cropsFarmer.sol\":9158:9180  hireMoreFarmers(false) */\n      tag_492\n        /* \"contracts/cropsFarmer.sol\":9174:9179  false */\n      0x00\n        /* \"contracts/cropsFarmer.sol\":9158:9173  hireMoreFarmers */\n      tag_118\n        /* \"contracts/cropsFarmer.sol\":9158:9180  hireMoreFarmers(false) */\n      jump\t// in\n    tag_492:\n        /* \"contracts/cropsFarmer.sol\":7499:9187  {... */\n      pop\n      pop\n      pop\n        /* \"contracts/cropsFarmer.sol\":7451:9187  function hireFarmers(address ref) public payable{... */\n      pop\n      jump\t// out\n        /* \"contracts/cropsFarmer.sol\":15801:15983  function PRC_REFERRAL(uint256 value) external {... */\n    tag_203:\n        /* \"contracts/cropsFarmer.sol\":15879:15884  owner */\n      0x19\n      0x00\n      swap1\n      sload\n      swap1\n      0x0100\n      exp\n      swap1\n      div\n      0xffffffffffffffffffffffffffffffffffffffff\n      and\n        /* \"contracts/cropsFarmer.sol\":15865:15884  msg.sender == owner */\n      0xffffffffffffffffffffffffffffffffffffffff\n      and\n        /* \"contracts/cropsFarmer.sol\":15865:15875  msg.sender */\n      caller\n        /* \"contracts/cropsFarmer.sol\":15865:15884  msg.sender == owner */\n      0xffffffffffffffffffffffffffffffffffffffff\n      and\n      eq\n        /* \"contracts/cropsFarmer.sol\":15857:15904  require(msg.sender == owner, \"Admin use only.\") */\n      tag_494\n      jumpi\n      mload(0x40)\n      0x08c379a000000000000000000000000000000000000000000000000000000000\n      dup2\n      mstore\n      0x04\n      add\n      tag_495\n      swap1\n      tag_423\n      jump\t// in\n    tag_495:\n      mload(0x40)\n      dup1\n      swap2\n      sub\n      swap1\n      revert\n    tag_494:\n        /* \"contracts/cropsFarmer.sol\":15931:15933  10 */\n      0x0a\n        /* \"contracts/cropsFarmer.sol\":15922:15927  value */\n      dup2\n        /* \"contracts/cropsFarmer.sol\":15922:15933  value >= 10 */\n      lt\n      iszero\n        /* \"contracts/cropsFarmer.sol\":15922:15949  value >= 10 && value <= 100 */\n      dup1\n      iszero\n      tag_496\n      jumpi\n      pop\n        /* \"contracts/cropsFarmer.sol\":15946:15949  100 */\n      0x64\n        /* \"contracts/cropsFarmer.sol\":15937:15942  value */\n      dup2\n        /* \"contracts/cropsFarmer.sol\":15937:15949  value <= 100 */\n      gt\n      iszero\n        /* \"contracts/cropsFarmer.sol\":15922:15949  value >= 10 && value <= 100 */\n    tag_496:\n        /* \"contracts/cropsFarmer.sol\":15914:15950  require(value >= 10 && value <= 100) */\n      tag_497\n      jumpi\n      0x00\n      dup1\n      revert\n    tag_497:\n        /* \"contracts/cropsFarmer.sol\":15971:15976  value */\n      dup1\n        /* \"contracts/cropsFarmer.sol\":15960:15968  REFERRAL */\n      0x01\n        /* \"contracts/cropsFarmer.sol\":15960:15976  REFERRAL = value */\n      dup2\n      swap1\n      sstore\n      pop\n        /* \"contracts/cropsFarmer.sol\":15801:15983  function PRC_REFERRAL(uint256 value) external {... */\n      pop\n      jump\t// out\n        /* \"contracts/cropsFarmer.sol\":5085:6542  function sellCrops() public{... */\n    tag_206:\n        /* \"contracts/cropsFarmer.sol\":5130:5145  contractStarted */\n      0x15\n      0x00\n      swap1\n      sload\n      swap1\n      0x0100\n      exp\n      swap1\n      div\n      0xff\n      and\n        /* \"contracts/cropsFarmer.sol\":5122:5175  require(contractStarted, \"Contract not yet Started.\") */\n      tag_499\n      jumpi\n      mload(0x40)\n      0x08c379a000000000000000000000000000000000000000000000000000000000\n      dup2\n      mstore\n      0x04\n      add\n      tag_500\n      swap1\n      tag_400\n      jump\t// in\n    tag_500:\n      mload(0x40)\n      dup1\n      swap2\n      sub\n      swap1\n      revert\n    tag_499:\n        /* \"contracts/cropsFarmer.sol\":5190:5205  blacklistActive */\n      0x15\n      0x01\n      swap1\n      sload\n      swap1\n      0x0100\n      exp\n      swap1\n      div\n      0xff\n      and\n        /* \"contracts/cropsFarmer.sol\":5186:5292  if (blacklistActive) {... */\n      iszero\n      tag_501\n      jumpi\n        /* \"contracts/cropsFarmer.sol\":5230:5241  Blacklisted */\n      0x16\n        /* \"contracts/cropsFarmer.sol\":5230:5253  Blacklisted[msg.sender] */\n      0x00\n        /* \"contracts/cropsFarmer.sol\":5242:5252  msg.sender */\n      caller\n        /* \"contracts/cropsFarmer.sol\":5230:5253  Blacklisted[msg.sender] */\n      0xffffffffffffffffffffffffffffffffffffffff\n      and\n      0xffffffffffffffffffffffffffffffffffffffff\n      and\n      dup2\n      mstore\n      0x20\n      add\n      swap1\n      dup2\n      mstore\n      0x20\n      add\n      0x00\n      keccak256\n      0x00\n      swap1\n      sload\n      swap1\n      0x0100\n      exp\n      swap1\n      div\n      0xff\n      and\n        /* \"contracts/cropsFarmer.sol\":5229:5253  !Blacklisted[msg.sender] */\n      iszero\n        /* \"contracts/cropsFarmer.sol\":5221:5281  require(!Blacklisted[msg.sender], \"Address is blacklisted.\") */\n      tag_502\n      jumpi\n      mload(0x40)\n      0x08c379a000000000000000000000000000000000000000000000000000000000\n      dup2\n      mstore\n      0x04\n      add\n      tag_503\n      swap1\n      tag_504\n      jump\t// in\n    tag_503:\n      mload(0x40)\n      dup1\n      swap2\n      sub\n      swap1\n      revert\n    tag_502:\n        /* \"contracts/cropsFarmer.sol\":5186:5292  if (blacklistActive) {... */\n    tag_501:\n        /* \"contracts/cropsFarmer.sol\":5302:5319  User storage user */\n      0x00\n        /* \"contracts/cropsFarmer.sol\":5322:5327  users */\n      0x20\n        /* \"contracts/cropsFarmer.sol\":5322:5339  users[msg.sender] */\n      0x00\n        /* \"contracts/cropsFarmer.sol\":5328:5338  msg.sender */\n      caller\n        /* \"contracts/cropsFarmer.sol\":5322:5339  users[msg.sender] */\n      0xffffffffffffffffffffffffffffffffffffffff\n      and\n      0xffffffffffffffffffffffffffffffffffffffff\n      and\n      dup2\n      mstore\n      0x20\n      add\n      swap1\n      dup2\n      mstore\n      0x20\n      add\n      0x00\n      keccak256\n        /* \"contracts/cropsFarmer.sol\":5302:5339  User storage user = users[msg.sender] */\n      swap1\n      pop\n        /* \"contracts/cropsFarmer.sol\":5349:5364  uint256 hasEggs */\n      0x00\n        /* \"contracts/cropsFarmer.sol\":5367:5378  getMyEggs() */\n      tag_505\n        /* \"contracts/cropsFarmer.sol\":5367:5376  getMyEggs */\n      tag_172\n        /* \"contracts/cropsFarmer.sol\":5367:5378  getMyEggs() */\n      jump\t// in\n    tag_505:\n        /* \"contracts/cropsFarmer.sol\":5349:5378  uint256 hasEggs = getMyEggs() */\n      swap1\n      pop\n        /* \"contracts/cropsFarmer.sol\":5388:5404  uint256 eggValue */\n      0x00\n        /* \"contracts/cropsFarmer.sol\":5407:5432  calculateEggSell(hasEggs) */\n      tag_506\n        /* \"contracts/cropsFarmer.sol\":5424:5431  hasEggs */\n      dup3\n        /* \"contracts/cropsFarmer.sol\":5407:5423  calculateEggSell */\n      tag_287\n        /* \"contracts/cropsFarmer.sol\":5407:5432  calculateEggSell(hasEggs) */\n      jump\t// in\n    tag_506:\n        /* \"contracts/cropsFarmer.sol\":5388:5432  uint256 eggValue = calculateEggSell(hasEggs) */\n      swap1\n      pop\n        /* \"contracts/cropsFarmer.sol\":5554:5584  COMPOUND_FOR_NO_TAX_WITHDRAWAL */\n      sload(0x0c)\n        /* \"contracts/cropsFarmer.sol\":5528:5532  user */\n      dup4\n        /* \"contracts/cropsFarmer.sol\":5528:5551  user.dailyCompoundBonus */\n      0x09\n      add\n      sload\n        /* \"contracts/cropsFarmer.sol\":5528:5584  user.dailyCompoundBonus < COMPOUND_FOR_NO_TAX_WITHDRAWAL */\n      lt\n        /* \"contracts/cropsFarmer.sol\":5525:5993  if(user.dailyCompoundBonus < COMPOUND_FOR_NO_TAX_WITHDRAWAL){... */\n      iszero\n      tag_507\n      jumpi\n        /* \"contracts/cropsFarmer.sol\":5719:5783  eggValue.sub(eggValue.mul(WITHDRAWAL_TAX).div(PERCENTS_DIVIDER)) */\n      tag_508\n        /* \"contracts/cropsFarmer.sol\":5732:5782  eggValue.mul(WITHDRAWAL_TAX).div(PERCENTS_DIVIDER) */\n      tag_509\n        /* \"contracts/cropsFarmer.sol\":5765:5781  PERCENTS_DIVIDER */\n      sload(0x02)\n        /* \"contracts/cropsFarmer.sol\":5732:5760  eggValue.mul(WITHDRAWAL_TAX) */\n      tag_510\n        /* \"contracts/cropsFarmer.sol\":5745:5759  WITHDRAWAL_TAX */\n      sload(0x0b)\n        /* \"contracts/cropsFarmer.sol\":5732:5740  eggValue */\n      dup6\n        /* \"contracts/cropsFarmer.sol\":5732:5744  eggValue.mul */\n      tag_428\n      swap1\n        /* \"contracts/cropsFarmer.sol\":5732:5760  eggValue.mul(WITHDRAWAL_TAX) */\n      swap2\n      swap1\n      0xffffffff\n      and\n      jump\t// in\n    tag_510:\n        /* \"contracts/cropsFarmer.sol\":5732:5764  eggValue.mul(WITHDRAWAL_TAX).div */\n      tag_417\n      swap1\n        /* \"contracts/cropsFarmer.sol\":5732:5782  eggValue.mul(WITHDRAWAL_TAX).div(PERCENTS_DIVIDER) */\n      swap2\n      swap1\n      0xffffffff\n      and\n      jump\t// in\n    tag_509:\n        /* \"contracts/cropsFarmer.sol\":5719:5727  eggValue */\n      dup3\n        /* \"contracts/cropsFarmer.sol\":5719:5731  eggValue.sub */\n      tag_410\n      swap1\n        /* \"contracts/cropsFarmer.sol\":5719:5783  eggValue.sub(eggValue.mul(WITHDRAWAL_TAX).div(PERCENTS_DIVIDER)) */\n      swap2\n      swap1\n      0xffffffff\n      and\n      jump\t// in\n    tag_508:\n        /* \"contracts/cropsFarmer.sol\":5708:5783  eggValue = eggValue.sub(eggValue.mul(WITHDRAWAL_TAX).div(PERCENTS_DIVIDER)) */\n      swap1\n      pop\n        /* \"contracts/cropsFarmer.sol\":5525:5993  if(user.dailyCompoundBonus < COMPOUND_FOR_NO_TAX_WITHDRAWAL){... */\n      jump(tag_511)\n    tag_507:\n        /* \"contracts/cropsFarmer.sol\":5933:5934  0 */\n      0x00\n        /* \"contracts/cropsFarmer.sol\":5907:5911  user */\n      dup4\n        /* \"contracts/cropsFarmer.sol\":5907:5930  user.dailyCompoundBonus */\n      0x09\n      add\n        /* \"contracts/cropsFarmer.sol\":5907:5934  user.dailyCompoundBonus = 0 */\n      dup2\n      swap1\n      sstore\n      pop\n        /* \"contracts/cropsFarmer.sol\":5979:5980  0 */\n      0x00\n        /* \"contracts/cropsFarmer.sol\":5952:5956  user */\n      dup4\n        /* \"contracts/cropsFarmer.sol\":5952:5976  user.farmerCompoundCount */\n      0x0a\n      add\n        /* \"contracts/cropsFarmer.sol\":5952:5980  user.farmerCompoundCount = 0 */\n      dup2\n      swap1\n      sstore\n      pop\n        /* \"contracts/cropsFarmer.sol\":5525:5993  if(user.dailyCompoundBonus < COMPOUND_FOR_NO_TAX_WITHDRAWAL){... */\n    tag_511:\n        /* \"contracts/cropsFarmer.sol\":6035:6050  block.timestamp */\n      timestamp\n        /* \"contracts/cropsFarmer.sol\":6011:6015  user */\n      dup4\n        /* \"contracts/cropsFarmer.sol\":6011:6032  user.lastWithdrawTime */\n      0x0b\n      add\n        /* \"contracts/cropsFarmer.sol\":6011:6050  user.lastWithdrawTime = block.timestamp */\n      dup2\n      swap1\n      sstore\n      pop\n        /* \"contracts/cropsFarmer.sol\":6079:6080  0 */\n      0x00\n        /* \"contracts/cropsFarmer.sol\":6060:6064  user */\n      dup4\n        /* \"contracts/cropsFarmer.sol\":6060:6076  user.claimedEggs */\n      0x03\n      add\n        /* \"contracts/cropsFarmer.sol\":6060:6080  user.claimedEggs = 0 */\n      dup2\n      swap1\n      sstore\n      pop\n        /* \"contracts/cropsFarmer.sol\":6109:6124  block.timestamp */\n      timestamp\n        /* \"contracts/cropsFarmer.sol\":6092:6096  user */\n      dup4\n        /* \"contracts/cropsFarmer.sol\":6092:6106  user.lastHatch */\n      0x04\n      add\n        /* \"contracts/cropsFarmer.sol\":6092:6124  user.lastHatch = block.timestamp */\n      dup2\n      swap1\n      sstore\n      pop\n        /* \"contracts/cropsFarmer.sol\":6147:6195  marketEggs.add(hasEggs.div(MARKET_EGGS_DIVISOR)) */\n      tag_512\n        /* \"contracts/cropsFarmer.sol\":6162:6194  hasEggs.div(MARKET_EGGS_DIVISOR) */\n      tag_513\n        /* \"contracts/cropsFarmer.sol\":6174:6193  MARKET_EGGS_DIVISOR */\n      sload(0x05)\n        /* \"contracts/cropsFarmer.sol\":6162:6169  hasEggs */\n      dup5\n        /* \"contracts/cropsFarmer.sol\":6162:6173  hasEggs.div */\n      tag_417\n      swap1\n        /* \"contracts/cropsFarmer.sol\":6162:6194  hasEggs.div(MARKET_EGGS_DIVISOR) */\n      swap2\n      swap1\n      0xffffffff\n      and\n      jump\t// in\n    tag_513:\n        /* \"contracts/cropsFarmer.sol\":6147:6157  marketEggs */\n      sload(0x12)\n        /* \"contracts/cropsFarmer.sol\":6147:6161  marketEggs.add */\n      tag_405\n      swap1\n        /* \"contracts/cropsFarmer.sol\":6147:6195  marketEggs.add(hasEggs.div(MARKET_EGGS_DIVISOR)) */\n      swap2\n      swap1\n      0xffffffff\n      and\n      jump\t// in\n    tag_512:\n        /* \"contracts/cropsFarmer.sol\":6134:6144  marketEggs */\n      0x12\n        /* \"contracts/cropsFarmer.sol\":6134:6195  marketEggs = marketEggs.add(hasEggs.div(MARKET_EGGS_DIVISOR)) */\n      dup2\n      swap1\n      sstore\n      pop\n        /* \"contracts/cropsFarmer.sol\":6232:6240  eggValue */\n      dup1\n        /* \"contracts/cropsFarmer.sol\":6217:6229  getBalance() */\n      tag_514\n        /* \"contracts/cropsFarmer.sol\":6217:6227  getBalance */\n      tag_108\n        /* \"contracts/cropsFarmer.sol\":6217:6229  getBalance() */\n      jump\t// in\n    tag_514:\n        /* \"contracts/cropsFarmer.sol\":6217:6240  getBalance() < eggValue */\n      lt\n        /* \"contracts/cropsFarmer.sol\":6214:6290  if(getBalance() < eggValue) {... */\n      iszero\n      tag_515\n      jumpi\n        /* \"contracts/cropsFarmer.sol\":6267:6279  getBalance() */\n      tag_516\n        /* \"contracts/cropsFarmer.sol\":6267:6277  getBalance */\n      tag_108\n        /* \"contracts/cropsFarmer.sol\":6267:6279  getBalance() */\n      jump\t// in\n    tag_516:\n        /* \"contracts/cropsFarmer.sol\":6256:6279  eggValue = getBalance() */\n      swap1\n      pop\n        /* \"contracts/cropsFarmer.sol\":6214:6290  if(getBalance() < eggValue) {... */\n    tag_515:\n        /* \"contracts/cropsFarmer.sol\":6300:6318  uint256 eggsPayout */\n      0x00\n        /* \"contracts/cropsFarmer.sol\":6321:6352  eggValue.sub(payFees(eggValue)) */\n      tag_517\n        /* \"contracts/cropsFarmer.sol\":6334:6351  payFees(eggValue) */\n      tag_518\n        /* \"contracts/cropsFarmer.sol\":6342:6350  eggValue */\n      dup4\n        /* \"contracts/cropsFarmer.sol\":6334:6341  payFees */\n      tag_488\n        /* \"contracts/cropsFarmer.sol\":6334:6351  payFees(eggValue) */\n      jump\t// in\n    tag_518:\n        /* \"contracts/cropsFarmer.sol\":6321:6329  eggValue */\n      dup4\n        /* \"contracts/cropsFarmer.sol\":6321:6333  eggValue.sub */\n      tag_410\n      swap1\n        /* \"contracts/cropsFarmer.sol\":6321:6352  eggValue.sub(payFees(eggValue)) */\n      swap2\n      swap1\n      0xffffffff\n      and\n      jump\t// in\n    tag_517:\n        /* \"contracts/cropsFarmer.sol\":6300:6352  uint256 eggsPayout = eggValue.sub(payFees(eggValue)) */\n      swap1\n      pop\n        /* \"contracts/cropsFarmer.sol\":6378:6388  msg.sender */\n      caller\n        /* \"contracts/cropsFarmer.sol\":6362:6399  payable(address(msg.sender)).transfer */\n      0xffffffffffffffffffffffffffffffffffffffff\n      and\n        /* \"contracts/cropsFarmer.sol\":6362:6411  payable(address(msg.sender)).transfer(eggsPayout) */\n      0x08fc\n        /* \"contracts/cropsFarmer.sol\":6400:6410  eggsPayout */\n      dup3\n        /* \"contracts/cropsFarmer.sol\":6362:6411  payable(address(msg.sender)).transfer(eggsPayout) */\n      swap1\n      dup2\n      iszero\n      mul\n      swap1\n      mload(0x40)\n      0x00\n      mload(0x40)\n      dup1\n      dup4\n      sub\n      dup2\n      dup6\n      dup9\n      dup9\n      call\n      swap4\n      pop\n      pop\n      pop\n      pop\n      iszero\n      dup1\n      iszero\n      tag_520\n      jumpi\n      returndatasize\n      0x00\n      dup1\n      returndatacopy\n      revert(0x00, returndatasize)\n    tag_520:\n      pop\n        /* \"contracts/cropsFarmer.sol\":6443:6478  user.totalWithdrawn.add(eggsPayout) */\n      tag_521\n        /* \"contracts/cropsFarmer.sol\":6467:6477  eggsPayout */\n      dup2\n        /* \"contracts/cropsFarmer.sol\":6443:6447  user */\n      dup6\n        /* \"contracts/cropsFarmer.sol\":6443:6462  user.totalWithdrawn */\n      0x08\n      add\n      sload\n        /* \"contracts/cropsFarmer.sol\":6443:6466  user.totalWithdrawn.add */\n      tag_405\n      swap1\n        /* \"contracts/cropsFarmer.sol\":6443:6478  user.totalWithdrawn.add(eggsPayout) */\n      swap2\n      swap1\n      0xffffffff\n      and\n      jump\t// in\n    tag_521:\n        /* \"contracts/cropsFarmer.sol\":6421:6425  user */\n      dup5\n        /* \"contracts/cropsFarmer.sol\":6421:6440  user.totalWithdrawn */\n      0x08\n      add\n        /* \"contracts/cropsFarmer.sol\":6421:6478  user.totalWithdrawn = user.totalWithdrawn.add(eggsPayout) */\n      dup2\n      swap1\n      sstore\n      pop\n        /* \"contracts/cropsFarmer.sol\":6505:6535  totalWithdrawn.add(eggsPayout) */\n      tag_522\n        /* \"contracts/cropsFarmer.sol\":6524:6534  eggsPayout */\n      dup2\n        /* \"contracts/cropsFarmer.sol\":6505:6519  totalWithdrawn */\n      sload(0x11)\n        /* \"contracts/cropsFarmer.sol\":6505:6523  totalWithdrawn.add */\n      tag_405\n      swap1\n        /* \"contracts/cropsFarmer.sol\":6505:6535  totalWithdrawn.add(eggsPayout) */\n      swap2\n      swap1\n      0xffffffff\n      and\n      jump\t// in\n    tag_522:\n        /* \"contracts/cropsFarmer.sol\":6488:6502  totalWithdrawn */\n      0x11\n        /* \"contracts/cropsFarmer.sol\":6488:6535  totalWithdrawn = totalWithdrawn.add(eggsPayout) */\n      dup2\n      swap1\n      sstore\n      pop\n        /* \"contracts/cropsFarmer.sol\":5112:6542  {... */\n      pop\n      pop\n      pop\n      pop\n        /* \"contracts/cropsFarmer.sol\":5085:6542  function sellCrops() public{... */\n      jump\t// out\n        /* \"contracts/cropsFarmer.sol\":325:363  uint256 public MARKET_EGGS_DIVISOR = 2 */\n    tag_209:\n      sload(0x05)\n      dup2\n      jump\t// out\n        /* \"contracts/cropsFarmer.sol\":10009:10995  function getUserInfo(address _adr) public view returns(uint256 _initialDeposit, uint256 _userDeposit, uint256 _miners,... */\n    tag_214:\n        /* \"contracts/cropsFarmer.sol\":10064:10087  uint256 _initialDeposit */\n      0x00\n        /* \"contracts/cropsFarmer.sol\":10089:10109  uint256 _userDeposit */\n      dup1\n        /* \"contracts/cropsFarmer.sol\":10111:10126  uint256 _miners */\n      0x00\n        /* \"contracts/cropsFarmer.sol\":10133:10153  uint256 _claimedEggs */\n      dup1\n        /* \"contracts/cropsFarmer.sol\":10155:10173  uint256 _lastHatch */\n      0x00\n        /* \"contracts/cropsFarmer.sol\":10175:10192  address _referrer */\n      dup1\n        /* \"contracts/cropsFarmer.sol\":10194:10212  uint256 _referrals */\n      0x00\n        /* \"contracts/cropsFarmer.sol\":10216:10239  uint256 _totalWithdrawn */\n      dup1\n        /* \"contracts/cropsFarmer.sol\":10241:10268  uint256 _referralEggRewards */\n      0x00\n        /* \"contracts/cropsFarmer.sol\":10270:10297  uint256 _dailyCompoundBonus */\n      dup1\n        /* \"contracts/cropsFarmer.sol\":10299:10327  uint256 _farmerCompoundCount */\n      0x00\n        /* \"contracts/cropsFarmer.sol\":10329:10354  uint256 _lastWithdrawTime */\n      dup1\n        /* \"contracts/cropsFarmer.sol\":10385:10390  users */\n      0x20\n        /* \"contracts/cropsFarmer.sol\":10385:10396  users[_adr] */\n      0x00\n        /* \"contracts/cropsFarmer.sol\":10391:10395  _adr */\n      dup15\n        /* \"contracts/cropsFarmer.sol\":10385:10396  users[_adr] */\n      0xffffffffffffffffffffffffffffffffffffffff\n      and\n      0xffffffffffffffffffffffffffffffffffffffff\n      and\n      dup2\n      mstore\n      0x20\n      add\n      swap1\n      dup2\n      mstore\n      0x20\n      add\n      0x00\n      keccak256\n        /* \"contracts/cropsFarmer.sol\":10385:10411  users[_adr].initialDeposit */\n      0x00\n      add\n      sload\n        /* \"contracts/cropsFarmer.sol\":10367:10411  _initialDeposit = users[_adr].initialDeposit */\n      swap12\n      pop\n        /* \"contracts/cropsFarmer.sol\":10437:10442  users */\n      0x20\n        /* \"contracts/cropsFarmer.sol\":10437:10448  users[_adr] */\n      0x00\n        /* \"contracts/cropsFarmer.sol\":10443:10447  _adr */\n      dup15\n        /* \"contracts/cropsFarmer.sol\":10437:10448  users[_adr] */\n      0xffffffffffffffffffffffffffffffffffffffff\n      and\n      0xffffffffffffffffffffffffffffffffffffffff\n      and\n      dup2\n      mstore\n      0x20\n      add\n      swap1\n      dup2\n      mstore\n      0x20\n      add\n      0x00\n      keccak256\n        /* \"contracts/cropsFarmer.sol\":10437:10460  users[_adr].userDeposit */\n      0x01\n      add\n      sload\n        /* \"contracts/cropsFarmer.sol\":10422:10460  _userDeposit = users[_adr].userDeposit */\n      swap11\n      pop\n        /* \"contracts/cropsFarmer.sol\":10481:10486  users */\n      0x20\n        /* \"contracts/cropsFarmer.sol\":10481:10492  users[_adr] */\n      0x00\n        /* \"contracts/cropsFarmer.sol\":10487:10491  _adr */\n      dup15\n        /* \"contracts/cropsFarmer.sol\":10481:10492  users[_adr] */\n      0xffffffffffffffffffffffffffffffffffffffff\n      and\n      0xffffffffffffffffffffffffffffffffffffffff\n      and\n      dup2\n      mstore\n      0x20\n      add\n      swap1\n      dup2\n      mstore\n      0x20\n      add\n      0x00\n      keccak256\n        /* \"contracts/cropsFarmer.sol\":10481:10499  users[_adr].miners */\n      0x02\n      add\n      sload\n        /* \"contracts/cropsFarmer.sol\":10471:10499  _miners = users[_adr].miners */\n      swap10\n      pop\n        /* \"contracts/cropsFarmer.sol\":10525:10530  users */\n      0x20\n        /* \"contracts/cropsFarmer.sol\":10525:10536  users[_adr] */\n      0x00\n        /* \"contracts/cropsFarmer.sol\":10531:10535  _adr */\n      dup15\n        /* \"contracts/cropsFarmer.sol\":10525:10536  users[_adr] */\n      0xffffffffffffffffffffffffffffffffffffffff\n      and\n      0xffffffffffffffffffffffffffffffffffffffff\n      and\n      dup2\n      mstore\n      0x20\n      add\n      swap1\n      dup2\n      mstore\n      0x20\n      add\n      0x00\n      keccak256\n        /* \"contracts/cropsFarmer.sol\":10525:10548  users[_adr].claimedEggs */\n      0x03\n      add\n      sload\n        /* \"contracts/cropsFarmer.sol\":10510:10548  _claimedEggs = users[_adr].claimedEggs */\n      swap9\n      pop\n        /* \"contracts/cropsFarmer.sol\":10572:10577  users */\n      0x20\n        /* \"contracts/cropsFarmer.sol\":10572:10583  users[_adr] */\n      0x00\n        /* \"contracts/cropsFarmer.sol\":10578:10582  _adr */\n      dup15\n        /* \"contracts/cropsFarmer.sol\":10572:10583  users[_adr] */\n      0xffffffffffffffffffffffffffffffffffffffff\n      and\n      0xffffffffffffffffffffffffffffffffffffffff\n      and\n      dup2\n      mstore\n      0x20\n      add\n      swap1\n      dup2\n      mstore\n      0x20\n      add\n      0x00\n      keccak256\n        /* \"contracts/cropsFarmer.sol\":10572:10593  users[_adr].lastHatch */\n      0x04\n      add\n      sload\n        /* \"contracts/cropsFarmer.sol\":10559:10593  _lastHatch = users[_adr].lastHatch */\n      swap8\n      pop\n        /* \"contracts/cropsFarmer.sol\":10616:10621  users */\n      0x20\n        /* \"contracts/cropsFarmer.sol\":10616:10627  users[_adr] */\n      0x00\n        /* \"contracts/cropsFarmer.sol\":10622:10626  _adr */\n      dup15\n        /* \"contracts/cropsFarmer.sol\":10616:10627  users[_adr] */\n      0xffffffffffffffffffffffffffffffffffffffff\n      and\n      0xffffffffffffffffffffffffffffffffffffffff\n      and\n      dup2\n      mstore\n      0x20\n      add\n      swap1\n      dup2\n      mstore\n      0x20\n      add\n      0x00\n      keccak256\n        /* \"contracts/cropsFarmer.sol\":10616:10636  users[_adr].referrer */\n      0x05\n      add\n      0x00\n      swap1\n      sload\n      swap1\n      0x0100\n      exp\n      swap1\n      div\n      0xffffffffffffffffffffffffffffffffffffffff\n      and\n        /* \"contracts/cropsFarmer.sol\":10604:10636  _referrer = users[_adr].referrer */\n      swap7\n      pop\n        /* \"contracts/cropsFarmer.sol\":10660:10665  users */\n      0x20\n        /* \"contracts/cropsFarmer.sol\":10660:10671  users[_adr] */\n      0x00\n        /* \"contracts/cropsFarmer.sol\":10666:10670  _adr */\n      dup15\n        /* \"contracts/cropsFarmer.sol\":10660:10671  users[_adr] */\n      0xffffffffffffffffffffffffffffffffffffffff\n      and\n      0xffffffffffffffffffffffffffffffffffffffff\n      and\n      dup2\n      mstore\n      0x20\n      add\n      swap1\n      dup2\n      mstore\n      0x20\n      add\n      0x00\n      keccak256\n        /* \"contracts/cropsFarmer.sol\":10660:10686  users[_adr].referralsCount */\n      0x06\n      add\n      sload\n        /* \"contracts/cropsFarmer.sol\":10647:10686  _referrals = users[_adr].referralsCount */\n      swap6\n      pop\n        /* \"contracts/cropsFarmer.sol\":10715:10720  users */\n      0x20\n        /* \"contracts/cropsFarmer.sol\":10715:10726  users[_adr] */\n      0x00\n        /* \"contracts/cropsFarmer.sol\":10721:10725  _adr */\n      dup15\n        /* \"contracts/cropsFarmer.sol\":10715:10726  users[_adr] */\n      0xffffffffffffffffffffffffffffffffffffffff\n      and\n      0xffffffffffffffffffffffffffffffffffffffff\n      and\n      dup2\n      mstore\n      0x20\n      add\n      swap1\n      dup2\n      mstore\n      0x20\n      add\n      0x00\n      keccak256\n        /* \"contracts/cropsFarmer.sol\":10715:10741  users[_adr].totalWithdrawn */\n      0x08\n      add\n      sload\n        /* \"contracts/cropsFarmer.sol\":10697:10741  _totalWithdrawn = users[_adr].totalWithdrawn */\n      swap5\n      pop\n        /* \"contracts/cropsFarmer.sol\":10774:10779  users */\n      0x20\n        /* \"contracts/cropsFarmer.sol\":10774:10785  users[_adr] */\n      0x00\n        /* \"contracts/cropsFarmer.sol\":10780:10784  _adr */\n      dup15\n        /* \"contracts/cropsFarmer.sol\":10774:10785  users[_adr] */\n      0xffffffffffffffffffffffffffffffffffffffff\n      and\n      0xffffffffffffffffffffffffffffffffffffffff\n      and\n      dup2\n      mstore\n      0x20\n      add\n      swap1\n      dup2\n      mstore\n      0x20\n      add\n      0x00\n      keccak256\n        /* \"contracts/cropsFarmer.sol\":10774:10804  users[_adr].referralEggRewards */\n      0x07\n      add\n      sload\n        /* \"contracts/cropsFarmer.sol\":10752:10804  _referralEggRewards = users[_adr].referralEggRewards */\n      swap4\n      pop\n        /* \"contracts/cropsFarmer.sol\":10837:10842  users */\n      0x20\n        /* \"contracts/cropsFarmer.sol\":10837:10848  users[_adr] */\n      0x00\n        /* \"contracts/cropsFarmer.sol\":10843:10847  _adr */\n      dup15\n        /* \"contracts/cropsFarmer.sol\":10837:10848  users[_adr] */\n      0xffffffffffffffffffffffffffffffffffffffff\n      and\n      0xffffffffffffffffffffffffffffffffffffffff\n      and\n      dup2\n      mstore\n      0x20\n      add\n      swap1\n      dup2\n      mstore\n      0x20\n      add\n      0x00\n      keccak256\n        /* \"contracts/cropsFarmer.sol\":10837:10867  users[_adr].dailyCompoundBonus */\n      0x09\n      add\n      sload\n        /* \"contracts/cropsFarmer.sol\":10815:10867  _dailyCompoundBonus = users[_adr].dailyCompoundBonus */\n      swap3\n      pop\n        /* \"contracts/cropsFarmer.sol\":10901:10906  users */\n      0x20\n        /* \"contracts/cropsFarmer.sol\":10901:10912  users[_adr] */\n      0x00\n        /* \"contracts/cropsFarmer.sol\":10907:10911  _adr */\n      dup15\n        /* \"contracts/cropsFarmer.sol\":10901:10912  users[_adr] */\n      0xffffffffffffffffffffffffffffffffffffffff\n      and\n      0xffffffffffffffffffffffffffffffffffffffff\n      and\n      dup2\n      mstore\n      0x20\n      add\n      swap1\n      dup2\n      mstore\n      0x20\n      add\n      0x00\n      keccak256\n        /* \"contracts/cropsFarmer.sol\":10901:10932  users[_adr].farmerCompoundCount */\n      0x0a\n      add\n      sload\n        /* \"contracts/cropsFarmer.sol\":10878:10932  _farmerCompoundCount = users[_adr].farmerCompoundCount */\n      swap2\n      pop\n        /* \"contracts/cropsFarmer.sol\":10963:10968  users */\n      0x20\n        /* \"contracts/cropsFarmer.sol\":10963:10974  users[_adr] */\n      0x00\n        /* \"contracts/cropsFarmer.sol\":10969:10973  _adr */\n      dup15\n        /* \"contracts/cropsFarmer.sol\":10963:10974  users[_adr] */\n      0xffffffffffffffffffffffffffffffffffffffff\n      and\n      0xffffffffffffffffffffffffffffffffffffffff\n      and\n      dup2\n      mstore\n      0x20\n      add\n      swap1\n      dup2\n      mstore\n      0x20\n      add\n      0x00\n      keccak256\n        /* \"contracts/cropsFarmer.sol\":10963:10991  users[_adr].lastWithdrawTime */\n      0x0b\n      add\n      sload\n        /* \"contracts/cropsFarmer.sol\":10943:10991  _lastWithdrawTime = users[_adr].lastWithdrawTime */\n      swap1\n      pop\n        /* \"contracts/cropsFarmer.sol\":10009:10995  function getUserInfo(address _adr) public view returns(uint256 _initialDeposit, uint256 _userDeposit, uint256 _miners,... */\n      swap2\n      swap4\n      swap6\n      swap8\n      swap10\n      swap12\n      pop\n      swap2\n      swap4\n      swap6\n      swap8\n      swap10\n      swap12\n      jump\t// out\n        /* \"contracts/cropsFarmer.sol\":11201:11409  function getAvailableEarnings(address _adr) public view returns(uint256) {... */\n    tag_220:\n        /* \"contracts/cropsFarmer.sol\":11265:11272  uint256 */\n      0x00\n        /* \"contracts/cropsFarmer.sol\":11284:11300  uint256 userEggs */\n      dup1\n        /* \"contracts/cropsFarmer.sol\":11303:11359  users[_adr].claimedEggs.add(getEggsSinceLastHatch(_adr)) */\n      tag_525\n        /* \"contracts/cropsFarmer.sol\":11331:11358  getEggsSinceLastHatch(_adr) */\n      tag_526\n        /* \"contracts/cropsFarmer.sol\":11353:11357  _adr */\n      dup5\n        /* \"contracts/cropsFarmer.sol\":11331:11352  getEggsSinceLastHatch */\n      tag_359\n        /* \"contracts/cropsFarmer.sol\":11331:11358  getEggsSinceLastHatch(_adr) */\n      jump\t// in\n    tag_526:\n        /* \"contracts/cropsFarmer.sol\":11303:11308  users */\n      0x20\n        /* \"contracts/cropsFarmer.sol\":11303:11314  users[_adr] */\n      0x00\n        /* \"contracts/cropsFarmer.sol\":11309:11313  _adr */\n      dup7\n        /* \"contracts/cropsFarmer.sol\":11303:11314  users[_adr] */\n      0xffffffffffffffffffffffffffffffffffffffff\n      and\n      0xffffffffffffffffffffffffffffffffffffffff\n      and\n      dup2\n      mstore\n      0x20\n      add\n      swap1\n      dup2\n      mstore\n      0x20\n      add\n      0x00\n      keccak256\n        /* \"contracts/cropsFarmer.sol\":11303:11326  users[_adr].claimedEggs */\n      0x03\n      add\n      sload\n        /* \"contracts/cropsFarmer.sol\":11303:11330  users[_adr].claimedEggs.add */\n      tag_405\n      swap1\n        /* \"contracts/cropsFarmer.sol\":11303:11359  users[_adr].claimedEggs.add(getEggsSinceLastHatch(_adr)) */\n      swap2\n      swap1\n      0xffffffff\n      and\n      jump\t// in\n    tag_525:\n        /* \"contracts/cropsFarmer.sol\":11284:11359  uint256 userEggs = users[_adr].claimedEggs.add(getEggsSinceLastHatch(_adr)) */\n      swap1\n      pop\n        /* \"contracts/cropsFarmer.sol\":11376:11402  calculateEggSell(userEggs) */\n      tag_527\n        /* \"contracts/cropsFarmer.sol\":11393:11401  userEggs */\n      dup2\n        /* \"contracts/cropsFarmer.sol\":11376:11392  calculateEggSell */\n      tag_287\n        /* \"contracts/cropsFarmer.sol\":11376:11402  calculateEggSell(userEggs) */\n      jump\t// in\n    tag_527:\n        /* \"contracts/cropsFarmer.sol\":11369:11402  return calculateEggSell(userEggs) */\n      swap2\n      pop\n      pop\n        /* \"contracts/cropsFarmer.sol\":11201:11409  function getAvailableEarnings(address _adr) public view returns(uint256) {... */\n      swap2\n      swap1\n      pop\n      jump\t// out\n        /* \"contracts/cropsFarmer.sol\":268:290  uint256 public TAX = 9 */\n    tag_224:\n      sload(0x03)\n      dup2\n      jump\t// out\n        /* \"contracts/cropsFarmer.sol\":842:870  uint256 public totalRefBonus */\n    tag_228:\n      sload(0x10)\n      dup2\n      jump\t// out\n        /* \"contracts/cropsFarmer.sol\":16368:16564  function BONUS_DAILY_COMPOUND(uint256 value) external {... */\n    tag_233:\n        /* \"contracts/cropsFarmer.sol\":16454:16459  owner */\n      0x19\n      0x00\n      swap1\n      sload\n      swap1\n      0x0100\n      exp\n      swap1\n      div\n      0xffffffffffffffffffffffffffffffffffffffff\n      and\n        /* \"contracts/cropsFarmer.sol\":16440:16459  msg.sender == owner */\n      0xffffffffffffffffffffffffffffffffffffffff\n      and\n        /* \"contracts/cropsFarmer.sol\":16440:16450  msg.sender */\n      caller\n        /* \"contracts/cropsFarmer.sol\":16440:16459  msg.sender == owner */\n      0xffffffffffffffffffffffffffffffffffffffff\n      and\n      eq\n        /* \"contracts/cropsFarmer.sol\":16432:16479  require(msg.sender == owner, \"Admin use only.\") */\n      tag_529\n      jumpi\n      mload(0x40)\n      0x08c379a000000000000000000000000000000000000000000000000000000000\n      dup2\n      mstore\n      0x04\n      add\n      tag_530\n      swap1\n      tag_423\n      jump\t// in\n    tag_530:\n      mload(0x40)\n      dup1\n      swap2\n      sub\n      swap1\n      revert\n    tag_529:\n        /* \"contracts/cropsFarmer.sol\":16506:16508  10 */\n      0x0a\n        /* \"contracts/cropsFarmer.sol\":16497:16502  value */\n      dup2\n        /* \"contracts/cropsFarmer.sol\":16497:16508  value >= 10 */\n      lt\n      iszero\n        /* \"contracts/cropsFarmer.sol\":16497:16524  value >= 10 && value <= 900 */\n      dup1\n      iszero\n      tag_531\n      jumpi\n      pop\n        /* \"contracts/cropsFarmer.sol\":16521:16524  900 */\n      0x0384\n        /* \"contracts/cropsFarmer.sol\":16512:16517  value */\n      dup2\n        /* \"contracts/cropsFarmer.sol\":16512:16524  value <= 900 */\n      gt\n      iszero\n        /* \"contracts/cropsFarmer.sol\":16497:16524  value >= 10 && value <= 900 */\n    tag_531:\n        /* \"contracts/cropsFarmer.sol\":16489:16525  require(value >= 10 && value <= 900) */\n      tag_532\n      jumpi\n      0x00\n      dup1\n      revert\n    tag_532:\n        /* \"contracts/cropsFarmer.sol\":16552:16557  value */\n      dup1\n        /* \"contracts/cropsFarmer.sol\":16535:16549  COMPOUND_BONUS */\n      0x08\n        /* \"contracts/cropsFarmer.sol\":16535:16557  COMPOUND_BONUS = value */\n      dup2\n      swap1\n      sstore\n      pop\n        /* \"contracts/cropsFarmer.sol\":16368:16564  function BONUS_DAILY_COMPOUND(uint256 value) external {... */\n      pop\n      jump\t// out\n        /* \"contracts/cropsFarmer.sol\":589:632  uint256 public COMPOUND_STEP = 12 * 60 * 60 */\n    tag_236:\n      sload(0x0a)\n      dup2\n      jump\t// out\n        /* \"contracts/cropsFarmer.sol\":15989:16177  function PRC_MARKET_EGGS_DIVISOR(uint256 value) external {... */\n    tag_241:\n        /* \"contracts/cropsFarmer.sol\":16078:16083  owner */\n      0x19\n      0x00\n      swap1\n      sload\n      swap1\n      0x0100\n      exp\n      swap1\n      div\n      0xffffffffffffffffffffffffffffffffffffffff\n      and\n        /* \"contracts/cropsFarmer.sol\":16064:16083  msg.sender == owner */\n      0xffffffffffffffffffffffffffffffffffffffff\n      and\n        /* \"contracts/cropsFarmer.sol\":16064:16074  msg.sender */\n      caller\n        /* \"contracts/cropsFarmer.sol\":16064:16083  msg.sender == owner */\n      0xffffffffffffffffffffffffffffffffffffffff\n      and\n      eq\n        /* \"contracts/cropsFarmer.sol\":16056:16103  require(msg.sender == owner, \"Admin use only.\") */\n      tag_534\n      jumpi\n      mload(0x40)\n      0x08c379a000000000000000000000000000000000000000000000000000000000\n      dup2\n      mstore\n      0x04\n      add\n      tag_535\n      swap1\n      tag_423\n      jump\t// in\n    tag_535:\n      mload(0x40)\n      dup1\n      swap2\n      sub\n      swap1\n      revert\n    tag_534:\n        /* \"contracts/cropsFarmer.sol\":16130:16132  50 */\n      0x32\n        /* \"contracts/cropsFarmer.sol\":16121:16126  value */\n      dup2\n        /* \"contracts/cropsFarmer.sol\":16121:16132  value <= 50 */\n      gt\n      iszero\n        /* \"contracts/cropsFarmer.sol\":16113:16133  require(value <= 50) */\n      tag_536\n      jumpi\n      0x00\n      dup1\n      revert\n    tag_536:\n        /* \"contracts/cropsFarmer.sol\":16165:16170  value */\n      dup1\n        /* \"contracts/cropsFarmer.sol\":16143:16162  MARKET_EGGS_DIVISOR */\n      0x05\n        /* \"contracts/cropsFarmer.sol\":16143:16170  MARKET_EGGS_DIVISOR = value */\n      dup2\n      swap1\n      sstore\n      pop\n        /* \"contracts/cropsFarmer.sol\":15989:16177  function PRC_MARKET_EGGS_DIVISOR(uint256 value) external {... */\n      pop\n      jump\t// out\n        /* \"contracts/cropsFarmer.sol\":17134:17285  function SET_CUTOFF_STEP(uint256 value) external {... */\n    tag_245:\n        /* \"contracts/cropsFarmer.sol\":17215:17220  owner */\n      0x19\n      0x00\n      swap1\n      sload\n      swap1\n      0x0100\n      exp\n      swap1\n      div\n      0xffffffffffffffffffffffffffffffffffffffff\n      and\n        /* \"contracts/cropsFarmer.sol\":17201:17220  msg.sender == owner */\n      0xffffffffffffffffffffffffffffffffffffffff\n      and\n        /* \"contracts/cropsFarmer.sol\":17201:17211  msg.sender */\n      caller\n        /* \"contracts/cropsFarmer.sol\":17201:17220  msg.sender == owner */\n      0xffffffffffffffffffffffffffffffffffffffff\n      and\n      eq\n        /* \"contracts/cropsFarmer.sol\":17193:17239  require(msg.sender == owner, \"Admin use only\") */\n      tag_538\n      jumpi\n      mload(0x40)\n      0x08c379a000000000000000000000000000000000000000000000000000000000\n      dup2\n      mstore\n      0x04\n      add\n      tag_539\n      swap1\n      tag_449\n      jump\t// in\n    tag_539:\n      mload(0x40)\n      dup1\n      swap2\n      sub\n      swap1\n      revert\n    tag_538:\n        /* \"contracts/cropsFarmer.sol\":17276:17278  60 */\n      0x3c\n        /* \"contracts/cropsFarmer.sol\":17271:17273  60 */\n      dup1\n        /* \"contracts/cropsFarmer.sol\":17263:17268  value */\n      dup3\n        /* \"contracts/cropsFarmer.sol\":17263:17273  value * 60 */\n      tag_540\n      swap2\n      swap1\n      tag_452\n      jump\t// in\n    tag_540:\n        /* \"contracts/cropsFarmer.sol\":17263:17278  value * 60 * 60 */\n      tag_541\n      swap2\n      swap1\n      tag_452\n      jump\t// in\n    tag_541:\n        /* \"contracts/cropsFarmer.sol\":17249:17260  CUTOFF_STEP */\n      0x17\n        /* \"contracts/cropsFarmer.sol\":17249:17278  CUTOFF_STEP = value * 60 * 60 */\n      dup2\n      swap1\n      sstore\n      pop\n        /* \"contracts/cropsFarmer.sol\":17134:17285  function SET_CUTOFF_STEP(uint256 value) external {... */\n      pop\n      jump\t// out\n        /* \"contracts/cropsFarmer.sol\":1425:1451  address payable public mkt */\n    tag_248:\n      0x1f\n      0x00\n      swap1\n      sload\n      swap1\n      0x0100\n      exp\n      swap1\n      div\n      0xffffffffffffffffffffffffffffffffffffffff\n      and\n      dup2\n      jump\t// out\n        /* \"contracts/cropsFarmer.sol\":774:802  uint256 public totalDeposits */\n    tag_252:\n      sload(0x0e)\n      dup2\n      jump\t// out\n        /* \"contracts/cropsFarmer.sol\":808:836  uint256 public totalCompound */\n    tag_256:\n      sload(0x0f)\n      dup2\n      jump\t// out\n        /* \"contracts/cropsFarmer.sol\":12181:12311  function calculateEggBuySimple(uint256 eth) public view returns(uint256){... */\n    tag_261:\n        /* \"contracts/cropsFarmer.sol\":12245:12252  uint256 */\n      0x00\n        /* \"contracts/cropsFarmer.sol\":12270:12304  calculateEggBuy(eth, getBalance()) */\n      tag_543\n        /* \"contracts/cropsFarmer.sol\":12286:12289  eth */\n      dup3\n        /* \"contracts/cropsFarmer.sol\":12291:12303  getBalance() */\n      tag_544\n        /* \"contracts/cropsFarmer.sol\":12291:12301  getBalance */\n      tag_108\n        /* \"contracts/cropsFarmer.sol\":12291:12303  getBalance() */\n      jump\t// in\n    tag_544:\n        /* \"contracts/cropsFarmer.sol\":12270:12285  calculateEggBuy */\n      tag_142\n        /* \"contracts/cropsFarmer.sol\":12270:12304  calculateEggBuy(eth, getBalance()) */\n      jump\t// in\n    tag_543:\n        /* \"contracts/cropsFarmer.sol\":12263:12304  return calculateEggBuy(eth, getBalance()) */\n      swap1\n      pop\n        /* \"contracts/cropsFarmer.sol\":12181:12311  function calculateEggBuySimple(uint256 eth) public view returns(uint256){... */\n      swap2\n      swap1\n      pop\n      jump\t// out\n        /* \"contracts/cropsFarmer.sol\":17490:17689  function SET_WALLET_DEPOSIT_LIMIT(uint256 value) external {... */\n    tag_266:\n        /* \"contracts/cropsFarmer.sol\":17580:17585  owner */\n      0x19\n      0x00\n      swap1\n      sload\n      swap1\n      0x0100\n      exp\n      swap1\n      div\n      0xffffffffffffffffffffffffffffffffffffffff\n      and\n        /* \"contracts/cropsFarmer.sol\":17566:17585  msg.sender == owner */\n      0xffffffffffffffffffffffffffffffffffffffff\n      and\n        /* \"contracts/cropsFarmer.sol\":17566:17576  msg.sender */\n      caller\n        /* \"contracts/cropsFarmer.sol\":17566:17585  msg.sender == owner */\n      0xffffffffffffffffffffffffffffffffffffffff\n      and\n      eq\n        /* \"contracts/cropsFarmer.sol\":17558:17604  require(msg.sender == owner, \"Admin use only\") */\n      tag_546\n      jumpi\n      mload(0x40)\n      0x08c379a000000000000000000000000000000000000000000000000000000000\n      dup2\n      mstore\n      0x04\n      add\n      tag_547\n      swap1\n      tag_449\n      jump\t// in\n    tag_547:\n      mload(0x40)\n      dup1\n      swap2\n      sub\n      swap1\n      revert\n    tag_546:\n        /* \"contracts/cropsFarmer.sol\":17631:17633  10 */\n      0x0a\n        /* \"contracts/cropsFarmer.sol\":17622:17627  value */\n      dup2\n        /* \"contracts/cropsFarmer.sol\":17622:17633  value >= 10 */\n      lt\n      iszero\n        /* \"contracts/cropsFarmer.sol\":17614:17634  require(value >= 10) */\n      tag_548\n      jumpi\n      0x00\n      dup1\n      revert\n    tag_548:\n        /* \"contracts/cropsFarmer.sol\":17675:17682  1 ether */\n      0x0de0b6b3a7640000\n        /* \"contracts/cropsFarmer.sol\":17667:17672  value */\n      dup2\n        /* \"contracts/cropsFarmer.sol\":17667:17682  value * 1 ether */\n      tag_549\n      swap2\n      swap1\n      tag_452\n      jump\t// in\n    tag_549:\n        /* \"contracts/cropsFarmer.sol\":17644:17664  WALLET_DEPOSIT_LIMIT */\n      0x07\n        /* \"contracts/cropsFarmer.sol\":17644:17682  WALLET_DEPOSIT_LIMIT = value * 1 ether */\n      dup2\n      swap1\n      sstore\n      pop\n        /* \"contracts/cropsFarmer.sol\":17490:17689  function SET_WALLET_DEPOSIT_LIMIT(uint256 value) external {... */\n      pop\n      jump\t// out\n        /* \"contracts/cropsFarmer.sol\":1289:1316  address payable public dev2 */\n    tag_269:\n      0x1b\n      0x00\n      swap1\n      sload\n      swap1\n      0x0100\n      exp\n      swap1\n      div\n      0xffffffffffffffffffffffffffffffffffffffff\n      and\n      dup2\n      jump\t// out\n        /* \"contracts/cropsFarmer.sol\":742:768  uint256 public totalStaked */\n    tag_273:\n      sload(0x0d)\n      dup2\n      jump\t// out\n        /* \"contracts/cropsFarmer.sol\":1390:1419  address payable public prtnr2 */\n    tag_277:\n      0x1e\n      0x00\n      swap1\n      sload\n      swap1\n      0x0100\n      exp\n      swap1\n      div\n      0xffffffffffffffffffffffffffffffffffffffff\n      and\n      dup2\n      jump\t// out\n        /* \"contracts/cropsFarmer.sol\":1230:1250  address public owner */\n    tag_281:\n      0x19\n      0x00\n      swap1\n      sload\n      swap1\n      0x0100\n      exp\n      swap1\n      div\n      0xffffffffffffffffffffffffffffffffffffffff\n      and\n      dup2\n      jump\t// out\n        /* \"contracts/cropsFarmer.sol\":11869:12007  function calculateEggSell(uint256 eggs) public view returns(uint256){... */\n    tag_287:\n        /* \"contracts/cropsFarmer.sol\":11929:11936  uint256 */\n      0x00\n        /* \"contracts/cropsFarmer.sol\":11954:12000  calculateTrade(eggs, marketEggs, getBalance()) */\n      tag_551\n        /* \"contracts/cropsFarmer.sol\":11969:11973  eggs */\n      dup3\n        /* \"contracts/cropsFarmer.sol\":11975:11985  marketEggs */\n      sload(0x12)\n        /* \"contracts/cropsFarmer.sol\":11987:11999  getBalance() */\n      tag_552\n        /* \"contracts/cropsFarmer.sol\":11987:11997  getBalance */\n      tag_108\n        /* \"contracts/cropsFarmer.sol\":11987:11999  getBalance() */\n      jump\t// in\n    tag_552:\n        /* \"contracts/cropsFarmer.sol\":11954:11968  calculateTrade */\n      tag_132\n        /* \"contracts/cropsFarmer.sol\":11954:12000  calculateTrade(eggs, marketEggs, getBalance()) */\n      jump\t// in\n    tag_551:\n        /* \"contracts/cropsFarmer.sol\":11947:12000  return calculateTrade(eggs, marketEggs, getBalance()) */\n      swap1\n      pop\n        /* \"contracts/cropsFarmer.sol\":11869:12007  function calculateEggSell(uint256 eggs) public view returns(uint256){... */\n      swap2\n      swap1\n      pop\n      jump\t// out\n        /* \"contracts/cropsFarmer.sol\":1157:1203  uint256 public WITHDRAW_COOLDOWN = 4 * 60 * 60 */\n    tag_291:\n      sload(0x18)\n      dup2\n      jump\t// out\n        /* \"contracts/cropsFarmer.sol\":16782:16970  function BONUS_COMPOUND_STEP(uint256 value) external {... */\n    tag_296:\n        /* \"contracts/cropsFarmer.sol\":16867:16872  owner */\n      0x19\n      0x00\n      swap1\n      sload\n      swap1\n      0x0100\n      exp\n      swap1\n      div\n      0xffffffffffffffffffffffffffffffffffffffff\n      and\n        /* \"contracts/cropsFarmer.sol\":16853:16872  msg.sender == owner */\n      0xffffffffffffffffffffffffffffffffffffffff\n      and\n        /* \"contracts/cropsFarmer.sol\":16853:16863  msg.sender */\n      caller\n        /* \"contracts/cropsFarmer.sol\":16853:16872  msg.sender == owner */\n      0xffffffffffffffffffffffffffffffffffffffff\n      and\n      eq\n        /* \"contracts/cropsFarmer.sol\":16845:16892  require(msg.sender == owner, \"Admin use only.\") */\n      tag_554\n      jumpi\n      mload(0x40)\n      0x08c379a000000000000000000000000000000000000000000000000000000000\n      dup2\n      mstore\n      0x04\n      add\n      tag_555\n      swap1\n      tag_423\n      jump\t// in\n    tag_555:\n      mload(0x40)\n      dup1\n      swap2\n      sub\n      swap1\n      revert\n    tag_554:\n        /* \"contracts/cropsFarmer.sol\":16919:16921  24 */\n      0x18\n        /* \"contracts/cropsFarmer.sol\":16910:16915  value */\n      dup2\n        /* \"contracts/cropsFarmer.sol\":16910:16921  value <= 24 */\n      gt\n      iszero\n        /* \"contracts/cropsFarmer.sol\":16902:16922  require(value <= 24) */\n      tag_556\n      jumpi\n      0x00\n      dup1\n      revert\n    tag_556:\n        /* \"contracts/cropsFarmer.sol\":16961:16963  60 */\n      0x3c\n        /* \"contracts/cropsFarmer.sol\":16956:16958  60 */\n      dup1\n        /* \"contracts/cropsFarmer.sol\":16948:16953  value */\n      dup3\n        /* \"contracts/cropsFarmer.sol\":16948:16958  value * 60 */\n      tag_557\n      swap2\n      swap1\n      tag_452\n      jump\t// in\n    tag_557:\n        /* \"contracts/cropsFarmer.sol\":16948:16963  value * 60 * 60 */\n      tag_558\n      swap2\n      swap1\n      tag_452\n      jump\t// in\n    tag_558:\n        /* \"contracts/cropsFarmer.sol\":16932:16945  COMPOUND_STEP */\n      0x0a\n        /* \"contracts/cropsFarmer.sol\":16932:16963  COMPOUND_STEP = value * 60 * 60 */\n      dup2\n      swap1\n      sstore\n      pop\n        /* \"contracts/cropsFarmer.sol\":16782:16970  function BONUS_COMPOUND_STEP(uint256 value) external {... */\n      pop\n      jump\t// out\n        /* \"contracts/cropsFarmer.sol\":16570:16776  function BONUS_DAILY_COMPOUND_BONUS_MAX_TIMES(uint256 value) external {... */\n    tag_300:\n        /* \"contracts/cropsFarmer.sol\":16672:16677  owner */\n      0x19\n      0x00\n      swap1\n      sload\n      swap1\n      0x0100\n      exp\n      swap1\n      div\n      0xffffffffffffffffffffffffffffffffffffffff\n      and\n        /* \"contracts/cropsFarmer.sol\":16658:16677  msg.sender == owner */\n      0xffffffffffffffffffffffffffffffffffffffff\n      and\n        /* \"contracts/cropsFarmer.sol\":16658:16668  msg.sender */\n      caller\n        /* \"contracts/cropsFarmer.sol\":16658:16677  msg.sender == owner */\n      0xffffffffffffffffffffffffffffffffffffffff\n      and\n      eq\n        /* \"contracts/cropsFarmer.sol\":16650:16697  require(msg.sender == owner, \"Admin use only.\") */\n      tag_560\n      jumpi\n      mload(0x40)\n      0x08c379a000000000000000000000000000000000000000000000000000000000\n      dup2\n      mstore\n      0x04\n      add\n      tag_561\n      swap1\n      tag_423\n      jump\t// in\n    tag_561:\n      mload(0x40)\n      dup1\n      swap2\n      sub\n      swap1\n      revert\n    tag_560:\n        /* \"contracts/cropsFarmer.sol\":16724:16726  30 */\n      0x1e\n        /* \"contracts/cropsFarmer.sol\":16715:16720  value */\n      dup2\n        /* \"contracts/cropsFarmer.sol\":16715:16726  value <= 30 */\n      gt\n      iszero\n        /* \"contracts/cropsFarmer.sol\":16707:16727  require(value <= 30) */\n      tag_562\n      jumpi\n      0x00\n      dup1\n      revert\n    tag_562:\n        /* \"contracts/cropsFarmer.sol\":16764:16769  value */\n      dup1\n        /* \"contracts/cropsFarmer.sol\":16737:16761  COMPOUND_BONUS_MAX_TIMES */\n      0x09\n        /* \"contracts/cropsFarmer.sol\":16737:16769  COMPOUND_BONUS_MAX_TIMES = value */\n      dup2\n      swap1\n      sstore\n      pop\n        /* \"contracts/cropsFarmer.sol\":16570:16776  function BONUS_DAILY_COMPOUND_BONUS_MAX_TIMES(uint256 value) external {... */\n      pop\n      jump\t// out\n        /* \"contracts/cropsFarmer.sol\":2605:2754  function setblacklistActive(bool isActive) public{... */\n    tag_304:\n        /* \"contracts/cropsFarmer.sol\":2686:2691  owner */\n      0x19\n      0x00\n      swap1\n      sload\n      swap1\n      0x0100\n      exp\n      swap1\n      div\n      0xffffffffffffffffffffffffffffffffffffffff\n      and\n        /* \"contracts/cropsFarmer.sol\":2672:2691  msg.sender == owner */\n      0xffffffffffffffffffffffffffffffffffffffff\n      and\n        /* \"contracts/cropsFarmer.sol\":2672:2682  msg.sender */\n      caller\n        /* \"contracts/cropsFarmer.sol\":2672:2691  msg.sender == owner */\n      0xffffffffffffffffffffffffffffffffffffffff\n      and\n      eq\n        /* \"contracts/cropsFarmer.sol\":2664:2711  require(msg.sender == owner, \"Admin use only.\") */\n      tag_564\n      jumpi\n      mload(0x40)\n      0x08c379a000000000000000000000000000000000000000000000000000000000\n      dup2\n      mstore\n      0x04\n      add\n      tag_565\n      swap1\n      tag_423\n      jump\t// in\n    tag_565:\n      mload(0x40)\n      dup1\n      swap2\n      sub\n      swap1\n      revert\n    tag_564:\n        /* \"contracts/cropsFarmer.sol\":2739:2747  isActive */\n      dup1\n        /* \"contracts/cropsFarmer.sol\":2721:2736  blacklistActive */\n      0x15\n      0x01\n        /* \"contracts/cropsFarmer.sol\":2721:2747  blacklistActive = isActive */\n      0x0100\n      exp\n      dup2\n      sload\n      dup2\n      0xff\n      mul\n      not\n      and\n      swap1\n      dup4\n      iszero\n      iszero\n      mul\n      or\n      swap1\n      sstore\n      pop\n        /* \"contracts/cropsFarmer.sol\":2605:2754  function setblacklistActive(bool isActive) public{... */\n      pop\n      jump\t// out\n        /* \"contracts/cropsFarmer.sol\":1256:1283  address payable public dev1 */\n    tag_307:\n      0x1a\n      0x00\n      swap1\n      sload\n      swap1\n      0x0100\n      exp\n      swap1\n      div\n      0xffffffffffffffffffffffffffffffffffffffff\n      and\n      dup2\n      jump\t// out\n        /* \"contracts/cropsFarmer.sol\":1916:1953  mapping(address => User) public users */\n    tag_312:\n      0x20\n      dup1\n      mstore\n      dup1\n      0x00\n      mstore\n      keccak256(0x00, 0x40)\n      0x00\n      swap2\n      pop\n      swap1\n      pop\n      dup1\n      0x00\n      add\n      sload\n      swap1\n      dup1\n      0x01\n      add\n      sload\n      swap1\n      dup1\n      0x02\n      add\n      sload\n      swap1\n      dup1\n      0x03\n      add\n      sload\n      swap1\n      dup1\n      0x04\n      add\n      sload\n      swap1\n      dup1\n      0x05\n      add\n      0x00\n      swap1\n      sload\n      swap1\n      0x0100\n      exp\n      swap1\n      div\n      0xffffffffffffffffffffffffffffffffffffffff\n      and\n      swap1\n      dup1\n      0x06\n      add\n      sload\n      swap1\n      dup1\n      0x07\n      add\n      sload\n      swap1\n      dup1\n      0x08\n      add\n      sload\n      swap1\n      dup1\n      0x09\n      add\n      sload\n      swap1\n      dup1\n      0x0a\n      add\n      sload\n      swap1\n      dup1\n      0x0b\n      add\n      sload\n      swap1\n      pop\n      dup13\n      jump\t// out\n        /* \"contracts/cropsFarmer.sol\":1026:1060  bool public blacklistActive = true */\n    tag_316:\n      0x15\n      0x01\n      swap1\n      sload\n      swap1\n      0x0100\n      exp\n      swap1\n      div\n      0xff\n      and\n      dup2\n      jump\t// out\n        /* \"contracts/cropsFarmer.sol\":3776:3819  function fundContract() external payable {} */\n    tag_319:\n      jump\t// out\n        /* \"contracts/cropsFarmer.sol\":12401:12834  function getEggsYield(uint256 amount) public view returns(uint256,uint256) {... */\n    tag_323:\n        /* \"contracts/cropsFarmer.sol\":12459:12466  uint256 */\n      0x00\n        /* \"contracts/cropsFarmer.sol\":12467:12474  uint256 */\n      dup1\n        /* \"contracts/cropsFarmer.sol\":12486:12504  uint256 eggsAmount */\n      0x00\n        /* \"contracts/cropsFarmer.sol\":12507:12569  calculateEggBuy(amount , getBalance().add(amount).sub(amount)) */\n      tag_568\n        /* \"contracts/cropsFarmer.sol\":12523:12529  amount */\n      dup5\n        /* \"contracts/cropsFarmer.sol\":12532:12568  getBalance().add(amount).sub(amount) */\n      tag_569\n        /* \"contracts/cropsFarmer.sol\":12561:12567  amount */\n      dup7\n        /* \"contracts/cropsFarmer.sol\":12532:12556  getBalance().add(amount) */\n      tag_570\n        /* \"contracts/cropsFarmer.sol\":12549:12555  amount */\n      dup9\n        /* \"contracts/cropsFarmer.sol\":12532:12544  getBalance() */\n      tag_571\n        /* \"contracts/cropsFarmer.sol\":12532:12542  getBalance */\n      tag_108\n        /* \"contracts/cropsFarmer.sol\":12532:12544  getBalance() */\n      jump\t// in\n    tag_571:\n        /* \"contracts/cropsFarmer.sol\":12532:12548  getBalance().add */\n      tag_405\n      swap1\n        /* \"contracts/cropsFarmer.sol\":12532:12556  getBalance().add(amount) */\n      swap2\n      swap1\n      0xffffffff\n      and\n      jump\t// in\n    tag_570:\n        /* \"contracts/cropsFarmer.sol\":12532:12560  getBalance().add(amount).sub */\n      tag_410\n      swap1\n        /* \"contracts/cropsFarmer.sol\":12532:12568  getBalance().add(amount).sub(amount) */\n      swap2\n      swap1\n      0xffffffff\n      and\n      jump\t// in\n    tag_569:\n        /* \"contracts/cropsFarmer.sol\":12507:12522  calculateEggBuy */\n      tag_142\n        /* \"contracts/cropsFarmer.sol\":12507:12569  calculateEggBuy(amount , getBalance().add(amount).sub(amount)) */\n      jump\t// in\n    tag_568:\n        /* \"contracts/cropsFarmer.sol\":12486:12569  uint256 eggsAmount = calculateEggBuy(amount , getBalance().add(amount).sub(amount)) */\n      swap1\n      pop\n        /* \"contracts/cropsFarmer.sol\":12579:12593  uint256 miners */\n      0x00\n        /* \"contracts/cropsFarmer.sol\":12596:12632  eggsAmount.div(EGGS_TO_HIRE_1MINERS) */\n      tag_572\n        /* \"contracts/cropsFarmer.sol\":12611:12631  EGGS_TO_HIRE_1MINERS */\n      sload(0x00)\n        /* \"contracts/cropsFarmer.sol\":12596:12606  eggsAmount */\n      dup4\n        /* \"contracts/cropsFarmer.sol\":12596:12610  eggsAmount.div */\n      tag_417\n      swap1\n        /* \"contracts/cropsFarmer.sol\":12596:12632  eggsAmount.div(EGGS_TO_HIRE_1MINERS) */\n      swap2\n      swap1\n      0xffffffff\n      and\n      jump\t// in\n    tag_572:\n        /* \"contracts/cropsFarmer.sol\":12579:12632  uint256 miners = eggsAmount.div(EGGS_TO_HIRE_1MINERS) */\n      swap1\n      pop\n        /* \"contracts/cropsFarmer.sol\":12642:12653  uint256 day */\n      0x00\n        /* \"contracts/cropsFarmer.sol\":12656:12662  1 days */\n      0x015180\n        /* \"contracts/cropsFarmer.sol\":12642:12662  uint256 day = 1 days */\n      swap1\n      pop\n        /* \"contracts/cropsFarmer.sol\":12672:12690  uint256 eggsPerDay */\n      0x00\n        /* \"contracts/cropsFarmer.sol\":12693:12708  day.mul(miners) */\n      tag_573\n        /* \"contracts/cropsFarmer.sol\":12701:12707  miners */\n      dup4\n        /* \"contracts/cropsFarmer.sol\":12693:12696  day */\n      dup4\n        /* \"contracts/cropsFarmer.sol\":12693:12700  day.mul */\n      tag_428\n      swap1\n        /* \"contracts/cropsFarmer.sol\":12693:12708  day.mul(miners) */\n      swap2\n      swap1\n      0xffffffff\n      and\n      jump\t// in\n    tag_573:\n        /* \"contracts/cropsFarmer.sol\":12672:12708  uint256 eggsPerDay = day.mul(miners) */\n      swap1\n      pop\n        /* \"contracts/cropsFarmer.sol\":12718:12740  uint256 earningsPerDay */\n      0x00\n        /* \"contracts/cropsFarmer.sol\":12743:12787  calculateEggSellForYield(eggsPerDay, amount) */\n      tag_574\n        /* \"contracts/cropsFarmer.sol\":12768:12778  eggsPerDay */\n      dup3\n        /* \"contracts/cropsFarmer.sol\":12780:12786  amount */\n      dup10\n        /* \"contracts/cropsFarmer.sol\":12743:12767  calculateEggSellForYield */\n      tag_346\n        /* \"contracts/cropsFarmer.sol\":12743:12787  calculateEggSellForYield(eggsPerDay, amount) */\n      jump\t// in\n    tag_574:\n        /* \"contracts/cropsFarmer.sol\":12718:12787  uint256 earningsPerDay = calculateEggSellForYield(eggsPerDay, amount) */\n      swap1\n      pop\n        /* \"contracts/cropsFarmer.sol\":12804:12810  miners */\n      dup4\n        /* \"contracts/cropsFarmer.sol\":12812:12826  earningsPerDay */\n      dup2\n        /* \"contracts/cropsFarmer.sol\":12797:12827  return(miners, earningsPerDay) */\n      swap7\n      pop\n      swap7\n      pop\n      pop\n      pop\n      pop\n      pop\n      pop\n        /* \"contracts/cropsFarmer.sol\":12401:12834  function getEggsYield(uint256 amount) public view returns(uint256,uint256) {... */\n      swap2\n      pop\n      swap2\n      jump\t// out\n        /* \"contracts/cropsFarmer.sol\":16183:16362  function SET_WITHDRAWAL_TAX(uint256 value) external {... */\n    tag_329:\n        /* \"contracts/cropsFarmer.sol\":16267:16272  owner */\n      0x19\n      0x00\n      swap1\n      sload\n      swap1\n      0x0100\n      exp\n      swap1\n      div\n      0xffffffffffffffffffffffffffffffffffffffff\n      and\n        /* \"contracts/cropsFarmer.sol\":16253:16272  msg.sender == owner */\n      0xffffffffffffffffffffffffffffffffffffffff\n      and\n        /* \"contracts/cropsFarmer.sol\":16253:16263  msg.sender */\n      caller\n        /* \"contracts/cropsFarmer.sol\":16253:16272  msg.sender == owner */\n      0xffffffffffffffffffffffffffffffffffffffff\n      and\n      eq\n        /* \"contracts/cropsFarmer.sol\":16245:16292  require(msg.sender == owner, \"Admin use only.\") */\n      tag_576\n      jumpi\n      mload(0x40)\n      0x08c379a000000000000000000000000000000000000000000000000000000000\n      dup2\n      mstore\n      0x04\n      add\n      tag_577\n      swap1\n      tag_423\n      jump\t// in\n    tag_577:\n      mload(0x40)\n      dup1\n      swap2\n      sub\n      swap1\n      revert\n    tag_576:\n        /* \"contracts/cropsFarmer.sol\":16319:16322  900 */\n      0x0384\n        /* \"contracts/cropsFarmer.sol\":16310:16315  value */\n      dup2\n        /* \"contracts/cropsFarmer.sol\":16310:16322  value <= 900 */\n      gt\n      iszero\n        /* \"contracts/cropsFarmer.sol\":16302:16323  require(value <= 900) */\n      tag_578\n      jumpi\n      0x00\n      dup1\n      revert\n    tag_578:\n        /* \"contracts/cropsFarmer.sol\":16350:16355  value */\n      dup1\n        /* \"contracts/cropsFarmer.sol\":16333:16347  WITHDRAWAL_TAX */\n      0x0b\n        /* \"contracts/cropsFarmer.sol\":16333:16355  WITHDRAWAL_TAX = value */\n      dup2\n      swap1\n      sstore\n      pop\n        /* \"contracts/cropsFarmer.sol\":16183:16362  function SET_WITHDRAWAL_TAX(uint256 value) external {... */\n      pop\n      jump\t// out\n        /* \"contracts/cropsFarmer.sol\":3210:3398  function checkIfBlacklisted(address Wallet) public view returns(bool blacklisted){... */\n    tag_333:\n        /* \"contracts/cropsFarmer.sol\":3274:3290  bool blacklisted */\n      0x00\n        /* \"contracts/cropsFarmer.sol\":3323:3328  owner */\n      0x19\n      0x00\n      swap1\n      sload\n      swap1\n      0x0100\n      exp\n      swap1\n      div\n      0xffffffffffffffffffffffffffffffffffffffff\n      and\n        /* \"contracts/cropsFarmer.sol\":3309:3328  msg.sender == owner */\n      0xffffffffffffffffffffffffffffffffffffffff\n      and\n        /* \"contracts/cropsFarmer.sol\":3309:3319  msg.sender */\n      caller\n        /* \"contracts/cropsFarmer.sol\":3309:3328  msg.sender == owner */\n      0xffffffffffffffffffffffffffffffffffffffff\n      and\n      eq\n        /* \"contracts/cropsFarmer.sol\":3301:3348  require(msg.sender == owner, \"Admin use only.\") */\n      tag_580\n      jumpi\n      mload(0x40)\n      0x08c379a000000000000000000000000000000000000000000000000000000000\n      dup2\n      mstore\n      0x04\n      add\n      tag_581\n      swap1\n      tag_423\n      jump\t// in\n    tag_581:\n      mload(0x40)\n      dup1\n      swap2\n      sub\n      swap1\n      revert\n    tag_580:\n        /* \"contracts/cropsFarmer.sol\":3372:3383  Blacklisted */\n      0x16\n        /* \"contracts/cropsFarmer.sol\":3372:3391  Blacklisted[Wallet] */\n      0x00\n        /* \"contracts/cropsFarmer.sol\":3384:3390  Wallet */\n      dup4\n        /* \"contracts/cropsFarmer.sol\":3372:3391  Blacklisted[Wallet] */\n      0xffffffffffffffffffffffffffffffffffffffff\n      and\n      0xffffffffffffffffffffffffffffffffffffffff\n      and\n      dup2\n      mstore\n      0x20\n      add\n      swap1\n      dup2\n      mstore\n      0x20\n      add\n      0x00\n      keccak256\n      0x00\n      swap1\n      sload\n      swap1\n      0x0100\n      exp\n      swap1\n      div\n      0xff\n      and\n        /* \"contracts/cropsFarmer.sol\":3358:3391  blacklisted = Blacklisted[Wallet] */\n      swap1\n      pop\n        /* \"contracts/cropsFarmer.sol\":3210:3398  function checkIfBlacklisted(address Wallet) public view returns(bool blacklisted){... */\n      swap2\n      swap1\n      pop\n      jump\t// out\n        /* \"contracts/cropsFarmer.sol\":190:218  uint256 public REFERRAL = 70 */\n    tag_337:\n      sload(0x01)\n      dup2\n      jump\t// out\n        /* \"contracts/cropsFarmer.sol\":539:583  uint256 public COMPOUND_BONUS_MAX_TIMES = 10 */\n    tag_341:\n      sload(0x09)\n      dup2\n      jump\t// out\n        /* \"contracts/cropsFarmer.sol\":12840:13012  function calculateEggSellForYield(uint256 eggs,uint256 amount) public view returns(uint256){... */\n    tag_346:\n        /* \"contracts/cropsFarmer.sol\":12923:12930  uint256 */\n      0x00\n        /* \"contracts/cropsFarmer.sol\":12948:13005  calculateTrade(eggs,marketEggs, getBalance().add(amount)) */\n      tag_583\n        /* \"contracts/cropsFarmer.sol\":12963:12967  eggs */\n      dup4\n        /* \"contracts/cropsFarmer.sol\":12968:12978  marketEggs */\n      sload(0x12)\n        /* \"contracts/cropsFarmer.sol\":12980:13004  getBalance().add(amount) */\n      tag_584\n        /* \"contracts/cropsFarmer.sol\":12997:13003  amount */\n      dup6\n        /* \"contracts/cropsFarmer.sol\":12980:12992  getBalance() */\n      tag_585\n        /* \"contracts/cropsFarmer.sol\":12980:12990  getBalance */\n      tag_108\n        /* \"contracts/cropsFarmer.sol\":12980:12992  getBalance() */\n      jump\t// in\n    tag_585:\n        /* \"contracts/cropsFarmer.sol\":12980:12996  getBalance().add */\n      tag_405\n      swap1\n        /* \"contracts/cropsFarmer.sol\":12980:13004  getBalance().add(amount) */\n      swap2\n      swap1\n      0xffffffff\n      and\n      jump\t// in\n    tag_584:\n        /* \"contracts/cropsFarmer.sol\":12948:12962  calculateTrade */\n      tag_132\n        /* \"contracts/cropsFarmer.sol\":12948:13005  calculateTrade(eggs,marketEggs, getBalance().add(amount)) */\n      jump\t// in\n    tag_583:\n        /* \"contracts/cropsFarmer.sol\":12941:13005  return calculateTrade(eggs,marketEggs, getBalance().add(amount)) */\n      swap1\n      pop\n        /* \"contracts/cropsFarmer.sol\":12840:13012  function calculateEggSellForYield(uint256 eggs,uint256 amount) public view returns(uint256){... */\n      swap3\n      swap2\n      pop\n      pop\n      jump\t// out\n        /* \"contracts/cropsFarmer.sol\":370:412  uint256 public MIN_INVEST_LIMIT = 1 * 1e17 */\n    tag_350:\n      sload(0x06)\n      dup2\n      jump\t// out\n        /* \"contracts/cropsFarmer.sol\":502:536  uint256 public COMPOUND_BONUS = 20 */\n    tag_354:\n      sload(0x08)\n      dup2\n      jump\t// out\n        /* \"contracts/cropsFarmer.sol\":13496:13902  function getEggsSinceLastHatch(address adr) public view returns(uint256){... */\n    tag_359:\n        /* \"contracts/cropsFarmer.sol\":13560:13567  uint256 */\n      0x00\n        /* \"contracts/cropsFarmer.sol\":13578:13607  uint256 secondsSinceLastHatch */\n      dup1\n        /* \"contracts/cropsFarmer.sol\":13610:13651  block.timestamp.sub(users[adr].lastHatch) */\n      tag_587\n        /* \"contracts/cropsFarmer.sol\":13630:13635  users */\n      0x20\n        /* \"contracts/cropsFarmer.sol\":13630:13640  users[adr] */\n      0x00\n        /* \"contracts/cropsFarmer.sol\":13636:13639  adr */\n      dup6\n        /* \"contracts/cropsFarmer.sol\":13630:13640  users[adr] */\n      0xffffffffffffffffffffffffffffffffffffffff\n      and\n      0xffffffffffffffffffffffffffffffffffffffff\n      and\n      dup2\n      mstore\n      0x20\n      add\n      swap1\n      dup2\n      mstore\n      0x20\n      add\n      0x00\n      keccak256\n        /* \"contracts/cropsFarmer.sol\":13630:13650  users[adr].lastHatch */\n      0x04\n      add\n      sload\n        /* \"contracts/cropsFarmer.sol\":13610:13625  block.timestamp */\n      timestamp\n        /* \"contracts/cropsFarmer.sol\":13610:13629  block.timestamp.sub */\n      tag_410\n      swap1\n        /* \"contracts/cropsFarmer.sol\":13610:13651  block.timestamp.sub(users[adr].lastHatch) */\n      swap2\n      swap1\n      0xffffffff\n      and\n      jump\t// in\n    tag_587:\n        /* \"contracts/cropsFarmer.sol\":13578:13651  uint256 secondsSinceLastHatch = block.timestamp.sub(users[adr].lastHatch) */\n      swap1\n      pop\n        /* \"contracts/cropsFarmer.sol\":13711:13729  uint256 cutoffTime */\n      0x00\n        /* \"contracts/cropsFarmer.sol\":13732:13771  min(secondsSinceLastHatch, CUTOFF_STEP) */\n      tag_588\n        /* \"contracts/cropsFarmer.sol\":13736:13757  secondsSinceLastHatch */\n      dup3\n        /* \"contracts/cropsFarmer.sol\":13759:13770  CUTOFF_STEP */\n      sload(0x17)\n        /* \"contracts/cropsFarmer.sol\":13732:13735  min */\n      tag_589\n        /* \"contracts/cropsFarmer.sol\":13732:13771  min(secondsSinceLastHatch, CUTOFF_STEP) */\n      jump\t// in\n    tag_588:\n        /* \"contracts/cropsFarmer.sol\":13711:13771  uint256 cutoffTime = min(secondsSinceLastHatch, CUTOFF_STEP) */\n      swap1\n      pop\n        /* \"contracts/cropsFarmer.sol\":13781:13802  uint256 secondsPassed */\n      0x00\n        /* \"contracts/cropsFarmer.sol\":13805:13842  min(EGGS_TO_HIRE_1MINERS, cutoffTime) */\n      tag_590\n        /* \"contracts/cropsFarmer.sol\":13809:13829  EGGS_TO_HIRE_1MINERS */\n      sload(0x00)\n        /* \"contracts/cropsFarmer.sol\":13831:13841  cutoffTime */\n      dup4\n        /* \"contracts/cropsFarmer.sol\":13805:13808  min */\n      tag_589\n        /* \"contracts/cropsFarmer.sol\":13805:13842  min(EGGS_TO_HIRE_1MINERS, cutoffTime) */\n      jump\t// in\n    tag_590:\n        /* \"contracts/cropsFarmer.sol\":13781:13842  uint256 secondsPassed = min(EGGS_TO_HIRE_1MINERS, cutoffTime) */\n      swap1\n      pop\n        /* \"contracts/cropsFarmer.sol\":13859:13895  secondsPassed.mul(users[adr].miners) */\n      tag_591\n        /* \"contracts/cropsFarmer.sol\":13877:13882  users */\n      0x20\n        /* \"contracts/cropsFarmer.sol\":13877:13887  users[adr] */\n      0x00\n        /* \"contracts/cropsFarmer.sol\":13883:13886  adr */\n      dup8\n        /* \"contracts/cropsFarmer.sol\":13877:13887  users[adr] */\n      0xffffffffffffffffffffffffffffffffffffffff\n      and\n      0xffffffffffffffffffffffffffffffffffffffff\n      and\n      dup2\n      mstore\n      0x20\n      add\n      swap1\n      dup2\n      mstore\n      0x20\n      add\n      0x00\n      keccak256\n        /* \"contracts/cropsFarmer.sol\":13877:13894  users[adr].miners */\n      0x02\n      add\n      sload\n        /* \"contracts/cropsFarmer.sol\":13859:13872  secondsPassed */\n      dup3\n        /* \"contracts/cropsFarmer.sol\":13859:13876  secondsPassed.mul */\n      tag_428\n      swap1\n        /* \"contracts/cropsFarmer.sol\":13859:13895  secondsPassed.mul(users[adr].miners) */\n      swap2\n      swap1\n      0xffffffff\n      and\n      jump\t// in\n    tag_591:\n        /* \"contracts/cropsFarmer.sol\":13852:13895  return secondsPassed.mul(users[adr].miners) */\n      swap4\n      pop\n      pop\n      pop\n      pop\n        /* \"contracts/cropsFarmer.sol\":13496:13902  function getEggsSinceLastHatch(address adr) public view returns(uint256){... */\n      swap2\n      swap1\n      pop\n      jump\t// out\n        /* \"contracts/cropsFarmer.sol\":2760:2936  function blackListWallet(address Wallet, bool isBlacklisted) public{... */\n    tag_365:\n        /* \"contracts/cropsFarmer.sol\":2859:2864  owner */\n      0x19\n      0x00\n      swap1\n      sload\n      swap1\n      0x0100\n      exp\n      swap1\n      div\n      0xffffffffffffffffffffffffffffffffffffffff\n      and\n        /* \"contracts/cropsFarmer.sol\":2845:2864  msg.sender == owner */\n      0xffffffffffffffffffffffffffffffffffffffff\n      and\n        /* \"contracts/cropsFarmer.sol\":2845:2855  msg.sender */\n      caller\n        /* \"contracts/cropsFarmer.sol\":2845:2864  msg.sender == owner */\n      0xffffffffffffffffffffffffffffffffffffffff\n      and\n      eq\n        /* \"contracts/cropsFarmer.sol\":2837:2884  require(msg.sender == owner, \"Admin use only.\") */\n      tag_593\n      jumpi\n      mload(0x40)\n      0x08c379a000000000000000000000000000000000000000000000000000000000\n      dup2\n      mstore\n      0x04\n      add\n      tag_594\n      swap1\n      tag_423\n      jump\t// in\n    tag_594:\n      mload(0x40)\n      dup1\n      swap2\n      sub\n      swap1\n      revert\n    tag_593:\n        /* \"contracts/cropsFarmer.sol\":2916:2929  isBlacklisted */\n      dup1\n        /* \"contracts/cropsFarmer.sol\":2894:2905  Blacklisted */\n      0x16\n        /* \"contracts/cropsFarmer.sol\":2894:2913  Blacklisted[Wallet] */\n      0x00\n        /* \"contracts/cropsFarmer.sol\":2906:2912  Wallet */\n      dup5\n        /* \"contracts/cropsFarmer.sol\":2894:2913  Blacklisted[Wallet] */\n      0xffffffffffffffffffffffffffffffffffffffff\n      and\n      0xffffffffffffffffffffffffffffffffffffffff\n      and\n      dup2\n      mstore\n      0x20\n      add\n      swap1\n      dup2\n      mstore\n      0x20\n      add\n      0x00\n      keccak256\n      0x00\n        /* \"contracts/cropsFarmer.sol\":2894:2929  Blacklisted[Wallet] = isBlacklisted */\n      0x0100\n      exp\n      dup2\n      sload\n      dup2\n      0xff\n      mul\n      not\n      and\n      swap1\n      dup4\n      iszero\n      iszero\n      mul\n      or\n      swap1\n      sstore\n      pop\n        /* \"contracts/cropsFarmer.sol\":2760:2936  function blackListWallet(address Wallet, bool isBlacklisted) public{... */\n      pop\n      pop\n      jump\t// out\n        /* \"contracts/cropsFarmer.sol\":11102:11195  function getTimeStamp() public view returns (uint256) {... */\n    tag_368:\n        /* \"contracts/cropsFarmer.sol\":11147:11154  uint256 */\n      0x00\n        /* \"contracts/cropsFarmer.sol\":11173:11188  block.timestamp */\n      timestamp\n        /* \"contracts/cropsFarmer.sol\":11166:11188  return block.timestamp */\n      swap1\n      pop\n        /* \"contracts/cropsFarmer.sol\":11102:11195  function getTimeStamp() public view returns (uint256) {... */\n      swap1\n      jump\t// out\n        /* \"contracts/cropsFarmer.sol\":3404:3726  function startFarm(address addr) public payable{... */\n    tag_372:\n        /* \"contracts/cropsFarmer.sol\":3466:3481  contractStarted */\n      0x15\n      0x00\n      swap1\n      sload\n      swap1\n      0x0100\n      exp\n      swap1\n      div\n      0xff\n      and\n        /* \"contracts/cropsFarmer.sol\":3461:3720  if (!contractStarted) {... */\n      tag_597\n      jumpi\n        /* \"contracts/cropsFarmer.sol\":3509:3514  owner */\n      0x19\n      0x00\n      swap1\n      sload\n      swap1\n      0x0100\n      exp\n      swap1\n      div\n      0xffffffffffffffffffffffffffffffffffffffff\n      and\n        /* \"contracts/cropsFarmer.sol\":3495:3514  msg.sender == owner */\n      0xffffffffffffffffffffffffffffffffffffffff\n      and\n        /* \"contracts/cropsFarmer.sol\":3495:3505  msg.sender */\n      caller\n        /* \"contracts/cropsFarmer.sol\":3495:3514  msg.sender == owner */\n      0xffffffffffffffffffffffffffffffffffffffff\n      and\n      eq\n        /* \"contracts/cropsFarmer.sol\":3491:3712  if (msg.sender == owner) {... */\n      iszero\n      tag_598\n      jumpi\n        /* \"contracts/cropsFarmer.sol\":3550:3551  0 */\n      0x00\n        /* \"contracts/cropsFarmer.sol\":3536:3546  marketEggs */\n      sload(0x12)\n        /* \"contracts/cropsFarmer.sol\":3536:3551  marketEggs == 0 */\n      eq\n        /* \"contracts/cropsFarmer.sol\":3528:3552  require(marketEggs == 0) */\n      tag_599\n      jumpi\n      0x00\n      dup1\n      revert\n    tag_599:\n        /* \"contracts/cropsFarmer.sol\":3579:3583  true */\n      0x01\n        /* \"contracts/cropsFarmer.sol\":3561:3576  contractStarted */\n      0x15\n      0x00\n        /* \"contracts/cropsFarmer.sol\":3561:3583  contractStarted = true */\n      0x0100\n      exp\n      dup2\n      sload\n      dup2\n      0xff\n      mul\n      not\n      and\n      swap1\n      dup4\n      iszero\n      iszero\n      mul\n      or\n      swap1\n      sstore\n      pop\n        /* \"contracts/cropsFarmer.sol\":3614:3626  144000000000 */\n      0x218711a000\n        /* \"contracts/cropsFarmer.sol\":3601:3611  marketEggs */\n      0x12\n        /* \"contracts/cropsFarmer.sol\":3601:3626  marketEggs = 144000000000 */\n      dup2\n      swap1\n      sstore\n      pop\n        /* \"contracts/cropsFarmer.sol\":3645:3662  hireFarmers(addr) */\n      tag_600\n        /* \"contracts/cropsFarmer.sol\":3657:3661  addr */\n      dup2\n        /* \"contracts/cropsFarmer.sol\":3645:3656  hireFarmers */\n      tag_199\n        /* \"contracts/cropsFarmer.sol\":3645:3662  hireFarmers(addr) */\n      jump\t// in\n    tag_600:\n        /* \"contracts/cropsFarmer.sol\":3491:3712  if (msg.sender == owner) {... */\n      jump(tag_601)\n    tag_598:\n        /* \"contracts/cropsFarmer.sol\":3677:3712  revert(\"Contract not yet started.\") */\n      mload(0x40)\n      0x08c379a000000000000000000000000000000000000000000000000000000000\n      dup2\n      mstore\n      0x04\n      add\n      tag_602\n      swap1\n      tag_603\n      jump\t// in\n    tag_602:\n      mload(0x40)\n      dup1\n      swap2\n      sub\n      swap1\n      revert\n        /* \"contracts/cropsFarmer.sol\":3491:3712  if (msg.sender == owner) {... */\n    tag_601:\n        /* \"contracts/cropsFarmer.sol\":3461:3720  if (!contractStarted) {... */\n    tag_597:\n        /* \"contracts/cropsFarmer.sol\":3404:3726  function startFarm(address addr) public payable{... */\n      pop\n      jump\t// out\n        /* \"contracts/cropsFarmer.sol\":15236:15471  function PRC_EGGS_TO_HIRE_1MINERS(uint256 value) external {... */\n    tag_376:\n        /* \"contracts/cropsFarmer.sol\":15326:15331  owner */\n      0x19\n      0x00\n      swap1\n      sload\n      swap1\n      0x0100\n      exp\n      swap1\n      div\n      0xffffffffffffffffffffffffffffffffffffffff\n      and\n        /* \"contracts/cropsFarmer.sol\":15312:15331  msg.sender == owner */\n      0xffffffffffffffffffffffffffffffffffffffff\n      and\n        /* \"contracts/cropsFarmer.sol\":15312:15322  msg.sender */\n      caller\n        /* \"contracts/cropsFarmer.sol\":15312:15331  msg.sender == owner */\n      0xffffffffffffffffffffffffffffffffffffffff\n      and\n      eq\n        /* \"contracts/cropsFarmer.sol\":15304:15351  require(msg.sender == owner, \"Admin use only.\") */\n      tag_605\n      jumpi\n      mload(0x40)\n      0x08c379a000000000000000000000000000000000000000000000000000000000\n      dup2\n      mstore\n      0x04\n      add\n      tag_606\n      swap1\n      tag_423\n      jump\t// in\n    tag_606:\n      mload(0x40)\n      dup1\n      swap2\n      sub\n      swap1\n      revert\n    tag_605:\n        /* \"contracts/cropsFarmer.sol\":15378:15384  479520 */\n      0x075120\n        /* \"contracts/cropsFarmer.sol\":15369:15374  value */\n      dup2\n        /* \"contracts/cropsFarmer.sol\":15369:15384  value >= 479520 */\n      lt\n      iszero\n        /* \"contracts/cropsFarmer.sol\":15369:15403  value >= 479520 && value <= 720000 */\n      dup1\n      iszero\n      tag_607\n      jumpi\n      pop\n        /* \"contracts/cropsFarmer.sol\":15397:15403  720000 */\n      0x0afc80\n        /* \"contracts/cropsFarmer.sol\":15388:15393  value */\n      dup2\n        /* \"contracts/cropsFarmer.sol\":15388:15403  value <= 720000 */\n      gt\n      iszero\n        /* \"contracts/cropsFarmer.sol\":15369:15403  value >= 479520 && value <= 720000 */\n    tag_607:\n        /* \"contracts/cropsFarmer.sol\":15361:15404  require(value >= 479520 && value <= 720000) */\n      tag_608\n      jumpi\n      0x00\n      dup1\n      revert\n    tag_608:\n        /* \"contracts/cropsFarmer.sol\":15459:15464  value */\n      dup1\n        /* \"contracts/cropsFarmer.sol\":15436:15456  EGGS_TO_HIRE_1MINERS */\n      0x00\n        /* \"contracts/cropsFarmer.sol\":15436:15464  EGGS_TO_HIRE_1MINERS = value */\n      dup2\n      swap1\n      sstore\n      pop\n        /* \"contracts/cropsFarmer.sol\":15236:15471  function PRC_EGGS_TO_HIRE_1MINERS(uint256 value) external {... */\n      pop\n      jump\t// out\n        /* \"contracts/cropsFarmer.sol\":17699:17909  function SET_COMPOUND_FOR_NO_TAX_WITHDRAWAL(uint256 value) external {... */\n    tag_380:\n        /* \"contracts/cropsFarmer.sol\":17799:17804  owner */\n      0x19\n      0x00\n      swap1\n      sload\n      swap1\n      0x0100\n      exp\n      swap1\n      div\n      0xffffffffffffffffffffffffffffffffffffffff\n      and\n        /* \"contracts/cropsFarmer.sol\":17785:17804  msg.sender == owner */\n      0xffffffffffffffffffffffffffffffffffffffff\n      and\n        /* \"contracts/cropsFarmer.sol\":17785:17795  msg.sender */\n      caller\n        /* \"contracts/cropsFarmer.sol\":17785:17804  msg.sender == owner */\n      0xffffffffffffffffffffffffffffffffffffffff\n      and\n      eq\n        /* \"contracts/cropsFarmer.sol\":17777:17824  require(msg.sender == owner, \"Admin use only.\") */\n      tag_610\n      jumpi\n      mload(0x40)\n      0x08c379a000000000000000000000000000000000000000000000000000000000\n      dup2\n      mstore\n      0x04\n      add\n      tag_611\n      swap1\n      tag_423\n      jump\t// in\n    tag_611:\n      mload(0x40)\n      dup1\n      swap2\n      sub\n      swap1\n      revert\n    tag_610:\n        /* \"contracts/cropsFarmer.sol\":17851:17853  12 */\n      0x0c\n        /* \"contracts/cropsFarmer.sol\":17842:17847  value */\n      dup2\n        /* \"contracts/cropsFarmer.sol\":17842:17853  value <= 12 */\n      gt\n      iszero\n        /* \"contracts/cropsFarmer.sol\":17834:17854  require(value <= 12) */\n      tag_612\n      jumpi\n      0x00\n      dup1\n      revert\n    tag_612:\n        /* \"contracts/cropsFarmer.sol\":17897:17902  value */\n      dup1\n        /* \"contracts/cropsFarmer.sol\":17864:17894  COMPOUND_FOR_NO_TAX_WITHDRAWAL */\n      0x0c\n        /* \"contracts/cropsFarmer.sol\":17864:17902  COMPOUND_FOR_NO_TAX_WITHDRAWAL = value */\n      dup2\n      swap1\n      sstore\n      pop\n        /* \"contracts/cropsFarmer.sol\":17699:17909  function SET_COMPOUND_FOR_NO_TAX_WITHDRAWAL(uint256 value) external {... */\n      pop\n      jump\t// out\n        /* \"contracts/cropsFarmer.sol\":2942:3204  function blackMultipleWallets(address[] calldata Wallet, bool isBlacklisted) public{... */\n    tag_385:\n        /* \"contracts/cropsFarmer.sol\":3057:3062  owner */\n      0x19\n      0x00\n      swap1\n      sload\n      swap1\n      0x0100\n      exp\n      swap1\n      div\n      0xffffffffffffffffffffffffffffffffffffffff\n      and\n        /* \"contracts/cropsFarmer.sol\":3043:3062  msg.sender == owner */\n      0xffffffffffffffffffffffffffffffffffffffff\n      and\n        /* \"contracts/cropsFarmer.sol\":3043:3053  msg.sender */\n      caller\n        /* \"contracts/cropsFarmer.sol\":3043:3062  msg.sender == owner */\n      0xffffffffffffffffffffffffffffffffffffffff\n      and\n      eq\n        /* \"contracts/cropsFarmer.sol\":3035:3082  require(msg.sender == owner, \"Admin use only.\") */\n      tag_614\n      jumpi\n      mload(0x40)\n      0x08c379a000000000000000000000000000000000000000000000000000000000\n      dup2\n      mstore\n      0x04\n      add\n      tag_615\n      swap1\n      tag_423\n      jump\t// in\n    tag_615:\n      mload(0x40)\n      dup1\n      swap2\n      sub\n      swap1\n      revert\n    tag_614:\n        /* \"contracts/cropsFarmer.sol\":3096:3105  uint256 i */\n      0x00\n        /* \"contracts/cropsFarmer.sol\":3092:3198  for(uint256 i = 0; i < Wallet.length; i++) {... */\n    tag_616:\n        /* \"contracts/cropsFarmer.sol\":3115:3121  Wallet */\n      dup4\n      dup4\n        /* \"contracts/cropsFarmer.sol\":3115:3128  Wallet.length */\n      swap1\n      pop\n        /* \"contracts/cropsFarmer.sol\":3111:3112  i */\n      dup2\n        /* \"contracts/cropsFarmer.sol\":3111:3128  i < Wallet.length */\n      lt\n        /* \"contracts/cropsFarmer.sol\":3092:3198  for(uint256 i = 0; i < Wallet.length; i++) {... */\n      iszero\n      tag_617\n      jumpi\n        /* \"contracts/cropsFarmer.sol\":3174:3187  isBlacklisted */\n      dup2\n        /* \"contracts/cropsFarmer.sol\":3149:3160  Blacklisted */\n      0x16\n        /* \"contracts/cropsFarmer.sol\":3149:3171  Blacklisted[Wallet[i]] */\n      0x00\n        /* \"contracts/cropsFarmer.sol\":3161:3167  Wallet */\n      dup7\n      dup7\n        /* \"contracts/cropsFarmer.sol\":3168:3169  i */\n      dup6\n        /* \"contracts/cropsFarmer.sol\":3161:3170  Wallet[i] */\n      dup2\n      dup2\n      lt\n      tag_619\n      jumpi\n      tag_620\n      tag_621\n      jump\t// in\n    tag_620:\n    tag_619:\n      swap1\n      pop\n      0x20\n      mul\n      add\n      0x20\n      dup2\n      add\n      swap1\n      tag_622\n      swap2\n      swap1\n      tag_151\n      jump\t// in\n    tag_622:\n        /* \"contracts/cropsFarmer.sol\":3149:3171  Blacklisted[Wallet[i]] */\n      0xffffffffffffffffffffffffffffffffffffffff\n      and\n      0xffffffffffffffffffffffffffffffffffffffff\n      and\n      dup2\n      mstore\n      0x20\n      add\n      swap1\n      dup2\n      mstore\n      0x20\n      add\n      0x00\n      keccak256\n      0x00\n        /* \"contracts/cropsFarmer.sol\":3149:3187  Blacklisted[Wallet[i]] = isBlacklisted */\n      0x0100\n      exp\n      dup2\n      sload\n      dup2\n      0xff\n      mul\n      not\n      and\n      swap1\n      dup4\n      iszero\n      iszero\n      mul\n      or\n      swap1\n      sstore\n      pop\n        /* \"contracts/cropsFarmer.sol\":3130:3133  i++ */\n      dup1\n      dup1\n      tag_623\n      swap1\n      tag_624\n      jump\t// in\n    tag_623:\n      swap2\n      pop\n      pop\n        /* \"contracts/cropsFarmer.sol\":3092:3198  for(uint256 i = 0; i < Wallet.length; i++) {... */\n      jump(tag_616)\n    tag_617:\n      pop\n        /* \"contracts/cropsFarmer.sol\":2942:3204  function blackMultipleWallets(address[] calldata Wallet, bool isBlacklisted) public{... */\n      pop\n      pop\n      pop\n      jump\t// out\n        /* \"contracts/cropsFarmer.sol\":685:735  uint256 public COMPOUND_FOR_NO_TAX_WITHDRAWAL = 10 */\n    tag_388:\n      sload(0x0c)\n      dup2\n      jump\t// out\n        /* \"contracts/cropsFarmer.sol\":1066:1109  mapping(address => bool) public Blacklisted */\n    tag_393:\n      mstore(0x20, 0x16)\n      dup1\n      0x00\n      mstore\n      keccak256(0x00, 0x40)\n      0x00\n      swap2\n      pop\n      sload\n      swap1\n      0x0100\n      exp\n      swap1\n      div\n      0xff\n      and\n      dup2\n      jump\t// out\n        /* \"contracts/cropsFarmer.sol\":18339:18468  function add(uint256 a, uint256 b) internal pure returns (uint256) {... */\n    tag_405:\n        /* \"contracts/cropsFarmer.sol\":18397:18404  uint256 */\n      0x00\n        /* \"contracts/cropsFarmer.sol\":18412:18421  uint256 c */\n      dup1\n        /* \"contracts/cropsFarmer.sol\":18428:18429  b */\n      dup3\n        /* \"contracts/cropsFarmer.sol\":18424:18425  a */\n      dup5\n        /* \"contracts/cropsFarmer.sol\":18424:18429  a + b */\n      tag_626\n      swap2\n      swap1\n      tag_627\n      jump\t// in\n    tag_626:\n        /* \"contracts/cropsFarmer.sol\":18412:18429  uint256 c = a + b */\n      swap1\n      pop\n        /* \"contracts/cropsFarmer.sol\":18447:18448  a */\n      dup4\n        /* \"contracts/cropsFarmer.sol\":18442:18443  c */\n      dup2\n        /* \"contracts/cropsFarmer.sol\":18442:18448  c >= a */\n      lt\n      iszero\n        /* \"contracts/cropsFarmer.sol\":18435:18449  assert(c >= a) */\n      tag_628\n      jumpi\n      tag_629\n      tag_630\n      jump\t// in\n    tag_629:\n    tag_628:\n        /* \"contracts/cropsFarmer.sol\":18462:18463  c */\n      dup1\n        /* \"contracts/cropsFarmer.sol\":18455:18463  return c */\n      swap2\n      pop\n      pop\n        /* \"contracts/cropsFarmer.sol\":18339:18468  function add(uint256 a, uint256 b) internal pure returns (uint256) {... */\n      swap3\n      swap2\n      pop\n      pop\n      jump\t// out\n        /* \"contracts/cropsFarmer.sol\":18225:18335  function sub(uint256 a, uint256 b) internal pure returns (uint256) {... */\n    tag_410:\n        /* \"contracts/cropsFarmer.sol\":18283:18290  uint256 */\n      0x00\n        /* \"contracts/cropsFarmer.sol\":18310:18311  a */\n      dup3\n        /* \"contracts/cropsFarmer.sol\":18305:18306  b */\n      dup3\n        /* \"contracts/cropsFarmer.sol\":18305:18311  b <= a */\n      gt\n      iszero\n        /* \"contracts/cropsFarmer.sol\":18298:18312  assert(b <= a) */\n      tag_632\n      jumpi\n      tag_633\n      tag_630\n      jump\t// in\n    tag_633:\n    tag_632:\n        /* \"contracts/cropsFarmer.sol\":18329:18330  b */\n      dup2\n        /* \"contracts/cropsFarmer.sol\":18325:18326  a */\n      dup4\n        /* \"contracts/cropsFarmer.sol\":18325:18330  a - b */\n      tag_634\n      swap2\n      swap1\n      tag_635\n      jump\t// in\n    tag_634:\n        /* \"contracts/cropsFarmer.sol\":18318:18330  return a - b */\n      swap1\n      pop\n        /* \"contracts/cropsFarmer.sol\":18225:18335  function sub(uint256 a, uint256 b) internal pure returns (uint256) {... */\n      swap3\n      swap2\n      pop\n      pop\n      jump\t// out\n        /* \"contracts/cropsFarmer.sol\":18112:18221  function div(uint256 a, uint256 b) internal pure returns (uint256) {... */\n    tag_417:\n        /* \"contracts/cropsFarmer.sol\":18170:18177  uint256 */\n      0x00\n        /* \"contracts/cropsFarmer.sol\":18185:18194  uint256 c */\n      dup1\n        /* \"contracts/cropsFarmer.sol\":18201:18202  b */\n      dup3\n        /* \"contracts/cropsFarmer.sol\":18197:18198  a */\n      dup5\n        /* \"contracts/cropsFarmer.sol\":18197:18202  a / b */\n      tag_637\n      swap2\n      swap1\n      tag_638\n      jump\t// in\n    tag_637:\n        /* \"contracts/cropsFarmer.sol\":18185:18202  uint256 c = a / b */\n      swap1\n      pop\n        /* \"contracts/cropsFarmer.sol\":18215:18216  c */\n      dup1\n        /* \"contracts/cropsFarmer.sol\":18208:18216  return c */\n      swap2\n      pop\n      pop\n        /* \"contracts/cropsFarmer.sol\":18112:18221  function div(uint256 a, uint256 b) internal pure returns (uint256) {... */\n      swap3\n      swap2\n      pop\n      pop\n      jump\t// out\n        /* \"contracts/cropsFarmer.sol\":17935:18108  function mul(uint256 a, uint256 b) internal pure returns (uint256) {... */\n    tag_428:\n        /* \"contracts/cropsFarmer.sol\":17993:18000  uint256 */\n      0x00\n        /* \"contracts/cropsFarmer.sol\":18017:18018  0 */\n      dup1\n        /* \"contracts/cropsFarmer.sol\":18012:18013  a */\n      dup4\n        /* \"contracts/cropsFarmer.sol\":18012:18018  a == 0 */\n      eq\n        /* \"contracts/cropsFarmer.sol\":18008:18043  if (a == 0) {... */\n      iszero\n      tag_640\n      jumpi\n        /* \"contracts/cropsFarmer.sol\":18035:18036  0 */\n      0x00\n        /* \"contracts/cropsFarmer.sol\":18028:18036  return 0 */\n      swap1\n      pop\n      jump(tag_639)\n        /* \"contracts/cropsFarmer.sol\":18008:18043  if (a == 0) {... */\n    tag_640:\n        /* \"contracts/cropsFarmer.sol\":18048:18057  uint256 c */\n      0x00\n        /* \"contracts/cropsFarmer.sol\":18064:18065  b */\n      dup3\n        /* \"contracts/cropsFarmer.sol\":18060:18061  a */\n      dup5\n        /* \"contracts/cropsFarmer.sol\":18060:18065  a * b */\n      tag_641\n      swap2\n      swap1\n      tag_452\n      jump\t// in\n    tag_641:\n        /* \"contracts/cropsFarmer.sol\":18048:18065  uint256 c = a * b */\n      swap1\n      pop\n        /* \"contracts/cropsFarmer.sol\":18087:18088  b */\n      dup3\n        /* \"contracts/cropsFarmer.sol\":18082:18083  a */\n      dup5\n        /* \"contracts/cropsFarmer.sol\":18078:18079  c */\n      dup3\n        /* \"contracts/cropsFarmer.sol\":18078:18083  c / a */\n      tag_642\n      swap2\n      swap1\n      tag_638\n      jump\t// in\n    tag_642:\n        /* \"contracts/cropsFarmer.sol\":18078:18088  c / a == b */\n      eq\n        /* \"contracts/cropsFarmer.sol\":18071:18089  assert(c / a == b) */\n      tag_643\n      jumpi\n      tag_644\n      tag_630\n      jump\t// in\n    tag_644:\n    tag_643:\n        /* \"contracts/cropsFarmer.sol\":18102:18103  c */\n      dup1\n        /* \"contracts/cropsFarmer.sol\":18095:18103  return c */\n      swap2\n      pop\n      pop\n        /* \"contracts/cropsFarmer.sol\":17935:18108  function mul(uint256 a, uint256 b) internal pure returns (uint256) {... */\n    tag_639:\n      swap3\n      swap2\n      pop\n      pop\n      jump\t// out\n        /* \"contracts/cropsFarmer.sol\":6549:7405  function sendRewardToReferrals(address investor,uint _investedAmount)  internal  //this is the freferral function to transfer the reawards to referrals... */\n    tag_486:\n        /* \"contracts/cropsFarmer.sol\":6717:6729  address temp */\n      0x00\n        /* \"contracts/cropsFarmer.sol\":6732:6740  investor */\n      dup3\n        /* \"contracts/cropsFarmer.sol\":6717:6740  address temp = investor */\n      swap1\n      pop\n        /* \"contracts/cropsFarmer.sol\":6757:6781  uint[] memory percentage */\n      0x00\n        /* \"contracts/cropsFarmer.sol\":6795:6796  3 */\n      0x03\n        /* \"contracts/cropsFarmer.sol\":6784:6797  new uint[](3) */\n      0xffffffffffffffff\n      dup2\n      gt\n      iszero\n      tag_646\n      jumpi\n      tag_647\n      tag_648\n      jump\t// in\n    tag_647:\n    tag_646:\n      mload(0x40)\n      swap1\n      dup1\n      dup3\n      mstore\n      dup1\n      0x20\n      mul\n      0x20\n      add\n      dup3\n      add\n      0x40\n      mstore\n      dup1\n      iszero\n      tag_649\n      jumpi\n      dup2\n      0x20\n      add\n      0x20\n      dup3\n      mul\n      dup1\n      calldatasize\n      dup4\n      calldatacopy\n      dup1\n      dup3\n      add\n      swap2\n      pop\n      pop\n      swap1\n      pop\n    tag_649:\n      pop\n        /* \"contracts/cropsFarmer.sol\":6757:6797  uint[] memory percentage = new uint[](3) */\n      swap1\n      pop\n        /* \"contracts/cropsFarmer.sol\":6823:6824  8 */\n      0x08\n        /* \"contracts/cropsFarmer.sol\":6807:6817  percentage */\n      dup2\n        /* \"contracts/cropsFarmer.sol\":6818:6819  0 */\n      0x00\n        /* \"contracts/cropsFarmer.sol\":6807:6820  percentage[0] */\n      dup2\n      mload\n      dup2\n      lt\n      tag_650\n      jumpi\n      tag_651\n      tag_621\n      jump\t// in\n    tag_651:\n    tag_650:\n      0x20\n      mul\n      0x20\n      add\n      add\n        /* \"contracts/cropsFarmer.sol\":6807:6824  percentage[0] = 8 */\n      dup2\n      dup2\n      mstore\n      pop\n      pop\n        /* \"contracts/cropsFarmer.sol\":6850:6851  3 */\n      0x03\n        /* \"contracts/cropsFarmer.sol\":6834:6844  percentage */\n      dup2\n        /* \"contracts/cropsFarmer.sol\":6845:6846  1 */\n      0x01\n        /* \"contracts/cropsFarmer.sol\":6834:6847  percentage[1] */\n      dup2\n      mload\n      dup2\n      lt\n      tag_652\n      jumpi\n      tag_653\n      tag_621\n      jump\t// in\n    tag_653:\n    tag_652:\n      0x20\n      mul\n      0x20\n      add\n      add\n        /* \"contracts/cropsFarmer.sol\":6834:6851  percentage[1] = 3 */\n      dup2\n      dup2\n      mstore\n      pop\n      pop\n        /* \"contracts/cropsFarmer.sol\":6877:6878  2 */\n      0x02\n        /* \"contracts/cropsFarmer.sol\":6861:6871  percentage */\n      dup2\n        /* \"contracts/cropsFarmer.sol\":6872:6873  2 */\n      0x02\n        /* \"contracts/cropsFarmer.sol\":6861:6874  percentage[2] */\n      dup2\n      mload\n      dup2\n      lt\n      tag_654\n      jumpi\n      tag_655\n      tag_621\n      jump\t// in\n    tag_655:\n    tag_654:\n      0x20\n      mul\n      0x20\n      add\n      add\n        /* \"contracts/cropsFarmer.sol\":6861:6878  percentage[2] = 2 */\n      dup2\n      dup2\n      mstore\n      pop\n      pop\n        /* \"contracts/cropsFarmer.sol\":6896:6902  uint i */\n      0x00\n        /* \"contracts/cropsFarmer.sol\":6892:7398  for(uint i=0;i<3;i++)... */\n    tag_656:\n        /* \"contracts/cropsFarmer.sol\":6907:6908  3 */\n      0x03\n        /* \"contracts/cropsFarmer.sol\":6905:6906  i */\n      dup2\n        /* \"contracts/cropsFarmer.sol\":6905:6908  i<3 */\n      lt\n        /* \"contracts/cropsFarmer.sol\":6892:7398  for(uint i=0;i<3;i++)... */\n      iszero\n      tag_657\n      jumpi\n        /* \"contracts/cropsFarmer.sol\":6970:6971  0 */\n      0x00\n        /* \"contracts/cropsFarmer.sol\":6940:6972  users[temp].referrer!=address(0) */\n      0xffffffffffffffffffffffffffffffffffffffff\n      and\n        /* \"contracts/cropsFarmer.sol\":6940:6945  users */\n      0x20\n        /* \"contracts/cropsFarmer.sol\":6940:6951  users[temp] */\n      0x00\n        /* \"contracts/cropsFarmer.sol\":6946:6950  temp */\n      dup6\n        /* \"contracts/cropsFarmer.sol\":6940:6951  users[temp] */\n      0xffffffffffffffffffffffffffffffffffffffff\n      and\n      0xffffffffffffffffffffffffffffffffffffffff\n      and\n      dup2\n      mstore\n      0x20\n      add\n      swap1\n      dup2\n      mstore\n      0x20\n      add\n      0x00\n      keccak256\n        /* \"contracts/cropsFarmer.sol\":6940:6960  users[temp].referrer */\n      0x05\n      add\n      0x00\n      swap1\n      sload\n      swap1\n      0x0100\n      exp\n      swap1\n      div\n      0xffffffffffffffffffffffffffffffffffffffff\n      and\n        /* \"contracts/cropsFarmer.sol\":6940:6972  users[temp].referrer!=address(0) */\n      0xffffffffffffffffffffffffffffffffffffffff\n      and\n      eq\n        /* \"contracts/cropsFarmer.sol\":6937:7387  if(users[temp].referrer!=address(0))... */\n      tag_659\n      jumpi\n        /* \"contracts/cropsFarmer.sol\":7010:7015  users */\n      0x20\n        /* \"contracts/cropsFarmer.sol\":7010:7021  users[temp] */\n      0x00\n        /* \"contracts/cropsFarmer.sol\":7016:7020  temp */\n      dup5\n        /* \"contracts/cropsFarmer.sol\":7010:7021  users[temp] */\n      0xffffffffffffffffffffffffffffffffffffffff\n      and\n      0xffffffffffffffffffffffffffffffffffffffff\n      and\n      dup2\n      mstore\n      0x20\n      add\n      swap1\n      dup2\n      mstore\n      0x20\n      add\n      0x00\n      keccak256\n        /* \"contracts/cropsFarmer.sol\":7010:7030  users[temp].referrer */\n      0x05\n      add\n      0x00\n      swap1\n      sload\n      swap1\n      0x0100\n      exp\n      swap1\n      div\n      0xffffffffffffffffffffffffffffffffffffffff\n      and\n        /* \"contracts/cropsFarmer.sol\":7005:7030  temp=users[temp].referrer */\n      swap3\n      pop\n        /* \"contracts/cropsFarmer.sol\":7048:7060  uint reward1 */\n      0x00\n        /* \"contracts/cropsFarmer.sol\":7097:7100  100 */\n      0x64\n        /* \"contracts/cropsFarmer.sol\":7080:7095  _investedAmount */\n      dup6\n        /* \"contracts/cropsFarmer.sol\":7064:7074  percentage */\n      dup5\n        /* \"contracts/cropsFarmer.sol\":7075:7076  i */\n      dup5\n        /* \"contracts/cropsFarmer.sol\":7064:7077  percentage[i] */\n      dup2\n      mload\n      dup2\n      lt\n      tag_660\n      jumpi\n      tag_661\n      tag_621\n      jump\t// in\n    tag_661:\n    tag_660:\n      0x20\n      mul\n      0x20\n      add\n      add\n      mload\n        /* \"contracts/cropsFarmer.sol\":7064:7095  percentage[i] * _investedAmount */\n      tag_662\n      swap2\n      swap1\n      tag_452\n      jump\t// in\n    tag_662:\n        /* \"contracts/cropsFarmer.sol\":7063:7100  (percentage[i] * _investedAmount)/100 */\n      tag_663\n      swap2\n      swap1\n      tag_638\n      jump\t// in\n    tag_663:\n        /* \"contracts/cropsFarmer.sol\":7048:7100  uint reward1 = (percentage[i] * _investedAmount)/100 */\n      swap1\n      pop\n        /* \"contracts/cropsFarmer.sol\":7136:7140  temp */\n      dup4\n        /* \"contracts/cropsFarmer.sol\":7120:7151  payable(address(temp)).transfer */\n      0xffffffffffffffffffffffffffffffffffffffff\n      and\n        /* \"contracts/cropsFarmer.sol\":7120:7160  payable(address(temp)).transfer(reward1) */\n      0x08fc\n        /* \"contracts/cropsFarmer.sol\":7152:7159  reward1 */\n      dup3\n        /* \"contracts/cropsFarmer.sol\":7120:7160  payable(address(temp)).transfer(reward1) */\n      swap1\n      dup2\n      iszero\n      mul\n      swap1\n      mload(0x40)\n      0x00\n      mload(0x40)\n      dup1\n      dup4\n      sub\n      dup2\n      dup6\n      dup9\n      dup9\n      call\n      swap4\n      pop\n      pop\n      pop\n      pop\n      iszero\n      dup1\n      iszero\n      tag_665\n      jumpi\n      returndatasize\n      0x00\n      dup1\n      returndatacopy\n      revert(0x00, returndatasize)\n    tag_665:\n      pop\n        /* \"contracts/cropsFarmer.sol\":7211:7254  users[temp].referralEggRewards.add(reward1) */\n      tag_666\n        /* \"contracts/cropsFarmer.sol\":7246:7253  reward1 */\n      dup2\n        /* \"contracts/cropsFarmer.sol\":7211:7216  users */\n      0x20\n        /* \"contracts/cropsFarmer.sol\":7211:7222  users[temp] */\n      0x00\n        /* \"contracts/cropsFarmer.sol\":7217:7221  temp */\n      dup8\n        /* \"contracts/cropsFarmer.sol\":7211:7222  users[temp] */\n      0xffffffffffffffffffffffffffffffffffffffff\n      and\n      0xffffffffffffffffffffffffffffffffffffffff\n      and\n      dup2\n      mstore\n      0x20\n      add\n      swap1\n      dup2\n      mstore\n      0x20\n      add\n      0x00\n      keccak256\n        /* \"contracts/cropsFarmer.sol\":7211:7241  users[temp].referralEggRewards */\n      0x07\n      add\n      sload\n        /* \"contracts/cropsFarmer.sol\":7211:7245  users[temp].referralEggRewards.add */\n      tag_405\n      swap1\n        /* \"contracts/cropsFarmer.sol\":7211:7254  users[temp].referralEggRewards.add(reward1) */\n      swap2\n      swap1\n      0xffffffff\n      and\n      jump\t// in\n    tag_666:\n        /* \"contracts/cropsFarmer.sol\":7178:7183  users */\n      0x20\n        /* \"contracts/cropsFarmer.sol\":7178:7189  users[temp] */\n      0x00\n        /* \"contracts/cropsFarmer.sol\":7184:7188  temp */\n      dup7\n        /* \"contracts/cropsFarmer.sol\":7178:7189  users[temp] */\n      0xffffffffffffffffffffffffffffffffffffffff\n      and\n      0xffffffffffffffffffffffffffffffffffffffff\n      and\n      dup2\n      mstore\n      0x20\n      add\n      swap1\n      dup2\n      mstore\n      0x20\n      add\n      0x00\n      keccak256\n        /* \"contracts/cropsFarmer.sol\":7178:7208  users[temp].referralEggRewards */\n      0x07\n      add\n        /* \"contracts/cropsFarmer.sol\":7178:7254  users[temp].referralEggRewards = users[temp].referralEggRewards.add(reward1) */\n      dup2\n      swap1\n      sstore\n      pop\n        /* \"contracts/cropsFarmer.sol\":7288:7314  totalRefBonus.add(reward1) */\n      tag_667\n        /* \"contracts/cropsFarmer.sol\":7306:7313  reward1 */\n      dup2\n        /* \"contracts/cropsFarmer.sol\":7288:7301  totalRefBonus */\n      sload(0x10)\n        /* \"contracts/cropsFarmer.sol\":7288:7305  totalRefBonus.add */\n      tag_405\n      swap1\n        /* \"contracts/cropsFarmer.sol\":7288:7314  totalRefBonus.add(reward1) */\n      swap2\n      swap1\n      0xffffffff\n      and\n      jump\t// in\n    tag_667:\n        /* \"contracts/cropsFarmer.sol\":7272:7285  totalRefBonus */\n      0x10\n        /* \"contracts/cropsFarmer.sol\":7272:7314  totalRefBonus = totalRefBonus.add(reward1) */\n      dup2\n      swap1\n      sstore\n      pop\n        /* \"contracts/cropsFarmer.sol\":6986:7331  {... */\n      pop\n        /* \"contracts/cropsFarmer.sol\":6937:7387  if(users[temp].referrer!=address(0))... */\n      jump(tag_668)\n    tag_659:\n        /* \"contracts/cropsFarmer.sol\":7367:7372  break */\n      jump(tag_657)\n        /* \"contracts/cropsFarmer.sol\":6937:7387  if(users[temp].referrer!=address(0))... */\n    tag_668:\n        /* \"contracts/cropsFarmer.sol\":6909:6912  i++ */\n      dup1\n      dup1\n      tag_669\n      swap1\n      tag_624\n      jump\t// in\n    tag_669:\n      swap2\n      pop\n      pop\n        /* \"contracts/cropsFarmer.sol\":6892:7398  for(uint i=0;i<3;i++)... */\n      jump(tag_656)\n    tag_657:\n      pop\n        /* \"contracts/cropsFarmer.sol\":6705:7405  { ... */\n      pop\n      pop\n        /* \"contracts/cropsFarmer.sol\":6549:7405  function sendRewardToReferrals(address investor,uint _investedAmount)  internal  //this is the freferral function to transfer the reawards to referrals... */\n      pop\n      pop\n      jump\t// out\n        /* \"contracts/cropsFarmer.sol\":9193:9614  function payFees(uint256 eggValue) internal returns(uint256){... */\n    tag_488:\n        /* \"contracts/cropsFarmer.sol\":9245:9252  uint256 */\n      0x00\n        /* \"contracts/cropsFarmer.sol\":9263:9274  uint256 tax */\n      dup1\n        /* \"contracts/cropsFarmer.sol\":9277:9316  eggValue.mul(TAX).div(PERCENTS_DIVIDER) */\n      tag_671\n        /* \"contracts/cropsFarmer.sol\":9299:9315  PERCENTS_DIVIDER */\n      sload(0x02)\n        /* \"contracts/cropsFarmer.sol\":9277:9294  eggValue.mul(TAX) */\n      tag_672\n        /* \"contracts/cropsFarmer.sol\":9290:9293  TAX */\n      sload(0x03)\n        /* \"contracts/cropsFarmer.sol\":9277:9285  eggValue */\n      dup7\n        /* \"contracts/cropsFarmer.sol\":9277:9289  eggValue.mul */\n      tag_428\n      swap1\n        /* \"contracts/cropsFarmer.sol\":9277:9294  eggValue.mul(TAX) */\n      swap2\n      swap1\n      0xffffffff\n      and\n      jump\t// in\n    tag_672:\n        /* \"contracts/cropsFarmer.sol\":9277:9298  eggValue.mul(TAX).div */\n      tag_417\n      swap1\n        /* \"contracts/cropsFarmer.sol\":9277:9316  eggValue.mul(TAX).div(PERCENTS_DIVIDER) */\n      swap2\n      swap1\n      0xffffffff\n      and\n      jump\t// in\n    tag_671:\n        /* \"contracts/cropsFarmer.sol\":9263:9316  uint256 tax = eggValue.mul(TAX).div(PERCENTS_DIVIDER) */\n      swap1\n      pop\n        /* \"contracts/cropsFarmer.sol\":9326:9339  uint256 mktng */\n      0x00\n        /* \"contracts/cropsFarmer.sol\":9342:9381  eggValue.mul(MKT).div(PERCENTS_DIVIDER) */\n      tag_673\n        /* \"contracts/cropsFarmer.sol\":9364:9380  PERCENTS_DIVIDER */\n      sload(0x02)\n        /* \"contracts/cropsFarmer.sol\":9342:9359  eggValue.mul(MKT) */\n      tag_674\n        /* \"contracts/cropsFarmer.sol\":9355:9358  MKT */\n      sload(0x04)\n        /* \"contracts/cropsFarmer.sol\":9342:9350  eggValue */\n      dup8\n        /* \"contracts/cropsFarmer.sol\":9342:9354  eggValue.mul */\n      tag_428\n      swap1\n        /* \"contracts/cropsFarmer.sol\":9342:9359  eggValue.mul(MKT) */\n      swap2\n      swap1\n      0xffffffff\n      and\n      jump\t// in\n    tag_674:\n        /* \"contracts/cropsFarmer.sol\":9342:9363  eggValue.mul(MKT).div */\n      tag_417\n      swap1\n        /* \"contracts/cropsFarmer.sol\":9342:9381  eggValue.mul(MKT).div(PERCENTS_DIVIDER) */\n      swap2\n      swap1\n      0xffffffff\n      and\n      jump\t// in\n    tag_673:\n        /* \"contracts/cropsFarmer.sol\":9326:9381  uint256 mktng = eggValue.mul(MKT).div(PERCENTS_DIVIDER) */\n      swap1\n      pop\n        /* \"contracts/cropsFarmer.sol\":9391:9395  dev1 */\n      0x1a\n      0x00\n      swap1\n      sload\n      swap1\n      0x0100\n      exp\n      swap1\n      div\n      0xffffffffffffffffffffffffffffffffffffffff\n      and\n        /* \"contracts/cropsFarmer.sol\":9391:9404  dev1.transfer */\n      0xffffffffffffffffffffffffffffffffffffffff\n      and\n        /* \"contracts/cropsFarmer.sol\":9391:9409  dev1.transfer(tax) */\n      0x08fc\n        /* \"contracts/cropsFarmer.sol\":9405:9408  tax */\n      dup4\n        /* \"contracts/cropsFarmer.sol\":9391:9409  dev1.transfer(tax) */\n      swap1\n      dup2\n      iszero\n      mul\n      swap1\n      mload(0x40)\n      0x00\n      mload(0x40)\n      dup1\n      dup4\n      sub\n      dup2\n      dup6\n      dup9\n      dup9\n      call\n      swap4\n      pop\n      pop\n      pop\n      pop\n      iszero\n      dup1\n      iszero\n      tag_676\n      jumpi\n      returndatasize\n      0x00\n      dup1\n      returndatacopy\n      revert(0x00, returndatasize)\n    tag_676:\n      pop\n        /* \"contracts/cropsFarmer.sol\":9586:9607  mktng.add(tax.mul(5)) */\n      tag_677\n        /* \"contracts/cropsFarmer.sol\":9596:9606  tax.mul(5) */\n      tag_678\n        /* \"contracts/cropsFarmer.sol\":9604:9605  5 */\n      0x05\n        /* \"contracts/cropsFarmer.sol\":9596:9599  tax */\n      dup5\n        /* \"contracts/cropsFarmer.sol\":9596:9603  tax.mul */\n      tag_428\n      swap1\n        /* \"contracts/cropsFarmer.sol\":9596:9606  tax.mul(5) */\n      swap2\n      swap1\n      0xffffffff\n      and\n      jump\t// in\n    tag_678:\n        /* \"contracts/cropsFarmer.sol\":9586:9591  mktng */\n      dup3\n        /* \"contracts/cropsFarmer.sol\":9586:9595  mktng.add */\n      tag_405\n      swap1\n        /* \"contracts/cropsFarmer.sol\":9586:9607  mktng.add(tax.mul(5)) */\n      swap2\n      swap1\n      0xffffffff\n      and\n      jump\t// in\n    tag_677:\n        /* \"contracts/cropsFarmer.sol\":9579:9607  return mktng.add(tax.mul(5)) */\n      swap3\n      pop\n      pop\n      pop\n        /* \"contracts/cropsFarmer.sol\":9193:9614  function payFees(uint256 eggValue) internal returns(uint256){... */\n      swap2\n      swap1\n      pop\n      jump\t// out\n        /* \"contracts/cropsFarmer.sol\":13908:14011  function min(uint256 a, uint256 b) private pure returns (uint256) {... */\n    tag_589:\n        /* \"contracts/cropsFarmer.sol\":13965:13972  uint256 */\n      0x00\n        /* \"contracts/cropsFarmer.sol\":13995:13996  b */\n      dup2\n        /* \"contracts/cropsFarmer.sol\":13991:13992  a */\n      dup4\n        /* \"contracts/cropsFarmer.sol\":13991:13996  a < b */\n      lt\n        /* \"contracts/cropsFarmer.sol\":13991:14004  a < b ? a : b */\n      tag_680\n      jumpi\n        /* \"contracts/cropsFarmer.sol\":14003:14004  b */\n      dup2\n        /* \"contracts/cropsFarmer.sol\":13991:14004  a < b ? a : b */\n      jump(tag_681)\n    tag_680:\n        /* \"contracts/cropsFarmer.sol\":13999:14000  a */\n      dup3\n        /* \"contracts/cropsFarmer.sol\":13991:14004  a < b ? a : b */\n    tag_681:\n        /* \"contracts/cropsFarmer.sol\":13984:14004  return a < b ? a : b */\n      swap1\n      pop\n        /* \"contracts/cropsFarmer.sol\":13908:14011  function min(uint256 a, uint256 b) private pure returns (uint256) {... */\n      swap3\n      swap2\n      pop\n      pop\n      jump\t// out\n        /* \"#utility.yul\":7:84   */\n    tag_682:\n        /* \"#utility.yul\":44:51   */\n      0x00\n        /* \"#utility.yul\":73:78   */\n      dup2\n        /* \"#utility.yul\":62:78   */\n      swap1\n      pop\n        /* \"#utility.yul\":7:84   */\n      swap2\n      swap1\n      pop\n      jump\t// out\n        /* \"#utility.yul\":90:208   */\n    tag_683:\n        /* \"#utility.yul\":177:201   */\n      tag_724\n        /* \"#utility.yul\":195:200   */\n      dup2\n        /* \"#utility.yul\":177:201   */\n      tag_682\n      jump\t// in\n    tag_724:\n        /* \"#utility.yul\":172:175   */\n      dup3\n        /* \"#utility.yul\":165:202   */\n      mstore\n        /* \"#utility.yul\":90:208   */\n      pop\n      pop\n      jump\t// out\n        /* \"#utility.yul\":214:436   */\n    tag_92:\n        /* \"#utility.yul\":307:311   */\n      0x00\n        /* \"#utility.yul\":345:347   */\n      0x20\n        /* \"#utility.yul\":334:343   */\n      dup3\n        /* \"#utility.yul\":330:348   */\n      add\n        /* \"#utility.yul\":322:348   */\n      swap1\n      pop\n        /* \"#utility.yul\":358:429   */\n      tag_726\n        /* \"#utility.yul\":426:427   */\n      0x00\n        /* \"#utility.yul\":415:424   */\n      dup4\n        /* \"#utility.yul\":411:428   */\n      add\n        /* \"#utility.yul\":402:408   */\n      dup5\n        /* \"#utility.yul\":358:429   */\n      tag_683\n      jump\t// in\n    tag_726:\n        /* \"#utility.yul\":214:436   */\n      swap3\n      swap2\n      pop\n      pop\n      jump\t// out\n        /* \"#utility.yul\":442:568   */\n    tag_684:\n        /* \"#utility.yul\":479:486   */\n      0x00\n        /* \"#utility.yul\":519:561   */\n      0xffffffffffffffffffffffffffffffffffffffff\n        /* \"#utility.yul\":512:517   */\n      dup3\n        /* \"#utility.yul\":508:562   */\n      and\n        /* \"#utility.yul\":497:562   */\n      swap1\n      pop\n        /* \"#utility.yul\":442:568   */\n      swap2\n      swap1\n      pop\n      jump\t// out\n        /* \"#utility.yul\":574:678   */\n    tag_685:\n        /* \"#utility.yul\":619:626   */\n      0x00\n        /* \"#utility.yul\":648:672   */\n      tag_729\n        /* \"#utility.yul\":666:671   */\n      dup3\n        /* \"#utility.yul\":648:672   */\n      tag_684\n      jump\t// in\n    tag_729:\n        /* \"#utility.yul\":637:672   */\n      swap1\n      pop\n        /* \"#utility.yul\":574:678   */\n      swap2\n      swap1\n      pop\n      jump\t// out\n        /* \"#utility.yul\":684:826   */\n    tag_686:\n        /* \"#utility.yul\":787:819   */\n      tag_731\n        /* \"#utility.yul\":813:818   */\n      dup2\n        /* \"#utility.yul\":787:819   */\n      tag_685\n      jump\t// in\n    tag_731:\n        /* \"#utility.yul\":782:785   */\n      dup3\n        /* \"#utility.yul\":775:820   */\n      mstore\n        /* \"#utility.yul\":684:826   */\n      pop\n      pop\n      jump\t// out\n        /* \"#utility.yul\":832:1086   */\n    tag_101:\n        /* \"#utility.yul\":941:945   */\n      0x00\n        /* \"#utility.yul\":979:981   */\n      0x20\n        /* \"#utility.yul\":968:977   */\n      dup3\n        /* \"#utility.yul\":964:982   */\n      add\n        /* \"#utility.yul\":956:982   */\n      swap1\n      pop\n        /* \"#utility.yul\":992:1079   */\n      tag_733\n        /* \"#utility.yul\":1076:1077   */\n      0x00\n        /* \"#utility.yul\":1065:1074   */\n      dup4\n        /* \"#utility.yul\":1061:1078   */\n      add\n        /* \"#utility.yul\":1052:1058   */\n      dup5\n        /* \"#utility.yul\":992:1079   */\n      tag_686\n      jump\t// in\n    tag_733:\n        /* \"#utility.yul\":832:1086   */\n      swap3\n      swap2\n      pop\n      pop\n      jump\t// out\n        /* \"#utility.yul\":1173:1290   */\n    tag_688:\n        /* \"#utility.yul\":1282:1283   */\n      0x00\n        /* \"#utility.yul\":1279:1280   */\n      dup1\n        /* \"#utility.yul\":1272:1284   */\n      revert\n        /* \"#utility.yul\":1296:1413   */\n    tag_689:\n        /* \"#utility.yul\":1405:1406   */\n      0x00\n        /* \"#utility.yul\":1402:1403   */\n      dup1\n        /* \"#utility.yul\":1395:1407   */\n      revert\n        /* \"#utility.yul\":1419:1509   */\n    tag_690:\n        /* \"#utility.yul\":1453:1460   */\n      0x00\n        /* \"#utility.yul\":1496:1501   */\n      dup2\n        /* \"#utility.yul\":1489:1502   */\n      iszero\n        /* \"#utility.yul\":1482:1503   */\n      iszero\n        /* \"#utility.yul\":1471:1503   */\n      swap1\n      pop\n        /* \"#utility.yul\":1419:1509   */\n      swap2\n      swap1\n      pop\n      jump\t// out\n        /* \"#utility.yul\":1515:1631   */\n    tag_691:\n        /* \"#utility.yul\":1585:1606   */\n      tag_739\n        /* \"#utility.yul\":1600:1605   */\n      dup2\n        /* \"#utility.yul\":1585:1606   */\n      tag_690\n      jump\t// in\n    tag_739:\n        /* \"#utility.yul\":1578:1583   */\n      dup2\n        /* \"#utility.yul\":1575:1607   */\n      eq\n        /* \"#utility.yul\":1565:1625   */\n      tag_740\n      jumpi\n        /* \"#utility.yul\":1621:1622   */\n      0x00\n        /* \"#utility.yul\":1618:1619   */\n      dup1\n        /* \"#utility.yul\":1611:1623   */\n      revert\n        /* \"#utility.yul\":1565:1625   */\n    tag_740:\n        /* \"#utility.yul\":1515:1631   */\n      pop\n      jump\t// out\n        /* \"#utility.yul\":1637:1770   */\n    tag_692:\n        /* \"#utility.yul\":1680:1685   */\n      0x00\n        /* \"#utility.yul\":1718:1724   */\n      dup2\n        /* \"#utility.yul\":1705:1725   */\n      calldataload\n        /* \"#utility.yul\":1696:1725   */\n      swap1\n      pop\n        /* \"#utility.yul\":1734:1764   */\n      tag_742\n        /* \"#utility.yul\":1758:1763   */\n      dup2\n        /* \"#utility.yul\":1734:1764   */\n      tag_691\n      jump\t// in\n    tag_742:\n        /* \"#utility.yul\":1637:1770   */\n      swap3\n      swap2\n      pop\n      pop\n      jump\t// out\n        /* \"#utility.yul\":1776:2099   */\n    tag_117:\n        /* \"#utility.yul\":1832:1838   */\n      0x00\n        /* \"#utility.yul\":1881:1883   */\n      0x20\n        /* \"#utility.yul\":1869:1878   */\n      dup3\n        /* \"#utility.yul\":1860:1867   */\n      dup5\n        /* \"#utility.yul\":1856:1879   */\n      sub\n        /* \"#utility.yul\":1852:1884   */\n      slt\n        /* \"#utility.yul\":1849:1968   */\n      iszero\n      tag_744\n      jumpi\n        /* \"#utility.yul\":1887:1966   */\n      tag_745\n      tag_688\n      jump\t// in\n    tag_745:\n        /* \"#utility.yul\":1849:1968   */\n    tag_744:\n        /* \"#utility.yul\":2007:2008   */\n      0x00\n        /* \"#utility.yul\":2032:2082   */\n      tag_746\n        /* \"#utility.yul\":2074:2081   */\n      dup5\n        /* \"#utility.yul\":2065:2071   */\n      dup3\n        /* \"#utility.yul\":2054:2063   */\n      dup6\n        /* \"#utility.yul\":2050:2072   */\n      add\n        /* \"#utility.yul\":2032:2082   */\n      tag_692\n      jump\t// in\n    tag_746:\n        /* \"#utility.yul\":2022:2082   */\n      swap2\n      pop\n        /* \"#utility.yul\":1978:2092   */\n      pop\n        /* \"#utility.yul\":1776:2099   */\n      swap3\n      swap2\n      pop\n      pop\n      jump\t// out\n        /* \"#utility.yul\":2105:2227   */\n    tag_693:\n        /* \"#utility.yul\":2178:2202   */\n      tag_748\n        /* \"#utility.yul\":2196:2201   */\n      dup2\n        /* \"#utility.yul\":2178:2202   */\n      tag_682\n      jump\t// in\n    tag_748:\n        /* \"#utility.yul\":2171:2176   */\n      dup2\n        /* \"#utility.yul\":2168:2203   */\n      eq\n        /* \"#utility.yul\":2158:2221   */\n      tag_749\n      jumpi\n        /* \"#utility.yul\":2217:2218   */\n      0x00\n        /* \"#utility.yul\":2214:2215   */\n      dup1\n        /* \"#utility.yul\":2207:2219   */\n      revert\n        /* \"#utility.yul\":2158:2221   */\n    tag_749:\n        /* \"#utility.yul\":2105:2227   */\n      pop\n      jump\t// out\n        /* \"#utility.yul\":2233:2372   */\n    tag_694:\n        /* \"#utility.yul\":2279:2284   */\n      0x00\n        /* \"#utility.yul\":2317:2323   */\n      dup2\n        /* \"#utility.yul\":2304:2324   */\n      calldataload\n        /* \"#utility.yul\":2295:2324   */\n      swap1\n      pop\n        /* \"#utility.yul\":2333:2366   */\n      tag_751\n        /* \"#utility.yul\":2360:2365   */\n      dup2\n        /* \"#utility.yul\":2333:2366   */\n      tag_693\n      jump\t// in\n    tag_751:\n        /* \"#utility.yul\":2233:2372   */\n      swap3\n      swap2\n      pop\n      pop\n      jump\t// out\n        /* \"#utility.yul\":2378:2707   */\n    tag_126:\n        /* \"#utility.yul\":2437:2443   */\n      0x00\n        /* \"#utility.yul\":2486:2488   */\n      0x20\n        /* \"#utility.yul\":2474:2483   */\n      dup3\n        /* \"#utility.yul\":2465:2472   */\n      dup5\n        /* \"#utility.yul\":2461:2484   */\n      sub\n        /* \"#utility.yul\":2457:2489   */\n      slt\n        /* \"#utility.yul\":2454:2573   */\n      iszero\n      tag_753\n      jumpi\n        /* \"#utility.yul\":2492:2571   */\n      tag_754\n      tag_688\n      jump\t// in\n    tag_754:\n        /* \"#utility.yul\":2454:2573   */\n    tag_753:\n        /* \"#utility.yul\":2612:2613   */\n      0x00\n        /* \"#utility.yul\":2637:2690   */\n      tag_755\n        /* \"#utility.yul\":2682:2689   */\n      dup5\n        /* \"#utility.yul\":2673:2679   */\n      dup3\n        /* \"#utility.yul\":2662:2671   */\n      dup6\n        /* \"#utility.yul\":2658:2680   */\n      add\n        /* \"#utility.yul\":2637:2690   */\n      tag_694\n      jump\t// in\n    tag_755:\n        /* \"#utility.yul\":2627:2690   */\n      swap2\n      pop\n        /* \"#utility.yul\":2583:2700   */\n      pop\n        /* \"#utility.yul\":2378:2707   */\n      swap3\n      swap2\n      pop\n      pop\n      jump\t// out\n        /* \"#utility.yul\":2713:3332   */\n    tag_131:\n        /* \"#utility.yul\":2790:2796   */\n      0x00\n        /* \"#utility.yul\":2798:2804   */\n      dup1\n        /* \"#utility.yul\":2806:2812   */\n      0x00\n        /* \"#utility.yul\":2855:2857   */\n      0x60\n        /* \"#utility.yul\":2843:2852   */\n      dup5\n        /* \"#utility.yul\":2834:2841   */\n      dup7\n        /* \"#utility.yul\":2830:2853   */\n      sub\n        /* \"#utility.yul\":2826:2858   */\n      slt\n        /* \"#utility.yul\":2823:2942   */\n      iszero\n      tag_757\n      jumpi\n        /* \"#utility.yul\":2861:2940   */\n      tag_758\n      tag_688\n      jump\t// in\n    tag_758:\n        /* \"#utility.yul\":2823:2942   */\n    tag_757:\n        /* \"#utility.yul\":2981:2982   */\n      0x00\n        /* \"#utility.yul\":3006:3059   */\n      tag_759\n        /* \"#utility.yul\":3051:3058   */\n      dup7\n        /* \"#utility.yul\":3042:3048   */\n      dup3\n        /* \"#utility.yul\":3031:3040   */\n      dup8\n        /* \"#utility.yul\":3027:3049   */\n      add\n        /* \"#utility.yul\":3006:3059   */\n      tag_694\n      jump\t// in\n    tag_759:\n        /* \"#utility.yul\":2996:3059   */\n      swap4\n      pop\n        /* \"#utility.yul\":2952:3069   */\n      pop\n        /* \"#utility.yul\":3108:3110   */\n      0x20\n        /* \"#utility.yul\":3134:3187   */\n      tag_760\n        /* \"#utility.yul\":3179:3186   */\n      dup7\n        /* \"#utility.yul\":3170:3176   */\n      dup3\n        /* \"#utility.yul\":3159:3168   */\n      dup8\n        /* \"#utility.yul\":3155:3177   */\n      add\n        /* \"#utility.yul\":3134:3187   */\n      tag_694\n      jump\t// in\n    tag_760:\n        /* \"#utility.yul\":3124:3187   */\n      swap3\n      pop\n        /* \"#utility.yul\":3079:3197   */\n      pop\n        /* \"#utility.yul\":3236:3238   */\n      0x40\n        /* \"#utility.yul\":3262:3315   */\n      tag_761\n        /* \"#utility.yul\":3307:3314   */\n      dup7\n        /* \"#utility.yul\":3298:3304   */\n      dup3\n        /* \"#utility.yul\":3287:3296   */\n      dup8\n        /* \"#utility.yul\":3283:3305   */\n      add\n        /* \"#utility.yul\":3262:3315   */\n      tag_694\n      jump\t// in\n    tag_761:\n        /* \"#utility.yul\":3252:3315   */\n      swap2\n      pop\n        /* \"#utility.yul\":3207:3325   */\n      pop\n        /* \"#utility.yul\":2713:3332   */\n      swap3\n      pop\n      swap3\n      pop\n      swap3\n      jump\t// out\n        /* \"#utility.yul\":3338:3812   */\n    tag_141:\n        /* \"#utility.yul\":3406:3412   */\n      0x00\n        /* \"#utility.yul\":3414:3420   */\n      dup1\n        /* \"#utility.yul\":3463:3465   */\n      0x40\n        /* \"#utility.yul\":3451:3460   */\n      dup4\n        /* \"#utility.yul\":3442:3449   */\n      dup6\n        /* \"#utility.yul\":3438:3461   */\n      sub\n        /* \"#utility.yul\":3434:3466   */\n      slt\n        /* \"#utility.yul\":3431:3550   */\n      iszero\n      tag_763\n      jumpi\n        /* \"#utility.yul\":3469:3548   */\n      tag_764\n      tag_688\n      jump\t// in\n    tag_764:\n        /* \"#utility.yul\":3431:3550   */\n    tag_763:\n        /* \"#utility.yul\":3589:3590   */\n      0x00\n        /* \"#utility.yul\":3614:3667   */\n      tag_765\n        /* \"#utility.yul\":3659:3666   */\n      dup6\n        /* \"#utility.yul\":3650:3656   */\n      dup3\n        /* \"#utility.yul\":3639:3648   */\n      dup7\n        /* \"#utility.yul\":3635:3657   */\n      add\n        /* \"#utility.yul\":3614:3667   */\n      tag_694\n      jump\t// in\n    tag_765:\n        /* \"#utility.yul\":3604:3667   */\n      swap3\n      pop\n        /* \"#utility.yul\":3560:3677   */\n      pop\n        /* \"#utility.yul\":3716:3718   */\n      0x20\n        /* \"#utility.yul\":3742:3795   */\n      tag_766\n        /* \"#utility.yul\":3787:3794   */\n      dup6\n        /* \"#utility.yul\":3778:3784   */\n      dup3\n        /* \"#utility.yul\":3767:3776   */\n      dup7\n        /* \"#utility.yul\":3763:3785   */\n      add\n        /* \"#utility.yul\":3742:3795   */\n      tag_694\n      jump\t// in\n    tag_766:\n        /* \"#utility.yul\":3732:3795   */\n      swap2\n      pop\n        /* \"#utility.yul\":3687:3805   */\n      pop\n        /* \"#utility.yul\":3338:3812   */\n      swap3\n      pop\n      swap3\n      swap1\n      pop\n      jump\t// out\n        /* \"#utility.yul\":3818:3914   */\n    tag_695:\n        /* \"#utility.yul\":3855:3862   */\n      0x00\n        /* \"#utility.yul\":3884:3908   */\n      tag_768\n        /* \"#utility.yul\":3902:3907   */\n      dup3\n        /* \"#utility.yul\":3884:3908   */\n      tag_684\n      jump\t// in\n    tag_768:\n        /* \"#utility.yul\":3873:3908   */\n      swap1\n      pop\n        /* \"#utility.yul\":3818:3914   */\n      swap2\n      swap1\n      pop\n      jump\t// out\n        /* \"#utility.yul\":3920:4042   */\n    tag_696:\n        /* \"#utility.yul\":3993:4017   */\n      tag_770\n        /* \"#utility.yul\":4011:4016   */\n      dup2\n        /* \"#utility.yul\":3993:4017   */\n      tag_695\n      jump\t// in\n    tag_770:\n        /* \"#utility.yul\":3986:3991   */\n      dup2\n        /* \"#utility.yul\":3983:4018   */\n      eq\n        /* \"#utility.yul\":3973:4036   */\n      tag_771\n      jumpi\n        /* \"#utility.yul\":4032:4033   */\n      0x00\n        /* \"#utility.yul\":4029:4030   */\n      dup1\n        /* \"#utility.yul\":4022:4034   */\n      revert\n        /* \"#utility.yul\":3973:4036   */\n    tag_771:\n        /* \"#utility.yul\":3920:4042   */\n      pop\n      jump\t// out\n        /* \"#utility.yul\":4048:4187   */\n    tag_697:\n        /* \"#utility.yul\":4094:4099   */\n      0x00\n        /* \"#utility.yul\":4132:4138   */\n      dup2\n        /* \"#utility.yul\":4119:4139   */\n      calldataload\n        /* \"#utility.yul\":4110:4139   */\n      swap1\n      pop\n        /* \"#utility.yul\":4148:4181   */\n      tag_773\n        /* \"#utility.yul\":4175:4180   */\n      dup2\n        /* \"#utility.yul\":4148:4181   */\n      tag_696\n      jump\t// in\n    tag_773:\n        /* \"#utility.yul\":4048:4187   */\n      swap3\n      swap2\n      pop\n      pop\n      jump\t// out\n        /* \"#utility.yul\":4193:4522   */\n    tag_151:\n        /* \"#utility.yul\":4252:4258   */\n      0x00\n        /* \"#utility.yul\":4301:4303   */\n      0x20\n        /* \"#utility.yul\":4289:4298   */\n      dup3\n        /* \"#utility.yul\":4280:4287   */\n      dup5\n        /* \"#utility.yul\":4276:4299   */\n      sub\n        /* \"#utility.yul\":4272:4304   */\n      slt\n        /* \"#utility.yul\":4269:4388   */\n      iszero\n      tag_775\n      jumpi\n        /* \"#utility.yul\":4307:4386   */\n      tag_776\n      tag_688\n      jump\t// in\n    tag_776:\n        /* \"#utility.yul\":4269:4388   */\n    tag_775:\n        /* \"#utility.yul\":4427:4428   */\n      0x00\n        /* \"#utility.yul\":4452:4505   */\n      tag_777\n        /* \"#utility.yul\":4497:4504   */\n      dup5\n        /* \"#utility.yul\":4488:4494   */\n      dup3\n        /* \"#utility.yul\":4477:4486   */\n      dup6\n        /* \"#utility.yul\":4473:4495   */\n      add\n        /* \"#utility.yul\":4452:4505   */\n      tag_697\n      jump\t// in\n    tag_777:\n        /* \"#utility.yul\":4442:4505   */\n      swap2\n      pop\n        /* \"#utility.yul\":4398:4515   */\n      pop\n        /* \"#utility.yul\":4193:4522   */\n      swap3\n      swap2\n      pop\n      pop\n      jump\t// out\n        /* \"#utility.yul\":4528:4637   */\n    tag_698:\n        /* \"#utility.yul\":4609:4630   */\n      tag_779\n        /* \"#utility.yul\":4624:4629   */\n      dup2\n        /* \"#utility.yul\":4609:4630   */\n      tag_690\n      jump\t// in\n    tag_779:\n        /* \"#utility.yul\":4604:4607   */\n      dup3\n        /* \"#utility.yul\":4597:4631   */\n      mstore\n        /* \"#utility.yul\":4528:4637   */\n      pop\n      pop\n      jump\t// out\n        /* \"#utility.yul\":4643:4853   */\n    tag_165:\n        /* \"#utility.yul\":4730:4734   */\n      0x00\n        /* \"#utility.yul\":4768:4770   */\n      0x20\n        /* \"#utility.yul\":4757:4766   */\n      dup3\n        /* \"#utility.yul\":4753:4771   */\n      add\n        /* \"#utility.yul\":4745:4771   */\n      swap1\n      pop\n        /* \"#utility.yul\":4781:4846   */\n      tag_781\n        /* \"#utility.yul\":4843:4844   */\n      0x00\n        /* \"#utility.yul\":4832:4841   */\n      dup4\n        /* \"#utility.yul\":4828:4845   */\n      add\n        /* \"#utility.yul\":4819:4825   */\n      dup5\n        /* \"#utility.yul\":4781:4846   */\n      tag_698\n      jump\t// in\n    tag_781:\n        /* \"#utility.yul\":4643:4853   */\n      swap3\n      swap2\n      pop\n      pop\n      jump\t// out\n        /* \"#utility.yul\":4859:5412   */\n    tag_190:\n        /* \"#utility.yul\":5036:5040   */\n      0x00\n        /* \"#utility.yul\":5074:5077   */\n      0x80\n        /* \"#utility.yul\":5063:5072   */\n      dup3\n        /* \"#utility.yul\":5059:5078   */\n      add\n        /* \"#utility.yul\":5051:5078   */\n      swap1\n      pop\n        /* \"#utility.yul\":5088:5159   */\n      tag_783\n        /* \"#utility.yul\":5156:5157   */\n      0x00\n        /* \"#utility.yul\":5145:5154   */\n      dup4\n        /* \"#utility.yul\":5141:5158   */\n      add\n        /* \"#utility.yul\":5132:5138   */\n      dup8\n        /* \"#utility.yul\":5088:5159   */\n      tag_683\n      jump\t// in\n    tag_783:\n        /* \"#utility.yul\":5169:5241   */\n      tag_784\n        /* \"#utility.yul\":5237:5239   */\n      0x20\n        /* \"#utility.yul\":5226:5235   */\n      dup4\n        /* \"#utility.yul\":5222:5240   */\n      add\n        /* \"#utility.yul\":5213:5219   */\n      dup7\n        /* \"#utility.yul\":5169:5241   */\n      tag_683\n      jump\t// in\n    tag_784:\n        /* \"#utility.yul\":5251:5323   */\n      tag_785\n        /* \"#utility.yul\":5319:5321   */\n      0x40\n        /* \"#utility.yul\":5308:5317   */\n      dup4\n        /* \"#utility.yul\":5304:5322   */\n      add\n        /* \"#utility.yul\":5295:5301   */\n      dup6\n        /* \"#utility.yul\":5251:5323   */\n      tag_683\n      jump\t// in\n    tag_785:\n        /* \"#utility.yul\":5333:5405   */\n      tag_786\n        /* \"#utility.yul\":5401:5403   */\n      0x60\n        /* \"#utility.yul\":5390:5399   */\n      dup4\n        /* \"#utility.yul\":5386:5404   */\n      add\n        /* \"#utility.yul\":5377:5383   */\n      dup5\n        /* \"#utility.yul\":5333:5405   */\n      tag_683\n      jump\t// in\n    tag_786:\n        /* \"#utility.yul\":4859:5412   */\n      swap6\n      swap5\n      pop\n      pop\n      pop\n      pop\n      pop\n      jump\t// out\n        /* \"#utility.yul\":5418:5892   */\n    tag_194:\n        /* \"#utility.yul\":5486:5492   */\n      0x00\n        /* \"#utility.yul\":5494:5500   */\n      dup1\n        /* \"#utility.yul\":5543:5545   */\n      0x40\n        /* \"#utility.yul\":5531:5540   */\n      dup4\n        /* \"#utility.yul\":5522:5529   */\n      dup6\n        /* \"#utility.yul\":5518:5541   */\n      sub\n        /* \"#utility.yul\":5514:5546   */\n      slt\n        /* \"#utility.yul\":5511:5630   */\n      iszero\n      tag_788\n      jumpi\n        /* \"#utility.yul\":5549:5628   */\n      tag_789\n      tag_688\n      jump\t// in\n    tag_789:\n        /* \"#utility.yul\":5511:5630   */\n    tag_788:\n        /* \"#utility.yul\":5669:5670   */\n      0x00\n        /* \"#utility.yul\":5694:5747   */\n      tag_790\n        /* \"#utility.yul\":5739:5746   */\n      dup6\n        /* \"#utility.yul\":5730:5736   */\n      dup3\n        /* \"#utility.yul\":5719:5728   */\n      dup7\n        /* \"#utility.yul\":5715:5737   */\n      add\n        /* \"#utility.yul\":5694:5747   */\n      tag_697\n      jump\t// in\n    tag_790:\n        /* \"#utility.yul\":5684:5747   */\n      swap3\n      pop\n        /* \"#utility.yul\":5640:5757   */\n      pop\n        /* \"#utility.yul\":5796:5798   */\n      0x20\n        /* \"#utility.yul\":5822:5875   */\n      tag_791\n        /* \"#utility.yul\":5867:5874   */\n      dup6\n        /* \"#utility.yul\":5858:5864   */\n      dup3\n        /* \"#utility.yul\":5847:5856   */\n      dup7\n        /* \"#utility.yul\":5843:5865   */\n      add\n        /* \"#utility.yul\":5822:5875   */\n      tag_694\n      jump\t// in\n    tag_791:\n        /* \"#utility.yul\":5812:5875   */\n      swap2\n      pop\n        /* \"#utility.yul\":5767:5885   */\n      pop\n        /* \"#utility.yul\":5418:5892   */\n      swap3\n      pop\n      swap3\n      swap1\n      pop\n      jump\t// out\n        /* \"#utility.yul\":5898:6016   */\n    tag_699:\n        /* \"#utility.yul\":5985:6009   */\n      tag_793\n        /* \"#utility.yul\":6003:6008   */\n      dup2\n        /* \"#utility.yul\":5985:6009   */\n      tag_695\n      jump\t// in\n    tag_793:\n        /* \"#utility.yul\":5980:5983   */\n      dup3\n        /* \"#utility.yul\":5973:6010   */\n      mstore\n        /* \"#utility.yul\":5898:6016   */\n      pop\n      pop\n      jump\t// out\n        /* \"#utility.yul\":6022:7467   */\n    tag_216:\n        /* \"#utility.yul\":6425:6429   */\n      0x00\n        /* \"#utility.yul\":6463:6466   */\n      0x0180\n        /* \"#utility.yul\":6452:6461   */\n      dup3\n        /* \"#utility.yul\":6448:6467   */\n      add\n        /* \"#utility.yul\":6440:6467   */\n      swap1\n      pop\n        /* \"#utility.yul\":6477:6548   */\n      tag_795\n        /* \"#utility.yul\":6545:6546   */\n      0x00\n        /* \"#utility.yul\":6534:6543   */\n      dup4\n        /* \"#utility.yul\":6530:6547   */\n      add\n        /* \"#utility.yul\":6521:6527   */\n      dup16\n        /* \"#utility.yul\":6477:6548   */\n      tag_683\n      jump\t// in\n    tag_795:\n        /* \"#utility.yul\":6558:6630   */\n      tag_796\n        /* \"#utility.yul\":6626:6628   */\n      0x20\n        /* \"#utility.yul\":6615:6624   */\n      dup4\n        /* \"#utility.yul\":6611:6629   */\n      add\n        /* \"#utility.yul\":6602:6608   */\n      dup15\n        /* \"#utility.yul\":6558:6630   */\n      tag_683\n      jump\t// in\n    tag_796:\n        /* \"#utility.yul\":6640:6712   */\n      tag_797\n        /* \"#utility.yul\":6708:6710   */\n      0x40\n        /* \"#utility.yul\":6697:6706   */\n      dup4\n        /* \"#utility.yul\":6693:6711   */\n      add\n        /* \"#utility.yul\":6684:6690   */\n      dup14\n        /* \"#utility.yul\":6640:6712   */\n      tag_683\n      jump\t// in\n    tag_797:\n        /* \"#utility.yul\":6722:6794   */\n      tag_798\n        /* \"#utility.yul\":6790:6792   */\n      0x60\n        /* \"#utility.yul\":6779:6788   */\n      dup4\n        /* \"#utility.yul\":6775:6793   */\n      add\n        /* \"#utility.yul\":6766:6772   */\n      dup13\n        /* \"#utility.yul\":6722:6794   */\n      tag_683\n      jump\t// in\n    tag_798:\n        /* \"#utility.yul\":6804:6877   */\n      tag_799\n        /* \"#utility.yul\":6872:6875   */\n      0x80\n        /* \"#utility.yul\":6861:6870   */\n      dup4\n        /* \"#utility.yul\":6857:6876   */\n      add\n        /* \"#utility.yul\":6848:6854   */\n      dup12\n        /* \"#utility.yul\":6804:6877   */\n      tag_683\n      jump\t// in\n    tag_799:\n        /* \"#utility.yul\":6887:6960   */\n      tag_800\n        /* \"#utility.yul\":6955:6958   */\n      0xa0\n        /* \"#utility.yul\":6944:6953   */\n      dup4\n        /* \"#utility.yul\":6940:6959   */\n      add\n        /* \"#utility.yul\":6931:6937   */\n      dup11\n        /* \"#utility.yul\":6887:6960   */\n      tag_699\n      jump\t// in\n    tag_800:\n        /* \"#utility.yul\":6970:7043   */\n      tag_801\n        /* \"#utility.yul\":7038:7041   */\n      0xc0\n        /* \"#utility.yul\":7027:7036   */\n      dup4\n        /* \"#utility.yul\":7023:7042   */\n      add\n        /* \"#utility.yul\":7014:7020   */\n      dup10\n        /* \"#utility.yul\":6970:7043   */\n      tag_683\n      jump\t// in\n    tag_801:\n        /* \"#utility.yul\":7053:7126   */\n      tag_802\n        /* \"#utility.yul\":7121:7124   */\n      0xe0\n        /* \"#utility.yul\":7110:7119   */\n      dup4\n        /* \"#utility.yul\":7106:7125   */\n      add\n        /* \"#utility.yul\":7097:7103   */\n      dup9\n        /* \"#utility.yul\":7053:7126   */\n      tag_683\n      jump\t// in\n    tag_802:\n        /* \"#utility.yul\":7136:7209   */\n      tag_803\n        /* \"#utility.yul\":7204:7207   */\n      0x0100\n        /* \"#utility.yul\":7193:7202   */\n      dup4\n        /* \"#utility.yul\":7189:7208   */\n      add\n        /* \"#utility.yul\":7180:7186   */\n      dup8\n        /* \"#utility.yul\":7136:7209   */\n      tag_683\n      jump\t// in\n    tag_803:\n        /* \"#utility.yul\":7219:7292   */\n      tag_804\n        /* \"#utility.yul\":7287:7290   */\n      0x0120\n        /* \"#utility.yul\":7276:7285   */\n      dup4\n        /* \"#utility.yul\":7272:7291   */\n      add\n        /* \"#utility.yul\":7263:7269   */\n      dup7\n        /* \"#utility.yul\":7219:7292   */\n      tag_683\n      jump\t// in\n    tag_804:\n        /* \"#utility.yul\":7302:7376   */\n      tag_805\n        /* \"#utility.yul\":7371:7374   */\n      0x0140\n        /* \"#utility.yul\":7360:7369   */\n      dup4\n        /* \"#utility.yul\":7356:7375   */\n      add\n        /* \"#utility.yul\":7346:7353   */\n      dup6\n        /* \"#utility.yul\":7302:7376   */\n      tag_683\n      jump\t// in\n    tag_805:\n        /* \"#utility.yul\":7386:7460   */\n      tag_806\n        /* \"#utility.yul\":7455:7458   */\n      0x0160\n        /* \"#utility.yul\":7444:7453   */\n      dup4\n        /* \"#utility.yul\":7440:7459   */\n      add\n        /* \"#utility.yul\":7430:7437   */\n      dup5\n        /* \"#utility.yul\":7386:7460   */\n      tag_683\n      jump\t// in\n    tag_806:\n        /* \"#utility.yul\":6022:7467   */\n      swap14\n      swap13\n      pop\n      pop\n      pop\n      pop\n      pop\n      pop\n      pop\n      pop\n      pop\n      pop\n      pop\n      pop\n      pop\n      jump\t// out\n        /* \"#utility.yul\":7473:7695   */\n    tag_283:\n        /* \"#utility.yul\":7566:7570   */\n      0x00\n        /* \"#utility.yul\":7604:7606   */\n      0x20\n        /* \"#utility.yul\":7593:7602   */\n      dup3\n        /* \"#utility.yul\":7589:7607   */\n      add\n        /* \"#utility.yul\":7581:7607   */\n      swap1\n      pop\n        /* \"#utility.yul\":7617:7688   */\n      tag_808\n        /* \"#utility.yul\":7685:7686   */\n      0x00\n        /* \"#utility.yul\":7674:7683   */\n      dup4\n        /* \"#utility.yul\":7670:7687   */\n      add\n        /* \"#utility.yul\":7661:7667   */\n      dup5\n        /* \"#utility.yul\":7617:7688   */\n      tag_699\n      jump\t// in\n    tag_808:\n        /* \"#utility.yul\":7473:7695   */\n      swap3\n      swap2\n      pop\n      pop\n      jump\t// out\n        /* \"#utility.yul\":7701:8033   */\n    tag_325:\n        /* \"#utility.yul\":7822:7826   */\n      0x00\n        /* \"#utility.yul\":7860:7862   */\n      0x40\n        /* \"#utility.yul\":7849:7858   */\n      dup3\n        /* \"#utility.yul\":7845:7863   */\n      add\n        /* \"#utility.yul\":7837:7863   */\n      swap1\n      pop\n        /* \"#utility.yul\":7873:7944   */\n      tag_810\n        /* \"#utility.yul\":7941:7942   */\n      0x00\n        /* \"#utility.yul\":7930:7939   */\n      dup4\n        /* \"#utility.yul\":7926:7943   */\n      add\n        /* \"#utility.yul\":7917:7923   */\n      dup6\n        /* \"#utility.yul\":7873:7944   */\n      tag_683\n      jump\t// in\n    tag_810:\n        /* \"#utility.yul\":7954:8026   */\n      tag_811\n        /* \"#utility.yul\":8022:8024   */\n      0x20\n        /* \"#utility.yul\":8011:8020   */\n      dup4\n        /* \"#utility.yul\":8007:8025   */\n      add\n        /* \"#utility.yul\":7998:8004   */\n      dup5\n        /* \"#utility.yul\":7954:8026   */\n      tag_683\n      jump\t// in\n    tag_811:\n        /* \"#utility.yul\":7701:8033   */\n      swap4\n      swap3\n      pop\n      pop\n      pop\n      jump\t// out\n        /* \"#utility.yul\":8039:8507   */\n    tag_364:\n        /* \"#utility.yul\":8104:8110   */\n      0x00\n        /* \"#utility.yul\":8112:8118   */\n      dup1\n        /* \"#utility.yul\":8161:8163   */\n      0x40\n        /* \"#utility.yul\":8149:8158   */\n      dup4\n        /* \"#utility.yul\":8140:8147   */\n      dup6\n        /* \"#utility.yul\":8136:8159   */\n      sub\n        /* \"#utility.yul\":8132:8164   */\n      slt\n        /* \"#utility.yul\":8129:8248   */\n      iszero\n      tag_813\n      jumpi\n        /* \"#utility.yul\":8167:8246   */\n      tag_814\n      tag_688\n      jump\t// in\n    tag_814:\n        /* \"#utility.yul\":8129:8248   */\n    tag_813:\n        /* \"#utility.yul\":8287:8288   */\n      0x00\n        /* \"#utility.yul\":8312:8365   */\n      tag_815\n        /* \"#utility.yul\":8357:8364   */\n      dup6\n        /* \"#utility.yul\":8348:8354   */\n      dup3\n        /* \"#utility.yul\":8337:8346   */\n      dup7\n        /* \"#utility.yul\":8333:8355   */\n      add\n        /* \"#utility.yul\":8312:8365   */\n      tag_697\n      jump\t// in\n    tag_815:\n        /* \"#utility.yul\":8302:8365   */\n      swap3\n      pop\n        /* \"#utility.yul\":8258:8375   */\n      pop\n        /* \"#utility.yul\":8414:8416   */\n      0x20\n        /* \"#utility.yul\":8440:8490   */\n      tag_816\n        /* \"#utility.yul\":8482:8489   */\n      dup6\n        /* \"#utility.yul\":8473:8479   */\n      dup3\n        /* \"#utility.yul\":8462:8471   */\n      dup7\n        /* \"#utility.yul\":8458:8480   */\n      add\n        /* \"#utility.yul\":8440:8490   */\n      tag_692\n      jump\t// in\n    tag_816:\n        /* \"#utility.yul\":8430:8490   */\n      swap2\n      pop\n        /* \"#utility.yul\":8385:8500   */\n      pop\n        /* \"#utility.yul\":8039:8507   */\n      swap3\n      pop\n      swap3\n      swap1\n      pop\n      jump\t// out\n        /* \"#utility.yul\":8513:8630   */\n    tag_700:\n        /* \"#utility.yul\":8622:8623   */\n      0x00\n        /* \"#utility.yul\":8619:8620   */\n      dup1\n        /* \"#utility.yul\":8612:8624   */\n      revert\n        /* \"#utility.yul\":8636:8753   */\n    tag_701:\n        /* \"#utility.yul\":8745:8746   */\n      0x00\n        /* \"#utility.yul\":8742:8743   */\n      dup1\n        /* \"#utility.yul\":8735:8747   */\n      revert\n        /* \"#utility.yul\":8759:8876   */\n    tag_702:\n        /* \"#utility.yul\":8868:8869   */\n      0x00\n        /* \"#utility.yul\":8865:8866   */\n      dup1\n        /* \"#utility.yul\":8858:8870   */\n      revert\n        /* \"#utility.yul\":8899:9467   */\n    tag_703:\n        /* \"#utility.yul\":8972:8980   */\n      0x00\n        /* \"#utility.yul\":8982:8988   */\n      dup1\n        /* \"#utility.yul\":9032:9035   */\n      dup4\n        /* \"#utility.yul\":9025:9029   */\n      0x1f\n        /* \"#utility.yul\":9017:9023   */\n      dup5\n        /* \"#utility.yul\":9013:9030   */\n      add\n        /* \"#utility.yul\":9009:9036   */\n      slt\n        /* \"#utility.yul\":8999:9121   */\n      tag_821\n      jumpi\n        /* \"#utility.yul\":9040:9119   */\n      tag_822\n      tag_700\n      jump\t// in\n    tag_822:\n        /* \"#utility.yul\":8999:9121   */\n    tag_821:\n        /* \"#utility.yul\":9153:9159   */\n      dup3\n        /* \"#utility.yul\":9140:9160   */\n      calldataload\n        /* \"#utility.yul\":9130:9160   */\n      swap1\n      pop\n        /* \"#utility.yul\":9183:9201   */\n      0xffffffffffffffff\n        /* \"#utility.yul\":9175:9181   */\n      dup2\n        /* \"#utility.yul\":9172:9202   */\n      gt\n        /* \"#utility.yul\":9169:9286   */\n      iszero\n      tag_823\n      jumpi\n        /* \"#utility.yul\":9205:9284   */\n      tag_824\n      tag_701\n      jump\t// in\n    tag_824:\n        /* \"#utility.yul\":9169:9286   */\n    tag_823:\n        /* \"#utility.yul\":9319:9323   */\n      0x20\n        /* \"#utility.yul\":9311:9317   */\n      dup4\n        /* \"#utility.yul\":9307:9324   */\n      add\n        /* \"#utility.yul\":9295:9324   */\n      swap2\n      pop\n        /* \"#utility.yul\":9373:9376   */\n      dup4\n        /* \"#utility.yul\":9365:9369   */\n      0x20\n        /* \"#utility.yul\":9357:9363   */\n      dup3\n        /* \"#utility.yul\":9353:9370   */\n      mul\n        /* \"#utility.yul\":9343:9351   */\n      dup4\n        /* \"#utility.yul\":9339:9371   */\n      add\n        /* \"#utility.yul\":9336:9377   */\n      gt\n        /* \"#utility.yul\":9333:9461   */\n      iszero\n      tag_825\n      jumpi\n        /* \"#utility.yul\":9380:9459   */\n      tag_826\n      tag_702\n      jump\t// in\n    tag_826:\n        /* \"#utility.yul\":9333:9461   */\n    tag_825:\n        /* \"#utility.yul\":8899:9467   */\n      swap3\n      pop\n      swap3\n      swap1\n      pop\n      jump\t// out\n        /* \"#utility.yul\":9473:10171   */\n    tag_384:\n        /* \"#utility.yul\":9565:9571   */\n      0x00\n        /* \"#utility.yul\":9573:9579   */\n      dup1\n        /* \"#utility.yul\":9581:9587   */\n      0x00\n        /* \"#utility.yul\":9630:9632   */\n      0x40\n        /* \"#utility.yul\":9618:9627   */\n      dup5\n        /* \"#utility.yul\":9609:9616   */\n      dup7\n        /* \"#utility.yul\":9605:9628   */\n      sub\n        /* \"#utility.yul\":9601:9633   */\n      slt\n        /* \"#utility.yul\":9598:9717   */\n      iszero\n      tag_828\n      jumpi\n        /* \"#utility.yul\":9636:9715   */\n      tag_829\n      tag_688\n      jump\t// in\n    tag_829:\n        /* \"#utility.yul\":9598:9717   */\n    tag_828:\n        /* \"#utility.yul\":9784:9785   */\n      0x00\n        /* \"#utility.yul\":9773:9782   */\n      dup5\n        /* \"#utility.yul\":9769:9786   */\n      add\n        /* \"#utility.yul\":9756:9787   */\n      calldataload\n        /* \"#utility.yul\":9814:9832   */\n      0xffffffffffffffff\n        /* \"#utility.yul\":9806:9812   */\n      dup2\n        /* \"#utility.yul\":9803:9833   */\n      gt\n        /* \"#utility.yul\":9800:9917   */\n      iszero\n      tag_830\n      jumpi\n        /* \"#utility.yul\":9836:9915   */\n      tag_831\n      tag_689\n      jump\t// in\n    tag_831:\n        /* \"#utility.yul\":9800:9917   */\n    tag_830:\n        /* \"#utility.yul\":9949:10029   */\n      tag_832\n        /* \"#utility.yul\":10021:10028   */\n      dup7\n        /* \"#utility.yul\":10012:10018   */\n      dup3\n        /* \"#utility.yul\":10001:10010   */\n      dup8\n        /* \"#utility.yul\":9997:10019   */\n      add\n        /* \"#utility.yul\":9949:10029   */\n      tag_703\n      jump\t// in\n    tag_832:\n        /* \"#utility.yul\":9931:10029   */\n      swap4\n      pop\n      swap4\n      pop\n        /* \"#utility.yul\":9727:10039   */\n      pop\n        /* \"#utility.yul\":10078:10080   */\n      0x20\n        /* \"#utility.yul\":10104:10154   */\n      tag_833\n        /* \"#utility.yul\":10146:10153   */\n      dup7\n        /* \"#utility.yul\":10137:10143   */\n      dup3\n        /* \"#utility.yul\":10126:10135   */\n      dup8\n        /* \"#utility.yul\":10122:10144   */\n      add\n        /* \"#utility.yul\":10104:10154   */\n      tag_692\n      jump\t// in\n    tag_833:\n        /* \"#utility.yul\":10094:10154   */\n      swap2\n      pop\n        /* \"#utility.yul\":10049:10164   */\n      pop\n        /* \"#utility.yul\":9473:10171   */\n      swap3\n      pop\n      swap3\n      pop\n      swap3\n      jump\t// out\n        /* \"#utility.yul\":10177:10346   */\n    tag_704:\n        /* \"#utility.yul\":10261:10272   */\n      0x00\n        /* \"#utility.yul\":10295:10301   */\n      dup3\n        /* \"#utility.yul\":10290:10293   */\n      dup3\n        /* \"#utility.yul\":10283:10302   */\n      mstore\n        /* \"#utility.yul\":10335:10339   */\n      0x20\n        /* \"#utility.yul\":10330:10333   */\n      dup3\n        /* \"#utility.yul\":10326:10340   */\n      add\n        /* \"#utility.yul\":10311:10340   */\n      swap1\n      pop\n        /* \"#utility.yul\":10177:10346   */\n      swap3\n      swap2\n      pop\n      pop\n      jump\t// out\n        /* \"#utility.yul\":10352:10527   */\n    tag_705:\n        /* \"#utility.yul\":10492:10519   */\n      0x436f6e7472616374206e6f742079657420537461727465642e00000000000000\n        /* \"#utility.yul\":10488:10489   */\n      0x00\n        /* \"#utility.yul\":10480:10486   */\n      dup3\n        /* \"#utility.yul\":10476:10490   */\n      add\n        /* \"#utility.yul\":10469:10520   */\n      mstore\n        /* \"#utility.yul\":10352:10527   */\n      pop\n      jump\t// out\n        /* \"#utility.yul\":10533:10899   */\n    tag_706:\n        /* \"#utility.yul\":10675:10678   */\n      0x00\n        /* \"#utility.yul\":10696:10763   */\n      tag_837\n        /* \"#utility.yul\":10760:10762   */\n      0x19\n        /* \"#utility.yul\":10755:10758   */\n      dup4\n        /* \"#utility.yul\":10696:10763   */\n      tag_704\n      jump\t// in\n    tag_837:\n        /* \"#utility.yul\":10689:10763   */\n      swap2\n      pop\n        /* \"#utility.yul\":10772:10865   */\n      tag_838\n        /* \"#utility.yul\":10861:10864   */\n      dup3\n        /* \"#utility.yul\":10772:10865   */\n      tag_705\n      jump\t// in\n    tag_838:\n        /* \"#utility.yul\":10890:10892   */\n      0x20\n        /* \"#utility.yul\":10885:10888   */\n      dup3\n        /* \"#utility.yul\":10881:10893   */\n      add\n        /* \"#utility.yul\":10874:10893   */\n      swap1\n      pop\n        /* \"#utility.yul\":10533:10899   */\n      swap2\n      swap1\n      pop\n      jump\t// out\n        /* \"#utility.yul\":10905:11324   */\n    tag_400:\n        /* \"#utility.yul\":11071:11075   */\n      0x00\n        /* \"#utility.yul\":11109:11111   */\n      0x20\n        /* \"#utility.yul\":11098:11107   */\n      dup3\n        /* \"#utility.yul\":11094:11112   */\n      add\n        /* \"#utility.yul\":11086:11112   */\n      swap1\n      pop\n        /* \"#utility.yul\":11158:11167   */\n      dup2\n        /* \"#utility.yul\":11152:11156   */\n      dup2\n        /* \"#utility.yul\":11148:11168   */\n      sub\n        /* \"#utility.yul\":11144:11145   */\n      0x00\n        /* \"#utility.yul\":11133:11142   */\n      dup4\n        /* \"#utility.yul\":11129:11146   */\n      add\n        /* \"#utility.yul\":11122:11169   */\n      mstore\n        /* \"#utility.yul\":11186:11317   */\n      tag_840\n        /* \"#utility.yul\":11312:11316   */\n      dup2\n        /* \"#utility.yul\":11186:11317   */\n      tag_706\n      jump\t// in\n    tag_840:\n        /* \"#utility.yul\":11178:11317   */\n      swap1\n      pop\n        /* \"#utility.yul\":10905:11324   */\n      swap2\n      swap1\n      pop\n      jump\t// out\n        /* \"#utility.yul\":11330:11495   */\n    tag_707:\n        /* \"#utility.yul\":11470:11487   */\n      0x41646d696e20757365206f6e6c792e0000000000000000000000000000000000\n        /* \"#utility.yul\":11466:11467   */\n      0x00\n        /* \"#utility.yul\":11458:11464   */\n      dup3\n        /* \"#utility.yul\":11454:11468   */\n      add\n        /* \"#utility.yul\":11447:11488   */\n      mstore\n        /* \"#utility.yul\":11330:11495   */\n      pop\n      jump\t// out\n        /* \"#utility.yul\":11501:11867   */\n    tag_708:\n        /* \"#utility.yul\":11643:11646   */\n      0x00\n        /* \"#utility.yul\":11664:11731   */\n      tag_843\n        /* \"#utility.yul\":11728:11730   */\n      0x0f\n        /* \"#utility.yul\":11723:11726   */\n      dup4\n        /* \"#utility.yul\":11664:11731   */\n      tag_704\n      jump\t// in\n    tag_843:\n        /* \"#utility.yul\":11657:11731   */\n      swap2\n      pop\n        /* \"#utility.yul\":11740:11833   */\n      tag_844\n        /* \"#utility.yul\":11829:11832   */\n      dup3\n        /* \"#utility.yul\":11740:11833   */\n      tag_707\n      jump\t// in\n    tag_844:\n        /* \"#utility.yul\":11858:11860   */\n      0x20\n        /* \"#utility.yul\":11853:11856   */\n      dup3\n        /* \"#utility.yul\":11849:11861   */\n      add\n        /* \"#utility.yul\":11842:11861   */\n      swap1\n      pop\n        /* \"#utility.yul\":11501:11867   */\n      swap2\n      swap1\n      pop\n      jump\t// out\n        /* \"#utility.yul\":11873:12292   */\n    tag_423:\n        /* \"#utility.yul\":12039:12043   */\n      0x00\n        /* \"#utility.yul\":12077:12079   */\n      0x20\n        /* \"#utility.yul\":12066:12075   */\n      dup3\n        /* \"#utility.yul\":12062:12080   */\n      add\n        /* \"#utility.yul\":12054:12080   */\n      swap1\n      pop\n        /* \"#utility.yul\":12126:12135   */\n      dup2\n        /* \"#utility.yul\":12120:12124   */\n      dup2\n        /* \"#utility.yul\":12116:12136   */\n      sub\n        /* \"#utility.yul\":12112:12113   */\n      0x00\n        /* \"#utility.yul\":12101:12110   */\n      dup4\n        /* \"#utility.yul\":12097:12114   */\n      add\n        /* \"#utility.yul\":12090:12137   */\n      mstore\n        /* \"#utility.yul\":12154:12285   */\n      tag_846\n        /* \"#utility.yul\":12280:12284   */\n      dup2\n        /* \"#utility.yul\":12154:12285   */\n      tag_708\n      jump\t// in\n    tag_846:\n        /* \"#utility.yul\":12146:12285   */\n      swap1\n      pop\n        /* \"#utility.yul\":11873:12292   */\n      swap2\n      swap1\n      pop\n      jump\t// out\n        /* \"#utility.yul\":12298:12462   */\n    tag_709:\n        /* \"#utility.yul\":12438:12454   */\n      0x41646d696e20757365206f6e6c79000000000000000000000000000000000000\n        /* \"#utility.yul\":12434:12435   */\n      0x00\n        /* \"#utility.yul\":12426:12432   */\n      dup3\n        /* \"#utility.yul\":12422:12436   */\n      add\n        /* \"#utility.yul\":12415:12455   */\n      mstore\n        /* \"#utility.yul\":12298:12462   */\n      pop\n      jump\t// out\n        /* \"#utility.yul\":12468:12834   */\n    tag_710:\n        /* \"#utility.yul\":12610:12613   */\n      0x00\n        /* \"#utility.yul\":12631:12698   */\n      tag_849\n        /* \"#utility.yul\":12695:12697   */\n      0x0e\n        /* \"#utility.yul\":12690:12693   */\n      dup4\n        /* \"#utility.yul\":12631:12698   */\n      tag_704\n      jump\t// in\n    tag_849:\n        /* \"#utility.yul\":12624:12698   */\n      swap2\n      pop\n        /* \"#utility.yul\":12707:12800   */\n      tag_850\n        /* \"#utility.yul\":12796:12799   */\n      dup3\n        /* \"#utility.yul\":12707:12800   */\n      tag_709\n      jump\t// in\n    tag_850:\n        /* \"#utility.yul\":12825:12827   */\n      0x20\n        /* \"#utility.yul\":12820:12823   */\n      dup3\n        /* \"#utility.yul\":12816:12828   */\n      add\n        /* \"#utility.yul\":12809:12828   */\n      swap1\n      pop\n        /* \"#utility.yul\":12468:12834   */\n      swap2\n      swap1\n      pop\n      jump\t// out\n        /* \"#utility.yul\":12840:13259   */\n    tag_449:\n        /* \"#utility.yul\":13006:13010   */\n      0x00\n        /* \"#utility.yul\":13044:13046   */\n      0x20\n        /* \"#utility.yul\":13033:13042   */\n      dup3\n        /* \"#utility.yul\":13029:13047   */\n      add\n        /* \"#utility.yul\":13021:13047   */\n      swap1\n      pop\n        /* \"#utility.yul\":13093:13102   */\n      dup2\n        /* \"#utility.yul\":13087:13091   */\n      dup2\n        /* \"#utility.yul\":13083:13103   */\n      sub\n        /* \"#utility.yul\":13079:13080   */\n      0x00\n        /* \"#utility.yul\":13068:13077   */\n      dup4\n        /* \"#utility.yul\":13064:13081   */\n      add\n        /* \"#utility.yul\":13057:13104   */\n      mstore\n        /* \"#utility.yul\":13121:13252   */\n      tag_852\n        /* \"#utility.yul\":13247:13251   */\n      dup2\n        /* \"#utility.yul\":13121:13252   */\n      tag_710\n      jump\t// in\n    tag_852:\n        /* \"#utility.yul\":13113:13252   */\n      swap1\n      pop\n        /* \"#utility.yul\":12840:13259   */\n      swap2\n      swap1\n      pop\n      jump\t// out\n        /* \"#utility.yul\":13265:13445   */\n    tag_711:\n        /* \"#utility.yul\":13313:13390   */\n      0x4e487b7100000000000000000000000000000000000000000000000000000000\n        /* \"#utility.yul\":13310:13311   */\n      0x00\n        /* \"#utility.yul\":13303:13391   */\n      mstore\n        /* \"#utility.yul\":13410:13414   */\n      0x11\n        /* \"#utility.yul\":13407:13408   */\n      0x04\n        /* \"#utility.yul\":13400:13415   */\n      mstore\n        /* \"#utility.yul\":13434:13438   */\n      0x24\n        /* \"#utility.yul\":13431:13432   */\n      0x00\n        /* \"#utility.yul\":13424:13439   */\n      revert\n        /* \"#utility.yul\":13451:13799   */\n    tag_452:\n        /* \"#utility.yul\":13491:13498   */\n      0x00\n        /* \"#utility.yul\":13514:13534   */\n      tag_855\n        /* \"#utility.yul\":13532:13533   */\n      dup3\n        /* \"#utility.yul\":13514:13534   */\n      tag_682\n      jump\t// in\n    tag_855:\n        /* \"#utility.yul\":13509:13534   */\n      swap2\n      pop\n        /* \"#utility.yul\":13548:13568   */\n      tag_856\n        /* \"#utility.yul\":13566:13567   */\n      dup4\n        /* \"#utility.yul\":13548:13568   */\n      tag_682\n      jump\t// in\n    tag_856:\n        /* \"#utility.yul\":13543:13568   */\n      swap3\n      pop\n        /* \"#utility.yul\":13736:13737   */\n      dup2\n        /* \"#utility.yul\":13668:13734   */\n      0xffffffffffffffffffffffffffffffffffffffffffffffffffffffffffffffff\n        /* \"#utility.yul\":13664:13738   */\n      div\n        /* \"#utility.yul\":13661:13662   */\n      dup4\n        /* \"#utility.yul\":13658:13739   */\n      gt\n        /* \"#utility.yul\":13653:13654   */\n      dup3\n        /* \"#utility.yul\":13646:13655   */\n      iszero\n        /* \"#utility.yul\":13639:13656   */\n      iszero\n        /* \"#utility.yul\":13635:13740   */\n      and\n        /* \"#utility.yul\":13632:13763   */\n      iszero\n      tag_857\n      jumpi\n        /* \"#utility.yul\":13743:13761   */\n      tag_858\n      tag_711\n      jump\t// in\n    tag_858:\n        /* \"#utility.yul\":13632:13763   */\n    tag_857:\n        /* \"#utility.yul\":13791:13792   */\n      dup3\n        /* \"#utility.yul\":13788:13789   */\n      dup3\n        /* \"#utility.yul\":13784:13793   */\n      mul\n        /* \"#utility.yul\":13773:13793   */\n      swap1\n      pop\n        /* \"#utility.yul\":13451:13799   */\n      swap3\n      swap2\n      pop\n      pop\n      jump\t// out\n        /* \"#utility.yul\":13805:13982   */\n    tag_712:\n        /* \"#utility.yul\":13945:13974   */\n      0x4d696e696e756d20696e766573746d656e74206e6f74206d65742e0000000000\n        /* \"#utility.yul\":13941:13942   */\n      0x00\n        /* \"#utility.yul\":13933:13939   */\n      dup3\n        /* \"#utility.yul\":13929:13943   */\n      add\n        /* \"#utility.yul\":13922:13975   */\n      mstore\n        /* \"#utility.yul\":13805:13982   */\n      pop\n      jump\t// out\n        /* \"#utility.yul\":13988:14354   */\n    tag_713:\n        /* \"#utility.yul\":14130:14133   */\n      0x00\n        /* \"#utility.yul\":14151:14218   */\n      tag_861\n        /* \"#utility.yul\":14215:14217   */\n      0x1b\n        /* \"#utility.yul\":14210:14213   */\n      dup4\n        /* \"#utility.yul\":14151:14218   */\n      tag_704\n      jump\t// in\n    tag_861:\n        /* \"#utility.yul\":14144:14218   */\n      swap2\n      pop\n        /* \"#utility.yul\":14227:14320   */\n      tag_862\n        /* \"#utility.yul\":14316:14319   */\n      dup3\n        /* \"#utility.yul\":14227:14320   */\n      tag_712\n      jump\t// in\n    tag_862:\n        /* \"#utility.yul\":14345:14347   */\n      0x20\n        /* \"#utility.yul\":14340:14343   */\n      dup3\n        /* \"#utility.yul\":14336:14348   */\n      add\n        /* \"#utility.yul\":14329:14348   */\n      swap1\n      pop\n        /* \"#utility.yul\":13988:14354   */\n      swap2\n      swap1\n      pop\n      jump\t// out\n        /* \"#utility.yul\":14360:14779   */\n    tag_470:\n        /* \"#utility.yul\":14526:14530   */\n      0x00\n        /* \"#utility.yul\":14564:14566   */\n      0x20\n        /* \"#utility.yul\":14553:14562   */\n      dup3\n        /* \"#utility.yul\":14549:14567   */\n      add\n        /* \"#utility.yul\":14541:14567   */\n      swap1\n      pop\n        /* \"#utility.yul\":14613:14622   */\n      dup2\n        /* \"#utility.yul\":14607:14611   */\n      dup2\n        /* \"#utility.yul\":14603:14623   */\n      sub\n        /* \"#utility.yul\":14599:14600   */\n      0x00\n        /* \"#utility.yul\":14588:14597   */\n      dup4\n        /* \"#utility.yul\":14584:14601   */\n      add\n        /* \"#utility.yul\":14577:14624   */\n      mstore\n        /* \"#utility.yul\":14641:14772   */\n      tag_864\n        /* \"#utility.yul\":14767:14771   */\n      dup2\n        /* \"#utility.yul\":14641:14772   */\n      tag_713\n      jump\t// in\n    tag_864:\n        /* \"#utility.yul\":14633:14772   */\n      swap1\n      pop\n        /* \"#utility.yul\":14360:14779   */\n      swap2\n      swap1\n      pop\n      jump\t// out\n        /* \"#utility.yul\":14785:14961   */\n    tag_714:\n        /* \"#utility.yul\":14925:14953   */\n      0x4d6178206465706f736974206c696d697420726561636865642e000000000000\n        /* \"#utility.yul\":14921:14922   */\n      0x00\n        /* \"#utility.yul\":14913:14919   */\n      dup3\n        /* \"#utility.yul\":14909:14923   */\n      add\n        /* \"#utility.yul\":14902:14954   */\n      mstore\n        /* \"#utility.yul\":14785:14961   */\n      pop\n      jump\t// out\n        /* \"#utility.yul\":14967:15333   */\n    tag_715:\n        /* \"#utility.yul\":15109:15112   */\n      0x00\n        /* \"#utility.yul\":15130:15197   */\n      tag_867\n        /* \"#utility.yul\":15194:15196   */\n      0x1a\n        /* \"#utility.yul\":15189:15192   */\n      dup4\n        /* \"#utility.yul\":15130:15197   */\n      tag_704\n      jump\t// in\n    tag_867:\n        /* \"#utility.yul\":15123:15197   */\n      swap2\n      pop\n        /* \"#utility.yul\":15206:15299   */\n      tag_868\n        /* \"#utility.yul\":15295:15298   */\n      dup3\n        /* \"#utility.yul\":15206:15299   */\n      tag_714\n      jump\t// in\n    tag_868:\n        /* \"#utility.yul\":15324:15326   */\n      0x20\n        /* \"#utility.yul\":15319:15322   */\n      dup3\n        /* \"#utility.yul\":15315:15327   */\n      add\n        /* \"#utility.yul\":15308:15327   */\n      swap1\n      pop\n        /* \"#utility.yul\":14967:15333   */\n      swap2\n      swap1\n      pop\n      jump\t// out\n        /* \"#utility.yul\":15339:15758   */\n    tag_474:\n        /* \"#utility.yul\":15505:15509   */\n      0x00\n        /* \"#utility.yul\":15543:15545   */\n      0x20\n        /* \"#utility.yul\":15532:15541   */\n      dup3\n        /* \"#utility.yul\":15528:15546   */\n      add\n        /* \"#utility.yul\":15520:15546   */\n      swap1\n      pop\n        /* \"#utility.yul\":15592:15601   */\n      dup2\n        /* \"#utility.yul\":15586:15590   */\n      dup2\n        /* \"#utility.yul\":15582:15602   */\n      sub\n        /* \"#utility.yul\":15578:15579   */\n      0x00\n        /* \"#utility.yul\":15567:15576   */\n      dup4\n        /* \"#utility.yul\":15563:15580   */\n      add\n        /* \"#utility.yul\":15556:15603   */\n      mstore\n        /* \"#utility.yul\":15620:15751   */\n      tag_870\n        /* \"#utility.yul\":15746:15750   */\n      dup2\n        /* \"#utility.yul\":15620:15751   */\n      tag_715\n      jump\t// in\n    tag_870:\n        /* \"#utility.yul\":15612:15751   */\n      swap1\n      pop\n        /* \"#utility.yul\":15339:15758   */\n      swap2\n      swap1\n      pop\n      jump\t// out\n        /* \"#utility.yul\":15764:15937   */\n    tag_716:\n        /* \"#utility.yul\":15904:15929   */\n      0x4164647265737320697320626c61636b6c69737465642e000000000000000000\n        /* \"#utility.yul\":15900:15901   */\n      0x00\n        /* \"#utility.yul\":15892:15898   */\n      dup3\n        /* \"#utility.yul\":15888:15902   */\n      add\n        /* \"#utility.yul\":15881:15930   */\n      mstore\n        /* \"#utility.yul\":15764:15937   */\n      pop\n      jump\t// out\n        /* \"#utility.yul\":15943:16309   */\n    tag_717:\n        /* \"#utility.yul\":16085:16088   */\n      0x00\n        /* \"#utility.yul\":16106:16173   */\n      tag_873\n        /* \"#utility.yul\":16170:16172   */\n      0x17\n        /* \"#utility.yul\":16165:16168   */\n      dup4\n        /* \"#utility.yul\":16106:16173   */\n      tag_704\n      jump\t// in\n    tag_873:\n        /* \"#utility.yul\":16099:16173   */\n      swap2\n      pop\n        /* \"#utility.yul\":16182:16275   */\n      tag_874\n        /* \"#utility.yul\":16271:16274   */\n      dup3\n        /* \"#utility.yul\":16182:16275   */\n      tag_716\n      jump\t// in\n    tag_874:\n        /* \"#utility.yul\":16300:16302   */\n      0x20\n        /* \"#utility.yul\":16295:16298   */\n      dup3\n        /* \"#utility.yul\":16291:16303   */\n      add\n        /* \"#utility.yul\":16284:16303   */\n      swap1\n      pop\n        /* \"#utility.yul\":15943:16309   */\n      swap2\n      swap1\n      pop\n      jump\t// out\n        /* \"#utility.yul\":16315:16734   */\n    tag_504:\n        /* \"#utility.yul\":16481:16485   */\n      0x00\n        /* \"#utility.yul\":16519:16521   */\n      0x20\n        /* \"#utility.yul\":16508:16517   */\n      dup3\n        /* \"#utility.yul\":16504:16522   */\n      add\n        /* \"#utility.yul\":16496:16522   */\n      swap1\n      pop\n        /* \"#utility.yul\":16568:16577   */\n      dup2\n        /* \"#utility.yul\":16562:16566   */\n      dup2\n        /* \"#utility.yul\":16558:16578   */\n      sub\n        /* \"#utility.yul\":16554:16555   */\n      0x00\n        /* \"#utility.yul\":16543:16552   */\n      dup4\n        /* \"#utility.yul\":16539:16556   */\n      add\n        /* \"#utility.yul\":16532:16579   */\n      mstore\n        /* \"#utility.yul\":16596:16727   */\n      tag_876\n        /* \"#utility.yul\":16722:16726   */\n      dup2\n        /* \"#utility.yul\":16596:16727   */\n      tag_717\n      jump\t// in\n    tag_876:\n        /* \"#utility.yul\":16588:16727   */\n      swap1\n      pop\n        /* \"#utility.yul\":16315:16734   */\n      swap2\n      swap1\n      pop\n      jump\t// out\n        /* \"#utility.yul\":16740:16915   */\n    tag_718:\n        /* \"#utility.yul\":16880:16907   */\n      0x436f6e7472616374206e6f742079657420737461727465642e00000000000000\n        /* \"#utility.yul\":16876:16877   */\n      0x00\n        /* \"#utility.yul\":16868:16874   */\n      dup3\n        /* \"#utility.yul\":16864:16878   */\n      add\n        /* \"#utility.yul\":16857:16908   */\n      mstore\n        /* \"#utility.yul\":16740:16915   */\n      pop\n      jump\t// out\n        /* \"#utility.yul\":16921:17287   */\n    tag_719:\n        /* \"#utility.yul\":17063:17066   */\n      0x00\n        /* \"#utility.yul\":17084:17151   */\n      tag_879\n        /* \"#utility.yul\":17148:17150   */\n      0x19\n        /* \"#utility.yul\":17143:17146   */\n      dup4\n        /* \"#utility.yul\":17084:17151   */\n      tag_704\n      jump\t// in\n    tag_879:\n        /* \"#utility.yul\":17077:17151   */\n      swap2\n      pop\n        /* \"#utility.yul\":17160:17253   */\n      tag_880\n        /* \"#utility.yul\":17249:17252   */\n      dup3\n        /* \"#utility.yul\":17160:17253   */\n      tag_718\n      jump\t// in\n    tag_880:\n        /* \"#utility.yul\":17278:17280   */\n      0x20\n        /* \"#utility.yul\":17273:17276   */\n      dup3\n        /* \"#utility.yul\":17269:17281   */\n      add\n        /* \"#utility.yul\":17262:17281   */\n      swap1\n      pop\n        /* \"#utility.yul\":16921:17287   */\n      swap2\n      swap1\n      pop\n      jump\t// out\n        /* \"#utility.yul\":17293:17712   */\n    tag_603:\n        /* \"#utility.yul\":17459:17463   */\n      0x00\n        /* \"#utility.yul\":17497:17499   */\n      0x20\n        /* \"#utility.yul\":17486:17495   */\n      dup3\n        /* \"#utility.yul\":17482:17500   */\n      add\n        /* \"#utility.yul\":17474:17500   */\n      swap1\n      pop\n        /* \"#utility.yul\":17546:17555   */\n      dup2\n        /* \"#utility.yul\":17540:17544   */\n      dup2\n        /* \"#utility.yul\":17536:17556   */\n      sub\n        /* \"#utility.yul\":17532:17533   */\n      0x00\n        /* \"#utility.yul\":17521:17530   */\n      dup4\n        /* \"#utility.yul\":17517:17534   */\n      add\n        /* \"#utility.yul\":17510:17557   */\n      mstore\n        /* \"#utility.yul\":17574:17705   */\n      tag_882\n        /* \"#utility.yul\":17700:17704   */\n      dup2\n        /* \"#utility.yul\":17574:17705   */\n      tag_719\n      jump\t// in\n    tag_882:\n        /* \"#utility.yul\":17566:17705   */\n      swap1\n      pop\n        /* \"#utility.yul\":17293:17712   */\n      swap2\n      swap1\n      pop\n      jump\t// out\n        /* \"#utility.yul\":17718:17898   */\n    tag_621:\n        /* \"#utility.yul\":17766:17843   */\n      0x4e487b7100000000000000000000000000000000000000000000000000000000\n        /* \"#utility.yul\":17763:17764   */\n      0x00\n        /* \"#utility.yul\":17756:17844   */\n      mstore\n        /* \"#utility.yul\":17863:17867   */\n      0x32\n        /* \"#utility.yul\":17860:17861   */\n      0x04\n        /* \"#utility.yul\":17853:17868   */\n      mstore\n        /* \"#utility.yul\":17887:17891   */\n      0x24\n        /* \"#utility.yul\":17884:17885   */\n      0x00\n        /* \"#utility.yul\":17877:17892   */\n      revert\n        /* \"#utility.yul\":17904:18137   */\n    tag_624:\n        /* \"#utility.yul\":17943:17946   */\n      0x00\n        /* \"#utility.yul\":17966:17990   */\n      tag_885\n        /* \"#utility.yul\":17984:17989   */\n      dup3\n        /* \"#utility.yul\":17966:17990   */\n      tag_682\n      jump\t// in\n    tag_885:\n        /* \"#utility.yul\":17957:17990   */\n      swap2\n      pop\n        /* \"#utility.yul\":18012:18078   */\n      0xffffffffffffffffffffffffffffffffffffffffffffffffffffffffffffffff\n        /* \"#utility.yul\":18005:18010   */\n      dup3\n        /* \"#utility.yul\":18002:18079   */\n      eq\n        /* \"#utility.yul\":17999:18102   */\n      iszero\n      tag_886\n      jumpi\n        /* \"#utility.yul\":18082:18100   */\n      tag_887\n      tag_711\n      jump\t// in\n    tag_887:\n        /* \"#utility.yul\":17999:18102   */\n    tag_886:\n        /* \"#utility.yul\":18129:18130   */\n      0x01\n        /* \"#utility.yul\":18122:18127   */\n      dup3\n        /* \"#utility.yul\":18118:18131   */\n      add\n        /* \"#utility.yul\":18111:18131   */\n      swap1\n      pop\n        /* \"#utility.yul\":17904:18137   */\n      swap2\n      swap1\n      pop\n      jump\t// out\n        /* \"#utility.yul\":18143:18448   */\n    tag_627:\n        /* \"#utility.yul\":18183:18186   */\n      0x00\n        /* \"#utility.yul\":18202:18222   */\n      tag_889\n        /* \"#utility.yul\":18220:18221   */\n      dup3\n        /* \"#utility.yul\":18202:18222   */\n      tag_682\n      jump\t// in\n    tag_889:\n        /* \"#utility.yul\":18197:18222   */\n      swap2\n      pop\n        /* \"#utility.yul\":18236:18256   */\n      tag_890\n        /* \"#utility.yul\":18254:18255   */\n      dup4\n        /* \"#utility.yul\":18236:18256   */\n      tag_682\n      jump\t// in\n    tag_890:\n        /* \"#utility.yul\":18231:18256   */\n      swap3\n      pop\n        /* \"#utility.yul\":18390:18391   */\n      dup3\n        /* \"#utility.yul\":18322:18388   */\n      0xffffffffffffffffffffffffffffffffffffffffffffffffffffffffffffffff\n        /* \"#utility.yul\":18318:18392   */\n      sub\n        /* \"#utility.yul\":18315:18316   */\n      dup3\n        /* \"#utility.yul\":18312:18393   */\n      gt\n        /* \"#utility.yul\":18309:18416   */\n      iszero\n      tag_891\n      jumpi\n        /* \"#utility.yul\":18396:18414   */\n      tag_892\n      tag_711\n      jump\t// in\n    tag_892:\n        /* \"#utility.yul\":18309:18416   */\n    tag_891:\n        /* \"#utility.yul\":18440:18441   */\n      dup3\n        /* \"#utility.yul\":18437:18438   */\n      dup3\n        /* \"#utility.yul\":18433:18442   */\n      add\n        /* \"#utility.yul\":18426:18442   */\n      swap1\n      pop\n        /* \"#utility.yul\":18143:18448   */\n      swap3\n      swap2\n      pop\n      pop\n      jump\t// out\n        /* \"#utility.yul\":18454:18634   */\n    tag_630:\n        /* \"#utility.yul\":18502:18579   */\n      0x4e487b7100000000000000000000000000000000000000000000000000000000\n        /* \"#utility.yul\":18499:18500   */\n      0x00\n        /* \"#utility.yul\":18492:18580   */\n      mstore\n        /* \"#utility.yul\":18599:18603   */\n      0x01\n        /* \"#utility.yul\":18596:18597   */\n      0x04\n        /* \"#utility.yul\":18589:18604   */\n      mstore\n        /* \"#utility.yul\":18623:18627   */\n      0x24\n        /* \"#utility.yul\":18620:18621   */\n      0x00\n        /* \"#utility.yul\":18613:18628   */\n      revert\n        /* \"#utility.yul\":18640:18831   */\n    tag_635:\n        /* \"#utility.yul\":18680:18684   */\n      0x00\n        /* \"#utility.yul\":18700:18720   */\n      tag_895\n        /* \"#utility.yul\":18718:18719   */\n      dup3\n        /* \"#utility.yul\":18700:18720   */\n      tag_682\n      jump\t// in\n    tag_895:\n        /* \"#utility.yul\":18695:18720   */\n      swap2\n      pop\n        /* \"#utility.yul\":18734:18754   */\n      tag_896\n        /* \"#utility.yul\":18752:18753   */\n      dup4\n        /* \"#utility.yul\":18734:18754   */\n      tag_682\n      jump\t// in\n    tag_896:\n        /* \"#utility.yul\":18729:18754   */\n      swap3\n      pop\n        /* \"#utility.yul\":18773:18774   */\n      dup3\n        /* \"#utility.yul\":18770:18771   */\n      dup3\n        /* \"#utility.yul\":18767:18775   */\n      lt\n        /* \"#utility.yul\":18764:18798   */\n      iszero\n      tag_897\n      jumpi\n        /* \"#utility.yul\":18778:18796   */\n      tag_898\n      tag_711\n      jump\t// in\n    tag_898:\n        /* \"#utility.yul\":18764:18798   */\n    tag_897:\n        /* \"#utility.yul\":18823:18824   */\n      dup3\n        /* \"#utility.yul\":18820:18821   */\n      dup3\n        /* \"#utility.yul\":18816:18825   */\n      sub\n        /* \"#utility.yul\":18808:18825   */\n      swap1\n      pop\n        /* \"#utility.yul\":18640:18831   */\n      swap3\n      swap2\n      pop\n      pop\n      jump\t// out\n        /* \"#utility.yul\":18837:19017   */\n    tag_720:\n        /* \"#utility.yul\":18885:18962   */\n      0x4e487b7100000000000000000000000000000000000000000000000000000000\n        /* \"#utility.yul\":18882:18883   */\n      0x00\n        /* \"#utility.yul\":18875:18963   */\n      mstore\n        /* \"#utility.yul\":18982:18986   */\n      0x12\n        /* \"#utility.yul\":18979:18980   */\n      0x04\n        /* \"#utility.yul\":18972:18987   */\n      mstore\n        /* \"#utility.yul\":19006:19010   */\n      0x24\n        /* \"#utility.yul\":19003:19004   */\n      0x00\n        /* \"#utility.yul\":18996:19011   */\n      revert\n        /* \"#utility.yul\":19023:19208   */\n    tag_638:\n        /* \"#utility.yul\":19063:19064   */\n      0x00\n        /* \"#utility.yul\":19080:19100   */\n      tag_901\n        /* \"#utility.yul\":19098:19099   */\n      dup3\n        /* \"#utility.yul\":19080:19100   */\n      tag_682\n      jump\t// in\n    tag_901:\n        /* \"#utility.yul\":19075:19100   */\n      swap2\n      pop\n        /* \"#utility.yul\":19114:19134   */\n      tag_902\n        /* \"#utility.yul\":19132:19133   */\n      dup4\n        /* \"#utility.yul\":19114:19134   */\n      tag_682\n      jump\t// in\n    tag_902:\n        /* \"#utility.yul\":19109:19134   */\n      swap3\n      pop\n        /* \"#utility.yul\":19153:19154   */\n      dup3\n        /* \"#utility.yul\":19143:19178   */\n      tag_903\n      jumpi\n        /* \"#utility.yul\":19158:19176   */\n      tag_904\n      tag_720\n      jump\t// in\n    tag_904:\n        /* \"#utility.yul\":19143:19178   */\n    tag_903:\n        /* \"#utility.yul\":19200:19201   */\n      dup3\n        /* \"#utility.yul\":19197:19198   */\n      dup3\n        /* \"#utility.yul\":19193:19202   */\n      div\n        /* \"#utility.yul\":19188:19202   */\n      swap1\n      pop\n        /* \"#utility.yul\":19023:19208   */\n      swap3\n      swap2\n      pop\n      pop\n      jump\t// out\n        /* \"#utility.yul\":19214:19394   */\n    tag_648:\n        /* \"#utility.yul\":19262:19339   */\n      0x4e487b7100000000000000000000000000000000000000000000000000000000\n        /* \"#utility.yul\":19259:19260   */\n      0x00\n        /* \"#utility.yul\":19252:19340   */\n      mstore\n        /* \"#utility.yul\":19359:19363   */\n      0x41\n        /* \"#utility.yul\":19356:19357   */\n      0x04\n        /* \"#utility.yul\":19349:19364   */\n      mstore\n        /* \"#utility.yul\":19383:19387   */\n      0x24\n        /* \"#utility.yul\":19380:19381   */\n      0x00\n        /* \"#utility.yul\":19373:19388   */\n      revert\n\n    auxdata: 0xa264697066735822122079b3b437af1c53c2fc71aa0476cd0f831f972bbe179f6de101e761cfd750197e64736f6c63430008090033\n}\n",
				"bytecode": {
					"linkReferences": {},
					"object": "60806040526215f90060005560466001556103e86002556009600355600c600455600260055567016345785d8a000060065568015af1d78b58c400006007556014600855600a60095561a8c0600a5561015e600b55600a600c556127106013556113886014556001601560016101000a81548160ff0219169083151502179055506202a3006017556138406018553480156200009a57600080fd5b50604051620046c4380380620046c48339818101604052810190620000c09190620003b3565b620000d1866200033660201b60201c565b158015620000ed5750620000eb856200033660201b60201c565b155b801562000108575062000106846200033660201b60201c565b155b801562000123575062000121836200033660201b60201c565b155b80156200013e57506200013c826200033660201b60201c565b155b801562000159575062000157816200033660201b60201c565b155b6200016357600080fd5b33601960006101000a81548173ffffffffffffffffffffffffffffffffffffffff021916908373ffffffffffffffffffffffffffffffffffffffff16021790555085601a60006101000a81548173ffffffffffffffffffffffffffffffffffffffff021916908373ffffffffffffffffffffffffffffffffffffffff16021790555084601b60006101000a81548173ffffffffffffffffffffffffffffffffffffffff021916908373ffffffffffffffffffffffffffffffffffffffff16021790555083601c60006101000a81548173ffffffffffffffffffffffffffffffffffffffff021916908373ffffffffffffffffffffffffffffffffffffffff16021790555082601d60006101000a81548173ffffffffffffffffffffffffffffffffffffffff021916908373ffffffffffffffffffffffffffffffffffffffff16021790555081601e60006101000a81548173ffffffffffffffffffffffffffffffffffffffff021916908373ffffffffffffffffffffffffffffffffffffffff16021790555080601f60006101000a81548173ffffffffffffffffffffffffffffffffffffffff021916908373ffffffffffffffffffffffffffffffffffffffff1602179055505050505050506200044f565b600080823b905060008111915050919050565b600080fd5b600073ffffffffffffffffffffffffffffffffffffffff82169050919050565b60006200037b826200034e565b9050919050565b6200038d816200036e565b81146200039957600080fd5b50565b600081519050620003ad8162000382565b92915050565b60008060008060008060c08789031215620003d357620003d262000349565b5b6000620003e389828a016200039c565b9650506020620003f689828a016200039c565b95505060406200040989828a016200039c565b94505060606200041c89828a016200039c565b93505060806200042f89828a016200039c565b92505060a06200044289828a016200039c565b9150509295509295509295565b614265806200045f6000396000f3fe6080604052600436106104105760003560e01c80637c8e4b4c1161021e578063bd097e2111610123578063d7c8843b116100ab578063e6dc95581161007a578063e6dc955814610faa578063e757694314610fd3578063eb27126814610ffc578063f6f6288614611025578063ffa4e6181461105057610410565b8063d7c8843b14610efd578063d989b4b314610f3a578063da235b2214610f63578063da5d4cc514610f8e57610410565b8063c63568c7116100f2578063c63568c714610e14578063c688f0fb14610e3f578063cc3e9c7814610e6a578063cd329fc314610ea7578063d7206d5d14610ed257610410565b8063bd097e2114610d66578063bdd1ca2714610d70578063bfa9f30414610dae578063c3251b4014610dd757610410565b80638da5cb5b116101a65780639b9cb69f116101755780639b9cb69f14610c765780639e9300a514610c9f578063a327c45d14610cc8578063a87430ba14610cf3578063b6e6fcf614610d3b57610410565b80638da5cb5b14610bba5780638e31632714610be5578063950d91e914610c22578063959c95b314610c4d57610410565b80637e56fde5116101ed5780637e56fde514610ad35780637ee28e3c14610b105780638013f3a714610b39578063817b1cd214610b645780638a315efd14610b8f57610410565b80637c8e4b4c14610a295780637cc5b1e614610a525780637d88209714610a7d5780637db07c9d14610aa857610410565b80633578584f1161032457806357386225116102ac57806368f58b031161027b57806368f58b031461095657806369b11dd5146109815780636f969d28146109ac578063752a2628146109d55780637a62ead714610a0057610410565b8063573862251461088f57806359eec895146108a65780636386c1c7146108d157806364c03a5e1461091957610410565b80634b319713116102f35780634b319713146107b45780634ce87053146107df57806350637dbd1461080d57806350cf1c7a1461084a578063570c29791461086657610410565b80633578584f1461070c57806343ce74221461073757806345a6a6e01461076257806345f98c291461078b57610410565b80631a7b8d4f116103a7578063298ea31011610376578063298ea310146106395780632b039d0e146106625780632bc82f7f1461068b5780632e9392bb146106b6578063333f57b3146106e157610410565b80631a7b8d4f1461056b578063229824c4146105945780632362ce89146105d157806326fd8422146105fc57610410565b806312065fe0116103e357806312065fe0146104c15780631848b8dc146104ec57806318c819d814610517578063195a73391461054057610410565b806301c234a8146104155780630420c98e1461044057806307aeb7f01461046b5780630a76e5ed14610496575b600080fd5b34801561042157600080fd5b5061042a61108d565b60405161043791906137e3565b60405180910390f35b34801561044c57600080fd5b50610455611093565b60405161046291906137e3565b60405180910390f35b34801561047757600080fd5b50610480611099565b60405161048d919061383f565b60405180910390f35b3480156104a257600080fd5b506104ab6110bf565b6040516104b891906137e3565b60405180910390f35b3480156104cd57600080fd5b506104d6611109565b6040516104e391906137e3565b60405180910390f35b3480156104f857600080fd5b50610501611111565b60405161050e91906137e3565b60405180910390f35b34801561052357600080fd5b5061053e6004803603810190610539919061389c565b611117565b005b34801561054c57600080fd5b50610555611317565b60405161056291906137e3565b60405180910390f35b34801561057757600080fd5b50610592600480360381019061058d91906138f5565b61131d565b005b3480156105a057600080fd5b506105bb60048036038101906105b69190613922565b6113c5565b6040516105c891906137e3565b60405180910390f35b3480156105dd57600080fd5b506105e6611418565b6040516105f3919061383f565b60405180910390f35b34801561060857600080fd5b50610623600480360381019061061e9190613975565b61143e565b60405161063091906137e3565b60405180910390f35b34801561064557600080fd5b50610660600480360381019061065b91906138f5565b611455565b005b34801561066e57600080fd5b50610689600480360381019061068491906139f3565b6114fd565b005b34801561069757600080fd5b506106a06115d1565b6040516106ad91906137e3565b60405180910390f35b3480156106c257600080fd5b506106cb6115d7565b6040516106d891906137e3565b60405180910390f35b3480156106ed57600080fd5b506106f66115dd565b6040516107039190613a2f565b60405180910390f35b34801561071857600080fd5b506107216115f0565b60405161072e91906137e3565b60405180910390f35b34801561074357600080fd5b5061074c6115f6565b60405161075991906137e3565b60405180910390f35b34801561076e57600080fd5b50610789600480360381019061078491906138f5565b61165a565b005b34801561079757600080fd5b506107b260048036038101906107ad91906138f5565b611719565b005b3480156107c057600080fd5b506107c96117c6565b6040516107d691906137e3565b60405180910390f35b3480156107eb57600080fd5b506107f46117cc565b6040516108049493929190613a4a565b60405180910390f35b34801561081957600080fd5b50610834600480360381019061082f9190613a8f565b6117ec565b60405161084191906137e3565b60405180910390f35b610864600480360381019061085f91906139f3565b6118d3565b005b34801561087257600080fd5b5061088d600480360381019061088891906138f5565b611d17565b005b34801561089b57600080fd5b506108a4611dcc565b005b3480156108b257600080fd5b506108bb61208a565b6040516108c891906137e3565b60405180910390f35b3480156108dd57600080fd5b506108f860048036038101906108f391906139f3565b612090565b6040516109109c9b9a99989796959493929190613ade565b60405180910390f35b34801561092557600080fd5b50610940600480360381019061093b91906139f3565b61240d565b60405161094d91906137e3565b60405180910390f35b34801561096257600080fd5b5061096b612480565b60405161097891906137e3565b60405180910390f35b34801561098d57600080fd5b50610996612486565b6040516109a391906137e3565b60405180910390f35b3480156109b857600080fd5b506109d360048036038101906109ce91906138f5565b61248c565b005b3480156109e157600080fd5b506109ea612542565b6040516109f791906137e3565b60405180910390f35b348015610a0c57600080fd5b50610a276004803603810190610a2291906138f5565b612548565b005b348015610a3557600080fd5b50610a506004803603810190610a4b91906138f5565b6125f0565b005b348015610a5e57600080fd5b50610a676126a1565b604051610a74919061383f565b60405180910390f35b348015610a8957600080fd5b50610a926126c7565b604051610a9f91906137e3565b60405180910390f35b348015610ab457600080fd5b50610abd6126cd565b604051610aca91906137e3565b60405180910390f35b348015610adf57600080fd5b50610afa6004803603810190610af591906138f5565b6126d3565b604051610b0791906137e3565b60405180910390f35b348015610b1c57600080fd5b50610b376004803603810190610b3291906138f5565b6126ed565b005b348015610b4557600080fd5b50610b4e6127a8565b604051610b5b919061383f565b60405180910390f35b348015610b7057600080fd5b50610b796127ce565b604051610b8691906137e3565b60405180910390f35b348015610b9b57600080fd5b50610ba46127d4565b604051610bb1919061383f565b60405180910390f35b348015610bc657600080fd5b50610bcf6127fa565b604051610bdc9190613b98565b60405180910390f35b348015610bf157600080fd5b50610c0c6004803603810190610c0791906138f5565b612820565b604051610c1991906137e3565b60405180910390f35b348015610c2e57600080fd5b50610c3761283d565b604051610c4491906137e3565b60405180910390f35b348015610c5957600080fd5b50610c746004803603810190610c6f91906138f5565b612843565b005b348015610c8257600080fd5b50610c9d6004803603810190610c9891906138f5565b612902565b005b348015610cab57600080fd5b50610cc66004803603810190610cc1919061389c565b6129aa565b005b348015610cd457600080fd5b50610cdd612a57565b604051610cea919061383f565b60405180910390f35b348015610cff57600080fd5b50610d1a6004803603810190610d1591906139f3565b612a7d565b604051610d329c9b9a99989796959493929190613ade565b60405180910390f35b348015610d4757600080fd5b50610d50612afc565b604051610d5d9190613a2f565b60405180910390f35b610d6e612b0f565b005b348015610d7c57600080fd5b50610d976004803603810190610d9291906138f5565b612b11565b604051610da5929190613bb3565b60405180910390f35b348015610dba57600080fd5b50610dd56004803603810190610dd091906138f5565b612ba3565b005b348015610de357600080fd5b50610dfe6004803603810190610df991906139f3565b612c4c565b604051610e0b9190613a2f565b60405180910390f35b348015610e2057600080fd5b50610e29612d32565b604051610e3691906137e3565b60405180910390f35b348015610e4b57600080fd5b50610e54612d38565b604051610e6191906137e3565b60405180910390f35b348015610e7657600080fd5b50610e916004803603810190610e8c9190613975565b612d3e565b604051610e9e91906137e3565b60405180910390f35b348015610eb357600080fd5b50610ebc612d6e565b604051610ec991906137e3565b60405180910390f35b348015610ede57600080fd5b50610ee7612d74565b604051610ef491906137e3565b60405180910390f35b348015610f0957600080fd5b50610f246004803603810190610f1f91906139f3565b612d7a565b604051610f3191906137e3565b60405180910390f35b348015610f4657600080fd5b50610f616004803603810190610f5c9190613bdc565b612e53565b005b348015610f6f57600080fd5b50610f78612f3e565b604051610f8591906137e3565b60405180910390f35b610fa86004803603810190610fa391906139f3565b612f46565b005b348015610fb657600080fd5b50610fd16004803603810190610fcc91906138f5565b613033565b005b348015610fdf57600080fd5b50610ffa6004803603810190610ff591906138f5565b6130ec565b005b34801561100857600080fd5b50611023600480360381019061101e9190613c81565b613194565b005b34801561103157600080fd5b5061103a6132c9565b60405161104791906137e3565b60405180910390f35b34801561105c57600080fd5b50611077600480360381019061107291906139f3565b6132cf565b6040516110849190613a2f565b60405180910390f35b60025481565b600b5481565b601d60009054906101000a900473ffffffffffffffffffffffffffffffffffffffff1681565b6000602060003373ffffffffffffffffffffffffffffffffffffffff1673ffffffffffffffffffffffffffffffffffffffff16815260200190815260200160002060020154905090565b600047905090565b60075481565b6000602060003373ffffffffffffffffffffffffffffffffffffffff1673ffffffffffffffffffffffffffffffffffffffff1681526020019081526020016000209050601560009054906101000a900460ff166111a9576040517f08c379a00000000000000000000000000000000000000000000000000000000081526004016111a090613d3e565b60405180910390fd5b60006111b36115f6565b90506000819050831561122d5760006111cc33836117ec565b90506111e181836132ef90919063ffffffff16565b915060006111ee83612820565b90506112078186600101546132ef90919063ffffffff16565b856001018190555061122481600f546132ef90919063ffffffff16565b600f8190555050505b600a5461124784600401544261331b90919063ffffffff16565b1061129c576009548360090154101561127b57611272600184600901546132ef90919063ffffffff16565b83600901819055505b611293600184600a01546132ef90919063ffffffff16565b83600a01819055505b6112c76112b46000548361334290919063ffffffff16565b84600201546132ef90919063ffffffff16565b83600201819055506000836003018190555042836004018190555061130b6112fa6005548461334290919063ffffffff16565b6012546132ef90919063ffffffff16565b60128190555050505050565b60005481565b601960009054906101000a900473ffffffffffffffffffffffffffffffffffffffff1673ffffffffffffffffffffffffffffffffffffffff163373ffffffffffffffffffffffffffffffffffffffff16146113ad576040517f08c379a00000000000000000000000000000000000000000000000000000000081526004016113a490613daa565b60405180910390fd5b60148111156113bb57600080fd5b8060048190555050565b600061140f6113d66013548461335d565b61140a6014546114056113ff6113ee6013548a61335d565b6113fa6014548c61335d565b6132ef565b89613342565b6132ef565b613342565b90509392505050565b601c60009054906101000a900473ffffffffffffffffffffffffffffffffffffffff1681565b600061144d83836012546113c5565b905092915050565b601960009054906101000a900473ffffffffffffffffffffffffffffffffffffffff1673ffffffffffffffffffffffffffffffffffffffff163373ffffffffffffffffffffffffffffffffffffffff16146114e5576040517f08c379a00000000000000000000000000000000000000000000000000000000081526004016114dc90613daa565b60405180910390fd5b600f8111156114f357600080fd5b8060038190555050565b601960009054906101000a900473ffffffffffffffffffffffffffffffffffffffff1673ffffffffffffffffffffffffffffffffffffffff163373ffffffffffffffffffffffffffffffffffffffff161461158d576040517f08c379a000000000000000000000000000000000000000000000000000000000815260040161158490613daa565b60405180910390fd5b80601960006101000a81548173ffffffffffffffffffffffffffffffffffffffff021916908373ffffffffffffffffffffffffffffffffffffffff16021790555050565b60045481565b60125481565b601560009054906101000a900460ff1681565b60175481565b600061165561160433612d7a565b602060003373ffffffffffffffffffffffffffffffffffffffff1673ffffffffffffffffffffffffffffffffffffffff168152602001908152602001600020600301546132ef90919063ffffffff16565b905090565b601960009054906101000a900473ffffffffffffffffffffffffffffffffffffffff1673ffffffffffffffffffffffffffffffffffffffff163373ffffffffffffffffffffffffffffffffffffffff16146116ea576040517f08c379a00000000000000000000000000000000000000000000000000000000081526004016116e190613e16565b60405180910390fd5b60188111156116f857600080fd5b603c80826117069190613e65565b6117109190613e65565b60188190555050565b601960009054906101000a900473ffffffffffffffffffffffffffffffffffffffff1673ffffffffffffffffffffffffffffffffffffffff163373ffffffffffffffffffffffffffffffffffffffff16146117a9576040517f08c379a00000000000000000000000000000000000000000000000000000000081526004016117a090613e16565b60405180910390fd5b67016345785d8a0000816117bd9190613e65565b60068190555050565b60115481565b600080600080600d54600e54600f54601054935093509350935090919293565b600080602060008573ffffffffffffffffffffffffffffffffffffffff1673ffffffffffffffffffffffffffffffffffffffff16815260200190815260200160002060090154141561184157600090506118cd565b600061189a600854602060008773ffffffffffffffffffffffffffffffffffffffff1673ffffffffffffffffffffffffffffffffffffffff1681526020019081526020016000206009015461335d90919063ffffffff16565b905060006118c56002546118b7848761335d90919063ffffffff16565b61334290919063ffffffff16565b905080925050505b92915050565b601560009054906101000a900460ff16611922576040517f08c379a000000000000000000000000000000000000000000000000000000000815260040161191990613d3e565b60405180910390fd5b6000602060003373ffffffffffffffffffffffffffffffffffffffff1673ffffffffffffffffffffffffffffffffffffffff16815260200190815260200160002090506006543410156119aa576040517f08c379a00000000000000000000000000000000000000000000000000000000081526004016119a190613f0b565b60405180910390fd5b6007546119c43483600001546132ef90919063ffffffff16565b1115611a05576040517f08c379a00000000000000000000000000000000000000000000000000000000081526004016119fc90613f77565b60405180910390fd5b6000611a2334611a1e344761331b90919063ffffffff16565b61143e565b9050611a3c3483600101546132ef90919063ffffffff16565b8260010181905550611a5b3483600001546132ef90919063ffffffff16565b8260000181905550611a7a8183600301546132ef90919063ffffffff16565b8260030181905550600073ffffffffffffffffffffffffffffffffffffffff168260050160009054906101000a900473ffffffffffffffffffffffffffffffffffffffff1673ffffffffffffffffffffffffffffffffffffffff161415611c4e573373ffffffffffffffffffffffffffffffffffffffff168373ffffffffffffffffffffffffffffffffffffffff1614611b5257828260050160006101000a81548173ffffffffffffffffffffffffffffffffffffffff021916908373ffffffffffffffffffffffffffffffffffffffff1602179055505b60008260050160009054906101000a900473ffffffffffffffffffffffffffffffffffffffff169050600073ffffffffffffffffffffffffffffffffffffffff168173ffffffffffffffffffffffffffffffffffffffff1614611c4c57611c056001602060008473ffffffffffffffffffffffffffffffffffffffff1673ffffffffffffffffffffffffffffffffffffffff168152602001908152602001600020600601546132ef90919063ffffffff16565b602060008373ffffffffffffffffffffffffffffffffffffffff1673ffffffffffffffffffffffffffffffffffffffff168152602001908152602001600020600601819055505b505b600073ffffffffffffffffffffffffffffffffffffffff168260050160009054906101000a900473ffffffffffffffffffffffffffffffffffffffff1673ffffffffffffffffffffffffffffffffffffffff1614611cb157611cb033346133a6565b5b6000611cbc346136be565b9050611ce5611cd4823461331b90919063ffffffff16565b600d546132ef90919063ffffffff16565b600d81905550611d016001600e546132ef90919063ffffffff16565b600e81905550611d116000611117565b50505050565b601960009054906101000a900473ffffffffffffffffffffffffffffffffffffffff1673ffffffffffffffffffffffffffffffffffffffff163373ffffffffffffffffffffffffffffffffffffffff1614611da7576040517f08c379a0000000000000000000000000000000000000000000000000000000008152600401611d9e90613daa565b60405180910390fd5b600a8110158015611db9575060648111155b611dc257600080fd5b8060018190555050565b601560009054906101000a900460ff16611e1b576040517f08c379a0000000000000000000000000000000000000000000000000000000008152600401611e1290613d3e565b60405180910390fd5b601560019054906101000a900460ff1615611ebe57601660003373ffffffffffffffffffffffffffffffffffffffff1673ffffffffffffffffffffffffffffffffffffffff16815260200190815260200160002060009054906101000a900460ff1615611ebd576040517f08c379a0000000000000000000000000000000000000000000000000000000008152600401611eb490613fe3565b60405180910390fd5b5b6000602060003373ffffffffffffffffffffffffffffffffffffffff1673ffffffffffffffffffffffffffffffffffffffff16815260200190815260200160002090506000611f0b6115f6565b90506000611f1882612820565b9050600c5483600901541015611f6a57611f63611f54600254611f46600b548561335d90919063ffffffff16565b61334290919063ffffffff16565b8261331b90919063ffffffff16565b9050611f7f565b60008360090181905550600083600a01819055505b4283600b018190555060008360030181905550428360040181905550611fc4611fb36005548461334290919063ffffffff16565b6012546132ef90919063ffffffff16565b60128190555080611fd3611109565b1015611fe457611fe1611109565b90505b6000612001611ff2836136be565b8361331b90919063ffffffff16565b90503373ffffffffffffffffffffffffffffffffffffffff166108fc829081150290604051600060405180830381858888f19350505050158015612049573d6000803e3d6000fd5b506120618185600801546132ef90919063ffffffff16565b846008018190555061207e816011546132ef90919063ffffffff16565b60118190555050505050565b60055481565b600080600080600080600080600080600080602060008e73ffffffffffffffffffffffffffffffffffffffff1673ffffffffffffffffffffffffffffffffffffffff168152602001908152602001600020600001549b50602060008e73ffffffffffffffffffffffffffffffffffffffff1673ffffffffffffffffffffffffffffffffffffffff168152602001908152602001600020600101549a50602060008e73ffffffffffffffffffffffffffffffffffffffff1673ffffffffffffffffffffffffffffffffffffffff168152602001908152602001600020600201549950602060008e73ffffffffffffffffffffffffffffffffffffffff1673ffffffffffffffffffffffffffffffffffffffff168152602001908152602001600020600301549850602060008e73ffffffffffffffffffffffffffffffffffffffff1673ffffffffffffffffffffffffffffffffffffffff168152602001908152602001600020600401549750602060008e73ffffffffffffffffffffffffffffffffffffffff1673ffffffffffffffffffffffffffffffffffffffff16815260200190815260200160002060050160009054906101000a900473ffffffffffffffffffffffffffffffffffffffff169650602060008e73ffffffffffffffffffffffffffffffffffffffff1673ffffffffffffffffffffffffffffffffffffffff168152602001908152602001600020600601549550602060008e73ffffffffffffffffffffffffffffffffffffffff1673ffffffffffffffffffffffffffffffffffffffff168152602001908152602001600020600801549450602060008e73ffffffffffffffffffffffffffffffffffffffff1673ffffffffffffffffffffffffffffffffffffffff168152602001908152602001600020600701549350602060008e73ffffffffffffffffffffffffffffffffffffffff1673ffffffffffffffffffffffffffffffffffffffff168152602001908152602001600020600901549250602060008e73ffffffffffffffffffffffffffffffffffffffff1673ffffffffffffffffffffffffffffffffffffffff168152602001908152602001600020600a01549150602060008e73ffffffffffffffffffffffffffffffffffffffff1673ffffffffffffffffffffffffffffffffffffffff168152602001908152602001600020600b0154905091939597999b5091939597999b565b60008061246d61241c84612d7a565b602060008673ffffffffffffffffffffffffffffffffffffffff1673ffffffffffffffffffffffffffffffffffffffff168152602001908152602001600020600301546132ef90919063ffffffff16565b905061247881612820565b915050919050565b60035481565b60105481565b601960009054906101000a900473ffffffffffffffffffffffffffffffffffffffff1673ffffffffffffffffffffffffffffffffffffffff163373ffffffffffffffffffffffffffffffffffffffff161461251c576040517f08c379a000000000000000000000000000000000000000000000000000000000815260040161251390613daa565b60405180910390fd5b600a811015801561252f57506103848111155b61253857600080fd5b8060088190555050565b600a5481565b601960009054906101000a900473ffffffffffffffffffffffffffffffffffffffff1673ffffffffffffffffffffffffffffffffffffffff163373ffffffffffffffffffffffffffffffffffffffff16146125d8576040517f08c379a00000000000000000000000000000000000000000000000000000000081526004016125cf90613daa565b60405180910390fd5b60328111156125e657600080fd5b8060058190555050565b601960009054906101000a900473ffffffffffffffffffffffffffffffffffffffff1673ffffffffffffffffffffffffffffffffffffffff163373ffffffffffffffffffffffffffffffffffffffff1614612680576040517f08c379a000000000000000000000000000000000000000000000000000000000815260040161267790613e16565b60405180910390fd5b603c808261268e9190613e65565b6126989190613e65565b60178190555050565b601f60009054906101000a900473ffffffffffffffffffffffffffffffffffffffff1681565b600e5481565b600f5481565b60006126e6826126e1611109565b61143e565b9050919050565b601960009054906101000a900473ffffffffffffffffffffffffffffffffffffffff1673ffffffffffffffffffffffffffffffffffffffff163373ffffffffffffffffffffffffffffffffffffffff161461277d576040517f08c379a000000000000000000000000000000000000000000000000000000000815260040161277490613e16565b60405180910390fd5b600a81101561278b57600080fd5b670de0b6b3a76400008161279f9190613e65565b60078190555050565b601b60009054906101000a900473ffffffffffffffffffffffffffffffffffffffff1681565b600d5481565b601e60009054906101000a900473ffffffffffffffffffffffffffffffffffffffff1681565b601960009054906101000a900473ffffffffffffffffffffffffffffffffffffffff1681565b600061283682601254612831611109565b6113c5565b9050919050565b60185481565b601960009054906101000a900473ffffffffffffffffffffffffffffffffffffffff1673ffffffffffffffffffffffffffffffffffffffff163373ffffffffffffffffffffffffffffffffffffffff16146128d3576040517f08c379a00000000000000000000000000000000000000000000000000000000081526004016128ca90613daa565b60405180910390fd5b60188111156128e157600080fd5b603c80826128ef9190613e65565b6128f99190613e65565b600a8190555050565b601960009054906101000a900473ffffffffffffffffffffffffffffffffffffffff1673ffffffffffffffffffffffffffffffffffffffff163373ffffffffffffffffffffffffffffffffffffffff1614612992576040517f08c379a000000000000000000000000000000000000000000000000000000000815260040161298990613daa565b60405180910390fd5b601e8111156129a057600080fd5b8060098190555050565b601960009054906101000a900473ffffffffffffffffffffffffffffffffffffffff1673ffffffffffffffffffffffffffffffffffffffff163373ffffffffffffffffffffffffffffffffffffffff1614612a3a576040517f08c379a0000000000000000000000000000000000000000000000000000000008152600401612a3190613daa565b60405180910390fd5b80601560016101000a81548160ff02191690831515021790555050565b601a60009054906101000a900473ffffffffffffffffffffffffffffffffffffffff1681565b602080528060005260406000206000915090508060000154908060010154908060020154908060030154908060040154908060050160009054906101000a900473ffffffffffffffffffffffffffffffffffffffff169080600601549080600701549080600801549080600901549080600a01549080600b015490508c565b601560019054906101000a900460ff1681565b565b6000806000612b4b84612b4686612b3888612b2a611109565b6132ef90919063ffffffff16565b61331b90919063ffffffff16565b61143e565b90506000612b646000548361334290919063ffffffff16565b905060006201518090506000612b83838361335d90919063ffffffff16565b90506000612b918289612d3e565b90508381965096505050505050915091565b601960009054906101000a900473ffffffffffffffffffffffffffffffffffffffff1673ffffffffffffffffffffffffffffffffffffffff163373ffffffffffffffffffffffffffffffffffffffff1614612c33576040517f08c379a0000000000000000000000000000000000000000000000000000000008152600401612c2a90613daa565b60405180910390fd5b610384811115612c4257600080fd5b80600b8190555050565b6000601960009054906101000a900473ffffffffffffffffffffffffffffffffffffffff1673ffffffffffffffffffffffffffffffffffffffff163373ffffffffffffffffffffffffffffffffffffffff1614612cde576040517f08c379a0000000000000000000000000000000000000000000000000000000008152600401612cd590613daa565b60405180910390fd5b601660008373ffffffffffffffffffffffffffffffffffffffff1673ffffffffffffffffffffffffffffffffffffffff16815260200190815260200160002060009054906101000a900460ff169050919050565b60015481565b60095481565b6000612d6683601254612d6185612d53611109565b6132ef90919063ffffffff16565b6113c5565b905092915050565b60065481565b60085481565b600080612dd2602060008573ffffffffffffffffffffffffffffffffffffffff1673ffffffffffffffffffffffffffffffffffffffff168152602001908152602001600020600401544261331b90919063ffffffff16565b90506000612de2826017546137b1565b90506000612df2600054836137b1565b9050612e49602060008773ffffffffffffffffffffffffffffffffffffffff1673ffffffffffffffffffffffffffffffffffffffff168152602001908152602001600020600201548261335d90919063ffffffff16565b9350505050919050565b601960009054906101000a900473ffffffffffffffffffffffffffffffffffffffff1673ffffffffffffffffffffffffffffffffffffffff163373ffffffffffffffffffffffffffffffffffffffff1614612ee3576040517f08c379a0000000000000000000000000000000000000000000000000000000008152600401612eda90613daa565b60405180910390fd5b80601660008473ffffffffffffffffffffffffffffffffffffffff1673ffffffffffffffffffffffffffffffffffffffff16815260200190815260200160002060006101000a81548160ff0219169083151502179055505050565b600042905090565b601560009054906101000a900460ff1661303057601960009054906101000a900473ffffffffffffffffffffffffffffffffffffffff1673ffffffffffffffffffffffffffffffffffffffff163373ffffffffffffffffffffffffffffffffffffffff161415612ff457600060125414612fbf57600080fd5b6001601560006101000a81548160ff02191690831515021790555064218711a000601281905550612fef816118d3565b61302f565b6040517f08c379a00000000000000000000000000000000000000000000000000000000081526004016130269061404f565b60405180910390fd5b5b50565b601960009054906101000a900473ffffffffffffffffffffffffffffffffffffffff1673ffffffffffffffffffffffffffffffffffffffff163373ffffffffffffffffffffffffffffffffffffffff16146130c3576040517f08c379a00000000000000000000000000000000000000000000000000000000081526004016130ba90613daa565b60405180910390fd5b6207512081101580156130d95750620afc808111155b6130e257600080fd5b8060008190555050565b601960009054906101000a900473ffffffffffffffffffffffffffffffffffffffff1673ffffffffffffffffffffffffffffffffffffffff163373ffffffffffffffffffffffffffffffffffffffff161461317c576040517f08c379a000000000000000000000000000000000000000000000000000000000815260040161317390613daa565b60405180910390fd5b600c81111561318a57600080fd5b80600c8190555050565b601960009054906101000a900473ffffffffffffffffffffffffffffffffffffffff1673ffffffffffffffffffffffffffffffffffffffff163373ffffffffffffffffffffffffffffffffffffffff1614613224576040517f08c379a000000000000000000000000000000000000000000000000000000000815260040161321b90613daa565b60405180910390fd5b60005b838390508110156132c357816016600086868581811061324a5761324961406f565b5b905060200201602081019061325f91906139f3565b73ffffffffffffffffffffffffffffffffffffffff1673ffffffffffffffffffffffffffffffffffffffff16815260200190815260200160002060006101000a81548160ff02191690831515021790555080806132bb9061409e565b915050613227565b50505050565b600c5481565b60166020528060005260406000206000915054906101000a900460ff1681565b60008082846132fe91906140e7565b9050838110156133115761331061413d565b5b8091505092915050565b60008282111561332e5761332d61413d565b5b818361333a919061416c565b905092915050565b600080828461335191906141cf565b90508091505092915050565b60008083141561337057600090506133a0565b6000828461337e9190613e65565b905082848261338d91906141cf565b1461339b5761339a61413d565b5b809150505b92915050565b60008290506000600367ffffffffffffffff8111156133c8576133c7614200565b5b6040519080825280602002602001820160405280156133f65781602001602082028036833780820191505090505b50905060088160008151811061340f5761340e61406f565b5b6020026020010181815250506003816001815181106134315761343061406f565b5b6020026020010181815250506002816002815181106134535761345261406f565b5b60200260200101818152505060005b60038110156136b757600073ffffffffffffffffffffffffffffffffffffffff16602060008573ffffffffffffffffffffffffffffffffffffffff1673ffffffffffffffffffffffffffffffffffffffff16815260200190815260200160002060050160009054906101000a900473ffffffffffffffffffffffffffffffffffffffff1673ffffffffffffffffffffffffffffffffffffffff161461369f57602060008473ffffffffffffffffffffffffffffffffffffffff1673ffffffffffffffffffffffffffffffffffffffff16815260200190815260200160002060050160009054906101000a900473ffffffffffffffffffffffffffffffffffffffff169250600060648584848151811061357e5761357d61406f565b5b60200260200101516135909190613e65565b61359a91906141cf565b90508373ffffffffffffffffffffffffffffffffffffffff166108fc829081150290604051600060405180830381858888f193505050501580156135e2573d6000803e3d6000fd5b5061363881602060008773ffffffffffffffffffffffffffffffffffffffff1673ffffffffffffffffffffffffffffffffffffffff168152602001908152602001600020600701546132ef90919063ffffffff16565b602060008673ffffffffffffffffffffffffffffffffffffffff1673ffffffffffffffffffffffffffffffffffffffff16815260200190815260200160002060070181905550613693816010546132ef90919063ffffffff16565b601081905550506136a4565b6136b7565b80806136af9061409e565b915050613462565b5050505050565b6000806136ea6002546136dc6003548661335d90919063ffffffff16565b61334290919063ffffffff16565b905060006137176002546137096004548761335d90919063ffffffff16565b61334290919063ffffffff16565b9050601a60009054906101000a900473ffffffffffffffffffffffffffffffffffffffff1673ffffffffffffffffffffffffffffffffffffffff166108fc839081150290604051600060405180830381858888f19350505050158015613781573d6000803e3d6000fd5b506137a861379960058461335d90919063ffffffff16565b826132ef90919063ffffffff16565b92505050919050565b60008183106137c057816137c2565b825b905092915050565b6000819050919050565b6137dd816137ca565b82525050565b60006020820190506137f860008301846137d4565b92915050565b600073ffffffffffffffffffffffffffffffffffffffff82169050919050565b6000613829826137fe565b9050919050565b6138398161381e565b82525050565b60006020820190506138546000830184613830565b92915050565b600080fd5b600080fd5b60008115159050919050565b61387981613864565b811461388457600080fd5b50565b60008135905061389681613870565b92915050565b6000602082840312156138b2576138b161385a565b5b60006138c084828501613887565b91505092915050565b6138d2816137ca565b81146138dd57600080fd5b50565b6000813590506138ef816138c9565b92915050565b60006020828403121561390b5761390a61385a565b5b6000613919848285016138e0565b91505092915050565b60008060006060848603121561393b5761393a61385a565b5b6000613949868287016138e0565b935050602061395a868287016138e0565b925050604061396b868287016138e0565b9150509250925092565b6000806040838503121561398c5761398b61385a565b5b600061399a858286016138e0565b92505060206139ab858286016138e0565b9150509250929050565b60006139c0826137fe565b9050919050565b6139d0816139b5565b81146139db57600080fd5b50565b6000813590506139ed816139c7565b92915050565b600060208284031215613a0957613a0861385a565b5b6000613a17848285016139de565b91505092915050565b613a2981613864565b82525050565b6000602082019050613a446000830184613a20565b92915050565b6000608082019050613a5f60008301876137d4565b613a6c60208301866137d4565b613a7960408301856137d4565b613a8660608301846137d4565b95945050505050565b60008060408385031215613aa657613aa561385a565b5b6000613ab4858286016139de565b9250506020613ac5858286016138e0565b9150509250929050565b613ad8816139b5565b82525050565b600061018082019050613af4600083018f6137d4565b613b01602083018e6137d4565b613b0e604083018d6137d4565b613b1b606083018c6137d4565b613b28608083018b6137d4565b613b3560a083018a613acf565b613b4260c08301896137d4565b613b4f60e08301886137d4565b613b5d6101008301876137d4565b613b6b6101208301866137d4565b613b796101408301856137d4565b613b876101608301846137d4565b9d9c50505050505050505050505050565b6000602082019050613bad6000830184613acf565b92915050565b6000604082019050613bc860008301856137d4565b613bd560208301846137d4565b9392505050565b60008060408385031215613bf357613bf261385a565b5b6000613c01858286016139de565b9250506020613c1285828601613887565b9150509250929050565b600080fd5b600080fd5b600080fd5b60008083601f840112613c4157613c40613c1c565b5b8235905067ffffffffffffffff811115613c5e57613c5d613c21565b5b602083019150836020820283011115613c7a57613c79613c26565b5b9250929050565b600080600060408486031215613c9a57613c9961385a565b5b600084013567ffffffffffffffff811115613cb857613cb761385f565b5b613cc486828701613c2b565b93509350506020613cd786828701613887565b9150509250925092565b600082825260208201905092915050565b7f436f6e7472616374206e6f742079657420537461727465642e00000000000000600082015250565b6000613d28601983613ce1565b9150613d3382613cf2565b602082019050919050565b60006020820190508181036000830152613d5781613d1b565b9050919050565b7f41646d696e20757365206f6e6c792e0000000000000000000000000000000000600082015250565b6000613d94600f83613ce1565b9150613d9f82613d5e565b602082019050919050565b60006020820190508181036000830152613dc381613d87565b9050919050565b7f41646d696e20757365206f6e6c79000000000000000000000000000000000000600082015250565b6000613e00600e83613ce1565b9150613e0b82613dca565b602082019050919050565b60006020820190508181036000830152613e2f81613df3565b9050919050565b7f4e487b7100000000000000000000000000000000000000000000000000000000600052601160045260246000fd5b6000613e70826137ca565b9150613e7b836137ca565b9250817fffffffffffffffffffffffffffffffffffffffffffffffffffffffffffffffff0483118215151615613eb457613eb3613e36565b5b828202905092915050565b7f4d696e696e756d20696e766573746d656e74206e6f74206d65742e0000000000600082015250565b6000613ef5601b83613ce1565b9150613f0082613ebf565b602082019050919050565b60006020820190508181036000830152613f2481613ee8565b9050919050565b7f4d6178206465706f736974206c696d697420726561636865642e000000000000600082015250565b6000613f61601a83613ce1565b9150613f6c82613f2b565b602082019050919050565b60006020820190508181036000830152613f9081613f54565b9050919050565b7f4164647265737320697320626c61636b6c69737465642e000000000000000000600082015250565b6000613fcd601783613ce1565b9150613fd882613f97565b602082019050919050565b60006020820190508181036000830152613ffc81613fc0565b9050919050565b7f436f6e7472616374206e6f742079657420737461727465642e00000000000000600082015250565b6000614039601983613ce1565b915061404482614003565b602082019050919050565b600060208201905081810360008301526140688161402c565b9050919050565b7f4e487b7100000000000000000000000000000000000000000000000000000000600052603260045260246000fd5b60006140a9826137ca565b91507fffffffffffffffffffffffffffffffffffffffffffffffffffffffffffffffff8214156140dc576140db613e36565b5b600182019050919050565b60006140f2826137ca565b91506140fd836137ca565b9250827fffffffffffffffffffffffffffffffffffffffffffffffffffffffffffffffff0382111561413257614131613e36565b5b828201905092915050565b7f4e487b7100000000000000000000000000000000000000000000000000000000600052600160045260246000fd5b6000614177826137ca565b9150614182836137ca565b92508282101561419557614194613e36565b5b828203905092915050565b7f4e487b7100000000000000000000000000000000000000000000000000000000600052601260045260246000fd5b60006141da826137ca565b91506141e5836137ca565b9250826141f5576141f46141a0565b5b828204905092915050565b7f4e487b7100000000000000000000000000000000000000000000000000000000600052604160045260246000fdfea264697066735822122079b3b437af1c53c2fc71aa0476cd0f831f972bbe179f6de101e761cfd750197e64736f6c63430008090033",
					"opcodes": "PUSH1 0x80 PUSH1 0x40 MSTORE PUSH3 0x15F900 PUSH1 0x0 SSTORE PUSH1 0x46 PUSH1 0x1 SSTORE PUSH2 0x3E8 PUSH1 0x2 SSTORE PUSH1 0x9 PUSH1 0x3 SSTORE PUSH1 0xC PUSH1 0x4 SSTORE PUSH1 0x2 PUSH1 0x5 SSTORE PUSH8 0x16345785D8A0000 PUSH1 0x6 SSTORE PUSH9 0x15AF1D78B58C40000 PUSH1 0x7 SSTORE PUSH1 0x14 PUSH1 0x8 SSTORE PUSH1 0xA PUSH1 0x9 SSTORE PUSH2 0xA8C0 PUSH1 0xA SSTORE PUSH2 0x15E PUSH1 0xB SSTORE PUSH1 0xA PUSH1 0xC SSTORE PUSH2 0x2710 PUSH1 0x13 SSTORE PUSH2 0x1388 PUSH1 0x14 SSTORE PUSH1 0x1 PUSH1 0x15 PUSH1 0x1 PUSH2 0x100 EXP DUP2 SLOAD DUP2 PUSH1 0xFF MUL NOT AND SWAP1 DUP4 ISZERO ISZERO MUL OR SWAP1 SSTORE POP PUSH3 0x2A300 PUSH1 0x17 SSTORE PUSH2 0x3840 PUSH1 0x18 SSTORE CALLVALUE DUP1 ISZERO PUSH3 0x9A JUMPI PUSH1 0x0 DUP1 REVERT JUMPDEST POP PUSH1 0x40 MLOAD PUSH3 0x46C4 CODESIZE SUB DUP1 PUSH3 0x46C4 DUP4 CODECOPY DUP2 DUP2 ADD PUSH1 0x40 MSTORE DUP2 ADD SWAP1 PUSH3 0xC0 SWAP2 SWAP1 PUSH3 0x3B3 JUMP JUMPDEST PUSH3 0xD1 DUP7 PUSH3 0x336 PUSH1 0x20 SHL PUSH1 0x20 SHR JUMP JUMPDEST ISZERO DUP1 ISZERO PUSH3 0xED JUMPI POP PUSH3 0xEB DUP6 PUSH3 0x336 PUSH1 0x20 SHL PUSH1 0x20 SHR JUMP JUMPDEST ISZERO JUMPDEST DUP1 ISZERO PUSH3 0x108 JUMPI POP PUSH3 0x106 DUP5 PUSH3 0x336 PUSH1 0x20 SHL PUSH1 0x20 SHR JUMP JUMPDEST ISZERO JUMPDEST DUP1 ISZERO PUSH3 0x123 JUMPI POP PUSH3 0x121 DUP4 PUSH3 0x336 PUSH1 0x20 SHL PUSH1 0x20 SHR JUMP JUMPDEST ISZERO JUMPDEST DUP1 ISZERO PUSH3 0x13E JUMPI POP PUSH3 0x13C DUP3 PUSH3 0x336 PUSH1 0x20 SHL PUSH1 0x20 SHR JUMP JUMPDEST ISZERO JUMPDEST DUP1 ISZERO PUSH3 0x159 JUMPI POP PUSH3 0x157 DUP2 PUSH3 0x336 PUSH1 0x20 SHL PUSH1 0x20 SHR JUMP JUMPDEST ISZERO JUMPDEST PUSH3 0x163 JUMPI PUSH1 0x0 DUP1 REVERT JUMPDEST CALLER PUSH1 0x19 PUSH1 0x0 PUSH2 0x100 EXP DUP2 SLOAD DUP2 PUSH20 0xFFFFFFFFFFFFFFFFFFFFFFFFFFFFFFFFFFFFFFFF MUL NOT AND SWAP1 DUP4 PUSH20 0xFFFFFFFFFFFFFFFFFFFFFFFFFFFFFFFFFFFFFFFF AND MUL OR SWAP1 SSTORE POP DUP6 PUSH1 0x1A PUSH1 0x0 PUSH2 0x100 EXP DUP2 SLOAD DUP2 PUSH20 0xFFFFFFFFFFFFFFFFFFFFFFFFFFFFFFFFFFFFFFFF MUL NOT AND SWAP1 DUP4 PUSH20 0xFFFFFFFFFFFFFFFFFFFFFFFFFFFFFFFFFFFFFFFF AND MUL OR SWAP1 SSTORE POP DUP5 PUSH1 0x1B PUSH1 0x0 PUSH2 0x100 EXP DUP2 SLOAD DUP2 PUSH20 0xFFFFFFFFFFFFFFFFFFFFFFFFFFFFFFFFFFFFFFFF MUL NOT AND SWAP1 DUP4 PUSH20 0xFFFFFFFFFFFFFFFFFFFFFFFFFFFFFFFFFFFFFFFF AND MUL OR SWAP1 SSTORE POP DUP4 PUSH1 0x1C PUSH1 0x0 PUSH2 0x100 EXP DUP2 SLOAD DUP2 PUSH20 0xFFFFFFFFFFFFFFFFFFFFFFFFFFFFFFFFFFFFFFFF MUL NOT AND SWAP1 DUP4 PUSH20 0xFFFFFFFFFFFFFFFFFFFFFFFFFFFFFFFFFFFFFFFF AND MUL OR SWAP1 SSTORE POP DUP3 PUSH1 0x1D PUSH1 0x0 PUSH2 0x100 EXP DUP2 SLOAD DUP2 PUSH20 0xFFFFFFFFFFFFFFFFFFFFFFFFFFFFFFFFFFFFFFFF MUL NOT AND SWAP1 DUP4 PUSH20 0xFFFFFFFFFFFFFFFFFFFFFFFFFFFFFFFFFFFFFFFF AND MUL OR SWAP1 SSTORE POP DUP2 PUSH1 0x1E PUSH1 0x0 PUSH2 0x100 EXP DUP2 SLOAD DUP2 PUSH20 0xFFFFFFFFFFFFFFFFFFFFFFFFFFFFFFFFFFFFFFFF MUL NOT AND SWAP1 DUP4 PUSH20 0xFFFFFFFFFFFFFFFFFFFFFFFFFFFFFFFFFFFFFFFF AND MUL OR SWAP1 SSTORE POP DUP1 PUSH1 0x1F PUSH1 0x0 PUSH2 0x100 EXP DUP2 SLOAD DUP2 PUSH20 0xFFFFFFFFFFFFFFFFFFFFFFFFFFFFFFFFFFFFFFFF MUL NOT AND SWAP1 DUP4 PUSH20 0xFFFFFFFFFFFFFFFFFFFFFFFFFFFFFFFFFFFFFFFF AND MUL OR SWAP1 SSTORE POP POP POP POP POP POP POP PUSH3 0x44F JUMP JUMPDEST PUSH1 0x0 DUP1 DUP3 EXTCODESIZE SWAP1 POP PUSH1 0x0 DUP2 GT SWAP2 POP POP SWAP2 SWAP1 POP JUMP JUMPDEST PUSH1 0x0 DUP1 REVERT JUMPDEST PUSH1 0x0 PUSH20 0xFFFFFFFFFFFFFFFFFFFFFFFFFFFFFFFFFFFFFFFF DUP3 AND SWAP1 POP SWAP2 SWAP1 POP JUMP JUMPDEST PUSH1 0x0 PUSH3 0x37B DUP3 PUSH3 0x34E JUMP JUMPDEST SWAP1 POP SWAP2 SWAP1 POP JUMP JUMPDEST PUSH3 0x38D DUP2 PUSH3 0x36E JUMP JUMPDEST DUP2 EQ PUSH3 0x399 JUMPI PUSH1 0x0 DUP1 REVERT JUMPDEST POP JUMP JUMPDEST PUSH1 0x0 DUP2 MLOAD SWAP1 POP PUSH3 0x3AD DUP2 PUSH3 0x382 JUMP JUMPDEST SWAP3 SWAP2 POP POP JUMP JUMPDEST PUSH1 0x0 DUP1 PUSH1 0x0 DUP1 PUSH1 0x0 DUP1 PUSH1 0xC0 DUP8 DUP10 SUB SLT ISZERO PUSH3 0x3D3 JUMPI PUSH3 0x3D2 PUSH3 0x349 JUMP JUMPDEST JUMPDEST PUSH1 0x0 PUSH3 0x3E3 DUP10 DUP3 DUP11 ADD PUSH3 0x39C JUMP JUMPDEST SWAP7 POP POP PUSH1 0x20 PUSH3 0x3F6 DUP10 DUP3 DUP11 ADD PUSH3 0x39C JUMP JUMPDEST SWAP6 POP POP PUSH1 0x40 PUSH3 0x409 DUP10 DUP3 DUP11 ADD PUSH3 0x39C JUMP JUMPDEST SWAP5 POP POP PUSH1 0x60 PUSH3 0x41C DUP10 DUP3 DUP11 ADD PUSH3 0x39C JUMP JUMPDEST SWAP4 POP POP PUSH1 0x80 PUSH3 0x42F DUP10 DUP3 DUP11 ADD PUSH3 0x39C JUMP JUMPDEST SWAP3 POP POP PUSH1 0xA0 PUSH3 0x442 DUP10 DUP3 DUP11 ADD PUSH3 0x39C JUMP JUMPDEST SWAP2 POP POP SWAP3 SWAP6 POP SWAP3 SWAP6 POP SWAP3 SWAP6 JUMP JUMPDEST PUSH2 0x4265 DUP1 PUSH3 0x45F PUSH1 0x0 CODECOPY PUSH1 0x0 RETURN INVALID PUSH1 0x80 PUSH1 0x40 MSTORE PUSH1 0x4 CALLDATASIZE LT PUSH2 0x410 JUMPI PUSH1 0x0 CALLDATALOAD PUSH1 0xE0 SHR DUP1 PUSH4 0x7C8E4B4C GT PUSH2 0x21E JUMPI DUP1 PUSH4 0xBD097E21 GT PUSH2 0x123 JUMPI DUP1 PUSH4 0xD7C8843B GT PUSH2 0xAB JUMPI DUP1 PUSH4 0xE6DC9558 GT PUSH2 0x7A JUMPI DUP1 PUSH4 0xE6DC9558 EQ PUSH2 0xFAA JUMPI DUP1 PUSH4 0xE7576943 EQ PUSH2 0xFD3 JUMPI DUP1 PUSH4 0xEB271268 EQ PUSH2 0xFFC JUMPI DUP1 PUSH4 0xF6F62886 EQ PUSH2 0x1025 JUMPI DUP1 PUSH4 0xFFA4E618 EQ PUSH2 0x1050 JUMPI PUSH2 0x410 JUMP JUMPDEST DUP1 PUSH4 0xD7C8843B EQ PUSH2 0xEFD JUMPI DUP1 PUSH4 0xD989B4B3 EQ PUSH2 0xF3A JUMPI DUP1 PUSH4 0xDA235B22 EQ PUSH2 0xF63 JUMPI DUP1 PUSH4 0xDA5D4CC5 EQ PUSH2 0xF8E JUMPI PUSH2 0x410 JUMP JUMPDEST DUP1 PUSH4 0xC63568C7 GT PUSH2 0xF2 JUMPI DUP1 PUSH4 0xC63568C7 EQ PUSH2 0xE14 JUMPI DUP1 PUSH4 0xC688F0FB EQ PUSH2 0xE3F JUMPI DUP1 PUSH4 0xCC3E9C78 EQ PUSH2 0xE6A JUMPI DUP1 PUSH4 0xCD329FC3 EQ PUSH2 0xEA7 JUMPI DUP1 PUSH4 0xD7206D5D EQ PUSH2 0xED2 JUMPI PUSH2 0x410 JUMP JUMPDEST DUP1 PUSH4 0xBD097E21 EQ PUSH2 0xD66 JUMPI DUP1 PUSH4 0xBDD1CA27 EQ PUSH2 0xD70 JUMPI DUP1 PUSH4 0xBFA9F304 EQ PUSH2 0xDAE JUMPI DUP1 PUSH4 0xC3251B40 EQ PUSH2 0xDD7 JUMPI PUSH2 0x410 JUMP JUMPDEST DUP1 PUSH4 0x8DA5CB5B GT PUSH2 0x1A6 JUMPI DUP1 PUSH4 0x9B9CB69F GT PUSH2 0x175 JUMPI DUP1 PUSH4 0x9B9CB69F EQ PUSH2 0xC76 JUMPI DUP1 PUSH4 0x9E9300A5 EQ PUSH2 0xC9F JUMPI DUP1 PUSH4 0xA327C45D EQ PUSH2 0xCC8 JUMPI DUP1 PUSH4 0xA87430BA EQ PUSH2 0xCF3 JUMPI DUP1 PUSH4 0xB6E6FCF6 EQ PUSH2 0xD3B JUMPI PUSH2 0x410 JUMP JUMPDEST DUP1 PUSH4 0x8DA5CB5B EQ PUSH2 0xBBA JUMPI DUP1 PUSH4 0x8E316327 EQ PUSH2 0xBE5 JUMPI DUP1 PUSH4 0x950D91E9 EQ PUSH2 0xC22 JUMPI DUP1 PUSH4 0x959C95B3 EQ PUSH2 0xC4D JUMPI PUSH2 0x410 JUMP JUMPDEST DUP1 PUSH4 0x7E56FDE5 GT PUSH2 0x1ED JUMPI DUP1 PUSH4 0x7E56FDE5 EQ PUSH2 0xAD3 JUMPI DUP1 PUSH4 0x7EE28E3C EQ PUSH2 0xB10 JUMPI DUP1 PUSH4 0x8013F3A7 EQ PUSH2 0xB39 JUMPI DUP1 PUSH4 0x817B1CD2 EQ PUSH2 0xB64 JUMPI DUP1 PUSH4 0x8A315EFD EQ PUSH2 0xB8F JUMPI PUSH2 0x410 JUMP JUMPDEST DUP1 PUSH4 0x7C8E4B4C EQ PUSH2 0xA29 JUMPI DUP1 PUSH4 0x7CC5B1E6 EQ PUSH2 0xA52 JUMPI DUP1 PUSH4 0x7D882097 EQ PUSH2 0xA7D JUMPI DUP1 PUSH4 0x7DB07C9D EQ PUSH2 0xAA8 JUMPI PUSH2 0x410 JUMP JUMPDEST DUP1 PUSH4 0x3578584F GT PUSH2 0x324 JUMPI DUP1 PUSH4 0x57386225 GT PUSH2 0x2AC JUMPI DUP1 PUSH4 0x68F58B03 GT PUSH2 0x27B JUMPI DUP1 PUSH4 0x68F58B03 EQ PUSH2 0x956 JUMPI DUP1 PUSH4 0x69B11DD5 EQ PUSH2 0x981 JUMPI DUP1 PUSH4 0x6F969D28 EQ PUSH2 0x9AC JUMPI DUP1 PUSH4 0x752A2628 EQ PUSH2 0x9D5 JUMPI DUP1 PUSH4 0x7A62EAD7 EQ PUSH2 0xA00 JUMPI PUSH2 0x410 JUMP JUMPDEST DUP1 PUSH4 0x57386225 EQ PUSH2 0x88F JUMPI DUP1 PUSH4 0x59EEC895 EQ PUSH2 0x8A6 JUMPI DUP1 PUSH4 0x6386C1C7 EQ PUSH2 0x8D1 JUMPI DUP1 PUSH4 0x64C03A5E EQ PUSH2 0x919 JUMPI PUSH2 0x410 JUMP JUMPDEST DUP1 PUSH4 0x4B319713 GT PUSH2 0x2F3 JUMPI DUP1 PUSH4 0x4B319713 EQ PUSH2 0x7B4 JUMPI DUP1 PUSH4 0x4CE87053 EQ PUSH2 0x7DF JUMPI DUP1 PUSH4 0x50637DBD EQ PUSH2 0x80D JUMPI DUP1 PUSH4 0x50CF1C7A EQ PUSH2 0x84A JUMPI DUP1 PUSH4 0x570C2979 EQ PUSH2 0x866 JUMPI PUSH2 0x410 JUMP JUMPDEST DUP1 PUSH4 0x3578584F EQ PUSH2 0x70C JUMPI DUP1 PUSH4 0x43CE7422 EQ PUSH2 0x737 JUMPI DUP1 PUSH4 0x45A6A6E0 EQ PUSH2 0x762 JUMPI DUP1 PUSH4 0x45F98C29 EQ PUSH2 0x78B JUMPI PUSH2 0x410 JUMP JUMPDEST DUP1 PUSH4 0x1A7B8D4F GT PUSH2 0x3A7 JUMPI DUP1 PUSH4 0x298EA310 GT PUSH2 0x376 JUMPI DUP1 PUSH4 0x298EA310 EQ PUSH2 0x639 JUMPI DUP1 PUSH4 0x2B039D0E EQ PUSH2 0x662 JUMPI DUP1 PUSH4 0x2BC82F7F EQ PUSH2 0x68B JUMPI DUP1 PUSH4 0x2E9392BB EQ PUSH2 0x6B6 JUMPI DUP1 PUSH4 0x333F57B3 EQ PUSH2 0x6E1 JUMPI PUSH2 0x410 JUMP JUMPDEST DUP1 PUSH4 0x1A7B8D4F EQ PUSH2 0x56B JUMPI DUP1 PUSH4 0x229824C4 EQ PUSH2 0x594 JUMPI DUP1 PUSH4 0x2362CE89 EQ PUSH2 0x5D1 JUMPI DUP1 PUSH4 0x26FD8422 EQ PUSH2 0x5FC JUMPI PUSH2 0x410 JUMP JUMPDEST DUP1 PUSH4 0x12065FE0 GT PUSH2 0x3E3 JUMPI DUP1 PUSH4 0x12065FE0 EQ PUSH2 0x4C1 JUMPI DUP1 PUSH4 0x1848B8DC EQ PUSH2 0x4EC JUMPI DUP1 PUSH4 0x18C819D8 EQ PUSH2 0x517 JUMPI DUP1 PUSH4 0x195A7339 EQ PUSH2 0x540 JUMPI PUSH2 0x410 JUMP JUMPDEST DUP1 PUSH4 0x1C234A8 EQ PUSH2 0x415 JUMPI DUP1 PUSH4 0x420C98E EQ PUSH2 0x440 JUMPI DUP1 PUSH4 0x7AEB7F0 EQ PUSH2 0x46B JUMPI DUP1 PUSH4 0xA76E5ED EQ PUSH2 0x496 JUMPI JUMPDEST PUSH1 0x0 DUP1 REVERT JUMPDEST CALLVALUE DUP1 ISZERO PUSH2 0x421 JUMPI PUSH1 0x0 DUP1 REVERT JUMPDEST POP PUSH2 0x42A PUSH2 0x108D JUMP JUMPDEST PUSH1 0x40 MLOAD PUSH2 0x437 SWAP2 SWAP1 PUSH2 0x37E3 JUMP JUMPDEST PUSH1 0x40 MLOAD DUP1 SWAP2 SUB SWAP1 RETURN JUMPDEST CALLVALUE DUP1 ISZERO PUSH2 0x44C JUMPI PUSH1 0x0 DUP1 REVERT JUMPDEST POP PUSH2 0x455 PUSH2 0x1093 JUMP JUMPDEST PUSH1 0x40 MLOAD PUSH2 0x462 SWAP2 SWAP1 PUSH2 0x37E3 JUMP JUMPDEST PUSH1 0x40 MLOAD DUP1 SWAP2 SUB SWAP1 RETURN JUMPDEST CALLVALUE DUP1 ISZERO PUSH2 0x477 JUMPI PUSH1 0x0 DUP1 REVERT JUMPDEST POP PUSH2 0x480 PUSH2 0x1099 JUMP JUMPDEST PUSH1 0x40 MLOAD PUSH2 0x48D SWAP2 SWAP1 PUSH2 0x383F JUMP JUMPDEST PUSH1 0x40 MLOAD DUP1 SWAP2 SUB SWAP1 RETURN JUMPDEST CALLVALUE DUP1 ISZERO PUSH2 0x4A2 JUMPI PUSH1 0x0 DUP1 REVERT JUMPDEST POP PUSH2 0x4AB PUSH2 0x10BF JUMP JUMPDEST PUSH1 0x40 MLOAD PUSH2 0x4B8 SWAP2 SWAP1 PUSH2 0x37E3 JUMP JUMPDEST PUSH1 0x40 MLOAD DUP1 SWAP2 SUB SWAP1 RETURN JUMPDEST CALLVALUE DUP1 ISZERO PUSH2 0x4CD JUMPI PUSH1 0x0 DUP1 REVERT JUMPDEST POP PUSH2 0x4D6 PUSH2 0x1109 JUMP JUMPDEST PUSH1 0x40 MLOAD PUSH2 0x4E3 SWAP2 SWAP1 PUSH2 0x37E3 JUMP JUMPDEST PUSH1 0x40 MLOAD DUP1 SWAP2 SUB SWAP1 RETURN JUMPDEST CALLVALUE DUP1 ISZERO PUSH2 0x4F8 JUMPI PUSH1 0x0 DUP1 REVERT JUMPDEST POP PUSH2 0x501 PUSH2 0x1111 JUMP JUMPDEST PUSH1 0x40 MLOAD PUSH2 0x50E SWAP2 SWAP1 PUSH2 0x37E3 JUMP JUMPDEST PUSH1 0x40 MLOAD DUP1 SWAP2 SUB SWAP1 RETURN JUMPDEST CALLVALUE DUP1 ISZERO PUSH2 0x523 JUMPI PUSH1 0x0 DUP1 REVERT JUMPDEST POP PUSH2 0x53E PUSH1 0x4 DUP1 CALLDATASIZE SUB DUP2 ADD SWAP1 PUSH2 0x539 SWAP2 SWAP1 PUSH2 0x389C JUMP JUMPDEST PUSH2 0x1117 JUMP JUMPDEST STOP JUMPDEST CALLVALUE DUP1 ISZERO PUSH2 0x54C JUMPI PUSH1 0x0 DUP1 REVERT JUMPDEST POP PUSH2 0x555 PUSH2 0x1317 JUMP JUMPDEST PUSH1 0x40 MLOAD PUSH2 0x562 SWAP2 SWAP1 PUSH2 0x37E3 JUMP JUMPDEST PUSH1 0x40 MLOAD DUP1 SWAP2 SUB SWAP1 RETURN JUMPDEST CALLVALUE DUP1 ISZERO PUSH2 0x577 JUMPI PUSH1 0x0 DUP1 REVERT JUMPDEST POP PUSH2 0x592 PUSH1 0x4 DUP1 CALLDATASIZE SUB DUP2 ADD SWAP1 PUSH2 0x58D SWAP2 SWAP1 PUSH2 0x38F5 JUMP JUMPDEST PUSH2 0x131D JUMP JUMPDEST STOP JUMPDEST CALLVALUE DUP1 ISZERO PUSH2 0x5A0 JUMPI PUSH1 0x0 DUP1 REVERT JUMPDEST POP PUSH2 0x5BB PUSH1 0x4 DUP1 CALLDATASIZE SUB DUP2 ADD SWAP1 PUSH2 0x5B6 SWAP2 SWAP1 PUSH2 0x3922 JUMP JUMPDEST PUSH2 0x13C5 JUMP JUMPDEST PUSH1 0x40 MLOAD PUSH2 0x5C8 SWAP2 SWAP1 PUSH2 0x37E3 JUMP JUMPDEST PUSH1 0x40 MLOAD DUP1 SWAP2 SUB SWAP1 RETURN JUMPDEST CALLVALUE DUP1 ISZERO PUSH2 0x5DD JUMPI PUSH1 0x0 DUP1 REVERT JUMPDEST POP PUSH2 0x5E6 PUSH2 0x1418 JUMP JUMPDEST PUSH1 0x40 MLOAD PUSH2 0x5F3 SWAP2 SWAP1 PUSH2 0x383F JUMP JUMPDEST PUSH1 0x40 MLOAD DUP1 SWAP2 SUB SWAP1 RETURN JUMPDEST CALLVALUE DUP1 ISZERO PUSH2 0x608 JUMPI PUSH1 0x0 DUP1 REVERT JUMPDEST POP PUSH2 0x623 PUSH1 0x4 DUP1 CALLDATASIZE SUB DUP2 ADD SWAP1 PUSH2 0x61E SWAP2 SWAP1 PUSH2 0x3975 JUMP JUMPDEST PUSH2 0x143E JUMP JUMPDEST PUSH1 0x40 MLOAD PUSH2 0x630 SWAP2 SWAP1 PUSH2 0x37E3 JUMP JUMPDEST PUSH1 0x40 MLOAD DUP1 SWAP2 SUB SWAP1 RETURN JUMPDEST CALLVALUE DUP1 ISZERO PUSH2 0x645 JUMPI PUSH1 0x0 DUP1 REVERT JUMPDEST POP PUSH2 0x660 PUSH1 0x4 DUP1 CALLDATASIZE SUB DUP2 ADD SWAP1 PUSH2 0x65B SWAP2 SWAP1 PUSH2 0x38F5 JUMP JUMPDEST PUSH2 0x1455 JUMP JUMPDEST STOP JUMPDEST CALLVALUE DUP1 ISZERO PUSH2 0x66E JUMPI PUSH1 0x0 DUP1 REVERT JUMPDEST POP PUSH2 0x689 PUSH1 0x4 DUP1 CALLDATASIZE SUB DUP2 ADD SWAP1 PUSH2 0x684 SWAP2 SWAP1 PUSH2 0x39F3 JUMP JUMPDEST PUSH2 0x14FD JUMP JUMPDEST STOP JUMPDEST CALLVALUE DUP1 ISZERO PUSH2 0x697 JUMPI PUSH1 0x0 DUP1 REVERT JUMPDEST POP PUSH2 0x6A0 PUSH2 0x15D1 JUMP JUMPDEST PUSH1 0x40 MLOAD PUSH2 0x6AD SWAP2 SWAP1 PUSH2 0x37E3 JUMP JUMPDEST PUSH1 0x40 MLOAD DUP1 SWAP2 SUB SWAP1 RETURN JUMPDEST CALLVALUE DUP1 ISZERO PUSH2 0x6C2 JUMPI PUSH1 0x0 DUP1 REVERT JUMPDEST POP PUSH2 0x6CB PUSH2 0x15D7 JUMP JUMPDEST PUSH1 0x40 MLOAD PUSH2 0x6D8 SWAP2 SWAP1 PUSH2 0x37E3 JUMP JUMPDEST PUSH1 0x40 MLOAD DUP1 SWAP2 SUB SWAP1 RETURN JUMPDEST CALLVALUE DUP1 ISZERO PUSH2 0x6ED JUMPI PUSH1 0x0 DUP1 REVERT JUMPDEST POP PUSH2 0x6F6 PUSH2 0x15DD JUMP JUMPDEST PUSH1 0x40 MLOAD PUSH2 0x703 SWAP2 SWAP1 PUSH2 0x3A2F JUMP JUMPDEST PUSH1 0x40 MLOAD DUP1 SWAP2 SUB SWAP1 RETURN JUMPDEST CALLVALUE DUP1 ISZERO PUSH2 0x718 JUMPI PUSH1 0x0 DUP1 REVERT JUMPDEST POP PUSH2 0x721 PUSH2 0x15F0 JUMP JUMPDEST PUSH1 0x40 MLOAD PUSH2 0x72E SWAP2 SWAP1 PUSH2 0x37E3 JUMP JUMPDEST PUSH1 0x40 MLOAD DUP1 SWAP2 SUB SWAP1 RETURN JUMPDEST CALLVALUE DUP1 ISZERO PUSH2 0x743 JUMPI PUSH1 0x0 DUP1 REVERT JUMPDEST POP PUSH2 0x74C PUSH2 0x15F6 JUMP JUMPDEST PUSH1 0x40 MLOAD PUSH2 0x759 SWAP2 SWAP1 PUSH2 0x37E3 JUMP JUMPDEST PUSH1 0x40 MLOAD DUP1 SWAP2 SUB SWAP1 RETURN JUMPDEST CALLVALUE DUP1 ISZERO PUSH2 0x76E JUMPI PUSH1 0x0 DUP1 REVERT JUMPDEST POP PUSH2 0x789 PUSH1 0x4 DUP1 CALLDATASIZE SUB DUP2 ADD SWAP1 PUSH2 0x784 SWAP2 SWAP1 PUSH2 0x38F5 JUMP JUMPDEST PUSH2 0x165A JUMP JUMPDEST STOP JUMPDEST CALLVALUE DUP1 ISZERO PUSH2 0x797 JUMPI PUSH1 0x0 DUP1 REVERT JUMPDEST POP PUSH2 0x7B2 PUSH1 0x4 DUP1 CALLDATASIZE SUB DUP2 ADD SWAP1 PUSH2 0x7AD SWAP2 SWAP1 PUSH2 0x38F5 JUMP JUMPDEST PUSH2 0x1719 JUMP JUMPDEST STOP JUMPDEST CALLVALUE DUP1 ISZERO PUSH2 0x7C0 JUMPI PUSH1 0x0 DUP1 REVERT JUMPDEST POP PUSH2 0x7C9 PUSH2 0x17C6 JUMP JUMPDEST PUSH1 0x40 MLOAD PUSH2 0x7D6 SWAP2 SWAP1 PUSH2 0x37E3 JUMP JUMPDEST PUSH1 0x40 MLOAD DUP1 SWAP2 SUB SWAP1 RETURN JUMPDEST CALLVALUE DUP1 ISZERO PUSH2 0x7EB JUMPI PUSH1 0x0 DUP1 REVERT JUMPDEST POP PUSH2 0x7F4 PUSH2 0x17CC JUMP JUMPDEST PUSH1 0x40 MLOAD PUSH2 0x804 SWAP5 SWAP4 SWAP3 SWAP2 SWAP1 PUSH2 0x3A4A JUMP JUMPDEST PUSH1 0x40 MLOAD DUP1 SWAP2 SUB SWAP1 RETURN JUMPDEST CALLVALUE DUP1 ISZERO PUSH2 0x819 JUMPI PUSH1 0x0 DUP1 REVERT JUMPDEST POP PUSH2 0x834 PUSH1 0x4 DUP1 CALLDATASIZE SUB DUP2 ADD SWAP1 PUSH2 0x82F SWAP2 SWAP1 PUSH2 0x3A8F JUMP JUMPDEST PUSH2 0x17EC JUMP JUMPDEST PUSH1 0x40 MLOAD PUSH2 0x841 SWAP2 SWAP1 PUSH2 0x37E3 JUMP JUMPDEST PUSH1 0x40 MLOAD DUP1 SWAP2 SUB SWAP1 RETURN JUMPDEST PUSH2 0x864 PUSH1 0x4 DUP1 CALLDATASIZE SUB DUP2 ADD SWAP1 PUSH2 0x85F SWAP2 SWAP1 PUSH2 0x39F3 JUMP JUMPDEST PUSH2 0x18D3 JUMP JUMPDEST STOP JUMPDEST CALLVALUE DUP1 ISZERO PUSH2 0x872 JUMPI PUSH1 0x0 DUP1 REVERT JUMPDEST POP PUSH2 0x88D PUSH1 0x4 DUP1 CALLDATASIZE SUB DUP2 ADD SWAP1 PUSH2 0x888 SWAP2 SWAP1 PUSH2 0x38F5 JUMP JUMPDEST PUSH2 0x1D17 JUMP JUMPDEST STOP JUMPDEST CALLVALUE DUP1 ISZERO PUSH2 0x89B JUMPI PUSH1 0x0 DUP1 REVERT JUMPDEST POP PUSH2 0x8A4 PUSH2 0x1DCC JUMP JUMPDEST STOP JUMPDEST CALLVALUE DUP1 ISZERO PUSH2 0x8B2 JUMPI PUSH1 0x0 DUP1 REVERT JUMPDEST POP PUSH2 0x8BB PUSH2 0x208A JUMP JUMPDEST PUSH1 0x40 MLOAD PUSH2 0x8C8 SWAP2 SWAP1 PUSH2 0x37E3 JUMP JUMPDEST PUSH1 0x40 MLOAD DUP1 SWAP2 SUB SWAP1 RETURN JUMPDEST CALLVALUE DUP1 ISZERO PUSH2 0x8DD JUMPI PUSH1 0x0 DUP1 REVERT JUMPDEST POP PUSH2 0x8F8 PUSH1 0x4 DUP1 CALLDATASIZE SUB DUP2 ADD SWAP1 PUSH2 0x8F3 SWAP2 SWAP1 PUSH2 0x39F3 JUMP JUMPDEST PUSH2 0x2090 JUMP JUMPDEST PUSH1 0x40 MLOAD PUSH2 0x910 SWAP13 SWAP12 SWAP11 SWAP10 SWAP9 SWAP8 SWAP7 SWAP6 SWAP5 SWAP4 SWAP3 SWAP2 SWAP1 PUSH2 0x3ADE JUMP JUMPDEST PUSH1 0x40 MLOAD DUP1 SWAP2 SUB SWAP1 RETURN JUMPDEST CALLVALUE DUP1 ISZERO PUSH2 0x925 JUMPI PUSH1 0x0 DUP1 REVERT JUMPDEST POP PUSH2 0x940 PUSH1 0x4 DUP1 CALLDATASIZE SUB DUP2 ADD SWAP1 PUSH2 0x93B SWAP2 SWAP1 PUSH2 0x39F3 JUMP JUMPDEST PUSH2 0x240D JUMP JUMPDEST PUSH1 0x40 MLOAD PUSH2 0x94D SWAP2 SWAP1 PUSH2 0x37E3 JUMP JUMPDEST PUSH1 0x40 MLOAD DUP1 SWAP2 SUB SWAP1 RETURN JUMPDEST CALLVALUE DUP1 ISZERO PUSH2 0x962 JUMPI PUSH1 0x0 DUP1 REVERT JUMPDEST POP PUSH2 0x96B PUSH2 0x2480 JUMP JUMPDEST PUSH1 0x40 MLOAD PUSH2 0x978 SWAP2 SWAP1 PUSH2 0x37E3 JUMP JUMPDEST PUSH1 0x40 MLOAD DUP1 SWAP2 SUB SWAP1 RETURN JUMPDEST CALLVALUE DUP1 ISZERO PUSH2 0x98D JUMPI PUSH1 0x0 DUP1 REVERT JUMPDEST POP PUSH2 0x996 PUSH2 0x2486 JUMP JUMPDEST PUSH1 0x40 MLOAD PUSH2 0x9A3 SWAP2 SWAP1 PUSH2 0x37E3 JUMP JUMPDEST PUSH1 0x40 MLOAD DUP1 SWAP2 SUB SWAP1 RETURN JUMPDEST CALLVALUE DUP1 ISZERO PUSH2 0x9B8 JUMPI PUSH1 0x0 DUP1 REVERT JUMPDEST POP PUSH2 0x9D3 PUSH1 0x4 DUP1 CALLDATASIZE SUB DUP2 ADD SWAP1 PUSH2 0x9CE SWAP2 SWAP1 PUSH2 0x38F5 JUMP JUMPDEST PUSH2 0x248C JUMP JUMPDEST STOP JUMPDEST CALLVALUE DUP1 ISZERO PUSH2 0x9E1 JUMPI PUSH1 0x0 DUP1 REVERT JUMPDEST POP PUSH2 0x9EA PUSH2 0x2542 JUMP JUMPDEST PUSH1 0x40 MLOAD PUSH2 0x9F7 SWAP2 SWAP1 PUSH2 0x37E3 JUMP JUMPDEST PUSH1 0x40 MLOAD DUP1 SWAP2 SUB SWAP1 RETURN JUMPDEST CALLVALUE DUP1 ISZERO PUSH2 0xA0C JUMPI PUSH1 0x0 DUP1 REVERT JUMPDEST POP PUSH2 0xA27 PUSH1 0x4 DUP1 CALLDATASIZE SUB DUP2 ADD SWAP1 PUSH2 0xA22 SWAP2 SWAP1 PUSH2 0x38F5 JUMP JUMPDEST PUSH2 0x2548 JUMP JUMPDEST STOP JUMPDEST CALLVALUE DUP1 ISZERO PUSH2 0xA35 JUMPI PUSH1 0x0 DUP1 REVERT JUMPDEST POP PUSH2 0xA50 PUSH1 0x4 DUP1 CALLDATASIZE SUB DUP2 ADD SWAP1 PUSH2 0xA4B SWAP2 SWAP1 PUSH2 0x38F5 JUMP JUMPDEST PUSH2 0x25F0 JUMP JUMPDEST STOP JUMPDEST CALLVALUE DUP1 ISZERO PUSH2 0xA5E JUMPI PUSH1 0x0 DUP1 REVERT JUMPDEST POP PUSH2 0xA67 PUSH2 0x26A1 JUMP JUMPDEST PUSH1 0x40 MLOAD PUSH2 0xA74 SWAP2 SWAP1 PUSH2 0x383F JUMP JUMPDEST PUSH1 0x40 MLOAD DUP1 SWAP2 SUB SWAP1 RETURN JUMPDEST CALLVALUE DUP1 ISZERO PUSH2 0xA89 JUMPI PUSH1 0x0 DUP1 REVERT JUMPDEST POP PUSH2 0xA92 PUSH2 0x26C7 JUMP JUMPDEST PUSH1 0x40 MLOAD PUSH2 0xA9F SWAP2 SWAP1 PUSH2 0x37E3 JUMP JUMPDEST PUSH1 0x40 MLOAD DUP1 SWAP2 SUB SWAP1 RETURN JUMPDEST CALLVALUE DUP1 ISZERO PUSH2 0xAB4 JUMPI PUSH1 0x0 DUP1 REVERT JUMPDEST POP PUSH2 0xABD PUSH2 0x26CD JUMP JUMPDEST PUSH1 0x40 MLOAD PUSH2 0xACA SWAP2 SWAP1 PUSH2 0x37E3 JUMP JUMPDEST PUSH1 0x40 MLOAD DUP1 SWAP2 SUB SWAP1 RETURN JUMPDEST CALLVALUE DUP1 ISZERO PUSH2 0xADF JUMPI PUSH1 0x0 DUP1 REVERT JUMPDEST POP PUSH2 0xAFA PUSH1 0x4 DUP1 CALLDATASIZE SUB DUP2 ADD SWAP1 PUSH2 0xAF5 SWAP2 SWAP1 PUSH2 0x38F5 JUMP JUMPDEST PUSH2 0x26D3 JUMP JUMPDEST PUSH1 0x40 MLOAD PUSH2 0xB07 SWAP2 SWAP1 PUSH2 0x37E3 JUMP JUMPDEST PUSH1 0x40 MLOAD DUP1 SWAP2 SUB SWAP1 RETURN JUMPDEST CALLVALUE DUP1 ISZERO PUSH2 0xB1C JUMPI PUSH1 0x0 DUP1 REVERT JUMPDEST POP PUSH2 0xB37 PUSH1 0x4 DUP1 CALLDATASIZE SUB DUP2 ADD SWAP1 PUSH2 0xB32 SWAP2 SWAP1 PUSH2 0x38F5 JUMP JUMPDEST PUSH2 0x26ED JUMP JUMPDEST STOP JUMPDEST CALLVALUE DUP1 ISZERO PUSH2 0xB45 JUMPI PUSH1 0x0 DUP1 REVERT JUMPDEST POP PUSH2 0xB4E PUSH2 0x27A8 JUMP JUMPDEST PUSH1 0x40 MLOAD PUSH2 0xB5B SWAP2 SWAP1 PUSH2 0x383F JUMP JUMPDEST PUSH1 0x40 MLOAD DUP1 SWAP2 SUB SWAP1 RETURN JUMPDEST CALLVALUE DUP1 ISZERO PUSH2 0xB70 JUMPI PUSH1 0x0 DUP1 REVERT JUMPDEST POP PUSH2 0xB79 PUSH2 0x27CE JUMP JUMPDEST PUSH1 0x40 MLOAD PUSH2 0xB86 SWAP2 SWAP1 PUSH2 0x37E3 JUMP JUMPDEST PUSH1 0x40 MLOAD DUP1 SWAP2 SUB SWAP1 RETURN JUMPDEST CALLVALUE DUP1 ISZERO PUSH2 0xB9B JUMPI PUSH1 0x0 DUP1 REVERT JUMPDEST POP PUSH2 0xBA4 PUSH2 0x27D4 JUMP JUMPDEST PUSH1 0x40 MLOAD PUSH2 0xBB1 SWAP2 SWAP1 PUSH2 0x383F JUMP JUMPDEST PUSH1 0x40 MLOAD DUP1 SWAP2 SUB SWAP1 RETURN JUMPDEST CALLVALUE DUP1 ISZERO PUSH2 0xBC6 JUMPI PUSH1 0x0 DUP1 REVERT JUMPDEST POP PUSH2 0xBCF PUSH2 0x27FA JUMP JUMPDEST PUSH1 0x40 MLOAD PUSH2 0xBDC SWAP2 SWAP1 PUSH2 0x3B98 JUMP JUMPDEST PUSH1 0x40 MLOAD DUP1 SWAP2 SUB SWAP1 RETURN JUMPDEST CALLVALUE DUP1 ISZERO PUSH2 0xBF1 JUMPI PUSH1 0x0 DUP1 REVERT JUMPDEST POP PUSH2 0xC0C PUSH1 0x4 DUP1 CALLDATASIZE SUB DUP2 ADD SWAP1 PUSH2 0xC07 SWAP2 SWAP1 PUSH2 0x38F5 JUMP JUMPDEST PUSH2 0x2820 JUMP JUMPDEST PUSH1 0x40 MLOAD PUSH2 0xC19 SWAP2 SWAP1 PUSH2 0x37E3 JUMP JUMPDEST PUSH1 0x40 MLOAD DUP1 SWAP2 SUB SWAP1 RETURN JUMPDEST CALLVALUE DUP1 ISZERO PUSH2 0xC2E JUMPI PUSH1 0x0 DUP1 REVERT JUMPDEST POP PUSH2 0xC37 PUSH2 0x283D JUMP JUMPDEST PUSH1 0x40 MLOAD PUSH2 0xC44 SWAP2 SWAP1 PUSH2 0x37E3 JUMP JUMPDEST PUSH1 0x40 MLOAD DUP1 SWAP2 SUB SWAP1 RETURN JUMPDEST CALLVALUE DUP1 ISZERO PUSH2 0xC59 JUMPI PUSH1 0x0 DUP1 REVERT JUMPDEST POP PUSH2 0xC74 PUSH1 0x4 DUP1 CALLDATASIZE SUB DUP2 ADD SWAP1 PUSH2 0xC6F SWAP2 SWAP1 PUSH2 0x38F5 JUMP JUMPDEST PUSH2 0x2843 JUMP JUMPDEST STOP JUMPDEST CALLVALUE DUP1 ISZERO PUSH2 0xC82 JUMPI PUSH1 0x0 DUP1 REVERT JUMPDEST POP PUSH2 0xC9D PUSH1 0x4 DUP1 CALLDATASIZE SUB DUP2 ADD SWAP1 PUSH2 0xC98 SWAP2 SWAP1 PUSH2 0x38F5 JUMP JUMPDEST PUSH2 0x2902 JUMP JUMPDEST STOP JUMPDEST CALLVALUE DUP1 ISZERO PUSH2 0xCAB JUMPI PUSH1 0x0 DUP1 REVERT JUMPDEST POP PUSH2 0xCC6 PUSH1 0x4 DUP1 CALLDATASIZE SUB DUP2 ADD SWAP1 PUSH2 0xCC1 SWAP2 SWAP1 PUSH2 0x389C JUMP JUMPDEST PUSH2 0x29AA JUMP JUMPDEST STOP JUMPDEST CALLVALUE DUP1 ISZERO PUSH2 0xCD4 JUMPI PUSH1 0x0 DUP1 REVERT JUMPDEST POP PUSH2 0xCDD PUSH2 0x2A57 JUMP JUMPDEST PUSH1 0x40 MLOAD PUSH2 0xCEA SWAP2 SWAP1 PUSH2 0x383F JUMP JUMPDEST PUSH1 0x40 MLOAD DUP1 SWAP2 SUB SWAP1 RETURN JUMPDEST CALLVALUE DUP1 ISZERO PUSH2 0xCFF JUMPI PUSH1 0x0 DUP1 REVERT JUMPDEST POP PUSH2 0xD1A PUSH1 0x4 DUP1 CALLDATASIZE SUB DUP2 ADD SWAP1 PUSH2 0xD15 SWAP2 SWAP1 PUSH2 0x39F3 JUMP JUMPDEST PUSH2 0x2A7D JUMP JUMPDEST PUSH1 0x40 MLOAD PUSH2 0xD32 SWAP13 SWAP12 SWAP11 SWAP10 SWAP9 SWAP8 SWAP7 SWAP6 SWAP5 SWAP4 SWAP3 SWAP2 SWAP1 PUSH2 0x3ADE JUMP JUMPDEST PUSH1 0x40 MLOAD DUP1 SWAP2 SUB SWAP1 RETURN JUMPDEST CALLVALUE DUP1 ISZERO PUSH2 0xD47 JUMPI PUSH1 0x0 DUP1 REVERT JUMPDEST POP PUSH2 0xD50 PUSH2 0x2AFC JUMP JUMPDEST PUSH1 0x40 MLOAD PUSH2 0xD5D SWAP2 SWAP1 PUSH2 0x3A2F JUMP JUMPDEST PUSH1 0x40 MLOAD DUP1 SWAP2 SUB SWAP1 RETURN JUMPDEST PUSH2 0xD6E PUSH2 0x2B0F JUMP JUMPDEST STOP JUMPDEST CALLVALUE DUP1 ISZERO PUSH2 0xD7C JUMPI PUSH1 0x0 DUP1 REVERT JUMPDEST POP PUSH2 0xD97 PUSH1 0x4 DUP1 CALLDATASIZE SUB DUP2 ADD SWAP1 PUSH2 0xD92 SWAP2 SWAP1 PUSH2 0x38F5 JUMP JUMPDEST PUSH2 0x2B11 JUMP JUMPDEST PUSH1 0x40 MLOAD PUSH2 0xDA5 SWAP3 SWAP2 SWAP1 PUSH2 0x3BB3 JUMP JUMPDEST PUSH1 0x40 MLOAD DUP1 SWAP2 SUB SWAP1 RETURN JUMPDEST CALLVALUE DUP1 ISZERO PUSH2 0xDBA JUMPI PUSH1 0x0 DUP1 REVERT JUMPDEST POP PUSH2 0xDD5 PUSH1 0x4 DUP1 CALLDATASIZE SUB DUP2 ADD SWAP1 PUSH2 0xDD0 SWAP2 SWAP1 PUSH2 0x38F5 JUMP JUMPDEST PUSH2 0x2BA3 JUMP JUMPDEST STOP JUMPDEST CALLVALUE DUP1 ISZERO PUSH2 0xDE3 JUMPI PUSH1 0x0 DUP1 REVERT JUMPDEST POP PUSH2 0xDFE PUSH1 0x4 DUP1 CALLDATASIZE SUB DUP2 ADD SWAP1 PUSH2 0xDF9 SWAP2 SWAP1 PUSH2 0x39F3 JUMP JUMPDEST PUSH2 0x2C4C JUMP JUMPDEST PUSH1 0x40 MLOAD PUSH2 0xE0B SWAP2 SWAP1 PUSH2 0x3A2F JUMP JUMPDEST PUSH1 0x40 MLOAD DUP1 SWAP2 SUB SWAP1 RETURN JUMPDEST CALLVALUE DUP1 ISZERO PUSH2 0xE20 JUMPI PUSH1 0x0 DUP1 REVERT JUMPDEST POP PUSH2 0xE29 PUSH2 0x2D32 JUMP JUMPDEST PUSH1 0x40 MLOAD PUSH2 0xE36 SWAP2 SWAP1 PUSH2 0x37E3 JUMP JUMPDEST PUSH1 0x40 MLOAD DUP1 SWAP2 SUB SWAP1 RETURN JUMPDEST CALLVALUE DUP1 ISZERO PUSH2 0xE4B JUMPI PUSH1 0x0 DUP1 REVERT JUMPDEST POP PUSH2 0xE54 PUSH2 0x2D38 JUMP JUMPDEST PUSH1 0x40 MLOAD PUSH2 0xE61 SWAP2 SWAP1 PUSH2 0x37E3 JUMP JUMPDEST PUSH1 0x40 MLOAD DUP1 SWAP2 SUB SWAP1 RETURN JUMPDEST CALLVALUE DUP1 ISZERO PUSH2 0xE76 JUMPI PUSH1 0x0 DUP1 REVERT JUMPDEST POP PUSH2 0xE91 PUSH1 0x4 DUP1 CALLDATASIZE SUB DUP2 ADD SWAP1 PUSH2 0xE8C SWAP2 SWAP1 PUSH2 0x3975 JUMP JUMPDEST PUSH2 0x2D3E JUMP JUMPDEST PUSH1 0x40 MLOAD PUSH2 0xE9E SWAP2 SWAP1 PUSH2 0x37E3 JUMP JUMPDEST PUSH1 0x40 MLOAD DUP1 SWAP2 SUB SWAP1 RETURN JUMPDEST CALLVALUE DUP1 ISZERO PUSH2 0xEB3 JUMPI PUSH1 0x0 DUP1 REVERT JUMPDEST POP PUSH2 0xEBC PUSH2 0x2D6E JUMP JUMPDEST PUSH1 0x40 MLOAD PUSH2 0xEC9 SWAP2 SWAP1 PUSH2 0x37E3 JUMP JUMPDEST PUSH1 0x40 MLOAD DUP1 SWAP2 SUB SWAP1 RETURN JUMPDEST CALLVALUE DUP1 ISZERO PUSH2 0xEDE JUMPI PUSH1 0x0 DUP1 REVERT JUMPDEST POP PUSH2 0xEE7 PUSH2 0x2D74 JUMP JUMPDEST PUSH1 0x40 MLOAD PUSH2 0xEF4 SWAP2 SWAP1 PUSH2 0x37E3 JUMP JUMPDEST PUSH1 0x40 MLOAD DUP1 SWAP2 SUB SWAP1 RETURN JUMPDEST CALLVALUE DUP1 ISZERO PUSH2 0xF09 JUMPI PUSH1 0x0 DUP1 REVERT JUMPDEST POP PUSH2 0xF24 PUSH1 0x4 DUP1 CALLDATASIZE SUB DUP2 ADD SWAP1 PUSH2 0xF1F SWAP2 SWAP1 PUSH2 0x39F3 JUMP JUMPDEST PUSH2 0x2D7A JUMP JUMPDEST PUSH1 0x40 MLOAD PUSH2 0xF31 SWAP2 SWAP1 PUSH2 0x37E3 JUMP JUMPDEST PUSH1 0x40 MLOAD DUP1 SWAP2 SUB SWAP1 RETURN JUMPDEST CALLVALUE DUP1 ISZERO PUSH2 0xF46 JUMPI PUSH1 0x0 DUP1 REVERT JUMPDEST POP PUSH2 0xF61 PUSH1 0x4 DUP1 CALLDATASIZE SUB DUP2 ADD SWAP1 PUSH2 0xF5C SWAP2 SWAP1 PUSH2 0x3BDC JUMP JUMPDEST PUSH2 0x2E53 JUMP JUMPDEST STOP JUMPDEST CALLVALUE DUP1 ISZERO PUSH2 0xF6F JUMPI PUSH1 0x0 DUP1 REVERT JUMPDEST POP PUSH2 0xF78 PUSH2 0x2F3E JUMP JUMPDEST PUSH1 0x40 MLOAD PUSH2 0xF85 SWAP2 SWAP1 PUSH2 0x37E3 JUMP JUMPDEST PUSH1 0x40 MLOAD DUP1 SWAP2 SUB SWAP1 RETURN JUMPDEST PUSH2 0xFA8 PUSH1 0x4 DUP1 CALLDATASIZE SUB DUP2 ADD SWAP1 PUSH2 0xFA3 SWAP2 SWAP1 PUSH2 0x39F3 JUMP JUMPDEST PUSH2 0x2F46 JUMP JUMPDEST STOP JUMPDEST CALLVALUE DUP1 ISZERO PUSH2 0xFB6 JUMPI PUSH1 0x0 DUP1 REVERT JUMPDEST POP PUSH2 0xFD1 PUSH1 0x4 DUP1 CALLDATASIZE SUB DUP2 ADD SWAP1 PUSH2 0xFCC SWAP2 SWAP1 PUSH2 0x38F5 JUMP JUMPDEST PUSH2 0x3033 JUMP JUMPDEST STOP JUMPDEST CALLVALUE DUP1 ISZERO PUSH2 0xFDF JUMPI PUSH1 0x0 DUP1 REVERT JUMPDEST POP PUSH2 0xFFA PUSH1 0x4 DUP1 CALLDATASIZE SUB DUP2 ADD SWAP1 PUSH2 0xFF5 SWAP2 SWAP1 PUSH2 0x38F5 JUMP JUMPDEST PUSH2 0x30EC JUMP JUMPDEST STOP JUMPDEST CALLVALUE DUP1 ISZERO PUSH2 0x1008 JUMPI PUSH1 0x0 DUP1 REVERT JUMPDEST POP PUSH2 0x1023 PUSH1 0x4 DUP1 CALLDATASIZE SUB DUP2 ADD SWAP1 PUSH2 0x101E SWAP2 SWAP1 PUSH2 0x3C81 JUMP JUMPDEST PUSH2 0x3194 JUMP JUMPDEST STOP JUMPDEST CALLVALUE DUP1 ISZERO PUSH2 0x1031 JUMPI PUSH1 0x0 DUP1 REVERT JUMPDEST POP PUSH2 0x103A PUSH2 0x32C9 JUMP JUMPDEST PUSH1 0x40 MLOAD PUSH2 0x1047 SWAP2 SWAP1 PUSH2 0x37E3 JUMP JUMPDEST PUSH1 0x40 MLOAD DUP1 SWAP2 SUB SWAP1 RETURN JUMPDEST CALLVALUE DUP1 ISZERO PUSH2 0x105C JUMPI PUSH1 0x0 DUP1 REVERT JUMPDEST POP PUSH2 0x1077 PUSH1 0x4 DUP1 CALLDATASIZE SUB DUP2 ADD SWAP1 PUSH2 0x1072 SWAP2 SWAP1 PUSH2 0x39F3 JUMP JUMPDEST PUSH2 0x32CF JUMP JUMPDEST PUSH1 0x40 MLOAD PUSH2 0x1084 SWAP2 SWAP1 PUSH2 0x3A2F JUMP JUMPDEST PUSH1 0x40 MLOAD DUP1 SWAP2 SUB SWAP1 RETURN JUMPDEST PUSH1 0x2 SLOAD DUP2 JUMP JUMPDEST PUSH1 0xB SLOAD DUP2 JUMP JUMPDEST PUSH1 0x1D PUSH1 0x0 SWAP1 SLOAD SWAP1 PUSH2 0x100 EXP SWAP1 DIV PUSH20 0xFFFFFFFFFFFFFFFFFFFFFFFFFFFFFFFFFFFFFFFF AND DUP2 JUMP JUMPDEST PUSH1 0x0 PUSH1 0x20 PUSH1 0x0 CALLER PUSH20 0xFFFFFFFFFFFFFFFFFFFFFFFFFFFFFFFFFFFFFFFF AND PUSH20 0xFFFFFFFFFFFFFFFFFFFFFFFFFFFFFFFFFFFFFFFF AND DUP2 MSTORE PUSH1 0x20 ADD SWAP1 DUP2 MSTORE PUSH1 0x20 ADD PUSH1 0x0 KECCAK256 PUSH1 0x2 ADD SLOAD SWAP1 POP SWAP1 JUMP JUMPDEST PUSH1 0x0 SELFBALANCE SWAP1 POP SWAP1 JUMP JUMPDEST PUSH1 0x7 SLOAD DUP2 JUMP JUMPDEST PUSH1 0x0 PUSH1 0x20 PUSH1 0x0 CALLER PUSH20 0xFFFFFFFFFFFFFFFFFFFFFFFFFFFFFFFFFFFFFFFF AND PUSH20 0xFFFFFFFFFFFFFFFFFFFFFFFFFFFFFFFFFFFFFFFF AND DUP2 MSTORE PUSH1 0x20 ADD SWAP1 DUP2 MSTORE PUSH1 0x20 ADD PUSH1 0x0 KECCAK256 SWAP1 POP PUSH1 0x15 PUSH1 0x0 SWAP1 SLOAD SWAP1 PUSH2 0x100 EXP SWAP1 DIV PUSH1 0xFF AND PUSH2 0x11A9 JUMPI PUSH1 0x40 MLOAD PUSH32 0x8C379A000000000000000000000000000000000000000000000000000000000 DUP2 MSTORE PUSH1 0x4 ADD PUSH2 0x11A0 SWAP1 PUSH2 0x3D3E JUMP JUMPDEST PUSH1 0x40 MLOAD DUP1 SWAP2 SUB SWAP1 REVERT JUMPDEST PUSH1 0x0 PUSH2 0x11B3 PUSH2 0x15F6 JUMP JUMPDEST SWAP1 POP PUSH1 0x0 DUP2 SWAP1 POP DUP4 ISZERO PUSH2 0x122D JUMPI PUSH1 0x0 PUSH2 0x11CC CALLER DUP4 PUSH2 0x17EC JUMP JUMPDEST SWAP1 POP PUSH2 0x11E1 DUP2 DUP4 PUSH2 0x32EF SWAP1 SWAP2 SWAP1 PUSH4 0xFFFFFFFF AND JUMP JUMPDEST SWAP2 POP PUSH1 0x0 PUSH2 0x11EE DUP4 PUSH2 0x2820 JUMP JUMPDEST SWAP1 POP PUSH2 0x1207 DUP2 DUP7 PUSH1 0x1 ADD SLOAD PUSH2 0x32EF SWAP1 SWAP2 SWAP1 PUSH4 0xFFFFFFFF AND JUMP JUMPDEST DUP6 PUSH1 0x1 ADD DUP2 SWAP1 SSTORE POP PUSH2 0x1224 DUP2 PUSH1 0xF SLOAD PUSH2 0x32EF SWAP1 SWAP2 SWAP1 PUSH4 0xFFFFFFFF AND JUMP JUMPDEST PUSH1 0xF DUP2 SWAP1 SSTORE POP POP POP JUMPDEST PUSH1 0xA SLOAD PUSH2 0x1247 DUP5 PUSH1 0x4 ADD SLOAD TIMESTAMP PUSH2 0x331B SWAP1 SWAP2 SWAP1 PUSH4 0xFFFFFFFF AND JUMP JUMPDEST LT PUSH2 0x129C JUMPI PUSH1 0x9 SLOAD DUP4 PUSH1 0x9 ADD SLOAD LT ISZERO PUSH2 0x127B JUMPI PUSH2 0x1272 PUSH1 0x1 DUP5 PUSH1 0x9 ADD SLOAD PUSH2 0x32EF SWAP1 SWAP2 SWAP1 PUSH4 0xFFFFFFFF AND JUMP JUMPDEST DUP4 PUSH1 0x9 ADD DUP2 SWAP1 SSTORE POP JUMPDEST PUSH2 0x1293 PUSH1 0x1 DUP5 PUSH1 0xA ADD SLOAD PUSH2 0x32EF SWAP1 SWAP2 SWAP1 PUSH4 0xFFFFFFFF AND JUMP JUMPDEST DUP4 PUSH1 0xA ADD DUP2 SWAP1 SSTORE POP JUMPDEST PUSH2 0x12C7 PUSH2 0x12B4 PUSH1 0x0 SLOAD DUP4 PUSH2 0x3342 SWAP1 SWAP2 SWAP1 PUSH4 0xFFFFFFFF AND JUMP JUMPDEST DUP5 PUSH1 0x2 ADD SLOAD PUSH2 0x32EF SWAP1 SWAP2 SWAP1 PUSH4 0xFFFFFFFF AND JUMP JUMPDEST DUP4 PUSH1 0x2 ADD DUP2 SWAP1 SSTORE POP PUSH1 0x0 DUP4 PUSH1 0x3 ADD DUP2 SWAP1 SSTORE POP TIMESTAMP DUP4 PUSH1 0x4 ADD DUP2 SWAP1 SSTORE POP PUSH2 0x130B PUSH2 0x12FA PUSH1 0x5 SLOAD DUP5 PUSH2 0x3342 SWAP1 SWAP2 SWAP1 PUSH4 0xFFFFFFFF AND JUMP JUMPDEST PUSH1 0x12 SLOAD PUSH2 0x32EF SWAP1 SWAP2 SWAP1 PUSH4 0xFFFFFFFF AND JUMP JUMPDEST PUSH1 0x12 DUP2 SWAP1 SSTORE POP POP POP POP POP JUMP JUMPDEST PUSH1 0x0 SLOAD DUP2 JUMP JUMPDEST PUSH1 0x19 PUSH1 0x0 SWAP1 SLOAD SWAP1 PUSH2 0x100 EXP SWAP1 DIV PUSH20 0xFFFFFFFFFFFFFFFFFFFFFFFFFFFFFFFFFFFFFFFF AND PUSH20 0xFFFFFFFFFFFFFFFFFFFFFFFFFFFFFFFFFFFFFFFF AND CALLER PUSH20 0xFFFFFFFFFFFFFFFFFFFFFFFFFFFFFFFFFFFFFFFF AND EQ PUSH2 0x13AD JUMPI PUSH1 0x40 MLOAD PUSH32 0x8C379A000000000000000000000000000000000000000000000000000000000 DUP2 MSTORE PUSH1 0x4 ADD PUSH2 0x13A4 SWAP1 PUSH2 0x3DAA JUMP JUMPDEST PUSH1 0x40 MLOAD DUP1 SWAP2 SUB SWAP1 REVERT JUMPDEST PUSH1 0x14 DUP2 GT ISZERO PUSH2 0x13BB JUMPI PUSH1 0x0 DUP1 REVERT JUMPDEST DUP1 PUSH1 0x4 DUP2 SWAP1 SSTORE POP POP JUMP JUMPDEST PUSH1 0x0 PUSH2 0x140F PUSH2 0x13D6 PUSH1 0x13 SLOAD DUP5 PUSH2 0x335D JUMP JUMPDEST PUSH2 0x140A PUSH1 0x14 SLOAD PUSH2 0x1405 PUSH2 0x13FF PUSH2 0x13EE PUSH1 0x13 SLOAD DUP11 PUSH2 0x335D JUMP JUMPDEST PUSH2 0x13FA PUSH1 0x14 SLOAD DUP13 PUSH2 0x335D JUMP JUMPDEST PUSH2 0x32EF JUMP JUMPDEST DUP10 PUSH2 0x3342 JUMP JUMPDEST PUSH2 0x32EF JUMP JUMPDEST PUSH2 0x3342 JUMP JUMPDEST SWAP1 POP SWAP4 SWAP3 POP POP POP JUMP JUMPDEST PUSH1 0x1C PUSH1 0x0 SWAP1 SLOAD SWAP1 PUSH2 0x100 EXP SWAP1 DIV PUSH20 0xFFFFFFFFFFFFFFFFFFFFFFFFFFFFFFFFFFFFFFFF AND DUP2 JUMP JUMPDEST PUSH1 0x0 PUSH2 0x144D DUP4 DUP4 PUSH1 0x12 SLOAD PUSH2 0x13C5 JUMP JUMPDEST SWAP1 POP SWAP3 SWAP2 POP POP JUMP JUMPDEST PUSH1 0x19 PUSH1 0x0 SWAP1 SLOAD SWAP1 PUSH2 0x100 EXP SWAP1 DIV PUSH20 0xFFFFFFFFFFFFFFFFFFFFFFFFFFFFFFFFFFFFFFFF AND PUSH20 0xFFFFFFFFFFFFFFFFFFFFFFFFFFFFFFFFFFFFFFFF AND CALLER PUSH20 0xFFFFFFFFFFFFFFFFFFFFFFFFFFFFFFFFFFFFFFFF AND EQ PUSH2 0x14E5 JUMPI PUSH1 0x40 MLOAD PUSH32 0x8C379A000000000000000000000000000000000000000000000000000000000 DUP2 MSTORE PUSH1 0x4 ADD PUSH2 0x14DC SWAP1 PUSH2 0x3DAA JUMP JUMPDEST PUSH1 0x40 MLOAD DUP1 SWAP2 SUB SWAP1 REVERT JUMPDEST PUSH1 0xF DUP2 GT ISZERO PUSH2 0x14F3 JUMPI PUSH1 0x0 DUP1 REVERT JUMPDEST DUP1 PUSH1 0x3 DUP2 SWAP1 SSTORE POP POP JUMP JUMPDEST PUSH1 0x19 PUSH1 0x0 SWAP1 SLOAD SWAP1 PUSH2 0x100 EXP SWAP1 DIV PUSH20 0xFFFFFFFFFFFFFFFFFFFFFFFFFFFFFFFFFFFFFFFF AND PUSH20 0xFFFFFFFFFFFFFFFFFFFFFFFFFFFFFFFFFFFFFFFF AND CALLER PUSH20 0xFFFFFFFFFFFFFFFFFFFFFFFFFFFFFFFFFFFFFFFF AND EQ PUSH2 0x158D JUMPI PUSH1 0x40 MLOAD PUSH32 0x8C379A000000000000000000000000000000000000000000000000000000000 DUP2 MSTORE PUSH1 0x4 ADD PUSH2 0x1584 SWAP1 PUSH2 0x3DAA JUMP JUMPDEST PUSH1 0x40 MLOAD DUP1 SWAP2 SUB SWAP1 REVERT JUMPDEST DUP1 PUSH1 0x19 PUSH1 0x0 PUSH2 0x100 EXP DUP2 SLOAD DUP2 PUSH20 0xFFFFFFFFFFFFFFFFFFFFFFFFFFFFFFFFFFFFFFFF MUL NOT AND SWAP1 DUP4 PUSH20 0xFFFFFFFFFFFFFFFFFFFFFFFFFFFFFFFFFFFFFFFF AND MUL OR SWAP1 SSTORE POP POP JUMP JUMPDEST PUSH1 0x4 SLOAD DUP2 JUMP JUMPDEST PUSH1 0x12 SLOAD DUP2 JUMP JUMPDEST PUSH1 0x15 PUSH1 0x0 SWAP1 SLOAD SWAP1 PUSH2 0x100 EXP SWAP1 DIV PUSH1 0xFF AND DUP2 JUMP JUMPDEST PUSH1 0x17 SLOAD DUP2 JUMP JUMPDEST PUSH1 0x0 PUSH2 0x1655 PUSH2 0x1604 CALLER PUSH2 0x2D7A JUMP JUMPDEST PUSH1 0x20 PUSH1 0x0 CALLER PUSH20 0xFFFFFFFFFFFFFFFFFFFFFFFFFFFFFFFFFFFFFFFF AND PUSH20 0xFFFFFFFFFFFFFFFFFFFFFFFFFFFFFFFFFFFFFFFF AND DUP2 MSTORE PUSH1 0x20 ADD SWAP1 DUP2 MSTORE PUSH1 0x20 ADD PUSH1 0x0 KECCAK256 PUSH1 0x3 ADD SLOAD PUSH2 0x32EF SWAP1 SWAP2 SWAP1 PUSH4 0xFFFFFFFF AND JUMP JUMPDEST SWAP1 POP SWAP1 JUMP JUMPDEST PUSH1 0x19 PUSH1 0x0 SWAP1 SLOAD SWAP1 PUSH2 0x100 EXP SWAP1 DIV PUSH20 0xFFFFFFFFFFFFFFFFFFFFFFFFFFFFFFFFFFFFFFFF AND PUSH20 0xFFFFFFFFFFFFFFFFFFFFFFFFFFFFFFFFFFFFFFFF AND CALLER PUSH20 0xFFFFFFFFFFFFFFFFFFFFFFFFFFFFFFFFFFFFFFFF AND EQ PUSH2 0x16EA JUMPI PUSH1 0x40 MLOAD PUSH32 0x8C379A000000000000000000000000000000000000000000000000000000000 DUP2 MSTORE PUSH1 0x4 ADD PUSH2 0x16E1 SWAP1 PUSH2 0x3E16 JUMP JUMPDEST PUSH1 0x40 MLOAD DUP1 SWAP2 SUB SWAP1 REVERT JUMPDEST PUSH1 0x18 DUP2 GT ISZERO PUSH2 0x16F8 JUMPI PUSH1 0x0 DUP1 REVERT JUMPDEST PUSH1 0x3C DUP1 DUP3 PUSH2 0x1706 SWAP2 SWAP1 PUSH2 0x3E65 JUMP JUMPDEST PUSH2 0x1710 SWAP2 SWAP1 PUSH2 0x3E65 JUMP JUMPDEST PUSH1 0x18 DUP2 SWAP1 SSTORE POP POP JUMP JUMPDEST PUSH1 0x19 PUSH1 0x0 SWAP1 SLOAD SWAP1 PUSH2 0x100 EXP SWAP1 DIV PUSH20 0xFFFFFFFFFFFFFFFFFFFFFFFFFFFFFFFFFFFFFFFF AND PUSH20 0xFFFFFFFFFFFFFFFFFFFFFFFFFFFFFFFFFFFFFFFF AND CALLER PUSH20 0xFFFFFFFFFFFFFFFFFFFFFFFFFFFFFFFFFFFFFFFF AND EQ PUSH2 0x17A9 JUMPI PUSH1 0x40 MLOAD PUSH32 0x8C379A000000000000000000000000000000000000000000000000000000000 DUP2 MSTORE PUSH1 0x4 ADD PUSH2 0x17A0 SWAP1 PUSH2 0x3E16 JUMP JUMPDEST PUSH1 0x40 MLOAD DUP1 SWAP2 SUB SWAP1 REVERT JUMPDEST PUSH8 0x16345785D8A0000 DUP2 PUSH2 0x17BD SWAP2 SWAP1 PUSH2 0x3E65 JUMP JUMPDEST PUSH1 0x6 DUP2 SWAP1 SSTORE POP POP JUMP JUMPDEST PUSH1 0x11 SLOAD DUP2 JUMP JUMPDEST PUSH1 0x0 DUP1 PUSH1 0x0 DUP1 PUSH1 0xD SLOAD PUSH1 0xE SLOAD PUSH1 0xF SLOAD PUSH1 0x10 SLOAD SWAP4 POP SWAP4 POP SWAP4 POP SWAP4 POP SWAP1 SWAP2 SWAP3 SWAP4 JUMP JUMPDEST PUSH1 0x0 DUP1 PUSH1 0x20 PUSH1 0x0 DUP6 PUSH20 0xFFFFFFFFFFFFFFFFFFFFFFFFFFFFFFFFFFFFFFFF AND PUSH20 0xFFFFFFFFFFFFFFFFFFFFFFFFFFFFFFFFFFFFFFFF AND DUP2 MSTORE PUSH1 0x20 ADD SWAP1 DUP2 MSTORE PUSH1 0x20 ADD PUSH1 0x0 KECCAK256 PUSH1 0x9 ADD SLOAD EQ ISZERO PUSH2 0x1841 JUMPI PUSH1 0x0 SWAP1 POP PUSH2 0x18CD JUMP JUMPDEST PUSH1 0x0 PUSH2 0x189A PUSH1 0x8 SLOAD PUSH1 0x20 PUSH1 0x0 DUP8 PUSH20 0xFFFFFFFFFFFFFFFFFFFFFFFFFFFFFFFFFFFFFFFF AND PUSH20 0xFFFFFFFFFFFFFFFFFFFFFFFFFFFFFFFFFFFFFFFF AND DUP2 MSTORE PUSH1 0x20 ADD SWAP1 DUP2 MSTORE PUSH1 0x20 ADD PUSH1 0x0 KECCAK256 PUSH1 0x9 ADD SLOAD PUSH2 0x335D SWAP1 SWAP2 SWAP1 PUSH4 0xFFFFFFFF AND JUMP JUMPDEST SWAP1 POP PUSH1 0x0 PUSH2 0x18C5 PUSH1 0x2 SLOAD PUSH2 0x18B7 DUP5 DUP8 PUSH2 0x335D SWAP1 SWAP2 SWAP1 PUSH4 0xFFFFFFFF AND JUMP JUMPDEST PUSH2 0x3342 SWAP1 SWAP2 SWAP1 PUSH4 0xFFFFFFFF AND JUMP JUMPDEST SWAP1 POP DUP1 SWAP3 POP POP POP JUMPDEST SWAP3 SWAP2 POP POP JUMP JUMPDEST PUSH1 0x15 PUSH1 0x0 SWAP1 SLOAD SWAP1 PUSH2 0x100 EXP SWAP1 DIV PUSH1 0xFF AND PUSH2 0x1922 JUMPI PUSH1 0x40 MLOAD PUSH32 0x8C379A000000000000000000000000000000000000000000000000000000000 DUP2 MSTORE PUSH1 0x4 ADD PUSH2 0x1919 SWAP1 PUSH2 0x3D3E JUMP JUMPDEST PUSH1 0x40 MLOAD DUP1 SWAP2 SUB SWAP1 REVERT JUMPDEST PUSH1 0x0 PUSH1 0x20 PUSH1 0x0 CALLER PUSH20 0xFFFFFFFFFFFFFFFFFFFFFFFFFFFFFFFFFFFFFFFF AND PUSH20 0xFFFFFFFFFFFFFFFFFFFFFFFFFFFFFFFFFFFFFFFF AND DUP2 MSTORE PUSH1 0x20 ADD SWAP1 DUP2 MSTORE PUSH1 0x20 ADD PUSH1 0x0 KECCAK256 SWAP1 POP PUSH1 0x6 SLOAD CALLVALUE LT ISZERO PUSH2 0x19AA JUMPI PUSH1 0x40 MLOAD PUSH32 0x8C379A000000000000000000000000000000000000000000000000000000000 DUP2 MSTORE PUSH1 0x4 ADD PUSH2 0x19A1 SWAP1 PUSH2 0x3F0B JUMP JUMPDEST PUSH1 0x40 MLOAD DUP1 SWAP2 SUB SWAP1 REVERT JUMPDEST PUSH1 0x7 SLOAD PUSH2 0x19C4 CALLVALUE DUP4 PUSH1 0x0 ADD SLOAD PUSH2 0x32EF SWAP1 SWAP2 SWAP1 PUSH4 0xFFFFFFFF AND JUMP JUMPDEST GT ISZERO PUSH2 0x1A05 JUMPI PUSH1 0x40 MLOAD PUSH32 0x8C379A000000000000000000000000000000000000000000000000000000000 DUP2 MSTORE PUSH1 0x4 ADD PUSH2 0x19FC SWAP1 PUSH2 0x3F77 JUMP JUMPDEST PUSH1 0x40 MLOAD DUP1 SWAP2 SUB SWAP1 REVERT JUMPDEST PUSH1 0x0 PUSH2 0x1A23 CALLVALUE PUSH2 0x1A1E CALLVALUE SELFBALANCE PUSH2 0x331B SWAP1 SWAP2 SWAP1 PUSH4 0xFFFFFFFF AND JUMP JUMPDEST PUSH2 0x143E JUMP JUMPDEST SWAP1 POP PUSH2 0x1A3C CALLVALUE DUP4 PUSH1 0x1 ADD SLOAD PUSH2 0x32EF SWAP1 SWAP2 SWAP1 PUSH4 0xFFFFFFFF AND JUMP JUMPDEST DUP3 PUSH1 0x1 ADD DUP2 SWAP1 SSTORE POP PUSH2 0x1A5B CALLVALUE DUP4 PUSH1 0x0 ADD SLOAD PUSH2 0x32EF SWAP1 SWAP2 SWAP1 PUSH4 0xFFFFFFFF AND JUMP JUMPDEST DUP3 PUSH1 0x0 ADD DUP2 SWAP1 SSTORE POP PUSH2 0x1A7A DUP2 DUP4 PUSH1 0x3 ADD SLOAD PUSH2 0x32EF SWAP1 SWAP2 SWAP1 PUSH4 0xFFFFFFFF AND JUMP JUMPDEST DUP3 PUSH1 0x3 ADD DUP2 SWAP1 SSTORE POP PUSH1 0x0 PUSH20 0xFFFFFFFFFFFFFFFFFFFFFFFFFFFFFFFFFFFFFFFF AND DUP3 PUSH1 0x5 ADD PUSH1 0x0 SWAP1 SLOAD SWAP1 PUSH2 0x100 EXP SWAP1 DIV PUSH20 0xFFFFFFFFFFFFFFFFFFFFFFFFFFFFFFFFFFFFFFFF AND PUSH20 0xFFFFFFFFFFFFFFFFFFFFFFFFFFFFFFFFFFFFFFFF AND EQ ISZERO PUSH2 0x1C4E JUMPI CALLER PUSH20 0xFFFFFFFFFFFFFFFFFFFFFFFFFFFFFFFFFFFFFFFF AND DUP4 PUSH20 0xFFFFFFFFFFFFFFFFFFFFFFFFFFFFFFFFFFFFFFFF AND EQ PUSH2 0x1B52 JUMPI DUP3 DUP3 PUSH1 0x5 ADD PUSH1 0x0 PUSH2 0x100 EXP DUP2 SLOAD DUP2 PUSH20 0xFFFFFFFFFFFFFFFFFFFFFFFFFFFFFFFFFFFFFFFF MUL NOT AND SWAP1 DUP4 PUSH20 0xFFFFFFFFFFFFFFFFFFFFFFFFFFFFFFFFFFFFFFFF AND MUL OR SWAP1 SSTORE POP JUMPDEST PUSH1 0x0 DUP3 PUSH1 0x5 ADD PUSH1 0x0 SWAP1 SLOAD SWAP1 PUSH2 0x100 EXP SWAP1 DIV PUSH20 0xFFFFFFFFFFFFFFFFFFFFFFFFFFFFFFFFFFFFFFFF AND SWAP1 POP PUSH1 0x0 PUSH20 0xFFFFFFFFFFFFFFFFFFFFFFFFFFFFFFFFFFFFFFFF AND DUP2 PUSH20 0xFFFFFFFFFFFFFFFFFFFFFFFFFFFFFFFFFFFFFFFF AND EQ PUSH2 0x1C4C JUMPI PUSH2 0x1C05 PUSH1 0x1 PUSH1 0x20 PUSH1 0x0 DUP5 PUSH20 0xFFFFFFFFFFFFFFFFFFFFFFFFFFFFFFFFFFFFFFFF AND PUSH20 0xFFFFFFFFFFFFFFFFFFFFFFFFFFFFFFFFFFFFFFFF AND DUP2 MSTORE PUSH1 0x20 ADD SWAP1 DUP2 MSTORE PUSH1 0x20 ADD PUSH1 0x0 KECCAK256 PUSH1 0x6 ADD SLOAD PUSH2 0x32EF SWAP1 SWAP2 SWAP1 PUSH4 0xFFFFFFFF AND JUMP JUMPDEST PUSH1 0x20 PUSH1 0x0 DUP4 PUSH20 0xFFFFFFFFFFFFFFFFFFFFFFFFFFFFFFFFFFFFFFFF AND PUSH20 0xFFFFFFFFFFFFFFFFFFFFFFFFFFFFFFFFFFFFFFFF AND DUP2 MSTORE PUSH1 0x20 ADD SWAP1 DUP2 MSTORE PUSH1 0x20 ADD PUSH1 0x0 KECCAK256 PUSH1 0x6 ADD DUP2 SWAP1 SSTORE POP JUMPDEST POP JUMPDEST PUSH1 0x0 PUSH20 0xFFFFFFFFFFFFFFFFFFFFFFFFFFFFFFFFFFFFFFFF AND DUP3 PUSH1 0x5 ADD PUSH1 0x0 SWAP1 SLOAD SWAP1 PUSH2 0x100 EXP SWAP1 DIV PUSH20 0xFFFFFFFFFFFFFFFFFFFFFFFFFFFFFFFFFFFFFFFF AND PUSH20 0xFFFFFFFFFFFFFFFFFFFFFFFFFFFFFFFFFFFFFFFF AND EQ PUSH2 0x1CB1 JUMPI PUSH2 0x1CB0 CALLER CALLVALUE PUSH2 0x33A6 JUMP JUMPDEST JUMPDEST PUSH1 0x0 PUSH2 0x1CBC CALLVALUE PUSH2 0x36BE JUMP JUMPDEST SWAP1 POP PUSH2 0x1CE5 PUSH2 0x1CD4 DUP3 CALLVALUE PUSH2 0x331B SWAP1 SWAP2 SWAP1 PUSH4 0xFFFFFFFF AND JUMP JUMPDEST PUSH1 0xD SLOAD PUSH2 0x32EF SWAP1 SWAP2 SWAP1 PUSH4 0xFFFFFFFF AND JUMP JUMPDEST PUSH1 0xD DUP2 SWAP1 SSTORE POP PUSH2 0x1D01 PUSH1 0x1 PUSH1 0xE SLOAD PUSH2 0x32EF SWAP1 SWAP2 SWAP1 PUSH4 0xFFFFFFFF AND JUMP JUMPDEST PUSH1 0xE DUP2 SWAP1 SSTORE POP PUSH2 0x1D11 PUSH1 0x0 PUSH2 0x1117 JUMP JUMPDEST POP POP POP POP JUMP JUMPDEST PUSH1 0x19 PUSH1 0x0 SWAP1 SLOAD SWAP1 PUSH2 0x100 EXP SWAP1 DIV PUSH20 0xFFFFFFFFFFFFFFFFFFFFFFFFFFFFFFFFFFFFFFFF AND PUSH20 0xFFFFFFFFFFFFFFFFFFFFFFFFFFFFFFFFFFFFFFFF AND CALLER PUSH20 0xFFFFFFFFFFFFFFFFFFFFFFFFFFFFFFFFFFFFFFFF AND EQ PUSH2 0x1DA7 JUMPI PUSH1 0x40 MLOAD PUSH32 0x8C379A000000000000000000000000000000000000000000000000000000000 DUP2 MSTORE PUSH1 0x4 ADD PUSH2 0x1D9E SWAP1 PUSH2 0x3DAA JUMP JUMPDEST PUSH1 0x40 MLOAD DUP1 SWAP2 SUB SWAP1 REVERT JUMPDEST PUSH1 0xA DUP2 LT ISZERO DUP1 ISZERO PUSH2 0x1DB9 JUMPI POP PUSH1 0x64 DUP2 GT ISZERO JUMPDEST PUSH2 0x1DC2 JUMPI PUSH1 0x0 DUP1 REVERT JUMPDEST DUP1 PUSH1 0x1 DUP2 SWAP1 SSTORE POP POP JUMP JUMPDEST PUSH1 0x15 PUSH1 0x0 SWAP1 SLOAD SWAP1 PUSH2 0x100 EXP SWAP1 DIV PUSH1 0xFF AND PUSH2 0x1E1B JUMPI PUSH1 0x40 MLOAD PUSH32 0x8C379A000000000000000000000000000000000000000000000000000000000 DUP2 MSTORE PUSH1 0x4 ADD PUSH2 0x1E12 SWAP1 PUSH2 0x3D3E JUMP JUMPDEST PUSH1 0x40 MLOAD DUP1 SWAP2 SUB SWAP1 REVERT JUMPDEST PUSH1 0x15 PUSH1 0x1 SWAP1 SLOAD SWAP1 PUSH2 0x100 EXP SWAP1 DIV PUSH1 0xFF AND ISZERO PUSH2 0x1EBE JUMPI PUSH1 0x16 PUSH1 0x0 CALLER PUSH20 0xFFFFFFFFFFFFFFFFFFFFFFFFFFFFFFFFFFFFFFFF AND PUSH20 0xFFFFFFFFFFFFFFFFFFFFFFFFFFFFFFFFFFFFFFFF AND DUP2 MSTORE PUSH1 0x20 ADD SWAP1 DUP2 MSTORE PUSH1 0x20 ADD PUSH1 0x0 KECCAK256 PUSH1 0x0 SWAP1 SLOAD SWAP1 PUSH2 0x100 EXP SWAP1 DIV PUSH1 0xFF AND ISZERO PUSH2 0x1EBD JUMPI PUSH1 0x40 MLOAD PUSH32 0x8C379A000000000000000000000000000000000000000000000000000000000 DUP2 MSTORE PUSH1 0x4 ADD PUSH2 0x1EB4 SWAP1 PUSH2 0x3FE3 JUMP JUMPDEST PUSH1 0x40 MLOAD DUP1 SWAP2 SUB SWAP1 REVERT JUMPDEST JUMPDEST PUSH1 0x0 PUSH1 0x20 PUSH1 0x0 CALLER PUSH20 0xFFFFFFFFFFFFFFFFFFFFFFFFFFFFFFFFFFFFFFFF AND PUSH20 0xFFFFFFFFFFFFFFFFFFFFFFFFFFFFFFFFFFFFFFFF AND DUP2 MSTORE PUSH1 0x20 ADD SWAP1 DUP2 MSTORE PUSH1 0x20 ADD PUSH1 0x0 KECCAK256 SWAP1 POP PUSH1 0x0 PUSH2 0x1F0B PUSH2 0x15F6 JUMP JUMPDEST SWAP1 POP PUSH1 0x0 PUSH2 0x1F18 DUP3 PUSH2 0x2820 JUMP JUMPDEST SWAP1 POP PUSH1 0xC SLOAD DUP4 PUSH1 0x9 ADD SLOAD LT ISZERO PUSH2 0x1F6A JUMPI PUSH2 0x1F63 PUSH2 0x1F54 PUSH1 0x2 SLOAD PUSH2 0x1F46 PUSH1 0xB SLOAD DUP6 PUSH2 0x335D SWAP1 SWAP2 SWAP1 PUSH4 0xFFFFFFFF AND JUMP JUMPDEST PUSH2 0x3342 SWAP1 SWAP2 SWAP1 PUSH4 0xFFFFFFFF AND JUMP JUMPDEST DUP3 PUSH2 0x331B SWAP1 SWAP2 SWAP1 PUSH4 0xFFFFFFFF AND JUMP JUMPDEST SWAP1 POP PUSH2 0x1F7F JUMP JUMPDEST PUSH1 0x0 DUP4 PUSH1 0x9 ADD DUP2 SWAP1 SSTORE POP PUSH1 0x0 DUP4 PUSH1 0xA ADD DUP2 SWAP1 SSTORE POP JUMPDEST TIMESTAMP DUP4 PUSH1 0xB ADD DUP2 SWAP1 SSTORE POP PUSH1 0x0 DUP4 PUSH1 0x3 ADD DUP2 SWAP1 SSTORE POP TIMESTAMP DUP4 PUSH1 0x4 ADD DUP2 SWAP1 SSTORE POP PUSH2 0x1FC4 PUSH2 0x1FB3 PUSH1 0x5 SLOAD DUP5 PUSH2 0x3342 SWAP1 SWAP2 SWAP1 PUSH4 0xFFFFFFFF AND JUMP JUMPDEST PUSH1 0x12 SLOAD PUSH2 0x32EF SWAP1 SWAP2 SWAP1 PUSH4 0xFFFFFFFF AND JUMP JUMPDEST PUSH1 0x12 DUP2 SWAP1 SSTORE POP DUP1 PUSH2 0x1FD3 PUSH2 0x1109 JUMP JUMPDEST LT ISZERO PUSH2 0x1FE4 JUMPI PUSH2 0x1FE1 PUSH2 0x1109 JUMP JUMPDEST SWAP1 POP JUMPDEST PUSH1 0x0 PUSH2 0x2001 PUSH2 0x1FF2 DUP4 PUSH2 0x36BE JUMP JUMPDEST DUP4 PUSH2 0x331B SWAP1 SWAP2 SWAP1 PUSH4 0xFFFFFFFF AND JUMP JUMPDEST SWAP1 POP CALLER PUSH20 0xFFFFFFFFFFFFFFFFFFFFFFFFFFFFFFFFFFFFFFFF AND PUSH2 0x8FC DUP3 SWAP1 DUP2 ISZERO MUL SWAP1 PUSH1 0x40 MLOAD PUSH1 0x0 PUSH1 0x40 MLOAD DUP1 DUP4 SUB DUP2 DUP6 DUP9 DUP9 CALL SWAP4 POP POP POP POP ISZERO DUP1 ISZERO PUSH2 0x2049 JUMPI RETURNDATASIZE PUSH1 0x0 DUP1 RETURNDATACOPY RETURNDATASIZE PUSH1 0x0 REVERT JUMPDEST POP PUSH2 0x2061 DUP2 DUP6 PUSH1 0x8 ADD SLOAD PUSH2 0x32EF SWAP1 SWAP2 SWAP1 PUSH4 0xFFFFFFFF AND JUMP JUMPDEST DUP5 PUSH1 0x8 ADD DUP2 SWAP1 SSTORE POP PUSH2 0x207E DUP2 PUSH1 0x11 SLOAD PUSH2 0x32EF SWAP1 SWAP2 SWAP1 PUSH4 0xFFFFFFFF AND JUMP JUMPDEST PUSH1 0x11 DUP2 SWAP1 SSTORE POP POP POP POP POP JUMP JUMPDEST PUSH1 0x5 SLOAD DUP2 JUMP JUMPDEST PUSH1 0x0 DUP1 PUSH1 0x0 DUP1 PUSH1 0x0 DUP1 PUSH1 0x0 DUP1 PUSH1 0x0 DUP1 PUSH1 0x0 DUP1 PUSH1 0x20 PUSH1 0x0 DUP15 PUSH20 0xFFFFFFFFFFFFFFFFFFFFFFFFFFFFFFFFFFFFFFFF AND PUSH20 0xFFFFFFFFFFFFFFFFFFFFFFFFFFFFFFFFFFFFFFFF AND DUP2 MSTORE PUSH1 0x20 ADD SWAP1 DUP2 MSTORE PUSH1 0x20 ADD PUSH1 0x0 KECCAK256 PUSH1 0x0 ADD SLOAD SWAP12 POP PUSH1 0x20 PUSH1 0x0 DUP15 PUSH20 0xFFFFFFFFFFFFFFFFFFFFFFFFFFFFFFFFFFFFFFFF AND PUSH20 0xFFFFFFFFFFFFFFFFFFFFFFFFFFFFFFFFFFFFFFFF AND DUP2 MSTORE PUSH1 0x20 ADD SWAP1 DUP2 MSTORE PUSH1 0x20 ADD PUSH1 0x0 KECCAK256 PUSH1 0x1 ADD SLOAD SWAP11 POP PUSH1 0x20 PUSH1 0x0 DUP15 PUSH20 0xFFFFFFFFFFFFFFFFFFFFFFFFFFFFFFFFFFFFFFFF AND PUSH20 0xFFFFFFFFFFFFFFFFFFFFFFFFFFFFFFFFFFFFFFFF AND DUP2 MSTORE PUSH1 0x20 ADD SWAP1 DUP2 MSTORE PUSH1 0x20 ADD PUSH1 0x0 KECCAK256 PUSH1 0x2 ADD SLOAD SWAP10 POP PUSH1 0x20 PUSH1 0x0 DUP15 PUSH20 0xFFFFFFFFFFFFFFFFFFFFFFFFFFFFFFFFFFFFFFFF AND PUSH20 0xFFFFFFFFFFFFFFFFFFFFFFFFFFFFFFFFFFFFFFFF AND DUP2 MSTORE PUSH1 0x20 ADD SWAP1 DUP2 MSTORE PUSH1 0x20 ADD PUSH1 0x0 KECCAK256 PUSH1 0x3 ADD SLOAD SWAP9 POP PUSH1 0x20 PUSH1 0x0 DUP15 PUSH20 0xFFFFFFFFFFFFFFFFFFFFFFFFFFFFFFFFFFFFFFFF AND PUSH20 0xFFFFFFFFFFFFFFFFFFFFFFFFFFFFFFFFFFFFFFFF AND DUP2 MSTORE PUSH1 0x20 ADD SWAP1 DUP2 MSTORE PUSH1 0x20 ADD PUSH1 0x0 KECCAK256 PUSH1 0x4 ADD SLOAD SWAP8 POP PUSH1 0x20 PUSH1 0x0 DUP15 PUSH20 0xFFFFFFFFFFFFFFFFFFFFFFFFFFFFFFFFFFFFFFFF AND PUSH20 0xFFFFFFFFFFFFFFFFFFFFFFFFFFFFFFFFFFFFFFFF AND DUP2 MSTORE PUSH1 0x20 ADD SWAP1 DUP2 MSTORE PUSH1 0x20 ADD PUSH1 0x0 KECCAK256 PUSH1 0x5 ADD PUSH1 0x0 SWAP1 SLOAD SWAP1 PUSH2 0x100 EXP SWAP1 DIV PUSH20 0xFFFFFFFFFFFFFFFFFFFFFFFFFFFFFFFFFFFFFFFF AND SWAP7 POP PUSH1 0x20 PUSH1 0x0 DUP15 PUSH20 0xFFFFFFFFFFFFFFFFFFFFFFFFFFFFFFFFFFFFFFFF AND PUSH20 0xFFFFFFFFFFFFFFFFFFFFFFFFFFFFFFFFFFFFFFFF AND DUP2 MSTORE PUSH1 0x20 ADD SWAP1 DUP2 MSTORE PUSH1 0x20 ADD PUSH1 0x0 KECCAK256 PUSH1 0x6 ADD SLOAD SWAP6 POP PUSH1 0x20 PUSH1 0x0 DUP15 PUSH20 0xFFFFFFFFFFFFFFFFFFFFFFFFFFFFFFFFFFFFFFFF AND PUSH20 0xFFFFFFFFFFFFFFFFFFFFFFFFFFFFFFFFFFFFFFFF AND DUP2 MSTORE PUSH1 0x20 ADD SWAP1 DUP2 MSTORE PUSH1 0x20 ADD PUSH1 0x0 KECCAK256 PUSH1 0x8 ADD SLOAD SWAP5 POP PUSH1 0x20 PUSH1 0x0 DUP15 PUSH20 0xFFFFFFFFFFFFFFFFFFFFFFFFFFFFFFFFFFFFFFFF AND PUSH20 0xFFFFFFFFFFFFFFFFFFFFFFFFFFFFFFFFFFFFFFFF AND DUP2 MSTORE PUSH1 0x20 ADD SWAP1 DUP2 MSTORE PUSH1 0x20 ADD PUSH1 0x0 KECCAK256 PUSH1 0x7 ADD SLOAD SWAP4 POP PUSH1 0x20 PUSH1 0x0 DUP15 PUSH20 0xFFFFFFFFFFFFFFFFFFFFFFFFFFFFFFFFFFFFFFFF AND PUSH20 0xFFFFFFFFFFFFFFFFFFFFFFFFFFFFFFFFFFFFFFFF AND DUP2 MSTORE PUSH1 0x20 ADD SWAP1 DUP2 MSTORE PUSH1 0x20 ADD PUSH1 0x0 KECCAK256 PUSH1 0x9 ADD SLOAD SWAP3 POP PUSH1 0x20 PUSH1 0x0 DUP15 PUSH20 0xFFFFFFFFFFFFFFFFFFFFFFFFFFFFFFFFFFFFFFFF AND PUSH20 0xFFFFFFFFFFFFFFFFFFFFFFFFFFFFFFFFFFFFFFFF AND DUP2 MSTORE PUSH1 0x20 ADD SWAP1 DUP2 MSTORE PUSH1 0x20 ADD PUSH1 0x0 KECCAK256 PUSH1 0xA ADD SLOAD SWAP2 POP PUSH1 0x20 PUSH1 0x0 DUP15 PUSH20 0xFFFFFFFFFFFFFFFFFFFFFFFFFFFFFFFFFFFFFFFF AND PUSH20 0xFFFFFFFFFFFFFFFFFFFFFFFFFFFFFFFFFFFFFFFF AND DUP2 MSTORE PUSH1 0x20 ADD SWAP1 DUP2 MSTORE PUSH1 0x20 ADD PUSH1 0x0 KECCAK256 PUSH1 0xB ADD SLOAD SWAP1 POP SWAP2 SWAP4 SWAP6 SWAP8 SWAP10 SWAP12 POP SWAP2 SWAP4 SWAP6 SWAP8 SWAP10 SWAP12 JUMP JUMPDEST PUSH1 0x0 DUP1 PUSH2 0x246D PUSH2 0x241C DUP5 PUSH2 0x2D7A JUMP JUMPDEST PUSH1 0x20 PUSH1 0x0 DUP7 PUSH20 0xFFFFFFFFFFFFFFFFFFFFFFFFFFFFFFFFFFFFFFFF AND PUSH20 0xFFFFFFFFFFFFFFFFFFFFFFFFFFFFFFFFFFFFFFFF AND DUP2 MSTORE PUSH1 0x20 ADD SWAP1 DUP2 MSTORE PUSH1 0x20 ADD PUSH1 0x0 KECCAK256 PUSH1 0x3 ADD SLOAD PUSH2 0x32EF SWAP1 SWAP2 SWAP1 PUSH4 0xFFFFFFFF AND JUMP JUMPDEST SWAP1 POP PUSH2 0x2478 DUP2 PUSH2 0x2820 JUMP JUMPDEST SWAP2 POP POP SWAP2 SWAP1 POP JUMP JUMPDEST PUSH1 0x3 SLOAD DUP2 JUMP JUMPDEST PUSH1 0x10 SLOAD DUP2 JUMP JUMPDEST PUSH1 0x19 PUSH1 0x0 SWAP1 SLOAD SWAP1 PUSH2 0x100 EXP SWAP1 DIV PUSH20 0xFFFFFFFFFFFFFFFFFFFFFFFFFFFFFFFFFFFFFFFF AND PUSH20 0xFFFFFFFFFFFFFFFFFFFFFFFFFFFFFFFFFFFFFFFF AND CALLER PUSH20 0xFFFFFFFFFFFFFFFFFFFFFFFFFFFFFFFFFFFFFFFF AND EQ PUSH2 0x251C JUMPI PUSH1 0x40 MLOAD PUSH32 0x8C379A000000000000000000000000000000000000000000000000000000000 DUP2 MSTORE PUSH1 0x4 ADD PUSH2 0x2513 SWAP1 PUSH2 0x3DAA JUMP JUMPDEST PUSH1 0x40 MLOAD DUP1 SWAP2 SUB SWAP1 REVERT JUMPDEST PUSH1 0xA DUP2 LT ISZERO DUP1 ISZERO PUSH2 0x252F JUMPI POP PUSH2 0x384 DUP2 GT ISZERO JUMPDEST PUSH2 0x2538 JUMPI PUSH1 0x0 DUP1 REVERT JUMPDEST DUP1 PUSH1 0x8 DUP2 SWAP1 SSTORE POP POP JUMP JUMPDEST PUSH1 0xA SLOAD DUP2 JUMP JUMPDEST PUSH1 0x19 PUSH1 0x0 SWAP1 SLOAD SWAP1 PUSH2 0x100 EXP SWAP1 DIV PUSH20 0xFFFFFFFFFFFFFFFFFFFFFFFFFFFFFFFFFFFFFFFF AND PUSH20 0xFFFFFFFFFFFFFFFFFFFFFFFFFFFFFFFFFFFFFFFF AND CALLER PUSH20 0xFFFFFFFFFFFFFFFFFFFFFFFFFFFFFFFFFFFFFFFF AND EQ PUSH2 0x25D8 JUMPI PUSH1 0x40 MLOAD PUSH32 0x8C379A000000000000000000000000000000000000000000000000000000000 DUP2 MSTORE PUSH1 0x4 ADD PUSH2 0x25CF SWAP1 PUSH2 0x3DAA JUMP JUMPDEST PUSH1 0x40 MLOAD DUP1 SWAP2 SUB SWAP1 REVERT JUMPDEST PUSH1 0x32 DUP2 GT ISZERO PUSH2 0x25E6 JUMPI PUSH1 0x0 DUP1 REVERT JUMPDEST DUP1 PUSH1 0x5 DUP2 SWAP1 SSTORE POP POP JUMP JUMPDEST PUSH1 0x19 PUSH1 0x0 SWAP1 SLOAD SWAP1 PUSH2 0x100 EXP SWAP1 DIV PUSH20 0xFFFFFFFFFFFFFFFFFFFFFFFFFFFFFFFFFFFFFFFF AND PUSH20 0xFFFFFFFFFFFFFFFFFFFFFFFFFFFFFFFFFFFFFFFF AND CALLER PUSH20 0xFFFFFFFFFFFFFFFFFFFFFFFFFFFFFFFFFFFFFFFF AND EQ PUSH2 0x2680 JUMPI PUSH1 0x40 MLOAD PUSH32 0x8C379A000000000000000000000000000000000000000000000000000000000 DUP2 MSTORE PUSH1 0x4 ADD PUSH2 0x2677 SWAP1 PUSH2 0x3E16 JUMP JUMPDEST PUSH1 0x40 MLOAD DUP1 SWAP2 SUB SWAP1 REVERT JUMPDEST PUSH1 0x3C DUP1 DUP3 PUSH2 0x268E SWAP2 SWAP1 PUSH2 0x3E65 JUMP JUMPDEST PUSH2 0x2698 SWAP2 SWAP1 PUSH2 0x3E65 JUMP JUMPDEST PUSH1 0x17 DUP2 SWAP1 SSTORE POP POP JUMP JUMPDEST PUSH1 0x1F PUSH1 0x0 SWAP1 SLOAD SWAP1 PUSH2 0x100 EXP SWAP1 DIV PUSH20 0xFFFFFFFFFFFFFFFFFFFFFFFFFFFFFFFFFFFFFFFF AND DUP2 JUMP JUMPDEST PUSH1 0xE SLOAD DUP2 JUMP JUMPDEST PUSH1 0xF SLOAD DUP2 JUMP JUMPDEST PUSH1 0x0 PUSH2 0x26E6 DUP3 PUSH2 0x26E1 PUSH2 0x1109 JUMP JUMPDEST PUSH2 0x143E JUMP JUMPDEST SWAP1 POP SWAP2 SWAP1 POP JUMP JUMPDEST PUSH1 0x19 PUSH1 0x0 SWAP1 SLOAD SWAP1 PUSH2 0x100 EXP SWAP1 DIV PUSH20 0xFFFFFFFFFFFFFFFFFFFFFFFFFFFFFFFFFFFFFFFF AND PUSH20 0xFFFFFFFFFFFFFFFFFFFFFFFFFFFFFFFFFFFFFFFF AND CALLER PUSH20 0xFFFFFFFFFFFFFFFFFFFFFFFFFFFFFFFFFFFFFFFF AND EQ PUSH2 0x277D JUMPI PUSH1 0x40 MLOAD PUSH32 0x8C379A000000000000000000000000000000000000000000000000000000000 DUP2 MSTORE PUSH1 0x4 ADD PUSH2 0x2774 SWAP1 PUSH2 0x3E16 JUMP JUMPDEST PUSH1 0x40 MLOAD DUP1 SWAP2 SUB SWAP1 REVERT JUMPDEST PUSH1 0xA DUP2 LT ISZERO PUSH2 0x278B JUMPI PUSH1 0x0 DUP1 REVERT JUMPDEST PUSH8 0xDE0B6B3A7640000 DUP2 PUSH2 0x279F SWAP2 SWAP1 PUSH2 0x3E65 JUMP JUMPDEST PUSH1 0x7 DUP2 SWAP1 SSTORE POP POP JUMP JUMPDEST PUSH1 0x1B PUSH1 0x0 SWAP1 SLOAD SWAP1 PUSH2 0x100 EXP SWAP1 DIV PUSH20 0xFFFFFFFFFFFFFFFFFFFFFFFFFFFFFFFFFFFFFFFF AND DUP2 JUMP JUMPDEST PUSH1 0xD SLOAD DUP2 JUMP JUMPDEST PUSH1 0x1E PUSH1 0x0 SWAP1 SLOAD SWAP1 PUSH2 0x100 EXP SWAP1 DIV PUSH20 0xFFFFFFFFFFFFFFFFFFFFFFFFFFFFFFFFFFFFFFFF AND DUP2 JUMP JUMPDEST PUSH1 0x19 PUSH1 0x0 SWAP1 SLOAD SWAP1 PUSH2 0x100 EXP SWAP1 DIV PUSH20 0xFFFFFFFFFFFFFFFFFFFFFFFFFFFFFFFFFFFFFFFF AND DUP2 JUMP JUMPDEST PUSH1 0x0 PUSH2 0x2836 DUP3 PUSH1 0x12 SLOAD PUSH2 0x2831 PUSH2 0x1109 JUMP JUMPDEST PUSH2 0x13C5 JUMP JUMPDEST SWAP1 POP SWAP2 SWAP1 POP JUMP JUMPDEST PUSH1 0x18 SLOAD DUP2 JUMP JUMPDEST PUSH1 0x19 PUSH1 0x0 SWAP1 SLOAD SWAP1 PUSH2 0x100 EXP SWAP1 DIV PUSH20 0xFFFFFFFFFFFFFFFFFFFFFFFFFFFFFFFFFFFFFFFF AND PUSH20 0xFFFFFFFFFFFFFFFFFFFFFFFFFFFFFFFFFFFFFFFF AND CALLER PUSH20 0xFFFFFFFFFFFFFFFFFFFFFFFFFFFFFFFFFFFFFFFF AND EQ PUSH2 0x28D3 JUMPI PUSH1 0x40 MLOAD PUSH32 0x8C379A000000000000000000000000000000000000000000000000000000000 DUP2 MSTORE PUSH1 0x4 ADD PUSH2 0x28CA SWAP1 PUSH2 0x3DAA JUMP JUMPDEST PUSH1 0x40 MLOAD DUP1 SWAP2 SUB SWAP1 REVERT JUMPDEST PUSH1 0x18 DUP2 GT ISZERO PUSH2 0x28E1 JUMPI PUSH1 0x0 DUP1 REVERT JUMPDEST PUSH1 0x3C DUP1 DUP3 PUSH2 0x28EF SWAP2 SWAP1 PUSH2 0x3E65 JUMP JUMPDEST PUSH2 0x28F9 SWAP2 SWAP1 PUSH2 0x3E65 JUMP JUMPDEST PUSH1 0xA DUP2 SWAP1 SSTORE POP POP JUMP JUMPDEST PUSH1 0x19 PUSH1 0x0 SWAP1 SLOAD SWAP1 PUSH2 0x100 EXP SWAP1 DIV PUSH20 0xFFFFFFFFFFFFFFFFFFFFFFFFFFFFFFFFFFFFFFFF AND PUSH20 0xFFFFFFFFFFFFFFFFFFFFFFFFFFFFFFFFFFFFFFFF AND CALLER PUSH20 0xFFFFFFFFFFFFFFFFFFFFFFFFFFFFFFFFFFFFFFFF AND EQ PUSH2 0x2992 JUMPI PUSH1 0x40 MLOAD PUSH32 0x8C379A000000000000000000000000000000000000000000000000000000000 DUP2 MSTORE PUSH1 0x4 ADD PUSH2 0x2989 SWAP1 PUSH2 0x3DAA JUMP JUMPDEST PUSH1 0x40 MLOAD DUP1 SWAP2 SUB SWAP1 REVERT JUMPDEST PUSH1 0x1E DUP2 GT ISZERO PUSH2 0x29A0 JUMPI PUSH1 0x0 DUP1 REVERT JUMPDEST DUP1 PUSH1 0x9 DUP2 SWAP1 SSTORE POP POP JUMP JUMPDEST PUSH1 0x19 PUSH1 0x0 SWAP1 SLOAD SWAP1 PUSH2 0x100 EXP SWAP1 DIV PUSH20 0xFFFFFFFFFFFFFFFFFFFFFFFFFFFFFFFFFFFFFFFF AND PUSH20 0xFFFFFFFFFFFFFFFFFFFFFFFFFFFFFFFFFFFFFFFF AND CALLER PUSH20 0xFFFFFFFFFFFFFFFFFFFFFFFFFFFFFFFFFFFFFFFF AND EQ PUSH2 0x2A3A JUMPI PUSH1 0x40 MLOAD PUSH32 0x8C379A000000000000000000000000000000000000000000000000000000000 DUP2 MSTORE PUSH1 0x4 ADD PUSH2 0x2A31 SWAP1 PUSH2 0x3DAA JUMP JUMPDEST PUSH1 0x40 MLOAD DUP1 SWAP2 SUB SWAP1 REVERT JUMPDEST DUP1 PUSH1 0x15 PUSH1 0x1 PUSH2 0x100 EXP DUP2 SLOAD DUP2 PUSH1 0xFF MUL NOT AND SWAP1 DUP4 ISZERO ISZERO MUL OR SWAP1 SSTORE POP POP JUMP JUMPDEST PUSH1 0x1A PUSH1 0x0 SWAP1 SLOAD SWAP1 PUSH2 0x100 EXP SWAP1 DIV PUSH20 0xFFFFFFFFFFFFFFFFFFFFFFFFFFFFFFFFFFFFFFFF AND DUP2 JUMP JUMPDEST PUSH1 0x20 DUP1 MSTORE DUP1 PUSH1 0x0 MSTORE PUSH1 0x40 PUSH1 0x0 KECCAK256 PUSH1 0x0 SWAP2 POP SWAP1 POP DUP1 PUSH1 0x0 ADD SLOAD SWAP1 DUP1 PUSH1 0x1 ADD SLOAD SWAP1 DUP1 PUSH1 0x2 ADD SLOAD SWAP1 DUP1 PUSH1 0x3 ADD SLOAD SWAP1 DUP1 PUSH1 0x4 ADD SLOAD SWAP1 DUP1 PUSH1 0x5 ADD PUSH1 0x0 SWAP1 SLOAD SWAP1 PUSH2 0x100 EXP SWAP1 DIV PUSH20 0xFFFFFFFFFFFFFFFFFFFFFFFFFFFFFFFFFFFFFFFF AND SWAP1 DUP1 PUSH1 0x6 ADD SLOAD SWAP1 DUP1 PUSH1 0x7 ADD SLOAD SWAP1 DUP1 PUSH1 0x8 ADD SLOAD SWAP1 DUP1 PUSH1 0x9 ADD SLOAD SWAP1 DUP1 PUSH1 0xA ADD SLOAD SWAP1 DUP1 PUSH1 0xB ADD SLOAD SWAP1 POP DUP13 JUMP JUMPDEST PUSH1 0x15 PUSH1 0x1 SWAP1 SLOAD SWAP1 PUSH2 0x100 EXP SWAP1 DIV PUSH1 0xFF AND DUP2 JUMP JUMPDEST JUMP JUMPDEST PUSH1 0x0 DUP1 PUSH1 0x0 PUSH2 0x2B4B DUP5 PUSH2 0x2B46 DUP7 PUSH2 0x2B38 DUP9 PUSH2 0x2B2A PUSH2 0x1109 JUMP JUMPDEST PUSH2 0x32EF SWAP1 SWAP2 SWAP1 PUSH4 0xFFFFFFFF AND JUMP JUMPDEST PUSH2 0x331B SWAP1 SWAP2 SWAP1 PUSH4 0xFFFFFFFF AND JUMP JUMPDEST PUSH2 0x143E JUMP JUMPDEST SWAP1 POP PUSH1 0x0 PUSH2 0x2B64 PUSH1 0x0 SLOAD DUP4 PUSH2 0x3342 SWAP1 SWAP2 SWAP1 PUSH4 0xFFFFFFFF AND JUMP JUMPDEST SWAP1 POP PUSH1 0x0 PUSH3 0x15180 SWAP1 POP PUSH1 0x0 PUSH2 0x2B83 DUP4 DUP4 PUSH2 0x335D SWAP1 SWAP2 SWAP1 PUSH4 0xFFFFFFFF AND JUMP JUMPDEST SWAP1 POP PUSH1 0x0 PUSH2 0x2B91 DUP3 DUP10 PUSH2 0x2D3E JUMP JUMPDEST SWAP1 POP DUP4 DUP2 SWAP7 POP SWAP7 POP POP POP POP POP POP SWAP2 POP SWAP2 JUMP JUMPDEST PUSH1 0x19 PUSH1 0x0 SWAP1 SLOAD SWAP1 PUSH2 0x100 EXP SWAP1 DIV PUSH20 0xFFFFFFFFFFFFFFFFFFFFFFFFFFFFFFFFFFFFFFFF AND PUSH20 0xFFFFFFFFFFFFFFFFFFFFFFFFFFFFFFFFFFFFFFFF AND CALLER PUSH20 0xFFFFFFFFFFFFFFFFFFFFFFFFFFFFFFFFFFFFFFFF AND EQ PUSH2 0x2C33 JUMPI PUSH1 0x40 MLOAD PUSH32 0x8C379A000000000000000000000000000000000000000000000000000000000 DUP2 MSTORE PUSH1 0x4 ADD PUSH2 0x2C2A SWAP1 PUSH2 0x3DAA JUMP JUMPDEST PUSH1 0x40 MLOAD DUP1 SWAP2 SUB SWAP1 REVERT JUMPDEST PUSH2 0x384 DUP2 GT ISZERO PUSH2 0x2C42 JUMPI PUSH1 0x0 DUP1 REVERT JUMPDEST DUP1 PUSH1 0xB DUP2 SWAP1 SSTORE POP POP JUMP JUMPDEST PUSH1 0x0 PUSH1 0x19 PUSH1 0x0 SWAP1 SLOAD SWAP1 PUSH2 0x100 EXP SWAP1 DIV PUSH20 0xFFFFFFFFFFFFFFFFFFFFFFFFFFFFFFFFFFFFFFFF AND PUSH20 0xFFFFFFFFFFFFFFFFFFFFFFFFFFFFFFFFFFFFFFFF AND CALLER PUSH20 0xFFFFFFFFFFFFFFFFFFFFFFFFFFFFFFFFFFFFFFFF AND EQ PUSH2 0x2CDE JUMPI PUSH1 0x40 MLOAD PUSH32 0x8C379A000000000000000000000000000000000000000000000000000000000 DUP2 MSTORE PUSH1 0x4 ADD PUSH2 0x2CD5 SWAP1 PUSH2 0x3DAA JUMP JUMPDEST PUSH1 0x40 MLOAD DUP1 SWAP2 SUB SWAP1 REVERT JUMPDEST PUSH1 0x16 PUSH1 0x0 DUP4 PUSH20 0xFFFFFFFFFFFFFFFFFFFFFFFFFFFFFFFFFFFFFFFF AND PUSH20 0xFFFFFFFFFFFFFFFFFFFFFFFFFFFFFFFFFFFFFFFF AND DUP2 MSTORE PUSH1 0x20 ADD SWAP1 DUP2 MSTORE PUSH1 0x20 ADD PUSH1 0x0 KECCAK256 PUSH1 0x0 SWAP1 SLOAD SWAP1 PUSH2 0x100 EXP SWAP1 DIV PUSH1 0xFF AND SWAP1 POP SWAP2 SWAP1 POP JUMP JUMPDEST PUSH1 0x1 SLOAD DUP2 JUMP JUMPDEST PUSH1 0x9 SLOAD DUP2 JUMP JUMPDEST PUSH1 0x0 PUSH2 0x2D66 DUP4 PUSH1 0x12 SLOAD PUSH2 0x2D61 DUP6 PUSH2 0x2D53 PUSH2 0x1109 JUMP JUMPDEST PUSH2 0x32EF SWAP1 SWAP2 SWAP1 PUSH4 0xFFFFFFFF AND JUMP JUMPDEST PUSH2 0x13C5 JUMP JUMPDEST SWAP1 POP SWAP3 SWAP2 POP POP JUMP JUMPDEST PUSH1 0x6 SLOAD DUP2 JUMP JUMPDEST PUSH1 0x8 SLOAD DUP2 JUMP JUMPDEST PUSH1 0x0 DUP1 PUSH2 0x2DD2 PUSH1 0x20 PUSH1 0x0 DUP6 PUSH20 0xFFFFFFFFFFFFFFFFFFFFFFFFFFFFFFFFFFFFFFFF AND PUSH20 0xFFFFFFFFFFFFFFFFFFFFFFFFFFFFFFFFFFFFFFFF AND DUP2 MSTORE PUSH1 0x20 ADD SWAP1 DUP2 MSTORE PUSH1 0x20 ADD PUSH1 0x0 KECCAK256 PUSH1 0x4 ADD SLOAD TIMESTAMP PUSH2 0x331B SWAP1 SWAP2 SWAP1 PUSH4 0xFFFFFFFF AND JUMP JUMPDEST SWAP1 POP PUSH1 0x0 PUSH2 0x2DE2 DUP3 PUSH1 0x17 SLOAD PUSH2 0x37B1 JUMP JUMPDEST SWAP1 POP PUSH1 0x0 PUSH2 0x2DF2 PUSH1 0x0 SLOAD DUP4 PUSH2 0x37B1 JUMP JUMPDEST SWAP1 POP PUSH2 0x2E49 PUSH1 0x20 PUSH1 0x0 DUP8 PUSH20 0xFFFFFFFFFFFFFFFFFFFFFFFFFFFFFFFFFFFFFFFF AND PUSH20 0xFFFFFFFFFFFFFFFFFFFFFFFFFFFFFFFFFFFFFFFF AND DUP2 MSTORE PUSH1 0x20 ADD SWAP1 DUP2 MSTORE PUSH1 0x20 ADD PUSH1 0x0 KECCAK256 PUSH1 0x2 ADD SLOAD DUP3 PUSH2 0x335D SWAP1 SWAP2 SWAP1 PUSH4 0xFFFFFFFF AND JUMP JUMPDEST SWAP4 POP POP POP POP SWAP2 SWAP1 POP JUMP JUMPDEST PUSH1 0x19 PUSH1 0x0 SWAP1 SLOAD SWAP1 PUSH2 0x100 EXP SWAP1 DIV PUSH20 0xFFFFFFFFFFFFFFFFFFFFFFFFFFFFFFFFFFFFFFFF AND PUSH20 0xFFFFFFFFFFFFFFFFFFFFFFFFFFFFFFFFFFFFFFFF AND CALLER PUSH20 0xFFFFFFFFFFFFFFFFFFFFFFFFFFFFFFFFFFFFFFFF AND EQ PUSH2 0x2EE3 JUMPI PUSH1 0x40 MLOAD PUSH32 0x8C379A000000000000000000000000000000000000000000000000000000000 DUP2 MSTORE PUSH1 0x4 ADD PUSH2 0x2EDA SWAP1 PUSH2 0x3DAA JUMP JUMPDEST PUSH1 0x40 MLOAD DUP1 SWAP2 SUB SWAP1 REVERT JUMPDEST DUP1 PUSH1 0x16 PUSH1 0x0 DUP5 PUSH20 0xFFFFFFFFFFFFFFFFFFFFFFFFFFFFFFFFFFFFFFFF AND PUSH20 0xFFFFFFFFFFFFFFFFFFFFFFFFFFFFFFFFFFFFFFFF AND DUP2 MSTORE PUSH1 0x20 ADD SWAP1 DUP2 MSTORE PUSH1 0x20 ADD PUSH1 0x0 KECCAK256 PUSH1 0x0 PUSH2 0x100 EXP DUP2 SLOAD DUP2 PUSH1 0xFF MUL NOT AND SWAP1 DUP4 ISZERO ISZERO MUL OR SWAP1 SSTORE POP POP POP JUMP JUMPDEST PUSH1 0x0 TIMESTAMP SWAP1 POP SWAP1 JUMP JUMPDEST PUSH1 0x15 PUSH1 0x0 SWAP1 SLOAD SWAP1 PUSH2 0x100 EXP SWAP1 DIV PUSH1 0xFF AND PUSH2 0x3030 JUMPI PUSH1 0x19 PUSH1 0x0 SWAP1 SLOAD SWAP1 PUSH2 0x100 EXP SWAP1 DIV PUSH20 0xFFFFFFFFFFFFFFFFFFFFFFFFFFFFFFFFFFFFFFFF AND PUSH20 0xFFFFFFFFFFFFFFFFFFFFFFFFFFFFFFFFFFFFFFFF AND CALLER PUSH20 0xFFFFFFFFFFFFFFFFFFFFFFFFFFFFFFFFFFFFFFFF AND EQ ISZERO PUSH2 0x2FF4 JUMPI PUSH1 0x0 PUSH1 0x12 SLOAD EQ PUSH2 0x2FBF JUMPI PUSH1 0x0 DUP1 REVERT JUMPDEST PUSH1 0x1 PUSH1 0x15 PUSH1 0x0 PUSH2 0x100 EXP DUP2 SLOAD DUP2 PUSH1 0xFF MUL NOT AND SWAP1 DUP4 ISZERO ISZERO MUL OR SWAP1 SSTORE POP PUSH5 0x218711A000 PUSH1 0x12 DUP2 SWAP1 SSTORE POP PUSH2 0x2FEF DUP2 PUSH2 0x18D3 JUMP JUMPDEST PUSH2 0x302F JUMP JUMPDEST PUSH1 0x40 MLOAD PUSH32 0x8C379A000000000000000000000000000000000000000000000000000000000 DUP2 MSTORE PUSH1 0x4 ADD PUSH2 0x3026 SWAP1 PUSH2 0x404F JUMP JUMPDEST PUSH1 0x40 MLOAD DUP1 SWAP2 SUB SWAP1 REVERT JUMPDEST JUMPDEST POP JUMP JUMPDEST PUSH1 0x19 PUSH1 0x0 SWAP1 SLOAD SWAP1 PUSH2 0x100 EXP SWAP1 DIV PUSH20 0xFFFFFFFFFFFFFFFFFFFFFFFFFFFFFFFFFFFFFFFF AND PUSH20 0xFFFFFFFFFFFFFFFFFFFFFFFFFFFFFFFFFFFFFFFF AND CALLER PUSH20 0xFFFFFFFFFFFFFFFFFFFFFFFFFFFFFFFFFFFFFFFF AND EQ PUSH2 0x30C3 JUMPI PUSH1 0x40 MLOAD PUSH32 0x8C379A000000000000000000000000000000000000000000000000000000000 DUP2 MSTORE PUSH1 0x4 ADD PUSH2 0x30BA SWAP1 PUSH2 0x3DAA JUMP JUMPDEST PUSH1 0x40 MLOAD DUP1 SWAP2 SUB SWAP1 REVERT JUMPDEST PUSH3 0x75120 DUP2 LT ISZERO DUP1 ISZERO PUSH2 0x30D9 JUMPI POP PUSH3 0xAFC80 DUP2 GT ISZERO JUMPDEST PUSH2 0x30E2 JUMPI PUSH1 0x0 DUP1 REVERT JUMPDEST DUP1 PUSH1 0x0 DUP2 SWAP1 SSTORE POP POP JUMP JUMPDEST PUSH1 0x19 PUSH1 0x0 SWAP1 SLOAD SWAP1 PUSH2 0x100 EXP SWAP1 DIV PUSH20 0xFFFFFFFFFFFFFFFFFFFFFFFFFFFFFFFFFFFFFFFF AND PUSH20 0xFFFFFFFFFFFFFFFFFFFFFFFFFFFFFFFFFFFFFFFF AND CALLER PUSH20 0xFFFFFFFFFFFFFFFFFFFFFFFFFFFFFFFFFFFFFFFF AND EQ PUSH2 0x317C JUMPI PUSH1 0x40 MLOAD PUSH32 0x8C379A000000000000000000000000000000000000000000000000000000000 DUP2 MSTORE PUSH1 0x4 ADD PUSH2 0x3173 SWAP1 PUSH2 0x3DAA JUMP JUMPDEST PUSH1 0x40 MLOAD DUP1 SWAP2 SUB SWAP1 REVERT JUMPDEST PUSH1 0xC DUP2 GT ISZERO PUSH2 0x318A JUMPI PUSH1 0x0 DUP1 REVERT JUMPDEST DUP1 PUSH1 0xC DUP2 SWAP1 SSTORE POP POP JUMP JUMPDEST PUSH1 0x19 PUSH1 0x0 SWAP1 SLOAD SWAP1 PUSH2 0x100 EXP SWAP1 DIV PUSH20 0xFFFFFFFFFFFFFFFFFFFFFFFFFFFFFFFFFFFFFFFF AND PUSH20 0xFFFFFFFFFFFFFFFFFFFFFFFFFFFFFFFFFFFFFFFF AND CALLER PUSH20 0xFFFFFFFFFFFFFFFFFFFFFFFFFFFFFFFFFFFFFFFF AND EQ PUSH2 0x3224 JUMPI PUSH1 0x40 MLOAD PUSH32 0x8C379A000000000000000000000000000000000000000000000000000000000 DUP2 MSTORE PUSH1 0x4 ADD PUSH2 0x321B SWAP1 PUSH2 0x3DAA JUMP JUMPDEST PUSH1 0x40 MLOAD DUP1 SWAP2 SUB SWAP1 REVERT JUMPDEST PUSH1 0x0 JUMPDEST DUP4 DUP4 SWAP1 POP DUP2 LT ISZERO PUSH2 0x32C3 JUMPI DUP2 PUSH1 0x16 PUSH1 0x0 DUP7 DUP7 DUP6 DUP2 DUP2 LT PUSH2 0x324A JUMPI PUSH2 0x3249 PUSH2 0x406F JUMP JUMPDEST JUMPDEST SWAP1 POP PUSH1 0x20 MUL ADD PUSH1 0x20 DUP2 ADD SWAP1 PUSH2 0x325F SWAP2 SWAP1 PUSH2 0x39F3 JUMP JUMPDEST PUSH20 0xFFFFFFFFFFFFFFFFFFFFFFFFFFFFFFFFFFFFFFFF AND PUSH20 0xFFFFFFFFFFFFFFFFFFFFFFFFFFFFFFFFFFFFFFFF AND DUP2 MSTORE PUSH1 0x20 ADD SWAP1 DUP2 MSTORE PUSH1 0x20 ADD PUSH1 0x0 KECCAK256 PUSH1 0x0 PUSH2 0x100 EXP DUP2 SLOAD DUP2 PUSH1 0xFF MUL NOT AND SWAP1 DUP4 ISZERO ISZERO MUL OR SWAP1 SSTORE POP DUP1 DUP1 PUSH2 0x32BB SWAP1 PUSH2 0x409E JUMP JUMPDEST SWAP2 POP POP PUSH2 0x3227 JUMP JUMPDEST POP POP POP POP JUMP JUMPDEST PUSH1 0xC SLOAD DUP2 JUMP JUMPDEST PUSH1 0x16 PUSH1 0x20 MSTORE DUP1 PUSH1 0x0 MSTORE PUSH1 0x40 PUSH1 0x0 KECCAK256 PUSH1 0x0 SWAP2 POP SLOAD SWAP1 PUSH2 0x100 EXP SWAP1 DIV PUSH1 0xFF AND DUP2 JUMP JUMPDEST PUSH1 0x0 DUP1 DUP3 DUP5 PUSH2 0x32FE SWAP2 SWAP1 PUSH2 0x40E7 JUMP JUMPDEST SWAP1 POP DUP4 DUP2 LT ISZERO PUSH2 0x3311 JUMPI PUSH2 0x3310 PUSH2 0x413D JUMP JUMPDEST JUMPDEST DUP1 SWAP2 POP POP SWAP3 SWAP2 POP POP JUMP JUMPDEST PUSH1 0x0 DUP3 DUP3 GT ISZERO PUSH2 0x332E JUMPI PUSH2 0x332D PUSH2 0x413D JUMP JUMPDEST JUMPDEST DUP2 DUP4 PUSH2 0x333A SWAP2 SWAP1 PUSH2 0x416C JUMP JUMPDEST SWAP1 POP SWAP3 SWAP2 POP POP JUMP JUMPDEST PUSH1 0x0 DUP1 DUP3 DUP5 PUSH2 0x3351 SWAP2 SWAP1 PUSH2 0x41CF JUMP JUMPDEST SWAP1 POP DUP1 SWAP2 POP POP SWAP3 SWAP2 POP POP JUMP JUMPDEST PUSH1 0x0 DUP1 DUP4 EQ ISZERO PUSH2 0x3370 JUMPI PUSH1 0x0 SWAP1 POP PUSH2 0x33A0 JUMP JUMPDEST PUSH1 0x0 DUP3 DUP5 PUSH2 0x337E SWAP2 SWAP1 PUSH2 0x3E65 JUMP JUMPDEST SWAP1 POP DUP3 DUP5 DUP3 PUSH2 0x338D SWAP2 SWAP1 PUSH2 0x41CF JUMP JUMPDEST EQ PUSH2 0x339B JUMPI PUSH2 0x339A PUSH2 0x413D JUMP JUMPDEST JUMPDEST DUP1 SWAP2 POP POP JUMPDEST SWAP3 SWAP2 POP POP JUMP JUMPDEST PUSH1 0x0 DUP3 SWAP1 POP PUSH1 0x0 PUSH1 0x3 PUSH8 0xFFFFFFFFFFFFFFFF DUP2 GT ISZERO PUSH2 0x33C8 JUMPI PUSH2 0x33C7 PUSH2 0x4200 JUMP JUMPDEST JUMPDEST PUSH1 0x40 MLOAD SWAP1 DUP1 DUP3 MSTORE DUP1 PUSH1 0x20 MUL PUSH1 0x20 ADD DUP3 ADD PUSH1 0x40 MSTORE DUP1 ISZERO PUSH2 0x33F6 JUMPI DUP2 PUSH1 0x20 ADD PUSH1 0x20 DUP3 MUL DUP1 CALLDATASIZE DUP4 CALLDATACOPY DUP1 DUP3 ADD SWAP2 POP POP SWAP1 POP JUMPDEST POP SWAP1 POP PUSH1 0x8 DUP2 PUSH1 0x0 DUP2 MLOAD DUP2 LT PUSH2 0x340F JUMPI PUSH2 0x340E PUSH2 0x406F JUMP JUMPDEST JUMPDEST PUSH1 0x20 MUL PUSH1 0x20 ADD ADD DUP2 DUP2 MSTORE POP POP PUSH1 0x3 DUP2 PUSH1 0x1 DUP2 MLOAD DUP2 LT PUSH2 0x3431 JUMPI PUSH2 0x3430 PUSH2 0x406F JUMP JUMPDEST JUMPDEST PUSH1 0x20 MUL PUSH1 0x20 ADD ADD DUP2 DUP2 MSTORE POP POP PUSH1 0x2 DUP2 PUSH1 0x2 DUP2 MLOAD DUP2 LT PUSH2 0x3453 JUMPI PUSH2 0x3452 PUSH2 0x406F JUMP JUMPDEST JUMPDEST PUSH1 0x20 MUL PUSH1 0x20 ADD ADD DUP2 DUP2 MSTORE POP POP PUSH1 0x0 JUMPDEST PUSH1 0x3 DUP2 LT ISZERO PUSH2 0x36B7 JUMPI PUSH1 0x0 PUSH20 0xFFFFFFFFFFFFFFFFFFFFFFFFFFFFFFFFFFFFFFFF AND PUSH1 0x20 PUSH1 0x0 DUP6 PUSH20 0xFFFFFFFFFFFFFFFFFFFFFFFFFFFFFFFFFFFFFFFF AND PUSH20 0xFFFFFFFFFFFFFFFFFFFFFFFFFFFFFFFFFFFFFFFF AND DUP2 MSTORE PUSH1 0x20 ADD SWAP1 DUP2 MSTORE PUSH1 0x20 ADD PUSH1 0x0 KECCAK256 PUSH1 0x5 ADD PUSH1 0x0 SWAP1 SLOAD SWAP1 PUSH2 0x100 EXP SWAP1 DIV PUSH20 0xFFFFFFFFFFFFFFFFFFFFFFFFFFFFFFFFFFFFFFFF AND PUSH20 0xFFFFFFFFFFFFFFFFFFFFFFFFFFFFFFFFFFFFFFFF AND EQ PUSH2 0x369F JUMPI PUSH1 0x20 PUSH1 0x0 DUP5 PUSH20 0xFFFFFFFFFFFFFFFFFFFFFFFFFFFFFFFFFFFFFFFF AND PUSH20 0xFFFFFFFFFFFFFFFFFFFFFFFFFFFFFFFFFFFFFFFF AND DUP2 MSTORE PUSH1 0x20 ADD SWAP1 DUP2 MSTORE PUSH1 0x20 ADD PUSH1 0x0 KECCAK256 PUSH1 0x5 ADD PUSH1 0x0 SWAP1 SLOAD SWAP1 PUSH2 0x100 EXP SWAP1 DIV PUSH20 0xFFFFFFFFFFFFFFFFFFFFFFFFFFFFFFFFFFFFFFFF AND SWAP3 POP PUSH1 0x0 PUSH1 0x64 DUP6 DUP5 DUP5 DUP2 MLOAD DUP2 LT PUSH2 0x357E JUMPI PUSH2 0x357D PUSH2 0x406F JUMP JUMPDEST JUMPDEST PUSH1 0x20 MUL PUSH1 0x20 ADD ADD MLOAD PUSH2 0x3590 SWAP2 SWAP1 PUSH2 0x3E65 JUMP JUMPDEST PUSH2 0x359A SWAP2 SWAP1 PUSH2 0x41CF JUMP JUMPDEST SWAP1 POP DUP4 PUSH20 0xFFFFFFFFFFFFFFFFFFFFFFFFFFFFFFFFFFFFFFFF AND PUSH2 0x8FC DUP3 SWAP1 DUP2 ISZERO MUL SWAP1 PUSH1 0x40 MLOAD PUSH1 0x0 PUSH1 0x40 MLOAD DUP1 DUP4 SUB DUP2 DUP6 DUP9 DUP9 CALL SWAP4 POP POP POP POP ISZERO DUP1 ISZERO PUSH2 0x35E2 JUMPI RETURNDATASIZE PUSH1 0x0 DUP1 RETURNDATACOPY RETURNDATASIZE PUSH1 0x0 REVERT JUMPDEST POP PUSH2 0x3638 DUP2 PUSH1 0x20 PUSH1 0x0 DUP8 PUSH20 0xFFFFFFFFFFFFFFFFFFFFFFFFFFFFFFFFFFFFFFFF AND PUSH20 0xFFFFFFFFFFFFFFFFFFFFFFFFFFFFFFFFFFFFFFFF AND DUP2 MSTORE PUSH1 0x20 ADD SWAP1 DUP2 MSTORE PUSH1 0x20 ADD PUSH1 0x0 KECCAK256 PUSH1 0x7 ADD SLOAD PUSH2 0x32EF SWAP1 SWAP2 SWAP1 PUSH4 0xFFFFFFFF AND JUMP JUMPDEST PUSH1 0x20 PUSH1 0x0 DUP7 PUSH20 0xFFFFFFFFFFFFFFFFFFFFFFFFFFFFFFFFFFFFFFFF AND PUSH20 0xFFFFFFFFFFFFFFFFFFFFFFFFFFFFFFFFFFFFFFFF AND DUP2 MSTORE PUSH1 0x20 ADD SWAP1 DUP2 MSTORE PUSH1 0x20 ADD PUSH1 0x0 KECCAK256 PUSH1 0x7 ADD DUP2 SWAP1 SSTORE POP PUSH2 0x3693 DUP2 PUSH1 0x10 SLOAD PUSH2 0x32EF SWAP1 SWAP2 SWAP1 PUSH4 0xFFFFFFFF AND JUMP JUMPDEST PUSH1 0x10 DUP2 SWAP1 SSTORE POP POP PUSH2 0x36A4 JUMP JUMPDEST PUSH2 0x36B7 JUMP JUMPDEST DUP1 DUP1 PUSH2 0x36AF SWAP1 PUSH2 0x409E JUMP JUMPDEST SWAP2 POP POP PUSH2 0x3462 JUMP JUMPDEST POP POP POP POP POP JUMP JUMPDEST PUSH1 0x0 DUP1 PUSH2 0x36EA PUSH1 0x2 SLOAD PUSH2 0x36DC PUSH1 0x3 SLOAD DUP7 PUSH2 0x335D SWAP1 SWAP2 SWAP1 PUSH4 0xFFFFFFFF AND JUMP JUMPDEST PUSH2 0x3342 SWAP1 SWAP2 SWAP1 PUSH4 0xFFFFFFFF AND JUMP JUMPDEST SWAP1 POP PUSH1 0x0 PUSH2 0x3717 PUSH1 0x2 SLOAD PUSH2 0x3709 PUSH1 0x4 SLOAD DUP8 PUSH2 0x335D SWAP1 SWAP2 SWAP1 PUSH4 0xFFFFFFFF AND JUMP JUMPDEST PUSH2 0x3342 SWAP1 SWAP2 SWAP1 PUSH4 0xFFFFFFFF AND JUMP JUMPDEST SWAP1 POP PUSH1 0x1A PUSH1 0x0 SWAP1 SLOAD SWAP1 PUSH2 0x100 EXP SWAP1 DIV PUSH20 0xFFFFFFFFFFFFFFFFFFFFFFFFFFFFFFFFFFFFFFFF AND PUSH20 0xFFFFFFFFFFFFFFFFFFFFFFFFFFFFFFFFFFFFFFFF AND PUSH2 0x8FC DUP4 SWAP1 DUP2 ISZERO MUL SWAP1 PUSH1 0x40 MLOAD PUSH1 0x0 PUSH1 0x40 MLOAD DUP1 DUP4 SUB DUP2 DUP6 DUP9 DUP9 CALL SWAP4 POP POP POP POP ISZERO DUP1 ISZERO PUSH2 0x3781 JUMPI RETURNDATASIZE PUSH1 0x0 DUP1 RETURNDATACOPY RETURNDATASIZE PUSH1 0x0 REVERT JUMPDEST POP PUSH2 0x37A8 PUSH2 0x3799 PUSH1 0x5 DUP5 PUSH2 0x335D SWAP1 SWAP2 SWAP1 PUSH4 0xFFFFFFFF AND JUMP JUMPDEST DUP3 PUSH2 0x32EF SWAP1 SWAP2 SWAP1 PUSH4 0xFFFFFFFF AND JUMP JUMPDEST SWAP3 POP POP POP SWAP2 SWAP1 POP JUMP JUMPDEST PUSH1 0x0 DUP2 DUP4 LT PUSH2 0x37C0 JUMPI DUP2 PUSH2 0x37C2 JUMP JUMPDEST DUP3 JUMPDEST SWAP1 POP SWAP3 SWAP2 POP POP JUMP JUMPDEST PUSH1 0x0 DUP2 SWAP1 POP SWAP2 SWAP1 POP JUMP JUMPDEST PUSH2 0x37DD DUP2 PUSH2 0x37CA JUMP JUMPDEST DUP3 MSTORE POP POP JUMP JUMPDEST PUSH1 0x0 PUSH1 0x20 DUP3 ADD SWAP1 POP PUSH2 0x37F8 PUSH1 0x0 DUP4 ADD DUP5 PUSH2 0x37D4 JUMP JUMPDEST SWAP3 SWAP2 POP POP JUMP JUMPDEST PUSH1 0x0 PUSH20 0xFFFFFFFFFFFFFFFFFFFFFFFFFFFFFFFFFFFFFFFF DUP3 AND SWAP1 POP SWAP2 SWAP1 POP JUMP JUMPDEST PUSH1 0x0 PUSH2 0x3829 DUP3 PUSH2 0x37FE JUMP JUMPDEST SWAP1 POP SWAP2 SWAP1 POP JUMP JUMPDEST PUSH2 0x3839 DUP2 PUSH2 0x381E JUMP JUMPDEST DUP3 MSTORE POP POP JUMP JUMPDEST PUSH1 0x0 PUSH1 0x20 DUP3 ADD SWAP1 POP PUSH2 0x3854 PUSH1 0x0 DUP4 ADD DUP5 PUSH2 0x3830 JUMP JUMPDEST SWAP3 SWAP2 POP POP JUMP JUMPDEST PUSH1 0x0 DUP1 REVERT JUMPDEST PUSH1 0x0 DUP1 REVERT JUMPDEST PUSH1 0x0 DUP2 ISZERO ISZERO SWAP1 POP SWAP2 SWAP1 POP JUMP JUMPDEST PUSH2 0x3879 DUP2 PUSH2 0x3864 JUMP JUMPDEST DUP2 EQ PUSH2 0x3884 JUMPI PUSH1 0x0 DUP1 REVERT JUMPDEST POP JUMP JUMPDEST PUSH1 0x0 DUP2 CALLDATALOAD SWAP1 POP PUSH2 0x3896 DUP2 PUSH2 0x3870 JUMP JUMPDEST SWAP3 SWAP2 POP POP JUMP JUMPDEST PUSH1 0x0 PUSH1 0x20 DUP3 DUP5 SUB SLT ISZERO PUSH2 0x38B2 JUMPI PUSH2 0x38B1 PUSH2 0x385A JUMP JUMPDEST JUMPDEST PUSH1 0x0 PUSH2 0x38C0 DUP5 DUP3 DUP6 ADD PUSH2 0x3887 JUMP JUMPDEST SWAP2 POP POP SWAP3 SWAP2 POP POP JUMP JUMPDEST PUSH2 0x38D2 DUP2 PUSH2 0x37CA JUMP JUMPDEST DUP2 EQ PUSH2 0x38DD JUMPI PUSH1 0x0 DUP1 REVERT JUMPDEST POP JUMP JUMPDEST PUSH1 0x0 DUP2 CALLDATALOAD SWAP1 POP PUSH2 0x38EF DUP2 PUSH2 0x38C9 JUMP JUMPDEST SWAP3 SWAP2 POP POP JUMP JUMPDEST PUSH1 0x0 PUSH1 0x20 DUP3 DUP5 SUB SLT ISZERO PUSH2 0x390B JUMPI PUSH2 0x390A PUSH2 0x385A JUMP JUMPDEST JUMPDEST PUSH1 0x0 PUSH2 0x3919 DUP5 DUP3 DUP6 ADD PUSH2 0x38E0 JUMP JUMPDEST SWAP2 POP POP SWAP3 SWAP2 POP POP JUMP JUMPDEST PUSH1 0x0 DUP1 PUSH1 0x0 PUSH1 0x60 DUP5 DUP7 SUB SLT ISZERO PUSH2 0x393B JUMPI PUSH2 0x393A PUSH2 0x385A JUMP JUMPDEST JUMPDEST PUSH1 0x0 PUSH2 0x3949 DUP7 DUP3 DUP8 ADD PUSH2 0x38E0 JUMP JUMPDEST SWAP4 POP POP PUSH1 0x20 PUSH2 0x395A DUP7 DUP3 DUP8 ADD PUSH2 0x38E0 JUMP JUMPDEST SWAP3 POP POP PUSH1 0x40 PUSH2 0x396B DUP7 DUP3 DUP8 ADD PUSH2 0x38E0 JUMP JUMPDEST SWAP2 POP POP SWAP3 POP SWAP3 POP SWAP3 JUMP JUMPDEST PUSH1 0x0 DUP1 PUSH1 0x40 DUP4 DUP6 SUB SLT ISZERO PUSH2 0x398C JUMPI PUSH2 0x398B PUSH2 0x385A JUMP JUMPDEST JUMPDEST PUSH1 0x0 PUSH2 0x399A DUP6 DUP3 DUP7 ADD PUSH2 0x38E0 JUMP JUMPDEST SWAP3 POP POP PUSH1 0x20 PUSH2 0x39AB DUP6 DUP3 DUP7 ADD PUSH2 0x38E0 JUMP JUMPDEST SWAP2 POP POP SWAP3 POP SWAP3 SWAP1 POP JUMP JUMPDEST PUSH1 0x0 PUSH2 0x39C0 DUP3 PUSH2 0x37FE JUMP JUMPDEST SWAP1 POP SWAP2 SWAP1 POP JUMP JUMPDEST PUSH2 0x39D0 DUP2 PUSH2 0x39B5 JUMP JUMPDEST DUP2 EQ PUSH2 0x39DB JUMPI PUSH1 0x0 DUP1 REVERT JUMPDEST POP JUMP JUMPDEST PUSH1 0x0 DUP2 CALLDATALOAD SWAP1 POP PUSH2 0x39ED DUP2 PUSH2 0x39C7 JUMP JUMPDEST SWAP3 SWAP2 POP POP JUMP JUMPDEST PUSH1 0x0 PUSH1 0x20 DUP3 DUP5 SUB SLT ISZERO PUSH2 0x3A09 JUMPI PUSH2 0x3A08 PUSH2 0x385A JUMP JUMPDEST JUMPDEST PUSH1 0x0 PUSH2 0x3A17 DUP5 DUP3 DUP6 ADD PUSH2 0x39DE JUMP JUMPDEST SWAP2 POP POP SWAP3 SWAP2 POP POP JUMP JUMPDEST PUSH2 0x3A29 DUP2 PUSH2 0x3864 JUMP JUMPDEST DUP3 MSTORE POP POP JUMP JUMPDEST PUSH1 0x0 PUSH1 0x20 DUP3 ADD SWAP1 POP PUSH2 0x3A44 PUSH1 0x0 DUP4 ADD DUP5 PUSH2 0x3A20 JUMP JUMPDEST SWAP3 SWAP2 POP POP JUMP JUMPDEST PUSH1 0x0 PUSH1 0x80 DUP3 ADD SWAP1 POP PUSH2 0x3A5F PUSH1 0x0 DUP4 ADD DUP8 PUSH2 0x37D4 JUMP JUMPDEST PUSH2 0x3A6C PUSH1 0x20 DUP4 ADD DUP7 PUSH2 0x37D4 JUMP JUMPDEST PUSH2 0x3A79 PUSH1 0x40 DUP4 ADD DUP6 PUSH2 0x37D4 JUMP JUMPDEST PUSH2 0x3A86 PUSH1 0x60 DUP4 ADD DUP5 PUSH2 0x37D4 JUMP JUMPDEST SWAP6 SWAP5 POP POP POP POP POP JUMP JUMPDEST PUSH1 0x0 DUP1 PUSH1 0x40 DUP4 DUP6 SUB SLT ISZERO PUSH2 0x3AA6 JUMPI PUSH2 0x3AA5 PUSH2 0x385A JUMP JUMPDEST JUMPDEST PUSH1 0x0 PUSH2 0x3AB4 DUP6 DUP3 DUP7 ADD PUSH2 0x39DE JUMP JUMPDEST SWAP3 POP POP PUSH1 0x20 PUSH2 0x3AC5 DUP6 DUP3 DUP7 ADD PUSH2 0x38E0 JUMP JUMPDEST SWAP2 POP POP SWAP3 POP SWAP3 SWAP1 POP JUMP JUMPDEST PUSH2 0x3AD8 DUP2 PUSH2 0x39B5 JUMP JUMPDEST DUP3 MSTORE POP POP JUMP JUMPDEST PUSH1 0x0 PUSH2 0x180 DUP3 ADD SWAP1 POP PUSH2 0x3AF4 PUSH1 0x0 DUP4 ADD DUP16 PUSH2 0x37D4 JUMP JUMPDEST PUSH2 0x3B01 PUSH1 0x20 DUP4 ADD DUP15 PUSH2 0x37D4 JUMP JUMPDEST PUSH2 0x3B0E PUSH1 0x40 DUP4 ADD DUP14 PUSH2 0x37D4 JUMP JUMPDEST PUSH2 0x3B1B PUSH1 0x60 DUP4 ADD DUP13 PUSH2 0x37D4 JUMP JUMPDEST PUSH2 0x3B28 PUSH1 0x80 DUP4 ADD DUP12 PUSH2 0x37D4 JUMP JUMPDEST PUSH2 0x3B35 PUSH1 0xA0 DUP4 ADD DUP11 PUSH2 0x3ACF JUMP JUMPDEST PUSH2 0x3B42 PUSH1 0xC0 DUP4 ADD DUP10 PUSH2 0x37D4 JUMP JUMPDEST PUSH2 0x3B4F PUSH1 0xE0 DUP4 ADD DUP9 PUSH2 0x37D4 JUMP JUMPDEST PUSH2 0x3B5D PUSH2 0x100 DUP4 ADD DUP8 PUSH2 0x37D4 JUMP JUMPDEST PUSH2 0x3B6B PUSH2 0x120 DUP4 ADD DUP7 PUSH2 0x37D4 JUMP JUMPDEST PUSH2 0x3B79 PUSH2 0x140 DUP4 ADD DUP6 PUSH2 0x37D4 JUMP JUMPDEST PUSH2 0x3B87 PUSH2 0x160 DUP4 ADD DUP5 PUSH2 0x37D4 JUMP JUMPDEST SWAP14 SWAP13 POP POP POP POP POP POP POP POP POP POP POP POP POP JUMP JUMPDEST PUSH1 0x0 PUSH1 0x20 DUP3 ADD SWAP1 POP PUSH2 0x3BAD PUSH1 0x0 DUP4 ADD DUP5 PUSH2 0x3ACF JUMP JUMPDEST SWAP3 SWAP2 POP POP JUMP JUMPDEST PUSH1 0x0 PUSH1 0x40 DUP3 ADD SWAP1 POP PUSH2 0x3BC8 PUSH1 0x0 DUP4 ADD DUP6 PUSH2 0x37D4 JUMP JUMPDEST PUSH2 0x3BD5 PUSH1 0x20 DUP4 ADD DUP5 PUSH2 0x37D4 JUMP JUMPDEST SWAP4 SWAP3 POP POP POP JUMP JUMPDEST PUSH1 0x0 DUP1 PUSH1 0x40 DUP4 DUP6 SUB SLT ISZERO PUSH2 0x3BF3 JUMPI PUSH2 0x3BF2 PUSH2 0x385A JUMP JUMPDEST JUMPDEST PUSH1 0x0 PUSH2 0x3C01 DUP6 DUP3 DUP7 ADD PUSH2 0x39DE JUMP JUMPDEST SWAP3 POP POP PUSH1 0x20 PUSH2 0x3C12 DUP6 DUP3 DUP7 ADD PUSH2 0x3887 JUMP JUMPDEST SWAP2 POP POP SWAP3 POP SWAP3 SWAP1 POP JUMP JUMPDEST PUSH1 0x0 DUP1 REVERT JUMPDEST PUSH1 0x0 DUP1 REVERT JUMPDEST PUSH1 0x0 DUP1 REVERT JUMPDEST PUSH1 0x0 DUP1 DUP4 PUSH1 0x1F DUP5 ADD SLT PUSH2 0x3C41 JUMPI PUSH2 0x3C40 PUSH2 0x3C1C JUMP JUMPDEST JUMPDEST DUP3 CALLDATALOAD SWAP1 POP PUSH8 0xFFFFFFFFFFFFFFFF DUP2 GT ISZERO PUSH2 0x3C5E JUMPI PUSH2 0x3C5D PUSH2 0x3C21 JUMP JUMPDEST JUMPDEST PUSH1 0x20 DUP4 ADD SWAP2 POP DUP4 PUSH1 0x20 DUP3 MUL DUP4 ADD GT ISZERO PUSH2 0x3C7A JUMPI PUSH2 0x3C79 PUSH2 0x3C26 JUMP JUMPDEST JUMPDEST SWAP3 POP SWAP3 SWAP1 POP JUMP JUMPDEST PUSH1 0x0 DUP1 PUSH1 0x0 PUSH1 0x40 DUP5 DUP7 SUB SLT ISZERO PUSH2 0x3C9A JUMPI PUSH2 0x3C99 PUSH2 0x385A JUMP JUMPDEST JUMPDEST PUSH1 0x0 DUP5 ADD CALLDATALOAD PUSH8 0xFFFFFFFFFFFFFFFF DUP2 GT ISZERO PUSH2 0x3CB8 JUMPI PUSH2 0x3CB7 PUSH2 0x385F JUMP JUMPDEST JUMPDEST PUSH2 0x3CC4 DUP7 DUP3 DUP8 ADD PUSH2 0x3C2B JUMP JUMPDEST SWAP4 POP SWAP4 POP POP PUSH1 0x20 PUSH2 0x3CD7 DUP7 DUP3 DUP8 ADD PUSH2 0x3887 JUMP JUMPDEST SWAP2 POP POP SWAP3 POP SWAP3 POP SWAP3 JUMP JUMPDEST PUSH1 0x0 DUP3 DUP3 MSTORE PUSH1 0x20 DUP3 ADD SWAP1 POP SWAP3 SWAP2 POP POP JUMP JUMPDEST PUSH32 0x436F6E7472616374206E6F742079657420537461727465642E00000000000000 PUSH1 0x0 DUP3 ADD MSTORE POP JUMP JUMPDEST PUSH1 0x0 PUSH2 0x3D28 PUSH1 0x19 DUP4 PUSH2 0x3CE1 JUMP JUMPDEST SWAP2 POP PUSH2 0x3D33 DUP3 PUSH2 0x3CF2 JUMP JUMPDEST PUSH1 0x20 DUP3 ADD SWAP1 POP SWAP2 SWAP1 POP JUMP JUMPDEST PUSH1 0x0 PUSH1 0x20 DUP3 ADD SWAP1 POP DUP2 DUP2 SUB PUSH1 0x0 DUP4 ADD MSTORE PUSH2 0x3D57 DUP2 PUSH2 0x3D1B JUMP JUMPDEST SWAP1 POP SWAP2 SWAP1 POP JUMP JUMPDEST PUSH32 0x41646D696E20757365206F6E6C792E0000000000000000000000000000000000 PUSH1 0x0 DUP3 ADD MSTORE POP JUMP JUMPDEST PUSH1 0x0 PUSH2 0x3D94 PUSH1 0xF DUP4 PUSH2 0x3CE1 JUMP JUMPDEST SWAP2 POP PUSH2 0x3D9F DUP3 PUSH2 0x3D5E JUMP JUMPDEST PUSH1 0x20 DUP3 ADD SWAP1 POP SWAP2 SWAP1 POP JUMP JUMPDEST PUSH1 0x0 PUSH1 0x20 DUP3 ADD SWAP1 POP DUP2 DUP2 SUB PUSH1 0x0 DUP4 ADD MSTORE PUSH2 0x3DC3 DUP2 PUSH2 0x3D87 JUMP JUMPDEST SWAP1 POP SWAP2 SWAP1 POP JUMP JUMPDEST PUSH32 0x41646D696E20757365206F6E6C79000000000000000000000000000000000000 PUSH1 0x0 DUP3 ADD MSTORE POP JUMP JUMPDEST PUSH1 0x0 PUSH2 0x3E00 PUSH1 0xE DUP4 PUSH2 0x3CE1 JUMP JUMPDEST SWAP2 POP PUSH2 0x3E0B DUP3 PUSH2 0x3DCA JUMP JUMPDEST PUSH1 0x20 DUP3 ADD SWAP1 POP SWAP2 SWAP1 POP JUMP JUMPDEST PUSH1 0x0 PUSH1 0x20 DUP3 ADD SWAP1 POP DUP2 DUP2 SUB PUSH1 0x0 DUP4 ADD MSTORE PUSH2 0x3E2F DUP2 PUSH2 0x3DF3 JUMP JUMPDEST SWAP1 POP SWAP2 SWAP1 POP JUMP JUMPDEST PUSH32 0x4E487B7100000000000000000000000000000000000000000000000000000000 PUSH1 0x0 MSTORE PUSH1 0x11 PUSH1 0x4 MSTORE PUSH1 0x24 PUSH1 0x0 REVERT JUMPDEST PUSH1 0x0 PUSH2 0x3E70 DUP3 PUSH2 0x37CA JUMP JUMPDEST SWAP2 POP PUSH2 0x3E7B DUP4 PUSH2 0x37CA JUMP JUMPDEST SWAP3 POP DUP2 PUSH32 0xFFFFFFFFFFFFFFFFFFFFFFFFFFFFFFFFFFFFFFFFFFFFFFFFFFFFFFFFFFFFFFFF DIV DUP4 GT DUP3 ISZERO ISZERO AND ISZERO PUSH2 0x3EB4 JUMPI PUSH2 0x3EB3 PUSH2 0x3E36 JUMP JUMPDEST JUMPDEST DUP3 DUP3 MUL SWAP1 POP SWAP3 SWAP2 POP POP JUMP JUMPDEST PUSH32 0x4D696E696E756D20696E766573746D656E74206E6F74206D65742E0000000000 PUSH1 0x0 DUP3 ADD MSTORE POP JUMP JUMPDEST PUSH1 0x0 PUSH2 0x3EF5 PUSH1 0x1B DUP4 PUSH2 0x3CE1 JUMP JUMPDEST SWAP2 POP PUSH2 0x3F00 DUP3 PUSH2 0x3EBF JUMP JUMPDEST PUSH1 0x20 DUP3 ADD SWAP1 POP SWAP2 SWAP1 POP JUMP JUMPDEST PUSH1 0x0 PUSH1 0x20 DUP3 ADD SWAP1 POP DUP2 DUP2 SUB PUSH1 0x0 DUP4 ADD MSTORE PUSH2 0x3F24 DUP2 PUSH2 0x3EE8 JUMP JUMPDEST SWAP1 POP SWAP2 SWAP1 POP JUMP JUMPDEST PUSH32 0x4D6178206465706F736974206C696D697420726561636865642E000000000000 PUSH1 0x0 DUP3 ADD MSTORE POP JUMP JUMPDEST PUSH1 0x0 PUSH2 0x3F61 PUSH1 0x1A DUP4 PUSH2 0x3CE1 JUMP JUMPDEST SWAP2 POP PUSH2 0x3F6C DUP3 PUSH2 0x3F2B JUMP JUMPDEST PUSH1 0x20 DUP3 ADD SWAP1 POP SWAP2 SWAP1 POP JUMP JUMPDEST PUSH1 0x0 PUSH1 0x20 DUP3 ADD SWAP1 POP DUP2 DUP2 SUB PUSH1 0x0 DUP4 ADD MSTORE PUSH2 0x3F90 DUP2 PUSH2 0x3F54 JUMP JUMPDEST SWAP1 POP SWAP2 SWAP1 POP JUMP JUMPDEST PUSH32 0x4164647265737320697320626C61636B6C69737465642E000000000000000000 PUSH1 0x0 DUP3 ADD MSTORE POP JUMP JUMPDEST PUSH1 0x0 PUSH2 0x3FCD PUSH1 0x17 DUP4 PUSH2 0x3CE1 JUMP JUMPDEST SWAP2 POP PUSH2 0x3FD8 DUP3 PUSH2 0x3F97 JUMP JUMPDEST PUSH1 0x20 DUP3 ADD SWAP1 POP SWAP2 SWAP1 POP JUMP JUMPDEST PUSH1 0x0 PUSH1 0x20 DUP3 ADD SWAP1 POP DUP2 DUP2 SUB PUSH1 0x0 DUP4 ADD MSTORE PUSH2 0x3FFC DUP2 PUSH2 0x3FC0 JUMP JUMPDEST SWAP1 POP SWAP2 SWAP1 POP JUMP JUMPDEST PUSH32 0x436F6E7472616374206E6F742079657420737461727465642E00000000000000 PUSH1 0x0 DUP3 ADD MSTORE POP JUMP JUMPDEST PUSH1 0x0 PUSH2 0x4039 PUSH1 0x19 DUP4 PUSH2 0x3CE1 JUMP JUMPDEST SWAP2 POP PUSH2 0x4044 DUP3 PUSH2 0x4003 JUMP JUMPDEST PUSH1 0x20 DUP3 ADD SWAP1 POP SWAP2 SWAP1 POP JUMP JUMPDEST PUSH1 0x0 PUSH1 0x20 DUP3 ADD SWAP1 POP DUP2 DUP2 SUB PUSH1 0x0 DUP4 ADD MSTORE PUSH2 0x4068 DUP2 PUSH2 0x402C JUMP JUMPDEST SWAP1 POP SWAP2 SWAP1 POP JUMP JUMPDEST PUSH32 0x4E487B7100000000000000000000000000000000000000000000000000000000 PUSH1 0x0 MSTORE PUSH1 0x32 PUSH1 0x4 MSTORE PUSH1 0x24 PUSH1 0x0 REVERT JUMPDEST PUSH1 0x0 PUSH2 0x40A9 DUP3 PUSH2 0x37CA JUMP JUMPDEST SWAP2 POP PUSH32 0xFFFFFFFFFFFFFFFFFFFFFFFFFFFFFFFFFFFFFFFFFFFFFFFFFFFFFFFFFFFFFFFF DUP3 EQ ISZERO PUSH2 0x40DC JUMPI PUSH2 0x40DB PUSH2 0x3E36 JUMP JUMPDEST JUMPDEST PUSH1 0x1 DUP3 ADD SWAP1 POP SWAP2 SWAP1 POP JUMP JUMPDEST PUSH1 0x0 PUSH2 0x40F2 DUP3 PUSH2 0x37CA JUMP JUMPDEST SWAP2 POP PUSH2 0x40FD DUP4 PUSH2 0x37CA JUMP JUMPDEST SWAP3 POP DUP3 PUSH32 0xFFFFFFFFFFFFFFFFFFFFFFFFFFFFFFFFFFFFFFFFFFFFFFFFFFFFFFFFFFFFFFFF SUB DUP3 GT ISZERO PUSH2 0x4132 JUMPI PUSH2 0x4131 PUSH2 0x3E36 JUMP JUMPDEST JUMPDEST DUP3 DUP3 ADD SWAP1 POP SWAP3 SWAP2 POP POP JUMP JUMPDEST PUSH32 0x4E487B7100000000000000000000000000000000000000000000000000000000 PUSH1 0x0 MSTORE PUSH1 0x1 PUSH1 0x4 MSTORE PUSH1 0x24 PUSH1 0x0 REVERT JUMPDEST PUSH1 0x0 PUSH2 0x4177 DUP3 PUSH2 0x37CA JUMP JUMPDEST SWAP2 POP PUSH2 0x4182 DUP4 PUSH2 0x37CA JUMP JUMPDEST SWAP3 POP DUP3 DUP3 LT ISZERO PUSH2 0x4195 JUMPI PUSH2 0x4194 PUSH2 0x3E36 JUMP JUMPDEST JUMPDEST DUP3 DUP3 SUB SWAP1 POP SWAP3 SWAP2 POP POP JUMP JUMPDEST PUSH32 0x4E487B7100000000000000000000000000000000000000000000000000000000 PUSH1 0x0 MSTORE PUSH1 0x12 PUSH1 0x4 MSTORE PUSH1 0x24 PUSH1 0x0 REVERT JUMPDEST PUSH1 0x0 PUSH2 0x41DA DUP3 PUSH2 0x37CA JUMP JUMPDEST SWAP2 POP PUSH2 0x41E5 DUP4 PUSH2 0x37CA JUMP JUMPDEST SWAP3 POP DUP3 PUSH2 0x41F5 JUMPI PUSH2 0x41F4 PUSH2 0x41A0 JUMP JUMPDEST JUMPDEST DUP3 DUP3 DIV SWAP1 POP SWAP3 SWAP2 POP POP JUMP JUMPDEST PUSH32 0x4E487B7100000000000000000000000000000000000000000000000000000000 PUSH1 0x0 MSTORE PUSH1 0x41 PUSH1 0x4 MSTORE PUSH1 0x24 PUSH1 0x0 REVERT INVALID LOG2 PUSH5 0x6970667358 0x22 SLT KECCAK256 PUSH26 0xB3B437AF1C53C2FC71AA0476CD0F831F972BBE179F6DE101E761 0xCF 0xD7 POP NOT PUSH31 0x64736F6C634300080900330000000000000000000000000000000000000000 "
				},
				"gasEstimates": {
					"creation": {
						"codeDepositCost": "3399400",
						"executionCost": "infinite",
						"totalCost": "infinite"
					},
					"external": {
						"BONUS_COMPOUND_STEP(uint256)": "infinite",
						"BONUS_DAILY_COMPOUND(uint256)": "24861",
						"BONUS_DAILY_COMPOUND_BONUS_MAX_TIMES(uint256)": "24783",
						"Blacklisted(address)": "2999",
						"CHANGE_OWNERSHIP(address)": "26982",
						"COMPOUND_BONUS()": "2584",
						"COMPOUND_BONUS_MAX_TIMES()": "2518",
						"COMPOUND_FOR_NO_TAX_WITHDRAWAL()": "2561",
						"COMPOUND_STEP()": "2562",
						"CUTOFF_STEP()": "2498",
						"EGGS_TO_HIRE_1MINERS()": "2564",
						"MARKET_EGGS_DIVISOR()": "2519",
						"MIN_INVEST_LIMIT()": "2562",
						"MKT()": "2541",
						"PERCENTS_DIVIDER()": "2499",
						"PRC_EGGS_TO_HIRE_1MINERS(uint256)": "24816",
						"PRC_MARKET_EGGS_DIVISOR(uint256)": "24871",
						"PRC_MKT(uint256)": "24785",
						"PRC_REFERRAL(uint256)": "24906",
						"PRC_TAX(uint256)": "24784",
						"REFERRAL()": "2496",
						"SET_COMPOUND_FOR_NO_TAX_WITHDRAWAL(uint256)": "24804",
						"SET_CUTOFF_STEP(uint256)": "infinite",
						"SET_INVEST_MIN(uint256)": "infinite",
						"SET_WALLET_DEPOSIT_LIMIT(uint256)": "infinite",
						"SET_WITHDRAWAL_TAX(uint256)": "24828",
						"SET_WITHDRAW_COOLDOWN(uint256)": "infinite",
						"TAX()": "2496",
						"WALLET_DEPOSIT_LIMIT()": "2520",
						"WITHDRAWAL_TAX()": "2521",
						"WITHDRAW_COOLDOWN()": "2541",
						"blackListWallet(address,bool)": "27250",
						"blackMultipleWallets(address[],bool)": "infinite",
						"blacklistActive()": "2676",
						"calculateEggBuy(uint256,uint256)": "infinite",
						"calculateEggBuySimple(uint256)": "infinite",
						"calculateEggSell(uint256)": "infinite",
						"calculateEggSellForYield(uint256,uint256)": "infinite",
						"calculateTrade(uint256,uint256,uint256)": "infinite",
						"checkIfBlacklisted(address)": "5187",
						"contractStarted()": "2627",
						"dev1()": "2625",
						"dev2()": "2626",
						"dev3()": "2627",
						"fundContract()": "188",
						"getAvailableEarnings(address)": "infinite",
						"getBalance()": "408",
						"getDailyCompoundBonus(address,uint256)": "infinite",
						"getEggsSinceLastHatch(address)": "infinite",
						"getEggsYield(uint256)": "infinite",
						"getMyEggs()": "infinite",
						"getMyMiners()": "2668",
						"getSiteInfo()": "infinite",
						"getTimeStamp()": "447",
						"getUserInfo(address)": "infinite",
						"hireFarmers(address)": "infinite",
						"hireMoreFarmers(bool)": "infinite",
						"marketEggs()": "2563",
						"mkt()": "2605",
						"owner()": "2582",
						"prtnr1()": "2628",
						"prtnr2()": "2670",
						"sellCrops()": "infinite",
						"setblacklistActive(bool)": "26988",
						"startFarm(address)": "infinite",
						"totalCompound()": "2564",
						"totalDeposits()": "2542",
						"totalRefBonus()": "2518",
						"totalStaked()": "2563",
						"totalWithdrawn()": "2497",
						"users(address)": "infinite"
					},
					"internal": {
						"isContract(address)": "infinite",
						"min(uint256,uint256)": "64",
						"payFees(uint256)": "infinite",
						"sendRewardToReferrals(address,uint256)": "infinite"
					}
				},
				"methodIdentifiers": {
					"BONUS_COMPOUND_STEP(uint256)": "959c95b3",
					"BONUS_DAILY_COMPOUND(uint256)": "6f969d28",
					"BONUS_DAILY_COMPOUND_BONUS_MAX_TIMES(uint256)": "9b9cb69f",
					"Blacklisted(address)": "ffa4e618",
					"CHANGE_OWNERSHIP(address)": "2b039d0e",
					"COMPOUND_BONUS()": "d7206d5d",
					"COMPOUND_BONUS_MAX_TIMES()": "c688f0fb",
					"COMPOUND_FOR_NO_TAX_WITHDRAWAL()": "f6f62886",
					"COMPOUND_STEP()": "752a2628",
					"CUTOFF_STEP()": "3578584f",
					"EGGS_TO_HIRE_1MINERS()": "195a7339",
					"MARKET_EGGS_DIVISOR()": "59eec895",
					"MIN_INVEST_LIMIT()": "cd329fc3",
					"MKT()": "2bc82f7f",
					"PERCENTS_DIVIDER()": "01c234a8",
					"PRC_EGGS_TO_HIRE_1MINERS(uint256)": "e6dc9558",
					"PRC_MARKET_EGGS_DIVISOR(uint256)": "7a62ead7",
					"PRC_MKT(uint256)": "1a7b8d4f",
					"PRC_REFERRAL(uint256)": "570c2979",
					"PRC_TAX(uint256)": "298ea310",
					"REFERRAL()": "c63568c7",
					"SET_COMPOUND_FOR_NO_TAX_WITHDRAWAL(uint256)": "e7576943",
					"SET_CUTOFF_STEP(uint256)": "7c8e4b4c",
					"SET_INVEST_MIN(uint256)": "45f98c29",
					"SET_WALLET_DEPOSIT_LIMIT(uint256)": "7ee28e3c",
					"SET_WITHDRAWAL_TAX(uint256)": "bfa9f304",
					"SET_WITHDRAW_COOLDOWN(uint256)": "45a6a6e0",
					"TAX()": "68f58b03",
					"WALLET_DEPOSIT_LIMIT()": "1848b8dc",
					"WITHDRAWAL_TAX()": "0420c98e",
					"WITHDRAW_COOLDOWN()": "950d91e9",
					"blackListWallet(address,bool)": "d989b4b3",
					"blackMultipleWallets(address[],bool)": "eb271268",
					"blacklistActive()": "b6e6fcf6",
					"calculateEggBuy(uint256,uint256)": "26fd8422",
					"calculateEggBuySimple(uint256)": "7e56fde5",
					"calculateEggSell(uint256)": "8e316327",
					"calculateEggSellForYield(uint256,uint256)": "cc3e9c78",
					"calculateTrade(uint256,uint256,uint256)": "229824c4",
					"checkIfBlacklisted(address)": "c3251b40",
					"contractStarted()": "333f57b3",
					"dev1()": "a327c45d",
					"dev2()": "8013f3a7",
					"dev3()": "2362ce89",
					"fundContract()": "bd097e21",
					"getAvailableEarnings(address)": "64c03a5e",
					"getBalance()": "12065fe0",
					"getDailyCompoundBonus(address,uint256)": "50637dbd",
					"getEggsSinceLastHatch(address)": "d7c8843b",
					"getEggsYield(uint256)": "bdd1ca27",
					"getMyEggs()": "43ce7422",
					"getMyMiners()": "0a76e5ed",
					"getSiteInfo()": "4ce87053",
					"getTimeStamp()": "da235b22",
					"getUserInfo(address)": "6386c1c7",
					"hireFarmers(address)": "50cf1c7a",
					"hireMoreFarmers(bool)": "18c819d8",
					"marketEggs()": "2e9392bb",
					"mkt()": "7cc5b1e6",
					"owner()": "8da5cb5b",
					"prtnr1()": "07aeb7f0",
					"prtnr2()": "8a315efd",
					"sellCrops()": "57386225",
					"setblacklistActive(bool)": "9e9300a5",
					"startFarm(address)": "da5d4cc5",
					"totalCompound()": "7db07c9d",
					"totalDeposits()": "7d882097",
					"totalRefBonus()": "69b11dd5",
					"totalStaked()": "817b1cd2",
					"totalWithdrawn()": "4b319713",
					"users(address)": "a87430ba"
				}
			},
			"storageLayout": {
				"storage": [
					{
						"astId": 8,
						"contract": "contracts/cropsFarmer.sol:BNB_V3",
						"label": "EGGS_TO_HIRE_1MINERS",
						"offset": 0,
						"slot": "0",
						"type": "t_uint256"
					},
					{
						"astId": 11,
						"contract": "contracts/cropsFarmer.sol:BNB_V3",
						"label": "REFERRAL",
						"offset": 0,
						"slot": "1",
						"type": "t_uint256"
					},
					{
						"astId": 14,
						"contract": "contracts/cropsFarmer.sol:BNB_V3",
						"label": "PERCENTS_DIVIDER",
						"offset": 0,
						"slot": "2",
						"type": "t_uint256"
					},
					{
						"astId": 17,
						"contract": "contracts/cropsFarmer.sol:BNB_V3",
						"label": "TAX",
						"offset": 0,
						"slot": "3",
						"type": "t_uint256"
					},
					{
						"astId": 20,
						"contract": "contracts/cropsFarmer.sol:BNB_V3",
						"label": "MKT",
						"offset": 0,
						"slot": "4",
						"type": "t_uint256"
					},
					{
						"astId": 23,
						"contract": "contracts/cropsFarmer.sol:BNB_V3",
						"label": "MARKET_EGGS_DIVISOR",
						"offset": 0,
						"slot": "5",
						"type": "t_uint256"
					},
					{
						"astId": 28,
						"contract": "contracts/cropsFarmer.sol:BNB_V3",
						"label": "MIN_INVEST_LIMIT",
						"offset": 0,
						"slot": "6",
						"type": "t_uint256"
					},
					{
						"astId": 34,
						"contract": "contracts/cropsFarmer.sol:BNB_V3",
						"label": "WALLET_DEPOSIT_LIMIT",
						"offset": 0,
						"slot": "7",
						"type": "t_uint256"
					},
					{
						"astId": 38,
						"contract": "contracts/cropsFarmer.sol:BNB_V3",
						"label": "COMPOUND_BONUS",
						"offset": 0,
						"slot": "8",
						"type": "t_uint256"
					},
					{
						"astId": 41,
						"contract": "contracts/cropsFarmer.sol:BNB_V3",
						"label": "COMPOUND_BONUS_MAX_TIMES",
						"offset": 0,
						"slot": "9",
						"type": "t_uint256"
					},
					{
						"astId": 48,
						"contract": "contracts/cropsFarmer.sol:BNB_V3",
						"label": "COMPOUND_STEP",
						"offset": 0,
						"slot": "10",
						"type": "t_uint256"
					},
					{
						"astId": 51,
						"contract": "contracts/cropsFarmer.sol:BNB_V3",
						"label": "WITHDRAWAL_TAX",
						"offset": 0,
						"slot": "11",
						"type": "t_uint256"
					},
					{
						"astId": 54,
						"contract": "contracts/cropsFarmer.sol:BNB_V3",
						"label": "COMPOUND_FOR_NO_TAX_WITHDRAWAL",
						"offset": 0,
						"slot": "12",
						"type": "t_uint256"
					},
					{
						"astId": 56,
						"contract": "contracts/cropsFarmer.sol:BNB_V3",
						"label": "totalStaked",
						"offset": 0,
						"slot": "13",
						"type": "t_uint256"
					},
					{
						"astId": 58,
						"contract": "contracts/cropsFarmer.sol:BNB_V3",
						"label": "totalDeposits",
						"offset": 0,
						"slot": "14",
						"type": "t_uint256"
					},
					{
						"astId": 60,
						"contract": "contracts/cropsFarmer.sol:BNB_V3",
						"label": "totalCompound",
						"offset": 0,
						"slot": "15",
						"type": "t_uint256"
					},
					{
						"astId": 62,
						"contract": "contracts/cropsFarmer.sol:BNB_V3",
						"label": "totalRefBonus",
						"offset": 0,
						"slot": "16",
						"type": "t_uint256"
					},
					{
						"astId": 64,
						"contract": "contracts/cropsFarmer.sol:BNB_V3",
						"label": "totalWithdrawn",
						"offset": 0,
						"slot": "17",
						"type": "t_uint256"
					},
					{
						"astId": 66,
						"contract": "contracts/cropsFarmer.sol:BNB_V3",
						"label": "marketEggs",
						"offset": 0,
						"slot": "18",
						"type": "t_uint256"
					},
					{
						"astId": 69,
						"contract": "contracts/cropsFarmer.sol:BNB_V3",
						"label": "PSN",
						"offset": 0,
						"slot": "19",
						"type": "t_uint256"
					},
					{
						"astId": 72,
						"contract": "contracts/cropsFarmer.sol:BNB_V3",
						"label": "PSNH",
						"offset": 0,
						"slot": "20",
						"type": "t_uint256"
					},
					{
						"astId": 74,
						"contract": "contracts/cropsFarmer.sol:BNB_V3",
						"label": "contractStarted",
						"offset": 0,
						"slot": "21",
						"type": "t_bool"
					},
					{
						"astId": 77,
						"contract": "contracts/cropsFarmer.sol:BNB_V3",
						"label": "blacklistActive",
						"offset": 1,
						"slot": "21",
						"type": "t_bool"
					},
					{
						"astId": 81,
						"contract": "contracts/cropsFarmer.sol:BNB_V3",
						"label": "Blacklisted",
						"offset": 0,
						"slot": "22",
						"type": "t_mapping(t_address,t_bool)"
					},
					{
						"astId": 88,
						"contract": "contracts/cropsFarmer.sol:BNB_V3",
						"label": "CUTOFF_STEP",
						"offset": 0,
						"slot": "23",
						"type": "t_uint256"
					},
					{
						"astId": 95,
						"contract": "contracts/cropsFarmer.sol:BNB_V3",
						"label": "WITHDRAW_COOLDOWN",
						"offset": 0,
						"slot": "24",
						"type": "t_uint256"
					},
					{
						"astId": 97,
						"contract": "contracts/cropsFarmer.sol:BNB_V3",
						"label": "owner",
						"offset": 0,
						"slot": "25",
						"type": "t_address"
					},
					{
						"astId": 99,
						"contract": "contracts/cropsFarmer.sol:BNB_V3",
						"label": "dev1",
						"offset": 0,
						"slot": "26",
						"type": "t_address_payable"
					},
					{
						"astId": 101,
						"contract": "contracts/cropsFarmer.sol:BNB_V3",
						"label": "dev2",
						"offset": 0,
						"slot": "27",
						"type": "t_address_payable"
					},
					{
						"astId": 103,
						"contract": "contracts/cropsFarmer.sol:BNB_V3",
						"label": "dev3",
						"offset": 0,
						"slot": "28",
						"type": "t_address_payable"
					},
					{
						"astId": 105,
						"contract": "contracts/cropsFarmer.sol:BNB_V3",
						"label": "prtnr1",
						"offset": 0,
						"slot": "29",
						"type": "t_address_payable"
					},
					{
						"astId": 107,
						"contract": "contracts/cropsFarmer.sol:BNB_V3",
						"label": "prtnr2",
						"offset": 0,
						"slot": "30",
						"type": "t_address_payable"
					},
					{
						"astId": 109,
						"contract": "contracts/cropsFarmer.sol:BNB_V3",
						"label": "mkt",
						"offset": 0,
						"slot": "31",
						"type": "t_address_payable"
					},
					{
						"astId": 139,
						"contract": "contracts/cropsFarmer.sol:BNB_V3",
						"label": "users",
						"offset": 0,
						"slot": "32",
						"type": "t_mapping(t_address,t_struct(User)134_storage)"
					}
				],
				"types": {
					"t_address": {
						"encoding": "inplace",
						"label": "address",
						"numberOfBytes": "20"
					},
					"t_address_payable": {
						"encoding": "inplace",
						"label": "address payable",
						"numberOfBytes": "20"
					},
					"t_bool": {
						"encoding": "inplace",
						"label": "bool",
						"numberOfBytes": "1"
					},
					"t_mapping(t_address,t_bool)": {
						"encoding": "mapping",
						"key": "t_address",
						"label": "mapping(address => bool)",
						"numberOfBytes": "32",
						"value": "t_bool"
					},
					"t_mapping(t_address,t_struct(User)134_storage)": {
						"encoding": "mapping",
						"key": "t_address",
						"label": "mapping(address => struct BNB_V3.User)",
						"numberOfBytes": "32",
						"value": "t_struct(User)134_storage"
					},
					"t_struct(User)134_storage": {
						"encoding": "inplace",
						"label": "struct BNB_V3.User",
						"members": [
							{
								"astId": 111,
								"contract": "contracts/cropsFarmer.sol:BNB_V3",
								"label": "initialDeposit",
								"offset": 0,
								"slot": "0",
								"type": "t_uint256"
							},
							{
								"astId": 113,
								"contract": "contracts/cropsFarmer.sol:BNB_V3",
								"label": "userDeposit",
								"offset": 0,
								"slot": "1",
								"type": "t_uint256"
							},
							{
								"astId": 115,
								"contract": "contracts/cropsFarmer.sol:BNB_V3",
								"label": "miners",
								"offset": 0,
								"slot": "2",
								"type": "t_uint256"
							},
							{
								"astId": 117,
								"contract": "contracts/cropsFarmer.sol:BNB_V3",
								"label": "claimedEggs",
								"offset": 0,
								"slot": "3",
								"type": "t_uint256"
							},
							{
								"astId": 119,
								"contract": "contracts/cropsFarmer.sol:BNB_V3",
								"label": "lastHatch",
								"offset": 0,
								"slot": "4",
								"type": "t_uint256"
							},
							{
								"astId": 121,
								"contract": "contracts/cropsFarmer.sol:BNB_V3",
								"label": "referrer",
								"offset": 0,
								"slot": "5",
								"type": "t_address"
							},
							{
								"astId": 123,
								"contract": "contracts/cropsFarmer.sol:BNB_V3",
								"label": "referralsCount",
								"offset": 0,
								"slot": "6",
								"type": "t_uint256"
							},
							{
								"astId": 125,
								"contract": "contracts/cropsFarmer.sol:BNB_V3",
								"label": "referralEggRewards",
								"offset": 0,
								"slot": "7",
								"type": "t_uint256"
							},
							{
								"astId": 127,
								"contract": "contracts/cropsFarmer.sol:BNB_V3",
								"label": "totalWithdrawn",
								"offset": 0,
								"slot": "8",
								"type": "t_uint256"
							},
							{
								"astId": 129,
								"contract": "contracts/cropsFarmer.sol:BNB_V3",
								"label": "dailyCompoundBonus",
								"offset": 0,
								"slot": "9",
								"type": "t_uint256"
							},
							{
								"astId": 131,
								"contract": "contracts/cropsFarmer.sol:BNB_V3",
								"label": "farmerCompoundCount",
								"offset": 0,
								"slot": "10",
								"type": "t_uint256"
							},
							{
								"astId": 133,
								"contract": "contracts/cropsFarmer.sol:BNB_V3",
								"label": "lastWithdrawTime",
								"offset": 0,
								"slot": "11",
								"type": "t_uint256"
							}
						],
						"numberOfBytes": "384"
					},
					"t_uint256": {
						"encoding": "inplace",
						"label": "uint256",
						"numberOfBytes": "32"
					}
				}
			},
			"userdoc": {
				"kind": "user",
				"methods": {
					"COMPOUND_BONUS()": {
						"notice": "25 BNB  *"
					},
					"EGGS_TO_HIRE_1MINERS()": {
						"notice": "base parameters *"
					},
					"PRC_EGGS_TO_HIRE_1MINERS(uint256)": {
						"notice": "percentage setters *"
					},
					"WALLET_DEPOSIT_LIMIT()": {
						"notice": "0.1 BNB  *"
					},
					"getEggsYield(uint256)": {
						"notice": "How many miners and eggs per day user will recieve based on BNB deposit *"
					},
					"hireFarmers(address)": {
						"notice": "transfer amount of BNB *"
					}
				},
				"version": 1
			}
		}
	}
}