{
	"contracts/stake_reward_MLM.sol": {
		"Invest": {
			"abi": [
				{
					"inputs": [],
					"stateMutability": "nonpayable",
					"type": "constructor"
				},
				{
					"inputs": [],
					"name": "DUSDReferralsList",
					"outputs": [
						{
							"internalType": "address[]",
							"name": "",
							"type": "address[]"
						}
					],
					"stateMutability": "view",
					"type": "function"
				},
				{
					"inputs": [],
					"name": "DUSDTotalReferrals",
					"outputs": [
						{
							"internalType": "uint256",
							"name": "",
							"type": "uint256"
						}
					],
					"stateMutability": "view",
					"type": "function"
				},
				{
					"inputs": [
						{
							"internalType": "address",
							"name": "",
							"type": "address"
						}
					],
					"name": "DUSDinvestor",
					"outputs": [
						{
							"internalType": "address",
							"name": "referralFrom",
							"type": "address"
						},
						{
							"internalType": "uint256",
							"name": "reward",
							"type": "uint256"
						},
						{
							"internalType": "uint256",
							"name": "noOfInvestment",
							"type": "uint256"
						},
						{
							"internalType": "uint256",
							"name": "totalInvestment",
							"type": "uint256"
						},
						{
							"internalType": "uint256",
							"name": "totalWithdraw_reward",
							"type": "uint256"
						},
						{
							"internalType": "bool",
							"name": "investBefore",
							"type": "bool"
						},
						{
							"internalType": "uint256",
							"name": "stakeTime",
							"type": "uint256"
						}
					],
					"stateMutability": "view",
					"type": "function"
				},
				{
					"inputs": [
						{
							"internalType": "uint256",
							"name": "_investedamount",
							"type": "uint256"
						},
						{
							"internalType": "address",
							"name": "_referral",
							"type": "address"
						}
					],
					"name": "Stake",
					"outputs": [
						{
							"internalType": "bool",
							"name": "success",
							"type": "bool"
						}
					],
					"stateMutability": "nonpayable",
					"type": "function"
				},
				{
					"inputs": [],
					"name": "denomenator",
					"outputs": [
						{
							"internalType": "uint256",
							"name": "",
							"type": "uint256"
						}
					],
					"stateMutability": "view",
					"type": "function"
				},
				{
					"inputs": [],
					"name": "getAllDUSDinvestments",
					"outputs": [
						{
							"components": [
								{
									"internalType": "uint256",
									"name": "investedAmount",
									"type": "uint256"
								},
								{
									"internalType": "uint256",
									"name": "withdrawnTime",
									"type": "uint256"
								},
								{
									"internalType": "uint256",
									"name": "DepositTime",
									"type": "uint256"
								},
								{
									"internalType": "uint256",
									"name": "investmentNum",
									"type": "uint256"
								},
								{
									"internalType": "uint256",
									"name": "unstakeTime",
									"type": "uint256"
								},
								{
									"internalType": "bool",
									"name": "unstake",
									"type": "bool"
								}
							],
							"internalType": "struct Invest.allInvestments[]",
							"name": "",
							"type": "tuple[]"
						}
					],
					"stateMutability": "view",
					"type": "function"
				},
				{
					"inputs": [],
					"name": "getReward",
					"outputs": [
						{
							"internalType": "uint256",
							"name": "",
							"type": "uint256"
						}
					],
					"stateMutability": "view",
					"type": "function"
				},
				{
					"inputs": [],
					"name": "getTotalInvestmentDUSD",
					"outputs": [
						{
							"internalType": "uint256",
							"name": "",
							"type": "uint256"
						}
					],
					"stateMutability": "view",
					"type": "function"
				},
				{
					"inputs": [],
					"name": "investmentPeriod",
					"outputs": [
						{
							"internalType": "uint256",
							"name": "",
							"type": "uint256"
						}
					],
					"stateMutability": "view",
					"type": "function"
				},
				{
					"inputs": [],
					"name": "max_Stake_amount",
					"outputs": [
						{
							"internalType": "uint256",
							"name": "",
							"type": "uint256"
						}
					],
					"stateMutability": "view",
					"type": "function"
				},
				{
					"inputs": [],
					"name": "min_Stake_amount",
					"outputs": [
						{
							"internalType": "uint256",
							"name": "",
							"type": "uint256"
						}
					],
					"stateMutability": "view",
					"type": "function"
				},
				{
					"inputs": [],
					"name": "owner",
					"outputs": [
						{
							"internalType": "address",
							"name": "",
							"type": "address"
						}
					],
					"stateMutability": "view",
					"type": "function"
				},
				{
					"inputs": [],
					"name": "referralLevel_count",
					"outputs": [
						{
							"internalType": "uint256[]",
							"name": "arr",
							"type": "uint256[]"
						}
					],
					"stateMutability": "view",
					"type": "function"
				},
				{
					"inputs": [],
					"name": "referralLevel_earning",
					"outputs": [
						{
							"internalType": "uint256[]",
							"name": "arr",
							"type": "uint256[]"
						}
					],
					"stateMutability": "view",
					"type": "function"
				},
				{
					"inputs": [],
					"name": "rewardToken",
					"outputs": [
						{
							"internalType": "uint256",
							"name": "",
							"type": "uint256"
						}
					],
					"stateMutability": "view",
					"type": "function"
				},
				{
					"inputs": [
						{
							"internalType": "uint256",
							"name": "_amount",
							"type": "uint256"
						},
						{
							"internalType": "uint256",
							"name": "_denomenator",
							"type": "uint256"
						}
					],
					"name": "setReward",
					"outputs": [],
					"stateMutability": "nonpayable",
					"type": "function"
				},
				{
					"inputs": [
						{
							"internalType": "uint256",
							"name": "_amount",
							"type": "uint256"
						}
					],
					"name": "set_max_Stake_amount",
					"outputs": [],
					"stateMutability": "nonpayable",
					"type": "function"
				},
				{
					"inputs": [
						{
							"internalType": "uint256",
							"name": "_amount",
							"type": "uint256"
						}
					],
					"name": "set_min_Stake_amount",
					"outputs": [],
					"stateMutability": "nonpayable",
					"type": "function"
				},
				{
					"inputs": [
						{
							"internalType": "uint256",
							"name": "min_stake",
							"type": "uint256"
						},
						{
							"internalType": "uint256",
							"name": "max_stake",
							"type": "uint256"
						},
						{
							"internalType": "uint256",
							"name": "reward_per_day",
							"type": "uint256"
						},
						{
							"internalType": "uint256",
							"name": "_denomenator",
							"type": "uint256"
						}
					],
					"name": "set_values",
					"outputs": [],
					"stateMutability": "nonpayable",
					"type": "function"
				},
				{
					"inputs": [],
					"name": "totalDUSDInvestors",
					"outputs": [
						{
							"internalType": "uint256",
							"name": "",
							"type": "uint256"
						}
					],
					"stateMutability": "view",
					"type": "function"
				},
				{
					"inputs": [],
					"name": "totalbusiness",
					"outputs": [
						{
							"internalType": "uint256",
							"name": "",
							"type": "uint256"
						}
					],
					"stateMutability": "view",
					"type": "function"
				},
				{
					"inputs": [
						{
							"internalType": "address",
							"name": "_owner",
							"type": "address"
						}
					],
					"name": "transferOwnership",
					"outputs": [],
					"stateMutability": "nonpayable",
					"type": "function"
				},
				{
					"inputs": [],
					"name": "unStake",
					"outputs": [
						{
							"internalType": "bool",
							"name": "success",
							"type": "bool"
						}
					],
					"stateMutability": "nonpayable",
					"type": "function"
				},
				{
					"inputs": [],
					"name": "withdrawReward",
					"outputs": [
						{
							"internalType": "bool",
							"name": "success",
							"type": "bool"
						}
					],
					"stateMutability": "nonpayable",
					"type": "function"
				}
			],
			"devdoc": {
				"kind": "dev",
				"methods": {},
				"version": 1
			},
			"evm": {
				"assembly": "    /* \"contracts/stake_reward_MLM.sol\":262:12389  contract Invest... */\n  mstore(0x40, 0x80)\n    /* \"contracts/stake_reward_MLM.sol\":351:393  0x735f6e949D39f02BaD26d1698A558a629D416265 */\n  0x735f6e949d39f02bad26d1698a558a629d416265\n    /* \"contracts/stake_reward_MLM.sol\":331:393  address SMCcontract=0x735f6e949D39f02BaD26d1698A558a629D416265 */\n  0x01\n  exp(0x0100, 0x00)\n  dup2\n  sload\n  dup2\n  0xffffffffffffffffffffffffffffffffffffffff\n  mul\n  not\n  and\n  swap1\n  dup4\n  0xffffffffffffffffffffffffffffffffffffffff\n  and\n  mul\n  or\n  swap1\n  sstore\n  pop\n    /* \"contracts/stake_reward_MLM.sol\":424:466  0x63c0F4F599EFcFD747ddEa897117b5293E139BcD */\n  0x63c0f4f599efcfd747ddea897117b5293e139bcd\n    /* \"contracts/stake_reward_MLM.sol\":403:466  address BUSDcontract=0x63c0F4F599EFcFD747ddEa897117b5293E139BcD */\n  0x02\n  exp(0x0100, 0x00)\n  dup2\n  sload\n  dup2\n  0xffffffffffffffffffffffffffffffffffffffff\n  mul\n  not\n  and\n  swap1\n  dup4\n  0xffffffffffffffffffffffffffffffffffffffff\n  and\n  mul\n  or\n  swap1\n  sstore\n  pop\n    /* \"contracts/stake_reward_MLM.sol\":540:559  5000000000000000000 */\n  0x4563918244f40000\n    /* \"contracts/stake_reward_MLM.sol\":516:559  uint public rewardToken=5000000000000000000 */\n  0x04\n  sstore\n    /* \"contracts/stake_reward_MLM.sol\":608:613  10000 */\n  0x2710\n    /* \"contracts/stake_reward_MLM.sol\":579:613  uint public min_Stake_amount=10000 */\n  0x05\n  sstore\n    /* \"contracts/stake_reward_MLM.sol\":679:686  5000000 */\n  0x4c4b40\n    /* \"contracts/stake_reward_MLM.sol\":650:686  uint public max_Stake_amount=5000000 */\n  0x06\n  sstore\n    /* \"contracts/stake_reward_MLM.sol\":748:754  100000 */\n  0x0186a0\n    /* \"contracts/stake_reward_MLM.sol\":724:754  uint public denomenator=100000 */\n  0x07\n  sstore\n    /* \"contracts/stake_reward_MLM.sol\":821:829  300 days */\n  0x018b8200\n    /* \"contracts/stake_reward_MLM.sol\":792:829  uint public investmentPeriod=300 days */\n  0x08\n  sstore\n    /* \"contracts/stake_reward_MLM.sol\":1672:1802  constructor(){... */\n  callvalue\n  dup1\n  iszero\n  tag_1\n  jumpi\n  0x00\n  dup1\n  revert\ntag_1:\n  pop\n    /* \"contracts/stake_reward_MLM.sol\":1718:1728  msg.sender */\n  caller\n    /* \"contracts/stake_reward_MLM.sol\":1712:1717  owner */\n  0x00\n  dup1\n    /* \"contracts/stake_reward_MLM.sol\":1712:1728  owner=msg.sender */\n  0x0100\n  exp\n  dup2\n  sload\n  dup2\n  0xffffffffffffffffffffffffffffffffffffffff\n  mul\n  not\n  and\n  swap1\n  dup4\n  0xffffffffffffffffffffffffffffffffffffffff\n  and\n  mul\n  or\n  swap1\n  sstore\n  pop\n    /* \"contracts/stake_reward_MLM.sol\":262:12389  contract Invest... */\n  dataSize(sub_0)\n  dup1\n  dataOffset(sub_0)\n  0x00\n  codecopy\n  0x00\n  return\nstop\n\nsub_0: assembly {\n        /* \"contracts/stake_reward_MLM.sol\":262:12389  contract Invest... */\n      mstore(0x40, 0x80)\n      callvalue\n      dup1\n      iszero\n      tag_1\n      jumpi\n      0x00\n      dup1\n      revert\n    tag_1:\n      pop\n      jumpi(tag_2, lt(calldatasize, 0x04))\n      shr(0xe0, calldataload(0x00))\n      dup1\n      0x929f6bbe\n      gt\n      tag_27\n      jumpi\n      dup1\n      0xd3560ee8\n      gt\n      tag_28\n      jumpi\n      dup1\n      0xd3560ee8\n      eq\n      tag_21\n      jumpi\n      dup1\n      0xe2033fcb\n      eq\n      tag_22\n      jumpi\n      dup1\n      0xf2fde38b\n      eq\n      tag_23\n      jumpi\n      dup1\n      0xf790b81a\n      eq\n      tag_24\n      jumpi\n      dup1\n      0xf7c618c1\n      eq\n      tag_25\n      jumpi\n      dup1\n      0xfae730bc\n      eq\n      tag_26\n      jumpi\n      jump(tag_2)\n    tag_28:\n      dup1\n      0x929f6bbe\n      eq\n      tag_15\n      jumpi\n      dup1\n      0x9740a1bc\n      eq\n      tag_16\n      jumpi\n      dup1\n      0xa47bd496\n      eq\n      tag_17\n      jumpi\n      dup1\n      0xa61be99d\n      eq\n      tag_18\n      jumpi\n      dup1\n      0xbc67eaff\n      eq\n      tag_19\n      jumpi\n      dup1\n      0xc885bc58\n      eq\n      tag_20\n      jumpi\n      jump(tag_2)\n    tag_27:\n      dup1\n      0x3d18b912\n      gt\n      tag_29\n      jumpi\n      dup1\n      0x3d18b912\n      eq\n      tag_9\n      jumpi\n      dup1\n      0x4eb1ecc9\n      eq\n      tag_10\n      jumpi\n      dup1\n      0x500cb85f\n      eq\n      tag_11\n      jumpi\n      dup1\n      0x523cddfe\n      eq\n      tag_12\n      jumpi\n      dup1\n      0x73cf575a\n      eq\n      tag_13\n      jumpi\n      dup1\n      0x8da5cb5b\n      eq\n      tag_14\n      jumpi\n      jump(tag_2)\n    tag_29:\n      dup1\n      0x0c5f58f4\n      eq\n      tag_3\n      jumpi\n      dup1\n      0x10cde60a\n      eq\n      tag_4\n      jumpi\n      dup1\n      0x1e8aba35\n      eq\n      tag_5\n      jumpi\n      dup1\n      0x2bccdce6\n      eq\n      tag_6\n      jumpi\n      dup1\n      0x32d4e783\n      eq\n      tag_7\n      jumpi\n      dup1\n      0x3a1e0833\n      eq\n      tag_8\n      jumpi\n    tag_2:\n      0x00\n      dup1\n      revert\n        /* \"contracts/stake_reward_MLM.sol\":10149:10358  function DUSDReferralsList() public view returns(address[] memory){ //this function is to get the all investors list with there account number... */\n    tag_3:\n      tag_30\n      tag_31\n      jump\t// in\n    tag_30:\n      mload(0x40)\n      tag_32\n      swap2\n      swap1\n      tag_33\n      jump\t// in\n    tag_32:\n      mload(0x40)\n      dup1\n      swap2\n      sub\n      swap1\n      return\n        /* \"contracts/stake_reward_MLM.sol\":476:506  uint public totalDUSDInvestors */\n    tag_4:\n      tag_34\n      tag_35\n      jump\t// in\n    tag_34:\n      mload(0x40)\n      tag_36\n      swap2\n      swap1\n      tag_37\n      jump\t// in\n    tag_36:\n      mload(0x40)\n      dup1\n      swap2\n      sub\n      swap1\n      return\n        /* \"contracts/stake_reward_MLM.sol\":9948:10139  function DUSDTotalReferrals() public view returns(uint){ // this function is to get the total number of referrals ... */\n    tag_5:\n      tag_38\n      tag_39\n      jump\t// in\n    tag_38:\n      mload(0x40)\n      tag_40\n      swap2\n      swap1\n      tag_37\n      jump\t// in\n    tag_40:\n      mload(0x40)\n      dup1\n      swap2\n      sub\n      swap1\n      return\n        /* \"contracts/stake_reward_MLM.sol\":3469:5564  function Stake(uint _investedamount,address _referral) external returns(bool success){... */\n    tag_6:\n      tag_41\n      0x04\n      dup1\n      calldatasize\n      sub\n      dup2\n      add\n      swap1\n      tag_42\n      swap2\n      swap1\n      tag_43\n      jump\t// in\n    tag_42:\n      tag_44\n      jump\t// in\n    tag_41:\n      mload(0x40)\n      tag_45\n      swap2\n      swap1\n      tag_46\n      jump\t// in\n    tag_45:\n      mload(0x40)\n      dup1\n      swap2\n      sub\n      swap1\n      return\n        /* \"contracts/stake_reward_MLM.sol\":10530:10641  function set_min_Stake_amount(uint _amount) public ... */\n    tag_7:\n      tag_47\n      0x04\n      dup1\n      calldatasize\n      sub\n      dup2\n      add\n      swap1\n      tag_48\n      swap2\n      swap1\n      tag_49\n      jump\t// in\n    tag_48:\n      tag_50\n      jump\t// in\n    tag_47:\n      stop\n        /* \"contracts/stake_reward_MLM.sol\":8953:9936  function getAllDUSDinvestments() public view returns (allInvestments[] memory) { //this function will return the all investments of the investor and withware date... */\n    tag_8:\n      tag_51\n      tag_52\n      jump\t// in\n    tag_51:\n      mload(0x40)\n      tag_53\n      swap2\n      swap1\n      tag_54\n      jump\t// in\n    tag_53:\n      mload(0x40)\n      dup1\n      swap2\n      sub\n      swap1\n      return\n        /* \"contracts/stake_reward_MLM.sol\":5573:6664  function getReward() view public returns(uint){ //this function is get the total reward balance of the investor... */\n    tag_9:\n      tag_55\n      tag_56\n      jump\t// in\n    tag_55:\n      mload(0x40)\n      tag_57\n      swap2\n      swap1\n      tag_37\n      jump\t// in\n    tag_57:\n      mload(0x40)\n      dup1\n      swap2\n      sub\n      swap1\n      return\n        /* \"contracts/stake_reward_MLM.sol\":10770:11052  function set_values(uint min_stake,uint max_stake,uint reward_per_day,uint _denomenator) public ... */\n    tag_10:\n      tag_58\n      0x04\n      dup1\n      calldatasize\n      sub\n      dup2\n      add\n      swap1\n      tag_59\n      swap2\n      swap1\n      tag_60\n      jump\t// in\n    tag_59:\n      tag_61\n      jump\t// in\n    tag_58:\n      stop\n        /* \"contracts/stake_reward_MLM.sol\":10650:10761  function set_max_Stake_amount(uint _amount) public ... */\n    tag_11:\n      tag_62\n      0x04\n      dup1\n      calldatasize\n      sub\n      dup2\n      add\n      swap1\n      tag_63\n      swap2\n      swap1\n      tag_49\n      jump\t// in\n    tag_63:\n      tag_64\n      jump\t// in\n    tag_62:\n      stop\n        /* \"contracts/stake_reward_MLM.sol\":792:829  uint public investmentPeriod=300 days */\n    tag_12:\n      tag_65\n      tag_66\n      jump\t// in\n    tag_65:\n      mload(0x40)\n      tag_67\n      swap2\n      swap1\n      tag_37\n      jump\t// in\n    tag_67:\n      mload(0x40)\n      dup1\n      swap2\n      sub\n      swap1\n      return\n        /* \"contracts/stake_reward_MLM.sol\":7166:8723  function unStake() external  returns (bool success){... */\n    tag_13:\n      tag_68\n      tag_69\n      jump\t// in\n    tag_68:\n      mload(0x40)\n      tag_70\n      swap2\n      swap1\n      tag_46\n      jump\t// in\n    tag_70:\n      mload(0x40)\n      dup1\n      swap2\n      sub\n      swap1\n      return\n        /* \"contracts/stake_reward_MLM.sol\":300:321  address  public owner */\n    tag_14:\n      tag_71\n      tag_72\n      jump\t// in\n    tag_71:\n      mload(0x40)\n      tag_73\n      swap2\n      swap1\n      tag_74\n      jump\t// in\n    tag_73:\n      mload(0x40)\n      dup1\n      swap2\n      sub\n      swap1\n      return\n        /* \"contracts/stake_reward_MLM.sol\":8733:8943  function getTotalInvestmentDUSD() public view returns(uint) {   //this function is to get the total investment of the ivestor... */\n    tag_15:\n      tag_75\n      tag_76\n      jump\t// in\n    tag_75:\n      mload(0x40)\n      tag_77\n      swap2\n      swap1\n      tag_37\n      jump\t// in\n    tag_77:\n      mload(0x40)\n      dup1\n      swap2\n      sub\n      swap1\n      return\n        /* \"contracts/stake_reward_MLM.sol\":724:754  uint public denomenator=100000 */\n    tag_16:\n      tag_78\n      tag_79\n      jump\t// in\n    tag_78:\n      mload(0x40)\n      tag_80\n      swap2\n      swap1\n      tag_37\n      jump\t// in\n    tag_80:\n      mload(0x40)\n      dup1\n      swap2\n      sub\n      swap1\n      return\n        /* \"contracts/stake_reward_MLM.sol\":10367:10521  function setReward(uint _amount,uint _denomenator) public ... */\n    tag_17:\n      tag_81\n      0x04\n      dup1\n      calldatasize\n      sub\n      dup2\n      add\n      swap1\n      tag_82\n      swap2\n      swap1\n      tag_83\n      jump\t// in\n    tag_82:\n      tag_84\n      jump\t// in\n    tag_81:\n      stop\n        /* \"contracts/stake_reward_MLM.sol\":11245:11810  function referralLevel_earning() public view returns( uint[] memory arr )... */\n    tag_18:\n      tag_85\n      tag_86\n      jump\t// in\n    tag_85:\n      mload(0x40)\n      tag_87\n      swap2\n      swap1\n      tag_88\n      jump\t// in\n    tag_87:\n      mload(0x40)\n      dup1\n      swap2\n      sub\n      swap1\n      return\n        /* \"contracts/stake_reward_MLM.sol\":579:613  uint public min_Stake_amount=10000 */\n    tag_19:\n      tag_89\n      tag_90\n      jump\t// in\n    tag_89:\n      mload(0x40)\n      tag_91\n      swap2\n      swap1\n      tag_37\n      jump\t// in\n    tag_91:\n      mload(0x40)\n      dup1\n      swap2\n      sub\n      swap1\n      return\n        /* \"contracts/stake_reward_MLM.sol\":6674:7155  function withdrawReward() external returns (bool success){... */\n    tag_20:\n      tag_92\n      tag_93\n      jump\t// in\n    tag_92:\n      mload(0x40)\n      tag_94\n      swap2\n      swap1\n      tag_46\n      jump\t// in\n    tag_94:\n      mload(0x40)\n      dup1\n      swap2\n      sub\n      swap1\n      return\n        /* \"contracts/stake_reward_MLM.sol\":1619:1661  mapping(address=>Data) public DUSDinvestor */\n    tag_21:\n      tag_95\n      0x04\n      dup1\n      calldatasize\n      sub\n      dup2\n      add\n      swap1\n      tag_96\n      swap2\n      swap1\n      tag_97\n      jump\t// in\n    tag_96:\n      tag_98\n      jump\t// in\n    tag_95:\n      mload(0x40)\n      tag_99\n      swap8\n      swap7\n      swap6\n      swap5\n      swap4\n      swap3\n      swap2\n      swap1\n      tag_100\n      jump\t// in\n    tag_99:\n      mload(0x40)\n      dup1\n      swap2\n      sub\n      swap1\n      return\n        /* \"contracts/stake_reward_MLM.sol\":839:864  uint public totalbusiness */\n    tag_22:\n      tag_101\n      tag_102\n      jump\t// in\n    tag_101:\n      mload(0x40)\n      tag_103\n      swap2\n      swap1\n      tag_37\n      jump\t// in\n    tag_103:\n      mload(0x40)\n      dup1\n      swap2\n      sub\n      swap1\n      return\n        /* \"contracts/stake_reward_MLM.sol\":11061:11235  function transferOwnership(address _owner)  public... */\n    tag_23:\n      tag_104\n      0x04\n      dup1\n      calldatasize\n      sub\n      dup2\n      add\n      swap1\n      tag_105\n      swap2\n      swap1\n      tag_97\n      jump\t// in\n    tag_105:\n      tag_106\n      jump\t// in\n    tag_104:\n      stop\n        /* \"contracts/stake_reward_MLM.sol\":11819:12380  function referralLevel_count() public view returns( uint[] memory arr )... */\n    tag_24:\n      tag_107\n      tag_108\n      jump\t// in\n    tag_107:\n      mload(0x40)\n      tag_109\n      swap2\n      swap1\n      tag_88\n      jump\t// in\n    tag_109:\n      mload(0x40)\n      dup1\n      swap2\n      sub\n      swap1\n      return\n        /* \"contracts/stake_reward_MLM.sol\":516:559  uint public rewardToken=5000000000000000000 */\n    tag_25:\n      tag_110\n      tag_111\n      jump\t// in\n    tag_110:\n      mload(0x40)\n      tag_112\n      swap2\n      swap1\n      tag_37\n      jump\t// in\n    tag_112:\n      mload(0x40)\n      dup1\n      swap2\n      sub\n      swap1\n      return\n        /* \"contracts/stake_reward_MLM.sol\":650:686  uint public max_Stake_amount=5000000 */\n    tag_26:\n      tag_113\n      tag_114\n      jump\t// in\n    tag_113:\n      mload(0x40)\n      tag_115\n      swap2\n      swap1\n      tag_37\n      jump\t// in\n    tag_115:\n      mload(0x40)\n      dup1\n      swap2\n      sub\n      swap1\n      return\n        /* \"contracts/stake_reward_MLM.sol\":10149:10358  function DUSDReferralsList() public view returns(address[] memory){ //this function is to get the all investors list with there account number... */\n    tag_31:\n        /* \"contracts/stake_reward_MLM.sol\":10198:10214  address[] memory */\n      0x60\n        /* \"contracts/stake_reward_MLM.sol\":10310:10322  DUSDinvestor */\n      0x0b\n        /* \"contracts/stake_reward_MLM.sol\":10310:10334  DUSDinvestor[msg.sender] */\n      0x00\n        /* \"contracts/stake_reward_MLM.sol\":10323:10333  msg.sender */\n      caller\n        /* \"contracts/stake_reward_MLM.sol\":10310:10334  DUSDinvestor[msg.sender] */\n      0xffffffffffffffffffffffffffffffffffffffff\n      and\n      0xffffffffffffffffffffffffffffffffffffffff\n      and\n      dup2\n      mstore\n      0x20\n      add\n      swap1\n      dup2\n      mstore\n      0x20\n      add\n      0x00\n      keccak256\n        /* \"contracts/stake_reward_MLM.sol\":10310:10347  DUSDinvestor[msg.sender].hisReferrals */\n      0x01\n      add\n        /* \"contracts/stake_reward_MLM.sol\":10303:10347  return DUSDinvestor[msg.sender].hisReferrals */\n      dup1\n      sload\n      dup1\n      0x20\n      mul\n      0x20\n      add\n      mload(0x40)\n      swap1\n      dup2\n      add\n      0x40\n      mstore\n      dup1\n      swap3\n      swap2\n      swap1\n      dup2\n      dup2\n      mstore\n      0x20\n      add\n      dup3\n      dup1\n      sload\n      dup1\n      iszero\n      tag_117\n      jumpi\n      0x20\n      mul\n      dup3\n      add\n      swap2\n      swap1\n      0x00\n      mstore\n      keccak256(0x00, 0x20)\n      swap1\n    tag_118:\n      dup2\n      0x00\n      swap1\n      sload\n      swap1\n      0x0100\n      exp\n      swap1\n      div\n      0xffffffffffffffffffffffffffffffffffffffff\n      and\n      0xffffffffffffffffffffffffffffffffffffffff\n      and\n      dup2\n      mstore\n      0x20\n      add\n      swap1\n      0x01\n      add\n      swap1\n      dup1\n      dup4\n      gt\n      tag_118\n      jumpi\n    tag_117:\n      pop\n      pop\n      pop\n      pop\n      pop\n      swap1\n      pop\n        /* \"contracts/stake_reward_MLM.sol\":10149:10358  function DUSDReferralsList() public view returns(address[] memory){ //this function is to get the all investors list with there account number... */\n      swap1\n      jump\t// out\n        /* \"contracts/stake_reward_MLM.sol\":476:506  uint public totalDUSDInvestors */\n    tag_35:\n      sload(0x03)\n      dup2\n      jump\t// out\n        /* \"contracts/stake_reward_MLM.sol\":9948:10139  function DUSDTotalReferrals() public view returns(uint){ // this function is to get the total number of referrals ... */\n    tag_39:\n        /* \"contracts/stake_reward_MLM.sol\":9998:10002  uint */\n      0x00\n        /* \"contracts/stake_reward_MLM.sol\":10083:10095  DUSDinvestor */\n      0x0b\n        /* \"contracts/stake_reward_MLM.sol\":10083:10107  DUSDinvestor[msg.sender] */\n      0x00\n        /* \"contracts/stake_reward_MLM.sol\":10096:10106  msg.sender */\n      caller\n        /* \"contracts/stake_reward_MLM.sol\":10083:10107  DUSDinvestor[msg.sender] */\n      0xffffffffffffffffffffffffffffffffffffffff\n      and\n      0xffffffffffffffffffffffffffffffffffffffff\n      and\n      dup2\n      mstore\n      0x20\n      add\n      swap1\n      dup2\n      mstore\n      0x20\n      add\n      0x00\n      keccak256\n        /* \"contracts/stake_reward_MLM.sol\":10083:10120  DUSDinvestor[msg.sender].hisReferrals */\n      0x01\n      add\n        /* \"contracts/stake_reward_MLM.sol\":10082:10128  (DUSDinvestor[msg.sender].hisReferrals).length */\n      dup1\n      sload\n      swap1\n      pop\n        /* \"contracts/stake_reward_MLM.sol\":10075:10128  return (DUSDinvestor[msg.sender].hisReferrals).length */\n      swap1\n      pop\n        /* \"contracts/stake_reward_MLM.sol\":9948:10139  function DUSDTotalReferrals() public view returns(uint){ // this function is to get the total number of referrals ... */\n      swap1\n      jump\t// out\n        /* \"contracts/stake_reward_MLM.sol\":3469:5564  function Stake(uint _investedamount,address _referral) external returns(bool success){... */\n    tag_44:\n        /* \"contracts/stake_reward_MLM.sol\":3541:3553  bool success */\n      0x00\n        /* \"contracts/stake_reward_MLM.sol\":3595:3611  min_Stake_amount */\n      sload(0x05)\n        /* \"contracts/stake_reward_MLM.sol\":3576:3591  _investedamount */\n      dup4\n        /* \"contracts/stake_reward_MLM.sol\":3576:3611  _investedamount >= min_Stake_amount */\n      lt\n      iszero\n        /* \"contracts/stake_reward_MLM.sol\":3576:3650  _investedamount >= min_Stake_amount && _investedamount <= max_Stake_amount */\n      dup1\n      iszero\n      tag_121\n      jumpi\n      pop\n        /* \"contracts/stake_reward_MLM.sol\":3634:3650  max_Stake_amount */\n      sload(0x06)\n        /* \"contracts/stake_reward_MLM.sol\":3615:3630  _investedamount */\n      dup4\n        /* \"contracts/stake_reward_MLM.sol\":3615:3650  _investedamount <= max_Stake_amount */\n      gt\n      iszero\n        /* \"contracts/stake_reward_MLM.sol\":3576:3650  _investedamount >= min_Stake_amount && _investedamount <= max_Stake_amount */\n    tag_121:\n        /* \"contracts/stake_reward_MLM.sol\":3568:3707  require(_investedamount >= min_Stake_amount && _investedamount <= max_Stake_amount,\"value is not greater than 10000 and less than 5000000\") */\n      tag_122\n      jumpi\n      mload(0x40)\n      0x08c379a000000000000000000000000000000000000000000000000000000000\n      dup2\n      mstore\n      0x04\n      add\n      tag_123\n      swap1\n      tag_124\n      jump\t// in\n    tag_123:\n      mload(0x40)\n      dup1\n      swap2\n      sub\n      swap1\n      revert\n    tag_122:\n        /* \"contracts/stake_reward_MLM.sol\":3836:3841  false */\n      0x00\n        /* \"contracts/stake_reward_MLM.sol\":3795:3841  DUSDinvestor[msg.sender].investBefore == false */\n      iszero\n      iszero\n        /* \"contracts/stake_reward_MLM.sol\":3795:3807  DUSDinvestor */\n      0x0b\n        /* \"contracts/stake_reward_MLM.sol\":3795:3819  DUSDinvestor[msg.sender] */\n      0x00\n        /* \"contracts/stake_reward_MLM.sol\":3808:3818  msg.sender */\n      caller\n        /* \"contracts/stake_reward_MLM.sol\":3795:3819  DUSDinvestor[msg.sender] */\n      0xffffffffffffffffffffffffffffffffffffffff\n      and\n      0xffffffffffffffffffffffffffffffffffffffff\n      and\n      dup2\n      mstore\n      0x20\n      add\n      swap1\n      dup2\n      mstore\n      0x20\n      add\n      0x00\n      keccak256\n        /* \"contracts/stake_reward_MLM.sol\":3795:3832  DUSDinvestor[msg.sender].investBefore */\n      0x08\n      add\n      0x00\n      swap1\n      sload\n      swap1\n      0x0100\n      exp\n      swap1\n      div\n      0xff\n      and\n        /* \"contracts/stake_reward_MLM.sol\":3795:3841  DUSDinvestor[msg.sender].investBefore == false */\n      iszero\n      iszero\n      eq\n        /* \"contracts/stake_reward_MLM.sol\":3792:3946  if(DUSDinvestor[msg.sender].investBefore == false)... */\n      iszero\n      tag_125\n      jumpi\n        /* \"contracts/stake_reward_MLM.sol\":3874:3892  totalDUSDInvestors */\n      0x03\n      0x00\n        /* \"contracts/stake_reward_MLM.sol\":3874:3894  totalDUSDInvestors++ */\n      dup2\n      sload\n      dup1\n      swap3\n      swap2\n      swap1\n      tag_126\n      swap1\n      tag_127\n      jump\t// in\n    tag_126:\n      swap2\n      swap1\n      pop\n      sstore\n      pop\n        /* \"contracts/stake_reward_MLM.sol\":3792:3946  if(DUSDinvestor[msg.sender].investBefore == false)... */\n    tag_125:\n        /* \"contracts/stake_reward_MLM.sol\":4006:4007  0 */\n      0x00\n        /* \"contracts/stake_reward_MLM.sol\":3962:3974  DUSDinvestor */\n      0x0b\n        /* \"contracts/stake_reward_MLM.sol\":3962:3986  DUSDinvestor[msg.sender] */\n      0x00\n        /* \"contracts/stake_reward_MLM.sol\":3975:3985  msg.sender */\n      caller\n        /* \"contracts/stake_reward_MLM.sol\":3962:3986  DUSDinvestor[msg.sender] */\n      0xffffffffffffffffffffffffffffffffffffffff\n      and\n      0xffffffffffffffffffffffffffffffffffffffff\n      and\n      dup2\n      mstore\n      0x20\n      add\n      swap1\n      dup2\n      mstore\n      0x20\n      add\n      0x00\n      keccak256\n        /* \"contracts/stake_reward_MLM.sol\":3962:4002  DUSDinvestor[msg.sender].totalInvestment */\n      0x06\n      add\n      sload\n        /* \"contracts/stake_reward_MLM.sol\":3962:4007  DUSDinvestor[msg.sender].totalInvestment == 0 */\n      eq\n        /* \"contracts/stake_reward_MLM.sol\":3959:4118  if(DUSDinvestor[msg.sender].totalInvestment == 0)... */\n      iszero\n      tag_128\n      jumpi\n        /* \"contracts/stake_reward_MLM.sol\":4095:4103  300 days */\n      0x018b8200\n        /* \"contracts/stake_reward_MLM.sol\":4077:4092  block.timestamp */\n      timestamp\n        /* \"contracts/stake_reward_MLM.sol\":4077:4103  block.timestamp + 300 days */\n      tag_129\n      swap2\n      swap1\n      tag_130\n      jump\t// in\n    tag_129:\n        /* \"contracts/stake_reward_MLM.sol\":4040:4052  DUSDinvestor */\n      0x0b\n        /* \"contracts/stake_reward_MLM.sol\":4040:4064  DUSDinvestor[msg.sender] */\n      0x00\n        /* \"contracts/stake_reward_MLM.sol\":4053:4063  msg.sender */\n      caller\n        /* \"contracts/stake_reward_MLM.sol\":4040:4064  DUSDinvestor[msg.sender] */\n      0xffffffffffffffffffffffffffffffffffffffff\n      and\n      0xffffffffffffffffffffffffffffffffffffffff\n      and\n      dup2\n      mstore\n      0x20\n      add\n      swap1\n      dup2\n      mstore\n      0x20\n      add\n      0x00\n      keccak256\n        /* \"contracts/stake_reward_MLM.sol\":4040:4074  DUSDinvestor[msg.sender].stakeTime */\n      0x09\n      add\n        /* \"contracts/stake_reward_MLM.sol\":4040:4103  DUSDinvestor[msg.sender].stakeTime = block.timestamp + 300 days */\n      dup2\n      swap1\n      sstore\n      pop\n        /* \"contracts/stake_reward_MLM.sol\":3959:4118  if(DUSDinvestor[msg.sender].totalInvestment == 0)... */\n    tag_128:\n        /* \"contracts/stake_reward_MLM.sol\":4132:4140  uint num */\n      0x00\n        /* \"contracts/stake_reward_MLM.sol\":4143:4155  DUSDinvestor */\n      0x0b\n        /* \"contracts/stake_reward_MLM.sol\":4143:4167  DUSDinvestor[msg.sender] */\n      0x00\n        /* \"contracts/stake_reward_MLM.sol\":4156:4166  msg.sender */\n      caller\n        /* \"contracts/stake_reward_MLM.sol\":4143:4167  DUSDinvestor[msg.sender] */\n      0xffffffffffffffffffffffffffffffffffffffff\n      and\n      0xffffffffffffffffffffffffffffffffffffffff\n      and\n      dup2\n      mstore\n      0x20\n      add\n      swap1\n      dup2\n      mstore\n      0x20\n      add\n      0x00\n      keccak256\n        /* \"contracts/stake_reward_MLM.sol\":4143:4182  DUSDinvestor[msg.sender].noOfInvestment */\n      0x05\n      add\n      sload\n        /* \"contracts/stake_reward_MLM.sol\":4132:4182  uint num = DUSDinvestor[msg.sender].noOfInvestment */\n      swap1\n      pop\n        /* \"contracts/stake_reward_MLM.sol\":4253:4268  _investedamount */\n      dup4\n        /* \"contracts/stake_reward_MLM.sol\":4196:4208  DUSDinvestor */\n      0x0b\n        /* \"contracts/stake_reward_MLM.sol\":4196:4220  DUSDinvestor[msg.sender] */\n      0x00\n        /* \"contracts/stake_reward_MLM.sol\":4209:4219  msg.sender */\n      caller\n        /* \"contracts/stake_reward_MLM.sol\":4196:4220  DUSDinvestor[msg.sender] */\n      0xffffffffffffffffffffffffffffffffffffffff\n      and\n      0xffffffffffffffffffffffffffffffffffffffff\n      and\n      dup2\n      mstore\n      0x20\n      add\n      swap1\n      dup2\n      mstore\n      0x20\n      add\n      0x00\n      keccak256\n        /* \"contracts/stake_reward_MLM.sol\":4196:4231  DUSDinvestor[msg.sender].investment */\n      0x00\n      add\n        /* \"contracts/stake_reward_MLM.sol\":4196:4236  DUSDinvestor[msg.sender].investment[num] */\n      0x00\n        /* \"contracts/stake_reward_MLM.sol\":4232:4235  num */\n      dup4\n        /* \"contracts/stake_reward_MLM.sol\":4196:4236  DUSDinvestor[msg.sender].investment[num] */\n      dup2\n      mstore\n      0x20\n      add\n      swap1\n      dup2\n      mstore\n      0x20\n      add\n      0x00\n      keccak256\n        /* \"contracts/stake_reward_MLM.sol\":4196:4251  DUSDinvestor[msg.sender].investment[num].investedAmount */\n      0x00\n      add\n        /* \"contracts/stake_reward_MLM.sol\":4196:4268  DUSDinvestor[msg.sender].investment[num].investedAmount =_investedamount */\n      dup2\n      swap1\n      sstore\n      pop\n        /* \"contracts/stake_reward_MLM.sol\":4335:4350  block.timestamp */\n      timestamp\n        /* \"contracts/stake_reward_MLM.sol\":4282:4294  DUSDinvestor */\n      0x0b\n        /* \"contracts/stake_reward_MLM.sol\":4282:4306  DUSDinvestor[msg.sender] */\n      0x00\n        /* \"contracts/stake_reward_MLM.sol\":4295:4305  msg.sender */\n      caller\n        /* \"contracts/stake_reward_MLM.sol\":4282:4306  DUSDinvestor[msg.sender] */\n      0xffffffffffffffffffffffffffffffffffffffff\n      and\n      0xffffffffffffffffffffffffffffffffffffffff\n      and\n      dup2\n      mstore\n      0x20\n      add\n      swap1\n      dup2\n      mstore\n      0x20\n      add\n      0x00\n      keccak256\n        /* \"contracts/stake_reward_MLM.sol\":4282:4317  DUSDinvestor[msg.sender].investment */\n      0x00\n      add\n        /* \"contracts/stake_reward_MLM.sol\":4282:4322  DUSDinvestor[msg.sender].investment[num] */\n      0x00\n        /* \"contracts/stake_reward_MLM.sol\":4318:4321  num */\n      dup4\n        /* \"contracts/stake_reward_MLM.sol\":4282:4322  DUSDinvestor[msg.sender].investment[num] */\n      dup2\n      mstore\n      0x20\n      add\n      swap1\n      dup2\n      mstore\n      0x20\n      add\n      0x00\n      keccak256\n        /* \"contracts/stake_reward_MLM.sol\":4282:4334  DUSDinvestor[msg.sender].investment[num].DepositTime */\n      0x02\n      add\n        /* \"contracts/stake_reward_MLM.sol\":4282:4350  DUSDinvestor[msg.sender].investment[num].DepositTime=block.timestamp */\n      dup2\n      swap1\n      sstore\n      pop\n        /* \"contracts/stake_reward_MLM.sol\":4437:4453  investmentPeriod */\n      sload(0x08)\n        /* \"contracts/stake_reward_MLM.sol\":4419:4434  block.timestamp */\n      timestamp\n        /* \"contracts/stake_reward_MLM.sol\":4419:4453  block.timestamp + investmentPeriod */\n      tag_131\n      swap2\n      swap1\n      tag_130\n      jump\t// in\n    tag_131:\n        /* \"contracts/stake_reward_MLM.sol\":4364:4376  DUSDinvestor */\n      0x0b\n        /* \"contracts/stake_reward_MLM.sol\":4364:4388  DUSDinvestor[msg.sender] */\n      0x00\n        /* \"contracts/stake_reward_MLM.sol\":4377:4387  msg.sender */\n      caller\n        /* \"contracts/stake_reward_MLM.sol\":4364:4388  DUSDinvestor[msg.sender] */\n      0xffffffffffffffffffffffffffffffffffffffff\n      and\n      0xffffffffffffffffffffffffffffffffffffffff\n      and\n      dup2\n      mstore\n      0x20\n      add\n      swap1\n      dup2\n      mstore\n      0x20\n      add\n      0x00\n      keccak256\n        /* \"contracts/stake_reward_MLM.sol\":4364:4399  DUSDinvestor[msg.sender].investment */\n      0x00\n      add\n        /* \"contracts/stake_reward_MLM.sol\":4364:4404  DUSDinvestor[msg.sender].investment[num] */\n      0x00\n        /* \"contracts/stake_reward_MLM.sol\":4400:4403  num */\n      dup4\n        /* \"contracts/stake_reward_MLM.sol\":4364:4404  DUSDinvestor[msg.sender].investment[num] */\n      dup2\n      mstore\n      0x20\n      add\n      swap1\n      dup2\n      mstore\n      0x20\n      add\n      0x00\n      keccak256\n        /* \"contracts/stake_reward_MLM.sol\":4364:4418  DUSDinvestor[msg.sender].investment[num].withdrawnTime */\n      0x01\n      add\n        /* \"contracts/stake_reward_MLM.sol\":4364:4453  DUSDinvestor[msg.sender].investment[num].withdrawnTime=block.timestamp + investmentPeriod */\n      dup2\n      swap1\n      sstore\n      pop\n        /* \"contracts/stake_reward_MLM.sol\":4536:4539  num */\n      dup1\n        /* \"contracts/stake_reward_MLM.sol\":4481:4493  DUSDinvestor */\n      0x0b\n        /* \"contracts/stake_reward_MLM.sol\":4481:4505  DUSDinvestor[msg.sender] */\n      0x00\n        /* \"contracts/stake_reward_MLM.sol\":4494:4504  msg.sender */\n      caller\n        /* \"contracts/stake_reward_MLM.sol\":4481:4505  DUSDinvestor[msg.sender] */\n      0xffffffffffffffffffffffffffffffffffffffff\n      and\n      0xffffffffffffffffffffffffffffffffffffffff\n      and\n      dup2\n      mstore\n      0x20\n      add\n      swap1\n      dup2\n      mstore\n      0x20\n      add\n      0x00\n      keccak256\n        /* \"contracts/stake_reward_MLM.sol\":4481:4516  DUSDinvestor[msg.sender].investment */\n      0x00\n      add\n        /* \"contracts/stake_reward_MLM.sol\":4481:4521  DUSDinvestor[msg.sender].investment[num] */\n      0x00\n        /* \"contracts/stake_reward_MLM.sol\":4517:4520  num */\n      dup4\n        /* \"contracts/stake_reward_MLM.sol\":4481:4521  DUSDinvestor[msg.sender].investment[num] */\n      dup2\n      mstore\n      0x20\n      add\n      swap1\n      dup2\n      mstore\n      0x20\n      add\n      0x00\n      keccak256\n        /* \"contracts/stake_reward_MLM.sol\":4481:4535  DUSDinvestor[msg.sender].investment[num].investmentNum */\n      0x03\n      add\n        /* \"contracts/stake_reward_MLM.sol\":4481:4539  DUSDinvestor[msg.sender].investment[num].investmentNum=num */\n      dup2\n      swap1\n      sstore\n      pop\n        /* \"contracts/stake_reward_MLM.sol\":4595:4610  _investedamount */\n      dup4\n        /* \"contracts/stake_reward_MLM.sol\":4553:4565  DUSDinvestor */\n      0x0b\n        /* \"contracts/stake_reward_MLM.sol\":4553:4577  DUSDinvestor[msg.sender] */\n      0x00\n        /* \"contracts/stake_reward_MLM.sol\":4566:4576  msg.sender */\n      caller\n        /* \"contracts/stake_reward_MLM.sol\":4553:4577  DUSDinvestor[msg.sender] */\n      0xffffffffffffffffffffffffffffffffffffffff\n      and\n      0xffffffffffffffffffffffffffffffffffffffff\n      and\n      dup2\n      mstore\n      0x20\n      add\n      swap1\n      dup2\n      mstore\n      0x20\n      add\n      0x00\n      keccak256\n        /* \"contracts/stake_reward_MLM.sol\":4553:4593  DUSDinvestor[msg.sender].totalInvestment */\n      0x06\n      add\n      0x00\n        /* \"contracts/stake_reward_MLM.sol\":4553:4610  DUSDinvestor[msg.sender].totalInvestment+=_investedamount */\n      dup3\n      dup3\n      sload\n      tag_132\n      swap2\n      swap1\n      tag_130\n      jump\t// in\n    tag_132:\n      swap3\n      pop\n      pop\n      dup2\n      swap1\n      sstore\n      pop\n        /* \"contracts/stake_reward_MLM.sol\":4624:4636  DUSDinvestor */\n      0x0b\n        /* \"contracts/stake_reward_MLM.sol\":4624:4648  DUSDinvestor[msg.sender] */\n      0x00\n        /* \"contracts/stake_reward_MLM.sol\":4637:4647  msg.sender */\n      caller\n        /* \"contracts/stake_reward_MLM.sol\":4624:4648  DUSDinvestor[msg.sender] */\n      0xffffffffffffffffffffffffffffffffffffffff\n      and\n      0xffffffffffffffffffffffffffffffffffffffff\n      and\n      dup2\n      mstore\n      0x20\n      add\n      swap1\n      dup2\n      mstore\n      0x20\n      add\n      0x00\n      keccak256\n        /* \"contracts/stake_reward_MLM.sol\":4624:4663  DUSDinvestor[msg.sender].noOfInvestment */\n      0x05\n      add\n      0x00\n        /* \"contracts/stake_reward_MLM.sol\":4624:4665  DUSDinvestor[msg.sender].noOfInvestment++ */\n      dup2\n      sload\n      dup1\n      swap3\n      swap2\n      swap1\n      tag_133\n      swap1\n      tag_127\n      jump\t// in\n    tag_133:\n      swap2\n      swap1\n      pop\n      sstore\n      pop\n        /* \"contracts/stake_reward_MLM.sol\":4694:4709  _investedamount */\n      dup4\n        /* \"contracts/stake_reward_MLM.sol\":4679:4692  totalbusiness */\n      0x09\n      0x00\n        /* \"contracts/stake_reward_MLM.sol\":4679:4709  totalbusiness+=_investedamount */\n      dup3\n      dup3\n      sload\n      tag_134\n      swap2\n      swap1\n      tag_130\n      jump\t// in\n    tag_134:\n      swap3\n      pop\n      pop\n      dup2\n      swap1\n      sstore\n      pop\n        /* \"contracts/stake_reward_MLM.sol\":4728:4739  SMCcontract */\n      0x01\n      0x00\n      swap1\n      sload\n      swap1\n      0x0100\n      exp\n      swap1\n      div\n      0xffffffffffffffffffffffffffffffffffffffff\n      and\n        /* \"contracts/stake_reward_MLM.sol\":4723:4753  DUSD(SMCcontract).transferFrom */\n      0xffffffffffffffffffffffffffffffffffffffff\n      and\n      0x23b872dd\n        /* \"contracts/stake_reward_MLM.sol\":4754:4764  msg.sender */\n      caller\n        /* \"contracts/stake_reward_MLM.sol\":4773:4777  this */\n      address\n        /* \"contracts/stake_reward_MLM.sol\":4795:4800  10**8 */\n      0x05f5e100\n        /* \"contracts/stake_reward_MLM.sol\":4779:4794  _investedamount */\n      dup9\n        /* \"contracts/stake_reward_MLM.sol\":4779:4800  _investedamount*10**8 */\n      tag_135\n      swap2\n      swap1\n      tag_136\n      jump\t// in\n    tag_135:\n        /* \"contracts/stake_reward_MLM.sol\":4723:4801  DUSD(SMCcontract).transferFrom(msg.sender,address(this),_investedamount*10**8) */\n      mload(0x40)\n      dup5\n      0xffffffff\n      and\n      0xe0\n      shl\n      dup2\n      mstore\n      0x04\n      add\n      tag_137\n      swap4\n      swap3\n      swap2\n      swap1\n      tag_138\n      jump\t// in\n    tag_137:\n      0x20\n      mload(0x40)\n      dup1\n      dup4\n      sub\n      dup2\n      0x00\n      dup8\n      dup1\n      extcodesize\n      iszero\n      dup1\n      iszero\n      tag_139\n      jumpi\n      0x00\n      dup1\n      revert\n    tag_139:\n      pop\n      gas\n      call\n      iszero\n      dup1\n      iszero\n      tag_141\n      jumpi\n      returndatasize\n      0x00\n      dup1\n      returndatacopy\n      revert(0x00, returndatasize)\n    tag_141:\n      pop\n      pop\n      pop\n      pop\n      mload(0x40)\n      returndatasize\n      not(0x1f)\n      0x1f\n      dup3\n      add\n      and\n      dup3\n      add\n      dup1\n      0x40\n      mstore\n      pop\n      dup2\n      add\n      swap1\n      tag_142\n      swap2\n      swap1\n      tag_143\n      jump\t// in\n    tag_142:\n      pop\n        /* \"contracts/stake_reward_MLM.sol\":4838:4839  0 */\n      0x00\n        /* \"contracts/stake_reward_MLM.sol\":4819:4840  _referral==address(0) */\n      0xffffffffffffffffffffffffffffffffffffffff\n      and\n        /* \"contracts/stake_reward_MLM.sol\":4819:4828  _referral */\n      dup4\n        /* \"contracts/stake_reward_MLM.sol\":4819:4840  _referral==address(0) */\n      0xffffffffffffffffffffffffffffffffffffffff\n      and\n      eq\n        /* \"contracts/stake_reward_MLM.sol\":4819:4865  _referral==address(0) || _referral==msg.sender */\n      dup1\n      tag_144\n      jumpi\n      pop\n        /* \"contracts/stake_reward_MLM.sol\":4855:4865  msg.sender */\n      caller\n        /* \"contracts/stake_reward_MLM.sol\":4844:4865  _referral==msg.sender */\n      0xffffffffffffffffffffffffffffffffffffffff\n      and\n        /* \"contracts/stake_reward_MLM.sol\":4844:4853  _referral */\n      dup4\n        /* \"contracts/stake_reward_MLM.sol\":4844:4865  _referral==msg.sender */\n      0xffffffffffffffffffffffffffffffffffffffff\n      and\n      eq\n        /* \"contracts/stake_reward_MLM.sol\":4819:4865  _referral==address(0) || _referral==msg.sender */\n    tag_144:\n        /* \"contracts/stake_reward_MLM.sol\":4819:4912  _referral==address(0) || _referral==msg.sender || DUSDinvestor[msg.sender].investBefore==true */\n      dup1\n      tag_145\n      jumpi\n      pop\n        /* \"contracts/stake_reward_MLM.sol\":4908:4912  true */\n      0x01\n        /* \"contracts/stake_reward_MLM.sol\":4869:4912  DUSDinvestor[msg.sender].investBefore==true */\n      iszero\n      iszero\n        /* \"contracts/stake_reward_MLM.sol\":4869:4881  DUSDinvestor */\n      0x0b\n        /* \"contracts/stake_reward_MLM.sol\":4869:4893  DUSDinvestor[msg.sender] */\n      0x00\n        /* \"contracts/stake_reward_MLM.sol\":4882:4892  msg.sender */\n      caller\n        /* \"contracts/stake_reward_MLM.sol\":4869:4893  DUSDinvestor[msg.sender] */\n      0xffffffffffffffffffffffffffffffffffffffff\n      and\n      0xffffffffffffffffffffffffffffffffffffffff\n      and\n      dup2\n      mstore\n      0x20\n      add\n      swap1\n      dup2\n      mstore\n      0x20\n      add\n      0x00\n      keccak256\n        /* \"contracts/stake_reward_MLM.sol\":4869:4906  DUSDinvestor[msg.sender].investBefore */\n      0x08\n      add\n      0x00\n      swap1\n      sload\n      swap1\n      0x0100\n      exp\n      swap1\n      div\n      0xff\n      and\n        /* \"contracts/stake_reward_MLM.sol\":4869:4912  DUSDinvestor[msg.sender].investBefore==true */\n      iszero\n      iszero\n      eq\n        /* \"contracts/stake_reward_MLM.sol\":4819:4912  _referral==address(0) || _referral==msg.sender || DUSDinvestor[msg.sender].investBefore==true */\n    tag_145:\n        /* \"contracts/stake_reward_MLM.sol\":4816:5459  if(_referral==address(0) || _referral==msg.sender || DUSDinvestor[msg.sender].investBefore==true)                                         //checking that investor comes from the referral link or not... */\n      iszero\n      tag_146\n      jumpi\n        /* \"contracts/stake_reward_MLM.sol\":5094:5095  0 */\n      0x00\n        /* \"contracts/stake_reward_MLM.sol\":5046:5058  DUSDinvestor */\n      0x0b\n        /* \"contracts/stake_reward_MLM.sol\":5046:5070  DUSDinvestor[msg.sender] */\n      0x00\n        /* \"contracts/stake_reward_MLM.sol\":5059:5069  msg.sender */\n      caller\n        /* \"contracts/stake_reward_MLM.sol\":5046:5070  DUSDinvestor[msg.sender] */\n      0xffffffffffffffffffffffffffffffffffffffff\n      and\n      0xffffffffffffffffffffffffffffffffffffffff\n      and\n      dup2\n      mstore\n      0x20\n      add\n      swap1\n      dup2\n      mstore\n      0x20\n      add\n      0x00\n      keccak256\n        /* \"contracts/stake_reward_MLM.sol\":5046:5083  DUSDinvestor[msg.sender].referralFrom */\n      0x02\n      add\n      0x00\n        /* \"contracts/stake_reward_MLM.sol\":5046:5096  DUSDinvestor[msg.sender].referralFrom = address(0) */\n      0x0100\n      exp\n      dup2\n      sload\n      dup2\n      0xffffffffffffffffffffffffffffffffffffffff\n      mul\n      not\n      and\n      swap1\n      dup4\n      0xffffffffffffffffffffffffffffffffffffffff\n      and\n      mul\n      or\n      swap1\n      sstore\n      pop\n        /* \"contracts/stake_reward_MLM.sol\":4816:5459  if(_referral==address(0) || _referral==msg.sender || DUSDinvestor[msg.sender].investBefore==true)                                         //checking that investor comes from the referral link or not... */\n      jump(tag_147)\n    tag_146:\n        /* \"contracts/stake_reward_MLM.sol\":5199:5208  _referral */\n      dup3\n        /* \"contracts/stake_reward_MLM.sol\":5159:5171  DUSDinvestor */\n      0x0b\n        /* \"contracts/stake_reward_MLM.sol\":5159:5183  DUSDinvestor[msg.sender] */\n      0x00\n        /* \"contracts/stake_reward_MLM.sol\":5172:5182  msg.sender */\n      caller\n        /* \"contracts/stake_reward_MLM.sol\":5159:5183  DUSDinvestor[msg.sender] */\n      0xffffffffffffffffffffffffffffffffffffffff\n      and\n      0xffffffffffffffffffffffffffffffffffffffff\n      and\n      dup2\n      mstore\n      0x20\n      add\n      swap1\n      dup2\n      mstore\n      0x20\n      add\n      0x00\n      keccak256\n        /* \"contracts/stake_reward_MLM.sol\":5159:5196  DUSDinvestor[msg.sender].referralFrom */\n      0x02\n      add\n      0x00\n        /* \"contracts/stake_reward_MLM.sol\":5159:5208  DUSDinvestor[msg.sender].referralFrom = _referral */\n      0x0100\n      exp\n      dup2\n      sload\n      dup2\n      0xffffffffffffffffffffffffffffffffffffffff\n      mul\n      not\n      and\n      swap1\n      dup4\n      0xffffffffffffffffffffffffffffffffffffffff\n      and\n      mul\n      or\n      swap1\n      sstore\n      pop\n        /* \"contracts/stake_reward_MLM.sol\":5226:5238  DUSDinvestor */\n      0x0b\n        /* \"contracts/stake_reward_MLM.sol\":5226:5249  DUSDinvestor[_referral] */\n      0x00\n        /* \"contracts/stake_reward_MLM.sol\":5239:5248  _referral */\n      dup5\n        /* \"contracts/stake_reward_MLM.sol\":5226:5249  DUSDinvestor[_referral] */\n      0xffffffffffffffffffffffffffffffffffffffff\n      and\n      0xffffffffffffffffffffffffffffffffffffffff\n      and\n      dup2\n      mstore\n      0x20\n      add\n      swap1\n      dup2\n      mstore\n      0x20\n      add\n      0x00\n      keccak256\n        /* \"contracts/stake_reward_MLM.sol\":5226:5262  DUSDinvestor[_referral].hisReferrals */\n      0x01\n      add\n        /* \"contracts/stake_reward_MLM.sol\":5268:5278  msg.sender */\n      caller\n        /* \"contracts/stake_reward_MLM.sol\":5226:5279  DUSDinvestor[_referral].hisReferrals.push(msg.sender) */\n      swap1\n      dup1\n      0x01\n      dup2\n      sload\n      add\n      dup1\n      dup3\n      sstore\n      dup1\n      swap2\n      pop\n      pop\n      0x01\n      swap1\n      sub\n      swap1\n      0x00\n      mstore\n      keccak256(0x00, 0x20)\n      add\n      0x00\n      swap1\n      swap2\n      swap1\n      swap2\n      swap1\n      swap2\n      0x0100\n      exp\n      dup2\n      sload\n      dup2\n      0xffffffffffffffffffffffffffffffffffffffff\n      mul\n      not\n      and\n      swap1\n      dup4\n      0xffffffffffffffffffffffffffffffffffffffff\n      and\n      mul\n      or\n      swap1\n      sstore\n      pop\n        /* \"contracts/stake_reward_MLM.sol\":5297:5350  sendRewardToDUSDReferrals(msg.sender,_investedamount) */\n      tag_149\n        /* \"contracts/stake_reward_MLM.sol\":5323:5333  msg.sender */\n      caller\n        /* \"contracts/stake_reward_MLM.sol\":5334:5349  _investedamount */\n      dup6\n        /* \"contracts/stake_reward_MLM.sol\":5297:5322  sendRewardToDUSDReferrals */\n      tag_150\n        /* \"contracts/stake_reward_MLM.sol\":5297:5350  sendRewardToDUSDReferrals(msg.sender,_investedamount) */\n      jump\t// in\n    tag_149:\n        /* \"contracts/stake_reward_MLM.sol\":4816:5459  if(_referral==address(0) || _referral==msg.sender || DUSDinvestor[msg.sender].investBefore==true)                                         //checking that investor comes from the referral link or not... */\n    tag_147:\n        /* \"contracts/stake_reward_MLM.sol\":5510:5514  true */\n      0x01\n        /* \"contracts/stake_reward_MLM.sol\":5472:5484  DUSDinvestor */\n      0x0b\n        /* \"contracts/stake_reward_MLM.sol\":5472:5496  DUSDinvestor[msg.sender] */\n      0x00\n        /* \"contracts/stake_reward_MLM.sol\":5485:5495  msg.sender */\n      caller\n        /* \"contracts/stake_reward_MLM.sol\":5472:5496  DUSDinvestor[msg.sender] */\n      0xffffffffffffffffffffffffffffffffffffffff\n      and\n      0xffffffffffffffffffffffffffffffffffffffff\n      and\n      dup2\n      mstore\n      0x20\n      add\n      swap1\n      dup2\n      mstore\n      0x20\n      add\n      0x00\n      keccak256\n        /* \"contracts/stake_reward_MLM.sol\":5472:5509  DUSDinvestor[msg.sender].investBefore */\n      0x08\n      add\n      0x00\n        /* \"contracts/stake_reward_MLM.sol\":5472:5514  DUSDinvestor[msg.sender].investBefore=true */\n      0x0100\n      exp\n      dup2\n      sload\n      dup2\n      0xff\n      mul\n      not\n      and\n      swap1\n      dup4\n      iszero\n      iszero\n      mul\n      or\n      swap1\n      sstore\n      pop\n        /* \"contracts/stake_reward_MLM.sol\":5536:5540  true */\n      0x01\n        /* \"contracts/stake_reward_MLM.sol\":5529:5540  return true */\n      swap2\n      pop\n      pop\n        /* \"contracts/stake_reward_MLM.sol\":3469:5564  function Stake(uint _investedamount,address _referral) external returns(bool success){... */\n      swap3\n      swap2\n      pop\n      pop\n      jump\t// out\n        /* \"contracts/stake_reward_MLM.sol\":10530:10641  function set_min_Stake_amount(uint _amount) public ... */\n    tag_50:\n        /* \"contracts/stake_reward_MLM.sol\":10623:10630  _amount */\n      dup1\n        /* \"contracts/stake_reward_MLM.sol\":10604:10620  min_Stake_amount */\n      0x05\n        /* \"contracts/stake_reward_MLM.sol\":10604:10630  min_Stake_amount = _amount */\n      dup2\n      swap1\n      sstore\n      pop\n        /* \"contracts/stake_reward_MLM.sol\":10530:10641  function set_min_Stake_amount(uint _amount) public ... */\n      pop\n      jump\t// out\n        /* \"contracts/stake_reward_MLM.sol\":8953:9936  function getAllDUSDinvestments() public view returns (allInvestments[] memory) { //this function will return the all investments of the investor and withware date... */\n    tag_52:\n        /* \"contracts/stake_reward_MLM.sol\":9007:9030  allInvestments[] memory */\n      0x60\n        /* \"contracts/stake_reward_MLM.sol\":9128:9136  uint num */\n      0x00\n        /* \"contracts/stake_reward_MLM.sol\":9139:9151  DUSDinvestor */\n      0x0b\n        /* \"contracts/stake_reward_MLM.sol\":9139:9163  DUSDinvestor[msg.sender] */\n      0x00\n        /* \"contracts/stake_reward_MLM.sol\":9152:9162  msg.sender */\n      caller\n        /* \"contracts/stake_reward_MLM.sol\":9139:9163  DUSDinvestor[msg.sender] */\n      0xffffffffffffffffffffffffffffffffffffffff\n      and\n      0xffffffffffffffffffffffffffffffffffffffff\n      and\n      dup2\n      mstore\n      0x20\n      add\n      swap1\n      dup2\n      mstore\n      0x20\n      add\n      0x00\n      keccak256\n        /* \"contracts/stake_reward_MLM.sol\":9139:9178  DUSDinvestor[msg.sender].noOfInvestment */\n      0x05\n      add\n      sload\n        /* \"contracts/stake_reward_MLM.sol\":9128:9178  uint num = DUSDinvestor[msg.sender].noOfInvestment */\n      swap1\n      pop\n        /* \"contracts/stake_reward_MLM.sol\":9192:9201  uint temp */\n      0x00\n        /* \"contracts/stake_reward_MLM.sol\":9215:9232  uint currentIndex */\n      dup1\n        /* \"contracts/stake_reward_MLM.sol\":9263:9269  uint i */\n      0x00\n        /* \"contracts/stake_reward_MLM.sol\":9259:9435  for(uint i=0;i<num;i++)... */\n    tag_153:\n        /* \"contracts/stake_reward_MLM.sol\":9274:9277  num */\n      dup4\n        /* \"contracts/stake_reward_MLM.sol\":9272:9273  i */\n      dup2\n        /* \"contracts/stake_reward_MLM.sol\":9272:9277  i<num */\n      lt\n        /* \"contracts/stake_reward_MLM.sol\":9259:9435  for(uint i=0;i<num;i++)... */\n      iszero\n      tag_154\n      jumpi\n        /* \"contracts/stake_reward_MLM.sol\":9372:9373  0 */\n      0x00\n        /* \"contracts/stake_reward_MLM.sol\":9316:9328  DUSDinvestor */\n      0x0b\n        /* \"contracts/stake_reward_MLM.sol\":9316:9340  DUSDinvestor[msg.sender] */\n      0x00\n        /* \"contracts/stake_reward_MLM.sol\":9329:9339  msg.sender */\n      caller\n        /* \"contracts/stake_reward_MLM.sol\":9316:9340  DUSDinvestor[msg.sender] */\n      0xffffffffffffffffffffffffffffffffffffffff\n      and\n      0xffffffffffffffffffffffffffffffffffffffff\n      and\n      dup2\n      mstore\n      0x20\n      add\n      swap1\n      dup2\n      mstore\n      0x20\n      add\n      0x00\n      keccak256\n        /* \"contracts/stake_reward_MLM.sol\":9316:9351  DUSDinvestor[msg.sender].investment */\n      0x00\n      add\n        /* \"contracts/stake_reward_MLM.sol\":9316:9354  DUSDinvestor[msg.sender].investment[i] */\n      0x00\n        /* \"contracts/stake_reward_MLM.sol\":9352:9353  i */\n      dup4\n        /* \"contracts/stake_reward_MLM.sol\":9316:9354  DUSDinvestor[msg.sender].investment[i] */\n      dup2\n      mstore\n      0x20\n      add\n      swap1\n      dup2\n      mstore\n      0x20\n      add\n      0x00\n      keccak256\n        /* \"contracts/stake_reward_MLM.sol\":9316:9369  DUSDinvestor[msg.sender].investment[i].investedAmount */\n      0x00\n      add\n      sload\n        /* \"contracts/stake_reward_MLM.sol\":9316:9373  DUSDinvestor[msg.sender].investment[i].investedAmount > 0 */\n      gt\n        /* \"contracts/stake_reward_MLM.sol\":9312:9420  if( DUSDinvestor[msg.sender].investment[i].investedAmount > 0 ){... */\n      iszero\n      tag_156\n      jumpi\n        /* \"contracts/stake_reward_MLM.sol\":9396:9402  temp++ */\n      dup3\n      dup1\n      tag_157\n      swap1\n      tag_127\n      jump\t// in\n    tag_157:\n      swap4\n      pop\n      pop\n        /* \"contracts/stake_reward_MLM.sol\":9312:9420  if( DUSDinvestor[msg.sender].investment[i].investedAmount > 0 ){... */\n    tag_156:\n        /* \"contracts/stake_reward_MLM.sol\":9278:9281  i++ */\n      dup1\n      dup1\n      tag_158\n      swap1\n      tag_127\n      jump\t// in\n    tag_158:\n      swap2\n      pop\n      pop\n        /* \"contracts/stake_reward_MLM.sol\":9259:9435  for(uint i=0;i<num;i++)... */\n      jump(tag_153)\n    tag_154:\n      pop\n        /* \"contracts/stake_reward_MLM.sol\":9458:9490  allInvestments[] memory Invested */\n      0x00\n        /* \"contracts/stake_reward_MLM.sol\":9515:9519  temp */\n      dup3\n        /* \"contracts/stake_reward_MLM.sol\":9494:9520  new allInvestments[](temp) */\n      0xffffffffffffffff\n      dup2\n      gt\n      iszero\n      tag_159\n      jumpi\n      tag_160\n      tag_161\n      jump\t// in\n    tag_160:\n    tag_159:\n      mload(0x40)\n      swap1\n      dup1\n      dup3\n      mstore\n      dup1\n      0x20\n      mul\n      0x20\n      add\n      dup3\n      add\n      0x40\n      mstore\n      dup1\n      iszero\n      tag_162\n      jumpi\n      dup2\n      0x20\n      add\n    tag_163:\n      tag_164\n      tag_165\n      jump\t// in\n    tag_164:\n      dup2\n      mstore\n      0x20\n      add\n      swap1\n      0x01\n      swap1\n      sub\n      swap1\n      dup2\n      tag_163\n      jumpi\n      swap1\n      pop\n    tag_162:\n      pop\n        /* \"contracts/stake_reward_MLM.sol\":9458:9520  allInvestments[] memory Invested =  new allInvestments[](temp) */\n      swap1\n      pop\n        /* \"contracts/stake_reward_MLM.sol\":9540:9546  uint i */\n      0x00\n        /* \"contracts/stake_reward_MLM.sol\":9536:9896  for(uint i=0;i<num;i++)... */\n    tag_166:\n        /* \"contracts/stake_reward_MLM.sol\":9551:9554  num */\n      dup5\n        /* \"contracts/stake_reward_MLM.sol\":9549:9550  i */\n      dup2\n        /* \"contracts/stake_reward_MLM.sol\":9549:9554  i<num */\n      lt\n        /* \"contracts/stake_reward_MLM.sol\":9536:9896  for(uint i=0;i<num;i++)... */\n      iszero\n      tag_167\n      jumpi\n        /* \"contracts/stake_reward_MLM.sol\":9649:9650  0 */\n      0x00\n        /* \"contracts/stake_reward_MLM.sol\":9593:9605  DUSDinvestor */\n      0x0b\n        /* \"contracts/stake_reward_MLM.sol\":9593:9617  DUSDinvestor[msg.sender] */\n      0x00\n        /* \"contracts/stake_reward_MLM.sol\":9606:9616  msg.sender */\n      caller\n        /* \"contracts/stake_reward_MLM.sol\":9593:9617  DUSDinvestor[msg.sender] */\n      0xffffffffffffffffffffffffffffffffffffffff\n      and\n      0xffffffffffffffffffffffffffffffffffffffff\n      and\n      dup2\n      mstore\n      0x20\n      add\n      swap1\n      dup2\n      mstore\n      0x20\n      add\n      0x00\n      keccak256\n        /* \"contracts/stake_reward_MLM.sol\":9593:9628  DUSDinvestor[msg.sender].investment */\n      0x00\n      add\n        /* \"contracts/stake_reward_MLM.sol\":9593:9631  DUSDinvestor[msg.sender].investment[i] */\n      0x00\n        /* \"contracts/stake_reward_MLM.sol\":9629:9630  i */\n      dup4\n        /* \"contracts/stake_reward_MLM.sol\":9593:9631  DUSDinvestor[msg.sender].investment[i] */\n      dup2\n      mstore\n      0x20\n      add\n      swap1\n      dup2\n      mstore\n      0x20\n      add\n      0x00\n      keccak256\n        /* \"contracts/stake_reward_MLM.sol\":9593:9646  DUSDinvestor[msg.sender].investment[i].investedAmount */\n      0x00\n      add\n      sload\n        /* \"contracts/stake_reward_MLM.sol\":9593:9650  DUSDinvestor[msg.sender].investment[i].investedAmount > 0 */\n      gt\n        /* \"contracts/stake_reward_MLM.sol\":9589:9881  if( DUSDinvestor[msg.sender].investment[i].investedAmount > 0 ){... */\n      iszero\n      tag_169\n      jumpi\n        /* \"contracts/stake_reward_MLM.sol\":9790:9802  DUSDinvestor */\n      0x0b\n        /* \"contracts/stake_reward_MLM.sol\":9790:9814  DUSDinvestor[msg.sender] */\n      0x00\n        /* \"contracts/stake_reward_MLM.sol\":9803:9813  msg.sender */\n      caller\n        /* \"contracts/stake_reward_MLM.sol\":9790:9814  DUSDinvestor[msg.sender] */\n      0xffffffffffffffffffffffffffffffffffffffff\n      and\n      0xffffffffffffffffffffffffffffffffffffffff\n      and\n      dup2\n      mstore\n      0x20\n      add\n      swap1\n      dup2\n      mstore\n      0x20\n      add\n      0x00\n      keccak256\n        /* \"contracts/stake_reward_MLM.sol\":9790:9825  DUSDinvestor[msg.sender].investment */\n      0x00\n      add\n        /* \"contracts/stake_reward_MLM.sol\":9790:9828  DUSDinvestor[msg.sender].investment[i] */\n      0x00\n        /* \"contracts/stake_reward_MLM.sol\":9826:9827  i */\n      dup3\n        /* \"contracts/stake_reward_MLM.sol\":9790:9828  DUSDinvestor[msg.sender].investment[i] */\n      dup2\n      mstore\n      0x20\n      add\n      swap1\n      dup2\n      mstore\n      0x20\n      add\n      0x00\n      keccak256\n        /* \"contracts/stake_reward_MLM.sol\":9767:9828  Invested[currentIndex]=DUSDinvestor[msg.sender].investment[i] */\n      mload(0x40)\n      dup1\n      0xc0\n      add\n      0x40\n      mstore\n      swap1\n      dup2\n      0x00\n      dup3\n      add\n      sload\n      dup2\n      mstore\n      0x20\n      add\n      0x01\n      dup3\n      add\n      sload\n      dup2\n      mstore\n      0x20\n      add\n      0x02\n      dup3\n      add\n      sload\n      dup2\n      mstore\n      0x20\n      add\n      0x03\n      dup3\n      add\n      sload\n      dup2\n      mstore\n      0x20\n      add\n      0x04\n      dup3\n      add\n      sload\n      dup2\n      mstore\n      0x20\n      add\n      0x05\n      dup3\n      add\n      0x00\n      swap1\n      sload\n      swap1\n      0x0100\n      exp\n      swap1\n      div\n      0xff\n      and\n      iszero\n      iszero\n      iszero\n      iszero\n      dup2\n      mstore\n      pop\n      pop\n        /* \"contracts/stake_reward_MLM.sol\":9767:9775  Invested */\n      dup3\n        /* \"contracts/stake_reward_MLM.sol\":9776:9788  currentIndex */\n      dup5\n        /* \"contracts/stake_reward_MLM.sol\":9767:9789  Invested[currentIndex] */\n      dup2\n      mload\n      dup2\n      lt\n      tag_170\n      jumpi\n      tag_171\n      tag_172\n      jump\t// in\n    tag_171:\n    tag_170:\n      0x20\n      mul\n      0x20\n      add\n      add\n        /* \"contracts/stake_reward_MLM.sol\":9767:9828  Invested[currentIndex]=DUSDinvestor[msg.sender].investment[i] */\n      dup2\n      swap1\n      mstore\n      pop\n        /* \"contracts/stake_reward_MLM.sol\":9849:9863  currentIndex++ */\n      dup3\n      dup1\n      tag_173\n      swap1\n      tag_127\n      jump\t// in\n    tag_173:\n      swap4\n      pop\n      pop\n        /* \"contracts/stake_reward_MLM.sol\":9589:9881  if( DUSDinvestor[msg.sender].investment[i].investedAmount > 0 ){... */\n    tag_169:\n        /* \"contracts/stake_reward_MLM.sol\":9555:9558  i++ */\n      dup1\n      dup1\n      tag_174\n      swap1\n      tag_127\n      jump\t// in\n    tag_174:\n      swap2\n      pop\n      pop\n        /* \"contracts/stake_reward_MLM.sol\":9536:9896  for(uint i=0;i<num;i++)... */\n      jump(tag_166)\n    tag_167:\n      pop\n        /* \"contracts/stake_reward_MLM.sol\":9916:9924  Invested */\n      dup1\n        /* \"contracts/stake_reward_MLM.sol\":9909:9924  return Invested */\n      swap5\n      pop\n      pop\n      pop\n      pop\n      pop\n        /* \"contracts/stake_reward_MLM.sol\":8953:9936  function getAllDUSDinvestments() public view returns (allInvestments[] memory) { //this function will return the all investments of the investor and withware date... */\n      swap1\n      jump\t// out\n        /* \"contracts/stake_reward_MLM.sol\":5573:6664  function getReward() view public returns(uint){ //this function is get the total reward balance of the investor... */\n    tag_56:\n        /* \"contracts/stake_reward_MLM.sol\":5614:5618  uint */\n      0x00\n        /* \"contracts/stake_reward_MLM.sol\":5697:5713  uint totalReward */\n      dup1\n        /* \"contracts/stake_reward_MLM.sol\":5727:5739  uint depTime */\n      0x00\n        /* \"contracts/stake_reward_MLM.sol\":5753:5761  uint rew */\n      dup1\n        /* \"contracts/stake_reward_MLM.sol\":5775:5784  uint temp */\n      0x00\n        /* \"contracts/stake_reward_MLM.sol\":5787:5799  DUSDinvestor */\n      0x0b\n        /* \"contracts/stake_reward_MLM.sol\":5787:5811  DUSDinvestor[msg.sender] */\n      0x00\n        /* \"contracts/stake_reward_MLM.sol\":5800:5810  msg.sender */\n      caller\n        /* \"contracts/stake_reward_MLM.sol\":5787:5811  DUSDinvestor[msg.sender] */\n      0xffffffffffffffffffffffffffffffffffffffff\n      and\n      0xffffffffffffffffffffffffffffffffffffffff\n      and\n      dup2\n      mstore\n      0x20\n      add\n      swap1\n      dup2\n      mstore\n      0x20\n      add\n      0x00\n      keccak256\n        /* \"contracts/stake_reward_MLM.sol\":5787:5826  DUSDinvestor[msg.sender].noOfInvestment */\n      0x05\n      add\n      sload\n        /* \"contracts/stake_reward_MLM.sol\":5775:5826  uint temp = DUSDinvestor[msg.sender].noOfInvestment */\n      swap1\n      pop\n        /* \"contracts/stake_reward_MLM.sol\":5845:5851  uint i */\n      0x00\n        /* \"contracts/stake_reward_MLM.sol\":5840:6547  for( uint i = 0;i < temp;i++)... */\n    tag_176:\n        /* \"contracts/stake_reward_MLM.sol\":5860:5864  temp */\n      dup2\n        /* \"contracts/stake_reward_MLM.sol\":5856:5857  i */\n      dup2\n        /* \"contracts/stake_reward_MLM.sol\":5856:5864  i < temp */\n      lt\n        /* \"contracts/stake_reward_MLM.sol\":5840:6547  for( uint i = 0;i < temp;i++)... */\n      iszero\n      tag_177\n      jumpi\n        /* \"contracts/stake_reward_MLM.sol\":5907:5919  DUSDinvestor */\n      0x0b\n        /* \"contracts/stake_reward_MLM.sol\":5907:5931  DUSDinvestor[msg.sender] */\n      0x00\n        /* \"contracts/stake_reward_MLM.sol\":5920:5930  msg.sender */\n      caller\n        /* \"contracts/stake_reward_MLM.sol\":5907:5931  DUSDinvestor[msg.sender] */\n      0xffffffffffffffffffffffffffffffffffffffff\n      and\n      0xffffffffffffffffffffffffffffffffffffffff\n      and\n      dup2\n      mstore\n      0x20\n      add\n      swap1\n      dup2\n      mstore\n      0x20\n      add\n      0x00\n      keccak256\n        /* \"contracts/stake_reward_MLM.sol\":5907:5942  DUSDinvestor[msg.sender].investment */\n      0x00\n      add\n        /* \"contracts/stake_reward_MLM.sol\":5907:5945  DUSDinvestor[msg.sender].investment[i] */\n      0x00\n        /* \"contracts/stake_reward_MLM.sol\":5943:5944  i */\n      dup3\n        /* \"contracts/stake_reward_MLM.sol\":5907:5945  DUSDinvestor[msg.sender].investment[i] */\n      dup2\n      mstore\n      0x20\n      add\n      swap1\n      dup2\n      mstore\n      0x20\n      add\n      0x00\n      keccak256\n        /* \"contracts/stake_reward_MLM.sol\":5907:5953  DUSDinvestor[msg.sender].investment[i].unstake */\n      0x05\n      add\n      0x00\n      swap1\n      sload\n      swap1\n      0x0100\n      exp\n      swap1\n      div\n      0xff\n      and\n        /* \"contracts/stake_reward_MLM.sol\":5903:6263  if(!DUSDinvestor[msg.sender].investment[i].unstake)... */\n      tag_179\n      jumpi\n        /* \"contracts/stake_reward_MLM.sol\":6020:6032  DUSDinvestor */\n      0x0b\n        /* \"contracts/stake_reward_MLM.sol\":6020:6044  DUSDinvestor[msg.sender] */\n      0x00\n        /* \"contracts/stake_reward_MLM.sol\":6033:6043  msg.sender */\n      caller\n        /* \"contracts/stake_reward_MLM.sol\":6020:6044  DUSDinvestor[msg.sender] */\n      0xffffffffffffffffffffffffffffffffffffffff\n      and\n      0xffffffffffffffffffffffffffffffffffffffff\n      and\n      dup2\n      mstore\n      0x20\n      add\n      swap1\n      dup2\n      mstore\n      0x20\n      add\n      0x00\n      keccak256\n        /* \"contracts/stake_reward_MLM.sol\":6020:6055  DUSDinvestor[msg.sender].investment */\n      0x00\n      add\n        /* \"contracts/stake_reward_MLM.sol\":6020:6058  DUSDinvestor[msg.sender].investment[i] */\n      0x00\n        /* \"contracts/stake_reward_MLM.sol\":6056:6057  i */\n      dup3\n        /* \"contracts/stake_reward_MLM.sol\":6020:6058  DUSDinvestor[msg.sender].investment[i] */\n      dup2\n      mstore\n      0x20\n      add\n      swap1\n      dup2\n      mstore\n      0x20\n      add\n      0x00\n      keccak256\n        /* \"contracts/stake_reward_MLM.sol\":6020:6070  DUSDinvestor[msg.sender].investment[i].DepositTime */\n      0x02\n      add\n      sload\n        /* \"contracts/stake_reward_MLM.sol\":6002:6017  block.timestamp */\n      timestamp\n        /* \"contracts/stake_reward_MLM.sol\":6002:6070  block.timestamp - DUSDinvestor[msg.sender].investment[i].DepositTime */\n      tag_180\n      swap2\n      swap1\n      tag_181\n      jump\t// in\n    tag_180:\n        /* \"contracts/stake_reward_MLM.sol\":5993:6070  depTime =block.timestamp - DUSDinvestor[msg.sender].investment[i].DepositTime */\n      swap4\n      pop\n        /* \"contracts/stake_reward_MLM.sol\":5903:6263  if(!DUSDinvestor[msg.sender].investment[i].unstake)... */\n      jump(tag_182)\n    tag_179:\n        /* \"contracts/stake_reward_MLM.sol\":6194:6206  DUSDinvestor */\n      0x0b\n        /* \"contracts/stake_reward_MLM.sol\":6194:6218  DUSDinvestor[msg.sender] */\n      0x00\n        /* \"contracts/stake_reward_MLM.sol\":6207:6217  msg.sender */\n      caller\n        /* \"contracts/stake_reward_MLM.sol\":6194:6218  DUSDinvestor[msg.sender] */\n      0xffffffffffffffffffffffffffffffffffffffff\n      and\n      0xffffffffffffffffffffffffffffffffffffffff\n      and\n      dup2\n      mstore\n      0x20\n      add\n      swap1\n      dup2\n      mstore\n      0x20\n      add\n      0x00\n      keccak256\n        /* \"contracts/stake_reward_MLM.sol\":6194:6229  DUSDinvestor[msg.sender].investment */\n      0x00\n      add\n        /* \"contracts/stake_reward_MLM.sol\":6194:6232  DUSDinvestor[msg.sender].investment[i] */\n      0x00\n        /* \"contracts/stake_reward_MLM.sol\":6230:6231  i */\n      dup3\n        /* \"contracts/stake_reward_MLM.sol\":6194:6232  DUSDinvestor[msg.sender].investment[i] */\n      dup2\n      mstore\n      0x20\n      add\n      swap1\n      dup2\n      mstore\n      0x20\n      add\n      0x00\n      keccak256\n        /* \"contracts/stake_reward_MLM.sol\":6194:6244  DUSDinvestor[msg.sender].investment[i].DepositTime */\n      0x02\n      add\n      sload\n        /* \"contracts/stake_reward_MLM.sol\":6141:6153  DUSDinvestor */\n      0x0b\n        /* \"contracts/stake_reward_MLM.sol\":6141:6165  DUSDinvestor[msg.sender] */\n      0x00\n        /* \"contracts/stake_reward_MLM.sol\":6154:6164  msg.sender */\n      caller\n        /* \"contracts/stake_reward_MLM.sol\":6141:6165  DUSDinvestor[msg.sender] */\n      0xffffffffffffffffffffffffffffffffffffffff\n      and\n      0xffffffffffffffffffffffffffffffffffffffff\n      and\n      dup2\n      mstore\n      0x20\n      add\n      swap1\n      dup2\n      mstore\n      0x20\n      add\n      0x00\n      keccak256\n        /* \"contracts/stake_reward_MLM.sol\":6141:6176  DUSDinvestor[msg.sender].investment */\n      0x00\n      add\n        /* \"contracts/stake_reward_MLM.sol\":6141:6179  DUSDinvestor[msg.sender].investment[i] */\n      0x00\n        /* \"contracts/stake_reward_MLM.sol\":6177:6178  i */\n      dup4\n        /* \"contracts/stake_reward_MLM.sol\":6141:6179  DUSDinvestor[msg.sender].investment[i] */\n      dup2\n      mstore\n      0x20\n      add\n      swap1\n      dup2\n      mstore\n      0x20\n      add\n      0x00\n      keccak256\n        /* \"contracts/stake_reward_MLM.sol\":6141:6191  DUSDinvestor[msg.sender].investment[i].unstakeTime */\n      0x04\n      add\n      sload\n        /* \"contracts/stake_reward_MLM.sol\":6141:6244  DUSDinvestor[msg.sender].investment[i].unstakeTime - DUSDinvestor[msg.sender].investment[i].DepositTime */\n      tag_183\n      swap2\n      swap1\n      tag_181\n      jump\t// in\n    tag_183:\n        /* \"contracts/stake_reward_MLM.sol\":6132:6244  depTime =DUSDinvestor[msg.sender].investment[i].unstakeTime - DUSDinvestor[msg.sender].investment[i].DepositTime */\n      swap4\n      pop\n        /* \"contracts/stake_reward_MLM.sol\":5903:6263  if(!DUSDinvestor[msg.sender].investment[i].unstake)... */\n    tag_182:\n        /* \"contracts/stake_reward_MLM.sol\":6296:6298  60 */\n      0x3c\n        /* \"contracts/stake_reward_MLM.sol\":6288:6295  depTime */\n      dup5\n        /* \"contracts/stake_reward_MLM.sol\":6288:6298  depTime/60 */\n      tag_184\n      swap2\n      swap1\n      tag_185\n      jump\t// in\n    tag_184:\n        /* \"contracts/stake_reward_MLM.sol\":6280:6298  depTime=depTime/60 */\n      swap4\n      pop\n        /* \"contracts/stake_reward_MLM.sol\":6335:6336  0 */\n      0x00\n        /* \"contracts/stake_reward_MLM.sol\":6327:6334  depTime */\n      dup5\n        /* \"contracts/stake_reward_MLM.sol\":6327:6336  depTime>0 */\n      gt\n        /* \"contracts/stake_reward_MLM.sol\":6324:6533  if(depTime>0)... */\n      iszero\n      tag_186\n      jumpi\n        /* \"contracts/stake_reward_MLM.sol\":6453:6464  denomenator */\n      sload(0x07)\n        /* \"contracts/stake_reward_MLM.sol\":6440:6451  rewardToken */\n      sload(0x04)\n        /* \"contracts/stake_reward_MLM.sol\":6385:6397  DUSDinvestor */\n      0x0b\n        /* \"contracts/stake_reward_MLM.sol\":6385:6409  DUSDinvestor[msg.sender] */\n      0x00\n        /* \"contracts/stake_reward_MLM.sol\":6398:6408  msg.sender */\n      caller\n        /* \"contracts/stake_reward_MLM.sol\":6385:6409  DUSDinvestor[msg.sender] */\n      0xffffffffffffffffffffffffffffffffffffffff\n      and\n      0xffffffffffffffffffffffffffffffffffffffff\n      and\n      dup2\n      mstore\n      0x20\n      add\n      swap1\n      dup2\n      mstore\n      0x20\n      add\n      0x00\n      keccak256\n        /* \"contracts/stake_reward_MLM.sol\":6385:6420  DUSDinvestor[msg.sender].investment */\n      0x00\n      add\n        /* \"contracts/stake_reward_MLM.sol\":6385:6423  DUSDinvestor[msg.sender].investment[i] */\n      0x00\n        /* \"contracts/stake_reward_MLM.sol\":6421:6422  i */\n      dup5\n        /* \"contracts/stake_reward_MLM.sol\":6385:6423  DUSDinvestor[msg.sender].investment[i] */\n      dup2\n      mstore\n      0x20\n      add\n      swap1\n      dup2\n      mstore\n      0x20\n      add\n      0x00\n      keccak256\n        /* \"contracts/stake_reward_MLM.sol\":6385:6438  DUSDinvestor[msg.sender].investment[i].investedAmount */\n      0x00\n      add\n      sload\n        /* \"contracts/stake_reward_MLM.sol\":6384:6451  (DUSDinvestor[msg.sender].investment[i].investedAmount)*rewardToken */\n      tag_187\n      swap2\n      swap1\n      tag_136\n      jump\t// in\n    tag_187:\n        /* \"contracts/stake_reward_MLM.sol\":6383:6464  ((DUSDinvestor[msg.sender].investment[i].investedAmount)*rewardToken)/denomenator */\n      tag_188\n      swap2\n      swap1\n      tag_185\n      jump\t// in\n    tag_188:\n        /* \"contracts/stake_reward_MLM.sol\":6376:6464  rew  = ((DUSDinvestor[msg.sender].investment[i].investedAmount)*rewardToken)/denomenator */\n      swap3\n      pop\n        /* \"contracts/stake_reward_MLM.sol\":6511:6514  rew */\n      dup3\n        /* \"contracts/stake_reward_MLM.sol\":6501:6508  depTime */\n      dup5\n        /* \"contracts/stake_reward_MLM.sol\":6501:6514  depTime * rew */\n      tag_189\n      swap2\n      swap1\n      tag_136\n      jump\t// in\n    tag_189:\n        /* \"contracts/stake_reward_MLM.sol\":6486:6514  totalReward += depTime * rew */\n      dup6\n      tag_190\n      swap2\n      swap1\n      tag_130\n      jump\t// in\n    tag_190:\n      swap5\n      pop\n        /* \"contracts/stake_reward_MLM.sol\":6324:6533  if(depTime>0)... */\n    tag_186:\n        /* \"contracts/stake_reward_MLM.sol\":5865:5868  i++ */\n      dup1\n      dup1\n      tag_191\n      swap1\n      tag_127\n      jump\t// in\n    tag_191:\n      swap2\n      pop\n      pop\n        /* \"contracts/stake_reward_MLM.sol\":5840:6547  for( uint i = 0;i < temp;i++)... */\n      jump(tag_176)\n    tag_177:\n      pop\n        /* \"contracts/stake_reward_MLM.sol\":6575:6587  DUSDinvestor */\n      0x0b\n        /* \"contracts/stake_reward_MLM.sol\":6575:6599  DUSDinvestor[msg.sender] */\n      0x00\n        /* \"contracts/stake_reward_MLM.sol\":6588:6598  msg.sender */\n      caller\n        /* \"contracts/stake_reward_MLM.sol\":6575:6599  DUSDinvestor[msg.sender] */\n      0xffffffffffffffffffffffffffffffffffffffff\n      and\n      0xffffffffffffffffffffffffffffffffffffffff\n      and\n      dup2\n      mstore\n      0x20\n      add\n      swap1\n      dup2\n      mstore\n      0x20\n      add\n      0x00\n      keccak256\n        /* \"contracts/stake_reward_MLM.sol\":6575:6620  DUSDinvestor[msg.sender].totalWithdraw_reward */\n      0x07\n      add\n      sload\n        /* \"contracts/stake_reward_MLM.sol\":6560:6620  totalReward -= DUSDinvestor[msg.sender].totalWithdraw_reward */\n      dup5\n      tag_192\n      swap2\n      swap1\n      tag_181\n      jump\t// in\n    tag_192:\n      swap4\n      pop\n        /* \"contracts/stake_reward_MLM.sol\":6642:6653  totalReward */\n      dup4\n        /* \"contracts/stake_reward_MLM.sol\":6635:6653  return totalReward */\n      swap5\n      pop\n      pop\n      pop\n      pop\n      pop\n        /* \"contracts/stake_reward_MLM.sol\":5573:6664  function getReward() view public returns(uint){ //this function is get the total reward balance of the investor... */\n      swap1\n      jump\t// out\n        /* \"contracts/stake_reward_MLM.sol\":10770:11052  function set_values(uint min_stake,uint max_stake,uint reward_per_day,uint _denomenator) public ... */\n    tag_61:\n        /* \"contracts/stake_reward_MLM.sol\":10908:10917  max_stake */\n      dup3\n        /* \"contracts/stake_reward_MLM.sol\":10889:10905  max_Stake_amount */\n      0x06\n        /* \"contracts/stake_reward_MLM.sol\":10889:10917  max_Stake_amount = max_stake */\n      dup2\n      swap1\n      sstore\n      pop\n        /* \"contracts/stake_reward_MLM.sol\":10950:10959  min_stake */\n      dup4\n        /* \"contracts/stake_reward_MLM.sol\":10931:10947  min_Stake_amount */\n      0x05\n        /* \"contracts/stake_reward_MLM.sol\":10931:10959  min_Stake_amount = min_stake */\n      dup2\n      swap1\n      sstore\n      pop\n        /* \"contracts/stake_reward_MLM.sol\":10987:11001  reward_per_day */\n      dup2\n        /* \"contracts/stake_reward_MLM.sol\":10973:10984  rewardToken */\n      0x04\n        /* \"contracts/stake_reward_MLM.sol\":10973:11001  rewardToken = reward_per_day */\n      dup2\n      swap1\n      sstore\n      pop\n        /* \"contracts/stake_reward_MLM.sol\":11029:11041  _denomenator */\n      dup1\n        /* \"contracts/stake_reward_MLM.sol\":11015:11026  denomenator */\n      0x07\n        /* \"contracts/stake_reward_MLM.sol\":11015:11041  denomenator = _denomenator */\n      dup2\n      swap1\n      sstore\n      pop\n        /* \"contracts/stake_reward_MLM.sol\":10770:11052  function set_values(uint min_stake,uint max_stake,uint reward_per_day,uint _denomenator) public ... */\n      pop\n      pop\n      pop\n      pop\n      jump\t// out\n        /* \"contracts/stake_reward_MLM.sol\":10650:10761  function set_max_Stake_amount(uint _amount) public ... */\n    tag_64:\n        /* \"contracts/stake_reward_MLM.sol\":10743:10750  _amount */\n      dup1\n        /* \"contracts/stake_reward_MLM.sol\":10724:10740  max_Stake_amount */\n      0x06\n        /* \"contracts/stake_reward_MLM.sol\":10724:10750  max_Stake_amount = _amount */\n      dup2\n      swap1\n      sstore\n      pop\n        /* \"contracts/stake_reward_MLM.sol\":10650:10761  function set_max_Stake_amount(uint _amount) public ... */\n      pop\n      jump\t// out\n        /* \"contracts/stake_reward_MLM.sol\":792:829  uint public investmentPeriod=300 days */\n    tag_66:\n      sload(0x08)\n      dup2\n      jump\t// out\n        /* \"contracts/stake_reward_MLM.sol\":7166:8723  function unStake() external  returns (bool success){... */\n    tag_69:\n        /* \"contracts/stake_reward_MLM.sol\":7204:7216  bool success */\n      0x00\n        /* \"contracts/stake_reward_MLM.sol\":7280:7281  0 */\n      dup1\n        /* \"contracts/stake_reward_MLM.sol\":7239:7251  DUSDinvestor */\n      0x0b\n        /* \"contracts/stake_reward_MLM.sol\":7239:7263  DUSDinvestor[msg.sender] */\n      0x00\n        /* \"contracts/stake_reward_MLM.sol\":7252:7262  msg.sender */\n      caller\n        /* \"contracts/stake_reward_MLM.sol\":7239:7263  DUSDinvestor[msg.sender] */\n      0xffffffffffffffffffffffffffffffffffffffff\n      and\n      0xffffffffffffffffffffffffffffffffffffffff\n      and\n      dup2\n      mstore\n      0x20\n      add\n      swap1\n      dup2\n      mstore\n      0x20\n      add\n      0x00\n      keccak256\n        /* \"contracts/stake_reward_MLM.sol\":7239:7279  DUSDinvestor[msg.sender].totalInvestment */\n      0x06\n      add\n      sload\n        /* \"contracts/stake_reward_MLM.sol\":7239:7281  DUSDinvestor[msg.sender].totalInvestment>0 */\n      gt\n        /* \"contracts/stake_reward_MLM.sol\":7231:7322  require(DUSDinvestor[msg.sender].totalInvestment>0,\"you dont have investment to withdrawn\") */\n      tag_196\n      jumpi\n      mload(0x40)\n      0x08c379a000000000000000000000000000000000000000000000000000000000\n      dup2\n      mstore\n      0x04\n      add\n      tag_197\n      swap1\n      tag_198\n      jump\t// in\n    tag_197:\n      mload(0x40)\n      dup1\n      swap2\n      sub\n      swap1\n      revert\n    tag_196:\n        /* \"contracts/stake_reward_MLM.sol\":7394:7405  uint amount */\n      0x00\n        /* \"contracts/stake_reward_MLM.sol\":7406:7418  DUSDinvestor */\n      0x0b\n        /* \"contracts/stake_reward_MLM.sol\":7406:7430  DUSDinvestor[msg.sender] */\n      0x00\n        /* \"contracts/stake_reward_MLM.sol\":7419:7429  msg.sender */\n      caller\n        /* \"contracts/stake_reward_MLM.sol\":7406:7430  DUSDinvestor[msg.sender] */\n      0xffffffffffffffffffffffffffffffffffffffff\n      and\n      0xffffffffffffffffffffffffffffffffffffffff\n      and\n      dup2\n      mstore\n      0x20\n      add\n      swap1\n      dup2\n      mstore\n      0x20\n      add\n      0x00\n      keccak256\n        /* \"contracts/stake_reward_MLM.sol\":7406:7446  DUSDinvestor[msg.sender].totalInvestment */\n      0x06\n      add\n      sload\n        /* \"contracts/stake_reward_MLM.sol\":7394:7446  uint amount=DUSDinvestor[msg.sender].totalInvestment */\n      swap1\n      pop\n        /* \"contracts/stake_reward_MLM.sol\":7460:7469  uint temp */\n      0x00\n        /* \"contracts/stake_reward_MLM.sol\":7472:7484  DUSDinvestor */\n      0x0b\n        /* \"contracts/stake_reward_MLM.sol\":7472:7496  DUSDinvestor[msg.sender] */\n      0x00\n        /* \"contracts/stake_reward_MLM.sol\":7485:7495  msg.sender */\n      caller\n        /* \"contracts/stake_reward_MLM.sol\":7472:7496  DUSDinvestor[msg.sender] */\n      0xffffffffffffffffffffffffffffffffffffffff\n      and\n      0xffffffffffffffffffffffffffffffffffffffff\n      and\n      dup2\n      mstore\n      0x20\n      add\n      swap1\n      dup2\n      mstore\n      0x20\n      add\n      0x00\n      keccak256\n        /* \"contracts/stake_reward_MLM.sol\":7472:7511  DUSDinvestor[msg.sender].noOfInvestment */\n      0x05\n      add\n      sload\n        /* \"contracts/stake_reward_MLM.sol\":7460:7511  uint temp = DUSDinvestor[msg.sender].noOfInvestment */\n      swap1\n      pop\n        /* \"contracts/stake_reward_MLM.sol\":7525:7534  uint from */\n      0x00\n        /* \"contracts/stake_reward_MLM.sol\":7537:7550  rew_till_done */\n      sload(0x0a)\n        /* \"contracts/stake_reward_MLM.sol\":7525:7550  uint from = rew_till_done */\n      swap1\n      pop\n        /* \"contracts/stake_reward_MLM.sol\":7564:7577  uint amount30 */\n      0x00\n        /* \"contracts/stake_reward_MLM.sol\":7591:7604  uint amount70 */\n      dup1\n        /* \"contracts/stake_reward_MLM.sol\":7658:7673  block.timestamp */\n      timestamp\n        /* \"contracts/stake_reward_MLM.sol\":7621:7633  DUSDinvestor */\n      0x0b\n        /* \"contracts/stake_reward_MLM.sol\":7621:7645  DUSDinvestor[msg.sender] */\n      0x00\n        /* \"contracts/stake_reward_MLM.sol\":7634:7644  msg.sender */\n      caller\n        /* \"contracts/stake_reward_MLM.sol\":7621:7645  DUSDinvestor[msg.sender] */\n      0xffffffffffffffffffffffffffffffffffffffff\n      and\n      0xffffffffffffffffffffffffffffffffffffffff\n      and\n      dup2\n      mstore\n      0x20\n      add\n      swap1\n      dup2\n      mstore\n      0x20\n      add\n      0x00\n      keccak256\n        /* \"contracts/stake_reward_MLM.sol\":7621:7655  DUSDinvestor[msg.sender].stakeTime */\n      0x09\n      add\n      sload\n        /* \"contracts/stake_reward_MLM.sol\":7621:7673  DUSDinvestor[msg.sender].stakeTime > block.timestamp */\n      gt\n        /* \"contracts/stake_reward_MLM.sol\":7618:8179  if(DUSDinvestor[msg.sender].stakeTime > block.timestamp)... */\n      iszero\n      tag_199\n      jumpi\n        /* \"contracts/stake_reward_MLM.sol\":7728:7731  100 */\n      0x64\n        /* \"contracts/stake_reward_MLM.sol\":7724:7726  30 */\n      0x1e\n        /* \"contracts/stake_reward_MLM.sol\":7717:7723  amount */\n      dup7\n        /* \"contracts/stake_reward_MLM.sol\":7717:7726  amount*30 */\n      tag_200\n      swap2\n      swap1\n      tag_136\n      jump\t// in\n    tag_200:\n        /* \"contracts/stake_reward_MLM.sol\":7716:7731  (amount*30)/100 */\n      tag_201\n      swap2\n      swap1\n      tag_185\n      jump\t// in\n    tag_201:\n        /* \"contracts/stake_reward_MLM.sol\":7705:7731  amount30 = (amount*30)/100 */\n      swap2\n      pop\n        /* \"contracts/stake_reward_MLM.sol\":7772:7774  70 */\n      0x46\n        /* \"contracts/stake_reward_MLM.sol\":7768:7770  70 */\n      dup1\n        /* \"contracts/stake_reward_MLM.sol\":7761:7767  amount */\n      dup7\n        /* \"contracts/stake_reward_MLM.sol\":7761:7770  amount*70 */\n      tag_202\n      swap2\n      swap1\n      tag_136\n      jump\t// in\n    tag_202:\n        /* \"contracts/stake_reward_MLM.sol\":7760:7774  (amount*70)/70 */\n      tag_203\n      swap2\n      swap1\n      tag_185\n      jump\t// in\n    tag_203:\n        /* \"contracts/stake_reward_MLM.sol\":7749:7774  amount70 = (amount*70)/70 */\n      swap1\n      pop\n        /* \"contracts/stake_reward_MLM.sol\":7797:7808  SMCcontract */\n      0x01\n      0x00\n      swap1\n      sload\n      swap1\n      0x0100\n      exp\n      swap1\n      div\n      0xffffffffffffffffffffffffffffffffffffffff\n      and\n        /* \"contracts/stake_reward_MLM.sol\":7792:7818  DUSD(SMCcontract).transfer */\n      0xffffffffffffffffffffffffffffffffffffffff\n      and\n      0xa9059cbb\n        /* \"contracts/stake_reward_MLM.sol\":7819:7829  msg.sender */\n      caller\n        /* \"contracts/stake_reward_MLM.sol\":7841:7848  1 ether */\n      0x0de0b6b3a7640000\n        /* \"contracts/stake_reward_MLM.sol\":7830:7838  amount30 */\n      dup6\n        /* \"contracts/stake_reward_MLM.sol\":7830:7848  amount30 * 1 ether */\n      tag_204\n      swap2\n      swap1\n      tag_136\n      jump\t// in\n    tag_204:\n        /* \"contracts/stake_reward_MLM.sol\":7792:7849  DUSD(SMCcontract).transfer(msg.sender,amount30 * 1 ether) */\n      mload(0x40)\n      dup4\n      0xffffffff\n      and\n      0xe0\n      shl\n      dup2\n      mstore\n      0x04\n      add\n      tag_205\n      swap3\n      swap2\n      swap1\n      tag_206\n      jump\t// in\n    tag_205:\n      0x20\n      mload(0x40)\n      dup1\n      dup4\n      sub\n      dup2\n      0x00\n      dup8\n      dup1\n      extcodesize\n      iszero\n      dup1\n      iszero\n      tag_207\n      jumpi\n      0x00\n      dup1\n      revert\n    tag_207:\n      pop\n      gas\n      call\n      iszero\n      dup1\n      iszero\n      tag_209\n      jumpi\n      returndatasize\n      0x00\n      dup1\n      returndatacopy\n      revert(0x00, returndatasize)\n    tag_209:\n      pop\n      pop\n      pop\n      pop\n      mload(0x40)\n      returndatasize\n      not(0x1f)\n      0x1f\n      dup3\n      add\n      and\n      dup3\n      add\n      dup1\n      0x40\n      mstore\n      pop\n      dup2\n      add\n      swap1\n      tag_210\n      swap2\n      swap1\n      tag_143\n      jump\t// in\n    tag_210:\n      pop\n        /* \"contracts/stake_reward_MLM.sol\":7940:7951  SMCcontract */\n      0x01\n      0x00\n      swap1\n      sload\n      swap1\n      0x0100\n      exp\n      swap1\n      div\n      0xffffffffffffffffffffffffffffffffffffffff\n      and\n        /* \"contracts/stake_reward_MLM.sol\":7935:7961  DUSD(SMCcontract).transfer */\n      0xffffffffffffffffffffffffffffffffffffffff\n      and\n      0xa9059cbb\n        /* \"contracts/stake_reward_MLM.sol\":7962:7967  owner */\n      0x00\n      dup1\n      sload\n      swap1\n      0x0100\n      exp\n      swap1\n      div\n      0xffffffffffffffffffffffffffffffffffffffff\n      and\n        /* \"contracts/stake_reward_MLM.sol\":7979:7986  1 ether */\n      0x0de0b6b3a7640000\n        /* \"contracts/stake_reward_MLM.sol\":7968:7976  amount70 */\n      dup5\n        /* \"contracts/stake_reward_MLM.sol\":7968:7986  amount70 * 1 ether */\n      tag_211\n      swap2\n      swap1\n      tag_136\n      jump\t// in\n    tag_211:\n        /* \"contracts/stake_reward_MLM.sol\":7935:7987  DUSD(SMCcontract).transfer(owner,amount70 * 1 ether) */\n      mload(0x40)\n      dup4\n      0xffffffff\n      and\n      0xe0\n      shl\n      dup2\n      mstore\n      0x04\n      add\n      tag_212\n      swap3\n      swap2\n      swap1\n      tag_206\n      jump\t// in\n    tag_212:\n      0x20\n      mload(0x40)\n      dup1\n      dup4\n      sub\n      dup2\n      0x00\n      dup8\n      dup1\n      extcodesize\n      iszero\n      dup1\n      iszero\n      tag_213\n      jumpi\n      0x00\n      dup1\n      revert\n    tag_213:\n      pop\n      gas\n      call\n      iszero\n      dup1\n      iszero\n      tag_215\n      jumpi\n      returndatasize\n      0x00\n      dup1\n      returndatacopy\n      revert(0x00, returndatasize)\n    tag_215:\n      pop\n      pop\n      pop\n      pop\n      mload(0x40)\n      returndatasize\n      not(0x1f)\n      0x1f\n      dup3\n      add\n      and\n      dup3\n      add\n      dup1\n      0x40\n      mstore\n      pop\n      dup2\n      add\n      swap1\n      tag_216\n      swap2\n      swap1\n      tag_143\n      jump\t// in\n    tag_216:\n      pop\n        /* \"contracts/stake_reward_MLM.sol\":7618:8179  if(DUSDinvestor[msg.sender].stakeTime > block.timestamp)... */\n      jump(tag_217)\n    tag_199:\n        /* \"contracts/stake_reward_MLM.sol\":8047:8058  SMCcontract */\n      0x01\n      0x00\n      swap1\n      sload\n      swap1\n      0x0100\n      exp\n      swap1\n      div\n      0xffffffffffffffffffffffffffffffffffffffff\n      and\n        /* \"contracts/stake_reward_MLM.sol\":8042:8068  DUSD(SMCcontract).transfer */\n      0xffffffffffffffffffffffffffffffffffffffff\n      and\n      0xa9059cbb\n        /* \"contracts/stake_reward_MLM.sol\":8069:8079  msg.sender */\n      caller\n        /* \"contracts/stake_reward_MLM.sol\":8088:8095  1 ether */\n      0x0de0b6b3a7640000\n        /* \"contracts/stake_reward_MLM.sol\":8080:8086  amount */\n      dup9\n        /* \"contracts/stake_reward_MLM.sol\":8080:8095  amount* 1 ether */\n      tag_218\n      swap2\n      swap1\n      tag_136\n      jump\t// in\n    tag_218:\n        /* \"contracts/stake_reward_MLM.sol\":8042:8096  DUSD(SMCcontract).transfer(msg.sender,amount* 1 ether) */\n      mload(0x40)\n      dup4\n      0xffffffff\n      and\n      0xe0\n      shl\n      dup2\n      mstore\n      0x04\n      add\n      tag_219\n      swap3\n      swap2\n      swap1\n      tag_206\n      jump\t// in\n    tag_219:\n      0x20\n      mload(0x40)\n      dup1\n      dup4\n      sub\n      dup2\n      0x00\n      dup8\n      dup1\n      extcodesize\n      iszero\n      dup1\n      iszero\n      tag_220\n      jumpi\n      0x00\n      dup1\n      revert\n    tag_220:\n      pop\n      gas\n      call\n      iszero\n      dup1\n      iszero\n      tag_222\n      jumpi\n      returndatasize\n      0x00\n      dup1\n      returndatacopy\n      revert(0x00, returndatasize)\n    tag_222:\n      pop\n      pop\n      pop\n      pop\n      mload(0x40)\n      returndatasize\n      not(0x1f)\n      0x1f\n      dup3\n      add\n      and\n      dup3\n      add\n      dup1\n      0x40\n      mstore\n      pop\n      dup2\n      add\n      swap1\n      tag_223\n      swap2\n      swap1\n      tag_143\n      jump\t// in\n    tag_223:\n      pop\n        /* \"contracts/stake_reward_MLM.sol\":7618:8179  if(DUSDinvestor[msg.sender].stakeTime > block.timestamp)... */\n    tag_217:\n        /* \"contracts/stake_reward_MLM.sol\":8202:8203  0 */\n      0x00\n        /* \"contracts/stake_reward_MLM.sol\":8197:8203  from=0 */\n      swap3\n      pop\n        /* \"contracts/stake_reward_MLM.sol\":8192:8454  for( from=0;from < temp;from++)... */\n    tag_224:\n        /* \"contracts/stake_reward_MLM.sol\":8211:8215  temp */\n      dup4\n        /* \"contracts/stake_reward_MLM.sol\":8204:8208  from */\n      dup4\n        /* \"contracts/stake_reward_MLM.sol\":8204:8215  from < temp */\n      lt\n        /* \"contracts/stake_reward_MLM.sol\":8192:8454  for( from=0;from < temp;from++)... */\n      iszero\n      tag_225\n      jumpi\n        /* \"contracts/stake_reward_MLM.sol\":8308:8312  true */\n      0x01\n        /* \"contracts/stake_reward_MLM.sol\":8257:8269  DUSDinvestor */\n      0x0b\n        /* \"contracts/stake_reward_MLM.sol\":8257:8281  DUSDinvestor[msg.sender] */\n      0x00\n        /* \"contracts/stake_reward_MLM.sol\":8270:8280  msg.sender */\n      caller\n        /* \"contracts/stake_reward_MLM.sol\":8257:8281  DUSDinvestor[msg.sender] */\n      0xffffffffffffffffffffffffffffffffffffffff\n      and\n      0xffffffffffffffffffffffffffffffffffffffff\n      and\n      dup2\n      mstore\n      0x20\n      add\n      swap1\n      dup2\n      mstore\n      0x20\n      add\n      0x00\n      keccak256\n        /* \"contracts/stake_reward_MLM.sol\":8257:8292  DUSDinvestor[msg.sender].investment */\n      0x00\n      add\n        /* \"contracts/stake_reward_MLM.sol\":8257:8298  DUSDinvestor[msg.sender].investment[from] */\n      0x00\n        /* \"contracts/stake_reward_MLM.sol\":8293:8297  from */\n      dup6\n        /* \"contracts/stake_reward_MLM.sol\":8257:8298  DUSDinvestor[msg.sender].investment[from] */\n      dup2\n      mstore\n      0x20\n      add\n      swap1\n      dup2\n      mstore\n      0x20\n      add\n      0x00\n      keccak256\n        /* \"contracts/stake_reward_MLM.sol\":8257:8306  DUSDinvestor[msg.sender].investment[from].unstake */\n      0x05\n      add\n      0x00\n        /* \"contracts/stake_reward_MLM.sol\":8257:8312  DUSDinvestor[msg.sender].investment[from].unstake =true */\n      0x0100\n      exp\n      dup2\n      sload\n      dup2\n      0xff\n      mul\n      not\n      and\n      swap1\n      dup4\n      iszero\n      iszero\n      mul\n      or\n      swap1\n      sstore\n      pop\n        /* \"contracts/stake_reward_MLM.sol\":8389:8404  block.timestamp */\n      timestamp\n        /* \"contracts/stake_reward_MLM.sol\":8334:8346  DUSDinvestor */\n      0x0b\n        /* \"contracts/stake_reward_MLM.sol\":8334:8358  DUSDinvestor[msg.sender] */\n      0x00\n        /* \"contracts/stake_reward_MLM.sol\":8347:8357  msg.sender */\n      caller\n        /* \"contracts/stake_reward_MLM.sol\":8334:8358  DUSDinvestor[msg.sender] */\n      0xffffffffffffffffffffffffffffffffffffffff\n      and\n      0xffffffffffffffffffffffffffffffffffffffff\n      and\n      dup2\n      mstore\n      0x20\n      add\n      swap1\n      dup2\n      mstore\n      0x20\n      add\n      0x00\n      keccak256\n        /* \"contracts/stake_reward_MLM.sol\":8334:8369  DUSDinvestor[msg.sender].investment */\n      0x00\n      add\n        /* \"contracts/stake_reward_MLM.sol\":8334:8375  DUSDinvestor[msg.sender].investment[from] */\n      0x00\n        /* \"contracts/stake_reward_MLM.sol\":8370:8374  from */\n      dup6\n        /* \"contracts/stake_reward_MLM.sol\":8334:8375  DUSDinvestor[msg.sender].investment[from] */\n      dup2\n      mstore\n      0x20\n      add\n      swap1\n      dup2\n      mstore\n      0x20\n      add\n      0x00\n      keccak256\n        /* \"contracts/stake_reward_MLM.sol\":8334:8387  DUSDinvestor[msg.sender].investment[from].unstakeTime */\n      0x04\n      add\n        /* \"contracts/stake_reward_MLM.sol\":8334:8404  DUSDinvestor[msg.sender].investment[from].unstakeTime =block.timestamp */\n      dup2\n      swap1\n      sstore\n      pop\n        /* \"contracts/stake_reward_MLM.sol\":8216:8222  from++ */\n      dup3\n      dup1\n      tag_227\n      swap1\n      tag_127\n      jump\t// in\n    tag_227:\n      swap4\n      pop\n      pop\n        /* \"contracts/stake_reward_MLM.sol\":8192:8454  for( from=0;from < temp;from++)... */\n      jump(tag_224)\n    tag_225:\n        /* \"contracts/stake_reward_MLM.sol\":8482:8494  DUSDinvestor */\n      0x0b\n        /* \"contracts/stake_reward_MLM.sol\":8482:8506  DUSDinvestor[msg.sender] */\n      0x00\n        /* \"contracts/stake_reward_MLM.sol\":8495:8505  msg.sender */\n      caller\n        /* \"contracts/stake_reward_MLM.sol\":8482:8506  DUSDinvestor[msg.sender] */\n      0xffffffffffffffffffffffffffffffffffffffff\n      and\n      0xffffffffffffffffffffffffffffffffffffffff\n      and\n      dup2\n      mstore\n      0x20\n      add\n      swap1\n      dup2\n      mstore\n      0x20\n      add\n      0x00\n      keccak256\n        /* \"contracts/stake_reward_MLM.sol\":8482:8521  DUSDinvestor[msg.sender].noOfInvestment */\n      0x05\n      add\n      sload\n        /* \"contracts/stake_reward_MLM.sol\":8467:8480  rew_till_done */\n      0x0a\n        /* \"contracts/stake_reward_MLM.sol\":8467:8521  rew_till_done =DUSDinvestor[msg.sender].noOfInvestment */\n      dup2\n      swap1\n      sstore\n      pop\n        /* \"contracts/stake_reward_MLM.sol\":8615:8616  0 */\n      0x00\n        /* \"contracts/stake_reward_MLM.sol\":8574:8586  DUSDinvestor */\n      0x0b\n        /* \"contracts/stake_reward_MLM.sol\":8574:8598  DUSDinvestor[msg.sender] */\n      0x00\n        /* \"contracts/stake_reward_MLM.sol\":8587:8597  msg.sender */\n      caller\n        /* \"contracts/stake_reward_MLM.sol\":8574:8598  DUSDinvestor[msg.sender] */\n      0xffffffffffffffffffffffffffffffffffffffff\n      and\n      0xffffffffffffffffffffffffffffffffffffffff\n      and\n      dup2\n      mstore\n      0x20\n      add\n      swap1\n      dup2\n      mstore\n      0x20\n      add\n      0x00\n      keccak256\n        /* \"contracts/stake_reward_MLM.sol\":8574:8614  DUSDinvestor[msg.sender].totalInvestment */\n      0x06\n      add\n        /* \"contracts/stake_reward_MLM.sol\":8574:8616  DUSDinvestor[msg.sender].totalInvestment=0 */\n      dup2\n      swap1\n      sstore\n      pop\n        /* \"contracts/stake_reward_MLM.sol\":8707:8711  true */\n      0x01\n        /* \"contracts/stake_reward_MLM.sol\":8700:8711  return true */\n      swap6\n      pop\n      pop\n      pop\n      pop\n      pop\n      pop\n        /* \"contracts/stake_reward_MLM.sol\":7166:8723  function unStake() external  returns (bool success){... */\n      swap1\n      jump\t// out\n        /* \"contracts/stake_reward_MLM.sol\":300:321  address  public owner */\n    tag_72:\n      0x00\n      dup1\n      sload\n      swap1\n      0x0100\n      exp\n      swap1\n      div\n      0xffffffffffffffffffffffffffffffffffffffff\n      and\n      dup2\n      jump\t// out\n        /* \"contracts/stake_reward_MLM.sol\":8733:8943  function getTotalInvestmentDUSD() public view returns(uint) {   //this function is to get the total investment of the ivestor... */\n    tag_76:\n        /* \"contracts/stake_reward_MLM.sol\":8787:8791  uint */\n      0x00\n        /* \"contracts/stake_reward_MLM.sol\":8891:8903  DUSDinvestor */\n      0x0b\n        /* \"contracts/stake_reward_MLM.sol\":8891:8915  DUSDinvestor[msg.sender] */\n      0x00\n        /* \"contracts/stake_reward_MLM.sol\":8904:8914  msg.sender */\n      caller\n        /* \"contracts/stake_reward_MLM.sol\":8891:8915  DUSDinvestor[msg.sender] */\n      0xffffffffffffffffffffffffffffffffffffffff\n      and\n      0xffffffffffffffffffffffffffffffffffffffff\n      and\n      dup2\n      mstore\n      0x20\n      add\n      swap1\n      dup2\n      mstore\n      0x20\n      add\n      0x00\n      keccak256\n        /* \"contracts/stake_reward_MLM.sol\":8891:8931  DUSDinvestor[msg.sender].totalInvestment */\n      0x06\n      add\n      sload\n        /* \"contracts/stake_reward_MLM.sol\":8884:8931  return DUSDinvestor[msg.sender].totalInvestment */\n      swap1\n      pop\n        /* \"contracts/stake_reward_MLM.sol\":8733:8943  function getTotalInvestmentDUSD() public view returns(uint) {   //this function is to get the total investment of the ivestor... */\n      swap1\n      jump\t// out\n        /* \"contracts/stake_reward_MLM.sol\":724:754  uint public denomenator=100000 */\n    tag_79:\n      sload(0x07)\n      dup2\n      jump\t// out\n        /* \"contracts/stake_reward_MLM.sol\":10367:10521  function setReward(uint _amount,uint _denomenator) public ... */\n    tag_84:\n        /* \"contracts/stake_reward_MLM.sol\":10462:10469  _amount */\n      dup2\n        /* \"contracts/stake_reward_MLM.sol\":10448:10459  rewardToken */\n      0x04\n        /* \"contracts/stake_reward_MLM.sol\":10448:10469  rewardToken = _amount */\n      dup2\n      swap1\n      sstore\n      pop\n        /* \"contracts/stake_reward_MLM.sol\":10497:10509  _denomenator */\n      dup1\n        /* \"contracts/stake_reward_MLM.sol\":10483:10494  denomenator */\n      0x07\n        /* \"contracts/stake_reward_MLM.sol\":10483:10509  denomenator = _denomenator */\n      dup2\n      swap1\n      sstore\n      pop\n        /* \"contracts/stake_reward_MLM.sol\":10367:10521  function setReward(uint _amount,uint _denomenator) public ... */\n      pop\n      pop\n      jump\t// out\n        /* \"contracts/stake_reward_MLM.sol\":11245:11810  function referralLevel_earning() public view returns( uint[] memory arr )... */\n    tag_86:\n        /* \"contracts/stake_reward_MLM.sol\":11299:11316  uint[] memory arr */\n      0x60\n        /* \"contracts/stake_reward_MLM.sol\":11341:11376  uint[] memory referralLevels_reward */\n      0x00\n        /* \"contracts/stake_reward_MLM.sol\":11388:11390  20 */\n      0x14\n        /* \"contracts/stake_reward_MLM.sol\":11377:11391  new uint[](20) */\n      0xffffffffffffffff\n      dup2\n      gt\n      iszero\n      tag_231\n      jumpi\n      tag_232\n      tag_161\n      jump\t// in\n    tag_232:\n    tag_231:\n      mload(0x40)\n      swap1\n      dup1\n      dup3\n      mstore\n      dup1\n      0x20\n      mul\n      0x20\n      add\n      dup3\n      add\n      0x40\n      mstore\n      dup1\n      iszero\n      tag_233\n      jumpi\n      dup2\n      0x20\n      add\n      0x20\n      dup3\n      mul\n      dup1\n      calldatasize\n      dup4\n      calldatacopy\n      dup1\n      dup3\n      add\n      swap2\n      pop\n      pop\n      swap1\n      pop\n    tag_233:\n      pop\n        /* \"contracts/stake_reward_MLM.sol\":11341:11391  uint[] memory referralLevels_reward=new uint[](20) */\n      swap1\n      pop\n        /* \"contracts/stake_reward_MLM.sol\":11409:11415  uint i */\n      0x00\n        /* \"contracts/stake_reward_MLM.sol\":11405:11755  for(uint i=0;i<20;i++)... */\n    tag_234:\n        /* \"contracts/stake_reward_MLM.sol\":11420:11422  20 */\n      0x14\n        /* \"contracts/stake_reward_MLM.sol\":11418:11419  i */\n      dup2\n        /* \"contracts/stake_reward_MLM.sol\":11418:11422  i<20 */\n      lt\n        /* \"contracts/stake_reward_MLM.sol\":11405:11755  for(uint i=0;i<20;i++)... */\n      iszero\n      tag_235\n      jumpi\n        /* \"contracts/stake_reward_MLM.sol\":11510:11511  0 */\n      0x00\n        /* \"contracts/stake_reward_MLM.sol\":11461:11473  DUSDinvestor */\n      0x0b\n        /* \"contracts/stake_reward_MLM.sol\":11461:11485  DUSDinvestor[msg.sender] */\n      0x00\n        /* \"contracts/stake_reward_MLM.sol\":11474:11484  msg.sender */\n      caller\n        /* \"contracts/stake_reward_MLM.sol\":11461:11485  DUSDinvestor[msg.sender] */\n      0xffffffffffffffffffffffffffffffffffffffff\n      and\n      0xffffffffffffffffffffffffffffffffffffffff\n      and\n      dup2\n      mstore\n      0x20\n      add\n      swap1\n      dup2\n      mstore\n      0x20\n      add\n      0x00\n      keccak256\n        /* \"contracts/stake_reward_MLM.sol\":11461:11499  DUSDinvestor[msg.sender].referralLevel */\n      0x03\n      add\n        /* \"contracts/stake_reward_MLM.sol\":11461:11502  DUSDinvestor[msg.sender].referralLevel[i] */\n      0x00\n        /* \"contracts/stake_reward_MLM.sol\":11500:11501  i */\n      dup4\n        /* \"contracts/stake_reward_MLM.sol\":11461:11502  DUSDinvestor[msg.sender].referralLevel[i] */\n      dup2\n      mstore\n      0x20\n      add\n      swap1\n      dup2\n      mstore\n      0x20\n      add\n      0x00\n      keccak256\n        /* \"contracts/stake_reward_MLM.sol\":11461:11509  DUSDinvestor[msg.sender].referralLevel[i].reward */\n      0x00\n      add\n      sload\n        /* \"contracts/stake_reward_MLM.sol\":11461:11511  DUSDinvestor[msg.sender].referralLevel[i].reward>0 */\n      gt\n        /* \"contracts/stake_reward_MLM.sol\":11458:11739  if(DUSDinvestor[msg.sender].referralLevel[i].reward>0)... */\n      iszero\n      tag_237\n      jumpi\n        /* \"contracts/stake_reward_MLM.sol\":11578:11590  DUSDinvestor */\n      0x0b\n        /* \"contracts/stake_reward_MLM.sol\":11578:11602  DUSDinvestor[msg.sender] */\n      0x00\n        /* \"contracts/stake_reward_MLM.sol\":11591:11601  msg.sender */\n      caller\n        /* \"contracts/stake_reward_MLM.sol\":11578:11602  DUSDinvestor[msg.sender] */\n      0xffffffffffffffffffffffffffffffffffffffff\n      and\n      0xffffffffffffffffffffffffffffffffffffffff\n      and\n      dup2\n      mstore\n      0x20\n      add\n      swap1\n      dup2\n      mstore\n      0x20\n      add\n      0x00\n      keccak256\n        /* \"contracts/stake_reward_MLM.sol\":11578:11616  DUSDinvestor[msg.sender].referralLevel */\n      0x03\n      add\n        /* \"contracts/stake_reward_MLM.sol\":11578:11619  DUSDinvestor[msg.sender].referralLevel[i] */\n      0x00\n        /* \"contracts/stake_reward_MLM.sol\":11617:11618  i */\n      dup3\n        /* \"contracts/stake_reward_MLM.sol\":11578:11619  DUSDinvestor[msg.sender].referralLevel[i] */\n      dup2\n      mstore\n      0x20\n      add\n      swap1\n      dup2\n      mstore\n      0x20\n      add\n      0x00\n      keccak256\n        /* \"contracts/stake_reward_MLM.sol\":11578:11626  DUSDinvestor[msg.sender].referralLevel[i].reward */\n      0x00\n      add\n      sload\n        /* \"contracts/stake_reward_MLM.sol\":11551:11572  referralLevels_reward */\n      dup3\n        /* \"contracts/stake_reward_MLM.sol\":11573:11574  i */\n      dup3\n        /* \"contracts/stake_reward_MLM.sol\":11551:11575  referralLevels_reward[i] */\n      dup2\n      mload\n      dup2\n      lt\n      tag_238\n      jumpi\n      tag_239\n      tag_172\n      jump\t// in\n    tag_239:\n    tag_238:\n      0x20\n      mul\n      0x20\n      add\n      add\n        /* \"contracts/stake_reward_MLM.sol\":11551:11626  referralLevels_reward[i] = DUSDinvestor[msg.sender].referralLevel[i].reward */\n      dup2\n      dup2\n      mstore\n      pop\n      pop\n        /* \"contracts/stake_reward_MLM.sol\":11458:11739  if(DUSDinvestor[msg.sender].referralLevel[i].reward>0)... */\n      jump(tag_240)\n    tag_237:\n        /* \"contracts/stake_reward_MLM.sol\":11718:11719  0 */\n      0x00\n        /* \"contracts/stake_reward_MLM.sol\":11691:11712  referralLevels_reward */\n      dup3\n        /* \"contracts/stake_reward_MLM.sol\":11713:11714  i */\n      dup3\n        /* \"contracts/stake_reward_MLM.sol\":11691:11715  referralLevels_reward[i] */\n      dup2\n      mload\n      dup2\n      lt\n      tag_241\n      jumpi\n      tag_242\n      tag_172\n      jump\t// in\n    tag_242:\n    tag_241:\n      0x20\n      mul\n      0x20\n      add\n      add\n        /* \"contracts/stake_reward_MLM.sol\":11691:11719  referralLevels_reward[i] = 0 */\n      dup2\n      dup2\n      mstore\n      pop\n      pop\n        /* \"contracts/stake_reward_MLM.sol\":11458:11739  if(DUSDinvestor[msg.sender].referralLevel[i].reward>0)... */\n    tag_240:\n        /* \"contracts/stake_reward_MLM.sol\":11423:11426  i++ */\n      dup1\n      dup1\n      tag_243\n      swap1\n      tag_127\n      jump\t// in\n    tag_243:\n      swap2\n      pop\n      pop\n        /* \"contracts/stake_reward_MLM.sol\":11405:11755  for(uint i=0;i<20;i++)... */\n      jump(tag_234)\n    tag_235:\n      pop\n        /* \"contracts/stake_reward_MLM.sol\":11775:11796  referralLevels_reward */\n      dup1\n        /* \"contracts/stake_reward_MLM.sol\":11768:11796  return referralLevels_reward */\n      swap2\n      pop\n      pop\n        /* \"contracts/stake_reward_MLM.sol\":11245:11810  function referralLevel_earning() public view returns( uint[] memory arr )... */\n      swap1\n      jump\t// out\n        /* \"contracts/stake_reward_MLM.sol\":579:613  uint public min_Stake_amount=10000 */\n    tag_90:\n      sload(0x05)\n      dup2\n      jump\t// out\n        /* \"contracts/stake_reward_MLM.sol\":6674:7155  function withdrawReward() external returns (bool success){... */\n    tag_93:\n        /* \"contracts/stake_reward_MLM.sol\":6718:6730  bool success */\n      0x00\n        /* \"contracts/stake_reward_MLM.sol\":6745:6762  uint Total_reward */\n      dup1\n        /* \"contracts/stake_reward_MLM.sol\":6765:6776  getReward() */\n      tag_245\n        /* \"contracts/stake_reward_MLM.sol\":6765:6774  getReward */\n      tag_56\n        /* \"contracts/stake_reward_MLM.sol\":6765:6776  getReward() */\n      jump\t// in\n    tag_245:\n        /* \"contracts/stake_reward_MLM.sol\":6745:6776  uint Total_reward = getReward() */\n      swap1\n      pop\n        /* \"contracts/stake_reward_MLM.sol\":6811:6812  0 */\n      0x00\n        /* \"contracts/stake_reward_MLM.sol\":6798:6810  Total_reward */\n      dup2\n        /* \"contracts/stake_reward_MLM.sol\":6798:6812  Total_reward>0 */\n      gt\n        /* \"contracts/stake_reward_MLM.sol\":6790:6850  require(Total_reward>0,\"you dont have rewards to withdrawn\") */\n      tag_246\n      jumpi\n      mload(0x40)\n      0x08c379a000000000000000000000000000000000000000000000000000000000\n      dup2\n      mstore\n      0x04\n      add\n      tag_247\n      swap1\n      tag_248\n      jump\t// in\n    tag_247:\n      mload(0x40)\n      dup1\n      swap2\n      sub\n      swap1\n      revert\n    tag_246:\n        /* \"contracts/stake_reward_MLM.sol\":6934:6946  BUSDcontract */\n      0x02\n      0x00\n      swap1\n      sload\n      swap1\n      0x0100\n      exp\n      swap1\n      div\n      0xffffffffffffffffffffffffffffffffffffffff\n      and\n        /* \"contracts/stake_reward_MLM.sol\":6929:6956  DUSD(BUSDcontract).transfer */\n      0xffffffffffffffffffffffffffffffffffffffff\n      and\n      0xa9059cbb\n        /* \"contracts/stake_reward_MLM.sol\":6957:6967  msg.sender */\n      caller\n        /* \"contracts/stake_reward_MLM.sol\":6968:6980  Total_reward */\n      dup4\n        /* \"contracts/stake_reward_MLM.sol\":6929:6981  DUSD(BUSDcontract).transfer(msg.sender,Total_reward) */\n      mload(0x40)\n      dup4\n      0xffffffff\n      and\n      0xe0\n      shl\n      dup2\n      mstore\n      0x04\n      add\n      tag_249\n      swap3\n      swap2\n      swap1\n      tag_206\n      jump\t// in\n    tag_249:\n      0x20\n      mload(0x40)\n      dup1\n      dup4\n      sub\n      dup2\n      0x00\n      dup8\n      dup1\n      extcodesize\n      iszero\n      dup1\n      iszero\n      tag_250\n      jumpi\n      0x00\n      dup1\n      revert\n    tag_250:\n      pop\n      gas\n      call\n      iszero\n      dup1\n      iszero\n      tag_252\n      jumpi\n      returndatasize\n      0x00\n      dup1\n      returndatacopy\n      revert(0x00, returndatasize)\n    tag_252:\n      pop\n      pop\n      pop\n      pop\n      mload(0x40)\n      returndatasize\n      not(0x1f)\n      0x1f\n      dup3\n      add\n      and\n      dup3\n      add\n      dup1\n      0x40\n      mstore\n      pop\n      dup2\n      add\n      swap1\n      tag_253\n      swap2\n      swap1\n      tag_143\n      jump\t// in\n    tag_253:\n      pop\n        /* \"contracts/stake_reward_MLM.sol\":7105:7117  Total_reward */\n      dup1\n        /* \"contracts/stake_reward_MLM.sol\":7058:7070  DUSDinvestor */\n      0x0b\n        /* \"contracts/stake_reward_MLM.sol\":7058:7082  DUSDinvestor[msg.sender] */\n      0x00\n        /* \"contracts/stake_reward_MLM.sol\":7071:7081  msg.sender */\n      caller\n        /* \"contracts/stake_reward_MLM.sol\":7058:7082  DUSDinvestor[msg.sender] */\n      0xffffffffffffffffffffffffffffffffffffffff\n      and\n      0xffffffffffffffffffffffffffffffffffffffff\n      and\n      dup2\n      mstore\n      0x20\n      add\n      swap1\n      dup2\n      mstore\n      0x20\n      add\n      0x00\n      keccak256\n        /* \"contracts/stake_reward_MLM.sol\":7058:7103  DUSDinvestor[msg.sender].totalWithdraw_reward */\n      0x07\n      add\n      0x00\n        /* \"contracts/stake_reward_MLM.sol\":7058:7117  DUSDinvestor[msg.sender].totalWithdraw_reward+=Total_reward */\n      dup3\n      dup3\n      sload\n      tag_254\n      swap2\n      swap1\n      tag_130\n      jump\t// in\n    tag_254:\n      swap3\n      pop\n      pop\n      dup2\n      swap1\n      sstore\n      pop\n        /* \"contracts/stake_reward_MLM.sol\":7139:7143  true */\n      0x01\n        /* \"contracts/stake_reward_MLM.sol\":7132:7143  return true */\n      swap2\n      pop\n      pop\n        /* \"contracts/stake_reward_MLM.sol\":6674:7155  function withdrawReward() external returns (bool success){... */\n      swap1\n      jump\t// out\n        /* \"contracts/stake_reward_MLM.sol\":1619:1661  mapping(address=>Data) public DUSDinvestor */\n    tag_98:\n      mstore(0x20, 0x0b)\n      dup1\n      0x00\n      mstore\n      keccak256(0x00, 0x40)\n      0x00\n      swap2\n      pop\n      swap1\n      pop\n      dup1\n      0x02\n      add\n      0x00\n      swap1\n      sload\n      swap1\n      0x0100\n      exp\n      swap1\n      div\n      0xffffffffffffffffffffffffffffffffffffffff\n      and\n      swap1\n      dup1\n      0x04\n      add\n      sload\n      swap1\n      dup1\n      0x05\n      add\n      sload\n      swap1\n      dup1\n      0x06\n      add\n      sload\n      swap1\n      dup1\n      0x07\n      add\n      sload\n      swap1\n      dup1\n      0x08\n      add\n      0x00\n      swap1\n      sload\n      swap1\n      0x0100\n      exp\n      swap1\n      div\n      0xff\n      and\n      swap1\n      dup1\n      0x09\n      add\n      sload\n      swap1\n      pop\n      dup8\n      jump\t// out\n        /* \"contracts/stake_reward_MLM.sol\":839:864  uint public totalbusiness */\n    tag_102:\n      sload(0x09)\n      dup2\n      jump\t// out\n        /* \"contracts/stake_reward_MLM.sol\":11061:11235  function transferOwnership(address _owner)  public... */\n    tag_106:\n        /* \"contracts/stake_reward_MLM.sol\":11154:11159  owner */\n      0x00\n      dup1\n      sload\n      swap1\n      0x0100\n      exp\n      swap1\n      div\n      0xffffffffffffffffffffffffffffffffffffffff\n      and\n        /* \"contracts/stake_reward_MLM.sol\":11142:11159  msg.sender==owner */\n      0xffffffffffffffffffffffffffffffffffffffff\n      and\n        /* \"contracts/stake_reward_MLM.sol\":11142:11152  msg.sender */\n      caller\n        /* \"contracts/stake_reward_MLM.sol\":11142:11159  msg.sender==owner */\n      0xffffffffffffffffffffffffffffffffffffffff\n      and\n      eq\n        /* \"contracts/stake_reward_MLM.sol\":11134:11196  require(msg.sender==owner,\"only Owner can call this function\") */\n      tag_256\n      jumpi\n      mload(0x40)\n      0x08c379a000000000000000000000000000000000000000000000000000000000\n      dup2\n      mstore\n      0x04\n      add\n      tag_257\n      swap1\n      tag_258\n      jump\t// in\n    tag_257:\n      mload(0x40)\n      dup1\n      swap2\n      sub\n      swap1\n      revert\n    tag_256:\n        /* \"contracts/stake_reward_MLM.sol\":11218:11224  _owner */\n      dup1\n        /* \"contracts/stake_reward_MLM.sol\":11210:11215  owner */\n      0x00\n      dup1\n        /* \"contracts/stake_reward_MLM.sol\":11210:11224  owner = _owner */\n      0x0100\n      exp\n      dup2\n      sload\n      dup2\n      0xffffffffffffffffffffffffffffffffffffffff\n      mul\n      not\n      and\n      swap1\n      dup4\n      0xffffffffffffffffffffffffffffffffffffffff\n      and\n      mul\n      or\n      swap1\n      sstore\n      pop\n        /* \"contracts/stake_reward_MLM.sol\":11061:11235  function transferOwnership(address _owner)  public... */\n      pop\n      jump\t// out\n        /* \"contracts/stake_reward_MLM.sol\":11819:12380  function referralLevel_count() public view returns( uint[] memory arr )... */\n    tag_108:\n        /* \"contracts/stake_reward_MLM.sol\":11871:11888  uint[] memory arr */\n      0x60\n        /* \"contracts/stake_reward_MLM.sol\":11913:11948  uint[] memory referralLevels_reward */\n      0x00\n        /* \"contracts/stake_reward_MLM.sol\":11960:11962  20 */\n      0x14\n        /* \"contracts/stake_reward_MLM.sol\":11949:11963  new uint[](20) */\n      0xffffffffffffffff\n      dup2\n      gt\n      iszero\n      tag_260\n      jumpi\n      tag_261\n      tag_161\n      jump\t// in\n    tag_261:\n    tag_260:\n      mload(0x40)\n      swap1\n      dup1\n      dup3\n      mstore\n      dup1\n      0x20\n      mul\n      0x20\n      add\n      dup3\n      add\n      0x40\n      mstore\n      dup1\n      iszero\n      tag_262\n      jumpi\n      dup2\n      0x20\n      add\n      0x20\n      dup3\n      mul\n      dup1\n      calldatasize\n      dup4\n      calldatacopy\n      dup1\n      dup3\n      add\n      swap2\n      pop\n      pop\n      swap1\n      pop\n    tag_262:\n      pop\n        /* \"contracts/stake_reward_MLM.sol\":11913:11963  uint[] memory referralLevels_reward=new uint[](20) */\n      swap1\n      pop\n        /* \"contracts/stake_reward_MLM.sol\":11981:11987  uint i */\n      0x00\n        /* \"contracts/stake_reward_MLM.sol\":11977:12325  for(uint i=0;i<20;i++)... */\n    tag_263:\n        /* \"contracts/stake_reward_MLM.sol\":11992:11994  20 */\n      0x14\n        /* \"contracts/stake_reward_MLM.sol\":11990:11991  i */\n      dup2\n        /* \"contracts/stake_reward_MLM.sol\":11990:11994  i<20 */\n      lt\n        /* \"contracts/stake_reward_MLM.sol\":11977:12325  for(uint i=0;i<20;i++)... */\n      iszero\n      tag_264\n      jumpi\n        /* \"contracts/stake_reward_MLM.sol\":12082:12083  0 */\n      0x00\n        /* \"contracts/stake_reward_MLM.sol\":12033:12045  DUSDinvestor */\n      0x0b\n        /* \"contracts/stake_reward_MLM.sol\":12033:12057  DUSDinvestor[msg.sender] */\n      0x00\n        /* \"contracts/stake_reward_MLM.sol\":12046:12056  msg.sender */\n      caller\n        /* \"contracts/stake_reward_MLM.sol\":12033:12057  DUSDinvestor[msg.sender] */\n      0xffffffffffffffffffffffffffffffffffffffff\n      and\n      0xffffffffffffffffffffffffffffffffffffffff\n      and\n      dup2\n      mstore\n      0x20\n      add\n      swap1\n      dup2\n      mstore\n      0x20\n      add\n      0x00\n      keccak256\n        /* \"contracts/stake_reward_MLM.sol\":12033:12071  DUSDinvestor[msg.sender].referralLevel */\n      0x03\n      add\n        /* \"contracts/stake_reward_MLM.sol\":12033:12074  DUSDinvestor[msg.sender].referralLevel[i] */\n      0x00\n        /* \"contracts/stake_reward_MLM.sol\":12072:12073  i */\n      dup4\n        /* \"contracts/stake_reward_MLM.sol\":12033:12074  DUSDinvestor[msg.sender].referralLevel[i] */\n      dup2\n      mstore\n      0x20\n      add\n      swap1\n      dup2\n      mstore\n      0x20\n      add\n      0x00\n      keccak256\n        /* \"contracts/stake_reward_MLM.sol\":12033:12081  DUSDinvestor[msg.sender].referralLevel[i].reward */\n      0x00\n      add\n      sload\n        /* \"contracts/stake_reward_MLM.sol\":12033:12083  DUSDinvestor[msg.sender].referralLevel[i].reward>0 */\n      gt\n        /* \"contracts/stake_reward_MLM.sol\":12030:12309  if(DUSDinvestor[msg.sender].referralLevel[i].reward>0)... */\n      iszero\n      tag_266\n      jumpi\n        /* \"contracts/stake_reward_MLM.sol\":12150:12162  DUSDinvestor */\n      0x0b\n        /* \"contracts/stake_reward_MLM.sol\":12150:12174  DUSDinvestor[msg.sender] */\n      0x00\n        /* \"contracts/stake_reward_MLM.sol\":12163:12173  msg.sender */\n      caller\n        /* \"contracts/stake_reward_MLM.sol\":12150:12174  DUSDinvestor[msg.sender] */\n      0xffffffffffffffffffffffffffffffffffffffff\n      and\n      0xffffffffffffffffffffffffffffffffffffffff\n      and\n      dup2\n      mstore\n      0x20\n      add\n      swap1\n      dup2\n      mstore\n      0x20\n      add\n      0x00\n      keccak256\n        /* \"contracts/stake_reward_MLM.sol\":12150:12188  DUSDinvestor[msg.sender].referralLevel */\n      0x03\n      add\n        /* \"contracts/stake_reward_MLM.sol\":12150:12191  DUSDinvestor[msg.sender].referralLevel[i] */\n      0x00\n        /* \"contracts/stake_reward_MLM.sol\":12189:12190  i */\n      dup3\n        /* \"contracts/stake_reward_MLM.sol\":12150:12191  DUSDinvestor[msg.sender].referralLevel[i] */\n      dup2\n      mstore\n      0x20\n      add\n      swap1\n      dup2\n      mstore\n      0x20\n      add\n      0x00\n      keccak256\n        /* \"contracts/stake_reward_MLM.sol\":12150:12197  DUSDinvestor[msg.sender].referralLevel[i].count */\n      0x01\n      add\n      sload\n        /* \"contracts/stake_reward_MLM.sol\":12123:12144  referralLevels_reward */\n      dup3\n        /* \"contracts/stake_reward_MLM.sol\":12145:12146  i */\n      dup3\n        /* \"contracts/stake_reward_MLM.sol\":12123:12147  referralLevels_reward[i] */\n      dup2\n      mload\n      dup2\n      lt\n      tag_267\n      jumpi\n      tag_268\n      tag_172\n      jump\t// in\n    tag_268:\n    tag_267:\n      0x20\n      mul\n      0x20\n      add\n      add\n        /* \"contracts/stake_reward_MLM.sol\":12123:12197  referralLevels_reward[i] = DUSDinvestor[msg.sender].referralLevel[i].count */\n      dup2\n      dup2\n      mstore\n      pop\n      pop\n        /* \"contracts/stake_reward_MLM.sol\":12030:12309  if(DUSDinvestor[msg.sender].referralLevel[i].reward>0)... */\n      jump(tag_269)\n    tag_266:\n        /* \"contracts/stake_reward_MLM.sol\":12288:12289  0 */\n      0x00\n        /* \"contracts/stake_reward_MLM.sol\":12261:12282  referralLevels_reward */\n      dup3\n        /* \"contracts/stake_reward_MLM.sol\":12283:12284  i */\n      dup3\n        /* \"contracts/stake_reward_MLM.sol\":12261:12285  referralLevels_reward[i] */\n      dup2\n      mload\n      dup2\n      lt\n      tag_270\n      jumpi\n      tag_271\n      tag_172\n      jump\t// in\n    tag_271:\n    tag_270:\n      0x20\n      mul\n      0x20\n      add\n      add\n        /* \"contracts/stake_reward_MLM.sol\":12261:12289  referralLevels_reward[i] = 0 */\n      dup2\n      dup2\n      mstore\n      pop\n      pop\n        /* \"contracts/stake_reward_MLM.sol\":12030:12309  if(DUSDinvestor[msg.sender].referralLevel[i].reward>0)... */\n    tag_269:\n        /* \"contracts/stake_reward_MLM.sol\":11995:11998  i++ */\n      dup1\n      dup1\n      tag_272\n      swap1\n      tag_127\n      jump\t// in\n    tag_272:\n      swap2\n      pop\n      pop\n        /* \"contracts/stake_reward_MLM.sol\":11977:12325  for(uint i=0;i<20;i++)... */\n      jump(tag_263)\n    tag_264:\n      pop\n        /* \"contracts/stake_reward_MLM.sol\":12345:12366  referralLevels_reward */\n      dup1\n        /* \"contracts/stake_reward_MLM.sol\":12338:12366  return referralLevels_reward */\n      swap2\n      pop\n      pop\n        /* \"contracts/stake_reward_MLM.sol\":11819:12380  function referralLevel_count() public view returns( uint[] memory arr )... */\n      swap1\n      jump\t// out\n        /* \"contracts/stake_reward_MLM.sol\":516:559  uint public rewardToken=5000000000000000000 */\n    tag_111:\n      sload(0x04)\n      dup2\n      jump\t// out\n        /* \"contracts/stake_reward_MLM.sol\":650:686  uint public max_Stake_amount=5000000 */\n    tag_114:\n      sload(0x06)\n      dup2\n      jump\t// out\n        /* \"contracts/stake_reward_MLM.sol\":1812:3458  function sendRewardToDUSDReferrals(address investor,uint _investedAmount)  internal  //this is the freferral function to transfer the reawards to referrals... */\n    tag_150:\n        /* \"contracts/stake_reward_MLM.sol\":1992:2004  address temp */\n      0x00\n        /* \"contracts/stake_reward_MLM.sol\":2007:2015  investor */\n      dup3\n        /* \"contracts/stake_reward_MLM.sol\":1992:2015  address temp = investor */\n      swap1\n      pop\n        /* \"contracts/stake_reward_MLM.sol\":2036:2060  uint[] memory percentage */\n      0x00\n        /* \"contracts/stake_reward_MLM.sol\":2074:2075  5 */\n      0x05\n        /* \"contracts/stake_reward_MLM.sol\":2063:2076  new uint[](5) */\n      0xffffffffffffffff\n      dup2\n      gt\n      iszero\n      tag_274\n      jumpi\n      tag_275\n      tag_161\n      jump\t// in\n    tag_275:\n    tag_274:\n      mload(0x40)\n      swap1\n      dup1\n      dup3\n      mstore\n      dup1\n      0x20\n      mul\n      0x20\n      add\n      dup3\n      add\n      0x40\n      mstore\n      dup1\n      iszero\n      tag_276\n      jumpi\n      dup2\n      0x20\n      add\n      0x20\n      dup3\n      mul\n      dup1\n      calldatasize\n      dup4\n      calldatacopy\n      dup1\n      dup3\n      add\n      swap2\n      pop\n      pop\n      swap1\n      pop\n    tag_276:\n      pop\n        /* \"contracts/stake_reward_MLM.sol\":2036:2076  uint[] memory percentage = new uint[](5) */\n      swap1\n      pop\n        /* \"contracts/stake_reward_MLM.sol\":2106:2107  5 */\n      0x05\n        /* \"contracts/stake_reward_MLM.sol\":2090:2100  percentage */\n      dup2\n        /* \"contracts/stake_reward_MLM.sol\":2101:2102  0 */\n      0x00\n        /* \"contracts/stake_reward_MLM.sol\":2090:2103  percentage[0] */\n      dup2\n      mload\n      dup2\n      lt\n      tag_277\n      jumpi\n      tag_278\n      tag_172\n      jump\t// in\n    tag_278:\n    tag_277:\n      0x20\n      mul\n      0x20\n      add\n      add\n        /* \"contracts/stake_reward_MLM.sol\":2090:2107  percentage[0] = 5 */\n      dup2\n      dup2\n      mstore\n      pop\n      pop\n        /* \"contracts/stake_reward_MLM.sol\":2137:2138  3 */\n      0x03\n        /* \"contracts/stake_reward_MLM.sol\":2121:2131  percentage */\n      dup2\n        /* \"contracts/stake_reward_MLM.sol\":2132:2133  1 */\n      0x01\n        /* \"contracts/stake_reward_MLM.sol\":2121:2134  percentage[1] */\n      dup2\n      mload\n      dup2\n      lt\n      tag_279\n      jumpi\n      tag_280\n      tag_172\n      jump\t// in\n    tag_280:\n    tag_279:\n      0x20\n      mul\n      0x20\n      add\n      add\n        /* \"contracts/stake_reward_MLM.sol\":2121:2138  percentage[1] = 3 */\n      dup2\n      dup2\n      mstore\n      pop\n      pop\n        /* \"contracts/stake_reward_MLM.sol\":2168:2169  2 */\n      0x02\n        /* \"contracts/stake_reward_MLM.sol\":2152:2162  percentage */\n      dup2\n        /* \"contracts/stake_reward_MLM.sol\":2163:2164  2 */\n      0x02\n        /* \"contracts/stake_reward_MLM.sol\":2152:2165  percentage[2] */\n      dup2\n      mload\n      dup2\n      lt\n      tag_281\n      jumpi\n      tag_282\n      tag_172\n      jump\t// in\n    tag_282:\n    tag_281:\n      0x20\n      mul\n      0x20\n      add\n      add\n        /* \"contracts/stake_reward_MLM.sol\":2152:2169  percentage[2] = 2 */\n      dup2\n      dup2\n      mstore\n      pop\n      pop\n        /* \"contracts/stake_reward_MLM.sol\":2199:2200  1 */\n      0x01\n        /* \"contracts/stake_reward_MLM.sol\":2183:2193  percentage */\n      dup2\n        /* \"contracts/stake_reward_MLM.sol\":2194:2195  3 */\n      0x03\n        /* \"contracts/stake_reward_MLM.sol\":2183:2196  percentage[3] */\n      dup2\n      mload\n      dup2\n      lt\n      tag_283\n      jumpi\n      tag_284\n      tag_172\n      jump\t// in\n    tag_284:\n    tag_283:\n      0x20\n      mul\n      0x20\n      add\n      add\n        /* \"contracts/stake_reward_MLM.sol\":2183:2200  percentage[3] = 1 */\n      dup2\n      dup2\n      mstore\n      pop\n      pop\n        /* \"contracts/stake_reward_MLM.sol\":2230:2231  1 */\n      0x01\n        /* \"contracts/stake_reward_MLM.sol\":2214:2224  percentage */\n      dup2\n        /* \"contracts/stake_reward_MLM.sol\":2225:2226  4 */\n      0x04\n        /* \"contracts/stake_reward_MLM.sol\":2214:2227  percentage[4] */\n      dup2\n      mload\n      dup2\n      lt\n      tag_285\n      jumpi\n      tag_286\n      tag_172\n      jump\t// in\n    tag_286:\n    tag_285:\n      0x20\n      mul\n      0x20\n      add\n      add\n        /* \"contracts/stake_reward_MLM.sol\":2214:2231  percentage[4] = 1 */\n      dup2\n      dup2\n      mstore\n      pop\n      pop\n        /* \"contracts/stake_reward_MLM.sol\":2247:2253  uint j */\n      0x00\n        /* \"contracts/stake_reward_MLM.sol\":2284:2291  1 ether */\n      0x0de0b6b3a7640000\n        /* \"contracts/stake_reward_MLM.sol\":2267:2291  _investedAmount*=1 ether */\n      dup5\n      tag_287\n      swap2\n      swap1\n      tag_136\n      jump\t// in\n    tag_287:\n      swap4\n      pop\n        /* \"contracts/stake_reward_MLM.sol\":2312:2318  uint i */\n      0x00\n        /* \"contracts/stake_reward_MLM.sol\":2308:3447  for(uint i=0;i<10;i++)... */\n    tag_288:\n        /* \"contracts/stake_reward_MLM.sol\":2323:2325  10 */\n      0x0a\n        /* \"contracts/stake_reward_MLM.sol\":2321:2322  i */\n      dup2\n        /* \"contracts/stake_reward_MLM.sol\":2321:2325  i<10 */\n      lt\n        /* \"contracts/stake_reward_MLM.sol\":2308:3447  for(uint i=0;i<10;i++)... */\n      iszero\n      tag_289\n      jumpi\n        /* \"contracts/stake_reward_MLM.sol\":2368:2369  0 */\n      0x00\n        /* \"contracts/stake_reward_MLM.sol\":2365:2366  i */\n      dup2\n        /* \"contracts/stake_reward_MLM.sol\":2365:2369  i==0 */\n      eq\n        /* \"contracts/stake_reward_MLM.sol\":2362:2794  if(i==0)... */\n      iszero\n      tag_291\n      jumpi\n        /* \"contracts/stake_reward_MLM.sol\":2411:2412  0 */\n      0x00\n        /* \"contracts/stake_reward_MLM.sol\":2409:2412  j=0 */\n      swap2\n      pop\n        /* \"contracts/stake_reward_MLM.sol\":2362:2794  if(i==0)... */\n      jump(tag_292)\n    tag_291:\n        /* \"contracts/stake_reward_MLM.sol\":2459:2460  1 */\n      0x01\n        /* \"contracts/stake_reward_MLM.sol\":2456:2457  i */\n      dup2\n        /* \"contracts/stake_reward_MLM.sol\":2456:2460  i==1 */\n      eq\n        /* \"contracts/stake_reward_MLM.sol\":2453:2794  if(i==1)... */\n      iszero\n      tag_293\n      jumpi\n        /* \"contracts/stake_reward_MLM.sol\":2502:2503  1 */\n      0x01\n        /* \"contracts/stake_reward_MLM.sol\":2500:2503  j=1 */\n      swap2\n      pop\n        /* \"contracts/stake_reward_MLM.sol\":2453:2794  if(i==1)... */\n      jump(tag_294)\n    tag_293:\n        /* \"contracts/stake_reward_MLM.sol\":2550:2551  2 */\n      0x02\n        /* \"contracts/stake_reward_MLM.sol\":2547:2548  i */\n      dup2\n        /* \"contracts/stake_reward_MLM.sol\":2547:2551  i==2 */\n      eq\n        /* \"contracts/stake_reward_MLM.sol\":2544:2794  if(i==2)... */\n      iszero\n      tag_295\n      jumpi\n        /* \"contracts/stake_reward_MLM.sol\":2593:2594  2 */\n      0x02\n        /* \"contracts/stake_reward_MLM.sol\":2591:2594  j=2 */\n      swap2\n      pop\n        /* \"contracts/stake_reward_MLM.sol\":2544:2794  if(i==2)... */\n      jump(tag_296)\n    tag_295:\n        /* \"contracts/stake_reward_MLM.sol\":2641:2642  2 */\n      0x02\n        /* \"contracts/stake_reward_MLM.sol\":2639:2640  i */\n      dup2\n        /* \"contracts/stake_reward_MLM.sol\":2639:2642  i>2 */\n      gt\n        /* \"contracts/stake_reward_MLM.sol\":2636:2794  if(i>2)... */\n      iszero\n      tag_297\n      jumpi\n        /* \"contracts/stake_reward_MLM.sol\":2684:2685  3 */\n      0x03\n        /* \"contracts/stake_reward_MLM.sol\":2682:2685  j=3 */\n      swap2\n      pop\n        /* \"contracts/stake_reward_MLM.sol\":2636:2794  if(i>2)... */\n      jump(tag_298)\n    tag_297:\n        /* \"contracts/stake_reward_MLM.sol\":2731:2732  7 */\n      0x07\n        /* \"contracts/stake_reward_MLM.sol\":2729:2730  i */\n      dup2\n        /* \"contracts/stake_reward_MLM.sol\":2729:2732  i>7 */\n      gt\n        /* \"contracts/stake_reward_MLM.sol\":2726:2794  if(i>7)... */\n      iszero\n      tag_299\n      jumpi\n        /* \"contracts/stake_reward_MLM.sol\":2774:2775  4 */\n      0x04\n        /* \"contracts/stake_reward_MLM.sol\":2772:2775  j=4 */\n      swap2\n      pop\n        /* \"contracts/stake_reward_MLM.sol\":2726:2794  if(i>7)... */\n    tag_299:\n        /* \"contracts/stake_reward_MLM.sol\":2636:2794  if(i>2)... */\n    tag_298:\n        /* \"contracts/stake_reward_MLM.sol\":2544:2794  if(i==2)... */\n    tag_296:\n        /* \"contracts/stake_reward_MLM.sol\":2453:2794  if(i==1)... */\n    tag_294:\n        /* \"contracts/stake_reward_MLM.sol\":2362:2794  if(i==0)... */\n    tag_292:\n        /* \"contracts/stake_reward_MLM.sol\":2872:2873  0 */\n      0x00\n        /* \"contracts/stake_reward_MLM.sol\":2831:2874  DUSDinvestor[temp].referralFrom!=address(0) */\n      0xffffffffffffffffffffffffffffffffffffffff\n      and\n        /* \"contracts/stake_reward_MLM.sol\":2831:2843  DUSDinvestor */\n      0x0b\n        /* \"contracts/stake_reward_MLM.sol\":2831:2849  DUSDinvestor[temp] */\n      0x00\n        /* \"contracts/stake_reward_MLM.sol\":2844:2848  temp */\n      dup7\n        /* \"contracts/stake_reward_MLM.sol\":2831:2849  DUSDinvestor[temp] */\n      0xffffffffffffffffffffffffffffffffffffffff\n      and\n      0xffffffffffffffffffffffffffffffffffffffff\n      and\n      dup2\n      mstore\n      0x20\n      add\n      swap1\n      dup2\n      mstore\n      0x20\n      add\n      0x00\n      keccak256\n        /* \"contracts/stake_reward_MLM.sol\":2831:2862  DUSDinvestor[temp].referralFrom */\n      0x02\n      add\n      0x00\n      swap1\n      sload\n      swap1\n      0x0100\n      exp\n      swap1\n      div\n      0xffffffffffffffffffffffffffffffffffffffff\n      and\n        /* \"contracts/stake_reward_MLM.sol\":2831:2874  DUSDinvestor[temp].referralFrom!=address(0) */\n      0xffffffffffffffffffffffffffffffffffffffff\n      and\n      eq\n        /* \"contracts/stake_reward_MLM.sol\":2828:3432  if(DUSDinvestor[temp].referralFrom!=address(0))... */\n      tag_300\n      jumpi\n        /* \"contracts/stake_reward_MLM.sol\":2920:2932  DUSDinvestor */\n      0x0b\n        /* \"contracts/stake_reward_MLM.sol\":2920:2938  DUSDinvestor[temp] */\n      0x00\n        /* \"contracts/stake_reward_MLM.sol\":2933:2937  temp */\n      dup6\n        /* \"contracts/stake_reward_MLM.sol\":2920:2938  DUSDinvestor[temp] */\n      0xffffffffffffffffffffffffffffffffffffffff\n      and\n      0xffffffffffffffffffffffffffffffffffffffff\n      and\n      dup2\n      mstore\n      0x20\n      add\n      swap1\n      dup2\n      mstore\n      0x20\n      add\n      0x00\n      keccak256\n        /* \"contracts/stake_reward_MLM.sol\":2920:2951  DUSDinvestor[temp].referralFrom */\n      0x02\n      add\n      0x00\n      swap1\n      sload\n      swap1\n      0x0100\n      exp\n      swap1\n      div\n      0xffffffffffffffffffffffffffffffffffffffff\n      and\n        /* \"contracts/stake_reward_MLM.sol\":2915:2951  temp=DUSDinvestor[temp].referralFrom */\n      swap4\n      pop\n        /* \"contracts/stake_reward_MLM.sol\":2973:2985  uint reward1 */\n      0x00\n        /* \"contracts/stake_reward_MLM.sol\":3030:3033  100 */\n      0x64\n        /* \"contracts/stake_reward_MLM.sol\":3013:3028  _investedAmount */\n      dup7\n        /* \"contracts/stake_reward_MLM.sol\":3004:3009  10**8 */\n      0x05f5e100\n        /* \"contracts/stake_reward_MLM.sol\":2990:3000  percentage */\n      dup7\n        /* \"contracts/stake_reward_MLM.sol\":3001:3002  j */\n      dup7\n        /* \"contracts/stake_reward_MLM.sol\":2990:3003  percentage[j] */\n      dup2\n      mload\n      dup2\n      lt\n      tag_301\n      jumpi\n      tag_302\n      tag_172\n      jump\t// in\n    tag_302:\n    tag_301:\n      0x20\n      mul\n      0x20\n      add\n      add\n      mload\n        /* \"contracts/stake_reward_MLM.sol\":2990:3009  percentage[j]*10**8 */\n      tag_303\n      swap2\n      swap1\n      tag_136\n      jump\t// in\n    tag_303:\n        /* \"contracts/stake_reward_MLM.sol\":2989:3028  (percentage[j]*10**8) * _investedAmount */\n      tag_304\n      swap2\n      swap1\n      tag_136\n      jump\t// in\n    tag_304:\n        /* \"contracts/stake_reward_MLM.sol\":2988:3033  ((percentage[j]*10**8) * _investedAmount)/100 */\n      tag_305\n      swap2\n      swap1\n      tag_185\n      jump\t// in\n    tag_305:\n        /* \"contracts/stake_reward_MLM.sol\":2973:3033  uint reward1 = ((percentage[j]*10**8) * _investedAmount)/100 */\n      swap1\n      pop\n        /* \"contracts/stake_reward_MLM.sol\":3062:3063  4 */\n      0x04\n        /* \"contracts/stake_reward_MLM.sol\":3059:3060  j */\n      dup4\n        /* \"contracts/stake_reward_MLM.sol\":3059:3063  j==4 */\n      eq\n        /* \"contracts/stake_reward_MLM.sol\":3056:3144  if(j==4)... */\n      iszero\n      tag_306\n      jumpi\n        /* \"contracts/stake_reward_MLM.sol\":3120:3121  2 */\n      0x02\n        /* \"contracts/stake_reward_MLM.sol\":3111:3121  reward1/=2 */\n      dup2\n      tag_307\n      swap2\n      swap1\n      tag_185\n      jump\t// in\n    tag_307:\n      swap1\n      pop\n        /* \"contracts/stake_reward_MLM.sol\":3056:3144  if(j==4)... */\n    tag_306:\n        /* \"contracts/stake_reward_MLM.sol\":3170:3181  SMCcontract */\n      0x01\n      0x00\n      swap1\n      sload\n      swap1\n      0x0100\n      exp\n      swap1\n      div\n      0xffffffffffffffffffffffffffffffffffffffff\n      and\n        /* \"contracts/stake_reward_MLM.sol\":3165:3191  DUSD(SMCcontract).transfer */\n      0xffffffffffffffffffffffffffffffffffffffff\n      and\n      0xa9059cbb\n        /* \"contracts/stake_reward_MLM.sol\":3192:3196  temp */\n      dup7\n        /* \"contracts/stake_reward_MLM.sol\":3197:3204  reward1 */\n      dup4\n        /* \"contracts/stake_reward_MLM.sol\":3165:3205  DUSD(SMCcontract).transfer(temp,reward1) */\n      mload(0x40)\n      dup4\n      0xffffffff\n      and\n      0xe0\n      shl\n      dup2\n      mstore\n      0x04\n      add\n      tag_308\n      swap3\n      swap2\n      swap1\n      tag_206\n      jump\t// in\n    tag_308:\n      0x20\n      mload(0x40)\n      dup1\n      dup4\n      sub\n      dup2\n      0x00\n      dup8\n      dup1\n      extcodesize\n      iszero\n      dup1\n      iszero\n      tag_309\n      jumpi\n      0x00\n      dup1\n      revert\n    tag_309:\n      pop\n      gas\n      call\n      iszero\n      dup1\n      iszero\n      tag_311\n      jumpi\n      returndatasize\n      0x00\n      dup1\n      returndatacopy\n      revert(0x00, returndatasize)\n    tag_311:\n      pop\n      pop\n      pop\n      pop\n      mload(0x40)\n      returndatasize\n      not(0x1f)\n      0x1f\n      dup3\n      add\n      and\n      dup3\n      add\n      dup1\n      0x40\n      mstore\n      pop\n      dup2\n      add\n      swap1\n      tag_312\n      swap2\n      swap1\n      tag_143\n      jump\t// in\n    tag_312:\n      pop\n        /* \"contracts/stake_reward_MLM.sol\":3271:3278  reward1 */\n      dup1\n        /* \"contracts/stake_reward_MLM.sol\":3227:3239  DUSDinvestor */\n      0x0b\n        /* \"contracts/stake_reward_MLM.sol\":3227:3245  DUSDinvestor[temp] */\n      0x00\n        /* \"contracts/stake_reward_MLM.sol\":3240:3244  temp */\n      dup8\n        /* \"contracts/stake_reward_MLM.sol\":3227:3245  DUSDinvestor[temp] */\n      0xffffffffffffffffffffffffffffffffffffffff\n      and\n      0xffffffffffffffffffffffffffffffffffffffff\n      and\n      dup2\n      mstore\n      0x20\n      add\n      swap1\n      dup2\n      mstore\n      0x20\n      add\n      0x00\n      keccak256\n        /* \"contracts/stake_reward_MLM.sol\":3227:3259  DUSDinvestor[temp].referralLevel */\n      0x03\n      add\n        /* \"contracts/stake_reward_MLM.sol\":3227:3262  DUSDinvestor[temp].referralLevel[i] */\n      0x00\n        /* \"contracts/stake_reward_MLM.sol\":3260:3261  i */\n      dup5\n        /* \"contracts/stake_reward_MLM.sol\":3227:3262  DUSDinvestor[temp].referralLevel[i] */\n      dup2\n      mstore\n      0x20\n      add\n      swap1\n      dup2\n      mstore\n      0x20\n      add\n      0x00\n      keccak256\n        /* \"contracts/stake_reward_MLM.sol\":3227:3269  DUSDinvestor[temp].referralLevel[i].reward */\n      0x00\n      add\n      0x00\n        /* \"contracts/stake_reward_MLM.sol\":3227:3278  DUSDinvestor[temp].referralLevel[i].reward+=reward1 */\n      dup3\n      dup3\n      sload\n      tag_313\n      swap2\n      swap1\n      tag_130\n      jump\t// in\n    tag_313:\n      swap3\n      pop\n      pop\n      dup2\n      swap1\n      sstore\n      pop\n        /* \"contracts/stake_reward_MLM.sol\":3300:3312  DUSDinvestor */\n      0x0b\n        /* \"contracts/stake_reward_MLM.sol\":3300:3318  DUSDinvestor[temp] */\n      0x00\n        /* \"contracts/stake_reward_MLM.sol\":3313:3317  temp */\n      dup7\n        /* \"contracts/stake_reward_MLM.sol\":3300:3318  DUSDinvestor[temp] */\n      0xffffffffffffffffffffffffffffffffffffffff\n      and\n      0xffffffffffffffffffffffffffffffffffffffff\n      and\n      dup2\n      mstore\n      0x20\n      add\n      swap1\n      dup2\n      mstore\n      0x20\n      add\n      0x00\n      keccak256\n        /* \"contracts/stake_reward_MLM.sol\":3300:3332  DUSDinvestor[temp].referralLevel */\n      0x03\n      add\n        /* \"contracts/stake_reward_MLM.sol\":3300:3335  DUSDinvestor[temp].referralLevel[i] */\n      0x00\n        /* \"contracts/stake_reward_MLM.sol\":3333:3334  i */\n      dup4\n        /* \"contracts/stake_reward_MLM.sol\":3300:3335  DUSDinvestor[temp].referralLevel[i] */\n      dup2\n      mstore\n      0x20\n      add\n      swap1\n      dup2\n      mstore\n      0x20\n      add\n      0x00\n      keccak256\n        /* \"contracts/stake_reward_MLM.sol\":3300:3341  DUSDinvestor[temp].referralLevel[i].count */\n      0x01\n      add\n      0x00\n        /* \"contracts/stake_reward_MLM.sol\":3300:3343  DUSDinvestor[temp].referralLevel[i].count++ */\n      dup2\n      sload\n      dup1\n      swap3\n      swap2\n      swap1\n      tag_314\n      swap1\n      tag_127\n      jump\t// in\n    tag_314:\n      swap2\n      swap1\n      pop\n      sstore\n      pop\n        /* \"contracts/stake_reward_MLM.sol\":2892:3364  {... */\n      pop\n        /* \"contracts/stake_reward_MLM.sol\":2828:3432  if(DUSDinvestor[temp].referralFrom!=address(0))... */\n      jump(tag_315)\n    tag_300:\n        /* \"contracts/stake_reward_MLM.sol\":3408:3413  break */\n      jump(tag_289)\n        /* \"contracts/stake_reward_MLM.sol\":2828:3432  if(DUSDinvestor[temp].referralFrom!=address(0))... */\n    tag_315:\n        /* \"contracts/stake_reward_MLM.sol\":2326:2329  i++ */\n      dup1\n      dup1\n      tag_316\n      swap1\n      tag_127\n      jump\t// in\n    tag_316:\n      swap2\n      pop\n      pop\n        /* \"contracts/stake_reward_MLM.sol\":2308:3447  for(uint i=0;i<10;i++)... */\n      jump(tag_288)\n    tag_289:\n      pop\n        /* \"contracts/stake_reward_MLM.sol\":1976:3458  { ... */\n      pop\n      pop\n      pop\n        /* \"contracts/stake_reward_MLM.sol\":1812:3458  function sendRewardToDUSDReferrals(address investor,uint _investedAmount)  internal  //this is the freferral function to transfer the reawards to referrals... */\n      pop\n      pop\n      jump\t// out\n    tag_165:\n      mload(0x40)\n      dup1\n      0xc0\n      add\n      0x40\n      mstore\n      dup1\n      0x00\n      dup2\n      mstore\n      0x20\n      add\n      0x00\n      dup2\n      mstore\n      0x20\n      add\n      0x00\n      dup2\n      mstore\n      0x20\n      add\n      0x00\n      dup2\n      mstore\n      0x20\n      add\n      0x00\n      dup2\n      mstore\n      0x20\n      add\n      iszero(iszero(0x00))\n      dup2\n      mstore\n      pop\n      swap1\n      jump\t// out\n        /* \"#utility.yul\":7:146   */\n    tag_318:\n        /* \"#utility.yul\":53:58   */\n      0x00\n        /* \"#utility.yul\":91:97   */\n      dup2\n        /* \"#utility.yul\":78:98   */\n      calldataload\n        /* \"#utility.yul\":69:98   */\n      swap1\n      pop\n        /* \"#utility.yul\":107:140   */\n      tag_320\n        /* \"#utility.yul\":134:139   */\n      dup2\n        /* \"#utility.yul\":107:140   */\n      tag_321\n      jump\t// in\n    tag_320:\n        /* \"#utility.yul\":7:146   */\n      swap3\n      swap2\n      pop\n      pop\n      jump\t// out\n        /* \"#utility.yul\":152:289   */\n    tag_322:\n        /* \"#utility.yul\":206:211   */\n      0x00\n        /* \"#utility.yul\":237:243   */\n      dup2\n        /* \"#utility.yul\":231:244   */\n      mload\n        /* \"#utility.yul\":222:244   */\n      swap1\n      pop\n        /* \"#utility.yul\":253:283   */\n      tag_324\n        /* \"#utility.yul\":277:282   */\n      dup2\n        /* \"#utility.yul\":253:283   */\n      tag_325\n      jump\t// in\n    tag_324:\n        /* \"#utility.yul\":152:289   */\n      swap3\n      swap2\n      pop\n      pop\n      jump\t// out\n        /* \"#utility.yul\":295:434   */\n    tag_326:\n        /* \"#utility.yul\":341:346   */\n      0x00\n        /* \"#utility.yul\":379:385   */\n      dup2\n        /* \"#utility.yul\":366:386   */\n      calldataload\n        /* \"#utility.yul\":357:386   */\n      swap1\n      pop\n        /* \"#utility.yul\":395:428   */\n      tag_328\n        /* \"#utility.yul\":422:427   */\n      dup2\n        /* \"#utility.yul\":395:428   */\n      tag_329\n      jump\t// in\n    tag_328:\n        /* \"#utility.yul\":295:434   */\n      swap3\n      swap2\n      pop\n      pop\n      jump\t// out\n        /* \"#utility.yul\":440:769   */\n    tag_97:\n        /* \"#utility.yul\":499:505   */\n      0x00\n        /* \"#utility.yul\":548:550   */\n      0x20\n        /* \"#utility.yul\":536:545   */\n      dup3\n        /* \"#utility.yul\":527:534   */\n      dup5\n        /* \"#utility.yul\":523:546   */\n      sub\n        /* \"#utility.yul\":519:551   */\n      slt\n        /* \"#utility.yul\":516:635   */\n      iszero\n      tag_331\n      jumpi\n        /* \"#utility.yul\":554:633   */\n      tag_332\n      tag_333\n      jump\t// in\n    tag_332:\n        /* \"#utility.yul\":516:635   */\n    tag_331:\n        /* \"#utility.yul\":674:675   */\n      0x00\n        /* \"#utility.yul\":699:752   */\n      tag_334\n        /* \"#utility.yul\":744:751   */\n      dup5\n        /* \"#utility.yul\":735:741   */\n      dup3\n        /* \"#utility.yul\":724:733   */\n      dup6\n        /* \"#utility.yul\":720:742   */\n      add\n        /* \"#utility.yul\":699:752   */\n      tag_318\n      jump\t// in\n    tag_334:\n        /* \"#utility.yul\":689:752   */\n      swap2\n      pop\n        /* \"#utility.yul\":645:762   */\n      pop\n        /* \"#utility.yul\":440:769   */\n      swap3\n      swap2\n      pop\n      pop\n      jump\t// out\n        /* \"#utility.yul\":775:1120   */\n    tag_143:\n        /* \"#utility.yul\":842:848   */\n      0x00\n        /* \"#utility.yul\":891:893   */\n      0x20\n        /* \"#utility.yul\":879:888   */\n      dup3\n        /* \"#utility.yul\":870:877   */\n      dup5\n        /* \"#utility.yul\":866:889   */\n      sub\n        /* \"#utility.yul\":862:894   */\n      slt\n        /* \"#utility.yul\":859:978   */\n      iszero\n      tag_336\n      jumpi\n        /* \"#utility.yul\":897:976   */\n      tag_337\n      tag_333\n      jump\t// in\n    tag_337:\n        /* \"#utility.yul\":859:978   */\n    tag_336:\n        /* \"#utility.yul\":1017:1018   */\n      0x00\n        /* \"#utility.yul\":1042:1103   */\n      tag_338\n        /* \"#utility.yul\":1095:1102   */\n      dup5\n        /* \"#utility.yul\":1086:1092   */\n      dup3\n        /* \"#utility.yul\":1075:1084   */\n      dup6\n        /* \"#utility.yul\":1071:1093   */\n      add\n        /* \"#utility.yul\":1042:1103   */\n      tag_322\n      jump\t// in\n    tag_338:\n        /* \"#utility.yul\":1032:1103   */\n      swap2\n      pop\n        /* \"#utility.yul\":988:1113   */\n      pop\n        /* \"#utility.yul\":775:1120   */\n      swap3\n      swap2\n      pop\n      pop\n      jump\t// out\n        /* \"#utility.yul\":1126:1455   */\n    tag_49:\n        /* \"#utility.yul\":1185:1191   */\n      0x00\n        /* \"#utility.yul\":1234:1236   */\n      0x20\n        /* \"#utility.yul\":1222:1231   */\n      dup3\n        /* \"#utility.yul\":1213:1220   */\n      dup5\n        /* \"#utility.yul\":1209:1232   */\n      sub\n        /* \"#utility.yul\":1205:1237   */\n      slt\n        /* \"#utility.yul\":1202:1321   */\n      iszero\n      tag_340\n      jumpi\n        /* \"#utility.yul\":1240:1319   */\n      tag_341\n      tag_333\n      jump\t// in\n    tag_341:\n        /* \"#utility.yul\":1202:1321   */\n    tag_340:\n        /* \"#utility.yul\":1360:1361   */\n      0x00\n        /* \"#utility.yul\":1385:1438   */\n      tag_342\n        /* \"#utility.yul\":1430:1437   */\n      dup5\n        /* \"#utility.yul\":1421:1427   */\n      dup3\n        /* \"#utility.yul\":1410:1419   */\n      dup6\n        /* \"#utility.yul\":1406:1428   */\n      add\n        /* \"#utility.yul\":1385:1438   */\n      tag_326\n      jump\t// in\n    tag_342:\n        /* \"#utility.yul\":1375:1438   */\n      swap2\n      pop\n        /* \"#utility.yul\":1331:1448   */\n      pop\n        /* \"#utility.yul\":1126:1455   */\n      swap3\n      swap2\n      pop\n      pop\n      jump\t// out\n        /* \"#utility.yul\":1461:1935   */\n    tag_43:\n        /* \"#utility.yul\":1529:1535   */\n      0x00\n        /* \"#utility.yul\":1537:1543   */\n      dup1\n        /* \"#utility.yul\":1586:1588   */\n      0x40\n        /* \"#utility.yul\":1574:1583   */\n      dup4\n        /* \"#utility.yul\":1565:1572   */\n      dup6\n        /* \"#utility.yul\":1561:1584   */\n      sub\n        /* \"#utility.yul\":1557:1589   */\n      slt\n        /* \"#utility.yul\":1554:1673   */\n      iszero\n      tag_344\n      jumpi\n        /* \"#utility.yul\":1592:1671   */\n      tag_345\n      tag_333\n      jump\t// in\n    tag_345:\n        /* \"#utility.yul\":1554:1673   */\n    tag_344:\n        /* \"#utility.yul\":1712:1713   */\n      0x00\n        /* \"#utility.yul\":1737:1790   */\n      tag_346\n        /* \"#utility.yul\":1782:1789   */\n      dup6\n        /* \"#utility.yul\":1773:1779   */\n      dup3\n        /* \"#utility.yul\":1762:1771   */\n      dup7\n        /* \"#utility.yul\":1758:1780   */\n      add\n        /* \"#utility.yul\":1737:1790   */\n      tag_326\n      jump\t// in\n    tag_346:\n        /* \"#utility.yul\":1727:1790   */\n      swap3\n      pop\n        /* \"#utility.yul\":1683:1800   */\n      pop\n        /* \"#utility.yul\":1839:1841   */\n      0x20\n        /* \"#utility.yul\":1865:1918   */\n      tag_347\n        /* \"#utility.yul\":1910:1917   */\n      dup6\n        /* \"#utility.yul\":1901:1907   */\n      dup3\n        /* \"#utility.yul\":1890:1899   */\n      dup7\n        /* \"#utility.yul\":1886:1908   */\n      add\n        /* \"#utility.yul\":1865:1918   */\n      tag_318\n      jump\t// in\n    tag_347:\n        /* \"#utility.yul\":1855:1918   */\n      swap2\n      pop\n        /* \"#utility.yul\":1810:1928   */\n      pop\n        /* \"#utility.yul\":1461:1935   */\n      swap3\n      pop\n      swap3\n      swap1\n      pop\n      jump\t// out\n        /* \"#utility.yul\":1941:2415   */\n    tag_83:\n        /* \"#utility.yul\":2009:2015   */\n      0x00\n        /* \"#utility.yul\":2017:2023   */\n      dup1\n        /* \"#utility.yul\":2066:2068   */\n      0x40\n        /* \"#utility.yul\":2054:2063   */\n      dup4\n        /* \"#utility.yul\":2045:2052   */\n      dup6\n        /* \"#utility.yul\":2041:2064   */\n      sub\n        /* \"#utility.yul\":2037:2069   */\n      slt\n        /* \"#utility.yul\":2034:2153   */\n      iszero\n      tag_349\n      jumpi\n        /* \"#utility.yul\":2072:2151   */\n      tag_350\n      tag_333\n      jump\t// in\n    tag_350:\n        /* \"#utility.yul\":2034:2153   */\n    tag_349:\n        /* \"#utility.yul\":2192:2193   */\n      0x00\n        /* \"#utility.yul\":2217:2270   */\n      tag_351\n        /* \"#utility.yul\":2262:2269   */\n      dup6\n        /* \"#utility.yul\":2253:2259   */\n      dup3\n        /* \"#utility.yul\":2242:2251   */\n      dup7\n        /* \"#utility.yul\":2238:2260   */\n      add\n        /* \"#utility.yul\":2217:2270   */\n      tag_326\n      jump\t// in\n    tag_351:\n        /* \"#utility.yul\":2207:2270   */\n      swap3\n      pop\n        /* \"#utility.yul\":2163:2280   */\n      pop\n        /* \"#utility.yul\":2319:2321   */\n      0x20\n        /* \"#utility.yul\":2345:2398   */\n      tag_352\n        /* \"#utility.yul\":2390:2397   */\n      dup6\n        /* \"#utility.yul\":2381:2387   */\n      dup3\n        /* \"#utility.yul\":2370:2379   */\n      dup7\n        /* \"#utility.yul\":2366:2388   */\n      add\n        /* \"#utility.yul\":2345:2398   */\n      tag_326\n      jump\t// in\n    tag_352:\n        /* \"#utility.yul\":2335:2398   */\n      swap2\n      pop\n        /* \"#utility.yul\":2290:2408   */\n      pop\n        /* \"#utility.yul\":1941:2415   */\n      swap3\n      pop\n      swap3\n      swap1\n      pop\n      jump\t// out\n        /* \"#utility.yul\":2421:3186   */\n    tag_60:\n        /* \"#utility.yul\":2507:2513   */\n      0x00\n        /* \"#utility.yul\":2515:2521   */\n      dup1\n        /* \"#utility.yul\":2523:2529   */\n      0x00\n        /* \"#utility.yul\":2531:2537   */\n      dup1\n        /* \"#utility.yul\":2580:2583   */\n      0x80\n        /* \"#utility.yul\":2568:2577   */\n      dup6\n        /* \"#utility.yul\":2559:2566   */\n      dup8\n        /* \"#utility.yul\":2555:2578   */\n      sub\n        /* \"#utility.yul\":2551:2584   */\n      slt\n        /* \"#utility.yul\":2548:2668   */\n      iszero\n      tag_354\n      jumpi\n        /* \"#utility.yul\":2587:2666   */\n      tag_355\n      tag_333\n      jump\t// in\n    tag_355:\n        /* \"#utility.yul\":2548:2668   */\n    tag_354:\n        /* \"#utility.yul\":2707:2708   */\n      0x00\n        /* \"#utility.yul\":2732:2785   */\n      tag_356\n        /* \"#utility.yul\":2777:2784   */\n      dup8\n        /* \"#utility.yul\":2768:2774   */\n      dup3\n        /* \"#utility.yul\":2757:2766   */\n      dup9\n        /* \"#utility.yul\":2753:2775   */\n      add\n        /* \"#utility.yul\":2732:2785   */\n      tag_326\n      jump\t// in\n    tag_356:\n        /* \"#utility.yul\":2722:2785   */\n      swap5\n      pop\n        /* \"#utility.yul\":2678:2795   */\n      pop\n        /* \"#utility.yul\":2834:2836   */\n      0x20\n        /* \"#utility.yul\":2860:2913   */\n      tag_357\n        /* \"#utility.yul\":2905:2912   */\n      dup8\n        /* \"#utility.yul\":2896:2902   */\n      dup3\n        /* \"#utility.yul\":2885:2894   */\n      dup9\n        /* \"#utility.yul\":2881:2903   */\n      add\n        /* \"#utility.yul\":2860:2913   */\n      tag_326\n      jump\t// in\n    tag_357:\n        /* \"#utility.yul\":2850:2913   */\n      swap4\n      pop\n        /* \"#utility.yul\":2805:2923   */\n      pop\n        /* \"#utility.yul\":2962:2964   */\n      0x40\n        /* \"#utility.yul\":2988:3041   */\n      tag_358\n        /* \"#utility.yul\":3033:3040   */\n      dup8\n        /* \"#utility.yul\":3024:3030   */\n      dup3\n        /* \"#utility.yul\":3013:3022   */\n      dup9\n        /* \"#utility.yul\":3009:3031   */\n      add\n        /* \"#utility.yul\":2988:3041   */\n      tag_326\n      jump\t// in\n    tag_358:\n        /* \"#utility.yul\":2978:3041   */\n      swap3\n      pop\n        /* \"#utility.yul\":2933:3051   */\n      pop\n        /* \"#utility.yul\":3090:3092   */\n      0x60\n        /* \"#utility.yul\":3116:3169   */\n      tag_359\n        /* \"#utility.yul\":3161:3168   */\n      dup8\n        /* \"#utility.yul\":3152:3158   */\n      dup3\n        /* \"#utility.yul\":3141:3150   */\n      dup9\n        /* \"#utility.yul\":3137:3159   */\n      add\n        /* \"#utility.yul\":3116:3169   */\n      tag_326\n      jump\t// in\n    tag_359:\n        /* \"#utility.yul\":3106:3169   */\n      swap2\n      pop\n        /* \"#utility.yul\":3061:3179   */\n      pop\n        /* \"#utility.yul\":2421:3186   */\n      swap3\n      swap6\n      swap2\n      swap5\n      pop\n      swap3\n      pop\n      jump\t// out\n        /* \"#utility.yul\":3192:3371   */\n    tag_360:\n        /* \"#utility.yul\":3261:3271   */\n      0x00\n        /* \"#utility.yul\":3282:3328   */\n      tag_362\n        /* \"#utility.yul\":3324:3327   */\n      dup4\n        /* \"#utility.yul\":3316:3322   */\n      dup4\n        /* \"#utility.yul\":3282:3328   */\n      tag_363\n      jump\t// in\n    tag_362:\n        /* \"#utility.yul\":3360:3364   */\n      0x20\n        /* \"#utility.yul\":3355:3358   */\n      dup4\n        /* \"#utility.yul\":3351:3365   */\n      add\n        /* \"#utility.yul\":3337:3365   */\n      swap1\n      pop\n        /* \"#utility.yul\":3192:3371   */\n      swap3\n      swap2\n      pop\n      pop\n      jump\t// out\n        /* \"#utility.yul\":3377:3676   */\n    tag_364:\n        /* \"#utility.yul\":3506:3516   */\n      0x00\n        /* \"#utility.yul\":3527:3633   */\n      tag_366\n        /* \"#utility.yul\":3629:3632   */\n      dup4\n        /* \"#utility.yul\":3621:3627   */\n      dup4\n        /* \"#utility.yul\":3527:3633   */\n      tag_367\n      jump\t// in\n    tag_366:\n        /* \"#utility.yul\":3665:3669   */\n      0xc0\n        /* \"#utility.yul\":3660:3663   */\n      dup4\n        /* \"#utility.yul\":3656:3670   */\n      add\n        /* \"#utility.yul\":3642:3670   */\n      swap1\n      pop\n        /* \"#utility.yul\":3377:3676   */\n      swap3\n      swap2\n      pop\n      pop\n      jump\t// out\n        /* \"#utility.yul\":3682:3861   */\n    tag_368:\n        /* \"#utility.yul\":3751:3761   */\n      0x00\n        /* \"#utility.yul\":3772:3818   */\n      tag_370\n        /* \"#utility.yul\":3814:3817   */\n      dup4\n        /* \"#utility.yul\":3806:3812   */\n      dup4\n        /* \"#utility.yul\":3772:3818   */\n      tag_371\n      jump\t// in\n    tag_370:\n        /* \"#utility.yul\":3850:3854   */\n      0x20\n        /* \"#utility.yul\":3845:3848   */\n      dup4\n        /* \"#utility.yul\":3841:3855   */\n      add\n        /* \"#utility.yul\":3827:3855   */\n      swap1\n      pop\n        /* \"#utility.yul\":3682:3861   */\n      swap3\n      swap2\n      pop\n      pop\n      jump\t// out\n        /* \"#utility.yul\":3867:3975   */\n    tag_363:\n        /* \"#utility.yul\":3944:3968   */\n      tag_373\n        /* \"#utility.yul\":3962:3967   */\n      dup2\n        /* \"#utility.yul\":3944:3968   */\n      tag_374\n      jump\t// in\n    tag_373:\n        /* \"#utility.yul\":3939:3942   */\n      dup3\n        /* \"#utility.yul\":3932:3969   */\n      mstore\n        /* \"#utility.yul\":3867:3975   */\n      pop\n      pop\n      jump\t// out\n        /* \"#utility.yul\":3981:4099   */\n    tag_375:\n        /* \"#utility.yul\":4068:4092   */\n      tag_377\n        /* \"#utility.yul\":4086:4091   */\n      dup2\n        /* \"#utility.yul\":4068:4092   */\n      tag_374\n      jump\t// in\n    tag_377:\n        /* \"#utility.yul\":4063:4066   */\n      dup3\n        /* \"#utility.yul\":4056:4093   */\n      mstore\n        /* \"#utility.yul\":3981:4099   */\n      pop\n      pop\n      jump\t// out\n        /* \"#utility.yul\":4135:4867   */\n    tag_378:\n        /* \"#utility.yul\":4254:4257   */\n      0x00\n        /* \"#utility.yul\":4283:4337   */\n      tag_380\n        /* \"#utility.yul\":4331:4336   */\n      dup3\n        /* \"#utility.yul\":4283:4337   */\n      tag_381\n      jump\t// in\n    tag_380:\n        /* \"#utility.yul\":4353:4439   */\n      tag_382\n        /* \"#utility.yul\":4432:4438   */\n      dup2\n        /* \"#utility.yul\":4427:4430   */\n      dup6\n        /* \"#utility.yul\":4353:4439   */\n      tag_383\n      jump\t// in\n    tag_382:\n        /* \"#utility.yul\":4346:4439   */\n      swap4\n      pop\n        /* \"#utility.yul\":4463:4519   */\n      tag_384\n        /* \"#utility.yul\":4513:4518   */\n      dup4\n        /* \"#utility.yul\":4463:4519   */\n      tag_385\n      jump\t// in\n    tag_384:\n        /* \"#utility.yul\":4542:4549   */\n      dup1\n        /* \"#utility.yul\":4573:4574   */\n      0x00\n        /* \"#utility.yul\":4558:4842   */\n    tag_386:\n        /* \"#utility.yul\":4583:4589   */\n      dup4\n        /* \"#utility.yul\":4580:4581   */\n      dup2\n        /* \"#utility.yul\":4577:4590   */\n      lt\n        /* \"#utility.yul\":4558:4842   */\n      iszero\n      tag_388\n      jumpi\n        /* \"#utility.yul\":4659:4665   */\n      dup2\n        /* \"#utility.yul\":4653:4666   */\n      mload\n        /* \"#utility.yul\":4686:4749   */\n      tag_389\n        /* \"#utility.yul\":4745:4748   */\n      dup9\n        /* \"#utility.yul\":4730:4743   */\n      dup3\n        /* \"#utility.yul\":4686:4749   */\n      tag_360\n      jump\t// in\n    tag_389:\n        /* \"#utility.yul\":4679:4749   */\n      swap8\n      pop\n        /* \"#utility.yul\":4772:4832   */\n      tag_390\n        /* \"#utility.yul\":4825:4831   */\n      dup4\n        /* \"#utility.yul\":4772:4832   */\n      tag_391\n      jump\t// in\n    tag_390:\n        /* \"#utility.yul\":4762:4832   */\n      swap3\n      pop\n        /* \"#utility.yul\":4618:4842   */\n      pop\n        /* \"#utility.yul\":4605:4606   */\n      0x01\n        /* \"#utility.yul\":4602:4603   */\n      dup2\n        /* \"#utility.yul\":4598:4607   */\n      add\n        /* \"#utility.yul\":4593:4607   */\n      swap1\n      pop\n        /* \"#utility.yul\":4558:4842   */\n      jump(tag_386)\n    tag_388:\n        /* \"#utility.yul\":4562:4576   */\n      pop\n        /* \"#utility.yul\":4858:4861   */\n      dup6\n        /* \"#utility.yul\":4851:4861   */\n      swap4\n      pop\n        /* \"#utility.yul\":4259:4867   */\n      pop\n      pop\n      pop\n        /* \"#utility.yul\":4135:4867   */\n      swap3\n      swap2\n      pop\n      pop\n      jump\t// out\n        /* \"#utility.yul\":4945:5917   */\n    tag_392:\n        /* \"#utility.yul\":5124:5127   */\n      0x00\n        /* \"#utility.yul\":5153:5237   */\n      tag_394\n        /* \"#utility.yul\":5231:5236   */\n      dup3\n        /* \"#utility.yul\":5153:5237   */\n      tag_395\n      jump\t// in\n    tag_394:\n        /* \"#utility.yul\":5253:5369   */\n      tag_396\n        /* \"#utility.yul\":5362:5368   */\n      dup2\n        /* \"#utility.yul\":5357:5360   */\n      dup6\n        /* \"#utility.yul\":5253:5369   */\n      tag_397\n      jump\t// in\n    tag_396:\n        /* \"#utility.yul\":5246:5369   */\n      swap4\n      pop\n        /* \"#utility.yul\":5393:5479   */\n      tag_398\n        /* \"#utility.yul\":5473:5478   */\n      dup4\n        /* \"#utility.yul\":5393:5479   */\n      tag_399\n      jump\t// in\n    tag_398:\n        /* \"#utility.yul\":5502:5509   */\n      dup1\n        /* \"#utility.yul\":5533:5534   */\n      0x00\n        /* \"#utility.yul\":5518:5892   */\n    tag_400:\n        /* \"#utility.yul\":5543:5549   */\n      dup4\n        /* \"#utility.yul\":5540:5541   */\n      dup2\n        /* \"#utility.yul\":5537:5550   */\n      lt\n        /* \"#utility.yul\":5518:5892   */\n      iszero\n      tag_402\n      jumpi\n        /* \"#utility.yul\":5619:5625   */\n      dup2\n        /* \"#utility.yul\":5613:5626   */\n      mload\n        /* \"#utility.yul\":5646:5769   */\n      tag_403\n        /* \"#utility.yul\":5765:5768   */\n      dup9\n        /* \"#utility.yul\":5750:5763   */\n      dup3\n        /* \"#utility.yul\":5646:5769   */\n      tag_364\n      jump\t// in\n    tag_403:\n        /* \"#utility.yul\":5639:5769   */\n      swap8\n      pop\n        /* \"#utility.yul\":5792:5882   */\n      tag_404\n        /* \"#utility.yul\":5875:5881   */\n      dup4\n        /* \"#utility.yul\":5792:5882   */\n      tag_405\n      jump\t// in\n    tag_404:\n        /* \"#utility.yul\":5782:5882   */\n      swap3\n      pop\n        /* \"#utility.yul\":5578:5892   */\n      pop\n        /* \"#utility.yul\":5565:5566   */\n      0x01\n        /* \"#utility.yul\":5562:5563   */\n      dup2\n        /* \"#utility.yul\":5558:5567   */\n      add\n        /* \"#utility.yul\":5553:5567   */\n      swap1\n      pop\n        /* \"#utility.yul\":5518:5892   */\n      jump(tag_400)\n    tag_402:\n        /* \"#utility.yul\":5522:5536   */\n      pop\n        /* \"#utility.yul\":5908:5911   */\n      dup6\n        /* \"#utility.yul\":5901:5911   */\n      swap4\n      pop\n        /* \"#utility.yul\":5129:5917   */\n      pop\n      pop\n      pop\n        /* \"#utility.yul\":4945:5917   */\n      swap3\n      swap2\n      pop\n      pop\n      jump\t// out\n        /* \"#utility.yul\":5953:6685   */\n    tag_406:\n        /* \"#utility.yul\":6072:6075   */\n      0x00\n        /* \"#utility.yul\":6101:6155   */\n      tag_408\n        /* \"#utility.yul\":6149:6154   */\n      dup3\n        /* \"#utility.yul\":6101:6155   */\n      tag_409\n      jump\t// in\n    tag_408:\n        /* \"#utility.yul\":6171:6257   */\n      tag_410\n        /* \"#utility.yul\":6250:6256   */\n      dup2\n        /* \"#utility.yul\":6245:6248   */\n      dup6\n        /* \"#utility.yul\":6171:6257   */\n      tag_411\n      jump\t// in\n    tag_410:\n        /* \"#utility.yul\":6164:6257   */\n      swap4\n      pop\n        /* \"#utility.yul\":6281:6337   */\n      tag_412\n        /* \"#utility.yul\":6331:6336   */\n      dup4\n        /* \"#utility.yul\":6281:6337   */\n      tag_413\n      jump\t// in\n    tag_412:\n        /* \"#utility.yul\":6360:6367   */\n      dup1\n        /* \"#utility.yul\":6391:6392   */\n      0x00\n        /* \"#utility.yul\":6376:6660   */\n    tag_414:\n        /* \"#utility.yul\":6401:6407   */\n      dup4\n        /* \"#utility.yul\":6398:6399   */\n      dup2\n        /* \"#utility.yul\":6395:6408   */\n      lt\n        /* \"#utility.yul\":6376:6660   */\n      iszero\n      tag_416\n      jumpi\n        /* \"#utility.yul\":6477:6483   */\n      dup2\n        /* \"#utility.yul\":6471:6484   */\n      mload\n        /* \"#utility.yul\":6504:6567   */\n      tag_417\n        /* \"#utility.yul\":6563:6566   */\n      dup9\n        /* \"#utility.yul\":6548:6561   */\n      dup3\n        /* \"#utility.yul\":6504:6567   */\n      tag_368\n      jump\t// in\n    tag_417:\n        /* \"#utility.yul\":6497:6567   */\n      swap8\n      pop\n        /* \"#utility.yul\":6590:6650   */\n      tag_418\n        /* \"#utility.yul\":6643:6649   */\n      dup4\n        /* \"#utility.yul\":6590:6650   */\n      tag_419\n      jump\t// in\n    tag_418:\n        /* \"#utility.yul\":6580:6650   */\n      swap3\n      pop\n        /* \"#utility.yul\":6436:6660   */\n      pop\n        /* \"#utility.yul\":6423:6424   */\n      0x01\n        /* \"#utility.yul\":6420:6421   */\n      dup2\n        /* \"#utility.yul\":6416:6425   */\n      add\n        /* \"#utility.yul\":6411:6425   */\n      swap1\n      pop\n        /* \"#utility.yul\":6376:6660   */\n      jump(tag_414)\n    tag_416:\n        /* \"#utility.yul\":6380:6394   */\n      pop\n        /* \"#utility.yul\":6676:6679   */\n      dup6\n        /* \"#utility.yul\":6669:6679   */\n      swap4\n      pop\n        /* \"#utility.yul\":6077:6685   */\n      pop\n      pop\n      pop\n        /* \"#utility.yul\":5953:6685   */\n      swap3\n      swap2\n      pop\n      pop\n      jump\t// out\n        /* \"#utility.yul\":6691:6790   */\n    tag_420:\n        /* \"#utility.yul\":6762:6783   */\n      tag_422\n        /* \"#utility.yul\":6777:6782   */\n      dup2\n        /* \"#utility.yul\":6762:6783   */\n      tag_423\n      jump\t// in\n    tag_422:\n        /* \"#utility.yul\":6757:6760   */\n      dup3\n        /* \"#utility.yul\":6750:6784   */\n      mstore\n        /* \"#utility.yul\":6691:6790   */\n      pop\n      pop\n      jump\t// out\n        /* \"#utility.yul\":6796:6905   */\n    tag_424:\n        /* \"#utility.yul\":6877:6898   */\n      tag_426\n        /* \"#utility.yul\":6892:6897   */\n      dup2\n        /* \"#utility.yul\":6877:6898   */\n      tag_423\n      jump\t// in\n    tag_426:\n        /* \"#utility.yul\":6872:6875   */\n      dup3\n        /* \"#utility.yul\":6865:6899   */\n      mstore\n        /* \"#utility.yul\":6796:6905   */\n      pop\n      pop\n      jump\t// out\n        /* \"#utility.yul\":6911:7277   */\n    tag_427:\n        /* \"#utility.yul\":7053:7056   */\n      0x00\n        /* \"#utility.yul\":7074:7141   */\n      tag_429\n        /* \"#utility.yul\":7138:7140   */\n      0x25\n        /* \"#utility.yul\":7133:7136   */\n      dup4\n        /* \"#utility.yul\":7074:7141   */\n      tag_430\n      jump\t// in\n    tag_429:\n        /* \"#utility.yul\":7067:7141   */\n      swap2\n      pop\n        /* \"#utility.yul\":7150:7243   */\n      tag_431\n        /* \"#utility.yul\":7239:7242   */\n      dup3\n        /* \"#utility.yul\":7150:7243   */\n      tag_432\n      jump\t// in\n    tag_431:\n        /* \"#utility.yul\":7268:7270   */\n      0x40\n        /* \"#utility.yul\":7263:7266   */\n      dup3\n        /* \"#utility.yul\":7259:7271   */\n      add\n        /* \"#utility.yul\":7252:7271   */\n      swap1\n      pop\n        /* \"#utility.yul\":6911:7277   */\n      swap2\n      swap1\n      pop\n      jump\t// out\n        /* \"#utility.yul\":7283:7649   */\n    tag_433:\n        /* \"#utility.yul\":7425:7428   */\n      0x00\n        /* \"#utility.yul\":7446:7513   */\n      tag_435\n        /* \"#utility.yul\":7510:7512   */\n      0x35\n        /* \"#utility.yul\":7505:7508   */\n      dup4\n        /* \"#utility.yul\":7446:7513   */\n      tag_430\n      jump\t// in\n    tag_435:\n        /* \"#utility.yul\":7439:7513   */\n      swap2\n      pop\n        /* \"#utility.yul\":7522:7615   */\n      tag_436\n        /* \"#utility.yul\":7611:7614   */\n      dup3\n        /* \"#utility.yul\":7522:7615   */\n      tag_437\n      jump\t// in\n    tag_436:\n        /* \"#utility.yul\":7640:7642   */\n      0x40\n        /* \"#utility.yul\":7635:7638   */\n      dup3\n        /* \"#utility.yul\":7631:7643   */\n      add\n        /* \"#utility.yul\":7624:7643   */\n      swap1\n      pop\n        /* \"#utility.yul\":7283:7649   */\n      swap2\n      swap1\n      pop\n      jump\t// out\n        /* \"#utility.yul\":7655:8021   */\n    tag_438:\n        /* \"#utility.yul\":7797:7800   */\n      0x00\n        /* \"#utility.yul\":7818:7885   */\n      tag_440\n        /* \"#utility.yul\":7882:7884   */\n      0x22\n        /* \"#utility.yul\":7877:7880   */\n      dup4\n        /* \"#utility.yul\":7818:7885   */\n      tag_430\n      jump\t// in\n    tag_440:\n        /* \"#utility.yul\":7811:7885   */\n      swap2\n      pop\n        /* \"#utility.yul\":7894:7987   */\n      tag_441\n        /* \"#utility.yul\":7983:7986   */\n      dup3\n        /* \"#utility.yul\":7894:7987   */\n      tag_442\n      jump\t// in\n    tag_441:\n        /* \"#utility.yul\":8012:8014   */\n      0x40\n        /* \"#utility.yul\":8007:8010   */\n      dup3\n        /* \"#utility.yul\":8003:8015   */\n      add\n        /* \"#utility.yul\":7996:8015   */\n      swap1\n      pop\n        /* \"#utility.yul\":7655:8021   */\n      swap2\n      swap1\n      pop\n      jump\t// out\n        /* \"#utility.yul\":8027:8393   */\n    tag_443:\n        /* \"#utility.yul\":8169:8172   */\n      0x00\n        /* \"#utility.yul\":8190:8257   */\n      tag_445\n        /* \"#utility.yul\":8254:8256   */\n      0x21\n        /* \"#utility.yul\":8249:8252   */\n      dup4\n        /* \"#utility.yul\":8190:8257   */\n      tag_430\n      jump\t// in\n    tag_445:\n        /* \"#utility.yul\":8183:8257   */\n      swap2\n      pop\n        /* \"#utility.yul\":8266:8359   */\n      tag_446\n        /* \"#utility.yul\":8355:8358   */\n      dup3\n        /* \"#utility.yul\":8266:8359   */\n      tag_447\n      jump\t// in\n    tag_446:\n        /* \"#utility.yul\":8384:8386   */\n      0x40\n        /* \"#utility.yul\":8379:8382   */\n      dup3\n        /* \"#utility.yul\":8375:8387   */\n      add\n        /* \"#utility.yul\":8368:8387   */\n      swap1\n      pop\n        /* \"#utility.yul\":8027:8393   */\n      swap2\n      swap1\n      pop\n      jump\t// out\n        /* \"#utility.yul\":8467:9709   */\n    tag_367:\n        /* \"#utility.yul\":8614:8618   */\n      0xc0\n        /* \"#utility.yul\":8609:8612   */\n      dup3\n        /* \"#utility.yul\":8605:8619   */\n      add\n        /* \"#utility.yul\":8711:8715   */\n      0x00\n        /* \"#utility.yul\":8704:8709   */\n      dup3\n        /* \"#utility.yul\":8700:8716   */\n      add\n        /* \"#utility.yul\":8694:8717   */\n      mload\n        /* \"#utility.yul\":8730:8793   */\n      tag_449\n        /* \"#utility.yul\":8787:8791   */\n      0x00\n        /* \"#utility.yul\":8782:8785   */\n      dup6\n        /* \"#utility.yul\":8778:8792   */\n      add\n        /* \"#utility.yul\":8764:8776   */\n      dup3\n        /* \"#utility.yul\":8730:8793   */\n      tag_371\n      jump\t// in\n    tag_449:\n        /* \"#utility.yul\":8629:8803   */\n      pop\n        /* \"#utility.yul\":8894:8898   */\n      0x20\n        /* \"#utility.yul\":8887:8892   */\n      dup3\n        /* \"#utility.yul\":8883:8899   */\n      add\n        /* \"#utility.yul\":8877:8900   */\n      mload\n        /* \"#utility.yul\":8913:8976   */\n      tag_450\n        /* \"#utility.yul\":8970:8974   */\n      0x20\n        /* \"#utility.yul\":8965:8968   */\n      dup6\n        /* \"#utility.yul\":8961:8975   */\n      add\n        /* \"#utility.yul\":8947:8959   */\n      dup3\n        /* \"#utility.yul\":8913:8976   */\n      tag_371\n      jump\t// in\n    tag_450:\n        /* \"#utility.yul\":8813:8986   */\n      pop\n        /* \"#utility.yul\":9075:9079   */\n      0x40\n        /* \"#utility.yul\":9068:9073   */\n      dup3\n        /* \"#utility.yul\":9064:9080   */\n      add\n        /* \"#utility.yul\":9058:9081   */\n      mload\n        /* \"#utility.yul\":9094:9157   */\n      tag_451\n        /* \"#utility.yul\":9151:9155   */\n      0x40\n        /* \"#utility.yul\":9146:9149   */\n      dup6\n        /* \"#utility.yul\":9142:9156   */\n      add\n        /* \"#utility.yul\":9128:9140   */\n      dup3\n        /* \"#utility.yul\":9094:9157   */\n      tag_371\n      jump\t// in\n    tag_451:\n        /* \"#utility.yul\":8996:9167   */\n      pop\n        /* \"#utility.yul\":9258:9262   */\n      0x60\n        /* \"#utility.yul\":9251:9256   */\n      dup3\n        /* \"#utility.yul\":9247:9263   */\n      add\n        /* \"#utility.yul\":9241:9264   */\n      mload\n        /* \"#utility.yul\":9277:9340   */\n      tag_452\n        /* \"#utility.yul\":9334:9338   */\n      0x60\n        /* \"#utility.yul\":9329:9332   */\n      dup6\n        /* \"#utility.yul\":9325:9339   */\n      add\n        /* \"#utility.yul\":9311:9323   */\n      dup3\n        /* \"#utility.yul\":9277:9340   */\n      tag_371\n      jump\t// in\n    tag_452:\n        /* \"#utility.yul\":9177:9350   */\n      pop\n        /* \"#utility.yul\":9439:9443   */\n      0x80\n        /* \"#utility.yul\":9432:9437   */\n      dup3\n        /* \"#utility.yul\":9428:9444   */\n      add\n        /* \"#utility.yul\":9422:9445   */\n      mload\n        /* \"#utility.yul\":9458:9521   */\n      tag_453\n        /* \"#utility.yul\":9515:9519   */\n      0x80\n        /* \"#utility.yul\":9510:9513   */\n      dup6\n        /* \"#utility.yul\":9506:9520   */\n      add\n        /* \"#utility.yul\":9492:9504   */\n      dup3\n        /* \"#utility.yul\":9458:9521   */\n      tag_371\n      jump\t// in\n    tag_453:\n        /* \"#utility.yul\":9360:9531   */\n      pop\n        /* \"#utility.yul\":9616:9620   */\n      0xa0\n        /* \"#utility.yul\":9609:9614   */\n      dup3\n        /* \"#utility.yul\":9605:9621   */\n      add\n        /* \"#utility.yul\":9599:9622   */\n      mload\n        /* \"#utility.yul\":9635:9692   */\n      tag_454\n        /* \"#utility.yul\":9686:9690   */\n      0xa0\n        /* \"#utility.yul\":9681:9684   */\n      dup6\n        /* \"#utility.yul\":9677:9691   */\n      add\n        /* \"#utility.yul\":9663:9675   */\n      dup3\n        /* \"#utility.yul\":9635:9692   */\n      tag_420\n      jump\t// in\n    tag_454:\n        /* \"#utility.yul\":9541:9702   */\n      pop\n        /* \"#utility.yul\":8583:9709   */\n      pop\n        /* \"#utility.yul\":8467:9709   */\n      pop\n      pop\n      jump\t// out\n        /* \"#utility.yul\":9715:9823   */\n    tag_371:\n        /* \"#utility.yul\":9792:9816   */\n      tag_456\n        /* \"#utility.yul\":9810:9815   */\n      dup2\n        /* \"#utility.yul\":9792:9816   */\n      tag_457\n      jump\t// in\n    tag_456:\n        /* \"#utility.yul\":9787:9790   */\n      dup3\n        /* \"#utility.yul\":9780:9817   */\n      mstore\n        /* \"#utility.yul\":9715:9823   */\n      pop\n      pop\n      jump\t// out\n        /* \"#utility.yul\":9829:9947   */\n    tag_458:\n        /* \"#utility.yul\":9916:9940   */\n      tag_460\n        /* \"#utility.yul\":9934:9939   */\n      dup2\n        /* \"#utility.yul\":9916:9940   */\n      tag_457\n      jump\t// in\n    tag_460:\n        /* \"#utility.yul\":9911:9914   */\n      dup3\n        /* \"#utility.yul\":9904:9941   */\n      mstore\n        /* \"#utility.yul\":9829:9947   */\n      pop\n      pop\n      jump\t// out\n        /* \"#utility.yul\":9953:10175   */\n    tag_74:\n        /* \"#utility.yul\":10046:10050   */\n      0x00\n        /* \"#utility.yul\":10084:10086   */\n      0x20\n        /* \"#utility.yul\":10073:10082   */\n      dup3\n        /* \"#utility.yul\":10069:10087   */\n      add\n        /* \"#utility.yul\":10061:10087   */\n      swap1\n      pop\n        /* \"#utility.yul\":10097:10168   */\n      tag_462\n        /* \"#utility.yul\":10165:10166   */\n      0x00\n        /* \"#utility.yul\":10154:10163   */\n      dup4\n        /* \"#utility.yul\":10150:10167   */\n      add\n        /* \"#utility.yul\":10141:10147   */\n      dup5\n        /* \"#utility.yul\":10097:10168   */\n      tag_375\n      jump\t// in\n    tag_462:\n        /* \"#utility.yul\":9953:10175   */\n      swap3\n      swap2\n      pop\n      pop\n      jump\t// out\n        /* \"#utility.yul\":10181:10623   */\n    tag_138:\n        /* \"#utility.yul\":10330:10334   */\n      0x00\n        /* \"#utility.yul\":10368:10370   */\n      0x60\n        /* \"#utility.yul\":10357:10366   */\n      dup3\n        /* \"#utility.yul\":10353:10371   */\n      add\n        /* \"#utility.yul\":10345:10371   */\n      swap1\n      pop\n        /* \"#utility.yul\":10381:10452   */\n      tag_464\n        /* \"#utility.yul\":10449:10450   */\n      0x00\n        /* \"#utility.yul\":10438:10447   */\n      dup4\n        /* \"#utility.yul\":10434:10451   */\n      add\n        /* \"#utility.yul\":10425:10431   */\n      dup7\n        /* \"#utility.yul\":10381:10452   */\n      tag_375\n      jump\t// in\n    tag_464:\n        /* \"#utility.yul\":10462:10534   */\n      tag_465\n        /* \"#utility.yul\":10530:10532   */\n      0x20\n        /* \"#utility.yul\":10519:10528   */\n      dup4\n        /* \"#utility.yul\":10515:10533   */\n      add\n        /* \"#utility.yul\":10506:10512   */\n      dup6\n        /* \"#utility.yul\":10462:10534   */\n      tag_375\n      jump\t// in\n    tag_465:\n        /* \"#utility.yul\":10544:10616   */\n      tag_466\n        /* \"#utility.yul\":10612:10614   */\n      0x40\n        /* \"#utility.yul\":10601:10610   */\n      dup4\n        /* \"#utility.yul\":10597:10615   */\n      add\n        /* \"#utility.yul\":10588:10594   */\n      dup5\n        /* \"#utility.yul\":10544:10616   */\n      tag_458\n      jump\t// in\n    tag_466:\n        /* \"#utility.yul\":10181:10623   */\n      swap5\n      swap4\n      pop\n      pop\n      pop\n      pop\n      jump\t// out\n        /* \"#utility.yul\":10629:10961   */\n    tag_206:\n        /* \"#utility.yul\":10750:10754   */\n      0x00\n        /* \"#utility.yul\":10788:10790   */\n      0x40\n        /* \"#utility.yul\":10777:10786   */\n      dup3\n        /* \"#utility.yul\":10773:10791   */\n      add\n        /* \"#utility.yul\":10765:10791   */\n      swap1\n      pop\n        /* \"#utility.yul\":10801:10872   */\n      tag_468\n        /* \"#utility.yul\":10869:10870   */\n      0x00\n        /* \"#utility.yul\":10858:10867   */\n      dup4\n        /* \"#utility.yul\":10854:10871   */\n      add\n        /* \"#utility.yul\":10845:10851   */\n      dup6\n        /* \"#utility.yul\":10801:10872   */\n      tag_375\n      jump\t// in\n    tag_468:\n        /* \"#utility.yul\":10882:10954   */\n      tag_469\n        /* \"#utility.yul\":10950:10952   */\n      0x20\n        /* \"#utility.yul\":10939:10948   */\n      dup4\n        /* \"#utility.yul\":10935:10953   */\n      add\n        /* \"#utility.yul\":10926:10932   */\n      dup5\n        /* \"#utility.yul\":10882:10954   */\n      tag_458\n      jump\t// in\n    tag_469:\n        /* \"#utility.yul\":10629:10961   */\n      swap4\n      swap3\n      pop\n      pop\n      pop\n      jump\t// out\n        /* \"#utility.yul\":10967:11841   */\n    tag_100:\n        /* \"#utility.yul\":11222:11226   */\n      0x00\n        /* \"#utility.yul\":11260:11263   */\n      0xe0\n        /* \"#utility.yul\":11249:11258   */\n      dup3\n        /* \"#utility.yul\":11245:11264   */\n      add\n        /* \"#utility.yul\":11237:11264   */\n      swap1\n      pop\n        /* \"#utility.yul\":11274:11345   */\n      tag_471\n        /* \"#utility.yul\":11342:11343   */\n      0x00\n        /* \"#utility.yul\":11331:11340   */\n      dup4\n        /* \"#utility.yul\":11327:11344   */\n      add\n        /* \"#utility.yul\":11318:11324   */\n      dup11\n        /* \"#utility.yul\":11274:11345   */\n      tag_375\n      jump\t// in\n    tag_471:\n        /* \"#utility.yul\":11355:11427   */\n      tag_472\n        /* \"#utility.yul\":11423:11425   */\n      0x20\n        /* \"#utility.yul\":11412:11421   */\n      dup4\n        /* \"#utility.yul\":11408:11426   */\n      add\n        /* \"#utility.yul\":11399:11405   */\n      dup10\n        /* \"#utility.yul\":11355:11427   */\n      tag_458\n      jump\t// in\n    tag_472:\n        /* \"#utility.yul\":11437:11509   */\n      tag_473\n        /* \"#utility.yul\":11505:11507   */\n      0x40\n        /* \"#utility.yul\":11494:11503   */\n      dup4\n        /* \"#utility.yul\":11490:11508   */\n      add\n        /* \"#utility.yul\":11481:11487   */\n      dup9\n        /* \"#utility.yul\":11437:11509   */\n      tag_458\n      jump\t// in\n    tag_473:\n        /* \"#utility.yul\":11519:11591   */\n      tag_474\n        /* \"#utility.yul\":11587:11589   */\n      0x60\n        /* \"#utility.yul\":11576:11585   */\n      dup4\n        /* \"#utility.yul\":11572:11590   */\n      add\n        /* \"#utility.yul\":11563:11569   */\n      dup8\n        /* \"#utility.yul\":11519:11591   */\n      tag_458\n      jump\t// in\n    tag_474:\n        /* \"#utility.yul\":11601:11674   */\n      tag_475\n        /* \"#utility.yul\":11669:11672   */\n      0x80\n        /* \"#utility.yul\":11658:11667   */\n      dup4\n        /* \"#utility.yul\":11654:11673   */\n      add\n        /* \"#utility.yul\":11645:11651   */\n      dup7\n        /* \"#utility.yul\":11601:11674   */\n      tag_458\n      jump\t// in\n    tag_475:\n        /* \"#utility.yul\":11684:11751   */\n      tag_476\n        /* \"#utility.yul\":11746:11749   */\n      0xa0\n        /* \"#utility.yul\":11735:11744   */\n      dup4\n        /* \"#utility.yul\":11731:11750   */\n      add\n        /* \"#utility.yul\":11722:11728   */\n      dup6\n        /* \"#utility.yul\":11684:11751   */\n      tag_424\n      jump\t// in\n    tag_476:\n        /* \"#utility.yul\":11761:11834   */\n      tag_477\n        /* \"#utility.yul\":11829:11832   */\n      0xc0\n        /* \"#utility.yul\":11818:11827   */\n      dup4\n        /* \"#utility.yul\":11814:11833   */\n      add\n        /* \"#utility.yul\":11805:11811   */\n      dup5\n        /* \"#utility.yul\":11761:11834   */\n      tag_458\n      jump\t// in\n    tag_477:\n        /* \"#utility.yul\":10967:11841   */\n      swap9\n      swap8\n      pop\n      pop\n      pop\n      pop\n      pop\n      pop\n      pop\n      pop\n      jump\t// out\n        /* \"#utility.yul\":11847:12220   */\n    tag_33:\n        /* \"#utility.yul\":11990:11994   */\n      0x00\n        /* \"#utility.yul\":12028:12030   */\n      0x20\n        /* \"#utility.yul\":12017:12026   */\n      dup3\n        /* \"#utility.yul\":12013:12031   */\n      add\n        /* \"#utility.yul\":12005:12031   */\n      swap1\n      pop\n        /* \"#utility.yul\":12077:12086   */\n      dup2\n        /* \"#utility.yul\":12071:12075   */\n      dup2\n        /* \"#utility.yul\":12067:12087   */\n      sub\n        /* \"#utility.yul\":12063:12064   */\n      0x00\n        /* \"#utility.yul\":12052:12061   */\n      dup4\n        /* \"#utility.yul\":12048:12065   */\n      add\n        /* \"#utility.yul\":12041:12088   */\n      mstore\n        /* \"#utility.yul\":12105:12213   */\n      tag_479\n        /* \"#utility.yul\":12208:12212   */\n      dup2\n        /* \"#utility.yul\":12199:12205   */\n      dup5\n        /* \"#utility.yul\":12105:12213   */\n      tag_378\n      jump\t// in\n    tag_479:\n        /* \"#utility.yul\":12097:12213   */\n      swap1\n      pop\n        /* \"#utility.yul\":11847:12220   */\n      swap3\n      swap2\n      pop\n      pop\n      jump\t// out\n        /* \"#utility.yul\":12226:12719   */\n    tag_54:\n        /* \"#utility.yul\":12429:12433   */\n      0x00\n        /* \"#utility.yul\":12467:12469   */\n      0x20\n        /* \"#utility.yul\":12456:12465   */\n      dup3\n        /* \"#utility.yul\":12452:12470   */\n      add\n        /* \"#utility.yul\":12444:12470   */\n      swap1\n      pop\n        /* \"#utility.yul\":12516:12525   */\n      dup2\n        /* \"#utility.yul\":12510:12514   */\n      dup2\n        /* \"#utility.yul\":12506:12526   */\n      sub\n        /* \"#utility.yul\":12502:12503   */\n      0x00\n        /* \"#utility.yul\":12491:12500   */\n      dup4\n        /* \"#utility.yul\":12487:12504   */\n      add\n        /* \"#utility.yul\":12480:12527   */\n      mstore\n        /* \"#utility.yul\":12544:12712   */\n      tag_481\n        /* \"#utility.yul\":12707:12711   */\n      dup2\n        /* \"#utility.yul\":12698:12704   */\n      dup5\n        /* \"#utility.yul\":12544:12712   */\n      tag_392\n      jump\t// in\n    tag_481:\n        /* \"#utility.yul\":12536:12712   */\n      swap1\n      pop\n        /* \"#utility.yul\":12226:12719   */\n      swap3\n      swap2\n      pop\n      pop\n      jump\t// out\n        /* \"#utility.yul\":12725:13098   */\n    tag_88:\n        /* \"#utility.yul\":12868:12872   */\n      0x00\n        /* \"#utility.yul\":12906:12908   */\n      0x20\n        /* \"#utility.yul\":12895:12904   */\n      dup3\n        /* \"#utility.yul\":12891:12909   */\n      add\n        /* \"#utility.yul\":12883:12909   */\n      swap1\n      pop\n        /* \"#utility.yul\":12955:12964   */\n      dup2\n        /* \"#utility.yul\":12949:12953   */\n      dup2\n        /* \"#utility.yul\":12945:12965   */\n      sub\n        /* \"#utility.yul\":12941:12942   */\n      0x00\n        /* \"#utility.yul\":12930:12939   */\n      dup4\n        /* \"#utility.yul\":12926:12943   */\n      add\n        /* \"#utility.yul\":12919:12966   */\n      mstore\n        /* \"#utility.yul\":12983:13091   */\n      tag_483\n        /* \"#utility.yul\":13086:13090   */\n      dup2\n        /* \"#utility.yul\":13077:13083   */\n      dup5\n        /* \"#utility.yul\":12983:13091   */\n      tag_406\n      jump\t// in\n    tag_483:\n        /* \"#utility.yul\":12975:13091   */\n      swap1\n      pop\n        /* \"#utility.yul\":12725:13098   */\n      swap3\n      swap2\n      pop\n      pop\n      jump\t// out\n        /* \"#utility.yul\":13104:13314   */\n    tag_46:\n        /* \"#utility.yul\":13191:13195   */\n      0x00\n        /* \"#utility.yul\":13229:13231   */\n      0x20\n        /* \"#utility.yul\":13218:13227   */\n      dup3\n        /* \"#utility.yul\":13214:13232   */\n      add\n        /* \"#utility.yul\":13206:13232   */\n      swap1\n      pop\n        /* \"#utility.yul\":13242:13307   */\n      tag_485\n        /* \"#utility.yul\":13304:13305   */\n      0x00\n        /* \"#utility.yul\":13293:13302   */\n      dup4\n        /* \"#utility.yul\":13289:13306   */\n      add\n        /* \"#utility.yul\":13280:13286   */\n      dup5\n        /* \"#utility.yul\":13242:13307   */\n      tag_424\n      jump\t// in\n    tag_485:\n        /* \"#utility.yul\":13104:13314   */\n      swap3\n      swap2\n      pop\n      pop\n      jump\t// out\n        /* \"#utility.yul\":13320:13739   */\n    tag_198:\n        /* \"#utility.yul\":13486:13490   */\n      0x00\n        /* \"#utility.yul\":13524:13526   */\n      0x20\n        /* \"#utility.yul\":13513:13522   */\n      dup3\n        /* \"#utility.yul\":13509:13527   */\n      add\n        /* \"#utility.yul\":13501:13527   */\n      swap1\n      pop\n        /* \"#utility.yul\":13573:13582   */\n      dup2\n        /* \"#utility.yul\":13567:13571   */\n      dup2\n        /* \"#utility.yul\":13563:13583   */\n      sub\n        /* \"#utility.yul\":13559:13560   */\n      0x00\n        /* \"#utility.yul\":13548:13557   */\n      dup4\n        /* \"#utility.yul\":13544:13561   */\n      add\n        /* \"#utility.yul\":13537:13584   */\n      mstore\n        /* \"#utility.yul\":13601:13732   */\n      tag_487\n        /* \"#utility.yul\":13727:13731   */\n      dup2\n        /* \"#utility.yul\":13601:13732   */\n      tag_427\n      jump\t// in\n    tag_487:\n        /* \"#utility.yul\":13593:13732   */\n      swap1\n      pop\n        /* \"#utility.yul\":13320:13739   */\n      swap2\n      swap1\n      pop\n      jump\t// out\n        /* \"#utility.yul\":13745:14164   */\n    tag_124:\n        /* \"#utility.yul\":13911:13915   */\n      0x00\n        /* \"#utility.yul\":13949:13951   */\n      0x20\n        /* \"#utility.yul\":13938:13947   */\n      dup3\n        /* \"#utility.yul\":13934:13952   */\n      add\n        /* \"#utility.yul\":13926:13952   */\n      swap1\n      pop\n        /* \"#utility.yul\":13998:14007   */\n      dup2\n        /* \"#utility.yul\":13992:13996   */\n      dup2\n        /* \"#utility.yul\":13988:14008   */\n      sub\n        /* \"#utility.yul\":13984:13985   */\n      0x00\n        /* \"#utility.yul\":13973:13982   */\n      dup4\n        /* \"#utility.yul\":13969:13986   */\n      add\n        /* \"#utility.yul\":13962:14009   */\n      mstore\n        /* \"#utility.yul\":14026:14157   */\n      tag_489\n        /* \"#utility.yul\":14152:14156   */\n      dup2\n        /* \"#utility.yul\":14026:14157   */\n      tag_433\n      jump\t// in\n    tag_489:\n        /* \"#utility.yul\":14018:14157   */\n      swap1\n      pop\n        /* \"#utility.yul\":13745:14164   */\n      swap2\n      swap1\n      pop\n      jump\t// out\n        /* \"#utility.yul\":14170:14589   */\n    tag_248:\n        /* \"#utility.yul\":14336:14340   */\n      0x00\n        /* \"#utility.yul\":14374:14376   */\n      0x20\n        /* \"#utility.yul\":14363:14372   */\n      dup3\n        /* \"#utility.yul\":14359:14377   */\n      add\n        /* \"#utility.yul\":14351:14377   */\n      swap1\n      pop\n        /* \"#utility.yul\":14423:14432   */\n      dup2\n        /* \"#utility.yul\":14417:14421   */\n      dup2\n        /* \"#utility.yul\":14413:14433   */\n      sub\n        /* \"#utility.yul\":14409:14410   */\n      0x00\n        /* \"#utility.yul\":14398:14407   */\n      dup4\n        /* \"#utility.yul\":14394:14411   */\n      add\n        /* \"#utility.yul\":14387:14434   */\n      mstore\n        /* \"#utility.yul\":14451:14582   */\n      tag_491\n        /* \"#utility.yul\":14577:14581   */\n      dup2\n        /* \"#utility.yul\":14451:14582   */\n      tag_438\n      jump\t// in\n    tag_491:\n        /* \"#utility.yul\":14443:14582   */\n      swap1\n      pop\n        /* \"#utility.yul\":14170:14589   */\n      swap2\n      swap1\n      pop\n      jump\t// out\n        /* \"#utility.yul\":14595:15014   */\n    tag_258:\n        /* \"#utility.yul\":14761:14765   */\n      0x00\n        /* \"#utility.yul\":14799:14801   */\n      0x20\n        /* \"#utility.yul\":14788:14797   */\n      dup3\n        /* \"#utility.yul\":14784:14802   */\n      add\n        /* \"#utility.yul\":14776:14802   */\n      swap1\n      pop\n        /* \"#utility.yul\":14848:14857   */\n      dup2\n        /* \"#utility.yul\":14842:14846   */\n      dup2\n        /* \"#utility.yul\":14838:14858   */\n      sub\n        /* \"#utility.yul\":14834:14835   */\n      0x00\n        /* \"#utility.yul\":14823:14832   */\n      dup4\n        /* \"#utility.yul\":14819:14836   */\n      add\n        /* \"#utility.yul\":14812:14859   */\n      mstore\n        /* \"#utility.yul\":14876:15007   */\n      tag_493\n        /* \"#utility.yul\":15002:15006   */\n      dup2\n        /* \"#utility.yul\":14876:15007   */\n      tag_443\n      jump\t// in\n    tag_493:\n        /* \"#utility.yul\":14868:15007   */\n      swap1\n      pop\n        /* \"#utility.yul\":14595:15014   */\n      swap2\n      swap1\n      pop\n      jump\t// out\n        /* \"#utility.yul\":15020:15242   */\n    tag_37:\n        /* \"#utility.yul\":15113:15117   */\n      0x00\n        /* \"#utility.yul\":15151:15153   */\n      0x20\n        /* \"#utility.yul\":15140:15149   */\n      dup3\n        /* \"#utility.yul\":15136:15154   */\n      add\n        /* \"#utility.yul\":15128:15154   */\n      swap1\n      pop\n        /* \"#utility.yul\":15164:15235   */\n      tag_495\n        /* \"#utility.yul\":15232:15233   */\n      0x00\n        /* \"#utility.yul\":15221:15230   */\n      dup4\n        /* \"#utility.yul\":15217:15234   */\n      add\n        /* \"#utility.yul\":15208:15214   */\n      dup5\n        /* \"#utility.yul\":15164:15235   */\n      tag_458\n      jump\t// in\n    tag_495:\n        /* \"#utility.yul\":15020:15242   */\n      swap3\n      swap2\n      pop\n      pop\n      jump\t// out\n        /* \"#utility.yul\":15329:15461   */\n    tag_385:\n        /* \"#utility.yul\":15396:15400   */\n      0x00\n        /* \"#utility.yul\":15419:15422   */\n      dup2\n        /* \"#utility.yul\":15411:15422   */\n      swap1\n      pop\n        /* \"#utility.yul\":15449:15453   */\n      0x20\n        /* \"#utility.yul\":15444:15447   */\n      dup3\n        /* \"#utility.yul\":15440:15454   */\n      add\n        /* \"#utility.yul\":15432:15454   */\n      swap1\n      pop\n        /* \"#utility.yul\":15329:15461   */\n      swap2\n      swap1\n      pop\n      jump\t// out\n        /* \"#utility.yul\":15467:15629   */\n    tag_399:\n        /* \"#utility.yul\":15564:15568   */\n      0x00\n        /* \"#utility.yul\":15587:15590   */\n      dup2\n        /* \"#utility.yul\":15579:15590   */\n      swap1\n      pop\n        /* \"#utility.yul\":15617:15621   */\n      0x20\n        /* \"#utility.yul\":15612:15615   */\n      dup3\n        /* \"#utility.yul\":15608:15622   */\n      add\n        /* \"#utility.yul\":15600:15622   */\n      swap1\n      pop\n        /* \"#utility.yul\":15467:15629   */\n      swap2\n      swap1\n      pop\n      jump\t// out\n        /* \"#utility.yul\":15635:15767   */\n    tag_413:\n        /* \"#utility.yul\":15702:15706   */\n      0x00\n        /* \"#utility.yul\":15725:15728   */\n      dup2\n        /* \"#utility.yul\":15717:15728   */\n      swap1\n      pop\n        /* \"#utility.yul\":15755:15759   */\n      0x20\n        /* \"#utility.yul\":15750:15753   */\n      dup3\n        /* \"#utility.yul\":15746:15760   */\n      add\n        /* \"#utility.yul\":15738:15760   */\n      swap1\n      pop\n        /* \"#utility.yul\":15635:15767   */\n      swap2\n      swap1\n      pop\n      jump\t// out\n        /* \"#utility.yul\":15773:15887   */\n    tag_381:\n        /* \"#utility.yul\":15840:15846   */\n      0x00\n        /* \"#utility.yul\":15874:15879   */\n      dup2\n        /* \"#utility.yul\":15868:15880   */\n      mload\n        /* \"#utility.yul\":15858:15880   */\n      swap1\n      pop\n        /* \"#utility.yul\":15773:15887   */\n      swap2\n      swap1\n      pop\n      jump\t// out\n        /* \"#utility.yul\":15893:16037   */\n    tag_395:\n        /* \"#utility.yul\":15990:15996   */\n      0x00\n        /* \"#utility.yul\":16024:16029   */\n      dup2\n        /* \"#utility.yul\":16018:16030   */\n      mload\n        /* \"#utility.yul\":16008:16030   */\n      swap1\n      pop\n        /* \"#utility.yul\":15893:16037   */\n      swap2\n      swap1\n      pop\n      jump\t// out\n        /* \"#utility.yul\":16043:16157   */\n    tag_409:\n        /* \"#utility.yul\":16110:16116   */\n      0x00\n        /* \"#utility.yul\":16144:16149   */\n      dup2\n        /* \"#utility.yul\":16138:16150   */\n      mload\n        /* \"#utility.yul\":16128:16150   */\n      swap1\n      pop\n        /* \"#utility.yul\":16043:16157   */\n      swap2\n      swap1\n      pop\n      jump\t// out\n        /* \"#utility.yul\":16163:16276   */\n    tag_391:\n        /* \"#utility.yul\":16233:16237   */\n      0x00\n        /* \"#utility.yul\":16265:16269   */\n      0x20\n        /* \"#utility.yul\":16260:16263   */\n      dup3\n        /* \"#utility.yul\":16256:16270   */\n      add\n        /* \"#utility.yul\":16248:16270   */\n      swap1\n      pop\n        /* \"#utility.yul\":16163:16276   */\n      swap2\n      swap1\n      pop\n      jump\t// out\n        /* \"#utility.yul\":16282:16425   */\n    tag_405:\n        /* \"#utility.yul\":16382:16386   */\n      0x00\n        /* \"#utility.yul\":16414:16418   */\n      0x20\n        /* \"#utility.yul\":16409:16412   */\n      dup3\n        /* \"#utility.yul\":16405:16419   */\n      add\n        /* \"#utility.yul\":16397:16419   */\n      swap1\n      pop\n        /* \"#utility.yul\":16282:16425   */\n      swap2\n      swap1\n      pop\n      jump\t// out\n        /* \"#utility.yul\":16431:16544   */\n    tag_419:\n        /* \"#utility.yul\":16501:16505   */\n      0x00\n        /* \"#utility.yul\":16533:16537   */\n      0x20\n        /* \"#utility.yul\":16528:16531   */\n      dup3\n        /* \"#utility.yul\":16524:16538   */\n      add\n        /* \"#utility.yul\":16516:16538   */\n      swap1\n      pop\n        /* \"#utility.yul\":16431:16544   */\n      swap2\n      swap1\n      pop\n      jump\t// out\n        /* \"#utility.yul\":16550:16734   */\n    tag_383:\n        /* \"#utility.yul\":16649:16660   */\n      0x00\n        /* \"#utility.yul\":16683:16689   */\n      dup3\n        /* \"#utility.yul\":16678:16681   */\n      dup3\n        /* \"#utility.yul\":16671:16690   */\n      mstore\n        /* \"#utility.yul\":16723:16727   */\n      0x20\n        /* \"#utility.yul\":16718:16721   */\n      dup3\n        /* \"#utility.yul\":16714:16728   */\n      add\n        /* \"#utility.yul\":16699:16728   */\n      swap1\n      pop\n        /* \"#utility.yul\":16550:16734   */\n      swap3\n      swap2\n      pop\n      pop\n      jump\t// out\n        /* \"#utility.yul\":16740:16954   */\n    tag_397:\n        /* \"#utility.yul\":16869:16880   */\n      0x00\n        /* \"#utility.yul\":16903:16909   */\n      dup3\n        /* \"#utility.yul\":16898:16901   */\n      dup3\n        /* \"#utility.yul\":16891:16910   */\n      mstore\n        /* \"#utility.yul\":16943:16947   */\n      0x20\n        /* \"#utility.yul\":16938:16941   */\n      dup3\n        /* \"#utility.yul\":16934:16948   */\n      add\n        /* \"#utility.yul\":16919:16948   */\n      swap1\n      pop\n        /* \"#utility.yul\":16740:16954   */\n      swap3\n      swap2\n      pop\n      pop\n      jump\t// out\n        /* \"#utility.yul\":16960:17144   */\n    tag_411:\n        /* \"#utility.yul\":17059:17070   */\n      0x00\n        /* \"#utility.yul\":17093:17099   */\n      dup3\n        /* \"#utility.yul\":17088:17091   */\n      dup3\n        /* \"#utility.yul\":17081:17100   */\n      mstore\n        /* \"#utility.yul\":17133:17137   */\n      0x20\n        /* \"#utility.yul\":17128:17131   */\n      dup3\n        /* \"#utility.yul\":17124:17138   */\n      add\n        /* \"#utility.yul\":17109:17138   */\n      swap1\n      pop\n        /* \"#utility.yul\":16960:17144   */\n      swap3\n      swap2\n      pop\n      pop\n      jump\t// out\n        /* \"#utility.yul\":17150:17319   */\n    tag_430:\n        /* \"#utility.yul\":17234:17245   */\n      0x00\n        /* \"#utility.yul\":17268:17274   */\n      dup3\n        /* \"#utility.yul\":17263:17266   */\n      dup3\n        /* \"#utility.yul\":17256:17275   */\n      mstore\n        /* \"#utility.yul\":17308:17312   */\n      0x20\n        /* \"#utility.yul\":17303:17306   */\n      dup3\n        /* \"#utility.yul\":17299:17313   */\n      add\n        /* \"#utility.yul\":17284:17313   */\n      swap1\n      pop\n        /* \"#utility.yul\":17150:17319   */\n      swap3\n      swap2\n      pop\n      pop\n      jump\t// out\n        /* \"#utility.yul\":17325:17630   */\n    tag_130:\n        /* \"#utility.yul\":17365:17368   */\n      0x00\n        /* \"#utility.yul\":17384:17404   */\n      tag_512\n        /* \"#utility.yul\":17402:17403   */\n      dup3\n        /* \"#utility.yul\":17384:17404   */\n      tag_457\n      jump\t// in\n    tag_512:\n        /* \"#utility.yul\":17379:17404   */\n      swap2\n      pop\n        /* \"#utility.yul\":17418:17438   */\n      tag_513\n        /* \"#utility.yul\":17436:17437   */\n      dup4\n        /* \"#utility.yul\":17418:17438   */\n      tag_457\n      jump\t// in\n    tag_513:\n        /* \"#utility.yul\":17413:17438   */\n      swap3\n      pop\n        /* \"#utility.yul\":17572:17573   */\n      dup3\n        /* \"#utility.yul\":17504:17570   */\n      0xffffffffffffffffffffffffffffffffffffffffffffffffffffffffffffffff\n        /* \"#utility.yul\":17500:17574   */\n      sub\n        /* \"#utility.yul\":17497:17498   */\n      dup3\n        /* \"#utility.yul\":17494:17575   */\n      gt\n        /* \"#utility.yul\":17491:17598   */\n      iszero\n      tag_514\n      jumpi\n        /* \"#utility.yul\":17578:17596   */\n      tag_515\n      tag_516\n      jump\t// in\n    tag_515:\n        /* \"#utility.yul\":17491:17598   */\n    tag_514:\n        /* \"#utility.yul\":17622:17623   */\n      dup3\n        /* \"#utility.yul\":17619:17620   */\n      dup3\n        /* \"#utility.yul\":17615:17624   */\n      add\n        /* \"#utility.yul\":17608:17624   */\n      swap1\n      pop\n        /* \"#utility.yul\":17325:17630   */\n      swap3\n      swap2\n      pop\n      pop\n      jump\t// out\n        /* \"#utility.yul\":17636:17821   */\n    tag_185:\n        /* \"#utility.yul\":17676:17677   */\n      0x00\n        /* \"#utility.yul\":17693:17713   */\n      tag_518\n        /* \"#utility.yul\":17711:17712   */\n      dup3\n        /* \"#utility.yul\":17693:17713   */\n      tag_457\n      jump\t// in\n    tag_518:\n        /* \"#utility.yul\":17688:17713   */\n      swap2\n      pop\n        /* \"#utility.yul\":17727:17747   */\n      tag_519\n        /* \"#utility.yul\":17745:17746   */\n      dup4\n        /* \"#utility.yul\":17727:17747   */\n      tag_457\n      jump\t// in\n    tag_519:\n        /* \"#utility.yul\":17722:17747   */\n      swap3\n      pop\n        /* \"#utility.yul\":17766:17767   */\n      dup3\n        /* \"#utility.yul\":17756:17791   */\n      tag_520\n      jumpi\n        /* \"#utility.yul\":17771:17789   */\n      tag_521\n      tag_522\n      jump\t// in\n    tag_521:\n        /* \"#utility.yul\":17756:17791   */\n    tag_520:\n        /* \"#utility.yul\":17813:17814   */\n      dup3\n        /* \"#utility.yul\":17810:17811   */\n      dup3\n        /* \"#utility.yul\":17806:17815   */\n      div\n        /* \"#utility.yul\":17801:17815   */\n      swap1\n      pop\n        /* \"#utility.yul\":17636:17821   */\n      swap3\n      swap2\n      pop\n      pop\n      jump\t// out\n        /* \"#utility.yul\":17827:18175   */\n    tag_136:\n        /* \"#utility.yul\":17867:17874   */\n      0x00\n        /* \"#utility.yul\":17890:17910   */\n      tag_524\n        /* \"#utility.yul\":17908:17909   */\n      dup3\n        /* \"#utility.yul\":17890:17910   */\n      tag_457\n      jump\t// in\n    tag_524:\n        /* \"#utility.yul\":17885:17910   */\n      swap2\n      pop\n        /* \"#utility.yul\":17924:17944   */\n      tag_525\n        /* \"#utility.yul\":17942:17943   */\n      dup4\n        /* \"#utility.yul\":17924:17944   */\n      tag_457\n      jump\t// in\n    tag_525:\n        /* \"#utility.yul\":17919:17944   */\n      swap3\n      pop\n        /* \"#utility.yul\":18112:18113   */\n      dup2\n        /* \"#utility.yul\":18044:18110   */\n      0xffffffffffffffffffffffffffffffffffffffffffffffffffffffffffffffff\n        /* \"#utility.yul\":18040:18114   */\n      div\n        /* \"#utility.yul\":18037:18038   */\n      dup4\n        /* \"#utility.yul\":18034:18115   */\n      gt\n        /* \"#utility.yul\":18029:18030   */\n      dup3\n        /* \"#utility.yul\":18022:18031   */\n      iszero\n        /* \"#utility.yul\":18015:18032   */\n      iszero\n        /* \"#utility.yul\":18011:18116   */\n      and\n        /* \"#utility.yul\":18008:18139   */\n      iszero\n      tag_526\n      jumpi\n        /* \"#utility.yul\":18119:18137   */\n      tag_527\n      tag_516\n      jump\t// in\n    tag_527:\n        /* \"#utility.yul\":18008:18139   */\n    tag_526:\n        /* \"#utility.yul\":18167:18168   */\n      dup3\n        /* \"#utility.yul\":18164:18165   */\n      dup3\n        /* \"#utility.yul\":18160:18169   */\n      mul\n        /* \"#utility.yul\":18149:18169   */\n      swap1\n      pop\n        /* \"#utility.yul\":17827:18175   */\n      swap3\n      swap2\n      pop\n      pop\n      jump\t// out\n        /* \"#utility.yul\":18181:18372   */\n    tag_181:\n        /* \"#utility.yul\":18221:18225   */\n      0x00\n        /* \"#utility.yul\":18241:18261   */\n      tag_529\n        /* \"#utility.yul\":18259:18260   */\n      dup3\n        /* \"#utility.yul\":18241:18261   */\n      tag_457\n      jump\t// in\n    tag_529:\n        /* \"#utility.yul\":18236:18261   */\n      swap2\n      pop\n        /* \"#utility.yul\":18275:18295   */\n      tag_530\n        /* \"#utility.yul\":18293:18294   */\n      dup4\n        /* \"#utility.yul\":18275:18295   */\n      tag_457\n      jump\t// in\n    tag_530:\n        /* \"#utility.yul\":18270:18295   */\n      swap3\n      pop\n        /* \"#utility.yul\":18314:18315   */\n      dup3\n        /* \"#utility.yul\":18311:18312   */\n      dup3\n        /* \"#utility.yul\":18308:18316   */\n      lt\n        /* \"#utility.yul\":18305:18339   */\n      iszero\n      tag_531\n      jumpi\n        /* \"#utility.yul\":18319:18337   */\n      tag_532\n      tag_516\n      jump\t// in\n    tag_532:\n        /* \"#utility.yul\":18305:18339   */\n    tag_531:\n        /* \"#utility.yul\":18364:18365   */\n      dup3\n        /* \"#utility.yul\":18361:18362   */\n      dup3\n        /* \"#utility.yul\":18357:18366   */\n      sub\n        /* \"#utility.yul\":18349:18366   */\n      swap1\n      pop\n        /* \"#utility.yul\":18181:18372   */\n      swap3\n      swap2\n      pop\n      pop\n      jump\t// out\n        /* \"#utility.yul\":18378:18474   */\n    tag_374:\n        /* \"#utility.yul\":18415:18422   */\n      0x00\n        /* \"#utility.yul\":18444:18468   */\n      tag_534\n        /* \"#utility.yul\":18462:18467   */\n      dup3\n        /* \"#utility.yul\":18444:18468   */\n      tag_535\n      jump\t// in\n    tag_534:\n        /* \"#utility.yul\":18433:18468   */\n      swap1\n      pop\n        /* \"#utility.yul\":18378:18474   */\n      swap2\n      swap1\n      pop\n      jump\t// out\n        /* \"#utility.yul\":18480:18570   */\n    tag_423:\n        /* \"#utility.yul\":18514:18521   */\n      0x00\n        /* \"#utility.yul\":18557:18562   */\n      dup2\n        /* \"#utility.yul\":18550:18563   */\n      iszero\n        /* \"#utility.yul\":18543:18564   */\n      iszero\n        /* \"#utility.yul\":18532:18564   */\n      swap1\n      pop\n        /* \"#utility.yul\":18480:18570   */\n      swap2\n      swap1\n      pop\n      jump\t// out\n        /* \"#utility.yul\":18576:18702   */\n    tag_535:\n        /* \"#utility.yul\":18613:18620   */\n      0x00\n        /* \"#utility.yul\":18653:18695   */\n      0xffffffffffffffffffffffffffffffffffffffff\n        /* \"#utility.yul\":18646:18651   */\n      dup3\n        /* \"#utility.yul\":18642:18696   */\n      and\n        /* \"#utility.yul\":18631:18696   */\n      swap1\n      pop\n        /* \"#utility.yul\":18576:18702   */\n      swap2\n      swap1\n      pop\n      jump\t// out\n        /* \"#utility.yul\":18708:18785   */\n    tag_457:\n        /* \"#utility.yul\":18745:18752   */\n      0x00\n        /* \"#utility.yul\":18774:18779   */\n      dup2\n        /* \"#utility.yul\":18763:18779   */\n      swap1\n      pop\n        /* \"#utility.yul\":18708:18785   */\n      swap2\n      swap1\n      pop\n      jump\t// out\n        /* \"#utility.yul\":18791:19024   */\n    tag_127:\n        /* \"#utility.yul\":18830:18833   */\n      0x00\n        /* \"#utility.yul\":18853:18877   */\n      tag_540\n        /* \"#utility.yul\":18871:18876   */\n      dup3\n        /* \"#utility.yul\":18853:18877   */\n      tag_457\n      jump\t// in\n    tag_540:\n        /* \"#utility.yul\":18844:18877   */\n      swap2\n      pop\n        /* \"#utility.yul\":18899:18965   */\n      0xffffffffffffffffffffffffffffffffffffffffffffffffffffffffffffffff\n        /* \"#utility.yul\":18892:18897   */\n      dup3\n        /* \"#utility.yul\":18889:18966   */\n      eq\n        /* \"#utility.yul\":18886:18989   */\n      iszero\n      tag_541\n      jumpi\n        /* \"#utility.yul\":18969:18987   */\n      tag_542\n      tag_516\n      jump\t// in\n    tag_542:\n        /* \"#utility.yul\":18886:18989   */\n    tag_541:\n        /* \"#utility.yul\":19016:19017   */\n      0x01\n        /* \"#utility.yul\":19009:19014   */\n      dup3\n        /* \"#utility.yul\":19005:19018   */\n      add\n        /* \"#utility.yul\":18998:19018   */\n      swap1\n      pop\n        /* \"#utility.yul\":18791:19024   */\n      swap2\n      swap1\n      pop\n      jump\t// out\n        /* \"#utility.yul\":19030:19210   */\n    tag_516:\n        /* \"#utility.yul\":19078:19155   */\n      0x4e487b7100000000000000000000000000000000000000000000000000000000\n        /* \"#utility.yul\":19075:19076   */\n      0x00\n        /* \"#utility.yul\":19068:19156   */\n      mstore\n        /* \"#utility.yul\":19175:19179   */\n      0x11\n        /* \"#utility.yul\":19172:19173   */\n      0x04\n        /* \"#utility.yul\":19165:19180   */\n      mstore\n        /* \"#utility.yul\":19199:19203   */\n      0x24\n        /* \"#utility.yul\":19196:19197   */\n      0x00\n        /* \"#utility.yul\":19189:19204   */\n      revert\n        /* \"#utility.yul\":19216:19396   */\n    tag_522:\n        /* \"#utility.yul\":19264:19341   */\n      0x4e487b7100000000000000000000000000000000000000000000000000000000\n        /* \"#utility.yul\":19261:19262   */\n      0x00\n        /* \"#utility.yul\":19254:19342   */\n      mstore\n        /* \"#utility.yul\":19361:19365   */\n      0x12\n        /* \"#utility.yul\":19358:19359   */\n      0x04\n        /* \"#utility.yul\":19351:19366   */\n      mstore\n        /* \"#utility.yul\":19385:19389   */\n      0x24\n        /* \"#utility.yul\":19382:19383   */\n      0x00\n        /* \"#utility.yul\":19375:19390   */\n      revert\n        /* \"#utility.yul\":19402:19582   */\n    tag_172:\n        /* \"#utility.yul\":19450:19527   */\n      0x4e487b7100000000000000000000000000000000000000000000000000000000\n        /* \"#utility.yul\":19447:19448   */\n      0x00\n        /* \"#utility.yul\":19440:19528   */\n      mstore\n        /* \"#utility.yul\":19547:19551   */\n      0x32\n        /* \"#utility.yul\":19544:19545   */\n      0x04\n        /* \"#utility.yul\":19537:19552   */\n      mstore\n        /* \"#utility.yul\":19571:19575   */\n      0x24\n        /* \"#utility.yul\":19568:19569   */\n      0x00\n        /* \"#utility.yul\":19561:19576   */\n      revert\n        /* \"#utility.yul\":19588:19768   */\n    tag_161:\n        /* \"#utility.yul\":19636:19713   */\n      0x4e487b7100000000000000000000000000000000000000000000000000000000\n        /* \"#utility.yul\":19633:19634   */\n      0x00\n        /* \"#utility.yul\":19626:19714   */\n      mstore\n        /* \"#utility.yul\":19733:19737   */\n      0x41\n        /* \"#utility.yul\":19730:19731   */\n      0x04\n        /* \"#utility.yul\":19723:19738   */\n      mstore\n        /* \"#utility.yul\":19757:19761   */\n      0x24\n        /* \"#utility.yul\":19754:19755   */\n      0x00\n        /* \"#utility.yul\":19747:19762   */\n      revert\n        /* \"#utility.yul\":19897:20014   */\n    tag_333:\n        /* \"#utility.yul\":20006:20007   */\n      0x00\n        /* \"#utility.yul\":20003:20004   */\n      dup1\n        /* \"#utility.yul\":19996:20008   */\n      revert\n        /* \"#utility.yul\":20020:20244   */\n    tag_432:\n        /* \"#utility.yul\":20160:20194   */\n      0x796f7520646f6e74206861766520696e766573746d656e7420746f2077697468\n        /* \"#utility.yul\":20156:20157   */\n      0x00\n        /* \"#utility.yul\":20148:20154   */\n      dup3\n        /* \"#utility.yul\":20144:20158   */\n      add\n        /* \"#utility.yul\":20137:20195   */\n      mstore\n        /* \"#utility.yul\":20229:20236   */\n      0x647261776e000000000000000000000000000000000000000000000000000000\n        /* \"#utility.yul\":20224:20226   */\n      0x20\n        /* \"#utility.yul\":20216:20222   */\n      dup3\n        /* \"#utility.yul\":20212:20227   */\n      add\n        /* \"#utility.yul\":20205:20237   */\n      mstore\n        /* \"#utility.yul\":20020:20244   */\n      pop\n      jump\t// out\n        /* \"#utility.yul\":20250:20490   */\n    tag_437:\n        /* \"#utility.yul\":20390:20424   */\n      0x76616c7565206973206e6f742067726561746572207468616e20313030303020\n        /* \"#utility.yul\":20386:20387   */\n      0x00\n        /* \"#utility.yul\":20378:20384   */\n      dup3\n        /* \"#utility.yul\":20374:20388   */\n      add\n        /* \"#utility.yul\":20367:20425   */\n      mstore\n        /* \"#utility.yul\":20459:20482   */\n      0x616e64206c657373207468616e20353030303030300000000000000000000000\n        /* \"#utility.yul\":20454:20456   */\n      0x20\n        /* \"#utility.yul\":20446:20452   */\n      dup3\n        /* \"#utility.yul\":20442:20457   */\n      add\n        /* \"#utility.yul\":20435:20483   */\n      mstore\n        /* \"#utility.yul\":20250:20490   */\n      pop\n      jump\t// out\n        /* \"#utility.yul\":20496:20717   */\n    tag_442:\n        /* \"#utility.yul\":20636:20670   */\n      0x796f7520646f6e742068617665207265776172647320746f2077697468647261\n        /* \"#utility.yul\":20632:20633   */\n      0x00\n        /* \"#utility.yul\":20624:20630   */\n      dup3\n        /* \"#utility.yul\":20620:20634   */\n      add\n        /* \"#utility.yul\":20613:20671   */\n      mstore\n        /* \"#utility.yul\":20705:20709   */\n      0x776e000000000000000000000000000000000000000000000000000000000000\n        /* \"#utility.yul\":20700:20702   */\n      0x20\n        /* \"#utility.yul\":20692:20698   */\n      dup3\n        /* \"#utility.yul\":20688:20703   */\n      add\n        /* \"#utility.yul\":20681:20710   */\n      mstore\n        /* \"#utility.yul\":20496:20717   */\n      pop\n      jump\t// out\n        /* \"#utility.yul\":20723:20943   */\n    tag_447:\n        /* \"#utility.yul\":20863:20897   */\n      0x6f6e6c79204f776e65722063616e2063616c6c20746869732066756e6374696f\n        /* \"#utility.yul\":20859:20860   */\n      0x00\n        /* \"#utility.yul\":20851:20857   */\n      dup3\n        /* \"#utility.yul\":20847:20861   */\n      add\n        /* \"#utility.yul\":20840:20898   */\n      mstore\n        /* \"#utility.yul\":20932:20935   */\n      0x6e00000000000000000000000000000000000000000000000000000000000000\n        /* \"#utility.yul\":20927:20929   */\n      0x20\n        /* \"#utility.yul\":20919:20925   */\n      dup3\n        /* \"#utility.yul\":20915:20930   */\n      add\n        /* \"#utility.yul\":20908:20936   */\n      mstore\n        /* \"#utility.yul\":20723:20943   */\n      pop\n      jump\t// out\n        /* \"#utility.yul\":20949:21071   */\n    tag_321:\n        /* \"#utility.yul\":21022:21046   */\n      tag_555\n        /* \"#utility.yul\":21040:21045   */\n      dup2\n        /* \"#utility.yul\":21022:21046   */\n      tag_374\n      jump\t// in\n    tag_555:\n        /* \"#utility.yul\":21015:21020   */\n      dup2\n        /* \"#utility.yul\":21012:21047   */\n      eq\n        /* \"#utility.yul\":21002:21065   */\n      tag_556\n      jumpi\n        /* \"#utility.yul\":21061:21062   */\n      0x00\n        /* \"#utility.yul\":21058:21059   */\n      dup1\n        /* \"#utility.yul\":21051:21063   */\n      revert\n        /* \"#utility.yul\":21002:21065   */\n    tag_556:\n        /* \"#utility.yul\":20949:21071   */\n      pop\n      jump\t// out\n        /* \"#utility.yul\":21077:21193   */\n    tag_325:\n        /* \"#utility.yul\":21147:21168   */\n      tag_558\n        /* \"#utility.yul\":21162:21167   */\n      dup2\n        /* \"#utility.yul\":21147:21168   */\n      tag_423\n      jump\t// in\n    tag_558:\n        /* \"#utility.yul\":21140:21145   */\n      dup2\n        /* \"#utility.yul\":21137:21169   */\n      eq\n        /* \"#utility.yul\":21127:21187   */\n      tag_559\n      jumpi\n        /* \"#utility.yul\":21183:21184   */\n      0x00\n        /* \"#utility.yul\":21180:21181   */\n      dup1\n        /* \"#utility.yul\":21173:21185   */\n      revert\n        /* \"#utility.yul\":21127:21187   */\n    tag_559:\n        /* \"#utility.yul\":21077:21193   */\n      pop\n      jump\t// out\n        /* \"#utility.yul\":21199:21321   */\n    tag_329:\n        /* \"#utility.yul\":21272:21296   */\n      tag_561\n        /* \"#utility.yul\":21290:21295   */\n      dup2\n        /* \"#utility.yul\":21272:21296   */\n      tag_457\n      jump\t// in\n    tag_561:\n        /* \"#utility.yul\":21265:21270   */\n      dup2\n        /* \"#utility.yul\":21262:21297   */\n      eq\n        /* \"#utility.yul\":21252:21315   */\n      tag_562\n      jumpi\n        /* \"#utility.yul\":21311:21312   */\n      0x00\n        /* \"#utility.yul\":21308:21309   */\n      dup1\n        /* \"#utility.yul\":21301:21313   */\n      revert\n        /* \"#utility.yul\":21252:21315   */\n    tag_562:\n        /* \"#utility.yul\":21199:21321   */\n      pop\n      jump\t// out\n\n    auxdata: 0xa2646970667358221220c9c947a3311e026b855e40f3f916a08599ebb27e540806f196d8e9dab736d05864736f6c63430008070033\n}\n",
				"bytecode": {
					"linkReferences": {},
					"object": "608060405273735f6e949d39f02bad26d1698a558a629d416265600160006101000a81548173ffffffffffffffffffffffffffffffffffffffff021916908373ffffffffffffffffffffffffffffffffffffffff1602179055507363c0f4f599efcfd747ddea897117b5293e139bcd600260006101000a81548173ffffffffffffffffffffffffffffffffffffffff021916908373ffffffffffffffffffffffffffffffffffffffff160217905550674563918244f40000600455612710600555624c4b40600655620186a060075563018b82006008553480156100e257600080fd5b50336000806101000a81548173ffffffffffffffffffffffffffffffffffffffff021916908373ffffffffffffffffffffffffffffffffffffffff160217905550612e91806101326000396000f3fe608060405234801561001057600080fd5b50600436106101585760003560e01c8063929f6bbe116100c3578063d3560ee81161007c578063d3560ee814610383578063e2033fcb146103b9578063f2fde38b146103d7578063f790b81a146103f3578063f7c618c114610411578063fae730bc1461042f57610158565b8063929f6bbe146102d15780639740a1bc146102ef578063a47bd4961461030d578063a61be99d14610329578063bc67eaff14610347578063c885bc581461036557610158565b80633d18b912116101155780633d18b912146102215780634eb1ecc91461023f578063500cb85f1461025b578063523cddfe1461027757806373cf575a146102955780638da5cb5b146102b357610158565b80630c5f58f41461015d57806310cde60a1461017b5780631e8aba35146101995780632bccdce6146101b757806332d4e783146101e75780633a1e083314610203575b600080fd5b61016561044d565b604051610172919061289b565b60405180910390f35b61018361051b565b604051610190919061299c565b60405180910390f35b6101a1610521565b6040516101ae919061299c565b60405180910390f35b6101d160048036038101906101cc9190612407565b61056e565b6040516101de9190612901565b60405180910390f35b61020160048036038101906101fc91906123da565b610d0a565b005b61020b610d14565b60405161021891906128bd565b60405180910390f35b610229610fa5565b604051610236919061299c565b60405180910390f35b61025960048036038101906102549190612487565b61129c565b005b610275600480360381019061027091906123da565b6112be565b005b61027f6112c8565b60405161028c919061299c565b60405180910390f35b61029d6112ce565b6040516102aa9190612901565b60405180910390f35b6102bb611861565b6040516102c891906127b1565b60405180910390f35b6102d9611885565b6040516102e6919061299c565b60405180910390f35b6102f76118cf565b604051610304919061299c565b60405180910390f35b61032760048036038101906103229190612447565b6118d5565b005b6103316118e7565b60405161033e91906128df565b60405180910390f35b61034f611a5a565b60405161035c919061299c565b60405180910390f35b61036d611a60565b60405161037a9190612901565b60405180910390f35b61039d60048036038101906103989190612380565b611bc1565b6040516103b0979695949392919061282c565b60405180910390f35b6103c1611c30565b6040516103ce919061299c565b60405180910390f35b6103f160048036038101906103ec9190612380565b611c36565b005b6103fb611d07565b60405161040891906128df565b60405180910390f35b610419611e7a565b604051610426919061299c565b60405180910390f35b610437611e80565b604051610444919061299c565b60405180910390f35b6060600b60003373ffffffffffffffffffffffffffffffffffffffff1673ffffffffffffffffffffffffffffffffffffffff16815260200190815260200160002060010180548060200260200160405190810160405280929190818152602001828054801561051157602002820191906000526020600020905b8160009054906101000a900473ffffffffffffffffffffffffffffffffffffffff1673ffffffffffffffffffffffffffffffffffffffff16815260200190600101908083116104c7575b5050505050905090565b60035481565b6000600b60003373ffffffffffffffffffffffffffffffffffffffff1673ffffffffffffffffffffffffffffffffffffffff16815260200190815260200160002060010180549050905090565b6000600554831015801561058457506006548311155b6105c3576040517f08c379a00000000000000000000000000000000000000000000000000000000081526004016105ba9061293c565b60405180910390fd5b60001515600b60003373ffffffffffffffffffffffffffffffffffffffff1673ffffffffffffffffffffffffffffffffffffffff16815260200190815260200160002060080160009054906101000a900460ff1615151415610638576003600081548092919061063290612bd0565b91905055505b6000600b60003373ffffffffffffffffffffffffffffffffffffffff1673ffffffffffffffffffffffffffffffffffffffff1681526020019081526020016000206006015414156106da5763018b8200426106939190612a73565b600b60003373ffffffffffffffffffffffffffffffffffffffff1673ffffffffffffffffffffffffffffffffffffffff168152602001908152602001600020600901819055505b6000600b60003373ffffffffffffffffffffffffffffffffffffffff1673ffffffffffffffffffffffffffffffffffffffff16815260200190815260200160002060050154905083600b60003373ffffffffffffffffffffffffffffffffffffffff1673ffffffffffffffffffffffffffffffffffffffff16815260200190815260200160002060000160008381526020019081526020016000206000018190555042600b60003373ffffffffffffffffffffffffffffffffffffffff1673ffffffffffffffffffffffffffffffffffffffff168152602001908152602001600020600001600083815260200190815260200160002060020181905550600854426107e59190612a73565b600b60003373ffffffffffffffffffffffffffffffffffffffff1673ffffffffffffffffffffffffffffffffffffffff16815260200190815260200160002060000160008381526020019081526020016000206001018190555080600b60003373ffffffffffffffffffffffffffffffffffffffff1673ffffffffffffffffffffffffffffffffffffffff16815260200190815260200160002060000160008381526020019081526020016000206003018190555083600b60003373ffffffffffffffffffffffffffffffffffffffff1673ffffffffffffffffffffffffffffffffffffffff16815260200190815260200160002060060160008282546108ec9190612a73565b92505081905550600b60003373ffffffffffffffffffffffffffffffffffffffff1673ffffffffffffffffffffffffffffffffffffffff168152602001908152602001600020600501600081548092919061094690612bd0565b9190505550836009600082825461095d9190612a73565b92505081905550600160009054906101000a900473ffffffffffffffffffffffffffffffffffffffff1673ffffffffffffffffffffffffffffffffffffffff166323b872dd33306305f5e100886109b49190612afa565b6040518463ffffffff1660e01b81526004016109d2939291906127cc565b602060405180830381600087803b1580156109ec57600080fd5b505af1158015610a00573d6000803e3d6000fd5b505050506040513d601f19601f82011682018060405250810190610a2491906123ad565b50600073ffffffffffffffffffffffffffffffffffffffff168373ffffffffffffffffffffffffffffffffffffffff161480610a8b57503373ffffffffffffffffffffffffffffffffffffffff168373ffffffffffffffffffffffffffffffffffffffff16145b80610ae9575060011515600b60003373ffffffffffffffffffffffffffffffffffffffff1673ffffffffffffffffffffffffffffffffffffffff16815260200190815260200160002060080160009054906101000a900460ff161515145b15610b75576000600b60003373ffffffffffffffffffffffffffffffffffffffff1673ffffffffffffffffffffffffffffffffffffffff16815260200190815260200160002060020160006101000a81548173ffffffffffffffffffffffffffffffffffffffff021916908373ffffffffffffffffffffffffffffffffffffffff160217905550610ca4565b82600b60003373ffffffffffffffffffffffffffffffffffffffff1673ffffffffffffffffffffffffffffffffffffffff16815260200190815260200160002060020160006101000a81548173ffffffffffffffffffffffffffffffffffffffff021916908373ffffffffffffffffffffffffffffffffffffffff160217905550600b60008473ffffffffffffffffffffffffffffffffffffffff1673ffffffffffffffffffffffffffffffffffffffff168152602001908152602001600020600101339080600181540180825580915050600190039060005260206000200160009091909190916101000a81548173ffffffffffffffffffffffffffffffffffffffff021916908373ffffffffffffffffffffffffffffffffffffffff160217905550610ca33385611e86565b5b6001600b60003373ffffffffffffffffffffffffffffffffffffffff1673ffffffffffffffffffffffffffffffffffffffff16815260200190815260200160002060080160006101000a81548160ff021916908315150217905550600191505092915050565b8060058190555050565b60606000600b60003373ffffffffffffffffffffffffffffffffffffffff1673ffffffffffffffffffffffffffffffffffffffff16815260200190815260200160002060050154905060008060005b83811015610dec576000600b60003373ffffffffffffffffffffffffffffffffffffffff1673ffffffffffffffffffffffffffffffffffffffff1681526020019081526020016000206000016000838152602001908152602001600020600001541115610dd9578280610dd590612bd0565b9350505b8080610de490612bd0565b915050610d63565b5060008267ffffffffffffffff811115610e0957610e08612ca6565b5b604051908082528060200260200182016040528015610e4257816020015b610e2f612309565b815260200190600190039081610e275790505b50905060005b84811015610f9a576000600b60003373ffffffffffffffffffffffffffffffffffffffff1673ffffffffffffffffffffffffffffffffffffffff1681526020019081526020016000206000016000838152602001908152602001600020600001541115610f8757600b60003373ffffffffffffffffffffffffffffffffffffffff1673ffffffffffffffffffffffffffffffffffffffff16815260200190815260200160002060000160008281526020019081526020016000206040518060c001604052908160008201548152602001600182015481526020016002820154815260200160038201548152602001600482015481526020016005820160009054906101000a900460ff161515151581525050828481518110610f6d57610f6c612c77565b5b60200260200101819052508280610f8390612bd0565b9350505b8080610f9290612bd0565b915050610e48565b508094505050505090565b6000806000806000600b60003373ffffffffffffffffffffffffffffffffffffffff1673ffffffffffffffffffffffffffffffffffffffff16815260200190815260200160002060050154905060005b8181101561124157600b60003373ffffffffffffffffffffffffffffffffffffffff1673ffffffffffffffffffffffffffffffffffffffff168152602001908152602001600020600001600082815260200190815260200160002060050160009054906101000a900460ff166110ce57600b60003373ffffffffffffffffffffffffffffffffffffffff1673ffffffffffffffffffffffffffffffffffffffff168152602001908152602001600020600001600082815260200190815260200160002060020154426110c79190612b54565b9350611189565b600b60003373ffffffffffffffffffffffffffffffffffffffff1673ffffffffffffffffffffffffffffffffffffffff168152602001908152602001600020600001600082815260200190815260200160002060020154600b60003373ffffffffffffffffffffffffffffffffffffffff1673ffffffffffffffffffffffffffffffffffffffff1681526020019081526020016000206000016000838152602001908152602001600020600401546111869190612b54565b93505b603c846111969190612ac9565b9350600084111561122e57600754600454600b60003373ffffffffffffffffffffffffffffffffffffffff1673ffffffffffffffffffffffffffffffffffffffff1681526020019081526020016000206000016000848152602001908152602001600020600001546112089190612afa565b6112129190612ac9565b925082846112209190612afa565b8561122b9190612a73565b94505b808061123990612bd0565b915050610ff5565b50600b60003373ffffffffffffffffffffffffffffffffffffffff1673ffffffffffffffffffffffffffffffffffffffff16815260200190815260200160002060070154846112909190612b54565b93508394505050505090565b8260068190555083600581905550816004819055508060078190555050505050565b8060068190555050565b60085481565b600080600b60003373ffffffffffffffffffffffffffffffffffffffff1673ffffffffffffffffffffffffffffffffffffffff1681526020019081526020016000206006015411611354576040517f08c379a000000000000000000000000000000000000000000000000000000000815260040161134b9061291c565b60405180910390fd5b6000600b60003373ffffffffffffffffffffffffffffffffffffffff1673ffffffffffffffffffffffffffffffffffffffff1681526020019081526020016000206006015490506000600b60003373ffffffffffffffffffffffffffffffffffffffff1673ffffffffffffffffffffffffffffffffffffffff1681526020019081526020016000206005015490506000600a54905060008042600b60003373ffffffffffffffffffffffffffffffffffffffff1673ffffffffffffffffffffffffffffffffffffffff168152602001908152602001600020600901541115611616576064601e866114459190612afa565b61144f9190612ac9565b91506046808661145f9190612afa565b6114699190612ac9565b9050600160009054906101000a900473ffffffffffffffffffffffffffffffffffffffff1673ffffffffffffffffffffffffffffffffffffffff1663a9059cbb33670de0b6b3a7640000856114be9190612afa565b6040518363ffffffff1660e01b81526004016114db929190612803565b602060405180830381600087803b1580156114f557600080fd5b505af1158015611509573d6000803e3d6000fd5b505050506040513d601f19601f8201168201806040525081019061152d91906123ad565b50600160009054906101000a900473ffffffffffffffffffffffffffffffffffffffff1673ffffffffffffffffffffffffffffffffffffffff1663a9059cbb60008054906101000a900473ffffffffffffffffffffffffffffffffffffffff16670de0b6b3a7640000846115a19190612afa565b6040518363ffffffff1660e01b81526004016115be929190612803565b602060405180830381600087803b1580156115d857600080fd5b505af11580156115ec573d6000803e3d6000fd5b505050506040513d601f19601f8201168201806040525081019061161091906123ad565b506116da565b600160009054906101000a900473ffffffffffffffffffffffffffffffffffffffff1673ffffffffffffffffffffffffffffffffffffffff1663a9059cbb33670de0b6b3a7640000886116699190612afa565b6040518363ffffffff1660e01b8152600401611686929190612803565b602060405180830381600087803b1580156116a057600080fd5b505af11580156116b4573d6000803e3d6000fd5b505050506040513d601f19601f820116820180604052508101906116d891906123ad565b505b600092505b838310156117c4576001600b60003373ffffffffffffffffffffffffffffffffffffffff1673ffffffffffffffffffffffffffffffffffffffff168152602001908152602001600020600001600085815260200190815260200160002060050160006101000a81548160ff02191690831515021790555042600b60003373ffffffffffffffffffffffffffffffffffffffff1673ffffffffffffffffffffffffffffffffffffffff16815260200190815260200160002060000160008581526020019081526020016000206004018190555082806117bc90612bd0565b9350506116df565b600b60003373ffffffffffffffffffffffffffffffffffffffff1673ffffffffffffffffffffffffffffffffffffffff16815260200190815260200160002060050154600a819055506000600b60003373ffffffffffffffffffffffffffffffffffffffff1673ffffffffffffffffffffffffffffffffffffffff1681526020019081526020016000206006018190555060019550505050505090565b60008054906101000a900473ffffffffffffffffffffffffffffffffffffffff1681565b6000600b60003373ffffffffffffffffffffffffffffffffffffffff1673ffffffffffffffffffffffffffffffffffffffff16815260200190815260200160002060060154905090565b60075481565b81600481905550806007819055505050565b60606000601467ffffffffffffffff81111561190657611905612ca6565b5b6040519080825280602002602001820160405280156119345781602001602082028036833780820191505090505b50905060005b6014811015611a52576000600b60003373ffffffffffffffffffffffffffffffffffffffff1673ffffffffffffffffffffffffffffffffffffffff1681526020019081526020016000206003016000838152602001908152602001600020600001541115611a1d57600b60003373ffffffffffffffffffffffffffffffffffffffff1673ffffffffffffffffffffffffffffffffffffffff168152602001908152602001600020600301600082815260200190815260200160002060000154828281518110611a0c57611a0b612c77565b5b602002602001018181525050611a3f565b6000828281518110611a3257611a31612c77565b5b6020026020010181815250505b8080611a4a90612bd0565b91505061193a565b508091505090565b60055481565b600080611a6b610fa5565b905060008111611ab0576040517f08c379a0000000000000000000000000000000000000000000000000000000008152600401611aa79061295c565b60405180910390fd5b600260009054906101000a900473ffffffffffffffffffffffffffffffffffffffff1673ffffffffffffffffffffffffffffffffffffffff1663a9059cbb33836040518363ffffffff1660e01b8152600401611b0d929190612803565b602060405180830381600087803b158015611b2757600080fd5b505af1158015611b3b573d6000803e3d6000fd5b505050506040513d601f19601f82011682018060405250810190611b5f91906123ad565b5080600b60003373ffffffffffffffffffffffffffffffffffffffff1673ffffffffffffffffffffffffffffffffffffffff1681526020019081526020016000206007016000828254611bb29190612a73565b92505081905550600191505090565b600b6020528060005260406000206000915090508060020160009054906101000a900473ffffffffffffffffffffffffffffffffffffffff16908060040154908060050154908060060154908060070154908060080160009054906101000a900460ff16908060090154905087565b60095481565b60008054906101000a900473ffffffffffffffffffffffffffffffffffffffff1673ffffffffffffffffffffffffffffffffffffffff163373ffffffffffffffffffffffffffffffffffffffff1614611cc4576040517f08c379a0000000000000000000000000000000000000000000000000000000008152600401611cbb9061297c565b60405180910390fd5b806000806101000a81548173ffffffffffffffffffffffffffffffffffffffff021916908373ffffffffffffffffffffffffffffffffffffffff16021790555050565b60606000601467ffffffffffffffff811115611d2657611d25612ca6565b5b604051908082528060200260200182016040528015611d545781602001602082028036833780820191505090505b50905060005b6014811015611e72576000600b60003373ffffffffffffffffffffffffffffffffffffffff1673ffffffffffffffffffffffffffffffffffffffff1681526020019081526020016000206003016000838152602001908152602001600020600001541115611e3d57600b60003373ffffffffffffffffffffffffffffffffffffffff1673ffffffffffffffffffffffffffffffffffffffff168152602001908152602001600020600301600082815260200190815260200160002060010154828281518110611e2c57611e2b612c77565b5b602002602001018181525050611e5f565b6000828281518110611e5257611e51612c77565b5b6020026020010181815250505b8080611e6a90612bd0565b915050611d5a565b508091505090565b60045481565b60065481565b60008290506000600567ffffffffffffffff811115611ea857611ea7612ca6565b5b604051908082528060200260200182016040528015611ed65781602001602082028036833780820191505090505b509050600581600081518110611eef57611eee612c77565b5b602002602001018181525050600381600181518110611f1157611f10612c77565b5b602002602001018181525050600281600281518110611f3357611f32612c77565b5b602002602001018181525050600181600381518110611f5557611f54612c77565b5b602002602001018181525050600181600481518110611f7757611f76612c77565b5b6020026020010181815250506000670de0b6b3a764000084611f999190612afa565b935060005b600a811015612301576000811415611fb95760009150612001565b6001811415611fcb5760019150612000565b6002811415611fdd5760029150611fff565b6002811115611fef5760039150611ffe565b6007811115611ffd57600491505b5b5b5b5b600073ffffffffffffffffffffffffffffffffffffffff16600b60008673ffffffffffffffffffffffffffffffffffffffff1673ffffffffffffffffffffffffffffffffffffffff16815260200190815260200160002060020160009054906101000a900473ffffffffffffffffffffffffffffffffffffffff1673ffffffffffffffffffffffffffffffffffffffff16146122e957600b60008573ffffffffffffffffffffffffffffffffffffffff1673ffffffffffffffffffffffffffffffffffffffff16815260200190815260200160002060020160009054906101000a900473ffffffffffffffffffffffffffffffffffffffff16935060006064866305f5e10086868151811061211957612118612c77565b5b602002602001015161212b9190612afa565b6121359190612afa565b61213f9190612ac9565b9050600483141561215a576002816121579190612ac9565b90505b600160009054906101000a900473ffffffffffffffffffffffffffffffffffffffff1673ffffffffffffffffffffffffffffffffffffffff1663a9059cbb86836040518363ffffffff1660e01b81526004016121b7929190612803565b602060405180830381600087803b1580156121d157600080fd5b505af11580156121e5573d6000803e3d6000fd5b505050506040513d601f19601f8201168201806040525081019061220991906123ad565b5080600b60008773ffffffffffffffffffffffffffffffffffffffff1673ffffffffffffffffffffffffffffffffffffffff168152602001908152602001600020600301600084815260200190815260200160002060000160008282546122709190612a73565b92505081905550600b60008673ffffffffffffffffffffffffffffffffffffffff1673ffffffffffffffffffffffffffffffffffffffff168152602001908152602001600020600301600083815260200190815260200160002060010160008154809291906122de90612bd0565b9190505550506122ee565b612301565b80806122f990612bd0565b915050611f9e565b505050505050565b6040518060c0016040528060008152602001600081526020016000815260200160008152602001600081526020016000151581525090565b60008135905061235081612e16565b92915050565b60008151905061236581612e2d565b92915050565b60008135905061237a81612e44565b92915050565b60006020828403121561239657612395612cd5565b5b60006123a484828501612341565b91505092915050565b6000602082840312156123c3576123c2612cd5565b5b60006123d184828501612356565b91505092915050565b6000602082840312156123f0576123ef612cd5565b5b60006123fe8482850161236b565b91505092915050565b6000806040838503121561241e5761241d612cd5565b5b600061242c8582860161236b565b925050602061243d85828601612341565b9150509250929050565b6000806040838503121561245e5761245d612cd5565b5b600061246c8582860161236b565b925050602061247d8582860161236b565b9150509250929050565b600080600080608085870312156124a1576124a0612cd5565b5b60006124af8782880161236b565b94505060206124c08782880161236b565b93505060406124d18782880161236b565b92505060606124e28782880161236b565b91505092959194509250565b60006124fa8383612536565b60208301905092915050565b60006125128383612718565b60c08301905092915050565b600061252a8383612793565b60208301905092915050565b61253f81612b88565b82525050565b61254e81612b88565b82525050565b600061255f826129e7565b6125698185612a2f565b9350612574836129b7565b8060005b838110156125a557815161258c88826124ee565b975061259783612a08565b925050600181019050612578565b5085935050505092915050565b60006125bd826129f2565b6125c78185612a40565b93506125d2836129c7565b8060005b838110156126035781516125ea8882612506565b97506125f583612a15565b9250506001810190506125d6565b5085935050505092915050565b600061261b826129fd565b6126258185612a51565b9350612630836129d7565b8060005b83811015612661578151612648888261251e565b975061265383612a22565b925050600181019050612634565b5085935050505092915050565b61267781612b9a565b82525050565b61268681612b9a565b82525050565b6000612699602583612a62565b91506126a482612cda565b604082019050919050565b60006126bc603583612a62565b91506126c782612d29565b604082019050919050565b60006126df602283612a62565b91506126ea82612d78565b604082019050919050565b6000612702602183612a62565b915061270d82612dc7565b604082019050919050565b60c08201600082015161272e6000850182612793565b5060208201516127416020850182612793565b5060408201516127546040850182612793565b5060608201516127676060850182612793565b50608082015161277a6080850182612793565b5060a082015161278d60a085018261266e565b50505050565b61279c81612bc6565b82525050565b6127ab81612bc6565b82525050565b60006020820190506127c66000830184612545565b92915050565b60006060820190506127e16000830186612545565b6127ee6020830185612545565b6127fb60408301846127a2565b949350505050565b60006040820190506128186000830185612545565b61282560208301846127a2565b9392505050565b600060e082019050612841600083018a612545565b61284e60208301896127a2565b61285b60408301886127a2565b61286860608301876127a2565b61287560808301866127a2565b61288260a083018561267d565b61288f60c08301846127a2565b98975050505050505050565b600060208201905081810360008301526128b58184612554565b905092915050565b600060208201905081810360008301526128d781846125b2565b905092915050565b600060208201905081810360008301526128f98184612610565b905092915050565b6000602082019050612916600083018461267d565b92915050565b600060208201905081810360008301526129358161268c565b9050919050565b60006020820190508181036000830152612955816126af565b9050919050565b60006020820190508181036000830152612975816126d2565b9050919050565b60006020820190508181036000830152612995816126f5565b9050919050565b60006020820190506129b160008301846127a2565b92915050565b6000819050602082019050919050565b6000819050602082019050919050565b6000819050602082019050919050565b600081519050919050565b600081519050919050565b600081519050919050565b6000602082019050919050565b6000602082019050919050565b6000602082019050919050565b600082825260208201905092915050565b600082825260208201905092915050565b600082825260208201905092915050565b600082825260208201905092915050565b6000612a7e82612bc6565b9150612a8983612bc6565b9250827fffffffffffffffffffffffffffffffffffffffffffffffffffffffffffffffff03821115612abe57612abd612c19565b5b828201905092915050565b6000612ad482612bc6565b9150612adf83612bc6565b925082612aef57612aee612c48565b5b828204905092915050565b6000612b0582612bc6565b9150612b1083612bc6565b9250817fffffffffffffffffffffffffffffffffffffffffffffffffffffffffffffffff0483118215151615612b4957612b48612c19565b5b828202905092915050565b6000612b5f82612bc6565b9150612b6a83612bc6565b925082821015612b7d57612b7c612c19565b5b828203905092915050565b6000612b9382612ba6565b9050919050565b60008115159050919050565b600073ffffffffffffffffffffffffffffffffffffffff82169050919050565b6000819050919050565b6000612bdb82612bc6565b91507fffffffffffffffffffffffffffffffffffffffffffffffffffffffffffffffff821415612c0e57612c0d612c19565b5b600182019050919050565b7f4e487b7100000000000000000000000000000000000000000000000000000000600052601160045260246000fd5b7f4e487b7100000000000000000000000000000000000000000000000000000000600052601260045260246000fd5b7f4e487b7100000000000000000000000000000000000000000000000000000000600052603260045260246000fd5b7f4e487b7100000000000000000000000000000000000000000000000000000000600052604160045260246000fd5b600080fd5b7f796f7520646f6e74206861766520696e766573746d656e7420746f207769746860008201527f647261776e000000000000000000000000000000000000000000000000000000602082015250565b7f76616c7565206973206e6f742067726561746572207468616e2031303030302060008201527f616e64206c657373207468616e20353030303030300000000000000000000000602082015250565b7f796f7520646f6e742068617665207265776172647320746f207769746864726160008201527f776e000000000000000000000000000000000000000000000000000000000000602082015250565b7f6f6e6c79204f776e65722063616e2063616c6c20746869732066756e6374696f60008201527f6e00000000000000000000000000000000000000000000000000000000000000602082015250565b612e1f81612b88565b8114612e2a57600080fd5b50565b612e3681612b9a565b8114612e4157600080fd5b50565b612e4d81612bc6565b8114612e5857600080fd5b5056fea2646970667358221220c9c947a3311e026b855e40f3f916a08599ebb27e540806f196d8e9dab736d05864736f6c63430008070033",
					"opcodes": "PUSH1 0x80 PUSH1 0x40 MSTORE PUSH20 0x735F6E949D39F02BAD26D1698A558A629D416265 PUSH1 0x1 PUSH1 0x0 PUSH2 0x100 EXP DUP2 SLOAD DUP2 PUSH20 0xFFFFFFFFFFFFFFFFFFFFFFFFFFFFFFFFFFFFFFFF MUL NOT AND SWAP1 DUP4 PUSH20 0xFFFFFFFFFFFFFFFFFFFFFFFFFFFFFFFFFFFFFFFF AND MUL OR SWAP1 SSTORE POP PUSH20 0x63C0F4F599EFCFD747DDEA897117B5293E139BCD PUSH1 0x2 PUSH1 0x0 PUSH2 0x100 EXP DUP2 SLOAD DUP2 PUSH20 0xFFFFFFFFFFFFFFFFFFFFFFFFFFFFFFFFFFFFFFFF MUL NOT AND SWAP1 DUP4 PUSH20 0xFFFFFFFFFFFFFFFFFFFFFFFFFFFFFFFFFFFFFFFF AND MUL OR SWAP1 SSTORE POP PUSH8 0x4563918244F40000 PUSH1 0x4 SSTORE PUSH2 0x2710 PUSH1 0x5 SSTORE PUSH3 0x4C4B40 PUSH1 0x6 SSTORE PUSH3 0x186A0 PUSH1 0x7 SSTORE PUSH4 0x18B8200 PUSH1 0x8 SSTORE CALLVALUE DUP1 ISZERO PUSH2 0xE2 JUMPI PUSH1 0x0 DUP1 REVERT JUMPDEST POP CALLER PUSH1 0x0 DUP1 PUSH2 0x100 EXP DUP2 SLOAD DUP2 PUSH20 0xFFFFFFFFFFFFFFFFFFFFFFFFFFFFFFFFFFFFFFFF MUL NOT AND SWAP1 DUP4 PUSH20 0xFFFFFFFFFFFFFFFFFFFFFFFFFFFFFFFFFFFFFFFF AND MUL OR SWAP1 SSTORE POP PUSH2 0x2E91 DUP1 PUSH2 0x132 PUSH1 0x0 CODECOPY PUSH1 0x0 RETURN INVALID PUSH1 0x80 PUSH1 0x40 MSTORE CALLVALUE DUP1 ISZERO PUSH2 0x10 JUMPI PUSH1 0x0 DUP1 REVERT JUMPDEST POP PUSH1 0x4 CALLDATASIZE LT PUSH2 0x158 JUMPI PUSH1 0x0 CALLDATALOAD PUSH1 0xE0 SHR DUP1 PUSH4 0x929F6BBE GT PUSH2 0xC3 JUMPI DUP1 PUSH4 0xD3560EE8 GT PUSH2 0x7C JUMPI DUP1 PUSH4 0xD3560EE8 EQ PUSH2 0x383 JUMPI DUP1 PUSH4 0xE2033FCB EQ PUSH2 0x3B9 JUMPI DUP1 PUSH4 0xF2FDE38B EQ PUSH2 0x3D7 JUMPI DUP1 PUSH4 0xF790B81A EQ PUSH2 0x3F3 JUMPI DUP1 PUSH4 0xF7C618C1 EQ PUSH2 0x411 JUMPI DUP1 PUSH4 0xFAE730BC EQ PUSH2 0x42F JUMPI PUSH2 0x158 JUMP JUMPDEST DUP1 PUSH4 0x929F6BBE EQ PUSH2 0x2D1 JUMPI DUP1 PUSH4 0x9740A1BC EQ PUSH2 0x2EF JUMPI DUP1 PUSH4 0xA47BD496 EQ PUSH2 0x30D JUMPI DUP1 PUSH4 0xA61BE99D EQ PUSH2 0x329 JUMPI DUP1 PUSH4 0xBC67EAFF EQ PUSH2 0x347 JUMPI DUP1 PUSH4 0xC885BC58 EQ PUSH2 0x365 JUMPI PUSH2 0x158 JUMP JUMPDEST DUP1 PUSH4 0x3D18B912 GT PUSH2 0x115 JUMPI DUP1 PUSH4 0x3D18B912 EQ PUSH2 0x221 JUMPI DUP1 PUSH4 0x4EB1ECC9 EQ PUSH2 0x23F JUMPI DUP1 PUSH4 0x500CB85F EQ PUSH2 0x25B JUMPI DUP1 PUSH4 0x523CDDFE EQ PUSH2 0x277 JUMPI DUP1 PUSH4 0x73CF575A EQ PUSH2 0x295 JUMPI DUP1 PUSH4 0x8DA5CB5B EQ PUSH2 0x2B3 JUMPI PUSH2 0x158 JUMP JUMPDEST DUP1 PUSH4 0xC5F58F4 EQ PUSH2 0x15D JUMPI DUP1 PUSH4 0x10CDE60A EQ PUSH2 0x17B JUMPI DUP1 PUSH4 0x1E8ABA35 EQ PUSH2 0x199 JUMPI DUP1 PUSH4 0x2BCCDCE6 EQ PUSH2 0x1B7 JUMPI DUP1 PUSH4 0x32D4E783 EQ PUSH2 0x1E7 JUMPI DUP1 PUSH4 0x3A1E0833 EQ PUSH2 0x203 JUMPI JUMPDEST PUSH1 0x0 DUP1 REVERT JUMPDEST PUSH2 0x165 PUSH2 0x44D JUMP JUMPDEST PUSH1 0x40 MLOAD PUSH2 0x172 SWAP2 SWAP1 PUSH2 0x289B JUMP JUMPDEST PUSH1 0x40 MLOAD DUP1 SWAP2 SUB SWAP1 RETURN JUMPDEST PUSH2 0x183 PUSH2 0x51B JUMP JUMPDEST PUSH1 0x40 MLOAD PUSH2 0x190 SWAP2 SWAP1 PUSH2 0x299C JUMP JUMPDEST PUSH1 0x40 MLOAD DUP1 SWAP2 SUB SWAP1 RETURN JUMPDEST PUSH2 0x1A1 PUSH2 0x521 JUMP JUMPDEST PUSH1 0x40 MLOAD PUSH2 0x1AE SWAP2 SWAP1 PUSH2 0x299C JUMP JUMPDEST PUSH1 0x40 MLOAD DUP1 SWAP2 SUB SWAP1 RETURN JUMPDEST PUSH2 0x1D1 PUSH1 0x4 DUP1 CALLDATASIZE SUB DUP2 ADD SWAP1 PUSH2 0x1CC SWAP2 SWAP1 PUSH2 0x2407 JUMP JUMPDEST PUSH2 0x56E JUMP JUMPDEST PUSH1 0x40 MLOAD PUSH2 0x1DE SWAP2 SWAP1 PUSH2 0x2901 JUMP JUMPDEST PUSH1 0x40 MLOAD DUP1 SWAP2 SUB SWAP1 RETURN JUMPDEST PUSH2 0x201 PUSH1 0x4 DUP1 CALLDATASIZE SUB DUP2 ADD SWAP1 PUSH2 0x1FC SWAP2 SWAP1 PUSH2 0x23DA JUMP JUMPDEST PUSH2 0xD0A JUMP JUMPDEST STOP JUMPDEST PUSH2 0x20B PUSH2 0xD14 JUMP JUMPDEST PUSH1 0x40 MLOAD PUSH2 0x218 SWAP2 SWAP1 PUSH2 0x28BD JUMP JUMPDEST PUSH1 0x40 MLOAD DUP1 SWAP2 SUB SWAP1 RETURN JUMPDEST PUSH2 0x229 PUSH2 0xFA5 JUMP JUMPDEST PUSH1 0x40 MLOAD PUSH2 0x236 SWAP2 SWAP1 PUSH2 0x299C JUMP JUMPDEST PUSH1 0x40 MLOAD DUP1 SWAP2 SUB SWAP1 RETURN JUMPDEST PUSH2 0x259 PUSH1 0x4 DUP1 CALLDATASIZE SUB DUP2 ADD SWAP1 PUSH2 0x254 SWAP2 SWAP1 PUSH2 0x2487 JUMP JUMPDEST PUSH2 0x129C JUMP JUMPDEST STOP JUMPDEST PUSH2 0x275 PUSH1 0x4 DUP1 CALLDATASIZE SUB DUP2 ADD SWAP1 PUSH2 0x270 SWAP2 SWAP1 PUSH2 0x23DA JUMP JUMPDEST PUSH2 0x12BE JUMP JUMPDEST STOP JUMPDEST PUSH2 0x27F PUSH2 0x12C8 JUMP JUMPDEST PUSH1 0x40 MLOAD PUSH2 0x28C SWAP2 SWAP1 PUSH2 0x299C JUMP JUMPDEST PUSH1 0x40 MLOAD DUP1 SWAP2 SUB SWAP1 RETURN JUMPDEST PUSH2 0x29D PUSH2 0x12CE JUMP JUMPDEST PUSH1 0x40 MLOAD PUSH2 0x2AA SWAP2 SWAP1 PUSH2 0x2901 JUMP JUMPDEST PUSH1 0x40 MLOAD DUP1 SWAP2 SUB SWAP1 RETURN JUMPDEST PUSH2 0x2BB PUSH2 0x1861 JUMP JUMPDEST PUSH1 0x40 MLOAD PUSH2 0x2C8 SWAP2 SWAP1 PUSH2 0x27B1 JUMP JUMPDEST PUSH1 0x40 MLOAD DUP1 SWAP2 SUB SWAP1 RETURN JUMPDEST PUSH2 0x2D9 PUSH2 0x1885 JUMP JUMPDEST PUSH1 0x40 MLOAD PUSH2 0x2E6 SWAP2 SWAP1 PUSH2 0x299C JUMP JUMPDEST PUSH1 0x40 MLOAD DUP1 SWAP2 SUB SWAP1 RETURN JUMPDEST PUSH2 0x2F7 PUSH2 0x18CF JUMP JUMPDEST PUSH1 0x40 MLOAD PUSH2 0x304 SWAP2 SWAP1 PUSH2 0x299C JUMP JUMPDEST PUSH1 0x40 MLOAD DUP1 SWAP2 SUB SWAP1 RETURN JUMPDEST PUSH2 0x327 PUSH1 0x4 DUP1 CALLDATASIZE SUB DUP2 ADD SWAP1 PUSH2 0x322 SWAP2 SWAP1 PUSH2 0x2447 JUMP JUMPDEST PUSH2 0x18D5 JUMP JUMPDEST STOP JUMPDEST PUSH2 0x331 PUSH2 0x18E7 JUMP JUMPDEST PUSH1 0x40 MLOAD PUSH2 0x33E SWAP2 SWAP1 PUSH2 0x28DF JUMP JUMPDEST PUSH1 0x40 MLOAD DUP1 SWAP2 SUB SWAP1 RETURN JUMPDEST PUSH2 0x34F PUSH2 0x1A5A JUMP JUMPDEST PUSH1 0x40 MLOAD PUSH2 0x35C SWAP2 SWAP1 PUSH2 0x299C JUMP JUMPDEST PUSH1 0x40 MLOAD DUP1 SWAP2 SUB SWAP1 RETURN JUMPDEST PUSH2 0x36D PUSH2 0x1A60 JUMP JUMPDEST PUSH1 0x40 MLOAD PUSH2 0x37A SWAP2 SWAP1 PUSH2 0x2901 JUMP JUMPDEST PUSH1 0x40 MLOAD DUP1 SWAP2 SUB SWAP1 RETURN JUMPDEST PUSH2 0x39D PUSH1 0x4 DUP1 CALLDATASIZE SUB DUP2 ADD SWAP1 PUSH2 0x398 SWAP2 SWAP1 PUSH2 0x2380 JUMP JUMPDEST PUSH2 0x1BC1 JUMP JUMPDEST PUSH1 0x40 MLOAD PUSH2 0x3B0 SWAP8 SWAP7 SWAP6 SWAP5 SWAP4 SWAP3 SWAP2 SWAP1 PUSH2 0x282C JUMP JUMPDEST PUSH1 0x40 MLOAD DUP1 SWAP2 SUB SWAP1 RETURN JUMPDEST PUSH2 0x3C1 PUSH2 0x1C30 JUMP JUMPDEST PUSH1 0x40 MLOAD PUSH2 0x3CE SWAP2 SWAP1 PUSH2 0x299C JUMP JUMPDEST PUSH1 0x40 MLOAD DUP1 SWAP2 SUB SWAP1 RETURN JUMPDEST PUSH2 0x3F1 PUSH1 0x4 DUP1 CALLDATASIZE SUB DUP2 ADD SWAP1 PUSH2 0x3EC SWAP2 SWAP1 PUSH2 0x2380 JUMP JUMPDEST PUSH2 0x1C36 JUMP JUMPDEST STOP JUMPDEST PUSH2 0x3FB PUSH2 0x1D07 JUMP JUMPDEST PUSH1 0x40 MLOAD PUSH2 0x408 SWAP2 SWAP1 PUSH2 0x28DF JUMP JUMPDEST PUSH1 0x40 MLOAD DUP1 SWAP2 SUB SWAP1 RETURN JUMPDEST PUSH2 0x419 PUSH2 0x1E7A JUMP JUMPDEST PUSH1 0x40 MLOAD PUSH2 0x426 SWAP2 SWAP1 PUSH2 0x299C JUMP JUMPDEST PUSH1 0x40 MLOAD DUP1 SWAP2 SUB SWAP1 RETURN JUMPDEST PUSH2 0x437 PUSH2 0x1E80 JUMP JUMPDEST PUSH1 0x40 MLOAD PUSH2 0x444 SWAP2 SWAP1 PUSH2 0x299C JUMP JUMPDEST PUSH1 0x40 MLOAD DUP1 SWAP2 SUB SWAP1 RETURN JUMPDEST PUSH1 0x60 PUSH1 0xB PUSH1 0x0 CALLER PUSH20 0xFFFFFFFFFFFFFFFFFFFFFFFFFFFFFFFFFFFFFFFF AND PUSH20 0xFFFFFFFFFFFFFFFFFFFFFFFFFFFFFFFFFFFFFFFF AND DUP2 MSTORE PUSH1 0x20 ADD SWAP1 DUP2 MSTORE PUSH1 0x20 ADD PUSH1 0x0 KECCAK256 PUSH1 0x1 ADD DUP1 SLOAD DUP1 PUSH1 0x20 MUL PUSH1 0x20 ADD PUSH1 0x40 MLOAD SWAP1 DUP2 ADD PUSH1 0x40 MSTORE DUP1 SWAP3 SWAP2 SWAP1 DUP2 DUP2 MSTORE PUSH1 0x20 ADD DUP3 DUP1 SLOAD DUP1 ISZERO PUSH2 0x511 JUMPI PUSH1 0x20 MUL DUP3 ADD SWAP2 SWAP1 PUSH1 0x0 MSTORE PUSH1 0x20 PUSH1 0x0 KECCAK256 SWAP1 JUMPDEST DUP2 PUSH1 0x0 SWAP1 SLOAD SWAP1 PUSH2 0x100 EXP SWAP1 DIV PUSH20 0xFFFFFFFFFFFFFFFFFFFFFFFFFFFFFFFFFFFFFFFF AND PUSH20 0xFFFFFFFFFFFFFFFFFFFFFFFFFFFFFFFFFFFFFFFF AND DUP2 MSTORE PUSH1 0x20 ADD SWAP1 PUSH1 0x1 ADD SWAP1 DUP1 DUP4 GT PUSH2 0x4C7 JUMPI JUMPDEST POP POP POP POP POP SWAP1 POP SWAP1 JUMP JUMPDEST PUSH1 0x3 SLOAD DUP2 JUMP JUMPDEST PUSH1 0x0 PUSH1 0xB PUSH1 0x0 CALLER PUSH20 0xFFFFFFFFFFFFFFFFFFFFFFFFFFFFFFFFFFFFFFFF AND PUSH20 0xFFFFFFFFFFFFFFFFFFFFFFFFFFFFFFFFFFFFFFFF AND DUP2 MSTORE PUSH1 0x20 ADD SWAP1 DUP2 MSTORE PUSH1 0x20 ADD PUSH1 0x0 KECCAK256 PUSH1 0x1 ADD DUP1 SLOAD SWAP1 POP SWAP1 POP SWAP1 JUMP JUMPDEST PUSH1 0x0 PUSH1 0x5 SLOAD DUP4 LT ISZERO DUP1 ISZERO PUSH2 0x584 JUMPI POP PUSH1 0x6 SLOAD DUP4 GT ISZERO JUMPDEST PUSH2 0x5C3 JUMPI PUSH1 0x40 MLOAD PUSH32 0x8C379A000000000000000000000000000000000000000000000000000000000 DUP2 MSTORE PUSH1 0x4 ADD PUSH2 0x5BA SWAP1 PUSH2 0x293C JUMP JUMPDEST PUSH1 0x40 MLOAD DUP1 SWAP2 SUB SWAP1 REVERT JUMPDEST PUSH1 0x0 ISZERO ISZERO PUSH1 0xB PUSH1 0x0 CALLER PUSH20 0xFFFFFFFFFFFFFFFFFFFFFFFFFFFFFFFFFFFFFFFF AND PUSH20 0xFFFFFFFFFFFFFFFFFFFFFFFFFFFFFFFFFFFFFFFF AND DUP2 MSTORE PUSH1 0x20 ADD SWAP1 DUP2 MSTORE PUSH1 0x20 ADD PUSH1 0x0 KECCAK256 PUSH1 0x8 ADD PUSH1 0x0 SWAP1 SLOAD SWAP1 PUSH2 0x100 EXP SWAP1 DIV PUSH1 0xFF AND ISZERO ISZERO EQ ISZERO PUSH2 0x638 JUMPI PUSH1 0x3 PUSH1 0x0 DUP2 SLOAD DUP1 SWAP3 SWAP2 SWAP1 PUSH2 0x632 SWAP1 PUSH2 0x2BD0 JUMP JUMPDEST SWAP2 SWAP1 POP SSTORE POP JUMPDEST PUSH1 0x0 PUSH1 0xB PUSH1 0x0 CALLER PUSH20 0xFFFFFFFFFFFFFFFFFFFFFFFFFFFFFFFFFFFFFFFF AND PUSH20 0xFFFFFFFFFFFFFFFFFFFFFFFFFFFFFFFFFFFFFFFF AND DUP2 MSTORE PUSH1 0x20 ADD SWAP1 DUP2 MSTORE PUSH1 0x20 ADD PUSH1 0x0 KECCAK256 PUSH1 0x6 ADD SLOAD EQ ISZERO PUSH2 0x6DA JUMPI PUSH4 0x18B8200 TIMESTAMP PUSH2 0x693 SWAP2 SWAP1 PUSH2 0x2A73 JUMP JUMPDEST PUSH1 0xB PUSH1 0x0 CALLER PUSH20 0xFFFFFFFFFFFFFFFFFFFFFFFFFFFFFFFFFFFFFFFF AND PUSH20 0xFFFFFFFFFFFFFFFFFFFFFFFFFFFFFFFFFFFFFFFF AND DUP2 MSTORE PUSH1 0x20 ADD SWAP1 DUP2 MSTORE PUSH1 0x20 ADD PUSH1 0x0 KECCAK256 PUSH1 0x9 ADD DUP2 SWAP1 SSTORE POP JUMPDEST PUSH1 0x0 PUSH1 0xB PUSH1 0x0 CALLER PUSH20 0xFFFFFFFFFFFFFFFFFFFFFFFFFFFFFFFFFFFFFFFF AND PUSH20 0xFFFFFFFFFFFFFFFFFFFFFFFFFFFFFFFFFFFFFFFF AND DUP2 MSTORE PUSH1 0x20 ADD SWAP1 DUP2 MSTORE PUSH1 0x20 ADD PUSH1 0x0 KECCAK256 PUSH1 0x5 ADD SLOAD SWAP1 POP DUP4 PUSH1 0xB PUSH1 0x0 CALLER PUSH20 0xFFFFFFFFFFFFFFFFFFFFFFFFFFFFFFFFFFFFFFFF AND PUSH20 0xFFFFFFFFFFFFFFFFFFFFFFFFFFFFFFFFFFFFFFFF AND DUP2 MSTORE PUSH1 0x20 ADD SWAP1 DUP2 MSTORE PUSH1 0x20 ADD PUSH1 0x0 KECCAK256 PUSH1 0x0 ADD PUSH1 0x0 DUP4 DUP2 MSTORE PUSH1 0x20 ADD SWAP1 DUP2 MSTORE PUSH1 0x20 ADD PUSH1 0x0 KECCAK256 PUSH1 0x0 ADD DUP2 SWAP1 SSTORE POP TIMESTAMP PUSH1 0xB PUSH1 0x0 CALLER PUSH20 0xFFFFFFFFFFFFFFFFFFFFFFFFFFFFFFFFFFFFFFFF AND PUSH20 0xFFFFFFFFFFFFFFFFFFFFFFFFFFFFFFFFFFFFFFFF AND DUP2 MSTORE PUSH1 0x20 ADD SWAP1 DUP2 MSTORE PUSH1 0x20 ADD PUSH1 0x0 KECCAK256 PUSH1 0x0 ADD PUSH1 0x0 DUP4 DUP2 MSTORE PUSH1 0x20 ADD SWAP1 DUP2 MSTORE PUSH1 0x20 ADD PUSH1 0x0 KECCAK256 PUSH1 0x2 ADD DUP2 SWAP1 SSTORE POP PUSH1 0x8 SLOAD TIMESTAMP PUSH2 0x7E5 SWAP2 SWAP1 PUSH2 0x2A73 JUMP JUMPDEST PUSH1 0xB PUSH1 0x0 CALLER PUSH20 0xFFFFFFFFFFFFFFFFFFFFFFFFFFFFFFFFFFFFFFFF AND PUSH20 0xFFFFFFFFFFFFFFFFFFFFFFFFFFFFFFFFFFFFFFFF AND DUP2 MSTORE PUSH1 0x20 ADD SWAP1 DUP2 MSTORE PUSH1 0x20 ADD PUSH1 0x0 KECCAK256 PUSH1 0x0 ADD PUSH1 0x0 DUP4 DUP2 MSTORE PUSH1 0x20 ADD SWAP1 DUP2 MSTORE PUSH1 0x20 ADD PUSH1 0x0 KECCAK256 PUSH1 0x1 ADD DUP2 SWAP1 SSTORE POP DUP1 PUSH1 0xB PUSH1 0x0 CALLER PUSH20 0xFFFFFFFFFFFFFFFFFFFFFFFFFFFFFFFFFFFFFFFF AND PUSH20 0xFFFFFFFFFFFFFFFFFFFFFFFFFFFFFFFFFFFFFFFF AND DUP2 MSTORE PUSH1 0x20 ADD SWAP1 DUP2 MSTORE PUSH1 0x20 ADD PUSH1 0x0 KECCAK256 PUSH1 0x0 ADD PUSH1 0x0 DUP4 DUP2 MSTORE PUSH1 0x20 ADD SWAP1 DUP2 MSTORE PUSH1 0x20 ADD PUSH1 0x0 KECCAK256 PUSH1 0x3 ADD DUP2 SWAP1 SSTORE POP DUP4 PUSH1 0xB PUSH1 0x0 CALLER PUSH20 0xFFFFFFFFFFFFFFFFFFFFFFFFFFFFFFFFFFFFFFFF AND PUSH20 0xFFFFFFFFFFFFFFFFFFFFFFFFFFFFFFFFFFFFFFFF AND DUP2 MSTORE PUSH1 0x20 ADD SWAP1 DUP2 MSTORE PUSH1 0x20 ADD PUSH1 0x0 KECCAK256 PUSH1 0x6 ADD PUSH1 0x0 DUP3 DUP3 SLOAD PUSH2 0x8EC SWAP2 SWAP1 PUSH2 0x2A73 JUMP JUMPDEST SWAP3 POP POP DUP2 SWAP1 SSTORE POP PUSH1 0xB PUSH1 0x0 CALLER PUSH20 0xFFFFFFFFFFFFFFFFFFFFFFFFFFFFFFFFFFFFFFFF AND PUSH20 0xFFFFFFFFFFFFFFFFFFFFFFFFFFFFFFFFFFFFFFFF AND DUP2 MSTORE PUSH1 0x20 ADD SWAP1 DUP2 MSTORE PUSH1 0x20 ADD PUSH1 0x0 KECCAK256 PUSH1 0x5 ADD PUSH1 0x0 DUP2 SLOAD DUP1 SWAP3 SWAP2 SWAP1 PUSH2 0x946 SWAP1 PUSH2 0x2BD0 JUMP JUMPDEST SWAP2 SWAP1 POP SSTORE POP DUP4 PUSH1 0x9 PUSH1 0x0 DUP3 DUP3 SLOAD PUSH2 0x95D SWAP2 SWAP1 PUSH2 0x2A73 JUMP JUMPDEST SWAP3 POP POP DUP2 SWAP1 SSTORE POP PUSH1 0x1 PUSH1 0x0 SWAP1 SLOAD SWAP1 PUSH2 0x100 EXP SWAP1 DIV PUSH20 0xFFFFFFFFFFFFFFFFFFFFFFFFFFFFFFFFFFFFFFFF AND PUSH20 0xFFFFFFFFFFFFFFFFFFFFFFFFFFFFFFFFFFFFFFFF AND PUSH4 0x23B872DD CALLER ADDRESS PUSH4 0x5F5E100 DUP9 PUSH2 0x9B4 SWAP2 SWAP1 PUSH2 0x2AFA JUMP JUMPDEST PUSH1 0x40 MLOAD DUP5 PUSH4 0xFFFFFFFF AND PUSH1 0xE0 SHL DUP2 MSTORE PUSH1 0x4 ADD PUSH2 0x9D2 SWAP4 SWAP3 SWAP2 SWAP1 PUSH2 0x27CC JUMP JUMPDEST PUSH1 0x20 PUSH1 0x40 MLOAD DUP1 DUP4 SUB DUP2 PUSH1 0x0 DUP8 DUP1 EXTCODESIZE ISZERO DUP1 ISZERO PUSH2 0x9EC JUMPI PUSH1 0x0 DUP1 REVERT JUMPDEST POP GAS CALL ISZERO DUP1 ISZERO PUSH2 0xA00 JUMPI RETURNDATASIZE PUSH1 0x0 DUP1 RETURNDATACOPY RETURNDATASIZE PUSH1 0x0 REVERT JUMPDEST POP POP POP POP PUSH1 0x40 MLOAD RETURNDATASIZE PUSH1 0x1F NOT PUSH1 0x1F DUP3 ADD AND DUP3 ADD DUP1 PUSH1 0x40 MSTORE POP DUP2 ADD SWAP1 PUSH2 0xA24 SWAP2 SWAP1 PUSH2 0x23AD JUMP JUMPDEST POP PUSH1 0x0 PUSH20 0xFFFFFFFFFFFFFFFFFFFFFFFFFFFFFFFFFFFFFFFF AND DUP4 PUSH20 0xFFFFFFFFFFFFFFFFFFFFFFFFFFFFFFFFFFFFFFFF AND EQ DUP1 PUSH2 0xA8B JUMPI POP CALLER PUSH20 0xFFFFFFFFFFFFFFFFFFFFFFFFFFFFFFFFFFFFFFFF AND DUP4 PUSH20 0xFFFFFFFFFFFFFFFFFFFFFFFFFFFFFFFFFFFFFFFF AND EQ JUMPDEST DUP1 PUSH2 0xAE9 JUMPI POP PUSH1 0x1 ISZERO ISZERO PUSH1 0xB PUSH1 0x0 CALLER PUSH20 0xFFFFFFFFFFFFFFFFFFFFFFFFFFFFFFFFFFFFFFFF AND PUSH20 0xFFFFFFFFFFFFFFFFFFFFFFFFFFFFFFFFFFFFFFFF AND DUP2 MSTORE PUSH1 0x20 ADD SWAP1 DUP2 MSTORE PUSH1 0x20 ADD PUSH1 0x0 KECCAK256 PUSH1 0x8 ADD PUSH1 0x0 SWAP1 SLOAD SWAP1 PUSH2 0x100 EXP SWAP1 DIV PUSH1 0xFF AND ISZERO ISZERO EQ JUMPDEST ISZERO PUSH2 0xB75 JUMPI PUSH1 0x0 PUSH1 0xB PUSH1 0x0 CALLER PUSH20 0xFFFFFFFFFFFFFFFFFFFFFFFFFFFFFFFFFFFFFFFF AND PUSH20 0xFFFFFFFFFFFFFFFFFFFFFFFFFFFFFFFFFFFFFFFF AND DUP2 MSTORE PUSH1 0x20 ADD SWAP1 DUP2 MSTORE PUSH1 0x20 ADD PUSH1 0x0 KECCAK256 PUSH1 0x2 ADD PUSH1 0x0 PUSH2 0x100 EXP DUP2 SLOAD DUP2 PUSH20 0xFFFFFFFFFFFFFFFFFFFFFFFFFFFFFFFFFFFFFFFF MUL NOT AND SWAP1 DUP4 PUSH20 0xFFFFFFFFFFFFFFFFFFFFFFFFFFFFFFFFFFFFFFFF AND MUL OR SWAP1 SSTORE POP PUSH2 0xCA4 JUMP JUMPDEST DUP3 PUSH1 0xB PUSH1 0x0 CALLER PUSH20 0xFFFFFFFFFFFFFFFFFFFFFFFFFFFFFFFFFFFFFFFF AND PUSH20 0xFFFFFFFFFFFFFFFFFFFFFFFFFFFFFFFFFFFFFFFF AND DUP2 MSTORE PUSH1 0x20 ADD SWAP1 DUP2 MSTORE PUSH1 0x20 ADD PUSH1 0x0 KECCAK256 PUSH1 0x2 ADD PUSH1 0x0 PUSH2 0x100 EXP DUP2 SLOAD DUP2 PUSH20 0xFFFFFFFFFFFFFFFFFFFFFFFFFFFFFFFFFFFFFFFF MUL NOT AND SWAP1 DUP4 PUSH20 0xFFFFFFFFFFFFFFFFFFFFFFFFFFFFFFFFFFFFFFFF AND MUL OR SWAP1 SSTORE POP PUSH1 0xB PUSH1 0x0 DUP5 PUSH20 0xFFFFFFFFFFFFFFFFFFFFFFFFFFFFFFFFFFFFFFFF AND PUSH20 0xFFFFFFFFFFFFFFFFFFFFFFFFFFFFFFFFFFFFFFFF AND DUP2 MSTORE PUSH1 0x20 ADD SWAP1 DUP2 MSTORE PUSH1 0x20 ADD PUSH1 0x0 KECCAK256 PUSH1 0x1 ADD CALLER SWAP1 DUP1 PUSH1 0x1 DUP2 SLOAD ADD DUP1 DUP3 SSTORE DUP1 SWAP2 POP POP PUSH1 0x1 SWAP1 SUB SWAP1 PUSH1 0x0 MSTORE PUSH1 0x20 PUSH1 0x0 KECCAK256 ADD PUSH1 0x0 SWAP1 SWAP2 SWAP1 SWAP2 SWAP1 SWAP2 PUSH2 0x100 EXP DUP2 SLOAD DUP2 PUSH20 0xFFFFFFFFFFFFFFFFFFFFFFFFFFFFFFFFFFFFFFFF MUL NOT AND SWAP1 DUP4 PUSH20 0xFFFFFFFFFFFFFFFFFFFFFFFFFFFFFFFFFFFFFFFF AND MUL OR SWAP1 SSTORE POP PUSH2 0xCA3 CALLER DUP6 PUSH2 0x1E86 JUMP JUMPDEST JUMPDEST PUSH1 0x1 PUSH1 0xB PUSH1 0x0 CALLER PUSH20 0xFFFFFFFFFFFFFFFFFFFFFFFFFFFFFFFFFFFFFFFF AND PUSH20 0xFFFFFFFFFFFFFFFFFFFFFFFFFFFFFFFFFFFFFFFF AND DUP2 MSTORE PUSH1 0x20 ADD SWAP1 DUP2 MSTORE PUSH1 0x20 ADD PUSH1 0x0 KECCAK256 PUSH1 0x8 ADD PUSH1 0x0 PUSH2 0x100 EXP DUP2 SLOAD DUP2 PUSH1 0xFF MUL NOT AND SWAP1 DUP4 ISZERO ISZERO MUL OR SWAP1 SSTORE POP PUSH1 0x1 SWAP2 POP POP SWAP3 SWAP2 POP POP JUMP JUMPDEST DUP1 PUSH1 0x5 DUP2 SWAP1 SSTORE POP POP JUMP JUMPDEST PUSH1 0x60 PUSH1 0x0 PUSH1 0xB PUSH1 0x0 CALLER PUSH20 0xFFFFFFFFFFFFFFFFFFFFFFFFFFFFFFFFFFFFFFFF AND PUSH20 0xFFFFFFFFFFFFFFFFFFFFFFFFFFFFFFFFFFFFFFFF AND DUP2 MSTORE PUSH1 0x20 ADD SWAP1 DUP2 MSTORE PUSH1 0x20 ADD PUSH1 0x0 KECCAK256 PUSH1 0x5 ADD SLOAD SWAP1 POP PUSH1 0x0 DUP1 PUSH1 0x0 JUMPDEST DUP4 DUP2 LT ISZERO PUSH2 0xDEC JUMPI PUSH1 0x0 PUSH1 0xB PUSH1 0x0 CALLER PUSH20 0xFFFFFFFFFFFFFFFFFFFFFFFFFFFFFFFFFFFFFFFF AND PUSH20 0xFFFFFFFFFFFFFFFFFFFFFFFFFFFFFFFFFFFFFFFF AND DUP2 MSTORE PUSH1 0x20 ADD SWAP1 DUP2 MSTORE PUSH1 0x20 ADD PUSH1 0x0 KECCAK256 PUSH1 0x0 ADD PUSH1 0x0 DUP4 DUP2 MSTORE PUSH1 0x20 ADD SWAP1 DUP2 MSTORE PUSH1 0x20 ADD PUSH1 0x0 KECCAK256 PUSH1 0x0 ADD SLOAD GT ISZERO PUSH2 0xDD9 JUMPI DUP3 DUP1 PUSH2 0xDD5 SWAP1 PUSH2 0x2BD0 JUMP JUMPDEST SWAP4 POP POP JUMPDEST DUP1 DUP1 PUSH2 0xDE4 SWAP1 PUSH2 0x2BD0 JUMP JUMPDEST SWAP2 POP POP PUSH2 0xD63 JUMP JUMPDEST POP PUSH1 0x0 DUP3 PUSH8 0xFFFFFFFFFFFFFFFF DUP2 GT ISZERO PUSH2 0xE09 JUMPI PUSH2 0xE08 PUSH2 0x2CA6 JUMP JUMPDEST JUMPDEST PUSH1 0x40 MLOAD SWAP1 DUP1 DUP3 MSTORE DUP1 PUSH1 0x20 MUL PUSH1 0x20 ADD DUP3 ADD PUSH1 0x40 MSTORE DUP1 ISZERO PUSH2 0xE42 JUMPI DUP2 PUSH1 0x20 ADD JUMPDEST PUSH2 0xE2F PUSH2 0x2309 JUMP JUMPDEST DUP2 MSTORE PUSH1 0x20 ADD SWAP1 PUSH1 0x1 SWAP1 SUB SWAP1 DUP2 PUSH2 0xE27 JUMPI SWAP1 POP JUMPDEST POP SWAP1 POP PUSH1 0x0 JUMPDEST DUP5 DUP2 LT ISZERO PUSH2 0xF9A JUMPI PUSH1 0x0 PUSH1 0xB PUSH1 0x0 CALLER PUSH20 0xFFFFFFFFFFFFFFFFFFFFFFFFFFFFFFFFFFFFFFFF AND PUSH20 0xFFFFFFFFFFFFFFFFFFFFFFFFFFFFFFFFFFFFFFFF AND DUP2 MSTORE PUSH1 0x20 ADD SWAP1 DUP2 MSTORE PUSH1 0x20 ADD PUSH1 0x0 KECCAK256 PUSH1 0x0 ADD PUSH1 0x0 DUP4 DUP2 MSTORE PUSH1 0x20 ADD SWAP1 DUP2 MSTORE PUSH1 0x20 ADD PUSH1 0x0 KECCAK256 PUSH1 0x0 ADD SLOAD GT ISZERO PUSH2 0xF87 JUMPI PUSH1 0xB PUSH1 0x0 CALLER PUSH20 0xFFFFFFFFFFFFFFFFFFFFFFFFFFFFFFFFFFFFFFFF AND PUSH20 0xFFFFFFFFFFFFFFFFFFFFFFFFFFFFFFFFFFFFFFFF AND DUP2 MSTORE PUSH1 0x20 ADD SWAP1 DUP2 MSTORE PUSH1 0x20 ADD PUSH1 0x0 KECCAK256 PUSH1 0x0 ADD PUSH1 0x0 DUP3 DUP2 MSTORE PUSH1 0x20 ADD SWAP1 DUP2 MSTORE PUSH1 0x20 ADD PUSH1 0x0 KECCAK256 PUSH1 0x40 MLOAD DUP1 PUSH1 0xC0 ADD PUSH1 0x40 MSTORE SWAP1 DUP2 PUSH1 0x0 DUP3 ADD SLOAD DUP2 MSTORE PUSH1 0x20 ADD PUSH1 0x1 DUP3 ADD SLOAD DUP2 MSTORE PUSH1 0x20 ADD PUSH1 0x2 DUP3 ADD SLOAD DUP2 MSTORE PUSH1 0x20 ADD PUSH1 0x3 DUP3 ADD SLOAD DUP2 MSTORE PUSH1 0x20 ADD PUSH1 0x4 DUP3 ADD SLOAD DUP2 MSTORE PUSH1 0x20 ADD PUSH1 0x5 DUP3 ADD PUSH1 0x0 SWAP1 SLOAD SWAP1 PUSH2 0x100 EXP SWAP1 DIV PUSH1 0xFF AND ISZERO ISZERO ISZERO ISZERO DUP2 MSTORE POP POP DUP3 DUP5 DUP2 MLOAD DUP2 LT PUSH2 0xF6D JUMPI PUSH2 0xF6C PUSH2 0x2C77 JUMP JUMPDEST JUMPDEST PUSH1 0x20 MUL PUSH1 0x20 ADD ADD DUP2 SWAP1 MSTORE POP DUP3 DUP1 PUSH2 0xF83 SWAP1 PUSH2 0x2BD0 JUMP JUMPDEST SWAP4 POP POP JUMPDEST DUP1 DUP1 PUSH2 0xF92 SWAP1 PUSH2 0x2BD0 JUMP JUMPDEST SWAP2 POP POP PUSH2 0xE48 JUMP JUMPDEST POP DUP1 SWAP5 POP POP POP POP POP SWAP1 JUMP JUMPDEST PUSH1 0x0 DUP1 PUSH1 0x0 DUP1 PUSH1 0x0 PUSH1 0xB PUSH1 0x0 CALLER PUSH20 0xFFFFFFFFFFFFFFFFFFFFFFFFFFFFFFFFFFFFFFFF AND PUSH20 0xFFFFFFFFFFFFFFFFFFFFFFFFFFFFFFFFFFFFFFFF AND DUP2 MSTORE PUSH1 0x20 ADD SWAP1 DUP2 MSTORE PUSH1 0x20 ADD PUSH1 0x0 KECCAK256 PUSH1 0x5 ADD SLOAD SWAP1 POP PUSH1 0x0 JUMPDEST DUP2 DUP2 LT ISZERO PUSH2 0x1241 JUMPI PUSH1 0xB PUSH1 0x0 CALLER PUSH20 0xFFFFFFFFFFFFFFFFFFFFFFFFFFFFFFFFFFFFFFFF AND PUSH20 0xFFFFFFFFFFFFFFFFFFFFFFFFFFFFFFFFFFFFFFFF AND DUP2 MSTORE PUSH1 0x20 ADD SWAP1 DUP2 MSTORE PUSH1 0x20 ADD PUSH1 0x0 KECCAK256 PUSH1 0x0 ADD PUSH1 0x0 DUP3 DUP2 MSTORE PUSH1 0x20 ADD SWAP1 DUP2 MSTORE PUSH1 0x20 ADD PUSH1 0x0 KECCAK256 PUSH1 0x5 ADD PUSH1 0x0 SWAP1 SLOAD SWAP1 PUSH2 0x100 EXP SWAP1 DIV PUSH1 0xFF AND PUSH2 0x10CE JUMPI PUSH1 0xB PUSH1 0x0 CALLER PUSH20 0xFFFFFFFFFFFFFFFFFFFFFFFFFFFFFFFFFFFFFFFF AND PUSH20 0xFFFFFFFFFFFFFFFFFFFFFFFFFFFFFFFFFFFFFFFF AND DUP2 MSTORE PUSH1 0x20 ADD SWAP1 DUP2 MSTORE PUSH1 0x20 ADD PUSH1 0x0 KECCAK256 PUSH1 0x0 ADD PUSH1 0x0 DUP3 DUP2 MSTORE PUSH1 0x20 ADD SWAP1 DUP2 MSTORE PUSH1 0x20 ADD PUSH1 0x0 KECCAK256 PUSH1 0x2 ADD SLOAD TIMESTAMP PUSH2 0x10C7 SWAP2 SWAP1 PUSH2 0x2B54 JUMP JUMPDEST SWAP4 POP PUSH2 0x1189 JUMP JUMPDEST PUSH1 0xB PUSH1 0x0 CALLER PUSH20 0xFFFFFFFFFFFFFFFFFFFFFFFFFFFFFFFFFFFFFFFF AND PUSH20 0xFFFFFFFFFFFFFFFFFFFFFFFFFFFFFFFFFFFFFFFF AND DUP2 MSTORE PUSH1 0x20 ADD SWAP1 DUP2 MSTORE PUSH1 0x20 ADD PUSH1 0x0 KECCAK256 PUSH1 0x0 ADD PUSH1 0x0 DUP3 DUP2 MSTORE PUSH1 0x20 ADD SWAP1 DUP2 MSTORE PUSH1 0x20 ADD PUSH1 0x0 KECCAK256 PUSH1 0x2 ADD SLOAD PUSH1 0xB PUSH1 0x0 CALLER PUSH20 0xFFFFFFFFFFFFFFFFFFFFFFFFFFFFFFFFFFFFFFFF AND PUSH20 0xFFFFFFFFFFFFFFFFFFFFFFFFFFFFFFFFFFFFFFFF AND DUP2 MSTORE PUSH1 0x20 ADD SWAP1 DUP2 MSTORE PUSH1 0x20 ADD PUSH1 0x0 KECCAK256 PUSH1 0x0 ADD PUSH1 0x0 DUP4 DUP2 MSTORE PUSH1 0x20 ADD SWAP1 DUP2 MSTORE PUSH1 0x20 ADD PUSH1 0x0 KECCAK256 PUSH1 0x4 ADD SLOAD PUSH2 0x1186 SWAP2 SWAP1 PUSH2 0x2B54 JUMP JUMPDEST SWAP4 POP JUMPDEST PUSH1 0x3C DUP5 PUSH2 0x1196 SWAP2 SWAP1 PUSH2 0x2AC9 JUMP JUMPDEST SWAP4 POP PUSH1 0x0 DUP5 GT ISZERO PUSH2 0x122E JUMPI PUSH1 0x7 SLOAD PUSH1 0x4 SLOAD PUSH1 0xB PUSH1 0x0 CALLER PUSH20 0xFFFFFFFFFFFFFFFFFFFFFFFFFFFFFFFFFFFFFFFF AND PUSH20 0xFFFFFFFFFFFFFFFFFFFFFFFFFFFFFFFFFFFFFFFF AND DUP2 MSTORE PUSH1 0x20 ADD SWAP1 DUP2 MSTORE PUSH1 0x20 ADD PUSH1 0x0 KECCAK256 PUSH1 0x0 ADD PUSH1 0x0 DUP5 DUP2 MSTORE PUSH1 0x20 ADD SWAP1 DUP2 MSTORE PUSH1 0x20 ADD PUSH1 0x0 KECCAK256 PUSH1 0x0 ADD SLOAD PUSH2 0x1208 SWAP2 SWAP1 PUSH2 0x2AFA JUMP JUMPDEST PUSH2 0x1212 SWAP2 SWAP1 PUSH2 0x2AC9 JUMP JUMPDEST SWAP3 POP DUP3 DUP5 PUSH2 0x1220 SWAP2 SWAP1 PUSH2 0x2AFA JUMP JUMPDEST DUP6 PUSH2 0x122B SWAP2 SWAP1 PUSH2 0x2A73 JUMP JUMPDEST SWAP5 POP JUMPDEST DUP1 DUP1 PUSH2 0x1239 SWAP1 PUSH2 0x2BD0 JUMP JUMPDEST SWAP2 POP POP PUSH2 0xFF5 JUMP JUMPDEST POP PUSH1 0xB PUSH1 0x0 CALLER PUSH20 0xFFFFFFFFFFFFFFFFFFFFFFFFFFFFFFFFFFFFFFFF AND PUSH20 0xFFFFFFFFFFFFFFFFFFFFFFFFFFFFFFFFFFFFFFFF AND DUP2 MSTORE PUSH1 0x20 ADD SWAP1 DUP2 MSTORE PUSH1 0x20 ADD PUSH1 0x0 KECCAK256 PUSH1 0x7 ADD SLOAD DUP5 PUSH2 0x1290 SWAP2 SWAP1 PUSH2 0x2B54 JUMP JUMPDEST SWAP4 POP DUP4 SWAP5 POP POP POP POP POP SWAP1 JUMP JUMPDEST DUP3 PUSH1 0x6 DUP2 SWAP1 SSTORE POP DUP4 PUSH1 0x5 DUP2 SWAP1 SSTORE POP DUP2 PUSH1 0x4 DUP2 SWAP1 SSTORE POP DUP1 PUSH1 0x7 DUP2 SWAP1 SSTORE POP POP POP POP POP JUMP JUMPDEST DUP1 PUSH1 0x6 DUP2 SWAP1 SSTORE POP POP JUMP JUMPDEST PUSH1 0x8 SLOAD DUP2 JUMP JUMPDEST PUSH1 0x0 DUP1 PUSH1 0xB PUSH1 0x0 CALLER PUSH20 0xFFFFFFFFFFFFFFFFFFFFFFFFFFFFFFFFFFFFFFFF AND PUSH20 0xFFFFFFFFFFFFFFFFFFFFFFFFFFFFFFFFFFFFFFFF AND DUP2 MSTORE PUSH1 0x20 ADD SWAP1 DUP2 MSTORE PUSH1 0x20 ADD PUSH1 0x0 KECCAK256 PUSH1 0x6 ADD SLOAD GT PUSH2 0x1354 JUMPI PUSH1 0x40 MLOAD PUSH32 0x8C379A000000000000000000000000000000000000000000000000000000000 DUP2 MSTORE PUSH1 0x4 ADD PUSH2 0x134B SWAP1 PUSH2 0x291C JUMP JUMPDEST PUSH1 0x40 MLOAD DUP1 SWAP2 SUB SWAP1 REVERT JUMPDEST PUSH1 0x0 PUSH1 0xB PUSH1 0x0 CALLER PUSH20 0xFFFFFFFFFFFFFFFFFFFFFFFFFFFFFFFFFFFFFFFF AND PUSH20 0xFFFFFFFFFFFFFFFFFFFFFFFFFFFFFFFFFFFFFFFF AND DUP2 MSTORE PUSH1 0x20 ADD SWAP1 DUP2 MSTORE PUSH1 0x20 ADD PUSH1 0x0 KECCAK256 PUSH1 0x6 ADD SLOAD SWAP1 POP PUSH1 0x0 PUSH1 0xB PUSH1 0x0 CALLER PUSH20 0xFFFFFFFFFFFFFFFFFFFFFFFFFFFFFFFFFFFFFFFF AND PUSH20 0xFFFFFFFFFFFFFFFFFFFFFFFFFFFFFFFFFFFFFFFF AND DUP2 MSTORE PUSH1 0x20 ADD SWAP1 DUP2 MSTORE PUSH1 0x20 ADD PUSH1 0x0 KECCAK256 PUSH1 0x5 ADD SLOAD SWAP1 POP PUSH1 0x0 PUSH1 0xA SLOAD SWAP1 POP PUSH1 0x0 DUP1 TIMESTAMP PUSH1 0xB PUSH1 0x0 CALLER PUSH20 0xFFFFFFFFFFFFFFFFFFFFFFFFFFFFFFFFFFFFFFFF AND PUSH20 0xFFFFFFFFFFFFFFFFFFFFFFFFFFFFFFFFFFFFFFFF AND DUP2 MSTORE PUSH1 0x20 ADD SWAP1 DUP2 MSTORE PUSH1 0x20 ADD PUSH1 0x0 KECCAK256 PUSH1 0x9 ADD SLOAD GT ISZERO PUSH2 0x1616 JUMPI PUSH1 0x64 PUSH1 0x1E DUP7 PUSH2 0x1445 SWAP2 SWAP1 PUSH2 0x2AFA JUMP JUMPDEST PUSH2 0x144F SWAP2 SWAP1 PUSH2 0x2AC9 JUMP JUMPDEST SWAP2 POP PUSH1 0x46 DUP1 DUP7 PUSH2 0x145F SWAP2 SWAP1 PUSH2 0x2AFA JUMP JUMPDEST PUSH2 0x1469 SWAP2 SWAP1 PUSH2 0x2AC9 JUMP JUMPDEST SWAP1 POP PUSH1 0x1 PUSH1 0x0 SWAP1 SLOAD SWAP1 PUSH2 0x100 EXP SWAP1 DIV PUSH20 0xFFFFFFFFFFFFFFFFFFFFFFFFFFFFFFFFFFFFFFFF AND PUSH20 0xFFFFFFFFFFFFFFFFFFFFFFFFFFFFFFFFFFFFFFFF AND PUSH4 0xA9059CBB CALLER PUSH8 0xDE0B6B3A7640000 DUP6 PUSH2 0x14BE SWAP2 SWAP1 PUSH2 0x2AFA JUMP JUMPDEST PUSH1 0x40 MLOAD DUP4 PUSH4 0xFFFFFFFF AND PUSH1 0xE0 SHL DUP2 MSTORE PUSH1 0x4 ADD PUSH2 0x14DB SWAP3 SWAP2 SWAP1 PUSH2 0x2803 JUMP JUMPDEST PUSH1 0x20 PUSH1 0x40 MLOAD DUP1 DUP4 SUB DUP2 PUSH1 0x0 DUP8 DUP1 EXTCODESIZE ISZERO DUP1 ISZERO PUSH2 0x14F5 JUMPI PUSH1 0x0 DUP1 REVERT JUMPDEST POP GAS CALL ISZERO DUP1 ISZERO PUSH2 0x1509 JUMPI RETURNDATASIZE PUSH1 0x0 DUP1 RETURNDATACOPY RETURNDATASIZE PUSH1 0x0 REVERT JUMPDEST POP POP POP POP PUSH1 0x40 MLOAD RETURNDATASIZE PUSH1 0x1F NOT PUSH1 0x1F DUP3 ADD AND DUP3 ADD DUP1 PUSH1 0x40 MSTORE POP DUP2 ADD SWAP1 PUSH2 0x152D SWAP2 SWAP1 PUSH2 0x23AD JUMP JUMPDEST POP PUSH1 0x1 PUSH1 0x0 SWAP1 SLOAD SWAP1 PUSH2 0x100 EXP SWAP1 DIV PUSH20 0xFFFFFFFFFFFFFFFFFFFFFFFFFFFFFFFFFFFFFFFF AND PUSH20 0xFFFFFFFFFFFFFFFFFFFFFFFFFFFFFFFFFFFFFFFF AND PUSH4 0xA9059CBB PUSH1 0x0 DUP1 SLOAD SWAP1 PUSH2 0x100 EXP SWAP1 DIV PUSH20 0xFFFFFFFFFFFFFFFFFFFFFFFFFFFFFFFFFFFFFFFF AND PUSH8 0xDE0B6B3A7640000 DUP5 PUSH2 0x15A1 SWAP2 SWAP1 PUSH2 0x2AFA JUMP JUMPDEST PUSH1 0x40 MLOAD DUP4 PUSH4 0xFFFFFFFF AND PUSH1 0xE0 SHL DUP2 MSTORE PUSH1 0x4 ADD PUSH2 0x15BE SWAP3 SWAP2 SWAP1 PUSH2 0x2803 JUMP JUMPDEST PUSH1 0x20 PUSH1 0x40 MLOAD DUP1 DUP4 SUB DUP2 PUSH1 0x0 DUP8 DUP1 EXTCODESIZE ISZERO DUP1 ISZERO PUSH2 0x15D8 JUMPI PUSH1 0x0 DUP1 REVERT JUMPDEST POP GAS CALL ISZERO DUP1 ISZERO PUSH2 0x15EC JUMPI RETURNDATASIZE PUSH1 0x0 DUP1 RETURNDATACOPY RETURNDATASIZE PUSH1 0x0 REVERT JUMPDEST POP POP POP POP PUSH1 0x40 MLOAD RETURNDATASIZE PUSH1 0x1F NOT PUSH1 0x1F DUP3 ADD AND DUP3 ADD DUP1 PUSH1 0x40 MSTORE POP DUP2 ADD SWAP1 PUSH2 0x1610 SWAP2 SWAP1 PUSH2 0x23AD JUMP JUMPDEST POP PUSH2 0x16DA JUMP JUMPDEST PUSH1 0x1 PUSH1 0x0 SWAP1 SLOAD SWAP1 PUSH2 0x100 EXP SWAP1 DIV PUSH20 0xFFFFFFFFFFFFFFFFFFFFFFFFFFFFFFFFFFFFFFFF AND PUSH20 0xFFFFFFFFFFFFFFFFFFFFFFFFFFFFFFFFFFFFFFFF AND PUSH4 0xA9059CBB CALLER PUSH8 0xDE0B6B3A7640000 DUP9 PUSH2 0x1669 SWAP2 SWAP1 PUSH2 0x2AFA JUMP JUMPDEST PUSH1 0x40 MLOAD DUP4 PUSH4 0xFFFFFFFF AND PUSH1 0xE0 SHL DUP2 MSTORE PUSH1 0x4 ADD PUSH2 0x1686 SWAP3 SWAP2 SWAP1 PUSH2 0x2803 JUMP JUMPDEST PUSH1 0x20 PUSH1 0x40 MLOAD DUP1 DUP4 SUB DUP2 PUSH1 0x0 DUP8 DUP1 EXTCODESIZE ISZERO DUP1 ISZERO PUSH2 0x16A0 JUMPI PUSH1 0x0 DUP1 REVERT JUMPDEST POP GAS CALL ISZERO DUP1 ISZERO PUSH2 0x16B4 JUMPI RETURNDATASIZE PUSH1 0x0 DUP1 RETURNDATACOPY RETURNDATASIZE PUSH1 0x0 REVERT JUMPDEST POP POP POP POP PUSH1 0x40 MLOAD RETURNDATASIZE PUSH1 0x1F NOT PUSH1 0x1F DUP3 ADD AND DUP3 ADD DUP1 PUSH1 0x40 MSTORE POP DUP2 ADD SWAP1 PUSH2 0x16D8 SWAP2 SWAP1 PUSH2 0x23AD JUMP JUMPDEST POP JUMPDEST PUSH1 0x0 SWAP3 POP JUMPDEST DUP4 DUP4 LT ISZERO PUSH2 0x17C4 JUMPI PUSH1 0x1 PUSH1 0xB PUSH1 0x0 CALLER PUSH20 0xFFFFFFFFFFFFFFFFFFFFFFFFFFFFFFFFFFFFFFFF AND PUSH20 0xFFFFFFFFFFFFFFFFFFFFFFFFFFFFFFFFFFFFFFFF AND DUP2 MSTORE PUSH1 0x20 ADD SWAP1 DUP2 MSTORE PUSH1 0x20 ADD PUSH1 0x0 KECCAK256 PUSH1 0x0 ADD PUSH1 0x0 DUP6 DUP2 MSTORE PUSH1 0x20 ADD SWAP1 DUP2 MSTORE PUSH1 0x20 ADD PUSH1 0x0 KECCAK256 PUSH1 0x5 ADD PUSH1 0x0 PUSH2 0x100 EXP DUP2 SLOAD DUP2 PUSH1 0xFF MUL NOT AND SWAP1 DUP4 ISZERO ISZERO MUL OR SWAP1 SSTORE POP TIMESTAMP PUSH1 0xB PUSH1 0x0 CALLER PUSH20 0xFFFFFFFFFFFFFFFFFFFFFFFFFFFFFFFFFFFFFFFF AND PUSH20 0xFFFFFFFFFFFFFFFFFFFFFFFFFFFFFFFFFFFFFFFF AND DUP2 MSTORE PUSH1 0x20 ADD SWAP1 DUP2 MSTORE PUSH1 0x20 ADD PUSH1 0x0 KECCAK256 PUSH1 0x0 ADD PUSH1 0x0 DUP6 DUP2 MSTORE PUSH1 0x20 ADD SWAP1 DUP2 MSTORE PUSH1 0x20 ADD PUSH1 0x0 KECCAK256 PUSH1 0x4 ADD DUP2 SWAP1 SSTORE POP DUP3 DUP1 PUSH2 0x17BC SWAP1 PUSH2 0x2BD0 JUMP JUMPDEST SWAP4 POP POP PUSH2 0x16DF JUMP JUMPDEST PUSH1 0xB PUSH1 0x0 CALLER PUSH20 0xFFFFFFFFFFFFFFFFFFFFFFFFFFFFFFFFFFFFFFFF AND PUSH20 0xFFFFFFFFFFFFFFFFFFFFFFFFFFFFFFFFFFFFFFFF AND DUP2 MSTORE PUSH1 0x20 ADD SWAP1 DUP2 MSTORE PUSH1 0x20 ADD PUSH1 0x0 KECCAK256 PUSH1 0x5 ADD SLOAD PUSH1 0xA DUP2 SWAP1 SSTORE POP PUSH1 0x0 PUSH1 0xB PUSH1 0x0 CALLER PUSH20 0xFFFFFFFFFFFFFFFFFFFFFFFFFFFFFFFFFFFFFFFF AND PUSH20 0xFFFFFFFFFFFFFFFFFFFFFFFFFFFFFFFFFFFFFFFF AND DUP2 MSTORE PUSH1 0x20 ADD SWAP1 DUP2 MSTORE PUSH1 0x20 ADD PUSH1 0x0 KECCAK256 PUSH1 0x6 ADD DUP2 SWAP1 SSTORE POP PUSH1 0x1 SWAP6 POP POP POP POP POP POP SWAP1 JUMP JUMPDEST PUSH1 0x0 DUP1 SLOAD SWAP1 PUSH2 0x100 EXP SWAP1 DIV PUSH20 0xFFFFFFFFFFFFFFFFFFFFFFFFFFFFFFFFFFFFFFFF AND DUP2 JUMP JUMPDEST PUSH1 0x0 PUSH1 0xB PUSH1 0x0 CALLER PUSH20 0xFFFFFFFFFFFFFFFFFFFFFFFFFFFFFFFFFFFFFFFF AND PUSH20 0xFFFFFFFFFFFFFFFFFFFFFFFFFFFFFFFFFFFFFFFF AND DUP2 MSTORE PUSH1 0x20 ADD SWAP1 DUP2 MSTORE PUSH1 0x20 ADD PUSH1 0x0 KECCAK256 PUSH1 0x6 ADD SLOAD SWAP1 POP SWAP1 JUMP JUMPDEST PUSH1 0x7 SLOAD DUP2 JUMP JUMPDEST DUP2 PUSH1 0x4 DUP2 SWAP1 SSTORE POP DUP1 PUSH1 0x7 DUP2 SWAP1 SSTORE POP POP POP JUMP JUMPDEST PUSH1 0x60 PUSH1 0x0 PUSH1 0x14 PUSH8 0xFFFFFFFFFFFFFFFF DUP2 GT ISZERO PUSH2 0x1906 JUMPI PUSH2 0x1905 PUSH2 0x2CA6 JUMP JUMPDEST JUMPDEST PUSH1 0x40 MLOAD SWAP1 DUP1 DUP3 MSTORE DUP1 PUSH1 0x20 MUL PUSH1 0x20 ADD DUP3 ADD PUSH1 0x40 MSTORE DUP1 ISZERO PUSH2 0x1934 JUMPI DUP2 PUSH1 0x20 ADD PUSH1 0x20 DUP3 MUL DUP1 CALLDATASIZE DUP4 CALLDATACOPY DUP1 DUP3 ADD SWAP2 POP POP SWAP1 POP JUMPDEST POP SWAP1 POP PUSH1 0x0 JUMPDEST PUSH1 0x14 DUP2 LT ISZERO PUSH2 0x1A52 JUMPI PUSH1 0x0 PUSH1 0xB PUSH1 0x0 CALLER PUSH20 0xFFFFFFFFFFFFFFFFFFFFFFFFFFFFFFFFFFFFFFFF AND PUSH20 0xFFFFFFFFFFFFFFFFFFFFFFFFFFFFFFFFFFFFFFFF AND DUP2 MSTORE PUSH1 0x20 ADD SWAP1 DUP2 MSTORE PUSH1 0x20 ADD PUSH1 0x0 KECCAK256 PUSH1 0x3 ADD PUSH1 0x0 DUP4 DUP2 MSTORE PUSH1 0x20 ADD SWAP1 DUP2 MSTORE PUSH1 0x20 ADD PUSH1 0x0 KECCAK256 PUSH1 0x0 ADD SLOAD GT ISZERO PUSH2 0x1A1D JUMPI PUSH1 0xB PUSH1 0x0 CALLER PUSH20 0xFFFFFFFFFFFFFFFFFFFFFFFFFFFFFFFFFFFFFFFF AND PUSH20 0xFFFFFFFFFFFFFFFFFFFFFFFFFFFFFFFFFFFFFFFF AND DUP2 MSTORE PUSH1 0x20 ADD SWAP1 DUP2 MSTORE PUSH1 0x20 ADD PUSH1 0x0 KECCAK256 PUSH1 0x3 ADD PUSH1 0x0 DUP3 DUP2 MSTORE PUSH1 0x20 ADD SWAP1 DUP2 MSTORE PUSH1 0x20 ADD PUSH1 0x0 KECCAK256 PUSH1 0x0 ADD SLOAD DUP3 DUP3 DUP2 MLOAD DUP2 LT PUSH2 0x1A0C JUMPI PUSH2 0x1A0B PUSH2 0x2C77 JUMP JUMPDEST JUMPDEST PUSH1 0x20 MUL PUSH1 0x20 ADD ADD DUP2 DUP2 MSTORE POP POP PUSH2 0x1A3F JUMP JUMPDEST PUSH1 0x0 DUP3 DUP3 DUP2 MLOAD DUP2 LT PUSH2 0x1A32 JUMPI PUSH2 0x1A31 PUSH2 0x2C77 JUMP JUMPDEST JUMPDEST PUSH1 0x20 MUL PUSH1 0x20 ADD ADD DUP2 DUP2 MSTORE POP POP JUMPDEST DUP1 DUP1 PUSH2 0x1A4A SWAP1 PUSH2 0x2BD0 JUMP JUMPDEST SWAP2 POP POP PUSH2 0x193A JUMP JUMPDEST POP DUP1 SWAP2 POP POP SWAP1 JUMP JUMPDEST PUSH1 0x5 SLOAD DUP2 JUMP JUMPDEST PUSH1 0x0 DUP1 PUSH2 0x1A6B PUSH2 0xFA5 JUMP JUMPDEST SWAP1 POP PUSH1 0x0 DUP2 GT PUSH2 0x1AB0 JUMPI PUSH1 0x40 MLOAD PUSH32 0x8C379A000000000000000000000000000000000000000000000000000000000 DUP2 MSTORE PUSH1 0x4 ADD PUSH2 0x1AA7 SWAP1 PUSH2 0x295C JUMP JUMPDEST PUSH1 0x40 MLOAD DUP1 SWAP2 SUB SWAP1 REVERT JUMPDEST PUSH1 0x2 PUSH1 0x0 SWAP1 SLOAD SWAP1 PUSH2 0x100 EXP SWAP1 DIV PUSH20 0xFFFFFFFFFFFFFFFFFFFFFFFFFFFFFFFFFFFFFFFF AND PUSH20 0xFFFFFFFFFFFFFFFFFFFFFFFFFFFFFFFFFFFFFFFF AND PUSH4 0xA9059CBB CALLER DUP4 PUSH1 0x40 MLOAD DUP4 PUSH4 0xFFFFFFFF AND PUSH1 0xE0 SHL DUP2 MSTORE PUSH1 0x4 ADD PUSH2 0x1B0D SWAP3 SWAP2 SWAP1 PUSH2 0x2803 JUMP JUMPDEST PUSH1 0x20 PUSH1 0x40 MLOAD DUP1 DUP4 SUB DUP2 PUSH1 0x0 DUP8 DUP1 EXTCODESIZE ISZERO DUP1 ISZERO PUSH2 0x1B27 JUMPI PUSH1 0x0 DUP1 REVERT JUMPDEST POP GAS CALL ISZERO DUP1 ISZERO PUSH2 0x1B3B JUMPI RETURNDATASIZE PUSH1 0x0 DUP1 RETURNDATACOPY RETURNDATASIZE PUSH1 0x0 REVERT JUMPDEST POP POP POP POP PUSH1 0x40 MLOAD RETURNDATASIZE PUSH1 0x1F NOT PUSH1 0x1F DUP3 ADD AND DUP3 ADD DUP1 PUSH1 0x40 MSTORE POP DUP2 ADD SWAP1 PUSH2 0x1B5F SWAP2 SWAP1 PUSH2 0x23AD JUMP JUMPDEST POP DUP1 PUSH1 0xB PUSH1 0x0 CALLER PUSH20 0xFFFFFFFFFFFFFFFFFFFFFFFFFFFFFFFFFFFFFFFF AND PUSH20 0xFFFFFFFFFFFFFFFFFFFFFFFFFFFFFFFFFFFFFFFF AND DUP2 MSTORE PUSH1 0x20 ADD SWAP1 DUP2 MSTORE PUSH1 0x20 ADD PUSH1 0x0 KECCAK256 PUSH1 0x7 ADD PUSH1 0x0 DUP3 DUP3 SLOAD PUSH2 0x1BB2 SWAP2 SWAP1 PUSH2 0x2A73 JUMP JUMPDEST SWAP3 POP POP DUP2 SWAP1 SSTORE POP PUSH1 0x1 SWAP2 POP POP SWAP1 JUMP JUMPDEST PUSH1 0xB PUSH1 0x20 MSTORE DUP1 PUSH1 0x0 MSTORE PUSH1 0x40 PUSH1 0x0 KECCAK256 PUSH1 0x0 SWAP2 POP SWAP1 POP DUP1 PUSH1 0x2 ADD PUSH1 0x0 SWAP1 SLOAD SWAP1 PUSH2 0x100 EXP SWAP1 DIV PUSH20 0xFFFFFFFFFFFFFFFFFFFFFFFFFFFFFFFFFFFFFFFF AND SWAP1 DUP1 PUSH1 0x4 ADD SLOAD SWAP1 DUP1 PUSH1 0x5 ADD SLOAD SWAP1 DUP1 PUSH1 0x6 ADD SLOAD SWAP1 DUP1 PUSH1 0x7 ADD SLOAD SWAP1 DUP1 PUSH1 0x8 ADD PUSH1 0x0 SWAP1 SLOAD SWAP1 PUSH2 0x100 EXP SWAP1 DIV PUSH1 0xFF AND SWAP1 DUP1 PUSH1 0x9 ADD SLOAD SWAP1 POP DUP8 JUMP JUMPDEST PUSH1 0x9 SLOAD DUP2 JUMP JUMPDEST PUSH1 0x0 DUP1 SLOAD SWAP1 PUSH2 0x100 EXP SWAP1 DIV PUSH20 0xFFFFFFFFFFFFFFFFFFFFFFFFFFFFFFFFFFFFFFFF AND PUSH20 0xFFFFFFFFFFFFFFFFFFFFFFFFFFFFFFFFFFFFFFFF AND CALLER PUSH20 0xFFFFFFFFFFFFFFFFFFFFFFFFFFFFFFFFFFFFFFFF AND EQ PUSH2 0x1CC4 JUMPI PUSH1 0x40 MLOAD PUSH32 0x8C379A000000000000000000000000000000000000000000000000000000000 DUP2 MSTORE PUSH1 0x4 ADD PUSH2 0x1CBB SWAP1 PUSH2 0x297C JUMP JUMPDEST PUSH1 0x40 MLOAD DUP1 SWAP2 SUB SWAP1 REVERT JUMPDEST DUP1 PUSH1 0x0 DUP1 PUSH2 0x100 EXP DUP2 SLOAD DUP2 PUSH20 0xFFFFFFFFFFFFFFFFFFFFFFFFFFFFFFFFFFFFFFFF MUL NOT AND SWAP1 DUP4 PUSH20 0xFFFFFFFFFFFFFFFFFFFFFFFFFFFFFFFFFFFFFFFF AND MUL OR SWAP1 SSTORE POP POP JUMP JUMPDEST PUSH1 0x60 PUSH1 0x0 PUSH1 0x14 PUSH8 0xFFFFFFFFFFFFFFFF DUP2 GT ISZERO PUSH2 0x1D26 JUMPI PUSH2 0x1D25 PUSH2 0x2CA6 JUMP JUMPDEST JUMPDEST PUSH1 0x40 MLOAD SWAP1 DUP1 DUP3 MSTORE DUP1 PUSH1 0x20 MUL PUSH1 0x20 ADD DUP3 ADD PUSH1 0x40 MSTORE DUP1 ISZERO PUSH2 0x1D54 JUMPI DUP2 PUSH1 0x20 ADD PUSH1 0x20 DUP3 MUL DUP1 CALLDATASIZE DUP4 CALLDATACOPY DUP1 DUP3 ADD SWAP2 POP POP SWAP1 POP JUMPDEST POP SWAP1 POP PUSH1 0x0 JUMPDEST PUSH1 0x14 DUP2 LT ISZERO PUSH2 0x1E72 JUMPI PUSH1 0x0 PUSH1 0xB PUSH1 0x0 CALLER PUSH20 0xFFFFFFFFFFFFFFFFFFFFFFFFFFFFFFFFFFFFFFFF AND PUSH20 0xFFFFFFFFFFFFFFFFFFFFFFFFFFFFFFFFFFFFFFFF AND DUP2 MSTORE PUSH1 0x20 ADD SWAP1 DUP2 MSTORE PUSH1 0x20 ADD PUSH1 0x0 KECCAK256 PUSH1 0x3 ADD PUSH1 0x0 DUP4 DUP2 MSTORE PUSH1 0x20 ADD SWAP1 DUP2 MSTORE PUSH1 0x20 ADD PUSH1 0x0 KECCAK256 PUSH1 0x0 ADD SLOAD GT ISZERO PUSH2 0x1E3D JUMPI PUSH1 0xB PUSH1 0x0 CALLER PUSH20 0xFFFFFFFFFFFFFFFFFFFFFFFFFFFFFFFFFFFFFFFF AND PUSH20 0xFFFFFFFFFFFFFFFFFFFFFFFFFFFFFFFFFFFFFFFF AND DUP2 MSTORE PUSH1 0x20 ADD SWAP1 DUP2 MSTORE PUSH1 0x20 ADD PUSH1 0x0 KECCAK256 PUSH1 0x3 ADD PUSH1 0x0 DUP3 DUP2 MSTORE PUSH1 0x20 ADD SWAP1 DUP2 MSTORE PUSH1 0x20 ADD PUSH1 0x0 KECCAK256 PUSH1 0x1 ADD SLOAD DUP3 DUP3 DUP2 MLOAD DUP2 LT PUSH2 0x1E2C JUMPI PUSH2 0x1E2B PUSH2 0x2C77 JUMP JUMPDEST JUMPDEST PUSH1 0x20 MUL PUSH1 0x20 ADD ADD DUP2 DUP2 MSTORE POP POP PUSH2 0x1E5F JUMP JUMPDEST PUSH1 0x0 DUP3 DUP3 DUP2 MLOAD DUP2 LT PUSH2 0x1E52 JUMPI PUSH2 0x1E51 PUSH2 0x2C77 JUMP JUMPDEST JUMPDEST PUSH1 0x20 MUL PUSH1 0x20 ADD ADD DUP2 DUP2 MSTORE POP POP JUMPDEST DUP1 DUP1 PUSH2 0x1E6A SWAP1 PUSH2 0x2BD0 JUMP JUMPDEST SWAP2 POP POP PUSH2 0x1D5A JUMP JUMPDEST POP DUP1 SWAP2 POP POP SWAP1 JUMP JUMPDEST PUSH1 0x4 SLOAD DUP2 JUMP JUMPDEST PUSH1 0x6 SLOAD DUP2 JUMP JUMPDEST PUSH1 0x0 DUP3 SWAP1 POP PUSH1 0x0 PUSH1 0x5 PUSH8 0xFFFFFFFFFFFFFFFF DUP2 GT ISZERO PUSH2 0x1EA8 JUMPI PUSH2 0x1EA7 PUSH2 0x2CA6 JUMP JUMPDEST JUMPDEST PUSH1 0x40 MLOAD SWAP1 DUP1 DUP3 MSTORE DUP1 PUSH1 0x20 MUL PUSH1 0x20 ADD DUP3 ADD PUSH1 0x40 MSTORE DUP1 ISZERO PUSH2 0x1ED6 JUMPI DUP2 PUSH1 0x20 ADD PUSH1 0x20 DUP3 MUL DUP1 CALLDATASIZE DUP4 CALLDATACOPY DUP1 DUP3 ADD SWAP2 POP POP SWAP1 POP JUMPDEST POP SWAP1 POP PUSH1 0x5 DUP2 PUSH1 0x0 DUP2 MLOAD DUP2 LT PUSH2 0x1EEF JUMPI PUSH2 0x1EEE PUSH2 0x2C77 JUMP JUMPDEST JUMPDEST PUSH1 0x20 MUL PUSH1 0x20 ADD ADD DUP2 DUP2 MSTORE POP POP PUSH1 0x3 DUP2 PUSH1 0x1 DUP2 MLOAD DUP2 LT PUSH2 0x1F11 JUMPI PUSH2 0x1F10 PUSH2 0x2C77 JUMP JUMPDEST JUMPDEST PUSH1 0x20 MUL PUSH1 0x20 ADD ADD DUP2 DUP2 MSTORE POP POP PUSH1 0x2 DUP2 PUSH1 0x2 DUP2 MLOAD DUP2 LT PUSH2 0x1F33 JUMPI PUSH2 0x1F32 PUSH2 0x2C77 JUMP JUMPDEST JUMPDEST PUSH1 0x20 MUL PUSH1 0x20 ADD ADD DUP2 DUP2 MSTORE POP POP PUSH1 0x1 DUP2 PUSH1 0x3 DUP2 MLOAD DUP2 LT PUSH2 0x1F55 JUMPI PUSH2 0x1F54 PUSH2 0x2C77 JUMP JUMPDEST JUMPDEST PUSH1 0x20 MUL PUSH1 0x20 ADD ADD DUP2 DUP2 MSTORE POP POP PUSH1 0x1 DUP2 PUSH1 0x4 DUP2 MLOAD DUP2 LT PUSH2 0x1F77 JUMPI PUSH2 0x1F76 PUSH2 0x2C77 JUMP JUMPDEST JUMPDEST PUSH1 0x20 MUL PUSH1 0x20 ADD ADD DUP2 DUP2 MSTORE POP POP PUSH1 0x0 PUSH8 0xDE0B6B3A7640000 DUP5 PUSH2 0x1F99 SWAP2 SWAP1 PUSH2 0x2AFA JUMP JUMPDEST SWAP4 POP PUSH1 0x0 JUMPDEST PUSH1 0xA DUP2 LT ISZERO PUSH2 0x2301 JUMPI PUSH1 0x0 DUP2 EQ ISZERO PUSH2 0x1FB9 JUMPI PUSH1 0x0 SWAP2 POP PUSH2 0x2001 JUMP JUMPDEST PUSH1 0x1 DUP2 EQ ISZERO PUSH2 0x1FCB JUMPI PUSH1 0x1 SWAP2 POP PUSH2 0x2000 JUMP JUMPDEST PUSH1 0x2 DUP2 EQ ISZERO PUSH2 0x1FDD JUMPI PUSH1 0x2 SWAP2 POP PUSH2 0x1FFF JUMP JUMPDEST PUSH1 0x2 DUP2 GT ISZERO PUSH2 0x1FEF JUMPI PUSH1 0x3 SWAP2 POP PUSH2 0x1FFE JUMP JUMPDEST PUSH1 0x7 DUP2 GT ISZERO PUSH2 0x1FFD JUMPI PUSH1 0x4 SWAP2 POP JUMPDEST JUMPDEST JUMPDEST JUMPDEST JUMPDEST PUSH1 0x0 PUSH20 0xFFFFFFFFFFFFFFFFFFFFFFFFFFFFFFFFFFFFFFFF AND PUSH1 0xB PUSH1 0x0 DUP7 PUSH20 0xFFFFFFFFFFFFFFFFFFFFFFFFFFFFFFFFFFFFFFFF AND PUSH20 0xFFFFFFFFFFFFFFFFFFFFFFFFFFFFFFFFFFFFFFFF AND DUP2 MSTORE PUSH1 0x20 ADD SWAP1 DUP2 MSTORE PUSH1 0x20 ADD PUSH1 0x0 KECCAK256 PUSH1 0x2 ADD PUSH1 0x0 SWAP1 SLOAD SWAP1 PUSH2 0x100 EXP SWAP1 DIV PUSH20 0xFFFFFFFFFFFFFFFFFFFFFFFFFFFFFFFFFFFFFFFF AND PUSH20 0xFFFFFFFFFFFFFFFFFFFFFFFFFFFFFFFFFFFFFFFF AND EQ PUSH2 0x22E9 JUMPI PUSH1 0xB PUSH1 0x0 DUP6 PUSH20 0xFFFFFFFFFFFFFFFFFFFFFFFFFFFFFFFFFFFFFFFF AND PUSH20 0xFFFFFFFFFFFFFFFFFFFFFFFFFFFFFFFFFFFFFFFF AND DUP2 MSTORE PUSH1 0x20 ADD SWAP1 DUP2 MSTORE PUSH1 0x20 ADD PUSH1 0x0 KECCAK256 PUSH1 0x2 ADD PUSH1 0x0 SWAP1 SLOAD SWAP1 PUSH2 0x100 EXP SWAP1 DIV PUSH20 0xFFFFFFFFFFFFFFFFFFFFFFFFFFFFFFFFFFFFFFFF AND SWAP4 POP PUSH1 0x0 PUSH1 0x64 DUP7 PUSH4 0x5F5E100 DUP7 DUP7 DUP2 MLOAD DUP2 LT PUSH2 0x2119 JUMPI PUSH2 0x2118 PUSH2 0x2C77 JUMP JUMPDEST JUMPDEST PUSH1 0x20 MUL PUSH1 0x20 ADD ADD MLOAD PUSH2 0x212B SWAP2 SWAP1 PUSH2 0x2AFA JUMP JUMPDEST PUSH2 0x2135 SWAP2 SWAP1 PUSH2 0x2AFA JUMP JUMPDEST PUSH2 0x213F SWAP2 SWAP1 PUSH2 0x2AC9 JUMP JUMPDEST SWAP1 POP PUSH1 0x4 DUP4 EQ ISZERO PUSH2 0x215A JUMPI PUSH1 0x2 DUP2 PUSH2 0x2157 SWAP2 SWAP1 PUSH2 0x2AC9 JUMP JUMPDEST SWAP1 POP JUMPDEST PUSH1 0x1 PUSH1 0x0 SWAP1 SLOAD SWAP1 PUSH2 0x100 EXP SWAP1 DIV PUSH20 0xFFFFFFFFFFFFFFFFFFFFFFFFFFFFFFFFFFFFFFFF AND PUSH20 0xFFFFFFFFFFFFFFFFFFFFFFFFFFFFFFFFFFFFFFFF AND PUSH4 0xA9059CBB DUP7 DUP4 PUSH1 0x40 MLOAD DUP4 PUSH4 0xFFFFFFFF AND PUSH1 0xE0 SHL DUP2 MSTORE PUSH1 0x4 ADD PUSH2 0x21B7 SWAP3 SWAP2 SWAP1 PUSH2 0x2803 JUMP JUMPDEST PUSH1 0x20 PUSH1 0x40 MLOAD DUP1 DUP4 SUB DUP2 PUSH1 0x0 DUP8 DUP1 EXTCODESIZE ISZERO DUP1 ISZERO PUSH2 0x21D1 JUMPI PUSH1 0x0 DUP1 REVERT JUMPDEST POP GAS CALL ISZERO DUP1 ISZERO PUSH2 0x21E5 JUMPI RETURNDATASIZE PUSH1 0x0 DUP1 RETURNDATACOPY RETURNDATASIZE PUSH1 0x0 REVERT JUMPDEST POP POP POP POP PUSH1 0x40 MLOAD RETURNDATASIZE PUSH1 0x1F NOT PUSH1 0x1F DUP3 ADD AND DUP3 ADD DUP1 PUSH1 0x40 MSTORE POP DUP2 ADD SWAP1 PUSH2 0x2209 SWAP2 SWAP1 PUSH2 0x23AD JUMP JUMPDEST POP DUP1 PUSH1 0xB PUSH1 0x0 DUP8 PUSH20 0xFFFFFFFFFFFFFFFFFFFFFFFFFFFFFFFFFFFFFFFF AND PUSH20 0xFFFFFFFFFFFFFFFFFFFFFFFFFFFFFFFFFFFFFFFF AND DUP2 MSTORE PUSH1 0x20 ADD SWAP1 DUP2 MSTORE PUSH1 0x20 ADD PUSH1 0x0 KECCAK256 PUSH1 0x3 ADD PUSH1 0x0 DUP5 DUP2 MSTORE PUSH1 0x20 ADD SWAP1 DUP2 MSTORE PUSH1 0x20 ADD PUSH1 0x0 KECCAK256 PUSH1 0x0 ADD PUSH1 0x0 DUP3 DUP3 SLOAD PUSH2 0x2270 SWAP2 SWAP1 PUSH2 0x2A73 JUMP JUMPDEST SWAP3 POP POP DUP2 SWAP1 SSTORE POP PUSH1 0xB PUSH1 0x0 DUP7 PUSH20 0xFFFFFFFFFFFFFFFFFFFFFFFFFFFFFFFFFFFFFFFF AND PUSH20 0xFFFFFFFFFFFFFFFFFFFFFFFFFFFFFFFFFFFFFFFF AND DUP2 MSTORE PUSH1 0x20 ADD SWAP1 DUP2 MSTORE PUSH1 0x20 ADD PUSH1 0x0 KECCAK256 PUSH1 0x3 ADD PUSH1 0x0 DUP4 DUP2 MSTORE PUSH1 0x20 ADD SWAP1 DUP2 MSTORE PUSH1 0x20 ADD PUSH1 0x0 KECCAK256 PUSH1 0x1 ADD PUSH1 0x0 DUP2 SLOAD DUP1 SWAP3 SWAP2 SWAP1 PUSH2 0x22DE SWAP1 PUSH2 0x2BD0 JUMP JUMPDEST SWAP2 SWAP1 POP SSTORE POP POP PUSH2 0x22EE JUMP JUMPDEST PUSH2 0x2301 JUMP JUMPDEST DUP1 DUP1 PUSH2 0x22F9 SWAP1 PUSH2 0x2BD0 JUMP JUMPDEST SWAP2 POP POP PUSH2 0x1F9E JUMP JUMPDEST POP POP POP POP POP POP JUMP JUMPDEST PUSH1 0x40 MLOAD DUP1 PUSH1 0xC0 ADD PUSH1 0x40 MSTORE DUP1 PUSH1 0x0 DUP2 MSTORE PUSH1 0x20 ADD PUSH1 0x0 DUP2 MSTORE PUSH1 0x20 ADD PUSH1 0x0 DUP2 MSTORE PUSH1 0x20 ADD PUSH1 0x0 DUP2 MSTORE PUSH1 0x20 ADD PUSH1 0x0 DUP2 MSTORE PUSH1 0x20 ADD PUSH1 0x0 ISZERO ISZERO DUP2 MSTORE POP SWAP1 JUMP JUMPDEST PUSH1 0x0 DUP2 CALLDATALOAD SWAP1 POP PUSH2 0x2350 DUP2 PUSH2 0x2E16 JUMP JUMPDEST SWAP3 SWAP2 POP POP JUMP JUMPDEST PUSH1 0x0 DUP2 MLOAD SWAP1 POP PUSH2 0x2365 DUP2 PUSH2 0x2E2D JUMP JUMPDEST SWAP3 SWAP2 POP POP JUMP JUMPDEST PUSH1 0x0 DUP2 CALLDATALOAD SWAP1 POP PUSH2 0x237A DUP2 PUSH2 0x2E44 JUMP JUMPDEST SWAP3 SWAP2 POP POP JUMP JUMPDEST PUSH1 0x0 PUSH1 0x20 DUP3 DUP5 SUB SLT ISZERO PUSH2 0x2396 JUMPI PUSH2 0x2395 PUSH2 0x2CD5 JUMP JUMPDEST JUMPDEST PUSH1 0x0 PUSH2 0x23A4 DUP5 DUP3 DUP6 ADD PUSH2 0x2341 JUMP JUMPDEST SWAP2 POP POP SWAP3 SWAP2 POP POP JUMP JUMPDEST PUSH1 0x0 PUSH1 0x20 DUP3 DUP5 SUB SLT ISZERO PUSH2 0x23C3 JUMPI PUSH2 0x23C2 PUSH2 0x2CD5 JUMP JUMPDEST JUMPDEST PUSH1 0x0 PUSH2 0x23D1 DUP5 DUP3 DUP6 ADD PUSH2 0x2356 JUMP JUMPDEST SWAP2 POP POP SWAP3 SWAP2 POP POP JUMP JUMPDEST PUSH1 0x0 PUSH1 0x20 DUP3 DUP5 SUB SLT ISZERO PUSH2 0x23F0 JUMPI PUSH2 0x23EF PUSH2 0x2CD5 JUMP JUMPDEST JUMPDEST PUSH1 0x0 PUSH2 0x23FE DUP5 DUP3 DUP6 ADD PUSH2 0x236B JUMP JUMPDEST SWAP2 POP POP SWAP3 SWAP2 POP POP JUMP JUMPDEST PUSH1 0x0 DUP1 PUSH1 0x40 DUP4 DUP6 SUB SLT ISZERO PUSH2 0x241E JUMPI PUSH2 0x241D PUSH2 0x2CD5 JUMP JUMPDEST JUMPDEST PUSH1 0x0 PUSH2 0x242C DUP6 DUP3 DUP7 ADD PUSH2 0x236B JUMP JUMPDEST SWAP3 POP POP PUSH1 0x20 PUSH2 0x243D DUP6 DUP3 DUP7 ADD PUSH2 0x2341 JUMP JUMPDEST SWAP2 POP POP SWAP3 POP SWAP3 SWAP1 POP JUMP JUMPDEST PUSH1 0x0 DUP1 PUSH1 0x40 DUP4 DUP6 SUB SLT ISZERO PUSH2 0x245E JUMPI PUSH2 0x245D PUSH2 0x2CD5 JUMP JUMPDEST JUMPDEST PUSH1 0x0 PUSH2 0x246C DUP6 DUP3 DUP7 ADD PUSH2 0x236B JUMP JUMPDEST SWAP3 POP POP PUSH1 0x20 PUSH2 0x247D DUP6 DUP3 DUP7 ADD PUSH2 0x236B JUMP JUMPDEST SWAP2 POP POP SWAP3 POP SWAP3 SWAP1 POP JUMP JUMPDEST PUSH1 0x0 DUP1 PUSH1 0x0 DUP1 PUSH1 0x80 DUP6 DUP8 SUB SLT ISZERO PUSH2 0x24A1 JUMPI PUSH2 0x24A0 PUSH2 0x2CD5 JUMP JUMPDEST JUMPDEST PUSH1 0x0 PUSH2 0x24AF DUP8 DUP3 DUP9 ADD PUSH2 0x236B JUMP JUMPDEST SWAP5 POP POP PUSH1 0x20 PUSH2 0x24C0 DUP8 DUP3 DUP9 ADD PUSH2 0x236B JUMP JUMPDEST SWAP4 POP POP PUSH1 0x40 PUSH2 0x24D1 DUP8 DUP3 DUP9 ADD PUSH2 0x236B JUMP JUMPDEST SWAP3 POP POP PUSH1 0x60 PUSH2 0x24E2 DUP8 DUP3 DUP9 ADD PUSH2 0x236B JUMP JUMPDEST SWAP2 POP POP SWAP3 SWAP6 SWAP2 SWAP5 POP SWAP3 POP JUMP JUMPDEST PUSH1 0x0 PUSH2 0x24FA DUP4 DUP4 PUSH2 0x2536 JUMP JUMPDEST PUSH1 0x20 DUP4 ADD SWAP1 POP SWAP3 SWAP2 POP POP JUMP JUMPDEST PUSH1 0x0 PUSH2 0x2512 DUP4 DUP4 PUSH2 0x2718 JUMP JUMPDEST PUSH1 0xC0 DUP4 ADD SWAP1 POP SWAP3 SWAP2 POP POP JUMP JUMPDEST PUSH1 0x0 PUSH2 0x252A DUP4 DUP4 PUSH2 0x2793 JUMP JUMPDEST PUSH1 0x20 DUP4 ADD SWAP1 POP SWAP3 SWAP2 POP POP JUMP JUMPDEST PUSH2 0x253F DUP2 PUSH2 0x2B88 JUMP JUMPDEST DUP3 MSTORE POP POP JUMP JUMPDEST PUSH2 0x254E DUP2 PUSH2 0x2B88 JUMP JUMPDEST DUP3 MSTORE POP POP JUMP JUMPDEST PUSH1 0x0 PUSH2 0x255F DUP3 PUSH2 0x29E7 JUMP JUMPDEST PUSH2 0x2569 DUP2 DUP6 PUSH2 0x2A2F JUMP JUMPDEST SWAP4 POP PUSH2 0x2574 DUP4 PUSH2 0x29B7 JUMP JUMPDEST DUP1 PUSH1 0x0 JUMPDEST DUP4 DUP2 LT ISZERO PUSH2 0x25A5 JUMPI DUP2 MLOAD PUSH2 0x258C DUP9 DUP3 PUSH2 0x24EE JUMP JUMPDEST SWAP8 POP PUSH2 0x2597 DUP4 PUSH2 0x2A08 JUMP JUMPDEST SWAP3 POP POP PUSH1 0x1 DUP2 ADD SWAP1 POP PUSH2 0x2578 JUMP JUMPDEST POP DUP6 SWAP4 POP POP POP POP SWAP3 SWAP2 POP POP JUMP JUMPDEST PUSH1 0x0 PUSH2 0x25BD DUP3 PUSH2 0x29F2 JUMP JUMPDEST PUSH2 0x25C7 DUP2 DUP6 PUSH2 0x2A40 JUMP JUMPDEST SWAP4 POP PUSH2 0x25D2 DUP4 PUSH2 0x29C7 JUMP JUMPDEST DUP1 PUSH1 0x0 JUMPDEST DUP4 DUP2 LT ISZERO PUSH2 0x2603 JUMPI DUP2 MLOAD PUSH2 0x25EA DUP9 DUP3 PUSH2 0x2506 JUMP JUMPDEST SWAP8 POP PUSH2 0x25F5 DUP4 PUSH2 0x2A15 JUMP JUMPDEST SWAP3 POP POP PUSH1 0x1 DUP2 ADD SWAP1 POP PUSH2 0x25D6 JUMP JUMPDEST POP DUP6 SWAP4 POP POP POP POP SWAP3 SWAP2 POP POP JUMP JUMPDEST PUSH1 0x0 PUSH2 0x261B DUP3 PUSH2 0x29FD JUMP JUMPDEST PUSH2 0x2625 DUP2 DUP6 PUSH2 0x2A51 JUMP JUMPDEST SWAP4 POP PUSH2 0x2630 DUP4 PUSH2 0x29D7 JUMP JUMPDEST DUP1 PUSH1 0x0 JUMPDEST DUP4 DUP2 LT ISZERO PUSH2 0x2661 JUMPI DUP2 MLOAD PUSH2 0x2648 DUP9 DUP3 PUSH2 0x251E JUMP JUMPDEST SWAP8 POP PUSH2 0x2653 DUP4 PUSH2 0x2A22 JUMP JUMPDEST SWAP3 POP POP PUSH1 0x1 DUP2 ADD SWAP1 POP PUSH2 0x2634 JUMP JUMPDEST POP DUP6 SWAP4 POP POP POP POP SWAP3 SWAP2 POP POP JUMP JUMPDEST PUSH2 0x2677 DUP2 PUSH2 0x2B9A JUMP JUMPDEST DUP3 MSTORE POP POP JUMP JUMPDEST PUSH2 0x2686 DUP2 PUSH2 0x2B9A JUMP JUMPDEST DUP3 MSTORE POP POP JUMP JUMPDEST PUSH1 0x0 PUSH2 0x2699 PUSH1 0x25 DUP4 PUSH2 0x2A62 JUMP JUMPDEST SWAP2 POP PUSH2 0x26A4 DUP3 PUSH2 0x2CDA JUMP JUMPDEST PUSH1 0x40 DUP3 ADD SWAP1 POP SWAP2 SWAP1 POP JUMP JUMPDEST PUSH1 0x0 PUSH2 0x26BC PUSH1 0x35 DUP4 PUSH2 0x2A62 JUMP JUMPDEST SWAP2 POP PUSH2 0x26C7 DUP3 PUSH2 0x2D29 JUMP JUMPDEST PUSH1 0x40 DUP3 ADD SWAP1 POP SWAP2 SWAP1 POP JUMP JUMPDEST PUSH1 0x0 PUSH2 0x26DF PUSH1 0x22 DUP4 PUSH2 0x2A62 JUMP JUMPDEST SWAP2 POP PUSH2 0x26EA DUP3 PUSH2 0x2D78 JUMP JUMPDEST PUSH1 0x40 DUP3 ADD SWAP1 POP SWAP2 SWAP1 POP JUMP JUMPDEST PUSH1 0x0 PUSH2 0x2702 PUSH1 0x21 DUP4 PUSH2 0x2A62 JUMP JUMPDEST SWAP2 POP PUSH2 0x270D DUP3 PUSH2 0x2DC7 JUMP JUMPDEST PUSH1 0x40 DUP3 ADD SWAP1 POP SWAP2 SWAP1 POP JUMP JUMPDEST PUSH1 0xC0 DUP3 ADD PUSH1 0x0 DUP3 ADD MLOAD PUSH2 0x272E PUSH1 0x0 DUP6 ADD DUP3 PUSH2 0x2793 JUMP JUMPDEST POP PUSH1 0x20 DUP3 ADD MLOAD PUSH2 0x2741 PUSH1 0x20 DUP6 ADD DUP3 PUSH2 0x2793 JUMP JUMPDEST POP PUSH1 0x40 DUP3 ADD MLOAD PUSH2 0x2754 PUSH1 0x40 DUP6 ADD DUP3 PUSH2 0x2793 JUMP JUMPDEST POP PUSH1 0x60 DUP3 ADD MLOAD PUSH2 0x2767 PUSH1 0x60 DUP6 ADD DUP3 PUSH2 0x2793 JUMP JUMPDEST POP PUSH1 0x80 DUP3 ADD MLOAD PUSH2 0x277A PUSH1 0x80 DUP6 ADD DUP3 PUSH2 0x2793 JUMP JUMPDEST POP PUSH1 0xA0 DUP3 ADD MLOAD PUSH2 0x278D PUSH1 0xA0 DUP6 ADD DUP3 PUSH2 0x266E JUMP JUMPDEST POP POP POP POP JUMP JUMPDEST PUSH2 0x279C DUP2 PUSH2 0x2BC6 JUMP JUMPDEST DUP3 MSTORE POP POP JUMP JUMPDEST PUSH2 0x27AB DUP2 PUSH2 0x2BC6 JUMP JUMPDEST DUP3 MSTORE POP POP JUMP JUMPDEST PUSH1 0x0 PUSH1 0x20 DUP3 ADD SWAP1 POP PUSH2 0x27C6 PUSH1 0x0 DUP4 ADD DUP5 PUSH2 0x2545 JUMP JUMPDEST SWAP3 SWAP2 POP POP JUMP JUMPDEST PUSH1 0x0 PUSH1 0x60 DUP3 ADD SWAP1 POP PUSH2 0x27E1 PUSH1 0x0 DUP4 ADD DUP7 PUSH2 0x2545 JUMP JUMPDEST PUSH2 0x27EE PUSH1 0x20 DUP4 ADD DUP6 PUSH2 0x2545 JUMP JUMPDEST PUSH2 0x27FB PUSH1 0x40 DUP4 ADD DUP5 PUSH2 0x27A2 JUMP JUMPDEST SWAP5 SWAP4 POP POP POP POP JUMP JUMPDEST PUSH1 0x0 PUSH1 0x40 DUP3 ADD SWAP1 POP PUSH2 0x2818 PUSH1 0x0 DUP4 ADD DUP6 PUSH2 0x2545 JUMP JUMPDEST PUSH2 0x2825 PUSH1 0x20 DUP4 ADD DUP5 PUSH2 0x27A2 JUMP JUMPDEST SWAP4 SWAP3 POP POP POP JUMP JUMPDEST PUSH1 0x0 PUSH1 0xE0 DUP3 ADD SWAP1 POP PUSH2 0x2841 PUSH1 0x0 DUP4 ADD DUP11 PUSH2 0x2545 JUMP JUMPDEST PUSH2 0x284E PUSH1 0x20 DUP4 ADD DUP10 PUSH2 0x27A2 JUMP JUMPDEST PUSH2 0x285B PUSH1 0x40 DUP4 ADD DUP9 PUSH2 0x27A2 JUMP JUMPDEST PUSH2 0x2868 PUSH1 0x60 DUP4 ADD DUP8 PUSH2 0x27A2 JUMP JUMPDEST PUSH2 0x2875 PUSH1 0x80 DUP4 ADD DUP7 PUSH2 0x27A2 JUMP JUMPDEST PUSH2 0x2882 PUSH1 0xA0 DUP4 ADD DUP6 PUSH2 0x267D JUMP JUMPDEST PUSH2 0x288F PUSH1 0xC0 DUP4 ADD DUP5 PUSH2 0x27A2 JUMP JUMPDEST SWAP9 SWAP8 POP POP POP POP POP POP POP POP JUMP JUMPDEST PUSH1 0x0 PUSH1 0x20 DUP3 ADD SWAP1 POP DUP2 DUP2 SUB PUSH1 0x0 DUP4 ADD MSTORE PUSH2 0x28B5 DUP2 DUP5 PUSH2 0x2554 JUMP JUMPDEST SWAP1 POP SWAP3 SWAP2 POP POP JUMP JUMPDEST PUSH1 0x0 PUSH1 0x20 DUP3 ADD SWAP1 POP DUP2 DUP2 SUB PUSH1 0x0 DUP4 ADD MSTORE PUSH2 0x28D7 DUP2 DUP5 PUSH2 0x25B2 JUMP JUMPDEST SWAP1 POP SWAP3 SWAP2 POP POP JUMP JUMPDEST PUSH1 0x0 PUSH1 0x20 DUP3 ADD SWAP1 POP DUP2 DUP2 SUB PUSH1 0x0 DUP4 ADD MSTORE PUSH2 0x28F9 DUP2 DUP5 PUSH2 0x2610 JUMP JUMPDEST SWAP1 POP SWAP3 SWAP2 POP POP JUMP JUMPDEST PUSH1 0x0 PUSH1 0x20 DUP3 ADD SWAP1 POP PUSH2 0x2916 PUSH1 0x0 DUP4 ADD DUP5 PUSH2 0x267D JUMP JUMPDEST SWAP3 SWAP2 POP POP JUMP JUMPDEST PUSH1 0x0 PUSH1 0x20 DUP3 ADD SWAP1 POP DUP2 DUP2 SUB PUSH1 0x0 DUP4 ADD MSTORE PUSH2 0x2935 DUP2 PUSH2 0x268C JUMP JUMPDEST SWAP1 POP SWAP2 SWAP1 POP JUMP JUMPDEST PUSH1 0x0 PUSH1 0x20 DUP3 ADD SWAP1 POP DUP2 DUP2 SUB PUSH1 0x0 DUP4 ADD MSTORE PUSH2 0x2955 DUP2 PUSH2 0x26AF JUMP JUMPDEST SWAP1 POP SWAP2 SWAP1 POP JUMP JUMPDEST PUSH1 0x0 PUSH1 0x20 DUP3 ADD SWAP1 POP DUP2 DUP2 SUB PUSH1 0x0 DUP4 ADD MSTORE PUSH2 0x2975 DUP2 PUSH2 0x26D2 JUMP JUMPDEST SWAP1 POP SWAP2 SWAP1 POP JUMP JUMPDEST PUSH1 0x0 PUSH1 0x20 DUP3 ADD SWAP1 POP DUP2 DUP2 SUB PUSH1 0x0 DUP4 ADD MSTORE PUSH2 0x2995 DUP2 PUSH2 0x26F5 JUMP JUMPDEST SWAP1 POP SWAP2 SWAP1 POP JUMP JUMPDEST PUSH1 0x0 PUSH1 0x20 DUP3 ADD SWAP1 POP PUSH2 0x29B1 PUSH1 0x0 DUP4 ADD DUP5 PUSH2 0x27A2 JUMP JUMPDEST SWAP3 SWAP2 POP POP JUMP JUMPDEST PUSH1 0x0 DUP2 SWAP1 POP PUSH1 0x20 DUP3 ADD SWAP1 POP SWAP2 SWAP1 POP JUMP JUMPDEST PUSH1 0x0 DUP2 SWAP1 POP PUSH1 0x20 DUP3 ADD SWAP1 POP SWAP2 SWAP1 POP JUMP JUMPDEST PUSH1 0x0 DUP2 SWAP1 POP PUSH1 0x20 DUP3 ADD SWAP1 POP SWAP2 SWAP1 POP JUMP JUMPDEST PUSH1 0x0 DUP2 MLOAD SWAP1 POP SWAP2 SWAP1 POP JUMP JUMPDEST PUSH1 0x0 DUP2 MLOAD SWAP1 POP SWAP2 SWAP1 POP JUMP JUMPDEST PUSH1 0x0 DUP2 MLOAD SWAP1 POP SWAP2 SWAP1 POP JUMP JUMPDEST PUSH1 0x0 PUSH1 0x20 DUP3 ADD SWAP1 POP SWAP2 SWAP1 POP JUMP JUMPDEST PUSH1 0x0 PUSH1 0x20 DUP3 ADD SWAP1 POP SWAP2 SWAP1 POP JUMP JUMPDEST PUSH1 0x0 PUSH1 0x20 DUP3 ADD SWAP1 POP SWAP2 SWAP1 POP JUMP JUMPDEST PUSH1 0x0 DUP3 DUP3 MSTORE PUSH1 0x20 DUP3 ADD SWAP1 POP SWAP3 SWAP2 POP POP JUMP JUMPDEST PUSH1 0x0 DUP3 DUP3 MSTORE PUSH1 0x20 DUP3 ADD SWAP1 POP SWAP3 SWAP2 POP POP JUMP JUMPDEST PUSH1 0x0 DUP3 DUP3 MSTORE PUSH1 0x20 DUP3 ADD SWAP1 POP SWAP3 SWAP2 POP POP JUMP JUMPDEST PUSH1 0x0 DUP3 DUP3 MSTORE PUSH1 0x20 DUP3 ADD SWAP1 POP SWAP3 SWAP2 POP POP JUMP JUMPDEST PUSH1 0x0 PUSH2 0x2A7E DUP3 PUSH2 0x2BC6 JUMP JUMPDEST SWAP2 POP PUSH2 0x2A89 DUP4 PUSH2 0x2BC6 JUMP JUMPDEST SWAP3 POP DUP3 PUSH32 0xFFFFFFFFFFFFFFFFFFFFFFFFFFFFFFFFFFFFFFFFFFFFFFFFFFFFFFFFFFFFFFFF SUB DUP3 GT ISZERO PUSH2 0x2ABE JUMPI PUSH2 0x2ABD PUSH2 0x2C19 JUMP JUMPDEST JUMPDEST DUP3 DUP3 ADD SWAP1 POP SWAP3 SWAP2 POP POP JUMP JUMPDEST PUSH1 0x0 PUSH2 0x2AD4 DUP3 PUSH2 0x2BC6 JUMP JUMPDEST SWAP2 POP PUSH2 0x2ADF DUP4 PUSH2 0x2BC6 JUMP JUMPDEST SWAP3 POP DUP3 PUSH2 0x2AEF JUMPI PUSH2 0x2AEE PUSH2 0x2C48 JUMP JUMPDEST JUMPDEST DUP3 DUP3 DIV SWAP1 POP SWAP3 SWAP2 POP POP JUMP JUMPDEST PUSH1 0x0 PUSH2 0x2B05 DUP3 PUSH2 0x2BC6 JUMP JUMPDEST SWAP2 POP PUSH2 0x2B10 DUP4 PUSH2 0x2BC6 JUMP JUMPDEST SWAP3 POP DUP2 PUSH32 0xFFFFFFFFFFFFFFFFFFFFFFFFFFFFFFFFFFFFFFFFFFFFFFFFFFFFFFFFFFFFFFFF DIV DUP4 GT DUP3 ISZERO ISZERO AND ISZERO PUSH2 0x2B49 JUMPI PUSH2 0x2B48 PUSH2 0x2C19 JUMP JUMPDEST JUMPDEST DUP3 DUP3 MUL SWAP1 POP SWAP3 SWAP2 POP POP JUMP JUMPDEST PUSH1 0x0 PUSH2 0x2B5F DUP3 PUSH2 0x2BC6 JUMP JUMPDEST SWAP2 POP PUSH2 0x2B6A DUP4 PUSH2 0x2BC6 JUMP JUMPDEST SWAP3 POP DUP3 DUP3 LT ISZERO PUSH2 0x2B7D JUMPI PUSH2 0x2B7C PUSH2 0x2C19 JUMP JUMPDEST JUMPDEST DUP3 DUP3 SUB SWAP1 POP SWAP3 SWAP2 POP POP JUMP JUMPDEST PUSH1 0x0 PUSH2 0x2B93 DUP3 PUSH2 0x2BA6 JUMP JUMPDEST SWAP1 POP SWAP2 SWAP1 POP JUMP JUMPDEST PUSH1 0x0 DUP2 ISZERO ISZERO SWAP1 POP SWAP2 SWAP1 POP JUMP JUMPDEST PUSH1 0x0 PUSH20 0xFFFFFFFFFFFFFFFFFFFFFFFFFFFFFFFFFFFFFFFF DUP3 AND SWAP1 POP SWAP2 SWAP1 POP JUMP JUMPDEST PUSH1 0x0 DUP2 SWAP1 POP SWAP2 SWAP1 POP JUMP JUMPDEST PUSH1 0x0 PUSH2 0x2BDB DUP3 PUSH2 0x2BC6 JUMP JUMPDEST SWAP2 POP PUSH32 0xFFFFFFFFFFFFFFFFFFFFFFFFFFFFFFFFFFFFFFFFFFFFFFFFFFFFFFFFFFFFFFFF DUP3 EQ ISZERO PUSH2 0x2C0E JUMPI PUSH2 0x2C0D PUSH2 0x2C19 JUMP JUMPDEST JUMPDEST PUSH1 0x1 DUP3 ADD SWAP1 POP SWAP2 SWAP1 POP JUMP JUMPDEST PUSH32 0x4E487B7100000000000000000000000000000000000000000000000000000000 PUSH1 0x0 MSTORE PUSH1 0x11 PUSH1 0x4 MSTORE PUSH1 0x24 PUSH1 0x0 REVERT JUMPDEST PUSH32 0x4E487B7100000000000000000000000000000000000000000000000000000000 PUSH1 0x0 MSTORE PUSH1 0x12 PUSH1 0x4 MSTORE PUSH1 0x24 PUSH1 0x0 REVERT JUMPDEST PUSH32 0x4E487B7100000000000000000000000000000000000000000000000000000000 PUSH1 0x0 MSTORE PUSH1 0x32 PUSH1 0x4 MSTORE PUSH1 0x24 PUSH1 0x0 REVERT JUMPDEST PUSH32 0x4E487B7100000000000000000000000000000000000000000000000000000000 PUSH1 0x0 MSTORE PUSH1 0x41 PUSH1 0x4 MSTORE PUSH1 0x24 PUSH1 0x0 REVERT JUMPDEST PUSH1 0x0 DUP1 REVERT JUMPDEST PUSH32 0x796F7520646F6E74206861766520696E766573746D656E7420746F2077697468 PUSH1 0x0 DUP3 ADD MSTORE PUSH32 0x647261776E000000000000000000000000000000000000000000000000000000 PUSH1 0x20 DUP3 ADD MSTORE POP JUMP JUMPDEST PUSH32 0x76616C7565206973206E6F742067726561746572207468616E20313030303020 PUSH1 0x0 DUP3 ADD MSTORE PUSH32 0x616E64206C657373207468616E20353030303030300000000000000000000000 PUSH1 0x20 DUP3 ADD MSTORE POP JUMP JUMPDEST PUSH32 0x796F7520646F6E742068617665207265776172647320746F2077697468647261 PUSH1 0x0 DUP3 ADD MSTORE PUSH32 0x776E000000000000000000000000000000000000000000000000000000000000 PUSH1 0x20 DUP3 ADD MSTORE POP JUMP JUMPDEST PUSH32 0x6F6E6C79204F776E65722063616E2063616C6C20746869732066756E6374696F PUSH1 0x0 DUP3 ADD MSTORE PUSH32 0x6E00000000000000000000000000000000000000000000000000000000000000 PUSH1 0x20 DUP3 ADD MSTORE POP JUMP JUMPDEST PUSH2 0x2E1F DUP2 PUSH2 0x2B88 JUMP JUMPDEST DUP2 EQ PUSH2 0x2E2A JUMPI PUSH1 0x0 DUP1 REVERT JUMPDEST POP JUMP JUMPDEST PUSH2 0x2E36 DUP2 PUSH2 0x2B9A JUMP JUMPDEST DUP2 EQ PUSH2 0x2E41 JUMPI PUSH1 0x0 DUP1 REVERT JUMPDEST POP JUMP JUMPDEST PUSH2 0x2E4D DUP2 PUSH2 0x2BC6 JUMP JUMPDEST DUP2 EQ PUSH2 0x2E58 JUMPI PUSH1 0x0 DUP1 REVERT JUMPDEST POP JUMP INVALID LOG2 PUSH5 0x6970667358 0x22 SLT KECCAK256 0xC9 0xC9 SELFBALANCE LOG3 BALANCE 0x1E MUL PUSH12 0x855E40F3F916A08599EBB27E SLOAD ADDMOD MOD CALL SWAP7 0xD8 0xE9 0xDA 0xB7 CALLDATASIZE 0xD0 PC PUSH5 0x736F6C6343 STOP ADDMOD SMOD STOP CALLER "
				},
				"gasEstimates": {
					"creation": {
						"codeDepositCost": "2384200",
						"executionCost": "185890",
						"totalCost": "2570090"
					},
					"external": {
						"DUSDReferralsList()": "infinite",
						"DUSDTotalReferrals()": "2608",
						"DUSDinvestor(address)": "infinite",
						"Stake(uint256,address)": "infinite",
						"denomenator()": "2474",
						"getAllDUSDinvestments()": "infinite",
						"getReward()": "infinite",
						"getTotalInvestmentDUSD()": "2555",
						"investmentPeriod()": "2518",
						"max_Stake_amount()": "2561",
						"min_Stake_amount()": "2540",
						"owner()": "2644",
						"referralLevel_count()": "infinite",
						"referralLevel_earning()": "infinite",
						"rewardToken()": "2539",
						"setReward(uint256,uint256)": "infinite",
						"set_max_Stake_amount(uint256)": "22587",
						"set_min_Stake_amount(uint256)": "22632",
						"set_values(uint256,uint256,uint256,uint256)": "infinite",
						"totalDUSDInvestors()": "2475",
						"totalbusiness()": "2473",
						"transferOwnership(address)": "26955",
						"unStake()": "infinite",
						"withdrawReward()": "infinite"
					},
					"internal": {
						"sendRewardToDUSDReferrals(address,uint256)": "infinite"
					}
				},
				"methodIdentifiers": {
					"DUSDReferralsList()": "0c5f58f4",
					"DUSDTotalReferrals()": "1e8aba35",
					"DUSDinvestor(address)": "d3560ee8",
					"Stake(uint256,address)": "2bccdce6",
					"denomenator()": "9740a1bc",
					"getAllDUSDinvestments()": "3a1e0833",
					"getReward()": "3d18b912",
					"getTotalInvestmentDUSD()": "929f6bbe",
					"investmentPeriod()": "523cddfe",
					"max_Stake_amount()": "fae730bc",
					"min_Stake_amount()": "bc67eaff",
					"owner()": "8da5cb5b",
					"referralLevel_count()": "f790b81a",
					"referralLevel_earning()": "a61be99d",
					"rewardToken()": "f7c618c1",
					"setReward(uint256,uint256)": "a47bd496",
					"set_max_Stake_amount(uint256)": "500cb85f",
					"set_min_Stake_amount(uint256)": "32d4e783",
					"set_values(uint256,uint256,uint256,uint256)": "4eb1ecc9",
					"totalDUSDInvestors()": "10cde60a",
					"totalbusiness()": "e2033fcb",
					"transferOwnership(address)": "f2fde38b",
					"unStake()": "73cf575a",
					"withdrawReward()": "c885bc58"
				}
			},
			"storageLayout": {
				"storage": [
					{
						"astId": 24,
						"contract": "contracts/stake_reward_MLM.sol:Invest",
						"label": "owner",
						"offset": 0,
						"slot": "0",
						"type": "t_address"
					},
					{
						"astId": 27,
						"contract": "contracts/stake_reward_MLM.sol:Invest",
						"label": "SMCcontract",
						"offset": 0,
						"slot": "1",
						"type": "t_address"
					},
					{
						"astId": 30,
						"contract": "contracts/stake_reward_MLM.sol:Invest",
						"label": "BUSDcontract",
						"offset": 0,
						"slot": "2",
						"type": "t_address"
					},
					{
						"astId": 32,
						"contract": "contracts/stake_reward_MLM.sol:Invest",
						"label": "totalDUSDInvestors",
						"offset": 0,
						"slot": "3",
						"type": "t_uint256"
					},
					{
						"astId": 35,
						"contract": "contracts/stake_reward_MLM.sol:Invest",
						"label": "rewardToken",
						"offset": 0,
						"slot": "4",
						"type": "t_uint256"
					},
					{
						"astId": 38,
						"contract": "contracts/stake_reward_MLM.sol:Invest",
						"label": "min_Stake_amount",
						"offset": 0,
						"slot": "5",
						"type": "t_uint256"
					},
					{
						"astId": 41,
						"contract": "contracts/stake_reward_MLM.sol:Invest",
						"label": "max_Stake_amount",
						"offset": 0,
						"slot": "6",
						"type": "t_uint256"
					},
					{
						"astId": 44,
						"contract": "contracts/stake_reward_MLM.sol:Invest",
						"label": "denomenator",
						"offset": 0,
						"slot": "7",
						"type": "t_uint256"
					},
					{
						"astId": 47,
						"contract": "contracts/stake_reward_MLM.sol:Invest",
						"label": "investmentPeriod",
						"offset": 0,
						"slot": "8",
						"type": "t_uint256"
					},
					{
						"astId": 49,
						"contract": "contracts/stake_reward_MLM.sol:Invest",
						"label": "totalbusiness",
						"offset": 0,
						"slot": "9",
						"type": "t_uint256"
					},
					{
						"astId": 51,
						"contract": "contracts/stake_reward_MLM.sol:Invest",
						"label": "rew_till_done",
						"offset": 0,
						"slot": "10",
						"type": "t_uint256"
					},
					{
						"astId": 102,
						"contract": "contracts/stake_reward_MLM.sol:Invest",
						"label": "DUSDinvestor",
						"offset": 0,
						"slot": "11",
						"type": "t_mapping(t_address,t_struct(Data)97_storage)"
					}
				],
				"types": {
					"t_address": {
						"encoding": "inplace",
						"label": "address",
						"numberOfBytes": "20"
					},
					"t_array(t_address)dyn_storage": {
						"base": "t_address",
						"encoding": "dynamic_array",
						"label": "address[]",
						"numberOfBytes": "32"
					},
					"t_bool": {
						"encoding": "inplace",
						"label": "bool",
						"numberOfBytes": "1"
					},
					"t_mapping(t_address,t_struct(Data)97_storage)": {
						"encoding": "mapping",
						"key": "t_address",
						"label": "mapping(address => struct Invest.Data)",
						"numberOfBytes": "32",
						"value": "t_struct(Data)97_storage"
					},
					"t_mapping(t_uint256,t_struct(allInvestments)64_storage)": {
						"encoding": "mapping",
						"key": "t_uint256",
						"label": "mapping(uint256 => struct Invest.allInvestments)",
						"numberOfBytes": "32",
						"value": "t_struct(allInvestments)64_storage"
					},
					"t_mapping(t_uint256,t_struct(ref_data)69_storage)": {
						"encoding": "mapping",
						"key": "t_uint256",
						"label": "mapping(uint256 => struct Invest.ref_data)",
						"numberOfBytes": "32",
						"value": "t_struct(ref_data)69_storage"
					},
					"t_struct(Data)97_storage": {
						"encoding": "inplace",
						"label": "struct Invest.Data",
						"members": [
							{
								"astId": 74,
								"contract": "contracts/stake_reward_MLM.sol:Invest",
								"label": "investment",
								"offset": 0,
								"slot": "0",
								"type": "t_mapping(t_uint256,t_struct(allInvestments)64_storage)"
							},
							{
								"astId": 77,
								"contract": "contracts/stake_reward_MLM.sol:Invest",
								"label": "hisReferrals",
								"offset": 0,
								"slot": "1",
								"type": "t_array(t_address)dyn_storage"
							},
							{
								"astId": 79,
								"contract": "contracts/stake_reward_MLM.sol:Invest",
								"label": "referralFrom",
								"offset": 0,
								"slot": "2",
								"type": "t_address"
							},
							{
								"astId": 84,
								"contract": "contracts/stake_reward_MLM.sol:Invest",
								"label": "referralLevel",
								"offset": 0,
								"slot": "3",
								"type": "t_mapping(t_uint256,t_struct(ref_data)69_storage)"
							},
							{
								"astId": 86,
								"contract": "contracts/stake_reward_MLM.sol:Invest",
								"label": "reward",
								"offset": 0,
								"slot": "4",
								"type": "t_uint256"
							},
							{
								"astId": 88,
								"contract": "contracts/stake_reward_MLM.sol:Invest",
								"label": "noOfInvestment",
								"offset": 0,
								"slot": "5",
								"type": "t_uint256"
							},
							{
								"astId": 90,
								"contract": "contracts/stake_reward_MLM.sol:Invest",
								"label": "totalInvestment",
								"offset": 0,
								"slot": "6",
								"type": "t_uint256"
							},
							{
								"astId": 92,
								"contract": "contracts/stake_reward_MLM.sol:Invest",
								"label": "totalWithdraw_reward",
								"offset": 0,
								"slot": "7",
								"type": "t_uint256"
							},
							{
								"astId": 94,
								"contract": "contracts/stake_reward_MLM.sol:Invest",
								"label": "investBefore",
								"offset": 0,
								"slot": "8",
								"type": "t_bool"
							},
							{
								"astId": 96,
								"contract": "contracts/stake_reward_MLM.sol:Invest",
								"label": "stakeTime",
								"offset": 0,
								"slot": "9",
								"type": "t_uint256"
							}
						],
						"numberOfBytes": "320"
					},
					"t_struct(allInvestments)64_storage": {
						"encoding": "inplace",
						"label": "struct Invest.allInvestments",
						"members": [
							{
								"astId": 53,
								"contract": "contracts/stake_reward_MLM.sol:Invest",
								"label": "investedAmount",
								"offset": 0,
								"slot": "0",
								"type": "t_uint256"
							},
							{
								"astId": 55,
								"contract": "contracts/stake_reward_MLM.sol:Invest",
								"label": "withdrawnTime",
								"offset": 0,
								"slot": "1",
								"type": "t_uint256"
							},
							{
								"astId": 57,
								"contract": "contracts/stake_reward_MLM.sol:Invest",
								"label": "DepositTime",
								"offset": 0,
								"slot": "2",
								"type": "t_uint256"
							},
							{
								"astId": 59,
								"contract": "contracts/stake_reward_MLM.sol:Invest",
								"label": "investmentNum",
								"offset": 0,
								"slot": "3",
								"type": "t_uint256"
							},
							{
								"astId": 61,
								"contract": "contracts/stake_reward_MLM.sol:Invest",
								"label": "unstakeTime",
								"offset": 0,
								"slot": "4",
								"type": "t_uint256"
							},
							{
								"astId": 63,
								"contract": "contracts/stake_reward_MLM.sol:Invest",
								"label": "unstake",
								"offset": 0,
								"slot": "5",
								"type": "t_bool"
							}
						],
						"numberOfBytes": "192"
					},
					"t_struct(ref_data)69_storage": {
						"encoding": "inplace",
						"label": "struct Invest.ref_data",
						"members": [
							{
								"astId": 66,
								"contract": "contracts/stake_reward_MLM.sol:Invest",
								"label": "reward",
								"offset": 0,
								"slot": "0",
								"type": "t_uint256"
							},
							{
								"astId": 68,
								"contract": "contracts/stake_reward_MLM.sol:Invest",
								"label": "count",
								"offset": 0,
								"slot": "1",
								"type": "t_uint256"
							}
						],
						"numberOfBytes": "64"
					},
					"t_uint256": {
						"encoding": "inplace",
						"label": "uint256",
						"numberOfBytes": "32"
					}
				}
			},
			"userdoc": {
				"kind": "user",
				"methods": {},
				"version": 1
			}
		}
	}
}