{
	"contracts/stake_reward_MLM.sol": {
		"Invest": {
			"abi": [
				{
					"inputs": [],
					"stateMutability": "nonpayable",
					"type": "constructor"
				},
				{
					"inputs": [],
					"name": "DUSDReferralsList",
					"outputs": [
						{
							"internalType": "address[]",
							"name": "",
							"type": "address[]"
						}
					],
					"stateMutability": "view",
					"type": "function"
				},
				{
					"inputs": [],
					"name": "DUSDTotalReferrals",
					"outputs": [
						{
							"internalType": "uint256",
							"name": "",
							"type": "uint256"
						}
					],
					"stateMutability": "view",
					"type": "function"
				},
				{
					"inputs": [
						{
							"internalType": "address",
							"name": "",
							"type": "address"
						}
					],
					"name": "DUSDinvestor",
					"outputs": [
						{
							"internalType": "address",
							"name": "referralFrom",
							"type": "address"
						},
						{
							"internalType": "uint256",
							"name": "reward",
							"type": "uint256"
						},
						{
							"internalType": "uint256",
							"name": "noOfInvestment",
							"type": "uint256"
						},
						{
							"internalType": "uint256",
							"name": "totalInvestment",
							"type": "uint256"
						},
						{
							"internalType": "bool",
							"name": "investBefore",
							"type": "bool"
						}
					],
					"stateMutability": "view",
					"type": "function"
				},
				{
					"inputs": [
						{
							"internalType": "uint256",
							"name": "_investedamount",
							"type": "uint256"
						},
						{
							"internalType": "address",
							"name": "_referral",
							"type": "address"
						}
					],
					"name": "Stake",
					"outputs": [
						{
							"internalType": "bool",
							"name": "success",
							"type": "bool"
						}
					],
					"stateMutability": "nonpayable",
					"type": "function"
				},
				{
					"inputs": [],
					"name": "getAllDUSDinvestments",
					"outputs": [
						{
							"components": [
								{
									"internalType": "uint256",
									"name": "investedAmount",
									"type": "uint256"
								},
								{
									"internalType": "uint256",
									"name": "withdrawnTime",
									"type": "uint256"
								},
								{
									"internalType": "uint256",
									"name": "DepositTime",
									"type": "uint256"
								},
								{
									"internalType": "uint256",
									"name": "investmentNum",
									"type": "uint256"
								}
							],
							"internalType": "struct Invest.allInvestments[]",
							"name": "",
							"type": "tuple[]"
						}
					],
					"stateMutability": "view",
					"type": "function"
				},
				{
					"inputs": [],
					"name": "getReward",
					"outputs": [
						{
							"internalType": "uint256",
							"name": "",
							"type": "uint256"
						}
					],
					"stateMutability": "view",
					"type": "function"
				},
				{
					"inputs": [],
					"name": "getTotalInvestmentDUSD",
					"outputs": [
						{
							"internalType": "uint256",
							"name": "",
							"type": "uint256"
						}
					],
					"stateMutability": "view",
					"type": "function"
				},
				{
					"inputs": [],
					"name": "owner",
					"outputs": [
						{
							"internalType": "address",
							"name": "",
							"type": "address"
						}
					],
					"stateMutability": "view",
					"type": "function"
				},
				{
					"inputs": [],
					"name": "referralLevel_earning",
					"outputs": [
						{
							"internalType": "uint256[]",
							"name": "arr",
							"type": "uint256[]"
						}
					],
					"stateMutability": "view",
					"type": "function"
				},
				{
					"inputs": [],
					"name": "rewardToken",
					"outputs": [
						{
							"internalType": "uint256",
							"name": "",
							"type": "uint256"
						}
					],
					"stateMutability": "view",
					"type": "function"
				},
				{
					"inputs": [
						{
							"internalType": "uint256",
							"name": "_amount",
							"type": "uint256"
						}
					],
					"name": "setReward",
					"outputs": [],
					"stateMutability": "nonpayable",
					"type": "function"
				},
				{
					"inputs": [
						{
							"internalType": "uint256",
							"name": "_amount",
							"type": "uint256"
						}
					],
					"name": "set_max_Stake_amount",
					"outputs": [],
					"stateMutability": "nonpayable",
					"type": "function"
				},
				{
					"inputs": [
						{
							"internalType": "uint256",
							"name": "_amount",
							"type": "uint256"
						}
					],
					"name": "set_min_Stake_amount",
					"outputs": [],
					"stateMutability": "nonpayable",
					"type": "function"
				},
				{
					"inputs": [
						{
							"internalType": "uint256",
							"name": "min_stake",
							"type": "uint256"
						},
						{
							"internalType": "uint256",
							"name": "max_stake",
							"type": "uint256"
						},
						{
							"internalType": "uint256",
							"name": "reward_per_day",
							"type": "uint256"
						}
					],
					"name": "set_values",
					"outputs": [],
					"stateMutability": "nonpayable",
					"type": "function"
				},
				{
					"inputs": [],
					"name": "totalDUSDInvestors",
					"outputs": [
						{
							"internalType": "uint256",
							"name": "",
							"type": "uint256"
						}
					],
					"stateMutability": "view",
					"type": "function"
				},
				{
					"inputs": [
						{
							"internalType": "address",
							"name": "_owner",
							"type": "address"
						}
					],
					"name": "transferOwnership",
					"outputs": [],
					"stateMutability": "nonpayable",
					"type": "function"
				},
				{
					"inputs": [
						{
							"internalType": "uint256",
							"name": "_id",
							"type": "uint256"
						}
					],
					"name": "unStake",
					"outputs": [
						{
							"internalType": "bool",
							"name": "success",
							"type": "bool"
						}
					],
					"stateMutability": "nonpayable",
					"type": "function"
				},
				{
					"inputs": [],
					"name": "withdrawReward",
					"outputs": [
						{
							"internalType": "bool",
							"name": "success",
							"type": "bool"
						}
					],
					"stateMutability": "nonpayable",
					"type": "function"
				}
			],
			"devdoc": {
				"kind": "dev",
				"methods": {},
				"version": 1
			},
			"evm": {
				"assembly": "    /* \"contracts/stake_reward_MLM.sol\":262:9859  contract Invest... */\n  mstore(0x40, 0x80)\n    /* \"contracts/stake_reward_MLM.sol\":351:393  0xD902364fE763a130C12457c9FB17E1603374C424 */\n  0xd902364fe763a130c12457c9fb17e1603374c424\n    /* \"contracts/stake_reward_MLM.sol\":331:393  address SMCcontract=0xD902364fE763a130C12457c9FB17E1603374C424 */\n  0x01\n  exp(0x0100, 0x00)\n  dup2\n  sload\n  dup2\n  0xffffffffffffffffffffffffffffffffffffffff\n  mul\n  not\n  and\n  swap1\n  dup4\n  0xffffffffffffffffffffffffffffffffffffffff\n  and\n  mul\n  or\n  swap1\n  sstore\n  pop\n    /* \"contracts/stake_reward_MLM.sol\":424:466  0xB5047153afCc59523F7f6D6F492f716a21B04681 */\n  0xb5047153afcc59523f7f6d6f492f716a21b04681\n    /* \"contracts/stake_reward_MLM.sol\":403:466  address BUSDcontract=0xB5047153afCc59523F7f6D6F492f716a21B04681 */\n  0x02\n  exp(0x0100, 0x00)\n  dup2\n  sload\n  dup2\n  0xffffffffffffffffffffffffffffffffffffffff\n  mul\n  not\n  and\n  swap1\n  dup4\n  0xffffffffffffffffffffffffffffffffffffffff\n  and\n  mul\n  or\n  swap1\n  sstore\n  pop\n    /* \"contracts/stake_reward_MLM.sol\":540:558  500000000000000000 */\n  0x06f05b59d3b20000\n    /* \"contracts/stake_reward_MLM.sol\":516:558  uint public rewardToken=500000000000000000 */\n  0x04\n  sstore\n    /* \"contracts/stake_reward_MLM.sol\":590:592  10 */\n  0x0a\n    /* \"contracts/stake_reward_MLM.sol\":568:592  uint min_Stake_amount=10 */\n  0x05\n  sstore\n    /* \"contracts/stake_reward_MLM.sol\":651:676  5000000000000000000000000 */\n  0x0422ca8b0a00a425000000\n    /* \"contracts/stake_reward_MLM.sol\":629:676  uint max_Stake_amount=5000000000000000000000000 */\n  0x06\n  sstore\n    /* \"contracts/stake_reward_MLM.sol\":736:744  300 days */\n  0x018b8200\n    /* \"contracts/stake_reward_MLM.sol\":714:744  uint investmentPeriod=300 days */\n  0x07\n  sstore\n    /* \"contracts/stake_reward_MLM.sol\":1298:1428  constructor(){... */\n  callvalue\n  dup1\n  iszero\n  tag_1\n  jumpi\n  0x00\n  dup1\n  revert\ntag_1:\n  pop\n    /* \"contracts/stake_reward_MLM.sol\":1344:1354  msg.sender */\n  caller\n    /* \"contracts/stake_reward_MLM.sol\":1338:1343  owner */\n  0x00\n  dup1\n    /* \"contracts/stake_reward_MLM.sol\":1338:1354  owner=msg.sender */\n  0x0100\n  exp\n  dup2\n  sload\n  dup2\n  0xffffffffffffffffffffffffffffffffffffffff\n  mul\n  not\n  and\n  swap1\n  dup4\n  0xffffffffffffffffffffffffffffffffffffffff\n  and\n  mul\n  or\n  swap1\n  sstore\n  pop\n    /* \"contracts/stake_reward_MLM.sol\":262:9859  contract Invest... */\n  dataSize(sub_0)\n  dup1\n  dataOffset(sub_0)\n  0x00\n  codecopy\n  0x00\n  return\nstop\n\nsub_0: assembly {\n        /* \"contracts/stake_reward_MLM.sol\":262:9859  contract Invest... */\n      mstore(0x40, 0x80)\n      callvalue\n      dup1\n      iszero\n      tag_1\n      jumpi\n      0x00\n      dup1\n      revert\n    tag_1:\n      pop\n      jumpi(tag_2, lt(calldatasize, 0x04))\n      shr(0xe0, calldataload(0x00))\n      dup1\n      0x5d3eea91\n      gt\n      tag_21\n      jumpi\n      dup1\n      0xc885bc58\n      gt\n      tag_22\n      jumpi\n      dup1\n      0xc885bc58\n      eq\n      tag_16\n      jumpi\n      dup1\n      0xce10db0a\n      eq\n      tag_17\n      jumpi\n      dup1\n      0xd3560ee8\n      eq\n      tag_18\n      jumpi\n      dup1\n      0xf2fde38b\n      eq\n      tag_19\n      jumpi\n      dup1\n      0xf7c618c1\n      eq\n      tag_20\n      jumpi\n      jump(tag_2)\n    tag_22:\n      dup1\n      0x5d3eea91\n      eq\n      tag_12\n      jumpi\n      dup1\n      0x8da5cb5b\n      eq\n      tag_13\n      jumpi\n      dup1\n      0x929f6bbe\n      eq\n      tag_14\n      jumpi\n      dup1\n      0xa61be99d\n      eq\n      tag_15\n      jumpi\n      jump(tag_2)\n    tag_21:\n      dup1\n      0x2bccdce6\n      gt\n      tag_23\n      jumpi\n      dup1\n      0x2bccdce6\n      eq\n      tag_7\n      jumpi\n      dup1\n      0x32d4e783\n      eq\n      tag_8\n      jumpi\n      dup1\n      0x3a1e0833\n      eq\n      tag_9\n      jumpi\n      dup1\n      0x3d18b912\n      eq\n      tag_10\n      jumpi\n      dup1\n      0x500cb85f\n      eq\n      tag_11\n      jumpi\n      jump(tag_2)\n    tag_23:\n      dup1\n      0x0c5f58f4\n      eq\n      tag_3\n      jumpi\n      dup1\n      0x10cde60a\n      eq\n      tag_4\n      jumpi\n      dup1\n      0x1e8aba35\n      eq\n      tag_5\n      jumpi\n      dup1\n      0x293be456\n      eq\n      tag_6\n      jumpi\n    tag_2:\n      0x00\n      dup1\n      revert\n        /* \"contracts/stake_reward_MLM.sol\":8324:8533  function DUSDReferralsList() public view returns(address[] memory){ //this function is to get the all investors list with there account number... */\n    tag_3:\n      tag_24\n      tag_25\n      jump\t// in\n    tag_24:\n      mload(0x40)\n      tag_26\n      swap2\n      swap1\n      tag_27\n      jump\t// in\n    tag_26:\n      mload(0x40)\n      dup1\n      swap2\n      sub\n      swap1\n      return\n        /* \"contracts/stake_reward_MLM.sol\":476:506  uint public totalDUSDInvestors */\n    tag_4:\n      tag_28\n      tag_29\n      jump\t// in\n    tag_28:\n      mload(0x40)\n      tag_30\n      swap2\n      swap1\n      tag_31\n      jump\t// in\n    tag_30:\n      mload(0x40)\n      dup1\n      swap2\n      sub\n      swap1\n      return\n        /* \"contracts/stake_reward_MLM.sol\":8123:8314  function DUSDTotalReferrals() public view returns(uint){ // this function is to get the total number of referrals ... */\n    tag_5:\n      tag_32\n      tag_33\n      jump\t// in\n    tag_32:\n      mload(0x40)\n      tag_34\n      swap2\n      swap1\n      tag_31\n      jump\t// in\n    tag_34:\n      mload(0x40)\n      dup1\n      swap2\n      sub\n      swap1\n      return\n        /* \"contracts/stake_reward_MLM.sol\":8542:8637  function setReward(uint _amount) public ... */\n    tag_6:\n      tag_35\n      0x04\n      dup1\n      calldatasize\n      sub\n      dup2\n      add\n      swap1\n      tag_36\n      swap2\n      swap1\n      tag_37\n      jump\t// in\n    tag_36:\n      tag_38\n      jump\t// in\n    tag_35:\n      stop\n        /* \"contracts/stake_reward_MLM.sol\":3019:4760  function Stake(uint _investedamount,address _referral) external returns(bool success){... */\n    tag_7:\n      tag_39\n      0x04\n      dup1\n      calldatasize\n      sub\n      dup2\n      add\n      swap1\n      tag_40\n      swap2\n      swap1\n      tag_41\n      jump\t// in\n    tag_40:\n      tag_42\n      jump\t// in\n    tag_39:\n      mload(0x40)\n      tag_43\n      swap2\n      swap1\n      tag_44\n      jump\t// in\n    tag_43:\n      mload(0x40)\n      dup1\n      swap2\n      sub\n      swap1\n      return\n        /* \"contracts/stake_reward_MLM.sol\":8646:8757  function set_min_Stake_amount(uint _amount) public ... */\n    tag_8:\n      tag_45\n      0x04\n      dup1\n      calldatasize\n      sub\n      dup2\n      add\n      swap1\n      tag_46\n      swap2\n      swap1\n      tag_37\n      jump\t// in\n    tag_46:\n      tag_47\n      jump\t// in\n    tag_45:\n      stop\n        /* \"contracts/stake_reward_MLM.sol\":6514:7497  function getAllDUSDinvestments() public view returns (allInvestments[] memory) { //this function will return the all investments of the investor and withware date... */\n    tag_9:\n      tag_48\n      tag_49\n      jump\t// in\n    tag_48:\n      mload(0x40)\n      tag_50\n      swap2\n      swap1\n      tag_51\n      jump\t// in\n    tag_50:\n      mload(0x40)\n      dup1\n      swap2\n      sub\n      swap1\n      return\n        /* \"contracts/stake_reward_MLM.sol\":7507:8113  function getReward() view public returns(uint){ //this function is get the total reward balance of the investor... */\n    tag_10:\n      tag_52\n      tag_53\n      jump\t// in\n    tag_52:\n      mload(0x40)\n      tag_54\n      swap2\n      swap1\n      tag_31\n      jump\t// in\n    tag_54:\n      mload(0x40)\n      dup1\n      swap2\n      sub\n      swap1\n      return\n        /* \"contracts/stake_reward_MLM.sol\":8766:8877  function set_max_Stake_amount(uint _amount) public ... */\n    tag_11:\n      tag_55\n      0x04\n      dup1\n      calldatasize\n      sub\n      dup2\n      add\n      swap1\n      tag_56\n      swap2\n      swap1\n      tag_37\n      jump\t// in\n    tag_56:\n      tag_57\n      jump\t// in\n    tag_55:\n      stop\n        /* \"contracts/stake_reward_MLM.sol\":5188:6284  function unStake(uint _id) external  returns (bool success){... */\n    tag_12:\n      tag_58\n      0x04\n      dup1\n      calldatasize\n      sub\n      dup2\n      add\n      swap1\n      tag_59\n      swap2\n      swap1\n      tag_37\n      jump\t// in\n    tag_59:\n      tag_60\n      jump\t// in\n    tag_58:\n      mload(0x40)\n      tag_61\n      swap2\n      swap1\n      tag_44\n      jump\t// in\n    tag_61:\n      mload(0x40)\n      dup1\n      swap2\n      sub\n      swap1\n      return\n        /* \"contracts/stake_reward_MLM.sol\":300:321  address  public owner */\n    tag_13:\n      tag_62\n      tag_63\n      jump\t// in\n    tag_62:\n      mload(0x40)\n      tag_64\n      swap2\n      swap1\n      tag_65\n      jump\t// in\n    tag_64:\n      mload(0x40)\n      dup1\n      swap2\n      sub\n      swap1\n      return\n        /* \"contracts/stake_reward_MLM.sol\":6294:6504  function getTotalInvestmentDUSD() public view returns(uint) {   //this function is to get the total investment of the ivestor... */\n    tag_14:\n      tag_66\n      tag_67\n      jump\t// in\n    tag_66:\n      mload(0x40)\n      tag_68\n      swap2\n      swap1\n      tag_31\n      jump\t// in\n    tag_68:\n      mload(0x40)\n      dup1\n      swap2\n      sub\n      swap1\n      return\n        /* \"contracts/stake_reward_MLM.sol\":9303:9851  function referralLevel_earning() public view returns( uint[] memory arr )... */\n    tag_15:\n      tag_69\n      tag_70\n      jump\t// in\n    tag_69:\n      mload(0x40)\n      tag_71\n      swap2\n      swap1\n      tag_72\n      jump\t// in\n    tag_71:\n      mload(0x40)\n      dup1\n      swap2\n      sub\n      swap1\n      return\n        /* \"contracts/stake_reward_MLM.sol\":4771:5177  function withdrawReward() external returns (bool success){... */\n    tag_16:\n      tag_73\n      tag_74\n      jump\t// in\n    tag_73:\n      mload(0x40)\n      tag_75\n      swap2\n      swap1\n      tag_44\n      jump\t// in\n    tag_75:\n      mload(0x40)\n      dup1\n      swap2\n      sub\n      swap1\n      return\n        /* \"contracts/stake_reward_MLM.sol\":8886:9110  function set_values(uint min_stake,uint max_stake,uint reward_per_day) public ... */\n    tag_17:\n      tag_76\n      0x04\n      dup1\n      calldatasize\n      sub\n      dup2\n      add\n      swap1\n      tag_77\n      swap2\n      swap1\n      tag_78\n      jump\t// in\n    tag_77:\n      tag_79\n      jump\t// in\n    tag_76:\n      stop\n        /* \"contracts/stake_reward_MLM.sol\":1245:1287  mapping(address=>Data) public DUSDinvestor */\n    tag_18:\n      tag_80\n      0x04\n      dup1\n      calldatasize\n      sub\n      dup2\n      add\n      swap1\n      tag_81\n      swap2\n      swap1\n      tag_82\n      jump\t// in\n    tag_81:\n      tag_83\n      jump\t// in\n    tag_80:\n      mload(0x40)\n      tag_84\n      swap6\n      swap5\n      swap4\n      swap3\n      swap2\n      swap1\n      tag_85\n      jump\t// in\n    tag_84:\n      mload(0x40)\n      dup1\n      swap2\n      sub\n      swap1\n      return\n        /* \"contracts/stake_reward_MLM.sol\":9119:9293  function transferOwnership(address _owner)  public... */\n    tag_19:\n      tag_86\n      0x04\n      dup1\n      calldatasize\n      sub\n      dup2\n      add\n      swap1\n      tag_87\n      swap2\n      swap1\n      tag_82\n      jump\t// in\n    tag_87:\n      tag_88\n      jump\t// in\n    tag_86:\n      stop\n        /* \"contracts/stake_reward_MLM.sol\":516:558  uint public rewardToken=500000000000000000 */\n    tag_20:\n      tag_89\n      tag_90\n      jump\t// in\n    tag_89:\n      mload(0x40)\n      tag_91\n      swap2\n      swap1\n      tag_31\n      jump\t// in\n    tag_91:\n      mload(0x40)\n      dup1\n      swap2\n      sub\n      swap1\n      return\n        /* \"contracts/stake_reward_MLM.sol\":8324:8533  function DUSDReferralsList() public view returns(address[] memory){ //this function is to get the all investors list with there account number... */\n    tag_25:\n        /* \"contracts/stake_reward_MLM.sol\":8373:8389  address[] memory */\n      0x60\n        /* \"contracts/stake_reward_MLM.sol\":8485:8497  DUSDinvestor */\n      0x08\n        /* \"contracts/stake_reward_MLM.sol\":8485:8509  DUSDinvestor[msg.sender] */\n      0x00\n        /* \"contracts/stake_reward_MLM.sol\":8498:8508  msg.sender */\n      caller\n        /* \"contracts/stake_reward_MLM.sol\":8485:8509  DUSDinvestor[msg.sender] */\n      0xffffffffffffffffffffffffffffffffffffffff\n      and\n      0xffffffffffffffffffffffffffffffffffffffff\n      and\n      dup2\n      mstore\n      0x20\n      add\n      swap1\n      dup2\n      mstore\n      0x20\n      add\n      0x00\n      keccak256\n        /* \"contracts/stake_reward_MLM.sol\":8485:8522  DUSDinvestor[msg.sender].hisReferrals */\n      0x01\n      add\n        /* \"contracts/stake_reward_MLM.sol\":8478:8522  return DUSDinvestor[msg.sender].hisReferrals */\n      dup1\n      sload\n      dup1\n      0x20\n      mul\n      0x20\n      add\n      mload(0x40)\n      swap1\n      dup2\n      add\n      0x40\n      mstore\n      dup1\n      swap3\n      swap2\n      swap1\n      dup2\n      dup2\n      mstore\n      0x20\n      add\n      dup3\n      dup1\n      sload\n      dup1\n      iszero\n      tag_93\n      jumpi\n      0x20\n      mul\n      dup3\n      add\n      swap2\n      swap1\n      0x00\n      mstore\n      keccak256(0x00, 0x20)\n      swap1\n    tag_94:\n      dup2\n      0x00\n      swap1\n      sload\n      swap1\n      0x0100\n      exp\n      swap1\n      div\n      0xffffffffffffffffffffffffffffffffffffffff\n      and\n      0xffffffffffffffffffffffffffffffffffffffff\n      and\n      dup2\n      mstore\n      0x20\n      add\n      swap1\n      0x01\n      add\n      swap1\n      dup1\n      dup4\n      gt\n      tag_94\n      jumpi\n    tag_93:\n      pop\n      pop\n      pop\n      pop\n      pop\n      swap1\n      pop\n        /* \"contracts/stake_reward_MLM.sol\":8324:8533  function DUSDReferralsList() public view returns(address[] memory){ //this function is to get the all investors list with there account number... */\n      swap1\n      jump\t// out\n        /* \"contracts/stake_reward_MLM.sol\":476:506  uint public totalDUSDInvestors */\n    tag_29:\n      sload(0x03)\n      dup2\n      jump\t// out\n        /* \"contracts/stake_reward_MLM.sol\":8123:8314  function DUSDTotalReferrals() public view returns(uint){ // this function is to get the total number of referrals ... */\n    tag_33:\n        /* \"contracts/stake_reward_MLM.sol\":8173:8177  uint */\n      0x00\n        /* \"contracts/stake_reward_MLM.sol\":8258:8270  DUSDinvestor */\n      0x08\n        /* \"contracts/stake_reward_MLM.sol\":8258:8282  DUSDinvestor[msg.sender] */\n      0x00\n        /* \"contracts/stake_reward_MLM.sol\":8271:8281  msg.sender */\n      caller\n        /* \"contracts/stake_reward_MLM.sol\":8258:8282  DUSDinvestor[msg.sender] */\n      0xffffffffffffffffffffffffffffffffffffffff\n      and\n      0xffffffffffffffffffffffffffffffffffffffff\n      and\n      dup2\n      mstore\n      0x20\n      add\n      swap1\n      dup2\n      mstore\n      0x20\n      add\n      0x00\n      keccak256\n        /* \"contracts/stake_reward_MLM.sol\":8258:8295  DUSDinvestor[msg.sender].hisReferrals */\n      0x01\n      add\n        /* \"contracts/stake_reward_MLM.sol\":8257:8303  (DUSDinvestor[msg.sender].hisReferrals).length */\n      dup1\n      sload\n      swap1\n      pop\n        /* \"contracts/stake_reward_MLM.sol\":8250:8303  return (DUSDinvestor[msg.sender].hisReferrals).length */\n      swap1\n      pop\n        /* \"contracts/stake_reward_MLM.sol\":8123:8314  function DUSDTotalReferrals() public view returns(uint){ // this function is to get the total number of referrals ... */\n      swap1\n      jump\t// out\n        /* \"contracts/stake_reward_MLM.sol\":8542:8637  function setReward(uint _amount) public ... */\n    tag_38:\n        /* \"contracts/stake_reward_MLM.sol\":8619:8626  _amount */\n      dup1\n        /* \"contracts/stake_reward_MLM.sol\":8605:8616  rewardToken */\n      0x04\n        /* \"contracts/stake_reward_MLM.sol\":8605:8626  rewardToken = _amount */\n      dup2\n      swap1\n      sstore\n      pop\n        /* \"contracts/stake_reward_MLM.sol\":8542:8637  function setReward(uint _amount) public ... */\n      pop\n      jump\t// out\n        /* \"contracts/stake_reward_MLM.sol\":3019:4760  function Stake(uint _investedamount,address _referral) external returns(bool success){... */\n    tag_42:\n        /* \"contracts/stake_reward_MLM.sol\":3091:3103  bool success */\n      0x00\n        /* \"contracts/stake_reward_MLM.sol\":3145:3161  min_Stake_amount */\n      sload(0x05)\n        /* \"contracts/stake_reward_MLM.sol\":3126:3141  _investedamount */\n      dup4\n        /* \"contracts/stake_reward_MLM.sol\":3126:3161  _investedamount >= min_Stake_amount */\n      lt\n      iszero\n        /* \"contracts/stake_reward_MLM.sol\":3118:3196  require(_investedamount >= min_Stake_amount,\"value is not greater than 10000\") */\n      tag_98\n      jumpi\n      mload(0x40)\n      0x08c379a000000000000000000000000000000000000000000000000000000000\n      dup2\n      mstore\n      0x04\n      add\n      tag_99\n      swap1\n      tag_100\n      jump\t// in\n    tag_99:\n      mload(0x40)\n      dup1\n      swap2\n      sub\n      swap1\n      revert\n    tag_98:\n        /* \"contracts/stake_reward_MLM.sol\":3325:3330  false */\n      0x00\n        /* \"contracts/stake_reward_MLM.sol\":3284:3330  DUSDinvestor[msg.sender].investBefore == false */\n      iszero\n      iszero\n        /* \"contracts/stake_reward_MLM.sol\":3284:3296  DUSDinvestor */\n      0x08\n        /* \"contracts/stake_reward_MLM.sol\":3284:3308  DUSDinvestor[msg.sender] */\n      0x00\n        /* \"contracts/stake_reward_MLM.sol\":3297:3307  msg.sender */\n      caller\n        /* \"contracts/stake_reward_MLM.sol\":3284:3308  DUSDinvestor[msg.sender] */\n      0xffffffffffffffffffffffffffffffffffffffff\n      and\n      0xffffffffffffffffffffffffffffffffffffffff\n      and\n      dup2\n      mstore\n      0x20\n      add\n      swap1\n      dup2\n      mstore\n      0x20\n      add\n      0x00\n      keccak256\n        /* \"contracts/stake_reward_MLM.sol\":3284:3321  DUSDinvestor[msg.sender].investBefore */\n      0x07\n      add\n      0x00\n      swap1\n      sload\n      swap1\n      0x0100\n      exp\n      swap1\n      div\n      0xff\n      and\n        /* \"contracts/stake_reward_MLM.sol\":3284:3330  DUSDinvestor[msg.sender].investBefore == false */\n      iszero\n      iszero\n      eq\n        /* \"contracts/stake_reward_MLM.sol\":3281:3435  if(DUSDinvestor[msg.sender].investBefore == false)... */\n      iszero\n      tag_101\n      jumpi\n        /* \"contracts/stake_reward_MLM.sol\":3363:3381  totalDUSDInvestors */\n      0x03\n      0x00\n        /* \"contracts/stake_reward_MLM.sol\":3363:3383  totalDUSDInvestors++ */\n      dup2\n      sload\n      dup1\n      swap3\n      swap2\n      swap1\n      tag_102\n      swap1\n      tag_103\n      jump\t// in\n    tag_102:\n      swap2\n      swap1\n      pop\n      sstore\n      pop\n        /* \"contracts/stake_reward_MLM.sol\":3281:3435  if(DUSDinvestor[msg.sender].investBefore == false)... */\n    tag_101:\n        /* \"contracts/stake_reward_MLM.sol\":3449:3457  uint num */\n      0x00\n        /* \"contracts/stake_reward_MLM.sol\":3460:3472  DUSDinvestor */\n      0x08\n        /* \"contracts/stake_reward_MLM.sol\":3460:3484  DUSDinvestor[msg.sender] */\n      0x00\n        /* \"contracts/stake_reward_MLM.sol\":3473:3483  msg.sender */\n      caller\n        /* \"contracts/stake_reward_MLM.sol\":3460:3484  DUSDinvestor[msg.sender] */\n      0xffffffffffffffffffffffffffffffffffffffff\n      and\n      0xffffffffffffffffffffffffffffffffffffffff\n      and\n      dup2\n      mstore\n      0x20\n      add\n      swap1\n      dup2\n      mstore\n      0x20\n      add\n      0x00\n      keccak256\n        /* \"contracts/stake_reward_MLM.sol\":3460:3499  DUSDinvestor[msg.sender].noOfInvestment */\n      0x05\n      add\n      sload\n        /* \"contracts/stake_reward_MLM.sol\":3449:3499  uint num = DUSDinvestor[msg.sender].noOfInvestment */\n      swap1\n      pop\n        /* \"contracts/stake_reward_MLM.sol\":3570:3585  _investedamount */\n      dup4\n        /* \"contracts/stake_reward_MLM.sol\":3513:3525  DUSDinvestor */\n      0x08\n        /* \"contracts/stake_reward_MLM.sol\":3513:3537  DUSDinvestor[msg.sender] */\n      0x00\n        /* \"contracts/stake_reward_MLM.sol\":3526:3536  msg.sender */\n      caller\n        /* \"contracts/stake_reward_MLM.sol\":3513:3537  DUSDinvestor[msg.sender] */\n      0xffffffffffffffffffffffffffffffffffffffff\n      and\n      0xffffffffffffffffffffffffffffffffffffffff\n      and\n      dup2\n      mstore\n      0x20\n      add\n      swap1\n      dup2\n      mstore\n      0x20\n      add\n      0x00\n      keccak256\n        /* \"contracts/stake_reward_MLM.sol\":3513:3548  DUSDinvestor[msg.sender].investment */\n      0x00\n      add\n        /* \"contracts/stake_reward_MLM.sol\":3513:3553  DUSDinvestor[msg.sender].investment[num] */\n      0x00\n        /* \"contracts/stake_reward_MLM.sol\":3549:3552  num */\n      dup4\n        /* \"contracts/stake_reward_MLM.sol\":3513:3553  DUSDinvestor[msg.sender].investment[num] */\n      dup2\n      mstore\n      0x20\n      add\n      swap1\n      dup2\n      mstore\n      0x20\n      add\n      0x00\n      keccak256\n        /* \"contracts/stake_reward_MLM.sol\":3513:3568  DUSDinvestor[msg.sender].investment[num].investedAmount */\n      0x00\n      add\n        /* \"contracts/stake_reward_MLM.sol\":3513:3585  DUSDinvestor[msg.sender].investment[num].investedAmount =_investedamount */\n      dup2\n      swap1\n      sstore\n      pop\n        /* \"contracts/stake_reward_MLM.sol\":3652:3667  block.timestamp */\n      timestamp\n        /* \"contracts/stake_reward_MLM.sol\":3599:3611  DUSDinvestor */\n      0x08\n        /* \"contracts/stake_reward_MLM.sol\":3599:3623  DUSDinvestor[msg.sender] */\n      0x00\n        /* \"contracts/stake_reward_MLM.sol\":3612:3622  msg.sender */\n      caller\n        /* \"contracts/stake_reward_MLM.sol\":3599:3623  DUSDinvestor[msg.sender] */\n      0xffffffffffffffffffffffffffffffffffffffff\n      and\n      0xffffffffffffffffffffffffffffffffffffffff\n      and\n      dup2\n      mstore\n      0x20\n      add\n      swap1\n      dup2\n      mstore\n      0x20\n      add\n      0x00\n      keccak256\n        /* \"contracts/stake_reward_MLM.sol\":3599:3634  DUSDinvestor[msg.sender].investment */\n      0x00\n      add\n        /* \"contracts/stake_reward_MLM.sol\":3599:3639  DUSDinvestor[msg.sender].investment[num] */\n      0x00\n        /* \"contracts/stake_reward_MLM.sol\":3635:3638  num */\n      dup4\n        /* \"contracts/stake_reward_MLM.sol\":3599:3639  DUSDinvestor[msg.sender].investment[num] */\n      dup2\n      mstore\n      0x20\n      add\n      swap1\n      dup2\n      mstore\n      0x20\n      add\n      0x00\n      keccak256\n        /* \"contracts/stake_reward_MLM.sol\":3599:3651  DUSDinvestor[msg.sender].investment[num].DepositTime */\n      0x02\n      add\n        /* \"contracts/stake_reward_MLM.sol\":3599:3667  DUSDinvestor[msg.sender].investment[num].DepositTime=block.timestamp */\n      dup2\n      swap1\n      sstore\n      pop\n        /* \"contracts/stake_reward_MLM.sol\":3754:3770  investmentPeriod */\n      sload(0x07)\n        /* \"contracts/stake_reward_MLM.sol\":3736:3751  block.timestamp */\n      timestamp\n        /* \"contracts/stake_reward_MLM.sol\":3736:3770  block.timestamp + investmentPeriod */\n      tag_104\n      swap2\n      swap1\n      tag_105\n      jump\t// in\n    tag_104:\n        /* \"contracts/stake_reward_MLM.sol\":3681:3693  DUSDinvestor */\n      0x08\n        /* \"contracts/stake_reward_MLM.sol\":3681:3705  DUSDinvestor[msg.sender] */\n      0x00\n        /* \"contracts/stake_reward_MLM.sol\":3694:3704  msg.sender */\n      caller\n        /* \"contracts/stake_reward_MLM.sol\":3681:3705  DUSDinvestor[msg.sender] */\n      0xffffffffffffffffffffffffffffffffffffffff\n      and\n      0xffffffffffffffffffffffffffffffffffffffff\n      and\n      dup2\n      mstore\n      0x20\n      add\n      swap1\n      dup2\n      mstore\n      0x20\n      add\n      0x00\n      keccak256\n        /* \"contracts/stake_reward_MLM.sol\":3681:3716  DUSDinvestor[msg.sender].investment */\n      0x00\n      add\n        /* \"contracts/stake_reward_MLM.sol\":3681:3721  DUSDinvestor[msg.sender].investment[num] */\n      0x00\n        /* \"contracts/stake_reward_MLM.sol\":3717:3720  num */\n      dup4\n        /* \"contracts/stake_reward_MLM.sol\":3681:3721  DUSDinvestor[msg.sender].investment[num] */\n      dup2\n      mstore\n      0x20\n      add\n      swap1\n      dup2\n      mstore\n      0x20\n      add\n      0x00\n      keccak256\n        /* \"contracts/stake_reward_MLM.sol\":3681:3735  DUSDinvestor[msg.sender].investment[num].withdrawnTime */\n      0x01\n      add\n        /* \"contracts/stake_reward_MLM.sol\":3681:3770  DUSDinvestor[msg.sender].investment[num].withdrawnTime=block.timestamp + investmentPeriod */\n      dup2\n      swap1\n      sstore\n      pop\n        /* \"contracts/stake_reward_MLM.sol\":3853:3856  num */\n      dup1\n        /* \"contracts/stake_reward_MLM.sol\":3798:3810  DUSDinvestor */\n      0x08\n        /* \"contracts/stake_reward_MLM.sol\":3798:3822  DUSDinvestor[msg.sender] */\n      0x00\n        /* \"contracts/stake_reward_MLM.sol\":3811:3821  msg.sender */\n      caller\n        /* \"contracts/stake_reward_MLM.sol\":3798:3822  DUSDinvestor[msg.sender] */\n      0xffffffffffffffffffffffffffffffffffffffff\n      and\n      0xffffffffffffffffffffffffffffffffffffffff\n      and\n      dup2\n      mstore\n      0x20\n      add\n      swap1\n      dup2\n      mstore\n      0x20\n      add\n      0x00\n      keccak256\n        /* \"contracts/stake_reward_MLM.sol\":3798:3833  DUSDinvestor[msg.sender].investment */\n      0x00\n      add\n        /* \"contracts/stake_reward_MLM.sol\":3798:3838  DUSDinvestor[msg.sender].investment[num] */\n      0x00\n        /* \"contracts/stake_reward_MLM.sol\":3834:3837  num */\n      dup4\n        /* \"contracts/stake_reward_MLM.sol\":3798:3838  DUSDinvestor[msg.sender].investment[num] */\n      dup2\n      mstore\n      0x20\n      add\n      swap1\n      dup2\n      mstore\n      0x20\n      add\n      0x00\n      keccak256\n        /* \"contracts/stake_reward_MLM.sol\":3798:3852  DUSDinvestor[msg.sender].investment[num].investmentNum */\n      0x03\n      add\n        /* \"contracts/stake_reward_MLM.sol\":3798:3856  DUSDinvestor[msg.sender].investment[num].investmentNum=num */\n      dup2\n      swap1\n      sstore\n      pop\n        /* \"contracts/stake_reward_MLM.sol\":3912:3927  _investedamount */\n      dup4\n        /* \"contracts/stake_reward_MLM.sol\":3870:3882  DUSDinvestor */\n      0x08\n        /* \"contracts/stake_reward_MLM.sol\":3870:3894  DUSDinvestor[msg.sender] */\n      0x00\n        /* \"contracts/stake_reward_MLM.sol\":3883:3893  msg.sender */\n      caller\n        /* \"contracts/stake_reward_MLM.sol\":3870:3894  DUSDinvestor[msg.sender] */\n      0xffffffffffffffffffffffffffffffffffffffff\n      and\n      0xffffffffffffffffffffffffffffffffffffffff\n      and\n      dup2\n      mstore\n      0x20\n      add\n      swap1\n      dup2\n      mstore\n      0x20\n      add\n      0x00\n      keccak256\n        /* \"contracts/stake_reward_MLM.sol\":3870:3910  DUSDinvestor[msg.sender].totalInvestment */\n      0x06\n      add\n      0x00\n        /* \"contracts/stake_reward_MLM.sol\":3870:3927  DUSDinvestor[msg.sender].totalInvestment+=_investedamount */\n      dup3\n      dup3\n      sload\n      tag_106\n      swap2\n      swap1\n      tag_105\n      jump\t// in\n    tag_106:\n      swap3\n      pop\n      pop\n      dup2\n      swap1\n      sstore\n      pop\n        /* \"contracts/stake_reward_MLM.sol\":3979:3983  true */\n      0x01\n        /* \"contracts/stake_reward_MLM.sol\":3941:3953  DUSDinvestor */\n      0x08\n        /* \"contracts/stake_reward_MLM.sol\":3941:3965  DUSDinvestor[msg.sender] */\n      0x00\n        /* \"contracts/stake_reward_MLM.sol\":3954:3964  msg.sender */\n      caller\n        /* \"contracts/stake_reward_MLM.sol\":3941:3965  DUSDinvestor[msg.sender] */\n      0xffffffffffffffffffffffffffffffffffffffff\n      and\n      0xffffffffffffffffffffffffffffffffffffffff\n      and\n      dup2\n      mstore\n      0x20\n      add\n      swap1\n      dup2\n      mstore\n      0x20\n      add\n      0x00\n      keccak256\n        /* \"contracts/stake_reward_MLM.sol\":3941:3978  DUSDinvestor[msg.sender].investBefore */\n      0x07\n      add\n      0x00\n        /* \"contracts/stake_reward_MLM.sol\":3941:3983  DUSDinvestor[msg.sender].investBefore=true */\n      0x0100\n      exp\n      dup2\n      sload\n      dup2\n      0xff\n      mul\n      not\n      and\n      swap1\n      dup4\n      iszero\n      iszero\n      mul\n      or\n      swap1\n      sstore\n      pop\n        /* \"contracts/stake_reward_MLM.sol\":3997:4009  DUSDinvestor */\n      0x08\n        /* \"contracts/stake_reward_MLM.sol\":3997:4021  DUSDinvestor[msg.sender] */\n      0x00\n        /* \"contracts/stake_reward_MLM.sol\":4010:4020  msg.sender */\n      caller\n        /* \"contracts/stake_reward_MLM.sol\":3997:4021  DUSDinvestor[msg.sender] */\n      0xffffffffffffffffffffffffffffffffffffffff\n      and\n      0xffffffffffffffffffffffffffffffffffffffff\n      and\n      dup2\n      mstore\n      0x20\n      add\n      swap1\n      dup2\n      mstore\n      0x20\n      add\n      0x00\n      keccak256\n        /* \"contracts/stake_reward_MLM.sol\":3997:4036  DUSDinvestor[msg.sender].noOfInvestment */\n      0x05\n      add\n      0x00\n        /* \"contracts/stake_reward_MLM.sol\":3997:4038  DUSDinvestor[msg.sender].noOfInvestment++ */\n      dup2\n      sload\n      dup1\n      swap3\n      swap2\n      swap1\n      tag_107\n      swap1\n      tag_103\n      jump\t// in\n    tag_107:\n      swap2\n      swap1\n      pop\n      sstore\n      pop\n        /* \"contracts/stake_reward_MLM.sol\":4163:4164  0 */\n      0x00\n        /* \"contracts/stake_reward_MLM.sol\":4144:4165  _referral==address(0) */\n      0xffffffffffffffffffffffffffffffffffffffff\n      and\n        /* \"contracts/stake_reward_MLM.sol\":4144:4153  _referral */\n      dup4\n        /* \"contracts/stake_reward_MLM.sol\":4144:4165  _referral==address(0) */\n      0xffffffffffffffffffffffffffffffffffffffff\n      and\n      eq\n        /* \"contracts/stake_reward_MLM.sol\":4141:4712  if(_referral==address(0))                                         //checking that investor comes from the referral link or not... */\n      iszero\n      tag_108\n      jumpi\n        /* \"contracts/stake_reward_MLM.sol\":4346:4347  0 */\n      0x00\n        /* \"contracts/stake_reward_MLM.sol\":4298:4310  DUSDinvestor */\n      0x08\n        /* \"contracts/stake_reward_MLM.sol\":4298:4322  DUSDinvestor[msg.sender] */\n      0x00\n        /* \"contracts/stake_reward_MLM.sol\":4311:4321  msg.sender */\n      caller\n        /* \"contracts/stake_reward_MLM.sol\":4298:4322  DUSDinvestor[msg.sender] */\n      0xffffffffffffffffffffffffffffffffffffffff\n      and\n      0xffffffffffffffffffffffffffffffffffffffff\n      and\n      dup2\n      mstore\n      0x20\n      add\n      swap1\n      dup2\n      mstore\n      0x20\n      add\n      0x00\n      keccak256\n        /* \"contracts/stake_reward_MLM.sol\":4298:4335  DUSDinvestor[msg.sender].referralFrom */\n      0x02\n      add\n      0x00\n        /* \"contracts/stake_reward_MLM.sol\":4298:4348  DUSDinvestor[msg.sender].referralFrom = address(0) */\n      0x0100\n      exp\n      dup2\n      sload\n      dup2\n      0xffffffffffffffffffffffffffffffffffffffff\n      mul\n      not\n      and\n      swap1\n      dup4\n      0xffffffffffffffffffffffffffffffffffffffff\n      and\n      mul\n      or\n      swap1\n      sstore\n      pop\n        /* \"contracts/stake_reward_MLM.sol\":4141:4712  if(_referral==address(0))                                         //checking that investor comes from the referral link or not... */\n      jump(tag_109)\n    tag_108:\n        /* \"contracts/stake_reward_MLM.sol\":4452:4461  _referral */\n      dup3\n        /* \"contracts/stake_reward_MLM.sol\":4412:4424  DUSDinvestor */\n      0x08\n        /* \"contracts/stake_reward_MLM.sol\":4412:4436  DUSDinvestor[msg.sender] */\n      0x00\n        /* \"contracts/stake_reward_MLM.sol\":4425:4435  msg.sender */\n      caller\n        /* \"contracts/stake_reward_MLM.sol\":4412:4436  DUSDinvestor[msg.sender] */\n      0xffffffffffffffffffffffffffffffffffffffff\n      and\n      0xffffffffffffffffffffffffffffffffffffffff\n      and\n      dup2\n      mstore\n      0x20\n      add\n      swap1\n      dup2\n      mstore\n      0x20\n      add\n      0x00\n      keccak256\n        /* \"contracts/stake_reward_MLM.sol\":4412:4449  DUSDinvestor[msg.sender].referralFrom */\n      0x02\n      add\n      0x00\n        /* \"contracts/stake_reward_MLM.sol\":4412:4461  DUSDinvestor[msg.sender].referralFrom = _referral */\n      0x0100\n      exp\n      dup2\n      sload\n      dup2\n      0xffffffffffffffffffffffffffffffffffffffff\n      mul\n      not\n      and\n      swap1\n      dup4\n      0xffffffffffffffffffffffffffffffffffffffff\n      and\n      mul\n      or\n      swap1\n      sstore\n      pop\n        /* \"contracts/stake_reward_MLM.sol\":4479:4491  DUSDinvestor */\n      0x08\n        /* \"contracts/stake_reward_MLM.sol\":4479:4502  DUSDinvestor[_referral] */\n      0x00\n        /* \"contracts/stake_reward_MLM.sol\":4492:4501  _referral */\n      dup5\n        /* \"contracts/stake_reward_MLM.sol\":4479:4502  DUSDinvestor[_referral] */\n      0xffffffffffffffffffffffffffffffffffffffff\n      and\n      0xffffffffffffffffffffffffffffffffffffffff\n      and\n      dup2\n      mstore\n      0x20\n      add\n      swap1\n      dup2\n      mstore\n      0x20\n      add\n      0x00\n      keccak256\n        /* \"contracts/stake_reward_MLM.sol\":4479:4515  DUSDinvestor[_referral].hisReferrals */\n      0x01\n      add\n        /* \"contracts/stake_reward_MLM.sol\":4521:4531  msg.sender */\n      caller\n        /* \"contracts/stake_reward_MLM.sol\":4479:4532  DUSDinvestor[_referral].hisReferrals.push(msg.sender) */\n      swap1\n      dup1\n      0x01\n      dup2\n      sload\n      add\n      dup1\n      dup3\n      sstore\n      dup1\n      swap2\n      pop\n      pop\n      0x01\n      swap1\n      sub\n      swap1\n      0x00\n      mstore\n      keccak256(0x00, 0x20)\n      add\n      0x00\n      swap1\n      swap2\n      swap1\n      swap2\n      swap1\n      swap2\n      0x0100\n      exp\n      dup2\n      sload\n      dup2\n      0xffffffffffffffffffffffffffffffffffffffff\n      mul\n      not\n      and\n      swap1\n      dup4\n      0xffffffffffffffffffffffffffffffffffffffff\n      and\n      mul\n      or\n      swap1\n      sstore\n      pop\n        /* \"contracts/stake_reward_MLM.sol\":4550:4603  sendRewardToDUSDReferrals(msg.sender,_investedamount) */\n      tag_111\n        /* \"contracts/stake_reward_MLM.sol\":4576:4586  msg.sender */\n      caller\n        /* \"contracts/stake_reward_MLM.sol\":4587:4602  _investedamount */\n      dup6\n        /* \"contracts/stake_reward_MLM.sol\":4550:4575  sendRewardToDUSDReferrals */\n      tag_112\n        /* \"contracts/stake_reward_MLM.sol\":4550:4603  sendRewardToDUSDReferrals(msg.sender,_investedamount) */\n      jump\t// in\n    tag_111:\n        /* \"contracts/stake_reward_MLM.sol\":4141:4712  if(_referral==address(0))                                         //checking that investor comes from the referral link or not... */\n    tag_109:\n        /* \"contracts/stake_reward_MLM.sol\":4732:4736  true */\n      0x01\n        /* \"contracts/stake_reward_MLM.sol\":4725:4736  return true */\n      swap2\n      pop\n      pop\n        /* \"contracts/stake_reward_MLM.sol\":3019:4760  function Stake(uint _investedamount,address _referral) external returns(bool success){... */\n      swap3\n      swap2\n      pop\n      pop\n      jump\t// out\n        /* \"contracts/stake_reward_MLM.sol\":8646:8757  function set_min_Stake_amount(uint _amount) public ... */\n    tag_47:\n        /* \"contracts/stake_reward_MLM.sol\":8739:8746  _amount */\n      dup1\n        /* \"contracts/stake_reward_MLM.sol\":8720:8736  min_Stake_amount */\n      0x05\n        /* \"contracts/stake_reward_MLM.sol\":8720:8746  min_Stake_amount = _amount */\n      dup2\n      swap1\n      sstore\n      pop\n        /* \"contracts/stake_reward_MLM.sol\":8646:8757  function set_min_Stake_amount(uint _amount) public ... */\n      pop\n      jump\t// out\n        /* \"contracts/stake_reward_MLM.sol\":6514:7497  function getAllDUSDinvestments() public view returns (allInvestments[] memory) { //this function will return the all investments of the investor and withware date... */\n    tag_49:\n        /* \"contracts/stake_reward_MLM.sol\":6568:6591  allInvestments[] memory */\n      0x60\n        /* \"contracts/stake_reward_MLM.sol\":6689:6697  uint num */\n      0x00\n        /* \"contracts/stake_reward_MLM.sol\":6700:6712  DUSDinvestor */\n      0x08\n        /* \"contracts/stake_reward_MLM.sol\":6700:6724  DUSDinvestor[msg.sender] */\n      0x00\n        /* \"contracts/stake_reward_MLM.sol\":6713:6723  msg.sender */\n      caller\n        /* \"contracts/stake_reward_MLM.sol\":6700:6724  DUSDinvestor[msg.sender] */\n      0xffffffffffffffffffffffffffffffffffffffff\n      and\n      0xffffffffffffffffffffffffffffffffffffffff\n      and\n      dup2\n      mstore\n      0x20\n      add\n      swap1\n      dup2\n      mstore\n      0x20\n      add\n      0x00\n      keccak256\n        /* \"contracts/stake_reward_MLM.sol\":6700:6739  DUSDinvestor[msg.sender].noOfInvestment */\n      0x05\n      add\n      sload\n        /* \"contracts/stake_reward_MLM.sol\":6689:6739  uint num = DUSDinvestor[msg.sender].noOfInvestment */\n      swap1\n      pop\n        /* \"contracts/stake_reward_MLM.sol\":6753:6762  uint temp */\n      0x00\n        /* \"contracts/stake_reward_MLM.sol\":6776:6793  uint currentIndex */\n      dup1\n        /* \"contracts/stake_reward_MLM.sol\":6824:6830  uint i */\n      0x00\n        /* \"contracts/stake_reward_MLM.sol\":6820:6996  for(uint i=0;i<num;i++)... */\n    tag_115:\n        /* \"contracts/stake_reward_MLM.sol\":6835:6838  num */\n      dup4\n        /* \"contracts/stake_reward_MLM.sol\":6833:6834  i */\n      dup2\n        /* \"contracts/stake_reward_MLM.sol\":6833:6838  i<num */\n      lt\n        /* \"contracts/stake_reward_MLM.sol\":6820:6996  for(uint i=0;i<num;i++)... */\n      iszero\n      tag_116\n      jumpi\n        /* \"contracts/stake_reward_MLM.sol\":6933:6934  0 */\n      0x00\n        /* \"contracts/stake_reward_MLM.sol\":6877:6889  DUSDinvestor */\n      0x08\n        /* \"contracts/stake_reward_MLM.sol\":6877:6901  DUSDinvestor[msg.sender] */\n      0x00\n        /* \"contracts/stake_reward_MLM.sol\":6890:6900  msg.sender */\n      caller\n        /* \"contracts/stake_reward_MLM.sol\":6877:6901  DUSDinvestor[msg.sender] */\n      0xffffffffffffffffffffffffffffffffffffffff\n      and\n      0xffffffffffffffffffffffffffffffffffffffff\n      and\n      dup2\n      mstore\n      0x20\n      add\n      swap1\n      dup2\n      mstore\n      0x20\n      add\n      0x00\n      keccak256\n        /* \"contracts/stake_reward_MLM.sol\":6877:6912  DUSDinvestor[msg.sender].investment */\n      0x00\n      add\n        /* \"contracts/stake_reward_MLM.sol\":6877:6915  DUSDinvestor[msg.sender].investment[i] */\n      0x00\n        /* \"contracts/stake_reward_MLM.sol\":6913:6914  i */\n      dup4\n        /* \"contracts/stake_reward_MLM.sol\":6877:6915  DUSDinvestor[msg.sender].investment[i] */\n      dup2\n      mstore\n      0x20\n      add\n      swap1\n      dup2\n      mstore\n      0x20\n      add\n      0x00\n      keccak256\n        /* \"contracts/stake_reward_MLM.sol\":6877:6930  DUSDinvestor[msg.sender].investment[i].investedAmount */\n      0x00\n      add\n      sload\n        /* \"contracts/stake_reward_MLM.sol\":6877:6934  DUSDinvestor[msg.sender].investment[i].investedAmount > 0 */\n      gt\n        /* \"contracts/stake_reward_MLM.sol\":6873:6981  if( DUSDinvestor[msg.sender].investment[i].investedAmount > 0 ){... */\n      iszero\n      tag_118\n      jumpi\n        /* \"contracts/stake_reward_MLM.sol\":6957:6963  temp++ */\n      dup3\n      dup1\n      tag_119\n      swap1\n      tag_103\n      jump\t// in\n    tag_119:\n      swap4\n      pop\n      pop\n        /* \"contracts/stake_reward_MLM.sol\":6873:6981  if( DUSDinvestor[msg.sender].investment[i].investedAmount > 0 ){... */\n    tag_118:\n        /* \"contracts/stake_reward_MLM.sol\":6839:6842  i++ */\n      dup1\n      dup1\n      tag_120\n      swap1\n      tag_103\n      jump\t// in\n    tag_120:\n      swap2\n      pop\n      pop\n        /* \"contracts/stake_reward_MLM.sol\":6820:6996  for(uint i=0;i<num;i++)... */\n      jump(tag_115)\n    tag_116:\n      pop\n        /* \"contracts/stake_reward_MLM.sol\":7019:7051  allInvestments[] memory Invested */\n      0x00\n        /* \"contracts/stake_reward_MLM.sol\":7076:7080  temp */\n      dup3\n        /* \"contracts/stake_reward_MLM.sol\":7055:7081  new allInvestments[](temp) */\n      0xffffffffffffffff\n      dup2\n      gt\n      iszero\n      tag_121\n      jumpi\n      tag_122\n      tag_123\n      jump\t// in\n    tag_122:\n    tag_121:\n      mload(0x40)\n      swap1\n      dup1\n      dup3\n      mstore\n      dup1\n      0x20\n      mul\n      0x20\n      add\n      dup3\n      add\n      0x40\n      mstore\n      dup1\n      iszero\n      tag_124\n      jumpi\n      dup2\n      0x20\n      add\n    tag_125:\n      tag_126\n      tag_127\n      jump\t// in\n    tag_126:\n      dup2\n      mstore\n      0x20\n      add\n      swap1\n      0x01\n      swap1\n      sub\n      swap1\n      dup2\n      tag_125\n      jumpi\n      swap1\n      pop\n    tag_124:\n      pop\n        /* \"contracts/stake_reward_MLM.sol\":7019:7081  allInvestments[] memory Invested =  new allInvestments[](temp) */\n      swap1\n      pop\n        /* \"contracts/stake_reward_MLM.sol\":7101:7107  uint i */\n      0x00\n        /* \"contracts/stake_reward_MLM.sol\":7097:7457  for(uint i=0;i<num;i++)... */\n    tag_128:\n        /* \"contracts/stake_reward_MLM.sol\":7112:7115  num */\n      dup5\n        /* \"contracts/stake_reward_MLM.sol\":7110:7111  i */\n      dup2\n        /* \"contracts/stake_reward_MLM.sol\":7110:7115  i<num */\n      lt\n        /* \"contracts/stake_reward_MLM.sol\":7097:7457  for(uint i=0;i<num;i++)... */\n      iszero\n      tag_129\n      jumpi\n        /* \"contracts/stake_reward_MLM.sol\":7210:7211  0 */\n      0x00\n        /* \"contracts/stake_reward_MLM.sol\":7154:7166  DUSDinvestor */\n      0x08\n        /* \"contracts/stake_reward_MLM.sol\":7154:7178  DUSDinvestor[msg.sender] */\n      0x00\n        /* \"contracts/stake_reward_MLM.sol\":7167:7177  msg.sender */\n      caller\n        /* \"contracts/stake_reward_MLM.sol\":7154:7178  DUSDinvestor[msg.sender] */\n      0xffffffffffffffffffffffffffffffffffffffff\n      and\n      0xffffffffffffffffffffffffffffffffffffffff\n      and\n      dup2\n      mstore\n      0x20\n      add\n      swap1\n      dup2\n      mstore\n      0x20\n      add\n      0x00\n      keccak256\n        /* \"contracts/stake_reward_MLM.sol\":7154:7189  DUSDinvestor[msg.sender].investment */\n      0x00\n      add\n        /* \"contracts/stake_reward_MLM.sol\":7154:7192  DUSDinvestor[msg.sender].investment[i] */\n      0x00\n        /* \"contracts/stake_reward_MLM.sol\":7190:7191  i */\n      dup4\n        /* \"contracts/stake_reward_MLM.sol\":7154:7192  DUSDinvestor[msg.sender].investment[i] */\n      dup2\n      mstore\n      0x20\n      add\n      swap1\n      dup2\n      mstore\n      0x20\n      add\n      0x00\n      keccak256\n        /* \"contracts/stake_reward_MLM.sol\":7154:7207  DUSDinvestor[msg.sender].investment[i].investedAmount */\n      0x00\n      add\n      sload\n        /* \"contracts/stake_reward_MLM.sol\":7154:7211  DUSDinvestor[msg.sender].investment[i].investedAmount > 0 */\n      gt\n        /* \"contracts/stake_reward_MLM.sol\":7150:7442  if( DUSDinvestor[msg.sender].investment[i].investedAmount > 0 ){... */\n      iszero\n      tag_131\n      jumpi\n        /* \"contracts/stake_reward_MLM.sol\":7351:7363  DUSDinvestor */\n      0x08\n        /* \"contracts/stake_reward_MLM.sol\":7351:7375  DUSDinvestor[msg.sender] */\n      0x00\n        /* \"contracts/stake_reward_MLM.sol\":7364:7374  msg.sender */\n      caller\n        /* \"contracts/stake_reward_MLM.sol\":7351:7375  DUSDinvestor[msg.sender] */\n      0xffffffffffffffffffffffffffffffffffffffff\n      and\n      0xffffffffffffffffffffffffffffffffffffffff\n      and\n      dup2\n      mstore\n      0x20\n      add\n      swap1\n      dup2\n      mstore\n      0x20\n      add\n      0x00\n      keccak256\n        /* \"contracts/stake_reward_MLM.sol\":7351:7386  DUSDinvestor[msg.sender].investment */\n      0x00\n      add\n        /* \"contracts/stake_reward_MLM.sol\":7351:7389  DUSDinvestor[msg.sender].investment[i] */\n      0x00\n        /* \"contracts/stake_reward_MLM.sol\":7387:7388  i */\n      dup3\n        /* \"contracts/stake_reward_MLM.sol\":7351:7389  DUSDinvestor[msg.sender].investment[i] */\n      dup2\n      mstore\n      0x20\n      add\n      swap1\n      dup2\n      mstore\n      0x20\n      add\n      0x00\n      keccak256\n        /* \"contracts/stake_reward_MLM.sol\":7328:7389  Invested[currentIndex]=DUSDinvestor[msg.sender].investment[i] */\n      mload(0x40)\n      dup1\n      0x80\n      add\n      0x40\n      mstore\n      swap1\n      dup2\n      0x00\n      dup3\n      add\n      sload\n      dup2\n      mstore\n      0x20\n      add\n      0x01\n      dup3\n      add\n      sload\n      dup2\n      mstore\n      0x20\n      add\n      0x02\n      dup3\n      add\n      sload\n      dup2\n      mstore\n      0x20\n      add\n      0x03\n      dup3\n      add\n      sload\n      dup2\n      mstore\n      pop\n      pop\n        /* \"contracts/stake_reward_MLM.sol\":7328:7336  Invested */\n      dup3\n        /* \"contracts/stake_reward_MLM.sol\":7337:7349  currentIndex */\n      dup5\n        /* \"contracts/stake_reward_MLM.sol\":7328:7350  Invested[currentIndex] */\n      dup2\n      mload\n      dup2\n      lt\n      tag_132\n      jumpi\n      tag_133\n      tag_134\n      jump\t// in\n    tag_133:\n    tag_132:\n      0x20\n      mul\n      0x20\n      add\n      add\n        /* \"contracts/stake_reward_MLM.sol\":7328:7389  Invested[currentIndex]=DUSDinvestor[msg.sender].investment[i] */\n      dup2\n      swap1\n      mstore\n      pop\n        /* \"contracts/stake_reward_MLM.sol\":7410:7424  currentIndex++ */\n      dup3\n      dup1\n      tag_135\n      swap1\n      tag_103\n      jump\t// in\n    tag_135:\n      swap4\n      pop\n      pop\n        /* \"contracts/stake_reward_MLM.sol\":7150:7442  if( DUSDinvestor[msg.sender].investment[i].investedAmount > 0 ){... */\n    tag_131:\n        /* \"contracts/stake_reward_MLM.sol\":7116:7119  i++ */\n      dup1\n      dup1\n      tag_136\n      swap1\n      tag_103\n      jump\t// in\n    tag_136:\n      swap2\n      pop\n      pop\n        /* \"contracts/stake_reward_MLM.sol\":7097:7457  for(uint i=0;i<num;i++)... */\n      jump(tag_128)\n    tag_129:\n      pop\n        /* \"contracts/stake_reward_MLM.sol\":7477:7485  Invested */\n      dup1\n        /* \"contracts/stake_reward_MLM.sol\":7470:7485  return Invested */\n      swap5\n      pop\n      pop\n      pop\n      pop\n      pop\n        /* \"contracts/stake_reward_MLM.sol\":6514:7497  function getAllDUSDinvestments() public view returns (allInvestments[] memory) { //this function will return the all investments of the investor and withware date... */\n      swap1\n      jump\t// out\n        /* \"contracts/stake_reward_MLM.sol\":7507:8113  function getReward() view public returns(uint){ //this function is get the total reward balance of the investor... */\n    tag_53:\n        /* \"contracts/stake_reward_MLM.sol\":7548:7552  uint */\n      0x00\n        /* \"contracts/stake_reward_MLM.sol\":7631:7647  uint totalReward */\n      dup1\n        /* \"contracts/stake_reward_MLM.sol\":7661:7673  uint depTime */\n      0x00\n        /* \"contracts/stake_reward_MLM.sol\":7687:7696  uint temp */\n      dup1\n        /* \"contracts/stake_reward_MLM.sol\":7699:7711  DUSDinvestor */\n      0x08\n        /* \"contracts/stake_reward_MLM.sol\":7699:7723  DUSDinvestor[msg.sender] */\n      0x00\n        /* \"contracts/stake_reward_MLM.sol\":7712:7722  msg.sender */\n      caller\n        /* \"contracts/stake_reward_MLM.sol\":7699:7723  DUSDinvestor[msg.sender] */\n      0xffffffffffffffffffffffffffffffffffffffff\n      and\n      0xffffffffffffffffffffffffffffffffffffffff\n      and\n      dup2\n      mstore\n      0x20\n      add\n      swap1\n      dup2\n      mstore\n      0x20\n      add\n      0x00\n      keccak256\n        /* \"contracts/stake_reward_MLM.sol\":7699:7738  DUSDinvestor[msg.sender].noOfInvestment */\n      0x05\n      add\n      sload\n        /* \"contracts/stake_reward_MLM.sol\":7687:7738  uint temp = DUSDinvestor[msg.sender].noOfInvestment */\n      swap1\n      pop\n        /* \"contracts/stake_reward_MLM.sol\":7756:7762  uint i */\n      0x00\n        /* \"contracts/stake_reward_MLM.sol\":7752:8071  for(uint i=0;i < temp;i++)... */\n    tag_138:\n        /* \"contracts/stake_reward_MLM.sol\":7769:7773  temp */\n      dup2\n        /* \"contracts/stake_reward_MLM.sol\":7765:7766  i */\n      dup2\n        /* \"contracts/stake_reward_MLM.sol\":7765:7773  i < temp */\n      lt\n        /* \"contracts/stake_reward_MLM.sol\":7752:8071  for(uint i=0;i < temp;i++)... */\n      iszero\n      tag_139\n      jumpi\n        /* \"contracts/stake_reward_MLM.sol\":7839:7851  DUSDinvestor */\n      0x08\n        /* \"contracts/stake_reward_MLM.sol\":7839:7863  DUSDinvestor[msg.sender] */\n      0x00\n        /* \"contracts/stake_reward_MLM.sol\":7852:7862  msg.sender */\n      caller\n        /* \"contracts/stake_reward_MLM.sol\":7839:7863  DUSDinvestor[msg.sender] */\n      0xffffffffffffffffffffffffffffffffffffffff\n      and\n      0xffffffffffffffffffffffffffffffffffffffff\n      and\n      dup2\n      mstore\n      0x20\n      add\n      swap1\n      dup2\n      mstore\n      0x20\n      add\n      0x00\n      keccak256\n        /* \"contracts/stake_reward_MLM.sol\":7839:7874  DUSDinvestor[msg.sender].investment */\n      0x00\n      add\n        /* \"contracts/stake_reward_MLM.sol\":7839:7877  DUSDinvestor[msg.sender].investment[i] */\n      0x00\n        /* \"contracts/stake_reward_MLM.sol\":7875:7876  i */\n      dup3\n        /* \"contracts/stake_reward_MLM.sol\":7839:7877  DUSDinvestor[msg.sender].investment[i] */\n      dup2\n      mstore\n      0x20\n      add\n      swap1\n      dup2\n      mstore\n      0x20\n      add\n      0x00\n      keccak256\n        /* \"contracts/stake_reward_MLM.sol\":7839:7889  DUSDinvestor[msg.sender].investment[i].DepositTime */\n      0x02\n      add\n      sload\n        /* \"contracts/stake_reward_MLM.sol\":7821:7836  block.timestamp */\n      timestamp\n        /* \"contracts/stake_reward_MLM.sol\":7821:7889  block.timestamp - DUSDinvestor[msg.sender].investment[i].DepositTime */\n      tag_141\n      swap2\n      swap1\n      tag_142\n      jump\t// in\n    tag_141:\n        /* \"contracts/stake_reward_MLM.sol\":7812:7889  depTime =block.timestamp - DUSDinvestor[msg.sender].investment[i].DepositTime */\n      swap3\n      pop\n        /* \"contracts/stake_reward_MLM.sol\":7923:7925  60 */\n      0x3c\n        /* \"contracts/stake_reward_MLM.sol\":7915:7922  depTime */\n      dup4\n        /* \"contracts/stake_reward_MLM.sol\":7915:7925  depTime/60 */\n      tag_143\n      swap2\n      swap1\n      tag_144\n      jump\t// in\n    tag_143:\n        /* \"contracts/stake_reward_MLM.sol\":7907:7925  depTime=depTime/60 */\n      swap3\n      pop\n        /* \"contracts/stake_reward_MLM.sol\":7962:7963  0 */\n      0x00\n        /* \"contracts/stake_reward_MLM.sol\":7954:7961  depTime */\n      dup4\n        /* \"contracts/stake_reward_MLM.sol\":7954:7963  depTime>0 */\n      gt\n        /* \"contracts/stake_reward_MLM.sol\":7951:8056  if(depTime>0)... */\n      iszero\n      tag_145\n      jumpi\n        /* \"contracts/stake_reward_MLM.sol\":8026:8037  rewardToken */\n      sload(0x04)\n        /* \"contracts/stake_reward_MLM.sol\":8016:8023  depTime */\n      dup4\n        /* \"contracts/stake_reward_MLM.sol\":8016:8037  depTime * rewardToken */\n      tag_146\n      swap2\n      swap1\n      tag_147\n      jump\t// in\n    tag_146:\n        /* \"contracts/stake_reward_MLM.sol\":8002:8037  totalReward = depTime * rewardToken */\n      swap4\n      pop\n        /* \"contracts/stake_reward_MLM.sol\":7951:8056  if(depTime>0)... */\n    tag_145:\n        /* \"contracts/stake_reward_MLM.sol\":7774:7777  i++ */\n      dup1\n      dup1\n      tag_148\n      swap1\n      tag_103\n      jump\t// in\n    tag_148:\n      swap2\n      pop\n      pop\n        /* \"contracts/stake_reward_MLM.sol\":7752:8071  for(uint i=0;i < temp;i++)... */\n      jump(tag_138)\n    tag_139:\n      pop\n        /* \"contracts/stake_reward_MLM.sol\":8091:8102  totalReward */\n      dup3\n        /* \"contracts/stake_reward_MLM.sol\":8084:8102  return totalReward */\n      swap4\n      pop\n      pop\n      pop\n      pop\n        /* \"contracts/stake_reward_MLM.sol\":7507:8113  function getReward() view public returns(uint){ //this function is get the total reward balance of the investor... */\n      swap1\n      jump\t// out\n        /* \"contracts/stake_reward_MLM.sol\":8766:8877  function set_max_Stake_amount(uint _amount) public ... */\n    tag_57:\n        /* \"contracts/stake_reward_MLM.sol\":8859:8866  _amount */\n      dup1\n        /* \"contracts/stake_reward_MLM.sol\":8840:8856  max_Stake_amount */\n      0x06\n        /* \"contracts/stake_reward_MLM.sol\":8840:8866  max_Stake_amount = _amount */\n      dup2\n      swap1\n      sstore\n      pop\n        /* \"contracts/stake_reward_MLM.sol\":8766:8877  function set_max_Stake_amount(uint _amount) public ... */\n      pop\n      jump\t// out\n        /* \"contracts/stake_reward_MLM.sol\":5188:6284  function unStake(uint _id) external  returns (bool success){... */\n    tag_60:\n        /* \"contracts/stake_reward_MLM.sol\":5234:5246  bool success */\n      0x00\n        /* \"contracts/stake_reward_MLM.sol\":5325:5326  0 */\n      dup1\n        /* \"contracts/stake_reward_MLM.sol\":5269:5281  DUSDinvestor */\n      0x08\n        /* \"contracts/stake_reward_MLM.sol\":5269:5293  DUSDinvestor[msg.sender] */\n      0x00\n        /* \"contracts/stake_reward_MLM.sol\":5282:5292  msg.sender */\n      caller\n        /* \"contracts/stake_reward_MLM.sol\":5269:5293  DUSDinvestor[msg.sender] */\n      0xffffffffffffffffffffffffffffffffffffffff\n      and\n      0xffffffffffffffffffffffffffffffffffffffff\n      and\n      dup2\n      mstore\n      0x20\n      add\n      swap1\n      dup2\n      mstore\n      0x20\n      add\n      0x00\n      keccak256\n        /* \"contracts/stake_reward_MLM.sol\":5269:5304  DUSDinvestor[msg.sender].investment */\n      0x00\n      add\n        /* \"contracts/stake_reward_MLM.sol\":5269:5309  DUSDinvestor[msg.sender].investment[_id] */\n      0x00\n        /* \"contracts/stake_reward_MLM.sol\":5305:5308  _id */\n      dup5\n        /* \"contracts/stake_reward_MLM.sol\":5269:5309  DUSDinvestor[msg.sender].investment[_id] */\n      dup2\n      mstore\n      0x20\n      add\n      swap1\n      dup2\n      mstore\n      0x20\n      add\n      0x00\n      keccak256\n        /* \"contracts/stake_reward_MLM.sol\":5269:5324  DUSDinvestor[msg.sender].investment[_id].investedAmount */\n      0x00\n      add\n      sload\n        /* \"contracts/stake_reward_MLM.sol\":5269:5326  DUSDinvestor[msg.sender].investment[_id].investedAmount>0 */\n      gt\n        /* \"contracts/stake_reward_MLM.sol\":5261:5367  require(DUSDinvestor[msg.sender].investment[_id].investedAmount>0,\"you dont have investment to withdrawn\") */\n      tag_151\n      jumpi\n      mload(0x40)\n      0x08c379a000000000000000000000000000000000000000000000000000000000\n      dup2\n      mstore\n      0x04\n      add\n      tag_152\n      swap1\n      tag_153\n      jump\t// in\n    tag_152:\n      mload(0x40)\n      dup1\n      swap2\n      sub\n      swap1\n      revert\n    tag_151:\n        /* \"contracts/stake_reward_MLM.sol\":5439:5450  uint amount */\n      0x00\n        /* \"contracts/stake_reward_MLM.sol\":5451:5463  DUSDinvestor */\n      0x08\n        /* \"contracts/stake_reward_MLM.sol\":5451:5475  DUSDinvestor[msg.sender] */\n      0x00\n        /* \"contracts/stake_reward_MLM.sol\":5464:5474  msg.sender */\n      caller\n        /* \"contracts/stake_reward_MLM.sol\":5451:5475  DUSDinvestor[msg.sender] */\n      0xffffffffffffffffffffffffffffffffffffffff\n      and\n      0xffffffffffffffffffffffffffffffffffffffff\n      and\n      dup2\n      mstore\n      0x20\n      add\n      swap1\n      dup2\n      mstore\n      0x20\n      add\n      0x00\n      keccak256\n        /* \"contracts/stake_reward_MLM.sol\":5451:5486  DUSDinvestor[msg.sender].investment */\n      0x00\n      add\n        /* \"contracts/stake_reward_MLM.sol\":5451:5491  DUSDinvestor[msg.sender].investment[_id] */\n      0x00\n        /* \"contracts/stake_reward_MLM.sol\":5487:5490  _id */\n      dup5\n        /* \"contracts/stake_reward_MLM.sol\":5451:5491  DUSDinvestor[msg.sender].investment[_id] */\n      dup2\n      mstore\n      0x20\n      add\n      swap1\n      dup2\n      mstore\n      0x20\n      add\n      0x00\n      keccak256\n        /* \"contracts/stake_reward_MLM.sol\":5451:5506  DUSDinvestor[msg.sender].investment[_id].investedAmount */\n      0x00\n      add\n      sload\n        /* \"contracts/stake_reward_MLM.sol\":5439:5506  uint amount=DUSDinvestor[msg.sender].investment[_id].investedAmount */\n      swap1\n      pop\n        /* \"contracts/stake_reward_MLM.sol\":5580:5595  block.timestamp */\n      timestamp\n        /* \"contracts/stake_reward_MLM.sol\":5523:5535  DUSDinvestor */\n      0x08\n        /* \"contracts/stake_reward_MLM.sol\":5523:5547  DUSDinvestor[msg.sender] */\n      0x00\n        /* \"contracts/stake_reward_MLM.sol\":5536:5546  msg.sender */\n      caller\n        /* \"contracts/stake_reward_MLM.sol\":5523:5547  DUSDinvestor[msg.sender] */\n      0xffffffffffffffffffffffffffffffffffffffff\n      and\n      0xffffffffffffffffffffffffffffffffffffffff\n      and\n      dup2\n      mstore\n      0x20\n      add\n      swap1\n      dup2\n      mstore\n      0x20\n      add\n      0x00\n      keccak256\n        /* \"contracts/stake_reward_MLM.sol\":5523:5558  DUSDinvestor[msg.sender].investment */\n      0x00\n      add\n        /* \"contracts/stake_reward_MLM.sol\":5523:5563  DUSDinvestor[msg.sender].investment[_id] */\n      0x00\n        /* \"contracts/stake_reward_MLM.sol\":5559:5562  _id */\n      dup6\n        /* \"contracts/stake_reward_MLM.sol\":5523:5563  DUSDinvestor[msg.sender].investment[_id] */\n      dup2\n      mstore\n      0x20\n      add\n      swap1\n      dup2\n      mstore\n      0x20\n      add\n      0x00\n      keccak256\n        /* \"contracts/stake_reward_MLM.sol\":5523:5577  DUSDinvestor[msg.sender].investment[_id].withdrawnTime */\n      0x01\n      add\n      sload\n        /* \"contracts/stake_reward_MLM.sol\":5523:5595  DUSDinvestor[msg.sender].investment[_id].withdrawnTime > block.timestamp */\n      gt\n        /* \"contracts/stake_reward_MLM.sol\":5520:5659  if(DUSDinvestor[msg.sender].investment[_id].withdrawnTime > block.timestamp)... */\n      iszero\n      tag_154\n      jumpi\n        /* \"contracts/stake_reward_MLM.sol\":5643:5644  2 */\n      0x02\n        /* \"contracts/stake_reward_MLM.sol\":5636:5642  amount */\n      dup2\n        /* \"contracts/stake_reward_MLM.sol\":5636:5644  amount/2 */\n      tag_155\n      swap2\n      swap1\n      tag_144\n      jump\t// in\n    tag_155:\n        /* \"contracts/stake_reward_MLM.sol\":5627:5644  amount = amount/2 */\n      swap1\n      pop\n        /* \"contracts/stake_reward_MLM.sol\":5520:5659  if(DUSDinvestor[msg.sender].investment[_id].withdrawnTime > block.timestamp)... */\n    tag_154:\n        /* \"contracts/stake_reward_MLM.sol\":5690:5701  SMCcontract */\n      0x01\n      0x00\n      swap1\n      sload\n      swap1\n      0x0100\n      exp\n      swap1\n      div\n      0xffffffffffffffffffffffffffffffffffffffff\n      and\n        /* \"contracts/stake_reward_MLM.sol\":5685:5711  DUSD(SMCcontract).transfer */\n      0xffffffffffffffffffffffffffffffffffffffff\n      and\n      0xa9059cbb\n        /* \"contracts/stake_reward_MLM.sol\":5712:5722  msg.sender */\n      caller\n        /* \"contracts/stake_reward_MLM.sol\":5723:5729  amount */\n      dup4\n        /* \"contracts/stake_reward_MLM.sol\":5685:5730  DUSD(SMCcontract).transfer(msg.sender,amount) */\n      mload(0x40)\n      dup4\n      0xffffffff\n      and\n      0xe0\n      shl\n      dup2\n      mstore\n      0x04\n      add\n      tag_156\n      swap3\n      swap2\n      swap1\n      tag_157\n      jump\t// in\n    tag_156:\n      0x20\n      mload(0x40)\n      dup1\n      dup4\n      sub\n      dup2\n      0x00\n      dup8\n      dup1\n      extcodesize\n      iszero\n      dup1\n      iszero\n      tag_158\n      jumpi\n      0x00\n      dup1\n      revert\n    tag_158:\n      pop\n      gas\n      call\n      iszero\n      dup1\n      iszero\n      tag_160\n      jumpi\n      returndatasize\n      0x00\n      dup1\n      returndatacopy\n      revert(0x00, returndatasize)\n    tag_160:\n      pop\n      pop\n      pop\n      pop\n      mload(0x40)\n      returndatasize\n      not(0x1f)\n      0x1f\n      dup3\n      add\n      and\n      dup3\n      add\n      dup1\n      0x40\n      mstore\n      pop\n      dup2\n      add\n      swap1\n      tag_161\n      swap2\n      swap1\n      tag_162\n      jump\t// in\n    tag_161:\n      pop\n        /* \"contracts/stake_reward_MLM.sol\":5817:5828  SMCcontract */\n      0x01\n      0x00\n      swap1\n      sload\n      swap1\n      0x0100\n      exp\n      swap1\n      div\n      0xffffffffffffffffffffffffffffffffffffffff\n      and\n        /* \"contracts/stake_reward_MLM.sol\":5812:5838  DUSD(SMCcontract).transfer */\n      0xffffffffffffffffffffffffffffffffffffffff\n      and\n      0xa9059cbb\n        /* \"contracts/stake_reward_MLM.sol\":5839:5844  owner */\n      0x00\n      dup1\n      sload\n      swap1\n      0x0100\n      exp\n      swap1\n      div\n      0xffffffffffffffffffffffffffffffffffffffff\n      and\n        /* \"contracts/stake_reward_MLM.sol\":5845:5851  amount */\n      dup4\n        /* \"contracts/stake_reward_MLM.sol\":5812:5852  DUSD(SMCcontract).transfer(owner,amount) */\n      mload(0x40)\n      dup4\n      0xffffffff\n      and\n      0xe0\n      shl\n      dup2\n      mstore\n      0x04\n      add\n      tag_163\n      swap3\n      swap2\n      swap1\n      tag_157\n      jump\t// in\n    tag_163:\n      0x20\n      mload(0x40)\n      dup1\n      dup4\n      sub\n      dup2\n      0x00\n      dup8\n      dup1\n      extcodesize\n      iszero\n      dup1\n      iszero\n      tag_164\n      jumpi\n      0x00\n      dup1\n      revert\n    tag_164:\n      pop\n      gas\n      call\n      iszero\n      dup1\n      iszero\n      tag_166\n      jumpi\n      returndatasize\n      0x00\n      dup1\n      returndatacopy\n      revert(0x00, returndatasize)\n    tag_166:\n      pop\n      pop\n      pop\n      pop\n      mload(0x40)\n      returndatasize\n      not(0x1f)\n      0x1f\n      dup3\n      add\n      and\n      dup3\n      add\n      dup1\n      0x40\n      mstore\n      pop\n      dup2\n      add\n      swap1\n      tag_167\n      swap2\n      swap1\n      tag_162\n      jump\t// in\n    tag_167:\n      pop\n        /* \"contracts/stake_reward_MLM.sol\":5991:5992  0 */\n      0x00\n        /* \"contracts/stake_reward_MLM.sol\":5935:5947  DUSDinvestor */\n      0x08\n        /* \"contracts/stake_reward_MLM.sol\":5935:5959  DUSDinvestor[msg.sender] */\n      0x00\n        /* \"contracts/stake_reward_MLM.sol\":5948:5958  msg.sender */\n      caller\n        /* \"contracts/stake_reward_MLM.sol\":5935:5959  DUSDinvestor[msg.sender] */\n      0xffffffffffffffffffffffffffffffffffffffff\n      and\n      0xffffffffffffffffffffffffffffffffffffffff\n      and\n      dup2\n      mstore\n      0x20\n      add\n      swap1\n      dup2\n      mstore\n      0x20\n      add\n      0x00\n      keccak256\n        /* \"contracts/stake_reward_MLM.sol\":5935:5970  DUSDinvestor[msg.sender].investment */\n      0x00\n      add\n        /* \"contracts/stake_reward_MLM.sol\":5935:5975  DUSDinvestor[msg.sender].investment[_id] */\n      0x00\n        /* \"contracts/stake_reward_MLM.sol\":5971:5974  _id */\n      dup6\n        /* \"contracts/stake_reward_MLM.sol\":5935:5975  DUSDinvestor[msg.sender].investment[_id] */\n      dup2\n      mstore\n      0x20\n      add\n      swap1\n      dup2\n      mstore\n      0x20\n      add\n      0x00\n      keccak256\n        /* \"contracts/stake_reward_MLM.sol\":5935:5990  DUSDinvestor[msg.sender].investment[_id].investedAmount */\n      0x00\n      add\n        /* \"contracts/stake_reward_MLM.sol\":5935:5992  DUSDinvestor[msg.sender].investment[_id].investedAmount=0 */\n      dup2\n      swap1\n      sstore\n      pop\n        /* \"contracts/stake_reward_MLM.sol\":6171:6177  amount */\n      dup1\n        /* \"contracts/stake_reward_MLM.sol\":6129:6141  DUSDinvestor */\n      0x08\n        /* \"contracts/stake_reward_MLM.sol\":6129:6153  DUSDinvestor[msg.sender] */\n      0x00\n        /* \"contracts/stake_reward_MLM.sol\":6142:6152  msg.sender */\n      caller\n        /* \"contracts/stake_reward_MLM.sol\":6129:6153  DUSDinvestor[msg.sender] */\n      0xffffffffffffffffffffffffffffffffffffffff\n      and\n      0xffffffffffffffffffffffffffffffffffffffff\n      and\n      dup2\n      mstore\n      0x20\n      add\n      swap1\n      dup2\n      mstore\n      0x20\n      add\n      0x00\n      keccak256\n        /* \"contracts/stake_reward_MLM.sol\":6129:6169  DUSDinvestor[msg.sender].totalInvestment */\n      0x06\n      add\n      0x00\n        /* \"contracts/stake_reward_MLM.sol\":6129:6177  DUSDinvestor[msg.sender].totalInvestment-=amount */\n      dup3\n      dup3\n      sload\n      tag_168\n      swap2\n      swap1\n      tag_142\n      jump\t// in\n    tag_168:\n      swap3\n      pop\n      pop\n      dup2\n      swap1\n      sstore\n      pop\n        /* \"contracts/stake_reward_MLM.sol\":6268:6272  true */\n      0x01\n        /* \"contracts/stake_reward_MLM.sol\":6261:6272  return true */\n      swap2\n      pop\n      pop\n        /* \"contracts/stake_reward_MLM.sol\":5188:6284  function unStake(uint _id) external  returns (bool success){... */\n      swap2\n      swap1\n      pop\n      jump\t// out\n        /* \"contracts/stake_reward_MLM.sol\":300:321  address  public owner */\n    tag_63:\n      0x00\n      dup1\n      sload\n      swap1\n      0x0100\n      exp\n      swap1\n      div\n      0xffffffffffffffffffffffffffffffffffffffff\n      and\n      dup2\n      jump\t// out\n        /* \"contracts/stake_reward_MLM.sol\":6294:6504  function getTotalInvestmentDUSD() public view returns(uint) {   //this function is to get the total investment of the ivestor... */\n    tag_67:\n        /* \"contracts/stake_reward_MLM.sol\":6348:6352  uint */\n      0x00\n        /* \"contracts/stake_reward_MLM.sol\":6452:6464  DUSDinvestor */\n      0x08\n        /* \"contracts/stake_reward_MLM.sol\":6452:6476  DUSDinvestor[msg.sender] */\n      0x00\n        /* \"contracts/stake_reward_MLM.sol\":6465:6475  msg.sender */\n      caller\n        /* \"contracts/stake_reward_MLM.sol\":6452:6476  DUSDinvestor[msg.sender] */\n      0xffffffffffffffffffffffffffffffffffffffff\n      and\n      0xffffffffffffffffffffffffffffffffffffffff\n      and\n      dup2\n      mstore\n      0x20\n      add\n      swap1\n      dup2\n      mstore\n      0x20\n      add\n      0x00\n      keccak256\n        /* \"contracts/stake_reward_MLM.sol\":6452:6492  DUSDinvestor[msg.sender].totalInvestment */\n      0x06\n      add\n      sload\n        /* \"contracts/stake_reward_MLM.sol\":6445:6492  return DUSDinvestor[msg.sender].totalInvestment */\n      swap1\n      pop\n        /* \"contracts/stake_reward_MLM.sol\":6294:6504  function getTotalInvestmentDUSD() public view returns(uint) {   //this function is to get the total investment of the ivestor... */\n      swap1\n      jump\t// out\n        /* \"contracts/stake_reward_MLM.sol\":9303:9851  function referralLevel_earning() public view returns( uint[] memory arr )... */\n    tag_70:\n        /* \"contracts/stake_reward_MLM.sol\":9357:9374  uint[] memory arr */\n      0x60\n        /* \"contracts/stake_reward_MLM.sol\":9399:9434  uint[] memory referralLevels_reward */\n      0x00\n        /* \"contracts/stake_reward_MLM.sol\":9446:9448  20 */\n      0x14\n        /* \"contracts/stake_reward_MLM.sol\":9435:9449  new uint[](20) */\n      0xffffffffffffffff\n      dup2\n      gt\n      iszero\n      tag_171\n      jumpi\n      tag_172\n      tag_123\n      jump\t// in\n    tag_172:\n    tag_171:\n      mload(0x40)\n      swap1\n      dup1\n      dup3\n      mstore\n      dup1\n      0x20\n      mul\n      0x20\n      add\n      dup3\n      add\n      0x40\n      mstore\n      dup1\n      iszero\n      tag_173\n      jumpi\n      dup2\n      0x20\n      add\n      0x20\n      dup3\n      mul\n      dup1\n      calldatasize\n      dup4\n      calldatacopy\n      dup1\n      dup3\n      add\n      swap2\n      pop\n      pop\n      swap1\n      pop\n    tag_173:\n      pop\n        /* \"contracts/stake_reward_MLM.sol\":9399:9449  uint[] memory referralLevels_reward=new uint[](20) */\n      swap1\n      pop\n        /* \"contracts/stake_reward_MLM.sol\":9467:9473  uint i */\n      0x00\n        /* \"contracts/stake_reward_MLM.sol\":9463:9796  for(uint i=0;i<20;i++)... */\n    tag_174:\n        /* \"contracts/stake_reward_MLM.sol\":9478:9480  20 */\n      0x14\n        /* \"contracts/stake_reward_MLM.sol\":9476:9477  i */\n      dup2\n        /* \"contracts/stake_reward_MLM.sol\":9476:9480  i<20 */\n      lt\n        /* \"contracts/stake_reward_MLM.sol\":9463:9796  for(uint i=0;i<20;i++)... */\n      iszero\n      tag_175\n      jumpi\n        /* \"contracts/stake_reward_MLM.sol\":9561:9562  0 */\n      0x00\n        /* \"contracts/stake_reward_MLM.sol\":9519:9531  DUSDinvestor */\n      0x08\n        /* \"contracts/stake_reward_MLM.sol\":9519:9543  DUSDinvestor[msg.sender] */\n      0x00\n        /* \"contracts/stake_reward_MLM.sol\":9532:9542  msg.sender */\n      caller\n        /* \"contracts/stake_reward_MLM.sol\":9519:9543  DUSDinvestor[msg.sender] */\n      0xffffffffffffffffffffffffffffffffffffffff\n      and\n      0xffffffffffffffffffffffffffffffffffffffff\n      and\n      dup2\n      mstore\n      0x20\n      add\n      swap1\n      dup2\n      mstore\n      0x20\n      add\n      0x00\n      keccak256\n        /* \"contracts/stake_reward_MLM.sol\":9519:9557  DUSDinvestor[msg.sender].referralLevel */\n      0x03\n      add\n        /* \"contracts/stake_reward_MLM.sol\":9558:9559  i */\n      dup3\n        /* \"contracts/stake_reward_MLM.sol\":9519:9560  DUSDinvestor[msg.sender].referralLevel[i] */\n      dup2\n      sload\n      dup2\n      lt\n      tag_177\n      jumpi\n      tag_178\n      tag_134\n      jump\t// in\n    tag_178:\n    tag_177:\n      swap1\n      0x00\n      mstore\n      keccak256(0x00, 0x20)\n      add\n      sload\n        /* \"contracts/stake_reward_MLM.sol\":9519:9562  DUSDinvestor[msg.sender].referralLevel[i]>0 */\n      gt\n        /* \"contracts/stake_reward_MLM.sol\":9516:9780  if(DUSDinvestor[msg.sender].referralLevel[i]>0)... */\n      iszero\n      tag_180\n      jumpi\n        /* \"contracts/stake_reward_MLM.sol\":9629:9641  DUSDinvestor */\n      0x08\n        /* \"contracts/stake_reward_MLM.sol\":9629:9653  DUSDinvestor[msg.sender] */\n      0x00\n        /* \"contracts/stake_reward_MLM.sol\":9642:9652  msg.sender */\n      caller\n        /* \"contracts/stake_reward_MLM.sol\":9629:9653  DUSDinvestor[msg.sender] */\n      0xffffffffffffffffffffffffffffffffffffffff\n      and\n      0xffffffffffffffffffffffffffffffffffffffff\n      and\n      dup2\n      mstore\n      0x20\n      add\n      swap1\n      dup2\n      mstore\n      0x20\n      add\n      0x00\n      keccak256\n        /* \"contracts/stake_reward_MLM.sol\":9629:9667  DUSDinvestor[msg.sender].referralLevel */\n      0x03\n      add\n        /* \"contracts/stake_reward_MLM.sol\":9668:9669  i */\n      dup2\n        /* \"contracts/stake_reward_MLM.sol\":9629:9670  DUSDinvestor[msg.sender].referralLevel[i] */\n      dup2\n      sload\n      dup2\n      lt\n      tag_181\n      jumpi\n      tag_182\n      tag_134\n      jump\t// in\n    tag_182:\n    tag_181:\n      swap1\n      0x00\n      mstore\n      keccak256(0x00, 0x20)\n      add\n      sload\n        /* \"contracts/stake_reward_MLM.sol\":9602:9623  referralLevels_reward */\n      dup3\n        /* \"contracts/stake_reward_MLM.sol\":9624:9625  i */\n      dup3\n        /* \"contracts/stake_reward_MLM.sol\":9602:9626  referralLevels_reward[i] */\n      dup2\n      mload\n      dup2\n      lt\n      tag_184\n      jumpi\n      tag_185\n      tag_134\n      jump\t// in\n    tag_185:\n    tag_184:\n      0x20\n      mul\n      0x20\n      add\n      add\n        /* \"contracts/stake_reward_MLM.sol\":9602:9670  referralLevels_reward[i] = DUSDinvestor[msg.sender].referralLevel[i] */\n      dup2\n      dup2\n      mstore\n      pop\n      pop\n        /* \"contracts/stake_reward_MLM.sol\":9516:9780  if(DUSDinvestor[msg.sender].referralLevel[i]>0)... */\n      jump(tag_186)\n    tag_180:\n        /* \"contracts/stake_reward_MLM.sol\":9760:9761  0 */\n      0x00\n        /* \"contracts/stake_reward_MLM.sol\":9733:9754  referralLevels_reward */\n      dup3\n        /* \"contracts/stake_reward_MLM.sol\":9755:9756  i */\n      dup3\n        /* \"contracts/stake_reward_MLM.sol\":9733:9757  referralLevels_reward[i] */\n      dup2\n      mload\n      dup2\n      lt\n      tag_187\n      jumpi\n      tag_188\n      tag_134\n      jump\t// in\n    tag_188:\n    tag_187:\n      0x20\n      mul\n      0x20\n      add\n      add\n        /* \"contracts/stake_reward_MLM.sol\":9733:9761  referralLevels_reward[i] = 0 */\n      dup2\n      dup2\n      mstore\n      pop\n      pop\n        /* \"contracts/stake_reward_MLM.sol\":9516:9780  if(DUSDinvestor[msg.sender].referralLevel[i]>0)... */\n    tag_186:\n        /* \"contracts/stake_reward_MLM.sol\":9481:9484  i++ */\n      dup1\n      dup1\n      tag_189\n      swap1\n      tag_103\n      jump\t// in\n    tag_189:\n      swap2\n      pop\n      pop\n        /* \"contracts/stake_reward_MLM.sol\":9463:9796  for(uint i=0;i<20;i++)... */\n      jump(tag_174)\n    tag_175:\n      pop\n        /* \"contracts/stake_reward_MLM.sol\":9816:9837  referralLevels_reward */\n      dup1\n        /* \"contracts/stake_reward_MLM.sol\":9809:9837  return referralLevels_reward */\n      swap2\n      pop\n      pop\n        /* \"contracts/stake_reward_MLM.sol\":9303:9851  function referralLevel_earning() public view returns( uint[] memory arr )... */\n      swap1\n      jump\t// out\n        /* \"contracts/stake_reward_MLM.sol\":4771:5177  function withdrawReward() external returns (bool success){... */\n    tag_74:\n        /* \"contracts/stake_reward_MLM.sol\":4815:4827  bool success */\n      0x00\n        /* \"contracts/stake_reward_MLM.sol\":4842:4859  uint Total_reward */\n      dup1\n        /* \"contracts/stake_reward_MLM.sol\":4862:4873  getReward() */\n      tag_191\n        /* \"contracts/stake_reward_MLM.sol\":4862:4871  getReward */\n      tag_53\n        /* \"contracts/stake_reward_MLM.sol\":4862:4873  getReward() */\n      jump\t// in\n    tag_191:\n        /* \"contracts/stake_reward_MLM.sol\":4842:4873  uint Total_reward = getReward() */\n      swap1\n      pop\n        /* \"contracts/stake_reward_MLM.sol\":4908:4909  0 */\n      0x00\n        /* \"contracts/stake_reward_MLM.sol\":4895:4907  Total_reward */\n      dup2\n        /* \"contracts/stake_reward_MLM.sol\":4895:4909  Total_reward>0 */\n      gt\n        /* \"contracts/stake_reward_MLM.sol\":4887:4947  require(Total_reward>0,\"you dont have rewards to withdrawn\") */\n      tag_192\n      jumpi\n      mload(0x40)\n      0x08c379a000000000000000000000000000000000000000000000000000000000\n      dup2\n      mstore\n      0x04\n      add\n      tag_193\n      swap1\n      tag_194\n      jump\t// in\n    tag_193:\n      mload(0x40)\n      dup1\n      swap2\n      sub\n      swap1\n      revert\n    tag_192:\n        /* \"contracts/stake_reward_MLM.sol\":5031:5042  SMCcontract */\n      0x01\n      0x00\n      swap1\n      sload\n      swap1\n      0x0100\n      exp\n      swap1\n      div\n      0xffffffffffffffffffffffffffffffffffffffff\n      and\n        /* \"contracts/stake_reward_MLM.sol\":5026:5052  DUSD(SMCcontract).transfer */\n      0xffffffffffffffffffffffffffffffffffffffff\n      and\n      0xa9059cbb\n        /* \"contracts/stake_reward_MLM.sol\":5053:5063  msg.sender */\n      caller\n        /* \"contracts/stake_reward_MLM.sol\":5064:5076  Total_reward */\n      dup4\n        /* \"contracts/stake_reward_MLM.sol\":5026:5077  DUSD(SMCcontract).transfer(msg.sender,Total_reward) */\n      mload(0x40)\n      dup4\n      0xffffffff\n      and\n      0xe0\n      shl\n      dup2\n      mstore\n      0x04\n      add\n      tag_195\n      swap3\n      swap2\n      swap1\n      tag_157\n      jump\t// in\n    tag_195:\n      0x20\n      mload(0x40)\n      dup1\n      dup4\n      sub\n      dup2\n      0x00\n      dup8\n      dup1\n      extcodesize\n      iszero\n      dup1\n      iszero\n      tag_196\n      jumpi\n      0x00\n      dup1\n      revert\n    tag_196:\n      pop\n      gas\n      call\n      iszero\n      dup1\n      iszero\n      tag_198\n      jumpi\n      returndatasize\n      0x00\n      dup1\n      returndatacopy\n      revert(0x00, returndatasize)\n    tag_198:\n      pop\n      pop\n      pop\n      pop\n      mload(0x40)\n      returndatasize\n      not(0x1f)\n      0x1f\n      dup3\n      add\n      and\n      dup3\n      add\n      dup1\n      0x40\n      mstore\n      pop\n      dup2\n      add\n      swap1\n      tag_199\n      swap2\n      swap1\n      tag_162\n      jump\t// in\n    tag_199:\n      pop\n        /* \"contracts/stake_reward_MLM.sol\":5161:5165  true */\n      0x01\n        /* \"contracts/stake_reward_MLM.sol\":5154:5165  return true */\n      swap2\n      pop\n      pop\n        /* \"contracts/stake_reward_MLM.sol\":4771:5177  function withdrawReward() external returns (bool success){... */\n      swap1\n      jump\t// out\n        /* \"contracts/stake_reward_MLM.sol\":8886:9110  function set_values(uint min_stake,uint max_stake,uint reward_per_day) public ... */\n    tag_79:\n        /* \"contracts/stake_reward_MLM.sol\":9006:9015  max_stake */\n      dup2\n        /* \"contracts/stake_reward_MLM.sol\":8987:9003  max_Stake_amount */\n      0x06\n        /* \"contracts/stake_reward_MLM.sol\":8987:9015  max_Stake_amount = max_stake */\n      dup2\n      swap1\n      sstore\n      pop\n        /* \"contracts/stake_reward_MLM.sol\":9048:9057  min_stake */\n      dup3\n        /* \"contracts/stake_reward_MLM.sol\":9029:9045  min_Stake_amount */\n      0x05\n        /* \"contracts/stake_reward_MLM.sol\":9029:9057  min_Stake_amount = min_stake */\n      dup2\n      swap1\n      sstore\n      pop\n        /* \"contracts/stake_reward_MLM.sol\":9085:9099  reward_per_day */\n      dup1\n        /* \"contracts/stake_reward_MLM.sol\":9071:9082  rewardToken */\n      0x04\n        /* \"contracts/stake_reward_MLM.sol\":9071:9099  rewardToken = reward_per_day */\n      dup2\n      swap1\n      sstore\n      pop\n        /* \"contracts/stake_reward_MLM.sol\":8886:9110  function set_values(uint min_stake,uint max_stake,uint reward_per_day) public ... */\n      pop\n      pop\n      pop\n      jump\t// out\n        /* \"contracts/stake_reward_MLM.sol\":1245:1287  mapping(address=>Data) public DUSDinvestor */\n    tag_83:\n      mstore(0x20, 0x08)\n      dup1\n      0x00\n      mstore\n      keccak256(0x00, 0x40)\n      0x00\n      swap2\n      pop\n      swap1\n      pop\n      dup1\n      0x02\n      add\n      0x00\n      swap1\n      sload\n      swap1\n      0x0100\n      exp\n      swap1\n      div\n      0xffffffffffffffffffffffffffffffffffffffff\n      and\n      swap1\n      dup1\n      0x04\n      add\n      sload\n      swap1\n      dup1\n      0x05\n      add\n      sload\n      swap1\n      dup1\n      0x06\n      add\n      sload\n      swap1\n      dup1\n      0x07\n      add\n      0x00\n      swap1\n      sload\n      swap1\n      0x0100\n      exp\n      swap1\n      div\n      0xff\n      and\n      swap1\n      pop\n      dup6\n      jump\t// out\n        /* \"contracts/stake_reward_MLM.sol\":9119:9293  function transferOwnership(address _owner)  public... */\n    tag_88:\n        /* \"contracts/stake_reward_MLM.sol\":9212:9217  owner */\n      0x00\n      dup1\n      sload\n      swap1\n      0x0100\n      exp\n      swap1\n      div\n      0xffffffffffffffffffffffffffffffffffffffff\n      and\n        /* \"contracts/stake_reward_MLM.sol\":9200:9217  msg.sender==owner */\n      0xffffffffffffffffffffffffffffffffffffffff\n      and\n        /* \"contracts/stake_reward_MLM.sol\":9200:9210  msg.sender */\n      caller\n        /* \"contracts/stake_reward_MLM.sol\":9200:9217  msg.sender==owner */\n      0xffffffffffffffffffffffffffffffffffffffff\n      and\n      eq\n        /* \"contracts/stake_reward_MLM.sol\":9192:9254  require(msg.sender==owner,\"only Owner can call this function\") */\n      tag_202\n      jumpi\n      mload(0x40)\n      0x08c379a000000000000000000000000000000000000000000000000000000000\n      dup2\n      mstore\n      0x04\n      add\n      tag_203\n      swap1\n      tag_204\n      jump\t// in\n    tag_203:\n      mload(0x40)\n      dup1\n      swap2\n      sub\n      swap1\n      revert\n    tag_202:\n        /* \"contracts/stake_reward_MLM.sol\":9276:9282  _owner */\n      dup1\n        /* \"contracts/stake_reward_MLM.sol\":9268:9273  owner */\n      0x00\n      dup1\n        /* \"contracts/stake_reward_MLM.sol\":9268:9282  owner = _owner */\n      0x0100\n      exp\n      dup2\n      sload\n      dup2\n      0xffffffffffffffffffffffffffffffffffffffff\n      mul\n      not\n      and\n      swap1\n      dup4\n      0xffffffffffffffffffffffffffffffffffffffff\n      and\n      mul\n      or\n      swap1\n      sstore\n      pop\n        /* \"contracts/stake_reward_MLM.sol\":9119:9293  function transferOwnership(address _owner)  public... */\n      pop\n      jump\t// out\n        /* \"contracts/stake_reward_MLM.sol\":516:558  uint public rewardToken=500000000000000000 */\n    tag_90:\n      sload(0x04)\n      dup2\n      jump\t// out\n        /* \"contracts/stake_reward_MLM.sol\":1438:3008  function sendRewardToDUSDReferrals(address investor,uint _investedAmount)  internal  //this is the freferral function to transfer the reawards to referrals... */\n    tag_112:\n        /* \"contracts/stake_reward_MLM.sol\":1618:1630  address temp */\n      0x00\n        /* \"contracts/stake_reward_MLM.sol\":1633:1641  investor */\n      dup3\n        /* \"contracts/stake_reward_MLM.sol\":1618:1641  address temp = investor */\n      swap1\n      pop\n        /* \"contracts/stake_reward_MLM.sol\":1662:1686  uint[] memory percentage */\n      0x00\n        /* \"contracts/stake_reward_MLM.sol\":1700:1701  5 */\n      0x05\n        /* \"contracts/stake_reward_MLM.sol\":1689:1702  new uint[](5) */\n      0xffffffffffffffff\n      dup2\n      gt\n      iszero\n      tag_206\n      jumpi\n      tag_207\n      tag_123\n      jump\t// in\n    tag_207:\n    tag_206:\n      mload(0x40)\n      swap1\n      dup1\n      dup3\n      mstore\n      dup1\n      0x20\n      mul\n      0x20\n      add\n      dup3\n      add\n      0x40\n      mstore\n      dup1\n      iszero\n      tag_208\n      jumpi\n      dup2\n      0x20\n      add\n      0x20\n      dup3\n      mul\n      dup1\n      calldatasize\n      dup4\n      calldatacopy\n      dup1\n      dup3\n      add\n      swap2\n      pop\n      pop\n      swap1\n      pop\n    tag_208:\n      pop\n        /* \"contracts/stake_reward_MLM.sol\":1662:1702  uint[] memory percentage = new uint[](5) */\n      swap1\n      pop\n        /* \"contracts/stake_reward_MLM.sol\":1732:1739  5 ether */\n      0x4563918244f40000\n        /* \"contracts/stake_reward_MLM.sol\":1716:1726  percentage */\n      dup2\n        /* \"contracts/stake_reward_MLM.sol\":1727:1728  0 */\n      0x00\n        /* \"contracts/stake_reward_MLM.sol\":1716:1729  percentage[0] */\n      dup2\n      mload\n      dup2\n      lt\n      tag_209\n      jumpi\n      tag_210\n      tag_134\n      jump\t// in\n    tag_210:\n    tag_209:\n      0x20\n      mul\n      0x20\n      add\n      add\n        /* \"contracts/stake_reward_MLM.sol\":1716:1739  percentage[0] = 5 ether */\n      dup2\n      dup2\n      mstore\n      pop\n      pop\n        /* \"contracts/stake_reward_MLM.sol\":1769:1776  3 ether */\n      0x29a2241af62c0000\n        /* \"contracts/stake_reward_MLM.sol\":1753:1763  percentage */\n      dup2\n        /* \"contracts/stake_reward_MLM.sol\":1764:1765  1 */\n      0x01\n        /* \"contracts/stake_reward_MLM.sol\":1753:1766  percentage[1] */\n      dup2\n      mload\n      dup2\n      lt\n      tag_211\n      jumpi\n      tag_212\n      tag_134\n      jump\t// in\n    tag_212:\n    tag_211:\n      0x20\n      mul\n      0x20\n      add\n      add\n        /* \"contracts/stake_reward_MLM.sol\":1753:1776  percentage[1] = 3 ether */\n      dup2\n      dup2\n      mstore\n      pop\n      pop\n        /* \"contracts/stake_reward_MLM.sol\":1806:1813  2 ether */\n      0x1bc16d674ec80000\n        /* \"contracts/stake_reward_MLM.sol\":1790:1800  percentage */\n      dup2\n        /* \"contracts/stake_reward_MLM.sol\":1801:1802  2 */\n      0x02\n        /* \"contracts/stake_reward_MLM.sol\":1790:1803  percentage[2] */\n      dup2\n      mload\n      dup2\n      lt\n      tag_213\n      jumpi\n      tag_214\n      tag_134\n      jump\t// in\n    tag_214:\n    tag_213:\n      0x20\n      mul\n      0x20\n      add\n      add\n        /* \"contracts/stake_reward_MLM.sol\":1790:1813  percentage[2] = 2 ether */\n      dup2\n      dup2\n      mstore\n      pop\n      pop\n        /* \"contracts/stake_reward_MLM.sol\":1843:1850  1 ether */\n      0x0de0b6b3a7640000\n        /* \"contracts/stake_reward_MLM.sol\":1827:1837  percentage */\n      dup2\n        /* \"contracts/stake_reward_MLM.sol\":1838:1839  3 */\n      0x03\n        /* \"contracts/stake_reward_MLM.sol\":1827:1840  percentage[3] */\n      dup2\n      mload\n      dup2\n      lt\n      tag_215\n      jumpi\n      tag_216\n      tag_134\n      jump\t// in\n    tag_216:\n    tag_215:\n      0x20\n      mul\n      0x20\n      add\n      add\n        /* \"contracts/stake_reward_MLM.sol\":1827:1850  percentage[3] = 1 ether */\n      dup2\n      dup2\n      mstore\n      pop\n      pop\n        /* \"contracts/stake_reward_MLM.sol\":1880:1889  0.5 ether */\n      0x06f05b59d3b20000\n        /* \"contracts/stake_reward_MLM.sol\":1864:1874  percentage */\n      dup2\n        /* \"contracts/stake_reward_MLM.sol\":1875:1876  4 */\n      0x04\n        /* \"contracts/stake_reward_MLM.sol\":1864:1877  percentage[4] */\n      dup2\n      mload\n      dup2\n      lt\n      tag_217\n      jumpi\n      tag_218\n      tag_134\n      jump\t// in\n    tag_218:\n    tag_217:\n      0x20\n      mul\n      0x20\n      add\n      add\n        /* \"contracts/stake_reward_MLM.sol\":1864:1889  percentage[4] = 0.5 ether */\n      dup2\n      dup2\n      mstore\n      pop\n      pop\n        /* \"contracts/stake_reward_MLM.sol\":1905:1911  uint j */\n      0x00\n        /* \"contracts/stake_reward_MLM.sol\":1929:1935  uint i */\n      dup1\n        /* \"contracts/stake_reward_MLM.sol\":1936:1937  0 */\n      0x00\n        /* \"contracts/stake_reward_MLM.sol\":1929:1937  uint i=0 */\n      swap1\n      pop\n        /* \"contracts/stake_reward_MLM.sol\":1925:2039  for(uint i=0;i<20;i++)... */\n    tag_219:\n        /* \"contracts/stake_reward_MLM.sol\":1940:1942  20 */\n      0x14\n        /* \"contracts/stake_reward_MLM.sol\":1938:1939  i */\n      dup2\n        /* \"contracts/stake_reward_MLM.sol\":1938:1942  i<20 */\n      lt\n        /* \"contracts/stake_reward_MLM.sol\":1925:2039  for(uint i=0;i<20;i++)... */\n      iszero\n      tag_220\n      jumpi\n        /* \"contracts/stake_reward_MLM.sol\":1978:1990  DUSDinvestor */\n      0x08\n        /* \"contracts/stake_reward_MLM.sol\":1978:2002  DUSDinvestor[msg.sender] */\n      0x00\n        /* \"contracts/stake_reward_MLM.sol\":1991:2001  msg.sender */\n      caller\n        /* \"contracts/stake_reward_MLM.sol\":1978:2002  DUSDinvestor[msg.sender] */\n      0xffffffffffffffffffffffffffffffffffffffff\n      and\n      0xffffffffffffffffffffffffffffffffffffffff\n      and\n      dup2\n      mstore\n      0x20\n      add\n      swap1\n      dup2\n      mstore\n      0x20\n      add\n      0x00\n      keccak256\n        /* \"contracts/stake_reward_MLM.sol\":1978:2016  DUSDinvestor[msg.sender].referralLevel */\n      0x03\n      add\n        /* \"contracts/stake_reward_MLM.sol\":2022:2023  0 */\n      0x00\n        /* \"contracts/stake_reward_MLM.sol\":1978:2024  DUSDinvestor[msg.sender].referralLevel.push(0) */\n      swap1\n      dup1\n      0x01\n      dup2\n      sload\n      add\n      dup1\n      dup3\n      sstore\n      dup1\n      swap2\n      pop\n      pop\n      0x01\n      swap1\n      sub\n      swap1\n      0x00\n      mstore\n      keccak256(0x00, 0x20)\n      add\n      0x00\n      swap1\n      swap2\n      swap1\n      swap2\n      swap1\n      swap2\n      pop\n      sstore\n        /* \"contracts/stake_reward_MLM.sol\":1943:1946  i++ */\n      dup1\n      dup1\n      tag_223\n      swap1\n      tag_103\n      jump\t// in\n    tag_223:\n      swap2\n      pop\n      pop\n        /* \"contracts/stake_reward_MLM.sol\":1925:2039  for(uint i=0;i<20;i++)... */\n      jump(tag_219)\n    tag_220:\n      pop\n        /* \"contracts/stake_reward_MLM.sol\":2059:2065  uint i */\n      0x00\n        /* \"contracts/stake_reward_MLM.sol\":2055:2997  for(uint i=0;i<10;i++)... */\n    tag_224:\n        /* \"contracts/stake_reward_MLM.sol\":2070:2072  10 */\n      0x0a\n        /* \"contracts/stake_reward_MLM.sol\":2068:2069  i */\n      dup2\n        /* \"contracts/stake_reward_MLM.sol\":2068:2072  i<10 */\n      lt\n        /* \"contracts/stake_reward_MLM.sol\":2055:2997  for(uint i=0;i<10;i++)... */\n      iszero\n      tag_225\n      jumpi\n        /* \"contracts/stake_reward_MLM.sol\":2115:2116  0 */\n      0x00\n        /* \"contracts/stake_reward_MLM.sol\":2112:2113  i */\n      dup2\n        /* \"contracts/stake_reward_MLM.sol\":2112:2116  i==0 */\n      eq\n        /* \"contracts/stake_reward_MLM.sol\":2109:2541  if(i==0)... */\n      iszero\n      tag_227\n      jumpi\n        /* \"contracts/stake_reward_MLM.sol\":2158:2159  0 */\n      0x00\n        /* \"contracts/stake_reward_MLM.sol\":2156:2159  j=0 */\n      swap2\n      pop\n        /* \"contracts/stake_reward_MLM.sol\":2109:2541  if(i==0)... */\n      jump(tag_228)\n    tag_227:\n        /* \"contracts/stake_reward_MLM.sol\":2206:2207  1 */\n      0x01\n        /* \"contracts/stake_reward_MLM.sol\":2203:2204  i */\n      dup2\n        /* \"contracts/stake_reward_MLM.sol\":2203:2207  i==1 */\n      eq\n        /* \"contracts/stake_reward_MLM.sol\":2200:2541  if(i==1)... */\n      iszero\n      tag_229\n      jumpi\n        /* \"contracts/stake_reward_MLM.sol\":2249:2250  1 */\n      0x01\n        /* \"contracts/stake_reward_MLM.sol\":2247:2250  j=1 */\n      swap2\n      pop\n        /* \"contracts/stake_reward_MLM.sol\":2200:2541  if(i==1)... */\n      jump(tag_230)\n    tag_229:\n        /* \"contracts/stake_reward_MLM.sol\":2297:2298  2 */\n      0x02\n        /* \"contracts/stake_reward_MLM.sol\":2294:2295  i */\n      dup2\n        /* \"contracts/stake_reward_MLM.sol\":2294:2298  i==2 */\n      eq\n        /* \"contracts/stake_reward_MLM.sol\":2291:2541  if(i==2)... */\n      iszero\n      tag_231\n      jumpi\n        /* \"contracts/stake_reward_MLM.sol\":2340:2341  2 */\n      0x02\n        /* \"contracts/stake_reward_MLM.sol\":2338:2341  j=2 */\n      swap2\n      pop\n        /* \"contracts/stake_reward_MLM.sol\":2291:2541  if(i==2)... */\n      jump(tag_232)\n    tag_231:\n        /* \"contracts/stake_reward_MLM.sol\":2388:2389  2 */\n      0x02\n        /* \"contracts/stake_reward_MLM.sol\":2386:2387  i */\n      dup2\n        /* \"contracts/stake_reward_MLM.sol\":2386:2389  i>2 */\n      gt\n        /* \"contracts/stake_reward_MLM.sol\":2383:2541  if(i>2)... */\n      iszero\n      tag_233\n      jumpi\n        /* \"contracts/stake_reward_MLM.sol\":2431:2432  3 */\n      0x03\n        /* \"contracts/stake_reward_MLM.sol\":2429:2432  j=3 */\n      swap2\n      pop\n        /* \"contracts/stake_reward_MLM.sol\":2383:2541  if(i>2)... */\n      jump(tag_234)\n    tag_233:\n        /* \"contracts/stake_reward_MLM.sol\":2478:2479  7 */\n      0x07\n        /* \"contracts/stake_reward_MLM.sol\":2476:2477  i */\n      dup2\n        /* \"contracts/stake_reward_MLM.sol\":2476:2479  i>7 */\n      gt\n        /* \"contracts/stake_reward_MLM.sol\":2473:2541  if(i>7)... */\n      iszero\n      tag_235\n      jumpi\n        /* \"contracts/stake_reward_MLM.sol\":2521:2522  4 */\n      0x04\n        /* \"contracts/stake_reward_MLM.sol\":2519:2522  j=4 */\n      swap2\n      pop\n        /* \"contracts/stake_reward_MLM.sol\":2473:2541  if(i>7)... */\n    tag_235:\n        /* \"contracts/stake_reward_MLM.sol\":2383:2541  if(i>2)... */\n    tag_234:\n        /* \"contracts/stake_reward_MLM.sol\":2291:2541  if(i==2)... */\n    tag_232:\n        /* \"contracts/stake_reward_MLM.sol\":2200:2541  if(i==1)... */\n    tag_230:\n        /* \"contracts/stake_reward_MLM.sol\":2109:2541  if(i==0)... */\n    tag_228:\n        /* \"contracts/stake_reward_MLM.sol\":2619:2620  0 */\n      0x00\n        /* \"contracts/stake_reward_MLM.sol\":2578:2621  DUSDinvestor[temp].referralFrom!=address(0) */\n      0xffffffffffffffffffffffffffffffffffffffff\n      and\n        /* \"contracts/stake_reward_MLM.sol\":2578:2590  DUSDinvestor */\n      0x08\n        /* \"contracts/stake_reward_MLM.sol\":2578:2596  DUSDinvestor[temp] */\n      0x00\n        /* \"contracts/stake_reward_MLM.sol\":2591:2595  temp */\n      dup7\n        /* \"contracts/stake_reward_MLM.sol\":2578:2596  DUSDinvestor[temp] */\n      0xffffffffffffffffffffffffffffffffffffffff\n      and\n      0xffffffffffffffffffffffffffffffffffffffff\n      and\n      dup2\n      mstore\n      0x20\n      add\n      swap1\n      dup2\n      mstore\n      0x20\n      add\n      0x00\n      keccak256\n        /* \"contracts/stake_reward_MLM.sol\":2578:2609  DUSDinvestor[temp].referralFrom */\n      0x02\n      add\n      0x00\n      swap1\n      sload\n      swap1\n      0x0100\n      exp\n      swap1\n      div\n      0xffffffffffffffffffffffffffffffffffffffff\n      and\n        /* \"contracts/stake_reward_MLM.sol\":2578:2621  DUSDinvestor[temp].referralFrom!=address(0) */\n      0xffffffffffffffffffffffffffffffffffffffff\n      and\n      eq\n        /* \"contracts/stake_reward_MLM.sol\":2575:2983  if(DUSDinvestor[temp].referralFrom!=address(0))... */\n      tag_236\n      jumpi\n        /* \"contracts/stake_reward_MLM.sol\":2667:2679  DUSDinvestor */\n      0x08\n        /* \"contracts/stake_reward_MLM.sol\":2667:2685  DUSDinvestor[temp] */\n      0x00\n        /* \"contracts/stake_reward_MLM.sol\":2680:2684  temp */\n      dup6\n        /* \"contracts/stake_reward_MLM.sol\":2667:2685  DUSDinvestor[temp] */\n      0xffffffffffffffffffffffffffffffffffffffff\n      and\n      0xffffffffffffffffffffffffffffffffffffffff\n      and\n      dup2\n      mstore\n      0x20\n      add\n      swap1\n      dup2\n      mstore\n      0x20\n      add\n      0x00\n      keccak256\n        /* \"contracts/stake_reward_MLM.sol\":2667:2698  DUSDinvestor[temp].referralFrom */\n      0x02\n      add\n      0x00\n      swap1\n      sload\n      swap1\n      0x0100\n      exp\n      swap1\n      div\n      0xffffffffffffffffffffffffffffffffffffffff\n      and\n        /* \"contracts/stake_reward_MLM.sol\":2662:2698  temp=DUSDinvestor[temp].referralFrom */\n      swap4\n      pop\n        /* \"contracts/stake_reward_MLM.sol\":2720:2731  uint reward */\n      0x00\n        /* \"contracts/stake_reward_MLM.sol\":2769:2772  100 */\n      0x64\n        /* \"contracts/stake_reward_MLM.sol\":2752:2767  _investedAmount */\n      dup7\n        /* \"contracts/stake_reward_MLM.sol\":2736:2746  percentage */\n      dup6\n        /* \"contracts/stake_reward_MLM.sol\":2747:2748  j */\n      dup6\n        /* \"contracts/stake_reward_MLM.sol\":2736:2749  percentage[j] */\n      dup2\n      mload\n      dup2\n      lt\n      tag_237\n      jumpi\n      tag_238\n      tag_134\n      jump\t// in\n    tag_238:\n    tag_237:\n      0x20\n      mul\n      0x20\n      add\n      add\n      mload\n        /* \"contracts/stake_reward_MLM.sol\":2736:2767  percentage[j] * _investedAmount */\n      tag_239\n      swap2\n      swap1\n      tag_147\n      jump\t// in\n    tag_239:\n        /* \"contracts/stake_reward_MLM.sol\":2735:2772  (percentage[j] * _investedAmount)/100 */\n      tag_240\n      swap2\n      swap1\n      tag_144\n      jump\t// in\n    tag_240:\n        /* \"contracts/stake_reward_MLM.sol\":2720:2773  uint reward = ((percentage[j] * _investedAmount)/100) */\n      swap1\n      pop\n        /* \"contracts/stake_reward_MLM.sol\":2832:2838  reward */\n      dup1\n        /* \"contracts/stake_reward_MLM.sol\":2795:2807  DUSDinvestor */\n      0x08\n        /* \"contracts/stake_reward_MLM.sol\":2795:2813  DUSDinvestor[temp] */\n      0x00\n        /* \"contracts/stake_reward_MLM.sol\":2808:2812  temp */\n      dup8\n        /* \"contracts/stake_reward_MLM.sol\":2795:2813  DUSDinvestor[temp] */\n      0xffffffffffffffffffffffffffffffffffffffff\n      and\n      0xffffffffffffffffffffffffffffffffffffffff\n      and\n      dup2\n      mstore\n      0x20\n      add\n      swap1\n      dup2\n      mstore\n      0x20\n      add\n      0x00\n      keccak256\n        /* \"contracts/stake_reward_MLM.sol\":2795:2827  DUSDinvestor[temp].referralLevel */\n      0x03\n      add\n        /* \"contracts/stake_reward_MLM.sol\":2828:2829  i */\n      dup4\n        /* \"contracts/stake_reward_MLM.sol\":2795:2830  DUSDinvestor[temp].referralLevel[i] */\n      dup2\n      sload\n      dup2\n      lt\n      tag_241\n      jumpi\n      tag_242\n      tag_134\n      jump\t// in\n    tag_242:\n    tag_241:\n      swap1\n      0x00\n      mstore\n      keccak256(0x00, 0x20)\n      add\n      0x00\n        /* \"contracts/stake_reward_MLM.sol\":2795:2838  DUSDinvestor[temp].referralLevel[i]+=reward */\n      dup3\n      dup3\n      sload\n      tag_244\n      swap2\n      swap1\n      tag_105\n      jump\t// in\n    tag_244:\n      swap3\n      pop\n      pop\n      dup2\n      swap1\n      sstore\n      pop\n        /* \"contracts/stake_reward_MLM.sol\":2872:2878  900000 */\n      0x0dbba0\n        /* \"contracts/stake_reward_MLM.sol\":2860:2871  rewardToken */\n      0x04\n        /* \"contracts/stake_reward_MLM.sol\":2860:2878  rewardToken=900000 */\n      dup2\n      swap1\n      sstore\n      pop\n        /* \"contracts/stake_reward_MLM.sol\":2639:2898  {... */\n      pop\n        /* \"contracts/stake_reward_MLM.sol\":2575:2983  if(DUSDinvestor[temp].referralFrom!=address(0))... */\n      jump(tag_245)\n    tag_236:\n        /* \"contracts/stake_reward_MLM.sol\":2959:2964  break */\n      jump(tag_225)\n        /* \"contracts/stake_reward_MLM.sol\":2575:2983  if(DUSDinvestor[temp].referralFrom!=address(0))... */\n    tag_245:\n        /* \"contracts/stake_reward_MLM.sol\":2073:2076  i++ */\n      dup1\n      dup1\n      tag_246\n      swap1\n      tag_103\n      jump\t// in\n    tag_246:\n      swap2\n      pop\n      pop\n        /* \"contracts/stake_reward_MLM.sol\":2055:2997  for(uint i=0;i<10;i++)... */\n      jump(tag_224)\n    tag_225:\n      pop\n        /* \"contracts/stake_reward_MLM.sol\":1602:3008  { ... */\n      pop\n      pop\n      pop\n        /* \"contracts/stake_reward_MLM.sol\":1438:3008  function sendRewardToDUSDReferrals(address investor,uint _investedAmount)  internal  //this is the freferral function to transfer the reawards to referrals... */\n      pop\n      pop\n      jump\t// out\n    tag_127:\n      mload(0x40)\n      dup1\n      0x80\n      add\n      0x40\n      mstore\n      dup1\n      0x00\n      dup2\n      mstore\n      0x20\n      add\n      0x00\n      dup2\n      mstore\n      0x20\n      add\n      0x00\n      dup2\n      mstore\n      0x20\n      add\n      0x00\n      dup2\n      mstore\n      pop\n      swap1\n      jump\t// out\n        /* \"#utility.yul\":7:146   */\n    tag_248:\n        /* \"#utility.yul\":53:58   */\n      0x00\n        /* \"#utility.yul\":91:97   */\n      dup2\n        /* \"#utility.yul\":78:98   */\n      calldataload\n        /* \"#utility.yul\":69:98   */\n      swap1\n      pop\n        /* \"#utility.yul\":107:140   */\n      tag_250\n        /* \"#utility.yul\":134:139   */\n      dup2\n        /* \"#utility.yul\":107:140   */\n      tag_251\n      jump\t// in\n    tag_250:\n        /* \"#utility.yul\":7:146   */\n      swap3\n      swap2\n      pop\n      pop\n      jump\t// out\n        /* \"#utility.yul\":152:289   */\n    tag_252:\n        /* \"#utility.yul\":206:211   */\n      0x00\n        /* \"#utility.yul\":237:243   */\n      dup2\n        /* \"#utility.yul\":231:244   */\n      mload\n        /* \"#utility.yul\":222:244   */\n      swap1\n      pop\n        /* \"#utility.yul\":253:283   */\n      tag_254\n        /* \"#utility.yul\":277:282   */\n      dup2\n        /* \"#utility.yul\":253:283   */\n      tag_255\n      jump\t// in\n    tag_254:\n        /* \"#utility.yul\":152:289   */\n      swap3\n      swap2\n      pop\n      pop\n      jump\t// out\n        /* \"#utility.yul\":295:434   */\n    tag_256:\n        /* \"#utility.yul\":341:346   */\n      0x00\n        /* \"#utility.yul\":379:385   */\n      dup2\n        /* \"#utility.yul\":366:386   */\n      calldataload\n        /* \"#utility.yul\":357:386   */\n      swap1\n      pop\n        /* \"#utility.yul\":395:428   */\n      tag_258\n        /* \"#utility.yul\":422:427   */\n      dup2\n        /* \"#utility.yul\":395:428   */\n      tag_259\n      jump\t// in\n    tag_258:\n        /* \"#utility.yul\":295:434   */\n      swap3\n      swap2\n      pop\n      pop\n      jump\t// out\n        /* \"#utility.yul\":440:769   */\n    tag_82:\n        /* \"#utility.yul\":499:505   */\n      0x00\n        /* \"#utility.yul\":548:550   */\n      0x20\n        /* \"#utility.yul\":536:545   */\n      dup3\n        /* \"#utility.yul\":527:534   */\n      dup5\n        /* \"#utility.yul\":523:546   */\n      sub\n        /* \"#utility.yul\":519:551   */\n      slt\n        /* \"#utility.yul\":516:635   */\n      iszero\n      tag_261\n      jumpi\n        /* \"#utility.yul\":554:633   */\n      tag_262\n      tag_263\n      jump\t// in\n    tag_262:\n        /* \"#utility.yul\":516:635   */\n    tag_261:\n        /* \"#utility.yul\":674:675   */\n      0x00\n        /* \"#utility.yul\":699:752   */\n      tag_264\n        /* \"#utility.yul\":744:751   */\n      dup5\n        /* \"#utility.yul\":735:741   */\n      dup3\n        /* \"#utility.yul\":724:733   */\n      dup6\n        /* \"#utility.yul\":720:742   */\n      add\n        /* \"#utility.yul\":699:752   */\n      tag_248\n      jump\t// in\n    tag_264:\n        /* \"#utility.yul\":689:752   */\n      swap2\n      pop\n        /* \"#utility.yul\":645:762   */\n      pop\n        /* \"#utility.yul\":440:769   */\n      swap3\n      swap2\n      pop\n      pop\n      jump\t// out\n        /* \"#utility.yul\":775:1120   */\n    tag_162:\n        /* \"#utility.yul\":842:848   */\n      0x00\n        /* \"#utility.yul\":891:893   */\n      0x20\n        /* \"#utility.yul\":879:888   */\n      dup3\n        /* \"#utility.yul\":870:877   */\n      dup5\n        /* \"#utility.yul\":866:889   */\n      sub\n        /* \"#utility.yul\":862:894   */\n      slt\n        /* \"#utility.yul\":859:978   */\n      iszero\n      tag_266\n      jumpi\n        /* \"#utility.yul\":897:976   */\n      tag_267\n      tag_263\n      jump\t// in\n    tag_267:\n        /* \"#utility.yul\":859:978   */\n    tag_266:\n        /* \"#utility.yul\":1017:1018   */\n      0x00\n        /* \"#utility.yul\":1042:1103   */\n      tag_268\n        /* \"#utility.yul\":1095:1102   */\n      dup5\n        /* \"#utility.yul\":1086:1092   */\n      dup3\n        /* \"#utility.yul\":1075:1084   */\n      dup6\n        /* \"#utility.yul\":1071:1093   */\n      add\n        /* \"#utility.yul\":1042:1103   */\n      tag_252\n      jump\t// in\n    tag_268:\n        /* \"#utility.yul\":1032:1103   */\n      swap2\n      pop\n        /* \"#utility.yul\":988:1113   */\n      pop\n        /* \"#utility.yul\":775:1120   */\n      swap3\n      swap2\n      pop\n      pop\n      jump\t// out\n        /* \"#utility.yul\":1126:1455   */\n    tag_37:\n        /* \"#utility.yul\":1185:1191   */\n      0x00\n        /* \"#utility.yul\":1234:1236   */\n      0x20\n        /* \"#utility.yul\":1222:1231   */\n      dup3\n        /* \"#utility.yul\":1213:1220   */\n      dup5\n        /* \"#utility.yul\":1209:1232   */\n      sub\n        /* \"#utility.yul\":1205:1237   */\n      slt\n        /* \"#utility.yul\":1202:1321   */\n      iszero\n      tag_270\n      jumpi\n        /* \"#utility.yul\":1240:1319   */\n      tag_271\n      tag_263\n      jump\t// in\n    tag_271:\n        /* \"#utility.yul\":1202:1321   */\n    tag_270:\n        /* \"#utility.yul\":1360:1361   */\n      0x00\n        /* \"#utility.yul\":1385:1438   */\n      tag_272\n        /* \"#utility.yul\":1430:1437   */\n      dup5\n        /* \"#utility.yul\":1421:1427   */\n      dup3\n        /* \"#utility.yul\":1410:1419   */\n      dup6\n        /* \"#utility.yul\":1406:1428   */\n      add\n        /* \"#utility.yul\":1385:1438   */\n      tag_256\n      jump\t// in\n    tag_272:\n        /* \"#utility.yul\":1375:1438   */\n      swap2\n      pop\n        /* \"#utility.yul\":1331:1448   */\n      pop\n        /* \"#utility.yul\":1126:1455   */\n      swap3\n      swap2\n      pop\n      pop\n      jump\t// out\n        /* \"#utility.yul\":1461:1935   */\n    tag_41:\n        /* \"#utility.yul\":1529:1535   */\n      0x00\n        /* \"#utility.yul\":1537:1543   */\n      dup1\n        /* \"#utility.yul\":1586:1588   */\n      0x40\n        /* \"#utility.yul\":1574:1583   */\n      dup4\n        /* \"#utility.yul\":1565:1572   */\n      dup6\n        /* \"#utility.yul\":1561:1584   */\n      sub\n        /* \"#utility.yul\":1557:1589   */\n      slt\n        /* \"#utility.yul\":1554:1673   */\n      iszero\n      tag_274\n      jumpi\n        /* \"#utility.yul\":1592:1671   */\n      tag_275\n      tag_263\n      jump\t// in\n    tag_275:\n        /* \"#utility.yul\":1554:1673   */\n    tag_274:\n        /* \"#utility.yul\":1712:1713   */\n      0x00\n        /* \"#utility.yul\":1737:1790   */\n      tag_276\n        /* \"#utility.yul\":1782:1789   */\n      dup6\n        /* \"#utility.yul\":1773:1779   */\n      dup3\n        /* \"#utility.yul\":1762:1771   */\n      dup7\n        /* \"#utility.yul\":1758:1780   */\n      add\n        /* \"#utility.yul\":1737:1790   */\n      tag_256\n      jump\t// in\n    tag_276:\n        /* \"#utility.yul\":1727:1790   */\n      swap3\n      pop\n        /* \"#utility.yul\":1683:1800   */\n      pop\n        /* \"#utility.yul\":1839:1841   */\n      0x20\n        /* \"#utility.yul\":1865:1918   */\n      tag_277\n        /* \"#utility.yul\":1910:1917   */\n      dup6\n        /* \"#utility.yul\":1901:1907   */\n      dup3\n        /* \"#utility.yul\":1890:1899   */\n      dup7\n        /* \"#utility.yul\":1886:1908   */\n      add\n        /* \"#utility.yul\":1865:1918   */\n      tag_248\n      jump\t// in\n    tag_277:\n        /* \"#utility.yul\":1855:1918   */\n      swap2\n      pop\n        /* \"#utility.yul\":1810:1928   */\n      pop\n        /* \"#utility.yul\":1461:1935   */\n      swap3\n      pop\n      swap3\n      swap1\n      pop\n      jump\t// out\n        /* \"#utility.yul\":1941:2560   */\n    tag_78:\n        /* \"#utility.yul\":2018:2024   */\n      0x00\n        /* \"#utility.yul\":2026:2032   */\n      dup1\n        /* \"#utility.yul\":2034:2040   */\n      0x00\n        /* \"#utility.yul\":2083:2085   */\n      0x60\n        /* \"#utility.yul\":2071:2080   */\n      dup5\n        /* \"#utility.yul\":2062:2069   */\n      dup7\n        /* \"#utility.yul\":2058:2081   */\n      sub\n        /* \"#utility.yul\":2054:2086   */\n      slt\n        /* \"#utility.yul\":2051:2170   */\n      iszero\n      tag_279\n      jumpi\n        /* \"#utility.yul\":2089:2168   */\n      tag_280\n      tag_263\n      jump\t// in\n    tag_280:\n        /* \"#utility.yul\":2051:2170   */\n    tag_279:\n        /* \"#utility.yul\":2209:2210   */\n      0x00\n        /* \"#utility.yul\":2234:2287   */\n      tag_281\n        /* \"#utility.yul\":2279:2286   */\n      dup7\n        /* \"#utility.yul\":2270:2276   */\n      dup3\n        /* \"#utility.yul\":2259:2268   */\n      dup8\n        /* \"#utility.yul\":2255:2277   */\n      add\n        /* \"#utility.yul\":2234:2287   */\n      tag_256\n      jump\t// in\n    tag_281:\n        /* \"#utility.yul\":2224:2287   */\n      swap4\n      pop\n        /* \"#utility.yul\":2180:2297   */\n      pop\n        /* \"#utility.yul\":2336:2338   */\n      0x20\n        /* \"#utility.yul\":2362:2415   */\n      tag_282\n        /* \"#utility.yul\":2407:2414   */\n      dup7\n        /* \"#utility.yul\":2398:2404   */\n      dup3\n        /* \"#utility.yul\":2387:2396   */\n      dup8\n        /* \"#utility.yul\":2383:2405   */\n      add\n        /* \"#utility.yul\":2362:2415   */\n      tag_256\n      jump\t// in\n    tag_282:\n        /* \"#utility.yul\":2352:2415   */\n      swap3\n      pop\n        /* \"#utility.yul\":2307:2425   */\n      pop\n        /* \"#utility.yul\":2464:2466   */\n      0x40\n        /* \"#utility.yul\":2490:2543   */\n      tag_283\n        /* \"#utility.yul\":2535:2542   */\n      dup7\n        /* \"#utility.yul\":2526:2532   */\n      dup3\n        /* \"#utility.yul\":2515:2524   */\n      dup8\n        /* \"#utility.yul\":2511:2533   */\n      add\n        /* \"#utility.yul\":2490:2543   */\n      tag_256\n      jump\t// in\n    tag_283:\n        /* \"#utility.yul\":2480:2543   */\n      swap2\n      pop\n        /* \"#utility.yul\":2435:2553   */\n      pop\n        /* \"#utility.yul\":1941:2560   */\n      swap3\n      pop\n      swap3\n      pop\n      swap3\n      jump\t// out\n        /* \"#utility.yul\":2566:2745   */\n    tag_284:\n        /* \"#utility.yul\":2635:2645   */\n      0x00\n        /* \"#utility.yul\":2656:2702   */\n      tag_286\n        /* \"#utility.yul\":2698:2701   */\n      dup4\n        /* \"#utility.yul\":2690:2696   */\n      dup4\n        /* \"#utility.yul\":2656:2702   */\n      tag_287\n      jump\t// in\n    tag_286:\n        /* \"#utility.yul\":2734:2738   */\n      0x20\n        /* \"#utility.yul\":2729:2732   */\n      dup4\n        /* \"#utility.yul\":2725:2739   */\n      add\n        /* \"#utility.yul\":2711:2739   */\n      swap1\n      pop\n        /* \"#utility.yul\":2566:2745   */\n      swap3\n      swap2\n      pop\n      pop\n      jump\t// out\n        /* \"#utility.yul\":2751:3050   */\n    tag_288:\n        /* \"#utility.yul\":2880:2890   */\n      0x00\n        /* \"#utility.yul\":2901:3007   */\n      tag_290\n        /* \"#utility.yul\":3003:3006   */\n      dup4\n        /* \"#utility.yul\":2995:3001   */\n      dup4\n        /* \"#utility.yul\":2901:3007   */\n      tag_291\n      jump\t// in\n    tag_290:\n        /* \"#utility.yul\":3039:3043   */\n      0x80\n        /* \"#utility.yul\":3034:3037   */\n      dup4\n        /* \"#utility.yul\":3030:3044   */\n      add\n        /* \"#utility.yul\":3016:3044   */\n      swap1\n      pop\n        /* \"#utility.yul\":2751:3050   */\n      swap3\n      swap2\n      pop\n      pop\n      jump\t// out\n        /* \"#utility.yul\":3056:3235   */\n    tag_292:\n        /* \"#utility.yul\":3125:3135   */\n      0x00\n        /* \"#utility.yul\":3146:3192   */\n      tag_294\n        /* \"#utility.yul\":3188:3191   */\n      dup4\n        /* \"#utility.yul\":3180:3186   */\n      dup4\n        /* \"#utility.yul\":3146:3192   */\n      tag_295\n      jump\t// in\n    tag_294:\n        /* \"#utility.yul\":3224:3228   */\n      0x20\n        /* \"#utility.yul\":3219:3222   */\n      dup4\n        /* \"#utility.yul\":3215:3229   */\n      add\n        /* \"#utility.yul\":3201:3229   */\n      swap1\n      pop\n        /* \"#utility.yul\":3056:3235   */\n      swap3\n      swap2\n      pop\n      pop\n      jump\t// out\n        /* \"#utility.yul\":3241:3349   */\n    tag_287:\n        /* \"#utility.yul\":3318:3342   */\n      tag_297\n        /* \"#utility.yul\":3336:3341   */\n      dup2\n        /* \"#utility.yul\":3318:3342   */\n      tag_298\n      jump\t// in\n    tag_297:\n        /* \"#utility.yul\":3313:3316   */\n      dup3\n        /* \"#utility.yul\":3306:3343   */\n      mstore\n        /* \"#utility.yul\":3241:3349   */\n      pop\n      pop\n      jump\t// out\n        /* \"#utility.yul\":3355:3473   */\n    tag_299:\n        /* \"#utility.yul\":3442:3466   */\n      tag_301\n        /* \"#utility.yul\":3460:3465   */\n      dup2\n        /* \"#utility.yul\":3442:3466   */\n      tag_298\n      jump\t// in\n    tag_301:\n        /* \"#utility.yul\":3437:3440   */\n      dup3\n        /* \"#utility.yul\":3430:3467   */\n      mstore\n        /* \"#utility.yul\":3355:3473   */\n      pop\n      pop\n      jump\t// out\n        /* \"#utility.yul\":3509:4241   */\n    tag_302:\n        /* \"#utility.yul\":3628:3631   */\n      0x00\n        /* \"#utility.yul\":3657:3711   */\n      tag_304\n        /* \"#utility.yul\":3705:3710   */\n      dup3\n        /* \"#utility.yul\":3657:3711   */\n      tag_305\n      jump\t// in\n    tag_304:\n        /* \"#utility.yul\":3727:3813   */\n      tag_306\n        /* \"#utility.yul\":3806:3812   */\n      dup2\n        /* \"#utility.yul\":3801:3804   */\n      dup6\n        /* \"#utility.yul\":3727:3813   */\n      tag_307\n      jump\t// in\n    tag_306:\n        /* \"#utility.yul\":3720:3813   */\n      swap4\n      pop\n        /* \"#utility.yul\":3837:3893   */\n      tag_308\n        /* \"#utility.yul\":3887:3892   */\n      dup4\n        /* \"#utility.yul\":3837:3893   */\n      tag_309\n      jump\t// in\n    tag_308:\n        /* \"#utility.yul\":3916:3923   */\n      dup1\n        /* \"#utility.yul\":3947:3948   */\n      0x00\n        /* \"#utility.yul\":3932:4216   */\n    tag_310:\n        /* \"#utility.yul\":3957:3963   */\n      dup4\n        /* \"#utility.yul\":3954:3955   */\n      dup2\n        /* \"#utility.yul\":3951:3964   */\n      lt\n        /* \"#utility.yul\":3932:4216   */\n      iszero\n      tag_312\n      jumpi\n        /* \"#utility.yul\":4033:4039   */\n      dup2\n        /* \"#utility.yul\":4027:4040   */\n      mload\n        /* \"#utility.yul\":4060:4123   */\n      tag_313\n        /* \"#utility.yul\":4119:4122   */\n      dup9\n        /* \"#utility.yul\":4104:4117   */\n      dup3\n        /* \"#utility.yul\":4060:4123   */\n      tag_284\n      jump\t// in\n    tag_313:\n        /* \"#utility.yul\":4053:4123   */\n      swap8\n      pop\n        /* \"#utility.yul\":4146:4206   */\n      tag_314\n        /* \"#utility.yul\":4199:4205   */\n      dup4\n        /* \"#utility.yul\":4146:4206   */\n      tag_315\n      jump\t// in\n    tag_314:\n        /* \"#utility.yul\":4136:4206   */\n      swap3\n      pop\n        /* \"#utility.yul\":3992:4216   */\n      pop\n        /* \"#utility.yul\":3979:3980   */\n      0x01\n        /* \"#utility.yul\":3976:3977   */\n      dup2\n        /* \"#utility.yul\":3972:3981   */\n      add\n        /* \"#utility.yul\":3967:3981   */\n      swap1\n      pop\n        /* \"#utility.yul\":3932:4216   */\n      jump(tag_310)\n    tag_312:\n        /* \"#utility.yul\":3936:3950   */\n      pop\n        /* \"#utility.yul\":4232:4235   */\n      dup6\n        /* \"#utility.yul\":4225:4235   */\n      swap4\n      pop\n        /* \"#utility.yul\":3633:4241   */\n      pop\n      pop\n      pop\n        /* \"#utility.yul\":3509:4241   */\n      swap3\n      swap2\n      pop\n      pop\n      jump\t// out\n        /* \"#utility.yul\":4319:5291   */\n    tag_316:\n        /* \"#utility.yul\":4498:4501   */\n      0x00\n        /* \"#utility.yul\":4527:4611   */\n      tag_318\n        /* \"#utility.yul\":4605:4610   */\n      dup3\n        /* \"#utility.yul\":4527:4611   */\n      tag_319\n      jump\t// in\n    tag_318:\n        /* \"#utility.yul\":4627:4743   */\n      tag_320\n        /* \"#utility.yul\":4736:4742   */\n      dup2\n        /* \"#utility.yul\":4731:4734   */\n      dup6\n        /* \"#utility.yul\":4627:4743   */\n      tag_321\n      jump\t// in\n    tag_320:\n        /* \"#utility.yul\":4620:4743   */\n      swap4\n      pop\n        /* \"#utility.yul\":4767:4853   */\n      tag_322\n        /* \"#utility.yul\":4847:4852   */\n      dup4\n        /* \"#utility.yul\":4767:4853   */\n      tag_323\n      jump\t// in\n    tag_322:\n        /* \"#utility.yul\":4876:4883   */\n      dup1\n        /* \"#utility.yul\":4907:4908   */\n      0x00\n        /* \"#utility.yul\":4892:5266   */\n    tag_324:\n        /* \"#utility.yul\":4917:4923   */\n      dup4\n        /* \"#utility.yul\":4914:4915   */\n      dup2\n        /* \"#utility.yul\":4911:4924   */\n      lt\n        /* \"#utility.yul\":4892:5266   */\n      iszero\n      tag_326\n      jumpi\n        /* \"#utility.yul\":4993:4999   */\n      dup2\n        /* \"#utility.yul\":4987:5000   */\n      mload\n        /* \"#utility.yul\":5020:5143   */\n      tag_327\n        /* \"#utility.yul\":5139:5142   */\n      dup9\n        /* \"#utility.yul\":5124:5137   */\n      dup3\n        /* \"#utility.yul\":5020:5143   */\n      tag_288\n      jump\t// in\n    tag_327:\n        /* \"#utility.yul\":5013:5143   */\n      swap8\n      pop\n        /* \"#utility.yul\":5166:5256   */\n      tag_328\n        /* \"#utility.yul\":5249:5255   */\n      dup4\n        /* \"#utility.yul\":5166:5256   */\n      tag_329\n      jump\t// in\n    tag_328:\n        /* \"#utility.yul\":5156:5256   */\n      swap3\n      pop\n        /* \"#utility.yul\":4952:5266   */\n      pop\n        /* \"#utility.yul\":4939:4940   */\n      0x01\n        /* \"#utility.yul\":4936:4937   */\n      dup2\n        /* \"#utility.yul\":4932:4941   */\n      add\n        /* \"#utility.yul\":4927:4941   */\n      swap1\n      pop\n        /* \"#utility.yul\":4892:5266   */\n      jump(tag_324)\n    tag_326:\n        /* \"#utility.yul\":4896:4910   */\n      pop\n        /* \"#utility.yul\":5282:5285   */\n      dup6\n        /* \"#utility.yul\":5275:5285   */\n      swap4\n      pop\n        /* \"#utility.yul\":4503:5291   */\n      pop\n      pop\n      pop\n        /* \"#utility.yul\":4319:5291   */\n      swap3\n      swap2\n      pop\n      pop\n      jump\t// out\n        /* \"#utility.yul\":5327:6059   */\n    tag_330:\n        /* \"#utility.yul\":5446:5449   */\n      0x00\n        /* \"#utility.yul\":5475:5529   */\n      tag_332\n        /* \"#utility.yul\":5523:5528   */\n      dup3\n        /* \"#utility.yul\":5475:5529   */\n      tag_333\n      jump\t// in\n    tag_332:\n        /* \"#utility.yul\":5545:5631   */\n      tag_334\n        /* \"#utility.yul\":5624:5630   */\n      dup2\n        /* \"#utility.yul\":5619:5622   */\n      dup6\n        /* \"#utility.yul\":5545:5631   */\n      tag_335\n      jump\t// in\n    tag_334:\n        /* \"#utility.yul\":5538:5631   */\n      swap4\n      pop\n        /* \"#utility.yul\":5655:5711   */\n      tag_336\n        /* \"#utility.yul\":5705:5710   */\n      dup4\n        /* \"#utility.yul\":5655:5711   */\n      tag_337\n      jump\t// in\n    tag_336:\n        /* \"#utility.yul\":5734:5741   */\n      dup1\n        /* \"#utility.yul\":5765:5766   */\n      0x00\n        /* \"#utility.yul\":5750:6034   */\n    tag_338:\n        /* \"#utility.yul\":5775:5781   */\n      dup4\n        /* \"#utility.yul\":5772:5773   */\n      dup2\n        /* \"#utility.yul\":5769:5782   */\n      lt\n        /* \"#utility.yul\":5750:6034   */\n      iszero\n      tag_340\n      jumpi\n        /* \"#utility.yul\":5851:5857   */\n      dup2\n        /* \"#utility.yul\":5845:5858   */\n      mload\n        /* \"#utility.yul\":5878:5941   */\n      tag_341\n        /* \"#utility.yul\":5937:5940   */\n      dup9\n        /* \"#utility.yul\":5922:5935   */\n      dup3\n        /* \"#utility.yul\":5878:5941   */\n      tag_292\n      jump\t// in\n    tag_341:\n        /* \"#utility.yul\":5871:5941   */\n      swap8\n      pop\n        /* \"#utility.yul\":5964:6024   */\n      tag_342\n        /* \"#utility.yul\":6017:6023   */\n      dup4\n        /* \"#utility.yul\":5964:6024   */\n      tag_343\n      jump\t// in\n    tag_342:\n        /* \"#utility.yul\":5954:6024   */\n      swap3\n      pop\n        /* \"#utility.yul\":5810:6034   */\n      pop\n        /* \"#utility.yul\":5797:5798   */\n      0x01\n        /* \"#utility.yul\":5794:5795   */\n      dup2\n        /* \"#utility.yul\":5790:5799   */\n      add\n        /* \"#utility.yul\":5785:5799   */\n      swap1\n      pop\n        /* \"#utility.yul\":5750:6034   */\n      jump(tag_338)\n    tag_340:\n        /* \"#utility.yul\":5754:5768   */\n      pop\n        /* \"#utility.yul\":6050:6053   */\n      dup6\n        /* \"#utility.yul\":6043:6053   */\n      swap4\n      pop\n        /* \"#utility.yul\":5451:6059   */\n      pop\n      pop\n      pop\n        /* \"#utility.yul\":5327:6059   */\n      swap3\n      swap2\n      pop\n      pop\n      jump\t// out\n        /* \"#utility.yul\":6065:6174   */\n    tag_344:\n        /* \"#utility.yul\":6146:6167   */\n      tag_346\n        /* \"#utility.yul\":6161:6166   */\n      dup2\n        /* \"#utility.yul\":6146:6167   */\n      tag_347\n      jump\t// in\n    tag_346:\n        /* \"#utility.yul\":6141:6144   */\n      dup3\n        /* \"#utility.yul\":6134:6168   */\n      mstore\n        /* \"#utility.yul\":6065:6174   */\n      pop\n      pop\n      jump\t// out\n        /* \"#utility.yul\":6180:6546   */\n    tag_348:\n        /* \"#utility.yul\":6322:6325   */\n      0x00\n        /* \"#utility.yul\":6343:6410   */\n      tag_350\n        /* \"#utility.yul\":6407:6409   */\n      0x25\n        /* \"#utility.yul\":6402:6405   */\n      dup4\n        /* \"#utility.yul\":6343:6410   */\n      tag_351\n      jump\t// in\n    tag_350:\n        /* \"#utility.yul\":6336:6410   */\n      swap2\n      pop\n        /* \"#utility.yul\":6419:6512   */\n      tag_352\n        /* \"#utility.yul\":6508:6511   */\n      dup3\n        /* \"#utility.yul\":6419:6512   */\n      tag_353\n      jump\t// in\n    tag_352:\n        /* \"#utility.yul\":6537:6539   */\n      0x40\n        /* \"#utility.yul\":6532:6535   */\n      dup3\n        /* \"#utility.yul\":6528:6540   */\n      add\n        /* \"#utility.yul\":6521:6540   */\n      swap1\n      pop\n        /* \"#utility.yul\":6180:6546   */\n      swap2\n      swap1\n      pop\n      jump\t// out\n        /* \"#utility.yul\":6552:6918   */\n    tag_354:\n        /* \"#utility.yul\":6694:6697   */\n      0x00\n        /* \"#utility.yul\":6715:6782   */\n      tag_356\n        /* \"#utility.yul\":6779:6781   */\n      0x22\n        /* \"#utility.yul\":6774:6777   */\n      dup4\n        /* \"#utility.yul\":6715:6782   */\n      tag_351\n      jump\t// in\n    tag_356:\n        /* \"#utility.yul\":6708:6782   */\n      swap2\n      pop\n        /* \"#utility.yul\":6791:6884   */\n      tag_357\n        /* \"#utility.yul\":6880:6883   */\n      dup3\n        /* \"#utility.yul\":6791:6884   */\n      tag_358\n      jump\t// in\n    tag_357:\n        /* \"#utility.yul\":6909:6911   */\n      0x40\n        /* \"#utility.yul\":6904:6907   */\n      dup3\n        /* \"#utility.yul\":6900:6912   */\n      add\n        /* \"#utility.yul\":6893:6912   */\n      swap1\n      pop\n        /* \"#utility.yul\":6552:6918   */\n      swap2\n      swap1\n      pop\n      jump\t// out\n        /* \"#utility.yul\":6924:7290   */\n    tag_359:\n        /* \"#utility.yul\":7066:7069   */\n      0x00\n        /* \"#utility.yul\":7087:7154   */\n      tag_361\n        /* \"#utility.yul\":7151:7153   */\n      0x21\n        /* \"#utility.yul\":7146:7149   */\n      dup4\n        /* \"#utility.yul\":7087:7154   */\n      tag_351\n      jump\t// in\n    tag_361:\n        /* \"#utility.yul\":7080:7154   */\n      swap2\n      pop\n        /* \"#utility.yul\":7163:7256   */\n      tag_362\n        /* \"#utility.yul\":7252:7255   */\n      dup3\n        /* \"#utility.yul\":7163:7256   */\n      tag_363\n      jump\t// in\n    tag_362:\n        /* \"#utility.yul\":7281:7283   */\n      0x40\n        /* \"#utility.yul\":7276:7279   */\n      dup3\n        /* \"#utility.yul\":7272:7284   */\n      add\n        /* \"#utility.yul\":7265:7284   */\n      swap1\n      pop\n        /* \"#utility.yul\":6924:7290   */\n      swap2\n      swap1\n      pop\n      jump\t// out\n        /* \"#utility.yul\":7296:7662   */\n    tag_364:\n        /* \"#utility.yul\":7438:7441   */\n      0x00\n        /* \"#utility.yul\":7459:7526   */\n      tag_366\n        /* \"#utility.yul\":7523:7525   */\n      0x1f\n        /* \"#utility.yul\":7518:7521   */\n      dup4\n        /* \"#utility.yul\":7459:7526   */\n      tag_351\n      jump\t// in\n    tag_366:\n        /* \"#utility.yul\":7452:7526   */\n      swap2\n      pop\n        /* \"#utility.yul\":7535:7628   */\n      tag_367\n        /* \"#utility.yul\":7624:7627   */\n      dup3\n        /* \"#utility.yul\":7535:7628   */\n      tag_368\n      jump\t// in\n    tag_367:\n        /* \"#utility.yul\":7653:7655   */\n      0x20\n        /* \"#utility.yul\":7648:7651   */\n      dup3\n        /* \"#utility.yul\":7644:7656   */\n      add\n        /* \"#utility.yul\":7637:7656   */\n      swap1\n      pop\n        /* \"#utility.yul\":7296:7662   */\n      swap2\n      swap1\n      pop\n      jump\t// out\n        /* \"#utility.yul\":7736:8626   */\n    tag_291:\n        /* \"#utility.yul\":7883:7887   */\n      0x80\n        /* \"#utility.yul\":7878:7881   */\n      dup3\n        /* \"#utility.yul\":7874:7888   */\n      add\n        /* \"#utility.yul\":7980:7984   */\n      0x00\n        /* \"#utility.yul\":7973:7978   */\n      dup3\n        /* \"#utility.yul\":7969:7985   */\n      add\n        /* \"#utility.yul\":7963:7986   */\n      mload\n        /* \"#utility.yul\":7999:8062   */\n      tag_370\n        /* \"#utility.yul\":8056:8060   */\n      0x00\n        /* \"#utility.yul\":8051:8054   */\n      dup6\n        /* \"#utility.yul\":8047:8061   */\n      add\n        /* \"#utility.yul\":8033:8045   */\n      dup3\n        /* \"#utility.yul\":7999:8062   */\n      tag_295\n      jump\t// in\n    tag_370:\n        /* \"#utility.yul\":7898:8072   */\n      pop\n        /* \"#utility.yul\":8163:8167   */\n      0x20\n        /* \"#utility.yul\":8156:8161   */\n      dup3\n        /* \"#utility.yul\":8152:8168   */\n      add\n        /* \"#utility.yul\":8146:8169   */\n      mload\n        /* \"#utility.yul\":8182:8245   */\n      tag_371\n        /* \"#utility.yul\":8239:8243   */\n      0x20\n        /* \"#utility.yul\":8234:8237   */\n      dup6\n        /* \"#utility.yul\":8230:8244   */\n      add\n        /* \"#utility.yul\":8216:8228   */\n      dup3\n        /* \"#utility.yul\":8182:8245   */\n      tag_295\n      jump\t// in\n    tag_371:\n        /* \"#utility.yul\":8082:8255   */\n      pop\n        /* \"#utility.yul\":8344:8348   */\n      0x40\n        /* \"#utility.yul\":8337:8342   */\n      dup3\n        /* \"#utility.yul\":8333:8349   */\n      add\n        /* \"#utility.yul\":8327:8350   */\n      mload\n        /* \"#utility.yul\":8363:8426   */\n      tag_372\n        /* \"#utility.yul\":8420:8424   */\n      0x40\n        /* \"#utility.yul\":8415:8418   */\n      dup6\n        /* \"#utility.yul\":8411:8425   */\n      add\n        /* \"#utility.yul\":8397:8409   */\n      dup3\n        /* \"#utility.yul\":8363:8426   */\n      tag_295\n      jump\t// in\n    tag_372:\n        /* \"#utility.yul\":8265:8436   */\n      pop\n        /* \"#utility.yul\":8527:8531   */\n      0x60\n        /* \"#utility.yul\":8520:8525   */\n      dup3\n        /* \"#utility.yul\":8516:8532   */\n      add\n        /* \"#utility.yul\":8510:8533   */\n      mload\n        /* \"#utility.yul\":8546:8609   */\n      tag_373\n        /* \"#utility.yul\":8603:8607   */\n      0x60\n        /* \"#utility.yul\":8598:8601   */\n      dup6\n        /* \"#utility.yul\":8594:8608   */\n      add\n        /* \"#utility.yul\":8580:8592   */\n      dup3\n        /* \"#utility.yul\":8546:8609   */\n      tag_295\n      jump\t// in\n    tag_373:\n        /* \"#utility.yul\":8446:8619   */\n      pop\n        /* \"#utility.yul\":7852:8626   */\n      pop\n        /* \"#utility.yul\":7736:8626   */\n      pop\n      pop\n      jump\t// out\n        /* \"#utility.yul\":8632:8740   */\n    tag_295:\n        /* \"#utility.yul\":8709:8733   */\n      tag_375\n        /* \"#utility.yul\":8727:8732   */\n      dup2\n        /* \"#utility.yul\":8709:8733   */\n      tag_376\n      jump\t// in\n    tag_375:\n        /* \"#utility.yul\":8704:8707   */\n      dup3\n        /* \"#utility.yul\":8697:8734   */\n      mstore\n        /* \"#utility.yul\":8632:8740   */\n      pop\n      pop\n      jump\t// out\n        /* \"#utility.yul\":8746:8864   */\n    tag_377:\n        /* \"#utility.yul\":8833:8857   */\n      tag_379\n        /* \"#utility.yul\":8851:8856   */\n      dup2\n        /* \"#utility.yul\":8833:8857   */\n      tag_376\n      jump\t// in\n    tag_379:\n        /* \"#utility.yul\":8828:8831   */\n      dup3\n        /* \"#utility.yul\":8821:8858   */\n      mstore\n        /* \"#utility.yul\":8746:8864   */\n      pop\n      pop\n      jump\t// out\n        /* \"#utility.yul\":8870:9092   */\n    tag_65:\n        /* \"#utility.yul\":8963:8967   */\n      0x00\n        /* \"#utility.yul\":9001:9003   */\n      0x20\n        /* \"#utility.yul\":8990:8999   */\n      dup3\n        /* \"#utility.yul\":8986:9004   */\n      add\n        /* \"#utility.yul\":8978:9004   */\n      swap1\n      pop\n        /* \"#utility.yul\":9014:9085   */\n      tag_381\n        /* \"#utility.yul\":9082:9083   */\n      0x00\n        /* \"#utility.yul\":9071:9080   */\n      dup4\n        /* \"#utility.yul\":9067:9084   */\n      add\n        /* \"#utility.yul\":9058:9064   */\n      dup5\n        /* \"#utility.yul\":9014:9085   */\n      tag_299\n      jump\t// in\n    tag_381:\n        /* \"#utility.yul\":8870:9092   */\n      swap3\n      swap2\n      pop\n      pop\n      jump\t// out\n        /* \"#utility.yul\":9098:9430   */\n    tag_157:\n        /* \"#utility.yul\":9219:9223   */\n      0x00\n        /* \"#utility.yul\":9257:9259   */\n      0x40\n        /* \"#utility.yul\":9246:9255   */\n      dup3\n        /* \"#utility.yul\":9242:9260   */\n      add\n        /* \"#utility.yul\":9234:9260   */\n      swap1\n      pop\n        /* \"#utility.yul\":9270:9341   */\n      tag_383\n        /* \"#utility.yul\":9338:9339   */\n      0x00\n        /* \"#utility.yul\":9327:9336   */\n      dup4\n        /* \"#utility.yul\":9323:9340   */\n      add\n        /* \"#utility.yul\":9314:9320   */\n      dup6\n        /* \"#utility.yul\":9270:9341   */\n      tag_299\n      jump\t// in\n    tag_383:\n        /* \"#utility.yul\":9351:9423   */\n      tag_384\n        /* \"#utility.yul\":9419:9421   */\n      0x20\n        /* \"#utility.yul\":9408:9417   */\n      dup4\n        /* \"#utility.yul\":9404:9422   */\n      add\n        /* \"#utility.yul\":9395:9401   */\n      dup5\n        /* \"#utility.yul\":9351:9423   */\n      tag_377\n      jump\t// in\n    tag_384:\n        /* \"#utility.yul\":9098:9430   */\n      swap4\n      swap3\n      pop\n      pop\n      pop\n      jump\t// out\n        /* \"#utility.yul\":9436:10088   */\n    tag_85:\n        /* \"#utility.yul\":9635:9639   */\n      0x00\n        /* \"#utility.yul\":9673:9676   */\n      0xa0\n        /* \"#utility.yul\":9662:9671   */\n      dup3\n        /* \"#utility.yul\":9658:9677   */\n      add\n        /* \"#utility.yul\":9650:9677   */\n      swap1\n      pop\n        /* \"#utility.yul\":9687:9758   */\n      tag_386\n        /* \"#utility.yul\":9755:9756   */\n      0x00\n        /* \"#utility.yul\":9744:9753   */\n      dup4\n        /* \"#utility.yul\":9740:9757   */\n      add\n        /* \"#utility.yul\":9731:9737   */\n      dup9\n        /* \"#utility.yul\":9687:9758   */\n      tag_299\n      jump\t// in\n    tag_386:\n        /* \"#utility.yul\":9768:9840   */\n      tag_387\n        /* \"#utility.yul\":9836:9838   */\n      0x20\n        /* \"#utility.yul\":9825:9834   */\n      dup4\n        /* \"#utility.yul\":9821:9839   */\n      add\n        /* \"#utility.yul\":9812:9818   */\n      dup8\n        /* \"#utility.yul\":9768:9840   */\n      tag_377\n      jump\t// in\n    tag_387:\n        /* \"#utility.yul\":9850:9922   */\n      tag_388\n        /* \"#utility.yul\":9918:9920   */\n      0x40\n        /* \"#utility.yul\":9907:9916   */\n      dup4\n        /* \"#utility.yul\":9903:9921   */\n      add\n        /* \"#utility.yul\":9894:9900   */\n      dup7\n        /* \"#utility.yul\":9850:9922   */\n      tag_377\n      jump\t// in\n    tag_388:\n        /* \"#utility.yul\":9932:10004   */\n      tag_389\n        /* \"#utility.yul\":10000:10002   */\n      0x60\n        /* \"#utility.yul\":9989:9998   */\n      dup4\n        /* \"#utility.yul\":9985:10003   */\n      add\n        /* \"#utility.yul\":9976:9982   */\n      dup6\n        /* \"#utility.yul\":9932:10004   */\n      tag_377\n      jump\t// in\n    tag_389:\n        /* \"#utility.yul\":10014:10081   */\n      tag_390\n        /* \"#utility.yul\":10076:10079   */\n      0x80\n        /* \"#utility.yul\":10065:10074   */\n      dup4\n        /* \"#utility.yul\":10061:10080   */\n      add\n        /* \"#utility.yul\":10052:10058   */\n      dup5\n        /* \"#utility.yul\":10014:10081   */\n      tag_344\n      jump\t// in\n    tag_390:\n        /* \"#utility.yul\":9436:10088   */\n      swap7\n      swap6\n      pop\n      pop\n      pop\n      pop\n      pop\n      pop\n      jump\t// out\n        /* \"#utility.yul\":10094:10467   */\n    tag_27:\n        /* \"#utility.yul\":10237:10241   */\n      0x00\n        /* \"#utility.yul\":10275:10277   */\n      0x20\n        /* \"#utility.yul\":10264:10273   */\n      dup3\n        /* \"#utility.yul\":10260:10278   */\n      add\n        /* \"#utility.yul\":10252:10278   */\n      swap1\n      pop\n        /* \"#utility.yul\":10324:10333   */\n      dup2\n        /* \"#utility.yul\":10318:10322   */\n      dup2\n        /* \"#utility.yul\":10314:10334   */\n      sub\n        /* \"#utility.yul\":10310:10311   */\n      0x00\n        /* \"#utility.yul\":10299:10308   */\n      dup4\n        /* \"#utility.yul\":10295:10312   */\n      add\n        /* \"#utility.yul\":10288:10335   */\n      mstore\n        /* \"#utility.yul\":10352:10460   */\n      tag_392\n        /* \"#utility.yul\":10455:10459   */\n      dup2\n        /* \"#utility.yul\":10446:10452   */\n      dup5\n        /* \"#utility.yul\":10352:10460   */\n      tag_302\n      jump\t// in\n    tag_392:\n        /* \"#utility.yul\":10344:10460   */\n      swap1\n      pop\n        /* \"#utility.yul\":10094:10467   */\n      swap3\n      swap2\n      pop\n      pop\n      jump\t// out\n        /* \"#utility.yul\":10473:10966   */\n    tag_51:\n        /* \"#utility.yul\":10676:10680   */\n      0x00\n        /* \"#utility.yul\":10714:10716   */\n      0x20\n        /* \"#utility.yul\":10703:10712   */\n      dup3\n        /* \"#utility.yul\":10699:10717   */\n      add\n        /* \"#utility.yul\":10691:10717   */\n      swap1\n      pop\n        /* \"#utility.yul\":10763:10772   */\n      dup2\n        /* \"#utility.yul\":10757:10761   */\n      dup2\n        /* \"#utility.yul\":10753:10773   */\n      sub\n        /* \"#utility.yul\":10749:10750   */\n      0x00\n        /* \"#utility.yul\":10738:10747   */\n      dup4\n        /* \"#utility.yul\":10734:10751   */\n      add\n        /* \"#utility.yul\":10727:10774   */\n      mstore\n        /* \"#utility.yul\":10791:10959   */\n      tag_394\n        /* \"#utility.yul\":10954:10958   */\n      dup2\n        /* \"#utility.yul\":10945:10951   */\n      dup5\n        /* \"#utility.yul\":10791:10959   */\n      tag_316\n      jump\t// in\n    tag_394:\n        /* \"#utility.yul\":10783:10959   */\n      swap1\n      pop\n        /* \"#utility.yul\":10473:10966   */\n      swap3\n      swap2\n      pop\n      pop\n      jump\t// out\n        /* \"#utility.yul\":10972:11345   */\n    tag_72:\n        /* \"#utility.yul\":11115:11119   */\n      0x00\n        /* \"#utility.yul\":11153:11155   */\n      0x20\n        /* \"#utility.yul\":11142:11151   */\n      dup3\n        /* \"#utility.yul\":11138:11156   */\n      add\n        /* \"#utility.yul\":11130:11156   */\n      swap1\n      pop\n        /* \"#utility.yul\":11202:11211   */\n      dup2\n        /* \"#utility.yul\":11196:11200   */\n      dup2\n        /* \"#utility.yul\":11192:11212   */\n      sub\n        /* \"#utility.yul\":11188:11189   */\n      0x00\n        /* \"#utility.yul\":11177:11186   */\n      dup4\n        /* \"#utility.yul\":11173:11190   */\n      add\n        /* \"#utility.yul\":11166:11213   */\n      mstore\n        /* \"#utility.yul\":11230:11338   */\n      tag_396\n        /* \"#utility.yul\":11333:11337   */\n      dup2\n        /* \"#utility.yul\":11324:11330   */\n      dup5\n        /* \"#utility.yul\":11230:11338   */\n      tag_330\n      jump\t// in\n    tag_396:\n        /* \"#utility.yul\":11222:11338   */\n      swap1\n      pop\n        /* \"#utility.yul\":10972:11345   */\n      swap3\n      swap2\n      pop\n      pop\n      jump\t// out\n        /* \"#utility.yul\":11351:11561   */\n    tag_44:\n        /* \"#utility.yul\":11438:11442   */\n      0x00\n        /* \"#utility.yul\":11476:11478   */\n      0x20\n        /* \"#utility.yul\":11465:11474   */\n      dup3\n        /* \"#utility.yul\":11461:11479   */\n      add\n        /* \"#utility.yul\":11453:11479   */\n      swap1\n      pop\n        /* \"#utility.yul\":11489:11554   */\n      tag_398\n        /* \"#utility.yul\":11551:11552   */\n      0x00\n        /* \"#utility.yul\":11540:11549   */\n      dup4\n        /* \"#utility.yul\":11536:11553   */\n      add\n        /* \"#utility.yul\":11527:11533   */\n      dup5\n        /* \"#utility.yul\":11489:11554   */\n      tag_344\n      jump\t// in\n    tag_398:\n        /* \"#utility.yul\":11351:11561   */\n      swap3\n      swap2\n      pop\n      pop\n      jump\t// out\n        /* \"#utility.yul\":11567:11986   */\n    tag_153:\n        /* \"#utility.yul\":11733:11737   */\n      0x00\n        /* \"#utility.yul\":11771:11773   */\n      0x20\n        /* \"#utility.yul\":11760:11769   */\n      dup3\n        /* \"#utility.yul\":11756:11774   */\n      add\n        /* \"#utility.yul\":11748:11774   */\n      swap1\n      pop\n        /* \"#utility.yul\":11820:11829   */\n      dup2\n        /* \"#utility.yul\":11814:11818   */\n      dup2\n        /* \"#utility.yul\":11810:11830   */\n      sub\n        /* \"#utility.yul\":11806:11807   */\n      0x00\n        /* \"#utility.yul\":11795:11804   */\n      dup4\n        /* \"#utility.yul\":11791:11808   */\n      add\n        /* \"#utility.yul\":11784:11831   */\n      mstore\n        /* \"#utility.yul\":11848:11979   */\n      tag_400\n        /* \"#utility.yul\":11974:11978   */\n      dup2\n        /* \"#utility.yul\":11848:11979   */\n      tag_348\n      jump\t// in\n    tag_400:\n        /* \"#utility.yul\":11840:11979   */\n      swap1\n      pop\n        /* \"#utility.yul\":11567:11986   */\n      swap2\n      swap1\n      pop\n      jump\t// out\n        /* \"#utility.yul\":11992:12411   */\n    tag_194:\n        /* \"#utility.yul\":12158:12162   */\n      0x00\n        /* \"#utility.yul\":12196:12198   */\n      0x20\n        /* \"#utility.yul\":12185:12194   */\n      dup3\n        /* \"#utility.yul\":12181:12199   */\n      add\n        /* \"#utility.yul\":12173:12199   */\n      swap1\n      pop\n        /* \"#utility.yul\":12245:12254   */\n      dup2\n        /* \"#utility.yul\":12239:12243   */\n      dup2\n        /* \"#utility.yul\":12235:12255   */\n      sub\n        /* \"#utility.yul\":12231:12232   */\n      0x00\n        /* \"#utility.yul\":12220:12229   */\n      dup4\n        /* \"#utility.yul\":12216:12233   */\n      add\n        /* \"#utility.yul\":12209:12256   */\n      mstore\n        /* \"#utility.yul\":12273:12404   */\n      tag_402\n        /* \"#utility.yul\":12399:12403   */\n      dup2\n        /* \"#utility.yul\":12273:12404   */\n      tag_354\n      jump\t// in\n    tag_402:\n        /* \"#utility.yul\":12265:12404   */\n      swap1\n      pop\n        /* \"#utility.yul\":11992:12411   */\n      swap2\n      swap1\n      pop\n      jump\t// out\n        /* \"#utility.yul\":12417:12836   */\n    tag_204:\n        /* \"#utility.yul\":12583:12587   */\n      0x00\n        /* \"#utility.yul\":12621:12623   */\n      0x20\n        /* \"#utility.yul\":12610:12619   */\n      dup3\n        /* \"#utility.yul\":12606:12624   */\n      add\n        /* \"#utility.yul\":12598:12624   */\n      swap1\n      pop\n        /* \"#utility.yul\":12670:12679   */\n      dup2\n        /* \"#utility.yul\":12664:12668   */\n      dup2\n        /* \"#utility.yul\":12660:12680   */\n      sub\n        /* \"#utility.yul\":12656:12657   */\n      0x00\n        /* \"#utility.yul\":12645:12654   */\n      dup4\n        /* \"#utility.yul\":12641:12658   */\n      add\n        /* \"#utility.yul\":12634:12681   */\n      mstore\n        /* \"#utility.yul\":12698:12829   */\n      tag_404\n        /* \"#utility.yul\":12824:12828   */\n      dup2\n        /* \"#utility.yul\":12698:12829   */\n      tag_359\n      jump\t// in\n    tag_404:\n        /* \"#utility.yul\":12690:12829   */\n      swap1\n      pop\n        /* \"#utility.yul\":12417:12836   */\n      swap2\n      swap1\n      pop\n      jump\t// out\n        /* \"#utility.yul\":12842:13261   */\n    tag_100:\n        /* \"#utility.yul\":13008:13012   */\n      0x00\n        /* \"#utility.yul\":13046:13048   */\n      0x20\n        /* \"#utility.yul\":13035:13044   */\n      dup3\n        /* \"#utility.yul\":13031:13049   */\n      add\n        /* \"#utility.yul\":13023:13049   */\n      swap1\n      pop\n        /* \"#utility.yul\":13095:13104   */\n      dup2\n        /* \"#utility.yul\":13089:13093   */\n      dup2\n        /* \"#utility.yul\":13085:13105   */\n      sub\n        /* \"#utility.yul\":13081:13082   */\n      0x00\n        /* \"#utility.yul\":13070:13079   */\n      dup4\n        /* \"#utility.yul\":13066:13083   */\n      add\n        /* \"#utility.yul\":13059:13106   */\n      mstore\n        /* \"#utility.yul\":13123:13254   */\n      tag_406\n        /* \"#utility.yul\":13249:13253   */\n      dup2\n        /* \"#utility.yul\":13123:13254   */\n      tag_364\n      jump\t// in\n    tag_406:\n        /* \"#utility.yul\":13115:13254   */\n      swap1\n      pop\n        /* \"#utility.yul\":12842:13261   */\n      swap2\n      swap1\n      pop\n      jump\t// out\n        /* \"#utility.yul\":13267:13489   */\n    tag_31:\n        /* \"#utility.yul\":13360:13364   */\n      0x00\n        /* \"#utility.yul\":13398:13400   */\n      0x20\n        /* \"#utility.yul\":13387:13396   */\n      dup3\n        /* \"#utility.yul\":13383:13401   */\n      add\n        /* \"#utility.yul\":13375:13401   */\n      swap1\n      pop\n        /* \"#utility.yul\":13411:13482   */\n      tag_408\n        /* \"#utility.yul\":13479:13480   */\n      0x00\n        /* \"#utility.yul\":13468:13477   */\n      dup4\n        /* \"#utility.yul\":13464:13481   */\n      add\n        /* \"#utility.yul\":13455:13461   */\n      dup5\n        /* \"#utility.yul\":13411:13482   */\n      tag_377\n      jump\t// in\n    tag_408:\n        /* \"#utility.yul\":13267:13489   */\n      swap3\n      swap2\n      pop\n      pop\n      jump\t// out\n        /* \"#utility.yul\":13576:13708   */\n    tag_309:\n        /* \"#utility.yul\":13643:13647   */\n      0x00\n        /* \"#utility.yul\":13666:13669   */\n      dup2\n        /* \"#utility.yul\":13658:13669   */\n      swap1\n      pop\n        /* \"#utility.yul\":13696:13700   */\n      0x20\n        /* \"#utility.yul\":13691:13694   */\n      dup3\n        /* \"#utility.yul\":13687:13701   */\n      add\n        /* \"#utility.yul\":13679:13701   */\n      swap1\n      pop\n        /* \"#utility.yul\":13576:13708   */\n      swap2\n      swap1\n      pop\n      jump\t// out\n        /* \"#utility.yul\":13714:13876   */\n    tag_323:\n        /* \"#utility.yul\":13811:13815   */\n      0x00\n        /* \"#utility.yul\":13834:13837   */\n      dup2\n        /* \"#utility.yul\":13826:13837   */\n      swap1\n      pop\n        /* \"#utility.yul\":13864:13868   */\n      0x20\n        /* \"#utility.yul\":13859:13862   */\n      dup3\n        /* \"#utility.yul\":13855:13869   */\n      add\n        /* \"#utility.yul\":13847:13869   */\n      swap1\n      pop\n        /* \"#utility.yul\":13714:13876   */\n      swap2\n      swap1\n      pop\n      jump\t// out\n        /* \"#utility.yul\":13882:14014   */\n    tag_337:\n        /* \"#utility.yul\":13949:13953   */\n      0x00\n        /* \"#utility.yul\":13972:13975   */\n      dup2\n        /* \"#utility.yul\":13964:13975   */\n      swap1\n      pop\n        /* \"#utility.yul\":14002:14006   */\n      0x20\n        /* \"#utility.yul\":13997:14000   */\n      dup3\n        /* \"#utility.yul\":13993:14007   */\n      add\n        /* \"#utility.yul\":13985:14007   */\n      swap1\n      pop\n        /* \"#utility.yul\":13882:14014   */\n      swap2\n      swap1\n      pop\n      jump\t// out\n        /* \"#utility.yul\":14020:14134   */\n    tag_305:\n        /* \"#utility.yul\":14087:14093   */\n      0x00\n        /* \"#utility.yul\":14121:14126   */\n      dup2\n        /* \"#utility.yul\":14115:14127   */\n      mload\n        /* \"#utility.yul\":14105:14127   */\n      swap1\n      pop\n        /* \"#utility.yul\":14020:14134   */\n      swap2\n      swap1\n      pop\n      jump\t// out\n        /* \"#utility.yul\":14140:14284   */\n    tag_319:\n        /* \"#utility.yul\":14237:14243   */\n      0x00\n        /* \"#utility.yul\":14271:14276   */\n      dup2\n        /* \"#utility.yul\":14265:14277   */\n      mload\n        /* \"#utility.yul\":14255:14277   */\n      swap1\n      pop\n        /* \"#utility.yul\":14140:14284   */\n      swap2\n      swap1\n      pop\n      jump\t// out\n        /* \"#utility.yul\":14290:14404   */\n    tag_333:\n        /* \"#utility.yul\":14357:14363   */\n      0x00\n        /* \"#utility.yul\":14391:14396   */\n      dup2\n        /* \"#utility.yul\":14385:14397   */\n      mload\n        /* \"#utility.yul\":14375:14397   */\n      swap1\n      pop\n        /* \"#utility.yul\":14290:14404   */\n      swap2\n      swap1\n      pop\n      jump\t// out\n        /* \"#utility.yul\":14410:14523   */\n    tag_315:\n        /* \"#utility.yul\":14480:14484   */\n      0x00\n        /* \"#utility.yul\":14512:14516   */\n      0x20\n        /* \"#utility.yul\":14507:14510   */\n      dup3\n        /* \"#utility.yul\":14503:14517   */\n      add\n        /* \"#utility.yul\":14495:14517   */\n      swap1\n      pop\n        /* \"#utility.yul\":14410:14523   */\n      swap2\n      swap1\n      pop\n      jump\t// out\n        /* \"#utility.yul\":14529:14672   */\n    tag_329:\n        /* \"#utility.yul\":14629:14633   */\n      0x00\n        /* \"#utility.yul\":14661:14665   */\n      0x20\n        /* \"#utility.yul\":14656:14659   */\n      dup3\n        /* \"#utility.yul\":14652:14666   */\n      add\n        /* \"#utility.yul\":14644:14666   */\n      swap1\n      pop\n        /* \"#utility.yul\":14529:14672   */\n      swap2\n      swap1\n      pop\n      jump\t// out\n        /* \"#utility.yul\":14678:14791   */\n    tag_343:\n        /* \"#utility.yul\":14748:14752   */\n      0x00\n        /* \"#utility.yul\":14780:14784   */\n      0x20\n        /* \"#utility.yul\":14775:14778   */\n      dup3\n        /* \"#utility.yul\":14771:14785   */\n      add\n        /* \"#utility.yul\":14763:14785   */\n      swap1\n      pop\n        /* \"#utility.yul\":14678:14791   */\n      swap2\n      swap1\n      pop\n      jump\t// out\n        /* \"#utility.yul\":14797:14981   */\n    tag_307:\n        /* \"#utility.yul\":14896:14907   */\n      0x00\n        /* \"#utility.yul\":14930:14936   */\n      dup3\n        /* \"#utility.yul\":14925:14928   */\n      dup3\n        /* \"#utility.yul\":14918:14937   */\n      mstore\n        /* \"#utility.yul\":14970:14974   */\n      0x20\n        /* \"#utility.yul\":14965:14968   */\n      dup3\n        /* \"#utility.yul\":14961:14975   */\n      add\n        /* \"#utility.yul\":14946:14975   */\n      swap1\n      pop\n        /* \"#utility.yul\":14797:14981   */\n      swap3\n      swap2\n      pop\n      pop\n      jump\t// out\n        /* \"#utility.yul\":14987:15201   */\n    tag_321:\n        /* \"#utility.yul\":15116:15127   */\n      0x00\n        /* \"#utility.yul\":15150:15156   */\n      dup3\n        /* \"#utility.yul\":15145:15148   */\n      dup3\n        /* \"#utility.yul\":15138:15157   */\n      mstore\n        /* \"#utility.yul\":15190:15194   */\n      0x20\n        /* \"#utility.yul\":15185:15188   */\n      dup3\n        /* \"#utility.yul\":15181:15195   */\n      add\n        /* \"#utility.yul\":15166:15195   */\n      swap1\n      pop\n        /* \"#utility.yul\":14987:15201   */\n      swap3\n      swap2\n      pop\n      pop\n      jump\t// out\n        /* \"#utility.yul\":15207:15391   */\n    tag_335:\n        /* \"#utility.yul\":15306:15317   */\n      0x00\n        /* \"#utility.yul\":15340:15346   */\n      dup3\n        /* \"#utility.yul\":15335:15338   */\n      dup3\n        /* \"#utility.yul\":15328:15347   */\n      mstore\n        /* \"#utility.yul\":15380:15384   */\n      0x20\n        /* \"#utility.yul\":15375:15378   */\n      dup3\n        /* \"#utility.yul\":15371:15385   */\n      add\n        /* \"#utility.yul\":15356:15385   */\n      swap1\n      pop\n        /* \"#utility.yul\":15207:15391   */\n      swap3\n      swap2\n      pop\n      pop\n      jump\t// out\n        /* \"#utility.yul\":15397:15566   */\n    tag_351:\n        /* \"#utility.yul\":15481:15492   */\n      0x00\n        /* \"#utility.yul\":15515:15521   */\n      dup3\n        /* \"#utility.yul\":15510:15513   */\n      dup3\n        /* \"#utility.yul\":15503:15522   */\n      mstore\n        /* \"#utility.yul\":15555:15559   */\n      0x20\n        /* \"#utility.yul\":15550:15553   */\n      dup3\n        /* \"#utility.yul\":15546:15560   */\n      add\n        /* \"#utility.yul\":15531:15560   */\n      swap1\n      pop\n        /* \"#utility.yul\":15397:15566   */\n      swap3\n      swap2\n      pop\n      pop\n      jump\t// out\n        /* \"#utility.yul\":15572:15877   */\n    tag_105:\n        /* \"#utility.yul\":15612:15615   */\n      0x00\n        /* \"#utility.yul\":15631:15651   */\n      tag_425\n        /* \"#utility.yul\":15649:15650   */\n      dup3\n        /* \"#utility.yul\":15631:15651   */\n      tag_376\n      jump\t// in\n    tag_425:\n        /* \"#utility.yul\":15626:15651   */\n      swap2\n      pop\n        /* \"#utility.yul\":15665:15685   */\n      tag_426\n        /* \"#utility.yul\":15683:15684   */\n      dup4\n        /* \"#utility.yul\":15665:15685   */\n      tag_376\n      jump\t// in\n    tag_426:\n        /* \"#utility.yul\":15660:15685   */\n      swap3\n      pop\n        /* \"#utility.yul\":15819:15820   */\n      dup3\n        /* \"#utility.yul\":15751:15817   */\n      0xffffffffffffffffffffffffffffffffffffffffffffffffffffffffffffffff\n        /* \"#utility.yul\":15747:15821   */\n      sub\n        /* \"#utility.yul\":15744:15745   */\n      dup3\n        /* \"#utility.yul\":15741:15822   */\n      gt\n        /* \"#utility.yul\":15738:15845   */\n      iszero\n      tag_427\n      jumpi\n        /* \"#utility.yul\":15825:15843   */\n      tag_428\n      tag_429\n      jump\t// in\n    tag_428:\n        /* \"#utility.yul\":15738:15845   */\n    tag_427:\n        /* \"#utility.yul\":15869:15870   */\n      dup3\n        /* \"#utility.yul\":15866:15867   */\n      dup3\n        /* \"#utility.yul\":15862:15871   */\n      add\n        /* \"#utility.yul\":15855:15871   */\n      swap1\n      pop\n        /* \"#utility.yul\":15572:15877   */\n      swap3\n      swap2\n      pop\n      pop\n      jump\t// out\n        /* \"#utility.yul\":15883:16068   */\n    tag_144:\n        /* \"#utility.yul\":15923:15924   */\n      0x00\n        /* \"#utility.yul\":15940:15960   */\n      tag_431\n        /* \"#utility.yul\":15958:15959   */\n      dup3\n        /* \"#utility.yul\":15940:15960   */\n      tag_376\n      jump\t// in\n    tag_431:\n        /* \"#utility.yul\":15935:15960   */\n      swap2\n      pop\n        /* \"#utility.yul\":15974:15994   */\n      tag_432\n        /* \"#utility.yul\":15992:15993   */\n      dup4\n        /* \"#utility.yul\":15974:15994   */\n      tag_376\n      jump\t// in\n    tag_432:\n        /* \"#utility.yul\":15969:15994   */\n      swap3\n      pop\n        /* \"#utility.yul\":16013:16014   */\n      dup3\n        /* \"#utility.yul\":16003:16038   */\n      tag_433\n      jumpi\n        /* \"#utility.yul\":16018:16036   */\n      tag_434\n      tag_435\n      jump\t// in\n    tag_434:\n        /* \"#utility.yul\":16003:16038   */\n    tag_433:\n        /* \"#utility.yul\":16060:16061   */\n      dup3\n        /* \"#utility.yul\":16057:16058   */\n      dup3\n        /* \"#utility.yul\":16053:16062   */\n      div\n        /* \"#utility.yul\":16048:16062   */\n      swap1\n      pop\n        /* \"#utility.yul\":15883:16068   */\n      swap3\n      swap2\n      pop\n      pop\n      jump\t// out\n        /* \"#utility.yul\":16074:16422   */\n    tag_147:\n        /* \"#utility.yul\":16114:16121   */\n      0x00\n        /* \"#utility.yul\":16137:16157   */\n      tag_437\n        /* \"#utility.yul\":16155:16156   */\n      dup3\n        /* \"#utility.yul\":16137:16157   */\n      tag_376\n      jump\t// in\n    tag_437:\n        /* \"#utility.yul\":16132:16157   */\n      swap2\n      pop\n        /* \"#utility.yul\":16171:16191   */\n      tag_438\n        /* \"#utility.yul\":16189:16190   */\n      dup4\n        /* \"#utility.yul\":16171:16191   */\n      tag_376\n      jump\t// in\n    tag_438:\n        /* \"#utility.yul\":16166:16191   */\n      swap3\n      pop\n        /* \"#utility.yul\":16359:16360   */\n      dup2\n        /* \"#utility.yul\":16291:16357   */\n      0xffffffffffffffffffffffffffffffffffffffffffffffffffffffffffffffff\n        /* \"#utility.yul\":16287:16361   */\n      div\n        /* \"#utility.yul\":16284:16285   */\n      dup4\n        /* \"#utility.yul\":16281:16362   */\n      gt\n        /* \"#utility.yul\":16276:16277   */\n      dup3\n        /* \"#utility.yul\":16269:16278   */\n      iszero\n        /* \"#utility.yul\":16262:16279   */\n      iszero\n        /* \"#utility.yul\":16258:16363   */\n      and\n        /* \"#utility.yul\":16255:16386   */\n      iszero\n      tag_439\n      jumpi\n        /* \"#utility.yul\":16366:16384   */\n      tag_440\n      tag_429\n      jump\t// in\n    tag_440:\n        /* \"#utility.yul\":16255:16386   */\n    tag_439:\n        /* \"#utility.yul\":16414:16415   */\n      dup3\n        /* \"#utility.yul\":16411:16412   */\n      dup3\n        /* \"#utility.yul\":16407:16416   */\n      mul\n        /* \"#utility.yul\":16396:16416   */\n      swap1\n      pop\n        /* \"#utility.yul\":16074:16422   */\n      swap3\n      swap2\n      pop\n      pop\n      jump\t// out\n        /* \"#utility.yul\":16428:16619   */\n    tag_142:\n        /* \"#utility.yul\":16468:16472   */\n      0x00\n        /* \"#utility.yul\":16488:16508   */\n      tag_442\n        /* \"#utility.yul\":16506:16507   */\n      dup3\n        /* \"#utility.yul\":16488:16508   */\n      tag_376\n      jump\t// in\n    tag_442:\n        /* \"#utility.yul\":16483:16508   */\n      swap2\n      pop\n        /* \"#utility.yul\":16522:16542   */\n      tag_443\n        /* \"#utility.yul\":16540:16541   */\n      dup4\n        /* \"#utility.yul\":16522:16542   */\n      tag_376\n      jump\t// in\n    tag_443:\n        /* \"#utility.yul\":16517:16542   */\n      swap3\n      pop\n        /* \"#utility.yul\":16561:16562   */\n      dup3\n        /* \"#utility.yul\":16558:16559   */\n      dup3\n        /* \"#utility.yul\":16555:16563   */\n      lt\n        /* \"#utility.yul\":16552:16586   */\n      iszero\n      tag_444\n      jumpi\n        /* \"#utility.yul\":16566:16584   */\n      tag_445\n      tag_429\n      jump\t// in\n    tag_445:\n        /* \"#utility.yul\":16552:16586   */\n    tag_444:\n        /* \"#utility.yul\":16611:16612   */\n      dup3\n        /* \"#utility.yul\":16608:16609   */\n      dup3\n        /* \"#utility.yul\":16604:16613   */\n      sub\n        /* \"#utility.yul\":16596:16613   */\n      swap1\n      pop\n        /* \"#utility.yul\":16428:16619   */\n      swap3\n      swap2\n      pop\n      pop\n      jump\t// out\n        /* \"#utility.yul\":16625:16721   */\n    tag_298:\n        /* \"#utility.yul\":16662:16669   */\n      0x00\n        /* \"#utility.yul\":16691:16715   */\n      tag_447\n        /* \"#utility.yul\":16709:16714   */\n      dup3\n        /* \"#utility.yul\":16691:16715   */\n      tag_448\n      jump\t// in\n    tag_447:\n        /* \"#utility.yul\":16680:16715   */\n      swap1\n      pop\n        /* \"#utility.yul\":16625:16721   */\n      swap2\n      swap1\n      pop\n      jump\t// out\n        /* \"#utility.yul\":16727:16817   */\n    tag_347:\n        /* \"#utility.yul\":16761:16768   */\n      0x00\n        /* \"#utility.yul\":16804:16809   */\n      dup2\n        /* \"#utility.yul\":16797:16810   */\n      iszero\n        /* \"#utility.yul\":16790:16811   */\n      iszero\n        /* \"#utility.yul\":16779:16811   */\n      swap1\n      pop\n        /* \"#utility.yul\":16727:16817   */\n      swap2\n      swap1\n      pop\n      jump\t// out\n        /* \"#utility.yul\":16823:16949   */\n    tag_448:\n        /* \"#utility.yul\":16860:16867   */\n      0x00\n        /* \"#utility.yul\":16900:16942   */\n      0xffffffffffffffffffffffffffffffffffffffff\n        /* \"#utility.yul\":16893:16898   */\n      dup3\n        /* \"#utility.yul\":16889:16943   */\n      and\n        /* \"#utility.yul\":16878:16943   */\n      swap1\n      pop\n        /* \"#utility.yul\":16823:16949   */\n      swap2\n      swap1\n      pop\n      jump\t// out\n        /* \"#utility.yul\":16955:17032   */\n    tag_376:\n        /* \"#utility.yul\":16992:16999   */\n      0x00\n        /* \"#utility.yul\":17021:17026   */\n      dup2\n        /* \"#utility.yul\":17010:17026   */\n      swap1\n      pop\n        /* \"#utility.yul\":16955:17032   */\n      swap2\n      swap1\n      pop\n      jump\t// out\n        /* \"#utility.yul\":17038:17271   */\n    tag_103:\n        /* \"#utility.yul\":17077:17080   */\n      0x00\n        /* \"#utility.yul\":17100:17124   */\n      tag_453\n        /* \"#utility.yul\":17118:17123   */\n      dup3\n        /* \"#utility.yul\":17100:17124   */\n      tag_376\n      jump\t// in\n    tag_453:\n        /* \"#utility.yul\":17091:17124   */\n      swap2\n      pop\n        /* \"#utility.yul\":17146:17212   */\n      0xffffffffffffffffffffffffffffffffffffffffffffffffffffffffffffffff\n        /* \"#utility.yul\":17139:17144   */\n      dup3\n        /* \"#utility.yul\":17136:17213   */\n      eq\n        /* \"#utility.yul\":17133:17236   */\n      iszero\n      tag_454\n      jumpi\n        /* \"#utility.yul\":17216:17234   */\n      tag_455\n      tag_429\n      jump\t// in\n    tag_455:\n        /* \"#utility.yul\":17133:17236   */\n    tag_454:\n        /* \"#utility.yul\":17263:17264   */\n      0x01\n        /* \"#utility.yul\":17256:17261   */\n      dup3\n        /* \"#utility.yul\":17252:17265   */\n      add\n        /* \"#utility.yul\":17245:17265   */\n      swap1\n      pop\n        /* \"#utility.yul\":17038:17271   */\n      swap2\n      swap1\n      pop\n      jump\t// out\n        /* \"#utility.yul\":17277:17457   */\n    tag_429:\n        /* \"#utility.yul\":17325:17402   */\n      0x4e487b7100000000000000000000000000000000000000000000000000000000\n        /* \"#utility.yul\":17322:17323   */\n      0x00\n        /* \"#utility.yul\":17315:17403   */\n      mstore\n        /* \"#utility.yul\":17422:17426   */\n      0x11\n        /* \"#utility.yul\":17419:17420   */\n      0x04\n        /* \"#utility.yul\":17412:17427   */\n      mstore\n        /* \"#utility.yul\":17446:17450   */\n      0x24\n        /* \"#utility.yul\":17443:17444   */\n      0x00\n        /* \"#utility.yul\":17436:17451   */\n      revert\n        /* \"#utility.yul\":17463:17643   */\n    tag_435:\n        /* \"#utility.yul\":17511:17588   */\n      0x4e487b7100000000000000000000000000000000000000000000000000000000\n        /* \"#utility.yul\":17508:17509   */\n      0x00\n        /* \"#utility.yul\":17501:17589   */\n      mstore\n        /* \"#utility.yul\":17608:17612   */\n      0x12\n        /* \"#utility.yul\":17605:17606   */\n      0x04\n        /* \"#utility.yul\":17598:17613   */\n      mstore\n        /* \"#utility.yul\":17632:17636   */\n      0x24\n        /* \"#utility.yul\":17629:17630   */\n      0x00\n        /* \"#utility.yul\":17622:17637   */\n      revert\n        /* \"#utility.yul\":17649:17829   */\n    tag_134:\n        /* \"#utility.yul\":17697:17774   */\n      0x4e487b7100000000000000000000000000000000000000000000000000000000\n        /* \"#utility.yul\":17694:17695   */\n      0x00\n        /* \"#utility.yul\":17687:17775   */\n      mstore\n        /* \"#utility.yul\":17794:17798   */\n      0x32\n        /* \"#utility.yul\":17791:17792   */\n      0x04\n        /* \"#utility.yul\":17784:17799   */\n      mstore\n        /* \"#utility.yul\":17818:17822   */\n      0x24\n        /* \"#utility.yul\":17815:17816   */\n      0x00\n        /* \"#utility.yul\":17808:17823   */\n      revert\n        /* \"#utility.yul\":17835:18015   */\n    tag_123:\n        /* \"#utility.yul\":17883:17960   */\n      0x4e487b7100000000000000000000000000000000000000000000000000000000\n        /* \"#utility.yul\":17880:17881   */\n      0x00\n        /* \"#utility.yul\":17873:17961   */\n      mstore\n        /* \"#utility.yul\":17980:17984   */\n      0x41\n        /* \"#utility.yul\":17977:17978   */\n      0x04\n        /* \"#utility.yul\":17970:17985   */\n      mstore\n        /* \"#utility.yul\":18004:18008   */\n      0x24\n        /* \"#utility.yul\":18001:18002   */\n      0x00\n        /* \"#utility.yul\":17994:18009   */\n      revert\n        /* \"#utility.yul\":18144:18261   */\n    tag_263:\n        /* \"#utility.yul\":18253:18254   */\n      0x00\n        /* \"#utility.yul\":18250:18251   */\n      dup1\n        /* \"#utility.yul\":18243:18255   */\n      revert\n        /* \"#utility.yul\":18267:18491   */\n    tag_353:\n        /* \"#utility.yul\":18407:18441   */\n      0x796f7520646f6e74206861766520696e766573746d656e7420746f2077697468\n        /* \"#utility.yul\":18403:18404   */\n      0x00\n        /* \"#utility.yul\":18395:18401   */\n      dup3\n        /* \"#utility.yul\":18391:18405   */\n      add\n        /* \"#utility.yul\":18384:18442   */\n      mstore\n        /* \"#utility.yul\":18476:18483   */\n      0x647261776e000000000000000000000000000000000000000000000000000000\n        /* \"#utility.yul\":18471:18473   */\n      0x20\n        /* \"#utility.yul\":18463:18469   */\n      dup3\n        /* \"#utility.yul\":18459:18474   */\n      add\n        /* \"#utility.yul\":18452:18484   */\n      mstore\n        /* \"#utility.yul\":18267:18491   */\n      pop\n      jump\t// out\n        /* \"#utility.yul\":18497:18718   */\n    tag_358:\n        /* \"#utility.yul\":18637:18671   */\n      0x796f7520646f6e742068617665207265776172647320746f2077697468647261\n        /* \"#utility.yul\":18633:18634   */\n      0x00\n        /* \"#utility.yul\":18625:18631   */\n      dup3\n        /* \"#utility.yul\":18621:18635   */\n      add\n        /* \"#utility.yul\":18614:18672   */\n      mstore\n        /* \"#utility.yul\":18706:18710   */\n      0x776e000000000000000000000000000000000000000000000000000000000000\n        /* \"#utility.yul\":18701:18703   */\n      0x20\n        /* \"#utility.yul\":18693:18699   */\n      dup3\n        /* \"#utility.yul\":18689:18704   */\n      add\n        /* \"#utility.yul\":18682:18711   */\n      mstore\n        /* \"#utility.yul\":18497:18718   */\n      pop\n      jump\t// out\n        /* \"#utility.yul\":18724:18944   */\n    tag_363:\n        /* \"#utility.yul\":18864:18898   */\n      0x6f6e6c79204f776e65722063616e2063616c6c20746869732066756e6374696f\n        /* \"#utility.yul\":18860:18861   */\n      0x00\n        /* \"#utility.yul\":18852:18858   */\n      dup3\n        /* \"#utility.yul\":18848:18862   */\n      add\n        /* \"#utility.yul\":18841:18899   */\n      mstore\n        /* \"#utility.yul\":18933:18936   */\n      0x6e00000000000000000000000000000000000000000000000000000000000000\n        /* \"#utility.yul\":18928:18930   */\n      0x20\n        /* \"#utility.yul\":18920:18926   */\n      dup3\n        /* \"#utility.yul\":18916:18931   */\n      add\n        /* \"#utility.yul\":18909:18937   */\n      mstore\n        /* \"#utility.yul\":18724:18944   */\n      pop\n      jump\t// out\n        /* \"#utility.yul\":18950:19131   */\n    tag_368:\n        /* \"#utility.yul\":19090:19123   */\n      0x76616c7565206973206e6f742067726561746572207468616e20313030303000\n        /* \"#utility.yul\":19086:19087   */\n      0x00\n        /* \"#utility.yul\":19078:19084   */\n      dup3\n        /* \"#utility.yul\":19074:19088   */\n      add\n        /* \"#utility.yul\":19067:19124   */\n      mstore\n        /* \"#utility.yul\":18950:19131   */\n      pop\n      jump\t// out\n        /* \"#utility.yul\":19137:19259   */\n    tag_251:\n        /* \"#utility.yul\":19210:19234   */\n      tag_468\n        /* \"#utility.yul\":19228:19233   */\n      dup2\n        /* \"#utility.yul\":19210:19234   */\n      tag_298\n      jump\t// in\n    tag_468:\n        /* \"#utility.yul\":19203:19208   */\n      dup2\n        /* \"#utility.yul\":19200:19235   */\n      eq\n        /* \"#utility.yul\":19190:19253   */\n      tag_469\n      jumpi\n        /* \"#utility.yul\":19249:19250   */\n      0x00\n        /* \"#utility.yul\":19246:19247   */\n      dup1\n        /* \"#utility.yul\":19239:19251   */\n      revert\n        /* \"#utility.yul\":19190:19253   */\n    tag_469:\n        /* \"#utility.yul\":19137:19259   */\n      pop\n      jump\t// out\n        /* \"#utility.yul\":19265:19381   */\n    tag_255:\n        /* \"#utility.yul\":19335:19356   */\n      tag_471\n        /* \"#utility.yul\":19350:19355   */\n      dup2\n        /* \"#utility.yul\":19335:19356   */\n      tag_347\n      jump\t// in\n    tag_471:\n        /* \"#utility.yul\":19328:19333   */\n      dup2\n        /* \"#utility.yul\":19325:19357   */\n      eq\n        /* \"#utility.yul\":19315:19375   */\n      tag_472\n      jumpi\n        /* \"#utility.yul\":19371:19372   */\n      0x00\n        /* \"#utility.yul\":19368:19369   */\n      dup1\n        /* \"#utility.yul\":19361:19373   */\n      revert\n        /* \"#utility.yul\":19315:19375   */\n    tag_472:\n        /* \"#utility.yul\":19265:19381   */\n      pop\n      jump\t// out\n        /* \"#utility.yul\":19387:19509   */\n    tag_259:\n        /* \"#utility.yul\":19460:19484   */\n      tag_474\n        /* \"#utility.yul\":19478:19483   */\n      dup2\n        /* \"#utility.yul\":19460:19484   */\n      tag_376\n      jump\t// in\n    tag_474:\n        /* \"#utility.yul\":19453:19458   */\n      dup2\n        /* \"#utility.yul\":19450:19485   */\n      eq\n        /* \"#utility.yul\":19440:19503   */\n      tag_475\n      jumpi\n        /* \"#utility.yul\":19499:19500   */\n      0x00\n        /* \"#utility.yul\":19496:19497   */\n      dup1\n        /* \"#utility.yul\":19489:19501   */\n      revert\n        /* \"#utility.yul\":19440:19503   */\n    tag_475:\n        /* \"#utility.yul\":19387:19509   */\n      pop\n      jump\t// out\n\n    auxdata: 0xa2646970667358221220eb90871ee715aa0045037d2600cababcc6cb089f45ea381e98300e1b5b5d270b64736f6c63430008070033\n}\n",
				"bytecode": {
					"linkReferences": {},
					"object": "608060405273d902364fe763a130c12457c9fb17e1603374c424600160006101000a81548173ffffffffffffffffffffffffffffffffffffffff021916908373ffffffffffffffffffffffffffffffffffffffff16021790555073b5047153afcc59523f7f6d6f492f716a21b04681600260006101000a81548173ffffffffffffffffffffffffffffffffffffffff021916908373ffffffffffffffffffffffffffffffffffffffff1602179055506706f05b59d3b20000600455600a6005556a0422ca8b0a00a42500000060065563018b82006007553480156100e257600080fd5b50336000806101000a81548173ffffffffffffffffffffffffffffffffffffffff021916908373ffffffffffffffffffffffffffffffffffffffff1602179055506123e0806101326000396000f3fe608060405234801561001057600080fd5b50600436106101165760003560e01c80635d3eea91116100a2578063c885bc5811610071578063c885bc58146102bf578063ce10db0a146102dd578063d3560ee8146102f9578063f2fde38b1461032d578063f7c618c11461034957610116565b80635d3eea91146102355780638da5cb5b14610265578063929f6bbe14610283578063a61be99d146102a157610116565b80632bccdce6116100e95780632bccdce61461019157806332d4e783146101c15780633a1e0833146101dd5780633d18b912146101fb578063500cb85f1461021957610116565b80630c5f58f41461011b57806310cde60a146101395780631e8aba3514610157578063293be45614610175575b600080fd5b610123610367565b6040516101309190611e10565b60405180910390f35b610141610435565b60405161014e9190611f11565b60405180910390f35b61015f61043b565b60405161016c9190611f11565b60405180910390f35b61018f600480360381019061018a9190611a2b565b610488565b005b6101ab60048036038101906101a69190611a58565b610492565b6040516101b89190611e76565b60405180910390f35b6101db60048036038101906101d69190611a2b565b610a10565b005b6101e5610a1a565b6040516101f29190611e32565b60405180910390f35b610203610c86565b6040516102109190611f11565b60405180910390f35b610233600480360381019061022e9190611a2b565b610d86565b005b61024f600480360381019061024a9190611a2b565b610d90565b60405161025c9190611e76565b60405180910390f35b61026d611132565b60405161027a9190611d79565b60405180910390f35b61028b611156565b6040516102989190611f11565b60405180910390f35b6102a96111a0565b6040516102b69190611e54565b60405180910390f35b6102c7611323565b6040516102d49190611e76565b60405180910390f35b6102f760048036038101906102f29190611a98565b61142b565b005b610313600480360381019061030e91906119d1565b611445565b604051610324959493929190611dbd565b60405180910390f35b610347600480360381019061034291906119d1565b6114a8565b005b610351611579565b60405161035e9190611f11565b60405180910390f35b6060600860003373ffffffffffffffffffffffffffffffffffffffff1673ffffffffffffffffffffffffffffffffffffffff16815260200190815260200160002060010180548060200260200160405190810160405280929190818152602001828054801561042b57602002820191906000526020600020905b8160009054906101000a900473ffffffffffffffffffffffffffffffffffffffff1673ffffffffffffffffffffffffffffffffffffffff16815260200190600101908083116103e1575b5050505050905090565b60035481565b6000600860003373ffffffffffffffffffffffffffffffffffffffff1673ffffffffffffffffffffffffffffffffffffffff16815260200190815260200160002060010180549050905090565b8060048190555050565b60006005548310156104d9576040517f08c379a00000000000000000000000000000000000000000000000000000000081526004016104d090611ef1565b60405180910390fd5b60001515600860003373ffffffffffffffffffffffffffffffffffffffff1673ffffffffffffffffffffffffffffffffffffffff16815260200190815260200160002060070160009054906101000a900460ff161515141561054e576003600081548092919061054890612145565b91905055505b6000600860003373ffffffffffffffffffffffffffffffffffffffff1673ffffffffffffffffffffffffffffffffffffffff16815260200190815260200160002060050154905083600860003373ffffffffffffffffffffffffffffffffffffffff1673ffffffffffffffffffffffffffffffffffffffff16815260200190815260200160002060000160008381526020019081526020016000206000018190555042600860003373ffffffffffffffffffffffffffffffffffffffff1673ffffffffffffffffffffffffffffffffffffffff168152602001908152602001600020600001600083815260200190815260200160002060020181905550600754426106599190611fe8565b600860003373ffffffffffffffffffffffffffffffffffffffff1673ffffffffffffffffffffffffffffffffffffffff16815260200190815260200160002060000160008381526020019081526020016000206001018190555080600860003373ffffffffffffffffffffffffffffffffffffffff1673ffffffffffffffffffffffffffffffffffffffff16815260200190815260200160002060000160008381526020019081526020016000206003018190555083600860003373ffffffffffffffffffffffffffffffffffffffff1673ffffffffffffffffffffffffffffffffffffffff16815260200190815260200160002060060160008282546107609190611fe8565b925050819055506001600860003373ffffffffffffffffffffffffffffffffffffffff1673ffffffffffffffffffffffffffffffffffffffff16815260200190815260200160002060070160006101000a81548160ff021916908315150217905550600860003373ffffffffffffffffffffffffffffffffffffffff1673ffffffffffffffffffffffffffffffffffffffff168152602001908152602001600020600501600081548092919061081590612145565b9190505550600073ffffffffffffffffffffffffffffffffffffffff168373ffffffffffffffffffffffffffffffffffffffff1614156108d6576000600860003373ffffffffffffffffffffffffffffffffffffffff1673ffffffffffffffffffffffffffffffffffffffff16815260200190815260200160002060020160006101000a81548173ffffffffffffffffffffffffffffffffffffffff021916908373ffffffffffffffffffffffffffffffffffffffff160217905550610a05565b82600860003373ffffffffffffffffffffffffffffffffffffffff1673ffffffffffffffffffffffffffffffffffffffff16815260200190815260200160002060020160006101000a81548173ffffffffffffffffffffffffffffffffffffffff021916908373ffffffffffffffffffffffffffffffffffffffff160217905550600860008473ffffffffffffffffffffffffffffffffffffffff1673ffffffffffffffffffffffffffffffffffffffff168152602001908152602001600020600101339080600181540180825580915050600190039060005260206000200160009091909190916101000a81548173ffffffffffffffffffffffffffffffffffffffff021916908373ffffffffffffffffffffffffffffffffffffffff160217905550610a04338561157f565b5b600191505092915050565b8060058190555050565b60606000600860003373ffffffffffffffffffffffffffffffffffffffff1673ffffffffffffffffffffffffffffffffffffffff16815260200190815260200160002060050154905060008060005b83811015610af2576000600860003373ffffffffffffffffffffffffffffffffffffffff1673ffffffffffffffffffffffffffffffffffffffff1681526020019081526020016000206000016000838152602001908152602001600020600001541115610adf578280610adb90612145565b9350505b8080610aea90612145565b915050610a69565b5060008267ffffffffffffffff811115610b0f57610b0e61221b565b5b604051908082528060200260200182016040528015610b4857816020015b610b3561196a565b815260200190600190039081610b2d5790505b50905060005b84811015610c7b576000600860003373ffffffffffffffffffffffffffffffffffffffff1673ffffffffffffffffffffffffffffffffffffffff1681526020019081526020016000206000016000838152602001908152602001600020600001541115610c6857600860003373ffffffffffffffffffffffffffffffffffffffff1673ffffffffffffffffffffffffffffffffffffffff1681526020019081526020016000206000016000828152602001908152602001600020604051806080016040529081600082015481526020016001820154815260200160028201548152602001600382015481525050828481518110610c4e57610c4d6121ec565b5b60200260200101819052508280610c6490612145565b9350505b8080610c7390612145565b915050610b4e565b508094505050505090565b600080600080600860003373ffffffffffffffffffffffffffffffffffffffff1673ffffffffffffffffffffffffffffffffffffffff16815260200190815260200160002060050154905060005b81811015610d7c57600860003373ffffffffffffffffffffffffffffffffffffffff1673ffffffffffffffffffffffffffffffffffffffff16815260200190815260200160002060000160008281526020019081526020016000206002015442610d3e91906120c9565b9250603c83610d4d919061203e565b92506000831115610d695760045483610d66919061206f565b93505b8080610d7490612145565b915050610cd4565b5082935050505090565b8060068190555050565b600080600860003373ffffffffffffffffffffffffffffffffffffffff1673ffffffffffffffffffffffffffffffffffffffff16815260200190815260200160002060000160008481526020019081526020016000206000015411610e2a576040517f08c379a0000000000000000000000000000000000000000000000000000000008152600401610e2190611e91565b60405180910390fd5b6000600860003373ffffffffffffffffffffffffffffffffffffffff1673ffffffffffffffffffffffffffffffffffffffff168152602001908152602001600020600001600084815260200190815260200160002060000154905042600860003373ffffffffffffffffffffffffffffffffffffffff1673ffffffffffffffffffffffffffffffffffffffff1681526020019081526020016000206000016000858152602001908152602001600020600101541115610ef357600281610ef0919061203e565b90505b600160009054906101000a900473ffffffffffffffffffffffffffffffffffffffff1673ffffffffffffffffffffffffffffffffffffffff1663a9059cbb33836040518363ffffffff1660e01b8152600401610f50929190611d94565b602060405180830381600087803b158015610f6a57600080fd5b505af1158015610f7e573d6000803e3d6000fd5b505050506040513d601f19601f82011682018060405250810190610fa291906119fe565b50600160009054906101000a900473ffffffffffffffffffffffffffffffffffffffff1673ffffffffffffffffffffffffffffffffffffffff1663a9059cbb60008054906101000a900473ffffffffffffffffffffffffffffffffffffffff16836040518363ffffffff1660e01b8152600401611020929190611d94565b602060405180830381600087803b15801561103a57600080fd5b505af115801561104e573d6000803e3d6000fd5b505050506040513d601f19601f8201168201806040525081019061107291906119fe565b506000600860003373ffffffffffffffffffffffffffffffffffffffff1673ffffffffffffffffffffffffffffffffffffffff16815260200190815260200160002060000160008581526020019081526020016000206000018190555080600860003373ffffffffffffffffffffffffffffffffffffffff1673ffffffffffffffffffffffffffffffffffffffff168152602001908152602001600020600601600082825461112191906120c9565b925050819055506001915050919050565b60008054906101000a900473ffffffffffffffffffffffffffffffffffffffff1681565b6000600860003373ffffffffffffffffffffffffffffffffffffffff1673ffffffffffffffffffffffffffffffffffffffff16815260200190815260200160002060060154905090565b60606000601467ffffffffffffffff8111156111bf576111be61221b565b5b6040519080825280602002602001820160405280156111ed5781602001602082028036833780820191505090505b50905060005b601481101561131b576000600860003373ffffffffffffffffffffffffffffffffffffffff1673ffffffffffffffffffffffffffffffffffffffff1681526020019081526020016000206003018281548110611252576112516121ec565b5b906000526020600020015411156112e657600860003373ffffffffffffffffffffffffffffffffffffffff1673ffffffffffffffffffffffffffffffffffffffff16815260200190815260200160002060030181815481106112b7576112b66121ec565b5b90600052602060002001548282815181106112d5576112d46121ec565b5b602002602001018181525050611308565b60008282815181106112fb576112fa6121ec565b5b6020026020010181815250505b808061131390612145565b9150506111f3565b508091505090565b60008061132e610c86565b905060008111611373576040517f08c379a000000000000000000000000000000000000000000000000000000000815260040161136a90611eb1565b60405180910390fd5b600160009054906101000a900473ffffffffffffffffffffffffffffffffffffffff1673ffffffffffffffffffffffffffffffffffffffff1663a9059cbb33836040518363ffffffff1660e01b81526004016113d0929190611d94565b602060405180830381600087803b1580156113ea57600080fd5b505af11580156113fe573d6000803e3d6000fd5b505050506040513d601f19601f8201168201806040525081019061142291906119fe565b50600191505090565b816006819055508260058190555080600481905550505050565b60086020528060005260406000206000915090508060020160009054906101000a900473ffffffffffffffffffffffffffffffffffffffff16908060040154908060050154908060060154908060070160009054906101000a900460ff16905085565b60008054906101000a900473ffffffffffffffffffffffffffffffffffffffff1673ffffffffffffffffffffffffffffffffffffffff163373ffffffffffffffffffffffffffffffffffffffff1614611536576040517f08c379a000000000000000000000000000000000000000000000000000000000815260040161152d90611ed1565b60405180910390fd5b806000806101000a81548173ffffffffffffffffffffffffffffffffffffffff021916908373ffffffffffffffffffffffffffffffffffffffff16021790555050565b60045481565b60008290506000600567ffffffffffffffff8111156115a1576115a061221b565b5b6040519080825280602002602001820160405280156115cf5781602001602082028036833780820191505090505b509050674563918244f40000816000815181106115ef576115ee6121ec565b5b6020026020010181815250506729a2241af62c000081600181518110611618576116176121ec565b5b602002602001018181525050671bc16d674ec8000081600281518110611641576116406121ec565b5b602002602001018181525050670de0b6b3a76400008160038151811061166a576116696121ec565b5b6020026020010181815250506706f05b59d3b2000081600481518110611693576116926121ec565b5b602002602001018181525050600080600090505b601481101561172d57600860003373ffffffffffffffffffffffffffffffffffffffff1673ffffffffffffffffffffffffffffffffffffffff16815260200190815260200160002060030160009080600181540180825580915050600190039060005260206000200160009091909190915055808061172590612145565b9150506116a7565b5060005b600a81101561196257600081141561174c5760009150611794565b600181141561175e5760019150611793565b60028114156117705760029150611792565b60028111156117825760039150611791565b600781111561179057600491505b5b5b5b5b600073ffffffffffffffffffffffffffffffffffffffff16600860008673ffffffffffffffffffffffffffffffffffffffff1673ffffffffffffffffffffffffffffffffffffffff16815260200190815260200160002060020160009054906101000a900473ffffffffffffffffffffffffffffffffffffffff1673ffffffffffffffffffffffffffffffffffffffff161461194a57600860008573ffffffffffffffffffffffffffffffffffffffff1673ffffffffffffffffffffffffffffffffffffffff16815260200190815260200160002060020160009054906101000a900473ffffffffffffffffffffffffffffffffffffffff16935060006064868585815181106118a7576118a66121ec565b5b60200260200101516118b9919061206f565b6118c3919061203e565b905080600860008773ffffffffffffffffffffffffffffffffffffffff1673ffffffffffffffffffffffffffffffffffffffff168152602001908152602001600020600301838154811061191a576119196121ec565b5b9060005260206000200160008282546119339190611fe8565b92505081905550620dbba06004819055505061194f565b611962565b808061195a90612145565b915050611731565b505050505050565b6040518060800160405280600081526020016000815260200160008152602001600081525090565b6000813590506119a181612365565b92915050565b6000815190506119b68161237c565b92915050565b6000813590506119cb81612393565b92915050565b6000602082840312156119e7576119e661224a565b5b60006119f584828501611992565b91505092915050565b600060208284031215611a1457611a1361224a565b5b6000611a22848285016119a7565b91505092915050565b600060208284031215611a4157611a4061224a565b5b6000611a4f848285016119bc565b91505092915050565b60008060408385031215611a6f57611a6e61224a565b5b6000611a7d858286016119bc565b9250506020611a8e85828601611992565b9150509250929050565b600080600060608486031215611ab157611ab061224a565b5b6000611abf868287016119bc565b9350506020611ad0868287016119bc565b9250506040611ae1868287016119bc565b9150509250925092565b6000611af78383611b33565b60208301905092915050565b6000611b0f8383611d06565b60808301905092915050565b6000611b278383611d5b565b60208301905092915050565b611b3c816120fd565b82525050565b611b4b816120fd565b82525050565b6000611b5c82611f5c565b611b668185611fa4565b9350611b7183611f2c565b8060005b83811015611ba2578151611b898882611aeb565b9750611b9483611f7d565b925050600181019050611b75565b5085935050505092915050565b6000611bba82611f67565b611bc48185611fb5565b9350611bcf83611f3c565b8060005b83811015611c00578151611be78882611b03565b9750611bf283611f8a565b925050600181019050611bd3565b5085935050505092915050565b6000611c1882611f72565b611c228185611fc6565b9350611c2d83611f4c565b8060005b83811015611c5e578151611c458882611b1b565b9750611c5083611f97565b925050600181019050611c31565b5085935050505092915050565b611c748161210f565b82525050565b6000611c87602583611fd7565b9150611c928261224f565b604082019050919050565b6000611caa602283611fd7565b9150611cb58261229e565b604082019050919050565b6000611ccd602183611fd7565b9150611cd8826122ed565b604082019050919050565b6000611cf0601f83611fd7565b9150611cfb8261233c565b602082019050919050565b608082016000820151611d1c6000850182611d5b565b506020820151611d2f6020850182611d5b565b506040820151611d426040850182611d5b565b506060820151611d556060850182611d5b565b50505050565b611d648161213b565b82525050565b611d738161213b565b82525050565b6000602082019050611d8e6000830184611b42565b92915050565b6000604082019050611da96000830185611b42565b611db66020830184611d6a565b9392505050565b600060a082019050611dd26000830188611b42565b611ddf6020830187611d6a565b611dec6040830186611d6a565b611df96060830185611d6a565b611e066080830184611c6b565b9695505050505050565b60006020820190508181036000830152611e2a8184611b51565b905092915050565b60006020820190508181036000830152611e4c8184611baf565b905092915050565b60006020820190508181036000830152611e6e8184611c0d565b905092915050565b6000602082019050611e8b6000830184611c6b565b92915050565b60006020820190508181036000830152611eaa81611c7a565b9050919050565b60006020820190508181036000830152611eca81611c9d565b9050919050565b60006020820190508181036000830152611eea81611cc0565b9050919050565b60006020820190508181036000830152611f0a81611ce3565b9050919050565b6000602082019050611f266000830184611d6a565b92915050565b6000819050602082019050919050565b6000819050602082019050919050565b6000819050602082019050919050565b600081519050919050565b600081519050919050565b600081519050919050565b6000602082019050919050565b6000602082019050919050565b6000602082019050919050565b600082825260208201905092915050565b600082825260208201905092915050565b600082825260208201905092915050565b600082825260208201905092915050565b6000611ff38261213b565b9150611ffe8361213b565b9250827fffffffffffffffffffffffffffffffffffffffffffffffffffffffffffffffff038211156120335761203261218e565b5b828201905092915050565b60006120498261213b565b91506120548361213b565b925082612064576120636121bd565b5b828204905092915050565b600061207a8261213b565b91506120858361213b565b9250817fffffffffffffffffffffffffffffffffffffffffffffffffffffffffffffffff04831182151516156120be576120bd61218e565b5b828202905092915050565b60006120d48261213b565b91506120df8361213b565b9250828210156120f2576120f161218e565b5b828203905092915050565b60006121088261211b565b9050919050565b60008115159050919050565b600073ffffffffffffffffffffffffffffffffffffffff82169050919050565b6000819050919050565b60006121508261213b565b91507fffffffffffffffffffffffffffffffffffffffffffffffffffffffffffffffff8214156121835761218261218e565b5b600182019050919050565b7f4e487b7100000000000000000000000000000000000000000000000000000000600052601160045260246000fd5b7f4e487b7100000000000000000000000000000000000000000000000000000000600052601260045260246000fd5b7f4e487b7100000000000000000000000000000000000000000000000000000000600052603260045260246000fd5b7f4e487b7100000000000000000000000000000000000000000000000000000000600052604160045260246000fd5b600080fd5b7f796f7520646f6e74206861766520696e766573746d656e7420746f207769746860008201527f647261776e000000000000000000000000000000000000000000000000000000602082015250565b7f796f7520646f6e742068617665207265776172647320746f207769746864726160008201527f776e000000000000000000000000000000000000000000000000000000000000602082015250565b7f6f6e6c79204f776e65722063616e2063616c6c20746869732066756e6374696f60008201527f6e00000000000000000000000000000000000000000000000000000000000000602082015250565b7f76616c7565206973206e6f742067726561746572207468616e20313030303000600082015250565b61236e816120fd565b811461237957600080fd5b50565b6123858161210f565b811461239057600080fd5b50565b61239c8161213b565b81146123a757600080fd5b5056fea2646970667358221220eb90871ee715aa0045037d2600cababcc6cb089f45ea381e98300e1b5b5d270b64736f6c63430008070033",
					"opcodes": "PUSH1 0x80 PUSH1 0x40 MSTORE PUSH20 0xD902364FE763A130C12457C9FB17E1603374C424 PUSH1 0x1 PUSH1 0x0 PUSH2 0x100 EXP DUP2 SLOAD DUP2 PUSH20 0xFFFFFFFFFFFFFFFFFFFFFFFFFFFFFFFFFFFFFFFF MUL NOT AND SWAP1 DUP4 PUSH20 0xFFFFFFFFFFFFFFFFFFFFFFFFFFFFFFFFFFFFFFFF AND MUL OR SWAP1 SSTORE POP PUSH20 0xB5047153AFCC59523F7F6D6F492F716A21B04681 PUSH1 0x2 PUSH1 0x0 PUSH2 0x100 EXP DUP2 SLOAD DUP2 PUSH20 0xFFFFFFFFFFFFFFFFFFFFFFFFFFFFFFFFFFFFFFFF MUL NOT AND SWAP1 DUP4 PUSH20 0xFFFFFFFFFFFFFFFFFFFFFFFFFFFFFFFFFFFFFFFF AND MUL OR SWAP1 SSTORE POP PUSH8 0x6F05B59D3B20000 PUSH1 0x4 SSTORE PUSH1 0xA PUSH1 0x5 SSTORE PUSH11 0x422CA8B0A00A425000000 PUSH1 0x6 SSTORE PUSH4 0x18B8200 PUSH1 0x7 SSTORE CALLVALUE DUP1 ISZERO PUSH2 0xE2 JUMPI PUSH1 0x0 DUP1 REVERT JUMPDEST POP CALLER PUSH1 0x0 DUP1 PUSH2 0x100 EXP DUP2 SLOAD DUP2 PUSH20 0xFFFFFFFFFFFFFFFFFFFFFFFFFFFFFFFFFFFFFFFF MUL NOT AND SWAP1 DUP4 PUSH20 0xFFFFFFFFFFFFFFFFFFFFFFFFFFFFFFFFFFFFFFFF AND MUL OR SWAP1 SSTORE POP PUSH2 0x23E0 DUP1 PUSH2 0x132 PUSH1 0x0 CODECOPY PUSH1 0x0 RETURN INVALID PUSH1 0x80 PUSH1 0x40 MSTORE CALLVALUE DUP1 ISZERO PUSH2 0x10 JUMPI PUSH1 0x0 DUP1 REVERT JUMPDEST POP PUSH1 0x4 CALLDATASIZE LT PUSH2 0x116 JUMPI PUSH1 0x0 CALLDATALOAD PUSH1 0xE0 SHR DUP1 PUSH4 0x5D3EEA91 GT PUSH2 0xA2 JUMPI DUP1 PUSH4 0xC885BC58 GT PUSH2 0x71 JUMPI DUP1 PUSH4 0xC885BC58 EQ PUSH2 0x2BF JUMPI DUP1 PUSH4 0xCE10DB0A EQ PUSH2 0x2DD JUMPI DUP1 PUSH4 0xD3560EE8 EQ PUSH2 0x2F9 JUMPI DUP1 PUSH4 0xF2FDE38B EQ PUSH2 0x32D JUMPI DUP1 PUSH4 0xF7C618C1 EQ PUSH2 0x349 JUMPI PUSH2 0x116 JUMP JUMPDEST DUP1 PUSH4 0x5D3EEA91 EQ PUSH2 0x235 JUMPI DUP1 PUSH4 0x8DA5CB5B EQ PUSH2 0x265 JUMPI DUP1 PUSH4 0x929F6BBE EQ PUSH2 0x283 JUMPI DUP1 PUSH4 0xA61BE99D EQ PUSH2 0x2A1 JUMPI PUSH2 0x116 JUMP JUMPDEST DUP1 PUSH4 0x2BCCDCE6 GT PUSH2 0xE9 JUMPI DUP1 PUSH4 0x2BCCDCE6 EQ PUSH2 0x191 JUMPI DUP1 PUSH4 0x32D4E783 EQ PUSH2 0x1C1 JUMPI DUP1 PUSH4 0x3A1E0833 EQ PUSH2 0x1DD JUMPI DUP1 PUSH4 0x3D18B912 EQ PUSH2 0x1FB JUMPI DUP1 PUSH4 0x500CB85F EQ PUSH2 0x219 JUMPI PUSH2 0x116 JUMP JUMPDEST DUP1 PUSH4 0xC5F58F4 EQ PUSH2 0x11B JUMPI DUP1 PUSH4 0x10CDE60A EQ PUSH2 0x139 JUMPI DUP1 PUSH4 0x1E8ABA35 EQ PUSH2 0x157 JUMPI DUP1 PUSH4 0x293BE456 EQ PUSH2 0x175 JUMPI JUMPDEST PUSH1 0x0 DUP1 REVERT JUMPDEST PUSH2 0x123 PUSH2 0x367 JUMP JUMPDEST PUSH1 0x40 MLOAD PUSH2 0x130 SWAP2 SWAP1 PUSH2 0x1E10 JUMP JUMPDEST PUSH1 0x40 MLOAD DUP1 SWAP2 SUB SWAP1 RETURN JUMPDEST PUSH2 0x141 PUSH2 0x435 JUMP JUMPDEST PUSH1 0x40 MLOAD PUSH2 0x14E SWAP2 SWAP1 PUSH2 0x1F11 JUMP JUMPDEST PUSH1 0x40 MLOAD DUP1 SWAP2 SUB SWAP1 RETURN JUMPDEST PUSH2 0x15F PUSH2 0x43B JUMP JUMPDEST PUSH1 0x40 MLOAD PUSH2 0x16C SWAP2 SWAP1 PUSH2 0x1F11 JUMP JUMPDEST PUSH1 0x40 MLOAD DUP1 SWAP2 SUB SWAP1 RETURN JUMPDEST PUSH2 0x18F PUSH1 0x4 DUP1 CALLDATASIZE SUB DUP2 ADD SWAP1 PUSH2 0x18A SWAP2 SWAP1 PUSH2 0x1A2B JUMP JUMPDEST PUSH2 0x488 JUMP JUMPDEST STOP JUMPDEST PUSH2 0x1AB PUSH1 0x4 DUP1 CALLDATASIZE SUB DUP2 ADD SWAP1 PUSH2 0x1A6 SWAP2 SWAP1 PUSH2 0x1A58 JUMP JUMPDEST PUSH2 0x492 JUMP JUMPDEST PUSH1 0x40 MLOAD PUSH2 0x1B8 SWAP2 SWAP1 PUSH2 0x1E76 JUMP JUMPDEST PUSH1 0x40 MLOAD DUP1 SWAP2 SUB SWAP1 RETURN JUMPDEST PUSH2 0x1DB PUSH1 0x4 DUP1 CALLDATASIZE SUB DUP2 ADD SWAP1 PUSH2 0x1D6 SWAP2 SWAP1 PUSH2 0x1A2B JUMP JUMPDEST PUSH2 0xA10 JUMP JUMPDEST STOP JUMPDEST PUSH2 0x1E5 PUSH2 0xA1A JUMP JUMPDEST PUSH1 0x40 MLOAD PUSH2 0x1F2 SWAP2 SWAP1 PUSH2 0x1E32 JUMP JUMPDEST PUSH1 0x40 MLOAD DUP1 SWAP2 SUB SWAP1 RETURN JUMPDEST PUSH2 0x203 PUSH2 0xC86 JUMP JUMPDEST PUSH1 0x40 MLOAD PUSH2 0x210 SWAP2 SWAP1 PUSH2 0x1F11 JUMP JUMPDEST PUSH1 0x40 MLOAD DUP1 SWAP2 SUB SWAP1 RETURN JUMPDEST PUSH2 0x233 PUSH1 0x4 DUP1 CALLDATASIZE SUB DUP2 ADD SWAP1 PUSH2 0x22E SWAP2 SWAP1 PUSH2 0x1A2B JUMP JUMPDEST PUSH2 0xD86 JUMP JUMPDEST STOP JUMPDEST PUSH2 0x24F PUSH1 0x4 DUP1 CALLDATASIZE SUB DUP2 ADD SWAP1 PUSH2 0x24A SWAP2 SWAP1 PUSH2 0x1A2B JUMP JUMPDEST PUSH2 0xD90 JUMP JUMPDEST PUSH1 0x40 MLOAD PUSH2 0x25C SWAP2 SWAP1 PUSH2 0x1E76 JUMP JUMPDEST PUSH1 0x40 MLOAD DUP1 SWAP2 SUB SWAP1 RETURN JUMPDEST PUSH2 0x26D PUSH2 0x1132 JUMP JUMPDEST PUSH1 0x40 MLOAD PUSH2 0x27A SWAP2 SWAP1 PUSH2 0x1D79 JUMP JUMPDEST PUSH1 0x40 MLOAD DUP1 SWAP2 SUB SWAP1 RETURN JUMPDEST PUSH2 0x28B PUSH2 0x1156 JUMP JUMPDEST PUSH1 0x40 MLOAD PUSH2 0x298 SWAP2 SWAP1 PUSH2 0x1F11 JUMP JUMPDEST PUSH1 0x40 MLOAD DUP1 SWAP2 SUB SWAP1 RETURN JUMPDEST PUSH2 0x2A9 PUSH2 0x11A0 JUMP JUMPDEST PUSH1 0x40 MLOAD PUSH2 0x2B6 SWAP2 SWAP1 PUSH2 0x1E54 JUMP JUMPDEST PUSH1 0x40 MLOAD DUP1 SWAP2 SUB SWAP1 RETURN JUMPDEST PUSH2 0x2C7 PUSH2 0x1323 JUMP JUMPDEST PUSH1 0x40 MLOAD PUSH2 0x2D4 SWAP2 SWAP1 PUSH2 0x1E76 JUMP JUMPDEST PUSH1 0x40 MLOAD DUP1 SWAP2 SUB SWAP1 RETURN JUMPDEST PUSH2 0x2F7 PUSH1 0x4 DUP1 CALLDATASIZE SUB DUP2 ADD SWAP1 PUSH2 0x2F2 SWAP2 SWAP1 PUSH2 0x1A98 JUMP JUMPDEST PUSH2 0x142B JUMP JUMPDEST STOP JUMPDEST PUSH2 0x313 PUSH1 0x4 DUP1 CALLDATASIZE SUB DUP2 ADD SWAP1 PUSH2 0x30E SWAP2 SWAP1 PUSH2 0x19D1 JUMP JUMPDEST PUSH2 0x1445 JUMP JUMPDEST PUSH1 0x40 MLOAD PUSH2 0x324 SWAP6 SWAP5 SWAP4 SWAP3 SWAP2 SWAP1 PUSH2 0x1DBD JUMP JUMPDEST PUSH1 0x40 MLOAD DUP1 SWAP2 SUB SWAP1 RETURN JUMPDEST PUSH2 0x347 PUSH1 0x4 DUP1 CALLDATASIZE SUB DUP2 ADD SWAP1 PUSH2 0x342 SWAP2 SWAP1 PUSH2 0x19D1 JUMP JUMPDEST PUSH2 0x14A8 JUMP JUMPDEST STOP JUMPDEST PUSH2 0x351 PUSH2 0x1579 JUMP JUMPDEST PUSH1 0x40 MLOAD PUSH2 0x35E SWAP2 SWAP1 PUSH2 0x1F11 JUMP JUMPDEST PUSH1 0x40 MLOAD DUP1 SWAP2 SUB SWAP1 RETURN JUMPDEST PUSH1 0x60 PUSH1 0x8 PUSH1 0x0 CALLER PUSH20 0xFFFFFFFFFFFFFFFFFFFFFFFFFFFFFFFFFFFFFFFF AND PUSH20 0xFFFFFFFFFFFFFFFFFFFFFFFFFFFFFFFFFFFFFFFF AND DUP2 MSTORE PUSH1 0x20 ADD SWAP1 DUP2 MSTORE PUSH1 0x20 ADD PUSH1 0x0 KECCAK256 PUSH1 0x1 ADD DUP1 SLOAD DUP1 PUSH1 0x20 MUL PUSH1 0x20 ADD PUSH1 0x40 MLOAD SWAP1 DUP2 ADD PUSH1 0x40 MSTORE DUP1 SWAP3 SWAP2 SWAP1 DUP2 DUP2 MSTORE PUSH1 0x20 ADD DUP3 DUP1 SLOAD DUP1 ISZERO PUSH2 0x42B JUMPI PUSH1 0x20 MUL DUP3 ADD SWAP2 SWAP1 PUSH1 0x0 MSTORE PUSH1 0x20 PUSH1 0x0 KECCAK256 SWAP1 JUMPDEST DUP2 PUSH1 0x0 SWAP1 SLOAD SWAP1 PUSH2 0x100 EXP SWAP1 DIV PUSH20 0xFFFFFFFFFFFFFFFFFFFFFFFFFFFFFFFFFFFFFFFF AND PUSH20 0xFFFFFFFFFFFFFFFFFFFFFFFFFFFFFFFFFFFFFFFF AND DUP2 MSTORE PUSH1 0x20 ADD SWAP1 PUSH1 0x1 ADD SWAP1 DUP1 DUP4 GT PUSH2 0x3E1 JUMPI JUMPDEST POP POP POP POP POP SWAP1 POP SWAP1 JUMP JUMPDEST PUSH1 0x3 SLOAD DUP2 JUMP JUMPDEST PUSH1 0x0 PUSH1 0x8 PUSH1 0x0 CALLER PUSH20 0xFFFFFFFFFFFFFFFFFFFFFFFFFFFFFFFFFFFFFFFF AND PUSH20 0xFFFFFFFFFFFFFFFFFFFFFFFFFFFFFFFFFFFFFFFF AND DUP2 MSTORE PUSH1 0x20 ADD SWAP1 DUP2 MSTORE PUSH1 0x20 ADD PUSH1 0x0 KECCAK256 PUSH1 0x1 ADD DUP1 SLOAD SWAP1 POP SWAP1 POP SWAP1 JUMP JUMPDEST DUP1 PUSH1 0x4 DUP2 SWAP1 SSTORE POP POP JUMP JUMPDEST PUSH1 0x0 PUSH1 0x5 SLOAD DUP4 LT ISZERO PUSH2 0x4D9 JUMPI PUSH1 0x40 MLOAD PUSH32 0x8C379A000000000000000000000000000000000000000000000000000000000 DUP2 MSTORE PUSH1 0x4 ADD PUSH2 0x4D0 SWAP1 PUSH2 0x1EF1 JUMP JUMPDEST PUSH1 0x40 MLOAD DUP1 SWAP2 SUB SWAP1 REVERT JUMPDEST PUSH1 0x0 ISZERO ISZERO PUSH1 0x8 PUSH1 0x0 CALLER PUSH20 0xFFFFFFFFFFFFFFFFFFFFFFFFFFFFFFFFFFFFFFFF AND PUSH20 0xFFFFFFFFFFFFFFFFFFFFFFFFFFFFFFFFFFFFFFFF AND DUP2 MSTORE PUSH1 0x20 ADD SWAP1 DUP2 MSTORE PUSH1 0x20 ADD PUSH1 0x0 KECCAK256 PUSH1 0x7 ADD PUSH1 0x0 SWAP1 SLOAD SWAP1 PUSH2 0x100 EXP SWAP1 DIV PUSH1 0xFF AND ISZERO ISZERO EQ ISZERO PUSH2 0x54E JUMPI PUSH1 0x3 PUSH1 0x0 DUP2 SLOAD DUP1 SWAP3 SWAP2 SWAP1 PUSH2 0x548 SWAP1 PUSH2 0x2145 JUMP JUMPDEST SWAP2 SWAP1 POP SSTORE POP JUMPDEST PUSH1 0x0 PUSH1 0x8 PUSH1 0x0 CALLER PUSH20 0xFFFFFFFFFFFFFFFFFFFFFFFFFFFFFFFFFFFFFFFF AND PUSH20 0xFFFFFFFFFFFFFFFFFFFFFFFFFFFFFFFFFFFFFFFF AND DUP2 MSTORE PUSH1 0x20 ADD SWAP1 DUP2 MSTORE PUSH1 0x20 ADD PUSH1 0x0 KECCAK256 PUSH1 0x5 ADD SLOAD SWAP1 POP DUP4 PUSH1 0x8 PUSH1 0x0 CALLER PUSH20 0xFFFFFFFFFFFFFFFFFFFFFFFFFFFFFFFFFFFFFFFF AND PUSH20 0xFFFFFFFFFFFFFFFFFFFFFFFFFFFFFFFFFFFFFFFF AND DUP2 MSTORE PUSH1 0x20 ADD SWAP1 DUP2 MSTORE PUSH1 0x20 ADD PUSH1 0x0 KECCAK256 PUSH1 0x0 ADD PUSH1 0x0 DUP4 DUP2 MSTORE PUSH1 0x20 ADD SWAP1 DUP2 MSTORE PUSH1 0x20 ADD PUSH1 0x0 KECCAK256 PUSH1 0x0 ADD DUP2 SWAP1 SSTORE POP TIMESTAMP PUSH1 0x8 PUSH1 0x0 CALLER PUSH20 0xFFFFFFFFFFFFFFFFFFFFFFFFFFFFFFFFFFFFFFFF AND PUSH20 0xFFFFFFFFFFFFFFFFFFFFFFFFFFFFFFFFFFFFFFFF AND DUP2 MSTORE PUSH1 0x20 ADD SWAP1 DUP2 MSTORE PUSH1 0x20 ADD PUSH1 0x0 KECCAK256 PUSH1 0x0 ADD PUSH1 0x0 DUP4 DUP2 MSTORE PUSH1 0x20 ADD SWAP1 DUP2 MSTORE PUSH1 0x20 ADD PUSH1 0x0 KECCAK256 PUSH1 0x2 ADD DUP2 SWAP1 SSTORE POP PUSH1 0x7 SLOAD TIMESTAMP PUSH2 0x659 SWAP2 SWAP1 PUSH2 0x1FE8 JUMP JUMPDEST PUSH1 0x8 PUSH1 0x0 CALLER PUSH20 0xFFFFFFFFFFFFFFFFFFFFFFFFFFFFFFFFFFFFFFFF AND PUSH20 0xFFFFFFFFFFFFFFFFFFFFFFFFFFFFFFFFFFFFFFFF AND DUP2 MSTORE PUSH1 0x20 ADD SWAP1 DUP2 MSTORE PUSH1 0x20 ADD PUSH1 0x0 KECCAK256 PUSH1 0x0 ADD PUSH1 0x0 DUP4 DUP2 MSTORE PUSH1 0x20 ADD SWAP1 DUP2 MSTORE PUSH1 0x20 ADD PUSH1 0x0 KECCAK256 PUSH1 0x1 ADD DUP2 SWAP1 SSTORE POP DUP1 PUSH1 0x8 PUSH1 0x0 CALLER PUSH20 0xFFFFFFFFFFFFFFFFFFFFFFFFFFFFFFFFFFFFFFFF AND PUSH20 0xFFFFFFFFFFFFFFFFFFFFFFFFFFFFFFFFFFFFFFFF AND DUP2 MSTORE PUSH1 0x20 ADD SWAP1 DUP2 MSTORE PUSH1 0x20 ADD PUSH1 0x0 KECCAK256 PUSH1 0x0 ADD PUSH1 0x0 DUP4 DUP2 MSTORE PUSH1 0x20 ADD SWAP1 DUP2 MSTORE PUSH1 0x20 ADD PUSH1 0x0 KECCAK256 PUSH1 0x3 ADD DUP2 SWAP1 SSTORE POP DUP4 PUSH1 0x8 PUSH1 0x0 CALLER PUSH20 0xFFFFFFFFFFFFFFFFFFFFFFFFFFFFFFFFFFFFFFFF AND PUSH20 0xFFFFFFFFFFFFFFFFFFFFFFFFFFFFFFFFFFFFFFFF AND DUP2 MSTORE PUSH1 0x20 ADD SWAP1 DUP2 MSTORE PUSH1 0x20 ADD PUSH1 0x0 KECCAK256 PUSH1 0x6 ADD PUSH1 0x0 DUP3 DUP3 SLOAD PUSH2 0x760 SWAP2 SWAP1 PUSH2 0x1FE8 JUMP JUMPDEST SWAP3 POP POP DUP2 SWAP1 SSTORE POP PUSH1 0x1 PUSH1 0x8 PUSH1 0x0 CALLER PUSH20 0xFFFFFFFFFFFFFFFFFFFFFFFFFFFFFFFFFFFFFFFF AND PUSH20 0xFFFFFFFFFFFFFFFFFFFFFFFFFFFFFFFFFFFFFFFF AND DUP2 MSTORE PUSH1 0x20 ADD SWAP1 DUP2 MSTORE PUSH1 0x20 ADD PUSH1 0x0 KECCAK256 PUSH1 0x7 ADD PUSH1 0x0 PUSH2 0x100 EXP DUP2 SLOAD DUP2 PUSH1 0xFF MUL NOT AND SWAP1 DUP4 ISZERO ISZERO MUL OR SWAP1 SSTORE POP PUSH1 0x8 PUSH1 0x0 CALLER PUSH20 0xFFFFFFFFFFFFFFFFFFFFFFFFFFFFFFFFFFFFFFFF AND PUSH20 0xFFFFFFFFFFFFFFFFFFFFFFFFFFFFFFFFFFFFFFFF AND DUP2 MSTORE PUSH1 0x20 ADD SWAP1 DUP2 MSTORE PUSH1 0x20 ADD PUSH1 0x0 KECCAK256 PUSH1 0x5 ADD PUSH1 0x0 DUP2 SLOAD DUP1 SWAP3 SWAP2 SWAP1 PUSH2 0x815 SWAP1 PUSH2 0x2145 JUMP JUMPDEST SWAP2 SWAP1 POP SSTORE POP PUSH1 0x0 PUSH20 0xFFFFFFFFFFFFFFFFFFFFFFFFFFFFFFFFFFFFFFFF AND DUP4 PUSH20 0xFFFFFFFFFFFFFFFFFFFFFFFFFFFFFFFFFFFFFFFF AND EQ ISZERO PUSH2 0x8D6 JUMPI PUSH1 0x0 PUSH1 0x8 PUSH1 0x0 CALLER PUSH20 0xFFFFFFFFFFFFFFFFFFFFFFFFFFFFFFFFFFFFFFFF AND PUSH20 0xFFFFFFFFFFFFFFFFFFFFFFFFFFFFFFFFFFFFFFFF AND DUP2 MSTORE PUSH1 0x20 ADD SWAP1 DUP2 MSTORE PUSH1 0x20 ADD PUSH1 0x0 KECCAK256 PUSH1 0x2 ADD PUSH1 0x0 PUSH2 0x100 EXP DUP2 SLOAD DUP2 PUSH20 0xFFFFFFFFFFFFFFFFFFFFFFFFFFFFFFFFFFFFFFFF MUL NOT AND SWAP1 DUP4 PUSH20 0xFFFFFFFFFFFFFFFFFFFFFFFFFFFFFFFFFFFFFFFF AND MUL OR SWAP1 SSTORE POP PUSH2 0xA05 JUMP JUMPDEST DUP3 PUSH1 0x8 PUSH1 0x0 CALLER PUSH20 0xFFFFFFFFFFFFFFFFFFFFFFFFFFFFFFFFFFFFFFFF AND PUSH20 0xFFFFFFFFFFFFFFFFFFFFFFFFFFFFFFFFFFFFFFFF AND DUP2 MSTORE PUSH1 0x20 ADD SWAP1 DUP2 MSTORE PUSH1 0x20 ADD PUSH1 0x0 KECCAK256 PUSH1 0x2 ADD PUSH1 0x0 PUSH2 0x100 EXP DUP2 SLOAD DUP2 PUSH20 0xFFFFFFFFFFFFFFFFFFFFFFFFFFFFFFFFFFFFFFFF MUL NOT AND SWAP1 DUP4 PUSH20 0xFFFFFFFFFFFFFFFFFFFFFFFFFFFFFFFFFFFFFFFF AND MUL OR SWAP1 SSTORE POP PUSH1 0x8 PUSH1 0x0 DUP5 PUSH20 0xFFFFFFFFFFFFFFFFFFFFFFFFFFFFFFFFFFFFFFFF AND PUSH20 0xFFFFFFFFFFFFFFFFFFFFFFFFFFFFFFFFFFFFFFFF AND DUP2 MSTORE PUSH1 0x20 ADD SWAP1 DUP2 MSTORE PUSH1 0x20 ADD PUSH1 0x0 KECCAK256 PUSH1 0x1 ADD CALLER SWAP1 DUP1 PUSH1 0x1 DUP2 SLOAD ADD DUP1 DUP3 SSTORE DUP1 SWAP2 POP POP PUSH1 0x1 SWAP1 SUB SWAP1 PUSH1 0x0 MSTORE PUSH1 0x20 PUSH1 0x0 KECCAK256 ADD PUSH1 0x0 SWAP1 SWAP2 SWAP1 SWAP2 SWAP1 SWAP2 PUSH2 0x100 EXP DUP2 SLOAD DUP2 PUSH20 0xFFFFFFFFFFFFFFFFFFFFFFFFFFFFFFFFFFFFFFFF MUL NOT AND SWAP1 DUP4 PUSH20 0xFFFFFFFFFFFFFFFFFFFFFFFFFFFFFFFFFFFFFFFF AND MUL OR SWAP1 SSTORE POP PUSH2 0xA04 CALLER DUP6 PUSH2 0x157F JUMP JUMPDEST JUMPDEST PUSH1 0x1 SWAP2 POP POP SWAP3 SWAP2 POP POP JUMP JUMPDEST DUP1 PUSH1 0x5 DUP2 SWAP1 SSTORE POP POP JUMP JUMPDEST PUSH1 0x60 PUSH1 0x0 PUSH1 0x8 PUSH1 0x0 CALLER PUSH20 0xFFFFFFFFFFFFFFFFFFFFFFFFFFFFFFFFFFFFFFFF AND PUSH20 0xFFFFFFFFFFFFFFFFFFFFFFFFFFFFFFFFFFFFFFFF AND DUP2 MSTORE PUSH1 0x20 ADD SWAP1 DUP2 MSTORE PUSH1 0x20 ADD PUSH1 0x0 KECCAK256 PUSH1 0x5 ADD SLOAD SWAP1 POP PUSH1 0x0 DUP1 PUSH1 0x0 JUMPDEST DUP4 DUP2 LT ISZERO PUSH2 0xAF2 JUMPI PUSH1 0x0 PUSH1 0x8 PUSH1 0x0 CALLER PUSH20 0xFFFFFFFFFFFFFFFFFFFFFFFFFFFFFFFFFFFFFFFF AND PUSH20 0xFFFFFFFFFFFFFFFFFFFFFFFFFFFFFFFFFFFFFFFF AND DUP2 MSTORE PUSH1 0x20 ADD SWAP1 DUP2 MSTORE PUSH1 0x20 ADD PUSH1 0x0 KECCAK256 PUSH1 0x0 ADD PUSH1 0x0 DUP4 DUP2 MSTORE PUSH1 0x20 ADD SWAP1 DUP2 MSTORE PUSH1 0x20 ADD PUSH1 0x0 KECCAK256 PUSH1 0x0 ADD SLOAD GT ISZERO PUSH2 0xADF JUMPI DUP3 DUP1 PUSH2 0xADB SWAP1 PUSH2 0x2145 JUMP JUMPDEST SWAP4 POP POP JUMPDEST DUP1 DUP1 PUSH2 0xAEA SWAP1 PUSH2 0x2145 JUMP JUMPDEST SWAP2 POP POP PUSH2 0xA69 JUMP JUMPDEST POP PUSH1 0x0 DUP3 PUSH8 0xFFFFFFFFFFFFFFFF DUP2 GT ISZERO PUSH2 0xB0F JUMPI PUSH2 0xB0E PUSH2 0x221B JUMP JUMPDEST JUMPDEST PUSH1 0x40 MLOAD SWAP1 DUP1 DUP3 MSTORE DUP1 PUSH1 0x20 MUL PUSH1 0x20 ADD DUP3 ADD PUSH1 0x40 MSTORE DUP1 ISZERO PUSH2 0xB48 JUMPI DUP2 PUSH1 0x20 ADD JUMPDEST PUSH2 0xB35 PUSH2 0x196A JUMP JUMPDEST DUP2 MSTORE PUSH1 0x20 ADD SWAP1 PUSH1 0x1 SWAP1 SUB SWAP1 DUP2 PUSH2 0xB2D JUMPI SWAP1 POP JUMPDEST POP SWAP1 POP PUSH1 0x0 JUMPDEST DUP5 DUP2 LT ISZERO PUSH2 0xC7B JUMPI PUSH1 0x0 PUSH1 0x8 PUSH1 0x0 CALLER PUSH20 0xFFFFFFFFFFFFFFFFFFFFFFFFFFFFFFFFFFFFFFFF AND PUSH20 0xFFFFFFFFFFFFFFFFFFFFFFFFFFFFFFFFFFFFFFFF AND DUP2 MSTORE PUSH1 0x20 ADD SWAP1 DUP2 MSTORE PUSH1 0x20 ADD PUSH1 0x0 KECCAK256 PUSH1 0x0 ADD PUSH1 0x0 DUP4 DUP2 MSTORE PUSH1 0x20 ADD SWAP1 DUP2 MSTORE PUSH1 0x20 ADD PUSH1 0x0 KECCAK256 PUSH1 0x0 ADD SLOAD GT ISZERO PUSH2 0xC68 JUMPI PUSH1 0x8 PUSH1 0x0 CALLER PUSH20 0xFFFFFFFFFFFFFFFFFFFFFFFFFFFFFFFFFFFFFFFF AND PUSH20 0xFFFFFFFFFFFFFFFFFFFFFFFFFFFFFFFFFFFFFFFF AND DUP2 MSTORE PUSH1 0x20 ADD SWAP1 DUP2 MSTORE PUSH1 0x20 ADD PUSH1 0x0 KECCAK256 PUSH1 0x0 ADD PUSH1 0x0 DUP3 DUP2 MSTORE PUSH1 0x20 ADD SWAP1 DUP2 MSTORE PUSH1 0x20 ADD PUSH1 0x0 KECCAK256 PUSH1 0x40 MLOAD DUP1 PUSH1 0x80 ADD PUSH1 0x40 MSTORE SWAP1 DUP2 PUSH1 0x0 DUP3 ADD SLOAD DUP2 MSTORE PUSH1 0x20 ADD PUSH1 0x1 DUP3 ADD SLOAD DUP2 MSTORE PUSH1 0x20 ADD PUSH1 0x2 DUP3 ADD SLOAD DUP2 MSTORE PUSH1 0x20 ADD PUSH1 0x3 DUP3 ADD SLOAD DUP2 MSTORE POP POP DUP3 DUP5 DUP2 MLOAD DUP2 LT PUSH2 0xC4E JUMPI PUSH2 0xC4D PUSH2 0x21EC JUMP JUMPDEST JUMPDEST PUSH1 0x20 MUL PUSH1 0x20 ADD ADD DUP2 SWAP1 MSTORE POP DUP3 DUP1 PUSH2 0xC64 SWAP1 PUSH2 0x2145 JUMP JUMPDEST SWAP4 POP POP JUMPDEST DUP1 DUP1 PUSH2 0xC73 SWAP1 PUSH2 0x2145 JUMP JUMPDEST SWAP2 POP POP PUSH2 0xB4E JUMP JUMPDEST POP DUP1 SWAP5 POP POP POP POP POP SWAP1 JUMP JUMPDEST PUSH1 0x0 DUP1 PUSH1 0x0 DUP1 PUSH1 0x8 PUSH1 0x0 CALLER PUSH20 0xFFFFFFFFFFFFFFFFFFFFFFFFFFFFFFFFFFFFFFFF AND PUSH20 0xFFFFFFFFFFFFFFFFFFFFFFFFFFFFFFFFFFFFFFFF AND DUP2 MSTORE PUSH1 0x20 ADD SWAP1 DUP2 MSTORE PUSH1 0x20 ADD PUSH1 0x0 KECCAK256 PUSH1 0x5 ADD SLOAD SWAP1 POP PUSH1 0x0 JUMPDEST DUP2 DUP2 LT ISZERO PUSH2 0xD7C JUMPI PUSH1 0x8 PUSH1 0x0 CALLER PUSH20 0xFFFFFFFFFFFFFFFFFFFFFFFFFFFFFFFFFFFFFFFF AND PUSH20 0xFFFFFFFFFFFFFFFFFFFFFFFFFFFFFFFFFFFFFFFF AND DUP2 MSTORE PUSH1 0x20 ADD SWAP1 DUP2 MSTORE PUSH1 0x20 ADD PUSH1 0x0 KECCAK256 PUSH1 0x0 ADD PUSH1 0x0 DUP3 DUP2 MSTORE PUSH1 0x20 ADD SWAP1 DUP2 MSTORE PUSH1 0x20 ADD PUSH1 0x0 KECCAK256 PUSH1 0x2 ADD SLOAD TIMESTAMP PUSH2 0xD3E SWAP2 SWAP1 PUSH2 0x20C9 JUMP JUMPDEST SWAP3 POP PUSH1 0x3C DUP4 PUSH2 0xD4D SWAP2 SWAP1 PUSH2 0x203E JUMP JUMPDEST SWAP3 POP PUSH1 0x0 DUP4 GT ISZERO PUSH2 0xD69 JUMPI PUSH1 0x4 SLOAD DUP4 PUSH2 0xD66 SWAP2 SWAP1 PUSH2 0x206F JUMP JUMPDEST SWAP4 POP JUMPDEST DUP1 DUP1 PUSH2 0xD74 SWAP1 PUSH2 0x2145 JUMP JUMPDEST SWAP2 POP POP PUSH2 0xCD4 JUMP JUMPDEST POP DUP3 SWAP4 POP POP POP POP SWAP1 JUMP JUMPDEST DUP1 PUSH1 0x6 DUP2 SWAP1 SSTORE POP POP JUMP JUMPDEST PUSH1 0x0 DUP1 PUSH1 0x8 PUSH1 0x0 CALLER PUSH20 0xFFFFFFFFFFFFFFFFFFFFFFFFFFFFFFFFFFFFFFFF AND PUSH20 0xFFFFFFFFFFFFFFFFFFFFFFFFFFFFFFFFFFFFFFFF AND DUP2 MSTORE PUSH1 0x20 ADD SWAP1 DUP2 MSTORE PUSH1 0x20 ADD PUSH1 0x0 KECCAK256 PUSH1 0x0 ADD PUSH1 0x0 DUP5 DUP2 MSTORE PUSH1 0x20 ADD SWAP1 DUP2 MSTORE PUSH1 0x20 ADD PUSH1 0x0 KECCAK256 PUSH1 0x0 ADD SLOAD GT PUSH2 0xE2A JUMPI PUSH1 0x40 MLOAD PUSH32 0x8C379A000000000000000000000000000000000000000000000000000000000 DUP2 MSTORE PUSH1 0x4 ADD PUSH2 0xE21 SWAP1 PUSH2 0x1E91 JUMP JUMPDEST PUSH1 0x40 MLOAD DUP1 SWAP2 SUB SWAP1 REVERT JUMPDEST PUSH1 0x0 PUSH1 0x8 PUSH1 0x0 CALLER PUSH20 0xFFFFFFFFFFFFFFFFFFFFFFFFFFFFFFFFFFFFFFFF AND PUSH20 0xFFFFFFFFFFFFFFFFFFFFFFFFFFFFFFFFFFFFFFFF AND DUP2 MSTORE PUSH1 0x20 ADD SWAP1 DUP2 MSTORE PUSH1 0x20 ADD PUSH1 0x0 KECCAK256 PUSH1 0x0 ADD PUSH1 0x0 DUP5 DUP2 MSTORE PUSH1 0x20 ADD SWAP1 DUP2 MSTORE PUSH1 0x20 ADD PUSH1 0x0 KECCAK256 PUSH1 0x0 ADD SLOAD SWAP1 POP TIMESTAMP PUSH1 0x8 PUSH1 0x0 CALLER PUSH20 0xFFFFFFFFFFFFFFFFFFFFFFFFFFFFFFFFFFFFFFFF AND PUSH20 0xFFFFFFFFFFFFFFFFFFFFFFFFFFFFFFFFFFFFFFFF AND DUP2 MSTORE PUSH1 0x20 ADD SWAP1 DUP2 MSTORE PUSH1 0x20 ADD PUSH1 0x0 KECCAK256 PUSH1 0x0 ADD PUSH1 0x0 DUP6 DUP2 MSTORE PUSH1 0x20 ADD SWAP1 DUP2 MSTORE PUSH1 0x20 ADD PUSH1 0x0 KECCAK256 PUSH1 0x1 ADD SLOAD GT ISZERO PUSH2 0xEF3 JUMPI PUSH1 0x2 DUP2 PUSH2 0xEF0 SWAP2 SWAP1 PUSH2 0x203E JUMP JUMPDEST SWAP1 POP JUMPDEST PUSH1 0x1 PUSH1 0x0 SWAP1 SLOAD SWAP1 PUSH2 0x100 EXP SWAP1 DIV PUSH20 0xFFFFFFFFFFFFFFFFFFFFFFFFFFFFFFFFFFFFFFFF AND PUSH20 0xFFFFFFFFFFFFFFFFFFFFFFFFFFFFFFFFFFFFFFFF AND PUSH4 0xA9059CBB CALLER DUP4 PUSH1 0x40 MLOAD DUP4 PUSH4 0xFFFFFFFF AND PUSH1 0xE0 SHL DUP2 MSTORE PUSH1 0x4 ADD PUSH2 0xF50 SWAP3 SWAP2 SWAP1 PUSH2 0x1D94 JUMP JUMPDEST PUSH1 0x20 PUSH1 0x40 MLOAD DUP1 DUP4 SUB DUP2 PUSH1 0x0 DUP8 DUP1 EXTCODESIZE ISZERO DUP1 ISZERO PUSH2 0xF6A JUMPI PUSH1 0x0 DUP1 REVERT JUMPDEST POP GAS CALL ISZERO DUP1 ISZERO PUSH2 0xF7E JUMPI RETURNDATASIZE PUSH1 0x0 DUP1 RETURNDATACOPY RETURNDATASIZE PUSH1 0x0 REVERT JUMPDEST POP POP POP POP PUSH1 0x40 MLOAD RETURNDATASIZE PUSH1 0x1F NOT PUSH1 0x1F DUP3 ADD AND DUP3 ADD DUP1 PUSH1 0x40 MSTORE POP DUP2 ADD SWAP1 PUSH2 0xFA2 SWAP2 SWAP1 PUSH2 0x19FE JUMP JUMPDEST POP PUSH1 0x1 PUSH1 0x0 SWAP1 SLOAD SWAP1 PUSH2 0x100 EXP SWAP1 DIV PUSH20 0xFFFFFFFFFFFFFFFFFFFFFFFFFFFFFFFFFFFFFFFF AND PUSH20 0xFFFFFFFFFFFFFFFFFFFFFFFFFFFFFFFFFFFFFFFF AND PUSH4 0xA9059CBB PUSH1 0x0 DUP1 SLOAD SWAP1 PUSH2 0x100 EXP SWAP1 DIV PUSH20 0xFFFFFFFFFFFFFFFFFFFFFFFFFFFFFFFFFFFFFFFF AND DUP4 PUSH1 0x40 MLOAD DUP4 PUSH4 0xFFFFFFFF AND PUSH1 0xE0 SHL DUP2 MSTORE PUSH1 0x4 ADD PUSH2 0x1020 SWAP3 SWAP2 SWAP1 PUSH2 0x1D94 JUMP JUMPDEST PUSH1 0x20 PUSH1 0x40 MLOAD DUP1 DUP4 SUB DUP2 PUSH1 0x0 DUP8 DUP1 EXTCODESIZE ISZERO DUP1 ISZERO PUSH2 0x103A JUMPI PUSH1 0x0 DUP1 REVERT JUMPDEST POP GAS CALL ISZERO DUP1 ISZERO PUSH2 0x104E JUMPI RETURNDATASIZE PUSH1 0x0 DUP1 RETURNDATACOPY RETURNDATASIZE PUSH1 0x0 REVERT JUMPDEST POP POP POP POP PUSH1 0x40 MLOAD RETURNDATASIZE PUSH1 0x1F NOT PUSH1 0x1F DUP3 ADD AND DUP3 ADD DUP1 PUSH1 0x40 MSTORE POP DUP2 ADD SWAP1 PUSH2 0x1072 SWAP2 SWAP1 PUSH2 0x19FE JUMP JUMPDEST POP PUSH1 0x0 PUSH1 0x8 PUSH1 0x0 CALLER PUSH20 0xFFFFFFFFFFFFFFFFFFFFFFFFFFFFFFFFFFFFFFFF AND PUSH20 0xFFFFFFFFFFFFFFFFFFFFFFFFFFFFFFFFFFFFFFFF AND DUP2 MSTORE PUSH1 0x20 ADD SWAP1 DUP2 MSTORE PUSH1 0x20 ADD PUSH1 0x0 KECCAK256 PUSH1 0x0 ADD PUSH1 0x0 DUP6 DUP2 MSTORE PUSH1 0x20 ADD SWAP1 DUP2 MSTORE PUSH1 0x20 ADD PUSH1 0x0 KECCAK256 PUSH1 0x0 ADD DUP2 SWAP1 SSTORE POP DUP1 PUSH1 0x8 PUSH1 0x0 CALLER PUSH20 0xFFFFFFFFFFFFFFFFFFFFFFFFFFFFFFFFFFFFFFFF AND PUSH20 0xFFFFFFFFFFFFFFFFFFFFFFFFFFFFFFFFFFFFFFFF AND DUP2 MSTORE PUSH1 0x20 ADD SWAP1 DUP2 MSTORE PUSH1 0x20 ADD PUSH1 0x0 KECCAK256 PUSH1 0x6 ADD PUSH1 0x0 DUP3 DUP3 SLOAD PUSH2 0x1121 SWAP2 SWAP1 PUSH2 0x20C9 JUMP JUMPDEST SWAP3 POP POP DUP2 SWAP1 SSTORE POP PUSH1 0x1 SWAP2 POP POP SWAP2 SWAP1 POP JUMP JUMPDEST PUSH1 0x0 DUP1 SLOAD SWAP1 PUSH2 0x100 EXP SWAP1 DIV PUSH20 0xFFFFFFFFFFFFFFFFFFFFFFFFFFFFFFFFFFFFFFFF AND DUP2 JUMP JUMPDEST PUSH1 0x0 PUSH1 0x8 PUSH1 0x0 CALLER PUSH20 0xFFFFFFFFFFFFFFFFFFFFFFFFFFFFFFFFFFFFFFFF AND PUSH20 0xFFFFFFFFFFFFFFFFFFFFFFFFFFFFFFFFFFFFFFFF AND DUP2 MSTORE PUSH1 0x20 ADD SWAP1 DUP2 MSTORE PUSH1 0x20 ADD PUSH1 0x0 KECCAK256 PUSH1 0x6 ADD SLOAD SWAP1 POP SWAP1 JUMP JUMPDEST PUSH1 0x60 PUSH1 0x0 PUSH1 0x14 PUSH8 0xFFFFFFFFFFFFFFFF DUP2 GT ISZERO PUSH2 0x11BF JUMPI PUSH2 0x11BE PUSH2 0x221B JUMP JUMPDEST JUMPDEST PUSH1 0x40 MLOAD SWAP1 DUP1 DUP3 MSTORE DUP1 PUSH1 0x20 MUL PUSH1 0x20 ADD DUP3 ADD PUSH1 0x40 MSTORE DUP1 ISZERO PUSH2 0x11ED JUMPI DUP2 PUSH1 0x20 ADD PUSH1 0x20 DUP3 MUL DUP1 CALLDATASIZE DUP4 CALLDATACOPY DUP1 DUP3 ADD SWAP2 POP POP SWAP1 POP JUMPDEST POP SWAP1 POP PUSH1 0x0 JUMPDEST PUSH1 0x14 DUP2 LT ISZERO PUSH2 0x131B JUMPI PUSH1 0x0 PUSH1 0x8 PUSH1 0x0 CALLER PUSH20 0xFFFFFFFFFFFFFFFFFFFFFFFFFFFFFFFFFFFFFFFF AND PUSH20 0xFFFFFFFFFFFFFFFFFFFFFFFFFFFFFFFFFFFFFFFF AND DUP2 MSTORE PUSH1 0x20 ADD SWAP1 DUP2 MSTORE PUSH1 0x20 ADD PUSH1 0x0 KECCAK256 PUSH1 0x3 ADD DUP3 DUP2 SLOAD DUP2 LT PUSH2 0x1252 JUMPI PUSH2 0x1251 PUSH2 0x21EC JUMP JUMPDEST JUMPDEST SWAP1 PUSH1 0x0 MSTORE PUSH1 0x20 PUSH1 0x0 KECCAK256 ADD SLOAD GT ISZERO PUSH2 0x12E6 JUMPI PUSH1 0x8 PUSH1 0x0 CALLER PUSH20 0xFFFFFFFFFFFFFFFFFFFFFFFFFFFFFFFFFFFFFFFF AND PUSH20 0xFFFFFFFFFFFFFFFFFFFFFFFFFFFFFFFFFFFFFFFF AND DUP2 MSTORE PUSH1 0x20 ADD SWAP1 DUP2 MSTORE PUSH1 0x20 ADD PUSH1 0x0 KECCAK256 PUSH1 0x3 ADD DUP2 DUP2 SLOAD DUP2 LT PUSH2 0x12B7 JUMPI PUSH2 0x12B6 PUSH2 0x21EC JUMP JUMPDEST JUMPDEST SWAP1 PUSH1 0x0 MSTORE PUSH1 0x20 PUSH1 0x0 KECCAK256 ADD SLOAD DUP3 DUP3 DUP2 MLOAD DUP2 LT PUSH2 0x12D5 JUMPI PUSH2 0x12D4 PUSH2 0x21EC JUMP JUMPDEST JUMPDEST PUSH1 0x20 MUL PUSH1 0x20 ADD ADD DUP2 DUP2 MSTORE POP POP PUSH2 0x1308 JUMP JUMPDEST PUSH1 0x0 DUP3 DUP3 DUP2 MLOAD DUP2 LT PUSH2 0x12FB JUMPI PUSH2 0x12FA PUSH2 0x21EC JUMP JUMPDEST JUMPDEST PUSH1 0x20 MUL PUSH1 0x20 ADD ADD DUP2 DUP2 MSTORE POP POP JUMPDEST DUP1 DUP1 PUSH2 0x1313 SWAP1 PUSH2 0x2145 JUMP JUMPDEST SWAP2 POP POP PUSH2 0x11F3 JUMP JUMPDEST POP DUP1 SWAP2 POP POP SWAP1 JUMP JUMPDEST PUSH1 0x0 DUP1 PUSH2 0x132E PUSH2 0xC86 JUMP JUMPDEST SWAP1 POP PUSH1 0x0 DUP2 GT PUSH2 0x1373 JUMPI PUSH1 0x40 MLOAD PUSH32 0x8C379A000000000000000000000000000000000000000000000000000000000 DUP2 MSTORE PUSH1 0x4 ADD PUSH2 0x136A SWAP1 PUSH2 0x1EB1 JUMP JUMPDEST PUSH1 0x40 MLOAD DUP1 SWAP2 SUB SWAP1 REVERT JUMPDEST PUSH1 0x1 PUSH1 0x0 SWAP1 SLOAD SWAP1 PUSH2 0x100 EXP SWAP1 DIV PUSH20 0xFFFFFFFFFFFFFFFFFFFFFFFFFFFFFFFFFFFFFFFF AND PUSH20 0xFFFFFFFFFFFFFFFFFFFFFFFFFFFFFFFFFFFFFFFF AND PUSH4 0xA9059CBB CALLER DUP4 PUSH1 0x40 MLOAD DUP4 PUSH4 0xFFFFFFFF AND PUSH1 0xE0 SHL DUP2 MSTORE PUSH1 0x4 ADD PUSH2 0x13D0 SWAP3 SWAP2 SWAP1 PUSH2 0x1D94 JUMP JUMPDEST PUSH1 0x20 PUSH1 0x40 MLOAD DUP1 DUP4 SUB DUP2 PUSH1 0x0 DUP8 DUP1 EXTCODESIZE ISZERO DUP1 ISZERO PUSH2 0x13EA JUMPI PUSH1 0x0 DUP1 REVERT JUMPDEST POP GAS CALL ISZERO DUP1 ISZERO PUSH2 0x13FE JUMPI RETURNDATASIZE PUSH1 0x0 DUP1 RETURNDATACOPY RETURNDATASIZE PUSH1 0x0 REVERT JUMPDEST POP POP POP POP PUSH1 0x40 MLOAD RETURNDATASIZE PUSH1 0x1F NOT PUSH1 0x1F DUP3 ADD AND DUP3 ADD DUP1 PUSH1 0x40 MSTORE POP DUP2 ADD SWAP1 PUSH2 0x1422 SWAP2 SWAP1 PUSH2 0x19FE JUMP JUMPDEST POP PUSH1 0x1 SWAP2 POP POP SWAP1 JUMP JUMPDEST DUP2 PUSH1 0x6 DUP2 SWAP1 SSTORE POP DUP3 PUSH1 0x5 DUP2 SWAP1 SSTORE POP DUP1 PUSH1 0x4 DUP2 SWAP1 SSTORE POP POP POP POP JUMP JUMPDEST PUSH1 0x8 PUSH1 0x20 MSTORE DUP1 PUSH1 0x0 MSTORE PUSH1 0x40 PUSH1 0x0 KECCAK256 PUSH1 0x0 SWAP2 POP SWAP1 POP DUP1 PUSH1 0x2 ADD PUSH1 0x0 SWAP1 SLOAD SWAP1 PUSH2 0x100 EXP SWAP1 DIV PUSH20 0xFFFFFFFFFFFFFFFFFFFFFFFFFFFFFFFFFFFFFFFF AND SWAP1 DUP1 PUSH1 0x4 ADD SLOAD SWAP1 DUP1 PUSH1 0x5 ADD SLOAD SWAP1 DUP1 PUSH1 0x6 ADD SLOAD SWAP1 DUP1 PUSH1 0x7 ADD PUSH1 0x0 SWAP1 SLOAD SWAP1 PUSH2 0x100 EXP SWAP1 DIV PUSH1 0xFF AND SWAP1 POP DUP6 JUMP JUMPDEST PUSH1 0x0 DUP1 SLOAD SWAP1 PUSH2 0x100 EXP SWAP1 DIV PUSH20 0xFFFFFFFFFFFFFFFFFFFFFFFFFFFFFFFFFFFFFFFF AND PUSH20 0xFFFFFFFFFFFFFFFFFFFFFFFFFFFFFFFFFFFFFFFF AND CALLER PUSH20 0xFFFFFFFFFFFFFFFFFFFFFFFFFFFFFFFFFFFFFFFF AND EQ PUSH2 0x1536 JUMPI PUSH1 0x40 MLOAD PUSH32 0x8C379A000000000000000000000000000000000000000000000000000000000 DUP2 MSTORE PUSH1 0x4 ADD PUSH2 0x152D SWAP1 PUSH2 0x1ED1 JUMP JUMPDEST PUSH1 0x40 MLOAD DUP1 SWAP2 SUB SWAP1 REVERT JUMPDEST DUP1 PUSH1 0x0 DUP1 PUSH2 0x100 EXP DUP2 SLOAD DUP2 PUSH20 0xFFFFFFFFFFFFFFFFFFFFFFFFFFFFFFFFFFFFFFFF MUL NOT AND SWAP1 DUP4 PUSH20 0xFFFFFFFFFFFFFFFFFFFFFFFFFFFFFFFFFFFFFFFF AND MUL OR SWAP1 SSTORE POP POP JUMP JUMPDEST PUSH1 0x4 SLOAD DUP2 JUMP JUMPDEST PUSH1 0x0 DUP3 SWAP1 POP PUSH1 0x0 PUSH1 0x5 PUSH8 0xFFFFFFFFFFFFFFFF DUP2 GT ISZERO PUSH2 0x15A1 JUMPI PUSH2 0x15A0 PUSH2 0x221B JUMP JUMPDEST JUMPDEST PUSH1 0x40 MLOAD SWAP1 DUP1 DUP3 MSTORE DUP1 PUSH1 0x20 MUL PUSH1 0x20 ADD DUP3 ADD PUSH1 0x40 MSTORE DUP1 ISZERO PUSH2 0x15CF JUMPI DUP2 PUSH1 0x20 ADD PUSH1 0x20 DUP3 MUL DUP1 CALLDATASIZE DUP4 CALLDATACOPY DUP1 DUP3 ADD SWAP2 POP POP SWAP1 POP JUMPDEST POP SWAP1 POP PUSH8 0x4563918244F40000 DUP2 PUSH1 0x0 DUP2 MLOAD DUP2 LT PUSH2 0x15EF JUMPI PUSH2 0x15EE PUSH2 0x21EC JUMP JUMPDEST JUMPDEST PUSH1 0x20 MUL PUSH1 0x20 ADD ADD DUP2 DUP2 MSTORE POP POP PUSH8 0x29A2241AF62C0000 DUP2 PUSH1 0x1 DUP2 MLOAD DUP2 LT PUSH2 0x1618 JUMPI PUSH2 0x1617 PUSH2 0x21EC JUMP JUMPDEST JUMPDEST PUSH1 0x20 MUL PUSH1 0x20 ADD ADD DUP2 DUP2 MSTORE POP POP PUSH8 0x1BC16D674EC80000 DUP2 PUSH1 0x2 DUP2 MLOAD DUP2 LT PUSH2 0x1641 JUMPI PUSH2 0x1640 PUSH2 0x21EC JUMP JUMPDEST JUMPDEST PUSH1 0x20 MUL PUSH1 0x20 ADD ADD DUP2 DUP2 MSTORE POP POP PUSH8 0xDE0B6B3A7640000 DUP2 PUSH1 0x3 DUP2 MLOAD DUP2 LT PUSH2 0x166A JUMPI PUSH2 0x1669 PUSH2 0x21EC JUMP JUMPDEST JUMPDEST PUSH1 0x20 MUL PUSH1 0x20 ADD ADD DUP2 DUP2 MSTORE POP POP PUSH8 0x6F05B59D3B20000 DUP2 PUSH1 0x4 DUP2 MLOAD DUP2 LT PUSH2 0x1693 JUMPI PUSH2 0x1692 PUSH2 0x21EC JUMP JUMPDEST JUMPDEST PUSH1 0x20 MUL PUSH1 0x20 ADD ADD DUP2 DUP2 MSTORE POP POP PUSH1 0x0 DUP1 PUSH1 0x0 SWAP1 POP JUMPDEST PUSH1 0x14 DUP2 LT ISZERO PUSH2 0x172D JUMPI PUSH1 0x8 PUSH1 0x0 CALLER PUSH20 0xFFFFFFFFFFFFFFFFFFFFFFFFFFFFFFFFFFFFFFFF AND PUSH20 0xFFFFFFFFFFFFFFFFFFFFFFFFFFFFFFFFFFFFFFFF AND DUP2 MSTORE PUSH1 0x20 ADD SWAP1 DUP2 MSTORE PUSH1 0x20 ADD PUSH1 0x0 KECCAK256 PUSH1 0x3 ADD PUSH1 0x0 SWAP1 DUP1 PUSH1 0x1 DUP2 SLOAD ADD DUP1 DUP3 SSTORE DUP1 SWAP2 POP POP PUSH1 0x1 SWAP1 SUB SWAP1 PUSH1 0x0 MSTORE PUSH1 0x20 PUSH1 0x0 KECCAK256 ADD PUSH1 0x0 SWAP1 SWAP2 SWAP1 SWAP2 SWAP1 SWAP2 POP SSTORE DUP1 DUP1 PUSH2 0x1725 SWAP1 PUSH2 0x2145 JUMP JUMPDEST SWAP2 POP POP PUSH2 0x16A7 JUMP JUMPDEST POP PUSH1 0x0 JUMPDEST PUSH1 0xA DUP2 LT ISZERO PUSH2 0x1962 JUMPI PUSH1 0x0 DUP2 EQ ISZERO PUSH2 0x174C JUMPI PUSH1 0x0 SWAP2 POP PUSH2 0x1794 JUMP JUMPDEST PUSH1 0x1 DUP2 EQ ISZERO PUSH2 0x175E JUMPI PUSH1 0x1 SWAP2 POP PUSH2 0x1793 JUMP JUMPDEST PUSH1 0x2 DUP2 EQ ISZERO PUSH2 0x1770 JUMPI PUSH1 0x2 SWAP2 POP PUSH2 0x1792 JUMP JUMPDEST PUSH1 0x2 DUP2 GT ISZERO PUSH2 0x1782 JUMPI PUSH1 0x3 SWAP2 POP PUSH2 0x1791 JUMP JUMPDEST PUSH1 0x7 DUP2 GT ISZERO PUSH2 0x1790 JUMPI PUSH1 0x4 SWAP2 POP JUMPDEST JUMPDEST JUMPDEST JUMPDEST JUMPDEST PUSH1 0x0 PUSH20 0xFFFFFFFFFFFFFFFFFFFFFFFFFFFFFFFFFFFFFFFF AND PUSH1 0x8 PUSH1 0x0 DUP7 PUSH20 0xFFFFFFFFFFFFFFFFFFFFFFFFFFFFFFFFFFFFFFFF AND PUSH20 0xFFFFFFFFFFFFFFFFFFFFFFFFFFFFFFFFFFFFFFFF AND DUP2 MSTORE PUSH1 0x20 ADD SWAP1 DUP2 MSTORE PUSH1 0x20 ADD PUSH1 0x0 KECCAK256 PUSH1 0x2 ADD PUSH1 0x0 SWAP1 SLOAD SWAP1 PUSH2 0x100 EXP SWAP1 DIV PUSH20 0xFFFFFFFFFFFFFFFFFFFFFFFFFFFFFFFFFFFFFFFF AND PUSH20 0xFFFFFFFFFFFFFFFFFFFFFFFFFFFFFFFFFFFFFFFF AND EQ PUSH2 0x194A JUMPI PUSH1 0x8 PUSH1 0x0 DUP6 PUSH20 0xFFFFFFFFFFFFFFFFFFFFFFFFFFFFFFFFFFFFFFFF AND PUSH20 0xFFFFFFFFFFFFFFFFFFFFFFFFFFFFFFFFFFFFFFFF AND DUP2 MSTORE PUSH1 0x20 ADD SWAP1 DUP2 MSTORE PUSH1 0x20 ADD PUSH1 0x0 KECCAK256 PUSH1 0x2 ADD PUSH1 0x0 SWAP1 SLOAD SWAP1 PUSH2 0x100 EXP SWAP1 DIV PUSH20 0xFFFFFFFFFFFFFFFFFFFFFFFFFFFFFFFFFFFFFFFF AND SWAP4 POP PUSH1 0x0 PUSH1 0x64 DUP7 DUP6 DUP6 DUP2 MLOAD DUP2 LT PUSH2 0x18A7 JUMPI PUSH2 0x18A6 PUSH2 0x21EC JUMP JUMPDEST JUMPDEST PUSH1 0x20 MUL PUSH1 0x20 ADD ADD MLOAD PUSH2 0x18B9 SWAP2 SWAP1 PUSH2 0x206F JUMP JUMPDEST PUSH2 0x18C3 SWAP2 SWAP1 PUSH2 0x203E JUMP JUMPDEST SWAP1 POP DUP1 PUSH1 0x8 PUSH1 0x0 DUP8 PUSH20 0xFFFFFFFFFFFFFFFFFFFFFFFFFFFFFFFFFFFFFFFF AND PUSH20 0xFFFFFFFFFFFFFFFFFFFFFFFFFFFFFFFFFFFFFFFF AND DUP2 MSTORE PUSH1 0x20 ADD SWAP1 DUP2 MSTORE PUSH1 0x20 ADD PUSH1 0x0 KECCAK256 PUSH1 0x3 ADD DUP4 DUP2 SLOAD DUP2 LT PUSH2 0x191A JUMPI PUSH2 0x1919 PUSH2 0x21EC JUMP JUMPDEST JUMPDEST SWAP1 PUSH1 0x0 MSTORE PUSH1 0x20 PUSH1 0x0 KECCAK256 ADD PUSH1 0x0 DUP3 DUP3 SLOAD PUSH2 0x1933 SWAP2 SWAP1 PUSH2 0x1FE8 JUMP JUMPDEST SWAP3 POP POP DUP2 SWAP1 SSTORE POP PUSH3 0xDBBA0 PUSH1 0x4 DUP2 SWAP1 SSTORE POP POP PUSH2 0x194F JUMP JUMPDEST PUSH2 0x1962 JUMP JUMPDEST DUP1 DUP1 PUSH2 0x195A SWAP1 PUSH2 0x2145 JUMP JUMPDEST SWAP2 POP POP PUSH2 0x1731 JUMP JUMPDEST POP POP POP POP POP POP JUMP JUMPDEST PUSH1 0x40 MLOAD DUP1 PUSH1 0x80 ADD PUSH1 0x40 MSTORE DUP1 PUSH1 0x0 DUP2 MSTORE PUSH1 0x20 ADD PUSH1 0x0 DUP2 MSTORE PUSH1 0x20 ADD PUSH1 0x0 DUP2 MSTORE PUSH1 0x20 ADD PUSH1 0x0 DUP2 MSTORE POP SWAP1 JUMP JUMPDEST PUSH1 0x0 DUP2 CALLDATALOAD SWAP1 POP PUSH2 0x19A1 DUP2 PUSH2 0x2365 JUMP JUMPDEST SWAP3 SWAP2 POP POP JUMP JUMPDEST PUSH1 0x0 DUP2 MLOAD SWAP1 POP PUSH2 0x19B6 DUP2 PUSH2 0x237C JUMP JUMPDEST SWAP3 SWAP2 POP POP JUMP JUMPDEST PUSH1 0x0 DUP2 CALLDATALOAD SWAP1 POP PUSH2 0x19CB DUP2 PUSH2 0x2393 JUMP JUMPDEST SWAP3 SWAP2 POP POP JUMP JUMPDEST PUSH1 0x0 PUSH1 0x20 DUP3 DUP5 SUB SLT ISZERO PUSH2 0x19E7 JUMPI PUSH2 0x19E6 PUSH2 0x224A JUMP JUMPDEST JUMPDEST PUSH1 0x0 PUSH2 0x19F5 DUP5 DUP3 DUP6 ADD PUSH2 0x1992 JUMP JUMPDEST SWAP2 POP POP SWAP3 SWAP2 POP POP JUMP JUMPDEST PUSH1 0x0 PUSH1 0x20 DUP3 DUP5 SUB SLT ISZERO PUSH2 0x1A14 JUMPI PUSH2 0x1A13 PUSH2 0x224A JUMP JUMPDEST JUMPDEST PUSH1 0x0 PUSH2 0x1A22 DUP5 DUP3 DUP6 ADD PUSH2 0x19A7 JUMP JUMPDEST SWAP2 POP POP SWAP3 SWAP2 POP POP JUMP JUMPDEST PUSH1 0x0 PUSH1 0x20 DUP3 DUP5 SUB SLT ISZERO PUSH2 0x1A41 JUMPI PUSH2 0x1A40 PUSH2 0x224A JUMP JUMPDEST JUMPDEST PUSH1 0x0 PUSH2 0x1A4F DUP5 DUP3 DUP6 ADD PUSH2 0x19BC JUMP JUMPDEST SWAP2 POP POP SWAP3 SWAP2 POP POP JUMP JUMPDEST PUSH1 0x0 DUP1 PUSH1 0x40 DUP4 DUP6 SUB SLT ISZERO PUSH2 0x1A6F JUMPI PUSH2 0x1A6E PUSH2 0x224A JUMP JUMPDEST JUMPDEST PUSH1 0x0 PUSH2 0x1A7D DUP6 DUP3 DUP7 ADD PUSH2 0x19BC JUMP JUMPDEST SWAP3 POP POP PUSH1 0x20 PUSH2 0x1A8E DUP6 DUP3 DUP7 ADD PUSH2 0x1992 JUMP JUMPDEST SWAP2 POP POP SWAP3 POP SWAP3 SWAP1 POP JUMP JUMPDEST PUSH1 0x0 DUP1 PUSH1 0x0 PUSH1 0x60 DUP5 DUP7 SUB SLT ISZERO PUSH2 0x1AB1 JUMPI PUSH2 0x1AB0 PUSH2 0x224A JUMP JUMPDEST JUMPDEST PUSH1 0x0 PUSH2 0x1ABF DUP7 DUP3 DUP8 ADD PUSH2 0x19BC JUMP JUMPDEST SWAP4 POP POP PUSH1 0x20 PUSH2 0x1AD0 DUP7 DUP3 DUP8 ADD PUSH2 0x19BC JUMP JUMPDEST SWAP3 POP POP PUSH1 0x40 PUSH2 0x1AE1 DUP7 DUP3 DUP8 ADD PUSH2 0x19BC JUMP JUMPDEST SWAP2 POP POP SWAP3 POP SWAP3 POP SWAP3 JUMP JUMPDEST PUSH1 0x0 PUSH2 0x1AF7 DUP4 DUP4 PUSH2 0x1B33 JUMP JUMPDEST PUSH1 0x20 DUP4 ADD SWAP1 POP SWAP3 SWAP2 POP POP JUMP JUMPDEST PUSH1 0x0 PUSH2 0x1B0F DUP4 DUP4 PUSH2 0x1D06 JUMP JUMPDEST PUSH1 0x80 DUP4 ADD SWAP1 POP SWAP3 SWAP2 POP POP JUMP JUMPDEST PUSH1 0x0 PUSH2 0x1B27 DUP4 DUP4 PUSH2 0x1D5B JUMP JUMPDEST PUSH1 0x20 DUP4 ADD SWAP1 POP SWAP3 SWAP2 POP POP JUMP JUMPDEST PUSH2 0x1B3C DUP2 PUSH2 0x20FD JUMP JUMPDEST DUP3 MSTORE POP POP JUMP JUMPDEST PUSH2 0x1B4B DUP2 PUSH2 0x20FD JUMP JUMPDEST DUP3 MSTORE POP POP JUMP JUMPDEST PUSH1 0x0 PUSH2 0x1B5C DUP3 PUSH2 0x1F5C JUMP JUMPDEST PUSH2 0x1B66 DUP2 DUP6 PUSH2 0x1FA4 JUMP JUMPDEST SWAP4 POP PUSH2 0x1B71 DUP4 PUSH2 0x1F2C JUMP JUMPDEST DUP1 PUSH1 0x0 JUMPDEST DUP4 DUP2 LT ISZERO PUSH2 0x1BA2 JUMPI DUP2 MLOAD PUSH2 0x1B89 DUP9 DUP3 PUSH2 0x1AEB JUMP JUMPDEST SWAP8 POP PUSH2 0x1B94 DUP4 PUSH2 0x1F7D JUMP JUMPDEST SWAP3 POP POP PUSH1 0x1 DUP2 ADD SWAP1 POP PUSH2 0x1B75 JUMP JUMPDEST POP DUP6 SWAP4 POP POP POP POP SWAP3 SWAP2 POP POP JUMP JUMPDEST PUSH1 0x0 PUSH2 0x1BBA DUP3 PUSH2 0x1F67 JUMP JUMPDEST PUSH2 0x1BC4 DUP2 DUP6 PUSH2 0x1FB5 JUMP JUMPDEST SWAP4 POP PUSH2 0x1BCF DUP4 PUSH2 0x1F3C JUMP JUMPDEST DUP1 PUSH1 0x0 JUMPDEST DUP4 DUP2 LT ISZERO PUSH2 0x1C00 JUMPI DUP2 MLOAD PUSH2 0x1BE7 DUP9 DUP3 PUSH2 0x1B03 JUMP JUMPDEST SWAP8 POP PUSH2 0x1BF2 DUP4 PUSH2 0x1F8A JUMP JUMPDEST SWAP3 POP POP PUSH1 0x1 DUP2 ADD SWAP1 POP PUSH2 0x1BD3 JUMP JUMPDEST POP DUP6 SWAP4 POP POP POP POP SWAP3 SWAP2 POP POP JUMP JUMPDEST PUSH1 0x0 PUSH2 0x1C18 DUP3 PUSH2 0x1F72 JUMP JUMPDEST PUSH2 0x1C22 DUP2 DUP6 PUSH2 0x1FC6 JUMP JUMPDEST SWAP4 POP PUSH2 0x1C2D DUP4 PUSH2 0x1F4C JUMP JUMPDEST DUP1 PUSH1 0x0 JUMPDEST DUP4 DUP2 LT ISZERO PUSH2 0x1C5E JUMPI DUP2 MLOAD PUSH2 0x1C45 DUP9 DUP3 PUSH2 0x1B1B JUMP JUMPDEST SWAP8 POP PUSH2 0x1C50 DUP4 PUSH2 0x1F97 JUMP JUMPDEST SWAP3 POP POP PUSH1 0x1 DUP2 ADD SWAP1 POP PUSH2 0x1C31 JUMP JUMPDEST POP DUP6 SWAP4 POP POP POP POP SWAP3 SWAP2 POP POP JUMP JUMPDEST PUSH2 0x1C74 DUP2 PUSH2 0x210F JUMP JUMPDEST DUP3 MSTORE POP POP JUMP JUMPDEST PUSH1 0x0 PUSH2 0x1C87 PUSH1 0x25 DUP4 PUSH2 0x1FD7 JUMP JUMPDEST SWAP2 POP PUSH2 0x1C92 DUP3 PUSH2 0x224F JUMP JUMPDEST PUSH1 0x40 DUP3 ADD SWAP1 POP SWAP2 SWAP1 POP JUMP JUMPDEST PUSH1 0x0 PUSH2 0x1CAA PUSH1 0x22 DUP4 PUSH2 0x1FD7 JUMP JUMPDEST SWAP2 POP PUSH2 0x1CB5 DUP3 PUSH2 0x229E JUMP JUMPDEST PUSH1 0x40 DUP3 ADD SWAP1 POP SWAP2 SWAP1 POP JUMP JUMPDEST PUSH1 0x0 PUSH2 0x1CCD PUSH1 0x21 DUP4 PUSH2 0x1FD7 JUMP JUMPDEST SWAP2 POP PUSH2 0x1CD8 DUP3 PUSH2 0x22ED JUMP JUMPDEST PUSH1 0x40 DUP3 ADD SWAP1 POP SWAP2 SWAP1 POP JUMP JUMPDEST PUSH1 0x0 PUSH2 0x1CF0 PUSH1 0x1F DUP4 PUSH2 0x1FD7 JUMP JUMPDEST SWAP2 POP PUSH2 0x1CFB DUP3 PUSH2 0x233C JUMP JUMPDEST PUSH1 0x20 DUP3 ADD SWAP1 POP SWAP2 SWAP1 POP JUMP JUMPDEST PUSH1 0x80 DUP3 ADD PUSH1 0x0 DUP3 ADD MLOAD PUSH2 0x1D1C PUSH1 0x0 DUP6 ADD DUP3 PUSH2 0x1D5B JUMP JUMPDEST POP PUSH1 0x20 DUP3 ADD MLOAD PUSH2 0x1D2F PUSH1 0x20 DUP6 ADD DUP3 PUSH2 0x1D5B JUMP JUMPDEST POP PUSH1 0x40 DUP3 ADD MLOAD PUSH2 0x1D42 PUSH1 0x40 DUP6 ADD DUP3 PUSH2 0x1D5B JUMP JUMPDEST POP PUSH1 0x60 DUP3 ADD MLOAD PUSH2 0x1D55 PUSH1 0x60 DUP6 ADD DUP3 PUSH2 0x1D5B JUMP JUMPDEST POP POP POP POP JUMP JUMPDEST PUSH2 0x1D64 DUP2 PUSH2 0x213B JUMP JUMPDEST DUP3 MSTORE POP POP JUMP JUMPDEST PUSH2 0x1D73 DUP2 PUSH2 0x213B JUMP JUMPDEST DUP3 MSTORE POP POP JUMP JUMPDEST PUSH1 0x0 PUSH1 0x20 DUP3 ADD SWAP1 POP PUSH2 0x1D8E PUSH1 0x0 DUP4 ADD DUP5 PUSH2 0x1B42 JUMP JUMPDEST SWAP3 SWAP2 POP POP JUMP JUMPDEST PUSH1 0x0 PUSH1 0x40 DUP3 ADD SWAP1 POP PUSH2 0x1DA9 PUSH1 0x0 DUP4 ADD DUP6 PUSH2 0x1B42 JUMP JUMPDEST PUSH2 0x1DB6 PUSH1 0x20 DUP4 ADD DUP5 PUSH2 0x1D6A JUMP JUMPDEST SWAP4 SWAP3 POP POP POP JUMP JUMPDEST PUSH1 0x0 PUSH1 0xA0 DUP3 ADD SWAP1 POP PUSH2 0x1DD2 PUSH1 0x0 DUP4 ADD DUP9 PUSH2 0x1B42 JUMP JUMPDEST PUSH2 0x1DDF PUSH1 0x20 DUP4 ADD DUP8 PUSH2 0x1D6A JUMP JUMPDEST PUSH2 0x1DEC PUSH1 0x40 DUP4 ADD DUP7 PUSH2 0x1D6A JUMP JUMPDEST PUSH2 0x1DF9 PUSH1 0x60 DUP4 ADD DUP6 PUSH2 0x1D6A JUMP JUMPDEST PUSH2 0x1E06 PUSH1 0x80 DUP4 ADD DUP5 PUSH2 0x1C6B JUMP JUMPDEST SWAP7 SWAP6 POP POP POP POP POP POP JUMP JUMPDEST PUSH1 0x0 PUSH1 0x20 DUP3 ADD SWAP1 POP DUP2 DUP2 SUB PUSH1 0x0 DUP4 ADD MSTORE PUSH2 0x1E2A DUP2 DUP5 PUSH2 0x1B51 JUMP JUMPDEST SWAP1 POP SWAP3 SWAP2 POP POP JUMP JUMPDEST PUSH1 0x0 PUSH1 0x20 DUP3 ADD SWAP1 POP DUP2 DUP2 SUB PUSH1 0x0 DUP4 ADD MSTORE PUSH2 0x1E4C DUP2 DUP5 PUSH2 0x1BAF JUMP JUMPDEST SWAP1 POP SWAP3 SWAP2 POP POP JUMP JUMPDEST PUSH1 0x0 PUSH1 0x20 DUP3 ADD SWAP1 POP DUP2 DUP2 SUB PUSH1 0x0 DUP4 ADD MSTORE PUSH2 0x1E6E DUP2 DUP5 PUSH2 0x1C0D JUMP JUMPDEST SWAP1 POP SWAP3 SWAP2 POP POP JUMP JUMPDEST PUSH1 0x0 PUSH1 0x20 DUP3 ADD SWAP1 POP PUSH2 0x1E8B PUSH1 0x0 DUP4 ADD DUP5 PUSH2 0x1C6B JUMP JUMPDEST SWAP3 SWAP2 POP POP JUMP JUMPDEST PUSH1 0x0 PUSH1 0x20 DUP3 ADD SWAP1 POP DUP2 DUP2 SUB PUSH1 0x0 DUP4 ADD MSTORE PUSH2 0x1EAA DUP2 PUSH2 0x1C7A JUMP JUMPDEST SWAP1 POP SWAP2 SWAP1 POP JUMP JUMPDEST PUSH1 0x0 PUSH1 0x20 DUP3 ADD SWAP1 POP DUP2 DUP2 SUB PUSH1 0x0 DUP4 ADD MSTORE PUSH2 0x1ECA DUP2 PUSH2 0x1C9D JUMP JUMPDEST SWAP1 POP SWAP2 SWAP1 POP JUMP JUMPDEST PUSH1 0x0 PUSH1 0x20 DUP3 ADD SWAP1 POP DUP2 DUP2 SUB PUSH1 0x0 DUP4 ADD MSTORE PUSH2 0x1EEA DUP2 PUSH2 0x1CC0 JUMP JUMPDEST SWAP1 POP SWAP2 SWAP1 POP JUMP JUMPDEST PUSH1 0x0 PUSH1 0x20 DUP3 ADD SWAP1 POP DUP2 DUP2 SUB PUSH1 0x0 DUP4 ADD MSTORE PUSH2 0x1F0A DUP2 PUSH2 0x1CE3 JUMP JUMPDEST SWAP1 POP SWAP2 SWAP1 POP JUMP JUMPDEST PUSH1 0x0 PUSH1 0x20 DUP3 ADD SWAP1 POP PUSH2 0x1F26 PUSH1 0x0 DUP4 ADD DUP5 PUSH2 0x1D6A JUMP JUMPDEST SWAP3 SWAP2 POP POP JUMP JUMPDEST PUSH1 0x0 DUP2 SWAP1 POP PUSH1 0x20 DUP3 ADD SWAP1 POP SWAP2 SWAP1 POP JUMP JUMPDEST PUSH1 0x0 DUP2 SWAP1 POP PUSH1 0x20 DUP3 ADD SWAP1 POP SWAP2 SWAP1 POP JUMP JUMPDEST PUSH1 0x0 DUP2 SWAP1 POP PUSH1 0x20 DUP3 ADD SWAP1 POP SWAP2 SWAP1 POP JUMP JUMPDEST PUSH1 0x0 DUP2 MLOAD SWAP1 POP SWAP2 SWAP1 POP JUMP JUMPDEST PUSH1 0x0 DUP2 MLOAD SWAP1 POP SWAP2 SWAP1 POP JUMP JUMPDEST PUSH1 0x0 DUP2 MLOAD SWAP1 POP SWAP2 SWAP1 POP JUMP JUMPDEST PUSH1 0x0 PUSH1 0x20 DUP3 ADD SWAP1 POP SWAP2 SWAP1 POP JUMP JUMPDEST PUSH1 0x0 PUSH1 0x20 DUP3 ADD SWAP1 POP SWAP2 SWAP1 POP JUMP JUMPDEST PUSH1 0x0 PUSH1 0x20 DUP3 ADD SWAP1 POP SWAP2 SWAP1 POP JUMP JUMPDEST PUSH1 0x0 DUP3 DUP3 MSTORE PUSH1 0x20 DUP3 ADD SWAP1 POP SWAP3 SWAP2 POP POP JUMP JUMPDEST PUSH1 0x0 DUP3 DUP3 MSTORE PUSH1 0x20 DUP3 ADD SWAP1 POP SWAP3 SWAP2 POP POP JUMP JUMPDEST PUSH1 0x0 DUP3 DUP3 MSTORE PUSH1 0x20 DUP3 ADD SWAP1 POP SWAP3 SWAP2 POP POP JUMP JUMPDEST PUSH1 0x0 DUP3 DUP3 MSTORE PUSH1 0x20 DUP3 ADD SWAP1 POP SWAP3 SWAP2 POP POP JUMP JUMPDEST PUSH1 0x0 PUSH2 0x1FF3 DUP3 PUSH2 0x213B JUMP JUMPDEST SWAP2 POP PUSH2 0x1FFE DUP4 PUSH2 0x213B JUMP JUMPDEST SWAP3 POP DUP3 PUSH32 0xFFFFFFFFFFFFFFFFFFFFFFFFFFFFFFFFFFFFFFFFFFFFFFFFFFFFFFFFFFFFFFFF SUB DUP3 GT ISZERO PUSH2 0x2033 JUMPI PUSH2 0x2032 PUSH2 0x218E JUMP JUMPDEST JUMPDEST DUP3 DUP3 ADD SWAP1 POP SWAP3 SWAP2 POP POP JUMP JUMPDEST PUSH1 0x0 PUSH2 0x2049 DUP3 PUSH2 0x213B JUMP JUMPDEST SWAP2 POP PUSH2 0x2054 DUP4 PUSH2 0x213B JUMP JUMPDEST SWAP3 POP DUP3 PUSH2 0x2064 JUMPI PUSH2 0x2063 PUSH2 0x21BD JUMP JUMPDEST JUMPDEST DUP3 DUP3 DIV SWAP1 POP SWAP3 SWAP2 POP POP JUMP JUMPDEST PUSH1 0x0 PUSH2 0x207A DUP3 PUSH2 0x213B JUMP JUMPDEST SWAP2 POP PUSH2 0x2085 DUP4 PUSH2 0x213B JUMP JUMPDEST SWAP3 POP DUP2 PUSH32 0xFFFFFFFFFFFFFFFFFFFFFFFFFFFFFFFFFFFFFFFFFFFFFFFFFFFFFFFFFFFFFFFF DIV DUP4 GT DUP3 ISZERO ISZERO AND ISZERO PUSH2 0x20BE JUMPI PUSH2 0x20BD PUSH2 0x218E JUMP JUMPDEST JUMPDEST DUP3 DUP3 MUL SWAP1 POP SWAP3 SWAP2 POP POP JUMP JUMPDEST PUSH1 0x0 PUSH2 0x20D4 DUP3 PUSH2 0x213B JUMP JUMPDEST SWAP2 POP PUSH2 0x20DF DUP4 PUSH2 0x213B JUMP JUMPDEST SWAP3 POP DUP3 DUP3 LT ISZERO PUSH2 0x20F2 JUMPI PUSH2 0x20F1 PUSH2 0x218E JUMP JUMPDEST JUMPDEST DUP3 DUP3 SUB SWAP1 POP SWAP3 SWAP2 POP POP JUMP JUMPDEST PUSH1 0x0 PUSH2 0x2108 DUP3 PUSH2 0x211B JUMP JUMPDEST SWAP1 POP SWAP2 SWAP1 POP JUMP JUMPDEST PUSH1 0x0 DUP2 ISZERO ISZERO SWAP1 POP SWAP2 SWAP1 POP JUMP JUMPDEST PUSH1 0x0 PUSH20 0xFFFFFFFFFFFFFFFFFFFFFFFFFFFFFFFFFFFFFFFF DUP3 AND SWAP1 POP SWAP2 SWAP1 POP JUMP JUMPDEST PUSH1 0x0 DUP2 SWAP1 POP SWAP2 SWAP1 POP JUMP JUMPDEST PUSH1 0x0 PUSH2 0x2150 DUP3 PUSH2 0x213B JUMP JUMPDEST SWAP2 POP PUSH32 0xFFFFFFFFFFFFFFFFFFFFFFFFFFFFFFFFFFFFFFFFFFFFFFFFFFFFFFFFFFFFFFFF DUP3 EQ ISZERO PUSH2 0x2183 JUMPI PUSH2 0x2182 PUSH2 0x218E JUMP JUMPDEST JUMPDEST PUSH1 0x1 DUP3 ADD SWAP1 POP SWAP2 SWAP1 POP JUMP JUMPDEST PUSH32 0x4E487B7100000000000000000000000000000000000000000000000000000000 PUSH1 0x0 MSTORE PUSH1 0x11 PUSH1 0x4 MSTORE PUSH1 0x24 PUSH1 0x0 REVERT JUMPDEST PUSH32 0x4E487B7100000000000000000000000000000000000000000000000000000000 PUSH1 0x0 MSTORE PUSH1 0x12 PUSH1 0x4 MSTORE PUSH1 0x24 PUSH1 0x0 REVERT JUMPDEST PUSH32 0x4E487B7100000000000000000000000000000000000000000000000000000000 PUSH1 0x0 MSTORE PUSH1 0x32 PUSH1 0x4 MSTORE PUSH1 0x24 PUSH1 0x0 REVERT JUMPDEST PUSH32 0x4E487B7100000000000000000000000000000000000000000000000000000000 PUSH1 0x0 MSTORE PUSH1 0x41 PUSH1 0x4 MSTORE PUSH1 0x24 PUSH1 0x0 REVERT JUMPDEST PUSH1 0x0 DUP1 REVERT JUMPDEST PUSH32 0x796F7520646F6E74206861766520696E766573746D656E7420746F2077697468 PUSH1 0x0 DUP3 ADD MSTORE PUSH32 0x647261776E000000000000000000000000000000000000000000000000000000 PUSH1 0x20 DUP3 ADD MSTORE POP JUMP JUMPDEST PUSH32 0x796F7520646F6E742068617665207265776172647320746F2077697468647261 PUSH1 0x0 DUP3 ADD MSTORE PUSH32 0x776E000000000000000000000000000000000000000000000000000000000000 PUSH1 0x20 DUP3 ADD MSTORE POP JUMP JUMPDEST PUSH32 0x6F6E6C79204F776E65722063616E2063616C6C20746869732066756E6374696F PUSH1 0x0 DUP3 ADD MSTORE PUSH32 0x6E00000000000000000000000000000000000000000000000000000000000000 PUSH1 0x20 DUP3 ADD MSTORE POP JUMP JUMPDEST PUSH32 0x76616C7565206973206E6F742067726561746572207468616E20313030303000 PUSH1 0x0 DUP3 ADD MSTORE POP JUMP JUMPDEST PUSH2 0x236E DUP2 PUSH2 0x20FD JUMP JUMPDEST DUP2 EQ PUSH2 0x2379 JUMPI PUSH1 0x0 DUP1 REVERT JUMPDEST POP JUMP JUMPDEST PUSH2 0x2385 DUP2 PUSH2 0x210F JUMP JUMPDEST DUP2 EQ PUSH2 0x2390 JUMPI PUSH1 0x0 DUP1 REVERT JUMPDEST POP JUMP JUMPDEST PUSH2 0x239C DUP2 PUSH2 0x213B JUMP JUMPDEST DUP2 EQ PUSH2 0x23A7 JUMPI PUSH1 0x0 DUP1 REVERT JUMPDEST POP JUMP INVALID LOG2 PUSH5 0x6970667358 0x22 SLT KECCAK256 0xEB SWAP1 DUP8 0x1E 0xE7 ISZERO 0xAA STOP GASLIMIT SUB PUSH30 0x2600CABABCC6CB089F45EA381E98300E1B5B5D270B64736F6C6343000807 STOP CALLER "
				},
				"gasEstimates": {
					"creation": {
						"codeDepositCost": "1836800",
						"executionCost": "163157",
						"totalCost": "1999957"
					},
					"external": {
						"DUSDReferralsList()": "infinite",
						"DUSDTotalReferrals()": "2608",
						"DUSDinvestor(address)": "infinite",
						"Stake(uint256,address)": "infinite",
						"getAllDUSDinvestments()": "infinite",
						"getReward()": "infinite",
						"getTotalInvestmentDUSD()": "2599",
						"owner()": "2556",
						"referralLevel_earning()": "infinite",
						"rewardToken()": "2539",
						"setReward(uint256)": "22610",
						"set_max_Stake_amount(uint256)": "22631",
						"set_min_Stake_amount(uint256)": "22565",
						"set_values(uint256,uint256,uint256)": "infinite",
						"totalDUSDInvestors()": "2475",
						"transferOwnership(address)": "26977",
						"unStake(uint256)": "infinite",
						"withdrawReward()": "infinite"
					},
					"internal": {
						"sendRewardToDUSDReferrals(address,uint256)": "infinite"
					}
				},
				"methodIdentifiers": {
					"DUSDReferralsList()": "0c5f58f4",
					"DUSDTotalReferrals()": "1e8aba35",
					"DUSDinvestor(address)": "d3560ee8",
					"Stake(uint256,address)": "2bccdce6",
					"getAllDUSDinvestments()": "3a1e0833",
					"getReward()": "3d18b912",
					"getTotalInvestmentDUSD()": "929f6bbe",
					"owner()": "8da5cb5b",
					"referralLevel_earning()": "a61be99d",
					"rewardToken()": "f7c618c1",
					"setReward(uint256)": "293be456",
					"set_max_Stake_amount(uint256)": "500cb85f",
					"set_min_Stake_amount(uint256)": "32d4e783",
					"set_values(uint256,uint256,uint256)": "ce10db0a",
					"totalDUSDInvestors()": "10cde60a",
					"transferOwnership(address)": "f2fde38b",
					"unStake(uint256)": "5d3eea91",
					"withdrawReward()": "c885bc58"
				}
			},
			"storageLayout": {
				"storage": [
					{
						"astId": 24,
						"contract": "contracts/stake_reward_MLM.sol:Invest",
						"label": "owner",
						"offset": 0,
						"slot": "0",
						"type": "t_address"
					},
					{
						"astId": 27,
						"contract": "contracts/stake_reward_MLM.sol:Invest",
						"label": "SMCcontract",
						"offset": 0,
						"slot": "1",
						"type": "t_address"
					},
					{
						"astId": 30,
						"contract": "contracts/stake_reward_MLM.sol:Invest",
						"label": "BUSDcontract",
						"offset": 0,
						"slot": "2",
						"type": "t_address"
					},
					{
						"astId": 32,
						"contract": "contracts/stake_reward_MLM.sol:Invest",
						"label": "totalDUSDInvestors",
						"offset": 0,
						"slot": "3",
						"type": "t_uint256"
					},
					{
						"astId": 35,
						"contract": "contracts/stake_reward_MLM.sol:Invest",
						"label": "rewardToken",
						"offset": 0,
						"slot": "4",
						"type": "t_uint256"
					},
					{
						"astId": 38,
						"contract": "contracts/stake_reward_MLM.sol:Invest",
						"label": "min_Stake_amount",
						"offset": 0,
						"slot": "5",
						"type": "t_uint256"
					},
					{
						"astId": 41,
						"contract": "contracts/stake_reward_MLM.sol:Invest",
						"label": "max_Stake_amount",
						"offset": 0,
						"slot": "6",
						"type": "t_uint256"
					},
					{
						"astId": 44,
						"contract": "contracts/stake_reward_MLM.sol:Invest",
						"label": "investmentPeriod",
						"offset": 0,
						"slot": "7",
						"type": "t_uint256"
					},
					{
						"astId": 80,
						"contract": "contracts/stake_reward_MLM.sol:Invest",
						"label": "DUSDinvestor",
						"offset": 0,
						"slot": "8",
						"type": "t_mapping(t_address,t_struct(Data)75_storage)"
					}
				],
				"types": {
					"t_address": {
						"encoding": "inplace",
						"label": "address",
						"numberOfBytes": "20"
					},
					"t_array(t_address)dyn_storage": {
						"base": "t_address",
						"encoding": "dynamic_array",
						"label": "address[]",
						"numberOfBytes": "32"
					},
					"t_array(t_uint256)dyn_storage": {
						"base": "t_uint256",
						"encoding": "dynamic_array",
						"label": "uint256[]",
						"numberOfBytes": "32"
					},
					"t_bool": {
						"encoding": "inplace",
						"label": "bool",
						"numberOfBytes": "1"
					},
					"t_mapping(t_address,t_struct(Data)75_storage)": {
						"encoding": "mapping",
						"key": "t_address",
						"label": "mapping(address => struct Invest.Data)",
						"numberOfBytes": "32",
						"value": "t_struct(Data)75_storage"
					},
					"t_mapping(t_uint256,t_struct(allInvestments)53_storage)": {
						"encoding": "mapping",
						"key": "t_uint256",
						"label": "mapping(uint256 => struct Invest.allInvestments)",
						"numberOfBytes": "32",
						"value": "t_struct(allInvestments)53_storage"
					},
					"t_struct(Data)75_storage": {
						"encoding": "inplace",
						"label": "struct Invest.Data",
						"members": [
							{
								"astId": 58,
								"contract": "contracts/stake_reward_MLM.sol:Invest",
								"label": "investment",
								"offset": 0,
								"slot": "0",
								"type": "t_mapping(t_uint256,t_struct(allInvestments)53_storage)"
							},
							{
								"astId": 61,
								"contract": "contracts/stake_reward_MLM.sol:Invest",
								"label": "hisReferrals",
								"offset": 0,
								"slot": "1",
								"type": "t_array(t_address)dyn_storage"
							},
							{
								"astId": 63,
								"contract": "contracts/stake_reward_MLM.sol:Invest",
								"label": "referralFrom",
								"offset": 0,
								"slot": "2",
								"type": "t_address"
							},
							{
								"astId": 66,
								"contract": "contracts/stake_reward_MLM.sol:Invest",
								"label": "referralLevel",
								"offset": 0,
								"slot": "3",
								"type": "t_array(t_uint256)dyn_storage"
							},
							{
								"astId": 68,
								"contract": "contracts/stake_reward_MLM.sol:Invest",
								"label": "reward",
								"offset": 0,
								"slot": "4",
								"type": "t_uint256"
							},
							{
								"astId": 70,
								"contract": "contracts/stake_reward_MLM.sol:Invest",
								"label": "noOfInvestment",
								"offset": 0,
								"slot": "5",
								"type": "t_uint256"
							},
							{
								"astId": 72,
								"contract": "contracts/stake_reward_MLM.sol:Invest",
								"label": "totalInvestment",
								"offset": 0,
								"slot": "6",
								"type": "t_uint256"
							},
							{
								"astId": 74,
								"contract": "contracts/stake_reward_MLM.sol:Invest",
								"label": "investBefore",
								"offset": 0,
								"slot": "7",
								"type": "t_bool"
							}
						],
						"numberOfBytes": "256"
					},
					"t_struct(allInvestments)53_storage": {
						"encoding": "inplace",
						"label": "struct Invest.allInvestments",
						"members": [
							{
								"astId": 46,
								"contract": "contracts/stake_reward_MLM.sol:Invest",
								"label": "investedAmount",
								"offset": 0,
								"slot": "0",
								"type": "t_uint256"
							},
							{
								"astId": 48,
								"contract": "contracts/stake_reward_MLM.sol:Invest",
								"label": "withdrawnTime",
								"offset": 0,
								"slot": "1",
								"type": "t_uint256"
							},
							{
								"astId": 50,
								"contract": "contracts/stake_reward_MLM.sol:Invest",
								"label": "DepositTime",
								"offset": 0,
								"slot": "2",
								"type": "t_uint256"
							},
							{
								"astId": 52,
								"contract": "contracts/stake_reward_MLM.sol:Invest",
								"label": "investmentNum",
								"offset": 0,
								"slot": "3",
								"type": "t_uint256"
							}
						],
						"numberOfBytes": "128"
					},
					"t_uint256": {
						"encoding": "inplace",
						"label": "uint256",
						"numberOfBytes": "32"
					}
				}
			},
			"userdoc": {
				"kind": "user",
				"methods": {},
				"version": 1
			}
		}
	}
}