{
	"contracts/stake_reward_MLM.sol": {
		"Invest": {
			"abi": [
				{
					"inputs": [],
					"stateMutability": "nonpayable",
					"type": "constructor"
				},
				{
					"inputs": [],
					"name": "Admin_data",
					"outputs": [
						{
							"internalType": "uint256",
							"name": "",
							"type": "uint256"
						}
					],
					"stateMutability": "view",
					"type": "function"
				},
				{
					"inputs": [
						{
							"internalType": "uint256",
							"name": "",
							"type": "uint256"
						}
					],
					"name": "All_investors",
					"outputs": [
						{
							"internalType": "address",
							"name": "",
							"type": "address"
						}
					],
					"stateMutability": "view",
					"type": "function"
				},
				{
					"inputs": [],
					"name": "DUSDReferralsList",
					"outputs": [
						{
							"internalType": "address[]",
							"name": "",
							"type": "address[]"
						}
					],
					"stateMutability": "view",
					"type": "function"
				},
				{
					"inputs": [],
					"name": "DUSDTotalReferrals",
					"outputs": [
						{
							"internalType": "uint256",
							"name": "",
							"type": "uint256"
						}
					],
					"stateMutability": "view",
					"type": "function"
				},
				{
					"inputs": [
						{
							"internalType": "address",
							"name": "",
							"type": "address"
						}
					],
					"name": "DUSDinvestor",
					"outputs": [
						{
							"internalType": "address",
							"name": "referralFrom",
							"type": "address"
						},
						{
							"internalType": "uint256",
							"name": "reward",
							"type": "uint256"
						},
						{
							"internalType": "uint256",
							"name": "noOfInvestment",
							"type": "uint256"
						},
						{
							"internalType": "uint256",
							"name": "totalInvestment",
							"type": "uint256"
						},
						{
							"internalType": "uint256",
							"name": "totalWithdraw_reward",
							"type": "uint256"
						},
						{
							"internalType": "bool",
							"name": "investBefore",
							"type": "bool"
						},
						{
							"internalType": "uint256",
							"name": "stakeTime",
							"type": "uint256"
						}
					],
					"stateMutability": "view",
					"type": "function"
				},
				{
					"inputs": [
						{
							"internalType": "uint256",
							"name": "_investedamount",
							"type": "uint256"
						},
						{
							"internalType": "address",
							"name": "_referral",
							"type": "address"
						}
					],
					"name": "Stake",
					"outputs": [
						{
							"internalType": "bool",
							"name": "success",
							"type": "bool"
						}
					],
					"stateMutability": "nonpayable",
					"type": "function"
				},
				{
					"inputs": [],
					"name": "denomenator",
					"outputs": [
						{
							"internalType": "uint256",
							"name": "",
							"type": "uint256"
						}
					],
					"stateMutability": "view",
					"type": "function"
				},
				{
					"inputs": [],
					"name": "getAllDUSDinvestments",
					"outputs": [
						{
							"components": [
								{
									"internalType": "uint256",
									"name": "investedAmount",
									"type": "uint256"
								},
								{
									"internalType": "uint256",
									"name": "withdrawnTime",
									"type": "uint256"
								},
								{
									"internalType": "uint256",
									"name": "DepositTime",
									"type": "uint256"
								},
								{
									"internalType": "uint256",
									"name": "investmentNum",
									"type": "uint256"
								},
								{
									"internalType": "uint256",
									"name": "unstakeTime",
									"type": "uint256"
								},
								{
									"internalType": "bool",
									"name": "unstake",
									"type": "bool"
								}
							],
							"internalType": "struct Invest.allInvestments[]",
							"name": "",
							"type": "tuple[]"
						}
					],
					"stateMutability": "view",
					"type": "function"
				},
				{
					"inputs": [],
					"name": "getReward",
					"outputs": [
						{
							"internalType": "uint256",
							"name": "",
							"type": "uint256"
						}
					],
					"stateMutability": "view",
					"type": "function"
				},
				{
					"inputs": [],
					"name": "getTotalInvestmentDUSD",
					"outputs": [
						{
							"internalType": "uint256",
							"name": "",
							"type": "uint256"
						}
					],
					"stateMutability": "view",
					"type": "function"
				},
				{
					"inputs": [],
					"name": "investmentPeriod",
					"outputs": [
						{
							"internalType": "uint256",
							"name": "",
							"type": "uint256"
						}
					],
					"stateMutability": "view",
					"type": "function"
				},
				{
					"inputs": [],
					"name": "max_Stake_amount",
					"outputs": [
						{
							"internalType": "uint256",
							"name": "",
							"type": "uint256"
						}
					],
					"stateMutability": "view",
					"type": "function"
				},
				{
					"inputs": [],
					"name": "min_Stake_amount",
					"outputs": [
						{
							"internalType": "uint256",
							"name": "",
							"type": "uint256"
						}
					],
					"stateMutability": "view",
					"type": "function"
				},
				{
					"inputs": [],
					"name": "owner",
					"outputs": [
						{
							"internalType": "address",
							"name": "",
							"type": "address"
						}
					],
					"stateMutability": "view",
					"type": "function"
				},
				{
					"inputs": [],
					"name": "referralLevel_count",
					"outputs": [
						{
							"internalType": "uint256[]",
							"name": "arr",
							"type": "uint256[]"
						}
					],
					"stateMutability": "view",
					"type": "function"
				},
				{
					"inputs": [],
					"name": "referralLevel_earning",
					"outputs": [
						{
							"internalType": "uint256[]",
							"name": "arr",
							"type": "uint256[]"
						}
					],
					"stateMutability": "view",
					"type": "function"
				},
				{
					"inputs": [],
					"name": "rewardToken",
					"outputs": [
						{
							"internalType": "uint256",
							"name": "",
							"type": "uint256"
						}
					],
					"stateMutability": "view",
					"type": "function"
				},
				{
					"inputs": [
						{
							"internalType": "uint256",
							"name": "_amount",
							"type": "uint256"
						},
						{
							"internalType": "uint256",
							"name": "_denomenator",
							"type": "uint256"
						}
					],
					"name": "setReward",
					"outputs": [],
					"stateMutability": "nonpayable",
					"type": "function"
				},
				{
					"inputs": [
						{
							"internalType": "uint256",
							"name": "_amount",
							"type": "uint256"
						}
					],
					"name": "set_max_Stake_amount",
					"outputs": [],
					"stateMutability": "nonpayable",
					"type": "function"
				},
				{
					"inputs": [
						{
							"internalType": "uint256",
							"name": "_amount",
							"type": "uint256"
						}
					],
					"name": "set_min_Stake_amount",
					"outputs": [],
					"stateMutability": "nonpayable",
					"type": "function"
				},
				{
					"inputs": [
						{
							"internalType": "uint256",
							"name": "min_stake",
							"type": "uint256"
						},
						{
							"internalType": "uint256",
							"name": "max_stake",
							"type": "uint256"
						},
						{
							"internalType": "uint256",
							"name": "reward_per_day",
							"type": "uint256"
						},
						{
							"internalType": "uint256",
							"name": "_denomenator",
							"type": "uint256"
						}
					],
					"name": "set_values",
					"outputs": [],
					"stateMutability": "nonpayable",
					"type": "function"
				},
				{
					"inputs": [],
					"name": "totalDUSDInvestors",
					"outputs": [
						{
							"internalType": "uint256",
							"name": "",
							"type": "uint256"
						}
					],
					"stateMutability": "view",
					"type": "function"
				},
				{
					"inputs": [],
					"name": "totalbusiness",
					"outputs": [
						{
							"internalType": "uint256",
							"name": "",
							"type": "uint256"
						}
					],
					"stateMutability": "view",
					"type": "function"
				},
				{
					"inputs": [
						{
							"internalType": "address",
							"name": "_owner",
							"type": "address"
						}
					],
					"name": "transferOwnership",
					"outputs": [],
					"stateMutability": "nonpayable",
					"type": "function"
				},
				{
					"inputs": [],
					"name": "unStake",
					"outputs": [
						{
							"internalType": "bool",
							"name": "success",
							"type": "bool"
						}
					],
					"stateMutability": "nonpayable",
					"type": "function"
				},
				{
					"inputs": [],
					"name": "withdrawReward",
					"outputs": [
						{
							"internalType": "bool",
							"name": "success",
							"type": "bool"
						}
					],
					"stateMutability": "nonpayable",
					"type": "function"
				}
			],
			"devdoc": {
				"kind": "dev",
				"methods": {},
				"version": 1
			},
			"evm": {
				"assembly": "    /* \"contracts/stake_reward_MLM.sol\":262:13160  contract Invest... */\n  mstore(0x40, 0x80)\n    /* \"contracts/stake_reward_MLM.sol\":504:546  0x9462A065c980693808405eB4f2851f0FfA1d3016 */\n  0x9462a065c980693808405eb4f2851f0ffa1d3016\n    /* \"contracts/stake_reward_MLM.sol\":484:546  address SMCcontract=0x9462A065c980693808405eB4f2851f0FfA1d3016 */\n  0x01\n  exp(0x0100, 0x00)\n  dup2\n  sload\n  dup2\n  0xffffffffffffffffffffffffffffffffffffffff\n  mul\n  not\n  and\n  swap1\n  dup4\n  0xffffffffffffffffffffffffffffffffffffffff\n  and\n  mul\n  or\n  swap1\n  sstore\n  pop\n    /* \"contracts/stake_reward_MLM.sol\":577:619  0xc8BbA86A801Cd87ca72222d5A43639592fbAA6EC */\n  0xc8bba86a801cd87ca72222d5a43639592fbaa6ec\n    /* \"contracts/stake_reward_MLM.sol\":556:619  address BUSDcontract=0xc8BbA86A801Cd87ca72222d5A43639592fbAA6EC */\n  0x02\n  exp(0x0100, 0x00)\n  dup2\n  sload\n  dup2\n  0xffffffffffffffffffffffffffffffffffffffff\n  mul\n  not\n  and\n  swap1\n  dup4\n  0xffffffffffffffffffffffffffffffffffffffff\n  and\n  mul\n  or\n  swap1\n  sstore\n  pop\n    /* \"contracts/stake_reward_MLM.sol\":694:713  5000000000000000000 */\n  0x4563918244f40000\n    /* \"contracts/stake_reward_MLM.sol\":670:713  uint public rewardToken=5000000000000000000 */\n  0x04\n  sstore\n    /* \"contracts/stake_reward_MLM.sol\":762:767  10000 */\n  0x2710\n    /* \"contracts/stake_reward_MLM.sol\":733:767  uint public min_Stake_amount=10000 */\n  0x05\n  sstore\n    /* \"contracts/stake_reward_MLM.sol\":833:840  5000000 */\n  0x4c4b40\n    /* \"contracts/stake_reward_MLM.sol\":804:840  uint public max_Stake_amount=5000000 */\n  0x06\n  sstore\n    /* \"contracts/stake_reward_MLM.sol\":902:908  100000 */\n  0x0186a0\n    /* \"contracts/stake_reward_MLM.sol\":878:908  uint public denomenator=100000 */\n  0x07\n  sstore\n    /* \"contracts/stake_reward_MLM.sol\":975:983  300 days */\n  0x018b8200\n    /* \"contracts/stake_reward_MLM.sol\":946:983  uint public investmentPeriod=300 days */\n  0x08\n  sstore\n    /* \"contracts/stake_reward_MLM.sol\":1878:2008  constructor(){... */\n  callvalue\n  dup1\n  iszero\n  tag_1\n  jumpi\n  0x00\n  dup1\n  revert\ntag_1:\n  pop\n    /* \"contracts/stake_reward_MLM.sol\":1924:1934  msg.sender */\n  caller\n    /* \"contracts/stake_reward_MLM.sol\":1918:1923  owner */\n  0x00\n  dup1\n    /* \"contracts/stake_reward_MLM.sol\":1918:1934  owner=msg.sender */\n  0x0100\n  exp\n  dup2\n  sload\n  dup2\n  0xffffffffffffffffffffffffffffffffffffffff\n  mul\n  not\n  and\n  swap1\n  dup4\n  0xffffffffffffffffffffffffffffffffffffffff\n  and\n  mul\n  or\n  swap1\n  sstore\n  pop\n    /* \"contracts/stake_reward_MLM.sol\":262:13160  contract Invest... */\n  dataSize(sub_0)\n  dup1\n  dataOffset(sub_0)\n  0x00\n  codecopy\n  0x00\n  return\nstop\n\nsub_0: assembly {\n        /* \"contracts/stake_reward_MLM.sol\":262:13160  contract Invest... */\n      mstore(0x40, 0x80)\n      callvalue\n      dup1\n      iszero\n      tag_1\n      jumpi\n      0x00\n      dup1\n      revert\n    tag_1:\n      pop\n      jumpi(tag_2, lt(calldatasize, 0x04))\n      shr(0xe0, calldataload(0x00))\n      dup1\n      0x8da5cb5b\n      gt\n      tag_29\n      jumpi\n      dup1\n      0xc885bc58\n      gt\n      tag_30\n      jumpi\n      dup1\n      0xf2fde38b\n      gt\n      tag_31\n      jumpi\n      dup1\n      0xf2fde38b\n      eq\n      tag_25\n      jumpi\n      dup1\n      0xf790b81a\n      eq\n      tag_26\n      jumpi\n      dup1\n      0xf7c618c1\n      eq\n      tag_27\n      jumpi\n      dup1\n      0xfae730bc\n      eq\n      tag_28\n      jumpi\n      jump(tag_2)\n    tag_31:\n      dup1\n      0xc885bc58\n      eq\n      tag_22\n      jumpi\n      dup1\n      0xd3560ee8\n      eq\n      tag_23\n      jumpi\n      dup1\n      0xe2033fcb\n      eq\n      tag_24\n      jumpi\n      jump(tag_2)\n    tag_30:\n      dup1\n      0x8da5cb5b\n      eq\n      tag_16\n      jumpi\n      dup1\n      0x929f6bbe\n      eq\n      tag_17\n      jumpi\n      dup1\n      0x9740a1bc\n      eq\n      tag_18\n      jumpi\n      dup1\n      0xa47bd496\n      eq\n      tag_19\n      jumpi\n      dup1\n      0xa61be99d\n      eq\n      tag_20\n      jumpi\n      dup1\n      0xbc67eaff\n      eq\n      tag_21\n      jumpi\n      jump(tag_2)\n    tag_29:\n      dup1\n      0x3d18b912\n      gt\n      tag_32\n      jumpi\n      dup1\n      0x500cb85f\n      gt\n      tag_33\n      jumpi\n      dup1\n      0x500cb85f\n      eq\n      tag_12\n      jumpi\n      dup1\n      0x502c6bfa\n      eq\n      tag_13\n      jumpi\n      dup1\n      0x523cddfe\n      eq\n      tag_14\n      jumpi\n      dup1\n      0x73cf575a\n      eq\n      tag_15\n      jumpi\n      jump(tag_2)\n    tag_33:\n      dup1\n      0x3d18b912\n      eq\n      tag_9\n      jumpi\n      dup1\n      0x42508f66\n      eq\n      tag_10\n      jumpi\n      dup1\n      0x4eb1ecc9\n      eq\n      tag_11\n      jumpi\n      jump(tag_2)\n    tag_32:\n      dup1\n      0x0c5f58f4\n      eq\n      tag_3\n      jumpi\n      dup1\n      0x10cde60a\n      eq\n      tag_4\n      jumpi\n      dup1\n      0x1e8aba35\n      eq\n      tag_5\n      jumpi\n      dup1\n      0x2bccdce6\n      eq\n      tag_6\n      jumpi\n      dup1\n      0x32d4e783\n      eq\n      tag_7\n      jumpi\n      dup1\n      0x3a1e0833\n      eq\n      tag_8\n      jumpi\n    tag_2:\n      0x00\n      dup1\n      revert\n        /* \"contracts/stake_reward_MLM.sol\":10773:10982  function DUSDReferralsList() public view returns(address[] memory){ //this function is to get the all investors list with there account number... */\n    tag_3:\n      tag_34\n      tag_35\n      jump\t// in\n    tag_34:\n      mload(0x40)\n      tag_36\n      swap2\n      swap1\n      tag_37\n      jump\t// in\n    tag_36:\n      mload(0x40)\n      dup1\n      swap2\n      sub\n      swap1\n      return\n        /* \"contracts/stake_reward_MLM.sol\":630:660  uint public totalDUSDInvestors */\n    tag_4:\n      tag_38\n      tag_39\n      jump\t// in\n    tag_38:\n      mload(0x40)\n      tag_40\n      swap2\n      swap1\n      tag_41\n      jump\t// in\n    tag_40:\n      mload(0x40)\n      dup1\n      swap2\n      sub\n      swap1\n      return\n        /* \"contracts/stake_reward_MLM.sol\":10572:10763  function DUSDTotalReferrals() public view returns(uint){ // this function is to get the total number of referrals ... */\n    tag_5:\n      tag_42\n      tag_43\n      jump\t// in\n    tag_42:\n      mload(0x40)\n      tag_44\n      swap2\n      swap1\n      tag_41\n      jump\t// in\n    tag_44:\n      mload(0x40)\n      dup1\n      swap2\n      sub\n      swap1\n      return\n        /* \"contracts/stake_reward_MLM.sol\":3692:5757  function Stake(uint _investedamount,address _referral) external returns(bool success){... */\n    tag_6:\n      tag_45\n      0x04\n      dup1\n      calldatasize\n      sub\n      dup2\n      add\n      swap1\n      tag_46\n      swap2\n      swap1\n      tag_47\n      jump\t// in\n    tag_46:\n      tag_48\n      jump\t// in\n    tag_45:\n      mload(0x40)\n      tag_49\n      swap2\n      swap1\n      tag_50\n      jump\t// in\n    tag_49:\n      mload(0x40)\n      dup1\n      swap2\n      sub\n      swap1\n      return\n        /* \"contracts/stake_reward_MLM.sol\":11154:11265  function set_min_Stake_amount(uint _amount) public ... */\n    tag_7:\n      tag_51\n      0x04\n      dup1\n      calldatasize\n      sub\n      dup2\n      add\n      swap1\n      tag_52\n      swap2\n      swap1\n      tag_53\n      jump\t// in\n    tag_52:\n      tag_54\n      jump\t// in\n    tag_51:\n      stop\n        /* \"contracts/stake_reward_MLM.sol\":9577:10560  function getAllDUSDinvestments() public view returns (allInvestments[] memory) { //this function will return the all investments of the investor and withware date... */\n    tag_8:\n      tag_55\n      tag_56\n      jump\t// in\n    tag_55:\n      mload(0x40)\n      tag_57\n      swap2\n      swap1\n      tag_58\n      jump\t// in\n    tag_57:\n      mload(0x40)\n      dup1\n      swap2\n      sub\n      swap1\n      return\n        /* \"contracts/stake_reward_MLM.sol\":5767:6957  function getReward() view public returns(uint){ //this function is get the total reward balance of the investor... */\n    tag_9:\n      tag_59\n      tag_60\n      jump\t// in\n    tag_59:\n      mload(0x40)\n      tag_61\n      swap2\n      swap1\n      tag_41\n      jump\t// in\n    tag_61:\n      mload(0x40)\n      dup1\n      swap2\n      sub\n      swap1\n      return\n        /* \"contracts/stake_reward_MLM.sol\":13013:13152  function Admin_data() view public returns(uint){... */\n    tag_10:\n      tag_62\n      tag_63\n      jump\t// in\n    tag_62:\n      mload(0x40)\n      tag_64\n      swap2\n      swap1\n      tag_41\n      jump\t// in\n    tag_64:\n      mload(0x40)\n      dup1\n      swap2\n      sub\n      swap1\n      return\n        /* \"contracts/stake_reward_MLM.sol\":11394:11676  function set_values(uint min_stake,uint max_stake,uint reward_per_day,uint _denomenator) public ... */\n    tag_11:\n      tag_65\n      0x04\n      dup1\n      calldatasize\n      sub\n      dup2\n      add\n      swap1\n      tag_66\n      swap2\n      swap1\n      tag_67\n      jump\t// in\n    tag_66:\n      tag_68\n      jump\t// in\n    tag_65:\n      stop\n        /* \"contracts/stake_reward_MLM.sol\":11274:11385  function set_max_Stake_amount(uint _amount) public ... */\n    tag_12:\n      tag_69\n      0x04\n      dup1\n      calldatasize\n      sub\n      dup2\n      add\n      swap1\n      tag_70\n      swap2\n      swap1\n      tag_53\n      jump\t// in\n    tag_70:\n      tag_71\n      jump\t// in\n    tag_69:\n      stop\n        /* \"contracts/stake_reward_MLM.sol\":1057:1100  mapping(uint=>address) public All_investors */\n    tag_13:\n      tag_72\n      0x04\n      dup1\n      calldatasize\n      sub\n      dup2\n      add\n      swap1\n      tag_73\n      swap2\n      swap1\n      tag_53\n      jump\t// in\n    tag_73:\n      tag_74\n      jump\t// in\n    tag_72:\n      mload(0x40)\n      tag_75\n      swap2\n      swap1\n      tag_76\n      jump\t// in\n    tag_75:\n      mload(0x40)\n      dup1\n      swap2\n      sub\n      swap1\n      return\n        /* \"contracts/stake_reward_MLM.sol\":946:983  uint public investmentPeriod=300 days */\n    tag_14:\n      tag_77\n      tag_78\n      jump\t// in\n    tag_77:\n      mload(0x40)\n      tag_79\n      swap2\n      swap1\n      tag_41\n      jump\t// in\n    tag_79:\n      mload(0x40)\n      dup1\n      swap2\n      sub\n      swap1\n      return\n        /* \"contracts/stake_reward_MLM.sol\":7795:9347  function unStake() external  returns (bool success){... */\n    tag_15:\n      tag_80\n      tag_81\n      jump\t// in\n    tag_80:\n      mload(0x40)\n      tag_82\n      swap2\n      swap1\n      tag_50\n      jump\t// in\n    tag_82:\n      mload(0x40)\n      dup1\n      swap2\n      sub\n      swap1\n      return\n        /* \"contracts/stake_reward_MLM.sol\":300:321  address  public owner */\n    tag_16:\n      tag_83\n      tag_84\n      jump\t// in\n    tag_83:\n      mload(0x40)\n      tag_85\n      swap2\n      swap1\n      tag_76\n      jump\t// in\n    tag_85:\n      mload(0x40)\n      dup1\n      swap2\n      sub\n      swap1\n      return\n        /* \"contracts/stake_reward_MLM.sol\":9357:9567  function getTotalInvestmentDUSD() public view returns(uint) {   //this function is to get the total investment of the ivestor... */\n    tag_17:\n      tag_86\n      tag_87\n      jump\t// in\n    tag_86:\n      mload(0x40)\n      tag_88\n      swap2\n      swap1\n      tag_41\n      jump\t// in\n    tag_88:\n      mload(0x40)\n      dup1\n      swap2\n      sub\n      swap1\n      return\n        /* \"contracts/stake_reward_MLM.sol\":878:908  uint public denomenator=100000 */\n    tag_18:\n      tag_89\n      tag_90\n      jump\t// in\n    tag_89:\n      mload(0x40)\n      tag_91\n      swap2\n      swap1\n      tag_41\n      jump\t// in\n    tag_91:\n      mload(0x40)\n      dup1\n      swap2\n      sub\n      swap1\n      return\n        /* \"contracts/stake_reward_MLM.sol\":10991:11145  function setReward(uint _amount,uint _denomenator) public ... */\n    tag_19:\n      tag_92\n      0x04\n      dup1\n      calldatasize\n      sub\n      dup2\n      add\n      swap1\n      tag_93\n      swap2\n      swap1\n      tag_94\n      jump\t// in\n    tag_93:\n      tag_95\n      jump\t// in\n    tag_92:\n      stop\n        /* \"contracts/stake_reward_MLM.sol\":11869:12434  function referralLevel_earning() public view returns( uint[] memory arr )... */\n    tag_20:\n      tag_96\n      tag_97\n      jump\t// in\n    tag_96:\n      mload(0x40)\n      tag_98\n      swap2\n      swap1\n      tag_99\n      jump\t// in\n    tag_98:\n      mload(0x40)\n      dup1\n      swap2\n      sub\n      swap1\n      return\n        /* \"contracts/stake_reward_MLM.sol\":733:767  uint public min_Stake_amount=10000 */\n    tag_21:\n      tag_100\n      tag_101\n      jump\t// in\n    tag_100:\n      mload(0x40)\n      tag_102\n      swap2\n      swap1\n      tag_41\n      jump\t// in\n    tag_102:\n      mload(0x40)\n      dup1\n      swap2\n      sub\n      swap1\n      return\n        /* \"contracts/stake_reward_MLM.sol\":6967:7784  function withdrawReward() external returns (bool success){... */\n    tag_22:\n      tag_103\n      tag_104\n      jump\t// in\n    tag_103:\n      mload(0x40)\n      tag_105\n      swap2\n      swap1\n      tag_50\n      jump\t// in\n    tag_105:\n      mload(0x40)\n      dup1\n      swap2\n      sub\n      swap1\n      return\n        /* \"contracts/stake_reward_MLM.sol\":1825:1867  mapping(address=>Data) public DUSDinvestor */\n    tag_23:\n      tag_106\n      0x04\n      dup1\n      calldatasize\n      sub\n      dup2\n      add\n      swap1\n      tag_107\n      swap2\n      swap1\n      tag_108\n      jump\t// in\n    tag_107:\n      tag_109\n      jump\t// in\n    tag_106:\n      mload(0x40)\n      tag_110\n      swap8\n      swap7\n      swap6\n      swap5\n      swap4\n      swap3\n      swap2\n      swap1\n      tag_111\n      jump\t// in\n    tag_110:\n      mload(0x40)\n      dup1\n      swap2\n      sub\n      swap1\n      return\n        /* \"contracts/stake_reward_MLM.sol\":993:1018  uint public totalbusiness */\n    tag_24:\n      tag_112\n      tag_113\n      jump\t// in\n    tag_112:\n      mload(0x40)\n      tag_114\n      swap2\n      swap1\n      tag_41\n      jump\t// in\n    tag_114:\n      mload(0x40)\n      dup1\n      swap2\n      sub\n      swap1\n      return\n        /* \"contracts/stake_reward_MLM.sol\":11685:11859  function transferOwnership(address _owner)  public... */\n    tag_25:\n      tag_115\n      0x04\n      dup1\n      calldatasize\n      sub\n      dup2\n      add\n      swap1\n      tag_116\n      swap2\n      swap1\n      tag_108\n      jump\t// in\n    tag_116:\n      tag_117\n      jump\t// in\n    tag_115:\n      stop\n        /* \"contracts/stake_reward_MLM.sol\":12443:13004  function referralLevel_count() public view returns( uint[] memory arr )... */\n    tag_26:\n      tag_118\n      tag_119\n      jump\t// in\n    tag_118:\n      mload(0x40)\n      tag_120\n      swap2\n      swap1\n      tag_99\n      jump\t// in\n    tag_120:\n      mload(0x40)\n      dup1\n      swap2\n      sub\n      swap1\n      return\n        /* \"contracts/stake_reward_MLM.sol\":670:713  uint public rewardToken=5000000000000000000 */\n    tag_27:\n      tag_121\n      tag_122\n      jump\t// in\n    tag_121:\n      mload(0x40)\n      tag_123\n      swap2\n      swap1\n      tag_41\n      jump\t// in\n    tag_123:\n      mload(0x40)\n      dup1\n      swap2\n      sub\n      swap1\n      return\n        /* \"contracts/stake_reward_MLM.sol\":804:840  uint public max_Stake_amount=5000000 */\n    tag_28:\n      tag_124\n      tag_125\n      jump\t// in\n    tag_124:\n      mload(0x40)\n      tag_126\n      swap2\n      swap1\n      tag_41\n      jump\t// in\n    tag_126:\n      mload(0x40)\n      dup1\n      swap2\n      sub\n      swap1\n      return\n        /* \"contracts/stake_reward_MLM.sol\":10773:10982  function DUSDReferralsList() public view returns(address[] memory){ //this function is to get the all investors list with there account number... */\n    tag_35:\n        /* \"contracts/stake_reward_MLM.sol\":10822:10838  address[] memory */\n      0x60\n        /* \"contracts/stake_reward_MLM.sol\":10934:10946  DUSDinvestor */\n      0x0c\n        /* \"contracts/stake_reward_MLM.sol\":10934:10958  DUSDinvestor[msg.sender] */\n      0x00\n        /* \"contracts/stake_reward_MLM.sol\":10947:10957  msg.sender */\n      caller\n        /* \"contracts/stake_reward_MLM.sol\":10934:10958  DUSDinvestor[msg.sender] */\n      0xffffffffffffffffffffffffffffffffffffffff\n      and\n      0xffffffffffffffffffffffffffffffffffffffff\n      and\n      dup2\n      mstore\n      0x20\n      add\n      swap1\n      dup2\n      mstore\n      0x20\n      add\n      0x00\n      keccak256\n        /* \"contracts/stake_reward_MLM.sol\":10934:10971  DUSDinvestor[msg.sender].hisReferrals */\n      0x01\n      add\n        /* \"contracts/stake_reward_MLM.sol\":10927:10971  return DUSDinvestor[msg.sender].hisReferrals */\n      dup1\n      sload\n      dup1\n      0x20\n      mul\n      0x20\n      add\n      mload(0x40)\n      swap1\n      dup2\n      add\n      0x40\n      mstore\n      dup1\n      swap3\n      swap2\n      swap1\n      dup2\n      dup2\n      mstore\n      0x20\n      add\n      dup3\n      dup1\n      sload\n      dup1\n      iszero\n      tag_128\n      jumpi\n      0x20\n      mul\n      dup3\n      add\n      swap2\n      swap1\n      0x00\n      mstore\n      keccak256(0x00, 0x20)\n      swap1\n    tag_129:\n      dup2\n      0x00\n      swap1\n      sload\n      swap1\n      0x0100\n      exp\n      swap1\n      div\n      0xffffffffffffffffffffffffffffffffffffffff\n      and\n      0xffffffffffffffffffffffffffffffffffffffff\n      and\n      dup2\n      mstore\n      0x20\n      add\n      swap1\n      0x01\n      add\n      swap1\n      dup1\n      dup4\n      gt\n      tag_129\n      jumpi\n    tag_128:\n      pop\n      pop\n      pop\n      pop\n      pop\n      swap1\n      pop\n        /* \"contracts/stake_reward_MLM.sol\":10773:10982  function DUSDReferralsList() public view returns(address[] memory){ //this function is to get the all investors list with there account number... */\n      swap1\n      jump\t// out\n        /* \"contracts/stake_reward_MLM.sol\":630:660  uint public totalDUSDInvestors */\n    tag_39:\n      sload(0x03)\n      dup2\n      jump\t// out\n        /* \"contracts/stake_reward_MLM.sol\":10572:10763  function DUSDTotalReferrals() public view returns(uint){ // this function is to get the total number of referrals ... */\n    tag_43:\n        /* \"contracts/stake_reward_MLM.sol\":10622:10626  uint */\n      0x00\n        /* \"contracts/stake_reward_MLM.sol\":10707:10719  DUSDinvestor */\n      0x0c\n        /* \"contracts/stake_reward_MLM.sol\":10707:10731  DUSDinvestor[msg.sender] */\n      0x00\n        /* \"contracts/stake_reward_MLM.sol\":10720:10730  msg.sender */\n      caller\n        /* \"contracts/stake_reward_MLM.sol\":10707:10731  DUSDinvestor[msg.sender] */\n      0xffffffffffffffffffffffffffffffffffffffff\n      and\n      0xffffffffffffffffffffffffffffffffffffffff\n      and\n      dup2\n      mstore\n      0x20\n      add\n      swap1\n      dup2\n      mstore\n      0x20\n      add\n      0x00\n      keccak256\n        /* \"contracts/stake_reward_MLM.sol\":10707:10744  DUSDinvestor[msg.sender].hisReferrals */\n      0x01\n      add\n        /* \"contracts/stake_reward_MLM.sol\":10706:10752  (DUSDinvestor[msg.sender].hisReferrals).length */\n      dup1\n      sload\n      swap1\n      pop\n        /* \"contracts/stake_reward_MLM.sol\":10699:10752  return (DUSDinvestor[msg.sender].hisReferrals).length */\n      swap1\n      pop\n        /* \"contracts/stake_reward_MLM.sol\":10572:10763  function DUSDTotalReferrals() public view returns(uint){ // this function is to get the total number of referrals ... */\n      swap1\n      jump\t// out\n        /* \"contracts/stake_reward_MLM.sol\":3692:5757  function Stake(uint _investedamount,address _referral) external returns(bool success){... */\n    tag_48:\n        /* \"contracts/stake_reward_MLM.sol\":3764:3776  bool success */\n      0x00\n        /* \"contracts/stake_reward_MLM.sol\":3818:3834  min_Stake_amount */\n      sload(0x05)\n        /* \"contracts/stake_reward_MLM.sol\":3799:3814  _investedamount */\n      dup4\n        /* \"contracts/stake_reward_MLM.sol\":3799:3834  _investedamount >= min_Stake_amount */\n      lt\n      iszero\n        /* \"contracts/stake_reward_MLM.sol\":3799:3873  _investedamount >= min_Stake_amount && _investedamount <= max_Stake_amount */\n      dup1\n      iszero\n      tag_132\n      jumpi\n      pop\n        /* \"contracts/stake_reward_MLM.sol\":3857:3873  max_Stake_amount */\n      sload(0x06)\n        /* \"contracts/stake_reward_MLM.sol\":3838:3853  _investedamount */\n      dup4\n        /* \"contracts/stake_reward_MLM.sol\":3838:3873  _investedamount <= max_Stake_amount */\n      gt\n      iszero\n        /* \"contracts/stake_reward_MLM.sol\":3799:3873  _investedamount >= min_Stake_amount && _investedamount <= max_Stake_amount */\n    tag_132:\n        /* \"contracts/stake_reward_MLM.sol\":3791:3930  require(_investedamount >= min_Stake_amount && _investedamount <= max_Stake_amount,\"value is not greater than 10000 and less than 5000000\") */\n      tag_133\n      jumpi\n      mload(0x40)\n      0x08c379a000000000000000000000000000000000000000000000000000000000\n      dup2\n      mstore\n      0x04\n      add\n      tag_134\n      swap1\n      tag_135\n      jump\t// in\n    tag_134:\n      mload(0x40)\n      dup1\n      swap2\n      sub\n      swap1\n      revert\n    tag_133:\n        /* \"contracts/stake_reward_MLM.sol\":4059:4064  false */\n      0x00\n        /* \"contracts/stake_reward_MLM.sol\":4018:4064  DUSDinvestor[msg.sender].investBefore == false */\n      iszero\n      iszero\n        /* \"contracts/stake_reward_MLM.sol\":4018:4030  DUSDinvestor */\n      0x0c\n        /* \"contracts/stake_reward_MLM.sol\":4018:4042  DUSDinvestor[msg.sender] */\n      0x00\n        /* \"contracts/stake_reward_MLM.sol\":4031:4041  msg.sender */\n      caller\n        /* \"contracts/stake_reward_MLM.sol\":4018:4042  DUSDinvestor[msg.sender] */\n      0xffffffffffffffffffffffffffffffffffffffff\n      and\n      0xffffffffffffffffffffffffffffffffffffffff\n      and\n      dup2\n      mstore\n      0x20\n      add\n      swap1\n      dup2\n      mstore\n      0x20\n      add\n      0x00\n      keccak256\n        /* \"contracts/stake_reward_MLM.sol\":4018:4055  DUSDinvestor[msg.sender].investBefore */\n      0x08\n      add\n      0x00\n      swap1\n      sload\n      swap1\n      0x0100\n      exp\n      swap1\n      div\n      0xff\n      and\n        /* \"contracts/stake_reward_MLM.sol\":4018:4064  DUSDinvestor[msg.sender].investBefore == false */\n      iszero\n      iszero\n      eq\n        /* \"contracts/stake_reward_MLM.sol\":4015:4169  if(DUSDinvestor[msg.sender].investBefore == false)... */\n      iszero\n      tag_136\n      jumpi\n        /* \"contracts/stake_reward_MLM.sol\":4097:4115  totalDUSDInvestors */\n      0x03\n      0x00\n        /* \"contracts/stake_reward_MLM.sol\":4097:4117  totalDUSDInvestors++ */\n      dup2\n      sload\n      dup1\n      swap3\n      swap2\n      swap1\n      tag_137\n      swap1\n      tag_138\n      jump\t// in\n    tag_137:\n      swap2\n      swap1\n      pop\n      sstore\n      pop\n        /* \"contracts/stake_reward_MLM.sol\":4015:4169  if(DUSDinvestor[msg.sender].investBefore == false)... */\n    tag_136:\n        /* \"contracts/stake_reward_MLM.sol\":4229:4230  0 */\n      0x00\n        /* \"contracts/stake_reward_MLM.sol\":4185:4197  DUSDinvestor */\n      0x0c\n        /* \"contracts/stake_reward_MLM.sol\":4185:4209  DUSDinvestor[msg.sender] */\n      0x00\n        /* \"contracts/stake_reward_MLM.sol\":4198:4208  msg.sender */\n      caller\n        /* \"contracts/stake_reward_MLM.sol\":4185:4209  DUSDinvestor[msg.sender] */\n      0xffffffffffffffffffffffffffffffffffffffff\n      and\n      0xffffffffffffffffffffffffffffffffffffffff\n      and\n      dup2\n      mstore\n      0x20\n      add\n      swap1\n      dup2\n      mstore\n      0x20\n      add\n      0x00\n      keccak256\n        /* \"contracts/stake_reward_MLM.sol\":4185:4225  DUSDinvestor[msg.sender].totalInvestment */\n      0x06\n      add\n      sload\n        /* \"contracts/stake_reward_MLM.sol\":4185:4230  DUSDinvestor[msg.sender].totalInvestment == 0 */\n      eq\n        /* \"contracts/stake_reward_MLM.sol\":4182:4341  if(DUSDinvestor[msg.sender].totalInvestment == 0)... */\n      iszero\n      tag_139\n      jumpi\n        /* \"contracts/stake_reward_MLM.sol\":4318:4326  300 days */\n      0x018b8200\n        /* \"contracts/stake_reward_MLM.sol\":4300:4315  block.timestamp */\n      timestamp\n        /* \"contracts/stake_reward_MLM.sol\":4300:4326  block.timestamp + 300 days */\n      tag_140\n      swap2\n      swap1\n      tag_141\n      jump\t// in\n    tag_140:\n        /* \"contracts/stake_reward_MLM.sol\":4263:4275  DUSDinvestor */\n      0x0c\n        /* \"contracts/stake_reward_MLM.sol\":4263:4287  DUSDinvestor[msg.sender] */\n      0x00\n        /* \"contracts/stake_reward_MLM.sol\":4276:4286  msg.sender */\n      caller\n        /* \"contracts/stake_reward_MLM.sol\":4263:4287  DUSDinvestor[msg.sender] */\n      0xffffffffffffffffffffffffffffffffffffffff\n      and\n      0xffffffffffffffffffffffffffffffffffffffff\n      and\n      dup2\n      mstore\n      0x20\n      add\n      swap1\n      dup2\n      mstore\n      0x20\n      add\n      0x00\n      keccak256\n        /* \"contracts/stake_reward_MLM.sol\":4263:4297  DUSDinvestor[msg.sender].stakeTime */\n      0x09\n      add\n        /* \"contracts/stake_reward_MLM.sol\":4263:4326  DUSDinvestor[msg.sender].stakeTime = block.timestamp + 300 days */\n      dup2\n      swap1\n      sstore\n      pop\n        /* \"contracts/stake_reward_MLM.sol\":4182:4341  if(DUSDinvestor[msg.sender].totalInvestment == 0)... */\n    tag_139:\n        /* \"contracts/stake_reward_MLM.sol\":4355:4363  uint num */\n      0x00\n        /* \"contracts/stake_reward_MLM.sol\":4366:4378  DUSDinvestor */\n      0x0c\n        /* \"contracts/stake_reward_MLM.sol\":4366:4390  DUSDinvestor[msg.sender] */\n      0x00\n        /* \"contracts/stake_reward_MLM.sol\":4379:4389  msg.sender */\n      caller\n        /* \"contracts/stake_reward_MLM.sol\":4366:4390  DUSDinvestor[msg.sender] */\n      0xffffffffffffffffffffffffffffffffffffffff\n      and\n      0xffffffffffffffffffffffffffffffffffffffff\n      and\n      dup2\n      mstore\n      0x20\n      add\n      swap1\n      dup2\n      mstore\n      0x20\n      add\n      0x00\n      keccak256\n        /* \"contracts/stake_reward_MLM.sol\":4366:4405  DUSDinvestor[msg.sender].noOfInvestment */\n      0x05\n      add\n      sload\n        /* \"contracts/stake_reward_MLM.sol\":4355:4405  uint num = DUSDinvestor[msg.sender].noOfInvestment */\n      swap1\n      pop\n        /* \"contracts/stake_reward_MLM.sol\":4476:4491  _investedamount */\n      dup4\n        /* \"contracts/stake_reward_MLM.sol\":4419:4431  DUSDinvestor */\n      0x0c\n        /* \"contracts/stake_reward_MLM.sol\":4419:4443  DUSDinvestor[msg.sender] */\n      0x00\n        /* \"contracts/stake_reward_MLM.sol\":4432:4442  msg.sender */\n      caller\n        /* \"contracts/stake_reward_MLM.sol\":4419:4443  DUSDinvestor[msg.sender] */\n      0xffffffffffffffffffffffffffffffffffffffff\n      and\n      0xffffffffffffffffffffffffffffffffffffffff\n      and\n      dup2\n      mstore\n      0x20\n      add\n      swap1\n      dup2\n      mstore\n      0x20\n      add\n      0x00\n      keccak256\n        /* \"contracts/stake_reward_MLM.sol\":4419:4454  DUSDinvestor[msg.sender].investment */\n      0x00\n      add\n        /* \"contracts/stake_reward_MLM.sol\":4419:4459  DUSDinvestor[msg.sender].investment[num] */\n      0x00\n        /* \"contracts/stake_reward_MLM.sol\":4455:4458  num */\n      dup4\n        /* \"contracts/stake_reward_MLM.sol\":4419:4459  DUSDinvestor[msg.sender].investment[num] */\n      dup2\n      mstore\n      0x20\n      add\n      swap1\n      dup2\n      mstore\n      0x20\n      add\n      0x00\n      keccak256\n        /* \"contracts/stake_reward_MLM.sol\":4419:4474  DUSDinvestor[msg.sender].investment[num].investedAmount */\n      0x00\n      add\n        /* \"contracts/stake_reward_MLM.sol\":4419:4491  DUSDinvestor[msg.sender].investment[num].investedAmount =_investedamount */\n      dup2\n      swap1\n      sstore\n      pop\n        /* \"contracts/stake_reward_MLM.sol\":4558:4573  block.timestamp */\n      timestamp\n        /* \"contracts/stake_reward_MLM.sol\":4505:4517  DUSDinvestor */\n      0x0c\n        /* \"contracts/stake_reward_MLM.sol\":4505:4529  DUSDinvestor[msg.sender] */\n      0x00\n        /* \"contracts/stake_reward_MLM.sol\":4518:4528  msg.sender */\n      caller\n        /* \"contracts/stake_reward_MLM.sol\":4505:4529  DUSDinvestor[msg.sender] */\n      0xffffffffffffffffffffffffffffffffffffffff\n      and\n      0xffffffffffffffffffffffffffffffffffffffff\n      and\n      dup2\n      mstore\n      0x20\n      add\n      swap1\n      dup2\n      mstore\n      0x20\n      add\n      0x00\n      keccak256\n        /* \"contracts/stake_reward_MLM.sol\":4505:4540  DUSDinvestor[msg.sender].investment */\n      0x00\n      add\n        /* \"contracts/stake_reward_MLM.sol\":4505:4545  DUSDinvestor[msg.sender].investment[num] */\n      0x00\n        /* \"contracts/stake_reward_MLM.sol\":4541:4544  num */\n      dup4\n        /* \"contracts/stake_reward_MLM.sol\":4505:4545  DUSDinvestor[msg.sender].investment[num] */\n      dup2\n      mstore\n      0x20\n      add\n      swap1\n      dup2\n      mstore\n      0x20\n      add\n      0x00\n      keccak256\n        /* \"contracts/stake_reward_MLM.sol\":4505:4557  DUSDinvestor[msg.sender].investment[num].DepositTime */\n      0x02\n      add\n        /* \"contracts/stake_reward_MLM.sol\":4505:4573  DUSDinvestor[msg.sender].investment[num].DepositTime=block.timestamp */\n      dup2\n      swap1\n      sstore\n      pop\n        /* \"contracts/stake_reward_MLM.sol\":4660:4676  investmentPeriod */\n      sload(0x08)\n        /* \"contracts/stake_reward_MLM.sol\":4642:4657  block.timestamp */\n      timestamp\n        /* \"contracts/stake_reward_MLM.sol\":4642:4676  block.timestamp + investmentPeriod */\n      tag_142\n      swap2\n      swap1\n      tag_141\n      jump\t// in\n    tag_142:\n        /* \"contracts/stake_reward_MLM.sol\":4587:4599  DUSDinvestor */\n      0x0c\n        /* \"contracts/stake_reward_MLM.sol\":4587:4611  DUSDinvestor[msg.sender] */\n      0x00\n        /* \"contracts/stake_reward_MLM.sol\":4600:4610  msg.sender */\n      caller\n        /* \"contracts/stake_reward_MLM.sol\":4587:4611  DUSDinvestor[msg.sender] */\n      0xffffffffffffffffffffffffffffffffffffffff\n      and\n      0xffffffffffffffffffffffffffffffffffffffff\n      and\n      dup2\n      mstore\n      0x20\n      add\n      swap1\n      dup2\n      mstore\n      0x20\n      add\n      0x00\n      keccak256\n        /* \"contracts/stake_reward_MLM.sol\":4587:4622  DUSDinvestor[msg.sender].investment */\n      0x00\n      add\n        /* \"contracts/stake_reward_MLM.sol\":4587:4627  DUSDinvestor[msg.sender].investment[num] */\n      0x00\n        /* \"contracts/stake_reward_MLM.sol\":4623:4626  num */\n      dup4\n        /* \"contracts/stake_reward_MLM.sol\":4587:4627  DUSDinvestor[msg.sender].investment[num] */\n      dup2\n      mstore\n      0x20\n      add\n      swap1\n      dup2\n      mstore\n      0x20\n      add\n      0x00\n      keccak256\n        /* \"contracts/stake_reward_MLM.sol\":4587:4641  DUSDinvestor[msg.sender].investment[num].withdrawnTime */\n      0x01\n      add\n        /* \"contracts/stake_reward_MLM.sol\":4587:4676  DUSDinvestor[msg.sender].investment[num].withdrawnTime=block.timestamp + investmentPeriod */\n      dup2\n      swap1\n      sstore\n      pop\n        /* \"contracts/stake_reward_MLM.sol\":4759:4762  num */\n      dup1\n        /* \"contracts/stake_reward_MLM.sol\":4704:4716  DUSDinvestor */\n      0x0c\n        /* \"contracts/stake_reward_MLM.sol\":4704:4728  DUSDinvestor[msg.sender] */\n      0x00\n        /* \"contracts/stake_reward_MLM.sol\":4717:4727  msg.sender */\n      caller\n        /* \"contracts/stake_reward_MLM.sol\":4704:4728  DUSDinvestor[msg.sender] */\n      0xffffffffffffffffffffffffffffffffffffffff\n      and\n      0xffffffffffffffffffffffffffffffffffffffff\n      and\n      dup2\n      mstore\n      0x20\n      add\n      swap1\n      dup2\n      mstore\n      0x20\n      add\n      0x00\n      keccak256\n        /* \"contracts/stake_reward_MLM.sol\":4704:4739  DUSDinvestor[msg.sender].investment */\n      0x00\n      add\n        /* \"contracts/stake_reward_MLM.sol\":4704:4744  DUSDinvestor[msg.sender].investment[num] */\n      0x00\n        /* \"contracts/stake_reward_MLM.sol\":4740:4743  num */\n      dup4\n        /* \"contracts/stake_reward_MLM.sol\":4704:4744  DUSDinvestor[msg.sender].investment[num] */\n      dup2\n      mstore\n      0x20\n      add\n      swap1\n      dup2\n      mstore\n      0x20\n      add\n      0x00\n      keccak256\n        /* \"contracts/stake_reward_MLM.sol\":4704:4758  DUSDinvestor[msg.sender].investment[num].investmentNum */\n      0x03\n      add\n        /* \"contracts/stake_reward_MLM.sol\":4704:4762  DUSDinvestor[msg.sender].investment[num].investmentNum=num */\n      dup2\n      swap1\n      sstore\n      pop\n        /* \"contracts/stake_reward_MLM.sol\":4818:4833  _investedamount */\n      dup4\n        /* \"contracts/stake_reward_MLM.sol\":4776:4788  DUSDinvestor */\n      0x0c\n        /* \"contracts/stake_reward_MLM.sol\":4776:4800  DUSDinvestor[msg.sender] */\n      0x00\n        /* \"contracts/stake_reward_MLM.sol\":4789:4799  msg.sender */\n      caller\n        /* \"contracts/stake_reward_MLM.sol\":4776:4800  DUSDinvestor[msg.sender] */\n      0xffffffffffffffffffffffffffffffffffffffff\n      and\n      0xffffffffffffffffffffffffffffffffffffffff\n      and\n      dup2\n      mstore\n      0x20\n      add\n      swap1\n      dup2\n      mstore\n      0x20\n      add\n      0x00\n      keccak256\n        /* \"contracts/stake_reward_MLM.sol\":4776:4816  DUSDinvestor[msg.sender].totalInvestment */\n      0x06\n      add\n      0x00\n        /* \"contracts/stake_reward_MLM.sol\":4776:4833  DUSDinvestor[msg.sender].totalInvestment+=_investedamount */\n      dup3\n      dup3\n      sload\n      tag_143\n      swap2\n      swap1\n      tag_141\n      jump\t// in\n    tag_143:\n      swap3\n      pop\n      pop\n      dup2\n      swap1\n      sstore\n      pop\n        /* \"contracts/stake_reward_MLM.sol\":4847:4859  DUSDinvestor */\n      0x0c\n        /* \"contracts/stake_reward_MLM.sol\":4847:4871  DUSDinvestor[msg.sender] */\n      0x00\n        /* \"contracts/stake_reward_MLM.sol\":4860:4870  msg.sender */\n      caller\n        /* \"contracts/stake_reward_MLM.sol\":4847:4871  DUSDinvestor[msg.sender] */\n      0xffffffffffffffffffffffffffffffffffffffff\n      and\n      0xffffffffffffffffffffffffffffffffffffffff\n      and\n      dup2\n      mstore\n      0x20\n      add\n      swap1\n      dup2\n      mstore\n      0x20\n      add\n      0x00\n      keccak256\n        /* \"contracts/stake_reward_MLM.sol\":4847:4886  DUSDinvestor[msg.sender].noOfInvestment */\n      0x05\n      add\n      0x00\n        /* \"contracts/stake_reward_MLM.sol\":4847:4888  DUSDinvestor[msg.sender].noOfInvestment++ */\n      dup2\n      sload\n      dup1\n      swap3\n      swap2\n      swap1\n      tag_144\n      swap1\n      tag_138\n      jump\t// in\n    tag_144:\n      swap2\n      swap1\n      pop\n      sstore\n      pop\n        /* \"contracts/stake_reward_MLM.sol\":4917:4932  _investedamount */\n      dup4\n        /* \"contracts/stake_reward_MLM.sol\":4902:4915  totalbusiness */\n      0x09\n      0x00\n        /* \"contracts/stake_reward_MLM.sol\":4902:4932  totalbusiness+=_investedamount */\n      dup3\n      dup3\n      sload\n      tag_145\n      swap2\n      swap1\n      tag_141\n      jump\t// in\n    tag_145:\n      swap3\n      pop\n      pop\n      dup2\n      swap1\n      sstore\n      pop\n        /* \"contracts/stake_reward_MLM.sol\":4951:4962  SMCcontract */\n      0x01\n      0x00\n      swap1\n      sload\n      swap1\n      0x0100\n      exp\n      swap1\n      div\n      0xffffffffffffffffffffffffffffffffffffffff\n      and\n        /* \"contracts/stake_reward_MLM.sol\":4946:4976  DUSD(SMCcontract).transferFrom */\n      0xffffffffffffffffffffffffffffffffffffffff\n      and\n      0x23b872dd\n        /* \"contracts/stake_reward_MLM.sol\":4977:4987  msg.sender */\n      caller\n        /* \"contracts/stake_reward_MLM.sol\":4996:5000  this */\n      address\n        /* \"contracts/stake_reward_MLM.sol\":5018:5023  10**8 */\n      0x05f5e100\n        /* \"contracts/stake_reward_MLM.sol\":5002:5017  _investedamount */\n      dup9\n        /* \"contracts/stake_reward_MLM.sol\":5002:5023  _investedamount*10**8 */\n      tag_146\n      swap2\n      swap1\n      tag_147\n      jump\t// in\n    tag_146:\n        /* \"contracts/stake_reward_MLM.sol\":4946:5024  DUSD(SMCcontract).transferFrom(msg.sender,address(this),_investedamount*10**8) */\n      mload(0x40)\n      dup5\n      0xffffffff\n      and\n      0xe0\n      shl\n      dup2\n      mstore\n      0x04\n      add\n      tag_148\n      swap4\n      swap3\n      swap2\n      swap1\n      tag_149\n      jump\t// in\n    tag_148:\n      0x20\n      mload(0x40)\n      dup1\n      dup4\n      sub\n      dup2\n      0x00\n      dup8\n      dup1\n      extcodesize\n      iszero\n      dup1\n      iszero\n      tag_150\n      jumpi\n      0x00\n      dup1\n      revert\n    tag_150:\n      pop\n      gas\n      call\n      iszero\n      dup1\n      iszero\n      tag_152\n      jumpi\n      returndatasize\n      0x00\n      dup1\n      returndatacopy\n      revert(0x00, returndatasize)\n    tag_152:\n      pop\n      pop\n      pop\n      pop\n      mload(0x40)\n      returndatasize\n      not(0x1f)\n      0x1f\n      dup3\n      add\n      and\n      dup3\n      add\n      dup1\n      0x40\n      mstore\n      pop\n      dup2\n      add\n      swap1\n      tag_153\n      swap2\n      swap1\n      tag_154\n      jump\t// in\n    tag_153:\n      pop\n        /* \"contracts/stake_reward_MLM.sol\":5061:5062  0 */\n      0x00\n        /* \"contracts/stake_reward_MLM.sol\":5042:5063  _referral==address(0) */\n      0xffffffffffffffffffffffffffffffffffffffff\n      and\n        /* \"contracts/stake_reward_MLM.sol\":5042:5051  _referral */\n      dup4\n        /* \"contracts/stake_reward_MLM.sol\":5042:5063  _referral==address(0) */\n      0xffffffffffffffffffffffffffffffffffffffff\n      and\n      eq\n        /* \"contracts/stake_reward_MLM.sol\":5042:5088  _referral==address(0) || _referral==msg.sender */\n      dup1\n      tag_155\n      jumpi\n      pop\n        /* \"contracts/stake_reward_MLM.sol\":5078:5088  msg.sender */\n      caller\n        /* \"contracts/stake_reward_MLM.sol\":5067:5088  _referral==msg.sender */\n      0xffffffffffffffffffffffffffffffffffffffff\n      and\n        /* \"contracts/stake_reward_MLM.sol\":5067:5076  _referral */\n      dup4\n        /* \"contracts/stake_reward_MLM.sol\":5067:5088  _referral==msg.sender */\n      0xffffffffffffffffffffffffffffffffffffffff\n      and\n      eq\n        /* \"contracts/stake_reward_MLM.sol\":5042:5088  _referral==address(0) || _referral==msg.sender */\n    tag_155:\n        /* \"contracts/stake_reward_MLM.sol\":5039:5652  if(_referral==address(0) || _referral==msg.sender)                                         //checking that investor comes from the referral link or not... */\n      iszero\n      tag_156\n      jumpi\n        /* \"contracts/stake_reward_MLM.sol\":5270:5271  0 */\n      0x00\n        /* \"contracts/stake_reward_MLM.sol\":5222:5234  DUSDinvestor */\n      0x0c\n        /* \"contracts/stake_reward_MLM.sol\":5222:5246  DUSDinvestor[msg.sender] */\n      0x00\n        /* \"contracts/stake_reward_MLM.sol\":5235:5245  msg.sender */\n      caller\n        /* \"contracts/stake_reward_MLM.sol\":5222:5246  DUSDinvestor[msg.sender] */\n      0xffffffffffffffffffffffffffffffffffffffff\n      and\n      0xffffffffffffffffffffffffffffffffffffffff\n      and\n      dup2\n      mstore\n      0x20\n      add\n      swap1\n      dup2\n      mstore\n      0x20\n      add\n      0x00\n      keccak256\n        /* \"contracts/stake_reward_MLM.sol\":5222:5259  DUSDinvestor[msg.sender].referralFrom */\n      0x02\n      add\n      0x00\n        /* \"contracts/stake_reward_MLM.sol\":5222:5272  DUSDinvestor[msg.sender].referralFrom = address(0) */\n      0x0100\n      exp\n      dup2\n      sload\n      dup2\n      0xffffffffffffffffffffffffffffffffffffffff\n      mul\n      not\n      and\n      swap1\n      dup4\n      0xffffffffffffffffffffffffffffffffffffffff\n      and\n      mul\n      or\n      swap1\n      sstore\n      pop\n        /* \"contracts/stake_reward_MLM.sol\":5039:5652  if(_referral==address(0) || _referral==msg.sender)                                         //checking that investor comes from the referral link or not... */\n      jump(tag_157)\n    tag_156:\n        /* \"contracts/stake_reward_MLM.sol\":5392:5401  _referral */\n      dup3\n        /* \"contracts/stake_reward_MLM.sol\":5352:5364  DUSDinvestor */\n      0x0c\n        /* \"contracts/stake_reward_MLM.sol\":5352:5376  DUSDinvestor[msg.sender] */\n      0x00\n        /* \"contracts/stake_reward_MLM.sol\":5365:5375  msg.sender */\n      caller\n        /* \"contracts/stake_reward_MLM.sol\":5352:5376  DUSDinvestor[msg.sender] */\n      0xffffffffffffffffffffffffffffffffffffffff\n      and\n      0xffffffffffffffffffffffffffffffffffffffff\n      and\n      dup2\n      mstore\n      0x20\n      add\n      swap1\n      dup2\n      mstore\n      0x20\n      add\n      0x00\n      keccak256\n        /* \"contracts/stake_reward_MLM.sol\":5352:5389  DUSDinvestor[msg.sender].referralFrom */\n      0x02\n      add\n      0x00\n        /* \"contracts/stake_reward_MLM.sol\":5352:5401  DUSDinvestor[msg.sender].referralFrom = _referral */\n      0x0100\n      exp\n      dup2\n      sload\n      dup2\n      0xffffffffffffffffffffffffffffffffffffffff\n      mul\n      not\n      and\n      swap1\n      dup4\n      0xffffffffffffffffffffffffffffffffffffffff\n      and\n      mul\n      or\n      swap1\n      sstore\n      pop\n        /* \"contracts/stake_reward_MLM.sol\":5419:5431  DUSDinvestor */\n      0x0c\n        /* \"contracts/stake_reward_MLM.sol\":5419:5442  DUSDinvestor[_referral] */\n      0x00\n        /* \"contracts/stake_reward_MLM.sol\":5432:5441  _referral */\n      dup5\n        /* \"contracts/stake_reward_MLM.sol\":5419:5442  DUSDinvestor[_referral] */\n      0xffffffffffffffffffffffffffffffffffffffff\n      and\n      0xffffffffffffffffffffffffffffffffffffffff\n      and\n      dup2\n      mstore\n      0x20\n      add\n      swap1\n      dup2\n      mstore\n      0x20\n      add\n      0x00\n      keccak256\n        /* \"contracts/stake_reward_MLM.sol\":5419:5455  DUSDinvestor[_referral].hisReferrals */\n      0x01\n      add\n        /* \"contracts/stake_reward_MLM.sol\":5461:5471  msg.sender */\n      caller\n        /* \"contracts/stake_reward_MLM.sol\":5419:5472  DUSDinvestor[_referral].hisReferrals.push(msg.sender) */\n      swap1\n      dup1\n      0x01\n      dup2\n      sload\n      add\n      dup1\n      dup3\n      sstore\n      dup1\n      swap2\n      pop\n      pop\n      0x01\n      swap1\n      sub\n      swap1\n      0x00\n      mstore\n      keccak256(0x00, 0x20)\n      add\n      0x00\n      swap1\n      swap2\n      swap1\n      swap2\n      swap1\n      swap2\n      0x0100\n      exp\n      dup2\n      sload\n      dup2\n      0xffffffffffffffffffffffffffffffffffffffff\n      mul\n      not\n      and\n      swap1\n      dup4\n      0xffffffffffffffffffffffffffffffffffffffff\n      and\n      mul\n      or\n      swap1\n      sstore\n      pop\n        /* \"contracts/stake_reward_MLM.sol\":5490:5543  sendRewardToDUSDReferrals(msg.sender,_investedamount) */\n      tag_159\n        /* \"contracts/stake_reward_MLM.sol\":5516:5526  msg.sender */\n      caller\n        /* \"contracts/stake_reward_MLM.sol\":5527:5542  _investedamount */\n      dup6\n        /* \"contracts/stake_reward_MLM.sol\":5490:5515  sendRewardToDUSDReferrals */\n      tag_160\n        /* \"contracts/stake_reward_MLM.sol\":5490:5543  sendRewardToDUSDReferrals(msg.sender,_investedamount) */\n      jump\t// in\n    tag_159:\n        /* \"contracts/stake_reward_MLM.sol\":5039:5652  if(_referral==address(0) || _referral==msg.sender)                                         //checking that investor comes from the referral link or not... */\n    tag_157:\n        /* \"contracts/stake_reward_MLM.sol\":5703:5707  true */\n      0x01\n        /* \"contracts/stake_reward_MLM.sol\":5665:5677  DUSDinvestor */\n      0x0c\n        /* \"contracts/stake_reward_MLM.sol\":5665:5689  DUSDinvestor[msg.sender] */\n      0x00\n        /* \"contracts/stake_reward_MLM.sol\":5678:5688  msg.sender */\n      caller\n        /* \"contracts/stake_reward_MLM.sol\":5665:5689  DUSDinvestor[msg.sender] */\n      0xffffffffffffffffffffffffffffffffffffffff\n      and\n      0xffffffffffffffffffffffffffffffffffffffff\n      and\n      dup2\n      mstore\n      0x20\n      add\n      swap1\n      dup2\n      mstore\n      0x20\n      add\n      0x00\n      keccak256\n        /* \"contracts/stake_reward_MLM.sol\":5665:5702  DUSDinvestor[msg.sender].investBefore */\n      0x08\n      add\n      0x00\n        /* \"contracts/stake_reward_MLM.sol\":5665:5707  DUSDinvestor[msg.sender].investBefore=true */\n      0x0100\n      exp\n      dup2\n      sload\n      dup2\n      0xff\n      mul\n      not\n      and\n      swap1\n      dup4\n      iszero\n      iszero\n      mul\n      or\n      swap1\n      sstore\n      pop\n        /* \"contracts/stake_reward_MLM.sol\":5729:5733  true */\n      0x01\n        /* \"contracts/stake_reward_MLM.sol\":5722:5733  return true */\n      swap2\n      pop\n      pop\n        /* \"contracts/stake_reward_MLM.sol\":3692:5757  function Stake(uint _investedamount,address _referral) external returns(bool success){... */\n      swap3\n      swap2\n      pop\n      pop\n      jump\t// out\n        /* \"contracts/stake_reward_MLM.sol\":11154:11265  function set_min_Stake_amount(uint _amount) public ... */\n    tag_54:\n        /* \"contracts/stake_reward_MLM.sol\":11247:11254  _amount */\n      dup1\n        /* \"contracts/stake_reward_MLM.sol\":11228:11244  min_Stake_amount */\n      0x05\n        /* \"contracts/stake_reward_MLM.sol\":11228:11254  min_Stake_amount = _amount */\n      dup2\n      swap1\n      sstore\n      pop\n        /* \"contracts/stake_reward_MLM.sol\":11154:11265  function set_min_Stake_amount(uint _amount) public ... */\n      pop\n      jump\t// out\n        /* \"contracts/stake_reward_MLM.sol\":9577:10560  function getAllDUSDinvestments() public view returns (allInvestments[] memory) { //this function will return the all investments of the investor and withware date... */\n    tag_56:\n        /* \"contracts/stake_reward_MLM.sol\":9631:9654  allInvestments[] memory */\n      0x60\n        /* \"contracts/stake_reward_MLM.sol\":9752:9760  uint num */\n      0x00\n        /* \"contracts/stake_reward_MLM.sol\":9763:9775  DUSDinvestor */\n      0x0c\n        /* \"contracts/stake_reward_MLM.sol\":9763:9787  DUSDinvestor[msg.sender] */\n      0x00\n        /* \"contracts/stake_reward_MLM.sol\":9776:9786  msg.sender */\n      caller\n        /* \"contracts/stake_reward_MLM.sol\":9763:9787  DUSDinvestor[msg.sender] */\n      0xffffffffffffffffffffffffffffffffffffffff\n      and\n      0xffffffffffffffffffffffffffffffffffffffff\n      and\n      dup2\n      mstore\n      0x20\n      add\n      swap1\n      dup2\n      mstore\n      0x20\n      add\n      0x00\n      keccak256\n        /* \"contracts/stake_reward_MLM.sol\":9763:9802  DUSDinvestor[msg.sender].noOfInvestment */\n      0x05\n      add\n      sload\n        /* \"contracts/stake_reward_MLM.sol\":9752:9802  uint num = DUSDinvestor[msg.sender].noOfInvestment */\n      swap1\n      pop\n        /* \"contracts/stake_reward_MLM.sol\":9816:9825  uint temp */\n      0x00\n        /* \"contracts/stake_reward_MLM.sol\":9839:9856  uint currentIndex */\n      dup1\n        /* \"contracts/stake_reward_MLM.sol\":9887:9893  uint i */\n      0x00\n        /* \"contracts/stake_reward_MLM.sol\":9883:10059  for(uint i=0;i<num;i++)... */\n    tag_163:\n        /* \"contracts/stake_reward_MLM.sol\":9898:9901  num */\n      dup4\n        /* \"contracts/stake_reward_MLM.sol\":9896:9897  i */\n      dup2\n        /* \"contracts/stake_reward_MLM.sol\":9896:9901  i<num */\n      lt\n        /* \"contracts/stake_reward_MLM.sol\":9883:10059  for(uint i=0;i<num;i++)... */\n      iszero\n      tag_164\n      jumpi\n        /* \"contracts/stake_reward_MLM.sol\":9996:9997  0 */\n      0x00\n        /* \"contracts/stake_reward_MLM.sol\":9940:9952  DUSDinvestor */\n      0x0c\n        /* \"contracts/stake_reward_MLM.sol\":9940:9964  DUSDinvestor[msg.sender] */\n      0x00\n        /* \"contracts/stake_reward_MLM.sol\":9953:9963  msg.sender */\n      caller\n        /* \"contracts/stake_reward_MLM.sol\":9940:9964  DUSDinvestor[msg.sender] */\n      0xffffffffffffffffffffffffffffffffffffffff\n      and\n      0xffffffffffffffffffffffffffffffffffffffff\n      and\n      dup2\n      mstore\n      0x20\n      add\n      swap1\n      dup2\n      mstore\n      0x20\n      add\n      0x00\n      keccak256\n        /* \"contracts/stake_reward_MLM.sol\":9940:9975  DUSDinvestor[msg.sender].investment */\n      0x00\n      add\n        /* \"contracts/stake_reward_MLM.sol\":9940:9978  DUSDinvestor[msg.sender].investment[i] */\n      0x00\n        /* \"contracts/stake_reward_MLM.sol\":9976:9977  i */\n      dup4\n        /* \"contracts/stake_reward_MLM.sol\":9940:9978  DUSDinvestor[msg.sender].investment[i] */\n      dup2\n      mstore\n      0x20\n      add\n      swap1\n      dup2\n      mstore\n      0x20\n      add\n      0x00\n      keccak256\n        /* \"contracts/stake_reward_MLM.sol\":9940:9993  DUSDinvestor[msg.sender].investment[i].investedAmount */\n      0x00\n      add\n      sload\n        /* \"contracts/stake_reward_MLM.sol\":9940:9997  DUSDinvestor[msg.sender].investment[i].investedAmount > 0 */\n      gt\n        /* \"contracts/stake_reward_MLM.sol\":9936:10044  if( DUSDinvestor[msg.sender].investment[i].investedAmount > 0 ){... */\n      iszero\n      tag_166\n      jumpi\n        /* \"contracts/stake_reward_MLM.sol\":10020:10026  temp++ */\n      dup3\n      dup1\n      tag_167\n      swap1\n      tag_138\n      jump\t// in\n    tag_167:\n      swap4\n      pop\n      pop\n        /* \"contracts/stake_reward_MLM.sol\":9936:10044  if( DUSDinvestor[msg.sender].investment[i].investedAmount > 0 ){... */\n    tag_166:\n        /* \"contracts/stake_reward_MLM.sol\":9902:9905  i++ */\n      dup1\n      dup1\n      tag_168\n      swap1\n      tag_138\n      jump\t// in\n    tag_168:\n      swap2\n      pop\n      pop\n        /* \"contracts/stake_reward_MLM.sol\":9883:10059  for(uint i=0;i<num;i++)... */\n      jump(tag_163)\n    tag_164:\n      pop\n        /* \"contracts/stake_reward_MLM.sol\":10082:10114  allInvestments[] memory Invested */\n      0x00\n        /* \"contracts/stake_reward_MLM.sol\":10139:10143  temp */\n      dup3\n        /* \"contracts/stake_reward_MLM.sol\":10118:10144  new allInvestments[](temp) */\n      0xffffffffffffffff\n      dup2\n      gt\n      iszero\n      tag_169\n      jumpi\n      tag_170\n      tag_171\n      jump\t// in\n    tag_170:\n    tag_169:\n      mload(0x40)\n      swap1\n      dup1\n      dup3\n      mstore\n      dup1\n      0x20\n      mul\n      0x20\n      add\n      dup3\n      add\n      0x40\n      mstore\n      dup1\n      iszero\n      tag_172\n      jumpi\n      dup2\n      0x20\n      add\n    tag_173:\n      tag_174\n      tag_175\n      jump\t// in\n    tag_174:\n      dup2\n      mstore\n      0x20\n      add\n      swap1\n      0x01\n      swap1\n      sub\n      swap1\n      dup2\n      tag_173\n      jumpi\n      swap1\n      pop\n    tag_172:\n      pop\n        /* \"contracts/stake_reward_MLM.sol\":10082:10144  allInvestments[] memory Invested =  new allInvestments[](temp) */\n      swap1\n      pop\n        /* \"contracts/stake_reward_MLM.sol\":10164:10170  uint i */\n      0x00\n        /* \"contracts/stake_reward_MLM.sol\":10160:10520  for(uint i=0;i<num;i++)... */\n    tag_176:\n        /* \"contracts/stake_reward_MLM.sol\":10175:10178  num */\n      dup5\n        /* \"contracts/stake_reward_MLM.sol\":10173:10174  i */\n      dup2\n        /* \"contracts/stake_reward_MLM.sol\":10173:10178  i<num */\n      lt\n        /* \"contracts/stake_reward_MLM.sol\":10160:10520  for(uint i=0;i<num;i++)... */\n      iszero\n      tag_177\n      jumpi\n        /* \"contracts/stake_reward_MLM.sol\":10273:10274  0 */\n      0x00\n        /* \"contracts/stake_reward_MLM.sol\":10217:10229  DUSDinvestor */\n      0x0c\n        /* \"contracts/stake_reward_MLM.sol\":10217:10241  DUSDinvestor[msg.sender] */\n      0x00\n        /* \"contracts/stake_reward_MLM.sol\":10230:10240  msg.sender */\n      caller\n        /* \"contracts/stake_reward_MLM.sol\":10217:10241  DUSDinvestor[msg.sender] */\n      0xffffffffffffffffffffffffffffffffffffffff\n      and\n      0xffffffffffffffffffffffffffffffffffffffff\n      and\n      dup2\n      mstore\n      0x20\n      add\n      swap1\n      dup2\n      mstore\n      0x20\n      add\n      0x00\n      keccak256\n        /* \"contracts/stake_reward_MLM.sol\":10217:10252  DUSDinvestor[msg.sender].investment */\n      0x00\n      add\n        /* \"contracts/stake_reward_MLM.sol\":10217:10255  DUSDinvestor[msg.sender].investment[i] */\n      0x00\n        /* \"contracts/stake_reward_MLM.sol\":10253:10254  i */\n      dup4\n        /* \"contracts/stake_reward_MLM.sol\":10217:10255  DUSDinvestor[msg.sender].investment[i] */\n      dup2\n      mstore\n      0x20\n      add\n      swap1\n      dup2\n      mstore\n      0x20\n      add\n      0x00\n      keccak256\n        /* \"contracts/stake_reward_MLM.sol\":10217:10270  DUSDinvestor[msg.sender].investment[i].investedAmount */\n      0x00\n      add\n      sload\n        /* \"contracts/stake_reward_MLM.sol\":10217:10274  DUSDinvestor[msg.sender].investment[i].investedAmount > 0 */\n      gt\n        /* \"contracts/stake_reward_MLM.sol\":10213:10505  if( DUSDinvestor[msg.sender].investment[i].investedAmount > 0 ){... */\n      iszero\n      tag_179\n      jumpi\n        /* \"contracts/stake_reward_MLM.sol\":10414:10426  DUSDinvestor */\n      0x0c\n        /* \"contracts/stake_reward_MLM.sol\":10414:10438  DUSDinvestor[msg.sender] */\n      0x00\n        /* \"contracts/stake_reward_MLM.sol\":10427:10437  msg.sender */\n      caller\n        /* \"contracts/stake_reward_MLM.sol\":10414:10438  DUSDinvestor[msg.sender] */\n      0xffffffffffffffffffffffffffffffffffffffff\n      and\n      0xffffffffffffffffffffffffffffffffffffffff\n      and\n      dup2\n      mstore\n      0x20\n      add\n      swap1\n      dup2\n      mstore\n      0x20\n      add\n      0x00\n      keccak256\n        /* \"contracts/stake_reward_MLM.sol\":10414:10449  DUSDinvestor[msg.sender].investment */\n      0x00\n      add\n        /* \"contracts/stake_reward_MLM.sol\":10414:10452  DUSDinvestor[msg.sender].investment[i] */\n      0x00\n        /* \"contracts/stake_reward_MLM.sol\":10450:10451  i */\n      dup3\n        /* \"contracts/stake_reward_MLM.sol\":10414:10452  DUSDinvestor[msg.sender].investment[i] */\n      dup2\n      mstore\n      0x20\n      add\n      swap1\n      dup2\n      mstore\n      0x20\n      add\n      0x00\n      keccak256\n        /* \"contracts/stake_reward_MLM.sol\":10391:10452  Invested[currentIndex]=DUSDinvestor[msg.sender].investment[i] */\n      mload(0x40)\n      dup1\n      0xc0\n      add\n      0x40\n      mstore\n      swap1\n      dup2\n      0x00\n      dup3\n      add\n      sload\n      dup2\n      mstore\n      0x20\n      add\n      0x01\n      dup3\n      add\n      sload\n      dup2\n      mstore\n      0x20\n      add\n      0x02\n      dup3\n      add\n      sload\n      dup2\n      mstore\n      0x20\n      add\n      0x03\n      dup3\n      add\n      sload\n      dup2\n      mstore\n      0x20\n      add\n      0x04\n      dup3\n      add\n      sload\n      dup2\n      mstore\n      0x20\n      add\n      0x05\n      dup3\n      add\n      0x00\n      swap1\n      sload\n      swap1\n      0x0100\n      exp\n      swap1\n      div\n      0xff\n      and\n      iszero\n      iszero\n      iszero\n      iszero\n      dup2\n      mstore\n      pop\n      pop\n        /* \"contracts/stake_reward_MLM.sol\":10391:10399  Invested */\n      dup3\n        /* \"contracts/stake_reward_MLM.sol\":10400:10412  currentIndex */\n      dup5\n        /* \"contracts/stake_reward_MLM.sol\":10391:10413  Invested[currentIndex] */\n      dup2\n      mload\n      dup2\n      lt\n      tag_180\n      jumpi\n      tag_181\n      tag_182\n      jump\t// in\n    tag_181:\n    tag_180:\n      0x20\n      mul\n      0x20\n      add\n      add\n        /* \"contracts/stake_reward_MLM.sol\":10391:10452  Invested[currentIndex]=DUSDinvestor[msg.sender].investment[i] */\n      dup2\n      swap1\n      mstore\n      pop\n        /* \"contracts/stake_reward_MLM.sol\":10473:10487  currentIndex++ */\n      dup3\n      dup1\n      tag_183\n      swap1\n      tag_138\n      jump\t// in\n    tag_183:\n      swap4\n      pop\n      pop\n        /* \"contracts/stake_reward_MLM.sol\":10213:10505  if( DUSDinvestor[msg.sender].investment[i].investedAmount > 0 ){... */\n    tag_179:\n        /* \"contracts/stake_reward_MLM.sol\":10179:10182  i++ */\n      dup1\n      dup1\n      tag_184\n      swap1\n      tag_138\n      jump\t// in\n    tag_184:\n      swap2\n      pop\n      pop\n        /* \"contracts/stake_reward_MLM.sol\":10160:10520  for(uint i=0;i<num;i++)... */\n      jump(tag_176)\n    tag_177:\n      pop\n        /* \"contracts/stake_reward_MLM.sol\":10540:10548  Invested */\n      dup1\n        /* \"contracts/stake_reward_MLM.sol\":10533:10548  return Invested */\n      swap5\n      pop\n      pop\n      pop\n      pop\n      pop\n        /* \"contracts/stake_reward_MLM.sol\":9577:10560  function getAllDUSDinvestments() public view returns (allInvestments[] memory) { //this function will return the all investments of the investor and withware date... */\n      swap1\n      jump\t// out\n        /* \"contracts/stake_reward_MLM.sol\":5767:6957  function getReward() view public returns(uint){ //this function is get the total reward balance of the investor... */\n    tag_60:\n        /* \"contracts/stake_reward_MLM.sol\":5808:5812  uint */\n      0x00\n        /* \"contracts/stake_reward_MLM.sol\":5891:5907  uint totalReward */\n      dup1\n        /* \"contracts/stake_reward_MLM.sol\":5921:5933  uint depTime */\n      0x00\n        /* \"contracts/stake_reward_MLM.sol\":5947:5955  uint rew */\n      dup1\n        /* \"contracts/stake_reward_MLM.sol\":5969:5978  uint temp */\n      0x00\n        /* \"contracts/stake_reward_MLM.sol\":5981:5993  DUSDinvestor */\n      0x0c\n        /* \"contracts/stake_reward_MLM.sol\":5981:6005  DUSDinvestor[msg.sender] */\n      0x00\n        /* \"contracts/stake_reward_MLM.sol\":5994:6004  msg.sender */\n      caller\n        /* \"contracts/stake_reward_MLM.sol\":5981:6005  DUSDinvestor[msg.sender] */\n      0xffffffffffffffffffffffffffffffffffffffff\n      and\n      0xffffffffffffffffffffffffffffffffffffffff\n      and\n      dup2\n      mstore\n      0x20\n      add\n      swap1\n      dup2\n      mstore\n      0x20\n      add\n      0x00\n      keccak256\n        /* \"contracts/stake_reward_MLM.sol\":5981:6020  DUSDinvestor[msg.sender].noOfInvestment */\n      0x05\n      add\n      sload\n        /* \"contracts/stake_reward_MLM.sol\":5969:6020  uint temp = DUSDinvestor[msg.sender].noOfInvestment */\n      swap1\n      pop\n        /* \"contracts/stake_reward_MLM.sol\":6039:6045  uint i */\n      0x00\n        /* \"contracts/stake_reward_MLM.sol\":6034:6840  for( uint i = 0;i < temp;i++)... */\n    tag_186:\n        /* \"contracts/stake_reward_MLM.sol\":6054:6058  temp */\n      dup2\n        /* \"contracts/stake_reward_MLM.sol\":6050:6051  i */\n      dup2\n        /* \"contracts/stake_reward_MLM.sol\":6050:6058  i < temp */\n      lt\n        /* \"contracts/stake_reward_MLM.sol\":6034:6840  for( uint i = 0;i < temp;i++)... */\n      iszero\n      tag_187\n      jumpi\n        /* \"contracts/stake_reward_MLM.sol\":6101:6113  DUSDinvestor */\n      0x0c\n        /* \"contracts/stake_reward_MLM.sol\":6101:6125  DUSDinvestor[msg.sender] */\n      0x00\n        /* \"contracts/stake_reward_MLM.sol\":6114:6124  msg.sender */\n      caller\n        /* \"contracts/stake_reward_MLM.sol\":6101:6125  DUSDinvestor[msg.sender] */\n      0xffffffffffffffffffffffffffffffffffffffff\n      and\n      0xffffffffffffffffffffffffffffffffffffffff\n      and\n      dup2\n      mstore\n      0x20\n      add\n      swap1\n      dup2\n      mstore\n      0x20\n      add\n      0x00\n      keccak256\n        /* \"contracts/stake_reward_MLM.sol\":6101:6136  DUSDinvestor[msg.sender].investment */\n      0x00\n      add\n        /* \"contracts/stake_reward_MLM.sol\":6101:6139  DUSDinvestor[msg.sender].investment[i] */\n      0x00\n        /* \"contracts/stake_reward_MLM.sol\":6137:6138  i */\n      dup3\n        /* \"contracts/stake_reward_MLM.sol\":6101:6139  DUSDinvestor[msg.sender].investment[i] */\n      dup2\n      mstore\n      0x20\n      add\n      swap1\n      dup2\n      mstore\n      0x20\n      add\n      0x00\n      keccak256\n        /* \"contracts/stake_reward_MLM.sol\":6101:6147  DUSDinvestor[msg.sender].investment[i].unstake */\n      0x05\n      add\n      0x00\n      swap1\n      sload\n      swap1\n      0x0100\n      exp\n      swap1\n      div\n      0xff\n      and\n        /* \"contracts/stake_reward_MLM.sol\":6097:6457  if(!DUSDinvestor[msg.sender].investment[i].unstake)... */\n      tag_189\n      jumpi\n        /* \"contracts/stake_reward_MLM.sol\":6214:6226  DUSDinvestor */\n      0x0c\n        /* \"contracts/stake_reward_MLM.sol\":6214:6238  DUSDinvestor[msg.sender] */\n      0x00\n        /* \"contracts/stake_reward_MLM.sol\":6227:6237  msg.sender */\n      caller\n        /* \"contracts/stake_reward_MLM.sol\":6214:6238  DUSDinvestor[msg.sender] */\n      0xffffffffffffffffffffffffffffffffffffffff\n      and\n      0xffffffffffffffffffffffffffffffffffffffff\n      and\n      dup2\n      mstore\n      0x20\n      add\n      swap1\n      dup2\n      mstore\n      0x20\n      add\n      0x00\n      keccak256\n        /* \"contracts/stake_reward_MLM.sol\":6214:6249  DUSDinvestor[msg.sender].investment */\n      0x00\n      add\n        /* \"contracts/stake_reward_MLM.sol\":6214:6252  DUSDinvestor[msg.sender].investment[i] */\n      0x00\n        /* \"contracts/stake_reward_MLM.sol\":6250:6251  i */\n      dup3\n        /* \"contracts/stake_reward_MLM.sol\":6214:6252  DUSDinvestor[msg.sender].investment[i] */\n      dup2\n      mstore\n      0x20\n      add\n      swap1\n      dup2\n      mstore\n      0x20\n      add\n      0x00\n      keccak256\n        /* \"contracts/stake_reward_MLM.sol\":6214:6264  DUSDinvestor[msg.sender].investment[i].DepositTime */\n      0x02\n      add\n      sload\n        /* \"contracts/stake_reward_MLM.sol\":6196:6211  block.timestamp */\n      timestamp\n        /* \"contracts/stake_reward_MLM.sol\":6196:6264  block.timestamp - DUSDinvestor[msg.sender].investment[i].DepositTime */\n      tag_190\n      swap2\n      swap1\n      tag_191\n      jump\t// in\n    tag_190:\n        /* \"contracts/stake_reward_MLM.sol\":6187:6264  depTime =block.timestamp - DUSDinvestor[msg.sender].investment[i].DepositTime */\n      swap4\n      pop\n        /* \"contracts/stake_reward_MLM.sol\":6097:6457  if(!DUSDinvestor[msg.sender].investment[i].unstake)... */\n      jump(tag_192)\n    tag_189:\n        /* \"contracts/stake_reward_MLM.sol\":6388:6400  DUSDinvestor */\n      0x0c\n        /* \"contracts/stake_reward_MLM.sol\":6388:6412  DUSDinvestor[msg.sender] */\n      0x00\n        /* \"contracts/stake_reward_MLM.sol\":6401:6411  msg.sender */\n      caller\n        /* \"contracts/stake_reward_MLM.sol\":6388:6412  DUSDinvestor[msg.sender] */\n      0xffffffffffffffffffffffffffffffffffffffff\n      and\n      0xffffffffffffffffffffffffffffffffffffffff\n      and\n      dup2\n      mstore\n      0x20\n      add\n      swap1\n      dup2\n      mstore\n      0x20\n      add\n      0x00\n      keccak256\n        /* \"contracts/stake_reward_MLM.sol\":6388:6423  DUSDinvestor[msg.sender].investment */\n      0x00\n      add\n        /* \"contracts/stake_reward_MLM.sol\":6388:6426  DUSDinvestor[msg.sender].investment[i] */\n      0x00\n        /* \"contracts/stake_reward_MLM.sol\":6424:6425  i */\n      dup3\n        /* \"contracts/stake_reward_MLM.sol\":6388:6426  DUSDinvestor[msg.sender].investment[i] */\n      dup2\n      mstore\n      0x20\n      add\n      swap1\n      dup2\n      mstore\n      0x20\n      add\n      0x00\n      keccak256\n        /* \"contracts/stake_reward_MLM.sol\":6388:6438  DUSDinvestor[msg.sender].investment[i].DepositTime */\n      0x02\n      add\n      sload\n        /* \"contracts/stake_reward_MLM.sol\":6335:6347  DUSDinvestor */\n      0x0c\n        /* \"contracts/stake_reward_MLM.sol\":6335:6359  DUSDinvestor[msg.sender] */\n      0x00\n        /* \"contracts/stake_reward_MLM.sol\":6348:6358  msg.sender */\n      caller\n        /* \"contracts/stake_reward_MLM.sol\":6335:6359  DUSDinvestor[msg.sender] */\n      0xffffffffffffffffffffffffffffffffffffffff\n      and\n      0xffffffffffffffffffffffffffffffffffffffff\n      and\n      dup2\n      mstore\n      0x20\n      add\n      swap1\n      dup2\n      mstore\n      0x20\n      add\n      0x00\n      keccak256\n        /* \"contracts/stake_reward_MLM.sol\":6335:6370  DUSDinvestor[msg.sender].investment */\n      0x00\n      add\n        /* \"contracts/stake_reward_MLM.sol\":6335:6373  DUSDinvestor[msg.sender].investment[i] */\n      0x00\n        /* \"contracts/stake_reward_MLM.sol\":6371:6372  i */\n      dup4\n        /* \"contracts/stake_reward_MLM.sol\":6335:6373  DUSDinvestor[msg.sender].investment[i] */\n      dup2\n      mstore\n      0x20\n      add\n      swap1\n      dup2\n      mstore\n      0x20\n      add\n      0x00\n      keccak256\n        /* \"contracts/stake_reward_MLM.sol\":6335:6385  DUSDinvestor[msg.sender].investment[i].unstakeTime */\n      0x04\n      add\n      sload\n        /* \"contracts/stake_reward_MLM.sol\":6335:6438  DUSDinvestor[msg.sender].investment[i].unstakeTime - DUSDinvestor[msg.sender].investment[i].DepositTime */\n      tag_193\n      swap2\n      swap1\n      tag_191\n      jump\t// in\n    tag_193:\n        /* \"contracts/stake_reward_MLM.sol\":6326:6438  depTime =DUSDinvestor[msg.sender].investment[i].unstakeTime - DUSDinvestor[msg.sender].investment[i].DepositTime */\n      swap4\n      pop\n        /* \"contracts/stake_reward_MLM.sol\":6097:6457  if(!DUSDinvestor[msg.sender].investment[i].unstake)... */\n    tag_192:\n        /* \"contracts/stake_reward_MLM.sol\":6490:6492  60 */\n      0x3c\n        /* \"contracts/stake_reward_MLM.sol\":6482:6489  depTime */\n      dup5\n        /* \"contracts/stake_reward_MLM.sol\":6482:6492  depTime/60 */\n      tag_194\n      swap2\n      swap1\n      tag_195\n      jump\t// in\n    tag_194:\n        /* \"contracts/stake_reward_MLM.sol\":6474:6492  depTime=depTime/60 */\n      swap4\n      pop\n        /* \"contracts/stake_reward_MLM.sol\":6529:6530  0 */\n      0x00\n        /* \"contracts/stake_reward_MLM.sol\":6521:6528  depTime */\n      dup5\n        /* \"contracts/stake_reward_MLM.sol\":6521:6530  depTime>0 */\n      gt\n        /* \"contracts/stake_reward_MLM.sol\":6518:6826  if(depTime>0)... */\n      iszero\n      tag_196\n      jumpi\n        /* \"contracts/stake_reward_MLM.sol\":6751:6756  10000 */\n      0x2710\n        /* \"contracts/stake_reward_MLM.sol\":6747:6749  50 */\n      0x32\n        /* \"contracts/stake_reward_MLM.sol\":6692:6704  DUSDinvestor */\n      0x0c\n        /* \"contracts/stake_reward_MLM.sol\":6692:6716  DUSDinvestor[msg.sender] */\n      0x00\n        /* \"contracts/stake_reward_MLM.sol\":6705:6715  msg.sender */\n      caller\n        /* \"contracts/stake_reward_MLM.sol\":6692:6716  DUSDinvestor[msg.sender] */\n      0xffffffffffffffffffffffffffffffffffffffff\n      and\n      0xffffffffffffffffffffffffffffffffffffffff\n      and\n      dup2\n      mstore\n      0x20\n      add\n      swap1\n      dup2\n      mstore\n      0x20\n      add\n      0x00\n      keccak256\n        /* \"contracts/stake_reward_MLM.sol\":6692:6727  DUSDinvestor[msg.sender].investment */\n      0x00\n      add\n        /* \"contracts/stake_reward_MLM.sol\":6692:6730  DUSDinvestor[msg.sender].investment[i] */\n      0x00\n        /* \"contracts/stake_reward_MLM.sol\":6728:6729  i */\n      dup5\n        /* \"contracts/stake_reward_MLM.sol\":6692:6730  DUSDinvestor[msg.sender].investment[i] */\n      dup2\n      mstore\n      0x20\n      add\n      swap1\n      dup2\n      mstore\n      0x20\n      add\n      0x00\n      keccak256\n        /* \"contracts/stake_reward_MLM.sol\":6692:6745  DUSDinvestor[msg.sender].investment[i].investedAmount */\n      0x00\n      add\n      sload\n        /* \"contracts/stake_reward_MLM.sol\":6691:6749  (DUSDinvestor[msg.sender].investment[i].investedAmount)*50 */\n      tag_197\n      swap2\n      swap1\n      tag_147\n      jump\t// in\n    tag_197:\n        /* \"contracts/stake_reward_MLM.sol\":6690:6756  ((DUSDinvestor[msg.sender].investment[i].investedAmount)*50)/10000 */\n      tag_198\n      swap2\n      swap1\n      tag_195\n      jump\t// in\n    tag_198:\n        /* \"contracts/stake_reward_MLM.sol\":6683:6756  rew  = ((DUSDinvestor[msg.sender].investment[i].investedAmount)*50)/10000 */\n      swap3\n      pop\n        /* \"contracts/stake_reward_MLM.sol\":6804:6807  rew */\n      dup3\n        /* \"contracts/stake_reward_MLM.sol\":6794:6801  depTime */\n      dup5\n        /* \"contracts/stake_reward_MLM.sol\":6794:6807  depTime * rew */\n      tag_199\n      swap2\n      swap1\n      tag_147\n      jump\t// in\n    tag_199:\n        /* \"contracts/stake_reward_MLM.sol\":6779:6807  totalReward += depTime * rew */\n      dup6\n      tag_200\n      swap2\n      swap1\n      tag_141\n      jump\t// in\n    tag_200:\n      swap5\n      pop\n        /* \"contracts/stake_reward_MLM.sol\":6518:6826  if(depTime>0)... */\n    tag_196:\n        /* \"contracts/stake_reward_MLM.sol\":6059:6062  i++ */\n      dup1\n      dup1\n      tag_201\n      swap1\n      tag_138\n      jump\t// in\n    tag_201:\n      swap2\n      pop\n      pop\n        /* \"contracts/stake_reward_MLM.sol\":6034:6840  for( uint i = 0;i < temp;i++)... */\n      jump(tag_186)\n    tag_187:\n      pop\n        /* \"contracts/stake_reward_MLM.sol\":6868:6880  DUSDinvestor */\n      0x0c\n        /* \"contracts/stake_reward_MLM.sol\":6868:6892  DUSDinvestor[msg.sender] */\n      0x00\n        /* \"contracts/stake_reward_MLM.sol\":6881:6891  msg.sender */\n      caller\n        /* \"contracts/stake_reward_MLM.sol\":6868:6892  DUSDinvestor[msg.sender] */\n      0xffffffffffffffffffffffffffffffffffffffff\n      and\n      0xffffffffffffffffffffffffffffffffffffffff\n      and\n      dup2\n      mstore\n      0x20\n      add\n      swap1\n      dup2\n      mstore\n      0x20\n      add\n      0x00\n      keccak256\n        /* \"contracts/stake_reward_MLM.sol\":6868:6913  DUSDinvestor[msg.sender].totalWithdraw_reward */\n      0x07\n      add\n      sload\n        /* \"contracts/stake_reward_MLM.sol\":6853:6913  totalReward -= DUSDinvestor[msg.sender].totalWithdraw_reward */\n      dup5\n      tag_202\n      swap2\n      swap1\n      tag_191\n      jump\t// in\n    tag_202:\n      swap4\n      pop\n        /* \"contracts/stake_reward_MLM.sol\":6935:6946  totalReward */\n      dup4\n        /* \"contracts/stake_reward_MLM.sol\":6928:6946  return totalReward */\n      swap5\n      pop\n      pop\n      pop\n      pop\n      pop\n        /* \"contracts/stake_reward_MLM.sol\":5767:6957  function getReward() view public returns(uint){ //this function is get the total reward balance of the investor... */\n      swap1\n      jump\t// out\n        /* \"contracts/stake_reward_MLM.sol\":13013:13152  function Admin_data() view public returns(uint){... */\n    tag_63:\n        /* \"contracts/stake_reward_MLM.sol\":13055:13059  uint */\n      0x00\n        /* \"contracts/stake_reward_MLM.sol\":13078:13084  uint i */\n      dup1\n        /* \"contracts/stake_reward_MLM.sol\":13085:13086  0 */\n      0x00\n        /* \"contracts/stake_reward_MLM.sol\":13078:13086  uint i=0 */\n      swap1\n      pop\n        /* \"contracts/stake_reward_MLM.sol\":13074:13141  for(uint i=0;i<totalDUSDInvestors;i++)... */\n    tag_204:\n        /* \"contracts/stake_reward_MLM.sol\":13089:13107  totalDUSDInvestors */\n      sload(0x03)\n        /* \"contracts/stake_reward_MLM.sol\":13087:13088  i */\n      dup2\n        /* \"contracts/stake_reward_MLM.sol\":13087:13107  i<totalDUSDInvestors */\n      lt\n        /* \"contracts/stake_reward_MLM.sol\":13074:13141  for(uint i=0;i<totalDUSDInvestors;i++)... */\n      iszero\n      tag_205\n      jumpi\n        /* \"contracts/stake_reward_MLM.sol\":13108:13111  i++ */\n      dup1\n      dup1\n      tag_207\n      swap1\n      tag_138\n      jump\t// in\n    tag_207:\n      swap2\n      pop\n      pop\n        /* \"contracts/stake_reward_MLM.sol\":13074:13141  for(uint i=0;i<totalDUSDInvestors;i++)... */\n      jump(tag_204)\n    tag_205:\n      pop\n        /* \"contracts/stake_reward_MLM.sol\":13013:13152  function Admin_data() view public returns(uint){... */\n      swap1\n      jump\t// out\n        /* \"contracts/stake_reward_MLM.sol\":11394:11676  function set_values(uint min_stake,uint max_stake,uint reward_per_day,uint _denomenator) public ... */\n    tag_68:\n        /* \"contracts/stake_reward_MLM.sol\":11532:11541  max_stake */\n      dup3\n        /* \"contracts/stake_reward_MLM.sol\":11513:11529  max_Stake_amount */\n      0x06\n        /* \"contracts/stake_reward_MLM.sol\":11513:11541  max_Stake_amount = max_stake */\n      dup2\n      swap1\n      sstore\n      pop\n        /* \"contracts/stake_reward_MLM.sol\":11574:11583  min_stake */\n      dup4\n        /* \"contracts/stake_reward_MLM.sol\":11555:11571  min_Stake_amount */\n      0x05\n        /* \"contracts/stake_reward_MLM.sol\":11555:11583  min_Stake_amount = min_stake */\n      dup2\n      swap1\n      sstore\n      pop\n        /* \"contracts/stake_reward_MLM.sol\":11611:11625  reward_per_day */\n      dup2\n        /* \"contracts/stake_reward_MLM.sol\":11597:11608  rewardToken */\n      0x04\n        /* \"contracts/stake_reward_MLM.sol\":11597:11625  rewardToken = reward_per_day */\n      dup2\n      swap1\n      sstore\n      pop\n        /* \"contracts/stake_reward_MLM.sol\":11653:11665  _denomenator */\n      dup1\n        /* \"contracts/stake_reward_MLM.sol\":11639:11650  denomenator */\n      0x07\n        /* \"contracts/stake_reward_MLM.sol\":11639:11665  denomenator = _denomenator */\n      dup2\n      swap1\n      sstore\n      pop\n        /* \"contracts/stake_reward_MLM.sol\":11394:11676  function set_values(uint min_stake,uint max_stake,uint reward_per_day,uint _denomenator) public ... */\n      pop\n      pop\n      pop\n      pop\n      jump\t// out\n        /* \"contracts/stake_reward_MLM.sol\":11274:11385  function set_max_Stake_amount(uint _amount) public ... */\n    tag_71:\n        /* \"contracts/stake_reward_MLM.sol\":11367:11374  _amount */\n      dup1\n        /* \"contracts/stake_reward_MLM.sol\":11348:11364  max_Stake_amount */\n      0x06\n        /* \"contracts/stake_reward_MLM.sol\":11348:11374  max_Stake_amount = _amount */\n      dup2\n      swap1\n      sstore\n      pop\n        /* \"contracts/stake_reward_MLM.sol\":11274:11385  function set_max_Stake_amount(uint _amount) public ... */\n      pop\n      jump\t// out\n        /* \"contracts/stake_reward_MLM.sol\":1057:1100  mapping(uint=>address) public All_investors */\n    tag_74:\n      mstore(0x20, 0x0b)\n      dup1\n      0x00\n      mstore\n      keccak256(0x00, 0x40)\n      0x00\n      swap2\n      pop\n      sload\n      swap1\n      0x0100\n      exp\n      swap1\n      div\n      0xffffffffffffffffffffffffffffffffffffffff\n      and\n      dup2\n      jump\t// out\n        /* \"contracts/stake_reward_MLM.sol\":946:983  uint public investmentPeriod=300 days */\n    tag_78:\n      sload(0x08)\n      dup2\n      jump\t// out\n        /* \"contracts/stake_reward_MLM.sol\":7795:9347  function unStake() external  returns (bool success){... */\n    tag_81:\n        /* \"contracts/stake_reward_MLM.sol\":7833:7845  bool success */\n      0x00\n        /* \"contracts/stake_reward_MLM.sol\":7909:7910  0 */\n      dup1\n        /* \"contracts/stake_reward_MLM.sol\":7868:7880  DUSDinvestor */\n      0x0c\n        /* \"contracts/stake_reward_MLM.sol\":7868:7892  DUSDinvestor[msg.sender] */\n      0x00\n        /* \"contracts/stake_reward_MLM.sol\":7881:7891  msg.sender */\n      caller\n        /* \"contracts/stake_reward_MLM.sol\":7868:7892  DUSDinvestor[msg.sender] */\n      0xffffffffffffffffffffffffffffffffffffffff\n      and\n      0xffffffffffffffffffffffffffffffffffffffff\n      and\n      dup2\n      mstore\n      0x20\n      add\n      swap1\n      dup2\n      mstore\n      0x20\n      add\n      0x00\n      keccak256\n        /* \"contracts/stake_reward_MLM.sol\":7868:7908  DUSDinvestor[msg.sender].totalInvestment */\n      0x06\n      add\n      sload\n        /* \"contracts/stake_reward_MLM.sol\":7868:7910  DUSDinvestor[msg.sender].totalInvestment>0 */\n      gt\n        /* \"contracts/stake_reward_MLM.sol\":7860:7951  require(DUSDinvestor[msg.sender].totalInvestment>0,\"you dont have investment to withdrawn\") */\n      tag_211\n      jumpi\n      mload(0x40)\n      0x08c379a000000000000000000000000000000000000000000000000000000000\n      dup2\n      mstore\n      0x04\n      add\n      tag_212\n      swap1\n      tag_213\n      jump\t// in\n    tag_212:\n      mload(0x40)\n      dup1\n      swap2\n      sub\n      swap1\n      revert\n    tag_211:\n        /* \"contracts/stake_reward_MLM.sol\":8023:8034  uint amount */\n      0x00\n        /* \"contracts/stake_reward_MLM.sol\":8035:8047  DUSDinvestor */\n      0x0c\n        /* \"contracts/stake_reward_MLM.sol\":8035:8059  DUSDinvestor[msg.sender] */\n      0x00\n        /* \"contracts/stake_reward_MLM.sol\":8048:8058  msg.sender */\n      caller\n        /* \"contracts/stake_reward_MLM.sol\":8035:8059  DUSDinvestor[msg.sender] */\n      0xffffffffffffffffffffffffffffffffffffffff\n      and\n      0xffffffffffffffffffffffffffffffffffffffff\n      and\n      dup2\n      mstore\n      0x20\n      add\n      swap1\n      dup2\n      mstore\n      0x20\n      add\n      0x00\n      keccak256\n        /* \"contracts/stake_reward_MLM.sol\":8035:8075  DUSDinvestor[msg.sender].totalInvestment */\n      0x06\n      add\n      sload\n        /* \"contracts/stake_reward_MLM.sol\":8023:8075  uint amount=DUSDinvestor[msg.sender].totalInvestment */\n      swap1\n      pop\n        /* \"contracts/stake_reward_MLM.sol\":8089:8098  uint temp */\n      0x00\n        /* \"contracts/stake_reward_MLM.sol\":8101:8113  DUSDinvestor */\n      0x0c\n        /* \"contracts/stake_reward_MLM.sol\":8101:8125  DUSDinvestor[msg.sender] */\n      0x00\n        /* \"contracts/stake_reward_MLM.sol\":8114:8124  msg.sender */\n      caller\n        /* \"contracts/stake_reward_MLM.sol\":8101:8125  DUSDinvestor[msg.sender] */\n      0xffffffffffffffffffffffffffffffffffffffff\n      and\n      0xffffffffffffffffffffffffffffffffffffffff\n      and\n      dup2\n      mstore\n      0x20\n      add\n      swap1\n      dup2\n      mstore\n      0x20\n      add\n      0x00\n      keccak256\n        /* \"contracts/stake_reward_MLM.sol\":8101:8140  DUSDinvestor[msg.sender].noOfInvestment */\n      0x05\n      add\n      sload\n        /* \"contracts/stake_reward_MLM.sol\":8089:8140  uint temp = DUSDinvestor[msg.sender].noOfInvestment */\n      swap1\n      pop\n        /* \"contracts/stake_reward_MLM.sol\":8154:8163  uint from */\n      0x00\n        /* \"contracts/stake_reward_MLM.sol\":8166:8179  rew_till_done */\n      sload(0x0a)\n        /* \"contracts/stake_reward_MLM.sol\":8154:8179  uint from = rew_till_done */\n      swap1\n      pop\n        /* \"contracts/stake_reward_MLM.sol\":8193:8206  uint amount30 */\n      0x00\n        /* \"contracts/stake_reward_MLM.sol\":8220:8233  uint amount70 */\n      dup1\n        /* \"contracts/stake_reward_MLM.sol\":8287:8302  block.timestamp */\n      timestamp\n        /* \"contracts/stake_reward_MLM.sol\":8250:8262  DUSDinvestor */\n      0x0c\n        /* \"contracts/stake_reward_MLM.sol\":8250:8274  DUSDinvestor[msg.sender] */\n      0x00\n        /* \"contracts/stake_reward_MLM.sol\":8263:8273  msg.sender */\n      caller\n        /* \"contracts/stake_reward_MLM.sol\":8250:8274  DUSDinvestor[msg.sender] */\n      0xffffffffffffffffffffffffffffffffffffffff\n      and\n      0xffffffffffffffffffffffffffffffffffffffff\n      and\n      dup2\n      mstore\n      0x20\n      add\n      swap1\n      dup2\n      mstore\n      0x20\n      add\n      0x00\n      keccak256\n        /* \"contracts/stake_reward_MLM.sol\":8250:8284  DUSDinvestor[msg.sender].stakeTime */\n      0x09\n      add\n      sload\n        /* \"contracts/stake_reward_MLM.sol\":8250:8302  DUSDinvestor[msg.sender].stakeTime > block.timestamp */\n      gt\n        /* \"contracts/stake_reward_MLM.sol\":8247:8803  if(DUSDinvestor[msg.sender].stakeTime > block.timestamp)... */\n      iszero\n      tag_214\n      jumpi\n        /* \"contracts/stake_reward_MLM.sol\":8357:8360  100 */\n      0x64\n        /* \"contracts/stake_reward_MLM.sol\":8353:8355  30 */\n      0x1e\n        /* \"contracts/stake_reward_MLM.sol\":8346:8352  amount */\n      dup7\n        /* \"contracts/stake_reward_MLM.sol\":8346:8355  amount*30 */\n      tag_215\n      swap2\n      swap1\n      tag_147\n      jump\t// in\n    tag_215:\n        /* \"contracts/stake_reward_MLM.sol\":8345:8360  (amount*30)/100 */\n      tag_216\n      swap2\n      swap1\n      tag_195\n      jump\t// in\n    tag_216:\n        /* \"contracts/stake_reward_MLM.sol\":8334:8360  amount30 = (amount*30)/100 */\n      swap2\n      pop\n        /* \"contracts/stake_reward_MLM.sol\":8401:8404  100 */\n      0x64\n        /* \"contracts/stake_reward_MLM.sol\":8397:8399  70 */\n      0x46\n        /* \"contracts/stake_reward_MLM.sol\":8390:8396  amount */\n      dup7\n        /* \"contracts/stake_reward_MLM.sol\":8390:8399  amount*70 */\n      tag_217\n      swap2\n      swap1\n      tag_147\n      jump\t// in\n    tag_217:\n        /* \"contracts/stake_reward_MLM.sol\":8389:8404  (amount*70)/100 */\n      tag_218\n      swap2\n      swap1\n      tag_195\n      jump\t// in\n    tag_218:\n        /* \"contracts/stake_reward_MLM.sol\":8378:8404  amount70 = (amount*70)/100 */\n      swap1\n      pop\n        /* \"contracts/stake_reward_MLM.sol\":8427:8438  SMCcontract */\n      0x01\n      0x00\n      swap1\n      sload\n      swap1\n      0x0100\n      exp\n      swap1\n      div\n      0xffffffffffffffffffffffffffffffffffffffff\n      and\n        /* \"contracts/stake_reward_MLM.sol\":8422:8448  DUSD(SMCcontract).transfer */\n      0xffffffffffffffffffffffffffffffffffffffff\n      and\n      0xa9059cbb\n        /* \"contracts/stake_reward_MLM.sol\":8449:8459  msg.sender */\n      caller\n        /* \"contracts/stake_reward_MLM.sol\":8471:8476  10**8 */\n      0x05f5e100\n        /* \"contracts/stake_reward_MLM.sol\":8460:8468  amount30 */\n      dup6\n        /* \"contracts/stake_reward_MLM.sol\":8460:8476  amount30 * 10**8 */\n      tag_219\n      swap2\n      swap1\n      tag_147\n      jump\t// in\n    tag_219:\n        /* \"contracts/stake_reward_MLM.sol\":8422:8477  DUSD(SMCcontract).transfer(msg.sender,amount30 * 10**8) */\n      mload(0x40)\n      dup4\n      0xffffffff\n      and\n      0xe0\n      shl\n      dup2\n      mstore\n      0x04\n      add\n      tag_220\n      swap3\n      swap2\n      swap1\n      tag_221\n      jump\t// in\n    tag_220:\n      0x20\n      mload(0x40)\n      dup1\n      dup4\n      sub\n      dup2\n      0x00\n      dup8\n      dup1\n      extcodesize\n      iszero\n      dup1\n      iszero\n      tag_222\n      jumpi\n      0x00\n      dup1\n      revert\n    tag_222:\n      pop\n      gas\n      call\n      iszero\n      dup1\n      iszero\n      tag_224\n      jumpi\n      returndatasize\n      0x00\n      dup1\n      returndatacopy\n      revert(0x00, returndatasize)\n    tag_224:\n      pop\n      pop\n      pop\n      pop\n      mload(0x40)\n      returndatasize\n      not(0x1f)\n      0x1f\n      dup3\n      add\n      and\n      dup3\n      add\n      dup1\n      0x40\n      mstore\n      pop\n      dup2\n      add\n      swap1\n      tag_225\n      swap2\n      swap1\n      tag_154\n      jump\t// in\n    tag_225:\n      pop\n        /* \"contracts/stake_reward_MLM.sol\":8568:8579  SMCcontract */\n      0x01\n      0x00\n      swap1\n      sload\n      swap1\n      0x0100\n      exp\n      swap1\n      div\n      0xffffffffffffffffffffffffffffffffffffffff\n      and\n        /* \"contracts/stake_reward_MLM.sol\":8563:8589  DUSD(SMCcontract).transfer */\n      0xffffffffffffffffffffffffffffffffffffffff\n      and\n      0xa9059cbb\n        /* \"contracts/stake_reward_MLM.sol\":8590:8595  owner */\n      0x00\n      dup1\n      sload\n      swap1\n      0x0100\n      exp\n      swap1\n      div\n      0xffffffffffffffffffffffffffffffffffffffff\n      and\n        /* \"contracts/stake_reward_MLM.sol\":8607:8612  10**8 */\n      0x05f5e100\n        /* \"contracts/stake_reward_MLM.sol\":8596:8604  amount70 */\n      dup5\n        /* \"contracts/stake_reward_MLM.sol\":8596:8612  amount70 * 10**8 */\n      tag_226\n      swap2\n      swap1\n      tag_147\n      jump\t// in\n    tag_226:\n        /* \"contracts/stake_reward_MLM.sol\":8563:8613  DUSD(SMCcontract).transfer(owner,amount70 * 10**8) */\n      mload(0x40)\n      dup4\n      0xffffffff\n      and\n      0xe0\n      shl\n      dup2\n      mstore\n      0x04\n      add\n      tag_227\n      swap3\n      swap2\n      swap1\n      tag_221\n      jump\t// in\n    tag_227:\n      0x20\n      mload(0x40)\n      dup1\n      dup4\n      sub\n      dup2\n      0x00\n      dup8\n      dup1\n      extcodesize\n      iszero\n      dup1\n      iszero\n      tag_228\n      jumpi\n      0x00\n      dup1\n      revert\n    tag_228:\n      pop\n      gas\n      call\n      iszero\n      dup1\n      iszero\n      tag_230\n      jumpi\n      returndatasize\n      0x00\n      dup1\n      returndatacopy\n      revert(0x00, returndatasize)\n    tag_230:\n      pop\n      pop\n      pop\n      pop\n      mload(0x40)\n      returndatasize\n      not(0x1f)\n      0x1f\n      dup3\n      add\n      and\n      dup3\n      add\n      dup1\n      0x40\n      mstore\n      pop\n      dup2\n      add\n      swap1\n      tag_231\n      swap2\n      swap1\n      tag_154\n      jump\t// in\n    tag_231:\n      pop\n        /* \"contracts/stake_reward_MLM.sol\":8247:8803  if(DUSDinvestor[msg.sender].stakeTime > block.timestamp)... */\n      jump(tag_232)\n    tag_214:\n        /* \"contracts/stake_reward_MLM.sol\":8673:8684  SMCcontract */\n      0x01\n      0x00\n      swap1\n      sload\n      swap1\n      0x0100\n      exp\n      swap1\n      div\n      0xffffffffffffffffffffffffffffffffffffffff\n      and\n        /* \"contracts/stake_reward_MLM.sol\":8668:8694  DUSD(SMCcontract).transfer */\n      0xffffffffffffffffffffffffffffffffffffffff\n      and\n      0xa9059cbb\n        /* \"contracts/stake_reward_MLM.sol\":8695:8705  msg.sender */\n      caller\n        /* \"contracts/stake_reward_MLM.sol\":8714:8719  10**8 */\n      0x05f5e100\n        /* \"contracts/stake_reward_MLM.sol\":8706:8712  amount */\n      dup9\n        /* \"contracts/stake_reward_MLM.sol\":8706:8719  amount* 10**8 */\n      tag_233\n      swap2\n      swap1\n      tag_147\n      jump\t// in\n    tag_233:\n        /* \"contracts/stake_reward_MLM.sol\":8668:8720  DUSD(SMCcontract).transfer(msg.sender,amount* 10**8) */\n      mload(0x40)\n      dup4\n      0xffffffff\n      and\n      0xe0\n      shl\n      dup2\n      mstore\n      0x04\n      add\n      tag_234\n      swap3\n      swap2\n      swap1\n      tag_221\n      jump\t// in\n    tag_234:\n      0x20\n      mload(0x40)\n      dup1\n      dup4\n      sub\n      dup2\n      0x00\n      dup8\n      dup1\n      extcodesize\n      iszero\n      dup1\n      iszero\n      tag_235\n      jumpi\n      0x00\n      dup1\n      revert\n    tag_235:\n      pop\n      gas\n      call\n      iszero\n      dup1\n      iszero\n      tag_237\n      jumpi\n      returndatasize\n      0x00\n      dup1\n      returndatacopy\n      revert(0x00, returndatasize)\n    tag_237:\n      pop\n      pop\n      pop\n      pop\n      mload(0x40)\n      returndatasize\n      not(0x1f)\n      0x1f\n      dup3\n      add\n      and\n      dup3\n      add\n      dup1\n      0x40\n      mstore\n      pop\n      dup2\n      add\n      swap1\n      tag_238\n      swap2\n      swap1\n      tag_154\n      jump\t// in\n    tag_238:\n      pop\n        /* \"contracts/stake_reward_MLM.sol\":8247:8803  if(DUSDinvestor[msg.sender].stakeTime > block.timestamp)... */\n    tag_232:\n        /* \"contracts/stake_reward_MLM.sol\":8826:8827  0 */\n      0x00\n        /* \"contracts/stake_reward_MLM.sol\":8821:8827  from=0 */\n      swap3\n      pop\n        /* \"contracts/stake_reward_MLM.sol\":8816:9078  for( from=0;from < temp;from++)... */\n    tag_239:\n        /* \"contracts/stake_reward_MLM.sol\":8835:8839  temp */\n      dup4\n        /* \"contracts/stake_reward_MLM.sol\":8828:8832  from */\n      dup4\n        /* \"contracts/stake_reward_MLM.sol\":8828:8839  from < temp */\n      lt\n        /* \"contracts/stake_reward_MLM.sol\":8816:9078  for( from=0;from < temp;from++)... */\n      iszero\n      tag_240\n      jumpi\n        /* \"contracts/stake_reward_MLM.sol\":8932:8936  true */\n      0x01\n        /* \"contracts/stake_reward_MLM.sol\":8881:8893  DUSDinvestor */\n      0x0c\n        /* \"contracts/stake_reward_MLM.sol\":8881:8905  DUSDinvestor[msg.sender] */\n      0x00\n        /* \"contracts/stake_reward_MLM.sol\":8894:8904  msg.sender */\n      caller\n        /* \"contracts/stake_reward_MLM.sol\":8881:8905  DUSDinvestor[msg.sender] */\n      0xffffffffffffffffffffffffffffffffffffffff\n      and\n      0xffffffffffffffffffffffffffffffffffffffff\n      and\n      dup2\n      mstore\n      0x20\n      add\n      swap1\n      dup2\n      mstore\n      0x20\n      add\n      0x00\n      keccak256\n        /* \"contracts/stake_reward_MLM.sol\":8881:8916  DUSDinvestor[msg.sender].investment */\n      0x00\n      add\n        /* \"contracts/stake_reward_MLM.sol\":8881:8922  DUSDinvestor[msg.sender].investment[from] */\n      0x00\n        /* \"contracts/stake_reward_MLM.sol\":8917:8921  from */\n      dup6\n        /* \"contracts/stake_reward_MLM.sol\":8881:8922  DUSDinvestor[msg.sender].investment[from] */\n      dup2\n      mstore\n      0x20\n      add\n      swap1\n      dup2\n      mstore\n      0x20\n      add\n      0x00\n      keccak256\n        /* \"contracts/stake_reward_MLM.sol\":8881:8930  DUSDinvestor[msg.sender].investment[from].unstake */\n      0x05\n      add\n      0x00\n        /* \"contracts/stake_reward_MLM.sol\":8881:8936  DUSDinvestor[msg.sender].investment[from].unstake =true */\n      0x0100\n      exp\n      dup2\n      sload\n      dup2\n      0xff\n      mul\n      not\n      and\n      swap1\n      dup4\n      iszero\n      iszero\n      mul\n      or\n      swap1\n      sstore\n      pop\n        /* \"contracts/stake_reward_MLM.sol\":9013:9028  block.timestamp */\n      timestamp\n        /* \"contracts/stake_reward_MLM.sol\":8958:8970  DUSDinvestor */\n      0x0c\n        /* \"contracts/stake_reward_MLM.sol\":8958:8982  DUSDinvestor[msg.sender] */\n      0x00\n        /* \"contracts/stake_reward_MLM.sol\":8971:8981  msg.sender */\n      caller\n        /* \"contracts/stake_reward_MLM.sol\":8958:8982  DUSDinvestor[msg.sender] */\n      0xffffffffffffffffffffffffffffffffffffffff\n      and\n      0xffffffffffffffffffffffffffffffffffffffff\n      and\n      dup2\n      mstore\n      0x20\n      add\n      swap1\n      dup2\n      mstore\n      0x20\n      add\n      0x00\n      keccak256\n        /* \"contracts/stake_reward_MLM.sol\":8958:8993  DUSDinvestor[msg.sender].investment */\n      0x00\n      add\n        /* \"contracts/stake_reward_MLM.sol\":8958:8999  DUSDinvestor[msg.sender].investment[from] */\n      0x00\n        /* \"contracts/stake_reward_MLM.sol\":8994:8998  from */\n      dup6\n        /* \"contracts/stake_reward_MLM.sol\":8958:8999  DUSDinvestor[msg.sender].investment[from] */\n      dup2\n      mstore\n      0x20\n      add\n      swap1\n      dup2\n      mstore\n      0x20\n      add\n      0x00\n      keccak256\n        /* \"contracts/stake_reward_MLM.sol\":8958:9011  DUSDinvestor[msg.sender].investment[from].unstakeTime */\n      0x04\n      add\n        /* \"contracts/stake_reward_MLM.sol\":8958:9028  DUSDinvestor[msg.sender].investment[from].unstakeTime =block.timestamp */\n      dup2\n      swap1\n      sstore\n      pop\n        /* \"contracts/stake_reward_MLM.sol\":8840:8846  from++ */\n      dup3\n      dup1\n      tag_242\n      swap1\n      tag_138\n      jump\t// in\n    tag_242:\n      swap4\n      pop\n      pop\n        /* \"contracts/stake_reward_MLM.sol\":8816:9078  for( from=0;from < temp;from++)... */\n      jump(tag_239)\n    tag_240:\n        /* \"contracts/stake_reward_MLM.sol\":9106:9118  DUSDinvestor */\n      0x0c\n        /* \"contracts/stake_reward_MLM.sol\":9106:9130  DUSDinvestor[msg.sender] */\n      0x00\n        /* \"contracts/stake_reward_MLM.sol\":9119:9129  msg.sender */\n      caller\n        /* \"contracts/stake_reward_MLM.sol\":9106:9130  DUSDinvestor[msg.sender] */\n      0xffffffffffffffffffffffffffffffffffffffff\n      and\n      0xffffffffffffffffffffffffffffffffffffffff\n      and\n      dup2\n      mstore\n      0x20\n      add\n      swap1\n      dup2\n      mstore\n      0x20\n      add\n      0x00\n      keccak256\n        /* \"contracts/stake_reward_MLM.sol\":9106:9145  DUSDinvestor[msg.sender].noOfInvestment */\n      0x05\n      add\n      sload\n        /* \"contracts/stake_reward_MLM.sol\":9091:9104  rew_till_done */\n      0x0a\n        /* \"contracts/stake_reward_MLM.sol\":9091:9145  rew_till_done =DUSDinvestor[msg.sender].noOfInvestment */\n      dup2\n      swap1\n      sstore\n      pop\n        /* \"contracts/stake_reward_MLM.sol\":9239:9240  0 */\n      0x00\n        /* \"contracts/stake_reward_MLM.sol\":9198:9210  DUSDinvestor */\n      0x0c\n        /* \"contracts/stake_reward_MLM.sol\":9198:9222  DUSDinvestor[msg.sender] */\n      0x00\n        /* \"contracts/stake_reward_MLM.sol\":9211:9221  msg.sender */\n      caller\n        /* \"contracts/stake_reward_MLM.sol\":9198:9222  DUSDinvestor[msg.sender] */\n      0xffffffffffffffffffffffffffffffffffffffff\n      and\n      0xffffffffffffffffffffffffffffffffffffffff\n      and\n      dup2\n      mstore\n      0x20\n      add\n      swap1\n      dup2\n      mstore\n      0x20\n      add\n      0x00\n      keccak256\n        /* \"contracts/stake_reward_MLM.sol\":9198:9238  DUSDinvestor[msg.sender].totalInvestment */\n      0x06\n      add\n        /* \"contracts/stake_reward_MLM.sol\":9198:9240  DUSDinvestor[msg.sender].totalInvestment=0 */\n      dup2\n      swap1\n      sstore\n      pop\n        /* \"contracts/stake_reward_MLM.sol\":9331:9335  true */\n      0x01\n        /* \"contracts/stake_reward_MLM.sol\":9324:9335  return true */\n      swap6\n      pop\n      pop\n      pop\n      pop\n      pop\n      pop\n        /* \"contracts/stake_reward_MLM.sol\":7795:9347  function unStake() external  returns (bool success){... */\n      swap1\n      jump\t// out\n        /* \"contracts/stake_reward_MLM.sol\":300:321  address  public owner */\n    tag_84:\n      0x00\n      dup1\n      sload\n      swap1\n      0x0100\n      exp\n      swap1\n      div\n      0xffffffffffffffffffffffffffffffffffffffff\n      and\n      dup2\n      jump\t// out\n        /* \"contracts/stake_reward_MLM.sol\":9357:9567  function getTotalInvestmentDUSD() public view returns(uint) {   //this function is to get the total investment of the ivestor... */\n    tag_87:\n        /* \"contracts/stake_reward_MLM.sol\":9411:9415  uint */\n      0x00\n        /* \"contracts/stake_reward_MLM.sol\":9515:9527  DUSDinvestor */\n      0x0c\n        /* \"contracts/stake_reward_MLM.sol\":9515:9539  DUSDinvestor[msg.sender] */\n      0x00\n        /* \"contracts/stake_reward_MLM.sol\":9528:9538  msg.sender */\n      caller\n        /* \"contracts/stake_reward_MLM.sol\":9515:9539  DUSDinvestor[msg.sender] */\n      0xffffffffffffffffffffffffffffffffffffffff\n      and\n      0xffffffffffffffffffffffffffffffffffffffff\n      and\n      dup2\n      mstore\n      0x20\n      add\n      swap1\n      dup2\n      mstore\n      0x20\n      add\n      0x00\n      keccak256\n        /* \"contracts/stake_reward_MLM.sol\":9515:9555  DUSDinvestor[msg.sender].totalInvestment */\n      0x06\n      add\n      sload\n        /* \"contracts/stake_reward_MLM.sol\":9508:9555  return DUSDinvestor[msg.sender].totalInvestment */\n      swap1\n      pop\n        /* \"contracts/stake_reward_MLM.sol\":9357:9567  function getTotalInvestmentDUSD() public view returns(uint) {   //this function is to get the total investment of the ivestor... */\n      swap1\n      jump\t// out\n        /* \"contracts/stake_reward_MLM.sol\":878:908  uint public denomenator=100000 */\n    tag_90:\n      sload(0x07)\n      dup2\n      jump\t// out\n        /* \"contracts/stake_reward_MLM.sol\":10991:11145  function setReward(uint _amount,uint _denomenator) public ... */\n    tag_95:\n        /* \"contracts/stake_reward_MLM.sol\":11086:11093  _amount */\n      dup2\n        /* \"contracts/stake_reward_MLM.sol\":11072:11083  rewardToken */\n      0x04\n        /* \"contracts/stake_reward_MLM.sol\":11072:11093  rewardToken = _amount */\n      dup2\n      swap1\n      sstore\n      pop\n        /* \"contracts/stake_reward_MLM.sol\":11121:11133  _denomenator */\n      dup1\n        /* \"contracts/stake_reward_MLM.sol\":11107:11118  denomenator */\n      0x07\n        /* \"contracts/stake_reward_MLM.sol\":11107:11133  denomenator = _denomenator */\n      dup2\n      swap1\n      sstore\n      pop\n        /* \"contracts/stake_reward_MLM.sol\":10991:11145  function setReward(uint _amount,uint _denomenator) public ... */\n      pop\n      pop\n      jump\t// out\n        /* \"contracts/stake_reward_MLM.sol\":11869:12434  function referralLevel_earning() public view returns( uint[] memory arr )... */\n    tag_97:\n        /* \"contracts/stake_reward_MLM.sol\":11923:11940  uint[] memory arr */\n      0x60\n        /* \"contracts/stake_reward_MLM.sol\":11965:12000  uint[] memory referralLevels_reward */\n      0x00\n        /* \"contracts/stake_reward_MLM.sol\":12012:12014  20 */\n      0x14\n        /* \"contracts/stake_reward_MLM.sol\":12001:12015  new uint[](20) */\n      0xffffffffffffffff\n      dup2\n      gt\n      iszero\n      tag_246\n      jumpi\n      tag_247\n      tag_171\n      jump\t// in\n    tag_247:\n    tag_246:\n      mload(0x40)\n      swap1\n      dup1\n      dup3\n      mstore\n      dup1\n      0x20\n      mul\n      0x20\n      add\n      dup3\n      add\n      0x40\n      mstore\n      dup1\n      iszero\n      tag_248\n      jumpi\n      dup2\n      0x20\n      add\n      0x20\n      dup3\n      mul\n      dup1\n      calldatasize\n      dup4\n      calldatacopy\n      dup1\n      dup3\n      add\n      swap2\n      pop\n      pop\n      swap1\n      pop\n    tag_248:\n      pop\n        /* \"contracts/stake_reward_MLM.sol\":11965:12015  uint[] memory referralLevels_reward=new uint[](20) */\n      swap1\n      pop\n        /* \"contracts/stake_reward_MLM.sol\":12033:12039  uint i */\n      0x00\n        /* \"contracts/stake_reward_MLM.sol\":12029:12379  for(uint i=0;i<20;i++)... */\n    tag_249:\n        /* \"contracts/stake_reward_MLM.sol\":12044:12046  20 */\n      0x14\n        /* \"contracts/stake_reward_MLM.sol\":12042:12043  i */\n      dup2\n        /* \"contracts/stake_reward_MLM.sol\":12042:12046  i<20 */\n      lt\n        /* \"contracts/stake_reward_MLM.sol\":12029:12379  for(uint i=0;i<20;i++)... */\n      iszero\n      tag_250\n      jumpi\n        /* \"contracts/stake_reward_MLM.sol\":12134:12135  0 */\n      0x00\n        /* \"contracts/stake_reward_MLM.sol\":12085:12097  DUSDinvestor */\n      0x0c\n        /* \"contracts/stake_reward_MLM.sol\":12085:12109  DUSDinvestor[msg.sender] */\n      0x00\n        /* \"contracts/stake_reward_MLM.sol\":12098:12108  msg.sender */\n      caller\n        /* \"contracts/stake_reward_MLM.sol\":12085:12109  DUSDinvestor[msg.sender] */\n      0xffffffffffffffffffffffffffffffffffffffff\n      and\n      0xffffffffffffffffffffffffffffffffffffffff\n      and\n      dup2\n      mstore\n      0x20\n      add\n      swap1\n      dup2\n      mstore\n      0x20\n      add\n      0x00\n      keccak256\n        /* \"contracts/stake_reward_MLM.sol\":12085:12123  DUSDinvestor[msg.sender].referralLevel */\n      0x03\n      add\n        /* \"contracts/stake_reward_MLM.sol\":12085:12126  DUSDinvestor[msg.sender].referralLevel[i] */\n      0x00\n        /* \"contracts/stake_reward_MLM.sol\":12124:12125  i */\n      dup4\n        /* \"contracts/stake_reward_MLM.sol\":12085:12126  DUSDinvestor[msg.sender].referralLevel[i] */\n      dup2\n      mstore\n      0x20\n      add\n      swap1\n      dup2\n      mstore\n      0x20\n      add\n      0x00\n      keccak256\n        /* \"contracts/stake_reward_MLM.sol\":12085:12133  DUSDinvestor[msg.sender].referralLevel[i].reward */\n      0x00\n      add\n      sload\n        /* \"contracts/stake_reward_MLM.sol\":12085:12135  DUSDinvestor[msg.sender].referralLevel[i].reward>0 */\n      gt\n        /* \"contracts/stake_reward_MLM.sol\":12082:12363  if(DUSDinvestor[msg.sender].referralLevel[i].reward>0)... */\n      iszero\n      tag_252\n      jumpi\n        /* \"contracts/stake_reward_MLM.sol\":12202:12214  DUSDinvestor */\n      0x0c\n        /* \"contracts/stake_reward_MLM.sol\":12202:12226  DUSDinvestor[msg.sender] */\n      0x00\n        /* \"contracts/stake_reward_MLM.sol\":12215:12225  msg.sender */\n      caller\n        /* \"contracts/stake_reward_MLM.sol\":12202:12226  DUSDinvestor[msg.sender] */\n      0xffffffffffffffffffffffffffffffffffffffff\n      and\n      0xffffffffffffffffffffffffffffffffffffffff\n      and\n      dup2\n      mstore\n      0x20\n      add\n      swap1\n      dup2\n      mstore\n      0x20\n      add\n      0x00\n      keccak256\n        /* \"contracts/stake_reward_MLM.sol\":12202:12240  DUSDinvestor[msg.sender].referralLevel */\n      0x03\n      add\n        /* \"contracts/stake_reward_MLM.sol\":12202:12243  DUSDinvestor[msg.sender].referralLevel[i] */\n      0x00\n        /* \"contracts/stake_reward_MLM.sol\":12241:12242  i */\n      dup3\n        /* \"contracts/stake_reward_MLM.sol\":12202:12243  DUSDinvestor[msg.sender].referralLevel[i] */\n      dup2\n      mstore\n      0x20\n      add\n      swap1\n      dup2\n      mstore\n      0x20\n      add\n      0x00\n      keccak256\n        /* \"contracts/stake_reward_MLM.sol\":12202:12250  DUSDinvestor[msg.sender].referralLevel[i].reward */\n      0x00\n      add\n      sload\n        /* \"contracts/stake_reward_MLM.sol\":12175:12196  referralLevels_reward */\n      dup3\n        /* \"contracts/stake_reward_MLM.sol\":12197:12198  i */\n      dup3\n        /* \"contracts/stake_reward_MLM.sol\":12175:12199  referralLevels_reward[i] */\n      dup2\n      mload\n      dup2\n      lt\n      tag_253\n      jumpi\n      tag_254\n      tag_182\n      jump\t// in\n    tag_254:\n    tag_253:\n      0x20\n      mul\n      0x20\n      add\n      add\n        /* \"contracts/stake_reward_MLM.sol\":12175:12250  referralLevels_reward[i] = DUSDinvestor[msg.sender].referralLevel[i].reward */\n      dup2\n      dup2\n      mstore\n      pop\n      pop\n        /* \"contracts/stake_reward_MLM.sol\":12082:12363  if(DUSDinvestor[msg.sender].referralLevel[i].reward>0)... */\n      jump(tag_255)\n    tag_252:\n        /* \"contracts/stake_reward_MLM.sol\":12342:12343  0 */\n      0x00\n        /* \"contracts/stake_reward_MLM.sol\":12315:12336  referralLevels_reward */\n      dup3\n        /* \"contracts/stake_reward_MLM.sol\":12337:12338  i */\n      dup3\n        /* \"contracts/stake_reward_MLM.sol\":12315:12339  referralLevels_reward[i] */\n      dup2\n      mload\n      dup2\n      lt\n      tag_256\n      jumpi\n      tag_257\n      tag_182\n      jump\t// in\n    tag_257:\n    tag_256:\n      0x20\n      mul\n      0x20\n      add\n      add\n        /* \"contracts/stake_reward_MLM.sol\":12315:12343  referralLevels_reward[i] = 0 */\n      dup2\n      dup2\n      mstore\n      pop\n      pop\n        /* \"contracts/stake_reward_MLM.sol\":12082:12363  if(DUSDinvestor[msg.sender].referralLevel[i].reward>0)... */\n    tag_255:\n        /* \"contracts/stake_reward_MLM.sol\":12047:12050  i++ */\n      dup1\n      dup1\n      tag_258\n      swap1\n      tag_138\n      jump\t// in\n    tag_258:\n      swap2\n      pop\n      pop\n        /* \"contracts/stake_reward_MLM.sol\":12029:12379  for(uint i=0;i<20;i++)... */\n      jump(tag_249)\n    tag_250:\n      pop\n        /* \"contracts/stake_reward_MLM.sol\":12399:12420  referralLevels_reward */\n      dup1\n        /* \"contracts/stake_reward_MLM.sol\":12392:12420  return referralLevels_reward */\n      swap2\n      pop\n      pop\n        /* \"contracts/stake_reward_MLM.sol\":11869:12434  function referralLevel_earning() public view returns( uint[] memory arr )... */\n      swap1\n      jump\t// out\n        /* \"contracts/stake_reward_MLM.sol\":733:767  uint public min_Stake_amount=10000 */\n    tag_101:\n      sload(0x05)\n      dup2\n      jump\t// out\n        /* \"contracts/stake_reward_MLM.sol\":6967:7784  function withdrawReward() external returns (bool success){... */\n    tag_104:\n        /* \"contracts/stake_reward_MLM.sol\":7011:7023  bool success */\n      0x00\n        /* \"contracts/stake_reward_MLM.sol\":7038:7055  uint Total_reward */\n      dup1\n        /* \"contracts/stake_reward_MLM.sol\":7058:7069  getReward() */\n      tag_260\n        /* \"contracts/stake_reward_MLM.sol\":7058:7067  getReward */\n      tag_60\n        /* \"contracts/stake_reward_MLM.sol\":7058:7069  getReward() */\n      jump\t// in\n    tag_260:\n        /* \"contracts/stake_reward_MLM.sol\":7038:7069  uint Total_reward = getReward() */\n      swap1\n      pop\n        /* \"contracts/stake_reward_MLM.sol\":7104:7105  0 */\n      0x00\n        /* \"contracts/stake_reward_MLM.sol\":7091:7103  Total_reward */\n      dup2\n        /* \"contracts/stake_reward_MLM.sol\":7091:7105  Total_reward>0 */\n      gt\n        /* \"contracts/stake_reward_MLM.sol\":7083:7143  require(Total_reward>0,\"you dont have rewards to withdrawn\") */\n      tag_261\n      jumpi\n      mload(0x40)\n      0x08c379a000000000000000000000000000000000000000000000000000000000\n      dup2\n      mstore\n      0x04\n      add\n      tag_262\n      swap1\n      tag_263\n      jump\t// in\n    tag_262:\n      mload(0x40)\n      dup1\n      swap2\n      sub\n      swap1\n      revert\n    tag_261:\n        /* \"contracts/stake_reward_MLM.sol\":7222:7235  uint reward21 */\n      0x00\n        /* \"contracts/stake_reward_MLM.sol\":7256:7259  100 */\n      0x64\n        /* \"contracts/stake_reward_MLM.sol\":7252:7254  21 */\n      0x15\n        /* \"contracts/stake_reward_MLM.sol\":7239:7251  Total_reward */\n      dup4\n        /* \"contracts/stake_reward_MLM.sol\":7239:7254  Total_reward*21 */\n      tag_264\n      swap2\n      swap1\n      tag_147\n      jump\t// in\n    tag_264:\n        /* \"contracts/stake_reward_MLM.sol\":7238:7259  (Total_reward*21)/100 */\n      tag_265\n      swap2\n      swap1\n      tag_195\n      jump\t// in\n    tag_265:\n        /* \"contracts/stake_reward_MLM.sol\":7222:7259  uint reward21 = (Total_reward*21)/100 */\n      swap1\n      pop\n        /* \"contracts/stake_reward_MLM.sol\":7274:7297  address parent_referral */\n      0x00\n        /* \"contracts/stake_reward_MLM.sol\":7300:7312  DUSDinvestor */\n      0x0c\n        /* \"contracts/stake_reward_MLM.sol\":7300:7324  DUSDinvestor[msg.sender] */\n      0x00\n        /* \"contracts/stake_reward_MLM.sol\":7313:7323  msg.sender */\n      caller\n        /* \"contracts/stake_reward_MLM.sol\":7300:7324  DUSDinvestor[msg.sender] */\n      0xffffffffffffffffffffffffffffffffffffffff\n      and\n      0xffffffffffffffffffffffffffffffffffffffff\n      and\n      dup2\n      mstore\n      0x20\n      add\n      swap1\n      dup2\n      mstore\n      0x20\n      add\n      0x00\n      keccak256\n        /* \"contracts/stake_reward_MLM.sol\":7300:7337  DUSDinvestor[msg.sender].referralFrom */\n      0x02\n      add\n      0x00\n      swap1\n      sload\n      swap1\n      0x0100\n      exp\n      swap1\n      div\n      0xffffffffffffffffffffffffffffffffffffffff\n      and\n        /* \"contracts/stake_reward_MLM.sol\":7274:7337  address parent_referral = DUSDinvestor[msg.sender].referralFrom */\n      swap1\n      pop\n        /* \"contracts/stake_reward_MLM.sol\":7381:7382  0 */\n      0x00\n        /* \"contracts/stake_reward_MLM.sol\":7354:7383  parent_referral != address(0) */\n      0xffffffffffffffffffffffffffffffffffffffff\n      and\n        /* \"contracts/stake_reward_MLM.sol\":7354:7369  parent_referral */\n      dup2\n        /* \"contracts/stake_reward_MLM.sol\":7354:7383  parent_referral != address(0) */\n      0xffffffffffffffffffffffffffffffffffffffff\n      and\n      eq\n        /* \"contracts/stake_reward_MLM.sol\":7351:7535  if(parent_referral != address(0)){... */\n      tag_266\n      jumpi\n        /* \"contracts/stake_reward_MLM.sol\":7408:7420  BUSDcontract */\n      0x02\n      0x00\n      swap1\n      sload\n      swap1\n      0x0100\n      exp\n      swap1\n      div\n      0xffffffffffffffffffffffffffffffffffffffff\n      and\n        /* \"contracts/stake_reward_MLM.sol\":7403:7430  DUSD(BUSDcontract).transfer */\n      0xffffffffffffffffffffffffffffffffffffffff\n      and\n      0xa9059cbb\n        /* \"contracts/stake_reward_MLM.sol\":7431:7446  parent_referral */\n      dup3\n        /* \"contracts/stake_reward_MLM.sol\":7447:7455  reward21 */\n      dup5\n        /* \"contracts/stake_reward_MLM.sol\":7403:7456  DUSD(BUSDcontract).transfer(parent_referral,reward21) */\n      mload(0x40)\n      dup4\n      0xffffffff\n      and\n      0xe0\n      shl\n      dup2\n      mstore\n      0x04\n      add\n      tag_267\n      swap3\n      swap2\n      swap1\n      tag_221\n      jump\t// in\n    tag_267:\n      0x20\n      mload(0x40)\n      dup1\n      dup4\n      sub\n      dup2\n      0x00\n      dup8\n      dup1\n      extcodesize\n      iszero\n      dup1\n      iszero\n      tag_268\n      jumpi\n      0x00\n      dup1\n      revert\n    tag_268:\n      pop\n      gas\n      call\n      iszero\n      dup1\n      iszero\n      tag_270\n      jumpi\n      returndatasize\n      0x00\n      dup1\n      returndatacopy\n      revert(0x00, returndatasize)\n    tag_270:\n      pop\n      pop\n      pop\n      pop\n      mload(0x40)\n      returndatasize\n      not(0x1f)\n      0x1f\n      dup3\n      add\n      and\n      dup3\n      add\n      dup1\n      0x40\n      mstore\n      pop\n      dup2\n      add\n      swap1\n      tag_271\n      swap2\n      swap1\n      tag_154\n      jump\t// in\n    tag_271:\n      pop\n        /* \"contracts/stake_reward_MLM.sol\":7351:7535  if(parent_referral != address(0)){... */\n    tag_266:\n        /* \"contracts/stake_reward_MLM.sol\":7553:7565  BUSDcontract */\n      0x02\n      0x00\n      swap1\n      sload\n      swap1\n      0x0100\n      exp\n      swap1\n      div\n      0xffffffffffffffffffffffffffffffffffffffff\n      and\n        /* \"contracts/stake_reward_MLM.sol\":7548:7575  DUSD(BUSDcontract).transfer */\n      0xffffffffffffffffffffffffffffffffffffffff\n      and\n      0xa9059cbb\n        /* \"contracts/stake_reward_MLM.sol\":7576:7586  msg.sender */\n      caller\n        /* \"contracts/stake_reward_MLM.sol\":7600:7608  reward21 */\n      dup5\n        /* \"contracts/stake_reward_MLM.sol\":7587:7599  Total_reward */\n      dup7\n        /* \"contracts/stake_reward_MLM.sol\":7587:7608  Total_reward-reward21 */\n      tag_272\n      swap2\n      swap1\n      tag_191\n      jump\t// in\n    tag_272:\n        /* \"contracts/stake_reward_MLM.sol\":7548:7609  DUSD(BUSDcontract).transfer(msg.sender,Total_reward-reward21) */\n      mload(0x40)\n      dup4\n      0xffffffff\n      and\n      0xe0\n      shl\n      dup2\n      mstore\n      0x04\n      add\n      tag_273\n      swap3\n      swap2\n      swap1\n      tag_221\n      jump\t// in\n    tag_273:\n      0x20\n      mload(0x40)\n      dup1\n      dup4\n      sub\n      dup2\n      0x00\n      dup8\n      dup1\n      extcodesize\n      iszero\n      dup1\n      iszero\n      tag_274\n      jumpi\n      0x00\n      dup1\n      revert\n    tag_274:\n      pop\n      gas\n      call\n      iszero\n      dup1\n      iszero\n      tag_276\n      jumpi\n      returndatasize\n      0x00\n      dup1\n      returndatacopy\n      revert(0x00, returndatasize)\n    tag_276:\n      pop\n      pop\n      pop\n      pop\n      mload(0x40)\n      returndatasize\n      not(0x1f)\n      0x1f\n      dup3\n      add\n      and\n      dup3\n      add\n      dup1\n      0x40\n      mstore\n      pop\n      dup2\n      add\n      swap1\n      tag_277\n      swap2\n      swap1\n      tag_154\n      jump\t// in\n    tag_277:\n      pop\n        /* \"contracts/stake_reward_MLM.sol\":7734:7746  Total_reward */\n      dup3\n        /* \"contracts/stake_reward_MLM.sol\":7687:7699  DUSDinvestor */\n      0x0c\n        /* \"contracts/stake_reward_MLM.sol\":7687:7711  DUSDinvestor[msg.sender] */\n      0x00\n        /* \"contracts/stake_reward_MLM.sol\":7700:7710  msg.sender */\n      caller\n        /* \"contracts/stake_reward_MLM.sol\":7687:7711  DUSDinvestor[msg.sender] */\n      0xffffffffffffffffffffffffffffffffffffffff\n      and\n      0xffffffffffffffffffffffffffffffffffffffff\n      and\n      dup2\n      mstore\n      0x20\n      add\n      swap1\n      dup2\n      mstore\n      0x20\n      add\n      0x00\n      keccak256\n        /* \"contracts/stake_reward_MLM.sol\":7687:7732  DUSDinvestor[msg.sender].totalWithdraw_reward */\n      0x07\n      add\n      0x00\n        /* \"contracts/stake_reward_MLM.sol\":7687:7746  DUSDinvestor[msg.sender].totalWithdraw_reward+=Total_reward */\n      dup3\n      dup3\n      sload\n      tag_278\n      swap2\n      swap1\n      tag_141\n      jump\t// in\n    tag_278:\n      swap3\n      pop\n      pop\n      dup2\n      swap1\n      sstore\n      pop\n        /* \"contracts/stake_reward_MLM.sol\":7768:7772  true */\n      0x01\n        /* \"contracts/stake_reward_MLM.sol\":7761:7772  return true */\n      swap4\n      pop\n      pop\n      pop\n      pop\n        /* \"contracts/stake_reward_MLM.sol\":6967:7784  function withdrawReward() external returns (bool success){... */\n      swap1\n      jump\t// out\n        /* \"contracts/stake_reward_MLM.sol\":1825:1867  mapping(address=>Data) public DUSDinvestor */\n    tag_109:\n      mstore(0x20, 0x0c)\n      dup1\n      0x00\n      mstore\n      keccak256(0x00, 0x40)\n      0x00\n      swap2\n      pop\n      swap1\n      pop\n      dup1\n      0x02\n      add\n      0x00\n      swap1\n      sload\n      swap1\n      0x0100\n      exp\n      swap1\n      div\n      0xffffffffffffffffffffffffffffffffffffffff\n      and\n      swap1\n      dup1\n      0x04\n      add\n      sload\n      swap1\n      dup1\n      0x05\n      add\n      sload\n      swap1\n      dup1\n      0x06\n      add\n      sload\n      swap1\n      dup1\n      0x07\n      add\n      sload\n      swap1\n      dup1\n      0x08\n      add\n      0x00\n      swap1\n      sload\n      swap1\n      0x0100\n      exp\n      swap1\n      div\n      0xff\n      and\n      swap1\n      dup1\n      0x09\n      add\n      sload\n      swap1\n      pop\n      dup8\n      jump\t// out\n        /* \"contracts/stake_reward_MLM.sol\":993:1018  uint public totalbusiness */\n    tag_113:\n      sload(0x09)\n      dup2\n      jump\t// out\n        /* \"contracts/stake_reward_MLM.sol\":11685:11859  function transferOwnership(address _owner)  public... */\n    tag_117:\n        /* \"contracts/stake_reward_MLM.sol\":11778:11783  owner */\n      0x00\n      dup1\n      sload\n      swap1\n      0x0100\n      exp\n      swap1\n      div\n      0xffffffffffffffffffffffffffffffffffffffff\n      and\n        /* \"contracts/stake_reward_MLM.sol\":11766:11783  msg.sender==owner */\n      0xffffffffffffffffffffffffffffffffffffffff\n      and\n        /* \"contracts/stake_reward_MLM.sol\":11766:11776  msg.sender */\n      caller\n        /* \"contracts/stake_reward_MLM.sol\":11766:11783  msg.sender==owner */\n      0xffffffffffffffffffffffffffffffffffffffff\n      and\n      eq\n        /* \"contracts/stake_reward_MLM.sol\":11758:11820  require(msg.sender==owner,\"only Owner can call this function\") */\n      tag_280\n      jumpi\n      mload(0x40)\n      0x08c379a000000000000000000000000000000000000000000000000000000000\n      dup2\n      mstore\n      0x04\n      add\n      tag_281\n      swap1\n      tag_282\n      jump\t// in\n    tag_281:\n      mload(0x40)\n      dup1\n      swap2\n      sub\n      swap1\n      revert\n    tag_280:\n        /* \"contracts/stake_reward_MLM.sol\":11842:11848  _owner */\n      dup1\n        /* \"contracts/stake_reward_MLM.sol\":11834:11839  owner */\n      0x00\n      dup1\n        /* \"contracts/stake_reward_MLM.sol\":11834:11848  owner = _owner */\n      0x0100\n      exp\n      dup2\n      sload\n      dup2\n      0xffffffffffffffffffffffffffffffffffffffff\n      mul\n      not\n      and\n      swap1\n      dup4\n      0xffffffffffffffffffffffffffffffffffffffff\n      and\n      mul\n      or\n      swap1\n      sstore\n      pop\n        /* \"contracts/stake_reward_MLM.sol\":11685:11859  function transferOwnership(address _owner)  public... */\n      pop\n      jump\t// out\n        /* \"contracts/stake_reward_MLM.sol\":12443:13004  function referralLevel_count() public view returns( uint[] memory arr )... */\n    tag_119:\n        /* \"contracts/stake_reward_MLM.sol\":12495:12512  uint[] memory arr */\n      0x60\n        /* \"contracts/stake_reward_MLM.sol\":12537:12572  uint[] memory referralLevels_reward */\n      0x00\n        /* \"contracts/stake_reward_MLM.sol\":12584:12586  20 */\n      0x14\n        /* \"contracts/stake_reward_MLM.sol\":12573:12587  new uint[](20) */\n      0xffffffffffffffff\n      dup2\n      gt\n      iszero\n      tag_284\n      jumpi\n      tag_285\n      tag_171\n      jump\t// in\n    tag_285:\n    tag_284:\n      mload(0x40)\n      swap1\n      dup1\n      dup3\n      mstore\n      dup1\n      0x20\n      mul\n      0x20\n      add\n      dup3\n      add\n      0x40\n      mstore\n      dup1\n      iszero\n      tag_286\n      jumpi\n      dup2\n      0x20\n      add\n      0x20\n      dup3\n      mul\n      dup1\n      calldatasize\n      dup4\n      calldatacopy\n      dup1\n      dup3\n      add\n      swap2\n      pop\n      pop\n      swap1\n      pop\n    tag_286:\n      pop\n        /* \"contracts/stake_reward_MLM.sol\":12537:12587  uint[] memory referralLevels_reward=new uint[](20) */\n      swap1\n      pop\n        /* \"contracts/stake_reward_MLM.sol\":12605:12611  uint i */\n      0x00\n        /* \"contracts/stake_reward_MLM.sol\":12601:12949  for(uint i=0;i<20;i++)... */\n    tag_287:\n        /* \"contracts/stake_reward_MLM.sol\":12616:12618  20 */\n      0x14\n        /* \"contracts/stake_reward_MLM.sol\":12614:12615  i */\n      dup2\n        /* \"contracts/stake_reward_MLM.sol\":12614:12618  i<20 */\n      lt\n        /* \"contracts/stake_reward_MLM.sol\":12601:12949  for(uint i=0;i<20;i++)... */\n      iszero\n      tag_288\n      jumpi\n        /* \"contracts/stake_reward_MLM.sol\":12706:12707  0 */\n      0x00\n        /* \"contracts/stake_reward_MLM.sol\":12657:12669  DUSDinvestor */\n      0x0c\n        /* \"contracts/stake_reward_MLM.sol\":12657:12681  DUSDinvestor[msg.sender] */\n      0x00\n        /* \"contracts/stake_reward_MLM.sol\":12670:12680  msg.sender */\n      caller\n        /* \"contracts/stake_reward_MLM.sol\":12657:12681  DUSDinvestor[msg.sender] */\n      0xffffffffffffffffffffffffffffffffffffffff\n      and\n      0xffffffffffffffffffffffffffffffffffffffff\n      and\n      dup2\n      mstore\n      0x20\n      add\n      swap1\n      dup2\n      mstore\n      0x20\n      add\n      0x00\n      keccak256\n        /* \"contracts/stake_reward_MLM.sol\":12657:12695  DUSDinvestor[msg.sender].referralLevel */\n      0x03\n      add\n        /* \"contracts/stake_reward_MLM.sol\":12657:12698  DUSDinvestor[msg.sender].referralLevel[i] */\n      0x00\n        /* \"contracts/stake_reward_MLM.sol\":12696:12697  i */\n      dup4\n        /* \"contracts/stake_reward_MLM.sol\":12657:12698  DUSDinvestor[msg.sender].referralLevel[i] */\n      dup2\n      mstore\n      0x20\n      add\n      swap1\n      dup2\n      mstore\n      0x20\n      add\n      0x00\n      keccak256\n        /* \"contracts/stake_reward_MLM.sol\":12657:12705  DUSDinvestor[msg.sender].referralLevel[i].reward */\n      0x00\n      add\n      sload\n        /* \"contracts/stake_reward_MLM.sol\":12657:12707  DUSDinvestor[msg.sender].referralLevel[i].reward>0 */\n      gt\n        /* \"contracts/stake_reward_MLM.sol\":12654:12933  if(DUSDinvestor[msg.sender].referralLevel[i].reward>0)... */\n      iszero\n      tag_290\n      jumpi\n        /* \"contracts/stake_reward_MLM.sol\":12774:12786  DUSDinvestor */\n      0x0c\n        /* \"contracts/stake_reward_MLM.sol\":12774:12798  DUSDinvestor[msg.sender] */\n      0x00\n        /* \"contracts/stake_reward_MLM.sol\":12787:12797  msg.sender */\n      caller\n        /* \"contracts/stake_reward_MLM.sol\":12774:12798  DUSDinvestor[msg.sender] */\n      0xffffffffffffffffffffffffffffffffffffffff\n      and\n      0xffffffffffffffffffffffffffffffffffffffff\n      and\n      dup2\n      mstore\n      0x20\n      add\n      swap1\n      dup2\n      mstore\n      0x20\n      add\n      0x00\n      keccak256\n        /* \"contracts/stake_reward_MLM.sol\":12774:12812  DUSDinvestor[msg.sender].referralLevel */\n      0x03\n      add\n        /* \"contracts/stake_reward_MLM.sol\":12774:12815  DUSDinvestor[msg.sender].referralLevel[i] */\n      0x00\n        /* \"contracts/stake_reward_MLM.sol\":12813:12814  i */\n      dup3\n        /* \"contracts/stake_reward_MLM.sol\":12774:12815  DUSDinvestor[msg.sender].referralLevel[i] */\n      dup2\n      mstore\n      0x20\n      add\n      swap1\n      dup2\n      mstore\n      0x20\n      add\n      0x00\n      keccak256\n        /* \"contracts/stake_reward_MLM.sol\":12774:12821  DUSDinvestor[msg.sender].referralLevel[i].count */\n      0x01\n      add\n      sload\n        /* \"contracts/stake_reward_MLM.sol\":12747:12768  referralLevels_reward */\n      dup3\n        /* \"contracts/stake_reward_MLM.sol\":12769:12770  i */\n      dup3\n        /* \"contracts/stake_reward_MLM.sol\":12747:12771  referralLevels_reward[i] */\n      dup2\n      mload\n      dup2\n      lt\n      tag_291\n      jumpi\n      tag_292\n      tag_182\n      jump\t// in\n    tag_292:\n    tag_291:\n      0x20\n      mul\n      0x20\n      add\n      add\n        /* \"contracts/stake_reward_MLM.sol\":12747:12821  referralLevels_reward[i] = DUSDinvestor[msg.sender].referralLevel[i].count */\n      dup2\n      dup2\n      mstore\n      pop\n      pop\n        /* \"contracts/stake_reward_MLM.sol\":12654:12933  if(DUSDinvestor[msg.sender].referralLevel[i].reward>0)... */\n      jump(tag_293)\n    tag_290:\n        /* \"contracts/stake_reward_MLM.sol\":12912:12913  0 */\n      0x00\n        /* \"contracts/stake_reward_MLM.sol\":12885:12906  referralLevels_reward */\n      dup3\n        /* \"contracts/stake_reward_MLM.sol\":12907:12908  i */\n      dup3\n        /* \"contracts/stake_reward_MLM.sol\":12885:12909  referralLevels_reward[i] */\n      dup2\n      mload\n      dup2\n      lt\n      tag_294\n      jumpi\n      tag_295\n      tag_182\n      jump\t// in\n    tag_295:\n    tag_294:\n      0x20\n      mul\n      0x20\n      add\n      add\n        /* \"contracts/stake_reward_MLM.sol\":12885:12913  referralLevels_reward[i] = 0 */\n      dup2\n      dup2\n      mstore\n      pop\n      pop\n        /* \"contracts/stake_reward_MLM.sol\":12654:12933  if(DUSDinvestor[msg.sender].referralLevel[i].reward>0)... */\n    tag_293:\n        /* \"contracts/stake_reward_MLM.sol\":12619:12622  i++ */\n      dup1\n      dup1\n      tag_296\n      swap1\n      tag_138\n      jump\t// in\n    tag_296:\n      swap2\n      pop\n      pop\n        /* \"contracts/stake_reward_MLM.sol\":12601:12949  for(uint i=0;i<20;i++)... */\n      jump(tag_287)\n    tag_288:\n      pop\n        /* \"contracts/stake_reward_MLM.sol\":12969:12990  referralLevels_reward */\n      dup1\n        /* \"contracts/stake_reward_MLM.sol\":12962:12990  return referralLevels_reward */\n      swap2\n      pop\n      pop\n        /* \"contracts/stake_reward_MLM.sol\":12443:13004  function referralLevel_count() public view returns( uint[] memory arr )... */\n      swap1\n      jump\t// out\n        /* \"contracts/stake_reward_MLM.sol\":670:713  uint public rewardToken=5000000000000000000 */\n    tag_122:\n      sload(0x04)\n      dup2\n      jump\t// out\n        /* \"contracts/stake_reward_MLM.sol\":804:840  uint public max_Stake_amount=5000000 */\n    tag_125:\n      sload(0x06)\n      dup2\n      jump\t// out\n        /* \"contracts/stake_reward_MLM.sol\":2018:3681  function sendRewardToDUSDReferrals(address investor,uint _investedAmount)  internal  //this is the freferral function to transfer the reawards to referrals... */\n    tag_160:\n        /* \"contracts/stake_reward_MLM.sol\":2198:2210  address temp */\n      0x00\n        /* \"contracts/stake_reward_MLM.sol\":2213:2221  investor */\n      dup3\n        /* \"contracts/stake_reward_MLM.sol\":2198:2221  address temp = investor */\n      swap1\n      pop\n        /* \"contracts/stake_reward_MLM.sol\":2242:2266  uint[] memory percentage */\n      0x00\n        /* \"contracts/stake_reward_MLM.sol\":2280:2281  5 */\n      0x05\n        /* \"contracts/stake_reward_MLM.sol\":2269:2282  new uint[](5) */\n      0xffffffffffffffff\n      dup2\n      gt\n      iszero\n      tag_298\n      jumpi\n      tag_299\n      tag_171\n      jump\t// in\n    tag_299:\n    tag_298:\n      mload(0x40)\n      swap1\n      dup1\n      dup3\n      mstore\n      dup1\n      0x20\n      mul\n      0x20\n      add\n      dup3\n      add\n      0x40\n      mstore\n      dup1\n      iszero\n      tag_300\n      jumpi\n      dup2\n      0x20\n      add\n      0x20\n      dup3\n      mul\n      dup1\n      calldatasize\n      dup4\n      calldatacopy\n      dup1\n      dup3\n      add\n      swap2\n      pop\n      pop\n      swap1\n      pop\n    tag_300:\n      pop\n        /* \"contracts/stake_reward_MLM.sol\":2242:2282  uint[] memory percentage = new uint[](5) */\n      swap1\n      pop\n        /* \"contracts/stake_reward_MLM.sol\":2312:2313  5 */\n      0x05\n        /* \"contracts/stake_reward_MLM.sol\":2296:2306  percentage */\n      dup2\n        /* \"contracts/stake_reward_MLM.sol\":2307:2308  0 */\n      0x00\n        /* \"contracts/stake_reward_MLM.sol\":2296:2309  percentage[0] */\n      dup2\n      mload\n      dup2\n      lt\n      tag_301\n      jumpi\n      tag_302\n      tag_182\n      jump\t// in\n    tag_302:\n    tag_301:\n      0x20\n      mul\n      0x20\n      add\n      add\n        /* \"contracts/stake_reward_MLM.sol\":2296:2313  percentage[0] = 5 */\n      dup2\n      dup2\n      mstore\n      pop\n      pop\n        /* \"contracts/stake_reward_MLM.sol\":2343:2344  3 */\n      0x03\n        /* \"contracts/stake_reward_MLM.sol\":2327:2337  percentage */\n      dup2\n        /* \"contracts/stake_reward_MLM.sol\":2338:2339  1 */\n      0x01\n        /* \"contracts/stake_reward_MLM.sol\":2327:2340  percentage[1] */\n      dup2\n      mload\n      dup2\n      lt\n      tag_303\n      jumpi\n      tag_304\n      tag_182\n      jump\t// in\n    tag_304:\n    tag_303:\n      0x20\n      mul\n      0x20\n      add\n      add\n        /* \"contracts/stake_reward_MLM.sol\":2327:2344  percentage[1] = 3 */\n      dup2\n      dup2\n      mstore\n      pop\n      pop\n        /* \"contracts/stake_reward_MLM.sol\":2374:2375  2 */\n      0x02\n        /* \"contracts/stake_reward_MLM.sol\":2358:2368  percentage */\n      dup2\n        /* \"contracts/stake_reward_MLM.sol\":2369:2370  2 */\n      0x02\n        /* \"contracts/stake_reward_MLM.sol\":2358:2371  percentage[2] */\n      dup2\n      mload\n      dup2\n      lt\n      tag_305\n      jumpi\n      tag_306\n      tag_182\n      jump\t// in\n    tag_306:\n    tag_305:\n      0x20\n      mul\n      0x20\n      add\n      add\n        /* \"contracts/stake_reward_MLM.sol\":2358:2375  percentage[2] = 2 */\n      dup2\n      dup2\n      mstore\n      pop\n      pop\n        /* \"contracts/stake_reward_MLM.sol\":2405:2406  1 */\n      0x01\n        /* \"contracts/stake_reward_MLM.sol\":2389:2399  percentage */\n      dup2\n        /* \"contracts/stake_reward_MLM.sol\":2400:2401  3 */\n      0x03\n        /* \"contracts/stake_reward_MLM.sol\":2389:2402  percentage[3] */\n      dup2\n      mload\n      dup2\n      lt\n      tag_307\n      jumpi\n      tag_308\n      tag_182\n      jump\t// in\n    tag_308:\n    tag_307:\n      0x20\n      mul\n      0x20\n      add\n      add\n        /* \"contracts/stake_reward_MLM.sol\":2389:2406  percentage[3] = 1 */\n      dup2\n      dup2\n      mstore\n      pop\n      pop\n        /* \"contracts/stake_reward_MLM.sol\":2436:2437  1 */\n      0x01\n        /* \"contracts/stake_reward_MLM.sol\":2420:2430  percentage */\n      dup2\n        /* \"contracts/stake_reward_MLM.sol\":2431:2432  4 */\n      0x04\n        /* \"contracts/stake_reward_MLM.sol\":2420:2433  percentage[4] */\n      dup2\n      mload\n      dup2\n      lt\n      tag_309\n      jumpi\n      tag_310\n      tag_182\n      jump\t// in\n    tag_310:\n    tag_309:\n      0x20\n      mul\n      0x20\n      add\n      add\n        /* \"contracts/stake_reward_MLM.sol\":2420:2437  percentage[4] = 1 */\n      dup2\n      dup2\n      mstore\n      pop\n      pop\n        /* \"contracts/stake_reward_MLM.sol\":2453:2459  uint j */\n      0x00\n        /* \"contracts/stake_reward_MLM.sol\":2480:2486  uint i */\n      dup1\n        /* \"contracts/stake_reward_MLM.sol\":2487:2488  0 */\n      0x00\n        /* \"contracts/stake_reward_MLM.sol\":2480:2488  uint i=0 */\n      swap1\n      pop\n        /* \"contracts/stake_reward_MLM.sol\":2476:3670  for(uint i=0;i<20;i++)... */\n    tag_311:\n        /* \"contracts/stake_reward_MLM.sol\":2491:2493  20 */\n      0x14\n        /* \"contracts/stake_reward_MLM.sol\":2489:2490  i */\n      dup2\n        /* \"contracts/stake_reward_MLM.sol\":2489:2493  i<20 */\n      lt\n        /* \"contracts/stake_reward_MLM.sol\":2476:3670  for(uint i=0;i<20;i++)... */\n      iszero\n      tag_312\n      jumpi\n        /* \"contracts/stake_reward_MLM.sol\":2536:2537  0 */\n      0x00\n        /* \"contracts/stake_reward_MLM.sol\":2533:2534  i */\n      dup2\n        /* \"contracts/stake_reward_MLM.sol\":2533:2537  i==0 */\n      eq\n        /* \"contracts/stake_reward_MLM.sol\":2530:2961  if(i==0)... */\n      iszero\n      tag_314\n      jumpi\n        /* \"contracts/stake_reward_MLM.sol\":2579:2580  0 */\n      0x00\n        /* \"contracts/stake_reward_MLM.sol\":2577:2580  j=0 */\n      swap2\n      pop\n        /* \"contracts/stake_reward_MLM.sol\":2530:2961  if(i==0)... */\n      jump(tag_315)\n    tag_314:\n        /* \"contracts/stake_reward_MLM.sol\":2627:2628  1 */\n      0x01\n        /* \"contracts/stake_reward_MLM.sol\":2624:2625  i */\n      dup2\n        /* \"contracts/stake_reward_MLM.sol\":2624:2628  i==1 */\n      eq\n        /* \"contracts/stake_reward_MLM.sol\":2621:2961  if(i==1)... */\n      iszero\n      tag_316\n      jumpi\n        /* \"contracts/stake_reward_MLM.sol\":2670:2671  1 */\n      0x01\n        /* \"contracts/stake_reward_MLM.sol\":2668:2671  j=1 */\n      swap2\n      pop\n        /* \"contracts/stake_reward_MLM.sol\":2621:2961  if(i==1)... */\n      jump(tag_317)\n    tag_316:\n        /* \"contracts/stake_reward_MLM.sol\":2718:2719  2 */\n      0x02\n        /* \"contracts/stake_reward_MLM.sol\":2715:2716  i */\n      dup2\n        /* \"contracts/stake_reward_MLM.sol\":2715:2719  i==2 */\n      eq\n        /* \"contracts/stake_reward_MLM.sol\":2712:2961  if(i==2)... */\n      iszero\n      tag_318\n      jumpi\n        /* \"contracts/stake_reward_MLM.sol\":2761:2762  2 */\n      0x02\n        /* \"contracts/stake_reward_MLM.sol\":2759:2762  j=2 */\n      swap2\n      pop\n        /* \"contracts/stake_reward_MLM.sol\":2712:2961  if(i==2)... */\n      jump(tag_319)\n    tag_318:\n        /* \"contracts/stake_reward_MLM.sol\":2808:2809  7 */\n      0x07\n        /* \"contracts/stake_reward_MLM.sol\":2806:2807  i */\n      dup2\n        /* \"contracts/stake_reward_MLM.sol\":2806:2809  i>7 */\n      gt\n        /* \"contracts/stake_reward_MLM.sol\":2803:2961  if(i>7)... */\n      iszero\n      tag_320\n      jumpi\n        /* \"contracts/stake_reward_MLM.sol\":2851:2852  4 */\n      0x04\n        /* \"contracts/stake_reward_MLM.sol\":2849:2852  j=4 */\n      swap2\n      pop\n        /* \"contracts/stake_reward_MLM.sol\":2803:2961  if(i>7)... */\n      jump(tag_321)\n    tag_320:\n        /* \"contracts/stake_reward_MLM.sol\":2898:2899  2 */\n      0x02\n        /* \"contracts/stake_reward_MLM.sol\":2896:2897  i */\n      dup2\n        /* \"contracts/stake_reward_MLM.sol\":2896:2899  i>2 */\n      gt\n        /* \"contracts/stake_reward_MLM.sol\":2893:2961  if(i>2)... */\n      iszero\n      tag_322\n      jumpi\n        /* \"contracts/stake_reward_MLM.sol\":2941:2942  3 */\n      0x03\n        /* \"contracts/stake_reward_MLM.sol\":2939:2942  j=3 */\n      swap2\n      pop\n        /* \"contracts/stake_reward_MLM.sol\":2893:2961  if(i>2)... */\n    tag_322:\n        /* \"contracts/stake_reward_MLM.sol\":2803:2961  if(i>7)... */\n    tag_321:\n        /* \"contracts/stake_reward_MLM.sol\":2712:2961  if(i==2)... */\n    tag_319:\n        /* \"contracts/stake_reward_MLM.sol\":2621:2961  if(i==1)... */\n    tag_317:\n        /* \"contracts/stake_reward_MLM.sol\":2530:2961  if(i==0)... */\n    tag_315:\n        /* \"contracts/stake_reward_MLM.sol\":3039:3040  0 */\n      0x00\n        /* \"contracts/stake_reward_MLM.sol\":2998:3041  DUSDinvestor[temp].referralFrom!=address(0) */\n      0xffffffffffffffffffffffffffffffffffffffff\n      and\n        /* \"contracts/stake_reward_MLM.sol\":2998:3010  DUSDinvestor */\n      0x0c\n        /* \"contracts/stake_reward_MLM.sol\":2998:3016  DUSDinvestor[temp] */\n      0x00\n        /* \"contracts/stake_reward_MLM.sol\":3011:3015  temp */\n      dup7\n        /* \"contracts/stake_reward_MLM.sol\":2998:3016  DUSDinvestor[temp] */\n      0xffffffffffffffffffffffffffffffffffffffff\n      and\n      0xffffffffffffffffffffffffffffffffffffffff\n      and\n      dup2\n      mstore\n      0x20\n      add\n      swap1\n      dup2\n      mstore\n      0x20\n      add\n      0x00\n      keccak256\n        /* \"contracts/stake_reward_MLM.sol\":2998:3029  DUSDinvestor[temp].referralFrom */\n      0x02\n      add\n      0x00\n      swap1\n      sload\n      swap1\n      0x0100\n      exp\n      swap1\n      div\n      0xffffffffffffffffffffffffffffffffffffffff\n      and\n        /* \"contracts/stake_reward_MLM.sol\":2998:3041  DUSDinvestor[temp].referralFrom!=address(0) */\n      0xffffffffffffffffffffffffffffffffffffffff\n      and\n      eq\n        /* \"contracts/stake_reward_MLM.sol\":2995:3655  if(DUSDinvestor[temp].referralFrom!=address(0))... */\n      tag_323\n      jumpi\n        /* \"contracts/stake_reward_MLM.sol\":3087:3099  DUSDinvestor */\n      0x0c\n        /* \"contracts/stake_reward_MLM.sol\":3087:3105  DUSDinvestor[temp] */\n      0x00\n        /* \"contracts/stake_reward_MLM.sol\":3100:3104  temp */\n      dup6\n        /* \"contracts/stake_reward_MLM.sol\":3087:3105  DUSDinvestor[temp] */\n      0xffffffffffffffffffffffffffffffffffffffff\n      and\n      0xffffffffffffffffffffffffffffffffffffffff\n      and\n      dup2\n      mstore\n      0x20\n      add\n      swap1\n      dup2\n      mstore\n      0x20\n      add\n      0x00\n      keccak256\n        /* \"contracts/stake_reward_MLM.sol\":3087:3118  DUSDinvestor[temp].referralFrom */\n      0x02\n      add\n      0x00\n      swap1\n      sload\n      swap1\n      0x0100\n      exp\n      swap1\n      div\n      0xffffffffffffffffffffffffffffffffffffffff\n      and\n        /* \"contracts/stake_reward_MLM.sol\":3082:3118  temp=DUSDinvestor[temp].referralFrom */\n      swap4\n      pop\n        /* \"contracts/stake_reward_MLM.sol\":3140:3152  uint reward1 */\n      0x00\n        /* \"contracts/stake_reward_MLM.sol\":3201:3204  100 */\n      0x64\n        /* \"contracts/stake_reward_MLM.sol\":3184:3199  _investedAmount */\n      dup7\n        /* \"contracts/stake_reward_MLM.sol\":3171:3180  100000000 */\n      0x05f5e100\n        /* \"contracts/stake_reward_MLM.sol\":3157:3167  percentage */\n      dup7\n        /* \"contracts/stake_reward_MLM.sol\":3168:3169  j */\n      dup7\n        /* \"contracts/stake_reward_MLM.sol\":3157:3170  percentage[j] */\n      dup2\n      mload\n      dup2\n      lt\n      tag_324\n      jumpi\n      tag_325\n      tag_182\n      jump\t// in\n    tag_325:\n    tag_324:\n      0x20\n      mul\n      0x20\n      add\n      add\n      mload\n        /* \"contracts/stake_reward_MLM.sol\":3157:3180  percentage[j]*100000000 */\n      tag_326\n      swap2\n      swap1\n      tag_147\n      jump\t// in\n    tag_326:\n        /* \"contracts/stake_reward_MLM.sol\":3156:3199  (percentage[j]*100000000) * _investedAmount */\n      tag_327\n      swap2\n      swap1\n      tag_147\n      jump\t// in\n    tag_327:\n        /* \"contracts/stake_reward_MLM.sol\":3155:3204  ((percentage[j]*100000000) * _investedAmount)/100 */\n      tag_328\n      swap2\n      swap1\n      tag_195\n      jump\t// in\n    tag_328:\n        /* \"contracts/stake_reward_MLM.sol\":3140:3204  uint reward1 = ((percentage[j]*100000000) * _investedAmount)/100 */\n      swap1\n      pop\n        /* \"contracts/stake_reward_MLM.sol\":3232:3233  4 */\n      0x04\n        /* \"contracts/stake_reward_MLM.sol\":3229:3230  j */\n      dup4\n        /* \"contracts/stake_reward_MLM.sol\":3229:3233  j==4 */\n      eq\n        /* \"contracts/stake_reward_MLM.sol\":3226:3323  if(j==4)... */\n      iszero\n      tag_329\n      jumpi\n        /* \"contracts/stake_reward_MLM.sol\":3299:3300  2 */\n      0x02\n        /* \"contracts/stake_reward_MLM.sol\":3291:3298  reward1 */\n      dup2\n        /* \"contracts/stake_reward_MLM.sol\":3291:3300  reward1/2 */\n      tag_330\n      swap2\n      swap1\n      tag_195\n      jump\t// in\n    tag_330:\n        /* \"contracts/stake_reward_MLM.sol\":3281:3300  reward1 = reward1/2 */\n      swap1\n      pop\n        /* \"contracts/stake_reward_MLM.sol\":3226:3323  if(j==4)... */\n    tag_329:\n        /* \"contracts/stake_reward_MLM.sol\":3393:3404  SMCcontract */\n      0x01\n      0x00\n      swap1\n      sload\n      swap1\n      0x0100\n      exp\n      swap1\n      div\n      0xffffffffffffffffffffffffffffffffffffffff\n      and\n        /* \"contracts/stake_reward_MLM.sol\":3388:3414  DUSD(SMCcontract).transfer */\n      0xffffffffffffffffffffffffffffffffffffffff\n      and\n      0xa9059cbb\n        /* \"contracts/stake_reward_MLM.sol\":3415:3419  temp */\n      dup7\n        /* \"contracts/stake_reward_MLM.sol\":3420:3427  reward1 */\n      dup4\n        /* \"contracts/stake_reward_MLM.sol\":3388:3428  DUSD(SMCcontract).transfer(temp,reward1) */\n      mload(0x40)\n      dup4\n      0xffffffff\n      and\n      0xe0\n      shl\n      dup2\n      mstore\n      0x04\n      add\n      tag_331\n      swap3\n      swap2\n      swap1\n      tag_221\n      jump\t// in\n    tag_331:\n      0x20\n      mload(0x40)\n      dup1\n      dup4\n      sub\n      dup2\n      0x00\n      dup8\n      dup1\n      extcodesize\n      iszero\n      dup1\n      iszero\n      tag_332\n      jumpi\n      0x00\n      dup1\n      revert\n    tag_332:\n      pop\n      gas\n      call\n      iszero\n      dup1\n      iszero\n      tag_334\n      jumpi\n      returndatasize\n      0x00\n      dup1\n      returndatacopy\n      revert(0x00, returndatasize)\n    tag_334:\n      pop\n      pop\n      pop\n      pop\n      mload(0x40)\n      returndatasize\n      not(0x1f)\n      0x1f\n      dup3\n      add\n      and\n      dup3\n      add\n      dup1\n      0x40\n      mstore\n      pop\n      dup2\n      add\n      swap1\n      tag_335\n      swap2\n      swap1\n      tag_154\n      jump\t// in\n    tag_335:\n      pop\n        /* \"contracts/stake_reward_MLM.sol\":3494:3501  reward1 */\n      dup1\n        /* \"contracts/stake_reward_MLM.sol\":3450:3462  DUSDinvestor */\n      0x0c\n        /* \"contracts/stake_reward_MLM.sol\":3450:3468  DUSDinvestor[temp] */\n      0x00\n        /* \"contracts/stake_reward_MLM.sol\":3463:3467  temp */\n      dup8\n        /* \"contracts/stake_reward_MLM.sol\":3450:3468  DUSDinvestor[temp] */\n      0xffffffffffffffffffffffffffffffffffffffff\n      and\n      0xffffffffffffffffffffffffffffffffffffffff\n      and\n      dup2\n      mstore\n      0x20\n      add\n      swap1\n      dup2\n      mstore\n      0x20\n      add\n      0x00\n      keccak256\n        /* \"contracts/stake_reward_MLM.sol\":3450:3482  DUSDinvestor[temp].referralLevel */\n      0x03\n      add\n        /* \"contracts/stake_reward_MLM.sol\":3450:3485  DUSDinvestor[temp].referralLevel[i] */\n      0x00\n        /* \"contracts/stake_reward_MLM.sol\":3483:3484  i */\n      dup5\n        /* \"contracts/stake_reward_MLM.sol\":3450:3485  DUSDinvestor[temp].referralLevel[i] */\n      dup2\n      mstore\n      0x20\n      add\n      swap1\n      dup2\n      mstore\n      0x20\n      add\n      0x00\n      keccak256\n        /* \"contracts/stake_reward_MLM.sol\":3450:3492  DUSDinvestor[temp].referralLevel[i].reward */\n      0x00\n      add\n      0x00\n        /* \"contracts/stake_reward_MLM.sol\":3450:3501  DUSDinvestor[temp].referralLevel[i].reward+=reward1 */\n      dup3\n      dup3\n      sload\n      tag_336\n      swap2\n      swap1\n      tag_141\n      jump\t// in\n    tag_336:\n      swap3\n      pop\n      pop\n      dup2\n      swap1\n      sstore\n      pop\n        /* \"contracts/stake_reward_MLM.sol\":3523:3535  DUSDinvestor */\n      0x0c\n        /* \"contracts/stake_reward_MLM.sol\":3523:3541  DUSDinvestor[temp] */\n      0x00\n        /* \"contracts/stake_reward_MLM.sol\":3536:3540  temp */\n      dup7\n        /* \"contracts/stake_reward_MLM.sol\":3523:3541  DUSDinvestor[temp] */\n      0xffffffffffffffffffffffffffffffffffffffff\n      and\n      0xffffffffffffffffffffffffffffffffffffffff\n      and\n      dup2\n      mstore\n      0x20\n      add\n      swap1\n      dup2\n      mstore\n      0x20\n      add\n      0x00\n      keccak256\n        /* \"contracts/stake_reward_MLM.sol\":3523:3555  DUSDinvestor[temp].referralLevel */\n      0x03\n      add\n        /* \"contracts/stake_reward_MLM.sol\":3523:3558  DUSDinvestor[temp].referralLevel[i] */\n      0x00\n        /* \"contracts/stake_reward_MLM.sol\":3556:3557  i */\n      dup4\n        /* \"contracts/stake_reward_MLM.sol\":3523:3558  DUSDinvestor[temp].referralLevel[i] */\n      dup2\n      mstore\n      0x20\n      add\n      swap1\n      dup2\n      mstore\n      0x20\n      add\n      0x00\n      keccak256\n        /* \"contracts/stake_reward_MLM.sol\":3523:3564  DUSDinvestor[temp].referralLevel[i].count */\n      0x01\n      add\n      0x00\n        /* \"contracts/stake_reward_MLM.sol\":3523:3566  DUSDinvestor[temp].referralLevel[i].count++ */\n      dup2\n      sload\n      dup1\n      swap3\n      swap2\n      swap1\n      tag_337\n      swap1\n      tag_138\n      jump\t// in\n    tag_337:\n      swap2\n      swap1\n      pop\n      sstore\n      pop\n        /* \"contracts/stake_reward_MLM.sol\":3059:3587  {... */\n      pop\n        /* \"contracts/stake_reward_MLM.sol\":2995:3655  if(DUSDinvestor[temp].referralFrom!=address(0))... */\n      jump(tag_338)\n    tag_323:\n        /* \"contracts/stake_reward_MLM.sol\":3631:3636  break */\n      jump(tag_312)\n        /* \"contracts/stake_reward_MLM.sol\":2995:3655  if(DUSDinvestor[temp].referralFrom!=address(0))... */\n    tag_338:\n        /* \"contracts/stake_reward_MLM.sol\":2494:2497  i++ */\n      dup1\n      dup1\n      tag_339\n      swap1\n      tag_138\n      jump\t// in\n    tag_339:\n      swap2\n      pop\n      pop\n        /* \"contracts/stake_reward_MLM.sol\":2476:3670  for(uint i=0;i<20;i++)... */\n      jump(tag_311)\n    tag_312:\n      pop\n        /* \"contracts/stake_reward_MLM.sol\":2182:3681  { ... */\n      pop\n      pop\n      pop\n        /* \"contracts/stake_reward_MLM.sol\":2018:3681  function sendRewardToDUSDReferrals(address investor,uint _investedAmount)  internal  //this is the freferral function to transfer the reawards to referrals... */\n      pop\n      pop\n      jump\t// out\n    tag_175:\n      mload(0x40)\n      dup1\n      0xc0\n      add\n      0x40\n      mstore\n      dup1\n      0x00\n      dup2\n      mstore\n      0x20\n      add\n      0x00\n      dup2\n      mstore\n      0x20\n      add\n      0x00\n      dup2\n      mstore\n      0x20\n      add\n      0x00\n      dup2\n      mstore\n      0x20\n      add\n      0x00\n      dup2\n      mstore\n      0x20\n      add\n      iszero(iszero(0x00))\n      dup2\n      mstore\n      pop\n      swap1\n      jump\t// out\n        /* \"#utility.yul\":7:146   */\n    tag_341:\n        /* \"#utility.yul\":53:58   */\n      0x00\n        /* \"#utility.yul\":91:97   */\n      dup2\n        /* \"#utility.yul\":78:98   */\n      calldataload\n        /* \"#utility.yul\":69:98   */\n      swap1\n      pop\n        /* \"#utility.yul\":107:140   */\n      tag_343\n        /* \"#utility.yul\":134:139   */\n      dup2\n        /* \"#utility.yul\":107:140   */\n      tag_344\n      jump\t// in\n    tag_343:\n        /* \"#utility.yul\":7:146   */\n      swap3\n      swap2\n      pop\n      pop\n      jump\t// out\n        /* \"#utility.yul\":152:289   */\n    tag_345:\n        /* \"#utility.yul\":206:211   */\n      0x00\n        /* \"#utility.yul\":237:243   */\n      dup2\n        /* \"#utility.yul\":231:244   */\n      mload\n        /* \"#utility.yul\":222:244   */\n      swap1\n      pop\n        /* \"#utility.yul\":253:283   */\n      tag_347\n        /* \"#utility.yul\":277:282   */\n      dup2\n        /* \"#utility.yul\":253:283   */\n      tag_348\n      jump\t// in\n    tag_347:\n        /* \"#utility.yul\":152:289   */\n      swap3\n      swap2\n      pop\n      pop\n      jump\t// out\n        /* \"#utility.yul\":295:434   */\n    tag_349:\n        /* \"#utility.yul\":341:346   */\n      0x00\n        /* \"#utility.yul\":379:385   */\n      dup2\n        /* \"#utility.yul\":366:386   */\n      calldataload\n        /* \"#utility.yul\":357:386   */\n      swap1\n      pop\n        /* \"#utility.yul\":395:428   */\n      tag_351\n        /* \"#utility.yul\":422:427   */\n      dup2\n        /* \"#utility.yul\":395:428   */\n      tag_352\n      jump\t// in\n    tag_351:\n        /* \"#utility.yul\":295:434   */\n      swap3\n      swap2\n      pop\n      pop\n      jump\t// out\n        /* \"#utility.yul\":440:769   */\n    tag_108:\n        /* \"#utility.yul\":499:505   */\n      0x00\n        /* \"#utility.yul\":548:550   */\n      0x20\n        /* \"#utility.yul\":536:545   */\n      dup3\n        /* \"#utility.yul\":527:534   */\n      dup5\n        /* \"#utility.yul\":523:546   */\n      sub\n        /* \"#utility.yul\":519:551   */\n      slt\n        /* \"#utility.yul\":516:635   */\n      iszero\n      tag_354\n      jumpi\n        /* \"#utility.yul\":554:633   */\n      tag_355\n      tag_356\n      jump\t// in\n    tag_355:\n        /* \"#utility.yul\":516:635   */\n    tag_354:\n        /* \"#utility.yul\":674:675   */\n      0x00\n        /* \"#utility.yul\":699:752   */\n      tag_357\n        /* \"#utility.yul\":744:751   */\n      dup5\n        /* \"#utility.yul\":735:741   */\n      dup3\n        /* \"#utility.yul\":724:733   */\n      dup6\n        /* \"#utility.yul\":720:742   */\n      add\n        /* \"#utility.yul\":699:752   */\n      tag_341\n      jump\t// in\n    tag_357:\n        /* \"#utility.yul\":689:752   */\n      swap2\n      pop\n        /* \"#utility.yul\":645:762   */\n      pop\n        /* \"#utility.yul\":440:769   */\n      swap3\n      swap2\n      pop\n      pop\n      jump\t// out\n        /* \"#utility.yul\":775:1120   */\n    tag_154:\n        /* \"#utility.yul\":842:848   */\n      0x00\n        /* \"#utility.yul\":891:893   */\n      0x20\n        /* \"#utility.yul\":879:888   */\n      dup3\n        /* \"#utility.yul\":870:877   */\n      dup5\n        /* \"#utility.yul\":866:889   */\n      sub\n        /* \"#utility.yul\":862:894   */\n      slt\n        /* \"#utility.yul\":859:978   */\n      iszero\n      tag_359\n      jumpi\n        /* \"#utility.yul\":897:976   */\n      tag_360\n      tag_356\n      jump\t// in\n    tag_360:\n        /* \"#utility.yul\":859:978   */\n    tag_359:\n        /* \"#utility.yul\":1017:1018   */\n      0x00\n        /* \"#utility.yul\":1042:1103   */\n      tag_361\n        /* \"#utility.yul\":1095:1102   */\n      dup5\n        /* \"#utility.yul\":1086:1092   */\n      dup3\n        /* \"#utility.yul\":1075:1084   */\n      dup6\n        /* \"#utility.yul\":1071:1093   */\n      add\n        /* \"#utility.yul\":1042:1103   */\n      tag_345\n      jump\t// in\n    tag_361:\n        /* \"#utility.yul\":1032:1103   */\n      swap2\n      pop\n        /* \"#utility.yul\":988:1113   */\n      pop\n        /* \"#utility.yul\":775:1120   */\n      swap3\n      swap2\n      pop\n      pop\n      jump\t// out\n        /* \"#utility.yul\":1126:1455   */\n    tag_53:\n        /* \"#utility.yul\":1185:1191   */\n      0x00\n        /* \"#utility.yul\":1234:1236   */\n      0x20\n        /* \"#utility.yul\":1222:1231   */\n      dup3\n        /* \"#utility.yul\":1213:1220   */\n      dup5\n        /* \"#utility.yul\":1209:1232   */\n      sub\n        /* \"#utility.yul\":1205:1237   */\n      slt\n        /* \"#utility.yul\":1202:1321   */\n      iszero\n      tag_363\n      jumpi\n        /* \"#utility.yul\":1240:1319   */\n      tag_364\n      tag_356\n      jump\t// in\n    tag_364:\n        /* \"#utility.yul\":1202:1321   */\n    tag_363:\n        /* \"#utility.yul\":1360:1361   */\n      0x00\n        /* \"#utility.yul\":1385:1438   */\n      tag_365\n        /* \"#utility.yul\":1430:1437   */\n      dup5\n        /* \"#utility.yul\":1421:1427   */\n      dup3\n        /* \"#utility.yul\":1410:1419   */\n      dup6\n        /* \"#utility.yul\":1406:1428   */\n      add\n        /* \"#utility.yul\":1385:1438   */\n      tag_349\n      jump\t// in\n    tag_365:\n        /* \"#utility.yul\":1375:1438   */\n      swap2\n      pop\n        /* \"#utility.yul\":1331:1448   */\n      pop\n        /* \"#utility.yul\":1126:1455   */\n      swap3\n      swap2\n      pop\n      pop\n      jump\t// out\n        /* \"#utility.yul\":1461:1935   */\n    tag_47:\n        /* \"#utility.yul\":1529:1535   */\n      0x00\n        /* \"#utility.yul\":1537:1543   */\n      dup1\n        /* \"#utility.yul\":1586:1588   */\n      0x40\n        /* \"#utility.yul\":1574:1583   */\n      dup4\n        /* \"#utility.yul\":1565:1572   */\n      dup6\n        /* \"#utility.yul\":1561:1584   */\n      sub\n        /* \"#utility.yul\":1557:1589   */\n      slt\n        /* \"#utility.yul\":1554:1673   */\n      iszero\n      tag_367\n      jumpi\n        /* \"#utility.yul\":1592:1671   */\n      tag_368\n      tag_356\n      jump\t// in\n    tag_368:\n        /* \"#utility.yul\":1554:1673   */\n    tag_367:\n        /* \"#utility.yul\":1712:1713   */\n      0x00\n        /* \"#utility.yul\":1737:1790   */\n      tag_369\n        /* \"#utility.yul\":1782:1789   */\n      dup6\n        /* \"#utility.yul\":1773:1779   */\n      dup3\n        /* \"#utility.yul\":1762:1771   */\n      dup7\n        /* \"#utility.yul\":1758:1780   */\n      add\n        /* \"#utility.yul\":1737:1790   */\n      tag_349\n      jump\t// in\n    tag_369:\n        /* \"#utility.yul\":1727:1790   */\n      swap3\n      pop\n        /* \"#utility.yul\":1683:1800   */\n      pop\n        /* \"#utility.yul\":1839:1841   */\n      0x20\n        /* \"#utility.yul\":1865:1918   */\n      tag_370\n        /* \"#utility.yul\":1910:1917   */\n      dup6\n        /* \"#utility.yul\":1901:1907   */\n      dup3\n        /* \"#utility.yul\":1890:1899   */\n      dup7\n        /* \"#utility.yul\":1886:1908   */\n      add\n        /* \"#utility.yul\":1865:1918   */\n      tag_341\n      jump\t// in\n    tag_370:\n        /* \"#utility.yul\":1855:1918   */\n      swap2\n      pop\n        /* \"#utility.yul\":1810:1928   */\n      pop\n        /* \"#utility.yul\":1461:1935   */\n      swap3\n      pop\n      swap3\n      swap1\n      pop\n      jump\t// out\n        /* \"#utility.yul\":1941:2415   */\n    tag_94:\n        /* \"#utility.yul\":2009:2015   */\n      0x00\n        /* \"#utility.yul\":2017:2023   */\n      dup1\n        /* \"#utility.yul\":2066:2068   */\n      0x40\n        /* \"#utility.yul\":2054:2063   */\n      dup4\n        /* \"#utility.yul\":2045:2052   */\n      dup6\n        /* \"#utility.yul\":2041:2064   */\n      sub\n        /* \"#utility.yul\":2037:2069   */\n      slt\n        /* \"#utility.yul\":2034:2153   */\n      iszero\n      tag_372\n      jumpi\n        /* \"#utility.yul\":2072:2151   */\n      tag_373\n      tag_356\n      jump\t// in\n    tag_373:\n        /* \"#utility.yul\":2034:2153   */\n    tag_372:\n        /* \"#utility.yul\":2192:2193   */\n      0x00\n        /* \"#utility.yul\":2217:2270   */\n      tag_374\n        /* \"#utility.yul\":2262:2269   */\n      dup6\n        /* \"#utility.yul\":2253:2259   */\n      dup3\n        /* \"#utility.yul\":2242:2251   */\n      dup7\n        /* \"#utility.yul\":2238:2260   */\n      add\n        /* \"#utility.yul\":2217:2270   */\n      tag_349\n      jump\t// in\n    tag_374:\n        /* \"#utility.yul\":2207:2270   */\n      swap3\n      pop\n        /* \"#utility.yul\":2163:2280   */\n      pop\n        /* \"#utility.yul\":2319:2321   */\n      0x20\n        /* \"#utility.yul\":2345:2398   */\n      tag_375\n        /* \"#utility.yul\":2390:2397   */\n      dup6\n        /* \"#utility.yul\":2381:2387   */\n      dup3\n        /* \"#utility.yul\":2370:2379   */\n      dup7\n        /* \"#utility.yul\":2366:2388   */\n      add\n        /* \"#utility.yul\":2345:2398   */\n      tag_349\n      jump\t// in\n    tag_375:\n        /* \"#utility.yul\":2335:2398   */\n      swap2\n      pop\n        /* \"#utility.yul\":2290:2408   */\n      pop\n        /* \"#utility.yul\":1941:2415   */\n      swap3\n      pop\n      swap3\n      swap1\n      pop\n      jump\t// out\n        /* \"#utility.yul\":2421:3186   */\n    tag_67:\n        /* \"#utility.yul\":2507:2513   */\n      0x00\n        /* \"#utility.yul\":2515:2521   */\n      dup1\n        /* \"#utility.yul\":2523:2529   */\n      0x00\n        /* \"#utility.yul\":2531:2537   */\n      dup1\n        /* \"#utility.yul\":2580:2583   */\n      0x80\n        /* \"#utility.yul\":2568:2577   */\n      dup6\n        /* \"#utility.yul\":2559:2566   */\n      dup8\n        /* \"#utility.yul\":2555:2578   */\n      sub\n        /* \"#utility.yul\":2551:2584   */\n      slt\n        /* \"#utility.yul\":2548:2668   */\n      iszero\n      tag_377\n      jumpi\n        /* \"#utility.yul\":2587:2666   */\n      tag_378\n      tag_356\n      jump\t// in\n    tag_378:\n        /* \"#utility.yul\":2548:2668   */\n    tag_377:\n        /* \"#utility.yul\":2707:2708   */\n      0x00\n        /* \"#utility.yul\":2732:2785   */\n      tag_379\n        /* \"#utility.yul\":2777:2784   */\n      dup8\n        /* \"#utility.yul\":2768:2774   */\n      dup3\n        /* \"#utility.yul\":2757:2766   */\n      dup9\n        /* \"#utility.yul\":2753:2775   */\n      add\n        /* \"#utility.yul\":2732:2785   */\n      tag_349\n      jump\t// in\n    tag_379:\n        /* \"#utility.yul\":2722:2785   */\n      swap5\n      pop\n        /* \"#utility.yul\":2678:2795   */\n      pop\n        /* \"#utility.yul\":2834:2836   */\n      0x20\n        /* \"#utility.yul\":2860:2913   */\n      tag_380\n        /* \"#utility.yul\":2905:2912   */\n      dup8\n        /* \"#utility.yul\":2896:2902   */\n      dup3\n        /* \"#utility.yul\":2885:2894   */\n      dup9\n        /* \"#utility.yul\":2881:2903   */\n      add\n        /* \"#utility.yul\":2860:2913   */\n      tag_349\n      jump\t// in\n    tag_380:\n        /* \"#utility.yul\":2850:2913   */\n      swap4\n      pop\n        /* \"#utility.yul\":2805:2923   */\n      pop\n        /* \"#utility.yul\":2962:2964   */\n      0x40\n        /* \"#utility.yul\":2988:3041   */\n      tag_381\n        /* \"#utility.yul\":3033:3040   */\n      dup8\n        /* \"#utility.yul\":3024:3030   */\n      dup3\n        /* \"#utility.yul\":3013:3022   */\n      dup9\n        /* \"#utility.yul\":3009:3031   */\n      add\n        /* \"#utility.yul\":2988:3041   */\n      tag_349\n      jump\t// in\n    tag_381:\n        /* \"#utility.yul\":2978:3041   */\n      swap3\n      pop\n        /* \"#utility.yul\":2933:3051   */\n      pop\n        /* \"#utility.yul\":3090:3092   */\n      0x60\n        /* \"#utility.yul\":3116:3169   */\n      tag_382\n        /* \"#utility.yul\":3161:3168   */\n      dup8\n        /* \"#utility.yul\":3152:3158   */\n      dup3\n        /* \"#utility.yul\":3141:3150   */\n      dup9\n        /* \"#utility.yul\":3137:3159   */\n      add\n        /* \"#utility.yul\":3116:3169   */\n      tag_349\n      jump\t// in\n    tag_382:\n        /* \"#utility.yul\":3106:3169   */\n      swap2\n      pop\n        /* \"#utility.yul\":3061:3179   */\n      pop\n        /* \"#utility.yul\":2421:3186   */\n      swap3\n      swap6\n      swap2\n      swap5\n      pop\n      swap3\n      pop\n      jump\t// out\n        /* \"#utility.yul\":3192:3371   */\n    tag_383:\n        /* \"#utility.yul\":3261:3271   */\n      0x00\n        /* \"#utility.yul\":3282:3328   */\n      tag_385\n        /* \"#utility.yul\":3324:3327   */\n      dup4\n        /* \"#utility.yul\":3316:3322   */\n      dup4\n        /* \"#utility.yul\":3282:3328   */\n      tag_386\n      jump\t// in\n    tag_385:\n        /* \"#utility.yul\":3360:3364   */\n      0x20\n        /* \"#utility.yul\":3355:3358   */\n      dup4\n        /* \"#utility.yul\":3351:3365   */\n      add\n        /* \"#utility.yul\":3337:3365   */\n      swap1\n      pop\n        /* \"#utility.yul\":3192:3371   */\n      swap3\n      swap2\n      pop\n      pop\n      jump\t// out\n        /* \"#utility.yul\":3377:3676   */\n    tag_387:\n        /* \"#utility.yul\":3506:3516   */\n      0x00\n        /* \"#utility.yul\":3527:3633   */\n      tag_389\n        /* \"#utility.yul\":3629:3632   */\n      dup4\n        /* \"#utility.yul\":3621:3627   */\n      dup4\n        /* \"#utility.yul\":3527:3633   */\n      tag_390\n      jump\t// in\n    tag_389:\n        /* \"#utility.yul\":3665:3669   */\n      0xc0\n        /* \"#utility.yul\":3660:3663   */\n      dup4\n        /* \"#utility.yul\":3656:3670   */\n      add\n        /* \"#utility.yul\":3642:3670   */\n      swap1\n      pop\n        /* \"#utility.yul\":3377:3676   */\n      swap3\n      swap2\n      pop\n      pop\n      jump\t// out\n        /* \"#utility.yul\":3682:3861   */\n    tag_391:\n        /* \"#utility.yul\":3751:3761   */\n      0x00\n        /* \"#utility.yul\":3772:3818   */\n      tag_393\n        /* \"#utility.yul\":3814:3817   */\n      dup4\n        /* \"#utility.yul\":3806:3812   */\n      dup4\n        /* \"#utility.yul\":3772:3818   */\n      tag_394\n      jump\t// in\n    tag_393:\n        /* \"#utility.yul\":3850:3854   */\n      0x20\n        /* \"#utility.yul\":3845:3848   */\n      dup4\n        /* \"#utility.yul\":3841:3855   */\n      add\n        /* \"#utility.yul\":3827:3855   */\n      swap1\n      pop\n        /* \"#utility.yul\":3682:3861   */\n      swap3\n      swap2\n      pop\n      pop\n      jump\t// out\n        /* \"#utility.yul\":3867:3975   */\n    tag_386:\n        /* \"#utility.yul\":3944:3968   */\n      tag_396\n        /* \"#utility.yul\":3962:3967   */\n      dup2\n        /* \"#utility.yul\":3944:3968   */\n      tag_397\n      jump\t// in\n    tag_396:\n        /* \"#utility.yul\":3939:3942   */\n      dup3\n        /* \"#utility.yul\":3932:3969   */\n      mstore\n        /* \"#utility.yul\":3867:3975   */\n      pop\n      pop\n      jump\t// out\n        /* \"#utility.yul\":3981:4099   */\n    tag_398:\n        /* \"#utility.yul\":4068:4092   */\n      tag_400\n        /* \"#utility.yul\":4086:4091   */\n      dup2\n        /* \"#utility.yul\":4068:4092   */\n      tag_397\n      jump\t// in\n    tag_400:\n        /* \"#utility.yul\":4063:4066   */\n      dup3\n        /* \"#utility.yul\":4056:4093   */\n      mstore\n        /* \"#utility.yul\":3981:4099   */\n      pop\n      pop\n      jump\t// out\n        /* \"#utility.yul\":4135:4867   */\n    tag_401:\n        /* \"#utility.yul\":4254:4257   */\n      0x00\n        /* \"#utility.yul\":4283:4337   */\n      tag_403\n        /* \"#utility.yul\":4331:4336   */\n      dup3\n        /* \"#utility.yul\":4283:4337   */\n      tag_404\n      jump\t// in\n    tag_403:\n        /* \"#utility.yul\":4353:4439   */\n      tag_405\n        /* \"#utility.yul\":4432:4438   */\n      dup2\n        /* \"#utility.yul\":4427:4430   */\n      dup6\n        /* \"#utility.yul\":4353:4439   */\n      tag_406\n      jump\t// in\n    tag_405:\n        /* \"#utility.yul\":4346:4439   */\n      swap4\n      pop\n        /* \"#utility.yul\":4463:4519   */\n      tag_407\n        /* \"#utility.yul\":4513:4518   */\n      dup4\n        /* \"#utility.yul\":4463:4519   */\n      tag_408\n      jump\t// in\n    tag_407:\n        /* \"#utility.yul\":4542:4549   */\n      dup1\n        /* \"#utility.yul\":4573:4574   */\n      0x00\n        /* \"#utility.yul\":4558:4842   */\n    tag_409:\n        /* \"#utility.yul\":4583:4589   */\n      dup4\n        /* \"#utility.yul\":4580:4581   */\n      dup2\n        /* \"#utility.yul\":4577:4590   */\n      lt\n        /* \"#utility.yul\":4558:4842   */\n      iszero\n      tag_411\n      jumpi\n        /* \"#utility.yul\":4659:4665   */\n      dup2\n        /* \"#utility.yul\":4653:4666   */\n      mload\n        /* \"#utility.yul\":4686:4749   */\n      tag_412\n        /* \"#utility.yul\":4745:4748   */\n      dup9\n        /* \"#utility.yul\":4730:4743   */\n      dup3\n        /* \"#utility.yul\":4686:4749   */\n      tag_383\n      jump\t// in\n    tag_412:\n        /* \"#utility.yul\":4679:4749   */\n      swap8\n      pop\n        /* \"#utility.yul\":4772:4832   */\n      tag_413\n        /* \"#utility.yul\":4825:4831   */\n      dup4\n        /* \"#utility.yul\":4772:4832   */\n      tag_414\n      jump\t// in\n    tag_413:\n        /* \"#utility.yul\":4762:4832   */\n      swap3\n      pop\n        /* \"#utility.yul\":4618:4842   */\n      pop\n        /* \"#utility.yul\":4605:4606   */\n      0x01\n        /* \"#utility.yul\":4602:4603   */\n      dup2\n        /* \"#utility.yul\":4598:4607   */\n      add\n        /* \"#utility.yul\":4593:4607   */\n      swap1\n      pop\n        /* \"#utility.yul\":4558:4842   */\n      jump(tag_409)\n    tag_411:\n        /* \"#utility.yul\":4562:4576   */\n      pop\n        /* \"#utility.yul\":4858:4861   */\n      dup6\n        /* \"#utility.yul\":4851:4861   */\n      swap4\n      pop\n        /* \"#utility.yul\":4259:4867   */\n      pop\n      pop\n      pop\n        /* \"#utility.yul\":4135:4867   */\n      swap3\n      swap2\n      pop\n      pop\n      jump\t// out\n        /* \"#utility.yul\":4945:5917   */\n    tag_415:\n        /* \"#utility.yul\":5124:5127   */\n      0x00\n        /* \"#utility.yul\":5153:5237   */\n      tag_417\n        /* \"#utility.yul\":5231:5236   */\n      dup3\n        /* \"#utility.yul\":5153:5237   */\n      tag_418\n      jump\t// in\n    tag_417:\n        /* \"#utility.yul\":5253:5369   */\n      tag_419\n        /* \"#utility.yul\":5362:5368   */\n      dup2\n        /* \"#utility.yul\":5357:5360   */\n      dup6\n        /* \"#utility.yul\":5253:5369   */\n      tag_420\n      jump\t// in\n    tag_419:\n        /* \"#utility.yul\":5246:5369   */\n      swap4\n      pop\n        /* \"#utility.yul\":5393:5479   */\n      tag_421\n        /* \"#utility.yul\":5473:5478   */\n      dup4\n        /* \"#utility.yul\":5393:5479   */\n      tag_422\n      jump\t// in\n    tag_421:\n        /* \"#utility.yul\":5502:5509   */\n      dup1\n        /* \"#utility.yul\":5533:5534   */\n      0x00\n        /* \"#utility.yul\":5518:5892   */\n    tag_423:\n        /* \"#utility.yul\":5543:5549   */\n      dup4\n        /* \"#utility.yul\":5540:5541   */\n      dup2\n        /* \"#utility.yul\":5537:5550   */\n      lt\n        /* \"#utility.yul\":5518:5892   */\n      iszero\n      tag_425\n      jumpi\n        /* \"#utility.yul\":5619:5625   */\n      dup2\n        /* \"#utility.yul\":5613:5626   */\n      mload\n        /* \"#utility.yul\":5646:5769   */\n      tag_426\n        /* \"#utility.yul\":5765:5768   */\n      dup9\n        /* \"#utility.yul\":5750:5763   */\n      dup3\n        /* \"#utility.yul\":5646:5769   */\n      tag_387\n      jump\t// in\n    tag_426:\n        /* \"#utility.yul\":5639:5769   */\n      swap8\n      pop\n        /* \"#utility.yul\":5792:5882   */\n      tag_427\n        /* \"#utility.yul\":5875:5881   */\n      dup4\n        /* \"#utility.yul\":5792:5882   */\n      tag_428\n      jump\t// in\n    tag_427:\n        /* \"#utility.yul\":5782:5882   */\n      swap3\n      pop\n        /* \"#utility.yul\":5578:5892   */\n      pop\n        /* \"#utility.yul\":5565:5566   */\n      0x01\n        /* \"#utility.yul\":5562:5563   */\n      dup2\n        /* \"#utility.yul\":5558:5567   */\n      add\n        /* \"#utility.yul\":5553:5567   */\n      swap1\n      pop\n        /* \"#utility.yul\":5518:5892   */\n      jump(tag_423)\n    tag_425:\n        /* \"#utility.yul\":5522:5536   */\n      pop\n        /* \"#utility.yul\":5908:5911   */\n      dup6\n        /* \"#utility.yul\":5901:5911   */\n      swap4\n      pop\n        /* \"#utility.yul\":5129:5917   */\n      pop\n      pop\n      pop\n        /* \"#utility.yul\":4945:5917   */\n      swap3\n      swap2\n      pop\n      pop\n      jump\t// out\n        /* \"#utility.yul\":5953:6685   */\n    tag_429:\n        /* \"#utility.yul\":6072:6075   */\n      0x00\n        /* \"#utility.yul\":6101:6155   */\n      tag_431\n        /* \"#utility.yul\":6149:6154   */\n      dup3\n        /* \"#utility.yul\":6101:6155   */\n      tag_432\n      jump\t// in\n    tag_431:\n        /* \"#utility.yul\":6171:6257   */\n      tag_433\n        /* \"#utility.yul\":6250:6256   */\n      dup2\n        /* \"#utility.yul\":6245:6248   */\n      dup6\n        /* \"#utility.yul\":6171:6257   */\n      tag_434\n      jump\t// in\n    tag_433:\n        /* \"#utility.yul\":6164:6257   */\n      swap4\n      pop\n        /* \"#utility.yul\":6281:6337   */\n      tag_435\n        /* \"#utility.yul\":6331:6336   */\n      dup4\n        /* \"#utility.yul\":6281:6337   */\n      tag_436\n      jump\t// in\n    tag_435:\n        /* \"#utility.yul\":6360:6367   */\n      dup1\n        /* \"#utility.yul\":6391:6392   */\n      0x00\n        /* \"#utility.yul\":6376:6660   */\n    tag_437:\n        /* \"#utility.yul\":6401:6407   */\n      dup4\n        /* \"#utility.yul\":6398:6399   */\n      dup2\n        /* \"#utility.yul\":6395:6408   */\n      lt\n        /* \"#utility.yul\":6376:6660   */\n      iszero\n      tag_439\n      jumpi\n        /* \"#utility.yul\":6477:6483   */\n      dup2\n        /* \"#utility.yul\":6471:6484   */\n      mload\n        /* \"#utility.yul\":6504:6567   */\n      tag_440\n        /* \"#utility.yul\":6563:6566   */\n      dup9\n        /* \"#utility.yul\":6548:6561   */\n      dup3\n        /* \"#utility.yul\":6504:6567   */\n      tag_391\n      jump\t// in\n    tag_440:\n        /* \"#utility.yul\":6497:6567   */\n      swap8\n      pop\n        /* \"#utility.yul\":6590:6650   */\n      tag_441\n        /* \"#utility.yul\":6643:6649   */\n      dup4\n        /* \"#utility.yul\":6590:6650   */\n      tag_442\n      jump\t// in\n    tag_441:\n        /* \"#utility.yul\":6580:6650   */\n      swap3\n      pop\n        /* \"#utility.yul\":6436:6660   */\n      pop\n        /* \"#utility.yul\":6423:6424   */\n      0x01\n        /* \"#utility.yul\":6420:6421   */\n      dup2\n        /* \"#utility.yul\":6416:6425   */\n      add\n        /* \"#utility.yul\":6411:6425   */\n      swap1\n      pop\n        /* \"#utility.yul\":6376:6660   */\n      jump(tag_437)\n    tag_439:\n        /* \"#utility.yul\":6380:6394   */\n      pop\n        /* \"#utility.yul\":6676:6679   */\n      dup6\n        /* \"#utility.yul\":6669:6679   */\n      swap4\n      pop\n        /* \"#utility.yul\":6077:6685   */\n      pop\n      pop\n      pop\n        /* \"#utility.yul\":5953:6685   */\n      swap3\n      swap2\n      pop\n      pop\n      jump\t// out\n        /* \"#utility.yul\":6691:6790   */\n    tag_443:\n        /* \"#utility.yul\":6762:6783   */\n      tag_445\n        /* \"#utility.yul\":6777:6782   */\n      dup2\n        /* \"#utility.yul\":6762:6783   */\n      tag_446\n      jump\t// in\n    tag_445:\n        /* \"#utility.yul\":6757:6760   */\n      dup3\n        /* \"#utility.yul\":6750:6784   */\n      mstore\n        /* \"#utility.yul\":6691:6790   */\n      pop\n      pop\n      jump\t// out\n        /* \"#utility.yul\":6796:6905   */\n    tag_447:\n        /* \"#utility.yul\":6877:6898   */\n      tag_449\n        /* \"#utility.yul\":6892:6897   */\n      dup2\n        /* \"#utility.yul\":6877:6898   */\n      tag_446\n      jump\t// in\n    tag_449:\n        /* \"#utility.yul\":6872:6875   */\n      dup3\n        /* \"#utility.yul\":6865:6899   */\n      mstore\n        /* \"#utility.yul\":6796:6905   */\n      pop\n      pop\n      jump\t// out\n        /* \"#utility.yul\":6911:7277   */\n    tag_450:\n        /* \"#utility.yul\":7053:7056   */\n      0x00\n        /* \"#utility.yul\":7074:7141   */\n      tag_452\n        /* \"#utility.yul\":7138:7140   */\n      0x25\n        /* \"#utility.yul\":7133:7136   */\n      dup4\n        /* \"#utility.yul\":7074:7141   */\n      tag_453\n      jump\t// in\n    tag_452:\n        /* \"#utility.yul\":7067:7141   */\n      swap2\n      pop\n        /* \"#utility.yul\":7150:7243   */\n      tag_454\n        /* \"#utility.yul\":7239:7242   */\n      dup3\n        /* \"#utility.yul\":7150:7243   */\n      tag_455\n      jump\t// in\n    tag_454:\n        /* \"#utility.yul\":7268:7270   */\n      0x40\n        /* \"#utility.yul\":7263:7266   */\n      dup3\n        /* \"#utility.yul\":7259:7271   */\n      add\n        /* \"#utility.yul\":7252:7271   */\n      swap1\n      pop\n        /* \"#utility.yul\":6911:7277   */\n      swap2\n      swap1\n      pop\n      jump\t// out\n        /* \"#utility.yul\":7283:7649   */\n    tag_456:\n        /* \"#utility.yul\":7425:7428   */\n      0x00\n        /* \"#utility.yul\":7446:7513   */\n      tag_458\n        /* \"#utility.yul\":7510:7512   */\n      0x35\n        /* \"#utility.yul\":7505:7508   */\n      dup4\n        /* \"#utility.yul\":7446:7513   */\n      tag_453\n      jump\t// in\n    tag_458:\n        /* \"#utility.yul\":7439:7513   */\n      swap2\n      pop\n        /* \"#utility.yul\":7522:7615   */\n      tag_459\n        /* \"#utility.yul\":7611:7614   */\n      dup3\n        /* \"#utility.yul\":7522:7615   */\n      tag_460\n      jump\t// in\n    tag_459:\n        /* \"#utility.yul\":7640:7642   */\n      0x40\n        /* \"#utility.yul\":7635:7638   */\n      dup3\n        /* \"#utility.yul\":7631:7643   */\n      add\n        /* \"#utility.yul\":7624:7643   */\n      swap1\n      pop\n        /* \"#utility.yul\":7283:7649   */\n      swap2\n      swap1\n      pop\n      jump\t// out\n        /* \"#utility.yul\":7655:8021   */\n    tag_461:\n        /* \"#utility.yul\":7797:7800   */\n      0x00\n        /* \"#utility.yul\":7818:7885   */\n      tag_463\n        /* \"#utility.yul\":7882:7884   */\n      0x22\n        /* \"#utility.yul\":7877:7880   */\n      dup4\n        /* \"#utility.yul\":7818:7885   */\n      tag_453\n      jump\t// in\n    tag_463:\n        /* \"#utility.yul\":7811:7885   */\n      swap2\n      pop\n        /* \"#utility.yul\":7894:7987   */\n      tag_464\n        /* \"#utility.yul\":7983:7986   */\n      dup3\n        /* \"#utility.yul\":7894:7987   */\n      tag_465\n      jump\t// in\n    tag_464:\n        /* \"#utility.yul\":8012:8014   */\n      0x40\n        /* \"#utility.yul\":8007:8010   */\n      dup3\n        /* \"#utility.yul\":8003:8015   */\n      add\n        /* \"#utility.yul\":7996:8015   */\n      swap1\n      pop\n        /* \"#utility.yul\":7655:8021   */\n      swap2\n      swap1\n      pop\n      jump\t// out\n        /* \"#utility.yul\":8027:8393   */\n    tag_466:\n        /* \"#utility.yul\":8169:8172   */\n      0x00\n        /* \"#utility.yul\":8190:8257   */\n      tag_468\n        /* \"#utility.yul\":8254:8256   */\n      0x21\n        /* \"#utility.yul\":8249:8252   */\n      dup4\n        /* \"#utility.yul\":8190:8257   */\n      tag_453\n      jump\t// in\n    tag_468:\n        /* \"#utility.yul\":8183:8257   */\n      swap2\n      pop\n        /* \"#utility.yul\":8266:8359   */\n      tag_469\n        /* \"#utility.yul\":8355:8358   */\n      dup3\n        /* \"#utility.yul\":8266:8359   */\n      tag_470\n      jump\t// in\n    tag_469:\n        /* \"#utility.yul\":8384:8386   */\n      0x40\n        /* \"#utility.yul\":8379:8382   */\n      dup3\n        /* \"#utility.yul\":8375:8387   */\n      add\n        /* \"#utility.yul\":8368:8387   */\n      swap1\n      pop\n        /* \"#utility.yul\":8027:8393   */\n      swap2\n      swap1\n      pop\n      jump\t// out\n        /* \"#utility.yul\":8467:9709   */\n    tag_390:\n        /* \"#utility.yul\":8614:8618   */\n      0xc0\n        /* \"#utility.yul\":8609:8612   */\n      dup3\n        /* \"#utility.yul\":8605:8619   */\n      add\n        /* \"#utility.yul\":8711:8715   */\n      0x00\n        /* \"#utility.yul\":8704:8709   */\n      dup3\n        /* \"#utility.yul\":8700:8716   */\n      add\n        /* \"#utility.yul\":8694:8717   */\n      mload\n        /* \"#utility.yul\":8730:8793   */\n      tag_472\n        /* \"#utility.yul\":8787:8791   */\n      0x00\n        /* \"#utility.yul\":8782:8785   */\n      dup6\n        /* \"#utility.yul\":8778:8792   */\n      add\n        /* \"#utility.yul\":8764:8776   */\n      dup3\n        /* \"#utility.yul\":8730:8793   */\n      tag_394\n      jump\t// in\n    tag_472:\n        /* \"#utility.yul\":8629:8803   */\n      pop\n        /* \"#utility.yul\":8894:8898   */\n      0x20\n        /* \"#utility.yul\":8887:8892   */\n      dup3\n        /* \"#utility.yul\":8883:8899   */\n      add\n        /* \"#utility.yul\":8877:8900   */\n      mload\n        /* \"#utility.yul\":8913:8976   */\n      tag_473\n        /* \"#utility.yul\":8970:8974   */\n      0x20\n        /* \"#utility.yul\":8965:8968   */\n      dup6\n        /* \"#utility.yul\":8961:8975   */\n      add\n        /* \"#utility.yul\":8947:8959   */\n      dup3\n        /* \"#utility.yul\":8913:8976   */\n      tag_394\n      jump\t// in\n    tag_473:\n        /* \"#utility.yul\":8813:8986   */\n      pop\n        /* \"#utility.yul\":9075:9079   */\n      0x40\n        /* \"#utility.yul\":9068:9073   */\n      dup3\n        /* \"#utility.yul\":9064:9080   */\n      add\n        /* \"#utility.yul\":9058:9081   */\n      mload\n        /* \"#utility.yul\":9094:9157   */\n      tag_474\n        /* \"#utility.yul\":9151:9155   */\n      0x40\n        /* \"#utility.yul\":9146:9149   */\n      dup6\n        /* \"#utility.yul\":9142:9156   */\n      add\n        /* \"#utility.yul\":9128:9140   */\n      dup3\n        /* \"#utility.yul\":9094:9157   */\n      tag_394\n      jump\t// in\n    tag_474:\n        /* \"#utility.yul\":8996:9167   */\n      pop\n        /* \"#utility.yul\":9258:9262   */\n      0x60\n        /* \"#utility.yul\":9251:9256   */\n      dup3\n        /* \"#utility.yul\":9247:9263   */\n      add\n        /* \"#utility.yul\":9241:9264   */\n      mload\n        /* \"#utility.yul\":9277:9340   */\n      tag_475\n        /* \"#utility.yul\":9334:9338   */\n      0x60\n        /* \"#utility.yul\":9329:9332   */\n      dup6\n        /* \"#utility.yul\":9325:9339   */\n      add\n        /* \"#utility.yul\":9311:9323   */\n      dup3\n        /* \"#utility.yul\":9277:9340   */\n      tag_394\n      jump\t// in\n    tag_475:\n        /* \"#utility.yul\":9177:9350   */\n      pop\n        /* \"#utility.yul\":9439:9443   */\n      0x80\n        /* \"#utility.yul\":9432:9437   */\n      dup3\n        /* \"#utility.yul\":9428:9444   */\n      add\n        /* \"#utility.yul\":9422:9445   */\n      mload\n        /* \"#utility.yul\":9458:9521   */\n      tag_476\n        /* \"#utility.yul\":9515:9519   */\n      0x80\n        /* \"#utility.yul\":9510:9513   */\n      dup6\n        /* \"#utility.yul\":9506:9520   */\n      add\n        /* \"#utility.yul\":9492:9504   */\n      dup3\n        /* \"#utility.yul\":9458:9521   */\n      tag_394\n      jump\t// in\n    tag_476:\n        /* \"#utility.yul\":9360:9531   */\n      pop\n        /* \"#utility.yul\":9616:9620   */\n      0xa0\n        /* \"#utility.yul\":9609:9614   */\n      dup3\n        /* \"#utility.yul\":9605:9621   */\n      add\n        /* \"#utility.yul\":9599:9622   */\n      mload\n        /* \"#utility.yul\":9635:9692   */\n      tag_477\n        /* \"#utility.yul\":9686:9690   */\n      0xa0\n        /* \"#utility.yul\":9681:9684   */\n      dup6\n        /* \"#utility.yul\":9677:9691   */\n      add\n        /* \"#utility.yul\":9663:9675   */\n      dup3\n        /* \"#utility.yul\":9635:9692   */\n      tag_443\n      jump\t// in\n    tag_477:\n        /* \"#utility.yul\":9541:9702   */\n      pop\n        /* \"#utility.yul\":8583:9709   */\n      pop\n        /* \"#utility.yul\":8467:9709   */\n      pop\n      pop\n      jump\t// out\n        /* \"#utility.yul\":9715:9823   */\n    tag_394:\n        /* \"#utility.yul\":9792:9816   */\n      tag_479\n        /* \"#utility.yul\":9810:9815   */\n      dup2\n        /* \"#utility.yul\":9792:9816   */\n      tag_480\n      jump\t// in\n    tag_479:\n        /* \"#utility.yul\":9787:9790   */\n      dup3\n        /* \"#utility.yul\":9780:9817   */\n      mstore\n        /* \"#utility.yul\":9715:9823   */\n      pop\n      pop\n      jump\t// out\n        /* \"#utility.yul\":9829:9947   */\n    tag_481:\n        /* \"#utility.yul\":9916:9940   */\n      tag_483\n        /* \"#utility.yul\":9934:9939   */\n      dup2\n        /* \"#utility.yul\":9916:9940   */\n      tag_480\n      jump\t// in\n    tag_483:\n        /* \"#utility.yul\":9911:9914   */\n      dup3\n        /* \"#utility.yul\":9904:9941   */\n      mstore\n        /* \"#utility.yul\":9829:9947   */\n      pop\n      pop\n      jump\t// out\n        /* \"#utility.yul\":9953:10175   */\n    tag_76:\n        /* \"#utility.yul\":10046:10050   */\n      0x00\n        /* \"#utility.yul\":10084:10086   */\n      0x20\n        /* \"#utility.yul\":10073:10082   */\n      dup3\n        /* \"#utility.yul\":10069:10087   */\n      add\n        /* \"#utility.yul\":10061:10087   */\n      swap1\n      pop\n        /* \"#utility.yul\":10097:10168   */\n      tag_485\n        /* \"#utility.yul\":10165:10166   */\n      0x00\n        /* \"#utility.yul\":10154:10163   */\n      dup4\n        /* \"#utility.yul\":10150:10167   */\n      add\n        /* \"#utility.yul\":10141:10147   */\n      dup5\n        /* \"#utility.yul\":10097:10168   */\n      tag_398\n      jump\t// in\n    tag_485:\n        /* \"#utility.yul\":9953:10175   */\n      swap3\n      swap2\n      pop\n      pop\n      jump\t// out\n        /* \"#utility.yul\":10181:10623   */\n    tag_149:\n        /* \"#utility.yul\":10330:10334   */\n      0x00\n        /* \"#utility.yul\":10368:10370   */\n      0x60\n        /* \"#utility.yul\":10357:10366   */\n      dup3\n        /* \"#utility.yul\":10353:10371   */\n      add\n        /* \"#utility.yul\":10345:10371   */\n      swap1\n      pop\n        /* \"#utility.yul\":10381:10452   */\n      tag_487\n        /* \"#utility.yul\":10449:10450   */\n      0x00\n        /* \"#utility.yul\":10438:10447   */\n      dup4\n        /* \"#utility.yul\":10434:10451   */\n      add\n        /* \"#utility.yul\":10425:10431   */\n      dup7\n        /* \"#utility.yul\":10381:10452   */\n      tag_398\n      jump\t// in\n    tag_487:\n        /* \"#utility.yul\":10462:10534   */\n      tag_488\n        /* \"#utility.yul\":10530:10532   */\n      0x20\n        /* \"#utility.yul\":10519:10528   */\n      dup4\n        /* \"#utility.yul\":10515:10533   */\n      add\n        /* \"#utility.yul\":10506:10512   */\n      dup6\n        /* \"#utility.yul\":10462:10534   */\n      tag_398\n      jump\t// in\n    tag_488:\n        /* \"#utility.yul\":10544:10616   */\n      tag_489\n        /* \"#utility.yul\":10612:10614   */\n      0x40\n        /* \"#utility.yul\":10601:10610   */\n      dup4\n        /* \"#utility.yul\":10597:10615   */\n      add\n        /* \"#utility.yul\":10588:10594   */\n      dup5\n        /* \"#utility.yul\":10544:10616   */\n      tag_481\n      jump\t// in\n    tag_489:\n        /* \"#utility.yul\":10181:10623   */\n      swap5\n      swap4\n      pop\n      pop\n      pop\n      pop\n      jump\t// out\n        /* \"#utility.yul\":10629:10961   */\n    tag_221:\n        /* \"#utility.yul\":10750:10754   */\n      0x00\n        /* \"#utility.yul\":10788:10790   */\n      0x40\n        /* \"#utility.yul\":10777:10786   */\n      dup3\n        /* \"#utility.yul\":10773:10791   */\n      add\n        /* \"#utility.yul\":10765:10791   */\n      swap1\n      pop\n        /* \"#utility.yul\":10801:10872   */\n      tag_491\n        /* \"#utility.yul\":10869:10870   */\n      0x00\n        /* \"#utility.yul\":10858:10867   */\n      dup4\n        /* \"#utility.yul\":10854:10871   */\n      add\n        /* \"#utility.yul\":10845:10851   */\n      dup6\n        /* \"#utility.yul\":10801:10872   */\n      tag_398\n      jump\t// in\n    tag_491:\n        /* \"#utility.yul\":10882:10954   */\n      tag_492\n        /* \"#utility.yul\":10950:10952   */\n      0x20\n        /* \"#utility.yul\":10939:10948   */\n      dup4\n        /* \"#utility.yul\":10935:10953   */\n      add\n        /* \"#utility.yul\":10926:10932   */\n      dup5\n        /* \"#utility.yul\":10882:10954   */\n      tag_481\n      jump\t// in\n    tag_492:\n        /* \"#utility.yul\":10629:10961   */\n      swap4\n      swap3\n      pop\n      pop\n      pop\n      jump\t// out\n        /* \"#utility.yul\":10967:11841   */\n    tag_111:\n        /* \"#utility.yul\":11222:11226   */\n      0x00\n        /* \"#utility.yul\":11260:11263   */\n      0xe0\n        /* \"#utility.yul\":11249:11258   */\n      dup3\n        /* \"#utility.yul\":11245:11264   */\n      add\n        /* \"#utility.yul\":11237:11264   */\n      swap1\n      pop\n        /* \"#utility.yul\":11274:11345   */\n      tag_494\n        /* \"#utility.yul\":11342:11343   */\n      0x00\n        /* \"#utility.yul\":11331:11340   */\n      dup4\n        /* \"#utility.yul\":11327:11344   */\n      add\n        /* \"#utility.yul\":11318:11324   */\n      dup11\n        /* \"#utility.yul\":11274:11345   */\n      tag_398\n      jump\t// in\n    tag_494:\n        /* \"#utility.yul\":11355:11427   */\n      tag_495\n        /* \"#utility.yul\":11423:11425   */\n      0x20\n        /* \"#utility.yul\":11412:11421   */\n      dup4\n        /* \"#utility.yul\":11408:11426   */\n      add\n        /* \"#utility.yul\":11399:11405   */\n      dup10\n        /* \"#utility.yul\":11355:11427   */\n      tag_481\n      jump\t// in\n    tag_495:\n        /* \"#utility.yul\":11437:11509   */\n      tag_496\n        /* \"#utility.yul\":11505:11507   */\n      0x40\n        /* \"#utility.yul\":11494:11503   */\n      dup4\n        /* \"#utility.yul\":11490:11508   */\n      add\n        /* \"#utility.yul\":11481:11487   */\n      dup9\n        /* \"#utility.yul\":11437:11509   */\n      tag_481\n      jump\t// in\n    tag_496:\n        /* \"#utility.yul\":11519:11591   */\n      tag_497\n        /* \"#utility.yul\":11587:11589   */\n      0x60\n        /* \"#utility.yul\":11576:11585   */\n      dup4\n        /* \"#utility.yul\":11572:11590   */\n      add\n        /* \"#utility.yul\":11563:11569   */\n      dup8\n        /* \"#utility.yul\":11519:11591   */\n      tag_481\n      jump\t// in\n    tag_497:\n        /* \"#utility.yul\":11601:11674   */\n      tag_498\n        /* \"#utility.yul\":11669:11672   */\n      0x80\n        /* \"#utility.yul\":11658:11667   */\n      dup4\n        /* \"#utility.yul\":11654:11673   */\n      add\n        /* \"#utility.yul\":11645:11651   */\n      dup7\n        /* \"#utility.yul\":11601:11674   */\n      tag_481\n      jump\t// in\n    tag_498:\n        /* \"#utility.yul\":11684:11751   */\n      tag_499\n        /* \"#utility.yul\":11746:11749   */\n      0xa0\n        /* \"#utility.yul\":11735:11744   */\n      dup4\n        /* \"#utility.yul\":11731:11750   */\n      add\n        /* \"#utility.yul\":11722:11728   */\n      dup6\n        /* \"#utility.yul\":11684:11751   */\n      tag_447\n      jump\t// in\n    tag_499:\n        /* \"#utility.yul\":11761:11834   */\n      tag_500\n        /* \"#utility.yul\":11829:11832   */\n      0xc0\n        /* \"#utility.yul\":11818:11827   */\n      dup4\n        /* \"#utility.yul\":11814:11833   */\n      add\n        /* \"#utility.yul\":11805:11811   */\n      dup5\n        /* \"#utility.yul\":11761:11834   */\n      tag_481\n      jump\t// in\n    tag_500:\n        /* \"#utility.yul\":10967:11841   */\n      swap9\n      swap8\n      pop\n      pop\n      pop\n      pop\n      pop\n      pop\n      pop\n      pop\n      jump\t// out\n        /* \"#utility.yul\":11847:12220   */\n    tag_37:\n        /* \"#utility.yul\":11990:11994   */\n      0x00\n        /* \"#utility.yul\":12028:12030   */\n      0x20\n        /* \"#utility.yul\":12017:12026   */\n      dup3\n        /* \"#utility.yul\":12013:12031   */\n      add\n        /* \"#utility.yul\":12005:12031   */\n      swap1\n      pop\n        /* \"#utility.yul\":12077:12086   */\n      dup2\n        /* \"#utility.yul\":12071:12075   */\n      dup2\n        /* \"#utility.yul\":12067:12087   */\n      sub\n        /* \"#utility.yul\":12063:12064   */\n      0x00\n        /* \"#utility.yul\":12052:12061   */\n      dup4\n        /* \"#utility.yul\":12048:12065   */\n      add\n        /* \"#utility.yul\":12041:12088   */\n      mstore\n        /* \"#utility.yul\":12105:12213   */\n      tag_502\n        /* \"#utility.yul\":12208:12212   */\n      dup2\n        /* \"#utility.yul\":12199:12205   */\n      dup5\n        /* \"#utility.yul\":12105:12213   */\n      tag_401\n      jump\t// in\n    tag_502:\n        /* \"#utility.yul\":12097:12213   */\n      swap1\n      pop\n        /* \"#utility.yul\":11847:12220   */\n      swap3\n      swap2\n      pop\n      pop\n      jump\t// out\n        /* \"#utility.yul\":12226:12719   */\n    tag_58:\n        /* \"#utility.yul\":12429:12433   */\n      0x00\n        /* \"#utility.yul\":12467:12469   */\n      0x20\n        /* \"#utility.yul\":12456:12465   */\n      dup3\n        /* \"#utility.yul\":12452:12470   */\n      add\n        /* \"#utility.yul\":12444:12470   */\n      swap1\n      pop\n        /* \"#utility.yul\":12516:12525   */\n      dup2\n        /* \"#utility.yul\":12510:12514   */\n      dup2\n        /* \"#utility.yul\":12506:12526   */\n      sub\n        /* \"#utility.yul\":12502:12503   */\n      0x00\n        /* \"#utility.yul\":12491:12500   */\n      dup4\n        /* \"#utility.yul\":12487:12504   */\n      add\n        /* \"#utility.yul\":12480:12527   */\n      mstore\n        /* \"#utility.yul\":12544:12712   */\n      tag_504\n        /* \"#utility.yul\":12707:12711   */\n      dup2\n        /* \"#utility.yul\":12698:12704   */\n      dup5\n        /* \"#utility.yul\":12544:12712   */\n      tag_415\n      jump\t// in\n    tag_504:\n        /* \"#utility.yul\":12536:12712   */\n      swap1\n      pop\n        /* \"#utility.yul\":12226:12719   */\n      swap3\n      swap2\n      pop\n      pop\n      jump\t// out\n        /* \"#utility.yul\":12725:13098   */\n    tag_99:\n        /* \"#utility.yul\":12868:12872   */\n      0x00\n        /* \"#utility.yul\":12906:12908   */\n      0x20\n        /* \"#utility.yul\":12895:12904   */\n      dup3\n        /* \"#utility.yul\":12891:12909   */\n      add\n        /* \"#utility.yul\":12883:12909   */\n      swap1\n      pop\n        /* \"#utility.yul\":12955:12964   */\n      dup2\n        /* \"#utility.yul\":12949:12953   */\n      dup2\n        /* \"#utility.yul\":12945:12965   */\n      sub\n        /* \"#utility.yul\":12941:12942   */\n      0x00\n        /* \"#utility.yul\":12930:12939   */\n      dup4\n        /* \"#utility.yul\":12926:12943   */\n      add\n        /* \"#utility.yul\":12919:12966   */\n      mstore\n        /* \"#utility.yul\":12983:13091   */\n      tag_506\n        /* \"#utility.yul\":13086:13090   */\n      dup2\n        /* \"#utility.yul\":13077:13083   */\n      dup5\n        /* \"#utility.yul\":12983:13091   */\n      tag_429\n      jump\t// in\n    tag_506:\n        /* \"#utility.yul\":12975:13091   */\n      swap1\n      pop\n        /* \"#utility.yul\":12725:13098   */\n      swap3\n      swap2\n      pop\n      pop\n      jump\t// out\n        /* \"#utility.yul\":13104:13314   */\n    tag_50:\n        /* \"#utility.yul\":13191:13195   */\n      0x00\n        /* \"#utility.yul\":13229:13231   */\n      0x20\n        /* \"#utility.yul\":13218:13227   */\n      dup3\n        /* \"#utility.yul\":13214:13232   */\n      add\n        /* \"#utility.yul\":13206:13232   */\n      swap1\n      pop\n        /* \"#utility.yul\":13242:13307   */\n      tag_508\n        /* \"#utility.yul\":13304:13305   */\n      0x00\n        /* \"#utility.yul\":13293:13302   */\n      dup4\n        /* \"#utility.yul\":13289:13306   */\n      add\n        /* \"#utility.yul\":13280:13286   */\n      dup5\n        /* \"#utility.yul\":13242:13307   */\n      tag_447\n      jump\t// in\n    tag_508:\n        /* \"#utility.yul\":13104:13314   */\n      swap3\n      swap2\n      pop\n      pop\n      jump\t// out\n        /* \"#utility.yul\":13320:13739   */\n    tag_213:\n        /* \"#utility.yul\":13486:13490   */\n      0x00\n        /* \"#utility.yul\":13524:13526   */\n      0x20\n        /* \"#utility.yul\":13513:13522   */\n      dup3\n        /* \"#utility.yul\":13509:13527   */\n      add\n        /* \"#utility.yul\":13501:13527   */\n      swap1\n      pop\n        /* \"#utility.yul\":13573:13582   */\n      dup2\n        /* \"#utility.yul\":13567:13571   */\n      dup2\n        /* \"#utility.yul\":13563:13583   */\n      sub\n        /* \"#utility.yul\":13559:13560   */\n      0x00\n        /* \"#utility.yul\":13548:13557   */\n      dup4\n        /* \"#utility.yul\":13544:13561   */\n      add\n        /* \"#utility.yul\":13537:13584   */\n      mstore\n        /* \"#utility.yul\":13601:13732   */\n      tag_510\n        /* \"#utility.yul\":13727:13731   */\n      dup2\n        /* \"#utility.yul\":13601:13732   */\n      tag_450\n      jump\t// in\n    tag_510:\n        /* \"#utility.yul\":13593:13732   */\n      swap1\n      pop\n        /* \"#utility.yul\":13320:13739   */\n      swap2\n      swap1\n      pop\n      jump\t// out\n        /* \"#utility.yul\":13745:14164   */\n    tag_135:\n        /* \"#utility.yul\":13911:13915   */\n      0x00\n        /* \"#utility.yul\":13949:13951   */\n      0x20\n        /* \"#utility.yul\":13938:13947   */\n      dup3\n        /* \"#utility.yul\":13934:13952   */\n      add\n        /* \"#utility.yul\":13926:13952   */\n      swap1\n      pop\n        /* \"#utility.yul\":13998:14007   */\n      dup2\n        /* \"#utility.yul\":13992:13996   */\n      dup2\n        /* \"#utility.yul\":13988:14008   */\n      sub\n        /* \"#utility.yul\":13984:13985   */\n      0x00\n        /* \"#utility.yul\":13973:13982   */\n      dup4\n        /* \"#utility.yul\":13969:13986   */\n      add\n        /* \"#utility.yul\":13962:14009   */\n      mstore\n        /* \"#utility.yul\":14026:14157   */\n      tag_512\n        /* \"#utility.yul\":14152:14156   */\n      dup2\n        /* \"#utility.yul\":14026:14157   */\n      tag_456\n      jump\t// in\n    tag_512:\n        /* \"#utility.yul\":14018:14157   */\n      swap1\n      pop\n        /* \"#utility.yul\":13745:14164   */\n      swap2\n      swap1\n      pop\n      jump\t// out\n        /* \"#utility.yul\":14170:14589   */\n    tag_263:\n        /* \"#utility.yul\":14336:14340   */\n      0x00\n        /* \"#utility.yul\":14374:14376   */\n      0x20\n        /* \"#utility.yul\":14363:14372   */\n      dup3\n        /* \"#utility.yul\":14359:14377   */\n      add\n        /* \"#utility.yul\":14351:14377   */\n      swap1\n      pop\n        /* \"#utility.yul\":14423:14432   */\n      dup2\n        /* \"#utility.yul\":14417:14421   */\n      dup2\n        /* \"#utility.yul\":14413:14433   */\n      sub\n        /* \"#utility.yul\":14409:14410   */\n      0x00\n        /* \"#utility.yul\":14398:14407   */\n      dup4\n        /* \"#utility.yul\":14394:14411   */\n      add\n        /* \"#utility.yul\":14387:14434   */\n      mstore\n        /* \"#utility.yul\":14451:14582   */\n      tag_514\n        /* \"#utility.yul\":14577:14581   */\n      dup2\n        /* \"#utility.yul\":14451:14582   */\n      tag_461\n      jump\t// in\n    tag_514:\n        /* \"#utility.yul\":14443:14582   */\n      swap1\n      pop\n        /* \"#utility.yul\":14170:14589   */\n      swap2\n      swap1\n      pop\n      jump\t// out\n        /* \"#utility.yul\":14595:15014   */\n    tag_282:\n        /* \"#utility.yul\":14761:14765   */\n      0x00\n        /* \"#utility.yul\":14799:14801   */\n      0x20\n        /* \"#utility.yul\":14788:14797   */\n      dup3\n        /* \"#utility.yul\":14784:14802   */\n      add\n        /* \"#utility.yul\":14776:14802   */\n      swap1\n      pop\n        /* \"#utility.yul\":14848:14857   */\n      dup2\n        /* \"#utility.yul\":14842:14846   */\n      dup2\n        /* \"#utility.yul\":14838:14858   */\n      sub\n        /* \"#utility.yul\":14834:14835   */\n      0x00\n        /* \"#utility.yul\":14823:14832   */\n      dup4\n        /* \"#utility.yul\":14819:14836   */\n      add\n        /* \"#utility.yul\":14812:14859   */\n      mstore\n        /* \"#utility.yul\":14876:15007   */\n      tag_516\n        /* \"#utility.yul\":15002:15006   */\n      dup2\n        /* \"#utility.yul\":14876:15007   */\n      tag_466\n      jump\t// in\n    tag_516:\n        /* \"#utility.yul\":14868:15007   */\n      swap1\n      pop\n        /* \"#utility.yul\":14595:15014   */\n      swap2\n      swap1\n      pop\n      jump\t// out\n        /* \"#utility.yul\":15020:15242   */\n    tag_41:\n        /* \"#utility.yul\":15113:15117   */\n      0x00\n        /* \"#utility.yul\":15151:15153   */\n      0x20\n        /* \"#utility.yul\":15140:15149   */\n      dup3\n        /* \"#utility.yul\":15136:15154   */\n      add\n        /* \"#utility.yul\":15128:15154   */\n      swap1\n      pop\n        /* \"#utility.yul\":15164:15235   */\n      tag_518\n        /* \"#utility.yul\":15232:15233   */\n      0x00\n        /* \"#utility.yul\":15221:15230   */\n      dup4\n        /* \"#utility.yul\":15217:15234   */\n      add\n        /* \"#utility.yul\":15208:15214   */\n      dup5\n        /* \"#utility.yul\":15164:15235   */\n      tag_481\n      jump\t// in\n    tag_518:\n        /* \"#utility.yul\":15020:15242   */\n      swap3\n      swap2\n      pop\n      pop\n      jump\t// out\n        /* \"#utility.yul\":15329:15461   */\n    tag_408:\n        /* \"#utility.yul\":15396:15400   */\n      0x00\n        /* \"#utility.yul\":15419:15422   */\n      dup2\n        /* \"#utility.yul\":15411:15422   */\n      swap1\n      pop\n        /* \"#utility.yul\":15449:15453   */\n      0x20\n        /* \"#utility.yul\":15444:15447   */\n      dup3\n        /* \"#utility.yul\":15440:15454   */\n      add\n        /* \"#utility.yul\":15432:15454   */\n      swap1\n      pop\n        /* \"#utility.yul\":15329:15461   */\n      swap2\n      swap1\n      pop\n      jump\t// out\n        /* \"#utility.yul\":15467:15629   */\n    tag_422:\n        /* \"#utility.yul\":15564:15568   */\n      0x00\n        /* \"#utility.yul\":15587:15590   */\n      dup2\n        /* \"#utility.yul\":15579:15590   */\n      swap1\n      pop\n        /* \"#utility.yul\":15617:15621   */\n      0x20\n        /* \"#utility.yul\":15612:15615   */\n      dup3\n        /* \"#utility.yul\":15608:15622   */\n      add\n        /* \"#utility.yul\":15600:15622   */\n      swap1\n      pop\n        /* \"#utility.yul\":15467:15629   */\n      swap2\n      swap1\n      pop\n      jump\t// out\n        /* \"#utility.yul\":15635:15767   */\n    tag_436:\n        /* \"#utility.yul\":15702:15706   */\n      0x00\n        /* \"#utility.yul\":15725:15728   */\n      dup2\n        /* \"#utility.yul\":15717:15728   */\n      swap1\n      pop\n        /* \"#utility.yul\":15755:15759   */\n      0x20\n        /* \"#utility.yul\":15750:15753   */\n      dup3\n        /* \"#utility.yul\":15746:15760   */\n      add\n        /* \"#utility.yul\":15738:15760   */\n      swap1\n      pop\n        /* \"#utility.yul\":15635:15767   */\n      swap2\n      swap1\n      pop\n      jump\t// out\n        /* \"#utility.yul\":15773:15887   */\n    tag_404:\n        /* \"#utility.yul\":15840:15846   */\n      0x00\n        /* \"#utility.yul\":15874:15879   */\n      dup2\n        /* \"#utility.yul\":15868:15880   */\n      mload\n        /* \"#utility.yul\":15858:15880   */\n      swap1\n      pop\n        /* \"#utility.yul\":15773:15887   */\n      swap2\n      swap1\n      pop\n      jump\t// out\n        /* \"#utility.yul\":15893:16037   */\n    tag_418:\n        /* \"#utility.yul\":15990:15996   */\n      0x00\n        /* \"#utility.yul\":16024:16029   */\n      dup2\n        /* \"#utility.yul\":16018:16030   */\n      mload\n        /* \"#utility.yul\":16008:16030   */\n      swap1\n      pop\n        /* \"#utility.yul\":15893:16037   */\n      swap2\n      swap1\n      pop\n      jump\t// out\n        /* \"#utility.yul\":16043:16157   */\n    tag_432:\n        /* \"#utility.yul\":16110:16116   */\n      0x00\n        /* \"#utility.yul\":16144:16149   */\n      dup2\n        /* \"#utility.yul\":16138:16150   */\n      mload\n        /* \"#utility.yul\":16128:16150   */\n      swap1\n      pop\n        /* \"#utility.yul\":16043:16157   */\n      swap2\n      swap1\n      pop\n      jump\t// out\n        /* \"#utility.yul\":16163:16276   */\n    tag_414:\n        /* \"#utility.yul\":16233:16237   */\n      0x00\n        /* \"#utility.yul\":16265:16269   */\n      0x20\n        /* \"#utility.yul\":16260:16263   */\n      dup3\n        /* \"#utility.yul\":16256:16270   */\n      add\n        /* \"#utility.yul\":16248:16270   */\n      swap1\n      pop\n        /* \"#utility.yul\":16163:16276   */\n      swap2\n      swap1\n      pop\n      jump\t// out\n        /* \"#utility.yul\":16282:16425   */\n    tag_428:\n        /* \"#utility.yul\":16382:16386   */\n      0x00\n        /* \"#utility.yul\":16414:16418   */\n      0x20\n        /* \"#utility.yul\":16409:16412   */\n      dup3\n        /* \"#utility.yul\":16405:16419   */\n      add\n        /* \"#utility.yul\":16397:16419   */\n      swap1\n      pop\n        /* \"#utility.yul\":16282:16425   */\n      swap2\n      swap1\n      pop\n      jump\t// out\n        /* \"#utility.yul\":16431:16544   */\n    tag_442:\n        /* \"#utility.yul\":16501:16505   */\n      0x00\n        /* \"#utility.yul\":16533:16537   */\n      0x20\n        /* \"#utility.yul\":16528:16531   */\n      dup3\n        /* \"#utility.yul\":16524:16538   */\n      add\n        /* \"#utility.yul\":16516:16538   */\n      swap1\n      pop\n        /* \"#utility.yul\":16431:16544   */\n      swap2\n      swap1\n      pop\n      jump\t// out\n        /* \"#utility.yul\":16550:16734   */\n    tag_406:\n        /* \"#utility.yul\":16649:16660   */\n      0x00\n        /* \"#utility.yul\":16683:16689   */\n      dup3\n        /* \"#utility.yul\":16678:16681   */\n      dup3\n        /* \"#utility.yul\":16671:16690   */\n      mstore\n        /* \"#utility.yul\":16723:16727   */\n      0x20\n        /* \"#utility.yul\":16718:16721   */\n      dup3\n        /* \"#utility.yul\":16714:16728   */\n      add\n        /* \"#utility.yul\":16699:16728   */\n      swap1\n      pop\n        /* \"#utility.yul\":16550:16734   */\n      swap3\n      swap2\n      pop\n      pop\n      jump\t// out\n        /* \"#utility.yul\":16740:16954   */\n    tag_420:\n        /* \"#utility.yul\":16869:16880   */\n      0x00\n        /* \"#utility.yul\":16903:16909   */\n      dup3\n        /* \"#utility.yul\":16898:16901   */\n      dup3\n        /* \"#utility.yul\":16891:16910   */\n      mstore\n        /* \"#utility.yul\":16943:16947   */\n      0x20\n        /* \"#utility.yul\":16938:16941   */\n      dup3\n        /* \"#utility.yul\":16934:16948   */\n      add\n        /* \"#utility.yul\":16919:16948   */\n      swap1\n      pop\n        /* \"#utility.yul\":16740:16954   */\n      swap3\n      swap2\n      pop\n      pop\n      jump\t// out\n        /* \"#utility.yul\":16960:17144   */\n    tag_434:\n        /* \"#utility.yul\":17059:17070   */\n      0x00\n        /* \"#utility.yul\":17093:17099   */\n      dup3\n        /* \"#utility.yul\":17088:17091   */\n      dup3\n        /* \"#utility.yul\":17081:17100   */\n      mstore\n        /* \"#utility.yul\":17133:17137   */\n      0x20\n        /* \"#utility.yul\":17128:17131   */\n      dup3\n        /* \"#utility.yul\":17124:17138   */\n      add\n        /* \"#utility.yul\":17109:17138   */\n      swap1\n      pop\n        /* \"#utility.yul\":16960:17144   */\n      swap3\n      swap2\n      pop\n      pop\n      jump\t// out\n        /* \"#utility.yul\":17150:17319   */\n    tag_453:\n        /* \"#utility.yul\":17234:17245   */\n      0x00\n        /* \"#utility.yul\":17268:17274   */\n      dup3\n        /* \"#utility.yul\":17263:17266   */\n      dup3\n        /* \"#utility.yul\":17256:17275   */\n      mstore\n        /* \"#utility.yul\":17308:17312   */\n      0x20\n        /* \"#utility.yul\":17303:17306   */\n      dup3\n        /* \"#utility.yul\":17299:17313   */\n      add\n        /* \"#utility.yul\":17284:17313   */\n      swap1\n      pop\n        /* \"#utility.yul\":17150:17319   */\n      swap3\n      swap2\n      pop\n      pop\n      jump\t// out\n        /* \"#utility.yul\":17325:17630   */\n    tag_141:\n        /* \"#utility.yul\":17365:17368   */\n      0x00\n        /* \"#utility.yul\":17384:17404   */\n      tag_535\n        /* \"#utility.yul\":17402:17403   */\n      dup3\n        /* \"#utility.yul\":17384:17404   */\n      tag_480\n      jump\t// in\n    tag_535:\n        /* \"#utility.yul\":17379:17404   */\n      swap2\n      pop\n        /* \"#utility.yul\":17418:17438   */\n      tag_536\n        /* \"#utility.yul\":17436:17437   */\n      dup4\n        /* \"#utility.yul\":17418:17438   */\n      tag_480\n      jump\t// in\n    tag_536:\n        /* \"#utility.yul\":17413:17438   */\n      swap3\n      pop\n        /* \"#utility.yul\":17572:17573   */\n      dup3\n        /* \"#utility.yul\":17504:17570   */\n      0xffffffffffffffffffffffffffffffffffffffffffffffffffffffffffffffff\n        /* \"#utility.yul\":17500:17574   */\n      sub\n        /* \"#utility.yul\":17497:17498   */\n      dup3\n        /* \"#utility.yul\":17494:17575   */\n      gt\n        /* \"#utility.yul\":17491:17598   */\n      iszero\n      tag_537\n      jumpi\n        /* \"#utility.yul\":17578:17596   */\n      tag_538\n      tag_539\n      jump\t// in\n    tag_538:\n        /* \"#utility.yul\":17491:17598   */\n    tag_537:\n        /* \"#utility.yul\":17622:17623   */\n      dup3\n        /* \"#utility.yul\":17619:17620   */\n      dup3\n        /* \"#utility.yul\":17615:17624   */\n      add\n        /* \"#utility.yul\":17608:17624   */\n      swap1\n      pop\n        /* \"#utility.yul\":17325:17630   */\n      swap3\n      swap2\n      pop\n      pop\n      jump\t// out\n        /* \"#utility.yul\":17636:17821   */\n    tag_195:\n        /* \"#utility.yul\":17676:17677   */\n      0x00\n        /* \"#utility.yul\":17693:17713   */\n      tag_541\n        /* \"#utility.yul\":17711:17712   */\n      dup3\n        /* \"#utility.yul\":17693:17713   */\n      tag_480\n      jump\t// in\n    tag_541:\n        /* \"#utility.yul\":17688:17713   */\n      swap2\n      pop\n        /* \"#utility.yul\":17727:17747   */\n      tag_542\n        /* \"#utility.yul\":17745:17746   */\n      dup4\n        /* \"#utility.yul\":17727:17747   */\n      tag_480\n      jump\t// in\n    tag_542:\n        /* \"#utility.yul\":17722:17747   */\n      swap3\n      pop\n        /* \"#utility.yul\":17766:17767   */\n      dup3\n        /* \"#utility.yul\":17756:17791   */\n      tag_543\n      jumpi\n        /* \"#utility.yul\":17771:17789   */\n      tag_544\n      tag_545\n      jump\t// in\n    tag_544:\n        /* \"#utility.yul\":17756:17791   */\n    tag_543:\n        /* \"#utility.yul\":17813:17814   */\n      dup3\n        /* \"#utility.yul\":17810:17811   */\n      dup3\n        /* \"#utility.yul\":17806:17815   */\n      div\n        /* \"#utility.yul\":17801:17815   */\n      swap1\n      pop\n        /* \"#utility.yul\":17636:17821   */\n      swap3\n      swap2\n      pop\n      pop\n      jump\t// out\n        /* \"#utility.yul\":17827:18175   */\n    tag_147:\n        /* \"#utility.yul\":17867:17874   */\n      0x00\n        /* \"#utility.yul\":17890:17910   */\n      tag_547\n        /* \"#utility.yul\":17908:17909   */\n      dup3\n        /* \"#utility.yul\":17890:17910   */\n      tag_480\n      jump\t// in\n    tag_547:\n        /* \"#utility.yul\":17885:17910   */\n      swap2\n      pop\n        /* \"#utility.yul\":17924:17944   */\n      tag_548\n        /* \"#utility.yul\":17942:17943   */\n      dup4\n        /* \"#utility.yul\":17924:17944   */\n      tag_480\n      jump\t// in\n    tag_548:\n        /* \"#utility.yul\":17919:17944   */\n      swap3\n      pop\n        /* \"#utility.yul\":18112:18113   */\n      dup2\n        /* \"#utility.yul\":18044:18110   */\n      0xffffffffffffffffffffffffffffffffffffffffffffffffffffffffffffffff\n        /* \"#utility.yul\":18040:18114   */\n      div\n        /* \"#utility.yul\":18037:18038   */\n      dup4\n        /* \"#utility.yul\":18034:18115   */\n      gt\n        /* \"#utility.yul\":18029:18030   */\n      dup3\n        /* \"#utility.yul\":18022:18031   */\n      iszero\n        /* \"#utility.yul\":18015:18032   */\n      iszero\n        /* \"#utility.yul\":18011:18116   */\n      and\n        /* \"#utility.yul\":18008:18139   */\n      iszero\n      tag_549\n      jumpi\n        /* \"#utility.yul\":18119:18137   */\n      tag_550\n      tag_539\n      jump\t// in\n    tag_550:\n        /* \"#utility.yul\":18008:18139   */\n    tag_549:\n        /* \"#utility.yul\":18167:18168   */\n      dup3\n        /* \"#utility.yul\":18164:18165   */\n      dup3\n        /* \"#utility.yul\":18160:18169   */\n      mul\n        /* \"#utility.yul\":18149:18169   */\n      swap1\n      pop\n        /* \"#utility.yul\":17827:18175   */\n      swap3\n      swap2\n      pop\n      pop\n      jump\t// out\n        /* \"#utility.yul\":18181:18372   */\n    tag_191:\n        /* \"#utility.yul\":18221:18225   */\n      0x00\n        /* \"#utility.yul\":18241:18261   */\n      tag_552\n        /* \"#utility.yul\":18259:18260   */\n      dup3\n        /* \"#utility.yul\":18241:18261   */\n      tag_480\n      jump\t// in\n    tag_552:\n        /* \"#utility.yul\":18236:18261   */\n      swap2\n      pop\n        /* \"#utility.yul\":18275:18295   */\n      tag_553\n        /* \"#utility.yul\":18293:18294   */\n      dup4\n        /* \"#utility.yul\":18275:18295   */\n      tag_480\n      jump\t// in\n    tag_553:\n        /* \"#utility.yul\":18270:18295   */\n      swap3\n      pop\n        /* \"#utility.yul\":18314:18315   */\n      dup3\n        /* \"#utility.yul\":18311:18312   */\n      dup3\n        /* \"#utility.yul\":18308:18316   */\n      lt\n        /* \"#utility.yul\":18305:18339   */\n      iszero\n      tag_554\n      jumpi\n        /* \"#utility.yul\":18319:18337   */\n      tag_555\n      tag_539\n      jump\t// in\n    tag_555:\n        /* \"#utility.yul\":18305:18339   */\n    tag_554:\n        /* \"#utility.yul\":18364:18365   */\n      dup3\n        /* \"#utility.yul\":18361:18362   */\n      dup3\n        /* \"#utility.yul\":18357:18366   */\n      sub\n        /* \"#utility.yul\":18349:18366   */\n      swap1\n      pop\n        /* \"#utility.yul\":18181:18372   */\n      swap3\n      swap2\n      pop\n      pop\n      jump\t// out\n        /* \"#utility.yul\":18378:18474   */\n    tag_397:\n        /* \"#utility.yul\":18415:18422   */\n      0x00\n        /* \"#utility.yul\":18444:18468   */\n      tag_557\n        /* \"#utility.yul\":18462:18467   */\n      dup3\n        /* \"#utility.yul\":18444:18468   */\n      tag_558\n      jump\t// in\n    tag_557:\n        /* \"#utility.yul\":18433:18468   */\n      swap1\n      pop\n        /* \"#utility.yul\":18378:18474   */\n      swap2\n      swap1\n      pop\n      jump\t// out\n        /* \"#utility.yul\":18480:18570   */\n    tag_446:\n        /* \"#utility.yul\":18514:18521   */\n      0x00\n        /* \"#utility.yul\":18557:18562   */\n      dup2\n        /* \"#utility.yul\":18550:18563   */\n      iszero\n        /* \"#utility.yul\":18543:18564   */\n      iszero\n        /* \"#utility.yul\":18532:18564   */\n      swap1\n      pop\n        /* \"#utility.yul\":18480:18570   */\n      swap2\n      swap1\n      pop\n      jump\t// out\n        /* \"#utility.yul\":18576:18702   */\n    tag_558:\n        /* \"#utility.yul\":18613:18620   */\n      0x00\n        /* \"#utility.yul\":18653:18695   */\n      0xffffffffffffffffffffffffffffffffffffffff\n        /* \"#utility.yul\":18646:18651   */\n      dup3\n        /* \"#utility.yul\":18642:18696   */\n      and\n        /* \"#utility.yul\":18631:18696   */\n      swap1\n      pop\n        /* \"#utility.yul\":18576:18702   */\n      swap2\n      swap1\n      pop\n      jump\t// out\n        /* \"#utility.yul\":18708:18785   */\n    tag_480:\n        /* \"#utility.yul\":18745:18752   */\n      0x00\n        /* \"#utility.yul\":18774:18779   */\n      dup2\n        /* \"#utility.yul\":18763:18779   */\n      swap1\n      pop\n        /* \"#utility.yul\":18708:18785   */\n      swap2\n      swap1\n      pop\n      jump\t// out\n        /* \"#utility.yul\":18791:19024   */\n    tag_138:\n        /* \"#utility.yul\":18830:18833   */\n      0x00\n        /* \"#utility.yul\":18853:18877   */\n      tag_563\n        /* \"#utility.yul\":18871:18876   */\n      dup3\n        /* \"#utility.yul\":18853:18877   */\n      tag_480\n      jump\t// in\n    tag_563:\n        /* \"#utility.yul\":18844:18877   */\n      swap2\n      pop\n        /* \"#utility.yul\":18899:18965   */\n      0xffffffffffffffffffffffffffffffffffffffffffffffffffffffffffffffff\n        /* \"#utility.yul\":18892:18897   */\n      dup3\n        /* \"#utility.yul\":18889:18966   */\n      eq\n        /* \"#utility.yul\":18886:18989   */\n      iszero\n      tag_564\n      jumpi\n        /* \"#utility.yul\":18969:18987   */\n      tag_565\n      tag_539\n      jump\t// in\n    tag_565:\n        /* \"#utility.yul\":18886:18989   */\n    tag_564:\n        /* \"#utility.yul\":19016:19017   */\n      0x01\n        /* \"#utility.yul\":19009:19014   */\n      dup3\n        /* \"#utility.yul\":19005:19018   */\n      add\n        /* \"#utility.yul\":18998:19018   */\n      swap1\n      pop\n        /* \"#utility.yul\":18791:19024   */\n      swap2\n      swap1\n      pop\n      jump\t// out\n        /* \"#utility.yul\":19030:19210   */\n    tag_539:\n        /* \"#utility.yul\":19078:19155   */\n      0x4e487b7100000000000000000000000000000000000000000000000000000000\n        /* \"#utility.yul\":19075:19076   */\n      0x00\n        /* \"#utility.yul\":19068:19156   */\n      mstore\n        /* \"#utility.yul\":19175:19179   */\n      0x11\n        /* \"#utility.yul\":19172:19173   */\n      0x04\n        /* \"#utility.yul\":19165:19180   */\n      mstore\n        /* \"#utility.yul\":19199:19203   */\n      0x24\n        /* \"#utility.yul\":19196:19197   */\n      0x00\n        /* \"#utility.yul\":19189:19204   */\n      revert\n        /* \"#utility.yul\":19216:19396   */\n    tag_545:\n        /* \"#utility.yul\":19264:19341   */\n      0x4e487b7100000000000000000000000000000000000000000000000000000000\n        /* \"#utility.yul\":19261:19262   */\n      0x00\n        /* \"#utility.yul\":19254:19342   */\n      mstore\n        /* \"#utility.yul\":19361:19365   */\n      0x12\n        /* \"#utility.yul\":19358:19359   */\n      0x04\n        /* \"#utility.yul\":19351:19366   */\n      mstore\n        /* \"#utility.yul\":19385:19389   */\n      0x24\n        /* \"#utility.yul\":19382:19383   */\n      0x00\n        /* \"#utility.yul\":19375:19390   */\n      revert\n        /* \"#utility.yul\":19402:19582   */\n    tag_182:\n        /* \"#utility.yul\":19450:19527   */\n      0x4e487b7100000000000000000000000000000000000000000000000000000000\n        /* \"#utility.yul\":19447:19448   */\n      0x00\n        /* \"#utility.yul\":19440:19528   */\n      mstore\n        /* \"#utility.yul\":19547:19551   */\n      0x32\n        /* \"#utility.yul\":19544:19545   */\n      0x04\n        /* \"#utility.yul\":19537:19552   */\n      mstore\n        /* \"#utility.yul\":19571:19575   */\n      0x24\n        /* \"#utility.yul\":19568:19569   */\n      0x00\n        /* \"#utility.yul\":19561:19576   */\n      revert\n        /* \"#utility.yul\":19588:19768   */\n    tag_171:\n        /* \"#utility.yul\":19636:19713   */\n      0x4e487b7100000000000000000000000000000000000000000000000000000000\n        /* \"#utility.yul\":19633:19634   */\n      0x00\n        /* \"#utility.yul\":19626:19714   */\n      mstore\n        /* \"#utility.yul\":19733:19737   */\n      0x41\n        /* \"#utility.yul\":19730:19731   */\n      0x04\n        /* \"#utility.yul\":19723:19738   */\n      mstore\n        /* \"#utility.yul\":19757:19761   */\n      0x24\n        /* \"#utility.yul\":19754:19755   */\n      0x00\n        /* \"#utility.yul\":19747:19762   */\n      revert\n        /* \"#utility.yul\":19897:20014   */\n    tag_356:\n        /* \"#utility.yul\":20006:20007   */\n      0x00\n        /* \"#utility.yul\":20003:20004   */\n      dup1\n        /* \"#utility.yul\":19996:20008   */\n      revert\n        /* \"#utility.yul\":20020:20244   */\n    tag_455:\n        /* \"#utility.yul\":20160:20194   */\n      0x796f7520646f6e74206861766520696e766573746d656e7420746f2077697468\n        /* \"#utility.yul\":20156:20157   */\n      0x00\n        /* \"#utility.yul\":20148:20154   */\n      dup3\n        /* \"#utility.yul\":20144:20158   */\n      add\n        /* \"#utility.yul\":20137:20195   */\n      mstore\n        /* \"#utility.yul\":20229:20236   */\n      0x647261776e000000000000000000000000000000000000000000000000000000\n        /* \"#utility.yul\":20224:20226   */\n      0x20\n        /* \"#utility.yul\":20216:20222   */\n      dup3\n        /* \"#utility.yul\":20212:20227   */\n      add\n        /* \"#utility.yul\":20205:20237   */\n      mstore\n        /* \"#utility.yul\":20020:20244   */\n      pop\n      jump\t// out\n        /* \"#utility.yul\":20250:20490   */\n    tag_460:\n        /* \"#utility.yul\":20390:20424   */\n      0x76616c7565206973206e6f742067726561746572207468616e20313030303020\n        /* \"#utility.yul\":20386:20387   */\n      0x00\n        /* \"#utility.yul\":20378:20384   */\n      dup3\n        /* \"#utility.yul\":20374:20388   */\n      add\n        /* \"#utility.yul\":20367:20425   */\n      mstore\n        /* \"#utility.yul\":20459:20482   */\n      0x616e64206c657373207468616e20353030303030300000000000000000000000\n        /* \"#utility.yul\":20454:20456   */\n      0x20\n        /* \"#utility.yul\":20446:20452   */\n      dup3\n        /* \"#utility.yul\":20442:20457   */\n      add\n        /* \"#utility.yul\":20435:20483   */\n      mstore\n        /* \"#utility.yul\":20250:20490   */\n      pop\n      jump\t// out\n        /* \"#utility.yul\":20496:20717   */\n    tag_465:\n        /* \"#utility.yul\":20636:20670   */\n      0x796f7520646f6e742068617665207265776172647320746f2077697468647261\n        /* \"#utility.yul\":20632:20633   */\n      0x00\n        /* \"#utility.yul\":20624:20630   */\n      dup3\n        /* \"#utility.yul\":20620:20634   */\n      add\n        /* \"#utility.yul\":20613:20671   */\n      mstore\n        /* \"#utility.yul\":20705:20709   */\n      0x776e000000000000000000000000000000000000000000000000000000000000\n        /* \"#utility.yul\":20700:20702   */\n      0x20\n        /* \"#utility.yul\":20692:20698   */\n      dup3\n        /* \"#utility.yul\":20688:20703   */\n      add\n        /* \"#utility.yul\":20681:20710   */\n      mstore\n        /* \"#utility.yul\":20496:20717   */\n      pop\n      jump\t// out\n        /* \"#utility.yul\":20723:20943   */\n    tag_470:\n        /* \"#utility.yul\":20863:20897   */\n      0x6f6e6c79204f776e65722063616e2063616c6c20746869732066756e6374696f\n        /* \"#utility.yul\":20859:20860   */\n      0x00\n        /* \"#utility.yul\":20851:20857   */\n      dup3\n        /* \"#utility.yul\":20847:20861   */\n      add\n        /* \"#utility.yul\":20840:20898   */\n      mstore\n        /* \"#utility.yul\":20932:20935   */\n      0x6e00000000000000000000000000000000000000000000000000000000000000\n        /* \"#utility.yul\":20927:20929   */\n      0x20\n        /* \"#utility.yul\":20919:20925   */\n      dup3\n        /* \"#utility.yul\":20915:20930   */\n      add\n        /* \"#utility.yul\":20908:20936   */\n      mstore\n        /* \"#utility.yul\":20723:20943   */\n      pop\n      jump\t// out\n        /* \"#utility.yul\":20949:21071   */\n    tag_344:\n        /* \"#utility.yul\":21022:21046   */\n      tag_578\n        /* \"#utility.yul\":21040:21045   */\n      dup2\n        /* \"#utility.yul\":21022:21046   */\n      tag_397\n      jump\t// in\n    tag_578:\n        /* \"#utility.yul\":21015:21020   */\n      dup2\n        /* \"#utility.yul\":21012:21047   */\n      eq\n        /* \"#utility.yul\":21002:21065   */\n      tag_579\n      jumpi\n        /* \"#utility.yul\":21061:21062   */\n      0x00\n        /* \"#utility.yul\":21058:21059   */\n      dup1\n        /* \"#utility.yul\":21051:21063   */\n      revert\n        /* \"#utility.yul\":21002:21065   */\n    tag_579:\n        /* \"#utility.yul\":20949:21071   */\n      pop\n      jump\t// out\n        /* \"#utility.yul\":21077:21193   */\n    tag_348:\n        /* \"#utility.yul\":21147:21168   */\n      tag_581\n        /* \"#utility.yul\":21162:21167   */\n      dup2\n        /* \"#utility.yul\":21147:21168   */\n      tag_446\n      jump\t// in\n    tag_581:\n        /* \"#utility.yul\":21140:21145   */\n      dup2\n        /* \"#utility.yul\":21137:21169   */\n      eq\n        /* \"#utility.yul\":21127:21187   */\n      tag_582\n      jumpi\n        /* \"#utility.yul\":21183:21184   */\n      0x00\n        /* \"#utility.yul\":21180:21181   */\n      dup1\n        /* \"#utility.yul\":21173:21185   */\n      revert\n        /* \"#utility.yul\":21127:21187   */\n    tag_582:\n        /* \"#utility.yul\":21077:21193   */\n      pop\n      jump\t// out\n        /* \"#utility.yul\":21199:21321   */\n    tag_352:\n        /* \"#utility.yul\":21272:21296   */\n      tag_584\n        /* \"#utility.yul\":21290:21295   */\n      dup2\n        /* \"#utility.yul\":21272:21296   */\n      tag_480\n      jump\t// in\n    tag_584:\n        /* \"#utility.yul\":21265:21270   */\n      dup2\n        /* \"#utility.yul\":21262:21297   */\n      eq\n        /* \"#utility.yul\":21252:21315   */\n      tag_585\n      jumpi\n        /* \"#utility.yul\":21311:21312   */\n      0x00\n        /* \"#utility.yul\":21308:21309   */\n      dup1\n        /* \"#utility.yul\":21301:21313   */\n      revert\n        /* \"#utility.yul\":21252:21315   */\n    tag_585:\n        /* \"#utility.yul\":21199:21321   */\n      pop\n      jump\t// out\n\n    auxdata: 0xa2646970667358221220d5cf7692190c68f346cd62055fa866a341afda0ba7fdf3b9e1d53ee50b763baa64736f6c63430008070033\n}\n",
				"bytecode": {
					"linkReferences": {},
					"object": "6080604052739462a065c980693808405eb4f2851f0ffa1d3016600160006101000a81548173ffffffffffffffffffffffffffffffffffffffff021916908373ffffffffffffffffffffffffffffffffffffffff16021790555073c8bba86a801cd87ca72222d5a43639592fbaa6ec600260006101000a81548173ffffffffffffffffffffffffffffffffffffffff021916908373ffffffffffffffffffffffffffffffffffffffff160217905550674563918244f40000600455612710600555624c4b40600655620186a060075563018b82006008553480156100e257600080fd5b50336000806101000a81548173ffffffffffffffffffffffffffffffffffffffff021916908373ffffffffffffffffffffffffffffffffffffffff16021790555061306a806101326000396000f3fe608060405234801561001057600080fd5b506004361061018e5760003560e01c80638da5cb5b116100de578063c885bc5811610097578063f2fde38b11610071578063f2fde38b1461045b578063f790b81a14610477578063f7c618c114610495578063fae730bc146104b35761018e565b8063c885bc58146103e9578063d3560ee814610407578063e2033fcb1461043d5761018e565b80638da5cb5b14610337578063929f6bbe146103555780639740a1bc14610373578063a47bd49614610391578063a61be99d146103ad578063bc67eaff146103cb5761018e565b80633d18b9121161014b578063500cb85f11610125578063500cb85f146102af578063502c6bfa146102cb578063523cddfe146102fb57806373cf575a146103195761018e565b80633d18b9121461025757806342508f66146102755780634eb1ecc9146102935761018e565b80630c5f58f41461019357806310cde60a146101b15780631e8aba35146101cf5780632bccdce6146101ed57806332d4e7831461021d5780633a1e083314610239575b600080fd5b61019b6104d1565b6040516101a89190612a74565b60405180910390f35b6101b961059f565b6040516101c69190612b75565b60405180910390f35b6101d76105a5565b6040516101e49190612b75565b60405180910390f35b610207600480360381019061020291906125e0565b6105f2565b6040516102149190612ada565b60405180910390f35b610237600480360381019061023291906125b3565b610d30565b005b610241610d3a565b60405161024e9190612a96565b60405180910390f35b61025f610fcb565b60405161026c9190612b75565b60405180910390f35b61027d6112c1565b60405161028a9190612b75565b60405180910390f35b6102ad60048036038101906102a89190612660565b6112ea565b005b6102c960048036038101906102c491906125b3565b61130c565b005b6102e560048036038101906102e091906125b3565b611316565b6040516102f2919061298a565b60405180910390f35b610303611349565b6040516103109190612b75565b60405180910390f35b61032161134f565b60405161032e9190612ada565b60405180910390f35b61033f6118d7565b60405161034c919061298a565b60405180910390f35b61035d6118fb565b60405161036a9190612b75565b60405180910390f35b61037b611945565b6040516103889190612b75565b60405180910390f35b6103ab60048036038101906103a69190612620565b61194b565b005b6103b561195d565b6040516103c29190612ab8565b60405180910390f35b6103d3611ad0565b6040516103e09190612b75565b60405180910390f35b6103f1611ad6565b6040516103fe9190612ada565b60405180910390f35b610421600480360381019061041c9190612559565b611dad565b6040516104349796959493929190612a05565b60405180910390f35b610445611e1c565b6040516104529190612b75565b60405180910390f35b61047560048036038101906104709190612559565b611e22565b005b61047f611ef3565b60405161048c9190612ab8565b60405180910390f35b61049d612066565b6040516104aa9190612b75565b60405180910390f35b6104bb61206c565b6040516104c89190612b75565b60405180910390f35b6060600c60003373ffffffffffffffffffffffffffffffffffffffff1673ffffffffffffffffffffffffffffffffffffffff16815260200190815260200160002060010180548060200260200160405190810160405280929190818152602001828054801561059557602002820191906000526020600020905b8160009054906101000a900473ffffffffffffffffffffffffffffffffffffffff1673ffffffffffffffffffffffffffffffffffffffff168152602001906001019080831161054b575b5050505050905090565b60035481565b6000600c60003373ffffffffffffffffffffffffffffffffffffffff1673ffffffffffffffffffffffffffffffffffffffff16815260200190815260200160002060010180549050905090565b6000600554831015801561060857506006548311155b610647576040517f08c379a000000000000000000000000000000000000000000000000000000000815260040161063e90612b15565b60405180910390fd5b60001515600c60003373ffffffffffffffffffffffffffffffffffffffff1673ffffffffffffffffffffffffffffffffffffffff16815260200190815260200160002060080160009054906101000a900460ff16151514156106bc57600360008154809291906106b690612da9565b91905055505b6000600c60003373ffffffffffffffffffffffffffffffffffffffff1673ffffffffffffffffffffffffffffffffffffffff16815260200190815260200160002060060154141561075e5763018b8200426107179190612c4c565b600c60003373ffffffffffffffffffffffffffffffffffffffff1673ffffffffffffffffffffffffffffffffffffffff168152602001908152602001600020600901819055505b6000600c60003373ffffffffffffffffffffffffffffffffffffffff1673ffffffffffffffffffffffffffffffffffffffff16815260200190815260200160002060050154905083600c60003373ffffffffffffffffffffffffffffffffffffffff1673ffffffffffffffffffffffffffffffffffffffff16815260200190815260200160002060000160008381526020019081526020016000206000018190555042600c60003373ffffffffffffffffffffffffffffffffffffffff1673ffffffffffffffffffffffffffffffffffffffff168152602001908152602001600020600001600083815260200190815260200160002060020181905550600854426108699190612c4c565b600c60003373ffffffffffffffffffffffffffffffffffffffff1673ffffffffffffffffffffffffffffffffffffffff16815260200190815260200160002060000160008381526020019081526020016000206001018190555080600c60003373ffffffffffffffffffffffffffffffffffffffff1673ffffffffffffffffffffffffffffffffffffffff16815260200190815260200160002060000160008381526020019081526020016000206003018190555083600c60003373ffffffffffffffffffffffffffffffffffffffff1673ffffffffffffffffffffffffffffffffffffffff16815260200190815260200160002060060160008282546109709190612c4c565b92505081905550600c60003373ffffffffffffffffffffffffffffffffffffffff1673ffffffffffffffffffffffffffffffffffffffff16815260200190815260200160002060050160008154809291906109ca90612da9565b919050555083600960008282546109e19190612c4c565b92505081905550600160009054906101000a900473ffffffffffffffffffffffffffffffffffffffff1673ffffffffffffffffffffffffffffffffffffffff166323b872dd33306305f5e10088610a389190612cd3565b6040518463ffffffff1660e01b8152600401610a56939291906129a5565b602060405180830381600087803b158015610a7057600080fd5b505af1158015610a84573d6000803e3d6000fd5b505050506040513d601f19601f82011682018060405250810190610aa89190612586565b50600073ffffffffffffffffffffffffffffffffffffffff168373ffffffffffffffffffffffffffffffffffffffff161480610b0f57503373ffffffffffffffffffffffffffffffffffffffff168373ffffffffffffffffffffffffffffffffffffffff16145b15610b9b576000600c60003373ffffffffffffffffffffffffffffffffffffffff1673ffffffffffffffffffffffffffffffffffffffff16815260200190815260200160002060020160006101000a81548173ffffffffffffffffffffffffffffffffffffffff021916908373ffffffffffffffffffffffffffffffffffffffff160217905550610cca565b82600c60003373ffffffffffffffffffffffffffffffffffffffff1673ffffffffffffffffffffffffffffffffffffffff16815260200190815260200160002060020160006101000a81548173ffffffffffffffffffffffffffffffffffffffff021916908373ffffffffffffffffffffffffffffffffffffffff160217905550600c60008473ffffffffffffffffffffffffffffffffffffffff1673ffffffffffffffffffffffffffffffffffffffff168152602001908152602001600020600101339080600181540180825580915050600190039060005260206000200160009091909190916101000a81548173ffffffffffffffffffffffffffffffffffffffff021916908373ffffffffffffffffffffffffffffffffffffffff160217905550610cc93385612072565b5b6001600c60003373ffffffffffffffffffffffffffffffffffffffff1673ffffffffffffffffffffffffffffffffffffffff16815260200190815260200160002060080160006101000a81548160ff021916908315150217905550600191505092915050565b8060058190555050565b60606000600c60003373ffffffffffffffffffffffffffffffffffffffff1673ffffffffffffffffffffffffffffffffffffffff16815260200190815260200160002060050154905060008060005b83811015610e12576000600c60003373ffffffffffffffffffffffffffffffffffffffff1673ffffffffffffffffffffffffffffffffffffffff1681526020019081526020016000206000016000838152602001908152602001600020600001541115610dff578280610dfb90612da9565b9350505b8080610e0a90612da9565b915050610d89565b5060008267ffffffffffffffff811115610e2f57610e2e612e7f565b5b604051908082528060200260200182016040528015610e6857816020015b610e556124e2565b815260200190600190039081610e4d5790505b50905060005b84811015610fc0576000600c60003373ffffffffffffffffffffffffffffffffffffffff1673ffffffffffffffffffffffffffffffffffffffff1681526020019081526020016000206000016000838152602001908152602001600020600001541115610fad57600c60003373ffffffffffffffffffffffffffffffffffffffff1673ffffffffffffffffffffffffffffffffffffffff16815260200190815260200160002060000160008281526020019081526020016000206040518060c001604052908160008201548152602001600182015481526020016002820154815260200160038201548152602001600482015481526020016005820160009054906101000a900460ff161515151581525050828481518110610f9357610f92612e50565b5b60200260200101819052508280610fa990612da9565b9350505b8080610fb890612da9565b915050610e6e565b508094505050505090565b6000806000806000600c60003373ffffffffffffffffffffffffffffffffffffffff1673ffffffffffffffffffffffffffffffffffffffff16815260200190815260200160002060050154905060005b8181101561126657600c60003373ffffffffffffffffffffffffffffffffffffffff1673ffffffffffffffffffffffffffffffffffffffff168152602001908152602001600020600001600082815260200190815260200160002060050160009054906101000a900460ff166110f457600c60003373ffffffffffffffffffffffffffffffffffffffff1673ffffffffffffffffffffffffffffffffffffffff168152602001908152602001600020600001600082815260200190815260200160002060020154426110ed9190612d2d565b93506111af565b600c60003373ffffffffffffffffffffffffffffffffffffffff1673ffffffffffffffffffffffffffffffffffffffff168152602001908152602001600020600001600082815260200190815260200160002060020154600c60003373ffffffffffffffffffffffffffffffffffffffff1673ffffffffffffffffffffffffffffffffffffffff1681526020019081526020016000206000016000838152602001908152602001600020600401546111ac9190612d2d565b93505b603c846111bc9190612ca2565b93506000841115611253576127106032600c60003373ffffffffffffffffffffffffffffffffffffffff1673ffffffffffffffffffffffffffffffffffffffff16815260200190815260200160002060000160008481526020019081526020016000206000015461122d9190612cd3565b6112379190612ca2565b925082846112459190612cd3565b856112509190612c4c565b94505b808061125e90612da9565b91505061101b565b50600c60003373ffffffffffffffffffffffffffffffffffffffff1673ffffffffffffffffffffffffffffffffffffffff16815260200190815260200160002060070154846112b59190612d2d565b93508394505050505090565b600080600090505b6003548110156112e65780806112de90612da9565b9150506112c9565b5090565b8260068190555083600581905550816004819055508060078190555050505050565b8060068190555050565b600b6020528060005260406000206000915054906101000a900473ffffffffffffffffffffffffffffffffffffffff1681565b60085481565b600080600c60003373ffffffffffffffffffffffffffffffffffffffff1673ffffffffffffffffffffffffffffffffffffffff16815260200190815260200160002060060154116113d5576040517f08c379a00000000000000000000000000000000000000000000000000000000081526004016113cc90612af5565b60405180910390fd5b6000600c60003373ffffffffffffffffffffffffffffffffffffffff1673ffffffffffffffffffffffffffffffffffffffff1681526020019081526020016000206006015490506000600c60003373ffffffffffffffffffffffffffffffffffffffff1673ffffffffffffffffffffffffffffffffffffffff1681526020019081526020016000206005015490506000600a54905060008042600c60003373ffffffffffffffffffffffffffffffffffffffff1673ffffffffffffffffffffffffffffffffffffffff168152602001908152602001600020600901541115611690576064601e866114c69190612cd3565b6114d09190612ca2565b915060646046866114e19190612cd3565b6114eb9190612ca2565b9050600160009054906101000a900473ffffffffffffffffffffffffffffffffffffffff1673ffffffffffffffffffffffffffffffffffffffff1663a9059cbb336305f5e1008561153c9190612cd3565b6040518363ffffffff1660e01b81526004016115599291906129dc565b602060405180830381600087803b15801561157357600080fd5b505af1158015611587573d6000803e3d6000fd5b505050506040513d601f19601f820116820180604052508101906115ab9190612586565b50600160009054906101000a900473ffffffffffffffffffffffffffffffffffffffff1673ffffffffffffffffffffffffffffffffffffffff1663a9059cbb60008054906101000a900473ffffffffffffffffffffffffffffffffffffffff166305f5e1008461161b9190612cd3565b6040518363ffffffff1660e01b81526004016116389291906129dc565b602060405180830381600087803b15801561165257600080fd5b505af1158015611666573d6000803e3d6000fd5b505050506040513d601f19601f8201168201806040525081019061168a9190612586565b50611750565b600160009054906101000a900473ffffffffffffffffffffffffffffffffffffffff1673ffffffffffffffffffffffffffffffffffffffff1663a9059cbb336305f5e100886116df9190612cd3565b6040518363ffffffff1660e01b81526004016116fc9291906129dc565b602060405180830381600087803b15801561171657600080fd5b505af115801561172a573d6000803e3d6000fd5b505050506040513d601f19601f8201168201806040525081019061174e9190612586565b505b600092505b8383101561183a576001600c60003373ffffffffffffffffffffffffffffffffffffffff1673ffffffffffffffffffffffffffffffffffffffff168152602001908152602001600020600001600085815260200190815260200160002060050160006101000a81548160ff02191690831515021790555042600c60003373ffffffffffffffffffffffffffffffffffffffff1673ffffffffffffffffffffffffffffffffffffffff168152602001908152602001600020600001600085815260200190815260200160002060040181905550828061183290612da9565b935050611755565b600c60003373ffffffffffffffffffffffffffffffffffffffff1673ffffffffffffffffffffffffffffffffffffffff16815260200190815260200160002060050154600a819055506000600c60003373ffffffffffffffffffffffffffffffffffffffff1673ffffffffffffffffffffffffffffffffffffffff1681526020019081526020016000206006018190555060019550505050505090565b60008054906101000a900473ffffffffffffffffffffffffffffffffffffffff1681565b6000600c60003373ffffffffffffffffffffffffffffffffffffffff1673ffffffffffffffffffffffffffffffffffffffff16815260200190815260200160002060060154905090565b60075481565b81600481905550806007819055505050565b60606000601467ffffffffffffffff81111561197c5761197b612e7f565b5b6040519080825280602002602001820160405280156119aa5781602001602082028036833780820191505090505b50905060005b6014811015611ac8576000600c60003373ffffffffffffffffffffffffffffffffffffffff1673ffffffffffffffffffffffffffffffffffffffff1681526020019081526020016000206003016000838152602001908152602001600020600001541115611a9357600c60003373ffffffffffffffffffffffffffffffffffffffff1673ffffffffffffffffffffffffffffffffffffffff168152602001908152602001600020600301600082815260200190815260200160002060000154828281518110611a8257611a81612e50565b5b602002602001018181525050611ab5565b6000828281518110611aa857611aa7612e50565b5b6020026020010181815250505b8080611ac090612da9565b9150506119b0565b508091505090565b60055481565b600080611ae1610fcb565b905060008111611b26576040517f08c379a0000000000000000000000000000000000000000000000000000000008152600401611b1d90612b35565b60405180910390fd5b60006064601583611b379190612cd3565b611b419190612ca2565b90506000600c60003373ffffffffffffffffffffffffffffffffffffffff1673ffffffffffffffffffffffffffffffffffffffff16815260200190815260200160002060020160009054906101000a900473ffffffffffffffffffffffffffffffffffffffff169050600073ffffffffffffffffffffffffffffffffffffffff168173ffffffffffffffffffffffffffffffffffffffff1614611c8f57600260009054906101000a900473ffffffffffffffffffffffffffffffffffffffff1673ffffffffffffffffffffffffffffffffffffffff1663a9059cbb82846040518363ffffffff1660e01b8152600401611c3b9291906129dc565b602060405180830381600087803b158015611c5557600080fd5b505af1158015611c69573d6000803e3d6000fd5b505050506040513d601f19601f82011682018060405250810190611c8d9190612586565b505b600260009054906101000a900473ffffffffffffffffffffffffffffffffffffffff1673ffffffffffffffffffffffffffffffffffffffff1663a9059cbb338486611cda9190612d2d565b6040518363ffffffff1660e01b8152600401611cf79291906129dc565b602060405180830381600087803b158015611d1157600080fd5b505af1158015611d25573d6000803e3d6000fd5b505050506040513d601f19601f82011682018060405250810190611d499190612586565b5082600c60003373ffffffffffffffffffffffffffffffffffffffff1673ffffffffffffffffffffffffffffffffffffffff1681526020019081526020016000206007016000828254611d9c9190612c4c565b925050819055506001935050505090565b600c6020528060005260406000206000915090508060020160009054906101000a900473ffffffffffffffffffffffffffffffffffffffff16908060040154908060050154908060060154908060070154908060080160009054906101000a900460ff16908060090154905087565b60095481565b60008054906101000a900473ffffffffffffffffffffffffffffffffffffffff1673ffffffffffffffffffffffffffffffffffffffff163373ffffffffffffffffffffffffffffffffffffffff1614611eb0576040517f08c379a0000000000000000000000000000000000000000000000000000000008152600401611ea790612b55565b60405180910390fd5b806000806101000a81548173ffffffffffffffffffffffffffffffffffffffff021916908373ffffffffffffffffffffffffffffffffffffffff16021790555050565b60606000601467ffffffffffffffff811115611f1257611f11612e7f565b5b604051908082528060200260200182016040528015611f405781602001602082028036833780820191505090505b50905060005b601481101561205e576000600c60003373ffffffffffffffffffffffffffffffffffffffff1673ffffffffffffffffffffffffffffffffffffffff168152602001908152602001600020600301600083815260200190815260200160002060000154111561202957600c60003373ffffffffffffffffffffffffffffffffffffffff1673ffffffffffffffffffffffffffffffffffffffff16815260200190815260200160002060030160008281526020019081526020016000206001015482828151811061201857612017612e50565b5b60200260200101818152505061204b565b600082828151811061203e5761203d612e50565b5b6020026020010181815250505b808061205690612da9565b915050611f46565b508091505090565b60045481565b60065481565b60008290506000600567ffffffffffffffff81111561209457612093612e7f565b5b6040519080825280602002602001820160405280156120c25781602001602082028036833780820191505090505b5090506005816000815181106120db576120da612e50565b5b6020026020010181815250506003816001815181106120fd576120fc612e50565b5b60200260200101818152505060028160028151811061211f5761211e612e50565b5b60200260200101818152505060018160038151811061214157612140612e50565b5b60200260200101818152505060018160048151811061216357612162612e50565b5b602002602001018181525050600080600090505b60148110156124da57600081141561219257600091506121da565b60018114156121a457600191506121d9565b60028114156121b657600291506121d8565b60078111156121c857600491506121d7565b60028111156121d657600391505b5b5b5b5b600073ffffffffffffffffffffffffffffffffffffffff16600c60008673ffffffffffffffffffffffffffffffffffffffff1673ffffffffffffffffffffffffffffffffffffffff16815260200190815260200160002060020160009054906101000a900473ffffffffffffffffffffffffffffffffffffffff1673ffffffffffffffffffffffffffffffffffffffff16146124c257600c60008573ffffffffffffffffffffffffffffffffffffffff1673ffffffffffffffffffffffffffffffffffffffff16815260200190815260200160002060020160009054906101000a900473ffffffffffffffffffffffffffffffffffffffff16935060006064866305f5e1008686815181106122f2576122f1612e50565b5b60200260200101516123049190612cd3565b61230e9190612cd3565b6123189190612ca2565b90506004831415612333576002816123309190612ca2565b90505b600160009054906101000a900473ffffffffffffffffffffffffffffffffffffffff1673ffffffffffffffffffffffffffffffffffffffff1663a9059cbb86836040518363ffffffff1660e01b81526004016123909291906129dc565b602060405180830381600087803b1580156123aa57600080fd5b505af11580156123be573d6000803e3d6000fd5b505050506040513d601f19601f820116820180604052508101906123e29190612586565b5080600c60008773ffffffffffffffffffffffffffffffffffffffff1673ffffffffffffffffffffffffffffffffffffffff168152602001908152602001600020600301600084815260200190815260200160002060000160008282546124499190612c4c565b92505081905550600c60008673ffffffffffffffffffffffffffffffffffffffff1673ffffffffffffffffffffffffffffffffffffffff168152602001908152602001600020600301600083815260200190815260200160002060010160008154809291906124b790612da9565b9190505550506124c7565b6124da565b80806124d290612da9565b915050612177565b505050505050565b6040518060c0016040528060008152602001600081526020016000815260200160008152602001600081526020016000151581525090565b60008135905061252981612fef565b92915050565b60008151905061253e81613006565b92915050565b6000813590506125538161301d565b92915050565b60006020828403121561256f5761256e612eae565b5b600061257d8482850161251a565b91505092915050565b60006020828403121561259c5761259b612eae565b5b60006125aa8482850161252f565b91505092915050565b6000602082840312156125c9576125c8612eae565b5b60006125d784828501612544565b91505092915050565b600080604083850312156125f7576125f6612eae565b5b600061260585828601612544565b92505060206126168582860161251a565b9150509250929050565b6000806040838503121561263757612636612eae565b5b600061264585828601612544565b925050602061265685828601612544565b9150509250929050565b6000806000806080858703121561267a57612679612eae565b5b600061268887828801612544565b945050602061269987828801612544565b93505060406126aa87828801612544565b92505060606126bb87828801612544565b91505092959194509250565b60006126d3838361270f565b60208301905092915050565b60006126eb83836128f1565b60c08301905092915050565b6000612703838361296c565b60208301905092915050565b61271881612d61565b82525050565b61272781612d61565b82525050565b600061273882612bc0565b6127428185612c08565b935061274d83612b90565b8060005b8381101561277e57815161276588826126c7565b975061277083612be1565b925050600181019050612751565b5085935050505092915050565b600061279682612bcb565b6127a08185612c19565b93506127ab83612ba0565b8060005b838110156127dc5781516127c388826126df565b97506127ce83612bee565b9250506001810190506127af565b5085935050505092915050565b60006127f482612bd6565b6127fe8185612c2a565b935061280983612bb0565b8060005b8381101561283a57815161282188826126f7565b975061282c83612bfb565b92505060018101905061280d565b5085935050505092915050565b61285081612d73565b82525050565b61285f81612d73565b82525050565b6000612872602583612c3b565b915061287d82612eb3565b604082019050919050565b6000612895603583612c3b565b91506128a082612f02565b604082019050919050565b60006128b8602283612c3b565b91506128c382612f51565b604082019050919050565b60006128db602183612c3b565b91506128e682612fa0565b604082019050919050565b60c082016000820151612907600085018261296c565b50602082015161291a602085018261296c565b50604082015161292d604085018261296c565b506060820151612940606085018261296c565b506080820151612953608085018261296c565b5060a082015161296660a0850182612847565b50505050565b61297581612d9f565b82525050565b61298481612d9f565b82525050565b600060208201905061299f600083018461271e565b92915050565b60006060820190506129ba600083018661271e565b6129c7602083018561271e565b6129d4604083018461297b565b949350505050565b60006040820190506129f1600083018561271e565b6129fe602083018461297b565b9392505050565b600060e082019050612a1a600083018a61271e565b612a27602083018961297b565b612a34604083018861297b565b612a41606083018761297b565b612a4e608083018661297b565b612a5b60a0830185612856565b612a6860c083018461297b565b98975050505050505050565b60006020820190508181036000830152612a8e818461272d565b905092915050565b60006020820190508181036000830152612ab0818461278b565b905092915050565b60006020820190508181036000830152612ad281846127e9565b905092915050565b6000602082019050612aef6000830184612856565b92915050565b60006020820190508181036000830152612b0e81612865565b9050919050565b60006020820190508181036000830152612b2e81612888565b9050919050565b60006020820190508181036000830152612b4e816128ab565b9050919050565b60006020820190508181036000830152612b6e816128ce565b9050919050565b6000602082019050612b8a600083018461297b565b92915050565b6000819050602082019050919050565b6000819050602082019050919050565b6000819050602082019050919050565b600081519050919050565b600081519050919050565b600081519050919050565b6000602082019050919050565b6000602082019050919050565b6000602082019050919050565b600082825260208201905092915050565b600082825260208201905092915050565b600082825260208201905092915050565b600082825260208201905092915050565b6000612c5782612d9f565b9150612c6283612d9f565b9250827fffffffffffffffffffffffffffffffffffffffffffffffffffffffffffffffff03821115612c9757612c96612df2565b5b828201905092915050565b6000612cad82612d9f565b9150612cb883612d9f565b925082612cc857612cc7612e21565b5b828204905092915050565b6000612cde82612d9f565b9150612ce983612d9f565b9250817fffffffffffffffffffffffffffffffffffffffffffffffffffffffffffffffff0483118215151615612d2257612d21612df2565b5b828202905092915050565b6000612d3882612d9f565b9150612d4383612d9f565b925082821015612d5657612d55612df2565b5b828203905092915050565b6000612d6c82612d7f565b9050919050565b60008115159050919050565b600073ffffffffffffffffffffffffffffffffffffffff82169050919050565b6000819050919050565b6000612db482612d9f565b91507fffffffffffffffffffffffffffffffffffffffffffffffffffffffffffffffff821415612de757612de6612df2565b5b600182019050919050565b7f4e487b7100000000000000000000000000000000000000000000000000000000600052601160045260246000fd5b7f4e487b7100000000000000000000000000000000000000000000000000000000600052601260045260246000fd5b7f4e487b7100000000000000000000000000000000000000000000000000000000600052603260045260246000fd5b7f4e487b7100000000000000000000000000000000000000000000000000000000600052604160045260246000fd5b600080fd5b7f796f7520646f6e74206861766520696e766573746d656e7420746f207769746860008201527f647261776e000000000000000000000000000000000000000000000000000000602082015250565b7f76616c7565206973206e6f742067726561746572207468616e2031303030302060008201527f616e64206c657373207468616e20353030303030300000000000000000000000602082015250565b7f796f7520646f6e742068617665207265776172647320746f207769746864726160008201527f776e000000000000000000000000000000000000000000000000000000000000602082015250565b7f6f6e6c79204f776e65722063616e2063616c6c20746869732066756e6374696f60008201527f6e00000000000000000000000000000000000000000000000000000000000000602082015250565b612ff881612d61565b811461300357600080fd5b50565b61300f81612d73565b811461301a57600080fd5b50565b61302681612d9f565b811461303157600080fd5b5056fea2646970667358221220d5cf7692190c68f346cd62055fa866a341afda0ba7fdf3b9e1d53ee50b763baa64736f6c63430008070033",
					"opcodes": "PUSH1 0x80 PUSH1 0x40 MSTORE PUSH20 0x9462A065C980693808405EB4F2851F0FFA1D3016 PUSH1 0x1 PUSH1 0x0 PUSH2 0x100 EXP DUP2 SLOAD DUP2 PUSH20 0xFFFFFFFFFFFFFFFFFFFFFFFFFFFFFFFFFFFFFFFF MUL NOT AND SWAP1 DUP4 PUSH20 0xFFFFFFFFFFFFFFFFFFFFFFFFFFFFFFFFFFFFFFFF AND MUL OR SWAP1 SSTORE POP PUSH20 0xC8BBA86A801CD87CA72222D5A43639592FBAA6EC PUSH1 0x2 PUSH1 0x0 PUSH2 0x100 EXP DUP2 SLOAD DUP2 PUSH20 0xFFFFFFFFFFFFFFFFFFFFFFFFFFFFFFFFFFFFFFFF MUL NOT AND SWAP1 DUP4 PUSH20 0xFFFFFFFFFFFFFFFFFFFFFFFFFFFFFFFFFFFFFFFF AND MUL OR SWAP1 SSTORE POP PUSH8 0x4563918244F40000 PUSH1 0x4 SSTORE PUSH2 0x2710 PUSH1 0x5 SSTORE PUSH3 0x4C4B40 PUSH1 0x6 SSTORE PUSH3 0x186A0 PUSH1 0x7 SSTORE PUSH4 0x18B8200 PUSH1 0x8 SSTORE CALLVALUE DUP1 ISZERO PUSH2 0xE2 JUMPI PUSH1 0x0 DUP1 REVERT JUMPDEST POP CALLER PUSH1 0x0 DUP1 PUSH2 0x100 EXP DUP2 SLOAD DUP2 PUSH20 0xFFFFFFFFFFFFFFFFFFFFFFFFFFFFFFFFFFFFFFFF MUL NOT AND SWAP1 DUP4 PUSH20 0xFFFFFFFFFFFFFFFFFFFFFFFFFFFFFFFFFFFFFFFF AND MUL OR SWAP1 SSTORE POP PUSH2 0x306A DUP1 PUSH2 0x132 PUSH1 0x0 CODECOPY PUSH1 0x0 RETURN INVALID PUSH1 0x80 PUSH1 0x40 MSTORE CALLVALUE DUP1 ISZERO PUSH2 0x10 JUMPI PUSH1 0x0 DUP1 REVERT JUMPDEST POP PUSH1 0x4 CALLDATASIZE LT PUSH2 0x18E JUMPI PUSH1 0x0 CALLDATALOAD PUSH1 0xE0 SHR DUP1 PUSH4 0x8DA5CB5B GT PUSH2 0xDE JUMPI DUP1 PUSH4 0xC885BC58 GT PUSH2 0x97 JUMPI DUP1 PUSH4 0xF2FDE38B GT PUSH2 0x71 JUMPI DUP1 PUSH4 0xF2FDE38B EQ PUSH2 0x45B JUMPI DUP1 PUSH4 0xF790B81A EQ PUSH2 0x477 JUMPI DUP1 PUSH4 0xF7C618C1 EQ PUSH2 0x495 JUMPI DUP1 PUSH4 0xFAE730BC EQ PUSH2 0x4B3 JUMPI PUSH2 0x18E JUMP JUMPDEST DUP1 PUSH4 0xC885BC58 EQ PUSH2 0x3E9 JUMPI DUP1 PUSH4 0xD3560EE8 EQ PUSH2 0x407 JUMPI DUP1 PUSH4 0xE2033FCB EQ PUSH2 0x43D JUMPI PUSH2 0x18E JUMP JUMPDEST DUP1 PUSH4 0x8DA5CB5B EQ PUSH2 0x337 JUMPI DUP1 PUSH4 0x929F6BBE EQ PUSH2 0x355 JUMPI DUP1 PUSH4 0x9740A1BC EQ PUSH2 0x373 JUMPI DUP1 PUSH4 0xA47BD496 EQ PUSH2 0x391 JUMPI DUP1 PUSH4 0xA61BE99D EQ PUSH2 0x3AD JUMPI DUP1 PUSH4 0xBC67EAFF EQ PUSH2 0x3CB JUMPI PUSH2 0x18E JUMP JUMPDEST DUP1 PUSH4 0x3D18B912 GT PUSH2 0x14B JUMPI DUP1 PUSH4 0x500CB85F GT PUSH2 0x125 JUMPI DUP1 PUSH4 0x500CB85F EQ PUSH2 0x2AF JUMPI DUP1 PUSH4 0x502C6BFA EQ PUSH2 0x2CB JUMPI DUP1 PUSH4 0x523CDDFE EQ PUSH2 0x2FB JUMPI DUP1 PUSH4 0x73CF575A EQ PUSH2 0x319 JUMPI PUSH2 0x18E JUMP JUMPDEST DUP1 PUSH4 0x3D18B912 EQ PUSH2 0x257 JUMPI DUP1 PUSH4 0x42508F66 EQ PUSH2 0x275 JUMPI DUP1 PUSH4 0x4EB1ECC9 EQ PUSH2 0x293 JUMPI PUSH2 0x18E JUMP JUMPDEST DUP1 PUSH4 0xC5F58F4 EQ PUSH2 0x193 JUMPI DUP1 PUSH4 0x10CDE60A EQ PUSH2 0x1B1 JUMPI DUP1 PUSH4 0x1E8ABA35 EQ PUSH2 0x1CF JUMPI DUP1 PUSH4 0x2BCCDCE6 EQ PUSH2 0x1ED JUMPI DUP1 PUSH4 0x32D4E783 EQ PUSH2 0x21D JUMPI DUP1 PUSH4 0x3A1E0833 EQ PUSH2 0x239 JUMPI JUMPDEST PUSH1 0x0 DUP1 REVERT JUMPDEST PUSH2 0x19B PUSH2 0x4D1 JUMP JUMPDEST PUSH1 0x40 MLOAD PUSH2 0x1A8 SWAP2 SWAP1 PUSH2 0x2A74 JUMP JUMPDEST PUSH1 0x40 MLOAD DUP1 SWAP2 SUB SWAP1 RETURN JUMPDEST PUSH2 0x1B9 PUSH2 0x59F JUMP JUMPDEST PUSH1 0x40 MLOAD PUSH2 0x1C6 SWAP2 SWAP1 PUSH2 0x2B75 JUMP JUMPDEST PUSH1 0x40 MLOAD DUP1 SWAP2 SUB SWAP1 RETURN JUMPDEST PUSH2 0x1D7 PUSH2 0x5A5 JUMP JUMPDEST PUSH1 0x40 MLOAD PUSH2 0x1E4 SWAP2 SWAP1 PUSH2 0x2B75 JUMP JUMPDEST PUSH1 0x40 MLOAD DUP1 SWAP2 SUB SWAP1 RETURN JUMPDEST PUSH2 0x207 PUSH1 0x4 DUP1 CALLDATASIZE SUB DUP2 ADD SWAP1 PUSH2 0x202 SWAP2 SWAP1 PUSH2 0x25E0 JUMP JUMPDEST PUSH2 0x5F2 JUMP JUMPDEST PUSH1 0x40 MLOAD PUSH2 0x214 SWAP2 SWAP1 PUSH2 0x2ADA JUMP JUMPDEST PUSH1 0x40 MLOAD DUP1 SWAP2 SUB SWAP1 RETURN JUMPDEST PUSH2 0x237 PUSH1 0x4 DUP1 CALLDATASIZE SUB DUP2 ADD SWAP1 PUSH2 0x232 SWAP2 SWAP1 PUSH2 0x25B3 JUMP JUMPDEST PUSH2 0xD30 JUMP JUMPDEST STOP JUMPDEST PUSH2 0x241 PUSH2 0xD3A JUMP JUMPDEST PUSH1 0x40 MLOAD PUSH2 0x24E SWAP2 SWAP1 PUSH2 0x2A96 JUMP JUMPDEST PUSH1 0x40 MLOAD DUP1 SWAP2 SUB SWAP1 RETURN JUMPDEST PUSH2 0x25F PUSH2 0xFCB JUMP JUMPDEST PUSH1 0x40 MLOAD PUSH2 0x26C SWAP2 SWAP1 PUSH2 0x2B75 JUMP JUMPDEST PUSH1 0x40 MLOAD DUP1 SWAP2 SUB SWAP1 RETURN JUMPDEST PUSH2 0x27D PUSH2 0x12C1 JUMP JUMPDEST PUSH1 0x40 MLOAD PUSH2 0x28A SWAP2 SWAP1 PUSH2 0x2B75 JUMP JUMPDEST PUSH1 0x40 MLOAD DUP1 SWAP2 SUB SWAP1 RETURN JUMPDEST PUSH2 0x2AD PUSH1 0x4 DUP1 CALLDATASIZE SUB DUP2 ADD SWAP1 PUSH2 0x2A8 SWAP2 SWAP1 PUSH2 0x2660 JUMP JUMPDEST PUSH2 0x12EA JUMP JUMPDEST STOP JUMPDEST PUSH2 0x2C9 PUSH1 0x4 DUP1 CALLDATASIZE SUB DUP2 ADD SWAP1 PUSH2 0x2C4 SWAP2 SWAP1 PUSH2 0x25B3 JUMP JUMPDEST PUSH2 0x130C JUMP JUMPDEST STOP JUMPDEST PUSH2 0x2E5 PUSH1 0x4 DUP1 CALLDATASIZE SUB DUP2 ADD SWAP1 PUSH2 0x2E0 SWAP2 SWAP1 PUSH2 0x25B3 JUMP JUMPDEST PUSH2 0x1316 JUMP JUMPDEST PUSH1 0x40 MLOAD PUSH2 0x2F2 SWAP2 SWAP1 PUSH2 0x298A JUMP JUMPDEST PUSH1 0x40 MLOAD DUP1 SWAP2 SUB SWAP1 RETURN JUMPDEST PUSH2 0x303 PUSH2 0x1349 JUMP JUMPDEST PUSH1 0x40 MLOAD PUSH2 0x310 SWAP2 SWAP1 PUSH2 0x2B75 JUMP JUMPDEST PUSH1 0x40 MLOAD DUP1 SWAP2 SUB SWAP1 RETURN JUMPDEST PUSH2 0x321 PUSH2 0x134F JUMP JUMPDEST PUSH1 0x40 MLOAD PUSH2 0x32E SWAP2 SWAP1 PUSH2 0x2ADA JUMP JUMPDEST PUSH1 0x40 MLOAD DUP1 SWAP2 SUB SWAP1 RETURN JUMPDEST PUSH2 0x33F PUSH2 0x18D7 JUMP JUMPDEST PUSH1 0x40 MLOAD PUSH2 0x34C SWAP2 SWAP1 PUSH2 0x298A JUMP JUMPDEST PUSH1 0x40 MLOAD DUP1 SWAP2 SUB SWAP1 RETURN JUMPDEST PUSH2 0x35D PUSH2 0x18FB JUMP JUMPDEST PUSH1 0x40 MLOAD PUSH2 0x36A SWAP2 SWAP1 PUSH2 0x2B75 JUMP JUMPDEST PUSH1 0x40 MLOAD DUP1 SWAP2 SUB SWAP1 RETURN JUMPDEST PUSH2 0x37B PUSH2 0x1945 JUMP JUMPDEST PUSH1 0x40 MLOAD PUSH2 0x388 SWAP2 SWAP1 PUSH2 0x2B75 JUMP JUMPDEST PUSH1 0x40 MLOAD DUP1 SWAP2 SUB SWAP1 RETURN JUMPDEST PUSH2 0x3AB PUSH1 0x4 DUP1 CALLDATASIZE SUB DUP2 ADD SWAP1 PUSH2 0x3A6 SWAP2 SWAP1 PUSH2 0x2620 JUMP JUMPDEST PUSH2 0x194B JUMP JUMPDEST STOP JUMPDEST PUSH2 0x3B5 PUSH2 0x195D JUMP JUMPDEST PUSH1 0x40 MLOAD PUSH2 0x3C2 SWAP2 SWAP1 PUSH2 0x2AB8 JUMP JUMPDEST PUSH1 0x40 MLOAD DUP1 SWAP2 SUB SWAP1 RETURN JUMPDEST PUSH2 0x3D3 PUSH2 0x1AD0 JUMP JUMPDEST PUSH1 0x40 MLOAD PUSH2 0x3E0 SWAP2 SWAP1 PUSH2 0x2B75 JUMP JUMPDEST PUSH1 0x40 MLOAD DUP1 SWAP2 SUB SWAP1 RETURN JUMPDEST PUSH2 0x3F1 PUSH2 0x1AD6 JUMP JUMPDEST PUSH1 0x40 MLOAD PUSH2 0x3FE SWAP2 SWAP1 PUSH2 0x2ADA JUMP JUMPDEST PUSH1 0x40 MLOAD DUP1 SWAP2 SUB SWAP1 RETURN JUMPDEST PUSH2 0x421 PUSH1 0x4 DUP1 CALLDATASIZE SUB DUP2 ADD SWAP1 PUSH2 0x41C SWAP2 SWAP1 PUSH2 0x2559 JUMP JUMPDEST PUSH2 0x1DAD JUMP JUMPDEST PUSH1 0x40 MLOAD PUSH2 0x434 SWAP8 SWAP7 SWAP6 SWAP5 SWAP4 SWAP3 SWAP2 SWAP1 PUSH2 0x2A05 JUMP JUMPDEST PUSH1 0x40 MLOAD DUP1 SWAP2 SUB SWAP1 RETURN JUMPDEST PUSH2 0x445 PUSH2 0x1E1C JUMP JUMPDEST PUSH1 0x40 MLOAD PUSH2 0x452 SWAP2 SWAP1 PUSH2 0x2B75 JUMP JUMPDEST PUSH1 0x40 MLOAD DUP1 SWAP2 SUB SWAP1 RETURN JUMPDEST PUSH2 0x475 PUSH1 0x4 DUP1 CALLDATASIZE SUB DUP2 ADD SWAP1 PUSH2 0x470 SWAP2 SWAP1 PUSH2 0x2559 JUMP JUMPDEST PUSH2 0x1E22 JUMP JUMPDEST STOP JUMPDEST PUSH2 0x47F PUSH2 0x1EF3 JUMP JUMPDEST PUSH1 0x40 MLOAD PUSH2 0x48C SWAP2 SWAP1 PUSH2 0x2AB8 JUMP JUMPDEST PUSH1 0x40 MLOAD DUP1 SWAP2 SUB SWAP1 RETURN JUMPDEST PUSH2 0x49D PUSH2 0x2066 JUMP JUMPDEST PUSH1 0x40 MLOAD PUSH2 0x4AA SWAP2 SWAP1 PUSH2 0x2B75 JUMP JUMPDEST PUSH1 0x40 MLOAD DUP1 SWAP2 SUB SWAP1 RETURN JUMPDEST PUSH2 0x4BB PUSH2 0x206C JUMP JUMPDEST PUSH1 0x40 MLOAD PUSH2 0x4C8 SWAP2 SWAP1 PUSH2 0x2B75 JUMP JUMPDEST PUSH1 0x40 MLOAD DUP1 SWAP2 SUB SWAP1 RETURN JUMPDEST PUSH1 0x60 PUSH1 0xC PUSH1 0x0 CALLER PUSH20 0xFFFFFFFFFFFFFFFFFFFFFFFFFFFFFFFFFFFFFFFF AND PUSH20 0xFFFFFFFFFFFFFFFFFFFFFFFFFFFFFFFFFFFFFFFF AND DUP2 MSTORE PUSH1 0x20 ADD SWAP1 DUP2 MSTORE PUSH1 0x20 ADD PUSH1 0x0 KECCAK256 PUSH1 0x1 ADD DUP1 SLOAD DUP1 PUSH1 0x20 MUL PUSH1 0x20 ADD PUSH1 0x40 MLOAD SWAP1 DUP2 ADD PUSH1 0x40 MSTORE DUP1 SWAP3 SWAP2 SWAP1 DUP2 DUP2 MSTORE PUSH1 0x20 ADD DUP3 DUP1 SLOAD DUP1 ISZERO PUSH2 0x595 JUMPI PUSH1 0x20 MUL DUP3 ADD SWAP2 SWAP1 PUSH1 0x0 MSTORE PUSH1 0x20 PUSH1 0x0 KECCAK256 SWAP1 JUMPDEST DUP2 PUSH1 0x0 SWAP1 SLOAD SWAP1 PUSH2 0x100 EXP SWAP1 DIV PUSH20 0xFFFFFFFFFFFFFFFFFFFFFFFFFFFFFFFFFFFFFFFF AND PUSH20 0xFFFFFFFFFFFFFFFFFFFFFFFFFFFFFFFFFFFFFFFF AND DUP2 MSTORE PUSH1 0x20 ADD SWAP1 PUSH1 0x1 ADD SWAP1 DUP1 DUP4 GT PUSH2 0x54B JUMPI JUMPDEST POP POP POP POP POP SWAP1 POP SWAP1 JUMP JUMPDEST PUSH1 0x3 SLOAD DUP2 JUMP JUMPDEST PUSH1 0x0 PUSH1 0xC PUSH1 0x0 CALLER PUSH20 0xFFFFFFFFFFFFFFFFFFFFFFFFFFFFFFFFFFFFFFFF AND PUSH20 0xFFFFFFFFFFFFFFFFFFFFFFFFFFFFFFFFFFFFFFFF AND DUP2 MSTORE PUSH1 0x20 ADD SWAP1 DUP2 MSTORE PUSH1 0x20 ADD PUSH1 0x0 KECCAK256 PUSH1 0x1 ADD DUP1 SLOAD SWAP1 POP SWAP1 POP SWAP1 JUMP JUMPDEST PUSH1 0x0 PUSH1 0x5 SLOAD DUP4 LT ISZERO DUP1 ISZERO PUSH2 0x608 JUMPI POP PUSH1 0x6 SLOAD DUP4 GT ISZERO JUMPDEST PUSH2 0x647 JUMPI PUSH1 0x40 MLOAD PUSH32 0x8C379A000000000000000000000000000000000000000000000000000000000 DUP2 MSTORE PUSH1 0x4 ADD PUSH2 0x63E SWAP1 PUSH2 0x2B15 JUMP JUMPDEST PUSH1 0x40 MLOAD DUP1 SWAP2 SUB SWAP1 REVERT JUMPDEST PUSH1 0x0 ISZERO ISZERO PUSH1 0xC PUSH1 0x0 CALLER PUSH20 0xFFFFFFFFFFFFFFFFFFFFFFFFFFFFFFFFFFFFFFFF AND PUSH20 0xFFFFFFFFFFFFFFFFFFFFFFFFFFFFFFFFFFFFFFFF AND DUP2 MSTORE PUSH1 0x20 ADD SWAP1 DUP2 MSTORE PUSH1 0x20 ADD PUSH1 0x0 KECCAK256 PUSH1 0x8 ADD PUSH1 0x0 SWAP1 SLOAD SWAP1 PUSH2 0x100 EXP SWAP1 DIV PUSH1 0xFF AND ISZERO ISZERO EQ ISZERO PUSH2 0x6BC JUMPI PUSH1 0x3 PUSH1 0x0 DUP2 SLOAD DUP1 SWAP3 SWAP2 SWAP1 PUSH2 0x6B6 SWAP1 PUSH2 0x2DA9 JUMP JUMPDEST SWAP2 SWAP1 POP SSTORE POP JUMPDEST PUSH1 0x0 PUSH1 0xC PUSH1 0x0 CALLER PUSH20 0xFFFFFFFFFFFFFFFFFFFFFFFFFFFFFFFFFFFFFFFF AND PUSH20 0xFFFFFFFFFFFFFFFFFFFFFFFFFFFFFFFFFFFFFFFF AND DUP2 MSTORE PUSH1 0x20 ADD SWAP1 DUP2 MSTORE PUSH1 0x20 ADD PUSH1 0x0 KECCAK256 PUSH1 0x6 ADD SLOAD EQ ISZERO PUSH2 0x75E JUMPI PUSH4 0x18B8200 TIMESTAMP PUSH2 0x717 SWAP2 SWAP1 PUSH2 0x2C4C JUMP JUMPDEST PUSH1 0xC PUSH1 0x0 CALLER PUSH20 0xFFFFFFFFFFFFFFFFFFFFFFFFFFFFFFFFFFFFFFFF AND PUSH20 0xFFFFFFFFFFFFFFFFFFFFFFFFFFFFFFFFFFFFFFFF AND DUP2 MSTORE PUSH1 0x20 ADD SWAP1 DUP2 MSTORE PUSH1 0x20 ADD PUSH1 0x0 KECCAK256 PUSH1 0x9 ADD DUP2 SWAP1 SSTORE POP JUMPDEST PUSH1 0x0 PUSH1 0xC PUSH1 0x0 CALLER PUSH20 0xFFFFFFFFFFFFFFFFFFFFFFFFFFFFFFFFFFFFFFFF AND PUSH20 0xFFFFFFFFFFFFFFFFFFFFFFFFFFFFFFFFFFFFFFFF AND DUP2 MSTORE PUSH1 0x20 ADD SWAP1 DUP2 MSTORE PUSH1 0x20 ADD PUSH1 0x0 KECCAK256 PUSH1 0x5 ADD SLOAD SWAP1 POP DUP4 PUSH1 0xC PUSH1 0x0 CALLER PUSH20 0xFFFFFFFFFFFFFFFFFFFFFFFFFFFFFFFFFFFFFFFF AND PUSH20 0xFFFFFFFFFFFFFFFFFFFFFFFFFFFFFFFFFFFFFFFF AND DUP2 MSTORE PUSH1 0x20 ADD SWAP1 DUP2 MSTORE PUSH1 0x20 ADD PUSH1 0x0 KECCAK256 PUSH1 0x0 ADD PUSH1 0x0 DUP4 DUP2 MSTORE PUSH1 0x20 ADD SWAP1 DUP2 MSTORE PUSH1 0x20 ADD PUSH1 0x0 KECCAK256 PUSH1 0x0 ADD DUP2 SWAP1 SSTORE POP TIMESTAMP PUSH1 0xC PUSH1 0x0 CALLER PUSH20 0xFFFFFFFFFFFFFFFFFFFFFFFFFFFFFFFFFFFFFFFF AND PUSH20 0xFFFFFFFFFFFFFFFFFFFFFFFFFFFFFFFFFFFFFFFF AND DUP2 MSTORE PUSH1 0x20 ADD SWAP1 DUP2 MSTORE PUSH1 0x20 ADD PUSH1 0x0 KECCAK256 PUSH1 0x0 ADD PUSH1 0x0 DUP4 DUP2 MSTORE PUSH1 0x20 ADD SWAP1 DUP2 MSTORE PUSH1 0x20 ADD PUSH1 0x0 KECCAK256 PUSH1 0x2 ADD DUP2 SWAP1 SSTORE POP PUSH1 0x8 SLOAD TIMESTAMP PUSH2 0x869 SWAP2 SWAP1 PUSH2 0x2C4C JUMP JUMPDEST PUSH1 0xC PUSH1 0x0 CALLER PUSH20 0xFFFFFFFFFFFFFFFFFFFFFFFFFFFFFFFFFFFFFFFF AND PUSH20 0xFFFFFFFFFFFFFFFFFFFFFFFFFFFFFFFFFFFFFFFF AND DUP2 MSTORE PUSH1 0x20 ADD SWAP1 DUP2 MSTORE PUSH1 0x20 ADD PUSH1 0x0 KECCAK256 PUSH1 0x0 ADD PUSH1 0x0 DUP4 DUP2 MSTORE PUSH1 0x20 ADD SWAP1 DUP2 MSTORE PUSH1 0x20 ADD PUSH1 0x0 KECCAK256 PUSH1 0x1 ADD DUP2 SWAP1 SSTORE POP DUP1 PUSH1 0xC PUSH1 0x0 CALLER PUSH20 0xFFFFFFFFFFFFFFFFFFFFFFFFFFFFFFFFFFFFFFFF AND PUSH20 0xFFFFFFFFFFFFFFFFFFFFFFFFFFFFFFFFFFFFFFFF AND DUP2 MSTORE PUSH1 0x20 ADD SWAP1 DUP2 MSTORE PUSH1 0x20 ADD PUSH1 0x0 KECCAK256 PUSH1 0x0 ADD PUSH1 0x0 DUP4 DUP2 MSTORE PUSH1 0x20 ADD SWAP1 DUP2 MSTORE PUSH1 0x20 ADD PUSH1 0x0 KECCAK256 PUSH1 0x3 ADD DUP2 SWAP1 SSTORE POP DUP4 PUSH1 0xC PUSH1 0x0 CALLER PUSH20 0xFFFFFFFFFFFFFFFFFFFFFFFFFFFFFFFFFFFFFFFF AND PUSH20 0xFFFFFFFFFFFFFFFFFFFFFFFFFFFFFFFFFFFFFFFF AND DUP2 MSTORE PUSH1 0x20 ADD SWAP1 DUP2 MSTORE PUSH1 0x20 ADD PUSH1 0x0 KECCAK256 PUSH1 0x6 ADD PUSH1 0x0 DUP3 DUP3 SLOAD PUSH2 0x970 SWAP2 SWAP1 PUSH2 0x2C4C JUMP JUMPDEST SWAP3 POP POP DUP2 SWAP1 SSTORE POP PUSH1 0xC PUSH1 0x0 CALLER PUSH20 0xFFFFFFFFFFFFFFFFFFFFFFFFFFFFFFFFFFFFFFFF AND PUSH20 0xFFFFFFFFFFFFFFFFFFFFFFFFFFFFFFFFFFFFFFFF AND DUP2 MSTORE PUSH1 0x20 ADD SWAP1 DUP2 MSTORE PUSH1 0x20 ADD PUSH1 0x0 KECCAK256 PUSH1 0x5 ADD PUSH1 0x0 DUP2 SLOAD DUP1 SWAP3 SWAP2 SWAP1 PUSH2 0x9CA SWAP1 PUSH2 0x2DA9 JUMP JUMPDEST SWAP2 SWAP1 POP SSTORE POP DUP4 PUSH1 0x9 PUSH1 0x0 DUP3 DUP3 SLOAD PUSH2 0x9E1 SWAP2 SWAP1 PUSH2 0x2C4C JUMP JUMPDEST SWAP3 POP POP DUP2 SWAP1 SSTORE POP PUSH1 0x1 PUSH1 0x0 SWAP1 SLOAD SWAP1 PUSH2 0x100 EXP SWAP1 DIV PUSH20 0xFFFFFFFFFFFFFFFFFFFFFFFFFFFFFFFFFFFFFFFF AND PUSH20 0xFFFFFFFFFFFFFFFFFFFFFFFFFFFFFFFFFFFFFFFF AND PUSH4 0x23B872DD CALLER ADDRESS PUSH4 0x5F5E100 DUP9 PUSH2 0xA38 SWAP2 SWAP1 PUSH2 0x2CD3 JUMP JUMPDEST PUSH1 0x40 MLOAD DUP5 PUSH4 0xFFFFFFFF AND PUSH1 0xE0 SHL DUP2 MSTORE PUSH1 0x4 ADD PUSH2 0xA56 SWAP4 SWAP3 SWAP2 SWAP1 PUSH2 0x29A5 JUMP JUMPDEST PUSH1 0x20 PUSH1 0x40 MLOAD DUP1 DUP4 SUB DUP2 PUSH1 0x0 DUP8 DUP1 EXTCODESIZE ISZERO DUP1 ISZERO PUSH2 0xA70 JUMPI PUSH1 0x0 DUP1 REVERT JUMPDEST POP GAS CALL ISZERO DUP1 ISZERO PUSH2 0xA84 JUMPI RETURNDATASIZE PUSH1 0x0 DUP1 RETURNDATACOPY RETURNDATASIZE PUSH1 0x0 REVERT JUMPDEST POP POP POP POP PUSH1 0x40 MLOAD RETURNDATASIZE PUSH1 0x1F NOT PUSH1 0x1F DUP3 ADD AND DUP3 ADD DUP1 PUSH1 0x40 MSTORE POP DUP2 ADD SWAP1 PUSH2 0xAA8 SWAP2 SWAP1 PUSH2 0x2586 JUMP JUMPDEST POP PUSH1 0x0 PUSH20 0xFFFFFFFFFFFFFFFFFFFFFFFFFFFFFFFFFFFFFFFF AND DUP4 PUSH20 0xFFFFFFFFFFFFFFFFFFFFFFFFFFFFFFFFFFFFFFFF AND EQ DUP1 PUSH2 0xB0F JUMPI POP CALLER PUSH20 0xFFFFFFFFFFFFFFFFFFFFFFFFFFFFFFFFFFFFFFFF AND DUP4 PUSH20 0xFFFFFFFFFFFFFFFFFFFFFFFFFFFFFFFFFFFFFFFF AND EQ JUMPDEST ISZERO PUSH2 0xB9B JUMPI PUSH1 0x0 PUSH1 0xC PUSH1 0x0 CALLER PUSH20 0xFFFFFFFFFFFFFFFFFFFFFFFFFFFFFFFFFFFFFFFF AND PUSH20 0xFFFFFFFFFFFFFFFFFFFFFFFFFFFFFFFFFFFFFFFF AND DUP2 MSTORE PUSH1 0x20 ADD SWAP1 DUP2 MSTORE PUSH1 0x20 ADD PUSH1 0x0 KECCAK256 PUSH1 0x2 ADD PUSH1 0x0 PUSH2 0x100 EXP DUP2 SLOAD DUP2 PUSH20 0xFFFFFFFFFFFFFFFFFFFFFFFFFFFFFFFFFFFFFFFF MUL NOT AND SWAP1 DUP4 PUSH20 0xFFFFFFFFFFFFFFFFFFFFFFFFFFFFFFFFFFFFFFFF AND MUL OR SWAP1 SSTORE POP PUSH2 0xCCA JUMP JUMPDEST DUP3 PUSH1 0xC PUSH1 0x0 CALLER PUSH20 0xFFFFFFFFFFFFFFFFFFFFFFFFFFFFFFFFFFFFFFFF AND PUSH20 0xFFFFFFFFFFFFFFFFFFFFFFFFFFFFFFFFFFFFFFFF AND DUP2 MSTORE PUSH1 0x20 ADD SWAP1 DUP2 MSTORE PUSH1 0x20 ADD PUSH1 0x0 KECCAK256 PUSH1 0x2 ADD PUSH1 0x0 PUSH2 0x100 EXP DUP2 SLOAD DUP2 PUSH20 0xFFFFFFFFFFFFFFFFFFFFFFFFFFFFFFFFFFFFFFFF MUL NOT AND SWAP1 DUP4 PUSH20 0xFFFFFFFFFFFFFFFFFFFFFFFFFFFFFFFFFFFFFFFF AND MUL OR SWAP1 SSTORE POP PUSH1 0xC PUSH1 0x0 DUP5 PUSH20 0xFFFFFFFFFFFFFFFFFFFFFFFFFFFFFFFFFFFFFFFF AND PUSH20 0xFFFFFFFFFFFFFFFFFFFFFFFFFFFFFFFFFFFFFFFF AND DUP2 MSTORE PUSH1 0x20 ADD SWAP1 DUP2 MSTORE PUSH1 0x20 ADD PUSH1 0x0 KECCAK256 PUSH1 0x1 ADD CALLER SWAP1 DUP1 PUSH1 0x1 DUP2 SLOAD ADD DUP1 DUP3 SSTORE DUP1 SWAP2 POP POP PUSH1 0x1 SWAP1 SUB SWAP1 PUSH1 0x0 MSTORE PUSH1 0x20 PUSH1 0x0 KECCAK256 ADD PUSH1 0x0 SWAP1 SWAP2 SWAP1 SWAP2 SWAP1 SWAP2 PUSH2 0x100 EXP DUP2 SLOAD DUP2 PUSH20 0xFFFFFFFFFFFFFFFFFFFFFFFFFFFFFFFFFFFFFFFF MUL NOT AND SWAP1 DUP4 PUSH20 0xFFFFFFFFFFFFFFFFFFFFFFFFFFFFFFFFFFFFFFFF AND MUL OR SWAP1 SSTORE POP PUSH2 0xCC9 CALLER DUP6 PUSH2 0x2072 JUMP JUMPDEST JUMPDEST PUSH1 0x1 PUSH1 0xC PUSH1 0x0 CALLER PUSH20 0xFFFFFFFFFFFFFFFFFFFFFFFFFFFFFFFFFFFFFFFF AND PUSH20 0xFFFFFFFFFFFFFFFFFFFFFFFFFFFFFFFFFFFFFFFF AND DUP2 MSTORE PUSH1 0x20 ADD SWAP1 DUP2 MSTORE PUSH1 0x20 ADD PUSH1 0x0 KECCAK256 PUSH1 0x8 ADD PUSH1 0x0 PUSH2 0x100 EXP DUP2 SLOAD DUP2 PUSH1 0xFF MUL NOT AND SWAP1 DUP4 ISZERO ISZERO MUL OR SWAP1 SSTORE POP PUSH1 0x1 SWAP2 POP POP SWAP3 SWAP2 POP POP JUMP JUMPDEST DUP1 PUSH1 0x5 DUP2 SWAP1 SSTORE POP POP JUMP JUMPDEST PUSH1 0x60 PUSH1 0x0 PUSH1 0xC PUSH1 0x0 CALLER PUSH20 0xFFFFFFFFFFFFFFFFFFFFFFFFFFFFFFFFFFFFFFFF AND PUSH20 0xFFFFFFFFFFFFFFFFFFFFFFFFFFFFFFFFFFFFFFFF AND DUP2 MSTORE PUSH1 0x20 ADD SWAP1 DUP2 MSTORE PUSH1 0x20 ADD PUSH1 0x0 KECCAK256 PUSH1 0x5 ADD SLOAD SWAP1 POP PUSH1 0x0 DUP1 PUSH1 0x0 JUMPDEST DUP4 DUP2 LT ISZERO PUSH2 0xE12 JUMPI PUSH1 0x0 PUSH1 0xC PUSH1 0x0 CALLER PUSH20 0xFFFFFFFFFFFFFFFFFFFFFFFFFFFFFFFFFFFFFFFF AND PUSH20 0xFFFFFFFFFFFFFFFFFFFFFFFFFFFFFFFFFFFFFFFF AND DUP2 MSTORE PUSH1 0x20 ADD SWAP1 DUP2 MSTORE PUSH1 0x20 ADD PUSH1 0x0 KECCAK256 PUSH1 0x0 ADD PUSH1 0x0 DUP4 DUP2 MSTORE PUSH1 0x20 ADD SWAP1 DUP2 MSTORE PUSH1 0x20 ADD PUSH1 0x0 KECCAK256 PUSH1 0x0 ADD SLOAD GT ISZERO PUSH2 0xDFF JUMPI DUP3 DUP1 PUSH2 0xDFB SWAP1 PUSH2 0x2DA9 JUMP JUMPDEST SWAP4 POP POP JUMPDEST DUP1 DUP1 PUSH2 0xE0A SWAP1 PUSH2 0x2DA9 JUMP JUMPDEST SWAP2 POP POP PUSH2 0xD89 JUMP JUMPDEST POP PUSH1 0x0 DUP3 PUSH8 0xFFFFFFFFFFFFFFFF DUP2 GT ISZERO PUSH2 0xE2F JUMPI PUSH2 0xE2E PUSH2 0x2E7F JUMP JUMPDEST JUMPDEST PUSH1 0x40 MLOAD SWAP1 DUP1 DUP3 MSTORE DUP1 PUSH1 0x20 MUL PUSH1 0x20 ADD DUP3 ADD PUSH1 0x40 MSTORE DUP1 ISZERO PUSH2 0xE68 JUMPI DUP2 PUSH1 0x20 ADD JUMPDEST PUSH2 0xE55 PUSH2 0x24E2 JUMP JUMPDEST DUP2 MSTORE PUSH1 0x20 ADD SWAP1 PUSH1 0x1 SWAP1 SUB SWAP1 DUP2 PUSH2 0xE4D JUMPI SWAP1 POP JUMPDEST POP SWAP1 POP PUSH1 0x0 JUMPDEST DUP5 DUP2 LT ISZERO PUSH2 0xFC0 JUMPI PUSH1 0x0 PUSH1 0xC PUSH1 0x0 CALLER PUSH20 0xFFFFFFFFFFFFFFFFFFFFFFFFFFFFFFFFFFFFFFFF AND PUSH20 0xFFFFFFFFFFFFFFFFFFFFFFFFFFFFFFFFFFFFFFFF AND DUP2 MSTORE PUSH1 0x20 ADD SWAP1 DUP2 MSTORE PUSH1 0x20 ADD PUSH1 0x0 KECCAK256 PUSH1 0x0 ADD PUSH1 0x0 DUP4 DUP2 MSTORE PUSH1 0x20 ADD SWAP1 DUP2 MSTORE PUSH1 0x20 ADD PUSH1 0x0 KECCAK256 PUSH1 0x0 ADD SLOAD GT ISZERO PUSH2 0xFAD JUMPI PUSH1 0xC PUSH1 0x0 CALLER PUSH20 0xFFFFFFFFFFFFFFFFFFFFFFFFFFFFFFFFFFFFFFFF AND PUSH20 0xFFFFFFFFFFFFFFFFFFFFFFFFFFFFFFFFFFFFFFFF AND DUP2 MSTORE PUSH1 0x20 ADD SWAP1 DUP2 MSTORE PUSH1 0x20 ADD PUSH1 0x0 KECCAK256 PUSH1 0x0 ADD PUSH1 0x0 DUP3 DUP2 MSTORE PUSH1 0x20 ADD SWAP1 DUP2 MSTORE PUSH1 0x20 ADD PUSH1 0x0 KECCAK256 PUSH1 0x40 MLOAD DUP1 PUSH1 0xC0 ADD PUSH1 0x40 MSTORE SWAP1 DUP2 PUSH1 0x0 DUP3 ADD SLOAD DUP2 MSTORE PUSH1 0x20 ADD PUSH1 0x1 DUP3 ADD SLOAD DUP2 MSTORE PUSH1 0x20 ADD PUSH1 0x2 DUP3 ADD SLOAD DUP2 MSTORE PUSH1 0x20 ADD PUSH1 0x3 DUP3 ADD SLOAD DUP2 MSTORE PUSH1 0x20 ADD PUSH1 0x4 DUP3 ADD SLOAD DUP2 MSTORE PUSH1 0x20 ADD PUSH1 0x5 DUP3 ADD PUSH1 0x0 SWAP1 SLOAD SWAP1 PUSH2 0x100 EXP SWAP1 DIV PUSH1 0xFF AND ISZERO ISZERO ISZERO ISZERO DUP2 MSTORE POP POP DUP3 DUP5 DUP2 MLOAD DUP2 LT PUSH2 0xF93 JUMPI PUSH2 0xF92 PUSH2 0x2E50 JUMP JUMPDEST JUMPDEST PUSH1 0x20 MUL PUSH1 0x20 ADD ADD DUP2 SWAP1 MSTORE POP DUP3 DUP1 PUSH2 0xFA9 SWAP1 PUSH2 0x2DA9 JUMP JUMPDEST SWAP4 POP POP JUMPDEST DUP1 DUP1 PUSH2 0xFB8 SWAP1 PUSH2 0x2DA9 JUMP JUMPDEST SWAP2 POP POP PUSH2 0xE6E JUMP JUMPDEST POP DUP1 SWAP5 POP POP POP POP POP SWAP1 JUMP JUMPDEST PUSH1 0x0 DUP1 PUSH1 0x0 DUP1 PUSH1 0x0 PUSH1 0xC PUSH1 0x0 CALLER PUSH20 0xFFFFFFFFFFFFFFFFFFFFFFFFFFFFFFFFFFFFFFFF AND PUSH20 0xFFFFFFFFFFFFFFFFFFFFFFFFFFFFFFFFFFFFFFFF AND DUP2 MSTORE PUSH1 0x20 ADD SWAP1 DUP2 MSTORE PUSH1 0x20 ADD PUSH1 0x0 KECCAK256 PUSH1 0x5 ADD SLOAD SWAP1 POP PUSH1 0x0 JUMPDEST DUP2 DUP2 LT ISZERO PUSH2 0x1266 JUMPI PUSH1 0xC PUSH1 0x0 CALLER PUSH20 0xFFFFFFFFFFFFFFFFFFFFFFFFFFFFFFFFFFFFFFFF AND PUSH20 0xFFFFFFFFFFFFFFFFFFFFFFFFFFFFFFFFFFFFFFFF AND DUP2 MSTORE PUSH1 0x20 ADD SWAP1 DUP2 MSTORE PUSH1 0x20 ADD PUSH1 0x0 KECCAK256 PUSH1 0x0 ADD PUSH1 0x0 DUP3 DUP2 MSTORE PUSH1 0x20 ADD SWAP1 DUP2 MSTORE PUSH1 0x20 ADD PUSH1 0x0 KECCAK256 PUSH1 0x5 ADD PUSH1 0x0 SWAP1 SLOAD SWAP1 PUSH2 0x100 EXP SWAP1 DIV PUSH1 0xFF AND PUSH2 0x10F4 JUMPI PUSH1 0xC PUSH1 0x0 CALLER PUSH20 0xFFFFFFFFFFFFFFFFFFFFFFFFFFFFFFFFFFFFFFFF AND PUSH20 0xFFFFFFFFFFFFFFFFFFFFFFFFFFFFFFFFFFFFFFFF AND DUP2 MSTORE PUSH1 0x20 ADD SWAP1 DUP2 MSTORE PUSH1 0x20 ADD PUSH1 0x0 KECCAK256 PUSH1 0x0 ADD PUSH1 0x0 DUP3 DUP2 MSTORE PUSH1 0x20 ADD SWAP1 DUP2 MSTORE PUSH1 0x20 ADD PUSH1 0x0 KECCAK256 PUSH1 0x2 ADD SLOAD TIMESTAMP PUSH2 0x10ED SWAP2 SWAP1 PUSH2 0x2D2D JUMP JUMPDEST SWAP4 POP PUSH2 0x11AF JUMP JUMPDEST PUSH1 0xC PUSH1 0x0 CALLER PUSH20 0xFFFFFFFFFFFFFFFFFFFFFFFFFFFFFFFFFFFFFFFF AND PUSH20 0xFFFFFFFFFFFFFFFFFFFFFFFFFFFFFFFFFFFFFFFF AND DUP2 MSTORE PUSH1 0x20 ADD SWAP1 DUP2 MSTORE PUSH1 0x20 ADD PUSH1 0x0 KECCAK256 PUSH1 0x0 ADD PUSH1 0x0 DUP3 DUP2 MSTORE PUSH1 0x20 ADD SWAP1 DUP2 MSTORE PUSH1 0x20 ADD PUSH1 0x0 KECCAK256 PUSH1 0x2 ADD SLOAD PUSH1 0xC PUSH1 0x0 CALLER PUSH20 0xFFFFFFFFFFFFFFFFFFFFFFFFFFFFFFFFFFFFFFFF AND PUSH20 0xFFFFFFFFFFFFFFFFFFFFFFFFFFFFFFFFFFFFFFFF AND DUP2 MSTORE PUSH1 0x20 ADD SWAP1 DUP2 MSTORE PUSH1 0x20 ADD PUSH1 0x0 KECCAK256 PUSH1 0x0 ADD PUSH1 0x0 DUP4 DUP2 MSTORE PUSH1 0x20 ADD SWAP1 DUP2 MSTORE PUSH1 0x20 ADD PUSH1 0x0 KECCAK256 PUSH1 0x4 ADD SLOAD PUSH2 0x11AC SWAP2 SWAP1 PUSH2 0x2D2D JUMP JUMPDEST SWAP4 POP JUMPDEST PUSH1 0x3C DUP5 PUSH2 0x11BC SWAP2 SWAP1 PUSH2 0x2CA2 JUMP JUMPDEST SWAP4 POP PUSH1 0x0 DUP5 GT ISZERO PUSH2 0x1253 JUMPI PUSH2 0x2710 PUSH1 0x32 PUSH1 0xC PUSH1 0x0 CALLER PUSH20 0xFFFFFFFFFFFFFFFFFFFFFFFFFFFFFFFFFFFFFFFF AND PUSH20 0xFFFFFFFFFFFFFFFFFFFFFFFFFFFFFFFFFFFFFFFF AND DUP2 MSTORE PUSH1 0x20 ADD SWAP1 DUP2 MSTORE PUSH1 0x20 ADD PUSH1 0x0 KECCAK256 PUSH1 0x0 ADD PUSH1 0x0 DUP5 DUP2 MSTORE PUSH1 0x20 ADD SWAP1 DUP2 MSTORE PUSH1 0x20 ADD PUSH1 0x0 KECCAK256 PUSH1 0x0 ADD SLOAD PUSH2 0x122D SWAP2 SWAP1 PUSH2 0x2CD3 JUMP JUMPDEST PUSH2 0x1237 SWAP2 SWAP1 PUSH2 0x2CA2 JUMP JUMPDEST SWAP3 POP DUP3 DUP5 PUSH2 0x1245 SWAP2 SWAP1 PUSH2 0x2CD3 JUMP JUMPDEST DUP6 PUSH2 0x1250 SWAP2 SWAP1 PUSH2 0x2C4C JUMP JUMPDEST SWAP5 POP JUMPDEST DUP1 DUP1 PUSH2 0x125E SWAP1 PUSH2 0x2DA9 JUMP JUMPDEST SWAP2 POP POP PUSH2 0x101B JUMP JUMPDEST POP PUSH1 0xC PUSH1 0x0 CALLER PUSH20 0xFFFFFFFFFFFFFFFFFFFFFFFFFFFFFFFFFFFFFFFF AND PUSH20 0xFFFFFFFFFFFFFFFFFFFFFFFFFFFFFFFFFFFFFFFF AND DUP2 MSTORE PUSH1 0x20 ADD SWAP1 DUP2 MSTORE PUSH1 0x20 ADD PUSH1 0x0 KECCAK256 PUSH1 0x7 ADD SLOAD DUP5 PUSH2 0x12B5 SWAP2 SWAP1 PUSH2 0x2D2D JUMP JUMPDEST SWAP4 POP DUP4 SWAP5 POP POP POP POP POP SWAP1 JUMP JUMPDEST PUSH1 0x0 DUP1 PUSH1 0x0 SWAP1 POP JUMPDEST PUSH1 0x3 SLOAD DUP2 LT ISZERO PUSH2 0x12E6 JUMPI DUP1 DUP1 PUSH2 0x12DE SWAP1 PUSH2 0x2DA9 JUMP JUMPDEST SWAP2 POP POP PUSH2 0x12C9 JUMP JUMPDEST POP SWAP1 JUMP JUMPDEST DUP3 PUSH1 0x6 DUP2 SWAP1 SSTORE POP DUP4 PUSH1 0x5 DUP2 SWAP1 SSTORE POP DUP2 PUSH1 0x4 DUP2 SWAP1 SSTORE POP DUP1 PUSH1 0x7 DUP2 SWAP1 SSTORE POP POP POP POP POP JUMP JUMPDEST DUP1 PUSH1 0x6 DUP2 SWAP1 SSTORE POP POP JUMP JUMPDEST PUSH1 0xB PUSH1 0x20 MSTORE DUP1 PUSH1 0x0 MSTORE PUSH1 0x40 PUSH1 0x0 KECCAK256 PUSH1 0x0 SWAP2 POP SLOAD SWAP1 PUSH2 0x100 EXP SWAP1 DIV PUSH20 0xFFFFFFFFFFFFFFFFFFFFFFFFFFFFFFFFFFFFFFFF AND DUP2 JUMP JUMPDEST PUSH1 0x8 SLOAD DUP2 JUMP JUMPDEST PUSH1 0x0 DUP1 PUSH1 0xC PUSH1 0x0 CALLER PUSH20 0xFFFFFFFFFFFFFFFFFFFFFFFFFFFFFFFFFFFFFFFF AND PUSH20 0xFFFFFFFFFFFFFFFFFFFFFFFFFFFFFFFFFFFFFFFF AND DUP2 MSTORE PUSH1 0x20 ADD SWAP1 DUP2 MSTORE PUSH1 0x20 ADD PUSH1 0x0 KECCAK256 PUSH1 0x6 ADD SLOAD GT PUSH2 0x13D5 JUMPI PUSH1 0x40 MLOAD PUSH32 0x8C379A000000000000000000000000000000000000000000000000000000000 DUP2 MSTORE PUSH1 0x4 ADD PUSH2 0x13CC SWAP1 PUSH2 0x2AF5 JUMP JUMPDEST PUSH1 0x40 MLOAD DUP1 SWAP2 SUB SWAP1 REVERT JUMPDEST PUSH1 0x0 PUSH1 0xC PUSH1 0x0 CALLER PUSH20 0xFFFFFFFFFFFFFFFFFFFFFFFFFFFFFFFFFFFFFFFF AND PUSH20 0xFFFFFFFFFFFFFFFFFFFFFFFFFFFFFFFFFFFFFFFF AND DUP2 MSTORE PUSH1 0x20 ADD SWAP1 DUP2 MSTORE PUSH1 0x20 ADD PUSH1 0x0 KECCAK256 PUSH1 0x6 ADD SLOAD SWAP1 POP PUSH1 0x0 PUSH1 0xC PUSH1 0x0 CALLER PUSH20 0xFFFFFFFFFFFFFFFFFFFFFFFFFFFFFFFFFFFFFFFF AND PUSH20 0xFFFFFFFFFFFFFFFFFFFFFFFFFFFFFFFFFFFFFFFF AND DUP2 MSTORE PUSH1 0x20 ADD SWAP1 DUP2 MSTORE PUSH1 0x20 ADD PUSH1 0x0 KECCAK256 PUSH1 0x5 ADD SLOAD SWAP1 POP PUSH1 0x0 PUSH1 0xA SLOAD SWAP1 POP PUSH1 0x0 DUP1 TIMESTAMP PUSH1 0xC PUSH1 0x0 CALLER PUSH20 0xFFFFFFFFFFFFFFFFFFFFFFFFFFFFFFFFFFFFFFFF AND PUSH20 0xFFFFFFFFFFFFFFFFFFFFFFFFFFFFFFFFFFFFFFFF AND DUP2 MSTORE PUSH1 0x20 ADD SWAP1 DUP2 MSTORE PUSH1 0x20 ADD PUSH1 0x0 KECCAK256 PUSH1 0x9 ADD SLOAD GT ISZERO PUSH2 0x1690 JUMPI PUSH1 0x64 PUSH1 0x1E DUP7 PUSH2 0x14C6 SWAP2 SWAP1 PUSH2 0x2CD3 JUMP JUMPDEST PUSH2 0x14D0 SWAP2 SWAP1 PUSH2 0x2CA2 JUMP JUMPDEST SWAP2 POP PUSH1 0x64 PUSH1 0x46 DUP7 PUSH2 0x14E1 SWAP2 SWAP1 PUSH2 0x2CD3 JUMP JUMPDEST PUSH2 0x14EB SWAP2 SWAP1 PUSH2 0x2CA2 JUMP JUMPDEST SWAP1 POP PUSH1 0x1 PUSH1 0x0 SWAP1 SLOAD SWAP1 PUSH2 0x100 EXP SWAP1 DIV PUSH20 0xFFFFFFFFFFFFFFFFFFFFFFFFFFFFFFFFFFFFFFFF AND PUSH20 0xFFFFFFFFFFFFFFFFFFFFFFFFFFFFFFFFFFFFFFFF AND PUSH4 0xA9059CBB CALLER PUSH4 0x5F5E100 DUP6 PUSH2 0x153C SWAP2 SWAP1 PUSH2 0x2CD3 JUMP JUMPDEST PUSH1 0x40 MLOAD DUP4 PUSH4 0xFFFFFFFF AND PUSH1 0xE0 SHL DUP2 MSTORE PUSH1 0x4 ADD PUSH2 0x1559 SWAP3 SWAP2 SWAP1 PUSH2 0x29DC JUMP JUMPDEST PUSH1 0x20 PUSH1 0x40 MLOAD DUP1 DUP4 SUB DUP2 PUSH1 0x0 DUP8 DUP1 EXTCODESIZE ISZERO DUP1 ISZERO PUSH2 0x1573 JUMPI PUSH1 0x0 DUP1 REVERT JUMPDEST POP GAS CALL ISZERO DUP1 ISZERO PUSH2 0x1587 JUMPI RETURNDATASIZE PUSH1 0x0 DUP1 RETURNDATACOPY RETURNDATASIZE PUSH1 0x0 REVERT JUMPDEST POP POP POP POP PUSH1 0x40 MLOAD RETURNDATASIZE PUSH1 0x1F NOT PUSH1 0x1F DUP3 ADD AND DUP3 ADD DUP1 PUSH1 0x40 MSTORE POP DUP2 ADD SWAP1 PUSH2 0x15AB SWAP2 SWAP1 PUSH2 0x2586 JUMP JUMPDEST POP PUSH1 0x1 PUSH1 0x0 SWAP1 SLOAD SWAP1 PUSH2 0x100 EXP SWAP1 DIV PUSH20 0xFFFFFFFFFFFFFFFFFFFFFFFFFFFFFFFFFFFFFFFF AND PUSH20 0xFFFFFFFFFFFFFFFFFFFFFFFFFFFFFFFFFFFFFFFF AND PUSH4 0xA9059CBB PUSH1 0x0 DUP1 SLOAD SWAP1 PUSH2 0x100 EXP SWAP1 DIV PUSH20 0xFFFFFFFFFFFFFFFFFFFFFFFFFFFFFFFFFFFFFFFF AND PUSH4 0x5F5E100 DUP5 PUSH2 0x161B SWAP2 SWAP1 PUSH2 0x2CD3 JUMP JUMPDEST PUSH1 0x40 MLOAD DUP4 PUSH4 0xFFFFFFFF AND PUSH1 0xE0 SHL DUP2 MSTORE PUSH1 0x4 ADD PUSH2 0x1638 SWAP3 SWAP2 SWAP1 PUSH2 0x29DC JUMP JUMPDEST PUSH1 0x20 PUSH1 0x40 MLOAD DUP1 DUP4 SUB DUP2 PUSH1 0x0 DUP8 DUP1 EXTCODESIZE ISZERO DUP1 ISZERO PUSH2 0x1652 JUMPI PUSH1 0x0 DUP1 REVERT JUMPDEST POP GAS CALL ISZERO DUP1 ISZERO PUSH2 0x1666 JUMPI RETURNDATASIZE PUSH1 0x0 DUP1 RETURNDATACOPY RETURNDATASIZE PUSH1 0x0 REVERT JUMPDEST POP POP POP POP PUSH1 0x40 MLOAD RETURNDATASIZE PUSH1 0x1F NOT PUSH1 0x1F DUP3 ADD AND DUP3 ADD DUP1 PUSH1 0x40 MSTORE POP DUP2 ADD SWAP1 PUSH2 0x168A SWAP2 SWAP1 PUSH2 0x2586 JUMP JUMPDEST POP PUSH2 0x1750 JUMP JUMPDEST PUSH1 0x1 PUSH1 0x0 SWAP1 SLOAD SWAP1 PUSH2 0x100 EXP SWAP1 DIV PUSH20 0xFFFFFFFFFFFFFFFFFFFFFFFFFFFFFFFFFFFFFFFF AND PUSH20 0xFFFFFFFFFFFFFFFFFFFFFFFFFFFFFFFFFFFFFFFF AND PUSH4 0xA9059CBB CALLER PUSH4 0x5F5E100 DUP9 PUSH2 0x16DF SWAP2 SWAP1 PUSH2 0x2CD3 JUMP JUMPDEST PUSH1 0x40 MLOAD DUP4 PUSH4 0xFFFFFFFF AND PUSH1 0xE0 SHL DUP2 MSTORE PUSH1 0x4 ADD PUSH2 0x16FC SWAP3 SWAP2 SWAP1 PUSH2 0x29DC JUMP JUMPDEST PUSH1 0x20 PUSH1 0x40 MLOAD DUP1 DUP4 SUB DUP2 PUSH1 0x0 DUP8 DUP1 EXTCODESIZE ISZERO DUP1 ISZERO PUSH2 0x1716 JUMPI PUSH1 0x0 DUP1 REVERT JUMPDEST POP GAS CALL ISZERO DUP1 ISZERO PUSH2 0x172A JUMPI RETURNDATASIZE PUSH1 0x0 DUP1 RETURNDATACOPY RETURNDATASIZE PUSH1 0x0 REVERT JUMPDEST POP POP POP POP PUSH1 0x40 MLOAD RETURNDATASIZE PUSH1 0x1F NOT PUSH1 0x1F DUP3 ADD AND DUP3 ADD DUP1 PUSH1 0x40 MSTORE POP DUP2 ADD SWAP1 PUSH2 0x174E SWAP2 SWAP1 PUSH2 0x2586 JUMP JUMPDEST POP JUMPDEST PUSH1 0x0 SWAP3 POP JUMPDEST DUP4 DUP4 LT ISZERO PUSH2 0x183A JUMPI PUSH1 0x1 PUSH1 0xC PUSH1 0x0 CALLER PUSH20 0xFFFFFFFFFFFFFFFFFFFFFFFFFFFFFFFFFFFFFFFF AND PUSH20 0xFFFFFFFFFFFFFFFFFFFFFFFFFFFFFFFFFFFFFFFF AND DUP2 MSTORE PUSH1 0x20 ADD SWAP1 DUP2 MSTORE PUSH1 0x20 ADD PUSH1 0x0 KECCAK256 PUSH1 0x0 ADD PUSH1 0x0 DUP6 DUP2 MSTORE PUSH1 0x20 ADD SWAP1 DUP2 MSTORE PUSH1 0x20 ADD PUSH1 0x0 KECCAK256 PUSH1 0x5 ADD PUSH1 0x0 PUSH2 0x100 EXP DUP2 SLOAD DUP2 PUSH1 0xFF MUL NOT AND SWAP1 DUP4 ISZERO ISZERO MUL OR SWAP1 SSTORE POP TIMESTAMP PUSH1 0xC PUSH1 0x0 CALLER PUSH20 0xFFFFFFFFFFFFFFFFFFFFFFFFFFFFFFFFFFFFFFFF AND PUSH20 0xFFFFFFFFFFFFFFFFFFFFFFFFFFFFFFFFFFFFFFFF AND DUP2 MSTORE PUSH1 0x20 ADD SWAP1 DUP2 MSTORE PUSH1 0x20 ADD PUSH1 0x0 KECCAK256 PUSH1 0x0 ADD PUSH1 0x0 DUP6 DUP2 MSTORE PUSH1 0x20 ADD SWAP1 DUP2 MSTORE PUSH1 0x20 ADD PUSH1 0x0 KECCAK256 PUSH1 0x4 ADD DUP2 SWAP1 SSTORE POP DUP3 DUP1 PUSH2 0x1832 SWAP1 PUSH2 0x2DA9 JUMP JUMPDEST SWAP4 POP POP PUSH2 0x1755 JUMP JUMPDEST PUSH1 0xC PUSH1 0x0 CALLER PUSH20 0xFFFFFFFFFFFFFFFFFFFFFFFFFFFFFFFFFFFFFFFF AND PUSH20 0xFFFFFFFFFFFFFFFFFFFFFFFFFFFFFFFFFFFFFFFF AND DUP2 MSTORE PUSH1 0x20 ADD SWAP1 DUP2 MSTORE PUSH1 0x20 ADD PUSH1 0x0 KECCAK256 PUSH1 0x5 ADD SLOAD PUSH1 0xA DUP2 SWAP1 SSTORE POP PUSH1 0x0 PUSH1 0xC PUSH1 0x0 CALLER PUSH20 0xFFFFFFFFFFFFFFFFFFFFFFFFFFFFFFFFFFFFFFFF AND PUSH20 0xFFFFFFFFFFFFFFFFFFFFFFFFFFFFFFFFFFFFFFFF AND DUP2 MSTORE PUSH1 0x20 ADD SWAP1 DUP2 MSTORE PUSH1 0x20 ADD PUSH1 0x0 KECCAK256 PUSH1 0x6 ADD DUP2 SWAP1 SSTORE POP PUSH1 0x1 SWAP6 POP POP POP POP POP POP SWAP1 JUMP JUMPDEST PUSH1 0x0 DUP1 SLOAD SWAP1 PUSH2 0x100 EXP SWAP1 DIV PUSH20 0xFFFFFFFFFFFFFFFFFFFFFFFFFFFFFFFFFFFFFFFF AND DUP2 JUMP JUMPDEST PUSH1 0x0 PUSH1 0xC PUSH1 0x0 CALLER PUSH20 0xFFFFFFFFFFFFFFFFFFFFFFFFFFFFFFFFFFFFFFFF AND PUSH20 0xFFFFFFFFFFFFFFFFFFFFFFFFFFFFFFFFFFFFFFFF AND DUP2 MSTORE PUSH1 0x20 ADD SWAP1 DUP2 MSTORE PUSH1 0x20 ADD PUSH1 0x0 KECCAK256 PUSH1 0x6 ADD SLOAD SWAP1 POP SWAP1 JUMP JUMPDEST PUSH1 0x7 SLOAD DUP2 JUMP JUMPDEST DUP2 PUSH1 0x4 DUP2 SWAP1 SSTORE POP DUP1 PUSH1 0x7 DUP2 SWAP1 SSTORE POP POP POP JUMP JUMPDEST PUSH1 0x60 PUSH1 0x0 PUSH1 0x14 PUSH8 0xFFFFFFFFFFFFFFFF DUP2 GT ISZERO PUSH2 0x197C JUMPI PUSH2 0x197B PUSH2 0x2E7F JUMP JUMPDEST JUMPDEST PUSH1 0x40 MLOAD SWAP1 DUP1 DUP3 MSTORE DUP1 PUSH1 0x20 MUL PUSH1 0x20 ADD DUP3 ADD PUSH1 0x40 MSTORE DUP1 ISZERO PUSH2 0x19AA JUMPI DUP2 PUSH1 0x20 ADD PUSH1 0x20 DUP3 MUL DUP1 CALLDATASIZE DUP4 CALLDATACOPY DUP1 DUP3 ADD SWAP2 POP POP SWAP1 POP JUMPDEST POP SWAP1 POP PUSH1 0x0 JUMPDEST PUSH1 0x14 DUP2 LT ISZERO PUSH2 0x1AC8 JUMPI PUSH1 0x0 PUSH1 0xC PUSH1 0x0 CALLER PUSH20 0xFFFFFFFFFFFFFFFFFFFFFFFFFFFFFFFFFFFFFFFF AND PUSH20 0xFFFFFFFFFFFFFFFFFFFFFFFFFFFFFFFFFFFFFFFF AND DUP2 MSTORE PUSH1 0x20 ADD SWAP1 DUP2 MSTORE PUSH1 0x20 ADD PUSH1 0x0 KECCAK256 PUSH1 0x3 ADD PUSH1 0x0 DUP4 DUP2 MSTORE PUSH1 0x20 ADD SWAP1 DUP2 MSTORE PUSH1 0x20 ADD PUSH1 0x0 KECCAK256 PUSH1 0x0 ADD SLOAD GT ISZERO PUSH2 0x1A93 JUMPI PUSH1 0xC PUSH1 0x0 CALLER PUSH20 0xFFFFFFFFFFFFFFFFFFFFFFFFFFFFFFFFFFFFFFFF AND PUSH20 0xFFFFFFFFFFFFFFFFFFFFFFFFFFFFFFFFFFFFFFFF AND DUP2 MSTORE PUSH1 0x20 ADD SWAP1 DUP2 MSTORE PUSH1 0x20 ADD PUSH1 0x0 KECCAK256 PUSH1 0x3 ADD PUSH1 0x0 DUP3 DUP2 MSTORE PUSH1 0x20 ADD SWAP1 DUP2 MSTORE PUSH1 0x20 ADD PUSH1 0x0 KECCAK256 PUSH1 0x0 ADD SLOAD DUP3 DUP3 DUP2 MLOAD DUP2 LT PUSH2 0x1A82 JUMPI PUSH2 0x1A81 PUSH2 0x2E50 JUMP JUMPDEST JUMPDEST PUSH1 0x20 MUL PUSH1 0x20 ADD ADD DUP2 DUP2 MSTORE POP POP PUSH2 0x1AB5 JUMP JUMPDEST PUSH1 0x0 DUP3 DUP3 DUP2 MLOAD DUP2 LT PUSH2 0x1AA8 JUMPI PUSH2 0x1AA7 PUSH2 0x2E50 JUMP JUMPDEST JUMPDEST PUSH1 0x20 MUL PUSH1 0x20 ADD ADD DUP2 DUP2 MSTORE POP POP JUMPDEST DUP1 DUP1 PUSH2 0x1AC0 SWAP1 PUSH2 0x2DA9 JUMP JUMPDEST SWAP2 POP POP PUSH2 0x19B0 JUMP JUMPDEST POP DUP1 SWAP2 POP POP SWAP1 JUMP JUMPDEST PUSH1 0x5 SLOAD DUP2 JUMP JUMPDEST PUSH1 0x0 DUP1 PUSH2 0x1AE1 PUSH2 0xFCB JUMP JUMPDEST SWAP1 POP PUSH1 0x0 DUP2 GT PUSH2 0x1B26 JUMPI PUSH1 0x40 MLOAD PUSH32 0x8C379A000000000000000000000000000000000000000000000000000000000 DUP2 MSTORE PUSH1 0x4 ADD PUSH2 0x1B1D SWAP1 PUSH2 0x2B35 JUMP JUMPDEST PUSH1 0x40 MLOAD DUP1 SWAP2 SUB SWAP1 REVERT JUMPDEST PUSH1 0x0 PUSH1 0x64 PUSH1 0x15 DUP4 PUSH2 0x1B37 SWAP2 SWAP1 PUSH2 0x2CD3 JUMP JUMPDEST PUSH2 0x1B41 SWAP2 SWAP1 PUSH2 0x2CA2 JUMP JUMPDEST SWAP1 POP PUSH1 0x0 PUSH1 0xC PUSH1 0x0 CALLER PUSH20 0xFFFFFFFFFFFFFFFFFFFFFFFFFFFFFFFFFFFFFFFF AND PUSH20 0xFFFFFFFFFFFFFFFFFFFFFFFFFFFFFFFFFFFFFFFF AND DUP2 MSTORE PUSH1 0x20 ADD SWAP1 DUP2 MSTORE PUSH1 0x20 ADD PUSH1 0x0 KECCAK256 PUSH1 0x2 ADD PUSH1 0x0 SWAP1 SLOAD SWAP1 PUSH2 0x100 EXP SWAP1 DIV PUSH20 0xFFFFFFFFFFFFFFFFFFFFFFFFFFFFFFFFFFFFFFFF AND SWAP1 POP PUSH1 0x0 PUSH20 0xFFFFFFFFFFFFFFFFFFFFFFFFFFFFFFFFFFFFFFFF AND DUP2 PUSH20 0xFFFFFFFFFFFFFFFFFFFFFFFFFFFFFFFFFFFFFFFF AND EQ PUSH2 0x1C8F JUMPI PUSH1 0x2 PUSH1 0x0 SWAP1 SLOAD SWAP1 PUSH2 0x100 EXP SWAP1 DIV PUSH20 0xFFFFFFFFFFFFFFFFFFFFFFFFFFFFFFFFFFFFFFFF AND PUSH20 0xFFFFFFFFFFFFFFFFFFFFFFFFFFFFFFFFFFFFFFFF AND PUSH4 0xA9059CBB DUP3 DUP5 PUSH1 0x40 MLOAD DUP4 PUSH4 0xFFFFFFFF AND PUSH1 0xE0 SHL DUP2 MSTORE PUSH1 0x4 ADD PUSH2 0x1C3B SWAP3 SWAP2 SWAP1 PUSH2 0x29DC JUMP JUMPDEST PUSH1 0x20 PUSH1 0x40 MLOAD DUP1 DUP4 SUB DUP2 PUSH1 0x0 DUP8 DUP1 EXTCODESIZE ISZERO DUP1 ISZERO PUSH2 0x1C55 JUMPI PUSH1 0x0 DUP1 REVERT JUMPDEST POP GAS CALL ISZERO DUP1 ISZERO PUSH2 0x1C69 JUMPI RETURNDATASIZE PUSH1 0x0 DUP1 RETURNDATACOPY RETURNDATASIZE PUSH1 0x0 REVERT JUMPDEST POP POP POP POP PUSH1 0x40 MLOAD RETURNDATASIZE PUSH1 0x1F NOT PUSH1 0x1F DUP3 ADD AND DUP3 ADD DUP1 PUSH1 0x40 MSTORE POP DUP2 ADD SWAP1 PUSH2 0x1C8D SWAP2 SWAP1 PUSH2 0x2586 JUMP JUMPDEST POP JUMPDEST PUSH1 0x2 PUSH1 0x0 SWAP1 SLOAD SWAP1 PUSH2 0x100 EXP SWAP1 DIV PUSH20 0xFFFFFFFFFFFFFFFFFFFFFFFFFFFFFFFFFFFFFFFF AND PUSH20 0xFFFFFFFFFFFFFFFFFFFFFFFFFFFFFFFFFFFFFFFF AND PUSH4 0xA9059CBB CALLER DUP5 DUP7 PUSH2 0x1CDA SWAP2 SWAP1 PUSH2 0x2D2D JUMP JUMPDEST PUSH1 0x40 MLOAD DUP4 PUSH4 0xFFFFFFFF AND PUSH1 0xE0 SHL DUP2 MSTORE PUSH1 0x4 ADD PUSH2 0x1CF7 SWAP3 SWAP2 SWAP1 PUSH2 0x29DC JUMP JUMPDEST PUSH1 0x20 PUSH1 0x40 MLOAD DUP1 DUP4 SUB DUP2 PUSH1 0x0 DUP8 DUP1 EXTCODESIZE ISZERO DUP1 ISZERO PUSH2 0x1D11 JUMPI PUSH1 0x0 DUP1 REVERT JUMPDEST POP GAS CALL ISZERO DUP1 ISZERO PUSH2 0x1D25 JUMPI RETURNDATASIZE PUSH1 0x0 DUP1 RETURNDATACOPY RETURNDATASIZE PUSH1 0x0 REVERT JUMPDEST POP POP POP POP PUSH1 0x40 MLOAD RETURNDATASIZE PUSH1 0x1F NOT PUSH1 0x1F DUP3 ADD AND DUP3 ADD DUP1 PUSH1 0x40 MSTORE POP DUP2 ADD SWAP1 PUSH2 0x1D49 SWAP2 SWAP1 PUSH2 0x2586 JUMP JUMPDEST POP DUP3 PUSH1 0xC PUSH1 0x0 CALLER PUSH20 0xFFFFFFFFFFFFFFFFFFFFFFFFFFFFFFFFFFFFFFFF AND PUSH20 0xFFFFFFFFFFFFFFFFFFFFFFFFFFFFFFFFFFFFFFFF AND DUP2 MSTORE PUSH1 0x20 ADD SWAP1 DUP2 MSTORE PUSH1 0x20 ADD PUSH1 0x0 KECCAK256 PUSH1 0x7 ADD PUSH1 0x0 DUP3 DUP3 SLOAD PUSH2 0x1D9C SWAP2 SWAP1 PUSH2 0x2C4C JUMP JUMPDEST SWAP3 POP POP DUP2 SWAP1 SSTORE POP PUSH1 0x1 SWAP4 POP POP POP POP SWAP1 JUMP JUMPDEST PUSH1 0xC PUSH1 0x20 MSTORE DUP1 PUSH1 0x0 MSTORE PUSH1 0x40 PUSH1 0x0 KECCAK256 PUSH1 0x0 SWAP2 POP SWAP1 POP DUP1 PUSH1 0x2 ADD PUSH1 0x0 SWAP1 SLOAD SWAP1 PUSH2 0x100 EXP SWAP1 DIV PUSH20 0xFFFFFFFFFFFFFFFFFFFFFFFFFFFFFFFFFFFFFFFF AND SWAP1 DUP1 PUSH1 0x4 ADD SLOAD SWAP1 DUP1 PUSH1 0x5 ADD SLOAD SWAP1 DUP1 PUSH1 0x6 ADD SLOAD SWAP1 DUP1 PUSH1 0x7 ADD SLOAD SWAP1 DUP1 PUSH1 0x8 ADD PUSH1 0x0 SWAP1 SLOAD SWAP1 PUSH2 0x100 EXP SWAP1 DIV PUSH1 0xFF AND SWAP1 DUP1 PUSH1 0x9 ADD SLOAD SWAP1 POP DUP8 JUMP JUMPDEST PUSH1 0x9 SLOAD DUP2 JUMP JUMPDEST PUSH1 0x0 DUP1 SLOAD SWAP1 PUSH2 0x100 EXP SWAP1 DIV PUSH20 0xFFFFFFFFFFFFFFFFFFFFFFFFFFFFFFFFFFFFFFFF AND PUSH20 0xFFFFFFFFFFFFFFFFFFFFFFFFFFFFFFFFFFFFFFFF AND CALLER PUSH20 0xFFFFFFFFFFFFFFFFFFFFFFFFFFFFFFFFFFFFFFFF AND EQ PUSH2 0x1EB0 JUMPI PUSH1 0x40 MLOAD PUSH32 0x8C379A000000000000000000000000000000000000000000000000000000000 DUP2 MSTORE PUSH1 0x4 ADD PUSH2 0x1EA7 SWAP1 PUSH2 0x2B55 JUMP JUMPDEST PUSH1 0x40 MLOAD DUP1 SWAP2 SUB SWAP1 REVERT JUMPDEST DUP1 PUSH1 0x0 DUP1 PUSH2 0x100 EXP DUP2 SLOAD DUP2 PUSH20 0xFFFFFFFFFFFFFFFFFFFFFFFFFFFFFFFFFFFFFFFF MUL NOT AND SWAP1 DUP4 PUSH20 0xFFFFFFFFFFFFFFFFFFFFFFFFFFFFFFFFFFFFFFFF AND MUL OR SWAP1 SSTORE POP POP JUMP JUMPDEST PUSH1 0x60 PUSH1 0x0 PUSH1 0x14 PUSH8 0xFFFFFFFFFFFFFFFF DUP2 GT ISZERO PUSH2 0x1F12 JUMPI PUSH2 0x1F11 PUSH2 0x2E7F JUMP JUMPDEST JUMPDEST PUSH1 0x40 MLOAD SWAP1 DUP1 DUP3 MSTORE DUP1 PUSH1 0x20 MUL PUSH1 0x20 ADD DUP3 ADD PUSH1 0x40 MSTORE DUP1 ISZERO PUSH2 0x1F40 JUMPI DUP2 PUSH1 0x20 ADD PUSH1 0x20 DUP3 MUL DUP1 CALLDATASIZE DUP4 CALLDATACOPY DUP1 DUP3 ADD SWAP2 POP POP SWAP1 POP JUMPDEST POP SWAP1 POP PUSH1 0x0 JUMPDEST PUSH1 0x14 DUP2 LT ISZERO PUSH2 0x205E JUMPI PUSH1 0x0 PUSH1 0xC PUSH1 0x0 CALLER PUSH20 0xFFFFFFFFFFFFFFFFFFFFFFFFFFFFFFFFFFFFFFFF AND PUSH20 0xFFFFFFFFFFFFFFFFFFFFFFFFFFFFFFFFFFFFFFFF AND DUP2 MSTORE PUSH1 0x20 ADD SWAP1 DUP2 MSTORE PUSH1 0x20 ADD PUSH1 0x0 KECCAK256 PUSH1 0x3 ADD PUSH1 0x0 DUP4 DUP2 MSTORE PUSH1 0x20 ADD SWAP1 DUP2 MSTORE PUSH1 0x20 ADD PUSH1 0x0 KECCAK256 PUSH1 0x0 ADD SLOAD GT ISZERO PUSH2 0x2029 JUMPI PUSH1 0xC PUSH1 0x0 CALLER PUSH20 0xFFFFFFFFFFFFFFFFFFFFFFFFFFFFFFFFFFFFFFFF AND PUSH20 0xFFFFFFFFFFFFFFFFFFFFFFFFFFFFFFFFFFFFFFFF AND DUP2 MSTORE PUSH1 0x20 ADD SWAP1 DUP2 MSTORE PUSH1 0x20 ADD PUSH1 0x0 KECCAK256 PUSH1 0x3 ADD PUSH1 0x0 DUP3 DUP2 MSTORE PUSH1 0x20 ADD SWAP1 DUP2 MSTORE PUSH1 0x20 ADD PUSH1 0x0 KECCAK256 PUSH1 0x1 ADD SLOAD DUP3 DUP3 DUP2 MLOAD DUP2 LT PUSH2 0x2018 JUMPI PUSH2 0x2017 PUSH2 0x2E50 JUMP JUMPDEST JUMPDEST PUSH1 0x20 MUL PUSH1 0x20 ADD ADD DUP2 DUP2 MSTORE POP POP PUSH2 0x204B JUMP JUMPDEST PUSH1 0x0 DUP3 DUP3 DUP2 MLOAD DUP2 LT PUSH2 0x203E JUMPI PUSH2 0x203D PUSH2 0x2E50 JUMP JUMPDEST JUMPDEST PUSH1 0x20 MUL PUSH1 0x20 ADD ADD DUP2 DUP2 MSTORE POP POP JUMPDEST DUP1 DUP1 PUSH2 0x2056 SWAP1 PUSH2 0x2DA9 JUMP JUMPDEST SWAP2 POP POP PUSH2 0x1F46 JUMP JUMPDEST POP DUP1 SWAP2 POP POP SWAP1 JUMP JUMPDEST PUSH1 0x4 SLOAD DUP2 JUMP JUMPDEST PUSH1 0x6 SLOAD DUP2 JUMP JUMPDEST PUSH1 0x0 DUP3 SWAP1 POP PUSH1 0x0 PUSH1 0x5 PUSH8 0xFFFFFFFFFFFFFFFF DUP2 GT ISZERO PUSH2 0x2094 JUMPI PUSH2 0x2093 PUSH2 0x2E7F JUMP JUMPDEST JUMPDEST PUSH1 0x40 MLOAD SWAP1 DUP1 DUP3 MSTORE DUP1 PUSH1 0x20 MUL PUSH1 0x20 ADD DUP3 ADD PUSH1 0x40 MSTORE DUP1 ISZERO PUSH2 0x20C2 JUMPI DUP2 PUSH1 0x20 ADD PUSH1 0x20 DUP3 MUL DUP1 CALLDATASIZE DUP4 CALLDATACOPY DUP1 DUP3 ADD SWAP2 POP POP SWAP1 POP JUMPDEST POP SWAP1 POP PUSH1 0x5 DUP2 PUSH1 0x0 DUP2 MLOAD DUP2 LT PUSH2 0x20DB JUMPI PUSH2 0x20DA PUSH2 0x2E50 JUMP JUMPDEST JUMPDEST PUSH1 0x20 MUL PUSH1 0x20 ADD ADD DUP2 DUP2 MSTORE POP POP PUSH1 0x3 DUP2 PUSH1 0x1 DUP2 MLOAD DUP2 LT PUSH2 0x20FD JUMPI PUSH2 0x20FC PUSH2 0x2E50 JUMP JUMPDEST JUMPDEST PUSH1 0x20 MUL PUSH1 0x20 ADD ADD DUP2 DUP2 MSTORE POP POP PUSH1 0x2 DUP2 PUSH1 0x2 DUP2 MLOAD DUP2 LT PUSH2 0x211F JUMPI PUSH2 0x211E PUSH2 0x2E50 JUMP JUMPDEST JUMPDEST PUSH1 0x20 MUL PUSH1 0x20 ADD ADD DUP2 DUP2 MSTORE POP POP PUSH1 0x1 DUP2 PUSH1 0x3 DUP2 MLOAD DUP2 LT PUSH2 0x2141 JUMPI PUSH2 0x2140 PUSH2 0x2E50 JUMP JUMPDEST JUMPDEST PUSH1 0x20 MUL PUSH1 0x20 ADD ADD DUP2 DUP2 MSTORE POP POP PUSH1 0x1 DUP2 PUSH1 0x4 DUP2 MLOAD DUP2 LT PUSH2 0x2163 JUMPI PUSH2 0x2162 PUSH2 0x2E50 JUMP JUMPDEST JUMPDEST PUSH1 0x20 MUL PUSH1 0x20 ADD ADD DUP2 DUP2 MSTORE POP POP PUSH1 0x0 DUP1 PUSH1 0x0 SWAP1 POP JUMPDEST PUSH1 0x14 DUP2 LT ISZERO PUSH2 0x24DA JUMPI PUSH1 0x0 DUP2 EQ ISZERO PUSH2 0x2192 JUMPI PUSH1 0x0 SWAP2 POP PUSH2 0x21DA JUMP JUMPDEST PUSH1 0x1 DUP2 EQ ISZERO PUSH2 0x21A4 JUMPI PUSH1 0x1 SWAP2 POP PUSH2 0x21D9 JUMP JUMPDEST PUSH1 0x2 DUP2 EQ ISZERO PUSH2 0x21B6 JUMPI PUSH1 0x2 SWAP2 POP PUSH2 0x21D8 JUMP JUMPDEST PUSH1 0x7 DUP2 GT ISZERO PUSH2 0x21C8 JUMPI PUSH1 0x4 SWAP2 POP PUSH2 0x21D7 JUMP JUMPDEST PUSH1 0x2 DUP2 GT ISZERO PUSH2 0x21D6 JUMPI PUSH1 0x3 SWAP2 POP JUMPDEST JUMPDEST JUMPDEST JUMPDEST JUMPDEST PUSH1 0x0 PUSH20 0xFFFFFFFFFFFFFFFFFFFFFFFFFFFFFFFFFFFFFFFF AND PUSH1 0xC PUSH1 0x0 DUP7 PUSH20 0xFFFFFFFFFFFFFFFFFFFFFFFFFFFFFFFFFFFFFFFF AND PUSH20 0xFFFFFFFFFFFFFFFFFFFFFFFFFFFFFFFFFFFFFFFF AND DUP2 MSTORE PUSH1 0x20 ADD SWAP1 DUP2 MSTORE PUSH1 0x20 ADD PUSH1 0x0 KECCAK256 PUSH1 0x2 ADD PUSH1 0x0 SWAP1 SLOAD SWAP1 PUSH2 0x100 EXP SWAP1 DIV PUSH20 0xFFFFFFFFFFFFFFFFFFFFFFFFFFFFFFFFFFFFFFFF AND PUSH20 0xFFFFFFFFFFFFFFFFFFFFFFFFFFFFFFFFFFFFFFFF AND EQ PUSH2 0x24C2 JUMPI PUSH1 0xC PUSH1 0x0 DUP6 PUSH20 0xFFFFFFFFFFFFFFFFFFFFFFFFFFFFFFFFFFFFFFFF AND PUSH20 0xFFFFFFFFFFFFFFFFFFFFFFFFFFFFFFFFFFFFFFFF AND DUP2 MSTORE PUSH1 0x20 ADD SWAP1 DUP2 MSTORE PUSH1 0x20 ADD PUSH1 0x0 KECCAK256 PUSH1 0x2 ADD PUSH1 0x0 SWAP1 SLOAD SWAP1 PUSH2 0x100 EXP SWAP1 DIV PUSH20 0xFFFFFFFFFFFFFFFFFFFFFFFFFFFFFFFFFFFFFFFF AND SWAP4 POP PUSH1 0x0 PUSH1 0x64 DUP7 PUSH4 0x5F5E100 DUP7 DUP7 DUP2 MLOAD DUP2 LT PUSH2 0x22F2 JUMPI PUSH2 0x22F1 PUSH2 0x2E50 JUMP JUMPDEST JUMPDEST PUSH1 0x20 MUL PUSH1 0x20 ADD ADD MLOAD PUSH2 0x2304 SWAP2 SWAP1 PUSH2 0x2CD3 JUMP JUMPDEST PUSH2 0x230E SWAP2 SWAP1 PUSH2 0x2CD3 JUMP JUMPDEST PUSH2 0x2318 SWAP2 SWAP1 PUSH2 0x2CA2 JUMP JUMPDEST SWAP1 POP PUSH1 0x4 DUP4 EQ ISZERO PUSH2 0x2333 JUMPI PUSH1 0x2 DUP2 PUSH2 0x2330 SWAP2 SWAP1 PUSH2 0x2CA2 JUMP JUMPDEST SWAP1 POP JUMPDEST PUSH1 0x1 PUSH1 0x0 SWAP1 SLOAD SWAP1 PUSH2 0x100 EXP SWAP1 DIV PUSH20 0xFFFFFFFFFFFFFFFFFFFFFFFFFFFFFFFFFFFFFFFF AND PUSH20 0xFFFFFFFFFFFFFFFFFFFFFFFFFFFFFFFFFFFFFFFF AND PUSH4 0xA9059CBB DUP7 DUP4 PUSH1 0x40 MLOAD DUP4 PUSH4 0xFFFFFFFF AND PUSH1 0xE0 SHL DUP2 MSTORE PUSH1 0x4 ADD PUSH2 0x2390 SWAP3 SWAP2 SWAP1 PUSH2 0x29DC JUMP JUMPDEST PUSH1 0x20 PUSH1 0x40 MLOAD DUP1 DUP4 SUB DUP2 PUSH1 0x0 DUP8 DUP1 EXTCODESIZE ISZERO DUP1 ISZERO PUSH2 0x23AA JUMPI PUSH1 0x0 DUP1 REVERT JUMPDEST POP GAS CALL ISZERO DUP1 ISZERO PUSH2 0x23BE JUMPI RETURNDATASIZE PUSH1 0x0 DUP1 RETURNDATACOPY RETURNDATASIZE PUSH1 0x0 REVERT JUMPDEST POP POP POP POP PUSH1 0x40 MLOAD RETURNDATASIZE PUSH1 0x1F NOT PUSH1 0x1F DUP3 ADD AND DUP3 ADD DUP1 PUSH1 0x40 MSTORE POP DUP2 ADD SWAP1 PUSH2 0x23E2 SWAP2 SWAP1 PUSH2 0x2586 JUMP JUMPDEST POP DUP1 PUSH1 0xC PUSH1 0x0 DUP8 PUSH20 0xFFFFFFFFFFFFFFFFFFFFFFFFFFFFFFFFFFFFFFFF AND PUSH20 0xFFFFFFFFFFFFFFFFFFFFFFFFFFFFFFFFFFFFFFFF AND DUP2 MSTORE PUSH1 0x20 ADD SWAP1 DUP2 MSTORE PUSH1 0x20 ADD PUSH1 0x0 KECCAK256 PUSH1 0x3 ADD PUSH1 0x0 DUP5 DUP2 MSTORE PUSH1 0x20 ADD SWAP1 DUP2 MSTORE PUSH1 0x20 ADD PUSH1 0x0 KECCAK256 PUSH1 0x0 ADD PUSH1 0x0 DUP3 DUP3 SLOAD PUSH2 0x2449 SWAP2 SWAP1 PUSH2 0x2C4C JUMP JUMPDEST SWAP3 POP POP DUP2 SWAP1 SSTORE POP PUSH1 0xC PUSH1 0x0 DUP7 PUSH20 0xFFFFFFFFFFFFFFFFFFFFFFFFFFFFFFFFFFFFFFFF AND PUSH20 0xFFFFFFFFFFFFFFFFFFFFFFFFFFFFFFFFFFFFFFFF AND DUP2 MSTORE PUSH1 0x20 ADD SWAP1 DUP2 MSTORE PUSH1 0x20 ADD PUSH1 0x0 KECCAK256 PUSH1 0x3 ADD PUSH1 0x0 DUP4 DUP2 MSTORE PUSH1 0x20 ADD SWAP1 DUP2 MSTORE PUSH1 0x20 ADD PUSH1 0x0 KECCAK256 PUSH1 0x1 ADD PUSH1 0x0 DUP2 SLOAD DUP1 SWAP3 SWAP2 SWAP1 PUSH2 0x24B7 SWAP1 PUSH2 0x2DA9 JUMP JUMPDEST SWAP2 SWAP1 POP SSTORE POP POP PUSH2 0x24C7 JUMP JUMPDEST PUSH2 0x24DA JUMP JUMPDEST DUP1 DUP1 PUSH2 0x24D2 SWAP1 PUSH2 0x2DA9 JUMP JUMPDEST SWAP2 POP POP PUSH2 0x2177 JUMP JUMPDEST POP POP POP POP POP POP JUMP JUMPDEST PUSH1 0x40 MLOAD DUP1 PUSH1 0xC0 ADD PUSH1 0x40 MSTORE DUP1 PUSH1 0x0 DUP2 MSTORE PUSH1 0x20 ADD PUSH1 0x0 DUP2 MSTORE PUSH1 0x20 ADD PUSH1 0x0 DUP2 MSTORE PUSH1 0x20 ADD PUSH1 0x0 DUP2 MSTORE PUSH1 0x20 ADD PUSH1 0x0 DUP2 MSTORE PUSH1 0x20 ADD PUSH1 0x0 ISZERO ISZERO DUP2 MSTORE POP SWAP1 JUMP JUMPDEST PUSH1 0x0 DUP2 CALLDATALOAD SWAP1 POP PUSH2 0x2529 DUP2 PUSH2 0x2FEF JUMP JUMPDEST SWAP3 SWAP2 POP POP JUMP JUMPDEST PUSH1 0x0 DUP2 MLOAD SWAP1 POP PUSH2 0x253E DUP2 PUSH2 0x3006 JUMP JUMPDEST SWAP3 SWAP2 POP POP JUMP JUMPDEST PUSH1 0x0 DUP2 CALLDATALOAD SWAP1 POP PUSH2 0x2553 DUP2 PUSH2 0x301D JUMP JUMPDEST SWAP3 SWAP2 POP POP JUMP JUMPDEST PUSH1 0x0 PUSH1 0x20 DUP3 DUP5 SUB SLT ISZERO PUSH2 0x256F JUMPI PUSH2 0x256E PUSH2 0x2EAE JUMP JUMPDEST JUMPDEST PUSH1 0x0 PUSH2 0x257D DUP5 DUP3 DUP6 ADD PUSH2 0x251A JUMP JUMPDEST SWAP2 POP POP SWAP3 SWAP2 POP POP JUMP JUMPDEST PUSH1 0x0 PUSH1 0x20 DUP3 DUP5 SUB SLT ISZERO PUSH2 0x259C JUMPI PUSH2 0x259B PUSH2 0x2EAE JUMP JUMPDEST JUMPDEST PUSH1 0x0 PUSH2 0x25AA DUP5 DUP3 DUP6 ADD PUSH2 0x252F JUMP JUMPDEST SWAP2 POP POP SWAP3 SWAP2 POP POP JUMP JUMPDEST PUSH1 0x0 PUSH1 0x20 DUP3 DUP5 SUB SLT ISZERO PUSH2 0x25C9 JUMPI PUSH2 0x25C8 PUSH2 0x2EAE JUMP JUMPDEST JUMPDEST PUSH1 0x0 PUSH2 0x25D7 DUP5 DUP3 DUP6 ADD PUSH2 0x2544 JUMP JUMPDEST SWAP2 POP POP SWAP3 SWAP2 POP POP JUMP JUMPDEST PUSH1 0x0 DUP1 PUSH1 0x40 DUP4 DUP6 SUB SLT ISZERO PUSH2 0x25F7 JUMPI PUSH2 0x25F6 PUSH2 0x2EAE JUMP JUMPDEST JUMPDEST PUSH1 0x0 PUSH2 0x2605 DUP6 DUP3 DUP7 ADD PUSH2 0x2544 JUMP JUMPDEST SWAP3 POP POP PUSH1 0x20 PUSH2 0x2616 DUP6 DUP3 DUP7 ADD PUSH2 0x251A JUMP JUMPDEST SWAP2 POP POP SWAP3 POP SWAP3 SWAP1 POP JUMP JUMPDEST PUSH1 0x0 DUP1 PUSH1 0x40 DUP4 DUP6 SUB SLT ISZERO PUSH2 0x2637 JUMPI PUSH2 0x2636 PUSH2 0x2EAE JUMP JUMPDEST JUMPDEST PUSH1 0x0 PUSH2 0x2645 DUP6 DUP3 DUP7 ADD PUSH2 0x2544 JUMP JUMPDEST SWAP3 POP POP PUSH1 0x20 PUSH2 0x2656 DUP6 DUP3 DUP7 ADD PUSH2 0x2544 JUMP JUMPDEST SWAP2 POP POP SWAP3 POP SWAP3 SWAP1 POP JUMP JUMPDEST PUSH1 0x0 DUP1 PUSH1 0x0 DUP1 PUSH1 0x80 DUP6 DUP8 SUB SLT ISZERO PUSH2 0x267A JUMPI PUSH2 0x2679 PUSH2 0x2EAE JUMP JUMPDEST JUMPDEST PUSH1 0x0 PUSH2 0x2688 DUP8 DUP3 DUP9 ADD PUSH2 0x2544 JUMP JUMPDEST SWAP5 POP POP PUSH1 0x20 PUSH2 0x2699 DUP8 DUP3 DUP9 ADD PUSH2 0x2544 JUMP JUMPDEST SWAP4 POP POP PUSH1 0x40 PUSH2 0x26AA DUP8 DUP3 DUP9 ADD PUSH2 0x2544 JUMP JUMPDEST SWAP3 POP POP PUSH1 0x60 PUSH2 0x26BB DUP8 DUP3 DUP9 ADD PUSH2 0x2544 JUMP JUMPDEST SWAP2 POP POP SWAP3 SWAP6 SWAP2 SWAP5 POP SWAP3 POP JUMP JUMPDEST PUSH1 0x0 PUSH2 0x26D3 DUP4 DUP4 PUSH2 0x270F JUMP JUMPDEST PUSH1 0x20 DUP4 ADD SWAP1 POP SWAP3 SWAP2 POP POP JUMP JUMPDEST PUSH1 0x0 PUSH2 0x26EB DUP4 DUP4 PUSH2 0x28F1 JUMP JUMPDEST PUSH1 0xC0 DUP4 ADD SWAP1 POP SWAP3 SWAP2 POP POP JUMP JUMPDEST PUSH1 0x0 PUSH2 0x2703 DUP4 DUP4 PUSH2 0x296C JUMP JUMPDEST PUSH1 0x20 DUP4 ADD SWAP1 POP SWAP3 SWAP2 POP POP JUMP JUMPDEST PUSH2 0x2718 DUP2 PUSH2 0x2D61 JUMP JUMPDEST DUP3 MSTORE POP POP JUMP JUMPDEST PUSH2 0x2727 DUP2 PUSH2 0x2D61 JUMP JUMPDEST DUP3 MSTORE POP POP JUMP JUMPDEST PUSH1 0x0 PUSH2 0x2738 DUP3 PUSH2 0x2BC0 JUMP JUMPDEST PUSH2 0x2742 DUP2 DUP6 PUSH2 0x2C08 JUMP JUMPDEST SWAP4 POP PUSH2 0x274D DUP4 PUSH2 0x2B90 JUMP JUMPDEST DUP1 PUSH1 0x0 JUMPDEST DUP4 DUP2 LT ISZERO PUSH2 0x277E JUMPI DUP2 MLOAD PUSH2 0x2765 DUP9 DUP3 PUSH2 0x26C7 JUMP JUMPDEST SWAP8 POP PUSH2 0x2770 DUP4 PUSH2 0x2BE1 JUMP JUMPDEST SWAP3 POP POP PUSH1 0x1 DUP2 ADD SWAP1 POP PUSH2 0x2751 JUMP JUMPDEST POP DUP6 SWAP4 POP POP POP POP SWAP3 SWAP2 POP POP JUMP JUMPDEST PUSH1 0x0 PUSH2 0x2796 DUP3 PUSH2 0x2BCB JUMP JUMPDEST PUSH2 0x27A0 DUP2 DUP6 PUSH2 0x2C19 JUMP JUMPDEST SWAP4 POP PUSH2 0x27AB DUP4 PUSH2 0x2BA0 JUMP JUMPDEST DUP1 PUSH1 0x0 JUMPDEST DUP4 DUP2 LT ISZERO PUSH2 0x27DC JUMPI DUP2 MLOAD PUSH2 0x27C3 DUP9 DUP3 PUSH2 0x26DF JUMP JUMPDEST SWAP8 POP PUSH2 0x27CE DUP4 PUSH2 0x2BEE JUMP JUMPDEST SWAP3 POP POP PUSH1 0x1 DUP2 ADD SWAP1 POP PUSH2 0x27AF JUMP JUMPDEST POP DUP6 SWAP4 POP POP POP POP SWAP3 SWAP2 POP POP JUMP JUMPDEST PUSH1 0x0 PUSH2 0x27F4 DUP3 PUSH2 0x2BD6 JUMP JUMPDEST PUSH2 0x27FE DUP2 DUP6 PUSH2 0x2C2A JUMP JUMPDEST SWAP4 POP PUSH2 0x2809 DUP4 PUSH2 0x2BB0 JUMP JUMPDEST DUP1 PUSH1 0x0 JUMPDEST DUP4 DUP2 LT ISZERO PUSH2 0x283A JUMPI DUP2 MLOAD PUSH2 0x2821 DUP9 DUP3 PUSH2 0x26F7 JUMP JUMPDEST SWAP8 POP PUSH2 0x282C DUP4 PUSH2 0x2BFB JUMP JUMPDEST SWAP3 POP POP PUSH1 0x1 DUP2 ADD SWAP1 POP PUSH2 0x280D JUMP JUMPDEST POP DUP6 SWAP4 POP POP POP POP SWAP3 SWAP2 POP POP JUMP JUMPDEST PUSH2 0x2850 DUP2 PUSH2 0x2D73 JUMP JUMPDEST DUP3 MSTORE POP POP JUMP JUMPDEST PUSH2 0x285F DUP2 PUSH2 0x2D73 JUMP JUMPDEST DUP3 MSTORE POP POP JUMP JUMPDEST PUSH1 0x0 PUSH2 0x2872 PUSH1 0x25 DUP4 PUSH2 0x2C3B JUMP JUMPDEST SWAP2 POP PUSH2 0x287D DUP3 PUSH2 0x2EB3 JUMP JUMPDEST PUSH1 0x40 DUP3 ADD SWAP1 POP SWAP2 SWAP1 POP JUMP JUMPDEST PUSH1 0x0 PUSH2 0x2895 PUSH1 0x35 DUP4 PUSH2 0x2C3B JUMP JUMPDEST SWAP2 POP PUSH2 0x28A0 DUP3 PUSH2 0x2F02 JUMP JUMPDEST PUSH1 0x40 DUP3 ADD SWAP1 POP SWAP2 SWAP1 POP JUMP JUMPDEST PUSH1 0x0 PUSH2 0x28B8 PUSH1 0x22 DUP4 PUSH2 0x2C3B JUMP JUMPDEST SWAP2 POP PUSH2 0x28C3 DUP3 PUSH2 0x2F51 JUMP JUMPDEST PUSH1 0x40 DUP3 ADD SWAP1 POP SWAP2 SWAP1 POP JUMP JUMPDEST PUSH1 0x0 PUSH2 0x28DB PUSH1 0x21 DUP4 PUSH2 0x2C3B JUMP JUMPDEST SWAP2 POP PUSH2 0x28E6 DUP3 PUSH2 0x2FA0 JUMP JUMPDEST PUSH1 0x40 DUP3 ADD SWAP1 POP SWAP2 SWAP1 POP JUMP JUMPDEST PUSH1 0xC0 DUP3 ADD PUSH1 0x0 DUP3 ADD MLOAD PUSH2 0x2907 PUSH1 0x0 DUP6 ADD DUP3 PUSH2 0x296C JUMP JUMPDEST POP PUSH1 0x20 DUP3 ADD MLOAD PUSH2 0x291A PUSH1 0x20 DUP6 ADD DUP3 PUSH2 0x296C JUMP JUMPDEST POP PUSH1 0x40 DUP3 ADD MLOAD PUSH2 0x292D PUSH1 0x40 DUP6 ADD DUP3 PUSH2 0x296C JUMP JUMPDEST POP PUSH1 0x60 DUP3 ADD MLOAD PUSH2 0x2940 PUSH1 0x60 DUP6 ADD DUP3 PUSH2 0x296C JUMP JUMPDEST POP PUSH1 0x80 DUP3 ADD MLOAD PUSH2 0x2953 PUSH1 0x80 DUP6 ADD DUP3 PUSH2 0x296C JUMP JUMPDEST POP PUSH1 0xA0 DUP3 ADD MLOAD PUSH2 0x2966 PUSH1 0xA0 DUP6 ADD DUP3 PUSH2 0x2847 JUMP JUMPDEST POP POP POP POP JUMP JUMPDEST PUSH2 0x2975 DUP2 PUSH2 0x2D9F JUMP JUMPDEST DUP3 MSTORE POP POP JUMP JUMPDEST PUSH2 0x2984 DUP2 PUSH2 0x2D9F JUMP JUMPDEST DUP3 MSTORE POP POP JUMP JUMPDEST PUSH1 0x0 PUSH1 0x20 DUP3 ADD SWAP1 POP PUSH2 0x299F PUSH1 0x0 DUP4 ADD DUP5 PUSH2 0x271E JUMP JUMPDEST SWAP3 SWAP2 POP POP JUMP JUMPDEST PUSH1 0x0 PUSH1 0x60 DUP3 ADD SWAP1 POP PUSH2 0x29BA PUSH1 0x0 DUP4 ADD DUP7 PUSH2 0x271E JUMP JUMPDEST PUSH2 0x29C7 PUSH1 0x20 DUP4 ADD DUP6 PUSH2 0x271E JUMP JUMPDEST PUSH2 0x29D4 PUSH1 0x40 DUP4 ADD DUP5 PUSH2 0x297B JUMP JUMPDEST SWAP5 SWAP4 POP POP POP POP JUMP JUMPDEST PUSH1 0x0 PUSH1 0x40 DUP3 ADD SWAP1 POP PUSH2 0x29F1 PUSH1 0x0 DUP4 ADD DUP6 PUSH2 0x271E JUMP JUMPDEST PUSH2 0x29FE PUSH1 0x20 DUP4 ADD DUP5 PUSH2 0x297B JUMP JUMPDEST SWAP4 SWAP3 POP POP POP JUMP JUMPDEST PUSH1 0x0 PUSH1 0xE0 DUP3 ADD SWAP1 POP PUSH2 0x2A1A PUSH1 0x0 DUP4 ADD DUP11 PUSH2 0x271E JUMP JUMPDEST PUSH2 0x2A27 PUSH1 0x20 DUP4 ADD DUP10 PUSH2 0x297B JUMP JUMPDEST PUSH2 0x2A34 PUSH1 0x40 DUP4 ADD DUP9 PUSH2 0x297B JUMP JUMPDEST PUSH2 0x2A41 PUSH1 0x60 DUP4 ADD DUP8 PUSH2 0x297B JUMP JUMPDEST PUSH2 0x2A4E PUSH1 0x80 DUP4 ADD DUP7 PUSH2 0x297B JUMP JUMPDEST PUSH2 0x2A5B PUSH1 0xA0 DUP4 ADD DUP6 PUSH2 0x2856 JUMP JUMPDEST PUSH2 0x2A68 PUSH1 0xC0 DUP4 ADD DUP5 PUSH2 0x297B JUMP JUMPDEST SWAP9 SWAP8 POP POP POP POP POP POP POP POP JUMP JUMPDEST PUSH1 0x0 PUSH1 0x20 DUP3 ADD SWAP1 POP DUP2 DUP2 SUB PUSH1 0x0 DUP4 ADD MSTORE PUSH2 0x2A8E DUP2 DUP5 PUSH2 0x272D JUMP JUMPDEST SWAP1 POP SWAP3 SWAP2 POP POP JUMP JUMPDEST PUSH1 0x0 PUSH1 0x20 DUP3 ADD SWAP1 POP DUP2 DUP2 SUB PUSH1 0x0 DUP4 ADD MSTORE PUSH2 0x2AB0 DUP2 DUP5 PUSH2 0x278B JUMP JUMPDEST SWAP1 POP SWAP3 SWAP2 POP POP JUMP JUMPDEST PUSH1 0x0 PUSH1 0x20 DUP3 ADD SWAP1 POP DUP2 DUP2 SUB PUSH1 0x0 DUP4 ADD MSTORE PUSH2 0x2AD2 DUP2 DUP5 PUSH2 0x27E9 JUMP JUMPDEST SWAP1 POP SWAP3 SWAP2 POP POP JUMP JUMPDEST PUSH1 0x0 PUSH1 0x20 DUP3 ADD SWAP1 POP PUSH2 0x2AEF PUSH1 0x0 DUP4 ADD DUP5 PUSH2 0x2856 JUMP JUMPDEST SWAP3 SWAP2 POP POP JUMP JUMPDEST PUSH1 0x0 PUSH1 0x20 DUP3 ADD SWAP1 POP DUP2 DUP2 SUB PUSH1 0x0 DUP4 ADD MSTORE PUSH2 0x2B0E DUP2 PUSH2 0x2865 JUMP JUMPDEST SWAP1 POP SWAP2 SWAP1 POP JUMP JUMPDEST PUSH1 0x0 PUSH1 0x20 DUP3 ADD SWAP1 POP DUP2 DUP2 SUB PUSH1 0x0 DUP4 ADD MSTORE PUSH2 0x2B2E DUP2 PUSH2 0x2888 JUMP JUMPDEST SWAP1 POP SWAP2 SWAP1 POP JUMP JUMPDEST PUSH1 0x0 PUSH1 0x20 DUP3 ADD SWAP1 POP DUP2 DUP2 SUB PUSH1 0x0 DUP4 ADD MSTORE PUSH2 0x2B4E DUP2 PUSH2 0x28AB JUMP JUMPDEST SWAP1 POP SWAP2 SWAP1 POP JUMP JUMPDEST PUSH1 0x0 PUSH1 0x20 DUP3 ADD SWAP1 POP DUP2 DUP2 SUB PUSH1 0x0 DUP4 ADD MSTORE PUSH2 0x2B6E DUP2 PUSH2 0x28CE JUMP JUMPDEST SWAP1 POP SWAP2 SWAP1 POP JUMP JUMPDEST PUSH1 0x0 PUSH1 0x20 DUP3 ADD SWAP1 POP PUSH2 0x2B8A PUSH1 0x0 DUP4 ADD DUP5 PUSH2 0x297B JUMP JUMPDEST SWAP3 SWAP2 POP POP JUMP JUMPDEST PUSH1 0x0 DUP2 SWAP1 POP PUSH1 0x20 DUP3 ADD SWAP1 POP SWAP2 SWAP1 POP JUMP JUMPDEST PUSH1 0x0 DUP2 SWAP1 POP PUSH1 0x20 DUP3 ADD SWAP1 POP SWAP2 SWAP1 POP JUMP JUMPDEST PUSH1 0x0 DUP2 SWAP1 POP PUSH1 0x20 DUP3 ADD SWAP1 POP SWAP2 SWAP1 POP JUMP JUMPDEST PUSH1 0x0 DUP2 MLOAD SWAP1 POP SWAP2 SWAP1 POP JUMP JUMPDEST PUSH1 0x0 DUP2 MLOAD SWAP1 POP SWAP2 SWAP1 POP JUMP JUMPDEST PUSH1 0x0 DUP2 MLOAD SWAP1 POP SWAP2 SWAP1 POP JUMP JUMPDEST PUSH1 0x0 PUSH1 0x20 DUP3 ADD SWAP1 POP SWAP2 SWAP1 POP JUMP JUMPDEST PUSH1 0x0 PUSH1 0x20 DUP3 ADD SWAP1 POP SWAP2 SWAP1 POP JUMP JUMPDEST PUSH1 0x0 PUSH1 0x20 DUP3 ADD SWAP1 POP SWAP2 SWAP1 POP JUMP JUMPDEST PUSH1 0x0 DUP3 DUP3 MSTORE PUSH1 0x20 DUP3 ADD SWAP1 POP SWAP3 SWAP2 POP POP JUMP JUMPDEST PUSH1 0x0 DUP3 DUP3 MSTORE PUSH1 0x20 DUP3 ADD SWAP1 POP SWAP3 SWAP2 POP POP JUMP JUMPDEST PUSH1 0x0 DUP3 DUP3 MSTORE PUSH1 0x20 DUP3 ADD SWAP1 POP SWAP3 SWAP2 POP POP JUMP JUMPDEST PUSH1 0x0 DUP3 DUP3 MSTORE PUSH1 0x20 DUP3 ADD SWAP1 POP SWAP3 SWAP2 POP POP JUMP JUMPDEST PUSH1 0x0 PUSH2 0x2C57 DUP3 PUSH2 0x2D9F JUMP JUMPDEST SWAP2 POP PUSH2 0x2C62 DUP4 PUSH2 0x2D9F JUMP JUMPDEST SWAP3 POP DUP3 PUSH32 0xFFFFFFFFFFFFFFFFFFFFFFFFFFFFFFFFFFFFFFFFFFFFFFFFFFFFFFFFFFFFFFFF SUB DUP3 GT ISZERO PUSH2 0x2C97 JUMPI PUSH2 0x2C96 PUSH2 0x2DF2 JUMP JUMPDEST JUMPDEST DUP3 DUP3 ADD SWAP1 POP SWAP3 SWAP2 POP POP JUMP JUMPDEST PUSH1 0x0 PUSH2 0x2CAD DUP3 PUSH2 0x2D9F JUMP JUMPDEST SWAP2 POP PUSH2 0x2CB8 DUP4 PUSH2 0x2D9F JUMP JUMPDEST SWAP3 POP DUP3 PUSH2 0x2CC8 JUMPI PUSH2 0x2CC7 PUSH2 0x2E21 JUMP JUMPDEST JUMPDEST DUP3 DUP3 DIV SWAP1 POP SWAP3 SWAP2 POP POP JUMP JUMPDEST PUSH1 0x0 PUSH2 0x2CDE DUP3 PUSH2 0x2D9F JUMP JUMPDEST SWAP2 POP PUSH2 0x2CE9 DUP4 PUSH2 0x2D9F JUMP JUMPDEST SWAP3 POP DUP2 PUSH32 0xFFFFFFFFFFFFFFFFFFFFFFFFFFFFFFFFFFFFFFFFFFFFFFFFFFFFFFFFFFFFFFFF DIV DUP4 GT DUP3 ISZERO ISZERO AND ISZERO PUSH2 0x2D22 JUMPI PUSH2 0x2D21 PUSH2 0x2DF2 JUMP JUMPDEST JUMPDEST DUP3 DUP3 MUL SWAP1 POP SWAP3 SWAP2 POP POP JUMP JUMPDEST PUSH1 0x0 PUSH2 0x2D38 DUP3 PUSH2 0x2D9F JUMP JUMPDEST SWAP2 POP PUSH2 0x2D43 DUP4 PUSH2 0x2D9F JUMP JUMPDEST SWAP3 POP DUP3 DUP3 LT ISZERO PUSH2 0x2D56 JUMPI PUSH2 0x2D55 PUSH2 0x2DF2 JUMP JUMPDEST JUMPDEST DUP3 DUP3 SUB SWAP1 POP SWAP3 SWAP2 POP POP JUMP JUMPDEST PUSH1 0x0 PUSH2 0x2D6C DUP3 PUSH2 0x2D7F JUMP JUMPDEST SWAP1 POP SWAP2 SWAP1 POP JUMP JUMPDEST PUSH1 0x0 DUP2 ISZERO ISZERO SWAP1 POP SWAP2 SWAP1 POP JUMP JUMPDEST PUSH1 0x0 PUSH20 0xFFFFFFFFFFFFFFFFFFFFFFFFFFFFFFFFFFFFFFFF DUP3 AND SWAP1 POP SWAP2 SWAP1 POP JUMP JUMPDEST PUSH1 0x0 DUP2 SWAP1 POP SWAP2 SWAP1 POP JUMP JUMPDEST PUSH1 0x0 PUSH2 0x2DB4 DUP3 PUSH2 0x2D9F JUMP JUMPDEST SWAP2 POP PUSH32 0xFFFFFFFFFFFFFFFFFFFFFFFFFFFFFFFFFFFFFFFFFFFFFFFFFFFFFFFFFFFFFFFF DUP3 EQ ISZERO PUSH2 0x2DE7 JUMPI PUSH2 0x2DE6 PUSH2 0x2DF2 JUMP JUMPDEST JUMPDEST PUSH1 0x1 DUP3 ADD SWAP1 POP SWAP2 SWAP1 POP JUMP JUMPDEST PUSH32 0x4E487B7100000000000000000000000000000000000000000000000000000000 PUSH1 0x0 MSTORE PUSH1 0x11 PUSH1 0x4 MSTORE PUSH1 0x24 PUSH1 0x0 REVERT JUMPDEST PUSH32 0x4E487B7100000000000000000000000000000000000000000000000000000000 PUSH1 0x0 MSTORE PUSH1 0x12 PUSH1 0x4 MSTORE PUSH1 0x24 PUSH1 0x0 REVERT JUMPDEST PUSH32 0x4E487B7100000000000000000000000000000000000000000000000000000000 PUSH1 0x0 MSTORE PUSH1 0x32 PUSH1 0x4 MSTORE PUSH1 0x24 PUSH1 0x0 REVERT JUMPDEST PUSH32 0x4E487B7100000000000000000000000000000000000000000000000000000000 PUSH1 0x0 MSTORE PUSH1 0x41 PUSH1 0x4 MSTORE PUSH1 0x24 PUSH1 0x0 REVERT JUMPDEST PUSH1 0x0 DUP1 REVERT JUMPDEST PUSH32 0x796F7520646F6E74206861766520696E766573746D656E7420746F2077697468 PUSH1 0x0 DUP3 ADD MSTORE PUSH32 0x647261776E000000000000000000000000000000000000000000000000000000 PUSH1 0x20 DUP3 ADD MSTORE POP JUMP JUMPDEST PUSH32 0x76616C7565206973206E6F742067726561746572207468616E20313030303020 PUSH1 0x0 DUP3 ADD MSTORE PUSH32 0x616E64206C657373207468616E20353030303030300000000000000000000000 PUSH1 0x20 DUP3 ADD MSTORE POP JUMP JUMPDEST PUSH32 0x796F7520646F6E742068617665207265776172647320746F2077697468647261 PUSH1 0x0 DUP3 ADD MSTORE PUSH32 0x776E000000000000000000000000000000000000000000000000000000000000 PUSH1 0x20 DUP3 ADD MSTORE POP JUMP JUMPDEST PUSH32 0x6F6E6C79204F776E65722063616E2063616C6C20746869732066756E6374696F PUSH1 0x0 DUP3 ADD MSTORE PUSH32 0x6E00000000000000000000000000000000000000000000000000000000000000 PUSH1 0x20 DUP3 ADD MSTORE POP JUMP JUMPDEST PUSH2 0x2FF8 DUP2 PUSH2 0x2D61 JUMP JUMPDEST DUP2 EQ PUSH2 0x3003 JUMPI PUSH1 0x0 DUP1 REVERT JUMPDEST POP JUMP JUMPDEST PUSH2 0x300F DUP2 PUSH2 0x2D73 JUMP JUMPDEST DUP2 EQ PUSH2 0x301A JUMPI PUSH1 0x0 DUP1 REVERT JUMPDEST POP JUMP JUMPDEST PUSH2 0x3026 DUP2 PUSH2 0x2D9F JUMP JUMPDEST DUP2 EQ PUSH2 0x3031 JUMPI PUSH1 0x0 DUP1 REVERT JUMPDEST POP JUMP INVALID LOG2 PUSH5 0x6970667358 0x22 SLT KECCAK256 0xD5 0xCF PUSH23 0x92190C68F346CD62055FA866A341AFDA0BA7FDF3B9E1D5 RETURNDATACOPY 0xE5 SIGNEXTEND PUSH23 0x3BAA64736F6C6343000807003300000000000000000000 "
				},
				"gasEstimates": {
					"creation": {
						"codeDepositCost": "2478800",
						"executionCost": "186003",
						"totalCost": "2664803"
					},
					"external": {
						"Admin_data()": "infinite",
						"All_investors(uint256)": "2906",
						"DUSDReferralsList()": "infinite",
						"DUSDTotalReferrals()": "2608",
						"DUSDinvestor(address)": "infinite",
						"Stake(uint256,address)": "infinite",
						"denomenator()": "2496",
						"getAllDUSDinvestments()": "infinite",
						"getReward()": "infinite",
						"getTotalInvestmentDUSD()": "2577",
						"investmentPeriod()": "2518",
						"max_Stake_amount()": "2539",
						"min_Stake_amount()": "2562",
						"owner()": "2534",
						"referralLevel_count()": "infinite",
						"referralLevel_earning()": "infinite",
						"rewardToken()": "2517",
						"setReward(uint256,uint256)": "infinite",
						"set_max_Stake_amount(uint256)": "22565",
						"set_min_Stake_amount(uint256)": "22632",
						"set_values(uint256,uint256,uint256,uint256)": "infinite",
						"totalDUSDInvestors()": "2475",
						"totalbusiness()": "2518",
						"transferOwnership(address)": "26933",
						"unStake()": "infinite",
						"withdrawReward()": "infinite"
					},
					"internal": {
						"sendRewardToDUSDReferrals(address,uint256)": "infinite"
					}
				},
				"methodIdentifiers": {
					"Admin_data()": "42508f66",
					"All_investors(uint256)": "502c6bfa",
					"DUSDReferralsList()": "0c5f58f4",
					"DUSDTotalReferrals()": "1e8aba35",
					"DUSDinvestor(address)": "d3560ee8",
					"Stake(uint256,address)": "2bccdce6",
					"denomenator()": "9740a1bc",
					"getAllDUSDinvestments()": "3a1e0833",
					"getReward()": "3d18b912",
					"getTotalInvestmentDUSD()": "929f6bbe",
					"investmentPeriod()": "523cddfe",
					"max_Stake_amount()": "fae730bc",
					"min_Stake_amount()": "bc67eaff",
					"owner()": "8da5cb5b",
					"referralLevel_count()": "f790b81a",
					"referralLevel_earning()": "a61be99d",
					"rewardToken()": "f7c618c1",
					"setReward(uint256,uint256)": "a47bd496",
					"set_max_Stake_amount(uint256)": "500cb85f",
					"set_min_Stake_amount(uint256)": "32d4e783",
					"set_values(uint256,uint256,uint256,uint256)": "4eb1ecc9",
					"totalDUSDInvestors()": "10cde60a",
					"totalbusiness()": "e2033fcb",
					"transferOwnership(address)": "f2fde38b",
					"unStake()": "73cf575a",
					"withdrawReward()": "c885bc58"
				}
			},
			"storageLayout": {
				"storage": [
					{
						"astId": 24,
						"contract": "contracts/stake_reward_MLM.sol:Invest",
						"label": "owner",
						"offset": 0,
						"slot": "0",
						"type": "t_address"
					},
					{
						"astId": 27,
						"contract": "contracts/stake_reward_MLM.sol:Invest",
						"label": "SMCcontract",
						"offset": 0,
						"slot": "1",
						"type": "t_address"
					},
					{
						"astId": 30,
						"contract": "contracts/stake_reward_MLM.sol:Invest",
						"label": "BUSDcontract",
						"offset": 0,
						"slot": "2",
						"type": "t_address"
					},
					{
						"astId": 32,
						"contract": "contracts/stake_reward_MLM.sol:Invest",
						"label": "totalDUSDInvestors",
						"offset": 0,
						"slot": "3",
						"type": "t_uint256"
					},
					{
						"astId": 35,
						"contract": "contracts/stake_reward_MLM.sol:Invest",
						"label": "rewardToken",
						"offset": 0,
						"slot": "4",
						"type": "t_uint256"
					},
					{
						"astId": 38,
						"contract": "contracts/stake_reward_MLM.sol:Invest",
						"label": "min_Stake_amount",
						"offset": 0,
						"slot": "5",
						"type": "t_uint256"
					},
					{
						"astId": 41,
						"contract": "contracts/stake_reward_MLM.sol:Invest",
						"label": "max_Stake_amount",
						"offset": 0,
						"slot": "6",
						"type": "t_uint256"
					},
					{
						"astId": 44,
						"contract": "contracts/stake_reward_MLM.sol:Invest",
						"label": "denomenator",
						"offset": 0,
						"slot": "7",
						"type": "t_uint256"
					},
					{
						"astId": 47,
						"contract": "contracts/stake_reward_MLM.sol:Invest",
						"label": "investmentPeriod",
						"offset": 0,
						"slot": "8",
						"type": "t_uint256"
					},
					{
						"astId": 49,
						"contract": "contracts/stake_reward_MLM.sol:Invest",
						"label": "totalbusiness",
						"offset": 0,
						"slot": "9",
						"type": "t_uint256"
					},
					{
						"astId": 51,
						"contract": "contracts/stake_reward_MLM.sol:Invest",
						"label": "rew_till_done",
						"offset": 0,
						"slot": "10",
						"type": "t_uint256"
					},
					{
						"astId": 55,
						"contract": "contracts/stake_reward_MLM.sol:Invest",
						"label": "All_investors",
						"offset": 0,
						"slot": "11",
						"type": "t_mapping(t_uint256,t_address)"
					},
					{
						"astId": 106,
						"contract": "contracts/stake_reward_MLM.sol:Invest",
						"label": "DUSDinvestor",
						"offset": 0,
						"slot": "12",
						"type": "t_mapping(t_address,t_struct(Data)101_storage)"
					}
				],
				"types": {
					"t_address": {
						"encoding": "inplace",
						"label": "address",
						"numberOfBytes": "20"
					},
					"t_array(t_address)dyn_storage": {
						"base": "t_address",
						"encoding": "dynamic_array",
						"label": "address[]",
						"numberOfBytes": "32"
					},
					"t_bool": {
						"encoding": "inplace",
						"label": "bool",
						"numberOfBytes": "1"
					},
					"t_mapping(t_address,t_struct(Data)101_storage)": {
						"encoding": "mapping",
						"key": "t_address",
						"label": "mapping(address => struct Invest.Data)",
						"numberOfBytes": "32",
						"value": "t_struct(Data)101_storage"
					},
					"t_mapping(t_uint256,t_address)": {
						"encoding": "mapping",
						"key": "t_uint256",
						"label": "mapping(uint256 => address)",
						"numberOfBytes": "32",
						"value": "t_address"
					},
					"t_mapping(t_uint256,t_struct(allInvestments)68_storage)": {
						"encoding": "mapping",
						"key": "t_uint256",
						"label": "mapping(uint256 => struct Invest.allInvestments)",
						"numberOfBytes": "32",
						"value": "t_struct(allInvestments)68_storage"
					},
					"t_mapping(t_uint256,t_struct(ref_data)73_storage)": {
						"encoding": "mapping",
						"key": "t_uint256",
						"label": "mapping(uint256 => struct Invest.ref_data)",
						"numberOfBytes": "32",
						"value": "t_struct(ref_data)73_storage"
					},
					"t_struct(Data)101_storage": {
						"encoding": "inplace",
						"label": "struct Invest.Data",
						"members": [
							{
								"astId": 78,
								"contract": "contracts/stake_reward_MLM.sol:Invest",
								"label": "investment",
								"offset": 0,
								"slot": "0",
								"type": "t_mapping(t_uint256,t_struct(allInvestments)68_storage)"
							},
							{
								"astId": 81,
								"contract": "contracts/stake_reward_MLM.sol:Invest",
								"label": "hisReferrals",
								"offset": 0,
								"slot": "1",
								"type": "t_array(t_address)dyn_storage"
							},
							{
								"astId": 83,
								"contract": "contracts/stake_reward_MLM.sol:Invest",
								"label": "referralFrom",
								"offset": 0,
								"slot": "2",
								"type": "t_address"
							},
							{
								"astId": 88,
								"contract": "contracts/stake_reward_MLM.sol:Invest",
								"label": "referralLevel",
								"offset": 0,
								"slot": "3",
								"type": "t_mapping(t_uint256,t_struct(ref_data)73_storage)"
							},
							{
								"astId": 90,
								"contract": "contracts/stake_reward_MLM.sol:Invest",
								"label": "reward",
								"offset": 0,
								"slot": "4",
								"type": "t_uint256"
							},
							{
								"astId": 92,
								"contract": "contracts/stake_reward_MLM.sol:Invest",
								"label": "noOfInvestment",
								"offset": 0,
								"slot": "5",
								"type": "t_uint256"
							},
							{
								"astId": 94,
								"contract": "contracts/stake_reward_MLM.sol:Invest",
								"label": "totalInvestment",
								"offset": 0,
								"slot": "6",
								"type": "t_uint256"
							},
							{
								"astId": 96,
								"contract": "contracts/stake_reward_MLM.sol:Invest",
								"label": "totalWithdraw_reward",
								"offset": 0,
								"slot": "7",
								"type": "t_uint256"
							},
							{
								"astId": 98,
								"contract": "contracts/stake_reward_MLM.sol:Invest",
								"label": "investBefore",
								"offset": 0,
								"slot": "8",
								"type": "t_bool"
							},
							{
								"astId": 100,
								"contract": "contracts/stake_reward_MLM.sol:Invest",
								"label": "stakeTime",
								"offset": 0,
								"slot": "9",
								"type": "t_uint256"
							}
						],
						"numberOfBytes": "320"
					},
					"t_struct(allInvestments)68_storage": {
						"encoding": "inplace",
						"label": "struct Invest.allInvestments",
						"members": [
							{
								"astId": 57,
								"contract": "contracts/stake_reward_MLM.sol:Invest",
								"label": "investedAmount",
								"offset": 0,
								"slot": "0",
								"type": "t_uint256"
							},
							{
								"astId": 59,
								"contract": "contracts/stake_reward_MLM.sol:Invest",
								"label": "withdrawnTime",
								"offset": 0,
								"slot": "1",
								"type": "t_uint256"
							},
							{
								"astId": 61,
								"contract": "contracts/stake_reward_MLM.sol:Invest",
								"label": "DepositTime",
								"offset": 0,
								"slot": "2",
								"type": "t_uint256"
							},
							{
								"astId": 63,
								"contract": "contracts/stake_reward_MLM.sol:Invest",
								"label": "investmentNum",
								"offset": 0,
								"slot": "3",
								"type": "t_uint256"
							},
							{
								"astId": 65,
								"contract": "contracts/stake_reward_MLM.sol:Invest",
								"label": "unstakeTime",
								"offset": 0,
								"slot": "4",
								"type": "t_uint256"
							},
							{
								"astId": 67,
								"contract": "contracts/stake_reward_MLM.sol:Invest",
								"label": "unstake",
								"offset": 0,
								"slot": "5",
								"type": "t_bool"
							}
						],
						"numberOfBytes": "192"
					},
					"t_struct(ref_data)73_storage": {
						"encoding": "inplace",
						"label": "struct Invest.ref_data",
						"members": [
							{
								"astId": 70,
								"contract": "contracts/stake_reward_MLM.sol:Invest",
								"label": "reward",
								"offset": 0,
								"slot": "0",
								"type": "t_uint256"
							},
							{
								"astId": 72,
								"contract": "contracts/stake_reward_MLM.sol:Invest",
								"label": "count",
								"offset": 0,
								"slot": "1",
								"type": "t_uint256"
							}
						],
						"numberOfBytes": "64"
					},
					"t_uint256": {
						"encoding": "inplace",
						"label": "uint256",
						"numberOfBytes": "32"
					}
				}
			},
			"userdoc": {
				"kind": "user",
				"methods": {},
				"version": 1
			}
		}
	}
}