{
	"contracts/stake_reward_MLM.sol": {
		"Invest": {
			"abi": [
				{
					"inputs": [],
					"stateMutability": "nonpayable",
					"type": "constructor"
				},
				{
					"inputs": [],
					"name": "DUSDReferralsList",
					"outputs": [
						{
							"internalType": "address[]",
							"name": "",
							"type": "address[]"
						}
					],
					"stateMutability": "view",
					"type": "function"
				},
				{
					"inputs": [],
					"name": "DUSDTotalReferrals",
					"outputs": [
						{
							"internalType": "uint256",
							"name": "",
							"type": "uint256"
						}
					],
					"stateMutability": "view",
					"type": "function"
				},
				{
					"inputs": [
						{
							"internalType": "address",
							"name": "",
							"type": "address"
						}
					],
					"name": "DUSDinvestor",
					"outputs": [
						{
							"internalType": "address",
							"name": "referralFrom",
							"type": "address"
						},
						{
							"internalType": "uint256",
							"name": "reward",
							"type": "uint256"
						},
						{
							"internalType": "uint256",
							"name": "noOfInvestment",
							"type": "uint256"
						},
						{
							"internalType": "uint256",
							"name": "totalInvestment",
							"type": "uint256"
						},
						{
							"internalType": "bool",
							"name": "investBefore",
							"type": "bool"
						}
					],
					"stateMutability": "view",
					"type": "function"
				},
				{
					"inputs": [
						{
							"internalType": "uint256",
							"name": "_investedamount",
							"type": "uint256"
						},
						{
							"internalType": "address",
							"name": "_referral",
							"type": "address"
						}
					],
					"name": "Stake",
					"outputs": [
						{
							"internalType": "bool",
							"name": "success",
							"type": "bool"
						}
					],
					"stateMutability": "nonpayable",
					"type": "function"
				},
				{
					"inputs": [],
					"name": "getAllDUSDinvestments",
					"outputs": [
						{
							"components": [
								{
									"internalType": "uint256",
									"name": "investedAmount",
									"type": "uint256"
								},
								{
									"internalType": "uint256",
									"name": "withdrawnTime",
									"type": "uint256"
								},
								{
									"internalType": "uint256",
									"name": "DepositTime",
									"type": "uint256"
								},
								{
									"internalType": "uint256",
									"name": "investmentNum",
									"type": "uint256"
								}
							],
							"internalType": "struct Invest.allInvestments[]",
							"name": "",
							"type": "tuple[]"
						}
					],
					"stateMutability": "view",
					"type": "function"
				},
				{
					"inputs": [],
					"name": "getReward",
					"outputs": [
						{
							"internalType": "uint256",
							"name": "",
							"type": "uint256"
						}
					],
					"stateMutability": "view",
					"type": "function"
				},
				{
					"inputs": [],
					"name": "getTotalInvestmentDUSD",
					"outputs": [
						{
							"internalType": "uint256",
							"name": "",
							"type": "uint256"
						}
					],
					"stateMutability": "view",
					"type": "function"
				},
				{
					"inputs": [],
					"name": "owner",
					"outputs": [
						{
							"internalType": "address",
							"name": "",
							"type": "address"
						}
					],
					"stateMutability": "view",
					"type": "function"
				},
				{
					"inputs": [],
					"name": "referralLevel_earning",
					"outputs": [
						{
							"components": [
								{
									"internalType": "uint256",
									"name": "reward",
									"type": "uint256"
								},
								{
									"internalType": "uint256",
									"name": "count",
									"type": "uint256"
								}
							],
							"internalType": "struct Invest.ref_data[]",
							"name": "arr",
							"type": "tuple[]"
						}
					],
					"stateMutability": "view",
					"type": "function"
				},
				{
					"inputs": [],
					"name": "rewardToken",
					"outputs": [
						{
							"internalType": "uint256",
							"name": "",
							"type": "uint256"
						}
					],
					"stateMutability": "view",
					"type": "function"
				},
				{
					"inputs": [
						{
							"internalType": "uint256",
							"name": "_amount",
							"type": "uint256"
						}
					],
					"name": "setReward",
					"outputs": [],
					"stateMutability": "nonpayable",
					"type": "function"
				},
				{
					"inputs": [
						{
							"internalType": "uint256",
							"name": "_amount",
							"type": "uint256"
						}
					],
					"name": "set_max_Stake_amount",
					"outputs": [],
					"stateMutability": "nonpayable",
					"type": "function"
				},
				{
					"inputs": [
						{
							"internalType": "uint256",
							"name": "_amount",
							"type": "uint256"
						}
					],
					"name": "set_min_Stake_amount",
					"outputs": [],
					"stateMutability": "nonpayable",
					"type": "function"
				},
				{
					"inputs": [
						{
							"internalType": "uint256",
							"name": "min_stake",
							"type": "uint256"
						},
						{
							"internalType": "uint256",
							"name": "max_stake",
							"type": "uint256"
						},
						{
							"internalType": "uint256",
							"name": "reward_per_day",
							"type": "uint256"
						}
					],
					"name": "set_values",
					"outputs": [],
					"stateMutability": "nonpayable",
					"type": "function"
				},
				{
					"inputs": [],
					"name": "totalDUSDInvestors",
					"outputs": [
						{
							"internalType": "uint256",
							"name": "",
							"type": "uint256"
						}
					],
					"stateMutability": "view",
					"type": "function"
				},
				{
					"inputs": [
						{
							"internalType": "address",
							"name": "_owner",
							"type": "address"
						}
					],
					"name": "transferOwnership",
					"outputs": [],
					"stateMutability": "nonpayable",
					"type": "function"
				},
				{
					"inputs": [
						{
							"internalType": "uint256",
							"name": "_id",
							"type": "uint256"
						}
					],
					"name": "unStake",
					"outputs": [
						{
							"internalType": "bool",
							"name": "success",
							"type": "bool"
						}
					],
					"stateMutability": "nonpayable",
					"type": "function"
				},
				{
					"inputs": [],
					"name": "withdrawReward",
					"outputs": [
						{
							"internalType": "bool",
							"name": "success",
							"type": "bool"
						}
					],
					"stateMutability": "nonpayable",
					"type": "function"
				}
			],
			"devdoc": {
				"kind": "dev",
				"methods": {},
				"version": 1
			},
			"evm": {
				"assembly": "    /* \"contracts/stake_reward_MLM.sol\":262:10143  contract Invest... */\n  mstore(0x40, 0x80)\n    /* \"contracts/stake_reward_MLM.sol\":351:393  0xD902364fE763a130C12457c9FB17E1603374C424 */\n  0xd902364fe763a130c12457c9fb17e1603374c424\n    /* \"contracts/stake_reward_MLM.sol\":331:393  address SMCcontract=0xD902364fE763a130C12457c9FB17E1603374C424 */\n  0x01\n  exp(0x0100, 0x00)\n  dup2\n  sload\n  dup2\n  0xffffffffffffffffffffffffffffffffffffffff\n  mul\n  not\n  and\n  swap1\n  dup4\n  0xffffffffffffffffffffffffffffffffffffffff\n  and\n  mul\n  or\n  swap1\n  sstore\n  pop\n    /* \"contracts/stake_reward_MLM.sol\":424:466  0xB5047153afCc59523F7f6D6F492f716a21B04681 */\n  0xb5047153afcc59523f7f6d6f492f716a21b04681\n    /* \"contracts/stake_reward_MLM.sol\":403:466  address BUSDcontract=0xB5047153afCc59523F7f6D6F492f716a21B04681 */\n  0x02\n  exp(0x0100, 0x00)\n  dup2\n  sload\n  dup2\n  0xffffffffffffffffffffffffffffffffffffffff\n  mul\n  not\n  and\n  swap1\n  dup4\n  0xffffffffffffffffffffffffffffffffffffffff\n  and\n  mul\n  or\n  swap1\n  sstore\n  pop\n    /* \"contracts/stake_reward_MLM.sol\":540:558  500000000000000000 */\n  0x06f05b59d3b20000\n    /* \"contracts/stake_reward_MLM.sol\":516:558  uint public rewardToken=500000000000000000 */\n  0x04\n  sstore\n    /* \"contracts/stake_reward_MLM.sol\":590:595  10000 */\n  0x2710\n    /* \"contracts/stake_reward_MLM.sol\":568:595  uint min_Stake_amount=10000 */\n  0x05\n  sstore\n    /* \"contracts/stake_reward_MLM.sol\":654:679  5000000000000000000000000 */\n  0x0422ca8b0a00a425000000\n    /* \"contracts/stake_reward_MLM.sol\":632:679  uint max_Stake_amount=5000000000000000000000000 */\n  0x06\n  sstore\n    /* \"contracts/stake_reward_MLM.sol\":739:747  300 days */\n  0x018b8200\n    /* \"contracts/stake_reward_MLM.sol\":717:747  uint investmentPeriod=300 days */\n  0x07\n  sstore\n    /* \"contracts/stake_reward_MLM.sol\":1402:1532  constructor(){... */\n  callvalue\n  dup1\n  iszero\n  tag_1\n  jumpi\n  0x00\n  dup1\n  revert\ntag_1:\n  pop\n    /* \"contracts/stake_reward_MLM.sol\":1448:1458  msg.sender */\n  caller\n    /* \"contracts/stake_reward_MLM.sol\":1442:1447  owner */\n  0x00\n  dup1\n    /* \"contracts/stake_reward_MLM.sol\":1442:1458  owner=msg.sender */\n  0x0100\n  exp\n  dup2\n  sload\n  dup2\n  0xffffffffffffffffffffffffffffffffffffffff\n  mul\n  not\n  and\n  swap1\n  dup4\n  0xffffffffffffffffffffffffffffffffffffffff\n  and\n  mul\n  or\n  swap1\n  sstore\n  pop\n    /* \"contracts/stake_reward_MLM.sol\":262:10143  contract Invest... */\n  dataSize(sub_0)\n  dup1\n  dataOffset(sub_0)\n  0x00\n  codecopy\n  0x00\n  return\nstop\n\nsub_0: assembly {\n        /* \"contracts/stake_reward_MLM.sol\":262:10143  contract Invest... */\n      mstore(0x40, 0x80)\n      callvalue\n      dup1\n      iszero\n      tag_1\n      jumpi\n      0x00\n      dup1\n      revert\n    tag_1:\n      pop\n      jumpi(tag_2, lt(calldatasize, 0x04))\n      shr(0xe0, calldataload(0x00))\n      dup1\n      0x5d3eea91\n      gt\n      tag_21\n      jumpi\n      dup1\n      0xc885bc58\n      gt\n      tag_22\n      jumpi\n      dup1\n      0xc885bc58\n      eq\n      tag_16\n      jumpi\n      dup1\n      0xce10db0a\n      eq\n      tag_17\n      jumpi\n      dup1\n      0xd3560ee8\n      eq\n      tag_18\n      jumpi\n      dup1\n      0xf2fde38b\n      eq\n      tag_19\n      jumpi\n      dup1\n      0xf7c618c1\n      eq\n      tag_20\n      jumpi\n      jump(tag_2)\n    tag_22:\n      dup1\n      0x5d3eea91\n      eq\n      tag_12\n      jumpi\n      dup1\n      0x8da5cb5b\n      eq\n      tag_13\n      jumpi\n      dup1\n      0x929f6bbe\n      eq\n      tag_14\n      jumpi\n      dup1\n      0xa61be99d\n      eq\n      tag_15\n      jumpi\n      jump(tag_2)\n    tag_21:\n      dup1\n      0x2bccdce6\n      gt\n      tag_23\n      jumpi\n      dup1\n      0x2bccdce6\n      eq\n      tag_7\n      jumpi\n      dup1\n      0x32d4e783\n      eq\n      tag_8\n      jumpi\n      dup1\n      0x3a1e0833\n      eq\n      tag_9\n      jumpi\n      dup1\n      0x3d18b912\n      eq\n      tag_10\n      jumpi\n      dup1\n      0x500cb85f\n      eq\n      tag_11\n      jumpi\n      jump(tag_2)\n    tag_23:\n      dup1\n      0x0c5f58f4\n      eq\n      tag_3\n      jumpi\n      dup1\n      0x10cde60a\n      eq\n      tag_4\n      jumpi\n      dup1\n      0x1e8aba35\n      eq\n      tag_5\n      jumpi\n      dup1\n      0x293be456\n      eq\n      tag_6\n      jumpi\n    tag_2:\n      0x00\n      dup1\n      revert\n        /* \"contracts/stake_reward_MLM.sol\":8407:8616  function DUSDReferralsList() public view returns(address[] memory){ //this function is to get the all investors list with there account number... */\n    tag_3:\n      tag_24\n      tag_25\n      jump\t// in\n    tag_24:\n      mload(0x40)\n      tag_26\n      swap2\n      swap1\n      tag_27\n      jump\t// in\n    tag_26:\n      mload(0x40)\n      dup1\n      swap2\n      sub\n      swap1\n      return\n        /* \"contracts/stake_reward_MLM.sol\":476:506  uint public totalDUSDInvestors */\n    tag_4:\n      tag_28\n      tag_29\n      jump\t// in\n    tag_28:\n      mload(0x40)\n      tag_30\n      swap2\n      swap1\n      tag_31\n      jump\t// in\n    tag_30:\n      mload(0x40)\n      dup1\n      swap2\n      sub\n      swap1\n      return\n        /* \"contracts/stake_reward_MLM.sol\":8206:8397  function DUSDTotalReferrals() public view returns(uint){ // this function is to get the total number of referrals ... */\n    tag_5:\n      tag_32\n      tag_33\n      jump\t// in\n    tag_32:\n      mload(0x40)\n      tag_34\n      swap2\n      swap1\n      tag_31\n      jump\t// in\n    tag_34:\n      mload(0x40)\n      dup1\n      swap2\n      sub\n      swap1\n      return\n        /* \"contracts/stake_reward_MLM.sol\":8625:8720  function setReward(uint _amount) public ... */\n    tag_6:\n      tag_35\n      0x04\n      dup1\n      calldatasize\n      sub\n      dup2\n      add\n      swap1\n      tag_36\n      swap2\n      swap1\n      tag_37\n      jump\t// in\n    tag_36:\n      tag_38\n      jump\t// in\n    tag_35:\n      stop\n        /* \"contracts/stake_reward_MLM.sol\":3073:4843  function Stake(uint _investedamount,address _referral) external returns(bool success){... */\n    tag_7:\n      tag_39\n      0x04\n      dup1\n      calldatasize\n      sub\n      dup2\n      add\n      swap1\n      tag_40\n      swap2\n      swap1\n      tag_41\n      jump\t// in\n    tag_40:\n      tag_42\n      jump\t// in\n    tag_39:\n      mload(0x40)\n      tag_43\n      swap2\n      swap1\n      tag_44\n      jump\t// in\n    tag_43:\n      mload(0x40)\n      dup1\n      swap2\n      sub\n      swap1\n      return\n        /* \"contracts/stake_reward_MLM.sol\":8729:8840  function set_min_Stake_amount(uint _amount) public ... */\n    tag_8:\n      tag_45\n      0x04\n      dup1\n      calldatasize\n      sub\n      dup2\n      add\n      swap1\n      tag_46\n      swap2\n      swap1\n      tag_37\n      jump\t// in\n    tag_46:\n      tag_47\n      jump\t// in\n    tag_45:\n      stop\n        /* \"contracts/stake_reward_MLM.sol\":6597:7580  function getAllDUSDinvestments() public view returns (allInvestments[] memory) { //this function will return the all investments of the investor and withware date... */\n    tag_9:\n      tag_48\n      tag_49\n      jump\t// in\n    tag_48:\n      mload(0x40)\n      tag_50\n      swap2\n      swap1\n      tag_51\n      jump\t// in\n    tag_50:\n      mload(0x40)\n      dup1\n      swap2\n      sub\n      swap1\n      return\n        /* \"contracts/stake_reward_MLM.sol\":7590:8196  function getReward() view public returns(uint){ //this function is get the total reward balance of the investor... */\n    tag_10:\n      tag_52\n      tag_53\n      jump\t// in\n    tag_52:\n      mload(0x40)\n      tag_54\n      swap2\n      swap1\n      tag_31\n      jump\t// in\n    tag_54:\n      mload(0x40)\n      dup1\n      swap2\n      sub\n      swap1\n      return\n        /* \"contracts/stake_reward_MLM.sol\":8849:8960  function set_max_Stake_amount(uint _amount) public ... */\n    tag_11:\n      tag_55\n      0x04\n      dup1\n      calldatasize\n      sub\n      dup2\n      add\n      swap1\n      tag_56\n      swap2\n      swap1\n      tag_37\n      jump\t// in\n    tag_56:\n      tag_57\n      jump\t// in\n    tag_55:\n      stop\n        /* \"contracts/stake_reward_MLM.sol\":5271:6367  function unStake(uint _id) external  returns (bool success){... */\n    tag_12:\n      tag_58\n      0x04\n      dup1\n      calldatasize\n      sub\n      dup2\n      add\n      swap1\n      tag_59\n      swap2\n      swap1\n      tag_37\n      jump\t// in\n    tag_59:\n      tag_60\n      jump\t// in\n    tag_58:\n      mload(0x40)\n      tag_61\n      swap2\n      swap1\n      tag_44\n      jump\t// in\n    tag_61:\n      mload(0x40)\n      dup1\n      swap2\n      sub\n      swap1\n      return\n        /* \"contracts/stake_reward_MLM.sol\":300:321  address  public owner */\n    tag_13:\n      tag_62\n      tag_63\n      jump\t// in\n    tag_62:\n      mload(0x40)\n      tag_64\n      swap2\n      swap1\n      tag_65\n      jump\t// in\n    tag_64:\n      mload(0x40)\n      dup1\n      swap2\n      sub\n      swap1\n      return\n        /* \"contracts/stake_reward_MLM.sol\":6377:6587  function getTotalInvestmentDUSD() public view returns(uint) {   //this function is to get the total investment of the ivestor... */\n    tag_14:\n      tag_66\n      tag_67\n      jump\t// in\n    tag_66:\n      mload(0x40)\n      tag_68\n      swap2\n      swap1\n      tag_31\n      jump\t// in\n    tag_68:\n      mload(0x40)\n      dup1\n      swap2\n      sub\n      swap1\n      return\n        /* \"contracts/stake_reward_MLM.sol\":9386:10134  function referralLevel_earning() public view returns( ref_data[] memory arr )... */\n    tag_15:\n      tag_69\n      tag_70\n      jump\t// in\n    tag_69:\n      mload(0x40)\n      tag_71\n      swap2\n      swap1\n      tag_72\n      jump\t// in\n    tag_71:\n      mload(0x40)\n      dup1\n      swap2\n      sub\n      swap1\n      return\n        /* \"contracts/stake_reward_MLM.sol\":4854:5260  function withdrawReward() external returns (bool success){... */\n    tag_16:\n      tag_73\n      tag_74\n      jump\t// in\n    tag_73:\n      mload(0x40)\n      tag_75\n      swap2\n      swap1\n      tag_44\n      jump\t// in\n    tag_75:\n      mload(0x40)\n      dup1\n      swap2\n      sub\n      swap1\n      return\n        /* \"contracts/stake_reward_MLM.sol\":8969:9193  function set_values(uint min_stake,uint max_stake,uint reward_per_day) public ... */\n    tag_17:\n      tag_76\n      0x04\n      dup1\n      calldatasize\n      sub\n      dup2\n      add\n      swap1\n      tag_77\n      swap2\n      swap1\n      tag_78\n      jump\t// in\n    tag_77:\n      tag_79\n      jump\t// in\n    tag_76:\n      stop\n        /* \"contracts/stake_reward_MLM.sol\":1349:1391  mapping(address=>Data) public DUSDinvestor */\n    tag_18:\n      tag_80\n      0x04\n      dup1\n      calldatasize\n      sub\n      dup2\n      add\n      swap1\n      tag_81\n      swap2\n      swap1\n      tag_82\n      jump\t// in\n    tag_81:\n      tag_83\n      jump\t// in\n    tag_80:\n      mload(0x40)\n      tag_84\n      swap6\n      swap5\n      swap4\n      swap3\n      swap2\n      swap1\n      tag_85\n      jump\t// in\n    tag_84:\n      mload(0x40)\n      dup1\n      swap2\n      sub\n      swap1\n      return\n        /* \"contracts/stake_reward_MLM.sol\":9202:9376  function transferOwnership(address _owner)  public... */\n    tag_19:\n      tag_86\n      0x04\n      dup1\n      calldatasize\n      sub\n      dup2\n      add\n      swap1\n      tag_87\n      swap2\n      swap1\n      tag_82\n      jump\t// in\n    tag_87:\n      tag_88\n      jump\t// in\n    tag_86:\n      stop\n        /* \"contracts/stake_reward_MLM.sol\":516:558  uint public rewardToken=500000000000000000 */\n    tag_20:\n      tag_89\n      tag_90\n      jump\t// in\n    tag_89:\n      mload(0x40)\n      tag_91\n      swap2\n      swap1\n      tag_31\n      jump\t// in\n    tag_91:\n      mload(0x40)\n      dup1\n      swap2\n      sub\n      swap1\n      return\n        /* \"contracts/stake_reward_MLM.sol\":8407:8616  function DUSDReferralsList() public view returns(address[] memory){ //this function is to get the all investors list with there account number... */\n    tag_25:\n        /* \"contracts/stake_reward_MLM.sol\":8456:8472  address[] memory */\n      0x60\n        /* \"contracts/stake_reward_MLM.sol\":8568:8580  DUSDinvestor */\n      0x08\n        /* \"contracts/stake_reward_MLM.sol\":8568:8592  DUSDinvestor[msg.sender] */\n      0x00\n        /* \"contracts/stake_reward_MLM.sol\":8581:8591  msg.sender */\n      caller\n        /* \"contracts/stake_reward_MLM.sol\":8568:8592  DUSDinvestor[msg.sender] */\n      0xffffffffffffffffffffffffffffffffffffffff\n      and\n      0xffffffffffffffffffffffffffffffffffffffff\n      and\n      dup2\n      mstore\n      0x20\n      add\n      swap1\n      dup2\n      mstore\n      0x20\n      add\n      0x00\n      keccak256\n        /* \"contracts/stake_reward_MLM.sol\":8568:8605  DUSDinvestor[msg.sender].hisReferrals */\n      0x01\n      add\n        /* \"contracts/stake_reward_MLM.sol\":8561:8605  return DUSDinvestor[msg.sender].hisReferrals */\n      dup1\n      sload\n      dup1\n      0x20\n      mul\n      0x20\n      add\n      mload(0x40)\n      swap1\n      dup2\n      add\n      0x40\n      mstore\n      dup1\n      swap3\n      swap2\n      swap1\n      dup2\n      dup2\n      mstore\n      0x20\n      add\n      dup3\n      dup1\n      sload\n      dup1\n      iszero\n      tag_93\n      jumpi\n      0x20\n      mul\n      dup3\n      add\n      swap2\n      swap1\n      0x00\n      mstore\n      keccak256(0x00, 0x20)\n      swap1\n    tag_94:\n      dup2\n      0x00\n      swap1\n      sload\n      swap1\n      0x0100\n      exp\n      swap1\n      div\n      0xffffffffffffffffffffffffffffffffffffffff\n      and\n      0xffffffffffffffffffffffffffffffffffffffff\n      and\n      dup2\n      mstore\n      0x20\n      add\n      swap1\n      0x01\n      add\n      swap1\n      dup1\n      dup4\n      gt\n      tag_94\n      jumpi\n    tag_93:\n      pop\n      pop\n      pop\n      pop\n      pop\n      swap1\n      pop\n        /* \"contracts/stake_reward_MLM.sol\":8407:8616  function DUSDReferralsList() public view returns(address[] memory){ //this function is to get the all investors list with there account number... */\n      swap1\n      jump\t// out\n        /* \"contracts/stake_reward_MLM.sol\":476:506  uint public totalDUSDInvestors */\n    tag_29:\n      sload(0x03)\n      dup2\n      jump\t// out\n        /* \"contracts/stake_reward_MLM.sol\":8206:8397  function DUSDTotalReferrals() public view returns(uint){ // this function is to get the total number of referrals ... */\n    tag_33:\n        /* \"contracts/stake_reward_MLM.sol\":8256:8260  uint */\n      0x00\n        /* \"contracts/stake_reward_MLM.sol\":8341:8353  DUSDinvestor */\n      0x08\n        /* \"contracts/stake_reward_MLM.sol\":8341:8365  DUSDinvestor[msg.sender] */\n      0x00\n        /* \"contracts/stake_reward_MLM.sol\":8354:8364  msg.sender */\n      caller\n        /* \"contracts/stake_reward_MLM.sol\":8341:8365  DUSDinvestor[msg.sender] */\n      0xffffffffffffffffffffffffffffffffffffffff\n      and\n      0xffffffffffffffffffffffffffffffffffffffff\n      and\n      dup2\n      mstore\n      0x20\n      add\n      swap1\n      dup2\n      mstore\n      0x20\n      add\n      0x00\n      keccak256\n        /* \"contracts/stake_reward_MLM.sol\":8341:8378  DUSDinvestor[msg.sender].hisReferrals */\n      0x01\n      add\n        /* \"contracts/stake_reward_MLM.sol\":8340:8386  (DUSDinvestor[msg.sender].hisReferrals).length */\n      dup1\n      sload\n      swap1\n      pop\n        /* \"contracts/stake_reward_MLM.sol\":8333:8386  return (DUSDinvestor[msg.sender].hisReferrals).length */\n      swap1\n      pop\n        /* \"contracts/stake_reward_MLM.sol\":8206:8397  function DUSDTotalReferrals() public view returns(uint){ // this function is to get the total number of referrals ... */\n      swap1\n      jump\t// out\n        /* \"contracts/stake_reward_MLM.sol\":8625:8720  function setReward(uint _amount) public ... */\n    tag_38:\n        /* \"contracts/stake_reward_MLM.sol\":8702:8709  _amount */\n      dup1\n        /* \"contracts/stake_reward_MLM.sol\":8688:8699  rewardToken */\n      0x04\n        /* \"contracts/stake_reward_MLM.sol\":8688:8709  rewardToken = _amount */\n      dup2\n      swap1\n      sstore\n      pop\n        /* \"contracts/stake_reward_MLM.sol\":8625:8720  function setReward(uint _amount) public ... */\n      pop\n      jump\t// out\n        /* \"contracts/stake_reward_MLM.sol\":3073:4843  function Stake(uint _investedamount,address _referral) external returns(bool success){... */\n    tag_42:\n        /* \"contracts/stake_reward_MLM.sol\":3145:3157  bool success */\n      0x00\n        /* \"contracts/stake_reward_MLM.sol\":3199:3215  min_Stake_amount */\n      sload(0x05)\n        /* \"contracts/stake_reward_MLM.sol\":3180:3195  _investedamount */\n      dup4\n        /* \"contracts/stake_reward_MLM.sol\":3180:3215  _investedamount >= min_Stake_amount */\n      lt\n      iszero\n        /* \"contracts/stake_reward_MLM.sol\":3172:3250  require(_investedamount >= min_Stake_amount,\"value is not greater than 10000\") */\n      tag_98\n      jumpi\n      mload(0x40)\n      0x08c379a000000000000000000000000000000000000000000000000000000000\n      dup2\n      mstore\n      0x04\n      add\n      tag_99\n      swap1\n      tag_100\n      jump\t// in\n    tag_99:\n      mload(0x40)\n      dup1\n      swap2\n      sub\n      swap1\n      revert\n    tag_98:\n        /* \"contracts/stake_reward_MLM.sol\":3379:3384  false */\n      0x00\n        /* \"contracts/stake_reward_MLM.sol\":3338:3384  DUSDinvestor[msg.sender].investBefore == false */\n      iszero\n      iszero\n        /* \"contracts/stake_reward_MLM.sol\":3338:3350  DUSDinvestor */\n      0x08\n        /* \"contracts/stake_reward_MLM.sol\":3338:3362  DUSDinvestor[msg.sender] */\n      0x00\n        /* \"contracts/stake_reward_MLM.sol\":3351:3361  msg.sender */\n      caller\n        /* \"contracts/stake_reward_MLM.sol\":3338:3362  DUSDinvestor[msg.sender] */\n      0xffffffffffffffffffffffffffffffffffffffff\n      and\n      0xffffffffffffffffffffffffffffffffffffffff\n      and\n      dup2\n      mstore\n      0x20\n      add\n      swap1\n      dup2\n      mstore\n      0x20\n      add\n      0x00\n      keccak256\n        /* \"contracts/stake_reward_MLM.sol\":3338:3375  DUSDinvestor[msg.sender].investBefore */\n      0x07\n      add\n      0x00\n      swap1\n      sload\n      swap1\n      0x0100\n      exp\n      swap1\n      div\n      0xff\n      and\n        /* \"contracts/stake_reward_MLM.sol\":3338:3384  DUSDinvestor[msg.sender].investBefore == false */\n      iszero\n      iszero\n      eq\n        /* \"contracts/stake_reward_MLM.sol\":3335:3489  if(DUSDinvestor[msg.sender].investBefore == false)... */\n      iszero\n      tag_101\n      jumpi\n        /* \"contracts/stake_reward_MLM.sol\":3417:3435  totalDUSDInvestors */\n      0x03\n      0x00\n        /* \"contracts/stake_reward_MLM.sol\":3417:3437  totalDUSDInvestors++ */\n      dup2\n      sload\n      dup1\n      swap3\n      swap2\n      swap1\n      tag_102\n      swap1\n      tag_103\n      jump\t// in\n    tag_102:\n      swap2\n      swap1\n      pop\n      sstore\n      pop\n        /* \"contracts/stake_reward_MLM.sol\":3335:3489  if(DUSDinvestor[msg.sender].investBefore == false)... */\n    tag_101:\n        /* \"contracts/stake_reward_MLM.sol\":3503:3511  uint num */\n      0x00\n        /* \"contracts/stake_reward_MLM.sol\":3514:3526  DUSDinvestor */\n      0x08\n        /* \"contracts/stake_reward_MLM.sol\":3514:3538  DUSDinvestor[msg.sender] */\n      0x00\n        /* \"contracts/stake_reward_MLM.sol\":3527:3537  msg.sender */\n      caller\n        /* \"contracts/stake_reward_MLM.sol\":3514:3538  DUSDinvestor[msg.sender] */\n      0xffffffffffffffffffffffffffffffffffffffff\n      and\n      0xffffffffffffffffffffffffffffffffffffffff\n      and\n      dup2\n      mstore\n      0x20\n      add\n      swap1\n      dup2\n      mstore\n      0x20\n      add\n      0x00\n      keccak256\n        /* \"contracts/stake_reward_MLM.sol\":3514:3553  DUSDinvestor[msg.sender].noOfInvestment */\n      0x05\n      add\n      sload\n        /* \"contracts/stake_reward_MLM.sol\":3503:3553  uint num = DUSDinvestor[msg.sender].noOfInvestment */\n      swap1\n      pop\n        /* \"contracts/stake_reward_MLM.sol\":3624:3639  _investedamount */\n      dup4\n        /* \"contracts/stake_reward_MLM.sol\":3567:3579  DUSDinvestor */\n      0x08\n        /* \"contracts/stake_reward_MLM.sol\":3567:3591  DUSDinvestor[msg.sender] */\n      0x00\n        /* \"contracts/stake_reward_MLM.sol\":3580:3590  msg.sender */\n      caller\n        /* \"contracts/stake_reward_MLM.sol\":3567:3591  DUSDinvestor[msg.sender] */\n      0xffffffffffffffffffffffffffffffffffffffff\n      and\n      0xffffffffffffffffffffffffffffffffffffffff\n      and\n      dup2\n      mstore\n      0x20\n      add\n      swap1\n      dup2\n      mstore\n      0x20\n      add\n      0x00\n      keccak256\n        /* \"contracts/stake_reward_MLM.sol\":3567:3602  DUSDinvestor[msg.sender].investment */\n      0x00\n      add\n        /* \"contracts/stake_reward_MLM.sol\":3567:3607  DUSDinvestor[msg.sender].investment[num] */\n      0x00\n        /* \"contracts/stake_reward_MLM.sol\":3603:3606  num */\n      dup4\n        /* \"contracts/stake_reward_MLM.sol\":3567:3607  DUSDinvestor[msg.sender].investment[num] */\n      dup2\n      mstore\n      0x20\n      add\n      swap1\n      dup2\n      mstore\n      0x20\n      add\n      0x00\n      keccak256\n        /* \"contracts/stake_reward_MLM.sol\":3567:3622  DUSDinvestor[msg.sender].investment[num].investedAmount */\n      0x00\n      add\n        /* \"contracts/stake_reward_MLM.sol\":3567:3639  DUSDinvestor[msg.sender].investment[num].investedAmount =_investedamount */\n      dup2\n      swap1\n      sstore\n      pop\n        /* \"contracts/stake_reward_MLM.sol\":3706:3721  block.timestamp */\n      timestamp\n        /* \"contracts/stake_reward_MLM.sol\":3653:3665  DUSDinvestor */\n      0x08\n        /* \"contracts/stake_reward_MLM.sol\":3653:3677  DUSDinvestor[msg.sender] */\n      0x00\n        /* \"contracts/stake_reward_MLM.sol\":3666:3676  msg.sender */\n      caller\n        /* \"contracts/stake_reward_MLM.sol\":3653:3677  DUSDinvestor[msg.sender] */\n      0xffffffffffffffffffffffffffffffffffffffff\n      and\n      0xffffffffffffffffffffffffffffffffffffffff\n      and\n      dup2\n      mstore\n      0x20\n      add\n      swap1\n      dup2\n      mstore\n      0x20\n      add\n      0x00\n      keccak256\n        /* \"contracts/stake_reward_MLM.sol\":3653:3688  DUSDinvestor[msg.sender].investment */\n      0x00\n      add\n        /* \"contracts/stake_reward_MLM.sol\":3653:3693  DUSDinvestor[msg.sender].investment[num] */\n      0x00\n        /* \"contracts/stake_reward_MLM.sol\":3689:3692  num */\n      dup4\n        /* \"contracts/stake_reward_MLM.sol\":3653:3693  DUSDinvestor[msg.sender].investment[num] */\n      dup2\n      mstore\n      0x20\n      add\n      swap1\n      dup2\n      mstore\n      0x20\n      add\n      0x00\n      keccak256\n        /* \"contracts/stake_reward_MLM.sol\":3653:3705  DUSDinvestor[msg.sender].investment[num].DepositTime */\n      0x02\n      add\n        /* \"contracts/stake_reward_MLM.sol\":3653:3721  DUSDinvestor[msg.sender].investment[num].DepositTime=block.timestamp */\n      dup2\n      swap1\n      sstore\n      pop\n        /* \"contracts/stake_reward_MLM.sol\":3808:3824  investmentPeriod */\n      sload(0x07)\n        /* \"contracts/stake_reward_MLM.sol\":3790:3805  block.timestamp */\n      timestamp\n        /* \"contracts/stake_reward_MLM.sol\":3790:3824  block.timestamp + investmentPeriod */\n      tag_104\n      swap2\n      swap1\n      tag_105\n      jump\t// in\n    tag_104:\n        /* \"contracts/stake_reward_MLM.sol\":3735:3747  DUSDinvestor */\n      0x08\n        /* \"contracts/stake_reward_MLM.sol\":3735:3759  DUSDinvestor[msg.sender] */\n      0x00\n        /* \"contracts/stake_reward_MLM.sol\":3748:3758  msg.sender */\n      caller\n        /* \"contracts/stake_reward_MLM.sol\":3735:3759  DUSDinvestor[msg.sender] */\n      0xffffffffffffffffffffffffffffffffffffffff\n      and\n      0xffffffffffffffffffffffffffffffffffffffff\n      and\n      dup2\n      mstore\n      0x20\n      add\n      swap1\n      dup2\n      mstore\n      0x20\n      add\n      0x00\n      keccak256\n        /* \"contracts/stake_reward_MLM.sol\":3735:3770  DUSDinvestor[msg.sender].investment */\n      0x00\n      add\n        /* \"contracts/stake_reward_MLM.sol\":3735:3775  DUSDinvestor[msg.sender].investment[num] */\n      0x00\n        /* \"contracts/stake_reward_MLM.sol\":3771:3774  num */\n      dup4\n        /* \"contracts/stake_reward_MLM.sol\":3735:3775  DUSDinvestor[msg.sender].investment[num] */\n      dup2\n      mstore\n      0x20\n      add\n      swap1\n      dup2\n      mstore\n      0x20\n      add\n      0x00\n      keccak256\n        /* \"contracts/stake_reward_MLM.sol\":3735:3789  DUSDinvestor[msg.sender].investment[num].withdrawnTime */\n      0x01\n      add\n        /* \"contracts/stake_reward_MLM.sol\":3735:3824  DUSDinvestor[msg.sender].investment[num].withdrawnTime=block.timestamp + investmentPeriod */\n      dup2\n      swap1\n      sstore\n      pop\n        /* \"contracts/stake_reward_MLM.sol\":3907:3910  num */\n      dup1\n        /* \"contracts/stake_reward_MLM.sol\":3852:3864  DUSDinvestor */\n      0x08\n        /* \"contracts/stake_reward_MLM.sol\":3852:3876  DUSDinvestor[msg.sender] */\n      0x00\n        /* \"contracts/stake_reward_MLM.sol\":3865:3875  msg.sender */\n      caller\n        /* \"contracts/stake_reward_MLM.sol\":3852:3876  DUSDinvestor[msg.sender] */\n      0xffffffffffffffffffffffffffffffffffffffff\n      and\n      0xffffffffffffffffffffffffffffffffffffffff\n      and\n      dup2\n      mstore\n      0x20\n      add\n      swap1\n      dup2\n      mstore\n      0x20\n      add\n      0x00\n      keccak256\n        /* \"contracts/stake_reward_MLM.sol\":3852:3887  DUSDinvestor[msg.sender].investment */\n      0x00\n      add\n        /* \"contracts/stake_reward_MLM.sol\":3852:3892  DUSDinvestor[msg.sender].investment[num] */\n      0x00\n        /* \"contracts/stake_reward_MLM.sol\":3888:3891  num */\n      dup4\n        /* \"contracts/stake_reward_MLM.sol\":3852:3892  DUSDinvestor[msg.sender].investment[num] */\n      dup2\n      mstore\n      0x20\n      add\n      swap1\n      dup2\n      mstore\n      0x20\n      add\n      0x00\n      keccak256\n        /* \"contracts/stake_reward_MLM.sol\":3852:3906  DUSDinvestor[msg.sender].investment[num].investmentNum */\n      0x03\n      add\n        /* \"contracts/stake_reward_MLM.sol\":3852:3910  DUSDinvestor[msg.sender].investment[num].investmentNum=num */\n      dup2\n      swap1\n      sstore\n      pop\n        /* \"contracts/stake_reward_MLM.sol\":3966:3981  _investedamount */\n      dup4\n        /* \"contracts/stake_reward_MLM.sol\":3924:3936  DUSDinvestor */\n      0x08\n        /* \"contracts/stake_reward_MLM.sol\":3924:3948  DUSDinvestor[msg.sender] */\n      0x00\n        /* \"contracts/stake_reward_MLM.sol\":3937:3947  msg.sender */\n      caller\n        /* \"contracts/stake_reward_MLM.sol\":3924:3948  DUSDinvestor[msg.sender] */\n      0xffffffffffffffffffffffffffffffffffffffff\n      and\n      0xffffffffffffffffffffffffffffffffffffffff\n      and\n      dup2\n      mstore\n      0x20\n      add\n      swap1\n      dup2\n      mstore\n      0x20\n      add\n      0x00\n      keccak256\n        /* \"contracts/stake_reward_MLM.sol\":3924:3964  DUSDinvestor[msg.sender].totalInvestment */\n      0x06\n      add\n      0x00\n        /* \"contracts/stake_reward_MLM.sol\":3924:3981  DUSDinvestor[msg.sender].totalInvestment+=_investedamount */\n      dup3\n      dup3\n      sload\n      tag_106\n      swap2\n      swap1\n      tag_105\n      jump\t// in\n    tag_106:\n      swap3\n      pop\n      pop\n      dup2\n      swap1\n      sstore\n      pop\n        /* \"contracts/stake_reward_MLM.sol\":4033:4037  true */\n      0x01\n        /* \"contracts/stake_reward_MLM.sol\":3995:4007  DUSDinvestor */\n      0x08\n        /* \"contracts/stake_reward_MLM.sol\":3995:4019  DUSDinvestor[msg.sender] */\n      0x00\n        /* \"contracts/stake_reward_MLM.sol\":4008:4018  msg.sender */\n      caller\n        /* \"contracts/stake_reward_MLM.sol\":3995:4019  DUSDinvestor[msg.sender] */\n      0xffffffffffffffffffffffffffffffffffffffff\n      and\n      0xffffffffffffffffffffffffffffffffffffffff\n      and\n      dup2\n      mstore\n      0x20\n      add\n      swap1\n      dup2\n      mstore\n      0x20\n      add\n      0x00\n      keccak256\n        /* \"contracts/stake_reward_MLM.sol\":3995:4032  DUSDinvestor[msg.sender].investBefore */\n      0x07\n      add\n      0x00\n        /* \"contracts/stake_reward_MLM.sol\":3995:4037  DUSDinvestor[msg.sender].investBefore=true */\n      0x0100\n      exp\n      dup2\n      sload\n      dup2\n      0xff\n      mul\n      not\n      and\n      swap1\n      dup4\n      iszero\n      iszero\n      mul\n      or\n      swap1\n      sstore\n      pop\n        /* \"contracts/stake_reward_MLM.sol\":4051:4063  DUSDinvestor */\n      0x08\n        /* \"contracts/stake_reward_MLM.sol\":4051:4075  DUSDinvestor[msg.sender] */\n      0x00\n        /* \"contracts/stake_reward_MLM.sol\":4064:4074  msg.sender */\n      caller\n        /* \"contracts/stake_reward_MLM.sol\":4051:4075  DUSDinvestor[msg.sender] */\n      0xffffffffffffffffffffffffffffffffffffffff\n      and\n      0xffffffffffffffffffffffffffffffffffffffff\n      and\n      dup2\n      mstore\n      0x20\n      add\n      swap1\n      dup2\n      mstore\n      0x20\n      add\n      0x00\n      keccak256\n        /* \"contracts/stake_reward_MLM.sol\":4051:4090  DUSDinvestor[msg.sender].noOfInvestment */\n      0x05\n      add\n      0x00\n        /* \"contracts/stake_reward_MLM.sol\":4051:4092  DUSDinvestor[msg.sender].noOfInvestment++ */\n      dup2\n      sload\n      dup1\n      swap3\n      swap2\n      swap1\n      tag_107\n      swap1\n      tag_103\n      jump\t// in\n    tag_107:\n      swap2\n      swap1\n      pop\n      sstore\n      pop\n        /* \"contracts/stake_reward_MLM.sol\":4111:4122  SMCcontract */\n      0x01\n      0x00\n      swap1\n      sload\n      swap1\n      0x0100\n      exp\n      swap1\n      div\n      0xffffffffffffffffffffffffffffffffffffffff\n      and\n        /* \"contracts/stake_reward_MLM.sol\":4106:4136  DUSD(SMCcontract).transferFrom */\n      0xffffffffffffffffffffffffffffffffffffffff\n      and\n      0x23b872dd\n        /* \"contracts/stake_reward_MLM.sol\":4137:4147  msg.sender */\n      caller\n        /* \"contracts/stake_reward_MLM.sol\":4156:4160  this */\n      address\n        /* \"contracts/stake_reward_MLM.sol\":4178:4184  10**18 */\n      0x0de0b6b3a7640000\n        /* \"contracts/stake_reward_MLM.sol\":4162:4177  _investedamount */\n      dup9\n        /* \"contracts/stake_reward_MLM.sol\":4162:4184  _investedamount*10**18 */\n      tag_108\n      swap2\n      swap1\n      tag_109\n      jump\t// in\n    tag_108:\n        /* \"contracts/stake_reward_MLM.sol\":4106:4185  DUSD(SMCcontract).transferFrom(msg.sender,address(this),_investedamount*10**18) */\n      mload(0x40)\n      dup5\n      0xffffffff\n      and\n      0xe0\n      shl\n      dup2\n      mstore\n      0x04\n      add\n      tag_110\n      swap4\n      swap3\n      swap2\n      swap1\n      tag_111\n      jump\t// in\n    tag_110:\n      0x20\n      mload(0x40)\n      dup1\n      dup4\n      sub\n      dup2\n      0x00\n      dup8\n      dup1\n      extcodesize\n      iszero\n      dup1\n      iszero\n      tag_112\n      jumpi\n      0x00\n      dup1\n      revert\n    tag_112:\n      pop\n      gas\n      call\n      iszero\n      dup1\n      iszero\n      tag_114\n      jumpi\n      returndatasize\n      0x00\n      dup1\n      returndatacopy\n      revert(0x00, returndatasize)\n    tag_114:\n      pop\n      pop\n      pop\n      pop\n      mload(0x40)\n      returndatasize\n      not(0x1f)\n      0x1f\n      dup3\n      add\n      and\n      dup3\n      add\n      dup1\n      0x40\n      mstore\n      pop\n      dup2\n      add\n      swap1\n      tag_115\n      swap2\n      swap1\n      tag_116\n      jump\t// in\n    tag_115:\n      pop\n        /* \"contracts/stake_reward_MLM.sol\":4221:4222  0 */\n      0x00\n        /* \"contracts/stake_reward_MLM.sol\":4202:4223  _referral==address(0) */\n      0xffffffffffffffffffffffffffffffffffffffff\n      and\n        /* \"contracts/stake_reward_MLM.sol\":4202:4211  _referral */\n      dup4\n        /* \"contracts/stake_reward_MLM.sol\":4202:4223  _referral==address(0) */\n      0xffffffffffffffffffffffffffffffffffffffff\n      and\n      eq\n        /* \"contracts/stake_reward_MLM.sol\":4202:4248  _referral==address(0) || _referral==msg.sender */\n      dup1\n      tag_117\n      jumpi\n      pop\n        /* \"contracts/stake_reward_MLM.sol\":4238:4248  msg.sender */\n      caller\n        /* \"contracts/stake_reward_MLM.sol\":4227:4248  _referral==msg.sender */\n      0xffffffffffffffffffffffffffffffffffffffff\n      and\n        /* \"contracts/stake_reward_MLM.sol\":4227:4236  _referral */\n      dup4\n        /* \"contracts/stake_reward_MLM.sol\":4227:4248  _referral==msg.sender */\n      0xffffffffffffffffffffffffffffffffffffffff\n      and\n      eq\n        /* \"contracts/stake_reward_MLM.sol\":4202:4248  _referral==address(0) || _referral==msg.sender */\n    tag_117:\n        /* \"contracts/stake_reward_MLM.sol\":4199:4795  if(_referral==address(0) || _referral==msg.sender )                                         //checking that investor comes from the referral link or not... */\n      iszero\n      tag_118\n      jumpi\n        /* \"contracts/stake_reward_MLM.sol\":4430:4431  0 */\n      0x00\n        /* \"contracts/stake_reward_MLM.sol\":4382:4394  DUSDinvestor */\n      0x08\n        /* \"contracts/stake_reward_MLM.sol\":4382:4406  DUSDinvestor[msg.sender] */\n      0x00\n        /* \"contracts/stake_reward_MLM.sol\":4395:4405  msg.sender */\n      caller\n        /* \"contracts/stake_reward_MLM.sol\":4382:4406  DUSDinvestor[msg.sender] */\n      0xffffffffffffffffffffffffffffffffffffffff\n      and\n      0xffffffffffffffffffffffffffffffffffffffff\n      and\n      dup2\n      mstore\n      0x20\n      add\n      swap1\n      dup2\n      mstore\n      0x20\n      add\n      0x00\n      keccak256\n        /* \"contracts/stake_reward_MLM.sol\":4382:4419  DUSDinvestor[msg.sender].referralFrom */\n      0x02\n      add\n      0x00\n        /* \"contracts/stake_reward_MLM.sol\":4382:4432  DUSDinvestor[msg.sender].referralFrom = address(0) */\n      0x0100\n      exp\n      dup2\n      sload\n      dup2\n      0xffffffffffffffffffffffffffffffffffffffff\n      mul\n      not\n      and\n      swap1\n      dup4\n      0xffffffffffffffffffffffffffffffffffffffff\n      and\n      mul\n      or\n      swap1\n      sstore\n      pop\n        /* \"contracts/stake_reward_MLM.sol\":4199:4795  if(_referral==address(0) || _referral==msg.sender )                                         //checking that investor comes from the referral link or not... */\n      jump(tag_119)\n    tag_118:\n        /* \"contracts/stake_reward_MLM.sol\":4535:4544  _referral */\n      dup3\n        /* \"contracts/stake_reward_MLM.sol\":4495:4507  DUSDinvestor */\n      0x08\n        /* \"contracts/stake_reward_MLM.sol\":4495:4519  DUSDinvestor[msg.sender] */\n      0x00\n        /* \"contracts/stake_reward_MLM.sol\":4508:4518  msg.sender */\n      caller\n        /* \"contracts/stake_reward_MLM.sol\":4495:4519  DUSDinvestor[msg.sender] */\n      0xffffffffffffffffffffffffffffffffffffffff\n      and\n      0xffffffffffffffffffffffffffffffffffffffff\n      and\n      dup2\n      mstore\n      0x20\n      add\n      swap1\n      dup2\n      mstore\n      0x20\n      add\n      0x00\n      keccak256\n        /* \"contracts/stake_reward_MLM.sol\":4495:4532  DUSDinvestor[msg.sender].referralFrom */\n      0x02\n      add\n      0x00\n        /* \"contracts/stake_reward_MLM.sol\":4495:4544  DUSDinvestor[msg.sender].referralFrom = _referral */\n      0x0100\n      exp\n      dup2\n      sload\n      dup2\n      0xffffffffffffffffffffffffffffffffffffffff\n      mul\n      not\n      and\n      swap1\n      dup4\n      0xffffffffffffffffffffffffffffffffffffffff\n      and\n      mul\n      or\n      swap1\n      sstore\n      pop\n        /* \"contracts/stake_reward_MLM.sol\":4562:4574  DUSDinvestor */\n      0x08\n        /* \"contracts/stake_reward_MLM.sol\":4562:4585  DUSDinvestor[_referral] */\n      0x00\n        /* \"contracts/stake_reward_MLM.sol\":4575:4584  _referral */\n      dup5\n        /* \"contracts/stake_reward_MLM.sol\":4562:4585  DUSDinvestor[_referral] */\n      0xffffffffffffffffffffffffffffffffffffffff\n      and\n      0xffffffffffffffffffffffffffffffffffffffff\n      and\n      dup2\n      mstore\n      0x20\n      add\n      swap1\n      dup2\n      mstore\n      0x20\n      add\n      0x00\n      keccak256\n        /* \"contracts/stake_reward_MLM.sol\":4562:4598  DUSDinvestor[_referral].hisReferrals */\n      0x01\n      add\n        /* \"contracts/stake_reward_MLM.sol\":4604:4614  msg.sender */\n      caller\n        /* \"contracts/stake_reward_MLM.sol\":4562:4615  DUSDinvestor[_referral].hisReferrals.push(msg.sender) */\n      swap1\n      dup1\n      0x01\n      dup2\n      sload\n      add\n      dup1\n      dup3\n      sstore\n      dup1\n      swap2\n      pop\n      pop\n      0x01\n      swap1\n      sub\n      swap1\n      0x00\n      mstore\n      keccak256(0x00, 0x20)\n      add\n      0x00\n      swap1\n      swap2\n      swap1\n      swap2\n      swap1\n      swap2\n      0x0100\n      exp\n      dup2\n      sload\n      dup2\n      0xffffffffffffffffffffffffffffffffffffffff\n      mul\n      not\n      and\n      swap1\n      dup4\n      0xffffffffffffffffffffffffffffffffffffffff\n      and\n      mul\n      or\n      swap1\n      sstore\n      pop\n        /* \"contracts/stake_reward_MLM.sol\":4633:4686  sendRewardToDUSDReferrals(msg.sender,_investedamount) */\n      tag_121\n        /* \"contracts/stake_reward_MLM.sol\":4659:4669  msg.sender */\n      caller\n        /* \"contracts/stake_reward_MLM.sol\":4670:4685  _investedamount */\n      dup6\n        /* \"contracts/stake_reward_MLM.sol\":4633:4658  sendRewardToDUSDReferrals */\n      tag_122\n        /* \"contracts/stake_reward_MLM.sol\":4633:4686  sendRewardToDUSDReferrals(msg.sender,_investedamount) */\n      jump\t// in\n    tag_121:\n        /* \"contracts/stake_reward_MLM.sol\":4199:4795  if(_referral==address(0) || _referral==msg.sender )                                         //checking that investor comes from the referral link or not... */\n    tag_119:\n        /* \"contracts/stake_reward_MLM.sol\":4815:4819  true */\n      0x01\n        /* \"contracts/stake_reward_MLM.sol\":4808:4819  return true */\n      swap2\n      pop\n      pop\n        /* \"contracts/stake_reward_MLM.sol\":3073:4843  function Stake(uint _investedamount,address _referral) external returns(bool success){... */\n      swap3\n      swap2\n      pop\n      pop\n      jump\t// out\n        /* \"contracts/stake_reward_MLM.sol\":8729:8840  function set_min_Stake_amount(uint _amount) public ... */\n    tag_47:\n        /* \"contracts/stake_reward_MLM.sol\":8822:8829  _amount */\n      dup1\n        /* \"contracts/stake_reward_MLM.sol\":8803:8819  min_Stake_amount */\n      0x05\n        /* \"contracts/stake_reward_MLM.sol\":8803:8829  min_Stake_amount = _amount */\n      dup2\n      swap1\n      sstore\n      pop\n        /* \"contracts/stake_reward_MLM.sol\":8729:8840  function set_min_Stake_amount(uint _amount) public ... */\n      pop\n      jump\t// out\n        /* \"contracts/stake_reward_MLM.sol\":6597:7580  function getAllDUSDinvestments() public view returns (allInvestments[] memory) { //this function will return the all investments of the investor and withware date... */\n    tag_49:\n        /* \"contracts/stake_reward_MLM.sol\":6651:6674  allInvestments[] memory */\n      0x60\n        /* \"contracts/stake_reward_MLM.sol\":6772:6780  uint num */\n      0x00\n        /* \"contracts/stake_reward_MLM.sol\":6783:6795  DUSDinvestor */\n      0x08\n        /* \"contracts/stake_reward_MLM.sol\":6783:6807  DUSDinvestor[msg.sender] */\n      0x00\n        /* \"contracts/stake_reward_MLM.sol\":6796:6806  msg.sender */\n      caller\n        /* \"contracts/stake_reward_MLM.sol\":6783:6807  DUSDinvestor[msg.sender] */\n      0xffffffffffffffffffffffffffffffffffffffff\n      and\n      0xffffffffffffffffffffffffffffffffffffffff\n      and\n      dup2\n      mstore\n      0x20\n      add\n      swap1\n      dup2\n      mstore\n      0x20\n      add\n      0x00\n      keccak256\n        /* \"contracts/stake_reward_MLM.sol\":6783:6822  DUSDinvestor[msg.sender].noOfInvestment */\n      0x05\n      add\n      sload\n        /* \"contracts/stake_reward_MLM.sol\":6772:6822  uint num = DUSDinvestor[msg.sender].noOfInvestment */\n      swap1\n      pop\n        /* \"contracts/stake_reward_MLM.sol\":6836:6845  uint temp */\n      0x00\n        /* \"contracts/stake_reward_MLM.sol\":6859:6876  uint currentIndex */\n      dup1\n        /* \"contracts/stake_reward_MLM.sol\":6907:6913  uint i */\n      0x00\n        /* \"contracts/stake_reward_MLM.sol\":6903:7079  for(uint i=0;i<num;i++)... */\n    tag_125:\n        /* \"contracts/stake_reward_MLM.sol\":6918:6921  num */\n      dup4\n        /* \"contracts/stake_reward_MLM.sol\":6916:6917  i */\n      dup2\n        /* \"contracts/stake_reward_MLM.sol\":6916:6921  i<num */\n      lt\n        /* \"contracts/stake_reward_MLM.sol\":6903:7079  for(uint i=0;i<num;i++)... */\n      iszero\n      tag_126\n      jumpi\n        /* \"contracts/stake_reward_MLM.sol\":7016:7017  0 */\n      0x00\n        /* \"contracts/stake_reward_MLM.sol\":6960:6972  DUSDinvestor */\n      0x08\n        /* \"contracts/stake_reward_MLM.sol\":6960:6984  DUSDinvestor[msg.sender] */\n      0x00\n        /* \"contracts/stake_reward_MLM.sol\":6973:6983  msg.sender */\n      caller\n        /* \"contracts/stake_reward_MLM.sol\":6960:6984  DUSDinvestor[msg.sender] */\n      0xffffffffffffffffffffffffffffffffffffffff\n      and\n      0xffffffffffffffffffffffffffffffffffffffff\n      and\n      dup2\n      mstore\n      0x20\n      add\n      swap1\n      dup2\n      mstore\n      0x20\n      add\n      0x00\n      keccak256\n        /* \"contracts/stake_reward_MLM.sol\":6960:6995  DUSDinvestor[msg.sender].investment */\n      0x00\n      add\n        /* \"contracts/stake_reward_MLM.sol\":6960:6998  DUSDinvestor[msg.sender].investment[i] */\n      0x00\n        /* \"contracts/stake_reward_MLM.sol\":6996:6997  i */\n      dup4\n        /* \"contracts/stake_reward_MLM.sol\":6960:6998  DUSDinvestor[msg.sender].investment[i] */\n      dup2\n      mstore\n      0x20\n      add\n      swap1\n      dup2\n      mstore\n      0x20\n      add\n      0x00\n      keccak256\n        /* \"contracts/stake_reward_MLM.sol\":6960:7013  DUSDinvestor[msg.sender].investment[i].investedAmount */\n      0x00\n      add\n      sload\n        /* \"contracts/stake_reward_MLM.sol\":6960:7017  DUSDinvestor[msg.sender].investment[i].investedAmount > 0 */\n      gt\n        /* \"contracts/stake_reward_MLM.sol\":6956:7064  if( DUSDinvestor[msg.sender].investment[i].investedAmount > 0 ){... */\n      iszero\n      tag_128\n      jumpi\n        /* \"contracts/stake_reward_MLM.sol\":7040:7046  temp++ */\n      dup3\n      dup1\n      tag_129\n      swap1\n      tag_103\n      jump\t// in\n    tag_129:\n      swap4\n      pop\n      pop\n        /* \"contracts/stake_reward_MLM.sol\":6956:7064  if( DUSDinvestor[msg.sender].investment[i].investedAmount > 0 ){... */\n    tag_128:\n        /* \"contracts/stake_reward_MLM.sol\":6922:6925  i++ */\n      dup1\n      dup1\n      tag_130\n      swap1\n      tag_103\n      jump\t// in\n    tag_130:\n      swap2\n      pop\n      pop\n        /* \"contracts/stake_reward_MLM.sol\":6903:7079  for(uint i=0;i<num;i++)... */\n      jump(tag_125)\n    tag_126:\n      pop\n        /* \"contracts/stake_reward_MLM.sol\":7102:7134  allInvestments[] memory Invested */\n      0x00\n        /* \"contracts/stake_reward_MLM.sol\":7159:7163  temp */\n      dup3\n        /* \"contracts/stake_reward_MLM.sol\":7138:7164  new allInvestments[](temp) */\n      0xffffffffffffffff\n      dup2\n      gt\n      iszero\n      tag_131\n      jumpi\n      tag_132\n      tag_133\n      jump\t// in\n    tag_132:\n    tag_131:\n      mload(0x40)\n      swap1\n      dup1\n      dup3\n      mstore\n      dup1\n      0x20\n      mul\n      0x20\n      add\n      dup3\n      add\n      0x40\n      mstore\n      dup1\n      iszero\n      tag_134\n      jumpi\n      dup2\n      0x20\n      add\n    tag_135:\n      tag_136\n      tag_137\n      jump\t// in\n    tag_136:\n      dup2\n      mstore\n      0x20\n      add\n      swap1\n      0x01\n      swap1\n      sub\n      swap1\n      dup2\n      tag_135\n      jumpi\n      swap1\n      pop\n    tag_134:\n      pop\n        /* \"contracts/stake_reward_MLM.sol\":7102:7164  allInvestments[] memory Invested =  new allInvestments[](temp) */\n      swap1\n      pop\n        /* \"contracts/stake_reward_MLM.sol\":7184:7190  uint i */\n      0x00\n        /* \"contracts/stake_reward_MLM.sol\":7180:7540  for(uint i=0;i<num;i++)... */\n    tag_138:\n        /* \"contracts/stake_reward_MLM.sol\":7195:7198  num */\n      dup5\n        /* \"contracts/stake_reward_MLM.sol\":7193:7194  i */\n      dup2\n        /* \"contracts/stake_reward_MLM.sol\":7193:7198  i<num */\n      lt\n        /* \"contracts/stake_reward_MLM.sol\":7180:7540  for(uint i=0;i<num;i++)... */\n      iszero\n      tag_139\n      jumpi\n        /* \"contracts/stake_reward_MLM.sol\":7293:7294  0 */\n      0x00\n        /* \"contracts/stake_reward_MLM.sol\":7237:7249  DUSDinvestor */\n      0x08\n        /* \"contracts/stake_reward_MLM.sol\":7237:7261  DUSDinvestor[msg.sender] */\n      0x00\n        /* \"contracts/stake_reward_MLM.sol\":7250:7260  msg.sender */\n      caller\n        /* \"contracts/stake_reward_MLM.sol\":7237:7261  DUSDinvestor[msg.sender] */\n      0xffffffffffffffffffffffffffffffffffffffff\n      and\n      0xffffffffffffffffffffffffffffffffffffffff\n      and\n      dup2\n      mstore\n      0x20\n      add\n      swap1\n      dup2\n      mstore\n      0x20\n      add\n      0x00\n      keccak256\n        /* \"contracts/stake_reward_MLM.sol\":7237:7272  DUSDinvestor[msg.sender].investment */\n      0x00\n      add\n        /* \"contracts/stake_reward_MLM.sol\":7237:7275  DUSDinvestor[msg.sender].investment[i] */\n      0x00\n        /* \"contracts/stake_reward_MLM.sol\":7273:7274  i */\n      dup4\n        /* \"contracts/stake_reward_MLM.sol\":7237:7275  DUSDinvestor[msg.sender].investment[i] */\n      dup2\n      mstore\n      0x20\n      add\n      swap1\n      dup2\n      mstore\n      0x20\n      add\n      0x00\n      keccak256\n        /* \"contracts/stake_reward_MLM.sol\":7237:7290  DUSDinvestor[msg.sender].investment[i].investedAmount */\n      0x00\n      add\n      sload\n        /* \"contracts/stake_reward_MLM.sol\":7237:7294  DUSDinvestor[msg.sender].investment[i].investedAmount > 0 */\n      gt\n        /* \"contracts/stake_reward_MLM.sol\":7233:7525  if( DUSDinvestor[msg.sender].investment[i].investedAmount > 0 ){... */\n      iszero\n      tag_141\n      jumpi\n        /* \"contracts/stake_reward_MLM.sol\":7434:7446  DUSDinvestor */\n      0x08\n        /* \"contracts/stake_reward_MLM.sol\":7434:7458  DUSDinvestor[msg.sender] */\n      0x00\n        /* \"contracts/stake_reward_MLM.sol\":7447:7457  msg.sender */\n      caller\n        /* \"contracts/stake_reward_MLM.sol\":7434:7458  DUSDinvestor[msg.sender] */\n      0xffffffffffffffffffffffffffffffffffffffff\n      and\n      0xffffffffffffffffffffffffffffffffffffffff\n      and\n      dup2\n      mstore\n      0x20\n      add\n      swap1\n      dup2\n      mstore\n      0x20\n      add\n      0x00\n      keccak256\n        /* \"contracts/stake_reward_MLM.sol\":7434:7469  DUSDinvestor[msg.sender].investment */\n      0x00\n      add\n        /* \"contracts/stake_reward_MLM.sol\":7434:7472  DUSDinvestor[msg.sender].investment[i] */\n      0x00\n        /* \"contracts/stake_reward_MLM.sol\":7470:7471  i */\n      dup3\n        /* \"contracts/stake_reward_MLM.sol\":7434:7472  DUSDinvestor[msg.sender].investment[i] */\n      dup2\n      mstore\n      0x20\n      add\n      swap1\n      dup2\n      mstore\n      0x20\n      add\n      0x00\n      keccak256\n        /* \"contracts/stake_reward_MLM.sol\":7411:7472  Invested[currentIndex]=DUSDinvestor[msg.sender].investment[i] */\n      mload(0x40)\n      dup1\n      0x80\n      add\n      0x40\n      mstore\n      swap1\n      dup2\n      0x00\n      dup3\n      add\n      sload\n      dup2\n      mstore\n      0x20\n      add\n      0x01\n      dup3\n      add\n      sload\n      dup2\n      mstore\n      0x20\n      add\n      0x02\n      dup3\n      add\n      sload\n      dup2\n      mstore\n      0x20\n      add\n      0x03\n      dup3\n      add\n      sload\n      dup2\n      mstore\n      pop\n      pop\n        /* \"contracts/stake_reward_MLM.sol\":7411:7419  Invested */\n      dup3\n        /* \"contracts/stake_reward_MLM.sol\":7420:7432  currentIndex */\n      dup5\n        /* \"contracts/stake_reward_MLM.sol\":7411:7433  Invested[currentIndex] */\n      dup2\n      mload\n      dup2\n      lt\n      tag_142\n      jumpi\n      tag_143\n      tag_144\n      jump\t// in\n    tag_143:\n    tag_142:\n      0x20\n      mul\n      0x20\n      add\n      add\n        /* \"contracts/stake_reward_MLM.sol\":7411:7472  Invested[currentIndex]=DUSDinvestor[msg.sender].investment[i] */\n      dup2\n      swap1\n      mstore\n      pop\n        /* \"contracts/stake_reward_MLM.sol\":7493:7507  currentIndex++ */\n      dup3\n      dup1\n      tag_145\n      swap1\n      tag_103\n      jump\t// in\n    tag_145:\n      swap4\n      pop\n      pop\n        /* \"contracts/stake_reward_MLM.sol\":7233:7525  if( DUSDinvestor[msg.sender].investment[i].investedAmount > 0 ){... */\n    tag_141:\n        /* \"contracts/stake_reward_MLM.sol\":7199:7202  i++ */\n      dup1\n      dup1\n      tag_146\n      swap1\n      tag_103\n      jump\t// in\n    tag_146:\n      swap2\n      pop\n      pop\n        /* \"contracts/stake_reward_MLM.sol\":7180:7540  for(uint i=0;i<num;i++)... */\n      jump(tag_138)\n    tag_139:\n      pop\n        /* \"contracts/stake_reward_MLM.sol\":7560:7568  Invested */\n      dup1\n        /* \"contracts/stake_reward_MLM.sol\":7553:7568  return Invested */\n      swap5\n      pop\n      pop\n      pop\n      pop\n      pop\n        /* \"contracts/stake_reward_MLM.sol\":6597:7580  function getAllDUSDinvestments() public view returns (allInvestments[] memory) { //this function will return the all investments of the investor and withware date... */\n      swap1\n      jump\t// out\n        /* \"contracts/stake_reward_MLM.sol\":7590:8196  function getReward() view public returns(uint){ //this function is get the total reward balance of the investor... */\n    tag_53:\n        /* \"contracts/stake_reward_MLM.sol\":7631:7635  uint */\n      0x00\n        /* \"contracts/stake_reward_MLM.sol\":7714:7730  uint totalReward */\n      dup1\n        /* \"contracts/stake_reward_MLM.sol\":7744:7756  uint depTime */\n      0x00\n        /* \"contracts/stake_reward_MLM.sol\":7770:7779  uint temp */\n      dup1\n        /* \"contracts/stake_reward_MLM.sol\":7782:7794  DUSDinvestor */\n      0x08\n        /* \"contracts/stake_reward_MLM.sol\":7782:7806  DUSDinvestor[msg.sender] */\n      0x00\n        /* \"contracts/stake_reward_MLM.sol\":7795:7805  msg.sender */\n      caller\n        /* \"contracts/stake_reward_MLM.sol\":7782:7806  DUSDinvestor[msg.sender] */\n      0xffffffffffffffffffffffffffffffffffffffff\n      and\n      0xffffffffffffffffffffffffffffffffffffffff\n      and\n      dup2\n      mstore\n      0x20\n      add\n      swap1\n      dup2\n      mstore\n      0x20\n      add\n      0x00\n      keccak256\n        /* \"contracts/stake_reward_MLM.sol\":7782:7821  DUSDinvestor[msg.sender].noOfInvestment */\n      0x05\n      add\n      sload\n        /* \"contracts/stake_reward_MLM.sol\":7770:7821  uint temp = DUSDinvestor[msg.sender].noOfInvestment */\n      swap1\n      pop\n        /* \"contracts/stake_reward_MLM.sol\":7839:7845  uint i */\n      0x00\n        /* \"contracts/stake_reward_MLM.sol\":7835:8154  for(uint i=0;i < temp;i++)... */\n    tag_148:\n        /* \"contracts/stake_reward_MLM.sol\":7852:7856  temp */\n      dup2\n        /* \"contracts/stake_reward_MLM.sol\":7848:7849  i */\n      dup2\n        /* \"contracts/stake_reward_MLM.sol\":7848:7856  i < temp */\n      lt\n        /* \"contracts/stake_reward_MLM.sol\":7835:8154  for(uint i=0;i < temp;i++)... */\n      iszero\n      tag_149\n      jumpi\n        /* \"contracts/stake_reward_MLM.sol\":7922:7934  DUSDinvestor */\n      0x08\n        /* \"contracts/stake_reward_MLM.sol\":7922:7946  DUSDinvestor[msg.sender] */\n      0x00\n        /* \"contracts/stake_reward_MLM.sol\":7935:7945  msg.sender */\n      caller\n        /* \"contracts/stake_reward_MLM.sol\":7922:7946  DUSDinvestor[msg.sender] */\n      0xffffffffffffffffffffffffffffffffffffffff\n      and\n      0xffffffffffffffffffffffffffffffffffffffff\n      and\n      dup2\n      mstore\n      0x20\n      add\n      swap1\n      dup2\n      mstore\n      0x20\n      add\n      0x00\n      keccak256\n        /* \"contracts/stake_reward_MLM.sol\":7922:7957  DUSDinvestor[msg.sender].investment */\n      0x00\n      add\n        /* \"contracts/stake_reward_MLM.sol\":7922:7960  DUSDinvestor[msg.sender].investment[i] */\n      0x00\n        /* \"contracts/stake_reward_MLM.sol\":7958:7959  i */\n      dup3\n        /* \"contracts/stake_reward_MLM.sol\":7922:7960  DUSDinvestor[msg.sender].investment[i] */\n      dup2\n      mstore\n      0x20\n      add\n      swap1\n      dup2\n      mstore\n      0x20\n      add\n      0x00\n      keccak256\n        /* \"contracts/stake_reward_MLM.sol\":7922:7972  DUSDinvestor[msg.sender].investment[i].DepositTime */\n      0x02\n      add\n      sload\n        /* \"contracts/stake_reward_MLM.sol\":7904:7919  block.timestamp */\n      timestamp\n        /* \"contracts/stake_reward_MLM.sol\":7904:7972  block.timestamp - DUSDinvestor[msg.sender].investment[i].DepositTime */\n      tag_151\n      swap2\n      swap1\n      tag_152\n      jump\t// in\n    tag_151:\n        /* \"contracts/stake_reward_MLM.sol\":7895:7972  depTime =block.timestamp - DUSDinvestor[msg.sender].investment[i].DepositTime */\n      swap3\n      pop\n        /* \"contracts/stake_reward_MLM.sol\":8006:8008  60 */\n      0x3c\n        /* \"contracts/stake_reward_MLM.sol\":7998:8005  depTime */\n      dup4\n        /* \"contracts/stake_reward_MLM.sol\":7998:8008  depTime/60 */\n      tag_153\n      swap2\n      swap1\n      tag_154\n      jump\t// in\n    tag_153:\n        /* \"contracts/stake_reward_MLM.sol\":7990:8008  depTime=depTime/60 */\n      swap3\n      pop\n        /* \"contracts/stake_reward_MLM.sol\":8045:8046  0 */\n      0x00\n        /* \"contracts/stake_reward_MLM.sol\":8037:8044  depTime */\n      dup4\n        /* \"contracts/stake_reward_MLM.sol\":8037:8046  depTime>0 */\n      gt\n        /* \"contracts/stake_reward_MLM.sol\":8034:8139  if(depTime>0)... */\n      iszero\n      tag_155\n      jumpi\n        /* \"contracts/stake_reward_MLM.sol\":8109:8120  rewardToken */\n      sload(0x04)\n        /* \"contracts/stake_reward_MLM.sol\":8099:8106  depTime */\n      dup4\n        /* \"contracts/stake_reward_MLM.sol\":8099:8120  depTime * rewardToken */\n      tag_156\n      swap2\n      swap1\n      tag_109\n      jump\t// in\n    tag_156:\n        /* \"contracts/stake_reward_MLM.sol\":8085:8120  totalReward = depTime * rewardToken */\n      swap4\n      pop\n        /* \"contracts/stake_reward_MLM.sol\":8034:8139  if(depTime>0)... */\n    tag_155:\n        /* \"contracts/stake_reward_MLM.sol\":7857:7860  i++ */\n      dup1\n      dup1\n      tag_157\n      swap1\n      tag_103\n      jump\t// in\n    tag_157:\n      swap2\n      pop\n      pop\n        /* \"contracts/stake_reward_MLM.sol\":7835:8154  for(uint i=0;i < temp;i++)... */\n      jump(tag_148)\n    tag_149:\n      pop\n        /* \"contracts/stake_reward_MLM.sol\":8174:8185  totalReward */\n      dup3\n        /* \"contracts/stake_reward_MLM.sol\":8167:8185  return totalReward */\n      swap4\n      pop\n      pop\n      pop\n      pop\n        /* \"contracts/stake_reward_MLM.sol\":7590:8196  function getReward() view public returns(uint){ //this function is get the total reward balance of the investor... */\n      swap1\n      jump\t// out\n        /* \"contracts/stake_reward_MLM.sol\":8849:8960  function set_max_Stake_amount(uint _amount) public ... */\n    tag_57:\n        /* \"contracts/stake_reward_MLM.sol\":8942:8949  _amount */\n      dup1\n        /* \"contracts/stake_reward_MLM.sol\":8923:8939  max_Stake_amount */\n      0x06\n        /* \"contracts/stake_reward_MLM.sol\":8923:8949  max_Stake_amount = _amount */\n      dup2\n      swap1\n      sstore\n      pop\n        /* \"contracts/stake_reward_MLM.sol\":8849:8960  function set_max_Stake_amount(uint _amount) public ... */\n      pop\n      jump\t// out\n        /* \"contracts/stake_reward_MLM.sol\":5271:6367  function unStake(uint _id) external  returns (bool success){... */\n    tag_60:\n        /* \"contracts/stake_reward_MLM.sol\":5317:5329  bool success */\n      0x00\n        /* \"contracts/stake_reward_MLM.sol\":5408:5409  0 */\n      dup1\n        /* \"contracts/stake_reward_MLM.sol\":5352:5364  DUSDinvestor */\n      0x08\n        /* \"contracts/stake_reward_MLM.sol\":5352:5376  DUSDinvestor[msg.sender] */\n      0x00\n        /* \"contracts/stake_reward_MLM.sol\":5365:5375  msg.sender */\n      caller\n        /* \"contracts/stake_reward_MLM.sol\":5352:5376  DUSDinvestor[msg.sender] */\n      0xffffffffffffffffffffffffffffffffffffffff\n      and\n      0xffffffffffffffffffffffffffffffffffffffff\n      and\n      dup2\n      mstore\n      0x20\n      add\n      swap1\n      dup2\n      mstore\n      0x20\n      add\n      0x00\n      keccak256\n        /* \"contracts/stake_reward_MLM.sol\":5352:5387  DUSDinvestor[msg.sender].investment */\n      0x00\n      add\n        /* \"contracts/stake_reward_MLM.sol\":5352:5392  DUSDinvestor[msg.sender].investment[_id] */\n      0x00\n        /* \"contracts/stake_reward_MLM.sol\":5388:5391  _id */\n      dup5\n        /* \"contracts/stake_reward_MLM.sol\":5352:5392  DUSDinvestor[msg.sender].investment[_id] */\n      dup2\n      mstore\n      0x20\n      add\n      swap1\n      dup2\n      mstore\n      0x20\n      add\n      0x00\n      keccak256\n        /* \"contracts/stake_reward_MLM.sol\":5352:5407  DUSDinvestor[msg.sender].investment[_id].investedAmount */\n      0x00\n      add\n      sload\n        /* \"contracts/stake_reward_MLM.sol\":5352:5409  DUSDinvestor[msg.sender].investment[_id].investedAmount>0 */\n      gt\n        /* \"contracts/stake_reward_MLM.sol\":5344:5450  require(DUSDinvestor[msg.sender].investment[_id].investedAmount>0,\"you dont have investment to withdrawn\") */\n      tag_160\n      jumpi\n      mload(0x40)\n      0x08c379a000000000000000000000000000000000000000000000000000000000\n      dup2\n      mstore\n      0x04\n      add\n      tag_161\n      swap1\n      tag_162\n      jump\t// in\n    tag_161:\n      mload(0x40)\n      dup1\n      swap2\n      sub\n      swap1\n      revert\n    tag_160:\n        /* \"contracts/stake_reward_MLM.sol\":5522:5533  uint amount */\n      0x00\n        /* \"contracts/stake_reward_MLM.sol\":5534:5546  DUSDinvestor */\n      0x08\n        /* \"contracts/stake_reward_MLM.sol\":5534:5558  DUSDinvestor[msg.sender] */\n      0x00\n        /* \"contracts/stake_reward_MLM.sol\":5547:5557  msg.sender */\n      caller\n        /* \"contracts/stake_reward_MLM.sol\":5534:5558  DUSDinvestor[msg.sender] */\n      0xffffffffffffffffffffffffffffffffffffffff\n      and\n      0xffffffffffffffffffffffffffffffffffffffff\n      and\n      dup2\n      mstore\n      0x20\n      add\n      swap1\n      dup2\n      mstore\n      0x20\n      add\n      0x00\n      keccak256\n        /* \"contracts/stake_reward_MLM.sol\":5534:5569  DUSDinvestor[msg.sender].investment */\n      0x00\n      add\n        /* \"contracts/stake_reward_MLM.sol\":5534:5574  DUSDinvestor[msg.sender].investment[_id] */\n      0x00\n        /* \"contracts/stake_reward_MLM.sol\":5570:5573  _id */\n      dup5\n        /* \"contracts/stake_reward_MLM.sol\":5534:5574  DUSDinvestor[msg.sender].investment[_id] */\n      dup2\n      mstore\n      0x20\n      add\n      swap1\n      dup2\n      mstore\n      0x20\n      add\n      0x00\n      keccak256\n        /* \"contracts/stake_reward_MLM.sol\":5534:5589  DUSDinvestor[msg.sender].investment[_id].investedAmount */\n      0x00\n      add\n      sload\n        /* \"contracts/stake_reward_MLM.sol\":5522:5589  uint amount=DUSDinvestor[msg.sender].investment[_id].investedAmount */\n      swap1\n      pop\n        /* \"contracts/stake_reward_MLM.sol\":5663:5678  block.timestamp */\n      timestamp\n        /* \"contracts/stake_reward_MLM.sol\":5606:5618  DUSDinvestor */\n      0x08\n        /* \"contracts/stake_reward_MLM.sol\":5606:5630  DUSDinvestor[msg.sender] */\n      0x00\n        /* \"contracts/stake_reward_MLM.sol\":5619:5629  msg.sender */\n      caller\n        /* \"contracts/stake_reward_MLM.sol\":5606:5630  DUSDinvestor[msg.sender] */\n      0xffffffffffffffffffffffffffffffffffffffff\n      and\n      0xffffffffffffffffffffffffffffffffffffffff\n      and\n      dup2\n      mstore\n      0x20\n      add\n      swap1\n      dup2\n      mstore\n      0x20\n      add\n      0x00\n      keccak256\n        /* \"contracts/stake_reward_MLM.sol\":5606:5641  DUSDinvestor[msg.sender].investment */\n      0x00\n      add\n        /* \"contracts/stake_reward_MLM.sol\":5606:5646  DUSDinvestor[msg.sender].investment[_id] */\n      0x00\n        /* \"contracts/stake_reward_MLM.sol\":5642:5645  _id */\n      dup6\n        /* \"contracts/stake_reward_MLM.sol\":5606:5646  DUSDinvestor[msg.sender].investment[_id] */\n      dup2\n      mstore\n      0x20\n      add\n      swap1\n      dup2\n      mstore\n      0x20\n      add\n      0x00\n      keccak256\n        /* \"contracts/stake_reward_MLM.sol\":5606:5660  DUSDinvestor[msg.sender].investment[_id].withdrawnTime */\n      0x01\n      add\n      sload\n        /* \"contracts/stake_reward_MLM.sol\":5606:5678  DUSDinvestor[msg.sender].investment[_id].withdrawnTime > block.timestamp */\n      gt\n        /* \"contracts/stake_reward_MLM.sol\":5603:5742  if(DUSDinvestor[msg.sender].investment[_id].withdrawnTime > block.timestamp)... */\n      iszero\n      tag_163\n      jumpi\n        /* \"contracts/stake_reward_MLM.sol\":5726:5727  2 */\n      0x02\n        /* \"contracts/stake_reward_MLM.sol\":5719:5725  amount */\n      dup2\n        /* \"contracts/stake_reward_MLM.sol\":5719:5727  amount/2 */\n      tag_164\n      swap2\n      swap1\n      tag_154\n      jump\t// in\n    tag_164:\n        /* \"contracts/stake_reward_MLM.sol\":5710:5727  amount = amount/2 */\n      swap1\n      pop\n        /* \"contracts/stake_reward_MLM.sol\":5603:5742  if(DUSDinvestor[msg.sender].investment[_id].withdrawnTime > block.timestamp)... */\n    tag_163:\n        /* \"contracts/stake_reward_MLM.sol\":5773:5784  SMCcontract */\n      0x01\n      0x00\n      swap1\n      sload\n      swap1\n      0x0100\n      exp\n      swap1\n      div\n      0xffffffffffffffffffffffffffffffffffffffff\n      and\n        /* \"contracts/stake_reward_MLM.sol\":5768:5794  DUSD(SMCcontract).transfer */\n      0xffffffffffffffffffffffffffffffffffffffff\n      and\n      0xa9059cbb\n        /* \"contracts/stake_reward_MLM.sol\":5795:5805  msg.sender */\n      caller\n        /* \"contracts/stake_reward_MLM.sol\":5806:5812  amount */\n      dup4\n        /* \"contracts/stake_reward_MLM.sol\":5768:5813  DUSD(SMCcontract).transfer(msg.sender,amount) */\n      mload(0x40)\n      dup4\n      0xffffffff\n      and\n      0xe0\n      shl\n      dup2\n      mstore\n      0x04\n      add\n      tag_165\n      swap3\n      swap2\n      swap1\n      tag_166\n      jump\t// in\n    tag_165:\n      0x20\n      mload(0x40)\n      dup1\n      dup4\n      sub\n      dup2\n      0x00\n      dup8\n      dup1\n      extcodesize\n      iszero\n      dup1\n      iszero\n      tag_167\n      jumpi\n      0x00\n      dup1\n      revert\n    tag_167:\n      pop\n      gas\n      call\n      iszero\n      dup1\n      iszero\n      tag_169\n      jumpi\n      returndatasize\n      0x00\n      dup1\n      returndatacopy\n      revert(0x00, returndatasize)\n    tag_169:\n      pop\n      pop\n      pop\n      pop\n      mload(0x40)\n      returndatasize\n      not(0x1f)\n      0x1f\n      dup3\n      add\n      and\n      dup3\n      add\n      dup1\n      0x40\n      mstore\n      pop\n      dup2\n      add\n      swap1\n      tag_170\n      swap2\n      swap1\n      tag_116\n      jump\t// in\n    tag_170:\n      pop\n        /* \"contracts/stake_reward_MLM.sol\":5900:5911  SMCcontract */\n      0x01\n      0x00\n      swap1\n      sload\n      swap1\n      0x0100\n      exp\n      swap1\n      div\n      0xffffffffffffffffffffffffffffffffffffffff\n      and\n        /* \"contracts/stake_reward_MLM.sol\":5895:5921  DUSD(SMCcontract).transfer */\n      0xffffffffffffffffffffffffffffffffffffffff\n      and\n      0xa9059cbb\n        /* \"contracts/stake_reward_MLM.sol\":5922:5927  owner */\n      0x00\n      dup1\n      sload\n      swap1\n      0x0100\n      exp\n      swap1\n      div\n      0xffffffffffffffffffffffffffffffffffffffff\n      and\n        /* \"contracts/stake_reward_MLM.sol\":5928:5934  amount */\n      dup4\n        /* \"contracts/stake_reward_MLM.sol\":5895:5935  DUSD(SMCcontract).transfer(owner,amount) */\n      mload(0x40)\n      dup4\n      0xffffffff\n      and\n      0xe0\n      shl\n      dup2\n      mstore\n      0x04\n      add\n      tag_171\n      swap3\n      swap2\n      swap1\n      tag_166\n      jump\t// in\n    tag_171:\n      0x20\n      mload(0x40)\n      dup1\n      dup4\n      sub\n      dup2\n      0x00\n      dup8\n      dup1\n      extcodesize\n      iszero\n      dup1\n      iszero\n      tag_172\n      jumpi\n      0x00\n      dup1\n      revert\n    tag_172:\n      pop\n      gas\n      call\n      iszero\n      dup1\n      iszero\n      tag_174\n      jumpi\n      returndatasize\n      0x00\n      dup1\n      returndatacopy\n      revert(0x00, returndatasize)\n    tag_174:\n      pop\n      pop\n      pop\n      pop\n      mload(0x40)\n      returndatasize\n      not(0x1f)\n      0x1f\n      dup3\n      add\n      and\n      dup3\n      add\n      dup1\n      0x40\n      mstore\n      pop\n      dup2\n      add\n      swap1\n      tag_175\n      swap2\n      swap1\n      tag_116\n      jump\t// in\n    tag_175:\n      pop\n        /* \"contracts/stake_reward_MLM.sol\":6074:6075  0 */\n      0x00\n        /* \"contracts/stake_reward_MLM.sol\":6018:6030  DUSDinvestor */\n      0x08\n        /* \"contracts/stake_reward_MLM.sol\":6018:6042  DUSDinvestor[msg.sender] */\n      0x00\n        /* \"contracts/stake_reward_MLM.sol\":6031:6041  msg.sender */\n      caller\n        /* \"contracts/stake_reward_MLM.sol\":6018:6042  DUSDinvestor[msg.sender] */\n      0xffffffffffffffffffffffffffffffffffffffff\n      and\n      0xffffffffffffffffffffffffffffffffffffffff\n      and\n      dup2\n      mstore\n      0x20\n      add\n      swap1\n      dup2\n      mstore\n      0x20\n      add\n      0x00\n      keccak256\n        /* \"contracts/stake_reward_MLM.sol\":6018:6053  DUSDinvestor[msg.sender].investment */\n      0x00\n      add\n        /* \"contracts/stake_reward_MLM.sol\":6018:6058  DUSDinvestor[msg.sender].investment[_id] */\n      0x00\n        /* \"contracts/stake_reward_MLM.sol\":6054:6057  _id */\n      dup6\n        /* \"contracts/stake_reward_MLM.sol\":6018:6058  DUSDinvestor[msg.sender].investment[_id] */\n      dup2\n      mstore\n      0x20\n      add\n      swap1\n      dup2\n      mstore\n      0x20\n      add\n      0x00\n      keccak256\n        /* \"contracts/stake_reward_MLM.sol\":6018:6073  DUSDinvestor[msg.sender].investment[_id].investedAmount */\n      0x00\n      add\n        /* \"contracts/stake_reward_MLM.sol\":6018:6075  DUSDinvestor[msg.sender].investment[_id].investedAmount=0 */\n      dup2\n      swap1\n      sstore\n      pop\n        /* \"contracts/stake_reward_MLM.sol\":6254:6260  amount */\n      dup1\n        /* \"contracts/stake_reward_MLM.sol\":6212:6224  DUSDinvestor */\n      0x08\n        /* \"contracts/stake_reward_MLM.sol\":6212:6236  DUSDinvestor[msg.sender] */\n      0x00\n        /* \"contracts/stake_reward_MLM.sol\":6225:6235  msg.sender */\n      caller\n        /* \"contracts/stake_reward_MLM.sol\":6212:6236  DUSDinvestor[msg.sender] */\n      0xffffffffffffffffffffffffffffffffffffffff\n      and\n      0xffffffffffffffffffffffffffffffffffffffff\n      and\n      dup2\n      mstore\n      0x20\n      add\n      swap1\n      dup2\n      mstore\n      0x20\n      add\n      0x00\n      keccak256\n        /* \"contracts/stake_reward_MLM.sol\":6212:6252  DUSDinvestor[msg.sender].totalInvestment */\n      0x06\n      add\n      0x00\n        /* \"contracts/stake_reward_MLM.sol\":6212:6260  DUSDinvestor[msg.sender].totalInvestment-=amount */\n      dup3\n      dup3\n      sload\n      tag_176\n      swap2\n      swap1\n      tag_152\n      jump\t// in\n    tag_176:\n      swap3\n      pop\n      pop\n      dup2\n      swap1\n      sstore\n      pop\n        /* \"contracts/stake_reward_MLM.sol\":6351:6355  true */\n      0x01\n        /* \"contracts/stake_reward_MLM.sol\":6344:6355  return true */\n      swap2\n      pop\n      pop\n        /* \"contracts/stake_reward_MLM.sol\":5271:6367  function unStake(uint _id) external  returns (bool success){... */\n      swap2\n      swap1\n      pop\n      jump\t// out\n        /* \"contracts/stake_reward_MLM.sol\":300:321  address  public owner */\n    tag_63:\n      0x00\n      dup1\n      sload\n      swap1\n      0x0100\n      exp\n      swap1\n      div\n      0xffffffffffffffffffffffffffffffffffffffff\n      and\n      dup2\n      jump\t// out\n        /* \"contracts/stake_reward_MLM.sol\":6377:6587  function getTotalInvestmentDUSD() public view returns(uint) {   //this function is to get the total investment of the ivestor... */\n    tag_67:\n        /* \"contracts/stake_reward_MLM.sol\":6431:6435  uint */\n      0x00\n        /* \"contracts/stake_reward_MLM.sol\":6535:6547  DUSDinvestor */\n      0x08\n        /* \"contracts/stake_reward_MLM.sol\":6535:6559  DUSDinvestor[msg.sender] */\n      0x00\n        /* \"contracts/stake_reward_MLM.sol\":6548:6558  msg.sender */\n      caller\n        /* \"contracts/stake_reward_MLM.sol\":6535:6559  DUSDinvestor[msg.sender] */\n      0xffffffffffffffffffffffffffffffffffffffff\n      and\n      0xffffffffffffffffffffffffffffffffffffffff\n      and\n      dup2\n      mstore\n      0x20\n      add\n      swap1\n      dup2\n      mstore\n      0x20\n      add\n      0x00\n      keccak256\n        /* \"contracts/stake_reward_MLM.sol\":6535:6575  DUSDinvestor[msg.sender].totalInvestment */\n      0x06\n      add\n      sload\n        /* \"contracts/stake_reward_MLM.sol\":6528:6575  return DUSDinvestor[msg.sender].totalInvestment */\n      swap1\n      pop\n        /* \"contracts/stake_reward_MLM.sol\":6377:6587  function getTotalInvestmentDUSD() public view returns(uint) {   //this function is to get the total investment of the ivestor... */\n      swap1\n      jump\t// out\n        /* \"contracts/stake_reward_MLM.sol\":9386:10134  function referralLevel_earning() public view returns( ref_data[] memory arr )... */\n    tag_70:\n        /* \"contracts/stake_reward_MLM.sol\":9440:9461  ref_data[] memory arr */\n      0x60\n        /* \"contracts/stake_reward_MLM.sol\":9486:9525  ref_data[] memory referralLevels_reward */\n      0x00\n        /* \"contracts/stake_reward_MLM.sol\":9541:9543  20 */\n      0x14\n        /* \"contracts/stake_reward_MLM.sol\":9526:9544  new ref_data[](20) */\n      0xffffffffffffffff\n      dup2\n      gt\n      iszero\n      tag_179\n      jumpi\n      tag_180\n      tag_133\n      jump\t// in\n    tag_180:\n    tag_179:\n      mload(0x40)\n      swap1\n      dup1\n      dup3\n      mstore\n      dup1\n      0x20\n      mul\n      0x20\n      add\n      dup3\n      add\n      0x40\n      mstore\n      dup1\n      iszero\n      tag_181\n      jumpi\n      dup2\n      0x20\n      add\n    tag_182:\n      tag_183\n      tag_184\n      jump\t// in\n    tag_183:\n      dup2\n      mstore\n      0x20\n      add\n      swap1\n      0x01\n      swap1\n      sub\n      swap1\n      dup2\n      tag_182\n      jumpi\n      swap1\n      pop\n    tag_181:\n      pop\n        /* \"contracts/stake_reward_MLM.sol\":9486:9544  ref_data[] memory referralLevels_reward=new ref_data[](20) */\n      swap1\n      pop\n        /* \"contracts/stake_reward_MLM.sol\":9562:9568  uint i */\n      0x00\n        /* \"contracts/stake_reward_MLM.sol\":9558:10079  for(uint i=0;i<20;i++)... */\n    tag_185:\n        /* \"contracts/stake_reward_MLM.sol\":9573:9575  20 */\n      0x14\n        /* \"contracts/stake_reward_MLM.sol\":9571:9572  i */\n      dup2\n        /* \"contracts/stake_reward_MLM.sol\":9571:9575  i<20 */\n      lt\n        /* \"contracts/stake_reward_MLM.sol\":9558:10079  for(uint i=0;i<20;i++)... */\n      iszero\n      tag_186\n      jumpi\n        /* \"contracts/stake_reward_MLM.sol\":9663:9664  0 */\n      0x00\n        /* \"contracts/stake_reward_MLM.sol\":9614:9626  DUSDinvestor */\n      0x08\n        /* \"contracts/stake_reward_MLM.sol\":9614:9638  DUSDinvestor[msg.sender] */\n      0x00\n        /* \"contracts/stake_reward_MLM.sol\":9627:9637  msg.sender */\n      caller\n        /* \"contracts/stake_reward_MLM.sol\":9614:9638  DUSDinvestor[msg.sender] */\n      0xffffffffffffffffffffffffffffffffffffffff\n      and\n      0xffffffffffffffffffffffffffffffffffffffff\n      and\n      dup2\n      mstore\n      0x20\n      add\n      swap1\n      dup2\n      mstore\n      0x20\n      add\n      0x00\n      keccak256\n        /* \"contracts/stake_reward_MLM.sol\":9614:9652  DUSDinvestor[msg.sender].referralLevel */\n      0x03\n      add\n        /* \"contracts/stake_reward_MLM.sol\":9614:9655  DUSDinvestor[msg.sender].referralLevel[i] */\n      0x00\n        /* \"contracts/stake_reward_MLM.sol\":9653:9654  i */\n      dup4\n        /* \"contracts/stake_reward_MLM.sol\":9614:9655  DUSDinvestor[msg.sender].referralLevel[i] */\n      dup2\n      mstore\n      0x20\n      add\n      swap1\n      dup2\n      mstore\n      0x20\n      add\n      0x00\n      keccak256\n        /* \"contracts/stake_reward_MLM.sol\":9614:9662  DUSDinvestor[msg.sender].referralLevel[i].reward */\n      0x00\n      add\n      sload\n        /* \"contracts/stake_reward_MLM.sol\":9614:9664  DUSDinvestor[msg.sender].referralLevel[i].reward>0 */\n      gt\n        /* \"contracts/stake_reward_MLM.sol\":9611:10063  if(DUSDinvestor[msg.sender].referralLevel[i].reward>0)... */\n      iszero\n      tag_188\n      jumpi\n        /* \"contracts/stake_reward_MLM.sol\":9738:9750  DUSDinvestor */\n      0x08\n        /* \"contracts/stake_reward_MLM.sol\":9738:9762  DUSDinvestor[msg.sender] */\n      0x00\n        /* \"contracts/stake_reward_MLM.sol\":9751:9761  msg.sender */\n      caller\n        /* \"contracts/stake_reward_MLM.sol\":9738:9762  DUSDinvestor[msg.sender] */\n      0xffffffffffffffffffffffffffffffffffffffff\n      and\n      0xffffffffffffffffffffffffffffffffffffffff\n      and\n      dup2\n      mstore\n      0x20\n      add\n      swap1\n      dup2\n      mstore\n      0x20\n      add\n      0x00\n      keccak256\n        /* \"contracts/stake_reward_MLM.sol\":9738:9776  DUSDinvestor[msg.sender].referralLevel */\n      0x03\n      add\n        /* \"contracts/stake_reward_MLM.sol\":9738:9779  DUSDinvestor[msg.sender].referralLevel[i] */\n      0x00\n        /* \"contracts/stake_reward_MLM.sol\":9777:9778  i */\n      dup3\n        /* \"contracts/stake_reward_MLM.sol\":9738:9779  DUSDinvestor[msg.sender].referralLevel[i] */\n      dup2\n      mstore\n      0x20\n      add\n      swap1\n      dup2\n      mstore\n      0x20\n      add\n      0x00\n      keccak256\n        /* \"contracts/stake_reward_MLM.sol\":9738:9786  DUSDinvestor[msg.sender].referralLevel[i].reward */\n      0x00\n      add\n      sload\n        /* \"contracts/stake_reward_MLM.sol\":9704:9725  referralLevels_reward */\n      dup3\n        /* \"contracts/stake_reward_MLM.sol\":9726:9727  i */\n      dup3\n        /* \"contracts/stake_reward_MLM.sol\":9704:9728  referralLevels_reward[i] */\n      dup2\n      mload\n      dup2\n      lt\n      tag_189\n      jumpi\n      tag_190\n      tag_144\n      jump\t// in\n    tag_190:\n    tag_189:\n      0x20\n      mul\n      0x20\n      add\n      add\n      mload\n        /* \"contracts/stake_reward_MLM.sol\":9704:9735  referralLevels_reward[i].reward */\n      0x00\n      add\n        /* \"contracts/stake_reward_MLM.sol\":9704:9786  referralLevels_reward[i].reward = DUSDinvestor[msg.sender].referralLevel[i].reward */\n      dup2\n      dup2\n      mstore\n      pop\n      pop\n        /* \"contracts/stake_reward_MLM.sol\":9841:9853  DUSDinvestor */\n      0x08\n        /* \"contracts/stake_reward_MLM.sol\":9841:9865  DUSDinvestor[msg.sender] */\n      0x00\n        /* \"contracts/stake_reward_MLM.sol\":9854:9864  msg.sender */\n      caller\n        /* \"contracts/stake_reward_MLM.sol\":9841:9865  DUSDinvestor[msg.sender] */\n      0xffffffffffffffffffffffffffffffffffffffff\n      and\n      0xffffffffffffffffffffffffffffffffffffffff\n      and\n      dup2\n      mstore\n      0x20\n      add\n      swap1\n      dup2\n      mstore\n      0x20\n      add\n      0x00\n      keccak256\n        /* \"contracts/stake_reward_MLM.sol\":9841:9879  DUSDinvestor[msg.sender].referralLevel */\n      0x03\n      add\n        /* \"contracts/stake_reward_MLM.sol\":9841:9882  DUSDinvestor[msg.sender].referralLevel[i] */\n      0x00\n        /* \"contracts/stake_reward_MLM.sol\":9880:9881  i */\n      dup3\n        /* \"contracts/stake_reward_MLM.sol\":9841:9882  DUSDinvestor[msg.sender].referralLevel[i] */\n      dup2\n      mstore\n      0x20\n      add\n      swap1\n      dup2\n      mstore\n      0x20\n      add\n      0x00\n      keccak256\n        /* \"contracts/stake_reward_MLM.sol\":9841:9888  DUSDinvestor[msg.sender].referralLevel[i].count */\n      0x01\n      add\n      sload\n        /* \"contracts/stake_reward_MLM.sol\":9808:9829  referralLevels_reward */\n      dup3\n        /* \"contracts/stake_reward_MLM.sol\":9830:9831  i */\n      dup3\n        /* \"contracts/stake_reward_MLM.sol\":9808:9832  referralLevels_reward[i] */\n      dup2\n      mload\n      dup2\n      lt\n      tag_191\n      jumpi\n      tag_192\n      tag_144\n      jump\t// in\n    tag_192:\n    tag_191:\n      0x20\n      mul\n      0x20\n      add\n      add\n      mload\n        /* \"contracts/stake_reward_MLM.sol\":9808:9838  referralLevels_reward[i].count */\n      0x20\n      add\n        /* \"contracts/stake_reward_MLM.sol\":9808:9888  referralLevels_reward[i].count = DUSDinvestor[msg.sender].referralLevel[i].count */\n      dup2\n      dup2\n      mstore\n      pop\n      pop\n        /* \"contracts/stake_reward_MLM.sol\":9611:10063  if(DUSDinvestor[msg.sender].referralLevel[i].reward>0)... */\n      jump(tag_193)\n    tag_188:\n        /* \"contracts/stake_reward_MLM.sol\":9986:9987  0 */\n      0x00\n        /* \"contracts/stake_reward_MLM.sol\":9952:9973  referralLevels_reward */\n      dup3\n        /* \"contracts/stake_reward_MLM.sol\":9974:9975  i */\n      dup3\n        /* \"contracts/stake_reward_MLM.sol\":9952:9976  referralLevels_reward[i] */\n      dup2\n      mload\n      dup2\n      lt\n      tag_194\n      jumpi\n      tag_195\n      tag_144\n      jump\t// in\n    tag_195:\n    tag_194:\n      0x20\n      mul\n      0x20\n      add\n      add\n      mload\n        /* \"contracts/stake_reward_MLM.sol\":9952:9983  referralLevels_reward[i].reward */\n      0x00\n      add\n        /* \"contracts/stake_reward_MLM.sol\":9952:9987  referralLevels_reward[i].reward = 0 */\n      dup2\n      dup2\n      mstore\n      pop\n      pop\n        /* \"contracts/stake_reward_MLM.sol\":10042:10043  0 */\n      0x00\n        /* \"contracts/stake_reward_MLM.sol\":10009:10030  referralLevels_reward */\n      dup3\n        /* \"contracts/stake_reward_MLM.sol\":10031:10032  i */\n      dup3\n        /* \"contracts/stake_reward_MLM.sol\":10009:10033  referralLevels_reward[i] */\n      dup2\n      mload\n      dup2\n      lt\n      tag_196\n      jumpi\n      tag_197\n      tag_144\n      jump\t// in\n    tag_197:\n    tag_196:\n      0x20\n      mul\n      0x20\n      add\n      add\n      mload\n        /* \"contracts/stake_reward_MLM.sol\":10009:10039  referralLevels_reward[i].count */\n      0x20\n      add\n        /* \"contracts/stake_reward_MLM.sol\":10009:10043  referralLevels_reward[i].count = 0 */\n      dup2\n      dup2\n      mstore\n      pop\n      pop\n        /* \"contracts/stake_reward_MLM.sol\":9611:10063  if(DUSDinvestor[msg.sender].referralLevel[i].reward>0)... */\n    tag_193:\n        /* \"contracts/stake_reward_MLM.sol\":9576:9579  i++ */\n      dup1\n      dup1\n      tag_198\n      swap1\n      tag_103\n      jump\t// in\n    tag_198:\n      swap2\n      pop\n      pop\n        /* \"contracts/stake_reward_MLM.sol\":9558:10079  for(uint i=0;i<20;i++)... */\n      jump(tag_185)\n    tag_186:\n      pop\n        /* \"contracts/stake_reward_MLM.sol\":10099:10120  referralLevels_reward */\n      dup1\n        /* \"contracts/stake_reward_MLM.sol\":10092:10120  return referralLevels_reward */\n      swap2\n      pop\n      pop\n        /* \"contracts/stake_reward_MLM.sol\":9386:10134  function referralLevel_earning() public view returns( ref_data[] memory arr )... */\n      swap1\n      jump\t// out\n        /* \"contracts/stake_reward_MLM.sol\":4854:5260  function withdrawReward() external returns (bool success){... */\n    tag_74:\n        /* \"contracts/stake_reward_MLM.sol\":4898:4910  bool success */\n      0x00\n        /* \"contracts/stake_reward_MLM.sol\":4925:4942  uint Total_reward */\n      dup1\n        /* \"contracts/stake_reward_MLM.sol\":4945:4956  getReward() */\n      tag_200\n        /* \"contracts/stake_reward_MLM.sol\":4945:4954  getReward */\n      tag_53\n        /* \"contracts/stake_reward_MLM.sol\":4945:4956  getReward() */\n      jump\t// in\n    tag_200:\n        /* \"contracts/stake_reward_MLM.sol\":4925:4956  uint Total_reward = getReward() */\n      swap1\n      pop\n        /* \"contracts/stake_reward_MLM.sol\":4991:4992  0 */\n      0x00\n        /* \"contracts/stake_reward_MLM.sol\":4978:4990  Total_reward */\n      dup2\n        /* \"contracts/stake_reward_MLM.sol\":4978:4992  Total_reward>0 */\n      gt\n        /* \"contracts/stake_reward_MLM.sol\":4970:5030  require(Total_reward>0,\"you dont have rewards to withdrawn\") */\n      tag_201\n      jumpi\n      mload(0x40)\n      0x08c379a000000000000000000000000000000000000000000000000000000000\n      dup2\n      mstore\n      0x04\n      add\n      tag_202\n      swap1\n      tag_203\n      jump\t// in\n    tag_202:\n      mload(0x40)\n      dup1\n      swap2\n      sub\n      swap1\n      revert\n    tag_201:\n        /* \"contracts/stake_reward_MLM.sol\":5114:5125  SMCcontract */\n      0x01\n      0x00\n      swap1\n      sload\n      swap1\n      0x0100\n      exp\n      swap1\n      div\n      0xffffffffffffffffffffffffffffffffffffffff\n      and\n        /* \"contracts/stake_reward_MLM.sol\":5109:5135  DUSD(SMCcontract).transfer */\n      0xffffffffffffffffffffffffffffffffffffffff\n      and\n      0xa9059cbb\n        /* \"contracts/stake_reward_MLM.sol\":5136:5146  msg.sender */\n      caller\n        /* \"contracts/stake_reward_MLM.sol\":5147:5159  Total_reward */\n      dup4\n        /* \"contracts/stake_reward_MLM.sol\":5109:5160  DUSD(SMCcontract).transfer(msg.sender,Total_reward) */\n      mload(0x40)\n      dup4\n      0xffffffff\n      and\n      0xe0\n      shl\n      dup2\n      mstore\n      0x04\n      add\n      tag_204\n      swap3\n      swap2\n      swap1\n      tag_166\n      jump\t// in\n    tag_204:\n      0x20\n      mload(0x40)\n      dup1\n      dup4\n      sub\n      dup2\n      0x00\n      dup8\n      dup1\n      extcodesize\n      iszero\n      dup1\n      iszero\n      tag_205\n      jumpi\n      0x00\n      dup1\n      revert\n    tag_205:\n      pop\n      gas\n      call\n      iszero\n      dup1\n      iszero\n      tag_207\n      jumpi\n      returndatasize\n      0x00\n      dup1\n      returndatacopy\n      revert(0x00, returndatasize)\n    tag_207:\n      pop\n      pop\n      pop\n      pop\n      mload(0x40)\n      returndatasize\n      not(0x1f)\n      0x1f\n      dup3\n      add\n      and\n      dup3\n      add\n      dup1\n      0x40\n      mstore\n      pop\n      dup2\n      add\n      swap1\n      tag_208\n      swap2\n      swap1\n      tag_116\n      jump\t// in\n    tag_208:\n      pop\n        /* \"contracts/stake_reward_MLM.sol\":5244:5248  true */\n      0x01\n        /* \"contracts/stake_reward_MLM.sol\":5237:5248  return true */\n      swap2\n      pop\n      pop\n        /* \"contracts/stake_reward_MLM.sol\":4854:5260  function withdrawReward() external returns (bool success){... */\n      swap1\n      jump\t// out\n        /* \"contracts/stake_reward_MLM.sol\":8969:9193  function set_values(uint min_stake,uint max_stake,uint reward_per_day) public ... */\n    tag_79:\n        /* \"contracts/stake_reward_MLM.sol\":9089:9098  max_stake */\n      dup2\n        /* \"contracts/stake_reward_MLM.sol\":9070:9086  max_Stake_amount */\n      0x06\n        /* \"contracts/stake_reward_MLM.sol\":9070:9098  max_Stake_amount = max_stake */\n      dup2\n      swap1\n      sstore\n      pop\n        /* \"contracts/stake_reward_MLM.sol\":9131:9140  min_stake */\n      dup3\n        /* \"contracts/stake_reward_MLM.sol\":9112:9128  min_Stake_amount */\n      0x05\n        /* \"contracts/stake_reward_MLM.sol\":9112:9140  min_Stake_amount = min_stake */\n      dup2\n      swap1\n      sstore\n      pop\n        /* \"contracts/stake_reward_MLM.sol\":9168:9182  reward_per_day */\n      dup1\n        /* \"contracts/stake_reward_MLM.sol\":9154:9165  rewardToken */\n      0x04\n        /* \"contracts/stake_reward_MLM.sol\":9154:9182  rewardToken = reward_per_day */\n      dup2\n      swap1\n      sstore\n      pop\n        /* \"contracts/stake_reward_MLM.sol\":8969:9193  function set_values(uint min_stake,uint max_stake,uint reward_per_day) public ... */\n      pop\n      pop\n      pop\n      jump\t// out\n        /* \"contracts/stake_reward_MLM.sol\":1349:1391  mapping(address=>Data) public DUSDinvestor */\n    tag_83:\n      mstore(0x20, 0x08)\n      dup1\n      0x00\n      mstore\n      keccak256(0x00, 0x40)\n      0x00\n      swap2\n      pop\n      swap1\n      pop\n      dup1\n      0x02\n      add\n      0x00\n      swap1\n      sload\n      swap1\n      0x0100\n      exp\n      swap1\n      div\n      0xffffffffffffffffffffffffffffffffffffffff\n      and\n      swap1\n      dup1\n      0x04\n      add\n      sload\n      swap1\n      dup1\n      0x05\n      add\n      sload\n      swap1\n      dup1\n      0x06\n      add\n      sload\n      swap1\n      dup1\n      0x07\n      add\n      0x00\n      swap1\n      sload\n      swap1\n      0x0100\n      exp\n      swap1\n      div\n      0xff\n      and\n      swap1\n      pop\n      dup6\n      jump\t// out\n        /* \"contracts/stake_reward_MLM.sol\":9202:9376  function transferOwnership(address _owner)  public... */\n    tag_88:\n        /* \"contracts/stake_reward_MLM.sol\":9295:9300  owner */\n      0x00\n      dup1\n      sload\n      swap1\n      0x0100\n      exp\n      swap1\n      div\n      0xffffffffffffffffffffffffffffffffffffffff\n      and\n        /* \"contracts/stake_reward_MLM.sol\":9283:9300  msg.sender==owner */\n      0xffffffffffffffffffffffffffffffffffffffff\n      and\n        /* \"contracts/stake_reward_MLM.sol\":9283:9293  msg.sender */\n      caller\n        /* \"contracts/stake_reward_MLM.sol\":9283:9300  msg.sender==owner */\n      0xffffffffffffffffffffffffffffffffffffffff\n      and\n      eq\n        /* \"contracts/stake_reward_MLM.sol\":9275:9337  require(msg.sender==owner,\"only Owner can call this function\") */\n      tag_211\n      jumpi\n      mload(0x40)\n      0x08c379a000000000000000000000000000000000000000000000000000000000\n      dup2\n      mstore\n      0x04\n      add\n      tag_212\n      swap1\n      tag_213\n      jump\t// in\n    tag_212:\n      mload(0x40)\n      dup1\n      swap2\n      sub\n      swap1\n      revert\n    tag_211:\n        /* \"contracts/stake_reward_MLM.sol\":9359:9365  _owner */\n      dup1\n        /* \"contracts/stake_reward_MLM.sol\":9351:9356  owner */\n      0x00\n      dup1\n        /* \"contracts/stake_reward_MLM.sol\":9351:9365  owner = _owner */\n      0x0100\n      exp\n      dup2\n      sload\n      dup2\n      0xffffffffffffffffffffffffffffffffffffffff\n      mul\n      not\n      and\n      swap1\n      dup4\n      0xffffffffffffffffffffffffffffffffffffffff\n      and\n      mul\n      or\n      swap1\n      sstore\n      pop\n        /* \"contracts/stake_reward_MLM.sol\":9202:9376  function transferOwnership(address _owner)  public... */\n      pop\n      jump\t// out\n        /* \"contracts/stake_reward_MLM.sol\":516:558  uint public rewardToken=500000000000000000 */\n    tag_90:\n      sload(0x04)\n      dup2\n      jump\t// out\n        /* \"contracts/stake_reward_MLM.sol\":1542:3062  function sendRewardToDUSDReferrals(address investor,uint _investedAmount)  internal  //this is the freferral function to transfer the reawards to referrals... */\n    tag_122:\n        /* \"contracts/stake_reward_MLM.sol\":1722:1734  address temp */\n      0x00\n        /* \"contracts/stake_reward_MLM.sol\":1737:1745  investor */\n      dup3\n        /* \"contracts/stake_reward_MLM.sol\":1722:1745  address temp = investor */\n      swap1\n      pop\n        /* \"contracts/stake_reward_MLM.sol\":1766:1790  uint[] memory percentage */\n      0x00\n        /* \"contracts/stake_reward_MLM.sol\":1804:1805  5 */\n      0x05\n        /* \"contracts/stake_reward_MLM.sol\":1793:1806  new uint[](5) */\n      0xffffffffffffffff\n      dup2\n      gt\n      iszero\n      tag_215\n      jumpi\n      tag_216\n      tag_133\n      jump\t// in\n    tag_216:\n    tag_215:\n      mload(0x40)\n      swap1\n      dup1\n      dup3\n      mstore\n      dup1\n      0x20\n      mul\n      0x20\n      add\n      dup3\n      add\n      0x40\n      mstore\n      dup1\n      iszero\n      tag_217\n      jumpi\n      dup2\n      0x20\n      add\n      0x20\n      dup3\n      mul\n      dup1\n      calldatasize\n      dup4\n      calldatacopy\n      dup1\n      dup3\n      add\n      swap2\n      pop\n      pop\n      swap1\n      pop\n    tag_217:\n      pop\n        /* \"contracts/stake_reward_MLM.sol\":1766:1806  uint[] memory percentage = new uint[](5) */\n      swap1\n      pop\n        /* \"contracts/stake_reward_MLM.sol\":1836:1843  5 ether */\n      0x4563918244f40000\n        /* \"contracts/stake_reward_MLM.sol\":1820:1830  percentage */\n      dup2\n        /* \"contracts/stake_reward_MLM.sol\":1831:1832  0 */\n      0x00\n        /* \"contracts/stake_reward_MLM.sol\":1820:1833  percentage[0] */\n      dup2\n      mload\n      dup2\n      lt\n      tag_218\n      jumpi\n      tag_219\n      tag_144\n      jump\t// in\n    tag_219:\n    tag_218:\n      0x20\n      mul\n      0x20\n      add\n      add\n        /* \"contracts/stake_reward_MLM.sol\":1820:1843  percentage[0] = 5 ether */\n      dup2\n      dup2\n      mstore\n      pop\n      pop\n        /* \"contracts/stake_reward_MLM.sol\":1873:1880  3 ether */\n      0x29a2241af62c0000\n        /* \"contracts/stake_reward_MLM.sol\":1857:1867  percentage */\n      dup2\n        /* \"contracts/stake_reward_MLM.sol\":1868:1869  1 */\n      0x01\n        /* \"contracts/stake_reward_MLM.sol\":1857:1870  percentage[1] */\n      dup2\n      mload\n      dup2\n      lt\n      tag_220\n      jumpi\n      tag_221\n      tag_144\n      jump\t// in\n    tag_221:\n    tag_220:\n      0x20\n      mul\n      0x20\n      add\n      add\n        /* \"contracts/stake_reward_MLM.sol\":1857:1880  percentage[1] = 3 ether */\n      dup2\n      dup2\n      mstore\n      pop\n      pop\n        /* \"contracts/stake_reward_MLM.sol\":1910:1917  2 ether */\n      0x1bc16d674ec80000\n        /* \"contracts/stake_reward_MLM.sol\":1894:1904  percentage */\n      dup2\n        /* \"contracts/stake_reward_MLM.sol\":1905:1906  2 */\n      0x02\n        /* \"contracts/stake_reward_MLM.sol\":1894:1907  percentage[2] */\n      dup2\n      mload\n      dup2\n      lt\n      tag_222\n      jumpi\n      tag_223\n      tag_144\n      jump\t// in\n    tag_223:\n    tag_222:\n      0x20\n      mul\n      0x20\n      add\n      add\n        /* \"contracts/stake_reward_MLM.sol\":1894:1917  percentage[2] = 2 ether */\n      dup2\n      dup2\n      mstore\n      pop\n      pop\n        /* \"contracts/stake_reward_MLM.sol\":1947:1954  1 ether */\n      0x0de0b6b3a7640000\n        /* \"contracts/stake_reward_MLM.sol\":1931:1941  percentage */\n      dup2\n        /* \"contracts/stake_reward_MLM.sol\":1942:1943  3 */\n      0x03\n        /* \"contracts/stake_reward_MLM.sol\":1931:1944  percentage[3] */\n      dup2\n      mload\n      dup2\n      lt\n      tag_224\n      jumpi\n      tag_225\n      tag_144\n      jump\t// in\n    tag_225:\n    tag_224:\n      0x20\n      mul\n      0x20\n      add\n      add\n        /* \"contracts/stake_reward_MLM.sol\":1931:1954  percentage[3] = 1 ether */\n      dup2\n      dup2\n      mstore\n      pop\n      pop\n        /* \"contracts/stake_reward_MLM.sol\":1984:1993  0.5 ether */\n      0x06f05b59d3b20000\n        /* \"contracts/stake_reward_MLM.sol\":1968:1978  percentage */\n      dup2\n        /* \"contracts/stake_reward_MLM.sol\":1979:1980  4 */\n      0x04\n        /* \"contracts/stake_reward_MLM.sol\":1968:1981  percentage[4] */\n      dup2\n      mload\n      dup2\n      lt\n      tag_226\n      jumpi\n      tag_227\n      tag_144\n      jump\t// in\n    tag_227:\n    tag_226:\n      0x20\n      mul\n      0x20\n      add\n      add\n        /* \"contracts/stake_reward_MLM.sol\":1968:1993  percentage[4] = 0.5 ether */\n      dup2\n      dup2\n      mstore\n      pop\n      pop\n        /* \"contracts/stake_reward_MLM.sol\":2009:2015  uint j */\n      0x00\n        /* \"contracts/stake_reward_MLM.sol\":2033:2039  uint i */\n      dup1\n        /* \"contracts/stake_reward_MLM.sol\":2040:2041  0 */\n      0x00\n        /* \"contracts/stake_reward_MLM.sol\":2033:2041  uint i=0 */\n      swap1\n      pop\n        /* \"contracts/stake_reward_MLM.sol\":2029:2144  for(uint i=0;i<20;i++)... */\n    tag_228:\n        /* \"contracts/stake_reward_MLM.sol\":2044:2046  20 */\n      0x14\n        /* \"contracts/stake_reward_MLM.sol\":2042:2043  i */\n      dup2\n        /* \"contracts/stake_reward_MLM.sol\":2042:2046  i<20 */\n      lt\n        /* \"contracts/stake_reward_MLM.sol\":2029:2144  for(uint i=0;i<20;i++)... */\n      iszero\n      tag_229\n      jumpi\n        /* \"contracts/stake_reward_MLM.sol\":2047:2050  i++ */\n      dup1\n      dup1\n      tag_231\n      swap1\n      tag_103\n      jump\t// in\n    tag_231:\n      swap2\n      pop\n      pop\n        /* \"contracts/stake_reward_MLM.sol\":2029:2144  for(uint i=0;i<20;i++)... */\n      jump(tag_228)\n    tag_229:\n      pop\n        /* \"contracts/stake_reward_MLM.sol\":2164:2170  uint i */\n      0x00\n        /* \"contracts/stake_reward_MLM.sol\":2160:3051  for(uint i=0;i<10;i++)... */\n    tag_232:\n        /* \"contracts/stake_reward_MLM.sol\":2175:2177  10 */\n      0x0a\n        /* \"contracts/stake_reward_MLM.sol\":2173:2174  i */\n      dup2\n        /* \"contracts/stake_reward_MLM.sol\":2173:2177  i<10 */\n      lt\n        /* \"contracts/stake_reward_MLM.sol\":2160:3051  for(uint i=0;i<10;i++)... */\n      iszero\n      tag_233\n      jumpi\n        /* \"contracts/stake_reward_MLM.sol\":2220:2221  0 */\n      0x00\n        /* \"contracts/stake_reward_MLM.sol\":2217:2218  i */\n      dup2\n        /* \"contracts/stake_reward_MLM.sol\":2217:2221  i==0 */\n      eq\n        /* \"contracts/stake_reward_MLM.sol\":2214:2646  if(i==0)... */\n      iszero\n      tag_235\n      jumpi\n        /* \"contracts/stake_reward_MLM.sol\":2263:2264  0 */\n      0x00\n        /* \"contracts/stake_reward_MLM.sol\":2261:2264  j=0 */\n      swap2\n      pop\n        /* \"contracts/stake_reward_MLM.sol\":2214:2646  if(i==0)... */\n      jump(tag_236)\n    tag_235:\n        /* \"contracts/stake_reward_MLM.sol\":2311:2312  1 */\n      0x01\n        /* \"contracts/stake_reward_MLM.sol\":2308:2309  i */\n      dup2\n        /* \"contracts/stake_reward_MLM.sol\":2308:2312  i==1 */\n      eq\n        /* \"contracts/stake_reward_MLM.sol\":2305:2646  if(i==1)... */\n      iszero\n      tag_237\n      jumpi\n        /* \"contracts/stake_reward_MLM.sol\":2354:2355  1 */\n      0x01\n        /* \"contracts/stake_reward_MLM.sol\":2352:2355  j=1 */\n      swap2\n      pop\n        /* \"contracts/stake_reward_MLM.sol\":2305:2646  if(i==1)... */\n      jump(tag_238)\n    tag_237:\n        /* \"contracts/stake_reward_MLM.sol\":2402:2403  2 */\n      0x02\n        /* \"contracts/stake_reward_MLM.sol\":2399:2400  i */\n      dup2\n        /* \"contracts/stake_reward_MLM.sol\":2399:2403  i==2 */\n      eq\n        /* \"contracts/stake_reward_MLM.sol\":2396:2646  if(i==2)... */\n      iszero\n      tag_239\n      jumpi\n        /* \"contracts/stake_reward_MLM.sol\":2445:2446  2 */\n      0x02\n        /* \"contracts/stake_reward_MLM.sol\":2443:2446  j=2 */\n      swap2\n      pop\n        /* \"contracts/stake_reward_MLM.sol\":2396:2646  if(i==2)... */\n      jump(tag_240)\n    tag_239:\n        /* \"contracts/stake_reward_MLM.sol\":2493:2494  2 */\n      0x02\n        /* \"contracts/stake_reward_MLM.sol\":2491:2492  i */\n      dup2\n        /* \"contracts/stake_reward_MLM.sol\":2491:2494  i>2 */\n      gt\n        /* \"contracts/stake_reward_MLM.sol\":2488:2646  if(i>2)... */\n      iszero\n      tag_241\n      jumpi\n        /* \"contracts/stake_reward_MLM.sol\":2536:2537  3 */\n      0x03\n        /* \"contracts/stake_reward_MLM.sol\":2534:2537  j=3 */\n      swap2\n      pop\n        /* \"contracts/stake_reward_MLM.sol\":2488:2646  if(i>2)... */\n      jump(tag_242)\n    tag_241:\n        /* \"contracts/stake_reward_MLM.sol\":2583:2584  7 */\n      0x07\n        /* \"contracts/stake_reward_MLM.sol\":2581:2582  i */\n      dup2\n        /* \"contracts/stake_reward_MLM.sol\":2581:2584  i>7 */\n      gt\n        /* \"contracts/stake_reward_MLM.sol\":2578:2646  if(i>7)... */\n      iszero\n      tag_243\n      jumpi\n        /* \"contracts/stake_reward_MLM.sol\":2626:2627  4 */\n      0x04\n        /* \"contracts/stake_reward_MLM.sol\":2624:2627  j=4 */\n      swap2\n      pop\n        /* \"contracts/stake_reward_MLM.sol\":2578:2646  if(i>7)... */\n    tag_243:\n        /* \"contracts/stake_reward_MLM.sol\":2488:2646  if(i>2)... */\n    tag_242:\n        /* \"contracts/stake_reward_MLM.sol\":2396:2646  if(i==2)... */\n    tag_240:\n        /* \"contracts/stake_reward_MLM.sol\":2305:2646  if(i==1)... */\n    tag_238:\n        /* \"contracts/stake_reward_MLM.sol\":2214:2646  if(i==0)... */\n    tag_236:\n        /* \"contracts/stake_reward_MLM.sol\":2724:2725  0 */\n      0x00\n        /* \"contracts/stake_reward_MLM.sol\":2683:2726  DUSDinvestor[temp].referralFrom!=address(0) */\n      0xffffffffffffffffffffffffffffffffffffffff\n      and\n        /* \"contracts/stake_reward_MLM.sol\":2683:2695  DUSDinvestor */\n      0x08\n        /* \"contracts/stake_reward_MLM.sol\":2683:2701  DUSDinvestor[temp] */\n      0x00\n        /* \"contracts/stake_reward_MLM.sol\":2696:2700  temp */\n      dup7\n        /* \"contracts/stake_reward_MLM.sol\":2683:2701  DUSDinvestor[temp] */\n      0xffffffffffffffffffffffffffffffffffffffff\n      and\n      0xffffffffffffffffffffffffffffffffffffffff\n      and\n      dup2\n      mstore\n      0x20\n      add\n      swap1\n      dup2\n      mstore\n      0x20\n      add\n      0x00\n      keccak256\n        /* \"contracts/stake_reward_MLM.sol\":2683:2714  DUSDinvestor[temp].referralFrom */\n      0x02\n      add\n      0x00\n      swap1\n      sload\n      swap1\n      0x0100\n      exp\n      swap1\n      div\n      0xffffffffffffffffffffffffffffffffffffffff\n      and\n        /* \"contracts/stake_reward_MLM.sol\":2683:2726  DUSDinvestor[temp].referralFrom!=address(0) */\n      0xffffffffffffffffffffffffffffffffffffffff\n      and\n      eq\n        /* \"contracts/stake_reward_MLM.sol\":2680:3035  if(DUSDinvestor[temp].referralFrom!=address(0))... */\n      tag_244\n      jumpi\n        /* \"contracts/stake_reward_MLM.sol\":2772:2784  DUSDinvestor */\n      0x08\n        /* \"contracts/stake_reward_MLM.sol\":2772:2790  DUSDinvestor[temp] */\n      0x00\n        /* \"contracts/stake_reward_MLM.sol\":2785:2789  temp */\n      dup6\n        /* \"contracts/stake_reward_MLM.sol\":2772:2790  DUSDinvestor[temp] */\n      0xffffffffffffffffffffffffffffffffffffffff\n      and\n      0xffffffffffffffffffffffffffffffffffffffff\n      and\n      dup2\n      mstore\n      0x20\n      add\n      swap1\n      dup2\n      mstore\n      0x20\n      add\n      0x00\n      keccak256\n        /* \"contracts/stake_reward_MLM.sol\":2772:2803  DUSDinvestor[temp].referralFrom */\n      0x02\n      add\n      0x00\n      swap1\n      sload\n      swap1\n      0x0100\n      exp\n      swap1\n      div\n      0xffffffffffffffffffffffffffffffffffffffff\n      and\n        /* \"contracts/stake_reward_MLM.sol\":2767:2803  temp=DUSDinvestor[temp].referralFrom */\n      swap4\n      pop\n        /* \"contracts/stake_reward_MLM.sol\":2825:2836  uint reward */\n      0x00\n        /* \"contracts/stake_reward_MLM.sol\":2874:2877  100 */\n      0x64\n        /* \"contracts/stake_reward_MLM.sol\":2857:2872  _investedAmount */\n      dup7\n        /* \"contracts/stake_reward_MLM.sol\":2841:2851  percentage */\n      dup6\n        /* \"contracts/stake_reward_MLM.sol\":2852:2853  j */\n      dup6\n        /* \"contracts/stake_reward_MLM.sol\":2841:2854  percentage[j] */\n      dup2\n      mload\n      dup2\n      lt\n      tag_245\n      jumpi\n      tag_246\n      tag_144\n      jump\t// in\n    tag_246:\n    tag_245:\n      0x20\n      mul\n      0x20\n      add\n      add\n      mload\n        /* \"contracts/stake_reward_MLM.sol\":2841:2872  percentage[j] * _investedAmount */\n      tag_247\n      swap2\n      swap1\n      tag_109\n      jump\t// in\n    tag_247:\n        /* \"contracts/stake_reward_MLM.sol\":2840:2877  (percentage[j] * _investedAmount)/100 */\n      tag_248\n      swap2\n      swap1\n      tag_154\n      jump\t// in\n    tag_248:\n        /* \"contracts/stake_reward_MLM.sol\":2825:2878  uint reward = ((percentage[j] * _investedAmount)/100) */\n      swap1\n      pop\n        /* \"contracts/stake_reward_MLM.sol\":2944:2950  reward */\n      dup1\n        /* \"contracts/stake_reward_MLM.sol\":2900:2912  DUSDinvestor */\n      0x08\n        /* \"contracts/stake_reward_MLM.sol\":2900:2918  DUSDinvestor[temp] */\n      0x00\n        /* \"contracts/stake_reward_MLM.sol\":2913:2917  temp */\n      dup8\n        /* \"contracts/stake_reward_MLM.sol\":2900:2918  DUSDinvestor[temp] */\n      0xffffffffffffffffffffffffffffffffffffffff\n      and\n      0xffffffffffffffffffffffffffffffffffffffff\n      and\n      dup2\n      mstore\n      0x20\n      add\n      swap1\n      dup2\n      mstore\n      0x20\n      add\n      0x00\n      keccak256\n        /* \"contracts/stake_reward_MLM.sol\":2900:2932  DUSDinvestor[temp].referralLevel */\n      0x03\n      add\n        /* \"contracts/stake_reward_MLM.sol\":2900:2935  DUSDinvestor[temp].referralLevel[i] */\n      0x00\n        /* \"contracts/stake_reward_MLM.sol\":2933:2934  i */\n      dup5\n        /* \"contracts/stake_reward_MLM.sol\":2900:2935  DUSDinvestor[temp].referralLevel[i] */\n      dup2\n      mstore\n      0x20\n      add\n      swap1\n      dup2\n      mstore\n      0x20\n      add\n      0x00\n      keccak256\n        /* \"contracts/stake_reward_MLM.sol\":2900:2942  DUSDinvestor[temp].referralLevel[i].reward */\n      0x00\n      add\n      0x00\n        /* \"contracts/stake_reward_MLM.sol\":2900:2950  DUSDinvestor[temp].referralLevel[i].reward+=reward */\n      dup3\n      dup3\n      sload\n      tag_249\n      swap2\n      swap1\n      tag_105\n      jump\t// in\n    tag_249:\n      swap3\n      pop\n      pop\n      dup2\n      swap1\n      sstore\n      pop\n        /* \"contracts/stake_reward_MLM.sol\":2972:2984  DUSDinvestor */\n      0x08\n        /* \"contracts/stake_reward_MLM.sol\":2972:2990  DUSDinvestor[temp] */\n      0x00\n        /* \"contracts/stake_reward_MLM.sol\":2985:2989  temp */\n      dup7\n        /* \"contracts/stake_reward_MLM.sol\":2972:2990  DUSDinvestor[temp] */\n      0xffffffffffffffffffffffffffffffffffffffff\n      and\n      0xffffffffffffffffffffffffffffffffffffffff\n      and\n      dup2\n      mstore\n      0x20\n      add\n      swap1\n      dup2\n      mstore\n      0x20\n      add\n      0x00\n      keccak256\n        /* \"contracts/stake_reward_MLM.sol\":2972:3004  DUSDinvestor[temp].referralLevel */\n      0x03\n      add\n        /* \"contracts/stake_reward_MLM.sol\":2972:3007  DUSDinvestor[temp].referralLevel[i] */\n      0x00\n        /* \"contracts/stake_reward_MLM.sol\":3005:3006  i */\n      dup4\n        /* \"contracts/stake_reward_MLM.sol\":2972:3007  DUSDinvestor[temp].referralLevel[i] */\n      dup2\n      mstore\n      0x20\n      add\n      swap1\n      dup2\n      mstore\n      0x20\n      add\n      0x00\n      keccak256\n        /* \"contracts/stake_reward_MLM.sol\":2972:3013  DUSDinvestor[temp].referralLevel[i].count */\n      0x01\n      add\n      0x00\n        /* \"contracts/stake_reward_MLM.sol\":2972:3015  DUSDinvestor[temp].referralLevel[i].count++ */\n      dup2\n      sload\n      dup1\n      swap3\n      swap2\n      swap1\n      tag_250\n      swap1\n      tag_103\n      jump\t// in\n    tag_250:\n      swap2\n      swap1\n      pop\n      sstore\n      pop\n        /* \"contracts/stake_reward_MLM.sol\":2744:3035  {... */\n      pop\n        /* \"contracts/stake_reward_MLM.sol\":2680:3035  if(DUSDinvestor[temp].referralFrom!=address(0))... */\n    tag_244:\n        /* \"contracts/stake_reward_MLM.sol\":2178:2181  i++ */\n      dup1\n      dup1\n      tag_251\n      swap1\n      tag_103\n      jump\t// in\n    tag_251:\n      swap2\n      pop\n      pop\n        /* \"contracts/stake_reward_MLM.sol\":2160:3051  for(uint i=0;i<10;i++)... */\n      jump(tag_232)\n    tag_233:\n      pop\n        /* \"contracts/stake_reward_MLM.sol\":1706:3062  { ... */\n      pop\n      pop\n      pop\n        /* \"contracts/stake_reward_MLM.sol\":1542:3062  function sendRewardToDUSDReferrals(address investor,uint _investedAmount)  internal  //this is the freferral function to transfer the reawards to referrals... */\n      pop\n      pop\n      jump\t// out\n    tag_137:\n      mload(0x40)\n      dup1\n      0x80\n      add\n      0x40\n      mstore\n      dup1\n      0x00\n      dup2\n      mstore\n      0x20\n      add\n      0x00\n      dup2\n      mstore\n      0x20\n      add\n      0x00\n      dup2\n      mstore\n      0x20\n      add\n      0x00\n      dup2\n      mstore\n      pop\n      swap1\n      jump\t// out\n    tag_184:\n      mload(0x40)\n      dup1\n      0x40\n      add\n      0x40\n      mstore\n      dup1\n      0x00\n      dup2\n      mstore\n      0x20\n      add\n      0x00\n      dup2\n      mstore\n      pop\n      swap1\n      jump\t// out\n        /* \"#utility.yul\":7:146   */\n    tag_253:\n        /* \"#utility.yul\":53:58   */\n      0x00\n        /* \"#utility.yul\":91:97   */\n      dup2\n        /* \"#utility.yul\":78:98   */\n      calldataload\n        /* \"#utility.yul\":69:98   */\n      swap1\n      pop\n        /* \"#utility.yul\":107:140   */\n      tag_255\n        /* \"#utility.yul\":134:139   */\n      dup2\n        /* \"#utility.yul\":107:140   */\n      tag_256\n      jump\t// in\n    tag_255:\n        /* \"#utility.yul\":7:146   */\n      swap3\n      swap2\n      pop\n      pop\n      jump\t// out\n        /* \"#utility.yul\":152:289   */\n    tag_257:\n        /* \"#utility.yul\":206:211   */\n      0x00\n        /* \"#utility.yul\":237:243   */\n      dup2\n        /* \"#utility.yul\":231:244   */\n      mload\n        /* \"#utility.yul\":222:244   */\n      swap1\n      pop\n        /* \"#utility.yul\":253:283   */\n      tag_259\n        /* \"#utility.yul\":277:282   */\n      dup2\n        /* \"#utility.yul\":253:283   */\n      tag_260\n      jump\t// in\n    tag_259:\n        /* \"#utility.yul\":152:289   */\n      swap3\n      swap2\n      pop\n      pop\n      jump\t// out\n        /* \"#utility.yul\":295:434   */\n    tag_261:\n        /* \"#utility.yul\":341:346   */\n      0x00\n        /* \"#utility.yul\":379:385   */\n      dup2\n        /* \"#utility.yul\":366:386   */\n      calldataload\n        /* \"#utility.yul\":357:386   */\n      swap1\n      pop\n        /* \"#utility.yul\":395:428   */\n      tag_263\n        /* \"#utility.yul\":422:427   */\n      dup2\n        /* \"#utility.yul\":395:428   */\n      tag_264\n      jump\t// in\n    tag_263:\n        /* \"#utility.yul\":295:434   */\n      swap3\n      swap2\n      pop\n      pop\n      jump\t// out\n        /* \"#utility.yul\":440:769   */\n    tag_82:\n        /* \"#utility.yul\":499:505   */\n      0x00\n        /* \"#utility.yul\":548:550   */\n      0x20\n        /* \"#utility.yul\":536:545   */\n      dup3\n        /* \"#utility.yul\":527:534   */\n      dup5\n        /* \"#utility.yul\":523:546   */\n      sub\n        /* \"#utility.yul\":519:551   */\n      slt\n        /* \"#utility.yul\":516:635   */\n      iszero\n      tag_266\n      jumpi\n        /* \"#utility.yul\":554:633   */\n      tag_267\n      tag_268\n      jump\t// in\n    tag_267:\n        /* \"#utility.yul\":516:635   */\n    tag_266:\n        /* \"#utility.yul\":674:675   */\n      0x00\n        /* \"#utility.yul\":699:752   */\n      tag_269\n        /* \"#utility.yul\":744:751   */\n      dup5\n        /* \"#utility.yul\":735:741   */\n      dup3\n        /* \"#utility.yul\":724:733   */\n      dup6\n        /* \"#utility.yul\":720:742   */\n      add\n        /* \"#utility.yul\":699:752   */\n      tag_253\n      jump\t// in\n    tag_269:\n        /* \"#utility.yul\":689:752   */\n      swap2\n      pop\n        /* \"#utility.yul\":645:762   */\n      pop\n        /* \"#utility.yul\":440:769   */\n      swap3\n      swap2\n      pop\n      pop\n      jump\t// out\n        /* \"#utility.yul\":775:1120   */\n    tag_116:\n        /* \"#utility.yul\":842:848   */\n      0x00\n        /* \"#utility.yul\":891:893   */\n      0x20\n        /* \"#utility.yul\":879:888   */\n      dup3\n        /* \"#utility.yul\":870:877   */\n      dup5\n        /* \"#utility.yul\":866:889   */\n      sub\n        /* \"#utility.yul\":862:894   */\n      slt\n        /* \"#utility.yul\":859:978   */\n      iszero\n      tag_271\n      jumpi\n        /* \"#utility.yul\":897:976   */\n      tag_272\n      tag_268\n      jump\t// in\n    tag_272:\n        /* \"#utility.yul\":859:978   */\n    tag_271:\n        /* \"#utility.yul\":1017:1018   */\n      0x00\n        /* \"#utility.yul\":1042:1103   */\n      tag_273\n        /* \"#utility.yul\":1095:1102   */\n      dup5\n        /* \"#utility.yul\":1086:1092   */\n      dup3\n        /* \"#utility.yul\":1075:1084   */\n      dup6\n        /* \"#utility.yul\":1071:1093   */\n      add\n        /* \"#utility.yul\":1042:1103   */\n      tag_257\n      jump\t// in\n    tag_273:\n        /* \"#utility.yul\":1032:1103   */\n      swap2\n      pop\n        /* \"#utility.yul\":988:1113   */\n      pop\n        /* \"#utility.yul\":775:1120   */\n      swap3\n      swap2\n      pop\n      pop\n      jump\t// out\n        /* \"#utility.yul\":1126:1455   */\n    tag_37:\n        /* \"#utility.yul\":1185:1191   */\n      0x00\n        /* \"#utility.yul\":1234:1236   */\n      0x20\n        /* \"#utility.yul\":1222:1231   */\n      dup3\n        /* \"#utility.yul\":1213:1220   */\n      dup5\n        /* \"#utility.yul\":1209:1232   */\n      sub\n        /* \"#utility.yul\":1205:1237   */\n      slt\n        /* \"#utility.yul\":1202:1321   */\n      iszero\n      tag_275\n      jumpi\n        /* \"#utility.yul\":1240:1319   */\n      tag_276\n      tag_268\n      jump\t// in\n    tag_276:\n        /* \"#utility.yul\":1202:1321   */\n    tag_275:\n        /* \"#utility.yul\":1360:1361   */\n      0x00\n        /* \"#utility.yul\":1385:1438   */\n      tag_277\n        /* \"#utility.yul\":1430:1437   */\n      dup5\n        /* \"#utility.yul\":1421:1427   */\n      dup3\n        /* \"#utility.yul\":1410:1419   */\n      dup6\n        /* \"#utility.yul\":1406:1428   */\n      add\n        /* \"#utility.yul\":1385:1438   */\n      tag_261\n      jump\t// in\n    tag_277:\n        /* \"#utility.yul\":1375:1438   */\n      swap2\n      pop\n        /* \"#utility.yul\":1331:1448   */\n      pop\n        /* \"#utility.yul\":1126:1455   */\n      swap3\n      swap2\n      pop\n      pop\n      jump\t// out\n        /* \"#utility.yul\":1461:1935   */\n    tag_41:\n        /* \"#utility.yul\":1529:1535   */\n      0x00\n        /* \"#utility.yul\":1537:1543   */\n      dup1\n        /* \"#utility.yul\":1586:1588   */\n      0x40\n        /* \"#utility.yul\":1574:1583   */\n      dup4\n        /* \"#utility.yul\":1565:1572   */\n      dup6\n        /* \"#utility.yul\":1561:1584   */\n      sub\n        /* \"#utility.yul\":1557:1589   */\n      slt\n        /* \"#utility.yul\":1554:1673   */\n      iszero\n      tag_279\n      jumpi\n        /* \"#utility.yul\":1592:1671   */\n      tag_280\n      tag_268\n      jump\t// in\n    tag_280:\n        /* \"#utility.yul\":1554:1673   */\n    tag_279:\n        /* \"#utility.yul\":1712:1713   */\n      0x00\n        /* \"#utility.yul\":1737:1790   */\n      tag_281\n        /* \"#utility.yul\":1782:1789   */\n      dup6\n        /* \"#utility.yul\":1773:1779   */\n      dup3\n        /* \"#utility.yul\":1762:1771   */\n      dup7\n        /* \"#utility.yul\":1758:1780   */\n      add\n        /* \"#utility.yul\":1737:1790   */\n      tag_261\n      jump\t// in\n    tag_281:\n        /* \"#utility.yul\":1727:1790   */\n      swap3\n      pop\n        /* \"#utility.yul\":1683:1800   */\n      pop\n        /* \"#utility.yul\":1839:1841   */\n      0x20\n        /* \"#utility.yul\":1865:1918   */\n      tag_282\n        /* \"#utility.yul\":1910:1917   */\n      dup6\n        /* \"#utility.yul\":1901:1907   */\n      dup3\n        /* \"#utility.yul\":1890:1899   */\n      dup7\n        /* \"#utility.yul\":1886:1908   */\n      add\n        /* \"#utility.yul\":1865:1918   */\n      tag_253\n      jump\t// in\n    tag_282:\n        /* \"#utility.yul\":1855:1918   */\n      swap2\n      pop\n        /* \"#utility.yul\":1810:1928   */\n      pop\n        /* \"#utility.yul\":1461:1935   */\n      swap3\n      pop\n      swap3\n      swap1\n      pop\n      jump\t// out\n        /* \"#utility.yul\":1941:2560   */\n    tag_78:\n        /* \"#utility.yul\":2018:2024   */\n      0x00\n        /* \"#utility.yul\":2026:2032   */\n      dup1\n        /* \"#utility.yul\":2034:2040   */\n      0x00\n        /* \"#utility.yul\":2083:2085   */\n      0x60\n        /* \"#utility.yul\":2071:2080   */\n      dup5\n        /* \"#utility.yul\":2062:2069   */\n      dup7\n        /* \"#utility.yul\":2058:2081   */\n      sub\n        /* \"#utility.yul\":2054:2086   */\n      slt\n        /* \"#utility.yul\":2051:2170   */\n      iszero\n      tag_284\n      jumpi\n        /* \"#utility.yul\":2089:2168   */\n      tag_285\n      tag_268\n      jump\t// in\n    tag_285:\n        /* \"#utility.yul\":2051:2170   */\n    tag_284:\n        /* \"#utility.yul\":2209:2210   */\n      0x00\n        /* \"#utility.yul\":2234:2287   */\n      tag_286\n        /* \"#utility.yul\":2279:2286   */\n      dup7\n        /* \"#utility.yul\":2270:2276   */\n      dup3\n        /* \"#utility.yul\":2259:2268   */\n      dup8\n        /* \"#utility.yul\":2255:2277   */\n      add\n        /* \"#utility.yul\":2234:2287   */\n      tag_261\n      jump\t// in\n    tag_286:\n        /* \"#utility.yul\":2224:2287   */\n      swap4\n      pop\n        /* \"#utility.yul\":2180:2297   */\n      pop\n        /* \"#utility.yul\":2336:2338   */\n      0x20\n        /* \"#utility.yul\":2362:2415   */\n      tag_287\n        /* \"#utility.yul\":2407:2414   */\n      dup7\n        /* \"#utility.yul\":2398:2404   */\n      dup3\n        /* \"#utility.yul\":2387:2396   */\n      dup8\n        /* \"#utility.yul\":2383:2405   */\n      add\n        /* \"#utility.yul\":2362:2415   */\n      tag_261\n      jump\t// in\n    tag_287:\n        /* \"#utility.yul\":2352:2415   */\n      swap3\n      pop\n        /* \"#utility.yul\":2307:2425   */\n      pop\n        /* \"#utility.yul\":2464:2466   */\n      0x40\n        /* \"#utility.yul\":2490:2543   */\n      tag_288\n        /* \"#utility.yul\":2535:2542   */\n      dup7\n        /* \"#utility.yul\":2526:2532   */\n      dup3\n        /* \"#utility.yul\":2515:2524   */\n      dup8\n        /* \"#utility.yul\":2511:2533   */\n      add\n        /* \"#utility.yul\":2490:2543   */\n      tag_261\n      jump\t// in\n    tag_288:\n        /* \"#utility.yul\":2480:2543   */\n      swap2\n      pop\n        /* \"#utility.yul\":2435:2553   */\n      pop\n        /* \"#utility.yul\":1941:2560   */\n      swap3\n      pop\n      swap3\n      pop\n      swap3\n      jump\t// out\n        /* \"#utility.yul\":2566:2745   */\n    tag_289:\n        /* \"#utility.yul\":2635:2645   */\n      0x00\n        /* \"#utility.yul\":2656:2702   */\n      tag_291\n        /* \"#utility.yul\":2698:2701   */\n      dup4\n        /* \"#utility.yul\":2690:2696   */\n      dup4\n        /* \"#utility.yul\":2656:2702   */\n      tag_292\n      jump\t// in\n    tag_291:\n        /* \"#utility.yul\":2734:2738   */\n      0x20\n        /* \"#utility.yul\":2729:2732   */\n      dup4\n        /* \"#utility.yul\":2725:2739   */\n      add\n        /* \"#utility.yul\":2711:2739   */\n      swap1\n      pop\n        /* \"#utility.yul\":2566:2745   */\n      swap3\n      swap2\n      pop\n      pop\n      jump\t// out\n        /* \"#utility.yul\":2751:3050   */\n    tag_293:\n        /* \"#utility.yul\":2880:2890   */\n      0x00\n        /* \"#utility.yul\":2901:3007   */\n      tag_295\n        /* \"#utility.yul\":3003:3006   */\n      dup4\n        /* \"#utility.yul\":2995:3001   */\n      dup4\n        /* \"#utility.yul\":2901:3007   */\n      tag_296\n      jump\t// in\n    tag_295:\n        /* \"#utility.yul\":3039:3043   */\n      0x80\n        /* \"#utility.yul\":3034:3037   */\n      dup4\n        /* \"#utility.yul\":3030:3044   */\n      add\n        /* \"#utility.yul\":3016:3044   */\n      swap1\n      pop\n        /* \"#utility.yul\":2751:3050   */\n      swap3\n      swap2\n      pop\n      pop\n      jump\t// out\n        /* \"#utility.yul\":3056:3331   */\n    tag_297:\n        /* \"#utility.yul\":3173:3183   */\n      0x00\n        /* \"#utility.yul\":3194:3288   */\n      tag_299\n        /* \"#utility.yul\":3284:3287   */\n      dup4\n        /* \"#utility.yul\":3276:3282   */\n      dup4\n        /* \"#utility.yul\":3194:3288   */\n      tag_300\n      jump\t// in\n    tag_299:\n        /* \"#utility.yul\":3320:3324   */\n      0x40\n        /* \"#utility.yul\":3315:3318   */\n      dup4\n        /* \"#utility.yul\":3311:3325   */\n      add\n        /* \"#utility.yul\":3297:3325   */\n      swap1\n      pop\n        /* \"#utility.yul\":3056:3331   */\n      swap3\n      swap2\n      pop\n      pop\n      jump\t// out\n        /* \"#utility.yul\":3337:3445   */\n    tag_292:\n        /* \"#utility.yul\":3414:3438   */\n      tag_302\n        /* \"#utility.yul\":3432:3437   */\n      dup2\n        /* \"#utility.yul\":3414:3438   */\n      tag_303\n      jump\t// in\n    tag_302:\n        /* \"#utility.yul\":3409:3412   */\n      dup3\n        /* \"#utility.yul\":3402:3439   */\n      mstore\n        /* \"#utility.yul\":3337:3445   */\n      pop\n      pop\n      jump\t// out\n        /* \"#utility.yul\":3451:3569   */\n    tag_304:\n        /* \"#utility.yul\":3538:3562   */\n      tag_306\n        /* \"#utility.yul\":3556:3561   */\n      dup2\n        /* \"#utility.yul\":3538:3562   */\n      tag_303\n      jump\t// in\n    tag_306:\n        /* \"#utility.yul\":3533:3536   */\n      dup3\n        /* \"#utility.yul\":3526:3563   */\n      mstore\n        /* \"#utility.yul\":3451:3569   */\n      pop\n      pop\n      jump\t// out\n        /* \"#utility.yul\":3605:4337   */\n    tag_307:\n        /* \"#utility.yul\":3724:3727   */\n      0x00\n        /* \"#utility.yul\":3753:3807   */\n      tag_309\n        /* \"#utility.yul\":3801:3806   */\n      dup3\n        /* \"#utility.yul\":3753:3807   */\n      tag_310\n      jump\t// in\n    tag_309:\n        /* \"#utility.yul\":3823:3909   */\n      tag_311\n        /* \"#utility.yul\":3902:3908   */\n      dup2\n        /* \"#utility.yul\":3897:3900   */\n      dup6\n        /* \"#utility.yul\":3823:3909   */\n      tag_312\n      jump\t// in\n    tag_311:\n        /* \"#utility.yul\":3816:3909   */\n      swap4\n      pop\n        /* \"#utility.yul\":3933:3989   */\n      tag_313\n        /* \"#utility.yul\":3983:3988   */\n      dup4\n        /* \"#utility.yul\":3933:3989   */\n      tag_314\n      jump\t// in\n    tag_313:\n        /* \"#utility.yul\":4012:4019   */\n      dup1\n        /* \"#utility.yul\":4043:4044   */\n      0x00\n        /* \"#utility.yul\":4028:4312   */\n    tag_315:\n        /* \"#utility.yul\":4053:4059   */\n      dup4\n        /* \"#utility.yul\":4050:4051   */\n      dup2\n        /* \"#utility.yul\":4047:4060   */\n      lt\n        /* \"#utility.yul\":4028:4312   */\n      iszero\n      tag_317\n      jumpi\n        /* \"#utility.yul\":4129:4135   */\n      dup2\n        /* \"#utility.yul\":4123:4136   */\n      mload\n        /* \"#utility.yul\":4156:4219   */\n      tag_318\n        /* \"#utility.yul\":4215:4218   */\n      dup9\n        /* \"#utility.yul\":4200:4213   */\n      dup3\n        /* \"#utility.yul\":4156:4219   */\n      tag_289\n      jump\t// in\n    tag_318:\n        /* \"#utility.yul\":4149:4219   */\n      swap8\n      pop\n        /* \"#utility.yul\":4242:4302   */\n      tag_319\n        /* \"#utility.yul\":4295:4301   */\n      dup4\n        /* \"#utility.yul\":4242:4302   */\n      tag_320\n      jump\t// in\n    tag_319:\n        /* \"#utility.yul\":4232:4302   */\n      swap3\n      pop\n        /* \"#utility.yul\":4088:4312   */\n      pop\n        /* \"#utility.yul\":4075:4076   */\n      0x01\n        /* \"#utility.yul\":4072:4073   */\n      dup2\n        /* \"#utility.yul\":4068:4077   */\n      add\n        /* \"#utility.yul\":4063:4077   */\n      swap1\n      pop\n        /* \"#utility.yul\":4028:4312   */\n      jump(tag_315)\n    tag_317:\n        /* \"#utility.yul\":4032:4046   */\n      pop\n        /* \"#utility.yul\":4328:4331   */\n      dup6\n        /* \"#utility.yul\":4321:4331   */\n      swap4\n      pop\n        /* \"#utility.yul\":3729:4337   */\n      pop\n      pop\n      pop\n        /* \"#utility.yul\":3605:4337   */\n      swap3\n      swap2\n      pop\n      pop\n      jump\t// out\n        /* \"#utility.yul\":4415:5387   */\n    tag_321:\n        /* \"#utility.yul\":4594:4597   */\n      0x00\n        /* \"#utility.yul\":4623:4707   */\n      tag_323\n        /* \"#utility.yul\":4701:4706   */\n      dup3\n        /* \"#utility.yul\":4623:4707   */\n      tag_324\n      jump\t// in\n    tag_323:\n        /* \"#utility.yul\":4723:4839   */\n      tag_325\n        /* \"#utility.yul\":4832:4838   */\n      dup2\n        /* \"#utility.yul\":4827:4830   */\n      dup6\n        /* \"#utility.yul\":4723:4839   */\n      tag_326\n      jump\t// in\n    tag_325:\n        /* \"#utility.yul\":4716:4839   */\n      swap4\n      pop\n        /* \"#utility.yul\":4863:4949   */\n      tag_327\n        /* \"#utility.yul\":4943:4948   */\n      dup4\n        /* \"#utility.yul\":4863:4949   */\n      tag_328\n      jump\t// in\n    tag_327:\n        /* \"#utility.yul\":4972:4979   */\n      dup1\n        /* \"#utility.yul\":5003:5004   */\n      0x00\n        /* \"#utility.yul\":4988:5362   */\n    tag_329:\n        /* \"#utility.yul\":5013:5019   */\n      dup4\n        /* \"#utility.yul\":5010:5011   */\n      dup2\n        /* \"#utility.yul\":5007:5020   */\n      lt\n        /* \"#utility.yul\":4988:5362   */\n      iszero\n      tag_331\n      jumpi\n        /* \"#utility.yul\":5089:5095   */\n      dup2\n        /* \"#utility.yul\":5083:5096   */\n      mload\n        /* \"#utility.yul\":5116:5239   */\n      tag_332\n        /* \"#utility.yul\":5235:5238   */\n      dup9\n        /* \"#utility.yul\":5220:5233   */\n      dup3\n        /* \"#utility.yul\":5116:5239   */\n      tag_293\n      jump\t// in\n    tag_332:\n        /* \"#utility.yul\":5109:5239   */\n      swap8\n      pop\n        /* \"#utility.yul\":5262:5352   */\n      tag_333\n        /* \"#utility.yul\":5345:5351   */\n      dup4\n        /* \"#utility.yul\":5262:5352   */\n      tag_334\n      jump\t// in\n    tag_333:\n        /* \"#utility.yul\":5252:5352   */\n      swap3\n      pop\n        /* \"#utility.yul\":5048:5362   */\n      pop\n        /* \"#utility.yul\":5035:5036   */\n      0x01\n        /* \"#utility.yul\":5032:5033   */\n      dup2\n        /* \"#utility.yul\":5028:5037   */\n      add\n        /* \"#utility.yul\":5023:5037   */\n      swap1\n      pop\n        /* \"#utility.yul\":4988:5362   */\n      jump(tag_329)\n    tag_331:\n        /* \"#utility.yul\":4992:5006   */\n      pop\n        /* \"#utility.yul\":5378:5381   */\n      dup6\n        /* \"#utility.yul\":5371:5381   */\n      swap4\n      pop\n        /* \"#utility.yul\":4599:5387   */\n      pop\n      pop\n      pop\n        /* \"#utility.yul\":4415:5387   */\n      swap3\n      swap2\n      pop\n      pop\n      jump\t// out\n        /* \"#utility.yul\":5453:6377   */\n    tag_335:\n        /* \"#utility.yul\":5620:5623   */\n      0x00\n        /* \"#utility.yul\":5649:5727   */\n      tag_337\n        /* \"#utility.yul\":5721:5726   */\n      dup3\n        /* \"#utility.yul\":5649:5727   */\n      tag_338\n      jump\t// in\n    tag_337:\n        /* \"#utility.yul\":5743:5853   */\n      tag_339\n        /* \"#utility.yul\":5846:5852   */\n      dup2\n        /* \"#utility.yul\":5841:5844   */\n      dup6\n        /* \"#utility.yul\":5743:5853   */\n      tag_340\n      jump\t// in\n    tag_339:\n        /* \"#utility.yul\":5736:5853   */\n      swap4\n      pop\n        /* \"#utility.yul\":5877:5957   */\n      tag_341\n        /* \"#utility.yul\":5951:5956   */\n      dup4\n        /* \"#utility.yul\":5877:5957   */\n      tag_342\n      jump\t// in\n    tag_341:\n        /* \"#utility.yul\":5980:5987   */\n      dup1\n        /* \"#utility.yul\":6011:6012   */\n      0x00\n        /* \"#utility.yul\":5996:6352   */\n    tag_343:\n        /* \"#utility.yul\":6021:6027   */\n      dup4\n        /* \"#utility.yul\":6018:6019   */\n      dup2\n        /* \"#utility.yul\":6015:6028   */\n      lt\n        /* \"#utility.yul\":5996:6352   */\n      iszero\n      tag_345\n      jumpi\n        /* \"#utility.yul\":6097:6103   */\n      dup2\n        /* \"#utility.yul\":6091:6104   */\n      mload\n        /* \"#utility.yul\":6124:6235   */\n      tag_346\n        /* \"#utility.yul\":6231:6234   */\n      dup9\n        /* \"#utility.yul\":6216:6229   */\n      dup3\n        /* \"#utility.yul\":6124:6235   */\n      tag_297\n      jump\t// in\n    tag_346:\n        /* \"#utility.yul\":6117:6235   */\n      swap8\n      pop\n        /* \"#utility.yul\":6258:6342   */\n      tag_347\n        /* \"#utility.yul\":6335:6341   */\n      dup4\n        /* \"#utility.yul\":6258:6342   */\n      tag_348\n      jump\t// in\n    tag_347:\n        /* \"#utility.yul\":6248:6342   */\n      swap3\n      pop\n        /* \"#utility.yul\":6056:6352   */\n      pop\n        /* \"#utility.yul\":6043:6044   */\n      0x01\n        /* \"#utility.yul\":6040:6041   */\n      dup2\n        /* \"#utility.yul\":6036:6045   */\n      add\n        /* \"#utility.yul\":6031:6045   */\n      swap1\n      pop\n        /* \"#utility.yul\":5996:6352   */\n      jump(tag_343)\n    tag_345:\n        /* \"#utility.yul\":6000:6014   */\n      pop\n        /* \"#utility.yul\":6368:6371   */\n      dup6\n        /* \"#utility.yul\":6361:6371   */\n      swap4\n      pop\n        /* \"#utility.yul\":5625:6377   */\n      pop\n      pop\n      pop\n        /* \"#utility.yul\":5453:6377   */\n      swap3\n      swap2\n      pop\n      pop\n      jump\t// out\n        /* \"#utility.yul\":6383:6492   */\n    tag_349:\n        /* \"#utility.yul\":6464:6485   */\n      tag_351\n        /* \"#utility.yul\":6479:6484   */\n      dup2\n        /* \"#utility.yul\":6464:6485   */\n      tag_352\n      jump\t// in\n    tag_351:\n        /* \"#utility.yul\":6459:6462   */\n      dup3\n        /* \"#utility.yul\":6452:6486   */\n      mstore\n        /* \"#utility.yul\":6383:6492   */\n      pop\n      pop\n      jump\t// out\n        /* \"#utility.yul\":6498:6864   */\n    tag_353:\n        /* \"#utility.yul\":6640:6643   */\n      0x00\n        /* \"#utility.yul\":6661:6728   */\n      tag_355\n        /* \"#utility.yul\":6725:6727   */\n      0x25\n        /* \"#utility.yul\":6720:6723   */\n      dup4\n        /* \"#utility.yul\":6661:6728   */\n      tag_356\n      jump\t// in\n    tag_355:\n        /* \"#utility.yul\":6654:6728   */\n      swap2\n      pop\n        /* \"#utility.yul\":6737:6830   */\n      tag_357\n        /* \"#utility.yul\":6826:6829   */\n      dup3\n        /* \"#utility.yul\":6737:6830   */\n      tag_358\n      jump\t// in\n    tag_357:\n        /* \"#utility.yul\":6855:6857   */\n      0x40\n        /* \"#utility.yul\":6850:6853   */\n      dup3\n        /* \"#utility.yul\":6846:6858   */\n      add\n        /* \"#utility.yul\":6839:6858   */\n      swap1\n      pop\n        /* \"#utility.yul\":6498:6864   */\n      swap2\n      swap1\n      pop\n      jump\t// out\n        /* \"#utility.yul\":6870:7236   */\n    tag_359:\n        /* \"#utility.yul\":7012:7015   */\n      0x00\n        /* \"#utility.yul\":7033:7100   */\n      tag_361\n        /* \"#utility.yul\":7097:7099   */\n      0x22\n        /* \"#utility.yul\":7092:7095   */\n      dup4\n        /* \"#utility.yul\":7033:7100   */\n      tag_356\n      jump\t// in\n    tag_361:\n        /* \"#utility.yul\":7026:7100   */\n      swap2\n      pop\n        /* \"#utility.yul\":7109:7202   */\n      tag_362\n        /* \"#utility.yul\":7198:7201   */\n      dup3\n        /* \"#utility.yul\":7109:7202   */\n      tag_363\n      jump\t// in\n    tag_362:\n        /* \"#utility.yul\":7227:7229   */\n      0x40\n        /* \"#utility.yul\":7222:7225   */\n      dup3\n        /* \"#utility.yul\":7218:7230   */\n      add\n        /* \"#utility.yul\":7211:7230   */\n      swap1\n      pop\n        /* \"#utility.yul\":6870:7236   */\n      swap2\n      swap1\n      pop\n      jump\t// out\n        /* \"#utility.yul\":7242:7608   */\n    tag_364:\n        /* \"#utility.yul\":7384:7387   */\n      0x00\n        /* \"#utility.yul\":7405:7472   */\n      tag_366\n        /* \"#utility.yul\":7469:7471   */\n      0x21\n        /* \"#utility.yul\":7464:7467   */\n      dup4\n        /* \"#utility.yul\":7405:7472   */\n      tag_356\n      jump\t// in\n    tag_366:\n        /* \"#utility.yul\":7398:7472   */\n      swap2\n      pop\n        /* \"#utility.yul\":7481:7574   */\n      tag_367\n        /* \"#utility.yul\":7570:7573   */\n      dup3\n        /* \"#utility.yul\":7481:7574   */\n      tag_368\n      jump\t// in\n    tag_367:\n        /* \"#utility.yul\":7599:7601   */\n      0x40\n        /* \"#utility.yul\":7594:7597   */\n      dup3\n        /* \"#utility.yul\":7590:7602   */\n      add\n        /* \"#utility.yul\":7583:7602   */\n      swap1\n      pop\n        /* \"#utility.yul\":7242:7608   */\n      swap2\n      swap1\n      pop\n      jump\t// out\n        /* \"#utility.yul\":7614:7980   */\n    tag_369:\n        /* \"#utility.yul\":7756:7759   */\n      0x00\n        /* \"#utility.yul\":7777:7844   */\n      tag_371\n        /* \"#utility.yul\":7841:7843   */\n      0x1f\n        /* \"#utility.yul\":7836:7839   */\n      dup4\n        /* \"#utility.yul\":7777:7844   */\n      tag_356\n      jump\t// in\n    tag_371:\n        /* \"#utility.yul\":7770:7844   */\n      swap2\n      pop\n        /* \"#utility.yul\":7853:7946   */\n      tag_372\n        /* \"#utility.yul\":7942:7945   */\n      dup3\n        /* \"#utility.yul\":7853:7946   */\n      tag_373\n      jump\t// in\n    tag_372:\n        /* \"#utility.yul\":7971:7973   */\n      0x20\n        /* \"#utility.yul\":7966:7969   */\n      dup3\n        /* \"#utility.yul\":7962:7974   */\n      add\n        /* \"#utility.yul\":7955:7974   */\n      swap1\n      pop\n        /* \"#utility.yul\":7614:7980   */\n      swap2\n      swap1\n      pop\n      jump\t// out\n        /* \"#utility.yul\":8054:8944   */\n    tag_296:\n        /* \"#utility.yul\":8201:8205   */\n      0x80\n        /* \"#utility.yul\":8196:8199   */\n      dup3\n        /* \"#utility.yul\":8192:8206   */\n      add\n        /* \"#utility.yul\":8298:8302   */\n      0x00\n        /* \"#utility.yul\":8291:8296   */\n      dup3\n        /* \"#utility.yul\":8287:8303   */\n      add\n        /* \"#utility.yul\":8281:8304   */\n      mload\n        /* \"#utility.yul\":8317:8380   */\n      tag_375\n        /* \"#utility.yul\":8374:8378   */\n      0x00\n        /* \"#utility.yul\":8369:8372   */\n      dup6\n        /* \"#utility.yul\":8365:8379   */\n      add\n        /* \"#utility.yul\":8351:8363   */\n      dup3\n        /* \"#utility.yul\":8317:8380   */\n      tag_376\n      jump\t// in\n    tag_375:\n        /* \"#utility.yul\":8216:8390   */\n      pop\n        /* \"#utility.yul\":8481:8485   */\n      0x20\n        /* \"#utility.yul\":8474:8479   */\n      dup3\n        /* \"#utility.yul\":8470:8486   */\n      add\n        /* \"#utility.yul\":8464:8487   */\n      mload\n        /* \"#utility.yul\":8500:8563   */\n      tag_377\n        /* \"#utility.yul\":8557:8561   */\n      0x20\n        /* \"#utility.yul\":8552:8555   */\n      dup6\n        /* \"#utility.yul\":8548:8562   */\n      add\n        /* \"#utility.yul\":8534:8546   */\n      dup3\n        /* \"#utility.yul\":8500:8563   */\n      tag_376\n      jump\t// in\n    tag_377:\n        /* \"#utility.yul\":8400:8573   */\n      pop\n        /* \"#utility.yul\":8662:8666   */\n      0x40\n        /* \"#utility.yul\":8655:8660   */\n      dup3\n        /* \"#utility.yul\":8651:8667   */\n      add\n        /* \"#utility.yul\":8645:8668   */\n      mload\n        /* \"#utility.yul\":8681:8744   */\n      tag_378\n        /* \"#utility.yul\":8738:8742   */\n      0x40\n        /* \"#utility.yul\":8733:8736   */\n      dup6\n        /* \"#utility.yul\":8729:8743   */\n      add\n        /* \"#utility.yul\":8715:8727   */\n      dup3\n        /* \"#utility.yul\":8681:8744   */\n      tag_376\n      jump\t// in\n    tag_378:\n        /* \"#utility.yul\":8583:8754   */\n      pop\n        /* \"#utility.yul\":8845:8849   */\n      0x60\n        /* \"#utility.yul\":8838:8843   */\n      dup3\n        /* \"#utility.yul\":8834:8850   */\n      add\n        /* \"#utility.yul\":8828:8851   */\n      mload\n        /* \"#utility.yul\":8864:8927   */\n      tag_379\n        /* \"#utility.yul\":8921:8925   */\n      0x60\n        /* \"#utility.yul\":8916:8919   */\n      dup6\n        /* \"#utility.yul\":8912:8926   */\n      add\n        /* \"#utility.yul\":8898:8910   */\n      dup3\n        /* \"#utility.yul\":8864:8927   */\n      tag_376\n      jump\t// in\n    tag_379:\n        /* \"#utility.yul\":8764:8937   */\n      pop\n        /* \"#utility.yul\":8170:8944   */\n      pop\n        /* \"#utility.yul\":8054:8944   */\n      pop\n      pop\n      jump\t// out\n        /* \"#utility.yul\":9006:9504   */\n    tag_300:\n        /* \"#utility.yul\":9141:9145   */\n      0x40\n        /* \"#utility.yul\":9136:9139   */\n      dup3\n        /* \"#utility.yul\":9132:9146   */\n      add\n        /* \"#utility.yul\":9230:9234   */\n      0x00\n        /* \"#utility.yul\":9223:9228   */\n      dup3\n        /* \"#utility.yul\":9219:9235   */\n      add\n        /* \"#utility.yul\":9213:9236   */\n      mload\n        /* \"#utility.yul\":9249:9312   */\n      tag_381\n        /* \"#utility.yul\":9306:9310   */\n      0x00\n        /* \"#utility.yul\":9301:9304   */\n      dup6\n        /* \"#utility.yul\":9297:9311   */\n      add\n        /* \"#utility.yul\":9283:9295   */\n      dup3\n        /* \"#utility.yul\":9249:9312   */\n      tag_376\n      jump\t// in\n    tag_381:\n        /* \"#utility.yul\":9156:9322   */\n      pop\n        /* \"#utility.yul\":9405:9409   */\n      0x20\n        /* \"#utility.yul\":9398:9403   */\n      dup3\n        /* \"#utility.yul\":9394:9410   */\n      add\n        /* \"#utility.yul\":9388:9411   */\n      mload\n        /* \"#utility.yul\":9424:9487   */\n      tag_382\n        /* \"#utility.yul\":9481:9485   */\n      0x20\n        /* \"#utility.yul\":9476:9479   */\n      dup6\n        /* \"#utility.yul\":9472:9486   */\n      add\n        /* \"#utility.yul\":9458:9470   */\n      dup3\n        /* \"#utility.yul\":9424:9487   */\n      tag_376\n      jump\t// in\n    tag_382:\n        /* \"#utility.yul\":9332:9497   */\n      pop\n        /* \"#utility.yul\":9110:9504   */\n      pop\n        /* \"#utility.yul\":9006:9504   */\n      pop\n      pop\n      jump\t// out\n        /* \"#utility.yul\":9510:9618   */\n    tag_376:\n        /* \"#utility.yul\":9587:9611   */\n      tag_384\n        /* \"#utility.yul\":9605:9610   */\n      dup2\n        /* \"#utility.yul\":9587:9611   */\n      tag_385\n      jump\t// in\n    tag_384:\n        /* \"#utility.yul\":9582:9585   */\n      dup3\n        /* \"#utility.yul\":9575:9612   */\n      mstore\n        /* \"#utility.yul\":9510:9618   */\n      pop\n      pop\n      jump\t// out\n        /* \"#utility.yul\":9624:9742   */\n    tag_386:\n        /* \"#utility.yul\":9711:9735   */\n      tag_388\n        /* \"#utility.yul\":9729:9734   */\n      dup2\n        /* \"#utility.yul\":9711:9735   */\n      tag_385\n      jump\t// in\n    tag_388:\n        /* \"#utility.yul\":9706:9709   */\n      dup3\n        /* \"#utility.yul\":9699:9736   */\n      mstore\n        /* \"#utility.yul\":9624:9742   */\n      pop\n      pop\n      jump\t// out\n        /* \"#utility.yul\":9748:9970   */\n    tag_65:\n        /* \"#utility.yul\":9841:9845   */\n      0x00\n        /* \"#utility.yul\":9879:9881   */\n      0x20\n        /* \"#utility.yul\":9868:9877   */\n      dup3\n        /* \"#utility.yul\":9864:9882   */\n      add\n        /* \"#utility.yul\":9856:9882   */\n      swap1\n      pop\n        /* \"#utility.yul\":9892:9963   */\n      tag_390\n        /* \"#utility.yul\":9960:9961   */\n      0x00\n        /* \"#utility.yul\":9949:9958   */\n      dup4\n        /* \"#utility.yul\":9945:9962   */\n      add\n        /* \"#utility.yul\":9936:9942   */\n      dup5\n        /* \"#utility.yul\":9892:9963   */\n      tag_304\n      jump\t// in\n    tag_390:\n        /* \"#utility.yul\":9748:9970   */\n      swap3\n      swap2\n      pop\n      pop\n      jump\t// out\n        /* \"#utility.yul\":9976:10418   */\n    tag_111:\n        /* \"#utility.yul\":10125:10129   */\n      0x00\n        /* \"#utility.yul\":10163:10165   */\n      0x60\n        /* \"#utility.yul\":10152:10161   */\n      dup3\n        /* \"#utility.yul\":10148:10166   */\n      add\n        /* \"#utility.yul\":10140:10166   */\n      swap1\n      pop\n        /* \"#utility.yul\":10176:10247   */\n      tag_392\n        /* \"#utility.yul\":10244:10245   */\n      0x00\n        /* \"#utility.yul\":10233:10242   */\n      dup4\n        /* \"#utility.yul\":10229:10246   */\n      add\n        /* \"#utility.yul\":10220:10226   */\n      dup7\n        /* \"#utility.yul\":10176:10247   */\n      tag_304\n      jump\t// in\n    tag_392:\n        /* \"#utility.yul\":10257:10329   */\n      tag_393\n        /* \"#utility.yul\":10325:10327   */\n      0x20\n        /* \"#utility.yul\":10314:10323   */\n      dup4\n        /* \"#utility.yul\":10310:10328   */\n      add\n        /* \"#utility.yul\":10301:10307   */\n      dup6\n        /* \"#utility.yul\":10257:10329   */\n      tag_304\n      jump\t// in\n    tag_393:\n        /* \"#utility.yul\":10339:10411   */\n      tag_394\n        /* \"#utility.yul\":10407:10409   */\n      0x40\n        /* \"#utility.yul\":10396:10405   */\n      dup4\n        /* \"#utility.yul\":10392:10410   */\n      add\n        /* \"#utility.yul\":10383:10389   */\n      dup5\n        /* \"#utility.yul\":10339:10411   */\n      tag_386\n      jump\t// in\n    tag_394:\n        /* \"#utility.yul\":9976:10418   */\n      swap5\n      swap4\n      pop\n      pop\n      pop\n      pop\n      jump\t// out\n        /* \"#utility.yul\":10424:10756   */\n    tag_166:\n        /* \"#utility.yul\":10545:10549   */\n      0x00\n        /* \"#utility.yul\":10583:10585   */\n      0x40\n        /* \"#utility.yul\":10572:10581   */\n      dup3\n        /* \"#utility.yul\":10568:10586   */\n      add\n        /* \"#utility.yul\":10560:10586   */\n      swap1\n      pop\n        /* \"#utility.yul\":10596:10667   */\n      tag_396\n        /* \"#utility.yul\":10664:10665   */\n      0x00\n        /* \"#utility.yul\":10653:10662   */\n      dup4\n        /* \"#utility.yul\":10649:10666   */\n      add\n        /* \"#utility.yul\":10640:10646   */\n      dup6\n        /* \"#utility.yul\":10596:10667   */\n      tag_304\n      jump\t// in\n    tag_396:\n        /* \"#utility.yul\":10677:10749   */\n      tag_397\n        /* \"#utility.yul\":10745:10747   */\n      0x20\n        /* \"#utility.yul\":10734:10743   */\n      dup4\n        /* \"#utility.yul\":10730:10748   */\n      add\n        /* \"#utility.yul\":10721:10727   */\n      dup5\n        /* \"#utility.yul\":10677:10749   */\n      tag_386\n      jump\t// in\n    tag_397:\n        /* \"#utility.yul\":10424:10756   */\n      swap4\n      swap3\n      pop\n      pop\n      pop\n      jump\t// out\n        /* \"#utility.yul\":10762:11414   */\n    tag_85:\n        /* \"#utility.yul\":10961:10965   */\n      0x00\n        /* \"#utility.yul\":10999:11002   */\n      0xa0\n        /* \"#utility.yul\":10988:10997   */\n      dup3\n        /* \"#utility.yul\":10984:11003   */\n      add\n        /* \"#utility.yul\":10976:11003   */\n      swap1\n      pop\n        /* \"#utility.yul\":11013:11084   */\n      tag_399\n        /* \"#utility.yul\":11081:11082   */\n      0x00\n        /* \"#utility.yul\":11070:11079   */\n      dup4\n        /* \"#utility.yul\":11066:11083   */\n      add\n        /* \"#utility.yul\":11057:11063   */\n      dup9\n        /* \"#utility.yul\":11013:11084   */\n      tag_304\n      jump\t// in\n    tag_399:\n        /* \"#utility.yul\":11094:11166   */\n      tag_400\n        /* \"#utility.yul\":11162:11164   */\n      0x20\n        /* \"#utility.yul\":11151:11160   */\n      dup4\n        /* \"#utility.yul\":11147:11165   */\n      add\n        /* \"#utility.yul\":11138:11144   */\n      dup8\n        /* \"#utility.yul\":11094:11166   */\n      tag_386\n      jump\t// in\n    tag_400:\n        /* \"#utility.yul\":11176:11248   */\n      tag_401\n        /* \"#utility.yul\":11244:11246   */\n      0x40\n        /* \"#utility.yul\":11233:11242   */\n      dup4\n        /* \"#utility.yul\":11229:11247   */\n      add\n        /* \"#utility.yul\":11220:11226   */\n      dup7\n        /* \"#utility.yul\":11176:11248   */\n      tag_386\n      jump\t// in\n    tag_401:\n        /* \"#utility.yul\":11258:11330   */\n      tag_402\n        /* \"#utility.yul\":11326:11328   */\n      0x60\n        /* \"#utility.yul\":11315:11324   */\n      dup4\n        /* \"#utility.yul\":11311:11329   */\n      add\n        /* \"#utility.yul\":11302:11308   */\n      dup6\n        /* \"#utility.yul\":11258:11330   */\n      tag_386\n      jump\t// in\n    tag_402:\n        /* \"#utility.yul\":11340:11407   */\n      tag_403\n        /* \"#utility.yul\":11402:11405   */\n      0x80\n        /* \"#utility.yul\":11391:11400   */\n      dup4\n        /* \"#utility.yul\":11387:11406   */\n      add\n        /* \"#utility.yul\":11378:11384   */\n      dup5\n        /* \"#utility.yul\":11340:11407   */\n      tag_349\n      jump\t// in\n    tag_403:\n        /* \"#utility.yul\":10762:11414   */\n      swap7\n      swap6\n      pop\n      pop\n      pop\n      pop\n      pop\n      pop\n      jump\t// out\n        /* \"#utility.yul\":11420:11793   */\n    tag_27:\n        /* \"#utility.yul\":11563:11567   */\n      0x00\n        /* \"#utility.yul\":11601:11603   */\n      0x20\n        /* \"#utility.yul\":11590:11599   */\n      dup3\n        /* \"#utility.yul\":11586:11604   */\n      add\n        /* \"#utility.yul\":11578:11604   */\n      swap1\n      pop\n        /* \"#utility.yul\":11650:11659   */\n      dup2\n        /* \"#utility.yul\":11644:11648   */\n      dup2\n        /* \"#utility.yul\":11640:11660   */\n      sub\n        /* \"#utility.yul\":11636:11637   */\n      0x00\n        /* \"#utility.yul\":11625:11634   */\n      dup4\n        /* \"#utility.yul\":11621:11638   */\n      add\n        /* \"#utility.yul\":11614:11661   */\n      mstore\n        /* \"#utility.yul\":11678:11786   */\n      tag_405\n        /* \"#utility.yul\":11781:11785   */\n      dup2\n        /* \"#utility.yul\":11772:11778   */\n      dup5\n        /* \"#utility.yul\":11678:11786   */\n      tag_307\n      jump\t// in\n    tag_405:\n        /* \"#utility.yul\":11670:11786   */\n      swap1\n      pop\n        /* \"#utility.yul\":11420:11793   */\n      swap3\n      swap2\n      pop\n      pop\n      jump\t// out\n        /* \"#utility.yul\":11799:12292   */\n    tag_51:\n        /* \"#utility.yul\":12002:12006   */\n      0x00\n        /* \"#utility.yul\":12040:12042   */\n      0x20\n        /* \"#utility.yul\":12029:12038   */\n      dup3\n        /* \"#utility.yul\":12025:12043   */\n      add\n        /* \"#utility.yul\":12017:12043   */\n      swap1\n      pop\n        /* \"#utility.yul\":12089:12098   */\n      dup2\n        /* \"#utility.yul\":12083:12087   */\n      dup2\n        /* \"#utility.yul\":12079:12099   */\n      sub\n        /* \"#utility.yul\":12075:12076   */\n      0x00\n        /* \"#utility.yul\":12064:12073   */\n      dup4\n        /* \"#utility.yul\":12060:12077   */\n      add\n        /* \"#utility.yul\":12053:12100   */\n      mstore\n        /* \"#utility.yul\":12117:12285   */\n      tag_407\n        /* \"#utility.yul\":12280:12284   */\n      dup2\n        /* \"#utility.yul\":12271:12277   */\n      dup5\n        /* \"#utility.yul\":12117:12285   */\n      tag_321\n      jump\t// in\n    tag_407:\n        /* \"#utility.yul\":12109:12285   */\n      swap1\n      pop\n        /* \"#utility.yul\":11799:12292   */\n      swap3\n      swap2\n      pop\n      pop\n      jump\t// out\n        /* \"#utility.yul\":12298:12767   */\n    tag_72:\n        /* \"#utility.yul\":12489:12493   */\n      0x00\n        /* \"#utility.yul\":12527:12529   */\n      0x20\n        /* \"#utility.yul\":12516:12525   */\n      dup3\n        /* \"#utility.yul\":12512:12530   */\n      add\n        /* \"#utility.yul\":12504:12530   */\n      swap1\n      pop\n        /* \"#utility.yul\":12576:12585   */\n      dup2\n        /* \"#utility.yul\":12570:12574   */\n      dup2\n        /* \"#utility.yul\":12566:12586   */\n      sub\n        /* \"#utility.yul\":12562:12563   */\n      0x00\n        /* \"#utility.yul\":12551:12560   */\n      dup4\n        /* \"#utility.yul\":12547:12564   */\n      add\n        /* \"#utility.yul\":12540:12587   */\n      mstore\n        /* \"#utility.yul\":12604:12760   */\n      tag_409\n        /* \"#utility.yul\":12755:12759   */\n      dup2\n        /* \"#utility.yul\":12746:12752   */\n      dup5\n        /* \"#utility.yul\":12604:12760   */\n      tag_335\n      jump\t// in\n    tag_409:\n        /* \"#utility.yul\":12596:12760   */\n      swap1\n      pop\n        /* \"#utility.yul\":12298:12767   */\n      swap3\n      swap2\n      pop\n      pop\n      jump\t// out\n        /* \"#utility.yul\":12773:12983   */\n    tag_44:\n        /* \"#utility.yul\":12860:12864   */\n      0x00\n        /* \"#utility.yul\":12898:12900   */\n      0x20\n        /* \"#utility.yul\":12887:12896   */\n      dup3\n        /* \"#utility.yul\":12883:12901   */\n      add\n        /* \"#utility.yul\":12875:12901   */\n      swap1\n      pop\n        /* \"#utility.yul\":12911:12976   */\n      tag_411\n        /* \"#utility.yul\":12973:12974   */\n      0x00\n        /* \"#utility.yul\":12962:12971   */\n      dup4\n        /* \"#utility.yul\":12958:12975   */\n      add\n        /* \"#utility.yul\":12949:12955   */\n      dup5\n        /* \"#utility.yul\":12911:12976   */\n      tag_349\n      jump\t// in\n    tag_411:\n        /* \"#utility.yul\":12773:12983   */\n      swap3\n      swap2\n      pop\n      pop\n      jump\t// out\n        /* \"#utility.yul\":12989:13408   */\n    tag_162:\n        /* \"#utility.yul\":13155:13159   */\n      0x00\n        /* \"#utility.yul\":13193:13195   */\n      0x20\n        /* \"#utility.yul\":13182:13191   */\n      dup3\n        /* \"#utility.yul\":13178:13196   */\n      add\n        /* \"#utility.yul\":13170:13196   */\n      swap1\n      pop\n        /* \"#utility.yul\":13242:13251   */\n      dup2\n        /* \"#utility.yul\":13236:13240   */\n      dup2\n        /* \"#utility.yul\":13232:13252   */\n      sub\n        /* \"#utility.yul\":13228:13229   */\n      0x00\n        /* \"#utility.yul\":13217:13226   */\n      dup4\n        /* \"#utility.yul\":13213:13230   */\n      add\n        /* \"#utility.yul\":13206:13253   */\n      mstore\n        /* \"#utility.yul\":13270:13401   */\n      tag_413\n        /* \"#utility.yul\":13396:13400   */\n      dup2\n        /* \"#utility.yul\":13270:13401   */\n      tag_353\n      jump\t// in\n    tag_413:\n        /* \"#utility.yul\":13262:13401   */\n      swap1\n      pop\n        /* \"#utility.yul\":12989:13408   */\n      swap2\n      swap1\n      pop\n      jump\t// out\n        /* \"#utility.yul\":13414:13833   */\n    tag_203:\n        /* \"#utility.yul\":13580:13584   */\n      0x00\n        /* \"#utility.yul\":13618:13620   */\n      0x20\n        /* \"#utility.yul\":13607:13616   */\n      dup3\n        /* \"#utility.yul\":13603:13621   */\n      add\n        /* \"#utility.yul\":13595:13621   */\n      swap1\n      pop\n        /* \"#utility.yul\":13667:13676   */\n      dup2\n        /* \"#utility.yul\":13661:13665   */\n      dup2\n        /* \"#utility.yul\":13657:13677   */\n      sub\n        /* \"#utility.yul\":13653:13654   */\n      0x00\n        /* \"#utility.yul\":13642:13651   */\n      dup4\n        /* \"#utility.yul\":13638:13655   */\n      add\n        /* \"#utility.yul\":13631:13678   */\n      mstore\n        /* \"#utility.yul\":13695:13826   */\n      tag_415\n        /* \"#utility.yul\":13821:13825   */\n      dup2\n        /* \"#utility.yul\":13695:13826   */\n      tag_359\n      jump\t// in\n    tag_415:\n        /* \"#utility.yul\":13687:13826   */\n      swap1\n      pop\n        /* \"#utility.yul\":13414:13833   */\n      swap2\n      swap1\n      pop\n      jump\t// out\n        /* \"#utility.yul\":13839:14258   */\n    tag_213:\n        /* \"#utility.yul\":14005:14009   */\n      0x00\n        /* \"#utility.yul\":14043:14045   */\n      0x20\n        /* \"#utility.yul\":14032:14041   */\n      dup3\n        /* \"#utility.yul\":14028:14046   */\n      add\n        /* \"#utility.yul\":14020:14046   */\n      swap1\n      pop\n        /* \"#utility.yul\":14092:14101   */\n      dup2\n        /* \"#utility.yul\":14086:14090   */\n      dup2\n        /* \"#utility.yul\":14082:14102   */\n      sub\n        /* \"#utility.yul\":14078:14079   */\n      0x00\n        /* \"#utility.yul\":14067:14076   */\n      dup4\n        /* \"#utility.yul\":14063:14080   */\n      add\n        /* \"#utility.yul\":14056:14103   */\n      mstore\n        /* \"#utility.yul\":14120:14251   */\n      tag_417\n        /* \"#utility.yul\":14246:14250   */\n      dup2\n        /* \"#utility.yul\":14120:14251   */\n      tag_364\n      jump\t// in\n    tag_417:\n        /* \"#utility.yul\":14112:14251   */\n      swap1\n      pop\n        /* \"#utility.yul\":13839:14258   */\n      swap2\n      swap1\n      pop\n      jump\t// out\n        /* \"#utility.yul\":14264:14683   */\n    tag_100:\n        /* \"#utility.yul\":14430:14434   */\n      0x00\n        /* \"#utility.yul\":14468:14470   */\n      0x20\n        /* \"#utility.yul\":14457:14466   */\n      dup3\n        /* \"#utility.yul\":14453:14471   */\n      add\n        /* \"#utility.yul\":14445:14471   */\n      swap1\n      pop\n        /* \"#utility.yul\":14517:14526   */\n      dup2\n        /* \"#utility.yul\":14511:14515   */\n      dup2\n        /* \"#utility.yul\":14507:14527   */\n      sub\n        /* \"#utility.yul\":14503:14504   */\n      0x00\n        /* \"#utility.yul\":14492:14501   */\n      dup4\n        /* \"#utility.yul\":14488:14505   */\n      add\n        /* \"#utility.yul\":14481:14528   */\n      mstore\n        /* \"#utility.yul\":14545:14676   */\n      tag_419\n        /* \"#utility.yul\":14671:14675   */\n      dup2\n        /* \"#utility.yul\":14545:14676   */\n      tag_369\n      jump\t// in\n    tag_419:\n        /* \"#utility.yul\":14537:14676   */\n      swap1\n      pop\n        /* \"#utility.yul\":14264:14683   */\n      swap2\n      swap1\n      pop\n      jump\t// out\n        /* \"#utility.yul\":14689:14911   */\n    tag_31:\n        /* \"#utility.yul\":14782:14786   */\n      0x00\n        /* \"#utility.yul\":14820:14822   */\n      0x20\n        /* \"#utility.yul\":14809:14818   */\n      dup3\n        /* \"#utility.yul\":14805:14823   */\n      add\n        /* \"#utility.yul\":14797:14823   */\n      swap1\n      pop\n        /* \"#utility.yul\":14833:14904   */\n      tag_421\n        /* \"#utility.yul\":14901:14902   */\n      0x00\n        /* \"#utility.yul\":14890:14899   */\n      dup4\n        /* \"#utility.yul\":14886:14903   */\n      add\n        /* \"#utility.yul\":14877:14883   */\n      dup5\n        /* \"#utility.yul\":14833:14904   */\n      tag_386\n      jump\t// in\n    tag_421:\n        /* \"#utility.yul\":14689:14911   */\n      swap3\n      swap2\n      pop\n      pop\n      jump\t// out\n        /* \"#utility.yul\":14998:15130   */\n    tag_314:\n        /* \"#utility.yul\":15065:15069   */\n      0x00\n        /* \"#utility.yul\":15088:15091   */\n      dup2\n        /* \"#utility.yul\":15080:15091   */\n      swap1\n      pop\n        /* \"#utility.yul\":15118:15122   */\n      0x20\n        /* \"#utility.yul\":15113:15116   */\n      dup3\n        /* \"#utility.yul\":15109:15123   */\n      add\n        /* \"#utility.yul\":15101:15123   */\n      swap1\n      pop\n        /* \"#utility.yul\":14998:15130   */\n      swap2\n      swap1\n      pop\n      jump\t// out\n        /* \"#utility.yul\":15136:15298   */\n    tag_328:\n        /* \"#utility.yul\":15233:15237   */\n      0x00\n        /* \"#utility.yul\":15256:15259   */\n      dup2\n        /* \"#utility.yul\":15248:15259   */\n      swap1\n      pop\n        /* \"#utility.yul\":15286:15290   */\n      0x20\n        /* \"#utility.yul\":15281:15284   */\n      dup3\n        /* \"#utility.yul\":15277:15291   */\n      add\n        /* \"#utility.yul\":15269:15291   */\n      swap1\n      pop\n        /* \"#utility.yul\":15136:15298   */\n      swap2\n      swap1\n      pop\n      jump\t// out\n        /* \"#utility.yul\":15304:15460   */\n    tag_342:\n        /* \"#utility.yul\":15395:15399   */\n      0x00\n        /* \"#utility.yul\":15418:15421   */\n      dup2\n        /* \"#utility.yul\":15410:15421   */\n      swap1\n      pop\n        /* \"#utility.yul\":15448:15452   */\n      0x20\n        /* \"#utility.yul\":15443:15446   */\n      dup3\n        /* \"#utility.yul\":15439:15453   */\n      add\n        /* \"#utility.yul\":15431:15453   */\n      swap1\n      pop\n        /* \"#utility.yul\":15304:15460   */\n      swap2\n      swap1\n      pop\n      jump\t// out\n        /* \"#utility.yul\":15466:15580   */\n    tag_310:\n        /* \"#utility.yul\":15533:15539   */\n      0x00\n        /* \"#utility.yul\":15567:15572   */\n      dup2\n        /* \"#utility.yul\":15561:15573   */\n      mload\n        /* \"#utility.yul\":15551:15573   */\n      swap1\n      pop\n        /* \"#utility.yul\":15466:15580   */\n      swap2\n      swap1\n      pop\n      jump\t// out\n        /* \"#utility.yul\":15586:15730   */\n    tag_324:\n        /* \"#utility.yul\":15683:15689   */\n      0x00\n        /* \"#utility.yul\":15717:15722   */\n      dup2\n        /* \"#utility.yul\":15711:15723   */\n      mload\n        /* \"#utility.yul\":15701:15723   */\n      swap1\n      pop\n        /* \"#utility.yul\":15586:15730   */\n      swap2\n      swap1\n      pop\n      jump\t// out\n        /* \"#utility.yul\":15736:15874   */\n    tag_338:\n        /* \"#utility.yul\":15827:15833   */\n      0x00\n        /* \"#utility.yul\":15861:15866   */\n      dup2\n        /* \"#utility.yul\":15855:15867   */\n      mload\n        /* \"#utility.yul\":15845:15867   */\n      swap1\n      pop\n        /* \"#utility.yul\":15736:15874   */\n      swap2\n      swap1\n      pop\n      jump\t// out\n        /* \"#utility.yul\":15880:15993   */\n    tag_320:\n        /* \"#utility.yul\":15950:15954   */\n      0x00\n        /* \"#utility.yul\":15982:15986   */\n      0x20\n        /* \"#utility.yul\":15977:15980   */\n      dup3\n        /* \"#utility.yul\":15973:15987   */\n      add\n        /* \"#utility.yul\":15965:15987   */\n      swap1\n      pop\n        /* \"#utility.yul\":15880:15993   */\n      swap2\n      swap1\n      pop\n      jump\t// out\n        /* \"#utility.yul\":15999:16142   */\n    tag_334:\n        /* \"#utility.yul\":16099:16103   */\n      0x00\n        /* \"#utility.yul\":16131:16135   */\n      0x20\n        /* \"#utility.yul\":16126:16129   */\n      dup3\n        /* \"#utility.yul\":16122:16136   */\n      add\n        /* \"#utility.yul\":16114:16136   */\n      swap1\n      pop\n        /* \"#utility.yul\":15999:16142   */\n      swap2\n      swap1\n      pop\n      jump\t// out\n        /* \"#utility.yul\":16148:16285   */\n    tag_348:\n        /* \"#utility.yul\":16242:16246   */\n      0x00\n        /* \"#utility.yul\":16274:16278   */\n      0x20\n        /* \"#utility.yul\":16269:16272   */\n      dup3\n        /* \"#utility.yul\":16265:16279   */\n      add\n        /* \"#utility.yul\":16257:16279   */\n      swap1\n      pop\n        /* \"#utility.yul\":16148:16285   */\n      swap2\n      swap1\n      pop\n      jump\t// out\n        /* \"#utility.yul\":16291:16475   */\n    tag_312:\n        /* \"#utility.yul\":16390:16401   */\n      0x00\n        /* \"#utility.yul\":16424:16430   */\n      dup3\n        /* \"#utility.yul\":16419:16422   */\n      dup3\n        /* \"#utility.yul\":16412:16431   */\n      mstore\n        /* \"#utility.yul\":16464:16468   */\n      0x20\n        /* \"#utility.yul\":16459:16462   */\n      dup3\n        /* \"#utility.yul\":16455:16469   */\n      add\n        /* \"#utility.yul\":16440:16469   */\n      swap1\n      pop\n        /* \"#utility.yul\":16291:16475   */\n      swap3\n      swap2\n      pop\n      pop\n      jump\t// out\n        /* \"#utility.yul\":16481:16695   */\n    tag_326:\n        /* \"#utility.yul\":16610:16621   */\n      0x00\n        /* \"#utility.yul\":16644:16650   */\n      dup3\n        /* \"#utility.yul\":16639:16642   */\n      dup3\n        /* \"#utility.yul\":16632:16651   */\n      mstore\n        /* \"#utility.yul\":16684:16688   */\n      0x20\n        /* \"#utility.yul\":16679:16682   */\n      dup3\n        /* \"#utility.yul\":16675:16689   */\n      add\n        /* \"#utility.yul\":16660:16689   */\n      swap1\n      pop\n        /* \"#utility.yul\":16481:16695   */\n      swap3\n      swap2\n      pop\n      pop\n      jump\t// out\n        /* \"#utility.yul\":16701:16909   */\n    tag_340:\n        /* \"#utility.yul\":16824:16835   */\n      0x00\n        /* \"#utility.yul\":16858:16864   */\n      dup3\n        /* \"#utility.yul\":16853:16856   */\n      dup3\n        /* \"#utility.yul\":16846:16865   */\n      mstore\n        /* \"#utility.yul\":16898:16902   */\n      0x20\n        /* \"#utility.yul\":16893:16896   */\n      dup3\n        /* \"#utility.yul\":16889:16903   */\n      add\n        /* \"#utility.yul\":16874:16903   */\n      swap1\n      pop\n        /* \"#utility.yul\":16701:16909   */\n      swap3\n      swap2\n      pop\n      pop\n      jump\t// out\n        /* \"#utility.yul\":16915:17084   */\n    tag_356:\n        /* \"#utility.yul\":16999:17010   */\n      0x00\n        /* \"#utility.yul\":17033:17039   */\n      dup3\n        /* \"#utility.yul\":17028:17031   */\n      dup3\n        /* \"#utility.yul\":17021:17040   */\n      mstore\n        /* \"#utility.yul\":17073:17077   */\n      0x20\n        /* \"#utility.yul\":17068:17071   */\n      dup3\n        /* \"#utility.yul\":17064:17078   */\n      add\n        /* \"#utility.yul\":17049:17078   */\n      swap1\n      pop\n        /* \"#utility.yul\":16915:17084   */\n      swap3\n      swap2\n      pop\n      pop\n      jump\t// out\n        /* \"#utility.yul\":17090:17395   */\n    tag_105:\n        /* \"#utility.yul\":17130:17133   */\n      0x00\n        /* \"#utility.yul\":17149:17169   */\n      tag_438\n        /* \"#utility.yul\":17167:17168   */\n      dup3\n        /* \"#utility.yul\":17149:17169   */\n      tag_385\n      jump\t// in\n    tag_438:\n        /* \"#utility.yul\":17144:17169   */\n      swap2\n      pop\n        /* \"#utility.yul\":17183:17203   */\n      tag_439\n        /* \"#utility.yul\":17201:17202   */\n      dup4\n        /* \"#utility.yul\":17183:17203   */\n      tag_385\n      jump\t// in\n    tag_439:\n        /* \"#utility.yul\":17178:17203   */\n      swap3\n      pop\n        /* \"#utility.yul\":17337:17338   */\n      dup3\n        /* \"#utility.yul\":17269:17335   */\n      0xffffffffffffffffffffffffffffffffffffffffffffffffffffffffffffffff\n        /* \"#utility.yul\":17265:17339   */\n      sub\n        /* \"#utility.yul\":17262:17263   */\n      dup3\n        /* \"#utility.yul\":17259:17340   */\n      gt\n        /* \"#utility.yul\":17256:17363   */\n      iszero\n      tag_440\n      jumpi\n        /* \"#utility.yul\":17343:17361   */\n      tag_441\n      tag_442\n      jump\t// in\n    tag_441:\n        /* \"#utility.yul\":17256:17363   */\n    tag_440:\n        /* \"#utility.yul\":17387:17388   */\n      dup3\n        /* \"#utility.yul\":17384:17385   */\n      dup3\n        /* \"#utility.yul\":17380:17389   */\n      add\n        /* \"#utility.yul\":17373:17389   */\n      swap1\n      pop\n        /* \"#utility.yul\":17090:17395   */\n      swap3\n      swap2\n      pop\n      pop\n      jump\t// out\n        /* \"#utility.yul\":17401:17586   */\n    tag_154:\n        /* \"#utility.yul\":17441:17442   */\n      0x00\n        /* \"#utility.yul\":17458:17478   */\n      tag_444\n        /* \"#utility.yul\":17476:17477   */\n      dup3\n        /* \"#utility.yul\":17458:17478   */\n      tag_385\n      jump\t// in\n    tag_444:\n        /* \"#utility.yul\":17453:17478   */\n      swap2\n      pop\n        /* \"#utility.yul\":17492:17512   */\n      tag_445\n        /* \"#utility.yul\":17510:17511   */\n      dup4\n        /* \"#utility.yul\":17492:17512   */\n      tag_385\n      jump\t// in\n    tag_445:\n        /* \"#utility.yul\":17487:17512   */\n      swap3\n      pop\n        /* \"#utility.yul\":17531:17532   */\n      dup3\n        /* \"#utility.yul\":17521:17556   */\n      tag_446\n      jumpi\n        /* \"#utility.yul\":17536:17554   */\n      tag_447\n      tag_448\n      jump\t// in\n    tag_447:\n        /* \"#utility.yul\":17521:17556   */\n    tag_446:\n        /* \"#utility.yul\":17578:17579   */\n      dup3\n        /* \"#utility.yul\":17575:17576   */\n      dup3\n        /* \"#utility.yul\":17571:17580   */\n      div\n        /* \"#utility.yul\":17566:17580   */\n      swap1\n      pop\n        /* \"#utility.yul\":17401:17586   */\n      swap3\n      swap2\n      pop\n      pop\n      jump\t// out\n        /* \"#utility.yul\":17592:17940   */\n    tag_109:\n        /* \"#utility.yul\":17632:17639   */\n      0x00\n        /* \"#utility.yul\":17655:17675   */\n      tag_450\n        /* \"#utility.yul\":17673:17674   */\n      dup3\n        /* \"#utility.yul\":17655:17675   */\n      tag_385\n      jump\t// in\n    tag_450:\n        /* \"#utility.yul\":17650:17675   */\n      swap2\n      pop\n        /* \"#utility.yul\":17689:17709   */\n      tag_451\n        /* \"#utility.yul\":17707:17708   */\n      dup4\n        /* \"#utility.yul\":17689:17709   */\n      tag_385\n      jump\t// in\n    tag_451:\n        /* \"#utility.yul\":17684:17709   */\n      swap3\n      pop\n        /* \"#utility.yul\":17877:17878   */\n      dup2\n        /* \"#utility.yul\":17809:17875   */\n      0xffffffffffffffffffffffffffffffffffffffffffffffffffffffffffffffff\n        /* \"#utility.yul\":17805:17879   */\n      div\n        /* \"#utility.yul\":17802:17803   */\n      dup4\n        /* \"#utility.yul\":17799:17880   */\n      gt\n        /* \"#utility.yul\":17794:17795   */\n      dup3\n        /* \"#utility.yul\":17787:17796   */\n      iszero\n        /* \"#utility.yul\":17780:17797   */\n      iszero\n        /* \"#utility.yul\":17776:17881   */\n      and\n        /* \"#utility.yul\":17773:17904   */\n      iszero\n      tag_452\n      jumpi\n        /* \"#utility.yul\":17884:17902   */\n      tag_453\n      tag_442\n      jump\t// in\n    tag_453:\n        /* \"#utility.yul\":17773:17904   */\n    tag_452:\n        /* \"#utility.yul\":17932:17933   */\n      dup3\n        /* \"#utility.yul\":17929:17930   */\n      dup3\n        /* \"#utility.yul\":17925:17934   */\n      mul\n        /* \"#utility.yul\":17914:17934   */\n      swap1\n      pop\n        /* \"#utility.yul\":17592:17940   */\n      swap3\n      swap2\n      pop\n      pop\n      jump\t// out\n        /* \"#utility.yul\":17946:18137   */\n    tag_152:\n        /* \"#utility.yul\":17986:17990   */\n      0x00\n        /* \"#utility.yul\":18006:18026   */\n      tag_455\n        /* \"#utility.yul\":18024:18025   */\n      dup3\n        /* \"#utility.yul\":18006:18026   */\n      tag_385\n      jump\t// in\n    tag_455:\n        /* \"#utility.yul\":18001:18026   */\n      swap2\n      pop\n        /* \"#utility.yul\":18040:18060   */\n      tag_456\n        /* \"#utility.yul\":18058:18059   */\n      dup4\n        /* \"#utility.yul\":18040:18060   */\n      tag_385\n      jump\t// in\n    tag_456:\n        /* \"#utility.yul\":18035:18060   */\n      swap3\n      pop\n        /* \"#utility.yul\":18079:18080   */\n      dup3\n        /* \"#utility.yul\":18076:18077   */\n      dup3\n        /* \"#utility.yul\":18073:18081   */\n      lt\n        /* \"#utility.yul\":18070:18104   */\n      iszero\n      tag_457\n      jumpi\n        /* \"#utility.yul\":18084:18102   */\n      tag_458\n      tag_442\n      jump\t// in\n    tag_458:\n        /* \"#utility.yul\":18070:18104   */\n    tag_457:\n        /* \"#utility.yul\":18129:18130   */\n      dup3\n        /* \"#utility.yul\":18126:18127   */\n      dup3\n        /* \"#utility.yul\":18122:18131   */\n      sub\n        /* \"#utility.yul\":18114:18131   */\n      swap1\n      pop\n        /* \"#utility.yul\":17946:18137   */\n      swap3\n      swap2\n      pop\n      pop\n      jump\t// out\n        /* \"#utility.yul\":18143:18239   */\n    tag_303:\n        /* \"#utility.yul\":18180:18187   */\n      0x00\n        /* \"#utility.yul\":18209:18233   */\n      tag_460\n        /* \"#utility.yul\":18227:18232   */\n      dup3\n        /* \"#utility.yul\":18209:18233   */\n      tag_461\n      jump\t// in\n    tag_460:\n        /* \"#utility.yul\":18198:18233   */\n      swap1\n      pop\n        /* \"#utility.yul\":18143:18239   */\n      swap2\n      swap1\n      pop\n      jump\t// out\n        /* \"#utility.yul\":18245:18335   */\n    tag_352:\n        /* \"#utility.yul\":18279:18286   */\n      0x00\n        /* \"#utility.yul\":18322:18327   */\n      dup2\n        /* \"#utility.yul\":18315:18328   */\n      iszero\n        /* \"#utility.yul\":18308:18329   */\n      iszero\n        /* \"#utility.yul\":18297:18329   */\n      swap1\n      pop\n        /* \"#utility.yul\":18245:18335   */\n      swap2\n      swap1\n      pop\n      jump\t// out\n        /* \"#utility.yul\":18341:18467   */\n    tag_461:\n        /* \"#utility.yul\":18378:18385   */\n      0x00\n        /* \"#utility.yul\":18418:18460   */\n      0xffffffffffffffffffffffffffffffffffffffff\n        /* \"#utility.yul\":18411:18416   */\n      dup3\n        /* \"#utility.yul\":18407:18461   */\n      and\n        /* \"#utility.yul\":18396:18461   */\n      swap1\n      pop\n        /* \"#utility.yul\":18341:18467   */\n      swap2\n      swap1\n      pop\n      jump\t// out\n        /* \"#utility.yul\":18473:18550   */\n    tag_385:\n        /* \"#utility.yul\":18510:18517   */\n      0x00\n        /* \"#utility.yul\":18539:18544   */\n      dup2\n        /* \"#utility.yul\":18528:18544   */\n      swap1\n      pop\n        /* \"#utility.yul\":18473:18550   */\n      swap2\n      swap1\n      pop\n      jump\t// out\n        /* \"#utility.yul\":18556:18789   */\n    tag_103:\n        /* \"#utility.yul\":18595:18598   */\n      0x00\n        /* \"#utility.yul\":18618:18642   */\n      tag_466\n        /* \"#utility.yul\":18636:18641   */\n      dup3\n        /* \"#utility.yul\":18618:18642   */\n      tag_385\n      jump\t// in\n    tag_466:\n        /* \"#utility.yul\":18609:18642   */\n      swap2\n      pop\n        /* \"#utility.yul\":18664:18730   */\n      0xffffffffffffffffffffffffffffffffffffffffffffffffffffffffffffffff\n        /* \"#utility.yul\":18657:18662   */\n      dup3\n        /* \"#utility.yul\":18654:18731   */\n      eq\n        /* \"#utility.yul\":18651:18754   */\n      iszero\n      tag_467\n      jumpi\n        /* \"#utility.yul\":18734:18752   */\n      tag_468\n      tag_442\n      jump\t// in\n    tag_468:\n        /* \"#utility.yul\":18651:18754   */\n    tag_467:\n        /* \"#utility.yul\":18781:18782   */\n      0x01\n        /* \"#utility.yul\":18774:18779   */\n      dup3\n        /* \"#utility.yul\":18770:18783   */\n      add\n        /* \"#utility.yul\":18763:18783   */\n      swap1\n      pop\n        /* \"#utility.yul\":18556:18789   */\n      swap2\n      swap1\n      pop\n      jump\t// out\n        /* \"#utility.yul\":18795:18975   */\n    tag_442:\n        /* \"#utility.yul\":18843:18920   */\n      0x4e487b7100000000000000000000000000000000000000000000000000000000\n        /* \"#utility.yul\":18840:18841   */\n      0x00\n        /* \"#utility.yul\":18833:18921   */\n      mstore\n        /* \"#utility.yul\":18940:18944   */\n      0x11\n        /* \"#utility.yul\":18937:18938   */\n      0x04\n        /* \"#utility.yul\":18930:18945   */\n      mstore\n        /* \"#utility.yul\":18964:18968   */\n      0x24\n        /* \"#utility.yul\":18961:18962   */\n      0x00\n        /* \"#utility.yul\":18954:18969   */\n      revert\n        /* \"#utility.yul\":18981:19161   */\n    tag_448:\n        /* \"#utility.yul\":19029:19106   */\n      0x4e487b7100000000000000000000000000000000000000000000000000000000\n        /* \"#utility.yul\":19026:19027   */\n      0x00\n        /* \"#utility.yul\":19019:19107   */\n      mstore\n        /* \"#utility.yul\":19126:19130   */\n      0x12\n        /* \"#utility.yul\":19123:19124   */\n      0x04\n        /* \"#utility.yul\":19116:19131   */\n      mstore\n        /* \"#utility.yul\":19150:19154   */\n      0x24\n        /* \"#utility.yul\":19147:19148   */\n      0x00\n        /* \"#utility.yul\":19140:19155   */\n      revert\n        /* \"#utility.yul\":19167:19347   */\n    tag_144:\n        /* \"#utility.yul\":19215:19292   */\n      0x4e487b7100000000000000000000000000000000000000000000000000000000\n        /* \"#utility.yul\":19212:19213   */\n      0x00\n        /* \"#utility.yul\":19205:19293   */\n      mstore\n        /* \"#utility.yul\":19312:19316   */\n      0x32\n        /* \"#utility.yul\":19309:19310   */\n      0x04\n        /* \"#utility.yul\":19302:19317   */\n      mstore\n        /* \"#utility.yul\":19336:19340   */\n      0x24\n        /* \"#utility.yul\":19333:19334   */\n      0x00\n        /* \"#utility.yul\":19326:19341   */\n      revert\n        /* \"#utility.yul\":19353:19533   */\n    tag_133:\n        /* \"#utility.yul\":19401:19478   */\n      0x4e487b7100000000000000000000000000000000000000000000000000000000\n        /* \"#utility.yul\":19398:19399   */\n      0x00\n        /* \"#utility.yul\":19391:19479   */\n      mstore\n        /* \"#utility.yul\":19498:19502   */\n      0x41\n        /* \"#utility.yul\":19495:19496   */\n      0x04\n        /* \"#utility.yul\":19488:19503   */\n      mstore\n        /* \"#utility.yul\":19522:19526   */\n      0x24\n        /* \"#utility.yul\":19519:19520   */\n      0x00\n        /* \"#utility.yul\":19512:19527   */\n      revert\n        /* \"#utility.yul\":19662:19779   */\n    tag_268:\n        /* \"#utility.yul\":19771:19772   */\n      0x00\n        /* \"#utility.yul\":19768:19769   */\n      dup1\n        /* \"#utility.yul\":19761:19773   */\n      revert\n        /* \"#utility.yul\":19785:20009   */\n    tag_358:\n        /* \"#utility.yul\":19925:19959   */\n      0x796f7520646f6e74206861766520696e766573746d656e7420746f2077697468\n        /* \"#utility.yul\":19921:19922   */\n      0x00\n        /* \"#utility.yul\":19913:19919   */\n      dup3\n        /* \"#utility.yul\":19909:19923   */\n      add\n        /* \"#utility.yul\":19902:19960   */\n      mstore\n        /* \"#utility.yul\":19994:20001   */\n      0x647261776e000000000000000000000000000000000000000000000000000000\n        /* \"#utility.yul\":19989:19991   */\n      0x20\n        /* \"#utility.yul\":19981:19987   */\n      dup3\n        /* \"#utility.yul\":19977:19992   */\n      add\n        /* \"#utility.yul\":19970:20002   */\n      mstore\n        /* \"#utility.yul\":19785:20009   */\n      pop\n      jump\t// out\n        /* \"#utility.yul\":20015:20236   */\n    tag_363:\n        /* \"#utility.yul\":20155:20189   */\n      0x796f7520646f6e742068617665207265776172647320746f2077697468647261\n        /* \"#utility.yul\":20151:20152   */\n      0x00\n        /* \"#utility.yul\":20143:20149   */\n      dup3\n        /* \"#utility.yul\":20139:20153   */\n      add\n        /* \"#utility.yul\":20132:20190   */\n      mstore\n        /* \"#utility.yul\":20224:20228   */\n      0x776e000000000000000000000000000000000000000000000000000000000000\n        /* \"#utility.yul\":20219:20221   */\n      0x20\n        /* \"#utility.yul\":20211:20217   */\n      dup3\n        /* \"#utility.yul\":20207:20222   */\n      add\n        /* \"#utility.yul\":20200:20229   */\n      mstore\n        /* \"#utility.yul\":20015:20236   */\n      pop\n      jump\t// out\n        /* \"#utility.yul\":20242:20462   */\n    tag_368:\n        /* \"#utility.yul\":20382:20416   */\n      0x6f6e6c79204f776e65722063616e2063616c6c20746869732066756e6374696f\n        /* \"#utility.yul\":20378:20379   */\n      0x00\n        /* \"#utility.yul\":20370:20376   */\n      dup3\n        /* \"#utility.yul\":20366:20380   */\n      add\n        /* \"#utility.yul\":20359:20417   */\n      mstore\n        /* \"#utility.yul\":20451:20454   */\n      0x6e00000000000000000000000000000000000000000000000000000000000000\n        /* \"#utility.yul\":20446:20448   */\n      0x20\n        /* \"#utility.yul\":20438:20444   */\n      dup3\n        /* \"#utility.yul\":20434:20449   */\n      add\n        /* \"#utility.yul\":20427:20455   */\n      mstore\n        /* \"#utility.yul\":20242:20462   */\n      pop\n      jump\t// out\n        /* \"#utility.yul\":20468:20649   */\n    tag_373:\n        /* \"#utility.yul\":20608:20641   */\n      0x76616c7565206973206e6f742067726561746572207468616e20313030303000\n        /* \"#utility.yul\":20604:20605   */\n      0x00\n        /* \"#utility.yul\":20596:20602   */\n      dup3\n        /* \"#utility.yul\":20592:20606   */\n      add\n        /* \"#utility.yul\":20585:20642   */\n      mstore\n        /* \"#utility.yul\":20468:20649   */\n      pop\n      jump\t// out\n        /* \"#utility.yul\":20655:20777   */\n    tag_256:\n        /* \"#utility.yul\":20728:20752   */\n      tag_481\n        /* \"#utility.yul\":20746:20751   */\n      dup2\n        /* \"#utility.yul\":20728:20752   */\n      tag_303\n      jump\t// in\n    tag_481:\n        /* \"#utility.yul\":20721:20726   */\n      dup2\n        /* \"#utility.yul\":20718:20753   */\n      eq\n        /* \"#utility.yul\":20708:20771   */\n      tag_482\n      jumpi\n        /* \"#utility.yul\":20767:20768   */\n      0x00\n        /* \"#utility.yul\":20764:20765   */\n      dup1\n        /* \"#utility.yul\":20757:20769   */\n      revert\n        /* \"#utility.yul\":20708:20771   */\n    tag_482:\n        /* \"#utility.yul\":20655:20777   */\n      pop\n      jump\t// out\n        /* \"#utility.yul\":20783:20899   */\n    tag_260:\n        /* \"#utility.yul\":20853:20874   */\n      tag_484\n        /* \"#utility.yul\":20868:20873   */\n      dup2\n        /* \"#utility.yul\":20853:20874   */\n      tag_352\n      jump\t// in\n    tag_484:\n        /* \"#utility.yul\":20846:20851   */\n      dup2\n        /* \"#utility.yul\":20843:20875   */\n      eq\n        /* \"#utility.yul\":20833:20893   */\n      tag_485\n      jumpi\n        /* \"#utility.yul\":20889:20890   */\n      0x00\n        /* \"#utility.yul\":20886:20887   */\n      dup1\n        /* \"#utility.yul\":20879:20891   */\n      revert\n        /* \"#utility.yul\":20833:20893   */\n    tag_485:\n        /* \"#utility.yul\":20783:20899   */\n      pop\n      jump\t// out\n        /* \"#utility.yul\":20905:21027   */\n    tag_264:\n        /* \"#utility.yul\":20978:21002   */\n      tag_487\n        /* \"#utility.yul\":20996:21001   */\n      dup2\n        /* \"#utility.yul\":20978:21002   */\n      tag_385\n      jump\t// in\n    tag_487:\n        /* \"#utility.yul\":20971:20976   */\n      dup2\n        /* \"#utility.yul\":20968:21003   */\n      eq\n        /* \"#utility.yul\":20958:21021   */\n      tag_488\n      jumpi\n        /* \"#utility.yul\":21017:21018   */\n      0x00\n        /* \"#utility.yul\":21014:21015   */\n      dup1\n        /* \"#utility.yul\":21007:21019   */\n      revert\n        /* \"#utility.yul\":20958:21021   */\n    tag_488:\n        /* \"#utility.yul\":20905:21027   */\n      pop\n      jump\t// out\n\n    auxdata: 0xa26469706673582212205e986d8451135d2dc2c305bcf0c7525c4ac8be2576ee2d01d4001b59c80edcf064736f6c63430008070033\n}\n",
				"bytecode": {
					"linkReferences": {},
					"object": "608060405273d902364fe763a130c12457c9fb17e1603374c424600160006101000a81548173ffffffffffffffffffffffffffffffffffffffff021916908373ffffffffffffffffffffffffffffffffffffffff16021790555073b5047153afcc59523f7f6d6f492f716a21b04681600260006101000a81548173ffffffffffffffffffffffffffffffffffffffff021916908373ffffffffffffffffffffffffffffffffffffffff1602179055506706f05b59d3b200006004556127106005556a0422ca8b0a00a42500000060065563018b82006007553480156100e357600080fd5b50336000806101000a81548173ffffffffffffffffffffffffffffffffffffffff021916908373ffffffffffffffffffffffffffffffffffffffff1602179055506125e4806101336000396000f3fe608060405234801561001057600080fd5b50600436106101165760003560e01c80635d3eea91116100a2578063c885bc5811610071578063c885bc58146102bf578063ce10db0a146102dd578063d3560ee8146102f9578063f2fde38b1461032d578063f7c618c11461034957610116565b80635d3eea91146102355780638da5cb5b14610265578063929f6bbe14610283578063a61be99d146102a157610116565b80632bccdce6116100e95780632bccdce61461019157806332d4e783146101c15780633a1e0833146101dd5780633d18b912146101fb578063500cb85f1461021957610116565b80630c5f58f41461011b57806310cde60a146101395780631e8aba3514610157578063293be45614610175575b600080fd5b610123610367565b6040516101309190612014565b60405180910390f35b610141610435565b60405161014e9190612115565b60405180910390f35b61015f61043b565b60405161016c9190612115565b60405180910390f35b61018f600480360381019061018a9190611bc9565b610488565b005b6101ab60048036038101906101a69190611bf6565b610492565b6040516101b8919061207a565b60405180910390f35b6101db60048036038101906101d69190611bc9565b610b0b565b005b6101e5610b15565b6040516101f29190612036565b60405180910390f35b610203610d81565b6040516102109190612115565b60405180910390f35b610233600480360381019061022e9190611bc9565b610e81565b005b61024f600480360381019061024a9190611bc9565b610e8b565b60405161025c919061207a565b60405180910390f35b61026d61122d565b60405161027a9190611f46565b60405180910390f35b61028b611251565b6040516102989190612115565b60405180910390f35b6102a961129b565b6040516102b69190612058565b60405180910390f35b6102c76114c0565b6040516102d4919061207a565b60405180910390f35b6102f760048036038101906102f29190611c36565b6115c8565b005b610313600480360381019061030e9190611b6f565b6115e2565b604051610324959493929190611fc1565b60405180910390f35b61034760048036038101906103429190611b6f565b611645565b005b610351611716565b60405161035e9190612115565b60405180910390f35b6060600860003373ffffffffffffffffffffffffffffffffffffffff1673ffffffffffffffffffffffffffffffffffffffff16815260200190815260200160002060010180548060200260200160405190810160405280929190818152602001828054801561042b57602002820191906000526020600020905b8160009054906101000a900473ffffffffffffffffffffffffffffffffffffffff1673ffffffffffffffffffffffffffffffffffffffff16815260200190600101908083116103e1575b5050505050905090565b60035481565b6000600860003373ffffffffffffffffffffffffffffffffffffffff1673ffffffffffffffffffffffffffffffffffffffff16815260200190815260200160002060010180549050905090565b8060048190555050565b60006005548310156104d9576040517f08c379a00000000000000000000000000000000000000000000000000000000081526004016104d0906120f5565b60405180910390fd5b60001515600860003373ffffffffffffffffffffffffffffffffffffffff1673ffffffffffffffffffffffffffffffffffffffff16815260200190815260200160002060070160009054906101000a900460ff161515141561054e576003600081548092919061054890612349565b91905055505b6000600860003373ffffffffffffffffffffffffffffffffffffffff1673ffffffffffffffffffffffffffffffffffffffff16815260200190815260200160002060050154905083600860003373ffffffffffffffffffffffffffffffffffffffff1673ffffffffffffffffffffffffffffffffffffffff16815260200190815260200160002060000160008381526020019081526020016000206000018190555042600860003373ffffffffffffffffffffffffffffffffffffffff1673ffffffffffffffffffffffffffffffffffffffff1681526020019081526020016000206000016000838152602001908152602001600020600201819055506007544261065991906121ec565b600860003373ffffffffffffffffffffffffffffffffffffffff1673ffffffffffffffffffffffffffffffffffffffff16815260200190815260200160002060000160008381526020019081526020016000206001018190555080600860003373ffffffffffffffffffffffffffffffffffffffff1673ffffffffffffffffffffffffffffffffffffffff16815260200190815260200160002060000160008381526020019081526020016000206003018190555083600860003373ffffffffffffffffffffffffffffffffffffffff1673ffffffffffffffffffffffffffffffffffffffff168152602001908152602001600020600601600082825461076091906121ec565b925050819055506001600860003373ffffffffffffffffffffffffffffffffffffffff1673ffffffffffffffffffffffffffffffffffffffff16815260200190815260200160002060070160006101000a81548160ff021916908315150217905550600860003373ffffffffffffffffffffffffffffffffffffffff1673ffffffffffffffffffffffffffffffffffffffff168152602001908152602001600020600501600081548092919061081590612349565b9190505550600160009054906101000a900473ffffffffffffffffffffffffffffffffffffffff1673ffffffffffffffffffffffffffffffffffffffff166323b872dd3330670de0b6b3a76400008861086e9190612273565b6040518463ffffffff1660e01b815260040161088c93929190611f61565b602060405180830381600087803b1580156108a657600080fd5b505af11580156108ba573d6000803e3d6000fd5b505050506040513d601f19601f820116820180604052508101906108de9190611b9c565b50600073ffffffffffffffffffffffffffffffffffffffff168373ffffffffffffffffffffffffffffffffffffffff16148061094557503373ffffffffffffffffffffffffffffffffffffffff168373ffffffffffffffffffffffffffffffffffffffff16145b156109d1576000600860003373ffffffffffffffffffffffffffffffffffffffff1673ffffffffffffffffffffffffffffffffffffffff16815260200190815260200160002060020160006101000a81548173ffffffffffffffffffffffffffffffffffffffff021916908373ffffffffffffffffffffffffffffffffffffffff160217905550610b00565b82600860003373ffffffffffffffffffffffffffffffffffffffff1673ffffffffffffffffffffffffffffffffffffffff16815260200190815260200160002060020160006101000a81548173ffffffffffffffffffffffffffffffffffffffff021916908373ffffffffffffffffffffffffffffffffffffffff160217905550600860008473ffffffffffffffffffffffffffffffffffffffff1673ffffffffffffffffffffffffffffffffffffffff168152602001908152602001600020600101339080600181540180825580915050600190039060005260206000200160009091909190916101000a81548173ffffffffffffffffffffffffffffffffffffffff021916908373ffffffffffffffffffffffffffffffffffffffff160217905550610aff338561171c565b5b600191505092915050565b8060058190555050565b60606000600860003373ffffffffffffffffffffffffffffffffffffffff1673ffffffffffffffffffffffffffffffffffffffff16815260200190815260200160002060050154905060008060005b83811015610bed576000600860003373ffffffffffffffffffffffffffffffffffffffff1673ffffffffffffffffffffffffffffffffffffffff1681526020019081526020016000206000016000838152602001908152602001600020600001541115610bda578280610bd690612349565b9350505b8080610be590612349565b915050610b64565b5060008267ffffffffffffffff811115610c0a57610c0961241f565b5b604051908082528060200260200182016040528015610c4357816020015b610c30611aee565b815260200190600190039081610c285790505b50905060005b84811015610d76576000600860003373ffffffffffffffffffffffffffffffffffffffff1673ffffffffffffffffffffffffffffffffffffffff1681526020019081526020016000206000016000838152602001908152602001600020600001541115610d6357600860003373ffffffffffffffffffffffffffffffffffffffff1673ffffffffffffffffffffffffffffffffffffffff1681526020019081526020016000206000016000828152602001908152602001600020604051806080016040529081600082015481526020016001820154815260200160028201548152602001600382015481525050828481518110610d4957610d486123f0565b5b60200260200101819052508280610d5f90612349565b9350505b8080610d6e90612349565b915050610c49565b508094505050505090565b600080600080600860003373ffffffffffffffffffffffffffffffffffffffff1673ffffffffffffffffffffffffffffffffffffffff16815260200190815260200160002060050154905060005b81811015610e7757600860003373ffffffffffffffffffffffffffffffffffffffff1673ffffffffffffffffffffffffffffffffffffffff16815260200190815260200160002060000160008281526020019081526020016000206002015442610e3991906122cd565b9250603c83610e489190612242565b92506000831115610e645760045483610e619190612273565b93505b8080610e6f90612349565b915050610dcf565b5082935050505090565b8060068190555050565b600080600860003373ffffffffffffffffffffffffffffffffffffffff1673ffffffffffffffffffffffffffffffffffffffff16815260200190815260200160002060000160008481526020019081526020016000206000015411610f25576040517f08c379a0000000000000000000000000000000000000000000000000000000008152600401610f1c90612095565b60405180910390fd5b6000600860003373ffffffffffffffffffffffffffffffffffffffff1673ffffffffffffffffffffffffffffffffffffffff168152602001908152602001600020600001600084815260200190815260200160002060000154905042600860003373ffffffffffffffffffffffffffffffffffffffff1673ffffffffffffffffffffffffffffffffffffffff1681526020019081526020016000206000016000858152602001908152602001600020600101541115610fee57600281610feb9190612242565b90505b600160009054906101000a900473ffffffffffffffffffffffffffffffffffffffff1673ffffffffffffffffffffffffffffffffffffffff1663a9059cbb33836040518363ffffffff1660e01b815260040161104b929190611f98565b602060405180830381600087803b15801561106557600080fd5b505af1158015611079573d6000803e3d6000fd5b505050506040513d601f19601f8201168201806040525081019061109d9190611b9c565b50600160009054906101000a900473ffffffffffffffffffffffffffffffffffffffff1673ffffffffffffffffffffffffffffffffffffffff1663a9059cbb60008054906101000a900473ffffffffffffffffffffffffffffffffffffffff16836040518363ffffffff1660e01b815260040161111b929190611f98565b602060405180830381600087803b15801561113557600080fd5b505af1158015611149573d6000803e3d6000fd5b505050506040513d601f19601f8201168201806040525081019061116d9190611b9c565b506000600860003373ffffffffffffffffffffffffffffffffffffffff1673ffffffffffffffffffffffffffffffffffffffff16815260200190815260200160002060000160008581526020019081526020016000206000018190555080600860003373ffffffffffffffffffffffffffffffffffffffff1673ffffffffffffffffffffffffffffffffffffffff168152602001908152602001600020600601600082825461121c91906122cd565b925050819055506001915050919050565b60008054906101000a900473ffffffffffffffffffffffffffffffffffffffff1681565b6000600860003373ffffffffffffffffffffffffffffffffffffffff1673ffffffffffffffffffffffffffffffffffffffff16815260200190815260200160002060060154905090565b60606000601467ffffffffffffffff8111156112ba576112b961241f565b5b6040519080825280602002602001820160405280156112f357816020015b6112e0611b16565b8152602001906001900390816112d85790505b50905060005b60148110156114b8576000600860003373ffffffffffffffffffffffffffffffffffffffff1673ffffffffffffffffffffffffffffffffffffffff168152602001908152602001600020600301600083815260200190815260200160002060000154111561145a57600860003373ffffffffffffffffffffffffffffffffffffffff1673ffffffffffffffffffffffffffffffffffffffff1681526020019081526020016000206003016000828152602001908152602001600020600001548282815181106113cb576113ca6123f0565b5b60200260200101516000018181525050600860003373ffffffffffffffffffffffffffffffffffffffff1673ffffffffffffffffffffffffffffffffffffffff168152602001908152602001600020600301600082815260200190815260200160002060010154828281518110611445576114446123f0565b5b602002602001015160200181815250506114a5565b600082828151811061146f5761146e6123f0565b5b602002602001015160000181815250506000828281518110611494576114936123f0565b5b602002602001015160200181815250505b80806114b090612349565b9150506112f9565b508091505090565b6000806114cb610d81565b905060008111611510576040517f08c379a0000000000000000000000000000000000000000000000000000000008152600401611507906120b5565b60405180910390fd5b600160009054906101000a900473ffffffffffffffffffffffffffffffffffffffff1673ffffffffffffffffffffffffffffffffffffffff1663a9059cbb33836040518363ffffffff1660e01b815260040161156d929190611f98565b602060405180830381600087803b15801561158757600080fd5b505af115801561159b573d6000803e3d6000fd5b505050506040513d601f19601f820116820180604052508101906115bf9190611b9c565b50600191505090565b816006819055508260058190555080600481905550505050565b60086020528060005260406000206000915090508060020160009054906101000a900473ffffffffffffffffffffffffffffffffffffffff16908060040154908060050154908060060154908060070160009054906101000a900460ff16905085565b60008054906101000a900473ffffffffffffffffffffffffffffffffffffffff1673ffffffffffffffffffffffffffffffffffffffff163373ffffffffffffffffffffffffffffffffffffffff16146116d3576040517f08c379a00000000000000000000000000000000000000000000000000000000081526004016116ca906120d5565b60405180910390fd5b806000806101000a81548173ffffffffffffffffffffffffffffffffffffffff021916908373ffffffffffffffffffffffffffffffffffffffff16021790555050565b60045481565b60008290506000600567ffffffffffffffff81111561173e5761173d61241f565b5b60405190808252806020026020018201604052801561176c5781602001602082028036833780820191505090505b509050674563918244f400008160008151811061178c5761178b6123f0565b5b6020026020010181815250506729a2241af62c0000816001815181106117b5576117b46123f0565b5b602002602001018181525050671bc16d674ec80000816002815181106117de576117dd6123f0565b5b602002602001018181525050670de0b6b3a764000081600381518110611807576118066123f0565b5b6020026020010181815250506706f05b59d3b20000816004815181106118305761182f6123f0565b5b602002602001018181525050600080600090505b601481101561186057808061185890612349565b915050611844565b5060005b600a811015611ae657600081141561187f57600091506118c7565b600181141561189157600191506118c6565b60028114156118a357600291506118c5565b60028111156118b557600391506118c4565b60078111156118c357600491505b5b5b5b5b600073ffffffffffffffffffffffffffffffffffffffff16600860008673ffffffffffffffffffffffffffffffffffffffff1673ffffffffffffffffffffffffffffffffffffffff16815260200190815260200160002060020160009054906101000a900473ffffffffffffffffffffffffffffffffffffffff1673ffffffffffffffffffffffffffffffffffffffff1614611ad357600860008573ffffffffffffffffffffffffffffffffffffffff1673ffffffffffffffffffffffffffffffffffffffff16815260200190815260200160002060020160009054906101000a900473ffffffffffffffffffffffffffffffffffffffff16935060006064868585815181106119da576119d96123f0565b5b60200260200101516119ec9190612273565b6119f69190612242565b905080600860008773ffffffffffffffffffffffffffffffffffffffff1673ffffffffffffffffffffffffffffffffffffffff16815260200190815260200160002060030160008481526020019081526020016000206000016000828254611a5e91906121ec565b92505081905550600860008673ffffffffffffffffffffffffffffffffffffffff1673ffffffffffffffffffffffffffffffffffffffff16815260200190815260200160002060030160008381526020019081526020016000206001016000815480929190611acc90612349565b9190505550505b8080611ade90612349565b915050611864565b505050505050565b6040518060800160405280600081526020016000815260200160008152602001600081525090565b604051806040016040528060008152602001600081525090565b600081359050611b3f81612569565b92915050565b600081519050611b5481612580565b92915050565b600081359050611b6981612597565b92915050565b600060208284031215611b8557611b8461244e565b5b6000611b9384828501611b30565b91505092915050565b600060208284031215611bb257611bb161244e565b5b6000611bc084828501611b45565b91505092915050565b600060208284031215611bdf57611bde61244e565b5b6000611bed84828501611b5a565b91505092915050565b60008060408385031215611c0d57611c0c61244e565b5b6000611c1b85828601611b5a565b9250506020611c2c85828601611b30565b9150509250929050565b600080600060608486031215611c4f57611c4e61244e565b5b6000611c5d86828701611b5a565b9350506020611c6e86828701611b5a565b9250506040611c7f86828701611b5a565b9150509250925092565b6000611c958383611cd1565b60208301905092915050565b6000611cad8383611ea4565b60808301905092915050565b6000611cc58383611ef9565b60408301905092915050565b611cda81612301565b82525050565b611ce981612301565b82525050565b6000611cfa82612160565b611d0481856121a8565b9350611d0f83612130565b8060005b83811015611d40578151611d278882611c89565b9750611d3283612181565b925050600181019050611d13565b5085935050505092915050565b6000611d588261216b565b611d6281856121b9565b9350611d6d83612140565b8060005b83811015611d9e578151611d858882611ca1565b9750611d908361218e565b925050600181019050611d71565b5085935050505092915050565b6000611db682612176565b611dc081856121ca565b9350611dcb83612150565b8060005b83811015611dfc578151611de38882611cb9565b9750611dee8361219b565b925050600181019050611dcf565b5085935050505092915050565b611e1281612313565b82525050565b6000611e256025836121db565b9150611e3082612453565b604082019050919050565b6000611e486022836121db565b9150611e53826124a2565b604082019050919050565b6000611e6b6021836121db565b9150611e76826124f1565b604082019050919050565b6000611e8e601f836121db565b9150611e9982612540565b602082019050919050565b608082016000820151611eba6000850182611f28565b506020820151611ecd6020850182611f28565b506040820151611ee06040850182611f28565b506060820151611ef36060850182611f28565b50505050565b604082016000820151611f0f6000850182611f28565b506020820151611f226020850182611f28565b50505050565b611f318161233f565b82525050565b611f408161233f565b82525050565b6000602082019050611f5b6000830184611ce0565b92915050565b6000606082019050611f766000830186611ce0565b611f836020830185611ce0565b611f906040830184611f37565b949350505050565b6000604082019050611fad6000830185611ce0565b611fba6020830184611f37565b9392505050565b600060a082019050611fd66000830188611ce0565b611fe36020830187611f37565b611ff06040830186611f37565b611ffd6060830185611f37565b61200a6080830184611e09565b9695505050505050565b6000602082019050818103600083015261202e8184611cef565b905092915050565b600060208201905081810360008301526120508184611d4d565b905092915050565b600060208201905081810360008301526120728184611dab565b905092915050565b600060208201905061208f6000830184611e09565b92915050565b600060208201905081810360008301526120ae81611e18565b9050919050565b600060208201905081810360008301526120ce81611e3b565b9050919050565b600060208201905081810360008301526120ee81611e5e565b9050919050565b6000602082019050818103600083015261210e81611e81565b9050919050565b600060208201905061212a6000830184611f37565b92915050565b6000819050602082019050919050565b6000819050602082019050919050565b6000819050602082019050919050565b600081519050919050565b600081519050919050565b600081519050919050565b6000602082019050919050565b6000602082019050919050565b6000602082019050919050565b600082825260208201905092915050565b600082825260208201905092915050565b600082825260208201905092915050565b600082825260208201905092915050565b60006121f78261233f565b91506122028361233f565b9250827fffffffffffffffffffffffffffffffffffffffffffffffffffffffffffffffff0382111561223757612236612392565b5b828201905092915050565b600061224d8261233f565b91506122588361233f565b925082612268576122676123c1565b5b828204905092915050565b600061227e8261233f565b91506122898361233f565b9250817fffffffffffffffffffffffffffffffffffffffffffffffffffffffffffffffff04831182151516156122c2576122c1612392565b5b828202905092915050565b60006122d88261233f565b91506122e38361233f565b9250828210156122f6576122f5612392565b5b828203905092915050565b600061230c8261231f565b9050919050565b60008115159050919050565b600073ffffffffffffffffffffffffffffffffffffffff82169050919050565b6000819050919050565b60006123548261233f565b91507fffffffffffffffffffffffffffffffffffffffffffffffffffffffffffffffff82141561238757612386612392565b5b600182019050919050565b7f4e487b7100000000000000000000000000000000000000000000000000000000600052601160045260246000fd5b7f4e487b7100000000000000000000000000000000000000000000000000000000600052601260045260246000fd5b7f4e487b7100000000000000000000000000000000000000000000000000000000600052603260045260246000fd5b7f4e487b7100000000000000000000000000000000000000000000000000000000600052604160045260246000fd5b600080fd5b7f796f7520646f6e74206861766520696e766573746d656e7420746f207769746860008201527f647261776e000000000000000000000000000000000000000000000000000000602082015250565b7f796f7520646f6e742068617665207265776172647320746f207769746864726160008201527f776e000000000000000000000000000000000000000000000000000000000000602082015250565b7f6f6e6c79204f776e65722063616e2063616c6c20746869732066756e6374696f60008201527f6e00000000000000000000000000000000000000000000000000000000000000602082015250565b7f76616c7565206973206e6f742067726561746572207468616e20313030303000600082015250565b61257281612301565b811461257d57600080fd5b50565b61258981612313565b811461259457600080fd5b50565b6125a08161233f565b81146125ab57600080fd5b5056fea26469706673582212205e986d8451135d2dc2c305bcf0c7525c4ac8be2576ee2d01d4001b59c80edcf064736f6c63430008070033",
					"opcodes": "PUSH1 0x80 PUSH1 0x40 MSTORE PUSH20 0xD902364FE763A130C12457C9FB17E1603374C424 PUSH1 0x1 PUSH1 0x0 PUSH2 0x100 EXP DUP2 SLOAD DUP2 PUSH20 0xFFFFFFFFFFFFFFFFFFFFFFFFFFFFFFFFFFFFFFFF MUL NOT AND SWAP1 DUP4 PUSH20 0xFFFFFFFFFFFFFFFFFFFFFFFFFFFFFFFFFFFFFFFF AND MUL OR SWAP1 SSTORE POP PUSH20 0xB5047153AFCC59523F7F6D6F492F716A21B04681 PUSH1 0x2 PUSH1 0x0 PUSH2 0x100 EXP DUP2 SLOAD DUP2 PUSH20 0xFFFFFFFFFFFFFFFFFFFFFFFFFFFFFFFFFFFFFFFF MUL NOT AND SWAP1 DUP4 PUSH20 0xFFFFFFFFFFFFFFFFFFFFFFFFFFFFFFFFFFFFFFFF AND MUL OR SWAP1 SSTORE POP PUSH8 0x6F05B59D3B20000 PUSH1 0x4 SSTORE PUSH2 0x2710 PUSH1 0x5 SSTORE PUSH11 0x422CA8B0A00A425000000 PUSH1 0x6 SSTORE PUSH4 0x18B8200 PUSH1 0x7 SSTORE CALLVALUE DUP1 ISZERO PUSH2 0xE3 JUMPI PUSH1 0x0 DUP1 REVERT JUMPDEST POP CALLER PUSH1 0x0 DUP1 PUSH2 0x100 EXP DUP2 SLOAD DUP2 PUSH20 0xFFFFFFFFFFFFFFFFFFFFFFFFFFFFFFFFFFFFFFFF MUL NOT AND SWAP1 DUP4 PUSH20 0xFFFFFFFFFFFFFFFFFFFFFFFFFFFFFFFFFFFFFFFF AND MUL OR SWAP1 SSTORE POP PUSH2 0x25E4 DUP1 PUSH2 0x133 PUSH1 0x0 CODECOPY PUSH1 0x0 RETURN INVALID PUSH1 0x80 PUSH1 0x40 MSTORE CALLVALUE DUP1 ISZERO PUSH2 0x10 JUMPI PUSH1 0x0 DUP1 REVERT JUMPDEST POP PUSH1 0x4 CALLDATASIZE LT PUSH2 0x116 JUMPI PUSH1 0x0 CALLDATALOAD PUSH1 0xE0 SHR DUP1 PUSH4 0x5D3EEA91 GT PUSH2 0xA2 JUMPI DUP1 PUSH4 0xC885BC58 GT PUSH2 0x71 JUMPI DUP1 PUSH4 0xC885BC58 EQ PUSH2 0x2BF JUMPI DUP1 PUSH4 0xCE10DB0A EQ PUSH2 0x2DD JUMPI DUP1 PUSH4 0xD3560EE8 EQ PUSH2 0x2F9 JUMPI DUP1 PUSH4 0xF2FDE38B EQ PUSH2 0x32D JUMPI DUP1 PUSH4 0xF7C618C1 EQ PUSH2 0x349 JUMPI PUSH2 0x116 JUMP JUMPDEST DUP1 PUSH4 0x5D3EEA91 EQ PUSH2 0x235 JUMPI DUP1 PUSH4 0x8DA5CB5B EQ PUSH2 0x265 JUMPI DUP1 PUSH4 0x929F6BBE EQ PUSH2 0x283 JUMPI DUP1 PUSH4 0xA61BE99D EQ PUSH2 0x2A1 JUMPI PUSH2 0x116 JUMP JUMPDEST DUP1 PUSH4 0x2BCCDCE6 GT PUSH2 0xE9 JUMPI DUP1 PUSH4 0x2BCCDCE6 EQ PUSH2 0x191 JUMPI DUP1 PUSH4 0x32D4E783 EQ PUSH2 0x1C1 JUMPI DUP1 PUSH4 0x3A1E0833 EQ PUSH2 0x1DD JUMPI DUP1 PUSH4 0x3D18B912 EQ PUSH2 0x1FB JUMPI DUP1 PUSH4 0x500CB85F EQ PUSH2 0x219 JUMPI PUSH2 0x116 JUMP JUMPDEST DUP1 PUSH4 0xC5F58F4 EQ PUSH2 0x11B JUMPI DUP1 PUSH4 0x10CDE60A EQ PUSH2 0x139 JUMPI DUP1 PUSH4 0x1E8ABA35 EQ PUSH2 0x157 JUMPI DUP1 PUSH4 0x293BE456 EQ PUSH2 0x175 JUMPI JUMPDEST PUSH1 0x0 DUP1 REVERT JUMPDEST PUSH2 0x123 PUSH2 0x367 JUMP JUMPDEST PUSH1 0x40 MLOAD PUSH2 0x130 SWAP2 SWAP1 PUSH2 0x2014 JUMP JUMPDEST PUSH1 0x40 MLOAD DUP1 SWAP2 SUB SWAP1 RETURN JUMPDEST PUSH2 0x141 PUSH2 0x435 JUMP JUMPDEST PUSH1 0x40 MLOAD PUSH2 0x14E SWAP2 SWAP1 PUSH2 0x2115 JUMP JUMPDEST PUSH1 0x40 MLOAD DUP1 SWAP2 SUB SWAP1 RETURN JUMPDEST PUSH2 0x15F PUSH2 0x43B JUMP JUMPDEST PUSH1 0x40 MLOAD PUSH2 0x16C SWAP2 SWAP1 PUSH2 0x2115 JUMP JUMPDEST PUSH1 0x40 MLOAD DUP1 SWAP2 SUB SWAP1 RETURN JUMPDEST PUSH2 0x18F PUSH1 0x4 DUP1 CALLDATASIZE SUB DUP2 ADD SWAP1 PUSH2 0x18A SWAP2 SWAP1 PUSH2 0x1BC9 JUMP JUMPDEST PUSH2 0x488 JUMP JUMPDEST STOP JUMPDEST PUSH2 0x1AB PUSH1 0x4 DUP1 CALLDATASIZE SUB DUP2 ADD SWAP1 PUSH2 0x1A6 SWAP2 SWAP1 PUSH2 0x1BF6 JUMP JUMPDEST PUSH2 0x492 JUMP JUMPDEST PUSH1 0x40 MLOAD PUSH2 0x1B8 SWAP2 SWAP1 PUSH2 0x207A JUMP JUMPDEST PUSH1 0x40 MLOAD DUP1 SWAP2 SUB SWAP1 RETURN JUMPDEST PUSH2 0x1DB PUSH1 0x4 DUP1 CALLDATASIZE SUB DUP2 ADD SWAP1 PUSH2 0x1D6 SWAP2 SWAP1 PUSH2 0x1BC9 JUMP JUMPDEST PUSH2 0xB0B JUMP JUMPDEST STOP JUMPDEST PUSH2 0x1E5 PUSH2 0xB15 JUMP JUMPDEST PUSH1 0x40 MLOAD PUSH2 0x1F2 SWAP2 SWAP1 PUSH2 0x2036 JUMP JUMPDEST PUSH1 0x40 MLOAD DUP1 SWAP2 SUB SWAP1 RETURN JUMPDEST PUSH2 0x203 PUSH2 0xD81 JUMP JUMPDEST PUSH1 0x40 MLOAD PUSH2 0x210 SWAP2 SWAP1 PUSH2 0x2115 JUMP JUMPDEST PUSH1 0x40 MLOAD DUP1 SWAP2 SUB SWAP1 RETURN JUMPDEST PUSH2 0x233 PUSH1 0x4 DUP1 CALLDATASIZE SUB DUP2 ADD SWAP1 PUSH2 0x22E SWAP2 SWAP1 PUSH2 0x1BC9 JUMP JUMPDEST PUSH2 0xE81 JUMP JUMPDEST STOP JUMPDEST PUSH2 0x24F PUSH1 0x4 DUP1 CALLDATASIZE SUB DUP2 ADD SWAP1 PUSH2 0x24A SWAP2 SWAP1 PUSH2 0x1BC9 JUMP JUMPDEST PUSH2 0xE8B JUMP JUMPDEST PUSH1 0x40 MLOAD PUSH2 0x25C SWAP2 SWAP1 PUSH2 0x207A JUMP JUMPDEST PUSH1 0x40 MLOAD DUP1 SWAP2 SUB SWAP1 RETURN JUMPDEST PUSH2 0x26D PUSH2 0x122D JUMP JUMPDEST PUSH1 0x40 MLOAD PUSH2 0x27A SWAP2 SWAP1 PUSH2 0x1F46 JUMP JUMPDEST PUSH1 0x40 MLOAD DUP1 SWAP2 SUB SWAP1 RETURN JUMPDEST PUSH2 0x28B PUSH2 0x1251 JUMP JUMPDEST PUSH1 0x40 MLOAD PUSH2 0x298 SWAP2 SWAP1 PUSH2 0x2115 JUMP JUMPDEST PUSH1 0x40 MLOAD DUP1 SWAP2 SUB SWAP1 RETURN JUMPDEST PUSH2 0x2A9 PUSH2 0x129B JUMP JUMPDEST PUSH1 0x40 MLOAD PUSH2 0x2B6 SWAP2 SWAP1 PUSH2 0x2058 JUMP JUMPDEST PUSH1 0x40 MLOAD DUP1 SWAP2 SUB SWAP1 RETURN JUMPDEST PUSH2 0x2C7 PUSH2 0x14C0 JUMP JUMPDEST PUSH1 0x40 MLOAD PUSH2 0x2D4 SWAP2 SWAP1 PUSH2 0x207A JUMP JUMPDEST PUSH1 0x40 MLOAD DUP1 SWAP2 SUB SWAP1 RETURN JUMPDEST PUSH2 0x2F7 PUSH1 0x4 DUP1 CALLDATASIZE SUB DUP2 ADD SWAP1 PUSH2 0x2F2 SWAP2 SWAP1 PUSH2 0x1C36 JUMP JUMPDEST PUSH2 0x15C8 JUMP JUMPDEST STOP JUMPDEST PUSH2 0x313 PUSH1 0x4 DUP1 CALLDATASIZE SUB DUP2 ADD SWAP1 PUSH2 0x30E SWAP2 SWAP1 PUSH2 0x1B6F JUMP JUMPDEST PUSH2 0x15E2 JUMP JUMPDEST PUSH1 0x40 MLOAD PUSH2 0x324 SWAP6 SWAP5 SWAP4 SWAP3 SWAP2 SWAP1 PUSH2 0x1FC1 JUMP JUMPDEST PUSH1 0x40 MLOAD DUP1 SWAP2 SUB SWAP1 RETURN JUMPDEST PUSH2 0x347 PUSH1 0x4 DUP1 CALLDATASIZE SUB DUP2 ADD SWAP1 PUSH2 0x342 SWAP2 SWAP1 PUSH2 0x1B6F JUMP JUMPDEST PUSH2 0x1645 JUMP JUMPDEST STOP JUMPDEST PUSH2 0x351 PUSH2 0x1716 JUMP JUMPDEST PUSH1 0x40 MLOAD PUSH2 0x35E SWAP2 SWAP1 PUSH2 0x2115 JUMP JUMPDEST PUSH1 0x40 MLOAD DUP1 SWAP2 SUB SWAP1 RETURN JUMPDEST PUSH1 0x60 PUSH1 0x8 PUSH1 0x0 CALLER PUSH20 0xFFFFFFFFFFFFFFFFFFFFFFFFFFFFFFFFFFFFFFFF AND PUSH20 0xFFFFFFFFFFFFFFFFFFFFFFFFFFFFFFFFFFFFFFFF AND DUP2 MSTORE PUSH1 0x20 ADD SWAP1 DUP2 MSTORE PUSH1 0x20 ADD PUSH1 0x0 KECCAK256 PUSH1 0x1 ADD DUP1 SLOAD DUP1 PUSH1 0x20 MUL PUSH1 0x20 ADD PUSH1 0x40 MLOAD SWAP1 DUP2 ADD PUSH1 0x40 MSTORE DUP1 SWAP3 SWAP2 SWAP1 DUP2 DUP2 MSTORE PUSH1 0x20 ADD DUP3 DUP1 SLOAD DUP1 ISZERO PUSH2 0x42B JUMPI PUSH1 0x20 MUL DUP3 ADD SWAP2 SWAP1 PUSH1 0x0 MSTORE PUSH1 0x20 PUSH1 0x0 KECCAK256 SWAP1 JUMPDEST DUP2 PUSH1 0x0 SWAP1 SLOAD SWAP1 PUSH2 0x100 EXP SWAP1 DIV PUSH20 0xFFFFFFFFFFFFFFFFFFFFFFFFFFFFFFFFFFFFFFFF AND PUSH20 0xFFFFFFFFFFFFFFFFFFFFFFFFFFFFFFFFFFFFFFFF AND DUP2 MSTORE PUSH1 0x20 ADD SWAP1 PUSH1 0x1 ADD SWAP1 DUP1 DUP4 GT PUSH2 0x3E1 JUMPI JUMPDEST POP POP POP POP POP SWAP1 POP SWAP1 JUMP JUMPDEST PUSH1 0x3 SLOAD DUP2 JUMP JUMPDEST PUSH1 0x0 PUSH1 0x8 PUSH1 0x0 CALLER PUSH20 0xFFFFFFFFFFFFFFFFFFFFFFFFFFFFFFFFFFFFFFFF AND PUSH20 0xFFFFFFFFFFFFFFFFFFFFFFFFFFFFFFFFFFFFFFFF AND DUP2 MSTORE PUSH1 0x20 ADD SWAP1 DUP2 MSTORE PUSH1 0x20 ADD PUSH1 0x0 KECCAK256 PUSH1 0x1 ADD DUP1 SLOAD SWAP1 POP SWAP1 POP SWAP1 JUMP JUMPDEST DUP1 PUSH1 0x4 DUP2 SWAP1 SSTORE POP POP JUMP JUMPDEST PUSH1 0x0 PUSH1 0x5 SLOAD DUP4 LT ISZERO PUSH2 0x4D9 JUMPI PUSH1 0x40 MLOAD PUSH32 0x8C379A000000000000000000000000000000000000000000000000000000000 DUP2 MSTORE PUSH1 0x4 ADD PUSH2 0x4D0 SWAP1 PUSH2 0x20F5 JUMP JUMPDEST PUSH1 0x40 MLOAD DUP1 SWAP2 SUB SWAP1 REVERT JUMPDEST PUSH1 0x0 ISZERO ISZERO PUSH1 0x8 PUSH1 0x0 CALLER PUSH20 0xFFFFFFFFFFFFFFFFFFFFFFFFFFFFFFFFFFFFFFFF AND PUSH20 0xFFFFFFFFFFFFFFFFFFFFFFFFFFFFFFFFFFFFFFFF AND DUP2 MSTORE PUSH1 0x20 ADD SWAP1 DUP2 MSTORE PUSH1 0x20 ADD PUSH1 0x0 KECCAK256 PUSH1 0x7 ADD PUSH1 0x0 SWAP1 SLOAD SWAP1 PUSH2 0x100 EXP SWAP1 DIV PUSH1 0xFF AND ISZERO ISZERO EQ ISZERO PUSH2 0x54E JUMPI PUSH1 0x3 PUSH1 0x0 DUP2 SLOAD DUP1 SWAP3 SWAP2 SWAP1 PUSH2 0x548 SWAP1 PUSH2 0x2349 JUMP JUMPDEST SWAP2 SWAP1 POP SSTORE POP JUMPDEST PUSH1 0x0 PUSH1 0x8 PUSH1 0x0 CALLER PUSH20 0xFFFFFFFFFFFFFFFFFFFFFFFFFFFFFFFFFFFFFFFF AND PUSH20 0xFFFFFFFFFFFFFFFFFFFFFFFFFFFFFFFFFFFFFFFF AND DUP2 MSTORE PUSH1 0x20 ADD SWAP1 DUP2 MSTORE PUSH1 0x20 ADD PUSH1 0x0 KECCAK256 PUSH1 0x5 ADD SLOAD SWAP1 POP DUP4 PUSH1 0x8 PUSH1 0x0 CALLER PUSH20 0xFFFFFFFFFFFFFFFFFFFFFFFFFFFFFFFFFFFFFFFF AND PUSH20 0xFFFFFFFFFFFFFFFFFFFFFFFFFFFFFFFFFFFFFFFF AND DUP2 MSTORE PUSH1 0x20 ADD SWAP1 DUP2 MSTORE PUSH1 0x20 ADD PUSH1 0x0 KECCAK256 PUSH1 0x0 ADD PUSH1 0x0 DUP4 DUP2 MSTORE PUSH1 0x20 ADD SWAP1 DUP2 MSTORE PUSH1 0x20 ADD PUSH1 0x0 KECCAK256 PUSH1 0x0 ADD DUP2 SWAP1 SSTORE POP TIMESTAMP PUSH1 0x8 PUSH1 0x0 CALLER PUSH20 0xFFFFFFFFFFFFFFFFFFFFFFFFFFFFFFFFFFFFFFFF AND PUSH20 0xFFFFFFFFFFFFFFFFFFFFFFFFFFFFFFFFFFFFFFFF AND DUP2 MSTORE PUSH1 0x20 ADD SWAP1 DUP2 MSTORE PUSH1 0x20 ADD PUSH1 0x0 KECCAK256 PUSH1 0x0 ADD PUSH1 0x0 DUP4 DUP2 MSTORE PUSH1 0x20 ADD SWAP1 DUP2 MSTORE PUSH1 0x20 ADD PUSH1 0x0 KECCAK256 PUSH1 0x2 ADD DUP2 SWAP1 SSTORE POP PUSH1 0x7 SLOAD TIMESTAMP PUSH2 0x659 SWAP2 SWAP1 PUSH2 0x21EC JUMP JUMPDEST PUSH1 0x8 PUSH1 0x0 CALLER PUSH20 0xFFFFFFFFFFFFFFFFFFFFFFFFFFFFFFFFFFFFFFFF AND PUSH20 0xFFFFFFFFFFFFFFFFFFFFFFFFFFFFFFFFFFFFFFFF AND DUP2 MSTORE PUSH1 0x20 ADD SWAP1 DUP2 MSTORE PUSH1 0x20 ADD PUSH1 0x0 KECCAK256 PUSH1 0x0 ADD PUSH1 0x0 DUP4 DUP2 MSTORE PUSH1 0x20 ADD SWAP1 DUP2 MSTORE PUSH1 0x20 ADD PUSH1 0x0 KECCAK256 PUSH1 0x1 ADD DUP2 SWAP1 SSTORE POP DUP1 PUSH1 0x8 PUSH1 0x0 CALLER PUSH20 0xFFFFFFFFFFFFFFFFFFFFFFFFFFFFFFFFFFFFFFFF AND PUSH20 0xFFFFFFFFFFFFFFFFFFFFFFFFFFFFFFFFFFFFFFFF AND DUP2 MSTORE PUSH1 0x20 ADD SWAP1 DUP2 MSTORE PUSH1 0x20 ADD PUSH1 0x0 KECCAK256 PUSH1 0x0 ADD PUSH1 0x0 DUP4 DUP2 MSTORE PUSH1 0x20 ADD SWAP1 DUP2 MSTORE PUSH1 0x20 ADD PUSH1 0x0 KECCAK256 PUSH1 0x3 ADD DUP2 SWAP1 SSTORE POP DUP4 PUSH1 0x8 PUSH1 0x0 CALLER PUSH20 0xFFFFFFFFFFFFFFFFFFFFFFFFFFFFFFFFFFFFFFFF AND PUSH20 0xFFFFFFFFFFFFFFFFFFFFFFFFFFFFFFFFFFFFFFFF AND DUP2 MSTORE PUSH1 0x20 ADD SWAP1 DUP2 MSTORE PUSH1 0x20 ADD PUSH1 0x0 KECCAK256 PUSH1 0x6 ADD PUSH1 0x0 DUP3 DUP3 SLOAD PUSH2 0x760 SWAP2 SWAP1 PUSH2 0x21EC JUMP JUMPDEST SWAP3 POP POP DUP2 SWAP1 SSTORE POP PUSH1 0x1 PUSH1 0x8 PUSH1 0x0 CALLER PUSH20 0xFFFFFFFFFFFFFFFFFFFFFFFFFFFFFFFFFFFFFFFF AND PUSH20 0xFFFFFFFFFFFFFFFFFFFFFFFFFFFFFFFFFFFFFFFF AND DUP2 MSTORE PUSH1 0x20 ADD SWAP1 DUP2 MSTORE PUSH1 0x20 ADD PUSH1 0x0 KECCAK256 PUSH1 0x7 ADD PUSH1 0x0 PUSH2 0x100 EXP DUP2 SLOAD DUP2 PUSH1 0xFF MUL NOT AND SWAP1 DUP4 ISZERO ISZERO MUL OR SWAP1 SSTORE POP PUSH1 0x8 PUSH1 0x0 CALLER PUSH20 0xFFFFFFFFFFFFFFFFFFFFFFFFFFFFFFFFFFFFFFFF AND PUSH20 0xFFFFFFFFFFFFFFFFFFFFFFFFFFFFFFFFFFFFFFFF AND DUP2 MSTORE PUSH1 0x20 ADD SWAP1 DUP2 MSTORE PUSH1 0x20 ADD PUSH1 0x0 KECCAK256 PUSH1 0x5 ADD PUSH1 0x0 DUP2 SLOAD DUP1 SWAP3 SWAP2 SWAP1 PUSH2 0x815 SWAP1 PUSH2 0x2349 JUMP JUMPDEST SWAP2 SWAP1 POP SSTORE POP PUSH1 0x1 PUSH1 0x0 SWAP1 SLOAD SWAP1 PUSH2 0x100 EXP SWAP1 DIV PUSH20 0xFFFFFFFFFFFFFFFFFFFFFFFFFFFFFFFFFFFFFFFF AND PUSH20 0xFFFFFFFFFFFFFFFFFFFFFFFFFFFFFFFFFFFFFFFF AND PUSH4 0x23B872DD CALLER ADDRESS PUSH8 0xDE0B6B3A7640000 DUP9 PUSH2 0x86E SWAP2 SWAP1 PUSH2 0x2273 JUMP JUMPDEST PUSH1 0x40 MLOAD DUP5 PUSH4 0xFFFFFFFF AND PUSH1 0xE0 SHL DUP2 MSTORE PUSH1 0x4 ADD PUSH2 0x88C SWAP4 SWAP3 SWAP2 SWAP1 PUSH2 0x1F61 JUMP JUMPDEST PUSH1 0x20 PUSH1 0x40 MLOAD DUP1 DUP4 SUB DUP2 PUSH1 0x0 DUP8 DUP1 EXTCODESIZE ISZERO DUP1 ISZERO PUSH2 0x8A6 JUMPI PUSH1 0x0 DUP1 REVERT JUMPDEST POP GAS CALL ISZERO DUP1 ISZERO PUSH2 0x8BA JUMPI RETURNDATASIZE PUSH1 0x0 DUP1 RETURNDATACOPY RETURNDATASIZE PUSH1 0x0 REVERT JUMPDEST POP POP POP POP PUSH1 0x40 MLOAD RETURNDATASIZE PUSH1 0x1F NOT PUSH1 0x1F DUP3 ADD AND DUP3 ADD DUP1 PUSH1 0x40 MSTORE POP DUP2 ADD SWAP1 PUSH2 0x8DE SWAP2 SWAP1 PUSH2 0x1B9C JUMP JUMPDEST POP PUSH1 0x0 PUSH20 0xFFFFFFFFFFFFFFFFFFFFFFFFFFFFFFFFFFFFFFFF AND DUP4 PUSH20 0xFFFFFFFFFFFFFFFFFFFFFFFFFFFFFFFFFFFFFFFF AND EQ DUP1 PUSH2 0x945 JUMPI POP CALLER PUSH20 0xFFFFFFFFFFFFFFFFFFFFFFFFFFFFFFFFFFFFFFFF AND DUP4 PUSH20 0xFFFFFFFFFFFFFFFFFFFFFFFFFFFFFFFFFFFFFFFF AND EQ JUMPDEST ISZERO PUSH2 0x9D1 JUMPI PUSH1 0x0 PUSH1 0x8 PUSH1 0x0 CALLER PUSH20 0xFFFFFFFFFFFFFFFFFFFFFFFFFFFFFFFFFFFFFFFF AND PUSH20 0xFFFFFFFFFFFFFFFFFFFFFFFFFFFFFFFFFFFFFFFF AND DUP2 MSTORE PUSH1 0x20 ADD SWAP1 DUP2 MSTORE PUSH1 0x20 ADD PUSH1 0x0 KECCAK256 PUSH1 0x2 ADD PUSH1 0x0 PUSH2 0x100 EXP DUP2 SLOAD DUP2 PUSH20 0xFFFFFFFFFFFFFFFFFFFFFFFFFFFFFFFFFFFFFFFF MUL NOT AND SWAP1 DUP4 PUSH20 0xFFFFFFFFFFFFFFFFFFFFFFFFFFFFFFFFFFFFFFFF AND MUL OR SWAP1 SSTORE POP PUSH2 0xB00 JUMP JUMPDEST DUP3 PUSH1 0x8 PUSH1 0x0 CALLER PUSH20 0xFFFFFFFFFFFFFFFFFFFFFFFFFFFFFFFFFFFFFFFF AND PUSH20 0xFFFFFFFFFFFFFFFFFFFFFFFFFFFFFFFFFFFFFFFF AND DUP2 MSTORE PUSH1 0x20 ADD SWAP1 DUP2 MSTORE PUSH1 0x20 ADD PUSH1 0x0 KECCAK256 PUSH1 0x2 ADD PUSH1 0x0 PUSH2 0x100 EXP DUP2 SLOAD DUP2 PUSH20 0xFFFFFFFFFFFFFFFFFFFFFFFFFFFFFFFFFFFFFFFF MUL NOT AND SWAP1 DUP4 PUSH20 0xFFFFFFFFFFFFFFFFFFFFFFFFFFFFFFFFFFFFFFFF AND MUL OR SWAP1 SSTORE POP PUSH1 0x8 PUSH1 0x0 DUP5 PUSH20 0xFFFFFFFFFFFFFFFFFFFFFFFFFFFFFFFFFFFFFFFF AND PUSH20 0xFFFFFFFFFFFFFFFFFFFFFFFFFFFFFFFFFFFFFFFF AND DUP2 MSTORE PUSH1 0x20 ADD SWAP1 DUP2 MSTORE PUSH1 0x20 ADD PUSH1 0x0 KECCAK256 PUSH1 0x1 ADD CALLER SWAP1 DUP1 PUSH1 0x1 DUP2 SLOAD ADD DUP1 DUP3 SSTORE DUP1 SWAP2 POP POP PUSH1 0x1 SWAP1 SUB SWAP1 PUSH1 0x0 MSTORE PUSH1 0x20 PUSH1 0x0 KECCAK256 ADD PUSH1 0x0 SWAP1 SWAP2 SWAP1 SWAP2 SWAP1 SWAP2 PUSH2 0x100 EXP DUP2 SLOAD DUP2 PUSH20 0xFFFFFFFFFFFFFFFFFFFFFFFFFFFFFFFFFFFFFFFF MUL NOT AND SWAP1 DUP4 PUSH20 0xFFFFFFFFFFFFFFFFFFFFFFFFFFFFFFFFFFFFFFFF AND MUL OR SWAP1 SSTORE POP PUSH2 0xAFF CALLER DUP6 PUSH2 0x171C JUMP JUMPDEST JUMPDEST PUSH1 0x1 SWAP2 POP POP SWAP3 SWAP2 POP POP JUMP JUMPDEST DUP1 PUSH1 0x5 DUP2 SWAP1 SSTORE POP POP JUMP JUMPDEST PUSH1 0x60 PUSH1 0x0 PUSH1 0x8 PUSH1 0x0 CALLER PUSH20 0xFFFFFFFFFFFFFFFFFFFFFFFFFFFFFFFFFFFFFFFF AND PUSH20 0xFFFFFFFFFFFFFFFFFFFFFFFFFFFFFFFFFFFFFFFF AND DUP2 MSTORE PUSH1 0x20 ADD SWAP1 DUP2 MSTORE PUSH1 0x20 ADD PUSH1 0x0 KECCAK256 PUSH1 0x5 ADD SLOAD SWAP1 POP PUSH1 0x0 DUP1 PUSH1 0x0 JUMPDEST DUP4 DUP2 LT ISZERO PUSH2 0xBED JUMPI PUSH1 0x0 PUSH1 0x8 PUSH1 0x0 CALLER PUSH20 0xFFFFFFFFFFFFFFFFFFFFFFFFFFFFFFFFFFFFFFFF AND PUSH20 0xFFFFFFFFFFFFFFFFFFFFFFFFFFFFFFFFFFFFFFFF AND DUP2 MSTORE PUSH1 0x20 ADD SWAP1 DUP2 MSTORE PUSH1 0x20 ADD PUSH1 0x0 KECCAK256 PUSH1 0x0 ADD PUSH1 0x0 DUP4 DUP2 MSTORE PUSH1 0x20 ADD SWAP1 DUP2 MSTORE PUSH1 0x20 ADD PUSH1 0x0 KECCAK256 PUSH1 0x0 ADD SLOAD GT ISZERO PUSH2 0xBDA JUMPI DUP3 DUP1 PUSH2 0xBD6 SWAP1 PUSH2 0x2349 JUMP JUMPDEST SWAP4 POP POP JUMPDEST DUP1 DUP1 PUSH2 0xBE5 SWAP1 PUSH2 0x2349 JUMP JUMPDEST SWAP2 POP POP PUSH2 0xB64 JUMP JUMPDEST POP PUSH1 0x0 DUP3 PUSH8 0xFFFFFFFFFFFFFFFF DUP2 GT ISZERO PUSH2 0xC0A JUMPI PUSH2 0xC09 PUSH2 0x241F JUMP JUMPDEST JUMPDEST PUSH1 0x40 MLOAD SWAP1 DUP1 DUP3 MSTORE DUP1 PUSH1 0x20 MUL PUSH1 0x20 ADD DUP3 ADD PUSH1 0x40 MSTORE DUP1 ISZERO PUSH2 0xC43 JUMPI DUP2 PUSH1 0x20 ADD JUMPDEST PUSH2 0xC30 PUSH2 0x1AEE JUMP JUMPDEST DUP2 MSTORE PUSH1 0x20 ADD SWAP1 PUSH1 0x1 SWAP1 SUB SWAP1 DUP2 PUSH2 0xC28 JUMPI SWAP1 POP JUMPDEST POP SWAP1 POP PUSH1 0x0 JUMPDEST DUP5 DUP2 LT ISZERO PUSH2 0xD76 JUMPI PUSH1 0x0 PUSH1 0x8 PUSH1 0x0 CALLER PUSH20 0xFFFFFFFFFFFFFFFFFFFFFFFFFFFFFFFFFFFFFFFF AND PUSH20 0xFFFFFFFFFFFFFFFFFFFFFFFFFFFFFFFFFFFFFFFF AND DUP2 MSTORE PUSH1 0x20 ADD SWAP1 DUP2 MSTORE PUSH1 0x20 ADD PUSH1 0x0 KECCAK256 PUSH1 0x0 ADD PUSH1 0x0 DUP4 DUP2 MSTORE PUSH1 0x20 ADD SWAP1 DUP2 MSTORE PUSH1 0x20 ADD PUSH1 0x0 KECCAK256 PUSH1 0x0 ADD SLOAD GT ISZERO PUSH2 0xD63 JUMPI PUSH1 0x8 PUSH1 0x0 CALLER PUSH20 0xFFFFFFFFFFFFFFFFFFFFFFFFFFFFFFFFFFFFFFFF AND PUSH20 0xFFFFFFFFFFFFFFFFFFFFFFFFFFFFFFFFFFFFFFFF AND DUP2 MSTORE PUSH1 0x20 ADD SWAP1 DUP2 MSTORE PUSH1 0x20 ADD PUSH1 0x0 KECCAK256 PUSH1 0x0 ADD PUSH1 0x0 DUP3 DUP2 MSTORE PUSH1 0x20 ADD SWAP1 DUP2 MSTORE PUSH1 0x20 ADD PUSH1 0x0 KECCAK256 PUSH1 0x40 MLOAD DUP1 PUSH1 0x80 ADD PUSH1 0x40 MSTORE SWAP1 DUP2 PUSH1 0x0 DUP3 ADD SLOAD DUP2 MSTORE PUSH1 0x20 ADD PUSH1 0x1 DUP3 ADD SLOAD DUP2 MSTORE PUSH1 0x20 ADD PUSH1 0x2 DUP3 ADD SLOAD DUP2 MSTORE PUSH1 0x20 ADD PUSH1 0x3 DUP3 ADD SLOAD DUP2 MSTORE POP POP DUP3 DUP5 DUP2 MLOAD DUP2 LT PUSH2 0xD49 JUMPI PUSH2 0xD48 PUSH2 0x23F0 JUMP JUMPDEST JUMPDEST PUSH1 0x20 MUL PUSH1 0x20 ADD ADD DUP2 SWAP1 MSTORE POP DUP3 DUP1 PUSH2 0xD5F SWAP1 PUSH2 0x2349 JUMP JUMPDEST SWAP4 POP POP JUMPDEST DUP1 DUP1 PUSH2 0xD6E SWAP1 PUSH2 0x2349 JUMP JUMPDEST SWAP2 POP POP PUSH2 0xC49 JUMP JUMPDEST POP DUP1 SWAP5 POP POP POP POP POP SWAP1 JUMP JUMPDEST PUSH1 0x0 DUP1 PUSH1 0x0 DUP1 PUSH1 0x8 PUSH1 0x0 CALLER PUSH20 0xFFFFFFFFFFFFFFFFFFFFFFFFFFFFFFFFFFFFFFFF AND PUSH20 0xFFFFFFFFFFFFFFFFFFFFFFFFFFFFFFFFFFFFFFFF AND DUP2 MSTORE PUSH1 0x20 ADD SWAP1 DUP2 MSTORE PUSH1 0x20 ADD PUSH1 0x0 KECCAK256 PUSH1 0x5 ADD SLOAD SWAP1 POP PUSH1 0x0 JUMPDEST DUP2 DUP2 LT ISZERO PUSH2 0xE77 JUMPI PUSH1 0x8 PUSH1 0x0 CALLER PUSH20 0xFFFFFFFFFFFFFFFFFFFFFFFFFFFFFFFFFFFFFFFF AND PUSH20 0xFFFFFFFFFFFFFFFFFFFFFFFFFFFFFFFFFFFFFFFF AND DUP2 MSTORE PUSH1 0x20 ADD SWAP1 DUP2 MSTORE PUSH1 0x20 ADD PUSH1 0x0 KECCAK256 PUSH1 0x0 ADD PUSH1 0x0 DUP3 DUP2 MSTORE PUSH1 0x20 ADD SWAP1 DUP2 MSTORE PUSH1 0x20 ADD PUSH1 0x0 KECCAK256 PUSH1 0x2 ADD SLOAD TIMESTAMP PUSH2 0xE39 SWAP2 SWAP1 PUSH2 0x22CD JUMP JUMPDEST SWAP3 POP PUSH1 0x3C DUP4 PUSH2 0xE48 SWAP2 SWAP1 PUSH2 0x2242 JUMP JUMPDEST SWAP3 POP PUSH1 0x0 DUP4 GT ISZERO PUSH2 0xE64 JUMPI PUSH1 0x4 SLOAD DUP4 PUSH2 0xE61 SWAP2 SWAP1 PUSH2 0x2273 JUMP JUMPDEST SWAP4 POP JUMPDEST DUP1 DUP1 PUSH2 0xE6F SWAP1 PUSH2 0x2349 JUMP JUMPDEST SWAP2 POP POP PUSH2 0xDCF JUMP JUMPDEST POP DUP3 SWAP4 POP POP POP POP SWAP1 JUMP JUMPDEST DUP1 PUSH1 0x6 DUP2 SWAP1 SSTORE POP POP JUMP JUMPDEST PUSH1 0x0 DUP1 PUSH1 0x8 PUSH1 0x0 CALLER PUSH20 0xFFFFFFFFFFFFFFFFFFFFFFFFFFFFFFFFFFFFFFFF AND PUSH20 0xFFFFFFFFFFFFFFFFFFFFFFFFFFFFFFFFFFFFFFFF AND DUP2 MSTORE PUSH1 0x20 ADD SWAP1 DUP2 MSTORE PUSH1 0x20 ADD PUSH1 0x0 KECCAK256 PUSH1 0x0 ADD PUSH1 0x0 DUP5 DUP2 MSTORE PUSH1 0x20 ADD SWAP1 DUP2 MSTORE PUSH1 0x20 ADD PUSH1 0x0 KECCAK256 PUSH1 0x0 ADD SLOAD GT PUSH2 0xF25 JUMPI PUSH1 0x40 MLOAD PUSH32 0x8C379A000000000000000000000000000000000000000000000000000000000 DUP2 MSTORE PUSH1 0x4 ADD PUSH2 0xF1C SWAP1 PUSH2 0x2095 JUMP JUMPDEST PUSH1 0x40 MLOAD DUP1 SWAP2 SUB SWAP1 REVERT JUMPDEST PUSH1 0x0 PUSH1 0x8 PUSH1 0x0 CALLER PUSH20 0xFFFFFFFFFFFFFFFFFFFFFFFFFFFFFFFFFFFFFFFF AND PUSH20 0xFFFFFFFFFFFFFFFFFFFFFFFFFFFFFFFFFFFFFFFF AND DUP2 MSTORE PUSH1 0x20 ADD SWAP1 DUP2 MSTORE PUSH1 0x20 ADD PUSH1 0x0 KECCAK256 PUSH1 0x0 ADD PUSH1 0x0 DUP5 DUP2 MSTORE PUSH1 0x20 ADD SWAP1 DUP2 MSTORE PUSH1 0x20 ADD PUSH1 0x0 KECCAK256 PUSH1 0x0 ADD SLOAD SWAP1 POP TIMESTAMP PUSH1 0x8 PUSH1 0x0 CALLER PUSH20 0xFFFFFFFFFFFFFFFFFFFFFFFFFFFFFFFFFFFFFFFF AND PUSH20 0xFFFFFFFFFFFFFFFFFFFFFFFFFFFFFFFFFFFFFFFF AND DUP2 MSTORE PUSH1 0x20 ADD SWAP1 DUP2 MSTORE PUSH1 0x20 ADD PUSH1 0x0 KECCAK256 PUSH1 0x0 ADD PUSH1 0x0 DUP6 DUP2 MSTORE PUSH1 0x20 ADD SWAP1 DUP2 MSTORE PUSH1 0x20 ADD PUSH1 0x0 KECCAK256 PUSH1 0x1 ADD SLOAD GT ISZERO PUSH2 0xFEE JUMPI PUSH1 0x2 DUP2 PUSH2 0xFEB SWAP2 SWAP1 PUSH2 0x2242 JUMP JUMPDEST SWAP1 POP JUMPDEST PUSH1 0x1 PUSH1 0x0 SWAP1 SLOAD SWAP1 PUSH2 0x100 EXP SWAP1 DIV PUSH20 0xFFFFFFFFFFFFFFFFFFFFFFFFFFFFFFFFFFFFFFFF AND PUSH20 0xFFFFFFFFFFFFFFFFFFFFFFFFFFFFFFFFFFFFFFFF AND PUSH4 0xA9059CBB CALLER DUP4 PUSH1 0x40 MLOAD DUP4 PUSH4 0xFFFFFFFF AND PUSH1 0xE0 SHL DUP2 MSTORE PUSH1 0x4 ADD PUSH2 0x104B SWAP3 SWAP2 SWAP1 PUSH2 0x1F98 JUMP JUMPDEST PUSH1 0x20 PUSH1 0x40 MLOAD DUP1 DUP4 SUB DUP2 PUSH1 0x0 DUP8 DUP1 EXTCODESIZE ISZERO DUP1 ISZERO PUSH2 0x1065 JUMPI PUSH1 0x0 DUP1 REVERT JUMPDEST POP GAS CALL ISZERO DUP1 ISZERO PUSH2 0x1079 JUMPI RETURNDATASIZE PUSH1 0x0 DUP1 RETURNDATACOPY RETURNDATASIZE PUSH1 0x0 REVERT JUMPDEST POP POP POP POP PUSH1 0x40 MLOAD RETURNDATASIZE PUSH1 0x1F NOT PUSH1 0x1F DUP3 ADD AND DUP3 ADD DUP1 PUSH1 0x40 MSTORE POP DUP2 ADD SWAP1 PUSH2 0x109D SWAP2 SWAP1 PUSH2 0x1B9C JUMP JUMPDEST POP PUSH1 0x1 PUSH1 0x0 SWAP1 SLOAD SWAP1 PUSH2 0x100 EXP SWAP1 DIV PUSH20 0xFFFFFFFFFFFFFFFFFFFFFFFFFFFFFFFFFFFFFFFF AND PUSH20 0xFFFFFFFFFFFFFFFFFFFFFFFFFFFFFFFFFFFFFFFF AND PUSH4 0xA9059CBB PUSH1 0x0 DUP1 SLOAD SWAP1 PUSH2 0x100 EXP SWAP1 DIV PUSH20 0xFFFFFFFFFFFFFFFFFFFFFFFFFFFFFFFFFFFFFFFF AND DUP4 PUSH1 0x40 MLOAD DUP4 PUSH4 0xFFFFFFFF AND PUSH1 0xE0 SHL DUP2 MSTORE PUSH1 0x4 ADD PUSH2 0x111B SWAP3 SWAP2 SWAP1 PUSH2 0x1F98 JUMP JUMPDEST PUSH1 0x20 PUSH1 0x40 MLOAD DUP1 DUP4 SUB DUP2 PUSH1 0x0 DUP8 DUP1 EXTCODESIZE ISZERO DUP1 ISZERO PUSH2 0x1135 JUMPI PUSH1 0x0 DUP1 REVERT JUMPDEST POP GAS CALL ISZERO DUP1 ISZERO PUSH2 0x1149 JUMPI RETURNDATASIZE PUSH1 0x0 DUP1 RETURNDATACOPY RETURNDATASIZE PUSH1 0x0 REVERT JUMPDEST POP POP POP POP PUSH1 0x40 MLOAD RETURNDATASIZE PUSH1 0x1F NOT PUSH1 0x1F DUP3 ADD AND DUP3 ADD DUP1 PUSH1 0x40 MSTORE POP DUP2 ADD SWAP1 PUSH2 0x116D SWAP2 SWAP1 PUSH2 0x1B9C JUMP JUMPDEST POP PUSH1 0x0 PUSH1 0x8 PUSH1 0x0 CALLER PUSH20 0xFFFFFFFFFFFFFFFFFFFFFFFFFFFFFFFFFFFFFFFF AND PUSH20 0xFFFFFFFFFFFFFFFFFFFFFFFFFFFFFFFFFFFFFFFF AND DUP2 MSTORE PUSH1 0x20 ADD SWAP1 DUP2 MSTORE PUSH1 0x20 ADD PUSH1 0x0 KECCAK256 PUSH1 0x0 ADD PUSH1 0x0 DUP6 DUP2 MSTORE PUSH1 0x20 ADD SWAP1 DUP2 MSTORE PUSH1 0x20 ADD PUSH1 0x0 KECCAK256 PUSH1 0x0 ADD DUP2 SWAP1 SSTORE POP DUP1 PUSH1 0x8 PUSH1 0x0 CALLER PUSH20 0xFFFFFFFFFFFFFFFFFFFFFFFFFFFFFFFFFFFFFFFF AND PUSH20 0xFFFFFFFFFFFFFFFFFFFFFFFFFFFFFFFFFFFFFFFF AND DUP2 MSTORE PUSH1 0x20 ADD SWAP1 DUP2 MSTORE PUSH1 0x20 ADD PUSH1 0x0 KECCAK256 PUSH1 0x6 ADD PUSH1 0x0 DUP3 DUP3 SLOAD PUSH2 0x121C SWAP2 SWAP1 PUSH2 0x22CD JUMP JUMPDEST SWAP3 POP POP DUP2 SWAP1 SSTORE POP PUSH1 0x1 SWAP2 POP POP SWAP2 SWAP1 POP JUMP JUMPDEST PUSH1 0x0 DUP1 SLOAD SWAP1 PUSH2 0x100 EXP SWAP1 DIV PUSH20 0xFFFFFFFFFFFFFFFFFFFFFFFFFFFFFFFFFFFFFFFF AND DUP2 JUMP JUMPDEST PUSH1 0x0 PUSH1 0x8 PUSH1 0x0 CALLER PUSH20 0xFFFFFFFFFFFFFFFFFFFFFFFFFFFFFFFFFFFFFFFF AND PUSH20 0xFFFFFFFFFFFFFFFFFFFFFFFFFFFFFFFFFFFFFFFF AND DUP2 MSTORE PUSH1 0x20 ADD SWAP1 DUP2 MSTORE PUSH1 0x20 ADD PUSH1 0x0 KECCAK256 PUSH1 0x6 ADD SLOAD SWAP1 POP SWAP1 JUMP JUMPDEST PUSH1 0x60 PUSH1 0x0 PUSH1 0x14 PUSH8 0xFFFFFFFFFFFFFFFF DUP2 GT ISZERO PUSH2 0x12BA JUMPI PUSH2 0x12B9 PUSH2 0x241F JUMP JUMPDEST JUMPDEST PUSH1 0x40 MLOAD SWAP1 DUP1 DUP3 MSTORE DUP1 PUSH1 0x20 MUL PUSH1 0x20 ADD DUP3 ADD PUSH1 0x40 MSTORE DUP1 ISZERO PUSH2 0x12F3 JUMPI DUP2 PUSH1 0x20 ADD JUMPDEST PUSH2 0x12E0 PUSH2 0x1B16 JUMP JUMPDEST DUP2 MSTORE PUSH1 0x20 ADD SWAP1 PUSH1 0x1 SWAP1 SUB SWAP1 DUP2 PUSH2 0x12D8 JUMPI SWAP1 POP JUMPDEST POP SWAP1 POP PUSH1 0x0 JUMPDEST PUSH1 0x14 DUP2 LT ISZERO PUSH2 0x14B8 JUMPI PUSH1 0x0 PUSH1 0x8 PUSH1 0x0 CALLER PUSH20 0xFFFFFFFFFFFFFFFFFFFFFFFFFFFFFFFFFFFFFFFF AND PUSH20 0xFFFFFFFFFFFFFFFFFFFFFFFFFFFFFFFFFFFFFFFF AND DUP2 MSTORE PUSH1 0x20 ADD SWAP1 DUP2 MSTORE PUSH1 0x20 ADD PUSH1 0x0 KECCAK256 PUSH1 0x3 ADD PUSH1 0x0 DUP4 DUP2 MSTORE PUSH1 0x20 ADD SWAP1 DUP2 MSTORE PUSH1 0x20 ADD PUSH1 0x0 KECCAK256 PUSH1 0x0 ADD SLOAD GT ISZERO PUSH2 0x145A JUMPI PUSH1 0x8 PUSH1 0x0 CALLER PUSH20 0xFFFFFFFFFFFFFFFFFFFFFFFFFFFFFFFFFFFFFFFF AND PUSH20 0xFFFFFFFFFFFFFFFFFFFFFFFFFFFFFFFFFFFFFFFF AND DUP2 MSTORE PUSH1 0x20 ADD SWAP1 DUP2 MSTORE PUSH1 0x20 ADD PUSH1 0x0 KECCAK256 PUSH1 0x3 ADD PUSH1 0x0 DUP3 DUP2 MSTORE PUSH1 0x20 ADD SWAP1 DUP2 MSTORE PUSH1 0x20 ADD PUSH1 0x0 KECCAK256 PUSH1 0x0 ADD SLOAD DUP3 DUP3 DUP2 MLOAD DUP2 LT PUSH2 0x13CB JUMPI PUSH2 0x13CA PUSH2 0x23F0 JUMP JUMPDEST JUMPDEST PUSH1 0x20 MUL PUSH1 0x20 ADD ADD MLOAD PUSH1 0x0 ADD DUP2 DUP2 MSTORE POP POP PUSH1 0x8 PUSH1 0x0 CALLER PUSH20 0xFFFFFFFFFFFFFFFFFFFFFFFFFFFFFFFFFFFFFFFF AND PUSH20 0xFFFFFFFFFFFFFFFFFFFFFFFFFFFFFFFFFFFFFFFF AND DUP2 MSTORE PUSH1 0x20 ADD SWAP1 DUP2 MSTORE PUSH1 0x20 ADD PUSH1 0x0 KECCAK256 PUSH1 0x3 ADD PUSH1 0x0 DUP3 DUP2 MSTORE PUSH1 0x20 ADD SWAP1 DUP2 MSTORE PUSH1 0x20 ADD PUSH1 0x0 KECCAK256 PUSH1 0x1 ADD SLOAD DUP3 DUP3 DUP2 MLOAD DUP2 LT PUSH2 0x1445 JUMPI PUSH2 0x1444 PUSH2 0x23F0 JUMP JUMPDEST JUMPDEST PUSH1 0x20 MUL PUSH1 0x20 ADD ADD MLOAD PUSH1 0x20 ADD DUP2 DUP2 MSTORE POP POP PUSH2 0x14A5 JUMP JUMPDEST PUSH1 0x0 DUP3 DUP3 DUP2 MLOAD DUP2 LT PUSH2 0x146F JUMPI PUSH2 0x146E PUSH2 0x23F0 JUMP JUMPDEST JUMPDEST PUSH1 0x20 MUL PUSH1 0x20 ADD ADD MLOAD PUSH1 0x0 ADD DUP2 DUP2 MSTORE POP POP PUSH1 0x0 DUP3 DUP3 DUP2 MLOAD DUP2 LT PUSH2 0x1494 JUMPI PUSH2 0x1493 PUSH2 0x23F0 JUMP JUMPDEST JUMPDEST PUSH1 0x20 MUL PUSH1 0x20 ADD ADD MLOAD PUSH1 0x20 ADD DUP2 DUP2 MSTORE POP POP JUMPDEST DUP1 DUP1 PUSH2 0x14B0 SWAP1 PUSH2 0x2349 JUMP JUMPDEST SWAP2 POP POP PUSH2 0x12F9 JUMP JUMPDEST POP DUP1 SWAP2 POP POP SWAP1 JUMP JUMPDEST PUSH1 0x0 DUP1 PUSH2 0x14CB PUSH2 0xD81 JUMP JUMPDEST SWAP1 POP PUSH1 0x0 DUP2 GT PUSH2 0x1510 JUMPI PUSH1 0x40 MLOAD PUSH32 0x8C379A000000000000000000000000000000000000000000000000000000000 DUP2 MSTORE PUSH1 0x4 ADD PUSH2 0x1507 SWAP1 PUSH2 0x20B5 JUMP JUMPDEST PUSH1 0x40 MLOAD DUP1 SWAP2 SUB SWAP1 REVERT JUMPDEST PUSH1 0x1 PUSH1 0x0 SWAP1 SLOAD SWAP1 PUSH2 0x100 EXP SWAP1 DIV PUSH20 0xFFFFFFFFFFFFFFFFFFFFFFFFFFFFFFFFFFFFFFFF AND PUSH20 0xFFFFFFFFFFFFFFFFFFFFFFFFFFFFFFFFFFFFFFFF AND PUSH4 0xA9059CBB CALLER DUP4 PUSH1 0x40 MLOAD DUP4 PUSH4 0xFFFFFFFF AND PUSH1 0xE0 SHL DUP2 MSTORE PUSH1 0x4 ADD PUSH2 0x156D SWAP3 SWAP2 SWAP1 PUSH2 0x1F98 JUMP JUMPDEST PUSH1 0x20 PUSH1 0x40 MLOAD DUP1 DUP4 SUB DUP2 PUSH1 0x0 DUP8 DUP1 EXTCODESIZE ISZERO DUP1 ISZERO PUSH2 0x1587 JUMPI PUSH1 0x0 DUP1 REVERT JUMPDEST POP GAS CALL ISZERO DUP1 ISZERO PUSH2 0x159B JUMPI RETURNDATASIZE PUSH1 0x0 DUP1 RETURNDATACOPY RETURNDATASIZE PUSH1 0x0 REVERT JUMPDEST POP POP POP POP PUSH1 0x40 MLOAD RETURNDATASIZE PUSH1 0x1F NOT PUSH1 0x1F DUP3 ADD AND DUP3 ADD DUP1 PUSH1 0x40 MSTORE POP DUP2 ADD SWAP1 PUSH2 0x15BF SWAP2 SWAP1 PUSH2 0x1B9C JUMP JUMPDEST POP PUSH1 0x1 SWAP2 POP POP SWAP1 JUMP JUMPDEST DUP2 PUSH1 0x6 DUP2 SWAP1 SSTORE POP DUP3 PUSH1 0x5 DUP2 SWAP1 SSTORE POP DUP1 PUSH1 0x4 DUP2 SWAP1 SSTORE POP POP POP POP JUMP JUMPDEST PUSH1 0x8 PUSH1 0x20 MSTORE DUP1 PUSH1 0x0 MSTORE PUSH1 0x40 PUSH1 0x0 KECCAK256 PUSH1 0x0 SWAP2 POP SWAP1 POP DUP1 PUSH1 0x2 ADD PUSH1 0x0 SWAP1 SLOAD SWAP1 PUSH2 0x100 EXP SWAP1 DIV PUSH20 0xFFFFFFFFFFFFFFFFFFFFFFFFFFFFFFFFFFFFFFFF AND SWAP1 DUP1 PUSH1 0x4 ADD SLOAD SWAP1 DUP1 PUSH1 0x5 ADD SLOAD SWAP1 DUP1 PUSH1 0x6 ADD SLOAD SWAP1 DUP1 PUSH1 0x7 ADD PUSH1 0x0 SWAP1 SLOAD SWAP1 PUSH2 0x100 EXP SWAP1 DIV PUSH1 0xFF AND SWAP1 POP DUP6 JUMP JUMPDEST PUSH1 0x0 DUP1 SLOAD SWAP1 PUSH2 0x100 EXP SWAP1 DIV PUSH20 0xFFFFFFFFFFFFFFFFFFFFFFFFFFFFFFFFFFFFFFFF AND PUSH20 0xFFFFFFFFFFFFFFFFFFFFFFFFFFFFFFFFFFFFFFFF AND CALLER PUSH20 0xFFFFFFFFFFFFFFFFFFFFFFFFFFFFFFFFFFFFFFFF AND EQ PUSH2 0x16D3 JUMPI PUSH1 0x40 MLOAD PUSH32 0x8C379A000000000000000000000000000000000000000000000000000000000 DUP2 MSTORE PUSH1 0x4 ADD PUSH2 0x16CA SWAP1 PUSH2 0x20D5 JUMP JUMPDEST PUSH1 0x40 MLOAD DUP1 SWAP2 SUB SWAP1 REVERT JUMPDEST DUP1 PUSH1 0x0 DUP1 PUSH2 0x100 EXP DUP2 SLOAD DUP2 PUSH20 0xFFFFFFFFFFFFFFFFFFFFFFFFFFFFFFFFFFFFFFFF MUL NOT AND SWAP1 DUP4 PUSH20 0xFFFFFFFFFFFFFFFFFFFFFFFFFFFFFFFFFFFFFFFF AND MUL OR SWAP1 SSTORE POP POP JUMP JUMPDEST PUSH1 0x4 SLOAD DUP2 JUMP JUMPDEST PUSH1 0x0 DUP3 SWAP1 POP PUSH1 0x0 PUSH1 0x5 PUSH8 0xFFFFFFFFFFFFFFFF DUP2 GT ISZERO PUSH2 0x173E JUMPI PUSH2 0x173D PUSH2 0x241F JUMP JUMPDEST JUMPDEST PUSH1 0x40 MLOAD SWAP1 DUP1 DUP3 MSTORE DUP1 PUSH1 0x20 MUL PUSH1 0x20 ADD DUP3 ADD PUSH1 0x40 MSTORE DUP1 ISZERO PUSH2 0x176C JUMPI DUP2 PUSH1 0x20 ADD PUSH1 0x20 DUP3 MUL DUP1 CALLDATASIZE DUP4 CALLDATACOPY DUP1 DUP3 ADD SWAP2 POP POP SWAP1 POP JUMPDEST POP SWAP1 POP PUSH8 0x4563918244F40000 DUP2 PUSH1 0x0 DUP2 MLOAD DUP2 LT PUSH2 0x178C JUMPI PUSH2 0x178B PUSH2 0x23F0 JUMP JUMPDEST JUMPDEST PUSH1 0x20 MUL PUSH1 0x20 ADD ADD DUP2 DUP2 MSTORE POP POP PUSH8 0x29A2241AF62C0000 DUP2 PUSH1 0x1 DUP2 MLOAD DUP2 LT PUSH2 0x17B5 JUMPI PUSH2 0x17B4 PUSH2 0x23F0 JUMP JUMPDEST JUMPDEST PUSH1 0x20 MUL PUSH1 0x20 ADD ADD DUP2 DUP2 MSTORE POP POP PUSH8 0x1BC16D674EC80000 DUP2 PUSH1 0x2 DUP2 MLOAD DUP2 LT PUSH2 0x17DE JUMPI PUSH2 0x17DD PUSH2 0x23F0 JUMP JUMPDEST JUMPDEST PUSH1 0x20 MUL PUSH1 0x20 ADD ADD DUP2 DUP2 MSTORE POP POP PUSH8 0xDE0B6B3A7640000 DUP2 PUSH1 0x3 DUP2 MLOAD DUP2 LT PUSH2 0x1807 JUMPI PUSH2 0x1806 PUSH2 0x23F0 JUMP JUMPDEST JUMPDEST PUSH1 0x20 MUL PUSH1 0x20 ADD ADD DUP2 DUP2 MSTORE POP POP PUSH8 0x6F05B59D3B20000 DUP2 PUSH1 0x4 DUP2 MLOAD DUP2 LT PUSH2 0x1830 JUMPI PUSH2 0x182F PUSH2 0x23F0 JUMP JUMPDEST JUMPDEST PUSH1 0x20 MUL PUSH1 0x20 ADD ADD DUP2 DUP2 MSTORE POP POP PUSH1 0x0 DUP1 PUSH1 0x0 SWAP1 POP JUMPDEST PUSH1 0x14 DUP2 LT ISZERO PUSH2 0x1860 JUMPI DUP1 DUP1 PUSH2 0x1858 SWAP1 PUSH2 0x2349 JUMP JUMPDEST SWAP2 POP POP PUSH2 0x1844 JUMP JUMPDEST POP PUSH1 0x0 JUMPDEST PUSH1 0xA DUP2 LT ISZERO PUSH2 0x1AE6 JUMPI PUSH1 0x0 DUP2 EQ ISZERO PUSH2 0x187F JUMPI PUSH1 0x0 SWAP2 POP PUSH2 0x18C7 JUMP JUMPDEST PUSH1 0x1 DUP2 EQ ISZERO PUSH2 0x1891 JUMPI PUSH1 0x1 SWAP2 POP PUSH2 0x18C6 JUMP JUMPDEST PUSH1 0x2 DUP2 EQ ISZERO PUSH2 0x18A3 JUMPI PUSH1 0x2 SWAP2 POP PUSH2 0x18C5 JUMP JUMPDEST PUSH1 0x2 DUP2 GT ISZERO PUSH2 0x18B5 JUMPI PUSH1 0x3 SWAP2 POP PUSH2 0x18C4 JUMP JUMPDEST PUSH1 0x7 DUP2 GT ISZERO PUSH2 0x18C3 JUMPI PUSH1 0x4 SWAP2 POP JUMPDEST JUMPDEST JUMPDEST JUMPDEST JUMPDEST PUSH1 0x0 PUSH20 0xFFFFFFFFFFFFFFFFFFFFFFFFFFFFFFFFFFFFFFFF AND PUSH1 0x8 PUSH1 0x0 DUP7 PUSH20 0xFFFFFFFFFFFFFFFFFFFFFFFFFFFFFFFFFFFFFFFF AND PUSH20 0xFFFFFFFFFFFFFFFFFFFFFFFFFFFFFFFFFFFFFFFF AND DUP2 MSTORE PUSH1 0x20 ADD SWAP1 DUP2 MSTORE PUSH1 0x20 ADD PUSH1 0x0 KECCAK256 PUSH1 0x2 ADD PUSH1 0x0 SWAP1 SLOAD SWAP1 PUSH2 0x100 EXP SWAP1 DIV PUSH20 0xFFFFFFFFFFFFFFFFFFFFFFFFFFFFFFFFFFFFFFFF AND PUSH20 0xFFFFFFFFFFFFFFFFFFFFFFFFFFFFFFFFFFFFFFFF AND EQ PUSH2 0x1AD3 JUMPI PUSH1 0x8 PUSH1 0x0 DUP6 PUSH20 0xFFFFFFFFFFFFFFFFFFFFFFFFFFFFFFFFFFFFFFFF AND PUSH20 0xFFFFFFFFFFFFFFFFFFFFFFFFFFFFFFFFFFFFFFFF AND DUP2 MSTORE PUSH1 0x20 ADD SWAP1 DUP2 MSTORE PUSH1 0x20 ADD PUSH1 0x0 KECCAK256 PUSH1 0x2 ADD PUSH1 0x0 SWAP1 SLOAD SWAP1 PUSH2 0x100 EXP SWAP1 DIV PUSH20 0xFFFFFFFFFFFFFFFFFFFFFFFFFFFFFFFFFFFFFFFF AND SWAP4 POP PUSH1 0x0 PUSH1 0x64 DUP7 DUP6 DUP6 DUP2 MLOAD DUP2 LT PUSH2 0x19DA JUMPI PUSH2 0x19D9 PUSH2 0x23F0 JUMP JUMPDEST JUMPDEST PUSH1 0x20 MUL PUSH1 0x20 ADD ADD MLOAD PUSH2 0x19EC SWAP2 SWAP1 PUSH2 0x2273 JUMP JUMPDEST PUSH2 0x19F6 SWAP2 SWAP1 PUSH2 0x2242 JUMP JUMPDEST SWAP1 POP DUP1 PUSH1 0x8 PUSH1 0x0 DUP8 PUSH20 0xFFFFFFFFFFFFFFFFFFFFFFFFFFFFFFFFFFFFFFFF AND PUSH20 0xFFFFFFFFFFFFFFFFFFFFFFFFFFFFFFFFFFFFFFFF AND DUP2 MSTORE PUSH1 0x20 ADD SWAP1 DUP2 MSTORE PUSH1 0x20 ADD PUSH1 0x0 KECCAK256 PUSH1 0x3 ADD PUSH1 0x0 DUP5 DUP2 MSTORE PUSH1 0x20 ADD SWAP1 DUP2 MSTORE PUSH1 0x20 ADD PUSH1 0x0 KECCAK256 PUSH1 0x0 ADD PUSH1 0x0 DUP3 DUP3 SLOAD PUSH2 0x1A5E SWAP2 SWAP1 PUSH2 0x21EC JUMP JUMPDEST SWAP3 POP POP DUP2 SWAP1 SSTORE POP PUSH1 0x8 PUSH1 0x0 DUP7 PUSH20 0xFFFFFFFFFFFFFFFFFFFFFFFFFFFFFFFFFFFFFFFF AND PUSH20 0xFFFFFFFFFFFFFFFFFFFFFFFFFFFFFFFFFFFFFFFF AND DUP2 MSTORE PUSH1 0x20 ADD SWAP1 DUP2 MSTORE PUSH1 0x20 ADD PUSH1 0x0 KECCAK256 PUSH1 0x3 ADD PUSH1 0x0 DUP4 DUP2 MSTORE PUSH1 0x20 ADD SWAP1 DUP2 MSTORE PUSH1 0x20 ADD PUSH1 0x0 KECCAK256 PUSH1 0x1 ADD PUSH1 0x0 DUP2 SLOAD DUP1 SWAP3 SWAP2 SWAP1 PUSH2 0x1ACC SWAP1 PUSH2 0x2349 JUMP JUMPDEST SWAP2 SWAP1 POP SSTORE POP POP JUMPDEST DUP1 DUP1 PUSH2 0x1ADE SWAP1 PUSH2 0x2349 JUMP JUMPDEST SWAP2 POP POP PUSH2 0x1864 JUMP JUMPDEST POP POP POP POP POP POP JUMP JUMPDEST PUSH1 0x40 MLOAD DUP1 PUSH1 0x80 ADD PUSH1 0x40 MSTORE DUP1 PUSH1 0x0 DUP2 MSTORE PUSH1 0x20 ADD PUSH1 0x0 DUP2 MSTORE PUSH1 0x20 ADD PUSH1 0x0 DUP2 MSTORE PUSH1 0x20 ADD PUSH1 0x0 DUP2 MSTORE POP SWAP1 JUMP JUMPDEST PUSH1 0x40 MLOAD DUP1 PUSH1 0x40 ADD PUSH1 0x40 MSTORE DUP1 PUSH1 0x0 DUP2 MSTORE PUSH1 0x20 ADD PUSH1 0x0 DUP2 MSTORE POP SWAP1 JUMP JUMPDEST PUSH1 0x0 DUP2 CALLDATALOAD SWAP1 POP PUSH2 0x1B3F DUP2 PUSH2 0x2569 JUMP JUMPDEST SWAP3 SWAP2 POP POP JUMP JUMPDEST PUSH1 0x0 DUP2 MLOAD SWAP1 POP PUSH2 0x1B54 DUP2 PUSH2 0x2580 JUMP JUMPDEST SWAP3 SWAP2 POP POP JUMP JUMPDEST PUSH1 0x0 DUP2 CALLDATALOAD SWAP1 POP PUSH2 0x1B69 DUP2 PUSH2 0x2597 JUMP JUMPDEST SWAP3 SWAP2 POP POP JUMP JUMPDEST PUSH1 0x0 PUSH1 0x20 DUP3 DUP5 SUB SLT ISZERO PUSH2 0x1B85 JUMPI PUSH2 0x1B84 PUSH2 0x244E JUMP JUMPDEST JUMPDEST PUSH1 0x0 PUSH2 0x1B93 DUP5 DUP3 DUP6 ADD PUSH2 0x1B30 JUMP JUMPDEST SWAP2 POP POP SWAP3 SWAP2 POP POP JUMP JUMPDEST PUSH1 0x0 PUSH1 0x20 DUP3 DUP5 SUB SLT ISZERO PUSH2 0x1BB2 JUMPI PUSH2 0x1BB1 PUSH2 0x244E JUMP JUMPDEST JUMPDEST PUSH1 0x0 PUSH2 0x1BC0 DUP5 DUP3 DUP6 ADD PUSH2 0x1B45 JUMP JUMPDEST SWAP2 POP POP SWAP3 SWAP2 POP POP JUMP JUMPDEST PUSH1 0x0 PUSH1 0x20 DUP3 DUP5 SUB SLT ISZERO PUSH2 0x1BDF JUMPI PUSH2 0x1BDE PUSH2 0x244E JUMP JUMPDEST JUMPDEST PUSH1 0x0 PUSH2 0x1BED DUP5 DUP3 DUP6 ADD PUSH2 0x1B5A JUMP JUMPDEST SWAP2 POP POP SWAP3 SWAP2 POP POP JUMP JUMPDEST PUSH1 0x0 DUP1 PUSH1 0x40 DUP4 DUP6 SUB SLT ISZERO PUSH2 0x1C0D JUMPI PUSH2 0x1C0C PUSH2 0x244E JUMP JUMPDEST JUMPDEST PUSH1 0x0 PUSH2 0x1C1B DUP6 DUP3 DUP7 ADD PUSH2 0x1B5A JUMP JUMPDEST SWAP3 POP POP PUSH1 0x20 PUSH2 0x1C2C DUP6 DUP3 DUP7 ADD PUSH2 0x1B30 JUMP JUMPDEST SWAP2 POP POP SWAP3 POP SWAP3 SWAP1 POP JUMP JUMPDEST PUSH1 0x0 DUP1 PUSH1 0x0 PUSH1 0x60 DUP5 DUP7 SUB SLT ISZERO PUSH2 0x1C4F JUMPI PUSH2 0x1C4E PUSH2 0x244E JUMP JUMPDEST JUMPDEST PUSH1 0x0 PUSH2 0x1C5D DUP7 DUP3 DUP8 ADD PUSH2 0x1B5A JUMP JUMPDEST SWAP4 POP POP PUSH1 0x20 PUSH2 0x1C6E DUP7 DUP3 DUP8 ADD PUSH2 0x1B5A JUMP JUMPDEST SWAP3 POP POP PUSH1 0x40 PUSH2 0x1C7F DUP7 DUP3 DUP8 ADD PUSH2 0x1B5A JUMP JUMPDEST SWAP2 POP POP SWAP3 POP SWAP3 POP SWAP3 JUMP JUMPDEST PUSH1 0x0 PUSH2 0x1C95 DUP4 DUP4 PUSH2 0x1CD1 JUMP JUMPDEST PUSH1 0x20 DUP4 ADD SWAP1 POP SWAP3 SWAP2 POP POP JUMP JUMPDEST PUSH1 0x0 PUSH2 0x1CAD DUP4 DUP4 PUSH2 0x1EA4 JUMP JUMPDEST PUSH1 0x80 DUP4 ADD SWAP1 POP SWAP3 SWAP2 POP POP JUMP JUMPDEST PUSH1 0x0 PUSH2 0x1CC5 DUP4 DUP4 PUSH2 0x1EF9 JUMP JUMPDEST PUSH1 0x40 DUP4 ADD SWAP1 POP SWAP3 SWAP2 POP POP JUMP JUMPDEST PUSH2 0x1CDA DUP2 PUSH2 0x2301 JUMP JUMPDEST DUP3 MSTORE POP POP JUMP JUMPDEST PUSH2 0x1CE9 DUP2 PUSH2 0x2301 JUMP JUMPDEST DUP3 MSTORE POP POP JUMP JUMPDEST PUSH1 0x0 PUSH2 0x1CFA DUP3 PUSH2 0x2160 JUMP JUMPDEST PUSH2 0x1D04 DUP2 DUP6 PUSH2 0x21A8 JUMP JUMPDEST SWAP4 POP PUSH2 0x1D0F DUP4 PUSH2 0x2130 JUMP JUMPDEST DUP1 PUSH1 0x0 JUMPDEST DUP4 DUP2 LT ISZERO PUSH2 0x1D40 JUMPI DUP2 MLOAD PUSH2 0x1D27 DUP9 DUP3 PUSH2 0x1C89 JUMP JUMPDEST SWAP8 POP PUSH2 0x1D32 DUP4 PUSH2 0x2181 JUMP JUMPDEST SWAP3 POP POP PUSH1 0x1 DUP2 ADD SWAP1 POP PUSH2 0x1D13 JUMP JUMPDEST POP DUP6 SWAP4 POP POP POP POP SWAP3 SWAP2 POP POP JUMP JUMPDEST PUSH1 0x0 PUSH2 0x1D58 DUP3 PUSH2 0x216B JUMP JUMPDEST PUSH2 0x1D62 DUP2 DUP6 PUSH2 0x21B9 JUMP JUMPDEST SWAP4 POP PUSH2 0x1D6D DUP4 PUSH2 0x2140 JUMP JUMPDEST DUP1 PUSH1 0x0 JUMPDEST DUP4 DUP2 LT ISZERO PUSH2 0x1D9E JUMPI DUP2 MLOAD PUSH2 0x1D85 DUP9 DUP3 PUSH2 0x1CA1 JUMP JUMPDEST SWAP8 POP PUSH2 0x1D90 DUP4 PUSH2 0x218E JUMP JUMPDEST SWAP3 POP POP PUSH1 0x1 DUP2 ADD SWAP1 POP PUSH2 0x1D71 JUMP JUMPDEST POP DUP6 SWAP4 POP POP POP POP SWAP3 SWAP2 POP POP JUMP JUMPDEST PUSH1 0x0 PUSH2 0x1DB6 DUP3 PUSH2 0x2176 JUMP JUMPDEST PUSH2 0x1DC0 DUP2 DUP6 PUSH2 0x21CA JUMP JUMPDEST SWAP4 POP PUSH2 0x1DCB DUP4 PUSH2 0x2150 JUMP JUMPDEST DUP1 PUSH1 0x0 JUMPDEST DUP4 DUP2 LT ISZERO PUSH2 0x1DFC JUMPI DUP2 MLOAD PUSH2 0x1DE3 DUP9 DUP3 PUSH2 0x1CB9 JUMP JUMPDEST SWAP8 POP PUSH2 0x1DEE DUP4 PUSH2 0x219B JUMP JUMPDEST SWAP3 POP POP PUSH1 0x1 DUP2 ADD SWAP1 POP PUSH2 0x1DCF JUMP JUMPDEST POP DUP6 SWAP4 POP POP POP POP SWAP3 SWAP2 POP POP JUMP JUMPDEST PUSH2 0x1E12 DUP2 PUSH2 0x2313 JUMP JUMPDEST DUP3 MSTORE POP POP JUMP JUMPDEST PUSH1 0x0 PUSH2 0x1E25 PUSH1 0x25 DUP4 PUSH2 0x21DB JUMP JUMPDEST SWAP2 POP PUSH2 0x1E30 DUP3 PUSH2 0x2453 JUMP JUMPDEST PUSH1 0x40 DUP3 ADD SWAP1 POP SWAP2 SWAP1 POP JUMP JUMPDEST PUSH1 0x0 PUSH2 0x1E48 PUSH1 0x22 DUP4 PUSH2 0x21DB JUMP JUMPDEST SWAP2 POP PUSH2 0x1E53 DUP3 PUSH2 0x24A2 JUMP JUMPDEST PUSH1 0x40 DUP3 ADD SWAP1 POP SWAP2 SWAP1 POP JUMP JUMPDEST PUSH1 0x0 PUSH2 0x1E6B PUSH1 0x21 DUP4 PUSH2 0x21DB JUMP JUMPDEST SWAP2 POP PUSH2 0x1E76 DUP3 PUSH2 0x24F1 JUMP JUMPDEST PUSH1 0x40 DUP3 ADD SWAP1 POP SWAP2 SWAP1 POP JUMP JUMPDEST PUSH1 0x0 PUSH2 0x1E8E PUSH1 0x1F DUP4 PUSH2 0x21DB JUMP JUMPDEST SWAP2 POP PUSH2 0x1E99 DUP3 PUSH2 0x2540 JUMP JUMPDEST PUSH1 0x20 DUP3 ADD SWAP1 POP SWAP2 SWAP1 POP JUMP JUMPDEST PUSH1 0x80 DUP3 ADD PUSH1 0x0 DUP3 ADD MLOAD PUSH2 0x1EBA PUSH1 0x0 DUP6 ADD DUP3 PUSH2 0x1F28 JUMP JUMPDEST POP PUSH1 0x20 DUP3 ADD MLOAD PUSH2 0x1ECD PUSH1 0x20 DUP6 ADD DUP3 PUSH2 0x1F28 JUMP JUMPDEST POP PUSH1 0x40 DUP3 ADD MLOAD PUSH2 0x1EE0 PUSH1 0x40 DUP6 ADD DUP3 PUSH2 0x1F28 JUMP JUMPDEST POP PUSH1 0x60 DUP3 ADD MLOAD PUSH2 0x1EF3 PUSH1 0x60 DUP6 ADD DUP3 PUSH2 0x1F28 JUMP JUMPDEST POP POP POP POP JUMP JUMPDEST PUSH1 0x40 DUP3 ADD PUSH1 0x0 DUP3 ADD MLOAD PUSH2 0x1F0F PUSH1 0x0 DUP6 ADD DUP3 PUSH2 0x1F28 JUMP JUMPDEST POP PUSH1 0x20 DUP3 ADD MLOAD PUSH2 0x1F22 PUSH1 0x20 DUP6 ADD DUP3 PUSH2 0x1F28 JUMP JUMPDEST POP POP POP POP JUMP JUMPDEST PUSH2 0x1F31 DUP2 PUSH2 0x233F JUMP JUMPDEST DUP3 MSTORE POP POP JUMP JUMPDEST PUSH2 0x1F40 DUP2 PUSH2 0x233F JUMP JUMPDEST DUP3 MSTORE POP POP JUMP JUMPDEST PUSH1 0x0 PUSH1 0x20 DUP3 ADD SWAP1 POP PUSH2 0x1F5B PUSH1 0x0 DUP4 ADD DUP5 PUSH2 0x1CE0 JUMP JUMPDEST SWAP3 SWAP2 POP POP JUMP JUMPDEST PUSH1 0x0 PUSH1 0x60 DUP3 ADD SWAP1 POP PUSH2 0x1F76 PUSH1 0x0 DUP4 ADD DUP7 PUSH2 0x1CE0 JUMP JUMPDEST PUSH2 0x1F83 PUSH1 0x20 DUP4 ADD DUP6 PUSH2 0x1CE0 JUMP JUMPDEST PUSH2 0x1F90 PUSH1 0x40 DUP4 ADD DUP5 PUSH2 0x1F37 JUMP JUMPDEST SWAP5 SWAP4 POP POP POP POP JUMP JUMPDEST PUSH1 0x0 PUSH1 0x40 DUP3 ADD SWAP1 POP PUSH2 0x1FAD PUSH1 0x0 DUP4 ADD DUP6 PUSH2 0x1CE0 JUMP JUMPDEST PUSH2 0x1FBA PUSH1 0x20 DUP4 ADD DUP5 PUSH2 0x1F37 JUMP JUMPDEST SWAP4 SWAP3 POP POP POP JUMP JUMPDEST PUSH1 0x0 PUSH1 0xA0 DUP3 ADD SWAP1 POP PUSH2 0x1FD6 PUSH1 0x0 DUP4 ADD DUP9 PUSH2 0x1CE0 JUMP JUMPDEST PUSH2 0x1FE3 PUSH1 0x20 DUP4 ADD DUP8 PUSH2 0x1F37 JUMP JUMPDEST PUSH2 0x1FF0 PUSH1 0x40 DUP4 ADD DUP7 PUSH2 0x1F37 JUMP JUMPDEST PUSH2 0x1FFD PUSH1 0x60 DUP4 ADD DUP6 PUSH2 0x1F37 JUMP JUMPDEST PUSH2 0x200A PUSH1 0x80 DUP4 ADD DUP5 PUSH2 0x1E09 JUMP JUMPDEST SWAP7 SWAP6 POP POP POP POP POP POP JUMP JUMPDEST PUSH1 0x0 PUSH1 0x20 DUP3 ADD SWAP1 POP DUP2 DUP2 SUB PUSH1 0x0 DUP4 ADD MSTORE PUSH2 0x202E DUP2 DUP5 PUSH2 0x1CEF JUMP JUMPDEST SWAP1 POP SWAP3 SWAP2 POP POP JUMP JUMPDEST PUSH1 0x0 PUSH1 0x20 DUP3 ADD SWAP1 POP DUP2 DUP2 SUB PUSH1 0x0 DUP4 ADD MSTORE PUSH2 0x2050 DUP2 DUP5 PUSH2 0x1D4D JUMP JUMPDEST SWAP1 POP SWAP3 SWAP2 POP POP JUMP JUMPDEST PUSH1 0x0 PUSH1 0x20 DUP3 ADD SWAP1 POP DUP2 DUP2 SUB PUSH1 0x0 DUP4 ADD MSTORE PUSH2 0x2072 DUP2 DUP5 PUSH2 0x1DAB JUMP JUMPDEST SWAP1 POP SWAP3 SWAP2 POP POP JUMP JUMPDEST PUSH1 0x0 PUSH1 0x20 DUP3 ADD SWAP1 POP PUSH2 0x208F PUSH1 0x0 DUP4 ADD DUP5 PUSH2 0x1E09 JUMP JUMPDEST SWAP3 SWAP2 POP POP JUMP JUMPDEST PUSH1 0x0 PUSH1 0x20 DUP3 ADD SWAP1 POP DUP2 DUP2 SUB PUSH1 0x0 DUP4 ADD MSTORE PUSH2 0x20AE DUP2 PUSH2 0x1E18 JUMP JUMPDEST SWAP1 POP SWAP2 SWAP1 POP JUMP JUMPDEST PUSH1 0x0 PUSH1 0x20 DUP3 ADD SWAP1 POP DUP2 DUP2 SUB PUSH1 0x0 DUP4 ADD MSTORE PUSH2 0x20CE DUP2 PUSH2 0x1E3B JUMP JUMPDEST SWAP1 POP SWAP2 SWAP1 POP JUMP JUMPDEST PUSH1 0x0 PUSH1 0x20 DUP3 ADD SWAP1 POP DUP2 DUP2 SUB PUSH1 0x0 DUP4 ADD MSTORE PUSH2 0x20EE DUP2 PUSH2 0x1E5E JUMP JUMPDEST SWAP1 POP SWAP2 SWAP1 POP JUMP JUMPDEST PUSH1 0x0 PUSH1 0x20 DUP3 ADD SWAP1 POP DUP2 DUP2 SUB PUSH1 0x0 DUP4 ADD MSTORE PUSH2 0x210E DUP2 PUSH2 0x1E81 JUMP JUMPDEST SWAP1 POP SWAP2 SWAP1 POP JUMP JUMPDEST PUSH1 0x0 PUSH1 0x20 DUP3 ADD SWAP1 POP PUSH2 0x212A PUSH1 0x0 DUP4 ADD DUP5 PUSH2 0x1F37 JUMP JUMPDEST SWAP3 SWAP2 POP POP JUMP JUMPDEST PUSH1 0x0 DUP2 SWAP1 POP PUSH1 0x20 DUP3 ADD SWAP1 POP SWAP2 SWAP1 POP JUMP JUMPDEST PUSH1 0x0 DUP2 SWAP1 POP PUSH1 0x20 DUP3 ADD SWAP1 POP SWAP2 SWAP1 POP JUMP JUMPDEST PUSH1 0x0 DUP2 SWAP1 POP PUSH1 0x20 DUP3 ADD SWAP1 POP SWAP2 SWAP1 POP JUMP JUMPDEST PUSH1 0x0 DUP2 MLOAD SWAP1 POP SWAP2 SWAP1 POP JUMP JUMPDEST PUSH1 0x0 DUP2 MLOAD SWAP1 POP SWAP2 SWAP1 POP JUMP JUMPDEST PUSH1 0x0 DUP2 MLOAD SWAP1 POP SWAP2 SWAP1 POP JUMP JUMPDEST PUSH1 0x0 PUSH1 0x20 DUP3 ADD SWAP1 POP SWAP2 SWAP1 POP JUMP JUMPDEST PUSH1 0x0 PUSH1 0x20 DUP3 ADD SWAP1 POP SWAP2 SWAP1 POP JUMP JUMPDEST PUSH1 0x0 PUSH1 0x20 DUP3 ADD SWAP1 POP SWAP2 SWAP1 POP JUMP JUMPDEST PUSH1 0x0 DUP3 DUP3 MSTORE PUSH1 0x20 DUP3 ADD SWAP1 POP SWAP3 SWAP2 POP POP JUMP JUMPDEST PUSH1 0x0 DUP3 DUP3 MSTORE PUSH1 0x20 DUP3 ADD SWAP1 POP SWAP3 SWAP2 POP POP JUMP JUMPDEST PUSH1 0x0 DUP3 DUP3 MSTORE PUSH1 0x20 DUP3 ADD SWAP1 POP SWAP3 SWAP2 POP POP JUMP JUMPDEST PUSH1 0x0 DUP3 DUP3 MSTORE PUSH1 0x20 DUP3 ADD SWAP1 POP SWAP3 SWAP2 POP POP JUMP JUMPDEST PUSH1 0x0 PUSH2 0x21F7 DUP3 PUSH2 0x233F JUMP JUMPDEST SWAP2 POP PUSH2 0x2202 DUP4 PUSH2 0x233F JUMP JUMPDEST SWAP3 POP DUP3 PUSH32 0xFFFFFFFFFFFFFFFFFFFFFFFFFFFFFFFFFFFFFFFFFFFFFFFFFFFFFFFFFFFFFFFF SUB DUP3 GT ISZERO PUSH2 0x2237 JUMPI PUSH2 0x2236 PUSH2 0x2392 JUMP JUMPDEST JUMPDEST DUP3 DUP3 ADD SWAP1 POP SWAP3 SWAP2 POP POP JUMP JUMPDEST PUSH1 0x0 PUSH2 0x224D DUP3 PUSH2 0x233F JUMP JUMPDEST SWAP2 POP PUSH2 0x2258 DUP4 PUSH2 0x233F JUMP JUMPDEST SWAP3 POP DUP3 PUSH2 0x2268 JUMPI PUSH2 0x2267 PUSH2 0x23C1 JUMP JUMPDEST JUMPDEST DUP3 DUP3 DIV SWAP1 POP SWAP3 SWAP2 POP POP JUMP JUMPDEST PUSH1 0x0 PUSH2 0x227E DUP3 PUSH2 0x233F JUMP JUMPDEST SWAP2 POP PUSH2 0x2289 DUP4 PUSH2 0x233F JUMP JUMPDEST SWAP3 POP DUP2 PUSH32 0xFFFFFFFFFFFFFFFFFFFFFFFFFFFFFFFFFFFFFFFFFFFFFFFFFFFFFFFFFFFFFFFF DIV DUP4 GT DUP3 ISZERO ISZERO AND ISZERO PUSH2 0x22C2 JUMPI PUSH2 0x22C1 PUSH2 0x2392 JUMP JUMPDEST JUMPDEST DUP3 DUP3 MUL SWAP1 POP SWAP3 SWAP2 POP POP JUMP JUMPDEST PUSH1 0x0 PUSH2 0x22D8 DUP3 PUSH2 0x233F JUMP JUMPDEST SWAP2 POP PUSH2 0x22E3 DUP4 PUSH2 0x233F JUMP JUMPDEST SWAP3 POP DUP3 DUP3 LT ISZERO PUSH2 0x22F6 JUMPI PUSH2 0x22F5 PUSH2 0x2392 JUMP JUMPDEST JUMPDEST DUP3 DUP3 SUB SWAP1 POP SWAP3 SWAP2 POP POP JUMP JUMPDEST PUSH1 0x0 PUSH2 0x230C DUP3 PUSH2 0x231F JUMP JUMPDEST SWAP1 POP SWAP2 SWAP1 POP JUMP JUMPDEST PUSH1 0x0 DUP2 ISZERO ISZERO SWAP1 POP SWAP2 SWAP1 POP JUMP JUMPDEST PUSH1 0x0 PUSH20 0xFFFFFFFFFFFFFFFFFFFFFFFFFFFFFFFFFFFFFFFF DUP3 AND SWAP1 POP SWAP2 SWAP1 POP JUMP JUMPDEST PUSH1 0x0 DUP2 SWAP1 POP SWAP2 SWAP1 POP JUMP JUMPDEST PUSH1 0x0 PUSH2 0x2354 DUP3 PUSH2 0x233F JUMP JUMPDEST SWAP2 POP PUSH32 0xFFFFFFFFFFFFFFFFFFFFFFFFFFFFFFFFFFFFFFFFFFFFFFFFFFFFFFFFFFFFFFFF DUP3 EQ ISZERO PUSH2 0x2387 JUMPI PUSH2 0x2386 PUSH2 0x2392 JUMP JUMPDEST JUMPDEST PUSH1 0x1 DUP3 ADD SWAP1 POP SWAP2 SWAP1 POP JUMP JUMPDEST PUSH32 0x4E487B7100000000000000000000000000000000000000000000000000000000 PUSH1 0x0 MSTORE PUSH1 0x11 PUSH1 0x4 MSTORE PUSH1 0x24 PUSH1 0x0 REVERT JUMPDEST PUSH32 0x4E487B7100000000000000000000000000000000000000000000000000000000 PUSH1 0x0 MSTORE PUSH1 0x12 PUSH1 0x4 MSTORE PUSH1 0x24 PUSH1 0x0 REVERT JUMPDEST PUSH32 0x4E487B7100000000000000000000000000000000000000000000000000000000 PUSH1 0x0 MSTORE PUSH1 0x32 PUSH1 0x4 MSTORE PUSH1 0x24 PUSH1 0x0 REVERT JUMPDEST PUSH32 0x4E487B7100000000000000000000000000000000000000000000000000000000 PUSH1 0x0 MSTORE PUSH1 0x41 PUSH1 0x4 MSTORE PUSH1 0x24 PUSH1 0x0 REVERT JUMPDEST PUSH1 0x0 DUP1 REVERT JUMPDEST PUSH32 0x796F7520646F6E74206861766520696E766573746D656E7420746F2077697468 PUSH1 0x0 DUP3 ADD MSTORE PUSH32 0x647261776E000000000000000000000000000000000000000000000000000000 PUSH1 0x20 DUP3 ADD MSTORE POP JUMP JUMPDEST PUSH32 0x796F7520646F6E742068617665207265776172647320746F2077697468647261 PUSH1 0x0 DUP3 ADD MSTORE PUSH32 0x776E000000000000000000000000000000000000000000000000000000000000 PUSH1 0x20 DUP3 ADD MSTORE POP JUMP JUMPDEST PUSH32 0x6F6E6C79204F776E65722063616E2063616C6C20746869732066756E6374696F PUSH1 0x0 DUP3 ADD MSTORE PUSH32 0x6E00000000000000000000000000000000000000000000000000000000000000 PUSH1 0x20 DUP3 ADD MSTORE POP JUMP JUMPDEST PUSH32 0x76616C7565206973206E6F742067726561746572207468616E20313030303000 PUSH1 0x0 DUP3 ADD MSTORE POP JUMP JUMPDEST PUSH2 0x2572 DUP2 PUSH2 0x2301 JUMP JUMPDEST DUP2 EQ PUSH2 0x257D JUMPI PUSH1 0x0 DUP1 REVERT JUMPDEST POP JUMP JUMPDEST PUSH2 0x2589 DUP2 PUSH2 0x2313 JUMP JUMPDEST DUP2 EQ PUSH2 0x2594 JUMPI PUSH1 0x0 DUP1 REVERT JUMPDEST POP JUMP JUMPDEST PUSH2 0x25A0 DUP2 PUSH2 0x233F JUMP JUMPDEST DUP2 EQ PUSH2 0x25AB JUMPI PUSH1 0x0 DUP1 REVERT JUMPDEST POP JUMP INVALID LOG2 PUSH5 0x6970667358 0x22 SLT KECCAK256 0x5E SWAP9 PUSH14 0x8451135D2DC2C305BCF0C7525C4A 0xC8 0xBE 0x25 PUSH23 0xEE2D01D4001B59C80EDCF064736F6C6343000807003300 "
				},
				"gasEstimates": {
					"creation": {
						"codeDepositCost": "1940000",
						"executionCost": "163279",
						"totalCost": "2103279"
					},
					"external": {
						"DUSDReferralsList()": "infinite",
						"DUSDTotalReferrals()": "2608",
						"DUSDinvestor(address)": "infinite",
						"Stake(uint256,address)": "infinite",
						"getAllDUSDinvestments()": "infinite",
						"getReward()": "infinite",
						"getTotalInvestmentDUSD()": "2599",
						"owner()": "2556",
						"referralLevel_earning()": "infinite",
						"rewardToken()": "2539",
						"setReward(uint256)": "22610",
						"set_max_Stake_amount(uint256)": "22631",
						"set_min_Stake_amount(uint256)": "22565",
						"set_values(uint256,uint256,uint256)": "infinite",
						"totalDUSDInvestors()": "2475",
						"transferOwnership(address)": "26977",
						"unStake(uint256)": "infinite",
						"withdrawReward()": "infinite"
					},
					"internal": {
						"sendRewardToDUSDReferrals(address,uint256)": "infinite"
					}
				},
				"methodIdentifiers": {
					"DUSDReferralsList()": "0c5f58f4",
					"DUSDTotalReferrals()": "1e8aba35",
					"DUSDinvestor(address)": "d3560ee8",
					"Stake(uint256,address)": "2bccdce6",
					"getAllDUSDinvestments()": "3a1e0833",
					"getReward()": "3d18b912",
					"getTotalInvestmentDUSD()": "929f6bbe",
					"owner()": "8da5cb5b",
					"referralLevel_earning()": "a61be99d",
					"rewardToken()": "f7c618c1",
					"setReward(uint256)": "293be456",
					"set_max_Stake_amount(uint256)": "500cb85f",
					"set_min_Stake_amount(uint256)": "32d4e783",
					"set_values(uint256,uint256,uint256)": "ce10db0a",
					"totalDUSDInvestors()": "10cde60a",
					"transferOwnership(address)": "f2fde38b",
					"unStake(uint256)": "5d3eea91",
					"withdrawReward()": "c885bc58"
				}
			},
			"storageLayout": {
				"storage": [
					{
						"astId": 24,
						"contract": "contracts/stake_reward_MLM.sol:Invest",
						"label": "owner",
						"offset": 0,
						"slot": "0",
						"type": "t_address"
					},
					{
						"astId": 27,
						"contract": "contracts/stake_reward_MLM.sol:Invest",
						"label": "SMCcontract",
						"offset": 0,
						"slot": "1",
						"type": "t_address"
					},
					{
						"astId": 30,
						"contract": "contracts/stake_reward_MLM.sol:Invest",
						"label": "BUSDcontract",
						"offset": 0,
						"slot": "2",
						"type": "t_address"
					},
					{
						"astId": 32,
						"contract": "contracts/stake_reward_MLM.sol:Invest",
						"label": "totalDUSDInvestors",
						"offset": 0,
						"slot": "3",
						"type": "t_uint256"
					},
					{
						"astId": 35,
						"contract": "contracts/stake_reward_MLM.sol:Invest",
						"label": "rewardToken",
						"offset": 0,
						"slot": "4",
						"type": "t_uint256"
					},
					{
						"astId": 38,
						"contract": "contracts/stake_reward_MLM.sol:Invest",
						"label": "min_Stake_amount",
						"offset": 0,
						"slot": "5",
						"type": "t_uint256"
					},
					{
						"astId": 41,
						"contract": "contracts/stake_reward_MLM.sol:Invest",
						"label": "max_Stake_amount",
						"offset": 0,
						"slot": "6",
						"type": "t_uint256"
					},
					{
						"astId": 44,
						"contract": "contracts/stake_reward_MLM.sol:Invest",
						"label": "investmentPeriod",
						"offset": 0,
						"slot": "7",
						"type": "t_uint256"
					},
					{
						"astId": 87,
						"contract": "contracts/stake_reward_MLM.sol:Invest",
						"label": "DUSDinvestor",
						"offset": 0,
						"slot": "8",
						"type": "t_mapping(t_address,t_struct(Data)82_storage)"
					}
				],
				"types": {
					"t_address": {
						"encoding": "inplace",
						"label": "address",
						"numberOfBytes": "20"
					},
					"t_array(t_address)dyn_storage": {
						"base": "t_address",
						"encoding": "dynamic_array",
						"label": "address[]",
						"numberOfBytes": "32"
					},
					"t_bool": {
						"encoding": "inplace",
						"label": "bool",
						"numberOfBytes": "1"
					},
					"t_mapping(t_address,t_struct(Data)82_storage)": {
						"encoding": "mapping",
						"key": "t_address",
						"label": "mapping(address => struct Invest.Data)",
						"numberOfBytes": "32",
						"value": "t_struct(Data)82_storage"
					},
					"t_mapping(t_uint256,t_struct(allInvestments)53_storage)": {
						"encoding": "mapping",
						"key": "t_uint256",
						"label": "mapping(uint256 => struct Invest.allInvestments)",
						"numberOfBytes": "32",
						"value": "t_struct(allInvestments)53_storage"
					},
					"t_mapping(t_uint256,t_struct(ref_data)58_storage)": {
						"encoding": "mapping",
						"key": "t_uint256",
						"label": "mapping(uint256 => struct Invest.ref_data)",
						"numberOfBytes": "32",
						"value": "t_struct(ref_data)58_storage"
					},
					"t_struct(Data)82_storage": {
						"encoding": "inplace",
						"label": "struct Invest.Data",
						"members": [
							{
								"astId": 63,
								"contract": "contracts/stake_reward_MLM.sol:Invest",
								"label": "investment",
								"offset": 0,
								"slot": "0",
								"type": "t_mapping(t_uint256,t_struct(allInvestments)53_storage)"
							},
							{
								"astId": 66,
								"contract": "contracts/stake_reward_MLM.sol:Invest",
								"label": "hisReferrals",
								"offset": 0,
								"slot": "1",
								"type": "t_array(t_address)dyn_storage"
							},
							{
								"astId": 68,
								"contract": "contracts/stake_reward_MLM.sol:Invest",
								"label": "referralFrom",
								"offset": 0,
								"slot": "2",
								"type": "t_address"
							},
							{
								"astId": 73,
								"contract": "contracts/stake_reward_MLM.sol:Invest",
								"label": "referralLevel",
								"offset": 0,
								"slot": "3",
								"type": "t_mapping(t_uint256,t_struct(ref_data)58_storage)"
							},
							{
								"astId": 75,
								"contract": "contracts/stake_reward_MLM.sol:Invest",
								"label": "reward",
								"offset": 0,
								"slot": "4",
								"type": "t_uint256"
							},
							{
								"astId": 77,
								"contract": "contracts/stake_reward_MLM.sol:Invest",
								"label": "noOfInvestment",
								"offset": 0,
								"slot": "5",
								"type": "t_uint256"
							},
							{
								"astId": 79,
								"contract": "contracts/stake_reward_MLM.sol:Invest",
								"label": "totalInvestment",
								"offset": 0,
								"slot": "6",
								"type": "t_uint256"
							},
							{
								"astId": 81,
								"contract": "contracts/stake_reward_MLM.sol:Invest",
								"label": "investBefore",
								"offset": 0,
								"slot": "7",
								"type": "t_bool"
							}
						],
						"numberOfBytes": "256"
					},
					"t_struct(allInvestments)53_storage": {
						"encoding": "inplace",
						"label": "struct Invest.allInvestments",
						"members": [
							{
								"astId": 46,
								"contract": "contracts/stake_reward_MLM.sol:Invest",
								"label": "investedAmount",
								"offset": 0,
								"slot": "0",
								"type": "t_uint256"
							},
							{
								"astId": 48,
								"contract": "contracts/stake_reward_MLM.sol:Invest",
								"label": "withdrawnTime",
								"offset": 0,
								"slot": "1",
								"type": "t_uint256"
							},
							{
								"astId": 50,
								"contract": "contracts/stake_reward_MLM.sol:Invest",
								"label": "DepositTime",
								"offset": 0,
								"slot": "2",
								"type": "t_uint256"
							},
							{
								"astId": 52,
								"contract": "contracts/stake_reward_MLM.sol:Invest",
								"label": "investmentNum",
								"offset": 0,
								"slot": "3",
								"type": "t_uint256"
							}
						],
						"numberOfBytes": "128"
					},
					"t_struct(ref_data)58_storage": {
						"encoding": "inplace",
						"label": "struct Invest.ref_data",
						"members": [
							{
								"astId": 55,
								"contract": "contracts/stake_reward_MLM.sol:Invest",
								"label": "reward",
								"offset": 0,
								"slot": "0",
								"type": "t_uint256"
							},
							{
								"astId": 57,
								"contract": "contracts/stake_reward_MLM.sol:Invest",
								"label": "count",
								"offset": 0,
								"slot": "1",
								"type": "t_uint256"
							}
						],
						"numberOfBytes": "64"
					},
					"t_uint256": {
						"encoding": "inplace",
						"label": "uint256",
						"numberOfBytes": "32"
					}
				}
			},
			"userdoc": {
				"kind": "user",
				"methods": {},
				"version": 1
			}
		}
	}
}