{
	"contracts/stake_reward_MLM.sol": {
		"Invest": {
			"abi": [
				{
					"inputs": [],
					"stateMutability": "nonpayable",
					"type": "constructor"
				},
				{
					"inputs": [],
					"name": "Admin_data",
					"outputs": [
						{
							"components": [
								{
									"internalType": "address",
									"name": "investor",
									"type": "address"
								},
								{
									"internalType": "uint256",
									"name": "totalInvestment",
									"type": "uint256"
								},
								{
									"internalType": "uint256",
									"name": "reward",
									"type": "uint256"
								},
								{
									"internalType": "uint256",
									"name": "noOfInvestment",
									"type": "uint256"
								},
								{
									"internalType": "uint256",
									"name": "totalWithdraw_reward",
									"type": "uint256"
								},
								{
									"internalType": "uint256",
									"name": "Total_referrals",
									"type": "uint256"
								}
							],
							"internalType": "struct Invest.Admin_Data[]",
							"name": "",
							"type": "tuple[]"
						}
					],
					"stateMutability": "view",
					"type": "function"
				},
				{
					"inputs": [
						{
							"internalType": "uint256",
							"name": "",
							"type": "uint256"
						}
					],
					"name": "All_investors",
					"outputs": [
						{
							"internalType": "address",
							"name": "",
							"type": "address"
						}
					],
					"stateMutability": "view",
					"type": "function"
				},
				{
					"inputs": [],
					"name": "DUSDReferralsList",
					"outputs": [
						{
							"internalType": "address[]",
							"name": "",
							"type": "address[]"
						}
					],
					"stateMutability": "view",
					"type": "function"
				},
				{
					"inputs": [],
					"name": "DUSDTotalReferrals",
					"outputs": [
						{
							"internalType": "uint256",
							"name": "",
							"type": "uint256"
						}
					],
					"stateMutability": "view",
					"type": "function"
				},
				{
					"inputs": [
						{
							"internalType": "address",
							"name": "",
							"type": "address"
						}
					],
					"name": "DUSDinvestor",
					"outputs": [
						{
							"internalType": "address",
							"name": "referralFrom",
							"type": "address"
						},
						{
							"internalType": "uint256",
							"name": "reward",
							"type": "uint256"
						},
						{
							"internalType": "uint256",
							"name": "noOfInvestment",
							"type": "uint256"
						},
						{
							"internalType": "uint256",
							"name": "totalInvestment",
							"type": "uint256"
						},
						{
							"internalType": "uint256",
							"name": "totalWithdraw_reward",
							"type": "uint256"
						},
						{
							"internalType": "bool",
							"name": "investBefore",
							"type": "bool"
						},
						{
							"internalType": "uint256",
							"name": "stakeTime",
							"type": "uint256"
						}
					],
					"stateMutability": "view",
					"type": "function"
				},
				{
					"inputs": [
						{
							"internalType": "uint256",
							"name": "_investedamount",
							"type": "uint256"
						},
						{
							"internalType": "address",
							"name": "_referral",
							"type": "address"
						}
					],
					"name": "Stake",
					"outputs": [
						{
							"internalType": "bool",
							"name": "success",
							"type": "bool"
						}
					],
					"stateMutability": "nonpayable",
					"type": "function"
				},
				{
					"inputs": [],
					"name": "denomenator",
					"outputs": [
						{
							"internalType": "uint256",
							"name": "",
							"type": "uint256"
						}
					],
					"stateMutability": "view",
					"type": "function"
				},
				{
					"inputs": [],
					"name": "getAllDUSDinvestments",
					"outputs": [
						{
							"components": [
								{
									"internalType": "uint256",
									"name": "investedAmount",
									"type": "uint256"
								},
								{
									"internalType": "uint256",
									"name": "withdrawnTime",
									"type": "uint256"
								},
								{
									"internalType": "uint256",
									"name": "DepositTime",
									"type": "uint256"
								},
								{
									"internalType": "uint256",
									"name": "investmentNum",
									"type": "uint256"
								},
								{
									"internalType": "uint256",
									"name": "unstakeTime",
									"type": "uint256"
								},
								{
									"internalType": "bool",
									"name": "unstake",
									"type": "bool"
								}
							],
							"internalType": "struct Invest.allInvestments[]",
							"name": "",
							"type": "tuple[]"
						}
					],
					"stateMutability": "view",
					"type": "function"
				},
				{
					"inputs": [],
					"name": "getReward",
					"outputs": [
						{
							"internalType": "uint256",
							"name": "",
							"type": "uint256"
						}
					],
					"stateMutability": "view",
					"type": "function"
				},
				{
					"inputs": [],
					"name": "getTotalInvestmentDUSD",
					"outputs": [
						{
							"internalType": "uint256",
							"name": "",
							"type": "uint256"
						}
					],
					"stateMutability": "view",
					"type": "function"
				},
				{
					"inputs": [],
					"name": "investmentPeriod",
					"outputs": [
						{
							"internalType": "uint256",
							"name": "",
							"type": "uint256"
						}
					],
					"stateMutability": "view",
					"type": "function"
				},
				{
					"inputs": [],
					"name": "max_Stake_amount",
					"outputs": [
						{
							"internalType": "uint256",
							"name": "",
							"type": "uint256"
						}
					],
					"stateMutability": "view",
					"type": "function"
				},
				{
					"inputs": [],
					"name": "min_Stake_amount",
					"outputs": [
						{
							"internalType": "uint256",
							"name": "",
							"type": "uint256"
						}
					],
					"stateMutability": "view",
					"type": "function"
				},
				{
					"inputs": [],
					"name": "owner",
					"outputs": [
						{
							"internalType": "address",
							"name": "",
							"type": "address"
						}
					],
					"stateMutability": "view",
					"type": "function"
				},
				{
					"inputs": [],
					"name": "referralLevel_count",
					"outputs": [
						{
							"internalType": "uint256[]",
							"name": "arr",
							"type": "uint256[]"
						}
					],
					"stateMutability": "view",
					"type": "function"
				},
				{
					"inputs": [],
					"name": "referralLevel_earning",
					"outputs": [
						{
							"internalType": "uint256[]",
							"name": "arr",
							"type": "uint256[]"
						}
					],
					"stateMutability": "view",
					"type": "function"
				},
				{
					"inputs": [],
					"name": "rewardToken",
					"outputs": [
						{
							"internalType": "uint256",
							"name": "",
							"type": "uint256"
						}
					],
					"stateMutability": "view",
					"type": "function"
				},
				{
					"inputs": [
						{
							"internalType": "uint256",
							"name": "_amount",
							"type": "uint256"
						},
						{
							"internalType": "uint256",
							"name": "_denomenator",
							"type": "uint256"
						}
					],
					"name": "setReward",
					"outputs": [],
					"stateMutability": "nonpayable",
					"type": "function"
				},
				{
					"inputs": [
						{
							"internalType": "uint256",
							"name": "_amount",
							"type": "uint256"
						}
					],
					"name": "set_max_Stake_amount",
					"outputs": [],
					"stateMutability": "nonpayable",
					"type": "function"
				},
				{
					"inputs": [
						{
							"internalType": "uint256",
							"name": "_amount",
							"type": "uint256"
						}
					],
					"name": "set_min_Stake_amount",
					"outputs": [],
					"stateMutability": "nonpayable",
					"type": "function"
				},
				{
					"inputs": [
						{
							"internalType": "uint256",
							"name": "min_stake",
							"type": "uint256"
						},
						{
							"internalType": "uint256",
							"name": "max_stake",
							"type": "uint256"
						},
						{
							"internalType": "uint256",
							"name": "reward_per_day",
							"type": "uint256"
						},
						{
							"internalType": "uint256",
							"name": "_denomenator",
							"type": "uint256"
						}
					],
					"name": "set_values",
					"outputs": [],
					"stateMutability": "nonpayable",
					"type": "function"
				},
				{
					"inputs": [],
					"name": "totalDUSDInvestors",
					"outputs": [
						{
							"internalType": "uint256",
							"name": "",
							"type": "uint256"
						}
					],
					"stateMutability": "view",
					"type": "function"
				},
				{
					"inputs": [],
					"name": "total_withdraw_reaward",
					"outputs": [
						{
							"internalType": "uint256",
							"name": "",
							"type": "uint256"
						}
					],
					"stateMutability": "view",
					"type": "function"
				},
				{
					"inputs": [],
					"name": "totalbusiness",
					"outputs": [
						{
							"internalType": "uint256",
							"name": "",
							"type": "uint256"
						}
					],
					"stateMutability": "view",
					"type": "function"
				},
				{
					"inputs": [
						{
							"internalType": "address",
							"name": "_owner",
							"type": "address"
						}
					],
					"name": "transferOwnership",
					"outputs": [],
					"stateMutability": "nonpayable",
					"type": "function"
				},
				{
					"inputs": [],
					"name": "unStake",
					"outputs": [
						{
							"internalType": "bool",
							"name": "success",
							"type": "bool"
						}
					],
					"stateMutability": "nonpayable",
					"type": "function"
				},
				{
					"inputs": [],
					"name": "withdrawReward",
					"outputs": [
						{
							"internalType": "bool",
							"name": "success",
							"type": "bool"
						}
					],
					"stateMutability": "nonpayable",
					"type": "function"
				}
			],
			"devdoc": {
				"kind": "dev",
				"methods": {},
				"version": 1
			},
			"evm": {
				"assembly": "    /* \"contracts/stake_reward_MLM.sol\":262:15902  contract Invest... */\n  mstore(0x40, 0x80)\n    /* \"contracts/stake_reward_MLM.sol\":504:546  0x9462A065c980693808405eB4f2851f0FfA1d3016 */\n  0x9462a065c980693808405eb4f2851f0ffa1d3016\n    /* \"contracts/stake_reward_MLM.sol\":484:546  address SMCcontract=0x9462A065c980693808405eB4f2851f0FfA1d3016 */\n  0x01\n  exp(0x0100, 0x00)\n  dup2\n  sload\n  dup2\n  0xffffffffffffffffffffffffffffffffffffffff\n  mul\n  not\n  and\n  swap1\n  dup4\n  0xffffffffffffffffffffffffffffffffffffffff\n  and\n  mul\n  or\n  swap1\n  sstore\n  pop\n    /* \"contracts/stake_reward_MLM.sol\":577:619  0xc8BbA86A801Cd87ca72222d5A43639592fbAA6EC */\n  0xc8bba86a801cd87ca72222d5a43639592fbaa6ec\n    /* \"contracts/stake_reward_MLM.sol\":556:619  address BUSDcontract=0xc8BbA86A801Cd87ca72222d5A43639592fbAA6EC */\n  0x02\n  exp(0x0100, 0x00)\n  dup2\n  sload\n  dup2\n  0xffffffffffffffffffffffffffffffffffffffff\n  mul\n  not\n  and\n  swap1\n  dup4\n  0xffffffffffffffffffffffffffffffffffffffff\n  and\n  mul\n  or\n  swap1\n  sstore\n  pop\n    /* \"contracts/stake_reward_MLM.sol\":694:713  5000000000000000000 */\n  0x4563918244f40000\n    /* \"contracts/stake_reward_MLM.sol\":670:713  uint public rewardToken=5000000000000000000 */\n  0x04\n  sstore\n    /* \"contracts/stake_reward_MLM.sol\":762:767  10000 */\n  0x2710\n    /* \"contracts/stake_reward_MLM.sol\":733:767  uint public min_Stake_amount=10000 */\n  0x05\n  sstore\n    /* \"contracts/stake_reward_MLM.sol\":833:840  5000000 */\n  0x4c4b40\n    /* \"contracts/stake_reward_MLM.sol\":804:840  uint public max_Stake_amount=5000000 */\n  0x06\n  sstore\n    /* \"contracts/stake_reward_MLM.sol\":902:908  100000 */\n  0x0186a0\n    /* \"contracts/stake_reward_MLM.sol\":878:908  uint public denomenator=100000 */\n  0x07\n  sstore\n    /* \"contracts/stake_reward_MLM.sol\":975:983  300 days */\n  0x018b8200\n    /* \"contracts/stake_reward_MLM.sol\":946:983  uint public investmentPeriod=300 days */\n  0x08\n  sstore\n    /* \"contracts/stake_reward_MLM.sol\":2112:2242  constructor(){... */\n  callvalue\n  dup1\n  iszero\n  tag_1\n  jumpi\n  0x00\n  dup1\n  revert\ntag_1:\n  pop\n    /* \"contracts/stake_reward_MLM.sol\":2158:2168  msg.sender */\n  caller\n    /* \"contracts/stake_reward_MLM.sol\":2152:2157  owner */\n  0x00\n  dup1\n    /* \"contracts/stake_reward_MLM.sol\":2152:2168  owner=msg.sender */\n  0x0100\n  exp\n  dup2\n  sload\n  dup2\n  0xffffffffffffffffffffffffffffffffffffffff\n  mul\n  not\n  and\n  swap1\n  dup4\n  0xffffffffffffffffffffffffffffffffffffffff\n  and\n  mul\n  or\n  swap1\n  sstore\n  pop\n    /* \"contracts/stake_reward_MLM.sol\":262:15902  contract Invest... */\n  dataSize(sub_0)\n  dup1\n  dataOffset(sub_0)\n  0x00\n  codecopy\n  0x00\n  return\nstop\n\nsub_0: assembly {\n        /* \"contracts/stake_reward_MLM.sol\":262:15902  contract Invest... */\n      mstore(0x40, 0x80)\n      callvalue\n      dup1\n      iszero\n      tag_1\n      jumpi\n      0x00\n      dup1\n      revert\n    tag_1:\n      pop\n      jumpi(tag_2, lt(calldatasize, 0x04))\n      shr(0xe0, calldataload(0x00))\n      dup1\n      0x73cf575a\n      gt\n      tag_30\n      jumpi\n      dup1\n      0xc885bc58\n      gt\n      tag_31\n      jumpi\n      dup1\n      0xf2fde38b\n      gt\n      tag_32\n      jumpi\n      dup1\n      0xf2fde38b\n      eq\n      tag_26\n      jumpi\n      dup1\n      0xf790b81a\n      eq\n      tag_27\n      jumpi\n      dup1\n      0xf7c618c1\n      eq\n      tag_28\n      jumpi\n      dup1\n      0xfae730bc\n      eq\n      tag_29\n      jumpi\n      jump(tag_2)\n    tag_32:\n      dup1\n      0xc885bc58\n      eq\n      tag_23\n      jumpi\n      dup1\n      0xd3560ee8\n      eq\n      tag_24\n      jumpi\n      dup1\n      0xe2033fcb\n      eq\n      tag_25\n      jumpi\n      jump(tag_2)\n    tag_31:\n      dup1\n      0x9740a1bc\n      gt\n      tag_33\n      jumpi\n      dup1\n      0x9740a1bc\n      eq\n      tag_19\n      jumpi\n      dup1\n      0xa47bd496\n      eq\n      tag_20\n      jumpi\n      dup1\n      0xa61be99d\n      eq\n      tag_21\n      jumpi\n      dup1\n      0xbc67eaff\n      eq\n      tag_22\n      jumpi\n      jump(tag_2)\n    tag_33:\n      dup1\n      0x73cf575a\n      eq\n      tag_16\n      jumpi\n      dup1\n      0x8da5cb5b\n      eq\n      tag_17\n      jumpi\n      dup1\n      0x929f6bbe\n      eq\n      tag_18\n      jumpi\n      jump(tag_2)\n    tag_30:\n      dup1\n      0x3d18b912\n      gt\n      tag_34\n      jumpi\n      dup1\n      0x500cb85f\n      gt\n      tag_35\n      jumpi\n      dup1\n      0x500cb85f\n      eq\n      tag_12\n      jumpi\n      dup1\n      0x502c6bfa\n      eq\n      tag_13\n      jumpi\n      dup1\n      0x523cddfe\n      eq\n      tag_14\n      jumpi\n      dup1\n      0x5a4a0192\n      eq\n      tag_15\n      jumpi\n      jump(tag_2)\n    tag_35:\n      dup1\n      0x3d18b912\n      eq\n      tag_9\n      jumpi\n      dup1\n      0x42508f66\n      eq\n      tag_10\n      jumpi\n      dup1\n      0x4eb1ecc9\n      eq\n      tag_11\n      jumpi\n      jump(tag_2)\n    tag_34:\n      dup1\n      0x0c5f58f4\n      eq\n      tag_3\n      jumpi\n      dup1\n      0x10cde60a\n      eq\n      tag_4\n      jumpi\n      dup1\n      0x1e8aba35\n      eq\n      tag_5\n      jumpi\n      dup1\n      0x2bccdce6\n      eq\n      tag_6\n      jumpi\n      dup1\n      0x32d4e783\n      eq\n      tag_7\n      jumpi\n      dup1\n      0x3a1e0833\n      eq\n      tag_8\n      jumpi\n    tag_2:\n      0x00\n      dup1\n      revert\n        /* \"contracts/stake_reward_MLM.sol\":12704:12913  function DUSDReferralsList() public view returns(address[] memory){ //this function is to get the all investors list with there account number... */\n    tag_3:\n      tag_36\n      tag_37\n      jump\t// in\n    tag_36:\n      mload(0x40)\n      tag_38\n      swap2\n      swap1\n      tag_39\n      jump\t// in\n    tag_38:\n      mload(0x40)\n      dup1\n      swap2\n      sub\n      swap1\n      return\n        /* \"contracts/stake_reward_MLM.sol\":630:660  uint public totalDUSDInvestors */\n    tag_4:\n      tag_40\n      tag_41\n      jump\t// in\n    tag_40:\n      mload(0x40)\n      tag_42\n      swap2\n      swap1\n      tag_43\n      jump\t// in\n    tag_42:\n      mload(0x40)\n      dup1\n      swap2\n      sub\n      swap1\n      return\n        /* \"contracts/stake_reward_MLM.sol\":12280:12471  function DUSDTotalReferrals() public view returns(uint){ // this function is to get the total number of referrals ... */\n    tag_5:\n      tag_44\n      tag_45\n      jump\t// in\n    tag_44:\n      mload(0x40)\n      tag_46\n      swap2\n      swap1\n      tag_43\n      jump\t// in\n    tag_46:\n      mload(0x40)\n      dup1\n      swap2\n      sub\n      swap1\n      return\n        /* \"contracts/stake_reward_MLM.sol\":3926:6250  function Stake(uint _investedamount,address _referral) external returns(bool success){... */\n    tag_6:\n      tag_47\n      0x04\n      dup1\n      calldatasize\n      sub\n      dup2\n      add\n      swap1\n      tag_48\n      swap2\n      swap1\n      tag_49\n      jump\t// in\n    tag_48:\n      tag_50\n      jump\t// in\n    tag_47:\n      mload(0x40)\n      tag_51\n      swap2\n      swap1\n      tag_52\n      jump\t// in\n    tag_51:\n      mload(0x40)\n      dup1\n      swap2\n      sub\n      swap1\n      return\n        /* \"contracts/stake_reward_MLM.sol\":13085:13196  function set_min_Stake_amount(uint _amount) public ... */\n    tag_7:\n      tag_53\n      0x04\n      dup1\n      calldatasize\n      sub\n      dup2\n      add\n      swap1\n      tag_54\n      swap2\n      swap1\n      tag_55\n      jump\t// in\n    tag_54:\n      tag_56\n      jump\t// in\n    tag_53:\n      stop\n        /* \"contracts/stake_reward_MLM.sol\":11285:12268  function getAllDUSDinvestments() public view returns (allInvestments[] memory) { //this function will return the all investments of the investor and withware date... */\n    tag_8:\n      tag_57\n      tag_58\n      jump\t// in\n    tag_57:\n      mload(0x40)\n      tag_59\n      swap2\n      swap1\n      tag_60\n      jump\t// in\n    tag_59:\n      mload(0x40)\n      dup1\n      swap2\n      sub\n      swap1\n      return\n        /* \"contracts/stake_reward_MLM.sol\":6260:7450  function getReward() view public returns(uint){ //this function is get the total reward balance of the investor... */\n    tag_9:\n      tag_61\n      tag_62\n      jump\t// in\n    tag_61:\n      mload(0x40)\n      tag_63\n      swap2\n      swap1\n      tag_43\n      jump\t// in\n    tag_63:\n      mload(0x40)\n      dup1\n      swap2\n      sub\n      swap1\n      return\n        /* \"contracts/stake_reward_MLM.sol\":14945:15701  function Admin_data() view public returns(Admin_Data[] memory){... */\n    tag_10:\n      tag_64\n      tag_65\n      jump\t// in\n    tag_64:\n      mload(0x40)\n      tag_66\n      swap2\n      swap1\n      tag_67\n      jump\t// in\n    tag_66:\n      mload(0x40)\n      dup1\n      swap2\n      sub\n      swap1\n      return\n        /* \"contracts/stake_reward_MLM.sol\":13325:13607  function set_values(uint min_stake,uint max_stake,uint reward_per_day,uint _denomenator) public ... */\n    tag_11:\n      tag_68\n      0x04\n      dup1\n      calldatasize\n      sub\n      dup2\n      add\n      swap1\n      tag_69\n      swap2\n      swap1\n      tag_70\n      jump\t// in\n    tag_69:\n      tag_71\n      jump\t// in\n    tag_68:\n      stop\n        /* \"contracts/stake_reward_MLM.sol\":13205:13316  function set_max_Stake_amount(uint _amount) public ... */\n    tag_12:\n      tag_72\n      0x04\n      dup1\n      calldatasize\n      sub\n      dup2\n      add\n      swap1\n      tag_73\n      swap2\n      swap1\n      tag_55\n      jump\t// in\n    tag_73:\n      tag_74\n      jump\t// in\n    tag_72:\n      stop\n        /* \"contracts/stake_reward_MLM.sol\":1057:1100  mapping(uint=>address) public All_investors */\n    tag_13:\n      tag_75\n      0x04\n      dup1\n      calldatasize\n      sub\n      dup2\n      add\n      swap1\n      tag_76\n      swap2\n      swap1\n      tag_55\n      jump\t// in\n    tag_76:\n      tag_77\n      jump\t// in\n    tag_75:\n      mload(0x40)\n      tag_78\n      swap2\n      swap1\n      tag_79\n      jump\t// in\n    tag_78:\n      mload(0x40)\n      dup1\n      swap2\n      sub\n      swap1\n      return\n        /* \"contracts/stake_reward_MLM.sol\":946:983  uint public investmentPeriod=300 days */\n    tag_14:\n      tag_80\n      tag_81\n      jump\t// in\n    tag_80:\n      mload(0x40)\n      tag_82\n      swap2\n      swap1\n      tag_43\n      jump\t// in\n    tag_82:\n      mload(0x40)\n      dup1\n      swap2\n      sub\n      swap1\n      return\n        /* \"contracts/stake_reward_MLM.sol\":15711:15894  function total_withdraw_reaward() view public returns(uint){... */\n    tag_15:\n      tag_83\n      tag_84\n      jump\t// in\n    tag_83:\n      mload(0x40)\n      tag_85\n      swap2\n      swap1\n      tag_43\n      jump\t// in\n    tag_85:\n      mload(0x40)\n      dup1\n      swap2\n      sub\n      swap1\n      return\n        /* \"contracts/stake_reward_MLM.sol\":9503:11055  function unStake() external  returns (bool success){... */\n    tag_16:\n      tag_86\n      tag_87\n      jump\t// in\n    tag_86:\n      mload(0x40)\n      tag_88\n      swap2\n      swap1\n      tag_52\n      jump\t// in\n    tag_88:\n      mload(0x40)\n      dup1\n      swap2\n      sub\n      swap1\n      return\n        /* \"contracts/stake_reward_MLM.sol\":300:321  address  public owner */\n    tag_17:\n      tag_89\n      tag_90\n      jump\t// in\n    tag_89:\n      mload(0x40)\n      tag_91\n      swap2\n      swap1\n      tag_79\n      jump\t// in\n    tag_91:\n      mload(0x40)\n      dup1\n      swap2\n      sub\n      swap1\n      return\n        /* \"contracts/stake_reward_MLM.sol\":11065:11275  function getTotalInvestmentDUSD() public view returns(uint) {   //this function is to get the total investment of the ivestor... */\n    tag_18:\n      tag_92\n      tag_93\n      jump\t// in\n    tag_92:\n      mload(0x40)\n      tag_94\n      swap2\n      swap1\n      tag_43\n      jump\t// in\n    tag_94:\n      mload(0x40)\n      dup1\n      swap2\n      sub\n      swap1\n      return\n        /* \"contracts/stake_reward_MLM.sol\":878:908  uint public denomenator=100000 */\n    tag_19:\n      tag_95\n      tag_96\n      jump\t// in\n    tag_95:\n      mload(0x40)\n      tag_97\n      swap2\n      swap1\n      tag_43\n      jump\t// in\n    tag_97:\n      mload(0x40)\n      dup1\n      swap2\n      sub\n      swap1\n      return\n        /* \"contracts/stake_reward_MLM.sol\":12922:13076  function setReward(uint _amount,uint _denomenator) public ... */\n    tag_20:\n      tag_98\n      0x04\n      dup1\n      calldatasize\n      sub\n      dup2\n      add\n      swap1\n      tag_99\n      swap2\n      swap1\n      tag_100\n      jump\t// in\n    tag_99:\n      tag_101\n      jump\t// in\n    tag_98:\n      stop\n        /* \"contracts/stake_reward_MLM.sol\":13800:14365  function referralLevel_earning() public view returns( uint[] memory arr )... */\n    tag_21:\n      tag_102\n      tag_103\n      jump\t// in\n    tag_102:\n      mload(0x40)\n      tag_104\n      swap2\n      swap1\n      tag_105\n      jump\t// in\n    tag_104:\n      mload(0x40)\n      dup1\n      swap2\n      sub\n      swap1\n      return\n        /* \"contracts/stake_reward_MLM.sol\":733:767  uint public min_Stake_amount=10000 */\n    tag_22:\n      tag_106\n      tag_107\n      jump\t// in\n    tag_106:\n      mload(0x40)\n      tag_108\n      swap2\n      swap1\n      tag_43\n      jump\t// in\n    tag_108:\n      mload(0x40)\n      dup1\n      swap2\n      sub\n      swap1\n      return\n        /* \"contracts/stake_reward_MLM.sol\":8675:9492  function withdrawReward() external returns (bool success){... */\n    tag_23:\n      tag_109\n      tag_110\n      jump\t// in\n    tag_109:\n      mload(0x40)\n      tag_111\n      swap2\n      swap1\n      tag_52\n      jump\t// in\n    tag_111:\n      mload(0x40)\n      dup1\n      swap2\n      sub\n      swap1\n      return\n        /* \"contracts/stake_reward_MLM.sol\":2059:2101  mapping(address=>Data) public DUSDinvestor */\n    tag_24:\n      tag_112\n      0x04\n      dup1\n      calldatasize\n      sub\n      dup2\n      add\n      swap1\n      tag_113\n      swap2\n      swap1\n      tag_114\n      jump\t// in\n    tag_113:\n      tag_115\n      jump\t// in\n    tag_112:\n      mload(0x40)\n      tag_116\n      swap8\n      swap7\n      swap6\n      swap5\n      swap4\n      swap3\n      swap2\n      swap1\n      tag_117\n      jump\t// in\n    tag_116:\n      mload(0x40)\n      dup1\n      swap2\n      sub\n      swap1\n      return\n        /* \"contracts/stake_reward_MLM.sol\":993:1018  uint public totalbusiness */\n    tag_25:\n      tag_118\n      tag_119\n      jump\t// in\n    tag_118:\n      mload(0x40)\n      tag_120\n      swap2\n      swap1\n      tag_43\n      jump\t// in\n    tag_120:\n      mload(0x40)\n      dup1\n      swap2\n      sub\n      swap1\n      return\n        /* \"contracts/stake_reward_MLM.sol\":13616:13790  function transferOwnership(address _owner)  public... */\n    tag_26:\n      tag_121\n      0x04\n      dup1\n      calldatasize\n      sub\n      dup2\n      add\n      swap1\n      tag_122\n      swap2\n      swap1\n      tag_114\n      jump\t// in\n    tag_122:\n      tag_123\n      jump\t// in\n    tag_121:\n      stop\n        /* \"contracts/stake_reward_MLM.sol\":14374:14935  function referralLevel_count() public view returns( uint[] memory arr )... */\n    tag_27:\n      tag_124\n      tag_125\n      jump\t// in\n    tag_124:\n      mload(0x40)\n      tag_126\n      swap2\n      swap1\n      tag_105\n      jump\t// in\n    tag_126:\n      mload(0x40)\n      dup1\n      swap2\n      sub\n      swap1\n      return\n        /* \"contracts/stake_reward_MLM.sol\":670:713  uint public rewardToken=5000000000000000000 */\n    tag_28:\n      tag_127\n      tag_128\n      jump\t// in\n    tag_127:\n      mload(0x40)\n      tag_129\n      swap2\n      swap1\n      tag_43\n      jump\t// in\n    tag_129:\n      mload(0x40)\n      dup1\n      swap2\n      sub\n      swap1\n      return\n        /* \"contracts/stake_reward_MLM.sol\":804:840  uint public max_Stake_amount=5000000 */\n    tag_29:\n      tag_130\n      tag_131\n      jump\t// in\n    tag_130:\n      mload(0x40)\n      tag_132\n      swap2\n      swap1\n      tag_43\n      jump\t// in\n    tag_132:\n      mload(0x40)\n      dup1\n      swap2\n      sub\n      swap1\n      return\n        /* \"contracts/stake_reward_MLM.sol\":12704:12913  function DUSDReferralsList() public view returns(address[] memory){ //this function is to get the all investors list with there account number... */\n    tag_37:\n        /* \"contracts/stake_reward_MLM.sol\":12753:12769  address[] memory */\n      0x60\n        /* \"contracts/stake_reward_MLM.sol\":12865:12877  DUSDinvestor */\n      0x0c\n        /* \"contracts/stake_reward_MLM.sol\":12865:12889  DUSDinvestor[msg.sender] */\n      0x00\n        /* \"contracts/stake_reward_MLM.sol\":12878:12888  msg.sender */\n      caller\n        /* \"contracts/stake_reward_MLM.sol\":12865:12889  DUSDinvestor[msg.sender] */\n      0xffffffffffffffffffffffffffffffffffffffff\n      and\n      0xffffffffffffffffffffffffffffffffffffffff\n      and\n      dup2\n      mstore\n      0x20\n      add\n      swap1\n      dup2\n      mstore\n      0x20\n      add\n      0x00\n      keccak256\n        /* \"contracts/stake_reward_MLM.sol\":12865:12902  DUSDinvestor[msg.sender].hisReferrals */\n      0x01\n      add\n        /* \"contracts/stake_reward_MLM.sol\":12858:12902  return DUSDinvestor[msg.sender].hisReferrals */\n      dup1\n      sload\n      dup1\n      0x20\n      mul\n      0x20\n      add\n      mload(0x40)\n      swap1\n      dup2\n      add\n      0x40\n      mstore\n      dup1\n      swap3\n      swap2\n      swap1\n      dup2\n      dup2\n      mstore\n      0x20\n      add\n      dup3\n      dup1\n      sload\n      dup1\n      iszero\n      tag_134\n      jumpi\n      0x20\n      mul\n      dup3\n      add\n      swap2\n      swap1\n      0x00\n      mstore\n      keccak256(0x00, 0x20)\n      swap1\n    tag_135:\n      dup2\n      0x00\n      swap1\n      sload\n      swap1\n      0x0100\n      exp\n      swap1\n      div\n      0xffffffffffffffffffffffffffffffffffffffff\n      and\n      0xffffffffffffffffffffffffffffffffffffffff\n      and\n      dup2\n      mstore\n      0x20\n      add\n      swap1\n      0x01\n      add\n      swap1\n      dup1\n      dup4\n      gt\n      tag_135\n      jumpi\n    tag_134:\n      pop\n      pop\n      pop\n      pop\n      pop\n      swap1\n      pop\n        /* \"contracts/stake_reward_MLM.sol\":12704:12913  function DUSDReferralsList() public view returns(address[] memory){ //this function is to get the all investors list with there account number... */\n      swap1\n      jump\t// out\n        /* \"contracts/stake_reward_MLM.sol\":630:660  uint public totalDUSDInvestors */\n    tag_41:\n      sload(0x03)\n      dup2\n      jump\t// out\n        /* \"contracts/stake_reward_MLM.sol\":12280:12471  function DUSDTotalReferrals() public view returns(uint){ // this function is to get the total number of referrals ... */\n    tag_45:\n        /* \"contracts/stake_reward_MLM.sol\":12330:12334  uint */\n      0x00\n        /* \"contracts/stake_reward_MLM.sol\":12415:12427  DUSDinvestor */\n      0x0c\n        /* \"contracts/stake_reward_MLM.sol\":12415:12439  DUSDinvestor[msg.sender] */\n      0x00\n        /* \"contracts/stake_reward_MLM.sol\":12428:12438  msg.sender */\n      caller\n        /* \"contracts/stake_reward_MLM.sol\":12415:12439  DUSDinvestor[msg.sender] */\n      0xffffffffffffffffffffffffffffffffffffffff\n      and\n      0xffffffffffffffffffffffffffffffffffffffff\n      and\n      dup2\n      mstore\n      0x20\n      add\n      swap1\n      dup2\n      mstore\n      0x20\n      add\n      0x00\n      keccak256\n        /* \"contracts/stake_reward_MLM.sol\":12415:12452  DUSDinvestor[msg.sender].hisReferrals */\n      0x01\n      add\n        /* \"contracts/stake_reward_MLM.sol\":12414:12460  (DUSDinvestor[msg.sender].hisReferrals).length */\n      dup1\n      sload\n      swap1\n      pop\n        /* \"contracts/stake_reward_MLM.sol\":12407:12460  return (DUSDinvestor[msg.sender].hisReferrals).length */\n      swap1\n      pop\n        /* \"contracts/stake_reward_MLM.sol\":12280:12471  function DUSDTotalReferrals() public view returns(uint){ // this function is to get the total number of referrals ... */\n      swap1\n      jump\t// out\n        /* \"contracts/stake_reward_MLM.sol\":3926:6250  function Stake(uint _investedamount,address _referral) external returns(bool success){... */\n    tag_50:\n        /* \"contracts/stake_reward_MLM.sol\":3998:4010  bool success */\n      0x00\n        /* \"contracts/stake_reward_MLM.sol\":4052:4068  min_Stake_amount */\n      sload(0x05)\n        /* \"contracts/stake_reward_MLM.sol\":4033:4048  _investedamount */\n      dup4\n        /* \"contracts/stake_reward_MLM.sol\":4033:4068  _investedamount >= min_Stake_amount */\n      lt\n      iszero\n        /* \"contracts/stake_reward_MLM.sol\":4033:4107  _investedamount >= min_Stake_amount && _investedamount <= max_Stake_amount */\n      dup1\n      iszero\n      tag_138\n      jumpi\n      pop\n        /* \"contracts/stake_reward_MLM.sol\":4091:4107  max_Stake_amount */\n      sload(0x06)\n        /* \"contracts/stake_reward_MLM.sol\":4072:4087  _investedamount */\n      dup4\n        /* \"contracts/stake_reward_MLM.sol\":4072:4107  _investedamount <= max_Stake_amount */\n      gt\n      iszero\n        /* \"contracts/stake_reward_MLM.sol\":4033:4107  _investedamount >= min_Stake_amount && _investedamount <= max_Stake_amount */\n    tag_138:\n        /* \"contracts/stake_reward_MLM.sol\":4025:4164  require(_investedamount >= min_Stake_amount && _investedamount <= max_Stake_amount,\"value is not greater than 10000 and less than 5000000\") */\n      tag_139\n      jumpi\n      mload(0x40)\n      0x08c379a000000000000000000000000000000000000000000000000000000000\n      dup2\n      mstore\n      0x04\n      add\n      tag_140\n      swap1\n      tag_141\n      jump\t// in\n    tag_140:\n      mload(0x40)\n      dup1\n      swap2\n      sub\n      swap1\n      revert\n    tag_139:\n        /* \"contracts/stake_reward_MLM.sol\":4293:4298  false */\n      0x00\n        /* \"contracts/stake_reward_MLM.sol\":4252:4298  DUSDinvestor[msg.sender].investBefore == false */\n      iszero\n      iszero\n        /* \"contracts/stake_reward_MLM.sol\":4252:4264  DUSDinvestor */\n      0x0c\n        /* \"contracts/stake_reward_MLM.sol\":4252:4276  DUSDinvestor[msg.sender] */\n      0x00\n        /* \"contracts/stake_reward_MLM.sol\":4265:4275  msg.sender */\n      caller\n        /* \"contracts/stake_reward_MLM.sol\":4252:4276  DUSDinvestor[msg.sender] */\n      0xffffffffffffffffffffffffffffffffffffffff\n      and\n      0xffffffffffffffffffffffffffffffffffffffff\n      and\n      dup2\n      mstore\n      0x20\n      add\n      swap1\n      dup2\n      mstore\n      0x20\n      add\n      0x00\n      keccak256\n        /* \"contracts/stake_reward_MLM.sol\":4252:4289  DUSDinvestor[msg.sender].investBefore */\n      0x08\n      add\n      0x00\n      swap1\n      sload\n      swap1\n      0x0100\n      exp\n      swap1\n      div\n      0xff\n      and\n        /* \"contracts/stake_reward_MLM.sol\":4252:4298  DUSDinvestor[msg.sender].investBefore == false */\n      iszero\n      iszero\n      eq\n        /* \"contracts/stake_reward_MLM.sol\":4249:4567  if(DUSDinvestor[msg.sender].investBefore == false)... */\n      iszero\n      tag_142\n      jumpi\n        /* \"contracts/stake_reward_MLM.sol\":4365:4375  msg.sender */\n      caller\n        /* \"contracts/stake_reward_MLM.sol\":4331:4344  All_investors */\n      0x0b\n        /* \"contracts/stake_reward_MLM.sol\":4331:4364  All_investors[totalDUSDInvestors] */\n      0x00\n        /* \"contracts/stake_reward_MLM.sol\":4345:4363  totalDUSDInvestors */\n      sload(0x03)\n        /* \"contracts/stake_reward_MLM.sol\":4331:4364  All_investors[totalDUSDInvestors] */\n      dup2\n      mstore\n      0x20\n      add\n      swap1\n      dup2\n      mstore\n      0x20\n      add\n      0x00\n      keccak256\n      0x00\n        /* \"contracts/stake_reward_MLM.sol\":4331:4375  All_investors[totalDUSDInvestors]=msg.sender */\n      0x0100\n      exp\n      dup2\n      sload\n      dup2\n      0xffffffffffffffffffffffffffffffffffffffff\n      mul\n      not\n      and\n      swap1\n      dup4\n      0xffffffffffffffffffffffffffffffffffffffff\n      and\n      mul\n      or\n      swap1\n      sstore\n      pop\n        /* \"contracts/stake_reward_MLM.sol\":4394:4412  totalDUSDInvestors */\n      0x03\n      0x00\n        /* \"contracts/stake_reward_MLM.sol\":4394:4414  totalDUSDInvestors++ */\n      dup2\n      sload\n      dup1\n      swap3\n      swap2\n      swap1\n      tag_143\n      swap1\n      tag_144\n      jump\t// in\n    tag_143:\n      swap2\n      swap1\n      pop\n      sstore\n      pop\n        /* \"contracts/stake_reward_MLM.sol\":4249:4567  if(DUSDinvestor[msg.sender].investBefore == false)... */\n      jump(tag_145)\n    tag_142:\n        /* \"contracts/stake_reward_MLM.sol\":4514:4526  DUSDinvestor */\n      0x0c\n        /* \"contracts/stake_reward_MLM.sol\":4514:4538  DUSDinvestor[msg.sender] */\n      0x00\n        /* \"contracts/stake_reward_MLM.sol\":4527:4537  msg.sender */\n      caller\n        /* \"contracts/stake_reward_MLM.sol\":4514:4538  DUSDinvestor[msg.sender] */\n      0xffffffffffffffffffffffffffffffffffffffff\n      and\n      0xffffffffffffffffffffffffffffffffffffffff\n      and\n      dup2\n      mstore\n      0x20\n      add\n      swap1\n      dup2\n      mstore\n      0x20\n      add\n      0x00\n      keccak256\n        /* \"contracts/stake_reward_MLM.sol\":4514:4551  DUSDinvestor[msg.sender].referralFrom */\n      0x02\n      add\n      0x00\n      swap1\n      sload\n      swap1\n      0x0100\n      exp\n      swap1\n      div\n      0xffffffffffffffffffffffffffffffffffffffff\n      and\n        /* \"contracts/stake_reward_MLM.sol\":4502:4551  _referral = DUSDinvestor[msg.sender].referralFrom */\n      swap2\n      pop\n        /* \"contracts/stake_reward_MLM.sol\":4249:4567  if(DUSDinvestor[msg.sender].investBefore == false)... */\n    tag_145:\n        /* \"contracts/stake_reward_MLM.sol\":4628:4629  0 */\n      0x00\n        /* \"contracts/stake_reward_MLM.sol\":4584:4596  DUSDinvestor */\n      0x0c\n        /* \"contracts/stake_reward_MLM.sol\":4584:4608  DUSDinvestor[msg.sender] */\n      0x00\n        /* \"contracts/stake_reward_MLM.sol\":4597:4607  msg.sender */\n      caller\n        /* \"contracts/stake_reward_MLM.sol\":4584:4608  DUSDinvestor[msg.sender] */\n      0xffffffffffffffffffffffffffffffffffffffff\n      and\n      0xffffffffffffffffffffffffffffffffffffffff\n      and\n      dup2\n      mstore\n      0x20\n      add\n      swap1\n      dup2\n      mstore\n      0x20\n      add\n      0x00\n      keccak256\n        /* \"contracts/stake_reward_MLM.sol\":4584:4624  DUSDinvestor[msg.sender].totalInvestment */\n      0x06\n      add\n      sload\n        /* \"contracts/stake_reward_MLM.sol\":4584:4629  DUSDinvestor[msg.sender].totalInvestment == 0 */\n      eq\n        /* \"contracts/stake_reward_MLM.sol\":4581:4740  if(DUSDinvestor[msg.sender].totalInvestment == 0)... */\n      iszero\n      tag_146\n      jumpi\n        /* \"contracts/stake_reward_MLM.sol\":4717:4725  300 days */\n      0x018b8200\n        /* \"contracts/stake_reward_MLM.sol\":4699:4714  block.timestamp */\n      timestamp\n        /* \"contracts/stake_reward_MLM.sol\":4699:4725  block.timestamp + 300 days */\n      tag_147\n      swap2\n      swap1\n      tag_148\n      jump\t// in\n    tag_147:\n        /* \"contracts/stake_reward_MLM.sol\":4662:4674  DUSDinvestor */\n      0x0c\n        /* \"contracts/stake_reward_MLM.sol\":4662:4686  DUSDinvestor[msg.sender] */\n      0x00\n        /* \"contracts/stake_reward_MLM.sol\":4675:4685  msg.sender */\n      caller\n        /* \"contracts/stake_reward_MLM.sol\":4662:4686  DUSDinvestor[msg.sender] */\n      0xffffffffffffffffffffffffffffffffffffffff\n      and\n      0xffffffffffffffffffffffffffffffffffffffff\n      and\n      dup2\n      mstore\n      0x20\n      add\n      swap1\n      dup2\n      mstore\n      0x20\n      add\n      0x00\n      keccak256\n        /* \"contracts/stake_reward_MLM.sol\":4662:4696  DUSDinvestor[msg.sender].stakeTime */\n      0x09\n      add\n        /* \"contracts/stake_reward_MLM.sol\":4662:4725  DUSDinvestor[msg.sender].stakeTime = block.timestamp + 300 days */\n      dup2\n      swap1\n      sstore\n      pop\n        /* \"contracts/stake_reward_MLM.sol\":4581:4740  if(DUSDinvestor[msg.sender].totalInvestment == 0)... */\n    tag_146:\n        /* \"contracts/stake_reward_MLM.sol\":4753:4761  uint num */\n      0x00\n        /* \"contracts/stake_reward_MLM.sol\":4764:4776  DUSDinvestor */\n      0x0c\n        /* \"contracts/stake_reward_MLM.sol\":4764:4788  DUSDinvestor[msg.sender] */\n      0x00\n        /* \"contracts/stake_reward_MLM.sol\":4777:4787  msg.sender */\n      caller\n        /* \"contracts/stake_reward_MLM.sol\":4764:4788  DUSDinvestor[msg.sender] */\n      0xffffffffffffffffffffffffffffffffffffffff\n      and\n      0xffffffffffffffffffffffffffffffffffffffff\n      and\n      dup2\n      mstore\n      0x20\n      add\n      swap1\n      dup2\n      mstore\n      0x20\n      add\n      0x00\n      keccak256\n        /* \"contracts/stake_reward_MLM.sol\":4764:4803  DUSDinvestor[msg.sender].noOfInvestment */\n      0x05\n      add\n      sload\n        /* \"contracts/stake_reward_MLM.sol\":4753:4803  uint num = DUSDinvestor[msg.sender].noOfInvestment */\n      swap1\n      pop\n        /* \"contracts/stake_reward_MLM.sol\":4874:4889  _investedamount */\n      dup4\n        /* \"contracts/stake_reward_MLM.sol\":4817:4829  DUSDinvestor */\n      0x0c\n        /* \"contracts/stake_reward_MLM.sol\":4817:4841  DUSDinvestor[msg.sender] */\n      0x00\n        /* \"contracts/stake_reward_MLM.sol\":4830:4840  msg.sender */\n      caller\n        /* \"contracts/stake_reward_MLM.sol\":4817:4841  DUSDinvestor[msg.sender] */\n      0xffffffffffffffffffffffffffffffffffffffff\n      and\n      0xffffffffffffffffffffffffffffffffffffffff\n      and\n      dup2\n      mstore\n      0x20\n      add\n      swap1\n      dup2\n      mstore\n      0x20\n      add\n      0x00\n      keccak256\n        /* \"contracts/stake_reward_MLM.sol\":4817:4852  DUSDinvestor[msg.sender].investment */\n      0x00\n      add\n        /* \"contracts/stake_reward_MLM.sol\":4817:4857  DUSDinvestor[msg.sender].investment[num] */\n      0x00\n        /* \"contracts/stake_reward_MLM.sol\":4853:4856  num */\n      dup4\n        /* \"contracts/stake_reward_MLM.sol\":4817:4857  DUSDinvestor[msg.sender].investment[num] */\n      dup2\n      mstore\n      0x20\n      add\n      swap1\n      dup2\n      mstore\n      0x20\n      add\n      0x00\n      keccak256\n        /* \"contracts/stake_reward_MLM.sol\":4817:4872  DUSDinvestor[msg.sender].investment[num].investedAmount */\n      0x00\n      add\n        /* \"contracts/stake_reward_MLM.sol\":4817:4889  DUSDinvestor[msg.sender].investment[num].investedAmount =_investedamount */\n      dup2\n      swap1\n      sstore\n      pop\n        /* \"contracts/stake_reward_MLM.sol\":4956:4971  block.timestamp */\n      timestamp\n        /* \"contracts/stake_reward_MLM.sol\":4903:4915  DUSDinvestor */\n      0x0c\n        /* \"contracts/stake_reward_MLM.sol\":4903:4927  DUSDinvestor[msg.sender] */\n      0x00\n        /* \"contracts/stake_reward_MLM.sol\":4916:4926  msg.sender */\n      caller\n        /* \"contracts/stake_reward_MLM.sol\":4903:4927  DUSDinvestor[msg.sender] */\n      0xffffffffffffffffffffffffffffffffffffffff\n      and\n      0xffffffffffffffffffffffffffffffffffffffff\n      and\n      dup2\n      mstore\n      0x20\n      add\n      swap1\n      dup2\n      mstore\n      0x20\n      add\n      0x00\n      keccak256\n        /* \"contracts/stake_reward_MLM.sol\":4903:4938  DUSDinvestor[msg.sender].investment */\n      0x00\n      add\n        /* \"contracts/stake_reward_MLM.sol\":4903:4943  DUSDinvestor[msg.sender].investment[num] */\n      0x00\n        /* \"contracts/stake_reward_MLM.sol\":4939:4942  num */\n      dup4\n        /* \"contracts/stake_reward_MLM.sol\":4903:4943  DUSDinvestor[msg.sender].investment[num] */\n      dup2\n      mstore\n      0x20\n      add\n      swap1\n      dup2\n      mstore\n      0x20\n      add\n      0x00\n      keccak256\n        /* \"contracts/stake_reward_MLM.sol\":4903:4955  DUSDinvestor[msg.sender].investment[num].DepositTime */\n      0x02\n      add\n        /* \"contracts/stake_reward_MLM.sol\":4903:4971  DUSDinvestor[msg.sender].investment[num].DepositTime=block.timestamp */\n      dup2\n      swap1\n      sstore\n      pop\n        /* \"contracts/stake_reward_MLM.sol\":5058:5074  investmentPeriod */\n      sload(0x08)\n        /* \"contracts/stake_reward_MLM.sol\":5040:5055  block.timestamp */\n      timestamp\n        /* \"contracts/stake_reward_MLM.sol\":5040:5074  block.timestamp + investmentPeriod */\n      tag_149\n      swap2\n      swap1\n      tag_148\n      jump\t// in\n    tag_149:\n        /* \"contracts/stake_reward_MLM.sol\":4985:4997  DUSDinvestor */\n      0x0c\n        /* \"contracts/stake_reward_MLM.sol\":4985:5009  DUSDinvestor[msg.sender] */\n      0x00\n        /* \"contracts/stake_reward_MLM.sol\":4998:5008  msg.sender */\n      caller\n        /* \"contracts/stake_reward_MLM.sol\":4985:5009  DUSDinvestor[msg.sender] */\n      0xffffffffffffffffffffffffffffffffffffffff\n      and\n      0xffffffffffffffffffffffffffffffffffffffff\n      and\n      dup2\n      mstore\n      0x20\n      add\n      swap1\n      dup2\n      mstore\n      0x20\n      add\n      0x00\n      keccak256\n        /* \"contracts/stake_reward_MLM.sol\":4985:5020  DUSDinvestor[msg.sender].investment */\n      0x00\n      add\n        /* \"contracts/stake_reward_MLM.sol\":4985:5025  DUSDinvestor[msg.sender].investment[num] */\n      0x00\n        /* \"contracts/stake_reward_MLM.sol\":5021:5024  num */\n      dup4\n        /* \"contracts/stake_reward_MLM.sol\":4985:5025  DUSDinvestor[msg.sender].investment[num] */\n      dup2\n      mstore\n      0x20\n      add\n      swap1\n      dup2\n      mstore\n      0x20\n      add\n      0x00\n      keccak256\n        /* \"contracts/stake_reward_MLM.sol\":4985:5039  DUSDinvestor[msg.sender].investment[num].withdrawnTime */\n      0x01\n      add\n        /* \"contracts/stake_reward_MLM.sol\":4985:5074  DUSDinvestor[msg.sender].investment[num].withdrawnTime=block.timestamp + investmentPeriod */\n      dup2\n      swap1\n      sstore\n      pop\n        /* \"contracts/stake_reward_MLM.sol\":5157:5160  num */\n      dup1\n        /* \"contracts/stake_reward_MLM.sol\":5102:5114  DUSDinvestor */\n      0x0c\n        /* \"contracts/stake_reward_MLM.sol\":5102:5126  DUSDinvestor[msg.sender] */\n      0x00\n        /* \"contracts/stake_reward_MLM.sol\":5115:5125  msg.sender */\n      caller\n        /* \"contracts/stake_reward_MLM.sol\":5102:5126  DUSDinvestor[msg.sender] */\n      0xffffffffffffffffffffffffffffffffffffffff\n      and\n      0xffffffffffffffffffffffffffffffffffffffff\n      and\n      dup2\n      mstore\n      0x20\n      add\n      swap1\n      dup2\n      mstore\n      0x20\n      add\n      0x00\n      keccak256\n        /* \"contracts/stake_reward_MLM.sol\":5102:5137  DUSDinvestor[msg.sender].investment */\n      0x00\n      add\n        /* \"contracts/stake_reward_MLM.sol\":5102:5142  DUSDinvestor[msg.sender].investment[num] */\n      0x00\n        /* \"contracts/stake_reward_MLM.sol\":5138:5141  num */\n      dup4\n        /* \"contracts/stake_reward_MLM.sol\":5102:5142  DUSDinvestor[msg.sender].investment[num] */\n      dup2\n      mstore\n      0x20\n      add\n      swap1\n      dup2\n      mstore\n      0x20\n      add\n      0x00\n      keccak256\n        /* \"contracts/stake_reward_MLM.sol\":5102:5156  DUSDinvestor[msg.sender].investment[num].investmentNum */\n      0x03\n      add\n        /* \"contracts/stake_reward_MLM.sol\":5102:5160  DUSDinvestor[msg.sender].investment[num].investmentNum=num */\n      dup2\n      swap1\n      sstore\n      pop\n        /* \"contracts/stake_reward_MLM.sol\":5216:5231  _investedamount */\n      dup4\n        /* \"contracts/stake_reward_MLM.sol\":5174:5186  DUSDinvestor */\n      0x0c\n        /* \"contracts/stake_reward_MLM.sol\":5174:5198  DUSDinvestor[msg.sender] */\n      0x00\n        /* \"contracts/stake_reward_MLM.sol\":5187:5197  msg.sender */\n      caller\n        /* \"contracts/stake_reward_MLM.sol\":5174:5198  DUSDinvestor[msg.sender] */\n      0xffffffffffffffffffffffffffffffffffffffff\n      and\n      0xffffffffffffffffffffffffffffffffffffffff\n      and\n      dup2\n      mstore\n      0x20\n      add\n      swap1\n      dup2\n      mstore\n      0x20\n      add\n      0x00\n      keccak256\n        /* \"contracts/stake_reward_MLM.sol\":5174:5214  DUSDinvestor[msg.sender].totalInvestment */\n      0x06\n      add\n      0x00\n        /* \"contracts/stake_reward_MLM.sol\":5174:5231  DUSDinvestor[msg.sender].totalInvestment+=_investedamount */\n      dup3\n      dup3\n      sload\n      tag_150\n      swap2\n      swap1\n      tag_148\n      jump\t// in\n    tag_150:\n      swap3\n      pop\n      pop\n      dup2\n      swap1\n      sstore\n      pop\n        /* \"contracts/stake_reward_MLM.sol\":5245:5257  DUSDinvestor */\n      0x0c\n        /* \"contracts/stake_reward_MLM.sol\":5245:5269  DUSDinvestor[msg.sender] */\n      0x00\n        /* \"contracts/stake_reward_MLM.sol\":5258:5268  msg.sender */\n      caller\n        /* \"contracts/stake_reward_MLM.sol\":5245:5269  DUSDinvestor[msg.sender] */\n      0xffffffffffffffffffffffffffffffffffffffff\n      and\n      0xffffffffffffffffffffffffffffffffffffffff\n      and\n      dup2\n      mstore\n      0x20\n      add\n      swap1\n      dup2\n      mstore\n      0x20\n      add\n      0x00\n      keccak256\n        /* \"contracts/stake_reward_MLM.sol\":5245:5284  DUSDinvestor[msg.sender].noOfInvestment */\n      0x05\n      add\n      0x00\n        /* \"contracts/stake_reward_MLM.sol\":5245:5286  DUSDinvestor[msg.sender].noOfInvestment++ */\n      dup2\n      sload\n      dup1\n      swap3\n      swap2\n      swap1\n      tag_151\n      swap1\n      tag_144\n      jump\t// in\n    tag_151:\n      swap2\n      swap1\n      pop\n      sstore\n      pop\n        /* \"contracts/stake_reward_MLM.sol\":5315:5330  _investedamount */\n      dup4\n        /* \"contracts/stake_reward_MLM.sol\":5300:5313  totalbusiness */\n      0x09\n      0x00\n        /* \"contracts/stake_reward_MLM.sol\":5300:5330  totalbusiness+=_investedamount */\n      dup3\n      dup3\n      sload\n      tag_152\n      swap2\n      swap1\n      tag_148\n      jump\t// in\n    tag_152:\n      swap3\n      pop\n      pop\n      dup2\n      swap1\n      sstore\n      pop\n        /* \"contracts/stake_reward_MLM.sol\":5349:5360  SMCcontract */\n      0x01\n      0x00\n      swap1\n      sload\n      swap1\n      0x0100\n      exp\n      swap1\n      div\n      0xffffffffffffffffffffffffffffffffffffffff\n      and\n        /* \"contracts/stake_reward_MLM.sol\":5344:5374  DUSD(SMCcontract).transferFrom */\n      0xffffffffffffffffffffffffffffffffffffffff\n      and\n      0x23b872dd\n        /* \"contracts/stake_reward_MLM.sol\":5375:5385  msg.sender */\n      caller\n        /* \"contracts/stake_reward_MLM.sol\":5394:5398  this */\n      address\n        /* \"contracts/stake_reward_MLM.sol\":5416:5421  10**8 */\n      0x05f5e100\n        /* \"contracts/stake_reward_MLM.sol\":5400:5415  _investedamount */\n      dup9\n        /* \"contracts/stake_reward_MLM.sol\":5400:5421  _investedamount*10**8 */\n      tag_153\n      swap2\n      swap1\n      tag_154\n      jump\t// in\n    tag_153:\n        /* \"contracts/stake_reward_MLM.sol\":5344:5422  DUSD(SMCcontract).transferFrom(msg.sender,address(this),_investedamount*10**8) */\n      mload(0x40)\n      dup5\n      0xffffffff\n      and\n      0xe0\n      shl\n      dup2\n      mstore\n      0x04\n      add\n      tag_155\n      swap4\n      swap3\n      swap2\n      swap1\n      tag_156\n      jump\t// in\n    tag_155:\n      0x20\n      mload(0x40)\n      dup1\n      dup4\n      sub\n      dup2\n      0x00\n      dup8\n      dup1\n      extcodesize\n      iszero\n      dup1\n      iszero\n      tag_157\n      jumpi\n      0x00\n      dup1\n      revert\n    tag_157:\n      pop\n      gas\n      call\n      iszero\n      dup1\n      iszero\n      tag_159\n      jumpi\n      returndatasize\n      0x00\n      dup1\n      returndatacopy\n      revert(0x00, returndatasize)\n    tag_159:\n      pop\n      pop\n      pop\n      pop\n      mload(0x40)\n      returndatasize\n      not(0x1f)\n      0x1f\n      dup3\n      add\n      and\n      dup3\n      add\n      dup1\n      0x40\n      mstore\n      pop\n      dup2\n      add\n      swap1\n      tag_160\n      swap2\n      swap1\n      tag_161\n      jump\t// in\n    tag_160:\n      pop\n        /* \"contracts/stake_reward_MLM.sol\":5459:5460  0 */\n      0x00\n        /* \"contracts/stake_reward_MLM.sol\":5440:5461  _referral==address(0) */\n      0xffffffffffffffffffffffffffffffffffffffff\n      and\n        /* \"contracts/stake_reward_MLM.sol\":5440:5449  _referral */\n      dup4\n        /* \"contracts/stake_reward_MLM.sol\":5440:5461  _referral==address(0) */\n      0xffffffffffffffffffffffffffffffffffffffff\n      and\n      eq\n        /* \"contracts/stake_reward_MLM.sol\":5440:5486  _referral==address(0) || _referral==msg.sender */\n      dup1\n      tag_162\n      jumpi\n      pop\n        /* \"contracts/stake_reward_MLM.sol\":5476:5486  msg.sender */\n      caller\n        /* \"contracts/stake_reward_MLM.sol\":5465:5486  _referral==msg.sender */\n      0xffffffffffffffffffffffffffffffffffffffff\n      and\n        /* \"contracts/stake_reward_MLM.sol\":5465:5474  _referral */\n      dup4\n        /* \"contracts/stake_reward_MLM.sol\":5465:5486  _referral==msg.sender */\n      0xffffffffffffffffffffffffffffffffffffffff\n      and\n      eq\n        /* \"contracts/stake_reward_MLM.sol\":5440:5486  _referral==address(0) || _referral==msg.sender */\n    tag_162:\n        /* \"contracts/stake_reward_MLM.sol\":5437:6145  if(_referral==address(0) || _referral==msg.sender)                                         //checking that investor comes from the referral link or not... */\n      iszero\n      tag_163\n      jumpi\n        /* \"contracts/stake_reward_MLM.sol\":5668:5669  0 */\n      0x00\n        /* \"contracts/stake_reward_MLM.sol\":5620:5632  DUSDinvestor */\n      0x0c\n        /* \"contracts/stake_reward_MLM.sol\":5620:5644  DUSDinvestor[msg.sender] */\n      0x00\n        /* \"contracts/stake_reward_MLM.sol\":5633:5643  msg.sender */\n      caller\n        /* \"contracts/stake_reward_MLM.sol\":5620:5644  DUSDinvestor[msg.sender] */\n      0xffffffffffffffffffffffffffffffffffffffff\n      and\n      0xffffffffffffffffffffffffffffffffffffffff\n      and\n      dup2\n      mstore\n      0x20\n      add\n      swap1\n      dup2\n      mstore\n      0x20\n      add\n      0x00\n      keccak256\n        /* \"contracts/stake_reward_MLM.sol\":5620:5657  DUSDinvestor[msg.sender].referralFrom */\n      0x02\n      add\n      0x00\n        /* \"contracts/stake_reward_MLM.sol\":5620:5670  DUSDinvestor[msg.sender].referralFrom = address(0) */\n      0x0100\n      exp\n      dup2\n      sload\n      dup2\n      0xffffffffffffffffffffffffffffffffffffffff\n      mul\n      not\n      and\n      swap1\n      dup4\n      0xffffffffffffffffffffffffffffffffffffffff\n      and\n      mul\n      or\n      swap1\n      sstore\n      pop\n        /* \"contracts/stake_reward_MLM.sol\":5437:6145  if(_referral==address(0) || _referral==msg.sender)                                         //checking that investor comes from the referral link or not... */\n      jump(tag_164)\n    tag_163:\n        /* \"contracts/stake_reward_MLM.sol\":5777:5782  false */\n      0x00\n        /* \"contracts/stake_reward_MLM.sol\":5736:5782  DUSDinvestor[msg.sender].investBefore == false */\n      iszero\n      iszero\n        /* \"contracts/stake_reward_MLM.sol\":5736:5748  DUSDinvestor */\n      0x0c\n        /* \"contracts/stake_reward_MLM.sol\":5736:5760  DUSDinvestor[msg.sender] */\n      0x00\n        /* \"contracts/stake_reward_MLM.sol\":5749:5759  msg.sender */\n      caller\n        /* \"contracts/stake_reward_MLM.sol\":5736:5760  DUSDinvestor[msg.sender] */\n      0xffffffffffffffffffffffffffffffffffffffff\n      and\n      0xffffffffffffffffffffffffffffffffffffffff\n      and\n      dup2\n      mstore\n      0x20\n      add\n      swap1\n      dup2\n      mstore\n      0x20\n      add\n      0x00\n      keccak256\n        /* \"contracts/stake_reward_MLM.sol\":5736:5773  DUSDinvestor[msg.sender].investBefore */\n      0x08\n      add\n      0x00\n      swap1\n      sload\n      swap1\n      0x0100\n      exp\n      swap1\n      div\n      0xff\n      and\n        /* \"contracts/stake_reward_MLM.sol\":5736:5782  DUSDinvestor[msg.sender].investBefore == false */\n      iszero\n      iszero\n      eq\n        /* \"contracts/stake_reward_MLM.sol\":5733:5966  if(DUSDinvestor[msg.sender].investBefore == false)... */\n      iszero\n      tag_165\n      jumpi\n        /* \"contracts/stake_reward_MLM.sol\":5863:5872  _referral */\n      dup3\n        /* \"contracts/stake_reward_MLM.sol\":5823:5835  DUSDinvestor */\n      0x0c\n        /* \"contracts/stake_reward_MLM.sol\":5823:5847  DUSDinvestor[msg.sender] */\n      0x00\n        /* \"contracts/stake_reward_MLM.sol\":5836:5846  msg.sender */\n      caller\n        /* \"contracts/stake_reward_MLM.sol\":5823:5847  DUSDinvestor[msg.sender] */\n      0xffffffffffffffffffffffffffffffffffffffff\n      and\n      0xffffffffffffffffffffffffffffffffffffffff\n      and\n      dup2\n      mstore\n      0x20\n      add\n      swap1\n      dup2\n      mstore\n      0x20\n      add\n      0x00\n      keccak256\n        /* \"contracts/stake_reward_MLM.sol\":5823:5860  DUSDinvestor[msg.sender].referralFrom */\n      0x02\n      add\n      0x00\n        /* \"contracts/stake_reward_MLM.sol\":5823:5872  DUSDinvestor[msg.sender].referralFrom = _referral */\n      0x0100\n      exp\n      dup2\n      sload\n      dup2\n      0xffffffffffffffffffffffffffffffffffffffff\n      mul\n      not\n      and\n      swap1\n      dup4\n      0xffffffffffffffffffffffffffffffffffffffff\n      and\n      mul\n      or\n      swap1\n      sstore\n      pop\n        /* \"contracts/stake_reward_MLM.sol\":5894:5906  DUSDinvestor */\n      0x0c\n        /* \"contracts/stake_reward_MLM.sol\":5894:5917  DUSDinvestor[_referral] */\n      0x00\n        /* \"contracts/stake_reward_MLM.sol\":5907:5916  _referral */\n      dup5\n        /* \"contracts/stake_reward_MLM.sol\":5894:5917  DUSDinvestor[_referral] */\n      0xffffffffffffffffffffffffffffffffffffffff\n      and\n      0xffffffffffffffffffffffffffffffffffffffff\n      and\n      dup2\n      mstore\n      0x20\n      add\n      swap1\n      dup2\n      mstore\n      0x20\n      add\n      0x00\n      keccak256\n        /* \"contracts/stake_reward_MLM.sol\":5894:5930  DUSDinvestor[_referral].hisReferrals */\n      0x01\n      add\n        /* \"contracts/stake_reward_MLM.sol\":5936:5946  msg.sender */\n      caller\n        /* \"contracts/stake_reward_MLM.sol\":5894:5947  DUSDinvestor[_referral].hisReferrals.push(msg.sender) */\n      swap1\n      dup1\n      0x01\n      dup2\n      sload\n      add\n      dup1\n      dup3\n      sstore\n      dup1\n      swap2\n      pop\n      pop\n      0x01\n      swap1\n      sub\n      swap1\n      0x00\n      mstore\n      keccak256(0x00, 0x20)\n      add\n      0x00\n      swap1\n      swap2\n      swap1\n      swap2\n      swap1\n      swap2\n      0x0100\n      exp\n      dup2\n      sload\n      dup2\n      0xffffffffffffffffffffffffffffffffffffffff\n      mul\n      not\n      and\n      swap1\n      dup4\n      0xffffffffffffffffffffffffffffffffffffffff\n      and\n      mul\n      or\n      swap1\n      sstore\n      pop\n        /* \"contracts/stake_reward_MLM.sol\":5733:5966  if(DUSDinvestor[msg.sender].investBefore == false)... */\n    tag_165:\n        /* \"contracts/stake_reward_MLM.sol\":5983:6036  sendRewardToDUSDReferrals(msg.sender,_investedamount) */\n      tag_167\n        /* \"contracts/stake_reward_MLM.sol\":6009:6019  msg.sender */\n      caller\n        /* \"contracts/stake_reward_MLM.sol\":6020:6035  _investedamount */\n      dup6\n        /* \"contracts/stake_reward_MLM.sol\":5983:6008  sendRewardToDUSDReferrals */\n      tag_168\n        /* \"contracts/stake_reward_MLM.sol\":5983:6036  sendRewardToDUSDReferrals(msg.sender,_investedamount) */\n      jump\t// in\n    tag_167:\n        /* \"contracts/stake_reward_MLM.sol\":5437:6145  if(_referral==address(0) || _referral==msg.sender)                                         //checking that investor comes from the referral link or not... */\n    tag_164:\n        /* \"contracts/stake_reward_MLM.sol\":6196:6200  true */\n      0x01\n        /* \"contracts/stake_reward_MLM.sol\":6158:6170  DUSDinvestor */\n      0x0c\n        /* \"contracts/stake_reward_MLM.sol\":6158:6182  DUSDinvestor[msg.sender] */\n      0x00\n        /* \"contracts/stake_reward_MLM.sol\":6171:6181  msg.sender */\n      caller\n        /* \"contracts/stake_reward_MLM.sol\":6158:6182  DUSDinvestor[msg.sender] */\n      0xffffffffffffffffffffffffffffffffffffffff\n      and\n      0xffffffffffffffffffffffffffffffffffffffff\n      and\n      dup2\n      mstore\n      0x20\n      add\n      swap1\n      dup2\n      mstore\n      0x20\n      add\n      0x00\n      keccak256\n        /* \"contracts/stake_reward_MLM.sol\":6158:6195  DUSDinvestor[msg.sender].investBefore */\n      0x08\n      add\n      0x00\n        /* \"contracts/stake_reward_MLM.sol\":6158:6200  DUSDinvestor[msg.sender].investBefore=true */\n      0x0100\n      exp\n      dup2\n      sload\n      dup2\n      0xff\n      mul\n      not\n      and\n      swap1\n      dup4\n      iszero\n      iszero\n      mul\n      or\n      swap1\n      sstore\n      pop\n        /* \"contracts/stake_reward_MLM.sol\":6222:6226  true */\n      0x01\n        /* \"contracts/stake_reward_MLM.sol\":6215:6226  return true */\n      swap2\n      pop\n      pop\n        /* \"contracts/stake_reward_MLM.sol\":3926:6250  function Stake(uint _investedamount,address _referral) external returns(bool success){... */\n      swap3\n      swap2\n      pop\n      pop\n      jump\t// out\n        /* \"contracts/stake_reward_MLM.sol\":13085:13196  function set_min_Stake_amount(uint _amount) public ... */\n    tag_56:\n        /* \"contracts/stake_reward_MLM.sol\":13178:13185  _amount */\n      dup1\n        /* \"contracts/stake_reward_MLM.sol\":13159:13175  min_Stake_amount */\n      0x05\n        /* \"contracts/stake_reward_MLM.sol\":13159:13185  min_Stake_amount = _amount */\n      dup2\n      swap1\n      sstore\n      pop\n        /* \"contracts/stake_reward_MLM.sol\":13085:13196  function set_min_Stake_amount(uint _amount) public ... */\n      pop\n      jump\t// out\n        /* \"contracts/stake_reward_MLM.sol\":11285:12268  function getAllDUSDinvestments() public view returns (allInvestments[] memory) { //this function will return the all investments of the investor and withware date... */\n    tag_58:\n        /* \"contracts/stake_reward_MLM.sol\":11339:11362  allInvestments[] memory */\n      0x60\n        /* \"contracts/stake_reward_MLM.sol\":11460:11468  uint num */\n      0x00\n        /* \"contracts/stake_reward_MLM.sol\":11471:11483  DUSDinvestor */\n      0x0c\n        /* \"contracts/stake_reward_MLM.sol\":11471:11495  DUSDinvestor[msg.sender] */\n      0x00\n        /* \"contracts/stake_reward_MLM.sol\":11484:11494  msg.sender */\n      caller\n        /* \"contracts/stake_reward_MLM.sol\":11471:11495  DUSDinvestor[msg.sender] */\n      0xffffffffffffffffffffffffffffffffffffffff\n      and\n      0xffffffffffffffffffffffffffffffffffffffff\n      and\n      dup2\n      mstore\n      0x20\n      add\n      swap1\n      dup2\n      mstore\n      0x20\n      add\n      0x00\n      keccak256\n        /* \"contracts/stake_reward_MLM.sol\":11471:11510  DUSDinvestor[msg.sender].noOfInvestment */\n      0x05\n      add\n      sload\n        /* \"contracts/stake_reward_MLM.sol\":11460:11510  uint num = DUSDinvestor[msg.sender].noOfInvestment */\n      swap1\n      pop\n        /* \"contracts/stake_reward_MLM.sol\":11524:11533  uint temp */\n      0x00\n        /* \"contracts/stake_reward_MLM.sol\":11547:11564  uint currentIndex */\n      dup1\n        /* \"contracts/stake_reward_MLM.sol\":11595:11601  uint i */\n      0x00\n        /* \"contracts/stake_reward_MLM.sol\":11591:11767  for(uint i=0;i<num;i++)... */\n    tag_171:\n        /* \"contracts/stake_reward_MLM.sol\":11606:11609  num */\n      dup4\n        /* \"contracts/stake_reward_MLM.sol\":11604:11605  i */\n      dup2\n        /* \"contracts/stake_reward_MLM.sol\":11604:11609  i<num */\n      lt\n        /* \"contracts/stake_reward_MLM.sol\":11591:11767  for(uint i=0;i<num;i++)... */\n      iszero\n      tag_172\n      jumpi\n        /* \"contracts/stake_reward_MLM.sol\":11704:11705  0 */\n      0x00\n        /* \"contracts/stake_reward_MLM.sol\":11648:11660  DUSDinvestor */\n      0x0c\n        /* \"contracts/stake_reward_MLM.sol\":11648:11672  DUSDinvestor[msg.sender] */\n      0x00\n        /* \"contracts/stake_reward_MLM.sol\":11661:11671  msg.sender */\n      caller\n        /* \"contracts/stake_reward_MLM.sol\":11648:11672  DUSDinvestor[msg.sender] */\n      0xffffffffffffffffffffffffffffffffffffffff\n      and\n      0xffffffffffffffffffffffffffffffffffffffff\n      and\n      dup2\n      mstore\n      0x20\n      add\n      swap1\n      dup2\n      mstore\n      0x20\n      add\n      0x00\n      keccak256\n        /* \"contracts/stake_reward_MLM.sol\":11648:11683  DUSDinvestor[msg.sender].investment */\n      0x00\n      add\n        /* \"contracts/stake_reward_MLM.sol\":11648:11686  DUSDinvestor[msg.sender].investment[i] */\n      0x00\n        /* \"contracts/stake_reward_MLM.sol\":11684:11685  i */\n      dup4\n        /* \"contracts/stake_reward_MLM.sol\":11648:11686  DUSDinvestor[msg.sender].investment[i] */\n      dup2\n      mstore\n      0x20\n      add\n      swap1\n      dup2\n      mstore\n      0x20\n      add\n      0x00\n      keccak256\n        /* \"contracts/stake_reward_MLM.sol\":11648:11701  DUSDinvestor[msg.sender].investment[i].investedAmount */\n      0x00\n      add\n      sload\n        /* \"contracts/stake_reward_MLM.sol\":11648:11705  DUSDinvestor[msg.sender].investment[i].investedAmount > 0 */\n      gt\n        /* \"contracts/stake_reward_MLM.sol\":11644:11752  if( DUSDinvestor[msg.sender].investment[i].investedAmount > 0 ){... */\n      iszero\n      tag_174\n      jumpi\n        /* \"contracts/stake_reward_MLM.sol\":11728:11734  temp++ */\n      dup3\n      dup1\n      tag_175\n      swap1\n      tag_144\n      jump\t// in\n    tag_175:\n      swap4\n      pop\n      pop\n        /* \"contracts/stake_reward_MLM.sol\":11644:11752  if( DUSDinvestor[msg.sender].investment[i].investedAmount > 0 ){... */\n    tag_174:\n        /* \"contracts/stake_reward_MLM.sol\":11610:11613  i++ */\n      dup1\n      dup1\n      tag_176\n      swap1\n      tag_144\n      jump\t// in\n    tag_176:\n      swap2\n      pop\n      pop\n        /* \"contracts/stake_reward_MLM.sol\":11591:11767  for(uint i=0;i<num;i++)... */\n      jump(tag_171)\n    tag_172:\n      pop\n        /* \"contracts/stake_reward_MLM.sol\":11790:11822  allInvestments[] memory Invested */\n      0x00\n        /* \"contracts/stake_reward_MLM.sol\":11847:11851  temp */\n      dup3\n        /* \"contracts/stake_reward_MLM.sol\":11826:11852  new allInvestments[](temp) */\n      0xffffffffffffffff\n      dup2\n      gt\n      iszero\n      tag_177\n      jumpi\n      tag_178\n      tag_179\n      jump\t// in\n    tag_178:\n    tag_177:\n      mload(0x40)\n      swap1\n      dup1\n      dup3\n      mstore\n      dup1\n      0x20\n      mul\n      0x20\n      add\n      dup3\n      add\n      0x40\n      mstore\n      dup1\n      iszero\n      tag_180\n      jumpi\n      dup2\n      0x20\n      add\n    tag_181:\n      tag_182\n      tag_183\n      jump\t// in\n    tag_182:\n      dup2\n      mstore\n      0x20\n      add\n      swap1\n      0x01\n      swap1\n      sub\n      swap1\n      dup2\n      tag_181\n      jumpi\n      swap1\n      pop\n    tag_180:\n      pop\n        /* \"contracts/stake_reward_MLM.sol\":11790:11852  allInvestments[] memory Invested =  new allInvestments[](temp) */\n      swap1\n      pop\n        /* \"contracts/stake_reward_MLM.sol\":11872:11878  uint i */\n      0x00\n        /* \"contracts/stake_reward_MLM.sol\":11868:12228  for(uint i=0;i<num;i++)... */\n    tag_184:\n        /* \"contracts/stake_reward_MLM.sol\":11883:11886  num */\n      dup5\n        /* \"contracts/stake_reward_MLM.sol\":11881:11882  i */\n      dup2\n        /* \"contracts/stake_reward_MLM.sol\":11881:11886  i<num */\n      lt\n        /* \"contracts/stake_reward_MLM.sol\":11868:12228  for(uint i=0;i<num;i++)... */\n      iszero\n      tag_185\n      jumpi\n        /* \"contracts/stake_reward_MLM.sol\":11981:11982  0 */\n      0x00\n        /* \"contracts/stake_reward_MLM.sol\":11925:11937  DUSDinvestor */\n      0x0c\n        /* \"contracts/stake_reward_MLM.sol\":11925:11949  DUSDinvestor[msg.sender] */\n      0x00\n        /* \"contracts/stake_reward_MLM.sol\":11938:11948  msg.sender */\n      caller\n        /* \"contracts/stake_reward_MLM.sol\":11925:11949  DUSDinvestor[msg.sender] */\n      0xffffffffffffffffffffffffffffffffffffffff\n      and\n      0xffffffffffffffffffffffffffffffffffffffff\n      and\n      dup2\n      mstore\n      0x20\n      add\n      swap1\n      dup2\n      mstore\n      0x20\n      add\n      0x00\n      keccak256\n        /* \"contracts/stake_reward_MLM.sol\":11925:11960  DUSDinvestor[msg.sender].investment */\n      0x00\n      add\n        /* \"contracts/stake_reward_MLM.sol\":11925:11963  DUSDinvestor[msg.sender].investment[i] */\n      0x00\n        /* \"contracts/stake_reward_MLM.sol\":11961:11962  i */\n      dup4\n        /* \"contracts/stake_reward_MLM.sol\":11925:11963  DUSDinvestor[msg.sender].investment[i] */\n      dup2\n      mstore\n      0x20\n      add\n      swap1\n      dup2\n      mstore\n      0x20\n      add\n      0x00\n      keccak256\n        /* \"contracts/stake_reward_MLM.sol\":11925:11978  DUSDinvestor[msg.sender].investment[i].investedAmount */\n      0x00\n      add\n      sload\n        /* \"contracts/stake_reward_MLM.sol\":11925:11982  DUSDinvestor[msg.sender].investment[i].investedAmount > 0 */\n      gt\n        /* \"contracts/stake_reward_MLM.sol\":11921:12213  if( DUSDinvestor[msg.sender].investment[i].investedAmount > 0 ){... */\n      iszero\n      tag_187\n      jumpi\n        /* \"contracts/stake_reward_MLM.sol\":12122:12134  DUSDinvestor */\n      0x0c\n        /* \"contracts/stake_reward_MLM.sol\":12122:12146  DUSDinvestor[msg.sender] */\n      0x00\n        /* \"contracts/stake_reward_MLM.sol\":12135:12145  msg.sender */\n      caller\n        /* \"contracts/stake_reward_MLM.sol\":12122:12146  DUSDinvestor[msg.sender] */\n      0xffffffffffffffffffffffffffffffffffffffff\n      and\n      0xffffffffffffffffffffffffffffffffffffffff\n      and\n      dup2\n      mstore\n      0x20\n      add\n      swap1\n      dup2\n      mstore\n      0x20\n      add\n      0x00\n      keccak256\n        /* \"contracts/stake_reward_MLM.sol\":12122:12157  DUSDinvestor[msg.sender].investment */\n      0x00\n      add\n        /* \"contracts/stake_reward_MLM.sol\":12122:12160  DUSDinvestor[msg.sender].investment[i] */\n      0x00\n        /* \"contracts/stake_reward_MLM.sol\":12158:12159  i */\n      dup3\n        /* \"contracts/stake_reward_MLM.sol\":12122:12160  DUSDinvestor[msg.sender].investment[i] */\n      dup2\n      mstore\n      0x20\n      add\n      swap1\n      dup2\n      mstore\n      0x20\n      add\n      0x00\n      keccak256\n        /* \"contracts/stake_reward_MLM.sol\":12099:12160  Invested[currentIndex]=DUSDinvestor[msg.sender].investment[i] */\n      mload(0x40)\n      dup1\n      0xc0\n      add\n      0x40\n      mstore\n      swap1\n      dup2\n      0x00\n      dup3\n      add\n      sload\n      dup2\n      mstore\n      0x20\n      add\n      0x01\n      dup3\n      add\n      sload\n      dup2\n      mstore\n      0x20\n      add\n      0x02\n      dup3\n      add\n      sload\n      dup2\n      mstore\n      0x20\n      add\n      0x03\n      dup3\n      add\n      sload\n      dup2\n      mstore\n      0x20\n      add\n      0x04\n      dup3\n      add\n      sload\n      dup2\n      mstore\n      0x20\n      add\n      0x05\n      dup3\n      add\n      0x00\n      swap1\n      sload\n      swap1\n      0x0100\n      exp\n      swap1\n      div\n      0xff\n      and\n      iszero\n      iszero\n      iszero\n      iszero\n      dup2\n      mstore\n      pop\n      pop\n        /* \"contracts/stake_reward_MLM.sol\":12099:12107  Invested */\n      dup3\n        /* \"contracts/stake_reward_MLM.sol\":12108:12120  currentIndex */\n      dup5\n        /* \"contracts/stake_reward_MLM.sol\":12099:12121  Invested[currentIndex] */\n      dup2\n      mload\n      dup2\n      lt\n      tag_188\n      jumpi\n      tag_189\n      tag_190\n      jump\t// in\n    tag_189:\n    tag_188:\n      0x20\n      mul\n      0x20\n      add\n      add\n        /* \"contracts/stake_reward_MLM.sol\":12099:12160  Invested[currentIndex]=DUSDinvestor[msg.sender].investment[i] */\n      dup2\n      swap1\n      mstore\n      pop\n        /* \"contracts/stake_reward_MLM.sol\":12181:12195  currentIndex++ */\n      dup3\n      dup1\n      tag_191\n      swap1\n      tag_144\n      jump\t// in\n    tag_191:\n      swap4\n      pop\n      pop\n        /* \"contracts/stake_reward_MLM.sol\":11921:12213  if( DUSDinvestor[msg.sender].investment[i].investedAmount > 0 ){... */\n    tag_187:\n        /* \"contracts/stake_reward_MLM.sol\":11887:11890  i++ */\n      dup1\n      dup1\n      tag_192\n      swap1\n      tag_144\n      jump\t// in\n    tag_192:\n      swap2\n      pop\n      pop\n        /* \"contracts/stake_reward_MLM.sol\":11868:12228  for(uint i=0;i<num;i++)... */\n      jump(tag_184)\n    tag_185:\n      pop\n        /* \"contracts/stake_reward_MLM.sol\":12248:12256  Invested */\n      dup1\n        /* \"contracts/stake_reward_MLM.sol\":12241:12256  return Invested */\n      swap5\n      pop\n      pop\n      pop\n      pop\n      pop\n        /* \"contracts/stake_reward_MLM.sol\":11285:12268  function getAllDUSDinvestments() public view returns (allInvestments[] memory) { //this function will return the all investments of the investor and withware date... */\n      swap1\n      jump\t// out\n        /* \"contracts/stake_reward_MLM.sol\":6260:7450  function getReward() view public returns(uint){ //this function is get the total reward balance of the investor... */\n    tag_62:\n        /* \"contracts/stake_reward_MLM.sol\":6301:6305  uint */\n      0x00\n        /* \"contracts/stake_reward_MLM.sol\":6384:6400  uint totalReward */\n      dup1\n        /* \"contracts/stake_reward_MLM.sol\":6414:6426  uint depTime */\n      0x00\n        /* \"contracts/stake_reward_MLM.sol\":6440:6448  uint rew */\n      dup1\n        /* \"contracts/stake_reward_MLM.sol\":6462:6471  uint temp */\n      0x00\n        /* \"contracts/stake_reward_MLM.sol\":6474:6486  DUSDinvestor */\n      0x0c\n        /* \"contracts/stake_reward_MLM.sol\":6474:6498  DUSDinvestor[msg.sender] */\n      0x00\n        /* \"contracts/stake_reward_MLM.sol\":6487:6497  msg.sender */\n      caller\n        /* \"contracts/stake_reward_MLM.sol\":6474:6498  DUSDinvestor[msg.sender] */\n      0xffffffffffffffffffffffffffffffffffffffff\n      and\n      0xffffffffffffffffffffffffffffffffffffffff\n      and\n      dup2\n      mstore\n      0x20\n      add\n      swap1\n      dup2\n      mstore\n      0x20\n      add\n      0x00\n      keccak256\n        /* \"contracts/stake_reward_MLM.sol\":6474:6513  DUSDinvestor[msg.sender].noOfInvestment */\n      0x05\n      add\n      sload\n        /* \"contracts/stake_reward_MLM.sol\":6462:6513  uint temp = DUSDinvestor[msg.sender].noOfInvestment */\n      swap1\n      pop\n        /* \"contracts/stake_reward_MLM.sol\":6532:6538  uint i */\n      0x00\n        /* \"contracts/stake_reward_MLM.sol\":6527:7333  for( uint i = 0;i < temp;i++)... */\n    tag_194:\n        /* \"contracts/stake_reward_MLM.sol\":6547:6551  temp */\n      dup2\n        /* \"contracts/stake_reward_MLM.sol\":6543:6544  i */\n      dup2\n        /* \"contracts/stake_reward_MLM.sol\":6543:6551  i < temp */\n      lt\n        /* \"contracts/stake_reward_MLM.sol\":6527:7333  for( uint i = 0;i < temp;i++)... */\n      iszero\n      tag_195\n      jumpi\n        /* \"contracts/stake_reward_MLM.sol\":6594:6606  DUSDinvestor */\n      0x0c\n        /* \"contracts/stake_reward_MLM.sol\":6594:6618  DUSDinvestor[msg.sender] */\n      0x00\n        /* \"contracts/stake_reward_MLM.sol\":6607:6617  msg.sender */\n      caller\n        /* \"contracts/stake_reward_MLM.sol\":6594:6618  DUSDinvestor[msg.sender] */\n      0xffffffffffffffffffffffffffffffffffffffff\n      and\n      0xffffffffffffffffffffffffffffffffffffffff\n      and\n      dup2\n      mstore\n      0x20\n      add\n      swap1\n      dup2\n      mstore\n      0x20\n      add\n      0x00\n      keccak256\n        /* \"contracts/stake_reward_MLM.sol\":6594:6629  DUSDinvestor[msg.sender].investment */\n      0x00\n      add\n        /* \"contracts/stake_reward_MLM.sol\":6594:6632  DUSDinvestor[msg.sender].investment[i] */\n      0x00\n        /* \"contracts/stake_reward_MLM.sol\":6630:6631  i */\n      dup3\n        /* \"contracts/stake_reward_MLM.sol\":6594:6632  DUSDinvestor[msg.sender].investment[i] */\n      dup2\n      mstore\n      0x20\n      add\n      swap1\n      dup2\n      mstore\n      0x20\n      add\n      0x00\n      keccak256\n        /* \"contracts/stake_reward_MLM.sol\":6594:6640  DUSDinvestor[msg.sender].investment[i].unstake */\n      0x05\n      add\n      0x00\n      swap1\n      sload\n      swap1\n      0x0100\n      exp\n      swap1\n      div\n      0xff\n      and\n        /* \"contracts/stake_reward_MLM.sol\":6590:6950  if(!DUSDinvestor[msg.sender].investment[i].unstake)... */\n      tag_197\n      jumpi\n        /* \"contracts/stake_reward_MLM.sol\":6707:6719  DUSDinvestor */\n      0x0c\n        /* \"contracts/stake_reward_MLM.sol\":6707:6731  DUSDinvestor[msg.sender] */\n      0x00\n        /* \"contracts/stake_reward_MLM.sol\":6720:6730  msg.sender */\n      caller\n        /* \"contracts/stake_reward_MLM.sol\":6707:6731  DUSDinvestor[msg.sender] */\n      0xffffffffffffffffffffffffffffffffffffffff\n      and\n      0xffffffffffffffffffffffffffffffffffffffff\n      and\n      dup2\n      mstore\n      0x20\n      add\n      swap1\n      dup2\n      mstore\n      0x20\n      add\n      0x00\n      keccak256\n        /* \"contracts/stake_reward_MLM.sol\":6707:6742  DUSDinvestor[msg.sender].investment */\n      0x00\n      add\n        /* \"contracts/stake_reward_MLM.sol\":6707:6745  DUSDinvestor[msg.sender].investment[i] */\n      0x00\n        /* \"contracts/stake_reward_MLM.sol\":6743:6744  i */\n      dup3\n        /* \"contracts/stake_reward_MLM.sol\":6707:6745  DUSDinvestor[msg.sender].investment[i] */\n      dup2\n      mstore\n      0x20\n      add\n      swap1\n      dup2\n      mstore\n      0x20\n      add\n      0x00\n      keccak256\n        /* \"contracts/stake_reward_MLM.sol\":6707:6757  DUSDinvestor[msg.sender].investment[i].DepositTime */\n      0x02\n      add\n      sload\n        /* \"contracts/stake_reward_MLM.sol\":6689:6704  block.timestamp */\n      timestamp\n        /* \"contracts/stake_reward_MLM.sol\":6689:6757  block.timestamp - DUSDinvestor[msg.sender].investment[i].DepositTime */\n      tag_198\n      swap2\n      swap1\n      tag_199\n      jump\t// in\n    tag_198:\n        /* \"contracts/stake_reward_MLM.sol\":6680:6757  depTime =block.timestamp - DUSDinvestor[msg.sender].investment[i].DepositTime */\n      swap4\n      pop\n        /* \"contracts/stake_reward_MLM.sol\":6590:6950  if(!DUSDinvestor[msg.sender].investment[i].unstake)... */\n      jump(tag_200)\n    tag_197:\n        /* \"contracts/stake_reward_MLM.sol\":6881:6893  DUSDinvestor */\n      0x0c\n        /* \"contracts/stake_reward_MLM.sol\":6881:6905  DUSDinvestor[msg.sender] */\n      0x00\n        /* \"contracts/stake_reward_MLM.sol\":6894:6904  msg.sender */\n      caller\n        /* \"contracts/stake_reward_MLM.sol\":6881:6905  DUSDinvestor[msg.sender] */\n      0xffffffffffffffffffffffffffffffffffffffff\n      and\n      0xffffffffffffffffffffffffffffffffffffffff\n      and\n      dup2\n      mstore\n      0x20\n      add\n      swap1\n      dup2\n      mstore\n      0x20\n      add\n      0x00\n      keccak256\n        /* \"contracts/stake_reward_MLM.sol\":6881:6916  DUSDinvestor[msg.sender].investment */\n      0x00\n      add\n        /* \"contracts/stake_reward_MLM.sol\":6881:6919  DUSDinvestor[msg.sender].investment[i] */\n      0x00\n        /* \"contracts/stake_reward_MLM.sol\":6917:6918  i */\n      dup3\n        /* \"contracts/stake_reward_MLM.sol\":6881:6919  DUSDinvestor[msg.sender].investment[i] */\n      dup2\n      mstore\n      0x20\n      add\n      swap1\n      dup2\n      mstore\n      0x20\n      add\n      0x00\n      keccak256\n        /* \"contracts/stake_reward_MLM.sol\":6881:6931  DUSDinvestor[msg.sender].investment[i].DepositTime */\n      0x02\n      add\n      sload\n        /* \"contracts/stake_reward_MLM.sol\":6828:6840  DUSDinvestor */\n      0x0c\n        /* \"contracts/stake_reward_MLM.sol\":6828:6852  DUSDinvestor[msg.sender] */\n      0x00\n        /* \"contracts/stake_reward_MLM.sol\":6841:6851  msg.sender */\n      caller\n        /* \"contracts/stake_reward_MLM.sol\":6828:6852  DUSDinvestor[msg.sender] */\n      0xffffffffffffffffffffffffffffffffffffffff\n      and\n      0xffffffffffffffffffffffffffffffffffffffff\n      and\n      dup2\n      mstore\n      0x20\n      add\n      swap1\n      dup2\n      mstore\n      0x20\n      add\n      0x00\n      keccak256\n        /* \"contracts/stake_reward_MLM.sol\":6828:6863  DUSDinvestor[msg.sender].investment */\n      0x00\n      add\n        /* \"contracts/stake_reward_MLM.sol\":6828:6866  DUSDinvestor[msg.sender].investment[i] */\n      0x00\n        /* \"contracts/stake_reward_MLM.sol\":6864:6865  i */\n      dup4\n        /* \"contracts/stake_reward_MLM.sol\":6828:6866  DUSDinvestor[msg.sender].investment[i] */\n      dup2\n      mstore\n      0x20\n      add\n      swap1\n      dup2\n      mstore\n      0x20\n      add\n      0x00\n      keccak256\n        /* \"contracts/stake_reward_MLM.sol\":6828:6878  DUSDinvestor[msg.sender].investment[i].unstakeTime */\n      0x04\n      add\n      sload\n        /* \"contracts/stake_reward_MLM.sol\":6828:6931  DUSDinvestor[msg.sender].investment[i].unstakeTime - DUSDinvestor[msg.sender].investment[i].DepositTime */\n      tag_201\n      swap2\n      swap1\n      tag_199\n      jump\t// in\n    tag_201:\n        /* \"contracts/stake_reward_MLM.sol\":6819:6931  depTime =DUSDinvestor[msg.sender].investment[i].unstakeTime - DUSDinvestor[msg.sender].investment[i].DepositTime */\n      swap4\n      pop\n        /* \"contracts/stake_reward_MLM.sol\":6590:6950  if(!DUSDinvestor[msg.sender].investment[i].unstake)... */\n    tag_200:\n        /* \"contracts/stake_reward_MLM.sol\":6983:6985  60 */\n      0x3c\n        /* \"contracts/stake_reward_MLM.sol\":6975:6982  depTime */\n      dup5\n        /* \"contracts/stake_reward_MLM.sol\":6975:6985  depTime/60 */\n      tag_202\n      swap2\n      swap1\n      tag_203\n      jump\t// in\n    tag_202:\n        /* \"contracts/stake_reward_MLM.sol\":6967:6985  depTime=depTime/60 */\n      swap4\n      pop\n        /* \"contracts/stake_reward_MLM.sol\":7022:7023  0 */\n      0x00\n        /* \"contracts/stake_reward_MLM.sol\":7014:7021  depTime */\n      dup5\n        /* \"contracts/stake_reward_MLM.sol\":7014:7023  depTime>0 */\n      gt\n        /* \"contracts/stake_reward_MLM.sol\":7011:7319  if(depTime>0)... */\n      iszero\n      tag_204\n      jumpi\n        /* \"contracts/stake_reward_MLM.sol\":7244:7249  10000 */\n      0x2710\n        /* \"contracts/stake_reward_MLM.sol\":7240:7242  50 */\n      0x32\n        /* \"contracts/stake_reward_MLM.sol\":7185:7197  DUSDinvestor */\n      0x0c\n        /* \"contracts/stake_reward_MLM.sol\":7185:7209  DUSDinvestor[msg.sender] */\n      0x00\n        /* \"contracts/stake_reward_MLM.sol\":7198:7208  msg.sender */\n      caller\n        /* \"contracts/stake_reward_MLM.sol\":7185:7209  DUSDinvestor[msg.sender] */\n      0xffffffffffffffffffffffffffffffffffffffff\n      and\n      0xffffffffffffffffffffffffffffffffffffffff\n      and\n      dup2\n      mstore\n      0x20\n      add\n      swap1\n      dup2\n      mstore\n      0x20\n      add\n      0x00\n      keccak256\n        /* \"contracts/stake_reward_MLM.sol\":7185:7220  DUSDinvestor[msg.sender].investment */\n      0x00\n      add\n        /* \"contracts/stake_reward_MLM.sol\":7185:7223  DUSDinvestor[msg.sender].investment[i] */\n      0x00\n        /* \"contracts/stake_reward_MLM.sol\":7221:7222  i */\n      dup5\n        /* \"contracts/stake_reward_MLM.sol\":7185:7223  DUSDinvestor[msg.sender].investment[i] */\n      dup2\n      mstore\n      0x20\n      add\n      swap1\n      dup2\n      mstore\n      0x20\n      add\n      0x00\n      keccak256\n        /* \"contracts/stake_reward_MLM.sol\":7185:7238  DUSDinvestor[msg.sender].investment[i].investedAmount */\n      0x00\n      add\n      sload\n        /* \"contracts/stake_reward_MLM.sol\":7184:7242  (DUSDinvestor[msg.sender].investment[i].investedAmount)*50 */\n      tag_205\n      swap2\n      swap1\n      tag_154\n      jump\t// in\n    tag_205:\n        /* \"contracts/stake_reward_MLM.sol\":7183:7249  ((DUSDinvestor[msg.sender].investment[i].investedAmount)*50)/10000 */\n      tag_206\n      swap2\n      swap1\n      tag_203\n      jump\t// in\n    tag_206:\n        /* \"contracts/stake_reward_MLM.sol\":7176:7249  rew  = ((DUSDinvestor[msg.sender].investment[i].investedAmount)*50)/10000 */\n      swap3\n      pop\n        /* \"contracts/stake_reward_MLM.sol\":7297:7300  rew */\n      dup3\n        /* \"contracts/stake_reward_MLM.sol\":7287:7294  depTime */\n      dup5\n        /* \"contracts/stake_reward_MLM.sol\":7287:7300  depTime * rew */\n      tag_207\n      swap2\n      swap1\n      tag_154\n      jump\t// in\n    tag_207:\n        /* \"contracts/stake_reward_MLM.sol\":7272:7300  totalReward += depTime * rew */\n      dup6\n      tag_208\n      swap2\n      swap1\n      tag_148\n      jump\t// in\n    tag_208:\n      swap5\n      pop\n        /* \"contracts/stake_reward_MLM.sol\":7011:7319  if(depTime>0)... */\n    tag_204:\n        /* \"contracts/stake_reward_MLM.sol\":6552:6555  i++ */\n      dup1\n      dup1\n      tag_209\n      swap1\n      tag_144\n      jump\t// in\n    tag_209:\n      swap2\n      pop\n      pop\n        /* \"contracts/stake_reward_MLM.sol\":6527:7333  for( uint i = 0;i < temp;i++)... */\n      jump(tag_194)\n    tag_195:\n      pop\n        /* \"contracts/stake_reward_MLM.sol\":7361:7373  DUSDinvestor */\n      0x0c\n        /* \"contracts/stake_reward_MLM.sol\":7361:7385  DUSDinvestor[msg.sender] */\n      0x00\n        /* \"contracts/stake_reward_MLM.sol\":7374:7384  msg.sender */\n      caller\n        /* \"contracts/stake_reward_MLM.sol\":7361:7385  DUSDinvestor[msg.sender] */\n      0xffffffffffffffffffffffffffffffffffffffff\n      and\n      0xffffffffffffffffffffffffffffffffffffffff\n      and\n      dup2\n      mstore\n      0x20\n      add\n      swap1\n      dup2\n      mstore\n      0x20\n      add\n      0x00\n      keccak256\n        /* \"contracts/stake_reward_MLM.sol\":7361:7406  DUSDinvestor[msg.sender].totalWithdraw_reward */\n      0x07\n      add\n      sload\n        /* \"contracts/stake_reward_MLM.sol\":7346:7406  totalReward -= DUSDinvestor[msg.sender].totalWithdraw_reward */\n      dup5\n      tag_210\n      swap2\n      swap1\n      tag_199\n      jump\t// in\n    tag_210:\n      swap4\n      pop\n        /* \"contracts/stake_reward_MLM.sol\":7428:7439  totalReward */\n      dup4\n        /* \"contracts/stake_reward_MLM.sol\":7421:7439  return totalReward */\n      swap5\n      pop\n      pop\n      pop\n      pop\n      pop\n        /* \"contracts/stake_reward_MLM.sol\":6260:7450  function getReward() view public returns(uint){ //this function is get the total reward balance of the investor... */\n      swap1\n      jump\t// out\n        /* \"contracts/stake_reward_MLM.sol\":14945:15701  function Admin_data() view public returns(Admin_Data[] memory){... */\n    tag_65:\n        /* \"contracts/stake_reward_MLM.sol\":14987:15006  Admin_Data[] memory */\n      0x60\n        /* \"contracts/stake_reward_MLM.sol\":15022:15046  Admin_Data[] memory Temp */\n      0x00\n        /* \"contracts/stake_reward_MLM.sol\":15064:15082  totalDUSDInvestors */\n      sload(0x03)\n        /* \"contracts/stake_reward_MLM.sol\":15047:15083  new Admin_Data[](totalDUSDInvestors) */\n      0xffffffffffffffff\n      dup2\n      gt\n      iszero\n      tag_212\n      jumpi\n      tag_213\n      tag_179\n      jump\t// in\n    tag_213:\n    tag_212:\n      mload(0x40)\n      swap1\n      dup1\n      dup3\n      mstore\n      dup1\n      0x20\n      mul\n      0x20\n      add\n      dup3\n      add\n      0x40\n      mstore\n      dup1\n      iszero\n      tag_214\n      jumpi\n      dup2\n      0x20\n      add\n    tag_215:\n      tag_216\n      tag_217\n      jump\t// in\n    tag_216:\n      dup2\n      mstore\n      0x20\n      add\n      swap1\n      0x01\n      swap1\n      sub\n      swap1\n      dup2\n      tag_215\n      jumpi\n      swap1\n      pop\n    tag_214:\n      pop\n        /* \"contracts/stake_reward_MLM.sol\":15022:15083  Admin_Data[] memory Temp=new Admin_Data[](totalDUSDInvestors) */\n      swap1\n      pop\n        /* \"contracts/stake_reward_MLM.sol\":15114:15120  uint i */\n      0x00\n        /* \"contracts/stake_reward_MLM.sol\":15110:15652  for(uint i=0;i<totalDUSDInvestors;i++)... */\n    tag_218:\n        /* \"contracts/stake_reward_MLM.sol\":15125:15143  totalDUSDInvestors */\n      sload(0x03)\n        /* \"contracts/stake_reward_MLM.sol\":15123:15124  i */\n      dup2\n        /* \"contracts/stake_reward_MLM.sol\":15123:15143  i<totalDUSDInvestors */\n      lt\n        /* \"contracts/stake_reward_MLM.sol\":15110:15652  for(uint i=0;i<totalDUSDInvestors;i++)... */\n      iszero\n      tag_219\n      jumpi\n        /* \"contracts/stake_reward_MLM.sol\":15197:15210  All_investors */\n      0x0b\n        /* \"contracts/stake_reward_MLM.sol\":15197:15213  All_investors[i] */\n      0x00\n        /* \"contracts/stake_reward_MLM.sol\":15211:15212  i */\n      dup3\n        /* \"contracts/stake_reward_MLM.sol\":15197:15213  All_investors[i] */\n      dup2\n      mstore\n      0x20\n      add\n      swap1\n      dup2\n      mstore\n      0x20\n      add\n      0x00\n      keccak256\n      0x00\n      swap1\n      sload\n      swap1\n      0x0100\n      exp\n      swap1\n      div\n      0xffffffffffffffffffffffffffffffffffffffff\n      and\n        /* \"contracts/stake_reward_MLM.sol\":15178:15182  Temp */\n      dup3\n        /* \"contracts/stake_reward_MLM.sol\":15183:15184  i */\n      dup3\n        /* \"contracts/stake_reward_MLM.sol\":15178:15185  Temp[i] */\n      dup2\n      mload\n      dup2\n      lt\n      tag_221\n      jumpi\n      tag_222\n      tag_190\n      jump\t// in\n    tag_222:\n    tag_221:\n      0x20\n      mul\n      0x20\n      add\n      add\n      mload\n        /* \"contracts/stake_reward_MLM.sol\":15178:15194  Temp[i].investor */\n      0x00\n      add\n        /* \"contracts/stake_reward_MLM.sol\":15178:15213  Temp[i].investor = All_investors[i] */\n      swap1\n      0xffffffffffffffffffffffffffffffffffffffff\n      and\n      swap1\n      dup2\n      0xffffffffffffffffffffffffffffffffffffffff\n      and\n      dup2\n      mstore\n      pop\n      pop\n        /* \"contracts/stake_reward_MLM.sol\":15256:15268  DUSDinvestor */\n      0x0c\n        /* \"contracts/stake_reward_MLM.sol\":15256:15286  DUSDinvestor[All_investors[i]] */\n      0x00\n        /* \"contracts/stake_reward_MLM.sol\":15269:15282  All_investors */\n      0x0b\n        /* \"contracts/stake_reward_MLM.sol\":15269:15285  All_investors[i] */\n      0x00\n        /* \"contracts/stake_reward_MLM.sol\":15283:15284  i */\n      dup5\n        /* \"contracts/stake_reward_MLM.sol\":15269:15285  All_investors[i] */\n      dup2\n      mstore\n      0x20\n      add\n      swap1\n      dup2\n      mstore\n      0x20\n      add\n      0x00\n      keccak256\n      0x00\n      swap1\n      sload\n      swap1\n      0x0100\n      exp\n      swap1\n      div\n      0xffffffffffffffffffffffffffffffffffffffff\n      and\n        /* \"contracts/stake_reward_MLM.sol\":15256:15286  DUSDinvestor[All_investors[i]] */\n      0xffffffffffffffffffffffffffffffffffffffff\n      and\n      0xffffffffffffffffffffffffffffffffffffffff\n      and\n      dup2\n      mstore\n      0x20\n      add\n      swap1\n      dup2\n      mstore\n      0x20\n      add\n      0x00\n      keccak256\n        /* \"contracts/stake_reward_MLM.sol\":15256:15302  DUSDinvestor[All_investors[i]].totalInvestment */\n      0x06\n      add\n      sload\n        /* \"contracts/stake_reward_MLM.sol\":15230:15234  Temp */\n      dup3\n        /* \"contracts/stake_reward_MLM.sol\":15235:15236  i */\n      dup3\n        /* \"contracts/stake_reward_MLM.sol\":15230:15237  Temp[i] */\n      dup2\n      mload\n      dup2\n      lt\n      tag_223\n      jumpi\n      tag_224\n      tag_190\n      jump\t// in\n    tag_224:\n    tag_223:\n      0x20\n      mul\n      0x20\n      add\n      add\n      mload\n        /* \"contracts/stake_reward_MLM.sol\":15230:15253  Temp[i].totalInvestment */\n      0x20\n      add\n        /* \"contracts/stake_reward_MLM.sol\":15230:15302  Temp[i].totalInvestment = DUSDinvestor[All_investors[i]].totalInvestment */\n      dup2\n      dup2\n      mstore\n      pop\n      pop\n        /* \"contracts/stake_reward_MLM.sol\":15334:15371  get_investor_Reward(All_investors[i]) */\n      tag_225\n        /* \"contracts/stake_reward_MLM.sol\":15354:15367  All_investors */\n      0x0b\n        /* \"contracts/stake_reward_MLM.sol\":15354:15370  All_investors[i] */\n      0x00\n        /* \"contracts/stake_reward_MLM.sol\":15368:15369  i */\n      dup4\n        /* \"contracts/stake_reward_MLM.sol\":15354:15370  All_investors[i] */\n      dup2\n      mstore\n      0x20\n      add\n      swap1\n      dup2\n      mstore\n      0x20\n      add\n      0x00\n      keccak256\n      0x00\n      swap1\n      sload\n      swap1\n      0x0100\n      exp\n      swap1\n      div\n      0xffffffffffffffffffffffffffffffffffffffff\n      and\n        /* \"contracts/stake_reward_MLM.sol\":15334:15353  get_investor_Reward */\n      tag_226\n        /* \"contracts/stake_reward_MLM.sol\":15334:15371  get_investor_Reward(All_investors[i]) */\n      jump\t// in\n    tag_225:\n        /* \"contracts/stake_reward_MLM.sol\":15319:15323  Temp */\n      dup3\n        /* \"contracts/stake_reward_MLM.sol\":15324:15325  i */\n      dup3\n        /* \"contracts/stake_reward_MLM.sol\":15319:15326  Temp[i] */\n      dup2\n      mload\n      dup2\n      lt\n      tag_227\n      jumpi\n      tag_228\n      tag_190\n      jump\t// in\n    tag_228:\n    tag_227:\n      0x20\n      mul\n      0x20\n      add\n      add\n      mload\n        /* \"contracts/stake_reward_MLM.sol\":15319:15333  Temp[i].reward */\n      0x40\n      add\n        /* \"contracts/stake_reward_MLM.sol\":15319:15371  Temp[i].reward=get_investor_Reward(All_investors[i]) */\n      dup2\n      dup2\n      mstore\n      pop\n      pop\n        /* \"contracts/stake_reward_MLM.sol\":15413:15425  DUSDinvestor */\n      0x0c\n        /* \"contracts/stake_reward_MLM.sol\":15413:15443  DUSDinvestor[All_investors[i]] */\n      0x00\n        /* \"contracts/stake_reward_MLM.sol\":15426:15439  All_investors */\n      0x0b\n        /* \"contracts/stake_reward_MLM.sol\":15426:15442  All_investors[i] */\n      0x00\n        /* \"contracts/stake_reward_MLM.sol\":15440:15441  i */\n      dup5\n        /* \"contracts/stake_reward_MLM.sol\":15426:15442  All_investors[i] */\n      dup2\n      mstore\n      0x20\n      add\n      swap1\n      dup2\n      mstore\n      0x20\n      add\n      0x00\n      keccak256\n      0x00\n      swap1\n      sload\n      swap1\n      0x0100\n      exp\n      swap1\n      div\n      0xffffffffffffffffffffffffffffffffffffffff\n      and\n        /* \"contracts/stake_reward_MLM.sol\":15413:15443  DUSDinvestor[All_investors[i]] */\n      0xffffffffffffffffffffffffffffffffffffffff\n      and\n      0xffffffffffffffffffffffffffffffffffffffff\n      and\n      dup2\n      mstore\n      0x20\n      add\n      swap1\n      dup2\n      mstore\n      0x20\n      add\n      0x00\n      keccak256\n        /* \"contracts/stake_reward_MLM.sol\":15413:15458  DUSDinvestor[All_investors[i]].noOfInvestment */\n      0x05\n      add\n      sload\n        /* \"contracts/stake_reward_MLM.sol\":15388:15392  Temp */\n      dup3\n        /* \"contracts/stake_reward_MLM.sol\":15393:15394  i */\n      dup3\n        /* \"contracts/stake_reward_MLM.sol\":15388:15395  Temp[i] */\n      dup2\n      mload\n      dup2\n      lt\n      tag_229\n      jumpi\n      tag_230\n      tag_190\n      jump\t// in\n    tag_230:\n    tag_229:\n      0x20\n      mul\n      0x20\n      add\n      add\n      mload\n        /* \"contracts/stake_reward_MLM.sol\":15388:15410  Temp[i].noOfInvestment */\n      0x60\n      add\n        /* \"contracts/stake_reward_MLM.sol\":15388:15458  Temp[i].noOfInvestment = DUSDinvestor[All_investors[i]].noOfInvestment */\n      dup2\n      dup2\n      mstore\n      pop\n      pop\n        /* \"contracts/stake_reward_MLM.sol\":15506:15518  DUSDinvestor */\n      0x0c\n        /* \"contracts/stake_reward_MLM.sol\":15506:15536  DUSDinvestor[All_investors[i]] */\n      0x00\n        /* \"contracts/stake_reward_MLM.sol\":15519:15532  All_investors */\n      0x0b\n        /* \"contracts/stake_reward_MLM.sol\":15519:15535  All_investors[i] */\n      0x00\n        /* \"contracts/stake_reward_MLM.sol\":15533:15534  i */\n      dup5\n        /* \"contracts/stake_reward_MLM.sol\":15519:15535  All_investors[i] */\n      dup2\n      mstore\n      0x20\n      add\n      swap1\n      dup2\n      mstore\n      0x20\n      add\n      0x00\n      keccak256\n      0x00\n      swap1\n      sload\n      swap1\n      0x0100\n      exp\n      swap1\n      div\n      0xffffffffffffffffffffffffffffffffffffffff\n      and\n        /* \"contracts/stake_reward_MLM.sol\":15506:15536  DUSDinvestor[All_investors[i]] */\n      0xffffffffffffffffffffffffffffffffffffffff\n      and\n      0xffffffffffffffffffffffffffffffffffffffff\n      and\n      dup2\n      mstore\n      0x20\n      add\n      swap1\n      dup2\n      mstore\n      0x20\n      add\n      0x00\n      keccak256\n        /* \"contracts/stake_reward_MLM.sol\":15506:15557  DUSDinvestor[All_investors[i]].totalWithdraw_reward */\n      0x07\n      add\n      sload\n        /* \"contracts/stake_reward_MLM.sol\":15475:15479  Temp */\n      dup3\n        /* \"contracts/stake_reward_MLM.sol\":15480:15481  i */\n      dup3\n        /* \"contracts/stake_reward_MLM.sol\":15475:15482  Temp[i] */\n      dup2\n      mload\n      dup2\n      lt\n      tag_231\n      jumpi\n      tag_232\n      tag_190\n      jump\t// in\n    tag_232:\n    tag_231:\n      0x20\n      mul\n      0x20\n      add\n      add\n      mload\n        /* \"contracts/stake_reward_MLM.sol\":15475:15503  Temp[i].totalWithdraw_reward */\n      0x80\n      add\n        /* \"contracts/stake_reward_MLM.sol\":15475:15557  Temp[i].totalWithdraw_reward = DUSDinvestor[All_investors[i]].totalWithdraw_reward */\n      dup2\n      dup2\n      mstore\n      pop\n      pop\n        /* \"contracts/stake_reward_MLM.sol\":15600:15620  DUSDTotalReferrals() */\n      tag_233\n        /* \"contracts/stake_reward_MLM.sol\":15600:15618  DUSDTotalReferrals */\n      tag_45\n        /* \"contracts/stake_reward_MLM.sol\":15600:15620  DUSDTotalReferrals() */\n      jump\t// in\n    tag_233:\n        /* \"contracts/stake_reward_MLM.sol\":15574:15578  Temp */\n      dup3\n        /* \"contracts/stake_reward_MLM.sol\":15579:15580  i */\n      dup3\n        /* \"contracts/stake_reward_MLM.sol\":15574:15581  Temp[i] */\n      dup2\n      mload\n      dup2\n      lt\n      tag_234\n      jumpi\n      tag_235\n      tag_190\n      jump\t// in\n    tag_235:\n    tag_234:\n      0x20\n      mul\n      0x20\n      add\n      add\n      mload\n        /* \"contracts/stake_reward_MLM.sol\":15574:15597  Temp[i].Total_referrals */\n      0xa0\n      add\n        /* \"contracts/stake_reward_MLM.sol\":15574:15620  Temp[i].Total_referrals = DUSDTotalReferrals() */\n      dup2\n      dup2\n      mstore\n      pop\n      pop\n        /* \"contracts/stake_reward_MLM.sol\":15144:15147  i++ */\n      dup1\n      dup1\n      tag_236\n      swap1\n      tag_144\n      jump\t// in\n    tag_236:\n      swap2\n      pop\n      pop\n        /* \"contracts/stake_reward_MLM.sol\":15110:15652  for(uint i=0;i<totalDUSDInvestors;i++)... */\n      jump(tag_218)\n    tag_219:\n      pop\n        /* \"contracts/stake_reward_MLM.sol\":15672:15676  Temp */\n      dup1\n        /* \"contracts/stake_reward_MLM.sol\":15665:15676  return Temp */\n      swap2\n      pop\n      pop\n        /* \"contracts/stake_reward_MLM.sol\":14945:15701  function Admin_data() view public returns(Admin_Data[] memory){... */\n      swap1\n      jump\t// out\n        /* \"contracts/stake_reward_MLM.sol\":13325:13607  function set_values(uint min_stake,uint max_stake,uint reward_per_day,uint _denomenator) public ... */\n    tag_71:\n        /* \"contracts/stake_reward_MLM.sol\":13463:13472  max_stake */\n      dup3\n        /* \"contracts/stake_reward_MLM.sol\":13444:13460  max_Stake_amount */\n      0x06\n        /* \"contracts/stake_reward_MLM.sol\":13444:13472  max_Stake_amount = max_stake */\n      dup2\n      swap1\n      sstore\n      pop\n        /* \"contracts/stake_reward_MLM.sol\":13505:13514  min_stake */\n      dup4\n        /* \"contracts/stake_reward_MLM.sol\":13486:13502  min_Stake_amount */\n      0x05\n        /* \"contracts/stake_reward_MLM.sol\":13486:13514  min_Stake_amount = min_stake */\n      dup2\n      swap1\n      sstore\n      pop\n        /* \"contracts/stake_reward_MLM.sol\":13542:13556  reward_per_day */\n      dup2\n        /* \"contracts/stake_reward_MLM.sol\":13528:13539  rewardToken */\n      0x04\n        /* \"contracts/stake_reward_MLM.sol\":13528:13556  rewardToken = reward_per_day */\n      dup2\n      swap1\n      sstore\n      pop\n        /* \"contracts/stake_reward_MLM.sol\":13584:13596  _denomenator */\n      dup1\n        /* \"contracts/stake_reward_MLM.sol\":13570:13581  denomenator */\n      0x07\n        /* \"contracts/stake_reward_MLM.sol\":13570:13596  denomenator = _denomenator */\n      dup2\n      swap1\n      sstore\n      pop\n        /* \"contracts/stake_reward_MLM.sol\":13325:13607  function set_values(uint min_stake,uint max_stake,uint reward_per_day,uint _denomenator) public ... */\n      pop\n      pop\n      pop\n      pop\n      jump\t// out\n        /* \"contracts/stake_reward_MLM.sol\":13205:13316  function set_max_Stake_amount(uint _amount) public ... */\n    tag_74:\n        /* \"contracts/stake_reward_MLM.sol\":13298:13305  _amount */\n      dup1\n        /* \"contracts/stake_reward_MLM.sol\":13279:13295  max_Stake_amount */\n      0x06\n        /* \"contracts/stake_reward_MLM.sol\":13279:13305  max_Stake_amount = _amount */\n      dup2\n      swap1\n      sstore\n      pop\n        /* \"contracts/stake_reward_MLM.sol\":13205:13316  function set_max_Stake_amount(uint _amount) public ... */\n      pop\n      jump\t// out\n        /* \"contracts/stake_reward_MLM.sol\":1057:1100  mapping(uint=>address) public All_investors */\n    tag_77:\n      mstore(0x20, 0x0b)\n      dup1\n      0x00\n      mstore\n      keccak256(0x00, 0x40)\n      0x00\n      swap2\n      pop\n      sload\n      swap1\n      0x0100\n      exp\n      swap1\n      div\n      0xffffffffffffffffffffffffffffffffffffffff\n      and\n      dup2\n      jump\t// out\n        /* \"contracts/stake_reward_MLM.sol\":946:983  uint public investmentPeriod=300 days */\n    tag_81:\n      sload(0x08)\n      dup2\n      jump\t// out\n        /* \"contracts/stake_reward_MLM.sol\":15711:15894  function total_withdraw_reaward() view public returns(uint){... */\n    tag_84:\n        /* \"contracts/stake_reward_MLM.sol\":15765:15769  uint */\n      0x00\n        /* \"contracts/stake_reward_MLM.sol\":15786:15795  uint Temp */\n      dup1\n        /* \"contracts/stake_reward_MLM.sol\":15798:15810  DUSDinvestor */\n      0x0c\n        /* \"contracts/stake_reward_MLM.sol\":15798:15822  DUSDinvestor[msg.sender] */\n      0x00\n        /* \"contracts/stake_reward_MLM.sol\":15811:15821  msg.sender */\n      caller\n        /* \"contracts/stake_reward_MLM.sol\":15798:15822  DUSDinvestor[msg.sender] */\n      0xffffffffffffffffffffffffffffffffffffffff\n      and\n      0xffffffffffffffffffffffffffffffffffffffff\n      and\n      dup2\n      mstore\n      0x20\n      add\n      swap1\n      dup2\n      mstore\n      0x20\n      add\n      0x00\n      keccak256\n        /* \"contracts/stake_reward_MLM.sol\":15798:15843  DUSDinvestor[msg.sender].totalWithdraw_reward */\n      0x07\n      add\n      sload\n        /* \"contracts/stake_reward_MLM.sol\":15786:15843  uint Temp = DUSDinvestor[msg.sender].totalWithdraw_reward */\n      swap1\n      pop\n        /* \"contracts/stake_reward_MLM.sol\":15865:15869  Temp */\n      dup1\n        /* \"contracts/stake_reward_MLM.sol\":15858:15869  return Temp */\n      swap2\n      pop\n      pop\n        /* \"contracts/stake_reward_MLM.sol\":15711:15894  function total_withdraw_reaward() view public returns(uint){... */\n      swap1\n      jump\t// out\n        /* \"contracts/stake_reward_MLM.sol\":9503:11055  function unStake() external  returns (bool success){... */\n    tag_87:\n        /* \"contracts/stake_reward_MLM.sol\":9541:9553  bool success */\n      0x00\n        /* \"contracts/stake_reward_MLM.sol\":9617:9618  0 */\n      dup1\n        /* \"contracts/stake_reward_MLM.sol\":9576:9588  DUSDinvestor */\n      0x0c\n        /* \"contracts/stake_reward_MLM.sol\":9576:9600  DUSDinvestor[msg.sender] */\n      0x00\n        /* \"contracts/stake_reward_MLM.sol\":9589:9599  msg.sender */\n      caller\n        /* \"contracts/stake_reward_MLM.sol\":9576:9600  DUSDinvestor[msg.sender] */\n      0xffffffffffffffffffffffffffffffffffffffff\n      and\n      0xffffffffffffffffffffffffffffffffffffffff\n      and\n      dup2\n      mstore\n      0x20\n      add\n      swap1\n      dup2\n      mstore\n      0x20\n      add\n      0x00\n      keccak256\n        /* \"contracts/stake_reward_MLM.sol\":9576:9616  DUSDinvestor[msg.sender].totalInvestment */\n      0x06\n      add\n      sload\n        /* \"contracts/stake_reward_MLM.sol\":9576:9618  DUSDinvestor[msg.sender].totalInvestment>0 */\n      gt\n        /* \"contracts/stake_reward_MLM.sol\":9568:9659  require(DUSDinvestor[msg.sender].totalInvestment>0,\"you dont have investment to withdrawn\") */\n      tag_241\n      jumpi\n      mload(0x40)\n      0x08c379a000000000000000000000000000000000000000000000000000000000\n      dup2\n      mstore\n      0x04\n      add\n      tag_242\n      swap1\n      tag_243\n      jump\t// in\n    tag_242:\n      mload(0x40)\n      dup1\n      swap2\n      sub\n      swap1\n      revert\n    tag_241:\n        /* \"contracts/stake_reward_MLM.sol\":9731:9742  uint amount */\n      0x00\n        /* \"contracts/stake_reward_MLM.sol\":9743:9755  DUSDinvestor */\n      0x0c\n        /* \"contracts/stake_reward_MLM.sol\":9743:9767  DUSDinvestor[msg.sender] */\n      0x00\n        /* \"contracts/stake_reward_MLM.sol\":9756:9766  msg.sender */\n      caller\n        /* \"contracts/stake_reward_MLM.sol\":9743:9767  DUSDinvestor[msg.sender] */\n      0xffffffffffffffffffffffffffffffffffffffff\n      and\n      0xffffffffffffffffffffffffffffffffffffffff\n      and\n      dup2\n      mstore\n      0x20\n      add\n      swap1\n      dup2\n      mstore\n      0x20\n      add\n      0x00\n      keccak256\n        /* \"contracts/stake_reward_MLM.sol\":9743:9783  DUSDinvestor[msg.sender].totalInvestment */\n      0x06\n      add\n      sload\n        /* \"contracts/stake_reward_MLM.sol\":9731:9783  uint amount=DUSDinvestor[msg.sender].totalInvestment */\n      swap1\n      pop\n        /* \"contracts/stake_reward_MLM.sol\":9797:9806  uint temp */\n      0x00\n        /* \"contracts/stake_reward_MLM.sol\":9809:9821  DUSDinvestor */\n      0x0c\n        /* \"contracts/stake_reward_MLM.sol\":9809:9833  DUSDinvestor[msg.sender] */\n      0x00\n        /* \"contracts/stake_reward_MLM.sol\":9822:9832  msg.sender */\n      caller\n        /* \"contracts/stake_reward_MLM.sol\":9809:9833  DUSDinvestor[msg.sender] */\n      0xffffffffffffffffffffffffffffffffffffffff\n      and\n      0xffffffffffffffffffffffffffffffffffffffff\n      and\n      dup2\n      mstore\n      0x20\n      add\n      swap1\n      dup2\n      mstore\n      0x20\n      add\n      0x00\n      keccak256\n        /* \"contracts/stake_reward_MLM.sol\":9809:9848  DUSDinvestor[msg.sender].noOfInvestment */\n      0x05\n      add\n      sload\n        /* \"contracts/stake_reward_MLM.sol\":9797:9848  uint temp = DUSDinvestor[msg.sender].noOfInvestment */\n      swap1\n      pop\n        /* \"contracts/stake_reward_MLM.sol\":9862:9871  uint from */\n      0x00\n        /* \"contracts/stake_reward_MLM.sol\":9874:9887  rew_till_done */\n      sload(0x0a)\n        /* \"contracts/stake_reward_MLM.sol\":9862:9887  uint from = rew_till_done */\n      swap1\n      pop\n        /* \"contracts/stake_reward_MLM.sol\":9901:9914  uint amount30 */\n      0x00\n        /* \"contracts/stake_reward_MLM.sol\":9928:9941  uint amount70 */\n      dup1\n        /* \"contracts/stake_reward_MLM.sol\":9995:10010  block.timestamp */\n      timestamp\n        /* \"contracts/stake_reward_MLM.sol\":9958:9970  DUSDinvestor */\n      0x0c\n        /* \"contracts/stake_reward_MLM.sol\":9958:9982  DUSDinvestor[msg.sender] */\n      0x00\n        /* \"contracts/stake_reward_MLM.sol\":9971:9981  msg.sender */\n      caller\n        /* \"contracts/stake_reward_MLM.sol\":9958:9982  DUSDinvestor[msg.sender] */\n      0xffffffffffffffffffffffffffffffffffffffff\n      and\n      0xffffffffffffffffffffffffffffffffffffffff\n      and\n      dup2\n      mstore\n      0x20\n      add\n      swap1\n      dup2\n      mstore\n      0x20\n      add\n      0x00\n      keccak256\n        /* \"contracts/stake_reward_MLM.sol\":9958:9992  DUSDinvestor[msg.sender].stakeTime */\n      0x09\n      add\n      sload\n        /* \"contracts/stake_reward_MLM.sol\":9958:10010  DUSDinvestor[msg.sender].stakeTime > block.timestamp */\n      gt\n        /* \"contracts/stake_reward_MLM.sol\":9955:10511  if(DUSDinvestor[msg.sender].stakeTime > block.timestamp)... */\n      iszero\n      tag_244\n      jumpi\n        /* \"contracts/stake_reward_MLM.sol\":10065:10068  100 */\n      0x64\n        /* \"contracts/stake_reward_MLM.sol\":10061:10063  30 */\n      0x1e\n        /* \"contracts/stake_reward_MLM.sol\":10054:10060  amount */\n      dup7\n        /* \"contracts/stake_reward_MLM.sol\":10054:10063  amount*30 */\n      tag_245\n      swap2\n      swap1\n      tag_154\n      jump\t// in\n    tag_245:\n        /* \"contracts/stake_reward_MLM.sol\":10053:10068  (amount*30)/100 */\n      tag_246\n      swap2\n      swap1\n      tag_203\n      jump\t// in\n    tag_246:\n        /* \"contracts/stake_reward_MLM.sol\":10042:10068  amount30 = (amount*30)/100 */\n      swap2\n      pop\n        /* \"contracts/stake_reward_MLM.sol\":10109:10112  100 */\n      0x64\n        /* \"contracts/stake_reward_MLM.sol\":10105:10107  70 */\n      0x46\n        /* \"contracts/stake_reward_MLM.sol\":10098:10104  amount */\n      dup7\n        /* \"contracts/stake_reward_MLM.sol\":10098:10107  amount*70 */\n      tag_247\n      swap2\n      swap1\n      tag_154\n      jump\t// in\n    tag_247:\n        /* \"contracts/stake_reward_MLM.sol\":10097:10112  (amount*70)/100 */\n      tag_248\n      swap2\n      swap1\n      tag_203\n      jump\t// in\n    tag_248:\n        /* \"contracts/stake_reward_MLM.sol\":10086:10112  amount70 = (amount*70)/100 */\n      swap1\n      pop\n        /* \"contracts/stake_reward_MLM.sol\":10135:10146  SMCcontract */\n      0x01\n      0x00\n      swap1\n      sload\n      swap1\n      0x0100\n      exp\n      swap1\n      div\n      0xffffffffffffffffffffffffffffffffffffffff\n      and\n        /* \"contracts/stake_reward_MLM.sol\":10130:10156  DUSD(SMCcontract).transfer */\n      0xffffffffffffffffffffffffffffffffffffffff\n      and\n      0xa9059cbb\n        /* \"contracts/stake_reward_MLM.sol\":10157:10167  msg.sender */\n      caller\n        /* \"contracts/stake_reward_MLM.sol\":10179:10184  10**8 */\n      0x05f5e100\n        /* \"contracts/stake_reward_MLM.sol\":10168:10176  amount30 */\n      dup6\n        /* \"contracts/stake_reward_MLM.sol\":10168:10184  amount30 * 10**8 */\n      tag_249\n      swap2\n      swap1\n      tag_154\n      jump\t// in\n    tag_249:\n        /* \"contracts/stake_reward_MLM.sol\":10130:10185  DUSD(SMCcontract).transfer(msg.sender,amount30 * 10**8) */\n      mload(0x40)\n      dup4\n      0xffffffff\n      and\n      0xe0\n      shl\n      dup2\n      mstore\n      0x04\n      add\n      tag_250\n      swap3\n      swap2\n      swap1\n      tag_251\n      jump\t// in\n    tag_250:\n      0x20\n      mload(0x40)\n      dup1\n      dup4\n      sub\n      dup2\n      0x00\n      dup8\n      dup1\n      extcodesize\n      iszero\n      dup1\n      iszero\n      tag_252\n      jumpi\n      0x00\n      dup1\n      revert\n    tag_252:\n      pop\n      gas\n      call\n      iszero\n      dup1\n      iszero\n      tag_254\n      jumpi\n      returndatasize\n      0x00\n      dup1\n      returndatacopy\n      revert(0x00, returndatasize)\n    tag_254:\n      pop\n      pop\n      pop\n      pop\n      mload(0x40)\n      returndatasize\n      not(0x1f)\n      0x1f\n      dup3\n      add\n      and\n      dup3\n      add\n      dup1\n      0x40\n      mstore\n      pop\n      dup2\n      add\n      swap1\n      tag_255\n      swap2\n      swap1\n      tag_161\n      jump\t// in\n    tag_255:\n      pop\n        /* \"contracts/stake_reward_MLM.sol\":10276:10287  SMCcontract */\n      0x01\n      0x00\n      swap1\n      sload\n      swap1\n      0x0100\n      exp\n      swap1\n      div\n      0xffffffffffffffffffffffffffffffffffffffff\n      and\n        /* \"contracts/stake_reward_MLM.sol\":10271:10297  DUSD(SMCcontract).transfer */\n      0xffffffffffffffffffffffffffffffffffffffff\n      and\n      0xa9059cbb\n        /* \"contracts/stake_reward_MLM.sol\":10298:10303  owner */\n      0x00\n      dup1\n      sload\n      swap1\n      0x0100\n      exp\n      swap1\n      div\n      0xffffffffffffffffffffffffffffffffffffffff\n      and\n        /* \"contracts/stake_reward_MLM.sol\":10315:10320  10**8 */\n      0x05f5e100\n        /* \"contracts/stake_reward_MLM.sol\":10304:10312  amount70 */\n      dup5\n        /* \"contracts/stake_reward_MLM.sol\":10304:10320  amount70 * 10**8 */\n      tag_256\n      swap2\n      swap1\n      tag_154\n      jump\t// in\n    tag_256:\n        /* \"contracts/stake_reward_MLM.sol\":10271:10321  DUSD(SMCcontract).transfer(owner,amount70 * 10**8) */\n      mload(0x40)\n      dup4\n      0xffffffff\n      and\n      0xe0\n      shl\n      dup2\n      mstore\n      0x04\n      add\n      tag_257\n      swap3\n      swap2\n      swap1\n      tag_251\n      jump\t// in\n    tag_257:\n      0x20\n      mload(0x40)\n      dup1\n      dup4\n      sub\n      dup2\n      0x00\n      dup8\n      dup1\n      extcodesize\n      iszero\n      dup1\n      iszero\n      tag_258\n      jumpi\n      0x00\n      dup1\n      revert\n    tag_258:\n      pop\n      gas\n      call\n      iszero\n      dup1\n      iszero\n      tag_260\n      jumpi\n      returndatasize\n      0x00\n      dup1\n      returndatacopy\n      revert(0x00, returndatasize)\n    tag_260:\n      pop\n      pop\n      pop\n      pop\n      mload(0x40)\n      returndatasize\n      not(0x1f)\n      0x1f\n      dup3\n      add\n      and\n      dup3\n      add\n      dup1\n      0x40\n      mstore\n      pop\n      dup2\n      add\n      swap1\n      tag_261\n      swap2\n      swap1\n      tag_161\n      jump\t// in\n    tag_261:\n      pop\n        /* \"contracts/stake_reward_MLM.sol\":9955:10511  if(DUSDinvestor[msg.sender].stakeTime > block.timestamp)... */\n      jump(tag_262)\n    tag_244:\n        /* \"contracts/stake_reward_MLM.sol\":10381:10392  SMCcontract */\n      0x01\n      0x00\n      swap1\n      sload\n      swap1\n      0x0100\n      exp\n      swap1\n      div\n      0xffffffffffffffffffffffffffffffffffffffff\n      and\n        /* \"contracts/stake_reward_MLM.sol\":10376:10402  DUSD(SMCcontract).transfer */\n      0xffffffffffffffffffffffffffffffffffffffff\n      and\n      0xa9059cbb\n        /* \"contracts/stake_reward_MLM.sol\":10403:10413  msg.sender */\n      caller\n        /* \"contracts/stake_reward_MLM.sol\":10422:10427  10**8 */\n      0x05f5e100\n        /* \"contracts/stake_reward_MLM.sol\":10414:10420  amount */\n      dup9\n        /* \"contracts/stake_reward_MLM.sol\":10414:10427  amount* 10**8 */\n      tag_263\n      swap2\n      swap1\n      tag_154\n      jump\t// in\n    tag_263:\n        /* \"contracts/stake_reward_MLM.sol\":10376:10428  DUSD(SMCcontract).transfer(msg.sender,amount* 10**8) */\n      mload(0x40)\n      dup4\n      0xffffffff\n      and\n      0xe0\n      shl\n      dup2\n      mstore\n      0x04\n      add\n      tag_264\n      swap3\n      swap2\n      swap1\n      tag_251\n      jump\t// in\n    tag_264:\n      0x20\n      mload(0x40)\n      dup1\n      dup4\n      sub\n      dup2\n      0x00\n      dup8\n      dup1\n      extcodesize\n      iszero\n      dup1\n      iszero\n      tag_265\n      jumpi\n      0x00\n      dup1\n      revert\n    tag_265:\n      pop\n      gas\n      call\n      iszero\n      dup1\n      iszero\n      tag_267\n      jumpi\n      returndatasize\n      0x00\n      dup1\n      returndatacopy\n      revert(0x00, returndatasize)\n    tag_267:\n      pop\n      pop\n      pop\n      pop\n      mload(0x40)\n      returndatasize\n      not(0x1f)\n      0x1f\n      dup3\n      add\n      and\n      dup3\n      add\n      dup1\n      0x40\n      mstore\n      pop\n      dup2\n      add\n      swap1\n      tag_268\n      swap2\n      swap1\n      tag_161\n      jump\t// in\n    tag_268:\n      pop\n        /* \"contracts/stake_reward_MLM.sol\":9955:10511  if(DUSDinvestor[msg.sender].stakeTime > block.timestamp)... */\n    tag_262:\n        /* \"contracts/stake_reward_MLM.sol\":10534:10535  0 */\n      0x00\n        /* \"contracts/stake_reward_MLM.sol\":10529:10535  from=0 */\n      swap3\n      pop\n        /* \"contracts/stake_reward_MLM.sol\":10524:10786  for( from=0;from < temp;from++)... */\n    tag_269:\n        /* \"contracts/stake_reward_MLM.sol\":10543:10547  temp */\n      dup4\n        /* \"contracts/stake_reward_MLM.sol\":10536:10540  from */\n      dup4\n        /* \"contracts/stake_reward_MLM.sol\":10536:10547  from < temp */\n      lt\n        /* \"contracts/stake_reward_MLM.sol\":10524:10786  for( from=0;from < temp;from++)... */\n      iszero\n      tag_270\n      jumpi\n        /* \"contracts/stake_reward_MLM.sol\":10640:10644  true */\n      0x01\n        /* \"contracts/stake_reward_MLM.sol\":10589:10601  DUSDinvestor */\n      0x0c\n        /* \"contracts/stake_reward_MLM.sol\":10589:10613  DUSDinvestor[msg.sender] */\n      0x00\n        /* \"contracts/stake_reward_MLM.sol\":10602:10612  msg.sender */\n      caller\n        /* \"contracts/stake_reward_MLM.sol\":10589:10613  DUSDinvestor[msg.sender] */\n      0xffffffffffffffffffffffffffffffffffffffff\n      and\n      0xffffffffffffffffffffffffffffffffffffffff\n      and\n      dup2\n      mstore\n      0x20\n      add\n      swap1\n      dup2\n      mstore\n      0x20\n      add\n      0x00\n      keccak256\n        /* \"contracts/stake_reward_MLM.sol\":10589:10624  DUSDinvestor[msg.sender].investment */\n      0x00\n      add\n        /* \"contracts/stake_reward_MLM.sol\":10589:10630  DUSDinvestor[msg.sender].investment[from] */\n      0x00\n        /* \"contracts/stake_reward_MLM.sol\":10625:10629  from */\n      dup6\n        /* \"contracts/stake_reward_MLM.sol\":10589:10630  DUSDinvestor[msg.sender].investment[from] */\n      dup2\n      mstore\n      0x20\n      add\n      swap1\n      dup2\n      mstore\n      0x20\n      add\n      0x00\n      keccak256\n        /* \"contracts/stake_reward_MLM.sol\":10589:10638  DUSDinvestor[msg.sender].investment[from].unstake */\n      0x05\n      add\n      0x00\n        /* \"contracts/stake_reward_MLM.sol\":10589:10644  DUSDinvestor[msg.sender].investment[from].unstake =true */\n      0x0100\n      exp\n      dup2\n      sload\n      dup2\n      0xff\n      mul\n      not\n      and\n      swap1\n      dup4\n      iszero\n      iszero\n      mul\n      or\n      swap1\n      sstore\n      pop\n        /* \"contracts/stake_reward_MLM.sol\":10721:10736  block.timestamp */\n      timestamp\n        /* \"contracts/stake_reward_MLM.sol\":10666:10678  DUSDinvestor */\n      0x0c\n        /* \"contracts/stake_reward_MLM.sol\":10666:10690  DUSDinvestor[msg.sender] */\n      0x00\n        /* \"contracts/stake_reward_MLM.sol\":10679:10689  msg.sender */\n      caller\n        /* \"contracts/stake_reward_MLM.sol\":10666:10690  DUSDinvestor[msg.sender] */\n      0xffffffffffffffffffffffffffffffffffffffff\n      and\n      0xffffffffffffffffffffffffffffffffffffffff\n      and\n      dup2\n      mstore\n      0x20\n      add\n      swap1\n      dup2\n      mstore\n      0x20\n      add\n      0x00\n      keccak256\n        /* \"contracts/stake_reward_MLM.sol\":10666:10701  DUSDinvestor[msg.sender].investment */\n      0x00\n      add\n        /* \"contracts/stake_reward_MLM.sol\":10666:10707  DUSDinvestor[msg.sender].investment[from] */\n      0x00\n        /* \"contracts/stake_reward_MLM.sol\":10702:10706  from */\n      dup6\n        /* \"contracts/stake_reward_MLM.sol\":10666:10707  DUSDinvestor[msg.sender].investment[from] */\n      dup2\n      mstore\n      0x20\n      add\n      swap1\n      dup2\n      mstore\n      0x20\n      add\n      0x00\n      keccak256\n        /* \"contracts/stake_reward_MLM.sol\":10666:10719  DUSDinvestor[msg.sender].investment[from].unstakeTime */\n      0x04\n      add\n        /* \"contracts/stake_reward_MLM.sol\":10666:10736  DUSDinvestor[msg.sender].investment[from].unstakeTime =block.timestamp */\n      dup2\n      swap1\n      sstore\n      pop\n        /* \"contracts/stake_reward_MLM.sol\":10548:10554  from++ */\n      dup3\n      dup1\n      tag_272\n      swap1\n      tag_144\n      jump\t// in\n    tag_272:\n      swap4\n      pop\n      pop\n        /* \"contracts/stake_reward_MLM.sol\":10524:10786  for( from=0;from < temp;from++)... */\n      jump(tag_269)\n    tag_270:\n        /* \"contracts/stake_reward_MLM.sol\":10814:10826  DUSDinvestor */\n      0x0c\n        /* \"contracts/stake_reward_MLM.sol\":10814:10838  DUSDinvestor[msg.sender] */\n      0x00\n        /* \"contracts/stake_reward_MLM.sol\":10827:10837  msg.sender */\n      caller\n        /* \"contracts/stake_reward_MLM.sol\":10814:10838  DUSDinvestor[msg.sender] */\n      0xffffffffffffffffffffffffffffffffffffffff\n      and\n      0xffffffffffffffffffffffffffffffffffffffff\n      and\n      dup2\n      mstore\n      0x20\n      add\n      swap1\n      dup2\n      mstore\n      0x20\n      add\n      0x00\n      keccak256\n        /* \"contracts/stake_reward_MLM.sol\":10814:10853  DUSDinvestor[msg.sender].noOfInvestment */\n      0x05\n      add\n      sload\n        /* \"contracts/stake_reward_MLM.sol\":10799:10812  rew_till_done */\n      0x0a\n        /* \"contracts/stake_reward_MLM.sol\":10799:10853  rew_till_done =DUSDinvestor[msg.sender].noOfInvestment */\n      dup2\n      swap1\n      sstore\n      pop\n        /* \"contracts/stake_reward_MLM.sol\":10947:10948  0 */\n      0x00\n        /* \"contracts/stake_reward_MLM.sol\":10906:10918  DUSDinvestor */\n      0x0c\n        /* \"contracts/stake_reward_MLM.sol\":10906:10930  DUSDinvestor[msg.sender] */\n      0x00\n        /* \"contracts/stake_reward_MLM.sol\":10919:10929  msg.sender */\n      caller\n        /* \"contracts/stake_reward_MLM.sol\":10906:10930  DUSDinvestor[msg.sender] */\n      0xffffffffffffffffffffffffffffffffffffffff\n      and\n      0xffffffffffffffffffffffffffffffffffffffff\n      and\n      dup2\n      mstore\n      0x20\n      add\n      swap1\n      dup2\n      mstore\n      0x20\n      add\n      0x00\n      keccak256\n        /* \"contracts/stake_reward_MLM.sol\":10906:10946  DUSDinvestor[msg.sender].totalInvestment */\n      0x06\n      add\n        /* \"contracts/stake_reward_MLM.sol\":10906:10948  DUSDinvestor[msg.sender].totalInvestment=0 */\n      dup2\n      swap1\n      sstore\n      pop\n        /* \"contracts/stake_reward_MLM.sol\":11039:11043  true */\n      0x01\n        /* \"contracts/stake_reward_MLM.sol\":11032:11043  return true */\n      swap6\n      pop\n      pop\n      pop\n      pop\n      pop\n      pop\n        /* \"contracts/stake_reward_MLM.sol\":9503:11055  function unStake() external  returns (bool success){... */\n      swap1\n      jump\t// out\n        /* \"contracts/stake_reward_MLM.sol\":300:321  address  public owner */\n    tag_90:\n      0x00\n      dup1\n      sload\n      swap1\n      0x0100\n      exp\n      swap1\n      div\n      0xffffffffffffffffffffffffffffffffffffffff\n      and\n      dup2\n      jump\t// out\n        /* \"contracts/stake_reward_MLM.sol\":11065:11275  function getTotalInvestmentDUSD() public view returns(uint) {   //this function is to get the total investment of the ivestor... */\n    tag_93:\n        /* \"contracts/stake_reward_MLM.sol\":11119:11123  uint */\n      0x00\n        /* \"contracts/stake_reward_MLM.sol\":11223:11235  DUSDinvestor */\n      0x0c\n        /* \"contracts/stake_reward_MLM.sol\":11223:11247  DUSDinvestor[msg.sender] */\n      0x00\n        /* \"contracts/stake_reward_MLM.sol\":11236:11246  msg.sender */\n      caller\n        /* \"contracts/stake_reward_MLM.sol\":11223:11247  DUSDinvestor[msg.sender] */\n      0xffffffffffffffffffffffffffffffffffffffff\n      and\n      0xffffffffffffffffffffffffffffffffffffffff\n      and\n      dup2\n      mstore\n      0x20\n      add\n      swap1\n      dup2\n      mstore\n      0x20\n      add\n      0x00\n      keccak256\n        /* \"contracts/stake_reward_MLM.sol\":11223:11263  DUSDinvestor[msg.sender].totalInvestment */\n      0x06\n      add\n      sload\n        /* \"contracts/stake_reward_MLM.sol\":11216:11263  return DUSDinvestor[msg.sender].totalInvestment */\n      swap1\n      pop\n        /* \"contracts/stake_reward_MLM.sol\":11065:11275  function getTotalInvestmentDUSD() public view returns(uint) {   //this function is to get the total investment of the ivestor... */\n      swap1\n      jump\t// out\n        /* \"contracts/stake_reward_MLM.sol\":878:908  uint public denomenator=100000 */\n    tag_96:\n      sload(0x07)\n      dup2\n      jump\t// out\n        /* \"contracts/stake_reward_MLM.sol\":12922:13076  function setReward(uint _amount,uint _denomenator) public ... */\n    tag_101:\n        /* \"contracts/stake_reward_MLM.sol\":13017:13024  _amount */\n      dup2\n        /* \"contracts/stake_reward_MLM.sol\":13003:13014  rewardToken */\n      0x04\n        /* \"contracts/stake_reward_MLM.sol\":13003:13024  rewardToken = _amount */\n      dup2\n      swap1\n      sstore\n      pop\n        /* \"contracts/stake_reward_MLM.sol\":13052:13064  _denomenator */\n      dup1\n        /* \"contracts/stake_reward_MLM.sol\":13038:13049  denomenator */\n      0x07\n        /* \"contracts/stake_reward_MLM.sol\":13038:13064  denomenator = _denomenator */\n      dup2\n      swap1\n      sstore\n      pop\n        /* \"contracts/stake_reward_MLM.sol\":12922:13076  function setReward(uint _amount,uint _denomenator) public ... */\n      pop\n      pop\n      jump\t// out\n        /* \"contracts/stake_reward_MLM.sol\":13800:14365  function referralLevel_earning() public view returns( uint[] memory arr )... */\n    tag_103:\n        /* \"contracts/stake_reward_MLM.sol\":13854:13871  uint[] memory arr */\n      0x60\n        /* \"contracts/stake_reward_MLM.sol\":13896:13931  uint[] memory referralLevels_reward */\n      0x00\n        /* \"contracts/stake_reward_MLM.sol\":13943:13945  20 */\n      0x14\n        /* \"contracts/stake_reward_MLM.sol\":13932:13946  new uint[](20) */\n      0xffffffffffffffff\n      dup2\n      gt\n      iszero\n      tag_276\n      jumpi\n      tag_277\n      tag_179\n      jump\t// in\n    tag_277:\n    tag_276:\n      mload(0x40)\n      swap1\n      dup1\n      dup3\n      mstore\n      dup1\n      0x20\n      mul\n      0x20\n      add\n      dup3\n      add\n      0x40\n      mstore\n      dup1\n      iszero\n      tag_278\n      jumpi\n      dup2\n      0x20\n      add\n      0x20\n      dup3\n      mul\n      dup1\n      calldatasize\n      dup4\n      calldatacopy\n      dup1\n      dup3\n      add\n      swap2\n      pop\n      pop\n      swap1\n      pop\n    tag_278:\n      pop\n        /* \"contracts/stake_reward_MLM.sol\":13896:13946  uint[] memory referralLevels_reward=new uint[](20) */\n      swap1\n      pop\n        /* \"contracts/stake_reward_MLM.sol\":13964:13970  uint i */\n      0x00\n        /* \"contracts/stake_reward_MLM.sol\":13960:14310  for(uint i=0;i<20;i++)... */\n    tag_279:\n        /* \"contracts/stake_reward_MLM.sol\":13975:13977  20 */\n      0x14\n        /* \"contracts/stake_reward_MLM.sol\":13973:13974  i */\n      dup2\n        /* \"contracts/stake_reward_MLM.sol\":13973:13977  i<20 */\n      lt\n        /* \"contracts/stake_reward_MLM.sol\":13960:14310  for(uint i=0;i<20;i++)... */\n      iszero\n      tag_280\n      jumpi\n        /* \"contracts/stake_reward_MLM.sol\":14065:14066  0 */\n      0x00\n        /* \"contracts/stake_reward_MLM.sol\":14016:14028  DUSDinvestor */\n      0x0c\n        /* \"contracts/stake_reward_MLM.sol\":14016:14040  DUSDinvestor[msg.sender] */\n      0x00\n        /* \"contracts/stake_reward_MLM.sol\":14029:14039  msg.sender */\n      caller\n        /* \"contracts/stake_reward_MLM.sol\":14016:14040  DUSDinvestor[msg.sender] */\n      0xffffffffffffffffffffffffffffffffffffffff\n      and\n      0xffffffffffffffffffffffffffffffffffffffff\n      and\n      dup2\n      mstore\n      0x20\n      add\n      swap1\n      dup2\n      mstore\n      0x20\n      add\n      0x00\n      keccak256\n        /* \"contracts/stake_reward_MLM.sol\":14016:14054  DUSDinvestor[msg.sender].referralLevel */\n      0x03\n      add\n        /* \"contracts/stake_reward_MLM.sol\":14016:14057  DUSDinvestor[msg.sender].referralLevel[i] */\n      0x00\n        /* \"contracts/stake_reward_MLM.sol\":14055:14056  i */\n      dup4\n        /* \"contracts/stake_reward_MLM.sol\":14016:14057  DUSDinvestor[msg.sender].referralLevel[i] */\n      dup2\n      mstore\n      0x20\n      add\n      swap1\n      dup2\n      mstore\n      0x20\n      add\n      0x00\n      keccak256\n        /* \"contracts/stake_reward_MLM.sol\":14016:14064  DUSDinvestor[msg.sender].referralLevel[i].reward */\n      0x00\n      add\n      sload\n        /* \"contracts/stake_reward_MLM.sol\":14016:14066  DUSDinvestor[msg.sender].referralLevel[i].reward>0 */\n      gt\n        /* \"contracts/stake_reward_MLM.sol\":14013:14294  if(DUSDinvestor[msg.sender].referralLevel[i].reward>0)... */\n      iszero\n      tag_282\n      jumpi\n        /* \"contracts/stake_reward_MLM.sol\":14133:14145  DUSDinvestor */\n      0x0c\n        /* \"contracts/stake_reward_MLM.sol\":14133:14157  DUSDinvestor[msg.sender] */\n      0x00\n        /* \"contracts/stake_reward_MLM.sol\":14146:14156  msg.sender */\n      caller\n        /* \"contracts/stake_reward_MLM.sol\":14133:14157  DUSDinvestor[msg.sender] */\n      0xffffffffffffffffffffffffffffffffffffffff\n      and\n      0xffffffffffffffffffffffffffffffffffffffff\n      and\n      dup2\n      mstore\n      0x20\n      add\n      swap1\n      dup2\n      mstore\n      0x20\n      add\n      0x00\n      keccak256\n        /* \"contracts/stake_reward_MLM.sol\":14133:14171  DUSDinvestor[msg.sender].referralLevel */\n      0x03\n      add\n        /* \"contracts/stake_reward_MLM.sol\":14133:14174  DUSDinvestor[msg.sender].referralLevel[i] */\n      0x00\n        /* \"contracts/stake_reward_MLM.sol\":14172:14173  i */\n      dup3\n        /* \"contracts/stake_reward_MLM.sol\":14133:14174  DUSDinvestor[msg.sender].referralLevel[i] */\n      dup2\n      mstore\n      0x20\n      add\n      swap1\n      dup2\n      mstore\n      0x20\n      add\n      0x00\n      keccak256\n        /* \"contracts/stake_reward_MLM.sol\":14133:14181  DUSDinvestor[msg.sender].referralLevel[i].reward */\n      0x00\n      add\n      sload\n        /* \"contracts/stake_reward_MLM.sol\":14106:14127  referralLevels_reward */\n      dup3\n        /* \"contracts/stake_reward_MLM.sol\":14128:14129  i */\n      dup3\n        /* \"contracts/stake_reward_MLM.sol\":14106:14130  referralLevels_reward[i] */\n      dup2\n      mload\n      dup2\n      lt\n      tag_283\n      jumpi\n      tag_284\n      tag_190\n      jump\t// in\n    tag_284:\n    tag_283:\n      0x20\n      mul\n      0x20\n      add\n      add\n        /* \"contracts/stake_reward_MLM.sol\":14106:14181  referralLevels_reward[i] = DUSDinvestor[msg.sender].referralLevel[i].reward */\n      dup2\n      dup2\n      mstore\n      pop\n      pop\n        /* \"contracts/stake_reward_MLM.sol\":14013:14294  if(DUSDinvestor[msg.sender].referralLevel[i].reward>0)... */\n      jump(tag_285)\n    tag_282:\n        /* \"contracts/stake_reward_MLM.sol\":14273:14274  0 */\n      0x00\n        /* \"contracts/stake_reward_MLM.sol\":14246:14267  referralLevels_reward */\n      dup3\n        /* \"contracts/stake_reward_MLM.sol\":14268:14269  i */\n      dup3\n        /* \"contracts/stake_reward_MLM.sol\":14246:14270  referralLevels_reward[i] */\n      dup2\n      mload\n      dup2\n      lt\n      tag_286\n      jumpi\n      tag_287\n      tag_190\n      jump\t// in\n    tag_287:\n    tag_286:\n      0x20\n      mul\n      0x20\n      add\n      add\n        /* \"contracts/stake_reward_MLM.sol\":14246:14274  referralLevels_reward[i] = 0 */\n      dup2\n      dup2\n      mstore\n      pop\n      pop\n        /* \"contracts/stake_reward_MLM.sol\":14013:14294  if(DUSDinvestor[msg.sender].referralLevel[i].reward>0)... */\n    tag_285:\n        /* \"contracts/stake_reward_MLM.sol\":13978:13981  i++ */\n      dup1\n      dup1\n      tag_288\n      swap1\n      tag_144\n      jump\t// in\n    tag_288:\n      swap2\n      pop\n      pop\n        /* \"contracts/stake_reward_MLM.sol\":13960:14310  for(uint i=0;i<20;i++)... */\n      jump(tag_279)\n    tag_280:\n      pop\n        /* \"contracts/stake_reward_MLM.sol\":14330:14351  referralLevels_reward */\n      dup1\n        /* \"contracts/stake_reward_MLM.sol\":14323:14351  return referralLevels_reward */\n      swap2\n      pop\n      pop\n        /* \"contracts/stake_reward_MLM.sol\":13800:14365  function referralLevel_earning() public view returns( uint[] memory arr )... */\n      swap1\n      jump\t// out\n        /* \"contracts/stake_reward_MLM.sol\":733:767  uint public min_Stake_amount=10000 */\n    tag_107:\n      sload(0x05)\n      dup2\n      jump\t// out\n        /* \"contracts/stake_reward_MLM.sol\":8675:9492  function withdrawReward() external returns (bool success){... */\n    tag_110:\n        /* \"contracts/stake_reward_MLM.sol\":8719:8731  bool success */\n      0x00\n        /* \"contracts/stake_reward_MLM.sol\":8746:8763  uint Total_reward */\n      dup1\n        /* \"contracts/stake_reward_MLM.sol\":8766:8777  getReward() */\n      tag_290\n        /* \"contracts/stake_reward_MLM.sol\":8766:8775  getReward */\n      tag_62\n        /* \"contracts/stake_reward_MLM.sol\":8766:8777  getReward() */\n      jump\t// in\n    tag_290:\n        /* \"contracts/stake_reward_MLM.sol\":8746:8777  uint Total_reward = getReward() */\n      swap1\n      pop\n        /* \"contracts/stake_reward_MLM.sol\":8812:8813  0 */\n      0x00\n        /* \"contracts/stake_reward_MLM.sol\":8799:8811  Total_reward */\n      dup2\n        /* \"contracts/stake_reward_MLM.sol\":8799:8813  Total_reward>0 */\n      gt\n        /* \"contracts/stake_reward_MLM.sol\":8791:8851  require(Total_reward>0,\"you dont have rewards to withdrawn\") */\n      tag_291\n      jumpi\n      mload(0x40)\n      0x08c379a000000000000000000000000000000000000000000000000000000000\n      dup2\n      mstore\n      0x04\n      add\n      tag_292\n      swap1\n      tag_293\n      jump\t// in\n    tag_292:\n      mload(0x40)\n      dup1\n      swap2\n      sub\n      swap1\n      revert\n    tag_291:\n        /* \"contracts/stake_reward_MLM.sol\":8930:8943  uint reward21 */\n      0x00\n        /* \"contracts/stake_reward_MLM.sol\":8964:8967  100 */\n      0x64\n        /* \"contracts/stake_reward_MLM.sol\":8960:8962  21 */\n      0x15\n        /* \"contracts/stake_reward_MLM.sol\":8947:8959  Total_reward */\n      dup4\n        /* \"contracts/stake_reward_MLM.sol\":8947:8962  Total_reward*21 */\n      tag_294\n      swap2\n      swap1\n      tag_154\n      jump\t// in\n    tag_294:\n        /* \"contracts/stake_reward_MLM.sol\":8946:8967  (Total_reward*21)/100 */\n      tag_295\n      swap2\n      swap1\n      tag_203\n      jump\t// in\n    tag_295:\n        /* \"contracts/stake_reward_MLM.sol\":8930:8967  uint reward21 = (Total_reward*21)/100 */\n      swap1\n      pop\n        /* \"contracts/stake_reward_MLM.sol\":8982:9005  address parent_referral */\n      0x00\n        /* \"contracts/stake_reward_MLM.sol\":9008:9020  DUSDinvestor */\n      0x0c\n        /* \"contracts/stake_reward_MLM.sol\":9008:9032  DUSDinvestor[msg.sender] */\n      0x00\n        /* \"contracts/stake_reward_MLM.sol\":9021:9031  msg.sender */\n      caller\n        /* \"contracts/stake_reward_MLM.sol\":9008:9032  DUSDinvestor[msg.sender] */\n      0xffffffffffffffffffffffffffffffffffffffff\n      and\n      0xffffffffffffffffffffffffffffffffffffffff\n      and\n      dup2\n      mstore\n      0x20\n      add\n      swap1\n      dup2\n      mstore\n      0x20\n      add\n      0x00\n      keccak256\n        /* \"contracts/stake_reward_MLM.sol\":9008:9045  DUSDinvestor[msg.sender].referralFrom */\n      0x02\n      add\n      0x00\n      swap1\n      sload\n      swap1\n      0x0100\n      exp\n      swap1\n      div\n      0xffffffffffffffffffffffffffffffffffffffff\n      and\n        /* \"contracts/stake_reward_MLM.sol\":8982:9045  address parent_referral = DUSDinvestor[msg.sender].referralFrom */\n      swap1\n      pop\n        /* \"contracts/stake_reward_MLM.sol\":9089:9090  0 */\n      0x00\n        /* \"contracts/stake_reward_MLM.sol\":9062:9091  parent_referral != address(0) */\n      0xffffffffffffffffffffffffffffffffffffffff\n      and\n        /* \"contracts/stake_reward_MLM.sol\":9062:9077  parent_referral */\n      dup2\n        /* \"contracts/stake_reward_MLM.sol\":9062:9091  parent_referral != address(0) */\n      0xffffffffffffffffffffffffffffffffffffffff\n      and\n      eq\n        /* \"contracts/stake_reward_MLM.sol\":9059:9243  if(parent_referral != address(0)){... */\n      tag_296\n      jumpi\n        /* \"contracts/stake_reward_MLM.sol\":9116:9128  BUSDcontract */\n      0x02\n      0x00\n      swap1\n      sload\n      swap1\n      0x0100\n      exp\n      swap1\n      div\n      0xffffffffffffffffffffffffffffffffffffffff\n      and\n        /* \"contracts/stake_reward_MLM.sol\":9111:9138  DUSD(BUSDcontract).transfer */\n      0xffffffffffffffffffffffffffffffffffffffff\n      and\n      0xa9059cbb\n        /* \"contracts/stake_reward_MLM.sol\":9139:9154  parent_referral */\n      dup3\n        /* \"contracts/stake_reward_MLM.sol\":9155:9163  reward21 */\n      dup5\n        /* \"contracts/stake_reward_MLM.sol\":9111:9164  DUSD(BUSDcontract).transfer(parent_referral,reward21) */\n      mload(0x40)\n      dup4\n      0xffffffff\n      and\n      0xe0\n      shl\n      dup2\n      mstore\n      0x04\n      add\n      tag_297\n      swap3\n      swap2\n      swap1\n      tag_251\n      jump\t// in\n    tag_297:\n      0x20\n      mload(0x40)\n      dup1\n      dup4\n      sub\n      dup2\n      0x00\n      dup8\n      dup1\n      extcodesize\n      iszero\n      dup1\n      iszero\n      tag_298\n      jumpi\n      0x00\n      dup1\n      revert\n    tag_298:\n      pop\n      gas\n      call\n      iszero\n      dup1\n      iszero\n      tag_300\n      jumpi\n      returndatasize\n      0x00\n      dup1\n      returndatacopy\n      revert(0x00, returndatasize)\n    tag_300:\n      pop\n      pop\n      pop\n      pop\n      mload(0x40)\n      returndatasize\n      not(0x1f)\n      0x1f\n      dup3\n      add\n      and\n      dup3\n      add\n      dup1\n      0x40\n      mstore\n      pop\n      dup2\n      add\n      swap1\n      tag_301\n      swap2\n      swap1\n      tag_161\n      jump\t// in\n    tag_301:\n      pop\n        /* \"contracts/stake_reward_MLM.sol\":9059:9243  if(parent_referral != address(0)){... */\n    tag_296:\n        /* \"contracts/stake_reward_MLM.sol\":9261:9273  BUSDcontract */\n      0x02\n      0x00\n      swap1\n      sload\n      swap1\n      0x0100\n      exp\n      swap1\n      div\n      0xffffffffffffffffffffffffffffffffffffffff\n      and\n        /* \"contracts/stake_reward_MLM.sol\":9256:9283  DUSD(BUSDcontract).transfer */\n      0xffffffffffffffffffffffffffffffffffffffff\n      and\n      0xa9059cbb\n        /* \"contracts/stake_reward_MLM.sol\":9284:9294  msg.sender */\n      caller\n        /* \"contracts/stake_reward_MLM.sol\":9308:9316  reward21 */\n      dup5\n        /* \"contracts/stake_reward_MLM.sol\":9295:9307  Total_reward */\n      dup7\n        /* \"contracts/stake_reward_MLM.sol\":9295:9316  Total_reward-reward21 */\n      tag_302\n      swap2\n      swap1\n      tag_199\n      jump\t// in\n    tag_302:\n        /* \"contracts/stake_reward_MLM.sol\":9256:9317  DUSD(BUSDcontract).transfer(msg.sender,Total_reward-reward21) */\n      mload(0x40)\n      dup4\n      0xffffffff\n      and\n      0xe0\n      shl\n      dup2\n      mstore\n      0x04\n      add\n      tag_303\n      swap3\n      swap2\n      swap1\n      tag_251\n      jump\t// in\n    tag_303:\n      0x20\n      mload(0x40)\n      dup1\n      dup4\n      sub\n      dup2\n      0x00\n      dup8\n      dup1\n      extcodesize\n      iszero\n      dup1\n      iszero\n      tag_304\n      jumpi\n      0x00\n      dup1\n      revert\n    tag_304:\n      pop\n      gas\n      call\n      iszero\n      dup1\n      iszero\n      tag_306\n      jumpi\n      returndatasize\n      0x00\n      dup1\n      returndatacopy\n      revert(0x00, returndatasize)\n    tag_306:\n      pop\n      pop\n      pop\n      pop\n      mload(0x40)\n      returndatasize\n      not(0x1f)\n      0x1f\n      dup3\n      add\n      and\n      dup3\n      add\n      dup1\n      0x40\n      mstore\n      pop\n      dup2\n      add\n      swap1\n      tag_307\n      swap2\n      swap1\n      tag_161\n      jump\t// in\n    tag_307:\n      pop\n        /* \"contracts/stake_reward_MLM.sol\":9442:9454  Total_reward */\n      dup3\n        /* \"contracts/stake_reward_MLM.sol\":9395:9407  DUSDinvestor */\n      0x0c\n        /* \"contracts/stake_reward_MLM.sol\":9395:9419  DUSDinvestor[msg.sender] */\n      0x00\n        /* \"contracts/stake_reward_MLM.sol\":9408:9418  msg.sender */\n      caller\n        /* \"contracts/stake_reward_MLM.sol\":9395:9419  DUSDinvestor[msg.sender] */\n      0xffffffffffffffffffffffffffffffffffffffff\n      and\n      0xffffffffffffffffffffffffffffffffffffffff\n      and\n      dup2\n      mstore\n      0x20\n      add\n      swap1\n      dup2\n      mstore\n      0x20\n      add\n      0x00\n      keccak256\n        /* \"contracts/stake_reward_MLM.sol\":9395:9440  DUSDinvestor[msg.sender].totalWithdraw_reward */\n      0x07\n      add\n      0x00\n        /* \"contracts/stake_reward_MLM.sol\":9395:9454  DUSDinvestor[msg.sender].totalWithdraw_reward+=Total_reward */\n      dup3\n      dup3\n      sload\n      tag_308\n      swap2\n      swap1\n      tag_148\n      jump\t// in\n    tag_308:\n      swap3\n      pop\n      pop\n      dup2\n      swap1\n      sstore\n      pop\n        /* \"contracts/stake_reward_MLM.sol\":9476:9480  true */\n      0x01\n        /* \"contracts/stake_reward_MLM.sol\":9469:9480  return true */\n      swap4\n      pop\n      pop\n      pop\n      pop\n        /* \"contracts/stake_reward_MLM.sol\":8675:9492  function withdrawReward() external returns (bool success){... */\n      swap1\n      jump\t// out\n        /* \"contracts/stake_reward_MLM.sol\":2059:2101  mapping(address=>Data) public DUSDinvestor */\n    tag_115:\n      mstore(0x20, 0x0c)\n      dup1\n      0x00\n      mstore\n      keccak256(0x00, 0x40)\n      0x00\n      swap2\n      pop\n      swap1\n      pop\n      dup1\n      0x02\n      add\n      0x00\n      swap1\n      sload\n      swap1\n      0x0100\n      exp\n      swap1\n      div\n      0xffffffffffffffffffffffffffffffffffffffff\n      and\n      swap1\n      dup1\n      0x04\n      add\n      sload\n      swap1\n      dup1\n      0x05\n      add\n      sload\n      swap1\n      dup1\n      0x06\n      add\n      sload\n      swap1\n      dup1\n      0x07\n      add\n      sload\n      swap1\n      dup1\n      0x08\n      add\n      0x00\n      swap1\n      sload\n      swap1\n      0x0100\n      exp\n      swap1\n      div\n      0xff\n      and\n      swap1\n      dup1\n      0x09\n      add\n      sload\n      swap1\n      pop\n      dup8\n      jump\t// out\n        /* \"contracts/stake_reward_MLM.sol\":993:1018  uint public totalbusiness */\n    tag_119:\n      sload(0x09)\n      dup2\n      jump\t// out\n        /* \"contracts/stake_reward_MLM.sol\":13616:13790  function transferOwnership(address _owner)  public... */\n    tag_123:\n        /* \"contracts/stake_reward_MLM.sol\":13709:13714  owner */\n      0x00\n      dup1\n      sload\n      swap1\n      0x0100\n      exp\n      swap1\n      div\n      0xffffffffffffffffffffffffffffffffffffffff\n      and\n        /* \"contracts/stake_reward_MLM.sol\":13697:13714  msg.sender==owner */\n      0xffffffffffffffffffffffffffffffffffffffff\n      and\n        /* \"contracts/stake_reward_MLM.sol\":13697:13707  msg.sender */\n      caller\n        /* \"contracts/stake_reward_MLM.sol\":13697:13714  msg.sender==owner */\n      0xffffffffffffffffffffffffffffffffffffffff\n      and\n      eq\n        /* \"contracts/stake_reward_MLM.sol\":13689:13751  require(msg.sender==owner,\"only Owner can call this function\") */\n      tag_310\n      jumpi\n      mload(0x40)\n      0x08c379a000000000000000000000000000000000000000000000000000000000\n      dup2\n      mstore\n      0x04\n      add\n      tag_311\n      swap1\n      tag_312\n      jump\t// in\n    tag_311:\n      mload(0x40)\n      dup1\n      swap2\n      sub\n      swap1\n      revert\n    tag_310:\n        /* \"contracts/stake_reward_MLM.sol\":13773:13779  _owner */\n      dup1\n        /* \"contracts/stake_reward_MLM.sol\":13765:13770  owner */\n      0x00\n      dup1\n        /* \"contracts/stake_reward_MLM.sol\":13765:13779  owner = _owner */\n      0x0100\n      exp\n      dup2\n      sload\n      dup2\n      0xffffffffffffffffffffffffffffffffffffffff\n      mul\n      not\n      and\n      swap1\n      dup4\n      0xffffffffffffffffffffffffffffffffffffffff\n      and\n      mul\n      or\n      swap1\n      sstore\n      pop\n        /* \"contracts/stake_reward_MLM.sol\":13616:13790  function transferOwnership(address _owner)  public... */\n      pop\n      jump\t// out\n        /* \"contracts/stake_reward_MLM.sol\":14374:14935  function referralLevel_count() public view returns( uint[] memory arr )... */\n    tag_125:\n        /* \"contracts/stake_reward_MLM.sol\":14426:14443  uint[] memory arr */\n      0x60\n        /* \"contracts/stake_reward_MLM.sol\":14468:14503  uint[] memory referralLevels_reward */\n      0x00\n        /* \"contracts/stake_reward_MLM.sol\":14515:14517  20 */\n      0x14\n        /* \"contracts/stake_reward_MLM.sol\":14504:14518  new uint[](20) */\n      0xffffffffffffffff\n      dup2\n      gt\n      iszero\n      tag_314\n      jumpi\n      tag_315\n      tag_179\n      jump\t// in\n    tag_315:\n    tag_314:\n      mload(0x40)\n      swap1\n      dup1\n      dup3\n      mstore\n      dup1\n      0x20\n      mul\n      0x20\n      add\n      dup3\n      add\n      0x40\n      mstore\n      dup1\n      iszero\n      tag_316\n      jumpi\n      dup2\n      0x20\n      add\n      0x20\n      dup3\n      mul\n      dup1\n      calldatasize\n      dup4\n      calldatacopy\n      dup1\n      dup3\n      add\n      swap2\n      pop\n      pop\n      swap1\n      pop\n    tag_316:\n      pop\n        /* \"contracts/stake_reward_MLM.sol\":14468:14518  uint[] memory referralLevels_reward=new uint[](20) */\n      swap1\n      pop\n        /* \"contracts/stake_reward_MLM.sol\":14536:14542  uint i */\n      0x00\n        /* \"contracts/stake_reward_MLM.sol\":14532:14880  for(uint i=0;i<20;i++)... */\n    tag_317:\n        /* \"contracts/stake_reward_MLM.sol\":14547:14549  20 */\n      0x14\n        /* \"contracts/stake_reward_MLM.sol\":14545:14546  i */\n      dup2\n        /* \"contracts/stake_reward_MLM.sol\":14545:14549  i<20 */\n      lt\n        /* \"contracts/stake_reward_MLM.sol\":14532:14880  for(uint i=0;i<20;i++)... */\n      iszero\n      tag_318\n      jumpi\n        /* \"contracts/stake_reward_MLM.sol\":14637:14638  0 */\n      0x00\n        /* \"contracts/stake_reward_MLM.sol\":14588:14600  DUSDinvestor */\n      0x0c\n        /* \"contracts/stake_reward_MLM.sol\":14588:14612  DUSDinvestor[msg.sender] */\n      0x00\n        /* \"contracts/stake_reward_MLM.sol\":14601:14611  msg.sender */\n      caller\n        /* \"contracts/stake_reward_MLM.sol\":14588:14612  DUSDinvestor[msg.sender] */\n      0xffffffffffffffffffffffffffffffffffffffff\n      and\n      0xffffffffffffffffffffffffffffffffffffffff\n      and\n      dup2\n      mstore\n      0x20\n      add\n      swap1\n      dup2\n      mstore\n      0x20\n      add\n      0x00\n      keccak256\n        /* \"contracts/stake_reward_MLM.sol\":14588:14626  DUSDinvestor[msg.sender].referralLevel */\n      0x03\n      add\n        /* \"contracts/stake_reward_MLM.sol\":14588:14629  DUSDinvestor[msg.sender].referralLevel[i] */\n      0x00\n        /* \"contracts/stake_reward_MLM.sol\":14627:14628  i */\n      dup4\n        /* \"contracts/stake_reward_MLM.sol\":14588:14629  DUSDinvestor[msg.sender].referralLevel[i] */\n      dup2\n      mstore\n      0x20\n      add\n      swap1\n      dup2\n      mstore\n      0x20\n      add\n      0x00\n      keccak256\n        /* \"contracts/stake_reward_MLM.sol\":14588:14636  DUSDinvestor[msg.sender].referralLevel[i].reward */\n      0x00\n      add\n      sload\n        /* \"contracts/stake_reward_MLM.sol\":14588:14638  DUSDinvestor[msg.sender].referralLevel[i].reward>0 */\n      gt\n        /* \"contracts/stake_reward_MLM.sol\":14585:14864  if(DUSDinvestor[msg.sender].referralLevel[i].reward>0)... */\n      iszero\n      tag_320\n      jumpi\n        /* \"contracts/stake_reward_MLM.sol\":14705:14717  DUSDinvestor */\n      0x0c\n        /* \"contracts/stake_reward_MLM.sol\":14705:14729  DUSDinvestor[msg.sender] */\n      0x00\n        /* \"contracts/stake_reward_MLM.sol\":14718:14728  msg.sender */\n      caller\n        /* \"contracts/stake_reward_MLM.sol\":14705:14729  DUSDinvestor[msg.sender] */\n      0xffffffffffffffffffffffffffffffffffffffff\n      and\n      0xffffffffffffffffffffffffffffffffffffffff\n      and\n      dup2\n      mstore\n      0x20\n      add\n      swap1\n      dup2\n      mstore\n      0x20\n      add\n      0x00\n      keccak256\n        /* \"contracts/stake_reward_MLM.sol\":14705:14743  DUSDinvestor[msg.sender].referralLevel */\n      0x03\n      add\n        /* \"contracts/stake_reward_MLM.sol\":14705:14746  DUSDinvestor[msg.sender].referralLevel[i] */\n      0x00\n        /* \"contracts/stake_reward_MLM.sol\":14744:14745  i */\n      dup3\n        /* \"contracts/stake_reward_MLM.sol\":14705:14746  DUSDinvestor[msg.sender].referralLevel[i] */\n      dup2\n      mstore\n      0x20\n      add\n      swap1\n      dup2\n      mstore\n      0x20\n      add\n      0x00\n      keccak256\n        /* \"contracts/stake_reward_MLM.sol\":14705:14752  DUSDinvestor[msg.sender].referralLevel[i].count */\n      0x01\n      add\n      sload\n        /* \"contracts/stake_reward_MLM.sol\":14678:14699  referralLevels_reward */\n      dup3\n        /* \"contracts/stake_reward_MLM.sol\":14700:14701  i */\n      dup3\n        /* \"contracts/stake_reward_MLM.sol\":14678:14702  referralLevels_reward[i] */\n      dup2\n      mload\n      dup2\n      lt\n      tag_321\n      jumpi\n      tag_322\n      tag_190\n      jump\t// in\n    tag_322:\n    tag_321:\n      0x20\n      mul\n      0x20\n      add\n      add\n        /* \"contracts/stake_reward_MLM.sol\":14678:14752  referralLevels_reward[i] = DUSDinvestor[msg.sender].referralLevel[i].count */\n      dup2\n      dup2\n      mstore\n      pop\n      pop\n        /* \"contracts/stake_reward_MLM.sol\":14585:14864  if(DUSDinvestor[msg.sender].referralLevel[i].reward>0)... */\n      jump(tag_323)\n    tag_320:\n        /* \"contracts/stake_reward_MLM.sol\":14843:14844  0 */\n      0x00\n        /* \"contracts/stake_reward_MLM.sol\":14816:14837  referralLevels_reward */\n      dup3\n        /* \"contracts/stake_reward_MLM.sol\":14838:14839  i */\n      dup3\n        /* \"contracts/stake_reward_MLM.sol\":14816:14840  referralLevels_reward[i] */\n      dup2\n      mload\n      dup2\n      lt\n      tag_324\n      jumpi\n      tag_325\n      tag_190\n      jump\t// in\n    tag_325:\n    tag_324:\n      0x20\n      mul\n      0x20\n      add\n      add\n        /* \"contracts/stake_reward_MLM.sol\":14816:14844  referralLevels_reward[i] = 0 */\n      dup2\n      dup2\n      mstore\n      pop\n      pop\n        /* \"contracts/stake_reward_MLM.sol\":14585:14864  if(DUSDinvestor[msg.sender].referralLevel[i].reward>0)... */\n    tag_323:\n        /* \"contracts/stake_reward_MLM.sol\":14550:14553  i++ */\n      dup1\n      dup1\n      tag_326\n      swap1\n      tag_144\n      jump\t// in\n    tag_326:\n      swap2\n      pop\n      pop\n        /* \"contracts/stake_reward_MLM.sol\":14532:14880  for(uint i=0;i<20;i++)... */\n      jump(tag_317)\n    tag_318:\n      pop\n        /* \"contracts/stake_reward_MLM.sol\":14900:14921  referralLevels_reward */\n      dup1\n        /* \"contracts/stake_reward_MLM.sol\":14893:14921  return referralLevels_reward */\n      swap2\n      pop\n      pop\n        /* \"contracts/stake_reward_MLM.sol\":14374:14935  function referralLevel_count() public view returns( uint[] memory arr )... */\n      swap1\n      jump\t// out\n        /* \"contracts/stake_reward_MLM.sol\":670:713  uint public rewardToken=5000000000000000000 */\n    tag_128:\n      sload(0x04)\n      dup2\n      jump\t// out\n        /* \"contracts/stake_reward_MLM.sol\":804:840  uint public max_Stake_amount=5000000 */\n    tag_131:\n      sload(0x06)\n      dup2\n      jump\t// out\n        /* \"contracts/stake_reward_MLM.sol\":2252:3915  function sendRewardToDUSDReferrals(address investor,uint _investedAmount)  internal  //this is the freferral function to transfer the reawards to referrals... */\n    tag_168:\n        /* \"contracts/stake_reward_MLM.sol\":2432:2444  address temp */\n      0x00\n        /* \"contracts/stake_reward_MLM.sol\":2447:2455  investor */\n      dup3\n        /* \"contracts/stake_reward_MLM.sol\":2432:2455  address temp = investor */\n      swap1\n      pop\n        /* \"contracts/stake_reward_MLM.sol\":2476:2500  uint[] memory percentage */\n      0x00\n        /* \"contracts/stake_reward_MLM.sol\":2514:2515  5 */\n      0x05\n        /* \"contracts/stake_reward_MLM.sol\":2503:2516  new uint[](5) */\n      0xffffffffffffffff\n      dup2\n      gt\n      iszero\n      tag_328\n      jumpi\n      tag_329\n      tag_179\n      jump\t// in\n    tag_329:\n    tag_328:\n      mload(0x40)\n      swap1\n      dup1\n      dup3\n      mstore\n      dup1\n      0x20\n      mul\n      0x20\n      add\n      dup3\n      add\n      0x40\n      mstore\n      dup1\n      iszero\n      tag_330\n      jumpi\n      dup2\n      0x20\n      add\n      0x20\n      dup3\n      mul\n      dup1\n      calldatasize\n      dup4\n      calldatacopy\n      dup1\n      dup3\n      add\n      swap2\n      pop\n      pop\n      swap1\n      pop\n    tag_330:\n      pop\n        /* \"contracts/stake_reward_MLM.sol\":2476:2516  uint[] memory percentage = new uint[](5) */\n      swap1\n      pop\n        /* \"contracts/stake_reward_MLM.sol\":2546:2547  5 */\n      0x05\n        /* \"contracts/stake_reward_MLM.sol\":2530:2540  percentage */\n      dup2\n        /* \"contracts/stake_reward_MLM.sol\":2541:2542  0 */\n      0x00\n        /* \"contracts/stake_reward_MLM.sol\":2530:2543  percentage[0] */\n      dup2\n      mload\n      dup2\n      lt\n      tag_331\n      jumpi\n      tag_332\n      tag_190\n      jump\t// in\n    tag_332:\n    tag_331:\n      0x20\n      mul\n      0x20\n      add\n      add\n        /* \"contracts/stake_reward_MLM.sol\":2530:2547  percentage[0] = 5 */\n      dup2\n      dup2\n      mstore\n      pop\n      pop\n        /* \"contracts/stake_reward_MLM.sol\":2577:2578  3 */\n      0x03\n        /* \"contracts/stake_reward_MLM.sol\":2561:2571  percentage */\n      dup2\n        /* \"contracts/stake_reward_MLM.sol\":2572:2573  1 */\n      0x01\n        /* \"contracts/stake_reward_MLM.sol\":2561:2574  percentage[1] */\n      dup2\n      mload\n      dup2\n      lt\n      tag_333\n      jumpi\n      tag_334\n      tag_190\n      jump\t// in\n    tag_334:\n    tag_333:\n      0x20\n      mul\n      0x20\n      add\n      add\n        /* \"contracts/stake_reward_MLM.sol\":2561:2578  percentage[1] = 3 */\n      dup2\n      dup2\n      mstore\n      pop\n      pop\n        /* \"contracts/stake_reward_MLM.sol\":2608:2609  2 */\n      0x02\n        /* \"contracts/stake_reward_MLM.sol\":2592:2602  percentage */\n      dup2\n        /* \"contracts/stake_reward_MLM.sol\":2603:2604  2 */\n      0x02\n        /* \"contracts/stake_reward_MLM.sol\":2592:2605  percentage[2] */\n      dup2\n      mload\n      dup2\n      lt\n      tag_335\n      jumpi\n      tag_336\n      tag_190\n      jump\t// in\n    tag_336:\n    tag_335:\n      0x20\n      mul\n      0x20\n      add\n      add\n        /* \"contracts/stake_reward_MLM.sol\":2592:2609  percentage[2] = 2 */\n      dup2\n      dup2\n      mstore\n      pop\n      pop\n        /* \"contracts/stake_reward_MLM.sol\":2639:2640  1 */\n      0x01\n        /* \"contracts/stake_reward_MLM.sol\":2623:2633  percentage */\n      dup2\n        /* \"contracts/stake_reward_MLM.sol\":2634:2635  3 */\n      0x03\n        /* \"contracts/stake_reward_MLM.sol\":2623:2636  percentage[3] */\n      dup2\n      mload\n      dup2\n      lt\n      tag_337\n      jumpi\n      tag_338\n      tag_190\n      jump\t// in\n    tag_338:\n    tag_337:\n      0x20\n      mul\n      0x20\n      add\n      add\n        /* \"contracts/stake_reward_MLM.sol\":2623:2640  percentage[3] = 1 */\n      dup2\n      dup2\n      mstore\n      pop\n      pop\n        /* \"contracts/stake_reward_MLM.sol\":2670:2671  1 */\n      0x01\n        /* \"contracts/stake_reward_MLM.sol\":2654:2664  percentage */\n      dup2\n        /* \"contracts/stake_reward_MLM.sol\":2665:2666  4 */\n      0x04\n        /* \"contracts/stake_reward_MLM.sol\":2654:2667  percentage[4] */\n      dup2\n      mload\n      dup2\n      lt\n      tag_339\n      jumpi\n      tag_340\n      tag_190\n      jump\t// in\n    tag_340:\n    tag_339:\n      0x20\n      mul\n      0x20\n      add\n      add\n        /* \"contracts/stake_reward_MLM.sol\":2654:2671  percentage[4] = 1 */\n      dup2\n      dup2\n      mstore\n      pop\n      pop\n        /* \"contracts/stake_reward_MLM.sol\":2687:2693  uint j */\n      0x00\n        /* \"contracts/stake_reward_MLM.sol\":2714:2720  uint i */\n      dup1\n        /* \"contracts/stake_reward_MLM.sol\":2721:2722  0 */\n      0x00\n        /* \"contracts/stake_reward_MLM.sol\":2714:2722  uint i=0 */\n      swap1\n      pop\n        /* \"contracts/stake_reward_MLM.sol\":2710:3904  for(uint i=0;i<20;i++)... */\n    tag_341:\n        /* \"contracts/stake_reward_MLM.sol\":2725:2727  20 */\n      0x14\n        /* \"contracts/stake_reward_MLM.sol\":2723:2724  i */\n      dup2\n        /* \"contracts/stake_reward_MLM.sol\":2723:2727  i<20 */\n      lt\n        /* \"contracts/stake_reward_MLM.sol\":2710:3904  for(uint i=0;i<20;i++)... */\n      iszero\n      tag_342\n      jumpi\n        /* \"contracts/stake_reward_MLM.sol\":2770:2771  0 */\n      0x00\n        /* \"contracts/stake_reward_MLM.sol\":2767:2768  i */\n      dup2\n        /* \"contracts/stake_reward_MLM.sol\":2767:2771  i==0 */\n      eq\n        /* \"contracts/stake_reward_MLM.sol\":2764:3195  if(i==0)... */\n      iszero\n      tag_344\n      jumpi\n        /* \"contracts/stake_reward_MLM.sol\":2813:2814  0 */\n      0x00\n        /* \"contracts/stake_reward_MLM.sol\":2811:2814  j=0 */\n      swap2\n      pop\n        /* \"contracts/stake_reward_MLM.sol\":2764:3195  if(i==0)... */\n      jump(tag_345)\n    tag_344:\n        /* \"contracts/stake_reward_MLM.sol\":2861:2862  1 */\n      0x01\n        /* \"contracts/stake_reward_MLM.sol\":2858:2859  i */\n      dup2\n        /* \"contracts/stake_reward_MLM.sol\":2858:2862  i==1 */\n      eq\n        /* \"contracts/stake_reward_MLM.sol\":2855:3195  if(i==1)... */\n      iszero\n      tag_346\n      jumpi\n        /* \"contracts/stake_reward_MLM.sol\":2904:2905  1 */\n      0x01\n        /* \"contracts/stake_reward_MLM.sol\":2902:2905  j=1 */\n      swap2\n      pop\n        /* \"contracts/stake_reward_MLM.sol\":2855:3195  if(i==1)... */\n      jump(tag_347)\n    tag_346:\n        /* \"contracts/stake_reward_MLM.sol\":2952:2953  2 */\n      0x02\n        /* \"contracts/stake_reward_MLM.sol\":2949:2950  i */\n      dup2\n        /* \"contracts/stake_reward_MLM.sol\":2949:2953  i==2 */\n      eq\n        /* \"contracts/stake_reward_MLM.sol\":2946:3195  if(i==2)... */\n      iszero\n      tag_348\n      jumpi\n        /* \"contracts/stake_reward_MLM.sol\":2995:2996  2 */\n      0x02\n        /* \"contracts/stake_reward_MLM.sol\":2993:2996  j=2 */\n      swap2\n      pop\n        /* \"contracts/stake_reward_MLM.sol\":2946:3195  if(i==2)... */\n      jump(tag_349)\n    tag_348:\n        /* \"contracts/stake_reward_MLM.sol\":3042:3043  7 */\n      0x07\n        /* \"contracts/stake_reward_MLM.sol\":3040:3041  i */\n      dup2\n        /* \"contracts/stake_reward_MLM.sol\":3040:3043  i>7 */\n      gt\n        /* \"contracts/stake_reward_MLM.sol\":3037:3195  if(i>7)... */\n      iszero\n      tag_350\n      jumpi\n        /* \"contracts/stake_reward_MLM.sol\":3085:3086  4 */\n      0x04\n        /* \"contracts/stake_reward_MLM.sol\":3083:3086  j=4 */\n      swap2\n      pop\n        /* \"contracts/stake_reward_MLM.sol\":3037:3195  if(i>7)... */\n      jump(tag_351)\n    tag_350:\n        /* \"contracts/stake_reward_MLM.sol\":3132:3133  2 */\n      0x02\n        /* \"contracts/stake_reward_MLM.sol\":3130:3131  i */\n      dup2\n        /* \"contracts/stake_reward_MLM.sol\":3130:3133  i>2 */\n      gt\n        /* \"contracts/stake_reward_MLM.sol\":3127:3195  if(i>2)... */\n      iszero\n      tag_352\n      jumpi\n        /* \"contracts/stake_reward_MLM.sol\":3175:3176  3 */\n      0x03\n        /* \"contracts/stake_reward_MLM.sol\":3173:3176  j=3 */\n      swap2\n      pop\n        /* \"contracts/stake_reward_MLM.sol\":3127:3195  if(i>2)... */\n    tag_352:\n        /* \"contracts/stake_reward_MLM.sol\":3037:3195  if(i>7)... */\n    tag_351:\n        /* \"contracts/stake_reward_MLM.sol\":2946:3195  if(i==2)... */\n    tag_349:\n        /* \"contracts/stake_reward_MLM.sol\":2855:3195  if(i==1)... */\n    tag_347:\n        /* \"contracts/stake_reward_MLM.sol\":2764:3195  if(i==0)... */\n    tag_345:\n        /* \"contracts/stake_reward_MLM.sol\":3273:3274  0 */\n      0x00\n        /* \"contracts/stake_reward_MLM.sol\":3232:3275  DUSDinvestor[temp].referralFrom!=address(0) */\n      0xffffffffffffffffffffffffffffffffffffffff\n      and\n        /* \"contracts/stake_reward_MLM.sol\":3232:3244  DUSDinvestor */\n      0x0c\n        /* \"contracts/stake_reward_MLM.sol\":3232:3250  DUSDinvestor[temp] */\n      0x00\n        /* \"contracts/stake_reward_MLM.sol\":3245:3249  temp */\n      dup7\n        /* \"contracts/stake_reward_MLM.sol\":3232:3250  DUSDinvestor[temp] */\n      0xffffffffffffffffffffffffffffffffffffffff\n      and\n      0xffffffffffffffffffffffffffffffffffffffff\n      and\n      dup2\n      mstore\n      0x20\n      add\n      swap1\n      dup2\n      mstore\n      0x20\n      add\n      0x00\n      keccak256\n        /* \"contracts/stake_reward_MLM.sol\":3232:3263  DUSDinvestor[temp].referralFrom */\n      0x02\n      add\n      0x00\n      swap1\n      sload\n      swap1\n      0x0100\n      exp\n      swap1\n      div\n      0xffffffffffffffffffffffffffffffffffffffff\n      and\n        /* \"contracts/stake_reward_MLM.sol\":3232:3275  DUSDinvestor[temp].referralFrom!=address(0) */\n      0xffffffffffffffffffffffffffffffffffffffff\n      and\n      eq\n        /* \"contracts/stake_reward_MLM.sol\":3229:3889  if(DUSDinvestor[temp].referralFrom!=address(0))... */\n      tag_353\n      jumpi\n        /* \"contracts/stake_reward_MLM.sol\":3321:3333  DUSDinvestor */\n      0x0c\n        /* \"contracts/stake_reward_MLM.sol\":3321:3339  DUSDinvestor[temp] */\n      0x00\n        /* \"contracts/stake_reward_MLM.sol\":3334:3338  temp */\n      dup6\n        /* \"contracts/stake_reward_MLM.sol\":3321:3339  DUSDinvestor[temp] */\n      0xffffffffffffffffffffffffffffffffffffffff\n      and\n      0xffffffffffffffffffffffffffffffffffffffff\n      and\n      dup2\n      mstore\n      0x20\n      add\n      swap1\n      dup2\n      mstore\n      0x20\n      add\n      0x00\n      keccak256\n        /* \"contracts/stake_reward_MLM.sol\":3321:3352  DUSDinvestor[temp].referralFrom */\n      0x02\n      add\n      0x00\n      swap1\n      sload\n      swap1\n      0x0100\n      exp\n      swap1\n      div\n      0xffffffffffffffffffffffffffffffffffffffff\n      and\n        /* \"contracts/stake_reward_MLM.sol\":3316:3352  temp=DUSDinvestor[temp].referralFrom */\n      swap4\n      pop\n        /* \"contracts/stake_reward_MLM.sol\":3374:3386  uint reward1 */\n      0x00\n        /* \"contracts/stake_reward_MLM.sol\":3435:3438  100 */\n      0x64\n        /* \"contracts/stake_reward_MLM.sol\":3418:3433  _investedAmount */\n      dup7\n        /* \"contracts/stake_reward_MLM.sol\":3405:3414  100000000 */\n      0x05f5e100\n        /* \"contracts/stake_reward_MLM.sol\":3391:3401  percentage */\n      dup7\n        /* \"contracts/stake_reward_MLM.sol\":3402:3403  j */\n      dup7\n        /* \"contracts/stake_reward_MLM.sol\":3391:3404  percentage[j] */\n      dup2\n      mload\n      dup2\n      lt\n      tag_354\n      jumpi\n      tag_355\n      tag_190\n      jump\t// in\n    tag_355:\n    tag_354:\n      0x20\n      mul\n      0x20\n      add\n      add\n      mload\n        /* \"contracts/stake_reward_MLM.sol\":3391:3414  percentage[j]*100000000 */\n      tag_356\n      swap2\n      swap1\n      tag_154\n      jump\t// in\n    tag_356:\n        /* \"contracts/stake_reward_MLM.sol\":3390:3433  (percentage[j]*100000000) * _investedAmount */\n      tag_357\n      swap2\n      swap1\n      tag_154\n      jump\t// in\n    tag_357:\n        /* \"contracts/stake_reward_MLM.sol\":3389:3438  ((percentage[j]*100000000) * _investedAmount)/100 */\n      tag_358\n      swap2\n      swap1\n      tag_203\n      jump\t// in\n    tag_358:\n        /* \"contracts/stake_reward_MLM.sol\":3374:3438  uint reward1 = ((percentage[j]*100000000) * _investedAmount)/100 */\n      swap1\n      pop\n        /* \"contracts/stake_reward_MLM.sol\":3466:3467  4 */\n      0x04\n        /* \"contracts/stake_reward_MLM.sol\":3463:3464  j */\n      dup4\n        /* \"contracts/stake_reward_MLM.sol\":3463:3467  j==4 */\n      eq\n        /* \"contracts/stake_reward_MLM.sol\":3460:3557  if(j==4)... */\n      iszero\n      tag_359\n      jumpi\n        /* \"contracts/stake_reward_MLM.sol\":3533:3534  2 */\n      0x02\n        /* \"contracts/stake_reward_MLM.sol\":3525:3532  reward1 */\n      dup2\n        /* \"contracts/stake_reward_MLM.sol\":3525:3534  reward1/2 */\n      tag_360\n      swap2\n      swap1\n      tag_203\n      jump\t// in\n    tag_360:\n        /* \"contracts/stake_reward_MLM.sol\":3515:3534  reward1 = reward1/2 */\n      swap1\n      pop\n        /* \"contracts/stake_reward_MLM.sol\":3460:3557  if(j==4)... */\n    tag_359:\n        /* \"contracts/stake_reward_MLM.sol\":3627:3638  SMCcontract */\n      0x01\n      0x00\n      swap1\n      sload\n      swap1\n      0x0100\n      exp\n      swap1\n      div\n      0xffffffffffffffffffffffffffffffffffffffff\n      and\n        /* \"contracts/stake_reward_MLM.sol\":3622:3648  DUSD(SMCcontract).transfer */\n      0xffffffffffffffffffffffffffffffffffffffff\n      and\n      0xa9059cbb\n        /* \"contracts/stake_reward_MLM.sol\":3649:3653  temp */\n      dup7\n        /* \"contracts/stake_reward_MLM.sol\":3654:3661  reward1 */\n      dup4\n        /* \"contracts/stake_reward_MLM.sol\":3622:3662  DUSD(SMCcontract).transfer(temp,reward1) */\n      mload(0x40)\n      dup4\n      0xffffffff\n      and\n      0xe0\n      shl\n      dup2\n      mstore\n      0x04\n      add\n      tag_361\n      swap3\n      swap2\n      swap1\n      tag_251\n      jump\t// in\n    tag_361:\n      0x20\n      mload(0x40)\n      dup1\n      dup4\n      sub\n      dup2\n      0x00\n      dup8\n      dup1\n      extcodesize\n      iszero\n      dup1\n      iszero\n      tag_362\n      jumpi\n      0x00\n      dup1\n      revert\n    tag_362:\n      pop\n      gas\n      call\n      iszero\n      dup1\n      iszero\n      tag_364\n      jumpi\n      returndatasize\n      0x00\n      dup1\n      returndatacopy\n      revert(0x00, returndatasize)\n    tag_364:\n      pop\n      pop\n      pop\n      pop\n      mload(0x40)\n      returndatasize\n      not(0x1f)\n      0x1f\n      dup3\n      add\n      and\n      dup3\n      add\n      dup1\n      0x40\n      mstore\n      pop\n      dup2\n      add\n      swap1\n      tag_365\n      swap2\n      swap1\n      tag_161\n      jump\t// in\n    tag_365:\n      pop\n        /* \"contracts/stake_reward_MLM.sol\":3728:3735  reward1 */\n      dup1\n        /* \"contracts/stake_reward_MLM.sol\":3684:3696  DUSDinvestor */\n      0x0c\n        /* \"contracts/stake_reward_MLM.sol\":3684:3702  DUSDinvestor[temp] */\n      0x00\n        /* \"contracts/stake_reward_MLM.sol\":3697:3701  temp */\n      dup8\n        /* \"contracts/stake_reward_MLM.sol\":3684:3702  DUSDinvestor[temp] */\n      0xffffffffffffffffffffffffffffffffffffffff\n      and\n      0xffffffffffffffffffffffffffffffffffffffff\n      and\n      dup2\n      mstore\n      0x20\n      add\n      swap1\n      dup2\n      mstore\n      0x20\n      add\n      0x00\n      keccak256\n        /* \"contracts/stake_reward_MLM.sol\":3684:3716  DUSDinvestor[temp].referralLevel */\n      0x03\n      add\n        /* \"contracts/stake_reward_MLM.sol\":3684:3719  DUSDinvestor[temp].referralLevel[i] */\n      0x00\n        /* \"contracts/stake_reward_MLM.sol\":3717:3718  i */\n      dup5\n        /* \"contracts/stake_reward_MLM.sol\":3684:3719  DUSDinvestor[temp].referralLevel[i] */\n      dup2\n      mstore\n      0x20\n      add\n      swap1\n      dup2\n      mstore\n      0x20\n      add\n      0x00\n      keccak256\n        /* \"contracts/stake_reward_MLM.sol\":3684:3726  DUSDinvestor[temp].referralLevel[i].reward */\n      0x00\n      add\n      0x00\n        /* \"contracts/stake_reward_MLM.sol\":3684:3735  DUSDinvestor[temp].referralLevel[i].reward+=reward1 */\n      dup3\n      dup3\n      sload\n      tag_366\n      swap2\n      swap1\n      tag_148\n      jump\t// in\n    tag_366:\n      swap3\n      pop\n      pop\n      dup2\n      swap1\n      sstore\n      pop\n        /* \"contracts/stake_reward_MLM.sol\":3757:3769  DUSDinvestor */\n      0x0c\n        /* \"contracts/stake_reward_MLM.sol\":3757:3775  DUSDinvestor[temp] */\n      0x00\n        /* \"contracts/stake_reward_MLM.sol\":3770:3774  temp */\n      dup7\n        /* \"contracts/stake_reward_MLM.sol\":3757:3775  DUSDinvestor[temp] */\n      0xffffffffffffffffffffffffffffffffffffffff\n      and\n      0xffffffffffffffffffffffffffffffffffffffff\n      and\n      dup2\n      mstore\n      0x20\n      add\n      swap1\n      dup2\n      mstore\n      0x20\n      add\n      0x00\n      keccak256\n        /* \"contracts/stake_reward_MLM.sol\":3757:3789  DUSDinvestor[temp].referralLevel */\n      0x03\n      add\n        /* \"contracts/stake_reward_MLM.sol\":3757:3792  DUSDinvestor[temp].referralLevel[i] */\n      0x00\n        /* \"contracts/stake_reward_MLM.sol\":3790:3791  i */\n      dup4\n        /* \"contracts/stake_reward_MLM.sol\":3757:3792  DUSDinvestor[temp].referralLevel[i] */\n      dup2\n      mstore\n      0x20\n      add\n      swap1\n      dup2\n      mstore\n      0x20\n      add\n      0x00\n      keccak256\n        /* \"contracts/stake_reward_MLM.sol\":3757:3798  DUSDinvestor[temp].referralLevel[i].count */\n      0x01\n      add\n      0x00\n        /* \"contracts/stake_reward_MLM.sol\":3757:3800  DUSDinvestor[temp].referralLevel[i].count++ */\n      dup2\n      sload\n      dup1\n      swap3\n      swap2\n      swap1\n      tag_367\n      swap1\n      tag_144\n      jump\t// in\n    tag_367:\n      swap2\n      swap1\n      pop\n      sstore\n      pop\n        /* \"contracts/stake_reward_MLM.sol\":3293:3821  {... */\n      pop\n        /* \"contracts/stake_reward_MLM.sol\":3229:3889  if(DUSDinvestor[temp].referralFrom!=address(0))... */\n      jump(tag_368)\n    tag_353:\n        /* \"contracts/stake_reward_MLM.sol\":3865:3870  break */\n      jump(tag_342)\n        /* \"contracts/stake_reward_MLM.sol\":3229:3889  if(DUSDinvestor[temp].referralFrom!=address(0))... */\n    tag_368:\n        /* \"contracts/stake_reward_MLM.sol\":2728:2731  i++ */\n      dup1\n      dup1\n      tag_369\n      swap1\n      tag_144\n      jump\t// in\n    tag_369:\n      swap2\n      pop\n      pop\n        /* \"contracts/stake_reward_MLM.sol\":2710:3904  for(uint i=0;i<20;i++)... */\n      jump(tag_341)\n    tag_342:\n      pop\n        /* \"contracts/stake_reward_MLM.sol\":2416:3915  { ... */\n      pop\n      pop\n      pop\n        /* \"contracts/stake_reward_MLM.sol\":2252:3915  function sendRewardToDUSDReferrals(address investor,uint _investedAmount)  internal  //this is the freferral function to transfer the reawards to referrals... */\n      pop\n      pop\n      jump\t// out\n        /* \"contracts/stake_reward_MLM.sol\":7460:8662  function get_investor_Reward(address investor) view internal returns(uint){ //this function is get the total reward balance of the investor... */\n    tag_226:\n        /* \"contracts/stake_reward_MLM.sol\":7529:7533  uint */\n      0x00\n        /* \"contracts/stake_reward_MLM.sol\":7612:7628  uint totalReward */\n      dup1\n        /* \"contracts/stake_reward_MLM.sol\":7642:7654  uint depTime */\n      0x00\n        /* \"contracts/stake_reward_MLM.sol\":7668:7676  uint rew */\n      dup1\n        /* \"contracts/stake_reward_MLM.sol\":7690:7699  uint temp */\n      0x00\n        /* \"contracts/stake_reward_MLM.sol\":7702:7714  DUSDinvestor */\n      0x0c\n        /* \"contracts/stake_reward_MLM.sol\":7702:7724  DUSDinvestor[investor] */\n      0x00\n        /* \"contracts/stake_reward_MLM.sol\":7715:7723  investor */\n      dup8\n        /* \"contracts/stake_reward_MLM.sol\":7702:7724  DUSDinvestor[investor] */\n      0xffffffffffffffffffffffffffffffffffffffff\n      and\n      0xffffffffffffffffffffffffffffffffffffffff\n      and\n      dup2\n      mstore\n      0x20\n      add\n      swap1\n      dup2\n      mstore\n      0x20\n      add\n      0x00\n      keccak256\n        /* \"contracts/stake_reward_MLM.sol\":7702:7739  DUSDinvestor[investor].noOfInvestment */\n      0x05\n      add\n      sload\n        /* \"contracts/stake_reward_MLM.sol\":7690:7739  uint temp = DUSDinvestor[investor].noOfInvestment */\n      swap1\n      pop\n        /* \"contracts/stake_reward_MLM.sol\":7758:7764  uint i */\n      0x00\n        /* \"contracts/stake_reward_MLM.sol\":7753:8547  for( uint i = 0;i < temp;i++)... */\n    tag_371:\n        /* \"contracts/stake_reward_MLM.sol\":7773:7777  temp */\n      dup2\n        /* \"contracts/stake_reward_MLM.sol\":7769:7770  i */\n      dup2\n        /* \"contracts/stake_reward_MLM.sol\":7769:7777  i < temp */\n      lt\n        /* \"contracts/stake_reward_MLM.sol\":7753:8547  for( uint i = 0;i < temp;i++)... */\n      iszero\n      tag_372\n      jumpi\n        /* \"contracts/stake_reward_MLM.sol\":7820:7832  DUSDinvestor */\n      0x0c\n        /* \"contracts/stake_reward_MLM.sol\":7820:7842  DUSDinvestor[investor] */\n      0x00\n        /* \"contracts/stake_reward_MLM.sol\":7833:7841  investor */\n      dup9\n        /* \"contracts/stake_reward_MLM.sol\":7820:7842  DUSDinvestor[investor] */\n      0xffffffffffffffffffffffffffffffffffffffff\n      and\n      0xffffffffffffffffffffffffffffffffffffffff\n      and\n      dup2\n      mstore\n      0x20\n      add\n      swap1\n      dup2\n      mstore\n      0x20\n      add\n      0x00\n      keccak256\n        /* \"contracts/stake_reward_MLM.sol\":7820:7853  DUSDinvestor[investor].investment */\n      0x00\n      add\n        /* \"contracts/stake_reward_MLM.sol\":7820:7856  DUSDinvestor[investor].investment[i] */\n      0x00\n        /* \"contracts/stake_reward_MLM.sol\":7854:7855  i */\n      dup3\n        /* \"contracts/stake_reward_MLM.sol\":7820:7856  DUSDinvestor[investor].investment[i] */\n      dup2\n      mstore\n      0x20\n      add\n      swap1\n      dup2\n      mstore\n      0x20\n      add\n      0x00\n      keccak256\n        /* \"contracts/stake_reward_MLM.sol\":7820:7864  DUSDinvestor[investor].investment[i].unstake */\n      0x05\n      add\n      0x00\n      swap1\n      sload\n      swap1\n      0x0100\n      exp\n      swap1\n      div\n      0xff\n      and\n        /* \"contracts/stake_reward_MLM.sol\":7816:8168  if(!DUSDinvestor[investor].investment[i].unstake)... */\n      tag_374\n      jumpi\n        /* \"contracts/stake_reward_MLM.sol\":7931:7943  DUSDinvestor */\n      0x0c\n        /* \"contracts/stake_reward_MLM.sol\":7931:7953  DUSDinvestor[investor] */\n      0x00\n        /* \"contracts/stake_reward_MLM.sol\":7944:7952  investor */\n      dup9\n        /* \"contracts/stake_reward_MLM.sol\":7931:7953  DUSDinvestor[investor] */\n      0xffffffffffffffffffffffffffffffffffffffff\n      and\n      0xffffffffffffffffffffffffffffffffffffffff\n      and\n      dup2\n      mstore\n      0x20\n      add\n      swap1\n      dup2\n      mstore\n      0x20\n      add\n      0x00\n      keccak256\n        /* \"contracts/stake_reward_MLM.sol\":7931:7964  DUSDinvestor[investor].investment */\n      0x00\n      add\n        /* \"contracts/stake_reward_MLM.sol\":7931:7967  DUSDinvestor[investor].investment[i] */\n      0x00\n        /* \"contracts/stake_reward_MLM.sol\":7965:7966  i */\n      dup3\n        /* \"contracts/stake_reward_MLM.sol\":7931:7967  DUSDinvestor[investor].investment[i] */\n      dup2\n      mstore\n      0x20\n      add\n      swap1\n      dup2\n      mstore\n      0x20\n      add\n      0x00\n      keccak256\n        /* \"contracts/stake_reward_MLM.sol\":7931:7979  DUSDinvestor[investor].investment[i].DepositTime */\n      0x02\n      add\n      sload\n        /* \"contracts/stake_reward_MLM.sol\":7913:7928  block.timestamp */\n      timestamp\n        /* \"contracts/stake_reward_MLM.sol\":7913:7979  block.timestamp - DUSDinvestor[investor].investment[i].DepositTime */\n      tag_375\n      swap2\n      swap1\n      tag_199\n      jump\t// in\n    tag_375:\n        /* \"contracts/stake_reward_MLM.sol\":7904:7979  depTime =block.timestamp - DUSDinvestor[investor].investment[i].DepositTime */\n      swap4\n      pop\n        /* \"contracts/stake_reward_MLM.sol\":7816:8168  if(!DUSDinvestor[investor].investment[i].unstake)... */\n      jump(tag_376)\n    tag_374:\n        /* \"contracts/stake_reward_MLM.sol\":8101:8113  DUSDinvestor */\n      0x0c\n        /* \"contracts/stake_reward_MLM.sol\":8101:8123  DUSDinvestor[investor] */\n      0x00\n        /* \"contracts/stake_reward_MLM.sol\":8114:8122  investor */\n      dup9\n        /* \"contracts/stake_reward_MLM.sol\":8101:8123  DUSDinvestor[investor] */\n      0xffffffffffffffffffffffffffffffffffffffff\n      and\n      0xffffffffffffffffffffffffffffffffffffffff\n      and\n      dup2\n      mstore\n      0x20\n      add\n      swap1\n      dup2\n      mstore\n      0x20\n      add\n      0x00\n      keccak256\n        /* \"contracts/stake_reward_MLM.sol\":8101:8134  DUSDinvestor[investor].investment */\n      0x00\n      add\n        /* \"contracts/stake_reward_MLM.sol\":8101:8137  DUSDinvestor[investor].investment[i] */\n      0x00\n        /* \"contracts/stake_reward_MLM.sol\":8135:8136  i */\n      dup3\n        /* \"contracts/stake_reward_MLM.sol\":8101:8137  DUSDinvestor[investor].investment[i] */\n      dup2\n      mstore\n      0x20\n      add\n      swap1\n      dup2\n      mstore\n      0x20\n      add\n      0x00\n      keccak256\n        /* \"contracts/stake_reward_MLM.sol\":8101:8149  DUSDinvestor[investor].investment[i].DepositTime */\n      0x02\n      add\n      sload\n        /* \"contracts/stake_reward_MLM.sol\":8050:8062  DUSDinvestor */\n      0x0c\n        /* \"contracts/stake_reward_MLM.sol\":8050:8072  DUSDinvestor[investor] */\n      0x00\n        /* \"contracts/stake_reward_MLM.sol\":8063:8071  investor */\n      dup10\n        /* \"contracts/stake_reward_MLM.sol\":8050:8072  DUSDinvestor[investor] */\n      0xffffffffffffffffffffffffffffffffffffffff\n      and\n      0xffffffffffffffffffffffffffffffffffffffff\n      and\n      dup2\n      mstore\n      0x20\n      add\n      swap1\n      dup2\n      mstore\n      0x20\n      add\n      0x00\n      keccak256\n        /* \"contracts/stake_reward_MLM.sol\":8050:8083  DUSDinvestor[investor].investment */\n      0x00\n      add\n        /* \"contracts/stake_reward_MLM.sol\":8050:8086  DUSDinvestor[investor].investment[i] */\n      0x00\n        /* \"contracts/stake_reward_MLM.sol\":8084:8085  i */\n      dup4\n        /* \"contracts/stake_reward_MLM.sol\":8050:8086  DUSDinvestor[investor].investment[i] */\n      dup2\n      mstore\n      0x20\n      add\n      swap1\n      dup2\n      mstore\n      0x20\n      add\n      0x00\n      keccak256\n        /* \"contracts/stake_reward_MLM.sol\":8050:8098  DUSDinvestor[investor].investment[i].unstakeTime */\n      0x04\n      add\n      sload\n        /* \"contracts/stake_reward_MLM.sol\":8050:8149  DUSDinvestor[investor].investment[i].unstakeTime - DUSDinvestor[investor].investment[i].DepositTime */\n      tag_377\n      swap2\n      swap1\n      tag_199\n      jump\t// in\n    tag_377:\n        /* \"contracts/stake_reward_MLM.sol\":8041:8149  depTime =DUSDinvestor[investor].investment[i].unstakeTime - DUSDinvestor[investor].investment[i].DepositTime */\n      swap4\n      pop\n        /* \"contracts/stake_reward_MLM.sol\":7816:8168  if(!DUSDinvestor[investor].investment[i].unstake)... */\n    tag_376:\n        /* \"contracts/stake_reward_MLM.sol\":8201:8203  60 */\n      0x3c\n        /* \"contracts/stake_reward_MLM.sol\":8193:8200  depTime */\n      dup5\n        /* \"contracts/stake_reward_MLM.sol\":8193:8203  depTime/60 */\n      tag_378\n      swap2\n      swap1\n      tag_203\n      jump\t// in\n    tag_378:\n        /* \"contracts/stake_reward_MLM.sol\":8185:8203  depTime=depTime/60 */\n      swap4\n      pop\n        /* \"contracts/stake_reward_MLM.sol\":8240:8241  0 */\n      0x00\n        /* \"contracts/stake_reward_MLM.sol\":8232:8239  depTime */\n      dup5\n        /* \"contracts/stake_reward_MLM.sol\":8232:8241  depTime>0 */\n      gt\n        /* \"contracts/stake_reward_MLM.sol\":8229:8533  if(depTime>0)... */\n      iszero\n      tag_379\n      jumpi\n        /* \"contracts/stake_reward_MLM.sol\":8458:8463  10000 */\n      0x2710\n        /* \"contracts/stake_reward_MLM.sol\":8454:8456  50 */\n      0x32\n        /* \"contracts/stake_reward_MLM.sol\":8401:8413  DUSDinvestor */\n      0x0c\n        /* \"contracts/stake_reward_MLM.sol\":8401:8423  DUSDinvestor[investor] */\n      0x00\n        /* \"contracts/stake_reward_MLM.sol\":8414:8422  investor */\n      dup11\n        /* \"contracts/stake_reward_MLM.sol\":8401:8423  DUSDinvestor[investor] */\n      0xffffffffffffffffffffffffffffffffffffffff\n      and\n      0xffffffffffffffffffffffffffffffffffffffff\n      and\n      dup2\n      mstore\n      0x20\n      add\n      swap1\n      dup2\n      mstore\n      0x20\n      add\n      0x00\n      keccak256\n        /* \"contracts/stake_reward_MLM.sol\":8401:8434  DUSDinvestor[investor].investment */\n      0x00\n      add\n        /* \"contracts/stake_reward_MLM.sol\":8401:8437  DUSDinvestor[investor].investment[i] */\n      0x00\n        /* \"contracts/stake_reward_MLM.sol\":8435:8436  i */\n      dup5\n        /* \"contracts/stake_reward_MLM.sol\":8401:8437  DUSDinvestor[investor].investment[i] */\n      dup2\n      mstore\n      0x20\n      add\n      swap1\n      dup2\n      mstore\n      0x20\n      add\n      0x00\n      keccak256\n        /* \"contracts/stake_reward_MLM.sol\":8401:8452  DUSDinvestor[investor].investment[i].investedAmount */\n      0x00\n      add\n      sload\n        /* \"contracts/stake_reward_MLM.sol\":8400:8456  (DUSDinvestor[investor].investment[i].investedAmount)*50 */\n      tag_380\n      swap2\n      swap1\n      tag_154\n      jump\t// in\n    tag_380:\n        /* \"contracts/stake_reward_MLM.sol\":8399:8463  ((DUSDinvestor[investor].investment[i].investedAmount)*50)/10000 */\n      tag_381\n      swap2\n      swap1\n      tag_203\n      jump\t// in\n    tag_381:\n        /* \"contracts/stake_reward_MLM.sol\":8392:8463  rew  = ((DUSDinvestor[investor].investment[i].investedAmount)*50)/10000 */\n      swap3\n      pop\n        /* \"contracts/stake_reward_MLM.sol\":8511:8514  rew */\n      dup3\n        /* \"contracts/stake_reward_MLM.sol\":8501:8508  depTime */\n      dup5\n        /* \"contracts/stake_reward_MLM.sol\":8501:8514  depTime * rew */\n      tag_382\n      swap2\n      swap1\n      tag_154\n      jump\t// in\n    tag_382:\n        /* \"contracts/stake_reward_MLM.sol\":8486:8514  totalReward += depTime * rew */\n      dup6\n      tag_383\n      swap2\n      swap1\n      tag_148\n      jump\t// in\n    tag_383:\n      swap5\n      pop\n        /* \"contracts/stake_reward_MLM.sol\":8229:8533  if(depTime>0)... */\n    tag_379:\n        /* \"contracts/stake_reward_MLM.sol\":7778:7781  i++ */\n      dup1\n      dup1\n      tag_384\n      swap1\n      tag_144\n      jump\t// in\n    tag_384:\n      swap2\n      pop\n      pop\n        /* \"contracts/stake_reward_MLM.sol\":7753:8547  for( uint i = 0;i < temp;i++)... */\n      jump(tag_371)\n    tag_372:\n      pop\n        /* \"contracts/stake_reward_MLM.sol\":8575:8587  DUSDinvestor */\n      0x0c\n        /* \"contracts/stake_reward_MLM.sol\":8575:8597  DUSDinvestor[investor] */\n      0x00\n        /* \"contracts/stake_reward_MLM.sol\":8588:8596  investor */\n      dup8\n        /* \"contracts/stake_reward_MLM.sol\":8575:8597  DUSDinvestor[investor] */\n      0xffffffffffffffffffffffffffffffffffffffff\n      and\n      0xffffffffffffffffffffffffffffffffffffffff\n      and\n      dup2\n      mstore\n      0x20\n      add\n      swap1\n      dup2\n      mstore\n      0x20\n      add\n      0x00\n      keccak256\n        /* \"contracts/stake_reward_MLM.sol\":8575:8618  DUSDinvestor[investor].totalWithdraw_reward */\n      0x07\n      add\n      sload\n        /* \"contracts/stake_reward_MLM.sol\":8560:8618  totalReward -= DUSDinvestor[investor].totalWithdraw_reward */\n      dup5\n      tag_385\n      swap2\n      swap1\n      tag_199\n      jump\t// in\n    tag_385:\n      swap4\n      pop\n        /* \"contracts/stake_reward_MLM.sol\":8640:8651  totalReward */\n      dup4\n        /* \"contracts/stake_reward_MLM.sol\":8633:8651  return totalReward */\n      swap5\n      pop\n      pop\n      pop\n      pop\n      pop\n        /* \"contracts/stake_reward_MLM.sol\":7460:8662  function get_investor_Reward(address investor) view internal returns(uint){ //this function is get the total reward balance of the investor... */\n      swap2\n      swap1\n      pop\n      jump\t// out\n    tag_183:\n      mload(0x40)\n      dup1\n      0xc0\n      add\n      0x40\n      mstore\n      dup1\n      0x00\n      dup2\n      mstore\n      0x20\n      add\n      0x00\n      dup2\n      mstore\n      0x20\n      add\n      0x00\n      dup2\n      mstore\n      0x20\n      add\n      0x00\n      dup2\n      mstore\n      0x20\n      add\n      0x00\n      dup2\n      mstore\n      0x20\n      add\n      iszero(iszero(0x00))\n      dup2\n      mstore\n      pop\n      swap1\n      jump\t// out\n    tag_217:\n      mload(0x40)\n      dup1\n      0xc0\n      add\n      0x40\n      mstore\n      dup1\n      and(0xffffffffffffffffffffffffffffffffffffffff, 0x00)\n      dup2\n      mstore\n      0x20\n      add\n      0x00\n      dup2\n      mstore\n      0x20\n      add\n      0x00\n      dup2\n      mstore\n      0x20\n      add\n      0x00\n      dup2\n      mstore\n      0x20\n      add\n      0x00\n      dup2\n      mstore\n      0x20\n      add\n      0x00\n      dup2\n      mstore\n      pop\n      swap1\n      jump\t// out\n        /* \"#utility.yul\":7:146   */\n    tag_387:\n        /* \"#utility.yul\":53:58   */\n      0x00\n        /* \"#utility.yul\":91:97   */\n      dup2\n        /* \"#utility.yul\":78:98   */\n      calldataload\n        /* \"#utility.yul\":69:98   */\n      swap1\n      pop\n        /* \"#utility.yul\":107:140   */\n      tag_389\n        /* \"#utility.yul\":134:139   */\n      dup2\n        /* \"#utility.yul\":107:140   */\n      tag_390\n      jump\t// in\n    tag_389:\n        /* \"#utility.yul\":7:146   */\n      swap3\n      swap2\n      pop\n      pop\n      jump\t// out\n        /* \"#utility.yul\":152:289   */\n    tag_391:\n        /* \"#utility.yul\":206:211   */\n      0x00\n        /* \"#utility.yul\":237:243   */\n      dup2\n        /* \"#utility.yul\":231:244   */\n      mload\n        /* \"#utility.yul\":222:244   */\n      swap1\n      pop\n        /* \"#utility.yul\":253:283   */\n      tag_393\n        /* \"#utility.yul\":277:282   */\n      dup2\n        /* \"#utility.yul\":253:283   */\n      tag_394\n      jump\t// in\n    tag_393:\n        /* \"#utility.yul\":152:289   */\n      swap3\n      swap2\n      pop\n      pop\n      jump\t// out\n        /* \"#utility.yul\":295:434   */\n    tag_395:\n        /* \"#utility.yul\":341:346   */\n      0x00\n        /* \"#utility.yul\":379:385   */\n      dup2\n        /* \"#utility.yul\":366:386   */\n      calldataload\n        /* \"#utility.yul\":357:386   */\n      swap1\n      pop\n        /* \"#utility.yul\":395:428   */\n      tag_397\n        /* \"#utility.yul\":422:427   */\n      dup2\n        /* \"#utility.yul\":395:428   */\n      tag_398\n      jump\t// in\n    tag_397:\n        /* \"#utility.yul\":295:434   */\n      swap3\n      swap2\n      pop\n      pop\n      jump\t// out\n        /* \"#utility.yul\":440:769   */\n    tag_114:\n        /* \"#utility.yul\":499:505   */\n      0x00\n        /* \"#utility.yul\":548:550   */\n      0x20\n        /* \"#utility.yul\":536:545   */\n      dup3\n        /* \"#utility.yul\":527:534   */\n      dup5\n        /* \"#utility.yul\":523:546   */\n      sub\n        /* \"#utility.yul\":519:551   */\n      slt\n        /* \"#utility.yul\":516:635   */\n      iszero\n      tag_400\n      jumpi\n        /* \"#utility.yul\":554:633   */\n      tag_401\n      tag_402\n      jump\t// in\n    tag_401:\n        /* \"#utility.yul\":516:635   */\n    tag_400:\n        /* \"#utility.yul\":674:675   */\n      0x00\n        /* \"#utility.yul\":699:752   */\n      tag_403\n        /* \"#utility.yul\":744:751   */\n      dup5\n        /* \"#utility.yul\":735:741   */\n      dup3\n        /* \"#utility.yul\":724:733   */\n      dup6\n        /* \"#utility.yul\":720:742   */\n      add\n        /* \"#utility.yul\":699:752   */\n      tag_387\n      jump\t// in\n    tag_403:\n        /* \"#utility.yul\":689:752   */\n      swap2\n      pop\n        /* \"#utility.yul\":645:762   */\n      pop\n        /* \"#utility.yul\":440:769   */\n      swap3\n      swap2\n      pop\n      pop\n      jump\t// out\n        /* \"#utility.yul\":775:1120   */\n    tag_161:\n        /* \"#utility.yul\":842:848   */\n      0x00\n        /* \"#utility.yul\":891:893   */\n      0x20\n        /* \"#utility.yul\":879:888   */\n      dup3\n        /* \"#utility.yul\":870:877   */\n      dup5\n        /* \"#utility.yul\":866:889   */\n      sub\n        /* \"#utility.yul\":862:894   */\n      slt\n        /* \"#utility.yul\":859:978   */\n      iszero\n      tag_405\n      jumpi\n        /* \"#utility.yul\":897:976   */\n      tag_406\n      tag_402\n      jump\t// in\n    tag_406:\n        /* \"#utility.yul\":859:978   */\n    tag_405:\n        /* \"#utility.yul\":1017:1018   */\n      0x00\n        /* \"#utility.yul\":1042:1103   */\n      tag_407\n        /* \"#utility.yul\":1095:1102   */\n      dup5\n        /* \"#utility.yul\":1086:1092   */\n      dup3\n        /* \"#utility.yul\":1075:1084   */\n      dup6\n        /* \"#utility.yul\":1071:1093   */\n      add\n        /* \"#utility.yul\":1042:1103   */\n      tag_391\n      jump\t// in\n    tag_407:\n        /* \"#utility.yul\":1032:1103   */\n      swap2\n      pop\n        /* \"#utility.yul\":988:1113   */\n      pop\n        /* \"#utility.yul\":775:1120   */\n      swap3\n      swap2\n      pop\n      pop\n      jump\t// out\n        /* \"#utility.yul\":1126:1455   */\n    tag_55:\n        /* \"#utility.yul\":1185:1191   */\n      0x00\n        /* \"#utility.yul\":1234:1236   */\n      0x20\n        /* \"#utility.yul\":1222:1231   */\n      dup3\n        /* \"#utility.yul\":1213:1220   */\n      dup5\n        /* \"#utility.yul\":1209:1232   */\n      sub\n        /* \"#utility.yul\":1205:1237   */\n      slt\n        /* \"#utility.yul\":1202:1321   */\n      iszero\n      tag_409\n      jumpi\n        /* \"#utility.yul\":1240:1319   */\n      tag_410\n      tag_402\n      jump\t// in\n    tag_410:\n        /* \"#utility.yul\":1202:1321   */\n    tag_409:\n        /* \"#utility.yul\":1360:1361   */\n      0x00\n        /* \"#utility.yul\":1385:1438   */\n      tag_411\n        /* \"#utility.yul\":1430:1437   */\n      dup5\n        /* \"#utility.yul\":1421:1427   */\n      dup3\n        /* \"#utility.yul\":1410:1419   */\n      dup6\n        /* \"#utility.yul\":1406:1428   */\n      add\n        /* \"#utility.yul\":1385:1438   */\n      tag_395\n      jump\t// in\n    tag_411:\n        /* \"#utility.yul\":1375:1438   */\n      swap2\n      pop\n        /* \"#utility.yul\":1331:1448   */\n      pop\n        /* \"#utility.yul\":1126:1455   */\n      swap3\n      swap2\n      pop\n      pop\n      jump\t// out\n        /* \"#utility.yul\":1461:1935   */\n    tag_49:\n        /* \"#utility.yul\":1529:1535   */\n      0x00\n        /* \"#utility.yul\":1537:1543   */\n      dup1\n        /* \"#utility.yul\":1586:1588   */\n      0x40\n        /* \"#utility.yul\":1574:1583   */\n      dup4\n        /* \"#utility.yul\":1565:1572   */\n      dup6\n        /* \"#utility.yul\":1561:1584   */\n      sub\n        /* \"#utility.yul\":1557:1589   */\n      slt\n        /* \"#utility.yul\":1554:1673   */\n      iszero\n      tag_413\n      jumpi\n        /* \"#utility.yul\":1592:1671   */\n      tag_414\n      tag_402\n      jump\t// in\n    tag_414:\n        /* \"#utility.yul\":1554:1673   */\n    tag_413:\n        /* \"#utility.yul\":1712:1713   */\n      0x00\n        /* \"#utility.yul\":1737:1790   */\n      tag_415\n        /* \"#utility.yul\":1782:1789   */\n      dup6\n        /* \"#utility.yul\":1773:1779   */\n      dup3\n        /* \"#utility.yul\":1762:1771   */\n      dup7\n        /* \"#utility.yul\":1758:1780   */\n      add\n        /* \"#utility.yul\":1737:1790   */\n      tag_395\n      jump\t// in\n    tag_415:\n        /* \"#utility.yul\":1727:1790   */\n      swap3\n      pop\n        /* \"#utility.yul\":1683:1800   */\n      pop\n        /* \"#utility.yul\":1839:1841   */\n      0x20\n        /* \"#utility.yul\":1865:1918   */\n      tag_416\n        /* \"#utility.yul\":1910:1917   */\n      dup6\n        /* \"#utility.yul\":1901:1907   */\n      dup3\n        /* \"#utility.yul\":1890:1899   */\n      dup7\n        /* \"#utility.yul\":1886:1908   */\n      add\n        /* \"#utility.yul\":1865:1918   */\n      tag_387\n      jump\t// in\n    tag_416:\n        /* \"#utility.yul\":1855:1918   */\n      swap2\n      pop\n        /* \"#utility.yul\":1810:1928   */\n      pop\n        /* \"#utility.yul\":1461:1935   */\n      swap3\n      pop\n      swap3\n      swap1\n      pop\n      jump\t// out\n        /* \"#utility.yul\":1941:2415   */\n    tag_100:\n        /* \"#utility.yul\":2009:2015   */\n      0x00\n        /* \"#utility.yul\":2017:2023   */\n      dup1\n        /* \"#utility.yul\":2066:2068   */\n      0x40\n        /* \"#utility.yul\":2054:2063   */\n      dup4\n        /* \"#utility.yul\":2045:2052   */\n      dup6\n        /* \"#utility.yul\":2041:2064   */\n      sub\n        /* \"#utility.yul\":2037:2069   */\n      slt\n        /* \"#utility.yul\":2034:2153   */\n      iszero\n      tag_418\n      jumpi\n        /* \"#utility.yul\":2072:2151   */\n      tag_419\n      tag_402\n      jump\t// in\n    tag_419:\n        /* \"#utility.yul\":2034:2153   */\n    tag_418:\n        /* \"#utility.yul\":2192:2193   */\n      0x00\n        /* \"#utility.yul\":2217:2270   */\n      tag_420\n        /* \"#utility.yul\":2262:2269   */\n      dup6\n        /* \"#utility.yul\":2253:2259   */\n      dup3\n        /* \"#utility.yul\":2242:2251   */\n      dup7\n        /* \"#utility.yul\":2238:2260   */\n      add\n        /* \"#utility.yul\":2217:2270   */\n      tag_395\n      jump\t// in\n    tag_420:\n        /* \"#utility.yul\":2207:2270   */\n      swap3\n      pop\n        /* \"#utility.yul\":2163:2280   */\n      pop\n        /* \"#utility.yul\":2319:2321   */\n      0x20\n        /* \"#utility.yul\":2345:2398   */\n      tag_421\n        /* \"#utility.yul\":2390:2397   */\n      dup6\n        /* \"#utility.yul\":2381:2387   */\n      dup3\n        /* \"#utility.yul\":2370:2379   */\n      dup7\n        /* \"#utility.yul\":2366:2388   */\n      add\n        /* \"#utility.yul\":2345:2398   */\n      tag_395\n      jump\t// in\n    tag_421:\n        /* \"#utility.yul\":2335:2398   */\n      swap2\n      pop\n        /* \"#utility.yul\":2290:2408   */\n      pop\n        /* \"#utility.yul\":1941:2415   */\n      swap3\n      pop\n      swap3\n      swap1\n      pop\n      jump\t// out\n        /* \"#utility.yul\":2421:3186   */\n    tag_70:\n        /* \"#utility.yul\":2507:2513   */\n      0x00\n        /* \"#utility.yul\":2515:2521   */\n      dup1\n        /* \"#utility.yul\":2523:2529   */\n      0x00\n        /* \"#utility.yul\":2531:2537   */\n      dup1\n        /* \"#utility.yul\":2580:2583   */\n      0x80\n        /* \"#utility.yul\":2568:2577   */\n      dup6\n        /* \"#utility.yul\":2559:2566   */\n      dup8\n        /* \"#utility.yul\":2555:2578   */\n      sub\n        /* \"#utility.yul\":2551:2584   */\n      slt\n        /* \"#utility.yul\":2548:2668   */\n      iszero\n      tag_423\n      jumpi\n        /* \"#utility.yul\":2587:2666   */\n      tag_424\n      tag_402\n      jump\t// in\n    tag_424:\n        /* \"#utility.yul\":2548:2668   */\n    tag_423:\n        /* \"#utility.yul\":2707:2708   */\n      0x00\n        /* \"#utility.yul\":2732:2785   */\n      tag_425\n        /* \"#utility.yul\":2777:2784   */\n      dup8\n        /* \"#utility.yul\":2768:2774   */\n      dup3\n        /* \"#utility.yul\":2757:2766   */\n      dup9\n        /* \"#utility.yul\":2753:2775   */\n      add\n        /* \"#utility.yul\":2732:2785   */\n      tag_395\n      jump\t// in\n    tag_425:\n        /* \"#utility.yul\":2722:2785   */\n      swap5\n      pop\n        /* \"#utility.yul\":2678:2795   */\n      pop\n        /* \"#utility.yul\":2834:2836   */\n      0x20\n        /* \"#utility.yul\":2860:2913   */\n      tag_426\n        /* \"#utility.yul\":2905:2912   */\n      dup8\n        /* \"#utility.yul\":2896:2902   */\n      dup3\n        /* \"#utility.yul\":2885:2894   */\n      dup9\n        /* \"#utility.yul\":2881:2903   */\n      add\n        /* \"#utility.yul\":2860:2913   */\n      tag_395\n      jump\t// in\n    tag_426:\n        /* \"#utility.yul\":2850:2913   */\n      swap4\n      pop\n        /* \"#utility.yul\":2805:2923   */\n      pop\n        /* \"#utility.yul\":2962:2964   */\n      0x40\n        /* \"#utility.yul\":2988:3041   */\n      tag_427\n        /* \"#utility.yul\":3033:3040   */\n      dup8\n        /* \"#utility.yul\":3024:3030   */\n      dup3\n        /* \"#utility.yul\":3013:3022   */\n      dup9\n        /* \"#utility.yul\":3009:3031   */\n      add\n        /* \"#utility.yul\":2988:3041   */\n      tag_395\n      jump\t// in\n    tag_427:\n        /* \"#utility.yul\":2978:3041   */\n      swap3\n      pop\n        /* \"#utility.yul\":2933:3051   */\n      pop\n        /* \"#utility.yul\":3090:3092   */\n      0x60\n        /* \"#utility.yul\":3116:3169   */\n      tag_428\n        /* \"#utility.yul\":3161:3168   */\n      dup8\n        /* \"#utility.yul\":3152:3158   */\n      dup3\n        /* \"#utility.yul\":3141:3150   */\n      dup9\n        /* \"#utility.yul\":3137:3159   */\n      add\n        /* \"#utility.yul\":3116:3169   */\n      tag_395\n      jump\t// in\n    tag_428:\n        /* \"#utility.yul\":3106:3169   */\n      swap2\n      pop\n        /* \"#utility.yul\":3061:3179   */\n      pop\n        /* \"#utility.yul\":2421:3186   */\n      swap3\n      swap6\n      swap2\n      swap5\n      pop\n      swap3\n      pop\n      jump\t// out\n        /* \"#utility.yul\":3192:3371   */\n    tag_429:\n        /* \"#utility.yul\":3261:3271   */\n      0x00\n        /* \"#utility.yul\":3282:3328   */\n      tag_431\n        /* \"#utility.yul\":3324:3327   */\n      dup4\n        /* \"#utility.yul\":3316:3322   */\n      dup4\n        /* \"#utility.yul\":3282:3328   */\n      tag_432\n      jump\t// in\n    tag_431:\n        /* \"#utility.yul\":3360:3364   */\n      0x20\n        /* \"#utility.yul\":3355:3358   */\n      dup4\n        /* \"#utility.yul\":3351:3365   */\n      add\n        /* \"#utility.yul\":3337:3365   */\n      swap1\n      pop\n        /* \"#utility.yul\":3192:3371   */\n      swap3\n      swap2\n      pop\n      pop\n      jump\t// out\n        /* \"#utility.yul\":3377:3660   */\n    tag_433:\n        /* \"#utility.yul\":3498:3508   */\n      0x00\n        /* \"#utility.yul\":3519:3617   */\n      tag_435\n        /* \"#utility.yul\":3613:3616   */\n      dup4\n        /* \"#utility.yul\":3605:3611   */\n      dup4\n        /* \"#utility.yul\":3519:3617   */\n      tag_436\n      jump\t// in\n    tag_435:\n        /* \"#utility.yul\":3649:3653   */\n      0xc0\n        /* \"#utility.yul\":3644:3647   */\n      dup4\n        /* \"#utility.yul\":3640:3654   */\n      add\n        /* \"#utility.yul\":3626:3654   */\n      swap1\n      pop\n        /* \"#utility.yul\":3377:3660   */\n      swap3\n      swap2\n      pop\n      pop\n      jump\t// out\n        /* \"#utility.yul\":3666:3965   */\n    tag_437:\n        /* \"#utility.yul\":3795:3805   */\n      0x00\n        /* \"#utility.yul\":3816:3922   */\n      tag_439\n        /* \"#utility.yul\":3918:3921   */\n      dup4\n        /* \"#utility.yul\":3910:3916   */\n      dup4\n        /* \"#utility.yul\":3816:3922   */\n      tag_440\n      jump\t// in\n    tag_439:\n        /* \"#utility.yul\":3954:3958   */\n      0xc0\n        /* \"#utility.yul\":3949:3952   */\n      dup4\n        /* \"#utility.yul\":3945:3959   */\n      add\n        /* \"#utility.yul\":3931:3959   */\n      swap1\n      pop\n        /* \"#utility.yul\":3666:3965   */\n      swap3\n      swap2\n      pop\n      pop\n      jump\t// out\n        /* \"#utility.yul\":3971:4150   */\n    tag_441:\n        /* \"#utility.yul\":4040:4050   */\n      0x00\n        /* \"#utility.yul\":4061:4107   */\n      tag_443\n        /* \"#utility.yul\":4103:4106   */\n      dup4\n        /* \"#utility.yul\":4095:4101   */\n      dup4\n        /* \"#utility.yul\":4061:4107   */\n      tag_444\n      jump\t// in\n    tag_443:\n        /* \"#utility.yul\":4139:4143   */\n      0x20\n        /* \"#utility.yul\":4134:4137   */\n      dup4\n        /* \"#utility.yul\":4130:4144   */\n      add\n        /* \"#utility.yul\":4116:4144   */\n      swap1\n      pop\n        /* \"#utility.yul\":3971:4150   */\n      swap3\n      swap2\n      pop\n      pop\n      jump\t// out\n        /* \"#utility.yul\":4156:4264   */\n    tag_432:\n        /* \"#utility.yul\":4233:4257   */\n      tag_446\n        /* \"#utility.yul\":4251:4256   */\n      dup2\n        /* \"#utility.yul\":4233:4257   */\n      tag_447\n      jump\t// in\n    tag_446:\n        /* \"#utility.yul\":4228:4231   */\n      dup3\n        /* \"#utility.yul\":4221:4258   */\n      mstore\n        /* \"#utility.yul\":4156:4264   */\n      pop\n      pop\n      jump\t// out\n        /* \"#utility.yul\":4270:4388   */\n    tag_448:\n        /* \"#utility.yul\":4357:4381   */\n      tag_450\n        /* \"#utility.yul\":4375:4380   */\n      dup2\n        /* \"#utility.yul\":4357:4381   */\n      tag_447\n      jump\t// in\n    tag_450:\n        /* \"#utility.yul\":4352:4355   */\n      dup3\n        /* \"#utility.yul\":4345:4382   */\n      mstore\n        /* \"#utility.yul\":4270:4388   */\n      pop\n      pop\n      jump\t// out\n        /* \"#utility.yul\":4424:5156   */\n    tag_451:\n        /* \"#utility.yul\":4543:4546   */\n      0x00\n        /* \"#utility.yul\":4572:4626   */\n      tag_453\n        /* \"#utility.yul\":4620:4625   */\n      dup3\n        /* \"#utility.yul\":4572:4626   */\n      tag_454\n      jump\t// in\n    tag_453:\n        /* \"#utility.yul\":4642:4728   */\n      tag_455\n        /* \"#utility.yul\":4721:4727   */\n      dup2\n        /* \"#utility.yul\":4716:4719   */\n      dup6\n        /* \"#utility.yul\":4642:4728   */\n      tag_456\n      jump\t// in\n    tag_455:\n        /* \"#utility.yul\":4635:4728   */\n      swap4\n      pop\n        /* \"#utility.yul\":4752:4808   */\n      tag_457\n        /* \"#utility.yul\":4802:4807   */\n      dup4\n        /* \"#utility.yul\":4752:4808   */\n      tag_458\n      jump\t// in\n    tag_457:\n        /* \"#utility.yul\":4831:4838   */\n      dup1\n        /* \"#utility.yul\":4862:4863   */\n      0x00\n        /* \"#utility.yul\":4847:5131   */\n    tag_459:\n        /* \"#utility.yul\":4872:4878   */\n      dup4\n        /* \"#utility.yul\":4869:4870   */\n      dup2\n        /* \"#utility.yul\":4866:4879   */\n      lt\n        /* \"#utility.yul\":4847:5131   */\n      iszero\n      tag_461\n      jumpi\n        /* \"#utility.yul\":4948:4954   */\n      dup2\n        /* \"#utility.yul\":4942:4955   */\n      mload\n        /* \"#utility.yul\":4975:5038   */\n      tag_462\n        /* \"#utility.yul\":5034:5037   */\n      dup9\n        /* \"#utility.yul\":5019:5032   */\n      dup3\n        /* \"#utility.yul\":4975:5038   */\n      tag_429\n      jump\t// in\n    tag_462:\n        /* \"#utility.yul\":4968:5038   */\n      swap8\n      pop\n        /* \"#utility.yul\":5061:5121   */\n      tag_463\n        /* \"#utility.yul\":5114:5120   */\n      dup4\n        /* \"#utility.yul\":5061:5121   */\n      tag_464\n      jump\t// in\n    tag_463:\n        /* \"#utility.yul\":5051:5121   */\n      swap3\n      pop\n        /* \"#utility.yul\":4907:5131   */\n      pop\n        /* \"#utility.yul\":4894:4895   */\n      0x01\n        /* \"#utility.yul\":4891:4892   */\n      dup2\n        /* \"#utility.yul\":4887:4896   */\n      add\n        /* \"#utility.yul\":4882:4896   */\n      swap1\n      pop\n        /* \"#utility.yul\":4847:5131   */\n      jump(tag_459)\n    tag_461:\n        /* \"#utility.yul\":4851:4865   */\n      pop\n        /* \"#utility.yul\":5147:5150   */\n      dup6\n        /* \"#utility.yul\":5140:5150   */\n      swap4\n      pop\n        /* \"#utility.yul\":4548:5156   */\n      pop\n      pop\n      pop\n        /* \"#utility.yul\":4424:5156   */\n      swap3\n      swap2\n      pop\n      pop\n      jump\t// out\n        /* \"#utility.yul\":5226:6166   */\n    tag_465:\n        /* \"#utility.yul\":5397:5400   */\n      0x00\n        /* \"#utility.yul\":5426:5506   */\n      tag_467\n        /* \"#utility.yul\":5500:5505   */\n      dup3\n        /* \"#utility.yul\":5426:5506   */\n      tag_468\n      jump\t// in\n    tag_467:\n        /* \"#utility.yul\":5522:5634   */\n      tag_469\n        /* \"#utility.yul\":5627:5633   */\n      dup2\n        /* \"#utility.yul\":5622:5625   */\n      dup6\n        /* \"#utility.yul\":5522:5634   */\n      tag_470\n      jump\t// in\n    tag_469:\n        /* \"#utility.yul\":5515:5634   */\n      swap4\n      pop\n        /* \"#utility.yul\":5658:5740   */\n      tag_471\n        /* \"#utility.yul\":5734:5739   */\n      dup4\n        /* \"#utility.yul\":5658:5740   */\n      tag_472\n      jump\t// in\n    tag_471:\n        /* \"#utility.yul\":5763:5770   */\n      dup1\n        /* \"#utility.yul\":5794:5795   */\n      0x00\n        /* \"#utility.yul\":5779:6141   */\n    tag_473:\n        /* \"#utility.yul\":5804:5810   */\n      dup4\n        /* \"#utility.yul\":5801:5802   */\n      dup2\n        /* \"#utility.yul\":5798:5811   */\n      lt\n        /* \"#utility.yul\":5779:6141   */\n      iszero\n      tag_475\n      jumpi\n        /* \"#utility.yul\":5880:5886   */\n      dup2\n        /* \"#utility.yul\":5874:5887   */\n      mload\n        /* \"#utility.yul\":5907:6022   */\n      tag_476\n        /* \"#utility.yul\":6018:6021   */\n      dup9\n        /* \"#utility.yul\":6003:6016   */\n      dup3\n        /* \"#utility.yul\":5907:6022   */\n      tag_433\n      jump\t// in\n    tag_476:\n        /* \"#utility.yul\":5900:6022   */\n      swap8\n      pop\n        /* \"#utility.yul\":6045:6131   */\n      tag_477\n        /* \"#utility.yul\":6124:6130   */\n      dup4\n        /* \"#utility.yul\":6045:6131   */\n      tag_478\n      jump\t// in\n    tag_477:\n        /* \"#utility.yul\":6035:6131   */\n      swap3\n      pop\n        /* \"#utility.yul\":5839:6141   */\n      pop\n        /* \"#utility.yul\":5826:5827   */\n      0x01\n        /* \"#utility.yul\":5823:5824   */\n      dup2\n        /* \"#utility.yul\":5819:5828   */\n      add\n        /* \"#utility.yul\":5814:5828   */\n      swap1\n      pop\n        /* \"#utility.yul\":5779:6141   */\n      jump(tag_473)\n    tag_475:\n        /* \"#utility.yul\":5783:5797   */\n      pop\n        /* \"#utility.yul\":6157:6160   */\n      dup6\n        /* \"#utility.yul\":6150:6160   */\n      swap4\n      pop\n        /* \"#utility.yul\":5402:6166   */\n      pop\n      pop\n      pop\n        /* \"#utility.yul\":5226:6166   */\n      swap3\n      swap2\n      pop\n      pop\n      jump\t// out\n        /* \"#utility.yul\":6244:7216   */\n    tag_479:\n        /* \"#utility.yul\":6423:6426   */\n      0x00\n        /* \"#utility.yul\":6452:6536   */\n      tag_481\n        /* \"#utility.yul\":6530:6535   */\n      dup3\n        /* \"#utility.yul\":6452:6536   */\n      tag_482\n      jump\t// in\n    tag_481:\n        /* \"#utility.yul\":6552:6668   */\n      tag_483\n        /* \"#utility.yul\":6661:6667   */\n      dup2\n        /* \"#utility.yul\":6656:6659   */\n      dup6\n        /* \"#utility.yul\":6552:6668   */\n      tag_484\n      jump\t// in\n    tag_483:\n        /* \"#utility.yul\":6545:6668   */\n      swap4\n      pop\n        /* \"#utility.yul\":6692:6778   */\n      tag_485\n        /* \"#utility.yul\":6772:6777   */\n      dup4\n        /* \"#utility.yul\":6692:6778   */\n      tag_486\n      jump\t// in\n    tag_485:\n        /* \"#utility.yul\":6801:6808   */\n      dup1\n        /* \"#utility.yul\":6832:6833   */\n      0x00\n        /* \"#utility.yul\":6817:7191   */\n    tag_487:\n        /* \"#utility.yul\":6842:6848   */\n      dup4\n        /* \"#utility.yul\":6839:6840   */\n      dup2\n        /* \"#utility.yul\":6836:6849   */\n      lt\n        /* \"#utility.yul\":6817:7191   */\n      iszero\n      tag_489\n      jumpi\n        /* \"#utility.yul\":6918:6924   */\n      dup2\n        /* \"#utility.yul\":6912:6925   */\n      mload\n        /* \"#utility.yul\":6945:7068   */\n      tag_490\n        /* \"#utility.yul\":7064:7067   */\n      dup9\n        /* \"#utility.yul\":7049:7062   */\n      dup3\n        /* \"#utility.yul\":6945:7068   */\n      tag_437\n      jump\t// in\n    tag_490:\n        /* \"#utility.yul\":6938:7068   */\n      swap8\n      pop\n        /* \"#utility.yul\":7091:7181   */\n      tag_491\n        /* \"#utility.yul\":7174:7180   */\n      dup4\n        /* \"#utility.yul\":7091:7181   */\n      tag_492\n      jump\t// in\n    tag_491:\n        /* \"#utility.yul\":7081:7181   */\n      swap3\n      pop\n        /* \"#utility.yul\":6877:7191   */\n      pop\n        /* \"#utility.yul\":6864:6865   */\n      0x01\n        /* \"#utility.yul\":6861:6862   */\n      dup2\n        /* \"#utility.yul\":6857:6866   */\n      add\n        /* \"#utility.yul\":6852:6866   */\n      swap1\n      pop\n        /* \"#utility.yul\":6817:7191   */\n      jump(tag_487)\n    tag_489:\n        /* \"#utility.yul\":6821:6835   */\n      pop\n        /* \"#utility.yul\":7207:7210   */\n      dup6\n        /* \"#utility.yul\":7200:7210   */\n      swap4\n      pop\n        /* \"#utility.yul\":6428:7216   */\n      pop\n      pop\n      pop\n        /* \"#utility.yul\":6244:7216   */\n      swap3\n      swap2\n      pop\n      pop\n      jump\t// out\n        /* \"#utility.yul\":7252:7984   */\n    tag_493:\n        /* \"#utility.yul\":7371:7374   */\n      0x00\n        /* \"#utility.yul\":7400:7454   */\n      tag_495\n        /* \"#utility.yul\":7448:7453   */\n      dup3\n        /* \"#utility.yul\":7400:7454   */\n      tag_496\n      jump\t// in\n    tag_495:\n        /* \"#utility.yul\":7470:7556   */\n      tag_497\n        /* \"#utility.yul\":7549:7555   */\n      dup2\n        /* \"#utility.yul\":7544:7547   */\n      dup6\n        /* \"#utility.yul\":7470:7556   */\n      tag_498\n      jump\t// in\n    tag_497:\n        /* \"#utility.yul\":7463:7556   */\n      swap4\n      pop\n        /* \"#utility.yul\":7580:7636   */\n      tag_499\n        /* \"#utility.yul\":7630:7635   */\n      dup4\n        /* \"#utility.yul\":7580:7636   */\n      tag_500\n      jump\t// in\n    tag_499:\n        /* \"#utility.yul\":7659:7666   */\n      dup1\n        /* \"#utility.yul\":7690:7691   */\n      0x00\n        /* \"#utility.yul\":7675:7959   */\n    tag_501:\n        /* \"#utility.yul\":7700:7706   */\n      dup4\n        /* \"#utility.yul\":7697:7698   */\n      dup2\n        /* \"#utility.yul\":7694:7707   */\n      lt\n        /* \"#utility.yul\":7675:7959   */\n      iszero\n      tag_503\n      jumpi\n        /* \"#utility.yul\":7776:7782   */\n      dup2\n        /* \"#utility.yul\":7770:7783   */\n      mload\n        /* \"#utility.yul\":7803:7866   */\n      tag_504\n        /* \"#utility.yul\":7862:7865   */\n      dup9\n        /* \"#utility.yul\":7847:7860   */\n      dup3\n        /* \"#utility.yul\":7803:7866   */\n      tag_441\n      jump\t// in\n    tag_504:\n        /* \"#utility.yul\":7796:7866   */\n      swap8\n      pop\n        /* \"#utility.yul\":7889:7949   */\n      tag_505\n        /* \"#utility.yul\":7942:7948   */\n      dup4\n        /* \"#utility.yul\":7889:7949   */\n      tag_506\n      jump\t// in\n    tag_505:\n        /* \"#utility.yul\":7879:7949   */\n      swap3\n      pop\n        /* \"#utility.yul\":7735:7959   */\n      pop\n        /* \"#utility.yul\":7722:7723   */\n      0x01\n        /* \"#utility.yul\":7719:7720   */\n      dup2\n        /* \"#utility.yul\":7715:7724   */\n      add\n        /* \"#utility.yul\":7710:7724   */\n      swap1\n      pop\n        /* \"#utility.yul\":7675:7959   */\n      jump(tag_501)\n    tag_503:\n        /* \"#utility.yul\":7679:7693   */\n      pop\n        /* \"#utility.yul\":7975:7978   */\n      dup6\n        /* \"#utility.yul\":7968:7978   */\n      swap4\n      pop\n        /* \"#utility.yul\":7376:7984   */\n      pop\n      pop\n      pop\n        /* \"#utility.yul\":7252:7984   */\n      swap3\n      swap2\n      pop\n      pop\n      jump\t// out\n        /* \"#utility.yul\":7990:8089   */\n    tag_507:\n        /* \"#utility.yul\":8061:8082   */\n      tag_509\n        /* \"#utility.yul\":8076:8081   */\n      dup2\n        /* \"#utility.yul\":8061:8082   */\n      tag_510\n      jump\t// in\n    tag_509:\n        /* \"#utility.yul\":8056:8059   */\n      dup3\n        /* \"#utility.yul\":8049:8083   */\n      mstore\n        /* \"#utility.yul\":7990:8089   */\n      pop\n      pop\n      jump\t// out\n        /* \"#utility.yul\":8095:8204   */\n    tag_511:\n        /* \"#utility.yul\":8176:8197   */\n      tag_513\n        /* \"#utility.yul\":8191:8196   */\n      dup2\n        /* \"#utility.yul\":8176:8197   */\n      tag_510\n      jump\t// in\n    tag_513:\n        /* \"#utility.yul\":8171:8174   */\n      dup3\n        /* \"#utility.yul\":8164:8198   */\n      mstore\n        /* \"#utility.yul\":8095:8204   */\n      pop\n      pop\n      jump\t// out\n        /* \"#utility.yul\":8210:8576   */\n    tag_514:\n        /* \"#utility.yul\":8352:8355   */\n      0x00\n        /* \"#utility.yul\":8373:8440   */\n      tag_516\n        /* \"#utility.yul\":8437:8439   */\n      0x25\n        /* \"#utility.yul\":8432:8435   */\n      dup4\n        /* \"#utility.yul\":8373:8440   */\n      tag_517\n      jump\t// in\n    tag_516:\n        /* \"#utility.yul\":8366:8440   */\n      swap2\n      pop\n        /* \"#utility.yul\":8449:8542   */\n      tag_518\n        /* \"#utility.yul\":8538:8541   */\n      dup3\n        /* \"#utility.yul\":8449:8542   */\n      tag_519\n      jump\t// in\n    tag_518:\n        /* \"#utility.yul\":8567:8569   */\n      0x40\n        /* \"#utility.yul\":8562:8565   */\n      dup3\n        /* \"#utility.yul\":8558:8570   */\n      add\n        /* \"#utility.yul\":8551:8570   */\n      swap1\n      pop\n        /* \"#utility.yul\":8210:8576   */\n      swap2\n      swap1\n      pop\n      jump\t// out\n        /* \"#utility.yul\":8582:8948   */\n    tag_520:\n        /* \"#utility.yul\":8724:8727   */\n      0x00\n        /* \"#utility.yul\":8745:8812   */\n      tag_522\n        /* \"#utility.yul\":8809:8811   */\n      0x35\n        /* \"#utility.yul\":8804:8807   */\n      dup4\n        /* \"#utility.yul\":8745:8812   */\n      tag_517\n      jump\t// in\n    tag_522:\n        /* \"#utility.yul\":8738:8812   */\n      swap2\n      pop\n        /* \"#utility.yul\":8821:8914   */\n      tag_523\n        /* \"#utility.yul\":8910:8913   */\n      dup3\n        /* \"#utility.yul\":8821:8914   */\n      tag_524\n      jump\t// in\n    tag_523:\n        /* \"#utility.yul\":8939:8941   */\n      0x40\n        /* \"#utility.yul\":8934:8937   */\n      dup3\n        /* \"#utility.yul\":8930:8942   */\n      add\n        /* \"#utility.yul\":8923:8942   */\n      swap1\n      pop\n        /* \"#utility.yul\":8582:8948   */\n      swap2\n      swap1\n      pop\n      jump\t// out\n        /* \"#utility.yul\":8954:9320   */\n    tag_525:\n        /* \"#utility.yul\":9096:9099   */\n      0x00\n        /* \"#utility.yul\":9117:9184   */\n      tag_527\n        /* \"#utility.yul\":9181:9183   */\n      0x22\n        /* \"#utility.yul\":9176:9179   */\n      dup4\n        /* \"#utility.yul\":9117:9184   */\n      tag_517\n      jump\t// in\n    tag_527:\n        /* \"#utility.yul\":9110:9184   */\n      swap2\n      pop\n        /* \"#utility.yul\":9193:9286   */\n      tag_528\n        /* \"#utility.yul\":9282:9285   */\n      dup3\n        /* \"#utility.yul\":9193:9286   */\n      tag_529\n      jump\t// in\n    tag_528:\n        /* \"#utility.yul\":9311:9313   */\n      0x40\n        /* \"#utility.yul\":9306:9309   */\n      dup3\n        /* \"#utility.yul\":9302:9314   */\n      add\n        /* \"#utility.yul\":9295:9314   */\n      swap1\n      pop\n        /* \"#utility.yul\":8954:9320   */\n      swap2\n      swap1\n      pop\n      jump\t// out\n        /* \"#utility.yul\":9326:9692   */\n    tag_530:\n        /* \"#utility.yul\":9468:9471   */\n      0x00\n        /* \"#utility.yul\":9489:9556   */\n      tag_532\n        /* \"#utility.yul\":9553:9555   */\n      0x21\n        /* \"#utility.yul\":9548:9551   */\n      dup4\n        /* \"#utility.yul\":9489:9556   */\n      tag_517\n      jump\t// in\n    tag_532:\n        /* \"#utility.yul\":9482:9556   */\n      swap2\n      pop\n        /* \"#utility.yul\":9565:9658   */\n      tag_533\n        /* \"#utility.yul\":9654:9657   */\n      dup3\n        /* \"#utility.yul\":9565:9658   */\n      tag_534\n      jump\t// in\n    tag_533:\n        /* \"#utility.yul\":9683:9685   */\n      0x40\n        /* \"#utility.yul\":9678:9681   */\n      dup3\n        /* \"#utility.yul\":9674:9686   */\n      add\n        /* \"#utility.yul\":9667:9686   */\n      swap1\n      pop\n        /* \"#utility.yul\":9326:9692   */\n      swap2\n      swap1\n      pop\n      jump\t// out\n        /* \"#utility.yul\":9758:11007   */\n    tag_436:\n        /* \"#utility.yul\":9897:9901   */\n      0xc0\n        /* \"#utility.yul\":9892:9895   */\n      dup3\n        /* \"#utility.yul\":9888:9902   */\n      add\n        /* \"#utility.yul\":9988:9992   */\n      0x00\n        /* \"#utility.yul\":9981:9986   */\n      dup3\n        /* \"#utility.yul\":9977:9993   */\n      add\n        /* \"#utility.yul\":9971:9994   */\n      mload\n        /* \"#utility.yul\":10007:10070   */\n      tag_536\n        /* \"#utility.yul\":10064:10068   */\n      0x00\n        /* \"#utility.yul\":10059:10062   */\n      dup6\n        /* \"#utility.yul\":10055:10069   */\n      add\n        /* \"#utility.yul\":10041:10053   */\n      dup3\n        /* \"#utility.yul\":10007:10070   */\n      tag_432\n      jump\t// in\n    tag_536:\n        /* \"#utility.yul\":9912:10080   */\n      pop\n        /* \"#utility.yul\":10173:10177   */\n      0x20\n        /* \"#utility.yul\":10166:10171   */\n      dup3\n        /* \"#utility.yul\":10162:10178   */\n      add\n        /* \"#utility.yul\":10156:10179   */\n      mload\n        /* \"#utility.yul\":10192:10255   */\n      tag_537\n        /* \"#utility.yul\":10249:10253   */\n      0x20\n        /* \"#utility.yul\":10244:10247   */\n      dup6\n        /* \"#utility.yul\":10240:10254   */\n      add\n        /* \"#utility.yul\":10226:10238   */\n      dup3\n        /* \"#utility.yul\":10192:10255   */\n      tag_444\n      jump\t// in\n    tag_537:\n        /* \"#utility.yul\":10090:10265   */\n      pop\n        /* \"#utility.yul\":10349:10353   */\n      0x40\n        /* \"#utility.yul\":10342:10347   */\n      dup3\n        /* \"#utility.yul\":10338:10354   */\n      add\n        /* \"#utility.yul\":10332:10355   */\n      mload\n        /* \"#utility.yul\":10368:10431   */\n      tag_538\n        /* \"#utility.yul\":10425:10429   */\n      0x40\n        /* \"#utility.yul\":10420:10423   */\n      dup6\n        /* \"#utility.yul\":10416:10430   */\n      add\n        /* \"#utility.yul\":10402:10414   */\n      dup3\n        /* \"#utility.yul\":10368:10431   */\n      tag_444\n      jump\t// in\n    tag_538:\n        /* \"#utility.yul\":10275:10441   */\n      pop\n        /* \"#utility.yul\":10533:10537   */\n      0x60\n        /* \"#utility.yul\":10526:10531   */\n      dup3\n        /* \"#utility.yul\":10522:10538   */\n      add\n        /* \"#utility.yul\":10516:10539   */\n      mload\n        /* \"#utility.yul\":10552:10615   */\n      tag_539\n        /* \"#utility.yul\":10609:10613   */\n      0x60\n        /* \"#utility.yul\":10604:10607   */\n      dup6\n        /* \"#utility.yul\":10600:10614   */\n      add\n        /* \"#utility.yul\":10586:10598   */\n      dup3\n        /* \"#utility.yul\":10552:10615   */\n      tag_444\n      jump\t// in\n    tag_539:\n        /* \"#utility.yul\":10451:10625   */\n      pop\n        /* \"#utility.yul\":10723:10727   */\n      0x80\n        /* \"#utility.yul\":10716:10721   */\n      dup3\n        /* \"#utility.yul\":10712:10728   */\n      add\n        /* \"#utility.yul\":10706:10729   */\n      mload\n        /* \"#utility.yul\":10742:10805   */\n      tag_540\n        /* \"#utility.yul\":10799:10803   */\n      0x80\n        /* \"#utility.yul\":10794:10797   */\n      dup6\n        /* \"#utility.yul\":10790:10804   */\n      add\n        /* \"#utility.yul\":10776:10788   */\n      dup3\n        /* \"#utility.yul\":10742:10805   */\n      tag_444\n      jump\t// in\n    tag_540:\n        /* \"#utility.yul\":10635:10815   */\n      pop\n        /* \"#utility.yul\":10908:10912   */\n      0xa0\n        /* \"#utility.yul\":10901:10906   */\n      dup3\n        /* \"#utility.yul\":10897:10913   */\n      add\n        /* \"#utility.yul\":10891:10914   */\n      mload\n        /* \"#utility.yul\":10927:10990   */\n      tag_541\n        /* \"#utility.yul\":10984:10988   */\n      0xa0\n        /* \"#utility.yul\":10979:10982   */\n      dup6\n        /* \"#utility.yul\":10975:10989   */\n      add\n        /* \"#utility.yul\":10961:10973   */\n      dup3\n        /* \"#utility.yul\":10927:10990   */\n      tag_444\n      jump\t// in\n    tag_541:\n        /* \"#utility.yul\":10825:11000   */\n      pop\n        /* \"#utility.yul\":9866:11007   */\n      pop\n        /* \"#utility.yul\":9758:11007   */\n      pop\n      pop\n      jump\t// out\n        /* \"#utility.yul\":11081:12323   */\n    tag_440:\n        /* \"#utility.yul\":11228:11232   */\n      0xc0\n        /* \"#utility.yul\":11223:11226   */\n      dup3\n        /* \"#utility.yul\":11219:11233   */\n      add\n        /* \"#utility.yul\":11325:11329   */\n      0x00\n        /* \"#utility.yul\":11318:11323   */\n      dup3\n        /* \"#utility.yul\":11314:11330   */\n      add\n        /* \"#utility.yul\":11308:11331   */\n      mload\n        /* \"#utility.yul\":11344:11407   */\n      tag_543\n        /* \"#utility.yul\":11401:11405   */\n      0x00\n        /* \"#utility.yul\":11396:11399   */\n      dup6\n        /* \"#utility.yul\":11392:11406   */\n      add\n        /* \"#utility.yul\":11378:11390   */\n      dup3\n        /* \"#utility.yul\":11344:11407   */\n      tag_444\n      jump\t// in\n    tag_543:\n        /* \"#utility.yul\":11243:11417   */\n      pop\n        /* \"#utility.yul\":11508:11512   */\n      0x20\n        /* \"#utility.yul\":11501:11506   */\n      dup3\n        /* \"#utility.yul\":11497:11513   */\n      add\n        /* \"#utility.yul\":11491:11514   */\n      mload\n        /* \"#utility.yul\":11527:11590   */\n      tag_544\n        /* \"#utility.yul\":11584:11588   */\n      0x20\n        /* \"#utility.yul\":11579:11582   */\n      dup6\n        /* \"#utility.yul\":11575:11589   */\n      add\n        /* \"#utility.yul\":11561:11573   */\n      dup3\n        /* \"#utility.yul\":11527:11590   */\n      tag_444\n      jump\t// in\n    tag_544:\n        /* \"#utility.yul\":11427:11600   */\n      pop\n        /* \"#utility.yul\":11689:11693   */\n      0x40\n        /* \"#utility.yul\":11682:11687   */\n      dup3\n        /* \"#utility.yul\":11678:11694   */\n      add\n        /* \"#utility.yul\":11672:11695   */\n      mload\n        /* \"#utility.yul\":11708:11771   */\n      tag_545\n        /* \"#utility.yul\":11765:11769   */\n      0x40\n        /* \"#utility.yul\":11760:11763   */\n      dup6\n        /* \"#utility.yul\":11756:11770   */\n      add\n        /* \"#utility.yul\":11742:11754   */\n      dup3\n        /* \"#utility.yul\":11708:11771   */\n      tag_444\n      jump\t// in\n    tag_545:\n        /* \"#utility.yul\":11610:11781   */\n      pop\n        /* \"#utility.yul\":11872:11876   */\n      0x60\n        /* \"#utility.yul\":11865:11870   */\n      dup3\n        /* \"#utility.yul\":11861:11877   */\n      add\n        /* \"#utility.yul\":11855:11878   */\n      mload\n        /* \"#utility.yul\":11891:11954   */\n      tag_546\n        /* \"#utility.yul\":11948:11952   */\n      0x60\n        /* \"#utility.yul\":11943:11946   */\n      dup6\n        /* \"#utility.yul\":11939:11953   */\n      add\n        /* \"#utility.yul\":11925:11937   */\n      dup3\n        /* \"#utility.yul\":11891:11954   */\n      tag_444\n      jump\t// in\n    tag_546:\n        /* \"#utility.yul\":11791:11964   */\n      pop\n        /* \"#utility.yul\":12053:12057   */\n      0x80\n        /* \"#utility.yul\":12046:12051   */\n      dup3\n        /* \"#utility.yul\":12042:12058   */\n      add\n        /* \"#utility.yul\":12036:12059   */\n      mload\n        /* \"#utility.yul\":12072:12135   */\n      tag_547\n        /* \"#utility.yul\":12129:12133   */\n      0x80\n        /* \"#utility.yul\":12124:12127   */\n      dup6\n        /* \"#utility.yul\":12120:12134   */\n      add\n        /* \"#utility.yul\":12106:12118   */\n      dup3\n        /* \"#utility.yul\":12072:12135   */\n      tag_444\n      jump\t// in\n    tag_547:\n        /* \"#utility.yul\":11974:12145   */\n      pop\n        /* \"#utility.yul\":12230:12234   */\n      0xa0\n        /* \"#utility.yul\":12223:12228   */\n      dup3\n        /* \"#utility.yul\":12219:12235   */\n      add\n        /* \"#utility.yul\":12213:12236   */\n      mload\n        /* \"#utility.yul\":12249:12306   */\n      tag_548\n        /* \"#utility.yul\":12300:12304   */\n      0xa0\n        /* \"#utility.yul\":12295:12298   */\n      dup6\n        /* \"#utility.yul\":12291:12305   */\n      add\n        /* \"#utility.yul\":12277:12289   */\n      dup3\n        /* \"#utility.yul\":12249:12306   */\n      tag_507\n      jump\t// in\n    tag_548:\n        /* \"#utility.yul\":12155:12316   */\n      pop\n        /* \"#utility.yul\":11197:12323   */\n      pop\n        /* \"#utility.yul\":11081:12323   */\n      pop\n      pop\n      jump\t// out\n        /* \"#utility.yul\":12329:12437   */\n    tag_444:\n        /* \"#utility.yul\":12406:12430   */\n      tag_550\n        /* \"#utility.yul\":12424:12429   */\n      dup2\n        /* \"#utility.yul\":12406:12430   */\n      tag_551\n      jump\t// in\n    tag_550:\n        /* \"#utility.yul\":12401:12404   */\n      dup3\n        /* \"#utility.yul\":12394:12431   */\n      mstore\n        /* \"#utility.yul\":12329:12437   */\n      pop\n      pop\n      jump\t// out\n        /* \"#utility.yul\":12443:12561   */\n    tag_552:\n        /* \"#utility.yul\":12530:12554   */\n      tag_554\n        /* \"#utility.yul\":12548:12553   */\n      dup2\n        /* \"#utility.yul\":12530:12554   */\n      tag_551\n      jump\t// in\n    tag_554:\n        /* \"#utility.yul\":12525:12528   */\n      dup3\n        /* \"#utility.yul\":12518:12555   */\n      mstore\n        /* \"#utility.yul\":12443:12561   */\n      pop\n      pop\n      jump\t// out\n        /* \"#utility.yul\":12567:12789   */\n    tag_79:\n        /* \"#utility.yul\":12660:12664   */\n      0x00\n        /* \"#utility.yul\":12698:12700   */\n      0x20\n        /* \"#utility.yul\":12687:12696   */\n      dup3\n        /* \"#utility.yul\":12683:12701   */\n      add\n        /* \"#utility.yul\":12675:12701   */\n      swap1\n      pop\n        /* \"#utility.yul\":12711:12782   */\n      tag_556\n        /* \"#utility.yul\":12779:12780   */\n      0x00\n        /* \"#utility.yul\":12768:12777   */\n      dup4\n        /* \"#utility.yul\":12764:12781   */\n      add\n        /* \"#utility.yul\":12755:12761   */\n      dup5\n        /* \"#utility.yul\":12711:12782   */\n      tag_448\n      jump\t// in\n    tag_556:\n        /* \"#utility.yul\":12567:12789   */\n      swap3\n      swap2\n      pop\n      pop\n      jump\t// out\n        /* \"#utility.yul\":12795:13237   */\n    tag_156:\n        /* \"#utility.yul\":12944:12948   */\n      0x00\n        /* \"#utility.yul\":12982:12984   */\n      0x60\n        /* \"#utility.yul\":12971:12980   */\n      dup3\n        /* \"#utility.yul\":12967:12985   */\n      add\n        /* \"#utility.yul\":12959:12985   */\n      swap1\n      pop\n        /* \"#utility.yul\":12995:13066   */\n      tag_558\n        /* \"#utility.yul\":13063:13064   */\n      0x00\n        /* \"#utility.yul\":13052:13061   */\n      dup4\n        /* \"#utility.yul\":13048:13065   */\n      add\n        /* \"#utility.yul\":13039:13045   */\n      dup7\n        /* \"#utility.yul\":12995:13066   */\n      tag_448\n      jump\t// in\n    tag_558:\n        /* \"#utility.yul\":13076:13148   */\n      tag_559\n        /* \"#utility.yul\":13144:13146   */\n      0x20\n        /* \"#utility.yul\":13133:13142   */\n      dup4\n        /* \"#utility.yul\":13129:13147   */\n      add\n        /* \"#utility.yul\":13120:13126   */\n      dup6\n        /* \"#utility.yul\":13076:13148   */\n      tag_448\n      jump\t// in\n    tag_559:\n        /* \"#utility.yul\":13158:13230   */\n      tag_560\n        /* \"#utility.yul\":13226:13228   */\n      0x40\n        /* \"#utility.yul\":13215:13224   */\n      dup4\n        /* \"#utility.yul\":13211:13229   */\n      add\n        /* \"#utility.yul\":13202:13208   */\n      dup5\n        /* \"#utility.yul\":13158:13230   */\n      tag_552\n      jump\t// in\n    tag_560:\n        /* \"#utility.yul\":12795:13237   */\n      swap5\n      swap4\n      pop\n      pop\n      pop\n      pop\n      jump\t// out\n        /* \"#utility.yul\":13243:13575   */\n    tag_251:\n        /* \"#utility.yul\":13364:13368   */\n      0x00\n        /* \"#utility.yul\":13402:13404   */\n      0x40\n        /* \"#utility.yul\":13391:13400   */\n      dup3\n        /* \"#utility.yul\":13387:13405   */\n      add\n        /* \"#utility.yul\":13379:13405   */\n      swap1\n      pop\n        /* \"#utility.yul\":13415:13486   */\n      tag_562\n        /* \"#utility.yul\":13483:13484   */\n      0x00\n        /* \"#utility.yul\":13472:13481   */\n      dup4\n        /* \"#utility.yul\":13468:13485   */\n      add\n        /* \"#utility.yul\":13459:13465   */\n      dup6\n        /* \"#utility.yul\":13415:13486   */\n      tag_448\n      jump\t// in\n    tag_562:\n        /* \"#utility.yul\":13496:13568   */\n      tag_563\n        /* \"#utility.yul\":13564:13566   */\n      0x20\n        /* \"#utility.yul\":13553:13562   */\n      dup4\n        /* \"#utility.yul\":13549:13567   */\n      add\n        /* \"#utility.yul\":13540:13546   */\n      dup5\n        /* \"#utility.yul\":13496:13568   */\n      tag_552\n      jump\t// in\n    tag_563:\n        /* \"#utility.yul\":13243:13575   */\n      swap4\n      swap3\n      pop\n      pop\n      pop\n      jump\t// out\n        /* \"#utility.yul\":13581:14455   */\n    tag_117:\n        /* \"#utility.yul\":13836:13840   */\n      0x00\n        /* \"#utility.yul\":13874:13877   */\n      0xe0\n        /* \"#utility.yul\":13863:13872   */\n      dup3\n        /* \"#utility.yul\":13859:13878   */\n      add\n        /* \"#utility.yul\":13851:13878   */\n      swap1\n      pop\n        /* \"#utility.yul\":13888:13959   */\n      tag_565\n        /* \"#utility.yul\":13956:13957   */\n      0x00\n        /* \"#utility.yul\":13945:13954   */\n      dup4\n        /* \"#utility.yul\":13941:13958   */\n      add\n        /* \"#utility.yul\":13932:13938   */\n      dup11\n        /* \"#utility.yul\":13888:13959   */\n      tag_448\n      jump\t// in\n    tag_565:\n        /* \"#utility.yul\":13969:14041   */\n      tag_566\n        /* \"#utility.yul\":14037:14039   */\n      0x20\n        /* \"#utility.yul\":14026:14035   */\n      dup4\n        /* \"#utility.yul\":14022:14040   */\n      add\n        /* \"#utility.yul\":14013:14019   */\n      dup10\n        /* \"#utility.yul\":13969:14041   */\n      tag_552\n      jump\t// in\n    tag_566:\n        /* \"#utility.yul\":14051:14123   */\n      tag_567\n        /* \"#utility.yul\":14119:14121   */\n      0x40\n        /* \"#utility.yul\":14108:14117   */\n      dup4\n        /* \"#utility.yul\":14104:14122   */\n      add\n        /* \"#utility.yul\":14095:14101   */\n      dup9\n        /* \"#utility.yul\":14051:14123   */\n      tag_552\n      jump\t// in\n    tag_567:\n        /* \"#utility.yul\":14133:14205   */\n      tag_568\n        /* \"#utility.yul\":14201:14203   */\n      0x60\n        /* \"#utility.yul\":14190:14199   */\n      dup4\n        /* \"#utility.yul\":14186:14204   */\n      add\n        /* \"#utility.yul\":14177:14183   */\n      dup8\n        /* \"#utility.yul\":14133:14205   */\n      tag_552\n      jump\t// in\n    tag_568:\n        /* \"#utility.yul\":14215:14288   */\n      tag_569\n        /* \"#utility.yul\":14283:14286   */\n      0x80\n        /* \"#utility.yul\":14272:14281   */\n      dup4\n        /* \"#utility.yul\":14268:14287   */\n      add\n        /* \"#utility.yul\":14259:14265   */\n      dup7\n        /* \"#utility.yul\":14215:14288   */\n      tag_552\n      jump\t// in\n    tag_569:\n        /* \"#utility.yul\":14298:14365   */\n      tag_570\n        /* \"#utility.yul\":14360:14363   */\n      0xa0\n        /* \"#utility.yul\":14349:14358   */\n      dup4\n        /* \"#utility.yul\":14345:14364   */\n      add\n        /* \"#utility.yul\":14336:14342   */\n      dup6\n        /* \"#utility.yul\":14298:14365   */\n      tag_511\n      jump\t// in\n    tag_570:\n        /* \"#utility.yul\":14375:14448   */\n      tag_571\n        /* \"#utility.yul\":14443:14446   */\n      0xc0\n        /* \"#utility.yul\":14432:14441   */\n      dup4\n        /* \"#utility.yul\":14428:14447   */\n      add\n        /* \"#utility.yul\":14419:14425   */\n      dup5\n        /* \"#utility.yul\":14375:14448   */\n      tag_552\n      jump\t// in\n    tag_571:\n        /* \"#utility.yul\":13581:14455   */\n      swap9\n      swap8\n      pop\n      pop\n      pop\n      pop\n      pop\n      pop\n      pop\n      pop\n      jump\t// out\n        /* \"#utility.yul\":14461:14834   */\n    tag_39:\n        /* \"#utility.yul\":14604:14608   */\n      0x00\n        /* \"#utility.yul\":14642:14644   */\n      0x20\n        /* \"#utility.yul\":14631:14640   */\n      dup3\n        /* \"#utility.yul\":14627:14645   */\n      add\n        /* \"#utility.yul\":14619:14645   */\n      swap1\n      pop\n        /* \"#utility.yul\":14691:14700   */\n      dup2\n        /* \"#utility.yul\":14685:14689   */\n      dup2\n        /* \"#utility.yul\":14681:14701   */\n      sub\n        /* \"#utility.yul\":14677:14678   */\n      0x00\n        /* \"#utility.yul\":14666:14675   */\n      dup4\n        /* \"#utility.yul\":14662:14679   */\n      add\n        /* \"#utility.yul\":14655:14702   */\n      mstore\n        /* \"#utility.yul\":14719:14827   */\n      tag_573\n        /* \"#utility.yul\":14822:14826   */\n      dup2\n        /* \"#utility.yul\":14813:14819   */\n      dup5\n        /* \"#utility.yul\":14719:14827   */\n      tag_451\n      jump\t// in\n    tag_573:\n        /* \"#utility.yul\":14711:14827   */\n      swap1\n      pop\n        /* \"#utility.yul\":14461:14834   */\n      swap3\n      swap2\n      pop\n      pop\n      jump\t// out\n        /* \"#utility.yul\":14840:15317   */\n    tag_67:\n        /* \"#utility.yul\":15035:15039   */\n      0x00\n        /* \"#utility.yul\":15073:15075   */\n      0x20\n        /* \"#utility.yul\":15062:15071   */\n      dup3\n        /* \"#utility.yul\":15058:15076   */\n      add\n        /* \"#utility.yul\":15050:15076   */\n      swap1\n      pop\n        /* \"#utility.yul\":15122:15131   */\n      dup2\n        /* \"#utility.yul\":15116:15120   */\n      dup2\n        /* \"#utility.yul\":15112:15132   */\n      sub\n        /* \"#utility.yul\":15108:15109   */\n      0x00\n        /* \"#utility.yul\":15097:15106   */\n      dup4\n        /* \"#utility.yul\":15093:15110   */\n      add\n        /* \"#utility.yul\":15086:15133   */\n      mstore\n        /* \"#utility.yul\":15150:15310   */\n      tag_575\n        /* \"#utility.yul\":15305:15309   */\n      dup2\n        /* \"#utility.yul\":15296:15302   */\n      dup5\n        /* \"#utility.yul\":15150:15310   */\n      tag_465\n      jump\t// in\n    tag_575:\n        /* \"#utility.yul\":15142:15310   */\n      swap1\n      pop\n        /* \"#utility.yul\":14840:15317   */\n      swap3\n      swap2\n      pop\n      pop\n      jump\t// out\n        /* \"#utility.yul\":15323:15816   */\n    tag_60:\n        /* \"#utility.yul\":15526:15530   */\n      0x00\n        /* \"#utility.yul\":15564:15566   */\n      0x20\n        /* \"#utility.yul\":15553:15562   */\n      dup3\n        /* \"#utility.yul\":15549:15567   */\n      add\n        /* \"#utility.yul\":15541:15567   */\n      swap1\n      pop\n        /* \"#utility.yul\":15613:15622   */\n      dup2\n        /* \"#utility.yul\":15607:15611   */\n      dup2\n        /* \"#utility.yul\":15603:15623   */\n      sub\n        /* \"#utility.yul\":15599:15600   */\n      0x00\n        /* \"#utility.yul\":15588:15597   */\n      dup4\n        /* \"#utility.yul\":15584:15601   */\n      add\n        /* \"#utility.yul\":15577:15624   */\n      mstore\n        /* \"#utility.yul\":15641:15809   */\n      tag_577\n        /* \"#utility.yul\":15804:15808   */\n      dup2\n        /* \"#utility.yul\":15795:15801   */\n      dup5\n        /* \"#utility.yul\":15641:15809   */\n      tag_479\n      jump\t// in\n    tag_577:\n        /* \"#utility.yul\":15633:15809   */\n      swap1\n      pop\n        /* \"#utility.yul\":15323:15816   */\n      swap3\n      swap2\n      pop\n      pop\n      jump\t// out\n        /* \"#utility.yul\":15822:16195   */\n    tag_105:\n        /* \"#utility.yul\":15965:15969   */\n      0x00\n        /* \"#utility.yul\":16003:16005   */\n      0x20\n        /* \"#utility.yul\":15992:16001   */\n      dup3\n        /* \"#utility.yul\":15988:16006   */\n      add\n        /* \"#utility.yul\":15980:16006   */\n      swap1\n      pop\n        /* \"#utility.yul\":16052:16061   */\n      dup2\n        /* \"#utility.yul\":16046:16050   */\n      dup2\n        /* \"#utility.yul\":16042:16062   */\n      sub\n        /* \"#utility.yul\":16038:16039   */\n      0x00\n        /* \"#utility.yul\":16027:16036   */\n      dup4\n        /* \"#utility.yul\":16023:16040   */\n      add\n        /* \"#utility.yul\":16016:16063   */\n      mstore\n        /* \"#utility.yul\":16080:16188   */\n      tag_579\n        /* \"#utility.yul\":16183:16187   */\n      dup2\n        /* \"#utility.yul\":16174:16180   */\n      dup5\n        /* \"#utility.yul\":16080:16188   */\n      tag_493\n      jump\t// in\n    tag_579:\n        /* \"#utility.yul\":16072:16188   */\n      swap1\n      pop\n        /* \"#utility.yul\":15822:16195   */\n      swap3\n      swap2\n      pop\n      pop\n      jump\t// out\n        /* \"#utility.yul\":16201:16411   */\n    tag_52:\n        /* \"#utility.yul\":16288:16292   */\n      0x00\n        /* \"#utility.yul\":16326:16328   */\n      0x20\n        /* \"#utility.yul\":16315:16324   */\n      dup3\n        /* \"#utility.yul\":16311:16329   */\n      add\n        /* \"#utility.yul\":16303:16329   */\n      swap1\n      pop\n        /* \"#utility.yul\":16339:16404   */\n      tag_581\n        /* \"#utility.yul\":16401:16402   */\n      0x00\n        /* \"#utility.yul\":16390:16399   */\n      dup4\n        /* \"#utility.yul\":16386:16403   */\n      add\n        /* \"#utility.yul\":16377:16383   */\n      dup5\n        /* \"#utility.yul\":16339:16404   */\n      tag_511\n      jump\t// in\n    tag_581:\n        /* \"#utility.yul\":16201:16411   */\n      swap3\n      swap2\n      pop\n      pop\n      jump\t// out\n        /* \"#utility.yul\":16417:16836   */\n    tag_243:\n        /* \"#utility.yul\":16583:16587   */\n      0x00\n        /* \"#utility.yul\":16621:16623   */\n      0x20\n        /* \"#utility.yul\":16610:16619   */\n      dup3\n        /* \"#utility.yul\":16606:16624   */\n      add\n        /* \"#utility.yul\":16598:16624   */\n      swap1\n      pop\n        /* \"#utility.yul\":16670:16679   */\n      dup2\n        /* \"#utility.yul\":16664:16668   */\n      dup2\n        /* \"#utility.yul\":16660:16680   */\n      sub\n        /* \"#utility.yul\":16656:16657   */\n      0x00\n        /* \"#utility.yul\":16645:16654   */\n      dup4\n        /* \"#utility.yul\":16641:16658   */\n      add\n        /* \"#utility.yul\":16634:16681   */\n      mstore\n        /* \"#utility.yul\":16698:16829   */\n      tag_583\n        /* \"#utility.yul\":16824:16828   */\n      dup2\n        /* \"#utility.yul\":16698:16829   */\n      tag_514\n      jump\t// in\n    tag_583:\n        /* \"#utility.yul\":16690:16829   */\n      swap1\n      pop\n        /* \"#utility.yul\":16417:16836   */\n      swap2\n      swap1\n      pop\n      jump\t// out\n        /* \"#utility.yul\":16842:17261   */\n    tag_141:\n        /* \"#utility.yul\":17008:17012   */\n      0x00\n        /* \"#utility.yul\":17046:17048   */\n      0x20\n        /* \"#utility.yul\":17035:17044   */\n      dup3\n        /* \"#utility.yul\":17031:17049   */\n      add\n        /* \"#utility.yul\":17023:17049   */\n      swap1\n      pop\n        /* \"#utility.yul\":17095:17104   */\n      dup2\n        /* \"#utility.yul\":17089:17093   */\n      dup2\n        /* \"#utility.yul\":17085:17105   */\n      sub\n        /* \"#utility.yul\":17081:17082   */\n      0x00\n        /* \"#utility.yul\":17070:17079   */\n      dup4\n        /* \"#utility.yul\":17066:17083   */\n      add\n        /* \"#utility.yul\":17059:17106   */\n      mstore\n        /* \"#utility.yul\":17123:17254   */\n      tag_585\n        /* \"#utility.yul\":17249:17253   */\n      dup2\n        /* \"#utility.yul\":17123:17254   */\n      tag_520\n      jump\t// in\n    tag_585:\n        /* \"#utility.yul\":17115:17254   */\n      swap1\n      pop\n        /* \"#utility.yul\":16842:17261   */\n      swap2\n      swap1\n      pop\n      jump\t// out\n        /* \"#utility.yul\":17267:17686   */\n    tag_293:\n        /* \"#utility.yul\":17433:17437   */\n      0x00\n        /* \"#utility.yul\":17471:17473   */\n      0x20\n        /* \"#utility.yul\":17460:17469   */\n      dup3\n        /* \"#utility.yul\":17456:17474   */\n      add\n        /* \"#utility.yul\":17448:17474   */\n      swap1\n      pop\n        /* \"#utility.yul\":17520:17529   */\n      dup2\n        /* \"#utility.yul\":17514:17518   */\n      dup2\n        /* \"#utility.yul\":17510:17530   */\n      sub\n        /* \"#utility.yul\":17506:17507   */\n      0x00\n        /* \"#utility.yul\":17495:17504   */\n      dup4\n        /* \"#utility.yul\":17491:17508   */\n      add\n        /* \"#utility.yul\":17484:17531   */\n      mstore\n        /* \"#utility.yul\":17548:17679   */\n      tag_587\n        /* \"#utility.yul\":17674:17678   */\n      dup2\n        /* \"#utility.yul\":17548:17679   */\n      tag_525\n      jump\t// in\n    tag_587:\n        /* \"#utility.yul\":17540:17679   */\n      swap1\n      pop\n        /* \"#utility.yul\":17267:17686   */\n      swap2\n      swap1\n      pop\n      jump\t// out\n        /* \"#utility.yul\":17692:18111   */\n    tag_312:\n        /* \"#utility.yul\":17858:17862   */\n      0x00\n        /* \"#utility.yul\":17896:17898   */\n      0x20\n        /* \"#utility.yul\":17885:17894   */\n      dup3\n        /* \"#utility.yul\":17881:17899   */\n      add\n        /* \"#utility.yul\":17873:17899   */\n      swap1\n      pop\n        /* \"#utility.yul\":17945:17954   */\n      dup2\n        /* \"#utility.yul\":17939:17943   */\n      dup2\n        /* \"#utility.yul\":17935:17955   */\n      sub\n        /* \"#utility.yul\":17931:17932   */\n      0x00\n        /* \"#utility.yul\":17920:17929   */\n      dup4\n        /* \"#utility.yul\":17916:17933   */\n      add\n        /* \"#utility.yul\":17909:17956   */\n      mstore\n        /* \"#utility.yul\":17973:18104   */\n      tag_589\n        /* \"#utility.yul\":18099:18103   */\n      dup2\n        /* \"#utility.yul\":17973:18104   */\n      tag_530\n      jump\t// in\n    tag_589:\n        /* \"#utility.yul\":17965:18104   */\n      swap1\n      pop\n        /* \"#utility.yul\":17692:18111   */\n      swap2\n      swap1\n      pop\n      jump\t// out\n        /* \"#utility.yul\":18117:18339   */\n    tag_43:\n        /* \"#utility.yul\":18210:18214   */\n      0x00\n        /* \"#utility.yul\":18248:18250   */\n      0x20\n        /* \"#utility.yul\":18237:18246   */\n      dup3\n        /* \"#utility.yul\":18233:18251   */\n      add\n        /* \"#utility.yul\":18225:18251   */\n      swap1\n      pop\n        /* \"#utility.yul\":18261:18332   */\n      tag_591\n        /* \"#utility.yul\":18329:18330   */\n      0x00\n        /* \"#utility.yul\":18318:18327   */\n      dup4\n        /* \"#utility.yul\":18314:18331   */\n      add\n        /* \"#utility.yul\":18305:18311   */\n      dup5\n        /* \"#utility.yul\":18261:18332   */\n      tag_552\n      jump\t// in\n    tag_591:\n        /* \"#utility.yul\":18117:18339   */\n      swap3\n      swap2\n      pop\n      pop\n      jump\t// out\n        /* \"#utility.yul\":18426:18558   */\n    tag_458:\n        /* \"#utility.yul\":18493:18497   */\n      0x00\n        /* \"#utility.yul\":18516:18519   */\n      dup2\n        /* \"#utility.yul\":18508:18519   */\n      swap1\n      pop\n        /* \"#utility.yul\":18546:18550   */\n      0x20\n        /* \"#utility.yul\":18541:18544   */\n      dup3\n        /* \"#utility.yul\":18537:18551   */\n      add\n        /* \"#utility.yul\":18529:18551   */\n      swap1\n      pop\n        /* \"#utility.yul\":18426:18558   */\n      swap2\n      swap1\n      pop\n      jump\t// out\n        /* \"#utility.yul\":18564:18722   */\n    tag_472:\n        /* \"#utility.yul\":18657:18661   */\n      0x00\n        /* \"#utility.yul\":18680:18683   */\n      dup2\n        /* \"#utility.yul\":18672:18683   */\n      swap1\n      pop\n        /* \"#utility.yul\":18710:18714   */\n      0x20\n        /* \"#utility.yul\":18705:18708   */\n      dup3\n        /* \"#utility.yul\":18701:18715   */\n      add\n        /* \"#utility.yul\":18693:18715   */\n      swap1\n      pop\n        /* \"#utility.yul\":18564:18722   */\n      swap2\n      swap1\n      pop\n      jump\t// out\n        /* \"#utility.yul\":18728:18890   */\n    tag_486:\n        /* \"#utility.yul\":18825:18829   */\n      0x00\n        /* \"#utility.yul\":18848:18851   */\n      dup2\n        /* \"#utility.yul\":18840:18851   */\n      swap1\n      pop\n        /* \"#utility.yul\":18878:18882   */\n      0x20\n        /* \"#utility.yul\":18873:18876   */\n      dup3\n        /* \"#utility.yul\":18869:18883   */\n      add\n        /* \"#utility.yul\":18861:18883   */\n      swap1\n      pop\n        /* \"#utility.yul\":18728:18890   */\n      swap2\n      swap1\n      pop\n      jump\t// out\n        /* \"#utility.yul\":18896:19028   */\n    tag_500:\n        /* \"#utility.yul\":18963:18967   */\n      0x00\n        /* \"#utility.yul\":18986:18989   */\n      dup2\n        /* \"#utility.yul\":18978:18989   */\n      swap1\n      pop\n        /* \"#utility.yul\":19016:19020   */\n      0x20\n        /* \"#utility.yul\":19011:19014   */\n      dup3\n        /* \"#utility.yul\":19007:19021   */\n      add\n        /* \"#utility.yul\":18999:19021   */\n      swap1\n      pop\n        /* \"#utility.yul\":18896:19028   */\n      swap2\n      swap1\n      pop\n      jump\t// out\n        /* \"#utility.yul\":19034:19148   */\n    tag_454:\n        /* \"#utility.yul\":19101:19107   */\n      0x00\n        /* \"#utility.yul\":19135:19140   */\n      dup2\n        /* \"#utility.yul\":19129:19141   */\n      mload\n        /* \"#utility.yul\":19119:19141   */\n      swap1\n      pop\n        /* \"#utility.yul\":19034:19148   */\n      swap2\n      swap1\n      pop\n      jump\t// out\n        /* \"#utility.yul\":19154:19294   */\n    tag_468:\n        /* \"#utility.yul\":19247:19253   */\n      0x00\n        /* \"#utility.yul\":19281:19286   */\n      dup2\n        /* \"#utility.yul\":19275:19287   */\n      mload\n        /* \"#utility.yul\":19265:19287   */\n      swap1\n      pop\n        /* \"#utility.yul\":19154:19294   */\n      swap2\n      swap1\n      pop\n      jump\t// out\n        /* \"#utility.yul\":19300:19444   */\n    tag_482:\n        /* \"#utility.yul\":19397:19403   */\n      0x00\n        /* \"#utility.yul\":19431:19436   */\n      dup2\n        /* \"#utility.yul\":19425:19437   */\n      mload\n        /* \"#utility.yul\":19415:19437   */\n      swap1\n      pop\n        /* \"#utility.yul\":19300:19444   */\n      swap2\n      swap1\n      pop\n      jump\t// out\n        /* \"#utility.yul\":19450:19564   */\n    tag_496:\n        /* \"#utility.yul\":19517:19523   */\n      0x00\n        /* \"#utility.yul\":19551:19556   */\n      dup2\n        /* \"#utility.yul\":19545:19557   */\n      mload\n        /* \"#utility.yul\":19535:19557   */\n      swap1\n      pop\n        /* \"#utility.yul\":19450:19564   */\n      swap2\n      swap1\n      pop\n      jump\t// out\n        /* \"#utility.yul\":19570:19683   */\n    tag_464:\n        /* \"#utility.yul\":19640:19644   */\n      0x00\n        /* \"#utility.yul\":19672:19676   */\n      0x20\n        /* \"#utility.yul\":19667:19670   */\n      dup3\n        /* \"#utility.yul\":19663:19677   */\n      add\n        /* \"#utility.yul\":19655:19677   */\n      swap1\n      pop\n        /* \"#utility.yul\":19570:19683   */\n      swap2\n      swap1\n      pop\n      jump\t// out\n        /* \"#utility.yul\":19689:19828   */\n    tag_478:\n        /* \"#utility.yul\":19785:19789   */\n      0x00\n        /* \"#utility.yul\":19817:19821   */\n      0x20\n        /* \"#utility.yul\":19812:19815   */\n      dup3\n        /* \"#utility.yul\":19808:19822   */\n      add\n        /* \"#utility.yul\":19800:19822   */\n      swap1\n      pop\n        /* \"#utility.yul\":19689:19828   */\n      swap2\n      swap1\n      pop\n      jump\t// out\n        /* \"#utility.yul\":19834:19977   */\n    tag_492:\n        /* \"#utility.yul\":19934:19938   */\n      0x00\n        /* \"#utility.yul\":19966:19970   */\n      0x20\n        /* \"#utility.yul\":19961:19964   */\n      dup3\n        /* \"#utility.yul\":19957:19971   */\n      add\n        /* \"#utility.yul\":19949:19971   */\n      swap1\n      pop\n        /* \"#utility.yul\":19834:19977   */\n      swap2\n      swap1\n      pop\n      jump\t// out\n        /* \"#utility.yul\":19983:20096   */\n    tag_506:\n        /* \"#utility.yul\":20053:20057   */\n      0x00\n        /* \"#utility.yul\":20085:20089   */\n      0x20\n        /* \"#utility.yul\":20080:20083   */\n      dup3\n        /* \"#utility.yul\":20076:20090   */\n      add\n        /* \"#utility.yul\":20068:20090   */\n      swap1\n      pop\n        /* \"#utility.yul\":19983:20096   */\n      swap2\n      swap1\n      pop\n      jump\t// out\n        /* \"#utility.yul\":20102:20286   */\n    tag_456:\n        /* \"#utility.yul\":20201:20212   */\n      0x00\n        /* \"#utility.yul\":20235:20241   */\n      dup3\n        /* \"#utility.yul\":20230:20233   */\n      dup3\n        /* \"#utility.yul\":20223:20242   */\n      mstore\n        /* \"#utility.yul\":20275:20279   */\n      0x20\n        /* \"#utility.yul\":20270:20273   */\n      dup3\n        /* \"#utility.yul\":20266:20280   */\n      add\n        /* \"#utility.yul\":20251:20280   */\n      swap1\n      pop\n        /* \"#utility.yul\":20102:20286   */\n      swap3\n      swap2\n      pop\n      pop\n      jump\t// out\n        /* \"#utility.yul\":20292:20502   */\n    tag_470:\n        /* \"#utility.yul\":20417:20428   */\n      0x00\n        /* \"#utility.yul\":20451:20457   */\n      dup3\n        /* \"#utility.yul\":20446:20449   */\n      dup3\n        /* \"#utility.yul\":20439:20458   */\n      mstore\n        /* \"#utility.yul\":20491:20495   */\n      0x20\n        /* \"#utility.yul\":20486:20489   */\n      dup3\n        /* \"#utility.yul\":20482:20496   */\n      add\n        /* \"#utility.yul\":20467:20496   */\n      swap1\n      pop\n        /* \"#utility.yul\":20292:20502   */\n      swap3\n      swap2\n      pop\n      pop\n      jump\t// out\n        /* \"#utility.yul\":20508:20722   */\n    tag_484:\n        /* \"#utility.yul\":20637:20648   */\n      0x00\n        /* \"#utility.yul\":20671:20677   */\n      dup3\n        /* \"#utility.yul\":20666:20669   */\n      dup3\n        /* \"#utility.yul\":20659:20678   */\n      mstore\n        /* \"#utility.yul\":20711:20715   */\n      0x20\n        /* \"#utility.yul\":20706:20709   */\n      dup3\n        /* \"#utility.yul\":20702:20716   */\n      add\n        /* \"#utility.yul\":20687:20716   */\n      swap1\n      pop\n        /* \"#utility.yul\":20508:20722   */\n      swap3\n      swap2\n      pop\n      pop\n      jump\t// out\n        /* \"#utility.yul\":20728:20912   */\n    tag_498:\n        /* \"#utility.yul\":20827:20838   */\n      0x00\n        /* \"#utility.yul\":20861:20867   */\n      dup3\n        /* \"#utility.yul\":20856:20859   */\n      dup3\n        /* \"#utility.yul\":20849:20868   */\n      mstore\n        /* \"#utility.yul\":20901:20905   */\n      0x20\n        /* \"#utility.yul\":20896:20899   */\n      dup3\n        /* \"#utility.yul\":20892:20906   */\n      add\n        /* \"#utility.yul\":20877:20906   */\n      swap1\n      pop\n        /* \"#utility.yul\":20728:20912   */\n      swap3\n      swap2\n      pop\n      pop\n      jump\t// out\n        /* \"#utility.yul\":20918:21087   */\n    tag_517:\n        /* \"#utility.yul\":21002:21013   */\n      0x00\n        /* \"#utility.yul\":21036:21042   */\n      dup3\n        /* \"#utility.yul\":21031:21034   */\n      dup3\n        /* \"#utility.yul\":21024:21043   */\n      mstore\n        /* \"#utility.yul\":21076:21080   */\n      0x20\n        /* \"#utility.yul\":21071:21074   */\n      dup3\n        /* \"#utility.yul\":21067:21081   */\n      add\n        /* \"#utility.yul\":21052:21081   */\n      swap1\n      pop\n        /* \"#utility.yul\":20918:21087   */\n      swap3\n      swap2\n      pop\n      pop\n      jump\t// out\n        /* \"#utility.yul\":21093:21398   */\n    tag_148:\n        /* \"#utility.yul\":21133:21136   */\n      0x00\n        /* \"#utility.yul\":21152:21172   */\n      tag_612\n        /* \"#utility.yul\":21170:21171   */\n      dup3\n        /* \"#utility.yul\":21152:21172   */\n      tag_551\n      jump\t// in\n    tag_612:\n        /* \"#utility.yul\":21147:21172   */\n      swap2\n      pop\n        /* \"#utility.yul\":21186:21206   */\n      tag_613\n        /* \"#utility.yul\":21204:21205   */\n      dup4\n        /* \"#utility.yul\":21186:21206   */\n      tag_551\n      jump\t// in\n    tag_613:\n        /* \"#utility.yul\":21181:21206   */\n      swap3\n      pop\n        /* \"#utility.yul\":21340:21341   */\n      dup3\n        /* \"#utility.yul\":21272:21338   */\n      0xffffffffffffffffffffffffffffffffffffffffffffffffffffffffffffffff\n        /* \"#utility.yul\":21268:21342   */\n      sub\n        /* \"#utility.yul\":21265:21266   */\n      dup3\n        /* \"#utility.yul\":21262:21343   */\n      gt\n        /* \"#utility.yul\":21259:21366   */\n      iszero\n      tag_614\n      jumpi\n        /* \"#utility.yul\":21346:21364   */\n      tag_615\n      tag_616\n      jump\t// in\n    tag_615:\n        /* \"#utility.yul\":21259:21366   */\n    tag_614:\n        /* \"#utility.yul\":21390:21391   */\n      dup3\n        /* \"#utility.yul\":21387:21388   */\n      dup3\n        /* \"#utility.yul\":21383:21392   */\n      add\n        /* \"#utility.yul\":21376:21392   */\n      swap1\n      pop\n        /* \"#utility.yul\":21093:21398   */\n      swap3\n      swap2\n      pop\n      pop\n      jump\t// out\n        /* \"#utility.yul\":21404:21589   */\n    tag_203:\n        /* \"#utility.yul\":21444:21445   */\n      0x00\n        /* \"#utility.yul\":21461:21481   */\n      tag_618\n        /* \"#utility.yul\":21479:21480   */\n      dup3\n        /* \"#utility.yul\":21461:21481   */\n      tag_551\n      jump\t// in\n    tag_618:\n        /* \"#utility.yul\":21456:21481   */\n      swap2\n      pop\n        /* \"#utility.yul\":21495:21515   */\n      tag_619\n        /* \"#utility.yul\":21513:21514   */\n      dup4\n        /* \"#utility.yul\":21495:21515   */\n      tag_551\n      jump\t// in\n    tag_619:\n        /* \"#utility.yul\":21490:21515   */\n      swap3\n      pop\n        /* \"#utility.yul\":21534:21535   */\n      dup3\n        /* \"#utility.yul\":21524:21559   */\n      tag_620\n      jumpi\n        /* \"#utility.yul\":21539:21557   */\n      tag_621\n      tag_622\n      jump\t// in\n    tag_621:\n        /* \"#utility.yul\":21524:21559   */\n    tag_620:\n        /* \"#utility.yul\":21581:21582   */\n      dup3\n        /* \"#utility.yul\":21578:21579   */\n      dup3\n        /* \"#utility.yul\":21574:21583   */\n      div\n        /* \"#utility.yul\":21569:21583   */\n      swap1\n      pop\n        /* \"#utility.yul\":21404:21589   */\n      swap3\n      swap2\n      pop\n      pop\n      jump\t// out\n        /* \"#utility.yul\":21595:21943   */\n    tag_154:\n        /* \"#utility.yul\":21635:21642   */\n      0x00\n        /* \"#utility.yul\":21658:21678   */\n      tag_624\n        /* \"#utility.yul\":21676:21677   */\n      dup3\n        /* \"#utility.yul\":21658:21678   */\n      tag_551\n      jump\t// in\n    tag_624:\n        /* \"#utility.yul\":21653:21678   */\n      swap2\n      pop\n        /* \"#utility.yul\":21692:21712   */\n      tag_625\n        /* \"#utility.yul\":21710:21711   */\n      dup4\n        /* \"#utility.yul\":21692:21712   */\n      tag_551\n      jump\t// in\n    tag_625:\n        /* \"#utility.yul\":21687:21712   */\n      swap3\n      pop\n        /* \"#utility.yul\":21880:21881   */\n      dup2\n        /* \"#utility.yul\":21812:21878   */\n      0xffffffffffffffffffffffffffffffffffffffffffffffffffffffffffffffff\n        /* \"#utility.yul\":21808:21882   */\n      div\n        /* \"#utility.yul\":21805:21806   */\n      dup4\n        /* \"#utility.yul\":21802:21883   */\n      gt\n        /* \"#utility.yul\":21797:21798   */\n      dup3\n        /* \"#utility.yul\":21790:21799   */\n      iszero\n        /* \"#utility.yul\":21783:21800   */\n      iszero\n        /* \"#utility.yul\":21779:21884   */\n      and\n        /* \"#utility.yul\":21776:21907   */\n      iszero\n      tag_626\n      jumpi\n        /* \"#utility.yul\":21887:21905   */\n      tag_627\n      tag_616\n      jump\t// in\n    tag_627:\n        /* \"#utility.yul\":21776:21907   */\n    tag_626:\n        /* \"#utility.yul\":21935:21936   */\n      dup3\n        /* \"#utility.yul\":21932:21933   */\n      dup3\n        /* \"#utility.yul\":21928:21937   */\n      mul\n        /* \"#utility.yul\":21917:21937   */\n      swap1\n      pop\n        /* \"#utility.yul\":21595:21943   */\n      swap3\n      swap2\n      pop\n      pop\n      jump\t// out\n        /* \"#utility.yul\":21949:22140   */\n    tag_199:\n        /* \"#utility.yul\":21989:21993   */\n      0x00\n        /* \"#utility.yul\":22009:22029   */\n      tag_629\n        /* \"#utility.yul\":22027:22028   */\n      dup3\n        /* \"#utility.yul\":22009:22029   */\n      tag_551\n      jump\t// in\n    tag_629:\n        /* \"#utility.yul\":22004:22029   */\n      swap2\n      pop\n        /* \"#utility.yul\":22043:22063   */\n      tag_630\n        /* \"#utility.yul\":22061:22062   */\n      dup4\n        /* \"#utility.yul\":22043:22063   */\n      tag_551\n      jump\t// in\n    tag_630:\n        /* \"#utility.yul\":22038:22063   */\n      swap3\n      pop\n        /* \"#utility.yul\":22082:22083   */\n      dup3\n        /* \"#utility.yul\":22079:22080   */\n      dup3\n        /* \"#utility.yul\":22076:22084   */\n      lt\n        /* \"#utility.yul\":22073:22107   */\n      iszero\n      tag_631\n      jumpi\n        /* \"#utility.yul\":22087:22105   */\n      tag_632\n      tag_616\n      jump\t// in\n    tag_632:\n        /* \"#utility.yul\":22073:22107   */\n    tag_631:\n        /* \"#utility.yul\":22132:22133   */\n      dup3\n        /* \"#utility.yul\":22129:22130   */\n      dup3\n        /* \"#utility.yul\":22125:22134   */\n      sub\n        /* \"#utility.yul\":22117:22134   */\n      swap1\n      pop\n        /* \"#utility.yul\":21949:22140   */\n      swap3\n      swap2\n      pop\n      pop\n      jump\t// out\n        /* \"#utility.yul\":22146:22242   */\n    tag_447:\n        /* \"#utility.yul\":22183:22190   */\n      0x00\n        /* \"#utility.yul\":22212:22236   */\n      tag_634\n        /* \"#utility.yul\":22230:22235   */\n      dup3\n        /* \"#utility.yul\":22212:22236   */\n      tag_635\n      jump\t// in\n    tag_634:\n        /* \"#utility.yul\":22201:22236   */\n      swap1\n      pop\n        /* \"#utility.yul\":22146:22242   */\n      swap2\n      swap1\n      pop\n      jump\t// out\n        /* \"#utility.yul\":22248:22338   */\n    tag_510:\n        /* \"#utility.yul\":22282:22289   */\n      0x00\n        /* \"#utility.yul\":22325:22330   */\n      dup2\n        /* \"#utility.yul\":22318:22331   */\n      iszero\n        /* \"#utility.yul\":22311:22332   */\n      iszero\n        /* \"#utility.yul\":22300:22332   */\n      swap1\n      pop\n        /* \"#utility.yul\":22248:22338   */\n      swap2\n      swap1\n      pop\n      jump\t// out\n        /* \"#utility.yul\":22344:22470   */\n    tag_635:\n        /* \"#utility.yul\":22381:22388   */\n      0x00\n        /* \"#utility.yul\":22421:22463   */\n      0xffffffffffffffffffffffffffffffffffffffff\n        /* \"#utility.yul\":22414:22419   */\n      dup3\n        /* \"#utility.yul\":22410:22464   */\n      and\n        /* \"#utility.yul\":22399:22464   */\n      swap1\n      pop\n        /* \"#utility.yul\":22344:22470   */\n      swap2\n      swap1\n      pop\n      jump\t// out\n        /* \"#utility.yul\":22476:22553   */\n    tag_551:\n        /* \"#utility.yul\":22513:22520   */\n      0x00\n        /* \"#utility.yul\":22542:22547   */\n      dup2\n        /* \"#utility.yul\":22531:22547   */\n      swap1\n      pop\n        /* \"#utility.yul\":22476:22553   */\n      swap2\n      swap1\n      pop\n      jump\t// out\n        /* \"#utility.yul\":22559:22792   */\n    tag_144:\n        /* \"#utility.yul\":22598:22601   */\n      0x00\n        /* \"#utility.yul\":22621:22645   */\n      tag_640\n        /* \"#utility.yul\":22639:22644   */\n      dup3\n        /* \"#utility.yul\":22621:22645   */\n      tag_551\n      jump\t// in\n    tag_640:\n        /* \"#utility.yul\":22612:22645   */\n      swap2\n      pop\n        /* \"#utility.yul\":22667:22733   */\n      0xffffffffffffffffffffffffffffffffffffffffffffffffffffffffffffffff\n        /* \"#utility.yul\":22660:22665   */\n      dup3\n        /* \"#utility.yul\":22657:22734   */\n      eq\n        /* \"#utility.yul\":22654:22757   */\n      iszero\n      tag_641\n      jumpi\n        /* \"#utility.yul\":22737:22755   */\n      tag_642\n      tag_616\n      jump\t// in\n    tag_642:\n        /* \"#utility.yul\":22654:22757   */\n    tag_641:\n        /* \"#utility.yul\":22784:22785   */\n      0x01\n        /* \"#utility.yul\":22777:22782   */\n      dup3\n        /* \"#utility.yul\":22773:22786   */\n      add\n        /* \"#utility.yul\":22766:22786   */\n      swap1\n      pop\n        /* \"#utility.yul\":22559:22792   */\n      swap2\n      swap1\n      pop\n      jump\t// out\n        /* \"#utility.yul\":22798:22978   */\n    tag_616:\n        /* \"#utility.yul\":22846:22923   */\n      0x4e487b7100000000000000000000000000000000000000000000000000000000\n        /* \"#utility.yul\":22843:22844   */\n      0x00\n        /* \"#utility.yul\":22836:22924   */\n      mstore\n        /* \"#utility.yul\":22943:22947   */\n      0x11\n        /* \"#utility.yul\":22940:22941   */\n      0x04\n        /* \"#utility.yul\":22933:22948   */\n      mstore\n        /* \"#utility.yul\":22967:22971   */\n      0x24\n        /* \"#utility.yul\":22964:22965   */\n      0x00\n        /* \"#utility.yul\":22957:22972   */\n      revert\n        /* \"#utility.yul\":22984:23164   */\n    tag_622:\n        /* \"#utility.yul\":23032:23109   */\n      0x4e487b7100000000000000000000000000000000000000000000000000000000\n        /* \"#utility.yul\":23029:23030   */\n      0x00\n        /* \"#utility.yul\":23022:23110   */\n      mstore\n        /* \"#utility.yul\":23129:23133   */\n      0x12\n        /* \"#utility.yul\":23126:23127   */\n      0x04\n        /* \"#utility.yul\":23119:23134   */\n      mstore\n        /* \"#utility.yul\":23153:23157   */\n      0x24\n        /* \"#utility.yul\":23150:23151   */\n      0x00\n        /* \"#utility.yul\":23143:23158   */\n      revert\n        /* \"#utility.yul\":23170:23350   */\n    tag_190:\n        /* \"#utility.yul\":23218:23295   */\n      0x4e487b7100000000000000000000000000000000000000000000000000000000\n        /* \"#utility.yul\":23215:23216   */\n      0x00\n        /* \"#utility.yul\":23208:23296   */\n      mstore\n        /* \"#utility.yul\":23315:23319   */\n      0x32\n        /* \"#utility.yul\":23312:23313   */\n      0x04\n        /* \"#utility.yul\":23305:23320   */\n      mstore\n        /* \"#utility.yul\":23339:23343   */\n      0x24\n        /* \"#utility.yul\":23336:23337   */\n      0x00\n        /* \"#utility.yul\":23329:23344   */\n      revert\n        /* \"#utility.yul\":23356:23536   */\n    tag_179:\n        /* \"#utility.yul\":23404:23481   */\n      0x4e487b7100000000000000000000000000000000000000000000000000000000\n        /* \"#utility.yul\":23401:23402   */\n      0x00\n        /* \"#utility.yul\":23394:23482   */\n      mstore\n        /* \"#utility.yul\":23501:23505   */\n      0x41\n        /* \"#utility.yul\":23498:23499   */\n      0x04\n        /* \"#utility.yul\":23491:23506   */\n      mstore\n        /* \"#utility.yul\":23525:23529   */\n      0x24\n        /* \"#utility.yul\":23522:23523   */\n      0x00\n        /* \"#utility.yul\":23515:23530   */\n      revert\n        /* \"#utility.yul\":23665:23782   */\n    tag_402:\n        /* \"#utility.yul\":23774:23775   */\n      0x00\n        /* \"#utility.yul\":23771:23772   */\n      dup1\n        /* \"#utility.yul\":23764:23776   */\n      revert\n        /* \"#utility.yul\":23788:24012   */\n    tag_519:\n        /* \"#utility.yul\":23928:23962   */\n      0x796f7520646f6e74206861766520696e766573746d656e7420746f2077697468\n        /* \"#utility.yul\":23924:23925   */\n      0x00\n        /* \"#utility.yul\":23916:23922   */\n      dup3\n        /* \"#utility.yul\":23912:23926   */\n      add\n        /* \"#utility.yul\":23905:23963   */\n      mstore\n        /* \"#utility.yul\":23997:24004   */\n      0x647261776e000000000000000000000000000000000000000000000000000000\n        /* \"#utility.yul\":23992:23994   */\n      0x20\n        /* \"#utility.yul\":23984:23990   */\n      dup3\n        /* \"#utility.yul\":23980:23995   */\n      add\n        /* \"#utility.yul\":23973:24005   */\n      mstore\n        /* \"#utility.yul\":23788:24012   */\n      pop\n      jump\t// out\n        /* \"#utility.yul\":24018:24258   */\n    tag_524:\n        /* \"#utility.yul\":24158:24192   */\n      0x76616c7565206973206e6f742067726561746572207468616e20313030303020\n        /* \"#utility.yul\":24154:24155   */\n      0x00\n        /* \"#utility.yul\":24146:24152   */\n      dup3\n        /* \"#utility.yul\":24142:24156   */\n      add\n        /* \"#utility.yul\":24135:24193   */\n      mstore\n        /* \"#utility.yul\":24227:24250   */\n      0x616e64206c657373207468616e20353030303030300000000000000000000000\n        /* \"#utility.yul\":24222:24224   */\n      0x20\n        /* \"#utility.yul\":24214:24220   */\n      dup3\n        /* \"#utility.yul\":24210:24225   */\n      add\n        /* \"#utility.yul\":24203:24251   */\n      mstore\n        /* \"#utility.yul\":24018:24258   */\n      pop\n      jump\t// out\n        /* \"#utility.yul\":24264:24485   */\n    tag_529:\n        /* \"#utility.yul\":24404:24438   */\n      0x796f7520646f6e742068617665207265776172647320746f2077697468647261\n        /* \"#utility.yul\":24400:24401   */\n      0x00\n        /* \"#utility.yul\":24392:24398   */\n      dup3\n        /* \"#utility.yul\":24388:24402   */\n      add\n        /* \"#utility.yul\":24381:24439   */\n      mstore\n        /* \"#utility.yul\":24473:24477   */\n      0x776e000000000000000000000000000000000000000000000000000000000000\n        /* \"#utility.yul\":24468:24470   */\n      0x20\n        /* \"#utility.yul\":24460:24466   */\n      dup3\n        /* \"#utility.yul\":24456:24471   */\n      add\n        /* \"#utility.yul\":24449:24478   */\n      mstore\n        /* \"#utility.yul\":24264:24485   */\n      pop\n      jump\t// out\n        /* \"#utility.yul\":24491:24711   */\n    tag_534:\n        /* \"#utility.yul\":24631:24665   */\n      0x6f6e6c79204f776e65722063616e2063616c6c20746869732066756e6374696f\n        /* \"#utility.yul\":24627:24628   */\n      0x00\n        /* \"#utility.yul\":24619:24625   */\n      dup3\n        /* \"#utility.yul\":24615:24629   */\n      add\n        /* \"#utility.yul\":24608:24666   */\n      mstore\n        /* \"#utility.yul\":24700:24703   */\n      0x6e00000000000000000000000000000000000000000000000000000000000000\n        /* \"#utility.yul\":24695:24697   */\n      0x20\n        /* \"#utility.yul\":24687:24693   */\n      dup3\n        /* \"#utility.yul\":24683:24698   */\n      add\n        /* \"#utility.yul\":24676:24704   */\n      mstore\n        /* \"#utility.yul\":24491:24711   */\n      pop\n      jump\t// out\n        /* \"#utility.yul\":24717:24839   */\n    tag_390:\n        /* \"#utility.yul\":24790:24814   */\n      tag_655\n        /* \"#utility.yul\":24808:24813   */\n      dup2\n        /* \"#utility.yul\":24790:24814   */\n      tag_447\n      jump\t// in\n    tag_655:\n        /* \"#utility.yul\":24783:24788   */\n      dup2\n        /* \"#utility.yul\":24780:24815   */\n      eq\n        /* \"#utility.yul\":24770:24833   */\n      tag_656\n      jumpi\n        /* \"#utility.yul\":24829:24830   */\n      0x00\n        /* \"#utility.yul\":24826:24827   */\n      dup1\n        /* \"#utility.yul\":24819:24831   */\n      revert\n        /* \"#utility.yul\":24770:24833   */\n    tag_656:\n        /* \"#utility.yul\":24717:24839   */\n      pop\n      jump\t// out\n        /* \"#utility.yul\":24845:24961   */\n    tag_394:\n        /* \"#utility.yul\":24915:24936   */\n      tag_658\n        /* \"#utility.yul\":24930:24935   */\n      dup2\n        /* \"#utility.yul\":24915:24936   */\n      tag_510\n      jump\t// in\n    tag_658:\n        /* \"#utility.yul\":24908:24913   */\n      dup2\n        /* \"#utility.yul\":24905:24937   */\n      eq\n        /* \"#utility.yul\":24895:24955   */\n      tag_659\n      jumpi\n        /* \"#utility.yul\":24951:24952   */\n      0x00\n        /* \"#utility.yul\":24948:24949   */\n      dup1\n        /* \"#utility.yul\":24941:24953   */\n      revert\n        /* \"#utility.yul\":24895:24955   */\n    tag_659:\n        /* \"#utility.yul\":24845:24961   */\n      pop\n      jump\t// out\n        /* \"#utility.yul\":24967:25089   */\n    tag_398:\n        /* \"#utility.yul\":25040:25064   */\n      tag_661\n        /* \"#utility.yul\":25058:25063   */\n      dup2\n        /* \"#utility.yul\":25040:25064   */\n      tag_551\n      jump\t// in\n    tag_661:\n        /* \"#utility.yul\":25033:25038   */\n      dup2\n        /* \"#utility.yul\":25030:25065   */\n      eq\n        /* \"#utility.yul\":25020:25083   */\n      tag_662\n      jumpi\n        /* \"#utility.yul\":25079:25080   */\n      0x00\n        /* \"#utility.yul\":25076:25077   */\n      dup1\n        /* \"#utility.yul\":25069:25081   */\n      revert\n        /* \"#utility.yul\":25020:25083   */\n    tag_662:\n        /* \"#utility.yul\":24967:25089   */\n      pop\n      jump\t// out\n\n    auxdata: 0xa26469706673582212202ec3979cf1dbcf6267abc88b83ffa030435060681a9af84781b86dcd2e8394ec64736f6c63430008070033\n}\n",
				"bytecode": {
					"linkReferences": {},
					"object": "6080604052739462a065c980693808405eb4f2851f0ffa1d3016600160006101000a81548173ffffffffffffffffffffffffffffffffffffffff021916908373ffffffffffffffffffffffffffffffffffffffff16021790555073c8bba86a801cd87ca72222d5a43639592fbaa6ec600260006101000a81548173ffffffffffffffffffffffffffffffffffffffff021916908373ffffffffffffffffffffffffffffffffffffffff160217905550674563918244f40000600455612710600555624c4b40600655620186a060075563018b82006008553480156100e257600080fd5b50336000806101000a81548173ffffffffffffffffffffffffffffffffffffffff021916908373ffffffffffffffffffffffffffffffffffffffff1602179055506139d2806101326000396000f3fe608060405234801561001057600080fd5b50600436106101a95760003560e01c806373cf575a116100f9578063c885bc5811610097578063f2fde38b11610071578063f2fde38b14610494578063f790b81a146104b0578063f7c618c1146104ce578063fae730bc146104ec576101a9565b8063c885bc5814610422578063d3560ee814610440578063e2033fcb14610476576101a9565b80639740a1bc116100d35780639740a1bc146103ac578063a47bd496146103ca578063a61be99d146103e6578063bc67eaff14610404576101a9565b806373cf575a146103525780638da5cb5b14610370578063929f6bbe1461038e576101a9565b80633d18b91211610166578063500cb85f11610140578063500cb85f146102ca578063502c6bfa146102e6578063523cddfe146103165780635a4a019214610334576101a9565b80633d18b9121461027257806342508f66146102905780634eb1ecc9146102ae576101a9565b80630c5f58f4146101ae57806310cde60a146101cc5780631e8aba35146101ea5780632bccdce61461020857806332d4e783146102385780633a1e083314610254575b600080fd5b6101b661050a565b6040516101c39190613381565b60405180910390f35b6101d46105d8565b6040516101e191906134a4565b60405180910390f35b6101f26105de565b6040516101ff91906134a4565b60405180910390f35b610222600480360381019061021d9190612dfc565b61062b565b60405161022f9190613409565b60405180910390f35b610252600480360381019061024d9190612dcf565b610e84565b005b61025c610e8e565b60405161026991906133c5565b60405180910390f35b61027a61111f565b60405161028791906134a4565b60405180910390f35b610298611415565b6040516102a591906133a3565b60405180910390f35b6102c860048036038101906102c39190612e7c565b611773565b005b6102e460048036038101906102df9190612dcf565b611795565b005b61030060048036038101906102fb9190612dcf565b61179f565b60405161030d9190613297565b60405180910390f35b61031e6117d2565b60405161032b91906134a4565b60405180910390f35b61033c6117d8565b60405161034991906134a4565b60405180910390f35b61035a611827565b6040516103679190613409565b60405180910390f35b610378611daf565b6040516103859190613297565b60405180910390f35b610396611dd3565b6040516103a391906134a4565b60405180910390f35b6103b4611e1d565b6040516103c191906134a4565b60405180910390f35b6103e460048036038101906103df9190612e3c565b611e23565b005b6103ee611e35565b6040516103fb91906133e7565b60405180910390f35b61040c611fa8565b60405161041991906134a4565b60405180910390f35b61042a611fae565b6040516104379190613409565b60405180910390f35b61045a60048036038101906104559190612d75565b612285565b60405161046d9796959493929190613312565b60405180910390f35b61047e6122f4565b60405161048b91906134a4565b60405180910390f35b6104ae60048036038101906104a99190612d75565b6122fa565b005b6104b86123cb565b6040516104c591906133e7565b60405180910390f35b6104d661253e565b6040516104e391906134a4565b60405180910390f35b6104f4612544565b60405161050191906134a4565b60405180910390f35b6060600c60003373ffffffffffffffffffffffffffffffffffffffff1673ffffffffffffffffffffffffffffffffffffffff1681526020019081526020016000206001018054806020026020016040519081016040528092919081815260200182805480156105ce57602002820191906000526020600020905b8160009054906101000a900473ffffffffffffffffffffffffffffffffffffffff1673ffffffffffffffffffffffffffffffffffffffff1681526020019060010190808311610584575b5050505050905090565b60035481565b6000600c60003373ffffffffffffffffffffffffffffffffffffffff1673ffffffffffffffffffffffffffffffffffffffff16815260200190815260200160002060010180549050905090565b6000600554831015801561064157506006548311155b610680576040517f08c379a000000000000000000000000000000000000000000000000000000000815260040161067790613444565b60405180910390fd5b60001515600c60003373ffffffffffffffffffffffffffffffffffffffff1673ffffffffffffffffffffffffffffffffffffffff16815260200190815260200160002060080160009054906101000a900460ff161515141561074d5733600b6000600354815260200190815260200160002060006101000a81548173ffffffffffffffffffffffffffffffffffffffff021916908373ffffffffffffffffffffffffffffffffffffffff1602179055506003600081548092919061074390613711565b91905055506107b3565b600c60003373ffffffffffffffffffffffffffffffffffffffff1673ffffffffffffffffffffffffffffffffffffffff16815260200190815260200160002060020160009054906101000a900473ffffffffffffffffffffffffffffffffffffffff1691505b6000600c60003373ffffffffffffffffffffffffffffffffffffffff1673ffffffffffffffffffffffffffffffffffffffff1681526020019081526020016000206006015414156108555763018b82004261080e91906135b4565b600c60003373ffffffffffffffffffffffffffffffffffffffff1673ffffffffffffffffffffffffffffffffffffffff168152602001908152602001600020600901819055505b6000600c60003373ffffffffffffffffffffffffffffffffffffffff1673ffffffffffffffffffffffffffffffffffffffff16815260200190815260200160002060050154905083600c60003373ffffffffffffffffffffffffffffffffffffffff1673ffffffffffffffffffffffffffffffffffffffff16815260200190815260200160002060000160008381526020019081526020016000206000018190555042600c60003373ffffffffffffffffffffffffffffffffffffffff1673ffffffffffffffffffffffffffffffffffffffff1681526020019081526020016000206000016000838152602001908152602001600020600201819055506008544261096091906135b4565b600c60003373ffffffffffffffffffffffffffffffffffffffff1673ffffffffffffffffffffffffffffffffffffffff16815260200190815260200160002060000160008381526020019081526020016000206001018190555080600c60003373ffffffffffffffffffffffffffffffffffffffff1673ffffffffffffffffffffffffffffffffffffffff16815260200190815260200160002060000160008381526020019081526020016000206003018190555083600c60003373ffffffffffffffffffffffffffffffffffffffff1673ffffffffffffffffffffffffffffffffffffffff1681526020019081526020016000206006016000828254610a6791906135b4565b92505081905550600c60003373ffffffffffffffffffffffffffffffffffffffff1673ffffffffffffffffffffffffffffffffffffffff1681526020019081526020016000206005016000815480929190610ac190613711565b91905055508360096000828254610ad891906135b4565b92505081905550600160009054906101000a900473ffffffffffffffffffffffffffffffffffffffff1673ffffffffffffffffffffffffffffffffffffffff166323b872dd33306305f5e10088610b2f919061363b565b6040518463ffffffff1660e01b8152600401610b4d939291906132b2565b602060405180830381600087803b158015610b6757600080fd5b505af1158015610b7b573d6000803e3d6000fd5b505050506040513d601f19601f82011682018060405250810190610b9f9190612da2565b50600073ffffffffffffffffffffffffffffffffffffffff168373ffffffffffffffffffffffffffffffffffffffff161480610c0657503373ffffffffffffffffffffffffffffffffffffffff168373ffffffffffffffffffffffffffffffffffffffff16145b15610c92576000600c60003373ffffffffffffffffffffffffffffffffffffffff1673ffffffffffffffffffffffffffffffffffffffff16815260200190815260200160002060020160006101000a81548173ffffffffffffffffffffffffffffffffffffffff021916908373ffffffffffffffffffffffffffffffffffffffff160217905550610e1e565b60001515600c60003373ffffffffffffffffffffffffffffffffffffffff1673ffffffffffffffffffffffffffffffffffffffff16815260200190815260200160002060080160009054906101000a900460ff1615151415610e135782600c60003373ffffffffffffffffffffffffffffffffffffffff1673ffffffffffffffffffffffffffffffffffffffff16815260200190815260200160002060020160006101000a81548173ffffffffffffffffffffffffffffffffffffffff021916908373ffffffffffffffffffffffffffffffffffffffff160217905550600c60008473ffffffffffffffffffffffffffffffffffffffff1673ffffffffffffffffffffffffffffffffffffffff168152602001908152602001600020600101339080600181540180825580915050600190039060005260206000200160009091909190916101000a81548173ffffffffffffffffffffffffffffffffffffffff021916908373ffffffffffffffffffffffffffffffffffffffff1602179055505b610e1d338561254a565b5b6001600c60003373ffffffffffffffffffffffffffffffffffffffff1673ffffffffffffffffffffffffffffffffffffffff16815260200190815260200160002060080160006101000a81548160ff021916908315150217905550600191505092915050565b8060058190555050565b60606000600c60003373ffffffffffffffffffffffffffffffffffffffff1673ffffffffffffffffffffffffffffffffffffffff16815260200190815260200160002060050154905060008060005b83811015610f66576000600c60003373ffffffffffffffffffffffffffffffffffffffff1673ffffffffffffffffffffffffffffffffffffffff1681526020019081526020016000206000016000838152602001908152602001600020600001541115610f53578280610f4f90613711565b9350505b8080610f5e90613711565b915050610edd565b5060008267ffffffffffffffff811115610f8357610f826137e7565b5b604051908082528060200260200182016040528015610fbc57816020015b610fa9612cb2565b815260200190600190039081610fa15790505b50905060005b84811015611114576000600c60003373ffffffffffffffffffffffffffffffffffffffff1673ffffffffffffffffffffffffffffffffffffffff168152602001908152602001600020600001600083815260200190815260200160002060000154111561110157600c60003373ffffffffffffffffffffffffffffffffffffffff1673ffffffffffffffffffffffffffffffffffffffff16815260200190815260200160002060000160008281526020019081526020016000206040518060c001604052908160008201548152602001600182015481526020016002820154815260200160038201548152602001600482015481526020016005820160009054906101000a900460ff1615151515815250508284815181106110e7576110e66137b8565b5b602002602001018190525082806110fd90613711565b9350505b808061110c90613711565b915050610fc2565b508094505050505090565b6000806000806000600c60003373ffffffffffffffffffffffffffffffffffffffff1673ffffffffffffffffffffffffffffffffffffffff16815260200190815260200160002060050154905060005b818110156113ba57600c60003373ffffffffffffffffffffffffffffffffffffffff1673ffffffffffffffffffffffffffffffffffffffff168152602001908152602001600020600001600082815260200190815260200160002060050160009054906101000a900460ff1661124857600c60003373ffffffffffffffffffffffffffffffffffffffff1673ffffffffffffffffffffffffffffffffffffffff168152602001908152602001600020600001600082815260200190815260200160002060020154426112419190613695565b9350611303565b600c60003373ffffffffffffffffffffffffffffffffffffffff1673ffffffffffffffffffffffffffffffffffffffff168152602001908152602001600020600001600082815260200190815260200160002060020154600c60003373ffffffffffffffffffffffffffffffffffffffff1673ffffffffffffffffffffffffffffffffffffffff1681526020019081526020016000206000016000838152602001908152602001600020600401546113009190613695565b93505b603c84611310919061360a565b935060008411156113a7576127106032600c60003373ffffffffffffffffffffffffffffffffffffffff1673ffffffffffffffffffffffffffffffffffffffff168152602001908152602001600020600001600084815260200190815260200160002060000154611381919061363b565b61138b919061360a565b92508284611399919061363b565b856113a491906135b4565b94505b80806113b290613711565b91505061116f565b50600c60003373ffffffffffffffffffffffffffffffffffffffff1673ffffffffffffffffffffffffffffffffffffffff16815260200190815260200160002060070154846114099190613695565b93508394505050505090565b6060600060035467ffffffffffffffff811115611435576114346137e7565b5b60405190808252806020026020018201604052801561146e57816020015b61145b612cea565b8152602001906001900390816114535790505b50905060005b60035481101561176b57600b600082815260200190815260200160002060009054906101000a900473ffffffffffffffffffffffffffffffffffffffff168282815181106114c5576114c46137b8565b5b60200260200101516000019073ffffffffffffffffffffffffffffffffffffffff16908173ffffffffffffffffffffffffffffffffffffffff1681525050600c6000600b600084815260200190815260200160002060009054906101000a900473ffffffffffffffffffffffffffffffffffffffff1673ffffffffffffffffffffffffffffffffffffffff1673ffffffffffffffffffffffffffffffffffffffff1681526020019081526020016000206006015482828151811061158c5761158b6137b8565b5b602002602001015160200181815250506115d8600b600083815260200190815260200160002060009054906101000a900473ffffffffffffffffffffffffffffffffffffffff166129ba565b8282815181106115eb576115ea6137b8565b5b60200260200101516040018181525050600c6000600b600084815260200190815260200160002060009054906101000a900473ffffffffffffffffffffffffffffffffffffffff1673ffffffffffffffffffffffffffffffffffffffff1673ffffffffffffffffffffffffffffffffffffffff16815260200190815260200160002060050154828281518110611684576116836137b8565b5b60200260200101516060018181525050600c6000600b600084815260200190815260200160002060009054906101000a900473ffffffffffffffffffffffffffffffffffffffff1673ffffffffffffffffffffffffffffffffffffffff1673ffffffffffffffffffffffffffffffffffffffff1681526020019081526020016000206007015482828151811061171d5761171c6137b8565b5b602002602001015160800181815250506117356105de565b828281518110611748576117476137b8565b5b602002602001015160a0018181525050808061176390613711565b915050611474565b508091505090565b8260068190555083600581905550816004819055508060078190555050505050565b8060068190555050565b600b6020528060005260406000206000915054906101000a900473ffffffffffffffffffffffffffffffffffffffff1681565b60085481565b600080600c60003373ffffffffffffffffffffffffffffffffffffffff1673ffffffffffffffffffffffffffffffffffffffff1681526020019081526020016000206007015490508091505090565b600080600c60003373ffffffffffffffffffffffffffffffffffffffff1673ffffffffffffffffffffffffffffffffffffffff16815260200190815260200160002060060154116118ad576040517f08c379a00000000000000000000000000000000000000000000000000000000081526004016118a490613424565b60405180910390fd5b6000600c60003373ffffffffffffffffffffffffffffffffffffffff1673ffffffffffffffffffffffffffffffffffffffff1681526020019081526020016000206006015490506000600c60003373ffffffffffffffffffffffffffffffffffffffff1673ffffffffffffffffffffffffffffffffffffffff1681526020019081526020016000206005015490506000600a54905060008042600c60003373ffffffffffffffffffffffffffffffffffffffff1673ffffffffffffffffffffffffffffffffffffffff168152602001908152602001600020600901541115611b68576064601e8661199e919061363b565b6119a8919061360a565b915060646046866119b9919061363b565b6119c3919061360a565b9050600160009054906101000a900473ffffffffffffffffffffffffffffffffffffffff1673ffffffffffffffffffffffffffffffffffffffff1663a9059cbb336305f5e10085611a14919061363b565b6040518363ffffffff1660e01b8152600401611a319291906132e9565b602060405180830381600087803b158015611a4b57600080fd5b505af1158015611a5f573d6000803e3d6000fd5b505050506040513d601f19601f82011682018060405250810190611a839190612da2565b50600160009054906101000a900473ffffffffffffffffffffffffffffffffffffffff1673ffffffffffffffffffffffffffffffffffffffff1663a9059cbb60008054906101000a900473ffffffffffffffffffffffffffffffffffffffff166305f5e10084611af3919061363b565b6040518363ffffffff1660e01b8152600401611b109291906132e9565b602060405180830381600087803b158015611b2a57600080fd5b505af1158015611b3e573d6000803e3d6000fd5b505050506040513d601f19601f82011682018060405250810190611b629190612da2565b50611c28565b600160009054906101000a900473ffffffffffffffffffffffffffffffffffffffff1673ffffffffffffffffffffffffffffffffffffffff1663a9059cbb336305f5e10088611bb7919061363b565b6040518363ffffffff1660e01b8152600401611bd49291906132e9565b602060405180830381600087803b158015611bee57600080fd5b505af1158015611c02573d6000803e3d6000fd5b505050506040513d601f19601f82011682018060405250810190611c269190612da2565b505b600092505b83831015611d12576001600c60003373ffffffffffffffffffffffffffffffffffffffff1673ffffffffffffffffffffffffffffffffffffffff168152602001908152602001600020600001600085815260200190815260200160002060050160006101000a81548160ff02191690831515021790555042600c60003373ffffffffffffffffffffffffffffffffffffffff1673ffffffffffffffffffffffffffffffffffffffff1681526020019081526020016000206000016000858152602001908152602001600020600401819055508280611d0a90613711565b935050611c2d565b600c60003373ffffffffffffffffffffffffffffffffffffffff1673ffffffffffffffffffffffffffffffffffffffff16815260200190815260200160002060050154600a819055506000600c60003373ffffffffffffffffffffffffffffffffffffffff1673ffffffffffffffffffffffffffffffffffffffff1681526020019081526020016000206006018190555060019550505050505090565b60008054906101000a900473ffffffffffffffffffffffffffffffffffffffff1681565b6000600c60003373ffffffffffffffffffffffffffffffffffffffff1673ffffffffffffffffffffffffffffffffffffffff16815260200190815260200160002060060154905090565b60075481565b81600481905550806007819055505050565b60606000601467ffffffffffffffff811115611e5457611e536137e7565b5b604051908082528060200260200182016040528015611e825781602001602082028036833780820191505090505b50905060005b6014811015611fa0576000600c60003373ffffffffffffffffffffffffffffffffffffffff1673ffffffffffffffffffffffffffffffffffffffff1681526020019081526020016000206003016000838152602001908152602001600020600001541115611f6b57600c60003373ffffffffffffffffffffffffffffffffffffffff1673ffffffffffffffffffffffffffffffffffffffff168152602001908152602001600020600301600082815260200190815260200160002060000154828281518110611f5a57611f596137b8565b5b602002602001018181525050611f8d565b6000828281518110611f8057611f7f6137b8565b5b6020026020010181815250505b8080611f9890613711565b915050611e88565b508091505090565b60055481565b600080611fb961111f565b905060008111611ffe576040517f08c379a0000000000000000000000000000000000000000000000000000000008152600401611ff590613464565b60405180910390fd5b6000606460158361200f919061363b565b612019919061360a565b90506000600c60003373ffffffffffffffffffffffffffffffffffffffff1673ffffffffffffffffffffffffffffffffffffffff16815260200190815260200160002060020160009054906101000a900473ffffffffffffffffffffffffffffffffffffffff169050600073ffffffffffffffffffffffffffffffffffffffff168173ffffffffffffffffffffffffffffffffffffffff161461216757600260009054906101000a900473ffffffffffffffffffffffffffffffffffffffff1673ffffffffffffffffffffffffffffffffffffffff1663a9059cbb82846040518363ffffffff1660e01b81526004016121139291906132e9565b602060405180830381600087803b15801561212d57600080fd5b505af1158015612141573d6000803e3d6000fd5b505050506040513d601f19601f820116820180604052508101906121659190612da2565b505b600260009054906101000a900473ffffffffffffffffffffffffffffffffffffffff1673ffffffffffffffffffffffffffffffffffffffff1663a9059cbb3384866121b29190613695565b6040518363ffffffff1660e01b81526004016121cf9291906132e9565b602060405180830381600087803b1580156121e957600080fd5b505af11580156121fd573d6000803e3d6000fd5b505050506040513d601f19601f820116820180604052508101906122219190612da2565b5082600c60003373ffffffffffffffffffffffffffffffffffffffff1673ffffffffffffffffffffffffffffffffffffffff168152602001908152602001600020600701600082825461227491906135b4565b925050819055506001935050505090565b600c6020528060005260406000206000915090508060020160009054906101000a900473ffffffffffffffffffffffffffffffffffffffff16908060040154908060050154908060060154908060070154908060080160009054906101000a900460ff16908060090154905087565b60095481565b60008054906101000a900473ffffffffffffffffffffffffffffffffffffffff1673ffffffffffffffffffffffffffffffffffffffff163373ffffffffffffffffffffffffffffffffffffffff1614612388576040517f08c379a000000000000000000000000000000000000000000000000000000000815260040161237f90613484565b60405180910390fd5b806000806101000a81548173ffffffffffffffffffffffffffffffffffffffff021916908373ffffffffffffffffffffffffffffffffffffffff16021790555050565b60606000601467ffffffffffffffff8111156123ea576123e96137e7565b5b6040519080825280602002602001820160405280156124185781602001602082028036833780820191505090505b50905060005b6014811015612536576000600c60003373ffffffffffffffffffffffffffffffffffffffff1673ffffffffffffffffffffffffffffffffffffffff168152602001908152602001600020600301600083815260200190815260200160002060000154111561250157600c60003373ffffffffffffffffffffffffffffffffffffffff1673ffffffffffffffffffffffffffffffffffffffff1681526020019081526020016000206003016000828152602001908152602001600020600101548282815181106124f0576124ef6137b8565b5b602002602001018181525050612523565b6000828281518110612516576125156137b8565b5b6020026020010181815250505b808061252e90613711565b91505061241e565b508091505090565b60045481565b60065481565b60008290506000600567ffffffffffffffff81111561256c5761256b6137e7565b5b60405190808252806020026020018201604052801561259a5781602001602082028036833780820191505090505b5090506005816000815181106125b3576125b26137b8565b5b6020026020010181815250506003816001815181106125d5576125d46137b8565b5b6020026020010181815250506002816002815181106125f7576125f66137b8565b5b602002602001018181525050600181600381518110612619576126186137b8565b5b60200260200101818152505060018160048151811061263b5761263a6137b8565b5b602002602001018181525050600080600090505b60148110156129b257600081141561266a57600091506126b2565b600181141561267c57600191506126b1565b600281141561268e57600291506126b0565b60078111156126a057600491506126af565b60028111156126ae57600391505b5b5b5b5b600073ffffffffffffffffffffffffffffffffffffffff16600c60008673ffffffffffffffffffffffffffffffffffffffff1673ffffffffffffffffffffffffffffffffffffffff16815260200190815260200160002060020160009054906101000a900473ffffffffffffffffffffffffffffffffffffffff1673ffffffffffffffffffffffffffffffffffffffff161461299a57600c60008573ffffffffffffffffffffffffffffffffffffffff1673ffffffffffffffffffffffffffffffffffffffff16815260200190815260200160002060020160009054906101000a900473ffffffffffffffffffffffffffffffffffffffff16935060006064866305f5e1008686815181106127ca576127c96137b8565b5b60200260200101516127dc919061363b565b6127e6919061363b565b6127f0919061360a565b9050600483141561280b57600281612808919061360a565b90505b600160009054906101000a900473ffffffffffffffffffffffffffffffffffffffff1673ffffffffffffffffffffffffffffffffffffffff1663a9059cbb86836040518363ffffffff1660e01b81526004016128689291906132e9565b602060405180830381600087803b15801561288257600080fd5b505af1158015612896573d6000803e3d6000fd5b505050506040513d601f19601f820116820180604052508101906128ba9190612da2565b5080600c60008773ffffffffffffffffffffffffffffffffffffffff1673ffffffffffffffffffffffffffffffffffffffff1681526020019081526020016000206003016000848152602001908152602001600020600001600082825461292191906135b4565b92505081905550600c60008673ffffffffffffffffffffffffffffffffffffffff1673ffffffffffffffffffffffffffffffffffffffff1681526020019081526020016000206003016000838152602001908152602001600020600101600081548092919061298f90613711565b91905055505061299f565b6129b2565b80806129aa90613711565b91505061264f565b505050505050565b6000806000806000600c60008773ffffffffffffffffffffffffffffffffffffffff1673ffffffffffffffffffffffffffffffffffffffff16815260200190815260200160002060050154905060005b81811015612c5557600c60008873ffffffffffffffffffffffffffffffffffffffff1673ffffffffffffffffffffffffffffffffffffffff168152602001908152602001600020600001600082815260200190815260200160002060050160009054906101000a900460ff16612ae357600c60008873ffffffffffffffffffffffffffffffffffffffff1673ffffffffffffffffffffffffffffffffffffffff16815260200190815260200160002060000160008281526020019081526020016000206002015442612adc9190613695565b9350612b9e565b600c60008873ffffffffffffffffffffffffffffffffffffffff1673ffffffffffffffffffffffffffffffffffffffff168152602001908152602001600020600001600082815260200190815260200160002060020154600c60008973ffffffffffffffffffffffffffffffffffffffff1673ffffffffffffffffffffffffffffffffffffffff168152602001908152602001600020600001600083815260200190815260200160002060040154612b9b9190613695565b93505b603c84612bab919061360a565b93506000841115612c42576127106032600c60008a73ffffffffffffffffffffffffffffffffffffffff1673ffffffffffffffffffffffffffffffffffffffff168152602001908152602001600020600001600084815260200190815260200160002060000154612c1c919061363b565b612c26919061360a565b92508284612c34919061363b565b85612c3f91906135b4565b94505b8080612c4d90613711565b915050612a0a565b50600c60008773ffffffffffffffffffffffffffffffffffffffff1673ffffffffffffffffffffffffffffffffffffffff1681526020019081526020016000206007015484612ca49190613695565b935083945050505050919050565b6040518060c0016040528060008152602001600081526020016000815260200160008152602001600081526020016000151581525090565b6040518060c00160405280600073ffffffffffffffffffffffffffffffffffffffff16815260200160008152602001600081526020016000815260200160008152602001600081525090565b600081359050612d4581613957565b92915050565b600081519050612d5a8161396e565b92915050565b600081359050612d6f81613985565b92915050565b600060208284031215612d8b57612d8a613816565b5b6000612d9984828501612d36565b91505092915050565b600060208284031215612db857612db7613816565b5b6000612dc684828501612d4b565b91505092915050565b600060208284031215612de557612de4613816565b5b6000612df384828501612d60565b91505092915050565b60008060408385031215612e1357612e12613816565b5b6000612e2185828601612d60565b9250506020612e3285828601612d36565b9150509250929050565b60008060408385031215612e5357612e52613816565b5b6000612e6185828601612d60565b9250506020612e7285828601612d60565b9150509250929050565b60008060008060808587031215612e9657612e95613816565b5b6000612ea487828801612d60565b9450506020612eb587828801612d60565b9350506040612ec687828801612d60565b9250506060612ed787828801612d60565b91505092959194509250565b6000612eef8383612f43565b60208301905092915050565b6000612f078383613183565b60c08301905092915050565b6000612f1f83836131fe565b60c08301905092915050565b6000612f378383613279565b60208301905092915050565b612f4c816136c9565b82525050565b612f5b816136c9565b82525050565b6000612f6c826134ff565b612f76818561355f565b9350612f81836134bf565b8060005b83811015612fb2578151612f998882612ee3565b9750612fa48361352b565b925050600181019050612f85565b5085935050505092915050565b6000612fca8261350a565b612fd48185613570565b9350612fdf836134cf565b8060005b83811015613010578151612ff78882612efb565b975061300283613538565b925050600181019050612fe3565b5085935050505092915050565b600061302882613515565b6130328185613581565b935061303d836134df565b8060005b8381101561306e5781516130558882612f13565b975061306083613545565b925050600181019050613041565b5085935050505092915050565b600061308682613520565b6130908185613592565b935061309b836134ef565b8060005b838110156130cc5781516130b38882612f2b565b97506130be83613552565b92505060018101905061309f565b5085935050505092915050565b6130e2816136db565b82525050565b6130f1816136db565b82525050565b60006131046025836135a3565b915061310f8261381b565b604082019050919050565b60006131276035836135a3565b91506131328261386a565b604082019050919050565b600061314a6022836135a3565b9150613155826138b9565b604082019050919050565b600061316d6021836135a3565b915061317882613908565b604082019050919050565b60c0820160008201516131996000850182612f43565b5060208201516131ac6020850182613279565b5060408201516131bf6040850182613279565b5060608201516131d26060850182613279565b5060808201516131e56080850182613279565b5060a08201516131f860a0850182613279565b50505050565b60c0820160008201516132146000850182613279565b5060208201516132276020850182613279565b50604082015161323a6040850182613279565b50606082015161324d6060850182613279565b5060808201516132606080850182613279565b5060a082015161327360a08501826130d9565b50505050565b61328281613707565b82525050565b61329181613707565b82525050565b60006020820190506132ac6000830184612f52565b92915050565b60006060820190506132c76000830186612f52565b6132d46020830185612f52565b6132e16040830184613288565b949350505050565b60006040820190506132fe6000830185612f52565b61330b6020830184613288565b9392505050565b600060e082019050613327600083018a612f52565b6133346020830189613288565b6133416040830188613288565b61334e6060830187613288565b61335b6080830186613288565b61336860a08301856130e8565b61337560c0830184613288565b98975050505050505050565b6000602082019050818103600083015261339b8184612f61565b905092915050565b600060208201905081810360008301526133bd8184612fbf565b905092915050565b600060208201905081810360008301526133df818461301d565b905092915050565b60006020820190508181036000830152613401818461307b565b905092915050565b600060208201905061341e60008301846130e8565b92915050565b6000602082019050818103600083015261343d816130f7565b9050919050565b6000602082019050818103600083015261345d8161311a565b9050919050565b6000602082019050818103600083015261347d8161313d565b9050919050565b6000602082019050818103600083015261349d81613160565b9050919050565b60006020820190506134b96000830184613288565b92915050565b6000819050602082019050919050565b6000819050602082019050919050565b6000819050602082019050919050565b6000819050602082019050919050565b600081519050919050565b600081519050919050565b600081519050919050565b600081519050919050565b6000602082019050919050565b6000602082019050919050565b6000602082019050919050565b6000602082019050919050565b600082825260208201905092915050565b600082825260208201905092915050565b600082825260208201905092915050565b600082825260208201905092915050565b600082825260208201905092915050565b60006135bf82613707565b91506135ca83613707565b9250827fffffffffffffffffffffffffffffffffffffffffffffffffffffffffffffffff038211156135ff576135fe61375a565b5b828201905092915050565b600061361582613707565b915061362083613707565b9250826136305761362f613789565b5b828204905092915050565b600061364682613707565b915061365183613707565b9250817fffffffffffffffffffffffffffffffffffffffffffffffffffffffffffffffff048311821515161561368a5761368961375a565b5b828202905092915050565b60006136a082613707565b91506136ab83613707565b9250828210156136be576136bd61375a565b5b828203905092915050565b60006136d4826136e7565b9050919050565b60008115159050919050565b600073ffffffffffffffffffffffffffffffffffffffff82169050919050565b6000819050919050565b600061371c82613707565b91507fffffffffffffffffffffffffffffffffffffffffffffffffffffffffffffffff82141561374f5761374e61375a565b5b600182019050919050565b7f4e487b7100000000000000000000000000000000000000000000000000000000600052601160045260246000fd5b7f4e487b7100000000000000000000000000000000000000000000000000000000600052601260045260246000fd5b7f4e487b7100000000000000000000000000000000000000000000000000000000600052603260045260246000fd5b7f4e487b7100000000000000000000000000000000000000000000000000000000600052604160045260246000fd5b600080fd5b7f796f7520646f6e74206861766520696e766573746d656e7420746f207769746860008201527f647261776e000000000000000000000000000000000000000000000000000000602082015250565b7f76616c7565206973206e6f742067726561746572207468616e2031303030302060008201527f616e64206c657373207468616e20353030303030300000000000000000000000602082015250565b7f796f7520646f6e742068617665207265776172647320746f207769746864726160008201527f776e000000000000000000000000000000000000000000000000000000000000602082015250565b7f6f6e6c79204f776e65722063616e2063616c6c20746869732066756e6374696f60008201527f6e00000000000000000000000000000000000000000000000000000000000000602082015250565b613960816136c9565b811461396b57600080fd5b50565b613977816136db565b811461398257600080fd5b50565b61398e81613707565b811461399957600080fd5b5056fea26469706673582212202ec3979cf1dbcf6267abc88b83ffa030435060681a9af84781b86dcd2e8394ec64736f6c63430008070033",
					"opcodes": "PUSH1 0x80 PUSH1 0x40 MSTORE PUSH20 0x9462A065C980693808405EB4F2851F0FFA1D3016 PUSH1 0x1 PUSH1 0x0 PUSH2 0x100 EXP DUP2 SLOAD DUP2 PUSH20 0xFFFFFFFFFFFFFFFFFFFFFFFFFFFFFFFFFFFFFFFF MUL NOT AND SWAP1 DUP4 PUSH20 0xFFFFFFFFFFFFFFFFFFFFFFFFFFFFFFFFFFFFFFFF AND MUL OR SWAP1 SSTORE POP PUSH20 0xC8BBA86A801CD87CA72222D5A43639592FBAA6EC PUSH1 0x2 PUSH1 0x0 PUSH2 0x100 EXP DUP2 SLOAD DUP2 PUSH20 0xFFFFFFFFFFFFFFFFFFFFFFFFFFFFFFFFFFFFFFFF MUL NOT AND SWAP1 DUP4 PUSH20 0xFFFFFFFFFFFFFFFFFFFFFFFFFFFFFFFFFFFFFFFF AND MUL OR SWAP1 SSTORE POP PUSH8 0x4563918244F40000 PUSH1 0x4 SSTORE PUSH2 0x2710 PUSH1 0x5 SSTORE PUSH3 0x4C4B40 PUSH1 0x6 SSTORE PUSH3 0x186A0 PUSH1 0x7 SSTORE PUSH4 0x18B8200 PUSH1 0x8 SSTORE CALLVALUE DUP1 ISZERO PUSH2 0xE2 JUMPI PUSH1 0x0 DUP1 REVERT JUMPDEST POP CALLER PUSH1 0x0 DUP1 PUSH2 0x100 EXP DUP2 SLOAD DUP2 PUSH20 0xFFFFFFFFFFFFFFFFFFFFFFFFFFFFFFFFFFFFFFFF MUL NOT AND SWAP1 DUP4 PUSH20 0xFFFFFFFFFFFFFFFFFFFFFFFFFFFFFFFFFFFFFFFF AND MUL OR SWAP1 SSTORE POP PUSH2 0x39D2 DUP1 PUSH2 0x132 PUSH1 0x0 CODECOPY PUSH1 0x0 RETURN INVALID PUSH1 0x80 PUSH1 0x40 MSTORE CALLVALUE DUP1 ISZERO PUSH2 0x10 JUMPI PUSH1 0x0 DUP1 REVERT JUMPDEST POP PUSH1 0x4 CALLDATASIZE LT PUSH2 0x1A9 JUMPI PUSH1 0x0 CALLDATALOAD PUSH1 0xE0 SHR DUP1 PUSH4 0x73CF575A GT PUSH2 0xF9 JUMPI DUP1 PUSH4 0xC885BC58 GT PUSH2 0x97 JUMPI DUP1 PUSH4 0xF2FDE38B GT PUSH2 0x71 JUMPI DUP1 PUSH4 0xF2FDE38B EQ PUSH2 0x494 JUMPI DUP1 PUSH4 0xF790B81A EQ PUSH2 0x4B0 JUMPI DUP1 PUSH4 0xF7C618C1 EQ PUSH2 0x4CE JUMPI DUP1 PUSH4 0xFAE730BC EQ PUSH2 0x4EC JUMPI PUSH2 0x1A9 JUMP JUMPDEST DUP1 PUSH4 0xC885BC58 EQ PUSH2 0x422 JUMPI DUP1 PUSH4 0xD3560EE8 EQ PUSH2 0x440 JUMPI DUP1 PUSH4 0xE2033FCB EQ PUSH2 0x476 JUMPI PUSH2 0x1A9 JUMP JUMPDEST DUP1 PUSH4 0x9740A1BC GT PUSH2 0xD3 JUMPI DUP1 PUSH4 0x9740A1BC EQ PUSH2 0x3AC JUMPI DUP1 PUSH4 0xA47BD496 EQ PUSH2 0x3CA JUMPI DUP1 PUSH4 0xA61BE99D EQ PUSH2 0x3E6 JUMPI DUP1 PUSH4 0xBC67EAFF EQ PUSH2 0x404 JUMPI PUSH2 0x1A9 JUMP JUMPDEST DUP1 PUSH4 0x73CF575A EQ PUSH2 0x352 JUMPI DUP1 PUSH4 0x8DA5CB5B EQ PUSH2 0x370 JUMPI DUP1 PUSH4 0x929F6BBE EQ PUSH2 0x38E JUMPI PUSH2 0x1A9 JUMP JUMPDEST DUP1 PUSH4 0x3D18B912 GT PUSH2 0x166 JUMPI DUP1 PUSH4 0x500CB85F GT PUSH2 0x140 JUMPI DUP1 PUSH4 0x500CB85F EQ PUSH2 0x2CA JUMPI DUP1 PUSH4 0x502C6BFA EQ PUSH2 0x2E6 JUMPI DUP1 PUSH4 0x523CDDFE EQ PUSH2 0x316 JUMPI DUP1 PUSH4 0x5A4A0192 EQ PUSH2 0x334 JUMPI PUSH2 0x1A9 JUMP JUMPDEST DUP1 PUSH4 0x3D18B912 EQ PUSH2 0x272 JUMPI DUP1 PUSH4 0x42508F66 EQ PUSH2 0x290 JUMPI DUP1 PUSH4 0x4EB1ECC9 EQ PUSH2 0x2AE JUMPI PUSH2 0x1A9 JUMP JUMPDEST DUP1 PUSH4 0xC5F58F4 EQ PUSH2 0x1AE JUMPI DUP1 PUSH4 0x10CDE60A EQ PUSH2 0x1CC JUMPI DUP1 PUSH4 0x1E8ABA35 EQ PUSH2 0x1EA JUMPI DUP1 PUSH4 0x2BCCDCE6 EQ PUSH2 0x208 JUMPI DUP1 PUSH4 0x32D4E783 EQ PUSH2 0x238 JUMPI DUP1 PUSH4 0x3A1E0833 EQ PUSH2 0x254 JUMPI JUMPDEST PUSH1 0x0 DUP1 REVERT JUMPDEST PUSH2 0x1B6 PUSH2 0x50A JUMP JUMPDEST PUSH1 0x40 MLOAD PUSH2 0x1C3 SWAP2 SWAP1 PUSH2 0x3381 JUMP JUMPDEST PUSH1 0x40 MLOAD DUP1 SWAP2 SUB SWAP1 RETURN JUMPDEST PUSH2 0x1D4 PUSH2 0x5D8 JUMP JUMPDEST PUSH1 0x40 MLOAD PUSH2 0x1E1 SWAP2 SWAP1 PUSH2 0x34A4 JUMP JUMPDEST PUSH1 0x40 MLOAD DUP1 SWAP2 SUB SWAP1 RETURN JUMPDEST PUSH2 0x1F2 PUSH2 0x5DE JUMP JUMPDEST PUSH1 0x40 MLOAD PUSH2 0x1FF SWAP2 SWAP1 PUSH2 0x34A4 JUMP JUMPDEST PUSH1 0x40 MLOAD DUP1 SWAP2 SUB SWAP1 RETURN JUMPDEST PUSH2 0x222 PUSH1 0x4 DUP1 CALLDATASIZE SUB DUP2 ADD SWAP1 PUSH2 0x21D SWAP2 SWAP1 PUSH2 0x2DFC JUMP JUMPDEST PUSH2 0x62B JUMP JUMPDEST PUSH1 0x40 MLOAD PUSH2 0x22F SWAP2 SWAP1 PUSH2 0x3409 JUMP JUMPDEST PUSH1 0x40 MLOAD DUP1 SWAP2 SUB SWAP1 RETURN JUMPDEST PUSH2 0x252 PUSH1 0x4 DUP1 CALLDATASIZE SUB DUP2 ADD SWAP1 PUSH2 0x24D SWAP2 SWAP1 PUSH2 0x2DCF JUMP JUMPDEST PUSH2 0xE84 JUMP JUMPDEST STOP JUMPDEST PUSH2 0x25C PUSH2 0xE8E JUMP JUMPDEST PUSH1 0x40 MLOAD PUSH2 0x269 SWAP2 SWAP1 PUSH2 0x33C5 JUMP JUMPDEST PUSH1 0x40 MLOAD DUP1 SWAP2 SUB SWAP1 RETURN JUMPDEST PUSH2 0x27A PUSH2 0x111F JUMP JUMPDEST PUSH1 0x40 MLOAD PUSH2 0x287 SWAP2 SWAP1 PUSH2 0x34A4 JUMP JUMPDEST PUSH1 0x40 MLOAD DUP1 SWAP2 SUB SWAP1 RETURN JUMPDEST PUSH2 0x298 PUSH2 0x1415 JUMP JUMPDEST PUSH1 0x40 MLOAD PUSH2 0x2A5 SWAP2 SWAP1 PUSH2 0x33A3 JUMP JUMPDEST PUSH1 0x40 MLOAD DUP1 SWAP2 SUB SWAP1 RETURN JUMPDEST PUSH2 0x2C8 PUSH1 0x4 DUP1 CALLDATASIZE SUB DUP2 ADD SWAP1 PUSH2 0x2C3 SWAP2 SWAP1 PUSH2 0x2E7C JUMP JUMPDEST PUSH2 0x1773 JUMP JUMPDEST STOP JUMPDEST PUSH2 0x2E4 PUSH1 0x4 DUP1 CALLDATASIZE SUB DUP2 ADD SWAP1 PUSH2 0x2DF SWAP2 SWAP1 PUSH2 0x2DCF JUMP JUMPDEST PUSH2 0x1795 JUMP JUMPDEST STOP JUMPDEST PUSH2 0x300 PUSH1 0x4 DUP1 CALLDATASIZE SUB DUP2 ADD SWAP1 PUSH2 0x2FB SWAP2 SWAP1 PUSH2 0x2DCF JUMP JUMPDEST PUSH2 0x179F JUMP JUMPDEST PUSH1 0x40 MLOAD PUSH2 0x30D SWAP2 SWAP1 PUSH2 0x3297 JUMP JUMPDEST PUSH1 0x40 MLOAD DUP1 SWAP2 SUB SWAP1 RETURN JUMPDEST PUSH2 0x31E PUSH2 0x17D2 JUMP JUMPDEST PUSH1 0x40 MLOAD PUSH2 0x32B SWAP2 SWAP1 PUSH2 0x34A4 JUMP JUMPDEST PUSH1 0x40 MLOAD DUP1 SWAP2 SUB SWAP1 RETURN JUMPDEST PUSH2 0x33C PUSH2 0x17D8 JUMP JUMPDEST PUSH1 0x40 MLOAD PUSH2 0x349 SWAP2 SWAP1 PUSH2 0x34A4 JUMP JUMPDEST PUSH1 0x40 MLOAD DUP1 SWAP2 SUB SWAP1 RETURN JUMPDEST PUSH2 0x35A PUSH2 0x1827 JUMP JUMPDEST PUSH1 0x40 MLOAD PUSH2 0x367 SWAP2 SWAP1 PUSH2 0x3409 JUMP JUMPDEST PUSH1 0x40 MLOAD DUP1 SWAP2 SUB SWAP1 RETURN JUMPDEST PUSH2 0x378 PUSH2 0x1DAF JUMP JUMPDEST PUSH1 0x40 MLOAD PUSH2 0x385 SWAP2 SWAP1 PUSH2 0x3297 JUMP JUMPDEST PUSH1 0x40 MLOAD DUP1 SWAP2 SUB SWAP1 RETURN JUMPDEST PUSH2 0x396 PUSH2 0x1DD3 JUMP JUMPDEST PUSH1 0x40 MLOAD PUSH2 0x3A3 SWAP2 SWAP1 PUSH2 0x34A4 JUMP JUMPDEST PUSH1 0x40 MLOAD DUP1 SWAP2 SUB SWAP1 RETURN JUMPDEST PUSH2 0x3B4 PUSH2 0x1E1D JUMP JUMPDEST PUSH1 0x40 MLOAD PUSH2 0x3C1 SWAP2 SWAP1 PUSH2 0x34A4 JUMP JUMPDEST PUSH1 0x40 MLOAD DUP1 SWAP2 SUB SWAP1 RETURN JUMPDEST PUSH2 0x3E4 PUSH1 0x4 DUP1 CALLDATASIZE SUB DUP2 ADD SWAP1 PUSH2 0x3DF SWAP2 SWAP1 PUSH2 0x2E3C JUMP JUMPDEST PUSH2 0x1E23 JUMP JUMPDEST STOP JUMPDEST PUSH2 0x3EE PUSH2 0x1E35 JUMP JUMPDEST PUSH1 0x40 MLOAD PUSH2 0x3FB SWAP2 SWAP1 PUSH2 0x33E7 JUMP JUMPDEST PUSH1 0x40 MLOAD DUP1 SWAP2 SUB SWAP1 RETURN JUMPDEST PUSH2 0x40C PUSH2 0x1FA8 JUMP JUMPDEST PUSH1 0x40 MLOAD PUSH2 0x419 SWAP2 SWAP1 PUSH2 0x34A4 JUMP JUMPDEST PUSH1 0x40 MLOAD DUP1 SWAP2 SUB SWAP1 RETURN JUMPDEST PUSH2 0x42A PUSH2 0x1FAE JUMP JUMPDEST PUSH1 0x40 MLOAD PUSH2 0x437 SWAP2 SWAP1 PUSH2 0x3409 JUMP JUMPDEST PUSH1 0x40 MLOAD DUP1 SWAP2 SUB SWAP1 RETURN JUMPDEST PUSH2 0x45A PUSH1 0x4 DUP1 CALLDATASIZE SUB DUP2 ADD SWAP1 PUSH2 0x455 SWAP2 SWAP1 PUSH2 0x2D75 JUMP JUMPDEST PUSH2 0x2285 JUMP JUMPDEST PUSH1 0x40 MLOAD PUSH2 0x46D SWAP8 SWAP7 SWAP6 SWAP5 SWAP4 SWAP3 SWAP2 SWAP1 PUSH2 0x3312 JUMP JUMPDEST PUSH1 0x40 MLOAD DUP1 SWAP2 SUB SWAP1 RETURN JUMPDEST PUSH2 0x47E PUSH2 0x22F4 JUMP JUMPDEST PUSH1 0x40 MLOAD PUSH2 0x48B SWAP2 SWAP1 PUSH2 0x34A4 JUMP JUMPDEST PUSH1 0x40 MLOAD DUP1 SWAP2 SUB SWAP1 RETURN JUMPDEST PUSH2 0x4AE PUSH1 0x4 DUP1 CALLDATASIZE SUB DUP2 ADD SWAP1 PUSH2 0x4A9 SWAP2 SWAP1 PUSH2 0x2D75 JUMP JUMPDEST PUSH2 0x22FA JUMP JUMPDEST STOP JUMPDEST PUSH2 0x4B8 PUSH2 0x23CB JUMP JUMPDEST PUSH1 0x40 MLOAD PUSH2 0x4C5 SWAP2 SWAP1 PUSH2 0x33E7 JUMP JUMPDEST PUSH1 0x40 MLOAD DUP1 SWAP2 SUB SWAP1 RETURN JUMPDEST PUSH2 0x4D6 PUSH2 0x253E JUMP JUMPDEST PUSH1 0x40 MLOAD PUSH2 0x4E3 SWAP2 SWAP1 PUSH2 0x34A4 JUMP JUMPDEST PUSH1 0x40 MLOAD DUP1 SWAP2 SUB SWAP1 RETURN JUMPDEST PUSH2 0x4F4 PUSH2 0x2544 JUMP JUMPDEST PUSH1 0x40 MLOAD PUSH2 0x501 SWAP2 SWAP1 PUSH2 0x34A4 JUMP JUMPDEST PUSH1 0x40 MLOAD DUP1 SWAP2 SUB SWAP1 RETURN JUMPDEST PUSH1 0x60 PUSH1 0xC PUSH1 0x0 CALLER PUSH20 0xFFFFFFFFFFFFFFFFFFFFFFFFFFFFFFFFFFFFFFFF AND PUSH20 0xFFFFFFFFFFFFFFFFFFFFFFFFFFFFFFFFFFFFFFFF AND DUP2 MSTORE PUSH1 0x20 ADD SWAP1 DUP2 MSTORE PUSH1 0x20 ADD PUSH1 0x0 KECCAK256 PUSH1 0x1 ADD DUP1 SLOAD DUP1 PUSH1 0x20 MUL PUSH1 0x20 ADD PUSH1 0x40 MLOAD SWAP1 DUP2 ADD PUSH1 0x40 MSTORE DUP1 SWAP3 SWAP2 SWAP1 DUP2 DUP2 MSTORE PUSH1 0x20 ADD DUP3 DUP1 SLOAD DUP1 ISZERO PUSH2 0x5CE JUMPI PUSH1 0x20 MUL DUP3 ADD SWAP2 SWAP1 PUSH1 0x0 MSTORE PUSH1 0x20 PUSH1 0x0 KECCAK256 SWAP1 JUMPDEST DUP2 PUSH1 0x0 SWAP1 SLOAD SWAP1 PUSH2 0x100 EXP SWAP1 DIV PUSH20 0xFFFFFFFFFFFFFFFFFFFFFFFFFFFFFFFFFFFFFFFF AND PUSH20 0xFFFFFFFFFFFFFFFFFFFFFFFFFFFFFFFFFFFFFFFF AND DUP2 MSTORE PUSH1 0x20 ADD SWAP1 PUSH1 0x1 ADD SWAP1 DUP1 DUP4 GT PUSH2 0x584 JUMPI JUMPDEST POP POP POP POP POP SWAP1 POP SWAP1 JUMP JUMPDEST PUSH1 0x3 SLOAD DUP2 JUMP JUMPDEST PUSH1 0x0 PUSH1 0xC PUSH1 0x0 CALLER PUSH20 0xFFFFFFFFFFFFFFFFFFFFFFFFFFFFFFFFFFFFFFFF AND PUSH20 0xFFFFFFFFFFFFFFFFFFFFFFFFFFFFFFFFFFFFFFFF AND DUP2 MSTORE PUSH1 0x20 ADD SWAP1 DUP2 MSTORE PUSH1 0x20 ADD PUSH1 0x0 KECCAK256 PUSH1 0x1 ADD DUP1 SLOAD SWAP1 POP SWAP1 POP SWAP1 JUMP JUMPDEST PUSH1 0x0 PUSH1 0x5 SLOAD DUP4 LT ISZERO DUP1 ISZERO PUSH2 0x641 JUMPI POP PUSH1 0x6 SLOAD DUP4 GT ISZERO JUMPDEST PUSH2 0x680 JUMPI PUSH1 0x40 MLOAD PUSH32 0x8C379A000000000000000000000000000000000000000000000000000000000 DUP2 MSTORE PUSH1 0x4 ADD PUSH2 0x677 SWAP1 PUSH2 0x3444 JUMP JUMPDEST PUSH1 0x40 MLOAD DUP1 SWAP2 SUB SWAP1 REVERT JUMPDEST PUSH1 0x0 ISZERO ISZERO PUSH1 0xC PUSH1 0x0 CALLER PUSH20 0xFFFFFFFFFFFFFFFFFFFFFFFFFFFFFFFFFFFFFFFF AND PUSH20 0xFFFFFFFFFFFFFFFFFFFFFFFFFFFFFFFFFFFFFFFF AND DUP2 MSTORE PUSH1 0x20 ADD SWAP1 DUP2 MSTORE PUSH1 0x20 ADD PUSH1 0x0 KECCAK256 PUSH1 0x8 ADD PUSH1 0x0 SWAP1 SLOAD SWAP1 PUSH2 0x100 EXP SWAP1 DIV PUSH1 0xFF AND ISZERO ISZERO EQ ISZERO PUSH2 0x74D JUMPI CALLER PUSH1 0xB PUSH1 0x0 PUSH1 0x3 SLOAD DUP2 MSTORE PUSH1 0x20 ADD SWAP1 DUP2 MSTORE PUSH1 0x20 ADD PUSH1 0x0 KECCAK256 PUSH1 0x0 PUSH2 0x100 EXP DUP2 SLOAD DUP2 PUSH20 0xFFFFFFFFFFFFFFFFFFFFFFFFFFFFFFFFFFFFFFFF MUL NOT AND SWAP1 DUP4 PUSH20 0xFFFFFFFFFFFFFFFFFFFFFFFFFFFFFFFFFFFFFFFF AND MUL OR SWAP1 SSTORE POP PUSH1 0x3 PUSH1 0x0 DUP2 SLOAD DUP1 SWAP3 SWAP2 SWAP1 PUSH2 0x743 SWAP1 PUSH2 0x3711 JUMP JUMPDEST SWAP2 SWAP1 POP SSTORE POP PUSH2 0x7B3 JUMP JUMPDEST PUSH1 0xC PUSH1 0x0 CALLER PUSH20 0xFFFFFFFFFFFFFFFFFFFFFFFFFFFFFFFFFFFFFFFF AND PUSH20 0xFFFFFFFFFFFFFFFFFFFFFFFFFFFFFFFFFFFFFFFF AND DUP2 MSTORE PUSH1 0x20 ADD SWAP1 DUP2 MSTORE PUSH1 0x20 ADD PUSH1 0x0 KECCAK256 PUSH1 0x2 ADD PUSH1 0x0 SWAP1 SLOAD SWAP1 PUSH2 0x100 EXP SWAP1 DIV PUSH20 0xFFFFFFFFFFFFFFFFFFFFFFFFFFFFFFFFFFFFFFFF AND SWAP2 POP JUMPDEST PUSH1 0x0 PUSH1 0xC PUSH1 0x0 CALLER PUSH20 0xFFFFFFFFFFFFFFFFFFFFFFFFFFFFFFFFFFFFFFFF AND PUSH20 0xFFFFFFFFFFFFFFFFFFFFFFFFFFFFFFFFFFFFFFFF AND DUP2 MSTORE PUSH1 0x20 ADD SWAP1 DUP2 MSTORE PUSH1 0x20 ADD PUSH1 0x0 KECCAK256 PUSH1 0x6 ADD SLOAD EQ ISZERO PUSH2 0x855 JUMPI PUSH4 0x18B8200 TIMESTAMP PUSH2 0x80E SWAP2 SWAP1 PUSH2 0x35B4 JUMP JUMPDEST PUSH1 0xC PUSH1 0x0 CALLER PUSH20 0xFFFFFFFFFFFFFFFFFFFFFFFFFFFFFFFFFFFFFFFF AND PUSH20 0xFFFFFFFFFFFFFFFFFFFFFFFFFFFFFFFFFFFFFFFF AND DUP2 MSTORE PUSH1 0x20 ADD SWAP1 DUP2 MSTORE PUSH1 0x20 ADD PUSH1 0x0 KECCAK256 PUSH1 0x9 ADD DUP2 SWAP1 SSTORE POP JUMPDEST PUSH1 0x0 PUSH1 0xC PUSH1 0x0 CALLER PUSH20 0xFFFFFFFFFFFFFFFFFFFFFFFFFFFFFFFFFFFFFFFF AND PUSH20 0xFFFFFFFFFFFFFFFFFFFFFFFFFFFFFFFFFFFFFFFF AND DUP2 MSTORE PUSH1 0x20 ADD SWAP1 DUP2 MSTORE PUSH1 0x20 ADD PUSH1 0x0 KECCAK256 PUSH1 0x5 ADD SLOAD SWAP1 POP DUP4 PUSH1 0xC PUSH1 0x0 CALLER PUSH20 0xFFFFFFFFFFFFFFFFFFFFFFFFFFFFFFFFFFFFFFFF AND PUSH20 0xFFFFFFFFFFFFFFFFFFFFFFFFFFFFFFFFFFFFFFFF AND DUP2 MSTORE PUSH1 0x20 ADD SWAP1 DUP2 MSTORE PUSH1 0x20 ADD PUSH1 0x0 KECCAK256 PUSH1 0x0 ADD PUSH1 0x0 DUP4 DUP2 MSTORE PUSH1 0x20 ADD SWAP1 DUP2 MSTORE PUSH1 0x20 ADD PUSH1 0x0 KECCAK256 PUSH1 0x0 ADD DUP2 SWAP1 SSTORE POP TIMESTAMP PUSH1 0xC PUSH1 0x0 CALLER PUSH20 0xFFFFFFFFFFFFFFFFFFFFFFFFFFFFFFFFFFFFFFFF AND PUSH20 0xFFFFFFFFFFFFFFFFFFFFFFFFFFFFFFFFFFFFFFFF AND DUP2 MSTORE PUSH1 0x20 ADD SWAP1 DUP2 MSTORE PUSH1 0x20 ADD PUSH1 0x0 KECCAK256 PUSH1 0x0 ADD PUSH1 0x0 DUP4 DUP2 MSTORE PUSH1 0x20 ADD SWAP1 DUP2 MSTORE PUSH1 0x20 ADD PUSH1 0x0 KECCAK256 PUSH1 0x2 ADD DUP2 SWAP1 SSTORE POP PUSH1 0x8 SLOAD TIMESTAMP PUSH2 0x960 SWAP2 SWAP1 PUSH2 0x35B4 JUMP JUMPDEST PUSH1 0xC PUSH1 0x0 CALLER PUSH20 0xFFFFFFFFFFFFFFFFFFFFFFFFFFFFFFFFFFFFFFFF AND PUSH20 0xFFFFFFFFFFFFFFFFFFFFFFFFFFFFFFFFFFFFFFFF AND DUP2 MSTORE PUSH1 0x20 ADD SWAP1 DUP2 MSTORE PUSH1 0x20 ADD PUSH1 0x0 KECCAK256 PUSH1 0x0 ADD PUSH1 0x0 DUP4 DUP2 MSTORE PUSH1 0x20 ADD SWAP1 DUP2 MSTORE PUSH1 0x20 ADD PUSH1 0x0 KECCAK256 PUSH1 0x1 ADD DUP2 SWAP1 SSTORE POP DUP1 PUSH1 0xC PUSH1 0x0 CALLER PUSH20 0xFFFFFFFFFFFFFFFFFFFFFFFFFFFFFFFFFFFFFFFF AND PUSH20 0xFFFFFFFFFFFFFFFFFFFFFFFFFFFFFFFFFFFFFFFF AND DUP2 MSTORE PUSH1 0x20 ADD SWAP1 DUP2 MSTORE PUSH1 0x20 ADD PUSH1 0x0 KECCAK256 PUSH1 0x0 ADD PUSH1 0x0 DUP4 DUP2 MSTORE PUSH1 0x20 ADD SWAP1 DUP2 MSTORE PUSH1 0x20 ADD PUSH1 0x0 KECCAK256 PUSH1 0x3 ADD DUP2 SWAP1 SSTORE POP DUP4 PUSH1 0xC PUSH1 0x0 CALLER PUSH20 0xFFFFFFFFFFFFFFFFFFFFFFFFFFFFFFFFFFFFFFFF AND PUSH20 0xFFFFFFFFFFFFFFFFFFFFFFFFFFFFFFFFFFFFFFFF AND DUP2 MSTORE PUSH1 0x20 ADD SWAP1 DUP2 MSTORE PUSH1 0x20 ADD PUSH1 0x0 KECCAK256 PUSH1 0x6 ADD PUSH1 0x0 DUP3 DUP3 SLOAD PUSH2 0xA67 SWAP2 SWAP1 PUSH2 0x35B4 JUMP JUMPDEST SWAP3 POP POP DUP2 SWAP1 SSTORE POP PUSH1 0xC PUSH1 0x0 CALLER PUSH20 0xFFFFFFFFFFFFFFFFFFFFFFFFFFFFFFFFFFFFFFFF AND PUSH20 0xFFFFFFFFFFFFFFFFFFFFFFFFFFFFFFFFFFFFFFFF AND DUP2 MSTORE PUSH1 0x20 ADD SWAP1 DUP2 MSTORE PUSH1 0x20 ADD PUSH1 0x0 KECCAK256 PUSH1 0x5 ADD PUSH1 0x0 DUP2 SLOAD DUP1 SWAP3 SWAP2 SWAP1 PUSH2 0xAC1 SWAP1 PUSH2 0x3711 JUMP JUMPDEST SWAP2 SWAP1 POP SSTORE POP DUP4 PUSH1 0x9 PUSH1 0x0 DUP3 DUP3 SLOAD PUSH2 0xAD8 SWAP2 SWAP1 PUSH2 0x35B4 JUMP JUMPDEST SWAP3 POP POP DUP2 SWAP1 SSTORE POP PUSH1 0x1 PUSH1 0x0 SWAP1 SLOAD SWAP1 PUSH2 0x100 EXP SWAP1 DIV PUSH20 0xFFFFFFFFFFFFFFFFFFFFFFFFFFFFFFFFFFFFFFFF AND PUSH20 0xFFFFFFFFFFFFFFFFFFFFFFFFFFFFFFFFFFFFFFFF AND PUSH4 0x23B872DD CALLER ADDRESS PUSH4 0x5F5E100 DUP9 PUSH2 0xB2F SWAP2 SWAP1 PUSH2 0x363B JUMP JUMPDEST PUSH1 0x40 MLOAD DUP5 PUSH4 0xFFFFFFFF AND PUSH1 0xE0 SHL DUP2 MSTORE PUSH1 0x4 ADD PUSH2 0xB4D SWAP4 SWAP3 SWAP2 SWAP1 PUSH2 0x32B2 JUMP JUMPDEST PUSH1 0x20 PUSH1 0x40 MLOAD DUP1 DUP4 SUB DUP2 PUSH1 0x0 DUP8 DUP1 EXTCODESIZE ISZERO DUP1 ISZERO PUSH2 0xB67 JUMPI PUSH1 0x0 DUP1 REVERT JUMPDEST POP GAS CALL ISZERO DUP1 ISZERO PUSH2 0xB7B JUMPI RETURNDATASIZE PUSH1 0x0 DUP1 RETURNDATACOPY RETURNDATASIZE PUSH1 0x0 REVERT JUMPDEST POP POP POP POP PUSH1 0x40 MLOAD RETURNDATASIZE PUSH1 0x1F NOT PUSH1 0x1F DUP3 ADD AND DUP3 ADD DUP1 PUSH1 0x40 MSTORE POP DUP2 ADD SWAP1 PUSH2 0xB9F SWAP2 SWAP1 PUSH2 0x2DA2 JUMP JUMPDEST POP PUSH1 0x0 PUSH20 0xFFFFFFFFFFFFFFFFFFFFFFFFFFFFFFFFFFFFFFFF AND DUP4 PUSH20 0xFFFFFFFFFFFFFFFFFFFFFFFFFFFFFFFFFFFFFFFF AND EQ DUP1 PUSH2 0xC06 JUMPI POP CALLER PUSH20 0xFFFFFFFFFFFFFFFFFFFFFFFFFFFFFFFFFFFFFFFF AND DUP4 PUSH20 0xFFFFFFFFFFFFFFFFFFFFFFFFFFFFFFFFFFFFFFFF AND EQ JUMPDEST ISZERO PUSH2 0xC92 JUMPI PUSH1 0x0 PUSH1 0xC PUSH1 0x0 CALLER PUSH20 0xFFFFFFFFFFFFFFFFFFFFFFFFFFFFFFFFFFFFFFFF AND PUSH20 0xFFFFFFFFFFFFFFFFFFFFFFFFFFFFFFFFFFFFFFFF AND DUP2 MSTORE PUSH1 0x20 ADD SWAP1 DUP2 MSTORE PUSH1 0x20 ADD PUSH1 0x0 KECCAK256 PUSH1 0x2 ADD PUSH1 0x0 PUSH2 0x100 EXP DUP2 SLOAD DUP2 PUSH20 0xFFFFFFFFFFFFFFFFFFFFFFFFFFFFFFFFFFFFFFFF MUL NOT AND SWAP1 DUP4 PUSH20 0xFFFFFFFFFFFFFFFFFFFFFFFFFFFFFFFFFFFFFFFF AND MUL OR SWAP1 SSTORE POP PUSH2 0xE1E JUMP JUMPDEST PUSH1 0x0 ISZERO ISZERO PUSH1 0xC PUSH1 0x0 CALLER PUSH20 0xFFFFFFFFFFFFFFFFFFFFFFFFFFFFFFFFFFFFFFFF AND PUSH20 0xFFFFFFFFFFFFFFFFFFFFFFFFFFFFFFFFFFFFFFFF AND DUP2 MSTORE PUSH1 0x20 ADD SWAP1 DUP2 MSTORE PUSH1 0x20 ADD PUSH1 0x0 KECCAK256 PUSH1 0x8 ADD PUSH1 0x0 SWAP1 SLOAD SWAP1 PUSH2 0x100 EXP SWAP1 DIV PUSH1 0xFF AND ISZERO ISZERO EQ ISZERO PUSH2 0xE13 JUMPI DUP3 PUSH1 0xC PUSH1 0x0 CALLER PUSH20 0xFFFFFFFFFFFFFFFFFFFFFFFFFFFFFFFFFFFFFFFF AND PUSH20 0xFFFFFFFFFFFFFFFFFFFFFFFFFFFFFFFFFFFFFFFF AND DUP2 MSTORE PUSH1 0x20 ADD SWAP1 DUP2 MSTORE PUSH1 0x20 ADD PUSH1 0x0 KECCAK256 PUSH1 0x2 ADD PUSH1 0x0 PUSH2 0x100 EXP DUP2 SLOAD DUP2 PUSH20 0xFFFFFFFFFFFFFFFFFFFFFFFFFFFFFFFFFFFFFFFF MUL NOT AND SWAP1 DUP4 PUSH20 0xFFFFFFFFFFFFFFFFFFFFFFFFFFFFFFFFFFFFFFFF AND MUL OR SWAP1 SSTORE POP PUSH1 0xC PUSH1 0x0 DUP5 PUSH20 0xFFFFFFFFFFFFFFFFFFFFFFFFFFFFFFFFFFFFFFFF AND PUSH20 0xFFFFFFFFFFFFFFFFFFFFFFFFFFFFFFFFFFFFFFFF AND DUP2 MSTORE PUSH1 0x20 ADD SWAP1 DUP2 MSTORE PUSH1 0x20 ADD PUSH1 0x0 KECCAK256 PUSH1 0x1 ADD CALLER SWAP1 DUP1 PUSH1 0x1 DUP2 SLOAD ADD DUP1 DUP3 SSTORE DUP1 SWAP2 POP POP PUSH1 0x1 SWAP1 SUB SWAP1 PUSH1 0x0 MSTORE PUSH1 0x20 PUSH1 0x0 KECCAK256 ADD PUSH1 0x0 SWAP1 SWAP2 SWAP1 SWAP2 SWAP1 SWAP2 PUSH2 0x100 EXP DUP2 SLOAD DUP2 PUSH20 0xFFFFFFFFFFFFFFFFFFFFFFFFFFFFFFFFFFFFFFFF MUL NOT AND SWAP1 DUP4 PUSH20 0xFFFFFFFFFFFFFFFFFFFFFFFFFFFFFFFFFFFFFFFF AND MUL OR SWAP1 SSTORE POP JUMPDEST PUSH2 0xE1D CALLER DUP6 PUSH2 0x254A JUMP JUMPDEST JUMPDEST PUSH1 0x1 PUSH1 0xC PUSH1 0x0 CALLER PUSH20 0xFFFFFFFFFFFFFFFFFFFFFFFFFFFFFFFFFFFFFFFF AND PUSH20 0xFFFFFFFFFFFFFFFFFFFFFFFFFFFFFFFFFFFFFFFF AND DUP2 MSTORE PUSH1 0x20 ADD SWAP1 DUP2 MSTORE PUSH1 0x20 ADD PUSH1 0x0 KECCAK256 PUSH1 0x8 ADD PUSH1 0x0 PUSH2 0x100 EXP DUP2 SLOAD DUP2 PUSH1 0xFF MUL NOT AND SWAP1 DUP4 ISZERO ISZERO MUL OR SWAP1 SSTORE POP PUSH1 0x1 SWAP2 POP POP SWAP3 SWAP2 POP POP JUMP JUMPDEST DUP1 PUSH1 0x5 DUP2 SWAP1 SSTORE POP POP JUMP JUMPDEST PUSH1 0x60 PUSH1 0x0 PUSH1 0xC PUSH1 0x0 CALLER PUSH20 0xFFFFFFFFFFFFFFFFFFFFFFFFFFFFFFFFFFFFFFFF AND PUSH20 0xFFFFFFFFFFFFFFFFFFFFFFFFFFFFFFFFFFFFFFFF AND DUP2 MSTORE PUSH1 0x20 ADD SWAP1 DUP2 MSTORE PUSH1 0x20 ADD PUSH1 0x0 KECCAK256 PUSH1 0x5 ADD SLOAD SWAP1 POP PUSH1 0x0 DUP1 PUSH1 0x0 JUMPDEST DUP4 DUP2 LT ISZERO PUSH2 0xF66 JUMPI PUSH1 0x0 PUSH1 0xC PUSH1 0x0 CALLER PUSH20 0xFFFFFFFFFFFFFFFFFFFFFFFFFFFFFFFFFFFFFFFF AND PUSH20 0xFFFFFFFFFFFFFFFFFFFFFFFFFFFFFFFFFFFFFFFF AND DUP2 MSTORE PUSH1 0x20 ADD SWAP1 DUP2 MSTORE PUSH1 0x20 ADD PUSH1 0x0 KECCAK256 PUSH1 0x0 ADD PUSH1 0x0 DUP4 DUP2 MSTORE PUSH1 0x20 ADD SWAP1 DUP2 MSTORE PUSH1 0x20 ADD PUSH1 0x0 KECCAK256 PUSH1 0x0 ADD SLOAD GT ISZERO PUSH2 0xF53 JUMPI DUP3 DUP1 PUSH2 0xF4F SWAP1 PUSH2 0x3711 JUMP JUMPDEST SWAP4 POP POP JUMPDEST DUP1 DUP1 PUSH2 0xF5E SWAP1 PUSH2 0x3711 JUMP JUMPDEST SWAP2 POP POP PUSH2 0xEDD JUMP JUMPDEST POP PUSH1 0x0 DUP3 PUSH8 0xFFFFFFFFFFFFFFFF DUP2 GT ISZERO PUSH2 0xF83 JUMPI PUSH2 0xF82 PUSH2 0x37E7 JUMP JUMPDEST JUMPDEST PUSH1 0x40 MLOAD SWAP1 DUP1 DUP3 MSTORE DUP1 PUSH1 0x20 MUL PUSH1 0x20 ADD DUP3 ADD PUSH1 0x40 MSTORE DUP1 ISZERO PUSH2 0xFBC JUMPI DUP2 PUSH1 0x20 ADD JUMPDEST PUSH2 0xFA9 PUSH2 0x2CB2 JUMP JUMPDEST DUP2 MSTORE PUSH1 0x20 ADD SWAP1 PUSH1 0x1 SWAP1 SUB SWAP1 DUP2 PUSH2 0xFA1 JUMPI SWAP1 POP JUMPDEST POP SWAP1 POP PUSH1 0x0 JUMPDEST DUP5 DUP2 LT ISZERO PUSH2 0x1114 JUMPI PUSH1 0x0 PUSH1 0xC PUSH1 0x0 CALLER PUSH20 0xFFFFFFFFFFFFFFFFFFFFFFFFFFFFFFFFFFFFFFFF AND PUSH20 0xFFFFFFFFFFFFFFFFFFFFFFFFFFFFFFFFFFFFFFFF AND DUP2 MSTORE PUSH1 0x20 ADD SWAP1 DUP2 MSTORE PUSH1 0x20 ADD PUSH1 0x0 KECCAK256 PUSH1 0x0 ADD PUSH1 0x0 DUP4 DUP2 MSTORE PUSH1 0x20 ADD SWAP1 DUP2 MSTORE PUSH1 0x20 ADD PUSH1 0x0 KECCAK256 PUSH1 0x0 ADD SLOAD GT ISZERO PUSH2 0x1101 JUMPI PUSH1 0xC PUSH1 0x0 CALLER PUSH20 0xFFFFFFFFFFFFFFFFFFFFFFFFFFFFFFFFFFFFFFFF AND PUSH20 0xFFFFFFFFFFFFFFFFFFFFFFFFFFFFFFFFFFFFFFFF AND DUP2 MSTORE PUSH1 0x20 ADD SWAP1 DUP2 MSTORE PUSH1 0x20 ADD PUSH1 0x0 KECCAK256 PUSH1 0x0 ADD PUSH1 0x0 DUP3 DUP2 MSTORE PUSH1 0x20 ADD SWAP1 DUP2 MSTORE PUSH1 0x20 ADD PUSH1 0x0 KECCAK256 PUSH1 0x40 MLOAD DUP1 PUSH1 0xC0 ADD PUSH1 0x40 MSTORE SWAP1 DUP2 PUSH1 0x0 DUP3 ADD SLOAD DUP2 MSTORE PUSH1 0x20 ADD PUSH1 0x1 DUP3 ADD SLOAD DUP2 MSTORE PUSH1 0x20 ADD PUSH1 0x2 DUP3 ADD SLOAD DUP2 MSTORE PUSH1 0x20 ADD PUSH1 0x3 DUP3 ADD SLOAD DUP2 MSTORE PUSH1 0x20 ADD PUSH1 0x4 DUP3 ADD SLOAD DUP2 MSTORE PUSH1 0x20 ADD PUSH1 0x5 DUP3 ADD PUSH1 0x0 SWAP1 SLOAD SWAP1 PUSH2 0x100 EXP SWAP1 DIV PUSH1 0xFF AND ISZERO ISZERO ISZERO ISZERO DUP2 MSTORE POP POP DUP3 DUP5 DUP2 MLOAD DUP2 LT PUSH2 0x10E7 JUMPI PUSH2 0x10E6 PUSH2 0x37B8 JUMP JUMPDEST JUMPDEST PUSH1 0x20 MUL PUSH1 0x20 ADD ADD DUP2 SWAP1 MSTORE POP DUP3 DUP1 PUSH2 0x10FD SWAP1 PUSH2 0x3711 JUMP JUMPDEST SWAP4 POP POP JUMPDEST DUP1 DUP1 PUSH2 0x110C SWAP1 PUSH2 0x3711 JUMP JUMPDEST SWAP2 POP POP PUSH2 0xFC2 JUMP JUMPDEST POP DUP1 SWAP5 POP POP POP POP POP SWAP1 JUMP JUMPDEST PUSH1 0x0 DUP1 PUSH1 0x0 DUP1 PUSH1 0x0 PUSH1 0xC PUSH1 0x0 CALLER PUSH20 0xFFFFFFFFFFFFFFFFFFFFFFFFFFFFFFFFFFFFFFFF AND PUSH20 0xFFFFFFFFFFFFFFFFFFFFFFFFFFFFFFFFFFFFFFFF AND DUP2 MSTORE PUSH1 0x20 ADD SWAP1 DUP2 MSTORE PUSH1 0x20 ADD PUSH1 0x0 KECCAK256 PUSH1 0x5 ADD SLOAD SWAP1 POP PUSH1 0x0 JUMPDEST DUP2 DUP2 LT ISZERO PUSH2 0x13BA JUMPI PUSH1 0xC PUSH1 0x0 CALLER PUSH20 0xFFFFFFFFFFFFFFFFFFFFFFFFFFFFFFFFFFFFFFFF AND PUSH20 0xFFFFFFFFFFFFFFFFFFFFFFFFFFFFFFFFFFFFFFFF AND DUP2 MSTORE PUSH1 0x20 ADD SWAP1 DUP2 MSTORE PUSH1 0x20 ADD PUSH1 0x0 KECCAK256 PUSH1 0x0 ADD PUSH1 0x0 DUP3 DUP2 MSTORE PUSH1 0x20 ADD SWAP1 DUP2 MSTORE PUSH1 0x20 ADD PUSH1 0x0 KECCAK256 PUSH1 0x5 ADD PUSH1 0x0 SWAP1 SLOAD SWAP1 PUSH2 0x100 EXP SWAP1 DIV PUSH1 0xFF AND PUSH2 0x1248 JUMPI PUSH1 0xC PUSH1 0x0 CALLER PUSH20 0xFFFFFFFFFFFFFFFFFFFFFFFFFFFFFFFFFFFFFFFF AND PUSH20 0xFFFFFFFFFFFFFFFFFFFFFFFFFFFFFFFFFFFFFFFF AND DUP2 MSTORE PUSH1 0x20 ADD SWAP1 DUP2 MSTORE PUSH1 0x20 ADD PUSH1 0x0 KECCAK256 PUSH1 0x0 ADD PUSH1 0x0 DUP3 DUP2 MSTORE PUSH1 0x20 ADD SWAP1 DUP2 MSTORE PUSH1 0x20 ADD PUSH1 0x0 KECCAK256 PUSH1 0x2 ADD SLOAD TIMESTAMP PUSH2 0x1241 SWAP2 SWAP1 PUSH2 0x3695 JUMP JUMPDEST SWAP4 POP PUSH2 0x1303 JUMP JUMPDEST PUSH1 0xC PUSH1 0x0 CALLER PUSH20 0xFFFFFFFFFFFFFFFFFFFFFFFFFFFFFFFFFFFFFFFF AND PUSH20 0xFFFFFFFFFFFFFFFFFFFFFFFFFFFFFFFFFFFFFFFF AND DUP2 MSTORE PUSH1 0x20 ADD SWAP1 DUP2 MSTORE PUSH1 0x20 ADD PUSH1 0x0 KECCAK256 PUSH1 0x0 ADD PUSH1 0x0 DUP3 DUP2 MSTORE PUSH1 0x20 ADD SWAP1 DUP2 MSTORE PUSH1 0x20 ADD PUSH1 0x0 KECCAK256 PUSH1 0x2 ADD SLOAD PUSH1 0xC PUSH1 0x0 CALLER PUSH20 0xFFFFFFFFFFFFFFFFFFFFFFFFFFFFFFFFFFFFFFFF AND PUSH20 0xFFFFFFFFFFFFFFFFFFFFFFFFFFFFFFFFFFFFFFFF AND DUP2 MSTORE PUSH1 0x20 ADD SWAP1 DUP2 MSTORE PUSH1 0x20 ADD PUSH1 0x0 KECCAK256 PUSH1 0x0 ADD PUSH1 0x0 DUP4 DUP2 MSTORE PUSH1 0x20 ADD SWAP1 DUP2 MSTORE PUSH1 0x20 ADD PUSH1 0x0 KECCAK256 PUSH1 0x4 ADD SLOAD PUSH2 0x1300 SWAP2 SWAP1 PUSH2 0x3695 JUMP JUMPDEST SWAP4 POP JUMPDEST PUSH1 0x3C DUP5 PUSH2 0x1310 SWAP2 SWAP1 PUSH2 0x360A JUMP JUMPDEST SWAP4 POP PUSH1 0x0 DUP5 GT ISZERO PUSH2 0x13A7 JUMPI PUSH2 0x2710 PUSH1 0x32 PUSH1 0xC PUSH1 0x0 CALLER PUSH20 0xFFFFFFFFFFFFFFFFFFFFFFFFFFFFFFFFFFFFFFFF AND PUSH20 0xFFFFFFFFFFFFFFFFFFFFFFFFFFFFFFFFFFFFFFFF AND DUP2 MSTORE PUSH1 0x20 ADD SWAP1 DUP2 MSTORE PUSH1 0x20 ADD PUSH1 0x0 KECCAK256 PUSH1 0x0 ADD PUSH1 0x0 DUP5 DUP2 MSTORE PUSH1 0x20 ADD SWAP1 DUP2 MSTORE PUSH1 0x20 ADD PUSH1 0x0 KECCAK256 PUSH1 0x0 ADD SLOAD PUSH2 0x1381 SWAP2 SWAP1 PUSH2 0x363B JUMP JUMPDEST PUSH2 0x138B SWAP2 SWAP1 PUSH2 0x360A JUMP JUMPDEST SWAP3 POP DUP3 DUP5 PUSH2 0x1399 SWAP2 SWAP1 PUSH2 0x363B JUMP JUMPDEST DUP6 PUSH2 0x13A4 SWAP2 SWAP1 PUSH2 0x35B4 JUMP JUMPDEST SWAP5 POP JUMPDEST DUP1 DUP1 PUSH2 0x13B2 SWAP1 PUSH2 0x3711 JUMP JUMPDEST SWAP2 POP POP PUSH2 0x116F JUMP JUMPDEST POP PUSH1 0xC PUSH1 0x0 CALLER PUSH20 0xFFFFFFFFFFFFFFFFFFFFFFFFFFFFFFFFFFFFFFFF AND PUSH20 0xFFFFFFFFFFFFFFFFFFFFFFFFFFFFFFFFFFFFFFFF AND DUP2 MSTORE PUSH1 0x20 ADD SWAP1 DUP2 MSTORE PUSH1 0x20 ADD PUSH1 0x0 KECCAK256 PUSH1 0x7 ADD SLOAD DUP5 PUSH2 0x1409 SWAP2 SWAP1 PUSH2 0x3695 JUMP JUMPDEST SWAP4 POP DUP4 SWAP5 POP POP POP POP POP SWAP1 JUMP JUMPDEST PUSH1 0x60 PUSH1 0x0 PUSH1 0x3 SLOAD PUSH8 0xFFFFFFFFFFFFFFFF DUP2 GT ISZERO PUSH2 0x1435 JUMPI PUSH2 0x1434 PUSH2 0x37E7 JUMP JUMPDEST JUMPDEST PUSH1 0x40 MLOAD SWAP1 DUP1 DUP3 MSTORE DUP1 PUSH1 0x20 MUL PUSH1 0x20 ADD DUP3 ADD PUSH1 0x40 MSTORE DUP1 ISZERO PUSH2 0x146E JUMPI DUP2 PUSH1 0x20 ADD JUMPDEST PUSH2 0x145B PUSH2 0x2CEA JUMP JUMPDEST DUP2 MSTORE PUSH1 0x20 ADD SWAP1 PUSH1 0x1 SWAP1 SUB SWAP1 DUP2 PUSH2 0x1453 JUMPI SWAP1 POP JUMPDEST POP SWAP1 POP PUSH1 0x0 JUMPDEST PUSH1 0x3 SLOAD DUP2 LT ISZERO PUSH2 0x176B JUMPI PUSH1 0xB PUSH1 0x0 DUP3 DUP2 MSTORE PUSH1 0x20 ADD SWAP1 DUP2 MSTORE PUSH1 0x20 ADD PUSH1 0x0 KECCAK256 PUSH1 0x0 SWAP1 SLOAD SWAP1 PUSH2 0x100 EXP SWAP1 DIV PUSH20 0xFFFFFFFFFFFFFFFFFFFFFFFFFFFFFFFFFFFFFFFF AND DUP3 DUP3 DUP2 MLOAD DUP2 LT PUSH2 0x14C5 JUMPI PUSH2 0x14C4 PUSH2 0x37B8 JUMP JUMPDEST JUMPDEST PUSH1 0x20 MUL PUSH1 0x20 ADD ADD MLOAD PUSH1 0x0 ADD SWAP1 PUSH20 0xFFFFFFFFFFFFFFFFFFFFFFFFFFFFFFFFFFFFFFFF AND SWAP1 DUP2 PUSH20 0xFFFFFFFFFFFFFFFFFFFFFFFFFFFFFFFFFFFFFFFF AND DUP2 MSTORE POP POP PUSH1 0xC PUSH1 0x0 PUSH1 0xB PUSH1 0x0 DUP5 DUP2 MSTORE PUSH1 0x20 ADD SWAP1 DUP2 MSTORE PUSH1 0x20 ADD PUSH1 0x0 KECCAK256 PUSH1 0x0 SWAP1 SLOAD SWAP1 PUSH2 0x100 EXP SWAP1 DIV PUSH20 0xFFFFFFFFFFFFFFFFFFFFFFFFFFFFFFFFFFFFFFFF AND PUSH20 0xFFFFFFFFFFFFFFFFFFFFFFFFFFFFFFFFFFFFFFFF AND PUSH20 0xFFFFFFFFFFFFFFFFFFFFFFFFFFFFFFFFFFFFFFFF AND DUP2 MSTORE PUSH1 0x20 ADD SWAP1 DUP2 MSTORE PUSH1 0x20 ADD PUSH1 0x0 KECCAK256 PUSH1 0x6 ADD SLOAD DUP3 DUP3 DUP2 MLOAD DUP2 LT PUSH2 0x158C JUMPI PUSH2 0x158B PUSH2 0x37B8 JUMP JUMPDEST JUMPDEST PUSH1 0x20 MUL PUSH1 0x20 ADD ADD MLOAD PUSH1 0x20 ADD DUP2 DUP2 MSTORE POP POP PUSH2 0x15D8 PUSH1 0xB PUSH1 0x0 DUP4 DUP2 MSTORE PUSH1 0x20 ADD SWAP1 DUP2 MSTORE PUSH1 0x20 ADD PUSH1 0x0 KECCAK256 PUSH1 0x0 SWAP1 SLOAD SWAP1 PUSH2 0x100 EXP SWAP1 DIV PUSH20 0xFFFFFFFFFFFFFFFFFFFFFFFFFFFFFFFFFFFFFFFF AND PUSH2 0x29BA JUMP JUMPDEST DUP3 DUP3 DUP2 MLOAD DUP2 LT PUSH2 0x15EB JUMPI PUSH2 0x15EA PUSH2 0x37B8 JUMP JUMPDEST JUMPDEST PUSH1 0x20 MUL PUSH1 0x20 ADD ADD MLOAD PUSH1 0x40 ADD DUP2 DUP2 MSTORE POP POP PUSH1 0xC PUSH1 0x0 PUSH1 0xB PUSH1 0x0 DUP5 DUP2 MSTORE PUSH1 0x20 ADD SWAP1 DUP2 MSTORE PUSH1 0x20 ADD PUSH1 0x0 KECCAK256 PUSH1 0x0 SWAP1 SLOAD SWAP1 PUSH2 0x100 EXP SWAP1 DIV PUSH20 0xFFFFFFFFFFFFFFFFFFFFFFFFFFFFFFFFFFFFFFFF AND PUSH20 0xFFFFFFFFFFFFFFFFFFFFFFFFFFFFFFFFFFFFFFFF AND PUSH20 0xFFFFFFFFFFFFFFFFFFFFFFFFFFFFFFFFFFFFFFFF AND DUP2 MSTORE PUSH1 0x20 ADD SWAP1 DUP2 MSTORE PUSH1 0x20 ADD PUSH1 0x0 KECCAK256 PUSH1 0x5 ADD SLOAD DUP3 DUP3 DUP2 MLOAD DUP2 LT PUSH2 0x1684 JUMPI PUSH2 0x1683 PUSH2 0x37B8 JUMP JUMPDEST JUMPDEST PUSH1 0x20 MUL PUSH1 0x20 ADD ADD MLOAD PUSH1 0x60 ADD DUP2 DUP2 MSTORE POP POP PUSH1 0xC PUSH1 0x0 PUSH1 0xB PUSH1 0x0 DUP5 DUP2 MSTORE PUSH1 0x20 ADD SWAP1 DUP2 MSTORE PUSH1 0x20 ADD PUSH1 0x0 KECCAK256 PUSH1 0x0 SWAP1 SLOAD SWAP1 PUSH2 0x100 EXP SWAP1 DIV PUSH20 0xFFFFFFFFFFFFFFFFFFFFFFFFFFFFFFFFFFFFFFFF AND PUSH20 0xFFFFFFFFFFFFFFFFFFFFFFFFFFFFFFFFFFFFFFFF AND PUSH20 0xFFFFFFFFFFFFFFFFFFFFFFFFFFFFFFFFFFFFFFFF AND DUP2 MSTORE PUSH1 0x20 ADD SWAP1 DUP2 MSTORE PUSH1 0x20 ADD PUSH1 0x0 KECCAK256 PUSH1 0x7 ADD SLOAD DUP3 DUP3 DUP2 MLOAD DUP2 LT PUSH2 0x171D JUMPI PUSH2 0x171C PUSH2 0x37B8 JUMP JUMPDEST JUMPDEST PUSH1 0x20 MUL PUSH1 0x20 ADD ADD MLOAD PUSH1 0x80 ADD DUP2 DUP2 MSTORE POP POP PUSH2 0x1735 PUSH2 0x5DE JUMP JUMPDEST DUP3 DUP3 DUP2 MLOAD DUP2 LT PUSH2 0x1748 JUMPI PUSH2 0x1747 PUSH2 0x37B8 JUMP JUMPDEST JUMPDEST PUSH1 0x20 MUL PUSH1 0x20 ADD ADD MLOAD PUSH1 0xA0 ADD DUP2 DUP2 MSTORE POP POP DUP1 DUP1 PUSH2 0x1763 SWAP1 PUSH2 0x3711 JUMP JUMPDEST SWAP2 POP POP PUSH2 0x1474 JUMP JUMPDEST POP DUP1 SWAP2 POP POP SWAP1 JUMP JUMPDEST DUP3 PUSH1 0x6 DUP2 SWAP1 SSTORE POP DUP4 PUSH1 0x5 DUP2 SWAP1 SSTORE POP DUP2 PUSH1 0x4 DUP2 SWAP1 SSTORE POP DUP1 PUSH1 0x7 DUP2 SWAP1 SSTORE POP POP POP POP POP JUMP JUMPDEST DUP1 PUSH1 0x6 DUP2 SWAP1 SSTORE POP POP JUMP JUMPDEST PUSH1 0xB PUSH1 0x20 MSTORE DUP1 PUSH1 0x0 MSTORE PUSH1 0x40 PUSH1 0x0 KECCAK256 PUSH1 0x0 SWAP2 POP SLOAD SWAP1 PUSH2 0x100 EXP SWAP1 DIV PUSH20 0xFFFFFFFFFFFFFFFFFFFFFFFFFFFFFFFFFFFFFFFF AND DUP2 JUMP JUMPDEST PUSH1 0x8 SLOAD DUP2 JUMP JUMPDEST PUSH1 0x0 DUP1 PUSH1 0xC PUSH1 0x0 CALLER PUSH20 0xFFFFFFFFFFFFFFFFFFFFFFFFFFFFFFFFFFFFFFFF AND PUSH20 0xFFFFFFFFFFFFFFFFFFFFFFFFFFFFFFFFFFFFFFFF AND DUP2 MSTORE PUSH1 0x20 ADD SWAP1 DUP2 MSTORE PUSH1 0x20 ADD PUSH1 0x0 KECCAK256 PUSH1 0x7 ADD SLOAD SWAP1 POP DUP1 SWAP2 POP POP SWAP1 JUMP JUMPDEST PUSH1 0x0 DUP1 PUSH1 0xC PUSH1 0x0 CALLER PUSH20 0xFFFFFFFFFFFFFFFFFFFFFFFFFFFFFFFFFFFFFFFF AND PUSH20 0xFFFFFFFFFFFFFFFFFFFFFFFFFFFFFFFFFFFFFFFF AND DUP2 MSTORE PUSH1 0x20 ADD SWAP1 DUP2 MSTORE PUSH1 0x20 ADD PUSH1 0x0 KECCAK256 PUSH1 0x6 ADD SLOAD GT PUSH2 0x18AD JUMPI PUSH1 0x40 MLOAD PUSH32 0x8C379A000000000000000000000000000000000000000000000000000000000 DUP2 MSTORE PUSH1 0x4 ADD PUSH2 0x18A4 SWAP1 PUSH2 0x3424 JUMP JUMPDEST PUSH1 0x40 MLOAD DUP1 SWAP2 SUB SWAP1 REVERT JUMPDEST PUSH1 0x0 PUSH1 0xC PUSH1 0x0 CALLER PUSH20 0xFFFFFFFFFFFFFFFFFFFFFFFFFFFFFFFFFFFFFFFF AND PUSH20 0xFFFFFFFFFFFFFFFFFFFFFFFFFFFFFFFFFFFFFFFF AND DUP2 MSTORE PUSH1 0x20 ADD SWAP1 DUP2 MSTORE PUSH1 0x20 ADD PUSH1 0x0 KECCAK256 PUSH1 0x6 ADD SLOAD SWAP1 POP PUSH1 0x0 PUSH1 0xC PUSH1 0x0 CALLER PUSH20 0xFFFFFFFFFFFFFFFFFFFFFFFFFFFFFFFFFFFFFFFF AND PUSH20 0xFFFFFFFFFFFFFFFFFFFFFFFFFFFFFFFFFFFFFFFF AND DUP2 MSTORE PUSH1 0x20 ADD SWAP1 DUP2 MSTORE PUSH1 0x20 ADD PUSH1 0x0 KECCAK256 PUSH1 0x5 ADD SLOAD SWAP1 POP PUSH1 0x0 PUSH1 0xA SLOAD SWAP1 POP PUSH1 0x0 DUP1 TIMESTAMP PUSH1 0xC PUSH1 0x0 CALLER PUSH20 0xFFFFFFFFFFFFFFFFFFFFFFFFFFFFFFFFFFFFFFFF AND PUSH20 0xFFFFFFFFFFFFFFFFFFFFFFFFFFFFFFFFFFFFFFFF AND DUP2 MSTORE PUSH1 0x20 ADD SWAP1 DUP2 MSTORE PUSH1 0x20 ADD PUSH1 0x0 KECCAK256 PUSH1 0x9 ADD SLOAD GT ISZERO PUSH2 0x1B68 JUMPI PUSH1 0x64 PUSH1 0x1E DUP7 PUSH2 0x199E SWAP2 SWAP1 PUSH2 0x363B JUMP JUMPDEST PUSH2 0x19A8 SWAP2 SWAP1 PUSH2 0x360A JUMP JUMPDEST SWAP2 POP PUSH1 0x64 PUSH1 0x46 DUP7 PUSH2 0x19B9 SWAP2 SWAP1 PUSH2 0x363B JUMP JUMPDEST PUSH2 0x19C3 SWAP2 SWAP1 PUSH2 0x360A JUMP JUMPDEST SWAP1 POP PUSH1 0x1 PUSH1 0x0 SWAP1 SLOAD SWAP1 PUSH2 0x100 EXP SWAP1 DIV PUSH20 0xFFFFFFFFFFFFFFFFFFFFFFFFFFFFFFFFFFFFFFFF AND PUSH20 0xFFFFFFFFFFFFFFFFFFFFFFFFFFFFFFFFFFFFFFFF AND PUSH4 0xA9059CBB CALLER PUSH4 0x5F5E100 DUP6 PUSH2 0x1A14 SWAP2 SWAP1 PUSH2 0x363B JUMP JUMPDEST PUSH1 0x40 MLOAD DUP4 PUSH4 0xFFFFFFFF AND PUSH1 0xE0 SHL DUP2 MSTORE PUSH1 0x4 ADD PUSH2 0x1A31 SWAP3 SWAP2 SWAP1 PUSH2 0x32E9 JUMP JUMPDEST PUSH1 0x20 PUSH1 0x40 MLOAD DUP1 DUP4 SUB DUP2 PUSH1 0x0 DUP8 DUP1 EXTCODESIZE ISZERO DUP1 ISZERO PUSH2 0x1A4B JUMPI PUSH1 0x0 DUP1 REVERT JUMPDEST POP GAS CALL ISZERO DUP1 ISZERO PUSH2 0x1A5F JUMPI RETURNDATASIZE PUSH1 0x0 DUP1 RETURNDATACOPY RETURNDATASIZE PUSH1 0x0 REVERT JUMPDEST POP POP POP POP PUSH1 0x40 MLOAD RETURNDATASIZE PUSH1 0x1F NOT PUSH1 0x1F DUP3 ADD AND DUP3 ADD DUP1 PUSH1 0x40 MSTORE POP DUP2 ADD SWAP1 PUSH2 0x1A83 SWAP2 SWAP1 PUSH2 0x2DA2 JUMP JUMPDEST POP PUSH1 0x1 PUSH1 0x0 SWAP1 SLOAD SWAP1 PUSH2 0x100 EXP SWAP1 DIV PUSH20 0xFFFFFFFFFFFFFFFFFFFFFFFFFFFFFFFFFFFFFFFF AND PUSH20 0xFFFFFFFFFFFFFFFFFFFFFFFFFFFFFFFFFFFFFFFF AND PUSH4 0xA9059CBB PUSH1 0x0 DUP1 SLOAD SWAP1 PUSH2 0x100 EXP SWAP1 DIV PUSH20 0xFFFFFFFFFFFFFFFFFFFFFFFFFFFFFFFFFFFFFFFF AND PUSH4 0x5F5E100 DUP5 PUSH2 0x1AF3 SWAP2 SWAP1 PUSH2 0x363B JUMP JUMPDEST PUSH1 0x40 MLOAD DUP4 PUSH4 0xFFFFFFFF AND PUSH1 0xE0 SHL DUP2 MSTORE PUSH1 0x4 ADD PUSH2 0x1B10 SWAP3 SWAP2 SWAP1 PUSH2 0x32E9 JUMP JUMPDEST PUSH1 0x20 PUSH1 0x40 MLOAD DUP1 DUP4 SUB DUP2 PUSH1 0x0 DUP8 DUP1 EXTCODESIZE ISZERO DUP1 ISZERO PUSH2 0x1B2A JUMPI PUSH1 0x0 DUP1 REVERT JUMPDEST POP GAS CALL ISZERO DUP1 ISZERO PUSH2 0x1B3E JUMPI RETURNDATASIZE PUSH1 0x0 DUP1 RETURNDATACOPY RETURNDATASIZE PUSH1 0x0 REVERT JUMPDEST POP POP POP POP PUSH1 0x40 MLOAD RETURNDATASIZE PUSH1 0x1F NOT PUSH1 0x1F DUP3 ADD AND DUP3 ADD DUP1 PUSH1 0x40 MSTORE POP DUP2 ADD SWAP1 PUSH2 0x1B62 SWAP2 SWAP1 PUSH2 0x2DA2 JUMP JUMPDEST POP PUSH2 0x1C28 JUMP JUMPDEST PUSH1 0x1 PUSH1 0x0 SWAP1 SLOAD SWAP1 PUSH2 0x100 EXP SWAP1 DIV PUSH20 0xFFFFFFFFFFFFFFFFFFFFFFFFFFFFFFFFFFFFFFFF AND PUSH20 0xFFFFFFFFFFFFFFFFFFFFFFFFFFFFFFFFFFFFFFFF AND PUSH4 0xA9059CBB CALLER PUSH4 0x5F5E100 DUP9 PUSH2 0x1BB7 SWAP2 SWAP1 PUSH2 0x363B JUMP JUMPDEST PUSH1 0x40 MLOAD DUP4 PUSH4 0xFFFFFFFF AND PUSH1 0xE0 SHL DUP2 MSTORE PUSH1 0x4 ADD PUSH2 0x1BD4 SWAP3 SWAP2 SWAP1 PUSH2 0x32E9 JUMP JUMPDEST PUSH1 0x20 PUSH1 0x40 MLOAD DUP1 DUP4 SUB DUP2 PUSH1 0x0 DUP8 DUP1 EXTCODESIZE ISZERO DUP1 ISZERO PUSH2 0x1BEE JUMPI PUSH1 0x0 DUP1 REVERT JUMPDEST POP GAS CALL ISZERO DUP1 ISZERO PUSH2 0x1C02 JUMPI RETURNDATASIZE PUSH1 0x0 DUP1 RETURNDATACOPY RETURNDATASIZE PUSH1 0x0 REVERT JUMPDEST POP POP POP POP PUSH1 0x40 MLOAD RETURNDATASIZE PUSH1 0x1F NOT PUSH1 0x1F DUP3 ADD AND DUP3 ADD DUP1 PUSH1 0x40 MSTORE POP DUP2 ADD SWAP1 PUSH2 0x1C26 SWAP2 SWAP1 PUSH2 0x2DA2 JUMP JUMPDEST POP JUMPDEST PUSH1 0x0 SWAP3 POP JUMPDEST DUP4 DUP4 LT ISZERO PUSH2 0x1D12 JUMPI PUSH1 0x1 PUSH1 0xC PUSH1 0x0 CALLER PUSH20 0xFFFFFFFFFFFFFFFFFFFFFFFFFFFFFFFFFFFFFFFF AND PUSH20 0xFFFFFFFFFFFFFFFFFFFFFFFFFFFFFFFFFFFFFFFF AND DUP2 MSTORE PUSH1 0x20 ADD SWAP1 DUP2 MSTORE PUSH1 0x20 ADD PUSH1 0x0 KECCAK256 PUSH1 0x0 ADD PUSH1 0x0 DUP6 DUP2 MSTORE PUSH1 0x20 ADD SWAP1 DUP2 MSTORE PUSH1 0x20 ADD PUSH1 0x0 KECCAK256 PUSH1 0x5 ADD PUSH1 0x0 PUSH2 0x100 EXP DUP2 SLOAD DUP2 PUSH1 0xFF MUL NOT AND SWAP1 DUP4 ISZERO ISZERO MUL OR SWAP1 SSTORE POP TIMESTAMP PUSH1 0xC PUSH1 0x0 CALLER PUSH20 0xFFFFFFFFFFFFFFFFFFFFFFFFFFFFFFFFFFFFFFFF AND PUSH20 0xFFFFFFFFFFFFFFFFFFFFFFFFFFFFFFFFFFFFFFFF AND DUP2 MSTORE PUSH1 0x20 ADD SWAP1 DUP2 MSTORE PUSH1 0x20 ADD PUSH1 0x0 KECCAK256 PUSH1 0x0 ADD PUSH1 0x0 DUP6 DUP2 MSTORE PUSH1 0x20 ADD SWAP1 DUP2 MSTORE PUSH1 0x20 ADD PUSH1 0x0 KECCAK256 PUSH1 0x4 ADD DUP2 SWAP1 SSTORE POP DUP3 DUP1 PUSH2 0x1D0A SWAP1 PUSH2 0x3711 JUMP JUMPDEST SWAP4 POP POP PUSH2 0x1C2D JUMP JUMPDEST PUSH1 0xC PUSH1 0x0 CALLER PUSH20 0xFFFFFFFFFFFFFFFFFFFFFFFFFFFFFFFFFFFFFFFF AND PUSH20 0xFFFFFFFFFFFFFFFFFFFFFFFFFFFFFFFFFFFFFFFF AND DUP2 MSTORE PUSH1 0x20 ADD SWAP1 DUP2 MSTORE PUSH1 0x20 ADD PUSH1 0x0 KECCAK256 PUSH1 0x5 ADD SLOAD PUSH1 0xA DUP2 SWAP1 SSTORE POP PUSH1 0x0 PUSH1 0xC PUSH1 0x0 CALLER PUSH20 0xFFFFFFFFFFFFFFFFFFFFFFFFFFFFFFFFFFFFFFFF AND PUSH20 0xFFFFFFFFFFFFFFFFFFFFFFFFFFFFFFFFFFFFFFFF AND DUP2 MSTORE PUSH1 0x20 ADD SWAP1 DUP2 MSTORE PUSH1 0x20 ADD PUSH1 0x0 KECCAK256 PUSH1 0x6 ADD DUP2 SWAP1 SSTORE POP PUSH1 0x1 SWAP6 POP POP POP POP POP POP SWAP1 JUMP JUMPDEST PUSH1 0x0 DUP1 SLOAD SWAP1 PUSH2 0x100 EXP SWAP1 DIV PUSH20 0xFFFFFFFFFFFFFFFFFFFFFFFFFFFFFFFFFFFFFFFF AND DUP2 JUMP JUMPDEST PUSH1 0x0 PUSH1 0xC PUSH1 0x0 CALLER PUSH20 0xFFFFFFFFFFFFFFFFFFFFFFFFFFFFFFFFFFFFFFFF AND PUSH20 0xFFFFFFFFFFFFFFFFFFFFFFFFFFFFFFFFFFFFFFFF AND DUP2 MSTORE PUSH1 0x20 ADD SWAP1 DUP2 MSTORE PUSH1 0x20 ADD PUSH1 0x0 KECCAK256 PUSH1 0x6 ADD SLOAD SWAP1 POP SWAP1 JUMP JUMPDEST PUSH1 0x7 SLOAD DUP2 JUMP JUMPDEST DUP2 PUSH1 0x4 DUP2 SWAP1 SSTORE POP DUP1 PUSH1 0x7 DUP2 SWAP1 SSTORE POP POP POP JUMP JUMPDEST PUSH1 0x60 PUSH1 0x0 PUSH1 0x14 PUSH8 0xFFFFFFFFFFFFFFFF DUP2 GT ISZERO PUSH2 0x1E54 JUMPI PUSH2 0x1E53 PUSH2 0x37E7 JUMP JUMPDEST JUMPDEST PUSH1 0x40 MLOAD SWAP1 DUP1 DUP3 MSTORE DUP1 PUSH1 0x20 MUL PUSH1 0x20 ADD DUP3 ADD PUSH1 0x40 MSTORE DUP1 ISZERO PUSH2 0x1E82 JUMPI DUP2 PUSH1 0x20 ADD PUSH1 0x20 DUP3 MUL DUP1 CALLDATASIZE DUP4 CALLDATACOPY DUP1 DUP3 ADD SWAP2 POP POP SWAP1 POP JUMPDEST POP SWAP1 POP PUSH1 0x0 JUMPDEST PUSH1 0x14 DUP2 LT ISZERO PUSH2 0x1FA0 JUMPI PUSH1 0x0 PUSH1 0xC PUSH1 0x0 CALLER PUSH20 0xFFFFFFFFFFFFFFFFFFFFFFFFFFFFFFFFFFFFFFFF AND PUSH20 0xFFFFFFFFFFFFFFFFFFFFFFFFFFFFFFFFFFFFFFFF AND DUP2 MSTORE PUSH1 0x20 ADD SWAP1 DUP2 MSTORE PUSH1 0x20 ADD PUSH1 0x0 KECCAK256 PUSH1 0x3 ADD PUSH1 0x0 DUP4 DUP2 MSTORE PUSH1 0x20 ADD SWAP1 DUP2 MSTORE PUSH1 0x20 ADD PUSH1 0x0 KECCAK256 PUSH1 0x0 ADD SLOAD GT ISZERO PUSH2 0x1F6B JUMPI PUSH1 0xC PUSH1 0x0 CALLER PUSH20 0xFFFFFFFFFFFFFFFFFFFFFFFFFFFFFFFFFFFFFFFF AND PUSH20 0xFFFFFFFFFFFFFFFFFFFFFFFFFFFFFFFFFFFFFFFF AND DUP2 MSTORE PUSH1 0x20 ADD SWAP1 DUP2 MSTORE PUSH1 0x20 ADD PUSH1 0x0 KECCAK256 PUSH1 0x3 ADD PUSH1 0x0 DUP3 DUP2 MSTORE PUSH1 0x20 ADD SWAP1 DUP2 MSTORE PUSH1 0x20 ADD PUSH1 0x0 KECCAK256 PUSH1 0x0 ADD SLOAD DUP3 DUP3 DUP2 MLOAD DUP2 LT PUSH2 0x1F5A JUMPI PUSH2 0x1F59 PUSH2 0x37B8 JUMP JUMPDEST JUMPDEST PUSH1 0x20 MUL PUSH1 0x20 ADD ADD DUP2 DUP2 MSTORE POP POP PUSH2 0x1F8D JUMP JUMPDEST PUSH1 0x0 DUP3 DUP3 DUP2 MLOAD DUP2 LT PUSH2 0x1F80 JUMPI PUSH2 0x1F7F PUSH2 0x37B8 JUMP JUMPDEST JUMPDEST PUSH1 0x20 MUL PUSH1 0x20 ADD ADD DUP2 DUP2 MSTORE POP POP JUMPDEST DUP1 DUP1 PUSH2 0x1F98 SWAP1 PUSH2 0x3711 JUMP JUMPDEST SWAP2 POP POP PUSH2 0x1E88 JUMP JUMPDEST POP DUP1 SWAP2 POP POP SWAP1 JUMP JUMPDEST PUSH1 0x5 SLOAD DUP2 JUMP JUMPDEST PUSH1 0x0 DUP1 PUSH2 0x1FB9 PUSH2 0x111F JUMP JUMPDEST SWAP1 POP PUSH1 0x0 DUP2 GT PUSH2 0x1FFE JUMPI PUSH1 0x40 MLOAD PUSH32 0x8C379A000000000000000000000000000000000000000000000000000000000 DUP2 MSTORE PUSH1 0x4 ADD PUSH2 0x1FF5 SWAP1 PUSH2 0x3464 JUMP JUMPDEST PUSH1 0x40 MLOAD DUP1 SWAP2 SUB SWAP1 REVERT JUMPDEST PUSH1 0x0 PUSH1 0x64 PUSH1 0x15 DUP4 PUSH2 0x200F SWAP2 SWAP1 PUSH2 0x363B JUMP JUMPDEST PUSH2 0x2019 SWAP2 SWAP1 PUSH2 0x360A JUMP JUMPDEST SWAP1 POP PUSH1 0x0 PUSH1 0xC PUSH1 0x0 CALLER PUSH20 0xFFFFFFFFFFFFFFFFFFFFFFFFFFFFFFFFFFFFFFFF AND PUSH20 0xFFFFFFFFFFFFFFFFFFFFFFFFFFFFFFFFFFFFFFFF AND DUP2 MSTORE PUSH1 0x20 ADD SWAP1 DUP2 MSTORE PUSH1 0x20 ADD PUSH1 0x0 KECCAK256 PUSH1 0x2 ADD PUSH1 0x0 SWAP1 SLOAD SWAP1 PUSH2 0x100 EXP SWAP1 DIV PUSH20 0xFFFFFFFFFFFFFFFFFFFFFFFFFFFFFFFFFFFFFFFF AND SWAP1 POP PUSH1 0x0 PUSH20 0xFFFFFFFFFFFFFFFFFFFFFFFFFFFFFFFFFFFFFFFF AND DUP2 PUSH20 0xFFFFFFFFFFFFFFFFFFFFFFFFFFFFFFFFFFFFFFFF AND EQ PUSH2 0x2167 JUMPI PUSH1 0x2 PUSH1 0x0 SWAP1 SLOAD SWAP1 PUSH2 0x100 EXP SWAP1 DIV PUSH20 0xFFFFFFFFFFFFFFFFFFFFFFFFFFFFFFFFFFFFFFFF AND PUSH20 0xFFFFFFFFFFFFFFFFFFFFFFFFFFFFFFFFFFFFFFFF AND PUSH4 0xA9059CBB DUP3 DUP5 PUSH1 0x40 MLOAD DUP4 PUSH4 0xFFFFFFFF AND PUSH1 0xE0 SHL DUP2 MSTORE PUSH1 0x4 ADD PUSH2 0x2113 SWAP3 SWAP2 SWAP1 PUSH2 0x32E9 JUMP JUMPDEST PUSH1 0x20 PUSH1 0x40 MLOAD DUP1 DUP4 SUB DUP2 PUSH1 0x0 DUP8 DUP1 EXTCODESIZE ISZERO DUP1 ISZERO PUSH2 0x212D JUMPI PUSH1 0x0 DUP1 REVERT JUMPDEST POP GAS CALL ISZERO DUP1 ISZERO PUSH2 0x2141 JUMPI RETURNDATASIZE PUSH1 0x0 DUP1 RETURNDATACOPY RETURNDATASIZE PUSH1 0x0 REVERT JUMPDEST POP POP POP POP PUSH1 0x40 MLOAD RETURNDATASIZE PUSH1 0x1F NOT PUSH1 0x1F DUP3 ADD AND DUP3 ADD DUP1 PUSH1 0x40 MSTORE POP DUP2 ADD SWAP1 PUSH2 0x2165 SWAP2 SWAP1 PUSH2 0x2DA2 JUMP JUMPDEST POP JUMPDEST PUSH1 0x2 PUSH1 0x0 SWAP1 SLOAD SWAP1 PUSH2 0x100 EXP SWAP1 DIV PUSH20 0xFFFFFFFFFFFFFFFFFFFFFFFFFFFFFFFFFFFFFFFF AND PUSH20 0xFFFFFFFFFFFFFFFFFFFFFFFFFFFFFFFFFFFFFFFF AND PUSH4 0xA9059CBB CALLER DUP5 DUP7 PUSH2 0x21B2 SWAP2 SWAP1 PUSH2 0x3695 JUMP JUMPDEST PUSH1 0x40 MLOAD DUP4 PUSH4 0xFFFFFFFF AND PUSH1 0xE0 SHL DUP2 MSTORE PUSH1 0x4 ADD PUSH2 0x21CF SWAP3 SWAP2 SWAP1 PUSH2 0x32E9 JUMP JUMPDEST PUSH1 0x20 PUSH1 0x40 MLOAD DUP1 DUP4 SUB DUP2 PUSH1 0x0 DUP8 DUP1 EXTCODESIZE ISZERO DUP1 ISZERO PUSH2 0x21E9 JUMPI PUSH1 0x0 DUP1 REVERT JUMPDEST POP GAS CALL ISZERO DUP1 ISZERO PUSH2 0x21FD JUMPI RETURNDATASIZE PUSH1 0x0 DUP1 RETURNDATACOPY RETURNDATASIZE PUSH1 0x0 REVERT JUMPDEST POP POP POP POP PUSH1 0x40 MLOAD RETURNDATASIZE PUSH1 0x1F NOT PUSH1 0x1F DUP3 ADD AND DUP3 ADD DUP1 PUSH1 0x40 MSTORE POP DUP2 ADD SWAP1 PUSH2 0x2221 SWAP2 SWAP1 PUSH2 0x2DA2 JUMP JUMPDEST POP DUP3 PUSH1 0xC PUSH1 0x0 CALLER PUSH20 0xFFFFFFFFFFFFFFFFFFFFFFFFFFFFFFFFFFFFFFFF AND PUSH20 0xFFFFFFFFFFFFFFFFFFFFFFFFFFFFFFFFFFFFFFFF AND DUP2 MSTORE PUSH1 0x20 ADD SWAP1 DUP2 MSTORE PUSH1 0x20 ADD PUSH1 0x0 KECCAK256 PUSH1 0x7 ADD PUSH1 0x0 DUP3 DUP3 SLOAD PUSH2 0x2274 SWAP2 SWAP1 PUSH2 0x35B4 JUMP JUMPDEST SWAP3 POP POP DUP2 SWAP1 SSTORE POP PUSH1 0x1 SWAP4 POP POP POP POP SWAP1 JUMP JUMPDEST PUSH1 0xC PUSH1 0x20 MSTORE DUP1 PUSH1 0x0 MSTORE PUSH1 0x40 PUSH1 0x0 KECCAK256 PUSH1 0x0 SWAP2 POP SWAP1 POP DUP1 PUSH1 0x2 ADD PUSH1 0x0 SWAP1 SLOAD SWAP1 PUSH2 0x100 EXP SWAP1 DIV PUSH20 0xFFFFFFFFFFFFFFFFFFFFFFFFFFFFFFFFFFFFFFFF AND SWAP1 DUP1 PUSH1 0x4 ADD SLOAD SWAP1 DUP1 PUSH1 0x5 ADD SLOAD SWAP1 DUP1 PUSH1 0x6 ADD SLOAD SWAP1 DUP1 PUSH1 0x7 ADD SLOAD SWAP1 DUP1 PUSH1 0x8 ADD PUSH1 0x0 SWAP1 SLOAD SWAP1 PUSH2 0x100 EXP SWAP1 DIV PUSH1 0xFF AND SWAP1 DUP1 PUSH1 0x9 ADD SLOAD SWAP1 POP DUP8 JUMP JUMPDEST PUSH1 0x9 SLOAD DUP2 JUMP JUMPDEST PUSH1 0x0 DUP1 SLOAD SWAP1 PUSH2 0x100 EXP SWAP1 DIV PUSH20 0xFFFFFFFFFFFFFFFFFFFFFFFFFFFFFFFFFFFFFFFF AND PUSH20 0xFFFFFFFFFFFFFFFFFFFFFFFFFFFFFFFFFFFFFFFF AND CALLER PUSH20 0xFFFFFFFFFFFFFFFFFFFFFFFFFFFFFFFFFFFFFFFF AND EQ PUSH2 0x2388 JUMPI PUSH1 0x40 MLOAD PUSH32 0x8C379A000000000000000000000000000000000000000000000000000000000 DUP2 MSTORE PUSH1 0x4 ADD PUSH2 0x237F SWAP1 PUSH2 0x3484 JUMP JUMPDEST PUSH1 0x40 MLOAD DUP1 SWAP2 SUB SWAP1 REVERT JUMPDEST DUP1 PUSH1 0x0 DUP1 PUSH2 0x100 EXP DUP2 SLOAD DUP2 PUSH20 0xFFFFFFFFFFFFFFFFFFFFFFFFFFFFFFFFFFFFFFFF MUL NOT AND SWAP1 DUP4 PUSH20 0xFFFFFFFFFFFFFFFFFFFFFFFFFFFFFFFFFFFFFFFF AND MUL OR SWAP1 SSTORE POP POP JUMP JUMPDEST PUSH1 0x60 PUSH1 0x0 PUSH1 0x14 PUSH8 0xFFFFFFFFFFFFFFFF DUP2 GT ISZERO PUSH2 0x23EA JUMPI PUSH2 0x23E9 PUSH2 0x37E7 JUMP JUMPDEST JUMPDEST PUSH1 0x40 MLOAD SWAP1 DUP1 DUP3 MSTORE DUP1 PUSH1 0x20 MUL PUSH1 0x20 ADD DUP3 ADD PUSH1 0x40 MSTORE DUP1 ISZERO PUSH2 0x2418 JUMPI DUP2 PUSH1 0x20 ADD PUSH1 0x20 DUP3 MUL DUP1 CALLDATASIZE DUP4 CALLDATACOPY DUP1 DUP3 ADD SWAP2 POP POP SWAP1 POP JUMPDEST POP SWAP1 POP PUSH1 0x0 JUMPDEST PUSH1 0x14 DUP2 LT ISZERO PUSH2 0x2536 JUMPI PUSH1 0x0 PUSH1 0xC PUSH1 0x0 CALLER PUSH20 0xFFFFFFFFFFFFFFFFFFFFFFFFFFFFFFFFFFFFFFFF AND PUSH20 0xFFFFFFFFFFFFFFFFFFFFFFFFFFFFFFFFFFFFFFFF AND DUP2 MSTORE PUSH1 0x20 ADD SWAP1 DUP2 MSTORE PUSH1 0x20 ADD PUSH1 0x0 KECCAK256 PUSH1 0x3 ADD PUSH1 0x0 DUP4 DUP2 MSTORE PUSH1 0x20 ADD SWAP1 DUP2 MSTORE PUSH1 0x20 ADD PUSH1 0x0 KECCAK256 PUSH1 0x0 ADD SLOAD GT ISZERO PUSH2 0x2501 JUMPI PUSH1 0xC PUSH1 0x0 CALLER PUSH20 0xFFFFFFFFFFFFFFFFFFFFFFFFFFFFFFFFFFFFFFFF AND PUSH20 0xFFFFFFFFFFFFFFFFFFFFFFFFFFFFFFFFFFFFFFFF AND DUP2 MSTORE PUSH1 0x20 ADD SWAP1 DUP2 MSTORE PUSH1 0x20 ADD PUSH1 0x0 KECCAK256 PUSH1 0x3 ADD PUSH1 0x0 DUP3 DUP2 MSTORE PUSH1 0x20 ADD SWAP1 DUP2 MSTORE PUSH1 0x20 ADD PUSH1 0x0 KECCAK256 PUSH1 0x1 ADD SLOAD DUP3 DUP3 DUP2 MLOAD DUP2 LT PUSH2 0x24F0 JUMPI PUSH2 0x24EF PUSH2 0x37B8 JUMP JUMPDEST JUMPDEST PUSH1 0x20 MUL PUSH1 0x20 ADD ADD DUP2 DUP2 MSTORE POP POP PUSH2 0x2523 JUMP JUMPDEST PUSH1 0x0 DUP3 DUP3 DUP2 MLOAD DUP2 LT PUSH2 0x2516 JUMPI PUSH2 0x2515 PUSH2 0x37B8 JUMP JUMPDEST JUMPDEST PUSH1 0x20 MUL PUSH1 0x20 ADD ADD DUP2 DUP2 MSTORE POP POP JUMPDEST DUP1 DUP1 PUSH2 0x252E SWAP1 PUSH2 0x3711 JUMP JUMPDEST SWAP2 POP POP PUSH2 0x241E JUMP JUMPDEST POP DUP1 SWAP2 POP POP SWAP1 JUMP JUMPDEST PUSH1 0x4 SLOAD DUP2 JUMP JUMPDEST PUSH1 0x6 SLOAD DUP2 JUMP JUMPDEST PUSH1 0x0 DUP3 SWAP1 POP PUSH1 0x0 PUSH1 0x5 PUSH8 0xFFFFFFFFFFFFFFFF DUP2 GT ISZERO PUSH2 0x256C JUMPI PUSH2 0x256B PUSH2 0x37E7 JUMP JUMPDEST JUMPDEST PUSH1 0x40 MLOAD SWAP1 DUP1 DUP3 MSTORE DUP1 PUSH1 0x20 MUL PUSH1 0x20 ADD DUP3 ADD PUSH1 0x40 MSTORE DUP1 ISZERO PUSH2 0x259A JUMPI DUP2 PUSH1 0x20 ADD PUSH1 0x20 DUP3 MUL DUP1 CALLDATASIZE DUP4 CALLDATACOPY DUP1 DUP3 ADD SWAP2 POP POP SWAP1 POP JUMPDEST POP SWAP1 POP PUSH1 0x5 DUP2 PUSH1 0x0 DUP2 MLOAD DUP2 LT PUSH2 0x25B3 JUMPI PUSH2 0x25B2 PUSH2 0x37B8 JUMP JUMPDEST JUMPDEST PUSH1 0x20 MUL PUSH1 0x20 ADD ADD DUP2 DUP2 MSTORE POP POP PUSH1 0x3 DUP2 PUSH1 0x1 DUP2 MLOAD DUP2 LT PUSH2 0x25D5 JUMPI PUSH2 0x25D4 PUSH2 0x37B8 JUMP JUMPDEST JUMPDEST PUSH1 0x20 MUL PUSH1 0x20 ADD ADD DUP2 DUP2 MSTORE POP POP PUSH1 0x2 DUP2 PUSH1 0x2 DUP2 MLOAD DUP2 LT PUSH2 0x25F7 JUMPI PUSH2 0x25F6 PUSH2 0x37B8 JUMP JUMPDEST JUMPDEST PUSH1 0x20 MUL PUSH1 0x20 ADD ADD DUP2 DUP2 MSTORE POP POP PUSH1 0x1 DUP2 PUSH1 0x3 DUP2 MLOAD DUP2 LT PUSH2 0x2619 JUMPI PUSH2 0x2618 PUSH2 0x37B8 JUMP JUMPDEST JUMPDEST PUSH1 0x20 MUL PUSH1 0x20 ADD ADD DUP2 DUP2 MSTORE POP POP PUSH1 0x1 DUP2 PUSH1 0x4 DUP2 MLOAD DUP2 LT PUSH2 0x263B JUMPI PUSH2 0x263A PUSH2 0x37B8 JUMP JUMPDEST JUMPDEST PUSH1 0x20 MUL PUSH1 0x20 ADD ADD DUP2 DUP2 MSTORE POP POP PUSH1 0x0 DUP1 PUSH1 0x0 SWAP1 POP JUMPDEST PUSH1 0x14 DUP2 LT ISZERO PUSH2 0x29B2 JUMPI PUSH1 0x0 DUP2 EQ ISZERO PUSH2 0x266A JUMPI PUSH1 0x0 SWAP2 POP PUSH2 0x26B2 JUMP JUMPDEST PUSH1 0x1 DUP2 EQ ISZERO PUSH2 0x267C JUMPI PUSH1 0x1 SWAP2 POP PUSH2 0x26B1 JUMP JUMPDEST PUSH1 0x2 DUP2 EQ ISZERO PUSH2 0x268E JUMPI PUSH1 0x2 SWAP2 POP PUSH2 0x26B0 JUMP JUMPDEST PUSH1 0x7 DUP2 GT ISZERO PUSH2 0x26A0 JUMPI PUSH1 0x4 SWAP2 POP PUSH2 0x26AF JUMP JUMPDEST PUSH1 0x2 DUP2 GT ISZERO PUSH2 0x26AE JUMPI PUSH1 0x3 SWAP2 POP JUMPDEST JUMPDEST JUMPDEST JUMPDEST JUMPDEST PUSH1 0x0 PUSH20 0xFFFFFFFFFFFFFFFFFFFFFFFFFFFFFFFFFFFFFFFF AND PUSH1 0xC PUSH1 0x0 DUP7 PUSH20 0xFFFFFFFFFFFFFFFFFFFFFFFFFFFFFFFFFFFFFFFF AND PUSH20 0xFFFFFFFFFFFFFFFFFFFFFFFFFFFFFFFFFFFFFFFF AND DUP2 MSTORE PUSH1 0x20 ADD SWAP1 DUP2 MSTORE PUSH1 0x20 ADD PUSH1 0x0 KECCAK256 PUSH1 0x2 ADD PUSH1 0x0 SWAP1 SLOAD SWAP1 PUSH2 0x100 EXP SWAP1 DIV PUSH20 0xFFFFFFFFFFFFFFFFFFFFFFFFFFFFFFFFFFFFFFFF AND PUSH20 0xFFFFFFFFFFFFFFFFFFFFFFFFFFFFFFFFFFFFFFFF AND EQ PUSH2 0x299A JUMPI PUSH1 0xC PUSH1 0x0 DUP6 PUSH20 0xFFFFFFFFFFFFFFFFFFFFFFFFFFFFFFFFFFFFFFFF AND PUSH20 0xFFFFFFFFFFFFFFFFFFFFFFFFFFFFFFFFFFFFFFFF AND DUP2 MSTORE PUSH1 0x20 ADD SWAP1 DUP2 MSTORE PUSH1 0x20 ADD PUSH1 0x0 KECCAK256 PUSH1 0x2 ADD PUSH1 0x0 SWAP1 SLOAD SWAP1 PUSH2 0x100 EXP SWAP1 DIV PUSH20 0xFFFFFFFFFFFFFFFFFFFFFFFFFFFFFFFFFFFFFFFF AND SWAP4 POP PUSH1 0x0 PUSH1 0x64 DUP7 PUSH4 0x5F5E100 DUP7 DUP7 DUP2 MLOAD DUP2 LT PUSH2 0x27CA JUMPI PUSH2 0x27C9 PUSH2 0x37B8 JUMP JUMPDEST JUMPDEST PUSH1 0x20 MUL PUSH1 0x20 ADD ADD MLOAD PUSH2 0x27DC SWAP2 SWAP1 PUSH2 0x363B JUMP JUMPDEST PUSH2 0x27E6 SWAP2 SWAP1 PUSH2 0x363B JUMP JUMPDEST PUSH2 0x27F0 SWAP2 SWAP1 PUSH2 0x360A JUMP JUMPDEST SWAP1 POP PUSH1 0x4 DUP4 EQ ISZERO PUSH2 0x280B JUMPI PUSH1 0x2 DUP2 PUSH2 0x2808 SWAP2 SWAP1 PUSH2 0x360A JUMP JUMPDEST SWAP1 POP JUMPDEST PUSH1 0x1 PUSH1 0x0 SWAP1 SLOAD SWAP1 PUSH2 0x100 EXP SWAP1 DIV PUSH20 0xFFFFFFFFFFFFFFFFFFFFFFFFFFFFFFFFFFFFFFFF AND PUSH20 0xFFFFFFFFFFFFFFFFFFFFFFFFFFFFFFFFFFFFFFFF AND PUSH4 0xA9059CBB DUP7 DUP4 PUSH1 0x40 MLOAD DUP4 PUSH4 0xFFFFFFFF AND PUSH1 0xE0 SHL DUP2 MSTORE PUSH1 0x4 ADD PUSH2 0x2868 SWAP3 SWAP2 SWAP1 PUSH2 0x32E9 JUMP JUMPDEST PUSH1 0x20 PUSH1 0x40 MLOAD DUP1 DUP4 SUB DUP2 PUSH1 0x0 DUP8 DUP1 EXTCODESIZE ISZERO DUP1 ISZERO PUSH2 0x2882 JUMPI PUSH1 0x0 DUP1 REVERT JUMPDEST POP GAS CALL ISZERO DUP1 ISZERO PUSH2 0x2896 JUMPI RETURNDATASIZE PUSH1 0x0 DUP1 RETURNDATACOPY RETURNDATASIZE PUSH1 0x0 REVERT JUMPDEST POP POP POP POP PUSH1 0x40 MLOAD RETURNDATASIZE PUSH1 0x1F NOT PUSH1 0x1F DUP3 ADD AND DUP3 ADD DUP1 PUSH1 0x40 MSTORE POP DUP2 ADD SWAP1 PUSH2 0x28BA SWAP2 SWAP1 PUSH2 0x2DA2 JUMP JUMPDEST POP DUP1 PUSH1 0xC PUSH1 0x0 DUP8 PUSH20 0xFFFFFFFFFFFFFFFFFFFFFFFFFFFFFFFFFFFFFFFF AND PUSH20 0xFFFFFFFFFFFFFFFFFFFFFFFFFFFFFFFFFFFFFFFF AND DUP2 MSTORE PUSH1 0x20 ADD SWAP1 DUP2 MSTORE PUSH1 0x20 ADD PUSH1 0x0 KECCAK256 PUSH1 0x3 ADD PUSH1 0x0 DUP5 DUP2 MSTORE PUSH1 0x20 ADD SWAP1 DUP2 MSTORE PUSH1 0x20 ADD PUSH1 0x0 KECCAK256 PUSH1 0x0 ADD PUSH1 0x0 DUP3 DUP3 SLOAD PUSH2 0x2921 SWAP2 SWAP1 PUSH2 0x35B4 JUMP JUMPDEST SWAP3 POP POP DUP2 SWAP1 SSTORE POP PUSH1 0xC PUSH1 0x0 DUP7 PUSH20 0xFFFFFFFFFFFFFFFFFFFFFFFFFFFFFFFFFFFFFFFF AND PUSH20 0xFFFFFFFFFFFFFFFFFFFFFFFFFFFFFFFFFFFFFFFF AND DUP2 MSTORE PUSH1 0x20 ADD SWAP1 DUP2 MSTORE PUSH1 0x20 ADD PUSH1 0x0 KECCAK256 PUSH1 0x3 ADD PUSH1 0x0 DUP4 DUP2 MSTORE PUSH1 0x20 ADD SWAP1 DUP2 MSTORE PUSH1 0x20 ADD PUSH1 0x0 KECCAK256 PUSH1 0x1 ADD PUSH1 0x0 DUP2 SLOAD DUP1 SWAP3 SWAP2 SWAP1 PUSH2 0x298F SWAP1 PUSH2 0x3711 JUMP JUMPDEST SWAP2 SWAP1 POP SSTORE POP POP PUSH2 0x299F JUMP JUMPDEST PUSH2 0x29B2 JUMP JUMPDEST DUP1 DUP1 PUSH2 0x29AA SWAP1 PUSH2 0x3711 JUMP JUMPDEST SWAP2 POP POP PUSH2 0x264F JUMP JUMPDEST POP POP POP POP POP POP JUMP JUMPDEST PUSH1 0x0 DUP1 PUSH1 0x0 DUP1 PUSH1 0x0 PUSH1 0xC PUSH1 0x0 DUP8 PUSH20 0xFFFFFFFFFFFFFFFFFFFFFFFFFFFFFFFFFFFFFFFF AND PUSH20 0xFFFFFFFFFFFFFFFFFFFFFFFFFFFFFFFFFFFFFFFF AND DUP2 MSTORE PUSH1 0x20 ADD SWAP1 DUP2 MSTORE PUSH1 0x20 ADD PUSH1 0x0 KECCAK256 PUSH1 0x5 ADD SLOAD SWAP1 POP PUSH1 0x0 JUMPDEST DUP2 DUP2 LT ISZERO PUSH2 0x2C55 JUMPI PUSH1 0xC PUSH1 0x0 DUP9 PUSH20 0xFFFFFFFFFFFFFFFFFFFFFFFFFFFFFFFFFFFFFFFF AND PUSH20 0xFFFFFFFFFFFFFFFFFFFFFFFFFFFFFFFFFFFFFFFF AND DUP2 MSTORE PUSH1 0x20 ADD SWAP1 DUP2 MSTORE PUSH1 0x20 ADD PUSH1 0x0 KECCAK256 PUSH1 0x0 ADD PUSH1 0x0 DUP3 DUP2 MSTORE PUSH1 0x20 ADD SWAP1 DUP2 MSTORE PUSH1 0x20 ADD PUSH1 0x0 KECCAK256 PUSH1 0x5 ADD PUSH1 0x0 SWAP1 SLOAD SWAP1 PUSH2 0x100 EXP SWAP1 DIV PUSH1 0xFF AND PUSH2 0x2AE3 JUMPI PUSH1 0xC PUSH1 0x0 DUP9 PUSH20 0xFFFFFFFFFFFFFFFFFFFFFFFFFFFFFFFFFFFFFFFF AND PUSH20 0xFFFFFFFFFFFFFFFFFFFFFFFFFFFFFFFFFFFFFFFF AND DUP2 MSTORE PUSH1 0x20 ADD SWAP1 DUP2 MSTORE PUSH1 0x20 ADD PUSH1 0x0 KECCAK256 PUSH1 0x0 ADD PUSH1 0x0 DUP3 DUP2 MSTORE PUSH1 0x20 ADD SWAP1 DUP2 MSTORE PUSH1 0x20 ADD PUSH1 0x0 KECCAK256 PUSH1 0x2 ADD SLOAD TIMESTAMP PUSH2 0x2ADC SWAP2 SWAP1 PUSH2 0x3695 JUMP JUMPDEST SWAP4 POP PUSH2 0x2B9E JUMP JUMPDEST PUSH1 0xC PUSH1 0x0 DUP9 PUSH20 0xFFFFFFFFFFFFFFFFFFFFFFFFFFFFFFFFFFFFFFFF AND PUSH20 0xFFFFFFFFFFFFFFFFFFFFFFFFFFFFFFFFFFFFFFFF AND DUP2 MSTORE PUSH1 0x20 ADD SWAP1 DUP2 MSTORE PUSH1 0x20 ADD PUSH1 0x0 KECCAK256 PUSH1 0x0 ADD PUSH1 0x0 DUP3 DUP2 MSTORE PUSH1 0x20 ADD SWAP1 DUP2 MSTORE PUSH1 0x20 ADD PUSH1 0x0 KECCAK256 PUSH1 0x2 ADD SLOAD PUSH1 0xC PUSH1 0x0 DUP10 PUSH20 0xFFFFFFFFFFFFFFFFFFFFFFFFFFFFFFFFFFFFFFFF AND PUSH20 0xFFFFFFFFFFFFFFFFFFFFFFFFFFFFFFFFFFFFFFFF AND DUP2 MSTORE PUSH1 0x20 ADD SWAP1 DUP2 MSTORE PUSH1 0x20 ADD PUSH1 0x0 KECCAK256 PUSH1 0x0 ADD PUSH1 0x0 DUP4 DUP2 MSTORE PUSH1 0x20 ADD SWAP1 DUP2 MSTORE PUSH1 0x20 ADD PUSH1 0x0 KECCAK256 PUSH1 0x4 ADD SLOAD PUSH2 0x2B9B SWAP2 SWAP1 PUSH2 0x3695 JUMP JUMPDEST SWAP4 POP JUMPDEST PUSH1 0x3C DUP5 PUSH2 0x2BAB SWAP2 SWAP1 PUSH2 0x360A JUMP JUMPDEST SWAP4 POP PUSH1 0x0 DUP5 GT ISZERO PUSH2 0x2C42 JUMPI PUSH2 0x2710 PUSH1 0x32 PUSH1 0xC PUSH1 0x0 DUP11 PUSH20 0xFFFFFFFFFFFFFFFFFFFFFFFFFFFFFFFFFFFFFFFF AND PUSH20 0xFFFFFFFFFFFFFFFFFFFFFFFFFFFFFFFFFFFFFFFF AND DUP2 MSTORE PUSH1 0x20 ADD SWAP1 DUP2 MSTORE PUSH1 0x20 ADD PUSH1 0x0 KECCAK256 PUSH1 0x0 ADD PUSH1 0x0 DUP5 DUP2 MSTORE PUSH1 0x20 ADD SWAP1 DUP2 MSTORE PUSH1 0x20 ADD PUSH1 0x0 KECCAK256 PUSH1 0x0 ADD SLOAD PUSH2 0x2C1C SWAP2 SWAP1 PUSH2 0x363B JUMP JUMPDEST PUSH2 0x2C26 SWAP2 SWAP1 PUSH2 0x360A JUMP JUMPDEST SWAP3 POP DUP3 DUP5 PUSH2 0x2C34 SWAP2 SWAP1 PUSH2 0x363B JUMP JUMPDEST DUP6 PUSH2 0x2C3F SWAP2 SWAP1 PUSH2 0x35B4 JUMP JUMPDEST SWAP5 POP JUMPDEST DUP1 DUP1 PUSH2 0x2C4D SWAP1 PUSH2 0x3711 JUMP JUMPDEST SWAP2 POP POP PUSH2 0x2A0A JUMP JUMPDEST POP PUSH1 0xC PUSH1 0x0 DUP8 PUSH20 0xFFFFFFFFFFFFFFFFFFFFFFFFFFFFFFFFFFFFFFFF AND PUSH20 0xFFFFFFFFFFFFFFFFFFFFFFFFFFFFFFFFFFFFFFFF AND DUP2 MSTORE PUSH1 0x20 ADD SWAP1 DUP2 MSTORE PUSH1 0x20 ADD PUSH1 0x0 KECCAK256 PUSH1 0x7 ADD SLOAD DUP5 PUSH2 0x2CA4 SWAP2 SWAP1 PUSH2 0x3695 JUMP JUMPDEST SWAP4 POP DUP4 SWAP5 POP POP POP POP POP SWAP2 SWAP1 POP JUMP JUMPDEST PUSH1 0x40 MLOAD DUP1 PUSH1 0xC0 ADD PUSH1 0x40 MSTORE DUP1 PUSH1 0x0 DUP2 MSTORE PUSH1 0x20 ADD PUSH1 0x0 DUP2 MSTORE PUSH1 0x20 ADD PUSH1 0x0 DUP2 MSTORE PUSH1 0x20 ADD PUSH1 0x0 DUP2 MSTORE PUSH1 0x20 ADD PUSH1 0x0 DUP2 MSTORE PUSH1 0x20 ADD PUSH1 0x0 ISZERO ISZERO DUP2 MSTORE POP SWAP1 JUMP JUMPDEST PUSH1 0x40 MLOAD DUP1 PUSH1 0xC0 ADD PUSH1 0x40 MSTORE DUP1 PUSH1 0x0 PUSH20 0xFFFFFFFFFFFFFFFFFFFFFFFFFFFFFFFFFFFFFFFF AND DUP2 MSTORE PUSH1 0x20 ADD PUSH1 0x0 DUP2 MSTORE PUSH1 0x20 ADD PUSH1 0x0 DUP2 MSTORE PUSH1 0x20 ADD PUSH1 0x0 DUP2 MSTORE PUSH1 0x20 ADD PUSH1 0x0 DUP2 MSTORE PUSH1 0x20 ADD PUSH1 0x0 DUP2 MSTORE POP SWAP1 JUMP JUMPDEST PUSH1 0x0 DUP2 CALLDATALOAD SWAP1 POP PUSH2 0x2D45 DUP2 PUSH2 0x3957 JUMP JUMPDEST SWAP3 SWAP2 POP POP JUMP JUMPDEST PUSH1 0x0 DUP2 MLOAD SWAP1 POP PUSH2 0x2D5A DUP2 PUSH2 0x396E JUMP JUMPDEST SWAP3 SWAP2 POP POP JUMP JUMPDEST PUSH1 0x0 DUP2 CALLDATALOAD SWAP1 POP PUSH2 0x2D6F DUP2 PUSH2 0x3985 JUMP JUMPDEST SWAP3 SWAP2 POP POP JUMP JUMPDEST PUSH1 0x0 PUSH1 0x20 DUP3 DUP5 SUB SLT ISZERO PUSH2 0x2D8B JUMPI PUSH2 0x2D8A PUSH2 0x3816 JUMP JUMPDEST JUMPDEST PUSH1 0x0 PUSH2 0x2D99 DUP5 DUP3 DUP6 ADD PUSH2 0x2D36 JUMP JUMPDEST SWAP2 POP POP SWAP3 SWAP2 POP POP JUMP JUMPDEST PUSH1 0x0 PUSH1 0x20 DUP3 DUP5 SUB SLT ISZERO PUSH2 0x2DB8 JUMPI PUSH2 0x2DB7 PUSH2 0x3816 JUMP JUMPDEST JUMPDEST PUSH1 0x0 PUSH2 0x2DC6 DUP5 DUP3 DUP6 ADD PUSH2 0x2D4B JUMP JUMPDEST SWAP2 POP POP SWAP3 SWAP2 POP POP JUMP JUMPDEST PUSH1 0x0 PUSH1 0x20 DUP3 DUP5 SUB SLT ISZERO PUSH2 0x2DE5 JUMPI PUSH2 0x2DE4 PUSH2 0x3816 JUMP JUMPDEST JUMPDEST PUSH1 0x0 PUSH2 0x2DF3 DUP5 DUP3 DUP6 ADD PUSH2 0x2D60 JUMP JUMPDEST SWAP2 POP POP SWAP3 SWAP2 POP POP JUMP JUMPDEST PUSH1 0x0 DUP1 PUSH1 0x40 DUP4 DUP6 SUB SLT ISZERO PUSH2 0x2E13 JUMPI PUSH2 0x2E12 PUSH2 0x3816 JUMP JUMPDEST JUMPDEST PUSH1 0x0 PUSH2 0x2E21 DUP6 DUP3 DUP7 ADD PUSH2 0x2D60 JUMP JUMPDEST SWAP3 POP POP PUSH1 0x20 PUSH2 0x2E32 DUP6 DUP3 DUP7 ADD PUSH2 0x2D36 JUMP JUMPDEST SWAP2 POP POP SWAP3 POP SWAP3 SWAP1 POP JUMP JUMPDEST PUSH1 0x0 DUP1 PUSH1 0x40 DUP4 DUP6 SUB SLT ISZERO PUSH2 0x2E53 JUMPI PUSH2 0x2E52 PUSH2 0x3816 JUMP JUMPDEST JUMPDEST PUSH1 0x0 PUSH2 0x2E61 DUP6 DUP3 DUP7 ADD PUSH2 0x2D60 JUMP JUMPDEST SWAP3 POP POP PUSH1 0x20 PUSH2 0x2E72 DUP6 DUP3 DUP7 ADD PUSH2 0x2D60 JUMP JUMPDEST SWAP2 POP POP SWAP3 POP SWAP3 SWAP1 POP JUMP JUMPDEST PUSH1 0x0 DUP1 PUSH1 0x0 DUP1 PUSH1 0x80 DUP6 DUP8 SUB SLT ISZERO PUSH2 0x2E96 JUMPI PUSH2 0x2E95 PUSH2 0x3816 JUMP JUMPDEST JUMPDEST PUSH1 0x0 PUSH2 0x2EA4 DUP8 DUP3 DUP9 ADD PUSH2 0x2D60 JUMP JUMPDEST SWAP5 POP POP PUSH1 0x20 PUSH2 0x2EB5 DUP8 DUP3 DUP9 ADD PUSH2 0x2D60 JUMP JUMPDEST SWAP4 POP POP PUSH1 0x40 PUSH2 0x2EC6 DUP8 DUP3 DUP9 ADD PUSH2 0x2D60 JUMP JUMPDEST SWAP3 POP POP PUSH1 0x60 PUSH2 0x2ED7 DUP8 DUP3 DUP9 ADD PUSH2 0x2D60 JUMP JUMPDEST SWAP2 POP POP SWAP3 SWAP6 SWAP2 SWAP5 POP SWAP3 POP JUMP JUMPDEST PUSH1 0x0 PUSH2 0x2EEF DUP4 DUP4 PUSH2 0x2F43 JUMP JUMPDEST PUSH1 0x20 DUP4 ADD SWAP1 POP SWAP3 SWAP2 POP POP JUMP JUMPDEST PUSH1 0x0 PUSH2 0x2F07 DUP4 DUP4 PUSH2 0x3183 JUMP JUMPDEST PUSH1 0xC0 DUP4 ADD SWAP1 POP SWAP3 SWAP2 POP POP JUMP JUMPDEST PUSH1 0x0 PUSH2 0x2F1F DUP4 DUP4 PUSH2 0x31FE JUMP JUMPDEST PUSH1 0xC0 DUP4 ADD SWAP1 POP SWAP3 SWAP2 POP POP JUMP JUMPDEST PUSH1 0x0 PUSH2 0x2F37 DUP4 DUP4 PUSH2 0x3279 JUMP JUMPDEST PUSH1 0x20 DUP4 ADD SWAP1 POP SWAP3 SWAP2 POP POP JUMP JUMPDEST PUSH2 0x2F4C DUP2 PUSH2 0x36C9 JUMP JUMPDEST DUP3 MSTORE POP POP JUMP JUMPDEST PUSH2 0x2F5B DUP2 PUSH2 0x36C9 JUMP JUMPDEST DUP3 MSTORE POP POP JUMP JUMPDEST PUSH1 0x0 PUSH2 0x2F6C DUP3 PUSH2 0x34FF JUMP JUMPDEST PUSH2 0x2F76 DUP2 DUP6 PUSH2 0x355F JUMP JUMPDEST SWAP4 POP PUSH2 0x2F81 DUP4 PUSH2 0x34BF JUMP JUMPDEST DUP1 PUSH1 0x0 JUMPDEST DUP4 DUP2 LT ISZERO PUSH2 0x2FB2 JUMPI DUP2 MLOAD PUSH2 0x2F99 DUP9 DUP3 PUSH2 0x2EE3 JUMP JUMPDEST SWAP8 POP PUSH2 0x2FA4 DUP4 PUSH2 0x352B JUMP JUMPDEST SWAP3 POP POP PUSH1 0x1 DUP2 ADD SWAP1 POP PUSH2 0x2F85 JUMP JUMPDEST POP DUP6 SWAP4 POP POP POP POP SWAP3 SWAP2 POP POP JUMP JUMPDEST PUSH1 0x0 PUSH2 0x2FCA DUP3 PUSH2 0x350A JUMP JUMPDEST PUSH2 0x2FD4 DUP2 DUP6 PUSH2 0x3570 JUMP JUMPDEST SWAP4 POP PUSH2 0x2FDF DUP4 PUSH2 0x34CF JUMP JUMPDEST DUP1 PUSH1 0x0 JUMPDEST DUP4 DUP2 LT ISZERO PUSH2 0x3010 JUMPI DUP2 MLOAD PUSH2 0x2FF7 DUP9 DUP3 PUSH2 0x2EFB JUMP JUMPDEST SWAP8 POP PUSH2 0x3002 DUP4 PUSH2 0x3538 JUMP JUMPDEST SWAP3 POP POP PUSH1 0x1 DUP2 ADD SWAP1 POP PUSH2 0x2FE3 JUMP JUMPDEST POP DUP6 SWAP4 POP POP POP POP SWAP3 SWAP2 POP POP JUMP JUMPDEST PUSH1 0x0 PUSH2 0x3028 DUP3 PUSH2 0x3515 JUMP JUMPDEST PUSH2 0x3032 DUP2 DUP6 PUSH2 0x3581 JUMP JUMPDEST SWAP4 POP PUSH2 0x303D DUP4 PUSH2 0x34DF JUMP JUMPDEST DUP1 PUSH1 0x0 JUMPDEST DUP4 DUP2 LT ISZERO PUSH2 0x306E JUMPI DUP2 MLOAD PUSH2 0x3055 DUP9 DUP3 PUSH2 0x2F13 JUMP JUMPDEST SWAP8 POP PUSH2 0x3060 DUP4 PUSH2 0x3545 JUMP JUMPDEST SWAP3 POP POP PUSH1 0x1 DUP2 ADD SWAP1 POP PUSH2 0x3041 JUMP JUMPDEST POP DUP6 SWAP4 POP POP POP POP SWAP3 SWAP2 POP POP JUMP JUMPDEST PUSH1 0x0 PUSH2 0x3086 DUP3 PUSH2 0x3520 JUMP JUMPDEST PUSH2 0x3090 DUP2 DUP6 PUSH2 0x3592 JUMP JUMPDEST SWAP4 POP PUSH2 0x309B DUP4 PUSH2 0x34EF JUMP JUMPDEST DUP1 PUSH1 0x0 JUMPDEST DUP4 DUP2 LT ISZERO PUSH2 0x30CC JUMPI DUP2 MLOAD PUSH2 0x30B3 DUP9 DUP3 PUSH2 0x2F2B JUMP JUMPDEST SWAP8 POP PUSH2 0x30BE DUP4 PUSH2 0x3552 JUMP JUMPDEST SWAP3 POP POP PUSH1 0x1 DUP2 ADD SWAP1 POP PUSH2 0x309F JUMP JUMPDEST POP DUP6 SWAP4 POP POP POP POP SWAP3 SWAP2 POP POP JUMP JUMPDEST PUSH2 0x30E2 DUP2 PUSH2 0x36DB JUMP JUMPDEST DUP3 MSTORE POP POP JUMP JUMPDEST PUSH2 0x30F1 DUP2 PUSH2 0x36DB JUMP JUMPDEST DUP3 MSTORE POP POP JUMP JUMPDEST PUSH1 0x0 PUSH2 0x3104 PUSH1 0x25 DUP4 PUSH2 0x35A3 JUMP JUMPDEST SWAP2 POP PUSH2 0x310F DUP3 PUSH2 0x381B JUMP JUMPDEST PUSH1 0x40 DUP3 ADD SWAP1 POP SWAP2 SWAP1 POP JUMP JUMPDEST PUSH1 0x0 PUSH2 0x3127 PUSH1 0x35 DUP4 PUSH2 0x35A3 JUMP JUMPDEST SWAP2 POP PUSH2 0x3132 DUP3 PUSH2 0x386A JUMP JUMPDEST PUSH1 0x40 DUP3 ADD SWAP1 POP SWAP2 SWAP1 POP JUMP JUMPDEST PUSH1 0x0 PUSH2 0x314A PUSH1 0x22 DUP4 PUSH2 0x35A3 JUMP JUMPDEST SWAP2 POP PUSH2 0x3155 DUP3 PUSH2 0x38B9 JUMP JUMPDEST PUSH1 0x40 DUP3 ADD SWAP1 POP SWAP2 SWAP1 POP JUMP JUMPDEST PUSH1 0x0 PUSH2 0x316D PUSH1 0x21 DUP4 PUSH2 0x35A3 JUMP JUMPDEST SWAP2 POP PUSH2 0x3178 DUP3 PUSH2 0x3908 JUMP JUMPDEST PUSH1 0x40 DUP3 ADD SWAP1 POP SWAP2 SWAP1 POP JUMP JUMPDEST PUSH1 0xC0 DUP3 ADD PUSH1 0x0 DUP3 ADD MLOAD PUSH2 0x3199 PUSH1 0x0 DUP6 ADD DUP3 PUSH2 0x2F43 JUMP JUMPDEST POP PUSH1 0x20 DUP3 ADD MLOAD PUSH2 0x31AC PUSH1 0x20 DUP6 ADD DUP3 PUSH2 0x3279 JUMP JUMPDEST POP PUSH1 0x40 DUP3 ADD MLOAD PUSH2 0x31BF PUSH1 0x40 DUP6 ADD DUP3 PUSH2 0x3279 JUMP JUMPDEST POP PUSH1 0x60 DUP3 ADD MLOAD PUSH2 0x31D2 PUSH1 0x60 DUP6 ADD DUP3 PUSH2 0x3279 JUMP JUMPDEST POP PUSH1 0x80 DUP3 ADD MLOAD PUSH2 0x31E5 PUSH1 0x80 DUP6 ADD DUP3 PUSH2 0x3279 JUMP JUMPDEST POP PUSH1 0xA0 DUP3 ADD MLOAD PUSH2 0x31F8 PUSH1 0xA0 DUP6 ADD DUP3 PUSH2 0x3279 JUMP JUMPDEST POP POP POP POP JUMP JUMPDEST PUSH1 0xC0 DUP3 ADD PUSH1 0x0 DUP3 ADD MLOAD PUSH2 0x3214 PUSH1 0x0 DUP6 ADD DUP3 PUSH2 0x3279 JUMP JUMPDEST POP PUSH1 0x20 DUP3 ADD MLOAD PUSH2 0x3227 PUSH1 0x20 DUP6 ADD DUP3 PUSH2 0x3279 JUMP JUMPDEST POP PUSH1 0x40 DUP3 ADD MLOAD PUSH2 0x323A PUSH1 0x40 DUP6 ADD DUP3 PUSH2 0x3279 JUMP JUMPDEST POP PUSH1 0x60 DUP3 ADD MLOAD PUSH2 0x324D PUSH1 0x60 DUP6 ADD DUP3 PUSH2 0x3279 JUMP JUMPDEST POP PUSH1 0x80 DUP3 ADD MLOAD PUSH2 0x3260 PUSH1 0x80 DUP6 ADD DUP3 PUSH2 0x3279 JUMP JUMPDEST POP PUSH1 0xA0 DUP3 ADD MLOAD PUSH2 0x3273 PUSH1 0xA0 DUP6 ADD DUP3 PUSH2 0x30D9 JUMP JUMPDEST POP POP POP POP JUMP JUMPDEST PUSH2 0x3282 DUP2 PUSH2 0x3707 JUMP JUMPDEST DUP3 MSTORE POP POP JUMP JUMPDEST PUSH2 0x3291 DUP2 PUSH2 0x3707 JUMP JUMPDEST DUP3 MSTORE POP POP JUMP JUMPDEST PUSH1 0x0 PUSH1 0x20 DUP3 ADD SWAP1 POP PUSH2 0x32AC PUSH1 0x0 DUP4 ADD DUP5 PUSH2 0x2F52 JUMP JUMPDEST SWAP3 SWAP2 POP POP JUMP JUMPDEST PUSH1 0x0 PUSH1 0x60 DUP3 ADD SWAP1 POP PUSH2 0x32C7 PUSH1 0x0 DUP4 ADD DUP7 PUSH2 0x2F52 JUMP JUMPDEST PUSH2 0x32D4 PUSH1 0x20 DUP4 ADD DUP6 PUSH2 0x2F52 JUMP JUMPDEST PUSH2 0x32E1 PUSH1 0x40 DUP4 ADD DUP5 PUSH2 0x3288 JUMP JUMPDEST SWAP5 SWAP4 POP POP POP POP JUMP JUMPDEST PUSH1 0x0 PUSH1 0x40 DUP3 ADD SWAP1 POP PUSH2 0x32FE PUSH1 0x0 DUP4 ADD DUP6 PUSH2 0x2F52 JUMP JUMPDEST PUSH2 0x330B PUSH1 0x20 DUP4 ADD DUP5 PUSH2 0x3288 JUMP JUMPDEST SWAP4 SWAP3 POP POP POP JUMP JUMPDEST PUSH1 0x0 PUSH1 0xE0 DUP3 ADD SWAP1 POP PUSH2 0x3327 PUSH1 0x0 DUP4 ADD DUP11 PUSH2 0x2F52 JUMP JUMPDEST PUSH2 0x3334 PUSH1 0x20 DUP4 ADD DUP10 PUSH2 0x3288 JUMP JUMPDEST PUSH2 0x3341 PUSH1 0x40 DUP4 ADD DUP9 PUSH2 0x3288 JUMP JUMPDEST PUSH2 0x334E PUSH1 0x60 DUP4 ADD DUP8 PUSH2 0x3288 JUMP JUMPDEST PUSH2 0x335B PUSH1 0x80 DUP4 ADD DUP7 PUSH2 0x3288 JUMP JUMPDEST PUSH2 0x3368 PUSH1 0xA0 DUP4 ADD DUP6 PUSH2 0x30E8 JUMP JUMPDEST PUSH2 0x3375 PUSH1 0xC0 DUP4 ADD DUP5 PUSH2 0x3288 JUMP JUMPDEST SWAP9 SWAP8 POP POP POP POP POP POP POP POP JUMP JUMPDEST PUSH1 0x0 PUSH1 0x20 DUP3 ADD SWAP1 POP DUP2 DUP2 SUB PUSH1 0x0 DUP4 ADD MSTORE PUSH2 0x339B DUP2 DUP5 PUSH2 0x2F61 JUMP JUMPDEST SWAP1 POP SWAP3 SWAP2 POP POP JUMP JUMPDEST PUSH1 0x0 PUSH1 0x20 DUP3 ADD SWAP1 POP DUP2 DUP2 SUB PUSH1 0x0 DUP4 ADD MSTORE PUSH2 0x33BD DUP2 DUP5 PUSH2 0x2FBF JUMP JUMPDEST SWAP1 POP SWAP3 SWAP2 POP POP JUMP JUMPDEST PUSH1 0x0 PUSH1 0x20 DUP3 ADD SWAP1 POP DUP2 DUP2 SUB PUSH1 0x0 DUP4 ADD MSTORE PUSH2 0x33DF DUP2 DUP5 PUSH2 0x301D JUMP JUMPDEST SWAP1 POP SWAP3 SWAP2 POP POP JUMP JUMPDEST PUSH1 0x0 PUSH1 0x20 DUP3 ADD SWAP1 POP DUP2 DUP2 SUB PUSH1 0x0 DUP4 ADD MSTORE PUSH2 0x3401 DUP2 DUP5 PUSH2 0x307B JUMP JUMPDEST SWAP1 POP SWAP3 SWAP2 POP POP JUMP JUMPDEST PUSH1 0x0 PUSH1 0x20 DUP3 ADD SWAP1 POP PUSH2 0x341E PUSH1 0x0 DUP4 ADD DUP5 PUSH2 0x30E8 JUMP JUMPDEST SWAP3 SWAP2 POP POP JUMP JUMPDEST PUSH1 0x0 PUSH1 0x20 DUP3 ADD SWAP1 POP DUP2 DUP2 SUB PUSH1 0x0 DUP4 ADD MSTORE PUSH2 0x343D DUP2 PUSH2 0x30F7 JUMP JUMPDEST SWAP1 POP SWAP2 SWAP1 POP JUMP JUMPDEST PUSH1 0x0 PUSH1 0x20 DUP3 ADD SWAP1 POP DUP2 DUP2 SUB PUSH1 0x0 DUP4 ADD MSTORE PUSH2 0x345D DUP2 PUSH2 0x311A JUMP JUMPDEST SWAP1 POP SWAP2 SWAP1 POP JUMP JUMPDEST PUSH1 0x0 PUSH1 0x20 DUP3 ADD SWAP1 POP DUP2 DUP2 SUB PUSH1 0x0 DUP4 ADD MSTORE PUSH2 0x347D DUP2 PUSH2 0x313D JUMP JUMPDEST SWAP1 POP SWAP2 SWAP1 POP JUMP JUMPDEST PUSH1 0x0 PUSH1 0x20 DUP3 ADD SWAP1 POP DUP2 DUP2 SUB PUSH1 0x0 DUP4 ADD MSTORE PUSH2 0x349D DUP2 PUSH2 0x3160 JUMP JUMPDEST SWAP1 POP SWAP2 SWAP1 POP JUMP JUMPDEST PUSH1 0x0 PUSH1 0x20 DUP3 ADD SWAP1 POP PUSH2 0x34B9 PUSH1 0x0 DUP4 ADD DUP5 PUSH2 0x3288 JUMP JUMPDEST SWAP3 SWAP2 POP POP JUMP JUMPDEST PUSH1 0x0 DUP2 SWAP1 POP PUSH1 0x20 DUP3 ADD SWAP1 POP SWAP2 SWAP1 POP JUMP JUMPDEST PUSH1 0x0 DUP2 SWAP1 POP PUSH1 0x20 DUP3 ADD SWAP1 POP SWAP2 SWAP1 POP JUMP JUMPDEST PUSH1 0x0 DUP2 SWAP1 POP PUSH1 0x20 DUP3 ADD SWAP1 POP SWAP2 SWAP1 POP JUMP JUMPDEST PUSH1 0x0 DUP2 SWAP1 POP PUSH1 0x20 DUP3 ADD SWAP1 POP SWAP2 SWAP1 POP JUMP JUMPDEST PUSH1 0x0 DUP2 MLOAD SWAP1 POP SWAP2 SWAP1 POP JUMP JUMPDEST PUSH1 0x0 DUP2 MLOAD SWAP1 POP SWAP2 SWAP1 POP JUMP JUMPDEST PUSH1 0x0 DUP2 MLOAD SWAP1 POP SWAP2 SWAP1 POP JUMP JUMPDEST PUSH1 0x0 DUP2 MLOAD SWAP1 POP SWAP2 SWAP1 POP JUMP JUMPDEST PUSH1 0x0 PUSH1 0x20 DUP3 ADD SWAP1 POP SWAP2 SWAP1 POP JUMP JUMPDEST PUSH1 0x0 PUSH1 0x20 DUP3 ADD SWAP1 POP SWAP2 SWAP1 POP JUMP JUMPDEST PUSH1 0x0 PUSH1 0x20 DUP3 ADD SWAP1 POP SWAP2 SWAP1 POP JUMP JUMPDEST PUSH1 0x0 PUSH1 0x20 DUP3 ADD SWAP1 POP SWAP2 SWAP1 POP JUMP JUMPDEST PUSH1 0x0 DUP3 DUP3 MSTORE PUSH1 0x20 DUP3 ADD SWAP1 POP SWAP3 SWAP2 POP POP JUMP JUMPDEST PUSH1 0x0 DUP3 DUP3 MSTORE PUSH1 0x20 DUP3 ADD SWAP1 POP SWAP3 SWAP2 POP POP JUMP JUMPDEST PUSH1 0x0 DUP3 DUP3 MSTORE PUSH1 0x20 DUP3 ADD SWAP1 POP SWAP3 SWAP2 POP POP JUMP JUMPDEST PUSH1 0x0 DUP3 DUP3 MSTORE PUSH1 0x20 DUP3 ADD SWAP1 POP SWAP3 SWAP2 POP POP JUMP JUMPDEST PUSH1 0x0 DUP3 DUP3 MSTORE PUSH1 0x20 DUP3 ADD SWAP1 POP SWAP3 SWAP2 POP POP JUMP JUMPDEST PUSH1 0x0 PUSH2 0x35BF DUP3 PUSH2 0x3707 JUMP JUMPDEST SWAP2 POP PUSH2 0x35CA DUP4 PUSH2 0x3707 JUMP JUMPDEST SWAP3 POP DUP3 PUSH32 0xFFFFFFFFFFFFFFFFFFFFFFFFFFFFFFFFFFFFFFFFFFFFFFFFFFFFFFFFFFFFFFFF SUB DUP3 GT ISZERO PUSH2 0x35FF JUMPI PUSH2 0x35FE PUSH2 0x375A JUMP JUMPDEST JUMPDEST DUP3 DUP3 ADD SWAP1 POP SWAP3 SWAP2 POP POP JUMP JUMPDEST PUSH1 0x0 PUSH2 0x3615 DUP3 PUSH2 0x3707 JUMP JUMPDEST SWAP2 POP PUSH2 0x3620 DUP4 PUSH2 0x3707 JUMP JUMPDEST SWAP3 POP DUP3 PUSH2 0x3630 JUMPI PUSH2 0x362F PUSH2 0x3789 JUMP JUMPDEST JUMPDEST DUP3 DUP3 DIV SWAP1 POP SWAP3 SWAP2 POP POP JUMP JUMPDEST PUSH1 0x0 PUSH2 0x3646 DUP3 PUSH2 0x3707 JUMP JUMPDEST SWAP2 POP PUSH2 0x3651 DUP4 PUSH2 0x3707 JUMP JUMPDEST SWAP3 POP DUP2 PUSH32 0xFFFFFFFFFFFFFFFFFFFFFFFFFFFFFFFFFFFFFFFFFFFFFFFFFFFFFFFFFFFFFFFF DIV DUP4 GT DUP3 ISZERO ISZERO AND ISZERO PUSH2 0x368A JUMPI PUSH2 0x3689 PUSH2 0x375A JUMP JUMPDEST JUMPDEST DUP3 DUP3 MUL SWAP1 POP SWAP3 SWAP2 POP POP JUMP JUMPDEST PUSH1 0x0 PUSH2 0x36A0 DUP3 PUSH2 0x3707 JUMP JUMPDEST SWAP2 POP PUSH2 0x36AB DUP4 PUSH2 0x3707 JUMP JUMPDEST SWAP3 POP DUP3 DUP3 LT ISZERO PUSH2 0x36BE JUMPI PUSH2 0x36BD PUSH2 0x375A JUMP JUMPDEST JUMPDEST DUP3 DUP3 SUB SWAP1 POP SWAP3 SWAP2 POP POP JUMP JUMPDEST PUSH1 0x0 PUSH2 0x36D4 DUP3 PUSH2 0x36E7 JUMP JUMPDEST SWAP1 POP SWAP2 SWAP1 POP JUMP JUMPDEST PUSH1 0x0 DUP2 ISZERO ISZERO SWAP1 POP SWAP2 SWAP1 POP JUMP JUMPDEST PUSH1 0x0 PUSH20 0xFFFFFFFFFFFFFFFFFFFFFFFFFFFFFFFFFFFFFFFF DUP3 AND SWAP1 POP SWAP2 SWAP1 POP JUMP JUMPDEST PUSH1 0x0 DUP2 SWAP1 POP SWAP2 SWAP1 POP JUMP JUMPDEST PUSH1 0x0 PUSH2 0x371C DUP3 PUSH2 0x3707 JUMP JUMPDEST SWAP2 POP PUSH32 0xFFFFFFFFFFFFFFFFFFFFFFFFFFFFFFFFFFFFFFFFFFFFFFFFFFFFFFFFFFFFFFFF DUP3 EQ ISZERO PUSH2 0x374F JUMPI PUSH2 0x374E PUSH2 0x375A JUMP JUMPDEST JUMPDEST PUSH1 0x1 DUP3 ADD SWAP1 POP SWAP2 SWAP1 POP JUMP JUMPDEST PUSH32 0x4E487B7100000000000000000000000000000000000000000000000000000000 PUSH1 0x0 MSTORE PUSH1 0x11 PUSH1 0x4 MSTORE PUSH1 0x24 PUSH1 0x0 REVERT JUMPDEST PUSH32 0x4E487B7100000000000000000000000000000000000000000000000000000000 PUSH1 0x0 MSTORE PUSH1 0x12 PUSH1 0x4 MSTORE PUSH1 0x24 PUSH1 0x0 REVERT JUMPDEST PUSH32 0x4E487B7100000000000000000000000000000000000000000000000000000000 PUSH1 0x0 MSTORE PUSH1 0x32 PUSH1 0x4 MSTORE PUSH1 0x24 PUSH1 0x0 REVERT JUMPDEST PUSH32 0x4E487B7100000000000000000000000000000000000000000000000000000000 PUSH1 0x0 MSTORE PUSH1 0x41 PUSH1 0x4 MSTORE PUSH1 0x24 PUSH1 0x0 REVERT JUMPDEST PUSH1 0x0 DUP1 REVERT JUMPDEST PUSH32 0x796F7520646F6E74206861766520696E766573746D656E7420746F2077697468 PUSH1 0x0 DUP3 ADD MSTORE PUSH32 0x647261776E000000000000000000000000000000000000000000000000000000 PUSH1 0x20 DUP3 ADD MSTORE POP JUMP JUMPDEST PUSH32 0x76616C7565206973206E6F742067726561746572207468616E20313030303020 PUSH1 0x0 DUP3 ADD MSTORE PUSH32 0x616E64206C657373207468616E20353030303030300000000000000000000000 PUSH1 0x20 DUP3 ADD MSTORE POP JUMP JUMPDEST PUSH32 0x796F7520646F6E742068617665207265776172647320746F2077697468647261 PUSH1 0x0 DUP3 ADD MSTORE PUSH32 0x776E000000000000000000000000000000000000000000000000000000000000 PUSH1 0x20 DUP3 ADD MSTORE POP JUMP JUMPDEST PUSH32 0x6F6E6C79204F776E65722063616E2063616C6C20746869732066756E6374696F PUSH1 0x0 DUP3 ADD MSTORE PUSH32 0x6E00000000000000000000000000000000000000000000000000000000000000 PUSH1 0x20 DUP3 ADD MSTORE POP JUMP JUMPDEST PUSH2 0x3960 DUP2 PUSH2 0x36C9 JUMP JUMPDEST DUP2 EQ PUSH2 0x396B JUMPI PUSH1 0x0 DUP1 REVERT JUMPDEST POP JUMP JUMPDEST PUSH2 0x3977 DUP2 PUSH2 0x36DB JUMP JUMPDEST DUP2 EQ PUSH2 0x3982 JUMPI PUSH1 0x0 DUP1 REVERT JUMPDEST POP JUMP JUMPDEST PUSH2 0x398E DUP2 PUSH2 0x3707 JUMP JUMPDEST DUP2 EQ PUSH2 0x3999 JUMPI PUSH1 0x0 DUP1 REVERT JUMPDEST POP JUMP INVALID LOG2 PUSH5 0x6970667358 0x22 SLT KECCAK256 0x2E 0xC3 SWAP8 SWAP13 CALL 0xDB 0xCF PUSH3 0x67ABC8 DUP12 DUP4 SELFDESTRUCT LOG0 ADDRESS NUMBER POP PUSH1 0x68 BYTE SWAP11 0xF8 SELFBALANCE DUP2 0xB8 PUSH14 0xCD2E8394EC64736F6C6343000807 STOP CALLER "
				},
				"gasEstimates": {
					"creation": {
						"codeDepositCost": "2960400",
						"executionCost": "186577",
						"totalCost": "3146977"
					},
					"external": {
						"Admin_data()": "infinite",
						"All_investors(uint256)": "2906",
						"DUSDReferralsList()": "infinite",
						"DUSDTotalReferrals()": "2608",
						"DUSDinvestor(address)": "infinite",
						"Stake(uint256,address)": "infinite",
						"denomenator()": "2474",
						"getAllDUSDinvestments()": "infinite",
						"getReward()": "infinite",
						"getTotalInvestmentDUSD()": "2622",
						"investmentPeriod()": "2518",
						"max_Stake_amount()": "2539",
						"min_Stake_amount()": "2540",
						"owner()": "2579",
						"referralLevel_count()": "infinite",
						"referralLevel_earning()": "infinite",
						"rewardToken()": "2517",
						"setReward(uint256,uint256)": "infinite",
						"set_max_Stake_amount(uint256)": "22565",
						"set_min_Stake_amount(uint256)": "22632",
						"set_values(uint256,uint256,uint256,uint256)": "infinite",
						"totalDUSDInvestors()": "2475",
						"total_withdraw_reaward()": "2656",
						"totalbusiness()": "2518",
						"transferOwnership(address)": "26933",
						"unStake()": "infinite",
						"withdrawReward()": "infinite"
					},
					"internal": {
						"DUSDTotalReferrals_inside(address)": "infinite",
						"get_investor_Reward(address)": "infinite",
						"sendRewardToDUSDReferrals(address,uint256)": "infinite"
					}
				},
				"methodIdentifiers": {
					"Admin_data()": "42508f66",
					"All_investors(uint256)": "502c6bfa",
					"DUSDReferralsList()": "0c5f58f4",
					"DUSDTotalReferrals()": "1e8aba35",
					"DUSDinvestor(address)": "d3560ee8",
					"Stake(uint256,address)": "2bccdce6",
					"denomenator()": "9740a1bc",
					"getAllDUSDinvestments()": "3a1e0833",
					"getReward()": "3d18b912",
					"getTotalInvestmentDUSD()": "929f6bbe",
					"investmentPeriod()": "523cddfe",
					"max_Stake_amount()": "fae730bc",
					"min_Stake_amount()": "bc67eaff",
					"owner()": "8da5cb5b",
					"referralLevel_count()": "f790b81a",
					"referralLevel_earning()": "a61be99d",
					"rewardToken()": "f7c618c1",
					"setReward(uint256,uint256)": "a47bd496",
					"set_max_Stake_amount(uint256)": "500cb85f",
					"set_min_Stake_amount(uint256)": "32d4e783",
					"set_values(uint256,uint256,uint256,uint256)": "4eb1ecc9",
					"totalDUSDInvestors()": "10cde60a",
					"total_withdraw_reaward()": "5a4a0192",
					"totalbusiness()": "e2033fcb",
					"transferOwnership(address)": "f2fde38b",
					"unStake()": "73cf575a",
					"withdrawReward()": "c885bc58"
				}
			},
			"storageLayout": {
				"storage": [
					{
						"astId": 24,
						"contract": "contracts/stake_reward_MLM.sol:Invest",
						"label": "owner",
						"offset": 0,
						"slot": "0",
						"type": "t_address"
					},
					{
						"astId": 27,
						"contract": "contracts/stake_reward_MLM.sol:Invest",
						"label": "SMCcontract",
						"offset": 0,
						"slot": "1",
						"type": "t_address"
					},
					{
						"astId": 30,
						"contract": "contracts/stake_reward_MLM.sol:Invest",
						"label": "BUSDcontract",
						"offset": 0,
						"slot": "2",
						"type": "t_address"
					},
					{
						"astId": 32,
						"contract": "contracts/stake_reward_MLM.sol:Invest",
						"label": "totalDUSDInvestors",
						"offset": 0,
						"slot": "3",
						"type": "t_uint256"
					},
					{
						"astId": 35,
						"contract": "contracts/stake_reward_MLM.sol:Invest",
						"label": "rewardToken",
						"offset": 0,
						"slot": "4",
						"type": "t_uint256"
					},
					{
						"astId": 38,
						"contract": "contracts/stake_reward_MLM.sol:Invest",
						"label": "min_Stake_amount",
						"offset": 0,
						"slot": "5",
						"type": "t_uint256"
					},
					{
						"astId": 41,
						"contract": "contracts/stake_reward_MLM.sol:Invest",
						"label": "max_Stake_amount",
						"offset": 0,
						"slot": "6",
						"type": "t_uint256"
					},
					{
						"astId": 44,
						"contract": "contracts/stake_reward_MLM.sol:Invest",
						"label": "denomenator",
						"offset": 0,
						"slot": "7",
						"type": "t_uint256"
					},
					{
						"astId": 47,
						"contract": "contracts/stake_reward_MLM.sol:Invest",
						"label": "investmentPeriod",
						"offset": 0,
						"slot": "8",
						"type": "t_uint256"
					},
					{
						"astId": 49,
						"contract": "contracts/stake_reward_MLM.sol:Invest",
						"label": "totalbusiness",
						"offset": 0,
						"slot": "9",
						"type": "t_uint256"
					},
					{
						"astId": 51,
						"contract": "contracts/stake_reward_MLM.sol:Invest",
						"label": "rew_till_done",
						"offset": 0,
						"slot": "10",
						"type": "t_uint256"
					},
					{
						"astId": 55,
						"contract": "contracts/stake_reward_MLM.sol:Invest",
						"label": "All_investors",
						"offset": 0,
						"slot": "11",
						"type": "t_mapping(t_uint256,t_address)"
					},
					{
						"astId": 119,
						"contract": "contracts/stake_reward_MLM.sol:Invest",
						"label": "DUSDinvestor",
						"offset": 0,
						"slot": "12",
						"type": "t_mapping(t_address,t_struct(Data)114_storage)"
					}
				],
				"types": {
					"t_address": {
						"encoding": "inplace",
						"label": "address",
						"numberOfBytes": "20"
					},
					"t_array(t_address)dyn_storage": {
						"base": "t_address",
						"encoding": "dynamic_array",
						"label": "address[]",
						"numberOfBytes": "32"
					},
					"t_bool": {
						"encoding": "inplace",
						"label": "bool",
						"numberOfBytes": "1"
					},
					"t_mapping(t_address,t_struct(Data)114_storage)": {
						"encoding": "mapping",
						"key": "t_address",
						"label": "mapping(address => struct Invest.Data)",
						"numberOfBytes": "32",
						"value": "t_struct(Data)114_storage"
					},
					"t_mapping(t_uint256,t_address)": {
						"encoding": "mapping",
						"key": "t_uint256",
						"label": "mapping(uint256 => address)",
						"numberOfBytes": "32",
						"value": "t_address"
					},
					"t_mapping(t_uint256,t_struct(allInvestments)68_storage)": {
						"encoding": "mapping",
						"key": "t_uint256",
						"label": "mapping(uint256 => struct Invest.allInvestments)",
						"numberOfBytes": "32",
						"value": "t_struct(allInvestments)68_storage"
					},
					"t_mapping(t_uint256,t_struct(ref_data)73_storage)": {
						"encoding": "mapping",
						"key": "t_uint256",
						"label": "mapping(uint256 => struct Invest.ref_data)",
						"numberOfBytes": "32",
						"value": "t_struct(ref_data)73_storage"
					},
					"t_struct(Data)114_storage": {
						"encoding": "inplace",
						"label": "struct Invest.Data",
						"members": [
							{
								"astId": 91,
								"contract": "contracts/stake_reward_MLM.sol:Invest",
								"label": "investment",
								"offset": 0,
								"slot": "0",
								"type": "t_mapping(t_uint256,t_struct(allInvestments)68_storage)"
							},
							{
								"astId": 94,
								"contract": "contracts/stake_reward_MLM.sol:Invest",
								"label": "hisReferrals",
								"offset": 0,
								"slot": "1",
								"type": "t_array(t_address)dyn_storage"
							},
							{
								"astId": 96,
								"contract": "contracts/stake_reward_MLM.sol:Invest",
								"label": "referralFrom",
								"offset": 0,
								"slot": "2",
								"type": "t_address"
							},
							{
								"astId": 101,
								"contract": "contracts/stake_reward_MLM.sol:Invest",
								"label": "referralLevel",
								"offset": 0,
								"slot": "3",
								"type": "t_mapping(t_uint256,t_struct(ref_data)73_storage)"
							},
							{
								"astId": 103,
								"contract": "contracts/stake_reward_MLM.sol:Invest",
								"label": "reward",
								"offset": 0,
								"slot": "4",
								"type": "t_uint256"
							},
							{
								"astId": 105,
								"contract": "contracts/stake_reward_MLM.sol:Invest",
								"label": "noOfInvestment",
								"offset": 0,
								"slot": "5",
								"type": "t_uint256"
							},
							{
								"astId": 107,
								"contract": "contracts/stake_reward_MLM.sol:Invest",
								"label": "totalInvestment",
								"offset": 0,
								"slot": "6",
								"type": "t_uint256"
							},
							{
								"astId": 109,
								"contract": "contracts/stake_reward_MLM.sol:Invest",
								"label": "totalWithdraw_reward",
								"offset": 0,
								"slot": "7",
								"type": "t_uint256"
							},
							{
								"astId": 111,
								"contract": "contracts/stake_reward_MLM.sol:Invest",
								"label": "investBefore",
								"offset": 0,
								"slot": "8",
								"type": "t_bool"
							},
							{
								"astId": 113,
								"contract": "contracts/stake_reward_MLM.sol:Invest",
								"label": "stakeTime",
								"offset": 0,
								"slot": "9",
								"type": "t_uint256"
							}
						],
						"numberOfBytes": "320"
					},
					"t_struct(allInvestments)68_storage": {
						"encoding": "inplace",
						"label": "struct Invest.allInvestments",
						"members": [
							{
								"astId": 57,
								"contract": "contracts/stake_reward_MLM.sol:Invest",
								"label": "investedAmount",
								"offset": 0,
								"slot": "0",
								"type": "t_uint256"
							},
							{
								"astId": 59,
								"contract": "contracts/stake_reward_MLM.sol:Invest",
								"label": "withdrawnTime",
								"offset": 0,
								"slot": "1",
								"type": "t_uint256"
							},
							{
								"astId": 61,
								"contract": "contracts/stake_reward_MLM.sol:Invest",
								"label": "DepositTime",
								"offset": 0,
								"slot": "2",
								"type": "t_uint256"
							},
							{
								"astId": 63,
								"contract": "contracts/stake_reward_MLM.sol:Invest",
								"label": "investmentNum",
								"offset": 0,
								"slot": "3",
								"type": "t_uint256"
							},
							{
								"astId": 65,
								"contract": "contracts/stake_reward_MLM.sol:Invest",
								"label": "unstakeTime",
								"offset": 0,
								"slot": "4",
								"type": "t_uint256"
							},
							{
								"astId": 67,
								"contract": "contracts/stake_reward_MLM.sol:Invest",
								"label": "unstake",
								"offset": 0,
								"slot": "5",
								"type": "t_bool"
							}
						],
						"numberOfBytes": "192"
					},
					"t_struct(ref_data)73_storage": {
						"encoding": "inplace",
						"label": "struct Invest.ref_data",
						"members": [
							{
								"astId": 70,
								"contract": "contracts/stake_reward_MLM.sol:Invest",
								"label": "reward",
								"offset": 0,
								"slot": "0",
								"type": "t_uint256"
							},
							{
								"astId": 72,
								"contract": "contracts/stake_reward_MLM.sol:Invest",
								"label": "count",
								"offset": 0,
								"slot": "1",
								"type": "t_uint256"
							}
						],
						"numberOfBytes": "64"
					},
					"t_uint256": {
						"encoding": "inplace",
						"label": "uint256",
						"numberOfBytes": "32"
					}
				}
			},
			"userdoc": {
				"kind": "user",
				"methods": {},
				"version": 1
			}
		}
	}
}