{
	"contracts/ODI_with _referral.sol": {
		"DOI": {
			"abi": [
				{
					"inputs": [
						{
							"internalType": "address",
							"name": "_referral",
							"type": "address"
						}
					],
					"name": "buy_tokens",
					"outputs": [
						{
							"internalType": "bool",
							"name": "",
							"type": "bool"
						}
					],
					"stateMutability": "nonpayable",
					"type": "function"
				},
				{
					"inputs": [],
					"name": "num",
					"outputs": [
						{
							"internalType": "uint256",
							"name": "",
							"type": "uint256"
						}
					],
					"stateMutability": "view",
					"type": "function"
				},
				{
					"inputs": [
						{
							"internalType": "uint256",
							"name": "",
							"type": "uint256"
						}
					],
					"name": "round",
					"outputs": [
						{
							"internalType": "uint256",
							"name": "upper_limit",
							"type": "uint256"
						},
						{
							"internalType": "uint256",
							"name": "quantity",
							"type": "uint256"
						},
						{
							"internalType": "uint256",
							"name": "round_price",
							"type": "uint256"
						},
						{
							"internalType": "uint256",
							"name": "total_limit",
							"type": "uint256"
						}
					],
					"stateMutability": "view",
					"type": "function"
				},
				{
					"inputs": [],
					"name": "usdt_address",
					"outputs": [
						{
							"internalType": "address",
							"name": "",
							"type": "address"
						}
					],
					"stateMutability": "view",
					"type": "function"
				},
				{
					"inputs": [
						{
							"internalType": "address",
							"name": "",
							"type": "address"
						}
					],
					"name": "user",
					"outputs": [
						{
							"internalType": "uint256",
							"name": "tokens_for_claiming",
							"type": "uint256"
						},
						{
							"internalType": "address",
							"name": "referralFrom",
							"type": "address"
						},
						{
							"internalType": "bool",
							"name": "investBefore",
							"type": "bool"
						}
					],
					"stateMutability": "view",
					"type": "function"
				}
			],
			"devdoc": {
				"kind": "dev",
				"methods": {},
				"version": 1
			},
			"evm": {
				"assembly": "    /* \"contracts/ODI_with _referral.sol\":418:3138  contract DOI{... */\n  mstore(0x40, 0x80)\n  callvalue\n  dup1\n  iszero\n  tag_1\n  jumpi\n  0x00\n  dup1\n  revert\ntag_1:\n  pop\n  dataSize(sub_0)\n  dup1\n  dataOffset(sub_0)\n  0x00\n  codecopy\n  0x00\n  return\nstop\n\nsub_0: assembly {\n        /* \"contracts/ODI_with _referral.sol\":418:3138  contract DOI{... */\n      mstore(0x40, 0x80)\n      callvalue\n      dup1\n      iszero\n      tag_1\n      jumpi\n      0x00\n      dup1\n      revert\n    tag_1:\n      pop\n      jumpi(tag_2, lt(calldatasize, 0x04))\n      shr(0xe0, calldataload(0x00))\n      dup1\n      0x1fef3056\n      eq\n      tag_3\n      jumpi\n      dup1\n      0x34d5f37b\n      eq\n      tag_4\n      jumpi\n      dup1\n      0x4e70b1dc\n      eq\n      tag_5\n      jumpi\n      dup1\n      0x81e7e20e\n      eq\n      tag_6\n      jumpi\n      dup1\n      0xc68d4a38\n      eq\n      tag_7\n      jumpi\n    tag_2:\n      0x00\n      dup1\n      revert\n        /* \"contracts/ODI_with _referral.sol\":808:835  address public usdt_address */\n    tag_3:\n      tag_8\n      tag_9\n      jump\t// in\n    tag_8:\n      mload(0x40)\n      tag_10\n      swap2\n      swap1\n      tag_11\n      jump\t// in\n    tag_10:\n      mload(0x40)\n      dup1\n      swap2\n      sub\n      swap1\n      return\n        /* \"contracts/ODI_with _referral.sol\":770:802  mapping(uint=>Data) public round */\n    tag_4:\n      tag_12\n      0x04\n      dup1\n      calldatasize\n      sub\n      dup2\n      add\n      swap1\n      tag_13\n      swap2\n      swap1\n      tag_14\n      jump\t// in\n    tag_13:\n      tag_15\n      jump\t// in\n    tag_12:\n      mload(0x40)\n      tag_16\n      swap5\n      swap4\n      swap3\n      swap2\n      swap1\n      tag_17\n      jump\t// in\n    tag_16:\n      mload(0x40)\n      dup1\n      swap2\n      sub\n      swap1\n      return\n        /* \"contracts/ODI_with _referral.sol\":841:856  uint public num */\n    tag_5:\n      tag_18\n      tag_19\n      jump\t// in\n    tag_18:\n      mload(0x40)\n      tag_20\n      swap2\n      swap1\n      tag_21\n      jump\t// in\n    tag_20:\n      mload(0x40)\n      dup1\n      swap2\n      sub\n      swap1\n      return\n        /* \"contracts/ODI_with _referral.sol\":725:764  mapping(address=>user_info) public user */\n    tag_6:\n      tag_22\n      0x04\n      dup1\n      calldatasize\n      sub\n      dup2\n      add\n      swap1\n      tag_23\n      swap2\n      swap1\n      tag_24\n      jump\t// in\n    tag_23:\n      tag_25\n      jump\t// in\n    tag_22:\n      mload(0x40)\n      tag_26\n      swap4\n      swap3\n      swap2\n      swap1\n      tag_27\n      jump\t// in\n    tag_26:\n      mload(0x40)\n      dup1\n      swap2\n      sub\n      swap1\n      return\n        /* \"contracts/ODI_with _referral.sol\":1845:3127  function buy_tokens(address _referral) external returns(bool){... */\n    tag_7:\n      tag_28\n      0x04\n      dup1\n      calldatasize\n      sub\n      dup2\n      add\n      swap1\n      tag_29\n      swap2\n      swap1\n      tag_24\n      jump\t// in\n    tag_29:\n      tag_30\n      jump\t// in\n    tag_28:\n      mload(0x40)\n      tag_31\n      swap2\n      swap1\n      tag_32\n      jump\t// in\n    tag_31:\n      mload(0x40)\n      dup1\n      swap2\n      sub\n      swap1\n      return\n        /* \"contracts/ODI_with _referral.sol\":808:835  address public usdt_address */\n    tag_9:\n      0x02\n      0x00\n      swap1\n      sload\n      swap1\n      0x0100\n      exp\n      swap1\n      div\n      0xffffffffffffffffffffffffffffffffffffffff\n      and\n      dup2\n      jump\t// out\n        /* \"contracts/ODI_with _referral.sol\":770:802  mapping(uint=>Data) public round */\n    tag_15:\n      mstore(0x20, 0x01)\n      dup1\n      0x00\n      mstore\n      keccak256(0x00, 0x40)\n      0x00\n      swap2\n      pop\n      swap1\n      pop\n      dup1\n      0x00\n      add\n      sload\n      swap1\n      dup1\n      0x01\n      add\n      sload\n      swap1\n      dup1\n      0x02\n      add\n      sload\n      swap1\n      dup1\n      0x03\n      add\n      sload\n      swap1\n      pop\n      dup5\n      jump\t// out\n        /* \"contracts/ODI_with _referral.sol\":841:856  uint public num */\n    tag_19:\n      sload(0x03)\n      dup2\n      jump\t// out\n        /* \"contracts/ODI_with _referral.sol\":725:764  mapping(address=>user_info) public user */\n    tag_25:\n      mstore(0x20, 0x00)\n      dup1\n      0x00\n      mstore\n      keccak256(0x00, 0x40)\n      0x00\n      swap2\n      pop\n      swap1\n      pop\n      dup1\n      0x00\n      add\n      sload\n      swap1\n      dup1\n      0x01\n      add\n      0x00\n      swap1\n      sload\n      swap1\n      0x0100\n      exp\n      swap1\n      div\n      0xffffffffffffffffffffffffffffffffffffffff\n      and\n      swap1\n      dup1\n      0x01\n      add\n      0x14\n      swap1\n      sload\n      swap1\n      0x0100\n      exp\n      swap1\n      div\n      0xff\n      and\n      swap1\n      pop\n      dup4\n      jump\t// out\n        /* \"contracts/ODI_with _referral.sol\":1845:3127  function buy_tokens(address _referral) external returns(bool){... */\n    tag_30:\n        /* \"contracts/ODI_with _referral.sol\":1901:1905  bool */\n      0x00\n        /* \"contracts/ODI_with _referral.sol\":1945:1950  round */\n      0x01\n        /* \"contracts/ODI_with _referral.sol\":1945:1955  round[num] */\n      0x00\n        /* \"contracts/ODI_with _referral.sol\":1951:1954  num */\n      sload(0x03)\n        /* \"contracts/ODI_with _referral.sol\":1945:1955  round[num] */\n      dup2\n      mstore\n      0x20\n      add\n      swap1\n      dup2\n      mstore\n      0x20\n      add\n      0x00\n      keccak256\n        /* \"contracts/ODI_with _referral.sol\":1945:1967  round[num].total_limit */\n      0x03\n      add\n      sload\n        /* \"contracts/ODI_with _referral.sol\":1924:1929  round */\n      0x01\n        /* \"contracts/ODI_with _referral.sol\":1924:1934  round[num] */\n      0x00\n        /* \"contracts/ODI_with _referral.sol\":1930:1933  num */\n      sload(0x03)\n        /* \"contracts/ODI_with _referral.sol\":1924:1934  round[num] */\n      dup2\n      mstore\n      0x20\n      add\n      swap1\n      dup2\n      mstore\n      0x20\n      add\n      0x00\n      keccak256\n        /* \"contracts/ODI_with _referral.sol\":1924:1943  round[num].quantity */\n      0x01\n      add\n      sload\n        /* \"contracts/ODI_with _referral.sol\":1924:1967  round[num].quantity<=round[num].total_limit */\n      gt\n      iszero\n        /* \"contracts/ODI_with _referral.sol\":1916:2008  require(round[num].quantity<=round[num].total_limit,\"asking tokens are more than the limit\") */\n      tag_34\n      jumpi\n      mload(0x40)\n      0x08c379a000000000000000000000000000000000000000000000000000000000\n      dup2\n      mstore\n      0x04\n      add\n      tag_35\n      swap1\n      tag_36\n      jump\t// in\n    tag_35:\n      mload(0x40)\n      dup1\n      swap2\n      sub\n      swap1\n      revert\n    tag_34:\n        /* \"contracts/ODI_with _referral.sol\":2090:2096  10**18 */\n      0x0de0b6b3a7640000\n        /* \"contracts/ODI_with _referral.sol\":2067:2072  round */\n      0x01\n        /* \"contracts/ODI_with _referral.sol\":2067:2077  round[num] */\n      0x00\n        /* \"contracts/ODI_with _referral.sol\":2073:2076  num */\n      sload(0x03)\n        /* \"contracts/ODI_with _referral.sol\":2067:2077  round[num] */\n      dup2\n      mstore\n      0x20\n      add\n      swap1\n      dup2\n      mstore\n      0x20\n      add\n      0x00\n      keccak256\n        /* \"contracts/ODI_with _referral.sol\":2067:2089  round[num].round_price */\n      0x02\n      add\n      sload\n        /* \"contracts/ODI_with _referral.sol\":2067:2096  round[num].round_price*10**18 */\n      tag_37\n      swap2\n      swap1\n      tag_38\n      jump\t// in\n    tag_37:\n        /* \"contracts/ODI_with _referral.sol\":2031:2043  usdt_address */\n      0x02\n      0x00\n      swap1\n      sload\n      swap1\n      0x0100\n      exp\n      swap1\n      div\n      0xffffffffffffffffffffffffffffffffffffffff\n      and\n        /* \"contracts/ODI_with _referral.sol\":2026:2054  USDT(usdt_address).balanceOf */\n      0xffffffffffffffffffffffffffffffffffffffff\n      and\n      0x70a08231\n        /* \"contracts/ODI_with _referral.sol\":2055:2065  msg.sender */\n      caller\n        /* \"contracts/ODI_with _referral.sol\":2026:2066  USDT(usdt_address).balanceOf(msg.sender) */\n      mload(0x40)\n      dup3\n      0xffffffff\n      and\n      0xe0\n      shl\n      dup2\n      mstore\n      0x04\n      add\n      tag_39\n      swap2\n      swap1\n      tag_11\n      jump\t// in\n    tag_39:\n      0x20\n      mload(0x40)\n      dup1\n      dup4\n      sub\n      dup2\n      dup7\n      dup1\n      extcodesize\n      iszero\n      dup1\n      iszero\n      tag_40\n      jumpi\n      0x00\n      dup1\n      revert\n    tag_40:\n      pop\n      gas\n      staticcall\n      iszero\n      dup1\n      iszero\n      tag_42\n      jumpi\n      returndatasize\n      0x00\n      dup1\n      returndatacopy\n      revert(0x00, returndatasize)\n    tag_42:\n      pop\n      pop\n      pop\n      pop\n      mload(0x40)\n      returndatasize\n      not(0x1f)\n      0x1f\n      dup3\n      add\n      and\n      dup3\n      add\n      dup1\n      0x40\n      mstore\n      pop\n      dup2\n      add\n      swap1\n      tag_43\n      swap2\n      swap1\n      tag_44\n      jump\t// in\n    tag_43:\n        /* \"contracts/ODI_with _referral.sol\":2026:2096  USDT(usdt_address).balanceOf(msg.sender)>round[num].round_price*10**18 */\n      gt\n        /* \"contracts/ODI_with _referral.sol\":2018:2135  require(USDT(usdt_address).balanceOf(msg.sender)>round[num].round_price*10**18,\"you dont have enough balance to buy\") */\n      tag_45\n      jumpi\n      mload(0x40)\n      0x08c379a000000000000000000000000000000000000000000000000000000000\n      dup2\n      mstore\n      0x04\n      add\n      tag_46\n      swap1\n      tag_47\n      jump\t// in\n    tag_46:\n      mload(0x40)\n      dup1\n      swap2\n      sub\n      swap1\n      revert\n    tag_45:\n        /* \"contracts/ODI_with _referral.sol\":2158:2170  usdt_address */\n      0x02\n      0x00\n      swap1\n      sload\n      swap1\n      0x0100\n      exp\n      swap1\n      div\n      0xffffffffffffffffffffffffffffffffffffffff\n      and\n        /* \"contracts/ODI_with _referral.sol\":2153:2184  USDT(usdt_address).transferFrom */\n      0xffffffffffffffffffffffffffffffffffffffff\n      and\n      0x23b872dd\n        /* \"contracts/ODI_with _referral.sol\":2185:2195  msg.sender */\n      caller\n        /* \"contracts/ODI_with _referral.sol\":2204:2208  this */\n      address\n        /* \"contracts/ODI_with _referral.sol\":2233:2239  10**18 */\n      0x0de0b6b3a7640000\n        /* \"contracts/ODI_with _referral.sol\":2210:2215  round */\n      0x01\n        /* \"contracts/ODI_with _referral.sol\":2210:2220  round[num] */\n      0x00\n        /* \"contracts/ODI_with _referral.sol\":2216:2219  num */\n      sload(0x03)\n        /* \"contracts/ODI_with _referral.sol\":2210:2220  round[num] */\n      dup2\n      mstore\n      0x20\n      add\n      swap1\n      dup2\n      mstore\n      0x20\n      add\n      0x00\n      keccak256\n        /* \"contracts/ODI_with _referral.sol\":2210:2232  round[num].round_price */\n      0x02\n      add\n      sload\n        /* \"contracts/ODI_with _referral.sol\":2210:2239  round[num].round_price*10**18 */\n      tag_48\n      swap2\n      swap1\n      tag_38\n      jump\t// in\n    tag_48:\n        /* \"contracts/ODI_with _referral.sol\":2153:2240  USDT(usdt_address).transferFrom(msg.sender,address(this),round[num].round_price*10**18) */\n      mload(0x40)\n      dup5\n      0xffffffff\n      and\n      0xe0\n      shl\n      dup2\n      mstore\n      0x04\n      add\n      tag_49\n      swap4\n      swap3\n      swap2\n      swap1\n      tag_50\n      jump\t// in\n    tag_49:\n      0x20\n      mload(0x40)\n      dup1\n      dup4\n      sub\n      dup2\n      0x00\n      dup8\n      dup1\n      extcodesize\n      iszero\n      dup1\n      iszero\n      tag_51\n      jumpi\n      0x00\n      dup1\n      revert\n    tag_51:\n      pop\n      gas\n      call\n      iszero\n      dup1\n      iszero\n      tag_53\n      jumpi\n      returndatasize\n      0x00\n      dup1\n      returndatacopy\n      revert(0x00, returndatasize)\n    tag_53:\n      pop\n      pop\n      pop\n      pop\n      mload(0x40)\n      returndatasize\n      not(0x1f)\n      0x1f\n      dup3\n      add\n      and\n      dup3\n      add\n      dup1\n      0x40\n      mstore\n      pop\n      dup2\n      add\n      swap1\n      tag_54\n      swap2\n      swap1\n      tag_55\n      jump\t// in\n    tag_54:\n        /* \"contracts/ODI_with _referral.sol\":2145:2271  require(USDT(usdt_address).transferFrom(msg.sender,address(this),round[num].round_price*10**18),\"tokens does not transferred\") */\n      tag_56\n      jumpi\n      mload(0x40)\n      0x08c379a000000000000000000000000000000000000000000000000000000000\n      dup2\n      mstore\n      0x04\n      add\n      tag_57\n      swap1\n      tag_58\n      jump\t// in\n    tag_57:\n      mload(0x40)\n      dup1\n      swap2\n      sub\n      swap1\n      revert\n    tag_56:\n        /* \"contracts/ODI_with _referral.sol\":2319:2324  round */\n      0x01\n        /* \"contracts/ODI_with _referral.sol\":2319:2329  round[num] */\n      0x00\n        /* \"contracts/ODI_with _referral.sol\":2325:2328  num */\n      sload(0x03)\n        /* \"contracts/ODI_with _referral.sol\":2319:2329  round[num] */\n      dup2\n      mstore\n      0x20\n      add\n      swap1\n      dup2\n      mstore\n      0x20\n      add\n      0x00\n      keccak256\n        /* \"contracts/ODI_with _referral.sol\":2319:2341  round[num].upper_limit */\n      0x00\n      add\n      sload\n        /* \"contracts/ODI_with _referral.sol\":2281:2285  user */\n      0x00\n        /* \"contracts/ODI_with _referral.sol\":2281:2297  user[msg.sender] */\n      dup1\n        /* \"contracts/ODI_with _referral.sol\":2286:2296  msg.sender */\n      caller\n        /* \"contracts/ODI_with _referral.sol\":2281:2297  user[msg.sender] */\n      0xffffffffffffffffffffffffffffffffffffffff\n      and\n      0xffffffffffffffffffffffffffffffffffffffff\n      and\n      dup2\n      mstore\n      0x20\n      add\n      swap1\n      dup2\n      mstore\n      0x20\n      add\n      0x00\n      keccak256\n        /* \"contracts/ODI_with _referral.sol\":2281:2317  user[msg.sender].tokens_for_claiming */\n      0x00\n      add\n      0x00\n        /* \"contracts/ODI_with _referral.sol\":2281:2341  user[msg.sender].tokens_for_claiming+=round[num].upper_limit */\n      dup3\n      dup3\n      sload\n      tag_59\n      swap2\n      swap1\n      tag_60\n      jump\t// in\n    tag_59:\n      swap3\n      pop\n      pop\n      dup2\n      swap1\n      sstore\n      pop\n        /* \"contracts/ODI_with _referral.sol\":2375:2380  round */\n      0x01\n        /* \"contracts/ODI_with _referral.sol\":2375:2385  round[num] */\n      0x00\n        /* \"contracts/ODI_with _referral.sol\":2381:2384  num */\n      sload(0x03)\n        /* \"contracts/ODI_with _referral.sol\":2375:2385  round[num] */\n      dup2\n      mstore\n      0x20\n      add\n      swap1\n      dup2\n      mstore\n      0x20\n      add\n      0x00\n      keccak256\n        /* \"contracts/ODI_with _referral.sol\":2375:2397  round[num].upper_limit */\n      0x00\n      add\n      sload\n        /* \"contracts/ODI_with _referral.sol\":2351:2356  round */\n      0x01\n        /* \"contracts/ODI_with _referral.sol\":2351:2361  round[num] */\n      0x00\n        /* \"contracts/ODI_with _referral.sol\":2357:2360  num */\n      sload(0x03)\n        /* \"contracts/ODI_with _referral.sol\":2351:2361  round[num] */\n      dup2\n      mstore\n      0x20\n      add\n      swap1\n      dup2\n      mstore\n      0x20\n      add\n      0x00\n      keccak256\n        /* \"contracts/ODI_with _referral.sol\":2351:2373  round[num].total_limit */\n      0x03\n      add\n      0x00\n        /* \"contracts/ODI_with _referral.sol\":2351:2397  round[num].total_limit-=round[num].upper_limit */\n      dup3\n      dup3\n      sload\n      tag_61\n      swap2\n      swap1\n      tag_62\n      jump\t// in\n    tag_61:\n      swap3\n      pop\n      pop\n      dup2\n      swap1\n      sstore\n      pop\n        /* \"contracts/ODI_with _referral.sol\":2438:2439  0 */\n      0x00\n        /* \"contracts/ODI_with _referral.sol\":2419:2440  _referral==address(0) */\n      0xffffffffffffffffffffffffffffffffffffffff\n      and\n        /* \"contracts/ODI_with _referral.sol\":2419:2428  _referral */\n      dup3\n        /* \"contracts/ODI_with _referral.sol\":2419:2440  _referral==address(0) */\n      0xffffffffffffffffffffffffffffffffffffffff\n      and\n      eq\n        /* \"contracts/ODI_with _referral.sol\":2419:2465  _referral==address(0) || _referral==msg.sender */\n      dup1\n      tag_63\n      jumpi\n      pop\n        /* \"contracts/ODI_with _referral.sol\":2455:2465  msg.sender */\n      caller\n        /* \"contracts/ODI_with _referral.sol\":2444:2465  _referral==msg.sender */\n      0xffffffffffffffffffffffffffffffffffffffff\n      and\n        /* \"contracts/ODI_with _referral.sol\":2444:2453  _referral */\n      dup3\n        /* \"contracts/ODI_with _referral.sol\":2444:2465  _referral==msg.sender */\n      0xffffffffffffffffffffffffffffffffffffffff\n      and\n      eq\n        /* \"contracts/ODI_with _referral.sol\":2419:2465  _referral==address(0) || _referral==msg.sender */\n    tag_63:\n        /* \"contracts/ODI_with _referral.sol\":2416:3043  if(_referral==address(0) || _referral==msg.sender)                                         //checking that investor comes from the referral link or not... */\n      iszero\n      tag_64\n      jumpi\n        /* \"contracts/ODI_with _referral.sol\":2631:2632  0 */\n      0x00\n        /* \"contracts/ODI_with _referral.sol\":2591:2595  user */\n      dup1\n        /* \"contracts/ODI_with _referral.sol\":2591:2607  user[msg.sender] */\n      0x00\n        /* \"contracts/ODI_with _referral.sol\":2596:2606  msg.sender */\n      caller\n        /* \"contracts/ODI_with _referral.sol\":2591:2607  user[msg.sender] */\n      0xffffffffffffffffffffffffffffffffffffffff\n      and\n      0xffffffffffffffffffffffffffffffffffffffff\n      and\n      dup2\n      mstore\n      0x20\n      add\n      swap1\n      dup2\n      mstore\n      0x20\n      add\n      0x00\n      keccak256\n        /* \"contracts/ODI_with _referral.sol\":2591:2620  user[msg.sender].referralFrom */\n      0x01\n      add\n      0x00\n        /* \"contracts/ODI_with _referral.sol\":2591:2633  user[msg.sender].referralFrom = address(0) */\n      0x0100\n      exp\n      dup2\n      sload\n      dup2\n      0xffffffffffffffffffffffffffffffffffffffff\n      mul\n      not\n      and\n      swap1\n      dup4\n      0xffffffffffffffffffffffffffffffffffffffff\n      and\n      mul\n      or\n      swap1\n      sstore\n      pop\n        /* \"contracts/ODI_with _referral.sol\":2416:3043  if(_referral==address(0) || _referral==msg.sender)                                         //checking that investor comes from the referral link or not... */\n      jump(tag_65)\n    tag_64:\n        /* \"contracts/ODI_with _referral.sol\":2716:2721  false */\n      0x00\n        /* \"contracts/ODI_with _referral.sol\":2683:2721  user[msg.sender].investBefore == false */\n      iszero\n      iszero\n        /* \"contracts/ODI_with _referral.sol\":2683:2687  user */\n      0x00\n        /* \"contracts/ODI_with _referral.sol\":2683:2699  user[msg.sender] */\n      dup1\n        /* \"contracts/ODI_with _referral.sol\":2688:2698  msg.sender */\n      caller\n        /* \"contracts/ODI_with _referral.sol\":2683:2699  user[msg.sender] */\n      0xffffffffffffffffffffffffffffffffffffffff\n      and\n      0xffffffffffffffffffffffffffffffffffffffff\n      and\n      dup2\n      mstore\n      0x20\n      add\n      swap1\n      dup2\n      mstore\n      0x20\n      add\n      0x00\n      keccak256\n        /* \"contracts/ODI_with _referral.sol\":2683:2712  user[msg.sender].investBefore */\n      0x01\n      add\n      0x14\n      swap1\n      sload\n      swap1\n      0x0100\n      exp\n      swap1\n      div\n      0xff\n      and\n        /* \"contracts/ODI_with _referral.sol\":2683:2721  user[msg.sender].investBefore == false */\n      iszero\n      iszero\n      eq\n        /* \"contracts/ODI_with _referral.sol\":2680:2873  if(user[msg.sender].investBefore == false)... */\n      iszero\n      tag_66\n      jumpi\n        /* \"contracts/ODI_with _referral.sol\":2786:2795  _referral */\n      dup2\n        /* \"contracts/ODI_with _referral.sol\":2754:2758  user */\n      0x00\n        /* \"contracts/ODI_with _referral.sol\":2754:2770  user[msg.sender] */\n      dup1\n        /* \"contracts/ODI_with _referral.sol\":2759:2769  msg.sender */\n      caller\n        /* \"contracts/ODI_with _referral.sol\":2754:2770  user[msg.sender] */\n      0xffffffffffffffffffffffffffffffffffffffff\n      and\n      0xffffffffffffffffffffffffffffffffffffffff\n      and\n      dup2\n      mstore\n      0x20\n      add\n      swap1\n      dup2\n      mstore\n      0x20\n      add\n      0x00\n      keccak256\n        /* \"contracts/ODI_with _referral.sol\":2754:2783  user[msg.sender].referralFrom */\n      0x01\n      add\n      0x00\n        /* \"contracts/ODI_with _referral.sol\":2754:2795  user[msg.sender].referralFrom = _referral */\n      0x0100\n      exp\n      dup2\n      sload\n      dup2\n      0xffffffffffffffffffffffffffffffffffffffff\n      mul\n      not\n      and\n      swap1\n      dup4\n      0xffffffffffffffffffffffffffffffffffffffff\n      and\n      mul\n      or\n      swap1\n      sstore\n      pop\n        /* \"contracts/ODI_with _referral.sol\":2813:2817  user */\n      0x00\n        /* \"contracts/ODI_with _referral.sol\":2813:2828  user[_referral] */\n      dup1\n        /* \"contracts/ODI_with _referral.sol\":2818:2827  _referral */\n      dup4\n        /* \"contracts/ODI_with _referral.sol\":2813:2828  user[_referral] */\n      0xffffffffffffffffffffffffffffffffffffffff\n      and\n      0xffffffffffffffffffffffffffffffffffffffff\n      and\n      dup2\n      mstore\n      0x20\n      add\n      swap1\n      dup2\n      mstore\n      0x20\n      add\n      0x00\n      keccak256\n        /* \"contracts/ODI_with _referral.sol\":2813:2841  user[_referral].hisReferrals */\n      0x02\n      add\n        /* \"contracts/ODI_with _referral.sol\":2847:2857  msg.sender */\n      caller\n        /* \"contracts/ODI_with _referral.sol\":2813:2858  user[_referral].hisReferrals.push(msg.sender) */\n      swap1\n      dup1\n      0x01\n      dup2\n      sload\n      add\n      dup1\n      dup3\n      sstore\n      dup1\n      swap2\n      pop\n      pop\n      0x01\n      swap1\n      sub\n      swap1\n      0x00\n      mstore\n      keccak256(0x00, 0x20)\n      add\n      0x00\n      swap1\n      swap2\n      swap1\n      swap2\n      swap1\n      swap2\n      0x0100\n      exp\n      dup2\n      sload\n      dup2\n      0xffffffffffffffffffffffffffffffffffffffff\n      mul\n      not\n      and\n      swap1\n      dup4\n      0xffffffffffffffffffffffffffffffffffffffff\n      and\n      mul\n      or\n      swap1\n      sstore\n      pop\n        /* \"contracts/ODI_with _referral.sol\":2680:2873  if(user[msg.sender].investBefore == false)... */\n    tag_66:\n        /* \"contracts/ODI_with _referral.sol\":2886:2942  sendRewardToReferrals(msg.sender,round[num].upper_limit) */\n      tag_68\n        /* \"contracts/ODI_with _referral.sol\":2908:2918  msg.sender */\n      caller\n        /* \"contracts/ODI_with _referral.sol\":2919:2924  round */\n      0x01\n        /* \"contracts/ODI_with _referral.sol\":2919:2929  round[num] */\n      0x00\n        /* \"contracts/ODI_with _referral.sol\":2925:2928  num */\n      sload(0x03)\n        /* \"contracts/ODI_with _referral.sol\":2919:2929  round[num] */\n      dup2\n      mstore\n      0x20\n      add\n      swap1\n      dup2\n      mstore\n      0x20\n      add\n      0x00\n      keccak256\n        /* \"contracts/ODI_with _referral.sol\":2919:2941  round[num].upper_limit */\n      0x00\n      add\n      sload\n        /* \"contracts/ODI_with _referral.sol\":2886:2907  sendRewardToReferrals */\n      tag_69\n        /* \"contracts/ODI_with _referral.sol\":2886:2942  sendRewardToReferrals(msg.sender,round[num].upper_limit) */\n      jump\t// in\n    tag_68:\n        /* \"contracts/ODI_with _referral.sol\":2416:3043  if(_referral==address(0) || _referral==msg.sender)                                         //checking that investor comes from the referral link or not... */\n    tag_65:\n        /* \"contracts/ODI_with _referral.sol\":3079:3080  0 */\n      0x00\n        /* \"contracts/ODI_with _referral.sol\":3055:3060  round */\n      0x01\n        /* \"contracts/ODI_with _referral.sol\":3055:3065  round[num] */\n      0x00\n        /* \"contracts/ODI_with _referral.sol\":3061:3064  num */\n      sload(0x03)\n        /* \"contracts/ODI_with _referral.sol\":3055:3065  round[num] */\n      dup2\n      mstore\n      0x20\n      add\n      swap1\n      dup2\n      mstore\n      0x20\n      add\n      0x00\n      keccak256\n        /* \"contracts/ODI_with _referral.sol\":3055:3077  round[num].total_limit */\n      0x03\n      add\n      sload\n        /* \"contracts/ODI_with _referral.sol\":3055:3080  round[num].total_limit==0 */\n      eq\n        /* \"contracts/ODI_with _referral.sol\":3052:3120  if(round[num].total_limit==0)... */\n      iszero\n      tag_70\n      jumpi\n        /* \"contracts/ODI_with _referral.sol\":3104:3107  num */\n      0x03\n      0x00\n        /* \"contracts/ODI_with _referral.sol\":3104:3109  num++ */\n      dup2\n      sload\n      dup1\n      swap3\n      swap2\n      swap1\n      tag_71\n      swap1\n      tag_72\n      jump\t// in\n    tag_71:\n      swap2\n      swap1\n      pop\n      sstore\n      pop\n        /* \"contracts/ODI_with _referral.sol\":3052:3120  if(round[num].total_limit==0)... */\n    tag_70:\n        /* \"contracts/ODI_with _referral.sol\":1845:3127  function buy_tokens(address _referral) external returns(bool){... */\n      swap2\n      swap1\n      pop\n      jump\t// out\n        /* \"contracts/ODI_with _referral.sol\":863:1835  function sendRewardToReferrals(address investor,uint _investedAmount)  internal  //this is the freferral function to transfer the reawards to referrals... */\n    tag_69:\n        /* \"contracts/ODI_with _referral.sol\":1031:1043  address temp */\n      0x00\n        /* \"contracts/ODI_with _referral.sol\":1046:1054  investor */\n      dup3\n        /* \"contracts/ODI_with _referral.sol\":1031:1054  address temp = investor */\n      swap1\n      pop\n        /* \"contracts/ODI_with _referral.sol\":1071:1095  uint[] memory percentage */\n      0x00\n        /* \"contracts/ODI_with _referral.sol\":1109:1110  5 */\n      0x05\n        /* \"contracts/ODI_with _referral.sol\":1098:1111  new uint[](5) */\n      0xffffffffffffffff\n      dup2\n      gt\n      iszero\n      tag_74\n      jumpi\n      tag_75\n      tag_76\n      jump\t// in\n    tag_75:\n    tag_74:\n      mload(0x40)\n      swap1\n      dup1\n      dup3\n      mstore\n      dup1\n      0x20\n      mul\n      0x20\n      add\n      dup3\n      add\n      0x40\n      mstore\n      dup1\n      iszero\n      tag_77\n      jumpi\n      dup2\n      0x20\n      add\n      0x20\n      dup3\n      mul\n      dup1\n      calldatasize\n      dup4\n      calldatacopy\n      dup1\n      dup3\n      add\n      swap2\n      pop\n      pop\n      swap1\n      pop\n    tag_77:\n      pop\n        /* \"contracts/ODI_with _referral.sol\":1071:1111  uint[] memory percentage = new uint[](5) */\n      swap1\n      pop\n        /* \"contracts/ODI_with _referral.sol\":1137:1138  5 */\n      0x05\n        /* \"contracts/ODI_with _referral.sol\":1121:1131  percentage */\n      dup2\n        /* \"contracts/ODI_with _referral.sol\":1132:1133  0 */\n      0x00\n        /* \"contracts/ODI_with _referral.sol\":1121:1134  percentage[0] */\n      dup2\n      mload\n      dup2\n      lt\n      tag_78\n      jumpi\n      tag_79\n      tag_80\n      jump\t// in\n    tag_79:\n    tag_78:\n      0x20\n      mul\n      0x20\n      add\n      add\n        /* \"contracts/ODI_with _referral.sol\":1121:1138  percentage[0] = 5 */\n      dup2\n      dup2\n      mstore\n      pop\n      pop\n        /* \"contracts/ODI_with _referral.sol\":1164:1165  4 */\n      0x04\n        /* \"contracts/ODI_with _referral.sol\":1148:1158  percentage */\n      dup2\n        /* \"contracts/ODI_with _referral.sol\":1159:1160  1 */\n      0x01\n        /* \"contracts/ODI_with _referral.sol\":1148:1161  percentage[1] */\n      dup2\n      mload\n      dup2\n      lt\n      tag_81\n      jumpi\n      tag_82\n      tag_80\n      jump\t// in\n    tag_82:\n    tag_81:\n      0x20\n      mul\n      0x20\n      add\n      add\n        /* \"contracts/ODI_with _referral.sol\":1148:1165  percentage[1] = 4 */\n      dup2\n      dup2\n      mstore\n      pop\n      pop\n        /* \"contracts/ODI_with _referral.sol\":1191:1192  3 */\n      0x03\n        /* \"contracts/ODI_with _referral.sol\":1175:1185  percentage */\n      dup2\n        /* \"contracts/ODI_with _referral.sol\":1186:1187  2 */\n      0x02\n        /* \"contracts/ODI_with _referral.sol\":1175:1188  percentage[2] */\n      dup2\n      mload\n      dup2\n      lt\n      tag_83\n      jumpi\n      tag_84\n      tag_80\n      jump\t// in\n    tag_84:\n    tag_83:\n      0x20\n      mul\n      0x20\n      add\n      add\n        /* \"contracts/ODI_with _referral.sol\":1175:1192  percentage[2] = 3 */\n      dup2\n      dup2\n      mstore\n      pop\n      pop\n        /* \"contracts/ODI_with _referral.sol\":1205:1211  uint j */\n      0x00\n        /* \"contracts/ODI_with _referral.sol\":1228:1234  uint i */\n      dup1\n        /* \"contracts/ODI_with _referral.sol\":1235:1236  0 */\n      0x00\n        /* \"contracts/ODI_with _referral.sol\":1228:1236  uint i=0 */\n      swap1\n      pop\n        /* \"contracts/ODI_with _referral.sol\":1224:1828  for(uint i=0;i<3;i++)... */\n    tag_85:\n        /* \"contracts/ODI_with _referral.sol\":1239:1240  3 */\n      0x03\n        /* \"contracts/ODI_with _referral.sol\":1237:1238  i */\n      dup2\n        /* \"contracts/ODI_with _referral.sol\":1237:1240  i<3 */\n      lt\n        /* \"contracts/ODI_with _referral.sol\":1224:1828  for(uint i=0;i<3;i++)... */\n      iszero\n      tag_86\n      jumpi\n        /* \"contracts/ODI_with _referral.sol\":1275:1276  0 */\n      0x00\n        /* \"contracts/ODI_with _referral.sol\":1272:1273  i */\n      dup2\n        /* \"contracts/ODI_with _referral.sol\":1272:1276  i==0 */\n      eq\n        /* \"contracts/ODI_with _referral.sol\":1269:1476  if(i==0)... */\n      iszero\n      tag_88\n      jumpi\n        /* \"contracts/ODI_with _referral.sol\":1310:1311  0 */\n      0x00\n        /* \"contracts/ODI_with _referral.sol\":1308:1311  j=0 */\n      swap2\n      pop\n        /* \"contracts/ODI_with _referral.sol\":1269:1476  if(i==0)... */\n      jump(tag_89)\n    tag_88:\n        /* \"contracts/ODI_with _referral.sol\":1350:1351  1 */\n      0x01\n        /* \"contracts/ODI_with _referral.sol\":1347:1348  i */\n      dup2\n        /* \"contracts/ODI_with _referral.sol\":1347:1351  i==1 */\n      eq\n        /* \"contracts/ODI_with _referral.sol\":1344:1476  if(i==1)... */\n      iszero\n      tag_90\n      jumpi\n        /* \"contracts/ODI_with _referral.sol\":1385:1386  1 */\n      0x01\n        /* \"contracts/ODI_with _referral.sol\":1383:1386  j=1 */\n      swap2\n      pop\n        /* \"contracts/ODI_with _referral.sol\":1344:1476  if(i==1)... */\n      jump(tag_91)\n    tag_90:\n        /* \"contracts/ODI_with _referral.sol\":1425:1426  2 */\n      0x02\n        /* \"contracts/ODI_with _referral.sol\":1422:1423  i */\n      dup2\n        /* \"contracts/ODI_with _referral.sol\":1422:1426  i==2 */\n      eq\n        /* \"contracts/ODI_with _referral.sol\":1419:1476  if(i==2)... */\n      iszero\n      tag_92\n      jumpi\n        /* \"contracts/ODI_with _referral.sol\":1460:1461  2 */\n      0x02\n        /* \"contracts/ODI_with _referral.sol\":1458:1461  j=2 */\n      swap2\n      pop\n        /* \"contracts/ODI_with _referral.sol\":1419:1476  if(i==2)... */\n    tag_92:\n        /* \"contracts/ODI_with _referral.sol\":1344:1476  if(i==1)... */\n    tag_91:\n        /* \"contracts/ODI_with _referral.sol\":1269:1476  if(i==0)... */\n    tag_89:\n        /* \"contracts/ODI_with _referral.sol\":1538:1539  0 */\n      0x00\n        /* \"contracts/ODI_with _referral.sol\":1505:1540  user[temp].referralFrom!=address(0) */\n      0xffffffffffffffffffffffffffffffffffffffff\n      and\n        /* \"contracts/ODI_with _referral.sol\":1505:1509  user */\n      0x00\n        /* \"contracts/ODI_with _referral.sol\":1505:1515  user[temp] */\n      dup1\n        /* \"contracts/ODI_with _referral.sol\":1510:1514  temp */\n      dup7\n        /* \"contracts/ODI_with _referral.sol\":1505:1515  user[temp] */\n      0xffffffffffffffffffffffffffffffffffffffff\n      and\n      0xffffffffffffffffffffffffffffffffffffffff\n      and\n      dup2\n      mstore\n      0x20\n      add\n      swap1\n      dup2\n      mstore\n      0x20\n      add\n      0x00\n      keccak256\n        /* \"contracts/ODI_with _referral.sol\":1505:1528  user[temp].referralFrom */\n      0x01\n      add\n      0x00\n      swap1\n      sload\n      swap1\n      0x0100\n      exp\n      swap1\n      div\n      0xffffffffffffffffffffffffffffffffffffffff\n      and\n        /* \"contracts/ODI_with _referral.sol\":1505:1540  user[temp].referralFrom!=address(0) */\n      0xffffffffffffffffffffffffffffffffffffffff\n      and\n      eq\n        /* \"contracts/ODI_with _referral.sol\":1502:1817  if(user[temp].referralFrom!=address(0))... */\n      tag_93\n      jumpi\n        /* \"contracts/ODI_with _referral.sol\":1578:1582  user */\n      0x00\n        /* \"contracts/ODI_with _referral.sol\":1578:1588  user[temp] */\n      dup1\n        /* \"contracts/ODI_with _referral.sol\":1583:1587  temp */\n      dup6\n        /* \"contracts/ODI_with _referral.sol\":1578:1588  user[temp] */\n      0xffffffffffffffffffffffffffffffffffffffff\n      and\n      0xffffffffffffffffffffffffffffffffffffffff\n      and\n      dup2\n      mstore\n      0x20\n      add\n      swap1\n      dup2\n      mstore\n      0x20\n      add\n      0x00\n      keccak256\n        /* \"contracts/ODI_with _referral.sol\":1578:1601  user[temp].referralFrom */\n      0x01\n      add\n      0x00\n      swap1\n      sload\n      swap1\n      0x0100\n      exp\n      swap1\n      div\n      0xffffffffffffffffffffffffffffffffffffffff\n      and\n        /* \"contracts/ODI_with _referral.sol\":1573:1601  temp=user[temp].referralFrom */\n      swap4\n      pop\n        /* \"contracts/ODI_with _referral.sol\":1619:1631  uint reward1 */\n      0x00\n        /* \"contracts/ODI_with _referral.sol\":1680:1683  100 */\n      0x64\n        /* \"contracts/ODI_with _referral.sol\":1663:1678  _investedAmount */\n      dup7\n        /* \"contracts/ODI_with _referral.sol\":1650:1659  100000000 */\n      0x05f5e100\n        /* \"contracts/ODI_with _referral.sol\":1636:1646  percentage */\n      dup7\n        /* \"contracts/ODI_with _referral.sol\":1647:1648  j */\n      dup7\n        /* \"contracts/ODI_with _referral.sol\":1636:1649  percentage[j] */\n      dup2\n      mload\n      dup2\n      lt\n      tag_94\n      jumpi\n      tag_95\n      tag_80\n      jump\t// in\n    tag_95:\n    tag_94:\n      0x20\n      mul\n      0x20\n      add\n      add\n      mload\n        /* \"contracts/ODI_with _referral.sol\":1636:1659  percentage[j]*100000000 */\n      tag_96\n      swap2\n      swap1\n      tag_38\n      jump\t// in\n    tag_96:\n        /* \"contracts/ODI_with _referral.sol\":1635:1678  (percentage[j]*100000000) * _investedAmount */\n      tag_97\n      swap2\n      swap1\n      tag_38\n      jump\t// in\n    tag_97:\n        /* \"contracts/ODI_with _referral.sol\":1634:1683  ((percentage[j]*100000000) * _investedAmount)/100 */\n      tag_98\n      swap2\n      swap1\n      tag_99\n      jump\t// in\n    tag_98:\n        /* \"contracts/ODI_with _referral.sol\":1619:1683  uint reward1 = ((percentage[j]*100000000) * _investedAmount)/100 */\n      swap1\n      pop\n        /* \"contracts/ODI_with _referral.sol\":1707:1719  usdt_address */\n      0x02\n      0x00\n      swap1\n      sload\n      swap1\n      0x0100\n      exp\n      swap1\n      div\n      0xffffffffffffffffffffffffffffffffffffffff\n      and\n        /* \"contracts/ODI_with _referral.sol\":1702:1729  USDT(usdt_address).transfer */\n      0xffffffffffffffffffffffffffffffffffffffff\n      and\n      0xa9059cbb\n        /* \"contracts/ODI_with _referral.sol\":1730:1734  temp */\n      dup7\n        /* \"contracts/ODI_with _referral.sol\":1735:1742  reward1 */\n      dup4\n        /* \"contracts/ODI_with _referral.sol\":1702:1743  USDT(usdt_address).transfer(temp,reward1) */\n      mload(0x40)\n      dup4\n      0xffffffff\n      and\n      0xe0\n      shl\n      dup2\n      mstore\n      0x04\n      add\n      tag_100\n      swap3\n      swap2\n      swap1\n      tag_101\n      jump\t// in\n    tag_100:\n      0x20\n      mload(0x40)\n      dup1\n      dup4\n      sub\n      dup2\n      0x00\n      dup8\n      dup1\n      extcodesize\n      iszero\n      dup1\n      iszero\n      tag_102\n      jumpi\n      0x00\n      dup1\n      revert\n    tag_102:\n      pop\n      gas\n      call\n      iszero\n      dup1\n      iszero\n      tag_104\n      jumpi\n      returndatasize\n      0x00\n      dup1\n      returndatacopy\n      revert(0x00, returndatasize)\n    tag_104:\n      pop\n      pop\n      pop\n      pop\n      mload(0x40)\n      returndatasize\n      not(0x1f)\n      0x1f\n      dup3\n      add\n      and\n      dup3\n      add\n      dup1\n      0x40\n      mstore\n      pop\n      dup2\n      add\n      swap1\n      tag_105\n      swap2\n      swap1\n      tag_55\n      jump\t// in\n    tag_105:\n      pop\n        /* \"contracts/ODI_with _referral.sol\":1554:1761  {... */\n      pop\n        /* \"contracts/ODI_with _referral.sol\":1502:1817  if(user[temp].referralFrom!=address(0))... */\n      jump(tag_106)\n    tag_93:\n        /* \"contracts/ODI_with _referral.sol\":1797:1802  break */\n      jump(tag_86)\n        /* \"contracts/ODI_with _referral.sol\":1502:1817  if(user[temp].referralFrom!=address(0))... */\n    tag_106:\n        /* \"contracts/ODI_with _referral.sol\":1241:1244  i++ */\n      dup1\n      dup1\n      tag_107\n      swap1\n      tag_72\n      jump\t// in\n    tag_107:\n      swap2\n      pop\n      pop\n        /* \"contracts/ODI_with _referral.sol\":1224:1828  for(uint i=0;i<3;i++)... */\n      jump(tag_85)\n    tag_86:\n      pop\n        /* \"contracts/ODI_with _referral.sol\":1019:1835  { ... */\n      pop\n      pop\n      pop\n        /* \"contracts/ODI_with _referral.sol\":863:1835  function sendRewardToReferrals(address investor,uint _investedAmount)  internal  //this is the freferral function to transfer the reawards to referrals... */\n      pop\n      pop\n      jump\t// out\n        /* \"#utility.yul\":7:146   */\n    tag_109:\n        /* \"#utility.yul\":53:58   */\n      0x00\n        /* \"#utility.yul\":91:97   */\n      dup2\n        /* \"#utility.yul\":78:98   */\n      calldataload\n        /* \"#utility.yul\":69:98   */\n      swap1\n      pop\n        /* \"#utility.yul\":107:140   */\n      tag_111\n        /* \"#utility.yul\":134:139   */\n      dup2\n        /* \"#utility.yul\":107:140   */\n      tag_112\n      jump\t// in\n    tag_111:\n        /* \"#utility.yul\":7:146   */\n      swap3\n      swap2\n      pop\n      pop\n      jump\t// out\n        /* \"#utility.yul\":152:289   */\n    tag_113:\n        /* \"#utility.yul\":206:211   */\n      0x00\n        /* \"#utility.yul\":237:243   */\n      dup2\n        /* \"#utility.yul\":231:244   */\n      mload\n        /* \"#utility.yul\":222:244   */\n      swap1\n      pop\n        /* \"#utility.yul\":253:283   */\n      tag_115\n        /* \"#utility.yul\":277:282   */\n      dup2\n        /* \"#utility.yul\":253:283   */\n      tag_116\n      jump\t// in\n    tag_115:\n        /* \"#utility.yul\":152:289   */\n      swap3\n      swap2\n      pop\n      pop\n      jump\t// out\n        /* \"#utility.yul\":295:434   */\n    tag_117:\n        /* \"#utility.yul\":341:346   */\n      0x00\n        /* \"#utility.yul\":379:385   */\n      dup2\n        /* \"#utility.yul\":366:386   */\n      calldataload\n        /* \"#utility.yul\":357:386   */\n      swap1\n      pop\n        /* \"#utility.yul\":395:428   */\n      tag_119\n        /* \"#utility.yul\":422:427   */\n      dup2\n        /* \"#utility.yul\":395:428   */\n      tag_120\n      jump\t// in\n    tag_119:\n        /* \"#utility.yul\":295:434   */\n      swap3\n      swap2\n      pop\n      pop\n      jump\t// out\n        /* \"#utility.yul\":440:583   */\n    tag_121:\n        /* \"#utility.yul\":497:502   */\n      0x00\n        /* \"#utility.yul\":528:534   */\n      dup2\n        /* \"#utility.yul\":522:535   */\n      mload\n        /* \"#utility.yul\":513:535   */\n      swap1\n      pop\n        /* \"#utility.yul\":544:577   */\n      tag_123\n        /* \"#utility.yul\":571:576   */\n      dup2\n        /* \"#utility.yul\":544:577   */\n      tag_120\n      jump\t// in\n    tag_123:\n        /* \"#utility.yul\":440:583   */\n      swap3\n      swap2\n      pop\n      pop\n      jump\t// out\n        /* \"#utility.yul\":589:918   */\n    tag_24:\n        /* \"#utility.yul\":648:654   */\n      0x00\n        /* \"#utility.yul\":697:699   */\n      0x20\n        /* \"#utility.yul\":685:694   */\n      dup3\n        /* \"#utility.yul\":676:683   */\n      dup5\n        /* \"#utility.yul\":672:695   */\n      sub\n        /* \"#utility.yul\":668:700   */\n      slt\n        /* \"#utility.yul\":665:784   */\n      iszero\n      tag_125\n      jumpi\n        /* \"#utility.yul\":703:782   */\n      tag_126\n      tag_127\n      jump\t// in\n    tag_126:\n        /* \"#utility.yul\":665:784   */\n    tag_125:\n        /* \"#utility.yul\":823:824   */\n      0x00\n        /* \"#utility.yul\":848:901   */\n      tag_128\n        /* \"#utility.yul\":893:900   */\n      dup5\n        /* \"#utility.yul\":884:890   */\n      dup3\n        /* \"#utility.yul\":873:882   */\n      dup6\n        /* \"#utility.yul\":869:891   */\n      add\n        /* \"#utility.yul\":848:901   */\n      tag_109\n      jump\t// in\n    tag_128:\n        /* \"#utility.yul\":838:901   */\n      swap2\n      pop\n        /* \"#utility.yul\":794:911   */\n      pop\n        /* \"#utility.yul\":589:918   */\n      swap3\n      swap2\n      pop\n      pop\n      jump\t// out\n        /* \"#utility.yul\":924:1269   */\n    tag_55:\n        /* \"#utility.yul\":991:997   */\n      0x00\n        /* \"#utility.yul\":1040:1042   */\n      0x20\n        /* \"#utility.yul\":1028:1037   */\n      dup3\n        /* \"#utility.yul\":1019:1026   */\n      dup5\n        /* \"#utility.yul\":1015:1038   */\n      sub\n        /* \"#utility.yul\":1011:1043   */\n      slt\n        /* \"#utility.yul\":1008:1127   */\n      iszero\n      tag_130\n      jumpi\n        /* \"#utility.yul\":1046:1125   */\n      tag_131\n      tag_127\n      jump\t// in\n    tag_131:\n        /* \"#utility.yul\":1008:1127   */\n    tag_130:\n        /* \"#utility.yul\":1166:1167   */\n      0x00\n        /* \"#utility.yul\":1191:1252   */\n      tag_132\n        /* \"#utility.yul\":1244:1251   */\n      dup5\n        /* \"#utility.yul\":1235:1241   */\n      dup3\n        /* \"#utility.yul\":1224:1233   */\n      dup6\n        /* \"#utility.yul\":1220:1242   */\n      add\n        /* \"#utility.yul\":1191:1252   */\n      tag_113\n      jump\t// in\n    tag_132:\n        /* \"#utility.yul\":1181:1252   */\n      swap2\n      pop\n        /* \"#utility.yul\":1137:1262   */\n      pop\n        /* \"#utility.yul\":924:1269   */\n      swap3\n      swap2\n      pop\n      pop\n      jump\t// out\n        /* \"#utility.yul\":1275:1604   */\n    tag_14:\n        /* \"#utility.yul\":1334:1340   */\n      0x00\n        /* \"#utility.yul\":1383:1385   */\n      0x20\n        /* \"#utility.yul\":1371:1380   */\n      dup3\n        /* \"#utility.yul\":1362:1369   */\n      dup5\n        /* \"#utility.yul\":1358:1381   */\n      sub\n        /* \"#utility.yul\":1354:1386   */\n      slt\n        /* \"#utility.yul\":1351:1470   */\n      iszero\n      tag_134\n      jumpi\n        /* \"#utility.yul\":1389:1468   */\n      tag_135\n      tag_127\n      jump\t// in\n    tag_135:\n        /* \"#utility.yul\":1351:1470   */\n    tag_134:\n        /* \"#utility.yul\":1509:1510   */\n      0x00\n        /* \"#utility.yul\":1534:1587   */\n      tag_136\n        /* \"#utility.yul\":1579:1586   */\n      dup5\n        /* \"#utility.yul\":1570:1576   */\n      dup3\n        /* \"#utility.yul\":1559:1568   */\n      dup6\n        /* \"#utility.yul\":1555:1577   */\n      add\n        /* \"#utility.yul\":1534:1587   */\n      tag_117\n      jump\t// in\n    tag_136:\n        /* \"#utility.yul\":1524:1587   */\n      swap2\n      pop\n        /* \"#utility.yul\":1480:1597   */\n      pop\n        /* \"#utility.yul\":1275:1604   */\n      swap3\n      swap2\n      pop\n      pop\n      jump\t// out\n        /* \"#utility.yul\":1610:1961   */\n    tag_44:\n        /* \"#utility.yul\":1680:1686   */\n      0x00\n        /* \"#utility.yul\":1729:1731   */\n      0x20\n        /* \"#utility.yul\":1717:1726   */\n      dup3\n        /* \"#utility.yul\":1708:1715   */\n      dup5\n        /* \"#utility.yul\":1704:1727   */\n      sub\n        /* \"#utility.yul\":1700:1732   */\n      slt\n        /* \"#utility.yul\":1697:1816   */\n      iszero\n      tag_138\n      jumpi\n        /* \"#utility.yul\":1735:1814   */\n      tag_139\n      tag_127\n      jump\t// in\n    tag_139:\n        /* \"#utility.yul\":1697:1816   */\n    tag_138:\n        /* \"#utility.yul\":1855:1856   */\n      0x00\n        /* \"#utility.yul\":1880:1944   */\n      tag_140\n        /* \"#utility.yul\":1936:1943   */\n      dup5\n        /* \"#utility.yul\":1927:1933   */\n      dup3\n        /* \"#utility.yul\":1916:1925   */\n      dup6\n        /* \"#utility.yul\":1912:1934   */\n      add\n        /* \"#utility.yul\":1880:1944   */\n      tag_121\n      jump\t// in\n    tag_140:\n        /* \"#utility.yul\":1870:1944   */\n      swap2\n      pop\n        /* \"#utility.yul\":1826:1954   */\n      pop\n        /* \"#utility.yul\":1610:1961   */\n      swap3\n      swap2\n      pop\n      pop\n      jump\t// out\n        /* \"#utility.yul\":1967:2085   */\n    tag_141:\n        /* \"#utility.yul\":2054:2078   */\n      tag_143\n        /* \"#utility.yul\":2072:2077   */\n      dup2\n        /* \"#utility.yul\":2054:2078   */\n      tag_144\n      jump\t// in\n    tag_143:\n        /* \"#utility.yul\":2049:2052   */\n      dup3\n        /* \"#utility.yul\":2042:2079   */\n      mstore\n        /* \"#utility.yul\":1967:2085   */\n      pop\n      pop\n      jump\t// out\n        /* \"#utility.yul\":2091:2200   */\n    tag_145:\n        /* \"#utility.yul\":2172:2193   */\n      tag_147\n        /* \"#utility.yul\":2187:2192   */\n      dup2\n        /* \"#utility.yul\":2172:2193   */\n      tag_148\n      jump\t// in\n    tag_147:\n        /* \"#utility.yul\":2167:2170   */\n      dup3\n        /* \"#utility.yul\":2160:2194   */\n      mstore\n        /* \"#utility.yul\":2091:2200   */\n      pop\n      pop\n      jump\t// out\n        /* \"#utility.yul\":2206:2572   */\n    tag_149:\n        /* \"#utility.yul\":2348:2351   */\n      0x00\n        /* \"#utility.yul\":2369:2436   */\n      tag_151\n        /* \"#utility.yul\":2433:2435   */\n      0x25\n        /* \"#utility.yul\":2428:2431   */\n      dup4\n        /* \"#utility.yul\":2369:2436   */\n      tag_152\n      jump\t// in\n    tag_151:\n        /* \"#utility.yul\":2362:2436   */\n      swap2\n      pop\n        /* \"#utility.yul\":2445:2538   */\n      tag_153\n        /* \"#utility.yul\":2534:2537   */\n      dup3\n        /* \"#utility.yul\":2445:2538   */\n      tag_154\n      jump\t// in\n    tag_153:\n        /* \"#utility.yul\":2563:2565   */\n      0x40\n        /* \"#utility.yul\":2558:2561   */\n      dup3\n        /* \"#utility.yul\":2554:2566   */\n      add\n        /* \"#utility.yul\":2547:2566   */\n      swap1\n      pop\n        /* \"#utility.yul\":2206:2572   */\n      swap2\n      swap1\n      pop\n      jump\t// out\n        /* \"#utility.yul\":2578:2944   */\n    tag_155:\n        /* \"#utility.yul\":2720:2723   */\n      0x00\n        /* \"#utility.yul\":2741:2808   */\n      tag_157\n        /* \"#utility.yul\":2805:2807   */\n      0x1b\n        /* \"#utility.yul\":2800:2803   */\n      dup4\n        /* \"#utility.yul\":2741:2808   */\n      tag_152\n      jump\t// in\n    tag_157:\n        /* \"#utility.yul\":2734:2808   */\n      swap2\n      pop\n        /* \"#utility.yul\":2817:2910   */\n      tag_158\n        /* \"#utility.yul\":2906:2909   */\n      dup3\n        /* \"#utility.yul\":2817:2910   */\n      tag_159\n      jump\t// in\n    tag_158:\n        /* \"#utility.yul\":2935:2937   */\n      0x20\n        /* \"#utility.yul\":2930:2933   */\n      dup3\n        /* \"#utility.yul\":2926:2938   */\n      add\n        /* \"#utility.yul\":2919:2938   */\n      swap1\n      pop\n        /* \"#utility.yul\":2578:2944   */\n      swap2\n      swap1\n      pop\n      jump\t// out\n        /* \"#utility.yul\":2950:3316   */\n    tag_160:\n        /* \"#utility.yul\":3092:3095   */\n      0x00\n        /* \"#utility.yul\":3113:3180   */\n      tag_162\n        /* \"#utility.yul\":3177:3179   */\n      0x23\n        /* \"#utility.yul\":3172:3175   */\n      dup4\n        /* \"#utility.yul\":3113:3180   */\n      tag_152\n      jump\t// in\n    tag_162:\n        /* \"#utility.yul\":3106:3180   */\n      swap2\n      pop\n        /* \"#utility.yul\":3189:3282   */\n      tag_163\n        /* \"#utility.yul\":3278:3281   */\n      dup3\n        /* \"#utility.yul\":3189:3282   */\n      tag_164\n      jump\t// in\n    tag_163:\n        /* \"#utility.yul\":3307:3309   */\n      0x40\n        /* \"#utility.yul\":3302:3305   */\n      dup3\n        /* \"#utility.yul\":3298:3310   */\n      add\n        /* \"#utility.yul\":3291:3310   */\n      swap1\n      pop\n        /* \"#utility.yul\":2950:3316   */\n      swap2\n      swap1\n      pop\n      jump\t// out\n        /* \"#utility.yul\":3322:3440   */\n    tag_165:\n        /* \"#utility.yul\":3409:3433   */\n      tag_167\n        /* \"#utility.yul\":3427:3432   */\n      dup2\n        /* \"#utility.yul\":3409:3433   */\n      tag_168\n      jump\t// in\n    tag_167:\n        /* \"#utility.yul\":3404:3407   */\n      dup3\n        /* \"#utility.yul\":3397:3434   */\n      mstore\n        /* \"#utility.yul\":3322:3440   */\n      pop\n      pop\n      jump\t// out\n        /* \"#utility.yul\":3446:3668   */\n    tag_11:\n        /* \"#utility.yul\":3539:3543   */\n      0x00\n        /* \"#utility.yul\":3577:3579   */\n      0x20\n        /* \"#utility.yul\":3566:3575   */\n      dup3\n        /* \"#utility.yul\":3562:3580   */\n      add\n        /* \"#utility.yul\":3554:3580   */\n      swap1\n      pop\n        /* \"#utility.yul\":3590:3661   */\n      tag_170\n        /* \"#utility.yul\":3658:3659   */\n      0x00\n        /* \"#utility.yul\":3647:3656   */\n      dup4\n        /* \"#utility.yul\":3643:3660   */\n      add\n        /* \"#utility.yul\":3634:3640   */\n      dup5\n        /* \"#utility.yul\":3590:3661   */\n      tag_141\n      jump\t// in\n    tag_170:\n        /* \"#utility.yul\":3446:3668   */\n      swap3\n      swap2\n      pop\n      pop\n      jump\t// out\n        /* \"#utility.yul\":3674:4116   */\n    tag_50:\n        /* \"#utility.yul\":3823:3827   */\n      0x00\n        /* \"#utility.yul\":3861:3863   */\n      0x60\n        /* \"#utility.yul\":3850:3859   */\n      dup3\n        /* \"#utility.yul\":3846:3864   */\n      add\n        /* \"#utility.yul\":3838:3864   */\n      swap1\n      pop\n        /* \"#utility.yul\":3874:3945   */\n      tag_172\n        /* \"#utility.yul\":3942:3943   */\n      0x00\n        /* \"#utility.yul\":3931:3940   */\n      dup4\n        /* \"#utility.yul\":3927:3944   */\n      add\n        /* \"#utility.yul\":3918:3924   */\n      dup7\n        /* \"#utility.yul\":3874:3945   */\n      tag_141\n      jump\t// in\n    tag_172:\n        /* \"#utility.yul\":3955:4027   */\n      tag_173\n        /* \"#utility.yul\":4023:4025   */\n      0x20\n        /* \"#utility.yul\":4012:4021   */\n      dup4\n        /* \"#utility.yul\":4008:4026   */\n      add\n        /* \"#utility.yul\":3999:4005   */\n      dup6\n        /* \"#utility.yul\":3955:4027   */\n      tag_141\n      jump\t// in\n    tag_173:\n        /* \"#utility.yul\":4037:4109   */\n      tag_174\n        /* \"#utility.yul\":4105:4107   */\n      0x40\n        /* \"#utility.yul\":4094:4103   */\n      dup4\n        /* \"#utility.yul\":4090:4108   */\n      add\n        /* \"#utility.yul\":4081:4087   */\n      dup5\n        /* \"#utility.yul\":4037:4109   */\n      tag_165\n      jump\t// in\n    tag_174:\n        /* \"#utility.yul\":3674:4116   */\n      swap5\n      swap4\n      pop\n      pop\n      pop\n      pop\n      jump\t// out\n        /* \"#utility.yul\":4122:4454   */\n    tag_101:\n        /* \"#utility.yul\":4243:4247   */\n      0x00\n        /* \"#utility.yul\":4281:4283   */\n      0x40\n        /* \"#utility.yul\":4270:4279   */\n      dup3\n        /* \"#utility.yul\":4266:4284   */\n      add\n        /* \"#utility.yul\":4258:4284   */\n      swap1\n      pop\n        /* \"#utility.yul\":4294:4365   */\n      tag_176\n        /* \"#utility.yul\":4362:4363   */\n      0x00\n        /* \"#utility.yul\":4351:4360   */\n      dup4\n        /* \"#utility.yul\":4347:4364   */\n      add\n        /* \"#utility.yul\":4338:4344   */\n      dup6\n        /* \"#utility.yul\":4294:4365   */\n      tag_141\n      jump\t// in\n    tag_176:\n        /* \"#utility.yul\":4375:4447   */\n      tag_177\n        /* \"#utility.yul\":4443:4445   */\n      0x20\n        /* \"#utility.yul\":4432:4441   */\n      dup4\n        /* \"#utility.yul\":4428:4446   */\n      add\n        /* \"#utility.yul\":4419:4425   */\n      dup5\n        /* \"#utility.yul\":4375:4447   */\n      tag_165\n      jump\t// in\n    tag_177:\n        /* \"#utility.yul\":4122:4454   */\n      swap4\n      swap3\n      pop\n      pop\n      pop\n      jump\t// out\n        /* \"#utility.yul\":4460:4670   */\n    tag_32:\n        /* \"#utility.yul\":4547:4551   */\n      0x00\n        /* \"#utility.yul\":4585:4587   */\n      0x20\n        /* \"#utility.yul\":4574:4583   */\n      dup3\n        /* \"#utility.yul\":4570:4588   */\n      add\n        /* \"#utility.yul\":4562:4588   */\n      swap1\n      pop\n        /* \"#utility.yul\":4598:4663   */\n      tag_179\n        /* \"#utility.yul\":4660:4661   */\n      0x00\n        /* \"#utility.yul\":4649:4658   */\n      dup4\n        /* \"#utility.yul\":4645:4662   */\n      add\n        /* \"#utility.yul\":4636:4642   */\n      dup5\n        /* \"#utility.yul\":4598:4663   */\n      tag_145\n      jump\t// in\n    tag_179:\n        /* \"#utility.yul\":4460:4670   */\n      swap3\n      swap2\n      pop\n      pop\n      jump\t// out\n        /* \"#utility.yul\":4676:5095   */\n    tag_36:\n        /* \"#utility.yul\":4842:4846   */\n      0x00\n        /* \"#utility.yul\":4880:4882   */\n      0x20\n        /* \"#utility.yul\":4869:4878   */\n      dup3\n        /* \"#utility.yul\":4865:4883   */\n      add\n        /* \"#utility.yul\":4857:4883   */\n      swap1\n      pop\n        /* \"#utility.yul\":4929:4938   */\n      dup2\n        /* \"#utility.yul\":4923:4927   */\n      dup2\n        /* \"#utility.yul\":4919:4939   */\n      sub\n        /* \"#utility.yul\":4915:4916   */\n      0x00\n        /* \"#utility.yul\":4904:4913   */\n      dup4\n        /* \"#utility.yul\":4900:4917   */\n      add\n        /* \"#utility.yul\":4893:4940   */\n      mstore\n        /* \"#utility.yul\":4957:5088   */\n      tag_181\n        /* \"#utility.yul\":5083:5087   */\n      dup2\n        /* \"#utility.yul\":4957:5088   */\n      tag_149\n      jump\t// in\n    tag_181:\n        /* \"#utility.yul\":4949:5088   */\n      swap1\n      pop\n        /* \"#utility.yul\":4676:5095   */\n      swap2\n      swap1\n      pop\n      jump\t// out\n        /* \"#utility.yul\":5101:5520   */\n    tag_58:\n        /* \"#utility.yul\":5267:5271   */\n      0x00\n        /* \"#utility.yul\":5305:5307   */\n      0x20\n        /* \"#utility.yul\":5294:5303   */\n      dup3\n        /* \"#utility.yul\":5290:5308   */\n      add\n        /* \"#utility.yul\":5282:5308   */\n      swap1\n      pop\n        /* \"#utility.yul\":5354:5363   */\n      dup2\n        /* \"#utility.yul\":5348:5352   */\n      dup2\n        /* \"#utility.yul\":5344:5364   */\n      sub\n        /* \"#utility.yul\":5340:5341   */\n      0x00\n        /* \"#utility.yul\":5329:5338   */\n      dup4\n        /* \"#utility.yul\":5325:5342   */\n      add\n        /* \"#utility.yul\":5318:5365   */\n      mstore\n        /* \"#utility.yul\":5382:5513   */\n      tag_183\n        /* \"#utility.yul\":5508:5512   */\n      dup2\n        /* \"#utility.yul\":5382:5513   */\n      tag_155\n      jump\t// in\n    tag_183:\n        /* \"#utility.yul\":5374:5513   */\n      swap1\n      pop\n        /* \"#utility.yul\":5101:5520   */\n      swap2\n      swap1\n      pop\n      jump\t// out\n        /* \"#utility.yul\":5526:5945   */\n    tag_47:\n        /* \"#utility.yul\":5692:5696   */\n      0x00\n        /* \"#utility.yul\":5730:5732   */\n      0x20\n        /* \"#utility.yul\":5719:5728   */\n      dup3\n        /* \"#utility.yul\":5715:5733   */\n      add\n        /* \"#utility.yul\":5707:5733   */\n      swap1\n      pop\n        /* \"#utility.yul\":5779:5788   */\n      dup2\n        /* \"#utility.yul\":5773:5777   */\n      dup2\n        /* \"#utility.yul\":5769:5789   */\n      sub\n        /* \"#utility.yul\":5765:5766   */\n      0x00\n        /* \"#utility.yul\":5754:5763   */\n      dup4\n        /* \"#utility.yul\":5750:5767   */\n      add\n        /* \"#utility.yul\":5743:5790   */\n      mstore\n        /* \"#utility.yul\":5807:5938   */\n      tag_185\n        /* \"#utility.yul\":5933:5937   */\n      dup2\n        /* \"#utility.yul\":5807:5938   */\n      tag_160\n      jump\t// in\n    tag_185:\n        /* \"#utility.yul\":5799:5938   */\n      swap1\n      pop\n        /* \"#utility.yul\":5526:5945   */\n      swap2\n      swap1\n      pop\n      jump\t// out\n        /* \"#utility.yul\":5951:6173   */\n    tag_21:\n        /* \"#utility.yul\":6044:6048   */\n      0x00\n        /* \"#utility.yul\":6082:6084   */\n      0x20\n        /* \"#utility.yul\":6071:6080   */\n      dup3\n        /* \"#utility.yul\":6067:6085   */\n      add\n        /* \"#utility.yul\":6059:6085   */\n      swap1\n      pop\n        /* \"#utility.yul\":6095:6166   */\n      tag_187\n        /* \"#utility.yul\":6163:6164   */\n      0x00\n        /* \"#utility.yul\":6152:6161   */\n      dup4\n        /* \"#utility.yul\":6148:6165   */\n      add\n        /* \"#utility.yul\":6139:6145   */\n      dup5\n        /* \"#utility.yul\":6095:6166   */\n      tag_165\n      jump\t// in\n    tag_187:\n        /* \"#utility.yul\":5951:6173   */\n      swap3\n      swap2\n      pop\n      pop\n      jump\t// out\n        /* \"#utility.yul\":6179:6609   */\n    tag_27:\n        /* \"#utility.yul\":6322:6326   */\n      0x00\n        /* \"#utility.yul\":6360:6362   */\n      0x60\n        /* \"#utility.yul\":6349:6358   */\n      dup3\n        /* \"#utility.yul\":6345:6363   */\n      add\n        /* \"#utility.yul\":6337:6363   */\n      swap1\n      pop\n        /* \"#utility.yul\":6373:6444   */\n      tag_189\n        /* \"#utility.yul\":6441:6442   */\n      0x00\n        /* \"#utility.yul\":6430:6439   */\n      dup4\n        /* \"#utility.yul\":6426:6443   */\n      add\n        /* \"#utility.yul\":6417:6423   */\n      dup7\n        /* \"#utility.yul\":6373:6444   */\n      tag_165\n      jump\t// in\n    tag_189:\n        /* \"#utility.yul\":6454:6526   */\n      tag_190\n        /* \"#utility.yul\":6522:6524   */\n      0x20\n        /* \"#utility.yul\":6511:6520   */\n      dup4\n        /* \"#utility.yul\":6507:6525   */\n      add\n        /* \"#utility.yul\":6498:6504   */\n      dup6\n        /* \"#utility.yul\":6454:6526   */\n      tag_141\n      jump\t// in\n    tag_190:\n        /* \"#utility.yul\":6536:6602   */\n      tag_191\n        /* \"#utility.yul\":6598:6600   */\n      0x40\n        /* \"#utility.yul\":6587:6596   */\n      dup4\n        /* \"#utility.yul\":6583:6601   */\n      add\n        /* \"#utility.yul\":6574:6580   */\n      dup5\n        /* \"#utility.yul\":6536:6602   */\n      tag_145\n      jump\t// in\n    tag_191:\n        /* \"#utility.yul\":6179:6609   */\n      swap5\n      swap4\n      pop\n      pop\n      pop\n      pop\n      jump\t// out\n        /* \"#utility.yul\":6615:7168   */\n    tag_17:\n        /* \"#utility.yul\":6792:6796   */\n      0x00\n        /* \"#utility.yul\":6830:6833   */\n      0x80\n        /* \"#utility.yul\":6819:6828   */\n      dup3\n        /* \"#utility.yul\":6815:6834   */\n      add\n        /* \"#utility.yul\":6807:6834   */\n      swap1\n      pop\n        /* \"#utility.yul\":6844:6915   */\n      tag_193\n        /* \"#utility.yul\":6912:6913   */\n      0x00\n        /* \"#utility.yul\":6901:6910   */\n      dup4\n        /* \"#utility.yul\":6897:6914   */\n      add\n        /* \"#utility.yul\":6888:6894   */\n      dup8\n        /* \"#utility.yul\":6844:6915   */\n      tag_165\n      jump\t// in\n    tag_193:\n        /* \"#utility.yul\":6925:6997   */\n      tag_194\n        /* \"#utility.yul\":6993:6995   */\n      0x20\n        /* \"#utility.yul\":6982:6991   */\n      dup4\n        /* \"#utility.yul\":6978:6996   */\n      add\n        /* \"#utility.yul\":6969:6975   */\n      dup7\n        /* \"#utility.yul\":6925:6997   */\n      tag_165\n      jump\t// in\n    tag_194:\n        /* \"#utility.yul\":7007:7079   */\n      tag_195\n        /* \"#utility.yul\":7075:7077   */\n      0x40\n        /* \"#utility.yul\":7064:7073   */\n      dup4\n        /* \"#utility.yul\":7060:7078   */\n      add\n        /* \"#utility.yul\":7051:7057   */\n      dup6\n        /* \"#utility.yul\":7007:7079   */\n      tag_165\n      jump\t// in\n    tag_195:\n        /* \"#utility.yul\":7089:7161   */\n      tag_196\n        /* \"#utility.yul\":7157:7159   */\n      0x60\n        /* \"#utility.yul\":7146:7155   */\n      dup4\n        /* \"#utility.yul\":7142:7160   */\n      add\n        /* \"#utility.yul\":7133:7139   */\n      dup5\n        /* \"#utility.yul\":7089:7161   */\n      tag_165\n      jump\t// in\n    tag_196:\n        /* \"#utility.yul\":6615:7168   */\n      swap6\n      swap5\n      pop\n      pop\n      pop\n      pop\n      pop\n      jump\t// out\n        /* \"#utility.yul\":7255:7424   */\n    tag_152:\n        /* \"#utility.yul\":7339:7350   */\n      0x00\n        /* \"#utility.yul\":7373:7379   */\n      dup3\n        /* \"#utility.yul\":7368:7371   */\n      dup3\n        /* \"#utility.yul\":7361:7380   */\n      mstore\n        /* \"#utility.yul\":7413:7417   */\n      0x20\n        /* \"#utility.yul\":7408:7411   */\n      dup3\n        /* \"#utility.yul\":7404:7418   */\n      add\n        /* \"#utility.yul\":7389:7418   */\n      swap1\n      pop\n        /* \"#utility.yul\":7255:7424   */\n      swap3\n      swap2\n      pop\n      pop\n      jump\t// out\n        /* \"#utility.yul\":7430:7735   */\n    tag_60:\n        /* \"#utility.yul\":7470:7473   */\n      0x00\n        /* \"#utility.yul\":7489:7509   */\n      tag_201\n        /* \"#utility.yul\":7507:7508   */\n      dup3\n        /* \"#utility.yul\":7489:7509   */\n      tag_168\n      jump\t// in\n    tag_201:\n        /* \"#utility.yul\":7484:7509   */\n      swap2\n      pop\n        /* \"#utility.yul\":7523:7543   */\n      tag_202\n        /* \"#utility.yul\":7541:7542   */\n      dup4\n        /* \"#utility.yul\":7523:7543   */\n      tag_168\n      jump\t// in\n    tag_202:\n        /* \"#utility.yul\":7518:7543   */\n      swap3\n      pop\n        /* \"#utility.yul\":7677:7678   */\n      dup3\n        /* \"#utility.yul\":7609:7675   */\n      0xffffffffffffffffffffffffffffffffffffffffffffffffffffffffffffffff\n        /* \"#utility.yul\":7605:7679   */\n      sub\n        /* \"#utility.yul\":7602:7603   */\n      dup3\n        /* \"#utility.yul\":7599:7680   */\n      gt\n        /* \"#utility.yul\":7596:7703   */\n      iszero\n      tag_203\n      jumpi\n        /* \"#utility.yul\":7683:7701   */\n      tag_204\n      tag_205\n      jump\t// in\n    tag_204:\n        /* \"#utility.yul\":7596:7703   */\n    tag_203:\n        /* \"#utility.yul\":7727:7728   */\n      dup3\n        /* \"#utility.yul\":7724:7725   */\n      dup3\n        /* \"#utility.yul\":7720:7729   */\n      add\n        /* \"#utility.yul\":7713:7729   */\n      swap1\n      pop\n        /* \"#utility.yul\":7430:7735   */\n      swap3\n      swap2\n      pop\n      pop\n      jump\t// out\n        /* \"#utility.yul\":7741:7926   */\n    tag_99:\n        /* \"#utility.yul\":7781:7782   */\n      0x00\n        /* \"#utility.yul\":7798:7818   */\n      tag_207\n        /* \"#utility.yul\":7816:7817   */\n      dup3\n        /* \"#utility.yul\":7798:7818   */\n      tag_168\n      jump\t// in\n    tag_207:\n        /* \"#utility.yul\":7793:7818   */\n      swap2\n      pop\n        /* \"#utility.yul\":7832:7852   */\n      tag_208\n        /* \"#utility.yul\":7850:7851   */\n      dup4\n        /* \"#utility.yul\":7832:7852   */\n      tag_168\n      jump\t// in\n    tag_208:\n        /* \"#utility.yul\":7827:7852   */\n      swap3\n      pop\n        /* \"#utility.yul\":7871:7872   */\n      dup3\n        /* \"#utility.yul\":7861:7896   */\n      tag_209\n      jumpi\n        /* \"#utility.yul\":7876:7894   */\n      tag_210\n      tag_211\n      jump\t// in\n    tag_210:\n        /* \"#utility.yul\":7861:7896   */\n    tag_209:\n        /* \"#utility.yul\":7918:7919   */\n      dup3\n        /* \"#utility.yul\":7915:7916   */\n      dup3\n        /* \"#utility.yul\":7911:7920   */\n      div\n        /* \"#utility.yul\":7906:7920   */\n      swap1\n      pop\n        /* \"#utility.yul\":7741:7926   */\n      swap3\n      swap2\n      pop\n      pop\n      jump\t// out\n        /* \"#utility.yul\":7932:8280   */\n    tag_38:\n        /* \"#utility.yul\":7972:7979   */\n      0x00\n        /* \"#utility.yul\":7995:8015   */\n      tag_213\n        /* \"#utility.yul\":8013:8014   */\n      dup3\n        /* \"#utility.yul\":7995:8015   */\n      tag_168\n      jump\t// in\n    tag_213:\n        /* \"#utility.yul\":7990:8015   */\n      swap2\n      pop\n        /* \"#utility.yul\":8029:8049   */\n      tag_214\n        /* \"#utility.yul\":8047:8048   */\n      dup4\n        /* \"#utility.yul\":8029:8049   */\n      tag_168\n      jump\t// in\n    tag_214:\n        /* \"#utility.yul\":8024:8049   */\n      swap3\n      pop\n        /* \"#utility.yul\":8217:8218   */\n      dup2\n        /* \"#utility.yul\":8149:8215   */\n      0xffffffffffffffffffffffffffffffffffffffffffffffffffffffffffffffff\n        /* \"#utility.yul\":8145:8219   */\n      div\n        /* \"#utility.yul\":8142:8143   */\n      dup4\n        /* \"#utility.yul\":8139:8220   */\n      gt\n        /* \"#utility.yul\":8134:8135   */\n      dup3\n        /* \"#utility.yul\":8127:8136   */\n      iszero\n        /* \"#utility.yul\":8120:8137   */\n      iszero\n        /* \"#utility.yul\":8116:8221   */\n      and\n        /* \"#utility.yul\":8113:8244   */\n      iszero\n      tag_215\n      jumpi\n        /* \"#utility.yul\":8224:8242   */\n      tag_216\n      tag_205\n      jump\t// in\n    tag_216:\n        /* \"#utility.yul\":8113:8244   */\n    tag_215:\n        /* \"#utility.yul\":8272:8273   */\n      dup3\n        /* \"#utility.yul\":8269:8270   */\n      dup3\n        /* \"#utility.yul\":8265:8274   */\n      mul\n        /* \"#utility.yul\":8254:8274   */\n      swap1\n      pop\n        /* \"#utility.yul\":7932:8280   */\n      swap3\n      swap2\n      pop\n      pop\n      jump\t// out\n        /* \"#utility.yul\":8286:8477   */\n    tag_62:\n        /* \"#utility.yul\":8326:8330   */\n      0x00\n        /* \"#utility.yul\":8346:8366   */\n      tag_218\n        /* \"#utility.yul\":8364:8365   */\n      dup3\n        /* \"#utility.yul\":8346:8366   */\n      tag_168\n      jump\t// in\n    tag_218:\n        /* \"#utility.yul\":8341:8366   */\n      swap2\n      pop\n        /* \"#utility.yul\":8380:8400   */\n      tag_219\n        /* \"#utility.yul\":8398:8399   */\n      dup4\n        /* \"#utility.yul\":8380:8400   */\n      tag_168\n      jump\t// in\n    tag_219:\n        /* \"#utility.yul\":8375:8400   */\n      swap3\n      pop\n        /* \"#utility.yul\":8419:8420   */\n      dup3\n        /* \"#utility.yul\":8416:8417   */\n      dup3\n        /* \"#utility.yul\":8413:8421   */\n      lt\n        /* \"#utility.yul\":8410:8444   */\n      iszero\n      tag_220\n      jumpi\n        /* \"#utility.yul\":8424:8442   */\n      tag_221\n      tag_205\n      jump\t// in\n    tag_221:\n        /* \"#utility.yul\":8410:8444   */\n    tag_220:\n        /* \"#utility.yul\":8469:8470   */\n      dup3\n        /* \"#utility.yul\":8466:8467   */\n      dup3\n        /* \"#utility.yul\":8462:8471   */\n      sub\n        /* \"#utility.yul\":8454:8471   */\n      swap1\n      pop\n        /* \"#utility.yul\":8286:8477   */\n      swap3\n      swap2\n      pop\n      pop\n      jump\t// out\n        /* \"#utility.yul\":8483:8579   */\n    tag_144:\n        /* \"#utility.yul\":8520:8527   */\n      0x00\n        /* \"#utility.yul\":8549:8573   */\n      tag_223\n        /* \"#utility.yul\":8567:8572   */\n      dup3\n        /* \"#utility.yul\":8549:8573   */\n      tag_224\n      jump\t// in\n    tag_223:\n        /* \"#utility.yul\":8538:8573   */\n      swap1\n      pop\n        /* \"#utility.yul\":8483:8579   */\n      swap2\n      swap1\n      pop\n      jump\t// out\n        /* \"#utility.yul\":8585:8675   */\n    tag_148:\n        /* \"#utility.yul\":8619:8626   */\n      0x00\n        /* \"#utility.yul\":8662:8667   */\n      dup2\n        /* \"#utility.yul\":8655:8668   */\n      iszero\n        /* \"#utility.yul\":8648:8669   */\n      iszero\n        /* \"#utility.yul\":8637:8669   */\n      swap1\n      pop\n        /* \"#utility.yul\":8585:8675   */\n      swap2\n      swap1\n      pop\n      jump\t// out\n        /* \"#utility.yul\":8681:8807   */\n    tag_224:\n        /* \"#utility.yul\":8718:8725   */\n      0x00\n        /* \"#utility.yul\":8758:8800   */\n      0xffffffffffffffffffffffffffffffffffffffff\n        /* \"#utility.yul\":8751:8756   */\n      dup3\n        /* \"#utility.yul\":8747:8801   */\n      and\n        /* \"#utility.yul\":8736:8801   */\n      swap1\n      pop\n        /* \"#utility.yul\":8681:8807   */\n      swap2\n      swap1\n      pop\n      jump\t// out\n        /* \"#utility.yul\":8813:8890   */\n    tag_168:\n        /* \"#utility.yul\":8850:8857   */\n      0x00\n        /* \"#utility.yul\":8879:8884   */\n      dup2\n        /* \"#utility.yul\":8868:8884   */\n      swap1\n      pop\n        /* \"#utility.yul\":8813:8890   */\n      swap2\n      swap1\n      pop\n      jump\t// out\n        /* \"#utility.yul\":8896:9129   */\n    tag_72:\n        /* \"#utility.yul\":8935:8938   */\n      0x00\n        /* \"#utility.yul\":8958:8982   */\n      tag_229\n        /* \"#utility.yul\":8976:8981   */\n      dup3\n        /* \"#utility.yul\":8958:8982   */\n      tag_168\n      jump\t// in\n    tag_229:\n        /* \"#utility.yul\":8949:8982   */\n      swap2\n      pop\n        /* \"#utility.yul\":9004:9070   */\n      0xffffffffffffffffffffffffffffffffffffffffffffffffffffffffffffffff\n        /* \"#utility.yul\":8997:9002   */\n      dup3\n        /* \"#utility.yul\":8994:9071   */\n      eq\n        /* \"#utility.yul\":8991:9094   */\n      iszero\n      tag_230\n      jumpi\n        /* \"#utility.yul\":9074:9092   */\n      tag_231\n      tag_205\n      jump\t// in\n    tag_231:\n        /* \"#utility.yul\":8991:9094   */\n    tag_230:\n        /* \"#utility.yul\":9121:9122   */\n      0x01\n        /* \"#utility.yul\":9114:9119   */\n      dup3\n        /* \"#utility.yul\":9110:9123   */\n      add\n        /* \"#utility.yul\":9103:9123   */\n      swap1\n      pop\n        /* \"#utility.yul\":8896:9129   */\n      swap2\n      swap1\n      pop\n      jump\t// out\n        /* \"#utility.yul\":9135:9315   */\n    tag_205:\n        /* \"#utility.yul\":9183:9260   */\n      0x4e487b7100000000000000000000000000000000000000000000000000000000\n        /* \"#utility.yul\":9180:9181   */\n      0x00\n        /* \"#utility.yul\":9173:9261   */\n      mstore\n        /* \"#utility.yul\":9280:9284   */\n      0x11\n        /* \"#utility.yul\":9277:9278   */\n      0x04\n        /* \"#utility.yul\":9270:9285   */\n      mstore\n        /* \"#utility.yul\":9304:9308   */\n      0x24\n        /* \"#utility.yul\":9301:9302   */\n      0x00\n        /* \"#utility.yul\":9294:9309   */\n      revert\n        /* \"#utility.yul\":9321:9501   */\n    tag_211:\n        /* \"#utility.yul\":9369:9446   */\n      0x4e487b7100000000000000000000000000000000000000000000000000000000\n        /* \"#utility.yul\":9366:9367   */\n      0x00\n        /* \"#utility.yul\":9359:9447   */\n      mstore\n        /* \"#utility.yul\":9466:9470   */\n      0x12\n        /* \"#utility.yul\":9463:9464   */\n      0x04\n        /* \"#utility.yul\":9456:9471   */\n      mstore\n        /* \"#utility.yul\":9490:9494   */\n      0x24\n        /* \"#utility.yul\":9487:9488   */\n      0x00\n        /* \"#utility.yul\":9480:9495   */\n      revert\n        /* \"#utility.yul\":9507:9687   */\n    tag_80:\n        /* \"#utility.yul\":9555:9632   */\n      0x4e487b7100000000000000000000000000000000000000000000000000000000\n        /* \"#utility.yul\":9552:9553   */\n      0x00\n        /* \"#utility.yul\":9545:9633   */\n      mstore\n        /* \"#utility.yul\":9652:9656   */\n      0x32\n        /* \"#utility.yul\":9649:9650   */\n      0x04\n        /* \"#utility.yul\":9642:9657   */\n      mstore\n        /* \"#utility.yul\":9676:9680   */\n      0x24\n        /* \"#utility.yul\":9673:9674   */\n      0x00\n        /* \"#utility.yul\":9666:9681   */\n      revert\n        /* \"#utility.yul\":9693:9873   */\n    tag_76:\n        /* \"#utility.yul\":9741:9818   */\n      0x4e487b7100000000000000000000000000000000000000000000000000000000\n        /* \"#utility.yul\":9738:9739   */\n      0x00\n        /* \"#utility.yul\":9731:9819   */\n      mstore\n        /* \"#utility.yul\":9838:9842   */\n      0x41\n        /* \"#utility.yul\":9835:9836   */\n      0x04\n        /* \"#utility.yul\":9828:9843   */\n      mstore\n        /* \"#utility.yul\":9862:9866   */\n      0x24\n        /* \"#utility.yul\":9859:9860   */\n      0x00\n        /* \"#utility.yul\":9852:9867   */\n      revert\n        /* \"#utility.yul\":10002:10119   */\n    tag_127:\n        /* \"#utility.yul\":10111:10112   */\n      0x00\n        /* \"#utility.yul\":10108:10109   */\n      dup1\n        /* \"#utility.yul\":10101:10113   */\n      revert\n        /* \"#utility.yul\":10125:10349   */\n    tag_154:\n        /* \"#utility.yul\":10265:10299   */\n      0x61736b696e6720746f6b656e7320617265206d6f7265207468616e2074686520\n        /* \"#utility.yul\":10261:10262   */\n      0x00\n        /* \"#utility.yul\":10253:10259   */\n      dup3\n        /* \"#utility.yul\":10249:10263   */\n      add\n        /* \"#utility.yul\":10242:10300   */\n      mstore\n        /* \"#utility.yul\":10334:10341   */\n      0x6c696d6974000000000000000000000000000000000000000000000000000000\n        /* \"#utility.yul\":10329:10331   */\n      0x20\n        /* \"#utility.yul\":10321:10327   */\n      dup3\n        /* \"#utility.yul\":10317:10332   */\n      add\n        /* \"#utility.yul\":10310:10342   */\n      mstore\n        /* \"#utility.yul\":10125:10349   */\n      pop\n      jump\t// out\n        /* \"#utility.yul\":10355:10532   */\n    tag_159:\n        /* \"#utility.yul\":10495:10524   */\n      0x746f6b656e7320646f6573206e6f74207472616e736665727265640000000000\n        /* \"#utility.yul\":10491:10492   */\n      0x00\n        /* \"#utility.yul\":10483:10489   */\n      dup3\n        /* \"#utility.yul\":10479:10493   */\n      add\n        /* \"#utility.yul\":10472:10525   */\n      mstore\n        /* \"#utility.yul\":10355:10532   */\n      pop\n      jump\t// out\n        /* \"#utility.yul\":10538:10760   */\n    tag_164:\n        /* \"#utility.yul\":10678:10712   */\n      0x796f7520646f6e74206861766520656e6f7567682062616c616e636520746f20\n        /* \"#utility.yul\":10674:10675   */\n      0x00\n        /* \"#utility.yul\":10666:10672   */\n      dup3\n        /* \"#utility.yul\":10662:10676   */\n      add\n        /* \"#utility.yul\":10655:10713   */\n      mstore\n        /* \"#utility.yul\":10747:10752   */\n      0x6275790000000000000000000000000000000000000000000000000000000000\n        /* \"#utility.yul\":10742:10744   */\n      0x20\n        /* \"#utility.yul\":10734:10740   */\n      dup3\n        /* \"#utility.yul\":10730:10745   */\n      add\n        /* \"#utility.yul\":10723:10753   */\n      mstore\n        /* \"#utility.yul\":10538:10760   */\n      pop\n      jump\t// out\n        /* \"#utility.yul\":10766:10888   */\n    tag_112:\n        /* \"#utility.yul\":10839:10863   */\n      tag_243\n        /* \"#utility.yul\":10857:10862   */\n      dup2\n        /* \"#utility.yul\":10839:10863   */\n      tag_144\n      jump\t// in\n    tag_243:\n        /* \"#utility.yul\":10832:10837   */\n      dup2\n        /* \"#utility.yul\":10829:10864   */\n      eq\n        /* \"#utility.yul\":10819:10882   */\n      tag_244\n      jumpi\n        /* \"#utility.yul\":10878:10879   */\n      0x00\n        /* \"#utility.yul\":10875:10876   */\n      dup1\n        /* \"#utility.yul\":10868:10880   */\n      revert\n        /* \"#utility.yul\":10819:10882   */\n    tag_244:\n        /* \"#utility.yul\":10766:10888   */\n      pop\n      jump\t// out\n        /* \"#utility.yul\":10894:11010   */\n    tag_116:\n        /* \"#utility.yul\":10964:10985   */\n      tag_246\n        /* \"#utility.yul\":10979:10984   */\n      dup2\n        /* \"#utility.yul\":10964:10985   */\n      tag_148\n      jump\t// in\n    tag_246:\n        /* \"#utility.yul\":10957:10962   */\n      dup2\n        /* \"#utility.yul\":10954:10986   */\n      eq\n        /* \"#utility.yul\":10944:11004   */\n      tag_247\n      jumpi\n        /* \"#utility.yul\":11000:11001   */\n      0x00\n        /* \"#utility.yul\":10997:10998   */\n      dup1\n        /* \"#utility.yul\":10990:11002   */\n      revert\n        /* \"#utility.yul\":10944:11004   */\n    tag_247:\n        /* \"#utility.yul\":10894:11010   */\n      pop\n      jump\t// out\n        /* \"#utility.yul\":11016:11138   */\n    tag_120:\n        /* \"#utility.yul\":11089:11113   */\n      tag_249\n        /* \"#utility.yul\":11107:11112   */\n      dup2\n        /* \"#utility.yul\":11089:11113   */\n      tag_168\n      jump\t// in\n    tag_249:\n        /* \"#utility.yul\":11082:11087   */\n      dup2\n        /* \"#utility.yul\":11079:11114   */\n      eq\n        /* \"#utility.yul\":11069:11132   */\n      tag_250\n      jumpi\n        /* \"#utility.yul\":11128:11129   */\n      0x00\n        /* \"#utility.yul\":11125:11126   */\n      dup1\n        /* \"#utility.yul\":11118:11130   */\n      revert\n        /* \"#utility.yul\":11069:11132   */\n    tag_250:\n        /* \"#utility.yul\":11016:11138   */\n      pop\n      jump\t// out\n\n    auxdata: 0xa26469706673582212203073213dfccfa668e39c93a2557fe8ef9c0a9d583ceaad80ceb003da8f09746964736f6c63430008070033\n}\n",
				"bytecode": {
					"linkReferences": {},
					"object": "608060405234801561001057600080fd5b50611206806100206000396000f3fe608060405234801561001057600080fd5b50600436106100575760003560e01c80631fef30561461005c57806334d5f37b1461007a5780634e70b1dc146100ad57806381e7e20e146100cb578063c68d4a38146100fd575b600080fd5b61006461012d565b6040516100719190610cbf565b60405180910390f35b610094600480360381019061008f9190610bcf565b610153565b6040516100a49493929190610e07565b60405180910390f35b6100b5610183565b6040516100c29190610db5565b60405180910390f35b6100e560048036038101906100e09190610b75565b610189565b6040516100f493929190610dd0565b60405180910390f35b61011760048036038101906101129190610b75565b6101e0565b6040516101249190610d3a565b60405180910390f35b600260009054906101000a900473ffffffffffffffffffffffffffffffffffffffff1681565b60016020528060005260406000206000915090508060000154908060010154908060020154908060030154905084565b60035481565b60006020528060005260406000206000915090508060000154908060010160009054906101000a900473ffffffffffffffffffffffffffffffffffffffff16908060010160149054906101000a900460ff16905083565b600060016000600354815260200190815260200160002060030154600160006003548152602001908152602001600020600101541115610255576040517f08c379a000000000000000000000000000000000000000000000000000000000815260040161024c90610d55565b60405180910390fd5b670de0b6b3a7640000600160006003548152602001908152602001600020600201546102819190610ee4565b600260009054906101000a900473ffffffffffffffffffffffffffffffffffffffff1673ffffffffffffffffffffffffffffffffffffffff166370a08231336040518263ffffffff1660e01b81526004016102dc9190610cbf565b60206040518083038186803b1580156102f457600080fd5b505afa158015610308573d6000803e3d6000fd5b505050506040513d601f19601f8201168201806040525081019061032c9190610bfc565b1161036c576040517f08c379a000000000000000000000000000000000000000000000000000000000815260040161036390610d95565b60405180910390fd5b600260009054906101000a900473ffffffffffffffffffffffffffffffffffffffff1673ffffffffffffffffffffffffffffffffffffffff166323b872dd3330670de0b6b3a7640000600160006003548152602001908152602001600020600201546103d89190610ee4565b6040518463ffffffff1660e01b81526004016103f693929190610cda565b602060405180830381600087803b15801561041057600080fd5b505af1158015610424573d6000803e3d6000fd5b505050506040513d601f19601f820116820180604052508101906104489190610ba2565b610487576040517f08c379a000000000000000000000000000000000000000000000000000000000815260040161047e90610d75565b60405180910390fd5b600160006003548152602001908152602001600020600001546000803373ffffffffffffffffffffffffffffffffffffffff1673ffffffffffffffffffffffffffffffffffffffff16815260200190815260200160002060000160008282546104f09190610e5d565b925050819055506001600060035481526020019081526020016000206000015460016000600354815260200190815260200160002060030160008282546105379190610f3e565b92505081905550600073ffffffffffffffffffffffffffffffffffffffff168273ffffffffffffffffffffffffffffffffffffffff1614806105a457503373ffffffffffffffffffffffffffffffffffffffff168273ffffffffffffffffffffffffffffffffffffffff16145b1561062f5760008060003373ffffffffffffffffffffffffffffffffffffffff1673ffffffffffffffffffffffffffffffffffffffff16815260200190815260200160002060010160006101000a81548173ffffffffffffffffffffffffffffffffffffffff021916908373ffffffffffffffffffffffffffffffffffffffff1602179055506107d0565b600015156000803373ffffffffffffffffffffffffffffffffffffffff1673ffffffffffffffffffffffffffffffffffffffff16815260200190815260200160002060010160149054906101000a900460ff16151514156107ad57816000803373ffffffffffffffffffffffffffffffffffffffff1673ffffffffffffffffffffffffffffffffffffffff16815260200190815260200160002060010160006101000a81548173ffffffffffffffffffffffffffffffffffffffff021916908373ffffffffffffffffffffffffffffffffffffffff1602179055506000808373ffffffffffffffffffffffffffffffffffffffff1673ffffffffffffffffffffffffffffffffffffffff168152602001908152602001600020600201339080600181540180825580915050600190039060005260206000200160009091909190916101000a81548173ffffffffffffffffffffffffffffffffffffffff021916908373ffffffffffffffffffffffffffffffffffffffff1602179055505b6107cf336001600060035481526020019081526020016000206000015461080f565b5b600060016000600354815260200190815260200160002060030154141561080a576003600081548092919061080490610fba565b91905055505b919050565b60008290506000600567ffffffffffffffff81111561083157610830611090565b5b60405190808252806020026020018201604052801561085f5781602001602082028036833780820191505090505b50905060058160008151811061087857610877611061565b5b60200260200101818152505060048160018151811061089a57610899611061565b5b6020026020010181815250506003816002815181106108bc576108bb611061565b5b602002602001018181525050600080600090505b6003811015610b195760008114156108eb576000915061090d565b60018114156108fd576001915061090c565b600281141561090b57600291505b5b5b600073ffffffffffffffffffffffffffffffffffffffff166000808673ffffffffffffffffffffffffffffffffffffffff1673ffffffffffffffffffffffffffffffffffffffff16815260200190815260200160002060010160009054906101000a900473ffffffffffffffffffffffffffffffffffffffff1673ffffffffffffffffffffffffffffffffffffffff1614610b01576000808573ffffffffffffffffffffffffffffffffffffffff1673ffffffffffffffffffffffffffffffffffffffff16815260200190815260200160002060010160009054906101000a900473ffffffffffffffffffffffffffffffffffffffff16935060006064866305f5e100868681518110610a2357610a22611061565b5b6020026020010151610a359190610ee4565b610a3f9190610ee4565b610a499190610eb3565b9050600260009054906101000a900473ffffffffffffffffffffffffffffffffffffffff1673ffffffffffffffffffffffffffffffffffffffff1663a9059cbb86836040518363ffffffff1660e01b8152600401610aa8929190610d11565b602060405180830381600087803b158015610ac257600080fd5b505af1158015610ad6573d6000803e3d6000fd5b505050506040513d601f19601f82011682018060405250810190610afa9190610ba2565b5050610b06565b610b19565b8080610b1190610fba565b9150506108d0565b505050505050565b600081359050610b308161118b565b92915050565b600081519050610b45816111a2565b92915050565b600081359050610b5a816111b9565b92915050565b600081519050610b6f816111b9565b92915050565b600060208284031215610b8b57610b8a6110bf565b5b6000610b9984828501610b21565b91505092915050565b600060208284031215610bb857610bb76110bf565b5b6000610bc684828501610b36565b91505092915050565b600060208284031215610be557610be46110bf565b5b6000610bf384828501610b4b565b91505092915050565b600060208284031215610c1257610c116110bf565b5b6000610c2084828501610b60565b91505092915050565b610c3281610f72565b82525050565b610c4181610f84565b82525050565b6000610c54602583610e4c565b9150610c5f826110c4565b604082019050919050565b6000610c77601b83610e4c565b9150610c8282611113565b602082019050919050565b6000610c9a602383610e4c565b9150610ca58261113c565b604082019050919050565b610cb981610fb0565b82525050565b6000602082019050610cd46000830184610c29565b92915050565b6000606082019050610cef6000830186610c29565b610cfc6020830185610c29565b610d096040830184610cb0565b949350505050565b6000604082019050610d266000830185610c29565b610d336020830184610cb0565b9392505050565b6000602082019050610d4f6000830184610c38565b92915050565b60006020820190508181036000830152610d6e81610c47565b9050919050565b60006020820190508181036000830152610d8e81610c6a565b9050919050565b60006020820190508181036000830152610dae81610c8d565b9050919050565b6000602082019050610dca6000830184610cb0565b92915050565b6000606082019050610de56000830186610cb0565b610df26020830185610c29565b610dff6040830184610c38565b949350505050565b6000608082019050610e1c6000830187610cb0565b610e296020830186610cb0565b610e366040830185610cb0565b610e436060830184610cb0565b95945050505050565b600082825260208201905092915050565b6000610e6882610fb0565b9150610e7383610fb0565b9250827fffffffffffffffffffffffffffffffffffffffffffffffffffffffffffffffff03821115610ea857610ea7611003565b5b828201905092915050565b6000610ebe82610fb0565b9150610ec983610fb0565b925082610ed957610ed8611032565b5b828204905092915050565b6000610eef82610fb0565b9150610efa83610fb0565b9250817fffffffffffffffffffffffffffffffffffffffffffffffffffffffffffffffff0483118215151615610f3357610f32611003565b5b828202905092915050565b6000610f4982610fb0565b9150610f5483610fb0565b925082821015610f6757610f66611003565b5b828203905092915050565b6000610f7d82610f90565b9050919050565b60008115159050919050565b600073ffffffffffffffffffffffffffffffffffffffff82169050919050565b6000819050919050565b6000610fc582610fb0565b91507fffffffffffffffffffffffffffffffffffffffffffffffffffffffffffffffff821415610ff857610ff7611003565b5b600182019050919050565b7f4e487b7100000000000000000000000000000000000000000000000000000000600052601160045260246000fd5b7f4e487b7100000000000000000000000000000000000000000000000000000000600052601260045260246000fd5b7f4e487b7100000000000000000000000000000000000000000000000000000000600052603260045260246000fd5b7f4e487b7100000000000000000000000000000000000000000000000000000000600052604160045260246000fd5b600080fd5b7f61736b696e6720746f6b656e7320617265206d6f7265207468616e207468652060008201527f6c696d6974000000000000000000000000000000000000000000000000000000602082015250565b7f746f6b656e7320646f6573206e6f74207472616e736665727265640000000000600082015250565b7f796f7520646f6e74206861766520656e6f7567682062616c616e636520746f2060008201527f6275790000000000000000000000000000000000000000000000000000000000602082015250565b61119481610f72565b811461119f57600080fd5b50565b6111ab81610f84565b81146111b657600080fd5b50565b6111c281610fb0565b81146111cd57600080fd5b5056fea26469706673582212203073213dfccfa668e39c93a2557fe8ef9c0a9d583ceaad80ceb003da8f09746964736f6c63430008070033",
					"opcodes": "PUSH1 0x80 PUSH1 0x40 MSTORE CALLVALUE DUP1 ISZERO PUSH2 0x10 JUMPI PUSH1 0x0 DUP1 REVERT JUMPDEST POP PUSH2 0x1206 DUP1 PUSH2 0x20 PUSH1 0x0 CODECOPY PUSH1 0x0 RETURN INVALID PUSH1 0x80 PUSH1 0x40 MSTORE CALLVALUE DUP1 ISZERO PUSH2 0x10 JUMPI PUSH1 0x0 DUP1 REVERT JUMPDEST POP PUSH1 0x4 CALLDATASIZE LT PUSH2 0x57 JUMPI PUSH1 0x0 CALLDATALOAD PUSH1 0xE0 SHR DUP1 PUSH4 0x1FEF3056 EQ PUSH2 0x5C JUMPI DUP1 PUSH4 0x34D5F37B EQ PUSH2 0x7A JUMPI DUP1 PUSH4 0x4E70B1DC EQ PUSH2 0xAD JUMPI DUP1 PUSH4 0x81E7E20E EQ PUSH2 0xCB JUMPI DUP1 PUSH4 0xC68D4A38 EQ PUSH2 0xFD JUMPI JUMPDEST PUSH1 0x0 DUP1 REVERT JUMPDEST PUSH2 0x64 PUSH2 0x12D JUMP JUMPDEST PUSH1 0x40 MLOAD PUSH2 0x71 SWAP2 SWAP1 PUSH2 0xCBF JUMP JUMPDEST PUSH1 0x40 MLOAD DUP1 SWAP2 SUB SWAP1 RETURN JUMPDEST PUSH2 0x94 PUSH1 0x4 DUP1 CALLDATASIZE SUB DUP2 ADD SWAP1 PUSH2 0x8F SWAP2 SWAP1 PUSH2 0xBCF JUMP JUMPDEST PUSH2 0x153 JUMP JUMPDEST PUSH1 0x40 MLOAD PUSH2 0xA4 SWAP5 SWAP4 SWAP3 SWAP2 SWAP1 PUSH2 0xE07 JUMP JUMPDEST PUSH1 0x40 MLOAD DUP1 SWAP2 SUB SWAP1 RETURN JUMPDEST PUSH2 0xB5 PUSH2 0x183 JUMP JUMPDEST PUSH1 0x40 MLOAD PUSH2 0xC2 SWAP2 SWAP1 PUSH2 0xDB5 JUMP JUMPDEST PUSH1 0x40 MLOAD DUP1 SWAP2 SUB SWAP1 RETURN JUMPDEST PUSH2 0xE5 PUSH1 0x4 DUP1 CALLDATASIZE SUB DUP2 ADD SWAP1 PUSH2 0xE0 SWAP2 SWAP1 PUSH2 0xB75 JUMP JUMPDEST PUSH2 0x189 JUMP JUMPDEST PUSH1 0x40 MLOAD PUSH2 0xF4 SWAP4 SWAP3 SWAP2 SWAP1 PUSH2 0xDD0 JUMP JUMPDEST PUSH1 0x40 MLOAD DUP1 SWAP2 SUB SWAP1 RETURN JUMPDEST PUSH2 0x117 PUSH1 0x4 DUP1 CALLDATASIZE SUB DUP2 ADD SWAP1 PUSH2 0x112 SWAP2 SWAP1 PUSH2 0xB75 JUMP JUMPDEST PUSH2 0x1E0 JUMP JUMPDEST PUSH1 0x40 MLOAD PUSH2 0x124 SWAP2 SWAP1 PUSH2 0xD3A JUMP JUMPDEST PUSH1 0x40 MLOAD DUP1 SWAP2 SUB SWAP1 RETURN JUMPDEST PUSH1 0x2 PUSH1 0x0 SWAP1 SLOAD SWAP1 PUSH2 0x100 EXP SWAP1 DIV PUSH20 0xFFFFFFFFFFFFFFFFFFFFFFFFFFFFFFFFFFFFFFFF AND DUP2 JUMP JUMPDEST PUSH1 0x1 PUSH1 0x20 MSTORE DUP1 PUSH1 0x0 MSTORE PUSH1 0x40 PUSH1 0x0 KECCAK256 PUSH1 0x0 SWAP2 POP SWAP1 POP DUP1 PUSH1 0x0 ADD SLOAD SWAP1 DUP1 PUSH1 0x1 ADD SLOAD SWAP1 DUP1 PUSH1 0x2 ADD SLOAD SWAP1 DUP1 PUSH1 0x3 ADD SLOAD SWAP1 POP DUP5 JUMP JUMPDEST PUSH1 0x3 SLOAD DUP2 JUMP JUMPDEST PUSH1 0x0 PUSH1 0x20 MSTORE DUP1 PUSH1 0x0 MSTORE PUSH1 0x40 PUSH1 0x0 KECCAK256 PUSH1 0x0 SWAP2 POP SWAP1 POP DUP1 PUSH1 0x0 ADD SLOAD SWAP1 DUP1 PUSH1 0x1 ADD PUSH1 0x0 SWAP1 SLOAD SWAP1 PUSH2 0x100 EXP SWAP1 DIV PUSH20 0xFFFFFFFFFFFFFFFFFFFFFFFFFFFFFFFFFFFFFFFF AND SWAP1 DUP1 PUSH1 0x1 ADD PUSH1 0x14 SWAP1 SLOAD SWAP1 PUSH2 0x100 EXP SWAP1 DIV PUSH1 0xFF AND SWAP1 POP DUP4 JUMP JUMPDEST PUSH1 0x0 PUSH1 0x1 PUSH1 0x0 PUSH1 0x3 SLOAD DUP2 MSTORE PUSH1 0x20 ADD SWAP1 DUP2 MSTORE PUSH1 0x20 ADD PUSH1 0x0 KECCAK256 PUSH1 0x3 ADD SLOAD PUSH1 0x1 PUSH1 0x0 PUSH1 0x3 SLOAD DUP2 MSTORE PUSH1 0x20 ADD SWAP1 DUP2 MSTORE PUSH1 0x20 ADD PUSH1 0x0 KECCAK256 PUSH1 0x1 ADD SLOAD GT ISZERO PUSH2 0x255 JUMPI PUSH1 0x40 MLOAD PUSH32 0x8C379A000000000000000000000000000000000000000000000000000000000 DUP2 MSTORE PUSH1 0x4 ADD PUSH2 0x24C SWAP1 PUSH2 0xD55 JUMP JUMPDEST PUSH1 0x40 MLOAD DUP1 SWAP2 SUB SWAP1 REVERT JUMPDEST PUSH8 0xDE0B6B3A7640000 PUSH1 0x1 PUSH1 0x0 PUSH1 0x3 SLOAD DUP2 MSTORE PUSH1 0x20 ADD SWAP1 DUP2 MSTORE PUSH1 0x20 ADD PUSH1 0x0 KECCAK256 PUSH1 0x2 ADD SLOAD PUSH2 0x281 SWAP2 SWAP1 PUSH2 0xEE4 JUMP JUMPDEST PUSH1 0x2 PUSH1 0x0 SWAP1 SLOAD SWAP1 PUSH2 0x100 EXP SWAP1 DIV PUSH20 0xFFFFFFFFFFFFFFFFFFFFFFFFFFFFFFFFFFFFFFFF AND PUSH20 0xFFFFFFFFFFFFFFFFFFFFFFFFFFFFFFFFFFFFFFFF AND PUSH4 0x70A08231 CALLER PUSH1 0x40 MLOAD DUP3 PUSH4 0xFFFFFFFF AND PUSH1 0xE0 SHL DUP2 MSTORE PUSH1 0x4 ADD PUSH2 0x2DC SWAP2 SWAP1 PUSH2 0xCBF JUMP JUMPDEST PUSH1 0x20 PUSH1 0x40 MLOAD DUP1 DUP4 SUB DUP2 DUP7 DUP1 EXTCODESIZE ISZERO DUP1 ISZERO PUSH2 0x2F4 JUMPI PUSH1 0x0 DUP1 REVERT JUMPDEST POP GAS STATICCALL ISZERO DUP1 ISZERO PUSH2 0x308 JUMPI RETURNDATASIZE PUSH1 0x0 DUP1 RETURNDATACOPY RETURNDATASIZE PUSH1 0x0 REVERT JUMPDEST POP POP POP POP PUSH1 0x40 MLOAD RETURNDATASIZE PUSH1 0x1F NOT PUSH1 0x1F DUP3 ADD AND DUP3 ADD DUP1 PUSH1 0x40 MSTORE POP DUP2 ADD SWAP1 PUSH2 0x32C SWAP2 SWAP1 PUSH2 0xBFC JUMP JUMPDEST GT PUSH2 0x36C JUMPI PUSH1 0x40 MLOAD PUSH32 0x8C379A000000000000000000000000000000000000000000000000000000000 DUP2 MSTORE PUSH1 0x4 ADD PUSH2 0x363 SWAP1 PUSH2 0xD95 JUMP JUMPDEST PUSH1 0x40 MLOAD DUP1 SWAP2 SUB SWAP1 REVERT JUMPDEST PUSH1 0x2 PUSH1 0x0 SWAP1 SLOAD SWAP1 PUSH2 0x100 EXP SWAP1 DIV PUSH20 0xFFFFFFFFFFFFFFFFFFFFFFFFFFFFFFFFFFFFFFFF AND PUSH20 0xFFFFFFFFFFFFFFFFFFFFFFFFFFFFFFFFFFFFFFFF AND PUSH4 0x23B872DD CALLER ADDRESS PUSH8 0xDE0B6B3A7640000 PUSH1 0x1 PUSH1 0x0 PUSH1 0x3 SLOAD DUP2 MSTORE PUSH1 0x20 ADD SWAP1 DUP2 MSTORE PUSH1 0x20 ADD PUSH1 0x0 KECCAK256 PUSH1 0x2 ADD SLOAD PUSH2 0x3D8 SWAP2 SWAP1 PUSH2 0xEE4 JUMP JUMPDEST PUSH1 0x40 MLOAD DUP5 PUSH4 0xFFFFFFFF AND PUSH1 0xE0 SHL DUP2 MSTORE PUSH1 0x4 ADD PUSH2 0x3F6 SWAP4 SWAP3 SWAP2 SWAP1 PUSH2 0xCDA JUMP JUMPDEST PUSH1 0x20 PUSH1 0x40 MLOAD DUP1 DUP4 SUB DUP2 PUSH1 0x0 DUP8 DUP1 EXTCODESIZE ISZERO DUP1 ISZERO PUSH2 0x410 JUMPI PUSH1 0x0 DUP1 REVERT JUMPDEST POP GAS CALL ISZERO DUP1 ISZERO PUSH2 0x424 JUMPI RETURNDATASIZE PUSH1 0x0 DUP1 RETURNDATACOPY RETURNDATASIZE PUSH1 0x0 REVERT JUMPDEST POP POP POP POP PUSH1 0x40 MLOAD RETURNDATASIZE PUSH1 0x1F NOT PUSH1 0x1F DUP3 ADD AND DUP3 ADD DUP1 PUSH1 0x40 MSTORE POP DUP2 ADD SWAP1 PUSH2 0x448 SWAP2 SWAP1 PUSH2 0xBA2 JUMP JUMPDEST PUSH2 0x487 JUMPI PUSH1 0x40 MLOAD PUSH32 0x8C379A000000000000000000000000000000000000000000000000000000000 DUP2 MSTORE PUSH1 0x4 ADD PUSH2 0x47E SWAP1 PUSH2 0xD75 JUMP JUMPDEST PUSH1 0x40 MLOAD DUP1 SWAP2 SUB SWAP1 REVERT JUMPDEST PUSH1 0x1 PUSH1 0x0 PUSH1 0x3 SLOAD DUP2 MSTORE PUSH1 0x20 ADD SWAP1 DUP2 MSTORE PUSH1 0x20 ADD PUSH1 0x0 KECCAK256 PUSH1 0x0 ADD SLOAD PUSH1 0x0 DUP1 CALLER PUSH20 0xFFFFFFFFFFFFFFFFFFFFFFFFFFFFFFFFFFFFFFFF AND PUSH20 0xFFFFFFFFFFFFFFFFFFFFFFFFFFFFFFFFFFFFFFFF AND DUP2 MSTORE PUSH1 0x20 ADD SWAP1 DUP2 MSTORE PUSH1 0x20 ADD PUSH1 0x0 KECCAK256 PUSH1 0x0 ADD PUSH1 0x0 DUP3 DUP3 SLOAD PUSH2 0x4F0 SWAP2 SWAP1 PUSH2 0xE5D JUMP JUMPDEST SWAP3 POP POP DUP2 SWAP1 SSTORE POP PUSH1 0x1 PUSH1 0x0 PUSH1 0x3 SLOAD DUP2 MSTORE PUSH1 0x20 ADD SWAP1 DUP2 MSTORE PUSH1 0x20 ADD PUSH1 0x0 KECCAK256 PUSH1 0x0 ADD SLOAD PUSH1 0x1 PUSH1 0x0 PUSH1 0x3 SLOAD DUP2 MSTORE PUSH1 0x20 ADD SWAP1 DUP2 MSTORE PUSH1 0x20 ADD PUSH1 0x0 KECCAK256 PUSH1 0x3 ADD PUSH1 0x0 DUP3 DUP3 SLOAD PUSH2 0x537 SWAP2 SWAP1 PUSH2 0xF3E JUMP JUMPDEST SWAP3 POP POP DUP2 SWAP1 SSTORE POP PUSH1 0x0 PUSH20 0xFFFFFFFFFFFFFFFFFFFFFFFFFFFFFFFFFFFFFFFF AND DUP3 PUSH20 0xFFFFFFFFFFFFFFFFFFFFFFFFFFFFFFFFFFFFFFFF AND EQ DUP1 PUSH2 0x5A4 JUMPI POP CALLER PUSH20 0xFFFFFFFFFFFFFFFFFFFFFFFFFFFFFFFFFFFFFFFF AND DUP3 PUSH20 0xFFFFFFFFFFFFFFFFFFFFFFFFFFFFFFFFFFFFFFFF AND EQ JUMPDEST ISZERO PUSH2 0x62F JUMPI PUSH1 0x0 DUP1 PUSH1 0x0 CALLER PUSH20 0xFFFFFFFFFFFFFFFFFFFFFFFFFFFFFFFFFFFFFFFF AND PUSH20 0xFFFFFFFFFFFFFFFFFFFFFFFFFFFFFFFFFFFFFFFF AND DUP2 MSTORE PUSH1 0x20 ADD SWAP1 DUP2 MSTORE PUSH1 0x20 ADD PUSH1 0x0 KECCAK256 PUSH1 0x1 ADD PUSH1 0x0 PUSH2 0x100 EXP DUP2 SLOAD DUP2 PUSH20 0xFFFFFFFFFFFFFFFFFFFFFFFFFFFFFFFFFFFFFFFF MUL NOT AND SWAP1 DUP4 PUSH20 0xFFFFFFFFFFFFFFFFFFFFFFFFFFFFFFFFFFFFFFFF AND MUL OR SWAP1 SSTORE POP PUSH2 0x7D0 JUMP JUMPDEST PUSH1 0x0 ISZERO ISZERO PUSH1 0x0 DUP1 CALLER PUSH20 0xFFFFFFFFFFFFFFFFFFFFFFFFFFFFFFFFFFFFFFFF AND PUSH20 0xFFFFFFFFFFFFFFFFFFFFFFFFFFFFFFFFFFFFFFFF AND DUP2 MSTORE PUSH1 0x20 ADD SWAP1 DUP2 MSTORE PUSH1 0x20 ADD PUSH1 0x0 KECCAK256 PUSH1 0x1 ADD PUSH1 0x14 SWAP1 SLOAD SWAP1 PUSH2 0x100 EXP SWAP1 DIV PUSH1 0xFF AND ISZERO ISZERO EQ ISZERO PUSH2 0x7AD JUMPI DUP2 PUSH1 0x0 DUP1 CALLER PUSH20 0xFFFFFFFFFFFFFFFFFFFFFFFFFFFFFFFFFFFFFFFF AND PUSH20 0xFFFFFFFFFFFFFFFFFFFFFFFFFFFFFFFFFFFFFFFF AND DUP2 MSTORE PUSH1 0x20 ADD SWAP1 DUP2 MSTORE PUSH1 0x20 ADD PUSH1 0x0 KECCAK256 PUSH1 0x1 ADD PUSH1 0x0 PUSH2 0x100 EXP DUP2 SLOAD DUP2 PUSH20 0xFFFFFFFFFFFFFFFFFFFFFFFFFFFFFFFFFFFFFFFF MUL NOT AND SWAP1 DUP4 PUSH20 0xFFFFFFFFFFFFFFFFFFFFFFFFFFFFFFFFFFFFFFFF AND MUL OR SWAP1 SSTORE POP PUSH1 0x0 DUP1 DUP4 PUSH20 0xFFFFFFFFFFFFFFFFFFFFFFFFFFFFFFFFFFFFFFFF AND PUSH20 0xFFFFFFFFFFFFFFFFFFFFFFFFFFFFFFFFFFFFFFFF AND DUP2 MSTORE PUSH1 0x20 ADD SWAP1 DUP2 MSTORE PUSH1 0x20 ADD PUSH1 0x0 KECCAK256 PUSH1 0x2 ADD CALLER SWAP1 DUP1 PUSH1 0x1 DUP2 SLOAD ADD DUP1 DUP3 SSTORE DUP1 SWAP2 POP POP PUSH1 0x1 SWAP1 SUB SWAP1 PUSH1 0x0 MSTORE PUSH1 0x20 PUSH1 0x0 KECCAK256 ADD PUSH1 0x0 SWAP1 SWAP2 SWAP1 SWAP2 SWAP1 SWAP2 PUSH2 0x100 EXP DUP2 SLOAD DUP2 PUSH20 0xFFFFFFFFFFFFFFFFFFFFFFFFFFFFFFFFFFFFFFFF MUL NOT AND SWAP1 DUP4 PUSH20 0xFFFFFFFFFFFFFFFFFFFFFFFFFFFFFFFFFFFFFFFF AND MUL OR SWAP1 SSTORE POP JUMPDEST PUSH2 0x7CF CALLER PUSH1 0x1 PUSH1 0x0 PUSH1 0x3 SLOAD DUP2 MSTORE PUSH1 0x20 ADD SWAP1 DUP2 MSTORE PUSH1 0x20 ADD PUSH1 0x0 KECCAK256 PUSH1 0x0 ADD SLOAD PUSH2 0x80F JUMP JUMPDEST JUMPDEST PUSH1 0x0 PUSH1 0x1 PUSH1 0x0 PUSH1 0x3 SLOAD DUP2 MSTORE PUSH1 0x20 ADD SWAP1 DUP2 MSTORE PUSH1 0x20 ADD PUSH1 0x0 KECCAK256 PUSH1 0x3 ADD SLOAD EQ ISZERO PUSH2 0x80A JUMPI PUSH1 0x3 PUSH1 0x0 DUP2 SLOAD DUP1 SWAP3 SWAP2 SWAP1 PUSH2 0x804 SWAP1 PUSH2 0xFBA JUMP JUMPDEST SWAP2 SWAP1 POP SSTORE POP JUMPDEST SWAP2 SWAP1 POP JUMP JUMPDEST PUSH1 0x0 DUP3 SWAP1 POP PUSH1 0x0 PUSH1 0x5 PUSH8 0xFFFFFFFFFFFFFFFF DUP2 GT ISZERO PUSH2 0x831 JUMPI PUSH2 0x830 PUSH2 0x1090 JUMP JUMPDEST JUMPDEST PUSH1 0x40 MLOAD SWAP1 DUP1 DUP3 MSTORE DUP1 PUSH1 0x20 MUL PUSH1 0x20 ADD DUP3 ADD PUSH1 0x40 MSTORE DUP1 ISZERO PUSH2 0x85F JUMPI DUP2 PUSH1 0x20 ADD PUSH1 0x20 DUP3 MUL DUP1 CALLDATASIZE DUP4 CALLDATACOPY DUP1 DUP3 ADD SWAP2 POP POP SWAP1 POP JUMPDEST POP SWAP1 POP PUSH1 0x5 DUP2 PUSH1 0x0 DUP2 MLOAD DUP2 LT PUSH2 0x878 JUMPI PUSH2 0x877 PUSH2 0x1061 JUMP JUMPDEST JUMPDEST PUSH1 0x20 MUL PUSH1 0x20 ADD ADD DUP2 DUP2 MSTORE POP POP PUSH1 0x4 DUP2 PUSH1 0x1 DUP2 MLOAD DUP2 LT PUSH2 0x89A JUMPI PUSH2 0x899 PUSH2 0x1061 JUMP JUMPDEST JUMPDEST PUSH1 0x20 MUL PUSH1 0x20 ADD ADD DUP2 DUP2 MSTORE POP POP PUSH1 0x3 DUP2 PUSH1 0x2 DUP2 MLOAD DUP2 LT PUSH2 0x8BC JUMPI PUSH2 0x8BB PUSH2 0x1061 JUMP JUMPDEST JUMPDEST PUSH1 0x20 MUL PUSH1 0x20 ADD ADD DUP2 DUP2 MSTORE POP POP PUSH1 0x0 DUP1 PUSH1 0x0 SWAP1 POP JUMPDEST PUSH1 0x3 DUP2 LT ISZERO PUSH2 0xB19 JUMPI PUSH1 0x0 DUP2 EQ ISZERO PUSH2 0x8EB JUMPI PUSH1 0x0 SWAP2 POP PUSH2 0x90D JUMP JUMPDEST PUSH1 0x1 DUP2 EQ ISZERO PUSH2 0x8FD JUMPI PUSH1 0x1 SWAP2 POP PUSH2 0x90C JUMP JUMPDEST PUSH1 0x2 DUP2 EQ ISZERO PUSH2 0x90B JUMPI PUSH1 0x2 SWAP2 POP JUMPDEST JUMPDEST JUMPDEST PUSH1 0x0 PUSH20 0xFFFFFFFFFFFFFFFFFFFFFFFFFFFFFFFFFFFFFFFF AND PUSH1 0x0 DUP1 DUP7 PUSH20 0xFFFFFFFFFFFFFFFFFFFFFFFFFFFFFFFFFFFFFFFF AND PUSH20 0xFFFFFFFFFFFFFFFFFFFFFFFFFFFFFFFFFFFFFFFF AND DUP2 MSTORE PUSH1 0x20 ADD SWAP1 DUP2 MSTORE PUSH1 0x20 ADD PUSH1 0x0 KECCAK256 PUSH1 0x1 ADD PUSH1 0x0 SWAP1 SLOAD SWAP1 PUSH2 0x100 EXP SWAP1 DIV PUSH20 0xFFFFFFFFFFFFFFFFFFFFFFFFFFFFFFFFFFFFFFFF AND PUSH20 0xFFFFFFFFFFFFFFFFFFFFFFFFFFFFFFFFFFFFFFFF AND EQ PUSH2 0xB01 JUMPI PUSH1 0x0 DUP1 DUP6 PUSH20 0xFFFFFFFFFFFFFFFFFFFFFFFFFFFFFFFFFFFFFFFF AND PUSH20 0xFFFFFFFFFFFFFFFFFFFFFFFFFFFFFFFFFFFFFFFF AND DUP2 MSTORE PUSH1 0x20 ADD SWAP1 DUP2 MSTORE PUSH1 0x20 ADD PUSH1 0x0 KECCAK256 PUSH1 0x1 ADD PUSH1 0x0 SWAP1 SLOAD SWAP1 PUSH2 0x100 EXP SWAP1 DIV PUSH20 0xFFFFFFFFFFFFFFFFFFFFFFFFFFFFFFFFFFFFFFFF AND SWAP4 POP PUSH1 0x0 PUSH1 0x64 DUP7 PUSH4 0x5F5E100 DUP7 DUP7 DUP2 MLOAD DUP2 LT PUSH2 0xA23 JUMPI PUSH2 0xA22 PUSH2 0x1061 JUMP JUMPDEST JUMPDEST PUSH1 0x20 MUL PUSH1 0x20 ADD ADD MLOAD PUSH2 0xA35 SWAP2 SWAP1 PUSH2 0xEE4 JUMP JUMPDEST PUSH2 0xA3F SWAP2 SWAP1 PUSH2 0xEE4 JUMP JUMPDEST PUSH2 0xA49 SWAP2 SWAP1 PUSH2 0xEB3 JUMP JUMPDEST SWAP1 POP PUSH1 0x2 PUSH1 0x0 SWAP1 SLOAD SWAP1 PUSH2 0x100 EXP SWAP1 DIV PUSH20 0xFFFFFFFFFFFFFFFFFFFFFFFFFFFFFFFFFFFFFFFF AND PUSH20 0xFFFFFFFFFFFFFFFFFFFFFFFFFFFFFFFFFFFFFFFF AND PUSH4 0xA9059CBB DUP7 DUP4 PUSH1 0x40 MLOAD DUP4 PUSH4 0xFFFFFFFF AND PUSH1 0xE0 SHL DUP2 MSTORE PUSH1 0x4 ADD PUSH2 0xAA8 SWAP3 SWAP2 SWAP1 PUSH2 0xD11 JUMP JUMPDEST PUSH1 0x20 PUSH1 0x40 MLOAD DUP1 DUP4 SUB DUP2 PUSH1 0x0 DUP8 DUP1 EXTCODESIZE ISZERO DUP1 ISZERO PUSH2 0xAC2 JUMPI PUSH1 0x0 DUP1 REVERT JUMPDEST POP GAS CALL ISZERO DUP1 ISZERO PUSH2 0xAD6 JUMPI RETURNDATASIZE PUSH1 0x0 DUP1 RETURNDATACOPY RETURNDATASIZE PUSH1 0x0 REVERT JUMPDEST POP POP POP POP PUSH1 0x40 MLOAD RETURNDATASIZE PUSH1 0x1F NOT PUSH1 0x1F DUP3 ADD AND DUP3 ADD DUP1 PUSH1 0x40 MSTORE POP DUP2 ADD SWAP1 PUSH2 0xAFA SWAP2 SWAP1 PUSH2 0xBA2 JUMP JUMPDEST POP POP PUSH2 0xB06 JUMP JUMPDEST PUSH2 0xB19 JUMP JUMPDEST DUP1 DUP1 PUSH2 0xB11 SWAP1 PUSH2 0xFBA JUMP JUMPDEST SWAP2 POP POP PUSH2 0x8D0 JUMP JUMPDEST POP POP POP POP POP POP JUMP JUMPDEST PUSH1 0x0 DUP2 CALLDATALOAD SWAP1 POP PUSH2 0xB30 DUP2 PUSH2 0x118B JUMP JUMPDEST SWAP3 SWAP2 POP POP JUMP JUMPDEST PUSH1 0x0 DUP2 MLOAD SWAP1 POP PUSH2 0xB45 DUP2 PUSH2 0x11A2 JUMP JUMPDEST SWAP3 SWAP2 POP POP JUMP JUMPDEST PUSH1 0x0 DUP2 CALLDATALOAD SWAP1 POP PUSH2 0xB5A DUP2 PUSH2 0x11B9 JUMP JUMPDEST SWAP3 SWAP2 POP POP JUMP JUMPDEST PUSH1 0x0 DUP2 MLOAD SWAP1 POP PUSH2 0xB6F DUP2 PUSH2 0x11B9 JUMP JUMPDEST SWAP3 SWAP2 POP POP JUMP JUMPDEST PUSH1 0x0 PUSH1 0x20 DUP3 DUP5 SUB SLT ISZERO PUSH2 0xB8B JUMPI PUSH2 0xB8A PUSH2 0x10BF JUMP JUMPDEST JUMPDEST PUSH1 0x0 PUSH2 0xB99 DUP5 DUP3 DUP6 ADD PUSH2 0xB21 JUMP JUMPDEST SWAP2 POP POP SWAP3 SWAP2 POP POP JUMP JUMPDEST PUSH1 0x0 PUSH1 0x20 DUP3 DUP5 SUB SLT ISZERO PUSH2 0xBB8 JUMPI PUSH2 0xBB7 PUSH2 0x10BF JUMP JUMPDEST JUMPDEST PUSH1 0x0 PUSH2 0xBC6 DUP5 DUP3 DUP6 ADD PUSH2 0xB36 JUMP JUMPDEST SWAP2 POP POP SWAP3 SWAP2 POP POP JUMP JUMPDEST PUSH1 0x0 PUSH1 0x20 DUP3 DUP5 SUB SLT ISZERO PUSH2 0xBE5 JUMPI PUSH2 0xBE4 PUSH2 0x10BF JUMP JUMPDEST JUMPDEST PUSH1 0x0 PUSH2 0xBF3 DUP5 DUP3 DUP6 ADD PUSH2 0xB4B JUMP JUMPDEST SWAP2 POP POP SWAP3 SWAP2 POP POP JUMP JUMPDEST PUSH1 0x0 PUSH1 0x20 DUP3 DUP5 SUB SLT ISZERO PUSH2 0xC12 JUMPI PUSH2 0xC11 PUSH2 0x10BF JUMP JUMPDEST JUMPDEST PUSH1 0x0 PUSH2 0xC20 DUP5 DUP3 DUP6 ADD PUSH2 0xB60 JUMP JUMPDEST SWAP2 POP POP SWAP3 SWAP2 POP POP JUMP JUMPDEST PUSH2 0xC32 DUP2 PUSH2 0xF72 JUMP JUMPDEST DUP3 MSTORE POP POP JUMP JUMPDEST PUSH2 0xC41 DUP2 PUSH2 0xF84 JUMP JUMPDEST DUP3 MSTORE POP POP JUMP JUMPDEST PUSH1 0x0 PUSH2 0xC54 PUSH1 0x25 DUP4 PUSH2 0xE4C JUMP JUMPDEST SWAP2 POP PUSH2 0xC5F DUP3 PUSH2 0x10C4 JUMP JUMPDEST PUSH1 0x40 DUP3 ADD SWAP1 POP SWAP2 SWAP1 POP JUMP JUMPDEST PUSH1 0x0 PUSH2 0xC77 PUSH1 0x1B DUP4 PUSH2 0xE4C JUMP JUMPDEST SWAP2 POP PUSH2 0xC82 DUP3 PUSH2 0x1113 JUMP JUMPDEST PUSH1 0x20 DUP3 ADD SWAP1 POP SWAP2 SWAP1 POP JUMP JUMPDEST PUSH1 0x0 PUSH2 0xC9A PUSH1 0x23 DUP4 PUSH2 0xE4C JUMP JUMPDEST SWAP2 POP PUSH2 0xCA5 DUP3 PUSH2 0x113C JUMP JUMPDEST PUSH1 0x40 DUP3 ADD SWAP1 POP SWAP2 SWAP1 POP JUMP JUMPDEST PUSH2 0xCB9 DUP2 PUSH2 0xFB0 JUMP JUMPDEST DUP3 MSTORE POP POP JUMP JUMPDEST PUSH1 0x0 PUSH1 0x20 DUP3 ADD SWAP1 POP PUSH2 0xCD4 PUSH1 0x0 DUP4 ADD DUP5 PUSH2 0xC29 JUMP JUMPDEST SWAP3 SWAP2 POP POP JUMP JUMPDEST PUSH1 0x0 PUSH1 0x60 DUP3 ADD SWAP1 POP PUSH2 0xCEF PUSH1 0x0 DUP4 ADD DUP7 PUSH2 0xC29 JUMP JUMPDEST PUSH2 0xCFC PUSH1 0x20 DUP4 ADD DUP6 PUSH2 0xC29 JUMP JUMPDEST PUSH2 0xD09 PUSH1 0x40 DUP4 ADD DUP5 PUSH2 0xCB0 JUMP JUMPDEST SWAP5 SWAP4 POP POP POP POP JUMP JUMPDEST PUSH1 0x0 PUSH1 0x40 DUP3 ADD SWAP1 POP PUSH2 0xD26 PUSH1 0x0 DUP4 ADD DUP6 PUSH2 0xC29 JUMP JUMPDEST PUSH2 0xD33 PUSH1 0x20 DUP4 ADD DUP5 PUSH2 0xCB0 JUMP JUMPDEST SWAP4 SWAP3 POP POP POP JUMP JUMPDEST PUSH1 0x0 PUSH1 0x20 DUP3 ADD SWAP1 POP PUSH2 0xD4F PUSH1 0x0 DUP4 ADD DUP5 PUSH2 0xC38 JUMP JUMPDEST SWAP3 SWAP2 POP POP JUMP JUMPDEST PUSH1 0x0 PUSH1 0x20 DUP3 ADD SWAP1 POP DUP2 DUP2 SUB PUSH1 0x0 DUP4 ADD MSTORE PUSH2 0xD6E DUP2 PUSH2 0xC47 JUMP JUMPDEST SWAP1 POP SWAP2 SWAP1 POP JUMP JUMPDEST PUSH1 0x0 PUSH1 0x20 DUP3 ADD SWAP1 POP DUP2 DUP2 SUB PUSH1 0x0 DUP4 ADD MSTORE PUSH2 0xD8E DUP2 PUSH2 0xC6A JUMP JUMPDEST SWAP1 POP SWAP2 SWAP1 POP JUMP JUMPDEST PUSH1 0x0 PUSH1 0x20 DUP3 ADD SWAP1 POP DUP2 DUP2 SUB PUSH1 0x0 DUP4 ADD MSTORE PUSH2 0xDAE DUP2 PUSH2 0xC8D JUMP JUMPDEST SWAP1 POP SWAP2 SWAP1 POP JUMP JUMPDEST PUSH1 0x0 PUSH1 0x20 DUP3 ADD SWAP1 POP PUSH2 0xDCA PUSH1 0x0 DUP4 ADD DUP5 PUSH2 0xCB0 JUMP JUMPDEST SWAP3 SWAP2 POP POP JUMP JUMPDEST PUSH1 0x0 PUSH1 0x60 DUP3 ADD SWAP1 POP PUSH2 0xDE5 PUSH1 0x0 DUP4 ADD DUP7 PUSH2 0xCB0 JUMP JUMPDEST PUSH2 0xDF2 PUSH1 0x20 DUP4 ADD DUP6 PUSH2 0xC29 JUMP JUMPDEST PUSH2 0xDFF PUSH1 0x40 DUP4 ADD DUP5 PUSH2 0xC38 JUMP JUMPDEST SWAP5 SWAP4 POP POP POP POP JUMP JUMPDEST PUSH1 0x0 PUSH1 0x80 DUP3 ADD SWAP1 POP PUSH2 0xE1C PUSH1 0x0 DUP4 ADD DUP8 PUSH2 0xCB0 JUMP JUMPDEST PUSH2 0xE29 PUSH1 0x20 DUP4 ADD DUP7 PUSH2 0xCB0 JUMP JUMPDEST PUSH2 0xE36 PUSH1 0x40 DUP4 ADD DUP6 PUSH2 0xCB0 JUMP JUMPDEST PUSH2 0xE43 PUSH1 0x60 DUP4 ADD DUP5 PUSH2 0xCB0 JUMP JUMPDEST SWAP6 SWAP5 POP POP POP POP POP JUMP JUMPDEST PUSH1 0x0 DUP3 DUP3 MSTORE PUSH1 0x20 DUP3 ADD SWAP1 POP SWAP3 SWAP2 POP POP JUMP JUMPDEST PUSH1 0x0 PUSH2 0xE68 DUP3 PUSH2 0xFB0 JUMP JUMPDEST SWAP2 POP PUSH2 0xE73 DUP4 PUSH2 0xFB0 JUMP JUMPDEST SWAP3 POP DUP3 PUSH32 0xFFFFFFFFFFFFFFFFFFFFFFFFFFFFFFFFFFFFFFFFFFFFFFFFFFFFFFFFFFFFFFFF SUB DUP3 GT ISZERO PUSH2 0xEA8 JUMPI PUSH2 0xEA7 PUSH2 0x1003 JUMP JUMPDEST JUMPDEST DUP3 DUP3 ADD SWAP1 POP SWAP3 SWAP2 POP POP JUMP JUMPDEST PUSH1 0x0 PUSH2 0xEBE DUP3 PUSH2 0xFB0 JUMP JUMPDEST SWAP2 POP PUSH2 0xEC9 DUP4 PUSH2 0xFB0 JUMP JUMPDEST SWAP3 POP DUP3 PUSH2 0xED9 JUMPI PUSH2 0xED8 PUSH2 0x1032 JUMP JUMPDEST JUMPDEST DUP3 DUP3 DIV SWAP1 POP SWAP3 SWAP2 POP POP JUMP JUMPDEST PUSH1 0x0 PUSH2 0xEEF DUP3 PUSH2 0xFB0 JUMP JUMPDEST SWAP2 POP PUSH2 0xEFA DUP4 PUSH2 0xFB0 JUMP JUMPDEST SWAP3 POP DUP2 PUSH32 0xFFFFFFFFFFFFFFFFFFFFFFFFFFFFFFFFFFFFFFFFFFFFFFFFFFFFFFFFFFFFFFFF DIV DUP4 GT DUP3 ISZERO ISZERO AND ISZERO PUSH2 0xF33 JUMPI PUSH2 0xF32 PUSH2 0x1003 JUMP JUMPDEST JUMPDEST DUP3 DUP3 MUL SWAP1 POP SWAP3 SWAP2 POP POP JUMP JUMPDEST PUSH1 0x0 PUSH2 0xF49 DUP3 PUSH2 0xFB0 JUMP JUMPDEST SWAP2 POP PUSH2 0xF54 DUP4 PUSH2 0xFB0 JUMP JUMPDEST SWAP3 POP DUP3 DUP3 LT ISZERO PUSH2 0xF67 JUMPI PUSH2 0xF66 PUSH2 0x1003 JUMP JUMPDEST JUMPDEST DUP3 DUP3 SUB SWAP1 POP SWAP3 SWAP2 POP POP JUMP JUMPDEST PUSH1 0x0 PUSH2 0xF7D DUP3 PUSH2 0xF90 JUMP JUMPDEST SWAP1 POP SWAP2 SWAP1 POP JUMP JUMPDEST PUSH1 0x0 DUP2 ISZERO ISZERO SWAP1 POP SWAP2 SWAP1 POP JUMP JUMPDEST PUSH1 0x0 PUSH20 0xFFFFFFFFFFFFFFFFFFFFFFFFFFFFFFFFFFFFFFFF DUP3 AND SWAP1 POP SWAP2 SWAP1 POP JUMP JUMPDEST PUSH1 0x0 DUP2 SWAP1 POP SWAP2 SWAP1 POP JUMP JUMPDEST PUSH1 0x0 PUSH2 0xFC5 DUP3 PUSH2 0xFB0 JUMP JUMPDEST SWAP2 POP PUSH32 0xFFFFFFFFFFFFFFFFFFFFFFFFFFFFFFFFFFFFFFFFFFFFFFFFFFFFFFFFFFFFFFFF DUP3 EQ ISZERO PUSH2 0xFF8 JUMPI PUSH2 0xFF7 PUSH2 0x1003 JUMP JUMPDEST JUMPDEST PUSH1 0x1 DUP3 ADD SWAP1 POP SWAP2 SWAP1 POP JUMP JUMPDEST PUSH32 0x4E487B7100000000000000000000000000000000000000000000000000000000 PUSH1 0x0 MSTORE PUSH1 0x11 PUSH1 0x4 MSTORE PUSH1 0x24 PUSH1 0x0 REVERT JUMPDEST PUSH32 0x4E487B7100000000000000000000000000000000000000000000000000000000 PUSH1 0x0 MSTORE PUSH1 0x12 PUSH1 0x4 MSTORE PUSH1 0x24 PUSH1 0x0 REVERT JUMPDEST PUSH32 0x4E487B7100000000000000000000000000000000000000000000000000000000 PUSH1 0x0 MSTORE PUSH1 0x32 PUSH1 0x4 MSTORE PUSH1 0x24 PUSH1 0x0 REVERT JUMPDEST PUSH32 0x4E487B7100000000000000000000000000000000000000000000000000000000 PUSH1 0x0 MSTORE PUSH1 0x41 PUSH1 0x4 MSTORE PUSH1 0x24 PUSH1 0x0 REVERT JUMPDEST PUSH1 0x0 DUP1 REVERT JUMPDEST PUSH32 0x61736B696E6720746F6B656E7320617265206D6F7265207468616E2074686520 PUSH1 0x0 DUP3 ADD MSTORE PUSH32 0x6C696D6974000000000000000000000000000000000000000000000000000000 PUSH1 0x20 DUP3 ADD MSTORE POP JUMP JUMPDEST PUSH32 0x746F6B656E7320646F6573206E6F74207472616E736665727265640000000000 PUSH1 0x0 DUP3 ADD MSTORE POP JUMP JUMPDEST PUSH32 0x796F7520646F6E74206861766520656E6F7567682062616C616E636520746F20 PUSH1 0x0 DUP3 ADD MSTORE PUSH32 0x6275790000000000000000000000000000000000000000000000000000000000 PUSH1 0x20 DUP3 ADD MSTORE POP JUMP JUMPDEST PUSH2 0x1194 DUP2 PUSH2 0xF72 JUMP JUMPDEST DUP2 EQ PUSH2 0x119F JUMPI PUSH1 0x0 DUP1 REVERT JUMPDEST POP JUMP JUMPDEST PUSH2 0x11AB DUP2 PUSH2 0xF84 JUMP JUMPDEST DUP2 EQ PUSH2 0x11B6 JUMPI PUSH1 0x0 DUP1 REVERT JUMPDEST POP JUMP JUMPDEST PUSH2 0x11C2 DUP2 PUSH2 0xFB0 JUMP JUMPDEST DUP2 EQ PUSH2 0x11CD JUMPI PUSH1 0x0 DUP1 REVERT JUMPDEST POP JUMP INVALID LOG2 PUSH5 0x6970667358 0x22 SLT KECCAK256 ADDRESS PUSH20 0x213DFCCFA668E39C93A2557FE8EF9C0A9D583CEA 0xAD DUP1 0xCE 0xB0 SUB 0xDA DUP16 MULMOD PUSH21 0x6964736F6C63430008070033000000000000000000 "
				},
				"gasEstimates": {
					"creation": {
						"codeDepositCost": "922800",
						"executionCost": "962",
						"totalCost": "923762"
					},
					"external": {
						"buy_tokens(address)": "infinite",
						"num()": "2451",
						"round(uint256)": "infinite",
						"usdt_address()": "2492",
						"user(address)": "infinite"
					},
					"internal": {
						"sendRewardToReferrals(address,uint256)": "infinite"
					}
				},
				"methodIdentifiers": {
					"buy_tokens(address)": "c68d4a38",
					"num()": "4e70b1dc",
					"round(uint256)": "34d5f37b",
					"usdt_address()": "1fef3056",
					"user(address)": "81e7e20e"
				}
			},
			"storageLayout": {
				"storage": [
					{
						"astId": 62,
						"contract": "contracts/ODI_with _referral.sol:DOI",
						"label": "user",
						"offset": 0,
						"slot": "0",
						"type": "t_mapping(t_address,t_struct(user_info)48_storage)"
					},
					{
						"astId": 67,
						"contract": "contracts/ODI_with _referral.sol:DOI",
						"label": "round",
						"offset": 0,
						"slot": "1",
						"type": "t_mapping(t_uint256,t_struct(Data)57_storage)"
					},
					{
						"astId": 69,
						"contract": "contracts/ODI_with _referral.sol:DOI",
						"label": "usdt_address",
						"offset": 0,
						"slot": "2",
						"type": "t_address"
					},
					{
						"astId": 71,
						"contract": "contracts/ODI_with _referral.sol:DOI",
						"label": "num",
						"offset": 0,
						"slot": "3",
						"type": "t_uint256"
					}
				],
				"types": {
					"t_address": {
						"encoding": "inplace",
						"label": "address",
						"numberOfBytes": "20"
					},
					"t_array(t_address)dyn_storage": {
						"base": "t_address",
						"encoding": "dynamic_array",
						"label": "address[]",
						"numberOfBytes": "32"
					},
					"t_bool": {
						"encoding": "inplace",
						"label": "bool",
						"numberOfBytes": "1"
					},
					"t_mapping(t_address,t_struct(user_info)48_storage)": {
						"encoding": "mapping",
						"key": "t_address",
						"label": "mapping(address => struct DOI.user_info)",
						"numberOfBytes": "32",
						"value": "t_struct(user_info)48_storage"
					},
					"t_mapping(t_uint256,t_struct(Data)57_storage)": {
						"encoding": "mapping",
						"key": "t_uint256",
						"label": "mapping(uint256 => struct DOI.Data)",
						"numberOfBytes": "32",
						"value": "t_struct(Data)57_storage"
					},
					"t_struct(Data)57_storage": {
						"encoding": "inplace",
						"label": "struct DOI.Data",
						"members": [
							{
								"astId": 50,
								"contract": "contracts/ODI_with _referral.sol:DOI",
								"label": "upper_limit",
								"offset": 0,
								"slot": "0",
								"type": "t_uint256"
							},
							{
								"astId": 52,
								"contract": "contracts/ODI_with _referral.sol:DOI",
								"label": "quantity",
								"offset": 0,
								"slot": "1",
								"type": "t_uint256"
							},
							{
								"astId": 54,
								"contract": "contracts/ODI_with _referral.sol:DOI",
								"label": "round_price",
								"offset": 0,
								"slot": "2",
								"type": "t_uint256"
							},
							{
								"astId": 56,
								"contract": "contracts/ODI_with _referral.sol:DOI",
								"label": "total_limit",
								"offset": 0,
								"slot": "3",
								"type": "t_uint256"
							}
						],
						"numberOfBytes": "128"
					},
					"t_struct(user_info)48_storage": {
						"encoding": "inplace",
						"label": "struct DOI.user_info",
						"members": [
							{
								"astId": 40,
								"contract": "contracts/ODI_with _referral.sol:DOI",
								"label": "tokens_for_claiming",
								"offset": 0,
								"slot": "0",
								"type": "t_uint256"
							},
							{
								"astId": 42,
								"contract": "contracts/ODI_with _referral.sol:DOI",
								"label": "referralFrom",
								"offset": 0,
								"slot": "1",
								"type": "t_address"
							},
							{
								"astId": 44,
								"contract": "contracts/ODI_with _referral.sol:DOI",
								"label": "investBefore",
								"offset": 20,
								"slot": "1",
								"type": "t_bool"
							},
							{
								"astId": 47,
								"contract": "contracts/ODI_with _referral.sol:DOI",
								"label": "hisReferrals",
								"offset": 0,
								"slot": "2",
								"type": "t_array(t_address)dyn_storage"
							}
						],
						"numberOfBytes": "96"
					},
					"t_uint256": {
						"encoding": "inplace",
						"label": "uint256",
						"numberOfBytes": "32"
					}
				}
			},
			"userdoc": {
				"kind": "user",
				"methods": {},
				"version": 1
			}
		}
	}
}