{
	"contracts/stake_reward_MLM.sol": {
		"Invest": {
			"abi": [
				{
					"inputs": [],
					"stateMutability": "nonpayable",
					"type": "constructor"
				},
				{
					"inputs": [],
					"name": "DUSDReferralsList",
					"outputs": [
						{
							"internalType": "address[]",
							"name": "",
							"type": "address[]"
						}
					],
					"stateMutability": "view",
					"type": "function"
				},
				{
					"inputs": [],
					"name": "DUSDTotalReferrals",
					"outputs": [
						{
							"internalType": "uint256",
							"name": "",
							"type": "uint256"
						}
					],
					"stateMutability": "view",
					"type": "function"
				},
				{
					"inputs": [
						{
							"internalType": "address",
							"name": "",
							"type": "address"
						}
					],
					"name": "DUSDinvestor",
					"outputs": [
						{
							"internalType": "address",
							"name": "referralFrom",
							"type": "address"
						},
						{
							"internalType": "uint256",
							"name": "reward",
							"type": "uint256"
						},
						{
							"internalType": "uint256",
							"name": "noOfInvestment",
							"type": "uint256"
						},
						{
							"internalType": "uint256",
							"name": "totalInvestment",
							"type": "uint256"
						},
						{
							"internalType": "bool",
							"name": "investBefore",
							"type": "bool"
						}
					],
					"stateMutability": "view",
					"type": "function"
				},
				{
					"inputs": [
						{
							"internalType": "uint256",
							"name": "_investedamount",
							"type": "uint256"
						},
						{
							"internalType": "uint256",
							"name": "_investmentPeriod",
							"type": "uint256"
						},
						{
							"internalType": "address",
							"name": "_referral",
							"type": "address"
						}
					],
					"name": "Stake",
					"outputs": [
						{
							"internalType": "bool",
							"name": "success",
							"type": "bool"
						}
					],
					"stateMutability": "nonpayable",
					"type": "function"
				},
				{
					"inputs": [],
					"name": "getAllDUSDinvestments",
					"outputs": [
						{
							"components": [
								{
									"internalType": "uint256",
									"name": "investedAmount",
									"type": "uint256"
								},
								{
									"internalType": "uint256",
									"name": "withdrawnTime",
									"type": "uint256"
								},
								{
									"internalType": "uint256",
									"name": "DepositTime",
									"type": "uint256"
								},
								{
									"internalType": "uint256",
									"name": "investmentNum",
									"type": "uint256"
								}
							],
							"internalType": "struct Invest.allInvestments[]",
							"name": "",
							"type": "tuple[]"
						}
					],
					"stateMutability": "view",
					"type": "function"
				},
				{
					"inputs": [],
					"name": "getReward",
					"outputs": [
						{
							"internalType": "uint256",
							"name": "",
							"type": "uint256"
						}
					],
					"stateMutability": "view",
					"type": "function"
				},
				{
					"inputs": [],
					"name": "getTotalInvestmentDUSD",
					"outputs": [
						{
							"internalType": "uint256",
							"name": "",
							"type": "uint256"
						}
					],
					"stateMutability": "view",
					"type": "function"
				},
				{
					"inputs": [],
					"name": "owner",
					"outputs": [
						{
							"internalType": "address payable",
							"name": "",
							"type": "address"
						}
					],
					"stateMutability": "view",
					"type": "function"
				},
				{
					"inputs": [],
					"name": "ownerfees",
					"outputs": [
						{
							"internalType": "uint256",
							"name": "",
							"type": "uint256"
						}
					],
					"stateMutability": "view",
					"type": "function"
				},
				{
					"inputs": [],
					"name": "rewardToken",
					"outputs": [
						{
							"internalType": "uint256",
							"name": "",
							"type": "uint256"
						}
					],
					"stateMutability": "view",
					"type": "function"
				},
				{
					"inputs": [
						{
							"internalType": "uint256",
							"name": "_amount",
							"type": "uint256"
						}
					],
					"name": "setReward",
					"outputs": [],
					"stateMutability": "nonpayable",
					"type": "function"
				},
				{
					"inputs": [
						{
							"internalType": "uint256",
							"name": "_amount",
							"type": "uint256"
						}
					],
					"name": "set_max_Stake_amount",
					"outputs": [],
					"stateMutability": "nonpayable",
					"type": "function"
				},
				{
					"inputs": [
						{
							"internalType": "uint256",
							"name": "_amount",
							"type": "uint256"
						}
					],
					"name": "set_min_Stake_amount",
					"outputs": [],
					"stateMutability": "nonpayable",
					"type": "function"
				},
				{
					"inputs": [
						{
							"internalType": "uint256",
							"name": "min_stake",
							"type": "uint256"
						},
						{
							"internalType": "uint256",
							"name": "max_stake",
							"type": "uint256"
						},
						{
							"internalType": "uint256",
							"name": "reward_per_day",
							"type": "uint256"
						}
					],
					"name": "set_values",
					"outputs": [],
					"stateMutability": "nonpayable",
					"type": "function"
				},
				{
					"inputs": [],
					"name": "totalDUSDInvestors",
					"outputs": [
						{
							"internalType": "uint256",
							"name": "",
							"type": "uint256"
						}
					],
					"stateMutability": "view",
					"type": "function"
				},
				{
					"inputs": [
						{
							"internalType": "uint256",
							"name": "_id",
							"type": "uint256"
						}
					],
					"name": "unStake",
					"outputs": [
						{
							"internalType": "bool",
							"name": "success",
							"type": "bool"
						}
					],
					"stateMutability": "nonpayable",
					"type": "function"
				},
				{
					"inputs": [],
					"name": "withdrawReward",
					"outputs": [
						{
							"internalType": "bool",
							"name": "success",
							"type": "bool"
						}
					],
					"stateMutability": "nonpayable",
					"type": "function"
				}
			],
			"devdoc": {
				"kind": "dev",
				"methods": {},
				"version": 1
			},
			"evm": {
				"assembly": "    /* \"contracts/stake_reward_MLM.sol\":253:9016  contract Invest... */\n  mstore(0x40, 0x80)\n    /* \"contracts/stake_reward_MLM.sol\":381:423  0x7EF2e0048f5bAeDe046f6BF797943daF4ED8CB47 */\n  0x7ef2e0048f5baede046f6bf797943daf4ed8cb47\n    /* \"contracts/stake_reward_MLM.sol\":360:423  address DUSDcontract=0x7EF2e0048f5bAeDe046f6BF797943daF4ED8CB47 */\n  0x02\n  exp(0x0100, 0x00)\n  dup2\n  sload\n  dup2\n  0xffffffffffffffffffffffffffffffffffffffff\n  mul\n  not\n  and\n  swap1\n  dup4\n  0xffffffffffffffffffffffffffffffffffffffff\n  and\n  mul\n  or\n  swap1\n  sstore\n  pop\n    /* \"contracts/stake_reward_MLM.sol\":497:515  500000000000000000 */\n  0x06f05b59d3b20000\n    /* \"contracts/stake_reward_MLM.sol\":473:515  uint public rewardToken=500000000000000000 */\n  0x04\n  sstore\n    /* \"contracts/stake_reward_MLM.sol\":547:552  10000 */\n  0x2710\n    /* \"contracts/stake_reward_MLM.sol\":525:552  uint min_Stake_amount=10000 */\n  0x05\n  sstore\n    /* \"contracts/stake_reward_MLM.sol\":584:591  5000000 */\n  0x4c4b40\n    /* \"contracts/stake_reward_MLM.sol\":562:591  uint max_Stake_amount=5000000 */\n  0x06\n  sstore\n    /* \"contracts/stake_reward_MLM.sol\":1112:1331  constructor(){... */\n  callvalue\n  dup1\n  iszero\n  tag_1\n  jumpi\n  0x00\n  dup1\n  revert\ntag_1:\n  pop\n    /* \"contracts/stake_reward_MLM.sol\":1166:1176  msg.sender */\n  caller\n    /* \"contracts/stake_reward_MLM.sol\":1152:1157  owner */\n  0x00\n  dup1\n    /* \"contracts/stake_reward_MLM.sol\":1152:1177  owner=payable(msg.sender) */\n  0x0100\n  exp\n  dup2\n  sload\n  dup2\n  0xffffffffffffffffffffffffffffffffffffffff\n  mul\n  not\n  and\n  swap1\n  dup4\n  0xffffffffffffffffffffffffffffffffffffffff\n  and\n  mul\n  or\n  swap1\n  sstore\n  pop\n    /* \"contracts/stake_reward_MLM.sol\":1263:1274  0.003 ether */\n  0x0aa87bee538000\n    /* \"contracts/stake_reward_MLM.sol\":1253:1262  ownerfees */\n  0x01\n    /* \"contracts/stake_reward_MLM.sol\":1253:1274  ownerfees=0.003 ether */\n  dup2\n  swap1\n  sstore\n  pop\n    /* \"contracts/stake_reward_MLM.sol\":253:9016  contract Invest... */\n  dataSize(sub_0)\n  dup1\n  dataOffset(sub_0)\n  0x00\n  codecopy\n  0x00\n  return\nstop\n\nsub_0: assembly {\n        /* \"contracts/stake_reward_MLM.sol\":253:9016  contract Invest... */\n      mstore(0x40, 0x80)\n      callvalue\n      dup1\n      iszero\n      tag_1\n      jumpi\n      0x00\n      dup1\n      revert\n    tag_1:\n      pop\n      jumpi(tag_2, lt(calldatasize, 0x04))\n      shr(0xe0, calldataload(0x00))\n      dup1\n      0x5d3eea91\n      gt\n      tag_20\n      jumpi\n      dup1\n      0xc885bc58\n      gt\n      tag_21\n      jumpi\n      dup1\n      0xc885bc58\n      eq\n      tag_15\n      jumpi\n      dup1\n      0xce10db0a\n      eq\n      tag_16\n      jumpi\n      dup1\n      0xd0ff6e63\n      eq\n      tag_17\n      jumpi\n      dup1\n      0xd3560ee8\n      eq\n      tag_18\n      jumpi\n      dup1\n      0xf7c618c1\n      eq\n      tag_19\n      jumpi\n      jump(tag_2)\n    tag_21:\n      dup1\n      0x5d3eea91\n      eq\n      tag_11\n      jumpi\n      dup1\n      0x8da5cb5b\n      eq\n      tag_12\n      jumpi\n      dup1\n      0x929f6bbe\n      eq\n      tag_13\n      jumpi\n      dup1\n      0xb1ab6be1\n      eq\n      tag_14\n      jumpi\n      jump(tag_2)\n    tag_20:\n      dup1\n      0x32d4e783\n      gt\n      tag_22\n      jumpi\n      dup1\n      0x32d4e783\n      eq\n      tag_7\n      jumpi\n      dup1\n      0x3a1e0833\n      eq\n      tag_8\n      jumpi\n      dup1\n      0x3d18b912\n      eq\n      tag_9\n      jumpi\n      dup1\n      0x500cb85f\n      eq\n      tag_10\n      jumpi\n      jump(tag_2)\n    tag_22:\n      dup1\n      0x0c5f58f4\n      eq\n      tag_3\n      jumpi\n      dup1\n      0x10cde60a\n      eq\n      tag_4\n      jumpi\n      dup1\n      0x1e8aba35\n      eq\n      tag_5\n      jumpi\n      dup1\n      0x293be456\n      eq\n      tag_6\n      jumpi\n    tag_2:\n      0x00\n      dup1\n      revert\n        /* \"contracts/stake_reward_MLM.sol\":8222:8431  function DUSDReferralsList() public view returns(address[] memory){ //this function is to get the all investors list with there account number... */\n    tag_3:\n      tag_23\n      tag_24\n      jump\t// in\n    tag_23:\n      mload(0x40)\n      tag_25\n      swap2\n      swap1\n      tag_26\n      jump\t// in\n    tag_25:\n      mload(0x40)\n      dup1\n      swap2\n      sub\n      swap1\n      return\n        /* \"contracts/stake_reward_MLM.sol\":433:463  uint public totalDUSDInvestors */\n    tag_4:\n      tag_27\n      tag_28\n      jump\t// in\n    tag_27:\n      mload(0x40)\n      tag_29\n      swap2\n      swap1\n      tag_30\n      jump\t// in\n    tag_29:\n      mload(0x40)\n      dup1\n      swap2\n      sub\n      swap1\n      return\n        /* \"contracts/stake_reward_MLM.sol\":8021:8212  function DUSDTotalReferrals() public view returns(uint){ // this function is to get the total number of referrals ... */\n    tag_5:\n      tag_31\n      tag_32\n      jump\t// in\n    tag_31:\n      mload(0x40)\n      tag_33\n      swap2\n      swap1\n      tag_30\n      jump\t// in\n    tag_33:\n      mload(0x40)\n      dup1\n      swap2\n      sub\n      swap1\n      return\n        /* \"contracts/stake_reward_MLM.sol\":8440:8535  function setReward(uint _amount) public ... */\n    tag_6:\n      tag_34\n      0x04\n      dup1\n      calldatasize\n      sub\n      dup2\n      add\n      swap1\n      tag_35\n      swap2\n      swap1\n      tag_36\n      jump\t// in\n    tag_35:\n      tag_37\n      jump\t// in\n    tag_34:\n      stop\n        /* \"contracts/stake_reward_MLM.sol\":8544:8655  function set_min_Stake_amount(uint _amount) public ... */\n    tag_7:\n      tag_38\n      0x04\n      dup1\n      calldatasize\n      sub\n      dup2\n      add\n      swap1\n      tag_39\n      swap2\n      swap1\n      tag_36\n      jump\t// in\n    tag_39:\n      tag_40\n      jump\t// in\n    tag_38:\n      stop\n        /* \"contracts/stake_reward_MLM.sol\":6416:7399  function getAllDUSDinvestments() public view returns (allInvestments[] memory) { //this function will return the all investments of the investor and withware date... */\n    tag_8:\n      tag_41\n      tag_42\n      jump\t// in\n    tag_41:\n      mload(0x40)\n      tag_43\n      swap2\n      swap1\n      tag_44\n      jump\t// in\n    tag_43:\n      mload(0x40)\n      dup1\n      swap2\n      sub\n      swap1\n      return\n        /* \"contracts/stake_reward_MLM.sol\":7409:8011  function getReward() view public returns(uint){ //this function is get the total reward balance of the investor... */\n    tag_9:\n      tag_45\n      tag_46\n      jump\t// in\n    tag_45:\n      mload(0x40)\n      tag_47\n      swap2\n      swap1\n      tag_30\n      jump\t// in\n    tag_47:\n      mload(0x40)\n      dup1\n      swap2\n      sub\n      swap1\n      return\n        /* \"contracts/stake_reward_MLM.sol\":8664:8775  function set_max_Stake_amount(uint _amount) public ... */\n    tag_10:\n      tag_48\n      0x04\n      dup1\n      calldatasize\n      sub\n      dup2\n      add\n      swap1\n      tag_49\n      swap2\n      swap1\n      tag_36\n      jump\t// in\n    tag_49:\n      tag_50\n      jump\t// in\n    tag_48:\n      stop\n        /* \"contracts/stake_reward_MLM.sol\":5017:6186  function unStake(uint _id) external  returns (bool success){... */\n    tag_11:\n      tag_51\n      0x04\n      dup1\n      calldatasize\n      sub\n      dup2\n      add\n      swap1\n      tag_52\n      swap2\n      swap1\n      tag_36\n      jump\t// in\n    tag_52:\n      tag_53\n      jump\t// in\n    tag_51:\n      mload(0x40)\n      tag_54\n      swap2\n      swap1\n      tag_55\n      jump\t// in\n    tag_54:\n      mload(0x40)\n      dup1\n      swap2\n      sub\n      swap1\n      return\n        /* \"contracts/stake_reward_MLM.sol\":291:319  address payable public owner */\n    tag_12:\n      tag_56\n      tag_57\n      jump\t// in\n    tag_56:\n      mload(0x40)\n      tag_58\n      swap2\n      swap1\n      tag_59\n      jump\t// in\n    tag_58:\n      mload(0x40)\n      dup1\n      swap2\n      sub\n      swap1\n      return\n        /* \"contracts/stake_reward_MLM.sol\":6196:6406  function getTotalInvestmentDUSD() public view returns(uint) {   //this function is to get the total investment of the ivestor... */\n    tag_13:\n      tag_60\n      tag_61\n      jump\t// in\n    tag_60:\n      mload(0x40)\n      tag_62\n      swap2\n      swap1\n      tag_30\n      jump\t// in\n    tag_62:\n      mload(0x40)\n      dup1\n      swap2\n      sub\n      swap1\n      return\n        /* \"contracts/stake_reward_MLM.sol\":2705:4588  function Stake(uint _investedamount,uint _investmentPeriod,address _referral) external returns(bool success){... */\n    tag_14:\n      tag_63\n      0x04\n      dup1\n      calldatasize\n      sub\n      dup2\n      add\n      swap1\n      tag_64\n      swap2\n      swap1\n      tag_65\n      jump\t// in\n    tag_64:\n      tag_66\n      jump\t// in\n    tag_63:\n      mload(0x40)\n      tag_67\n      swap2\n      swap1\n      tag_55\n      jump\t// in\n    tag_67:\n      mload(0x40)\n      dup1\n      swap2\n      sub\n      swap1\n      return\n        /* \"contracts/stake_reward_MLM.sol\":4599:5006  function withdrawReward() external returns (bool success){... */\n    tag_15:\n      tag_68\n      tag_69\n      jump\t// in\n    tag_68:\n      mload(0x40)\n      tag_70\n      swap2\n      swap1\n      tag_55\n      jump\t// in\n    tag_70:\n      mload(0x40)\n      dup1\n      swap2\n      sub\n      swap1\n      return\n        /* \"contracts/stake_reward_MLM.sol\":8784:9008  function set_values(uint min_stake,uint max_stake,uint reward_per_day) public ... */\n    tag_16:\n      tag_71\n      0x04\n      dup1\n      calldatasize\n      sub\n      dup2\n      add\n      swap1\n      tag_72\n      swap2\n      swap1\n      tag_73\n      jump\t// in\n    tag_72:\n      tag_74\n      jump\t// in\n    tag_71:\n      stop\n        /* \"contracts/stake_reward_MLM.sol\":329:350  uint public ownerfees */\n    tag_17:\n      tag_75\n      tag_76\n      jump\t// in\n    tag_75:\n      mload(0x40)\n      tag_77\n      swap2\n      swap1\n      tag_30\n      jump\t// in\n    tag_77:\n      mload(0x40)\n      dup1\n      swap2\n      sub\n      swap1\n      return\n        /* \"contracts/stake_reward_MLM.sol\":1059:1101  mapping(address=>Data) public DUSDinvestor */\n    tag_18:\n      tag_78\n      0x04\n      dup1\n      calldatasize\n      sub\n      dup2\n      add\n      swap1\n      tag_79\n      swap2\n      swap1\n      tag_80\n      jump\t// in\n    tag_79:\n      tag_81\n      jump\t// in\n    tag_78:\n      mload(0x40)\n      tag_82\n      swap6\n      swap5\n      swap4\n      swap3\n      swap2\n      swap1\n      tag_83\n      jump\t// in\n    tag_82:\n      mload(0x40)\n      dup1\n      swap2\n      sub\n      swap1\n      return\n        /* \"contracts/stake_reward_MLM.sol\":473:515  uint public rewardToken=500000000000000000 */\n    tag_19:\n      tag_84\n      tag_85\n      jump\t// in\n    tag_84:\n      mload(0x40)\n      tag_86\n      swap2\n      swap1\n      tag_30\n      jump\t// in\n    tag_86:\n      mload(0x40)\n      dup1\n      swap2\n      sub\n      swap1\n      return\n        /* \"contracts/stake_reward_MLM.sol\":8222:8431  function DUSDReferralsList() public view returns(address[] memory){ //this function is to get the all investors list with there account number... */\n    tag_24:\n        /* \"contracts/stake_reward_MLM.sol\":8271:8287  address[] memory */\n      0x60\n        /* \"contracts/stake_reward_MLM.sol\":8383:8395  DUSDinvestor */\n      0x07\n        /* \"contracts/stake_reward_MLM.sol\":8383:8407  DUSDinvestor[msg.sender] */\n      0x00\n        /* \"contracts/stake_reward_MLM.sol\":8396:8406  msg.sender */\n      caller\n        /* \"contracts/stake_reward_MLM.sol\":8383:8407  DUSDinvestor[msg.sender] */\n      0xffffffffffffffffffffffffffffffffffffffff\n      and\n      0xffffffffffffffffffffffffffffffffffffffff\n      and\n      dup2\n      mstore\n      0x20\n      add\n      swap1\n      dup2\n      mstore\n      0x20\n      add\n      0x00\n      keccak256\n        /* \"contracts/stake_reward_MLM.sol\":8383:8420  DUSDinvestor[msg.sender].hisReferrals */\n      0x01\n      add\n        /* \"contracts/stake_reward_MLM.sol\":8376:8420  return DUSDinvestor[msg.sender].hisReferrals */\n      dup1\n      sload\n      dup1\n      0x20\n      mul\n      0x20\n      add\n      mload(0x40)\n      swap1\n      dup2\n      add\n      0x40\n      mstore\n      dup1\n      swap3\n      swap2\n      swap1\n      dup2\n      dup2\n      mstore\n      0x20\n      add\n      dup3\n      dup1\n      sload\n      dup1\n      iszero\n      tag_88\n      jumpi\n      0x20\n      mul\n      dup3\n      add\n      swap2\n      swap1\n      0x00\n      mstore\n      keccak256(0x00, 0x20)\n      swap1\n    tag_89:\n      dup2\n      0x00\n      swap1\n      sload\n      swap1\n      0x0100\n      exp\n      swap1\n      div\n      0xffffffffffffffffffffffffffffffffffffffff\n      and\n      0xffffffffffffffffffffffffffffffffffffffff\n      and\n      dup2\n      mstore\n      0x20\n      add\n      swap1\n      0x01\n      add\n      swap1\n      dup1\n      dup4\n      gt\n      tag_89\n      jumpi\n    tag_88:\n      pop\n      pop\n      pop\n      pop\n      pop\n      swap1\n      pop\n        /* \"contracts/stake_reward_MLM.sol\":8222:8431  function DUSDReferralsList() public view returns(address[] memory){ //this function is to get the all investors list with there account number... */\n      swap1\n      jump\t// out\n        /* \"contracts/stake_reward_MLM.sol\":433:463  uint public totalDUSDInvestors */\n    tag_28:\n      sload(0x03)\n      dup2\n      jump\t// out\n        /* \"contracts/stake_reward_MLM.sol\":8021:8212  function DUSDTotalReferrals() public view returns(uint){ // this function is to get the total number of referrals ... */\n    tag_32:\n        /* \"contracts/stake_reward_MLM.sol\":8071:8075  uint */\n      0x00\n        /* \"contracts/stake_reward_MLM.sol\":8156:8168  DUSDinvestor */\n      0x07\n        /* \"contracts/stake_reward_MLM.sol\":8156:8180  DUSDinvestor[msg.sender] */\n      0x00\n        /* \"contracts/stake_reward_MLM.sol\":8169:8179  msg.sender */\n      caller\n        /* \"contracts/stake_reward_MLM.sol\":8156:8180  DUSDinvestor[msg.sender] */\n      0xffffffffffffffffffffffffffffffffffffffff\n      and\n      0xffffffffffffffffffffffffffffffffffffffff\n      and\n      dup2\n      mstore\n      0x20\n      add\n      swap1\n      dup2\n      mstore\n      0x20\n      add\n      0x00\n      keccak256\n        /* \"contracts/stake_reward_MLM.sol\":8156:8193  DUSDinvestor[msg.sender].hisReferrals */\n      0x01\n      add\n        /* \"contracts/stake_reward_MLM.sol\":8155:8201  (DUSDinvestor[msg.sender].hisReferrals).length */\n      dup1\n      sload\n      swap1\n      pop\n        /* \"contracts/stake_reward_MLM.sol\":8148:8201  return (DUSDinvestor[msg.sender].hisReferrals).length */\n      swap1\n      pop\n        /* \"contracts/stake_reward_MLM.sol\":8021:8212  function DUSDTotalReferrals() public view returns(uint){ // this function is to get the total number of referrals ... */\n      swap1\n      jump\t// out\n        /* \"contracts/stake_reward_MLM.sol\":8440:8535  function setReward(uint _amount) public ... */\n    tag_37:\n        /* \"contracts/stake_reward_MLM.sol\":8517:8524  _amount */\n      dup1\n        /* \"contracts/stake_reward_MLM.sol\":8503:8514  rewardToken */\n      0x04\n        /* \"contracts/stake_reward_MLM.sol\":8503:8524  rewardToken = _amount */\n      dup2\n      swap1\n      sstore\n      pop\n        /* \"contracts/stake_reward_MLM.sol\":8440:8535  function setReward(uint _amount) public ... */\n      pop\n      jump\t// out\n        /* \"contracts/stake_reward_MLM.sol\":8544:8655  function set_min_Stake_amount(uint _amount) public ... */\n    tag_40:\n        /* \"contracts/stake_reward_MLM.sol\":8637:8644  _amount */\n      dup1\n        /* \"contracts/stake_reward_MLM.sol\":8618:8634  min_Stake_amount */\n      0x05\n        /* \"contracts/stake_reward_MLM.sol\":8618:8644  min_Stake_amount = _amount */\n      dup2\n      swap1\n      sstore\n      pop\n        /* \"contracts/stake_reward_MLM.sol\":8544:8655  function set_min_Stake_amount(uint _amount) public ... */\n      pop\n      jump\t// out\n        /* \"contracts/stake_reward_MLM.sol\":6416:7399  function getAllDUSDinvestments() public view returns (allInvestments[] memory) { //this function will return the all investments of the investor and withware date... */\n    tag_42:\n        /* \"contracts/stake_reward_MLM.sol\":6470:6493  allInvestments[] memory */\n      0x60\n        /* \"contracts/stake_reward_MLM.sol\":6591:6599  uint num */\n      0x00\n        /* \"contracts/stake_reward_MLM.sol\":6602:6614  DUSDinvestor */\n      0x07\n        /* \"contracts/stake_reward_MLM.sol\":6602:6626  DUSDinvestor[msg.sender] */\n      0x00\n        /* \"contracts/stake_reward_MLM.sol\":6615:6625  msg.sender */\n      caller\n        /* \"contracts/stake_reward_MLM.sol\":6602:6626  DUSDinvestor[msg.sender] */\n      0xffffffffffffffffffffffffffffffffffffffff\n      and\n      0xffffffffffffffffffffffffffffffffffffffff\n      and\n      dup2\n      mstore\n      0x20\n      add\n      swap1\n      dup2\n      mstore\n      0x20\n      add\n      0x00\n      keccak256\n        /* \"contracts/stake_reward_MLM.sol\":6602:6641  DUSDinvestor[msg.sender].noOfInvestment */\n      0x04\n      add\n      sload\n        /* \"contracts/stake_reward_MLM.sol\":6591:6641  uint num = DUSDinvestor[msg.sender].noOfInvestment */\n      swap1\n      pop\n        /* \"contracts/stake_reward_MLM.sol\":6655:6664  uint temp */\n      0x00\n        /* \"contracts/stake_reward_MLM.sol\":6678:6695  uint currentIndex */\n      dup1\n        /* \"contracts/stake_reward_MLM.sol\":6726:6732  uint i */\n      0x00\n        /* \"contracts/stake_reward_MLM.sol\":6722:6898  for(uint i=0;i<num;i++)... */\n    tag_94:\n        /* \"contracts/stake_reward_MLM.sol\":6737:6740  num */\n      dup4\n        /* \"contracts/stake_reward_MLM.sol\":6735:6736  i */\n      dup2\n        /* \"contracts/stake_reward_MLM.sol\":6735:6740  i<num */\n      lt\n        /* \"contracts/stake_reward_MLM.sol\":6722:6898  for(uint i=0;i<num;i++)... */\n      iszero\n      tag_95\n      jumpi\n        /* \"contracts/stake_reward_MLM.sol\":6835:6836  0 */\n      0x00\n        /* \"contracts/stake_reward_MLM.sol\":6779:6791  DUSDinvestor */\n      0x07\n        /* \"contracts/stake_reward_MLM.sol\":6779:6803  DUSDinvestor[msg.sender] */\n      0x00\n        /* \"contracts/stake_reward_MLM.sol\":6792:6802  msg.sender */\n      caller\n        /* \"contracts/stake_reward_MLM.sol\":6779:6803  DUSDinvestor[msg.sender] */\n      0xffffffffffffffffffffffffffffffffffffffff\n      and\n      0xffffffffffffffffffffffffffffffffffffffff\n      and\n      dup2\n      mstore\n      0x20\n      add\n      swap1\n      dup2\n      mstore\n      0x20\n      add\n      0x00\n      keccak256\n        /* \"contracts/stake_reward_MLM.sol\":6779:6814  DUSDinvestor[msg.sender].investment */\n      0x00\n      add\n        /* \"contracts/stake_reward_MLM.sol\":6779:6817  DUSDinvestor[msg.sender].investment[i] */\n      0x00\n        /* \"contracts/stake_reward_MLM.sol\":6815:6816  i */\n      dup4\n        /* \"contracts/stake_reward_MLM.sol\":6779:6817  DUSDinvestor[msg.sender].investment[i] */\n      dup2\n      mstore\n      0x20\n      add\n      swap1\n      dup2\n      mstore\n      0x20\n      add\n      0x00\n      keccak256\n        /* \"contracts/stake_reward_MLM.sol\":6779:6832  DUSDinvestor[msg.sender].investment[i].investedAmount */\n      0x00\n      add\n      sload\n        /* \"contracts/stake_reward_MLM.sol\":6779:6836  DUSDinvestor[msg.sender].investment[i].investedAmount > 0 */\n      gt\n        /* \"contracts/stake_reward_MLM.sol\":6775:6883  if( DUSDinvestor[msg.sender].investment[i].investedAmount > 0 ){... */\n      iszero\n      tag_97\n      jumpi\n        /* \"contracts/stake_reward_MLM.sol\":6859:6865  temp++ */\n      dup3\n      dup1\n      tag_98\n      swap1\n      tag_99\n      jump\t// in\n    tag_98:\n      swap4\n      pop\n      pop\n        /* \"contracts/stake_reward_MLM.sol\":6775:6883  if( DUSDinvestor[msg.sender].investment[i].investedAmount > 0 ){... */\n    tag_97:\n        /* \"contracts/stake_reward_MLM.sol\":6741:6744  i++ */\n      dup1\n      dup1\n      tag_100\n      swap1\n      tag_99\n      jump\t// in\n    tag_100:\n      swap2\n      pop\n      pop\n        /* \"contracts/stake_reward_MLM.sol\":6722:6898  for(uint i=0;i<num;i++)... */\n      jump(tag_94)\n    tag_95:\n      pop\n        /* \"contracts/stake_reward_MLM.sol\":6921:6953  allInvestments[] memory Invested */\n      0x00\n        /* \"contracts/stake_reward_MLM.sol\":6978:6982  temp */\n      dup3\n        /* \"contracts/stake_reward_MLM.sol\":6957:6983  new allInvestments[](temp) */\n      0xffffffffffffffff\n      dup2\n      gt\n      iszero\n      tag_101\n      jumpi\n      tag_102\n      tag_103\n      jump\t// in\n    tag_102:\n    tag_101:\n      mload(0x40)\n      swap1\n      dup1\n      dup3\n      mstore\n      dup1\n      0x20\n      mul\n      0x20\n      add\n      dup3\n      add\n      0x40\n      mstore\n      dup1\n      iszero\n      tag_104\n      jumpi\n      dup2\n      0x20\n      add\n    tag_105:\n      tag_106\n      tag_107\n      jump\t// in\n    tag_106:\n      dup2\n      mstore\n      0x20\n      add\n      swap1\n      0x01\n      swap1\n      sub\n      swap1\n      dup2\n      tag_105\n      jumpi\n      swap1\n      pop\n    tag_104:\n      pop\n        /* \"contracts/stake_reward_MLM.sol\":6921:6983  allInvestments[] memory Invested =  new allInvestments[](temp) */\n      swap1\n      pop\n        /* \"contracts/stake_reward_MLM.sol\":7003:7009  uint i */\n      0x00\n        /* \"contracts/stake_reward_MLM.sol\":6999:7359  for(uint i=0;i<num;i++)... */\n    tag_108:\n        /* \"contracts/stake_reward_MLM.sol\":7014:7017  num */\n      dup5\n        /* \"contracts/stake_reward_MLM.sol\":7012:7013  i */\n      dup2\n        /* \"contracts/stake_reward_MLM.sol\":7012:7017  i<num */\n      lt\n        /* \"contracts/stake_reward_MLM.sol\":6999:7359  for(uint i=0;i<num;i++)... */\n      iszero\n      tag_109\n      jumpi\n        /* \"contracts/stake_reward_MLM.sol\":7112:7113  0 */\n      0x00\n        /* \"contracts/stake_reward_MLM.sol\":7056:7068  DUSDinvestor */\n      0x07\n        /* \"contracts/stake_reward_MLM.sol\":7056:7080  DUSDinvestor[msg.sender] */\n      0x00\n        /* \"contracts/stake_reward_MLM.sol\":7069:7079  msg.sender */\n      caller\n        /* \"contracts/stake_reward_MLM.sol\":7056:7080  DUSDinvestor[msg.sender] */\n      0xffffffffffffffffffffffffffffffffffffffff\n      and\n      0xffffffffffffffffffffffffffffffffffffffff\n      and\n      dup2\n      mstore\n      0x20\n      add\n      swap1\n      dup2\n      mstore\n      0x20\n      add\n      0x00\n      keccak256\n        /* \"contracts/stake_reward_MLM.sol\":7056:7091  DUSDinvestor[msg.sender].investment */\n      0x00\n      add\n        /* \"contracts/stake_reward_MLM.sol\":7056:7094  DUSDinvestor[msg.sender].investment[i] */\n      0x00\n        /* \"contracts/stake_reward_MLM.sol\":7092:7093  i */\n      dup4\n        /* \"contracts/stake_reward_MLM.sol\":7056:7094  DUSDinvestor[msg.sender].investment[i] */\n      dup2\n      mstore\n      0x20\n      add\n      swap1\n      dup2\n      mstore\n      0x20\n      add\n      0x00\n      keccak256\n        /* \"contracts/stake_reward_MLM.sol\":7056:7109  DUSDinvestor[msg.sender].investment[i].investedAmount */\n      0x00\n      add\n      sload\n        /* \"contracts/stake_reward_MLM.sol\":7056:7113  DUSDinvestor[msg.sender].investment[i].investedAmount > 0 */\n      gt\n        /* \"contracts/stake_reward_MLM.sol\":7052:7344  if( DUSDinvestor[msg.sender].investment[i].investedAmount > 0 ){... */\n      iszero\n      tag_111\n      jumpi\n        /* \"contracts/stake_reward_MLM.sol\":7253:7265  DUSDinvestor */\n      0x07\n        /* \"contracts/stake_reward_MLM.sol\":7253:7277  DUSDinvestor[msg.sender] */\n      0x00\n        /* \"contracts/stake_reward_MLM.sol\":7266:7276  msg.sender */\n      caller\n        /* \"contracts/stake_reward_MLM.sol\":7253:7277  DUSDinvestor[msg.sender] */\n      0xffffffffffffffffffffffffffffffffffffffff\n      and\n      0xffffffffffffffffffffffffffffffffffffffff\n      and\n      dup2\n      mstore\n      0x20\n      add\n      swap1\n      dup2\n      mstore\n      0x20\n      add\n      0x00\n      keccak256\n        /* \"contracts/stake_reward_MLM.sol\":7253:7288  DUSDinvestor[msg.sender].investment */\n      0x00\n      add\n        /* \"contracts/stake_reward_MLM.sol\":7253:7291  DUSDinvestor[msg.sender].investment[i] */\n      0x00\n        /* \"contracts/stake_reward_MLM.sol\":7289:7290  i */\n      dup3\n        /* \"contracts/stake_reward_MLM.sol\":7253:7291  DUSDinvestor[msg.sender].investment[i] */\n      dup2\n      mstore\n      0x20\n      add\n      swap1\n      dup2\n      mstore\n      0x20\n      add\n      0x00\n      keccak256\n        /* \"contracts/stake_reward_MLM.sol\":7230:7291  Invested[currentIndex]=DUSDinvestor[msg.sender].investment[i] */\n      mload(0x40)\n      dup1\n      0x80\n      add\n      0x40\n      mstore\n      swap1\n      dup2\n      0x00\n      dup3\n      add\n      sload\n      dup2\n      mstore\n      0x20\n      add\n      0x01\n      dup3\n      add\n      sload\n      dup2\n      mstore\n      0x20\n      add\n      0x02\n      dup3\n      add\n      sload\n      dup2\n      mstore\n      0x20\n      add\n      0x03\n      dup3\n      add\n      sload\n      dup2\n      mstore\n      pop\n      pop\n        /* \"contracts/stake_reward_MLM.sol\":7230:7238  Invested */\n      dup3\n        /* \"contracts/stake_reward_MLM.sol\":7239:7251  currentIndex */\n      dup5\n        /* \"contracts/stake_reward_MLM.sol\":7230:7252  Invested[currentIndex] */\n      dup2\n      mload\n      dup2\n      lt\n      tag_112\n      jumpi\n      tag_113\n      tag_114\n      jump\t// in\n    tag_113:\n    tag_112:\n      0x20\n      mul\n      0x20\n      add\n      add\n        /* \"contracts/stake_reward_MLM.sol\":7230:7291  Invested[currentIndex]=DUSDinvestor[msg.sender].investment[i] */\n      dup2\n      swap1\n      mstore\n      pop\n        /* \"contracts/stake_reward_MLM.sol\":7312:7326  currentIndex++ */\n      dup3\n      dup1\n      tag_115\n      swap1\n      tag_99\n      jump\t// in\n    tag_115:\n      swap4\n      pop\n      pop\n        /* \"contracts/stake_reward_MLM.sol\":7052:7344  if( DUSDinvestor[msg.sender].investment[i].investedAmount > 0 ){... */\n    tag_111:\n        /* \"contracts/stake_reward_MLM.sol\":7018:7021  i++ */\n      dup1\n      dup1\n      tag_116\n      swap1\n      tag_99\n      jump\t// in\n    tag_116:\n      swap2\n      pop\n      pop\n        /* \"contracts/stake_reward_MLM.sol\":6999:7359  for(uint i=0;i<num;i++)... */\n      jump(tag_108)\n    tag_109:\n      pop\n        /* \"contracts/stake_reward_MLM.sol\":7379:7387  Invested */\n      dup1\n        /* \"contracts/stake_reward_MLM.sol\":7372:7387  return Invested */\n      swap5\n      pop\n      pop\n      pop\n      pop\n      pop\n        /* \"contracts/stake_reward_MLM.sol\":6416:7399  function getAllDUSDinvestments() public view returns (allInvestments[] memory) { //this function will return the all investments of the investor and withware date... */\n      swap1\n      jump\t// out\n        /* \"contracts/stake_reward_MLM.sol\":7409:8011  function getReward() view public returns(uint){ //this function is get the total reward balance of the investor... */\n    tag_46:\n        /* \"contracts/stake_reward_MLM.sol\":7450:7454  uint */\n      0x00\n        /* \"contracts/stake_reward_MLM.sol\":7533:7549  uint totalReward */\n      dup1\n        /* \"contracts/stake_reward_MLM.sol\":7563:7575  uint depTime */\n      0x00\n        /* \"contracts/stake_reward_MLM.sol\":7589:7598  uint temp */\n      dup1\n        /* \"contracts/stake_reward_MLM.sol\":7601:7613  DUSDinvestor */\n      0x07\n        /* \"contracts/stake_reward_MLM.sol\":7601:7625  DUSDinvestor[msg.sender] */\n      0x00\n        /* \"contracts/stake_reward_MLM.sol\":7614:7624  msg.sender */\n      caller\n        /* \"contracts/stake_reward_MLM.sol\":7601:7625  DUSDinvestor[msg.sender] */\n      0xffffffffffffffffffffffffffffffffffffffff\n      and\n      0xffffffffffffffffffffffffffffffffffffffff\n      and\n      dup2\n      mstore\n      0x20\n      add\n      swap1\n      dup2\n      mstore\n      0x20\n      add\n      0x00\n      keccak256\n        /* \"contracts/stake_reward_MLM.sol\":7601:7640  DUSDinvestor[msg.sender].noOfInvestment */\n      0x04\n      add\n      sload\n        /* \"contracts/stake_reward_MLM.sol\":7589:7640  uint temp = DUSDinvestor[msg.sender].noOfInvestment */\n      swap1\n      pop\n        /* \"contracts/stake_reward_MLM.sol\":7658:7664  uint i */\n      0x00\n        /* \"contracts/stake_reward_MLM.sol\":7654:7969  for(uint i=0;i < temp;i++)... */\n    tag_118:\n        /* \"contracts/stake_reward_MLM.sol\":7671:7675  temp */\n      dup2\n        /* \"contracts/stake_reward_MLM.sol\":7667:7668  i */\n      dup2\n        /* \"contracts/stake_reward_MLM.sol\":7667:7675  i < temp */\n      lt\n        /* \"contracts/stake_reward_MLM.sol\":7654:7969  for(uint i=0;i < temp;i++)... */\n      iszero\n      tag_119\n      jumpi\n        /* \"contracts/stake_reward_MLM.sol\":7741:7753  DUSDinvestor */\n      0x07\n        /* \"contracts/stake_reward_MLM.sol\":7741:7765  DUSDinvestor[msg.sender] */\n      0x00\n        /* \"contracts/stake_reward_MLM.sol\":7754:7764  msg.sender */\n      caller\n        /* \"contracts/stake_reward_MLM.sol\":7741:7765  DUSDinvestor[msg.sender] */\n      0xffffffffffffffffffffffffffffffffffffffff\n      and\n      0xffffffffffffffffffffffffffffffffffffffff\n      and\n      dup2\n      mstore\n      0x20\n      add\n      swap1\n      dup2\n      mstore\n      0x20\n      add\n      0x00\n      keccak256\n        /* \"contracts/stake_reward_MLM.sol\":7741:7776  DUSDinvestor[msg.sender].investment */\n      0x00\n      add\n        /* \"contracts/stake_reward_MLM.sol\":7741:7779  DUSDinvestor[msg.sender].investment[i] */\n      0x00\n        /* \"contracts/stake_reward_MLM.sol\":7777:7778  i */\n      dup3\n        /* \"contracts/stake_reward_MLM.sol\":7741:7779  DUSDinvestor[msg.sender].investment[i] */\n      dup2\n      mstore\n      0x20\n      add\n      swap1\n      dup2\n      mstore\n      0x20\n      add\n      0x00\n      keccak256\n        /* \"contracts/stake_reward_MLM.sol\":7741:7791  DUSDinvestor[msg.sender].investment[i].DepositTime */\n      0x02\n      add\n      sload\n        /* \"contracts/stake_reward_MLM.sol\":7723:7738  block.timestamp */\n      timestamp\n        /* \"contracts/stake_reward_MLM.sol\":7723:7791  block.timestamp - DUSDinvestor[msg.sender].investment[i].DepositTime */\n      tag_121\n      swap2\n      swap1\n      tag_122\n      jump\t// in\n    tag_121:\n        /* \"contracts/stake_reward_MLM.sol\":7714:7791  depTime =block.timestamp - DUSDinvestor[msg.sender].investment[i].DepositTime */\n      swap3\n      pop\n        /* \"contracts/stake_reward_MLM.sol\":7825:7831  1 days */\n      0x015180\n        /* \"contracts/stake_reward_MLM.sol\":7817:7824  depTime */\n      dup4\n        /* \"contracts/stake_reward_MLM.sol\":7817:7831  depTime/1 days */\n      tag_123\n      swap2\n      swap1\n      tag_124\n      jump\t// in\n    tag_123:\n        /* \"contracts/stake_reward_MLM.sol\":7809:7831  depTime=depTime/1 days */\n      swap3\n      pop\n        /* \"contracts/stake_reward_MLM.sol\":7860:7861  1 */\n      0x01\n        /* \"contracts/stake_reward_MLM.sol\":7852:7859  depTime */\n      dup4\n        /* \"contracts/stake_reward_MLM.sol\":7852:7861  depTime>1 */\n      gt\n        /* \"contracts/stake_reward_MLM.sol\":7849:7954  if(depTime>1)... */\n      iszero\n      tag_125\n      jumpi\n        /* \"contracts/stake_reward_MLM.sol\":7924:7935  rewardToken */\n      sload(0x04)\n        /* \"contracts/stake_reward_MLM.sol\":7914:7921  depTime */\n      dup4\n        /* \"contracts/stake_reward_MLM.sol\":7914:7935  depTime * rewardToken */\n      tag_126\n      swap2\n      swap1\n      tag_127\n      jump\t// in\n    tag_126:\n        /* \"contracts/stake_reward_MLM.sol\":7900:7935  totalReward = depTime * rewardToken */\n      swap4\n      pop\n        /* \"contracts/stake_reward_MLM.sol\":7849:7954  if(depTime>1)... */\n    tag_125:\n        /* \"contracts/stake_reward_MLM.sol\":7676:7679  i++ */\n      dup1\n      dup1\n      tag_128\n      swap1\n      tag_99\n      jump\t// in\n    tag_128:\n      swap2\n      pop\n      pop\n        /* \"contracts/stake_reward_MLM.sol\":7654:7969  for(uint i=0;i < temp;i++)... */\n      jump(tag_118)\n    tag_119:\n      pop\n        /* \"contracts/stake_reward_MLM.sol\":7989:8000  totalReward */\n      dup3\n        /* \"contracts/stake_reward_MLM.sol\":7982:8000  return totalReward */\n      swap4\n      pop\n      pop\n      pop\n      pop\n        /* \"contracts/stake_reward_MLM.sol\":7409:8011  function getReward() view public returns(uint){ //this function is get the total reward balance of the investor... */\n      swap1\n      jump\t// out\n        /* \"contracts/stake_reward_MLM.sol\":8664:8775  function set_max_Stake_amount(uint _amount) public ... */\n    tag_50:\n        /* \"contracts/stake_reward_MLM.sol\":8757:8764  _amount */\n      dup1\n        /* \"contracts/stake_reward_MLM.sol\":8738:8754  max_Stake_amount */\n      0x06\n        /* \"contracts/stake_reward_MLM.sol\":8738:8764  max_Stake_amount = _amount */\n      dup2\n      swap1\n      sstore\n      pop\n        /* \"contracts/stake_reward_MLM.sol\":8664:8775  function set_max_Stake_amount(uint _amount) public ... */\n      pop\n      jump\t// out\n        /* \"contracts/stake_reward_MLM.sol\":5017:6186  function unStake(uint _id) external  returns (bool success){... */\n    tag_53:\n        /* \"contracts/stake_reward_MLM.sol\":5063:5075  bool success */\n      0x00\n        /* \"contracts/stake_reward_MLM.sol\":5154:5155  0 */\n      dup1\n        /* \"contracts/stake_reward_MLM.sol\":5098:5110  DUSDinvestor */\n      0x07\n        /* \"contracts/stake_reward_MLM.sol\":5098:5122  DUSDinvestor[msg.sender] */\n      0x00\n        /* \"contracts/stake_reward_MLM.sol\":5111:5121  msg.sender */\n      caller\n        /* \"contracts/stake_reward_MLM.sol\":5098:5122  DUSDinvestor[msg.sender] */\n      0xffffffffffffffffffffffffffffffffffffffff\n      and\n      0xffffffffffffffffffffffffffffffffffffffff\n      and\n      dup2\n      mstore\n      0x20\n      add\n      swap1\n      dup2\n      mstore\n      0x20\n      add\n      0x00\n      keccak256\n        /* \"contracts/stake_reward_MLM.sol\":5098:5133  DUSDinvestor[msg.sender].investment */\n      0x00\n      add\n        /* \"contracts/stake_reward_MLM.sol\":5098:5138  DUSDinvestor[msg.sender].investment[_id] */\n      0x00\n        /* \"contracts/stake_reward_MLM.sol\":5134:5137  _id */\n      dup5\n        /* \"contracts/stake_reward_MLM.sol\":5098:5138  DUSDinvestor[msg.sender].investment[_id] */\n      dup2\n      mstore\n      0x20\n      add\n      swap1\n      dup2\n      mstore\n      0x20\n      add\n      0x00\n      keccak256\n        /* \"contracts/stake_reward_MLM.sol\":5098:5153  DUSDinvestor[msg.sender].investment[_id].investedAmount */\n      0x00\n      add\n      sload\n        /* \"contracts/stake_reward_MLM.sol\":5098:5155  DUSDinvestor[msg.sender].investment[_id].investedAmount>0 */\n      gt\n        /* \"contracts/stake_reward_MLM.sol\":5090:5196  require(DUSDinvestor[msg.sender].investment[_id].investedAmount>0,\"you dont have investment to withdrawn\") */\n      tag_131\n      jumpi\n      mload(0x40)\n      0x08c379a000000000000000000000000000000000000000000000000000000000\n      dup2\n      mstore\n      0x04\n      add\n      tag_132\n      swap1\n      tag_133\n      jump\t// in\n    tag_132:\n      mload(0x40)\n      dup1\n      swap2\n      sub\n      swap1\n      revert\n    tag_131:\n        /* \"contracts/stake_reward_MLM.sol\":5268:5279  uint amount */\n      0x00\n        /* \"contracts/stake_reward_MLM.sol\":5280:5292  DUSDinvestor */\n      0x07\n        /* \"contracts/stake_reward_MLM.sol\":5280:5304  DUSDinvestor[msg.sender] */\n      0x00\n        /* \"contracts/stake_reward_MLM.sol\":5293:5303  msg.sender */\n      caller\n        /* \"contracts/stake_reward_MLM.sol\":5280:5304  DUSDinvestor[msg.sender] */\n      0xffffffffffffffffffffffffffffffffffffffff\n      and\n      0xffffffffffffffffffffffffffffffffffffffff\n      and\n      dup2\n      mstore\n      0x20\n      add\n      swap1\n      dup2\n      mstore\n      0x20\n      add\n      0x00\n      keccak256\n        /* \"contracts/stake_reward_MLM.sol\":5280:5315  DUSDinvestor[msg.sender].investment */\n      0x00\n      add\n        /* \"contracts/stake_reward_MLM.sol\":5280:5320  DUSDinvestor[msg.sender].investment[_id] */\n      0x00\n        /* \"contracts/stake_reward_MLM.sol\":5316:5319  _id */\n      dup5\n        /* \"contracts/stake_reward_MLM.sol\":5280:5320  DUSDinvestor[msg.sender].investment[_id] */\n      dup2\n      mstore\n      0x20\n      add\n      swap1\n      dup2\n      mstore\n      0x20\n      add\n      0x00\n      keccak256\n        /* \"contracts/stake_reward_MLM.sol\":5280:5335  DUSDinvestor[msg.sender].investment[_id].investedAmount */\n      0x00\n      add\n      sload\n        /* \"contracts/stake_reward_MLM.sol\":5268:5335  uint amount=DUSDinvestor[msg.sender].investment[_id].investedAmount */\n      swap1\n      pop\n        /* \"contracts/stake_reward_MLM.sol\":5409:5424  block.timestamp */\n      timestamp\n        /* \"contracts/stake_reward_MLM.sol\":5352:5364  DUSDinvestor */\n      0x07\n        /* \"contracts/stake_reward_MLM.sol\":5352:5376  DUSDinvestor[msg.sender] */\n      0x00\n        /* \"contracts/stake_reward_MLM.sol\":5365:5375  msg.sender */\n      caller\n        /* \"contracts/stake_reward_MLM.sol\":5352:5376  DUSDinvestor[msg.sender] */\n      0xffffffffffffffffffffffffffffffffffffffff\n      and\n      0xffffffffffffffffffffffffffffffffffffffff\n      and\n      dup2\n      mstore\n      0x20\n      add\n      swap1\n      dup2\n      mstore\n      0x20\n      add\n      0x00\n      keccak256\n        /* \"contracts/stake_reward_MLM.sol\":5352:5387  DUSDinvestor[msg.sender].investment */\n      0x00\n      add\n        /* \"contracts/stake_reward_MLM.sol\":5352:5392  DUSDinvestor[msg.sender].investment[_id] */\n      0x00\n        /* \"contracts/stake_reward_MLM.sol\":5388:5391  _id */\n      dup6\n        /* \"contracts/stake_reward_MLM.sol\":5352:5392  DUSDinvestor[msg.sender].investment[_id] */\n      dup2\n      mstore\n      0x20\n      add\n      swap1\n      dup2\n      mstore\n      0x20\n      add\n      0x00\n      keccak256\n        /* \"contracts/stake_reward_MLM.sol\":5352:5406  DUSDinvestor[msg.sender].investment[_id].withdrawnTime */\n      0x01\n      add\n      sload\n        /* \"contracts/stake_reward_MLM.sol\":5352:5424  DUSDinvestor[msg.sender].investment[_id].withdrawnTime > block.timestamp */\n      gt\n        /* \"contracts/stake_reward_MLM.sol\":5349:5488  if(DUSDinvestor[msg.sender].investment[_id].withdrawnTime > block.timestamp)... */\n      iszero\n      tag_134\n      jumpi\n        /* \"contracts/stake_reward_MLM.sol\":5472:5473  2 */\n      0x02\n        /* \"contracts/stake_reward_MLM.sol\":5465:5471  amount */\n      dup2\n        /* \"contracts/stake_reward_MLM.sol\":5465:5473  amount/2 */\n      tag_135\n      swap2\n      swap1\n      tag_124\n      jump\t// in\n    tag_135:\n        /* \"contracts/stake_reward_MLM.sol\":5456:5473  amount = amount/2 */\n      swap1\n      pop\n        /* \"contracts/stake_reward_MLM.sol\":5349:5488  if(DUSDinvestor[msg.sender].investment[_id].withdrawnTime > block.timestamp)... */\n    tag_134:\n        /* \"contracts/stake_reward_MLM.sol\":5519:5531  DUSDcontract */\n      0x02\n      0x00\n      swap1\n      sload\n      swap1\n      0x0100\n      exp\n      swap1\n      div\n      0xffffffffffffffffffffffffffffffffffffffff\n      and\n        /* \"contracts/stake_reward_MLM.sol\":5514:5541  DUSD(DUSDcontract).transfer */\n      0xffffffffffffffffffffffffffffffffffffffff\n      and\n      0xa9059cbb\n        /* \"contracts/stake_reward_MLM.sol\":5542:5552  msg.sender */\n      caller\n        /* \"contracts/stake_reward_MLM.sol\":5553:5559  amount */\n      dup4\n        /* \"contracts/stake_reward_MLM.sol\":5514:5560  DUSD(DUSDcontract).transfer(msg.sender,amount) */\n      mload(0x40)\n      dup4\n      0xffffffff\n      and\n      0xe0\n      shl\n      dup2\n      mstore\n      0x04\n      add\n      tag_136\n      swap3\n      swap2\n      swap1\n      tag_137\n      jump\t// in\n    tag_136:\n      0x20\n      mload(0x40)\n      dup1\n      dup4\n      sub\n      dup2\n      0x00\n      dup8\n      dup1\n      extcodesize\n      iszero\n      dup1\n      iszero\n      tag_138\n      jumpi\n      0x00\n      dup1\n      revert\n    tag_138:\n      pop\n      gas\n      call\n      iszero\n      dup1\n      iszero\n      tag_140\n      jumpi\n      returndatasize\n      0x00\n      dup1\n      returndatacopy\n      revert(0x00, returndatasize)\n    tag_140:\n      pop\n      pop\n      pop\n      pop\n      mload(0x40)\n      returndatasize\n      not(0x1f)\n      0x1f\n      dup3\n      add\n      and\n      dup3\n      add\n      dup1\n      0x40\n      mstore\n      pop\n      dup2\n      add\n      swap1\n      tag_141\n      swap2\n      swap1\n      tag_142\n      jump\t// in\n    tag_141:\n      pop\n        /* \"contracts/stake_reward_MLM.sol\":5647:5659  DUSDcontract */\n      0x02\n      0x00\n      swap1\n      sload\n      swap1\n      0x0100\n      exp\n      swap1\n      div\n      0xffffffffffffffffffffffffffffffffffffffff\n      and\n        /* \"contracts/stake_reward_MLM.sol\":5642:5669  DUSD(DUSDcontract).transfer */\n      0xffffffffffffffffffffffffffffffffffffffff\n      and\n      0xa9059cbb\n        /* \"contracts/stake_reward_MLM.sol\":5670:5675  owner */\n      0x00\n      dup1\n      sload\n      swap1\n      0x0100\n      exp\n      swap1\n      div\n      0xffffffffffffffffffffffffffffffffffffffff\n      and\n        /* \"contracts/stake_reward_MLM.sol\":5676:5682  amount */\n      dup4\n        /* \"contracts/stake_reward_MLM.sol\":5642:5683  DUSD(DUSDcontract).transfer(owner,amount) */\n      mload(0x40)\n      dup4\n      0xffffffff\n      and\n      0xe0\n      shl\n      dup2\n      mstore\n      0x04\n      add\n      tag_143\n      swap3\n      swap2\n      swap1\n      tag_144\n      jump\t// in\n    tag_143:\n      0x20\n      mload(0x40)\n      dup1\n      dup4\n      sub\n      dup2\n      0x00\n      dup8\n      dup1\n      extcodesize\n      iszero\n      dup1\n      iszero\n      tag_145\n      jumpi\n      0x00\n      dup1\n      revert\n    tag_145:\n      pop\n      gas\n      call\n      iszero\n      dup1\n      iszero\n      tag_147\n      jumpi\n      returndatasize\n      0x00\n      dup1\n      returndatacopy\n      revert(0x00, returndatasize)\n    tag_147:\n      pop\n      pop\n      pop\n      pop\n      mload(0x40)\n      returndatasize\n      not(0x1f)\n      0x1f\n      dup3\n      add\n      and\n      dup3\n      add\n      dup1\n      0x40\n      mstore\n      pop\n      dup2\n      add\n      swap1\n      tag_148\n      swap2\n      swap1\n      tag_142\n      jump\t// in\n    tag_148:\n      pop\n        /* \"contracts/stake_reward_MLM.sol\":5822:5823  0 */\n      0x00\n        /* \"contracts/stake_reward_MLM.sol\":5766:5778  DUSDinvestor */\n      0x07\n        /* \"contracts/stake_reward_MLM.sol\":5766:5790  DUSDinvestor[msg.sender] */\n      0x00\n        /* \"contracts/stake_reward_MLM.sol\":5779:5789  msg.sender */\n      caller\n        /* \"contracts/stake_reward_MLM.sol\":5766:5790  DUSDinvestor[msg.sender] */\n      0xffffffffffffffffffffffffffffffffffffffff\n      and\n      0xffffffffffffffffffffffffffffffffffffffff\n      and\n      dup2\n      mstore\n      0x20\n      add\n      swap1\n      dup2\n      mstore\n      0x20\n      add\n      0x00\n      keccak256\n        /* \"contracts/stake_reward_MLM.sol\":5766:5801  DUSDinvestor[msg.sender].investment */\n      0x00\n      add\n        /* \"contracts/stake_reward_MLM.sol\":5766:5806  DUSDinvestor[msg.sender].investment[_id] */\n      0x00\n        /* \"contracts/stake_reward_MLM.sol\":5802:5805  _id */\n      dup6\n        /* \"contracts/stake_reward_MLM.sol\":5766:5806  DUSDinvestor[msg.sender].investment[_id] */\n      dup2\n      mstore\n      0x20\n      add\n      swap1\n      dup2\n      mstore\n      0x20\n      add\n      0x00\n      keccak256\n        /* \"contracts/stake_reward_MLM.sol\":5766:5821  DUSDinvestor[msg.sender].investment[_id].investedAmount */\n      0x00\n      add\n        /* \"contracts/stake_reward_MLM.sol\":5766:5823  DUSDinvestor[msg.sender].investment[_id].investedAmount=0 */\n      dup2\n      swap1\n      sstore\n      pop\n        /* \"contracts/stake_reward_MLM.sol\":6002:6008  amount */\n      dup1\n        /* \"contracts/stake_reward_MLM.sol\":5960:5972  DUSDinvestor */\n      0x07\n        /* \"contracts/stake_reward_MLM.sol\":5960:5984  DUSDinvestor[msg.sender] */\n      0x00\n        /* \"contracts/stake_reward_MLM.sol\":5973:5983  msg.sender */\n      caller\n        /* \"contracts/stake_reward_MLM.sol\":5960:5984  DUSDinvestor[msg.sender] */\n      0xffffffffffffffffffffffffffffffffffffffff\n      and\n      0xffffffffffffffffffffffffffffffffffffffff\n      and\n      dup2\n      mstore\n      0x20\n      add\n      swap1\n      dup2\n      mstore\n      0x20\n      add\n      0x00\n      keccak256\n        /* \"contracts/stake_reward_MLM.sol\":5960:6000  DUSDinvestor[msg.sender].totalInvestment */\n      0x05\n      add\n      0x00\n        /* \"contracts/stake_reward_MLM.sol\":5960:6008  DUSDinvestor[msg.sender].totalInvestment-=amount */\n      dup3\n      dup3\n      sload\n      tag_149\n      swap2\n      swap1\n      tag_122\n      jump\t// in\n    tag_149:\n      swap3\n      pop\n      pop\n      dup2\n      swap1\n      sstore\n      pop\n        /* \"contracts/stake_reward_MLM.sol\":6170:6174  true */\n      0x01\n        /* \"contracts/stake_reward_MLM.sol\":6163:6174  return true */\n      swap2\n      pop\n      pop\n        /* \"contracts/stake_reward_MLM.sol\":5017:6186  function unStake(uint _id) external  returns (bool success){... */\n      swap2\n      swap1\n      pop\n      jump\t// out\n        /* \"contracts/stake_reward_MLM.sol\":291:319  address payable public owner */\n    tag_57:\n      0x00\n      dup1\n      sload\n      swap1\n      0x0100\n      exp\n      swap1\n      div\n      0xffffffffffffffffffffffffffffffffffffffff\n      and\n      dup2\n      jump\t// out\n        /* \"contracts/stake_reward_MLM.sol\":6196:6406  function getTotalInvestmentDUSD() public view returns(uint) {   //this function is to get the total investment of the ivestor... */\n    tag_61:\n        /* \"contracts/stake_reward_MLM.sol\":6250:6254  uint */\n      0x00\n        /* \"contracts/stake_reward_MLM.sol\":6354:6366  DUSDinvestor */\n      0x07\n        /* \"contracts/stake_reward_MLM.sol\":6354:6378  DUSDinvestor[msg.sender] */\n      0x00\n        /* \"contracts/stake_reward_MLM.sol\":6367:6377  msg.sender */\n      caller\n        /* \"contracts/stake_reward_MLM.sol\":6354:6378  DUSDinvestor[msg.sender] */\n      0xffffffffffffffffffffffffffffffffffffffff\n      and\n      0xffffffffffffffffffffffffffffffffffffffff\n      and\n      dup2\n      mstore\n      0x20\n      add\n      swap1\n      dup2\n      mstore\n      0x20\n      add\n      0x00\n      keccak256\n        /* \"contracts/stake_reward_MLM.sol\":6354:6394  DUSDinvestor[msg.sender].totalInvestment */\n      0x05\n      add\n      sload\n        /* \"contracts/stake_reward_MLM.sol\":6347:6394  return DUSDinvestor[msg.sender].totalInvestment */\n      swap1\n      pop\n        /* \"contracts/stake_reward_MLM.sol\":6196:6406  function getTotalInvestmentDUSD() public view returns(uint) {   //this function is to get the total investment of the ivestor... */\n      swap1\n      jump\t// out\n        /* \"contracts/stake_reward_MLM.sol\":2705:4588  function Stake(uint _investedamount,uint _investmentPeriod,address _referral) external returns(bool success){... */\n    tag_66:\n        /* \"contracts/stake_reward_MLM.sol\":2800:2812  bool success */\n      0x00\n        /* \"contracts/stake_reward_MLM.sol\":2853:2858  10000 */\n      0x2710\n        /* \"contracts/stake_reward_MLM.sol\":2835:2850  _investedamount */\n      dup5\n        /* \"contracts/stake_reward_MLM.sol\":2835:2858  _investedamount > 10000 */\n      gt\n        /* \"contracts/stake_reward_MLM.sol\":2827:2889  require(_investedamount > 10000,\"value is not greater than 0\") */\n      tag_152\n      jumpi\n      mload(0x40)\n      0x08c379a000000000000000000000000000000000000000000000000000000000\n      dup2\n      mstore\n      0x04\n      add\n      tag_153\n      swap1\n      tag_154\n      jump\t// in\n    tag_153:\n      mload(0x40)\n      dup1\n      swap2\n      sub\n      swap1\n      revert\n    tag_152:\n        /* \"contracts/stake_reward_MLM.sol\":3018:3023  false */\n      0x00\n        /* \"contracts/stake_reward_MLM.sol\":2977:3023  DUSDinvestor[msg.sender].investBefore == false */\n      iszero\n      iszero\n        /* \"contracts/stake_reward_MLM.sol\":2977:2989  DUSDinvestor */\n      0x07\n        /* \"contracts/stake_reward_MLM.sol\":2977:3001  DUSDinvestor[msg.sender] */\n      0x00\n        /* \"contracts/stake_reward_MLM.sol\":2990:3000  msg.sender */\n      caller\n        /* \"contracts/stake_reward_MLM.sol\":2977:3001  DUSDinvestor[msg.sender] */\n      0xffffffffffffffffffffffffffffffffffffffff\n      and\n      0xffffffffffffffffffffffffffffffffffffffff\n      and\n      dup2\n      mstore\n      0x20\n      add\n      swap1\n      dup2\n      mstore\n      0x20\n      add\n      0x00\n      keccak256\n        /* \"contracts/stake_reward_MLM.sol\":2977:3014  DUSDinvestor[msg.sender].investBefore */\n      0x06\n      add\n      0x00\n      swap1\n      sload\n      swap1\n      0x0100\n      exp\n      swap1\n      div\n      0xff\n      and\n        /* \"contracts/stake_reward_MLM.sol\":2977:3023  DUSDinvestor[msg.sender].investBefore == false */\n      iszero\n      iszero\n      eq\n        /* \"contracts/stake_reward_MLM.sol\":2974:3128  if(DUSDinvestor[msg.sender].investBefore == false)... */\n      iszero\n      tag_155\n      jumpi\n        /* \"contracts/stake_reward_MLM.sol\":3056:3074  totalDUSDInvestors */\n      0x03\n      0x00\n        /* \"contracts/stake_reward_MLM.sol\":3056:3076  totalDUSDInvestors++ */\n      dup2\n      sload\n      dup1\n      swap3\n      swap2\n      swap1\n      tag_156\n      swap1\n      tag_99\n      jump\t// in\n    tag_156:\n      swap2\n      swap1\n      pop\n      sstore\n      pop\n        /* \"contracts/stake_reward_MLM.sol\":2974:3128  if(DUSDinvestor[msg.sender].investBefore == false)... */\n    tag_155:\n        /* \"contracts/stake_reward_MLM.sol\":3142:3150  uint num */\n      0x00\n        /* \"contracts/stake_reward_MLM.sol\":3153:3165  DUSDinvestor */\n      0x07\n        /* \"contracts/stake_reward_MLM.sol\":3153:3177  DUSDinvestor[msg.sender] */\n      0x00\n        /* \"contracts/stake_reward_MLM.sol\":3166:3176  msg.sender */\n      caller\n        /* \"contracts/stake_reward_MLM.sol\":3153:3177  DUSDinvestor[msg.sender] */\n      0xffffffffffffffffffffffffffffffffffffffff\n      and\n      0xffffffffffffffffffffffffffffffffffffffff\n      and\n      dup2\n      mstore\n      0x20\n      add\n      swap1\n      dup2\n      mstore\n      0x20\n      add\n      0x00\n      keccak256\n        /* \"contracts/stake_reward_MLM.sol\":3153:3192  DUSDinvestor[msg.sender].noOfInvestment */\n      0x04\n      add\n      sload\n        /* \"contracts/stake_reward_MLM.sol\":3142:3192  uint num = DUSDinvestor[msg.sender].noOfInvestment */\n      swap1\n      pop\n        /* \"contracts/stake_reward_MLM.sol\":3263:3278  _investedamount */\n      dup5\n        /* \"contracts/stake_reward_MLM.sol\":3206:3218  DUSDinvestor */\n      0x07\n        /* \"contracts/stake_reward_MLM.sol\":3206:3230  DUSDinvestor[msg.sender] */\n      0x00\n        /* \"contracts/stake_reward_MLM.sol\":3219:3229  msg.sender */\n      caller\n        /* \"contracts/stake_reward_MLM.sol\":3206:3230  DUSDinvestor[msg.sender] */\n      0xffffffffffffffffffffffffffffffffffffffff\n      and\n      0xffffffffffffffffffffffffffffffffffffffff\n      and\n      dup2\n      mstore\n      0x20\n      add\n      swap1\n      dup2\n      mstore\n      0x20\n      add\n      0x00\n      keccak256\n        /* \"contracts/stake_reward_MLM.sol\":3206:3241  DUSDinvestor[msg.sender].investment */\n      0x00\n      add\n        /* \"contracts/stake_reward_MLM.sol\":3206:3246  DUSDinvestor[msg.sender].investment[num] */\n      0x00\n        /* \"contracts/stake_reward_MLM.sol\":3242:3245  num */\n      dup4\n        /* \"contracts/stake_reward_MLM.sol\":3206:3246  DUSDinvestor[msg.sender].investment[num] */\n      dup2\n      mstore\n      0x20\n      add\n      swap1\n      dup2\n      mstore\n      0x20\n      add\n      0x00\n      keccak256\n        /* \"contracts/stake_reward_MLM.sol\":3206:3261  DUSDinvestor[msg.sender].investment[num].investedAmount */\n      0x00\n      add\n        /* \"contracts/stake_reward_MLM.sol\":3206:3278  DUSDinvestor[msg.sender].investment[num].investedAmount =_investedamount */\n      dup2\n      swap1\n      sstore\n      pop\n        /* \"contracts/stake_reward_MLM.sol\":3345:3360  block.timestamp */\n      timestamp\n        /* \"contracts/stake_reward_MLM.sol\":3292:3304  DUSDinvestor */\n      0x07\n        /* \"contracts/stake_reward_MLM.sol\":3292:3316  DUSDinvestor[msg.sender] */\n      0x00\n        /* \"contracts/stake_reward_MLM.sol\":3305:3315  msg.sender */\n      caller\n        /* \"contracts/stake_reward_MLM.sol\":3292:3316  DUSDinvestor[msg.sender] */\n      0xffffffffffffffffffffffffffffffffffffffff\n      and\n      0xffffffffffffffffffffffffffffffffffffffff\n      and\n      dup2\n      mstore\n      0x20\n      add\n      swap1\n      dup2\n      mstore\n      0x20\n      add\n      0x00\n      keccak256\n        /* \"contracts/stake_reward_MLM.sol\":3292:3327  DUSDinvestor[msg.sender].investment */\n      0x00\n      add\n        /* \"contracts/stake_reward_MLM.sol\":3292:3332  DUSDinvestor[msg.sender].investment[num] */\n      0x00\n        /* \"contracts/stake_reward_MLM.sol\":3328:3331  num */\n      dup4\n        /* \"contracts/stake_reward_MLM.sol\":3292:3332  DUSDinvestor[msg.sender].investment[num] */\n      dup2\n      mstore\n      0x20\n      add\n      swap1\n      dup2\n      mstore\n      0x20\n      add\n      0x00\n      keccak256\n        /* \"contracts/stake_reward_MLM.sol\":3292:3344  DUSDinvestor[msg.sender].investment[num].DepositTime */\n      0x02\n      add\n        /* \"contracts/stake_reward_MLM.sol\":3292:3360  DUSDinvestor[msg.sender].investment[num].DepositTime=block.timestamp */\n      dup2\n      swap1\n      sstore\n      pop\n        /* \"contracts/stake_reward_MLM.sol\":3468:3474  1 days */\n      0x015180\n        /* \"contracts/stake_reward_MLM.sol\":3448:3465  _investmentPeriod */\n      dup5\n        /* \"contracts/stake_reward_MLM.sol\":3448:3474  _investmentPeriod * 1 days */\n      tag_157\n      swap2\n      swap1\n      tag_127\n      jump\t// in\n    tag_157:\n        /* \"contracts/stake_reward_MLM.sol\":3429:3444  block.timestamp */\n      timestamp\n        /* \"contracts/stake_reward_MLM.sol\":3429:3475  block.timestamp + (_investmentPeriod * 1 days) */\n      tag_158\n      swap2\n      swap1\n      tag_159\n      jump\t// in\n    tag_158:\n        /* \"contracts/stake_reward_MLM.sol\":3374:3386  DUSDinvestor */\n      0x07\n        /* \"contracts/stake_reward_MLM.sol\":3374:3398  DUSDinvestor[msg.sender] */\n      0x00\n        /* \"contracts/stake_reward_MLM.sol\":3387:3397  msg.sender */\n      caller\n        /* \"contracts/stake_reward_MLM.sol\":3374:3398  DUSDinvestor[msg.sender] */\n      0xffffffffffffffffffffffffffffffffffffffff\n      and\n      0xffffffffffffffffffffffffffffffffffffffff\n      and\n      dup2\n      mstore\n      0x20\n      add\n      swap1\n      dup2\n      mstore\n      0x20\n      add\n      0x00\n      keccak256\n        /* \"contracts/stake_reward_MLM.sol\":3374:3409  DUSDinvestor[msg.sender].investment */\n      0x00\n      add\n        /* \"contracts/stake_reward_MLM.sol\":3374:3414  DUSDinvestor[msg.sender].investment[num] */\n      0x00\n        /* \"contracts/stake_reward_MLM.sol\":3410:3413  num */\n      dup4\n        /* \"contracts/stake_reward_MLM.sol\":3374:3414  DUSDinvestor[msg.sender].investment[num] */\n      dup2\n      mstore\n      0x20\n      add\n      swap1\n      dup2\n      mstore\n      0x20\n      add\n      0x00\n      keccak256\n        /* \"contracts/stake_reward_MLM.sol\":3374:3428  DUSDinvestor[msg.sender].investment[num].withdrawnTime */\n      0x01\n      add\n        /* \"contracts/stake_reward_MLM.sol\":3374:3475  DUSDinvestor[msg.sender].investment[num].withdrawnTime=block.timestamp + (_investmentPeriod * 1 days) */\n      dup2\n      swap1\n      sstore\n      pop\n        /* \"contracts/stake_reward_MLM.sol\":3557:3560  num */\n      dup1\n        /* \"contracts/stake_reward_MLM.sol\":3502:3514  DUSDinvestor */\n      0x07\n        /* \"contracts/stake_reward_MLM.sol\":3502:3526  DUSDinvestor[msg.sender] */\n      0x00\n        /* \"contracts/stake_reward_MLM.sol\":3515:3525  msg.sender */\n      caller\n        /* \"contracts/stake_reward_MLM.sol\":3502:3526  DUSDinvestor[msg.sender] */\n      0xffffffffffffffffffffffffffffffffffffffff\n      and\n      0xffffffffffffffffffffffffffffffffffffffff\n      and\n      dup2\n      mstore\n      0x20\n      add\n      swap1\n      dup2\n      mstore\n      0x20\n      add\n      0x00\n      keccak256\n        /* \"contracts/stake_reward_MLM.sol\":3502:3537  DUSDinvestor[msg.sender].investment */\n      0x00\n      add\n        /* \"contracts/stake_reward_MLM.sol\":3502:3542  DUSDinvestor[msg.sender].investment[num] */\n      0x00\n        /* \"contracts/stake_reward_MLM.sol\":3538:3541  num */\n      dup4\n        /* \"contracts/stake_reward_MLM.sol\":3502:3542  DUSDinvestor[msg.sender].investment[num] */\n      dup2\n      mstore\n      0x20\n      add\n      swap1\n      dup2\n      mstore\n      0x20\n      add\n      0x00\n      keccak256\n        /* \"contracts/stake_reward_MLM.sol\":3502:3556  DUSDinvestor[msg.sender].investment[num].investmentNum */\n      0x03\n      add\n        /* \"contracts/stake_reward_MLM.sol\":3502:3560  DUSDinvestor[msg.sender].investment[num].investmentNum=num */\n      dup2\n      swap1\n      sstore\n      pop\n        /* \"contracts/stake_reward_MLM.sol\":3616:3631  _investedamount */\n      dup5\n        /* \"contracts/stake_reward_MLM.sol\":3574:3586  DUSDinvestor */\n      0x07\n        /* \"contracts/stake_reward_MLM.sol\":3574:3598  DUSDinvestor[msg.sender] */\n      0x00\n        /* \"contracts/stake_reward_MLM.sol\":3587:3597  msg.sender */\n      caller\n        /* \"contracts/stake_reward_MLM.sol\":3574:3598  DUSDinvestor[msg.sender] */\n      0xffffffffffffffffffffffffffffffffffffffff\n      and\n      0xffffffffffffffffffffffffffffffffffffffff\n      and\n      dup2\n      mstore\n      0x20\n      add\n      swap1\n      dup2\n      mstore\n      0x20\n      add\n      0x00\n      keccak256\n        /* \"contracts/stake_reward_MLM.sol\":3574:3614  DUSDinvestor[msg.sender].totalInvestment */\n      0x05\n      add\n      0x00\n        /* \"contracts/stake_reward_MLM.sol\":3574:3631  DUSDinvestor[msg.sender].totalInvestment+=_investedamount */\n      dup3\n      dup3\n      sload\n      tag_160\n      swap2\n      swap1\n      tag_159\n      jump\t// in\n    tag_160:\n      swap3\n      pop\n      pop\n      dup2\n      swap1\n      sstore\n      pop\n        /* \"contracts/stake_reward_MLM.sol\":3683:3687  true */\n      0x01\n        /* \"contracts/stake_reward_MLM.sol\":3645:3657  DUSDinvestor */\n      0x07\n        /* \"contracts/stake_reward_MLM.sol\":3645:3669  DUSDinvestor[msg.sender] */\n      0x00\n        /* \"contracts/stake_reward_MLM.sol\":3658:3668  msg.sender */\n      caller\n        /* \"contracts/stake_reward_MLM.sol\":3645:3669  DUSDinvestor[msg.sender] */\n      0xffffffffffffffffffffffffffffffffffffffff\n      and\n      0xffffffffffffffffffffffffffffffffffffffff\n      and\n      dup2\n      mstore\n      0x20\n      add\n      swap1\n      dup2\n      mstore\n      0x20\n      add\n      0x00\n      keccak256\n        /* \"contracts/stake_reward_MLM.sol\":3645:3682  DUSDinvestor[msg.sender].investBefore */\n      0x06\n      add\n      0x00\n        /* \"contracts/stake_reward_MLM.sol\":3645:3687  DUSDinvestor[msg.sender].investBefore=true */\n      0x0100\n      exp\n      dup2\n      sload\n      dup2\n      0xff\n      mul\n      not\n      and\n      swap1\n      dup4\n      iszero\n      iszero\n      mul\n      or\n      swap1\n      sstore\n      pop\n        /* \"contracts/stake_reward_MLM.sol\":3701:3713  DUSDinvestor */\n      0x07\n        /* \"contracts/stake_reward_MLM.sol\":3701:3725  DUSDinvestor[msg.sender] */\n      0x00\n        /* \"contracts/stake_reward_MLM.sol\":3714:3724  msg.sender */\n      caller\n        /* \"contracts/stake_reward_MLM.sol\":3701:3725  DUSDinvestor[msg.sender] */\n      0xffffffffffffffffffffffffffffffffffffffff\n      and\n      0xffffffffffffffffffffffffffffffffffffffff\n      and\n      dup2\n      mstore\n      0x20\n      add\n      swap1\n      dup2\n      mstore\n      0x20\n      add\n      0x00\n      keccak256\n        /* \"contracts/stake_reward_MLM.sol\":3701:3740  DUSDinvestor[msg.sender].noOfInvestment */\n      0x04\n      add\n      0x00\n        /* \"contracts/stake_reward_MLM.sol\":3701:3742  DUSDinvestor[msg.sender].noOfInvestment++ */\n      dup2\n      sload\n      dup1\n      swap3\n      swap2\n      swap1\n      tag_161\n      swap1\n      tag_99\n      jump\t// in\n    tag_161:\n      swap2\n      swap1\n      pop\n      sstore\n      pop\n        /* \"contracts/stake_reward_MLM.sol\":3761:3773  DUSDcontract */\n      0x02\n      0x00\n      swap1\n      sload\n      swap1\n      0x0100\n      exp\n      swap1\n      div\n      0xffffffffffffffffffffffffffffffffffffffff\n      and\n        /* \"contracts/stake_reward_MLM.sol\":3756:3787  DUSD(DUSDcontract).transferfrom */\n      0xffffffffffffffffffffffffffffffffffffffff\n      and\n      0x63b0545f\n        /* \"contracts/stake_reward_MLM.sol\":3788:3798  msg.sender */\n      caller\n        /* \"contracts/stake_reward_MLM.sol\":3807:3811  this */\n      address\n        /* \"contracts/stake_reward_MLM.sol\":3813:3828  _investedamount */\n      dup9\n        /* \"contracts/stake_reward_MLM.sol\":3756:3829  DUSD(DUSDcontract).transferfrom(msg.sender,address(this),_investedamount) */\n      mload(0x40)\n      dup5\n      0xffffffff\n      and\n      0xe0\n      shl\n      dup2\n      mstore\n      0x04\n      add\n      tag_162\n      swap4\n      swap3\n      swap2\n      swap1\n      tag_163\n      jump\t// in\n    tag_162:\n      0x20\n      mload(0x40)\n      dup1\n      dup4\n      sub\n      dup2\n      0x00\n      dup8\n      dup1\n      extcodesize\n      iszero\n      dup1\n      iszero\n      tag_164\n      jumpi\n      0x00\n      dup1\n      revert\n    tag_164:\n      pop\n      gas\n      call\n      iszero\n      dup1\n      iszero\n      tag_166\n      jumpi\n      returndatasize\n      0x00\n      dup1\n      returndatacopy\n      revert(0x00, returndatasize)\n    tag_166:\n      pop\n      pop\n      pop\n      pop\n      mload(0x40)\n      returndatasize\n      not(0x1f)\n      0x1f\n      dup3\n      add\n      and\n      dup3\n      add\n      dup1\n      0x40\n      mstore\n      pop\n      dup2\n      add\n      swap1\n      tag_167\n      swap2\n      swap1\n      tag_142\n      jump\t// in\n    tag_167:\n      pop\n        /* \"contracts/stake_reward_MLM.sol\":3865:3866  0 */\n      0x00\n        /* \"contracts/stake_reward_MLM.sol\":3846:3867  _referral==address(0) */\n      0xffffffffffffffffffffffffffffffffffffffff\n      and\n        /* \"contracts/stake_reward_MLM.sol\":3846:3855  _referral */\n      dup4\n        /* \"contracts/stake_reward_MLM.sol\":3846:3867  _referral==address(0) */\n      0xffffffffffffffffffffffffffffffffffffffff\n      and\n      eq\n        /* \"contracts/stake_reward_MLM.sol\":3843:4413  if(_referral==address(0))                                         //checking that investor comes from the referral link or not... */\n      iszero\n      tag_168\n      jumpi\n        /* \"contracts/stake_reward_MLM.sol\":4048:4049  0 */\n      0x00\n        /* \"contracts/stake_reward_MLM.sol\":4000:4012  DUSDinvestor */\n      0x07\n        /* \"contracts/stake_reward_MLM.sol\":4000:4024  DUSDinvestor[msg.sender] */\n      0x00\n        /* \"contracts/stake_reward_MLM.sol\":4013:4023  msg.sender */\n      caller\n        /* \"contracts/stake_reward_MLM.sol\":4000:4024  DUSDinvestor[msg.sender] */\n      0xffffffffffffffffffffffffffffffffffffffff\n      and\n      0xffffffffffffffffffffffffffffffffffffffff\n      and\n      dup2\n      mstore\n      0x20\n      add\n      swap1\n      dup2\n      mstore\n      0x20\n      add\n      0x00\n      keccak256\n        /* \"contracts/stake_reward_MLM.sol\":4000:4037  DUSDinvestor[msg.sender].referralFrom */\n      0x02\n      add\n      0x00\n        /* \"contracts/stake_reward_MLM.sol\":4000:4050  DUSDinvestor[msg.sender].referralFrom = address(0) */\n      0x0100\n      exp\n      dup2\n      sload\n      dup2\n      0xffffffffffffffffffffffffffffffffffffffff\n      mul\n      not\n      and\n      swap1\n      dup4\n      0xffffffffffffffffffffffffffffffffffffffff\n      and\n      mul\n      or\n      swap1\n      sstore\n      pop\n        /* \"contracts/stake_reward_MLM.sol\":3843:4413  if(_referral==address(0))                                         //checking that investor comes from the referral link or not... */\n      jump(tag_169)\n    tag_168:\n        /* \"contracts/stake_reward_MLM.sol\":4153:4162  _referral */\n      dup3\n        /* \"contracts/stake_reward_MLM.sol\":4113:4125  DUSDinvestor */\n      0x07\n        /* \"contracts/stake_reward_MLM.sol\":4113:4137  DUSDinvestor[msg.sender] */\n      0x00\n        /* \"contracts/stake_reward_MLM.sol\":4126:4136  msg.sender */\n      caller\n        /* \"contracts/stake_reward_MLM.sol\":4113:4137  DUSDinvestor[msg.sender] */\n      0xffffffffffffffffffffffffffffffffffffffff\n      and\n      0xffffffffffffffffffffffffffffffffffffffff\n      and\n      dup2\n      mstore\n      0x20\n      add\n      swap1\n      dup2\n      mstore\n      0x20\n      add\n      0x00\n      keccak256\n        /* \"contracts/stake_reward_MLM.sol\":4113:4150  DUSDinvestor[msg.sender].referralFrom */\n      0x02\n      add\n      0x00\n        /* \"contracts/stake_reward_MLM.sol\":4113:4162  DUSDinvestor[msg.sender].referralFrom = _referral */\n      0x0100\n      exp\n      dup2\n      sload\n      dup2\n      0xffffffffffffffffffffffffffffffffffffffff\n      mul\n      not\n      and\n      swap1\n      dup4\n      0xffffffffffffffffffffffffffffffffffffffff\n      and\n      mul\n      or\n      swap1\n      sstore\n      pop\n        /* \"contracts/stake_reward_MLM.sol\":4180:4192  DUSDinvestor */\n      0x07\n        /* \"contracts/stake_reward_MLM.sol\":4180:4203  DUSDinvestor[_referral] */\n      0x00\n        /* \"contracts/stake_reward_MLM.sol\":4193:4202  _referral */\n      dup5\n        /* \"contracts/stake_reward_MLM.sol\":4180:4203  DUSDinvestor[_referral] */\n      0xffffffffffffffffffffffffffffffffffffffff\n      and\n      0xffffffffffffffffffffffffffffffffffffffff\n      and\n      dup2\n      mstore\n      0x20\n      add\n      swap1\n      dup2\n      mstore\n      0x20\n      add\n      0x00\n      keccak256\n        /* \"contracts/stake_reward_MLM.sol\":4180:4216  DUSDinvestor[_referral].hisReferrals */\n      0x01\n      add\n        /* \"contracts/stake_reward_MLM.sol\":4222:4232  msg.sender */\n      caller\n        /* \"contracts/stake_reward_MLM.sol\":4180:4233  DUSDinvestor[_referral].hisReferrals.push(msg.sender) */\n      swap1\n      dup1\n      0x01\n      dup2\n      sload\n      add\n      dup1\n      dup3\n      sstore\n      dup1\n      swap2\n      pop\n      pop\n      0x01\n      swap1\n      sub\n      swap1\n      0x00\n      mstore\n      keccak256(0x00, 0x20)\n      add\n      0x00\n      swap1\n      swap2\n      swap1\n      swap2\n      swap1\n      swap2\n      0x0100\n      exp\n      dup2\n      sload\n      dup2\n      0xffffffffffffffffffffffffffffffffffffffff\n      mul\n      not\n      and\n      swap1\n      dup4\n      0xffffffffffffffffffffffffffffffffffffffff\n      and\n      mul\n      or\n      swap1\n      sstore\n      pop\n        /* \"contracts/stake_reward_MLM.sol\":4251:4304  sendRewardToDUSDReferrals(msg.sender,_investedamount) */\n      tag_171\n        /* \"contracts/stake_reward_MLM.sol\":4277:4287  msg.sender */\n      caller\n        /* \"contracts/stake_reward_MLM.sol\":4288:4303  _investedamount */\n      dup7\n        /* \"contracts/stake_reward_MLM.sol\":4251:4276  sendRewardToDUSDReferrals */\n      tag_172\n        /* \"contracts/stake_reward_MLM.sol\":4251:4304  sendRewardToDUSDReferrals(msg.sender,_investedamount) */\n      jump\t// in\n    tag_171:\n        /* \"contracts/stake_reward_MLM.sol\":3843:4413  if(_referral==address(0))                                         //checking that investor comes from the referral link or not... */\n    tag_169:\n        /* \"contracts/stake_reward_MLM.sol\":4560:4564  true */\n      0x01\n        /* \"contracts/stake_reward_MLM.sol\":4553:4564  return true */\n      swap2\n      pop\n      pop\n        /* \"contracts/stake_reward_MLM.sol\":2705:4588  function Stake(uint _investedamount,uint _investmentPeriod,address _referral) external returns(bool success){... */\n      swap4\n      swap3\n      pop\n      pop\n      pop\n      jump\t// out\n        /* \"contracts/stake_reward_MLM.sol\":4599:5006  function withdrawReward() external returns (bool success){... */\n    tag_69:\n        /* \"contracts/stake_reward_MLM.sol\":4643:4655  bool success */\n      0x00\n        /* \"contracts/stake_reward_MLM.sol\":4670:4687  uint Total_reward */\n      dup1\n        /* \"contracts/stake_reward_MLM.sol\":4690:4701  getReward() */\n      tag_174\n        /* \"contracts/stake_reward_MLM.sol\":4690:4699  getReward */\n      tag_46\n        /* \"contracts/stake_reward_MLM.sol\":4690:4701  getReward() */\n      jump\t// in\n    tag_174:\n        /* \"contracts/stake_reward_MLM.sol\":4670:4701  uint Total_reward = getReward() */\n      swap1\n      pop\n        /* \"contracts/stake_reward_MLM.sol\":4736:4737  0 */\n      0x00\n        /* \"contracts/stake_reward_MLM.sol\":4723:4735  Total_reward */\n      dup2\n        /* \"contracts/stake_reward_MLM.sol\":4723:4737  Total_reward>0 */\n      gt\n        /* \"contracts/stake_reward_MLM.sol\":4715:4775  require(Total_reward>0,\"you dont have rewards to withdrawn\") */\n      tag_175\n      jumpi\n      mload(0x40)\n      0x08c379a000000000000000000000000000000000000000000000000000000000\n      dup2\n      mstore\n      0x04\n      add\n      tag_176\n      swap1\n      tag_177\n      jump\t// in\n    tag_176:\n      mload(0x40)\n      dup1\n      swap2\n      sub\n      swap1\n      revert\n    tag_175:\n        /* \"contracts/stake_reward_MLM.sol\":4859:4871  DUSDcontract */\n      0x02\n      0x00\n      swap1\n      sload\n      swap1\n      0x0100\n      exp\n      swap1\n      div\n      0xffffffffffffffffffffffffffffffffffffffff\n      and\n        /* \"contracts/stake_reward_MLM.sol\":4854:4881  DUSD(DUSDcontract).transfer */\n      0xffffffffffffffffffffffffffffffffffffffff\n      and\n      0xa9059cbb\n        /* \"contracts/stake_reward_MLM.sol\":4882:4892  msg.sender */\n      caller\n        /* \"contracts/stake_reward_MLM.sol\":4893:4905  Total_reward */\n      dup4\n        /* \"contracts/stake_reward_MLM.sol\":4854:4906  DUSD(DUSDcontract).transfer(msg.sender,Total_reward) */\n      mload(0x40)\n      dup4\n      0xffffffff\n      and\n      0xe0\n      shl\n      dup2\n      mstore\n      0x04\n      add\n      tag_178\n      swap3\n      swap2\n      swap1\n      tag_137\n      jump\t// in\n    tag_178:\n      0x20\n      mload(0x40)\n      dup1\n      dup4\n      sub\n      dup2\n      0x00\n      dup8\n      dup1\n      extcodesize\n      iszero\n      dup1\n      iszero\n      tag_179\n      jumpi\n      0x00\n      dup1\n      revert\n    tag_179:\n      pop\n      gas\n      call\n      iszero\n      dup1\n      iszero\n      tag_181\n      jumpi\n      returndatasize\n      0x00\n      dup1\n      returndatacopy\n      revert(0x00, returndatasize)\n    tag_181:\n      pop\n      pop\n      pop\n      pop\n      mload(0x40)\n      returndatasize\n      not(0x1f)\n      0x1f\n      dup3\n      add\n      and\n      dup3\n      add\n      dup1\n      0x40\n      mstore\n      pop\n      dup2\n      add\n      swap1\n      tag_182\n      swap2\n      swap1\n      tag_142\n      jump\t// in\n    tag_182:\n      pop\n        /* \"contracts/stake_reward_MLM.sol\":4990:4994  true */\n      0x01\n        /* \"contracts/stake_reward_MLM.sol\":4983:4994  return true */\n      swap2\n      pop\n      pop\n        /* \"contracts/stake_reward_MLM.sol\":4599:5006  function withdrawReward() external returns (bool success){... */\n      swap1\n      jump\t// out\n        /* \"contracts/stake_reward_MLM.sol\":8784:9008  function set_values(uint min_stake,uint max_stake,uint reward_per_day) public ... */\n    tag_74:\n        /* \"contracts/stake_reward_MLM.sol\":8904:8913  max_stake */\n      dup2\n        /* \"contracts/stake_reward_MLM.sol\":8885:8901  max_Stake_amount */\n      0x06\n        /* \"contracts/stake_reward_MLM.sol\":8885:8913  max_Stake_amount = max_stake */\n      dup2\n      swap1\n      sstore\n      pop\n        /* \"contracts/stake_reward_MLM.sol\":8946:8955  min_stake */\n      dup3\n        /* \"contracts/stake_reward_MLM.sol\":8927:8943  min_Stake_amount */\n      0x05\n        /* \"contracts/stake_reward_MLM.sol\":8927:8955  min_Stake_amount = min_stake */\n      dup2\n      swap1\n      sstore\n      pop\n        /* \"contracts/stake_reward_MLM.sol\":8983:8997  reward_per_day */\n      dup1\n        /* \"contracts/stake_reward_MLM.sol\":8969:8980  rewardToken */\n      0x04\n        /* \"contracts/stake_reward_MLM.sol\":8969:8997  rewardToken = reward_per_day */\n      dup2\n      swap1\n      sstore\n      pop\n        /* \"contracts/stake_reward_MLM.sol\":8784:9008  function set_values(uint min_stake,uint max_stake,uint reward_per_day) public ... */\n      pop\n      pop\n      pop\n      jump\t// out\n        /* \"contracts/stake_reward_MLM.sol\":329:350  uint public ownerfees */\n    tag_76:\n      sload(0x01)\n      dup2\n      jump\t// out\n        /* \"contracts/stake_reward_MLM.sol\":1059:1101  mapping(address=>Data) public DUSDinvestor */\n    tag_81:\n      mstore(0x20, 0x07)\n      dup1\n      0x00\n      mstore\n      keccak256(0x00, 0x40)\n      0x00\n      swap2\n      pop\n      swap1\n      pop\n      dup1\n      0x02\n      add\n      0x00\n      swap1\n      sload\n      swap1\n      0x0100\n      exp\n      swap1\n      div\n      0xffffffffffffffffffffffffffffffffffffffff\n      and\n      swap1\n      dup1\n      0x03\n      add\n      sload\n      swap1\n      dup1\n      0x04\n      add\n      sload\n      swap1\n      dup1\n      0x05\n      add\n      sload\n      swap1\n      dup1\n      0x06\n      add\n      0x00\n      swap1\n      sload\n      swap1\n      0x0100\n      exp\n      swap1\n      div\n      0xff\n      and\n      swap1\n      pop\n      dup6\n      jump\t// out\n        /* \"contracts/stake_reward_MLM.sol\":473:515  uint public rewardToken=500000000000000000 */\n    tag_85:\n      sload(0x04)\n      dup2\n      jump\t// out\n        /* \"contracts/stake_reward_MLM.sol\":1341:2691  function sendRewardToDUSDReferrals(address investor,uint _investedAmount) internal  //this is the freferral function to transfer the reawards to referrals... */\n    tag_172:\n        /* \"contracts/stake_reward_MLM.sol\":1520:1532  address temp */\n      0x00\n        /* \"contracts/stake_reward_MLM.sol\":1535:1543  investor */\n      dup3\n        /* \"contracts/stake_reward_MLM.sol\":1520:1543  address temp = investor */\n      swap1\n      pop\n        /* \"contracts/stake_reward_MLM.sol\":1564:1588  uint[] memory percentage */\n      0x00\n        /* \"contracts/stake_reward_MLM.sol\":1602:1603  4 */\n      0x04\n        /* \"contracts/stake_reward_MLM.sol\":1591:1604  new uint[](4) */\n      0xffffffffffffffff\n      dup2\n      gt\n      iszero\n      tag_185\n      jumpi\n      tag_186\n      tag_103\n      jump\t// in\n    tag_186:\n    tag_185:\n      mload(0x40)\n      swap1\n      dup1\n      dup3\n      mstore\n      dup1\n      0x20\n      mul\n      0x20\n      add\n      dup3\n      add\n      0x40\n      mstore\n      dup1\n      iszero\n      tag_187\n      jumpi\n      dup2\n      0x20\n      add\n      0x20\n      dup3\n      mul\n      dup1\n      calldatasize\n      dup4\n      calldatacopy\n      dup1\n      dup3\n      add\n      swap2\n      pop\n      pop\n      swap1\n      pop\n    tag_187:\n      pop\n        /* \"contracts/stake_reward_MLM.sol\":1564:1604  uint[] memory percentage = new uint[](4) */\n      swap1\n      pop\n        /* \"contracts/stake_reward_MLM.sol\":1634:1641  5 ether */\n      0x4563918244f40000\n        /* \"contracts/stake_reward_MLM.sol\":1618:1628  percentage */\n      dup2\n        /* \"contracts/stake_reward_MLM.sol\":1629:1630  0 */\n      0x00\n        /* \"contracts/stake_reward_MLM.sol\":1618:1631  percentage[0] */\n      dup2\n      mload\n      dup2\n      lt\n      tag_188\n      jumpi\n      tag_189\n      tag_114\n      jump\t// in\n    tag_189:\n    tag_188:\n      0x20\n      mul\n      0x20\n      add\n      add\n        /* \"contracts/stake_reward_MLM.sol\":1618:1641  percentage[0] = 5 ether */\n      dup2\n      dup2\n      mstore\n      pop\n      pop\n        /* \"contracts/stake_reward_MLM.sol\":1671:1678  3 ether */\n      0x29a2241af62c0000\n        /* \"contracts/stake_reward_MLM.sol\":1655:1665  percentage */\n      dup2\n        /* \"contracts/stake_reward_MLM.sol\":1666:1667  1 */\n      0x01\n        /* \"contracts/stake_reward_MLM.sol\":1655:1668  percentage[1] */\n      dup2\n      mload\n      dup2\n      lt\n      tag_190\n      jumpi\n      tag_191\n      tag_114\n      jump\t// in\n    tag_191:\n    tag_190:\n      0x20\n      mul\n      0x20\n      add\n      add\n        /* \"contracts/stake_reward_MLM.sol\":1655:1678  percentage[1] = 3 ether */\n      dup2\n      dup2\n      mstore\n      pop\n      pop\n        /* \"contracts/stake_reward_MLM.sol\":1708:1715  2 ether */\n      0x1bc16d674ec80000\n        /* \"contracts/stake_reward_MLM.sol\":1692:1702  percentage */\n      dup2\n        /* \"contracts/stake_reward_MLM.sol\":1703:1704  2 */\n      0x02\n        /* \"contracts/stake_reward_MLM.sol\":1692:1705  percentage[2] */\n      dup2\n      mload\n      dup2\n      lt\n      tag_192\n      jumpi\n      tag_193\n      tag_114\n      jump\t// in\n    tag_193:\n    tag_192:\n      0x20\n      mul\n      0x20\n      add\n      add\n        /* \"contracts/stake_reward_MLM.sol\":1692:1715  percentage[2] = 2 ether */\n      dup2\n      dup2\n      mstore\n      pop\n      pop\n        /* \"contracts/stake_reward_MLM.sol\":1745:1752  1 ether */\n      0x0de0b6b3a7640000\n        /* \"contracts/stake_reward_MLM.sol\":1729:1739  percentage */\n      dup2\n        /* \"contracts/stake_reward_MLM.sol\":1740:1741  3 */\n      0x03\n        /* \"contracts/stake_reward_MLM.sol\":1729:1742  percentage[3] */\n      dup2\n      mload\n      dup2\n      lt\n      tag_194\n      jumpi\n      tag_195\n      tag_114\n      jump\t// in\n    tag_195:\n    tag_194:\n      0x20\n      mul\n      0x20\n      add\n      add\n        /* \"contracts/stake_reward_MLM.sol\":1729:1752  percentage[3] = 1 ether */\n      dup2\n      dup2\n      mstore\n      pop\n      pop\n        /* \"contracts/stake_reward_MLM.sol\":1782:1791  0.5 ether */\n      0x06f05b59d3b20000\n        /* \"contracts/stake_reward_MLM.sol\":1766:1776  percentage */\n      dup2\n        /* \"contracts/stake_reward_MLM.sol\":1777:1778  4 */\n      0x04\n        /* \"contracts/stake_reward_MLM.sol\":1766:1779  percentage[4] */\n      dup2\n      mload\n      dup2\n      lt\n      tag_196\n      jumpi\n      tag_197\n      tag_114\n      jump\t// in\n    tag_197:\n    tag_196:\n      0x20\n      mul\n      0x20\n      add\n      add\n        /* \"contracts/stake_reward_MLM.sol\":1766:1791  percentage[4] = 0.5 ether */\n      dup2\n      dup2\n      mstore\n      pop\n      pop\n        /* \"contracts/stake_reward_MLM.sol\":1806:1812  uint j */\n      0x00\n        /* \"contracts/stake_reward_MLM.sol\":1833:1839  uint i */\n      dup1\n        /* \"contracts/stake_reward_MLM.sol\":1840:1841  0 */\n      0x00\n        /* \"contracts/stake_reward_MLM.sol\":1833:1841  uint i=0 */\n      swap1\n      pop\n        /* \"contracts/stake_reward_MLM.sol\":1829:2680  for(uint i=0;i<20;i++)... */\n    tag_198:\n        /* \"contracts/stake_reward_MLM.sol\":1844:1846  20 */\n      0x14\n        /* \"contracts/stake_reward_MLM.sol\":1842:1843  i */\n      dup2\n        /* \"contracts/stake_reward_MLM.sol\":1842:1846  i<20 */\n      lt\n        /* \"contracts/stake_reward_MLM.sol\":1829:2680  for(uint i=0;i<20;i++)... */\n      iszero\n      tag_199\n      jumpi\n        /* \"contracts/stake_reward_MLM.sol\":1889:1890  0 */\n      0x00\n        /* \"contracts/stake_reward_MLM.sol\":1886:1887  i */\n      dup2\n        /* \"contracts/stake_reward_MLM.sol\":1886:1890  i==0 */\n      eq\n        /* \"contracts/stake_reward_MLM.sol\":1883:2315  if(i==0)... */\n      iszero\n      tag_201\n      jumpi\n        /* \"contracts/stake_reward_MLM.sol\":1932:1933  0 */\n      0x00\n        /* \"contracts/stake_reward_MLM.sol\":1930:1933  j=0 */\n      swap2\n      pop\n        /* \"contracts/stake_reward_MLM.sol\":1883:2315  if(i==0)... */\n      jump(tag_202)\n    tag_201:\n        /* \"contracts/stake_reward_MLM.sol\":1980:1981  1 */\n      0x01\n        /* \"contracts/stake_reward_MLM.sol\":1977:1978  i */\n      dup2\n        /* \"contracts/stake_reward_MLM.sol\":1977:1981  i==1 */\n      eq\n        /* \"contracts/stake_reward_MLM.sol\":1974:2315  if(i==1)... */\n      iszero\n      tag_203\n      jumpi\n        /* \"contracts/stake_reward_MLM.sol\":2023:2024  1 */\n      0x01\n        /* \"contracts/stake_reward_MLM.sol\":2021:2024  j=1 */\n      swap2\n      pop\n        /* \"contracts/stake_reward_MLM.sol\":1974:2315  if(i==1)... */\n      jump(tag_204)\n    tag_203:\n        /* \"contracts/stake_reward_MLM.sol\":2071:2072  2 */\n      0x02\n        /* \"contracts/stake_reward_MLM.sol\":2068:2069  i */\n      dup2\n        /* \"contracts/stake_reward_MLM.sol\":2068:2072  i==2 */\n      eq\n        /* \"contracts/stake_reward_MLM.sol\":2065:2315  if(i==2)... */\n      iszero\n      tag_205\n      jumpi\n        /* \"contracts/stake_reward_MLM.sol\":2114:2115  2 */\n      0x02\n        /* \"contracts/stake_reward_MLM.sol\":2112:2115  j=2 */\n      swap2\n      pop\n        /* \"contracts/stake_reward_MLM.sol\":2065:2315  if(i==2)... */\n      jump(tag_206)\n    tag_205:\n        /* \"contracts/stake_reward_MLM.sol\":2162:2163  2 */\n      0x02\n        /* \"contracts/stake_reward_MLM.sol\":2160:2161  i */\n      dup2\n        /* \"contracts/stake_reward_MLM.sol\":2160:2163  i>2 */\n      gt\n        /* \"contracts/stake_reward_MLM.sol\":2157:2315  if(i>2)... */\n      iszero\n      tag_207\n      jumpi\n        /* \"contracts/stake_reward_MLM.sol\":2205:2206  3 */\n      0x03\n        /* \"contracts/stake_reward_MLM.sol\":2203:2206  j=3 */\n      swap2\n      pop\n        /* \"contracts/stake_reward_MLM.sol\":2157:2315  if(i>2)... */\n      jump(tag_208)\n    tag_207:\n        /* \"contracts/stake_reward_MLM.sol\":2252:2253  7 */\n      0x07\n        /* \"contracts/stake_reward_MLM.sol\":2250:2251  i */\n      dup2\n        /* \"contracts/stake_reward_MLM.sol\":2250:2253  i>7 */\n      gt\n        /* \"contracts/stake_reward_MLM.sol\":2247:2315  if(i>7)... */\n      iszero\n      tag_209\n      jumpi\n        /* \"contracts/stake_reward_MLM.sol\":2295:2296  4 */\n      0x04\n        /* \"contracts/stake_reward_MLM.sol\":2293:2296  j=4 */\n      swap2\n      pop\n        /* \"contracts/stake_reward_MLM.sol\":2247:2315  if(i>7)... */\n    tag_209:\n        /* \"contracts/stake_reward_MLM.sol\":2157:2315  if(i>2)... */\n    tag_208:\n        /* \"contracts/stake_reward_MLM.sol\":2065:2315  if(i==2)... */\n    tag_206:\n        /* \"contracts/stake_reward_MLM.sol\":1974:2315  if(i==1)... */\n    tag_204:\n        /* \"contracts/stake_reward_MLM.sol\":1883:2315  if(i==0)... */\n    tag_202:\n        /* \"contracts/stake_reward_MLM.sol\":2393:2394  0 */\n      0x00\n        /* \"contracts/stake_reward_MLM.sol\":2352:2395  DUSDinvestor[temp].referralFrom!=address(0) */\n      0xffffffffffffffffffffffffffffffffffffffff\n      and\n        /* \"contracts/stake_reward_MLM.sol\":2352:2364  DUSDinvestor */\n      0x07\n        /* \"contracts/stake_reward_MLM.sol\":2352:2370  DUSDinvestor[temp] */\n      0x00\n        /* \"contracts/stake_reward_MLM.sol\":2365:2369  temp */\n      dup7\n        /* \"contracts/stake_reward_MLM.sol\":2352:2370  DUSDinvestor[temp] */\n      0xffffffffffffffffffffffffffffffffffffffff\n      and\n      0xffffffffffffffffffffffffffffffffffffffff\n      and\n      dup2\n      mstore\n      0x20\n      add\n      swap1\n      dup2\n      mstore\n      0x20\n      add\n      0x00\n      keccak256\n        /* \"contracts/stake_reward_MLM.sol\":2352:2383  DUSDinvestor[temp].referralFrom */\n      0x02\n      add\n      0x00\n      swap1\n      sload\n      swap1\n      0x0100\n      exp\n      swap1\n      div\n      0xffffffffffffffffffffffffffffffffffffffff\n      and\n        /* \"contracts/stake_reward_MLM.sol\":2352:2395  DUSDinvestor[temp].referralFrom!=address(0) */\n      0xffffffffffffffffffffffffffffffffffffffff\n      and\n      eq\n        /* \"contracts/stake_reward_MLM.sol\":2349:2666  if(DUSDinvestor[temp].referralFrom!=address(0))... */\n      tag_210\n      jumpi\n        /* \"contracts/stake_reward_MLM.sol\":2440:2452  DUSDinvestor */\n      0x07\n        /* \"contracts/stake_reward_MLM.sol\":2440:2458  DUSDinvestor[temp] */\n      0x00\n        /* \"contracts/stake_reward_MLM.sol\":2453:2457  temp */\n      dup6\n        /* \"contracts/stake_reward_MLM.sol\":2440:2458  DUSDinvestor[temp] */\n      0xffffffffffffffffffffffffffffffffffffffff\n      and\n      0xffffffffffffffffffffffffffffffffffffffff\n      and\n      dup2\n      mstore\n      0x20\n      add\n      swap1\n      dup2\n      mstore\n      0x20\n      add\n      0x00\n      keccak256\n        /* \"contracts/stake_reward_MLM.sol\":2440:2471  DUSDinvestor[temp].referralFrom */\n      0x02\n      add\n      0x00\n      swap1\n      sload\n      swap1\n      0x0100\n      exp\n      swap1\n      div\n      0xffffffffffffffffffffffffffffffffffffffff\n      and\n        /* \"contracts/stake_reward_MLM.sol\":2435:2471  temp=DUSDinvestor[temp].referralFrom */\n      swap4\n      pop\n        /* \"contracts/stake_reward_MLM.sol\":2557:2560  100 */\n      0x64\n        /* \"contracts/stake_reward_MLM.sol\":2540:2555  _investedAmount */\n      dup6\n        /* \"contracts/stake_reward_MLM.sol\":2524:2534  percentage */\n      dup5\n        /* \"contracts/stake_reward_MLM.sol\":2535:2536  j */\n      dup5\n        /* \"contracts/stake_reward_MLM.sol\":2524:2537  percentage[j] */\n      dup2\n      mload\n      dup2\n      lt\n      tag_211\n      jumpi\n      tag_212\n      tag_114\n      jump\t// in\n    tag_212:\n    tag_211:\n      0x20\n      mul\n      0x20\n      add\n      add\n      mload\n        /* \"contracts/stake_reward_MLM.sol\":2524:2555  percentage[j] * _investedAmount */\n      tag_213\n      swap2\n      swap1\n      tag_127\n      jump\t// in\n    tag_213:\n        /* \"contracts/stake_reward_MLM.sol\":2523:2560  (percentage[j] * _investedAmount)/100 */\n      tag_214\n      swap2\n      swap1\n      tag_124\n      jump\t// in\n    tag_214:\n        /* \"contracts/stake_reward_MLM.sol\":2493:2505  DUSDinvestor */\n      0x07\n        /* \"contracts/stake_reward_MLM.sol\":2493:2511  DUSDinvestor[temp] */\n      0x00\n        /* \"contracts/stake_reward_MLM.sol\":2506:2510  temp */\n      dup7\n        /* \"contracts/stake_reward_MLM.sol\":2493:2511  DUSDinvestor[temp] */\n      0xffffffffffffffffffffffffffffffffffffffff\n      and\n      0xffffffffffffffffffffffffffffffffffffffff\n      and\n      dup2\n      mstore\n      0x20\n      add\n      swap1\n      dup2\n      mstore\n      0x20\n      add\n      0x00\n      keccak256\n        /* \"contracts/stake_reward_MLM.sol\":2493:2518  DUSDinvestor[temp].reward */\n      0x03\n      add\n      0x00\n        /* \"contracts/stake_reward_MLM.sol\":2493:2561  DUSDinvestor[temp].reward += ((percentage[j] * _investedAmount)/100) */\n      dup3\n      dup3\n      sload\n      tag_215\n      swap2\n      swap1\n      tag_159\n      jump\t// in\n    tag_215:\n      swap3\n      pop\n      pop\n      dup2\n      swap1\n      sstore\n      pop\n        /* \"contracts/stake_reward_MLM.sol\":2349:2666  if(DUSDinvestor[temp].referralFrom!=address(0))... */\n      jump(tag_216)\n    tag_210:\n        /* \"contracts/stake_reward_MLM.sol\":2642:2647  break */\n      jump(tag_199)\n        /* \"contracts/stake_reward_MLM.sol\":2349:2666  if(DUSDinvestor[temp].referralFrom!=address(0))... */\n    tag_216:\n        /* \"contracts/stake_reward_MLM.sol\":1847:1850  i++ */\n      dup1\n      dup1\n      tag_217\n      swap1\n      tag_99\n      jump\t// in\n    tag_217:\n      swap2\n      pop\n      pop\n        /* \"contracts/stake_reward_MLM.sol\":1829:2680  for(uint i=0;i<20;i++)... */\n      jump(tag_198)\n    tag_199:\n      pop\n        /* \"contracts/stake_reward_MLM.sol\":1504:2691  { ... */\n      pop\n      pop\n      pop\n        /* \"contracts/stake_reward_MLM.sol\":1341:2691  function sendRewardToDUSDReferrals(address investor,uint _investedAmount) internal  //this is the freferral function to transfer the reawards to referrals... */\n      pop\n      pop\n      jump\t// out\n    tag_107:\n      mload(0x40)\n      dup1\n      0x80\n      add\n      0x40\n      mstore\n      dup1\n      0x00\n      dup2\n      mstore\n      0x20\n      add\n      0x00\n      dup2\n      mstore\n      0x20\n      add\n      0x00\n      dup2\n      mstore\n      0x20\n      add\n      0x00\n      dup2\n      mstore\n      pop\n      swap1\n      jump\t// out\n        /* \"#utility.yul\":7:146   */\n    tag_219:\n        /* \"#utility.yul\":53:58   */\n      0x00\n        /* \"#utility.yul\":91:97   */\n      dup2\n        /* \"#utility.yul\":78:98   */\n      calldataload\n        /* \"#utility.yul\":69:98   */\n      swap1\n      pop\n        /* \"#utility.yul\":107:140   */\n      tag_221\n        /* \"#utility.yul\":134:139   */\n      dup2\n        /* \"#utility.yul\":107:140   */\n      tag_222\n      jump\t// in\n    tag_221:\n        /* \"#utility.yul\":7:146   */\n      swap3\n      swap2\n      pop\n      pop\n      jump\t// out\n        /* \"#utility.yul\":152:289   */\n    tag_223:\n        /* \"#utility.yul\":206:211   */\n      0x00\n        /* \"#utility.yul\":237:243   */\n      dup2\n        /* \"#utility.yul\":231:244   */\n      mload\n        /* \"#utility.yul\":222:244   */\n      swap1\n      pop\n        /* \"#utility.yul\":253:283   */\n      tag_225\n        /* \"#utility.yul\":277:282   */\n      dup2\n        /* \"#utility.yul\":253:283   */\n      tag_226\n      jump\t// in\n    tag_225:\n        /* \"#utility.yul\":152:289   */\n      swap3\n      swap2\n      pop\n      pop\n      jump\t// out\n        /* \"#utility.yul\":295:434   */\n    tag_227:\n        /* \"#utility.yul\":341:346   */\n      0x00\n        /* \"#utility.yul\":379:385   */\n      dup2\n        /* \"#utility.yul\":366:386   */\n      calldataload\n        /* \"#utility.yul\":357:386   */\n      swap1\n      pop\n        /* \"#utility.yul\":395:428   */\n      tag_229\n        /* \"#utility.yul\":422:427   */\n      dup2\n        /* \"#utility.yul\":395:428   */\n      tag_230\n      jump\t// in\n    tag_229:\n        /* \"#utility.yul\":295:434   */\n      swap3\n      swap2\n      pop\n      pop\n      jump\t// out\n        /* \"#utility.yul\":440:769   */\n    tag_80:\n        /* \"#utility.yul\":499:505   */\n      0x00\n        /* \"#utility.yul\":548:550   */\n      0x20\n        /* \"#utility.yul\":536:545   */\n      dup3\n        /* \"#utility.yul\":527:534   */\n      dup5\n        /* \"#utility.yul\":523:546   */\n      sub\n        /* \"#utility.yul\":519:551   */\n      slt\n        /* \"#utility.yul\":516:635   */\n      iszero\n      tag_232\n      jumpi\n        /* \"#utility.yul\":554:633   */\n      tag_233\n      tag_234\n      jump\t// in\n    tag_233:\n        /* \"#utility.yul\":516:635   */\n    tag_232:\n        /* \"#utility.yul\":674:675   */\n      0x00\n        /* \"#utility.yul\":699:752   */\n      tag_235\n        /* \"#utility.yul\":744:751   */\n      dup5\n        /* \"#utility.yul\":735:741   */\n      dup3\n        /* \"#utility.yul\":724:733   */\n      dup6\n        /* \"#utility.yul\":720:742   */\n      add\n        /* \"#utility.yul\":699:752   */\n      tag_219\n      jump\t// in\n    tag_235:\n        /* \"#utility.yul\":689:752   */\n      swap2\n      pop\n        /* \"#utility.yul\":645:762   */\n      pop\n        /* \"#utility.yul\":440:769   */\n      swap3\n      swap2\n      pop\n      pop\n      jump\t// out\n        /* \"#utility.yul\":775:1120   */\n    tag_142:\n        /* \"#utility.yul\":842:848   */\n      0x00\n        /* \"#utility.yul\":891:893   */\n      0x20\n        /* \"#utility.yul\":879:888   */\n      dup3\n        /* \"#utility.yul\":870:877   */\n      dup5\n        /* \"#utility.yul\":866:889   */\n      sub\n        /* \"#utility.yul\":862:894   */\n      slt\n        /* \"#utility.yul\":859:978   */\n      iszero\n      tag_237\n      jumpi\n        /* \"#utility.yul\":897:976   */\n      tag_238\n      tag_234\n      jump\t// in\n    tag_238:\n        /* \"#utility.yul\":859:978   */\n    tag_237:\n        /* \"#utility.yul\":1017:1018   */\n      0x00\n        /* \"#utility.yul\":1042:1103   */\n      tag_239\n        /* \"#utility.yul\":1095:1102   */\n      dup5\n        /* \"#utility.yul\":1086:1092   */\n      dup3\n        /* \"#utility.yul\":1075:1084   */\n      dup6\n        /* \"#utility.yul\":1071:1093   */\n      add\n        /* \"#utility.yul\":1042:1103   */\n      tag_223\n      jump\t// in\n    tag_239:\n        /* \"#utility.yul\":1032:1103   */\n      swap2\n      pop\n        /* \"#utility.yul\":988:1113   */\n      pop\n        /* \"#utility.yul\":775:1120   */\n      swap3\n      swap2\n      pop\n      pop\n      jump\t// out\n        /* \"#utility.yul\":1126:1455   */\n    tag_36:\n        /* \"#utility.yul\":1185:1191   */\n      0x00\n        /* \"#utility.yul\":1234:1236   */\n      0x20\n        /* \"#utility.yul\":1222:1231   */\n      dup3\n        /* \"#utility.yul\":1213:1220   */\n      dup5\n        /* \"#utility.yul\":1209:1232   */\n      sub\n        /* \"#utility.yul\":1205:1237   */\n      slt\n        /* \"#utility.yul\":1202:1321   */\n      iszero\n      tag_241\n      jumpi\n        /* \"#utility.yul\":1240:1319   */\n      tag_242\n      tag_234\n      jump\t// in\n    tag_242:\n        /* \"#utility.yul\":1202:1321   */\n    tag_241:\n        /* \"#utility.yul\":1360:1361   */\n      0x00\n        /* \"#utility.yul\":1385:1438   */\n      tag_243\n        /* \"#utility.yul\":1430:1437   */\n      dup5\n        /* \"#utility.yul\":1421:1427   */\n      dup3\n        /* \"#utility.yul\":1410:1419   */\n      dup6\n        /* \"#utility.yul\":1406:1428   */\n      add\n        /* \"#utility.yul\":1385:1438   */\n      tag_227\n      jump\t// in\n    tag_243:\n        /* \"#utility.yul\":1375:1438   */\n      swap2\n      pop\n        /* \"#utility.yul\":1331:1448   */\n      pop\n        /* \"#utility.yul\":1126:1455   */\n      swap3\n      swap2\n      pop\n      pop\n      jump\t// out\n        /* \"#utility.yul\":1461:2080   */\n    tag_65:\n        /* \"#utility.yul\":1538:1544   */\n      0x00\n        /* \"#utility.yul\":1546:1552   */\n      dup1\n        /* \"#utility.yul\":1554:1560   */\n      0x00\n        /* \"#utility.yul\":1603:1605   */\n      0x60\n        /* \"#utility.yul\":1591:1600   */\n      dup5\n        /* \"#utility.yul\":1582:1589   */\n      dup7\n        /* \"#utility.yul\":1578:1601   */\n      sub\n        /* \"#utility.yul\":1574:1606   */\n      slt\n        /* \"#utility.yul\":1571:1690   */\n      iszero\n      tag_245\n      jumpi\n        /* \"#utility.yul\":1609:1688   */\n      tag_246\n      tag_234\n      jump\t// in\n    tag_246:\n        /* \"#utility.yul\":1571:1690   */\n    tag_245:\n        /* \"#utility.yul\":1729:1730   */\n      0x00\n        /* \"#utility.yul\":1754:1807   */\n      tag_247\n        /* \"#utility.yul\":1799:1806   */\n      dup7\n        /* \"#utility.yul\":1790:1796   */\n      dup3\n        /* \"#utility.yul\":1779:1788   */\n      dup8\n        /* \"#utility.yul\":1775:1797   */\n      add\n        /* \"#utility.yul\":1754:1807   */\n      tag_227\n      jump\t// in\n    tag_247:\n        /* \"#utility.yul\":1744:1807   */\n      swap4\n      pop\n        /* \"#utility.yul\":1700:1817   */\n      pop\n        /* \"#utility.yul\":1856:1858   */\n      0x20\n        /* \"#utility.yul\":1882:1935   */\n      tag_248\n        /* \"#utility.yul\":1927:1934   */\n      dup7\n        /* \"#utility.yul\":1918:1924   */\n      dup3\n        /* \"#utility.yul\":1907:1916   */\n      dup8\n        /* \"#utility.yul\":1903:1925   */\n      add\n        /* \"#utility.yul\":1882:1935   */\n      tag_227\n      jump\t// in\n    tag_248:\n        /* \"#utility.yul\":1872:1935   */\n      swap3\n      pop\n        /* \"#utility.yul\":1827:1945   */\n      pop\n        /* \"#utility.yul\":1984:1986   */\n      0x40\n        /* \"#utility.yul\":2010:2063   */\n      tag_249\n        /* \"#utility.yul\":2055:2062   */\n      dup7\n        /* \"#utility.yul\":2046:2052   */\n      dup3\n        /* \"#utility.yul\":2035:2044   */\n      dup8\n        /* \"#utility.yul\":2031:2053   */\n      add\n        /* \"#utility.yul\":2010:2063   */\n      tag_219\n      jump\t// in\n    tag_249:\n        /* \"#utility.yul\":2000:2063   */\n      swap2\n      pop\n        /* \"#utility.yul\":1955:2073   */\n      pop\n        /* \"#utility.yul\":1461:2080   */\n      swap3\n      pop\n      swap3\n      pop\n      swap3\n      jump\t// out\n        /* \"#utility.yul\":2086:2705   */\n    tag_73:\n        /* \"#utility.yul\":2163:2169   */\n      0x00\n        /* \"#utility.yul\":2171:2177   */\n      dup1\n        /* \"#utility.yul\":2179:2185   */\n      0x00\n        /* \"#utility.yul\":2228:2230   */\n      0x60\n        /* \"#utility.yul\":2216:2225   */\n      dup5\n        /* \"#utility.yul\":2207:2214   */\n      dup7\n        /* \"#utility.yul\":2203:2226   */\n      sub\n        /* \"#utility.yul\":2199:2231   */\n      slt\n        /* \"#utility.yul\":2196:2315   */\n      iszero\n      tag_251\n      jumpi\n        /* \"#utility.yul\":2234:2313   */\n      tag_252\n      tag_234\n      jump\t// in\n    tag_252:\n        /* \"#utility.yul\":2196:2315   */\n    tag_251:\n        /* \"#utility.yul\":2354:2355   */\n      0x00\n        /* \"#utility.yul\":2379:2432   */\n      tag_253\n        /* \"#utility.yul\":2424:2431   */\n      dup7\n        /* \"#utility.yul\":2415:2421   */\n      dup3\n        /* \"#utility.yul\":2404:2413   */\n      dup8\n        /* \"#utility.yul\":2400:2422   */\n      add\n        /* \"#utility.yul\":2379:2432   */\n      tag_227\n      jump\t// in\n    tag_253:\n        /* \"#utility.yul\":2369:2432   */\n      swap4\n      pop\n        /* \"#utility.yul\":2325:2442   */\n      pop\n        /* \"#utility.yul\":2481:2483   */\n      0x20\n        /* \"#utility.yul\":2507:2560   */\n      tag_254\n        /* \"#utility.yul\":2552:2559   */\n      dup7\n        /* \"#utility.yul\":2543:2549   */\n      dup3\n        /* \"#utility.yul\":2532:2541   */\n      dup8\n        /* \"#utility.yul\":2528:2550   */\n      add\n        /* \"#utility.yul\":2507:2560   */\n      tag_227\n      jump\t// in\n    tag_254:\n        /* \"#utility.yul\":2497:2560   */\n      swap3\n      pop\n        /* \"#utility.yul\":2452:2570   */\n      pop\n        /* \"#utility.yul\":2609:2611   */\n      0x40\n        /* \"#utility.yul\":2635:2688   */\n      tag_255\n        /* \"#utility.yul\":2680:2687   */\n      dup7\n        /* \"#utility.yul\":2671:2677   */\n      dup3\n        /* \"#utility.yul\":2660:2669   */\n      dup8\n        /* \"#utility.yul\":2656:2678   */\n      add\n        /* \"#utility.yul\":2635:2688   */\n      tag_227\n      jump\t// in\n    tag_255:\n        /* \"#utility.yul\":2625:2688   */\n      swap2\n      pop\n        /* \"#utility.yul\":2580:2698   */\n      pop\n        /* \"#utility.yul\":2086:2705   */\n      swap3\n      pop\n      swap3\n      pop\n      swap3\n      jump\t// out\n        /* \"#utility.yul\":2711:2890   */\n    tag_256:\n        /* \"#utility.yul\":2780:2790   */\n      0x00\n        /* \"#utility.yul\":2801:2847   */\n      tag_258\n        /* \"#utility.yul\":2843:2846   */\n      dup4\n        /* \"#utility.yul\":2835:2841   */\n      dup4\n        /* \"#utility.yul\":2801:2847   */\n      tag_259\n      jump\t// in\n    tag_258:\n        /* \"#utility.yul\":2879:2883   */\n      0x20\n        /* \"#utility.yul\":2874:2877   */\n      dup4\n        /* \"#utility.yul\":2870:2884   */\n      add\n        /* \"#utility.yul\":2856:2884   */\n      swap1\n      pop\n        /* \"#utility.yul\":2711:2890   */\n      swap3\n      swap2\n      pop\n      pop\n      jump\t// out\n        /* \"#utility.yul\":2896:3195   */\n    tag_260:\n        /* \"#utility.yul\":3025:3035   */\n      0x00\n        /* \"#utility.yul\":3046:3152   */\n      tag_262\n        /* \"#utility.yul\":3148:3151   */\n      dup4\n        /* \"#utility.yul\":3140:3146   */\n      dup4\n        /* \"#utility.yul\":3046:3152   */\n      tag_263\n      jump\t// in\n    tag_262:\n        /* \"#utility.yul\":3184:3188   */\n      0x80\n        /* \"#utility.yul\":3179:3182   */\n      dup4\n        /* \"#utility.yul\":3175:3189   */\n      add\n        /* \"#utility.yul\":3161:3189   */\n      swap1\n      pop\n        /* \"#utility.yul\":2896:3195   */\n      swap3\n      swap2\n      pop\n      pop\n      jump\t// out\n        /* \"#utility.yul\":3201:3348   */\n    tag_264:\n        /* \"#utility.yul\":3296:3341   */\n      tag_266\n        /* \"#utility.yul\":3335:3340   */\n      dup2\n        /* \"#utility.yul\":3296:3341   */\n      tag_267\n      jump\t// in\n    tag_266:\n        /* \"#utility.yul\":3291:3294   */\n      dup3\n        /* \"#utility.yul\":3284:3342   */\n      mstore\n        /* \"#utility.yul\":3201:3348   */\n      pop\n      pop\n      jump\t// out\n        /* \"#utility.yul\":3354:3496   */\n    tag_268:\n        /* \"#utility.yul\":3457:3489   */\n      tag_270\n        /* \"#utility.yul\":3483:3488   */\n      dup2\n        /* \"#utility.yul\":3457:3489   */\n      tag_271\n      jump\t// in\n    tag_270:\n        /* \"#utility.yul\":3452:3455   */\n      dup3\n        /* \"#utility.yul\":3445:3490   */\n      mstore\n        /* \"#utility.yul\":3354:3496   */\n      pop\n      pop\n      jump\t// out\n        /* \"#utility.yul\":3502:3610   */\n    tag_259:\n        /* \"#utility.yul\":3579:3603   */\n      tag_273\n        /* \"#utility.yul\":3597:3602   */\n      dup2\n        /* \"#utility.yul\":3579:3603   */\n      tag_274\n      jump\t// in\n    tag_273:\n        /* \"#utility.yul\":3574:3577   */\n      dup3\n        /* \"#utility.yul\":3567:3604   */\n      mstore\n        /* \"#utility.yul\":3502:3610   */\n      pop\n      pop\n      jump\t// out\n        /* \"#utility.yul\":3616:3734   */\n    tag_275:\n        /* \"#utility.yul\":3703:3727   */\n      tag_277\n        /* \"#utility.yul\":3721:3726   */\n      dup2\n        /* \"#utility.yul\":3703:3727   */\n      tag_274\n      jump\t// in\n    tag_277:\n        /* \"#utility.yul\":3698:3701   */\n      dup3\n        /* \"#utility.yul\":3691:3728   */\n      mstore\n        /* \"#utility.yul\":3616:3734   */\n      pop\n      pop\n      jump\t// out\n        /* \"#utility.yul\":3770:4502   */\n    tag_278:\n        /* \"#utility.yul\":3889:3892   */\n      0x00\n        /* \"#utility.yul\":3918:3972   */\n      tag_280\n        /* \"#utility.yul\":3966:3971   */\n      dup3\n        /* \"#utility.yul\":3918:3972   */\n      tag_281\n      jump\t// in\n    tag_280:\n        /* \"#utility.yul\":3988:4074   */\n      tag_282\n        /* \"#utility.yul\":4067:4073   */\n      dup2\n        /* \"#utility.yul\":4062:4065   */\n      dup6\n        /* \"#utility.yul\":3988:4074   */\n      tag_283\n      jump\t// in\n    tag_282:\n        /* \"#utility.yul\":3981:4074   */\n      swap4\n      pop\n        /* \"#utility.yul\":4098:4154   */\n      tag_284\n        /* \"#utility.yul\":4148:4153   */\n      dup4\n        /* \"#utility.yul\":4098:4154   */\n      tag_285\n      jump\t// in\n    tag_284:\n        /* \"#utility.yul\":4177:4184   */\n      dup1\n        /* \"#utility.yul\":4208:4209   */\n      0x00\n        /* \"#utility.yul\":4193:4477   */\n    tag_286:\n        /* \"#utility.yul\":4218:4224   */\n      dup4\n        /* \"#utility.yul\":4215:4216   */\n      dup2\n        /* \"#utility.yul\":4212:4225   */\n      lt\n        /* \"#utility.yul\":4193:4477   */\n      iszero\n      tag_288\n      jumpi\n        /* \"#utility.yul\":4294:4300   */\n      dup2\n        /* \"#utility.yul\":4288:4301   */\n      mload\n        /* \"#utility.yul\":4321:4384   */\n      tag_289\n        /* \"#utility.yul\":4380:4383   */\n      dup9\n        /* \"#utility.yul\":4365:4378   */\n      dup3\n        /* \"#utility.yul\":4321:4384   */\n      tag_256\n      jump\t// in\n    tag_289:\n        /* \"#utility.yul\":4314:4384   */\n      swap8\n      pop\n        /* \"#utility.yul\":4407:4467   */\n      tag_290\n        /* \"#utility.yul\":4460:4466   */\n      dup4\n        /* \"#utility.yul\":4407:4467   */\n      tag_291\n      jump\t// in\n    tag_290:\n        /* \"#utility.yul\":4397:4467   */\n      swap3\n      pop\n        /* \"#utility.yul\":4253:4477   */\n      pop\n        /* \"#utility.yul\":4240:4241   */\n      0x01\n        /* \"#utility.yul\":4237:4238   */\n      dup2\n        /* \"#utility.yul\":4233:4242   */\n      add\n        /* \"#utility.yul\":4228:4242   */\n      swap1\n      pop\n        /* \"#utility.yul\":4193:4477   */\n      jump(tag_286)\n    tag_288:\n        /* \"#utility.yul\":4197:4211   */\n      pop\n        /* \"#utility.yul\":4493:4496   */\n      dup6\n        /* \"#utility.yul\":4486:4496   */\n      swap4\n      pop\n        /* \"#utility.yul\":3894:4502   */\n      pop\n      pop\n      pop\n        /* \"#utility.yul\":3770:4502   */\n      swap3\n      swap2\n      pop\n      pop\n      jump\t// out\n        /* \"#utility.yul\":4580:5552   */\n    tag_292:\n        /* \"#utility.yul\":4759:4762   */\n      0x00\n        /* \"#utility.yul\":4788:4872   */\n      tag_294\n        /* \"#utility.yul\":4866:4871   */\n      dup3\n        /* \"#utility.yul\":4788:4872   */\n      tag_295\n      jump\t// in\n    tag_294:\n        /* \"#utility.yul\":4888:5004   */\n      tag_296\n        /* \"#utility.yul\":4997:5003   */\n      dup2\n        /* \"#utility.yul\":4992:4995   */\n      dup6\n        /* \"#utility.yul\":4888:5004   */\n      tag_297\n      jump\t// in\n    tag_296:\n        /* \"#utility.yul\":4881:5004   */\n      swap4\n      pop\n        /* \"#utility.yul\":5028:5114   */\n      tag_298\n        /* \"#utility.yul\":5108:5113   */\n      dup4\n        /* \"#utility.yul\":5028:5114   */\n      tag_299\n      jump\t// in\n    tag_298:\n        /* \"#utility.yul\":5137:5144   */\n      dup1\n        /* \"#utility.yul\":5168:5169   */\n      0x00\n        /* \"#utility.yul\":5153:5527   */\n    tag_300:\n        /* \"#utility.yul\":5178:5184   */\n      dup4\n        /* \"#utility.yul\":5175:5176   */\n      dup2\n        /* \"#utility.yul\":5172:5185   */\n      lt\n        /* \"#utility.yul\":5153:5527   */\n      iszero\n      tag_302\n      jumpi\n        /* \"#utility.yul\":5254:5260   */\n      dup2\n        /* \"#utility.yul\":5248:5261   */\n      mload\n        /* \"#utility.yul\":5281:5404   */\n      tag_303\n        /* \"#utility.yul\":5400:5403   */\n      dup9\n        /* \"#utility.yul\":5385:5398   */\n      dup3\n        /* \"#utility.yul\":5281:5404   */\n      tag_260\n      jump\t// in\n    tag_303:\n        /* \"#utility.yul\":5274:5404   */\n      swap8\n      pop\n        /* \"#utility.yul\":5427:5517   */\n      tag_304\n        /* \"#utility.yul\":5510:5516   */\n      dup4\n        /* \"#utility.yul\":5427:5517   */\n      tag_305\n      jump\t// in\n    tag_304:\n        /* \"#utility.yul\":5417:5517   */\n      swap3\n      pop\n        /* \"#utility.yul\":5213:5527   */\n      pop\n        /* \"#utility.yul\":5200:5201   */\n      0x01\n        /* \"#utility.yul\":5197:5198   */\n      dup2\n        /* \"#utility.yul\":5193:5202   */\n      add\n        /* \"#utility.yul\":5188:5202   */\n      swap1\n      pop\n        /* \"#utility.yul\":5153:5527   */\n      jump(tag_300)\n    tag_302:\n        /* \"#utility.yul\":5157:5171   */\n      pop\n        /* \"#utility.yul\":5543:5546   */\n      dup6\n        /* \"#utility.yul\":5536:5546   */\n      swap4\n      pop\n        /* \"#utility.yul\":4764:5552   */\n      pop\n      pop\n      pop\n        /* \"#utility.yul\":4580:5552   */\n      swap3\n      swap2\n      pop\n      pop\n      jump\t// out\n        /* \"#utility.yul\":5558:5667   */\n    tag_306:\n        /* \"#utility.yul\":5639:5660   */\n      tag_308\n        /* \"#utility.yul\":5654:5659   */\n      dup2\n        /* \"#utility.yul\":5639:5660   */\n      tag_309\n      jump\t// in\n    tag_308:\n        /* \"#utility.yul\":5634:5637   */\n      dup3\n        /* \"#utility.yul\":5627:5661   */\n      mstore\n        /* \"#utility.yul\":5558:5667   */\n      pop\n      pop\n      jump\t// out\n        /* \"#utility.yul\":5673:6039   */\n    tag_310:\n        /* \"#utility.yul\":5815:5818   */\n      0x00\n        /* \"#utility.yul\":5836:5903   */\n      tag_312\n        /* \"#utility.yul\":5900:5902   */\n      0x1b\n        /* \"#utility.yul\":5895:5898   */\n      dup4\n        /* \"#utility.yul\":5836:5903   */\n      tag_313\n      jump\t// in\n    tag_312:\n        /* \"#utility.yul\":5829:5903   */\n      swap2\n      pop\n        /* \"#utility.yul\":5912:6005   */\n      tag_314\n        /* \"#utility.yul\":6001:6004   */\n      dup3\n        /* \"#utility.yul\":5912:6005   */\n      tag_315\n      jump\t// in\n    tag_314:\n        /* \"#utility.yul\":6030:6032   */\n      0x20\n        /* \"#utility.yul\":6025:6028   */\n      dup3\n        /* \"#utility.yul\":6021:6033   */\n      add\n        /* \"#utility.yul\":6014:6033   */\n      swap1\n      pop\n        /* \"#utility.yul\":5673:6039   */\n      swap2\n      swap1\n      pop\n      jump\t// out\n        /* \"#utility.yul\":6045:6411   */\n    tag_316:\n        /* \"#utility.yul\":6187:6190   */\n      0x00\n        /* \"#utility.yul\":6208:6275   */\n      tag_318\n        /* \"#utility.yul\":6272:6274   */\n      0x25\n        /* \"#utility.yul\":6267:6270   */\n      dup4\n        /* \"#utility.yul\":6208:6275   */\n      tag_313\n      jump\t// in\n    tag_318:\n        /* \"#utility.yul\":6201:6275   */\n      swap2\n      pop\n        /* \"#utility.yul\":6284:6377   */\n      tag_319\n        /* \"#utility.yul\":6373:6376   */\n      dup3\n        /* \"#utility.yul\":6284:6377   */\n      tag_320\n      jump\t// in\n    tag_319:\n        /* \"#utility.yul\":6402:6404   */\n      0x40\n        /* \"#utility.yul\":6397:6400   */\n      dup3\n        /* \"#utility.yul\":6393:6405   */\n      add\n        /* \"#utility.yul\":6386:6405   */\n      swap1\n      pop\n        /* \"#utility.yul\":6045:6411   */\n      swap2\n      swap1\n      pop\n      jump\t// out\n        /* \"#utility.yul\":6417:6783   */\n    tag_321:\n        /* \"#utility.yul\":6559:6562   */\n      0x00\n        /* \"#utility.yul\":6580:6647   */\n      tag_323\n        /* \"#utility.yul\":6644:6646   */\n      0x22\n        /* \"#utility.yul\":6639:6642   */\n      dup4\n        /* \"#utility.yul\":6580:6647   */\n      tag_313\n      jump\t// in\n    tag_323:\n        /* \"#utility.yul\":6573:6647   */\n      swap2\n      pop\n        /* \"#utility.yul\":6656:6749   */\n      tag_324\n        /* \"#utility.yul\":6745:6748   */\n      dup3\n        /* \"#utility.yul\":6656:6749   */\n      tag_325\n      jump\t// in\n    tag_324:\n        /* \"#utility.yul\":6774:6776   */\n      0x40\n        /* \"#utility.yul\":6769:6772   */\n      dup3\n        /* \"#utility.yul\":6765:6777   */\n      add\n        /* \"#utility.yul\":6758:6777   */\n      swap1\n      pop\n        /* \"#utility.yul\":6417:6783   */\n      swap2\n      swap1\n      pop\n      jump\t// out\n        /* \"#utility.yul\":6857:7747   */\n    tag_263:\n        /* \"#utility.yul\":7004:7008   */\n      0x80\n        /* \"#utility.yul\":6999:7002   */\n      dup3\n        /* \"#utility.yul\":6995:7009   */\n      add\n        /* \"#utility.yul\":7101:7105   */\n      0x00\n        /* \"#utility.yul\":7094:7099   */\n      dup3\n        /* \"#utility.yul\":7090:7106   */\n      add\n        /* \"#utility.yul\":7084:7107   */\n      mload\n        /* \"#utility.yul\":7120:7183   */\n      tag_327\n        /* \"#utility.yul\":7177:7181   */\n      0x00\n        /* \"#utility.yul\":7172:7175   */\n      dup6\n        /* \"#utility.yul\":7168:7182   */\n      add\n        /* \"#utility.yul\":7154:7166   */\n      dup3\n        /* \"#utility.yul\":7120:7183   */\n      tag_328\n      jump\t// in\n    tag_327:\n        /* \"#utility.yul\":7019:7193   */\n      pop\n        /* \"#utility.yul\":7284:7288   */\n      0x20\n        /* \"#utility.yul\":7277:7282   */\n      dup3\n        /* \"#utility.yul\":7273:7289   */\n      add\n        /* \"#utility.yul\":7267:7290   */\n      mload\n        /* \"#utility.yul\":7303:7366   */\n      tag_329\n        /* \"#utility.yul\":7360:7364   */\n      0x20\n        /* \"#utility.yul\":7355:7358   */\n      dup6\n        /* \"#utility.yul\":7351:7365   */\n      add\n        /* \"#utility.yul\":7337:7349   */\n      dup3\n        /* \"#utility.yul\":7303:7366   */\n      tag_328\n      jump\t// in\n    tag_329:\n        /* \"#utility.yul\":7203:7376   */\n      pop\n        /* \"#utility.yul\":7465:7469   */\n      0x40\n        /* \"#utility.yul\":7458:7463   */\n      dup3\n        /* \"#utility.yul\":7454:7470   */\n      add\n        /* \"#utility.yul\":7448:7471   */\n      mload\n        /* \"#utility.yul\":7484:7547   */\n      tag_330\n        /* \"#utility.yul\":7541:7545   */\n      0x40\n        /* \"#utility.yul\":7536:7539   */\n      dup6\n        /* \"#utility.yul\":7532:7546   */\n      add\n        /* \"#utility.yul\":7518:7530   */\n      dup3\n        /* \"#utility.yul\":7484:7547   */\n      tag_328\n      jump\t// in\n    tag_330:\n        /* \"#utility.yul\":7386:7557   */\n      pop\n        /* \"#utility.yul\":7648:7652   */\n      0x60\n        /* \"#utility.yul\":7641:7646   */\n      dup3\n        /* \"#utility.yul\":7637:7653   */\n      add\n        /* \"#utility.yul\":7631:7654   */\n      mload\n        /* \"#utility.yul\":7667:7730   */\n      tag_331\n        /* \"#utility.yul\":7724:7728   */\n      0x60\n        /* \"#utility.yul\":7719:7722   */\n      dup6\n        /* \"#utility.yul\":7715:7729   */\n      add\n        /* \"#utility.yul\":7701:7713   */\n      dup3\n        /* \"#utility.yul\":7667:7730   */\n      tag_328\n      jump\t// in\n    tag_331:\n        /* \"#utility.yul\":7567:7740   */\n      pop\n        /* \"#utility.yul\":6973:7747   */\n      pop\n        /* \"#utility.yul\":6857:7747   */\n      pop\n      pop\n      jump\t// out\n        /* \"#utility.yul\":7753:7861   */\n    tag_328:\n        /* \"#utility.yul\":7830:7854   */\n      tag_333\n        /* \"#utility.yul\":7848:7853   */\n      dup2\n        /* \"#utility.yul\":7830:7854   */\n      tag_334\n      jump\t// in\n    tag_333:\n        /* \"#utility.yul\":7825:7828   */\n      dup3\n        /* \"#utility.yul\":7818:7855   */\n      mstore\n        /* \"#utility.yul\":7753:7861   */\n      pop\n      pop\n      jump\t// out\n        /* \"#utility.yul\":7867:7985   */\n    tag_335:\n        /* \"#utility.yul\":7954:7978   */\n      tag_337\n        /* \"#utility.yul\":7972:7977   */\n      dup2\n        /* \"#utility.yul\":7954:7978   */\n      tag_334\n      jump\t// in\n    tag_337:\n        /* \"#utility.yul\":7949:7952   */\n      dup3\n        /* \"#utility.yul\":7942:7979   */\n      mstore\n        /* \"#utility.yul\":7867:7985   */\n      pop\n      pop\n      jump\t// out\n        /* \"#utility.yul\":7991:8245   */\n    tag_59:\n        /* \"#utility.yul\":8100:8104   */\n      0x00\n        /* \"#utility.yul\":8138:8140   */\n      0x20\n        /* \"#utility.yul\":8127:8136   */\n      dup3\n        /* \"#utility.yul\":8123:8141   */\n      add\n        /* \"#utility.yul\":8115:8141   */\n      swap1\n      pop\n        /* \"#utility.yul\":8151:8238   */\n      tag_339\n        /* \"#utility.yul\":8235:8236   */\n      0x00\n        /* \"#utility.yul\":8224:8233   */\n      dup4\n        /* \"#utility.yul\":8220:8237   */\n      add\n        /* \"#utility.yul\":8211:8217   */\n      dup5\n        /* \"#utility.yul\":8151:8238   */\n      tag_268\n      jump\t// in\n    tag_339:\n        /* \"#utility.yul\":7991:8245   */\n      swap3\n      swap2\n      pop\n      pop\n      jump\t// out\n        /* \"#utility.yul\":8251:8599   */\n    tag_144:\n        /* \"#utility.yul\":8380:8384   */\n      0x00\n        /* \"#utility.yul\":8418:8420   */\n      0x40\n        /* \"#utility.yul\":8407:8416   */\n      dup3\n        /* \"#utility.yul\":8403:8421   */\n      add\n        /* \"#utility.yul\":8395:8421   */\n      swap1\n      pop\n        /* \"#utility.yul\":8431:8510   */\n      tag_341\n        /* \"#utility.yul\":8507:8508   */\n      0x00\n        /* \"#utility.yul\":8496:8505   */\n      dup4\n        /* \"#utility.yul\":8492:8509   */\n      add\n        /* \"#utility.yul\":8483:8489   */\n      dup6\n        /* \"#utility.yul\":8431:8510   */\n      tag_264\n      jump\t// in\n    tag_341:\n        /* \"#utility.yul\":8520:8592   */\n      tag_342\n        /* \"#utility.yul\":8588:8590   */\n      0x20\n        /* \"#utility.yul\":8577:8586   */\n      dup4\n        /* \"#utility.yul\":8573:8591   */\n      add\n        /* \"#utility.yul\":8564:8570   */\n      dup5\n        /* \"#utility.yul\":8520:8592   */\n      tag_335\n      jump\t// in\n    tag_342:\n        /* \"#utility.yul\":8251:8599   */\n      swap4\n      swap3\n      pop\n      pop\n      pop\n      jump\t// out\n        /* \"#utility.yul\":8605:9047   */\n    tag_163:\n        /* \"#utility.yul\":8754:8758   */\n      0x00\n        /* \"#utility.yul\":8792:8794   */\n      0x60\n        /* \"#utility.yul\":8781:8790   */\n      dup3\n        /* \"#utility.yul\":8777:8795   */\n      add\n        /* \"#utility.yul\":8769:8795   */\n      swap1\n      pop\n        /* \"#utility.yul\":8805:8876   */\n      tag_344\n        /* \"#utility.yul\":8873:8874   */\n      0x00\n        /* \"#utility.yul\":8862:8871   */\n      dup4\n        /* \"#utility.yul\":8858:8875   */\n      add\n        /* \"#utility.yul\":8849:8855   */\n      dup7\n        /* \"#utility.yul\":8805:8876   */\n      tag_275\n      jump\t// in\n    tag_344:\n        /* \"#utility.yul\":8886:8958   */\n      tag_345\n        /* \"#utility.yul\":8954:8956   */\n      0x20\n        /* \"#utility.yul\":8943:8952   */\n      dup4\n        /* \"#utility.yul\":8939:8957   */\n      add\n        /* \"#utility.yul\":8930:8936   */\n      dup6\n        /* \"#utility.yul\":8886:8958   */\n      tag_275\n      jump\t// in\n    tag_345:\n        /* \"#utility.yul\":8968:9040   */\n      tag_346\n        /* \"#utility.yul\":9036:9038   */\n      0x40\n        /* \"#utility.yul\":9025:9034   */\n      dup4\n        /* \"#utility.yul\":9021:9039   */\n      add\n        /* \"#utility.yul\":9012:9018   */\n      dup5\n        /* \"#utility.yul\":8968:9040   */\n      tag_335\n      jump\t// in\n    tag_346:\n        /* \"#utility.yul\":8605:9047   */\n      swap5\n      swap4\n      pop\n      pop\n      pop\n      pop\n      jump\t// out\n        /* \"#utility.yul\":9053:9385   */\n    tag_137:\n        /* \"#utility.yul\":9174:9178   */\n      0x00\n        /* \"#utility.yul\":9212:9214   */\n      0x40\n        /* \"#utility.yul\":9201:9210   */\n      dup3\n        /* \"#utility.yul\":9197:9215   */\n      add\n        /* \"#utility.yul\":9189:9215   */\n      swap1\n      pop\n        /* \"#utility.yul\":9225:9296   */\n      tag_348\n        /* \"#utility.yul\":9293:9294   */\n      0x00\n        /* \"#utility.yul\":9282:9291   */\n      dup4\n        /* \"#utility.yul\":9278:9295   */\n      add\n        /* \"#utility.yul\":9269:9275   */\n      dup6\n        /* \"#utility.yul\":9225:9296   */\n      tag_275\n      jump\t// in\n    tag_348:\n        /* \"#utility.yul\":9306:9378   */\n      tag_349\n        /* \"#utility.yul\":9374:9376   */\n      0x20\n        /* \"#utility.yul\":9363:9372   */\n      dup4\n        /* \"#utility.yul\":9359:9377   */\n      add\n        /* \"#utility.yul\":9350:9356   */\n      dup5\n        /* \"#utility.yul\":9306:9378   */\n      tag_335\n      jump\t// in\n    tag_349:\n        /* \"#utility.yul\":9053:9385   */\n      swap4\n      swap3\n      pop\n      pop\n      pop\n      jump\t// out\n        /* \"#utility.yul\":9391:10043   */\n    tag_83:\n        /* \"#utility.yul\":9590:9594   */\n      0x00\n        /* \"#utility.yul\":9628:9631   */\n      0xa0\n        /* \"#utility.yul\":9617:9626   */\n      dup3\n        /* \"#utility.yul\":9613:9632   */\n      add\n        /* \"#utility.yul\":9605:9632   */\n      swap1\n      pop\n        /* \"#utility.yul\":9642:9713   */\n      tag_351\n        /* \"#utility.yul\":9710:9711   */\n      0x00\n        /* \"#utility.yul\":9699:9708   */\n      dup4\n        /* \"#utility.yul\":9695:9712   */\n      add\n        /* \"#utility.yul\":9686:9692   */\n      dup9\n        /* \"#utility.yul\":9642:9713   */\n      tag_275\n      jump\t// in\n    tag_351:\n        /* \"#utility.yul\":9723:9795   */\n      tag_352\n        /* \"#utility.yul\":9791:9793   */\n      0x20\n        /* \"#utility.yul\":9780:9789   */\n      dup4\n        /* \"#utility.yul\":9776:9794   */\n      add\n        /* \"#utility.yul\":9767:9773   */\n      dup8\n        /* \"#utility.yul\":9723:9795   */\n      tag_335\n      jump\t// in\n    tag_352:\n        /* \"#utility.yul\":9805:9877   */\n      tag_353\n        /* \"#utility.yul\":9873:9875   */\n      0x40\n        /* \"#utility.yul\":9862:9871   */\n      dup4\n        /* \"#utility.yul\":9858:9876   */\n      add\n        /* \"#utility.yul\":9849:9855   */\n      dup7\n        /* \"#utility.yul\":9805:9877   */\n      tag_335\n      jump\t// in\n    tag_353:\n        /* \"#utility.yul\":9887:9959   */\n      tag_354\n        /* \"#utility.yul\":9955:9957   */\n      0x60\n        /* \"#utility.yul\":9944:9953   */\n      dup4\n        /* \"#utility.yul\":9940:9958   */\n      add\n        /* \"#utility.yul\":9931:9937   */\n      dup6\n        /* \"#utility.yul\":9887:9959   */\n      tag_335\n      jump\t// in\n    tag_354:\n        /* \"#utility.yul\":9969:10036   */\n      tag_355\n        /* \"#utility.yul\":10031:10034   */\n      0x80\n        /* \"#utility.yul\":10020:10029   */\n      dup4\n        /* \"#utility.yul\":10016:10035   */\n      add\n        /* \"#utility.yul\":10007:10013   */\n      dup5\n        /* \"#utility.yul\":9969:10036   */\n      tag_306\n      jump\t// in\n    tag_355:\n        /* \"#utility.yul\":9391:10043   */\n      swap7\n      swap6\n      pop\n      pop\n      pop\n      pop\n      pop\n      pop\n      jump\t// out\n        /* \"#utility.yul\":10049:10422   */\n    tag_26:\n        /* \"#utility.yul\":10192:10196   */\n      0x00\n        /* \"#utility.yul\":10230:10232   */\n      0x20\n        /* \"#utility.yul\":10219:10228   */\n      dup3\n        /* \"#utility.yul\":10215:10233   */\n      add\n        /* \"#utility.yul\":10207:10233   */\n      swap1\n      pop\n        /* \"#utility.yul\":10279:10288   */\n      dup2\n        /* \"#utility.yul\":10273:10277   */\n      dup2\n        /* \"#utility.yul\":10269:10289   */\n      sub\n        /* \"#utility.yul\":10265:10266   */\n      0x00\n        /* \"#utility.yul\":10254:10263   */\n      dup4\n        /* \"#utility.yul\":10250:10267   */\n      add\n        /* \"#utility.yul\":10243:10290   */\n      mstore\n        /* \"#utility.yul\":10307:10415   */\n      tag_357\n        /* \"#utility.yul\":10410:10414   */\n      dup2\n        /* \"#utility.yul\":10401:10407   */\n      dup5\n        /* \"#utility.yul\":10307:10415   */\n      tag_278\n      jump\t// in\n    tag_357:\n        /* \"#utility.yul\":10299:10415   */\n      swap1\n      pop\n        /* \"#utility.yul\":10049:10422   */\n      swap3\n      swap2\n      pop\n      pop\n      jump\t// out\n        /* \"#utility.yul\":10428:10921   */\n    tag_44:\n        /* \"#utility.yul\":10631:10635   */\n      0x00\n        /* \"#utility.yul\":10669:10671   */\n      0x20\n        /* \"#utility.yul\":10658:10667   */\n      dup3\n        /* \"#utility.yul\":10654:10672   */\n      add\n        /* \"#utility.yul\":10646:10672   */\n      swap1\n      pop\n        /* \"#utility.yul\":10718:10727   */\n      dup2\n        /* \"#utility.yul\":10712:10716   */\n      dup2\n        /* \"#utility.yul\":10708:10728   */\n      sub\n        /* \"#utility.yul\":10704:10705   */\n      0x00\n        /* \"#utility.yul\":10693:10702   */\n      dup4\n        /* \"#utility.yul\":10689:10706   */\n      add\n        /* \"#utility.yul\":10682:10729   */\n      mstore\n        /* \"#utility.yul\":10746:10914   */\n      tag_359\n        /* \"#utility.yul\":10909:10913   */\n      dup2\n        /* \"#utility.yul\":10900:10906   */\n      dup5\n        /* \"#utility.yul\":10746:10914   */\n      tag_292\n      jump\t// in\n    tag_359:\n        /* \"#utility.yul\":10738:10914   */\n      swap1\n      pop\n        /* \"#utility.yul\":10428:10921   */\n      swap3\n      swap2\n      pop\n      pop\n      jump\t// out\n        /* \"#utility.yul\":10927:11137   */\n    tag_55:\n        /* \"#utility.yul\":11014:11018   */\n      0x00\n        /* \"#utility.yul\":11052:11054   */\n      0x20\n        /* \"#utility.yul\":11041:11050   */\n      dup3\n        /* \"#utility.yul\":11037:11055   */\n      add\n        /* \"#utility.yul\":11029:11055   */\n      swap1\n      pop\n        /* \"#utility.yul\":11065:11130   */\n      tag_361\n        /* \"#utility.yul\":11127:11128   */\n      0x00\n        /* \"#utility.yul\":11116:11125   */\n      dup4\n        /* \"#utility.yul\":11112:11129   */\n      add\n        /* \"#utility.yul\":11103:11109   */\n      dup5\n        /* \"#utility.yul\":11065:11130   */\n      tag_306\n      jump\t// in\n    tag_361:\n        /* \"#utility.yul\":10927:11137   */\n      swap3\n      swap2\n      pop\n      pop\n      jump\t// out\n        /* \"#utility.yul\":11143:11562   */\n    tag_154:\n        /* \"#utility.yul\":11309:11313   */\n      0x00\n        /* \"#utility.yul\":11347:11349   */\n      0x20\n        /* \"#utility.yul\":11336:11345   */\n      dup3\n        /* \"#utility.yul\":11332:11350   */\n      add\n        /* \"#utility.yul\":11324:11350   */\n      swap1\n      pop\n        /* \"#utility.yul\":11396:11405   */\n      dup2\n        /* \"#utility.yul\":11390:11394   */\n      dup2\n        /* \"#utility.yul\":11386:11406   */\n      sub\n        /* \"#utility.yul\":11382:11383   */\n      0x00\n        /* \"#utility.yul\":11371:11380   */\n      dup4\n        /* \"#utility.yul\":11367:11384   */\n      add\n        /* \"#utility.yul\":11360:11407   */\n      mstore\n        /* \"#utility.yul\":11424:11555   */\n      tag_363\n        /* \"#utility.yul\":11550:11554   */\n      dup2\n        /* \"#utility.yul\":11424:11555   */\n      tag_310\n      jump\t// in\n    tag_363:\n        /* \"#utility.yul\":11416:11555   */\n      swap1\n      pop\n        /* \"#utility.yul\":11143:11562   */\n      swap2\n      swap1\n      pop\n      jump\t// out\n        /* \"#utility.yul\":11568:11987   */\n    tag_133:\n        /* \"#utility.yul\":11734:11738   */\n      0x00\n        /* \"#utility.yul\":11772:11774   */\n      0x20\n        /* \"#utility.yul\":11761:11770   */\n      dup3\n        /* \"#utility.yul\":11757:11775   */\n      add\n        /* \"#utility.yul\":11749:11775   */\n      swap1\n      pop\n        /* \"#utility.yul\":11821:11830   */\n      dup2\n        /* \"#utility.yul\":11815:11819   */\n      dup2\n        /* \"#utility.yul\":11811:11831   */\n      sub\n        /* \"#utility.yul\":11807:11808   */\n      0x00\n        /* \"#utility.yul\":11796:11805   */\n      dup4\n        /* \"#utility.yul\":11792:11809   */\n      add\n        /* \"#utility.yul\":11785:11832   */\n      mstore\n        /* \"#utility.yul\":11849:11980   */\n      tag_365\n        /* \"#utility.yul\":11975:11979   */\n      dup2\n        /* \"#utility.yul\":11849:11980   */\n      tag_316\n      jump\t// in\n    tag_365:\n        /* \"#utility.yul\":11841:11980   */\n      swap1\n      pop\n        /* \"#utility.yul\":11568:11987   */\n      swap2\n      swap1\n      pop\n      jump\t// out\n        /* \"#utility.yul\":11993:12412   */\n    tag_177:\n        /* \"#utility.yul\":12159:12163   */\n      0x00\n        /* \"#utility.yul\":12197:12199   */\n      0x20\n        /* \"#utility.yul\":12186:12195   */\n      dup3\n        /* \"#utility.yul\":12182:12200   */\n      add\n        /* \"#utility.yul\":12174:12200   */\n      swap1\n      pop\n        /* \"#utility.yul\":12246:12255   */\n      dup2\n        /* \"#utility.yul\":12240:12244   */\n      dup2\n        /* \"#utility.yul\":12236:12256   */\n      sub\n        /* \"#utility.yul\":12232:12233   */\n      0x00\n        /* \"#utility.yul\":12221:12230   */\n      dup4\n        /* \"#utility.yul\":12217:12234   */\n      add\n        /* \"#utility.yul\":12210:12257   */\n      mstore\n        /* \"#utility.yul\":12274:12405   */\n      tag_367\n        /* \"#utility.yul\":12400:12404   */\n      dup2\n        /* \"#utility.yul\":12274:12405   */\n      tag_321\n      jump\t// in\n    tag_367:\n        /* \"#utility.yul\":12266:12405   */\n      swap1\n      pop\n        /* \"#utility.yul\":11993:12412   */\n      swap2\n      swap1\n      pop\n      jump\t// out\n        /* \"#utility.yul\":12418:12640   */\n    tag_30:\n        /* \"#utility.yul\":12511:12515   */\n      0x00\n        /* \"#utility.yul\":12549:12551   */\n      0x20\n        /* \"#utility.yul\":12538:12547   */\n      dup3\n        /* \"#utility.yul\":12534:12552   */\n      add\n        /* \"#utility.yul\":12526:12552   */\n      swap1\n      pop\n        /* \"#utility.yul\":12562:12633   */\n      tag_369\n        /* \"#utility.yul\":12630:12631   */\n      0x00\n        /* \"#utility.yul\":12619:12628   */\n      dup4\n        /* \"#utility.yul\":12615:12632   */\n      add\n        /* \"#utility.yul\":12606:12612   */\n      dup5\n        /* \"#utility.yul\":12562:12633   */\n      tag_335\n      jump\t// in\n    tag_369:\n        /* \"#utility.yul\":12418:12640   */\n      swap3\n      swap2\n      pop\n      pop\n      jump\t// out\n        /* \"#utility.yul\":12727:12859   */\n    tag_285:\n        /* \"#utility.yul\":12794:12798   */\n      0x00\n        /* \"#utility.yul\":12817:12820   */\n      dup2\n        /* \"#utility.yul\":12809:12820   */\n      swap1\n      pop\n        /* \"#utility.yul\":12847:12851   */\n      0x20\n        /* \"#utility.yul\":12842:12845   */\n      dup3\n        /* \"#utility.yul\":12838:12852   */\n      add\n        /* \"#utility.yul\":12830:12852   */\n      swap1\n      pop\n        /* \"#utility.yul\":12727:12859   */\n      swap2\n      swap1\n      pop\n      jump\t// out\n        /* \"#utility.yul\":12865:13027   */\n    tag_299:\n        /* \"#utility.yul\":12962:12966   */\n      0x00\n        /* \"#utility.yul\":12985:12988   */\n      dup2\n        /* \"#utility.yul\":12977:12988   */\n      swap1\n      pop\n        /* \"#utility.yul\":13015:13019   */\n      0x20\n        /* \"#utility.yul\":13010:13013   */\n      dup3\n        /* \"#utility.yul\":13006:13020   */\n      add\n        /* \"#utility.yul\":12998:13020   */\n      swap1\n      pop\n        /* \"#utility.yul\":12865:13027   */\n      swap2\n      swap1\n      pop\n      jump\t// out\n        /* \"#utility.yul\":13033:13147   */\n    tag_281:\n        /* \"#utility.yul\":13100:13106   */\n      0x00\n        /* \"#utility.yul\":13134:13139   */\n      dup2\n        /* \"#utility.yul\":13128:13140   */\n      mload\n        /* \"#utility.yul\":13118:13140   */\n      swap1\n      pop\n        /* \"#utility.yul\":13033:13147   */\n      swap2\n      swap1\n      pop\n      jump\t// out\n        /* \"#utility.yul\":13153:13297   */\n    tag_295:\n        /* \"#utility.yul\":13250:13256   */\n      0x00\n        /* \"#utility.yul\":13284:13289   */\n      dup2\n        /* \"#utility.yul\":13278:13290   */\n      mload\n        /* \"#utility.yul\":13268:13290   */\n      swap1\n      pop\n        /* \"#utility.yul\":13153:13297   */\n      swap2\n      swap1\n      pop\n      jump\t// out\n        /* \"#utility.yul\":13303:13416   */\n    tag_291:\n        /* \"#utility.yul\":13373:13377   */\n      0x00\n        /* \"#utility.yul\":13405:13409   */\n      0x20\n        /* \"#utility.yul\":13400:13403   */\n      dup3\n        /* \"#utility.yul\":13396:13410   */\n      add\n        /* \"#utility.yul\":13388:13410   */\n      swap1\n      pop\n        /* \"#utility.yul\":13303:13416   */\n      swap2\n      swap1\n      pop\n      jump\t// out\n        /* \"#utility.yul\":13422:13565   */\n    tag_305:\n        /* \"#utility.yul\":13522:13526   */\n      0x00\n        /* \"#utility.yul\":13554:13558   */\n      0x20\n        /* \"#utility.yul\":13549:13552   */\n      dup3\n        /* \"#utility.yul\":13545:13559   */\n      add\n        /* \"#utility.yul\":13537:13559   */\n      swap1\n      pop\n        /* \"#utility.yul\":13422:13565   */\n      swap2\n      swap1\n      pop\n      jump\t// out\n        /* \"#utility.yul\":13571:13755   */\n    tag_283:\n        /* \"#utility.yul\":13670:13681   */\n      0x00\n        /* \"#utility.yul\":13704:13710   */\n      dup3\n        /* \"#utility.yul\":13699:13702   */\n      dup3\n        /* \"#utility.yul\":13692:13711   */\n      mstore\n        /* \"#utility.yul\":13744:13748   */\n      0x20\n        /* \"#utility.yul\":13739:13742   */\n      dup3\n        /* \"#utility.yul\":13735:13749   */\n      add\n        /* \"#utility.yul\":13720:13749   */\n      swap1\n      pop\n        /* \"#utility.yul\":13571:13755   */\n      swap3\n      swap2\n      pop\n      pop\n      jump\t// out\n        /* \"#utility.yul\":13761:13975   */\n    tag_297:\n        /* \"#utility.yul\":13890:13901   */\n      0x00\n        /* \"#utility.yul\":13924:13930   */\n      dup3\n        /* \"#utility.yul\":13919:13922   */\n      dup3\n        /* \"#utility.yul\":13912:13931   */\n      mstore\n        /* \"#utility.yul\":13964:13968   */\n      0x20\n        /* \"#utility.yul\":13959:13962   */\n      dup3\n        /* \"#utility.yul\":13955:13969   */\n      add\n        /* \"#utility.yul\":13940:13969   */\n      swap1\n      pop\n        /* \"#utility.yul\":13761:13975   */\n      swap3\n      swap2\n      pop\n      pop\n      jump\t// out\n        /* \"#utility.yul\":13981:14150   */\n    tag_313:\n        /* \"#utility.yul\":14065:14076   */\n      0x00\n        /* \"#utility.yul\":14099:14105   */\n      dup3\n        /* \"#utility.yul\":14094:14097   */\n      dup3\n        /* \"#utility.yul\":14087:14106   */\n      mstore\n        /* \"#utility.yul\":14139:14143   */\n      0x20\n        /* \"#utility.yul\":14134:14137   */\n      dup3\n        /* \"#utility.yul\":14130:14144   */\n      add\n        /* \"#utility.yul\":14115:14144   */\n      swap1\n      pop\n        /* \"#utility.yul\":13981:14150   */\n      swap3\n      swap2\n      pop\n      pop\n      jump\t// out\n        /* \"#utility.yul\":14156:14461   */\n    tag_159:\n        /* \"#utility.yul\":14196:14199   */\n      0x00\n        /* \"#utility.yul\":14215:14235   */\n      tag_382\n        /* \"#utility.yul\":14233:14234   */\n      dup3\n        /* \"#utility.yul\":14215:14235   */\n      tag_334\n      jump\t// in\n    tag_382:\n        /* \"#utility.yul\":14210:14235   */\n      swap2\n      pop\n        /* \"#utility.yul\":14249:14269   */\n      tag_383\n        /* \"#utility.yul\":14267:14268   */\n      dup4\n        /* \"#utility.yul\":14249:14269   */\n      tag_334\n      jump\t// in\n    tag_383:\n        /* \"#utility.yul\":14244:14269   */\n      swap3\n      pop\n        /* \"#utility.yul\":14403:14404   */\n      dup3\n        /* \"#utility.yul\":14335:14401   */\n      0xffffffffffffffffffffffffffffffffffffffffffffffffffffffffffffffff\n        /* \"#utility.yul\":14331:14405   */\n      sub\n        /* \"#utility.yul\":14328:14329   */\n      dup3\n        /* \"#utility.yul\":14325:14406   */\n      gt\n        /* \"#utility.yul\":14322:14429   */\n      iszero\n      tag_384\n      jumpi\n        /* \"#utility.yul\":14409:14427   */\n      tag_385\n      tag_386\n      jump\t// in\n    tag_385:\n        /* \"#utility.yul\":14322:14429   */\n    tag_384:\n        /* \"#utility.yul\":14453:14454   */\n      dup3\n        /* \"#utility.yul\":14450:14451   */\n      dup3\n        /* \"#utility.yul\":14446:14455   */\n      add\n        /* \"#utility.yul\":14439:14455   */\n      swap1\n      pop\n        /* \"#utility.yul\":14156:14461   */\n      swap3\n      swap2\n      pop\n      pop\n      jump\t// out\n        /* \"#utility.yul\":14467:14652   */\n    tag_124:\n        /* \"#utility.yul\":14507:14508   */\n      0x00\n        /* \"#utility.yul\":14524:14544   */\n      tag_388\n        /* \"#utility.yul\":14542:14543   */\n      dup3\n        /* \"#utility.yul\":14524:14544   */\n      tag_334\n      jump\t// in\n    tag_388:\n        /* \"#utility.yul\":14519:14544   */\n      swap2\n      pop\n        /* \"#utility.yul\":14558:14578   */\n      tag_389\n        /* \"#utility.yul\":14576:14577   */\n      dup4\n        /* \"#utility.yul\":14558:14578   */\n      tag_334\n      jump\t// in\n    tag_389:\n        /* \"#utility.yul\":14553:14578   */\n      swap3\n      pop\n        /* \"#utility.yul\":14597:14598   */\n      dup3\n        /* \"#utility.yul\":14587:14622   */\n      tag_390\n      jumpi\n        /* \"#utility.yul\":14602:14620   */\n      tag_391\n      tag_392\n      jump\t// in\n    tag_391:\n        /* \"#utility.yul\":14587:14622   */\n    tag_390:\n        /* \"#utility.yul\":14644:14645   */\n      dup3\n        /* \"#utility.yul\":14641:14642   */\n      dup3\n        /* \"#utility.yul\":14637:14646   */\n      div\n        /* \"#utility.yul\":14632:14646   */\n      swap1\n      pop\n        /* \"#utility.yul\":14467:14652   */\n      swap3\n      swap2\n      pop\n      pop\n      jump\t// out\n        /* \"#utility.yul\":14658:15006   */\n    tag_127:\n        /* \"#utility.yul\":14698:14705   */\n      0x00\n        /* \"#utility.yul\":14721:14741   */\n      tag_394\n        /* \"#utility.yul\":14739:14740   */\n      dup3\n        /* \"#utility.yul\":14721:14741   */\n      tag_334\n      jump\t// in\n    tag_394:\n        /* \"#utility.yul\":14716:14741   */\n      swap2\n      pop\n        /* \"#utility.yul\":14755:14775   */\n      tag_395\n        /* \"#utility.yul\":14773:14774   */\n      dup4\n        /* \"#utility.yul\":14755:14775   */\n      tag_334\n      jump\t// in\n    tag_395:\n        /* \"#utility.yul\":14750:14775   */\n      swap3\n      pop\n        /* \"#utility.yul\":14943:14944   */\n      dup2\n        /* \"#utility.yul\":14875:14941   */\n      0xffffffffffffffffffffffffffffffffffffffffffffffffffffffffffffffff\n        /* \"#utility.yul\":14871:14945   */\n      div\n        /* \"#utility.yul\":14868:14869   */\n      dup4\n        /* \"#utility.yul\":14865:14946   */\n      gt\n        /* \"#utility.yul\":14860:14861   */\n      dup3\n        /* \"#utility.yul\":14853:14862   */\n      iszero\n        /* \"#utility.yul\":14846:14863   */\n      iszero\n        /* \"#utility.yul\":14842:14947   */\n      and\n        /* \"#utility.yul\":14839:14970   */\n      iszero\n      tag_396\n      jumpi\n        /* \"#utility.yul\":14950:14968   */\n      tag_397\n      tag_386\n      jump\t// in\n    tag_397:\n        /* \"#utility.yul\":14839:14970   */\n    tag_396:\n        /* \"#utility.yul\":14998:14999   */\n      dup3\n        /* \"#utility.yul\":14995:14996   */\n      dup3\n        /* \"#utility.yul\":14991:15000   */\n      mul\n        /* \"#utility.yul\":14980:15000   */\n      swap1\n      pop\n        /* \"#utility.yul\":14658:15006   */\n      swap3\n      swap2\n      pop\n      pop\n      jump\t// out\n        /* \"#utility.yul\":15012:15203   */\n    tag_122:\n        /* \"#utility.yul\":15052:15056   */\n      0x00\n        /* \"#utility.yul\":15072:15092   */\n      tag_399\n        /* \"#utility.yul\":15090:15091   */\n      dup3\n        /* \"#utility.yul\":15072:15092   */\n      tag_334\n      jump\t// in\n    tag_399:\n        /* \"#utility.yul\":15067:15092   */\n      swap2\n      pop\n        /* \"#utility.yul\":15106:15126   */\n      tag_400\n        /* \"#utility.yul\":15124:15125   */\n      dup4\n        /* \"#utility.yul\":15106:15126   */\n      tag_334\n      jump\t// in\n    tag_400:\n        /* \"#utility.yul\":15101:15126   */\n      swap3\n      pop\n        /* \"#utility.yul\":15145:15146   */\n      dup3\n        /* \"#utility.yul\":15142:15143   */\n      dup3\n        /* \"#utility.yul\":15139:15147   */\n      lt\n        /* \"#utility.yul\":15136:15170   */\n      iszero\n      tag_401\n      jumpi\n        /* \"#utility.yul\":15150:15168   */\n      tag_402\n      tag_386\n      jump\t// in\n    tag_402:\n        /* \"#utility.yul\":15136:15170   */\n    tag_401:\n        /* \"#utility.yul\":15195:15196   */\n      dup3\n        /* \"#utility.yul\":15192:15193   */\n      dup3\n        /* \"#utility.yul\":15188:15197   */\n      sub\n        /* \"#utility.yul\":15180:15197   */\n      swap1\n      pop\n        /* \"#utility.yul\":15012:15203   */\n      swap3\n      swap2\n      pop\n      pop\n      jump\t// out\n        /* \"#utility.yul\":15209:15305   */\n    tag_274:\n        /* \"#utility.yul\":15246:15253   */\n      0x00\n        /* \"#utility.yul\":15275:15299   */\n      tag_404\n        /* \"#utility.yul\":15293:15298   */\n      dup3\n        /* \"#utility.yul\":15275:15299   */\n      tag_405\n      jump\t// in\n    tag_404:\n        /* \"#utility.yul\":15264:15299   */\n      swap1\n      pop\n        /* \"#utility.yul\":15209:15305   */\n      swap2\n      swap1\n      pop\n      jump\t// out\n        /* \"#utility.yul\":15311:15415   */\n    tag_271:\n        /* \"#utility.yul\":15356:15363   */\n      0x00\n        /* \"#utility.yul\":15385:15409   */\n      tag_407\n        /* \"#utility.yul\":15403:15408   */\n      dup3\n        /* \"#utility.yul\":15385:15409   */\n      tag_405\n      jump\t// in\n    tag_407:\n        /* \"#utility.yul\":15374:15409   */\n      swap1\n      pop\n        /* \"#utility.yul\":15311:15415   */\n      swap2\n      swap1\n      pop\n      jump\t// out\n        /* \"#utility.yul\":15421:15511   */\n    tag_309:\n        /* \"#utility.yul\":15455:15462   */\n      0x00\n        /* \"#utility.yul\":15498:15503   */\n      dup2\n        /* \"#utility.yul\":15491:15504   */\n      iszero\n        /* \"#utility.yul\":15484:15505   */\n      iszero\n        /* \"#utility.yul\":15473:15505   */\n      swap1\n      pop\n        /* \"#utility.yul\":15421:15511   */\n      swap2\n      swap1\n      pop\n      jump\t// out\n        /* \"#utility.yul\":15517:15643   */\n    tag_405:\n        /* \"#utility.yul\":15554:15561   */\n      0x00\n        /* \"#utility.yul\":15594:15636   */\n      0xffffffffffffffffffffffffffffffffffffffff\n        /* \"#utility.yul\":15587:15592   */\n      dup3\n        /* \"#utility.yul\":15583:15637   */\n      and\n        /* \"#utility.yul\":15572:15637   */\n      swap1\n      pop\n        /* \"#utility.yul\":15517:15643   */\n      swap2\n      swap1\n      pop\n      jump\t// out\n        /* \"#utility.yul\":15649:15726   */\n    tag_334:\n        /* \"#utility.yul\":15686:15693   */\n      0x00\n        /* \"#utility.yul\":15715:15720   */\n      dup2\n        /* \"#utility.yul\":15704:15720   */\n      swap1\n      pop\n        /* \"#utility.yul\":15649:15726   */\n      swap2\n      swap1\n      pop\n      jump\t// out\n        /* \"#utility.yul\":15732:15866   */\n    tag_267:\n        /* \"#utility.yul\":15790:15799   */\n      0x00\n        /* \"#utility.yul\":15823:15860   */\n      tag_412\n        /* \"#utility.yul\":15854:15859   */\n      dup3\n        /* \"#utility.yul\":15823:15860   */\n      tag_413\n      jump\t// in\n    tag_412:\n        /* \"#utility.yul\":15810:15860   */\n      swap1\n      pop\n        /* \"#utility.yul\":15732:15866   */\n      swap2\n      swap1\n      pop\n      jump\t// out\n        /* \"#utility.yul\":15872:15998   */\n    tag_413:\n        /* \"#utility.yul\":15922:15931   */\n      0x00\n        /* \"#utility.yul\":15955:15992   */\n      tag_415\n        /* \"#utility.yul\":15986:15991   */\n      dup3\n        /* \"#utility.yul\":15955:15992   */\n      tag_416\n      jump\t// in\n    tag_415:\n        /* \"#utility.yul\":15942:15992   */\n      swap1\n      pop\n        /* \"#utility.yul\":15872:15998   */\n      swap2\n      swap1\n      pop\n      jump\t// out\n        /* \"#utility.yul\":16004:16117   */\n    tag_416:\n        /* \"#utility.yul\":16054:16063   */\n      0x00\n        /* \"#utility.yul\":16087:16111   */\n      tag_418\n        /* \"#utility.yul\":16105:16110   */\n      dup3\n        /* \"#utility.yul\":16087:16111   */\n      tag_405\n      jump\t// in\n    tag_418:\n        /* \"#utility.yul\":16074:16111   */\n      swap1\n      pop\n        /* \"#utility.yul\":16004:16117   */\n      swap2\n      swap1\n      pop\n      jump\t// out\n        /* \"#utility.yul\":16123:16356   */\n    tag_99:\n        /* \"#utility.yul\":16162:16165   */\n      0x00\n        /* \"#utility.yul\":16185:16209   */\n      tag_420\n        /* \"#utility.yul\":16203:16208   */\n      dup3\n        /* \"#utility.yul\":16185:16209   */\n      tag_334\n      jump\t// in\n    tag_420:\n        /* \"#utility.yul\":16176:16209   */\n      swap2\n      pop\n        /* \"#utility.yul\":16231:16297   */\n      0xffffffffffffffffffffffffffffffffffffffffffffffffffffffffffffffff\n        /* \"#utility.yul\":16224:16229   */\n      dup3\n        /* \"#utility.yul\":16221:16298   */\n      eq\n        /* \"#utility.yul\":16218:16321   */\n      iszero\n      tag_421\n      jumpi\n        /* \"#utility.yul\":16301:16319   */\n      tag_422\n      tag_386\n      jump\t// in\n    tag_422:\n        /* \"#utility.yul\":16218:16321   */\n    tag_421:\n        /* \"#utility.yul\":16348:16349   */\n      0x01\n        /* \"#utility.yul\":16341:16346   */\n      dup3\n        /* \"#utility.yul\":16337:16350   */\n      add\n        /* \"#utility.yul\":16330:16350   */\n      swap1\n      pop\n        /* \"#utility.yul\":16123:16356   */\n      swap2\n      swap1\n      pop\n      jump\t// out\n        /* \"#utility.yul\":16362:16542   */\n    tag_386:\n        /* \"#utility.yul\":16410:16487   */\n      0x4e487b7100000000000000000000000000000000000000000000000000000000\n        /* \"#utility.yul\":16407:16408   */\n      0x00\n        /* \"#utility.yul\":16400:16488   */\n      mstore\n        /* \"#utility.yul\":16507:16511   */\n      0x11\n        /* \"#utility.yul\":16504:16505   */\n      0x04\n        /* \"#utility.yul\":16497:16512   */\n      mstore\n        /* \"#utility.yul\":16531:16535   */\n      0x24\n        /* \"#utility.yul\":16528:16529   */\n      0x00\n        /* \"#utility.yul\":16521:16536   */\n      revert\n        /* \"#utility.yul\":16548:16728   */\n    tag_392:\n        /* \"#utility.yul\":16596:16673   */\n      0x4e487b7100000000000000000000000000000000000000000000000000000000\n        /* \"#utility.yul\":16593:16594   */\n      0x00\n        /* \"#utility.yul\":16586:16674   */\n      mstore\n        /* \"#utility.yul\":16693:16697   */\n      0x12\n        /* \"#utility.yul\":16690:16691   */\n      0x04\n        /* \"#utility.yul\":16683:16698   */\n      mstore\n        /* \"#utility.yul\":16717:16721   */\n      0x24\n        /* \"#utility.yul\":16714:16715   */\n      0x00\n        /* \"#utility.yul\":16707:16722   */\n      revert\n        /* \"#utility.yul\":16734:16914   */\n    tag_114:\n        /* \"#utility.yul\":16782:16859   */\n      0x4e487b7100000000000000000000000000000000000000000000000000000000\n        /* \"#utility.yul\":16779:16780   */\n      0x00\n        /* \"#utility.yul\":16772:16860   */\n      mstore\n        /* \"#utility.yul\":16879:16883   */\n      0x32\n        /* \"#utility.yul\":16876:16877   */\n      0x04\n        /* \"#utility.yul\":16869:16884   */\n      mstore\n        /* \"#utility.yul\":16903:16907   */\n      0x24\n        /* \"#utility.yul\":16900:16901   */\n      0x00\n        /* \"#utility.yul\":16893:16908   */\n      revert\n        /* \"#utility.yul\":16920:17100   */\n    tag_103:\n        /* \"#utility.yul\":16968:17045   */\n      0x4e487b7100000000000000000000000000000000000000000000000000000000\n        /* \"#utility.yul\":16965:16966   */\n      0x00\n        /* \"#utility.yul\":16958:17046   */\n      mstore\n        /* \"#utility.yul\":17065:17069   */\n      0x41\n        /* \"#utility.yul\":17062:17063   */\n      0x04\n        /* \"#utility.yul\":17055:17070   */\n      mstore\n        /* \"#utility.yul\":17089:17093   */\n      0x24\n        /* \"#utility.yul\":17086:17087   */\n      0x00\n        /* \"#utility.yul\":17079:17094   */\n      revert\n        /* \"#utility.yul\":17229:17346   */\n    tag_234:\n        /* \"#utility.yul\":17338:17339   */\n      0x00\n        /* \"#utility.yul\":17335:17336   */\n      dup1\n        /* \"#utility.yul\":17328:17340   */\n      revert\n        /* \"#utility.yul\":17352:17529   */\n    tag_315:\n        /* \"#utility.yul\":17492:17521   */\n      0x76616c7565206973206e6f742067726561746572207468616e20300000000000\n        /* \"#utility.yul\":17488:17489   */\n      0x00\n        /* \"#utility.yul\":17480:17486   */\n      dup3\n        /* \"#utility.yul\":17476:17490   */\n      add\n        /* \"#utility.yul\":17469:17522   */\n      mstore\n        /* \"#utility.yul\":17352:17529   */\n      pop\n      jump\t// out\n        /* \"#utility.yul\":17535:17759   */\n    tag_320:\n        /* \"#utility.yul\":17675:17709   */\n      0x796f7520646f6e74206861766520696e766573746d656e7420746f2077697468\n        /* \"#utility.yul\":17671:17672   */\n      0x00\n        /* \"#utility.yul\":17663:17669   */\n      dup3\n        /* \"#utility.yul\":17659:17673   */\n      add\n        /* \"#utility.yul\":17652:17710   */\n      mstore\n        /* \"#utility.yul\":17744:17751   */\n      0x647261776e000000000000000000000000000000000000000000000000000000\n        /* \"#utility.yul\":17739:17741   */\n      0x20\n        /* \"#utility.yul\":17731:17737   */\n      dup3\n        /* \"#utility.yul\":17727:17742   */\n      add\n        /* \"#utility.yul\":17720:17752   */\n      mstore\n        /* \"#utility.yul\":17535:17759   */\n      pop\n      jump\t// out\n        /* \"#utility.yul\":17765:17986   */\n    tag_325:\n        /* \"#utility.yul\":17905:17939   */\n      0x796f7520646f6e742068617665207265776172647320746f2077697468647261\n        /* \"#utility.yul\":17901:17902   */\n      0x00\n        /* \"#utility.yul\":17893:17899   */\n      dup3\n        /* \"#utility.yul\":17889:17903   */\n      add\n        /* \"#utility.yul\":17882:17940   */\n      mstore\n        /* \"#utility.yul\":17974:17978   */\n      0x776e000000000000000000000000000000000000000000000000000000000000\n        /* \"#utility.yul\":17969:17971   */\n      0x20\n        /* \"#utility.yul\":17961:17967   */\n      dup3\n        /* \"#utility.yul\":17957:17972   */\n      add\n        /* \"#utility.yul\":17950:17979   */\n      mstore\n        /* \"#utility.yul\":17765:17986   */\n      pop\n      jump\t// out\n        /* \"#utility.yul\":17992:18114   */\n    tag_222:\n        /* \"#utility.yul\":18065:18089   */\n      tag_434\n        /* \"#utility.yul\":18083:18088   */\n      dup2\n        /* \"#utility.yul\":18065:18089   */\n      tag_274\n      jump\t// in\n    tag_434:\n        /* \"#utility.yul\":18058:18063   */\n      dup2\n        /* \"#utility.yul\":18055:18090   */\n      eq\n        /* \"#utility.yul\":18045:18108   */\n      tag_435\n      jumpi\n        /* \"#utility.yul\":18104:18105   */\n      0x00\n        /* \"#utility.yul\":18101:18102   */\n      dup1\n        /* \"#utility.yul\":18094:18106   */\n      revert\n        /* \"#utility.yul\":18045:18108   */\n    tag_435:\n        /* \"#utility.yul\":17992:18114   */\n      pop\n      jump\t// out\n        /* \"#utility.yul\":18120:18236   */\n    tag_226:\n        /* \"#utility.yul\":18190:18211   */\n      tag_437\n        /* \"#utility.yul\":18205:18210   */\n      dup2\n        /* \"#utility.yul\":18190:18211   */\n      tag_309\n      jump\t// in\n    tag_437:\n        /* \"#utility.yul\":18183:18188   */\n      dup2\n        /* \"#utility.yul\":18180:18212   */\n      eq\n        /* \"#utility.yul\":18170:18230   */\n      tag_438\n      jumpi\n        /* \"#utility.yul\":18226:18227   */\n      0x00\n        /* \"#utility.yul\":18223:18224   */\n      dup1\n        /* \"#utility.yul\":18216:18228   */\n      revert\n        /* \"#utility.yul\":18170:18230   */\n    tag_438:\n        /* \"#utility.yul\":18120:18236   */\n      pop\n      jump\t// out\n        /* \"#utility.yul\":18242:18364   */\n    tag_230:\n        /* \"#utility.yul\":18315:18339   */\n      tag_440\n        /* \"#utility.yul\":18333:18338   */\n      dup2\n        /* \"#utility.yul\":18315:18339   */\n      tag_334\n      jump\t// in\n    tag_440:\n        /* \"#utility.yul\":18308:18313   */\n      dup2\n        /* \"#utility.yul\":18305:18340   */\n      eq\n        /* \"#utility.yul\":18295:18358   */\n      tag_441\n      jumpi\n        /* \"#utility.yul\":18354:18355   */\n      0x00\n        /* \"#utility.yul\":18351:18352   */\n      dup1\n        /* \"#utility.yul\":18344:18356   */\n      revert\n        /* \"#utility.yul\":18295:18358   */\n    tag_441:\n        /* \"#utility.yul\":18242:18364   */\n      pop\n      jump\t// out\n\n    auxdata: 0xa2646970667358221220aded1b8a72635b8656b2a2cccddc68f93448a73985bff1576c65a11235a2a9ff64736f6c63430008070033\n}\n",
				"bytecode": {
					"linkReferences": {},
					"object": "6080604052737ef2e0048f5baede046f6bf797943daf4ed8cb47600260006101000a81548173ffffffffffffffffffffffffffffffffffffffff021916908373ffffffffffffffffffffffffffffffffffffffff1602179055506706f05b59d3b20000600455612710600555624c4b4060065534801561007e57600080fd5b50336000806101000a81548173ffffffffffffffffffffffffffffffffffffffff021916908373ffffffffffffffffffffffffffffffffffffffff160217905550660aa87bee5380006001819055506120eb806100dc6000396000f3fe608060405234801561001057600080fd5b506004361061010b5760003560e01c80635d3eea91116100a2578063c885bc5811610071578063c885bc5814610296578063ce10db0a146102b4578063d0ff6e63146102d0578063d3560ee8146102ee578063f7c618c1146103225761010b565b80635d3eea91146101fa5780638da5cb5b1461022a578063929f6bbe14610248578063b1ab6be1146102665761010b565b806332d4e783116100de57806332d4e783146101865780633a1e0833146101a25780633d18b912146101c0578063500cb85f146101de5761010b565b80630c5f58f41461011057806310cde60a1461012e5780631e8aba351461014c578063293be4561461016a575b600080fd5b610118610340565b6040516101259190611b9d565b60405180910390f35b61013661040e565b6040516101439190611c5c565b60405180910390f35b610154610414565b6040516101619190611c5c565b60405180910390f35b610184600480360381019061017f91906117c0565b610461565b005b6101a0600480360381019061019b91906117c0565b61046b565b005b6101aa610475565b6040516101b79190611bbf565b60405180910390f35b6101c86106e1565b6040516101d59190611c5c565b60405180910390f35b6101f860048036038101906101f391906117c0565b6107e3565b005b610214600480360381019061020f91906117c0565b6107ed565b6040516102219190611be1565b60405180910390f35b610232610b8f565b60405161023f9190611aa6565b60405180910390f35b610250610bb3565b60405161025d9190611c5c565b60405180910390f35b610280600480360381019061027b91906117ed565b610bfd565b60405161028d9190611be1565b60405180910390f35b61029e611239565b6040516102ab9190611be1565b60405180910390f35b6102ce60048036038101906102c99190611840565b611341565b005b6102d861135b565b6040516102e59190611c5c565b60405180910390f35b61030860048036038101906103039190611766565b611361565b604051610319959493929190611b4a565b60405180910390f35b61032a6113c4565b6040516103379190611c5c565b60405180910390f35b6060600760003373ffffffffffffffffffffffffffffffffffffffff1673ffffffffffffffffffffffffffffffffffffffff16815260200190815260200160002060010180548060200260200160405190810160405280929190818152602001828054801561040457602002820191906000526020600020905b8160009054906101000a900473ffffffffffffffffffffffffffffffffffffffff1673ffffffffffffffffffffffffffffffffffffffff16815260200190600101908083116103ba575b5050505050905090565b60035481565b6000600760003373ffffffffffffffffffffffffffffffffffffffff1673ffffffffffffffffffffffffffffffffffffffff16815260200190815260200160002060010180549050905090565b8060048190555050565b8060058190555050565b60606000600760003373ffffffffffffffffffffffffffffffffffffffff1673ffffffffffffffffffffffffffffffffffffffff16815260200190815260200160002060040154905060008060005b8381101561054d576000600760003373ffffffffffffffffffffffffffffffffffffffff1673ffffffffffffffffffffffffffffffffffffffff168152602001908152602001600020600001600083815260200190815260200160002060000154111561053a57828061053690611e9f565b9350505b808061054590611e9f565b9150506104c4565b5060008267ffffffffffffffff81111561056a57610569611f75565b5b6040519080825280602002602001820160405280156105a357816020015b6105906116ff565b8152602001906001900390816105885790505b50905060005b848110156106d6576000600760003373ffffffffffffffffffffffffffffffffffffffff1673ffffffffffffffffffffffffffffffffffffffff16815260200190815260200160002060000160008381526020019081526020016000206000015411156106c357600760003373ffffffffffffffffffffffffffffffffffffffff1673ffffffffffffffffffffffffffffffffffffffff16815260200190815260200160002060000160008281526020019081526020016000206040518060800160405290816000820154815260200160018201548152602001600282015481526020016003820154815250508284815181106106a9576106a8611f46565b5b602002602001018190525082806106bf90611e9f565b9350505b80806106ce90611e9f565b9150506105a9565b508094505050505090565b600080600080600760003373ffffffffffffffffffffffffffffffffffffffff1673ffffffffffffffffffffffffffffffffffffffff16815260200190815260200160002060040154905060005b818110156107d957600760003373ffffffffffffffffffffffffffffffffffffffff1673ffffffffffffffffffffffffffffffffffffffff168152602001908152602001600020600001600082815260200190815260200160002060020154426107999190611ddb565b925062015180836107aa9190611d50565b925060018311156107c657600454836107c39190611d81565b93505b80806107d190611e9f565b91505061072f565b5082935050505090565b8060068190555050565b600080600760003373ffffffffffffffffffffffffffffffffffffffff1673ffffffffffffffffffffffffffffffffffffffff16815260200190815260200160002060000160008481526020019081526020016000206000015411610887576040517f08c379a000000000000000000000000000000000000000000000000000000000815260040161087e90611c1c565b60405180910390fd5b6000600760003373ffffffffffffffffffffffffffffffffffffffff1673ffffffffffffffffffffffffffffffffffffffff168152602001908152602001600020600001600084815260200190815260200160002060000154905042600760003373ffffffffffffffffffffffffffffffffffffffff1673ffffffffffffffffffffffffffffffffffffffff16815260200190815260200160002060000160008581526020019081526020016000206001015411156109505760028161094d9190611d50565b90505b600260009054906101000a900473ffffffffffffffffffffffffffffffffffffffff1673ffffffffffffffffffffffffffffffffffffffff1663a9059cbb33836040518363ffffffff1660e01b81526004016109ad929190611b21565b602060405180830381600087803b1580156109c757600080fd5b505af11580156109db573d6000803e3d6000fd5b505050506040513d601f19601f820116820180604052508101906109ff9190611793565b50600260009054906101000a900473ffffffffffffffffffffffffffffffffffffffff1673ffffffffffffffffffffffffffffffffffffffff1663a9059cbb60008054906101000a900473ffffffffffffffffffffffffffffffffffffffff16836040518363ffffffff1660e01b8152600401610a7d929190611ac1565b602060405180830381600087803b158015610a9757600080fd5b505af1158015610aab573d6000803e3d6000fd5b505050506040513d601f19601f82011682018060405250810190610acf9190611793565b506000600760003373ffffffffffffffffffffffffffffffffffffffff1673ffffffffffffffffffffffffffffffffffffffff16815260200190815260200160002060000160008581526020019081526020016000206000018190555080600760003373ffffffffffffffffffffffffffffffffffffffff1673ffffffffffffffffffffffffffffffffffffffff1681526020019081526020016000206005016000828254610b7e9190611ddb565b925050819055506001915050919050565b60008054906101000a900473ffffffffffffffffffffffffffffffffffffffff1681565b6000600760003373ffffffffffffffffffffffffffffffffffffffff1673ffffffffffffffffffffffffffffffffffffffff16815260200190815260200160002060050154905090565b60006127108411610c43576040517f08c379a0000000000000000000000000000000000000000000000000000000008152600401610c3a90611bfc565b60405180910390fd5b60001515600760003373ffffffffffffffffffffffffffffffffffffffff1673ffffffffffffffffffffffffffffffffffffffff16815260200190815260200160002060060160009054906101000a900460ff1615151415610cb85760036000815480929190610cb290611e9f565b91905055505b6000600760003373ffffffffffffffffffffffffffffffffffffffff1673ffffffffffffffffffffffffffffffffffffffff16815260200190815260200160002060040154905084600760003373ffffffffffffffffffffffffffffffffffffffff1673ffffffffffffffffffffffffffffffffffffffff16815260200190815260200160002060000160008381526020019081526020016000206000018190555042600760003373ffffffffffffffffffffffffffffffffffffffff1673ffffffffffffffffffffffffffffffffffffffff1681526020019081526020016000206000016000838152602001908152602001600020600201819055506201518084610dc49190611d81565b42610dcf9190611cfa565b600760003373ffffffffffffffffffffffffffffffffffffffff1673ffffffffffffffffffffffffffffffffffffffff16815260200190815260200160002060000160008381526020019081526020016000206001018190555080600760003373ffffffffffffffffffffffffffffffffffffffff1673ffffffffffffffffffffffffffffffffffffffff16815260200190815260200160002060000160008381526020019081526020016000206003018190555084600760003373ffffffffffffffffffffffffffffffffffffffff1673ffffffffffffffffffffffffffffffffffffffff1681526020019081526020016000206005016000828254610ed69190611cfa565b925050819055506001600760003373ffffffffffffffffffffffffffffffffffffffff1673ffffffffffffffffffffffffffffffffffffffff16815260200190815260200160002060060160006101000a81548160ff021916908315150217905550600760003373ffffffffffffffffffffffffffffffffffffffff1673ffffffffffffffffffffffffffffffffffffffff1681526020019081526020016000206004016000815480929190610f8b90611e9f565b9190505550600260009054906101000a900473ffffffffffffffffffffffffffffffffffffffff1673ffffffffffffffffffffffffffffffffffffffff166363b0545f3330886040518463ffffffff1660e01b8152600401610fef93929190611aea565b602060405180830381600087803b15801561100957600080fd5b505af115801561101d573d6000803e3d6000fd5b505050506040513d601f19601f820116820180604052508101906110419190611793565b50600073ffffffffffffffffffffffffffffffffffffffff168373ffffffffffffffffffffffffffffffffffffffff1614156110fe576000600760003373ffffffffffffffffffffffffffffffffffffffff1673ffffffffffffffffffffffffffffffffffffffff16815260200190815260200160002060020160006101000a81548173ffffffffffffffffffffffffffffffffffffffff021916908373ffffffffffffffffffffffffffffffffffffffff16021790555061122d565b82600760003373ffffffffffffffffffffffffffffffffffffffff1673ffffffffffffffffffffffffffffffffffffffff16815260200190815260200160002060020160006101000a81548173ffffffffffffffffffffffffffffffffffffffff021916908373ffffffffffffffffffffffffffffffffffffffff160217905550600760008473ffffffffffffffffffffffffffffffffffffffff1673ffffffffffffffffffffffffffffffffffffffff168152602001908152602001600020600101339080600181540180825580915050600190039060005260206000200160009091909190916101000a81548173ffffffffffffffffffffffffffffffffffffffff021916908373ffffffffffffffffffffffffffffffffffffffff16021790555061122c33866113ca565b5b60019150509392505050565b6000806112446106e1565b905060008111611289576040517f08c379a000000000000000000000000000000000000000000000000000000000815260040161128090611c3c565b60405180910390fd5b600260009054906101000a900473ffffffffffffffffffffffffffffffffffffffff1673ffffffffffffffffffffffffffffffffffffffff1663a9059cbb33836040518363ffffffff1660e01b81526004016112e6929190611b21565b602060405180830381600087803b15801561130057600080fd5b505af1158015611314573d6000803e3d6000fd5b505050506040513d601f19601f820116820180604052508101906113389190611793565b50600191505090565b816006819055508260058190555080600481905550505050565b60015481565b60076020528060005260406000206000915090508060020160009054906101000a900473ffffffffffffffffffffffffffffffffffffffff16908060030154908060040154908060050154908060060160009054906101000a900460ff16905085565b60045481565b60008290506000600467ffffffffffffffff8111156113ec576113eb611f75565b5b60405190808252806020026020018201604052801561141a5781602001602082028036833780820191505090505b509050674563918244f400008160008151811061143a57611439611f46565b5b6020026020010181815250506729a2241af62c00008160018151811061146357611462611f46565b5b602002602001018181525050671bc16d674ec800008160028151811061148c5761148b611f46565b5b602002602001018181525050670de0b6b3a7640000816003815181106114b5576114b4611f46565b5b6020026020010181815250506706f05b59d3b20000816004815181106114de576114dd611f46565b5b602002602001018181525050600080600090505b60148110156116f757600081141561150d5760009150611555565b600181141561151f5760019150611554565b60028114156115315760029150611553565b60028111156115435760039150611552565b600781111561155157600491505b5b5b5b5b600073ffffffffffffffffffffffffffffffffffffffff16600760008673ffffffffffffffffffffffffffffffffffffffff1673ffffffffffffffffffffffffffffffffffffffff16815260200190815260200160002060020160009054906101000a900473ffffffffffffffffffffffffffffffffffffffff1673ffffffffffffffffffffffffffffffffffffffff16146116df57600760008573ffffffffffffffffffffffffffffffffffffffff1673ffffffffffffffffffffffffffffffffffffffff16815260200190815260200160002060020160009054906101000a900473ffffffffffffffffffffffffffffffffffffffff16935060648584848151811061166657611665611f46565b5b60200260200101516116789190611d81565b6116829190611d50565b600760008673ffffffffffffffffffffffffffffffffffffffff1673ffffffffffffffffffffffffffffffffffffffff16815260200190815260200160002060030160008282546116d39190611cfa565b925050819055506116e4565b6116f7565b80806116ef90611e9f565b9150506114f2565b505050505050565b6040518060800160405280600081526020016000815260200160008152602001600081525090565b60008135905061173681612070565b92915050565b60008151905061174b81612087565b92915050565b6000813590506117608161209e565b92915050565b60006020828403121561177c5761177b611fa4565b5b600061178a84828501611727565b91505092915050565b6000602082840312156117a9576117a8611fa4565b5b60006117b78482850161173c565b91505092915050565b6000602082840312156117d6576117d5611fa4565b5b60006117e484828501611751565b91505092915050565b60008060006060848603121561180657611805611fa4565b5b600061181486828701611751565b935050602061182586828701611751565b925050604061183686828701611727565b9150509250925092565b60008060006060848603121561185957611858611fa4565b5b600061186786828701611751565b935050602061187886828701611751565b925050604061188986828701611751565b9150509250925092565b600061189f83836118e1565b60208301905092915050565b60006118b78383611a33565b60808301905092915050565b6118cc81611e69565b82525050565b6118db81611e21565b82525050565b6118ea81611e0f565b82525050565b6118f981611e0f565b82525050565b600061190a82611c97565b6119148185611cc7565b935061191f83611c77565b8060005b838110156119505781516119378882611893565b975061194283611cad565b925050600181019050611923565b5085935050505092915050565b600061196882611ca2565b6119728185611cd8565b935061197d83611c87565b8060005b838110156119ae57815161199588826118ab565b97506119a083611cba565b925050600181019050611981565b5085935050505092915050565b6119c481611e33565b82525050565b60006119d7601b83611ce9565b91506119e282611fa9565b602082019050919050565b60006119fa602583611ce9565b9150611a0582611fd2565b604082019050919050565b6000611a1d602283611ce9565b9150611a2882612021565b604082019050919050565b608082016000820151611a496000850182611a88565b506020820151611a5c6020850182611a88565b506040820151611a6f6040850182611a88565b506060820151611a826060850182611a88565b50505050565b611a9181611e5f565b82525050565b611aa081611e5f565b82525050565b6000602082019050611abb60008301846118d2565b92915050565b6000604082019050611ad660008301856118c3565b611ae36020830184611a97565b9392505050565b6000606082019050611aff60008301866118f0565b611b0c60208301856118f0565b611b196040830184611a97565b949350505050565b6000604082019050611b3660008301856118f0565b611b436020830184611a97565b9392505050565b600060a082019050611b5f60008301886118f0565b611b6c6020830187611a97565b611b796040830186611a97565b611b866060830185611a97565b611b9360808301846119bb565b9695505050505050565b60006020820190508181036000830152611bb781846118ff565b905092915050565b60006020820190508181036000830152611bd9818461195d565b905092915050565b6000602082019050611bf660008301846119bb565b92915050565b60006020820190508181036000830152611c15816119ca565b9050919050565b60006020820190508181036000830152611c35816119ed565b9050919050565b60006020820190508181036000830152611c5581611a10565b9050919050565b6000602082019050611c716000830184611a97565b92915050565b6000819050602082019050919050565b6000819050602082019050919050565b600081519050919050565b600081519050919050565b6000602082019050919050565b6000602082019050919050565b600082825260208201905092915050565b600082825260208201905092915050565b600082825260208201905092915050565b6000611d0582611e5f565b9150611d1083611e5f565b9250827fffffffffffffffffffffffffffffffffffffffffffffffffffffffffffffffff03821115611d4557611d44611ee8565b5b828201905092915050565b6000611d5b82611e5f565b9150611d6683611e5f565b925082611d7657611d75611f17565b5b828204905092915050565b6000611d8c82611e5f565b9150611d9783611e5f565b9250817fffffffffffffffffffffffffffffffffffffffffffffffffffffffffffffffff0483118215151615611dd057611dcf611ee8565b5b828202905092915050565b6000611de682611e5f565b9150611df183611e5f565b925082821015611e0457611e03611ee8565b5b828203905092915050565b6000611e1a82611e3f565b9050919050565b6000611e2c82611e3f565b9050919050565b60008115159050919050565b600073ffffffffffffffffffffffffffffffffffffffff82169050919050565b6000819050919050565b6000611e7482611e7b565b9050919050565b6000611e8682611e8d565b9050919050565b6000611e9882611e3f565b9050919050565b6000611eaa82611e5f565b91507fffffffffffffffffffffffffffffffffffffffffffffffffffffffffffffffff821415611edd57611edc611ee8565b5b600182019050919050565b7f4e487b7100000000000000000000000000000000000000000000000000000000600052601160045260246000fd5b7f4e487b7100000000000000000000000000000000000000000000000000000000600052601260045260246000fd5b7f4e487b7100000000000000000000000000000000000000000000000000000000600052603260045260246000fd5b7f4e487b7100000000000000000000000000000000000000000000000000000000600052604160045260246000fd5b600080fd5b7f76616c7565206973206e6f742067726561746572207468616e20300000000000600082015250565b7f796f7520646f6e74206861766520696e766573746d656e7420746f207769746860008201527f647261776e000000000000000000000000000000000000000000000000000000602082015250565b7f796f7520646f6e742068617665207265776172647320746f207769746864726160008201527f776e000000000000000000000000000000000000000000000000000000000000602082015250565b61207981611e0f565b811461208457600080fd5b50565b61209081611e33565b811461209b57600080fd5b50565b6120a781611e5f565b81146120b257600080fd5b5056fea2646970667358221220aded1b8a72635b8656b2a2cccddc68f93448a73985bff1576c65a11235a2a9ff64736f6c63430008070033",
					"opcodes": "PUSH1 0x80 PUSH1 0x40 MSTORE PUSH20 0x7EF2E0048F5BAEDE046F6BF797943DAF4ED8CB47 PUSH1 0x2 PUSH1 0x0 PUSH2 0x100 EXP DUP2 SLOAD DUP2 PUSH20 0xFFFFFFFFFFFFFFFFFFFFFFFFFFFFFFFFFFFFFFFF MUL NOT AND SWAP1 DUP4 PUSH20 0xFFFFFFFFFFFFFFFFFFFFFFFFFFFFFFFFFFFFFFFF AND MUL OR SWAP1 SSTORE POP PUSH8 0x6F05B59D3B20000 PUSH1 0x4 SSTORE PUSH2 0x2710 PUSH1 0x5 SSTORE PUSH3 0x4C4B40 PUSH1 0x6 SSTORE CALLVALUE DUP1 ISZERO PUSH2 0x7E JUMPI PUSH1 0x0 DUP1 REVERT JUMPDEST POP CALLER PUSH1 0x0 DUP1 PUSH2 0x100 EXP DUP2 SLOAD DUP2 PUSH20 0xFFFFFFFFFFFFFFFFFFFFFFFFFFFFFFFFFFFFFFFF MUL NOT AND SWAP1 DUP4 PUSH20 0xFFFFFFFFFFFFFFFFFFFFFFFFFFFFFFFFFFFFFFFF AND MUL OR SWAP1 SSTORE POP PUSH7 0xAA87BEE538000 PUSH1 0x1 DUP2 SWAP1 SSTORE POP PUSH2 0x20EB DUP1 PUSH2 0xDC PUSH1 0x0 CODECOPY PUSH1 0x0 RETURN INVALID PUSH1 0x80 PUSH1 0x40 MSTORE CALLVALUE DUP1 ISZERO PUSH2 0x10 JUMPI PUSH1 0x0 DUP1 REVERT JUMPDEST POP PUSH1 0x4 CALLDATASIZE LT PUSH2 0x10B JUMPI PUSH1 0x0 CALLDATALOAD PUSH1 0xE0 SHR DUP1 PUSH4 0x5D3EEA91 GT PUSH2 0xA2 JUMPI DUP1 PUSH4 0xC885BC58 GT PUSH2 0x71 JUMPI DUP1 PUSH4 0xC885BC58 EQ PUSH2 0x296 JUMPI DUP1 PUSH4 0xCE10DB0A EQ PUSH2 0x2B4 JUMPI DUP1 PUSH4 0xD0FF6E63 EQ PUSH2 0x2D0 JUMPI DUP1 PUSH4 0xD3560EE8 EQ PUSH2 0x2EE JUMPI DUP1 PUSH4 0xF7C618C1 EQ PUSH2 0x322 JUMPI PUSH2 0x10B JUMP JUMPDEST DUP1 PUSH4 0x5D3EEA91 EQ PUSH2 0x1FA JUMPI DUP1 PUSH4 0x8DA5CB5B EQ PUSH2 0x22A JUMPI DUP1 PUSH4 0x929F6BBE EQ PUSH2 0x248 JUMPI DUP1 PUSH4 0xB1AB6BE1 EQ PUSH2 0x266 JUMPI PUSH2 0x10B JUMP JUMPDEST DUP1 PUSH4 0x32D4E783 GT PUSH2 0xDE JUMPI DUP1 PUSH4 0x32D4E783 EQ PUSH2 0x186 JUMPI DUP1 PUSH4 0x3A1E0833 EQ PUSH2 0x1A2 JUMPI DUP1 PUSH4 0x3D18B912 EQ PUSH2 0x1C0 JUMPI DUP1 PUSH4 0x500CB85F EQ PUSH2 0x1DE JUMPI PUSH2 0x10B JUMP JUMPDEST DUP1 PUSH4 0xC5F58F4 EQ PUSH2 0x110 JUMPI DUP1 PUSH4 0x10CDE60A EQ PUSH2 0x12E JUMPI DUP1 PUSH4 0x1E8ABA35 EQ PUSH2 0x14C JUMPI DUP1 PUSH4 0x293BE456 EQ PUSH2 0x16A JUMPI JUMPDEST PUSH1 0x0 DUP1 REVERT JUMPDEST PUSH2 0x118 PUSH2 0x340 JUMP JUMPDEST PUSH1 0x40 MLOAD PUSH2 0x125 SWAP2 SWAP1 PUSH2 0x1B9D JUMP JUMPDEST PUSH1 0x40 MLOAD DUP1 SWAP2 SUB SWAP1 RETURN JUMPDEST PUSH2 0x136 PUSH2 0x40E JUMP JUMPDEST PUSH1 0x40 MLOAD PUSH2 0x143 SWAP2 SWAP1 PUSH2 0x1C5C JUMP JUMPDEST PUSH1 0x40 MLOAD DUP1 SWAP2 SUB SWAP1 RETURN JUMPDEST PUSH2 0x154 PUSH2 0x414 JUMP JUMPDEST PUSH1 0x40 MLOAD PUSH2 0x161 SWAP2 SWAP1 PUSH2 0x1C5C JUMP JUMPDEST PUSH1 0x40 MLOAD DUP1 SWAP2 SUB SWAP1 RETURN JUMPDEST PUSH2 0x184 PUSH1 0x4 DUP1 CALLDATASIZE SUB DUP2 ADD SWAP1 PUSH2 0x17F SWAP2 SWAP1 PUSH2 0x17C0 JUMP JUMPDEST PUSH2 0x461 JUMP JUMPDEST STOP JUMPDEST PUSH2 0x1A0 PUSH1 0x4 DUP1 CALLDATASIZE SUB DUP2 ADD SWAP1 PUSH2 0x19B SWAP2 SWAP1 PUSH2 0x17C0 JUMP JUMPDEST PUSH2 0x46B JUMP JUMPDEST STOP JUMPDEST PUSH2 0x1AA PUSH2 0x475 JUMP JUMPDEST PUSH1 0x40 MLOAD PUSH2 0x1B7 SWAP2 SWAP1 PUSH2 0x1BBF JUMP JUMPDEST PUSH1 0x40 MLOAD DUP1 SWAP2 SUB SWAP1 RETURN JUMPDEST PUSH2 0x1C8 PUSH2 0x6E1 JUMP JUMPDEST PUSH1 0x40 MLOAD PUSH2 0x1D5 SWAP2 SWAP1 PUSH2 0x1C5C JUMP JUMPDEST PUSH1 0x40 MLOAD DUP1 SWAP2 SUB SWAP1 RETURN JUMPDEST PUSH2 0x1F8 PUSH1 0x4 DUP1 CALLDATASIZE SUB DUP2 ADD SWAP1 PUSH2 0x1F3 SWAP2 SWAP1 PUSH2 0x17C0 JUMP JUMPDEST PUSH2 0x7E3 JUMP JUMPDEST STOP JUMPDEST PUSH2 0x214 PUSH1 0x4 DUP1 CALLDATASIZE SUB DUP2 ADD SWAP1 PUSH2 0x20F SWAP2 SWAP1 PUSH2 0x17C0 JUMP JUMPDEST PUSH2 0x7ED JUMP JUMPDEST PUSH1 0x40 MLOAD PUSH2 0x221 SWAP2 SWAP1 PUSH2 0x1BE1 JUMP JUMPDEST PUSH1 0x40 MLOAD DUP1 SWAP2 SUB SWAP1 RETURN JUMPDEST PUSH2 0x232 PUSH2 0xB8F JUMP JUMPDEST PUSH1 0x40 MLOAD PUSH2 0x23F SWAP2 SWAP1 PUSH2 0x1AA6 JUMP JUMPDEST PUSH1 0x40 MLOAD DUP1 SWAP2 SUB SWAP1 RETURN JUMPDEST PUSH2 0x250 PUSH2 0xBB3 JUMP JUMPDEST PUSH1 0x40 MLOAD PUSH2 0x25D SWAP2 SWAP1 PUSH2 0x1C5C JUMP JUMPDEST PUSH1 0x40 MLOAD DUP1 SWAP2 SUB SWAP1 RETURN JUMPDEST PUSH2 0x280 PUSH1 0x4 DUP1 CALLDATASIZE SUB DUP2 ADD SWAP1 PUSH2 0x27B SWAP2 SWAP1 PUSH2 0x17ED JUMP JUMPDEST PUSH2 0xBFD JUMP JUMPDEST PUSH1 0x40 MLOAD PUSH2 0x28D SWAP2 SWAP1 PUSH2 0x1BE1 JUMP JUMPDEST PUSH1 0x40 MLOAD DUP1 SWAP2 SUB SWAP1 RETURN JUMPDEST PUSH2 0x29E PUSH2 0x1239 JUMP JUMPDEST PUSH1 0x40 MLOAD PUSH2 0x2AB SWAP2 SWAP1 PUSH2 0x1BE1 JUMP JUMPDEST PUSH1 0x40 MLOAD DUP1 SWAP2 SUB SWAP1 RETURN JUMPDEST PUSH2 0x2CE PUSH1 0x4 DUP1 CALLDATASIZE SUB DUP2 ADD SWAP1 PUSH2 0x2C9 SWAP2 SWAP1 PUSH2 0x1840 JUMP JUMPDEST PUSH2 0x1341 JUMP JUMPDEST STOP JUMPDEST PUSH2 0x2D8 PUSH2 0x135B JUMP JUMPDEST PUSH1 0x40 MLOAD PUSH2 0x2E5 SWAP2 SWAP1 PUSH2 0x1C5C JUMP JUMPDEST PUSH1 0x40 MLOAD DUP1 SWAP2 SUB SWAP1 RETURN JUMPDEST PUSH2 0x308 PUSH1 0x4 DUP1 CALLDATASIZE SUB DUP2 ADD SWAP1 PUSH2 0x303 SWAP2 SWAP1 PUSH2 0x1766 JUMP JUMPDEST PUSH2 0x1361 JUMP JUMPDEST PUSH1 0x40 MLOAD PUSH2 0x319 SWAP6 SWAP5 SWAP4 SWAP3 SWAP2 SWAP1 PUSH2 0x1B4A JUMP JUMPDEST PUSH1 0x40 MLOAD DUP1 SWAP2 SUB SWAP1 RETURN JUMPDEST PUSH2 0x32A PUSH2 0x13C4 JUMP JUMPDEST PUSH1 0x40 MLOAD PUSH2 0x337 SWAP2 SWAP1 PUSH2 0x1C5C JUMP JUMPDEST PUSH1 0x40 MLOAD DUP1 SWAP2 SUB SWAP1 RETURN JUMPDEST PUSH1 0x60 PUSH1 0x7 PUSH1 0x0 CALLER PUSH20 0xFFFFFFFFFFFFFFFFFFFFFFFFFFFFFFFFFFFFFFFF AND PUSH20 0xFFFFFFFFFFFFFFFFFFFFFFFFFFFFFFFFFFFFFFFF AND DUP2 MSTORE PUSH1 0x20 ADD SWAP1 DUP2 MSTORE PUSH1 0x20 ADD PUSH1 0x0 KECCAK256 PUSH1 0x1 ADD DUP1 SLOAD DUP1 PUSH1 0x20 MUL PUSH1 0x20 ADD PUSH1 0x40 MLOAD SWAP1 DUP2 ADD PUSH1 0x40 MSTORE DUP1 SWAP3 SWAP2 SWAP1 DUP2 DUP2 MSTORE PUSH1 0x20 ADD DUP3 DUP1 SLOAD DUP1 ISZERO PUSH2 0x404 JUMPI PUSH1 0x20 MUL DUP3 ADD SWAP2 SWAP1 PUSH1 0x0 MSTORE PUSH1 0x20 PUSH1 0x0 KECCAK256 SWAP1 JUMPDEST DUP2 PUSH1 0x0 SWAP1 SLOAD SWAP1 PUSH2 0x100 EXP SWAP1 DIV PUSH20 0xFFFFFFFFFFFFFFFFFFFFFFFFFFFFFFFFFFFFFFFF AND PUSH20 0xFFFFFFFFFFFFFFFFFFFFFFFFFFFFFFFFFFFFFFFF AND DUP2 MSTORE PUSH1 0x20 ADD SWAP1 PUSH1 0x1 ADD SWAP1 DUP1 DUP4 GT PUSH2 0x3BA JUMPI JUMPDEST POP POP POP POP POP SWAP1 POP SWAP1 JUMP JUMPDEST PUSH1 0x3 SLOAD DUP2 JUMP JUMPDEST PUSH1 0x0 PUSH1 0x7 PUSH1 0x0 CALLER PUSH20 0xFFFFFFFFFFFFFFFFFFFFFFFFFFFFFFFFFFFFFFFF AND PUSH20 0xFFFFFFFFFFFFFFFFFFFFFFFFFFFFFFFFFFFFFFFF AND DUP2 MSTORE PUSH1 0x20 ADD SWAP1 DUP2 MSTORE PUSH1 0x20 ADD PUSH1 0x0 KECCAK256 PUSH1 0x1 ADD DUP1 SLOAD SWAP1 POP SWAP1 POP SWAP1 JUMP JUMPDEST DUP1 PUSH1 0x4 DUP2 SWAP1 SSTORE POP POP JUMP JUMPDEST DUP1 PUSH1 0x5 DUP2 SWAP1 SSTORE POP POP JUMP JUMPDEST PUSH1 0x60 PUSH1 0x0 PUSH1 0x7 PUSH1 0x0 CALLER PUSH20 0xFFFFFFFFFFFFFFFFFFFFFFFFFFFFFFFFFFFFFFFF AND PUSH20 0xFFFFFFFFFFFFFFFFFFFFFFFFFFFFFFFFFFFFFFFF AND DUP2 MSTORE PUSH1 0x20 ADD SWAP1 DUP2 MSTORE PUSH1 0x20 ADD PUSH1 0x0 KECCAK256 PUSH1 0x4 ADD SLOAD SWAP1 POP PUSH1 0x0 DUP1 PUSH1 0x0 JUMPDEST DUP4 DUP2 LT ISZERO PUSH2 0x54D JUMPI PUSH1 0x0 PUSH1 0x7 PUSH1 0x0 CALLER PUSH20 0xFFFFFFFFFFFFFFFFFFFFFFFFFFFFFFFFFFFFFFFF AND PUSH20 0xFFFFFFFFFFFFFFFFFFFFFFFFFFFFFFFFFFFFFFFF AND DUP2 MSTORE PUSH1 0x20 ADD SWAP1 DUP2 MSTORE PUSH1 0x20 ADD PUSH1 0x0 KECCAK256 PUSH1 0x0 ADD PUSH1 0x0 DUP4 DUP2 MSTORE PUSH1 0x20 ADD SWAP1 DUP2 MSTORE PUSH1 0x20 ADD PUSH1 0x0 KECCAK256 PUSH1 0x0 ADD SLOAD GT ISZERO PUSH2 0x53A JUMPI DUP3 DUP1 PUSH2 0x536 SWAP1 PUSH2 0x1E9F JUMP JUMPDEST SWAP4 POP POP JUMPDEST DUP1 DUP1 PUSH2 0x545 SWAP1 PUSH2 0x1E9F JUMP JUMPDEST SWAP2 POP POP PUSH2 0x4C4 JUMP JUMPDEST POP PUSH1 0x0 DUP3 PUSH8 0xFFFFFFFFFFFFFFFF DUP2 GT ISZERO PUSH2 0x56A JUMPI PUSH2 0x569 PUSH2 0x1F75 JUMP JUMPDEST JUMPDEST PUSH1 0x40 MLOAD SWAP1 DUP1 DUP3 MSTORE DUP1 PUSH1 0x20 MUL PUSH1 0x20 ADD DUP3 ADD PUSH1 0x40 MSTORE DUP1 ISZERO PUSH2 0x5A3 JUMPI DUP2 PUSH1 0x20 ADD JUMPDEST PUSH2 0x590 PUSH2 0x16FF JUMP JUMPDEST DUP2 MSTORE PUSH1 0x20 ADD SWAP1 PUSH1 0x1 SWAP1 SUB SWAP1 DUP2 PUSH2 0x588 JUMPI SWAP1 POP JUMPDEST POP SWAP1 POP PUSH1 0x0 JUMPDEST DUP5 DUP2 LT ISZERO PUSH2 0x6D6 JUMPI PUSH1 0x0 PUSH1 0x7 PUSH1 0x0 CALLER PUSH20 0xFFFFFFFFFFFFFFFFFFFFFFFFFFFFFFFFFFFFFFFF AND PUSH20 0xFFFFFFFFFFFFFFFFFFFFFFFFFFFFFFFFFFFFFFFF AND DUP2 MSTORE PUSH1 0x20 ADD SWAP1 DUP2 MSTORE PUSH1 0x20 ADD PUSH1 0x0 KECCAK256 PUSH1 0x0 ADD PUSH1 0x0 DUP4 DUP2 MSTORE PUSH1 0x20 ADD SWAP1 DUP2 MSTORE PUSH1 0x20 ADD PUSH1 0x0 KECCAK256 PUSH1 0x0 ADD SLOAD GT ISZERO PUSH2 0x6C3 JUMPI PUSH1 0x7 PUSH1 0x0 CALLER PUSH20 0xFFFFFFFFFFFFFFFFFFFFFFFFFFFFFFFFFFFFFFFF AND PUSH20 0xFFFFFFFFFFFFFFFFFFFFFFFFFFFFFFFFFFFFFFFF AND DUP2 MSTORE PUSH1 0x20 ADD SWAP1 DUP2 MSTORE PUSH1 0x20 ADD PUSH1 0x0 KECCAK256 PUSH1 0x0 ADD PUSH1 0x0 DUP3 DUP2 MSTORE PUSH1 0x20 ADD SWAP1 DUP2 MSTORE PUSH1 0x20 ADD PUSH1 0x0 KECCAK256 PUSH1 0x40 MLOAD DUP1 PUSH1 0x80 ADD PUSH1 0x40 MSTORE SWAP1 DUP2 PUSH1 0x0 DUP3 ADD SLOAD DUP2 MSTORE PUSH1 0x20 ADD PUSH1 0x1 DUP3 ADD SLOAD DUP2 MSTORE PUSH1 0x20 ADD PUSH1 0x2 DUP3 ADD SLOAD DUP2 MSTORE PUSH1 0x20 ADD PUSH1 0x3 DUP3 ADD SLOAD DUP2 MSTORE POP POP DUP3 DUP5 DUP2 MLOAD DUP2 LT PUSH2 0x6A9 JUMPI PUSH2 0x6A8 PUSH2 0x1F46 JUMP JUMPDEST JUMPDEST PUSH1 0x20 MUL PUSH1 0x20 ADD ADD DUP2 SWAP1 MSTORE POP DUP3 DUP1 PUSH2 0x6BF SWAP1 PUSH2 0x1E9F JUMP JUMPDEST SWAP4 POP POP JUMPDEST DUP1 DUP1 PUSH2 0x6CE SWAP1 PUSH2 0x1E9F JUMP JUMPDEST SWAP2 POP POP PUSH2 0x5A9 JUMP JUMPDEST POP DUP1 SWAP5 POP POP POP POP POP SWAP1 JUMP JUMPDEST PUSH1 0x0 DUP1 PUSH1 0x0 DUP1 PUSH1 0x7 PUSH1 0x0 CALLER PUSH20 0xFFFFFFFFFFFFFFFFFFFFFFFFFFFFFFFFFFFFFFFF AND PUSH20 0xFFFFFFFFFFFFFFFFFFFFFFFFFFFFFFFFFFFFFFFF AND DUP2 MSTORE PUSH1 0x20 ADD SWAP1 DUP2 MSTORE PUSH1 0x20 ADD PUSH1 0x0 KECCAK256 PUSH1 0x4 ADD SLOAD SWAP1 POP PUSH1 0x0 JUMPDEST DUP2 DUP2 LT ISZERO PUSH2 0x7D9 JUMPI PUSH1 0x7 PUSH1 0x0 CALLER PUSH20 0xFFFFFFFFFFFFFFFFFFFFFFFFFFFFFFFFFFFFFFFF AND PUSH20 0xFFFFFFFFFFFFFFFFFFFFFFFFFFFFFFFFFFFFFFFF AND DUP2 MSTORE PUSH1 0x20 ADD SWAP1 DUP2 MSTORE PUSH1 0x20 ADD PUSH1 0x0 KECCAK256 PUSH1 0x0 ADD PUSH1 0x0 DUP3 DUP2 MSTORE PUSH1 0x20 ADD SWAP1 DUP2 MSTORE PUSH1 0x20 ADD PUSH1 0x0 KECCAK256 PUSH1 0x2 ADD SLOAD TIMESTAMP PUSH2 0x799 SWAP2 SWAP1 PUSH2 0x1DDB JUMP JUMPDEST SWAP3 POP PUSH3 0x15180 DUP4 PUSH2 0x7AA SWAP2 SWAP1 PUSH2 0x1D50 JUMP JUMPDEST SWAP3 POP PUSH1 0x1 DUP4 GT ISZERO PUSH2 0x7C6 JUMPI PUSH1 0x4 SLOAD DUP4 PUSH2 0x7C3 SWAP2 SWAP1 PUSH2 0x1D81 JUMP JUMPDEST SWAP4 POP JUMPDEST DUP1 DUP1 PUSH2 0x7D1 SWAP1 PUSH2 0x1E9F JUMP JUMPDEST SWAP2 POP POP PUSH2 0x72F JUMP JUMPDEST POP DUP3 SWAP4 POP POP POP POP SWAP1 JUMP JUMPDEST DUP1 PUSH1 0x6 DUP2 SWAP1 SSTORE POP POP JUMP JUMPDEST PUSH1 0x0 DUP1 PUSH1 0x7 PUSH1 0x0 CALLER PUSH20 0xFFFFFFFFFFFFFFFFFFFFFFFFFFFFFFFFFFFFFFFF AND PUSH20 0xFFFFFFFFFFFFFFFFFFFFFFFFFFFFFFFFFFFFFFFF AND DUP2 MSTORE PUSH1 0x20 ADD SWAP1 DUP2 MSTORE PUSH1 0x20 ADD PUSH1 0x0 KECCAK256 PUSH1 0x0 ADD PUSH1 0x0 DUP5 DUP2 MSTORE PUSH1 0x20 ADD SWAP1 DUP2 MSTORE PUSH1 0x20 ADD PUSH1 0x0 KECCAK256 PUSH1 0x0 ADD SLOAD GT PUSH2 0x887 JUMPI PUSH1 0x40 MLOAD PUSH32 0x8C379A000000000000000000000000000000000000000000000000000000000 DUP2 MSTORE PUSH1 0x4 ADD PUSH2 0x87E SWAP1 PUSH2 0x1C1C JUMP JUMPDEST PUSH1 0x40 MLOAD DUP1 SWAP2 SUB SWAP1 REVERT JUMPDEST PUSH1 0x0 PUSH1 0x7 PUSH1 0x0 CALLER PUSH20 0xFFFFFFFFFFFFFFFFFFFFFFFFFFFFFFFFFFFFFFFF AND PUSH20 0xFFFFFFFFFFFFFFFFFFFFFFFFFFFFFFFFFFFFFFFF AND DUP2 MSTORE PUSH1 0x20 ADD SWAP1 DUP2 MSTORE PUSH1 0x20 ADD PUSH1 0x0 KECCAK256 PUSH1 0x0 ADD PUSH1 0x0 DUP5 DUP2 MSTORE PUSH1 0x20 ADD SWAP1 DUP2 MSTORE PUSH1 0x20 ADD PUSH1 0x0 KECCAK256 PUSH1 0x0 ADD SLOAD SWAP1 POP TIMESTAMP PUSH1 0x7 PUSH1 0x0 CALLER PUSH20 0xFFFFFFFFFFFFFFFFFFFFFFFFFFFFFFFFFFFFFFFF AND PUSH20 0xFFFFFFFFFFFFFFFFFFFFFFFFFFFFFFFFFFFFFFFF AND DUP2 MSTORE PUSH1 0x20 ADD SWAP1 DUP2 MSTORE PUSH1 0x20 ADD PUSH1 0x0 KECCAK256 PUSH1 0x0 ADD PUSH1 0x0 DUP6 DUP2 MSTORE PUSH1 0x20 ADD SWAP1 DUP2 MSTORE PUSH1 0x20 ADD PUSH1 0x0 KECCAK256 PUSH1 0x1 ADD SLOAD GT ISZERO PUSH2 0x950 JUMPI PUSH1 0x2 DUP2 PUSH2 0x94D SWAP2 SWAP1 PUSH2 0x1D50 JUMP JUMPDEST SWAP1 POP JUMPDEST PUSH1 0x2 PUSH1 0x0 SWAP1 SLOAD SWAP1 PUSH2 0x100 EXP SWAP1 DIV PUSH20 0xFFFFFFFFFFFFFFFFFFFFFFFFFFFFFFFFFFFFFFFF AND PUSH20 0xFFFFFFFFFFFFFFFFFFFFFFFFFFFFFFFFFFFFFFFF AND PUSH4 0xA9059CBB CALLER DUP4 PUSH1 0x40 MLOAD DUP4 PUSH4 0xFFFFFFFF AND PUSH1 0xE0 SHL DUP2 MSTORE PUSH1 0x4 ADD PUSH2 0x9AD SWAP3 SWAP2 SWAP1 PUSH2 0x1B21 JUMP JUMPDEST PUSH1 0x20 PUSH1 0x40 MLOAD DUP1 DUP4 SUB DUP2 PUSH1 0x0 DUP8 DUP1 EXTCODESIZE ISZERO DUP1 ISZERO PUSH2 0x9C7 JUMPI PUSH1 0x0 DUP1 REVERT JUMPDEST POP GAS CALL ISZERO DUP1 ISZERO PUSH2 0x9DB JUMPI RETURNDATASIZE PUSH1 0x0 DUP1 RETURNDATACOPY RETURNDATASIZE PUSH1 0x0 REVERT JUMPDEST POP POP POP POP PUSH1 0x40 MLOAD RETURNDATASIZE PUSH1 0x1F NOT PUSH1 0x1F DUP3 ADD AND DUP3 ADD DUP1 PUSH1 0x40 MSTORE POP DUP2 ADD SWAP1 PUSH2 0x9FF SWAP2 SWAP1 PUSH2 0x1793 JUMP JUMPDEST POP PUSH1 0x2 PUSH1 0x0 SWAP1 SLOAD SWAP1 PUSH2 0x100 EXP SWAP1 DIV PUSH20 0xFFFFFFFFFFFFFFFFFFFFFFFFFFFFFFFFFFFFFFFF AND PUSH20 0xFFFFFFFFFFFFFFFFFFFFFFFFFFFFFFFFFFFFFFFF AND PUSH4 0xA9059CBB PUSH1 0x0 DUP1 SLOAD SWAP1 PUSH2 0x100 EXP SWAP1 DIV PUSH20 0xFFFFFFFFFFFFFFFFFFFFFFFFFFFFFFFFFFFFFFFF AND DUP4 PUSH1 0x40 MLOAD DUP4 PUSH4 0xFFFFFFFF AND PUSH1 0xE0 SHL DUP2 MSTORE PUSH1 0x4 ADD PUSH2 0xA7D SWAP3 SWAP2 SWAP1 PUSH2 0x1AC1 JUMP JUMPDEST PUSH1 0x20 PUSH1 0x40 MLOAD DUP1 DUP4 SUB DUP2 PUSH1 0x0 DUP8 DUP1 EXTCODESIZE ISZERO DUP1 ISZERO PUSH2 0xA97 JUMPI PUSH1 0x0 DUP1 REVERT JUMPDEST POP GAS CALL ISZERO DUP1 ISZERO PUSH2 0xAAB JUMPI RETURNDATASIZE PUSH1 0x0 DUP1 RETURNDATACOPY RETURNDATASIZE PUSH1 0x0 REVERT JUMPDEST POP POP POP POP PUSH1 0x40 MLOAD RETURNDATASIZE PUSH1 0x1F NOT PUSH1 0x1F DUP3 ADD AND DUP3 ADD DUP1 PUSH1 0x40 MSTORE POP DUP2 ADD SWAP1 PUSH2 0xACF SWAP2 SWAP1 PUSH2 0x1793 JUMP JUMPDEST POP PUSH1 0x0 PUSH1 0x7 PUSH1 0x0 CALLER PUSH20 0xFFFFFFFFFFFFFFFFFFFFFFFFFFFFFFFFFFFFFFFF AND PUSH20 0xFFFFFFFFFFFFFFFFFFFFFFFFFFFFFFFFFFFFFFFF AND DUP2 MSTORE PUSH1 0x20 ADD SWAP1 DUP2 MSTORE PUSH1 0x20 ADD PUSH1 0x0 KECCAK256 PUSH1 0x0 ADD PUSH1 0x0 DUP6 DUP2 MSTORE PUSH1 0x20 ADD SWAP1 DUP2 MSTORE PUSH1 0x20 ADD PUSH1 0x0 KECCAK256 PUSH1 0x0 ADD DUP2 SWAP1 SSTORE POP DUP1 PUSH1 0x7 PUSH1 0x0 CALLER PUSH20 0xFFFFFFFFFFFFFFFFFFFFFFFFFFFFFFFFFFFFFFFF AND PUSH20 0xFFFFFFFFFFFFFFFFFFFFFFFFFFFFFFFFFFFFFFFF AND DUP2 MSTORE PUSH1 0x20 ADD SWAP1 DUP2 MSTORE PUSH1 0x20 ADD PUSH1 0x0 KECCAK256 PUSH1 0x5 ADD PUSH1 0x0 DUP3 DUP3 SLOAD PUSH2 0xB7E SWAP2 SWAP1 PUSH2 0x1DDB JUMP JUMPDEST SWAP3 POP POP DUP2 SWAP1 SSTORE POP PUSH1 0x1 SWAP2 POP POP SWAP2 SWAP1 POP JUMP JUMPDEST PUSH1 0x0 DUP1 SLOAD SWAP1 PUSH2 0x100 EXP SWAP1 DIV PUSH20 0xFFFFFFFFFFFFFFFFFFFFFFFFFFFFFFFFFFFFFFFF AND DUP2 JUMP JUMPDEST PUSH1 0x0 PUSH1 0x7 PUSH1 0x0 CALLER PUSH20 0xFFFFFFFFFFFFFFFFFFFFFFFFFFFFFFFFFFFFFFFF AND PUSH20 0xFFFFFFFFFFFFFFFFFFFFFFFFFFFFFFFFFFFFFFFF AND DUP2 MSTORE PUSH1 0x20 ADD SWAP1 DUP2 MSTORE PUSH1 0x20 ADD PUSH1 0x0 KECCAK256 PUSH1 0x5 ADD SLOAD SWAP1 POP SWAP1 JUMP JUMPDEST PUSH1 0x0 PUSH2 0x2710 DUP5 GT PUSH2 0xC43 JUMPI PUSH1 0x40 MLOAD PUSH32 0x8C379A000000000000000000000000000000000000000000000000000000000 DUP2 MSTORE PUSH1 0x4 ADD PUSH2 0xC3A SWAP1 PUSH2 0x1BFC JUMP JUMPDEST PUSH1 0x40 MLOAD DUP1 SWAP2 SUB SWAP1 REVERT JUMPDEST PUSH1 0x0 ISZERO ISZERO PUSH1 0x7 PUSH1 0x0 CALLER PUSH20 0xFFFFFFFFFFFFFFFFFFFFFFFFFFFFFFFFFFFFFFFF AND PUSH20 0xFFFFFFFFFFFFFFFFFFFFFFFFFFFFFFFFFFFFFFFF AND DUP2 MSTORE PUSH1 0x20 ADD SWAP1 DUP2 MSTORE PUSH1 0x20 ADD PUSH1 0x0 KECCAK256 PUSH1 0x6 ADD PUSH1 0x0 SWAP1 SLOAD SWAP1 PUSH2 0x100 EXP SWAP1 DIV PUSH1 0xFF AND ISZERO ISZERO EQ ISZERO PUSH2 0xCB8 JUMPI PUSH1 0x3 PUSH1 0x0 DUP2 SLOAD DUP1 SWAP3 SWAP2 SWAP1 PUSH2 0xCB2 SWAP1 PUSH2 0x1E9F JUMP JUMPDEST SWAP2 SWAP1 POP SSTORE POP JUMPDEST PUSH1 0x0 PUSH1 0x7 PUSH1 0x0 CALLER PUSH20 0xFFFFFFFFFFFFFFFFFFFFFFFFFFFFFFFFFFFFFFFF AND PUSH20 0xFFFFFFFFFFFFFFFFFFFFFFFFFFFFFFFFFFFFFFFF AND DUP2 MSTORE PUSH1 0x20 ADD SWAP1 DUP2 MSTORE PUSH1 0x20 ADD PUSH1 0x0 KECCAK256 PUSH1 0x4 ADD SLOAD SWAP1 POP DUP5 PUSH1 0x7 PUSH1 0x0 CALLER PUSH20 0xFFFFFFFFFFFFFFFFFFFFFFFFFFFFFFFFFFFFFFFF AND PUSH20 0xFFFFFFFFFFFFFFFFFFFFFFFFFFFFFFFFFFFFFFFF AND DUP2 MSTORE PUSH1 0x20 ADD SWAP1 DUP2 MSTORE PUSH1 0x20 ADD PUSH1 0x0 KECCAK256 PUSH1 0x0 ADD PUSH1 0x0 DUP4 DUP2 MSTORE PUSH1 0x20 ADD SWAP1 DUP2 MSTORE PUSH1 0x20 ADD PUSH1 0x0 KECCAK256 PUSH1 0x0 ADD DUP2 SWAP1 SSTORE POP TIMESTAMP PUSH1 0x7 PUSH1 0x0 CALLER PUSH20 0xFFFFFFFFFFFFFFFFFFFFFFFFFFFFFFFFFFFFFFFF AND PUSH20 0xFFFFFFFFFFFFFFFFFFFFFFFFFFFFFFFFFFFFFFFF AND DUP2 MSTORE PUSH1 0x20 ADD SWAP1 DUP2 MSTORE PUSH1 0x20 ADD PUSH1 0x0 KECCAK256 PUSH1 0x0 ADD PUSH1 0x0 DUP4 DUP2 MSTORE PUSH1 0x20 ADD SWAP1 DUP2 MSTORE PUSH1 0x20 ADD PUSH1 0x0 KECCAK256 PUSH1 0x2 ADD DUP2 SWAP1 SSTORE POP PUSH3 0x15180 DUP5 PUSH2 0xDC4 SWAP2 SWAP1 PUSH2 0x1D81 JUMP JUMPDEST TIMESTAMP PUSH2 0xDCF SWAP2 SWAP1 PUSH2 0x1CFA JUMP JUMPDEST PUSH1 0x7 PUSH1 0x0 CALLER PUSH20 0xFFFFFFFFFFFFFFFFFFFFFFFFFFFFFFFFFFFFFFFF AND PUSH20 0xFFFFFFFFFFFFFFFFFFFFFFFFFFFFFFFFFFFFFFFF AND DUP2 MSTORE PUSH1 0x20 ADD SWAP1 DUP2 MSTORE PUSH1 0x20 ADD PUSH1 0x0 KECCAK256 PUSH1 0x0 ADD PUSH1 0x0 DUP4 DUP2 MSTORE PUSH1 0x20 ADD SWAP1 DUP2 MSTORE PUSH1 0x20 ADD PUSH1 0x0 KECCAK256 PUSH1 0x1 ADD DUP2 SWAP1 SSTORE POP DUP1 PUSH1 0x7 PUSH1 0x0 CALLER PUSH20 0xFFFFFFFFFFFFFFFFFFFFFFFFFFFFFFFFFFFFFFFF AND PUSH20 0xFFFFFFFFFFFFFFFFFFFFFFFFFFFFFFFFFFFFFFFF AND DUP2 MSTORE PUSH1 0x20 ADD SWAP1 DUP2 MSTORE PUSH1 0x20 ADD PUSH1 0x0 KECCAK256 PUSH1 0x0 ADD PUSH1 0x0 DUP4 DUP2 MSTORE PUSH1 0x20 ADD SWAP1 DUP2 MSTORE PUSH1 0x20 ADD PUSH1 0x0 KECCAK256 PUSH1 0x3 ADD DUP2 SWAP1 SSTORE POP DUP5 PUSH1 0x7 PUSH1 0x0 CALLER PUSH20 0xFFFFFFFFFFFFFFFFFFFFFFFFFFFFFFFFFFFFFFFF AND PUSH20 0xFFFFFFFFFFFFFFFFFFFFFFFFFFFFFFFFFFFFFFFF AND DUP2 MSTORE PUSH1 0x20 ADD SWAP1 DUP2 MSTORE PUSH1 0x20 ADD PUSH1 0x0 KECCAK256 PUSH1 0x5 ADD PUSH1 0x0 DUP3 DUP3 SLOAD PUSH2 0xED6 SWAP2 SWAP1 PUSH2 0x1CFA JUMP JUMPDEST SWAP3 POP POP DUP2 SWAP1 SSTORE POP PUSH1 0x1 PUSH1 0x7 PUSH1 0x0 CALLER PUSH20 0xFFFFFFFFFFFFFFFFFFFFFFFFFFFFFFFFFFFFFFFF AND PUSH20 0xFFFFFFFFFFFFFFFFFFFFFFFFFFFFFFFFFFFFFFFF AND DUP2 MSTORE PUSH1 0x20 ADD SWAP1 DUP2 MSTORE PUSH1 0x20 ADD PUSH1 0x0 KECCAK256 PUSH1 0x6 ADD PUSH1 0x0 PUSH2 0x100 EXP DUP2 SLOAD DUP2 PUSH1 0xFF MUL NOT AND SWAP1 DUP4 ISZERO ISZERO MUL OR SWAP1 SSTORE POP PUSH1 0x7 PUSH1 0x0 CALLER PUSH20 0xFFFFFFFFFFFFFFFFFFFFFFFFFFFFFFFFFFFFFFFF AND PUSH20 0xFFFFFFFFFFFFFFFFFFFFFFFFFFFFFFFFFFFFFFFF AND DUP2 MSTORE PUSH1 0x20 ADD SWAP1 DUP2 MSTORE PUSH1 0x20 ADD PUSH1 0x0 KECCAK256 PUSH1 0x4 ADD PUSH1 0x0 DUP2 SLOAD DUP1 SWAP3 SWAP2 SWAP1 PUSH2 0xF8B SWAP1 PUSH2 0x1E9F JUMP JUMPDEST SWAP2 SWAP1 POP SSTORE POP PUSH1 0x2 PUSH1 0x0 SWAP1 SLOAD SWAP1 PUSH2 0x100 EXP SWAP1 DIV PUSH20 0xFFFFFFFFFFFFFFFFFFFFFFFFFFFFFFFFFFFFFFFF AND PUSH20 0xFFFFFFFFFFFFFFFFFFFFFFFFFFFFFFFFFFFFFFFF AND PUSH4 0x63B0545F CALLER ADDRESS DUP9 PUSH1 0x40 MLOAD DUP5 PUSH4 0xFFFFFFFF AND PUSH1 0xE0 SHL DUP2 MSTORE PUSH1 0x4 ADD PUSH2 0xFEF SWAP4 SWAP3 SWAP2 SWAP1 PUSH2 0x1AEA JUMP JUMPDEST PUSH1 0x20 PUSH1 0x40 MLOAD DUP1 DUP4 SUB DUP2 PUSH1 0x0 DUP8 DUP1 EXTCODESIZE ISZERO DUP1 ISZERO PUSH2 0x1009 JUMPI PUSH1 0x0 DUP1 REVERT JUMPDEST POP GAS CALL ISZERO DUP1 ISZERO PUSH2 0x101D JUMPI RETURNDATASIZE PUSH1 0x0 DUP1 RETURNDATACOPY RETURNDATASIZE PUSH1 0x0 REVERT JUMPDEST POP POP POP POP PUSH1 0x40 MLOAD RETURNDATASIZE PUSH1 0x1F NOT PUSH1 0x1F DUP3 ADD AND DUP3 ADD DUP1 PUSH1 0x40 MSTORE POP DUP2 ADD SWAP1 PUSH2 0x1041 SWAP2 SWAP1 PUSH2 0x1793 JUMP JUMPDEST POP PUSH1 0x0 PUSH20 0xFFFFFFFFFFFFFFFFFFFFFFFFFFFFFFFFFFFFFFFF AND DUP4 PUSH20 0xFFFFFFFFFFFFFFFFFFFFFFFFFFFFFFFFFFFFFFFF AND EQ ISZERO PUSH2 0x10FE JUMPI PUSH1 0x0 PUSH1 0x7 PUSH1 0x0 CALLER PUSH20 0xFFFFFFFFFFFFFFFFFFFFFFFFFFFFFFFFFFFFFFFF AND PUSH20 0xFFFFFFFFFFFFFFFFFFFFFFFFFFFFFFFFFFFFFFFF AND DUP2 MSTORE PUSH1 0x20 ADD SWAP1 DUP2 MSTORE PUSH1 0x20 ADD PUSH1 0x0 KECCAK256 PUSH1 0x2 ADD PUSH1 0x0 PUSH2 0x100 EXP DUP2 SLOAD DUP2 PUSH20 0xFFFFFFFFFFFFFFFFFFFFFFFFFFFFFFFFFFFFFFFF MUL NOT AND SWAP1 DUP4 PUSH20 0xFFFFFFFFFFFFFFFFFFFFFFFFFFFFFFFFFFFFFFFF AND MUL OR SWAP1 SSTORE POP PUSH2 0x122D JUMP JUMPDEST DUP3 PUSH1 0x7 PUSH1 0x0 CALLER PUSH20 0xFFFFFFFFFFFFFFFFFFFFFFFFFFFFFFFFFFFFFFFF AND PUSH20 0xFFFFFFFFFFFFFFFFFFFFFFFFFFFFFFFFFFFFFFFF AND DUP2 MSTORE PUSH1 0x20 ADD SWAP1 DUP2 MSTORE PUSH1 0x20 ADD PUSH1 0x0 KECCAK256 PUSH1 0x2 ADD PUSH1 0x0 PUSH2 0x100 EXP DUP2 SLOAD DUP2 PUSH20 0xFFFFFFFFFFFFFFFFFFFFFFFFFFFFFFFFFFFFFFFF MUL NOT AND SWAP1 DUP4 PUSH20 0xFFFFFFFFFFFFFFFFFFFFFFFFFFFFFFFFFFFFFFFF AND MUL OR SWAP1 SSTORE POP PUSH1 0x7 PUSH1 0x0 DUP5 PUSH20 0xFFFFFFFFFFFFFFFFFFFFFFFFFFFFFFFFFFFFFFFF AND PUSH20 0xFFFFFFFFFFFFFFFFFFFFFFFFFFFFFFFFFFFFFFFF AND DUP2 MSTORE PUSH1 0x20 ADD SWAP1 DUP2 MSTORE PUSH1 0x20 ADD PUSH1 0x0 KECCAK256 PUSH1 0x1 ADD CALLER SWAP1 DUP1 PUSH1 0x1 DUP2 SLOAD ADD DUP1 DUP3 SSTORE DUP1 SWAP2 POP POP PUSH1 0x1 SWAP1 SUB SWAP1 PUSH1 0x0 MSTORE PUSH1 0x20 PUSH1 0x0 KECCAK256 ADD PUSH1 0x0 SWAP1 SWAP2 SWAP1 SWAP2 SWAP1 SWAP2 PUSH2 0x100 EXP DUP2 SLOAD DUP2 PUSH20 0xFFFFFFFFFFFFFFFFFFFFFFFFFFFFFFFFFFFFFFFF MUL NOT AND SWAP1 DUP4 PUSH20 0xFFFFFFFFFFFFFFFFFFFFFFFFFFFFFFFFFFFFFFFF AND MUL OR SWAP1 SSTORE POP PUSH2 0x122C CALLER DUP7 PUSH2 0x13CA JUMP JUMPDEST JUMPDEST PUSH1 0x1 SWAP2 POP POP SWAP4 SWAP3 POP POP POP JUMP JUMPDEST PUSH1 0x0 DUP1 PUSH2 0x1244 PUSH2 0x6E1 JUMP JUMPDEST SWAP1 POP PUSH1 0x0 DUP2 GT PUSH2 0x1289 JUMPI PUSH1 0x40 MLOAD PUSH32 0x8C379A000000000000000000000000000000000000000000000000000000000 DUP2 MSTORE PUSH1 0x4 ADD PUSH2 0x1280 SWAP1 PUSH2 0x1C3C JUMP JUMPDEST PUSH1 0x40 MLOAD DUP1 SWAP2 SUB SWAP1 REVERT JUMPDEST PUSH1 0x2 PUSH1 0x0 SWAP1 SLOAD SWAP1 PUSH2 0x100 EXP SWAP1 DIV PUSH20 0xFFFFFFFFFFFFFFFFFFFFFFFFFFFFFFFFFFFFFFFF AND PUSH20 0xFFFFFFFFFFFFFFFFFFFFFFFFFFFFFFFFFFFFFFFF AND PUSH4 0xA9059CBB CALLER DUP4 PUSH1 0x40 MLOAD DUP4 PUSH4 0xFFFFFFFF AND PUSH1 0xE0 SHL DUP2 MSTORE PUSH1 0x4 ADD PUSH2 0x12E6 SWAP3 SWAP2 SWAP1 PUSH2 0x1B21 JUMP JUMPDEST PUSH1 0x20 PUSH1 0x40 MLOAD DUP1 DUP4 SUB DUP2 PUSH1 0x0 DUP8 DUP1 EXTCODESIZE ISZERO DUP1 ISZERO PUSH2 0x1300 JUMPI PUSH1 0x0 DUP1 REVERT JUMPDEST POP GAS CALL ISZERO DUP1 ISZERO PUSH2 0x1314 JUMPI RETURNDATASIZE PUSH1 0x0 DUP1 RETURNDATACOPY RETURNDATASIZE PUSH1 0x0 REVERT JUMPDEST POP POP POP POP PUSH1 0x40 MLOAD RETURNDATASIZE PUSH1 0x1F NOT PUSH1 0x1F DUP3 ADD AND DUP3 ADD DUP1 PUSH1 0x40 MSTORE POP DUP2 ADD SWAP1 PUSH2 0x1338 SWAP2 SWAP1 PUSH2 0x1793 JUMP JUMPDEST POP PUSH1 0x1 SWAP2 POP POP SWAP1 JUMP JUMPDEST DUP2 PUSH1 0x6 DUP2 SWAP1 SSTORE POP DUP3 PUSH1 0x5 DUP2 SWAP1 SSTORE POP DUP1 PUSH1 0x4 DUP2 SWAP1 SSTORE POP POP POP POP JUMP JUMPDEST PUSH1 0x1 SLOAD DUP2 JUMP JUMPDEST PUSH1 0x7 PUSH1 0x20 MSTORE DUP1 PUSH1 0x0 MSTORE PUSH1 0x40 PUSH1 0x0 KECCAK256 PUSH1 0x0 SWAP2 POP SWAP1 POP DUP1 PUSH1 0x2 ADD PUSH1 0x0 SWAP1 SLOAD SWAP1 PUSH2 0x100 EXP SWAP1 DIV PUSH20 0xFFFFFFFFFFFFFFFFFFFFFFFFFFFFFFFFFFFFFFFF AND SWAP1 DUP1 PUSH1 0x3 ADD SLOAD SWAP1 DUP1 PUSH1 0x4 ADD SLOAD SWAP1 DUP1 PUSH1 0x5 ADD SLOAD SWAP1 DUP1 PUSH1 0x6 ADD PUSH1 0x0 SWAP1 SLOAD SWAP1 PUSH2 0x100 EXP SWAP1 DIV PUSH1 0xFF AND SWAP1 POP DUP6 JUMP JUMPDEST PUSH1 0x4 SLOAD DUP2 JUMP JUMPDEST PUSH1 0x0 DUP3 SWAP1 POP PUSH1 0x0 PUSH1 0x4 PUSH8 0xFFFFFFFFFFFFFFFF DUP2 GT ISZERO PUSH2 0x13EC JUMPI PUSH2 0x13EB PUSH2 0x1F75 JUMP JUMPDEST JUMPDEST PUSH1 0x40 MLOAD SWAP1 DUP1 DUP3 MSTORE DUP1 PUSH1 0x20 MUL PUSH1 0x20 ADD DUP3 ADD PUSH1 0x40 MSTORE DUP1 ISZERO PUSH2 0x141A JUMPI DUP2 PUSH1 0x20 ADD PUSH1 0x20 DUP3 MUL DUP1 CALLDATASIZE DUP4 CALLDATACOPY DUP1 DUP3 ADD SWAP2 POP POP SWAP1 POP JUMPDEST POP SWAP1 POP PUSH8 0x4563918244F40000 DUP2 PUSH1 0x0 DUP2 MLOAD DUP2 LT PUSH2 0x143A JUMPI PUSH2 0x1439 PUSH2 0x1F46 JUMP JUMPDEST JUMPDEST PUSH1 0x20 MUL PUSH1 0x20 ADD ADD DUP2 DUP2 MSTORE POP POP PUSH8 0x29A2241AF62C0000 DUP2 PUSH1 0x1 DUP2 MLOAD DUP2 LT PUSH2 0x1463 JUMPI PUSH2 0x1462 PUSH2 0x1F46 JUMP JUMPDEST JUMPDEST PUSH1 0x20 MUL PUSH1 0x20 ADD ADD DUP2 DUP2 MSTORE POP POP PUSH8 0x1BC16D674EC80000 DUP2 PUSH1 0x2 DUP2 MLOAD DUP2 LT PUSH2 0x148C JUMPI PUSH2 0x148B PUSH2 0x1F46 JUMP JUMPDEST JUMPDEST PUSH1 0x20 MUL PUSH1 0x20 ADD ADD DUP2 DUP2 MSTORE POP POP PUSH8 0xDE0B6B3A7640000 DUP2 PUSH1 0x3 DUP2 MLOAD DUP2 LT PUSH2 0x14B5 JUMPI PUSH2 0x14B4 PUSH2 0x1F46 JUMP JUMPDEST JUMPDEST PUSH1 0x20 MUL PUSH1 0x20 ADD ADD DUP2 DUP2 MSTORE POP POP PUSH8 0x6F05B59D3B20000 DUP2 PUSH1 0x4 DUP2 MLOAD DUP2 LT PUSH2 0x14DE JUMPI PUSH2 0x14DD PUSH2 0x1F46 JUMP JUMPDEST JUMPDEST PUSH1 0x20 MUL PUSH1 0x20 ADD ADD DUP2 DUP2 MSTORE POP POP PUSH1 0x0 DUP1 PUSH1 0x0 SWAP1 POP JUMPDEST PUSH1 0x14 DUP2 LT ISZERO PUSH2 0x16F7 JUMPI PUSH1 0x0 DUP2 EQ ISZERO PUSH2 0x150D JUMPI PUSH1 0x0 SWAP2 POP PUSH2 0x1555 JUMP JUMPDEST PUSH1 0x1 DUP2 EQ ISZERO PUSH2 0x151F JUMPI PUSH1 0x1 SWAP2 POP PUSH2 0x1554 JUMP JUMPDEST PUSH1 0x2 DUP2 EQ ISZERO PUSH2 0x1531 JUMPI PUSH1 0x2 SWAP2 POP PUSH2 0x1553 JUMP JUMPDEST PUSH1 0x2 DUP2 GT ISZERO PUSH2 0x1543 JUMPI PUSH1 0x3 SWAP2 POP PUSH2 0x1552 JUMP JUMPDEST PUSH1 0x7 DUP2 GT ISZERO PUSH2 0x1551 JUMPI PUSH1 0x4 SWAP2 POP JUMPDEST JUMPDEST JUMPDEST JUMPDEST JUMPDEST PUSH1 0x0 PUSH20 0xFFFFFFFFFFFFFFFFFFFFFFFFFFFFFFFFFFFFFFFF AND PUSH1 0x7 PUSH1 0x0 DUP7 PUSH20 0xFFFFFFFFFFFFFFFFFFFFFFFFFFFFFFFFFFFFFFFF AND PUSH20 0xFFFFFFFFFFFFFFFFFFFFFFFFFFFFFFFFFFFFFFFF AND DUP2 MSTORE PUSH1 0x20 ADD SWAP1 DUP2 MSTORE PUSH1 0x20 ADD PUSH1 0x0 KECCAK256 PUSH1 0x2 ADD PUSH1 0x0 SWAP1 SLOAD SWAP1 PUSH2 0x100 EXP SWAP1 DIV PUSH20 0xFFFFFFFFFFFFFFFFFFFFFFFFFFFFFFFFFFFFFFFF AND PUSH20 0xFFFFFFFFFFFFFFFFFFFFFFFFFFFFFFFFFFFFFFFF AND EQ PUSH2 0x16DF JUMPI PUSH1 0x7 PUSH1 0x0 DUP6 PUSH20 0xFFFFFFFFFFFFFFFFFFFFFFFFFFFFFFFFFFFFFFFF AND PUSH20 0xFFFFFFFFFFFFFFFFFFFFFFFFFFFFFFFFFFFFFFFF AND DUP2 MSTORE PUSH1 0x20 ADD SWAP1 DUP2 MSTORE PUSH1 0x20 ADD PUSH1 0x0 KECCAK256 PUSH1 0x2 ADD PUSH1 0x0 SWAP1 SLOAD SWAP1 PUSH2 0x100 EXP SWAP1 DIV PUSH20 0xFFFFFFFFFFFFFFFFFFFFFFFFFFFFFFFFFFFFFFFF AND SWAP4 POP PUSH1 0x64 DUP6 DUP5 DUP5 DUP2 MLOAD DUP2 LT PUSH2 0x1666 JUMPI PUSH2 0x1665 PUSH2 0x1F46 JUMP JUMPDEST JUMPDEST PUSH1 0x20 MUL PUSH1 0x20 ADD ADD MLOAD PUSH2 0x1678 SWAP2 SWAP1 PUSH2 0x1D81 JUMP JUMPDEST PUSH2 0x1682 SWAP2 SWAP1 PUSH2 0x1D50 JUMP JUMPDEST PUSH1 0x7 PUSH1 0x0 DUP7 PUSH20 0xFFFFFFFFFFFFFFFFFFFFFFFFFFFFFFFFFFFFFFFF AND PUSH20 0xFFFFFFFFFFFFFFFFFFFFFFFFFFFFFFFFFFFFFFFF AND DUP2 MSTORE PUSH1 0x20 ADD SWAP1 DUP2 MSTORE PUSH1 0x20 ADD PUSH1 0x0 KECCAK256 PUSH1 0x3 ADD PUSH1 0x0 DUP3 DUP3 SLOAD PUSH2 0x16D3 SWAP2 SWAP1 PUSH2 0x1CFA JUMP JUMPDEST SWAP3 POP POP DUP2 SWAP1 SSTORE POP PUSH2 0x16E4 JUMP JUMPDEST PUSH2 0x16F7 JUMP JUMPDEST DUP1 DUP1 PUSH2 0x16EF SWAP1 PUSH2 0x1E9F JUMP JUMPDEST SWAP2 POP POP PUSH2 0x14F2 JUMP JUMPDEST POP POP POP POP POP POP JUMP JUMPDEST PUSH1 0x40 MLOAD DUP1 PUSH1 0x80 ADD PUSH1 0x40 MSTORE DUP1 PUSH1 0x0 DUP2 MSTORE PUSH1 0x20 ADD PUSH1 0x0 DUP2 MSTORE PUSH1 0x20 ADD PUSH1 0x0 DUP2 MSTORE PUSH1 0x20 ADD PUSH1 0x0 DUP2 MSTORE POP SWAP1 JUMP JUMPDEST PUSH1 0x0 DUP2 CALLDATALOAD SWAP1 POP PUSH2 0x1736 DUP2 PUSH2 0x2070 JUMP JUMPDEST SWAP3 SWAP2 POP POP JUMP JUMPDEST PUSH1 0x0 DUP2 MLOAD SWAP1 POP PUSH2 0x174B DUP2 PUSH2 0x2087 JUMP JUMPDEST SWAP3 SWAP2 POP POP JUMP JUMPDEST PUSH1 0x0 DUP2 CALLDATALOAD SWAP1 POP PUSH2 0x1760 DUP2 PUSH2 0x209E JUMP JUMPDEST SWAP3 SWAP2 POP POP JUMP JUMPDEST PUSH1 0x0 PUSH1 0x20 DUP3 DUP5 SUB SLT ISZERO PUSH2 0x177C JUMPI PUSH2 0x177B PUSH2 0x1FA4 JUMP JUMPDEST JUMPDEST PUSH1 0x0 PUSH2 0x178A DUP5 DUP3 DUP6 ADD PUSH2 0x1727 JUMP JUMPDEST SWAP2 POP POP SWAP3 SWAP2 POP POP JUMP JUMPDEST PUSH1 0x0 PUSH1 0x20 DUP3 DUP5 SUB SLT ISZERO PUSH2 0x17A9 JUMPI PUSH2 0x17A8 PUSH2 0x1FA4 JUMP JUMPDEST JUMPDEST PUSH1 0x0 PUSH2 0x17B7 DUP5 DUP3 DUP6 ADD PUSH2 0x173C JUMP JUMPDEST SWAP2 POP POP SWAP3 SWAP2 POP POP JUMP JUMPDEST PUSH1 0x0 PUSH1 0x20 DUP3 DUP5 SUB SLT ISZERO PUSH2 0x17D6 JUMPI PUSH2 0x17D5 PUSH2 0x1FA4 JUMP JUMPDEST JUMPDEST PUSH1 0x0 PUSH2 0x17E4 DUP5 DUP3 DUP6 ADD PUSH2 0x1751 JUMP JUMPDEST SWAP2 POP POP SWAP3 SWAP2 POP POP JUMP JUMPDEST PUSH1 0x0 DUP1 PUSH1 0x0 PUSH1 0x60 DUP5 DUP7 SUB SLT ISZERO PUSH2 0x1806 JUMPI PUSH2 0x1805 PUSH2 0x1FA4 JUMP JUMPDEST JUMPDEST PUSH1 0x0 PUSH2 0x1814 DUP7 DUP3 DUP8 ADD PUSH2 0x1751 JUMP JUMPDEST SWAP4 POP POP PUSH1 0x20 PUSH2 0x1825 DUP7 DUP3 DUP8 ADD PUSH2 0x1751 JUMP JUMPDEST SWAP3 POP POP PUSH1 0x40 PUSH2 0x1836 DUP7 DUP3 DUP8 ADD PUSH2 0x1727 JUMP JUMPDEST SWAP2 POP POP SWAP3 POP SWAP3 POP SWAP3 JUMP JUMPDEST PUSH1 0x0 DUP1 PUSH1 0x0 PUSH1 0x60 DUP5 DUP7 SUB SLT ISZERO PUSH2 0x1859 JUMPI PUSH2 0x1858 PUSH2 0x1FA4 JUMP JUMPDEST JUMPDEST PUSH1 0x0 PUSH2 0x1867 DUP7 DUP3 DUP8 ADD PUSH2 0x1751 JUMP JUMPDEST SWAP4 POP POP PUSH1 0x20 PUSH2 0x1878 DUP7 DUP3 DUP8 ADD PUSH2 0x1751 JUMP JUMPDEST SWAP3 POP POP PUSH1 0x40 PUSH2 0x1889 DUP7 DUP3 DUP8 ADD PUSH2 0x1751 JUMP JUMPDEST SWAP2 POP POP SWAP3 POP SWAP3 POP SWAP3 JUMP JUMPDEST PUSH1 0x0 PUSH2 0x189F DUP4 DUP4 PUSH2 0x18E1 JUMP JUMPDEST PUSH1 0x20 DUP4 ADD SWAP1 POP SWAP3 SWAP2 POP POP JUMP JUMPDEST PUSH1 0x0 PUSH2 0x18B7 DUP4 DUP4 PUSH2 0x1A33 JUMP JUMPDEST PUSH1 0x80 DUP4 ADD SWAP1 POP SWAP3 SWAP2 POP POP JUMP JUMPDEST PUSH2 0x18CC DUP2 PUSH2 0x1E69 JUMP JUMPDEST DUP3 MSTORE POP POP JUMP JUMPDEST PUSH2 0x18DB DUP2 PUSH2 0x1E21 JUMP JUMPDEST DUP3 MSTORE POP POP JUMP JUMPDEST PUSH2 0x18EA DUP2 PUSH2 0x1E0F JUMP JUMPDEST DUP3 MSTORE POP POP JUMP JUMPDEST PUSH2 0x18F9 DUP2 PUSH2 0x1E0F JUMP JUMPDEST DUP3 MSTORE POP POP JUMP JUMPDEST PUSH1 0x0 PUSH2 0x190A DUP3 PUSH2 0x1C97 JUMP JUMPDEST PUSH2 0x1914 DUP2 DUP6 PUSH2 0x1CC7 JUMP JUMPDEST SWAP4 POP PUSH2 0x191F DUP4 PUSH2 0x1C77 JUMP JUMPDEST DUP1 PUSH1 0x0 JUMPDEST DUP4 DUP2 LT ISZERO PUSH2 0x1950 JUMPI DUP2 MLOAD PUSH2 0x1937 DUP9 DUP3 PUSH2 0x1893 JUMP JUMPDEST SWAP8 POP PUSH2 0x1942 DUP4 PUSH2 0x1CAD JUMP JUMPDEST SWAP3 POP POP PUSH1 0x1 DUP2 ADD SWAP1 POP PUSH2 0x1923 JUMP JUMPDEST POP DUP6 SWAP4 POP POP POP POP SWAP3 SWAP2 POP POP JUMP JUMPDEST PUSH1 0x0 PUSH2 0x1968 DUP3 PUSH2 0x1CA2 JUMP JUMPDEST PUSH2 0x1972 DUP2 DUP6 PUSH2 0x1CD8 JUMP JUMPDEST SWAP4 POP PUSH2 0x197D DUP4 PUSH2 0x1C87 JUMP JUMPDEST DUP1 PUSH1 0x0 JUMPDEST DUP4 DUP2 LT ISZERO PUSH2 0x19AE JUMPI DUP2 MLOAD PUSH2 0x1995 DUP9 DUP3 PUSH2 0x18AB JUMP JUMPDEST SWAP8 POP PUSH2 0x19A0 DUP4 PUSH2 0x1CBA JUMP JUMPDEST SWAP3 POP POP PUSH1 0x1 DUP2 ADD SWAP1 POP PUSH2 0x1981 JUMP JUMPDEST POP DUP6 SWAP4 POP POP POP POP SWAP3 SWAP2 POP POP JUMP JUMPDEST PUSH2 0x19C4 DUP2 PUSH2 0x1E33 JUMP JUMPDEST DUP3 MSTORE POP POP JUMP JUMPDEST PUSH1 0x0 PUSH2 0x19D7 PUSH1 0x1B DUP4 PUSH2 0x1CE9 JUMP JUMPDEST SWAP2 POP PUSH2 0x19E2 DUP3 PUSH2 0x1FA9 JUMP JUMPDEST PUSH1 0x20 DUP3 ADD SWAP1 POP SWAP2 SWAP1 POP JUMP JUMPDEST PUSH1 0x0 PUSH2 0x19FA PUSH1 0x25 DUP4 PUSH2 0x1CE9 JUMP JUMPDEST SWAP2 POP PUSH2 0x1A05 DUP3 PUSH2 0x1FD2 JUMP JUMPDEST PUSH1 0x40 DUP3 ADD SWAP1 POP SWAP2 SWAP1 POP JUMP JUMPDEST PUSH1 0x0 PUSH2 0x1A1D PUSH1 0x22 DUP4 PUSH2 0x1CE9 JUMP JUMPDEST SWAP2 POP PUSH2 0x1A28 DUP3 PUSH2 0x2021 JUMP JUMPDEST PUSH1 0x40 DUP3 ADD SWAP1 POP SWAP2 SWAP1 POP JUMP JUMPDEST PUSH1 0x80 DUP3 ADD PUSH1 0x0 DUP3 ADD MLOAD PUSH2 0x1A49 PUSH1 0x0 DUP6 ADD DUP3 PUSH2 0x1A88 JUMP JUMPDEST POP PUSH1 0x20 DUP3 ADD MLOAD PUSH2 0x1A5C PUSH1 0x20 DUP6 ADD DUP3 PUSH2 0x1A88 JUMP JUMPDEST POP PUSH1 0x40 DUP3 ADD MLOAD PUSH2 0x1A6F PUSH1 0x40 DUP6 ADD DUP3 PUSH2 0x1A88 JUMP JUMPDEST POP PUSH1 0x60 DUP3 ADD MLOAD PUSH2 0x1A82 PUSH1 0x60 DUP6 ADD DUP3 PUSH2 0x1A88 JUMP JUMPDEST POP POP POP POP JUMP JUMPDEST PUSH2 0x1A91 DUP2 PUSH2 0x1E5F JUMP JUMPDEST DUP3 MSTORE POP POP JUMP JUMPDEST PUSH2 0x1AA0 DUP2 PUSH2 0x1E5F JUMP JUMPDEST DUP3 MSTORE POP POP JUMP JUMPDEST PUSH1 0x0 PUSH1 0x20 DUP3 ADD SWAP1 POP PUSH2 0x1ABB PUSH1 0x0 DUP4 ADD DUP5 PUSH2 0x18D2 JUMP JUMPDEST SWAP3 SWAP2 POP POP JUMP JUMPDEST PUSH1 0x0 PUSH1 0x40 DUP3 ADD SWAP1 POP PUSH2 0x1AD6 PUSH1 0x0 DUP4 ADD DUP6 PUSH2 0x18C3 JUMP JUMPDEST PUSH2 0x1AE3 PUSH1 0x20 DUP4 ADD DUP5 PUSH2 0x1A97 JUMP JUMPDEST SWAP4 SWAP3 POP POP POP JUMP JUMPDEST PUSH1 0x0 PUSH1 0x60 DUP3 ADD SWAP1 POP PUSH2 0x1AFF PUSH1 0x0 DUP4 ADD DUP7 PUSH2 0x18F0 JUMP JUMPDEST PUSH2 0x1B0C PUSH1 0x20 DUP4 ADD DUP6 PUSH2 0x18F0 JUMP JUMPDEST PUSH2 0x1B19 PUSH1 0x40 DUP4 ADD DUP5 PUSH2 0x1A97 JUMP JUMPDEST SWAP5 SWAP4 POP POP POP POP JUMP JUMPDEST PUSH1 0x0 PUSH1 0x40 DUP3 ADD SWAP1 POP PUSH2 0x1B36 PUSH1 0x0 DUP4 ADD DUP6 PUSH2 0x18F0 JUMP JUMPDEST PUSH2 0x1B43 PUSH1 0x20 DUP4 ADD DUP5 PUSH2 0x1A97 JUMP JUMPDEST SWAP4 SWAP3 POP POP POP JUMP JUMPDEST PUSH1 0x0 PUSH1 0xA0 DUP3 ADD SWAP1 POP PUSH2 0x1B5F PUSH1 0x0 DUP4 ADD DUP9 PUSH2 0x18F0 JUMP JUMPDEST PUSH2 0x1B6C PUSH1 0x20 DUP4 ADD DUP8 PUSH2 0x1A97 JUMP JUMPDEST PUSH2 0x1B79 PUSH1 0x40 DUP4 ADD DUP7 PUSH2 0x1A97 JUMP JUMPDEST PUSH2 0x1B86 PUSH1 0x60 DUP4 ADD DUP6 PUSH2 0x1A97 JUMP JUMPDEST PUSH2 0x1B93 PUSH1 0x80 DUP4 ADD DUP5 PUSH2 0x19BB JUMP JUMPDEST SWAP7 SWAP6 POP POP POP POP POP POP JUMP JUMPDEST PUSH1 0x0 PUSH1 0x20 DUP3 ADD SWAP1 POP DUP2 DUP2 SUB PUSH1 0x0 DUP4 ADD MSTORE PUSH2 0x1BB7 DUP2 DUP5 PUSH2 0x18FF JUMP JUMPDEST SWAP1 POP SWAP3 SWAP2 POP POP JUMP JUMPDEST PUSH1 0x0 PUSH1 0x20 DUP3 ADD SWAP1 POP DUP2 DUP2 SUB PUSH1 0x0 DUP4 ADD MSTORE PUSH2 0x1BD9 DUP2 DUP5 PUSH2 0x195D JUMP JUMPDEST SWAP1 POP SWAP3 SWAP2 POP POP JUMP JUMPDEST PUSH1 0x0 PUSH1 0x20 DUP3 ADD SWAP1 POP PUSH2 0x1BF6 PUSH1 0x0 DUP4 ADD DUP5 PUSH2 0x19BB JUMP JUMPDEST SWAP3 SWAP2 POP POP JUMP JUMPDEST PUSH1 0x0 PUSH1 0x20 DUP3 ADD SWAP1 POP DUP2 DUP2 SUB PUSH1 0x0 DUP4 ADD MSTORE PUSH2 0x1C15 DUP2 PUSH2 0x19CA JUMP JUMPDEST SWAP1 POP SWAP2 SWAP1 POP JUMP JUMPDEST PUSH1 0x0 PUSH1 0x20 DUP3 ADD SWAP1 POP DUP2 DUP2 SUB PUSH1 0x0 DUP4 ADD MSTORE PUSH2 0x1C35 DUP2 PUSH2 0x19ED JUMP JUMPDEST SWAP1 POP SWAP2 SWAP1 POP JUMP JUMPDEST PUSH1 0x0 PUSH1 0x20 DUP3 ADD SWAP1 POP DUP2 DUP2 SUB PUSH1 0x0 DUP4 ADD MSTORE PUSH2 0x1C55 DUP2 PUSH2 0x1A10 JUMP JUMPDEST SWAP1 POP SWAP2 SWAP1 POP JUMP JUMPDEST PUSH1 0x0 PUSH1 0x20 DUP3 ADD SWAP1 POP PUSH2 0x1C71 PUSH1 0x0 DUP4 ADD DUP5 PUSH2 0x1A97 JUMP JUMPDEST SWAP3 SWAP2 POP POP JUMP JUMPDEST PUSH1 0x0 DUP2 SWAP1 POP PUSH1 0x20 DUP3 ADD SWAP1 POP SWAP2 SWAP1 POP JUMP JUMPDEST PUSH1 0x0 DUP2 SWAP1 POP PUSH1 0x20 DUP3 ADD SWAP1 POP SWAP2 SWAP1 POP JUMP JUMPDEST PUSH1 0x0 DUP2 MLOAD SWAP1 POP SWAP2 SWAP1 POP JUMP JUMPDEST PUSH1 0x0 DUP2 MLOAD SWAP1 POP SWAP2 SWAP1 POP JUMP JUMPDEST PUSH1 0x0 PUSH1 0x20 DUP3 ADD SWAP1 POP SWAP2 SWAP1 POP JUMP JUMPDEST PUSH1 0x0 PUSH1 0x20 DUP3 ADD SWAP1 POP SWAP2 SWAP1 POP JUMP JUMPDEST PUSH1 0x0 DUP3 DUP3 MSTORE PUSH1 0x20 DUP3 ADD SWAP1 POP SWAP3 SWAP2 POP POP JUMP JUMPDEST PUSH1 0x0 DUP3 DUP3 MSTORE PUSH1 0x20 DUP3 ADD SWAP1 POP SWAP3 SWAP2 POP POP JUMP JUMPDEST PUSH1 0x0 DUP3 DUP3 MSTORE PUSH1 0x20 DUP3 ADD SWAP1 POP SWAP3 SWAP2 POP POP JUMP JUMPDEST PUSH1 0x0 PUSH2 0x1D05 DUP3 PUSH2 0x1E5F JUMP JUMPDEST SWAP2 POP PUSH2 0x1D10 DUP4 PUSH2 0x1E5F JUMP JUMPDEST SWAP3 POP DUP3 PUSH32 0xFFFFFFFFFFFFFFFFFFFFFFFFFFFFFFFFFFFFFFFFFFFFFFFFFFFFFFFFFFFFFFFF SUB DUP3 GT ISZERO PUSH2 0x1D45 JUMPI PUSH2 0x1D44 PUSH2 0x1EE8 JUMP JUMPDEST JUMPDEST DUP3 DUP3 ADD SWAP1 POP SWAP3 SWAP2 POP POP JUMP JUMPDEST PUSH1 0x0 PUSH2 0x1D5B DUP3 PUSH2 0x1E5F JUMP JUMPDEST SWAP2 POP PUSH2 0x1D66 DUP4 PUSH2 0x1E5F JUMP JUMPDEST SWAP3 POP DUP3 PUSH2 0x1D76 JUMPI PUSH2 0x1D75 PUSH2 0x1F17 JUMP JUMPDEST JUMPDEST DUP3 DUP3 DIV SWAP1 POP SWAP3 SWAP2 POP POP JUMP JUMPDEST PUSH1 0x0 PUSH2 0x1D8C DUP3 PUSH2 0x1E5F JUMP JUMPDEST SWAP2 POP PUSH2 0x1D97 DUP4 PUSH2 0x1E5F JUMP JUMPDEST SWAP3 POP DUP2 PUSH32 0xFFFFFFFFFFFFFFFFFFFFFFFFFFFFFFFFFFFFFFFFFFFFFFFFFFFFFFFFFFFFFFFF DIV DUP4 GT DUP3 ISZERO ISZERO AND ISZERO PUSH2 0x1DD0 JUMPI PUSH2 0x1DCF PUSH2 0x1EE8 JUMP JUMPDEST JUMPDEST DUP3 DUP3 MUL SWAP1 POP SWAP3 SWAP2 POP POP JUMP JUMPDEST PUSH1 0x0 PUSH2 0x1DE6 DUP3 PUSH2 0x1E5F JUMP JUMPDEST SWAP2 POP PUSH2 0x1DF1 DUP4 PUSH2 0x1E5F JUMP JUMPDEST SWAP3 POP DUP3 DUP3 LT ISZERO PUSH2 0x1E04 JUMPI PUSH2 0x1E03 PUSH2 0x1EE8 JUMP JUMPDEST JUMPDEST DUP3 DUP3 SUB SWAP1 POP SWAP3 SWAP2 POP POP JUMP JUMPDEST PUSH1 0x0 PUSH2 0x1E1A DUP3 PUSH2 0x1E3F JUMP JUMPDEST SWAP1 POP SWAP2 SWAP1 POP JUMP JUMPDEST PUSH1 0x0 PUSH2 0x1E2C DUP3 PUSH2 0x1E3F JUMP JUMPDEST SWAP1 POP SWAP2 SWAP1 POP JUMP JUMPDEST PUSH1 0x0 DUP2 ISZERO ISZERO SWAP1 POP SWAP2 SWAP1 POP JUMP JUMPDEST PUSH1 0x0 PUSH20 0xFFFFFFFFFFFFFFFFFFFFFFFFFFFFFFFFFFFFFFFF DUP3 AND SWAP1 POP SWAP2 SWAP1 POP JUMP JUMPDEST PUSH1 0x0 DUP2 SWAP1 POP SWAP2 SWAP1 POP JUMP JUMPDEST PUSH1 0x0 PUSH2 0x1E74 DUP3 PUSH2 0x1E7B JUMP JUMPDEST SWAP1 POP SWAP2 SWAP1 POP JUMP JUMPDEST PUSH1 0x0 PUSH2 0x1E86 DUP3 PUSH2 0x1E8D JUMP JUMPDEST SWAP1 POP SWAP2 SWAP1 POP JUMP JUMPDEST PUSH1 0x0 PUSH2 0x1E98 DUP3 PUSH2 0x1E3F JUMP JUMPDEST SWAP1 POP SWAP2 SWAP1 POP JUMP JUMPDEST PUSH1 0x0 PUSH2 0x1EAA DUP3 PUSH2 0x1E5F JUMP JUMPDEST SWAP2 POP PUSH32 0xFFFFFFFFFFFFFFFFFFFFFFFFFFFFFFFFFFFFFFFFFFFFFFFFFFFFFFFFFFFFFFFF DUP3 EQ ISZERO PUSH2 0x1EDD JUMPI PUSH2 0x1EDC PUSH2 0x1EE8 JUMP JUMPDEST JUMPDEST PUSH1 0x1 DUP3 ADD SWAP1 POP SWAP2 SWAP1 POP JUMP JUMPDEST PUSH32 0x4E487B7100000000000000000000000000000000000000000000000000000000 PUSH1 0x0 MSTORE PUSH1 0x11 PUSH1 0x4 MSTORE PUSH1 0x24 PUSH1 0x0 REVERT JUMPDEST PUSH32 0x4E487B7100000000000000000000000000000000000000000000000000000000 PUSH1 0x0 MSTORE PUSH1 0x12 PUSH1 0x4 MSTORE PUSH1 0x24 PUSH1 0x0 REVERT JUMPDEST PUSH32 0x4E487B7100000000000000000000000000000000000000000000000000000000 PUSH1 0x0 MSTORE PUSH1 0x32 PUSH1 0x4 MSTORE PUSH1 0x24 PUSH1 0x0 REVERT JUMPDEST PUSH32 0x4E487B7100000000000000000000000000000000000000000000000000000000 PUSH1 0x0 MSTORE PUSH1 0x41 PUSH1 0x4 MSTORE PUSH1 0x24 PUSH1 0x0 REVERT JUMPDEST PUSH1 0x0 DUP1 REVERT JUMPDEST PUSH32 0x76616C7565206973206E6F742067726561746572207468616E20300000000000 PUSH1 0x0 DUP3 ADD MSTORE POP JUMP JUMPDEST PUSH32 0x796F7520646F6E74206861766520696E766573746D656E7420746F2077697468 PUSH1 0x0 DUP3 ADD MSTORE PUSH32 0x647261776E000000000000000000000000000000000000000000000000000000 PUSH1 0x20 DUP3 ADD MSTORE POP JUMP JUMPDEST PUSH32 0x796F7520646F6E742068617665207265776172647320746F2077697468647261 PUSH1 0x0 DUP3 ADD MSTORE PUSH32 0x776E000000000000000000000000000000000000000000000000000000000000 PUSH1 0x20 DUP3 ADD MSTORE POP JUMP JUMPDEST PUSH2 0x2079 DUP2 PUSH2 0x1E0F JUMP JUMPDEST DUP2 EQ PUSH2 0x2084 JUMPI PUSH1 0x0 DUP1 REVERT JUMPDEST POP JUMP JUMPDEST PUSH2 0x2090 DUP2 PUSH2 0x1E33 JUMP JUMPDEST DUP2 EQ PUSH2 0x209B JUMPI PUSH1 0x0 DUP1 REVERT JUMPDEST POP JUMP JUMPDEST PUSH2 0x20A7 DUP2 PUSH2 0x1E5F JUMP JUMPDEST DUP2 EQ PUSH2 0x20B2 JUMPI PUSH1 0x0 DUP1 REVERT JUMPDEST POP JUMP INVALID LOG2 PUSH5 0x6970667358 0x22 SLT KECCAK256 0xAD 0xED SHL DUP11 PUSH19 0x635B8656B2A2CCCDDC68F93448A73985BFF157 PUSH13 0x65A11235A2A9FF64736F6C6343 STOP ADDMOD SMOD STOP CALLER "
				},
				"gasEstimates": {
					"creation": {
						"codeDepositCost": "1685400",
						"executionCost": "138736",
						"totalCost": "1824136"
					},
					"external": {
						"DUSDReferralsList()": "infinite",
						"DUSDTotalReferrals()": "2608",
						"DUSDinvestor(address)": "infinite",
						"Stake(uint256,uint256,address)": "infinite",
						"getAllDUSDinvestments()": "infinite",
						"getReward()": "infinite",
						"getTotalInvestmentDUSD()": "2599",
						"owner()": "2556",
						"ownerfees()": "2495",
						"rewardToken()": "2539",
						"setReward(uint256)": "22610",
						"set_max_Stake_amount(uint256)": "22609",
						"set_min_Stake_amount(uint256)": "22543",
						"set_values(uint256,uint256,uint256)": "infinite",
						"totalDUSDInvestors()": "2475",
						"unStake(uint256)": "infinite",
						"withdrawReward()": "infinite"
					},
					"internal": {
						"sendRewardToDUSDReferrals(address,uint256)": "infinite"
					}
				},
				"methodIdentifiers": {
					"DUSDReferralsList()": "0c5f58f4",
					"DUSDTotalReferrals()": "1e8aba35",
					"DUSDinvestor(address)": "d3560ee8",
					"Stake(uint256,uint256,address)": "b1ab6be1",
					"getAllDUSDinvestments()": "3a1e0833",
					"getReward()": "3d18b912",
					"getTotalInvestmentDUSD()": "929f6bbe",
					"owner()": "8da5cb5b",
					"ownerfees()": "d0ff6e63",
					"rewardToken()": "f7c618c1",
					"setReward(uint256)": "293be456",
					"set_max_Stake_amount(uint256)": "500cb85f",
					"set_min_Stake_amount(uint256)": "32d4e783",
					"set_values(uint256,uint256,uint256)": "ce10db0a",
					"totalDUSDInvestors()": "10cde60a",
					"unStake(uint256)": "5d3eea91",
					"withdrawReward()": "c885bc58"
				}
			},
			"storageLayout": {
				"storage": [
					{
						"astId": 24,
						"contract": "contracts/stake_reward_MLM.sol:Invest",
						"label": "owner",
						"offset": 0,
						"slot": "0",
						"type": "t_address_payable"
					},
					{
						"astId": 26,
						"contract": "contracts/stake_reward_MLM.sol:Invest",
						"label": "ownerfees",
						"offset": 0,
						"slot": "1",
						"type": "t_uint256"
					},
					{
						"astId": 29,
						"contract": "contracts/stake_reward_MLM.sol:Invest",
						"label": "DUSDcontract",
						"offset": 0,
						"slot": "2",
						"type": "t_address"
					},
					{
						"astId": 31,
						"contract": "contracts/stake_reward_MLM.sol:Invest",
						"label": "totalDUSDInvestors",
						"offset": 0,
						"slot": "3",
						"type": "t_uint256"
					},
					{
						"astId": 34,
						"contract": "contracts/stake_reward_MLM.sol:Invest",
						"label": "rewardToken",
						"offset": 0,
						"slot": "4",
						"type": "t_uint256"
					},
					{
						"astId": 37,
						"contract": "contracts/stake_reward_MLM.sol:Invest",
						"label": "min_Stake_amount",
						"offset": 0,
						"slot": "5",
						"type": "t_uint256"
					},
					{
						"astId": 40,
						"contract": "contracts/stake_reward_MLM.sol:Invest",
						"label": "max_Stake_amount",
						"offset": 0,
						"slot": "6",
						"type": "t_uint256"
					},
					{
						"astId": 73,
						"contract": "contracts/stake_reward_MLM.sol:Invest",
						"label": "DUSDinvestor",
						"offset": 0,
						"slot": "7",
						"type": "t_mapping(t_address,t_struct(Data)68_storage)"
					}
				],
				"types": {
					"t_address": {
						"encoding": "inplace",
						"label": "address",
						"numberOfBytes": "20"
					},
					"t_address_payable": {
						"encoding": "inplace",
						"label": "address payable",
						"numberOfBytes": "20"
					},
					"t_array(t_address)dyn_storage": {
						"base": "t_address",
						"encoding": "dynamic_array",
						"label": "address[]",
						"numberOfBytes": "32"
					},
					"t_bool": {
						"encoding": "inplace",
						"label": "bool",
						"numberOfBytes": "1"
					},
					"t_mapping(t_address,t_struct(Data)68_storage)": {
						"encoding": "mapping",
						"key": "t_address",
						"label": "mapping(address => struct Invest.Data)",
						"numberOfBytes": "32",
						"value": "t_struct(Data)68_storage"
					},
					"t_mapping(t_uint256,t_struct(allInvestments)49_storage)": {
						"encoding": "mapping",
						"key": "t_uint256",
						"label": "mapping(uint256 => struct Invest.allInvestments)",
						"numberOfBytes": "32",
						"value": "t_struct(allInvestments)49_storage"
					},
					"t_struct(Data)68_storage": {
						"encoding": "inplace",
						"label": "struct Invest.Data",
						"members": [
							{
								"astId": 54,
								"contract": "contracts/stake_reward_MLM.sol:Invest",
								"label": "investment",
								"offset": 0,
								"slot": "0",
								"type": "t_mapping(t_uint256,t_struct(allInvestments)49_storage)"
							},
							{
								"astId": 57,
								"contract": "contracts/stake_reward_MLM.sol:Invest",
								"label": "hisReferrals",
								"offset": 0,
								"slot": "1",
								"type": "t_array(t_address)dyn_storage"
							},
							{
								"astId": 59,
								"contract": "contracts/stake_reward_MLM.sol:Invest",
								"label": "referralFrom",
								"offset": 0,
								"slot": "2",
								"type": "t_address"
							},
							{
								"astId": 61,
								"contract": "contracts/stake_reward_MLM.sol:Invest",
								"label": "reward",
								"offset": 0,
								"slot": "3",
								"type": "t_uint256"
							},
							{
								"astId": 63,
								"contract": "contracts/stake_reward_MLM.sol:Invest",
								"label": "noOfInvestment",
								"offset": 0,
								"slot": "4",
								"type": "t_uint256"
							},
							{
								"astId": 65,
								"contract": "contracts/stake_reward_MLM.sol:Invest",
								"label": "totalInvestment",
								"offset": 0,
								"slot": "5",
								"type": "t_uint256"
							},
							{
								"astId": 67,
								"contract": "contracts/stake_reward_MLM.sol:Invest",
								"label": "investBefore",
								"offset": 0,
								"slot": "6",
								"type": "t_bool"
							}
						],
						"numberOfBytes": "224"
					},
					"t_struct(allInvestments)49_storage": {
						"encoding": "inplace",
						"label": "struct Invest.allInvestments",
						"members": [
							{
								"astId": 42,
								"contract": "contracts/stake_reward_MLM.sol:Invest",
								"label": "investedAmount",
								"offset": 0,
								"slot": "0",
								"type": "t_uint256"
							},
							{
								"astId": 44,
								"contract": "contracts/stake_reward_MLM.sol:Invest",
								"label": "withdrawnTime",
								"offset": 0,
								"slot": "1",
								"type": "t_uint256"
							},
							{
								"astId": 46,
								"contract": "contracts/stake_reward_MLM.sol:Invest",
								"label": "DepositTime",
								"offset": 0,
								"slot": "2",
								"type": "t_uint256"
							},
							{
								"astId": 48,
								"contract": "contracts/stake_reward_MLM.sol:Invest",
								"label": "investmentNum",
								"offset": 0,
								"slot": "3",
								"type": "t_uint256"
							}
						],
						"numberOfBytes": "128"
					},
					"t_uint256": {
						"encoding": "inplace",
						"label": "uint256",
						"numberOfBytes": "32"
					}
				}
			},
			"userdoc": {
				"kind": "user",
				"methods": {},
				"version": 1
			}
		}
	}
}