{
	"contracts/ODI_with _referral.sol": {
		"DOI": {
			"abi": [
				{
					"inputs": [
						{
							"internalType": "address",
							"name": "_referral",
							"type": "address"
						}
					],
					"name": "buy_tokens",
					"outputs": [
						{
							"internalType": "bool",
							"name": "",
							"type": "bool"
						}
					],
					"stateMutability": "nonpayable",
					"type": "function"
				},
				{
					"inputs": [
						{
							"internalType": "uint256",
							"name": "_num",
							"type": "uint256"
						}
					],
					"name": "claim_bought_tokens",
					"outputs": [
						{
							"internalType": "bool",
							"name": "",
							"type": "bool"
						}
					],
					"stateMutability": "nonpayable",
					"type": "function"
				},
				{
					"inputs": [],
					"name": "claim_ref_tokens",
					"outputs": [
						{
							"internalType": "bool",
							"name": "",
							"type": "bool"
						}
					],
					"stateMutability": "nonpayable",
					"type": "function"
				},
				{
					"inputs": [],
					"name": "getAll_Buyings",
					"outputs": [
						{
							"components": [
								{
									"internalType": "uint256",
									"name": "investedAmount",
									"type": "uint256"
								},
								{
									"internalType": "uint256",
									"name": "claim_Time",
									"type": "uint256"
								},
								{
									"internalType": "uint256",
									"name": "buying_Time",
									"type": "uint256"
								},
								{
									"internalType": "uint256",
									"name": "investmentNum",
									"type": "uint256"
								},
								{
									"internalType": "uint256",
									"name": "unstakeTime",
									"type": "uint256"
								},
								{
									"internalType": "bool",
									"name": "claimed",
									"type": "bool"
								}
							],
							"internalType": "struct DOI.allInvestments[]",
							"name": "",
							"type": "tuple[]"
						}
					],
					"stateMutability": "view",
					"type": "function"
				},
				{
					"inputs": [],
					"name": "get_claim_ref_tokens",
					"outputs": [
						{
							"internalType": "uint256",
							"name": "",
							"type": "uint256"
						}
					],
					"stateMutability": "nonpayable",
					"type": "function"
				},
				{
					"inputs": [],
					"name": "num",
					"outputs": [
						{
							"internalType": "uint256",
							"name": "",
							"type": "uint256"
						}
					],
					"stateMutability": "view",
					"type": "function"
				},
				{
					"inputs": [
						{
							"internalType": "uint256",
							"name": "",
							"type": "uint256"
						}
					],
					"name": "round",
					"outputs": [
						{
							"internalType": "uint256",
							"name": "upper_limit",
							"type": "uint256"
						},
						{
							"internalType": "uint256",
							"name": "quantity",
							"type": "uint256"
						},
						{
							"internalType": "uint256",
							"name": "round_price",
							"type": "uint256"
						},
						{
							"internalType": "uint256",
							"name": "total_limit",
							"type": "uint256"
						}
					],
					"stateMutability": "view",
					"type": "function"
				},
				{
					"inputs": [],
					"name": "usdt_address",
					"outputs": [
						{
							"internalType": "address",
							"name": "",
							"type": "address"
						}
					],
					"stateMutability": "view",
					"type": "function"
				},
				{
					"inputs": [
						{
							"internalType": "address",
							"name": "",
							"type": "address"
						}
					],
					"name": "user",
					"outputs": [
						{
							"internalType": "uint256",
							"name": "tokens_for_claiming",
							"type": "uint256"
						},
						{
							"internalType": "address",
							"name": "referralFrom",
							"type": "address"
						},
						{
							"internalType": "bool",
							"name": "investBefore",
							"type": "bool"
						},
						{
							"internalType": "uint256",
							"name": "ref_tokens_claiming",
							"type": "uint256"
						},
						{
							"internalType": "uint256",
							"name": "total_investments",
							"type": "uint256"
						}
					],
					"stateMutability": "view",
					"type": "function"
				}
			],
			"devdoc": {
				"kind": "dev",
				"methods": {},
				"version": 1
			},
			"evm": {
				"assembly": "    /* \"contracts/ODI_with _referral.sol\":339:5882  contract DOI{... */\n  mstore(0x40, 0x80)\n  callvalue\n  dup1\n  iszero\n  tag_1\n  jumpi\n  0x00\n  dup1\n  revert\ntag_1:\n  pop\n  dataSize(sub_0)\n  dup1\n  dataOffset(sub_0)\n  0x00\n  codecopy\n  0x00\n  return\nstop\n\nsub_0: assembly {\n        /* \"contracts/ODI_with _referral.sol\":339:5882  contract DOI{... */\n      mstore(0x40, 0x80)\n      callvalue\n      dup1\n      iszero\n      tag_1\n      jumpi\n      0x00\n      dup1\n      revert\n    tag_1:\n      pop\n      jumpi(tag_2, lt(calldatasize, 0x04))\n      shr(0xe0, calldataload(0x00))\n      dup1\n      0x4e70b1dc\n      gt\n      tag_12\n      jumpi\n      dup1\n      0x4e70b1dc\n      eq\n      tag_7\n      jumpi\n      dup1\n      0x783c94a7\n      eq\n      tag_8\n      jumpi\n      dup1\n      0x7d43577c\n      eq\n      tag_9\n      jumpi\n      dup1\n      0x81e7e20e\n      eq\n      tag_10\n      jumpi\n      dup1\n      0xc68d4a38\n      eq\n      tag_11\n      jumpi\n      jump(tag_2)\n    tag_12:\n      dup1\n      0x1fef3056\n      eq\n      tag_3\n      jumpi\n      dup1\n      0x2f8bf52c\n      eq\n      tag_4\n      jumpi\n      dup1\n      0x34d5f37b\n      eq\n      tag_5\n      jumpi\n      dup1\n      0x44476bfb\n      eq\n      tag_6\n      jumpi\n    tag_2:\n      0x00\n      dup1\n      revert\n        /* \"contracts/ODI_with _referral.sol\":1081:1108  address public usdt_address */\n    tag_3:\n      tag_13\n      tag_14\n      jump\t// in\n    tag_13:\n      mload(0x40)\n      tag_15\n      swap2\n      swap1\n      tag_16\n      jump\t// in\n    tag_15:\n      mload(0x40)\n      dup1\n      swap2\n      sub\n      swap1\n      return\n        /* \"contracts/ODI_with _referral.sol\":3971:4703  function claim_bought_tokens(uint _num) external returns(bool)... */\n    tag_4:\n      tag_17\n      0x04\n      dup1\n      calldatasize\n      sub\n      dup2\n      add\n      swap1\n      tag_18\n      swap2\n      swap1\n      tag_19\n      jump\t// in\n    tag_18:\n      tag_20\n      jump\t// in\n    tag_17:\n      mload(0x40)\n      tag_21\n      swap2\n      swap1\n      tag_22\n      jump\t// in\n    tag_21:\n      mload(0x40)\n      dup1\n      swap2\n      sub\n      swap1\n      return\n        /* \"contracts/ODI_with _referral.sol\":1043:1075  mapping(uint=>Data) public round */\n    tag_5:\n      tag_23\n      0x04\n      dup1\n      calldatasize\n      sub\n      dup2\n      add\n      swap1\n      tag_24\n      swap2\n      swap1\n      tag_19\n      jump\t// in\n    tag_24:\n      tag_25\n      jump\t// in\n    tag_23:\n      mload(0x40)\n      tag_26\n      swap5\n      swap4\n      swap3\n      swap2\n      swap1\n      tag_27\n      jump\t// in\n    tag_26:\n      mload(0x40)\n      dup1\n      swap2\n      sub\n      swap1\n      return\n        /* \"contracts/ODI_with _referral.sol\":4709:5744  function getAll_Buyings() public view returns (allInvestments[] memory) { //this function will return the all investments of the investor and withware date... */\n    tag_6:\n      tag_28\n      tag_29\n      jump\t// in\n    tag_28:\n      mload(0x40)\n      tag_30\n      swap2\n      swap1\n      tag_31\n      jump\t// in\n    tag_30:\n      mload(0x40)\n      dup1\n      swap2\n      sub\n      swap1\n      return\n        /* \"contracts/ODI_with _referral.sol\":1114:1129  uint public num */\n    tag_7:\n      tag_32\n      tag_33\n      jump\t// in\n    tag_32:\n      mload(0x40)\n      tag_34\n      swap2\n      swap1\n      tag_35\n      jump\t// in\n    tag_34:\n      mload(0x40)\n      dup1\n      swap2\n      sub\n      swap1\n      return\n        /* \"contracts/ODI_with _referral.sol\":3793:3965  function claim_ref_tokens() external returns(bool)... */\n    tag_8:\n      tag_36\n      tag_37\n      jump\t// in\n    tag_36:\n      mload(0x40)\n      tag_38\n      swap2\n      swap1\n      tag_22\n      jump\t// in\n    tag_38:\n      mload(0x40)\n      dup1\n      swap2\n      sub\n      swap1\n      return\n        /* \"contracts/ODI_with _referral.sol\":5751:5870  function get_claim_ref_tokens() external returns(uint)... */\n    tag_9:\n      tag_39\n      tag_40\n      jump\t// in\n    tag_39:\n      mload(0x40)\n      tag_41\n      swap2\n      swap1\n      tag_35\n      jump\t// in\n    tag_41:\n      mload(0x40)\n      dup1\n      swap2\n      sub\n      swap1\n      return\n        /* \"contracts/ODI_with _referral.sol\":998:1037  mapping(address=>user_info) public user */\n    tag_10:\n      tag_42\n      0x04\n      dup1\n      calldatasize\n      sub\n      dup2\n      add\n      swap1\n      tag_43\n      swap2\n      swap1\n      tag_44\n      jump\t// in\n    tag_43:\n      tag_45\n      jump\t// in\n    tag_42:\n      mload(0x40)\n      tag_46\n      swap6\n      swap5\n      swap4\n      swap3\n      swap2\n      swap1\n      tag_47\n      jump\t// in\n    tag_46:\n      mload(0x40)\n      dup1\n      swap2\n      sub\n      swap1\n      return\n        /* \"contracts/ODI_with _referral.sol\":2116:3787  function buy_tokens(address _referral) external returns(bool){... */\n    tag_11:\n      tag_48\n      0x04\n      dup1\n      calldatasize\n      sub\n      dup2\n      add\n      swap1\n      tag_49\n      swap2\n      swap1\n      tag_44\n      jump\t// in\n    tag_49:\n      tag_50\n      jump\t// in\n    tag_48:\n      mload(0x40)\n      tag_51\n      swap2\n      swap1\n      tag_22\n      jump\t// in\n    tag_51:\n      mload(0x40)\n      dup1\n      swap2\n      sub\n      swap1\n      return\n        /* \"contracts/ODI_with _referral.sol\":1081:1108  address public usdt_address */\n    tag_14:\n      0x02\n      0x00\n      swap1\n      sload\n      swap1\n      0x0100\n      exp\n      swap1\n      div\n      0xffffffffffffffffffffffffffffffffffffffff\n      and\n      dup2\n      jump\t// out\n        /* \"contracts/ODI_with _referral.sol\":3971:4703  function claim_bought_tokens(uint _num) external returns(bool)... */\n    tag_20:\n        /* \"contracts/ODI_with _referral.sol\":4028:4032  bool */\n      0x00\n        /* \"contracts/ODI_with _referral.sol\":4105:4106  0 */\n      dup1\n        /* \"contracts/ODI_with _referral.sol\":4056:4060  user */\n      0x00\n        /* \"contracts/ODI_with _referral.sol\":4056:4072  user[msg.sender] */\n      dup1\n        /* \"contracts/ODI_with _referral.sol\":4061:4071  msg.sender */\n      caller\n        /* \"contracts/ODI_with _referral.sol\":4056:4072  user[msg.sender] */\n      0xffffffffffffffffffffffffffffffffffffffff\n      and\n      0xffffffffffffffffffffffffffffffffffffffff\n      and\n      dup2\n      mstore\n      0x20\n      add\n      swap1\n      dup2\n      mstore\n      0x20\n      add\n      0x00\n      keccak256\n        /* \"contracts/ODI_with _referral.sol\":4056:4083  user[msg.sender].investment */\n      0x00\n      add\n        /* \"contracts/ODI_with _referral.sol\":4056:4089  user[msg.sender].investment[_num] */\n      0x00\n        /* \"contracts/ODI_with _referral.sol\":4084:4088  _num */\n      dup5\n        /* \"contracts/ODI_with _referral.sol\":4056:4089  user[msg.sender].investment[_num] */\n      dup2\n      mstore\n      0x20\n      add\n      swap1\n      dup2\n      mstore\n      0x20\n      add\n      0x00\n      keccak256\n        /* \"contracts/ODI_with _referral.sol\":4056:4104  user[msg.sender].investment[_num].investedAmount */\n      0x00\n      add\n      sload\n        /* \"contracts/ODI_with _referral.sol\":4056:4106  user[msg.sender].investment[_num].investedAmount>0 */\n      gt\n        /* \"contracts/ODI_with _referral.sol\":4048:4139  require(user[msg.sender].investment[_num].investedAmount>0,\"you dont have tokens to claim\") */\n      tag_53\n      jumpi\n      mload(0x40)\n      0x08c379a000000000000000000000000000000000000000000000000000000000\n      dup2\n      mstore\n      0x04\n      add\n      tag_54\n      swap1\n      tag_55\n      jump\t// in\n    tag_54:\n      mload(0x40)\n      dup1\n      swap2\n      sub\n      swap1\n      revert\n    tag_53:\n        /* \"contracts/ODI_with _referral.sol\":4202:4203  0 */\n      0x00\n        /* \"contracts/ODI_with _referral.sol\":4157:4161  user */\n      dup1\n        /* \"contracts/ODI_with _referral.sol\":4157:4173  user[msg.sender] */\n      0x00\n        /* \"contracts/ODI_with _referral.sol\":4162:4172  msg.sender */\n      caller\n        /* \"contracts/ODI_with _referral.sol\":4157:4173  user[msg.sender] */\n      0xffffffffffffffffffffffffffffffffffffffff\n      and\n      0xffffffffffffffffffffffffffffffffffffffff\n      and\n      dup2\n      mstore\n      0x20\n      add\n      swap1\n      dup2\n      mstore\n      0x20\n      add\n      0x00\n      keccak256\n        /* \"contracts/ODI_with _referral.sol\":4157:4184  user[msg.sender].investment */\n      0x00\n      add\n        /* \"contracts/ODI_with _referral.sol\":4157:4190  user[msg.sender].investment[_num] */\n      0x00\n        /* \"contracts/ODI_with _referral.sol\":4185:4189  _num */\n      dup5\n        /* \"contracts/ODI_with _referral.sol\":4157:4190  user[msg.sender].investment[_num] */\n      dup2\n      mstore\n      0x20\n      add\n      swap1\n      dup2\n      mstore\n      0x20\n      add\n      0x00\n      keccak256\n        /* \"contracts/ODI_with _referral.sol\":4157:4201  user[msg.sender].investment[_num].claim_Time */\n      0x01\n      add\n      sload\n        /* \"contracts/ODI_with _referral.sol\":4157:4203  user[msg.sender].investment[_num].claim_Time>0 */\n      gt\n        /* \"contracts/ODI_with _referral.sol\":4157:4267  user[msg.sender].investment[_num].claim_Time>0 && user[msg.sender].investment[_num].claim_Time<block.timestamp */\n      dup1\n      iszero\n      tag_56\n      jumpi\n      pop\n        /* \"contracts/ODI_with _referral.sol\":4252:4267  block.timestamp */\n      timestamp\n        /* \"contracts/ODI_with _referral.sol\":4207:4211  user */\n      0x00\n        /* \"contracts/ODI_with _referral.sol\":4207:4223  user[msg.sender] */\n      dup1\n        /* \"contracts/ODI_with _referral.sol\":4212:4222  msg.sender */\n      caller\n        /* \"contracts/ODI_with _referral.sol\":4207:4223  user[msg.sender] */\n      0xffffffffffffffffffffffffffffffffffffffff\n      and\n      0xffffffffffffffffffffffffffffffffffffffff\n      and\n      dup2\n      mstore\n      0x20\n      add\n      swap1\n      dup2\n      mstore\n      0x20\n      add\n      0x00\n      keccak256\n        /* \"contracts/ODI_with _referral.sol\":4207:4234  user[msg.sender].investment */\n      0x00\n      add\n        /* \"contracts/ODI_with _referral.sol\":4207:4240  user[msg.sender].investment[_num] */\n      0x00\n        /* \"contracts/ODI_with _referral.sol\":4235:4239  _num */\n      dup5\n        /* \"contracts/ODI_with _referral.sol\":4207:4240  user[msg.sender].investment[_num] */\n      dup2\n      mstore\n      0x20\n      add\n      swap1\n      dup2\n      mstore\n      0x20\n      add\n      0x00\n      keccak256\n        /* \"contracts/ODI_with _referral.sol\":4207:4251  user[msg.sender].investment[_num].claim_Time */\n      0x01\n      add\n      sload\n        /* \"contracts/ODI_with _referral.sol\":4207:4267  user[msg.sender].investment[_num].claim_Time<block.timestamp */\n      lt\n        /* \"contracts/ODI_with _referral.sol\":4157:4267  user[msg.sender].investment[_num].claim_Time>0 && user[msg.sender].investment[_num].claim_Time<block.timestamp */\n    tag_56:\n        /* \"contracts/ODI_with _referral.sol\":4149:4314  require(user[msg.sender].investment[_num].claim_Time>0 && user[msg.sender].investment[_num].claim_Time<block.timestamp,\"investment claim time time is not completed\") */\n      tag_57\n      jumpi\n      mload(0x40)\n      0x08c379a000000000000000000000000000000000000000000000000000000000\n      dup2\n      mstore\n      0x04\n      add\n      tag_58\n      swap1\n      tag_59\n      jump\t// in\n    tag_58:\n      mload(0x40)\n      dup1\n      swap2\n      sub\n      swap1\n      revert\n    tag_57:\n        /* \"contracts/ODI_with _referral.sol\":4333:4337  user */\n      0x00\n        /* \"contracts/ODI_with _referral.sol\":4333:4349  user[msg.sender] */\n      dup1\n        /* \"contracts/ODI_with _referral.sol\":4338:4348  msg.sender */\n      caller\n        /* \"contracts/ODI_with _referral.sol\":4333:4349  user[msg.sender] */\n      0xffffffffffffffffffffffffffffffffffffffff\n      and\n      0xffffffffffffffffffffffffffffffffffffffff\n      and\n      dup2\n      mstore\n      0x20\n      add\n      swap1\n      dup2\n      mstore\n      0x20\n      add\n      0x00\n      keccak256\n        /* \"contracts/ODI_with _referral.sol\":4333:4360  user[msg.sender].investment */\n      0x00\n      add\n        /* \"contracts/ODI_with _referral.sol\":4333:4366  user[msg.sender].investment[_num] */\n      0x00\n        /* \"contracts/ODI_with _referral.sol\":4361:4365  _num */\n      dup4\n        /* \"contracts/ODI_with _referral.sol\":4333:4366  user[msg.sender].investment[_num] */\n      dup2\n      mstore\n      0x20\n      add\n      swap1\n      dup2\n      mstore\n      0x20\n      add\n      0x00\n      keccak256\n        /* \"contracts/ODI_with _referral.sol\":4333:4374  user[msg.sender].investment[_num].claimed */\n      0x05\n      add\n      0x00\n      swap1\n      sload\n      swap1\n      0x0100\n      exp\n      swap1\n      div\n      0xff\n      and\n        /* \"contracts/ODI_with _referral.sol\":4332:4374  !user[msg.sender].investment[_num].claimed */\n      iszero\n        /* \"contracts/ODI_with _referral.sol\":4324:4421  require(!user[msg.sender].investment[_num].claimed,\"investment claim time time is not completed\") */\n      tag_60\n      jumpi\n      mload(0x40)\n      0x08c379a000000000000000000000000000000000000000000000000000000000\n      dup2\n      mstore\n      0x04\n      add\n      tag_61\n      swap1\n      tag_59\n      jump\t// in\n    tag_61:\n      mload(0x40)\n      dup1\n      swap2\n      sub\n      swap1\n      revert\n    tag_60:\n        /* \"contracts/ODI_with _referral.sol\":4437:4449  usdt_address */\n      0x02\n      0x00\n      swap1\n      sload\n      swap1\n      0x0100\n      exp\n      swap1\n      div\n      0xffffffffffffffffffffffffffffffffffffffff\n      and\n        /* \"contracts/ODI_with _referral.sol\":4432:4459  USDT(usdt_address).transfer */\n      0xffffffffffffffffffffffffffffffffffffffff\n      and\n      0xa9059cbb\n        /* \"contracts/ODI_with _referral.sol\":4460:4470  msg.sender */\n      caller\n        /* \"contracts/ODI_with _referral.sol\":4471:4475  user */\n      0x00\n        /* \"contracts/ODI_with _referral.sol\":4471:4487  user[msg.sender] */\n      dup1\n        /* \"contracts/ODI_with _referral.sol\":4476:4486  msg.sender */\n      caller\n        /* \"contracts/ODI_with _referral.sol\":4471:4487  user[msg.sender] */\n      0xffffffffffffffffffffffffffffffffffffffff\n      and\n      0xffffffffffffffffffffffffffffffffffffffff\n      and\n      dup2\n      mstore\n      0x20\n      add\n      swap1\n      dup2\n      mstore\n      0x20\n      add\n      0x00\n      keccak256\n        /* \"contracts/ODI_with _referral.sol\":4471:4498  user[msg.sender].investment */\n      0x00\n      add\n        /* \"contracts/ODI_with _referral.sol\":4471:4504  user[msg.sender].investment[_num] */\n      0x00\n        /* \"contracts/ODI_with _referral.sol\":4499:4503  _num */\n      dup7\n        /* \"contracts/ODI_with _referral.sol\":4471:4504  user[msg.sender].investment[_num] */\n      dup2\n      mstore\n      0x20\n      add\n      swap1\n      dup2\n      mstore\n      0x20\n      add\n      0x00\n      keccak256\n        /* \"contracts/ODI_with _referral.sol\":4471:4519  user[msg.sender].investment[_num].investedAmount */\n      0x00\n      add\n      sload\n        /* \"contracts/ODI_with _referral.sol\":4432:4520  USDT(usdt_address).transfer(msg.sender,user[msg.sender].investment[_num].investedAmount) */\n      mload(0x40)\n      dup4\n      0xffffffff\n      and\n      0xe0\n      shl\n      dup2\n      mstore\n      0x04\n      add\n      tag_62\n      swap3\n      swap2\n      swap1\n      tag_63\n      jump\t// in\n    tag_62:\n      0x20\n      mload(0x40)\n      dup1\n      dup4\n      sub\n      dup2\n      0x00\n      dup8\n      dup1\n      extcodesize\n      iszero\n      dup1\n      iszero\n      tag_64\n      jumpi\n      0x00\n      dup1\n      revert\n    tag_64:\n      pop\n      gas\n      call\n      iszero\n      dup1\n      iszero\n      tag_66\n      jumpi\n      returndatasize\n      0x00\n      dup1\n      returndatacopy\n      revert(0x00, returndatasize)\n    tag_66:\n      pop\n      pop\n      pop\n      pop\n      mload(0x40)\n      returndatasize\n      not(0x1f)\n      0x1f\n      dup3\n      add\n      and\n      dup3\n      add\n      dup1\n      0x40\n      mstore\n      pop\n      dup2\n      add\n      swap1\n      tag_67\n      swap2\n      swap1\n      tag_68\n      jump\t// in\n    tag_67:\n      pop\n        /* \"contracts/ODI_with _referral.sol\":4572:4576  true */\n      0x01\n        /* \"contracts/ODI_with _referral.sol\":4530:4534  user */\n      0x00\n        /* \"contracts/ODI_with _referral.sol\":4530:4546  user[msg.sender] */\n      dup1\n        /* \"contracts/ODI_with _referral.sol\":4535:4545  msg.sender */\n      caller\n        /* \"contracts/ODI_with _referral.sol\":4530:4546  user[msg.sender] */\n      0xffffffffffffffffffffffffffffffffffffffff\n      and\n      0xffffffffffffffffffffffffffffffffffffffff\n      and\n      dup2\n      mstore\n      0x20\n      add\n      swap1\n      dup2\n      mstore\n      0x20\n      add\n      0x00\n      keccak256\n        /* \"contracts/ODI_with _referral.sol\":4530:4557  user[msg.sender].investment */\n      0x00\n      add\n        /* \"contracts/ODI_with _referral.sol\":4530:4563  user[msg.sender].investment[_num] */\n      0x00\n        /* \"contracts/ODI_with _referral.sol\":4558:4562  _num */\n      dup5\n        /* \"contracts/ODI_with _referral.sol\":4530:4563  user[msg.sender].investment[_num] */\n      dup2\n      mstore\n      0x20\n      add\n      swap1\n      dup2\n      mstore\n      0x20\n      add\n      0x00\n      keccak256\n        /* \"contracts/ODI_with _referral.sol\":4530:4571  user[msg.sender].investment[_num].claimed */\n      0x05\n      add\n      0x00\n        /* \"contracts/ODI_with _referral.sol\":4530:4576  user[msg.sender].investment[_num].claimed=true */\n      0x0100\n      exp\n      dup2\n      sload\n      dup2\n      0xff\n      mul\n      not\n      and\n      swap1\n      dup4\n      iszero\n      iszero\n      mul\n      or\n      swap1\n      sstore\n      pop\n        /* \"contracts/ODI_with _referral.sol\":4624:4628  user */\n      0x00\n        /* \"contracts/ODI_with _referral.sol\":4624:4640  user[msg.sender] */\n      dup1\n        /* \"contracts/ODI_with _referral.sol\":4629:4639  msg.sender */\n      caller\n        /* \"contracts/ODI_with _referral.sol\":4624:4640  user[msg.sender] */\n      0xffffffffffffffffffffffffffffffffffffffff\n      and\n      0xffffffffffffffffffffffffffffffffffffffff\n      and\n      dup2\n      mstore\n      0x20\n      add\n      swap1\n      dup2\n      mstore\n      0x20\n      add\n      0x00\n      keccak256\n        /* \"contracts/ODI_with _referral.sol\":4624:4651  user[msg.sender].investment */\n      0x00\n      add\n        /* \"contracts/ODI_with _referral.sol\":4624:4657  user[msg.sender].investment[_num] */\n      0x00\n        /* \"contracts/ODI_with _referral.sol\":4652:4656  _num */\n      dup4\n        /* \"contracts/ODI_with _referral.sol\":4624:4657  user[msg.sender].investment[_num] */\n      dup2\n      mstore\n      0x20\n      add\n      swap1\n      dup2\n      mstore\n      0x20\n      add\n      0x00\n      keccak256\n        /* \"contracts/ODI_with _referral.sol\":4624:4672  user[msg.sender].investment[_num].investedAmount */\n      0x00\n      add\n      sload\n        /* \"contracts/ODI_with _referral.sol\":4586:4590  user */\n      0x00\n        /* \"contracts/ODI_with _referral.sol\":4586:4602  user[msg.sender] */\n      dup1\n        /* \"contracts/ODI_with _referral.sol\":4591:4601  msg.sender */\n      caller\n        /* \"contracts/ODI_with _referral.sol\":4586:4602  user[msg.sender] */\n      0xffffffffffffffffffffffffffffffffffffffff\n      and\n      0xffffffffffffffffffffffffffffffffffffffff\n      and\n      dup2\n      mstore\n      0x20\n      add\n      swap1\n      dup2\n      mstore\n      0x20\n      add\n      0x00\n      keccak256\n        /* \"contracts/ODI_with _referral.sol\":4586:4622  user[msg.sender].tokens_for_claiming */\n      0x01\n      add\n      0x00\n        /* \"contracts/ODI_with _referral.sol\":4586:4672  user[msg.sender].tokens_for_claiming-=user[msg.sender].investment[_num].investedAmount */\n      dup3\n      dup3\n      sload\n      tag_69\n      swap2\n      swap1\n      tag_70\n      jump\t// in\n    tag_69:\n      swap3\n      pop\n      pop\n      dup2\n      swap1\n      sstore\n      pop\n        /* \"contracts/ODI_with _referral.sol\":4692:4696  true */\n      0x01\n        /* \"contracts/ODI_with _referral.sol\":4685:4696  return true */\n      swap1\n      pop\n        /* \"contracts/ODI_with _referral.sol\":3971:4703  function claim_bought_tokens(uint _num) external returns(bool)... */\n      swap2\n      swap1\n      pop\n      jump\t// out\n        /* \"contracts/ODI_with _referral.sol\":1043:1075  mapping(uint=>Data) public round */\n    tag_25:\n      mstore(0x20, 0x01)\n      dup1\n      0x00\n      mstore\n      keccak256(0x00, 0x40)\n      0x00\n      swap2\n      pop\n      swap1\n      pop\n      dup1\n      0x00\n      add\n      sload\n      swap1\n      dup1\n      0x01\n      add\n      sload\n      swap1\n      dup1\n      0x02\n      add\n      sload\n      swap1\n      dup1\n      0x03\n      add\n      sload\n      swap1\n      pop\n      dup5\n      jump\t// out\n        /* \"contracts/ODI_with _referral.sol\":4709:5744  function getAll_Buyings() public view returns (allInvestments[] memory) { //this function will return the all investments of the investor and withware date... */\n    tag_29:\n        /* \"contracts/ODI_with _referral.sol\":4756:4779  allInvestments[] memory */\n      0x60\n        /* \"contracts/ODI_with _referral.sol\":4877:4886  uint _num */\n      0x00\n        /* \"contracts/ODI_with _referral.sol\":4889:4893  user */\n      dup1\n        /* \"contracts/ODI_with _referral.sol\":4889:4905  user[msg.sender] */\n      0x00\n        /* \"contracts/ODI_with _referral.sol\":4894:4904  msg.sender */\n      caller\n        /* \"contracts/ODI_with _referral.sol\":4889:4905  user[msg.sender] */\n      0xffffffffffffffffffffffffffffffffffffffff\n      and\n      0xffffffffffffffffffffffffffffffffffffffff\n      and\n      dup2\n      mstore\n      0x20\n      add\n      swap1\n      dup2\n      mstore\n      0x20\n      add\n      0x00\n      keccak256\n        /* \"contracts/ODI_with _referral.sol\":4889:4923  user[msg.sender].total_investments */\n      0x05\n      add\n      sload\n        /* \"contracts/ODI_with _referral.sol\":4877:4923  uint _num = user[msg.sender].total_investments */\n      swap1\n      pop\n        /* \"contracts/ODI_with _referral.sol\":4937:4946  uint temp */\n      0x00\n        /* \"contracts/ODI_with _referral.sol\":4960:4977  uint currentIndex */\n      dup1\n        /* \"contracts/ODI_with _referral.sol\":5008:5014  uint i */\n      0x00\n        /* \"contracts/ODI_with _referral.sol\":5004:5216  for(uint i=0;i<_num;i++)... */\n    tag_72:\n        /* \"contracts/ODI_with _referral.sol\":5019:5023  _num */\n      dup4\n        /* \"contracts/ODI_with _referral.sol\":5017:5018  i */\n      dup2\n        /* \"contracts/ODI_with _referral.sol\":5017:5023  i<_num */\n      lt\n        /* \"contracts/ODI_with _referral.sol\":5004:5216  for(uint i=0;i<_num;i++)... */\n      iszero\n      tag_73\n      jumpi\n        /* \"contracts/ODI_with _referral.sol\":5110:5111  0 */\n      0x00\n        /* \"contracts/ODI_with _referral.sol\":5062:5066  user */\n      dup1\n        /* \"contracts/ODI_with _referral.sol\":5062:5078  user[msg.sender] */\n      0x00\n        /* \"contracts/ODI_with _referral.sol\":5067:5077  msg.sender */\n      caller\n        /* \"contracts/ODI_with _referral.sol\":5062:5078  user[msg.sender] */\n      0xffffffffffffffffffffffffffffffffffffffff\n      and\n      0xffffffffffffffffffffffffffffffffffffffff\n      and\n      dup2\n      mstore\n      0x20\n      add\n      swap1\n      dup2\n      mstore\n      0x20\n      add\n      0x00\n      keccak256\n        /* \"contracts/ODI_with _referral.sol\":5062:5089  user[msg.sender].investment */\n      0x00\n      add\n        /* \"contracts/ODI_with _referral.sol\":5062:5092  user[msg.sender].investment[i] */\n      0x00\n        /* \"contracts/ODI_with _referral.sol\":5090:5091  i */\n      dup4\n        /* \"contracts/ODI_with _referral.sol\":5062:5092  user[msg.sender].investment[i] */\n      dup2\n      mstore\n      0x20\n      add\n      swap1\n      dup2\n      mstore\n      0x20\n      add\n      0x00\n      keccak256\n        /* \"contracts/ODI_with _referral.sol\":5062:5107  user[msg.sender].investment[i].investedAmount */\n      0x00\n      add\n      sload\n        /* \"contracts/ODI_with _referral.sol\":5062:5111  user[msg.sender].investment[i].investedAmount > 0 */\n      gt\n        /* \"contracts/ODI_with _referral.sol\":5062:5154  user[msg.sender].investment[i].investedAmount > 0 && !user[msg.sender].investment[i].claimed */\n      dup1\n      iszero\n      tag_75\n      jumpi\n      pop\n        /* \"contracts/ODI_with _referral.sol\":5116:5120  user */\n      0x00\n        /* \"contracts/ODI_with _referral.sol\":5116:5132  user[msg.sender] */\n      dup1\n        /* \"contracts/ODI_with _referral.sol\":5121:5131  msg.sender */\n      caller\n        /* \"contracts/ODI_with _referral.sol\":5116:5132  user[msg.sender] */\n      0xffffffffffffffffffffffffffffffffffffffff\n      and\n      0xffffffffffffffffffffffffffffffffffffffff\n      and\n      dup2\n      mstore\n      0x20\n      add\n      swap1\n      dup2\n      mstore\n      0x20\n      add\n      0x00\n      keccak256\n        /* \"contracts/ODI_with _referral.sol\":5116:5143  user[msg.sender].investment */\n      0x00\n      add\n        /* \"contracts/ODI_with _referral.sol\":5116:5146  user[msg.sender].investment[i] */\n      0x00\n        /* \"contracts/ODI_with _referral.sol\":5144:5145  i */\n      dup3\n        /* \"contracts/ODI_with _referral.sol\":5116:5146  user[msg.sender].investment[i] */\n      dup2\n      mstore\n      0x20\n      add\n      swap1\n      dup2\n      mstore\n      0x20\n      add\n      0x00\n      keccak256\n        /* \"contracts/ODI_with _referral.sol\":5116:5154  user[msg.sender].investment[i].claimed */\n      0x05\n      add\n      0x00\n      swap1\n      sload\n      swap1\n      0x0100\n      exp\n      swap1\n      div\n      0xff\n      and\n        /* \"contracts/ODI_with _referral.sol\":5115:5154  !user[msg.sender].investment[i].claimed */\n      iszero\n        /* \"contracts/ODI_with _referral.sol\":5062:5154  user[msg.sender].investment[i].investedAmount > 0 && !user[msg.sender].investment[i].claimed */\n    tag_75:\n        /* \"contracts/ODI_with _referral.sol\":5058:5201  if( user[msg.sender].investment[i].investedAmount > 0 && !user[msg.sender].investment[i].claimed ){... */\n      iszero\n      tag_76\n      jumpi\n        /* \"contracts/ODI_with _referral.sol\":5177:5183  temp++ */\n      dup3\n      dup1\n      tag_77\n      swap1\n      tag_78\n      jump\t// in\n    tag_77:\n      swap4\n      pop\n      pop\n        /* \"contracts/ODI_with _referral.sol\":5058:5201  if( user[msg.sender].investment[i].investedAmount > 0 && !user[msg.sender].investment[i].claimed ){... */\n    tag_76:\n        /* \"contracts/ODI_with _referral.sol\":5024:5027  i++ */\n      dup1\n      dup1\n      tag_79\n      swap1\n      tag_78\n      jump\t// in\n    tag_79:\n      swap2\n      pop\n      pop\n        /* \"contracts/ODI_with _referral.sol\":5004:5216  for(uint i=0;i<_num;i++)... */\n      jump(tag_72)\n    tag_73:\n      pop\n        /* \"contracts/ODI_with _referral.sol\":5239:5271  allInvestments[] memory Invested */\n      0x00\n        /* \"contracts/ODI_with _referral.sol\":5296:5300  temp */\n      dup3\n        /* \"contracts/ODI_with _referral.sol\":5275:5301  new allInvestments[](temp) */\n      0xffffffffffffffff\n      dup2\n      gt\n      iszero\n      tag_80\n      jumpi\n      tag_81\n      tag_82\n      jump\t// in\n    tag_81:\n    tag_80:\n      mload(0x40)\n      swap1\n      dup1\n      dup3\n      mstore\n      dup1\n      0x20\n      mul\n      0x20\n      add\n      dup3\n      add\n      0x40\n      mstore\n      dup1\n      iszero\n      tag_83\n      jumpi\n      dup2\n      0x20\n      add\n    tag_84:\n      tag_85\n      tag_86\n      jump\t// in\n    tag_85:\n      dup2\n      mstore\n      0x20\n      add\n      swap1\n      0x01\n      swap1\n      sub\n      swap1\n      dup2\n      tag_84\n      jumpi\n      swap1\n      pop\n    tag_83:\n      pop\n        /* \"contracts/ODI_with _referral.sol\":5239:5301  allInvestments[] memory Invested =  new allInvestments[](temp) */\n      swap1\n      pop\n        /* \"contracts/ODI_with _referral.sol\":5321:5327  uint i */\n      0x00\n        /* \"contracts/ODI_with _referral.sol\":5317:5704  for(uint i=0;i<_num;i++)... */\n    tag_87:\n        /* \"contracts/ODI_with _referral.sol\":5332:5336  _num */\n      dup5\n        /* \"contracts/ODI_with _referral.sol\":5330:5331  i */\n      dup2\n        /* \"contracts/ODI_with _referral.sol\":5330:5336  i<_num */\n      lt\n        /* \"contracts/ODI_with _referral.sol\":5317:5704  for(uint i=0;i<_num;i++)... */\n      iszero\n      tag_88\n      jumpi\n        /* \"contracts/ODI_with _referral.sol\":5423:5424  0 */\n      0x00\n        /* \"contracts/ODI_with _referral.sol\":5375:5379  user */\n      dup1\n        /* \"contracts/ODI_with _referral.sol\":5375:5391  user[msg.sender] */\n      0x00\n        /* \"contracts/ODI_with _referral.sol\":5380:5390  msg.sender */\n      caller\n        /* \"contracts/ODI_with _referral.sol\":5375:5391  user[msg.sender] */\n      0xffffffffffffffffffffffffffffffffffffffff\n      and\n      0xffffffffffffffffffffffffffffffffffffffff\n      and\n      dup2\n      mstore\n      0x20\n      add\n      swap1\n      dup2\n      mstore\n      0x20\n      add\n      0x00\n      keccak256\n        /* \"contracts/ODI_with _referral.sol\":5375:5402  user[msg.sender].investment */\n      0x00\n      add\n        /* \"contracts/ODI_with _referral.sol\":5375:5405  user[msg.sender].investment[i] */\n      0x00\n        /* \"contracts/ODI_with _referral.sol\":5403:5404  i */\n      dup4\n        /* \"contracts/ODI_with _referral.sol\":5375:5405  user[msg.sender].investment[i] */\n      dup2\n      mstore\n      0x20\n      add\n      swap1\n      dup2\n      mstore\n      0x20\n      add\n      0x00\n      keccak256\n        /* \"contracts/ODI_with _referral.sol\":5375:5420  user[msg.sender].investment[i].investedAmount */\n      0x00\n      add\n      sload\n        /* \"contracts/ODI_with _referral.sol\":5375:5424  user[msg.sender].investment[i].investedAmount > 0 */\n      gt\n        /* \"contracts/ODI_with _referral.sol\":5375:5467  user[msg.sender].investment[i].investedAmount > 0 && !user[msg.sender].investment[i].claimed */\n      dup1\n      iszero\n      tag_90\n      jumpi\n      pop\n        /* \"contracts/ODI_with _referral.sol\":5429:5433  user */\n      0x00\n        /* \"contracts/ODI_with _referral.sol\":5429:5445  user[msg.sender] */\n      dup1\n        /* \"contracts/ODI_with _referral.sol\":5434:5444  msg.sender */\n      caller\n        /* \"contracts/ODI_with _referral.sol\":5429:5445  user[msg.sender] */\n      0xffffffffffffffffffffffffffffffffffffffff\n      and\n      0xffffffffffffffffffffffffffffffffffffffff\n      and\n      dup2\n      mstore\n      0x20\n      add\n      swap1\n      dup2\n      mstore\n      0x20\n      add\n      0x00\n      keccak256\n        /* \"contracts/ODI_with _referral.sol\":5429:5456  user[msg.sender].investment */\n      0x00\n      add\n        /* \"contracts/ODI_with _referral.sol\":5429:5459  user[msg.sender].investment[i] */\n      0x00\n        /* \"contracts/ODI_with _referral.sol\":5457:5458  i */\n      dup3\n        /* \"contracts/ODI_with _referral.sol\":5429:5459  user[msg.sender].investment[i] */\n      dup2\n      mstore\n      0x20\n      add\n      swap1\n      dup2\n      mstore\n      0x20\n      add\n      0x00\n      keccak256\n        /* \"contracts/ODI_with _referral.sol\":5429:5467  user[msg.sender].investment[i].claimed */\n      0x05\n      add\n      0x00\n      swap1\n      sload\n      swap1\n      0x0100\n      exp\n      swap1\n      div\n      0xff\n      and\n        /* \"contracts/ODI_with _referral.sol\":5428:5467  !user[msg.sender].investment[i].claimed */\n      iszero\n        /* \"contracts/ODI_with _referral.sol\":5375:5467  user[msg.sender].investment[i].investedAmount > 0 && !user[msg.sender].investment[i].claimed */\n    tag_90:\n        /* \"contracts/ODI_with _referral.sol\":5371:5689  if( user[msg.sender].investment[i].investedAmount > 0 && !user[msg.sender].investment[i].claimed){... */\n      iszero\n      tag_91\n      jumpi\n        /* \"contracts/ODI_with _referral.sol\":5606:5610  user */\n      0x00\n        /* \"contracts/ODI_with _referral.sol\":5606:5622  user[msg.sender] */\n      dup1\n        /* \"contracts/ODI_with _referral.sol\":5611:5621  msg.sender */\n      caller\n        /* \"contracts/ODI_with _referral.sol\":5606:5622  user[msg.sender] */\n      0xffffffffffffffffffffffffffffffffffffffff\n      and\n      0xffffffffffffffffffffffffffffffffffffffff\n      and\n      dup2\n      mstore\n      0x20\n      add\n      swap1\n      dup2\n      mstore\n      0x20\n      add\n      0x00\n      keccak256\n        /* \"contracts/ODI_with _referral.sol\":5606:5633  user[msg.sender].investment */\n      0x00\n      add\n        /* \"contracts/ODI_with _referral.sol\":5606:5636  user[msg.sender].investment[i] */\n      0x00\n        /* \"contracts/ODI_with _referral.sol\":5634:5635  i */\n      dup3\n        /* \"contracts/ODI_with _referral.sol\":5606:5636  user[msg.sender].investment[i] */\n      dup2\n      mstore\n      0x20\n      add\n      swap1\n      dup2\n      mstore\n      0x20\n      add\n      0x00\n      keccak256\n        /* \"contracts/ODI_with _referral.sol\":5583:5636  Invested[currentIndex]=user[msg.sender].investment[i] */\n      mload(0x40)\n      dup1\n      0xc0\n      add\n      0x40\n      mstore\n      swap1\n      dup2\n      0x00\n      dup3\n      add\n      sload\n      dup2\n      mstore\n      0x20\n      add\n      0x01\n      dup3\n      add\n      sload\n      dup2\n      mstore\n      0x20\n      add\n      0x02\n      dup3\n      add\n      sload\n      dup2\n      mstore\n      0x20\n      add\n      0x03\n      dup3\n      add\n      sload\n      dup2\n      mstore\n      0x20\n      add\n      0x04\n      dup3\n      add\n      sload\n      dup2\n      mstore\n      0x20\n      add\n      0x05\n      dup3\n      add\n      0x00\n      swap1\n      sload\n      swap1\n      0x0100\n      exp\n      swap1\n      div\n      0xff\n      and\n      iszero\n      iszero\n      iszero\n      iszero\n      dup2\n      mstore\n      pop\n      pop\n        /* \"contracts/ODI_with _referral.sol\":5583:5591  Invested */\n      dup3\n        /* \"contracts/ODI_with _referral.sol\":5592:5604  currentIndex */\n      dup5\n        /* \"contracts/ODI_with _referral.sol\":5583:5605  Invested[currentIndex] */\n      dup2\n      mload\n      dup2\n      lt\n      tag_92\n      jumpi\n      tag_93\n      tag_94\n      jump\t// in\n    tag_93:\n    tag_92:\n      0x20\n      mul\n      0x20\n      add\n      add\n        /* \"contracts/ODI_with _referral.sol\":5583:5636  Invested[currentIndex]=user[msg.sender].investment[i] */\n      dup2\n      swap1\n      mstore\n      pop\n        /* \"contracts/ODI_with _referral.sol\":5657:5671  currentIndex++ */\n      dup3\n      dup1\n      tag_95\n      swap1\n      tag_78\n      jump\t// in\n    tag_95:\n      swap4\n      pop\n      pop\n        /* \"contracts/ODI_with _referral.sol\":5371:5689  if( user[msg.sender].investment[i].investedAmount > 0 && !user[msg.sender].investment[i].claimed){... */\n    tag_91:\n        /* \"contracts/ODI_with _referral.sol\":5337:5340  i++ */\n      dup1\n      dup1\n      tag_96\n      swap1\n      tag_78\n      jump\t// in\n    tag_96:\n      swap2\n      pop\n      pop\n        /* \"contracts/ODI_with _referral.sol\":5317:5704  for(uint i=0;i<_num;i++)... */\n      jump(tag_87)\n    tag_88:\n      pop\n        /* \"contracts/ODI_with _referral.sol\":5724:5732  Invested */\n      dup1\n        /* \"contracts/ODI_with _referral.sol\":5717:5732  return Invested */\n      swap5\n      pop\n      pop\n      pop\n      pop\n      pop\n        /* \"contracts/ODI_with _referral.sol\":4709:5744  function getAll_Buyings() public view returns (allInvestments[] memory) { //this function will return the all investments of the investor and withware date... */\n      swap1\n      jump\t// out\n        /* \"contracts/ODI_with _referral.sol\":1114:1129  uint public num */\n    tag_33:\n      sload(0x03)\n      dup2\n      jump\t// out\n        /* \"contracts/ODI_with _referral.sol\":3793:3965  function claim_ref_tokens() external returns(bool)... */\n    tag_37:\n        /* \"contracts/ODI_with _referral.sol\":3838:3842  bool */\n      0x00\n        /* \"contracts/ODI_with _referral.sol\":3903:3904  0 */\n      dup1\n        /* \"contracts/ODI_with _referral.sol\":3866:3870  user */\n      0x00\n        /* \"contracts/ODI_with _referral.sol\":3866:3882  user[msg.sender] */\n      dup1\n        /* \"contracts/ODI_with _referral.sol\":3871:3881  msg.sender */\n      caller\n        /* \"contracts/ODI_with _referral.sol\":3866:3882  user[msg.sender] */\n      0xffffffffffffffffffffffffffffffffffffffff\n      and\n      0xffffffffffffffffffffffffffffffffffffffff\n      and\n      dup2\n      mstore\n      0x20\n      add\n      swap1\n      dup2\n      mstore\n      0x20\n      add\n      0x00\n      keccak256\n        /* \"contracts/ODI_with _referral.sol\":3866:3902  user[msg.sender].ref_tokens_claiming */\n      0x04\n      add\n      sload\n        /* \"contracts/ODI_with _referral.sol\":3866:3904  user[msg.sender].ref_tokens_claiming>0 */\n      gt\n        /* \"contracts/ODI_with _referral.sol\":3858:3937  require(user[msg.sender].ref_tokens_claiming>0,\"you dont have tokens to claim\") */\n      tag_98\n      jumpi\n      mload(0x40)\n      0x08c379a000000000000000000000000000000000000000000000000000000000\n      dup2\n      mstore\n      0x04\n      add\n      tag_99\n      swap1\n      tag_55\n      jump\t// in\n    tag_99:\n      mload(0x40)\n      dup1\n      swap2\n      sub\n      swap1\n      revert\n    tag_98:\n        /* \"contracts/ODI_with _referral.sol\":3954:3958  true */\n      0x01\n        /* \"contracts/ODI_with _referral.sol\":3947:3958  return true */\n      swap1\n      pop\n        /* \"contracts/ODI_with _referral.sol\":3793:3965  function claim_ref_tokens() external returns(bool)... */\n      swap1\n      jump\t// out\n        /* \"contracts/ODI_with _referral.sol\":5751:5870  function get_claim_ref_tokens() external returns(uint)... */\n    tag_40:\n        /* \"contracts/ODI_with _referral.sol\":5800:5804  uint */\n      0x00\n        /* \"contracts/ODI_with _referral.sol\":5827:5831  user */\n      dup1\n        /* \"contracts/ODI_with _referral.sol\":5827:5843  user[msg.sender] */\n      0x00\n        /* \"contracts/ODI_with _referral.sol\":5832:5842  msg.sender */\n      caller\n        /* \"contracts/ODI_with _referral.sol\":5827:5843  user[msg.sender] */\n      0xffffffffffffffffffffffffffffffffffffffff\n      and\n      0xffffffffffffffffffffffffffffffffffffffff\n      and\n      dup2\n      mstore\n      0x20\n      add\n      swap1\n      dup2\n      mstore\n      0x20\n      add\n      0x00\n      keccak256\n        /* \"contracts/ODI_with _referral.sol\":5827:5863  user[msg.sender].ref_tokens_claiming */\n      0x04\n      add\n      sload\n        /* \"contracts/ODI_with _referral.sol\":5820:5863  return user[msg.sender].ref_tokens_claiming */\n      swap1\n      pop\n        /* \"contracts/ODI_with _referral.sol\":5751:5870  function get_claim_ref_tokens() external returns(uint)... */\n      swap1\n      jump\t// out\n        /* \"contracts/ODI_with _referral.sol\":998:1037  mapping(address=>user_info) public user */\n    tag_45:\n      mstore(0x20, 0x00)\n      dup1\n      0x00\n      mstore\n      keccak256(0x00, 0x40)\n      0x00\n      swap2\n      pop\n      swap1\n      pop\n      dup1\n      0x01\n      add\n      sload\n      swap1\n      dup1\n      0x02\n      add\n      0x00\n      swap1\n      sload\n      swap1\n      0x0100\n      exp\n      swap1\n      div\n      0xffffffffffffffffffffffffffffffffffffffff\n      and\n      swap1\n      dup1\n      0x02\n      add\n      0x14\n      swap1\n      sload\n      swap1\n      0x0100\n      exp\n      swap1\n      div\n      0xff\n      and\n      swap1\n      dup1\n      0x04\n      add\n      sload\n      swap1\n      dup1\n      0x05\n      add\n      sload\n      swap1\n      pop\n      dup6\n      jump\t// out\n        /* \"contracts/ODI_with _referral.sol\":2116:3787  function buy_tokens(address _referral) external returns(bool){... */\n    tag_50:\n        /* \"contracts/ODI_with _referral.sol\":2172:2176  bool */\n      0x00\n        /* \"contracts/ODI_with _referral.sol\":2216:2221  round */\n      0x01\n        /* \"contracts/ODI_with _referral.sol\":2216:2226  round[num] */\n      0x00\n        /* \"contracts/ODI_with _referral.sol\":2222:2225  num */\n      sload(0x03)\n        /* \"contracts/ODI_with _referral.sol\":2216:2226  round[num] */\n      dup2\n      mstore\n      0x20\n      add\n      swap1\n      dup2\n      mstore\n      0x20\n      add\n      0x00\n      keccak256\n        /* \"contracts/ODI_with _referral.sol\":2216:2238  round[num].total_limit */\n      0x03\n      add\n      sload\n        /* \"contracts/ODI_with _referral.sol\":2195:2200  round */\n      0x01\n        /* \"contracts/ODI_with _referral.sol\":2195:2205  round[num] */\n      0x00\n        /* \"contracts/ODI_with _referral.sol\":2201:2204  num */\n      sload(0x03)\n        /* \"contracts/ODI_with _referral.sol\":2195:2205  round[num] */\n      dup2\n      mstore\n      0x20\n      add\n      swap1\n      dup2\n      mstore\n      0x20\n      add\n      0x00\n      keccak256\n        /* \"contracts/ODI_with _referral.sol\":2195:2214  round[num].quantity */\n      0x01\n      add\n      sload\n        /* \"contracts/ODI_with _referral.sol\":2195:2238  round[num].quantity<=round[num].total_limit */\n      gt\n      iszero\n        /* \"contracts/ODI_with _referral.sol\":2187:2279  require(round[num].quantity<=round[num].total_limit,\"asking tokens are more than the limit\") */\n      tag_102\n      jumpi\n      mload(0x40)\n      0x08c379a000000000000000000000000000000000000000000000000000000000\n      dup2\n      mstore\n      0x04\n      add\n      tag_103\n      swap1\n      tag_104\n      jump\t// in\n    tag_103:\n      mload(0x40)\n      dup1\n      swap2\n      sub\n      swap1\n      revert\n    tag_102:\n        /* \"contracts/ODI_with _referral.sol\":2361:2367  10**18 */\n      0x0de0b6b3a7640000\n        /* \"contracts/ODI_with _referral.sol\":2338:2343  round */\n      0x01\n        /* \"contracts/ODI_with _referral.sol\":2338:2348  round[num] */\n      0x00\n        /* \"contracts/ODI_with _referral.sol\":2344:2347  num */\n      sload(0x03)\n        /* \"contracts/ODI_with _referral.sol\":2338:2348  round[num] */\n      dup2\n      mstore\n      0x20\n      add\n      swap1\n      dup2\n      mstore\n      0x20\n      add\n      0x00\n      keccak256\n        /* \"contracts/ODI_with _referral.sol\":2338:2360  round[num].round_price */\n      0x02\n      add\n      sload\n        /* \"contracts/ODI_with _referral.sol\":2338:2367  round[num].round_price*10**18 */\n      tag_105\n      swap2\n      swap1\n      tag_106\n      jump\t// in\n    tag_105:\n        /* \"contracts/ODI_with _referral.sol\":2302:2314  usdt_address */\n      0x02\n      0x00\n      swap1\n      sload\n      swap1\n      0x0100\n      exp\n      swap1\n      div\n      0xffffffffffffffffffffffffffffffffffffffff\n      and\n        /* \"contracts/ODI_with _referral.sol\":2297:2325  USDT(usdt_address).balanceOf */\n      0xffffffffffffffffffffffffffffffffffffffff\n      and\n      0x70a08231\n        /* \"contracts/ODI_with _referral.sol\":2326:2336  msg.sender */\n      caller\n        /* \"contracts/ODI_with _referral.sol\":2297:2337  USDT(usdt_address).balanceOf(msg.sender) */\n      mload(0x40)\n      dup3\n      0xffffffff\n      and\n      0xe0\n      shl\n      dup2\n      mstore\n      0x04\n      add\n      tag_107\n      swap2\n      swap1\n      tag_16\n      jump\t// in\n    tag_107:\n      0x20\n      mload(0x40)\n      dup1\n      dup4\n      sub\n      dup2\n      dup7\n      dup1\n      extcodesize\n      iszero\n      dup1\n      iszero\n      tag_108\n      jumpi\n      0x00\n      dup1\n      revert\n    tag_108:\n      pop\n      gas\n      staticcall\n      iszero\n      dup1\n      iszero\n      tag_110\n      jumpi\n      returndatasize\n      0x00\n      dup1\n      returndatacopy\n      revert(0x00, returndatasize)\n    tag_110:\n      pop\n      pop\n      pop\n      pop\n      mload(0x40)\n      returndatasize\n      not(0x1f)\n      0x1f\n      dup3\n      add\n      and\n      dup3\n      add\n      dup1\n      0x40\n      mstore\n      pop\n      dup2\n      add\n      swap1\n      tag_111\n      swap2\n      swap1\n      tag_112\n      jump\t// in\n    tag_111:\n        /* \"contracts/ODI_with _referral.sol\":2297:2367  USDT(usdt_address).balanceOf(msg.sender)>round[num].round_price*10**18 */\n      gt\n        /* \"contracts/ODI_with _referral.sol\":2289:2406  require(USDT(usdt_address).balanceOf(msg.sender)>round[num].round_price*10**18,\"you dont have enough balance to buy\") */\n      tag_113\n      jumpi\n      mload(0x40)\n      0x08c379a000000000000000000000000000000000000000000000000000000000\n      dup2\n      mstore\n      0x04\n      add\n      tag_114\n      swap1\n      tag_115\n      jump\t// in\n    tag_114:\n      mload(0x40)\n      dup1\n      swap2\n      sub\n      swap1\n      revert\n    tag_113:\n        /* \"contracts/ODI_with _referral.sol\":2429:2441  usdt_address */\n      0x02\n      0x00\n      swap1\n      sload\n      swap1\n      0x0100\n      exp\n      swap1\n      div\n      0xffffffffffffffffffffffffffffffffffffffff\n      and\n        /* \"contracts/ODI_with _referral.sol\":2424:2455  USDT(usdt_address).transferFrom */\n      0xffffffffffffffffffffffffffffffffffffffff\n      and\n      0x23b872dd\n        /* \"contracts/ODI_with _referral.sol\":2456:2466  msg.sender */\n      caller\n        /* \"contracts/ODI_with _referral.sol\":2475:2479  this */\n      address\n        /* \"contracts/ODI_with _referral.sol\":2504:2510  10**18 */\n      0x0de0b6b3a7640000\n        /* \"contracts/ODI_with _referral.sol\":2481:2486  round */\n      0x01\n        /* \"contracts/ODI_with _referral.sol\":2481:2491  round[num] */\n      0x00\n        /* \"contracts/ODI_with _referral.sol\":2487:2490  num */\n      sload(0x03)\n        /* \"contracts/ODI_with _referral.sol\":2481:2491  round[num] */\n      dup2\n      mstore\n      0x20\n      add\n      swap1\n      dup2\n      mstore\n      0x20\n      add\n      0x00\n      keccak256\n        /* \"contracts/ODI_with _referral.sol\":2481:2503  round[num].round_price */\n      0x02\n      add\n      sload\n        /* \"contracts/ODI_with _referral.sol\":2481:2510  round[num].round_price*10**18 */\n      tag_116\n      swap2\n      swap1\n      tag_106\n      jump\t// in\n    tag_116:\n        /* \"contracts/ODI_with _referral.sol\":2424:2511  USDT(usdt_address).transferFrom(msg.sender,address(this),round[num].round_price*10**18) */\n      mload(0x40)\n      dup5\n      0xffffffff\n      and\n      0xe0\n      shl\n      dup2\n      mstore\n      0x04\n      add\n      tag_117\n      swap4\n      swap3\n      swap2\n      swap1\n      tag_118\n      jump\t// in\n    tag_117:\n      0x20\n      mload(0x40)\n      dup1\n      dup4\n      sub\n      dup2\n      0x00\n      dup8\n      dup1\n      extcodesize\n      iszero\n      dup1\n      iszero\n      tag_119\n      jumpi\n      0x00\n      dup1\n      revert\n    tag_119:\n      pop\n      gas\n      call\n      iszero\n      dup1\n      iszero\n      tag_121\n      jumpi\n      returndatasize\n      0x00\n      dup1\n      returndatacopy\n      revert(0x00, returndatasize)\n    tag_121:\n      pop\n      pop\n      pop\n      pop\n      mload(0x40)\n      returndatasize\n      not(0x1f)\n      0x1f\n      dup3\n      add\n      and\n      dup3\n      add\n      dup1\n      0x40\n      mstore\n      pop\n      dup2\n      add\n      swap1\n      tag_122\n      swap2\n      swap1\n      tag_68\n      jump\t// in\n    tag_122:\n        /* \"contracts/ODI_with _referral.sol\":2416:2542  require(USDT(usdt_address).transferFrom(msg.sender,address(this),round[num].round_price*10**18),\"tokens does not transferred\") */\n      tag_123\n      jumpi\n      mload(0x40)\n      0x08c379a000000000000000000000000000000000000000000000000000000000\n      dup2\n      mstore\n      0x04\n      add\n      tag_124\n      swap1\n      tag_125\n      jump\t// in\n    tag_124:\n      mload(0x40)\n      dup1\n      swap2\n      sub\n      swap1\n      revert\n    tag_123:\n        /* \"contracts/ODI_with _referral.sol\":2632:2637  round */\n      0x01\n        /* \"contracts/ODI_with _referral.sol\":2632:2642  round[num] */\n      0x00\n        /* \"contracts/ODI_with _referral.sol\":2638:2641  num */\n      sload(0x03)\n        /* \"contracts/ODI_with _referral.sol\":2632:2642  round[num] */\n      dup2\n      mstore\n      0x20\n      add\n      swap1\n      dup2\n      mstore\n      0x20\n      add\n      0x00\n      keccak256\n        /* \"contracts/ODI_with _referral.sol\":2632:2654  round[num].upper_limit */\n      0x00\n      add\n      sload\n        /* \"contracts/ODI_with _referral.sol\":2553:2557  user */\n      0x00\n        /* \"contracts/ODI_with _referral.sol\":2553:2569  user[msg.sender] */\n      dup1\n        /* \"contracts/ODI_with _referral.sol\":2558:2568  msg.sender */\n      caller\n        /* \"contracts/ODI_with _referral.sol\":2553:2569  user[msg.sender] */\n      0xffffffffffffffffffffffffffffffffffffffff\n      and\n      0xffffffffffffffffffffffffffffffffffffffff\n      and\n      dup2\n      mstore\n      0x20\n      add\n      swap1\n      dup2\n      mstore\n      0x20\n      add\n      0x00\n      keccak256\n        /* \"contracts/ODI_with _referral.sol\":2553:2580  user[msg.sender].investment */\n      0x00\n      add\n        /* \"contracts/ODI_with _referral.sol\":2553:2616  user[msg.sender].investment[user[msg.sender].total_investments] */\n      0x00\n        /* \"contracts/ODI_with _referral.sol\":2581:2585  user */\n      dup1\n        /* \"contracts/ODI_with _referral.sol\":2581:2597  user[msg.sender] */\n      0x00\n        /* \"contracts/ODI_with _referral.sol\":2586:2596  msg.sender */\n      caller\n        /* \"contracts/ODI_with _referral.sol\":2581:2597  user[msg.sender] */\n      0xffffffffffffffffffffffffffffffffffffffff\n      and\n      0xffffffffffffffffffffffffffffffffffffffff\n      and\n      dup2\n      mstore\n      0x20\n      add\n      swap1\n      dup2\n      mstore\n      0x20\n      add\n      0x00\n      keccak256\n        /* \"contracts/ODI_with _referral.sol\":2581:2615  user[msg.sender].total_investments */\n      0x05\n      add\n      sload\n        /* \"contracts/ODI_with _referral.sol\":2553:2616  user[msg.sender].investment[user[msg.sender].total_investments] */\n      dup2\n      mstore\n      0x20\n      add\n      swap1\n      dup2\n      mstore\n      0x20\n      add\n      0x00\n      keccak256\n        /* \"contracts/ODI_with _referral.sol\":2553:2631  user[msg.sender].investment[user[msg.sender].total_investments].investedAmount */\n      0x00\n      add\n        /* \"contracts/ODI_with _referral.sol\":2553:2654  user[msg.sender].investment[user[msg.sender].total_investments].investedAmount=round[num].upper_limit */\n      dup2\n      swap1\n      sstore\n      pop\n        /* \"contracts/ODI_with _referral.sol\":2740:2755  block.timestamp */\n      timestamp\n        /* \"contracts/ODI_with _referral.sol\":2664:2668  user */\n      0x00\n        /* \"contracts/ODI_with _referral.sol\":2664:2680  user[msg.sender] */\n      dup1\n        /* \"contracts/ODI_with _referral.sol\":2669:2679  msg.sender */\n      caller\n        /* \"contracts/ODI_with _referral.sol\":2664:2680  user[msg.sender] */\n      0xffffffffffffffffffffffffffffffffffffffff\n      and\n      0xffffffffffffffffffffffffffffffffffffffff\n      and\n      dup2\n      mstore\n      0x20\n      add\n      swap1\n      dup2\n      mstore\n      0x20\n      add\n      0x00\n      keccak256\n        /* \"contracts/ODI_with _referral.sol\":2664:2691  user[msg.sender].investment */\n      0x00\n      add\n        /* \"contracts/ODI_with _referral.sol\":2664:2727  user[msg.sender].investment[user[msg.sender].total_investments] */\n      0x00\n        /* \"contracts/ODI_with _referral.sol\":2692:2696  user */\n      dup1\n        /* \"contracts/ODI_with _referral.sol\":2692:2708  user[msg.sender] */\n      0x00\n        /* \"contracts/ODI_with _referral.sol\":2697:2707  msg.sender */\n      caller\n        /* \"contracts/ODI_with _referral.sol\":2692:2708  user[msg.sender] */\n      0xffffffffffffffffffffffffffffffffffffffff\n      and\n      0xffffffffffffffffffffffffffffffffffffffff\n      and\n      dup2\n      mstore\n      0x20\n      add\n      swap1\n      dup2\n      mstore\n      0x20\n      add\n      0x00\n      keccak256\n        /* \"contracts/ODI_with _referral.sol\":2692:2726  user[msg.sender].total_investments */\n      0x05\n      add\n      sload\n        /* \"contracts/ODI_with _referral.sol\":2664:2727  user[msg.sender].investment[user[msg.sender].total_investments] */\n      dup2\n      mstore\n      0x20\n      add\n      swap1\n      dup2\n      mstore\n      0x20\n      add\n      0x00\n      keccak256\n        /* \"contracts/ODI_with _referral.sol\":2664:2739  user[msg.sender].investment[user[msg.sender].total_investments].buying_Time */\n      0x02\n      add\n        /* \"contracts/ODI_with _referral.sol\":2664:2755  user[msg.sender].investment[user[msg.sender].total_investments].buying_Time=block.timestamp */\n      dup2\n      swap1\n      sstore\n      pop\n        /* \"contracts/ODI_with _referral.sol\":2857:2864  10 days */\n      0x0d2f00\n        /* \"contracts/ODI_with _referral.sol\":2840:2855  block.timestamp */\n      timestamp\n        /* \"contracts/ODI_with _referral.sol\":2840:2864  block.timestamp+ 10 days */\n      tag_126\n      swap2\n      swap1\n      tag_127\n      jump\t// in\n    tag_126:\n        /* \"contracts/ODI_with _referral.sol\":2765:2769  user */\n      0x00\n        /* \"contracts/ODI_with _referral.sol\":2765:2781  user[msg.sender] */\n      dup1\n        /* \"contracts/ODI_with _referral.sol\":2770:2780  msg.sender */\n      caller\n        /* \"contracts/ODI_with _referral.sol\":2765:2781  user[msg.sender] */\n      0xffffffffffffffffffffffffffffffffffffffff\n      and\n      0xffffffffffffffffffffffffffffffffffffffff\n      and\n      dup2\n      mstore\n      0x20\n      add\n      swap1\n      dup2\n      mstore\n      0x20\n      add\n      0x00\n      keccak256\n        /* \"contracts/ODI_with _referral.sol\":2765:2792  user[msg.sender].investment */\n      0x00\n      add\n        /* \"contracts/ODI_with _referral.sol\":2765:2828  user[msg.sender].investment[user[msg.sender].total_investments] */\n      0x00\n        /* \"contracts/ODI_with _referral.sol\":2793:2797  user */\n      dup1\n        /* \"contracts/ODI_with _referral.sol\":2793:2809  user[msg.sender] */\n      0x00\n        /* \"contracts/ODI_with _referral.sol\":2798:2808  msg.sender */\n      caller\n        /* \"contracts/ODI_with _referral.sol\":2793:2809  user[msg.sender] */\n      0xffffffffffffffffffffffffffffffffffffffff\n      and\n      0xffffffffffffffffffffffffffffffffffffffff\n      and\n      dup2\n      mstore\n      0x20\n      add\n      swap1\n      dup2\n      mstore\n      0x20\n      add\n      0x00\n      keccak256\n        /* \"contracts/ODI_with _referral.sol\":2793:2827  user[msg.sender].total_investments */\n      0x05\n      add\n      sload\n        /* \"contracts/ODI_with _referral.sol\":2765:2828  user[msg.sender].investment[user[msg.sender].total_investments] */\n      dup2\n      mstore\n      0x20\n      add\n      swap1\n      dup2\n      mstore\n      0x20\n      add\n      0x00\n      keccak256\n        /* \"contracts/ODI_with _referral.sol\":2765:2839  user[msg.sender].investment[user[msg.sender].total_investments].claim_Time */\n      0x01\n      add\n        /* \"contracts/ODI_with _referral.sol\":2765:2864  user[msg.sender].investment[user[msg.sender].total_investments].claim_Time=block.timestamp+ 10 days */\n      dup2\n      swap1\n      sstore\n      pop\n        /* \"contracts/ODI_with _referral.sol\":2914:2919  round */\n      0x01\n        /* \"contracts/ODI_with _referral.sol\":2914:2924  round[num] */\n      0x00\n        /* \"contracts/ODI_with _referral.sol\":2920:2923  num */\n      sload(0x03)\n        /* \"contracts/ODI_with _referral.sol\":2914:2924  round[num] */\n      dup2\n      mstore\n      0x20\n      add\n      swap1\n      dup2\n      mstore\n      0x20\n      add\n      0x00\n      keccak256\n        /* \"contracts/ODI_with _referral.sol\":2914:2936  round[num].upper_limit */\n      0x00\n      add\n      sload\n        /* \"contracts/ODI_with _referral.sol\":2876:2880  user */\n      0x00\n        /* \"contracts/ODI_with _referral.sol\":2876:2892  user[msg.sender] */\n      dup1\n        /* \"contracts/ODI_with _referral.sol\":2881:2891  msg.sender */\n      caller\n        /* \"contracts/ODI_with _referral.sol\":2876:2892  user[msg.sender] */\n      0xffffffffffffffffffffffffffffffffffffffff\n      and\n      0xffffffffffffffffffffffffffffffffffffffff\n      and\n      dup2\n      mstore\n      0x20\n      add\n      swap1\n      dup2\n      mstore\n      0x20\n      add\n      0x00\n      keccak256\n        /* \"contracts/ODI_with _referral.sol\":2876:2912  user[msg.sender].tokens_for_claiming */\n      0x01\n      add\n      0x00\n        /* \"contracts/ODI_with _referral.sol\":2876:2936  user[msg.sender].tokens_for_claiming+=round[num].upper_limit */\n      dup3\n      dup3\n      sload\n      tag_128\n      swap2\n      swap1\n      tag_127\n      jump\t// in\n    tag_128:\n      swap3\n      pop\n      pop\n      dup2\n      swap1\n      sstore\n      pop\n        /* \"contracts/ODI_with _referral.sol\":2970:2975  round */\n      0x01\n        /* \"contracts/ODI_with _referral.sol\":2970:2980  round[num] */\n      0x00\n        /* \"contracts/ODI_with _referral.sol\":2976:2979  num */\n      sload(0x03)\n        /* \"contracts/ODI_with _referral.sol\":2970:2980  round[num] */\n      dup2\n      mstore\n      0x20\n      add\n      swap1\n      dup2\n      mstore\n      0x20\n      add\n      0x00\n      keccak256\n        /* \"contracts/ODI_with _referral.sol\":2970:2992  round[num].upper_limit */\n      0x00\n      add\n      sload\n        /* \"contracts/ODI_with _referral.sol\":2946:2951  round */\n      0x01\n        /* \"contracts/ODI_with _referral.sol\":2946:2956  round[num] */\n      0x00\n        /* \"contracts/ODI_with _referral.sol\":2952:2955  num */\n      sload(0x03)\n        /* \"contracts/ODI_with _referral.sol\":2946:2956  round[num] */\n      dup2\n      mstore\n      0x20\n      add\n      swap1\n      dup2\n      mstore\n      0x20\n      add\n      0x00\n      keccak256\n        /* \"contracts/ODI_with _referral.sol\":2946:2968  round[num].total_limit */\n      0x03\n      add\n      0x00\n        /* \"contracts/ODI_with _referral.sol\":2946:2992  round[num].total_limit-=round[num].upper_limit */\n      dup3\n      dup3\n      sload\n      tag_129\n      swap2\n      swap1\n      tag_70\n      jump\t// in\n    tag_129:\n      swap3\n      pop\n      pop\n      dup2\n      swap1\n      sstore\n      pop\n        /* \"contracts/ODI_with _referral.sol\":3033:3034  0 */\n      0x00\n        /* \"contracts/ODI_with _referral.sol\":3014:3035  _referral==address(0) */\n      0xffffffffffffffffffffffffffffffffffffffff\n      and\n        /* \"contracts/ODI_with _referral.sol\":3014:3023  _referral */\n      dup3\n        /* \"contracts/ODI_with _referral.sol\":3014:3035  _referral==address(0) */\n      0xffffffffffffffffffffffffffffffffffffffff\n      and\n      eq\n        /* \"contracts/ODI_with _referral.sol\":3014:3060  _referral==address(0) || _referral==msg.sender */\n      dup1\n      tag_130\n      jumpi\n      pop\n        /* \"contracts/ODI_with _referral.sol\":3050:3060  msg.sender */\n      caller\n        /* \"contracts/ODI_with _referral.sol\":3039:3060  _referral==msg.sender */\n      0xffffffffffffffffffffffffffffffffffffffff\n      and\n        /* \"contracts/ODI_with _referral.sol\":3039:3048  _referral */\n      dup3\n        /* \"contracts/ODI_with _referral.sol\":3039:3060  _referral==msg.sender */\n      0xffffffffffffffffffffffffffffffffffffffff\n      and\n      eq\n        /* \"contracts/ODI_with _referral.sol\":3014:3060  _referral==address(0) || _referral==msg.sender */\n    tag_130:\n        /* \"contracts/ODI_with _referral.sol\":3011:3638  if(_referral==address(0) || _referral==msg.sender)                                         //checking that investor comes from the referral link or not... */\n      iszero\n      tag_131\n      jumpi\n        /* \"contracts/ODI_with _referral.sol\":3226:3227  0 */\n      0x00\n        /* \"contracts/ODI_with _referral.sol\":3186:3190  user */\n      dup1\n        /* \"contracts/ODI_with _referral.sol\":3186:3202  user[msg.sender] */\n      0x00\n        /* \"contracts/ODI_with _referral.sol\":3191:3201  msg.sender */\n      caller\n        /* \"contracts/ODI_with _referral.sol\":3186:3202  user[msg.sender] */\n      0xffffffffffffffffffffffffffffffffffffffff\n      and\n      0xffffffffffffffffffffffffffffffffffffffff\n      and\n      dup2\n      mstore\n      0x20\n      add\n      swap1\n      dup2\n      mstore\n      0x20\n      add\n      0x00\n      keccak256\n        /* \"contracts/ODI_with _referral.sol\":3186:3215  user[msg.sender].referralFrom */\n      0x02\n      add\n      0x00\n        /* \"contracts/ODI_with _referral.sol\":3186:3228  user[msg.sender].referralFrom = address(0) */\n      0x0100\n      exp\n      dup2\n      sload\n      dup2\n      0xffffffffffffffffffffffffffffffffffffffff\n      mul\n      not\n      and\n      swap1\n      dup4\n      0xffffffffffffffffffffffffffffffffffffffff\n      and\n      mul\n      or\n      swap1\n      sstore\n      pop\n        /* \"contracts/ODI_with _referral.sol\":3011:3638  if(_referral==address(0) || _referral==msg.sender)                                         //checking that investor comes from the referral link or not... */\n      jump(tag_132)\n    tag_131:\n        /* \"contracts/ODI_with _referral.sol\":3311:3316  false */\n      0x00\n        /* \"contracts/ODI_with _referral.sol\":3278:3316  user[msg.sender].investBefore == false */\n      iszero\n      iszero\n        /* \"contracts/ODI_with _referral.sol\":3278:3282  user */\n      0x00\n        /* \"contracts/ODI_with _referral.sol\":3278:3294  user[msg.sender] */\n      dup1\n        /* \"contracts/ODI_with _referral.sol\":3283:3293  msg.sender */\n      caller\n        /* \"contracts/ODI_with _referral.sol\":3278:3294  user[msg.sender] */\n      0xffffffffffffffffffffffffffffffffffffffff\n      and\n      0xffffffffffffffffffffffffffffffffffffffff\n      and\n      dup2\n      mstore\n      0x20\n      add\n      swap1\n      dup2\n      mstore\n      0x20\n      add\n      0x00\n      keccak256\n        /* \"contracts/ODI_with _referral.sol\":3278:3307  user[msg.sender].investBefore */\n      0x02\n      add\n      0x14\n      swap1\n      sload\n      swap1\n      0x0100\n      exp\n      swap1\n      div\n      0xff\n      and\n        /* \"contracts/ODI_with _referral.sol\":3278:3316  user[msg.sender].investBefore == false */\n      iszero\n      iszero\n      eq\n        /* \"contracts/ODI_with _referral.sol\":3275:3468  if(user[msg.sender].investBefore == false)... */\n      iszero\n      tag_133\n      jumpi\n        /* \"contracts/ODI_with _referral.sol\":3381:3390  _referral */\n      dup2\n        /* \"contracts/ODI_with _referral.sol\":3349:3353  user */\n      0x00\n        /* \"contracts/ODI_with _referral.sol\":3349:3365  user[msg.sender] */\n      dup1\n        /* \"contracts/ODI_with _referral.sol\":3354:3364  msg.sender */\n      caller\n        /* \"contracts/ODI_with _referral.sol\":3349:3365  user[msg.sender] */\n      0xffffffffffffffffffffffffffffffffffffffff\n      and\n      0xffffffffffffffffffffffffffffffffffffffff\n      and\n      dup2\n      mstore\n      0x20\n      add\n      swap1\n      dup2\n      mstore\n      0x20\n      add\n      0x00\n      keccak256\n        /* \"contracts/ODI_with _referral.sol\":3349:3378  user[msg.sender].referralFrom */\n      0x02\n      add\n      0x00\n        /* \"contracts/ODI_with _referral.sol\":3349:3390  user[msg.sender].referralFrom = _referral */\n      0x0100\n      exp\n      dup2\n      sload\n      dup2\n      0xffffffffffffffffffffffffffffffffffffffff\n      mul\n      not\n      and\n      swap1\n      dup4\n      0xffffffffffffffffffffffffffffffffffffffff\n      and\n      mul\n      or\n      swap1\n      sstore\n      pop\n        /* \"contracts/ODI_with _referral.sol\":3408:3412  user */\n      0x00\n        /* \"contracts/ODI_with _referral.sol\":3408:3423  user[_referral] */\n      dup1\n        /* \"contracts/ODI_with _referral.sol\":3413:3422  _referral */\n      dup4\n        /* \"contracts/ODI_with _referral.sol\":3408:3423  user[_referral] */\n      0xffffffffffffffffffffffffffffffffffffffff\n      and\n      0xffffffffffffffffffffffffffffffffffffffff\n      and\n      dup2\n      mstore\n      0x20\n      add\n      swap1\n      dup2\n      mstore\n      0x20\n      add\n      0x00\n      keccak256\n        /* \"contracts/ODI_with _referral.sol\":3408:3436  user[_referral].hisReferrals */\n      0x03\n      add\n        /* \"contracts/ODI_with _referral.sol\":3442:3452  msg.sender */\n      caller\n        /* \"contracts/ODI_with _referral.sol\":3408:3453  user[_referral].hisReferrals.push(msg.sender) */\n      swap1\n      dup1\n      0x01\n      dup2\n      sload\n      add\n      dup1\n      dup3\n      sstore\n      dup1\n      swap2\n      pop\n      pop\n      0x01\n      swap1\n      sub\n      swap1\n      0x00\n      mstore\n      keccak256(0x00, 0x20)\n      add\n      0x00\n      swap1\n      swap2\n      swap1\n      swap2\n      swap1\n      swap2\n      0x0100\n      exp\n      dup2\n      sload\n      dup2\n      0xffffffffffffffffffffffffffffffffffffffff\n      mul\n      not\n      and\n      swap1\n      dup4\n      0xffffffffffffffffffffffffffffffffffffffff\n      and\n      mul\n      or\n      swap1\n      sstore\n      pop\n        /* \"contracts/ODI_with _referral.sol\":3275:3468  if(user[msg.sender].investBefore == false)... */\n    tag_133:\n        /* \"contracts/ODI_with _referral.sol\":3481:3537  sendRewardToReferrals(msg.sender,round[num].upper_limit) */\n      tag_135\n        /* \"contracts/ODI_with _referral.sol\":3503:3513  msg.sender */\n      caller\n        /* \"contracts/ODI_with _referral.sol\":3514:3519  round */\n      0x01\n        /* \"contracts/ODI_with _referral.sol\":3514:3524  round[num] */\n      0x00\n        /* \"contracts/ODI_with _referral.sol\":3520:3523  num */\n      sload(0x03)\n        /* \"contracts/ODI_with _referral.sol\":3514:3524  round[num] */\n      dup2\n      mstore\n      0x20\n      add\n      swap1\n      dup2\n      mstore\n      0x20\n      add\n      0x00\n      keccak256\n        /* \"contracts/ODI_with _referral.sol\":3514:3536  round[num].upper_limit */\n      0x00\n      add\n      sload\n        /* \"contracts/ODI_with _referral.sol\":3481:3502  sendRewardToReferrals */\n      tag_136\n        /* \"contracts/ODI_with _referral.sol\":3481:3537  sendRewardToReferrals(msg.sender,round[num].upper_limit) */\n      jump\t// in\n    tag_135:\n        /* \"contracts/ODI_with _referral.sol\":3011:3638  if(_referral==address(0) || _referral==msg.sender)                                         //checking that investor comes from the referral link or not... */\n    tag_132:\n        /* \"contracts/ODI_with _referral.sol\":3674:3675  0 */\n      0x00\n        /* \"contracts/ODI_with _referral.sol\":3650:3655  round */\n      0x01\n        /* \"contracts/ODI_with _referral.sol\":3650:3660  round[num] */\n      0x00\n        /* \"contracts/ODI_with _referral.sol\":3656:3659  num */\n      sload(0x03)\n        /* \"contracts/ODI_with _referral.sol\":3650:3660  round[num] */\n      dup2\n      mstore\n      0x20\n      add\n      swap1\n      dup2\n      mstore\n      0x20\n      add\n      0x00\n      keccak256\n        /* \"contracts/ODI_with _referral.sol\":3650:3672  round[num].total_limit */\n      0x03\n      add\n      sload\n        /* \"contracts/ODI_with _referral.sol\":3650:3675  round[num].total_limit==0 */\n      eq\n        /* \"contracts/ODI_with _referral.sol\":3647:3715  if(round[num].total_limit==0)... */\n      iszero\n      tag_137\n      jumpi\n        /* \"contracts/ODI_with _referral.sol\":3699:3702  num */\n      0x03\n      0x00\n        /* \"contracts/ODI_with _referral.sol\":3699:3704  num++ */\n      dup2\n      sload\n      dup1\n      swap3\n      swap2\n      swap1\n      tag_138\n      swap1\n      tag_78\n      jump\t// in\n    tag_138:\n      swap2\n      swap1\n      pop\n      sstore\n      pop\n        /* \"contracts/ODI_with _referral.sol\":3647:3715  if(round[num].total_limit==0)... */\n    tag_137:\n        /* \"contracts/ODI_with _referral.sol\":3754:3758  true */\n      0x01\n        /* \"contracts/ODI_with _referral.sol\":3724:3728  user */\n      0x00\n        /* \"contracts/ODI_with _referral.sol\":3724:3740  user[msg.sender] */\n      dup1\n        /* \"contracts/ODI_with _referral.sol\":3729:3739  msg.sender */\n      caller\n        /* \"contracts/ODI_with _referral.sol\":3724:3740  user[msg.sender] */\n      0xffffffffffffffffffffffffffffffffffffffff\n      and\n      0xffffffffffffffffffffffffffffffffffffffff\n      and\n      dup2\n      mstore\n      0x20\n      add\n      swap1\n      dup2\n      mstore\n      0x20\n      add\n      0x00\n      keccak256\n        /* \"contracts/ODI_with _referral.sol\":3724:3753  user[msg.sender].investBefore */\n      0x02\n      add\n      0x14\n        /* \"contracts/ODI_with _referral.sol\":3724:3758  user[msg.sender].investBefore=true */\n      0x0100\n      exp\n      dup2\n      sload\n      dup2\n      0xff\n      mul\n      not\n      and\n      swap1\n      dup4\n      iszero\n      iszero\n      mul\n      or\n      swap1\n      sstore\n      pop\n        /* \"contracts/ODI_with _referral.sol\":3776:3780  true */\n      0x01\n        /* \"contracts/ODI_with _referral.sol\":3769:3780  return true */\n      swap1\n      pop\n        /* \"contracts/ODI_with _referral.sol\":2116:3787  function buy_tokens(address _referral) external returns(bool){... */\n      swap2\n      swap1\n      pop\n      jump\t// out\n        /* \"contracts/ODI_with _referral.sol\":1136:2106  function sendRewardToReferrals(address investor,uint _investedAmount)  internal  //this is the freferral function to transfer the reawards to referrals... */\n    tag_136:\n        /* \"contracts/ODI_with _referral.sol\":1304:1316  address temp */\n      0x00\n        /* \"contracts/ODI_with _referral.sol\":1319:1327  investor */\n      dup3\n        /* \"contracts/ODI_with _referral.sol\":1304:1327  address temp = investor */\n      swap1\n      pop\n        /* \"contracts/ODI_with _referral.sol\":1344:1368  uint[] memory percentage */\n      0x00\n        /* \"contracts/ODI_with _referral.sol\":1382:1383  5 */\n      0x05\n        /* \"contracts/ODI_with _referral.sol\":1371:1384  new uint[](5) */\n      0xffffffffffffffff\n      dup2\n      gt\n      iszero\n      tag_140\n      jumpi\n      tag_141\n      tag_82\n      jump\t// in\n    tag_141:\n    tag_140:\n      mload(0x40)\n      swap1\n      dup1\n      dup3\n      mstore\n      dup1\n      0x20\n      mul\n      0x20\n      add\n      dup3\n      add\n      0x40\n      mstore\n      dup1\n      iszero\n      tag_142\n      jumpi\n      dup2\n      0x20\n      add\n      0x20\n      dup3\n      mul\n      dup1\n      calldatasize\n      dup4\n      calldatacopy\n      dup1\n      dup3\n      add\n      swap2\n      pop\n      pop\n      swap1\n      pop\n    tag_142:\n      pop\n        /* \"contracts/ODI_with _referral.sol\":1344:1384  uint[] memory percentage = new uint[](5) */\n      swap1\n      pop\n        /* \"contracts/ODI_with _referral.sol\":1410:1411  5 */\n      0x05\n        /* \"contracts/ODI_with _referral.sol\":1394:1404  percentage */\n      dup2\n        /* \"contracts/ODI_with _referral.sol\":1405:1406  0 */\n      0x00\n        /* \"contracts/ODI_with _referral.sol\":1394:1407  percentage[0] */\n      dup2\n      mload\n      dup2\n      lt\n      tag_143\n      jumpi\n      tag_144\n      tag_94\n      jump\t// in\n    tag_144:\n    tag_143:\n      0x20\n      mul\n      0x20\n      add\n      add\n        /* \"contracts/ODI_with _referral.sol\":1394:1411  percentage[0] = 5 */\n      dup2\n      dup2\n      mstore\n      pop\n      pop\n        /* \"contracts/ODI_with _referral.sol\":1437:1438  4 */\n      0x04\n        /* \"contracts/ODI_with _referral.sol\":1421:1431  percentage */\n      dup2\n        /* \"contracts/ODI_with _referral.sol\":1432:1433  1 */\n      0x01\n        /* \"contracts/ODI_with _referral.sol\":1421:1434  percentage[1] */\n      dup2\n      mload\n      dup2\n      lt\n      tag_145\n      jumpi\n      tag_146\n      tag_94\n      jump\t// in\n    tag_146:\n    tag_145:\n      0x20\n      mul\n      0x20\n      add\n      add\n        /* \"contracts/ODI_with _referral.sol\":1421:1438  percentage[1] = 4 */\n      dup2\n      dup2\n      mstore\n      pop\n      pop\n        /* \"contracts/ODI_with _referral.sol\":1464:1465  3 */\n      0x03\n        /* \"contracts/ODI_with _referral.sol\":1448:1458  percentage */\n      dup2\n        /* \"contracts/ODI_with _referral.sol\":1459:1460  2 */\n      0x02\n        /* \"contracts/ODI_with _referral.sol\":1448:1461  percentage[2] */\n      dup2\n      mload\n      dup2\n      lt\n      tag_147\n      jumpi\n      tag_148\n      tag_94\n      jump\t// in\n    tag_148:\n    tag_147:\n      0x20\n      mul\n      0x20\n      add\n      add\n        /* \"contracts/ODI_with _referral.sol\":1448:1465  percentage[2] = 3 */\n      dup2\n      dup2\n      mstore\n      pop\n      pop\n        /* \"contracts/ODI_with _referral.sol\":1478:1484  uint j */\n      0x00\n        /* \"contracts/ODI_with _referral.sol\":1501:1507  uint i */\n      dup1\n        /* \"contracts/ODI_with _referral.sol\":1508:1509  0 */\n      0x00\n        /* \"contracts/ODI_with _referral.sol\":1501:1509  uint i=0 */\n      swap1\n      pop\n        /* \"contracts/ODI_with _referral.sol\":1497:2099  for(uint i=0;i<3;i++)... */\n    tag_149:\n        /* \"contracts/ODI_with _referral.sol\":1512:1513  3 */\n      0x03\n        /* \"contracts/ODI_with _referral.sol\":1510:1511  i */\n      dup2\n        /* \"contracts/ODI_with _referral.sol\":1510:1513  i<3 */\n      lt\n        /* \"contracts/ODI_with _referral.sol\":1497:2099  for(uint i=0;i<3;i++)... */\n      iszero\n      tag_150\n      jumpi\n        /* \"contracts/ODI_with _referral.sol\":1548:1549  0 */\n      0x00\n        /* \"contracts/ODI_with _referral.sol\":1545:1546  i */\n      dup2\n        /* \"contracts/ODI_with _referral.sol\":1545:1549  i==0 */\n      eq\n        /* \"contracts/ODI_with _referral.sol\":1542:1749  if(i==0)... */\n      iszero\n      tag_152\n      jumpi\n        /* \"contracts/ODI_with _referral.sol\":1583:1584  0 */\n      0x00\n        /* \"contracts/ODI_with _referral.sol\":1581:1584  j=0 */\n      swap2\n      pop\n        /* \"contracts/ODI_with _referral.sol\":1542:1749  if(i==0)... */\n      jump(tag_153)\n    tag_152:\n        /* \"contracts/ODI_with _referral.sol\":1623:1624  1 */\n      0x01\n        /* \"contracts/ODI_with _referral.sol\":1620:1621  i */\n      dup2\n        /* \"contracts/ODI_with _referral.sol\":1620:1624  i==1 */\n      eq\n        /* \"contracts/ODI_with _referral.sol\":1617:1749  if(i==1)... */\n      iszero\n      tag_154\n      jumpi\n        /* \"contracts/ODI_with _referral.sol\":1658:1659  1 */\n      0x01\n        /* \"contracts/ODI_with _referral.sol\":1656:1659  j=1 */\n      swap2\n      pop\n        /* \"contracts/ODI_with _referral.sol\":1617:1749  if(i==1)... */\n      jump(tag_155)\n    tag_154:\n        /* \"contracts/ODI_with _referral.sol\":1698:1699  2 */\n      0x02\n        /* \"contracts/ODI_with _referral.sol\":1695:1696  i */\n      dup2\n        /* \"contracts/ODI_with _referral.sol\":1695:1699  i==2 */\n      eq\n        /* \"contracts/ODI_with _referral.sol\":1692:1749  if(i==2)... */\n      iszero\n      tag_156\n      jumpi\n        /* \"contracts/ODI_with _referral.sol\":1733:1734  2 */\n      0x02\n        /* \"contracts/ODI_with _referral.sol\":1731:1734  j=2 */\n      swap2\n      pop\n        /* \"contracts/ODI_with _referral.sol\":1692:1749  if(i==2)... */\n    tag_156:\n        /* \"contracts/ODI_with _referral.sol\":1617:1749  if(i==1)... */\n    tag_155:\n        /* \"contracts/ODI_with _referral.sol\":1542:1749  if(i==0)... */\n    tag_153:\n        /* \"contracts/ODI_with _referral.sol\":1811:1812  0 */\n      0x00\n        /* \"contracts/ODI_with _referral.sol\":1778:1813  user[temp].referralFrom!=address(0) */\n      0xffffffffffffffffffffffffffffffffffffffff\n      and\n        /* \"contracts/ODI_with _referral.sol\":1778:1782  user */\n      0x00\n        /* \"contracts/ODI_with _referral.sol\":1778:1788  user[temp] */\n      dup1\n        /* \"contracts/ODI_with _referral.sol\":1783:1787  temp */\n      dup7\n        /* \"contracts/ODI_with _referral.sol\":1778:1788  user[temp] */\n      0xffffffffffffffffffffffffffffffffffffffff\n      and\n      0xffffffffffffffffffffffffffffffffffffffff\n      and\n      dup2\n      mstore\n      0x20\n      add\n      swap1\n      dup2\n      mstore\n      0x20\n      add\n      0x00\n      keccak256\n        /* \"contracts/ODI_with _referral.sol\":1778:1801  user[temp].referralFrom */\n      0x02\n      add\n      0x00\n      swap1\n      sload\n      swap1\n      0x0100\n      exp\n      swap1\n      div\n      0xffffffffffffffffffffffffffffffffffffffff\n      and\n        /* \"contracts/ODI_with _referral.sol\":1778:1813  user[temp].referralFrom!=address(0) */\n      0xffffffffffffffffffffffffffffffffffffffff\n      and\n      eq\n        /* \"contracts/ODI_with _referral.sol\":1775:2088  if(user[temp].referralFrom!=address(0))... */\n      tag_157\n      jumpi\n        /* \"contracts/ODI_with _referral.sol\":1851:1855  user */\n      0x00\n        /* \"contracts/ODI_with _referral.sol\":1851:1861  user[temp] */\n      dup1\n        /* \"contracts/ODI_with _referral.sol\":1856:1860  temp */\n      dup6\n        /* \"contracts/ODI_with _referral.sol\":1851:1861  user[temp] */\n      0xffffffffffffffffffffffffffffffffffffffff\n      and\n      0xffffffffffffffffffffffffffffffffffffffff\n      and\n      dup2\n      mstore\n      0x20\n      add\n      swap1\n      dup2\n      mstore\n      0x20\n      add\n      0x00\n      keccak256\n        /* \"contracts/ODI_with _referral.sol\":1851:1874  user[temp].referralFrom */\n      0x02\n      add\n      0x00\n      swap1\n      sload\n      swap1\n      0x0100\n      exp\n      swap1\n      div\n      0xffffffffffffffffffffffffffffffffffffffff\n      and\n        /* \"contracts/ODI_with _referral.sol\":1846:1874  temp=user[temp].referralFrom */\n      swap4\n      pop\n        /* \"contracts/ODI_with _referral.sol\":1892:1904  uint reward1 */\n      0x00\n        /* \"contracts/ODI_with _referral.sol\":1953:1956  100 */\n      0x64\n        /* \"contracts/ODI_with _referral.sol\":1936:1951  _investedAmount */\n      dup7\n        /* \"contracts/ODI_with _referral.sol\":1923:1932  100000000 */\n      0x05f5e100\n        /* \"contracts/ODI_with _referral.sol\":1909:1919  percentage */\n      dup7\n        /* \"contracts/ODI_with _referral.sol\":1920:1921  j */\n      dup7\n        /* \"contracts/ODI_with _referral.sol\":1909:1922  percentage[j] */\n      dup2\n      mload\n      dup2\n      lt\n      tag_158\n      jumpi\n      tag_159\n      tag_94\n      jump\t// in\n    tag_159:\n    tag_158:\n      0x20\n      mul\n      0x20\n      add\n      add\n      mload\n        /* \"contracts/ODI_with _referral.sol\":1909:1932  percentage[j]*100000000 */\n      tag_160\n      swap2\n      swap1\n      tag_106\n      jump\t// in\n    tag_160:\n        /* \"contracts/ODI_with _referral.sol\":1908:1951  (percentage[j]*100000000) * _investedAmount */\n      tag_161\n      swap2\n      swap1\n      tag_106\n      jump\t// in\n    tag_161:\n        /* \"contracts/ODI_with _referral.sol\":1907:1956  ((percentage[j]*100000000) * _investedAmount)/100 */\n      tag_162\n      swap2\n      swap1\n      tag_163\n      jump\t// in\n    tag_162:\n        /* \"contracts/ODI_with _referral.sol\":1892:1956  uint reward1 = ((percentage[j]*100000000) * _investedAmount)/100 */\n      swap1\n      pop\n        /* \"contracts/ODI_with _referral.sol\":2007:2014  reward1 */\n      dup1\n        /* \"contracts/ODI_with _referral.sol\":1975:1979  user */\n      0x00\n        /* \"contracts/ODI_with _referral.sol\":1975:1985  user[temp] */\n      dup1\n        /* \"contracts/ODI_with _referral.sol\":1980:1984  temp */\n      dup8\n        /* \"contracts/ODI_with _referral.sol\":1975:1985  user[temp] */\n      0xffffffffffffffffffffffffffffffffffffffff\n      and\n      0xffffffffffffffffffffffffffffffffffffffff\n      and\n      dup2\n      mstore\n      0x20\n      add\n      swap1\n      dup2\n      mstore\n      0x20\n      add\n      0x00\n      keccak256\n        /* \"contracts/ODI_with _referral.sol\":1975:2005  user[temp].ref_tokens_claiming */\n      0x04\n      add\n      0x00\n        /* \"contracts/ODI_with _referral.sol\":1975:2014  user[temp].ref_tokens_claiming+=reward1 */\n      dup3\n      dup3\n      sload\n      tag_164\n      swap2\n      swap1\n      tag_127\n      jump\t// in\n    tag_164:\n      swap3\n      pop\n      pop\n      dup2\n      swap1\n      sstore\n      pop\n        /* \"contracts/ODI_with _referral.sol\":1827:2032  {... */\n      pop\n        /* \"contracts/ODI_with _referral.sol\":1775:2088  if(user[temp].referralFrom!=address(0))... */\n      jump(tag_165)\n    tag_157:\n        /* \"contracts/ODI_with _referral.sol\":2068:2073  break */\n      jump(tag_150)\n        /* \"contracts/ODI_with _referral.sol\":1775:2088  if(user[temp].referralFrom!=address(0))... */\n    tag_165:\n        /* \"contracts/ODI_with _referral.sol\":1514:1517  i++ */\n      dup1\n      dup1\n      tag_166\n      swap1\n      tag_78\n      jump\t// in\n    tag_166:\n      swap2\n      pop\n      pop\n        /* \"contracts/ODI_with _referral.sol\":1497:2099  for(uint i=0;i<3;i++)... */\n      jump(tag_149)\n    tag_150:\n      pop\n        /* \"contracts/ODI_with _referral.sol\":1292:2106  { ... */\n      pop\n      pop\n      pop\n        /* \"contracts/ODI_with _referral.sol\":1136:2106  function sendRewardToReferrals(address investor,uint _investedAmount)  internal  //this is the freferral function to transfer the reawards to referrals... */\n      pop\n      pop\n      jump\t// out\n    tag_86:\n      mload(0x40)\n      dup1\n      0xc0\n      add\n      0x40\n      mstore\n      dup1\n      0x00\n      dup2\n      mstore\n      0x20\n      add\n      0x00\n      dup2\n      mstore\n      0x20\n      add\n      0x00\n      dup2\n      mstore\n      0x20\n      add\n      0x00\n      dup2\n      mstore\n      0x20\n      add\n      0x00\n      dup2\n      mstore\n      0x20\n      add\n      iszero(iszero(0x00))\n      dup2\n      mstore\n      pop\n      swap1\n      jump\t// out\n        /* \"#utility.yul\":7:146   */\n    tag_168:\n        /* \"#utility.yul\":53:58   */\n      0x00\n        /* \"#utility.yul\":91:97   */\n      dup2\n        /* \"#utility.yul\":78:98   */\n      calldataload\n        /* \"#utility.yul\":69:98   */\n      swap1\n      pop\n        /* \"#utility.yul\":107:140   */\n      tag_170\n        /* \"#utility.yul\":134:139   */\n      dup2\n        /* \"#utility.yul\":107:140   */\n      tag_171\n      jump\t// in\n    tag_170:\n        /* \"#utility.yul\":7:146   */\n      swap3\n      swap2\n      pop\n      pop\n      jump\t// out\n        /* \"#utility.yul\":152:289   */\n    tag_172:\n        /* \"#utility.yul\":206:211   */\n      0x00\n        /* \"#utility.yul\":237:243   */\n      dup2\n        /* \"#utility.yul\":231:244   */\n      mload\n        /* \"#utility.yul\":222:244   */\n      swap1\n      pop\n        /* \"#utility.yul\":253:283   */\n      tag_174\n        /* \"#utility.yul\":277:282   */\n      dup2\n        /* \"#utility.yul\":253:283   */\n      tag_175\n      jump\t// in\n    tag_174:\n        /* \"#utility.yul\":152:289   */\n      swap3\n      swap2\n      pop\n      pop\n      jump\t// out\n        /* \"#utility.yul\":295:434   */\n    tag_176:\n        /* \"#utility.yul\":341:346   */\n      0x00\n        /* \"#utility.yul\":379:385   */\n      dup2\n        /* \"#utility.yul\":366:386   */\n      calldataload\n        /* \"#utility.yul\":357:386   */\n      swap1\n      pop\n        /* \"#utility.yul\":395:428   */\n      tag_178\n        /* \"#utility.yul\":422:427   */\n      dup2\n        /* \"#utility.yul\":395:428   */\n      tag_179\n      jump\t// in\n    tag_178:\n        /* \"#utility.yul\":295:434   */\n      swap3\n      swap2\n      pop\n      pop\n      jump\t// out\n        /* \"#utility.yul\":440:583   */\n    tag_180:\n        /* \"#utility.yul\":497:502   */\n      0x00\n        /* \"#utility.yul\":528:534   */\n      dup2\n        /* \"#utility.yul\":522:535   */\n      mload\n        /* \"#utility.yul\":513:535   */\n      swap1\n      pop\n        /* \"#utility.yul\":544:577   */\n      tag_182\n        /* \"#utility.yul\":571:576   */\n      dup2\n        /* \"#utility.yul\":544:577   */\n      tag_179\n      jump\t// in\n    tag_182:\n        /* \"#utility.yul\":440:583   */\n      swap3\n      swap2\n      pop\n      pop\n      jump\t// out\n        /* \"#utility.yul\":589:918   */\n    tag_44:\n        /* \"#utility.yul\":648:654   */\n      0x00\n        /* \"#utility.yul\":697:699   */\n      0x20\n        /* \"#utility.yul\":685:694   */\n      dup3\n        /* \"#utility.yul\":676:683   */\n      dup5\n        /* \"#utility.yul\":672:695   */\n      sub\n        /* \"#utility.yul\":668:700   */\n      slt\n        /* \"#utility.yul\":665:784   */\n      iszero\n      tag_184\n      jumpi\n        /* \"#utility.yul\":703:782   */\n      tag_185\n      tag_186\n      jump\t// in\n    tag_185:\n        /* \"#utility.yul\":665:784   */\n    tag_184:\n        /* \"#utility.yul\":823:824   */\n      0x00\n        /* \"#utility.yul\":848:901   */\n      tag_187\n        /* \"#utility.yul\":893:900   */\n      dup5\n        /* \"#utility.yul\":884:890   */\n      dup3\n        /* \"#utility.yul\":873:882   */\n      dup6\n        /* \"#utility.yul\":869:891   */\n      add\n        /* \"#utility.yul\":848:901   */\n      tag_168\n      jump\t// in\n    tag_187:\n        /* \"#utility.yul\":838:901   */\n      swap2\n      pop\n        /* \"#utility.yul\":794:911   */\n      pop\n        /* \"#utility.yul\":589:918   */\n      swap3\n      swap2\n      pop\n      pop\n      jump\t// out\n        /* \"#utility.yul\":924:1269   */\n    tag_68:\n        /* \"#utility.yul\":991:997   */\n      0x00\n        /* \"#utility.yul\":1040:1042   */\n      0x20\n        /* \"#utility.yul\":1028:1037   */\n      dup3\n        /* \"#utility.yul\":1019:1026   */\n      dup5\n        /* \"#utility.yul\":1015:1038   */\n      sub\n        /* \"#utility.yul\":1011:1043   */\n      slt\n        /* \"#utility.yul\":1008:1127   */\n      iszero\n      tag_189\n      jumpi\n        /* \"#utility.yul\":1046:1125   */\n      tag_190\n      tag_186\n      jump\t// in\n    tag_190:\n        /* \"#utility.yul\":1008:1127   */\n    tag_189:\n        /* \"#utility.yul\":1166:1167   */\n      0x00\n        /* \"#utility.yul\":1191:1252   */\n      tag_191\n        /* \"#utility.yul\":1244:1251   */\n      dup5\n        /* \"#utility.yul\":1235:1241   */\n      dup3\n        /* \"#utility.yul\":1224:1233   */\n      dup6\n        /* \"#utility.yul\":1220:1242   */\n      add\n        /* \"#utility.yul\":1191:1252   */\n      tag_172\n      jump\t// in\n    tag_191:\n        /* \"#utility.yul\":1181:1252   */\n      swap2\n      pop\n        /* \"#utility.yul\":1137:1262   */\n      pop\n        /* \"#utility.yul\":924:1269   */\n      swap3\n      swap2\n      pop\n      pop\n      jump\t// out\n        /* \"#utility.yul\":1275:1604   */\n    tag_19:\n        /* \"#utility.yul\":1334:1340   */\n      0x00\n        /* \"#utility.yul\":1383:1385   */\n      0x20\n        /* \"#utility.yul\":1371:1380   */\n      dup3\n        /* \"#utility.yul\":1362:1369   */\n      dup5\n        /* \"#utility.yul\":1358:1381   */\n      sub\n        /* \"#utility.yul\":1354:1386   */\n      slt\n        /* \"#utility.yul\":1351:1470   */\n      iszero\n      tag_193\n      jumpi\n        /* \"#utility.yul\":1389:1468   */\n      tag_194\n      tag_186\n      jump\t// in\n    tag_194:\n        /* \"#utility.yul\":1351:1470   */\n    tag_193:\n        /* \"#utility.yul\":1509:1510   */\n      0x00\n        /* \"#utility.yul\":1534:1587   */\n      tag_195\n        /* \"#utility.yul\":1579:1586   */\n      dup5\n        /* \"#utility.yul\":1570:1576   */\n      dup3\n        /* \"#utility.yul\":1559:1568   */\n      dup6\n        /* \"#utility.yul\":1555:1577   */\n      add\n        /* \"#utility.yul\":1534:1587   */\n      tag_176\n      jump\t// in\n    tag_195:\n        /* \"#utility.yul\":1524:1587   */\n      swap2\n      pop\n        /* \"#utility.yul\":1480:1597   */\n      pop\n        /* \"#utility.yul\":1275:1604   */\n      swap3\n      swap2\n      pop\n      pop\n      jump\t// out\n        /* \"#utility.yul\":1610:1961   */\n    tag_112:\n        /* \"#utility.yul\":1680:1686   */\n      0x00\n        /* \"#utility.yul\":1729:1731   */\n      0x20\n        /* \"#utility.yul\":1717:1726   */\n      dup3\n        /* \"#utility.yul\":1708:1715   */\n      dup5\n        /* \"#utility.yul\":1704:1727   */\n      sub\n        /* \"#utility.yul\":1700:1732   */\n      slt\n        /* \"#utility.yul\":1697:1816   */\n      iszero\n      tag_197\n      jumpi\n        /* \"#utility.yul\":1735:1814   */\n      tag_198\n      tag_186\n      jump\t// in\n    tag_198:\n        /* \"#utility.yul\":1697:1816   */\n    tag_197:\n        /* \"#utility.yul\":1855:1856   */\n      0x00\n        /* \"#utility.yul\":1880:1944   */\n      tag_199\n        /* \"#utility.yul\":1936:1943   */\n      dup5\n        /* \"#utility.yul\":1927:1933   */\n      dup3\n        /* \"#utility.yul\":1916:1925   */\n      dup6\n        /* \"#utility.yul\":1912:1934   */\n      add\n        /* \"#utility.yul\":1880:1944   */\n      tag_180\n      jump\t// in\n    tag_199:\n        /* \"#utility.yul\":1870:1944   */\n      swap2\n      pop\n        /* \"#utility.yul\":1826:1954   */\n      pop\n        /* \"#utility.yul\":1610:1961   */\n      swap3\n      swap2\n      pop\n      pop\n      jump\t// out\n        /* \"#utility.yul\":1967:2266   */\n    tag_200:\n        /* \"#utility.yul\":2096:2106   */\n      0x00\n        /* \"#utility.yul\":2117:2223   */\n      tag_202\n        /* \"#utility.yul\":2219:2222   */\n      dup4\n        /* \"#utility.yul\":2211:2217   */\n      dup4\n        /* \"#utility.yul\":2117:2223   */\n      tag_203\n      jump\t// in\n    tag_202:\n        /* \"#utility.yul\":2255:2259   */\n      0xc0\n        /* \"#utility.yul\":2250:2253   */\n      dup4\n        /* \"#utility.yul\":2246:2260   */\n      add\n        /* \"#utility.yul\":2232:2260   */\n      swap1\n      pop\n        /* \"#utility.yul\":1967:2266   */\n      swap3\n      swap2\n      pop\n      pop\n      jump\t// out\n        /* \"#utility.yul\":2272:2390   */\n    tag_204:\n        /* \"#utility.yul\":2359:2383   */\n      tag_206\n        /* \"#utility.yul\":2377:2382   */\n      dup2\n        /* \"#utility.yul\":2359:2383   */\n      tag_207\n      jump\t// in\n    tag_206:\n        /* \"#utility.yul\":2354:2357   */\n      dup3\n        /* \"#utility.yul\":2347:2384   */\n      mstore\n        /* \"#utility.yul\":2272:2390   */\n      pop\n      pop\n      jump\t// out\n        /* \"#utility.yul\":2462:3434   */\n    tag_208:\n        /* \"#utility.yul\":2641:2644   */\n      0x00\n        /* \"#utility.yul\":2670:2754   */\n      tag_210\n        /* \"#utility.yul\":2748:2753   */\n      dup3\n        /* \"#utility.yul\":2670:2754   */\n      tag_211\n      jump\t// in\n    tag_210:\n        /* \"#utility.yul\":2770:2886   */\n      tag_212\n        /* \"#utility.yul\":2879:2885   */\n      dup2\n        /* \"#utility.yul\":2874:2877   */\n      dup6\n        /* \"#utility.yul\":2770:2886   */\n      tag_213\n      jump\t// in\n    tag_212:\n        /* \"#utility.yul\":2763:2886   */\n      swap4\n      pop\n        /* \"#utility.yul\":2910:2996   */\n      tag_214\n        /* \"#utility.yul\":2990:2995   */\n      dup4\n        /* \"#utility.yul\":2910:2996   */\n      tag_215\n      jump\t// in\n    tag_214:\n        /* \"#utility.yul\":3019:3026   */\n      dup1\n        /* \"#utility.yul\":3050:3051   */\n      0x00\n        /* \"#utility.yul\":3035:3409   */\n    tag_216:\n        /* \"#utility.yul\":3060:3066   */\n      dup4\n        /* \"#utility.yul\":3057:3058   */\n      dup2\n        /* \"#utility.yul\":3054:3067   */\n      lt\n        /* \"#utility.yul\":3035:3409   */\n      iszero\n      tag_218\n      jumpi\n        /* \"#utility.yul\":3136:3142   */\n      dup2\n        /* \"#utility.yul\":3130:3143   */\n      mload\n        /* \"#utility.yul\":3163:3286   */\n      tag_219\n        /* \"#utility.yul\":3282:3285   */\n      dup9\n        /* \"#utility.yul\":3267:3280   */\n      dup3\n        /* \"#utility.yul\":3163:3286   */\n      tag_200\n      jump\t// in\n    tag_219:\n        /* \"#utility.yul\":3156:3286   */\n      swap8\n      pop\n        /* \"#utility.yul\":3309:3399   */\n      tag_220\n        /* \"#utility.yul\":3392:3398   */\n      dup4\n        /* \"#utility.yul\":3309:3399   */\n      tag_221\n      jump\t// in\n    tag_220:\n        /* \"#utility.yul\":3299:3399   */\n      swap3\n      pop\n        /* \"#utility.yul\":3095:3409   */\n      pop\n        /* \"#utility.yul\":3082:3083   */\n      0x01\n        /* \"#utility.yul\":3079:3080   */\n      dup2\n        /* \"#utility.yul\":3075:3084   */\n      add\n        /* \"#utility.yul\":3070:3084   */\n      swap1\n      pop\n        /* \"#utility.yul\":3035:3409   */\n      jump(tag_216)\n    tag_218:\n        /* \"#utility.yul\":3039:3053   */\n      pop\n        /* \"#utility.yul\":3425:3428   */\n      dup6\n        /* \"#utility.yul\":3418:3428   */\n      swap4\n      pop\n        /* \"#utility.yul\":2646:3434   */\n      pop\n      pop\n      pop\n        /* \"#utility.yul\":2462:3434   */\n      swap3\n      swap2\n      pop\n      pop\n      jump\t// out\n        /* \"#utility.yul\":3440:3539   */\n    tag_222:\n        /* \"#utility.yul\":3511:3532   */\n      tag_224\n        /* \"#utility.yul\":3526:3531   */\n      dup2\n        /* \"#utility.yul\":3511:3532   */\n      tag_225\n      jump\t// in\n    tag_224:\n        /* \"#utility.yul\":3506:3509   */\n      dup3\n        /* \"#utility.yul\":3499:3533   */\n      mstore\n        /* \"#utility.yul\":3440:3539   */\n      pop\n      pop\n      jump\t// out\n        /* \"#utility.yul\":3545:3654   */\n    tag_226:\n        /* \"#utility.yul\":3626:3647   */\n      tag_228\n        /* \"#utility.yul\":3641:3646   */\n      dup2\n        /* \"#utility.yul\":3626:3647   */\n      tag_225\n      jump\t// in\n    tag_228:\n        /* \"#utility.yul\":3621:3624   */\n      dup3\n        /* \"#utility.yul\":3614:3648   */\n      mstore\n        /* \"#utility.yul\":3545:3654   */\n      pop\n      pop\n      jump\t// out\n        /* \"#utility.yul\":3660:4026   */\n    tag_229:\n        /* \"#utility.yul\":3802:3805   */\n      0x00\n        /* \"#utility.yul\":3823:3890   */\n      tag_231\n        /* \"#utility.yul\":3887:3889   */\n      0x1d\n        /* \"#utility.yul\":3882:3885   */\n      dup4\n        /* \"#utility.yul\":3823:3890   */\n      tag_232\n      jump\t// in\n    tag_231:\n        /* \"#utility.yul\":3816:3890   */\n      swap2\n      pop\n        /* \"#utility.yul\":3899:3992   */\n      tag_233\n        /* \"#utility.yul\":3988:3991   */\n      dup3\n        /* \"#utility.yul\":3899:3992   */\n      tag_234\n      jump\t// in\n    tag_233:\n        /* \"#utility.yul\":4017:4019   */\n      0x20\n        /* \"#utility.yul\":4012:4015   */\n      dup3\n        /* \"#utility.yul\":4008:4020   */\n      add\n        /* \"#utility.yul\":4001:4020   */\n      swap1\n      pop\n        /* \"#utility.yul\":3660:4026   */\n      swap2\n      swap1\n      pop\n      jump\t// out\n        /* \"#utility.yul\":4032:4398   */\n    tag_235:\n        /* \"#utility.yul\":4174:4177   */\n      0x00\n        /* \"#utility.yul\":4195:4262   */\n      tag_237\n        /* \"#utility.yul\":4259:4261   */\n      0x2b\n        /* \"#utility.yul\":4254:4257   */\n      dup4\n        /* \"#utility.yul\":4195:4262   */\n      tag_232\n      jump\t// in\n    tag_237:\n        /* \"#utility.yul\":4188:4262   */\n      swap2\n      pop\n        /* \"#utility.yul\":4271:4364   */\n      tag_238\n        /* \"#utility.yul\":4360:4363   */\n      dup3\n        /* \"#utility.yul\":4271:4364   */\n      tag_239\n      jump\t// in\n    tag_238:\n        /* \"#utility.yul\":4389:4391   */\n      0x40\n        /* \"#utility.yul\":4384:4387   */\n      dup3\n        /* \"#utility.yul\":4380:4392   */\n      add\n        /* \"#utility.yul\":4373:4392   */\n      swap1\n      pop\n        /* \"#utility.yul\":4032:4398   */\n      swap2\n      swap1\n      pop\n      jump\t// out\n        /* \"#utility.yul\":4404:4770   */\n    tag_240:\n        /* \"#utility.yul\":4546:4549   */\n      0x00\n        /* \"#utility.yul\":4567:4634   */\n      tag_242\n        /* \"#utility.yul\":4631:4633   */\n      0x25\n        /* \"#utility.yul\":4626:4629   */\n      dup4\n        /* \"#utility.yul\":4567:4634   */\n      tag_232\n      jump\t// in\n    tag_242:\n        /* \"#utility.yul\":4560:4634   */\n      swap2\n      pop\n        /* \"#utility.yul\":4643:4736   */\n      tag_243\n        /* \"#utility.yul\":4732:4735   */\n      dup3\n        /* \"#utility.yul\":4643:4736   */\n      tag_244\n      jump\t// in\n    tag_243:\n        /* \"#utility.yul\":4761:4763   */\n      0x40\n        /* \"#utility.yul\":4756:4759   */\n      dup3\n        /* \"#utility.yul\":4752:4764   */\n      add\n        /* \"#utility.yul\":4745:4764   */\n      swap1\n      pop\n        /* \"#utility.yul\":4404:4770   */\n      swap2\n      swap1\n      pop\n      jump\t// out\n        /* \"#utility.yul\":4776:5142   */\n    tag_245:\n        /* \"#utility.yul\":4918:4921   */\n      0x00\n        /* \"#utility.yul\":4939:5006   */\n      tag_247\n        /* \"#utility.yul\":5003:5005   */\n      0x1b\n        /* \"#utility.yul\":4998:5001   */\n      dup4\n        /* \"#utility.yul\":4939:5006   */\n      tag_232\n      jump\t// in\n    tag_247:\n        /* \"#utility.yul\":4932:5006   */\n      swap2\n      pop\n        /* \"#utility.yul\":5015:5108   */\n      tag_248\n        /* \"#utility.yul\":5104:5107   */\n      dup3\n        /* \"#utility.yul\":5015:5108   */\n      tag_249\n      jump\t// in\n    tag_248:\n        /* \"#utility.yul\":5133:5135   */\n      0x20\n        /* \"#utility.yul\":5128:5131   */\n      dup3\n        /* \"#utility.yul\":5124:5136   */\n      add\n        /* \"#utility.yul\":5117:5136   */\n      swap1\n      pop\n        /* \"#utility.yul\":4776:5142   */\n      swap2\n      swap1\n      pop\n      jump\t// out\n        /* \"#utility.yul\":5148:5514   */\n    tag_250:\n        /* \"#utility.yul\":5290:5293   */\n      0x00\n        /* \"#utility.yul\":5311:5378   */\n      tag_252\n        /* \"#utility.yul\":5375:5377   */\n      0x23\n        /* \"#utility.yul\":5370:5373   */\n      dup4\n        /* \"#utility.yul\":5311:5378   */\n      tag_232\n      jump\t// in\n    tag_252:\n        /* \"#utility.yul\":5304:5378   */\n      swap2\n      pop\n        /* \"#utility.yul\":5387:5480   */\n      tag_253\n        /* \"#utility.yul\":5476:5479   */\n      dup3\n        /* \"#utility.yul\":5387:5480   */\n      tag_254\n      jump\t// in\n    tag_253:\n        /* \"#utility.yul\":5505:5507   */\n      0x40\n        /* \"#utility.yul\":5500:5503   */\n      dup3\n        /* \"#utility.yul\":5496:5508   */\n      add\n        /* \"#utility.yul\":5489:5508   */\n      swap1\n      pop\n        /* \"#utility.yul\":5148:5514   */\n      swap2\n      swap1\n      pop\n      jump\t// out\n        /* \"#utility.yul\":5582:6821   */\n    tag_203:\n        /* \"#utility.yul\":5729:5733   */\n      0xc0\n        /* \"#utility.yul\":5724:5727   */\n      dup3\n        /* \"#utility.yul\":5720:5734   */\n      add\n        /* \"#utility.yul\":5826:5830   */\n      0x00\n        /* \"#utility.yul\":5819:5824   */\n      dup3\n        /* \"#utility.yul\":5815:5831   */\n      add\n        /* \"#utility.yul\":5809:5832   */\n      mload\n        /* \"#utility.yul\":5845:5908   */\n      tag_256\n        /* \"#utility.yul\":5902:5906   */\n      0x00\n        /* \"#utility.yul\":5897:5900   */\n      dup6\n        /* \"#utility.yul\":5893:5907   */\n      add\n        /* \"#utility.yul\":5879:5891   */\n      dup3\n        /* \"#utility.yul\":5845:5908   */\n      tag_257\n      jump\t// in\n    tag_256:\n        /* \"#utility.yul\":5744:5918   */\n      pop\n        /* \"#utility.yul\":6006:6010   */\n      0x20\n        /* \"#utility.yul\":5999:6004   */\n      dup3\n        /* \"#utility.yul\":5995:6011   */\n      add\n        /* \"#utility.yul\":5989:6012   */\n      mload\n        /* \"#utility.yul\":6025:6088   */\n      tag_258\n        /* \"#utility.yul\":6082:6086   */\n      0x20\n        /* \"#utility.yul\":6077:6080   */\n      dup6\n        /* \"#utility.yul\":6073:6087   */\n      add\n        /* \"#utility.yul\":6059:6071   */\n      dup3\n        /* \"#utility.yul\":6025:6088   */\n      tag_257\n      jump\t// in\n    tag_258:\n        /* \"#utility.yul\":5928:6098   */\n      pop\n        /* \"#utility.yul\":6187:6191   */\n      0x40\n        /* \"#utility.yul\":6180:6185   */\n      dup3\n        /* \"#utility.yul\":6176:6192   */\n      add\n        /* \"#utility.yul\":6170:6193   */\n      mload\n        /* \"#utility.yul\":6206:6269   */\n      tag_259\n        /* \"#utility.yul\":6263:6267   */\n      0x40\n        /* \"#utility.yul\":6258:6261   */\n      dup6\n        /* \"#utility.yul\":6254:6268   */\n      add\n        /* \"#utility.yul\":6240:6252   */\n      dup3\n        /* \"#utility.yul\":6206:6269   */\n      tag_257\n      jump\t// in\n    tag_259:\n        /* \"#utility.yul\":6108:6279   */\n      pop\n        /* \"#utility.yul\":6370:6374   */\n      0x60\n        /* \"#utility.yul\":6363:6368   */\n      dup3\n        /* \"#utility.yul\":6359:6375   */\n      add\n        /* \"#utility.yul\":6353:6376   */\n      mload\n        /* \"#utility.yul\":6389:6452   */\n      tag_260\n        /* \"#utility.yul\":6446:6450   */\n      0x60\n        /* \"#utility.yul\":6441:6444   */\n      dup6\n        /* \"#utility.yul\":6437:6451   */\n      add\n        /* \"#utility.yul\":6423:6435   */\n      dup3\n        /* \"#utility.yul\":6389:6452   */\n      tag_257\n      jump\t// in\n    tag_260:\n        /* \"#utility.yul\":6289:6462   */\n      pop\n        /* \"#utility.yul\":6551:6555   */\n      0x80\n        /* \"#utility.yul\":6544:6549   */\n      dup3\n        /* \"#utility.yul\":6540:6556   */\n      add\n        /* \"#utility.yul\":6534:6557   */\n      mload\n        /* \"#utility.yul\":6570:6633   */\n      tag_261\n        /* \"#utility.yul\":6627:6631   */\n      0x80\n        /* \"#utility.yul\":6622:6625   */\n      dup6\n        /* \"#utility.yul\":6618:6632   */\n      add\n        /* \"#utility.yul\":6604:6616   */\n      dup3\n        /* \"#utility.yul\":6570:6633   */\n      tag_257\n      jump\t// in\n    tag_261:\n        /* \"#utility.yul\":6472:6643   */\n      pop\n        /* \"#utility.yul\":6728:6732   */\n      0xa0\n        /* \"#utility.yul\":6721:6726   */\n      dup3\n        /* \"#utility.yul\":6717:6733   */\n      add\n        /* \"#utility.yul\":6711:6734   */\n      mload\n        /* \"#utility.yul\":6747:6804   */\n      tag_262\n        /* \"#utility.yul\":6798:6802   */\n      0xa0\n        /* \"#utility.yul\":6793:6796   */\n      dup6\n        /* \"#utility.yul\":6789:6803   */\n      add\n        /* \"#utility.yul\":6775:6787   */\n      dup3\n        /* \"#utility.yul\":6747:6804   */\n      tag_222\n      jump\t// in\n    tag_262:\n        /* \"#utility.yul\":6653:6814   */\n      pop\n        /* \"#utility.yul\":5698:6821   */\n      pop\n        /* \"#utility.yul\":5582:6821   */\n      pop\n      pop\n      jump\t// out\n        /* \"#utility.yul\":6827:6935   */\n    tag_257:\n        /* \"#utility.yul\":6904:6928   */\n      tag_264\n        /* \"#utility.yul\":6922:6927   */\n      dup2\n        /* \"#utility.yul\":6904:6928   */\n      tag_265\n      jump\t// in\n    tag_264:\n        /* \"#utility.yul\":6899:6902   */\n      dup3\n        /* \"#utility.yul\":6892:6929   */\n      mstore\n        /* \"#utility.yul\":6827:6935   */\n      pop\n      pop\n      jump\t// out\n        /* \"#utility.yul\":6941:7059   */\n    tag_266:\n        /* \"#utility.yul\":7028:7052   */\n      tag_268\n        /* \"#utility.yul\":7046:7051   */\n      dup2\n        /* \"#utility.yul\":7028:7052   */\n      tag_265\n      jump\t// in\n    tag_268:\n        /* \"#utility.yul\":7023:7026   */\n      dup3\n        /* \"#utility.yul\":7016:7053   */\n      mstore\n        /* \"#utility.yul\":6941:7059   */\n      pop\n      pop\n      jump\t// out\n        /* \"#utility.yul\":7065:7287   */\n    tag_16:\n        /* \"#utility.yul\":7158:7162   */\n      0x00\n        /* \"#utility.yul\":7196:7198   */\n      0x20\n        /* \"#utility.yul\":7185:7194   */\n      dup3\n        /* \"#utility.yul\":7181:7199   */\n      add\n        /* \"#utility.yul\":7173:7199   */\n      swap1\n      pop\n        /* \"#utility.yul\":7209:7280   */\n      tag_270\n        /* \"#utility.yul\":7277:7278   */\n      0x00\n        /* \"#utility.yul\":7266:7275   */\n      dup4\n        /* \"#utility.yul\":7262:7279   */\n      add\n        /* \"#utility.yul\":7253:7259   */\n      dup5\n        /* \"#utility.yul\":7209:7280   */\n      tag_204\n      jump\t// in\n    tag_270:\n        /* \"#utility.yul\":7065:7287   */\n      swap3\n      swap2\n      pop\n      pop\n      jump\t// out\n        /* \"#utility.yul\":7293:7735   */\n    tag_118:\n        /* \"#utility.yul\":7442:7446   */\n      0x00\n        /* \"#utility.yul\":7480:7482   */\n      0x60\n        /* \"#utility.yul\":7469:7478   */\n      dup3\n        /* \"#utility.yul\":7465:7483   */\n      add\n        /* \"#utility.yul\":7457:7483   */\n      swap1\n      pop\n        /* \"#utility.yul\":7493:7564   */\n      tag_272\n        /* \"#utility.yul\":7561:7562   */\n      0x00\n        /* \"#utility.yul\":7550:7559   */\n      dup4\n        /* \"#utility.yul\":7546:7563   */\n      add\n        /* \"#utility.yul\":7537:7543   */\n      dup7\n        /* \"#utility.yul\":7493:7564   */\n      tag_204\n      jump\t// in\n    tag_272:\n        /* \"#utility.yul\":7574:7646   */\n      tag_273\n        /* \"#utility.yul\":7642:7644   */\n      0x20\n        /* \"#utility.yul\":7631:7640   */\n      dup4\n        /* \"#utility.yul\":7627:7645   */\n      add\n        /* \"#utility.yul\":7618:7624   */\n      dup6\n        /* \"#utility.yul\":7574:7646   */\n      tag_204\n      jump\t// in\n    tag_273:\n        /* \"#utility.yul\":7656:7728   */\n      tag_274\n        /* \"#utility.yul\":7724:7726   */\n      0x40\n        /* \"#utility.yul\":7713:7722   */\n      dup4\n        /* \"#utility.yul\":7709:7727   */\n      add\n        /* \"#utility.yul\":7700:7706   */\n      dup5\n        /* \"#utility.yul\":7656:7728   */\n      tag_266\n      jump\t// in\n    tag_274:\n        /* \"#utility.yul\":7293:7735   */\n      swap5\n      swap4\n      pop\n      pop\n      pop\n      pop\n      jump\t// out\n        /* \"#utility.yul\":7741:8073   */\n    tag_63:\n        /* \"#utility.yul\":7862:7866   */\n      0x00\n        /* \"#utility.yul\":7900:7902   */\n      0x40\n        /* \"#utility.yul\":7889:7898   */\n      dup3\n        /* \"#utility.yul\":7885:7903   */\n      add\n        /* \"#utility.yul\":7877:7903   */\n      swap1\n      pop\n        /* \"#utility.yul\":7913:7984   */\n      tag_276\n        /* \"#utility.yul\":7981:7982   */\n      0x00\n        /* \"#utility.yul\":7970:7979   */\n      dup4\n        /* \"#utility.yul\":7966:7983   */\n      add\n        /* \"#utility.yul\":7957:7963   */\n      dup6\n        /* \"#utility.yul\":7913:7984   */\n      tag_204\n      jump\t// in\n    tag_276:\n        /* \"#utility.yul\":7994:8066   */\n      tag_277\n        /* \"#utility.yul\":8062:8064   */\n      0x20\n        /* \"#utility.yul\":8051:8060   */\n      dup4\n        /* \"#utility.yul\":8047:8065   */\n      add\n        /* \"#utility.yul\":8038:8044   */\n      dup5\n        /* \"#utility.yul\":7994:8066   */\n      tag_266\n      jump\t// in\n    tag_277:\n        /* \"#utility.yul\":7741:8073   */\n      swap4\n      swap3\n      pop\n      pop\n      pop\n      jump\t// out\n        /* \"#utility.yul\":8079:8572   */\n    tag_31:\n        /* \"#utility.yul\":8282:8286   */\n      0x00\n        /* \"#utility.yul\":8320:8322   */\n      0x20\n        /* \"#utility.yul\":8309:8318   */\n      dup3\n        /* \"#utility.yul\":8305:8323   */\n      add\n        /* \"#utility.yul\":8297:8323   */\n      swap1\n      pop\n        /* \"#utility.yul\":8369:8378   */\n      dup2\n        /* \"#utility.yul\":8363:8367   */\n      dup2\n        /* \"#utility.yul\":8359:8379   */\n      sub\n        /* \"#utility.yul\":8355:8356   */\n      0x00\n        /* \"#utility.yul\":8344:8353   */\n      dup4\n        /* \"#utility.yul\":8340:8357   */\n      add\n        /* \"#utility.yul\":8333:8380   */\n      mstore\n        /* \"#utility.yul\":8397:8565   */\n      tag_279\n        /* \"#utility.yul\":8560:8564   */\n      dup2\n        /* \"#utility.yul\":8551:8557   */\n      dup5\n        /* \"#utility.yul\":8397:8565   */\n      tag_208\n      jump\t// in\n    tag_279:\n        /* \"#utility.yul\":8389:8565   */\n      swap1\n      pop\n        /* \"#utility.yul\":8079:8572   */\n      swap3\n      swap2\n      pop\n      pop\n      jump\t// out\n        /* \"#utility.yul\":8578:8788   */\n    tag_22:\n        /* \"#utility.yul\":8665:8669   */\n      0x00\n        /* \"#utility.yul\":8703:8705   */\n      0x20\n        /* \"#utility.yul\":8692:8701   */\n      dup3\n        /* \"#utility.yul\":8688:8706   */\n      add\n        /* \"#utility.yul\":8680:8706   */\n      swap1\n      pop\n        /* \"#utility.yul\":8716:8781   */\n      tag_281\n        /* \"#utility.yul\":8778:8779   */\n      0x00\n        /* \"#utility.yul\":8767:8776   */\n      dup4\n        /* \"#utility.yul\":8763:8780   */\n      add\n        /* \"#utility.yul\":8754:8760   */\n      dup5\n        /* \"#utility.yul\":8716:8781   */\n      tag_226\n      jump\t// in\n    tag_281:\n        /* \"#utility.yul\":8578:8788   */\n      swap3\n      swap2\n      pop\n      pop\n      jump\t// out\n        /* \"#utility.yul\":8794:9213   */\n    tag_55:\n        /* \"#utility.yul\":8960:8964   */\n      0x00\n        /* \"#utility.yul\":8998:9000   */\n      0x20\n        /* \"#utility.yul\":8987:8996   */\n      dup3\n        /* \"#utility.yul\":8983:9001   */\n      add\n        /* \"#utility.yul\":8975:9001   */\n      swap1\n      pop\n        /* \"#utility.yul\":9047:9056   */\n      dup2\n        /* \"#utility.yul\":9041:9045   */\n      dup2\n        /* \"#utility.yul\":9037:9057   */\n      sub\n        /* \"#utility.yul\":9033:9034   */\n      0x00\n        /* \"#utility.yul\":9022:9031   */\n      dup4\n        /* \"#utility.yul\":9018:9035   */\n      add\n        /* \"#utility.yul\":9011:9058   */\n      mstore\n        /* \"#utility.yul\":9075:9206   */\n      tag_283\n        /* \"#utility.yul\":9201:9205   */\n      dup2\n        /* \"#utility.yul\":9075:9206   */\n      tag_229\n      jump\t// in\n    tag_283:\n        /* \"#utility.yul\":9067:9206   */\n      swap1\n      pop\n        /* \"#utility.yul\":8794:9213   */\n      swap2\n      swap1\n      pop\n      jump\t// out\n        /* \"#utility.yul\":9219:9638   */\n    tag_59:\n        /* \"#utility.yul\":9385:9389   */\n      0x00\n        /* \"#utility.yul\":9423:9425   */\n      0x20\n        /* \"#utility.yul\":9412:9421   */\n      dup3\n        /* \"#utility.yul\":9408:9426   */\n      add\n        /* \"#utility.yul\":9400:9426   */\n      swap1\n      pop\n        /* \"#utility.yul\":9472:9481   */\n      dup2\n        /* \"#utility.yul\":9466:9470   */\n      dup2\n        /* \"#utility.yul\":9462:9482   */\n      sub\n        /* \"#utility.yul\":9458:9459   */\n      0x00\n        /* \"#utility.yul\":9447:9456   */\n      dup4\n        /* \"#utility.yul\":9443:9460   */\n      add\n        /* \"#utility.yul\":9436:9483   */\n      mstore\n        /* \"#utility.yul\":9500:9631   */\n      tag_285\n        /* \"#utility.yul\":9626:9630   */\n      dup2\n        /* \"#utility.yul\":9500:9631   */\n      tag_235\n      jump\t// in\n    tag_285:\n        /* \"#utility.yul\":9492:9631   */\n      swap1\n      pop\n        /* \"#utility.yul\":9219:9638   */\n      swap2\n      swap1\n      pop\n      jump\t// out\n        /* \"#utility.yul\":9644:10063   */\n    tag_104:\n        /* \"#utility.yul\":9810:9814   */\n      0x00\n        /* \"#utility.yul\":9848:9850   */\n      0x20\n        /* \"#utility.yul\":9837:9846   */\n      dup3\n        /* \"#utility.yul\":9833:9851   */\n      add\n        /* \"#utility.yul\":9825:9851   */\n      swap1\n      pop\n        /* \"#utility.yul\":9897:9906   */\n      dup2\n        /* \"#utility.yul\":9891:9895   */\n      dup2\n        /* \"#utility.yul\":9887:9907   */\n      sub\n        /* \"#utility.yul\":9883:9884   */\n      0x00\n        /* \"#utility.yul\":9872:9881   */\n      dup4\n        /* \"#utility.yul\":9868:9885   */\n      add\n        /* \"#utility.yul\":9861:9908   */\n      mstore\n        /* \"#utility.yul\":9925:10056   */\n      tag_287\n        /* \"#utility.yul\":10051:10055   */\n      dup2\n        /* \"#utility.yul\":9925:10056   */\n      tag_240\n      jump\t// in\n    tag_287:\n        /* \"#utility.yul\":9917:10056   */\n      swap1\n      pop\n        /* \"#utility.yul\":9644:10063   */\n      swap2\n      swap1\n      pop\n      jump\t// out\n        /* \"#utility.yul\":10069:10488   */\n    tag_125:\n        /* \"#utility.yul\":10235:10239   */\n      0x00\n        /* \"#utility.yul\":10273:10275   */\n      0x20\n        /* \"#utility.yul\":10262:10271   */\n      dup3\n        /* \"#utility.yul\":10258:10276   */\n      add\n        /* \"#utility.yul\":10250:10276   */\n      swap1\n      pop\n        /* \"#utility.yul\":10322:10331   */\n      dup2\n        /* \"#utility.yul\":10316:10320   */\n      dup2\n        /* \"#utility.yul\":10312:10332   */\n      sub\n        /* \"#utility.yul\":10308:10309   */\n      0x00\n        /* \"#utility.yul\":10297:10306   */\n      dup4\n        /* \"#utility.yul\":10293:10310   */\n      add\n        /* \"#utility.yul\":10286:10333   */\n      mstore\n        /* \"#utility.yul\":10350:10481   */\n      tag_289\n        /* \"#utility.yul\":10476:10480   */\n      dup2\n        /* \"#utility.yul\":10350:10481   */\n      tag_245\n      jump\t// in\n    tag_289:\n        /* \"#utility.yul\":10342:10481   */\n      swap1\n      pop\n        /* \"#utility.yul\":10069:10488   */\n      swap2\n      swap1\n      pop\n      jump\t// out\n        /* \"#utility.yul\":10494:10913   */\n    tag_115:\n        /* \"#utility.yul\":10660:10664   */\n      0x00\n        /* \"#utility.yul\":10698:10700   */\n      0x20\n        /* \"#utility.yul\":10687:10696   */\n      dup3\n        /* \"#utility.yul\":10683:10701   */\n      add\n        /* \"#utility.yul\":10675:10701   */\n      swap1\n      pop\n        /* \"#utility.yul\":10747:10756   */\n      dup2\n        /* \"#utility.yul\":10741:10745   */\n      dup2\n        /* \"#utility.yul\":10737:10757   */\n      sub\n        /* \"#utility.yul\":10733:10734   */\n      0x00\n        /* \"#utility.yul\":10722:10731   */\n      dup4\n        /* \"#utility.yul\":10718:10735   */\n      add\n        /* \"#utility.yul\":10711:10758   */\n      mstore\n        /* \"#utility.yul\":10775:10906   */\n      tag_291\n        /* \"#utility.yul\":10901:10905   */\n      dup2\n        /* \"#utility.yul\":10775:10906   */\n      tag_250\n      jump\t// in\n    tag_291:\n        /* \"#utility.yul\":10767:10906   */\n      swap1\n      pop\n        /* \"#utility.yul\":10494:10913   */\n      swap2\n      swap1\n      pop\n      jump\t// out\n        /* \"#utility.yul\":10919:11141   */\n    tag_35:\n        /* \"#utility.yul\":11012:11016   */\n      0x00\n        /* \"#utility.yul\":11050:11052   */\n      0x20\n        /* \"#utility.yul\":11039:11048   */\n      dup3\n        /* \"#utility.yul\":11035:11053   */\n      add\n        /* \"#utility.yul\":11027:11053   */\n      swap1\n      pop\n        /* \"#utility.yul\":11063:11134   */\n      tag_293\n        /* \"#utility.yul\":11131:11132   */\n      0x00\n        /* \"#utility.yul\":11120:11129   */\n      dup4\n        /* \"#utility.yul\":11116:11133   */\n      add\n        /* \"#utility.yul\":11107:11113   */\n      dup5\n        /* \"#utility.yul\":11063:11134   */\n      tag_266\n      jump\t// in\n    tag_293:\n        /* \"#utility.yul\":10919:11141   */\n      swap3\n      swap2\n      pop\n      pop\n      jump\t// out\n        /* \"#utility.yul\":11147:11799   */\n    tag_47:\n        /* \"#utility.yul\":11346:11350   */\n      0x00\n        /* \"#utility.yul\":11384:11387   */\n      0xa0\n        /* \"#utility.yul\":11373:11382   */\n      dup3\n        /* \"#utility.yul\":11369:11388   */\n      add\n        /* \"#utility.yul\":11361:11388   */\n      swap1\n      pop\n        /* \"#utility.yul\":11398:11469   */\n      tag_295\n        /* \"#utility.yul\":11466:11467   */\n      0x00\n        /* \"#utility.yul\":11455:11464   */\n      dup4\n        /* \"#utility.yul\":11451:11468   */\n      add\n        /* \"#utility.yul\":11442:11448   */\n      dup9\n        /* \"#utility.yul\":11398:11469   */\n      tag_266\n      jump\t// in\n    tag_295:\n        /* \"#utility.yul\":11479:11551   */\n      tag_296\n        /* \"#utility.yul\":11547:11549   */\n      0x20\n        /* \"#utility.yul\":11536:11545   */\n      dup4\n        /* \"#utility.yul\":11532:11550   */\n      add\n        /* \"#utility.yul\":11523:11529   */\n      dup8\n        /* \"#utility.yul\":11479:11551   */\n      tag_204\n      jump\t// in\n    tag_296:\n        /* \"#utility.yul\":11561:11627   */\n      tag_297\n        /* \"#utility.yul\":11623:11625   */\n      0x40\n        /* \"#utility.yul\":11612:11621   */\n      dup4\n        /* \"#utility.yul\":11608:11626   */\n      add\n        /* \"#utility.yul\":11599:11605   */\n      dup7\n        /* \"#utility.yul\":11561:11627   */\n      tag_226\n      jump\t// in\n    tag_297:\n        /* \"#utility.yul\":11637:11709   */\n      tag_298\n        /* \"#utility.yul\":11705:11707   */\n      0x60\n        /* \"#utility.yul\":11694:11703   */\n      dup4\n        /* \"#utility.yul\":11690:11708   */\n      add\n        /* \"#utility.yul\":11681:11687   */\n      dup6\n        /* \"#utility.yul\":11637:11709   */\n      tag_266\n      jump\t// in\n    tag_298:\n        /* \"#utility.yul\":11719:11792   */\n      tag_299\n        /* \"#utility.yul\":11787:11790   */\n      0x80\n        /* \"#utility.yul\":11776:11785   */\n      dup4\n        /* \"#utility.yul\":11772:11791   */\n      add\n        /* \"#utility.yul\":11763:11769   */\n      dup5\n        /* \"#utility.yul\":11719:11792   */\n      tag_266\n      jump\t// in\n    tag_299:\n        /* \"#utility.yul\":11147:11799   */\n      swap7\n      swap6\n      pop\n      pop\n      pop\n      pop\n      pop\n      pop\n      jump\t// out\n        /* \"#utility.yul\":11805:12358   */\n    tag_27:\n        /* \"#utility.yul\":11982:11986   */\n      0x00\n        /* \"#utility.yul\":12020:12023   */\n      0x80\n        /* \"#utility.yul\":12009:12018   */\n      dup3\n        /* \"#utility.yul\":12005:12024   */\n      add\n        /* \"#utility.yul\":11997:12024   */\n      swap1\n      pop\n        /* \"#utility.yul\":12034:12105   */\n      tag_301\n        /* \"#utility.yul\":12102:12103   */\n      0x00\n        /* \"#utility.yul\":12091:12100   */\n      dup4\n        /* \"#utility.yul\":12087:12104   */\n      add\n        /* \"#utility.yul\":12078:12084   */\n      dup8\n        /* \"#utility.yul\":12034:12105   */\n      tag_266\n      jump\t// in\n    tag_301:\n        /* \"#utility.yul\":12115:12187   */\n      tag_302\n        /* \"#utility.yul\":12183:12185   */\n      0x20\n        /* \"#utility.yul\":12172:12181   */\n      dup4\n        /* \"#utility.yul\":12168:12186   */\n      add\n        /* \"#utility.yul\":12159:12165   */\n      dup7\n        /* \"#utility.yul\":12115:12187   */\n      tag_266\n      jump\t// in\n    tag_302:\n        /* \"#utility.yul\":12197:12269   */\n      tag_303\n        /* \"#utility.yul\":12265:12267   */\n      0x40\n        /* \"#utility.yul\":12254:12263   */\n      dup4\n        /* \"#utility.yul\":12250:12268   */\n      add\n        /* \"#utility.yul\":12241:12247   */\n      dup6\n        /* \"#utility.yul\":12197:12269   */\n      tag_266\n      jump\t// in\n    tag_303:\n        /* \"#utility.yul\":12279:12351   */\n      tag_304\n        /* \"#utility.yul\":12347:12349   */\n      0x60\n        /* \"#utility.yul\":12336:12345   */\n      dup4\n        /* \"#utility.yul\":12332:12350   */\n      add\n        /* \"#utility.yul\":12323:12329   */\n      dup5\n        /* \"#utility.yul\":12279:12351   */\n      tag_266\n      jump\t// in\n    tag_304:\n        /* \"#utility.yul\":11805:12358   */\n      swap6\n      swap5\n      pop\n      pop\n      pop\n      pop\n      pop\n      jump\t// out\n        /* \"#utility.yul\":12445:12607   */\n    tag_215:\n        /* \"#utility.yul\":12542:12546   */\n      0x00\n        /* \"#utility.yul\":12565:12568   */\n      dup2\n        /* \"#utility.yul\":12557:12568   */\n      swap1\n      pop\n        /* \"#utility.yul\":12595:12599   */\n      0x20\n        /* \"#utility.yul\":12590:12593   */\n      dup3\n        /* \"#utility.yul\":12586:12600   */\n      add\n        /* \"#utility.yul\":12578:12600   */\n      swap1\n      pop\n        /* \"#utility.yul\":12445:12607   */\n      swap2\n      swap1\n      pop\n      jump\t// out\n        /* \"#utility.yul\":12613:12757   */\n    tag_211:\n        /* \"#utility.yul\":12710:12716   */\n      0x00\n        /* \"#utility.yul\":12744:12749   */\n      dup2\n        /* \"#utility.yul\":12738:12750   */\n      mload\n        /* \"#utility.yul\":12728:12750   */\n      swap1\n      pop\n        /* \"#utility.yul\":12613:12757   */\n      swap2\n      swap1\n      pop\n      jump\t// out\n        /* \"#utility.yul\":12763:12906   */\n    tag_221:\n        /* \"#utility.yul\":12863:12867   */\n      0x00\n        /* \"#utility.yul\":12895:12899   */\n      0x20\n        /* \"#utility.yul\":12890:12893   */\n      dup3\n        /* \"#utility.yul\":12886:12900   */\n      add\n        /* \"#utility.yul\":12878:12900   */\n      swap1\n      pop\n        /* \"#utility.yul\":12763:12906   */\n      swap2\n      swap1\n      pop\n      jump\t// out\n        /* \"#utility.yul\":12912:13126   */\n    tag_213:\n        /* \"#utility.yul\":13041:13052   */\n      0x00\n        /* \"#utility.yul\":13075:13081   */\n      dup3\n        /* \"#utility.yul\":13070:13073   */\n      dup3\n        /* \"#utility.yul\":13063:13082   */\n      mstore\n        /* \"#utility.yul\":13115:13119   */\n      0x20\n        /* \"#utility.yul\":13110:13113   */\n      dup3\n        /* \"#utility.yul\":13106:13120   */\n      add\n        /* \"#utility.yul\":13091:13120   */\n      swap1\n      pop\n        /* \"#utility.yul\":12912:13126   */\n      swap3\n      swap2\n      pop\n      pop\n      jump\t// out\n        /* \"#utility.yul\":13132:13301   */\n    tag_232:\n        /* \"#utility.yul\":13216:13227   */\n      0x00\n        /* \"#utility.yul\":13250:13256   */\n      dup3\n        /* \"#utility.yul\":13245:13248   */\n      dup3\n        /* \"#utility.yul\":13238:13257   */\n      mstore\n        /* \"#utility.yul\":13290:13294   */\n      0x20\n        /* \"#utility.yul\":13285:13288   */\n      dup3\n        /* \"#utility.yul\":13281:13295   */\n      add\n        /* \"#utility.yul\":13266:13295   */\n      swap1\n      pop\n        /* \"#utility.yul\":13132:13301   */\n      swap3\n      swap2\n      pop\n      pop\n      jump\t// out\n        /* \"#utility.yul\":13307:13612   */\n    tag_127:\n        /* \"#utility.yul\":13347:13350   */\n      0x00\n        /* \"#utility.yul\":13366:13386   */\n      tag_313\n        /* \"#utility.yul\":13384:13385   */\n      dup3\n        /* \"#utility.yul\":13366:13386   */\n      tag_265\n      jump\t// in\n    tag_313:\n        /* \"#utility.yul\":13361:13386   */\n      swap2\n      pop\n        /* \"#utility.yul\":13400:13420   */\n      tag_314\n        /* \"#utility.yul\":13418:13419   */\n      dup4\n        /* \"#utility.yul\":13400:13420   */\n      tag_265\n      jump\t// in\n    tag_314:\n        /* \"#utility.yul\":13395:13420   */\n      swap3\n      pop\n        /* \"#utility.yul\":13554:13555   */\n      dup3\n        /* \"#utility.yul\":13486:13552   */\n      0xffffffffffffffffffffffffffffffffffffffffffffffffffffffffffffffff\n        /* \"#utility.yul\":13482:13556   */\n      sub\n        /* \"#utility.yul\":13479:13480   */\n      dup3\n        /* \"#utility.yul\":13476:13557   */\n      gt\n        /* \"#utility.yul\":13473:13580   */\n      iszero\n      tag_315\n      jumpi\n        /* \"#utility.yul\":13560:13578   */\n      tag_316\n      tag_317\n      jump\t// in\n    tag_316:\n        /* \"#utility.yul\":13473:13580   */\n    tag_315:\n        /* \"#utility.yul\":13604:13605   */\n      dup3\n        /* \"#utility.yul\":13601:13602   */\n      dup3\n        /* \"#utility.yul\":13597:13606   */\n      add\n        /* \"#utility.yul\":13590:13606   */\n      swap1\n      pop\n        /* \"#utility.yul\":13307:13612   */\n      swap3\n      swap2\n      pop\n      pop\n      jump\t// out\n        /* \"#utility.yul\":13618:13803   */\n    tag_163:\n        /* \"#utility.yul\":13658:13659   */\n      0x00\n        /* \"#utility.yul\":13675:13695   */\n      tag_319\n        /* \"#utility.yul\":13693:13694   */\n      dup3\n        /* \"#utility.yul\":13675:13695   */\n      tag_265\n      jump\t// in\n    tag_319:\n        /* \"#utility.yul\":13670:13695   */\n      swap2\n      pop\n        /* \"#utility.yul\":13709:13729   */\n      tag_320\n        /* \"#utility.yul\":13727:13728   */\n      dup4\n        /* \"#utility.yul\":13709:13729   */\n      tag_265\n      jump\t// in\n    tag_320:\n        /* \"#utility.yul\":13704:13729   */\n      swap3\n      pop\n        /* \"#utility.yul\":13748:13749   */\n      dup3\n        /* \"#utility.yul\":13738:13773   */\n      tag_321\n      jumpi\n        /* \"#utility.yul\":13753:13771   */\n      tag_322\n      tag_323\n      jump\t// in\n    tag_322:\n        /* \"#utility.yul\":13738:13773   */\n    tag_321:\n        /* \"#utility.yul\":13795:13796   */\n      dup3\n        /* \"#utility.yul\":13792:13793   */\n      dup3\n        /* \"#utility.yul\":13788:13797   */\n      div\n        /* \"#utility.yul\":13783:13797   */\n      swap1\n      pop\n        /* \"#utility.yul\":13618:13803   */\n      swap3\n      swap2\n      pop\n      pop\n      jump\t// out\n        /* \"#utility.yul\":13809:14157   */\n    tag_106:\n        /* \"#utility.yul\":13849:13856   */\n      0x00\n        /* \"#utility.yul\":13872:13892   */\n      tag_325\n        /* \"#utility.yul\":13890:13891   */\n      dup3\n        /* \"#utility.yul\":13872:13892   */\n      tag_265\n      jump\t// in\n    tag_325:\n        /* \"#utility.yul\":13867:13892   */\n      swap2\n      pop\n        /* \"#utility.yul\":13906:13926   */\n      tag_326\n        /* \"#utility.yul\":13924:13925   */\n      dup4\n        /* \"#utility.yul\":13906:13926   */\n      tag_265\n      jump\t// in\n    tag_326:\n        /* \"#utility.yul\":13901:13926   */\n      swap3\n      pop\n        /* \"#utility.yul\":14094:14095   */\n      dup2\n        /* \"#utility.yul\":14026:14092   */\n      0xffffffffffffffffffffffffffffffffffffffffffffffffffffffffffffffff\n        /* \"#utility.yul\":14022:14096   */\n      div\n        /* \"#utility.yul\":14019:14020   */\n      dup4\n        /* \"#utility.yul\":14016:14097   */\n      gt\n        /* \"#utility.yul\":14011:14012   */\n      dup3\n        /* \"#utility.yul\":14004:14013   */\n      iszero\n        /* \"#utility.yul\":13997:14014   */\n      iszero\n        /* \"#utility.yul\":13993:14098   */\n      and\n        /* \"#utility.yul\":13990:14121   */\n      iszero\n      tag_327\n      jumpi\n        /* \"#utility.yul\":14101:14119   */\n      tag_328\n      tag_317\n      jump\t// in\n    tag_328:\n        /* \"#utility.yul\":13990:14121   */\n    tag_327:\n        /* \"#utility.yul\":14149:14150   */\n      dup3\n        /* \"#utility.yul\":14146:14147   */\n      dup3\n        /* \"#utility.yul\":14142:14151   */\n      mul\n        /* \"#utility.yul\":14131:14151   */\n      swap1\n      pop\n        /* \"#utility.yul\":13809:14157   */\n      swap3\n      swap2\n      pop\n      pop\n      jump\t// out\n        /* \"#utility.yul\":14163:14354   */\n    tag_70:\n        /* \"#utility.yul\":14203:14207   */\n      0x00\n        /* \"#utility.yul\":14223:14243   */\n      tag_330\n        /* \"#utility.yul\":14241:14242   */\n      dup3\n        /* \"#utility.yul\":14223:14243   */\n      tag_265\n      jump\t// in\n    tag_330:\n        /* \"#utility.yul\":14218:14243   */\n      swap2\n      pop\n        /* \"#utility.yul\":14257:14277   */\n      tag_331\n        /* \"#utility.yul\":14275:14276   */\n      dup4\n        /* \"#utility.yul\":14257:14277   */\n      tag_265\n      jump\t// in\n    tag_331:\n        /* \"#utility.yul\":14252:14277   */\n      swap3\n      pop\n        /* \"#utility.yul\":14296:14297   */\n      dup3\n        /* \"#utility.yul\":14293:14294   */\n      dup3\n        /* \"#utility.yul\":14290:14298   */\n      lt\n        /* \"#utility.yul\":14287:14321   */\n      iszero\n      tag_332\n      jumpi\n        /* \"#utility.yul\":14301:14319   */\n      tag_333\n      tag_317\n      jump\t// in\n    tag_333:\n        /* \"#utility.yul\":14287:14321   */\n    tag_332:\n        /* \"#utility.yul\":14346:14347   */\n      dup3\n        /* \"#utility.yul\":14343:14344   */\n      dup3\n        /* \"#utility.yul\":14339:14348   */\n      sub\n        /* \"#utility.yul\":14331:14348   */\n      swap1\n      pop\n        /* \"#utility.yul\":14163:14354   */\n      swap3\n      swap2\n      pop\n      pop\n      jump\t// out\n        /* \"#utility.yul\":14360:14456   */\n    tag_207:\n        /* \"#utility.yul\":14397:14404   */\n      0x00\n        /* \"#utility.yul\":14426:14450   */\n      tag_335\n        /* \"#utility.yul\":14444:14449   */\n      dup3\n        /* \"#utility.yul\":14426:14450   */\n      tag_336\n      jump\t// in\n    tag_335:\n        /* \"#utility.yul\":14415:14450   */\n      swap1\n      pop\n        /* \"#utility.yul\":14360:14456   */\n      swap2\n      swap1\n      pop\n      jump\t// out\n        /* \"#utility.yul\":14462:14552   */\n    tag_225:\n        /* \"#utility.yul\":14496:14503   */\n      0x00\n        /* \"#utility.yul\":14539:14544   */\n      dup2\n        /* \"#utility.yul\":14532:14545   */\n      iszero\n        /* \"#utility.yul\":14525:14546   */\n      iszero\n        /* \"#utility.yul\":14514:14546   */\n      swap1\n      pop\n        /* \"#utility.yul\":14462:14552   */\n      swap2\n      swap1\n      pop\n      jump\t// out\n        /* \"#utility.yul\":14558:14684   */\n    tag_336:\n        /* \"#utility.yul\":14595:14602   */\n      0x00\n        /* \"#utility.yul\":14635:14677   */\n      0xffffffffffffffffffffffffffffffffffffffff\n        /* \"#utility.yul\":14628:14633   */\n      dup3\n        /* \"#utility.yul\":14624:14678   */\n      and\n        /* \"#utility.yul\":14613:14678   */\n      swap1\n      pop\n        /* \"#utility.yul\":14558:14684   */\n      swap2\n      swap1\n      pop\n      jump\t// out\n        /* \"#utility.yul\":14690:14767   */\n    tag_265:\n        /* \"#utility.yul\":14727:14734   */\n      0x00\n        /* \"#utility.yul\":14756:14761   */\n      dup2\n        /* \"#utility.yul\":14745:14761   */\n      swap1\n      pop\n        /* \"#utility.yul\":14690:14767   */\n      swap2\n      swap1\n      pop\n      jump\t// out\n        /* \"#utility.yul\":14773:15006   */\n    tag_78:\n        /* \"#utility.yul\":14812:14815   */\n      0x00\n        /* \"#utility.yul\":14835:14859   */\n      tag_341\n        /* \"#utility.yul\":14853:14858   */\n      dup3\n        /* \"#utility.yul\":14835:14859   */\n      tag_265\n      jump\t// in\n    tag_341:\n        /* \"#utility.yul\":14826:14859   */\n      swap2\n      pop\n        /* \"#utility.yul\":14881:14947   */\n      0xffffffffffffffffffffffffffffffffffffffffffffffffffffffffffffffff\n        /* \"#utility.yul\":14874:14879   */\n      dup3\n        /* \"#utility.yul\":14871:14948   */\n      eq\n        /* \"#utility.yul\":14868:14971   */\n      iszero\n      tag_342\n      jumpi\n        /* \"#utility.yul\":14951:14969   */\n      tag_343\n      tag_317\n      jump\t// in\n    tag_343:\n        /* \"#utility.yul\":14868:14971   */\n    tag_342:\n        /* \"#utility.yul\":14998:14999   */\n      0x01\n        /* \"#utility.yul\":14991:14996   */\n      dup3\n        /* \"#utility.yul\":14987:15000   */\n      add\n        /* \"#utility.yul\":14980:15000   */\n      swap1\n      pop\n        /* \"#utility.yul\":14773:15006   */\n      swap2\n      swap1\n      pop\n      jump\t// out\n        /* \"#utility.yul\":15012:15192   */\n    tag_317:\n        /* \"#utility.yul\":15060:15137   */\n      0x4e487b7100000000000000000000000000000000000000000000000000000000\n        /* \"#utility.yul\":15057:15058   */\n      0x00\n        /* \"#utility.yul\":15050:15138   */\n      mstore\n        /* \"#utility.yul\":15157:15161   */\n      0x11\n        /* \"#utility.yul\":15154:15155   */\n      0x04\n        /* \"#utility.yul\":15147:15162   */\n      mstore\n        /* \"#utility.yul\":15181:15185   */\n      0x24\n        /* \"#utility.yul\":15178:15179   */\n      0x00\n        /* \"#utility.yul\":15171:15186   */\n      revert\n        /* \"#utility.yul\":15198:15378   */\n    tag_323:\n        /* \"#utility.yul\":15246:15323   */\n      0x4e487b7100000000000000000000000000000000000000000000000000000000\n        /* \"#utility.yul\":15243:15244   */\n      0x00\n        /* \"#utility.yul\":15236:15324   */\n      mstore\n        /* \"#utility.yul\":15343:15347   */\n      0x12\n        /* \"#utility.yul\":15340:15341   */\n      0x04\n        /* \"#utility.yul\":15333:15348   */\n      mstore\n        /* \"#utility.yul\":15367:15371   */\n      0x24\n        /* \"#utility.yul\":15364:15365   */\n      0x00\n        /* \"#utility.yul\":15357:15372   */\n      revert\n        /* \"#utility.yul\":15384:15564   */\n    tag_94:\n        /* \"#utility.yul\":15432:15509   */\n      0x4e487b7100000000000000000000000000000000000000000000000000000000\n        /* \"#utility.yul\":15429:15430   */\n      0x00\n        /* \"#utility.yul\":15422:15510   */\n      mstore\n        /* \"#utility.yul\":15529:15533   */\n      0x32\n        /* \"#utility.yul\":15526:15527   */\n      0x04\n        /* \"#utility.yul\":15519:15534   */\n      mstore\n        /* \"#utility.yul\":15553:15557   */\n      0x24\n        /* \"#utility.yul\":15550:15551   */\n      0x00\n        /* \"#utility.yul\":15543:15558   */\n      revert\n        /* \"#utility.yul\":15570:15750   */\n    tag_82:\n        /* \"#utility.yul\":15618:15695   */\n      0x4e487b7100000000000000000000000000000000000000000000000000000000\n        /* \"#utility.yul\":15615:15616   */\n      0x00\n        /* \"#utility.yul\":15608:15696   */\n      mstore\n        /* \"#utility.yul\":15715:15719   */\n      0x41\n        /* \"#utility.yul\":15712:15713   */\n      0x04\n        /* \"#utility.yul\":15705:15720   */\n      mstore\n        /* \"#utility.yul\":15739:15743   */\n      0x24\n        /* \"#utility.yul\":15736:15737   */\n      0x00\n        /* \"#utility.yul\":15729:15744   */\n      revert\n        /* \"#utility.yul\":15879:15996   */\n    tag_186:\n        /* \"#utility.yul\":15988:15989   */\n      0x00\n        /* \"#utility.yul\":15985:15986   */\n      dup1\n        /* \"#utility.yul\":15978:15990   */\n      revert\n        /* \"#utility.yul\":16002:16181   */\n    tag_234:\n        /* \"#utility.yul\":16142:16173   */\n      0x796f7520646f6e74206861766520746f6b656e7320746f20636c61696d000000\n        /* \"#utility.yul\":16138:16139   */\n      0x00\n        /* \"#utility.yul\":16130:16136   */\n      dup3\n        /* \"#utility.yul\":16126:16140   */\n      add\n        /* \"#utility.yul\":16119:16174   */\n      mstore\n        /* \"#utility.yul\":16002:16181   */\n      pop\n      jump\t// out\n        /* \"#utility.yul\":16187:16417   */\n    tag_239:\n        /* \"#utility.yul\":16327:16361   */\n      0x696e766573746d656e7420636c61696d2074696d652074696d65206973206e6f\n        /* \"#utility.yul\":16323:16324   */\n      0x00\n        /* \"#utility.yul\":16315:16321   */\n      dup3\n        /* \"#utility.yul\":16311:16325   */\n      add\n        /* \"#utility.yul\":16304:16362   */\n      mstore\n        /* \"#utility.yul\":16396:16409   */\n      0x7420636f6d706c65746564000000000000000000000000000000000000000000\n        /* \"#utility.yul\":16391:16393   */\n      0x20\n        /* \"#utility.yul\":16383:16389   */\n      dup3\n        /* \"#utility.yul\":16379:16394   */\n      add\n        /* \"#utility.yul\":16372:16410   */\n      mstore\n        /* \"#utility.yul\":16187:16417   */\n      pop\n      jump\t// out\n        /* \"#utility.yul\":16423:16647   */\n    tag_244:\n        /* \"#utility.yul\":16563:16597   */\n      0x61736b696e6720746f6b656e7320617265206d6f7265207468616e2074686520\n        /* \"#utility.yul\":16559:16560   */\n      0x00\n        /* \"#utility.yul\":16551:16557   */\n      dup3\n        /* \"#utility.yul\":16547:16561   */\n      add\n        /* \"#utility.yul\":16540:16598   */\n      mstore\n        /* \"#utility.yul\":16632:16639   */\n      0x6c696d6974000000000000000000000000000000000000000000000000000000\n        /* \"#utility.yul\":16627:16629   */\n      0x20\n        /* \"#utility.yul\":16619:16625   */\n      dup3\n        /* \"#utility.yul\":16615:16630   */\n      add\n        /* \"#utility.yul\":16608:16640   */\n      mstore\n        /* \"#utility.yul\":16423:16647   */\n      pop\n      jump\t// out\n        /* \"#utility.yul\":16653:16830   */\n    tag_249:\n        /* \"#utility.yul\":16793:16822   */\n      0x746f6b656e7320646f6573206e6f74207472616e736665727265640000000000\n        /* \"#utility.yul\":16789:16790   */\n      0x00\n        /* \"#utility.yul\":16781:16787   */\n      dup3\n        /* \"#utility.yul\":16777:16791   */\n      add\n        /* \"#utility.yul\":16770:16823   */\n      mstore\n        /* \"#utility.yul\":16653:16830   */\n      pop\n      jump\t// out\n        /* \"#utility.yul\":16836:17058   */\n    tag_254:\n        /* \"#utility.yul\":16976:17010   */\n      0x796f7520646f6e74206861766520656e6f7567682062616c616e636520746f20\n        /* \"#utility.yul\":16972:16973   */\n      0x00\n        /* \"#utility.yul\":16964:16970   */\n      dup3\n        /* \"#utility.yul\":16960:16974   */\n      add\n        /* \"#utility.yul\":16953:17011   */\n      mstore\n        /* \"#utility.yul\":17045:17050   */\n      0x6275790000000000000000000000000000000000000000000000000000000000\n        /* \"#utility.yul\":17040:17042   */\n      0x20\n        /* \"#utility.yul\":17032:17038   */\n      dup3\n        /* \"#utility.yul\":17028:17043   */\n      add\n        /* \"#utility.yul\":17021:17051   */\n      mstore\n        /* \"#utility.yul\":16836:17058   */\n      pop\n      jump\t// out\n        /* \"#utility.yul\":17064:17186   */\n    tag_171:\n        /* \"#utility.yul\":17137:17161   */\n      tag_357\n        /* \"#utility.yul\":17155:17160   */\n      dup2\n        /* \"#utility.yul\":17137:17161   */\n      tag_207\n      jump\t// in\n    tag_357:\n        /* \"#utility.yul\":17130:17135   */\n      dup2\n        /* \"#utility.yul\":17127:17162   */\n      eq\n        /* \"#utility.yul\":17117:17180   */\n      tag_358\n      jumpi\n        /* \"#utility.yul\":17176:17177   */\n      0x00\n        /* \"#utility.yul\":17173:17174   */\n      dup1\n        /* \"#utility.yul\":17166:17178   */\n      revert\n        /* \"#utility.yul\":17117:17180   */\n    tag_358:\n        /* \"#utility.yul\":17064:17186   */\n      pop\n      jump\t// out\n        /* \"#utility.yul\":17192:17308   */\n    tag_175:\n        /* \"#utility.yul\":17262:17283   */\n      tag_360\n        /* \"#utility.yul\":17277:17282   */\n      dup2\n        /* \"#utility.yul\":17262:17283   */\n      tag_225\n      jump\t// in\n    tag_360:\n        /* \"#utility.yul\":17255:17260   */\n      dup2\n        /* \"#utility.yul\":17252:17284   */\n      eq\n        /* \"#utility.yul\":17242:17302   */\n      tag_361\n      jumpi\n        /* \"#utility.yul\":17298:17299   */\n      0x00\n        /* \"#utility.yul\":17295:17296   */\n      dup1\n        /* \"#utility.yul\":17288:17300   */\n      revert\n        /* \"#utility.yul\":17242:17302   */\n    tag_361:\n        /* \"#utility.yul\":17192:17308   */\n      pop\n      jump\t// out\n        /* \"#utility.yul\":17314:17436   */\n    tag_179:\n        /* \"#utility.yul\":17387:17411   */\n      tag_363\n        /* \"#utility.yul\":17405:17410   */\n      dup2\n        /* \"#utility.yul\":17387:17411   */\n      tag_265\n      jump\t// in\n    tag_363:\n        /* \"#utility.yul\":17380:17385   */\n      dup2\n        /* \"#utility.yul\":17377:17412   */\n      eq\n        /* \"#utility.yul\":17367:17430   */\n      tag_364\n      jumpi\n        /* \"#utility.yul\":17426:17427   */\n      0x00\n        /* \"#utility.yul\":17423:17424   */\n      dup1\n        /* \"#utility.yul\":17416:17428   */\n      revert\n        /* \"#utility.yul\":17367:17430   */\n    tag_364:\n        /* \"#utility.yul\":17314:17436   */\n      pop\n      jump\t// out\n\n    auxdata: 0xa264697066735822122045fb88b6582198e3a122a969c1f96cfee6b72cebde8f234cd86bdb6c59215a3d64736f6c63430008070033\n}\n",
				"bytecode": {
					"linkReferences": {},
					"object": "608060405234801561001057600080fd5b5061202a806100206000396000f3fe608060405234801561001057600080fd5b50600436106100935760003560e01c80634e70b1dc116100665780634e70b1dc14610137578063783c94a7146101555780637d43577c1461017357806381e7e20e14610191578063c68d4a38146101c557610093565b80631fef3056146100985780632f8bf52c146100b657806334d5f37b146100e657806344476bfb14610119575b600080fd5b6100a06101f5565b6040516100ad91906119b4565b60405180910390f35b6100d060048036038101906100cb919061176f565b61021b565b6040516100dd9190611a51565b60405180910390f35b61010060048036038101906100fb919061176f565b610678565b6040516101109493929190611b7a565b60405180910390f35b6101216106a8565b60405161012e9190611a2f565b60405180910390f35b61013f610a0d565b60405161014c9190611b0c565b60405180910390f35b61015d610a13565b60405161016a9190611a51565b60405180910390f35b61017b610a9f565b6040516101889190611b0c565b60405180910390f35b6101ab60048036038101906101a69190611715565b610ae8565b6040516101bc959493929190611b27565b60405180910390f35b6101df60048036038101906101da9190611715565b610b4b565b6040516101ec9190611a51565b60405180910390f35b600260009054906101000a900473ffffffffffffffffffffffffffffffffffffffff1681565b6000806000803373ffffffffffffffffffffffffffffffffffffffff1673ffffffffffffffffffffffffffffffffffffffff168152602001908152602001600020600001600084815260200190815260200160002060000154116102b4576040517f08c379a00000000000000000000000000000000000000000000000000000000081526004016102ab90611a6c565b60405180910390fd5b60008060003373ffffffffffffffffffffffffffffffffffffffff1673ffffffffffffffffffffffffffffffffffffffff16815260200190815260200160002060000160008481526020019081526020016000206001015411801561036d5750426000803373ffffffffffffffffffffffffffffffffffffffff1673ffffffffffffffffffffffffffffffffffffffff168152602001908152602001600020600001600084815260200190815260200160002060010154105b6103ac576040517f08c379a00000000000000000000000000000000000000000000000000000000081526004016103a390611a8c565b60405180910390fd5b6000803373ffffffffffffffffffffffffffffffffffffffff1673ffffffffffffffffffffffffffffffffffffffff168152602001908152602001600020600001600083815260200190815260200160002060050160009054906101000a900460ff161561044f576040517f08c379a000000000000000000000000000000000000000000000000000000000815260040161044690611a8c565b60405180910390fd5b600260009054906101000a900473ffffffffffffffffffffffffffffffffffffffff1673ffffffffffffffffffffffffffffffffffffffff1663a9059cbb336000803373ffffffffffffffffffffffffffffffffffffffff1673ffffffffffffffffffffffffffffffffffffffff1681526020019081526020016000206000016000868152602001908152602001600020600001546040518363ffffffff1660e01b8152600401610501929190611a06565b602060405180830381600087803b15801561051b57600080fd5b505af115801561052f573d6000803e3d6000fd5b505050506040513d601f19601f820116820180604052508101906105539190611742565b5060016000803373ffffffffffffffffffffffffffffffffffffffff1673ffffffffffffffffffffffffffffffffffffffff168152602001908152602001600020600001600084815260200190815260200160002060050160006101000a81548160ff0219169083151502179055506000803373ffffffffffffffffffffffffffffffffffffffff1673ffffffffffffffffffffffffffffffffffffffff1681526020019081526020016000206000016000838152602001908152602001600020600001546000803373ffffffffffffffffffffffffffffffffffffffff1673ffffffffffffffffffffffffffffffffffffffff16815260200190815260200160002060010160008282546106689190611cea565b9250508190555060019050919050565b60016020528060005260406000206000915090508060000154908060010154908060020154908060030154905084565b606060008060003373ffffffffffffffffffffffffffffffffffffffff1673ffffffffffffffffffffffffffffffffffffffff16815260200190815260200160002060050154905060008060005b838110156107ea5760008060003373ffffffffffffffffffffffffffffffffffffffff1673ffffffffffffffffffffffffffffffffffffffff1681526020019081526020016000206000016000838152602001908152602001600020600001541180156107c357506000803373ffffffffffffffffffffffffffffffffffffffff1673ffffffffffffffffffffffffffffffffffffffff168152602001908152602001600020600001600082815260200190815260200160002060050160009054906101000a900460ff16155b156107d75782806107d390611d66565b9350505b80806107e290611d66565b9150506106f6565b5060008267ffffffffffffffff81111561080757610806611e3c565b5b60405190808252806020026020018201604052801561084057816020015b61082d611689565b8152602001906001900390816108255790505b50905060005b84811015610a025760008060003373ffffffffffffffffffffffffffffffffffffffff1673ffffffffffffffffffffffffffffffffffffffff16815260200190815260200160002060000160008381526020019081526020016000206000015411801561091357506000803373ffffffffffffffffffffffffffffffffffffffff1673ffffffffffffffffffffffffffffffffffffffff168152602001908152602001600020600001600082815260200190815260200160002060050160009054906101000a900460ff16155b156109ef576000803373ffffffffffffffffffffffffffffffffffffffff1673ffffffffffffffffffffffffffffffffffffffff16815260200190815260200160002060000160008281526020019081526020016000206040518060c001604052908160008201548152602001600182015481526020016002820154815260200160038201548152602001600482015481526020016005820160009054906101000a900460ff1615151515815250508284815181106109d5576109d4611e0d565b5b602002602001018190525082806109eb90611d66565b9350505b80806109fa90611d66565b915050610846565b508094505050505090565b60035481565b6000806000803373ffffffffffffffffffffffffffffffffffffffff1673ffffffffffffffffffffffffffffffffffffffff1681526020019081526020016000206004015411610a98576040517f08c379a0000000000000000000000000000000000000000000000000000000008152600401610a8f90611a6c565b60405180910390fd5b6001905090565b60008060003373ffffffffffffffffffffffffffffffffffffffff1673ffffffffffffffffffffffffffffffffffffffff16815260200190815260200160002060040154905090565b60006020528060005260406000206000915090508060010154908060020160009054906101000a900473ffffffffffffffffffffffffffffffffffffffff16908060020160149054906101000a900460ff16908060040154908060050154905085565b600060016000600354815260200190815260200160002060030154600160006003548152602001908152602001600020600101541115610bc0576040517f08c379a0000000000000000000000000000000000000000000000000000000008152600401610bb790611aac565b60405180910390fd5b670de0b6b3a764000060016000600354815260200190815260200160002060020154610bec9190611c90565b600260009054906101000a900473ffffffffffffffffffffffffffffffffffffffff1673ffffffffffffffffffffffffffffffffffffffff166370a08231336040518263ffffffff1660e01b8152600401610c4791906119b4565b60206040518083038186803b158015610c5f57600080fd5b505afa158015610c73573d6000803e3d6000fd5b505050506040513d601f19601f82011682018060405250810190610c97919061179c565b11610cd7576040517f08c379a0000000000000000000000000000000000000000000000000000000008152600401610cce90611aec565b60405180910390fd5b600260009054906101000a900473ffffffffffffffffffffffffffffffffffffffff1673ffffffffffffffffffffffffffffffffffffffff166323b872dd3330670de0b6b3a764000060016000600354815260200190815260200160002060020154610d439190611c90565b6040518463ffffffff1660e01b8152600401610d61939291906119cf565b602060405180830381600087803b158015610d7b57600080fd5b505af1158015610d8f573d6000803e3d6000fd5b505050506040513d601f19601f82011682018060405250810190610db39190611742565b610df2576040517f08c379a0000000000000000000000000000000000000000000000000000000008152600401610de990611acc565b60405180910390fd5b600160006003548152602001908152602001600020600001546000803373ffffffffffffffffffffffffffffffffffffffff1673ffffffffffffffffffffffffffffffffffffffff16815260200190815260200160002060000160008060003373ffffffffffffffffffffffffffffffffffffffff1673ffffffffffffffffffffffffffffffffffffffff16815260200190815260200160002060050154815260200190815260200160002060000181905550426000803373ffffffffffffffffffffffffffffffffffffffff1673ffffffffffffffffffffffffffffffffffffffff16815260200190815260200160002060000160008060003373ffffffffffffffffffffffffffffffffffffffff1673ffffffffffffffffffffffffffffffffffffffff16815260200190815260200160002060050154815260200190815260200160002060020181905550620d2f0042610f4f9190611c09565b6000803373ffffffffffffffffffffffffffffffffffffffff1673ffffffffffffffffffffffffffffffffffffffff16815260200190815260200160002060000160008060003373ffffffffffffffffffffffffffffffffffffffff1673ffffffffffffffffffffffffffffffffffffffff16815260200190815260200160002060050154815260200190815260200160002060010181905550600160006003548152602001908152602001600020600001546000803373ffffffffffffffffffffffffffffffffffffffff1673ffffffffffffffffffffffffffffffffffffffff16815260200190815260200160002060010160008282546110529190611c09565b925050819055506001600060035481526020019081526020016000206000015460016000600354815260200190815260200160002060030160008282546110999190611cea565b92505081905550600073ffffffffffffffffffffffffffffffffffffffff168273ffffffffffffffffffffffffffffffffffffffff16148061110657503373ffffffffffffffffffffffffffffffffffffffff168273ffffffffffffffffffffffffffffffffffffffff16145b156111915760008060003373ffffffffffffffffffffffffffffffffffffffff1673ffffffffffffffffffffffffffffffffffffffff16815260200190815260200160002060020160006101000a81548173ffffffffffffffffffffffffffffffffffffffff021916908373ffffffffffffffffffffffffffffffffffffffff160217905550611332565b600015156000803373ffffffffffffffffffffffffffffffffffffffff1673ffffffffffffffffffffffffffffffffffffffff16815260200190815260200160002060020160149054906101000a900460ff161515141561130f57816000803373ffffffffffffffffffffffffffffffffffffffff1673ffffffffffffffffffffffffffffffffffffffff16815260200190815260200160002060020160006101000a81548173ffffffffffffffffffffffffffffffffffffffff021916908373ffffffffffffffffffffffffffffffffffffffff1602179055506000808373ffffffffffffffffffffffffffffffffffffffff1673ffffffffffffffffffffffffffffffffffffffff168152602001908152602001600020600301339080600181540180825580915050600190039060005260206000200160009091909190916101000a81548173ffffffffffffffffffffffffffffffffffffffff021916908373ffffffffffffffffffffffffffffffffffffffff1602179055505b61133133600160006003548152602001908152602001600020600001546113cf565b5b600060016000600354815260200190815260200160002060030154141561136c576003600081548092919061136690611d66565b91905055505b60016000803373ffffffffffffffffffffffffffffffffffffffff1673ffffffffffffffffffffffffffffffffffffffff16815260200190815260200160002060020160146101000a81548160ff02191690831515021790555060019050919050565b60008290506000600567ffffffffffffffff8111156113f1576113f0611e3c565b5b60405190808252806020026020018201604052801561141f5781602001602082028036833780820191505090505b50905060058160008151811061143857611437611e0d565b5b60200260200101818152505060048160018151811061145a57611459611e0d565b5b60200260200101818152505060038160028151811061147c5761147b611e0d565b5b602002602001018181525050600080600090505b60038110156116815760008114156114ab57600091506114cd565b60018114156114bd57600191506114cc565b60028114156114cb57600291505b5b5b600073ffffffffffffffffffffffffffffffffffffffff166000808673ffffffffffffffffffffffffffffffffffffffff1673ffffffffffffffffffffffffffffffffffffffff16815260200190815260200160002060020160009054906101000a900473ffffffffffffffffffffffffffffffffffffffff1673ffffffffffffffffffffffffffffffffffffffff1614611669576000808573ffffffffffffffffffffffffffffffffffffffff1673ffffffffffffffffffffffffffffffffffffffff16815260200190815260200160002060020160009054906101000a900473ffffffffffffffffffffffffffffffffffffffff16935060006064866305f5e1008686815181106115e3576115e2611e0d565b5b60200260200101516115f59190611c90565b6115ff9190611c90565b6116099190611c5f565b9050806000808773ffffffffffffffffffffffffffffffffffffffff1673ffffffffffffffffffffffffffffffffffffffff168152602001908152602001600020600401600082825461165c9190611c09565b925050819055505061166e565b611681565b808061167990611d66565b915050611490565b505050505050565b6040518060c0016040528060008152602001600081526020016000815260200160008152602001600081526020016000151581525090565b6000813590506116d081611faf565b92915050565b6000815190506116e581611fc6565b92915050565b6000813590506116fa81611fdd565b92915050565b60008151905061170f81611fdd565b92915050565b60006020828403121561172b5761172a611e6b565b5b6000611739848285016116c1565b91505092915050565b60006020828403121561175857611757611e6b565b5b6000611766848285016116d6565b91505092915050565b60006020828403121561178557611784611e6b565b5b6000611793848285016116eb565b91505092915050565b6000602082840312156117b2576117b1611e6b565b5b60006117c084828501611700565b91505092915050565b60006117d5838361191b565b60c08301905092915050565b6117ea81611d1e565b82525050565b60006117fb82611bcf565b6118058185611be7565b935061181083611bbf565b8060005b8381101561184157815161182888826117c9565b975061183383611bda565b925050600181019050611814565b5085935050505092915050565b61185781611d30565b82525050565b61186681611d30565b82525050565b6000611879601d83611bf8565b915061188482611e70565b602082019050919050565b600061189c602b83611bf8565b91506118a782611e99565b604082019050919050565b60006118bf602583611bf8565b91506118ca82611ee8565b604082019050919050565b60006118e2601b83611bf8565b91506118ed82611f37565b602082019050919050565b6000611905602383611bf8565b915061191082611f60565b604082019050919050565b60c0820160008201516119316000850182611996565b5060208201516119446020850182611996565b5060408201516119576040850182611996565b50606082015161196a6060850182611996565b50608082015161197d6080850182611996565b5060a082015161199060a085018261184e565b50505050565b61199f81611d5c565b82525050565b6119ae81611d5c565b82525050565b60006020820190506119c960008301846117e1565b92915050565b60006060820190506119e460008301866117e1565b6119f160208301856117e1565b6119fe60408301846119a5565b949350505050565b6000604082019050611a1b60008301856117e1565b611a2860208301846119a5565b9392505050565b60006020820190508181036000830152611a4981846117f0565b905092915050565b6000602082019050611a66600083018461185d565b92915050565b60006020820190508181036000830152611a858161186c565b9050919050565b60006020820190508181036000830152611aa58161188f565b9050919050565b60006020820190508181036000830152611ac5816118b2565b9050919050565b60006020820190508181036000830152611ae5816118d5565b9050919050565b60006020820190508181036000830152611b05816118f8565b9050919050565b6000602082019050611b2160008301846119a5565b92915050565b600060a082019050611b3c60008301886119a5565b611b4960208301876117e1565b611b56604083018661185d565b611b6360608301856119a5565b611b7060808301846119a5565b9695505050505050565b6000608082019050611b8f60008301876119a5565b611b9c60208301866119a5565b611ba960408301856119a5565b611bb660608301846119a5565b95945050505050565b6000819050602082019050919050565b600081519050919050565b6000602082019050919050565b600082825260208201905092915050565b600082825260208201905092915050565b6000611c1482611d5c565b9150611c1f83611d5c565b9250827fffffffffffffffffffffffffffffffffffffffffffffffffffffffffffffffff03821115611c5457611c53611daf565b5b828201905092915050565b6000611c6a82611d5c565b9150611c7583611d5c565b925082611c8557611c84611dde565b5b828204905092915050565b6000611c9b82611d5c565b9150611ca683611d5c565b9250817fffffffffffffffffffffffffffffffffffffffffffffffffffffffffffffffff0483118215151615611cdf57611cde611daf565b5b828202905092915050565b6000611cf582611d5c565b9150611d0083611d5c565b925082821015611d1357611d12611daf565b5b828203905092915050565b6000611d2982611d3c565b9050919050565b60008115159050919050565b600073ffffffffffffffffffffffffffffffffffffffff82169050919050565b6000819050919050565b6000611d7182611d5c565b91507fffffffffffffffffffffffffffffffffffffffffffffffffffffffffffffffff821415611da457611da3611daf565b5b600182019050919050565b7f4e487b7100000000000000000000000000000000000000000000000000000000600052601160045260246000fd5b7f4e487b7100000000000000000000000000000000000000000000000000000000600052601260045260246000fd5b7f4e487b7100000000000000000000000000000000000000000000000000000000600052603260045260246000fd5b7f4e487b7100000000000000000000000000000000000000000000000000000000600052604160045260246000fd5b600080fd5b7f796f7520646f6e74206861766520746f6b656e7320746f20636c61696d000000600082015250565b7f696e766573746d656e7420636c61696d2074696d652074696d65206973206e6f60008201527f7420636f6d706c65746564000000000000000000000000000000000000000000602082015250565b7f61736b696e6720746f6b656e7320617265206d6f7265207468616e207468652060008201527f6c696d6974000000000000000000000000000000000000000000000000000000602082015250565b7f746f6b656e7320646f6573206e6f74207472616e736665727265640000000000600082015250565b7f796f7520646f6e74206861766520656e6f7567682062616c616e636520746f2060008201527f6275790000000000000000000000000000000000000000000000000000000000602082015250565b611fb881611d1e565b8114611fc357600080fd5b50565b611fcf81611d30565b8114611fda57600080fd5b50565b611fe681611d5c565b8114611ff157600080fd5b5056fea264697066735822122045fb88b6582198e3a122a969c1f96cfee6b72cebde8f234cd86bdb6c59215a3d64736f6c63430008070033",
					"opcodes": "PUSH1 0x80 PUSH1 0x40 MSTORE CALLVALUE DUP1 ISZERO PUSH2 0x10 JUMPI PUSH1 0x0 DUP1 REVERT JUMPDEST POP PUSH2 0x202A DUP1 PUSH2 0x20 PUSH1 0x0 CODECOPY PUSH1 0x0 RETURN INVALID PUSH1 0x80 PUSH1 0x40 MSTORE CALLVALUE DUP1 ISZERO PUSH2 0x10 JUMPI PUSH1 0x0 DUP1 REVERT JUMPDEST POP PUSH1 0x4 CALLDATASIZE LT PUSH2 0x93 JUMPI PUSH1 0x0 CALLDATALOAD PUSH1 0xE0 SHR DUP1 PUSH4 0x4E70B1DC GT PUSH2 0x66 JUMPI DUP1 PUSH4 0x4E70B1DC EQ PUSH2 0x137 JUMPI DUP1 PUSH4 0x783C94A7 EQ PUSH2 0x155 JUMPI DUP1 PUSH4 0x7D43577C EQ PUSH2 0x173 JUMPI DUP1 PUSH4 0x81E7E20E EQ PUSH2 0x191 JUMPI DUP1 PUSH4 0xC68D4A38 EQ PUSH2 0x1C5 JUMPI PUSH2 0x93 JUMP JUMPDEST DUP1 PUSH4 0x1FEF3056 EQ PUSH2 0x98 JUMPI DUP1 PUSH4 0x2F8BF52C EQ PUSH2 0xB6 JUMPI DUP1 PUSH4 0x34D5F37B EQ PUSH2 0xE6 JUMPI DUP1 PUSH4 0x44476BFB EQ PUSH2 0x119 JUMPI JUMPDEST PUSH1 0x0 DUP1 REVERT JUMPDEST PUSH2 0xA0 PUSH2 0x1F5 JUMP JUMPDEST PUSH1 0x40 MLOAD PUSH2 0xAD SWAP2 SWAP1 PUSH2 0x19B4 JUMP JUMPDEST PUSH1 0x40 MLOAD DUP1 SWAP2 SUB SWAP1 RETURN JUMPDEST PUSH2 0xD0 PUSH1 0x4 DUP1 CALLDATASIZE SUB DUP2 ADD SWAP1 PUSH2 0xCB SWAP2 SWAP1 PUSH2 0x176F JUMP JUMPDEST PUSH2 0x21B JUMP JUMPDEST PUSH1 0x40 MLOAD PUSH2 0xDD SWAP2 SWAP1 PUSH2 0x1A51 JUMP JUMPDEST PUSH1 0x40 MLOAD DUP1 SWAP2 SUB SWAP1 RETURN JUMPDEST PUSH2 0x100 PUSH1 0x4 DUP1 CALLDATASIZE SUB DUP2 ADD SWAP1 PUSH2 0xFB SWAP2 SWAP1 PUSH2 0x176F JUMP JUMPDEST PUSH2 0x678 JUMP JUMPDEST PUSH1 0x40 MLOAD PUSH2 0x110 SWAP5 SWAP4 SWAP3 SWAP2 SWAP1 PUSH2 0x1B7A JUMP JUMPDEST PUSH1 0x40 MLOAD DUP1 SWAP2 SUB SWAP1 RETURN JUMPDEST PUSH2 0x121 PUSH2 0x6A8 JUMP JUMPDEST PUSH1 0x40 MLOAD PUSH2 0x12E SWAP2 SWAP1 PUSH2 0x1A2F JUMP JUMPDEST PUSH1 0x40 MLOAD DUP1 SWAP2 SUB SWAP1 RETURN JUMPDEST PUSH2 0x13F PUSH2 0xA0D JUMP JUMPDEST PUSH1 0x40 MLOAD PUSH2 0x14C SWAP2 SWAP1 PUSH2 0x1B0C JUMP JUMPDEST PUSH1 0x40 MLOAD DUP1 SWAP2 SUB SWAP1 RETURN JUMPDEST PUSH2 0x15D PUSH2 0xA13 JUMP JUMPDEST PUSH1 0x40 MLOAD PUSH2 0x16A SWAP2 SWAP1 PUSH2 0x1A51 JUMP JUMPDEST PUSH1 0x40 MLOAD DUP1 SWAP2 SUB SWAP1 RETURN JUMPDEST PUSH2 0x17B PUSH2 0xA9F JUMP JUMPDEST PUSH1 0x40 MLOAD PUSH2 0x188 SWAP2 SWAP1 PUSH2 0x1B0C JUMP JUMPDEST PUSH1 0x40 MLOAD DUP1 SWAP2 SUB SWAP1 RETURN JUMPDEST PUSH2 0x1AB PUSH1 0x4 DUP1 CALLDATASIZE SUB DUP2 ADD SWAP1 PUSH2 0x1A6 SWAP2 SWAP1 PUSH2 0x1715 JUMP JUMPDEST PUSH2 0xAE8 JUMP JUMPDEST PUSH1 0x40 MLOAD PUSH2 0x1BC SWAP6 SWAP5 SWAP4 SWAP3 SWAP2 SWAP1 PUSH2 0x1B27 JUMP JUMPDEST PUSH1 0x40 MLOAD DUP1 SWAP2 SUB SWAP1 RETURN JUMPDEST PUSH2 0x1DF PUSH1 0x4 DUP1 CALLDATASIZE SUB DUP2 ADD SWAP1 PUSH2 0x1DA SWAP2 SWAP1 PUSH2 0x1715 JUMP JUMPDEST PUSH2 0xB4B JUMP JUMPDEST PUSH1 0x40 MLOAD PUSH2 0x1EC SWAP2 SWAP1 PUSH2 0x1A51 JUMP JUMPDEST PUSH1 0x40 MLOAD DUP1 SWAP2 SUB SWAP1 RETURN JUMPDEST PUSH1 0x2 PUSH1 0x0 SWAP1 SLOAD SWAP1 PUSH2 0x100 EXP SWAP1 DIV PUSH20 0xFFFFFFFFFFFFFFFFFFFFFFFFFFFFFFFFFFFFFFFF AND DUP2 JUMP JUMPDEST PUSH1 0x0 DUP1 PUSH1 0x0 DUP1 CALLER PUSH20 0xFFFFFFFFFFFFFFFFFFFFFFFFFFFFFFFFFFFFFFFF AND PUSH20 0xFFFFFFFFFFFFFFFFFFFFFFFFFFFFFFFFFFFFFFFF AND DUP2 MSTORE PUSH1 0x20 ADD SWAP1 DUP2 MSTORE PUSH1 0x20 ADD PUSH1 0x0 KECCAK256 PUSH1 0x0 ADD PUSH1 0x0 DUP5 DUP2 MSTORE PUSH1 0x20 ADD SWAP1 DUP2 MSTORE PUSH1 0x20 ADD PUSH1 0x0 KECCAK256 PUSH1 0x0 ADD SLOAD GT PUSH2 0x2B4 JUMPI PUSH1 0x40 MLOAD PUSH32 0x8C379A000000000000000000000000000000000000000000000000000000000 DUP2 MSTORE PUSH1 0x4 ADD PUSH2 0x2AB SWAP1 PUSH2 0x1A6C JUMP JUMPDEST PUSH1 0x40 MLOAD DUP1 SWAP2 SUB SWAP1 REVERT JUMPDEST PUSH1 0x0 DUP1 PUSH1 0x0 CALLER PUSH20 0xFFFFFFFFFFFFFFFFFFFFFFFFFFFFFFFFFFFFFFFF AND PUSH20 0xFFFFFFFFFFFFFFFFFFFFFFFFFFFFFFFFFFFFFFFF AND DUP2 MSTORE PUSH1 0x20 ADD SWAP1 DUP2 MSTORE PUSH1 0x20 ADD PUSH1 0x0 KECCAK256 PUSH1 0x0 ADD PUSH1 0x0 DUP5 DUP2 MSTORE PUSH1 0x20 ADD SWAP1 DUP2 MSTORE PUSH1 0x20 ADD PUSH1 0x0 KECCAK256 PUSH1 0x1 ADD SLOAD GT DUP1 ISZERO PUSH2 0x36D JUMPI POP TIMESTAMP PUSH1 0x0 DUP1 CALLER PUSH20 0xFFFFFFFFFFFFFFFFFFFFFFFFFFFFFFFFFFFFFFFF AND PUSH20 0xFFFFFFFFFFFFFFFFFFFFFFFFFFFFFFFFFFFFFFFF AND DUP2 MSTORE PUSH1 0x20 ADD SWAP1 DUP2 MSTORE PUSH1 0x20 ADD PUSH1 0x0 KECCAK256 PUSH1 0x0 ADD PUSH1 0x0 DUP5 DUP2 MSTORE PUSH1 0x20 ADD SWAP1 DUP2 MSTORE PUSH1 0x20 ADD PUSH1 0x0 KECCAK256 PUSH1 0x1 ADD SLOAD LT JUMPDEST PUSH2 0x3AC JUMPI PUSH1 0x40 MLOAD PUSH32 0x8C379A000000000000000000000000000000000000000000000000000000000 DUP2 MSTORE PUSH1 0x4 ADD PUSH2 0x3A3 SWAP1 PUSH2 0x1A8C JUMP JUMPDEST PUSH1 0x40 MLOAD DUP1 SWAP2 SUB SWAP1 REVERT JUMPDEST PUSH1 0x0 DUP1 CALLER PUSH20 0xFFFFFFFFFFFFFFFFFFFFFFFFFFFFFFFFFFFFFFFF AND PUSH20 0xFFFFFFFFFFFFFFFFFFFFFFFFFFFFFFFFFFFFFFFF AND DUP2 MSTORE PUSH1 0x20 ADD SWAP1 DUP2 MSTORE PUSH1 0x20 ADD PUSH1 0x0 KECCAK256 PUSH1 0x0 ADD PUSH1 0x0 DUP4 DUP2 MSTORE PUSH1 0x20 ADD SWAP1 DUP2 MSTORE PUSH1 0x20 ADD PUSH1 0x0 KECCAK256 PUSH1 0x5 ADD PUSH1 0x0 SWAP1 SLOAD SWAP1 PUSH2 0x100 EXP SWAP1 DIV PUSH1 0xFF AND ISZERO PUSH2 0x44F JUMPI PUSH1 0x40 MLOAD PUSH32 0x8C379A000000000000000000000000000000000000000000000000000000000 DUP2 MSTORE PUSH1 0x4 ADD PUSH2 0x446 SWAP1 PUSH2 0x1A8C JUMP JUMPDEST PUSH1 0x40 MLOAD DUP1 SWAP2 SUB SWAP1 REVERT JUMPDEST PUSH1 0x2 PUSH1 0x0 SWAP1 SLOAD SWAP1 PUSH2 0x100 EXP SWAP1 DIV PUSH20 0xFFFFFFFFFFFFFFFFFFFFFFFFFFFFFFFFFFFFFFFF AND PUSH20 0xFFFFFFFFFFFFFFFFFFFFFFFFFFFFFFFFFFFFFFFF AND PUSH4 0xA9059CBB CALLER PUSH1 0x0 DUP1 CALLER PUSH20 0xFFFFFFFFFFFFFFFFFFFFFFFFFFFFFFFFFFFFFFFF AND PUSH20 0xFFFFFFFFFFFFFFFFFFFFFFFFFFFFFFFFFFFFFFFF AND DUP2 MSTORE PUSH1 0x20 ADD SWAP1 DUP2 MSTORE PUSH1 0x20 ADD PUSH1 0x0 KECCAK256 PUSH1 0x0 ADD PUSH1 0x0 DUP7 DUP2 MSTORE PUSH1 0x20 ADD SWAP1 DUP2 MSTORE PUSH1 0x20 ADD PUSH1 0x0 KECCAK256 PUSH1 0x0 ADD SLOAD PUSH1 0x40 MLOAD DUP4 PUSH4 0xFFFFFFFF AND PUSH1 0xE0 SHL DUP2 MSTORE PUSH1 0x4 ADD PUSH2 0x501 SWAP3 SWAP2 SWAP1 PUSH2 0x1A06 JUMP JUMPDEST PUSH1 0x20 PUSH1 0x40 MLOAD DUP1 DUP4 SUB DUP2 PUSH1 0x0 DUP8 DUP1 EXTCODESIZE ISZERO DUP1 ISZERO PUSH2 0x51B JUMPI PUSH1 0x0 DUP1 REVERT JUMPDEST POP GAS CALL ISZERO DUP1 ISZERO PUSH2 0x52F JUMPI RETURNDATASIZE PUSH1 0x0 DUP1 RETURNDATACOPY RETURNDATASIZE PUSH1 0x0 REVERT JUMPDEST POP POP POP POP PUSH1 0x40 MLOAD RETURNDATASIZE PUSH1 0x1F NOT PUSH1 0x1F DUP3 ADD AND DUP3 ADD DUP1 PUSH1 0x40 MSTORE POP DUP2 ADD SWAP1 PUSH2 0x553 SWAP2 SWAP1 PUSH2 0x1742 JUMP JUMPDEST POP PUSH1 0x1 PUSH1 0x0 DUP1 CALLER PUSH20 0xFFFFFFFFFFFFFFFFFFFFFFFFFFFFFFFFFFFFFFFF AND PUSH20 0xFFFFFFFFFFFFFFFFFFFFFFFFFFFFFFFFFFFFFFFF AND DUP2 MSTORE PUSH1 0x20 ADD SWAP1 DUP2 MSTORE PUSH1 0x20 ADD PUSH1 0x0 KECCAK256 PUSH1 0x0 ADD PUSH1 0x0 DUP5 DUP2 MSTORE PUSH1 0x20 ADD SWAP1 DUP2 MSTORE PUSH1 0x20 ADD PUSH1 0x0 KECCAK256 PUSH1 0x5 ADD PUSH1 0x0 PUSH2 0x100 EXP DUP2 SLOAD DUP2 PUSH1 0xFF MUL NOT AND SWAP1 DUP4 ISZERO ISZERO MUL OR SWAP1 SSTORE POP PUSH1 0x0 DUP1 CALLER PUSH20 0xFFFFFFFFFFFFFFFFFFFFFFFFFFFFFFFFFFFFFFFF AND PUSH20 0xFFFFFFFFFFFFFFFFFFFFFFFFFFFFFFFFFFFFFFFF AND DUP2 MSTORE PUSH1 0x20 ADD SWAP1 DUP2 MSTORE PUSH1 0x20 ADD PUSH1 0x0 KECCAK256 PUSH1 0x0 ADD PUSH1 0x0 DUP4 DUP2 MSTORE PUSH1 0x20 ADD SWAP1 DUP2 MSTORE PUSH1 0x20 ADD PUSH1 0x0 KECCAK256 PUSH1 0x0 ADD SLOAD PUSH1 0x0 DUP1 CALLER PUSH20 0xFFFFFFFFFFFFFFFFFFFFFFFFFFFFFFFFFFFFFFFF AND PUSH20 0xFFFFFFFFFFFFFFFFFFFFFFFFFFFFFFFFFFFFFFFF AND DUP2 MSTORE PUSH1 0x20 ADD SWAP1 DUP2 MSTORE PUSH1 0x20 ADD PUSH1 0x0 KECCAK256 PUSH1 0x1 ADD PUSH1 0x0 DUP3 DUP3 SLOAD PUSH2 0x668 SWAP2 SWAP1 PUSH2 0x1CEA JUMP JUMPDEST SWAP3 POP POP DUP2 SWAP1 SSTORE POP PUSH1 0x1 SWAP1 POP SWAP2 SWAP1 POP JUMP JUMPDEST PUSH1 0x1 PUSH1 0x20 MSTORE DUP1 PUSH1 0x0 MSTORE PUSH1 0x40 PUSH1 0x0 KECCAK256 PUSH1 0x0 SWAP2 POP SWAP1 POP DUP1 PUSH1 0x0 ADD SLOAD SWAP1 DUP1 PUSH1 0x1 ADD SLOAD SWAP1 DUP1 PUSH1 0x2 ADD SLOAD SWAP1 DUP1 PUSH1 0x3 ADD SLOAD SWAP1 POP DUP5 JUMP JUMPDEST PUSH1 0x60 PUSH1 0x0 DUP1 PUSH1 0x0 CALLER PUSH20 0xFFFFFFFFFFFFFFFFFFFFFFFFFFFFFFFFFFFFFFFF AND PUSH20 0xFFFFFFFFFFFFFFFFFFFFFFFFFFFFFFFFFFFFFFFF AND DUP2 MSTORE PUSH1 0x20 ADD SWAP1 DUP2 MSTORE PUSH1 0x20 ADD PUSH1 0x0 KECCAK256 PUSH1 0x5 ADD SLOAD SWAP1 POP PUSH1 0x0 DUP1 PUSH1 0x0 JUMPDEST DUP4 DUP2 LT ISZERO PUSH2 0x7EA JUMPI PUSH1 0x0 DUP1 PUSH1 0x0 CALLER PUSH20 0xFFFFFFFFFFFFFFFFFFFFFFFFFFFFFFFFFFFFFFFF AND PUSH20 0xFFFFFFFFFFFFFFFFFFFFFFFFFFFFFFFFFFFFFFFF AND DUP2 MSTORE PUSH1 0x20 ADD SWAP1 DUP2 MSTORE PUSH1 0x20 ADD PUSH1 0x0 KECCAK256 PUSH1 0x0 ADD PUSH1 0x0 DUP4 DUP2 MSTORE PUSH1 0x20 ADD SWAP1 DUP2 MSTORE PUSH1 0x20 ADD PUSH1 0x0 KECCAK256 PUSH1 0x0 ADD SLOAD GT DUP1 ISZERO PUSH2 0x7C3 JUMPI POP PUSH1 0x0 DUP1 CALLER PUSH20 0xFFFFFFFFFFFFFFFFFFFFFFFFFFFFFFFFFFFFFFFF AND PUSH20 0xFFFFFFFFFFFFFFFFFFFFFFFFFFFFFFFFFFFFFFFF AND DUP2 MSTORE PUSH1 0x20 ADD SWAP1 DUP2 MSTORE PUSH1 0x20 ADD PUSH1 0x0 KECCAK256 PUSH1 0x0 ADD PUSH1 0x0 DUP3 DUP2 MSTORE PUSH1 0x20 ADD SWAP1 DUP2 MSTORE PUSH1 0x20 ADD PUSH1 0x0 KECCAK256 PUSH1 0x5 ADD PUSH1 0x0 SWAP1 SLOAD SWAP1 PUSH2 0x100 EXP SWAP1 DIV PUSH1 0xFF AND ISZERO JUMPDEST ISZERO PUSH2 0x7D7 JUMPI DUP3 DUP1 PUSH2 0x7D3 SWAP1 PUSH2 0x1D66 JUMP JUMPDEST SWAP4 POP POP JUMPDEST DUP1 DUP1 PUSH2 0x7E2 SWAP1 PUSH2 0x1D66 JUMP JUMPDEST SWAP2 POP POP PUSH2 0x6F6 JUMP JUMPDEST POP PUSH1 0x0 DUP3 PUSH8 0xFFFFFFFFFFFFFFFF DUP2 GT ISZERO PUSH2 0x807 JUMPI PUSH2 0x806 PUSH2 0x1E3C JUMP JUMPDEST JUMPDEST PUSH1 0x40 MLOAD SWAP1 DUP1 DUP3 MSTORE DUP1 PUSH1 0x20 MUL PUSH1 0x20 ADD DUP3 ADD PUSH1 0x40 MSTORE DUP1 ISZERO PUSH2 0x840 JUMPI DUP2 PUSH1 0x20 ADD JUMPDEST PUSH2 0x82D PUSH2 0x1689 JUMP JUMPDEST DUP2 MSTORE PUSH1 0x20 ADD SWAP1 PUSH1 0x1 SWAP1 SUB SWAP1 DUP2 PUSH2 0x825 JUMPI SWAP1 POP JUMPDEST POP SWAP1 POP PUSH1 0x0 JUMPDEST DUP5 DUP2 LT ISZERO PUSH2 0xA02 JUMPI PUSH1 0x0 DUP1 PUSH1 0x0 CALLER PUSH20 0xFFFFFFFFFFFFFFFFFFFFFFFFFFFFFFFFFFFFFFFF AND PUSH20 0xFFFFFFFFFFFFFFFFFFFFFFFFFFFFFFFFFFFFFFFF AND DUP2 MSTORE PUSH1 0x20 ADD SWAP1 DUP2 MSTORE PUSH1 0x20 ADD PUSH1 0x0 KECCAK256 PUSH1 0x0 ADD PUSH1 0x0 DUP4 DUP2 MSTORE PUSH1 0x20 ADD SWAP1 DUP2 MSTORE PUSH1 0x20 ADD PUSH1 0x0 KECCAK256 PUSH1 0x0 ADD SLOAD GT DUP1 ISZERO PUSH2 0x913 JUMPI POP PUSH1 0x0 DUP1 CALLER PUSH20 0xFFFFFFFFFFFFFFFFFFFFFFFFFFFFFFFFFFFFFFFF AND PUSH20 0xFFFFFFFFFFFFFFFFFFFFFFFFFFFFFFFFFFFFFFFF AND DUP2 MSTORE PUSH1 0x20 ADD SWAP1 DUP2 MSTORE PUSH1 0x20 ADD PUSH1 0x0 KECCAK256 PUSH1 0x0 ADD PUSH1 0x0 DUP3 DUP2 MSTORE PUSH1 0x20 ADD SWAP1 DUP2 MSTORE PUSH1 0x20 ADD PUSH1 0x0 KECCAK256 PUSH1 0x5 ADD PUSH1 0x0 SWAP1 SLOAD SWAP1 PUSH2 0x100 EXP SWAP1 DIV PUSH1 0xFF AND ISZERO JUMPDEST ISZERO PUSH2 0x9EF JUMPI PUSH1 0x0 DUP1 CALLER PUSH20 0xFFFFFFFFFFFFFFFFFFFFFFFFFFFFFFFFFFFFFFFF AND PUSH20 0xFFFFFFFFFFFFFFFFFFFFFFFFFFFFFFFFFFFFFFFF AND DUP2 MSTORE PUSH1 0x20 ADD SWAP1 DUP2 MSTORE PUSH1 0x20 ADD PUSH1 0x0 KECCAK256 PUSH1 0x0 ADD PUSH1 0x0 DUP3 DUP2 MSTORE PUSH1 0x20 ADD SWAP1 DUP2 MSTORE PUSH1 0x20 ADD PUSH1 0x0 KECCAK256 PUSH1 0x40 MLOAD DUP1 PUSH1 0xC0 ADD PUSH1 0x40 MSTORE SWAP1 DUP2 PUSH1 0x0 DUP3 ADD SLOAD DUP2 MSTORE PUSH1 0x20 ADD PUSH1 0x1 DUP3 ADD SLOAD DUP2 MSTORE PUSH1 0x20 ADD PUSH1 0x2 DUP3 ADD SLOAD DUP2 MSTORE PUSH1 0x20 ADD PUSH1 0x3 DUP3 ADD SLOAD DUP2 MSTORE PUSH1 0x20 ADD PUSH1 0x4 DUP3 ADD SLOAD DUP2 MSTORE PUSH1 0x20 ADD PUSH1 0x5 DUP3 ADD PUSH1 0x0 SWAP1 SLOAD SWAP1 PUSH2 0x100 EXP SWAP1 DIV PUSH1 0xFF AND ISZERO ISZERO ISZERO ISZERO DUP2 MSTORE POP POP DUP3 DUP5 DUP2 MLOAD DUP2 LT PUSH2 0x9D5 JUMPI PUSH2 0x9D4 PUSH2 0x1E0D JUMP JUMPDEST JUMPDEST PUSH1 0x20 MUL PUSH1 0x20 ADD ADD DUP2 SWAP1 MSTORE POP DUP3 DUP1 PUSH2 0x9EB SWAP1 PUSH2 0x1D66 JUMP JUMPDEST SWAP4 POP POP JUMPDEST DUP1 DUP1 PUSH2 0x9FA SWAP1 PUSH2 0x1D66 JUMP JUMPDEST SWAP2 POP POP PUSH2 0x846 JUMP JUMPDEST POP DUP1 SWAP5 POP POP POP POP POP SWAP1 JUMP JUMPDEST PUSH1 0x3 SLOAD DUP2 JUMP JUMPDEST PUSH1 0x0 DUP1 PUSH1 0x0 DUP1 CALLER PUSH20 0xFFFFFFFFFFFFFFFFFFFFFFFFFFFFFFFFFFFFFFFF AND PUSH20 0xFFFFFFFFFFFFFFFFFFFFFFFFFFFFFFFFFFFFFFFF AND DUP2 MSTORE PUSH1 0x20 ADD SWAP1 DUP2 MSTORE PUSH1 0x20 ADD PUSH1 0x0 KECCAK256 PUSH1 0x4 ADD SLOAD GT PUSH2 0xA98 JUMPI PUSH1 0x40 MLOAD PUSH32 0x8C379A000000000000000000000000000000000000000000000000000000000 DUP2 MSTORE PUSH1 0x4 ADD PUSH2 0xA8F SWAP1 PUSH2 0x1A6C JUMP JUMPDEST PUSH1 0x40 MLOAD DUP1 SWAP2 SUB SWAP1 REVERT JUMPDEST PUSH1 0x1 SWAP1 POP SWAP1 JUMP JUMPDEST PUSH1 0x0 DUP1 PUSH1 0x0 CALLER PUSH20 0xFFFFFFFFFFFFFFFFFFFFFFFFFFFFFFFFFFFFFFFF AND PUSH20 0xFFFFFFFFFFFFFFFFFFFFFFFFFFFFFFFFFFFFFFFF AND DUP2 MSTORE PUSH1 0x20 ADD SWAP1 DUP2 MSTORE PUSH1 0x20 ADD PUSH1 0x0 KECCAK256 PUSH1 0x4 ADD SLOAD SWAP1 POP SWAP1 JUMP JUMPDEST PUSH1 0x0 PUSH1 0x20 MSTORE DUP1 PUSH1 0x0 MSTORE PUSH1 0x40 PUSH1 0x0 KECCAK256 PUSH1 0x0 SWAP2 POP SWAP1 POP DUP1 PUSH1 0x1 ADD SLOAD SWAP1 DUP1 PUSH1 0x2 ADD PUSH1 0x0 SWAP1 SLOAD SWAP1 PUSH2 0x100 EXP SWAP1 DIV PUSH20 0xFFFFFFFFFFFFFFFFFFFFFFFFFFFFFFFFFFFFFFFF AND SWAP1 DUP1 PUSH1 0x2 ADD PUSH1 0x14 SWAP1 SLOAD SWAP1 PUSH2 0x100 EXP SWAP1 DIV PUSH1 0xFF AND SWAP1 DUP1 PUSH1 0x4 ADD SLOAD SWAP1 DUP1 PUSH1 0x5 ADD SLOAD SWAP1 POP DUP6 JUMP JUMPDEST PUSH1 0x0 PUSH1 0x1 PUSH1 0x0 PUSH1 0x3 SLOAD DUP2 MSTORE PUSH1 0x20 ADD SWAP1 DUP2 MSTORE PUSH1 0x20 ADD PUSH1 0x0 KECCAK256 PUSH1 0x3 ADD SLOAD PUSH1 0x1 PUSH1 0x0 PUSH1 0x3 SLOAD DUP2 MSTORE PUSH1 0x20 ADD SWAP1 DUP2 MSTORE PUSH1 0x20 ADD PUSH1 0x0 KECCAK256 PUSH1 0x1 ADD SLOAD GT ISZERO PUSH2 0xBC0 JUMPI PUSH1 0x40 MLOAD PUSH32 0x8C379A000000000000000000000000000000000000000000000000000000000 DUP2 MSTORE PUSH1 0x4 ADD PUSH2 0xBB7 SWAP1 PUSH2 0x1AAC JUMP JUMPDEST PUSH1 0x40 MLOAD DUP1 SWAP2 SUB SWAP1 REVERT JUMPDEST PUSH8 0xDE0B6B3A7640000 PUSH1 0x1 PUSH1 0x0 PUSH1 0x3 SLOAD DUP2 MSTORE PUSH1 0x20 ADD SWAP1 DUP2 MSTORE PUSH1 0x20 ADD PUSH1 0x0 KECCAK256 PUSH1 0x2 ADD SLOAD PUSH2 0xBEC SWAP2 SWAP1 PUSH2 0x1C90 JUMP JUMPDEST PUSH1 0x2 PUSH1 0x0 SWAP1 SLOAD SWAP1 PUSH2 0x100 EXP SWAP1 DIV PUSH20 0xFFFFFFFFFFFFFFFFFFFFFFFFFFFFFFFFFFFFFFFF AND PUSH20 0xFFFFFFFFFFFFFFFFFFFFFFFFFFFFFFFFFFFFFFFF AND PUSH4 0x70A08231 CALLER PUSH1 0x40 MLOAD DUP3 PUSH4 0xFFFFFFFF AND PUSH1 0xE0 SHL DUP2 MSTORE PUSH1 0x4 ADD PUSH2 0xC47 SWAP2 SWAP1 PUSH2 0x19B4 JUMP JUMPDEST PUSH1 0x20 PUSH1 0x40 MLOAD DUP1 DUP4 SUB DUP2 DUP7 DUP1 EXTCODESIZE ISZERO DUP1 ISZERO PUSH2 0xC5F JUMPI PUSH1 0x0 DUP1 REVERT JUMPDEST POP GAS STATICCALL ISZERO DUP1 ISZERO PUSH2 0xC73 JUMPI RETURNDATASIZE PUSH1 0x0 DUP1 RETURNDATACOPY RETURNDATASIZE PUSH1 0x0 REVERT JUMPDEST POP POP POP POP PUSH1 0x40 MLOAD RETURNDATASIZE PUSH1 0x1F NOT PUSH1 0x1F DUP3 ADD AND DUP3 ADD DUP1 PUSH1 0x40 MSTORE POP DUP2 ADD SWAP1 PUSH2 0xC97 SWAP2 SWAP1 PUSH2 0x179C JUMP JUMPDEST GT PUSH2 0xCD7 JUMPI PUSH1 0x40 MLOAD PUSH32 0x8C379A000000000000000000000000000000000000000000000000000000000 DUP2 MSTORE PUSH1 0x4 ADD PUSH2 0xCCE SWAP1 PUSH2 0x1AEC JUMP JUMPDEST PUSH1 0x40 MLOAD DUP1 SWAP2 SUB SWAP1 REVERT JUMPDEST PUSH1 0x2 PUSH1 0x0 SWAP1 SLOAD SWAP1 PUSH2 0x100 EXP SWAP1 DIV PUSH20 0xFFFFFFFFFFFFFFFFFFFFFFFFFFFFFFFFFFFFFFFF AND PUSH20 0xFFFFFFFFFFFFFFFFFFFFFFFFFFFFFFFFFFFFFFFF AND PUSH4 0x23B872DD CALLER ADDRESS PUSH8 0xDE0B6B3A7640000 PUSH1 0x1 PUSH1 0x0 PUSH1 0x3 SLOAD DUP2 MSTORE PUSH1 0x20 ADD SWAP1 DUP2 MSTORE PUSH1 0x20 ADD PUSH1 0x0 KECCAK256 PUSH1 0x2 ADD SLOAD PUSH2 0xD43 SWAP2 SWAP1 PUSH2 0x1C90 JUMP JUMPDEST PUSH1 0x40 MLOAD DUP5 PUSH4 0xFFFFFFFF AND PUSH1 0xE0 SHL DUP2 MSTORE PUSH1 0x4 ADD PUSH2 0xD61 SWAP4 SWAP3 SWAP2 SWAP1 PUSH2 0x19CF JUMP JUMPDEST PUSH1 0x20 PUSH1 0x40 MLOAD DUP1 DUP4 SUB DUP2 PUSH1 0x0 DUP8 DUP1 EXTCODESIZE ISZERO DUP1 ISZERO PUSH2 0xD7B JUMPI PUSH1 0x0 DUP1 REVERT JUMPDEST POP GAS CALL ISZERO DUP1 ISZERO PUSH2 0xD8F JUMPI RETURNDATASIZE PUSH1 0x0 DUP1 RETURNDATACOPY RETURNDATASIZE PUSH1 0x0 REVERT JUMPDEST POP POP POP POP PUSH1 0x40 MLOAD RETURNDATASIZE PUSH1 0x1F NOT PUSH1 0x1F DUP3 ADD AND DUP3 ADD DUP1 PUSH1 0x40 MSTORE POP DUP2 ADD SWAP1 PUSH2 0xDB3 SWAP2 SWAP1 PUSH2 0x1742 JUMP JUMPDEST PUSH2 0xDF2 JUMPI PUSH1 0x40 MLOAD PUSH32 0x8C379A000000000000000000000000000000000000000000000000000000000 DUP2 MSTORE PUSH1 0x4 ADD PUSH2 0xDE9 SWAP1 PUSH2 0x1ACC JUMP JUMPDEST PUSH1 0x40 MLOAD DUP1 SWAP2 SUB SWAP1 REVERT JUMPDEST PUSH1 0x1 PUSH1 0x0 PUSH1 0x3 SLOAD DUP2 MSTORE PUSH1 0x20 ADD SWAP1 DUP2 MSTORE PUSH1 0x20 ADD PUSH1 0x0 KECCAK256 PUSH1 0x0 ADD SLOAD PUSH1 0x0 DUP1 CALLER PUSH20 0xFFFFFFFFFFFFFFFFFFFFFFFFFFFFFFFFFFFFFFFF AND PUSH20 0xFFFFFFFFFFFFFFFFFFFFFFFFFFFFFFFFFFFFFFFF AND DUP2 MSTORE PUSH1 0x20 ADD SWAP1 DUP2 MSTORE PUSH1 0x20 ADD PUSH1 0x0 KECCAK256 PUSH1 0x0 ADD PUSH1 0x0 DUP1 PUSH1 0x0 CALLER PUSH20 0xFFFFFFFFFFFFFFFFFFFFFFFFFFFFFFFFFFFFFFFF AND PUSH20 0xFFFFFFFFFFFFFFFFFFFFFFFFFFFFFFFFFFFFFFFF AND DUP2 MSTORE PUSH1 0x20 ADD SWAP1 DUP2 MSTORE PUSH1 0x20 ADD PUSH1 0x0 KECCAK256 PUSH1 0x5 ADD SLOAD DUP2 MSTORE PUSH1 0x20 ADD SWAP1 DUP2 MSTORE PUSH1 0x20 ADD PUSH1 0x0 KECCAK256 PUSH1 0x0 ADD DUP2 SWAP1 SSTORE POP TIMESTAMP PUSH1 0x0 DUP1 CALLER PUSH20 0xFFFFFFFFFFFFFFFFFFFFFFFFFFFFFFFFFFFFFFFF AND PUSH20 0xFFFFFFFFFFFFFFFFFFFFFFFFFFFFFFFFFFFFFFFF AND DUP2 MSTORE PUSH1 0x20 ADD SWAP1 DUP2 MSTORE PUSH1 0x20 ADD PUSH1 0x0 KECCAK256 PUSH1 0x0 ADD PUSH1 0x0 DUP1 PUSH1 0x0 CALLER PUSH20 0xFFFFFFFFFFFFFFFFFFFFFFFFFFFFFFFFFFFFFFFF AND PUSH20 0xFFFFFFFFFFFFFFFFFFFFFFFFFFFFFFFFFFFFFFFF AND DUP2 MSTORE PUSH1 0x20 ADD SWAP1 DUP2 MSTORE PUSH1 0x20 ADD PUSH1 0x0 KECCAK256 PUSH1 0x5 ADD SLOAD DUP2 MSTORE PUSH1 0x20 ADD SWAP1 DUP2 MSTORE PUSH1 0x20 ADD PUSH1 0x0 KECCAK256 PUSH1 0x2 ADD DUP2 SWAP1 SSTORE POP PUSH3 0xD2F00 TIMESTAMP PUSH2 0xF4F SWAP2 SWAP1 PUSH2 0x1C09 JUMP JUMPDEST PUSH1 0x0 DUP1 CALLER PUSH20 0xFFFFFFFFFFFFFFFFFFFFFFFFFFFFFFFFFFFFFFFF AND PUSH20 0xFFFFFFFFFFFFFFFFFFFFFFFFFFFFFFFFFFFFFFFF AND DUP2 MSTORE PUSH1 0x20 ADD SWAP1 DUP2 MSTORE PUSH1 0x20 ADD PUSH1 0x0 KECCAK256 PUSH1 0x0 ADD PUSH1 0x0 DUP1 PUSH1 0x0 CALLER PUSH20 0xFFFFFFFFFFFFFFFFFFFFFFFFFFFFFFFFFFFFFFFF AND PUSH20 0xFFFFFFFFFFFFFFFFFFFFFFFFFFFFFFFFFFFFFFFF AND DUP2 MSTORE PUSH1 0x20 ADD SWAP1 DUP2 MSTORE PUSH1 0x20 ADD PUSH1 0x0 KECCAK256 PUSH1 0x5 ADD SLOAD DUP2 MSTORE PUSH1 0x20 ADD SWAP1 DUP2 MSTORE PUSH1 0x20 ADD PUSH1 0x0 KECCAK256 PUSH1 0x1 ADD DUP2 SWAP1 SSTORE POP PUSH1 0x1 PUSH1 0x0 PUSH1 0x3 SLOAD DUP2 MSTORE PUSH1 0x20 ADD SWAP1 DUP2 MSTORE PUSH1 0x20 ADD PUSH1 0x0 KECCAK256 PUSH1 0x0 ADD SLOAD PUSH1 0x0 DUP1 CALLER PUSH20 0xFFFFFFFFFFFFFFFFFFFFFFFFFFFFFFFFFFFFFFFF AND PUSH20 0xFFFFFFFFFFFFFFFFFFFFFFFFFFFFFFFFFFFFFFFF AND DUP2 MSTORE PUSH1 0x20 ADD SWAP1 DUP2 MSTORE PUSH1 0x20 ADD PUSH1 0x0 KECCAK256 PUSH1 0x1 ADD PUSH1 0x0 DUP3 DUP3 SLOAD PUSH2 0x1052 SWAP2 SWAP1 PUSH2 0x1C09 JUMP JUMPDEST SWAP3 POP POP DUP2 SWAP1 SSTORE POP PUSH1 0x1 PUSH1 0x0 PUSH1 0x3 SLOAD DUP2 MSTORE PUSH1 0x20 ADD SWAP1 DUP2 MSTORE PUSH1 0x20 ADD PUSH1 0x0 KECCAK256 PUSH1 0x0 ADD SLOAD PUSH1 0x1 PUSH1 0x0 PUSH1 0x3 SLOAD DUP2 MSTORE PUSH1 0x20 ADD SWAP1 DUP2 MSTORE PUSH1 0x20 ADD PUSH1 0x0 KECCAK256 PUSH1 0x3 ADD PUSH1 0x0 DUP3 DUP3 SLOAD PUSH2 0x1099 SWAP2 SWAP1 PUSH2 0x1CEA JUMP JUMPDEST SWAP3 POP POP DUP2 SWAP1 SSTORE POP PUSH1 0x0 PUSH20 0xFFFFFFFFFFFFFFFFFFFFFFFFFFFFFFFFFFFFFFFF AND DUP3 PUSH20 0xFFFFFFFFFFFFFFFFFFFFFFFFFFFFFFFFFFFFFFFF AND EQ DUP1 PUSH2 0x1106 JUMPI POP CALLER PUSH20 0xFFFFFFFFFFFFFFFFFFFFFFFFFFFFFFFFFFFFFFFF AND DUP3 PUSH20 0xFFFFFFFFFFFFFFFFFFFFFFFFFFFFFFFFFFFFFFFF AND EQ JUMPDEST ISZERO PUSH2 0x1191 JUMPI PUSH1 0x0 DUP1 PUSH1 0x0 CALLER PUSH20 0xFFFFFFFFFFFFFFFFFFFFFFFFFFFFFFFFFFFFFFFF AND PUSH20 0xFFFFFFFFFFFFFFFFFFFFFFFFFFFFFFFFFFFFFFFF AND DUP2 MSTORE PUSH1 0x20 ADD SWAP1 DUP2 MSTORE PUSH1 0x20 ADD PUSH1 0x0 KECCAK256 PUSH1 0x2 ADD PUSH1 0x0 PUSH2 0x100 EXP DUP2 SLOAD DUP2 PUSH20 0xFFFFFFFFFFFFFFFFFFFFFFFFFFFFFFFFFFFFFFFF MUL NOT AND SWAP1 DUP4 PUSH20 0xFFFFFFFFFFFFFFFFFFFFFFFFFFFFFFFFFFFFFFFF AND MUL OR SWAP1 SSTORE POP PUSH2 0x1332 JUMP JUMPDEST PUSH1 0x0 ISZERO ISZERO PUSH1 0x0 DUP1 CALLER PUSH20 0xFFFFFFFFFFFFFFFFFFFFFFFFFFFFFFFFFFFFFFFF AND PUSH20 0xFFFFFFFFFFFFFFFFFFFFFFFFFFFFFFFFFFFFFFFF AND DUP2 MSTORE PUSH1 0x20 ADD SWAP1 DUP2 MSTORE PUSH1 0x20 ADD PUSH1 0x0 KECCAK256 PUSH1 0x2 ADD PUSH1 0x14 SWAP1 SLOAD SWAP1 PUSH2 0x100 EXP SWAP1 DIV PUSH1 0xFF AND ISZERO ISZERO EQ ISZERO PUSH2 0x130F JUMPI DUP2 PUSH1 0x0 DUP1 CALLER PUSH20 0xFFFFFFFFFFFFFFFFFFFFFFFFFFFFFFFFFFFFFFFF AND PUSH20 0xFFFFFFFFFFFFFFFFFFFFFFFFFFFFFFFFFFFFFFFF AND DUP2 MSTORE PUSH1 0x20 ADD SWAP1 DUP2 MSTORE PUSH1 0x20 ADD PUSH1 0x0 KECCAK256 PUSH1 0x2 ADD PUSH1 0x0 PUSH2 0x100 EXP DUP2 SLOAD DUP2 PUSH20 0xFFFFFFFFFFFFFFFFFFFFFFFFFFFFFFFFFFFFFFFF MUL NOT AND SWAP1 DUP4 PUSH20 0xFFFFFFFFFFFFFFFFFFFFFFFFFFFFFFFFFFFFFFFF AND MUL OR SWAP1 SSTORE POP PUSH1 0x0 DUP1 DUP4 PUSH20 0xFFFFFFFFFFFFFFFFFFFFFFFFFFFFFFFFFFFFFFFF AND PUSH20 0xFFFFFFFFFFFFFFFFFFFFFFFFFFFFFFFFFFFFFFFF AND DUP2 MSTORE PUSH1 0x20 ADD SWAP1 DUP2 MSTORE PUSH1 0x20 ADD PUSH1 0x0 KECCAK256 PUSH1 0x3 ADD CALLER SWAP1 DUP1 PUSH1 0x1 DUP2 SLOAD ADD DUP1 DUP3 SSTORE DUP1 SWAP2 POP POP PUSH1 0x1 SWAP1 SUB SWAP1 PUSH1 0x0 MSTORE PUSH1 0x20 PUSH1 0x0 KECCAK256 ADD PUSH1 0x0 SWAP1 SWAP2 SWAP1 SWAP2 SWAP1 SWAP2 PUSH2 0x100 EXP DUP2 SLOAD DUP2 PUSH20 0xFFFFFFFFFFFFFFFFFFFFFFFFFFFFFFFFFFFFFFFF MUL NOT AND SWAP1 DUP4 PUSH20 0xFFFFFFFFFFFFFFFFFFFFFFFFFFFFFFFFFFFFFFFF AND MUL OR SWAP1 SSTORE POP JUMPDEST PUSH2 0x1331 CALLER PUSH1 0x1 PUSH1 0x0 PUSH1 0x3 SLOAD DUP2 MSTORE PUSH1 0x20 ADD SWAP1 DUP2 MSTORE PUSH1 0x20 ADD PUSH1 0x0 KECCAK256 PUSH1 0x0 ADD SLOAD PUSH2 0x13CF JUMP JUMPDEST JUMPDEST PUSH1 0x0 PUSH1 0x1 PUSH1 0x0 PUSH1 0x3 SLOAD DUP2 MSTORE PUSH1 0x20 ADD SWAP1 DUP2 MSTORE PUSH1 0x20 ADD PUSH1 0x0 KECCAK256 PUSH1 0x3 ADD SLOAD EQ ISZERO PUSH2 0x136C JUMPI PUSH1 0x3 PUSH1 0x0 DUP2 SLOAD DUP1 SWAP3 SWAP2 SWAP1 PUSH2 0x1366 SWAP1 PUSH2 0x1D66 JUMP JUMPDEST SWAP2 SWAP1 POP SSTORE POP JUMPDEST PUSH1 0x1 PUSH1 0x0 DUP1 CALLER PUSH20 0xFFFFFFFFFFFFFFFFFFFFFFFFFFFFFFFFFFFFFFFF AND PUSH20 0xFFFFFFFFFFFFFFFFFFFFFFFFFFFFFFFFFFFFFFFF AND DUP2 MSTORE PUSH1 0x20 ADD SWAP1 DUP2 MSTORE PUSH1 0x20 ADD PUSH1 0x0 KECCAK256 PUSH1 0x2 ADD PUSH1 0x14 PUSH2 0x100 EXP DUP2 SLOAD DUP2 PUSH1 0xFF MUL NOT AND SWAP1 DUP4 ISZERO ISZERO MUL OR SWAP1 SSTORE POP PUSH1 0x1 SWAP1 POP SWAP2 SWAP1 POP JUMP JUMPDEST PUSH1 0x0 DUP3 SWAP1 POP PUSH1 0x0 PUSH1 0x5 PUSH8 0xFFFFFFFFFFFFFFFF DUP2 GT ISZERO PUSH2 0x13F1 JUMPI PUSH2 0x13F0 PUSH2 0x1E3C JUMP JUMPDEST JUMPDEST PUSH1 0x40 MLOAD SWAP1 DUP1 DUP3 MSTORE DUP1 PUSH1 0x20 MUL PUSH1 0x20 ADD DUP3 ADD PUSH1 0x40 MSTORE DUP1 ISZERO PUSH2 0x141F JUMPI DUP2 PUSH1 0x20 ADD PUSH1 0x20 DUP3 MUL DUP1 CALLDATASIZE DUP4 CALLDATACOPY DUP1 DUP3 ADD SWAP2 POP POP SWAP1 POP JUMPDEST POP SWAP1 POP PUSH1 0x5 DUP2 PUSH1 0x0 DUP2 MLOAD DUP2 LT PUSH2 0x1438 JUMPI PUSH2 0x1437 PUSH2 0x1E0D JUMP JUMPDEST JUMPDEST PUSH1 0x20 MUL PUSH1 0x20 ADD ADD DUP2 DUP2 MSTORE POP POP PUSH1 0x4 DUP2 PUSH1 0x1 DUP2 MLOAD DUP2 LT PUSH2 0x145A JUMPI PUSH2 0x1459 PUSH2 0x1E0D JUMP JUMPDEST JUMPDEST PUSH1 0x20 MUL PUSH1 0x20 ADD ADD DUP2 DUP2 MSTORE POP POP PUSH1 0x3 DUP2 PUSH1 0x2 DUP2 MLOAD DUP2 LT PUSH2 0x147C JUMPI PUSH2 0x147B PUSH2 0x1E0D JUMP JUMPDEST JUMPDEST PUSH1 0x20 MUL PUSH1 0x20 ADD ADD DUP2 DUP2 MSTORE POP POP PUSH1 0x0 DUP1 PUSH1 0x0 SWAP1 POP JUMPDEST PUSH1 0x3 DUP2 LT ISZERO PUSH2 0x1681 JUMPI PUSH1 0x0 DUP2 EQ ISZERO PUSH2 0x14AB JUMPI PUSH1 0x0 SWAP2 POP PUSH2 0x14CD JUMP JUMPDEST PUSH1 0x1 DUP2 EQ ISZERO PUSH2 0x14BD JUMPI PUSH1 0x1 SWAP2 POP PUSH2 0x14CC JUMP JUMPDEST PUSH1 0x2 DUP2 EQ ISZERO PUSH2 0x14CB JUMPI PUSH1 0x2 SWAP2 POP JUMPDEST JUMPDEST JUMPDEST PUSH1 0x0 PUSH20 0xFFFFFFFFFFFFFFFFFFFFFFFFFFFFFFFFFFFFFFFF AND PUSH1 0x0 DUP1 DUP7 PUSH20 0xFFFFFFFFFFFFFFFFFFFFFFFFFFFFFFFFFFFFFFFF AND PUSH20 0xFFFFFFFFFFFFFFFFFFFFFFFFFFFFFFFFFFFFFFFF AND DUP2 MSTORE PUSH1 0x20 ADD SWAP1 DUP2 MSTORE PUSH1 0x20 ADD PUSH1 0x0 KECCAK256 PUSH1 0x2 ADD PUSH1 0x0 SWAP1 SLOAD SWAP1 PUSH2 0x100 EXP SWAP1 DIV PUSH20 0xFFFFFFFFFFFFFFFFFFFFFFFFFFFFFFFFFFFFFFFF AND PUSH20 0xFFFFFFFFFFFFFFFFFFFFFFFFFFFFFFFFFFFFFFFF AND EQ PUSH2 0x1669 JUMPI PUSH1 0x0 DUP1 DUP6 PUSH20 0xFFFFFFFFFFFFFFFFFFFFFFFFFFFFFFFFFFFFFFFF AND PUSH20 0xFFFFFFFFFFFFFFFFFFFFFFFFFFFFFFFFFFFFFFFF AND DUP2 MSTORE PUSH1 0x20 ADD SWAP1 DUP2 MSTORE PUSH1 0x20 ADD PUSH1 0x0 KECCAK256 PUSH1 0x2 ADD PUSH1 0x0 SWAP1 SLOAD SWAP1 PUSH2 0x100 EXP SWAP1 DIV PUSH20 0xFFFFFFFFFFFFFFFFFFFFFFFFFFFFFFFFFFFFFFFF AND SWAP4 POP PUSH1 0x0 PUSH1 0x64 DUP7 PUSH4 0x5F5E100 DUP7 DUP7 DUP2 MLOAD DUP2 LT PUSH2 0x15E3 JUMPI PUSH2 0x15E2 PUSH2 0x1E0D JUMP JUMPDEST JUMPDEST PUSH1 0x20 MUL PUSH1 0x20 ADD ADD MLOAD PUSH2 0x15F5 SWAP2 SWAP1 PUSH2 0x1C90 JUMP JUMPDEST PUSH2 0x15FF SWAP2 SWAP1 PUSH2 0x1C90 JUMP JUMPDEST PUSH2 0x1609 SWAP2 SWAP1 PUSH2 0x1C5F JUMP JUMPDEST SWAP1 POP DUP1 PUSH1 0x0 DUP1 DUP8 PUSH20 0xFFFFFFFFFFFFFFFFFFFFFFFFFFFFFFFFFFFFFFFF AND PUSH20 0xFFFFFFFFFFFFFFFFFFFFFFFFFFFFFFFFFFFFFFFF AND DUP2 MSTORE PUSH1 0x20 ADD SWAP1 DUP2 MSTORE PUSH1 0x20 ADD PUSH1 0x0 KECCAK256 PUSH1 0x4 ADD PUSH1 0x0 DUP3 DUP3 SLOAD PUSH2 0x165C SWAP2 SWAP1 PUSH2 0x1C09 JUMP JUMPDEST SWAP3 POP POP DUP2 SWAP1 SSTORE POP POP PUSH2 0x166E JUMP JUMPDEST PUSH2 0x1681 JUMP JUMPDEST DUP1 DUP1 PUSH2 0x1679 SWAP1 PUSH2 0x1D66 JUMP JUMPDEST SWAP2 POP POP PUSH2 0x1490 JUMP JUMPDEST POP POP POP POP POP POP JUMP JUMPDEST PUSH1 0x40 MLOAD DUP1 PUSH1 0xC0 ADD PUSH1 0x40 MSTORE DUP1 PUSH1 0x0 DUP2 MSTORE PUSH1 0x20 ADD PUSH1 0x0 DUP2 MSTORE PUSH1 0x20 ADD PUSH1 0x0 DUP2 MSTORE PUSH1 0x20 ADD PUSH1 0x0 DUP2 MSTORE PUSH1 0x20 ADD PUSH1 0x0 DUP2 MSTORE PUSH1 0x20 ADD PUSH1 0x0 ISZERO ISZERO DUP2 MSTORE POP SWAP1 JUMP JUMPDEST PUSH1 0x0 DUP2 CALLDATALOAD SWAP1 POP PUSH2 0x16D0 DUP2 PUSH2 0x1FAF JUMP JUMPDEST SWAP3 SWAP2 POP POP JUMP JUMPDEST PUSH1 0x0 DUP2 MLOAD SWAP1 POP PUSH2 0x16E5 DUP2 PUSH2 0x1FC6 JUMP JUMPDEST SWAP3 SWAP2 POP POP JUMP JUMPDEST PUSH1 0x0 DUP2 CALLDATALOAD SWAP1 POP PUSH2 0x16FA DUP2 PUSH2 0x1FDD JUMP JUMPDEST SWAP3 SWAP2 POP POP JUMP JUMPDEST PUSH1 0x0 DUP2 MLOAD SWAP1 POP PUSH2 0x170F DUP2 PUSH2 0x1FDD JUMP JUMPDEST SWAP3 SWAP2 POP POP JUMP JUMPDEST PUSH1 0x0 PUSH1 0x20 DUP3 DUP5 SUB SLT ISZERO PUSH2 0x172B JUMPI PUSH2 0x172A PUSH2 0x1E6B JUMP JUMPDEST JUMPDEST PUSH1 0x0 PUSH2 0x1739 DUP5 DUP3 DUP6 ADD PUSH2 0x16C1 JUMP JUMPDEST SWAP2 POP POP SWAP3 SWAP2 POP POP JUMP JUMPDEST PUSH1 0x0 PUSH1 0x20 DUP3 DUP5 SUB SLT ISZERO PUSH2 0x1758 JUMPI PUSH2 0x1757 PUSH2 0x1E6B JUMP JUMPDEST JUMPDEST PUSH1 0x0 PUSH2 0x1766 DUP5 DUP3 DUP6 ADD PUSH2 0x16D6 JUMP JUMPDEST SWAP2 POP POP SWAP3 SWAP2 POP POP JUMP JUMPDEST PUSH1 0x0 PUSH1 0x20 DUP3 DUP5 SUB SLT ISZERO PUSH2 0x1785 JUMPI PUSH2 0x1784 PUSH2 0x1E6B JUMP JUMPDEST JUMPDEST PUSH1 0x0 PUSH2 0x1793 DUP5 DUP3 DUP6 ADD PUSH2 0x16EB JUMP JUMPDEST SWAP2 POP POP SWAP3 SWAP2 POP POP JUMP JUMPDEST PUSH1 0x0 PUSH1 0x20 DUP3 DUP5 SUB SLT ISZERO PUSH2 0x17B2 JUMPI PUSH2 0x17B1 PUSH2 0x1E6B JUMP JUMPDEST JUMPDEST PUSH1 0x0 PUSH2 0x17C0 DUP5 DUP3 DUP6 ADD PUSH2 0x1700 JUMP JUMPDEST SWAP2 POP POP SWAP3 SWAP2 POP POP JUMP JUMPDEST PUSH1 0x0 PUSH2 0x17D5 DUP4 DUP4 PUSH2 0x191B JUMP JUMPDEST PUSH1 0xC0 DUP4 ADD SWAP1 POP SWAP3 SWAP2 POP POP JUMP JUMPDEST PUSH2 0x17EA DUP2 PUSH2 0x1D1E JUMP JUMPDEST DUP3 MSTORE POP POP JUMP JUMPDEST PUSH1 0x0 PUSH2 0x17FB DUP3 PUSH2 0x1BCF JUMP JUMPDEST PUSH2 0x1805 DUP2 DUP6 PUSH2 0x1BE7 JUMP JUMPDEST SWAP4 POP PUSH2 0x1810 DUP4 PUSH2 0x1BBF JUMP JUMPDEST DUP1 PUSH1 0x0 JUMPDEST DUP4 DUP2 LT ISZERO PUSH2 0x1841 JUMPI DUP2 MLOAD PUSH2 0x1828 DUP9 DUP3 PUSH2 0x17C9 JUMP JUMPDEST SWAP8 POP PUSH2 0x1833 DUP4 PUSH2 0x1BDA JUMP JUMPDEST SWAP3 POP POP PUSH1 0x1 DUP2 ADD SWAP1 POP PUSH2 0x1814 JUMP JUMPDEST POP DUP6 SWAP4 POP POP POP POP SWAP3 SWAP2 POP POP JUMP JUMPDEST PUSH2 0x1857 DUP2 PUSH2 0x1D30 JUMP JUMPDEST DUP3 MSTORE POP POP JUMP JUMPDEST PUSH2 0x1866 DUP2 PUSH2 0x1D30 JUMP JUMPDEST DUP3 MSTORE POP POP JUMP JUMPDEST PUSH1 0x0 PUSH2 0x1879 PUSH1 0x1D DUP4 PUSH2 0x1BF8 JUMP JUMPDEST SWAP2 POP PUSH2 0x1884 DUP3 PUSH2 0x1E70 JUMP JUMPDEST PUSH1 0x20 DUP3 ADD SWAP1 POP SWAP2 SWAP1 POP JUMP JUMPDEST PUSH1 0x0 PUSH2 0x189C PUSH1 0x2B DUP4 PUSH2 0x1BF8 JUMP JUMPDEST SWAP2 POP PUSH2 0x18A7 DUP3 PUSH2 0x1E99 JUMP JUMPDEST PUSH1 0x40 DUP3 ADD SWAP1 POP SWAP2 SWAP1 POP JUMP JUMPDEST PUSH1 0x0 PUSH2 0x18BF PUSH1 0x25 DUP4 PUSH2 0x1BF8 JUMP JUMPDEST SWAP2 POP PUSH2 0x18CA DUP3 PUSH2 0x1EE8 JUMP JUMPDEST PUSH1 0x40 DUP3 ADD SWAP1 POP SWAP2 SWAP1 POP JUMP JUMPDEST PUSH1 0x0 PUSH2 0x18E2 PUSH1 0x1B DUP4 PUSH2 0x1BF8 JUMP JUMPDEST SWAP2 POP PUSH2 0x18ED DUP3 PUSH2 0x1F37 JUMP JUMPDEST PUSH1 0x20 DUP3 ADD SWAP1 POP SWAP2 SWAP1 POP JUMP JUMPDEST PUSH1 0x0 PUSH2 0x1905 PUSH1 0x23 DUP4 PUSH2 0x1BF8 JUMP JUMPDEST SWAP2 POP PUSH2 0x1910 DUP3 PUSH2 0x1F60 JUMP JUMPDEST PUSH1 0x40 DUP3 ADD SWAP1 POP SWAP2 SWAP1 POP JUMP JUMPDEST PUSH1 0xC0 DUP3 ADD PUSH1 0x0 DUP3 ADD MLOAD PUSH2 0x1931 PUSH1 0x0 DUP6 ADD DUP3 PUSH2 0x1996 JUMP JUMPDEST POP PUSH1 0x20 DUP3 ADD MLOAD PUSH2 0x1944 PUSH1 0x20 DUP6 ADD DUP3 PUSH2 0x1996 JUMP JUMPDEST POP PUSH1 0x40 DUP3 ADD MLOAD PUSH2 0x1957 PUSH1 0x40 DUP6 ADD DUP3 PUSH2 0x1996 JUMP JUMPDEST POP PUSH1 0x60 DUP3 ADD MLOAD PUSH2 0x196A PUSH1 0x60 DUP6 ADD DUP3 PUSH2 0x1996 JUMP JUMPDEST POP PUSH1 0x80 DUP3 ADD MLOAD PUSH2 0x197D PUSH1 0x80 DUP6 ADD DUP3 PUSH2 0x1996 JUMP JUMPDEST POP PUSH1 0xA0 DUP3 ADD MLOAD PUSH2 0x1990 PUSH1 0xA0 DUP6 ADD DUP3 PUSH2 0x184E JUMP JUMPDEST POP POP POP POP JUMP JUMPDEST PUSH2 0x199F DUP2 PUSH2 0x1D5C JUMP JUMPDEST DUP3 MSTORE POP POP JUMP JUMPDEST PUSH2 0x19AE DUP2 PUSH2 0x1D5C JUMP JUMPDEST DUP3 MSTORE POP POP JUMP JUMPDEST PUSH1 0x0 PUSH1 0x20 DUP3 ADD SWAP1 POP PUSH2 0x19C9 PUSH1 0x0 DUP4 ADD DUP5 PUSH2 0x17E1 JUMP JUMPDEST SWAP3 SWAP2 POP POP JUMP JUMPDEST PUSH1 0x0 PUSH1 0x60 DUP3 ADD SWAP1 POP PUSH2 0x19E4 PUSH1 0x0 DUP4 ADD DUP7 PUSH2 0x17E1 JUMP JUMPDEST PUSH2 0x19F1 PUSH1 0x20 DUP4 ADD DUP6 PUSH2 0x17E1 JUMP JUMPDEST PUSH2 0x19FE PUSH1 0x40 DUP4 ADD DUP5 PUSH2 0x19A5 JUMP JUMPDEST SWAP5 SWAP4 POP POP POP POP JUMP JUMPDEST PUSH1 0x0 PUSH1 0x40 DUP3 ADD SWAP1 POP PUSH2 0x1A1B PUSH1 0x0 DUP4 ADD DUP6 PUSH2 0x17E1 JUMP JUMPDEST PUSH2 0x1A28 PUSH1 0x20 DUP4 ADD DUP5 PUSH2 0x19A5 JUMP JUMPDEST SWAP4 SWAP3 POP POP POP JUMP JUMPDEST PUSH1 0x0 PUSH1 0x20 DUP3 ADD SWAP1 POP DUP2 DUP2 SUB PUSH1 0x0 DUP4 ADD MSTORE PUSH2 0x1A49 DUP2 DUP5 PUSH2 0x17F0 JUMP JUMPDEST SWAP1 POP SWAP3 SWAP2 POP POP JUMP JUMPDEST PUSH1 0x0 PUSH1 0x20 DUP3 ADD SWAP1 POP PUSH2 0x1A66 PUSH1 0x0 DUP4 ADD DUP5 PUSH2 0x185D JUMP JUMPDEST SWAP3 SWAP2 POP POP JUMP JUMPDEST PUSH1 0x0 PUSH1 0x20 DUP3 ADD SWAP1 POP DUP2 DUP2 SUB PUSH1 0x0 DUP4 ADD MSTORE PUSH2 0x1A85 DUP2 PUSH2 0x186C JUMP JUMPDEST SWAP1 POP SWAP2 SWAP1 POP JUMP JUMPDEST PUSH1 0x0 PUSH1 0x20 DUP3 ADD SWAP1 POP DUP2 DUP2 SUB PUSH1 0x0 DUP4 ADD MSTORE PUSH2 0x1AA5 DUP2 PUSH2 0x188F JUMP JUMPDEST SWAP1 POP SWAP2 SWAP1 POP JUMP JUMPDEST PUSH1 0x0 PUSH1 0x20 DUP3 ADD SWAP1 POP DUP2 DUP2 SUB PUSH1 0x0 DUP4 ADD MSTORE PUSH2 0x1AC5 DUP2 PUSH2 0x18B2 JUMP JUMPDEST SWAP1 POP SWAP2 SWAP1 POP JUMP JUMPDEST PUSH1 0x0 PUSH1 0x20 DUP3 ADD SWAP1 POP DUP2 DUP2 SUB PUSH1 0x0 DUP4 ADD MSTORE PUSH2 0x1AE5 DUP2 PUSH2 0x18D5 JUMP JUMPDEST SWAP1 POP SWAP2 SWAP1 POP JUMP JUMPDEST PUSH1 0x0 PUSH1 0x20 DUP3 ADD SWAP1 POP DUP2 DUP2 SUB PUSH1 0x0 DUP4 ADD MSTORE PUSH2 0x1B05 DUP2 PUSH2 0x18F8 JUMP JUMPDEST SWAP1 POP SWAP2 SWAP1 POP JUMP JUMPDEST PUSH1 0x0 PUSH1 0x20 DUP3 ADD SWAP1 POP PUSH2 0x1B21 PUSH1 0x0 DUP4 ADD DUP5 PUSH2 0x19A5 JUMP JUMPDEST SWAP3 SWAP2 POP POP JUMP JUMPDEST PUSH1 0x0 PUSH1 0xA0 DUP3 ADD SWAP1 POP PUSH2 0x1B3C PUSH1 0x0 DUP4 ADD DUP9 PUSH2 0x19A5 JUMP JUMPDEST PUSH2 0x1B49 PUSH1 0x20 DUP4 ADD DUP8 PUSH2 0x17E1 JUMP JUMPDEST PUSH2 0x1B56 PUSH1 0x40 DUP4 ADD DUP7 PUSH2 0x185D JUMP JUMPDEST PUSH2 0x1B63 PUSH1 0x60 DUP4 ADD DUP6 PUSH2 0x19A5 JUMP JUMPDEST PUSH2 0x1B70 PUSH1 0x80 DUP4 ADD DUP5 PUSH2 0x19A5 JUMP JUMPDEST SWAP7 SWAP6 POP POP POP POP POP POP JUMP JUMPDEST PUSH1 0x0 PUSH1 0x80 DUP3 ADD SWAP1 POP PUSH2 0x1B8F PUSH1 0x0 DUP4 ADD DUP8 PUSH2 0x19A5 JUMP JUMPDEST PUSH2 0x1B9C PUSH1 0x20 DUP4 ADD DUP7 PUSH2 0x19A5 JUMP JUMPDEST PUSH2 0x1BA9 PUSH1 0x40 DUP4 ADD DUP6 PUSH2 0x19A5 JUMP JUMPDEST PUSH2 0x1BB6 PUSH1 0x60 DUP4 ADD DUP5 PUSH2 0x19A5 JUMP JUMPDEST SWAP6 SWAP5 POP POP POP POP POP JUMP JUMPDEST PUSH1 0x0 DUP2 SWAP1 POP PUSH1 0x20 DUP3 ADD SWAP1 POP SWAP2 SWAP1 POP JUMP JUMPDEST PUSH1 0x0 DUP2 MLOAD SWAP1 POP SWAP2 SWAP1 POP JUMP JUMPDEST PUSH1 0x0 PUSH1 0x20 DUP3 ADD SWAP1 POP SWAP2 SWAP1 POP JUMP JUMPDEST PUSH1 0x0 DUP3 DUP3 MSTORE PUSH1 0x20 DUP3 ADD SWAP1 POP SWAP3 SWAP2 POP POP JUMP JUMPDEST PUSH1 0x0 DUP3 DUP3 MSTORE PUSH1 0x20 DUP3 ADD SWAP1 POP SWAP3 SWAP2 POP POP JUMP JUMPDEST PUSH1 0x0 PUSH2 0x1C14 DUP3 PUSH2 0x1D5C JUMP JUMPDEST SWAP2 POP PUSH2 0x1C1F DUP4 PUSH2 0x1D5C JUMP JUMPDEST SWAP3 POP DUP3 PUSH32 0xFFFFFFFFFFFFFFFFFFFFFFFFFFFFFFFFFFFFFFFFFFFFFFFFFFFFFFFFFFFFFFFF SUB DUP3 GT ISZERO PUSH2 0x1C54 JUMPI PUSH2 0x1C53 PUSH2 0x1DAF JUMP JUMPDEST JUMPDEST DUP3 DUP3 ADD SWAP1 POP SWAP3 SWAP2 POP POP JUMP JUMPDEST PUSH1 0x0 PUSH2 0x1C6A DUP3 PUSH2 0x1D5C JUMP JUMPDEST SWAP2 POP PUSH2 0x1C75 DUP4 PUSH2 0x1D5C JUMP JUMPDEST SWAP3 POP DUP3 PUSH2 0x1C85 JUMPI PUSH2 0x1C84 PUSH2 0x1DDE JUMP JUMPDEST JUMPDEST DUP3 DUP3 DIV SWAP1 POP SWAP3 SWAP2 POP POP JUMP JUMPDEST PUSH1 0x0 PUSH2 0x1C9B DUP3 PUSH2 0x1D5C JUMP JUMPDEST SWAP2 POP PUSH2 0x1CA6 DUP4 PUSH2 0x1D5C JUMP JUMPDEST SWAP3 POP DUP2 PUSH32 0xFFFFFFFFFFFFFFFFFFFFFFFFFFFFFFFFFFFFFFFFFFFFFFFFFFFFFFFFFFFFFFFF DIV DUP4 GT DUP3 ISZERO ISZERO AND ISZERO PUSH2 0x1CDF JUMPI PUSH2 0x1CDE PUSH2 0x1DAF JUMP JUMPDEST JUMPDEST DUP3 DUP3 MUL SWAP1 POP SWAP3 SWAP2 POP POP JUMP JUMPDEST PUSH1 0x0 PUSH2 0x1CF5 DUP3 PUSH2 0x1D5C JUMP JUMPDEST SWAP2 POP PUSH2 0x1D00 DUP4 PUSH2 0x1D5C JUMP JUMPDEST SWAP3 POP DUP3 DUP3 LT ISZERO PUSH2 0x1D13 JUMPI PUSH2 0x1D12 PUSH2 0x1DAF JUMP JUMPDEST JUMPDEST DUP3 DUP3 SUB SWAP1 POP SWAP3 SWAP2 POP POP JUMP JUMPDEST PUSH1 0x0 PUSH2 0x1D29 DUP3 PUSH2 0x1D3C JUMP JUMPDEST SWAP1 POP SWAP2 SWAP1 POP JUMP JUMPDEST PUSH1 0x0 DUP2 ISZERO ISZERO SWAP1 POP SWAP2 SWAP1 POP JUMP JUMPDEST PUSH1 0x0 PUSH20 0xFFFFFFFFFFFFFFFFFFFFFFFFFFFFFFFFFFFFFFFF DUP3 AND SWAP1 POP SWAP2 SWAP1 POP JUMP JUMPDEST PUSH1 0x0 DUP2 SWAP1 POP SWAP2 SWAP1 POP JUMP JUMPDEST PUSH1 0x0 PUSH2 0x1D71 DUP3 PUSH2 0x1D5C JUMP JUMPDEST SWAP2 POP PUSH32 0xFFFFFFFFFFFFFFFFFFFFFFFFFFFFFFFFFFFFFFFFFFFFFFFFFFFFFFFFFFFFFFFF DUP3 EQ ISZERO PUSH2 0x1DA4 JUMPI PUSH2 0x1DA3 PUSH2 0x1DAF JUMP JUMPDEST JUMPDEST PUSH1 0x1 DUP3 ADD SWAP1 POP SWAP2 SWAP1 POP JUMP JUMPDEST PUSH32 0x4E487B7100000000000000000000000000000000000000000000000000000000 PUSH1 0x0 MSTORE PUSH1 0x11 PUSH1 0x4 MSTORE PUSH1 0x24 PUSH1 0x0 REVERT JUMPDEST PUSH32 0x4E487B7100000000000000000000000000000000000000000000000000000000 PUSH1 0x0 MSTORE PUSH1 0x12 PUSH1 0x4 MSTORE PUSH1 0x24 PUSH1 0x0 REVERT JUMPDEST PUSH32 0x4E487B7100000000000000000000000000000000000000000000000000000000 PUSH1 0x0 MSTORE PUSH1 0x32 PUSH1 0x4 MSTORE PUSH1 0x24 PUSH1 0x0 REVERT JUMPDEST PUSH32 0x4E487B7100000000000000000000000000000000000000000000000000000000 PUSH1 0x0 MSTORE PUSH1 0x41 PUSH1 0x4 MSTORE PUSH1 0x24 PUSH1 0x0 REVERT JUMPDEST PUSH1 0x0 DUP1 REVERT JUMPDEST PUSH32 0x796F7520646F6E74206861766520746F6B656E7320746F20636C61696D000000 PUSH1 0x0 DUP3 ADD MSTORE POP JUMP JUMPDEST PUSH32 0x696E766573746D656E7420636C61696D2074696D652074696D65206973206E6F PUSH1 0x0 DUP3 ADD MSTORE PUSH32 0x7420636F6D706C65746564000000000000000000000000000000000000000000 PUSH1 0x20 DUP3 ADD MSTORE POP JUMP JUMPDEST PUSH32 0x61736B696E6720746F6B656E7320617265206D6F7265207468616E2074686520 PUSH1 0x0 DUP3 ADD MSTORE PUSH32 0x6C696D6974000000000000000000000000000000000000000000000000000000 PUSH1 0x20 DUP3 ADD MSTORE POP JUMP JUMPDEST PUSH32 0x746F6B656E7320646F6573206E6F74207472616E736665727265640000000000 PUSH1 0x0 DUP3 ADD MSTORE POP JUMP JUMPDEST PUSH32 0x796F7520646F6E74206861766520656E6F7567682062616C616E636520746F20 PUSH1 0x0 DUP3 ADD MSTORE PUSH32 0x6275790000000000000000000000000000000000000000000000000000000000 PUSH1 0x20 DUP3 ADD MSTORE POP JUMP JUMPDEST PUSH2 0x1FB8 DUP2 PUSH2 0x1D1E JUMP JUMPDEST DUP2 EQ PUSH2 0x1FC3 JUMPI PUSH1 0x0 DUP1 REVERT JUMPDEST POP JUMP JUMPDEST PUSH2 0x1FCF DUP2 PUSH2 0x1D30 JUMP JUMPDEST DUP2 EQ PUSH2 0x1FDA JUMPI PUSH1 0x0 DUP1 REVERT JUMPDEST POP JUMP JUMPDEST PUSH2 0x1FE6 DUP2 PUSH2 0x1D5C JUMP JUMPDEST DUP2 EQ PUSH2 0x1FF1 JUMPI PUSH1 0x0 DUP1 REVERT JUMPDEST POP JUMP INVALID LOG2 PUSH5 0x6970667358 0x22 SLT KECCAK256 GASLIMIT 0xFB DUP9 0xB6 PC 0x21 SWAP9 0xE3 LOG1 0x22 0xA9 PUSH10 0xC1F96CFEE6B72CEBDE8F 0x23 0x4C 0xD8 PUSH12 0xDB6C59215A3D64736F6C6343 STOP ADDMOD SMOD STOP CALLER "
				},
				"gasEstimates": {
					"creation": {
						"codeDepositCost": "1646800",
						"executionCost": "1729",
						"totalCost": "1648529"
					},
					"external": {
						"buy_tokens(address)": "infinite",
						"claim_bought_tokens(uint256)": "infinite",
						"claim_ref_tokens()": "2676",
						"getAll_Buyings()": "infinite",
						"get_claim_ref_tokens()": "2576",
						"num()": "2429",
						"round(uint256)": "infinite",
						"usdt_address()": "2515",
						"user(address)": "infinite"
					},
					"internal": {
						"sendRewardToReferrals(address,uint256)": "infinite"
					}
				},
				"methodIdentifiers": {
					"buy_tokens(address)": "c68d4a38",
					"claim_bought_tokens(uint256)": "2f8bf52c",
					"claim_ref_tokens()": "783c94a7",
					"getAll_Buyings()": "44476bfb",
					"get_claim_ref_tokens()": "7d43577c",
					"num()": "4e70b1dc",
					"round(uint256)": "34d5f37b",
					"usdt_address()": "1fef3056",
					"user(address)": "81e7e20e"
				}
			},
			"storageLayout": {
				"storage": [
					{
						"astId": 75,
						"contract": "contracts/ODI_with _referral.sol:DOI",
						"label": "user",
						"offset": 0,
						"slot": "0",
						"type": "t_mapping(t_address,t_struct(user_info)61_storage)"
					},
					{
						"astId": 80,
						"contract": "contracts/ODI_with _referral.sol:DOI",
						"label": "round",
						"offset": 0,
						"slot": "1",
						"type": "t_mapping(t_uint256,t_struct(Data)70_storage)"
					},
					{
						"astId": 82,
						"contract": "contracts/ODI_with _referral.sol:DOI",
						"label": "usdt_address",
						"offset": 0,
						"slot": "2",
						"type": "t_address"
					},
					{
						"astId": 84,
						"contract": "contracts/ODI_with _referral.sol:DOI",
						"label": "num",
						"offset": 0,
						"slot": "3",
						"type": "t_uint256"
					}
				],
				"types": {
					"t_address": {
						"encoding": "inplace",
						"label": "address",
						"numberOfBytes": "20"
					},
					"t_array(t_address)dyn_storage": {
						"base": "t_address",
						"encoding": "dynamic_array",
						"label": "address[]",
						"numberOfBytes": "32"
					},
					"t_bool": {
						"encoding": "inplace",
						"label": "bool",
						"numberOfBytes": "1"
					},
					"t_mapping(t_address,t_struct(user_info)61_storage)": {
						"encoding": "mapping",
						"key": "t_address",
						"label": "mapping(address => struct DOI.user_info)",
						"numberOfBytes": "32",
						"value": "t_struct(user_info)61_storage"
					},
					"t_mapping(t_uint256,t_struct(Data)70_storage)": {
						"encoding": "mapping",
						"key": "t_uint256",
						"label": "mapping(uint256 => struct DOI.Data)",
						"numberOfBytes": "32",
						"value": "t_struct(Data)70_storage"
					},
					"t_mapping(t_uint256,t_struct(allInvestments)42_storage)": {
						"encoding": "mapping",
						"key": "t_uint256",
						"label": "mapping(uint256 => struct DOI.allInvestments)",
						"numberOfBytes": "32",
						"value": "t_struct(allInvestments)42_storage"
					},
					"t_struct(Data)70_storage": {
						"encoding": "inplace",
						"label": "struct DOI.Data",
						"members": [
							{
								"astId": 63,
								"contract": "contracts/ODI_with _referral.sol:DOI",
								"label": "upper_limit",
								"offset": 0,
								"slot": "0",
								"type": "t_uint256"
							},
							{
								"astId": 65,
								"contract": "contracts/ODI_with _referral.sol:DOI",
								"label": "quantity",
								"offset": 0,
								"slot": "1",
								"type": "t_uint256"
							},
							{
								"astId": 67,
								"contract": "contracts/ODI_with _referral.sol:DOI",
								"label": "round_price",
								"offset": 0,
								"slot": "2",
								"type": "t_uint256"
							},
							{
								"astId": 69,
								"contract": "contracts/ODI_with _referral.sol:DOI",
								"label": "total_limit",
								"offset": 0,
								"slot": "3",
								"type": "t_uint256"
							}
						],
						"numberOfBytes": "128"
					},
					"t_struct(allInvestments)42_storage": {
						"encoding": "inplace",
						"label": "struct DOI.allInvestments",
						"members": [
							{
								"astId": 31,
								"contract": "contracts/ODI_with _referral.sol:DOI",
								"label": "investedAmount",
								"offset": 0,
								"slot": "0",
								"type": "t_uint256"
							},
							{
								"astId": 33,
								"contract": "contracts/ODI_with _referral.sol:DOI",
								"label": "claim_Time",
								"offset": 0,
								"slot": "1",
								"type": "t_uint256"
							},
							{
								"astId": 35,
								"contract": "contracts/ODI_with _referral.sol:DOI",
								"label": "buying_Time",
								"offset": 0,
								"slot": "2",
								"type": "t_uint256"
							},
							{
								"astId": 37,
								"contract": "contracts/ODI_with _referral.sol:DOI",
								"label": "investmentNum",
								"offset": 0,
								"slot": "3",
								"type": "t_uint256"
							},
							{
								"astId": 39,
								"contract": "contracts/ODI_with _referral.sol:DOI",
								"label": "unstakeTime",
								"offset": 0,
								"slot": "4",
								"type": "t_uint256"
							},
							{
								"astId": 41,
								"contract": "contracts/ODI_with _referral.sol:DOI",
								"label": "claimed",
								"offset": 0,
								"slot": "5",
								"type": "t_bool"
							}
						],
						"numberOfBytes": "192"
					},
					"t_struct(user_info)61_storage": {
						"encoding": "inplace",
						"label": "struct DOI.user_info",
						"members": [
							{
								"astId": 47,
								"contract": "contracts/ODI_with _referral.sol:DOI",
								"label": "investment",
								"offset": 0,
								"slot": "0",
								"type": "t_mapping(t_uint256,t_struct(allInvestments)42_storage)"
							},
							{
								"astId": 49,
								"contract": "contracts/ODI_with _referral.sol:DOI",
								"label": "tokens_for_claiming",
								"offset": 0,
								"slot": "1",
								"type": "t_uint256"
							},
							{
								"astId": 51,
								"contract": "contracts/ODI_with _referral.sol:DOI",
								"label": "referralFrom",
								"offset": 0,
								"slot": "2",
								"type": "t_address"
							},
							{
								"astId": 53,
								"contract": "contracts/ODI_with _referral.sol:DOI",
								"label": "investBefore",
								"offset": 20,
								"slot": "2",
								"type": "t_bool"
							},
							{
								"astId": 56,
								"contract": "contracts/ODI_with _referral.sol:DOI",
								"label": "hisReferrals",
								"offset": 0,
								"slot": "3",
								"type": "t_array(t_address)dyn_storage"
							},
							{
								"astId": 58,
								"contract": "contracts/ODI_with _referral.sol:DOI",
								"label": "ref_tokens_claiming",
								"offset": 0,
								"slot": "4",
								"type": "t_uint256"
							},
							{
								"astId": 60,
								"contract": "contracts/ODI_with _referral.sol:DOI",
								"label": "total_investments",
								"offset": 0,
								"slot": "5",
								"type": "t_uint256"
							}
						],
						"numberOfBytes": "192"
					},
					"t_uint256": {
						"encoding": "inplace",
						"label": "uint256",
						"numberOfBytes": "32"
					}
				}
			},
			"userdoc": {
				"kind": "user",
				"methods": {},
				"version": 1
			}
		}
	}
}