{
	"contracts/contractsCopy/khaledulsaleh_staking.sol": {
		"Invest": {
			"abi": [
				{
					"inputs": [],
					"stateMutability": "nonpayable",
					"type": "constructor"
				},
				{
					"inputs": [],
					"name": "Admin_data",
					"outputs": [
						{
							"components": [
								{
									"internalType": "address",
									"name": "investor",
									"type": "address"
								},
								{
									"internalType": "uint256",
									"name": "totalInvestment",
									"type": "uint256"
								},
								{
									"internalType": "uint256",
									"name": "reward",
									"type": "uint256"
								},
								{
									"internalType": "uint256",
									"name": "noOfInvestment",
									"type": "uint256"
								},
								{
									"internalType": "uint256",
									"name": "totalWithdraw_reward",
									"type": "uint256"
								},
								{
									"internalType": "uint256",
									"name": "Total_referrals",
									"type": "uint256"
								}
							],
							"internalType": "struct Invest.Admin_Data[]",
							"name": "",
							"type": "tuple[]"
						}
					],
					"stateMutability": "view",
					"type": "function"
				},
				{
					"inputs": [
						{
							"internalType": "uint256",
							"name": "",
							"type": "uint256"
						}
					],
					"name": "All_investors",
					"outputs": [
						{
							"internalType": "address",
							"name": "",
							"type": "address"
						}
					],
					"stateMutability": "view",
					"type": "function"
				},
				{
					"inputs": [],
					"name": "DUSDReferralsList",
					"outputs": [
						{
							"internalType": "address[]",
							"name": "",
							"type": "address[]"
						}
					],
					"stateMutability": "view",
					"type": "function"
				},
				{
					"inputs": [],
					"name": "DUSDTotalReferrals",
					"outputs": [
						{
							"internalType": "uint256",
							"name": "",
							"type": "uint256"
						}
					],
					"stateMutability": "view",
					"type": "function"
				},
				{
					"inputs": [
						{
							"internalType": "address",
							"name": "",
							"type": "address"
						}
					],
					"name": "DUSDinvestor",
					"outputs": [
						{
							"internalType": "address",
							"name": "referralFrom",
							"type": "address"
						},
						{
							"internalType": "uint256",
							"name": "reward",
							"type": "uint256"
						},
						{
							"internalType": "uint256",
							"name": "noOfInvestment",
							"type": "uint256"
						},
						{
							"internalType": "uint256",
							"name": "totalInvestment",
							"type": "uint256"
						},
						{
							"internalType": "uint256",
							"name": "totalWithdraw_reward",
							"type": "uint256"
						},
						{
							"internalType": "bool",
							"name": "investBefore",
							"type": "bool"
						},
						{
							"internalType": "uint256",
							"name": "stakeTime",
							"type": "uint256"
						}
					],
					"stateMutability": "view",
					"type": "function"
				},
				{
					"inputs": [
						{
							"internalType": "uint256",
							"name": "_investedamount",
							"type": "uint256"
						}
					],
					"name": "Stake",
					"outputs": [
						{
							"internalType": "bool",
							"name": "success",
							"type": "bool"
						}
					],
					"stateMutability": "nonpayable",
					"type": "function"
				},
				{
					"inputs": [],
					"name": "denomenator",
					"outputs": [
						{
							"internalType": "uint256",
							"name": "",
							"type": "uint256"
						}
					],
					"stateMutability": "view",
					"type": "function"
				},
				{
					"inputs": [],
					"name": "getAllDUSDinvestments",
					"outputs": [
						{
							"components": [
								{
									"internalType": "uint256",
									"name": "investedAmount",
									"type": "uint256"
								},
								{
									"internalType": "uint256",
									"name": "withdrawnTime",
									"type": "uint256"
								},
								{
									"internalType": "uint256",
									"name": "DepositTime",
									"type": "uint256"
								},
								{
									"internalType": "uint256",
									"name": "investmentNum",
									"type": "uint256"
								},
								{
									"internalType": "uint256",
									"name": "unstakeTime",
									"type": "uint256"
								},
								{
									"internalType": "bool",
									"name": "unstake",
									"type": "bool"
								}
							],
							"internalType": "struct Invest.allInvestments[]",
							"name": "",
							"type": "tuple[]"
						}
					],
					"stateMutability": "view",
					"type": "function"
				},
				{
					"inputs": [],
					"name": "getReward",
					"outputs": [
						{
							"internalType": "uint256",
							"name": "",
							"type": "uint256"
						}
					],
					"stateMutability": "view",
					"type": "function"
				},
				{
					"inputs": [],
					"name": "getTotalInvestmentDUSD",
					"outputs": [
						{
							"internalType": "uint256",
							"name": "",
							"type": "uint256"
						}
					],
					"stateMutability": "view",
					"type": "function"
				},
				{
					"inputs": [],
					"name": "investmentPeriod",
					"outputs": [
						{
							"internalType": "uint256",
							"name": "",
							"type": "uint256"
						}
					],
					"stateMutability": "view",
					"type": "function"
				},
				{
					"inputs": [],
					"name": "max_Stake_amount",
					"outputs": [
						{
							"internalType": "uint256",
							"name": "",
							"type": "uint256"
						}
					],
					"stateMutability": "view",
					"type": "function"
				},
				{
					"inputs": [],
					"name": "min_Stake_amount",
					"outputs": [
						{
							"internalType": "uint256",
							"name": "",
							"type": "uint256"
						}
					],
					"stateMutability": "view",
					"type": "function"
				},
				{
					"inputs": [],
					"name": "owner",
					"outputs": [
						{
							"internalType": "address",
							"name": "",
							"type": "address"
						}
					],
					"stateMutability": "view",
					"type": "function"
				},
				{
					"inputs": [],
					"name": "referralLevel_count",
					"outputs": [
						{
							"internalType": "uint256[]",
							"name": "arr",
							"type": "uint256[]"
						}
					],
					"stateMutability": "view",
					"type": "function"
				},
				{
					"inputs": [],
					"name": "referralLevel_earning",
					"outputs": [
						{
							"internalType": "uint256[]",
							"name": "arr",
							"type": "uint256[]"
						}
					],
					"stateMutability": "view",
					"type": "function"
				},
				{
					"inputs": [],
					"name": "rewardToken",
					"outputs": [
						{
							"internalType": "uint256",
							"name": "",
							"type": "uint256"
						}
					],
					"stateMutability": "view",
					"type": "function"
				},
				{
					"inputs": [
						{
							"internalType": "uint256",
							"name": "_reward",
							"type": "uint256"
						}
					],
					"name": "setReward",
					"outputs": [],
					"stateMutability": "nonpayable",
					"type": "function"
				},
				{
					"inputs": [
						{
							"internalType": "uint256",
							"name": "_amount",
							"type": "uint256"
						}
					],
					"name": "set_max_Stake_amount",
					"outputs": [],
					"stateMutability": "nonpayable",
					"type": "function"
				},
				{
					"inputs": [
						{
							"internalType": "uint256",
							"name": "_amount",
							"type": "uint256"
						}
					],
					"name": "set_min_Stake_amount",
					"outputs": [],
					"stateMutability": "nonpayable",
					"type": "function"
				},
				{
					"inputs": [
						{
							"internalType": "uint256",
							"name": "min_stake",
							"type": "uint256"
						},
						{
							"internalType": "uint256",
							"name": "max_stake",
							"type": "uint256"
						},
						{
							"internalType": "uint256",
							"name": "_reward_per_day",
							"type": "uint256"
						},
						{
							"internalType": "uint256",
							"name": "_denomenator",
							"type": "uint256"
						}
					],
					"name": "set_values",
					"outputs": [],
					"stateMutability": "nonpayable",
					"type": "function"
				},
				{
					"inputs": [],
					"name": "totalDUSDInvestors",
					"outputs": [
						{
							"internalType": "uint256",
							"name": "",
							"type": "uint256"
						}
					],
					"stateMutability": "view",
					"type": "function"
				},
				{
					"inputs": [],
					"name": "total_withdraw_reaward",
					"outputs": [
						{
							"internalType": "uint256",
							"name": "",
							"type": "uint256"
						}
					],
					"stateMutability": "view",
					"type": "function"
				},
				{
					"inputs": [],
					"name": "totalbusiness",
					"outputs": [
						{
							"internalType": "uint256",
							"name": "",
							"type": "uint256"
						}
					],
					"stateMutability": "view",
					"type": "function"
				},
				{
					"inputs": [
						{
							"internalType": "address",
							"name": "_owner",
							"type": "address"
						}
					],
					"name": "transferOwnership",
					"outputs": [],
					"stateMutability": "nonpayable",
					"type": "function"
				},
				{
					"inputs": [],
					"name": "unStake",
					"outputs": [
						{
							"internalType": "bool",
							"name": "success",
							"type": "bool"
						}
					],
					"stateMutability": "nonpayable",
					"type": "function"
				},
				{
					"inputs": [],
					"name": "withdrawReward",
					"outputs": [
						{
							"internalType": "bool",
							"name": "success",
							"type": "bool"
						}
					],
					"stateMutability": "nonpayable",
					"type": "function"
				}
			],
			"devdoc": {
				"kind": "dev",
				"methods": {},
				"version": 1
			},
			"evm": {
				"assembly": "    /* \"contracts/contractsCopy/khaledulsaleh_staking.sol\":262:12717  contract Invest... */\n  mstore(0x40, 0x80)\n    /* \"contracts/contractsCopy/khaledulsaleh_staking.sol\":351:393  0xe9e7CEA3DedcA5984780Bafc599bD69ADd087D56 */\n  0xe9e7cea3dedca5984780bafc599bd69add087d56\n    /* \"contracts/contractsCopy/khaledulsaleh_staking.sol\":331:393  address SMCcontract=0xe9e7CEA3DedcA5984780Bafc599bD69ADd087D56 */\n  0x01\n  exp(0x0100, 0x00)\n  dup2\n  sload\n  dup2\n  0xffffffffffffffffffffffffffffffffffffffff\n  mul\n  not\n  and\n  swap1\n  dup4\n  0xffffffffffffffffffffffffffffffffffffffff\n  and\n  mul\n  or\n  swap1\n  sstore\n  pop\n    /* \"contracts/contractsCopy/khaledulsaleh_staking.sol\":424:466  0xe9e7CEA3DedcA5984780Bafc599bD69ADd087D56 */\n  0xe9e7cea3dedca5984780bafc599bd69add087d56\n    /* \"contracts/contractsCopy/khaledulsaleh_staking.sol\":403:466  address BUSDcontract=0xe9e7CEA3DedcA5984780Bafc599bD69ADd087D56 */\n  0x02\n  exp(0x0100, 0x00)\n  dup2\n  sload\n  dup2\n  0xffffffffffffffffffffffffffffffffffffffff\n  mul\n  not\n  and\n  swap1\n  dup4\n  0xffffffffffffffffffffffffffffffffffffffff\n  and\n  mul\n  or\n  swap1\n  sstore\n  pop\n    /* \"contracts/contractsCopy/khaledulsaleh_staking.sol\":649:652  191 */\n  0xbf\n    /* \"contracts/contractsCopy/khaledulsaleh_staking.sol\":629:652  uint reward_per_day=191 */\n  0x03\n  sstore\n    /* \"contracts/contractsCopy/khaledulsaleh_staking.sol\":726:745  5000000000000000000 */\n  0x4563918244f40000\n    /* \"contracts/contractsCopy/khaledulsaleh_staking.sol\":702:745  uint public rewardToken=5000000000000000000 */\n  0x05\n  sstore\n    /* \"contracts/contractsCopy/khaledulsaleh_staking.sol\":794:799  10000 */\n  0x2710\n    /* \"contracts/contractsCopy/khaledulsaleh_staking.sol\":765:799  uint public min_Stake_amount=10000 */\n  0x06\n  sstore\n    /* \"contracts/contractsCopy/khaledulsaleh_staking.sol\":865:872  5000000 */\n  0x4c4b40\n    /* \"contracts/contractsCopy/khaledulsaleh_staking.sol\":836:872  uint public max_Stake_amount=5000000 */\n  0x07\n  sstore\n    /* \"contracts/contractsCopy/khaledulsaleh_staking.sol\":934:940  100000 */\n  0x0186a0\n    /* \"contracts/contractsCopy/khaledulsaleh_staking.sol\":910:940  uint public denomenator=100000 */\n  0x08\n  sstore\n    /* \"contracts/contractsCopy/khaledulsaleh_staking.sol\":1007:1015  365 days */\n  0x01e13380\n    /* \"contracts/contractsCopy/khaledulsaleh_staking.sol\":978:1015  uint public investmentPeriod=365 days */\n  0x09\n  sstore\n    /* \"contracts/contractsCopy/khaledulsaleh_staking.sol\":2144:2274  constructor(){... */\n  callvalue\n  dup1\n  iszero\n  tag_1\n  jumpi\n  0x00\n  dup1\n  revert\ntag_1:\n  pop\n    /* \"contracts/contractsCopy/khaledulsaleh_staking.sol\":2190:2200  msg.sender */\n  caller\n    /* \"contracts/contractsCopy/khaledulsaleh_staking.sol\":2184:2189  owner */\n  0x00\n  dup1\n    /* \"contracts/contractsCopy/khaledulsaleh_staking.sol\":2184:2200  owner=msg.sender */\n  0x0100\n  exp\n  dup2\n  sload\n  dup2\n  0xffffffffffffffffffffffffffffffffffffffff\n  mul\n  not\n  and\n  swap1\n  dup4\n  0xffffffffffffffffffffffffffffffffffffffff\n  and\n  mul\n  or\n  swap1\n  sstore\n  pop\n    /* \"contracts/contractsCopy/khaledulsaleh_staking.sol\":262:12717  contract Invest... */\n  dataSize(sub_0)\n  dup1\n  dataOffset(sub_0)\n  0x00\n  codecopy\n  0x00\n  return\nstop\n\nsub_0: assembly {\n        /* \"contracts/contractsCopy/khaledulsaleh_staking.sol\":262:12717  contract Invest... */\n      mstore(0x40, 0x80)\n      callvalue\n      dup1\n      iszero\n      tag_1\n      jumpi\n      0x00\n      dup1\n      revert\n    tag_1:\n      pop\n      jumpi(tag_2, lt(calldatasize, 0x04))\n      shr(0xe0, calldataload(0x00))\n      dup1\n      0x5a4a0192\n      gt\n      tag_30\n      jumpi\n      dup1\n      0xc885bc58\n      gt\n      tag_31\n      jumpi\n      dup1\n      0xf2fde38b\n      gt\n      tag_32\n      jumpi\n      dup1\n      0xf2fde38b\n      eq\n      tag_26\n      jumpi\n      dup1\n      0xf790b81a\n      eq\n      tag_27\n      jumpi\n      dup1\n      0xf7c618c1\n      eq\n      tag_28\n      jumpi\n      dup1\n      0xfae730bc\n      eq\n      tag_29\n      jumpi\n      jump(tag_2)\n    tag_32:\n      dup1\n      0xc885bc58\n      eq\n      tag_23\n      jumpi\n      dup1\n      0xd3560ee8\n      eq\n      tag_24\n      jumpi\n      dup1\n      0xe2033fcb\n      eq\n      tag_25\n      jumpi\n      jump(tag_2)\n    tag_31:\n      dup1\n      0x929f6bbe\n      gt\n      tag_33\n      jumpi\n      dup1\n      0x929f6bbe\n      eq\n      tag_19\n      jumpi\n      dup1\n      0x9740a1bc\n      eq\n      tag_20\n      jumpi\n      dup1\n      0xa61be99d\n      eq\n      tag_21\n      jumpi\n      dup1\n      0xbc67eaff\n      eq\n      tag_22\n      jumpi\n      jump(tag_2)\n    tag_33:\n      dup1\n      0x5a4a0192\n      eq\n      tag_16\n      jumpi\n      dup1\n      0x73cf575a\n      eq\n      tag_17\n      jumpi\n      dup1\n      0x8da5cb5b\n      eq\n      tag_18\n      jumpi\n      jump(tag_2)\n    tag_30:\n      dup1\n      0x3a1e0833\n      gt\n      tag_34\n      jumpi\n      dup1\n      0x4eb1ecc9\n      gt\n      tag_35\n      jumpi\n      dup1\n      0x4eb1ecc9\n      eq\n      tag_12\n      jumpi\n      dup1\n      0x500cb85f\n      eq\n      tag_13\n      jumpi\n      dup1\n      0x502c6bfa\n      eq\n      tag_14\n      jumpi\n      dup1\n      0x523cddfe\n      eq\n      tag_15\n      jumpi\n      jump(tag_2)\n    tag_35:\n      dup1\n      0x3a1e0833\n      eq\n      tag_9\n      jumpi\n      dup1\n      0x3d18b912\n      eq\n      tag_10\n      jumpi\n      dup1\n      0x42508f66\n      eq\n      tag_11\n      jumpi\n      jump(tag_2)\n    tag_34:\n      dup1\n      0x0c5f58f4\n      eq\n      tag_3\n      jumpi\n      dup1\n      0x10cde60a\n      eq\n      tag_4\n      jumpi\n      dup1\n      0x1e8aba35\n      eq\n      tag_5\n      jumpi\n      dup1\n      0x227a473b\n      eq\n      tag_6\n      jumpi\n      dup1\n      0x293be456\n      eq\n      tag_7\n      jumpi\n      dup1\n      0x32d4e783\n      eq\n      tag_8\n      jumpi\n    tag_2:\n      0x00\n      dup1\n      revert\n        /* \"contracts/contractsCopy/khaledulsaleh_staking.sol\":9551:9760  function DUSDReferralsList() public view returns(address[] memory){ //this function is to get the all investors list with there account number... */\n    tag_3:\n      tag_36\n      tag_37\n      jump\t// in\n    tag_36:\n      mload(0x40)\n      tag_38\n      swap2\n      swap1\n      tag_39\n      jump\t// in\n    tag_38:\n      mload(0x40)\n      dup1\n      swap2\n      sub\n      swap1\n      return\n        /* \"contracts/contractsCopy/khaledulsaleh_staking.sol\":662:692  uint public totalDUSDInvestors */\n    tag_4:\n      tag_40\n      tag_41\n      jump\t// in\n    tag_40:\n      mload(0x40)\n      tag_42\n      swap2\n      swap1\n      tag_43\n      jump\t// in\n    tag_42:\n      mload(0x40)\n      dup1\n      swap2\n      sub\n      swap1\n      return\n        /* \"contracts/contractsCopy/khaledulsaleh_staking.sol\":9127:9318  function DUSDTotalReferrals() public view returns(uint){ // this function is to get the total number of referrals ... */\n    tag_5:\n      tag_44\n      tag_45\n      jump\t// in\n    tag_44:\n      mload(0x40)\n      tag_46\n      swap2\n      swap1\n      tag_43\n      jump\t// in\n    tag_46:\n      mload(0x40)\n      dup1\n      swap2\n      sub\n      swap1\n      return\n        /* \"contracts/contractsCopy/khaledulsaleh_staking.sol\":2294:3783  function Stake(uint _investedamount) external returns(bool success){... */\n    tag_6:\n      tag_47\n      0x04\n      dup1\n      calldatasize\n      sub\n      dup2\n      add\n      swap1\n      tag_48\n      swap2\n      swap1\n      tag_49\n      jump\t// in\n    tag_48:\n      tag_50\n      jump\t// in\n    tag_47:\n      mload(0x40)\n      tag_51\n      swap2\n      swap1\n      tag_52\n      jump\t// in\n    tag_51:\n      mload(0x40)\n      dup1\n      swap2\n      sub\n      swap1\n      return\n        /* \"contracts/contractsCopy/khaledulsaleh_staking.sol\":9769:9866  function setReward(uint _reward) public ... */\n    tag_7:\n      tag_53\n      0x04\n      dup1\n      calldatasize\n      sub\n      dup2\n      add\n      swap1\n      tag_54\n      swap2\n      swap1\n      tag_49\n      jump\t// in\n    tag_54:\n      tag_55\n      jump\t// in\n    tag_53:\n      stop\n        /* \"contracts/contractsCopy/khaledulsaleh_staking.sol\":9875:9986  function set_min_Stake_amount(uint _amount) public ... */\n    tag_8:\n      tag_56\n      0x04\n      dup1\n      calldatasize\n      sub\n      dup2\n      add\n      swap1\n      tag_57\n      swap2\n      swap1\n      tag_49\n      jump\t// in\n    tag_57:\n      tag_58\n      jump\t// in\n    tag_56:\n      stop\n        /* \"contracts/contractsCopy/khaledulsaleh_staking.sol\":8132:9115  function getAllDUSDinvestments() public view returns (allInvestments[] memory) { //this function will return the all investments of the investor and withware date... */\n    tag_9:\n      tag_59\n      tag_60\n      jump\t// in\n    tag_59:\n      mload(0x40)\n      tag_61\n      swap2\n      swap1\n      tag_62\n      jump\t// in\n    tag_61:\n      mload(0x40)\n      dup1\n      swap2\n      sub\n      swap1\n      return\n        /* \"contracts/contractsCopy/khaledulsaleh_staking.sol\":3792:4939  function getReward() view public returns(uint){ //this function is get the total reward balance of the investor... */\n    tag_10:\n      tag_63\n      tag_64\n      jump\t// in\n    tag_63:\n      mload(0x40)\n      tag_65\n      swap2\n      swap1\n      tag_43\n      jump\t// in\n    tag_65:\n      mload(0x40)\n      dup1\n      swap2\n      sub\n      swap1\n      return\n        /* \"contracts/contractsCopy/khaledulsaleh_staking.sol\":11737:12516  function Admin_data() view public returns(Admin_Data[] memory){... */\n    tag_11:\n      tag_66\n      tag_67\n      jump\t// in\n    tag_66:\n      mload(0x40)\n      tag_68\n      swap2\n      swap1\n      tag_69\n      jump\t// in\n    tag_68:\n      mload(0x40)\n      dup1\n      swap2\n      sub\n      swap1\n      return\n        /* \"contracts/contractsCopy/khaledulsaleh_staking.sol\":10115:10399  function set_values(uint min_stake,uint max_stake,uint _reward_per_day,uint _denomenator) public ... */\n    tag_12:\n      tag_70\n      0x04\n      dup1\n      calldatasize\n      sub\n      dup2\n      add\n      swap1\n      tag_71\n      swap2\n      swap1\n      tag_72\n      jump\t// in\n    tag_71:\n      tag_73\n      jump\t// in\n    tag_70:\n      stop\n        /* \"contracts/contractsCopy/khaledulsaleh_staking.sol\":9995:10106  function set_max_Stake_amount(uint _amount) public ... */\n    tag_13:\n      tag_74\n      0x04\n      dup1\n      calldatasize\n      sub\n      dup2\n      add\n      swap1\n      tag_75\n      swap2\n      swap1\n      tag_49\n      jump\t// in\n    tag_75:\n      tag_76\n      jump\t// in\n    tag_74:\n      stop\n        /* \"contracts/contractsCopy/khaledulsaleh_staking.sol\":1089:1132  mapping(uint=>address) public All_investors */\n    tag_14:\n      tag_77\n      0x04\n      dup1\n      calldatasize\n      sub\n      dup2\n      add\n      swap1\n      tag_78\n      swap2\n      swap1\n      tag_49\n      jump\t// in\n    tag_78:\n      tag_79\n      jump\t// in\n    tag_77:\n      mload(0x40)\n      tag_80\n      swap2\n      swap1\n      tag_81\n      jump\t// in\n    tag_80:\n      mload(0x40)\n      dup1\n      swap2\n      sub\n      swap1\n      return\n        /* \"contracts/contractsCopy/khaledulsaleh_staking.sol\":978:1015  uint public investmentPeriod=365 days */\n    tag_15:\n      tag_82\n      tag_83\n      jump\t// in\n    tag_82:\n      mload(0x40)\n      tag_84\n      swap2\n      swap1\n      tag_43\n      jump\t// in\n    tag_84:\n      mload(0x40)\n      dup1\n      swap2\n      sub\n      swap1\n      return\n        /* \"contracts/contractsCopy/khaledulsaleh_staking.sol\":12526:12709  function total_withdraw_reaward() view public returns(uint){... */\n    tag_16:\n      tag_85\n      tag_86\n      jump\t// in\n    tag_85:\n      mload(0x40)\n      tag_87\n      swap2\n      swap1\n      tag_43\n      jump\t// in\n    tag_87:\n      mload(0x40)\n      dup1\n      swap2\n      sub\n      swap1\n      return\n        /* \"contracts/contractsCopy/khaledulsaleh_staking.sol\":6706:7902  function unStake() external  returns (bool success){... */\n    tag_17:\n      tag_88\n      tag_89\n      jump\t// in\n    tag_88:\n      mload(0x40)\n      tag_90\n      swap2\n      swap1\n      tag_52\n      jump\t// in\n    tag_90:\n      mload(0x40)\n      dup1\n      swap2\n      sub\n      swap1\n      return\n        /* \"contracts/contractsCopy/khaledulsaleh_staking.sol\":300:321  address  public owner */\n    tag_18:\n      tag_91\n      tag_92\n      jump\t// in\n    tag_91:\n      mload(0x40)\n      tag_93\n      swap2\n      swap1\n      tag_81\n      jump\t// in\n    tag_93:\n      mload(0x40)\n      dup1\n      swap2\n      sub\n      swap1\n      return\n        /* \"contracts/contractsCopy/khaledulsaleh_staking.sol\":7912:8122  function getTotalInvestmentDUSD() public view returns(uint) {   //this function is to get the total investment of the ivestor... */\n    tag_19:\n      tag_94\n      tag_95\n      jump\t// in\n    tag_94:\n      mload(0x40)\n      tag_96\n      swap2\n      swap1\n      tag_43\n      jump\t// in\n    tag_96:\n      mload(0x40)\n      dup1\n      swap2\n      sub\n      swap1\n      return\n        /* \"contracts/contractsCopy/khaledulsaleh_staking.sol\":910:940  uint public denomenator=100000 */\n    tag_20:\n      tag_97\n      tag_98\n      jump\t// in\n    tag_97:\n      mload(0x40)\n      tag_99\n      swap2\n      swap1\n      tag_43\n      jump\t// in\n    tag_99:\n      mload(0x40)\n      dup1\n      swap2\n      sub\n      swap1\n      return\n        /* \"contracts/contractsCopy/khaledulsaleh_staking.sol\":10592:11157  function referralLevel_earning() public view returns( uint[] memory arr )... */\n    tag_21:\n      tag_100\n      tag_101\n      jump\t// in\n    tag_100:\n      mload(0x40)\n      tag_102\n      swap2\n      swap1\n      tag_103\n      jump\t// in\n    tag_102:\n      mload(0x40)\n      dup1\n      swap2\n      sub\n      swap1\n      return\n        /* \"contracts/contractsCopy/khaledulsaleh_staking.sol\":765:799  uint public min_Stake_amount=10000 */\n    tag_22:\n      tag_104\n      tag_105\n      jump\t// in\n    tag_104:\n      mload(0x40)\n      tag_106\n      swap2\n      swap1\n      tag_43\n      jump\t// in\n    tag_106:\n      mload(0x40)\n      dup1\n      swap2\n      sub\n      swap1\n      return\n        /* \"contracts/contractsCopy/khaledulsaleh_staking.sol\":6198:6695  function withdrawReward() external returns (bool success){... */\n    tag_23:\n      tag_107\n      tag_108\n      jump\t// in\n    tag_107:\n      mload(0x40)\n      tag_109\n      swap2\n      swap1\n      tag_52\n      jump\t// in\n    tag_109:\n      mload(0x40)\n      dup1\n      swap2\n      sub\n      swap1\n      return\n        /* \"contracts/contractsCopy/khaledulsaleh_staking.sol\":2091:2133  mapping(address=>Data) public DUSDinvestor */\n    tag_24:\n      tag_110\n      0x04\n      dup1\n      calldatasize\n      sub\n      dup2\n      add\n      swap1\n      tag_111\n      swap2\n      swap1\n      tag_112\n      jump\t// in\n    tag_111:\n      tag_113\n      jump\t// in\n    tag_110:\n      mload(0x40)\n      tag_114\n      swap8\n      swap7\n      swap6\n      swap5\n      swap4\n      swap3\n      swap2\n      swap1\n      tag_115\n      jump\t// in\n    tag_114:\n      mload(0x40)\n      dup1\n      swap2\n      sub\n      swap1\n      return\n        /* \"contracts/contractsCopy/khaledulsaleh_staking.sol\":1025:1050  uint public totalbusiness */\n    tag_25:\n      tag_116\n      tag_117\n      jump\t// in\n    tag_116:\n      mload(0x40)\n      tag_118\n      swap2\n      swap1\n      tag_43\n      jump\t// in\n    tag_118:\n      mload(0x40)\n      dup1\n      swap2\n      sub\n      swap1\n      return\n        /* \"contracts/contractsCopy/khaledulsaleh_staking.sol\":10408:10582  function transferOwnership(address _owner)  public... */\n    tag_26:\n      tag_119\n      0x04\n      dup1\n      calldatasize\n      sub\n      dup2\n      add\n      swap1\n      tag_120\n      swap2\n      swap1\n      tag_112\n      jump\t// in\n    tag_120:\n      tag_121\n      jump\t// in\n    tag_119:\n      stop\n        /* \"contracts/contractsCopy/khaledulsaleh_staking.sol\":11166:11727  function referralLevel_count() public view returns( uint[] memory arr )... */\n    tag_27:\n      tag_122\n      tag_123\n      jump\t// in\n    tag_122:\n      mload(0x40)\n      tag_124\n      swap2\n      swap1\n      tag_103\n      jump\t// in\n    tag_124:\n      mload(0x40)\n      dup1\n      swap2\n      sub\n      swap1\n      return\n        /* \"contracts/contractsCopy/khaledulsaleh_staking.sol\":702:745  uint public rewardToken=5000000000000000000 */\n    tag_28:\n      tag_125\n      tag_126\n      jump\t// in\n    tag_125:\n      mload(0x40)\n      tag_127\n      swap2\n      swap1\n      tag_43\n      jump\t// in\n    tag_127:\n      mload(0x40)\n      dup1\n      swap2\n      sub\n      swap1\n      return\n        /* \"contracts/contractsCopy/khaledulsaleh_staking.sol\":836:872  uint public max_Stake_amount=5000000 */\n    tag_29:\n      tag_128\n      tag_129\n      jump\t// in\n    tag_128:\n      mload(0x40)\n      tag_130\n      swap2\n      swap1\n      tag_43\n      jump\t// in\n    tag_130:\n      mload(0x40)\n      dup1\n      swap2\n      sub\n      swap1\n      return\n        /* \"contracts/contractsCopy/khaledulsaleh_staking.sol\":9551:9760  function DUSDReferralsList() public view returns(address[] memory){ //this function is to get the all investors list with there account number... */\n    tag_37:\n        /* \"contracts/contractsCopy/khaledulsaleh_staking.sol\":9600:9616  address[] memory */\n      0x60\n        /* \"contracts/contractsCopy/khaledulsaleh_staking.sol\":9712:9724  DUSDinvestor */\n      0x0d\n        /* \"contracts/contractsCopy/khaledulsaleh_staking.sol\":9712:9736  DUSDinvestor[msg.sender] */\n      0x00\n        /* \"contracts/contractsCopy/khaledulsaleh_staking.sol\":9725:9735  msg.sender */\n      caller\n        /* \"contracts/contractsCopy/khaledulsaleh_staking.sol\":9712:9736  DUSDinvestor[msg.sender] */\n      0xffffffffffffffffffffffffffffffffffffffff\n      and\n      0xffffffffffffffffffffffffffffffffffffffff\n      and\n      dup2\n      mstore\n      0x20\n      add\n      swap1\n      dup2\n      mstore\n      0x20\n      add\n      0x00\n      keccak256\n        /* \"contracts/contractsCopy/khaledulsaleh_staking.sol\":9712:9749  DUSDinvestor[msg.sender].hisReferrals */\n      0x01\n      add\n        /* \"contracts/contractsCopy/khaledulsaleh_staking.sol\":9705:9749  return DUSDinvestor[msg.sender].hisReferrals */\n      dup1\n      sload\n      dup1\n      0x20\n      mul\n      0x20\n      add\n      mload(0x40)\n      swap1\n      dup2\n      add\n      0x40\n      mstore\n      dup1\n      swap3\n      swap2\n      swap1\n      dup2\n      dup2\n      mstore\n      0x20\n      add\n      dup3\n      dup1\n      sload\n      dup1\n      iszero\n      tag_132\n      jumpi\n      0x20\n      mul\n      dup3\n      add\n      swap2\n      swap1\n      0x00\n      mstore\n      keccak256(0x00, 0x20)\n      swap1\n    tag_133:\n      dup2\n      0x00\n      swap1\n      sload\n      swap1\n      0x0100\n      exp\n      swap1\n      div\n      0xffffffffffffffffffffffffffffffffffffffff\n      and\n      0xffffffffffffffffffffffffffffffffffffffff\n      and\n      dup2\n      mstore\n      0x20\n      add\n      swap1\n      0x01\n      add\n      swap1\n      dup1\n      dup4\n      gt\n      tag_133\n      jumpi\n    tag_132:\n      pop\n      pop\n      pop\n      pop\n      pop\n      swap1\n      pop\n        /* \"contracts/contractsCopy/khaledulsaleh_staking.sol\":9551:9760  function DUSDReferralsList() public view returns(address[] memory){ //this function is to get the all investors list with there account number... */\n      swap1\n      jump\t// out\n        /* \"contracts/contractsCopy/khaledulsaleh_staking.sol\":662:692  uint public totalDUSDInvestors */\n    tag_41:\n      sload(0x04)\n      dup2\n      jump\t// out\n        /* \"contracts/contractsCopy/khaledulsaleh_staking.sol\":9127:9318  function DUSDTotalReferrals() public view returns(uint){ // this function is to get the total number of referrals ... */\n    tag_45:\n        /* \"contracts/contractsCopy/khaledulsaleh_staking.sol\":9177:9181  uint */\n      0x00\n        /* \"contracts/contractsCopy/khaledulsaleh_staking.sol\":9262:9274  DUSDinvestor */\n      0x0d\n        /* \"contracts/contractsCopy/khaledulsaleh_staking.sol\":9262:9286  DUSDinvestor[msg.sender] */\n      0x00\n        /* \"contracts/contractsCopy/khaledulsaleh_staking.sol\":9275:9285  msg.sender */\n      caller\n        /* \"contracts/contractsCopy/khaledulsaleh_staking.sol\":9262:9286  DUSDinvestor[msg.sender] */\n      0xffffffffffffffffffffffffffffffffffffffff\n      and\n      0xffffffffffffffffffffffffffffffffffffffff\n      and\n      dup2\n      mstore\n      0x20\n      add\n      swap1\n      dup2\n      mstore\n      0x20\n      add\n      0x00\n      keccak256\n        /* \"contracts/contractsCopy/khaledulsaleh_staking.sol\":9262:9299  DUSDinvestor[msg.sender].hisReferrals */\n      0x01\n      add\n        /* \"contracts/contractsCopy/khaledulsaleh_staking.sol\":9261:9307  (DUSDinvestor[msg.sender].hisReferrals).length */\n      dup1\n      sload\n      swap1\n      pop\n        /* \"contracts/contractsCopy/khaledulsaleh_staking.sol\":9254:9307  return (DUSDinvestor[msg.sender].hisReferrals).length */\n      swap1\n      pop\n        /* \"contracts/contractsCopy/khaledulsaleh_staking.sol\":9127:9318  function DUSDTotalReferrals() public view returns(uint){ // this function is to get the total number of referrals ... */\n      swap1\n      jump\t// out\n        /* \"contracts/contractsCopy/khaledulsaleh_staking.sol\":2294:3783  function Stake(uint _investedamount) external returns(bool success){... */\n    tag_50:\n        /* \"contracts/contractsCopy/khaledulsaleh_staking.sol\":2348:2360  bool success */\n      0x00\n        /* \"contracts/contractsCopy/khaledulsaleh_staking.sol\":2402:2418  min_Stake_amount */\n      sload(0x06)\n        /* \"contracts/contractsCopy/khaledulsaleh_staking.sol\":2383:2398  _investedamount */\n      dup3\n        /* \"contracts/contractsCopy/khaledulsaleh_staking.sol\":2383:2418  _investedamount >= min_Stake_amount */\n      lt\n      iszero\n        /* \"contracts/contractsCopy/khaledulsaleh_staking.sol\":2383:2457  _investedamount >= min_Stake_amount && _investedamount <= max_Stake_amount */\n      dup1\n      iszero\n      tag_136\n      jumpi\n      pop\n        /* \"contracts/contractsCopy/khaledulsaleh_staking.sol\":2441:2457  max_Stake_amount */\n      sload(0x07)\n        /* \"contracts/contractsCopy/khaledulsaleh_staking.sol\":2422:2437  _investedamount */\n      dup3\n        /* \"contracts/contractsCopy/khaledulsaleh_staking.sol\":2422:2457  _investedamount <= max_Stake_amount */\n      gt\n      iszero\n        /* \"contracts/contractsCopy/khaledulsaleh_staking.sol\":2383:2457  _investedamount >= min_Stake_amount && _investedamount <= max_Stake_amount */\n    tag_136:\n        /* \"contracts/contractsCopy/khaledulsaleh_staking.sol\":2375:2514  require(_investedamount >= min_Stake_amount && _investedamount <= max_Stake_amount,\"value is not greater than 10000 and less than 5000000\") */\n      tag_137\n      jumpi\n      mload(0x40)\n      0x08c379a000000000000000000000000000000000000000000000000000000000\n      dup2\n      mstore\n      0x04\n      add\n      tag_138\n      swap1\n      tag_139\n      jump\t// in\n    tag_138:\n      mload(0x40)\n      dup1\n      swap2\n      sub\n      swap1\n      revert\n    tag_137:\n        /* \"contracts/contractsCopy/khaledulsaleh_staking.sol\":2643:2648  false */\n      0x00\n        /* \"contracts/contractsCopy/khaledulsaleh_staking.sol\":2602:2648  DUSDinvestor[msg.sender].investBefore == false */\n      iszero\n      iszero\n        /* \"contracts/contractsCopy/khaledulsaleh_staking.sol\":2602:2614  DUSDinvestor */\n      0x0d\n        /* \"contracts/contractsCopy/khaledulsaleh_staking.sol\":2602:2626  DUSDinvestor[msg.sender] */\n      0x00\n        /* \"contracts/contractsCopy/khaledulsaleh_staking.sol\":2615:2625  msg.sender */\n      caller\n        /* \"contracts/contractsCopy/khaledulsaleh_staking.sol\":2602:2626  DUSDinvestor[msg.sender] */\n      0xffffffffffffffffffffffffffffffffffffffff\n      and\n      0xffffffffffffffffffffffffffffffffffffffff\n      and\n      dup2\n      mstore\n      0x20\n      add\n      swap1\n      dup2\n      mstore\n      0x20\n      add\n      0x00\n      keccak256\n        /* \"contracts/contractsCopy/khaledulsaleh_staking.sol\":2602:2639  DUSDinvestor[msg.sender].investBefore */\n      0x08\n      add\n      0x00\n      swap1\n      sload\n      swap1\n      0x0100\n      exp\n      swap1\n      div\n      0xff\n      and\n        /* \"contracts/contractsCopy/khaledulsaleh_staking.sol\":2602:2648  DUSDinvestor[msg.sender].investBefore == false */\n      iszero\n      iszero\n      eq\n        /* \"contracts/contractsCopy/khaledulsaleh_staking.sol\":2599:2816  if(DUSDinvestor[msg.sender].investBefore == false)... */\n      iszero\n      tag_140\n      jumpi\n        /* \"contracts/contractsCopy/khaledulsaleh_staking.sol\":2715:2725  msg.sender */\n      caller\n        /* \"contracts/contractsCopy/khaledulsaleh_staking.sol\":2681:2694  All_investors */\n      0x0c\n        /* \"contracts/contractsCopy/khaledulsaleh_staking.sol\":2681:2714  All_investors[totalDUSDInvestors] */\n      0x00\n        /* \"contracts/contractsCopy/khaledulsaleh_staking.sol\":2695:2713  totalDUSDInvestors */\n      sload(0x04)\n        /* \"contracts/contractsCopy/khaledulsaleh_staking.sol\":2681:2714  All_investors[totalDUSDInvestors] */\n      dup2\n      mstore\n      0x20\n      add\n      swap1\n      dup2\n      mstore\n      0x20\n      add\n      0x00\n      keccak256\n      0x00\n        /* \"contracts/contractsCopy/khaledulsaleh_staking.sol\":2681:2725  All_investors[totalDUSDInvestors]=msg.sender */\n      0x0100\n      exp\n      dup2\n      sload\n      dup2\n      0xffffffffffffffffffffffffffffffffffffffff\n      mul\n      not\n      and\n      swap1\n      dup4\n      0xffffffffffffffffffffffffffffffffffffffff\n      and\n      mul\n      or\n      swap1\n      sstore\n      pop\n        /* \"contracts/contractsCopy/khaledulsaleh_staking.sol\":2744:2762  totalDUSDInvestors */\n      0x04\n      0x00\n        /* \"contracts/contractsCopy/khaledulsaleh_staking.sol\":2744:2764  totalDUSDInvestors++ */\n      dup2\n      sload\n      dup1\n      swap3\n      swap2\n      swap1\n      tag_141\n      swap1\n      tag_142\n      jump\t// in\n    tag_141:\n      swap2\n      swap1\n      pop\n      sstore\n      pop\n        /* \"contracts/contractsCopy/khaledulsaleh_staking.sol\":2599:2816  if(DUSDinvestor[msg.sender].investBefore == false)... */\n    tag_140:\n        /* \"contracts/contractsCopy/khaledulsaleh_staking.sol\":2878:2879  0 */\n      0x00\n        /* \"contracts/contractsCopy/khaledulsaleh_staking.sol\":2834:2846  DUSDinvestor */\n      0x0d\n        /* \"contracts/contractsCopy/khaledulsaleh_staking.sol\":2834:2858  DUSDinvestor[msg.sender] */\n      0x00\n        /* \"contracts/contractsCopy/khaledulsaleh_staking.sol\":2847:2857  msg.sender */\n      caller\n        /* \"contracts/contractsCopy/khaledulsaleh_staking.sol\":2834:2858  DUSDinvestor[msg.sender] */\n      0xffffffffffffffffffffffffffffffffffffffff\n      and\n      0xffffffffffffffffffffffffffffffffffffffff\n      and\n      dup2\n      mstore\n      0x20\n      add\n      swap1\n      dup2\n      mstore\n      0x20\n      add\n      0x00\n      keccak256\n        /* \"contracts/contractsCopy/khaledulsaleh_staking.sol\":2834:2874  DUSDinvestor[msg.sender].totalInvestment */\n      0x06\n      add\n      sload\n        /* \"contracts/contractsCopy/khaledulsaleh_staking.sol\":2834:2879  DUSDinvestor[msg.sender].totalInvestment == 0 */\n      eq\n        /* \"contracts/contractsCopy/khaledulsaleh_staking.sol\":2831:2990  if(DUSDinvestor[msg.sender].totalInvestment == 0)... */\n      iszero\n      tag_143\n      jumpi\n        /* \"contracts/contractsCopy/khaledulsaleh_staking.sol\":2967:2975  365 days */\n      0x01e13380\n        /* \"contracts/contractsCopy/khaledulsaleh_staking.sol\":2949:2964  block.timestamp */\n      timestamp\n        /* \"contracts/contractsCopy/khaledulsaleh_staking.sol\":2949:2975  block.timestamp + 365 days */\n      tag_144\n      swap2\n      swap1\n      tag_145\n      jump\t// in\n    tag_144:\n        /* \"contracts/contractsCopy/khaledulsaleh_staking.sol\":2912:2924  DUSDinvestor */\n      0x0d\n        /* \"contracts/contractsCopy/khaledulsaleh_staking.sol\":2912:2936  DUSDinvestor[msg.sender] */\n      0x00\n        /* \"contracts/contractsCopy/khaledulsaleh_staking.sol\":2925:2935  msg.sender */\n      caller\n        /* \"contracts/contractsCopy/khaledulsaleh_staking.sol\":2912:2936  DUSDinvestor[msg.sender] */\n      0xffffffffffffffffffffffffffffffffffffffff\n      and\n      0xffffffffffffffffffffffffffffffffffffffff\n      and\n      dup2\n      mstore\n      0x20\n      add\n      swap1\n      dup2\n      mstore\n      0x20\n      add\n      0x00\n      keccak256\n        /* \"contracts/contractsCopy/khaledulsaleh_staking.sol\":2912:2946  DUSDinvestor[msg.sender].stakeTime */\n      0x09\n      add\n        /* \"contracts/contractsCopy/khaledulsaleh_staking.sol\":2912:2975  DUSDinvestor[msg.sender].stakeTime = block.timestamp + 365 days */\n      dup2\n      swap1\n      sstore\n      pop\n        /* \"contracts/contractsCopy/khaledulsaleh_staking.sol\":2831:2990  if(DUSDinvestor[msg.sender].totalInvestment == 0)... */\n    tag_143:\n        /* \"contracts/contractsCopy/khaledulsaleh_staking.sol\":3003:3011  uint num */\n      0x00\n        /* \"contracts/contractsCopy/khaledulsaleh_staking.sol\":3014:3026  DUSDinvestor */\n      0x0d\n        /* \"contracts/contractsCopy/khaledulsaleh_staking.sol\":3014:3038  DUSDinvestor[msg.sender] */\n      0x00\n        /* \"contracts/contractsCopy/khaledulsaleh_staking.sol\":3027:3037  msg.sender */\n      caller\n        /* \"contracts/contractsCopy/khaledulsaleh_staking.sol\":3014:3038  DUSDinvestor[msg.sender] */\n      0xffffffffffffffffffffffffffffffffffffffff\n      and\n      0xffffffffffffffffffffffffffffffffffffffff\n      and\n      dup2\n      mstore\n      0x20\n      add\n      swap1\n      dup2\n      mstore\n      0x20\n      add\n      0x00\n      keccak256\n        /* \"contracts/contractsCopy/khaledulsaleh_staking.sol\":3014:3053  DUSDinvestor[msg.sender].noOfInvestment */\n      0x05\n      add\n      sload\n        /* \"contracts/contractsCopy/khaledulsaleh_staking.sol\":3003:3053  uint num = DUSDinvestor[msg.sender].noOfInvestment */\n      swap1\n      pop\n        /* \"contracts/contractsCopy/khaledulsaleh_staking.sol\":3124:3139  _investedamount */\n      dup3\n        /* \"contracts/contractsCopy/khaledulsaleh_staking.sol\":3067:3079  DUSDinvestor */\n      0x0d\n        /* \"contracts/contractsCopy/khaledulsaleh_staking.sol\":3067:3091  DUSDinvestor[msg.sender] */\n      0x00\n        /* \"contracts/contractsCopy/khaledulsaleh_staking.sol\":3080:3090  msg.sender */\n      caller\n        /* \"contracts/contractsCopy/khaledulsaleh_staking.sol\":3067:3091  DUSDinvestor[msg.sender] */\n      0xffffffffffffffffffffffffffffffffffffffff\n      and\n      0xffffffffffffffffffffffffffffffffffffffff\n      and\n      dup2\n      mstore\n      0x20\n      add\n      swap1\n      dup2\n      mstore\n      0x20\n      add\n      0x00\n      keccak256\n        /* \"contracts/contractsCopy/khaledulsaleh_staking.sol\":3067:3102  DUSDinvestor[msg.sender].investment */\n      0x00\n      add\n        /* \"contracts/contractsCopy/khaledulsaleh_staking.sol\":3067:3107  DUSDinvestor[msg.sender].investment[num] */\n      0x00\n        /* \"contracts/contractsCopy/khaledulsaleh_staking.sol\":3103:3106  num */\n      dup4\n        /* \"contracts/contractsCopy/khaledulsaleh_staking.sol\":3067:3107  DUSDinvestor[msg.sender].investment[num] */\n      dup2\n      mstore\n      0x20\n      add\n      swap1\n      dup2\n      mstore\n      0x20\n      add\n      0x00\n      keccak256\n        /* \"contracts/contractsCopy/khaledulsaleh_staking.sol\":3067:3122  DUSDinvestor[msg.sender].investment[num].investedAmount */\n      0x00\n      add\n        /* \"contracts/contractsCopy/khaledulsaleh_staking.sol\":3067:3139  DUSDinvestor[msg.sender].investment[num].investedAmount =_investedamount */\n      dup2\n      swap1\n      sstore\n      pop\n        /* \"contracts/contractsCopy/khaledulsaleh_staking.sol\":3206:3221  block.timestamp */\n      timestamp\n        /* \"contracts/contractsCopy/khaledulsaleh_staking.sol\":3153:3165  DUSDinvestor */\n      0x0d\n        /* \"contracts/contractsCopy/khaledulsaleh_staking.sol\":3153:3177  DUSDinvestor[msg.sender] */\n      0x00\n        /* \"contracts/contractsCopy/khaledulsaleh_staking.sol\":3166:3176  msg.sender */\n      caller\n        /* \"contracts/contractsCopy/khaledulsaleh_staking.sol\":3153:3177  DUSDinvestor[msg.sender] */\n      0xffffffffffffffffffffffffffffffffffffffff\n      and\n      0xffffffffffffffffffffffffffffffffffffffff\n      and\n      dup2\n      mstore\n      0x20\n      add\n      swap1\n      dup2\n      mstore\n      0x20\n      add\n      0x00\n      keccak256\n        /* \"contracts/contractsCopy/khaledulsaleh_staking.sol\":3153:3188  DUSDinvestor[msg.sender].investment */\n      0x00\n      add\n        /* \"contracts/contractsCopy/khaledulsaleh_staking.sol\":3153:3193  DUSDinvestor[msg.sender].investment[num] */\n      0x00\n        /* \"contracts/contractsCopy/khaledulsaleh_staking.sol\":3189:3192  num */\n      dup4\n        /* \"contracts/contractsCopy/khaledulsaleh_staking.sol\":3153:3193  DUSDinvestor[msg.sender].investment[num] */\n      dup2\n      mstore\n      0x20\n      add\n      swap1\n      dup2\n      mstore\n      0x20\n      add\n      0x00\n      keccak256\n        /* \"contracts/contractsCopy/khaledulsaleh_staking.sol\":3153:3205  DUSDinvestor[msg.sender].investment[num].DepositTime */\n      0x02\n      add\n        /* \"contracts/contractsCopy/khaledulsaleh_staking.sol\":3153:3221  DUSDinvestor[msg.sender].investment[num].DepositTime=block.timestamp */\n      dup2\n      swap1\n      sstore\n      pop\n        /* \"contracts/contractsCopy/khaledulsaleh_staking.sol\":3308:3324  investmentPeriod */\n      sload(0x09)\n        /* \"contracts/contractsCopy/khaledulsaleh_staking.sol\":3290:3305  block.timestamp */\n      timestamp\n        /* \"contracts/contractsCopy/khaledulsaleh_staking.sol\":3290:3324  block.timestamp + investmentPeriod */\n      tag_146\n      swap2\n      swap1\n      tag_145\n      jump\t// in\n    tag_146:\n        /* \"contracts/contractsCopy/khaledulsaleh_staking.sol\":3235:3247  DUSDinvestor */\n      0x0d\n        /* \"contracts/contractsCopy/khaledulsaleh_staking.sol\":3235:3259  DUSDinvestor[msg.sender] */\n      0x00\n        /* \"contracts/contractsCopy/khaledulsaleh_staking.sol\":3248:3258  msg.sender */\n      caller\n        /* \"contracts/contractsCopy/khaledulsaleh_staking.sol\":3235:3259  DUSDinvestor[msg.sender] */\n      0xffffffffffffffffffffffffffffffffffffffff\n      and\n      0xffffffffffffffffffffffffffffffffffffffff\n      and\n      dup2\n      mstore\n      0x20\n      add\n      swap1\n      dup2\n      mstore\n      0x20\n      add\n      0x00\n      keccak256\n        /* \"contracts/contractsCopy/khaledulsaleh_staking.sol\":3235:3270  DUSDinvestor[msg.sender].investment */\n      0x00\n      add\n        /* \"contracts/contractsCopy/khaledulsaleh_staking.sol\":3235:3275  DUSDinvestor[msg.sender].investment[num] */\n      0x00\n        /* \"contracts/contractsCopy/khaledulsaleh_staking.sol\":3271:3274  num */\n      dup4\n        /* \"contracts/contractsCopy/khaledulsaleh_staking.sol\":3235:3275  DUSDinvestor[msg.sender].investment[num] */\n      dup2\n      mstore\n      0x20\n      add\n      swap1\n      dup2\n      mstore\n      0x20\n      add\n      0x00\n      keccak256\n        /* \"contracts/contractsCopy/khaledulsaleh_staking.sol\":3235:3289  DUSDinvestor[msg.sender].investment[num].withdrawnTime */\n      0x01\n      add\n        /* \"contracts/contractsCopy/khaledulsaleh_staking.sol\":3235:3324  DUSDinvestor[msg.sender].investment[num].withdrawnTime=block.timestamp + investmentPeriod */\n      dup2\n      swap1\n      sstore\n      pop\n        /* \"contracts/contractsCopy/khaledulsaleh_staking.sol\":3407:3410  num */\n      dup1\n        /* \"contracts/contractsCopy/khaledulsaleh_staking.sol\":3352:3364  DUSDinvestor */\n      0x0d\n        /* \"contracts/contractsCopy/khaledulsaleh_staking.sol\":3352:3376  DUSDinvestor[msg.sender] */\n      0x00\n        /* \"contracts/contractsCopy/khaledulsaleh_staking.sol\":3365:3375  msg.sender */\n      caller\n        /* \"contracts/contractsCopy/khaledulsaleh_staking.sol\":3352:3376  DUSDinvestor[msg.sender] */\n      0xffffffffffffffffffffffffffffffffffffffff\n      and\n      0xffffffffffffffffffffffffffffffffffffffff\n      and\n      dup2\n      mstore\n      0x20\n      add\n      swap1\n      dup2\n      mstore\n      0x20\n      add\n      0x00\n      keccak256\n        /* \"contracts/contractsCopy/khaledulsaleh_staking.sol\":3352:3387  DUSDinvestor[msg.sender].investment */\n      0x00\n      add\n        /* \"contracts/contractsCopy/khaledulsaleh_staking.sol\":3352:3392  DUSDinvestor[msg.sender].investment[num] */\n      0x00\n        /* \"contracts/contractsCopy/khaledulsaleh_staking.sol\":3388:3391  num */\n      dup4\n        /* \"contracts/contractsCopy/khaledulsaleh_staking.sol\":3352:3392  DUSDinvestor[msg.sender].investment[num] */\n      dup2\n      mstore\n      0x20\n      add\n      swap1\n      dup2\n      mstore\n      0x20\n      add\n      0x00\n      keccak256\n        /* \"contracts/contractsCopy/khaledulsaleh_staking.sol\":3352:3406  DUSDinvestor[msg.sender].investment[num].investmentNum */\n      0x03\n      add\n        /* \"contracts/contractsCopy/khaledulsaleh_staking.sol\":3352:3410  DUSDinvestor[msg.sender].investment[num].investmentNum=num */\n      dup2\n      swap1\n      sstore\n      pop\n        /* \"contracts/contractsCopy/khaledulsaleh_staking.sol\":3466:3481  _investedamount */\n      dup3\n        /* \"contracts/contractsCopy/khaledulsaleh_staking.sol\":3424:3436  DUSDinvestor */\n      0x0d\n        /* \"contracts/contractsCopy/khaledulsaleh_staking.sol\":3424:3448  DUSDinvestor[msg.sender] */\n      0x00\n        /* \"contracts/contractsCopy/khaledulsaleh_staking.sol\":3437:3447  msg.sender */\n      caller\n        /* \"contracts/contractsCopy/khaledulsaleh_staking.sol\":3424:3448  DUSDinvestor[msg.sender] */\n      0xffffffffffffffffffffffffffffffffffffffff\n      and\n      0xffffffffffffffffffffffffffffffffffffffff\n      and\n      dup2\n      mstore\n      0x20\n      add\n      swap1\n      dup2\n      mstore\n      0x20\n      add\n      0x00\n      keccak256\n        /* \"contracts/contractsCopy/khaledulsaleh_staking.sol\":3424:3464  DUSDinvestor[msg.sender].totalInvestment */\n      0x06\n      add\n      0x00\n        /* \"contracts/contractsCopy/khaledulsaleh_staking.sol\":3424:3481  DUSDinvestor[msg.sender].totalInvestment+=_investedamount */\n      dup3\n      dup3\n      sload\n      tag_147\n      swap2\n      swap1\n      tag_145\n      jump\t// in\n    tag_147:\n      swap3\n      pop\n      pop\n      dup2\n      swap1\n      sstore\n      pop\n        /* \"contracts/contractsCopy/khaledulsaleh_staking.sol\":3495:3507  DUSDinvestor */\n      0x0d\n        /* \"contracts/contractsCopy/khaledulsaleh_staking.sol\":3495:3519  DUSDinvestor[msg.sender] */\n      0x00\n        /* \"contracts/contractsCopy/khaledulsaleh_staking.sol\":3508:3518  msg.sender */\n      caller\n        /* \"contracts/contractsCopy/khaledulsaleh_staking.sol\":3495:3519  DUSDinvestor[msg.sender] */\n      0xffffffffffffffffffffffffffffffffffffffff\n      and\n      0xffffffffffffffffffffffffffffffffffffffff\n      and\n      dup2\n      mstore\n      0x20\n      add\n      swap1\n      dup2\n      mstore\n      0x20\n      add\n      0x00\n      keccak256\n        /* \"contracts/contractsCopy/khaledulsaleh_staking.sol\":3495:3534  DUSDinvestor[msg.sender].noOfInvestment */\n      0x05\n      add\n      0x00\n        /* \"contracts/contractsCopy/khaledulsaleh_staking.sol\":3495:3536  DUSDinvestor[msg.sender].noOfInvestment++ */\n      dup2\n      sload\n      dup1\n      swap3\n      swap2\n      swap1\n      tag_148\n      swap1\n      tag_142\n      jump\t// in\n    tag_148:\n      swap2\n      swap1\n      pop\n      sstore\n      pop\n        /* \"contracts/contractsCopy/khaledulsaleh_staking.sol\":3565:3580  _investedamount */\n      dup3\n        /* \"contracts/contractsCopy/khaledulsaleh_staking.sol\":3550:3563  totalbusiness */\n      0x0a\n      0x00\n        /* \"contracts/contractsCopy/khaledulsaleh_staking.sol\":3550:3580  totalbusiness+=_investedamount */\n      dup3\n      dup3\n      sload\n      tag_149\n      swap2\n      swap1\n      tag_145\n      jump\t// in\n    tag_149:\n      swap3\n      pop\n      pop\n      dup2\n      swap1\n      sstore\n      pop\n        /* \"contracts/contractsCopy/khaledulsaleh_staking.sol\":3729:3733  true */\n      0x01\n        /* \"contracts/contractsCopy/khaledulsaleh_staking.sol\":3691:3703  DUSDinvestor */\n      0x0d\n        /* \"contracts/contractsCopy/khaledulsaleh_staking.sol\":3691:3715  DUSDinvestor[msg.sender] */\n      0x00\n        /* \"contracts/contractsCopy/khaledulsaleh_staking.sol\":3704:3714  msg.sender */\n      caller\n        /* \"contracts/contractsCopy/khaledulsaleh_staking.sol\":3691:3715  DUSDinvestor[msg.sender] */\n      0xffffffffffffffffffffffffffffffffffffffff\n      and\n      0xffffffffffffffffffffffffffffffffffffffff\n      and\n      dup2\n      mstore\n      0x20\n      add\n      swap1\n      dup2\n      mstore\n      0x20\n      add\n      0x00\n      keccak256\n        /* \"contracts/contractsCopy/khaledulsaleh_staking.sol\":3691:3728  DUSDinvestor[msg.sender].investBefore */\n      0x08\n      add\n      0x00\n        /* \"contracts/contractsCopy/khaledulsaleh_staking.sol\":3691:3733  DUSDinvestor[msg.sender].investBefore=true */\n      0x0100\n      exp\n      dup2\n      sload\n      dup2\n      0xff\n      mul\n      not\n      and\n      swap1\n      dup4\n      iszero\n      iszero\n      mul\n      or\n      swap1\n      sstore\n      pop\n        /* \"contracts/contractsCopy/khaledulsaleh_staking.sol\":3755:3759  true */\n      0x01\n        /* \"contracts/contractsCopy/khaledulsaleh_staking.sol\":3748:3759  return true */\n      swap2\n      pop\n      pop\n        /* \"contracts/contractsCopy/khaledulsaleh_staking.sol\":2294:3783  function Stake(uint _investedamount) external returns(bool success){... */\n      swap2\n      swap1\n      pop\n      jump\t// out\n        /* \"contracts/contractsCopy/khaledulsaleh_staking.sol\":9769:9866  function setReward(uint _reward) public ... */\n    tag_55:\n        /* \"contracts/contractsCopy/khaledulsaleh_staking.sol\":9847:9854  _reward */\n      dup1\n        /* \"contracts/contractsCopy/khaledulsaleh_staking.sol\":9832:9846  reward_per_day */\n      0x03\n        /* \"contracts/contractsCopy/khaledulsaleh_staking.sol\":9832:9854  reward_per_day=_reward */\n      dup2\n      swap1\n      sstore\n      pop\n        /* \"contracts/contractsCopy/khaledulsaleh_staking.sol\":9769:9866  function setReward(uint _reward) public ... */\n      pop\n      jump\t// out\n        /* \"contracts/contractsCopy/khaledulsaleh_staking.sol\":9875:9986  function set_min_Stake_amount(uint _amount) public ... */\n    tag_58:\n        /* \"contracts/contractsCopy/khaledulsaleh_staking.sol\":9968:9975  _amount */\n      dup1\n        /* \"contracts/contractsCopy/khaledulsaleh_staking.sol\":9949:9965  min_Stake_amount */\n      0x06\n        /* \"contracts/contractsCopy/khaledulsaleh_staking.sol\":9949:9975  min_Stake_amount = _amount */\n      dup2\n      swap1\n      sstore\n      pop\n        /* \"contracts/contractsCopy/khaledulsaleh_staking.sol\":9875:9986  function set_min_Stake_amount(uint _amount) public ... */\n      pop\n      jump\t// out\n        /* \"contracts/contractsCopy/khaledulsaleh_staking.sol\":8132:9115  function getAllDUSDinvestments() public view returns (allInvestments[] memory) { //this function will return the all investments of the investor and withware date... */\n    tag_60:\n        /* \"contracts/contractsCopy/khaledulsaleh_staking.sol\":8186:8209  allInvestments[] memory */\n      0x60\n        /* \"contracts/contractsCopy/khaledulsaleh_staking.sol\":8307:8315  uint num */\n      0x00\n        /* \"contracts/contractsCopy/khaledulsaleh_staking.sol\":8318:8330  DUSDinvestor */\n      0x0d\n        /* \"contracts/contractsCopy/khaledulsaleh_staking.sol\":8318:8342  DUSDinvestor[msg.sender] */\n      0x00\n        /* \"contracts/contractsCopy/khaledulsaleh_staking.sol\":8331:8341  msg.sender */\n      caller\n        /* \"contracts/contractsCopy/khaledulsaleh_staking.sol\":8318:8342  DUSDinvestor[msg.sender] */\n      0xffffffffffffffffffffffffffffffffffffffff\n      and\n      0xffffffffffffffffffffffffffffffffffffffff\n      and\n      dup2\n      mstore\n      0x20\n      add\n      swap1\n      dup2\n      mstore\n      0x20\n      add\n      0x00\n      keccak256\n        /* \"contracts/contractsCopy/khaledulsaleh_staking.sol\":8318:8357  DUSDinvestor[msg.sender].noOfInvestment */\n      0x05\n      add\n      sload\n        /* \"contracts/contractsCopy/khaledulsaleh_staking.sol\":8307:8357  uint num = DUSDinvestor[msg.sender].noOfInvestment */\n      swap1\n      pop\n        /* \"contracts/contractsCopy/khaledulsaleh_staking.sol\":8371:8380  uint temp */\n      0x00\n        /* \"contracts/contractsCopy/khaledulsaleh_staking.sol\":8394:8411  uint currentIndex */\n      dup1\n        /* \"contracts/contractsCopy/khaledulsaleh_staking.sol\":8442:8448  uint i */\n      0x00\n        /* \"contracts/contractsCopy/khaledulsaleh_staking.sol\":8438:8614  for(uint i=0;i<num;i++)... */\n    tag_153:\n        /* \"contracts/contractsCopy/khaledulsaleh_staking.sol\":8453:8456  num */\n      dup4\n        /* \"contracts/contractsCopy/khaledulsaleh_staking.sol\":8451:8452  i */\n      dup2\n        /* \"contracts/contractsCopy/khaledulsaleh_staking.sol\":8451:8456  i<num */\n      lt\n        /* \"contracts/contractsCopy/khaledulsaleh_staking.sol\":8438:8614  for(uint i=0;i<num;i++)... */\n      iszero\n      tag_154\n      jumpi\n        /* \"contracts/contractsCopy/khaledulsaleh_staking.sol\":8551:8552  0 */\n      0x00\n        /* \"contracts/contractsCopy/khaledulsaleh_staking.sol\":8495:8507  DUSDinvestor */\n      0x0d\n        /* \"contracts/contractsCopy/khaledulsaleh_staking.sol\":8495:8519  DUSDinvestor[msg.sender] */\n      0x00\n        /* \"contracts/contractsCopy/khaledulsaleh_staking.sol\":8508:8518  msg.sender */\n      caller\n        /* \"contracts/contractsCopy/khaledulsaleh_staking.sol\":8495:8519  DUSDinvestor[msg.sender] */\n      0xffffffffffffffffffffffffffffffffffffffff\n      and\n      0xffffffffffffffffffffffffffffffffffffffff\n      and\n      dup2\n      mstore\n      0x20\n      add\n      swap1\n      dup2\n      mstore\n      0x20\n      add\n      0x00\n      keccak256\n        /* \"contracts/contractsCopy/khaledulsaleh_staking.sol\":8495:8530  DUSDinvestor[msg.sender].investment */\n      0x00\n      add\n        /* \"contracts/contractsCopy/khaledulsaleh_staking.sol\":8495:8533  DUSDinvestor[msg.sender].investment[i] */\n      0x00\n        /* \"contracts/contractsCopy/khaledulsaleh_staking.sol\":8531:8532  i */\n      dup4\n        /* \"contracts/contractsCopy/khaledulsaleh_staking.sol\":8495:8533  DUSDinvestor[msg.sender].investment[i] */\n      dup2\n      mstore\n      0x20\n      add\n      swap1\n      dup2\n      mstore\n      0x20\n      add\n      0x00\n      keccak256\n        /* \"contracts/contractsCopy/khaledulsaleh_staking.sol\":8495:8548  DUSDinvestor[msg.sender].investment[i].investedAmount */\n      0x00\n      add\n      sload\n        /* \"contracts/contractsCopy/khaledulsaleh_staking.sol\":8495:8552  DUSDinvestor[msg.sender].investment[i].investedAmount > 0 */\n      gt\n        /* \"contracts/contractsCopy/khaledulsaleh_staking.sol\":8491:8599  if( DUSDinvestor[msg.sender].investment[i].investedAmount > 0 ){... */\n      iszero\n      tag_156\n      jumpi\n        /* \"contracts/contractsCopy/khaledulsaleh_staking.sol\":8575:8581  temp++ */\n      dup3\n      dup1\n      tag_157\n      swap1\n      tag_142\n      jump\t// in\n    tag_157:\n      swap4\n      pop\n      pop\n        /* \"contracts/contractsCopy/khaledulsaleh_staking.sol\":8491:8599  if( DUSDinvestor[msg.sender].investment[i].investedAmount > 0 ){... */\n    tag_156:\n        /* \"contracts/contractsCopy/khaledulsaleh_staking.sol\":8457:8460  i++ */\n      dup1\n      dup1\n      tag_158\n      swap1\n      tag_142\n      jump\t// in\n    tag_158:\n      swap2\n      pop\n      pop\n        /* \"contracts/contractsCopy/khaledulsaleh_staking.sol\":8438:8614  for(uint i=0;i<num;i++)... */\n      jump(tag_153)\n    tag_154:\n      pop\n        /* \"contracts/contractsCopy/khaledulsaleh_staking.sol\":8637:8669  allInvestments[] memory Invested */\n      0x00\n        /* \"contracts/contractsCopy/khaledulsaleh_staking.sol\":8694:8698  temp */\n      dup3\n        /* \"contracts/contractsCopy/khaledulsaleh_staking.sol\":8673:8699  new allInvestments[](temp) */\n      0xffffffffffffffff\n      dup2\n      gt\n      iszero\n      tag_159\n      jumpi\n      tag_160\n      tag_161\n      jump\t// in\n    tag_160:\n    tag_159:\n      mload(0x40)\n      swap1\n      dup1\n      dup3\n      mstore\n      dup1\n      0x20\n      mul\n      0x20\n      add\n      dup3\n      add\n      0x40\n      mstore\n      dup1\n      iszero\n      tag_162\n      jumpi\n      dup2\n      0x20\n      add\n    tag_163:\n      tag_164\n      tag_165\n      jump\t// in\n    tag_164:\n      dup2\n      mstore\n      0x20\n      add\n      swap1\n      0x01\n      swap1\n      sub\n      swap1\n      dup2\n      tag_163\n      jumpi\n      swap1\n      pop\n    tag_162:\n      pop\n        /* \"contracts/contractsCopy/khaledulsaleh_staking.sol\":8637:8699  allInvestments[] memory Invested =  new allInvestments[](temp) */\n      swap1\n      pop\n        /* \"contracts/contractsCopy/khaledulsaleh_staking.sol\":8719:8725  uint i */\n      0x00\n        /* \"contracts/contractsCopy/khaledulsaleh_staking.sol\":8715:9075  for(uint i=0;i<num;i++)... */\n    tag_166:\n        /* \"contracts/contractsCopy/khaledulsaleh_staking.sol\":8730:8733  num */\n      dup5\n        /* \"contracts/contractsCopy/khaledulsaleh_staking.sol\":8728:8729  i */\n      dup2\n        /* \"contracts/contractsCopy/khaledulsaleh_staking.sol\":8728:8733  i<num */\n      lt\n        /* \"contracts/contractsCopy/khaledulsaleh_staking.sol\":8715:9075  for(uint i=0;i<num;i++)... */\n      iszero\n      tag_167\n      jumpi\n        /* \"contracts/contractsCopy/khaledulsaleh_staking.sol\":8828:8829  0 */\n      0x00\n        /* \"contracts/contractsCopy/khaledulsaleh_staking.sol\":8772:8784  DUSDinvestor */\n      0x0d\n        /* \"contracts/contractsCopy/khaledulsaleh_staking.sol\":8772:8796  DUSDinvestor[msg.sender] */\n      0x00\n        /* \"contracts/contractsCopy/khaledulsaleh_staking.sol\":8785:8795  msg.sender */\n      caller\n        /* \"contracts/contractsCopy/khaledulsaleh_staking.sol\":8772:8796  DUSDinvestor[msg.sender] */\n      0xffffffffffffffffffffffffffffffffffffffff\n      and\n      0xffffffffffffffffffffffffffffffffffffffff\n      and\n      dup2\n      mstore\n      0x20\n      add\n      swap1\n      dup2\n      mstore\n      0x20\n      add\n      0x00\n      keccak256\n        /* \"contracts/contractsCopy/khaledulsaleh_staking.sol\":8772:8807  DUSDinvestor[msg.sender].investment */\n      0x00\n      add\n        /* \"contracts/contractsCopy/khaledulsaleh_staking.sol\":8772:8810  DUSDinvestor[msg.sender].investment[i] */\n      0x00\n        /* \"contracts/contractsCopy/khaledulsaleh_staking.sol\":8808:8809  i */\n      dup4\n        /* \"contracts/contractsCopy/khaledulsaleh_staking.sol\":8772:8810  DUSDinvestor[msg.sender].investment[i] */\n      dup2\n      mstore\n      0x20\n      add\n      swap1\n      dup2\n      mstore\n      0x20\n      add\n      0x00\n      keccak256\n        /* \"contracts/contractsCopy/khaledulsaleh_staking.sol\":8772:8825  DUSDinvestor[msg.sender].investment[i].investedAmount */\n      0x00\n      add\n      sload\n        /* \"contracts/contractsCopy/khaledulsaleh_staking.sol\":8772:8829  DUSDinvestor[msg.sender].investment[i].investedAmount > 0 */\n      gt\n        /* \"contracts/contractsCopy/khaledulsaleh_staking.sol\":8768:9060  if( DUSDinvestor[msg.sender].investment[i].investedAmount > 0 ){... */\n      iszero\n      tag_169\n      jumpi\n        /* \"contracts/contractsCopy/khaledulsaleh_staking.sol\":8969:8981  DUSDinvestor */\n      0x0d\n        /* \"contracts/contractsCopy/khaledulsaleh_staking.sol\":8969:8993  DUSDinvestor[msg.sender] */\n      0x00\n        /* \"contracts/contractsCopy/khaledulsaleh_staking.sol\":8982:8992  msg.sender */\n      caller\n        /* \"contracts/contractsCopy/khaledulsaleh_staking.sol\":8969:8993  DUSDinvestor[msg.sender] */\n      0xffffffffffffffffffffffffffffffffffffffff\n      and\n      0xffffffffffffffffffffffffffffffffffffffff\n      and\n      dup2\n      mstore\n      0x20\n      add\n      swap1\n      dup2\n      mstore\n      0x20\n      add\n      0x00\n      keccak256\n        /* \"contracts/contractsCopy/khaledulsaleh_staking.sol\":8969:9004  DUSDinvestor[msg.sender].investment */\n      0x00\n      add\n        /* \"contracts/contractsCopy/khaledulsaleh_staking.sol\":8969:9007  DUSDinvestor[msg.sender].investment[i] */\n      0x00\n        /* \"contracts/contractsCopy/khaledulsaleh_staking.sol\":9005:9006  i */\n      dup3\n        /* \"contracts/contractsCopy/khaledulsaleh_staking.sol\":8969:9007  DUSDinvestor[msg.sender].investment[i] */\n      dup2\n      mstore\n      0x20\n      add\n      swap1\n      dup2\n      mstore\n      0x20\n      add\n      0x00\n      keccak256\n        /* \"contracts/contractsCopy/khaledulsaleh_staking.sol\":8946:9007  Invested[currentIndex]=DUSDinvestor[msg.sender].investment[i] */\n      mload(0x40)\n      dup1\n      0xc0\n      add\n      0x40\n      mstore\n      swap1\n      dup2\n      0x00\n      dup3\n      add\n      sload\n      dup2\n      mstore\n      0x20\n      add\n      0x01\n      dup3\n      add\n      sload\n      dup2\n      mstore\n      0x20\n      add\n      0x02\n      dup3\n      add\n      sload\n      dup2\n      mstore\n      0x20\n      add\n      0x03\n      dup3\n      add\n      sload\n      dup2\n      mstore\n      0x20\n      add\n      0x04\n      dup3\n      add\n      sload\n      dup2\n      mstore\n      0x20\n      add\n      0x05\n      dup3\n      add\n      0x00\n      swap1\n      sload\n      swap1\n      0x0100\n      exp\n      swap1\n      div\n      0xff\n      and\n      iszero\n      iszero\n      iszero\n      iszero\n      dup2\n      mstore\n      pop\n      pop\n        /* \"contracts/contractsCopy/khaledulsaleh_staking.sol\":8946:8954  Invested */\n      dup3\n        /* \"contracts/contractsCopy/khaledulsaleh_staking.sol\":8955:8967  currentIndex */\n      dup5\n        /* \"contracts/contractsCopy/khaledulsaleh_staking.sol\":8946:8968  Invested[currentIndex] */\n      dup2\n      mload\n      dup2\n      lt\n      tag_170\n      jumpi\n      tag_171\n      tag_172\n      jump\t// in\n    tag_171:\n    tag_170:\n      0x20\n      mul\n      0x20\n      add\n      add\n        /* \"contracts/contractsCopy/khaledulsaleh_staking.sol\":8946:9007  Invested[currentIndex]=DUSDinvestor[msg.sender].investment[i] */\n      dup2\n      swap1\n      mstore\n      pop\n        /* \"contracts/contractsCopy/khaledulsaleh_staking.sol\":9028:9042  currentIndex++ */\n      dup3\n      dup1\n      tag_173\n      swap1\n      tag_142\n      jump\t// in\n    tag_173:\n      swap4\n      pop\n      pop\n        /* \"contracts/contractsCopy/khaledulsaleh_staking.sol\":8768:9060  if( DUSDinvestor[msg.sender].investment[i].investedAmount > 0 ){... */\n    tag_169:\n        /* \"contracts/contractsCopy/khaledulsaleh_staking.sol\":8734:8737  i++ */\n      dup1\n      dup1\n      tag_174\n      swap1\n      tag_142\n      jump\t// in\n    tag_174:\n      swap2\n      pop\n      pop\n        /* \"contracts/contractsCopy/khaledulsaleh_staking.sol\":8715:9075  for(uint i=0;i<num;i++)... */\n      jump(tag_166)\n    tag_167:\n      pop\n        /* \"contracts/contractsCopy/khaledulsaleh_staking.sol\":9095:9103  Invested */\n      dup1\n        /* \"contracts/contractsCopy/khaledulsaleh_staking.sol\":9088:9103  return Invested */\n      swap5\n      pop\n      pop\n      pop\n      pop\n      pop\n        /* \"contracts/contractsCopy/khaledulsaleh_staking.sol\":8132:9115  function getAllDUSDinvestments() public view returns (allInvestments[] memory) { //this function will return the all investments of the investor and withware date... */\n      swap1\n      jump\t// out\n        /* \"contracts/contractsCopy/khaledulsaleh_staking.sol\":3792:4939  function getReward() view public returns(uint){ //this function is get the total reward balance of the investor... */\n    tag_64:\n        /* \"contracts/contractsCopy/khaledulsaleh_staking.sol\":3833:3837  uint */\n      0x00\n        /* \"contracts/contractsCopy/khaledulsaleh_staking.sol\":3916:3932  uint totalReward */\n      dup1\n        /* \"contracts/contractsCopy/khaledulsaleh_staking.sol\":3946:3958  uint depTime */\n      0x00\n        /* \"contracts/contractsCopy/khaledulsaleh_staking.sol\":3972:3980  uint rew */\n      dup1\n        /* \"contracts/contractsCopy/khaledulsaleh_staking.sol\":3994:4003  uint temp */\n      0x00\n        /* \"contracts/contractsCopy/khaledulsaleh_staking.sol\":4006:4018  DUSDinvestor */\n      0x0d\n        /* \"contracts/contractsCopy/khaledulsaleh_staking.sol\":4006:4030  DUSDinvestor[msg.sender] */\n      0x00\n        /* \"contracts/contractsCopy/khaledulsaleh_staking.sol\":4019:4029  msg.sender */\n      caller\n        /* \"contracts/contractsCopy/khaledulsaleh_staking.sol\":4006:4030  DUSDinvestor[msg.sender] */\n      0xffffffffffffffffffffffffffffffffffffffff\n      and\n      0xffffffffffffffffffffffffffffffffffffffff\n      and\n      dup2\n      mstore\n      0x20\n      add\n      swap1\n      dup2\n      mstore\n      0x20\n      add\n      0x00\n      keccak256\n        /* \"contracts/contractsCopy/khaledulsaleh_staking.sol\":4006:4045  DUSDinvestor[msg.sender].noOfInvestment */\n      0x05\n      add\n      sload\n        /* \"contracts/contractsCopy/khaledulsaleh_staking.sol\":3994:4045  uint temp = DUSDinvestor[msg.sender].noOfInvestment */\n      swap1\n      pop\n        /* \"contracts/contractsCopy/khaledulsaleh_staking.sol\":4064:4070  uint i */\n      0x00\n        /* \"contracts/contractsCopy/khaledulsaleh_staking.sol\":4079:4083  temp */\n      dup2\n        /* \"contracts/contractsCopy/khaledulsaleh_staking.sol\":4075:4076  i */\n      dup2\n        /* \"contracts/contractsCopy/khaledulsaleh_staking.sol\":4075:4083  i < temp */\n      lt\n        /* \"contracts/contractsCopy/khaledulsaleh_staking.sol\":4059:4822  for( uint i = 0;i < temp;i++)... */\n      iszero\n      tag_177\n      jumpi\n        /* \"contracts/contractsCopy/khaledulsaleh_staking.sol\":4126:4138  DUSDinvestor */\n      0x0d\n        /* \"contracts/contractsCopy/khaledulsaleh_staking.sol\":4126:4150  DUSDinvestor[msg.sender] */\n      0x00\n        /* \"contracts/contractsCopy/khaledulsaleh_staking.sol\":4139:4149  msg.sender */\n      caller\n        /* \"contracts/contractsCopy/khaledulsaleh_staking.sol\":4126:4150  DUSDinvestor[msg.sender] */\n      0xffffffffffffffffffffffffffffffffffffffff\n      and\n      0xffffffffffffffffffffffffffffffffffffffff\n      and\n      dup2\n      mstore\n      0x20\n      add\n      swap1\n      dup2\n      mstore\n      0x20\n      add\n      0x00\n      keccak256\n        /* \"contracts/contractsCopy/khaledulsaleh_staking.sol\":4126:4161  DUSDinvestor[msg.sender].investment */\n      0x00\n      add\n        /* \"contracts/contractsCopy/khaledulsaleh_staking.sol\":4126:4164  DUSDinvestor[msg.sender].investment[i] */\n      0x00\n        /* \"contracts/contractsCopy/khaledulsaleh_staking.sol\":4162:4163  i */\n      dup3\n        /* \"contracts/contractsCopy/khaledulsaleh_staking.sol\":4126:4164  DUSDinvestor[msg.sender].investment[i] */\n      dup2\n      mstore\n      0x20\n      add\n      swap1\n      dup2\n      mstore\n      0x20\n      add\n      0x00\n      keccak256\n        /* \"contracts/contractsCopy/khaledulsaleh_staking.sol\":4126:4172  DUSDinvestor[msg.sender].investment[i].unstake */\n      0x05\n      add\n      0x00\n      swap1\n      sload\n      swap1\n      0x0100\n      exp\n      swap1\n      div\n      0xff\n      and\n        /* \"contracts/contractsCopy/khaledulsaleh_staking.sol\":4122:4482  if(!DUSDinvestor[msg.sender].investment[i].unstake)... */\n      tag_179\n      jumpi\n        /* \"contracts/contractsCopy/khaledulsaleh_staking.sol\":4239:4251  DUSDinvestor */\n      0x0d\n        /* \"contracts/contractsCopy/khaledulsaleh_staking.sol\":4239:4263  DUSDinvestor[msg.sender] */\n      0x00\n        /* \"contracts/contractsCopy/khaledulsaleh_staking.sol\":4252:4262  msg.sender */\n      caller\n        /* \"contracts/contractsCopy/khaledulsaleh_staking.sol\":4239:4263  DUSDinvestor[msg.sender] */\n      0xffffffffffffffffffffffffffffffffffffffff\n      and\n      0xffffffffffffffffffffffffffffffffffffffff\n      and\n      dup2\n      mstore\n      0x20\n      add\n      swap1\n      dup2\n      mstore\n      0x20\n      add\n      0x00\n      keccak256\n        /* \"contracts/contractsCopy/khaledulsaleh_staking.sol\":4239:4274  DUSDinvestor[msg.sender].investment */\n      0x00\n      add\n        /* \"contracts/contractsCopy/khaledulsaleh_staking.sol\":4239:4277  DUSDinvestor[msg.sender].investment[i] */\n      0x00\n        /* \"contracts/contractsCopy/khaledulsaleh_staking.sol\":4275:4276  i */\n      dup3\n        /* \"contracts/contractsCopy/khaledulsaleh_staking.sol\":4239:4277  DUSDinvestor[msg.sender].investment[i] */\n      dup2\n      mstore\n      0x20\n      add\n      swap1\n      dup2\n      mstore\n      0x20\n      add\n      0x00\n      keccak256\n        /* \"contracts/contractsCopy/khaledulsaleh_staking.sol\":4239:4289  DUSDinvestor[msg.sender].investment[i].DepositTime */\n      0x02\n      add\n      sload\n        /* \"contracts/contractsCopy/khaledulsaleh_staking.sol\":4221:4236  block.timestamp */\n      timestamp\n        /* \"contracts/contractsCopy/khaledulsaleh_staking.sol\":4221:4289  block.timestamp - DUSDinvestor[msg.sender].investment[i].DepositTime */\n      tag_180\n      swap2\n      swap1\n      tag_181\n      jump\t// in\n    tag_180:\n        /* \"contracts/contractsCopy/khaledulsaleh_staking.sol\":4212:4289  depTime =block.timestamp - DUSDinvestor[msg.sender].investment[i].DepositTime */\n      swap4\n      pop\n        /* \"contracts/contractsCopy/khaledulsaleh_staking.sol\":4122:4482  if(!DUSDinvestor[msg.sender].investment[i].unstake)... */\n      jump(tag_182)\n    tag_179:\n        /* \"contracts/contractsCopy/khaledulsaleh_staking.sol\":4413:4425  DUSDinvestor */\n      0x0d\n        /* \"contracts/contractsCopy/khaledulsaleh_staking.sol\":4413:4437  DUSDinvestor[msg.sender] */\n      0x00\n        /* \"contracts/contractsCopy/khaledulsaleh_staking.sol\":4426:4436  msg.sender */\n      caller\n        /* \"contracts/contractsCopy/khaledulsaleh_staking.sol\":4413:4437  DUSDinvestor[msg.sender] */\n      0xffffffffffffffffffffffffffffffffffffffff\n      and\n      0xffffffffffffffffffffffffffffffffffffffff\n      and\n      dup2\n      mstore\n      0x20\n      add\n      swap1\n      dup2\n      mstore\n      0x20\n      add\n      0x00\n      keccak256\n        /* \"contracts/contractsCopy/khaledulsaleh_staking.sol\":4413:4448  DUSDinvestor[msg.sender].investment */\n      0x00\n      add\n        /* \"contracts/contractsCopy/khaledulsaleh_staking.sol\":4413:4451  DUSDinvestor[msg.sender].investment[i] */\n      0x00\n        /* \"contracts/contractsCopy/khaledulsaleh_staking.sol\":4449:4450  i */\n      dup3\n        /* \"contracts/contractsCopy/khaledulsaleh_staking.sol\":4413:4451  DUSDinvestor[msg.sender].investment[i] */\n      dup2\n      mstore\n      0x20\n      add\n      swap1\n      dup2\n      mstore\n      0x20\n      add\n      0x00\n      keccak256\n        /* \"contracts/contractsCopy/khaledulsaleh_staking.sol\":4413:4463  DUSDinvestor[msg.sender].investment[i].DepositTime */\n      0x02\n      add\n      sload\n        /* \"contracts/contractsCopy/khaledulsaleh_staking.sol\":4360:4372  DUSDinvestor */\n      0x0d\n        /* \"contracts/contractsCopy/khaledulsaleh_staking.sol\":4360:4384  DUSDinvestor[msg.sender] */\n      0x00\n        /* \"contracts/contractsCopy/khaledulsaleh_staking.sol\":4373:4383  msg.sender */\n      caller\n        /* \"contracts/contractsCopy/khaledulsaleh_staking.sol\":4360:4384  DUSDinvestor[msg.sender] */\n      0xffffffffffffffffffffffffffffffffffffffff\n      and\n      0xffffffffffffffffffffffffffffffffffffffff\n      and\n      dup2\n      mstore\n      0x20\n      add\n      swap1\n      dup2\n      mstore\n      0x20\n      add\n      0x00\n      keccak256\n        /* \"contracts/contractsCopy/khaledulsaleh_staking.sol\":4360:4395  DUSDinvestor[msg.sender].investment */\n      0x00\n      add\n        /* \"contracts/contractsCopy/khaledulsaleh_staking.sol\":4360:4398  DUSDinvestor[msg.sender].investment[i] */\n      0x00\n        /* \"contracts/contractsCopy/khaledulsaleh_staking.sol\":4396:4397  i */\n      dup4\n        /* \"contracts/contractsCopy/khaledulsaleh_staking.sol\":4360:4398  DUSDinvestor[msg.sender].investment[i] */\n      dup2\n      mstore\n      0x20\n      add\n      swap1\n      dup2\n      mstore\n      0x20\n      add\n      0x00\n      keccak256\n        /* \"contracts/contractsCopy/khaledulsaleh_staking.sol\":4360:4410  DUSDinvestor[msg.sender].investment[i].unstakeTime */\n      0x04\n      add\n      sload\n        /* \"contracts/contractsCopy/khaledulsaleh_staking.sol\":4360:4463  DUSDinvestor[msg.sender].investment[i].unstakeTime - DUSDinvestor[msg.sender].investment[i].DepositTime */\n      tag_183\n      swap2\n      swap1\n      tag_181\n      jump\t// in\n    tag_183:\n        /* \"contracts/contractsCopy/khaledulsaleh_staking.sol\":4351:4463  depTime =DUSDinvestor[msg.sender].investment[i].unstakeTime - DUSDinvestor[msg.sender].investment[i].DepositTime */\n      swap4\n      pop\n        /* \"contracts/contractsCopy/khaledulsaleh_staking.sol\":4122:4482  if(!DUSDinvestor[msg.sender].investment[i].unstake)... */\n    tag_182:\n        /* \"contracts/contractsCopy/khaledulsaleh_staking.sol\":4515:4517  60 */\n      0x3c\n        /* \"contracts/contractsCopy/khaledulsaleh_staking.sol\":4507:4514  depTime */\n      dup5\n        /* \"contracts/contractsCopy/khaledulsaleh_staking.sol\":4507:4517  depTime/60 */\n      tag_184\n      swap2\n      swap1\n      tag_185\n      jump\t// in\n    tag_184:\n        /* \"contracts/contractsCopy/khaledulsaleh_staking.sol\":4499:4517  depTime=depTime/60 */\n      swap4\n      pop\n        /* \"contracts/contractsCopy/khaledulsaleh_staking.sol\":4550:4557  depTime */\n      dup4\n        /* \"contracts/contractsCopy/khaledulsaleh_staking.sol\":4543:4557  return depTime */\n      swap6\n      pop\n      pop\n      pop\n      pop\n      pop\n      pop\n      jump(tag_175)\n        /* \"contracts/contractsCopy/khaledulsaleh_staking.sol\":4059:4822  for( uint i = 0;i < temp;i++)... */\n    tag_177:\n      pop\n        /* \"contracts/contractsCopy/khaledulsaleh_staking.sol\":4850:4862  DUSDinvestor */\n      0x0d\n        /* \"contracts/contractsCopy/khaledulsaleh_staking.sol\":4850:4874  DUSDinvestor[msg.sender] */\n      0x00\n        /* \"contracts/contractsCopy/khaledulsaleh_staking.sol\":4863:4873  msg.sender */\n      caller\n        /* \"contracts/contractsCopy/khaledulsaleh_staking.sol\":4850:4874  DUSDinvestor[msg.sender] */\n      0xffffffffffffffffffffffffffffffffffffffff\n      and\n      0xffffffffffffffffffffffffffffffffffffffff\n      and\n      dup2\n      mstore\n      0x20\n      add\n      swap1\n      dup2\n      mstore\n      0x20\n      add\n      0x00\n      keccak256\n        /* \"contracts/contractsCopy/khaledulsaleh_staking.sol\":4850:4895  DUSDinvestor[msg.sender].totalWithdraw_reward */\n      0x07\n      add\n      sload\n        /* \"contracts/contractsCopy/khaledulsaleh_staking.sol\":4835:4895  totalReward -= DUSDinvestor[msg.sender].totalWithdraw_reward */\n      dup5\n      tag_195\n      swap2\n      swap1\n      tag_181\n      jump\t// in\n    tag_195:\n      swap4\n      pop\n        /* \"contracts/contractsCopy/khaledulsaleh_staking.sol\":4917:4928  totalReward */\n      dup4\n        /* \"contracts/contractsCopy/khaledulsaleh_staking.sol\":4910:4928  return totalReward */\n      swap5\n      pop\n      pop\n      pop\n      pop\n      pop\n        /* \"contracts/contractsCopy/khaledulsaleh_staking.sol\":3792:4939  function getReward() view public returns(uint){ //this function is get the total reward balance of the investor... */\n    tag_175:\n      swap1\n      jump\t// out\n        /* \"contracts/contractsCopy/khaledulsaleh_staking.sol\":11737:12516  function Admin_data() view public returns(Admin_Data[] memory){... */\n    tag_67:\n        /* \"contracts/contractsCopy/khaledulsaleh_staking.sol\":11779:11798  Admin_Data[] memory */\n      0x60\n        /* \"contracts/contractsCopy/khaledulsaleh_staking.sol\":11814:11838  Admin_Data[] memory Temp */\n      0x00\n        /* \"contracts/contractsCopy/khaledulsaleh_staking.sol\":11856:11874  totalDUSDInvestors */\n      sload(0x04)\n        /* \"contracts/contractsCopy/khaledulsaleh_staking.sol\":11839:11875  new Admin_Data[](totalDUSDInvestors) */\n      0xffffffffffffffff\n      dup2\n      gt\n      iszero\n      tag_197\n      jumpi\n      tag_198\n      tag_161\n      jump\t// in\n    tag_198:\n    tag_197:\n      mload(0x40)\n      swap1\n      dup1\n      dup3\n      mstore\n      dup1\n      0x20\n      mul\n      0x20\n      add\n      dup3\n      add\n      0x40\n      mstore\n      dup1\n      iszero\n      tag_199\n      jumpi\n      dup2\n      0x20\n      add\n    tag_200:\n      tag_201\n      tag_202\n      jump\t// in\n    tag_201:\n      dup2\n      mstore\n      0x20\n      add\n      swap1\n      0x01\n      swap1\n      sub\n      swap1\n      dup2\n      tag_200\n      jumpi\n      swap1\n      pop\n    tag_199:\n      pop\n        /* \"contracts/contractsCopy/khaledulsaleh_staking.sol\":11814:11875  Admin_Data[] memory Temp=new Admin_Data[](totalDUSDInvestors) */\n      swap1\n      pop\n        /* \"contracts/contractsCopy/khaledulsaleh_staking.sol\":11906:11912  uint i */\n      0x00\n        /* \"contracts/contractsCopy/khaledulsaleh_staking.sol\":11902:12467  for(uint i=0;i<totalDUSDInvestors;i++)... */\n    tag_203:\n        /* \"contracts/contractsCopy/khaledulsaleh_staking.sol\":11917:11935  totalDUSDInvestors */\n      sload(0x04)\n        /* \"contracts/contractsCopy/khaledulsaleh_staking.sol\":11915:11916  i */\n      dup2\n        /* \"contracts/contractsCopy/khaledulsaleh_staking.sol\":11915:11935  i<totalDUSDInvestors */\n      lt\n        /* \"contracts/contractsCopy/khaledulsaleh_staking.sol\":11902:12467  for(uint i=0;i<totalDUSDInvestors;i++)... */\n      iszero\n      tag_204\n      jumpi\n        /* \"contracts/contractsCopy/khaledulsaleh_staking.sol\":11989:12002  All_investors */\n      0x0c\n        /* \"contracts/contractsCopy/khaledulsaleh_staking.sol\":11989:12005  All_investors[i] */\n      0x00\n        /* \"contracts/contractsCopy/khaledulsaleh_staking.sol\":12003:12004  i */\n      dup3\n        /* \"contracts/contractsCopy/khaledulsaleh_staking.sol\":11989:12005  All_investors[i] */\n      dup2\n      mstore\n      0x20\n      add\n      swap1\n      dup2\n      mstore\n      0x20\n      add\n      0x00\n      keccak256\n      0x00\n      swap1\n      sload\n      swap1\n      0x0100\n      exp\n      swap1\n      div\n      0xffffffffffffffffffffffffffffffffffffffff\n      and\n        /* \"contracts/contractsCopy/khaledulsaleh_staking.sol\":11970:11974  Temp */\n      dup3\n        /* \"contracts/contractsCopy/khaledulsaleh_staking.sol\":11975:11976  i */\n      dup3\n        /* \"contracts/contractsCopy/khaledulsaleh_staking.sol\":11970:11977  Temp[i] */\n      dup2\n      mload\n      dup2\n      lt\n      tag_206\n      jumpi\n      tag_207\n      tag_172\n      jump\t// in\n    tag_207:\n    tag_206:\n      0x20\n      mul\n      0x20\n      add\n      add\n      mload\n        /* \"contracts/contractsCopy/khaledulsaleh_staking.sol\":11970:11986  Temp[i].investor */\n      0x00\n      add\n        /* \"contracts/contractsCopy/khaledulsaleh_staking.sol\":11970:12005  Temp[i].investor = All_investors[i] */\n      swap1\n      0xffffffffffffffffffffffffffffffffffffffff\n      and\n      swap1\n      dup2\n      0xffffffffffffffffffffffffffffffffffffffff\n      and\n      dup2\n      mstore\n      pop\n      pop\n        /* \"contracts/contractsCopy/khaledulsaleh_staking.sol\":12048:12060  DUSDinvestor */\n      0x0d\n        /* \"contracts/contractsCopy/khaledulsaleh_staking.sol\":12048:12078  DUSDinvestor[All_investors[i]] */\n      0x00\n        /* \"contracts/contractsCopy/khaledulsaleh_staking.sol\":12061:12074  All_investors */\n      0x0c\n        /* \"contracts/contractsCopy/khaledulsaleh_staking.sol\":12061:12077  All_investors[i] */\n      0x00\n        /* \"contracts/contractsCopy/khaledulsaleh_staking.sol\":12075:12076  i */\n      dup5\n        /* \"contracts/contractsCopy/khaledulsaleh_staking.sol\":12061:12077  All_investors[i] */\n      dup2\n      mstore\n      0x20\n      add\n      swap1\n      dup2\n      mstore\n      0x20\n      add\n      0x00\n      keccak256\n      0x00\n      swap1\n      sload\n      swap1\n      0x0100\n      exp\n      swap1\n      div\n      0xffffffffffffffffffffffffffffffffffffffff\n      and\n        /* \"contracts/contractsCopy/khaledulsaleh_staking.sol\":12048:12078  DUSDinvestor[All_investors[i]] */\n      0xffffffffffffffffffffffffffffffffffffffff\n      and\n      0xffffffffffffffffffffffffffffffffffffffff\n      and\n      dup2\n      mstore\n      0x20\n      add\n      swap1\n      dup2\n      mstore\n      0x20\n      add\n      0x00\n      keccak256\n        /* \"contracts/contractsCopy/khaledulsaleh_staking.sol\":12048:12094  DUSDinvestor[All_investors[i]].totalInvestment */\n      0x06\n      add\n      sload\n        /* \"contracts/contractsCopy/khaledulsaleh_staking.sol\":12022:12026  Temp */\n      dup3\n        /* \"contracts/contractsCopy/khaledulsaleh_staking.sol\":12027:12028  i */\n      dup3\n        /* \"contracts/contractsCopy/khaledulsaleh_staking.sol\":12022:12029  Temp[i] */\n      dup2\n      mload\n      dup2\n      lt\n      tag_208\n      jumpi\n      tag_209\n      tag_172\n      jump\t// in\n    tag_209:\n    tag_208:\n      0x20\n      mul\n      0x20\n      add\n      add\n      mload\n        /* \"contracts/contractsCopy/khaledulsaleh_staking.sol\":12022:12045  Temp[i].totalInvestment */\n      0x20\n      add\n        /* \"contracts/contractsCopy/khaledulsaleh_staking.sol\":12022:12094  Temp[i].totalInvestment = DUSDinvestor[All_investors[i]].totalInvestment */\n      dup2\n      dup2\n      mstore\n      pop\n      pop\n        /* \"contracts/contractsCopy/khaledulsaleh_staking.sol\":12126:12163  get_investor_Reward(All_investors[i]) */\n      tag_210\n        /* \"contracts/contractsCopy/khaledulsaleh_staking.sol\":12146:12159  All_investors */\n      0x0c\n        /* \"contracts/contractsCopy/khaledulsaleh_staking.sol\":12146:12162  All_investors[i] */\n      0x00\n        /* \"contracts/contractsCopy/khaledulsaleh_staking.sol\":12160:12161  i */\n      dup4\n        /* \"contracts/contractsCopy/khaledulsaleh_staking.sol\":12146:12162  All_investors[i] */\n      dup2\n      mstore\n      0x20\n      add\n      swap1\n      dup2\n      mstore\n      0x20\n      add\n      0x00\n      keccak256\n      0x00\n      swap1\n      sload\n      swap1\n      0x0100\n      exp\n      swap1\n      div\n      0xffffffffffffffffffffffffffffffffffffffff\n      and\n        /* \"contracts/contractsCopy/khaledulsaleh_staking.sol\":12126:12145  get_investor_Reward */\n      tag_211\n        /* \"contracts/contractsCopy/khaledulsaleh_staking.sol\":12126:12163  get_investor_Reward(All_investors[i]) */\n      jump\t// in\n    tag_210:\n        /* \"contracts/contractsCopy/khaledulsaleh_staking.sol\":12111:12115  Temp */\n      dup3\n        /* \"contracts/contractsCopy/khaledulsaleh_staking.sol\":12116:12117  i */\n      dup3\n        /* \"contracts/contractsCopy/khaledulsaleh_staking.sol\":12111:12118  Temp[i] */\n      dup2\n      mload\n      dup2\n      lt\n      tag_212\n      jumpi\n      tag_213\n      tag_172\n      jump\t// in\n    tag_213:\n    tag_212:\n      0x20\n      mul\n      0x20\n      add\n      add\n      mload\n        /* \"contracts/contractsCopy/khaledulsaleh_staking.sol\":12111:12125  Temp[i].reward */\n      0x40\n      add\n        /* \"contracts/contractsCopy/khaledulsaleh_staking.sol\":12111:12163  Temp[i].reward=get_investor_Reward(All_investors[i]) */\n      dup2\n      dup2\n      mstore\n      pop\n      pop\n        /* \"contracts/contractsCopy/khaledulsaleh_staking.sol\":12205:12217  DUSDinvestor */\n      0x0d\n        /* \"contracts/contractsCopy/khaledulsaleh_staking.sol\":12205:12235  DUSDinvestor[All_investors[i]] */\n      0x00\n        /* \"contracts/contractsCopy/khaledulsaleh_staking.sol\":12218:12231  All_investors */\n      0x0c\n        /* \"contracts/contractsCopy/khaledulsaleh_staking.sol\":12218:12234  All_investors[i] */\n      0x00\n        /* \"contracts/contractsCopy/khaledulsaleh_staking.sol\":12232:12233  i */\n      dup5\n        /* \"contracts/contractsCopy/khaledulsaleh_staking.sol\":12218:12234  All_investors[i] */\n      dup2\n      mstore\n      0x20\n      add\n      swap1\n      dup2\n      mstore\n      0x20\n      add\n      0x00\n      keccak256\n      0x00\n      swap1\n      sload\n      swap1\n      0x0100\n      exp\n      swap1\n      div\n      0xffffffffffffffffffffffffffffffffffffffff\n      and\n        /* \"contracts/contractsCopy/khaledulsaleh_staking.sol\":12205:12235  DUSDinvestor[All_investors[i]] */\n      0xffffffffffffffffffffffffffffffffffffffff\n      and\n      0xffffffffffffffffffffffffffffffffffffffff\n      and\n      dup2\n      mstore\n      0x20\n      add\n      swap1\n      dup2\n      mstore\n      0x20\n      add\n      0x00\n      keccak256\n        /* \"contracts/contractsCopy/khaledulsaleh_staking.sol\":12205:12250  DUSDinvestor[All_investors[i]].noOfInvestment */\n      0x05\n      add\n      sload\n        /* \"contracts/contractsCopy/khaledulsaleh_staking.sol\":12180:12184  Temp */\n      dup3\n        /* \"contracts/contractsCopy/khaledulsaleh_staking.sol\":12185:12186  i */\n      dup3\n        /* \"contracts/contractsCopy/khaledulsaleh_staking.sol\":12180:12187  Temp[i] */\n      dup2\n      mload\n      dup2\n      lt\n      tag_214\n      jumpi\n      tag_215\n      tag_172\n      jump\t// in\n    tag_215:\n    tag_214:\n      0x20\n      mul\n      0x20\n      add\n      add\n      mload\n        /* \"contracts/contractsCopy/khaledulsaleh_staking.sol\":12180:12202  Temp[i].noOfInvestment */\n      0x60\n      add\n        /* \"contracts/contractsCopy/khaledulsaleh_staking.sol\":12180:12250  Temp[i].noOfInvestment = DUSDinvestor[All_investors[i]].noOfInvestment */\n      dup2\n      dup2\n      mstore\n      pop\n      pop\n        /* \"contracts/contractsCopy/khaledulsaleh_staking.sol\":12298:12310  DUSDinvestor */\n      0x0d\n        /* \"contracts/contractsCopy/khaledulsaleh_staking.sol\":12298:12328  DUSDinvestor[All_investors[i]] */\n      0x00\n        /* \"contracts/contractsCopy/khaledulsaleh_staking.sol\":12311:12324  All_investors */\n      0x0c\n        /* \"contracts/contractsCopy/khaledulsaleh_staking.sol\":12311:12327  All_investors[i] */\n      0x00\n        /* \"contracts/contractsCopy/khaledulsaleh_staking.sol\":12325:12326  i */\n      dup5\n        /* \"contracts/contractsCopy/khaledulsaleh_staking.sol\":12311:12327  All_investors[i] */\n      dup2\n      mstore\n      0x20\n      add\n      swap1\n      dup2\n      mstore\n      0x20\n      add\n      0x00\n      keccak256\n      0x00\n      swap1\n      sload\n      swap1\n      0x0100\n      exp\n      swap1\n      div\n      0xffffffffffffffffffffffffffffffffffffffff\n      and\n        /* \"contracts/contractsCopy/khaledulsaleh_staking.sol\":12298:12328  DUSDinvestor[All_investors[i]] */\n      0xffffffffffffffffffffffffffffffffffffffff\n      and\n      0xffffffffffffffffffffffffffffffffffffffff\n      and\n      dup2\n      mstore\n      0x20\n      add\n      swap1\n      dup2\n      mstore\n      0x20\n      add\n      0x00\n      keccak256\n        /* \"contracts/contractsCopy/khaledulsaleh_staking.sol\":12298:12349  DUSDinvestor[All_investors[i]].totalWithdraw_reward */\n      0x07\n      add\n      sload\n        /* \"contracts/contractsCopy/khaledulsaleh_staking.sol\":12267:12271  Temp */\n      dup3\n        /* \"contracts/contractsCopy/khaledulsaleh_staking.sol\":12272:12273  i */\n      dup3\n        /* \"contracts/contractsCopy/khaledulsaleh_staking.sol\":12267:12274  Temp[i] */\n      dup2\n      mload\n      dup2\n      lt\n      tag_216\n      jumpi\n      tag_217\n      tag_172\n      jump\t// in\n    tag_217:\n    tag_216:\n      0x20\n      mul\n      0x20\n      add\n      add\n      mload\n        /* \"contracts/contractsCopy/khaledulsaleh_staking.sol\":12267:12295  Temp[i].totalWithdraw_reward */\n      0x80\n      add\n        /* \"contracts/contractsCopy/khaledulsaleh_staking.sol\":12267:12349  Temp[i].totalWithdraw_reward = DUSDinvestor[All_investors[i]].totalWithdraw_reward */\n      dup2\n      dup2\n      mstore\n      pop\n      pop\n        /* \"contracts/contractsCopy/khaledulsaleh_staking.sol\":12392:12435  DUSDTotalReferrals_inside(All_investors[i]) */\n      tag_218\n        /* \"contracts/contractsCopy/khaledulsaleh_staking.sol\":12418:12431  All_investors */\n      0x0c\n        /* \"contracts/contractsCopy/khaledulsaleh_staking.sol\":12418:12434  All_investors[i] */\n      0x00\n        /* \"contracts/contractsCopy/khaledulsaleh_staking.sol\":12432:12433  i */\n      dup4\n        /* \"contracts/contractsCopy/khaledulsaleh_staking.sol\":12418:12434  All_investors[i] */\n      dup2\n      mstore\n      0x20\n      add\n      swap1\n      dup2\n      mstore\n      0x20\n      add\n      0x00\n      keccak256\n      0x00\n      swap1\n      sload\n      swap1\n      0x0100\n      exp\n      swap1\n      div\n      0xffffffffffffffffffffffffffffffffffffffff\n      and\n        /* \"contracts/contractsCopy/khaledulsaleh_staking.sol\":12392:12417  DUSDTotalReferrals_inside */\n      tag_219\n        /* \"contracts/contractsCopy/khaledulsaleh_staking.sol\":12392:12435  DUSDTotalReferrals_inside(All_investors[i]) */\n      jump\t// in\n    tag_218:\n        /* \"contracts/contractsCopy/khaledulsaleh_staking.sol\":12366:12370  Temp */\n      dup3\n        /* \"contracts/contractsCopy/khaledulsaleh_staking.sol\":12371:12372  i */\n      dup3\n        /* \"contracts/contractsCopy/khaledulsaleh_staking.sol\":12366:12373  Temp[i] */\n      dup2\n      mload\n      dup2\n      lt\n      tag_220\n      jumpi\n      tag_221\n      tag_172\n      jump\t// in\n    tag_221:\n    tag_220:\n      0x20\n      mul\n      0x20\n      add\n      add\n      mload\n        /* \"contracts/contractsCopy/khaledulsaleh_staking.sol\":12366:12389  Temp[i].Total_referrals */\n      0xa0\n      add\n        /* \"contracts/contractsCopy/khaledulsaleh_staking.sol\":12366:12435  Temp[i].Total_referrals = DUSDTotalReferrals_inside(All_investors[i]) */\n      dup2\n      dup2\n      mstore\n      pop\n      pop\n        /* \"contracts/contractsCopy/khaledulsaleh_staking.sol\":11936:11939  i++ */\n      dup1\n      dup1\n      tag_222\n      swap1\n      tag_142\n      jump\t// in\n    tag_222:\n      swap2\n      pop\n      pop\n        /* \"contracts/contractsCopy/khaledulsaleh_staking.sol\":11902:12467  for(uint i=0;i<totalDUSDInvestors;i++)... */\n      jump(tag_203)\n    tag_204:\n      pop\n        /* \"contracts/contractsCopy/khaledulsaleh_staking.sol\":12487:12491  Temp */\n      dup1\n        /* \"contracts/contractsCopy/khaledulsaleh_staking.sol\":12480:12491  return Temp */\n      swap2\n      pop\n      pop\n        /* \"contracts/contractsCopy/khaledulsaleh_staking.sol\":11737:12516  function Admin_data() view public returns(Admin_Data[] memory){... */\n      swap1\n      jump\t// out\n        /* \"contracts/contractsCopy/khaledulsaleh_staking.sol\":10115:10399  function set_values(uint min_stake,uint max_stake,uint _reward_per_day,uint _denomenator) public ... */\n    tag_73:\n        /* \"contracts/contractsCopy/khaledulsaleh_staking.sol\":10254:10263  max_stake */\n      dup3\n        /* \"contracts/contractsCopy/khaledulsaleh_staking.sol\":10235:10251  max_Stake_amount */\n      0x07\n        /* \"contracts/contractsCopy/khaledulsaleh_staking.sol\":10235:10263  max_Stake_amount = max_stake */\n      dup2\n      swap1\n      sstore\n      pop\n        /* \"contracts/contractsCopy/khaledulsaleh_staking.sol\":10296:10305  min_stake */\n      dup4\n        /* \"contracts/contractsCopy/khaledulsaleh_staking.sol\":10277:10293  min_Stake_amount */\n      0x06\n        /* \"contracts/contractsCopy/khaledulsaleh_staking.sol\":10277:10305  min_Stake_amount = min_stake */\n      dup2\n      swap1\n      sstore\n      pop\n        /* \"contracts/contractsCopy/khaledulsaleh_staking.sol\":10333:10348  _reward_per_day */\n      dup2\n        /* \"contracts/contractsCopy/khaledulsaleh_staking.sol\":10319:10330  rewardToken */\n      0x05\n        /* \"contracts/contractsCopy/khaledulsaleh_staking.sol\":10319:10348  rewardToken = _reward_per_day */\n      dup2\n      swap1\n      sstore\n      pop\n        /* \"contracts/contractsCopy/khaledulsaleh_staking.sol\":10376:10388  _denomenator */\n      dup1\n        /* \"contracts/contractsCopy/khaledulsaleh_staking.sol\":10362:10373  denomenator */\n      0x08\n        /* \"contracts/contractsCopy/khaledulsaleh_staking.sol\":10362:10388  denomenator = _denomenator */\n      dup2\n      swap1\n      sstore\n      pop\n        /* \"contracts/contractsCopy/khaledulsaleh_staking.sol\":10115:10399  function set_values(uint min_stake,uint max_stake,uint _reward_per_day,uint _denomenator) public ... */\n      pop\n      pop\n      pop\n      pop\n      jump\t// out\n        /* \"contracts/contractsCopy/khaledulsaleh_staking.sol\":9995:10106  function set_max_Stake_amount(uint _amount) public ... */\n    tag_76:\n        /* \"contracts/contractsCopy/khaledulsaleh_staking.sol\":10088:10095  _amount */\n      dup1\n        /* \"contracts/contractsCopy/khaledulsaleh_staking.sol\":10069:10085  max_Stake_amount */\n      0x07\n        /* \"contracts/contractsCopy/khaledulsaleh_staking.sol\":10069:10095  max_Stake_amount = _amount */\n      dup2\n      swap1\n      sstore\n      pop\n        /* \"contracts/contractsCopy/khaledulsaleh_staking.sol\":9995:10106  function set_max_Stake_amount(uint _amount) public ... */\n      pop\n      jump\t// out\n        /* \"contracts/contractsCopy/khaledulsaleh_staking.sol\":1089:1132  mapping(uint=>address) public All_investors */\n    tag_79:\n      mstore(0x20, 0x0c)\n      dup1\n      0x00\n      mstore\n      keccak256(0x00, 0x40)\n      0x00\n      swap2\n      pop\n      sload\n      swap1\n      0x0100\n      exp\n      swap1\n      div\n      0xffffffffffffffffffffffffffffffffffffffff\n      and\n      dup2\n      jump\t// out\n        /* \"contracts/contractsCopy/khaledulsaleh_staking.sol\":978:1015  uint public investmentPeriod=365 days */\n    tag_83:\n      sload(0x09)\n      dup2\n      jump\t// out\n        /* \"contracts/contractsCopy/khaledulsaleh_staking.sol\":12526:12709  function total_withdraw_reaward() view public returns(uint){... */\n    tag_86:\n        /* \"contracts/contractsCopy/khaledulsaleh_staking.sol\":12580:12584  uint */\n      0x00\n        /* \"contracts/contractsCopy/khaledulsaleh_staking.sol\":12601:12610  uint Temp */\n      dup1\n        /* \"contracts/contractsCopy/khaledulsaleh_staking.sol\":12613:12625  DUSDinvestor */\n      0x0d\n        /* \"contracts/contractsCopy/khaledulsaleh_staking.sol\":12613:12637  DUSDinvestor[msg.sender] */\n      0x00\n        /* \"contracts/contractsCopy/khaledulsaleh_staking.sol\":12626:12636  msg.sender */\n      caller\n        /* \"contracts/contractsCopy/khaledulsaleh_staking.sol\":12613:12637  DUSDinvestor[msg.sender] */\n      0xffffffffffffffffffffffffffffffffffffffff\n      and\n      0xffffffffffffffffffffffffffffffffffffffff\n      and\n      dup2\n      mstore\n      0x20\n      add\n      swap1\n      dup2\n      mstore\n      0x20\n      add\n      0x00\n      keccak256\n        /* \"contracts/contractsCopy/khaledulsaleh_staking.sol\":12613:12658  DUSDinvestor[msg.sender].totalWithdraw_reward */\n      0x07\n      add\n      sload\n        /* \"contracts/contractsCopy/khaledulsaleh_staking.sol\":12601:12658  uint Temp = DUSDinvestor[msg.sender].totalWithdraw_reward */\n      swap1\n      pop\n        /* \"contracts/contractsCopy/khaledulsaleh_staking.sol\":12680:12684  Temp */\n      dup1\n        /* \"contracts/contractsCopy/khaledulsaleh_staking.sol\":12673:12684  return Temp */\n      swap2\n      pop\n      pop\n        /* \"contracts/contractsCopy/khaledulsaleh_staking.sol\":12526:12709  function total_withdraw_reaward() view public returns(uint){... */\n      swap1\n      jump\t// out\n        /* \"contracts/contractsCopy/khaledulsaleh_staking.sol\":6706:7902  function unStake() external  returns (bool success){... */\n    tag_89:\n        /* \"contracts/contractsCopy/khaledulsaleh_staking.sol\":6744:6756  bool success */\n      0x00\n        /* \"contracts/contractsCopy/khaledulsaleh_staking.sol\":6820:6821  0 */\n      dup1\n        /* \"contracts/contractsCopy/khaledulsaleh_staking.sol\":6779:6791  DUSDinvestor */\n      0x0d\n        /* \"contracts/contractsCopy/khaledulsaleh_staking.sol\":6779:6803  DUSDinvestor[msg.sender] */\n      0x00\n        /* \"contracts/contractsCopy/khaledulsaleh_staking.sol\":6792:6802  msg.sender */\n      caller\n        /* \"contracts/contractsCopy/khaledulsaleh_staking.sol\":6779:6803  DUSDinvestor[msg.sender] */\n      0xffffffffffffffffffffffffffffffffffffffff\n      and\n      0xffffffffffffffffffffffffffffffffffffffff\n      and\n      dup2\n      mstore\n      0x20\n      add\n      swap1\n      dup2\n      mstore\n      0x20\n      add\n      0x00\n      keccak256\n        /* \"contracts/contractsCopy/khaledulsaleh_staking.sol\":6779:6819  DUSDinvestor[msg.sender].totalInvestment */\n      0x06\n      add\n      sload\n        /* \"contracts/contractsCopy/khaledulsaleh_staking.sol\":6779:6821  DUSDinvestor[msg.sender].totalInvestment>0 */\n      gt\n        /* \"contracts/contractsCopy/khaledulsaleh_staking.sol\":6771:6862  require(DUSDinvestor[msg.sender].totalInvestment>0,\"you dont have investment to withdrawn\") */\n      tag_227\n      jumpi\n      mload(0x40)\n      0x08c379a000000000000000000000000000000000000000000000000000000000\n      dup2\n      mstore\n      0x04\n      add\n      tag_228\n      swap1\n      tag_229\n      jump\t// in\n    tag_228:\n      mload(0x40)\n      dup1\n      swap2\n      sub\n      swap1\n      revert\n    tag_227:\n        /* \"contracts/contractsCopy/khaledulsaleh_staking.sol\":6979:6994  block.timestamp */\n      timestamp\n        /* \"contracts/contractsCopy/khaledulsaleh_staking.sol\":6942:6954  DUSDinvestor */\n      0x0d\n        /* \"contracts/contractsCopy/khaledulsaleh_staking.sol\":6942:6966  DUSDinvestor[msg.sender] */\n      0x00\n        /* \"contracts/contractsCopy/khaledulsaleh_staking.sol\":6955:6965  msg.sender */\n      caller\n        /* \"contracts/contractsCopy/khaledulsaleh_staking.sol\":6942:6966  DUSDinvestor[msg.sender] */\n      0xffffffffffffffffffffffffffffffffffffffff\n      and\n      0xffffffffffffffffffffffffffffffffffffffff\n      and\n      dup2\n      mstore\n      0x20\n      add\n      swap1\n      dup2\n      mstore\n      0x20\n      add\n      0x00\n      keccak256\n        /* \"contracts/contractsCopy/khaledulsaleh_staking.sol\":6942:6976  DUSDinvestor[msg.sender].stakeTime */\n      0x09\n      add\n      sload\n        /* \"contracts/contractsCopy/khaledulsaleh_staking.sol\":6942:6994  DUSDinvestor[msg.sender].stakeTime < block.timestamp */\n      lt\n        /* \"contracts/contractsCopy/khaledulsaleh_staking.sol\":6934:7029  require(DUSDinvestor[msg.sender].stakeTime < block.timestamp,\"you cant withdraw before 1 year\") */\n      tag_230\n      jumpi\n      mload(0x40)\n      0x08c379a000000000000000000000000000000000000000000000000000000000\n      dup2\n      mstore\n      0x04\n      add\n      tag_231\n      swap1\n      tag_232\n      jump\t// in\n    tag_231:\n      mload(0x40)\n      dup1\n      swap2\n      sub\n      swap1\n      revert\n    tag_230:\n        /* \"contracts/contractsCopy/khaledulsaleh_staking.sol\":7043:7054  uint amount */\n      0x00\n        /* \"contracts/contractsCopy/khaledulsaleh_staking.sol\":7055:7067  DUSDinvestor */\n      0x0d\n        /* \"contracts/contractsCopy/khaledulsaleh_staking.sol\":7055:7079  DUSDinvestor[msg.sender] */\n      0x00\n        /* \"contracts/contractsCopy/khaledulsaleh_staking.sol\":7068:7078  msg.sender */\n      caller\n        /* \"contracts/contractsCopy/khaledulsaleh_staking.sol\":7055:7079  DUSDinvestor[msg.sender] */\n      0xffffffffffffffffffffffffffffffffffffffff\n      and\n      0xffffffffffffffffffffffffffffffffffffffff\n      and\n      dup2\n      mstore\n      0x20\n      add\n      swap1\n      dup2\n      mstore\n      0x20\n      add\n      0x00\n      keccak256\n        /* \"contracts/contractsCopy/khaledulsaleh_staking.sol\":7055:7095  DUSDinvestor[msg.sender].totalInvestment */\n      0x06\n      add\n      sload\n        /* \"contracts/contractsCopy/khaledulsaleh_staking.sol\":7043:7095  uint amount=DUSDinvestor[msg.sender].totalInvestment */\n      swap1\n      pop\n        /* \"contracts/contractsCopy/khaledulsaleh_staking.sol\":7109:7118  uint temp */\n      0x00\n        /* \"contracts/contractsCopy/khaledulsaleh_staking.sol\":7121:7133  DUSDinvestor */\n      0x0d\n        /* \"contracts/contractsCopy/khaledulsaleh_staking.sol\":7121:7145  DUSDinvestor[msg.sender] */\n      0x00\n        /* \"contracts/contractsCopy/khaledulsaleh_staking.sol\":7134:7144  msg.sender */\n      caller\n        /* \"contracts/contractsCopy/khaledulsaleh_staking.sol\":7121:7145  DUSDinvestor[msg.sender] */\n      0xffffffffffffffffffffffffffffffffffffffff\n      and\n      0xffffffffffffffffffffffffffffffffffffffff\n      and\n      dup2\n      mstore\n      0x20\n      add\n      swap1\n      dup2\n      mstore\n      0x20\n      add\n      0x00\n      keccak256\n        /* \"contracts/contractsCopy/khaledulsaleh_staking.sol\":7121:7160  DUSDinvestor[msg.sender].noOfInvestment */\n      0x05\n      add\n      sload\n        /* \"contracts/contractsCopy/khaledulsaleh_staking.sol\":7109:7160  uint temp = DUSDinvestor[msg.sender].noOfInvestment */\n      swap1\n      pop\n        /* \"contracts/contractsCopy/khaledulsaleh_staking.sol\":7174:7183  uint from */\n      0x00\n        /* \"contracts/contractsCopy/khaledulsaleh_staking.sol\":7186:7199  rew_till_done */\n      sload(0x0b)\n        /* \"contracts/contractsCopy/khaledulsaleh_staking.sol\":7174:7199  uint from = rew_till_done */\n      swap1\n      pop\n        /* \"contracts/contractsCopy/khaledulsaleh_staking.sol\":7229:7240  SMCcontract */\n      0x01\n      0x00\n      swap1\n      sload\n      swap1\n      0x0100\n      exp\n      swap1\n      div\n      0xffffffffffffffffffffffffffffffffffffffff\n      and\n        /* \"contracts/contractsCopy/khaledulsaleh_staking.sol\":7224:7250  DUSD(SMCcontract).transfer */\n      0xffffffffffffffffffffffffffffffffffffffff\n      and\n      0xa9059cbb\n        /* \"contracts/contractsCopy/khaledulsaleh_staking.sol\":7251:7261  msg.sender */\n      caller\n        /* \"contracts/contractsCopy/khaledulsaleh_staking.sol\":7270:7275  10**8 */\n      0x05f5e100\n        /* \"contracts/contractsCopy/khaledulsaleh_staking.sol\":7262:7268  amount */\n      dup7\n        /* \"contracts/contractsCopy/khaledulsaleh_staking.sol\":7262:7275  amount* 10**8 */\n      tag_233\n      swap2\n      swap1\n      tag_189\n      jump\t// in\n    tag_233:\n        /* \"contracts/contractsCopy/khaledulsaleh_staking.sol\":7224:7276  DUSD(SMCcontract).transfer(msg.sender,amount* 10**8) */\n      mload(0x40)\n      dup4\n      0xffffffff\n      and\n      0xe0\n      shl\n      dup2\n      mstore\n      0x04\n      add\n      tag_234\n      swap3\n      swap2\n      swap1\n      tag_235\n      jump\t// in\n    tag_234:\n      0x20\n      mload(0x40)\n      dup1\n      dup4\n      sub\n      dup2\n      0x00\n      dup8\n      dup1\n      extcodesize\n      iszero\n      dup1\n      iszero\n      tag_236\n      jumpi\n      0x00\n      dup1\n      revert\n    tag_236:\n      pop\n      gas\n      call\n      iszero\n      dup1\n      iszero\n      tag_238\n      jumpi\n      returndatasize\n      0x00\n      dup1\n      returndatacopy\n      revert(0x00, returndatasize)\n    tag_238:\n      pop\n      pop\n      pop\n      pop\n      mload(0x40)\n      returndatasize\n      not(0x1f)\n      0x1f\n      dup3\n      add\n      and\n      dup3\n      add\n      dup1\n      0x40\n      mstore\n      pop\n      dup2\n      add\n      swap1\n      tag_239\n      swap2\n      swap1\n      tag_240\n      jump\t// in\n    tag_239:\n      pop\n        /* \"contracts/contractsCopy/khaledulsaleh_staking.sol\":7381:7382  0 */\n      0x00\n        /* \"contracts/contractsCopy/khaledulsaleh_staking.sol\":7376:7382  from=0 */\n      swap1\n      pop\n        /* \"contracts/contractsCopy/khaledulsaleh_staking.sol\":7371:7633  for( from=0;from < temp;from++)... */\n    tag_241:\n        /* \"contracts/contractsCopy/khaledulsaleh_staking.sol\":7390:7394  temp */\n      dup2\n        /* \"contracts/contractsCopy/khaledulsaleh_staking.sol\":7383:7387  from */\n      dup2\n        /* \"contracts/contractsCopy/khaledulsaleh_staking.sol\":7383:7394  from < temp */\n      lt\n        /* \"contracts/contractsCopy/khaledulsaleh_staking.sol\":7371:7633  for( from=0;from < temp;from++)... */\n      iszero\n      tag_242\n      jumpi\n        /* \"contracts/contractsCopy/khaledulsaleh_staking.sol\":7487:7491  true */\n      0x01\n        /* \"contracts/contractsCopy/khaledulsaleh_staking.sol\":7436:7448  DUSDinvestor */\n      0x0d\n        /* \"contracts/contractsCopy/khaledulsaleh_staking.sol\":7436:7460  DUSDinvestor[msg.sender] */\n      0x00\n        /* \"contracts/contractsCopy/khaledulsaleh_staking.sol\":7449:7459  msg.sender */\n      caller\n        /* \"contracts/contractsCopy/khaledulsaleh_staking.sol\":7436:7460  DUSDinvestor[msg.sender] */\n      0xffffffffffffffffffffffffffffffffffffffff\n      and\n      0xffffffffffffffffffffffffffffffffffffffff\n      and\n      dup2\n      mstore\n      0x20\n      add\n      swap1\n      dup2\n      mstore\n      0x20\n      add\n      0x00\n      keccak256\n        /* \"contracts/contractsCopy/khaledulsaleh_staking.sol\":7436:7471  DUSDinvestor[msg.sender].investment */\n      0x00\n      add\n        /* \"contracts/contractsCopy/khaledulsaleh_staking.sol\":7436:7477  DUSDinvestor[msg.sender].investment[from] */\n      0x00\n        /* \"contracts/contractsCopy/khaledulsaleh_staking.sol\":7472:7476  from */\n      dup4\n        /* \"contracts/contractsCopy/khaledulsaleh_staking.sol\":7436:7477  DUSDinvestor[msg.sender].investment[from] */\n      dup2\n      mstore\n      0x20\n      add\n      swap1\n      dup2\n      mstore\n      0x20\n      add\n      0x00\n      keccak256\n        /* \"contracts/contractsCopy/khaledulsaleh_staking.sol\":7436:7485  DUSDinvestor[msg.sender].investment[from].unstake */\n      0x05\n      add\n      0x00\n        /* \"contracts/contractsCopy/khaledulsaleh_staking.sol\":7436:7491  DUSDinvestor[msg.sender].investment[from].unstake =true */\n      0x0100\n      exp\n      dup2\n      sload\n      dup2\n      0xff\n      mul\n      not\n      and\n      swap1\n      dup4\n      iszero\n      iszero\n      mul\n      or\n      swap1\n      sstore\n      pop\n        /* \"contracts/contractsCopy/khaledulsaleh_staking.sol\":7568:7583  block.timestamp */\n      timestamp\n        /* \"contracts/contractsCopy/khaledulsaleh_staking.sol\":7513:7525  DUSDinvestor */\n      0x0d\n        /* \"contracts/contractsCopy/khaledulsaleh_staking.sol\":7513:7537  DUSDinvestor[msg.sender] */\n      0x00\n        /* \"contracts/contractsCopy/khaledulsaleh_staking.sol\":7526:7536  msg.sender */\n      caller\n        /* \"contracts/contractsCopy/khaledulsaleh_staking.sol\":7513:7537  DUSDinvestor[msg.sender] */\n      0xffffffffffffffffffffffffffffffffffffffff\n      and\n      0xffffffffffffffffffffffffffffffffffffffff\n      and\n      dup2\n      mstore\n      0x20\n      add\n      swap1\n      dup2\n      mstore\n      0x20\n      add\n      0x00\n      keccak256\n        /* \"contracts/contractsCopy/khaledulsaleh_staking.sol\":7513:7548  DUSDinvestor[msg.sender].investment */\n      0x00\n      add\n        /* \"contracts/contractsCopy/khaledulsaleh_staking.sol\":7513:7554  DUSDinvestor[msg.sender].investment[from] */\n      0x00\n        /* \"contracts/contractsCopy/khaledulsaleh_staking.sol\":7549:7553  from */\n      dup4\n        /* \"contracts/contractsCopy/khaledulsaleh_staking.sol\":7513:7554  DUSDinvestor[msg.sender].investment[from] */\n      dup2\n      mstore\n      0x20\n      add\n      swap1\n      dup2\n      mstore\n      0x20\n      add\n      0x00\n      keccak256\n        /* \"contracts/contractsCopy/khaledulsaleh_staking.sol\":7513:7566  DUSDinvestor[msg.sender].investment[from].unstakeTime */\n      0x04\n      add\n        /* \"contracts/contractsCopy/khaledulsaleh_staking.sol\":7513:7583  DUSDinvestor[msg.sender].investment[from].unstakeTime =block.timestamp */\n      dup2\n      swap1\n      sstore\n      pop\n        /* \"contracts/contractsCopy/khaledulsaleh_staking.sol\":7395:7401  from++ */\n      dup1\n      dup1\n      tag_244\n      swap1\n      tag_142\n      jump\t// in\n    tag_244:\n      swap2\n      pop\n      pop\n        /* \"contracts/contractsCopy/khaledulsaleh_staking.sol\":7371:7633  for( from=0;from < temp;from++)... */\n      jump(tag_241)\n    tag_242:\n        /* \"contracts/contractsCopy/khaledulsaleh_staking.sol\":7661:7673  DUSDinvestor */\n      0x0d\n        /* \"contracts/contractsCopy/khaledulsaleh_staking.sol\":7661:7685  DUSDinvestor[msg.sender] */\n      0x00\n        /* \"contracts/contractsCopy/khaledulsaleh_staking.sol\":7674:7684  msg.sender */\n      caller\n        /* \"contracts/contractsCopy/khaledulsaleh_staking.sol\":7661:7685  DUSDinvestor[msg.sender] */\n      0xffffffffffffffffffffffffffffffffffffffff\n      and\n      0xffffffffffffffffffffffffffffffffffffffff\n      and\n      dup2\n      mstore\n      0x20\n      add\n      swap1\n      dup2\n      mstore\n      0x20\n      add\n      0x00\n      keccak256\n        /* \"contracts/contractsCopy/khaledulsaleh_staking.sol\":7661:7700  DUSDinvestor[msg.sender].noOfInvestment */\n      0x05\n      add\n      sload\n        /* \"contracts/contractsCopy/khaledulsaleh_staking.sol\":7646:7659  rew_till_done */\n      0x0b\n        /* \"contracts/contractsCopy/khaledulsaleh_staking.sol\":7646:7700  rew_till_done =DUSDinvestor[msg.sender].noOfInvestment */\n      dup2\n      swap1\n      sstore\n      pop\n        /* \"contracts/contractsCopy/khaledulsaleh_staking.sol\":7794:7795  0 */\n      0x00\n        /* \"contracts/contractsCopy/khaledulsaleh_staking.sol\":7753:7765  DUSDinvestor */\n      0x0d\n        /* \"contracts/contractsCopy/khaledulsaleh_staking.sol\":7753:7777  DUSDinvestor[msg.sender] */\n      0x00\n        /* \"contracts/contractsCopy/khaledulsaleh_staking.sol\":7766:7776  msg.sender */\n      caller\n        /* \"contracts/contractsCopy/khaledulsaleh_staking.sol\":7753:7777  DUSDinvestor[msg.sender] */\n      0xffffffffffffffffffffffffffffffffffffffff\n      and\n      0xffffffffffffffffffffffffffffffffffffffff\n      and\n      dup2\n      mstore\n      0x20\n      add\n      swap1\n      dup2\n      mstore\n      0x20\n      add\n      0x00\n      keccak256\n        /* \"contracts/contractsCopy/khaledulsaleh_staking.sol\":7753:7793  DUSDinvestor[msg.sender].totalInvestment */\n      0x06\n      add\n        /* \"contracts/contractsCopy/khaledulsaleh_staking.sol\":7753:7795  DUSDinvestor[msg.sender].totalInvestment=0 */\n      dup2\n      swap1\n      sstore\n      pop\n        /* \"contracts/contractsCopy/khaledulsaleh_staking.sol\":7886:7890  true */\n      0x01\n        /* \"contracts/contractsCopy/khaledulsaleh_staking.sol\":7879:7890  return true */\n      swap4\n      pop\n      pop\n      pop\n      pop\n        /* \"contracts/contractsCopy/khaledulsaleh_staking.sol\":6706:7902  function unStake() external  returns (bool success){... */\n      swap1\n      jump\t// out\n        /* \"contracts/contractsCopy/khaledulsaleh_staking.sol\":300:321  address  public owner */\n    tag_92:\n      0x00\n      dup1\n      sload\n      swap1\n      0x0100\n      exp\n      swap1\n      div\n      0xffffffffffffffffffffffffffffffffffffffff\n      and\n      dup2\n      jump\t// out\n        /* \"contracts/contractsCopy/khaledulsaleh_staking.sol\":7912:8122  function getTotalInvestmentDUSD() public view returns(uint) {   //this function is to get the total investment of the ivestor... */\n    tag_95:\n        /* \"contracts/contractsCopy/khaledulsaleh_staking.sol\":7966:7970  uint */\n      0x00\n        /* \"contracts/contractsCopy/khaledulsaleh_staking.sol\":8070:8082  DUSDinvestor */\n      0x0d\n        /* \"contracts/contractsCopy/khaledulsaleh_staking.sol\":8070:8094  DUSDinvestor[msg.sender] */\n      0x00\n        /* \"contracts/contractsCopy/khaledulsaleh_staking.sol\":8083:8093  msg.sender */\n      caller\n        /* \"contracts/contractsCopy/khaledulsaleh_staking.sol\":8070:8094  DUSDinvestor[msg.sender] */\n      0xffffffffffffffffffffffffffffffffffffffff\n      and\n      0xffffffffffffffffffffffffffffffffffffffff\n      and\n      dup2\n      mstore\n      0x20\n      add\n      swap1\n      dup2\n      mstore\n      0x20\n      add\n      0x00\n      keccak256\n        /* \"contracts/contractsCopy/khaledulsaleh_staking.sol\":8070:8110  DUSDinvestor[msg.sender].totalInvestment */\n      0x06\n      add\n      sload\n        /* \"contracts/contractsCopy/khaledulsaleh_staking.sol\":8063:8110  return DUSDinvestor[msg.sender].totalInvestment */\n      swap1\n      pop\n        /* \"contracts/contractsCopy/khaledulsaleh_staking.sol\":7912:8122  function getTotalInvestmentDUSD() public view returns(uint) {   //this function is to get the total investment of the ivestor... */\n      swap1\n      jump\t// out\n        /* \"contracts/contractsCopy/khaledulsaleh_staking.sol\":910:940  uint public denomenator=100000 */\n    tag_98:\n      sload(0x08)\n      dup2\n      jump\t// out\n        /* \"contracts/contractsCopy/khaledulsaleh_staking.sol\":10592:11157  function referralLevel_earning() public view returns( uint[] memory arr )... */\n    tag_101:\n        /* \"contracts/contractsCopy/khaledulsaleh_staking.sol\":10646:10663  uint[] memory arr */\n      0x60\n        /* \"contracts/contractsCopy/khaledulsaleh_staking.sol\":10688:10723  uint[] memory referralLevels_reward */\n      0x00\n        /* \"contracts/contractsCopy/khaledulsaleh_staking.sol\":10735:10737  20 */\n      0x14\n        /* \"contracts/contractsCopy/khaledulsaleh_staking.sol\":10724:10738  new uint[](20) */\n      0xffffffffffffffff\n      dup2\n      gt\n      iszero\n      tag_247\n      jumpi\n      tag_248\n      tag_161\n      jump\t// in\n    tag_248:\n    tag_247:\n      mload(0x40)\n      swap1\n      dup1\n      dup3\n      mstore\n      dup1\n      0x20\n      mul\n      0x20\n      add\n      dup3\n      add\n      0x40\n      mstore\n      dup1\n      iszero\n      tag_249\n      jumpi\n      dup2\n      0x20\n      add\n      0x20\n      dup3\n      mul\n      dup1\n      calldatasize\n      dup4\n      calldatacopy\n      dup1\n      dup3\n      add\n      swap2\n      pop\n      pop\n      swap1\n      pop\n    tag_249:\n      pop\n        /* \"contracts/contractsCopy/khaledulsaleh_staking.sol\":10688:10738  uint[] memory referralLevels_reward=new uint[](20) */\n      swap1\n      pop\n        /* \"contracts/contractsCopy/khaledulsaleh_staking.sol\":10756:10762  uint i */\n      0x00\n        /* \"contracts/contractsCopy/khaledulsaleh_staking.sol\":10752:11102  for(uint i=0;i<20;i++)... */\n    tag_250:\n        /* \"contracts/contractsCopy/khaledulsaleh_staking.sol\":10767:10769  20 */\n      0x14\n        /* \"contracts/contractsCopy/khaledulsaleh_staking.sol\":10765:10766  i */\n      dup2\n        /* \"contracts/contractsCopy/khaledulsaleh_staking.sol\":10765:10769  i<20 */\n      lt\n        /* \"contracts/contractsCopy/khaledulsaleh_staking.sol\":10752:11102  for(uint i=0;i<20;i++)... */\n      iszero\n      tag_251\n      jumpi\n        /* \"contracts/contractsCopy/khaledulsaleh_staking.sol\":10857:10858  0 */\n      0x00\n        /* \"contracts/contractsCopy/khaledulsaleh_staking.sol\":10808:10820  DUSDinvestor */\n      0x0d\n        /* \"contracts/contractsCopy/khaledulsaleh_staking.sol\":10808:10832  DUSDinvestor[msg.sender] */\n      0x00\n        /* \"contracts/contractsCopy/khaledulsaleh_staking.sol\":10821:10831  msg.sender */\n      caller\n        /* \"contracts/contractsCopy/khaledulsaleh_staking.sol\":10808:10832  DUSDinvestor[msg.sender] */\n      0xffffffffffffffffffffffffffffffffffffffff\n      and\n      0xffffffffffffffffffffffffffffffffffffffff\n      and\n      dup2\n      mstore\n      0x20\n      add\n      swap1\n      dup2\n      mstore\n      0x20\n      add\n      0x00\n      keccak256\n        /* \"contracts/contractsCopy/khaledulsaleh_staking.sol\":10808:10846  DUSDinvestor[msg.sender].referralLevel */\n      0x03\n      add\n        /* \"contracts/contractsCopy/khaledulsaleh_staking.sol\":10808:10849  DUSDinvestor[msg.sender].referralLevel[i] */\n      0x00\n        /* \"contracts/contractsCopy/khaledulsaleh_staking.sol\":10847:10848  i */\n      dup4\n        /* \"contracts/contractsCopy/khaledulsaleh_staking.sol\":10808:10849  DUSDinvestor[msg.sender].referralLevel[i] */\n      dup2\n      mstore\n      0x20\n      add\n      swap1\n      dup2\n      mstore\n      0x20\n      add\n      0x00\n      keccak256\n        /* \"contracts/contractsCopy/khaledulsaleh_staking.sol\":10808:10856  DUSDinvestor[msg.sender].referralLevel[i].reward */\n      0x00\n      add\n      sload\n        /* \"contracts/contractsCopy/khaledulsaleh_staking.sol\":10808:10858  DUSDinvestor[msg.sender].referralLevel[i].reward>0 */\n      gt\n        /* \"contracts/contractsCopy/khaledulsaleh_staking.sol\":10805:11086  if(DUSDinvestor[msg.sender].referralLevel[i].reward>0)... */\n      iszero\n      tag_253\n      jumpi\n        /* \"contracts/contractsCopy/khaledulsaleh_staking.sol\":10925:10937  DUSDinvestor */\n      0x0d\n        /* \"contracts/contractsCopy/khaledulsaleh_staking.sol\":10925:10949  DUSDinvestor[msg.sender] */\n      0x00\n        /* \"contracts/contractsCopy/khaledulsaleh_staking.sol\":10938:10948  msg.sender */\n      caller\n        /* \"contracts/contractsCopy/khaledulsaleh_staking.sol\":10925:10949  DUSDinvestor[msg.sender] */\n      0xffffffffffffffffffffffffffffffffffffffff\n      and\n      0xffffffffffffffffffffffffffffffffffffffff\n      and\n      dup2\n      mstore\n      0x20\n      add\n      swap1\n      dup2\n      mstore\n      0x20\n      add\n      0x00\n      keccak256\n        /* \"contracts/contractsCopy/khaledulsaleh_staking.sol\":10925:10963  DUSDinvestor[msg.sender].referralLevel */\n      0x03\n      add\n        /* \"contracts/contractsCopy/khaledulsaleh_staking.sol\":10925:10966  DUSDinvestor[msg.sender].referralLevel[i] */\n      0x00\n        /* \"contracts/contractsCopy/khaledulsaleh_staking.sol\":10964:10965  i */\n      dup3\n        /* \"contracts/contractsCopy/khaledulsaleh_staking.sol\":10925:10966  DUSDinvestor[msg.sender].referralLevel[i] */\n      dup2\n      mstore\n      0x20\n      add\n      swap1\n      dup2\n      mstore\n      0x20\n      add\n      0x00\n      keccak256\n        /* \"contracts/contractsCopy/khaledulsaleh_staking.sol\":10925:10973  DUSDinvestor[msg.sender].referralLevel[i].reward */\n      0x00\n      add\n      sload\n        /* \"contracts/contractsCopy/khaledulsaleh_staking.sol\":10898:10919  referralLevels_reward */\n      dup3\n        /* \"contracts/contractsCopy/khaledulsaleh_staking.sol\":10920:10921  i */\n      dup3\n        /* \"contracts/contractsCopy/khaledulsaleh_staking.sol\":10898:10922  referralLevels_reward[i] */\n      dup2\n      mload\n      dup2\n      lt\n      tag_254\n      jumpi\n      tag_255\n      tag_172\n      jump\t// in\n    tag_255:\n    tag_254:\n      0x20\n      mul\n      0x20\n      add\n      add\n        /* \"contracts/contractsCopy/khaledulsaleh_staking.sol\":10898:10973  referralLevels_reward[i] = DUSDinvestor[msg.sender].referralLevel[i].reward */\n      dup2\n      dup2\n      mstore\n      pop\n      pop\n        /* \"contracts/contractsCopy/khaledulsaleh_staking.sol\":10805:11086  if(DUSDinvestor[msg.sender].referralLevel[i].reward>0)... */\n      jump(tag_256)\n    tag_253:\n        /* \"contracts/contractsCopy/khaledulsaleh_staking.sol\":11065:11066  0 */\n      0x00\n        /* \"contracts/contractsCopy/khaledulsaleh_staking.sol\":11038:11059  referralLevels_reward */\n      dup3\n        /* \"contracts/contractsCopy/khaledulsaleh_staking.sol\":11060:11061  i */\n      dup3\n        /* \"contracts/contractsCopy/khaledulsaleh_staking.sol\":11038:11062  referralLevels_reward[i] */\n      dup2\n      mload\n      dup2\n      lt\n      tag_257\n      jumpi\n      tag_258\n      tag_172\n      jump\t// in\n    tag_258:\n    tag_257:\n      0x20\n      mul\n      0x20\n      add\n      add\n        /* \"contracts/contractsCopy/khaledulsaleh_staking.sol\":11038:11066  referralLevels_reward[i] = 0 */\n      dup2\n      dup2\n      mstore\n      pop\n      pop\n        /* \"contracts/contractsCopy/khaledulsaleh_staking.sol\":10805:11086  if(DUSDinvestor[msg.sender].referralLevel[i].reward>0)... */\n    tag_256:\n        /* \"contracts/contractsCopy/khaledulsaleh_staking.sol\":10770:10773  i++ */\n      dup1\n      dup1\n      tag_259\n      swap1\n      tag_142\n      jump\t// in\n    tag_259:\n      swap2\n      pop\n      pop\n        /* \"contracts/contractsCopy/khaledulsaleh_staking.sol\":10752:11102  for(uint i=0;i<20;i++)... */\n      jump(tag_250)\n    tag_251:\n      pop\n        /* \"contracts/contractsCopy/khaledulsaleh_staking.sol\":11122:11143  referralLevels_reward */\n      dup1\n        /* \"contracts/contractsCopy/khaledulsaleh_staking.sol\":11115:11143  return referralLevels_reward */\n      swap2\n      pop\n      pop\n        /* \"contracts/contractsCopy/khaledulsaleh_staking.sol\":10592:11157  function referralLevel_earning() public view returns( uint[] memory arr )... */\n      swap1\n      jump\t// out\n        /* \"contracts/contractsCopy/khaledulsaleh_staking.sol\":765:799  uint public min_Stake_amount=10000 */\n    tag_105:\n      sload(0x06)\n      dup2\n      jump\t// out\n        /* \"contracts/contractsCopy/khaledulsaleh_staking.sol\":6198:6695  function withdrawReward() external returns (bool success){... */\n    tag_108:\n        /* \"contracts/contractsCopy/khaledulsaleh_staking.sol\":6242:6254  bool success */\n      0x00\n        /* \"contracts/contractsCopy/khaledulsaleh_staking.sol\":6269:6286  uint Total_reward */\n      dup1\n        /* \"contracts/contractsCopy/khaledulsaleh_staking.sol\":6289:6300  getReward() */\n      tag_261\n        /* \"contracts/contractsCopy/khaledulsaleh_staking.sol\":6289:6298  getReward */\n      tag_64\n        /* \"contracts/contractsCopy/khaledulsaleh_staking.sol\":6289:6300  getReward() */\n      jump\t// in\n    tag_261:\n        /* \"contracts/contractsCopy/khaledulsaleh_staking.sol\":6269:6300  uint Total_reward = getReward() */\n      swap1\n      pop\n        /* \"contracts/contractsCopy/khaledulsaleh_staking.sol\":6335:6336  0 */\n      0x00\n        /* \"contracts/contractsCopy/khaledulsaleh_staking.sol\":6322:6334  Total_reward */\n      dup2\n        /* \"contracts/contractsCopy/khaledulsaleh_staking.sol\":6322:6336  Total_reward>0 */\n      gt\n        /* \"contracts/contractsCopy/khaledulsaleh_staking.sol\":6314:6374  require(Total_reward>0,\"you dont have rewards to withdrawn\") */\n      tag_262\n      jumpi\n      mload(0x40)\n      0x08c379a000000000000000000000000000000000000000000000000000000000\n      dup2\n      mstore\n      0x04\n      add\n      tag_263\n      swap1\n      tag_264\n      jump\t// in\n    tag_263:\n      mload(0x40)\n      dup1\n      swap2\n      sub\n      swap1\n      revert\n    tag_262:\n        /* \"contracts/contractsCopy/khaledulsaleh_staking.sol\":6467:6479  BUSDcontract */\n      0x02\n      0x00\n      swap1\n      sload\n      swap1\n      0x0100\n      exp\n      swap1\n      div\n      0xffffffffffffffffffffffffffffffffffffffff\n      and\n        /* \"contracts/contractsCopy/khaledulsaleh_staking.sol\":6462:6489  DUSD(BUSDcontract).transfer */\n      0xffffffffffffffffffffffffffffffffffffffff\n      and\n      0xa9059cbb\n        /* \"contracts/contractsCopy/khaledulsaleh_staking.sol\":6490:6500  msg.sender */\n      caller\n        /* \"contracts/contractsCopy/khaledulsaleh_staking.sol\":6514:6520  10**18 */\n      0x0de0b6b3a7640000\n        /* \"contracts/contractsCopy/khaledulsaleh_staking.sol\":6501:6513  Total_reward */\n      dup5\n        /* \"contracts/contractsCopy/khaledulsaleh_staking.sol\":6501:6520  Total_reward*10**18 */\n      tag_265\n      swap2\n      swap1\n      tag_189\n      jump\t// in\n    tag_265:\n        /* \"contracts/contractsCopy/khaledulsaleh_staking.sol\":6462:6521  DUSD(BUSDcontract).transfer(msg.sender,Total_reward*10**18) */\n      mload(0x40)\n      dup4\n      0xffffffff\n      and\n      0xe0\n      shl\n      dup2\n      mstore\n      0x04\n      add\n      tag_266\n      swap3\n      swap2\n      swap1\n      tag_235\n      jump\t// in\n    tag_266:\n      0x20\n      mload(0x40)\n      dup1\n      dup4\n      sub\n      dup2\n      0x00\n      dup8\n      dup1\n      extcodesize\n      iszero\n      dup1\n      iszero\n      tag_267\n      jumpi\n      0x00\n      dup1\n      revert\n    tag_267:\n      pop\n      gas\n      call\n      iszero\n      dup1\n      iszero\n      tag_269\n      jumpi\n      returndatasize\n      0x00\n      dup1\n      returndatacopy\n      revert(0x00, returndatasize)\n    tag_269:\n      pop\n      pop\n      pop\n      pop\n      mload(0x40)\n      returndatasize\n      not(0x1f)\n      0x1f\n      dup3\n      add\n      and\n      dup3\n      add\n      dup1\n      0x40\n      mstore\n      pop\n      dup2\n      add\n      swap1\n      tag_270\n      swap2\n      swap1\n      tag_240\n      jump\t// in\n    tag_270:\n      pop\n        /* \"contracts/contractsCopy/khaledulsaleh_staking.sol\":6645:6657  Total_reward */\n      dup1\n        /* \"contracts/contractsCopy/khaledulsaleh_staking.sol\":6598:6610  DUSDinvestor */\n      0x0d\n        /* \"contracts/contractsCopy/khaledulsaleh_staking.sol\":6598:6622  DUSDinvestor[msg.sender] */\n      0x00\n        /* \"contracts/contractsCopy/khaledulsaleh_staking.sol\":6611:6621  msg.sender */\n      caller\n        /* \"contracts/contractsCopy/khaledulsaleh_staking.sol\":6598:6622  DUSDinvestor[msg.sender] */\n      0xffffffffffffffffffffffffffffffffffffffff\n      and\n      0xffffffffffffffffffffffffffffffffffffffff\n      and\n      dup2\n      mstore\n      0x20\n      add\n      swap1\n      dup2\n      mstore\n      0x20\n      add\n      0x00\n      keccak256\n        /* \"contracts/contractsCopy/khaledulsaleh_staking.sol\":6598:6643  DUSDinvestor[msg.sender].totalWithdraw_reward */\n      0x07\n      add\n      0x00\n        /* \"contracts/contractsCopy/khaledulsaleh_staking.sol\":6598:6657  DUSDinvestor[msg.sender].totalWithdraw_reward+=Total_reward */\n      dup3\n      dup3\n      sload\n      tag_271\n      swap2\n      swap1\n      tag_145\n      jump\t// in\n    tag_271:\n      swap3\n      pop\n      pop\n      dup2\n      swap1\n      sstore\n      pop\n        /* \"contracts/contractsCopy/khaledulsaleh_staking.sol\":6679:6683  true */\n      0x01\n        /* \"contracts/contractsCopy/khaledulsaleh_staking.sol\":6672:6683  return true */\n      swap2\n      pop\n      pop\n        /* \"contracts/contractsCopy/khaledulsaleh_staking.sol\":6198:6695  function withdrawReward() external returns (bool success){... */\n      swap1\n      jump\t// out\n        /* \"contracts/contractsCopy/khaledulsaleh_staking.sol\":2091:2133  mapping(address=>Data) public DUSDinvestor */\n    tag_113:\n      mstore(0x20, 0x0d)\n      dup1\n      0x00\n      mstore\n      keccak256(0x00, 0x40)\n      0x00\n      swap2\n      pop\n      swap1\n      pop\n      dup1\n      0x02\n      add\n      0x00\n      swap1\n      sload\n      swap1\n      0x0100\n      exp\n      swap1\n      div\n      0xffffffffffffffffffffffffffffffffffffffff\n      and\n      swap1\n      dup1\n      0x04\n      add\n      sload\n      swap1\n      dup1\n      0x05\n      add\n      sload\n      swap1\n      dup1\n      0x06\n      add\n      sload\n      swap1\n      dup1\n      0x07\n      add\n      sload\n      swap1\n      dup1\n      0x08\n      add\n      0x00\n      swap1\n      sload\n      swap1\n      0x0100\n      exp\n      swap1\n      div\n      0xff\n      and\n      swap1\n      dup1\n      0x09\n      add\n      sload\n      swap1\n      pop\n      dup8\n      jump\t// out\n        /* \"contracts/contractsCopy/khaledulsaleh_staking.sol\":1025:1050  uint public totalbusiness */\n    tag_117:\n      sload(0x0a)\n      dup2\n      jump\t// out\n        /* \"contracts/contractsCopy/khaledulsaleh_staking.sol\":10408:10582  function transferOwnership(address _owner)  public... */\n    tag_121:\n        /* \"contracts/contractsCopy/khaledulsaleh_staking.sol\":10501:10506  owner */\n      0x00\n      dup1\n      sload\n      swap1\n      0x0100\n      exp\n      swap1\n      div\n      0xffffffffffffffffffffffffffffffffffffffff\n      and\n        /* \"contracts/contractsCopy/khaledulsaleh_staking.sol\":10489:10506  msg.sender==owner */\n      0xffffffffffffffffffffffffffffffffffffffff\n      and\n        /* \"contracts/contractsCopy/khaledulsaleh_staking.sol\":10489:10499  msg.sender */\n      caller\n        /* \"contracts/contractsCopy/khaledulsaleh_staking.sol\":10489:10506  msg.sender==owner */\n      0xffffffffffffffffffffffffffffffffffffffff\n      and\n      eq\n        /* \"contracts/contractsCopy/khaledulsaleh_staking.sol\":10481:10543  require(msg.sender==owner,\"only Owner can call this function\") */\n      tag_273\n      jumpi\n      mload(0x40)\n      0x08c379a000000000000000000000000000000000000000000000000000000000\n      dup2\n      mstore\n      0x04\n      add\n      tag_274\n      swap1\n      tag_275\n      jump\t// in\n    tag_274:\n      mload(0x40)\n      dup1\n      swap2\n      sub\n      swap1\n      revert\n    tag_273:\n        /* \"contracts/contractsCopy/khaledulsaleh_staking.sol\":10565:10571  _owner */\n      dup1\n        /* \"contracts/contractsCopy/khaledulsaleh_staking.sol\":10557:10562  owner */\n      0x00\n      dup1\n        /* \"contracts/contractsCopy/khaledulsaleh_staking.sol\":10557:10571  owner = _owner */\n      0x0100\n      exp\n      dup2\n      sload\n      dup2\n      0xffffffffffffffffffffffffffffffffffffffff\n      mul\n      not\n      and\n      swap1\n      dup4\n      0xffffffffffffffffffffffffffffffffffffffff\n      and\n      mul\n      or\n      swap1\n      sstore\n      pop\n        /* \"contracts/contractsCopy/khaledulsaleh_staking.sol\":10408:10582  function transferOwnership(address _owner)  public... */\n      pop\n      jump\t// out\n        /* \"contracts/contractsCopy/khaledulsaleh_staking.sol\":11166:11727  function referralLevel_count() public view returns( uint[] memory arr )... */\n    tag_123:\n        /* \"contracts/contractsCopy/khaledulsaleh_staking.sol\":11218:11235  uint[] memory arr */\n      0x60\n        /* \"contracts/contractsCopy/khaledulsaleh_staking.sol\":11260:11295  uint[] memory referralLevels_reward */\n      0x00\n        /* \"contracts/contractsCopy/khaledulsaleh_staking.sol\":11307:11309  20 */\n      0x14\n        /* \"contracts/contractsCopy/khaledulsaleh_staking.sol\":11296:11310  new uint[](20) */\n      0xffffffffffffffff\n      dup2\n      gt\n      iszero\n      tag_277\n      jumpi\n      tag_278\n      tag_161\n      jump\t// in\n    tag_278:\n    tag_277:\n      mload(0x40)\n      swap1\n      dup1\n      dup3\n      mstore\n      dup1\n      0x20\n      mul\n      0x20\n      add\n      dup3\n      add\n      0x40\n      mstore\n      dup1\n      iszero\n      tag_279\n      jumpi\n      dup2\n      0x20\n      add\n      0x20\n      dup3\n      mul\n      dup1\n      calldatasize\n      dup4\n      calldatacopy\n      dup1\n      dup3\n      add\n      swap2\n      pop\n      pop\n      swap1\n      pop\n    tag_279:\n      pop\n        /* \"contracts/contractsCopy/khaledulsaleh_staking.sol\":11260:11310  uint[] memory referralLevels_reward=new uint[](20) */\n      swap1\n      pop\n        /* \"contracts/contractsCopy/khaledulsaleh_staking.sol\":11328:11334  uint i */\n      0x00\n        /* \"contracts/contractsCopy/khaledulsaleh_staking.sol\":11324:11672  for(uint i=0;i<20;i++)... */\n    tag_280:\n        /* \"contracts/contractsCopy/khaledulsaleh_staking.sol\":11339:11341  20 */\n      0x14\n        /* \"contracts/contractsCopy/khaledulsaleh_staking.sol\":11337:11338  i */\n      dup2\n        /* \"contracts/contractsCopy/khaledulsaleh_staking.sol\":11337:11341  i<20 */\n      lt\n        /* \"contracts/contractsCopy/khaledulsaleh_staking.sol\":11324:11672  for(uint i=0;i<20;i++)... */\n      iszero\n      tag_281\n      jumpi\n        /* \"contracts/contractsCopy/khaledulsaleh_staking.sol\":11429:11430  0 */\n      0x00\n        /* \"contracts/contractsCopy/khaledulsaleh_staking.sol\":11380:11392  DUSDinvestor */\n      0x0d\n        /* \"contracts/contractsCopy/khaledulsaleh_staking.sol\":11380:11404  DUSDinvestor[msg.sender] */\n      0x00\n        /* \"contracts/contractsCopy/khaledulsaleh_staking.sol\":11393:11403  msg.sender */\n      caller\n        /* \"contracts/contractsCopy/khaledulsaleh_staking.sol\":11380:11404  DUSDinvestor[msg.sender] */\n      0xffffffffffffffffffffffffffffffffffffffff\n      and\n      0xffffffffffffffffffffffffffffffffffffffff\n      and\n      dup2\n      mstore\n      0x20\n      add\n      swap1\n      dup2\n      mstore\n      0x20\n      add\n      0x00\n      keccak256\n        /* \"contracts/contractsCopy/khaledulsaleh_staking.sol\":11380:11418  DUSDinvestor[msg.sender].referralLevel */\n      0x03\n      add\n        /* \"contracts/contractsCopy/khaledulsaleh_staking.sol\":11380:11421  DUSDinvestor[msg.sender].referralLevel[i] */\n      0x00\n        /* \"contracts/contractsCopy/khaledulsaleh_staking.sol\":11419:11420  i */\n      dup4\n        /* \"contracts/contractsCopy/khaledulsaleh_staking.sol\":11380:11421  DUSDinvestor[msg.sender].referralLevel[i] */\n      dup2\n      mstore\n      0x20\n      add\n      swap1\n      dup2\n      mstore\n      0x20\n      add\n      0x00\n      keccak256\n        /* \"contracts/contractsCopy/khaledulsaleh_staking.sol\":11380:11428  DUSDinvestor[msg.sender].referralLevel[i].reward */\n      0x00\n      add\n      sload\n        /* \"contracts/contractsCopy/khaledulsaleh_staking.sol\":11380:11430  DUSDinvestor[msg.sender].referralLevel[i].reward>0 */\n      gt\n        /* \"contracts/contractsCopy/khaledulsaleh_staking.sol\":11377:11656  if(DUSDinvestor[msg.sender].referralLevel[i].reward>0)... */\n      iszero\n      tag_283\n      jumpi\n        /* \"contracts/contractsCopy/khaledulsaleh_staking.sol\":11497:11509  DUSDinvestor */\n      0x0d\n        /* \"contracts/contractsCopy/khaledulsaleh_staking.sol\":11497:11521  DUSDinvestor[msg.sender] */\n      0x00\n        /* \"contracts/contractsCopy/khaledulsaleh_staking.sol\":11510:11520  msg.sender */\n      caller\n        /* \"contracts/contractsCopy/khaledulsaleh_staking.sol\":11497:11521  DUSDinvestor[msg.sender] */\n      0xffffffffffffffffffffffffffffffffffffffff\n      and\n      0xffffffffffffffffffffffffffffffffffffffff\n      and\n      dup2\n      mstore\n      0x20\n      add\n      swap1\n      dup2\n      mstore\n      0x20\n      add\n      0x00\n      keccak256\n        /* \"contracts/contractsCopy/khaledulsaleh_staking.sol\":11497:11535  DUSDinvestor[msg.sender].referralLevel */\n      0x03\n      add\n        /* \"contracts/contractsCopy/khaledulsaleh_staking.sol\":11497:11538  DUSDinvestor[msg.sender].referralLevel[i] */\n      0x00\n        /* \"contracts/contractsCopy/khaledulsaleh_staking.sol\":11536:11537  i */\n      dup3\n        /* \"contracts/contractsCopy/khaledulsaleh_staking.sol\":11497:11538  DUSDinvestor[msg.sender].referralLevel[i] */\n      dup2\n      mstore\n      0x20\n      add\n      swap1\n      dup2\n      mstore\n      0x20\n      add\n      0x00\n      keccak256\n        /* \"contracts/contractsCopy/khaledulsaleh_staking.sol\":11497:11544  DUSDinvestor[msg.sender].referralLevel[i].count */\n      0x01\n      add\n      sload\n        /* \"contracts/contractsCopy/khaledulsaleh_staking.sol\":11470:11491  referralLevels_reward */\n      dup3\n        /* \"contracts/contractsCopy/khaledulsaleh_staking.sol\":11492:11493  i */\n      dup3\n        /* \"contracts/contractsCopy/khaledulsaleh_staking.sol\":11470:11494  referralLevels_reward[i] */\n      dup2\n      mload\n      dup2\n      lt\n      tag_284\n      jumpi\n      tag_285\n      tag_172\n      jump\t// in\n    tag_285:\n    tag_284:\n      0x20\n      mul\n      0x20\n      add\n      add\n        /* \"contracts/contractsCopy/khaledulsaleh_staking.sol\":11470:11544  referralLevels_reward[i] = DUSDinvestor[msg.sender].referralLevel[i].count */\n      dup2\n      dup2\n      mstore\n      pop\n      pop\n        /* \"contracts/contractsCopy/khaledulsaleh_staking.sol\":11377:11656  if(DUSDinvestor[msg.sender].referralLevel[i].reward>0)... */\n      jump(tag_286)\n    tag_283:\n        /* \"contracts/contractsCopy/khaledulsaleh_staking.sol\":11635:11636  0 */\n      0x00\n        /* \"contracts/contractsCopy/khaledulsaleh_staking.sol\":11608:11629  referralLevels_reward */\n      dup3\n        /* \"contracts/contractsCopy/khaledulsaleh_staking.sol\":11630:11631  i */\n      dup3\n        /* \"contracts/contractsCopy/khaledulsaleh_staking.sol\":11608:11632  referralLevels_reward[i] */\n      dup2\n      mload\n      dup2\n      lt\n      tag_287\n      jumpi\n      tag_288\n      tag_172\n      jump\t// in\n    tag_288:\n    tag_287:\n      0x20\n      mul\n      0x20\n      add\n      add\n        /* \"contracts/contractsCopy/khaledulsaleh_staking.sol\":11608:11636  referralLevels_reward[i] = 0 */\n      dup2\n      dup2\n      mstore\n      pop\n      pop\n        /* \"contracts/contractsCopy/khaledulsaleh_staking.sol\":11377:11656  if(DUSDinvestor[msg.sender].referralLevel[i].reward>0)... */\n    tag_286:\n        /* \"contracts/contractsCopy/khaledulsaleh_staking.sol\":11342:11345  i++ */\n      dup1\n      dup1\n      tag_289\n      swap1\n      tag_142\n      jump\t// in\n    tag_289:\n      swap2\n      pop\n      pop\n        /* \"contracts/contractsCopy/khaledulsaleh_staking.sol\":11324:11672  for(uint i=0;i<20;i++)... */\n      jump(tag_280)\n    tag_281:\n      pop\n        /* \"contracts/contractsCopy/khaledulsaleh_staking.sol\":11692:11713  referralLevels_reward */\n      dup1\n        /* \"contracts/contractsCopy/khaledulsaleh_staking.sol\":11685:11713  return referralLevels_reward */\n      swap2\n      pop\n      pop\n        /* \"contracts/contractsCopy/khaledulsaleh_staking.sol\":11166:11727  function referralLevel_count() public view returns( uint[] memory arr )... */\n      swap1\n      jump\t// out\n        /* \"contracts/contractsCopy/khaledulsaleh_staking.sol\":702:745  uint public rewardToken=5000000000000000000 */\n    tag_126:\n      sload(0x05)\n      dup2\n      jump\t// out\n        /* \"contracts/contractsCopy/khaledulsaleh_staking.sol\":836:872  uint public max_Stake_amount=5000000 */\n    tag_129:\n      sload(0x07)\n      dup2\n      jump\t// out\n        /* \"contracts/contractsCopy/khaledulsaleh_staking.sol\":4947:6185  function get_investor_Reward(address investor) view internal returns(uint){ //this function is get the total reward balance of the investor... */\n    tag_211:\n        /* \"contracts/contractsCopy/khaledulsaleh_staking.sol\":5016:5020  uint */\n      0x00\n        /* \"contracts/contractsCopy/khaledulsaleh_staking.sol\":5099:5115  uint totalReward */\n      dup1\n        /* \"contracts/contractsCopy/khaledulsaleh_staking.sol\":5129:5141  uint depTime */\n      0x00\n        /* \"contracts/contractsCopy/khaledulsaleh_staking.sol\":5155:5163  uint rew */\n      dup1\n        /* \"contracts/contractsCopy/khaledulsaleh_staking.sol\":5177:5186  uint temp */\n      0x00\n        /* \"contracts/contractsCopy/khaledulsaleh_staking.sol\":5189:5201  DUSDinvestor */\n      0x0d\n        /* \"contracts/contractsCopy/khaledulsaleh_staking.sol\":5189:5211  DUSDinvestor[investor] */\n      0x00\n        /* \"contracts/contractsCopy/khaledulsaleh_staking.sol\":5202:5210  investor */\n      dup8\n        /* \"contracts/contractsCopy/khaledulsaleh_staking.sol\":5189:5211  DUSDinvestor[investor] */\n      0xffffffffffffffffffffffffffffffffffffffff\n      and\n      0xffffffffffffffffffffffffffffffffffffffff\n      and\n      dup2\n      mstore\n      0x20\n      add\n      swap1\n      dup2\n      mstore\n      0x20\n      add\n      0x00\n      keccak256\n        /* \"contracts/contractsCopy/khaledulsaleh_staking.sol\":5189:5226  DUSDinvestor[investor].noOfInvestment */\n      0x05\n      add\n      sload\n        /* \"contracts/contractsCopy/khaledulsaleh_staking.sol\":5177:5226  uint temp = DUSDinvestor[investor].noOfInvestment */\n      swap1\n      pop\n        /* \"contracts/contractsCopy/khaledulsaleh_staking.sol\":5245:5251  uint i */\n      0x00\n        /* \"contracts/contractsCopy/khaledulsaleh_staking.sol\":5240:6070  for( uint i = 0;i < temp;i++)... */\n    tag_291:\n        /* \"contracts/contractsCopy/khaledulsaleh_staking.sol\":5260:5264  temp */\n      dup2\n        /* \"contracts/contractsCopy/khaledulsaleh_staking.sol\":5256:5257  i */\n      dup2\n        /* \"contracts/contractsCopy/khaledulsaleh_staking.sol\":5256:5264  i < temp */\n      lt\n        /* \"contracts/contractsCopy/khaledulsaleh_staking.sol\":5240:6070  for( uint i = 0;i < temp;i++)... */\n      iszero\n      tag_292\n      jumpi\n        /* \"contracts/contractsCopy/khaledulsaleh_staking.sol\":5307:5319  DUSDinvestor */\n      0x0d\n        /* \"contracts/contractsCopy/khaledulsaleh_staking.sol\":5307:5329  DUSDinvestor[investor] */\n      0x00\n        /* \"contracts/contractsCopy/khaledulsaleh_staking.sol\":5320:5328  investor */\n      dup9\n        /* \"contracts/contractsCopy/khaledulsaleh_staking.sol\":5307:5329  DUSDinvestor[investor] */\n      0xffffffffffffffffffffffffffffffffffffffff\n      and\n      0xffffffffffffffffffffffffffffffffffffffff\n      and\n      dup2\n      mstore\n      0x20\n      add\n      swap1\n      dup2\n      mstore\n      0x20\n      add\n      0x00\n      keccak256\n        /* \"contracts/contractsCopy/khaledulsaleh_staking.sol\":5307:5340  DUSDinvestor[investor].investment */\n      0x00\n      add\n        /* \"contracts/contractsCopy/khaledulsaleh_staking.sol\":5307:5343  DUSDinvestor[investor].investment[i] */\n      0x00\n        /* \"contracts/contractsCopy/khaledulsaleh_staking.sol\":5341:5342  i */\n      dup3\n        /* \"contracts/contractsCopy/khaledulsaleh_staking.sol\":5307:5343  DUSDinvestor[investor].investment[i] */\n      dup2\n      mstore\n      0x20\n      add\n      swap1\n      dup2\n      mstore\n      0x20\n      add\n      0x00\n      keccak256\n        /* \"contracts/contractsCopy/khaledulsaleh_staking.sol\":5307:5351  DUSDinvestor[investor].investment[i].unstake */\n      0x05\n      add\n      0x00\n      swap1\n      sload\n      swap1\n      0x0100\n      exp\n      swap1\n      div\n      0xff\n      and\n        /* \"contracts/contractsCopy/khaledulsaleh_staking.sol\":5303:5655  if(!DUSDinvestor[investor].investment[i].unstake)... */\n      tag_294\n      jumpi\n        /* \"contracts/contractsCopy/khaledulsaleh_staking.sol\":5418:5430  DUSDinvestor */\n      0x0d\n        /* \"contracts/contractsCopy/khaledulsaleh_staking.sol\":5418:5440  DUSDinvestor[investor] */\n      0x00\n        /* \"contracts/contractsCopy/khaledulsaleh_staking.sol\":5431:5439  investor */\n      dup9\n        /* \"contracts/contractsCopy/khaledulsaleh_staking.sol\":5418:5440  DUSDinvestor[investor] */\n      0xffffffffffffffffffffffffffffffffffffffff\n      and\n      0xffffffffffffffffffffffffffffffffffffffff\n      and\n      dup2\n      mstore\n      0x20\n      add\n      swap1\n      dup2\n      mstore\n      0x20\n      add\n      0x00\n      keccak256\n        /* \"contracts/contractsCopy/khaledulsaleh_staking.sol\":5418:5451  DUSDinvestor[investor].investment */\n      0x00\n      add\n        /* \"contracts/contractsCopy/khaledulsaleh_staking.sol\":5418:5454  DUSDinvestor[investor].investment[i] */\n      0x00\n        /* \"contracts/contractsCopy/khaledulsaleh_staking.sol\":5452:5453  i */\n      dup3\n        /* \"contracts/contractsCopy/khaledulsaleh_staking.sol\":5418:5454  DUSDinvestor[investor].investment[i] */\n      dup2\n      mstore\n      0x20\n      add\n      swap1\n      dup2\n      mstore\n      0x20\n      add\n      0x00\n      keccak256\n        /* \"contracts/contractsCopy/khaledulsaleh_staking.sol\":5418:5466  DUSDinvestor[investor].investment[i].DepositTime */\n      0x02\n      add\n      sload\n        /* \"contracts/contractsCopy/khaledulsaleh_staking.sol\":5400:5415  block.timestamp */\n      timestamp\n        /* \"contracts/contractsCopy/khaledulsaleh_staking.sol\":5400:5466  block.timestamp - DUSDinvestor[investor].investment[i].DepositTime */\n      tag_295\n      swap2\n      swap1\n      tag_181\n      jump\t// in\n    tag_295:\n        /* \"contracts/contractsCopy/khaledulsaleh_staking.sol\":5391:5466  depTime =block.timestamp - DUSDinvestor[investor].investment[i].DepositTime */\n      swap4\n      pop\n        /* \"contracts/contractsCopy/khaledulsaleh_staking.sol\":5303:5655  if(!DUSDinvestor[investor].investment[i].unstake)... */\n      jump(tag_296)\n    tag_294:\n        /* \"contracts/contractsCopy/khaledulsaleh_staking.sol\":5588:5600  DUSDinvestor */\n      0x0d\n        /* \"contracts/contractsCopy/khaledulsaleh_staking.sol\":5588:5610  DUSDinvestor[investor] */\n      0x00\n        /* \"contracts/contractsCopy/khaledulsaleh_staking.sol\":5601:5609  investor */\n      dup9\n        /* \"contracts/contractsCopy/khaledulsaleh_staking.sol\":5588:5610  DUSDinvestor[investor] */\n      0xffffffffffffffffffffffffffffffffffffffff\n      and\n      0xffffffffffffffffffffffffffffffffffffffff\n      and\n      dup2\n      mstore\n      0x20\n      add\n      swap1\n      dup2\n      mstore\n      0x20\n      add\n      0x00\n      keccak256\n        /* \"contracts/contractsCopy/khaledulsaleh_staking.sol\":5588:5621  DUSDinvestor[investor].investment */\n      0x00\n      add\n        /* \"contracts/contractsCopy/khaledulsaleh_staking.sol\":5588:5624  DUSDinvestor[investor].investment[i] */\n      0x00\n        /* \"contracts/contractsCopy/khaledulsaleh_staking.sol\":5622:5623  i */\n      dup3\n        /* \"contracts/contractsCopy/khaledulsaleh_staking.sol\":5588:5624  DUSDinvestor[investor].investment[i] */\n      dup2\n      mstore\n      0x20\n      add\n      swap1\n      dup2\n      mstore\n      0x20\n      add\n      0x00\n      keccak256\n        /* \"contracts/contractsCopy/khaledulsaleh_staking.sol\":5588:5636  DUSDinvestor[investor].investment[i].DepositTime */\n      0x02\n      add\n      sload\n        /* \"contracts/contractsCopy/khaledulsaleh_staking.sol\":5537:5549  DUSDinvestor */\n      0x0d\n        /* \"contracts/contractsCopy/khaledulsaleh_staking.sol\":5537:5559  DUSDinvestor[investor] */\n      0x00\n        /* \"contracts/contractsCopy/khaledulsaleh_staking.sol\":5550:5558  investor */\n      dup10\n        /* \"contracts/contractsCopy/khaledulsaleh_staking.sol\":5537:5559  DUSDinvestor[investor] */\n      0xffffffffffffffffffffffffffffffffffffffff\n      and\n      0xffffffffffffffffffffffffffffffffffffffff\n      and\n      dup2\n      mstore\n      0x20\n      add\n      swap1\n      dup2\n      mstore\n      0x20\n      add\n      0x00\n      keccak256\n        /* \"contracts/contractsCopy/khaledulsaleh_staking.sol\":5537:5570  DUSDinvestor[investor].investment */\n      0x00\n      add\n        /* \"contracts/contractsCopy/khaledulsaleh_staking.sol\":5537:5573  DUSDinvestor[investor].investment[i] */\n      0x00\n        /* \"contracts/contractsCopy/khaledulsaleh_staking.sol\":5571:5572  i */\n      dup4\n        /* \"contracts/contractsCopy/khaledulsaleh_staking.sol\":5537:5573  DUSDinvestor[investor].investment[i] */\n      dup2\n      mstore\n      0x20\n      add\n      swap1\n      dup2\n      mstore\n      0x20\n      add\n      0x00\n      keccak256\n        /* \"contracts/contractsCopy/khaledulsaleh_staking.sol\":5537:5585  DUSDinvestor[investor].investment[i].unstakeTime */\n      0x04\n      add\n      sload\n        /* \"contracts/contractsCopy/khaledulsaleh_staking.sol\":5537:5636  DUSDinvestor[investor].investment[i].unstakeTime - DUSDinvestor[investor].investment[i].DepositTime */\n      tag_297\n      swap2\n      swap1\n      tag_181\n      jump\t// in\n    tag_297:\n        /* \"contracts/contractsCopy/khaledulsaleh_staking.sol\":5528:5636  depTime =DUSDinvestor[investor].investment[i].unstakeTime - DUSDinvestor[investor].investment[i].DepositTime */\n      swap4\n      pop\n        /* \"contracts/contractsCopy/khaledulsaleh_staking.sol\":5303:5655  if(!DUSDinvestor[investor].investment[i].unstake)... */\n    tag_296:\n        /* \"contracts/contractsCopy/khaledulsaleh_staking.sol\":5688:5690  60 */\n      0x3c\n        /* \"contracts/contractsCopy/khaledulsaleh_staking.sol\":5680:5687  depTime */\n      dup5\n        /* \"contracts/contractsCopy/khaledulsaleh_staking.sol\":5680:5690  depTime/60 */\n      tag_298\n      swap2\n      swap1\n      tag_185\n      jump\t// in\n    tag_298:\n        /* \"contracts/contractsCopy/khaledulsaleh_staking.sol\":5672:5690  depTime=depTime/60 */\n      swap4\n      pop\n        /* \"contracts/contractsCopy/khaledulsaleh_staking.sol\":5727:5728  0 */\n      0x00\n        /* \"contracts/contractsCopy/khaledulsaleh_staking.sol\":5719:5726  depTime */\n      dup5\n        /* \"contracts/contractsCopy/khaledulsaleh_staking.sol\":5719:5728  depTime>0 */\n      gt\n        /* \"contracts/contractsCopy/khaledulsaleh_staking.sol\":5716:6056  if(depTime>0)... */\n      iszero\n      tag_299\n      jumpi\n        /* \"contracts/contractsCopy/khaledulsaleh_staking.sol\":5982:5985  100 */\n      0x64\n        /* \"contracts/contractsCopy/khaledulsaleh_staking.sol\":5965:5978  totalbusiness */\n      sload(0x0a)\n        /* \"contracts/contractsCopy/khaledulsaleh_staking.sol\":5909:5921  DUSDinvestor */\n      0x0d\n        /* \"contracts/contractsCopy/khaledulsaleh_staking.sol\":5909:5933  DUSDinvestor[msg.sender] */\n      0x00\n        /* \"contracts/contractsCopy/khaledulsaleh_staking.sol\":5922:5932  msg.sender */\n      caller\n        /* \"contracts/contractsCopy/khaledulsaleh_staking.sol\":5909:5933  DUSDinvestor[msg.sender] */\n      0xffffffffffffffffffffffffffffffffffffffff\n      and\n      0xffffffffffffffffffffffffffffffffffffffff\n      and\n      dup2\n      mstore\n      0x20\n      add\n      swap1\n      dup2\n      mstore\n      0x20\n      add\n      0x00\n      keccak256\n        /* \"contracts/contractsCopy/khaledulsaleh_staking.sol\":5909:5944  DUSDinvestor[msg.sender].investment */\n      0x00\n      add\n        /* \"contracts/contractsCopy/khaledulsaleh_staking.sol\":5909:5947  DUSDinvestor[msg.sender].investment[i] */\n      0x00\n        /* \"contracts/contractsCopy/khaledulsaleh_staking.sol\":5945:5946  i */\n      dup5\n        /* \"contracts/contractsCopy/khaledulsaleh_staking.sol\":5909:5947  DUSDinvestor[msg.sender].investment[i] */\n      dup2\n      mstore\n      0x20\n      add\n      swap1\n      dup2\n      mstore\n      0x20\n      add\n      0x00\n      keccak256\n        /* \"contracts/contractsCopy/khaledulsaleh_staking.sol\":5909:5962  DUSDinvestor[msg.sender].investment[i].investedAmount */\n      0x00\n      add\n      sload\n        /* \"contracts/contractsCopy/khaledulsaleh_staking.sol\":5909:5978  DUSDinvestor[msg.sender].investment[i].investedAmount / totalbusiness */\n      tag_300\n      swap2\n      swap1\n      tag_185\n      jump\t// in\n    tag_300:\n        /* \"contracts/contractsCopy/khaledulsaleh_staking.sol\":5908:5985  (DUSDinvestor[msg.sender].investment[i].investedAmount / totalbusiness )* 100 */\n      tag_301\n      swap2\n      swap1\n      tag_189\n      jump\t// in\n    tag_301:\n        /* \"contracts/contractsCopy/khaledulsaleh_staking.sol\":5901:5904  100 */\n      0x64\n        /* \"contracts/contractsCopy/khaledulsaleh_staking.sol\":5886:5900  reward_per_day */\n      sload(0x03)\n        /* \"contracts/contractsCopy/khaledulsaleh_staking.sol\":5886:5904  reward_per_day/100 */\n      tag_302\n      swap2\n      swap1\n      tag_185\n      jump\t// in\n    tag_302:\n        /* \"contracts/contractsCopy/khaledulsaleh_staking.sol\":5886:5986  reward_per_day/100 * ((DUSDinvestor[msg.sender].investment[i].investedAmount / totalbusiness )* 100) */\n      tag_303\n      swap2\n      swap1\n      tag_189\n      jump\t// in\n    tag_303:\n        /* \"contracts/contractsCopy/khaledulsaleh_staking.sol\":5879:5986  rew  = reward_per_day/100 * ((DUSDinvestor[msg.sender].investment[i].investedAmount / totalbusiness )* 100) */\n      swap3\n      pop\n        /* \"contracts/contractsCopy/khaledulsaleh_staking.sol\":6034:6037  rew */\n      dup3\n        /* \"contracts/contractsCopy/khaledulsaleh_staking.sol\":6024:6031  depTime */\n      dup5\n        /* \"contracts/contractsCopy/khaledulsaleh_staking.sol\":6024:6037  depTime * rew */\n      tag_304\n      swap2\n      swap1\n      tag_189\n      jump\t// in\n    tag_304:\n        /* \"contracts/contractsCopy/khaledulsaleh_staking.sol\":6009:6037  totalReward += depTime * rew */\n      dup6\n      tag_305\n      swap2\n      swap1\n      tag_145\n      jump\t// in\n    tag_305:\n      swap5\n      pop\n        /* \"contracts/contractsCopy/khaledulsaleh_staking.sol\":5716:6056  if(depTime>0)... */\n    tag_299:\n        /* \"contracts/contractsCopy/khaledulsaleh_staking.sol\":5265:5268  i++ */\n      dup1\n      dup1\n      tag_306\n      swap1\n      tag_142\n      jump\t// in\n    tag_306:\n      swap2\n      pop\n      pop\n        /* \"contracts/contractsCopy/khaledulsaleh_staking.sol\":5240:6070  for( uint i = 0;i < temp;i++)... */\n      jump(tag_291)\n    tag_292:\n      pop\n        /* \"contracts/contractsCopy/khaledulsaleh_staking.sol\":6098:6110  DUSDinvestor */\n      0x0d\n        /* \"contracts/contractsCopy/khaledulsaleh_staking.sol\":6098:6120  DUSDinvestor[investor] */\n      0x00\n        /* \"contracts/contractsCopy/khaledulsaleh_staking.sol\":6111:6119  investor */\n      dup8\n        /* \"contracts/contractsCopy/khaledulsaleh_staking.sol\":6098:6120  DUSDinvestor[investor] */\n      0xffffffffffffffffffffffffffffffffffffffff\n      and\n      0xffffffffffffffffffffffffffffffffffffffff\n      and\n      dup2\n      mstore\n      0x20\n      add\n      swap1\n      dup2\n      mstore\n      0x20\n      add\n      0x00\n      keccak256\n        /* \"contracts/contractsCopy/khaledulsaleh_staking.sol\":6098:6141  DUSDinvestor[investor].totalWithdraw_reward */\n      0x07\n      add\n      sload\n        /* \"contracts/contractsCopy/khaledulsaleh_staking.sol\":6083:6141  totalReward -= DUSDinvestor[investor].totalWithdraw_reward */\n      dup5\n      tag_307\n      swap2\n      swap1\n      tag_181\n      jump\t// in\n    tag_307:\n      swap4\n      pop\n        /* \"contracts/contractsCopy/khaledulsaleh_staking.sol\":6163:6174  totalReward */\n      dup4\n        /* \"contracts/contractsCopy/khaledulsaleh_staking.sol\":6156:6174  return totalReward */\n      swap5\n      pop\n      pop\n      pop\n      pop\n      pop\n        /* \"contracts/contractsCopy/khaledulsaleh_staking.sol\":4947:6185  function get_investor_Reward(address investor) view internal returns(uint){ //this function is get the total reward balance of the investor... */\n      swap2\n      swap1\n      pop\n      jump\t// out\n        /* \"contracts/contractsCopy/khaledulsaleh_staking.sol\":9327:9541  function DUSDTotalReferrals_inside(address investor) internal view returns(uint){ // this function is to get the total number of referrals ... */\n    tag_219:\n        /* \"contracts/contractsCopy/khaledulsaleh_staking.sol\":9402:9406  uint */\n      0x00\n        /* \"contracts/contractsCopy/khaledulsaleh_staking.sol\":9487:9499  DUSDinvestor */\n      0x0d\n        /* \"contracts/contractsCopy/khaledulsaleh_staking.sol\":9487:9509  DUSDinvestor[investor] */\n      0x00\n        /* \"contracts/contractsCopy/khaledulsaleh_staking.sol\":9500:9508  investor */\n      dup4\n        /* \"contracts/contractsCopy/khaledulsaleh_staking.sol\":9487:9509  DUSDinvestor[investor] */\n      0xffffffffffffffffffffffffffffffffffffffff\n      and\n      0xffffffffffffffffffffffffffffffffffffffff\n      and\n      dup2\n      mstore\n      0x20\n      add\n      swap1\n      dup2\n      mstore\n      0x20\n      add\n      0x00\n      keccak256\n        /* \"contracts/contractsCopy/khaledulsaleh_staking.sol\":9487:9522  DUSDinvestor[investor].hisReferrals */\n      0x01\n      add\n        /* \"contracts/contractsCopy/khaledulsaleh_staking.sol\":9486:9530  (DUSDinvestor[investor].hisReferrals).length */\n      dup1\n      sload\n      swap1\n      pop\n        /* \"contracts/contractsCopy/khaledulsaleh_staking.sol\":9479:9530  return (DUSDinvestor[investor].hisReferrals).length */\n      swap1\n      pop\n        /* \"contracts/contractsCopy/khaledulsaleh_staking.sol\":9327:9541  function DUSDTotalReferrals_inside(address investor) internal view returns(uint){ // this function is to get the total number of referrals ... */\n      swap2\n      swap1\n      pop\n      jump\t// out\n    tag_165:\n      mload(0x40)\n      dup1\n      0xc0\n      add\n      0x40\n      mstore\n      dup1\n      0x00\n      dup2\n      mstore\n      0x20\n      add\n      0x00\n      dup2\n      mstore\n      0x20\n      add\n      0x00\n      dup2\n      mstore\n      0x20\n      add\n      0x00\n      dup2\n      mstore\n      0x20\n      add\n      0x00\n      dup2\n      mstore\n      0x20\n      add\n      iszero(iszero(0x00))\n      dup2\n      mstore\n      pop\n      swap1\n      jump\t// out\n    tag_202:\n      mload(0x40)\n      dup1\n      0xc0\n      add\n      0x40\n      mstore\n      dup1\n      and(0xffffffffffffffffffffffffffffffffffffffff, 0x00)\n      dup2\n      mstore\n      0x20\n      add\n      0x00\n      dup2\n      mstore\n      0x20\n      add\n      0x00\n      dup2\n      mstore\n      0x20\n      add\n      0x00\n      dup2\n      mstore\n      0x20\n      add\n      0x00\n      dup2\n      mstore\n      0x20\n      add\n      0x00\n      dup2\n      mstore\n      pop\n      swap1\n      jump\t// out\n        /* \"#utility.yul\":7:146   */\n    tag_310:\n        /* \"#utility.yul\":53:58   */\n      0x00\n        /* \"#utility.yul\":91:97   */\n      dup2\n        /* \"#utility.yul\":78:98   */\n      calldataload\n        /* \"#utility.yul\":69:98   */\n      swap1\n      pop\n        /* \"#utility.yul\":107:140   */\n      tag_312\n        /* \"#utility.yul\":134:139   */\n      dup2\n        /* \"#utility.yul\":107:140   */\n      tag_313\n      jump\t// in\n    tag_312:\n        /* \"#utility.yul\":7:146   */\n      swap3\n      swap2\n      pop\n      pop\n      jump\t// out\n        /* \"#utility.yul\":152:289   */\n    tag_314:\n        /* \"#utility.yul\":206:211   */\n      0x00\n        /* \"#utility.yul\":237:243   */\n      dup2\n        /* \"#utility.yul\":231:244   */\n      mload\n        /* \"#utility.yul\":222:244   */\n      swap1\n      pop\n        /* \"#utility.yul\":253:283   */\n      tag_316\n        /* \"#utility.yul\":277:282   */\n      dup2\n        /* \"#utility.yul\":253:283   */\n      tag_317\n      jump\t// in\n    tag_316:\n        /* \"#utility.yul\":152:289   */\n      swap3\n      swap2\n      pop\n      pop\n      jump\t// out\n        /* \"#utility.yul\":295:434   */\n    tag_318:\n        /* \"#utility.yul\":341:346   */\n      0x00\n        /* \"#utility.yul\":379:385   */\n      dup2\n        /* \"#utility.yul\":366:386   */\n      calldataload\n        /* \"#utility.yul\":357:386   */\n      swap1\n      pop\n        /* \"#utility.yul\":395:428   */\n      tag_320\n        /* \"#utility.yul\":422:427   */\n      dup2\n        /* \"#utility.yul\":395:428   */\n      tag_321\n      jump\t// in\n    tag_320:\n        /* \"#utility.yul\":295:434   */\n      swap3\n      swap2\n      pop\n      pop\n      jump\t// out\n        /* \"#utility.yul\":440:769   */\n    tag_112:\n        /* \"#utility.yul\":499:505   */\n      0x00\n        /* \"#utility.yul\":548:550   */\n      0x20\n        /* \"#utility.yul\":536:545   */\n      dup3\n        /* \"#utility.yul\":527:534   */\n      dup5\n        /* \"#utility.yul\":523:546   */\n      sub\n        /* \"#utility.yul\":519:551   */\n      slt\n        /* \"#utility.yul\":516:635   */\n      iszero\n      tag_323\n      jumpi\n        /* \"#utility.yul\":554:633   */\n      tag_324\n      tag_325\n      jump\t// in\n    tag_324:\n        /* \"#utility.yul\":516:635   */\n    tag_323:\n        /* \"#utility.yul\":674:675   */\n      0x00\n        /* \"#utility.yul\":699:752   */\n      tag_326\n        /* \"#utility.yul\":744:751   */\n      dup5\n        /* \"#utility.yul\":735:741   */\n      dup3\n        /* \"#utility.yul\":724:733   */\n      dup6\n        /* \"#utility.yul\":720:742   */\n      add\n        /* \"#utility.yul\":699:752   */\n      tag_310\n      jump\t// in\n    tag_326:\n        /* \"#utility.yul\":689:752   */\n      swap2\n      pop\n        /* \"#utility.yul\":645:762   */\n      pop\n        /* \"#utility.yul\":440:769   */\n      swap3\n      swap2\n      pop\n      pop\n      jump\t// out\n        /* \"#utility.yul\":775:1120   */\n    tag_240:\n        /* \"#utility.yul\":842:848   */\n      0x00\n        /* \"#utility.yul\":891:893   */\n      0x20\n        /* \"#utility.yul\":879:888   */\n      dup3\n        /* \"#utility.yul\":870:877   */\n      dup5\n        /* \"#utility.yul\":866:889   */\n      sub\n        /* \"#utility.yul\":862:894   */\n      slt\n        /* \"#utility.yul\":859:978   */\n      iszero\n      tag_328\n      jumpi\n        /* \"#utility.yul\":897:976   */\n      tag_329\n      tag_325\n      jump\t// in\n    tag_329:\n        /* \"#utility.yul\":859:978   */\n    tag_328:\n        /* \"#utility.yul\":1017:1018   */\n      0x00\n        /* \"#utility.yul\":1042:1103   */\n      tag_330\n        /* \"#utility.yul\":1095:1102   */\n      dup5\n        /* \"#utility.yul\":1086:1092   */\n      dup3\n        /* \"#utility.yul\":1075:1084   */\n      dup6\n        /* \"#utility.yul\":1071:1093   */\n      add\n        /* \"#utility.yul\":1042:1103   */\n      tag_314\n      jump\t// in\n    tag_330:\n        /* \"#utility.yul\":1032:1103   */\n      swap2\n      pop\n        /* \"#utility.yul\":988:1113   */\n      pop\n        /* \"#utility.yul\":775:1120   */\n      swap3\n      swap2\n      pop\n      pop\n      jump\t// out\n        /* \"#utility.yul\":1126:1455   */\n    tag_49:\n        /* \"#utility.yul\":1185:1191   */\n      0x00\n        /* \"#utility.yul\":1234:1236   */\n      0x20\n        /* \"#utility.yul\":1222:1231   */\n      dup3\n        /* \"#utility.yul\":1213:1220   */\n      dup5\n        /* \"#utility.yul\":1209:1232   */\n      sub\n        /* \"#utility.yul\":1205:1237   */\n      slt\n        /* \"#utility.yul\":1202:1321   */\n      iszero\n      tag_332\n      jumpi\n        /* \"#utility.yul\":1240:1319   */\n      tag_333\n      tag_325\n      jump\t// in\n    tag_333:\n        /* \"#utility.yul\":1202:1321   */\n    tag_332:\n        /* \"#utility.yul\":1360:1361   */\n      0x00\n        /* \"#utility.yul\":1385:1438   */\n      tag_334\n        /* \"#utility.yul\":1430:1437   */\n      dup5\n        /* \"#utility.yul\":1421:1427   */\n      dup3\n        /* \"#utility.yul\":1410:1419   */\n      dup6\n        /* \"#utility.yul\":1406:1428   */\n      add\n        /* \"#utility.yul\":1385:1438   */\n      tag_318\n      jump\t// in\n    tag_334:\n        /* \"#utility.yul\":1375:1438   */\n      swap2\n      pop\n        /* \"#utility.yul\":1331:1448   */\n      pop\n        /* \"#utility.yul\":1126:1455   */\n      swap3\n      swap2\n      pop\n      pop\n      jump\t// out\n        /* \"#utility.yul\":1461:2226   */\n    tag_72:\n        /* \"#utility.yul\":1547:1553   */\n      0x00\n        /* \"#utility.yul\":1555:1561   */\n      dup1\n        /* \"#utility.yul\":1563:1569   */\n      0x00\n        /* \"#utility.yul\":1571:1577   */\n      dup1\n        /* \"#utility.yul\":1620:1623   */\n      0x80\n        /* \"#utility.yul\":1608:1617   */\n      dup6\n        /* \"#utility.yul\":1599:1606   */\n      dup8\n        /* \"#utility.yul\":1595:1618   */\n      sub\n        /* \"#utility.yul\":1591:1624   */\n      slt\n        /* \"#utility.yul\":1588:1708   */\n      iszero\n      tag_336\n      jumpi\n        /* \"#utility.yul\":1627:1706   */\n      tag_337\n      tag_325\n      jump\t// in\n    tag_337:\n        /* \"#utility.yul\":1588:1708   */\n    tag_336:\n        /* \"#utility.yul\":1747:1748   */\n      0x00\n        /* \"#utility.yul\":1772:1825   */\n      tag_338\n        /* \"#utility.yul\":1817:1824   */\n      dup8\n        /* \"#utility.yul\":1808:1814   */\n      dup3\n        /* \"#utility.yul\":1797:1806   */\n      dup9\n        /* \"#utility.yul\":1793:1815   */\n      add\n        /* \"#utility.yul\":1772:1825   */\n      tag_318\n      jump\t// in\n    tag_338:\n        /* \"#utility.yul\":1762:1825   */\n      swap5\n      pop\n        /* \"#utility.yul\":1718:1835   */\n      pop\n        /* \"#utility.yul\":1874:1876   */\n      0x20\n        /* \"#utility.yul\":1900:1953   */\n      tag_339\n        /* \"#utility.yul\":1945:1952   */\n      dup8\n        /* \"#utility.yul\":1936:1942   */\n      dup3\n        /* \"#utility.yul\":1925:1934   */\n      dup9\n        /* \"#utility.yul\":1921:1943   */\n      add\n        /* \"#utility.yul\":1900:1953   */\n      tag_318\n      jump\t// in\n    tag_339:\n        /* \"#utility.yul\":1890:1953   */\n      swap4\n      pop\n        /* \"#utility.yul\":1845:1963   */\n      pop\n        /* \"#utility.yul\":2002:2004   */\n      0x40\n        /* \"#utility.yul\":2028:2081   */\n      tag_340\n        /* \"#utility.yul\":2073:2080   */\n      dup8\n        /* \"#utility.yul\":2064:2070   */\n      dup3\n        /* \"#utility.yul\":2053:2062   */\n      dup9\n        /* \"#utility.yul\":2049:2071   */\n      add\n        /* \"#utility.yul\":2028:2081   */\n      tag_318\n      jump\t// in\n    tag_340:\n        /* \"#utility.yul\":2018:2081   */\n      swap3\n      pop\n        /* \"#utility.yul\":1973:2091   */\n      pop\n        /* \"#utility.yul\":2130:2132   */\n      0x60\n        /* \"#utility.yul\":2156:2209   */\n      tag_341\n        /* \"#utility.yul\":2201:2208   */\n      dup8\n        /* \"#utility.yul\":2192:2198   */\n      dup3\n        /* \"#utility.yul\":2181:2190   */\n      dup9\n        /* \"#utility.yul\":2177:2199   */\n      add\n        /* \"#utility.yul\":2156:2209   */\n      tag_318\n      jump\t// in\n    tag_341:\n        /* \"#utility.yul\":2146:2209   */\n      swap2\n      pop\n        /* \"#utility.yul\":2101:2219   */\n      pop\n        /* \"#utility.yul\":1461:2226   */\n      swap3\n      swap6\n      swap2\n      swap5\n      pop\n      swap3\n      pop\n      jump\t// out\n        /* \"#utility.yul\":2232:2411   */\n    tag_342:\n        /* \"#utility.yul\":2301:2311   */\n      0x00\n        /* \"#utility.yul\":2322:2368   */\n      tag_344\n        /* \"#utility.yul\":2364:2367   */\n      dup4\n        /* \"#utility.yul\":2356:2362   */\n      dup4\n        /* \"#utility.yul\":2322:2368   */\n      tag_345\n      jump\t// in\n    tag_344:\n        /* \"#utility.yul\":2400:2404   */\n      0x20\n        /* \"#utility.yul\":2395:2398   */\n      dup4\n        /* \"#utility.yul\":2391:2405   */\n      add\n        /* \"#utility.yul\":2377:2405   */\n      swap1\n      pop\n        /* \"#utility.yul\":2232:2411   */\n      swap3\n      swap2\n      pop\n      pop\n      jump\t// out\n        /* \"#utility.yul\":2417:2700   */\n    tag_346:\n        /* \"#utility.yul\":2538:2548   */\n      0x00\n        /* \"#utility.yul\":2559:2657   */\n      tag_348\n        /* \"#utility.yul\":2653:2656   */\n      dup4\n        /* \"#utility.yul\":2645:2651   */\n      dup4\n        /* \"#utility.yul\":2559:2657   */\n      tag_349\n      jump\t// in\n    tag_348:\n        /* \"#utility.yul\":2689:2693   */\n      0xc0\n        /* \"#utility.yul\":2684:2687   */\n      dup4\n        /* \"#utility.yul\":2680:2694   */\n      add\n        /* \"#utility.yul\":2666:2694   */\n      swap1\n      pop\n        /* \"#utility.yul\":2417:2700   */\n      swap3\n      swap2\n      pop\n      pop\n      jump\t// out\n        /* \"#utility.yul\":2706:3005   */\n    tag_350:\n        /* \"#utility.yul\":2835:2845   */\n      0x00\n        /* \"#utility.yul\":2856:2962   */\n      tag_352\n        /* \"#utility.yul\":2958:2961   */\n      dup4\n        /* \"#utility.yul\":2950:2956   */\n      dup4\n        /* \"#utility.yul\":2856:2962   */\n      tag_353\n      jump\t// in\n    tag_352:\n        /* \"#utility.yul\":2994:2998   */\n      0xc0\n        /* \"#utility.yul\":2989:2992   */\n      dup4\n        /* \"#utility.yul\":2985:2999   */\n      add\n        /* \"#utility.yul\":2971:2999   */\n      swap1\n      pop\n        /* \"#utility.yul\":2706:3005   */\n      swap3\n      swap2\n      pop\n      pop\n      jump\t// out\n        /* \"#utility.yul\":3011:3190   */\n    tag_354:\n        /* \"#utility.yul\":3080:3090   */\n      0x00\n        /* \"#utility.yul\":3101:3147   */\n      tag_356\n        /* \"#utility.yul\":3143:3146   */\n      dup4\n        /* \"#utility.yul\":3135:3141   */\n      dup4\n        /* \"#utility.yul\":3101:3147   */\n      tag_357\n      jump\t// in\n    tag_356:\n        /* \"#utility.yul\":3179:3183   */\n      0x20\n        /* \"#utility.yul\":3174:3177   */\n      dup4\n        /* \"#utility.yul\":3170:3184   */\n      add\n        /* \"#utility.yul\":3156:3184   */\n      swap1\n      pop\n        /* \"#utility.yul\":3011:3190   */\n      swap3\n      swap2\n      pop\n      pop\n      jump\t// out\n        /* \"#utility.yul\":3196:3304   */\n    tag_345:\n        /* \"#utility.yul\":3273:3297   */\n      tag_359\n        /* \"#utility.yul\":3291:3296   */\n      dup2\n        /* \"#utility.yul\":3273:3297   */\n      tag_360\n      jump\t// in\n    tag_359:\n        /* \"#utility.yul\":3268:3271   */\n      dup3\n        /* \"#utility.yul\":3261:3298   */\n      mstore\n        /* \"#utility.yul\":3196:3304   */\n      pop\n      pop\n      jump\t// out\n        /* \"#utility.yul\":3310:3428   */\n    tag_361:\n        /* \"#utility.yul\":3397:3421   */\n      tag_363\n        /* \"#utility.yul\":3415:3420   */\n      dup2\n        /* \"#utility.yul\":3397:3421   */\n      tag_360\n      jump\t// in\n    tag_363:\n        /* \"#utility.yul\":3392:3395   */\n      dup3\n        /* \"#utility.yul\":3385:3422   */\n      mstore\n        /* \"#utility.yul\":3310:3428   */\n      pop\n      pop\n      jump\t// out\n        /* \"#utility.yul\":3464:4196   */\n    tag_364:\n        /* \"#utility.yul\":3583:3586   */\n      0x00\n        /* \"#utility.yul\":3612:3666   */\n      tag_366\n        /* \"#utility.yul\":3660:3665   */\n      dup3\n        /* \"#utility.yul\":3612:3666   */\n      tag_367\n      jump\t// in\n    tag_366:\n        /* \"#utility.yul\":3682:3768   */\n      tag_368\n        /* \"#utility.yul\":3761:3767   */\n      dup2\n        /* \"#utility.yul\":3756:3759   */\n      dup6\n        /* \"#utility.yul\":3682:3768   */\n      tag_369\n      jump\t// in\n    tag_368:\n        /* \"#utility.yul\":3675:3768   */\n      swap4\n      pop\n        /* \"#utility.yul\":3792:3848   */\n      tag_370\n        /* \"#utility.yul\":3842:3847   */\n      dup4\n        /* \"#utility.yul\":3792:3848   */\n      tag_371\n      jump\t// in\n    tag_370:\n        /* \"#utility.yul\":3871:3878   */\n      dup1\n        /* \"#utility.yul\":3902:3903   */\n      0x00\n        /* \"#utility.yul\":3887:4171   */\n    tag_372:\n        /* \"#utility.yul\":3912:3918   */\n      dup4\n        /* \"#utility.yul\":3909:3910   */\n      dup2\n        /* \"#utility.yul\":3906:3919   */\n      lt\n        /* \"#utility.yul\":3887:4171   */\n      iszero\n      tag_374\n      jumpi\n        /* \"#utility.yul\":3988:3994   */\n      dup2\n        /* \"#utility.yul\":3982:3995   */\n      mload\n        /* \"#utility.yul\":4015:4078   */\n      tag_375\n        /* \"#utility.yul\":4074:4077   */\n      dup9\n        /* \"#utility.yul\":4059:4072   */\n      dup3\n        /* \"#utility.yul\":4015:4078   */\n      tag_342\n      jump\t// in\n    tag_375:\n        /* \"#utility.yul\":4008:4078   */\n      swap8\n      pop\n        /* \"#utility.yul\":4101:4161   */\n      tag_376\n        /* \"#utility.yul\":4154:4160   */\n      dup4\n        /* \"#utility.yul\":4101:4161   */\n      tag_377\n      jump\t// in\n    tag_376:\n        /* \"#utility.yul\":4091:4161   */\n      swap3\n      pop\n        /* \"#utility.yul\":3947:4171   */\n      pop\n        /* \"#utility.yul\":3934:3935   */\n      0x01\n        /* \"#utility.yul\":3931:3932   */\n      dup2\n        /* \"#utility.yul\":3927:3936   */\n      add\n        /* \"#utility.yul\":3922:3936   */\n      swap1\n      pop\n        /* \"#utility.yul\":3887:4171   */\n      jump(tag_372)\n    tag_374:\n        /* \"#utility.yul\":3891:3905   */\n      pop\n        /* \"#utility.yul\":4187:4190   */\n      dup6\n        /* \"#utility.yul\":4180:4190   */\n      swap4\n      pop\n        /* \"#utility.yul\":3588:4196   */\n      pop\n      pop\n      pop\n        /* \"#utility.yul\":3464:4196   */\n      swap3\n      swap2\n      pop\n      pop\n      jump\t// out\n        /* \"#utility.yul\":4266:5206   */\n    tag_378:\n        /* \"#utility.yul\":4437:4440   */\n      0x00\n        /* \"#utility.yul\":4466:4546   */\n      tag_380\n        /* \"#utility.yul\":4540:4545   */\n      dup3\n        /* \"#utility.yul\":4466:4546   */\n      tag_381\n      jump\t// in\n    tag_380:\n        /* \"#utility.yul\":4562:4674   */\n      tag_382\n        /* \"#utility.yul\":4667:4673   */\n      dup2\n        /* \"#utility.yul\":4662:4665   */\n      dup6\n        /* \"#utility.yul\":4562:4674   */\n      tag_383\n      jump\t// in\n    tag_382:\n        /* \"#utility.yul\":4555:4674   */\n      swap4\n      pop\n        /* \"#utility.yul\":4698:4780   */\n      tag_384\n        /* \"#utility.yul\":4774:4779   */\n      dup4\n        /* \"#utility.yul\":4698:4780   */\n      tag_385\n      jump\t// in\n    tag_384:\n        /* \"#utility.yul\":4803:4810   */\n      dup1\n        /* \"#utility.yul\":4834:4835   */\n      0x00\n        /* \"#utility.yul\":4819:5181   */\n    tag_386:\n        /* \"#utility.yul\":4844:4850   */\n      dup4\n        /* \"#utility.yul\":4841:4842   */\n      dup2\n        /* \"#utility.yul\":4838:4851   */\n      lt\n        /* \"#utility.yul\":4819:5181   */\n      iszero\n      tag_388\n      jumpi\n        /* \"#utility.yul\":4920:4926   */\n      dup2\n        /* \"#utility.yul\":4914:4927   */\n      mload\n        /* \"#utility.yul\":4947:5062   */\n      tag_389\n        /* \"#utility.yul\":5058:5061   */\n      dup9\n        /* \"#utility.yul\":5043:5056   */\n      dup3\n        /* \"#utility.yul\":4947:5062   */\n      tag_346\n      jump\t// in\n    tag_389:\n        /* \"#utility.yul\":4940:5062   */\n      swap8\n      pop\n        /* \"#utility.yul\":5085:5171   */\n      tag_390\n        /* \"#utility.yul\":5164:5170   */\n      dup4\n        /* \"#utility.yul\":5085:5171   */\n      tag_391\n      jump\t// in\n    tag_390:\n        /* \"#utility.yul\":5075:5171   */\n      swap3\n      pop\n        /* \"#utility.yul\":4879:5181   */\n      pop\n        /* \"#utility.yul\":4866:4867   */\n      0x01\n        /* \"#utility.yul\":4863:4864   */\n      dup2\n        /* \"#utility.yul\":4859:4868   */\n      add\n        /* \"#utility.yul\":4854:4868   */\n      swap1\n      pop\n        /* \"#utility.yul\":4819:5181   */\n      jump(tag_386)\n    tag_388:\n        /* \"#utility.yul\":4823:4837   */\n      pop\n        /* \"#utility.yul\":5197:5200   */\n      dup6\n        /* \"#utility.yul\":5190:5200   */\n      swap4\n      pop\n        /* \"#utility.yul\":4442:5206   */\n      pop\n      pop\n      pop\n        /* \"#utility.yul\":4266:5206   */\n      swap3\n      swap2\n      pop\n      pop\n      jump\t// out\n        /* \"#utility.yul\":5284:6256   */\n    tag_392:\n        /* \"#utility.yul\":5463:5466   */\n      0x00\n        /* \"#utility.yul\":5492:5576   */\n      tag_394\n        /* \"#utility.yul\":5570:5575   */\n      dup3\n        /* \"#utility.yul\":5492:5576   */\n      tag_395\n      jump\t// in\n    tag_394:\n        /* \"#utility.yul\":5592:5708   */\n      tag_396\n        /* \"#utility.yul\":5701:5707   */\n      dup2\n        /* \"#utility.yul\":5696:5699   */\n      dup6\n        /* \"#utility.yul\":5592:5708   */\n      tag_397\n      jump\t// in\n    tag_396:\n        /* \"#utility.yul\":5585:5708   */\n      swap4\n      pop\n        /* \"#utility.yul\":5732:5818   */\n      tag_398\n        /* \"#utility.yul\":5812:5817   */\n      dup4\n        /* \"#utility.yul\":5732:5818   */\n      tag_399\n      jump\t// in\n    tag_398:\n        /* \"#utility.yul\":5841:5848   */\n      dup1\n        /* \"#utility.yul\":5872:5873   */\n      0x00\n        /* \"#utility.yul\":5857:6231   */\n    tag_400:\n        /* \"#utility.yul\":5882:5888   */\n      dup4\n        /* \"#utility.yul\":5879:5880   */\n      dup2\n        /* \"#utility.yul\":5876:5889   */\n      lt\n        /* \"#utility.yul\":5857:6231   */\n      iszero\n      tag_402\n      jumpi\n        /* \"#utility.yul\":5958:5964   */\n      dup2\n        /* \"#utility.yul\":5952:5965   */\n      mload\n        /* \"#utility.yul\":5985:6108   */\n      tag_403\n        /* \"#utility.yul\":6104:6107   */\n      dup9\n        /* \"#utility.yul\":6089:6102   */\n      dup3\n        /* \"#utility.yul\":5985:6108   */\n      tag_350\n      jump\t// in\n    tag_403:\n        /* \"#utility.yul\":5978:6108   */\n      swap8\n      pop\n        /* \"#utility.yul\":6131:6221   */\n      tag_404\n        /* \"#utility.yul\":6214:6220   */\n      dup4\n        /* \"#utility.yul\":6131:6221   */\n      tag_405\n      jump\t// in\n    tag_404:\n        /* \"#utility.yul\":6121:6221   */\n      swap3\n      pop\n        /* \"#utility.yul\":5917:6231   */\n      pop\n        /* \"#utility.yul\":5904:5905   */\n      0x01\n        /* \"#utility.yul\":5901:5902   */\n      dup2\n        /* \"#utility.yul\":5897:5906   */\n      add\n        /* \"#utility.yul\":5892:5906   */\n      swap1\n      pop\n        /* \"#utility.yul\":5857:6231   */\n      jump(tag_400)\n    tag_402:\n        /* \"#utility.yul\":5861:5875   */\n      pop\n        /* \"#utility.yul\":6247:6250   */\n      dup6\n        /* \"#utility.yul\":6240:6250   */\n      swap4\n      pop\n        /* \"#utility.yul\":5468:6256   */\n      pop\n      pop\n      pop\n        /* \"#utility.yul\":5284:6256   */\n      swap3\n      swap2\n      pop\n      pop\n      jump\t// out\n        /* \"#utility.yul\":6292:7024   */\n    tag_406:\n        /* \"#utility.yul\":6411:6414   */\n      0x00\n        /* \"#utility.yul\":6440:6494   */\n      tag_408\n        /* \"#utility.yul\":6488:6493   */\n      dup3\n        /* \"#utility.yul\":6440:6494   */\n      tag_409\n      jump\t// in\n    tag_408:\n        /* \"#utility.yul\":6510:6596   */\n      tag_410\n        /* \"#utility.yul\":6589:6595   */\n      dup2\n        /* \"#utility.yul\":6584:6587   */\n      dup6\n        /* \"#utility.yul\":6510:6596   */\n      tag_411\n      jump\t// in\n    tag_410:\n        /* \"#utility.yul\":6503:6596   */\n      swap4\n      pop\n        /* \"#utility.yul\":6620:6676   */\n      tag_412\n        /* \"#utility.yul\":6670:6675   */\n      dup4\n        /* \"#utility.yul\":6620:6676   */\n      tag_413\n      jump\t// in\n    tag_412:\n        /* \"#utility.yul\":6699:6706   */\n      dup1\n        /* \"#utility.yul\":6730:6731   */\n      0x00\n        /* \"#utility.yul\":6715:6999   */\n    tag_414:\n        /* \"#utility.yul\":6740:6746   */\n      dup4\n        /* \"#utility.yul\":6737:6738   */\n      dup2\n        /* \"#utility.yul\":6734:6747   */\n      lt\n        /* \"#utility.yul\":6715:6999   */\n      iszero\n      tag_416\n      jumpi\n        /* \"#utility.yul\":6816:6822   */\n      dup2\n        /* \"#utility.yul\":6810:6823   */\n      mload\n        /* \"#utility.yul\":6843:6906   */\n      tag_417\n        /* \"#utility.yul\":6902:6905   */\n      dup9\n        /* \"#utility.yul\":6887:6900   */\n      dup3\n        /* \"#utility.yul\":6843:6906   */\n      tag_354\n      jump\t// in\n    tag_417:\n        /* \"#utility.yul\":6836:6906   */\n      swap8\n      pop\n        /* \"#utility.yul\":6929:6989   */\n      tag_418\n        /* \"#utility.yul\":6982:6988   */\n      dup4\n        /* \"#utility.yul\":6929:6989   */\n      tag_419\n      jump\t// in\n    tag_418:\n        /* \"#utility.yul\":6919:6989   */\n      swap3\n      pop\n        /* \"#utility.yul\":6775:6999   */\n      pop\n        /* \"#utility.yul\":6762:6763   */\n      0x01\n        /* \"#utility.yul\":6759:6760   */\n      dup2\n        /* \"#utility.yul\":6755:6764   */\n      add\n        /* \"#utility.yul\":6750:6764   */\n      swap1\n      pop\n        /* \"#utility.yul\":6715:6999   */\n      jump(tag_414)\n    tag_416:\n        /* \"#utility.yul\":6719:6733   */\n      pop\n        /* \"#utility.yul\":7015:7018   */\n      dup6\n        /* \"#utility.yul\":7008:7018   */\n      swap4\n      pop\n        /* \"#utility.yul\":6416:7024   */\n      pop\n      pop\n      pop\n        /* \"#utility.yul\":6292:7024   */\n      swap3\n      swap2\n      pop\n      pop\n      jump\t// out\n        /* \"#utility.yul\":7030:7129   */\n    tag_420:\n        /* \"#utility.yul\":7101:7122   */\n      tag_422\n        /* \"#utility.yul\":7116:7121   */\n      dup2\n        /* \"#utility.yul\":7101:7122   */\n      tag_423\n      jump\t// in\n    tag_422:\n        /* \"#utility.yul\":7096:7099   */\n      dup3\n        /* \"#utility.yul\":7089:7123   */\n      mstore\n        /* \"#utility.yul\":7030:7129   */\n      pop\n      pop\n      jump\t// out\n        /* \"#utility.yul\":7135:7244   */\n    tag_424:\n        /* \"#utility.yul\":7216:7237   */\n      tag_426\n        /* \"#utility.yul\":7231:7236   */\n      dup2\n        /* \"#utility.yul\":7216:7237   */\n      tag_423\n      jump\t// in\n    tag_426:\n        /* \"#utility.yul\":7211:7214   */\n      dup3\n        /* \"#utility.yul\":7204:7238   */\n      mstore\n        /* \"#utility.yul\":7135:7244   */\n      pop\n      pop\n      jump\t// out\n        /* \"#utility.yul\":7250:7616   */\n    tag_427:\n        /* \"#utility.yul\":7392:7395   */\n      0x00\n        /* \"#utility.yul\":7413:7480   */\n      tag_429\n        /* \"#utility.yul\":7477:7479   */\n      0x25\n        /* \"#utility.yul\":7472:7475   */\n      dup4\n        /* \"#utility.yul\":7413:7480   */\n      tag_430\n      jump\t// in\n    tag_429:\n        /* \"#utility.yul\":7406:7480   */\n      swap2\n      pop\n        /* \"#utility.yul\":7489:7582   */\n      tag_431\n        /* \"#utility.yul\":7578:7581   */\n      dup3\n        /* \"#utility.yul\":7489:7582   */\n      tag_432\n      jump\t// in\n    tag_431:\n        /* \"#utility.yul\":7607:7609   */\n      0x40\n        /* \"#utility.yul\":7602:7605   */\n      dup3\n        /* \"#utility.yul\":7598:7610   */\n      add\n        /* \"#utility.yul\":7591:7610   */\n      swap1\n      pop\n        /* \"#utility.yul\":7250:7616   */\n      swap2\n      swap1\n      pop\n      jump\t// out\n        /* \"#utility.yul\":7622:7988   */\n    tag_433:\n        /* \"#utility.yul\":7764:7767   */\n      0x00\n        /* \"#utility.yul\":7785:7852   */\n      tag_435\n        /* \"#utility.yul\":7849:7851   */\n      0x35\n        /* \"#utility.yul\":7844:7847   */\n      dup4\n        /* \"#utility.yul\":7785:7852   */\n      tag_430\n      jump\t// in\n    tag_435:\n        /* \"#utility.yul\":7778:7852   */\n      swap2\n      pop\n        /* \"#utility.yul\":7861:7954   */\n      tag_436\n        /* \"#utility.yul\":7950:7953   */\n      dup3\n        /* \"#utility.yul\":7861:7954   */\n      tag_437\n      jump\t// in\n    tag_436:\n        /* \"#utility.yul\":7979:7981   */\n      0x40\n        /* \"#utility.yul\":7974:7977   */\n      dup3\n        /* \"#utility.yul\":7970:7982   */\n      add\n        /* \"#utility.yul\":7963:7982   */\n      swap1\n      pop\n        /* \"#utility.yul\":7622:7988   */\n      swap2\n      swap1\n      pop\n      jump\t// out\n        /* \"#utility.yul\":7994:8360   */\n    tag_438:\n        /* \"#utility.yul\":8136:8139   */\n      0x00\n        /* \"#utility.yul\":8157:8224   */\n      tag_440\n        /* \"#utility.yul\":8221:8223   */\n      0x22\n        /* \"#utility.yul\":8216:8219   */\n      dup4\n        /* \"#utility.yul\":8157:8224   */\n      tag_430\n      jump\t// in\n    tag_440:\n        /* \"#utility.yul\":8150:8224   */\n      swap2\n      pop\n        /* \"#utility.yul\":8233:8326   */\n      tag_441\n        /* \"#utility.yul\":8322:8325   */\n      dup3\n        /* \"#utility.yul\":8233:8326   */\n      tag_442\n      jump\t// in\n    tag_441:\n        /* \"#utility.yul\":8351:8353   */\n      0x40\n        /* \"#utility.yul\":8346:8349   */\n      dup3\n        /* \"#utility.yul\":8342:8354   */\n      add\n        /* \"#utility.yul\":8335:8354   */\n      swap1\n      pop\n        /* \"#utility.yul\":7994:8360   */\n      swap2\n      swap1\n      pop\n      jump\t// out\n        /* \"#utility.yul\":8366:8732   */\n    tag_443:\n        /* \"#utility.yul\":8508:8511   */\n      0x00\n        /* \"#utility.yul\":8529:8596   */\n      tag_445\n        /* \"#utility.yul\":8593:8595   */\n      0x1f\n        /* \"#utility.yul\":8588:8591   */\n      dup4\n        /* \"#utility.yul\":8529:8596   */\n      tag_430\n      jump\t// in\n    tag_445:\n        /* \"#utility.yul\":8522:8596   */\n      swap2\n      pop\n        /* \"#utility.yul\":8605:8698   */\n      tag_446\n        /* \"#utility.yul\":8694:8697   */\n      dup3\n        /* \"#utility.yul\":8605:8698   */\n      tag_447\n      jump\t// in\n    tag_446:\n        /* \"#utility.yul\":8723:8725   */\n      0x20\n        /* \"#utility.yul\":8718:8721   */\n      dup3\n        /* \"#utility.yul\":8714:8726   */\n      add\n        /* \"#utility.yul\":8707:8726   */\n      swap1\n      pop\n        /* \"#utility.yul\":8366:8732   */\n      swap2\n      swap1\n      pop\n      jump\t// out\n        /* \"#utility.yul\":8738:9104   */\n    tag_448:\n        /* \"#utility.yul\":8880:8883   */\n      0x00\n        /* \"#utility.yul\":8901:8968   */\n      tag_450\n        /* \"#utility.yul\":8965:8967   */\n      0x21\n        /* \"#utility.yul\":8960:8963   */\n      dup4\n        /* \"#utility.yul\":8901:8968   */\n      tag_430\n      jump\t// in\n    tag_450:\n        /* \"#utility.yul\":8894:8968   */\n      swap2\n      pop\n        /* \"#utility.yul\":8977:9070   */\n      tag_451\n        /* \"#utility.yul\":9066:9069   */\n      dup3\n        /* \"#utility.yul\":8977:9070   */\n      tag_452\n      jump\t// in\n    tag_451:\n        /* \"#utility.yul\":9095:9097   */\n      0x40\n        /* \"#utility.yul\":9090:9093   */\n      dup3\n        /* \"#utility.yul\":9086:9098   */\n      add\n        /* \"#utility.yul\":9079:9098   */\n      swap1\n      pop\n        /* \"#utility.yul\":8738:9104   */\n      swap2\n      swap1\n      pop\n      jump\t// out\n        /* \"#utility.yul\":9170:10419   */\n    tag_349:\n        /* \"#utility.yul\":9309:9313   */\n      0xc0\n        /* \"#utility.yul\":9304:9307   */\n      dup3\n        /* \"#utility.yul\":9300:9314   */\n      add\n        /* \"#utility.yul\":9400:9404   */\n      0x00\n        /* \"#utility.yul\":9393:9398   */\n      dup3\n        /* \"#utility.yul\":9389:9405   */\n      add\n        /* \"#utility.yul\":9383:9406   */\n      mload\n        /* \"#utility.yul\":9419:9482   */\n      tag_454\n        /* \"#utility.yul\":9476:9480   */\n      0x00\n        /* \"#utility.yul\":9471:9474   */\n      dup6\n        /* \"#utility.yul\":9467:9481   */\n      add\n        /* \"#utility.yul\":9453:9465   */\n      dup3\n        /* \"#utility.yul\":9419:9482   */\n      tag_345\n      jump\t// in\n    tag_454:\n        /* \"#utility.yul\":9324:9492   */\n      pop\n        /* \"#utility.yul\":9585:9589   */\n      0x20\n        /* \"#utility.yul\":9578:9583   */\n      dup3\n        /* \"#utility.yul\":9574:9590   */\n      add\n        /* \"#utility.yul\":9568:9591   */\n      mload\n        /* \"#utility.yul\":9604:9667   */\n      tag_455\n        /* \"#utility.yul\":9661:9665   */\n      0x20\n        /* \"#utility.yul\":9656:9659   */\n      dup6\n        /* \"#utility.yul\":9652:9666   */\n      add\n        /* \"#utility.yul\":9638:9650   */\n      dup3\n        /* \"#utility.yul\":9604:9667   */\n      tag_357\n      jump\t// in\n    tag_455:\n        /* \"#utility.yul\":9502:9677   */\n      pop\n        /* \"#utility.yul\":9761:9765   */\n      0x40\n        /* \"#utility.yul\":9754:9759   */\n      dup3\n        /* \"#utility.yul\":9750:9766   */\n      add\n        /* \"#utility.yul\":9744:9767   */\n      mload\n        /* \"#utility.yul\":9780:9843   */\n      tag_456\n        /* \"#utility.yul\":9837:9841   */\n      0x40\n        /* \"#utility.yul\":9832:9835   */\n      dup6\n        /* \"#utility.yul\":9828:9842   */\n      add\n        /* \"#utility.yul\":9814:9826   */\n      dup3\n        /* \"#utility.yul\":9780:9843   */\n      tag_357\n      jump\t// in\n    tag_456:\n        /* \"#utility.yul\":9687:9853   */\n      pop\n        /* \"#utility.yul\":9945:9949   */\n      0x60\n        /* \"#utility.yul\":9938:9943   */\n      dup3\n        /* \"#utility.yul\":9934:9950   */\n      add\n        /* \"#utility.yul\":9928:9951   */\n      mload\n        /* \"#utility.yul\":9964:10027   */\n      tag_457\n        /* \"#utility.yul\":10021:10025   */\n      0x60\n        /* \"#utility.yul\":10016:10019   */\n      dup6\n        /* \"#utility.yul\":10012:10026   */\n      add\n        /* \"#utility.yul\":9998:10010   */\n      dup3\n        /* \"#utility.yul\":9964:10027   */\n      tag_357\n      jump\t// in\n    tag_457:\n        /* \"#utility.yul\":9863:10037   */\n      pop\n        /* \"#utility.yul\":10135:10139   */\n      0x80\n        /* \"#utility.yul\":10128:10133   */\n      dup3\n        /* \"#utility.yul\":10124:10140   */\n      add\n        /* \"#utility.yul\":10118:10141   */\n      mload\n        /* \"#utility.yul\":10154:10217   */\n      tag_458\n        /* \"#utility.yul\":10211:10215   */\n      0x80\n        /* \"#utility.yul\":10206:10209   */\n      dup6\n        /* \"#utility.yul\":10202:10216   */\n      add\n        /* \"#utility.yul\":10188:10200   */\n      dup3\n        /* \"#utility.yul\":10154:10217   */\n      tag_357\n      jump\t// in\n    tag_458:\n        /* \"#utility.yul\":10047:10227   */\n      pop\n        /* \"#utility.yul\":10320:10324   */\n      0xa0\n        /* \"#utility.yul\":10313:10318   */\n      dup3\n        /* \"#utility.yul\":10309:10325   */\n      add\n        /* \"#utility.yul\":10303:10326   */\n      mload\n        /* \"#utility.yul\":10339:10402   */\n      tag_459\n        /* \"#utility.yul\":10396:10400   */\n      0xa0\n        /* \"#utility.yul\":10391:10394   */\n      dup6\n        /* \"#utility.yul\":10387:10401   */\n      add\n        /* \"#utility.yul\":10373:10385   */\n      dup3\n        /* \"#utility.yul\":10339:10402   */\n      tag_357\n      jump\t// in\n    tag_459:\n        /* \"#utility.yul\":10237:10412   */\n      pop\n        /* \"#utility.yul\":9278:10419   */\n      pop\n        /* \"#utility.yul\":9170:10419   */\n      pop\n      pop\n      jump\t// out\n        /* \"#utility.yul\":10493:11735   */\n    tag_353:\n        /* \"#utility.yul\":10640:10644   */\n      0xc0\n        /* \"#utility.yul\":10635:10638   */\n      dup3\n        /* \"#utility.yul\":10631:10645   */\n      add\n        /* \"#utility.yul\":10737:10741   */\n      0x00\n        /* \"#utility.yul\":10730:10735   */\n      dup3\n        /* \"#utility.yul\":10726:10742   */\n      add\n        /* \"#utility.yul\":10720:10743   */\n      mload\n        /* \"#utility.yul\":10756:10819   */\n      tag_461\n        /* \"#utility.yul\":10813:10817   */\n      0x00\n        /* \"#utility.yul\":10808:10811   */\n      dup6\n        /* \"#utility.yul\":10804:10818   */\n      add\n        /* \"#utility.yul\":10790:10802   */\n      dup3\n        /* \"#utility.yul\":10756:10819   */\n      tag_357\n      jump\t// in\n    tag_461:\n        /* \"#utility.yul\":10655:10829   */\n      pop\n        /* \"#utility.yul\":10920:10924   */\n      0x20\n        /* \"#utility.yul\":10913:10918   */\n      dup3\n        /* \"#utility.yul\":10909:10925   */\n      add\n        /* \"#utility.yul\":10903:10926   */\n      mload\n        /* \"#utility.yul\":10939:11002   */\n      tag_462\n        /* \"#utility.yul\":10996:11000   */\n      0x20\n        /* \"#utility.yul\":10991:10994   */\n      dup6\n        /* \"#utility.yul\":10987:11001   */\n      add\n        /* \"#utility.yul\":10973:10985   */\n      dup3\n        /* \"#utility.yul\":10939:11002   */\n      tag_357\n      jump\t// in\n    tag_462:\n        /* \"#utility.yul\":10839:11012   */\n      pop\n        /* \"#utility.yul\":11101:11105   */\n      0x40\n        /* \"#utility.yul\":11094:11099   */\n      dup3\n        /* \"#utility.yul\":11090:11106   */\n      add\n        /* \"#utility.yul\":11084:11107   */\n      mload\n        /* \"#utility.yul\":11120:11183   */\n      tag_463\n        /* \"#utility.yul\":11177:11181   */\n      0x40\n        /* \"#utility.yul\":11172:11175   */\n      dup6\n        /* \"#utility.yul\":11168:11182   */\n      add\n        /* \"#utility.yul\":11154:11166   */\n      dup3\n        /* \"#utility.yul\":11120:11183   */\n      tag_357\n      jump\t// in\n    tag_463:\n        /* \"#utility.yul\":11022:11193   */\n      pop\n        /* \"#utility.yul\":11284:11288   */\n      0x60\n        /* \"#utility.yul\":11277:11282   */\n      dup3\n        /* \"#utility.yul\":11273:11289   */\n      add\n        /* \"#utility.yul\":11267:11290   */\n      mload\n        /* \"#utility.yul\":11303:11366   */\n      tag_464\n        /* \"#utility.yul\":11360:11364   */\n      0x60\n        /* \"#utility.yul\":11355:11358   */\n      dup6\n        /* \"#utility.yul\":11351:11365   */\n      add\n        /* \"#utility.yul\":11337:11349   */\n      dup3\n        /* \"#utility.yul\":11303:11366   */\n      tag_357\n      jump\t// in\n    tag_464:\n        /* \"#utility.yul\":11203:11376   */\n      pop\n        /* \"#utility.yul\":11465:11469   */\n      0x80\n        /* \"#utility.yul\":11458:11463   */\n      dup3\n        /* \"#utility.yul\":11454:11470   */\n      add\n        /* \"#utility.yul\":11448:11471   */\n      mload\n        /* \"#utility.yul\":11484:11547   */\n      tag_465\n        /* \"#utility.yul\":11541:11545   */\n      0x80\n        /* \"#utility.yul\":11536:11539   */\n      dup6\n        /* \"#utility.yul\":11532:11546   */\n      add\n        /* \"#utility.yul\":11518:11530   */\n      dup3\n        /* \"#utility.yul\":11484:11547   */\n      tag_357\n      jump\t// in\n    tag_465:\n        /* \"#utility.yul\":11386:11557   */\n      pop\n        /* \"#utility.yul\":11642:11646   */\n      0xa0\n        /* \"#utility.yul\":11635:11640   */\n      dup3\n        /* \"#utility.yul\":11631:11647   */\n      add\n        /* \"#utility.yul\":11625:11648   */\n      mload\n        /* \"#utility.yul\":11661:11718   */\n      tag_466\n        /* \"#utility.yul\":11712:11716   */\n      0xa0\n        /* \"#utility.yul\":11707:11710   */\n      dup6\n        /* \"#utility.yul\":11703:11717   */\n      add\n        /* \"#utility.yul\":11689:11701   */\n      dup3\n        /* \"#utility.yul\":11661:11718   */\n      tag_420\n      jump\t// in\n    tag_466:\n        /* \"#utility.yul\":11567:11728   */\n      pop\n        /* \"#utility.yul\":10609:11735   */\n      pop\n        /* \"#utility.yul\":10493:11735   */\n      pop\n      pop\n      jump\t// out\n        /* \"#utility.yul\":11741:11849   */\n    tag_357:\n        /* \"#utility.yul\":11818:11842   */\n      tag_468\n        /* \"#utility.yul\":11836:11841   */\n      dup2\n        /* \"#utility.yul\":11818:11842   */\n      tag_469\n      jump\t// in\n    tag_468:\n        /* \"#utility.yul\":11813:11816   */\n      dup3\n        /* \"#utility.yul\":11806:11843   */\n      mstore\n        /* \"#utility.yul\":11741:11849   */\n      pop\n      pop\n      jump\t// out\n        /* \"#utility.yul\":11855:11973   */\n    tag_470:\n        /* \"#utility.yul\":11942:11966   */\n      tag_472\n        /* \"#utility.yul\":11960:11965   */\n      dup2\n        /* \"#utility.yul\":11942:11966   */\n      tag_469\n      jump\t// in\n    tag_472:\n        /* \"#utility.yul\":11937:11940   */\n      dup3\n        /* \"#utility.yul\":11930:11967   */\n      mstore\n        /* \"#utility.yul\":11855:11973   */\n      pop\n      pop\n      jump\t// out\n        /* \"#utility.yul\":11979:12201   */\n    tag_81:\n        /* \"#utility.yul\":12072:12076   */\n      0x00\n        /* \"#utility.yul\":12110:12112   */\n      0x20\n        /* \"#utility.yul\":12099:12108   */\n      dup3\n        /* \"#utility.yul\":12095:12113   */\n      add\n        /* \"#utility.yul\":12087:12113   */\n      swap1\n      pop\n        /* \"#utility.yul\":12123:12194   */\n      tag_474\n        /* \"#utility.yul\":12191:12192   */\n      0x00\n        /* \"#utility.yul\":12180:12189   */\n      dup4\n        /* \"#utility.yul\":12176:12193   */\n      add\n        /* \"#utility.yul\":12167:12173   */\n      dup5\n        /* \"#utility.yul\":12123:12194   */\n      tag_361\n      jump\t// in\n    tag_474:\n        /* \"#utility.yul\":11979:12201   */\n      swap3\n      swap2\n      pop\n      pop\n      jump\t// out\n        /* \"#utility.yul\":12207:12539   */\n    tag_235:\n        /* \"#utility.yul\":12328:12332   */\n      0x00\n        /* \"#utility.yul\":12366:12368   */\n      0x40\n        /* \"#utility.yul\":12355:12364   */\n      dup3\n        /* \"#utility.yul\":12351:12369   */\n      add\n        /* \"#utility.yul\":12343:12369   */\n      swap1\n      pop\n        /* \"#utility.yul\":12379:12450   */\n      tag_476\n        /* \"#utility.yul\":12447:12448   */\n      0x00\n        /* \"#utility.yul\":12436:12445   */\n      dup4\n        /* \"#utility.yul\":12432:12449   */\n      add\n        /* \"#utility.yul\":12423:12429   */\n      dup6\n        /* \"#utility.yul\":12379:12450   */\n      tag_361\n      jump\t// in\n    tag_476:\n        /* \"#utility.yul\":12460:12532   */\n      tag_477\n        /* \"#utility.yul\":12528:12530   */\n      0x20\n        /* \"#utility.yul\":12517:12526   */\n      dup4\n        /* \"#utility.yul\":12513:12531   */\n      add\n        /* \"#utility.yul\":12504:12510   */\n      dup5\n        /* \"#utility.yul\":12460:12532   */\n      tag_470\n      jump\t// in\n    tag_477:\n        /* \"#utility.yul\":12207:12539   */\n      swap4\n      swap3\n      pop\n      pop\n      pop\n      jump\t// out\n        /* \"#utility.yul\":12545:13419   */\n    tag_115:\n        /* \"#utility.yul\":12800:12804   */\n      0x00\n        /* \"#utility.yul\":12838:12841   */\n      0xe0\n        /* \"#utility.yul\":12827:12836   */\n      dup3\n        /* \"#utility.yul\":12823:12842   */\n      add\n        /* \"#utility.yul\":12815:12842   */\n      swap1\n      pop\n        /* \"#utility.yul\":12852:12923   */\n      tag_479\n        /* \"#utility.yul\":12920:12921   */\n      0x00\n        /* \"#utility.yul\":12909:12918   */\n      dup4\n        /* \"#utility.yul\":12905:12922   */\n      add\n        /* \"#utility.yul\":12896:12902   */\n      dup11\n        /* \"#utility.yul\":12852:12923   */\n      tag_361\n      jump\t// in\n    tag_479:\n        /* \"#utility.yul\":12933:13005   */\n      tag_480\n        /* \"#utility.yul\":13001:13003   */\n      0x20\n        /* \"#utility.yul\":12990:12999   */\n      dup4\n        /* \"#utility.yul\":12986:13004   */\n      add\n        /* \"#utility.yul\":12977:12983   */\n      dup10\n        /* \"#utility.yul\":12933:13005   */\n      tag_470\n      jump\t// in\n    tag_480:\n        /* \"#utility.yul\":13015:13087   */\n      tag_481\n        /* \"#utility.yul\":13083:13085   */\n      0x40\n        /* \"#utility.yul\":13072:13081   */\n      dup4\n        /* \"#utility.yul\":13068:13086   */\n      add\n        /* \"#utility.yul\":13059:13065   */\n      dup9\n        /* \"#utility.yul\":13015:13087   */\n      tag_470\n      jump\t// in\n    tag_481:\n        /* \"#utility.yul\":13097:13169   */\n      tag_482\n        /* \"#utility.yul\":13165:13167   */\n      0x60\n        /* \"#utility.yul\":13154:13163   */\n      dup4\n        /* \"#utility.yul\":13150:13168   */\n      add\n        /* \"#utility.yul\":13141:13147   */\n      dup8\n        /* \"#utility.yul\":13097:13169   */\n      tag_470\n      jump\t// in\n    tag_482:\n        /* \"#utility.yul\":13179:13252   */\n      tag_483\n        /* \"#utility.yul\":13247:13250   */\n      0x80\n        /* \"#utility.yul\":13236:13245   */\n      dup4\n        /* \"#utility.yul\":13232:13251   */\n      add\n        /* \"#utility.yul\":13223:13229   */\n      dup7\n        /* \"#utility.yul\":13179:13252   */\n      tag_470\n      jump\t// in\n    tag_483:\n        /* \"#utility.yul\":13262:13329   */\n      tag_484\n        /* \"#utility.yul\":13324:13327   */\n      0xa0\n        /* \"#utility.yul\":13313:13322   */\n      dup4\n        /* \"#utility.yul\":13309:13328   */\n      add\n        /* \"#utility.yul\":13300:13306   */\n      dup6\n        /* \"#utility.yul\":13262:13329   */\n      tag_424\n      jump\t// in\n    tag_484:\n        /* \"#utility.yul\":13339:13412   */\n      tag_485\n        /* \"#utility.yul\":13407:13410   */\n      0xc0\n        /* \"#utility.yul\":13396:13405   */\n      dup4\n        /* \"#utility.yul\":13392:13411   */\n      add\n        /* \"#utility.yul\":13383:13389   */\n      dup5\n        /* \"#utility.yul\":13339:13412   */\n      tag_470\n      jump\t// in\n    tag_485:\n        /* \"#utility.yul\":12545:13419   */\n      swap9\n      swap8\n      pop\n      pop\n      pop\n      pop\n      pop\n      pop\n      pop\n      pop\n      jump\t// out\n        /* \"#utility.yul\":13425:13798   */\n    tag_39:\n        /* \"#utility.yul\":13568:13572   */\n      0x00\n        /* \"#utility.yul\":13606:13608   */\n      0x20\n        /* \"#utility.yul\":13595:13604   */\n      dup3\n        /* \"#utility.yul\":13591:13609   */\n      add\n        /* \"#utility.yul\":13583:13609   */\n      swap1\n      pop\n        /* \"#utility.yul\":13655:13664   */\n      dup2\n        /* \"#utility.yul\":13649:13653   */\n      dup2\n        /* \"#utility.yul\":13645:13665   */\n      sub\n        /* \"#utility.yul\":13641:13642   */\n      0x00\n        /* \"#utility.yul\":13630:13639   */\n      dup4\n        /* \"#utility.yul\":13626:13643   */\n      add\n        /* \"#utility.yul\":13619:13666   */\n      mstore\n        /* \"#utility.yul\":13683:13791   */\n      tag_487\n        /* \"#utility.yul\":13786:13790   */\n      dup2\n        /* \"#utility.yul\":13777:13783   */\n      dup5\n        /* \"#utility.yul\":13683:13791   */\n      tag_364\n      jump\t// in\n    tag_487:\n        /* \"#utility.yul\":13675:13791   */\n      swap1\n      pop\n        /* \"#utility.yul\":13425:13798   */\n      swap3\n      swap2\n      pop\n      pop\n      jump\t// out\n        /* \"#utility.yul\":13804:14281   */\n    tag_69:\n        /* \"#utility.yul\":13999:14003   */\n      0x00\n        /* \"#utility.yul\":14037:14039   */\n      0x20\n        /* \"#utility.yul\":14026:14035   */\n      dup3\n        /* \"#utility.yul\":14022:14040   */\n      add\n        /* \"#utility.yul\":14014:14040   */\n      swap1\n      pop\n        /* \"#utility.yul\":14086:14095   */\n      dup2\n        /* \"#utility.yul\":14080:14084   */\n      dup2\n        /* \"#utility.yul\":14076:14096   */\n      sub\n        /* \"#utility.yul\":14072:14073   */\n      0x00\n        /* \"#utility.yul\":14061:14070   */\n      dup4\n        /* \"#utility.yul\":14057:14074   */\n      add\n        /* \"#utility.yul\":14050:14097   */\n      mstore\n        /* \"#utility.yul\":14114:14274   */\n      tag_489\n        /* \"#utility.yul\":14269:14273   */\n      dup2\n        /* \"#utility.yul\":14260:14266   */\n      dup5\n        /* \"#utility.yul\":14114:14274   */\n      tag_378\n      jump\t// in\n    tag_489:\n        /* \"#utility.yul\":14106:14274   */\n      swap1\n      pop\n        /* \"#utility.yul\":13804:14281   */\n      swap3\n      swap2\n      pop\n      pop\n      jump\t// out\n        /* \"#utility.yul\":14287:14780   */\n    tag_62:\n        /* \"#utility.yul\":14490:14494   */\n      0x00\n        /* \"#utility.yul\":14528:14530   */\n      0x20\n        /* \"#utility.yul\":14517:14526   */\n      dup3\n        /* \"#utility.yul\":14513:14531   */\n      add\n        /* \"#utility.yul\":14505:14531   */\n      swap1\n      pop\n        /* \"#utility.yul\":14577:14586   */\n      dup2\n        /* \"#utility.yul\":14571:14575   */\n      dup2\n        /* \"#utility.yul\":14567:14587   */\n      sub\n        /* \"#utility.yul\":14563:14564   */\n      0x00\n        /* \"#utility.yul\":14552:14561   */\n      dup4\n        /* \"#utility.yul\":14548:14565   */\n      add\n        /* \"#utility.yul\":14541:14588   */\n      mstore\n        /* \"#utility.yul\":14605:14773   */\n      tag_491\n        /* \"#utility.yul\":14768:14772   */\n      dup2\n        /* \"#utility.yul\":14759:14765   */\n      dup5\n        /* \"#utility.yul\":14605:14773   */\n      tag_392\n      jump\t// in\n    tag_491:\n        /* \"#utility.yul\":14597:14773   */\n      swap1\n      pop\n        /* \"#utility.yul\":14287:14780   */\n      swap3\n      swap2\n      pop\n      pop\n      jump\t// out\n        /* \"#utility.yul\":14786:15159   */\n    tag_103:\n        /* \"#utility.yul\":14929:14933   */\n      0x00\n        /* \"#utility.yul\":14967:14969   */\n      0x20\n        /* \"#utility.yul\":14956:14965   */\n      dup3\n        /* \"#utility.yul\":14952:14970   */\n      add\n        /* \"#utility.yul\":14944:14970   */\n      swap1\n      pop\n        /* \"#utility.yul\":15016:15025   */\n      dup2\n        /* \"#utility.yul\":15010:15014   */\n      dup2\n        /* \"#utility.yul\":15006:15026   */\n      sub\n        /* \"#utility.yul\":15002:15003   */\n      0x00\n        /* \"#utility.yul\":14991:15000   */\n      dup4\n        /* \"#utility.yul\":14987:15004   */\n      add\n        /* \"#utility.yul\":14980:15027   */\n      mstore\n        /* \"#utility.yul\":15044:15152   */\n      tag_493\n        /* \"#utility.yul\":15147:15151   */\n      dup2\n        /* \"#utility.yul\":15138:15144   */\n      dup5\n        /* \"#utility.yul\":15044:15152   */\n      tag_406\n      jump\t// in\n    tag_493:\n        /* \"#utility.yul\":15036:15152   */\n      swap1\n      pop\n        /* \"#utility.yul\":14786:15159   */\n      swap3\n      swap2\n      pop\n      pop\n      jump\t// out\n        /* \"#utility.yul\":15165:15375   */\n    tag_52:\n        /* \"#utility.yul\":15252:15256   */\n      0x00\n        /* \"#utility.yul\":15290:15292   */\n      0x20\n        /* \"#utility.yul\":15279:15288   */\n      dup3\n        /* \"#utility.yul\":15275:15293   */\n      add\n        /* \"#utility.yul\":15267:15293   */\n      swap1\n      pop\n        /* \"#utility.yul\":15303:15368   */\n      tag_495\n        /* \"#utility.yul\":15365:15366   */\n      0x00\n        /* \"#utility.yul\":15354:15363   */\n      dup4\n        /* \"#utility.yul\":15350:15367   */\n      add\n        /* \"#utility.yul\":15341:15347   */\n      dup5\n        /* \"#utility.yul\":15303:15368   */\n      tag_424\n      jump\t// in\n    tag_495:\n        /* \"#utility.yul\":15165:15375   */\n      swap3\n      swap2\n      pop\n      pop\n      jump\t// out\n        /* \"#utility.yul\":15381:15800   */\n    tag_229:\n        /* \"#utility.yul\":15547:15551   */\n      0x00\n        /* \"#utility.yul\":15585:15587   */\n      0x20\n        /* \"#utility.yul\":15574:15583   */\n      dup3\n        /* \"#utility.yul\":15570:15588   */\n      add\n        /* \"#utility.yul\":15562:15588   */\n      swap1\n      pop\n        /* \"#utility.yul\":15634:15643   */\n      dup2\n        /* \"#utility.yul\":15628:15632   */\n      dup2\n        /* \"#utility.yul\":15624:15644   */\n      sub\n        /* \"#utility.yul\":15620:15621   */\n      0x00\n        /* \"#utility.yul\":15609:15618   */\n      dup4\n        /* \"#utility.yul\":15605:15622   */\n      add\n        /* \"#utility.yul\":15598:15645   */\n      mstore\n        /* \"#utility.yul\":15662:15793   */\n      tag_497\n        /* \"#utility.yul\":15788:15792   */\n      dup2\n        /* \"#utility.yul\":15662:15793   */\n      tag_427\n      jump\t// in\n    tag_497:\n        /* \"#utility.yul\":15654:15793   */\n      swap1\n      pop\n        /* \"#utility.yul\":15381:15800   */\n      swap2\n      swap1\n      pop\n      jump\t// out\n        /* \"#utility.yul\":15806:16225   */\n    tag_139:\n        /* \"#utility.yul\":15972:15976   */\n      0x00\n        /* \"#utility.yul\":16010:16012   */\n      0x20\n        /* \"#utility.yul\":15999:16008   */\n      dup3\n        /* \"#utility.yul\":15995:16013   */\n      add\n        /* \"#utility.yul\":15987:16013   */\n      swap1\n      pop\n        /* \"#utility.yul\":16059:16068   */\n      dup2\n        /* \"#utility.yul\":16053:16057   */\n      dup2\n        /* \"#utility.yul\":16049:16069   */\n      sub\n        /* \"#utility.yul\":16045:16046   */\n      0x00\n        /* \"#utility.yul\":16034:16043   */\n      dup4\n        /* \"#utility.yul\":16030:16047   */\n      add\n        /* \"#utility.yul\":16023:16070   */\n      mstore\n        /* \"#utility.yul\":16087:16218   */\n      tag_499\n        /* \"#utility.yul\":16213:16217   */\n      dup2\n        /* \"#utility.yul\":16087:16218   */\n      tag_433\n      jump\t// in\n    tag_499:\n        /* \"#utility.yul\":16079:16218   */\n      swap1\n      pop\n        /* \"#utility.yul\":15806:16225   */\n      swap2\n      swap1\n      pop\n      jump\t// out\n        /* \"#utility.yul\":16231:16650   */\n    tag_264:\n        /* \"#utility.yul\":16397:16401   */\n      0x00\n        /* \"#utility.yul\":16435:16437   */\n      0x20\n        /* \"#utility.yul\":16424:16433   */\n      dup3\n        /* \"#utility.yul\":16420:16438   */\n      add\n        /* \"#utility.yul\":16412:16438   */\n      swap1\n      pop\n        /* \"#utility.yul\":16484:16493   */\n      dup2\n        /* \"#utility.yul\":16478:16482   */\n      dup2\n        /* \"#utility.yul\":16474:16494   */\n      sub\n        /* \"#utility.yul\":16470:16471   */\n      0x00\n        /* \"#utility.yul\":16459:16468   */\n      dup4\n        /* \"#utility.yul\":16455:16472   */\n      add\n        /* \"#utility.yul\":16448:16495   */\n      mstore\n        /* \"#utility.yul\":16512:16643   */\n      tag_501\n        /* \"#utility.yul\":16638:16642   */\n      dup2\n        /* \"#utility.yul\":16512:16643   */\n      tag_438\n      jump\t// in\n    tag_501:\n        /* \"#utility.yul\":16504:16643   */\n      swap1\n      pop\n        /* \"#utility.yul\":16231:16650   */\n      swap2\n      swap1\n      pop\n      jump\t// out\n        /* \"#utility.yul\":16656:17075   */\n    tag_232:\n        /* \"#utility.yul\":16822:16826   */\n      0x00\n        /* \"#utility.yul\":16860:16862   */\n      0x20\n        /* \"#utility.yul\":16849:16858   */\n      dup3\n        /* \"#utility.yul\":16845:16863   */\n      add\n        /* \"#utility.yul\":16837:16863   */\n      swap1\n      pop\n        /* \"#utility.yul\":16909:16918   */\n      dup2\n        /* \"#utility.yul\":16903:16907   */\n      dup2\n        /* \"#utility.yul\":16899:16919   */\n      sub\n        /* \"#utility.yul\":16895:16896   */\n      0x00\n        /* \"#utility.yul\":16884:16893   */\n      dup4\n        /* \"#utility.yul\":16880:16897   */\n      add\n        /* \"#utility.yul\":16873:16920   */\n      mstore\n        /* \"#utility.yul\":16937:17068   */\n      tag_503\n        /* \"#utility.yul\":17063:17067   */\n      dup2\n        /* \"#utility.yul\":16937:17068   */\n      tag_443\n      jump\t// in\n    tag_503:\n        /* \"#utility.yul\":16929:17068   */\n      swap1\n      pop\n        /* \"#utility.yul\":16656:17075   */\n      swap2\n      swap1\n      pop\n      jump\t// out\n        /* \"#utility.yul\":17081:17500   */\n    tag_275:\n        /* \"#utility.yul\":17247:17251   */\n      0x00\n        /* \"#utility.yul\":17285:17287   */\n      0x20\n        /* \"#utility.yul\":17274:17283   */\n      dup3\n        /* \"#utility.yul\":17270:17288   */\n      add\n        /* \"#utility.yul\":17262:17288   */\n      swap1\n      pop\n        /* \"#utility.yul\":17334:17343   */\n      dup2\n        /* \"#utility.yul\":17328:17332   */\n      dup2\n        /* \"#utility.yul\":17324:17344   */\n      sub\n        /* \"#utility.yul\":17320:17321   */\n      0x00\n        /* \"#utility.yul\":17309:17318   */\n      dup4\n        /* \"#utility.yul\":17305:17322   */\n      add\n        /* \"#utility.yul\":17298:17345   */\n      mstore\n        /* \"#utility.yul\":17362:17493   */\n      tag_505\n        /* \"#utility.yul\":17488:17492   */\n      dup2\n        /* \"#utility.yul\":17362:17493   */\n      tag_448\n      jump\t// in\n    tag_505:\n        /* \"#utility.yul\":17354:17493   */\n      swap1\n      pop\n        /* \"#utility.yul\":17081:17500   */\n      swap2\n      swap1\n      pop\n      jump\t// out\n        /* \"#utility.yul\":17506:17728   */\n    tag_43:\n        /* \"#utility.yul\":17599:17603   */\n      0x00\n        /* \"#utility.yul\":17637:17639   */\n      0x20\n        /* \"#utility.yul\":17626:17635   */\n      dup3\n        /* \"#utility.yul\":17622:17640   */\n      add\n        /* \"#utility.yul\":17614:17640   */\n      swap1\n      pop\n        /* \"#utility.yul\":17650:17721   */\n      tag_507\n        /* \"#utility.yul\":17718:17719   */\n      0x00\n        /* \"#utility.yul\":17707:17716   */\n      dup4\n        /* \"#utility.yul\":17703:17720   */\n      add\n        /* \"#utility.yul\":17694:17700   */\n      dup5\n        /* \"#utility.yul\":17650:17721   */\n      tag_470\n      jump\t// in\n    tag_507:\n        /* \"#utility.yul\":17506:17728   */\n      swap3\n      swap2\n      pop\n      pop\n      jump\t// out\n        /* \"#utility.yul\":17815:17947   */\n    tag_371:\n        /* \"#utility.yul\":17882:17886   */\n      0x00\n        /* \"#utility.yul\":17905:17908   */\n      dup2\n        /* \"#utility.yul\":17897:17908   */\n      swap1\n      pop\n        /* \"#utility.yul\":17935:17939   */\n      0x20\n        /* \"#utility.yul\":17930:17933   */\n      dup3\n        /* \"#utility.yul\":17926:17940   */\n      add\n        /* \"#utility.yul\":17918:17940   */\n      swap1\n      pop\n        /* \"#utility.yul\":17815:17947   */\n      swap2\n      swap1\n      pop\n      jump\t// out\n        /* \"#utility.yul\":17953:18111   */\n    tag_385:\n        /* \"#utility.yul\":18046:18050   */\n      0x00\n        /* \"#utility.yul\":18069:18072   */\n      dup2\n        /* \"#utility.yul\":18061:18072   */\n      swap1\n      pop\n        /* \"#utility.yul\":18099:18103   */\n      0x20\n        /* \"#utility.yul\":18094:18097   */\n      dup3\n        /* \"#utility.yul\":18090:18104   */\n      add\n        /* \"#utility.yul\":18082:18104   */\n      swap1\n      pop\n        /* \"#utility.yul\":17953:18111   */\n      swap2\n      swap1\n      pop\n      jump\t// out\n        /* \"#utility.yul\":18117:18279   */\n    tag_399:\n        /* \"#utility.yul\":18214:18218   */\n      0x00\n        /* \"#utility.yul\":18237:18240   */\n      dup2\n        /* \"#utility.yul\":18229:18240   */\n      swap1\n      pop\n        /* \"#utility.yul\":18267:18271   */\n      0x20\n        /* \"#utility.yul\":18262:18265   */\n      dup3\n        /* \"#utility.yul\":18258:18272   */\n      add\n        /* \"#utility.yul\":18250:18272   */\n      swap1\n      pop\n        /* \"#utility.yul\":18117:18279   */\n      swap2\n      swap1\n      pop\n      jump\t// out\n        /* \"#utility.yul\":18285:18417   */\n    tag_413:\n        /* \"#utility.yul\":18352:18356   */\n      0x00\n        /* \"#utility.yul\":18375:18378   */\n      dup2\n        /* \"#utility.yul\":18367:18378   */\n      swap1\n      pop\n        /* \"#utility.yul\":18405:18409   */\n      0x20\n        /* \"#utility.yul\":18400:18403   */\n      dup3\n        /* \"#utility.yul\":18396:18410   */\n      add\n        /* \"#utility.yul\":18388:18410   */\n      swap1\n      pop\n        /* \"#utility.yul\":18285:18417   */\n      swap2\n      swap1\n      pop\n      jump\t// out\n        /* \"#utility.yul\":18423:18537   */\n    tag_367:\n        /* \"#utility.yul\":18490:18496   */\n      0x00\n        /* \"#utility.yul\":18524:18529   */\n      dup2\n        /* \"#utility.yul\":18518:18530   */\n      mload\n        /* \"#utility.yul\":18508:18530   */\n      swap1\n      pop\n        /* \"#utility.yul\":18423:18537   */\n      swap2\n      swap1\n      pop\n      jump\t// out\n        /* \"#utility.yul\":18543:18683   */\n    tag_381:\n        /* \"#utility.yul\":18636:18642   */\n      0x00\n        /* \"#utility.yul\":18670:18675   */\n      dup2\n        /* \"#utility.yul\":18664:18676   */\n      mload\n        /* \"#utility.yul\":18654:18676   */\n      swap1\n      pop\n        /* \"#utility.yul\":18543:18683   */\n      swap2\n      swap1\n      pop\n      jump\t// out\n        /* \"#utility.yul\":18689:18833   */\n    tag_395:\n        /* \"#utility.yul\":18786:18792   */\n      0x00\n        /* \"#utility.yul\":18820:18825   */\n      dup2\n        /* \"#utility.yul\":18814:18826   */\n      mload\n        /* \"#utility.yul\":18804:18826   */\n      swap1\n      pop\n        /* \"#utility.yul\":18689:18833   */\n      swap2\n      swap1\n      pop\n      jump\t// out\n        /* \"#utility.yul\":18839:18953   */\n    tag_409:\n        /* \"#utility.yul\":18906:18912   */\n      0x00\n        /* \"#utility.yul\":18940:18945   */\n      dup2\n        /* \"#utility.yul\":18934:18946   */\n      mload\n        /* \"#utility.yul\":18924:18946   */\n      swap1\n      pop\n        /* \"#utility.yul\":18839:18953   */\n      swap2\n      swap1\n      pop\n      jump\t// out\n        /* \"#utility.yul\":18959:19072   */\n    tag_377:\n        /* \"#utility.yul\":19029:19033   */\n      0x00\n        /* \"#utility.yul\":19061:19065   */\n      0x20\n        /* \"#utility.yul\":19056:19059   */\n      dup3\n        /* \"#utility.yul\":19052:19066   */\n      add\n        /* \"#utility.yul\":19044:19066   */\n      swap1\n      pop\n        /* \"#utility.yul\":18959:19072   */\n      swap2\n      swap1\n      pop\n      jump\t// out\n        /* \"#utility.yul\":19078:19217   */\n    tag_391:\n        /* \"#utility.yul\":19174:19178   */\n      0x00\n        /* \"#utility.yul\":19206:19210   */\n      0x20\n        /* \"#utility.yul\":19201:19204   */\n      dup3\n        /* \"#utility.yul\":19197:19211   */\n      add\n        /* \"#utility.yul\":19189:19211   */\n      swap1\n      pop\n        /* \"#utility.yul\":19078:19217   */\n      swap2\n      swap1\n      pop\n      jump\t// out\n        /* \"#utility.yul\":19223:19366   */\n    tag_405:\n        /* \"#utility.yul\":19323:19327   */\n      0x00\n        /* \"#utility.yul\":19355:19359   */\n      0x20\n        /* \"#utility.yul\":19350:19353   */\n      dup3\n        /* \"#utility.yul\":19346:19360   */\n      add\n        /* \"#utility.yul\":19338:19360   */\n      swap1\n      pop\n        /* \"#utility.yul\":19223:19366   */\n      swap2\n      swap1\n      pop\n      jump\t// out\n        /* \"#utility.yul\":19372:19485   */\n    tag_419:\n        /* \"#utility.yul\":19442:19446   */\n      0x00\n        /* \"#utility.yul\":19474:19478   */\n      0x20\n        /* \"#utility.yul\":19469:19472   */\n      dup3\n        /* \"#utility.yul\":19465:19479   */\n      add\n        /* \"#utility.yul\":19457:19479   */\n      swap1\n      pop\n        /* \"#utility.yul\":19372:19485   */\n      swap2\n      swap1\n      pop\n      jump\t// out\n        /* \"#utility.yul\":19491:19675   */\n    tag_369:\n        /* \"#utility.yul\":19590:19601   */\n      0x00\n        /* \"#utility.yul\":19624:19630   */\n      dup3\n        /* \"#utility.yul\":19619:19622   */\n      dup3\n        /* \"#utility.yul\":19612:19631   */\n      mstore\n        /* \"#utility.yul\":19664:19668   */\n      0x20\n        /* \"#utility.yul\":19659:19662   */\n      dup3\n        /* \"#utility.yul\":19655:19669   */\n      add\n        /* \"#utility.yul\":19640:19669   */\n      swap1\n      pop\n        /* \"#utility.yul\":19491:19675   */\n      swap3\n      swap2\n      pop\n      pop\n      jump\t// out\n        /* \"#utility.yul\":19681:19891   */\n    tag_383:\n        /* \"#utility.yul\":19806:19817   */\n      0x00\n        /* \"#utility.yul\":19840:19846   */\n      dup3\n        /* \"#utility.yul\":19835:19838   */\n      dup3\n        /* \"#utility.yul\":19828:19847   */\n      mstore\n        /* \"#utility.yul\":19880:19884   */\n      0x20\n        /* \"#utility.yul\":19875:19878   */\n      dup3\n        /* \"#utility.yul\":19871:19885   */\n      add\n        /* \"#utility.yul\":19856:19885   */\n      swap1\n      pop\n        /* \"#utility.yul\":19681:19891   */\n      swap3\n      swap2\n      pop\n      pop\n      jump\t// out\n        /* \"#utility.yul\":19897:20111   */\n    tag_397:\n        /* \"#utility.yul\":20026:20037   */\n      0x00\n        /* \"#utility.yul\":20060:20066   */\n      dup3\n        /* \"#utility.yul\":20055:20058   */\n      dup3\n        /* \"#utility.yul\":20048:20067   */\n      mstore\n        /* \"#utility.yul\":20100:20104   */\n      0x20\n        /* \"#utility.yul\":20095:20098   */\n      dup3\n        /* \"#utility.yul\":20091:20105   */\n      add\n        /* \"#utility.yul\":20076:20105   */\n      swap1\n      pop\n        /* \"#utility.yul\":19897:20111   */\n      swap3\n      swap2\n      pop\n      pop\n      jump\t// out\n        /* \"#utility.yul\":20117:20301   */\n    tag_411:\n        /* \"#utility.yul\":20216:20227   */\n      0x00\n        /* \"#utility.yul\":20250:20256   */\n      dup3\n        /* \"#utility.yul\":20245:20248   */\n      dup3\n        /* \"#utility.yul\":20238:20257   */\n      mstore\n        /* \"#utility.yul\":20290:20294   */\n      0x20\n        /* \"#utility.yul\":20285:20288   */\n      dup3\n        /* \"#utility.yul\":20281:20295   */\n      add\n        /* \"#utility.yul\":20266:20295   */\n      swap1\n      pop\n        /* \"#utility.yul\":20117:20301   */\n      swap3\n      swap2\n      pop\n      pop\n      jump\t// out\n        /* \"#utility.yul\":20307:20476   */\n    tag_430:\n        /* \"#utility.yul\":20391:20402   */\n      0x00\n        /* \"#utility.yul\":20425:20431   */\n      dup3\n        /* \"#utility.yul\":20420:20423   */\n      dup3\n        /* \"#utility.yul\":20413:20432   */\n      mstore\n        /* \"#utility.yul\":20465:20469   */\n      0x20\n        /* \"#utility.yul\":20460:20463   */\n      dup3\n        /* \"#utility.yul\":20456:20470   */\n      add\n        /* \"#utility.yul\":20441:20470   */\n      swap1\n      pop\n        /* \"#utility.yul\":20307:20476   */\n      swap3\n      swap2\n      pop\n      pop\n      jump\t// out\n        /* \"#utility.yul\":20482:20787   */\n    tag_145:\n        /* \"#utility.yul\":20522:20525   */\n      0x00\n        /* \"#utility.yul\":20541:20561   */\n      tag_528\n        /* \"#utility.yul\":20559:20560   */\n      dup3\n        /* \"#utility.yul\":20541:20561   */\n      tag_469\n      jump\t// in\n    tag_528:\n        /* \"#utility.yul\":20536:20561   */\n      swap2\n      pop\n        /* \"#utility.yul\":20575:20595   */\n      tag_529\n        /* \"#utility.yul\":20593:20594   */\n      dup4\n        /* \"#utility.yul\":20575:20595   */\n      tag_469\n      jump\t// in\n    tag_529:\n        /* \"#utility.yul\":20570:20595   */\n      swap3\n      pop\n        /* \"#utility.yul\":20729:20730   */\n      dup3\n        /* \"#utility.yul\":20661:20727   */\n      0xffffffffffffffffffffffffffffffffffffffffffffffffffffffffffffffff\n        /* \"#utility.yul\":20657:20731   */\n      sub\n        /* \"#utility.yul\":20654:20655   */\n      dup3\n        /* \"#utility.yul\":20651:20732   */\n      gt\n        /* \"#utility.yul\":20648:20755   */\n      iszero\n      tag_530\n      jumpi\n        /* \"#utility.yul\":20735:20753   */\n      tag_531\n      tag_532\n      jump\t// in\n    tag_531:\n        /* \"#utility.yul\":20648:20755   */\n    tag_530:\n        /* \"#utility.yul\":20779:20780   */\n      dup3\n        /* \"#utility.yul\":20776:20777   */\n      dup3\n        /* \"#utility.yul\":20772:20781   */\n      add\n        /* \"#utility.yul\":20765:20781   */\n      swap1\n      pop\n        /* \"#utility.yul\":20482:20787   */\n      swap3\n      swap2\n      pop\n      pop\n      jump\t// out\n        /* \"#utility.yul\":20793:20978   */\n    tag_185:\n        /* \"#utility.yul\":20833:20834   */\n      0x00\n        /* \"#utility.yul\":20850:20870   */\n      tag_534\n        /* \"#utility.yul\":20868:20869   */\n      dup3\n        /* \"#utility.yul\":20850:20870   */\n      tag_469\n      jump\t// in\n    tag_534:\n        /* \"#utility.yul\":20845:20870   */\n      swap2\n      pop\n        /* \"#utility.yul\":20884:20904   */\n      tag_535\n        /* \"#utility.yul\":20902:20903   */\n      dup4\n        /* \"#utility.yul\":20884:20904   */\n      tag_469\n      jump\t// in\n    tag_535:\n        /* \"#utility.yul\":20879:20904   */\n      swap3\n      pop\n        /* \"#utility.yul\":20923:20924   */\n      dup3\n        /* \"#utility.yul\":20913:20948   */\n      tag_536\n      jumpi\n        /* \"#utility.yul\":20928:20946   */\n      tag_537\n      tag_538\n      jump\t// in\n    tag_537:\n        /* \"#utility.yul\":20913:20948   */\n    tag_536:\n        /* \"#utility.yul\":20970:20971   */\n      dup3\n        /* \"#utility.yul\":20967:20968   */\n      dup3\n        /* \"#utility.yul\":20963:20972   */\n      div\n        /* \"#utility.yul\":20958:20972   */\n      swap1\n      pop\n        /* \"#utility.yul\":20793:20978   */\n      swap3\n      swap2\n      pop\n      pop\n      jump\t// out\n        /* \"#utility.yul\":20984:21332   */\n    tag_189:\n        /* \"#utility.yul\":21024:21031   */\n      0x00\n        /* \"#utility.yul\":21047:21067   */\n      tag_540\n        /* \"#utility.yul\":21065:21066   */\n      dup3\n        /* \"#utility.yul\":21047:21067   */\n      tag_469\n      jump\t// in\n    tag_540:\n        /* \"#utility.yul\":21042:21067   */\n      swap2\n      pop\n        /* \"#utility.yul\":21081:21101   */\n      tag_541\n        /* \"#utility.yul\":21099:21100   */\n      dup4\n        /* \"#utility.yul\":21081:21101   */\n      tag_469\n      jump\t// in\n    tag_541:\n        /* \"#utility.yul\":21076:21101   */\n      swap3\n      pop\n        /* \"#utility.yul\":21269:21270   */\n      dup2\n        /* \"#utility.yul\":21201:21267   */\n      0xffffffffffffffffffffffffffffffffffffffffffffffffffffffffffffffff\n        /* \"#utility.yul\":21197:21271   */\n      div\n        /* \"#utility.yul\":21194:21195   */\n      dup4\n        /* \"#utility.yul\":21191:21272   */\n      gt\n        /* \"#utility.yul\":21186:21187   */\n      dup3\n        /* \"#utility.yul\":21179:21188   */\n      iszero\n        /* \"#utility.yul\":21172:21189   */\n      iszero\n        /* \"#utility.yul\":21168:21273   */\n      and\n        /* \"#utility.yul\":21165:21296   */\n      iszero\n      tag_542\n      jumpi\n        /* \"#utility.yul\":21276:21294   */\n      tag_543\n      tag_532\n      jump\t// in\n    tag_543:\n        /* \"#utility.yul\":21165:21296   */\n    tag_542:\n        /* \"#utility.yul\":21324:21325   */\n      dup3\n        /* \"#utility.yul\":21321:21322   */\n      dup3\n        /* \"#utility.yul\":21317:21326   */\n      mul\n        /* \"#utility.yul\":21306:21326   */\n      swap1\n      pop\n        /* \"#utility.yul\":20984:21332   */\n      swap3\n      swap2\n      pop\n      pop\n      jump\t// out\n        /* \"#utility.yul\":21338:21529   */\n    tag_181:\n        /* \"#utility.yul\":21378:21382   */\n      0x00\n        /* \"#utility.yul\":21398:21418   */\n      tag_545\n        /* \"#utility.yul\":21416:21417   */\n      dup3\n        /* \"#utility.yul\":21398:21418   */\n      tag_469\n      jump\t// in\n    tag_545:\n        /* \"#utility.yul\":21393:21418   */\n      swap2\n      pop\n        /* \"#utility.yul\":21432:21452   */\n      tag_546\n        /* \"#utility.yul\":21450:21451   */\n      dup4\n        /* \"#utility.yul\":21432:21452   */\n      tag_469\n      jump\t// in\n    tag_546:\n        /* \"#utility.yul\":21427:21452   */\n      swap3\n      pop\n        /* \"#utility.yul\":21471:21472   */\n      dup3\n        /* \"#utility.yul\":21468:21469   */\n      dup3\n        /* \"#utility.yul\":21465:21473   */\n      lt\n        /* \"#utility.yul\":21462:21496   */\n      iszero\n      tag_547\n      jumpi\n        /* \"#utility.yul\":21476:21494   */\n      tag_548\n      tag_532\n      jump\t// in\n    tag_548:\n        /* \"#utility.yul\":21462:21496   */\n    tag_547:\n        /* \"#utility.yul\":21521:21522   */\n      dup3\n        /* \"#utility.yul\":21518:21519   */\n      dup3\n        /* \"#utility.yul\":21514:21523   */\n      sub\n        /* \"#utility.yul\":21506:21523   */\n      swap1\n      pop\n        /* \"#utility.yul\":21338:21529   */\n      swap3\n      swap2\n      pop\n      pop\n      jump\t// out\n        /* \"#utility.yul\":21535:21631   */\n    tag_360:\n        /* \"#utility.yul\":21572:21579   */\n      0x00\n        /* \"#utility.yul\":21601:21625   */\n      tag_550\n        /* \"#utility.yul\":21619:21624   */\n      dup3\n        /* \"#utility.yul\":21601:21625   */\n      tag_551\n      jump\t// in\n    tag_550:\n        /* \"#utility.yul\":21590:21625   */\n      swap1\n      pop\n        /* \"#utility.yul\":21535:21631   */\n      swap2\n      swap1\n      pop\n      jump\t// out\n        /* \"#utility.yul\":21637:21727   */\n    tag_423:\n        /* \"#utility.yul\":21671:21678   */\n      0x00\n        /* \"#utility.yul\":21714:21719   */\n      dup2\n        /* \"#utility.yul\":21707:21720   */\n      iszero\n        /* \"#utility.yul\":21700:21721   */\n      iszero\n        /* \"#utility.yul\":21689:21721   */\n      swap1\n      pop\n        /* \"#utility.yul\":21637:21727   */\n      swap2\n      swap1\n      pop\n      jump\t// out\n        /* \"#utility.yul\":21733:21859   */\n    tag_551:\n        /* \"#utility.yul\":21770:21777   */\n      0x00\n        /* \"#utility.yul\":21810:21852   */\n      0xffffffffffffffffffffffffffffffffffffffff\n        /* \"#utility.yul\":21803:21808   */\n      dup3\n        /* \"#utility.yul\":21799:21853   */\n      and\n        /* \"#utility.yul\":21788:21853   */\n      swap1\n      pop\n        /* \"#utility.yul\":21733:21859   */\n      swap2\n      swap1\n      pop\n      jump\t// out\n        /* \"#utility.yul\":21865:21942   */\n    tag_469:\n        /* \"#utility.yul\":21902:21909   */\n      0x00\n        /* \"#utility.yul\":21931:21936   */\n      dup2\n        /* \"#utility.yul\":21920:21936   */\n      swap1\n      pop\n        /* \"#utility.yul\":21865:21942   */\n      swap2\n      swap1\n      pop\n      jump\t// out\n        /* \"#utility.yul\":21948:22181   */\n    tag_142:\n        /* \"#utility.yul\":21987:21990   */\n      0x00\n        /* \"#utility.yul\":22010:22034   */\n      tag_556\n        /* \"#utility.yul\":22028:22033   */\n      dup3\n        /* \"#utility.yul\":22010:22034   */\n      tag_469\n      jump\t// in\n    tag_556:\n        /* \"#utility.yul\":22001:22034   */\n      swap2\n      pop\n        /* \"#utility.yul\":22056:22122   */\n      0xffffffffffffffffffffffffffffffffffffffffffffffffffffffffffffffff\n        /* \"#utility.yul\":22049:22054   */\n      dup3\n        /* \"#utility.yul\":22046:22123   */\n      eq\n        /* \"#utility.yul\":22043:22146   */\n      iszero\n      tag_557\n      jumpi\n        /* \"#utility.yul\":22126:22144   */\n      tag_558\n      tag_532\n      jump\t// in\n    tag_558:\n        /* \"#utility.yul\":22043:22146   */\n    tag_557:\n        /* \"#utility.yul\":22173:22174   */\n      0x01\n        /* \"#utility.yul\":22166:22171   */\n      dup3\n        /* \"#utility.yul\":22162:22175   */\n      add\n        /* \"#utility.yul\":22155:22175   */\n      swap1\n      pop\n        /* \"#utility.yul\":21948:22181   */\n      swap2\n      swap1\n      pop\n      jump\t// out\n        /* \"#utility.yul\":22187:22367   */\n    tag_532:\n        /* \"#utility.yul\":22235:22312   */\n      0x4e487b7100000000000000000000000000000000000000000000000000000000\n        /* \"#utility.yul\":22232:22233   */\n      0x00\n        /* \"#utility.yul\":22225:22313   */\n      mstore\n        /* \"#utility.yul\":22332:22336   */\n      0x11\n        /* \"#utility.yul\":22329:22330   */\n      0x04\n        /* \"#utility.yul\":22322:22337   */\n      mstore\n        /* \"#utility.yul\":22356:22360   */\n      0x24\n        /* \"#utility.yul\":22353:22354   */\n      0x00\n        /* \"#utility.yul\":22346:22361   */\n      revert\n        /* \"#utility.yul\":22373:22553   */\n    tag_538:\n        /* \"#utility.yul\":22421:22498   */\n      0x4e487b7100000000000000000000000000000000000000000000000000000000\n        /* \"#utility.yul\":22418:22419   */\n      0x00\n        /* \"#utility.yul\":22411:22499   */\n      mstore\n        /* \"#utility.yul\":22518:22522   */\n      0x12\n        /* \"#utility.yul\":22515:22516   */\n      0x04\n        /* \"#utility.yul\":22508:22523   */\n      mstore\n        /* \"#utility.yul\":22542:22546   */\n      0x24\n        /* \"#utility.yul\":22539:22540   */\n      0x00\n        /* \"#utility.yul\":22532:22547   */\n      revert\n        /* \"#utility.yul\":22559:22739   */\n    tag_172:\n        /* \"#utility.yul\":22607:22684   */\n      0x4e487b7100000000000000000000000000000000000000000000000000000000\n        /* \"#utility.yul\":22604:22605   */\n      0x00\n        /* \"#utility.yul\":22597:22685   */\n      mstore\n        /* \"#utility.yul\":22704:22708   */\n      0x32\n        /* \"#utility.yul\":22701:22702   */\n      0x04\n        /* \"#utility.yul\":22694:22709   */\n      mstore\n        /* \"#utility.yul\":22728:22732   */\n      0x24\n        /* \"#utility.yul\":22725:22726   */\n      0x00\n        /* \"#utility.yul\":22718:22733   */\n      revert\n        /* \"#utility.yul\":22745:22925   */\n    tag_161:\n        /* \"#utility.yul\":22793:22870   */\n      0x4e487b7100000000000000000000000000000000000000000000000000000000\n        /* \"#utility.yul\":22790:22791   */\n      0x00\n        /* \"#utility.yul\":22783:22871   */\n      mstore\n        /* \"#utility.yul\":22890:22894   */\n      0x41\n        /* \"#utility.yul\":22887:22888   */\n      0x04\n        /* \"#utility.yul\":22880:22895   */\n      mstore\n        /* \"#utility.yul\":22914:22918   */\n      0x24\n        /* \"#utility.yul\":22911:22912   */\n      0x00\n        /* \"#utility.yul\":22904:22919   */\n      revert\n        /* \"#utility.yul\":23054:23171   */\n    tag_325:\n        /* \"#utility.yul\":23163:23164   */\n      0x00\n        /* \"#utility.yul\":23160:23161   */\n      dup1\n        /* \"#utility.yul\":23153:23165   */\n      revert\n        /* \"#utility.yul\":23177:23401   */\n    tag_432:\n        /* \"#utility.yul\":23317:23351   */\n      0x796f7520646f6e74206861766520696e766573746d656e7420746f2077697468\n        /* \"#utility.yul\":23313:23314   */\n      0x00\n        /* \"#utility.yul\":23305:23311   */\n      dup3\n        /* \"#utility.yul\":23301:23315   */\n      add\n        /* \"#utility.yul\":23294:23352   */\n      mstore\n        /* \"#utility.yul\":23386:23393   */\n      0x647261776e000000000000000000000000000000000000000000000000000000\n        /* \"#utility.yul\":23381:23383   */\n      0x20\n        /* \"#utility.yul\":23373:23379   */\n      dup3\n        /* \"#utility.yul\":23369:23384   */\n      add\n        /* \"#utility.yul\":23362:23394   */\n      mstore\n        /* \"#utility.yul\":23177:23401   */\n      pop\n      jump\t// out\n        /* \"#utility.yul\":23407:23647   */\n    tag_437:\n        /* \"#utility.yul\":23547:23581   */\n      0x76616c7565206973206e6f742067726561746572207468616e20313030303020\n        /* \"#utility.yul\":23543:23544   */\n      0x00\n        /* \"#utility.yul\":23535:23541   */\n      dup3\n        /* \"#utility.yul\":23531:23545   */\n      add\n        /* \"#utility.yul\":23524:23582   */\n      mstore\n        /* \"#utility.yul\":23616:23639   */\n      0x616e64206c657373207468616e20353030303030300000000000000000000000\n        /* \"#utility.yul\":23611:23613   */\n      0x20\n        /* \"#utility.yul\":23603:23609   */\n      dup3\n        /* \"#utility.yul\":23599:23614   */\n      add\n        /* \"#utility.yul\":23592:23640   */\n      mstore\n        /* \"#utility.yul\":23407:23647   */\n      pop\n      jump\t// out\n        /* \"#utility.yul\":23653:23874   */\n    tag_442:\n        /* \"#utility.yul\":23793:23827   */\n      0x796f7520646f6e742068617665207265776172647320746f2077697468647261\n        /* \"#utility.yul\":23789:23790   */\n      0x00\n        /* \"#utility.yul\":23781:23787   */\n      dup3\n        /* \"#utility.yul\":23777:23791   */\n      add\n        /* \"#utility.yul\":23770:23828   */\n      mstore\n        /* \"#utility.yul\":23862:23866   */\n      0x776e000000000000000000000000000000000000000000000000000000000000\n        /* \"#utility.yul\":23857:23859   */\n      0x20\n        /* \"#utility.yul\":23849:23855   */\n      dup3\n        /* \"#utility.yul\":23845:23860   */\n      add\n        /* \"#utility.yul\":23838:23867   */\n      mstore\n        /* \"#utility.yul\":23653:23874   */\n      pop\n      jump\t// out\n        /* \"#utility.yul\":23880:24061   */\n    tag_447:\n        /* \"#utility.yul\":24020:24053   */\n      0x796f752063616e74207769746864726177206265666f72652031207965617200\n        /* \"#utility.yul\":24016:24017   */\n      0x00\n        /* \"#utility.yul\":24008:24014   */\n      dup3\n        /* \"#utility.yul\":24004:24018   */\n      add\n        /* \"#utility.yul\":23997:24054   */\n      mstore\n        /* \"#utility.yul\":23880:24061   */\n      pop\n      jump\t// out\n        /* \"#utility.yul\":24067:24287   */\n    tag_452:\n        /* \"#utility.yul\":24207:24241   */\n      0x6f6e6c79204f776e65722063616e2063616c6c20746869732066756e6374696f\n        /* \"#utility.yul\":24203:24204   */\n      0x00\n        /* \"#utility.yul\":24195:24201   */\n      dup3\n        /* \"#utility.yul\":24191:24205   */\n      add\n        /* \"#utility.yul\":24184:24242   */\n      mstore\n        /* \"#utility.yul\":24276:24279   */\n      0x6e00000000000000000000000000000000000000000000000000000000000000\n        /* \"#utility.yul\":24271:24273   */\n      0x20\n        /* \"#utility.yul\":24263:24269   */\n      dup3\n        /* \"#utility.yul\":24259:24274   */\n      add\n        /* \"#utility.yul\":24252:24280   */\n      mstore\n        /* \"#utility.yul\":24067:24287   */\n      pop\n      jump\t// out\n        /* \"#utility.yul\":24293:24415   */\n    tag_313:\n        /* \"#utility.yul\":24366:24390   */\n      tag_572\n        /* \"#utility.yul\":24384:24389   */\n      dup2\n        /* \"#utility.yul\":24366:24390   */\n      tag_360\n      jump\t// in\n    tag_572:\n        /* \"#utility.yul\":24359:24364   */\n      dup2\n        /* \"#utility.yul\":24356:24391   */\n      eq\n        /* \"#utility.yul\":24346:24409   */\n      tag_573\n      jumpi\n        /* \"#utility.yul\":24405:24406   */\n      0x00\n        /* \"#utility.yul\":24402:24403   */\n      dup1\n        /* \"#utility.yul\":24395:24407   */\n      revert\n        /* \"#utility.yul\":24346:24409   */\n    tag_573:\n        /* \"#utility.yul\":24293:24415   */\n      pop\n      jump\t// out\n        /* \"#utility.yul\":24421:24537   */\n    tag_317:\n        /* \"#utility.yul\":24491:24512   */\n      tag_575\n        /* \"#utility.yul\":24506:24511   */\n      dup2\n        /* \"#utility.yul\":24491:24512   */\n      tag_423\n      jump\t// in\n    tag_575:\n        /* \"#utility.yul\":24484:24489   */\n      dup2\n        /* \"#utility.yul\":24481:24513   */\n      eq\n        /* \"#utility.yul\":24471:24531   */\n      tag_576\n      jumpi\n        /* \"#utility.yul\":24527:24528   */\n      0x00\n        /* \"#utility.yul\":24524:24525   */\n      dup1\n        /* \"#utility.yul\":24517:24529   */\n      revert\n        /* \"#utility.yul\":24471:24531   */\n    tag_576:\n        /* \"#utility.yul\":24421:24537   */\n      pop\n      jump\t// out\n        /* \"#utility.yul\":24543:24665   */\n    tag_321:\n        /* \"#utility.yul\":24616:24640   */\n      tag_578\n        /* \"#utility.yul\":24634:24639   */\n      dup2\n        /* \"#utility.yul\":24616:24640   */\n      tag_469\n      jump\t// in\n    tag_578:\n        /* \"#utility.yul\":24609:24614   */\n      dup2\n        /* \"#utility.yul\":24606:24641   */\n      eq\n        /* \"#utility.yul\":24596:24659   */\n      tag_579\n      jumpi\n        /* \"#utility.yul\":24655:24656   */\n      0x00\n        /* \"#utility.yul\":24652:24653   */\n      dup1\n        /* \"#utility.yul\":24645:24657   */\n      revert\n        /* \"#utility.yul\":24596:24659   */\n    tag_579:\n        /* \"#utility.yul\":24543:24665   */\n      pop\n      jump\t// out\n\n    auxdata: 0xa2646970667358221220c233d0e1d9518766ad991ea80c44033729fd97b8a15281a8cda5040adf42816964736f6c63430008070033\n}\n",
				"bytecode": {
					"linkReferences": {},
					"object": "608060405273e9e7cea3dedca5984780bafc599bd69add087d56600160006101000a81548173ffffffffffffffffffffffffffffffffffffffff021916908373ffffffffffffffffffffffffffffffffffffffff16021790555073e9e7cea3dedca5984780bafc599bd69add087d56600260006101000a81548173ffffffffffffffffffffffffffffffffffffffff021916908373ffffffffffffffffffffffffffffffffffffffff16021790555060bf600355674563918244f40000600555612710600655624c4b40600755620186a06008556301e133806009553480156100e757600080fd5b50336000806101000a81548173ffffffffffffffffffffffffffffffffffffffff021916908373ffffffffffffffffffffffffffffffffffffffff160217905550612e5e806101376000396000f3fe608060405234801561001057600080fd5b50600436106101a95760003560e01c80635a4a0192116100f9578063c885bc5811610097578063f2fde38b11610071578063f2fde38b14610494578063f790b81a146104b0578063f7c618c1146104ce578063fae730bc146104ec576101a9565b8063c885bc5814610422578063d3560ee814610440578063e2033fcb14610476576101a9565b8063929f6bbe116100d3578063929f6bbe146103aa5780639740a1bc146103c8578063a61be99d146103e6578063bc67eaff14610404576101a9565b80635a4a01921461035057806373cf575a1461036e5780638da5cb5b1461038c576101a9565b80633a1e0833116101665780634eb1ecc9116101405780634eb1ecc9146102ca578063500cb85f146102e6578063502c6bfa14610302578063523cddfe14610332576101a9565b80633a1e0833146102705780633d18b9121461028e57806342508f66146102ac576101a9565b80630c5f58f4146101ae57806310cde60a146101cc5780631e8aba35146101ea578063227a473b14610208578063293be4561461023857806332d4e78314610254575b600080fd5b6101b661050a565b6040516101c391906127c4565b60405180910390f35b6101d46105d8565b6040516101e19190612907565b60405180910390f35b6101f26105de565b6040516101ff9190612907565b60405180910390f35b610222600480360381019061021d91906122a6565b61062b565b60405161022f919061284c565b60405180910390f35b610252600480360381019061024d91906122a6565b610ada565b005b61026e600480360381019061026991906122a6565b610ae4565b005b610278610aee565b6040516102859190612808565b60405180910390f35b610296610d7f565b6040516102a39190612907565b60405180910390f35b6102b4610fda565b6040516102c191906127e6565b60405180910390f35b6102e460048036038101906102df91906122d3565b61136c565b005b61030060048036038101906102fb91906122a6565b61138e565b005b61031c600480360381019061031791906122a6565b611398565b6040516103299190612711565b60405180910390f35b61033a6113cb565b6040516103479190612907565b60405180910390f35b6103586113d1565b6040516103659190612907565b60405180910390f35b610376611420565b604051610383919061284c565b60405180910390f35b610394611803565b6040516103a19190612711565b60405180910390f35b6103b2611827565b6040516103bf9190612907565b60405180910390f35b6103d0611871565b6040516103dd9190612907565b60405180910390f35b6103ee611877565b6040516103fb919061282a565b60405180910390f35b61040c6119ea565b6040516104199190612907565b60405180910390f35b61042a6119f0565b604051610437919061284c565b60405180910390f35b61045a6004803603810190610455919061224c565b611b64565b60405161046d9796959493929190612755565b60405180910390f35b61047e611bd3565b60405161048b9190612907565b60405180910390f35b6104ae60048036038101906104a9919061224c565b611bd9565b005b6104b8611caa565b6040516104c5919061282a565b60405180910390f35b6104d6611e1d565b6040516104e39190612907565b60405180910390f35b6104f4611e23565b6040516105019190612907565b60405180910390f35b6060600d60003373ffffffffffffffffffffffffffffffffffffffff1673ffffffffffffffffffffffffffffffffffffffff1681526020019081526020016000206001018054806020026020016040519081016040528092919081815260200182805480156105ce57602002820191906000526020600020905b8160009054906101000a900473ffffffffffffffffffffffffffffffffffffffff1673ffffffffffffffffffffffffffffffffffffffff1681526020019060010190808311610584575b5050505050905090565b60045481565b6000600d60003373ffffffffffffffffffffffffffffffffffffffff1673ffffffffffffffffffffffffffffffffffffffff16815260200190815260200160002060010180549050905090565b6000600654821015801561064157506007548211155b610680576040517f08c379a000000000000000000000000000000000000000000000000000000000815260040161067790612887565b60405180910390fd5b60001515600d60003373ffffffffffffffffffffffffffffffffffffffff1673ffffffffffffffffffffffffffffffffffffffff16815260200190815260200160002060080160009054906101000a900460ff16151514156107495733600c6000600454815260200190815260200160002060006101000a81548173ffffffffffffffffffffffffffffffffffffffff021916908373ffffffffffffffffffffffffffffffffffffffff1602179055506004600081548092919061074390612b74565b91905055505b6000600d60003373ffffffffffffffffffffffffffffffffffffffff1673ffffffffffffffffffffffffffffffffffffffff1681526020019081526020016000206006015414156107eb576301e13380426107a49190612a17565b600d60003373ffffffffffffffffffffffffffffffffffffffff1673ffffffffffffffffffffffffffffffffffffffff168152602001908152602001600020600901819055505b6000600d60003373ffffffffffffffffffffffffffffffffffffffff1673ffffffffffffffffffffffffffffffffffffffff16815260200190815260200160002060050154905082600d60003373ffffffffffffffffffffffffffffffffffffffff1673ffffffffffffffffffffffffffffffffffffffff16815260200190815260200160002060000160008381526020019081526020016000206000018190555042600d60003373ffffffffffffffffffffffffffffffffffffffff1673ffffffffffffffffffffffffffffffffffffffff168152602001908152602001600020600001600083815260200190815260200160002060020181905550600954426108f69190612a17565b600d60003373ffffffffffffffffffffffffffffffffffffffff1673ffffffffffffffffffffffffffffffffffffffff16815260200190815260200160002060000160008381526020019081526020016000206001018190555080600d60003373ffffffffffffffffffffffffffffffffffffffff1673ffffffffffffffffffffffffffffffffffffffff16815260200190815260200160002060000160008381526020019081526020016000206003018190555082600d60003373ffffffffffffffffffffffffffffffffffffffff1673ffffffffffffffffffffffffffffffffffffffff16815260200190815260200160002060060160008282546109fd9190612a17565b92505081905550600d60003373ffffffffffffffffffffffffffffffffffffffff1673ffffffffffffffffffffffffffffffffffffffff1681526020019081526020016000206005016000815480929190610a5790612b74565b919050555082600a6000828254610a6e9190612a17565b925050819055506001600d60003373ffffffffffffffffffffffffffffffffffffffff1673ffffffffffffffffffffffffffffffffffffffff16815260200190815260200160002060080160006101000a81548160ff0219169083151502179055506001915050919050565b8060038190555050565b8060068190555050565b60606000600d60003373ffffffffffffffffffffffffffffffffffffffff1673ffffffffffffffffffffffffffffffffffffffff16815260200190815260200160002060050154905060008060005b83811015610bc6576000600d60003373ffffffffffffffffffffffffffffffffffffffff1673ffffffffffffffffffffffffffffffffffffffff1681526020019081526020016000206000016000838152602001908152602001600020600001541115610bb3578280610baf90612b74565b9350505b8080610bbe90612b74565b915050610b3d565b5060008267ffffffffffffffff811115610be357610be2612c4a565b5b604051908082528060200260200182016040528015610c1c57816020015b610c09612189565b815260200190600190039081610c015790505b50905060005b84811015610d74576000600d60003373ffffffffffffffffffffffffffffffffffffffff1673ffffffffffffffffffffffffffffffffffffffff1681526020019081526020016000206000016000838152602001908152602001600020600001541115610d6157600d60003373ffffffffffffffffffffffffffffffffffffffff1673ffffffffffffffffffffffffffffffffffffffff16815260200190815260200160002060000160008281526020019081526020016000206040518060c001604052908160008201548152602001600182015481526020016002820154815260200160038201548152602001600482015481526020016005820160009054906101000a900460ff161515151581525050828481518110610d4757610d46612c1b565b5b60200260200101819052508280610d5d90612b74565b9350505b8080610d6c90612b74565b915050610c22565b508094505050505090565b6000806000806000600d60003373ffffffffffffffffffffffffffffffffffffffff1673ffffffffffffffffffffffffffffffffffffffff168152602001908152602001600020600501549050600081811015610f7e57600d60003373ffffffffffffffffffffffffffffffffffffffff1673ffffffffffffffffffffffffffffffffffffffff168152602001908152602001600020600001600082815260200190815260200160002060050160009054906101000a900460ff16610ea757600d60003373ffffffffffffffffffffffffffffffffffffffff1673ffffffffffffffffffffffffffffffffffffffff16815260200190815260200160002060000160008281526020019081526020016000206002015442610ea09190612af8565b9350610f62565b600d60003373ffffffffffffffffffffffffffffffffffffffff1673ffffffffffffffffffffffffffffffffffffffff168152602001908152602001600020600001600082815260200190815260200160002060020154600d60003373ffffffffffffffffffffffffffffffffffffffff1673ffffffffffffffffffffffffffffffffffffffff168152602001908152602001600020600001600083815260200190815260200160002060040154610f5f9190612af8565b93505b603c84610f6f9190612a6d565b93508395505050505050610fd7565b50600d60003373ffffffffffffffffffffffffffffffffffffffff1673ffffffffffffffffffffffffffffffffffffffff1681526020019081526020016000206007015484610fcd9190612af8565b9350839450505050505b90565b6060600060045467ffffffffffffffff811115610ffa57610ff9612c4a565b5b60405190808252806020026020018201604052801561103357816020015b6110206121c1565b8152602001906001900390816110185790505b50905060005b60045481101561136457600c600082815260200190815260200160002060009054906101000a900473ffffffffffffffffffffffffffffffffffffffff1682828151811061108a57611089612c1b565b5b60200260200101516000019073ffffffffffffffffffffffffffffffffffffffff16908173ffffffffffffffffffffffffffffffffffffffff1681525050600d6000600c600084815260200190815260200160002060009054906101000a900473ffffffffffffffffffffffffffffffffffffffff1673ffffffffffffffffffffffffffffffffffffffff1673ffffffffffffffffffffffffffffffffffffffff1681526020019081526020016000206006015482828151811061115157611150612c1b565b5b6020026020010151602001818152505061119d600c600083815260200190815260200160002060009054906101000a900473ffffffffffffffffffffffffffffffffffffffff16611e29565b8282815181106111b0576111af612c1b565b5b60200260200101516040018181525050600d6000600c600084815260200190815260200160002060009054906101000a900473ffffffffffffffffffffffffffffffffffffffff1673ffffffffffffffffffffffffffffffffffffffff1673ffffffffffffffffffffffffffffffffffffffff1681526020019081526020016000206005015482828151811061124957611248612c1b565b5b60200260200101516060018181525050600d6000600c600084815260200190815260200160002060009054906101000a900473ffffffffffffffffffffffffffffffffffffffff1673ffffffffffffffffffffffffffffffffffffffff1673ffffffffffffffffffffffffffffffffffffffff168152602001908152602001600020600701548282815181106112e2576112e1612c1b565b5b6020026020010151608001818152505061132e600c600083815260200190815260200160002060009054906101000a900473ffffffffffffffffffffffffffffffffffffffff1661213a565b82828151811061134157611340612c1b565b5b602002602001015160a0018181525050808061135c90612b74565b915050611039565b508091505090565b8260078190555083600681905550816005819055508060088190555050505050565b8060078190555050565b600c6020528060005260406000206000915054906101000a900473ffffffffffffffffffffffffffffffffffffffff1681565b60095481565b600080600d60003373ffffffffffffffffffffffffffffffffffffffff1673ffffffffffffffffffffffffffffffffffffffff1681526020019081526020016000206007015490508091505090565b600080600d60003373ffffffffffffffffffffffffffffffffffffffff1673ffffffffffffffffffffffffffffffffffffffff16815260200190815260200160002060060154116114a6576040517f08c379a000000000000000000000000000000000000000000000000000000000815260040161149d90612867565b60405180910390fd5b42600d60003373ffffffffffffffffffffffffffffffffffffffff1673ffffffffffffffffffffffffffffffffffffffff168152602001908152602001600020600901541061152a576040517f08c379a0000000000000000000000000000000000000000000000000000000008152600401611521906128c7565b60405180910390fd5b6000600d60003373ffffffffffffffffffffffffffffffffffffffff1673ffffffffffffffffffffffffffffffffffffffff1681526020019081526020016000206006015490506000600d60003373ffffffffffffffffffffffffffffffffffffffff1673ffffffffffffffffffffffffffffffffffffffff1681526020019081526020016000206005015490506000600b549050600160009054906101000a900473ffffffffffffffffffffffffffffffffffffffff1673ffffffffffffffffffffffffffffffffffffffff1663a9059cbb336305f5e1008661160e9190612a9e565b6040518363ffffffff1660e01b815260040161162b92919061272c565b602060405180830381600087803b15801561164557600080fd5b505af1158015611659573d6000803e3d6000fd5b505050506040513d601f19601f8201168201806040525081019061167d9190612279565b50600090505b81811015611768576001600d60003373ffffffffffffffffffffffffffffffffffffffff1673ffffffffffffffffffffffffffffffffffffffff168152602001908152602001600020600001600083815260200190815260200160002060050160006101000a81548160ff02191690831515021790555042600d60003373ffffffffffffffffffffffffffffffffffffffff1673ffffffffffffffffffffffffffffffffffffffff168152602001908152602001600020600001600083815260200190815260200160002060040181905550808061176090612b74565b915050611683565b600d60003373ffffffffffffffffffffffffffffffffffffffff1673ffffffffffffffffffffffffffffffffffffffff16815260200190815260200160002060050154600b819055506000600d60003373ffffffffffffffffffffffffffffffffffffffff1673ffffffffffffffffffffffffffffffffffffffff168152602001908152602001600020600601819055506001935050505090565b60008054906101000a900473ffffffffffffffffffffffffffffffffffffffff1681565b6000600d60003373ffffffffffffffffffffffffffffffffffffffff1673ffffffffffffffffffffffffffffffffffffffff16815260200190815260200160002060060154905090565b60085481565b60606000601467ffffffffffffffff81111561189657611895612c4a565b5b6040519080825280602002602001820160405280156118c45781602001602082028036833780820191505090505b50905060005b60148110156119e2576000600d60003373ffffffffffffffffffffffffffffffffffffffff1673ffffffffffffffffffffffffffffffffffffffff16815260200190815260200160002060030160008381526020019081526020016000206000015411156119ad57600d60003373ffffffffffffffffffffffffffffffffffffffff1673ffffffffffffffffffffffffffffffffffffffff16815260200190815260200160002060030160008281526020019081526020016000206000015482828151811061199c5761199b612c1b565b5b6020026020010181815250506119cf565b60008282815181106119c2576119c1612c1b565b5b6020026020010181815250505b80806119da90612b74565b9150506118ca565b508091505090565b60065481565b6000806119fb610d7f565b905060008111611a40576040517f08c379a0000000000000000000000000000000000000000000000000000000008152600401611a37906128a7565b60405180910390fd5b600260009054906101000a900473ffffffffffffffffffffffffffffffffffffffff1673ffffffffffffffffffffffffffffffffffffffff1663a9059cbb33670de0b6b3a764000084611a939190612a9e565b6040518363ffffffff1660e01b8152600401611ab092919061272c565b602060405180830381600087803b158015611aca57600080fd5b505af1158015611ade573d6000803e3d6000fd5b505050506040513d601f19601f82011682018060405250810190611b029190612279565b5080600d60003373ffffffffffffffffffffffffffffffffffffffff1673ffffffffffffffffffffffffffffffffffffffff1681526020019081526020016000206007016000828254611b559190612a17565b92505081905550600191505090565b600d6020528060005260406000206000915090508060020160009054906101000a900473ffffffffffffffffffffffffffffffffffffffff16908060040154908060050154908060060154908060070154908060080160009054906101000a900460ff16908060090154905087565b600a5481565b60008054906101000a900473ffffffffffffffffffffffffffffffffffffffff1673ffffffffffffffffffffffffffffffffffffffff163373ffffffffffffffffffffffffffffffffffffffff1614611c67576040517f08c379a0000000000000000000000000000000000000000000000000000000008152600401611c5e906128e7565b60405180910390fd5b806000806101000a81548173ffffffffffffffffffffffffffffffffffffffff021916908373ffffffffffffffffffffffffffffffffffffffff16021790555050565b60606000601467ffffffffffffffff811115611cc957611cc8612c4a565b5b604051908082528060200260200182016040528015611cf75781602001602082028036833780820191505090505b50905060005b6014811015611e15576000600d60003373ffffffffffffffffffffffffffffffffffffffff1673ffffffffffffffffffffffffffffffffffffffff1681526020019081526020016000206003016000838152602001908152602001600020600001541115611de057600d60003373ffffffffffffffffffffffffffffffffffffffff1673ffffffffffffffffffffffffffffffffffffffff168152602001908152602001600020600301600082815260200190815260200160002060010154828281518110611dcf57611dce612c1b565b5b602002602001018181525050611e02565b6000828281518110611df557611df4612c1b565b5b6020026020010181815250505b8080611e0d90612b74565b915050611cfd565b508091505090565b60055481565b60075481565b6000806000806000600d60008773ffffffffffffffffffffffffffffffffffffffff1673ffffffffffffffffffffffffffffffffffffffff16815260200190815260200160002060050154905060005b818110156120dd57600d60008873ffffffffffffffffffffffffffffffffffffffff1673ffffffffffffffffffffffffffffffffffffffff168152602001908152602001600020600001600082815260200190815260200160002060050160009054906101000a900460ff16611f5257600d60008873ffffffffffffffffffffffffffffffffffffffff1673ffffffffffffffffffffffffffffffffffffffff16815260200190815260200160002060000160008281526020019081526020016000206002015442611f4b9190612af8565b935061200d565b600d60008873ffffffffffffffffffffffffffffffffffffffff1673ffffffffffffffffffffffffffffffffffffffff168152602001908152602001600020600001600082815260200190815260200160002060020154600d60008973ffffffffffffffffffffffffffffffffffffffff1673ffffffffffffffffffffffffffffffffffffffff16815260200190815260200160002060000160008381526020019081526020016000206004015461200a9190612af8565b93505b603c8461201a9190612a6d565b935060008411156120ca576064600a54600d60003373ffffffffffffffffffffffffffffffffffffffff1673ffffffffffffffffffffffffffffffffffffffff16815260200190815260200160002060000160008481526020019081526020016000206000015461208b9190612a6d565b6120959190612a9e565b60646003546120a49190612a6d565b6120ae9190612a9e565b925082846120bc9190612a9e565b856120c79190612a17565b94505b80806120d590612b74565b915050611e79565b50600d60008773ffffffffffffffffffffffffffffffffffffffff1673ffffffffffffffffffffffffffffffffffffffff168152602001908152602001600020600701548461212c9190612af8565b935083945050505050919050565b6000600d60008373ffffffffffffffffffffffffffffffffffffffff1673ffffffffffffffffffffffffffffffffffffffff168152602001908152602001600020600101805490509050919050565b6040518060c0016040528060008152602001600081526020016000815260200160008152602001600081526020016000151581525090565b6040518060c00160405280600073ffffffffffffffffffffffffffffffffffffffff16815260200160008152602001600081526020016000815260200160008152602001600081525090565b60008135905061221c81612de3565b92915050565b60008151905061223181612dfa565b92915050565b60008135905061224681612e11565b92915050565b60006020828403121561226257612261612c79565b5b60006122708482850161220d565b91505092915050565b60006020828403121561228f5761228e612c79565b5b600061229d84828501612222565b91505092915050565b6000602082840312156122bc576122bb612c79565b5b60006122ca84828501612237565b91505092915050565b600080600080608085870312156122ed576122ec612c79565b5b60006122fb87828801612237565b945050602061230c87828801612237565b935050604061231d87828801612237565b925050606061232e87828801612237565b91505092959194509250565b6000612346838361239a565b60208301905092915050565b600061235e83836125fd565b60c08301905092915050565b60006123768383612678565b60c08301905092915050565b600061238e83836126f3565b60208301905092915050565b6123a381612b2c565b82525050565b6123b281612b2c565b82525050565b60006123c382612962565b6123cd81856129c2565b93506123d883612922565b8060005b838110156124095781516123f0888261233a565b97506123fb8361298e565b9250506001810190506123dc565b5085935050505092915050565b60006124218261296d565b61242b81856129d3565b935061243683612932565b8060005b8381101561246757815161244e8882612352565b97506124598361299b565b92505060018101905061243a565b5085935050505092915050565b600061247f82612978565b61248981856129e4565b935061249483612942565b8060005b838110156124c55781516124ac888261236a565b97506124b7836129a8565b925050600181019050612498565b5085935050505092915050565b60006124dd82612983565b6124e781856129f5565b93506124f283612952565b8060005b8381101561252357815161250a8882612382565b9750612515836129b5565b9250506001810190506124f6565b5085935050505092915050565b61253981612b3e565b82525050565b61254881612b3e565b82525050565b600061255b602583612a06565b915061256682612c7e565b604082019050919050565b600061257e603583612a06565b915061258982612ccd565b604082019050919050565b60006125a1602283612a06565b91506125ac82612d1c565b604082019050919050565b60006125c4601f83612a06565b91506125cf82612d6b565b602082019050919050565b60006125e7602183612a06565b91506125f282612d94565b604082019050919050565b60c082016000820151612613600085018261239a565b50602082015161262660208501826126f3565b50604082015161263960408501826126f3565b50606082015161264c60608501826126f3565b50608082015161265f60808501826126f3565b5060a082015161267260a08501826126f3565b50505050565b60c08201600082015161268e60008501826126f3565b5060208201516126a160208501826126f3565b5060408201516126b460408501826126f3565b5060608201516126c760608501826126f3565b5060808201516126da60808501826126f3565b5060a08201516126ed60a0850182612530565b50505050565b6126fc81612b6a565b82525050565b61270b81612b6a565b82525050565b600060208201905061272660008301846123a9565b92915050565b600060408201905061274160008301856123a9565b61274e6020830184612702565b9392505050565b600060e08201905061276a600083018a6123a9565b6127776020830189612702565b6127846040830188612702565b6127916060830187612702565b61279e6080830186612702565b6127ab60a083018561253f565b6127b860c0830184612702565b98975050505050505050565b600060208201905081810360008301526127de81846123b8565b905092915050565b600060208201905081810360008301526128008184612416565b905092915050565b600060208201905081810360008301526128228184612474565b905092915050565b6000602082019050818103600083015261284481846124d2565b905092915050565b6000602082019050612861600083018461253f565b92915050565b600060208201905081810360008301526128808161254e565b9050919050565b600060208201905081810360008301526128a081612571565b9050919050565b600060208201905081810360008301526128c081612594565b9050919050565b600060208201905081810360008301526128e0816125b7565b9050919050565b60006020820190508181036000830152612900816125da565b9050919050565b600060208201905061291c6000830184612702565b92915050565b6000819050602082019050919050565b6000819050602082019050919050565b6000819050602082019050919050565b6000819050602082019050919050565b600081519050919050565b600081519050919050565b600081519050919050565b600081519050919050565b6000602082019050919050565b6000602082019050919050565b6000602082019050919050565b6000602082019050919050565b600082825260208201905092915050565b600082825260208201905092915050565b600082825260208201905092915050565b600082825260208201905092915050565b600082825260208201905092915050565b6000612a2282612b6a565b9150612a2d83612b6a565b9250827fffffffffffffffffffffffffffffffffffffffffffffffffffffffffffffffff03821115612a6257612a61612bbd565b5b828201905092915050565b6000612a7882612b6a565b9150612a8383612b6a565b925082612a9357612a92612bec565b5b828204905092915050565b6000612aa982612b6a565b9150612ab483612b6a565b9250817fffffffffffffffffffffffffffffffffffffffffffffffffffffffffffffffff0483118215151615612aed57612aec612bbd565b5b828202905092915050565b6000612b0382612b6a565b9150612b0e83612b6a565b925082821015612b2157612b20612bbd565b5b828203905092915050565b6000612b3782612b4a565b9050919050565b60008115159050919050565b600073ffffffffffffffffffffffffffffffffffffffff82169050919050565b6000819050919050565b6000612b7f82612b6a565b91507fffffffffffffffffffffffffffffffffffffffffffffffffffffffffffffffff821415612bb257612bb1612bbd565b5b600182019050919050565b7f4e487b7100000000000000000000000000000000000000000000000000000000600052601160045260246000fd5b7f4e487b7100000000000000000000000000000000000000000000000000000000600052601260045260246000fd5b7f4e487b7100000000000000000000000000000000000000000000000000000000600052603260045260246000fd5b7f4e487b7100000000000000000000000000000000000000000000000000000000600052604160045260246000fd5b600080fd5b7f796f7520646f6e74206861766520696e766573746d656e7420746f207769746860008201527f647261776e000000000000000000000000000000000000000000000000000000602082015250565b7f76616c7565206973206e6f742067726561746572207468616e2031303030302060008201527f616e64206c657373207468616e20353030303030300000000000000000000000602082015250565b7f796f7520646f6e742068617665207265776172647320746f207769746864726160008201527f776e000000000000000000000000000000000000000000000000000000000000602082015250565b7f796f752063616e74207769746864726177206265666f72652031207965617200600082015250565b7f6f6e6c79204f776e65722063616e2063616c6c20746869732066756e6374696f60008201527f6e00000000000000000000000000000000000000000000000000000000000000602082015250565b612dec81612b2c565b8114612df757600080fd5b50565b612e0381612b3e565b8114612e0e57600080fd5b50565b612e1a81612b6a565b8114612e2557600080fd5b5056fea2646970667358221220c233d0e1d9518766ad991ea80c44033729fd97b8a15281a8cda5040adf42816964736f6c63430008070033",
					"opcodes": "PUSH1 0x80 PUSH1 0x40 MSTORE PUSH20 0xE9E7CEA3DEDCA5984780BAFC599BD69ADD087D56 PUSH1 0x1 PUSH1 0x0 PUSH2 0x100 EXP DUP2 SLOAD DUP2 PUSH20 0xFFFFFFFFFFFFFFFFFFFFFFFFFFFFFFFFFFFFFFFF MUL NOT AND SWAP1 DUP4 PUSH20 0xFFFFFFFFFFFFFFFFFFFFFFFFFFFFFFFFFFFFFFFF AND MUL OR SWAP1 SSTORE POP PUSH20 0xE9E7CEA3DEDCA5984780BAFC599BD69ADD087D56 PUSH1 0x2 PUSH1 0x0 PUSH2 0x100 EXP DUP2 SLOAD DUP2 PUSH20 0xFFFFFFFFFFFFFFFFFFFFFFFFFFFFFFFFFFFFFFFF MUL NOT AND SWAP1 DUP4 PUSH20 0xFFFFFFFFFFFFFFFFFFFFFFFFFFFFFFFFFFFFFFFF AND MUL OR SWAP1 SSTORE POP PUSH1 0xBF PUSH1 0x3 SSTORE PUSH8 0x4563918244F40000 PUSH1 0x5 SSTORE PUSH2 0x2710 PUSH1 0x6 SSTORE PUSH3 0x4C4B40 PUSH1 0x7 SSTORE PUSH3 0x186A0 PUSH1 0x8 SSTORE PUSH4 0x1E13380 PUSH1 0x9 SSTORE CALLVALUE DUP1 ISZERO PUSH2 0xE7 JUMPI PUSH1 0x0 DUP1 REVERT JUMPDEST POP CALLER PUSH1 0x0 DUP1 PUSH2 0x100 EXP DUP2 SLOAD DUP2 PUSH20 0xFFFFFFFFFFFFFFFFFFFFFFFFFFFFFFFFFFFFFFFF MUL NOT AND SWAP1 DUP4 PUSH20 0xFFFFFFFFFFFFFFFFFFFFFFFFFFFFFFFFFFFFFFFF AND MUL OR SWAP1 SSTORE POP PUSH2 0x2E5E DUP1 PUSH2 0x137 PUSH1 0x0 CODECOPY PUSH1 0x0 RETURN INVALID PUSH1 0x80 PUSH1 0x40 MSTORE CALLVALUE DUP1 ISZERO PUSH2 0x10 JUMPI PUSH1 0x0 DUP1 REVERT JUMPDEST POP PUSH1 0x4 CALLDATASIZE LT PUSH2 0x1A9 JUMPI PUSH1 0x0 CALLDATALOAD PUSH1 0xE0 SHR DUP1 PUSH4 0x5A4A0192 GT PUSH2 0xF9 JUMPI DUP1 PUSH4 0xC885BC58 GT PUSH2 0x97 JUMPI DUP1 PUSH4 0xF2FDE38B GT PUSH2 0x71 JUMPI DUP1 PUSH4 0xF2FDE38B EQ PUSH2 0x494 JUMPI DUP1 PUSH4 0xF790B81A EQ PUSH2 0x4B0 JUMPI DUP1 PUSH4 0xF7C618C1 EQ PUSH2 0x4CE JUMPI DUP1 PUSH4 0xFAE730BC EQ PUSH2 0x4EC JUMPI PUSH2 0x1A9 JUMP JUMPDEST DUP1 PUSH4 0xC885BC58 EQ PUSH2 0x422 JUMPI DUP1 PUSH4 0xD3560EE8 EQ PUSH2 0x440 JUMPI DUP1 PUSH4 0xE2033FCB EQ PUSH2 0x476 JUMPI PUSH2 0x1A9 JUMP JUMPDEST DUP1 PUSH4 0x929F6BBE GT PUSH2 0xD3 JUMPI DUP1 PUSH4 0x929F6BBE EQ PUSH2 0x3AA JUMPI DUP1 PUSH4 0x9740A1BC EQ PUSH2 0x3C8 JUMPI DUP1 PUSH4 0xA61BE99D EQ PUSH2 0x3E6 JUMPI DUP1 PUSH4 0xBC67EAFF EQ PUSH2 0x404 JUMPI PUSH2 0x1A9 JUMP JUMPDEST DUP1 PUSH4 0x5A4A0192 EQ PUSH2 0x350 JUMPI DUP1 PUSH4 0x73CF575A EQ PUSH2 0x36E JUMPI DUP1 PUSH4 0x8DA5CB5B EQ PUSH2 0x38C JUMPI PUSH2 0x1A9 JUMP JUMPDEST DUP1 PUSH4 0x3A1E0833 GT PUSH2 0x166 JUMPI DUP1 PUSH4 0x4EB1ECC9 GT PUSH2 0x140 JUMPI DUP1 PUSH4 0x4EB1ECC9 EQ PUSH2 0x2CA JUMPI DUP1 PUSH4 0x500CB85F EQ PUSH2 0x2E6 JUMPI DUP1 PUSH4 0x502C6BFA EQ PUSH2 0x302 JUMPI DUP1 PUSH4 0x523CDDFE EQ PUSH2 0x332 JUMPI PUSH2 0x1A9 JUMP JUMPDEST DUP1 PUSH4 0x3A1E0833 EQ PUSH2 0x270 JUMPI DUP1 PUSH4 0x3D18B912 EQ PUSH2 0x28E JUMPI DUP1 PUSH4 0x42508F66 EQ PUSH2 0x2AC JUMPI PUSH2 0x1A9 JUMP JUMPDEST DUP1 PUSH4 0xC5F58F4 EQ PUSH2 0x1AE JUMPI DUP1 PUSH4 0x10CDE60A EQ PUSH2 0x1CC JUMPI DUP1 PUSH4 0x1E8ABA35 EQ PUSH2 0x1EA JUMPI DUP1 PUSH4 0x227A473B EQ PUSH2 0x208 JUMPI DUP1 PUSH4 0x293BE456 EQ PUSH2 0x238 JUMPI DUP1 PUSH4 0x32D4E783 EQ PUSH2 0x254 JUMPI JUMPDEST PUSH1 0x0 DUP1 REVERT JUMPDEST PUSH2 0x1B6 PUSH2 0x50A JUMP JUMPDEST PUSH1 0x40 MLOAD PUSH2 0x1C3 SWAP2 SWAP1 PUSH2 0x27C4 JUMP JUMPDEST PUSH1 0x40 MLOAD DUP1 SWAP2 SUB SWAP1 RETURN JUMPDEST PUSH2 0x1D4 PUSH2 0x5D8 JUMP JUMPDEST PUSH1 0x40 MLOAD PUSH2 0x1E1 SWAP2 SWAP1 PUSH2 0x2907 JUMP JUMPDEST PUSH1 0x40 MLOAD DUP1 SWAP2 SUB SWAP1 RETURN JUMPDEST PUSH2 0x1F2 PUSH2 0x5DE JUMP JUMPDEST PUSH1 0x40 MLOAD PUSH2 0x1FF SWAP2 SWAP1 PUSH2 0x2907 JUMP JUMPDEST PUSH1 0x40 MLOAD DUP1 SWAP2 SUB SWAP1 RETURN JUMPDEST PUSH2 0x222 PUSH1 0x4 DUP1 CALLDATASIZE SUB DUP2 ADD SWAP1 PUSH2 0x21D SWAP2 SWAP1 PUSH2 0x22A6 JUMP JUMPDEST PUSH2 0x62B JUMP JUMPDEST PUSH1 0x40 MLOAD PUSH2 0x22F SWAP2 SWAP1 PUSH2 0x284C JUMP JUMPDEST PUSH1 0x40 MLOAD DUP1 SWAP2 SUB SWAP1 RETURN JUMPDEST PUSH2 0x252 PUSH1 0x4 DUP1 CALLDATASIZE SUB DUP2 ADD SWAP1 PUSH2 0x24D SWAP2 SWAP1 PUSH2 0x22A6 JUMP JUMPDEST PUSH2 0xADA JUMP JUMPDEST STOP JUMPDEST PUSH2 0x26E PUSH1 0x4 DUP1 CALLDATASIZE SUB DUP2 ADD SWAP1 PUSH2 0x269 SWAP2 SWAP1 PUSH2 0x22A6 JUMP JUMPDEST PUSH2 0xAE4 JUMP JUMPDEST STOP JUMPDEST PUSH2 0x278 PUSH2 0xAEE JUMP JUMPDEST PUSH1 0x40 MLOAD PUSH2 0x285 SWAP2 SWAP1 PUSH2 0x2808 JUMP JUMPDEST PUSH1 0x40 MLOAD DUP1 SWAP2 SUB SWAP1 RETURN JUMPDEST PUSH2 0x296 PUSH2 0xD7F JUMP JUMPDEST PUSH1 0x40 MLOAD PUSH2 0x2A3 SWAP2 SWAP1 PUSH2 0x2907 JUMP JUMPDEST PUSH1 0x40 MLOAD DUP1 SWAP2 SUB SWAP1 RETURN JUMPDEST PUSH2 0x2B4 PUSH2 0xFDA JUMP JUMPDEST PUSH1 0x40 MLOAD PUSH2 0x2C1 SWAP2 SWAP1 PUSH2 0x27E6 JUMP JUMPDEST PUSH1 0x40 MLOAD DUP1 SWAP2 SUB SWAP1 RETURN JUMPDEST PUSH2 0x2E4 PUSH1 0x4 DUP1 CALLDATASIZE SUB DUP2 ADD SWAP1 PUSH2 0x2DF SWAP2 SWAP1 PUSH2 0x22D3 JUMP JUMPDEST PUSH2 0x136C JUMP JUMPDEST STOP JUMPDEST PUSH2 0x300 PUSH1 0x4 DUP1 CALLDATASIZE SUB DUP2 ADD SWAP1 PUSH2 0x2FB SWAP2 SWAP1 PUSH2 0x22A6 JUMP JUMPDEST PUSH2 0x138E JUMP JUMPDEST STOP JUMPDEST PUSH2 0x31C PUSH1 0x4 DUP1 CALLDATASIZE SUB DUP2 ADD SWAP1 PUSH2 0x317 SWAP2 SWAP1 PUSH2 0x22A6 JUMP JUMPDEST PUSH2 0x1398 JUMP JUMPDEST PUSH1 0x40 MLOAD PUSH2 0x329 SWAP2 SWAP1 PUSH2 0x2711 JUMP JUMPDEST PUSH1 0x40 MLOAD DUP1 SWAP2 SUB SWAP1 RETURN JUMPDEST PUSH2 0x33A PUSH2 0x13CB JUMP JUMPDEST PUSH1 0x40 MLOAD PUSH2 0x347 SWAP2 SWAP1 PUSH2 0x2907 JUMP JUMPDEST PUSH1 0x40 MLOAD DUP1 SWAP2 SUB SWAP1 RETURN JUMPDEST PUSH2 0x358 PUSH2 0x13D1 JUMP JUMPDEST PUSH1 0x40 MLOAD PUSH2 0x365 SWAP2 SWAP1 PUSH2 0x2907 JUMP JUMPDEST PUSH1 0x40 MLOAD DUP1 SWAP2 SUB SWAP1 RETURN JUMPDEST PUSH2 0x376 PUSH2 0x1420 JUMP JUMPDEST PUSH1 0x40 MLOAD PUSH2 0x383 SWAP2 SWAP1 PUSH2 0x284C JUMP JUMPDEST PUSH1 0x40 MLOAD DUP1 SWAP2 SUB SWAP1 RETURN JUMPDEST PUSH2 0x394 PUSH2 0x1803 JUMP JUMPDEST PUSH1 0x40 MLOAD PUSH2 0x3A1 SWAP2 SWAP1 PUSH2 0x2711 JUMP JUMPDEST PUSH1 0x40 MLOAD DUP1 SWAP2 SUB SWAP1 RETURN JUMPDEST PUSH2 0x3B2 PUSH2 0x1827 JUMP JUMPDEST PUSH1 0x40 MLOAD PUSH2 0x3BF SWAP2 SWAP1 PUSH2 0x2907 JUMP JUMPDEST PUSH1 0x40 MLOAD DUP1 SWAP2 SUB SWAP1 RETURN JUMPDEST PUSH2 0x3D0 PUSH2 0x1871 JUMP JUMPDEST PUSH1 0x40 MLOAD PUSH2 0x3DD SWAP2 SWAP1 PUSH2 0x2907 JUMP JUMPDEST PUSH1 0x40 MLOAD DUP1 SWAP2 SUB SWAP1 RETURN JUMPDEST PUSH2 0x3EE PUSH2 0x1877 JUMP JUMPDEST PUSH1 0x40 MLOAD PUSH2 0x3FB SWAP2 SWAP1 PUSH2 0x282A JUMP JUMPDEST PUSH1 0x40 MLOAD DUP1 SWAP2 SUB SWAP1 RETURN JUMPDEST PUSH2 0x40C PUSH2 0x19EA JUMP JUMPDEST PUSH1 0x40 MLOAD PUSH2 0x419 SWAP2 SWAP1 PUSH2 0x2907 JUMP JUMPDEST PUSH1 0x40 MLOAD DUP1 SWAP2 SUB SWAP1 RETURN JUMPDEST PUSH2 0x42A PUSH2 0x19F0 JUMP JUMPDEST PUSH1 0x40 MLOAD PUSH2 0x437 SWAP2 SWAP1 PUSH2 0x284C JUMP JUMPDEST PUSH1 0x40 MLOAD DUP1 SWAP2 SUB SWAP1 RETURN JUMPDEST PUSH2 0x45A PUSH1 0x4 DUP1 CALLDATASIZE SUB DUP2 ADD SWAP1 PUSH2 0x455 SWAP2 SWAP1 PUSH2 0x224C JUMP JUMPDEST PUSH2 0x1B64 JUMP JUMPDEST PUSH1 0x40 MLOAD PUSH2 0x46D SWAP8 SWAP7 SWAP6 SWAP5 SWAP4 SWAP3 SWAP2 SWAP1 PUSH2 0x2755 JUMP JUMPDEST PUSH1 0x40 MLOAD DUP1 SWAP2 SUB SWAP1 RETURN JUMPDEST PUSH2 0x47E PUSH2 0x1BD3 JUMP JUMPDEST PUSH1 0x40 MLOAD PUSH2 0x48B SWAP2 SWAP1 PUSH2 0x2907 JUMP JUMPDEST PUSH1 0x40 MLOAD DUP1 SWAP2 SUB SWAP1 RETURN JUMPDEST PUSH2 0x4AE PUSH1 0x4 DUP1 CALLDATASIZE SUB DUP2 ADD SWAP1 PUSH2 0x4A9 SWAP2 SWAP1 PUSH2 0x224C JUMP JUMPDEST PUSH2 0x1BD9 JUMP JUMPDEST STOP JUMPDEST PUSH2 0x4B8 PUSH2 0x1CAA JUMP JUMPDEST PUSH1 0x40 MLOAD PUSH2 0x4C5 SWAP2 SWAP1 PUSH2 0x282A JUMP JUMPDEST PUSH1 0x40 MLOAD DUP1 SWAP2 SUB SWAP1 RETURN JUMPDEST PUSH2 0x4D6 PUSH2 0x1E1D JUMP JUMPDEST PUSH1 0x40 MLOAD PUSH2 0x4E3 SWAP2 SWAP1 PUSH2 0x2907 JUMP JUMPDEST PUSH1 0x40 MLOAD DUP1 SWAP2 SUB SWAP1 RETURN JUMPDEST PUSH2 0x4F4 PUSH2 0x1E23 JUMP JUMPDEST PUSH1 0x40 MLOAD PUSH2 0x501 SWAP2 SWAP1 PUSH2 0x2907 JUMP JUMPDEST PUSH1 0x40 MLOAD DUP1 SWAP2 SUB SWAP1 RETURN JUMPDEST PUSH1 0x60 PUSH1 0xD PUSH1 0x0 CALLER PUSH20 0xFFFFFFFFFFFFFFFFFFFFFFFFFFFFFFFFFFFFFFFF AND PUSH20 0xFFFFFFFFFFFFFFFFFFFFFFFFFFFFFFFFFFFFFFFF AND DUP2 MSTORE PUSH1 0x20 ADD SWAP1 DUP2 MSTORE PUSH1 0x20 ADD PUSH1 0x0 KECCAK256 PUSH1 0x1 ADD DUP1 SLOAD DUP1 PUSH1 0x20 MUL PUSH1 0x20 ADD PUSH1 0x40 MLOAD SWAP1 DUP2 ADD PUSH1 0x40 MSTORE DUP1 SWAP3 SWAP2 SWAP1 DUP2 DUP2 MSTORE PUSH1 0x20 ADD DUP3 DUP1 SLOAD DUP1 ISZERO PUSH2 0x5CE JUMPI PUSH1 0x20 MUL DUP3 ADD SWAP2 SWAP1 PUSH1 0x0 MSTORE PUSH1 0x20 PUSH1 0x0 KECCAK256 SWAP1 JUMPDEST DUP2 PUSH1 0x0 SWAP1 SLOAD SWAP1 PUSH2 0x100 EXP SWAP1 DIV PUSH20 0xFFFFFFFFFFFFFFFFFFFFFFFFFFFFFFFFFFFFFFFF AND PUSH20 0xFFFFFFFFFFFFFFFFFFFFFFFFFFFFFFFFFFFFFFFF AND DUP2 MSTORE PUSH1 0x20 ADD SWAP1 PUSH1 0x1 ADD SWAP1 DUP1 DUP4 GT PUSH2 0x584 JUMPI JUMPDEST POP POP POP POP POP SWAP1 POP SWAP1 JUMP JUMPDEST PUSH1 0x4 SLOAD DUP2 JUMP JUMPDEST PUSH1 0x0 PUSH1 0xD PUSH1 0x0 CALLER PUSH20 0xFFFFFFFFFFFFFFFFFFFFFFFFFFFFFFFFFFFFFFFF AND PUSH20 0xFFFFFFFFFFFFFFFFFFFFFFFFFFFFFFFFFFFFFFFF AND DUP2 MSTORE PUSH1 0x20 ADD SWAP1 DUP2 MSTORE PUSH1 0x20 ADD PUSH1 0x0 KECCAK256 PUSH1 0x1 ADD DUP1 SLOAD SWAP1 POP SWAP1 POP SWAP1 JUMP JUMPDEST PUSH1 0x0 PUSH1 0x6 SLOAD DUP3 LT ISZERO DUP1 ISZERO PUSH2 0x641 JUMPI POP PUSH1 0x7 SLOAD DUP3 GT ISZERO JUMPDEST PUSH2 0x680 JUMPI PUSH1 0x40 MLOAD PUSH32 0x8C379A000000000000000000000000000000000000000000000000000000000 DUP2 MSTORE PUSH1 0x4 ADD PUSH2 0x677 SWAP1 PUSH2 0x2887 JUMP JUMPDEST PUSH1 0x40 MLOAD DUP1 SWAP2 SUB SWAP1 REVERT JUMPDEST PUSH1 0x0 ISZERO ISZERO PUSH1 0xD PUSH1 0x0 CALLER PUSH20 0xFFFFFFFFFFFFFFFFFFFFFFFFFFFFFFFFFFFFFFFF AND PUSH20 0xFFFFFFFFFFFFFFFFFFFFFFFFFFFFFFFFFFFFFFFF AND DUP2 MSTORE PUSH1 0x20 ADD SWAP1 DUP2 MSTORE PUSH1 0x20 ADD PUSH1 0x0 KECCAK256 PUSH1 0x8 ADD PUSH1 0x0 SWAP1 SLOAD SWAP1 PUSH2 0x100 EXP SWAP1 DIV PUSH1 0xFF AND ISZERO ISZERO EQ ISZERO PUSH2 0x749 JUMPI CALLER PUSH1 0xC PUSH1 0x0 PUSH1 0x4 SLOAD DUP2 MSTORE PUSH1 0x20 ADD SWAP1 DUP2 MSTORE PUSH1 0x20 ADD PUSH1 0x0 KECCAK256 PUSH1 0x0 PUSH2 0x100 EXP DUP2 SLOAD DUP2 PUSH20 0xFFFFFFFFFFFFFFFFFFFFFFFFFFFFFFFFFFFFFFFF MUL NOT AND SWAP1 DUP4 PUSH20 0xFFFFFFFFFFFFFFFFFFFFFFFFFFFFFFFFFFFFFFFF AND MUL OR SWAP1 SSTORE POP PUSH1 0x4 PUSH1 0x0 DUP2 SLOAD DUP1 SWAP3 SWAP2 SWAP1 PUSH2 0x743 SWAP1 PUSH2 0x2B74 JUMP JUMPDEST SWAP2 SWAP1 POP SSTORE POP JUMPDEST PUSH1 0x0 PUSH1 0xD PUSH1 0x0 CALLER PUSH20 0xFFFFFFFFFFFFFFFFFFFFFFFFFFFFFFFFFFFFFFFF AND PUSH20 0xFFFFFFFFFFFFFFFFFFFFFFFFFFFFFFFFFFFFFFFF AND DUP2 MSTORE PUSH1 0x20 ADD SWAP1 DUP2 MSTORE PUSH1 0x20 ADD PUSH1 0x0 KECCAK256 PUSH1 0x6 ADD SLOAD EQ ISZERO PUSH2 0x7EB JUMPI PUSH4 0x1E13380 TIMESTAMP PUSH2 0x7A4 SWAP2 SWAP1 PUSH2 0x2A17 JUMP JUMPDEST PUSH1 0xD PUSH1 0x0 CALLER PUSH20 0xFFFFFFFFFFFFFFFFFFFFFFFFFFFFFFFFFFFFFFFF AND PUSH20 0xFFFFFFFFFFFFFFFFFFFFFFFFFFFFFFFFFFFFFFFF AND DUP2 MSTORE PUSH1 0x20 ADD SWAP1 DUP2 MSTORE PUSH1 0x20 ADD PUSH1 0x0 KECCAK256 PUSH1 0x9 ADD DUP2 SWAP1 SSTORE POP JUMPDEST PUSH1 0x0 PUSH1 0xD PUSH1 0x0 CALLER PUSH20 0xFFFFFFFFFFFFFFFFFFFFFFFFFFFFFFFFFFFFFFFF AND PUSH20 0xFFFFFFFFFFFFFFFFFFFFFFFFFFFFFFFFFFFFFFFF AND DUP2 MSTORE PUSH1 0x20 ADD SWAP1 DUP2 MSTORE PUSH1 0x20 ADD PUSH1 0x0 KECCAK256 PUSH1 0x5 ADD SLOAD SWAP1 POP DUP3 PUSH1 0xD PUSH1 0x0 CALLER PUSH20 0xFFFFFFFFFFFFFFFFFFFFFFFFFFFFFFFFFFFFFFFF AND PUSH20 0xFFFFFFFFFFFFFFFFFFFFFFFFFFFFFFFFFFFFFFFF AND DUP2 MSTORE PUSH1 0x20 ADD SWAP1 DUP2 MSTORE PUSH1 0x20 ADD PUSH1 0x0 KECCAK256 PUSH1 0x0 ADD PUSH1 0x0 DUP4 DUP2 MSTORE PUSH1 0x20 ADD SWAP1 DUP2 MSTORE PUSH1 0x20 ADD PUSH1 0x0 KECCAK256 PUSH1 0x0 ADD DUP2 SWAP1 SSTORE POP TIMESTAMP PUSH1 0xD PUSH1 0x0 CALLER PUSH20 0xFFFFFFFFFFFFFFFFFFFFFFFFFFFFFFFFFFFFFFFF AND PUSH20 0xFFFFFFFFFFFFFFFFFFFFFFFFFFFFFFFFFFFFFFFF AND DUP2 MSTORE PUSH1 0x20 ADD SWAP1 DUP2 MSTORE PUSH1 0x20 ADD PUSH1 0x0 KECCAK256 PUSH1 0x0 ADD PUSH1 0x0 DUP4 DUP2 MSTORE PUSH1 0x20 ADD SWAP1 DUP2 MSTORE PUSH1 0x20 ADD PUSH1 0x0 KECCAK256 PUSH1 0x2 ADD DUP2 SWAP1 SSTORE POP PUSH1 0x9 SLOAD TIMESTAMP PUSH2 0x8F6 SWAP2 SWAP1 PUSH2 0x2A17 JUMP JUMPDEST PUSH1 0xD PUSH1 0x0 CALLER PUSH20 0xFFFFFFFFFFFFFFFFFFFFFFFFFFFFFFFFFFFFFFFF AND PUSH20 0xFFFFFFFFFFFFFFFFFFFFFFFFFFFFFFFFFFFFFFFF AND DUP2 MSTORE PUSH1 0x20 ADD SWAP1 DUP2 MSTORE PUSH1 0x20 ADD PUSH1 0x0 KECCAK256 PUSH1 0x0 ADD PUSH1 0x0 DUP4 DUP2 MSTORE PUSH1 0x20 ADD SWAP1 DUP2 MSTORE PUSH1 0x20 ADD PUSH1 0x0 KECCAK256 PUSH1 0x1 ADD DUP2 SWAP1 SSTORE POP DUP1 PUSH1 0xD PUSH1 0x0 CALLER PUSH20 0xFFFFFFFFFFFFFFFFFFFFFFFFFFFFFFFFFFFFFFFF AND PUSH20 0xFFFFFFFFFFFFFFFFFFFFFFFFFFFFFFFFFFFFFFFF AND DUP2 MSTORE PUSH1 0x20 ADD SWAP1 DUP2 MSTORE PUSH1 0x20 ADD PUSH1 0x0 KECCAK256 PUSH1 0x0 ADD PUSH1 0x0 DUP4 DUP2 MSTORE PUSH1 0x20 ADD SWAP1 DUP2 MSTORE PUSH1 0x20 ADD PUSH1 0x0 KECCAK256 PUSH1 0x3 ADD DUP2 SWAP1 SSTORE POP DUP3 PUSH1 0xD PUSH1 0x0 CALLER PUSH20 0xFFFFFFFFFFFFFFFFFFFFFFFFFFFFFFFFFFFFFFFF AND PUSH20 0xFFFFFFFFFFFFFFFFFFFFFFFFFFFFFFFFFFFFFFFF AND DUP2 MSTORE PUSH1 0x20 ADD SWAP1 DUP2 MSTORE PUSH1 0x20 ADD PUSH1 0x0 KECCAK256 PUSH1 0x6 ADD PUSH1 0x0 DUP3 DUP3 SLOAD PUSH2 0x9FD SWAP2 SWAP1 PUSH2 0x2A17 JUMP JUMPDEST SWAP3 POP POP DUP2 SWAP1 SSTORE POP PUSH1 0xD PUSH1 0x0 CALLER PUSH20 0xFFFFFFFFFFFFFFFFFFFFFFFFFFFFFFFFFFFFFFFF AND PUSH20 0xFFFFFFFFFFFFFFFFFFFFFFFFFFFFFFFFFFFFFFFF AND DUP2 MSTORE PUSH1 0x20 ADD SWAP1 DUP2 MSTORE PUSH1 0x20 ADD PUSH1 0x0 KECCAK256 PUSH1 0x5 ADD PUSH1 0x0 DUP2 SLOAD DUP1 SWAP3 SWAP2 SWAP1 PUSH2 0xA57 SWAP1 PUSH2 0x2B74 JUMP JUMPDEST SWAP2 SWAP1 POP SSTORE POP DUP3 PUSH1 0xA PUSH1 0x0 DUP3 DUP3 SLOAD PUSH2 0xA6E SWAP2 SWAP1 PUSH2 0x2A17 JUMP JUMPDEST SWAP3 POP POP DUP2 SWAP1 SSTORE POP PUSH1 0x1 PUSH1 0xD PUSH1 0x0 CALLER PUSH20 0xFFFFFFFFFFFFFFFFFFFFFFFFFFFFFFFFFFFFFFFF AND PUSH20 0xFFFFFFFFFFFFFFFFFFFFFFFFFFFFFFFFFFFFFFFF AND DUP2 MSTORE PUSH1 0x20 ADD SWAP1 DUP2 MSTORE PUSH1 0x20 ADD PUSH1 0x0 KECCAK256 PUSH1 0x8 ADD PUSH1 0x0 PUSH2 0x100 EXP DUP2 SLOAD DUP2 PUSH1 0xFF MUL NOT AND SWAP1 DUP4 ISZERO ISZERO MUL OR SWAP1 SSTORE POP PUSH1 0x1 SWAP2 POP POP SWAP2 SWAP1 POP JUMP JUMPDEST DUP1 PUSH1 0x3 DUP2 SWAP1 SSTORE POP POP JUMP JUMPDEST DUP1 PUSH1 0x6 DUP2 SWAP1 SSTORE POP POP JUMP JUMPDEST PUSH1 0x60 PUSH1 0x0 PUSH1 0xD PUSH1 0x0 CALLER PUSH20 0xFFFFFFFFFFFFFFFFFFFFFFFFFFFFFFFFFFFFFFFF AND PUSH20 0xFFFFFFFFFFFFFFFFFFFFFFFFFFFFFFFFFFFFFFFF AND DUP2 MSTORE PUSH1 0x20 ADD SWAP1 DUP2 MSTORE PUSH1 0x20 ADD PUSH1 0x0 KECCAK256 PUSH1 0x5 ADD SLOAD SWAP1 POP PUSH1 0x0 DUP1 PUSH1 0x0 JUMPDEST DUP4 DUP2 LT ISZERO PUSH2 0xBC6 JUMPI PUSH1 0x0 PUSH1 0xD PUSH1 0x0 CALLER PUSH20 0xFFFFFFFFFFFFFFFFFFFFFFFFFFFFFFFFFFFFFFFF AND PUSH20 0xFFFFFFFFFFFFFFFFFFFFFFFFFFFFFFFFFFFFFFFF AND DUP2 MSTORE PUSH1 0x20 ADD SWAP1 DUP2 MSTORE PUSH1 0x20 ADD PUSH1 0x0 KECCAK256 PUSH1 0x0 ADD PUSH1 0x0 DUP4 DUP2 MSTORE PUSH1 0x20 ADD SWAP1 DUP2 MSTORE PUSH1 0x20 ADD PUSH1 0x0 KECCAK256 PUSH1 0x0 ADD SLOAD GT ISZERO PUSH2 0xBB3 JUMPI DUP3 DUP1 PUSH2 0xBAF SWAP1 PUSH2 0x2B74 JUMP JUMPDEST SWAP4 POP POP JUMPDEST DUP1 DUP1 PUSH2 0xBBE SWAP1 PUSH2 0x2B74 JUMP JUMPDEST SWAP2 POP POP PUSH2 0xB3D JUMP JUMPDEST POP PUSH1 0x0 DUP3 PUSH8 0xFFFFFFFFFFFFFFFF DUP2 GT ISZERO PUSH2 0xBE3 JUMPI PUSH2 0xBE2 PUSH2 0x2C4A JUMP JUMPDEST JUMPDEST PUSH1 0x40 MLOAD SWAP1 DUP1 DUP3 MSTORE DUP1 PUSH1 0x20 MUL PUSH1 0x20 ADD DUP3 ADD PUSH1 0x40 MSTORE DUP1 ISZERO PUSH2 0xC1C JUMPI DUP2 PUSH1 0x20 ADD JUMPDEST PUSH2 0xC09 PUSH2 0x2189 JUMP JUMPDEST DUP2 MSTORE PUSH1 0x20 ADD SWAP1 PUSH1 0x1 SWAP1 SUB SWAP1 DUP2 PUSH2 0xC01 JUMPI SWAP1 POP JUMPDEST POP SWAP1 POP PUSH1 0x0 JUMPDEST DUP5 DUP2 LT ISZERO PUSH2 0xD74 JUMPI PUSH1 0x0 PUSH1 0xD PUSH1 0x0 CALLER PUSH20 0xFFFFFFFFFFFFFFFFFFFFFFFFFFFFFFFFFFFFFFFF AND PUSH20 0xFFFFFFFFFFFFFFFFFFFFFFFFFFFFFFFFFFFFFFFF AND DUP2 MSTORE PUSH1 0x20 ADD SWAP1 DUP2 MSTORE PUSH1 0x20 ADD PUSH1 0x0 KECCAK256 PUSH1 0x0 ADD PUSH1 0x0 DUP4 DUP2 MSTORE PUSH1 0x20 ADD SWAP1 DUP2 MSTORE PUSH1 0x20 ADD PUSH1 0x0 KECCAK256 PUSH1 0x0 ADD SLOAD GT ISZERO PUSH2 0xD61 JUMPI PUSH1 0xD PUSH1 0x0 CALLER PUSH20 0xFFFFFFFFFFFFFFFFFFFFFFFFFFFFFFFFFFFFFFFF AND PUSH20 0xFFFFFFFFFFFFFFFFFFFFFFFFFFFFFFFFFFFFFFFF AND DUP2 MSTORE PUSH1 0x20 ADD SWAP1 DUP2 MSTORE PUSH1 0x20 ADD PUSH1 0x0 KECCAK256 PUSH1 0x0 ADD PUSH1 0x0 DUP3 DUP2 MSTORE PUSH1 0x20 ADD SWAP1 DUP2 MSTORE PUSH1 0x20 ADD PUSH1 0x0 KECCAK256 PUSH1 0x40 MLOAD DUP1 PUSH1 0xC0 ADD PUSH1 0x40 MSTORE SWAP1 DUP2 PUSH1 0x0 DUP3 ADD SLOAD DUP2 MSTORE PUSH1 0x20 ADD PUSH1 0x1 DUP3 ADD SLOAD DUP2 MSTORE PUSH1 0x20 ADD PUSH1 0x2 DUP3 ADD SLOAD DUP2 MSTORE PUSH1 0x20 ADD PUSH1 0x3 DUP3 ADD SLOAD DUP2 MSTORE PUSH1 0x20 ADD PUSH1 0x4 DUP3 ADD SLOAD DUP2 MSTORE PUSH1 0x20 ADD PUSH1 0x5 DUP3 ADD PUSH1 0x0 SWAP1 SLOAD SWAP1 PUSH2 0x100 EXP SWAP1 DIV PUSH1 0xFF AND ISZERO ISZERO ISZERO ISZERO DUP2 MSTORE POP POP DUP3 DUP5 DUP2 MLOAD DUP2 LT PUSH2 0xD47 JUMPI PUSH2 0xD46 PUSH2 0x2C1B JUMP JUMPDEST JUMPDEST PUSH1 0x20 MUL PUSH1 0x20 ADD ADD DUP2 SWAP1 MSTORE POP DUP3 DUP1 PUSH2 0xD5D SWAP1 PUSH2 0x2B74 JUMP JUMPDEST SWAP4 POP POP JUMPDEST DUP1 DUP1 PUSH2 0xD6C SWAP1 PUSH2 0x2B74 JUMP JUMPDEST SWAP2 POP POP PUSH2 0xC22 JUMP JUMPDEST POP DUP1 SWAP5 POP POP POP POP POP SWAP1 JUMP JUMPDEST PUSH1 0x0 DUP1 PUSH1 0x0 DUP1 PUSH1 0x0 PUSH1 0xD PUSH1 0x0 CALLER PUSH20 0xFFFFFFFFFFFFFFFFFFFFFFFFFFFFFFFFFFFFFFFF AND PUSH20 0xFFFFFFFFFFFFFFFFFFFFFFFFFFFFFFFFFFFFFFFF AND DUP2 MSTORE PUSH1 0x20 ADD SWAP1 DUP2 MSTORE PUSH1 0x20 ADD PUSH1 0x0 KECCAK256 PUSH1 0x5 ADD SLOAD SWAP1 POP PUSH1 0x0 DUP2 DUP2 LT ISZERO PUSH2 0xF7E JUMPI PUSH1 0xD PUSH1 0x0 CALLER PUSH20 0xFFFFFFFFFFFFFFFFFFFFFFFFFFFFFFFFFFFFFFFF AND PUSH20 0xFFFFFFFFFFFFFFFFFFFFFFFFFFFFFFFFFFFFFFFF AND DUP2 MSTORE PUSH1 0x20 ADD SWAP1 DUP2 MSTORE PUSH1 0x20 ADD PUSH1 0x0 KECCAK256 PUSH1 0x0 ADD PUSH1 0x0 DUP3 DUP2 MSTORE PUSH1 0x20 ADD SWAP1 DUP2 MSTORE PUSH1 0x20 ADD PUSH1 0x0 KECCAK256 PUSH1 0x5 ADD PUSH1 0x0 SWAP1 SLOAD SWAP1 PUSH2 0x100 EXP SWAP1 DIV PUSH1 0xFF AND PUSH2 0xEA7 JUMPI PUSH1 0xD PUSH1 0x0 CALLER PUSH20 0xFFFFFFFFFFFFFFFFFFFFFFFFFFFFFFFFFFFFFFFF AND PUSH20 0xFFFFFFFFFFFFFFFFFFFFFFFFFFFFFFFFFFFFFFFF AND DUP2 MSTORE PUSH1 0x20 ADD SWAP1 DUP2 MSTORE PUSH1 0x20 ADD PUSH1 0x0 KECCAK256 PUSH1 0x0 ADD PUSH1 0x0 DUP3 DUP2 MSTORE PUSH1 0x20 ADD SWAP1 DUP2 MSTORE PUSH1 0x20 ADD PUSH1 0x0 KECCAK256 PUSH1 0x2 ADD SLOAD TIMESTAMP PUSH2 0xEA0 SWAP2 SWAP1 PUSH2 0x2AF8 JUMP JUMPDEST SWAP4 POP PUSH2 0xF62 JUMP JUMPDEST PUSH1 0xD PUSH1 0x0 CALLER PUSH20 0xFFFFFFFFFFFFFFFFFFFFFFFFFFFFFFFFFFFFFFFF AND PUSH20 0xFFFFFFFFFFFFFFFFFFFFFFFFFFFFFFFFFFFFFFFF AND DUP2 MSTORE PUSH1 0x20 ADD SWAP1 DUP2 MSTORE PUSH1 0x20 ADD PUSH1 0x0 KECCAK256 PUSH1 0x0 ADD PUSH1 0x0 DUP3 DUP2 MSTORE PUSH1 0x20 ADD SWAP1 DUP2 MSTORE PUSH1 0x20 ADD PUSH1 0x0 KECCAK256 PUSH1 0x2 ADD SLOAD PUSH1 0xD PUSH1 0x0 CALLER PUSH20 0xFFFFFFFFFFFFFFFFFFFFFFFFFFFFFFFFFFFFFFFF AND PUSH20 0xFFFFFFFFFFFFFFFFFFFFFFFFFFFFFFFFFFFFFFFF AND DUP2 MSTORE PUSH1 0x20 ADD SWAP1 DUP2 MSTORE PUSH1 0x20 ADD PUSH1 0x0 KECCAK256 PUSH1 0x0 ADD PUSH1 0x0 DUP4 DUP2 MSTORE PUSH1 0x20 ADD SWAP1 DUP2 MSTORE PUSH1 0x20 ADD PUSH1 0x0 KECCAK256 PUSH1 0x4 ADD SLOAD PUSH2 0xF5F SWAP2 SWAP1 PUSH2 0x2AF8 JUMP JUMPDEST SWAP4 POP JUMPDEST PUSH1 0x3C DUP5 PUSH2 0xF6F SWAP2 SWAP1 PUSH2 0x2A6D JUMP JUMPDEST SWAP4 POP DUP4 SWAP6 POP POP POP POP POP POP PUSH2 0xFD7 JUMP JUMPDEST POP PUSH1 0xD PUSH1 0x0 CALLER PUSH20 0xFFFFFFFFFFFFFFFFFFFFFFFFFFFFFFFFFFFFFFFF AND PUSH20 0xFFFFFFFFFFFFFFFFFFFFFFFFFFFFFFFFFFFFFFFF AND DUP2 MSTORE PUSH1 0x20 ADD SWAP1 DUP2 MSTORE PUSH1 0x20 ADD PUSH1 0x0 KECCAK256 PUSH1 0x7 ADD SLOAD DUP5 PUSH2 0xFCD SWAP2 SWAP1 PUSH2 0x2AF8 JUMP JUMPDEST SWAP4 POP DUP4 SWAP5 POP POP POP POP POP JUMPDEST SWAP1 JUMP JUMPDEST PUSH1 0x60 PUSH1 0x0 PUSH1 0x4 SLOAD PUSH8 0xFFFFFFFFFFFFFFFF DUP2 GT ISZERO PUSH2 0xFFA JUMPI PUSH2 0xFF9 PUSH2 0x2C4A JUMP JUMPDEST JUMPDEST PUSH1 0x40 MLOAD SWAP1 DUP1 DUP3 MSTORE DUP1 PUSH1 0x20 MUL PUSH1 0x20 ADD DUP3 ADD PUSH1 0x40 MSTORE DUP1 ISZERO PUSH2 0x1033 JUMPI DUP2 PUSH1 0x20 ADD JUMPDEST PUSH2 0x1020 PUSH2 0x21C1 JUMP JUMPDEST DUP2 MSTORE PUSH1 0x20 ADD SWAP1 PUSH1 0x1 SWAP1 SUB SWAP1 DUP2 PUSH2 0x1018 JUMPI SWAP1 POP JUMPDEST POP SWAP1 POP PUSH1 0x0 JUMPDEST PUSH1 0x4 SLOAD DUP2 LT ISZERO PUSH2 0x1364 JUMPI PUSH1 0xC PUSH1 0x0 DUP3 DUP2 MSTORE PUSH1 0x20 ADD SWAP1 DUP2 MSTORE PUSH1 0x20 ADD PUSH1 0x0 KECCAK256 PUSH1 0x0 SWAP1 SLOAD SWAP1 PUSH2 0x100 EXP SWAP1 DIV PUSH20 0xFFFFFFFFFFFFFFFFFFFFFFFFFFFFFFFFFFFFFFFF AND DUP3 DUP3 DUP2 MLOAD DUP2 LT PUSH2 0x108A JUMPI PUSH2 0x1089 PUSH2 0x2C1B JUMP JUMPDEST JUMPDEST PUSH1 0x20 MUL PUSH1 0x20 ADD ADD MLOAD PUSH1 0x0 ADD SWAP1 PUSH20 0xFFFFFFFFFFFFFFFFFFFFFFFFFFFFFFFFFFFFFFFF AND SWAP1 DUP2 PUSH20 0xFFFFFFFFFFFFFFFFFFFFFFFFFFFFFFFFFFFFFFFF AND DUP2 MSTORE POP POP PUSH1 0xD PUSH1 0x0 PUSH1 0xC PUSH1 0x0 DUP5 DUP2 MSTORE PUSH1 0x20 ADD SWAP1 DUP2 MSTORE PUSH1 0x20 ADD PUSH1 0x0 KECCAK256 PUSH1 0x0 SWAP1 SLOAD SWAP1 PUSH2 0x100 EXP SWAP1 DIV PUSH20 0xFFFFFFFFFFFFFFFFFFFFFFFFFFFFFFFFFFFFFFFF AND PUSH20 0xFFFFFFFFFFFFFFFFFFFFFFFFFFFFFFFFFFFFFFFF AND PUSH20 0xFFFFFFFFFFFFFFFFFFFFFFFFFFFFFFFFFFFFFFFF AND DUP2 MSTORE PUSH1 0x20 ADD SWAP1 DUP2 MSTORE PUSH1 0x20 ADD PUSH1 0x0 KECCAK256 PUSH1 0x6 ADD SLOAD DUP3 DUP3 DUP2 MLOAD DUP2 LT PUSH2 0x1151 JUMPI PUSH2 0x1150 PUSH2 0x2C1B JUMP JUMPDEST JUMPDEST PUSH1 0x20 MUL PUSH1 0x20 ADD ADD MLOAD PUSH1 0x20 ADD DUP2 DUP2 MSTORE POP POP PUSH2 0x119D PUSH1 0xC PUSH1 0x0 DUP4 DUP2 MSTORE PUSH1 0x20 ADD SWAP1 DUP2 MSTORE PUSH1 0x20 ADD PUSH1 0x0 KECCAK256 PUSH1 0x0 SWAP1 SLOAD SWAP1 PUSH2 0x100 EXP SWAP1 DIV PUSH20 0xFFFFFFFFFFFFFFFFFFFFFFFFFFFFFFFFFFFFFFFF AND PUSH2 0x1E29 JUMP JUMPDEST DUP3 DUP3 DUP2 MLOAD DUP2 LT PUSH2 0x11B0 JUMPI PUSH2 0x11AF PUSH2 0x2C1B JUMP JUMPDEST JUMPDEST PUSH1 0x20 MUL PUSH1 0x20 ADD ADD MLOAD PUSH1 0x40 ADD DUP2 DUP2 MSTORE POP POP PUSH1 0xD PUSH1 0x0 PUSH1 0xC PUSH1 0x0 DUP5 DUP2 MSTORE PUSH1 0x20 ADD SWAP1 DUP2 MSTORE PUSH1 0x20 ADD PUSH1 0x0 KECCAK256 PUSH1 0x0 SWAP1 SLOAD SWAP1 PUSH2 0x100 EXP SWAP1 DIV PUSH20 0xFFFFFFFFFFFFFFFFFFFFFFFFFFFFFFFFFFFFFFFF AND PUSH20 0xFFFFFFFFFFFFFFFFFFFFFFFFFFFFFFFFFFFFFFFF AND PUSH20 0xFFFFFFFFFFFFFFFFFFFFFFFFFFFFFFFFFFFFFFFF AND DUP2 MSTORE PUSH1 0x20 ADD SWAP1 DUP2 MSTORE PUSH1 0x20 ADD PUSH1 0x0 KECCAK256 PUSH1 0x5 ADD SLOAD DUP3 DUP3 DUP2 MLOAD DUP2 LT PUSH2 0x1249 JUMPI PUSH2 0x1248 PUSH2 0x2C1B JUMP JUMPDEST JUMPDEST PUSH1 0x20 MUL PUSH1 0x20 ADD ADD MLOAD PUSH1 0x60 ADD DUP2 DUP2 MSTORE POP POP PUSH1 0xD PUSH1 0x0 PUSH1 0xC PUSH1 0x0 DUP5 DUP2 MSTORE PUSH1 0x20 ADD SWAP1 DUP2 MSTORE PUSH1 0x20 ADD PUSH1 0x0 KECCAK256 PUSH1 0x0 SWAP1 SLOAD SWAP1 PUSH2 0x100 EXP SWAP1 DIV PUSH20 0xFFFFFFFFFFFFFFFFFFFFFFFFFFFFFFFFFFFFFFFF AND PUSH20 0xFFFFFFFFFFFFFFFFFFFFFFFFFFFFFFFFFFFFFFFF AND PUSH20 0xFFFFFFFFFFFFFFFFFFFFFFFFFFFFFFFFFFFFFFFF AND DUP2 MSTORE PUSH1 0x20 ADD SWAP1 DUP2 MSTORE PUSH1 0x20 ADD PUSH1 0x0 KECCAK256 PUSH1 0x7 ADD SLOAD DUP3 DUP3 DUP2 MLOAD DUP2 LT PUSH2 0x12E2 JUMPI PUSH2 0x12E1 PUSH2 0x2C1B JUMP JUMPDEST JUMPDEST PUSH1 0x20 MUL PUSH1 0x20 ADD ADD MLOAD PUSH1 0x80 ADD DUP2 DUP2 MSTORE POP POP PUSH2 0x132E PUSH1 0xC PUSH1 0x0 DUP4 DUP2 MSTORE PUSH1 0x20 ADD SWAP1 DUP2 MSTORE PUSH1 0x20 ADD PUSH1 0x0 KECCAK256 PUSH1 0x0 SWAP1 SLOAD SWAP1 PUSH2 0x100 EXP SWAP1 DIV PUSH20 0xFFFFFFFFFFFFFFFFFFFFFFFFFFFFFFFFFFFFFFFF AND PUSH2 0x213A JUMP JUMPDEST DUP3 DUP3 DUP2 MLOAD DUP2 LT PUSH2 0x1341 JUMPI PUSH2 0x1340 PUSH2 0x2C1B JUMP JUMPDEST JUMPDEST PUSH1 0x20 MUL PUSH1 0x20 ADD ADD MLOAD PUSH1 0xA0 ADD DUP2 DUP2 MSTORE POP POP DUP1 DUP1 PUSH2 0x135C SWAP1 PUSH2 0x2B74 JUMP JUMPDEST SWAP2 POP POP PUSH2 0x1039 JUMP JUMPDEST POP DUP1 SWAP2 POP POP SWAP1 JUMP JUMPDEST DUP3 PUSH1 0x7 DUP2 SWAP1 SSTORE POP DUP4 PUSH1 0x6 DUP2 SWAP1 SSTORE POP DUP2 PUSH1 0x5 DUP2 SWAP1 SSTORE POP DUP1 PUSH1 0x8 DUP2 SWAP1 SSTORE POP POP POP POP POP JUMP JUMPDEST DUP1 PUSH1 0x7 DUP2 SWAP1 SSTORE POP POP JUMP JUMPDEST PUSH1 0xC PUSH1 0x20 MSTORE DUP1 PUSH1 0x0 MSTORE PUSH1 0x40 PUSH1 0x0 KECCAK256 PUSH1 0x0 SWAP2 POP SLOAD SWAP1 PUSH2 0x100 EXP SWAP1 DIV PUSH20 0xFFFFFFFFFFFFFFFFFFFFFFFFFFFFFFFFFFFFFFFF AND DUP2 JUMP JUMPDEST PUSH1 0x9 SLOAD DUP2 JUMP JUMPDEST PUSH1 0x0 DUP1 PUSH1 0xD PUSH1 0x0 CALLER PUSH20 0xFFFFFFFFFFFFFFFFFFFFFFFFFFFFFFFFFFFFFFFF AND PUSH20 0xFFFFFFFFFFFFFFFFFFFFFFFFFFFFFFFFFFFFFFFF AND DUP2 MSTORE PUSH1 0x20 ADD SWAP1 DUP2 MSTORE PUSH1 0x20 ADD PUSH1 0x0 KECCAK256 PUSH1 0x7 ADD SLOAD SWAP1 POP DUP1 SWAP2 POP POP SWAP1 JUMP JUMPDEST PUSH1 0x0 DUP1 PUSH1 0xD PUSH1 0x0 CALLER PUSH20 0xFFFFFFFFFFFFFFFFFFFFFFFFFFFFFFFFFFFFFFFF AND PUSH20 0xFFFFFFFFFFFFFFFFFFFFFFFFFFFFFFFFFFFFFFFF AND DUP2 MSTORE PUSH1 0x20 ADD SWAP1 DUP2 MSTORE PUSH1 0x20 ADD PUSH1 0x0 KECCAK256 PUSH1 0x6 ADD SLOAD GT PUSH2 0x14A6 JUMPI PUSH1 0x40 MLOAD PUSH32 0x8C379A000000000000000000000000000000000000000000000000000000000 DUP2 MSTORE PUSH1 0x4 ADD PUSH2 0x149D SWAP1 PUSH2 0x2867 JUMP JUMPDEST PUSH1 0x40 MLOAD DUP1 SWAP2 SUB SWAP1 REVERT JUMPDEST TIMESTAMP PUSH1 0xD PUSH1 0x0 CALLER PUSH20 0xFFFFFFFFFFFFFFFFFFFFFFFFFFFFFFFFFFFFFFFF AND PUSH20 0xFFFFFFFFFFFFFFFFFFFFFFFFFFFFFFFFFFFFFFFF AND DUP2 MSTORE PUSH1 0x20 ADD SWAP1 DUP2 MSTORE PUSH1 0x20 ADD PUSH1 0x0 KECCAK256 PUSH1 0x9 ADD SLOAD LT PUSH2 0x152A JUMPI PUSH1 0x40 MLOAD PUSH32 0x8C379A000000000000000000000000000000000000000000000000000000000 DUP2 MSTORE PUSH1 0x4 ADD PUSH2 0x1521 SWAP1 PUSH2 0x28C7 JUMP JUMPDEST PUSH1 0x40 MLOAD DUP1 SWAP2 SUB SWAP1 REVERT JUMPDEST PUSH1 0x0 PUSH1 0xD PUSH1 0x0 CALLER PUSH20 0xFFFFFFFFFFFFFFFFFFFFFFFFFFFFFFFFFFFFFFFF AND PUSH20 0xFFFFFFFFFFFFFFFFFFFFFFFFFFFFFFFFFFFFFFFF AND DUP2 MSTORE PUSH1 0x20 ADD SWAP1 DUP2 MSTORE PUSH1 0x20 ADD PUSH1 0x0 KECCAK256 PUSH1 0x6 ADD SLOAD SWAP1 POP PUSH1 0x0 PUSH1 0xD PUSH1 0x0 CALLER PUSH20 0xFFFFFFFFFFFFFFFFFFFFFFFFFFFFFFFFFFFFFFFF AND PUSH20 0xFFFFFFFFFFFFFFFFFFFFFFFFFFFFFFFFFFFFFFFF AND DUP2 MSTORE PUSH1 0x20 ADD SWAP1 DUP2 MSTORE PUSH1 0x20 ADD PUSH1 0x0 KECCAK256 PUSH1 0x5 ADD SLOAD SWAP1 POP PUSH1 0x0 PUSH1 0xB SLOAD SWAP1 POP PUSH1 0x1 PUSH1 0x0 SWAP1 SLOAD SWAP1 PUSH2 0x100 EXP SWAP1 DIV PUSH20 0xFFFFFFFFFFFFFFFFFFFFFFFFFFFFFFFFFFFFFFFF AND PUSH20 0xFFFFFFFFFFFFFFFFFFFFFFFFFFFFFFFFFFFFFFFF AND PUSH4 0xA9059CBB CALLER PUSH4 0x5F5E100 DUP7 PUSH2 0x160E SWAP2 SWAP1 PUSH2 0x2A9E JUMP JUMPDEST PUSH1 0x40 MLOAD DUP4 PUSH4 0xFFFFFFFF AND PUSH1 0xE0 SHL DUP2 MSTORE PUSH1 0x4 ADD PUSH2 0x162B SWAP3 SWAP2 SWAP1 PUSH2 0x272C JUMP JUMPDEST PUSH1 0x20 PUSH1 0x40 MLOAD DUP1 DUP4 SUB DUP2 PUSH1 0x0 DUP8 DUP1 EXTCODESIZE ISZERO DUP1 ISZERO PUSH2 0x1645 JUMPI PUSH1 0x0 DUP1 REVERT JUMPDEST POP GAS CALL ISZERO DUP1 ISZERO PUSH2 0x1659 JUMPI RETURNDATASIZE PUSH1 0x0 DUP1 RETURNDATACOPY RETURNDATASIZE PUSH1 0x0 REVERT JUMPDEST POP POP POP POP PUSH1 0x40 MLOAD RETURNDATASIZE PUSH1 0x1F NOT PUSH1 0x1F DUP3 ADD AND DUP3 ADD DUP1 PUSH1 0x40 MSTORE POP DUP2 ADD SWAP1 PUSH2 0x167D SWAP2 SWAP1 PUSH2 0x2279 JUMP JUMPDEST POP PUSH1 0x0 SWAP1 POP JUMPDEST DUP2 DUP2 LT ISZERO PUSH2 0x1768 JUMPI PUSH1 0x1 PUSH1 0xD PUSH1 0x0 CALLER PUSH20 0xFFFFFFFFFFFFFFFFFFFFFFFFFFFFFFFFFFFFFFFF AND PUSH20 0xFFFFFFFFFFFFFFFFFFFFFFFFFFFFFFFFFFFFFFFF AND DUP2 MSTORE PUSH1 0x20 ADD SWAP1 DUP2 MSTORE PUSH1 0x20 ADD PUSH1 0x0 KECCAK256 PUSH1 0x0 ADD PUSH1 0x0 DUP4 DUP2 MSTORE PUSH1 0x20 ADD SWAP1 DUP2 MSTORE PUSH1 0x20 ADD PUSH1 0x0 KECCAK256 PUSH1 0x5 ADD PUSH1 0x0 PUSH2 0x100 EXP DUP2 SLOAD DUP2 PUSH1 0xFF MUL NOT AND SWAP1 DUP4 ISZERO ISZERO MUL OR SWAP1 SSTORE POP TIMESTAMP PUSH1 0xD PUSH1 0x0 CALLER PUSH20 0xFFFFFFFFFFFFFFFFFFFFFFFFFFFFFFFFFFFFFFFF AND PUSH20 0xFFFFFFFFFFFFFFFFFFFFFFFFFFFFFFFFFFFFFFFF AND DUP2 MSTORE PUSH1 0x20 ADD SWAP1 DUP2 MSTORE PUSH1 0x20 ADD PUSH1 0x0 KECCAK256 PUSH1 0x0 ADD PUSH1 0x0 DUP4 DUP2 MSTORE PUSH1 0x20 ADD SWAP1 DUP2 MSTORE PUSH1 0x20 ADD PUSH1 0x0 KECCAK256 PUSH1 0x4 ADD DUP2 SWAP1 SSTORE POP DUP1 DUP1 PUSH2 0x1760 SWAP1 PUSH2 0x2B74 JUMP JUMPDEST SWAP2 POP POP PUSH2 0x1683 JUMP JUMPDEST PUSH1 0xD PUSH1 0x0 CALLER PUSH20 0xFFFFFFFFFFFFFFFFFFFFFFFFFFFFFFFFFFFFFFFF AND PUSH20 0xFFFFFFFFFFFFFFFFFFFFFFFFFFFFFFFFFFFFFFFF AND DUP2 MSTORE PUSH1 0x20 ADD SWAP1 DUP2 MSTORE PUSH1 0x20 ADD PUSH1 0x0 KECCAK256 PUSH1 0x5 ADD SLOAD PUSH1 0xB DUP2 SWAP1 SSTORE POP PUSH1 0x0 PUSH1 0xD PUSH1 0x0 CALLER PUSH20 0xFFFFFFFFFFFFFFFFFFFFFFFFFFFFFFFFFFFFFFFF AND PUSH20 0xFFFFFFFFFFFFFFFFFFFFFFFFFFFFFFFFFFFFFFFF AND DUP2 MSTORE PUSH1 0x20 ADD SWAP1 DUP2 MSTORE PUSH1 0x20 ADD PUSH1 0x0 KECCAK256 PUSH1 0x6 ADD DUP2 SWAP1 SSTORE POP PUSH1 0x1 SWAP4 POP POP POP POP SWAP1 JUMP JUMPDEST PUSH1 0x0 DUP1 SLOAD SWAP1 PUSH2 0x100 EXP SWAP1 DIV PUSH20 0xFFFFFFFFFFFFFFFFFFFFFFFFFFFFFFFFFFFFFFFF AND DUP2 JUMP JUMPDEST PUSH1 0x0 PUSH1 0xD PUSH1 0x0 CALLER PUSH20 0xFFFFFFFFFFFFFFFFFFFFFFFFFFFFFFFFFFFFFFFF AND PUSH20 0xFFFFFFFFFFFFFFFFFFFFFFFFFFFFFFFFFFFFFFFF AND DUP2 MSTORE PUSH1 0x20 ADD SWAP1 DUP2 MSTORE PUSH1 0x20 ADD PUSH1 0x0 KECCAK256 PUSH1 0x6 ADD SLOAD SWAP1 POP SWAP1 JUMP JUMPDEST PUSH1 0x8 SLOAD DUP2 JUMP JUMPDEST PUSH1 0x60 PUSH1 0x0 PUSH1 0x14 PUSH8 0xFFFFFFFFFFFFFFFF DUP2 GT ISZERO PUSH2 0x1896 JUMPI PUSH2 0x1895 PUSH2 0x2C4A JUMP JUMPDEST JUMPDEST PUSH1 0x40 MLOAD SWAP1 DUP1 DUP3 MSTORE DUP1 PUSH1 0x20 MUL PUSH1 0x20 ADD DUP3 ADD PUSH1 0x40 MSTORE DUP1 ISZERO PUSH2 0x18C4 JUMPI DUP2 PUSH1 0x20 ADD PUSH1 0x20 DUP3 MUL DUP1 CALLDATASIZE DUP4 CALLDATACOPY DUP1 DUP3 ADD SWAP2 POP POP SWAP1 POP JUMPDEST POP SWAP1 POP PUSH1 0x0 JUMPDEST PUSH1 0x14 DUP2 LT ISZERO PUSH2 0x19E2 JUMPI PUSH1 0x0 PUSH1 0xD PUSH1 0x0 CALLER PUSH20 0xFFFFFFFFFFFFFFFFFFFFFFFFFFFFFFFFFFFFFFFF AND PUSH20 0xFFFFFFFFFFFFFFFFFFFFFFFFFFFFFFFFFFFFFFFF AND DUP2 MSTORE PUSH1 0x20 ADD SWAP1 DUP2 MSTORE PUSH1 0x20 ADD PUSH1 0x0 KECCAK256 PUSH1 0x3 ADD PUSH1 0x0 DUP4 DUP2 MSTORE PUSH1 0x20 ADD SWAP1 DUP2 MSTORE PUSH1 0x20 ADD PUSH1 0x0 KECCAK256 PUSH1 0x0 ADD SLOAD GT ISZERO PUSH2 0x19AD JUMPI PUSH1 0xD PUSH1 0x0 CALLER PUSH20 0xFFFFFFFFFFFFFFFFFFFFFFFFFFFFFFFFFFFFFFFF AND PUSH20 0xFFFFFFFFFFFFFFFFFFFFFFFFFFFFFFFFFFFFFFFF AND DUP2 MSTORE PUSH1 0x20 ADD SWAP1 DUP2 MSTORE PUSH1 0x20 ADD PUSH1 0x0 KECCAK256 PUSH1 0x3 ADD PUSH1 0x0 DUP3 DUP2 MSTORE PUSH1 0x20 ADD SWAP1 DUP2 MSTORE PUSH1 0x20 ADD PUSH1 0x0 KECCAK256 PUSH1 0x0 ADD SLOAD DUP3 DUP3 DUP2 MLOAD DUP2 LT PUSH2 0x199C JUMPI PUSH2 0x199B PUSH2 0x2C1B JUMP JUMPDEST JUMPDEST PUSH1 0x20 MUL PUSH1 0x20 ADD ADD DUP2 DUP2 MSTORE POP POP PUSH2 0x19CF JUMP JUMPDEST PUSH1 0x0 DUP3 DUP3 DUP2 MLOAD DUP2 LT PUSH2 0x19C2 JUMPI PUSH2 0x19C1 PUSH2 0x2C1B JUMP JUMPDEST JUMPDEST PUSH1 0x20 MUL PUSH1 0x20 ADD ADD DUP2 DUP2 MSTORE POP POP JUMPDEST DUP1 DUP1 PUSH2 0x19DA SWAP1 PUSH2 0x2B74 JUMP JUMPDEST SWAP2 POP POP PUSH2 0x18CA JUMP JUMPDEST POP DUP1 SWAP2 POP POP SWAP1 JUMP JUMPDEST PUSH1 0x6 SLOAD DUP2 JUMP JUMPDEST PUSH1 0x0 DUP1 PUSH2 0x19FB PUSH2 0xD7F JUMP JUMPDEST SWAP1 POP PUSH1 0x0 DUP2 GT PUSH2 0x1A40 JUMPI PUSH1 0x40 MLOAD PUSH32 0x8C379A000000000000000000000000000000000000000000000000000000000 DUP2 MSTORE PUSH1 0x4 ADD PUSH2 0x1A37 SWAP1 PUSH2 0x28A7 JUMP JUMPDEST PUSH1 0x40 MLOAD DUP1 SWAP2 SUB SWAP1 REVERT JUMPDEST PUSH1 0x2 PUSH1 0x0 SWAP1 SLOAD SWAP1 PUSH2 0x100 EXP SWAP1 DIV PUSH20 0xFFFFFFFFFFFFFFFFFFFFFFFFFFFFFFFFFFFFFFFF AND PUSH20 0xFFFFFFFFFFFFFFFFFFFFFFFFFFFFFFFFFFFFFFFF AND PUSH4 0xA9059CBB CALLER PUSH8 0xDE0B6B3A7640000 DUP5 PUSH2 0x1A93 SWAP2 SWAP1 PUSH2 0x2A9E JUMP JUMPDEST PUSH1 0x40 MLOAD DUP4 PUSH4 0xFFFFFFFF AND PUSH1 0xE0 SHL DUP2 MSTORE PUSH1 0x4 ADD PUSH2 0x1AB0 SWAP3 SWAP2 SWAP1 PUSH2 0x272C JUMP JUMPDEST PUSH1 0x20 PUSH1 0x40 MLOAD DUP1 DUP4 SUB DUP2 PUSH1 0x0 DUP8 DUP1 EXTCODESIZE ISZERO DUP1 ISZERO PUSH2 0x1ACA JUMPI PUSH1 0x0 DUP1 REVERT JUMPDEST POP GAS CALL ISZERO DUP1 ISZERO PUSH2 0x1ADE JUMPI RETURNDATASIZE PUSH1 0x0 DUP1 RETURNDATACOPY RETURNDATASIZE PUSH1 0x0 REVERT JUMPDEST POP POP POP POP PUSH1 0x40 MLOAD RETURNDATASIZE PUSH1 0x1F NOT PUSH1 0x1F DUP3 ADD AND DUP3 ADD DUP1 PUSH1 0x40 MSTORE POP DUP2 ADD SWAP1 PUSH2 0x1B02 SWAP2 SWAP1 PUSH2 0x2279 JUMP JUMPDEST POP DUP1 PUSH1 0xD PUSH1 0x0 CALLER PUSH20 0xFFFFFFFFFFFFFFFFFFFFFFFFFFFFFFFFFFFFFFFF AND PUSH20 0xFFFFFFFFFFFFFFFFFFFFFFFFFFFFFFFFFFFFFFFF AND DUP2 MSTORE PUSH1 0x20 ADD SWAP1 DUP2 MSTORE PUSH1 0x20 ADD PUSH1 0x0 KECCAK256 PUSH1 0x7 ADD PUSH1 0x0 DUP3 DUP3 SLOAD PUSH2 0x1B55 SWAP2 SWAP1 PUSH2 0x2A17 JUMP JUMPDEST SWAP3 POP POP DUP2 SWAP1 SSTORE POP PUSH1 0x1 SWAP2 POP POP SWAP1 JUMP JUMPDEST PUSH1 0xD PUSH1 0x20 MSTORE DUP1 PUSH1 0x0 MSTORE PUSH1 0x40 PUSH1 0x0 KECCAK256 PUSH1 0x0 SWAP2 POP SWAP1 POP DUP1 PUSH1 0x2 ADD PUSH1 0x0 SWAP1 SLOAD SWAP1 PUSH2 0x100 EXP SWAP1 DIV PUSH20 0xFFFFFFFFFFFFFFFFFFFFFFFFFFFFFFFFFFFFFFFF AND SWAP1 DUP1 PUSH1 0x4 ADD SLOAD SWAP1 DUP1 PUSH1 0x5 ADD SLOAD SWAP1 DUP1 PUSH1 0x6 ADD SLOAD SWAP1 DUP1 PUSH1 0x7 ADD SLOAD SWAP1 DUP1 PUSH1 0x8 ADD PUSH1 0x0 SWAP1 SLOAD SWAP1 PUSH2 0x100 EXP SWAP1 DIV PUSH1 0xFF AND SWAP1 DUP1 PUSH1 0x9 ADD SLOAD SWAP1 POP DUP8 JUMP JUMPDEST PUSH1 0xA SLOAD DUP2 JUMP JUMPDEST PUSH1 0x0 DUP1 SLOAD SWAP1 PUSH2 0x100 EXP SWAP1 DIV PUSH20 0xFFFFFFFFFFFFFFFFFFFFFFFFFFFFFFFFFFFFFFFF AND PUSH20 0xFFFFFFFFFFFFFFFFFFFFFFFFFFFFFFFFFFFFFFFF AND CALLER PUSH20 0xFFFFFFFFFFFFFFFFFFFFFFFFFFFFFFFFFFFFFFFF AND EQ PUSH2 0x1C67 JUMPI PUSH1 0x40 MLOAD PUSH32 0x8C379A000000000000000000000000000000000000000000000000000000000 DUP2 MSTORE PUSH1 0x4 ADD PUSH2 0x1C5E SWAP1 PUSH2 0x28E7 JUMP JUMPDEST PUSH1 0x40 MLOAD DUP1 SWAP2 SUB SWAP1 REVERT JUMPDEST DUP1 PUSH1 0x0 DUP1 PUSH2 0x100 EXP DUP2 SLOAD DUP2 PUSH20 0xFFFFFFFFFFFFFFFFFFFFFFFFFFFFFFFFFFFFFFFF MUL NOT AND SWAP1 DUP4 PUSH20 0xFFFFFFFFFFFFFFFFFFFFFFFFFFFFFFFFFFFFFFFF AND MUL OR SWAP1 SSTORE POP POP JUMP JUMPDEST PUSH1 0x60 PUSH1 0x0 PUSH1 0x14 PUSH8 0xFFFFFFFFFFFFFFFF DUP2 GT ISZERO PUSH2 0x1CC9 JUMPI PUSH2 0x1CC8 PUSH2 0x2C4A JUMP JUMPDEST JUMPDEST PUSH1 0x40 MLOAD SWAP1 DUP1 DUP3 MSTORE DUP1 PUSH1 0x20 MUL PUSH1 0x20 ADD DUP3 ADD PUSH1 0x40 MSTORE DUP1 ISZERO PUSH2 0x1CF7 JUMPI DUP2 PUSH1 0x20 ADD PUSH1 0x20 DUP3 MUL DUP1 CALLDATASIZE DUP4 CALLDATACOPY DUP1 DUP3 ADD SWAP2 POP POP SWAP1 POP JUMPDEST POP SWAP1 POP PUSH1 0x0 JUMPDEST PUSH1 0x14 DUP2 LT ISZERO PUSH2 0x1E15 JUMPI PUSH1 0x0 PUSH1 0xD PUSH1 0x0 CALLER PUSH20 0xFFFFFFFFFFFFFFFFFFFFFFFFFFFFFFFFFFFFFFFF AND PUSH20 0xFFFFFFFFFFFFFFFFFFFFFFFFFFFFFFFFFFFFFFFF AND DUP2 MSTORE PUSH1 0x20 ADD SWAP1 DUP2 MSTORE PUSH1 0x20 ADD PUSH1 0x0 KECCAK256 PUSH1 0x3 ADD PUSH1 0x0 DUP4 DUP2 MSTORE PUSH1 0x20 ADD SWAP1 DUP2 MSTORE PUSH1 0x20 ADD PUSH1 0x0 KECCAK256 PUSH1 0x0 ADD SLOAD GT ISZERO PUSH2 0x1DE0 JUMPI PUSH1 0xD PUSH1 0x0 CALLER PUSH20 0xFFFFFFFFFFFFFFFFFFFFFFFFFFFFFFFFFFFFFFFF AND PUSH20 0xFFFFFFFFFFFFFFFFFFFFFFFFFFFFFFFFFFFFFFFF AND DUP2 MSTORE PUSH1 0x20 ADD SWAP1 DUP2 MSTORE PUSH1 0x20 ADD PUSH1 0x0 KECCAK256 PUSH1 0x3 ADD PUSH1 0x0 DUP3 DUP2 MSTORE PUSH1 0x20 ADD SWAP1 DUP2 MSTORE PUSH1 0x20 ADD PUSH1 0x0 KECCAK256 PUSH1 0x1 ADD SLOAD DUP3 DUP3 DUP2 MLOAD DUP2 LT PUSH2 0x1DCF JUMPI PUSH2 0x1DCE PUSH2 0x2C1B JUMP JUMPDEST JUMPDEST PUSH1 0x20 MUL PUSH1 0x20 ADD ADD DUP2 DUP2 MSTORE POP POP PUSH2 0x1E02 JUMP JUMPDEST PUSH1 0x0 DUP3 DUP3 DUP2 MLOAD DUP2 LT PUSH2 0x1DF5 JUMPI PUSH2 0x1DF4 PUSH2 0x2C1B JUMP JUMPDEST JUMPDEST PUSH1 0x20 MUL PUSH1 0x20 ADD ADD DUP2 DUP2 MSTORE POP POP JUMPDEST DUP1 DUP1 PUSH2 0x1E0D SWAP1 PUSH2 0x2B74 JUMP JUMPDEST SWAP2 POP POP PUSH2 0x1CFD JUMP JUMPDEST POP DUP1 SWAP2 POP POP SWAP1 JUMP JUMPDEST PUSH1 0x5 SLOAD DUP2 JUMP JUMPDEST PUSH1 0x7 SLOAD DUP2 JUMP JUMPDEST PUSH1 0x0 DUP1 PUSH1 0x0 DUP1 PUSH1 0x0 PUSH1 0xD PUSH1 0x0 DUP8 PUSH20 0xFFFFFFFFFFFFFFFFFFFFFFFFFFFFFFFFFFFFFFFF AND PUSH20 0xFFFFFFFFFFFFFFFFFFFFFFFFFFFFFFFFFFFFFFFF AND DUP2 MSTORE PUSH1 0x20 ADD SWAP1 DUP2 MSTORE PUSH1 0x20 ADD PUSH1 0x0 KECCAK256 PUSH1 0x5 ADD SLOAD SWAP1 POP PUSH1 0x0 JUMPDEST DUP2 DUP2 LT ISZERO PUSH2 0x20DD JUMPI PUSH1 0xD PUSH1 0x0 DUP9 PUSH20 0xFFFFFFFFFFFFFFFFFFFFFFFFFFFFFFFFFFFFFFFF AND PUSH20 0xFFFFFFFFFFFFFFFFFFFFFFFFFFFFFFFFFFFFFFFF AND DUP2 MSTORE PUSH1 0x20 ADD SWAP1 DUP2 MSTORE PUSH1 0x20 ADD PUSH1 0x0 KECCAK256 PUSH1 0x0 ADD PUSH1 0x0 DUP3 DUP2 MSTORE PUSH1 0x20 ADD SWAP1 DUP2 MSTORE PUSH1 0x20 ADD PUSH1 0x0 KECCAK256 PUSH1 0x5 ADD PUSH1 0x0 SWAP1 SLOAD SWAP1 PUSH2 0x100 EXP SWAP1 DIV PUSH1 0xFF AND PUSH2 0x1F52 JUMPI PUSH1 0xD PUSH1 0x0 DUP9 PUSH20 0xFFFFFFFFFFFFFFFFFFFFFFFFFFFFFFFFFFFFFFFF AND PUSH20 0xFFFFFFFFFFFFFFFFFFFFFFFFFFFFFFFFFFFFFFFF AND DUP2 MSTORE PUSH1 0x20 ADD SWAP1 DUP2 MSTORE PUSH1 0x20 ADD PUSH1 0x0 KECCAK256 PUSH1 0x0 ADD PUSH1 0x0 DUP3 DUP2 MSTORE PUSH1 0x20 ADD SWAP1 DUP2 MSTORE PUSH1 0x20 ADD PUSH1 0x0 KECCAK256 PUSH1 0x2 ADD SLOAD TIMESTAMP PUSH2 0x1F4B SWAP2 SWAP1 PUSH2 0x2AF8 JUMP JUMPDEST SWAP4 POP PUSH2 0x200D JUMP JUMPDEST PUSH1 0xD PUSH1 0x0 DUP9 PUSH20 0xFFFFFFFFFFFFFFFFFFFFFFFFFFFFFFFFFFFFFFFF AND PUSH20 0xFFFFFFFFFFFFFFFFFFFFFFFFFFFFFFFFFFFFFFFF AND DUP2 MSTORE PUSH1 0x20 ADD SWAP1 DUP2 MSTORE PUSH1 0x20 ADD PUSH1 0x0 KECCAK256 PUSH1 0x0 ADD PUSH1 0x0 DUP3 DUP2 MSTORE PUSH1 0x20 ADD SWAP1 DUP2 MSTORE PUSH1 0x20 ADD PUSH1 0x0 KECCAK256 PUSH1 0x2 ADD SLOAD PUSH1 0xD PUSH1 0x0 DUP10 PUSH20 0xFFFFFFFFFFFFFFFFFFFFFFFFFFFFFFFFFFFFFFFF AND PUSH20 0xFFFFFFFFFFFFFFFFFFFFFFFFFFFFFFFFFFFFFFFF AND DUP2 MSTORE PUSH1 0x20 ADD SWAP1 DUP2 MSTORE PUSH1 0x20 ADD PUSH1 0x0 KECCAK256 PUSH1 0x0 ADD PUSH1 0x0 DUP4 DUP2 MSTORE PUSH1 0x20 ADD SWAP1 DUP2 MSTORE PUSH1 0x20 ADD PUSH1 0x0 KECCAK256 PUSH1 0x4 ADD SLOAD PUSH2 0x200A SWAP2 SWAP1 PUSH2 0x2AF8 JUMP JUMPDEST SWAP4 POP JUMPDEST PUSH1 0x3C DUP5 PUSH2 0x201A SWAP2 SWAP1 PUSH2 0x2A6D JUMP JUMPDEST SWAP4 POP PUSH1 0x0 DUP5 GT ISZERO PUSH2 0x20CA JUMPI PUSH1 0x64 PUSH1 0xA SLOAD PUSH1 0xD PUSH1 0x0 CALLER PUSH20 0xFFFFFFFFFFFFFFFFFFFFFFFFFFFFFFFFFFFFFFFF AND PUSH20 0xFFFFFFFFFFFFFFFFFFFFFFFFFFFFFFFFFFFFFFFF AND DUP2 MSTORE PUSH1 0x20 ADD SWAP1 DUP2 MSTORE PUSH1 0x20 ADD PUSH1 0x0 KECCAK256 PUSH1 0x0 ADD PUSH1 0x0 DUP5 DUP2 MSTORE PUSH1 0x20 ADD SWAP1 DUP2 MSTORE PUSH1 0x20 ADD PUSH1 0x0 KECCAK256 PUSH1 0x0 ADD SLOAD PUSH2 0x208B SWAP2 SWAP1 PUSH2 0x2A6D JUMP JUMPDEST PUSH2 0x2095 SWAP2 SWAP1 PUSH2 0x2A9E JUMP JUMPDEST PUSH1 0x64 PUSH1 0x3 SLOAD PUSH2 0x20A4 SWAP2 SWAP1 PUSH2 0x2A6D JUMP JUMPDEST PUSH2 0x20AE SWAP2 SWAP1 PUSH2 0x2A9E JUMP JUMPDEST SWAP3 POP DUP3 DUP5 PUSH2 0x20BC SWAP2 SWAP1 PUSH2 0x2A9E JUMP JUMPDEST DUP6 PUSH2 0x20C7 SWAP2 SWAP1 PUSH2 0x2A17 JUMP JUMPDEST SWAP5 POP JUMPDEST DUP1 DUP1 PUSH2 0x20D5 SWAP1 PUSH2 0x2B74 JUMP JUMPDEST SWAP2 POP POP PUSH2 0x1E79 JUMP JUMPDEST POP PUSH1 0xD PUSH1 0x0 DUP8 PUSH20 0xFFFFFFFFFFFFFFFFFFFFFFFFFFFFFFFFFFFFFFFF AND PUSH20 0xFFFFFFFFFFFFFFFFFFFFFFFFFFFFFFFFFFFFFFFF AND DUP2 MSTORE PUSH1 0x20 ADD SWAP1 DUP2 MSTORE PUSH1 0x20 ADD PUSH1 0x0 KECCAK256 PUSH1 0x7 ADD SLOAD DUP5 PUSH2 0x212C SWAP2 SWAP1 PUSH2 0x2AF8 JUMP JUMPDEST SWAP4 POP DUP4 SWAP5 POP POP POP POP POP SWAP2 SWAP1 POP JUMP JUMPDEST PUSH1 0x0 PUSH1 0xD PUSH1 0x0 DUP4 PUSH20 0xFFFFFFFFFFFFFFFFFFFFFFFFFFFFFFFFFFFFFFFF AND PUSH20 0xFFFFFFFFFFFFFFFFFFFFFFFFFFFFFFFFFFFFFFFF AND DUP2 MSTORE PUSH1 0x20 ADD SWAP1 DUP2 MSTORE PUSH1 0x20 ADD PUSH1 0x0 KECCAK256 PUSH1 0x1 ADD DUP1 SLOAD SWAP1 POP SWAP1 POP SWAP2 SWAP1 POP JUMP JUMPDEST PUSH1 0x40 MLOAD DUP1 PUSH1 0xC0 ADD PUSH1 0x40 MSTORE DUP1 PUSH1 0x0 DUP2 MSTORE PUSH1 0x20 ADD PUSH1 0x0 DUP2 MSTORE PUSH1 0x20 ADD PUSH1 0x0 DUP2 MSTORE PUSH1 0x20 ADD PUSH1 0x0 DUP2 MSTORE PUSH1 0x20 ADD PUSH1 0x0 DUP2 MSTORE PUSH1 0x20 ADD PUSH1 0x0 ISZERO ISZERO DUP2 MSTORE POP SWAP1 JUMP JUMPDEST PUSH1 0x40 MLOAD DUP1 PUSH1 0xC0 ADD PUSH1 0x40 MSTORE DUP1 PUSH1 0x0 PUSH20 0xFFFFFFFFFFFFFFFFFFFFFFFFFFFFFFFFFFFFFFFF AND DUP2 MSTORE PUSH1 0x20 ADD PUSH1 0x0 DUP2 MSTORE PUSH1 0x20 ADD PUSH1 0x0 DUP2 MSTORE PUSH1 0x20 ADD PUSH1 0x0 DUP2 MSTORE PUSH1 0x20 ADD PUSH1 0x0 DUP2 MSTORE PUSH1 0x20 ADD PUSH1 0x0 DUP2 MSTORE POP SWAP1 JUMP JUMPDEST PUSH1 0x0 DUP2 CALLDATALOAD SWAP1 POP PUSH2 0x221C DUP2 PUSH2 0x2DE3 JUMP JUMPDEST SWAP3 SWAP2 POP POP JUMP JUMPDEST PUSH1 0x0 DUP2 MLOAD SWAP1 POP PUSH2 0x2231 DUP2 PUSH2 0x2DFA JUMP JUMPDEST SWAP3 SWAP2 POP POP JUMP JUMPDEST PUSH1 0x0 DUP2 CALLDATALOAD SWAP1 POP PUSH2 0x2246 DUP2 PUSH2 0x2E11 JUMP JUMPDEST SWAP3 SWAP2 POP POP JUMP JUMPDEST PUSH1 0x0 PUSH1 0x20 DUP3 DUP5 SUB SLT ISZERO PUSH2 0x2262 JUMPI PUSH2 0x2261 PUSH2 0x2C79 JUMP JUMPDEST JUMPDEST PUSH1 0x0 PUSH2 0x2270 DUP5 DUP3 DUP6 ADD PUSH2 0x220D JUMP JUMPDEST SWAP2 POP POP SWAP3 SWAP2 POP POP JUMP JUMPDEST PUSH1 0x0 PUSH1 0x20 DUP3 DUP5 SUB SLT ISZERO PUSH2 0x228F JUMPI PUSH2 0x228E PUSH2 0x2C79 JUMP JUMPDEST JUMPDEST PUSH1 0x0 PUSH2 0x229D DUP5 DUP3 DUP6 ADD PUSH2 0x2222 JUMP JUMPDEST SWAP2 POP POP SWAP3 SWAP2 POP POP JUMP JUMPDEST PUSH1 0x0 PUSH1 0x20 DUP3 DUP5 SUB SLT ISZERO PUSH2 0x22BC JUMPI PUSH2 0x22BB PUSH2 0x2C79 JUMP JUMPDEST JUMPDEST PUSH1 0x0 PUSH2 0x22CA DUP5 DUP3 DUP6 ADD PUSH2 0x2237 JUMP JUMPDEST SWAP2 POP POP SWAP3 SWAP2 POP POP JUMP JUMPDEST PUSH1 0x0 DUP1 PUSH1 0x0 DUP1 PUSH1 0x80 DUP6 DUP8 SUB SLT ISZERO PUSH2 0x22ED JUMPI PUSH2 0x22EC PUSH2 0x2C79 JUMP JUMPDEST JUMPDEST PUSH1 0x0 PUSH2 0x22FB DUP8 DUP3 DUP9 ADD PUSH2 0x2237 JUMP JUMPDEST SWAP5 POP POP PUSH1 0x20 PUSH2 0x230C DUP8 DUP3 DUP9 ADD PUSH2 0x2237 JUMP JUMPDEST SWAP4 POP POP PUSH1 0x40 PUSH2 0x231D DUP8 DUP3 DUP9 ADD PUSH2 0x2237 JUMP JUMPDEST SWAP3 POP POP PUSH1 0x60 PUSH2 0x232E DUP8 DUP3 DUP9 ADD PUSH2 0x2237 JUMP JUMPDEST SWAP2 POP POP SWAP3 SWAP6 SWAP2 SWAP5 POP SWAP3 POP JUMP JUMPDEST PUSH1 0x0 PUSH2 0x2346 DUP4 DUP4 PUSH2 0x239A JUMP JUMPDEST PUSH1 0x20 DUP4 ADD SWAP1 POP SWAP3 SWAP2 POP POP JUMP JUMPDEST PUSH1 0x0 PUSH2 0x235E DUP4 DUP4 PUSH2 0x25FD JUMP JUMPDEST PUSH1 0xC0 DUP4 ADD SWAP1 POP SWAP3 SWAP2 POP POP JUMP JUMPDEST PUSH1 0x0 PUSH2 0x2376 DUP4 DUP4 PUSH2 0x2678 JUMP JUMPDEST PUSH1 0xC0 DUP4 ADD SWAP1 POP SWAP3 SWAP2 POP POP JUMP JUMPDEST PUSH1 0x0 PUSH2 0x238E DUP4 DUP4 PUSH2 0x26F3 JUMP JUMPDEST PUSH1 0x20 DUP4 ADD SWAP1 POP SWAP3 SWAP2 POP POP JUMP JUMPDEST PUSH2 0x23A3 DUP2 PUSH2 0x2B2C JUMP JUMPDEST DUP3 MSTORE POP POP JUMP JUMPDEST PUSH2 0x23B2 DUP2 PUSH2 0x2B2C JUMP JUMPDEST DUP3 MSTORE POP POP JUMP JUMPDEST PUSH1 0x0 PUSH2 0x23C3 DUP3 PUSH2 0x2962 JUMP JUMPDEST PUSH2 0x23CD DUP2 DUP6 PUSH2 0x29C2 JUMP JUMPDEST SWAP4 POP PUSH2 0x23D8 DUP4 PUSH2 0x2922 JUMP JUMPDEST DUP1 PUSH1 0x0 JUMPDEST DUP4 DUP2 LT ISZERO PUSH2 0x2409 JUMPI DUP2 MLOAD PUSH2 0x23F0 DUP9 DUP3 PUSH2 0x233A JUMP JUMPDEST SWAP8 POP PUSH2 0x23FB DUP4 PUSH2 0x298E JUMP JUMPDEST SWAP3 POP POP PUSH1 0x1 DUP2 ADD SWAP1 POP PUSH2 0x23DC JUMP JUMPDEST POP DUP6 SWAP4 POP POP POP POP SWAP3 SWAP2 POP POP JUMP JUMPDEST PUSH1 0x0 PUSH2 0x2421 DUP3 PUSH2 0x296D JUMP JUMPDEST PUSH2 0x242B DUP2 DUP6 PUSH2 0x29D3 JUMP JUMPDEST SWAP4 POP PUSH2 0x2436 DUP4 PUSH2 0x2932 JUMP JUMPDEST DUP1 PUSH1 0x0 JUMPDEST DUP4 DUP2 LT ISZERO PUSH2 0x2467 JUMPI DUP2 MLOAD PUSH2 0x244E DUP9 DUP3 PUSH2 0x2352 JUMP JUMPDEST SWAP8 POP PUSH2 0x2459 DUP4 PUSH2 0x299B JUMP JUMPDEST SWAP3 POP POP PUSH1 0x1 DUP2 ADD SWAP1 POP PUSH2 0x243A JUMP JUMPDEST POP DUP6 SWAP4 POP POP POP POP SWAP3 SWAP2 POP POP JUMP JUMPDEST PUSH1 0x0 PUSH2 0x247F DUP3 PUSH2 0x2978 JUMP JUMPDEST PUSH2 0x2489 DUP2 DUP6 PUSH2 0x29E4 JUMP JUMPDEST SWAP4 POP PUSH2 0x2494 DUP4 PUSH2 0x2942 JUMP JUMPDEST DUP1 PUSH1 0x0 JUMPDEST DUP4 DUP2 LT ISZERO PUSH2 0x24C5 JUMPI DUP2 MLOAD PUSH2 0x24AC DUP9 DUP3 PUSH2 0x236A JUMP JUMPDEST SWAP8 POP PUSH2 0x24B7 DUP4 PUSH2 0x29A8 JUMP JUMPDEST SWAP3 POP POP PUSH1 0x1 DUP2 ADD SWAP1 POP PUSH2 0x2498 JUMP JUMPDEST POP DUP6 SWAP4 POP POP POP POP SWAP3 SWAP2 POP POP JUMP JUMPDEST PUSH1 0x0 PUSH2 0x24DD DUP3 PUSH2 0x2983 JUMP JUMPDEST PUSH2 0x24E7 DUP2 DUP6 PUSH2 0x29F5 JUMP JUMPDEST SWAP4 POP PUSH2 0x24F2 DUP4 PUSH2 0x2952 JUMP JUMPDEST DUP1 PUSH1 0x0 JUMPDEST DUP4 DUP2 LT ISZERO PUSH2 0x2523 JUMPI DUP2 MLOAD PUSH2 0x250A DUP9 DUP3 PUSH2 0x2382 JUMP JUMPDEST SWAP8 POP PUSH2 0x2515 DUP4 PUSH2 0x29B5 JUMP JUMPDEST SWAP3 POP POP PUSH1 0x1 DUP2 ADD SWAP1 POP PUSH2 0x24F6 JUMP JUMPDEST POP DUP6 SWAP4 POP POP POP POP SWAP3 SWAP2 POP POP JUMP JUMPDEST PUSH2 0x2539 DUP2 PUSH2 0x2B3E JUMP JUMPDEST DUP3 MSTORE POP POP JUMP JUMPDEST PUSH2 0x2548 DUP2 PUSH2 0x2B3E JUMP JUMPDEST DUP3 MSTORE POP POP JUMP JUMPDEST PUSH1 0x0 PUSH2 0x255B PUSH1 0x25 DUP4 PUSH2 0x2A06 JUMP JUMPDEST SWAP2 POP PUSH2 0x2566 DUP3 PUSH2 0x2C7E JUMP JUMPDEST PUSH1 0x40 DUP3 ADD SWAP1 POP SWAP2 SWAP1 POP JUMP JUMPDEST PUSH1 0x0 PUSH2 0x257E PUSH1 0x35 DUP4 PUSH2 0x2A06 JUMP JUMPDEST SWAP2 POP PUSH2 0x2589 DUP3 PUSH2 0x2CCD JUMP JUMPDEST PUSH1 0x40 DUP3 ADD SWAP1 POP SWAP2 SWAP1 POP JUMP JUMPDEST PUSH1 0x0 PUSH2 0x25A1 PUSH1 0x22 DUP4 PUSH2 0x2A06 JUMP JUMPDEST SWAP2 POP PUSH2 0x25AC DUP3 PUSH2 0x2D1C JUMP JUMPDEST PUSH1 0x40 DUP3 ADD SWAP1 POP SWAP2 SWAP1 POP JUMP JUMPDEST PUSH1 0x0 PUSH2 0x25C4 PUSH1 0x1F DUP4 PUSH2 0x2A06 JUMP JUMPDEST SWAP2 POP PUSH2 0x25CF DUP3 PUSH2 0x2D6B JUMP JUMPDEST PUSH1 0x20 DUP3 ADD SWAP1 POP SWAP2 SWAP1 POP JUMP JUMPDEST PUSH1 0x0 PUSH2 0x25E7 PUSH1 0x21 DUP4 PUSH2 0x2A06 JUMP JUMPDEST SWAP2 POP PUSH2 0x25F2 DUP3 PUSH2 0x2D94 JUMP JUMPDEST PUSH1 0x40 DUP3 ADD SWAP1 POP SWAP2 SWAP1 POP JUMP JUMPDEST PUSH1 0xC0 DUP3 ADD PUSH1 0x0 DUP3 ADD MLOAD PUSH2 0x2613 PUSH1 0x0 DUP6 ADD DUP3 PUSH2 0x239A JUMP JUMPDEST POP PUSH1 0x20 DUP3 ADD MLOAD PUSH2 0x2626 PUSH1 0x20 DUP6 ADD DUP3 PUSH2 0x26F3 JUMP JUMPDEST POP PUSH1 0x40 DUP3 ADD MLOAD PUSH2 0x2639 PUSH1 0x40 DUP6 ADD DUP3 PUSH2 0x26F3 JUMP JUMPDEST POP PUSH1 0x60 DUP3 ADD MLOAD PUSH2 0x264C PUSH1 0x60 DUP6 ADD DUP3 PUSH2 0x26F3 JUMP JUMPDEST POP PUSH1 0x80 DUP3 ADD MLOAD PUSH2 0x265F PUSH1 0x80 DUP6 ADD DUP3 PUSH2 0x26F3 JUMP JUMPDEST POP PUSH1 0xA0 DUP3 ADD MLOAD PUSH2 0x2672 PUSH1 0xA0 DUP6 ADD DUP3 PUSH2 0x26F3 JUMP JUMPDEST POP POP POP POP JUMP JUMPDEST PUSH1 0xC0 DUP3 ADD PUSH1 0x0 DUP3 ADD MLOAD PUSH2 0x268E PUSH1 0x0 DUP6 ADD DUP3 PUSH2 0x26F3 JUMP JUMPDEST POP PUSH1 0x20 DUP3 ADD MLOAD PUSH2 0x26A1 PUSH1 0x20 DUP6 ADD DUP3 PUSH2 0x26F3 JUMP JUMPDEST POP PUSH1 0x40 DUP3 ADD MLOAD PUSH2 0x26B4 PUSH1 0x40 DUP6 ADD DUP3 PUSH2 0x26F3 JUMP JUMPDEST POP PUSH1 0x60 DUP3 ADD MLOAD PUSH2 0x26C7 PUSH1 0x60 DUP6 ADD DUP3 PUSH2 0x26F3 JUMP JUMPDEST POP PUSH1 0x80 DUP3 ADD MLOAD PUSH2 0x26DA PUSH1 0x80 DUP6 ADD DUP3 PUSH2 0x26F3 JUMP JUMPDEST POP PUSH1 0xA0 DUP3 ADD MLOAD PUSH2 0x26ED PUSH1 0xA0 DUP6 ADD DUP3 PUSH2 0x2530 JUMP JUMPDEST POP POP POP POP JUMP JUMPDEST PUSH2 0x26FC DUP2 PUSH2 0x2B6A JUMP JUMPDEST DUP3 MSTORE POP POP JUMP JUMPDEST PUSH2 0x270B DUP2 PUSH2 0x2B6A JUMP JUMPDEST DUP3 MSTORE POP POP JUMP JUMPDEST PUSH1 0x0 PUSH1 0x20 DUP3 ADD SWAP1 POP PUSH2 0x2726 PUSH1 0x0 DUP4 ADD DUP5 PUSH2 0x23A9 JUMP JUMPDEST SWAP3 SWAP2 POP POP JUMP JUMPDEST PUSH1 0x0 PUSH1 0x40 DUP3 ADD SWAP1 POP PUSH2 0x2741 PUSH1 0x0 DUP4 ADD DUP6 PUSH2 0x23A9 JUMP JUMPDEST PUSH2 0x274E PUSH1 0x20 DUP4 ADD DUP5 PUSH2 0x2702 JUMP JUMPDEST SWAP4 SWAP3 POP POP POP JUMP JUMPDEST PUSH1 0x0 PUSH1 0xE0 DUP3 ADD SWAP1 POP PUSH2 0x276A PUSH1 0x0 DUP4 ADD DUP11 PUSH2 0x23A9 JUMP JUMPDEST PUSH2 0x2777 PUSH1 0x20 DUP4 ADD DUP10 PUSH2 0x2702 JUMP JUMPDEST PUSH2 0x2784 PUSH1 0x40 DUP4 ADD DUP9 PUSH2 0x2702 JUMP JUMPDEST PUSH2 0x2791 PUSH1 0x60 DUP4 ADD DUP8 PUSH2 0x2702 JUMP JUMPDEST PUSH2 0x279E PUSH1 0x80 DUP4 ADD DUP7 PUSH2 0x2702 JUMP JUMPDEST PUSH2 0x27AB PUSH1 0xA0 DUP4 ADD DUP6 PUSH2 0x253F JUMP JUMPDEST PUSH2 0x27B8 PUSH1 0xC0 DUP4 ADD DUP5 PUSH2 0x2702 JUMP JUMPDEST SWAP9 SWAP8 POP POP POP POP POP POP POP POP JUMP JUMPDEST PUSH1 0x0 PUSH1 0x20 DUP3 ADD SWAP1 POP DUP2 DUP2 SUB PUSH1 0x0 DUP4 ADD MSTORE PUSH2 0x27DE DUP2 DUP5 PUSH2 0x23B8 JUMP JUMPDEST SWAP1 POP SWAP3 SWAP2 POP POP JUMP JUMPDEST PUSH1 0x0 PUSH1 0x20 DUP3 ADD SWAP1 POP DUP2 DUP2 SUB PUSH1 0x0 DUP4 ADD MSTORE PUSH2 0x2800 DUP2 DUP5 PUSH2 0x2416 JUMP JUMPDEST SWAP1 POP SWAP3 SWAP2 POP POP JUMP JUMPDEST PUSH1 0x0 PUSH1 0x20 DUP3 ADD SWAP1 POP DUP2 DUP2 SUB PUSH1 0x0 DUP4 ADD MSTORE PUSH2 0x2822 DUP2 DUP5 PUSH2 0x2474 JUMP JUMPDEST SWAP1 POP SWAP3 SWAP2 POP POP JUMP JUMPDEST PUSH1 0x0 PUSH1 0x20 DUP3 ADD SWAP1 POP DUP2 DUP2 SUB PUSH1 0x0 DUP4 ADD MSTORE PUSH2 0x2844 DUP2 DUP5 PUSH2 0x24D2 JUMP JUMPDEST SWAP1 POP SWAP3 SWAP2 POP POP JUMP JUMPDEST PUSH1 0x0 PUSH1 0x20 DUP3 ADD SWAP1 POP PUSH2 0x2861 PUSH1 0x0 DUP4 ADD DUP5 PUSH2 0x253F JUMP JUMPDEST SWAP3 SWAP2 POP POP JUMP JUMPDEST PUSH1 0x0 PUSH1 0x20 DUP3 ADD SWAP1 POP DUP2 DUP2 SUB PUSH1 0x0 DUP4 ADD MSTORE PUSH2 0x2880 DUP2 PUSH2 0x254E JUMP JUMPDEST SWAP1 POP SWAP2 SWAP1 POP JUMP JUMPDEST PUSH1 0x0 PUSH1 0x20 DUP3 ADD SWAP1 POP DUP2 DUP2 SUB PUSH1 0x0 DUP4 ADD MSTORE PUSH2 0x28A0 DUP2 PUSH2 0x2571 JUMP JUMPDEST SWAP1 POP SWAP2 SWAP1 POP JUMP JUMPDEST PUSH1 0x0 PUSH1 0x20 DUP3 ADD SWAP1 POP DUP2 DUP2 SUB PUSH1 0x0 DUP4 ADD MSTORE PUSH2 0x28C0 DUP2 PUSH2 0x2594 JUMP JUMPDEST SWAP1 POP SWAP2 SWAP1 POP JUMP JUMPDEST PUSH1 0x0 PUSH1 0x20 DUP3 ADD SWAP1 POP DUP2 DUP2 SUB PUSH1 0x0 DUP4 ADD MSTORE PUSH2 0x28E0 DUP2 PUSH2 0x25B7 JUMP JUMPDEST SWAP1 POP SWAP2 SWAP1 POP JUMP JUMPDEST PUSH1 0x0 PUSH1 0x20 DUP3 ADD SWAP1 POP DUP2 DUP2 SUB PUSH1 0x0 DUP4 ADD MSTORE PUSH2 0x2900 DUP2 PUSH2 0x25DA JUMP JUMPDEST SWAP1 POP SWAP2 SWAP1 POP JUMP JUMPDEST PUSH1 0x0 PUSH1 0x20 DUP3 ADD SWAP1 POP PUSH2 0x291C PUSH1 0x0 DUP4 ADD DUP5 PUSH2 0x2702 JUMP JUMPDEST SWAP3 SWAP2 POP POP JUMP JUMPDEST PUSH1 0x0 DUP2 SWAP1 POP PUSH1 0x20 DUP3 ADD SWAP1 POP SWAP2 SWAP1 POP JUMP JUMPDEST PUSH1 0x0 DUP2 SWAP1 POP PUSH1 0x20 DUP3 ADD SWAP1 POP SWAP2 SWAP1 POP JUMP JUMPDEST PUSH1 0x0 DUP2 SWAP1 POP PUSH1 0x20 DUP3 ADD SWAP1 POP SWAP2 SWAP1 POP JUMP JUMPDEST PUSH1 0x0 DUP2 SWAP1 POP PUSH1 0x20 DUP3 ADD SWAP1 POP SWAP2 SWAP1 POP JUMP JUMPDEST PUSH1 0x0 DUP2 MLOAD SWAP1 POP SWAP2 SWAP1 POP JUMP JUMPDEST PUSH1 0x0 DUP2 MLOAD SWAP1 POP SWAP2 SWAP1 POP JUMP JUMPDEST PUSH1 0x0 DUP2 MLOAD SWAP1 POP SWAP2 SWAP1 POP JUMP JUMPDEST PUSH1 0x0 DUP2 MLOAD SWAP1 POP SWAP2 SWAP1 POP JUMP JUMPDEST PUSH1 0x0 PUSH1 0x20 DUP3 ADD SWAP1 POP SWAP2 SWAP1 POP JUMP JUMPDEST PUSH1 0x0 PUSH1 0x20 DUP3 ADD SWAP1 POP SWAP2 SWAP1 POP JUMP JUMPDEST PUSH1 0x0 PUSH1 0x20 DUP3 ADD SWAP1 POP SWAP2 SWAP1 POP JUMP JUMPDEST PUSH1 0x0 PUSH1 0x20 DUP3 ADD SWAP1 POP SWAP2 SWAP1 POP JUMP JUMPDEST PUSH1 0x0 DUP3 DUP3 MSTORE PUSH1 0x20 DUP3 ADD SWAP1 POP SWAP3 SWAP2 POP POP JUMP JUMPDEST PUSH1 0x0 DUP3 DUP3 MSTORE PUSH1 0x20 DUP3 ADD SWAP1 POP SWAP3 SWAP2 POP POP JUMP JUMPDEST PUSH1 0x0 DUP3 DUP3 MSTORE PUSH1 0x20 DUP3 ADD SWAP1 POP SWAP3 SWAP2 POP POP JUMP JUMPDEST PUSH1 0x0 DUP3 DUP3 MSTORE PUSH1 0x20 DUP3 ADD SWAP1 POP SWAP3 SWAP2 POP POP JUMP JUMPDEST PUSH1 0x0 DUP3 DUP3 MSTORE PUSH1 0x20 DUP3 ADD SWAP1 POP SWAP3 SWAP2 POP POP JUMP JUMPDEST PUSH1 0x0 PUSH2 0x2A22 DUP3 PUSH2 0x2B6A JUMP JUMPDEST SWAP2 POP PUSH2 0x2A2D DUP4 PUSH2 0x2B6A JUMP JUMPDEST SWAP3 POP DUP3 PUSH32 0xFFFFFFFFFFFFFFFFFFFFFFFFFFFFFFFFFFFFFFFFFFFFFFFFFFFFFFFFFFFFFFFF SUB DUP3 GT ISZERO PUSH2 0x2A62 JUMPI PUSH2 0x2A61 PUSH2 0x2BBD JUMP JUMPDEST JUMPDEST DUP3 DUP3 ADD SWAP1 POP SWAP3 SWAP2 POP POP JUMP JUMPDEST PUSH1 0x0 PUSH2 0x2A78 DUP3 PUSH2 0x2B6A JUMP JUMPDEST SWAP2 POP PUSH2 0x2A83 DUP4 PUSH2 0x2B6A JUMP JUMPDEST SWAP3 POP DUP3 PUSH2 0x2A93 JUMPI PUSH2 0x2A92 PUSH2 0x2BEC JUMP JUMPDEST JUMPDEST DUP3 DUP3 DIV SWAP1 POP SWAP3 SWAP2 POP POP JUMP JUMPDEST PUSH1 0x0 PUSH2 0x2AA9 DUP3 PUSH2 0x2B6A JUMP JUMPDEST SWAP2 POP PUSH2 0x2AB4 DUP4 PUSH2 0x2B6A JUMP JUMPDEST SWAP3 POP DUP2 PUSH32 0xFFFFFFFFFFFFFFFFFFFFFFFFFFFFFFFFFFFFFFFFFFFFFFFFFFFFFFFFFFFFFFFF DIV DUP4 GT DUP3 ISZERO ISZERO AND ISZERO PUSH2 0x2AED JUMPI PUSH2 0x2AEC PUSH2 0x2BBD JUMP JUMPDEST JUMPDEST DUP3 DUP3 MUL SWAP1 POP SWAP3 SWAP2 POP POP JUMP JUMPDEST PUSH1 0x0 PUSH2 0x2B03 DUP3 PUSH2 0x2B6A JUMP JUMPDEST SWAP2 POP PUSH2 0x2B0E DUP4 PUSH2 0x2B6A JUMP JUMPDEST SWAP3 POP DUP3 DUP3 LT ISZERO PUSH2 0x2B21 JUMPI PUSH2 0x2B20 PUSH2 0x2BBD JUMP JUMPDEST JUMPDEST DUP3 DUP3 SUB SWAP1 POP SWAP3 SWAP2 POP POP JUMP JUMPDEST PUSH1 0x0 PUSH2 0x2B37 DUP3 PUSH2 0x2B4A JUMP JUMPDEST SWAP1 POP SWAP2 SWAP1 POP JUMP JUMPDEST PUSH1 0x0 DUP2 ISZERO ISZERO SWAP1 POP SWAP2 SWAP1 POP JUMP JUMPDEST PUSH1 0x0 PUSH20 0xFFFFFFFFFFFFFFFFFFFFFFFFFFFFFFFFFFFFFFFF DUP3 AND SWAP1 POP SWAP2 SWAP1 POP JUMP JUMPDEST PUSH1 0x0 DUP2 SWAP1 POP SWAP2 SWAP1 POP JUMP JUMPDEST PUSH1 0x0 PUSH2 0x2B7F DUP3 PUSH2 0x2B6A JUMP JUMPDEST SWAP2 POP PUSH32 0xFFFFFFFFFFFFFFFFFFFFFFFFFFFFFFFFFFFFFFFFFFFFFFFFFFFFFFFFFFFFFFFF DUP3 EQ ISZERO PUSH2 0x2BB2 JUMPI PUSH2 0x2BB1 PUSH2 0x2BBD JUMP JUMPDEST JUMPDEST PUSH1 0x1 DUP3 ADD SWAP1 POP SWAP2 SWAP1 POP JUMP JUMPDEST PUSH32 0x4E487B7100000000000000000000000000000000000000000000000000000000 PUSH1 0x0 MSTORE PUSH1 0x11 PUSH1 0x4 MSTORE PUSH1 0x24 PUSH1 0x0 REVERT JUMPDEST PUSH32 0x4E487B7100000000000000000000000000000000000000000000000000000000 PUSH1 0x0 MSTORE PUSH1 0x12 PUSH1 0x4 MSTORE PUSH1 0x24 PUSH1 0x0 REVERT JUMPDEST PUSH32 0x4E487B7100000000000000000000000000000000000000000000000000000000 PUSH1 0x0 MSTORE PUSH1 0x32 PUSH1 0x4 MSTORE PUSH1 0x24 PUSH1 0x0 REVERT JUMPDEST PUSH32 0x4E487B7100000000000000000000000000000000000000000000000000000000 PUSH1 0x0 MSTORE PUSH1 0x41 PUSH1 0x4 MSTORE PUSH1 0x24 PUSH1 0x0 REVERT JUMPDEST PUSH1 0x0 DUP1 REVERT JUMPDEST PUSH32 0x796F7520646F6E74206861766520696E766573746D656E7420746F2077697468 PUSH1 0x0 DUP3 ADD MSTORE PUSH32 0x647261776E000000000000000000000000000000000000000000000000000000 PUSH1 0x20 DUP3 ADD MSTORE POP JUMP JUMPDEST PUSH32 0x76616C7565206973206E6F742067726561746572207468616E20313030303020 PUSH1 0x0 DUP3 ADD MSTORE PUSH32 0x616E64206C657373207468616E20353030303030300000000000000000000000 PUSH1 0x20 DUP3 ADD MSTORE POP JUMP JUMPDEST PUSH32 0x796F7520646F6E742068617665207265776172647320746F2077697468647261 PUSH1 0x0 DUP3 ADD MSTORE PUSH32 0x776E000000000000000000000000000000000000000000000000000000000000 PUSH1 0x20 DUP3 ADD MSTORE POP JUMP JUMPDEST PUSH32 0x796F752063616E74207769746864726177206265666F72652031207965617200 PUSH1 0x0 DUP3 ADD MSTORE POP JUMP JUMPDEST PUSH32 0x6F6E6C79204F776E65722063616E2063616C6C20746869732066756E6374696F PUSH1 0x0 DUP3 ADD MSTORE PUSH32 0x6E00000000000000000000000000000000000000000000000000000000000000 PUSH1 0x20 DUP3 ADD MSTORE POP JUMP JUMPDEST PUSH2 0x2DEC DUP2 PUSH2 0x2B2C JUMP JUMPDEST DUP2 EQ PUSH2 0x2DF7 JUMPI PUSH1 0x0 DUP1 REVERT JUMPDEST POP JUMP JUMPDEST PUSH2 0x2E03 DUP2 PUSH2 0x2B3E JUMP JUMPDEST DUP2 EQ PUSH2 0x2E0E JUMPI PUSH1 0x0 DUP1 REVERT JUMPDEST POP JUMP JUMPDEST PUSH2 0x2E1A DUP2 PUSH2 0x2B6A JUMP JUMPDEST DUP2 EQ PUSH2 0x2E25 JUMPI PUSH1 0x0 DUP1 REVERT JUMPDEST POP JUMP INVALID LOG2 PUSH5 0x6970667358 0x22 SLT KECCAK256 0xC2 CALLER 0xD0 0xE1 0xD9 MLOAD DUP8 PUSH7 0xAD991EA80C4403 CALLDATACOPY 0x29 REVERT SWAP8 0xB8 LOG1 MSTORE DUP2 0xA8 0xCD 0xA5 DIV EXP 0xDF TIMESTAMP DUP2 PUSH10 0x64736F6C634300080700 CALLER "
				},
				"gasEstimates": {
					"creation": {
						"codeDepositCost": "2374000",
						"executionCost": "207981",
						"totalCost": "2581981"
					},
					"external": {
						"Admin_data()": "infinite",
						"All_investors(uint256)": "2928",
						"DUSDReferralsList()": "infinite",
						"DUSDTotalReferrals()": "2608",
						"DUSDinvestor(address)": "infinite",
						"Stake(uint256)": "infinite",
						"denomenator()": "2496",
						"getAllDUSDinvestments()": "infinite",
						"getReward()": "infinite",
						"getTotalInvestmentDUSD()": "2577",
						"investmentPeriod()": "2540",
						"max_Stake_amount()": "2539",
						"min_Stake_amount()": "2540",
						"owner()": "2601",
						"referralLevel_count()": "infinite",
						"referralLevel_earning()": "infinite",
						"rewardToken()": "2517",
						"setReward(uint256)": "22632",
						"set_max_Stake_amount(uint256)": "22587",
						"set_min_Stake_amount(uint256)": "22654",
						"set_values(uint256,uint256,uint256,uint256)": "infinite",
						"totalDUSDInvestors()": "2475",
						"total_withdraw_reaward()": "2591",
						"totalbusiness()": "2518",
						"transferOwnership(address)": "26933",
						"unStake()": "infinite",
						"withdrawReward()": "infinite"
					},
					"internal": {
						"DUSDTotalReferrals_inside(address)": "2238",
						"get_investor_Reward(address)": "infinite"
					}
				},
				"methodIdentifiers": {
					"Admin_data()": "42508f66",
					"All_investors(uint256)": "502c6bfa",
					"DUSDReferralsList()": "0c5f58f4",
					"DUSDTotalReferrals()": "1e8aba35",
					"DUSDinvestor(address)": "d3560ee8",
					"Stake(uint256)": "227a473b",
					"denomenator()": "9740a1bc",
					"getAllDUSDinvestments()": "3a1e0833",
					"getReward()": "3d18b912",
					"getTotalInvestmentDUSD()": "929f6bbe",
					"investmentPeriod()": "523cddfe",
					"max_Stake_amount()": "fae730bc",
					"min_Stake_amount()": "bc67eaff",
					"owner()": "8da5cb5b",
					"referralLevel_count()": "f790b81a",
					"referralLevel_earning()": "a61be99d",
					"rewardToken()": "f7c618c1",
					"setReward(uint256)": "293be456",
					"set_max_Stake_amount(uint256)": "500cb85f",
					"set_min_Stake_amount(uint256)": "32d4e783",
					"set_values(uint256,uint256,uint256,uint256)": "4eb1ecc9",
					"totalDUSDInvestors()": "10cde60a",
					"total_withdraw_reaward()": "5a4a0192",
					"totalbusiness()": "e2033fcb",
					"transferOwnership(address)": "f2fde38b",
					"unStake()": "73cf575a",
					"withdrawReward()": "c885bc58"
				}
			},
			"storageLayout": {
				"storage": [
					{
						"astId": 24,
						"contract": "contracts/contractsCopy/khaledulsaleh_staking.sol:Invest",
						"label": "owner",
						"offset": 0,
						"slot": "0",
						"type": "t_address"
					},
					{
						"astId": 27,
						"contract": "contracts/contractsCopy/khaledulsaleh_staking.sol:Invest",
						"label": "SMCcontract",
						"offset": 0,
						"slot": "1",
						"type": "t_address"
					},
					{
						"astId": 30,
						"contract": "contracts/contractsCopy/khaledulsaleh_staking.sol:Invest",
						"label": "BUSDcontract",
						"offset": 0,
						"slot": "2",
						"type": "t_address"
					},
					{
						"astId": 33,
						"contract": "contracts/contractsCopy/khaledulsaleh_staking.sol:Invest",
						"label": "reward_per_day",
						"offset": 0,
						"slot": "3",
						"type": "t_uint256"
					},
					{
						"astId": 35,
						"contract": "contracts/contractsCopy/khaledulsaleh_staking.sol:Invest",
						"label": "totalDUSDInvestors",
						"offset": 0,
						"slot": "4",
						"type": "t_uint256"
					},
					{
						"astId": 38,
						"contract": "contracts/contractsCopy/khaledulsaleh_staking.sol:Invest",
						"label": "rewardToken",
						"offset": 0,
						"slot": "5",
						"type": "t_uint256"
					},
					{
						"astId": 41,
						"contract": "contracts/contractsCopy/khaledulsaleh_staking.sol:Invest",
						"label": "min_Stake_amount",
						"offset": 0,
						"slot": "6",
						"type": "t_uint256"
					},
					{
						"astId": 44,
						"contract": "contracts/contractsCopy/khaledulsaleh_staking.sol:Invest",
						"label": "max_Stake_amount",
						"offset": 0,
						"slot": "7",
						"type": "t_uint256"
					},
					{
						"astId": 47,
						"contract": "contracts/contractsCopy/khaledulsaleh_staking.sol:Invest",
						"label": "denomenator",
						"offset": 0,
						"slot": "8",
						"type": "t_uint256"
					},
					{
						"astId": 50,
						"contract": "contracts/contractsCopy/khaledulsaleh_staking.sol:Invest",
						"label": "investmentPeriod",
						"offset": 0,
						"slot": "9",
						"type": "t_uint256"
					},
					{
						"astId": 52,
						"contract": "contracts/contractsCopy/khaledulsaleh_staking.sol:Invest",
						"label": "totalbusiness",
						"offset": 0,
						"slot": "10",
						"type": "t_uint256"
					},
					{
						"astId": 54,
						"contract": "contracts/contractsCopy/khaledulsaleh_staking.sol:Invest",
						"label": "rew_till_done",
						"offset": 0,
						"slot": "11",
						"type": "t_uint256"
					},
					{
						"astId": 58,
						"contract": "contracts/contractsCopy/khaledulsaleh_staking.sol:Invest",
						"label": "All_investors",
						"offset": 0,
						"slot": "12",
						"type": "t_mapping(t_uint256,t_address)"
					},
					{
						"astId": 122,
						"contract": "contracts/contractsCopy/khaledulsaleh_staking.sol:Invest",
						"label": "DUSDinvestor",
						"offset": 0,
						"slot": "13",
						"type": "t_mapping(t_address,t_struct(Data)117_storage)"
					}
				],
				"types": {
					"t_address": {
						"encoding": "inplace",
						"label": "address",
						"numberOfBytes": "20"
					},
					"t_array(t_address)dyn_storage": {
						"base": "t_address",
						"encoding": "dynamic_array",
						"label": "address[]",
						"numberOfBytes": "32"
					},
					"t_bool": {
						"encoding": "inplace",
						"label": "bool",
						"numberOfBytes": "1"
					},
					"t_mapping(t_address,t_struct(Data)117_storage)": {
						"encoding": "mapping",
						"key": "t_address",
						"label": "mapping(address => struct Invest.Data)",
						"numberOfBytes": "32",
						"value": "t_struct(Data)117_storage"
					},
					"t_mapping(t_uint256,t_address)": {
						"encoding": "mapping",
						"key": "t_uint256",
						"label": "mapping(uint256 => address)",
						"numberOfBytes": "32",
						"value": "t_address"
					},
					"t_mapping(t_uint256,t_struct(allInvestments)71_storage)": {
						"encoding": "mapping",
						"key": "t_uint256",
						"label": "mapping(uint256 => struct Invest.allInvestments)",
						"numberOfBytes": "32",
						"value": "t_struct(allInvestments)71_storage"
					},
					"t_mapping(t_uint256,t_struct(ref_data)76_storage)": {
						"encoding": "mapping",
						"key": "t_uint256",
						"label": "mapping(uint256 => struct Invest.ref_data)",
						"numberOfBytes": "32",
						"value": "t_struct(ref_data)76_storage"
					},
					"t_struct(Data)117_storage": {
						"encoding": "inplace",
						"label": "struct Invest.Data",
						"members": [
							{
								"astId": 94,
								"contract": "contracts/contractsCopy/khaledulsaleh_staking.sol:Invest",
								"label": "investment",
								"offset": 0,
								"slot": "0",
								"type": "t_mapping(t_uint256,t_struct(allInvestments)71_storage)"
							},
							{
								"astId": 97,
								"contract": "contracts/contractsCopy/khaledulsaleh_staking.sol:Invest",
								"label": "hisReferrals",
								"offset": 0,
								"slot": "1",
								"type": "t_array(t_address)dyn_storage"
							},
							{
								"astId": 99,
								"contract": "contracts/contractsCopy/khaledulsaleh_staking.sol:Invest",
								"label": "referralFrom",
								"offset": 0,
								"slot": "2",
								"type": "t_address"
							},
							{
								"astId": 104,
								"contract": "contracts/contractsCopy/khaledulsaleh_staking.sol:Invest",
								"label": "referralLevel",
								"offset": 0,
								"slot": "3",
								"type": "t_mapping(t_uint256,t_struct(ref_data)76_storage)"
							},
							{
								"astId": 106,
								"contract": "contracts/contractsCopy/khaledulsaleh_staking.sol:Invest",
								"label": "reward",
								"offset": 0,
								"slot": "4",
								"type": "t_uint256"
							},
							{
								"astId": 108,
								"contract": "contracts/contractsCopy/khaledulsaleh_staking.sol:Invest",
								"label": "noOfInvestment",
								"offset": 0,
								"slot": "5",
								"type": "t_uint256"
							},
							{
								"astId": 110,
								"contract": "contracts/contractsCopy/khaledulsaleh_staking.sol:Invest",
								"label": "totalInvestment",
								"offset": 0,
								"slot": "6",
								"type": "t_uint256"
							},
							{
								"astId": 112,
								"contract": "contracts/contractsCopy/khaledulsaleh_staking.sol:Invest",
								"label": "totalWithdraw_reward",
								"offset": 0,
								"slot": "7",
								"type": "t_uint256"
							},
							{
								"astId": 114,
								"contract": "contracts/contractsCopy/khaledulsaleh_staking.sol:Invest",
								"label": "investBefore",
								"offset": 0,
								"slot": "8",
								"type": "t_bool"
							},
							{
								"astId": 116,
								"contract": "contracts/contractsCopy/khaledulsaleh_staking.sol:Invest",
								"label": "stakeTime",
								"offset": 0,
								"slot": "9",
								"type": "t_uint256"
							}
						],
						"numberOfBytes": "320"
					},
					"t_struct(allInvestments)71_storage": {
						"encoding": "inplace",
						"label": "struct Invest.allInvestments",
						"members": [
							{
								"astId": 60,
								"contract": "contracts/contractsCopy/khaledulsaleh_staking.sol:Invest",
								"label": "investedAmount",
								"offset": 0,
								"slot": "0",
								"type": "t_uint256"
							},
							{
								"astId": 62,
								"contract": "contracts/contractsCopy/khaledulsaleh_staking.sol:Invest",
								"label": "withdrawnTime",
								"offset": 0,
								"slot": "1",
								"type": "t_uint256"
							},
							{
								"astId": 64,
								"contract": "contracts/contractsCopy/khaledulsaleh_staking.sol:Invest",
								"label": "DepositTime",
								"offset": 0,
								"slot": "2",
								"type": "t_uint256"
							},
							{
								"astId": 66,
								"contract": "contracts/contractsCopy/khaledulsaleh_staking.sol:Invest",
								"label": "investmentNum",
								"offset": 0,
								"slot": "3",
								"type": "t_uint256"
							},
							{
								"astId": 68,
								"contract": "contracts/contractsCopy/khaledulsaleh_staking.sol:Invest",
								"label": "unstakeTime",
								"offset": 0,
								"slot": "4",
								"type": "t_uint256"
							},
							{
								"astId": 70,
								"contract": "contracts/contractsCopy/khaledulsaleh_staking.sol:Invest",
								"label": "unstake",
								"offset": 0,
								"slot": "5",
								"type": "t_bool"
							}
						],
						"numberOfBytes": "192"
					},
					"t_struct(ref_data)76_storage": {
						"encoding": "inplace",
						"label": "struct Invest.ref_data",
						"members": [
							{
								"astId": 73,
								"contract": "contracts/contractsCopy/khaledulsaleh_staking.sol:Invest",
								"label": "reward",
								"offset": 0,
								"slot": "0",
								"type": "t_uint256"
							},
							{
								"astId": 75,
								"contract": "contracts/contractsCopy/khaledulsaleh_staking.sol:Invest",
								"label": "count",
								"offset": 0,
								"slot": "1",
								"type": "t_uint256"
							}
						],
						"numberOfBytes": "64"
					},
					"t_uint256": {
						"encoding": "inplace",
						"label": "uint256",
						"numberOfBytes": "32"
					}
				}
			},
			"userdoc": {
				"kind": "user",
				"methods": {},
				"version": 1
			}
		}
	}
}