{
	"contracts/contractsCopy/khaledulsaleh_staking.sol": {
		"Invest": {
			"abi": [
				{
					"inputs": [],
					"stateMutability": "nonpayable",
					"type": "constructor"
				},
				{
					"inputs": [],
					"name": "Admin_data",
					"outputs": [
						{
							"components": [
								{
									"internalType": "address",
									"name": "investor",
									"type": "address"
								},
								{
									"internalType": "uint256",
									"name": "totalInvestment",
									"type": "uint256"
								},
								{
									"internalType": "uint256",
									"name": "reward",
									"type": "uint256"
								},
								{
									"internalType": "uint256",
									"name": "noOfInvestment",
									"type": "uint256"
								},
								{
									"internalType": "uint256",
									"name": "totalWithdraw_reward",
									"type": "uint256"
								},
								{
									"internalType": "uint256",
									"name": "Total_referrals",
									"type": "uint256"
								}
							],
							"internalType": "struct Invest.Admin_Data[]",
							"name": "",
							"type": "tuple[]"
						}
					],
					"stateMutability": "view",
					"type": "function"
				},
				{
					"inputs": [
						{
							"internalType": "uint256",
							"name": "",
							"type": "uint256"
						}
					],
					"name": "All_investors",
					"outputs": [
						{
							"internalType": "address",
							"name": "",
							"type": "address"
						}
					],
					"stateMutability": "view",
					"type": "function"
				},
				{
					"inputs": [],
					"name": "DUSDReferralsList",
					"outputs": [
						{
							"internalType": "address[]",
							"name": "",
							"type": "address[]"
						}
					],
					"stateMutability": "view",
					"type": "function"
				},
				{
					"inputs": [],
					"name": "DUSDTotalReferrals",
					"outputs": [
						{
							"internalType": "uint256",
							"name": "",
							"type": "uint256"
						}
					],
					"stateMutability": "view",
					"type": "function"
				},
				{
					"inputs": [
						{
							"internalType": "address",
							"name": "",
							"type": "address"
						}
					],
					"name": "DUSDinvestor",
					"outputs": [
						{
							"internalType": "address",
							"name": "referralFrom",
							"type": "address"
						},
						{
							"internalType": "uint256",
							"name": "reward",
							"type": "uint256"
						},
						{
							"internalType": "uint256",
							"name": "noOfInvestment",
							"type": "uint256"
						},
						{
							"internalType": "uint256",
							"name": "totalInvestment",
							"type": "uint256"
						},
						{
							"internalType": "uint256",
							"name": "totalWithdraw_reward",
							"type": "uint256"
						},
						{
							"internalType": "bool",
							"name": "investBefore",
							"type": "bool"
						},
						{
							"internalType": "uint256",
							"name": "stakeTime",
							"type": "uint256"
						}
					],
					"stateMutability": "view",
					"type": "function"
				},
				{
					"inputs": [
						{
							"internalType": "uint256",
							"name": "_investedamount",
							"type": "uint256"
						}
					],
					"name": "Stake",
					"outputs": [
						{
							"internalType": "bool",
							"name": "success",
							"type": "bool"
						}
					],
					"stateMutability": "nonpayable",
					"type": "function"
				},
				{
					"inputs": [],
					"name": "denomenator",
					"outputs": [
						{
							"internalType": "uint256",
							"name": "",
							"type": "uint256"
						}
					],
					"stateMutability": "view",
					"type": "function"
				},
				{
					"inputs": [],
					"name": "getAllDUSDinvestments",
					"outputs": [
						{
							"components": [
								{
									"internalType": "uint256",
									"name": "investedAmount",
									"type": "uint256"
								},
								{
									"internalType": "uint256",
									"name": "withdrawnTime",
									"type": "uint256"
								},
								{
									"internalType": "uint256",
									"name": "DepositTime",
									"type": "uint256"
								},
								{
									"internalType": "uint256",
									"name": "investmentNum",
									"type": "uint256"
								},
								{
									"internalType": "uint256",
									"name": "unstakeTime",
									"type": "uint256"
								},
								{
									"internalType": "bool",
									"name": "unstake",
									"type": "bool"
								}
							],
							"internalType": "struct Invest.allInvestments[]",
							"name": "",
							"type": "tuple[]"
						}
					],
					"stateMutability": "view",
					"type": "function"
				},
				{
					"inputs": [],
					"name": "getReward",
					"outputs": [
						{
							"internalType": "uint256",
							"name": "",
							"type": "uint256"
						}
					],
					"stateMutability": "view",
					"type": "function"
				},
				{
					"inputs": [],
					"name": "getTotalInvestmentDUSD",
					"outputs": [
						{
							"internalType": "uint256",
							"name": "",
							"type": "uint256"
						}
					],
					"stateMutability": "view",
					"type": "function"
				},
				{
					"inputs": [],
					"name": "investmentPeriod",
					"outputs": [
						{
							"internalType": "uint256",
							"name": "",
							"type": "uint256"
						}
					],
					"stateMutability": "view",
					"type": "function"
				},
				{
					"inputs": [],
					"name": "max_Stake_amount",
					"outputs": [
						{
							"internalType": "uint256",
							"name": "",
							"type": "uint256"
						}
					],
					"stateMutability": "view",
					"type": "function"
				},
				{
					"inputs": [],
					"name": "min_Stake_amount",
					"outputs": [
						{
							"internalType": "uint256",
							"name": "",
							"type": "uint256"
						}
					],
					"stateMutability": "view",
					"type": "function"
				},
				{
					"inputs": [],
					"name": "owner",
					"outputs": [
						{
							"internalType": "address",
							"name": "",
							"type": "address"
						}
					],
					"stateMutability": "view",
					"type": "function"
				},
				{
					"inputs": [],
					"name": "referralLevel_count",
					"outputs": [
						{
							"internalType": "uint256[]",
							"name": "arr",
							"type": "uint256[]"
						}
					],
					"stateMutability": "view",
					"type": "function"
				},
				{
					"inputs": [],
					"name": "referralLevel_earning",
					"outputs": [
						{
							"internalType": "uint256[]",
							"name": "arr",
							"type": "uint256[]"
						}
					],
					"stateMutability": "view",
					"type": "function"
				},
				{
					"inputs": [],
					"name": "rewardToken",
					"outputs": [
						{
							"internalType": "uint256",
							"name": "",
							"type": "uint256"
						}
					],
					"stateMutability": "view",
					"type": "function"
				},
				{
					"inputs": [
						{
							"internalType": "uint256",
							"name": "_reward",
							"type": "uint256"
						}
					],
					"name": "setReward",
					"outputs": [],
					"stateMutability": "nonpayable",
					"type": "function"
				},
				{
					"inputs": [
						{
							"internalType": "uint256",
							"name": "_amount",
							"type": "uint256"
						}
					],
					"name": "set_max_Stake_amount",
					"outputs": [],
					"stateMutability": "nonpayable",
					"type": "function"
				},
				{
					"inputs": [
						{
							"internalType": "uint256",
							"name": "_amount",
							"type": "uint256"
						}
					],
					"name": "set_min_Stake_amount",
					"outputs": [],
					"stateMutability": "nonpayable",
					"type": "function"
				},
				{
					"inputs": [
						{
							"internalType": "uint256",
							"name": "min_stake",
							"type": "uint256"
						},
						{
							"internalType": "uint256",
							"name": "max_stake",
							"type": "uint256"
						},
						{
							"internalType": "uint256",
							"name": "_reward_per_day",
							"type": "uint256"
						},
						{
							"internalType": "uint256",
							"name": "_denomenator",
							"type": "uint256"
						}
					],
					"name": "set_values",
					"outputs": [],
					"stateMutability": "nonpayable",
					"type": "function"
				},
				{
					"inputs": [],
					"name": "totalDUSDInvestors",
					"outputs": [
						{
							"internalType": "uint256",
							"name": "",
							"type": "uint256"
						}
					],
					"stateMutability": "view",
					"type": "function"
				},
				{
					"inputs": [],
					"name": "total_withdraw_reaward",
					"outputs": [
						{
							"internalType": "uint256",
							"name": "",
							"type": "uint256"
						}
					],
					"stateMutability": "view",
					"type": "function"
				},
				{
					"inputs": [],
					"name": "totalbusiness",
					"outputs": [
						{
							"internalType": "uint256",
							"name": "",
							"type": "uint256"
						}
					],
					"stateMutability": "view",
					"type": "function"
				},
				{
					"inputs": [
						{
							"internalType": "address",
							"name": "_owner",
							"type": "address"
						}
					],
					"name": "transferOwnership",
					"outputs": [],
					"stateMutability": "nonpayable",
					"type": "function"
				},
				{
					"inputs": [],
					"name": "unStake",
					"outputs": [
						{
							"internalType": "bool",
							"name": "success",
							"type": "bool"
						}
					],
					"stateMutability": "nonpayable",
					"type": "function"
				},
				{
					"inputs": [],
					"name": "withdrawReward",
					"outputs": [
						{
							"internalType": "bool",
							"name": "success",
							"type": "bool"
						}
					],
					"stateMutability": "nonpayable",
					"type": "function"
				}
			],
			"devdoc": {
				"kind": "dev",
				"methods": {},
				"version": 1
			},
			"evm": {
				"assembly": "    /* \"contracts/contractsCopy/khaledulsaleh_staking.sol\":262:12564  contract Invest... */\n  mstore(0x40, 0x80)\n    /* \"contracts/contractsCopy/khaledulsaleh_staking.sol\":351:393  0xe9e7CEA3DedcA5984780Bafc599bD69ADd087D56 */\n  0xe9e7cea3dedca5984780bafc599bd69add087d56\n    /* \"contracts/contractsCopy/khaledulsaleh_staking.sol\":331:393  address SMCcontract=0xe9e7CEA3DedcA5984780Bafc599bD69ADd087D56 */\n  0x01\n  exp(0x0100, 0x00)\n  dup2\n  sload\n  dup2\n  0xffffffffffffffffffffffffffffffffffffffff\n  mul\n  not\n  and\n  swap1\n  dup4\n  0xffffffffffffffffffffffffffffffffffffffff\n  and\n  mul\n  or\n  swap1\n  sstore\n  pop\n    /* \"contracts/contractsCopy/khaledulsaleh_staking.sol\":424:466  0xe9e7CEA3DedcA5984780Bafc599bD69ADd087D56 */\n  0xe9e7cea3dedca5984780bafc599bd69add087d56\n    /* \"contracts/contractsCopy/khaledulsaleh_staking.sol\":403:466  address BUSDcontract=0xe9e7CEA3DedcA5984780Bafc599bD69ADd087D56 */\n  0x02\n  exp(0x0100, 0x00)\n  dup2\n  sload\n  dup2\n  0xffffffffffffffffffffffffffffffffffffffff\n  mul\n  not\n  and\n  swap1\n  dup4\n  0xffffffffffffffffffffffffffffffffffffffff\n  and\n  mul\n  or\n  swap1\n  sstore\n  pop\n    /* \"contracts/contractsCopy/khaledulsaleh_staking.sol\":649:652  191 */\n  0xbf\n    /* \"contracts/contractsCopy/khaledulsaleh_staking.sol\":629:652  uint reward_per_day=191 */\n  0x03\n  sstore\n    /* \"contracts/contractsCopy/khaledulsaleh_staking.sol\":726:745  5000000000000000000 */\n  0x4563918244f40000\n    /* \"contracts/contractsCopy/khaledulsaleh_staking.sol\":702:745  uint public rewardToken=5000000000000000000 */\n  0x05\n  sstore\n    /* \"contracts/contractsCopy/khaledulsaleh_staking.sol\":794:799  10000 */\n  0x2710\n    /* \"contracts/contractsCopy/khaledulsaleh_staking.sol\":765:799  uint public min_Stake_amount=10000 */\n  0x06\n  sstore\n    /* \"contracts/contractsCopy/khaledulsaleh_staking.sol\":865:872  5000000 */\n  0x4c4b40\n    /* \"contracts/contractsCopy/khaledulsaleh_staking.sol\":836:872  uint public max_Stake_amount=5000000 */\n  0x07\n  sstore\n    /* \"contracts/contractsCopy/khaledulsaleh_staking.sol\":934:940  100000 */\n  0x0186a0\n    /* \"contracts/contractsCopy/khaledulsaleh_staking.sol\":910:940  uint public denomenator=100000 */\n  0x08\n  sstore\n    /* \"contracts/contractsCopy/khaledulsaleh_staking.sol\":1007:1015  365 days */\n  0x01e13380\n    /* \"contracts/contractsCopy/khaledulsaleh_staking.sol\":978:1015  uint public investmentPeriod=365 days */\n  0x09\n  sstore\n    /* \"contracts/contractsCopy/khaledulsaleh_staking.sol\":2144:2274  constructor(){... */\n  callvalue\n  dup1\n  iszero\n  tag_1\n  jumpi\n  0x00\n  dup1\n  revert\ntag_1:\n  pop\n    /* \"contracts/contractsCopy/khaledulsaleh_staking.sol\":2190:2200  msg.sender */\n  caller\n    /* \"contracts/contractsCopy/khaledulsaleh_staking.sol\":2184:2189  owner */\n  0x00\n  dup1\n    /* \"contracts/contractsCopy/khaledulsaleh_staking.sol\":2184:2200  owner=msg.sender */\n  0x0100\n  exp\n  dup2\n  sload\n  dup2\n  0xffffffffffffffffffffffffffffffffffffffff\n  mul\n  not\n  and\n  swap1\n  dup4\n  0xffffffffffffffffffffffffffffffffffffffff\n  and\n  mul\n  or\n  swap1\n  sstore\n  pop\n    /* \"contracts/contractsCopy/khaledulsaleh_staking.sol\":262:12564  contract Invest... */\n  dataSize(sub_0)\n  dup1\n  dataOffset(sub_0)\n  0x00\n  codecopy\n  0x00\n  return\nstop\n\nsub_0: assembly {\n        /* \"contracts/contractsCopy/khaledulsaleh_staking.sol\":262:12564  contract Invest... */\n      mstore(0x40, 0x80)\n      callvalue\n      dup1\n      iszero\n      tag_1\n      jumpi\n      0x00\n      dup1\n      revert\n    tag_1:\n      pop\n      jumpi(tag_2, lt(calldatasize, 0x04))\n      shr(0xe0, calldataload(0x00))\n      dup1\n      0x5a4a0192\n      gt\n      tag_30\n      jumpi\n      dup1\n      0xc885bc58\n      gt\n      tag_31\n      jumpi\n      dup1\n      0xf2fde38b\n      gt\n      tag_32\n      jumpi\n      dup1\n      0xf2fde38b\n      eq\n      tag_26\n      jumpi\n      dup1\n      0xf790b81a\n      eq\n      tag_27\n      jumpi\n      dup1\n      0xf7c618c1\n      eq\n      tag_28\n      jumpi\n      dup1\n      0xfae730bc\n      eq\n      tag_29\n      jumpi\n      jump(tag_2)\n    tag_32:\n      dup1\n      0xc885bc58\n      eq\n      tag_23\n      jumpi\n      dup1\n      0xd3560ee8\n      eq\n      tag_24\n      jumpi\n      dup1\n      0xe2033fcb\n      eq\n      tag_25\n      jumpi\n      jump(tag_2)\n    tag_31:\n      dup1\n      0x929f6bbe\n      gt\n      tag_33\n      jumpi\n      dup1\n      0x929f6bbe\n      eq\n      tag_19\n      jumpi\n      dup1\n      0x9740a1bc\n      eq\n      tag_20\n      jumpi\n      dup1\n      0xa61be99d\n      eq\n      tag_21\n      jumpi\n      dup1\n      0xbc67eaff\n      eq\n      tag_22\n      jumpi\n      jump(tag_2)\n    tag_33:\n      dup1\n      0x5a4a0192\n      eq\n      tag_16\n      jumpi\n      dup1\n      0x73cf575a\n      eq\n      tag_17\n      jumpi\n      dup1\n      0x8da5cb5b\n      eq\n      tag_18\n      jumpi\n      jump(tag_2)\n    tag_30:\n      dup1\n      0x3a1e0833\n      gt\n      tag_34\n      jumpi\n      dup1\n      0x4eb1ecc9\n      gt\n      tag_35\n      jumpi\n      dup1\n      0x4eb1ecc9\n      eq\n      tag_12\n      jumpi\n      dup1\n      0x500cb85f\n      eq\n      tag_13\n      jumpi\n      dup1\n      0x502c6bfa\n      eq\n      tag_14\n      jumpi\n      dup1\n      0x523cddfe\n      eq\n      tag_15\n      jumpi\n      jump(tag_2)\n    tag_35:\n      dup1\n      0x3a1e0833\n      eq\n      tag_9\n      jumpi\n      dup1\n      0x3d18b912\n      eq\n      tag_10\n      jumpi\n      dup1\n      0x42508f66\n      eq\n      tag_11\n      jumpi\n      jump(tag_2)\n    tag_34:\n      dup1\n      0x0c5f58f4\n      eq\n      tag_3\n      jumpi\n      dup1\n      0x10cde60a\n      eq\n      tag_4\n      jumpi\n      dup1\n      0x1e8aba35\n      eq\n      tag_5\n      jumpi\n      dup1\n      0x227a473b\n      eq\n      tag_6\n      jumpi\n      dup1\n      0x293be456\n      eq\n      tag_7\n      jumpi\n      dup1\n      0x32d4e783\n      eq\n      tag_8\n      jumpi\n    tag_2:\n      0x00\n      dup1\n      revert\n        /* \"contracts/contractsCopy/khaledulsaleh_staking.sol\":9398:9607  function DUSDReferralsList() public view returns(address[] memory){ //this function is to get the all investors list with there account number... */\n    tag_3:\n      tag_36\n      tag_37\n      jump\t// in\n    tag_36:\n      mload(0x40)\n      tag_38\n      swap2\n      swap1\n      tag_39\n      jump\t// in\n    tag_38:\n      mload(0x40)\n      dup1\n      swap2\n      sub\n      swap1\n      return\n        /* \"contracts/contractsCopy/khaledulsaleh_staking.sol\":662:692  uint public totalDUSDInvestors */\n    tag_4:\n      tag_40\n      tag_41\n      jump\t// in\n    tag_40:\n      mload(0x40)\n      tag_42\n      swap2\n      swap1\n      tag_43\n      jump\t// in\n    tag_42:\n      mload(0x40)\n      dup1\n      swap2\n      sub\n      swap1\n      return\n        /* \"contracts/contractsCopy/khaledulsaleh_staking.sol\":8974:9165  function DUSDTotalReferrals() public view returns(uint){ // this function is to get the total number of referrals ... */\n    tag_5:\n      tag_44\n      tag_45\n      jump\t// in\n    tag_44:\n      mload(0x40)\n      tag_46\n      swap2\n      swap1\n      tag_43\n      jump\t// in\n    tag_46:\n      mload(0x40)\n      dup1\n      swap2\n      sub\n      swap1\n      return\n        /* \"contracts/contractsCopy/khaledulsaleh_staking.sol\":2294:3772  function Stake(uint _investedamount) external returns(bool success){... */\n    tag_6:\n      tag_47\n      0x04\n      dup1\n      calldatasize\n      sub\n      dup2\n      add\n      swap1\n      tag_48\n      swap2\n      swap1\n      tag_49\n      jump\t// in\n    tag_48:\n      tag_50\n      jump\t// in\n    tag_47:\n      mload(0x40)\n      tag_51\n      swap2\n      swap1\n      tag_52\n      jump\t// in\n    tag_51:\n      mload(0x40)\n      dup1\n      swap2\n      sub\n      swap1\n      return\n        /* \"contracts/contractsCopy/khaledulsaleh_staking.sol\":9616:9713  function setReward(uint _reward) public ... */\n    tag_7:\n      tag_53\n      0x04\n      dup1\n      calldatasize\n      sub\n      dup2\n      add\n      swap1\n      tag_54\n      swap2\n      swap1\n      tag_49\n      jump\t// in\n    tag_54:\n      tag_55\n      jump\t// in\n    tag_53:\n      stop\n        /* \"contracts/contractsCopy/khaledulsaleh_staking.sol\":9722:9833  function set_min_Stake_amount(uint _amount) public ... */\n    tag_8:\n      tag_56\n      0x04\n      dup1\n      calldatasize\n      sub\n      dup2\n      add\n      swap1\n      tag_57\n      swap2\n      swap1\n      tag_49\n      jump\t// in\n    tag_57:\n      tag_58\n      jump\t// in\n    tag_56:\n      stop\n        /* \"contracts/contractsCopy/khaledulsaleh_staking.sol\":7979:8962  function getAllDUSDinvestments() public view returns (allInvestments[] memory) { //this function will return the all investments of the investor and withware date... */\n    tag_9:\n      tag_59\n      tag_60\n      jump\t// in\n    tag_59:\n      mload(0x40)\n      tag_61\n      swap2\n      swap1\n      tag_62\n      jump\t// in\n    tag_61:\n      mload(0x40)\n      dup1\n      swap2\n      sub\n      swap1\n      return\n        /* \"contracts/contractsCopy/khaledulsaleh_staking.sol\":3781:4896  function getReward() view public returns(uint){ //this function is get the total reward balance of the investor... */\n    tag_10:\n      tag_63\n      tag_64\n      jump\t// in\n    tag_63:\n      mload(0x40)\n      tag_65\n      swap2\n      swap1\n      tag_43\n      jump\t// in\n    tag_65:\n      mload(0x40)\n      dup1\n      swap2\n      sub\n      swap1\n      return\n        /* \"contracts/contractsCopy/khaledulsaleh_staking.sol\":11584:12363  function Admin_data() view public returns(Admin_Data[] memory){... */\n    tag_11:\n      tag_66\n      tag_67\n      jump\t// in\n    tag_66:\n      mload(0x40)\n      tag_68\n      swap2\n      swap1\n      tag_69\n      jump\t// in\n    tag_68:\n      mload(0x40)\n      dup1\n      swap2\n      sub\n      swap1\n      return\n        /* \"contracts/contractsCopy/khaledulsaleh_staking.sol\":9962:10246  function set_values(uint min_stake,uint max_stake,uint _reward_per_day,uint _denomenator) public ... */\n    tag_12:\n      tag_70\n      0x04\n      dup1\n      calldatasize\n      sub\n      dup2\n      add\n      swap1\n      tag_71\n      swap2\n      swap1\n      tag_72\n      jump\t// in\n    tag_71:\n      tag_73\n      jump\t// in\n    tag_70:\n      stop\n        /* \"contracts/contractsCopy/khaledulsaleh_staking.sol\":9842:9953  function set_max_Stake_amount(uint _amount) public ... */\n    tag_13:\n      tag_74\n      0x04\n      dup1\n      calldatasize\n      sub\n      dup2\n      add\n      swap1\n      tag_75\n      swap2\n      swap1\n      tag_49\n      jump\t// in\n    tag_75:\n      tag_76\n      jump\t// in\n    tag_74:\n      stop\n        /* \"contracts/contractsCopy/khaledulsaleh_staking.sol\":1089:1132  mapping(uint=>address) public All_investors */\n    tag_14:\n      tag_77\n      0x04\n      dup1\n      calldatasize\n      sub\n      dup2\n      add\n      swap1\n      tag_78\n      swap2\n      swap1\n      tag_49\n      jump\t// in\n    tag_78:\n      tag_79\n      jump\t// in\n    tag_77:\n      mload(0x40)\n      tag_80\n      swap2\n      swap1\n      tag_81\n      jump\t// in\n    tag_80:\n      mload(0x40)\n      dup1\n      swap2\n      sub\n      swap1\n      return\n        /* \"contracts/contractsCopy/khaledulsaleh_staking.sol\":978:1015  uint public investmentPeriod=365 days */\n    tag_15:\n      tag_82\n      tag_83\n      jump\t// in\n    tag_82:\n      mload(0x40)\n      tag_84\n      swap2\n      swap1\n      tag_43\n      jump\t// in\n    tag_84:\n      mload(0x40)\n      dup1\n      swap2\n      sub\n      swap1\n      return\n        /* \"contracts/contractsCopy/khaledulsaleh_staking.sol\":12373:12556  function total_withdraw_reaward() view public returns(uint){... */\n    tag_16:\n      tag_85\n      tag_86\n      jump\t// in\n    tag_85:\n      mload(0x40)\n      tag_87\n      swap2\n      swap1\n      tag_43\n      jump\t// in\n    tag_87:\n      mload(0x40)\n      dup1\n      swap2\n      sub\n      swap1\n      return\n        /* \"contracts/contractsCopy/khaledulsaleh_staking.sol\":6553:7749  function unStake() external  returns (bool success){... */\n    tag_17:\n      tag_88\n      tag_89\n      jump\t// in\n    tag_88:\n      mload(0x40)\n      tag_90\n      swap2\n      swap1\n      tag_52\n      jump\t// in\n    tag_90:\n      mload(0x40)\n      dup1\n      swap2\n      sub\n      swap1\n      return\n        /* \"contracts/contractsCopy/khaledulsaleh_staking.sol\":300:321  address  public owner */\n    tag_18:\n      tag_91\n      tag_92\n      jump\t// in\n    tag_91:\n      mload(0x40)\n      tag_93\n      swap2\n      swap1\n      tag_81\n      jump\t// in\n    tag_93:\n      mload(0x40)\n      dup1\n      swap2\n      sub\n      swap1\n      return\n        /* \"contracts/contractsCopy/khaledulsaleh_staking.sol\":7759:7969  function getTotalInvestmentDUSD() public view returns(uint) {   //this function is to get the total investment of the ivestor... */\n    tag_19:\n      tag_94\n      tag_95\n      jump\t// in\n    tag_94:\n      mload(0x40)\n      tag_96\n      swap2\n      swap1\n      tag_43\n      jump\t// in\n    tag_96:\n      mload(0x40)\n      dup1\n      swap2\n      sub\n      swap1\n      return\n        /* \"contracts/contractsCopy/khaledulsaleh_staking.sol\":910:940  uint public denomenator=100000 */\n    tag_20:\n      tag_97\n      tag_98\n      jump\t// in\n    tag_97:\n      mload(0x40)\n      tag_99\n      swap2\n      swap1\n      tag_43\n      jump\t// in\n    tag_99:\n      mload(0x40)\n      dup1\n      swap2\n      sub\n      swap1\n      return\n        /* \"contracts/contractsCopy/khaledulsaleh_staking.sol\":10439:11004  function referralLevel_earning() public view returns( uint[] memory arr )... */\n    tag_21:\n      tag_100\n      tag_101\n      jump\t// in\n    tag_100:\n      mload(0x40)\n      tag_102\n      swap2\n      swap1\n      tag_103\n      jump\t// in\n    tag_102:\n      mload(0x40)\n      dup1\n      swap2\n      sub\n      swap1\n      return\n        /* \"contracts/contractsCopy/khaledulsaleh_staking.sol\":765:799  uint public min_Stake_amount=10000 */\n    tag_22:\n      tag_104\n      tag_105\n      jump\t// in\n    tag_104:\n      mload(0x40)\n      tag_106\n      swap2\n      swap1\n      tag_43\n      jump\t// in\n    tag_106:\n      mload(0x40)\n      dup1\n      swap2\n      sub\n      swap1\n      return\n        /* \"contracts/contractsCopy/khaledulsaleh_staking.sol\":6045:6542  function withdrawReward() external returns (bool success){... */\n    tag_23:\n      tag_107\n      tag_108\n      jump\t// in\n    tag_107:\n      mload(0x40)\n      tag_109\n      swap2\n      swap1\n      tag_52\n      jump\t// in\n    tag_109:\n      mload(0x40)\n      dup1\n      swap2\n      sub\n      swap1\n      return\n        /* \"contracts/contractsCopy/khaledulsaleh_staking.sol\":2091:2133  mapping(address=>Data) public DUSDinvestor */\n    tag_24:\n      tag_110\n      0x04\n      dup1\n      calldatasize\n      sub\n      dup2\n      add\n      swap1\n      tag_111\n      swap2\n      swap1\n      tag_112\n      jump\t// in\n    tag_111:\n      tag_113\n      jump\t// in\n    tag_110:\n      mload(0x40)\n      tag_114\n      swap8\n      swap7\n      swap6\n      swap5\n      swap4\n      swap3\n      swap2\n      swap1\n      tag_115\n      jump\t// in\n    tag_114:\n      mload(0x40)\n      dup1\n      swap2\n      sub\n      swap1\n      return\n        /* \"contracts/contractsCopy/khaledulsaleh_staking.sol\":1025:1050  uint public totalbusiness */\n    tag_25:\n      tag_116\n      tag_117\n      jump\t// in\n    tag_116:\n      mload(0x40)\n      tag_118\n      swap2\n      swap1\n      tag_43\n      jump\t// in\n    tag_118:\n      mload(0x40)\n      dup1\n      swap2\n      sub\n      swap1\n      return\n        /* \"contracts/contractsCopy/khaledulsaleh_staking.sol\":10255:10429  function transferOwnership(address _owner)  public... */\n    tag_26:\n      tag_119\n      0x04\n      dup1\n      calldatasize\n      sub\n      dup2\n      add\n      swap1\n      tag_120\n      swap2\n      swap1\n      tag_112\n      jump\t// in\n    tag_120:\n      tag_121\n      jump\t// in\n    tag_119:\n      stop\n        /* \"contracts/contractsCopy/khaledulsaleh_staking.sol\":11013:11574  function referralLevel_count() public view returns( uint[] memory arr )... */\n    tag_27:\n      tag_122\n      tag_123\n      jump\t// in\n    tag_122:\n      mload(0x40)\n      tag_124\n      swap2\n      swap1\n      tag_103\n      jump\t// in\n    tag_124:\n      mload(0x40)\n      dup1\n      swap2\n      sub\n      swap1\n      return\n        /* \"contracts/contractsCopy/khaledulsaleh_staking.sol\":702:745  uint public rewardToken=5000000000000000000 */\n    tag_28:\n      tag_125\n      tag_126\n      jump\t// in\n    tag_125:\n      mload(0x40)\n      tag_127\n      swap2\n      swap1\n      tag_43\n      jump\t// in\n    tag_127:\n      mload(0x40)\n      dup1\n      swap2\n      sub\n      swap1\n      return\n        /* \"contracts/contractsCopy/khaledulsaleh_staking.sol\":836:872  uint public max_Stake_amount=5000000 */\n    tag_29:\n      tag_128\n      tag_129\n      jump\t// in\n    tag_128:\n      mload(0x40)\n      tag_130\n      swap2\n      swap1\n      tag_43\n      jump\t// in\n    tag_130:\n      mload(0x40)\n      dup1\n      swap2\n      sub\n      swap1\n      return\n        /* \"contracts/contractsCopy/khaledulsaleh_staking.sol\":9398:9607  function DUSDReferralsList() public view returns(address[] memory){ //this function is to get the all investors list with there account number... */\n    tag_37:\n        /* \"contracts/contractsCopy/khaledulsaleh_staking.sol\":9447:9463  address[] memory */\n      0x60\n        /* \"contracts/contractsCopy/khaledulsaleh_staking.sol\":9559:9571  DUSDinvestor */\n      0x0d\n        /* \"contracts/contractsCopy/khaledulsaleh_staking.sol\":9559:9583  DUSDinvestor[msg.sender] */\n      0x00\n        /* \"contracts/contractsCopy/khaledulsaleh_staking.sol\":9572:9582  msg.sender */\n      caller\n        /* \"contracts/contractsCopy/khaledulsaleh_staking.sol\":9559:9583  DUSDinvestor[msg.sender] */\n      0xffffffffffffffffffffffffffffffffffffffff\n      and\n      0xffffffffffffffffffffffffffffffffffffffff\n      and\n      dup2\n      mstore\n      0x20\n      add\n      swap1\n      dup2\n      mstore\n      0x20\n      add\n      0x00\n      keccak256\n        /* \"contracts/contractsCopy/khaledulsaleh_staking.sol\":9559:9596  DUSDinvestor[msg.sender].hisReferrals */\n      0x01\n      add\n        /* \"contracts/contractsCopy/khaledulsaleh_staking.sol\":9552:9596  return DUSDinvestor[msg.sender].hisReferrals */\n      dup1\n      sload\n      dup1\n      0x20\n      mul\n      0x20\n      add\n      mload(0x40)\n      swap1\n      dup2\n      add\n      0x40\n      mstore\n      dup1\n      swap3\n      swap2\n      swap1\n      dup2\n      dup2\n      mstore\n      0x20\n      add\n      dup3\n      dup1\n      sload\n      dup1\n      iszero\n      tag_132\n      jumpi\n      0x20\n      mul\n      dup3\n      add\n      swap2\n      swap1\n      0x00\n      mstore\n      keccak256(0x00, 0x20)\n      swap1\n    tag_133:\n      dup2\n      0x00\n      swap1\n      sload\n      swap1\n      0x0100\n      exp\n      swap1\n      div\n      0xffffffffffffffffffffffffffffffffffffffff\n      and\n      0xffffffffffffffffffffffffffffffffffffffff\n      and\n      dup2\n      mstore\n      0x20\n      add\n      swap1\n      0x01\n      add\n      swap1\n      dup1\n      dup4\n      gt\n      tag_133\n      jumpi\n    tag_132:\n      pop\n      pop\n      pop\n      pop\n      pop\n      swap1\n      pop\n        /* \"contracts/contractsCopy/khaledulsaleh_staking.sol\":9398:9607  function DUSDReferralsList() public view returns(address[] memory){ //this function is to get the all investors list with there account number... */\n      swap1\n      jump\t// out\n        /* \"contracts/contractsCopy/khaledulsaleh_staking.sol\":662:692  uint public totalDUSDInvestors */\n    tag_41:\n      sload(0x04)\n      dup2\n      jump\t// out\n        /* \"contracts/contractsCopy/khaledulsaleh_staking.sol\":8974:9165  function DUSDTotalReferrals() public view returns(uint){ // this function is to get the total number of referrals ... */\n    tag_45:\n        /* \"contracts/contractsCopy/khaledulsaleh_staking.sol\":9024:9028  uint */\n      0x00\n        /* \"contracts/contractsCopy/khaledulsaleh_staking.sol\":9109:9121  DUSDinvestor */\n      0x0d\n        /* \"contracts/contractsCopy/khaledulsaleh_staking.sol\":9109:9133  DUSDinvestor[msg.sender] */\n      0x00\n        /* \"contracts/contractsCopy/khaledulsaleh_staking.sol\":9122:9132  msg.sender */\n      caller\n        /* \"contracts/contractsCopy/khaledulsaleh_staking.sol\":9109:9133  DUSDinvestor[msg.sender] */\n      0xffffffffffffffffffffffffffffffffffffffff\n      and\n      0xffffffffffffffffffffffffffffffffffffffff\n      and\n      dup2\n      mstore\n      0x20\n      add\n      swap1\n      dup2\n      mstore\n      0x20\n      add\n      0x00\n      keccak256\n        /* \"contracts/contractsCopy/khaledulsaleh_staking.sol\":9109:9146  DUSDinvestor[msg.sender].hisReferrals */\n      0x01\n      add\n        /* \"contracts/contractsCopy/khaledulsaleh_staking.sol\":9108:9154  (DUSDinvestor[msg.sender].hisReferrals).length */\n      dup1\n      sload\n      swap1\n      pop\n        /* \"contracts/contractsCopy/khaledulsaleh_staking.sol\":9101:9154  return (DUSDinvestor[msg.sender].hisReferrals).length */\n      swap1\n      pop\n        /* \"contracts/contractsCopy/khaledulsaleh_staking.sol\":8974:9165  function DUSDTotalReferrals() public view returns(uint){ // this function is to get the total number of referrals ... */\n      swap1\n      jump\t// out\n        /* \"contracts/contractsCopy/khaledulsaleh_staking.sol\":2294:3772  function Stake(uint _investedamount) external returns(bool success){... */\n    tag_50:\n        /* \"contracts/contractsCopy/khaledulsaleh_staking.sol\":2348:2360  bool success */\n      0x00\n        /* \"contracts/contractsCopy/khaledulsaleh_staking.sol\":2402:2418  min_Stake_amount */\n      sload(0x06)\n        /* \"contracts/contractsCopy/khaledulsaleh_staking.sol\":2383:2398  _investedamount */\n      dup3\n        /* \"contracts/contractsCopy/khaledulsaleh_staking.sol\":2383:2418  _investedamount >= min_Stake_amount */\n      lt\n      iszero\n        /* \"contracts/contractsCopy/khaledulsaleh_staking.sol\":2383:2457  _investedamount >= min_Stake_amount && _investedamount <= max_Stake_amount */\n      dup1\n      iszero\n      tag_136\n      jumpi\n      pop\n        /* \"contracts/contractsCopy/khaledulsaleh_staking.sol\":2441:2457  max_Stake_amount */\n      sload(0x07)\n        /* \"contracts/contractsCopy/khaledulsaleh_staking.sol\":2422:2437  _investedamount */\n      dup3\n        /* \"contracts/contractsCopy/khaledulsaleh_staking.sol\":2422:2457  _investedamount <= max_Stake_amount */\n      gt\n      iszero\n        /* \"contracts/contractsCopy/khaledulsaleh_staking.sol\":2383:2457  _investedamount >= min_Stake_amount && _investedamount <= max_Stake_amount */\n    tag_136:\n        /* \"contracts/contractsCopy/khaledulsaleh_staking.sol\":2375:2514  require(_investedamount >= min_Stake_amount && _investedamount <= max_Stake_amount,\"value is not greater than 10000 and less than 5000000\") */\n      tag_137\n      jumpi\n      mload(0x40)\n      0x08c379a000000000000000000000000000000000000000000000000000000000\n      dup2\n      mstore\n      0x04\n      add\n      tag_138\n      swap1\n      tag_139\n      jump\t// in\n    tag_138:\n      mload(0x40)\n      dup1\n      swap2\n      sub\n      swap1\n      revert\n    tag_137:\n        /* \"contracts/contractsCopy/khaledulsaleh_staking.sol\":2643:2648  false */\n      0x00\n        /* \"contracts/contractsCopy/khaledulsaleh_staking.sol\":2602:2648  DUSDinvestor[msg.sender].investBefore == false */\n      iszero\n      iszero\n        /* \"contracts/contractsCopy/khaledulsaleh_staking.sol\":2602:2614  DUSDinvestor */\n      0x0d\n        /* \"contracts/contractsCopy/khaledulsaleh_staking.sol\":2602:2626  DUSDinvestor[msg.sender] */\n      0x00\n        /* \"contracts/contractsCopy/khaledulsaleh_staking.sol\":2615:2625  msg.sender */\n      caller\n        /* \"contracts/contractsCopy/khaledulsaleh_staking.sol\":2602:2626  DUSDinvestor[msg.sender] */\n      0xffffffffffffffffffffffffffffffffffffffff\n      and\n      0xffffffffffffffffffffffffffffffffffffffff\n      and\n      dup2\n      mstore\n      0x20\n      add\n      swap1\n      dup2\n      mstore\n      0x20\n      add\n      0x00\n      keccak256\n        /* \"contracts/contractsCopy/khaledulsaleh_staking.sol\":2602:2639  DUSDinvestor[msg.sender].investBefore */\n      0x08\n      add\n      0x00\n      swap1\n      sload\n      swap1\n      0x0100\n      exp\n      swap1\n      div\n      0xff\n      and\n        /* \"contracts/contractsCopy/khaledulsaleh_staking.sol\":2602:2648  DUSDinvestor[msg.sender].investBefore == false */\n      iszero\n      iszero\n      eq\n        /* \"contracts/contractsCopy/khaledulsaleh_staking.sol\":2599:2816  if(DUSDinvestor[msg.sender].investBefore == false)... */\n      iszero\n      tag_140\n      jumpi\n        /* \"contracts/contractsCopy/khaledulsaleh_staking.sol\":2715:2725  msg.sender */\n      caller\n        /* \"contracts/contractsCopy/khaledulsaleh_staking.sol\":2681:2694  All_investors */\n      0x0c\n        /* \"contracts/contractsCopy/khaledulsaleh_staking.sol\":2681:2714  All_investors[totalDUSDInvestors] */\n      0x00\n        /* \"contracts/contractsCopy/khaledulsaleh_staking.sol\":2695:2713  totalDUSDInvestors */\n      sload(0x04)\n        /* \"contracts/contractsCopy/khaledulsaleh_staking.sol\":2681:2714  All_investors[totalDUSDInvestors] */\n      dup2\n      mstore\n      0x20\n      add\n      swap1\n      dup2\n      mstore\n      0x20\n      add\n      0x00\n      keccak256\n      0x00\n        /* \"contracts/contractsCopy/khaledulsaleh_staking.sol\":2681:2725  All_investors[totalDUSDInvestors]=msg.sender */\n      0x0100\n      exp\n      dup2\n      sload\n      dup2\n      0xffffffffffffffffffffffffffffffffffffffff\n      mul\n      not\n      and\n      swap1\n      dup4\n      0xffffffffffffffffffffffffffffffffffffffff\n      and\n      mul\n      or\n      swap1\n      sstore\n      pop\n        /* \"contracts/contractsCopy/khaledulsaleh_staking.sol\":2744:2762  totalDUSDInvestors */\n      0x04\n      0x00\n        /* \"contracts/contractsCopy/khaledulsaleh_staking.sol\":2744:2764  totalDUSDInvestors++ */\n      dup2\n      sload\n      dup1\n      swap3\n      swap2\n      swap1\n      tag_141\n      swap1\n      tag_142\n      jump\t// in\n    tag_141:\n      swap2\n      swap1\n      pop\n      sstore\n      pop\n        /* \"contracts/contractsCopy/khaledulsaleh_staking.sol\":2599:2816  if(DUSDinvestor[msg.sender].investBefore == false)... */\n    tag_140:\n        /* \"contracts/contractsCopy/khaledulsaleh_staking.sol\":2878:2879  0 */\n      0x00\n        /* \"contracts/contractsCopy/khaledulsaleh_staking.sol\":2834:2846  DUSDinvestor */\n      0x0d\n        /* \"contracts/contractsCopy/khaledulsaleh_staking.sol\":2834:2858  DUSDinvestor[msg.sender] */\n      0x00\n        /* \"contracts/contractsCopy/khaledulsaleh_staking.sol\":2847:2857  msg.sender */\n      caller\n        /* \"contracts/contractsCopy/khaledulsaleh_staking.sol\":2834:2858  DUSDinvestor[msg.sender] */\n      0xffffffffffffffffffffffffffffffffffffffff\n      and\n      0xffffffffffffffffffffffffffffffffffffffff\n      and\n      dup2\n      mstore\n      0x20\n      add\n      swap1\n      dup2\n      mstore\n      0x20\n      add\n      0x00\n      keccak256\n        /* \"contracts/contractsCopy/khaledulsaleh_staking.sol\":2834:2874  DUSDinvestor[msg.sender].totalInvestment */\n      0x06\n      add\n      sload\n        /* \"contracts/contractsCopy/khaledulsaleh_staking.sol\":2834:2879  DUSDinvestor[msg.sender].totalInvestment == 0 */\n      eq\n        /* \"contracts/contractsCopy/khaledulsaleh_staking.sol\":2831:2990  if(DUSDinvestor[msg.sender].totalInvestment == 0)... */\n      iszero\n      tag_143\n      jumpi\n        /* \"contracts/contractsCopy/khaledulsaleh_staking.sol\":2967:2975  365 days */\n      0x01e13380\n        /* \"contracts/contractsCopy/khaledulsaleh_staking.sol\":2949:2964  block.timestamp */\n      timestamp\n        /* \"contracts/contractsCopy/khaledulsaleh_staking.sol\":2949:2975  block.timestamp + 365 days */\n      tag_144\n      swap2\n      swap1\n      tag_145\n      jump\t// in\n    tag_144:\n        /* \"contracts/contractsCopy/khaledulsaleh_staking.sol\":2912:2924  DUSDinvestor */\n      0x0d\n        /* \"contracts/contractsCopy/khaledulsaleh_staking.sol\":2912:2936  DUSDinvestor[msg.sender] */\n      0x00\n        /* \"contracts/contractsCopy/khaledulsaleh_staking.sol\":2925:2935  msg.sender */\n      caller\n        /* \"contracts/contractsCopy/khaledulsaleh_staking.sol\":2912:2936  DUSDinvestor[msg.sender] */\n      0xffffffffffffffffffffffffffffffffffffffff\n      and\n      0xffffffffffffffffffffffffffffffffffffffff\n      and\n      dup2\n      mstore\n      0x20\n      add\n      swap1\n      dup2\n      mstore\n      0x20\n      add\n      0x00\n      keccak256\n        /* \"contracts/contractsCopy/khaledulsaleh_staking.sol\":2912:2946  DUSDinvestor[msg.sender].stakeTime */\n      0x09\n      add\n        /* \"contracts/contractsCopy/khaledulsaleh_staking.sol\":2912:2975  DUSDinvestor[msg.sender].stakeTime = block.timestamp + 365 days */\n      dup2\n      swap1\n      sstore\n      pop\n        /* \"contracts/contractsCopy/khaledulsaleh_staking.sol\":2831:2990  if(DUSDinvestor[msg.sender].totalInvestment == 0)... */\n    tag_143:\n        /* \"contracts/contractsCopy/khaledulsaleh_staking.sol\":3003:3011  uint num */\n      0x00\n        /* \"contracts/contractsCopy/khaledulsaleh_staking.sol\":3014:3026  DUSDinvestor */\n      0x0d\n        /* \"contracts/contractsCopy/khaledulsaleh_staking.sol\":3014:3038  DUSDinvestor[msg.sender] */\n      0x00\n        /* \"contracts/contractsCopy/khaledulsaleh_staking.sol\":3027:3037  msg.sender */\n      caller\n        /* \"contracts/contractsCopy/khaledulsaleh_staking.sol\":3014:3038  DUSDinvestor[msg.sender] */\n      0xffffffffffffffffffffffffffffffffffffffff\n      and\n      0xffffffffffffffffffffffffffffffffffffffff\n      and\n      dup2\n      mstore\n      0x20\n      add\n      swap1\n      dup2\n      mstore\n      0x20\n      add\n      0x00\n      keccak256\n        /* \"contracts/contractsCopy/khaledulsaleh_staking.sol\":3014:3053  DUSDinvestor[msg.sender].noOfInvestment */\n      0x05\n      add\n      sload\n        /* \"contracts/contractsCopy/khaledulsaleh_staking.sol\":3003:3053  uint num = DUSDinvestor[msg.sender].noOfInvestment */\n      swap1\n      pop\n        /* \"contracts/contractsCopy/khaledulsaleh_staking.sol\":3124:3139  _investedamount */\n      dup3\n        /* \"contracts/contractsCopy/khaledulsaleh_staking.sol\":3067:3079  DUSDinvestor */\n      0x0d\n        /* \"contracts/contractsCopy/khaledulsaleh_staking.sol\":3067:3091  DUSDinvestor[msg.sender] */\n      0x00\n        /* \"contracts/contractsCopy/khaledulsaleh_staking.sol\":3080:3090  msg.sender */\n      caller\n        /* \"contracts/contractsCopy/khaledulsaleh_staking.sol\":3067:3091  DUSDinvestor[msg.sender] */\n      0xffffffffffffffffffffffffffffffffffffffff\n      and\n      0xffffffffffffffffffffffffffffffffffffffff\n      and\n      dup2\n      mstore\n      0x20\n      add\n      swap1\n      dup2\n      mstore\n      0x20\n      add\n      0x00\n      keccak256\n        /* \"contracts/contractsCopy/khaledulsaleh_staking.sol\":3067:3102  DUSDinvestor[msg.sender].investment */\n      0x00\n      add\n        /* \"contracts/contractsCopy/khaledulsaleh_staking.sol\":3067:3107  DUSDinvestor[msg.sender].investment[num] */\n      0x00\n        /* \"contracts/contractsCopy/khaledulsaleh_staking.sol\":3103:3106  num */\n      dup4\n        /* \"contracts/contractsCopy/khaledulsaleh_staking.sol\":3067:3107  DUSDinvestor[msg.sender].investment[num] */\n      dup2\n      mstore\n      0x20\n      add\n      swap1\n      dup2\n      mstore\n      0x20\n      add\n      0x00\n      keccak256\n        /* \"contracts/contractsCopy/khaledulsaleh_staking.sol\":3067:3122  DUSDinvestor[msg.sender].investment[num].investedAmount */\n      0x00\n      add\n        /* \"contracts/contractsCopy/khaledulsaleh_staking.sol\":3067:3139  DUSDinvestor[msg.sender].investment[num].investedAmount =_investedamount */\n      dup2\n      swap1\n      sstore\n      pop\n        /* \"contracts/contractsCopy/khaledulsaleh_staking.sol\":3206:3221  block.timestamp */\n      timestamp\n        /* \"contracts/contractsCopy/khaledulsaleh_staking.sol\":3153:3165  DUSDinvestor */\n      0x0d\n        /* \"contracts/contractsCopy/khaledulsaleh_staking.sol\":3153:3177  DUSDinvestor[msg.sender] */\n      0x00\n        /* \"contracts/contractsCopy/khaledulsaleh_staking.sol\":3166:3176  msg.sender */\n      caller\n        /* \"contracts/contractsCopy/khaledulsaleh_staking.sol\":3153:3177  DUSDinvestor[msg.sender] */\n      0xffffffffffffffffffffffffffffffffffffffff\n      and\n      0xffffffffffffffffffffffffffffffffffffffff\n      and\n      dup2\n      mstore\n      0x20\n      add\n      swap1\n      dup2\n      mstore\n      0x20\n      add\n      0x00\n      keccak256\n        /* \"contracts/contractsCopy/khaledulsaleh_staking.sol\":3153:3188  DUSDinvestor[msg.sender].investment */\n      0x00\n      add\n        /* \"contracts/contractsCopy/khaledulsaleh_staking.sol\":3153:3193  DUSDinvestor[msg.sender].investment[num] */\n      0x00\n        /* \"contracts/contractsCopy/khaledulsaleh_staking.sol\":3189:3192  num */\n      dup4\n        /* \"contracts/contractsCopy/khaledulsaleh_staking.sol\":3153:3193  DUSDinvestor[msg.sender].investment[num] */\n      dup2\n      mstore\n      0x20\n      add\n      swap1\n      dup2\n      mstore\n      0x20\n      add\n      0x00\n      keccak256\n        /* \"contracts/contractsCopy/khaledulsaleh_staking.sol\":3153:3205  DUSDinvestor[msg.sender].investment[num].DepositTime */\n      0x02\n      add\n        /* \"contracts/contractsCopy/khaledulsaleh_staking.sol\":3153:3221  DUSDinvestor[msg.sender].investment[num].DepositTime=block.timestamp */\n      dup2\n      swap1\n      sstore\n      pop\n        /* \"contracts/contractsCopy/khaledulsaleh_staking.sol\":3308:3324  investmentPeriod */\n      sload(0x09)\n        /* \"contracts/contractsCopy/khaledulsaleh_staking.sol\":3290:3305  block.timestamp */\n      timestamp\n        /* \"contracts/contractsCopy/khaledulsaleh_staking.sol\":3290:3324  block.timestamp + investmentPeriod */\n      tag_146\n      swap2\n      swap1\n      tag_145\n      jump\t// in\n    tag_146:\n        /* \"contracts/contractsCopy/khaledulsaleh_staking.sol\":3235:3247  DUSDinvestor */\n      0x0d\n        /* \"contracts/contractsCopy/khaledulsaleh_staking.sol\":3235:3259  DUSDinvestor[msg.sender] */\n      0x00\n        /* \"contracts/contractsCopy/khaledulsaleh_staking.sol\":3248:3258  msg.sender */\n      caller\n        /* \"contracts/contractsCopy/khaledulsaleh_staking.sol\":3235:3259  DUSDinvestor[msg.sender] */\n      0xffffffffffffffffffffffffffffffffffffffff\n      and\n      0xffffffffffffffffffffffffffffffffffffffff\n      and\n      dup2\n      mstore\n      0x20\n      add\n      swap1\n      dup2\n      mstore\n      0x20\n      add\n      0x00\n      keccak256\n        /* \"contracts/contractsCopy/khaledulsaleh_staking.sol\":3235:3270  DUSDinvestor[msg.sender].investment */\n      0x00\n      add\n        /* \"contracts/contractsCopy/khaledulsaleh_staking.sol\":3235:3275  DUSDinvestor[msg.sender].investment[num] */\n      0x00\n        /* \"contracts/contractsCopy/khaledulsaleh_staking.sol\":3271:3274  num */\n      dup4\n        /* \"contracts/contractsCopy/khaledulsaleh_staking.sol\":3235:3275  DUSDinvestor[msg.sender].investment[num] */\n      dup2\n      mstore\n      0x20\n      add\n      swap1\n      dup2\n      mstore\n      0x20\n      add\n      0x00\n      keccak256\n        /* \"contracts/contractsCopy/khaledulsaleh_staking.sol\":3235:3289  DUSDinvestor[msg.sender].investment[num].withdrawnTime */\n      0x01\n      add\n        /* \"contracts/contractsCopy/khaledulsaleh_staking.sol\":3235:3324  DUSDinvestor[msg.sender].investment[num].withdrawnTime=block.timestamp + investmentPeriod */\n      dup2\n      swap1\n      sstore\n      pop\n        /* \"contracts/contractsCopy/khaledulsaleh_staking.sol\":3407:3410  num */\n      dup1\n        /* \"contracts/contractsCopy/khaledulsaleh_staking.sol\":3352:3364  DUSDinvestor */\n      0x0d\n        /* \"contracts/contractsCopy/khaledulsaleh_staking.sol\":3352:3376  DUSDinvestor[msg.sender] */\n      0x00\n        /* \"contracts/contractsCopy/khaledulsaleh_staking.sol\":3365:3375  msg.sender */\n      caller\n        /* \"contracts/contractsCopy/khaledulsaleh_staking.sol\":3352:3376  DUSDinvestor[msg.sender] */\n      0xffffffffffffffffffffffffffffffffffffffff\n      and\n      0xffffffffffffffffffffffffffffffffffffffff\n      and\n      dup2\n      mstore\n      0x20\n      add\n      swap1\n      dup2\n      mstore\n      0x20\n      add\n      0x00\n      keccak256\n        /* \"contracts/contractsCopy/khaledulsaleh_staking.sol\":3352:3387  DUSDinvestor[msg.sender].investment */\n      0x00\n      add\n        /* \"contracts/contractsCopy/khaledulsaleh_staking.sol\":3352:3392  DUSDinvestor[msg.sender].investment[num] */\n      0x00\n        /* \"contracts/contractsCopy/khaledulsaleh_staking.sol\":3388:3391  num */\n      dup4\n        /* \"contracts/contractsCopy/khaledulsaleh_staking.sol\":3352:3392  DUSDinvestor[msg.sender].investment[num] */\n      dup2\n      mstore\n      0x20\n      add\n      swap1\n      dup2\n      mstore\n      0x20\n      add\n      0x00\n      keccak256\n        /* \"contracts/contractsCopy/khaledulsaleh_staking.sol\":3352:3406  DUSDinvestor[msg.sender].investment[num].investmentNum */\n      0x03\n      add\n        /* \"contracts/contractsCopy/khaledulsaleh_staking.sol\":3352:3410  DUSDinvestor[msg.sender].investment[num].investmentNum=num */\n      dup2\n      swap1\n      sstore\n      pop\n        /* \"contracts/contractsCopy/khaledulsaleh_staking.sol\":3466:3481  _investedamount */\n      dup3\n        /* \"contracts/contractsCopy/khaledulsaleh_staking.sol\":3424:3436  DUSDinvestor */\n      0x0d\n        /* \"contracts/contractsCopy/khaledulsaleh_staking.sol\":3424:3448  DUSDinvestor[msg.sender] */\n      0x00\n        /* \"contracts/contractsCopy/khaledulsaleh_staking.sol\":3437:3447  msg.sender */\n      caller\n        /* \"contracts/contractsCopy/khaledulsaleh_staking.sol\":3424:3448  DUSDinvestor[msg.sender] */\n      0xffffffffffffffffffffffffffffffffffffffff\n      and\n      0xffffffffffffffffffffffffffffffffffffffff\n      and\n      dup2\n      mstore\n      0x20\n      add\n      swap1\n      dup2\n      mstore\n      0x20\n      add\n      0x00\n      keccak256\n        /* \"contracts/contractsCopy/khaledulsaleh_staking.sol\":3424:3464  DUSDinvestor[msg.sender].totalInvestment */\n      0x06\n      add\n      0x00\n        /* \"contracts/contractsCopy/khaledulsaleh_staking.sol\":3424:3481  DUSDinvestor[msg.sender].totalInvestment+=_investedamount */\n      dup3\n      dup3\n      sload\n      tag_147\n      swap2\n      swap1\n      tag_145\n      jump\t// in\n    tag_147:\n      swap3\n      pop\n      pop\n      dup2\n      swap1\n      sstore\n      pop\n        /* \"contracts/contractsCopy/khaledulsaleh_staking.sol\":3495:3507  DUSDinvestor */\n      0x0d\n        /* \"contracts/contractsCopy/khaledulsaleh_staking.sol\":3495:3519  DUSDinvestor[msg.sender] */\n      0x00\n        /* \"contracts/contractsCopy/khaledulsaleh_staking.sol\":3508:3518  msg.sender */\n      caller\n        /* \"contracts/contractsCopy/khaledulsaleh_staking.sol\":3495:3519  DUSDinvestor[msg.sender] */\n      0xffffffffffffffffffffffffffffffffffffffff\n      and\n      0xffffffffffffffffffffffffffffffffffffffff\n      and\n      dup2\n      mstore\n      0x20\n      add\n      swap1\n      dup2\n      mstore\n      0x20\n      add\n      0x00\n      keccak256\n        /* \"contracts/contractsCopy/khaledulsaleh_staking.sol\":3495:3534  DUSDinvestor[msg.sender].noOfInvestment */\n      0x05\n      add\n      0x00\n        /* \"contracts/contractsCopy/khaledulsaleh_staking.sol\":3495:3536  DUSDinvestor[msg.sender].noOfInvestment++ */\n      dup2\n      sload\n      dup1\n      swap3\n      swap2\n      swap1\n      tag_148\n      swap1\n      tag_142\n      jump\t// in\n    tag_148:\n      swap2\n      swap1\n      pop\n      sstore\n      pop\n        /* \"contracts/contractsCopy/khaledulsaleh_staking.sol\":3565:3580  _investedamount */\n      dup3\n        /* \"contracts/contractsCopy/khaledulsaleh_staking.sol\":3550:3563  totalbusiness */\n      0x0a\n      0x00\n        /* \"contracts/contractsCopy/khaledulsaleh_staking.sol\":3550:3580  totalbusiness+=_investedamount */\n      dup3\n      dup3\n      sload\n      tag_149\n      swap2\n      swap1\n      tag_145\n      jump\t// in\n    tag_149:\n      swap3\n      pop\n      pop\n      dup2\n      swap1\n      sstore\n      pop\n        /* \"contracts/contractsCopy/khaledulsaleh_staking.sol\":3599:3610  SMCcontract */\n      0x01\n      0x00\n      swap1\n      sload\n      swap1\n      0x0100\n      exp\n      swap1\n      div\n      0xffffffffffffffffffffffffffffffffffffffff\n      and\n        /* \"contracts/contractsCopy/khaledulsaleh_staking.sol\":3594:3624  DUSD(SMCcontract).transferFrom */\n      0xffffffffffffffffffffffffffffffffffffffff\n      and\n      0x23b872dd\n        /* \"contracts/contractsCopy/khaledulsaleh_staking.sol\":3625:3635  msg.sender */\n      caller\n        /* \"contracts/contractsCopy/khaledulsaleh_staking.sol\":3636:3641  owner */\n      0x00\n      dup1\n      sload\n      swap1\n      0x0100\n      exp\n      swap1\n      div\n      0xffffffffffffffffffffffffffffffffffffffff\n      and\n        /* \"contracts/contractsCopy/khaledulsaleh_staking.sol\":3658:3664  10**18 */\n      0x0de0b6b3a7640000\n        /* \"contracts/contractsCopy/khaledulsaleh_staking.sol\":3642:3657  _investedamount */\n      dup8\n        /* \"contracts/contractsCopy/khaledulsaleh_staking.sol\":3642:3664  _investedamount*10**18 */\n      tag_150\n      swap2\n      swap1\n      tag_151\n      jump\t// in\n    tag_150:\n        /* \"contracts/contractsCopy/khaledulsaleh_staking.sol\":3594:3665  DUSD(SMCcontract).transferFrom(msg.sender,owner,_investedamount*10**18) */\n      mload(0x40)\n      dup5\n      0xffffffff\n      and\n      0xe0\n      shl\n      dup2\n      mstore\n      0x04\n      add\n      tag_152\n      swap4\n      swap3\n      swap2\n      swap1\n      tag_153\n      jump\t// in\n    tag_152:\n      0x20\n      mload(0x40)\n      dup1\n      dup4\n      sub\n      dup2\n      0x00\n      dup8\n      dup1\n      extcodesize\n      iszero\n      dup1\n      iszero\n      tag_154\n      jumpi\n      0x00\n      dup1\n      revert\n    tag_154:\n      pop\n      gas\n      call\n      iszero\n      dup1\n      iszero\n      tag_156\n      jumpi\n      returndatasize\n      0x00\n      dup1\n      returndatacopy\n      revert(0x00, returndatasize)\n    tag_156:\n      pop\n      pop\n      pop\n      pop\n      mload(0x40)\n      returndatasize\n      not(0x1f)\n      0x1f\n      dup3\n      add\n      and\n      dup3\n      add\n      dup1\n      0x40\n      mstore\n      pop\n      dup2\n      add\n      swap1\n      tag_157\n      swap2\n      swap1\n      tag_158\n      jump\t// in\n    tag_157:\n      pop\n        /* \"contracts/contractsCopy/khaledulsaleh_staking.sol\":3718:3722  true */\n      0x01\n        /* \"contracts/contractsCopy/khaledulsaleh_staking.sol\":3680:3692  DUSDinvestor */\n      0x0d\n        /* \"contracts/contractsCopy/khaledulsaleh_staking.sol\":3680:3704  DUSDinvestor[msg.sender] */\n      0x00\n        /* \"contracts/contractsCopy/khaledulsaleh_staking.sol\":3693:3703  msg.sender */\n      caller\n        /* \"contracts/contractsCopy/khaledulsaleh_staking.sol\":3680:3704  DUSDinvestor[msg.sender] */\n      0xffffffffffffffffffffffffffffffffffffffff\n      and\n      0xffffffffffffffffffffffffffffffffffffffff\n      and\n      dup2\n      mstore\n      0x20\n      add\n      swap1\n      dup2\n      mstore\n      0x20\n      add\n      0x00\n      keccak256\n        /* \"contracts/contractsCopy/khaledulsaleh_staking.sol\":3680:3717  DUSDinvestor[msg.sender].investBefore */\n      0x08\n      add\n      0x00\n        /* \"contracts/contractsCopy/khaledulsaleh_staking.sol\":3680:3722  DUSDinvestor[msg.sender].investBefore=true */\n      0x0100\n      exp\n      dup2\n      sload\n      dup2\n      0xff\n      mul\n      not\n      and\n      swap1\n      dup4\n      iszero\n      iszero\n      mul\n      or\n      swap1\n      sstore\n      pop\n        /* \"contracts/contractsCopy/khaledulsaleh_staking.sol\":3744:3748  true */\n      0x01\n        /* \"contracts/contractsCopy/khaledulsaleh_staking.sol\":3737:3748  return true */\n      swap2\n      pop\n      pop\n        /* \"contracts/contractsCopy/khaledulsaleh_staking.sol\":2294:3772  function Stake(uint _investedamount) external returns(bool success){... */\n      swap2\n      swap1\n      pop\n      jump\t// out\n        /* \"contracts/contractsCopy/khaledulsaleh_staking.sol\":9616:9713  function setReward(uint _reward) public ... */\n    tag_55:\n        /* \"contracts/contractsCopy/khaledulsaleh_staking.sol\":9694:9701  _reward */\n      dup1\n        /* \"contracts/contractsCopy/khaledulsaleh_staking.sol\":9679:9693  reward_per_day */\n      0x03\n        /* \"contracts/contractsCopy/khaledulsaleh_staking.sol\":9679:9701  reward_per_day=_reward */\n      dup2\n      swap1\n      sstore\n      pop\n        /* \"contracts/contractsCopy/khaledulsaleh_staking.sol\":9616:9713  function setReward(uint _reward) public ... */\n      pop\n      jump\t// out\n        /* \"contracts/contractsCopy/khaledulsaleh_staking.sol\":9722:9833  function set_min_Stake_amount(uint _amount) public ... */\n    tag_58:\n        /* \"contracts/contractsCopy/khaledulsaleh_staking.sol\":9815:9822  _amount */\n      dup1\n        /* \"contracts/contractsCopy/khaledulsaleh_staking.sol\":9796:9812  min_Stake_amount */\n      0x06\n        /* \"contracts/contractsCopy/khaledulsaleh_staking.sol\":9796:9822  min_Stake_amount = _amount */\n      dup2\n      swap1\n      sstore\n      pop\n        /* \"contracts/contractsCopy/khaledulsaleh_staking.sol\":9722:9833  function set_min_Stake_amount(uint _amount) public ... */\n      pop\n      jump\t// out\n        /* \"contracts/contractsCopy/khaledulsaleh_staking.sol\":7979:8962  function getAllDUSDinvestments() public view returns (allInvestments[] memory) { //this function will return the all investments of the investor and withware date... */\n    tag_60:\n        /* \"contracts/contractsCopy/khaledulsaleh_staking.sol\":8033:8056  allInvestments[] memory */\n      0x60\n        /* \"contracts/contractsCopy/khaledulsaleh_staking.sol\":8154:8162  uint num */\n      0x00\n        /* \"contracts/contractsCopy/khaledulsaleh_staking.sol\":8165:8177  DUSDinvestor */\n      0x0d\n        /* \"contracts/contractsCopy/khaledulsaleh_staking.sol\":8165:8189  DUSDinvestor[msg.sender] */\n      0x00\n        /* \"contracts/contractsCopy/khaledulsaleh_staking.sol\":8178:8188  msg.sender */\n      caller\n        /* \"contracts/contractsCopy/khaledulsaleh_staking.sol\":8165:8189  DUSDinvestor[msg.sender] */\n      0xffffffffffffffffffffffffffffffffffffffff\n      and\n      0xffffffffffffffffffffffffffffffffffffffff\n      and\n      dup2\n      mstore\n      0x20\n      add\n      swap1\n      dup2\n      mstore\n      0x20\n      add\n      0x00\n      keccak256\n        /* \"contracts/contractsCopy/khaledulsaleh_staking.sol\":8165:8204  DUSDinvestor[msg.sender].noOfInvestment */\n      0x05\n      add\n      sload\n        /* \"contracts/contractsCopy/khaledulsaleh_staking.sol\":8154:8204  uint num = DUSDinvestor[msg.sender].noOfInvestment */\n      swap1\n      pop\n        /* \"contracts/contractsCopy/khaledulsaleh_staking.sol\":8218:8227  uint temp */\n      0x00\n        /* \"contracts/contractsCopy/khaledulsaleh_staking.sol\":8241:8258  uint currentIndex */\n      dup1\n        /* \"contracts/contractsCopy/khaledulsaleh_staking.sol\":8289:8295  uint i */\n      0x00\n        /* \"contracts/contractsCopy/khaledulsaleh_staking.sol\":8285:8461  for(uint i=0;i<num;i++)... */\n    tag_162:\n        /* \"contracts/contractsCopy/khaledulsaleh_staking.sol\":8300:8303  num */\n      dup4\n        /* \"contracts/contractsCopy/khaledulsaleh_staking.sol\":8298:8299  i */\n      dup2\n        /* \"contracts/contractsCopy/khaledulsaleh_staking.sol\":8298:8303  i<num */\n      lt\n        /* \"contracts/contractsCopy/khaledulsaleh_staking.sol\":8285:8461  for(uint i=0;i<num;i++)... */\n      iszero\n      tag_163\n      jumpi\n        /* \"contracts/contractsCopy/khaledulsaleh_staking.sol\":8398:8399  0 */\n      0x00\n        /* \"contracts/contractsCopy/khaledulsaleh_staking.sol\":8342:8354  DUSDinvestor */\n      0x0d\n        /* \"contracts/contractsCopy/khaledulsaleh_staking.sol\":8342:8366  DUSDinvestor[msg.sender] */\n      0x00\n        /* \"contracts/contractsCopy/khaledulsaleh_staking.sol\":8355:8365  msg.sender */\n      caller\n        /* \"contracts/contractsCopy/khaledulsaleh_staking.sol\":8342:8366  DUSDinvestor[msg.sender] */\n      0xffffffffffffffffffffffffffffffffffffffff\n      and\n      0xffffffffffffffffffffffffffffffffffffffff\n      and\n      dup2\n      mstore\n      0x20\n      add\n      swap1\n      dup2\n      mstore\n      0x20\n      add\n      0x00\n      keccak256\n        /* \"contracts/contractsCopy/khaledulsaleh_staking.sol\":8342:8377  DUSDinvestor[msg.sender].investment */\n      0x00\n      add\n        /* \"contracts/contractsCopy/khaledulsaleh_staking.sol\":8342:8380  DUSDinvestor[msg.sender].investment[i] */\n      0x00\n        /* \"contracts/contractsCopy/khaledulsaleh_staking.sol\":8378:8379  i */\n      dup4\n        /* \"contracts/contractsCopy/khaledulsaleh_staking.sol\":8342:8380  DUSDinvestor[msg.sender].investment[i] */\n      dup2\n      mstore\n      0x20\n      add\n      swap1\n      dup2\n      mstore\n      0x20\n      add\n      0x00\n      keccak256\n        /* \"contracts/contractsCopy/khaledulsaleh_staking.sol\":8342:8395  DUSDinvestor[msg.sender].investment[i].investedAmount */\n      0x00\n      add\n      sload\n        /* \"contracts/contractsCopy/khaledulsaleh_staking.sol\":8342:8399  DUSDinvestor[msg.sender].investment[i].investedAmount > 0 */\n      gt\n        /* \"contracts/contractsCopy/khaledulsaleh_staking.sol\":8338:8446  if( DUSDinvestor[msg.sender].investment[i].investedAmount > 0 ){... */\n      iszero\n      tag_165\n      jumpi\n        /* \"contracts/contractsCopy/khaledulsaleh_staking.sol\":8422:8428  temp++ */\n      dup3\n      dup1\n      tag_166\n      swap1\n      tag_142\n      jump\t// in\n    tag_166:\n      swap4\n      pop\n      pop\n        /* \"contracts/contractsCopy/khaledulsaleh_staking.sol\":8338:8446  if( DUSDinvestor[msg.sender].investment[i].investedAmount > 0 ){... */\n    tag_165:\n        /* \"contracts/contractsCopy/khaledulsaleh_staking.sol\":8304:8307  i++ */\n      dup1\n      dup1\n      tag_167\n      swap1\n      tag_142\n      jump\t// in\n    tag_167:\n      swap2\n      pop\n      pop\n        /* \"contracts/contractsCopy/khaledulsaleh_staking.sol\":8285:8461  for(uint i=0;i<num;i++)... */\n      jump(tag_162)\n    tag_163:\n      pop\n        /* \"contracts/contractsCopy/khaledulsaleh_staking.sol\":8484:8516  allInvestments[] memory Invested */\n      0x00\n        /* \"contracts/contractsCopy/khaledulsaleh_staking.sol\":8541:8545  temp */\n      dup3\n        /* \"contracts/contractsCopy/khaledulsaleh_staking.sol\":8520:8546  new allInvestments[](temp) */\n      0xffffffffffffffff\n      dup2\n      gt\n      iszero\n      tag_168\n      jumpi\n      tag_169\n      tag_170\n      jump\t// in\n    tag_169:\n    tag_168:\n      mload(0x40)\n      swap1\n      dup1\n      dup3\n      mstore\n      dup1\n      0x20\n      mul\n      0x20\n      add\n      dup3\n      add\n      0x40\n      mstore\n      dup1\n      iszero\n      tag_171\n      jumpi\n      dup2\n      0x20\n      add\n    tag_172:\n      tag_173\n      tag_174\n      jump\t// in\n    tag_173:\n      dup2\n      mstore\n      0x20\n      add\n      swap1\n      0x01\n      swap1\n      sub\n      swap1\n      dup2\n      tag_172\n      jumpi\n      swap1\n      pop\n    tag_171:\n      pop\n        /* \"contracts/contractsCopy/khaledulsaleh_staking.sol\":8484:8546  allInvestments[] memory Invested =  new allInvestments[](temp) */\n      swap1\n      pop\n        /* \"contracts/contractsCopy/khaledulsaleh_staking.sol\":8566:8572  uint i */\n      0x00\n        /* \"contracts/contractsCopy/khaledulsaleh_staking.sol\":8562:8922  for(uint i=0;i<num;i++)... */\n    tag_175:\n        /* \"contracts/contractsCopy/khaledulsaleh_staking.sol\":8577:8580  num */\n      dup5\n        /* \"contracts/contractsCopy/khaledulsaleh_staking.sol\":8575:8576  i */\n      dup2\n        /* \"contracts/contractsCopy/khaledulsaleh_staking.sol\":8575:8580  i<num */\n      lt\n        /* \"contracts/contractsCopy/khaledulsaleh_staking.sol\":8562:8922  for(uint i=0;i<num;i++)... */\n      iszero\n      tag_176\n      jumpi\n        /* \"contracts/contractsCopy/khaledulsaleh_staking.sol\":8675:8676  0 */\n      0x00\n        /* \"contracts/contractsCopy/khaledulsaleh_staking.sol\":8619:8631  DUSDinvestor */\n      0x0d\n        /* \"contracts/contractsCopy/khaledulsaleh_staking.sol\":8619:8643  DUSDinvestor[msg.sender] */\n      0x00\n        /* \"contracts/contractsCopy/khaledulsaleh_staking.sol\":8632:8642  msg.sender */\n      caller\n        /* \"contracts/contractsCopy/khaledulsaleh_staking.sol\":8619:8643  DUSDinvestor[msg.sender] */\n      0xffffffffffffffffffffffffffffffffffffffff\n      and\n      0xffffffffffffffffffffffffffffffffffffffff\n      and\n      dup2\n      mstore\n      0x20\n      add\n      swap1\n      dup2\n      mstore\n      0x20\n      add\n      0x00\n      keccak256\n        /* \"contracts/contractsCopy/khaledulsaleh_staking.sol\":8619:8654  DUSDinvestor[msg.sender].investment */\n      0x00\n      add\n        /* \"contracts/contractsCopy/khaledulsaleh_staking.sol\":8619:8657  DUSDinvestor[msg.sender].investment[i] */\n      0x00\n        /* \"contracts/contractsCopy/khaledulsaleh_staking.sol\":8655:8656  i */\n      dup4\n        /* \"contracts/contractsCopy/khaledulsaleh_staking.sol\":8619:8657  DUSDinvestor[msg.sender].investment[i] */\n      dup2\n      mstore\n      0x20\n      add\n      swap1\n      dup2\n      mstore\n      0x20\n      add\n      0x00\n      keccak256\n        /* \"contracts/contractsCopy/khaledulsaleh_staking.sol\":8619:8672  DUSDinvestor[msg.sender].investment[i].investedAmount */\n      0x00\n      add\n      sload\n        /* \"contracts/contractsCopy/khaledulsaleh_staking.sol\":8619:8676  DUSDinvestor[msg.sender].investment[i].investedAmount > 0 */\n      gt\n        /* \"contracts/contractsCopy/khaledulsaleh_staking.sol\":8615:8907  if( DUSDinvestor[msg.sender].investment[i].investedAmount > 0 ){... */\n      iszero\n      tag_178\n      jumpi\n        /* \"contracts/contractsCopy/khaledulsaleh_staking.sol\":8816:8828  DUSDinvestor */\n      0x0d\n        /* \"contracts/contractsCopy/khaledulsaleh_staking.sol\":8816:8840  DUSDinvestor[msg.sender] */\n      0x00\n        /* \"contracts/contractsCopy/khaledulsaleh_staking.sol\":8829:8839  msg.sender */\n      caller\n        /* \"contracts/contractsCopy/khaledulsaleh_staking.sol\":8816:8840  DUSDinvestor[msg.sender] */\n      0xffffffffffffffffffffffffffffffffffffffff\n      and\n      0xffffffffffffffffffffffffffffffffffffffff\n      and\n      dup2\n      mstore\n      0x20\n      add\n      swap1\n      dup2\n      mstore\n      0x20\n      add\n      0x00\n      keccak256\n        /* \"contracts/contractsCopy/khaledulsaleh_staking.sol\":8816:8851  DUSDinvestor[msg.sender].investment */\n      0x00\n      add\n        /* \"contracts/contractsCopy/khaledulsaleh_staking.sol\":8816:8854  DUSDinvestor[msg.sender].investment[i] */\n      0x00\n        /* \"contracts/contractsCopy/khaledulsaleh_staking.sol\":8852:8853  i */\n      dup3\n        /* \"contracts/contractsCopy/khaledulsaleh_staking.sol\":8816:8854  DUSDinvestor[msg.sender].investment[i] */\n      dup2\n      mstore\n      0x20\n      add\n      swap1\n      dup2\n      mstore\n      0x20\n      add\n      0x00\n      keccak256\n        /* \"contracts/contractsCopy/khaledulsaleh_staking.sol\":8793:8854  Invested[currentIndex]=DUSDinvestor[msg.sender].investment[i] */\n      mload(0x40)\n      dup1\n      0xc0\n      add\n      0x40\n      mstore\n      swap1\n      dup2\n      0x00\n      dup3\n      add\n      sload\n      dup2\n      mstore\n      0x20\n      add\n      0x01\n      dup3\n      add\n      sload\n      dup2\n      mstore\n      0x20\n      add\n      0x02\n      dup3\n      add\n      sload\n      dup2\n      mstore\n      0x20\n      add\n      0x03\n      dup3\n      add\n      sload\n      dup2\n      mstore\n      0x20\n      add\n      0x04\n      dup3\n      add\n      sload\n      dup2\n      mstore\n      0x20\n      add\n      0x05\n      dup3\n      add\n      0x00\n      swap1\n      sload\n      swap1\n      0x0100\n      exp\n      swap1\n      div\n      0xff\n      and\n      iszero\n      iszero\n      iszero\n      iszero\n      dup2\n      mstore\n      pop\n      pop\n        /* \"contracts/contractsCopy/khaledulsaleh_staking.sol\":8793:8801  Invested */\n      dup3\n        /* \"contracts/contractsCopy/khaledulsaleh_staking.sol\":8802:8814  currentIndex */\n      dup5\n        /* \"contracts/contractsCopy/khaledulsaleh_staking.sol\":8793:8815  Invested[currentIndex] */\n      dup2\n      mload\n      dup2\n      lt\n      tag_179\n      jumpi\n      tag_180\n      tag_181\n      jump\t// in\n    tag_180:\n    tag_179:\n      0x20\n      mul\n      0x20\n      add\n      add\n        /* \"contracts/contractsCopy/khaledulsaleh_staking.sol\":8793:8854  Invested[currentIndex]=DUSDinvestor[msg.sender].investment[i] */\n      dup2\n      swap1\n      mstore\n      pop\n        /* \"contracts/contractsCopy/khaledulsaleh_staking.sol\":8875:8889  currentIndex++ */\n      dup3\n      dup1\n      tag_182\n      swap1\n      tag_142\n      jump\t// in\n    tag_182:\n      swap4\n      pop\n      pop\n        /* \"contracts/contractsCopy/khaledulsaleh_staking.sol\":8615:8907  if( DUSDinvestor[msg.sender].investment[i].investedAmount > 0 ){... */\n    tag_178:\n        /* \"contracts/contractsCopy/khaledulsaleh_staking.sol\":8581:8584  i++ */\n      dup1\n      dup1\n      tag_183\n      swap1\n      tag_142\n      jump\t// in\n    tag_183:\n      swap2\n      pop\n      pop\n        /* \"contracts/contractsCopy/khaledulsaleh_staking.sol\":8562:8922  for(uint i=0;i<num;i++)... */\n      jump(tag_175)\n    tag_176:\n      pop\n        /* \"contracts/contractsCopy/khaledulsaleh_staking.sol\":8942:8950  Invested */\n      dup1\n        /* \"contracts/contractsCopy/khaledulsaleh_staking.sol\":8935:8950  return Invested */\n      swap5\n      pop\n      pop\n      pop\n      pop\n      pop\n        /* \"contracts/contractsCopy/khaledulsaleh_staking.sol\":7979:8962  function getAllDUSDinvestments() public view returns (allInvestments[] memory) { //this function will return the all investments of the investor and withware date... */\n      swap1\n      jump\t// out\n        /* \"contracts/contractsCopy/khaledulsaleh_staking.sol\":3781:4896  function getReward() view public returns(uint){ //this function is get the total reward balance of the investor... */\n    tag_64:\n        /* \"contracts/contractsCopy/khaledulsaleh_staking.sol\":3822:3826  uint */\n      0x00\n        /* \"contracts/contractsCopy/khaledulsaleh_staking.sol\":3905:3921  uint totalReward */\n      dup1\n        /* \"contracts/contractsCopy/khaledulsaleh_staking.sol\":3935:3947  uint depTime */\n      0x00\n        /* \"contracts/contractsCopy/khaledulsaleh_staking.sol\":3961:3969  uint rew */\n      dup1\n        /* \"contracts/contractsCopy/khaledulsaleh_staking.sol\":3983:3992  uint temp */\n      0x00\n        /* \"contracts/contractsCopy/khaledulsaleh_staking.sol\":3995:4007  DUSDinvestor */\n      0x0d\n        /* \"contracts/contractsCopy/khaledulsaleh_staking.sol\":3995:4019  DUSDinvestor[msg.sender] */\n      0x00\n        /* \"contracts/contractsCopy/khaledulsaleh_staking.sol\":4008:4018  msg.sender */\n      caller\n        /* \"contracts/contractsCopy/khaledulsaleh_staking.sol\":3995:4019  DUSDinvestor[msg.sender] */\n      0xffffffffffffffffffffffffffffffffffffffff\n      and\n      0xffffffffffffffffffffffffffffffffffffffff\n      and\n      dup2\n      mstore\n      0x20\n      add\n      swap1\n      dup2\n      mstore\n      0x20\n      add\n      0x00\n      keccak256\n        /* \"contracts/contractsCopy/khaledulsaleh_staking.sol\":3995:4034  DUSDinvestor[msg.sender].noOfInvestment */\n      0x05\n      add\n      sload\n        /* \"contracts/contractsCopy/khaledulsaleh_staking.sol\":3983:4034  uint temp = DUSDinvestor[msg.sender].noOfInvestment */\n      swap1\n      pop\n        /* \"contracts/contractsCopy/khaledulsaleh_staking.sol\":4053:4059  uint i */\n      0x00\n        /* \"contracts/contractsCopy/khaledulsaleh_staking.sol\":4048:4779  for( uint i = 0;i < temp;i++)... */\n    tag_185:\n        /* \"contracts/contractsCopy/khaledulsaleh_staking.sol\":4068:4072  temp */\n      dup2\n        /* \"contracts/contractsCopy/khaledulsaleh_staking.sol\":4064:4065  i */\n      dup2\n        /* \"contracts/contractsCopy/khaledulsaleh_staking.sol\":4064:4072  i < temp */\n      lt\n        /* \"contracts/contractsCopy/khaledulsaleh_staking.sol\":4048:4779  for( uint i = 0;i < temp;i++)... */\n      iszero\n      tag_186\n      jumpi\n        /* \"contracts/contractsCopy/khaledulsaleh_staking.sol\":4115:4127  DUSDinvestor */\n      0x0d\n        /* \"contracts/contractsCopy/khaledulsaleh_staking.sol\":4115:4139  DUSDinvestor[msg.sender] */\n      0x00\n        /* \"contracts/contractsCopy/khaledulsaleh_staking.sol\":4128:4138  msg.sender */\n      caller\n        /* \"contracts/contractsCopy/khaledulsaleh_staking.sol\":4115:4139  DUSDinvestor[msg.sender] */\n      0xffffffffffffffffffffffffffffffffffffffff\n      and\n      0xffffffffffffffffffffffffffffffffffffffff\n      and\n      dup2\n      mstore\n      0x20\n      add\n      swap1\n      dup2\n      mstore\n      0x20\n      add\n      0x00\n      keccak256\n        /* \"contracts/contractsCopy/khaledulsaleh_staking.sol\":4115:4150  DUSDinvestor[msg.sender].investment */\n      0x00\n      add\n        /* \"contracts/contractsCopy/khaledulsaleh_staking.sol\":4115:4153  DUSDinvestor[msg.sender].investment[i] */\n      0x00\n        /* \"contracts/contractsCopy/khaledulsaleh_staking.sol\":4151:4152  i */\n      dup3\n        /* \"contracts/contractsCopy/khaledulsaleh_staking.sol\":4115:4153  DUSDinvestor[msg.sender].investment[i] */\n      dup2\n      mstore\n      0x20\n      add\n      swap1\n      dup2\n      mstore\n      0x20\n      add\n      0x00\n      keccak256\n        /* \"contracts/contractsCopy/khaledulsaleh_staking.sol\":4115:4161  DUSDinvestor[msg.sender].investment[i].unstake */\n      0x05\n      add\n      0x00\n      swap1\n      sload\n      swap1\n      0x0100\n      exp\n      swap1\n      div\n      0xff\n      and\n        /* \"contracts/contractsCopy/khaledulsaleh_staking.sol\":4111:4471  if(!DUSDinvestor[msg.sender].investment[i].unstake)... */\n      tag_188\n      jumpi\n        /* \"contracts/contractsCopy/khaledulsaleh_staking.sol\":4228:4240  DUSDinvestor */\n      0x0d\n        /* \"contracts/contractsCopy/khaledulsaleh_staking.sol\":4228:4252  DUSDinvestor[msg.sender] */\n      0x00\n        /* \"contracts/contractsCopy/khaledulsaleh_staking.sol\":4241:4251  msg.sender */\n      caller\n        /* \"contracts/contractsCopy/khaledulsaleh_staking.sol\":4228:4252  DUSDinvestor[msg.sender] */\n      0xffffffffffffffffffffffffffffffffffffffff\n      and\n      0xffffffffffffffffffffffffffffffffffffffff\n      and\n      dup2\n      mstore\n      0x20\n      add\n      swap1\n      dup2\n      mstore\n      0x20\n      add\n      0x00\n      keccak256\n        /* \"contracts/contractsCopy/khaledulsaleh_staking.sol\":4228:4263  DUSDinvestor[msg.sender].investment */\n      0x00\n      add\n        /* \"contracts/contractsCopy/khaledulsaleh_staking.sol\":4228:4266  DUSDinvestor[msg.sender].investment[i] */\n      0x00\n        /* \"contracts/contractsCopy/khaledulsaleh_staking.sol\":4264:4265  i */\n      dup3\n        /* \"contracts/contractsCopy/khaledulsaleh_staking.sol\":4228:4266  DUSDinvestor[msg.sender].investment[i] */\n      dup2\n      mstore\n      0x20\n      add\n      swap1\n      dup2\n      mstore\n      0x20\n      add\n      0x00\n      keccak256\n        /* \"contracts/contractsCopy/khaledulsaleh_staking.sol\":4228:4278  DUSDinvestor[msg.sender].investment[i].DepositTime */\n      0x02\n      add\n      sload\n        /* \"contracts/contractsCopy/khaledulsaleh_staking.sol\":4210:4225  block.timestamp */\n      timestamp\n        /* \"contracts/contractsCopy/khaledulsaleh_staking.sol\":4210:4278  block.timestamp - DUSDinvestor[msg.sender].investment[i].DepositTime */\n      tag_189\n      swap2\n      swap1\n      tag_190\n      jump\t// in\n    tag_189:\n        /* \"contracts/contractsCopy/khaledulsaleh_staking.sol\":4201:4278  depTime =block.timestamp - DUSDinvestor[msg.sender].investment[i].DepositTime */\n      swap4\n      pop\n        /* \"contracts/contractsCopy/khaledulsaleh_staking.sol\":4111:4471  if(!DUSDinvestor[msg.sender].investment[i].unstake)... */\n      jump(tag_191)\n    tag_188:\n        /* \"contracts/contractsCopy/khaledulsaleh_staking.sol\":4402:4414  DUSDinvestor */\n      0x0d\n        /* \"contracts/contractsCopy/khaledulsaleh_staking.sol\":4402:4426  DUSDinvestor[msg.sender] */\n      0x00\n        /* \"contracts/contractsCopy/khaledulsaleh_staking.sol\":4415:4425  msg.sender */\n      caller\n        /* \"contracts/contractsCopy/khaledulsaleh_staking.sol\":4402:4426  DUSDinvestor[msg.sender] */\n      0xffffffffffffffffffffffffffffffffffffffff\n      and\n      0xffffffffffffffffffffffffffffffffffffffff\n      and\n      dup2\n      mstore\n      0x20\n      add\n      swap1\n      dup2\n      mstore\n      0x20\n      add\n      0x00\n      keccak256\n        /* \"contracts/contractsCopy/khaledulsaleh_staking.sol\":4402:4437  DUSDinvestor[msg.sender].investment */\n      0x00\n      add\n        /* \"contracts/contractsCopy/khaledulsaleh_staking.sol\":4402:4440  DUSDinvestor[msg.sender].investment[i] */\n      0x00\n        /* \"contracts/contractsCopy/khaledulsaleh_staking.sol\":4438:4439  i */\n      dup3\n        /* \"contracts/contractsCopy/khaledulsaleh_staking.sol\":4402:4440  DUSDinvestor[msg.sender].investment[i] */\n      dup2\n      mstore\n      0x20\n      add\n      swap1\n      dup2\n      mstore\n      0x20\n      add\n      0x00\n      keccak256\n        /* \"contracts/contractsCopy/khaledulsaleh_staking.sol\":4402:4452  DUSDinvestor[msg.sender].investment[i].DepositTime */\n      0x02\n      add\n      sload\n        /* \"contracts/contractsCopy/khaledulsaleh_staking.sol\":4349:4361  DUSDinvestor */\n      0x0d\n        /* \"contracts/contractsCopy/khaledulsaleh_staking.sol\":4349:4373  DUSDinvestor[msg.sender] */\n      0x00\n        /* \"contracts/contractsCopy/khaledulsaleh_staking.sol\":4362:4372  msg.sender */\n      caller\n        /* \"contracts/contractsCopy/khaledulsaleh_staking.sol\":4349:4373  DUSDinvestor[msg.sender] */\n      0xffffffffffffffffffffffffffffffffffffffff\n      and\n      0xffffffffffffffffffffffffffffffffffffffff\n      and\n      dup2\n      mstore\n      0x20\n      add\n      swap1\n      dup2\n      mstore\n      0x20\n      add\n      0x00\n      keccak256\n        /* \"contracts/contractsCopy/khaledulsaleh_staking.sol\":4349:4384  DUSDinvestor[msg.sender].investment */\n      0x00\n      add\n        /* \"contracts/contractsCopy/khaledulsaleh_staking.sol\":4349:4387  DUSDinvestor[msg.sender].investment[i] */\n      0x00\n        /* \"contracts/contractsCopy/khaledulsaleh_staking.sol\":4385:4386  i */\n      dup4\n        /* \"contracts/contractsCopy/khaledulsaleh_staking.sol\":4349:4387  DUSDinvestor[msg.sender].investment[i] */\n      dup2\n      mstore\n      0x20\n      add\n      swap1\n      dup2\n      mstore\n      0x20\n      add\n      0x00\n      keccak256\n        /* \"contracts/contractsCopy/khaledulsaleh_staking.sol\":4349:4399  DUSDinvestor[msg.sender].investment[i].unstakeTime */\n      0x04\n      add\n      sload\n        /* \"contracts/contractsCopy/khaledulsaleh_staking.sol\":4349:4452  DUSDinvestor[msg.sender].investment[i].unstakeTime - DUSDinvestor[msg.sender].investment[i].DepositTime */\n      tag_192\n      swap2\n      swap1\n      tag_190\n      jump\t// in\n    tag_192:\n        /* \"contracts/contractsCopy/khaledulsaleh_staking.sol\":4340:4452  depTime =DUSDinvestor[msg.sender].investment[i].unstakeTime - DUSDinvestor[msg.sender].investment[i].DepositTime */\n      swap4\n      pop\n        /* \"contracts/contractsCopy/khaledulsaleh_staking.sol\":4111:4471  if(!DUSDinvestor[msg.sender].investment[i].unstake)... */\n    tag_191:\n        /* \"contracts/contractsCopy/khaledulsaleh_staking.sol\":4504:4506  60 */\n      0x3c\n        /* \"contracts/contractsCopy/khaledulsaleh_staking.sol\":4496:4503  depTime */\n      dup5\n        /* \"contracts/contractsCopy/khaledulsaleh_staking.sol\":4496:4506  depTime/60 */\n      tag_193\n      swap2\n      swap1\n      tag_194\n      jump\t// in\n    tag_193:\n        /* \"contracts/contractsCopy/khaledulsaleh_staking.sol\":4488:4506  depTime=depTime/60 */\n      swap4\n      pop\n        /* \"contracts/contractsCopy/khaledulsaleh_staking.sol\":4543:4544  0 */\n      0x00\n        /* \"contracts/contractsCopy/khaledulsaleh_staking.sol\":4535:4542  depTime */\n      dup5\n        /* \"contracts/contractsCopy/khaledulsaleh_staking.sol\":4535:4544  depTime>0 */\n      gt\n        /* \"contracts/contractsCopy/khaledulsaleh_staking.sol\":4532:4765  if(depTime>0)... */\n      iszero\n      tag_195\n      jumpi\n        /* \"contracts/contractsCopy/khaledulsaleh_staking.sol\":4691:4694  100 */\n      0x64\n        /* \"contracts/contractsCopy/khaledulsaleh_staking.sol\":4675:4688  totalbusiness */\n      sload(0x0a)\n        /* \"contracts/contractsCopy/khaledulsaleh_staking.sol\":4668:4671  100 */\n      0x64\n        /* \"contracts/contractsCopy/khaledulsaleh_staking.sol\":4612:4624  DUSDinvestor */\n      0x0d\n        /* \"contracts/contractsCopy/khaledulsaleh_staking.sol\":4612:4636  DUSDinvestor[msg.sender] */\n      0x00\n        /* \"contracts/contractsCopy/khaledulsaleh_staking.sol\":4625:4635  msg.sender */\n      caller\n        /* \"contracts/contractsCopy/khaledulsaleh_staking.sol\":4612:4636  DUSDinvestor[msg.sender] */\n      0xffffffffffffffffffffffffffffffffffffffff\n      and\n      0xffffffffffffffffffffffffffffffffffffffff\n      and\n      dup2\n      mstore\n      0x20\n      add\n      swap1\n      dup2\n      mstore\n      0x20\n      add\n      0x00\n      keccak256\n        /* \"contracts/contractsCopy/khaledulsaleh_staking.sol\":4612:4647  DUSDinvestor[msg.sender].investment */\n      0x00\n      add\n        /* \"contracts/contractsCopy/khaledulsaleh_staking.sol\":4612:4650  DUSDinvestor[msg.sender].investment[i] */\n      0x00\n        /* \"contracts/contractsCopy/khaledulsaleh_staking.sol\":4648:4649  i */\n      dup6\n        /* \"contracts/contractsCopy/khaledulsaleh_staking.sol\":4612:4650  DUSDinvestor[msg.sender].investment[i] */\n      dup2\n      mstore\n      0x20\n      add\n      swap1\n      dup2\n      mstore\n      0x20\n      add\n      0x00\n      keccak256\n        /* \"contracts/contractsCopy/khaledulsaleh_staking.sol\":4612:4665  DUSDinvestor[msg.sender].investment[i].investedAmount */\n      0x00\n      add\n      sload\n        /* \"contracts/contractsCopy/khaledulsaleh_staking.sol\":4612:4671  DUSDinvestor[msg.sender].investment[i].investedAmount * 100 */\n      tag_196\n      swap2\n      swap1\n      tag_151\n      jump\t// in\n    tag_196:\n        /* \"contracts/contractsCopy/khaledulsaleh_staking.sol\":4611:4688  (DUSDinvestor[msg.sender].investment[i].investedAmount * 100 )/ totalbusiness */\n      tag_197\n      swap2\n      swap1\n      tag_194\n      jump\t// in\n    tag_197:\n        /* \"contracts/contractsCopy/khaledulsaleh_staking.sol\":4593:4607  reward_per_day */\n      sload(0x03)\n        /* \"contracts/contractsCopy/khaledulsaleh_staking.sol\":4593:4689  reward_per_day * ((DUSDinvestor[msg.sender].investment[i].investedAmount * 100 )/ totalbusiness) */\n      tag_198\n      swap2\n      swap1\n      tag_151\n      jump\t// in\n    tag_198:\n        /* \"contracts/contractsCopy/khaledulsaleh_staking.sol\":4592:4694  (reward_per_day * ((DUSDinvestor[msg.sender].investment[i].investedAmount * 100 )/ totalbusiness))/100 */\n      tag_199\n      swap2\n      swap1\n      tag_194\n      jump\t// in\n    tag_199:\n        /* \"contracts/contractsCopy/khaledulsaleh_staking.sol\":4585:4694  rew  = (reward_per_day * ((DUSDinvestor[msg.sender].investment[i].investedAmount * 100 )/ totalbusiness))/100 */\n      swap3\n      pop\n        /* \"contracts/contractsCopy/khaledulsaleh_staking.sol\":4743:4746  rew */\n      dup3\n        /* \"contracts/contractsCopy/khaledulsaleh_staking.sol\":4733:4740  depTime */\n      dup5\n        /* \"contracts/contractsCopy/khaledulsaleh_staking.sol\":4733:4746  depTime * rew */\n      tag_200\n      swap2\n      swap1\n      tag_151\n      jump\t// in\n    tag_200:\n        /* \"contracts/contractsCopy/khaledulsaleh_staking.sol\":4718:4746  totalReward += depTime * rew */\n      dup6\n      tag_201\n      swap2\n      swap1\n      tag_145\n      jump\t// in\n    tag_201:\n      swap5\n      pop\n        /* \"contracts/contractsCopy/khaledulsaleh_staking.sol\":4532:4765  if(depTime>0)... */\n    tag_195:\n        /* \"contracts/contractsCopy/khaledulsaleh_staking.sol\":4073:4076  i++ */\n      dup1\n      dup1\n      tag_202\n      swap1\n      tag_142\n      jump\t// in\n    tag_202:\n      swap2\n      pop\n      pop\n        /* \"contracts/contractsCopy/khaledulsaleh_staking.sol\":4048:4779  for( uint i = 0;i < temp;i++)... */\n      jump(tag_185)\n    tag_186:\n      pop\n        /* \"contracts/contractsCopy/khaledulsaleh_staking.sol\":4807:4819  DUSDinvestor */\n      0x0d\n        /* \"contracts/contractsCopy/khaledulsaleh_staking.sol\":4807:4831  DUSDinvestor[msg.sender] */\n      0x00\n        /* \"contracts/contractsCopy/khaledulsaleh_staking.sol\":4820:4830  msg.sender */\n      caller\n        /* \"contracts/contractsCopy/khaledulsaleh_staking.sol\":4807:4831  DUSDinvestor[msg.sender] */\n      0xffffffffffffffffffffffffffffffffffffffff\n      and\n      0xffffffffffffffffffffffffffffffffffffffff\n      and\n      dup2\n      mstore\n      0x20\n      add\n      swap1\n      dup2\n      mstore\n      0x20\n      add\n      0x00\n      keccak256\n        /* \"contracts/contractsCopy/khaledulsaleh_staking.sol\":4807:4852  DUSDinvestor[msg.sender].totalWithdraw_reward */\n      0x07\n      add\n      sload\n        /* \"contracts/contractsCopy/khaledulsaleh_staking.sol\":4792:4852  totalReward -= DUSDinvestor[msg.sender].totalWithdraw_reward */\n      dup5\n      tag_203\n      swap2\n      swap1\n      tag_190\n      jump\t// in\n    tag_203:\n      swap4\n      pop\n        /* \"contracts/contractsCopy/khaledulsaleh_staking.sol\":4874:4885  totalReward */\n      dup4\n        /* \"contracts/contractsCopy/khaledulsaleh_staking.sol\":4867:4885  return totalReward */\n      swap5\n      pop\n      pop\n      pop\n      pop\n      pop\n        /* \"contracts/contractsCopy/khaledulsaleh_staking.sol\":3781:4896  function getReward() view public returns(uint){ //this function is get the total reward balance of the investor... */\n      swap1\n      jump\t// out\n        /* \"contracts/contractsCopy/khaledulsaleh_staking.sol\":11584:12363  function Admin_data() view public returns(Admin_Data[] memory){... */\n    tag_67:\n        /* \"contracts/contractsCopy/khaledulsaleh_staking.sol\":11626:11645  Admin_Data[] memory */\n      0x60\n        /* \"contracts/contractsCopy/khaledulsaleh_staking.sol\":11661:11685  Admin_Data[] memory Temp */\n      0x00\n        /* \"contracts/contractsCopy/khaledulsaleh_staking.sol\":11703:11721  totalDUSDInvestors */\n      sload(0x04)\n        /* \"contracts/contractsCopy/khaledulsaleh_staking.sol\":11686:11722  new Admin_Data[](totalDUSDInvestors) */\n      0xffffffffffffffff\n      dup2\n      gt\n      iszero\n      tag_205\n      jumpi\n      tag_206\n      tag_170\n      jump\t// in\n    tag_206:\n    tag_205:\n      mload(0x40)\n      swap1\n      dup1\n      dup3\n      mstore\n      dup1\n      0x20\n      mul\n      0x20\n      add\n      dup3\n      add\n      0x40\n      mstore\n      dup1\n      iszero\n      tag_207\n      jumpi\n      dup2\n      0x20\n      add\n    tag_208:\n      tag_209\n      tag_210\n      jump\t// in\n    tag_209:\n      dup2\n      mstore\n      0x20\n      add\n      swap1\n      0x01\n      swap1\n      sub\n      swap1\n      dup2\n      tag_208\n      jumpi\n      swap1\n      pop\n    tag_207:\n      pop\n        /* \"contracts/contractsCopy/khaledulsaleh_staking.sol\":11661:11722  Admin_Data[] memory Temp=new Admin_Data[](totalDUSDInvestors) */\n      swap1\n      pop\n        /* \"contracts/contractsCopy/khaledulsaleh_staking.sol\":11753:11759  uint i */\n      0x00\n        /* \"contracts/contractsCopy/khaledulsaleh_staking.sol\":11749:12314  for(uint i=0;i<totalDUSDInvestors;i++)... */\n    tag_211:\n        /* \"contracts/contractsCopy/khaledulsaleh_staking.sol\":11764:11782  totalDUSDInvestors */\n      sload(0x04)\n        /* \"contracts/contractsCopy/khaledulsaleh_staking.sol\":11762:11763  i */\n      dup2\n        /* \"contracts/contractsCopy/khaledulsaleh_staking.sol\":11762:11782  i<totalDUSDInvestors */\n      lt\n        /* \"contracts/contractsCopy/khaledulsaleh_staking.sol\":11749:12314  for(uint i=0;i<totalDUSDInvestors;i++)... */\n      iszero\n      tag_212\n      jumpi\n        /* \"contracts/contractsCopy/khaledulsaleh_staking.sol\":11836:11849  All_investors */\n      0x0c\n        /* \"contracts/contractsCopy/khaledulsaleh_staking.sol\":11836:11852  All_investors[i] */\n      0x00\n        /* \"contracts/contractsCopy/khaledulsaleh_staking.sol\":11850:11851  i */\n      dup3\n        /* \"contracts/contractsCopy/khaledulsaleh_staking.sol\":11836:11852  All_investors[i] */\n      dup2\n      mstore\n      0x20\n      add\n      swap1\n      dup2\n      mstore\n      0x20\n      add\n      0x00\n      keccak256\n      0x00\n      swap1\n      sload\n      swap1\n      0x0100\n      exp\n      swap1\n      div\n      0xffffffffffffffffffffffffffffffffffffffff\n      and\n        /* \"contracts/contractsCopy/khaledulsaleh_staking.sol\":11817:11821  Temp */\n      dup3\n        /* \"contracts/contractsCopy/khaledulsaleh_staking.sol\":11822:11823  i */\n      dup3\n        /* \"contracts/contractsCopy/khaledulsaleh_staking.sol\":11817:11824  Temp[i] */\n      dup2\n      mload\n      dup2\n      lt\n      tag_214\n      jumpi\n      tag_215\n      tag_181\n      jump\t// in\n    tag_215:\n    tag_214:\n      0x20\n      mul\n      0x20\n      add\n      add\n      mload\n        /* \"contracts/contractsCopy/khaledulsaleh_staking.sol\":11817:11833  Temp[i].investor */\n      0x00\n      add\n        /* \"contracts/contractsCopy/khaledulsaleh_staking.sol\":11817:11852  Temp[i].investor = All_investors[i] */\n      swap1\n      0xffffffffffffffffffffffffffffffffffffffff\n      and\n      swap1\n      dup2\n      0xffffffffffffffffffffffffffffffffffffffff\n      and\n      dup2\n      mstore\n      pop\n      pop\n        /* \"contracts/contractsCopy/khaledulsaleh_staking.sol\":11895:11907  DUSDinvestor */\n      0x0d\n        /* \"contracts/contractsCopy/khaledulsaleh_staking.sol\":11895:11925  DUSDinvestor[All_investors[i]] */\n      0x00\n        /* \"contracts/contractsCopy/khaledulsaleh_staking.sol\":11908:11921  All_investors */\n      0x0c\n        /* \"contracts/contractsCopy/khaledulsaleh_staking.sol\":11908:11924  All_investors[i] */\n      0x00\n        /* \"contracts/contractsCopy/khaledulsaleh_staking.sol\":11922:11923  i */\n      dup5\n        /* \"contracts/contractsCopy/khaledulsaleh_staking.sol\":11908:11924  All_investors[i] */\n      dup2\n      mstore\n      0x20\n      add\n      swap1\n      dup2\n      mstore\n      0x20\n      add\n      0x00\n      keccak256\n      0x00\n      swap1\n      sload\n      swap1\n      0x0100\n      exp\n      swap1\n      div\n      0xffffffffffffffffffffffffffffffffffffffff\n      and\n        /* \"contracts/contractsCopy/khaledulsaleh_staking.sol\":11895:11925  DUSDinvestor[All_investors[i]] */\n      0xffffffffffffffffffffffffffffffffffffffff\n      and\n      0xffffffffffffffffffffffffffffffffffffffff\n      and\n      dup2\n      mstore\n      0x20\n      add\n      swap1\n      dup2\n      mstore\n      0x20\n      add\n      0x00\n      keccak256\n        /* \"contracts/contractsCopy/khaledulsaleh_staking.sol\":11895:11941  DUSDinvestor[All_investors[i]].totalInvestment */\n      0x06\n      add\n      sload\n        /* \"contracts/contractsCopy/khaledulsaleh_staking.sol\":11869:11873  Temp */\n      dup3\n        /* \"contracts/contractsCopy/khaledulsaleh_staking.sol\":11874:11875  i */\n      dup3\n        /* \"contracts/contractsCopy/khaledulsaleh_staking.sol\":11869:11876  Temp[i] */\n      dup2\n      mload\n      dup2\n      lt\n      tag_216\n      jumpi\n      tag_217\n      tag_181\n      jump\t// in\n    tag_217:\n    tag_216:\n      0x20\n      mul\n      0x20\n      add\n      add\n      mload\n        /* \"contracts/contractsCopy/khaledulsaleh_staking.sol\":11869:11892  Temp[i].totalInvestment */\n      0x20\n      add\n        /* \"contracts/contractsCopy/khaledulsaleh_staking.sol\":11869:11941  Temp[i].totalInvestment = DUSDinvestor[All_investors[i]].totalInvestment */\n      dup2\n      dup2\n      mstore\n      pop\n      pop\n        /* \"contracts/contractsCopy/khaledulsaleh_staking.sol\":11973:12010  get_investor_Reward(All_investors[i]) */\n      tag_218\n        /* \"contracts/contractsCopy/khaledulsaleh_staking.sol\":11993:12006  All_investors */\n      0x0c\n        /* \"contracts/contractsCopy/khaledulsaleh_staking.sol\":11993:12009  All_investors[i] */\n      0x00\n        /* \"contracts/contractsCopy/khaledulsaleh_staking.sol\":12007:12008  i */\n      dup4\n        /* \"contracts/contractsCopy/khaledulsaleh_staking.sol\":11993:12009  All_investors[i] */\n      dup2\n      mstore\n      0x20\n      add\n      swap1\n      dup2\n      mstore\n      0x20\n      add\n      0x00\n      keccak256\n      0x00\n      swap1\n      sload\n      swap1\n      0x0100\n      exp\n      swap1\n      div\n      0xffffffffffffffffffffffffffffffffffffffff\n      and\n        /* \"contracts/contractsCopy/khaledulsaleh_staking.sol\":11973:11992  get_investor_Reward */\n      tag_219\n        /* \"contracts/contractsCopy/khaledulsaleh_staking.sol\":11973:12010  get_investor_Reward(All_investors[i]) */\n      jump\t// in\n    tag_218:\n        /* \"contracts/contractsCopy/khaledulsaleh_staking.sol\":11958:11962  Temp */\n      dup3\n        /* \"contracts/contractsCopy/khaledulsaleh_staking.sol\":11963:11964  i */\n      dup3\n        /* \"contracts/contractsCopy/khaledulsaleh_staking.sol\":11958:11965  Temp[i] */\n      dup2\n      mload\n      dup2\n      lt\n      tag_220\n      jumpi\n      tag_221\n      tag_181\n      jump\t// in\n    tag_221:\n    tag_220:\n      0x20\n      mul\n      0x20\n      add\n      add\n      mload\n        /* \"contracts/contractsCopy/khaledulsaleh_staking.sol\":11958:11972  Temp[i].reward */\n      0x40\n      add\n        /* \"contracts/contractsCopy/khaledulsaleh_staking.sol\":11958:12010  Temp[i].reward=get_investor_Reward(All_investors[i]) */\n      dup2\n      dup2\n      mstore\n      pop\n      pop\n        /* \"contracts/contractsCopy/khaledulsaleh_staking.sol\":12052:12064  DUSDinvestor */\n      0x0d\n        /* \"contracts/contractsCopy/khaledulsaleh_staking.sol\":12052:12082  DUSDinvestor[All_investors[i]] */\n      0x00\n        /* \"contracts/contractsCopy/khaledulsaleh_staking.sol\":12065:12078  All_investors */\n      0x0c\n        /* \"contracts/contractsCopy/khaledulsaleh_staking.sol\":12065:12081  All_investors[i] */\n      0x00\n        /* \"contracts/contractsCopy/khaledulsaleh_staking.sol\":12079:12080  i */\n      dup5\n        /* \"contracts/contractsCopy/khaledulsaleh_staking.sol\":12065:12081  All_investors[i] */\n      dup2\n      mstore\n      0x20\n      add\n      swap1\n      dup2\n      mstore\n      0x20\n      add\n      0x00\n      keccak256\n      0x00\n      swap1\n      sload\n      swap1\n      0x0100\n      exp\n      swap1\n      div\n      0xffffffffffffffffffffffffffffffffffffffff\n      and\n        /* \"contracts/contractsCopy/khaledulsaleh_staking.sol\":12052:12082  DUSDinvestor[All_investors[i]] */\n      0xffffffffffffffffffffffffffffffffffffffff\n      and\n      0xffffffffffffffffffffffffffffffffffffffff\n      and\n      dup2\n      mstore\n      0x20\n      add\n      swap1\n      dup2\n      mstore\n      0x20\n      add\n      0x00\n      keccak256\n        /* \"contracts/contractsCopy/khaledulsaleh_staking.sol\":12052:12097  DUSDinvestor[All_investors[i]].noOfInvestment */\n      0x05\n      add\n      sload\n        /* \"contracts/contractsCopy/khaledulsaleh_staking.sol\":12027:12031  Temp */\n      dup3\n        /* \"contracts/contractsCopy/khaledulsaleh_staking.sol\":12032:12033  i */\n      dup3\n        /* \"contracts/contractsCopy/khaledulsaleh_staking.sol\":12027:12034  Temp[i] */\n      dup2\n      mload\n      dup2\n      lt\n      tag_222\n      jumpi\n      tag_223\n      tag_181\n      jump\t// in\n    tag_223:\n    tag_222:\n      0x20\n      mul\n      0x20\n      add\n      add\n      mload\n        /* \"contracts/contractsCopy/khaledulsaleh_staking.sol\":12027:12049  Temp[i].noOfInvestment */\n      0x60\n      add\n        /* \"contracts/contractsCopy/khaledulsaleh_staking.sol\":12027:12097  Temp[i].noOfInvestment = DUSDinvestor[All_investors[i]].noOfInvestment */\n      dup2\n      dup2\n      mstore\n      pop\n      pop\n        /* \"contracts/contractsCopy/khaledulsaleh_staking.sol\":12145:12157  DUSDinvestor */\n      0x0d\n        /* \"contracts/contractsCopy/khaledulsaleh_staking.sol\":12145:12175  DUSDinvestor[All_investors[i]] */\n      0x00\n        /* \"contracts/contractsCopy/khaledulsaleh_staking.sol\":12158:12171  All_investors */\n      0x0c\n        /* \"contracts/contractsCopy/khaledulsaleh_staking.sol\":12158:12174  All_investors[i] */\n      0x00\n        /* \"contracts/contractsCopy/khaledulsaleh_staking.sol\":12172:12173  i */\n      dup5\n        /* \"contracts/contractsCopy/khaledulsaleh_staking.sol\":12158:12174  All_investors[i] */\n      dup2\n      mstore\n      0x20\n      add\n      swap1\n      dup2\n      mstore\n      0x20\n      add\n      0x00\n      keccak256\n      0x00\n      swap1\n      sload\n      swap1\n      0x0100\n      exp\n      swap1\n      div\n      0xffffffffffffffffffffffffffffffffffffffff\n      and\n        /* \"contracts/contractsCopy/khaledulsaleh_staking.sol\":12145:12175  DUSDinvestor[All_investors[i]] */\n      0xffffffffffffffffffffffffffffffffffffffff\n      and\n      0xffffffffffffffffffffffffffffffffffffffff\n      and\n      dup2\n      mstore\n      0x20\n      add\n      swap1\n      dup2\n      mstore\n      0x20\n      add\n      0x00\n      keccak256\n        /* \"contracts/contractsCopy/khaledulsaleh_staking.sol\":12145:12196  DUSDinvestor[All_investors[i]].totalWithdraw_reward */\n      0x07\n      add\n      sload\n        /* \"contracts/contractsCopy/khaledulsaleh_staking.sol\":12114:12118  Temp */\n      dup3\n        /* \"contracts/contractsCopy/khaledulsaleh_staking.sol\":12119:12120  i */\n      dup3\n        /* \"contracts/contractsCopy/khaledulsaleh_staking.sol\":12114:12121  Temp[i] */\n      dup2\n      mload\n      dup2\n      lt\n      tag_224\n      jumpi\n      tag_225\n      tag_181\n      jump\t// in\n    tag_225:\n    tag_224:\n      0x20\n      mul\n      0x20\n      add\n      add\n      mload\n        /* \"contracts/contractsCopy/khaledulsaleh_staking.sol\":12114:12142  Temp[i].totalWithdraw_reward */\n      0x80\n      add\n        /* \"contracts/contractsCopy/khaledulsaleh_staking.sol\":12114:12196  Temp[i].totalWithdraw_reward = DUSDinvestor[All_investors[i]].totalWithdraw_reward */\n      dup2\n      dup2\n      mstore\n      pop\n      pop\n        /* \"contracts/contractsCopy/khaledulsaleh_staking.sol\":12239:12282  DUSDTotalReferrals_inside(All_investors[i]) */\n      tag_226\n        /* \"contracts/contractsCopy/khaledulsaleh_staking.sol\":12265:12278  All_investors */\n      0x0c\n        /* \"contracts/contractsCopy/khaledulsaleh_staking.sol\":12265:12281  All_investors[i] */\n      0x00\n        /* \"contracts/contractsCopy/khaledulsaleh_staking.sol\":12279:12280  i */\n      dup4\n        /* \"contracts/contractsCopy/khaledulsaleh_staking.sol\":12265:12281  All_investors[i] */\n      dup2\n      mstore\n      0x20\n      add\n      swap1\n      dup2\n      mstore\n      0x20\n      add\n      0x00\n      keccak256\n      0x00\n      swap1\n      sload\n      swap1\n      0x0100\n      exp\n      swap1\n      div\n      0xffffffffffffffffffffffffffffffffffffffff\n      and\n        /* \"contracts/contractsCopy/khaledulsaleh_staking.sol\":12239:12264  DUSDTotalReferrals_inside */\n      tag_227\n        /* \"contracts/contractsCopy/khaledulsaleh_staking.sol\":12239:12282  DUSDTotalReferrals_inside(All_investors[i]) */\n      jump\t// in\n    tag_226:\n        /* \"contracts/contractsCopy/khaledulsaleh_staking.sol\":12213:12217  Temp */\n      dup3\n        /* \"contracts/contractsCopy/khaledulsaleh_staking.sol\":12218:12219  i */\n      dup3\n        /* \"contracts/contractsCopy/khaledulsaleh_staking.sol\":12213:12220  Temp[i] */\n      dup2\n      mload\n      dup2\n      lt\n      tag_228\n      jumpi\n      tag_229\n      tag_181\n      jump\t// in\n    tag_229:\n    tag_228:\n      0x20\n      mul\n      0x20\n      add\n      add\n      mload\n        /* \"contracts/contractsCopy/khaledulsaleh_staking.sol\":12213:12236  Temp[i].Total_referrals */\n      0xa0\n      add\n        /* \"contracts/contractsCopy/khaledulsaleh_staking.sol\":12213:12282  Temp[i].Total_referrals = DUSDTotalReferrals_inside(All_investors[i]) */\n      dup2\n      dup2\n      mstore\n      pop\n      pop\n        /* \"contracts/contractsCopy/khaledulsaleh_staking.sol\":11783:11786  i++ */\n      dup1\n      dup1\n      tag_230\n      swap1\n      tag_142\n      jump\t// in\n    tag_230:\n      swap2\n      pop\n      pop\n        /* \"contracts/contractsCopy/khaledulsaleh_staking.sol\":11749:12314  for(uint i=0;i<totalDUSDInvestors;i++)... */\n      jump(tag_211)\n    tag_212:\n      pop\n        /* \"contracts/contractsCopy/khaledulsaleh_staking.sol\":12334:12338  Temp */\n      dup1\n        /* \"contracts/contractsCopy/khaledulsaleh_staking.sol\":12327:12338  return Temp */\n      swap2\n      pop\n      pop\n        /* \"contracts/contractsCopy/khaledulsaleh_staking.sol\":11584:12363  function Admin_data() view public returns(Admin_Data[] memory){... */\n      swap1\n      jump\t// out\n        /* \"contracts/contractsCopy/khaledulsaleh_staking.sol\":9962:10246  function set_values(uint min_stake,uint max_stake,uint _reward_per_day,uint _denomenator) public ... */\n    tag_73:\n        /* \"contracts/contractsCopy/khaledulsaleh_staking.sol\":10101:10110  max_stake */\n      dup3\n        /* \"contracts/contractsCopy/khaledulsaleh_staking.sol\":10082:10098  max_Stake_amount */\n      0x07\n        /* \"contracts/contractsCopy/khaledulsaleh_staking.sol\":10082:10110  max_Stake_amount = max_stake */\n      dup2\n      swap1\n      sstore\n      pop\n        /* \"contracts/contractsCopy/khaledulsaleh_staking.sol\":10143:10152  min_stake */\n      dup4\n        /* \"contracts/contractsCopy/khaledulsaleh_staking.sol\":10124:10140  min_Stake_amount */\n      0x06\n        /* \"contracts/contractsCopy/khaledulsaleh_staking.sol\":10124:10152  min_Stake_amount = min_stake */\n      dup2\n      swap1\n      sstore\n      pop\n        /* \"contracts/contractsCopy/khaledulsaleh_staking.sol\":10180:10195  _reward_per_day */\n      dup2\n        /* \"contracts/contractsCopy/khaledulsaleh_staking.sol\":10166:10177  rewardToken */\n      0x05\n        /* \"contracts/contractsCopy/khaledulsaleh_staking.sol\":10166:10195  rewardToken = _reward_per_day */\n      dup2\n      swap1\n      sstore\n      pop\n        /* \"contracts/contractsCopy/khaledulsaleh_staking.sol\":10223:10235  _denomenator */\n      dup1\n        /* \"contracts/contractsCopy/khaledulsaleh_staking.sol\":10209:10220  denomenator */\n      0x08\n        /* \"contracts/contractsCopy/khaledulsaleh_staking.sol\":10209:10235  denomenator = _denomenator */\n      dup2\n      swap1\n      sstore\n      pop\n        /* \"contracts/contractsCopy/khaledulsaleh_staking.sol\":9962:10246  function set_values(uint min_stake,uint max_stake,uint _reward_per_day,uint _denomenator) public ... */\n      pop\n      pop\n      pop\n      pop\n      jump\t// out\n        /* \"contracts/contractsCopy/khaledulsaleh_staking.sol\":9842:9953  function set_max_Stake_amount(uint _amount) public ... */\n    tag_76:\n        /* \"contracts/contractsCopy/khaledulsaleh_staking.sol\":9935:9942  _amount */\n      dup1\n        /* \"contracts/contractsCopy/khaledulsaleh_staking.sol\":9916:9932  max_Stake_amount */\n      0x07\n        /* \"contracts/contractsCopy/khaledulsaleh_staking.sol\":9916:9942  max_Stake_amount = _amount */\n      dup2\n      swap1\n      sstore\n      pop\n        /* \"contracts/contractsCopy/khaledulsaleh_staking.sol\":9842:9953  function set_max_Stake_amount(uint _amount) public ... */\n      pop\n      jump\t// out\n        /* \"contracts/contractsCopy/khaledulsaleh_staking.sol\":1089:1132  mapping(uint=>address) public All_investors */\n    tag_79:\n      mstore(0x20, 0x0c)\n      dup1\n      0x00\n      mstore\n      keccak256(0x00, 0x40)\n      0x00\n      swap2\n      pop\n      sload\n      swap1\n      0x0100\n      exp\n      swap1\n      div\n      0xffffffffffffffffffffffffffffffffffffffff\n      and\n      dup2\n      jump\t// out\n        /* \"contracts/contractsCopy/khaledulsaleh_staking.sol\":978:1015  uint public investmentPeriod=365 days */\n    tag_83:\n      sload(0x09)\n      dup2\n      jump\t// out\n        /* \"contracts/contractsCopy/khaledulsaleh_staking.sol\":12373:12556  function total_withdraw_reaward() view public returns(uint){... */\n    tag_86:\n        /* \"contracts/contractsCopy/khaledulsaleh_staking.sol\":12427:12431  uint */\n      0x00\n        /* \"contracts/contractsCopy/khaledulsaleh_staking.sol\":12448:12457  uint Temp */\n      dup1\n        /* \"contracts/contractsCopy/khaledulsaleh_staking.sol\":12460:12472  DUSDinvestor */\n      0x0d\n        /* \"contracts/contractsCopy/khaledulsaleh_staking.sol\":12460:12484  DUSDinvestor[msg.sender] */\n      0x00\n        /* \"contracts/contractsCopy/khaledulsaleh_staking.sol\":12473:12483  msg.sender */\n      caller\n        /* \"contracts/contractsCopy/khaledulsaleh_staking.sol\":12460:12484  DUSDinvestor[msg.sender] */\n      0xffffffffffffffffffffffffffffffffffffffff\n      and\n      0xffffffffffffffffffffffffffffffffffffffff\n      and\n      dup2\n      mstore\n      0x20\n      add\n      swap1\n      dup2\n      mstore\n      0x20\n      add\n      0x00\n      keccak256\n        /* \"contracts/contractsCopy/khaledulsaleh_staking.sol\":12460:12505  DUSDinvestor[msg.sender].totalWithdraw_reward */\n      0x07\n      add\n      sload\n        /* \"contracts/contractsCopy/khaledulsaleh_staking.sol\":12448:12505  uint Temp = DUSDinvestor[msg.sender].totalWithdraw_reward */\n      swap1\n      pop\n        /* \"contracts/contractsCopy/khaledulsaleh_staking.sol\":12527:12531  Temp */\n      dup1\n        /* \"contracts/contractsCopy/khaledulsaleh_staking.sol\":12520:12531  return Temp */\n      swap2\n      pop\n      pop\n        /* \"contracts/contractsCopy/khaledulsaleh_staking.sol\":12373:12556  function total_withdraw_reaward() view public returns(uint){... */\n      swap1\n      jump\t// out\n        /* \"contracts/contractsCopy/khaledulsaleh_staking.sol\":6553:7749  function unStake() external  returns (bool success){... */\n    tag_89:\n        /* \"contracts/contractsCopy/khaledulsaleh_staking.sol\":6591:6603  bool success */\n      0x00\n        /* \"contracts/contractsCopy/khaledulsaleh_staking.sol\":6667:6668  0 */\n      dup1\n        /* \"contracts/contractsCopy/khaledulsaleh_staking.sol\":6626:6638  DUSDinvestor */\n      0x0d\n        /* \"contracts/contractsCopy/khaledulsaleh_staking.sol\":6626:6650  DUSDinvestor[msg.sender] */\n      0x00\n        /* \"contracts/contractsCopy/khaledulsaleh_staking.sol\":6639:6649  msg.sender */\n      caller\n        /* \"contracts/contractsCopy/khaledulsaleh_staking.sol\":6626:6650  DUSDinvestor[msg.sender] */\n      0xffffffffffffffffffffffffffffffffffffffff\n      and\n      0xffffffffffffffffffffffffffffffffffffffff\n      and\n      dup2\n      mstore\n      0x20\n      add\n      swap1\n      dup2\n      mstore\n      0x20\n      add\n      0x00\n      keccak256\n        /* \"contracts/contractsCopy/khaledulsaleh_staking.sol\":6626:6666  DUSDinvestor[msg.sender].totalInvestment */\n      0x06\n      add\n      sload\n        /* \"contracts/contractsCopy/khaledulsaleh_staking.sol\":6626:6668  DUSDinvestor[msg.sender].totalInvestment>0 */\n      gt\n        /* \"contracts/contractsCopy/khaledulsaleh_staking.sol\":6618:6709  require(DUSDinvestor[msg.sender].totalInvestment>0,\"you dont have investment to withdrawn\") */\n      tag_235\n      jumpi\n      mload(0x40)\n      0x08c379a000000000000000000000000000000000000000000000000000000000\n      dup2\n      mstore\n      0x04\n      add\n      tag_236\n      swap1\n      tag_237\n      jump\t// in\n    tag_236:\n      mload(0x40)\n      dup1\n      swap2\n      sub\n      swap1\n      revert\n    tag_235:\n        /* \"contracts/contractsCopy/khaledulsaleh_staking.sol\":6826:6841  block.timestamp */\n      timestamp\n        /* \"contracts/contractsCopy/khaledulsaleh_staking.sol\":6789:6801  DUSDinvestor */\n      0x0d\n        /* \"contracts/contractsCopy/khaledulsaleh_staking.sol\":6789:6813  DUSDinvestor[msg.sender] */\n      0x00\n        /* \"contracts/contractsCopy/khaledulsaleh_staking.sol\":6802:6812  msg.sender */\n      caller\n        /* \"contracts/contractsCopy/khaledulsaleh_staking.sol\":6789:6813  DUSDinvestor[msg.sender] */\n      0xffffffffffffffffffffffffffffffffffffffff\n      and\n      0xffffffffffffffffffffffffffffffffffffffff\n      and\n      dup2\n      mstore\n      0x20\n      add\n      swap1\n      dup2\n      mstore\n      0x20\n      add\n      0x00\n      keccak256\n        /* \"contracts/contractsCopy/khaledulsaleh_staking.sol\":6789:6823  DUSDinvestor[msg.sender].stakeTime */\n      0x09\n      add\n      sload\n        /* \"contracts/contractsCopy/khaledulsaleh_staking.sol\":6789:6841  DUSDinvestor[msg.sender].stakeTime < block.timestamp */\n      lt\n        /* \"contracts/contractsCopy/khaledulsaleh_staking.sol\":6781:6876  require(DUSDinvestor[msg.sender].stakeTime < block.timestamp,\"you cant withdraw before 1 year\") */\n      tag_238\n      jumpi\n      mload(0x40)\n      0x08c379a000000000000000000000000000000000000000000000000000000000\n      dup2\n      mstore\n      0x04\n      add\n      tag_239\n      swap1\n      tag_240\n      jump\t// in\n    tag_239:\n      mload(0x40)\n      dup1\n      swap2\n      sub\n      swap1\n      revert\n    tag_238:\n        /* \"contracts/contractsCopy/khaledulsaleh_staking.sol\":6890:6901  uint amount */\n      0x00\n        /* \"contracts/contractsCopy/khaledulsaleh_staking.sol\":6902:6914  DUSDinvestor */\n      0x0d\n        /* \"contracts/contractsCopy/khaledulsaleh_staking.sol\":6902:6926  DUSDinvestor[msg.sender] */\n      0x00\n        /* \"contracts/contractsCopy/khaledulsaleh_staking.sol\":6915:6925  msg.sender */\n      caller\n        /* \"contracts/contractsCopy/khaledulsaleh_staking.sol\":6902:6926  DUSDinvestor[msg.sender] */\n      0xffffffffffffffffffffffffffffffffffffffff\n      and\n      0xffffffffffffffffffffffffffffffffffffffff\n      and\n      dup2\n      mstore\n      0x20\n      add\n      swap1\n      dup2\n      mstore\n      0x20\n      add\n      0x00\n      keccak256\n        /* \"contracts/contractsCopy/khaledulsaleh_staking.sol\":6902:6942  DUSDinvestor[msg.sender].totalInvestment */\n      0x06\n      add\n      sload\n        /* \"contracts/contractsCopy/khaledulsaleh_staking.sol\":6890:6942  uint amount=DUSDinvestor[msg.sender].totalInvestment */\n      swap1\n      pop\n        /* \"contracts/contractsCopy/khaledulsaleh_staking.sol\":6956:6965  uint temp */\n      0x00\n        /* \"contracts/contractsCopy/khaledulsaleh_staking.sol\":6968:6980  DUSDinvestor */\n      0x0d\n        /* \"contracts/contractsCopy/khaledulsaleh_staking.sol\":6968:6992  DUSDinvestor[msg.sender] */\n      0x00\n        /* \"contracts/contractsCopy/khaledulsaleh_staking.sol\":6981:6991  msg.sender */\n      caller\n        /* \"contracts/contractsCopy/khaledulsaleh_staking.sol\":6968:6992  DUSDinvestor[msg.sender] */\n      0xffffffffffffffffffffffffffffffffffffffff\n      and\n      0xffffffffffffffffffffffffffffffffffffffff\n      and\n      dup2\n      mstore\n      0x20\n      add\n      swap1\n      dup2\n      mstore\n      0x20\n      add\n      0x00\n      keccak256\n        /* \"contracts/contractsCopy/khaledulsaleh_staking.sol\":6968:7007  DUSDinvestor[msg.sender].noOfInvestment */\n      0x05\n      add\n      sload\n        /* \"contracts/contractsCopy/khaledulsaleh_staking.sol\":6956:7007  uint temp = DUSDinvestor[msg.sender].noOfInvestment */\n      swap1\n      pop\n        /* \"contracts/contractsCopy/khaledulsaleh_staking.sol\":7021:7030  uint from */\n      0x00\n        /* \"contracts/contractsCopy/khaledulsaleh_staking.sol\":7033:7046  rew_till_done */\n      sload(0x0b)\n        /* \"contracts/contractsCopy/khaledulsaleh_staking.sol\":7021:7046  uint from = rew_till_done */\n      swap1\n      pop\n        /* \"contracts/contractsCopy/khaledulsaleh_staking.sol\":7076:7087  SMCcontract */\n      0x01\n      0x00\n      swap1\n      sload\n      swap1\n      0x0100\n      exp\n      swap1\n      div\n      0xffffffffffffffffffffffffffffffffffffffff\n      and\n        /* \"contracts/contractsCopy/khaledulsaleh_staking.sol\":7071:7097  DUSD(SMCcontract).transfer */\n      0xffffffffffffffffffffffffffffffffffffffff\n      and\n      0xa9059cbb\n        /* \"contracts/contractsCopy/khaledulsaleh_staking.sol\":7098:7108  msg.sender */\n      caller\n        /* \"contracts/contractsCopy/khaledulsaleh_staking.sol\":7117:7122  10**8 */\n      0x05f5e100\n        /* \"contracts/contractsCopy/khaledulsaleh_staking.sol\":7109:7115  amount */\n      dup7\n        /* \"contracts/contractsCopy/khaledulsaleh_staking.sol\":7109:7122  amount* 10**8 */\n      tag_241\n      swap2\n      swap1\n      tag_151\n      jump\t// in\n    tag_241:\n        /* \"contracts/contractsCopy/khaledulsaleh_staking.sol\":7071:7123  DUSD(SMCcontract).transfer(msg.sender,amount* 10**8) */\n      mload(0x40)\n      dup4\n      0xffffffff\n      and\n      0xe0\n      shl\n      dup2\n      mstore\n      0x04\n      add\n      tag_242\n      swap3\n      swap2\n      swap1\n      tag_243\n      jump\t// in\n    tag_242:\n      0x20\n      mload(0x40)\n      dup1\n      dup4\n      sub\n      dup2\n      0x00\n      dup8\n      dup1\n      extcodesize\n      iszero\n      dup1\n      iszero\n      tag_244\n      jumpi\n      0x00\n      dup1\n      revert\n    tag_244:\n      pop\n      gas\n      call\n      iszero\n      dup1\n      iszero\n      tag_246\n      jumpi\n      returndatasize\n      0x00\n      dup1\n      returndatacopy\n      revert(0x00, returndatasize)\n    tag_246:\n      pop\n      pop\n      pop\n      pop\n      mload(0x40)\n      returndatasize\n      not(0x1f)\n      0x1f\n      dup3\n      add\n      and\n      dup3\n      add\n      dup1\n      0x40\n      mstore\n      pop\n      dup2\n      add\n      swap1\n      tag_247\n      swap2\n      swap1\n      tag_158\n      jump\t// in\n    tag_247:\n      pop\n        /* \"contracts/contractsCopy/khaledulsaleh_staking.sol\":7228:7229  0 */\n      0x00\n        /* \"contracts/contractsCopy/khaledulsaleh_staking.sol\":7223:7229  from=0 */\n      swap1\n      pop\n        /* \"contracts/contractsCopy/khaledulsaleh_staking.sol\":7218:7480  for( from=0;from < temp;from++)... */\n    tag_248:\n        /* \"contracts/contractsCopy/khaledulsaleh_staking.sol\":7237:7241  temp */\n      dup2\n        /* \"contracts/contractsCopy/khaledulsaleh_staking.sol\":7230:7234  from */\n      dup2\n        /* \"contracts/contractsCopy/khaledulsaleh_staking.sol\":7230:7241  from < temp */\n      lt\n        /* \"contracts/contractsCopy/khaledulsaleh_staking.sol\":7218:7480  for( from=0;from < temp;from++)... */\n      iszero\n      tag_249\n      jumpi\n        /* \"contracts/contractsCopy/khaledulsaleh_staking.sol\":7334:7338  true */\n      0x01\n        /* \"contracts/contractsCopy/khaledulsaleh_staking.sol\":7283:7295  DUSDinvestor */\n      0x0d\n        /* \"contracts/contractsCopy/khaledulsaleh_staking.sol\":7283:7307  DUSDinvestor[msg.sender] */\n      0x00\n        /* \"contracts/contractsCopy/khaledulsaleh_staking.sol\":7296:7306  msg.sender */\n      caller\n        /* \"contracts/contractsCopy/khaledulsaleh_staking.sol\":7283:7307  DUSDinvestor[msg.sender] */\n      0xffffffffffffffffffffffffffffffffffffffff\n      and\n      0xffffffffffffffffffffffffffffffffffffffff\n      and\n      dup2\n      mstore\n      0x20\n      add\n      swap1\n      dup2\n      mstore\n      0x20\n      add\n      0x00\n      keccak256\n        /* \"contracts/contractsCopy/khaledulsaleh_staking.sol\":7283:7318  DUSDinvestor[msg.sender].investment */\n      0x00\n      add\n        /* \"contracts/contractsCopy/khaledulsaleh_staking.sol\":7283:7324  DUSDinvestor[msg.sender].investment[from] */\n      0x00\n        /* \"contracts/contractsCopy/khaledulsaleh_staking.sol\":7319:7323  from */\n      dup4\n        /* \"contracts/contractsCopy/khaledulsaleh_staking.sol\":7283:7324  DUSDinvestor[msg.sender].investment[from] */\n      dup2\n      mstore\n      0x20\n      add\n      swap1\n      dup2\n      mstore\n      0x20\n      add\n      0x00\n      keccak256\n        /* \"contracts/contractsCopy/khaledulsaleh_staking.sol\":7283:7332  DUSDinvestor[msg.sender].investment[from].unstake */\n      0x05\n      add\n      0x00\n        /* \"contracts/contractsCopy/khaledulsaleh_staking.sol\":7283:7338  DUSDinvestor[msg.sender].investment[from].unstake =true */\n      0x0100\n      exp\n      dup2\n      sload\n      dup2\n      0xff\n      mul\n      not\n      and\n      swap1\n      dup4\n      iszero\n      iszero\n      mul\n      or\n      swap1\n      sstore\n      pop\n        /* \"contracts/contractsCopy/khaledulsaleh_staking.sol\":7415:7430  block.timestamp */\n      timestamp\n        /* \"contracts/contractsCopy/khaledulsaleh_staking.sol\":7360:7372  DUSDinvestor */\n      0x0d\n        /* \"contracts/contractsCopy/khaledulsaleh_staking.sol\":7360:7384  DUSDinvestor[msg.sender] */\n      0x00\n        /* \"contracts/contractsCopy/khaledulsaleh_staking.sol\":7373:7383  msg.sender */\n      caller\n        /* \"contracts/contractsCopy/khaledulsaleh_staking.sol\":7360:7384  DUSDinvestor[msg.sender] */\n      0xffffffffffffffffffffffffffffffffffffffff\n      and\n      0xffffffffffffffffffffffffffffffffffffffff\n      and\n      dup2\n      mstore\n      0x20\n      add\n      swap1\n      dup2\n      mstore\n      0x20\n      add\n      0x00\n      keccak256\n        /* \"contracts/contractsCopy/khaledulsaleh_staking.sol\":7360:7395  DUSDinvestor[msg.sender].investment */\n      0x00\n      add\n        /* \"contracts/contractsCopy/khaledulsaleh_staking.sol\":7360:7401  DUSDinvestor[msg.sender].investment[from] */\n      0x00\n        /* \"contracts/contractsCopy/khaledulsaleh_staking.sol\":7396:7400  from */\n      dup4\n        /* \"contracts/contractsCopy/khaledulsaleh_staking.sol\":7360:7401  DUSDinvestor[msg.sender].investment[from] */\n      dup2\n      mstore\n      0x20\n      add\n      swap1\n      dup2\n      mstore\n      0x20\n      add\n      0x00\n      keccak256\n        /* \"contracts/contractsCopy/khaledulsaleh_staking.sol\":7360:7413  DUSDinvestor[msg.sender].investment[from].unstakeTime */\n      0x04\n      add\n        /* \"contracts/contractsCopy/khaledulsaleh_staking.sol\":7360:7430  DUSDinvestor[msg.sender].investment[from].unstakeTime =block.timestamp */\n      dup2\n      swap1\n      sstore\n      pop\n        /* \"contracts/contractsCopy/khaledulsaleh_staking.sol\":7242:7248  from++ */\n      dup1\n      dup1\n      tag_251\n      swap1\n      tag_142\n      jump\t// in\n    tag_251:\n      swap2\n      pop\n      pop\n        /* \"contracts/contractsCopy/khaledulsaleh_staking.sol\":7218:7480  for( from=0;from < temp;from++)... */\n      jump(tag_248)\n    tag_249:\n        /* \"contracts/contractsCopy/khaledulsaleh_staking.sol\":7508:7520  DUSDinvestor */\n      0x0d\n        /* \"contracts/contractsCopy/khaledulsaleh_staking.sol\":7508:7532  DUSDinvestor[msg.sender] */\n      0x00\n        /* \"contracts/contractsCopy/khaledulsaleh_staking.sol\":7521:7531  msg.sender */\n      caller\n        /* \"contracts/contractsCopy/khaledulsaleh_staking.sol\":7508:7532  DUSDinvestor[msg.sender] */\n      0xffffffffffffffffffffffffffffffffffffffff\n      and\n      0xffffffffffffffffffffffffffffffffffffffff\n      and\n      dup2\n      mstore\n      0x20\n      add\n      swap1\n      dup2\n      mstore\n      0x20\n      add\n      0x00\n      keccak256\n        /* \"contracts/contractsCopy/khaledulsaleh_staking.sol\":7508:7547  DUSDinvestor[msg.sender].noOfInvestment */\n      0x05\n      add\n      sload\n        /* \"contracts/contractsCopy/khaledulsaleh_staking.sol\":7493:7506  rew_till_done */\n      0x0b\n        /* \"contracts/contractsCopy/khaledulsaleh_staking.sol\":7493:7547  rew_till_done =DUSDinvestor[msg.sender].noOfInvestment */\n      dup2\n      swap1\n      sstore\n      pop\n        /* \"contracts/contractsCopy/khaledulsaleh_staking.sol\":7641:7642  0 */\n      0x00\n        /* \"contracts/contractsCopy/khaledulsaleh_staking.sol\":7600:7612  DUSDinvestor */\n      0x0d\n        /* \"contracts/contractsCopy/khaledulsaleh_staking.sol\":7600:7624  DUSDinvestor[msg.sender] */\n      0x00\n        /* \"contracts/contractsCopy/khaledulsaleh_staking.sol\":7613:7623  msg.sender */\n      caller\n        /* \"contracts/contractsCopy/khaledulsaleh_staking.sol\":7600:7624  DUSDinvestor[msg.sender] */\n      0xffffffffffffffffffffffffffffffffffffffff\n      and\n      0xffffffffffffffffffffffffffffffffffffffff\n      and\n      dup2\n      mstore\n      0x20\n      add\n      swap1\n      dup2\n      mstore\n      0x20\n      add\n      0x00\n      keccak256\n        /* \"contracts/contractsCopy/khaledulsaleh_staking.sol\":7600:7640  DUSDinvestor[msg.sender].totalInvestment */\n      0x06\n      add\n        /* \"contracts/contractsCopy/khaledulsaleh_staking.sol\":7600:7642  DUSDinvestor[msg.sender].totalInvestment=0 */\n      dup2\n      swap1\n      sstore\n      pop\n        /* \"contracts/contractsCopy/khaledulsaleh_staking.sol\":7733:7737  true */\n      0x01\n        /* \"contracts/contractsCopy/khaledulsaleh_staking.sol\":7726:7737  return true */\n      swap4\n      pop\n      pop\n      pop\n      pop\n        /* \"contracts/contractsCopy/khaledulsaleh_staking.sol\":6553:7749  function unStake() external  returns (bool success){... */\n      swap1\n      jump\t// out\n        /* \"contracts/contractsCopy/khaledulsaleh_staking.sol\":300:321  address  public owner */\n    tag_92:\n      0x00\n      dup1\n      sload\n      swap1\n      0x0100\n      exp\n      swap1\n      div\n      0xffffffffffffffffffffffffffffffffffffffff\n      and\n      dup2\n      jump\t// out\n        /* \"contracts/contractsCopy/khaledulsaleh_staking.sol\":7759:7969  function getTotalInvestmentDUSD() public view returns(uint) {   //this function is to get the total investment of the ivestor... */\n    tag_95:\n        /* \"contracts/contractsCopy/khaledulsaleh_staking.sol\":7813:7817  uint */\n      0x00\n        /* \"contracts/contractsCopy/khaledulsaleh_staking.sol\":7917:7929  DUSDinvestor */\n      0x0d\n        /* \"contracts/contractsCopy/khaledulsaleh_staking.sol\":7917:7941  DUSDinvestor[msg.sender] */\n      0x00\n        /* \"contracts/contractsCopy/khaledulsaleh_staking.sol\":7930:7940  msg.sender */\n      caller\n        /* \"contracts/contractsCopy/khaledulsaleh_staking.sol\":7917:7941  DUSDinvestor[msg.sender] */\n      0xffffffffffffffffffffffffffffffffffffffff\n      and\n      0xffffffffffffffffffffffffffffffffffffffff\n      and\n      dup2\n      mstore\n      0x20\n      add\n      swap1\n      dup2\n      mstore\n      0x20\n      add\n      0x00\n      keccak256\n        /* \"contracts/contractsCopy/khaledulsaleh_staking.sol\":7917:7957  DUSDinvestor[msg.sender].totalInvestment */\n      0x06\n      add\n      sload\n        /* \"contracts/contractsCopy/khaledulsaleh_staking.sol\":7910:7957  return DUSDinvestor[msg.sender].totalInvestment */\n      swap1\n      pop\n        /* \"contracts/contractsCopy/khaledulsaleh_staking.sol\":7759:7969  function getTotalInvestmentDUSD() public view returns(uint) {   //this function is to get the total investment of the ivestor... */\n      swap1\n      jump\t// out\n        /* \"contracts/contractsCopy/khaledulsaleh_staking.sol\":910:940  uint public denomenator=100000 */\n    tag_98:\n      sload(0x08)\n      dup2\n      jump\t// out\n        /* \"contracts/contractsCopy/khaledulsaleh_staking.sol\":10439:11004  function referralLevel_earning() public view returns( uint[] memory arr )... */\n    tag_101:\n        /* \"contracts/contractsCopy/khaledulsaleh_staking.sol\":10493:10510  uint[] memory arr */\n      0x60\n        /* \"contracts/contractsCopy/khaledulsaleh_staking.sol\":10535:10570  uint[] memory referralLevels_reward */\n      0x00\n        /* \"contracts/contractsCopy/khaledulsaleh_staking.sol\":10582:10584  20 */\n      0x14\n        /* \"contracts/contractsCopy/khaledulsaleh_staking.sol\":10571:10585  new uint[](20) */\n      0xffffffffffffffff\n      dup2\n      gt\n      iszero\n      tag_254\n      jumpi\n      tag_255\n      tag_170\n      jump\t// in\n    tag_255:\n    tag_254:\n      mload(0x40)\n      swap1\n      dup1\n      dup3\n      mstore\n      dup1\n      0x20\n      mul\n      0x20\n      add\n      dup3\n      add\n      0x40\n      mstore\n      dup1\n      iszero\n      tag_256\n      jumpi\n      dup2\n      0x20\n      add\n      0x20\n      dup3\n      mul\n      dup1\n      calldatasize\n      dup4\n      calldatacopy\n      dup1\n      dup3\n      add\n      swap2\n      pop\n      pop\n      swap1\n      pop\n    tag_256:\n      pop\n        /* \"contracts/contractsCopy/khaledulsaleh_staking.sol\":10535:10585  uint[] memory referralLevels_reward=new uint[](20) */\n      swap1\n      pop\n        /* \"contracts/contractsCopy/khaledulsaleh_staking.sol\":10603:10609  uint i */\n      0x00\n        /* \"contracts/contractsCopy/khaledulsaleh_staking.sol\":10599:10949  for(uint i=0;i<20;i++)... */\n    tag_257:\n        /* \"contracts/contractsCopy/khaledulsaleh_staking.sol\":10614:10616  20 */\n      0x14\n        /* \"contracts/contractsCopy/khaledulsaleh_staking.sol\":10612:10613  i */\n      dup2\n        /* \"contracts/contractsCopy/khaledulsaleh_staking.sol\":10612:10616  i<20 */\n      lt\n        /* \"contracts/contractsCopy/khaledulsaleh_staking.sol\":10599:10949  for(uint i=0;i<20;i++)... */\n      iszero\n      tag_258\n      jumpi\n        /* \"contracts/contractsCopy/khaledulsaleh_staking.sol\":10704:10705  0 */\n      0x00\n        /* \"contracts/contractsCopy/khaledulsaleh_staking.sol\":10655:10667  DUSDinvestor */\n      0x0d\n        /* \"contracts/contractsCopy/khaledulsaleh_staking.sol\":10655:10679  DUSDinvestor[msg.sender] */\n      0x00\n        /* \"contracts/contractsCopy/khaledulsaleh_staking.sol\":10668:10678  msg.sender */\n      caller\n        /* \"contracts/contractsCopy/khaledulsaleh_staking.sol\":10655:10679  DUSDinvestor[msg.sender] */\n      0xffffffffffffffffffffffffffffffffffffffff\n      and\n      0xffffffffffffffffffffffffffffffffffffffff\n      and\n      dup2\n      mstore\n      0x20\n      add\n      swap1\n      dup2\n      mstore\n      0x20\n      add\n      0x00\n      keccak256\n        /* \"contracts/contractsCopy/khaledulsaleh_staking.sol\":10655:10693  DUSDinvestor[msg.sender].referralLevel */\n      0x03\n      add\n        /* \"contracts/contractsCopy/khaledulsaleh_staking.sol\":10655:10696  DUSDinvestor[msg.sender].referralLevel[i] */\n      0x00\n        /* \"contracts/contractsCopy/khaledulsaleh_staking.sol\":10694:10695  i */\n      dup4\n        /* \"contracts/contractsCopy/khaledulsaleh_staking.sol\":10655:10696  DUSDinvestor[msg.sender].referralLevel[i] */\n      dup2\n      mstore\n      0x20\n      add\n      swap1\n      dup2\n      mstore\n      0x20\n      add\n      0x00\n      keccak256\n        /* \"contracts/contractsCopy/khaledulsaleh_staking.sol\":10655:10703  DUSDinvestor[msg.sender].referralLevel[i].reward */\n      0x00\n      add\n      sload\n        /* \"contracts/contractsCopy/khaledulsaleh_staking.sol\":10655:10705  DUSDinvestor[msg.sender].referralLevel[i].reward>0 */\n      gt\n        /* \"contracts/contractsCopy/khaledulsaleh_staking.sol\":10652:10933  if(DUSDinvestor[msg.sender].referralLevel[i].reward>0)... */\n      iszero\n      tag_260\n      jumpi\n        /* \"contracts/contractsCopy/khaledulsaleh_staking.sol\":10772:10784  DUSDinvestor */\n      0x0d\n        /* \"contracts/contractsCopy/khaledulsaleh_staking.sol\":10772:10796  DUSDinvestor[msg.sender] */\n      0x00\n        /* \"contracts/contractsCopy/khaledulsaleh_staking.sol\":10785:10795  msg.sender */\n      caller\n        /* \"contracts/contractsCopy/khaledulsaleh_staking.sol\":10772:10796  DUSDinvestor[msg.sender] */\n      0xffffffffffffffffffffffffffffffffffffffff\n      and\n      0xffffffffffffffffffffffffffffffffffffffff\n      and\n      dup2\n      mstore\n      0x20\n      add\n      swap1\n      dup2\n      mstore\n      0x20\n      add\n      0x00\n      keccak256\n        /* \"contracts/contractsCopy/khaledulsaleh_staking.sol\":10772:10810  DUSDinvestor[msg.sender].referralLevel */\n      0x03\n      add\n        /* \"contracts/contractsCopy/khaledulsaleh_staking.sol\":10772:10813  DUSDinvestor[msg.sender].referralLevel[i] */\n      0x00\n        /* \"contracts/contractsCopy/khaledulsaleh_staking.sol\":10811:10812  i */\n      dup3\n        /* \"contracts/contractsCopy/khaledulsaleh_staking.sol\":10772:10813  DUSDinvestor[msg.sender].referralLevel[i] */\n      dup2\n      mstore\n      0x20\n      add\n      swap1\n      dup2\n      mstore\n      0x20\n      add\n      0x00\n      keccak256\n        /* \"contracts/contractsCopy/khaledulsaleh_staking.sol\":10772:10820  DUSDinvestor[msg.sender].referralLevel[i].reward */\n      0x00\n      add\n      sload\n        /* \"contracts/contractsCopy/khaledulsaleh_staking.sol\":10745:10766  referralLevels_reward */\n      dup3\n        /* \"contracts/contractsCopy/khaledulsaleh_staking.sol\":10767:10768  i */\n      dup3\n        /* \"contracts/contractsCopy/khaledulsaleh_staking.sol\":10745:10769  referralLevels_reward[i] */\n      dup2\n      mload\n      dup2\n      lt\n      tag_261\n      jumpi\n      tag_262\n      tag_181\n      jump\t// in\n    tag_262:\n    tag_261:\n      0x20\n      mul\n      0x20\n      add\n      add\n        /* \"contracts/contractsCopy/khaledulsaleh_staking.sol\":10745:10820  referralLevels_reward[i] = DUSDinvestor[msg.sender].referralLevel[i].reward */\n      dup2\n      dup2\n      mstore\n      pop\n      pop\n        /* \"contracts/contractsCopy/khaledulsaleh_staking.sol\":10652:10933  if(DUSDinvestor[msg.sender].referralLevel[i].reward>0)... */\n      jump(tag_263)\n    tag_260:\n        /* \"contracts/contractsCopy/khaledulsaleh_staking.sol\":10912:10913  0 */\n      0x00\n        /* \"contracts/contractsCopy/khaledulsaleh_staking.sol\":10885:10906  referralLevels_reward */\n      dup3\n        /* \"contracts/contractsCopy/khaledulsaleh_staking.sol\":10907:10908  i */\n      dup3\n        /* \"contracts/contractsCopy/khaledulsaleh_staking.sol\":10885:10909  referralLevels_reward[i] */\n      dup2\n      mload\n      dup2\n      lt\n      tag_264\n      jumpi\n      tag_265\n      tag_181\n      jump\t// in\n    tag_265:\n    tag_264:\n      0x20\n      mul\n      0x20\n      add\n      add\n        /* \"contracts/contractsCopy/khaledulsaleh_staking.sol\":10885:10913  referralLevels_reward[i] = 0 */\n      dup2\n      dup2\n      mstore\n      pop\n      pop\n        /* \"contracts/contractsCopy/khaledulsaleh_staking.sol\":10652:10933  if(DUSDinvestor[msg.sender].referralLevel[i].reward>0)... */\n    tag_263:\n        /* \"contracts/contractsCopy/khaledulsaleh_staking.sol\":10617:10620  i++ */\n      dup1\n      dup1\n      tag_266\n      swap1\n      tag_142\n      jump\t// in\n    tag_266:\n      swap2\n      pop\n      pop\n        /* \"contracts/contractsCopy/khaledulsaleh_staking.sol\":10599:10949  for(uint i=0;i<20;i++)... */\n      jump(tag_257)\n    tag_258:\n      pop\n        /* \"contracts/contractsCopy/khaledulsaleh_staking.sol\":10969:10990  referralLevels_reward */\n      dup1\n        /* \"contracts/contractsCopy/khaledulsaleh_staking.sol\":10962:10990  return referralLevels_reward */\n      swap2\n      pop\n      pop\n        /* \"contracts/contractsCopy/khaledulsaleh_staking.sol\":10439:11004  function referralLevel_earning() public view returns( uint[] memory arr )... */\n      swap1\n      jump\t// out\n        /* \"contracts/contractsCopy/khaledulsaleh_staking.sol\":765:799  uint public min_Stake_amount=10000 */\n    tag_105:\n      sload(0x06)\n      dup2\n      jump\t// out\n        /* \"contracts/contractsCopy/khaledulsaleh_staking.sol\":6045:6542  function withdrawReward() external returns (bool success){... */\n    tag_108:\n        /* \"contracts/contractsCopy/khaledulsaleh_staking.sol\":6089:6101  bool success */\n      0x00\n        /* \"contracts/contractsCopy/khaledulsaleh_staking.sol\":6116:6133  uint Total_reward */\n      dup1\n        /* \"contracts/contractsCopy/khaledulsaleh_staking.sol\":6136:6147  getReward() */\n      tag_268\n        /* \"contracts/contractsCopy/khaledulsaleh_staking.sol\":6136:6145  getReward */\n      tag_64\n        /* \"contracts/contractsCopy/khaledulsaleh_staking.sol\":6136:6147  getReward() */\n      jump\t// in\n    tag_268:\n        /* \"contracts/contractsCopy/khaledulsaleh_staking.sol\":6116:6147  uint Total_reward = getReward() */\n      swap1\n      pop\n        /* \"contracts/contractsCopy/khaledulsaleh_staking.sol\":6182:6183  0 */\n      0x00\n        /* \"contracts/contractsCopy/khaledulsaleh_staking.sol\":6169:6181  Total_reward */\n      dup2\n        /* \"contracts/contractsCopy/khaledulsaleh_staking.sol\":6169:6183  Total_reward>0 */\n      gt\n        /* \"contracts/contractsCopy/khaledulsaleh_staking.sol\":6161:6221  require(Total_reward>0,\"you dont have rewards to withdrawn\") */\n      tag_269\n      jumpi\n      mload(0x40)\n      0x08c379a000000000000000000000000000000000000000000000000000000000\n      dup2\n      mstore\n      0x04\n      add\n      tag_270\n      swap1\n      tag_271\n      jump\t// in\n    tag_270:\n      mload(0x40)\n      dup1\n      swap2\n      sub\n      swap1\n      revert\n    tag_269:\n        /* \"contracts/contractsCopy/khaledulsaleh_staking.sol\":6314:6326  BUSDcontract */\n      0x02\n      0x00\n      swap1\n      sload\n      swap1\n      0x0100\n      exp\n      swap1\n      div\n      0xffffffffffffffffffffffffffffffffffffffff\n      and\n        /* \"contracts/contractsCopy/khaledulsaleh_staking.sol\":6309:6336  DUSD(BUSDcontract).transfer */\n      0xffffffffffffffffffffffffffffffffffffffff\n      and\n      0xa9059cbb\n        /* \"contracts/contractsCopy/khaledulsaleh_staking.sol\":6337:6347  msg.sender */\n      caller\n        /* \"contracts/contractsCopy/khaledulsaleh_staking.sol\":6361:6367  10**18 */\n      0x0de0b6b3a7640000\n        /* \"contracts/contractsCopy/khaledulsaleh_staking.sol\":6348:6360  Total_reward */\n      dup5\n        /* \"contracts/contractsCopy/khaledulsaleh_staking.sol\":6348:6367  Total_reward*10**18 */\n      tag_272\n      swap2\n      swap1\n      tag_151\n      jump\t// in\n    tag_272:\n        /* \"contracts/contractsCopy/khaledulsaleh_staking.sol\":6309:6368  DUSD(BUSDcontract).transfer(msg.sender,Total_reward*10**18) */\n      mload(0x40)\n      dup4\n      0xffffffff\n      and\n      0xe0\n      shl\n      dup2\n      mstore\n      0x04\n      add\n      tag_273\n      swap3\n      swap2\n      swap1\n      tag_243\n      jump\t// in\n    tag_273:\n      0x20\n      mload(0x40)\n      dup1\n      dup4\n      sub\n      dup2\n      0x00\n      dup8\n      dup1\n      extcodesize\n      iszero\n      dup1\n      iszero\n      tag_274\n      jumpi\n      0x00\n      dup1\n      revert\n    tag_274:\n      pop\n      gas\n      call\n      iszero\n      dup1\n      iszero\n      tag_276\n      jumpi\n      returndatasize\n      0x00\n      dup1\n      returndatacopy\n      revert(0x00, returndatasize)\n    tag_276:\n      pop\n      pop\n      pop\n      pop\n      mload(0x40)\n      returndatasize\n      not(0x1f)\n      0x1f\n      dup3\n      add\n      and\n      dup3\n      add\n      dup1\n      0x40\n      mstore\n      pop\n      dup2\n      add\n      swap1\n      tag_277\n      swap2\n      swap1\n      tag_158\n      jump\t// in\n    tag_277:\n      pop\n        /* \"contracts/contractsCopy/khaledulsaleh_staking.sol\":6492:6504  Total_reward */\n      dup1\n        /* \"contracts/contractsCopy/khaledulsaleh_staking.sol\":6445:6457  DUSDinvestor */\n      0x0d\n        /* \"contracts/contractsCopy/khaledulsaleh_staking.sol\":6445:6469  DUSDinvestor[msg.sender] */\n      0x00\n        /* \"contracts/contractsCopy/khaledulsaleh_staking.sol\":6458:6468  msg.sender */\n      caller\n        /* \"contracts/contractsCopy/khaledulsaleh_staking.sol\":6445:6469  DUSDinvestor[msg.sender] */\n      0xffffffffffffffffffffffffffffffffffffffff\n      and\n      0xffffffffffffffffffffffffffffffffffffffff\n      and\n      dup2\n      mstore\n      0x20\n      add\n      swap1\n      dup2\n      mstore\n      0x20\n      add\n      0x00\n      keccak256\n        /* \"contracts/contractsCopy/khaledulsaleh_staking.sol\":6445:6490  DUSDinvestor[msg.sender].totalWithdraw_reward */\n      0x07\n      add\n      0x00\n        /* \"contracts/contractsCopy/khaledulsaleh_staking.sol\":6445:6504  DUSDinvestor[msg.sender].totalWithdraw_reward+=Total_reward */\n      dup3\n      dup3\n      sload\n      tag_278\n      swap2\n      swap1\n      tag_145\n      jump\t// in\n    tag_278:\n      swap3\n      pop\n      pop\n      dup2\n      swap1\n      sstore\n      pop\n        /* \"contracts/contractsCopy/khaledulsaleh_staking.sol\":6526:6530  true */\n      0x01\n        /* \"contracts/contractsCopy/khaledulsaleh_staking.sol\":6519:6530  return true */\n      swap2\n      pop\n      pop\n        /* \"contracts/contractsCopy/khaledulsaleh_staking.sol\":6045:6542  function withdrawReward() external returns (bool success){... */\n      swap1\n      jump\t// out\n        /* \"contracts/contractsCopy/khaledulsaleh_staking.sol\":2091:2133  mapping(address=>Data) public DUSDinvestor */\n    tag_113:\n      mstore(0x20, 0x0d)\n      dup1\n      0x00\n      mstore\n      keccak256(0x00, 0x40)\n      0x00\n      swap2\n      pop\n      swap1\n      pop\n      dup1\n      0x02\n      add\n      0x00\n      swap1\n      sload\n      swap1\n      0x0100\n      exp\n      swap1\n      div\n      0xffffffffffffffffffffffffffffffffffffffff\n      and\n      swap1\n      dup1\n      0x04\n      add\n      sload\n      swap1\n      dup1\n      0x05\n      add\n      sload\n      swap1\n      dup1\n      0x06\n      add\n      sload\n      swap1\n      dup1\n      0x07\n      add\n      sload\n      swap1\n      dup1\n      0x08\n      add\n      0x00\n      swap1\n      sload\n      swap1\n      0x0100\n      exp\n      swap1\n      div\n      0xff\n      and\n      swap1\n      dup1\n      0x09\n      add\n      sload\n      swap1\n      pop\n      dup8\n      jump\t// out\n        /* \"contracts/contractsCopy/khaledulsaleh_staking.sol\":1025:1050  uint public totalbusiness */\n    tag_117:\n      sload(0x0a)\n      dup2\n      jump\t// out\n        /* \"contracts/contractsCopy/khaledulsaleh_staking.sol\":10255:10429  function transferOwnership(address _owner)  public... */\n    tag_121:\n        /* \"contracts/contractsCopy/khaledulsaleh_staking.sol\":10348:10353  owner */\n      0x00\n      dup1\n      sload\n      swap1\n      0x0100\n      exp\n      swap1\n      div\n      0xffffffffffffffffffffffffffffffffffffffff\n      and\n        /* \"contracts/contractsCopy/khaledulsaleh_staking.sol\":10336:10353  msg.sender==owner */\n      0xffffffffffffffffffffffffffffffffffffffff\n      and\n        /* \"contracts/contractsCopy/khaledulsaleh_staking.sol\":10336:10346  msg.sender */\n      caller\n        /* \"contracts/contractsCopy/khaledulsaleh_staking.sol\":10336:10353  msg.sender==owner */\n      0xffffffffffffffffffffffffffffffffffffffff\n      and\n      eq\n        /* \"contracts/contractsCopy/khaledulsaleh_staking.sol\":10328:10390  require(msg.sender==owner,\"only Owner can call this function\") */\n      tag_280\n      jumpi\n      mload(0x40)\n      0x08c379a000000000000000000000000000000000000000000000000000000000\n      dup2\n      mstore\n      0x04\n      add\n      tag_281\n      swap1\n      tag_282\n      jump\t// in\n    tag_281:\n      mload(0x40)\n      dup1\n      swap2\n      sub\n      swap1\n      revert\n    tag_280:\n        /* \"contracts/contractsCopy/khaledulsaleh_staking.sol\":10412:10418  _owner */\n      dup1\n        /* \"contracts/contractsCopy/khaledulsaleh_staking.sol\":10404:10409  owner */\n      0x00\n      dup1\n        /* \"contracts/contractsCopy/khaledulsaleh_staking.sol\":10404:10418  owner = _owner */\n      0x0100\n      exp\n      dup2\n      sload\n      dup2\n      0xffffffffffffffffffffffffffffffffffffffff\n      mul\n      not\n      and\n      swap1\n      dup4\n      0xffffffffffffffffffffffffffffffffffffffff\n      and\n      mul\n      or\n      swap1\n      sstore\n      pop\n        /* \"contracts/contractsCopy/khaledulsaleh_staking.sol\":10255:10429  function transferOwnership(address _owner)  public... */\n      pop\n      jump\t// out\n        /* \"contracts/contractsCopy/khaledulsaleh_staking.sol\":11013:11574  function referralLevel_count() public view returns( uint[] memory arr )... */\n    tag_123:\n        /* \"contracts/contractsCopy/khaledulsaleh_staking.sol\":11065:11082  uint[] memory arr */\n      0x60\n        /* \"contracts/contractsCopy/khaledulsaleh_staking.sol\":11107:11142  uint[] memory referralLevels_reward */\n      0x00\n        /* \"contracts/contractsCopy/khaledulsaleh_staking.sol\":11154:11156  20 */\n      0x14\n        /* \"contracts/contractsCopy/khaledulsaleh_staking.sol\":11143:11157  new uint[](20) */\n      0xffffffffffffffff\n      dup2\n      gt\n      iszero\n      tag_284\n      jumpi\n      tag_285\n      tag_170\n      jump\t// in\n    tag_285:\n    tag_284:\n      mload(0x40)\n      swap1\n      dup1\n      dup3\n      mstore\n      dup1\n      0x20\n      mul\n      0x20\n      add\n      dup3\n      add\n      0x40\n      mstore\n      dup1\n      iszero\n      tag_286\n      jumpi\n      dup2\n      0x20\n      add\n      0x20\n      dup3\n      mul\n      dup1\n      calldatasize\n      dup4\n      calldatacopy\n      dup1\n      dup3\n      add\n      swap2\n      pop\n      pop\n      swap1\n      pop\n    tag_286:\n      pop\n        /* \"contracts/contractsCopy/khaledulsaleh_staking.sol\":11107:11157  uint[] memory referralLevels_reward=new uint[](20) */\n      swap1\n      pop\n        /* \"contracts/contractsCopy/khaledulsaleh_staking.sol\":11175:11181  uint i */\n      0x00\n        /* \"contracts/contractsCopy/khaledulsaleh_staking.sol\":11171:11519  for(uint i=0;i<20;i++)... */\n    tag_287:\n        /* \"contracts/contractsCopy/khaledulsaleh_staking.sol\":11186:11188  20 */\n      0x14\n        /* \"contracts/contractsCopy/khaledulsaleh_staking.sol\":11184:11185  i */\n      dup2\n        /* \"contracts/contractsCopy/khaledulsaleh_staking.sol\":11184:11188  i<20 */\n      lt\n        /* \"contracts/contractsCopy/khaledulsaleh_staking.sol\":11171:11519  for(uint i=0;i<20;i++)... */\n      iszero\n      tag_288\n      jumpi\n        /* \"contracts/contractsCopy/khaledulsaleh_staking.sol\":11276:11277  0 */\n      0x00\n        /* \"contracts/contractsCopy/khaledulsaleh_staking.sol\":11227:11239  DUSDinvestor */\n      0x0d\n        /* \"contracts/contractsCopy/khaledulsaleh_staking.sol\":11227:11251  DUSDinvestor[msg.sender] */\n      0x00\n        /* \"contracts/contractsCopy/khaledulsaleh_staking.sol\":11240:11250  msg.sender */\n      caller\n        /* \"contracts/contractsCopy/khaledulsaleh_staking.sol\":11227:11251  DUSDinvestor[msg.sender] */\n      0xffffffffffffffffffffffffffffffffffffffff\n      and\n      0xffffffffffffffffffffffffffffffffffffffff\n      and\n      dup2\n      mstore\n      0x20\n      add\n      swap1\n      dup2\n      mstore\n      0x20\n      add\n      0x00\n      keccak256\n        /* \"contracts/contractsCopy/khaledulsaleh_staking.sol\":11227:11265  DUSDinvestor[msg.sender].referralLevel */\n      0x03\n      add\n        /* \"contracts/contractsCopy/khaledulsaleh_staking.sol\":11227:11268  DUSDinvestor[msg.sender].referralLevel[i] */\n      0x00\n        /* \"contracts/contractsCopy/khaledulsaleh_staking.sol\":11266:11267  i */\n      dup4\n        /* \"contracts/contractsCopy/khaledulsaleh_staking.sol\":11227:11268  DUSDinvestor[msg.sender].referralLevel[i] */\n      dup2\n      mstore\n      0x20\n      add\n      swap1\n      dup2\n      mstore\n      0x20\n      add\n      0x00\n      keccak256\n        /* \"contracts/contractsCopy/khaledulsaleh_staking.sol\":11227:11275  DUSDinvestor[msg.sender].referralLevel[i].reward */\n      0x00\n      add\n      sload\n        /* \"contracts/contractsCopy/khaledulsaleh_staking.sol\":11227:11277  DUSDinvestor[msg.sender].referralLevel[i].reward>0 */\n      gt\n        /* \"contracts/contractsCopy/khaledulsaleh_staking.sol\":11224:11503  if(DUSDinvestor[msg.sender].referralLevel[i].reward>0)... */\n      iszero\n      tag_290\n      jumpi\n        /* \"contracts/contractsCopy/khaledulsaleh_staking.sol\":11344:11356  DUSDinvestor */\n      0x0d\n        /* \"contracts/contractsCopy/khaledulsaleh_staking.sol\":11344:11368  DUSDinvestor[msg.sender] */\n      0x00\n        /* \"contracts/contractsCopy/khaledulsaleh_staking.sol\":11357:11367  msg.sender */\n      caller\n        /* \"contracts/contractsCopy/khaledulsaleh_staking.sol\":11344:11368  DUSDinvestor[msg.sender] */\n      0xffffffffffffffffffffffffffffffffffffffff\n      and\n      0xffffffffffffffffffffffffffffffffffffffff\n      and\n      dup2\n      mstore\n      0x20\n      add\n      swap1\n      dup2\n      mstore\n      0x20\n      add\n      0x00\n      keccak256\n        /* \"contracts/contractsCopy/khaledulsaleh_staking.sol\":11344:11382  DUSDinvestor[msg.sender].referralLevel */\n      0x03\n      add\n        /* \"contracts/contractsCopy/khaledulsaleh_staking.sol\":11344:11385  DUSDinvestor[msg.sender].referralLevel[i] */\n      0x00\n        /* \"contracts/contractsCopy/khaledulsaleh_staking.sol\":11383:11384  i */\n      dup3\n        /* \"contracts/contractsCopy/khaledulsaleh_staking.sol\":11344:11385  DUSDinvestor[msg.sender].referralLevel[i] */\n      dup2\n      mstore\n      0x20\n      add\n      swap1\n      dup2\n      mstore\n      0x20\n      add\n      0x00\n      keccak256\n        /* \"contracts/contractsCopy/khaledulsaleh_staking.sol\":11344:11391  DUSDinvestor[msg.sender].referralLevel[i].count */\n      0x01\n      add\n      sload\n        /* \"contracts/contractsCopy/khaledulsaleh_staking.sol\":11317:11338  referralLevels_reward */\n      dup3\n        /* \"contracts/contractsCopy/khaledulsaleh_staking.sol\":11339:11340  i */\n      dup3\n        /* \"contracts/contractsCopy/khaledulsaleh_staking.sol\":11317:11341  referralLevels_reward[i] */\n      dup2\n      mload\n      dup2\n      lt\n      tag_291\n      jumpi\n      tag_292\n      tag_181\n      jump\t// in\n    tag_292:\n    tag_291:\n      0x20\n      mul\n      0x20\n      add\n      add\n        /* \"contracts/contractsCopy/khaledulsaleh_staking.sol\":11317:11391  referralLevels_reward[i] = DUSDinvestor[msg.sender].referralLevel[i].count */\n      dup2\n      dup2\n      mstore\n      pop\n      pop\n        /* \"contracts/contractsCopy/khaledulsaleh_staking.sol\":11224:11503  if(DUSDinvestor[msg.sender].referralLevel[i].reward>0)... */\n      jump(tag_293)\n    tag_290:\n        /* \"contracts/contractsCopy/khaledulsaleh_staking.sol\":11482:11483  0 */\n      0x00\n        /* \"contracts/contractsCopy/khaledulsaleh_staking.sol\":11455:11476  referralLevels_reward */\n      dup3\n        /* \"contracts/contractsCopy/khaledulsaleh_staking.sol\":11477:11478  i */\n      dup3\n        /* \"contracts/contractsCopy/khaledulsaleh_staking.sol\":11455:11479  referralLevels_reward[i] */\n      dup2\n      mload\n      dup2\n      lt\n      tag_294\n      jumpi\n      tag_295\n      tag_181\n      jump\t// in\n    tag_295:\n    tag_294:\n      0x20\n      mul\n      0x20\n      add\n      add\n        /* \"contracts/contractsCopy/khaledulsaleh_staking.sol\":11455:11483  referralLevels_reward[i] = 0 */\n      dup2\n      dup2\n      mstore\n      pop\n      pop\n        /* \"contracts/contractsCopy/khaledulsaleh_staking.sol\":11224:11503  if(DUSDinvestor[msg.sender].referralLevel[i].reward>0)... */\n    tag_293:\n        /* \"contracts/contractsCopy/khaledulsaleh_staking.sol\":11189:11192  i++ */\n      dup1\n      dup1\n      tag_296\n      swap1\n      tag_142\n      jump\t// in\n    tag_296:\n      swap2\n      pop\n      pop\n        /* \"contracts/contractsCopy/khaledulsaleh_staking.sol\":11171:11519  for(uint i=0;i<20;i++)... */\n      jump(tag_287)\n    tag_288:\n      pop\n        /* \"contracts/contractsCopy/khaledulsaleh_staking.sol\":11539:11560  referralLevels_reward */\n      dup1\n        /* \"contracts/contractsCopy/khaledulsaleh_staking.sol\":11532:11560  return referralLevels_reward */\n      swap2\n      pop\n      pop\n        /* \"contracts/contractsCopy/khaledulsaleh_staking.sol\":11013:11574  function referralLevel_count() public view returns( uint[] memory arr )... */\n      swap1\n      jump\t// out\n        /* \"contracts/contractsCopy/khaledulsaleh_staking.sol\":702:745  uint public rewardToken=5000000000000000000 */\n    tag_126:\n      sload(0x05)\n      dup2\n      jump\t// out\n        /* \"contracts/contractsCopy/khaledulsaleh_staking.sol\":836:872  uint public max_Stake_amount=5000000 */\n    tag_129:\n      sload(0x07)\n      dup2\n      jump\t// out\n        /* \"contracts/contractsCopy/khaledulsaleh_staking.sol\":4904:6032  function get_investor_Reward(address investor) view internal returns(uint){ //this function is get the total reward balance of the investor... */\n    tag_219:\n        /* \"contracts/contractsCopy/khaledulsaleh_staking.sol\":4973:4977  uint */\n      0x00\n        /* \"contracts/contractsCopy/khaledulsaleh_staking.sol\":5056:5072  uint totalReward */\n      dup1\n        /* \"contracts/contractsCopy/khaledulsaleh_staking.sol\":5086:5098  uint depTime */\n      0x00\n        /* \"contracts/contractsCopy/khaledulsaleh_staking.sol\":5112:5120  uint rew */\n      dup1\n        /* \"contracts/contractsCopy/khaledulsaleh_staking.sol\":5134:5143  uint temp */\n      0x00\n        /* \"contracts/contractsCopy/khaledulsaleh_staking.sol\":5146:5158  DUSDinvestor */\n      0x0d\n        /* \"contracts/contractsCopy/khaledulsaleh_staking.sol\":5146:5168  DUSDinvestor[investor] */\n      0x00\n        /* \"contracts/contractsCopy/khaledulsaleh_staking.sol\":5159:5167  investor */\n      dup8\n        /* \"contracts/contractsCopy/khaledulsaleh_staking.sol\":5146:5168  DUSDinvestor[investor] */\n      0xffffffffffffffffffffffffffffffffffffffff\n      and\n      0xffffffffffffffffffffffffffffffffffffffff\n      and\n      dup2\n      mstore\n      0x20\n      add\n      swap1\n      dup2\n      mstore\n      0x20\n      add\n      0x00\n      keccak256\n        /* \"contracts/contractsCopy/khaledulsaleh_staking.sol\":5146:5183  DUSDinvestor[investor].noOfInvestment */\n      0x05\n      add\n      sload\n        /* \"contracts/contractsCopy/khaledulsaleh_staking.sol\":5134:5183  uint temp = DUSDinvestor[investor].noOfInvestment */\n      swap1\n      pop\n        /* \"contracts/contractsCopy/khaledulsaleh_staking.sol\":5202:5208  uint i */\n      0x00\n        /* \"contracts/contractsCopy/khaledulsaleh_staking.sol\":5197:5917  for( uint i = 0;i < temp;i++)... */\n    tag_298:\n        /* \"contracts/contractsCopy/khaledulsaleh_staking.sol\":5217:5221  temp */\n      dup2\n        /* \"contracts/contractsCopy/khaledulsaleh_staking.sol\":5213:5214  i */\n      dup2\n        /* \"contracts/contractsCopy/khaledulsaleh_staking.sol\":5213:5221  i < temp */\n      lt\n        /* \"contracts/contractsCopy/khaledulsaleh_staking.sol\":5197:5917  for( uint i = 0;i < temp;i++)... */\n      iszero\n      tag_299\n      jumpi\n        /* \"contracts/contractsCopy/khaledulsaleh_staking.sol\":5264:5276  DUSDinvestor */\n      0x0d\n        /* \"contracts/contractsCopy/khaledulsaleh_staking.sol\":5264:5286  DUSDinvestor[investor] */\n      0x00\n        /* \"contracts/contractsCopy/khaledulsaleh_staking.sol\":5277:5285  investor */\n      dup9\n        /* \"contracts/contractsCopy/khaledulsaleh_staking.sol\":5264:5286  DUSDinvestor[investor] */\n      0xffffffffffffffffffffffffffffffffffffffff\n      and\n      0xffffffffffffffffffffffffffffffffffffffff\n      and\n      dup2\n      mstore\n      0x20\n      add\n      swap1\n      dup2\n      mstore\n      0x20\n      add\n      0x00\n      keccak256\n        /* \"contracts/contractsCopy/khaledulsaleh_staking.sol\":5264:5297  DUSDinvestor[investor].investment */\n      0x00\n      add\n        /* \"contracts/contractsCopy/khaledulsaleh_staking.sol\":5264:5300  DUSDinvestor[investor].investment[i] */\n      0x00\n        /* \"contracts/contractsCopy/khaledulsaleh_staking.sol\":5298:5299  i */\n      dup3\n        /* \"contracts/contractsCopy/khaledulsaleh_staking.sol\":5264:5300  DUSDinvestor[investor].investment[i] */\n      dup2\n      mstore\n      0x20\n      add\n      swap1\n      dup2\n      mstore\n      0x20\n      add\n      0x00\n      keccak256\n        /* \"contracts/contractsCopy/khaledulsaleh_staking.sol\":5264:5308  DUSDinvestor[investor].investment[i].unstake */\n      0x05\n      add\n      0x00\n      swap1\n      sload\n      swap1\n      0x0100\n      exp\n      swap1\n      div\n      0xff\n      and\n        /* \"contracts/contractsCopy/khaledulsaleh_staking.sol\":5260:5612  if(!DUSDinvestor[investor].investment[i].unstake)... */\n      tag_301\n      jumpi\n        /* \"contracts/contractsCopy/khaledulsaleh_staking.sol\":5375:5387  DUSDinvestor */\n      0x0d\n        /* \"contracts/contractsCopy/khaledulsaleh_staking.sol\":5375:5397  DUSDinvestor[investor] */\n      0x00\n        /* \"contracts/contractsCopy/khaledulsaleh_staking.sol\":5388:5396  investor */\n      dup9\n        /* \"contracts/contractsCopy/khaledulsaleh_staking.sol\":5375:5397  DUSDinvestor[investor] */\n      0xffffffffffffffffffffffffffffffffffffffff\n      and\n      0xffffffffffffffffffffffffffffffffffffffff\n      and\n      dup2\n      mstore\n      0x20\n      add\n      swap1\n      dup2\n      mstore\n      0x20\n      add\n      0x00\n      keccak256\n        /* \"contracts/contractsCopy/khaledulsaleh_staking.sol\":5375:5408  DUSDinvestor[investor].investment */\n      0x00\n      add\n        /* \"contracts/contractsCopy/khaledulsaleh_staking.sol\":5375:5411  DUSDinvestor[investor].investment[i] */\n      0x00\n        /* \"contracts/contractsCopy/khaledulsaleh_staking.sol\":5409:5410  i */\n      dup3\n        /* \"contracts/contractsCopy/khaledulsaleh_staking.sol\":5375:5411  DUSDinvestor[investor].investment[i] */\n      dup2\n      mstore\n      0x20\n      add\n      swap1\n      dup2\n      mstore\n      0x20\n      add\n      0x00\n      keccak256\n        /* \"contracts/contractsCopy/khaledulsaleh_staking.sol\":5375:5423  DUSDinvestor[investor].investment[i].DepositTime */\n      0x02\n      add\n      sload\n        /* \"contracts/contractsCopy/khaledulsaleh_staking.sol\":5357:5372  block.timestamp */\n      timestamp\n        /* \"contracts/contractsCopy/khaledulsaleh_staking.sol\":5357:5423  block.timestamp - DUSDinvestor[investor].investment[i].DepositTime */\n      tag_302\n      swap2\n      swap1\n      tag_190\n      jump\t// in\n    tag_302:\n        /* \"contracts/contractsCopy/khaledulsaleh_staking.sol\":5348:5423  depTime =block.timestamp - DUSDinvestor[investor].investment[i].DepositTime */\n      swap4\n      pop\n        /* \"contracts/contractsCopy/khaledulsaleh_staking.sol\":5260:5612  if(!DUSDinvestor[investor].investment[i].unstake)... */\n      jump(tag_303)\n    tag_301:\n        /* \"contracts/contractsCopy/khaledulsaleh_staking.sol\":5545:5557  DUSDinvestor */\n      0x0d\n        /* \"contracts/contractsCopy/khaledulsaleh_staking.sol\":5545:5567  DUSDinvestor[investor] */\n      0x00\n        /* \"contracts/contractsCopy/khaledulsaleh_staking.sol\":5558:5566  investor */\n      dup9\n        /* \"contracts/contractsCopy/khaledulsaleh_staking.sol\":5545:5567  DUSDinvestor[investor] */\n      0xffffffffffffffffffffffffffffffffffffffff\n      and\n      0xffffffffffffffffffffffffffffffffffffffff\n      and\n      dup2\n      mstore\n      0x20\n      add\n      swap1\n      dup2\n      mstore\n      0x20\n      add\n      0x00\n      keccak256\n        /* \"contracts/contractsCopy/khaledulsaleh_staking.sol\":5545:5578  DUSDinvestor[investor].investment */\n      0x00\n      add\n        /* \"contracts/contractsCopy/khaledulsaleh_staking.sol\":5545:5581  DUSDinvestor[investor].investment[i] */\n      0x00\n        /* \"contracts/contractsCopy/khaledulsaleh_staking.sol\":5579:5580  i */\n      dup3\n        /* \"contracts/contractsCopy/khaledulsaleh_staking.sol\":5545:5581  DUSDinvestor[investor].investment[i] */\n      dup2\n      mstore\n      0x20\n      add\n      swap1\n      dup2\n      mstore\n      0x20\n      add\n      0x00\n      keccak256\n        /* \"contracts/contractsCopy/khaledulsaleh_staking.sol\":5545:5593  DUSDinvestor[investor].investment[i].DepositTime */\n      0x02\n      add\n      sload\n        /* \"contracts/contractsCopy/khaledulsaleh_staking.sol\":5494:5506  DUSDinvestor */\n      0x0d\n        /* \"contracts/contractsCopy/khaledulsaleh_staking.sol\":5494:5516  DUSDinvestor[investor] */\n      0x00\n        /* \"contracts/contractsCopy/khaledulsaleh_staking.sol\":5507:5515  investor */\n      dup10\n        /* \"contracts/contractsCopy/khaledulsaleh_staking.sol\":5494:5516  DUSDinvestor[investor] */\n      0xffffffffffffffffffffffffffffffffffffffff\n      and\n      0xffffffffffffffffffffffffffffffffffffffff\n      and\n      dup2\n      mstore\n      0x20\n      add\n      swap1\n      dup2\n      mstore\n      0x20\n      add\n      0x00\n      keccak256\n        /* \"contracts/contractsCopy/khaledulsaleh_staking.sol\":5494:5527  DUSDinvestor[investor].investment */\n      0x00\n      add\n        /* \"contracts/contractsCopy/khaledulsaleh_staking.sol\":5494:5530  DUSDinvestor[investor].investment[i] */\n      0x00\n        /* \"contracts/contractsCopy/khaledulsaleh_staking.sol\":5528:5529  i */\n      dup4\n        /* \"contracts/contractsCopy/khaledulsaleh_staking.sol\":5494:5530  DUSDinvestor[investor].investment[i] */\n      dup2\n      mstore\n      0x20\n      add\n      swap1\n      dup2\n      mstore\n      0x20\n      add\n      0x00\n      keccak256\n        /* \"contracts/contractsCopy/khaledulsaleh_staking.sol\":5494:5542  DUSDinvestor[investor].investment[i].unstakeTime */\n      0x04\n      add\n      sload\n        /* \"contracts/contractsCopy/khaledulsaleh_staking.sol\":5494:5593  DUSDinvestor[investor].investment[i].unstakeTime - DUSDinvestor[investor].investment[i].DepositTime */\n      tag_304\n      swap2\n      swap1\n      tag_190\n      jump\t// in\n    tag_304:\n        /* \"contracts/contractsCopy/khaledulsaleh_staking.sol\":5485:5593  depTime =DUSDinvestor[investor].investment[i].unstakeTime - DUSDinvestor[investor].investment[i].DepositTime */\n      swap4\n      pop\n        /* \"contracts/contractsCopy/khaledulsaleh_staking.sol\":5260:5612  if(!DUSDinvestor[investor].investment[i].unstake)... */\n    tag_303:\n        /* \"contracts/contractsCopy/khaledulsaleh_staking.sol\":5645:5647  60 */\n      0x3c\n        /* \"contracts/contractsCopy/khaledulsaleh_staking.sol\":5637:5644  depTime */\n      dup5\n        /* \"contracts/contractsCopy/khaledulsaleh_staking.sol\":5637:5647  depTime/60 */\n      tag_305\n      swap2\n      swap1\n      tag_194\n      jump\t// in\n    tag_305:\n        /* \"contracts/contractsCopy/khaledulsaleh_staking.sol\":5629:5647  depTime=depTime/60 */\n      swap4\n      pop\n        /* \"contracts/contractsCopy/khaledulsaleh_staking.sol\":5684:5685  0 */\n      0x00\n        /* \"contracts/contractsCopy/khaledulsaleh_staking.sol\":5676:5683  depTime */\n      dup5\n        /* \"contracts/contractsCopy/khaledulsaleh_staking.sol\":5676:5685  depTime>0 */\n      gt\n        /* \"contracts/contractsCopy/khaledulsaleh_staking.sol\":5673:5903  if(depTime>0)... */\n      iszero\n      tag_306\n      jumpi\n        /* \"contracts/contractsCopy/khaledulsaleh_staking.sol\":5830:5833  100 */\n      0x64\n        /* \"contracts/contractsCopy/khaledulsaleh_staking.sol\":5814:5827  totalbusiness */\n      sload(0x0a)\n        /* \"contracts/contractsCopy/khaledulsaleh_staking.sol\":5807:5810  100 */\n      0x64\n        /* \"contracts/contractsCopy/khaledulsaleh_staking.sol\":5753:5765  DUSDinvestor */\n      0x0d\n        /* \"contracts/contractsCopy/khaledulsaleh_staking.sol\":5753:5775  DUSDinvestor[investor] */\n      0x00\n        /* \"contracts/contractsCopy/khaledulsaleh_staking.sol\":5766:5774  investor */\n      dup12\n        /* \"contracts/contractsCopy/khaledulsaleh_staking.sol\":5753:5775  DUSDinvestor[investor] */\n      0xffffffffffffffffffffffffffffffffffffffff\n      and\n      0xffffffffffffffffffffffffffffffffffffffff\n      and\n      dup2\n      mstore\n      0x20\n      add\n      swap1\n      dup2\n      mstore\n      0x20\n      add\n      0x00\n      keccak256\n        /* \"contracts/contractsCopy/khaledulsaleh_staking.sol\":5753:5786  DUSDinvestor[investor].investment */\n      0x00\n      add\n        /* \"contracts/contractsCopy/khaledulsaleh_staking.sol\":5753:5789  DUSDinvestor[investor].investment[i] */\n      0x00\n        /* \"contracts/contractsCopy/khaledulsaleh_staking.sol\":5787:5788  i */\n      dup6\n        /* \"contracts/contractsCopy/khaledulsaleh_staking.sol\":5753:5789  DUSDinvestor[investor].investment[i] */\n      dup2\n      mstore\n      0x20\n      add\n      swap1\n      dup2\n      mstore\n      0x20\n      add\n      0x00\n      keccak256\n        /* \"contracts/contractsCopy/khaledulsaleh_staking.sol\":5753:5804  DUSDinvestor[investor].investment[i].investedAmount */\n      0x00\n      add\n      sload\n        /* \"contracts/contractsCopy/khaledulsaleh_staking.sol\":5753:5810  DUSDinvestor[investor].investment[i].investedAmount * 100 */\n      tag_307\n      swap2\n      swap1\n      tag_151\n      jump\t// in\n    tag_307:\n        /* \"contracts/contractsCopy/khaledulsaleh_staking.sol\":5752:5827  (DUSDinvestor[investor].investment[i].investedAmount * 100 )/ totalbusiness */\n      tag_308\n      swap2\n      swap1\n      tag_194\n      jump\t// in\n    tag_308:\n        /* \"contracts/contractsCopy/khaledulsaleh_staking.sol\":5734:5748  reward_per_day */\n      sload(0x03)\n        /* \"contracts/contractsCopy/khaledulsaleh_staking.sol\":5734:5828  reward_per_day * ((DUSDinvestor[investor].investment[i].investedAmount * 100 )/ totalbusiness) */\n      tag_309\n      swap2\n      swap1\n      tag_151\n      jump\t// in\n    tag_309:\n        /* \"contracts/contractsCopy/khaledulsaleh_staking.sol\":5733:5833  (reward_per_day * ((DUSDinvestor[investor].investment[i].investedAmount * 100 )/ totalbusiness))/100 */\n      tag_310\n      swap2\n      swap1\n      tag_194\n      jump\t// in\n    tag_310:\n        /* \"contracts/contractsCopy/khaledulsaleh_staking.sol\":5726:5833  rew  = (reward_per_day * ((DUSDinvestor[investor].investment[i].investedAmount * 100 )/ totalbusiness))/100 */\n      swap3\n      pop\n        /* \"contracts/contractsCopy/khaledulsaleh_staking.sol\":5881:5884  rew */\n      dup3\n        /* \"contracts/contractsCopy/khaledulsaleh_staking.sol\":5871:5878  depTime */\n      dup5\n        /* \"contracts/contractsCopy/khaledulsaleh_staking.sol\":5871:5884  depTime * rew */\n      tag_311\n      swap2\n      swap1\n      tag_151\n      jump\t// in\n    tag_311:\n        /* \"contracts/contractsCopy/khaledulsaleh_staking.sol\":5856:5884  totalReward += depTime * rew */\n      dup6\n      tag_312\n      swap2\n      swap1\n      tag_145\n      jump\t// in\n    tag_312:\n      swap5\n      pop\n        /* \"contracts/contractsCopy/khaledulsaleh_staking.sol\":5673:5903  if(depTime>0)... */\n    tag_306:\n        /* \"contracts/contractsCopy/khaledulsaleh_staking.sol\":5222:5225  i++ */\n      dup1\n      dup1\n      tag_313\n      swap1\n      tag_142\n      jump\t// in\n    tag_313:\n      swap2\n      pop\n      pop\n        /* \"contracts/contractsCopy/khaledulsaleh_staking.sol\":5197:5917  for( uint i = 0;i < temp;i++)... */\n      jump(tag_298)\n    tag_299:\n      pop\n        /* \"contracts/contractsCopy/khaledulsaleh_staking.sol\":5945:5957  DUSDinvestor */\n      0x0d\n        /* \"contracts/contractsCopy/khaledulsaleh_staking.sol\":5945:5967  DUSDinvestor[investor] */\n      0x00\n        /* \"contracts/contractsCopy/khaledulsaleh_staking.sol\":5958:5966  investor */\n      dup8\n        /* \"contracts/contractsCopy/khaledulsaleh_staking.sol\":5945:5967  DUSDinvestor[investor] */\n      0xffffffffffffffffffffffffffffffffffffffff\n      and\n      0xffffffffffffffffffffffffffffffffffffffff\n      and\n      dup2\n      mstore\n      0x20\n      add\n      swap1\n      dup2\n      mstore\n      0x20\n      add\n      0x00\n      keccak256\n        /* \"contracts/contractsCopy/khaledulsaleh_staking.sol\":5945:5988  DUSDinvestor[investor].totalWithdraw_reward */\n      0x07\n      add\n      sload\n        /* \"contracts/contractsCopy/khaledulsaleh_staking.sol\":5930:5988  totalReward -= DUSDinvestor[investor].totalWithdraw_reward */\n      dup5\n      tag_314\n      swap2\n      swap1\n      tag_190\n      jump\t// in\n    tag_314:\n      swap4\n      pop\n        /* \"contracts/contractsCopy/khaledulsaleh_staking.sol\":6010:6021  totalReward */\n      dup4\n        /* \"contracts/contractsCopy/khaledulsaleh_staking.sol\":6003:6021  return totalReward */\n      swap5\n      pop\n      pop\n      pop\n      pop\n      pop\n        /* \"contracts/contractsCopy/khaledulsaleh_staking.sol\":4904:6032  function get_investor_Reward(address investor) view internal returns(uint){ //this function is get the total reward balance of the investor... */\n      swap2\n      swap1\n      pop\n      jump\t// out\n        /* \"contracts/contractsCopy/khaledulsaleh_staking.sol\":9174:9388  function DUSDTotalReferrals_inside(address investor) internal view returns(uint){ // this function is to get the total number of referrals ... */\n    tag_227:\n        /* \"contracts/contractsCopy/khaledulsaleh_staking.sol\":9249:9253  uint */\n      0x00\n        /* \"contracts/contractsCopy/khaledulsaleh_staking.sol\":9334:9346  DUSDinvestor */\n      0x0d\n        /* \"contracts/contractsCopy/khaledulsaleh_staking.sol\":9334:9356  DUSDinvestor[investor] */\n      0x00\n        /* \"contracts/contractsCopy/khaledulsaleh_staking.sol\":9347:9355  investor */\n      dup4\n        /* \"contracts/contractsCopy/khaledulsaleh_staking.sol\":9334:9356  DUSDinvestor[investor] */\n      0xffffffffffffffffffffffffffffffffffffffff\n      and\n      0xffffffffffffffffffffffffffffffffffffffff\n      and\n      dup2\n      mstore\n      0x20\n      add\n      swap1\n      dup2\n      mstore\n      0x20\n      add\n      0x00\n      keccak256\n        /* \"contracts/contractsCopy/khaledulsaleh_staking.sol\":9334:9369  DUSDinvestor[investor].hisReferrals */\n      0x01\n      add\n        /* \"contracts/contractsCopy/khaledulsaleh_staking.sol\":9333:9377  (DUSDinvestor[investor].hisReferrals).length */\n      dup1\n      sload\n      swap1\n      pop\n        /* \"contracts/contractsCopy/khaledulsaleh_staking.sol\":9326:9377  return (DUSDinvestor[investor].hisReferrals).length */\n      swap1\n      pop\n        /* \"contracts/contractsCopy/khaledulsaleh_staking.sol\":9174:9388  function DUSDTotalReferrals_inside(address investor) internal view returns(uint){ // this function is to get the total number of referrals ... */\n      swap2\n      swap1\n      pop\n      jump\t// out\n    tag_174:\n      mload(0x40)\n      dup1\n      0xc0\n      add\n      0x40\n      mstore\n      dup1\n      0x00\n      dup2\n      mstore\n      0x20\n      add\n      0x00\n      dup2\n      mstore\n      0x20\n      add\n      0x00\n      dup2\n      mstore\n      0x20\n      add\n      0x00\n      dup2\n      mstore\n      0x20\n      add\n      0x00\n      dup2\n      mstore\n      0x20\n      add\n      iszero(iszero(0x00))\n      dup2\n      mstore\n      pop\n      swap1\n      jump\t// out\n    tag_210:\n      mload(0x40)\n      dup1\n      0xc0\n      add\n      0x40\n      mstore\n      dup1\n      and(0xffffffffffffffffffffffffffffffffffffffff, 0x00)\n      dup2\n      mstore\n      0x20\n      add\n      0x00\n      dup2\n      mstore\n      0x20\n      add\n      0x00\n      dup2\n      mstore\n      0x20\n      add\n      0x00\n      dup2\n      mstore\n      0x20\n      add\n      0x00\n      dup2\n      mstore\n      0x20\n      add\n      0x00\n      dup2\n      mstore\n      pop\n      swap1\n      jump\t// out\n        /* \"#utility.yul\":7:146   */\n    tag_317:\n        /* \"#utility.yul\":53:58   */\n      0x00\n        /* \"#utility.yul\":91:97   */\n      dup2\n        /* \"#utility.yul\":78:98   */\n      calldataload\n        /* \"#utility.yul\":69:98   */\n      swap1\n      pop\n        /* \"#utility.yul\":107:140   */\n      tag_319\n        /* \"#utility.yul\":134:139   */\n      dup2\n        /* \"#utility.yul\":107:140   */\n      tag_320\n      jump\t// in\n    tag_319:\n        /* \"#utility.yul\":7:146   */\n      swap3\n      swap2\n      pop\n      pop\n      jump\t// out\n        /* \"#utility.yul\":152:289   */\n    tag_321:\n        /* \"#utility.yul\":206:211   */\n      0x00\n        /* \"#utility.yul\":237:243   */\n      dup2\n        /* \"#utility.yul\":231:244   */\n      mload\n        /* \"#utility.yul\":222:244   */\n      swap1\n      pop\n        /* \"#utility.yul\":253:283   */\n      tag_323\n        /* \"#utility.yul\":277:282   */\n      dup2\n        /* \"#utility.yul\":253:283   */\n      tag_324\n      jump\t// in\n    tag_323:\n        /* \"#utility.yul\":152:289   */\n      swap3\n      swap2\n      pop\n      pop\n      jump\t// out\n        /* \"#utility.yul\":295:434   */\n    tag_325:\n        /* \"#utility.yul\":341:346   */\n      0x00\n        /* \"#utility.yul\":379:385   */\n      dup2\n        /* \"#utility.yul\":366:386   */\n      calldataload\n        /* \"#utility.yul\":357:386   */\n      swap1\n      pop\n        /* \"#utility.yul\":395:428   */\n      tag_327\n        /* \"#utility.yul\":422:427   */\n      dup2\n        /* \"#utility.yul\":395:428   */\n      tag_328\n      jump\t// in\n    tag_327:\n        /* \"#utility.yul\":295:434   */\n      swap3\n      swap2\n      pop\n      pop\n      jump\t// out\n        /* \"#utility.yul\":440:769   */\n    tag_112:\n        /* \"#utility.yul\":499:505   */\n      0x00\n        /* \"#utility.yul\":548:550   */\n      0x20\n        /* \"#utility.yul\":536:545   */\n      dup3\n        /* \"#utility.yul\":527:534   */\n      dup5\n        /* \"#utility.yul\":523:546   */\n      sub\n        /* \"#utility.yul\":519:551   */\n      slt\n        /* \"#utility.yul\":516:635   */\n      iszero\n      tag_330\n      jumpi\n        /* \"#utility.yul\":554:633   */\n      tag_331\n      tag_332\n      jump\t// in\n    tag_331:\n        /* \"#utility.yul\":516:635   */\n    tag_330:\n        /* \"#utility.yul\":674:675   */\n      0x00\n        /* \"#utility.yul\":699:752   */\n      tag_333\n        /* \"#utility.yul\":744:751   */\n      dup5\n        /* \"#utility.yul\":735:741   */\n      dup3\n        /* \"#utility.yul\":724:733   */\n      dup6\n        /* \"#utility.yul\":720:742   */\n      add\n        /* \"#utility.yul\":699:752   */\n      tag_317\n      jump\t// in\n    tag_333:\n        /* \"#utility.yul\":689:752   */\n      swap2\n      pop\n        /* \"#utility.yul\":645:762   */\n      pop\n        /* \"#utility.yul\":440:769   */\n      swap3\n      swap2\n      pop\n      pop\n      jump\t// out\n        /* \"#utility.yul\":775:1120   */\n    tag_158:\n        /* \"#utility.yul\":842:848   */\n      0x00\n        /* \"#utility.yul\":891:893   */\n      0x20\n        /* \"#utility.yul\":879:888   */\n      dup3\n        /* \"#utility.yul\":870:877   */\n      dup5\n        /* \"#utility.yul\":866:889   */\n      sub\n        /* \"#utility.yul\":862:894   */\n      slt\n        /* \"#utility.yul\":859:978   */\n      iszero\n      tag_335\n      jumpi\n        /* \"#utility.yul\":897:976   */\n      tag_336\n      tag_332\n      jump\t// in\n    tag_336:\n        /* \"#utility.yul\":859:978   */\n    tag_335:\n        /* \"#utility.yul\":1017:1018   */\n      0x00\n        /* \"#utility.yul\":1042:1103   */\n      tag_337\n        /* \"#utility.yul\":1095:1102   */\n      dup5\n        /* \"#utility.yul\":1086:1092   */\n      dup3\n        /* \"#utility.yul\":1075:1084   */\n      dup6\n        /* \"#utility.yul\":1071:1093   */\n      add\n        /* \"#utility.yul\":1042:1103   */\n      tag_321\n      jump\t// in\n    tag_337:\n        /* \"#utility.yul\":1032:1103   */\n      swap2\n      pop\n        /* \"#utility.yul\":988:1113   */\n      pop\n        /* \"#utility.yul\":775:1120   */\n      swap3\n      swap2\n      pop\n      pop\n      jump\t// out\n        /* \"#utility.yul\":1126:1455   */\n    tag_49:\n        /* \"#utility.yul\":1185:1191   */\n      0x00\n        /* \"#utility.yul\":1234:1236   */\n      0x20\n        /* \"#utility.yul\":1222:1231   */\n      dup3\n        /* \"#utility.yul\":1213:1220   */\n      dup5\n        /* \"#utility.yul\":1209:1232   */\n      sub\n        /* \"#utility.yul\":1205:1237   */\n      slt\n        /* \"#utility.yul\":1202:1321   */\n      iszero\n      tag_339\n      jumpi\n        /* \"#utility.yul\":1240:1319   */\n      tag_340\n      tag_332\n      jump\t// in\n    tag_340:\n        /* \"#utility.yul\":1202:1321   */\n    tag_339:\n        /* \"#utility.yul\":1360:1361   */\n      0x00\n        /* \"#utility.yul\":1385:1438   */\n      tag_341\n        /* \"#utility.yul\":1430:1437   */\n      dup5\n        /* \"#utility.yul\":1421:1427   */\n      dup3\n        /* \"#utility.yul\":1410:1419   */\n      dup6\n        /* \"#utility.yul\":1406:1428   */\n      add\n        /* \"#utility.yul\":1385:1438   */\n      tag_325\n      jump\t// in\n    tag_341:\n        /* \"#utility.yul\":1375:1438   */\n      swap2\n      pop\n        /* \"#utility.yul\":1331:1448   */\n      pop\n        /* \"#utility.yul\":1126:1455   */\n      swap3\n      swap2\n      pop\n      pop\n      jump\t// out\n        /* \"#utility.yul\":1461:2226   */\n    tag_72:\n        /* \"#utility.yul\":1547:1553   */\n      0x00\n        /* \"#utility.yul\":1555:1561   */\n      dup1\n        /* \"#utility.yul\":1563:1569   */\n      0x00\n        /* \"#utility.yul\":1571:1577   */\n      dup1\n        /* \"#utility.yul\":1620:1623   */\n      0x80\n        /* \"#utility.yul\":1608:1617   */\n      dup6\n        /* \"#utility.yul\":1599:1606   */\n      dup8\n        /* \"#utility.yul\":1595:1618   */\n      sub\n        /* \"#utility.yul\":1591:1624   */\n      slt\n        /* \"#utility.yul\":1588:1708   */\n      iszero\n      tag_343\n      jumpi\n        /* \"#utility.yul\":1627:1706   */\n      tag_344\n      tag_332\n      jump\t// in\n    tag_344:\n        /* \"#utility.yul\":1588:1708   */\n    tag_343:\n        /* \"#utility.yul\":1747:1748   */\n      0x00\n        /* \"#utility.yul\":1772:1825   */\n      tag_345\n        /* \"#utility.yul\":1817:1824   */\n      dup8\n        /* \"#utility.yul\":1808:1814   */\n      dup3\n        /* \"#utility.yul\":1797:1806   */\n      dup9\n        /* \"#utility.yul\":1793:1815   */\n      add\n        /* \"#utility.yul\":1772:1825   */\n      tag_325\n      jump\t// in\n    tag_345:\n        /* \"#utility.yul\":1762:1825   */\n      swap5\n      pop\n        /* \"#utility.yul\":1718:1835   */\n      pop\n        /* \"#utility.yul\":1874:1876   */\n      0x20\n        /* \"#utility.yul\":1900:1953   */\n      tag_346\n        /* \"#utility.yul\":1945:1952   */\n      dup8\n        /* \"#utility.yul\":1936:1942   */\n      dup3\n        /* \"#utility.yul\":1925:1934   */\n      dup9\n        /* \"#utility.yul\":1921:1943   */\n      add\n        /* \"#utility.yul\":1900:1953   */\n      tag_325\n      jump\t// in\n    tag_346:\n        /* \"#utility.yul\":1890:1953   */\n      swap4\n      pop\n        /* \"#utility.yul\":1845:1963   */\n      pop\n        /* \"#utility.yul\":2002:2004   */\n      0x40\n        /* \"#utility.yul\":2028:2081   */\n      tag_347\n        /* \"#utility.yul\":2073:2080   */\n      dup8\n        /* \"#utility.yul\":2064:2070   */\n      dup3\n        /* \"#utility.yul\":2053:2062   */\n      dup9\n        /* \"#utility.yul\":2049:2071   */\n      add\n        /* \"#utility.yul\":2028:2081   */\n      tag_325\n      jump\t// in\n    tag_347:\n        /* \"#utility.yul\":2018:2081   */\n      swap3\n      pop\n        /* \"#utility.yul\":1973:2091   */\n      pop\n        /* \"#utility.yul\":2130:2132   */\n      0x60\n        /* \"#utility.yul\":2156:2209   */\n      tag_348\n        /* \"#utility.yul\":2201:2208   */\n      dup8\n        /* \"#utility.yul\":2192:2198   */\n      dup3\n        /* \"#utility.yul\":2181:2190   */\n      dup9\n        /* \"#utility.yul\":2177:2199   */\n      add\n        /* \"#utility.yul\":2156:2209   */\n      tag_325\n      jump\t// in\n    tag_348:\n        /* \"#utility.yul\":2146:2209   */\n      swap2\n      pop\n        /* \"#utility.yul\":2101:2219   */\n      pop\n        /* \"#utility.yul\":1461:2226   */\n      swap3\n      swap6\n      swap2\n      swap5\n      pop\n      swap3\n      pop\n      jump\t// out\n        /* \"#utility.yul\":2232:2411   */\n    tag_349:\n        /* \"#utility.yul\":2301:2311   */\n      0x00\n        /* \"#utility.yul\":2322:2368   */\n      tag_351\n        /* \"#utility.yul\":2364:2367   */\n      dup4\n        /* \"#utility.yul\":2356:2362   */\n      dup4\n        /* \"#utility.yul\":2322:2368   */\n      tag_352\n      jump\t// in\n    tag_351:\n        /* \"#utility.yul\":2400:2404   */\n      0x20\n        /* \"#utility.yul\":2395:2398   */\n      dup4\n        /* \"#utility.yul\":2391:2405   */\n      add\n        /* \"#utility.yul\":2377:2405   */\n      swap1\n      pop\n        /* \"#utility.yul\":2232:2411   */\n      swap3\n      swap2\n      pop\n      pop\n      jump\t// out\n        /* \"#utility.yul\":2417:2700   */\n    tag_353:\n        /* \"#utility.yul\":2538:2548   */\n      0x00\n        /* \"#utility.yul\":2559:2657   */\n      tag_355\n        /* \"#utility.yul\":2653:2656   */\n      dup4\n        /* \"#utility.yul\":2645:2651   */\n      dup4\n        /* \"#utility.yul\":2559:2657   */\n      tag_356\n      jump\t// in\n    tag_355:\n        /* \"#utility.yul\":2689:2693   */\n      0xc0\n        /* \"#utility.yul\":2684:2687   */\n      dup4\n        /* \"#utility.yul\":2680:2694   */\n      add\n        /* \"#utility.yul\":2666:2694   */\n      swap1\n      pop\n        /* \"#utility.yul\":2417:2700   */\n      swap3\n      swap2\n      pop\n      pop\n      jump\t// out\n        /* \"#utility.yul\":2706:3005   */\n    tag_357:\n        /* \"#utility.yul\":2835:2845   */\n      0x00\n        /* \"#utility.yul\":2856:2962   */\n      tag_359\n        /* \"#utility.yul\":2958:2961   */\n      dup4\n        /* \"#utility.yul\":2950:2956   */\n      dup4\n        /* \"#utility.yul\":2856:2962   */\n      tag_360\n      jump\t// in\n    tag_359:\n        /* \"#utility.yul\":2994:2998   */\n      0xc0\n        /* \"#utility.yul\":2989:2992   */\n      dup4\n        /* \"#utility.yul\":2985:2999   */\n      add\n        /* \"#utility.yul\":2971:2999   */\n      swap1\n      pop\n        /* \"#utility.yul\":2706:3005   */\n      swap3\n      swap2\n      pop\n      pop\n      jump\t// out\n        /* \"#utility.yul\":3011:3190   */\n    tag_361:\n        /* \"#utility.yul\":3080:3090   */\n      0x00\n        /* \"#utility.yul\":3101:3147   */\n      tag_363\n        /* \"#utility.yul\":3143:3146   */\n      dup4\n        /* \"#utility.yul\":3135:3141   */\n      dup4\n        /* \"#utility.yul\":3101:3147   */\n      tag_364\n      jump\t// in\n    tag_363:\n        /* \"#utility.yul\":3179:3183   */\n      0x20\n        /* \"#utility.yul\":3174:3177   */\n      dup4\n        /* \"#utility.yul\":3170:3184   */\n      add\n        /* \"#utility.yul\":3156:3184   */\n      swap1\n      pop\n        /* \"#utility.yul\":3011:3190   */\n      swap3\n      swap2\n      pop\n      pop\n      jump\t// out\n        /* \"#utility.yul\":3196:3304   */\n    tag_352:\n        /* \"#utility.yul\":3273:3297   */\n      tag_366\n        /* \"#utility.yul\":3291:3296   */\n      dup2\n        /* \"#utility.yul\":3273:3297   */\n      tag_367\n      jump\t// in\n    tag_366:\n        /* \"#utility.yul\":3268:3271   */\n      dup3\n        /* \"#utility.yul\":3261:3298   */\n      mstore\n        /* \"#utility.yul\":3196:3304   */\n      pop\n      pop\n      jump\t// out\n        /* \"#utility.yul\":3310:3428   */\n    tag_368:\n        /* \"#utility.yul\":3397:3421   */\n      tag_370\n        /* \"#utility.yul\":3415:3420   */\n      dup2\n        /* \"#utility.yul\":3397:3421   */\n      tag_367\n      jump\t// in\n    tag_370:\n        /* \"#utility.yul\":3392:3395   */\n      dup3\n        /* \"#utility.yul\":3385:3422   */\n      mstore\n        /* \"#utility.yul\":3310:3428   */\n      pop\n      pop\n      jump\t// out\n        /* \"#utility.yul\":3464:4196   */\n    tag_371:\n        /* \"#utility.yul\":3583:3586   */\n      0x00\n        /* \"#utility.yul\":3612:3666   */\n      tag_373\n        /* \"#utility.yul\":3660:3665   */\n      dup3\n        /* \"#utility.yul\":3612:3666   */\n      tag_374\n      jump\t// in\n    tag_373:\n        /* \"#utility.yul\":3682:3768   */\n      tag_375\n        /* \"#utility.yul\":3761:3767   */\n      dup2\n        /* \"#utility.yul\":3756:3759   */\n      dup6\n        /* \"#utility.yul\":3682:3768   */\n      tag_376\n      jump\t// in\n    tag_375:\n        /* \"#utility.yul\":3675:3768   */\n      swap4\n      pop\n        /* \"#utility.yul\":3792:3848   */\n      tag_377\n        /* \"#utility.yul\":3842:3847   */\n      dup4\n        /* \"#utility.yul\":3792:3848   */\n      tag_378\n      jump\t// in\n    tag_377:\n        /* \"#utility.yul\":3871:3878   */\n      dup1\n        /* \"#utility.yul\":3902:3903   */\n      0x00\n        /* \"#utility.yul\":3887:4171   */\n    tag_379:\n        /* \"#utility.yul\":3912:3918   */\n      dup4\n        /* \"#utility.yul\":3909:3910   */\n      dup2\n        /* \"#utility.yul\":3906:3919   */\n      lt\n        /* \"#utility.yul\":3887:4171   */\n      iszero\n      tag_381\n      jumpi\n        /* \"#utility.yul\":3988:3994   */\n      dup2\n        /* \"#utility.yul\":3982:3995   */\n      mload\n        /* \"#utility.yul\":4015:4078   */\n      tag_382\n        /* \"#utility.yul\":4074:4077   */\n      dup9\n        /* \"#utility.yul\":4059:4072   */\n      dup3\n        /* \"#utility.yul\":4015:4078   */\n      tag_349\n      jump\t// in\n    tag_382:\n        /* \"#utility.yul\":4008:4078   */\n      swap8\n      pop\n        /* \"#utility.yul\":4101:4161   */\n      tag_383\n        /* \"#utility.yul\":4154:4160   */\n      dup4\n        /* \"#utility.yul\":4101:4161   */\n      tag_384\n      jump\t// in\n    tag_383:\n        /* \"#utility.yul\":4091:4161   */\n      swap3\n      pop\n        /* \"#utility.yul\":3947:4171   */\n      pop\n        /* \"#utility.yul\":3934:3935   */\n      0x01\n        /* \"#utility.yul\":3931:3932   */\n      dup2\n        /* \"#utility.yul\":3927:3936   */\n      add\n        /* \"#utility.yul\":3922:3936   */\n      swap1\n      pop\n        /* \"#utility.yul\":3887:4171   */\n      jump(tag_379)\n    tag_381:\n        /* \"#utility.yul\":3891:3905   */\n      pop\n        /* \"#utility.yul\":4187:4190   */\n      dup6\n        /* \"#utility.yul\":4180:4190   */\n      swap4\n      pop\n        /* \"#utility.yul\":3588:4196   */\n      pop\n      pop\n      pop\n        /* \"#utility.yul\":3464:4196   */\n      swap3\n      swap2\n      pop\n      pop\n      jump\t// out\n        /* \"#utility.yul\":4266:5206   */\n    tag_385:\n        /* \"#utility.yul\":4437:4440   */\n      0x00\n        /* \"#utility.yul\":4466:4546   */\n      tag_387\n        /* \"#utility.yul\":4540:4545   */\n      dup3\n        /* \"#utility.yul\":4466:4546   */\n      tag_388\n      jump\t// in\n    tag_387:\n        /* \"#utility.yul\":4562:4674   */\n      tag_389\n        /* \"#utility.yul\":4667:4673   */\n      dup2\n        /* \"#utility.yul\":4662:4665   */\n      dup6\n        /* \"#utility.yul\":4562:4674   */\n      tag_390\n      jump\t// in\n    tag_389:\n        /* \"#utility.yul\":4555:4674   */\n      swap4\n      pop\n        /* \"#utility.yul\":4698:4780   */\n      tag_391\n        /* \"#utility.yul\":4774:4779   */\n      dup4\n        /* \"#utility.yul\":4698:4780   */\n      tag_392\n      jump\t// in\n    tag_391:\n        /* \"#utility.yul\":4803:4810   */\n      dup1\n        /* \"#utility.yul\":4834:4835   */\n      0x00\n        /* \"#utility.yul\":4819:5181   */\n    tag_393:\n        /* \"#utility.yul\":4844:4850   */\n      dup4\n        /* \"#utility.yul\":4841:4842   */\n      dup2\n        /* \"#utility.yul\":4838:4851   */\n      lt\n        /* \"#utility.yul\":4819:5181   */\n      iszero\n      tag_395\n      jumpi\n        /* \"#utility.yul\":4920:4926   */\n      dup2\n        /* \"#utility.yul\":4914:4927   */\n      mload\n        /* \"#utility.yul\":4947:5062   */\n      tag_396\n        /* \"#utility.yul\":5058:5061   */\n      dup9\n        /* \"#utility.yul\":5043:5056   */\n      dup3\n        /* \"#utility.yul\":4947:5062   */\n      tag_353\n      jump\t// in\n    tag_396:\n        /* \"#utility.yul\":4940:5062   */\n      swap8\n      pop\n        /* \"#utility.yul\":5085:5171   */\n      tag_397\n        /* \"#utility.yul\":5164:5170   */\n      dup4\n        /* \"#utility.yul\":5085:5171   */\n      tag_398\n      jump\t// in\n    tag_397:\n        /* \"#utility.yul\":5075:5171   */\n      swap3\n      pop\n        /* \"#utility.yul\":4879:5181   */\n      pop\n        /* \"#utility.yul\":4866:4867   */\n      0x01\n        /* \"#utility.yul\":4863:4864   */\n      dup2\n        /* \"#utility.yul\":4859:4868   */\n      add\n        /* \"#utility.yul\":4854:4868   */\n      swap1\n      pop\n        /* \"#utility.yul\":4819:5181   */\n      jump(tag_393)\n    tag_395:\n        /* \"#utility.yul\":4823:4837   */\n      pop\n        /* \"#utility.yul\":5197:5200   */\n      dup6\n        /* \"#utility.yul\":5190:5200   */\n      swap4\n      pop\n        /* \"#utility.yul\":4442:5206   */\n      pop\n      pop\n      pop\n        /* \"#utility.yul\":4266:5206   */\n      swap3\n      swap2\n      pop\n      pop\n      jump\t// out\n        /* \"#utility.yul\":5284:6256   */\n    tag_399:\n        /* \"#utility.yul\":5463:5466   */\n      0x00\n        /* \"#utility.yul\":5492:5576   */\n      tag_401\n        /* \"#utility.yul\":5570:5575   */\n      dup3\n        /* \"#utility.yul\":5492:5576   */\n      tag_402\n      jump\t// in\n    tag_401:\n        /* \"#utility.yul\":5592:5708   */\n      tag_403\n        /* \"#utility.yul\":5701:5707   */\n      dup2\n        /* \"#utility.yul\":5696:5699   */\n      dup6\n        /* \"#utility.yul\":5592:5708   */\n      tag_404\n      jump\t// in\n    tag_403:\n        /* \"#utility.yul\":5585:5708   */\n      swap4\n      pop\n        /* \"#utility.yul\":5732:5818   */\n      tag_405\n        /* \"#utility.yul\":5812:5817   */\n      dup4\n        /* \"#utility.yul\":5732:5818   */\n      tag_406\n      jump\t// in\n    tag_405:\n        /* \"#utility.yul\":5841:5848   */\n      dup1\n        /* \"#utility.yul\":5872:5873   */\n      0x00\n        /* \"#utility.yul\":5857:6231   */\n    tag_407:\n        /* \"#utility.yul\":5882:5888   */\n      dup4\n        /* \"#utility.yul\":5879:5880   */\n      dup2\n        /* \"#utility.yul\":5876:5889   */\n      lt\n        /* \"#utility.yul\":5857:6231   */\n      iszero\n      tag_409\n      jumpi\n        /* \"#utility.yul\":5958:5964   */\n      dup2\n        /* \"#utility.yul\":5952:5965   */\n      mload\n        /* \"#utility.yul\":5985:6108   */\n      tag_410\n        /* \"#utility.yul\":6104:6107   */\n      dup9\n        /* \"#utility.yul\":6089:6102   */\n      dup3\n        /* \"#utility.yul\":5985:6108   */\n      tag_357\n      jump\t// in\n    tag_410:\n        /* \"#utility.yul\":5978:6108   */\n      swap8\n      pop\n        /* \"#utility.yul\":6131:6221   */\n      tag_411\n        /* \"#utility.yul\":6214:6220   */\n      dup4\n        /* \"#utility.yul\":6131:6221   */\n      tag_412\n      jump\t// in\n    tag_411:\n        /* \"#utility.yul\":6121:6221   */\n      swap3\n      pop\n        /* \"#utility.yul\":5917:6231   */\n      pop\n        /* \"#utility.yul\":5904:5905   */\n      0x01\n        /* \"#utility.yul\":5901:5902   */\n      dup2\n        /* \"#utility.yul\":5897:5906   */\n      add\n        /* \"#utility.yul\":5892:5906   */\n      swap1\n      pop\n        /* \"#utility.yul\":5857:6231   */\n      jump(tag_407)\n    tag_409:\n        /* \"#utility.yul\":5861:5875   */\n      pop\n        /* \"#utility.yul\":6247:6250   */\n      dup6\n        /* \"#utility.yul\":6240:6250   */\n      swap4\n      pop\n        /* \"#utility.yul\":5468:6256   */\n      pop\n      pop\n      pop\n        /* \"#utility.yul\":5284:6256   */\n      swap3\n      swap2\n      pop\n      pop\n      jump\t// out\n        /* \"#utility.yul\":6292:7024   */\n    tag_413:\n        /* \"#utility.yul\":6411:6414   */\n      0x00\n        /* \"#utility.yul\":6440:6494   */\n      tag_415\n        /* \"#utility.yul\":6488:6493   */\n      dup3\n        /* \"#utility.yul\":6440:6494   */\n      tag_416\n      jump\t// in\n    tag_415:\n        /* \"#utility.yul\":6510:6596   */\n      tag_417\n        /* \"#utility.yul\":6589:6595   */\n      dup2\n        /* \"#utility.yul\":6584:6587   */\n      dup6\n        /* \"#utility.yul\":6510:6596   */\n      tag_418\n      jump\t// in\n    tag_417:\n        /* \"#utility.yul\":6503:6596   */\n      swap4\n      pop\n        /* \"#utility.yul\":6620:6676   */\n      tag_419\n        /* \"#utility.yul\":6670:6675   */\n      dup4\n        /* \"#utility.yul\":6620:6676   */\n      tag_420\n      jump\t// in\n    tag_419:\n        /* \"#utility.yul\":6699:6706   */\n      dup1\n        /* \"#utility.yul\":6730:6731   */\n      0x00\n        /* \"#utility.yul\":6715:6999   */\n    tag_421:\n        /* \"#utility.yul\":6740:6746   */\n      dup4\n        /* \"#utility.yul\":6737:6738   */\n      dup2\n        /* \"#utility.yul\":6734:6747   */\n      lt\n        /* \"#utility.yul\":6715:6999   */\n      iszero\n      tag_423\n      jumpi\n        /* \"#utility.yul\":6816:6822   */\n      dup2\n        /* \"#utility.yul\":6810:6823   */\n      mload\n        /* \"#utility.yul\":6843:6906   */\n      tag_424\n        /* \"#utility.yul\":6902:6905   */\n      dup9\n        /* \"#utility.yul\":6887:6900   */\n      dup3\n        /* \"#utility.yul\":6843:6906   */\n      tag_361\n      jump\t// in\n    tag_424:\n        /* \"#utility.yul\":6836:6906   */\n      swap8\n      pop\n        /* \"#utility.yul\":6929:6989   */\n      tag_425\n        /* \"#utility.yul\":6982:6988   */\n      dup4\n        /* \"#utility.yul\":6929:6989   */\n      tag_426\n      jump\t// in\n    tag_425:\n        /* \"#utility.yul\":6919:6989   */\n      swap3\n      pop\n        /* \"#utility.yul\":6775:6999   */\n      pop\n        /* \"#utility.yul\":6762:6763   */\n      0x01\n        /* \"#utility.yul\":6759:6760   */\n      dup2\n        /* \"#utility.yul\":6755:6764   */\n      add\n        /* \"#utility.yul\":6750:6764   */\n      swap1\n      pop\n        /* \"#utility.yul\":6715:6999   */\n      jump(tag_421)\n    tag_423:\n        /* \"#utility.yul\":6719:6733   */\n      pop\n        /* \"#utility.yul\":7015:7018   */\n      dup6\n        /* \"#utility.yul\":7008:7018   */\n      swap4\n      pop\n        /* \"#utility.yul\":6416:7024   */\n      pop\n      pop\n      pop\n        /* \"#utility.yul\":6292:7024   */\n      swap3\n      swap2\n      pop\n      pop\n      jump\t// out\n        /* \"#utility.yul\":7030:7129   */\n    tag_427:\n        /* \"#utility.yul\":7101:7122   */\n      tag_429\n        /* \"#utility.yul\":7116:7121   */\n      dup2\n        /* \"#utility.yul\":7101:7122   */\n      tag_430\n      jump\t// in\n    tag_429:\n        /* \"#utility.yul\":7096:7099   */\n      dup3\n        /* \"#utility.yul\":7089:7123   */\n      mstore\n        /* \"#utility.yul\":7030:7129   */\n      pop\n      pop\n      jump\t// out\n        /* \"#utility.yul\":7135:7244   */\n    tag_431:\n        /* \"#utility.yul\":7216:7237   */\n      tag_433\n        /* \"#utility.yul\":7231:7236   */\n      dup2\n        /* \"#utility.yul\":7216:7237   */\n      tag_430\n      jump\t// in\n    tag_433:\n        /* \"#utility.yul\":7211:7214   */\n      dup3\n        /* \"#utility.yul\":7204:7238   */\n      mstore\n        /* \"#utility.yul\":7135:7244   */\n      pop\n      pop\n      jump\t// out\n        /* \"#utility.yul\":7250:7616   */\n    tag_434:\n        /* \"#utility.yul\":7392:7395   */\n      0x00\n        /* \"#utility.yul\":7413:7480   */\n      tag_436\n        /* \"#utility.yul\":7477:7479   */\n      0x25\n        /* \"#utility.yul\":7472:7475   */\n      dup4\n        /* \"#utility.yul\":7413:7480   */\n      tag_437\n      jump\t// in\n    tag_436:\n        /* \"#utility.yul\":7406:7480   */\n      swap2\n      pop\n        /* \"#utility.yul\":7489:7582   */\n      tag_438\n        /* \"#utility.yul\":7578:7581   */\n      dup3\n        /* \"#utility.yul\":7489:7582   */\n      tag_439\n      jump\t// in\n    tag_438:\n        /* \"#utility.yul\":7607:7609   */\n      0x40\n        /* \"#utility.yul\":7602:7605   */\n      dup3\n        /* \"#utility.yul\":7598:7610   */\n      add\n        /* \"#utility.yul\":7591:7610   */\n      swap1\n      pop\n        /* \"#utility.yul\":7250:7616   */\n      swap2\n      swap1\n      pop\n      jump\t// out\n        /* \"#utility.yul\":7622:7988   */\n    tag_440:\n        /* \"#utility.yul\":7764:7767   */\n      0x00\n        /* \"#utility.yul\":7785:7852   */\n      tag_442\n        /* \"#utility.yul\":7849:7851   */\n      0x35\n        /* \"#utility.yul\":7844:7847   */\n      dup4\n        /* \"#utility.yul\":7785:7852   */\n      tag_437\n      jump\t// in\n    tag_442:\n        /* \"#utility.yul\":7778:7852   */\n      swap2\n      pop\n        /* \"#utility.yul\":7861:7954   */\n      tag_443\n        /* \"#utility.yul\":7950:7953   */\n      dup3\n        /* \"#utility.yul\":7861:7954   */\n      tag_444\n      jump\t// in\n    tag_443:\n        /* \"#utility.yul\":7979:7981   */\n      0x40\n        /* \"#utility.yul\":7974:7977   */\n      dup3\n        /* \"#utility.yul\":7970:7982   */\n      add\n        /* \"#utility.yul\":7963:7982   */\n      swap1\n      pop\n        /* \"#utility.yul\":7622:7988   */\n      swap2\n      swap1\n      pop\n      jump\t// out\n        /* \"#utility.yul\":7994:8360   */\n    tag_445:\n        /* \"#utility.yul\":8136:8139   */\n      0x00\n        /* \"#utility.yul\":8157:8224   */\n      tag_447\n        /* \"#utility.yul\":8221:8223   */\n      0x22\n        /* \"#utility.yul\":8216:8219   */\n      dup4\n        /* \"#utility.yul\":8157:8224   */\n      tag_437\n      jump\t// in\n    tag_447:\n        /* \"#utility.yul\":8150:8224   */\n      swap2\n      pop\n        /* \"#utility.yul\":8233:8326   */\n      tag_448\n        /* \"#utility.yul\":8322:8325   */\n      dup3\n        /* \"#utility.yul\":8233:8326   */\n      tag_449\n      jump\t// in\n    tag_448:\n        /* \"#utility.yul\":8351:8353   */\n      0x40\n        /* \"#utility.yul\":8346:8349   */\n      dup3\n        /* \"#utility.yul\":8342:8354   */\n      add\n        /* \"#utility.yul\":8335:8354   */\n      swap1\n      pop\n        /* \"#utility.yul\":7994:8360   */\n      swap2\n      swap1\n      pop\n      jump\t// out\n        /* \"#utility.yul\":8366:8732   */\n    tag_450:\n        /* \"#utility.yul\":8508:8511   */\n      0x00\n        /* \"#utility.yul\":8529:8596   */\n      tag_452\n        /* \"#utility.yul\":8593:8595   */\n      0x1f\n        /* \"#utility.yul\":8588:8591   */\n      dup4\n        /* \"#utility.yul\":8529:8596   */\n      tag_437\n      jump\t// in\n    tag_452:\n        /* \"#utility.yul\":8522:8596   */\n      swap2\n      pop\n        /* \"#utility.yul\":8605:8698   */\n      tag_453\n        /* \"#utility.yul\":8694:8697   */\n      dup3\n        /* \"#utility.yul\":8605:8698   */\n      tag_454\n      jump\t// in\n    tag_453:\n        /* \"#utility.yul\":8723:8725   */\n      0x20\n        /* \"#utility.yul\":8718:8721   */\n      dup3\n        /* \"#utility.yul\":8714:8726   */\n      add\n        /* \"#utility.yul\":8707:8726   */\n      swap1\n      pop\n        /* \"#utility.yul\":8366:8732   */\n      swap2\n      swap1\n      pop\n      jump\t// out\n        /* \"#utility.yul\":8738:9104   */\n    tag_455:\n        /* \"#utility.yul\":8880:8883   */\n      0x00\n        /* \"#utility.yul\":8901:8968   */\n      tag_457\n        /* \"#utility.yul\":8965:8967   */\n      0x21\n        /* \"#utility.yul\":8960:8963   */\n      dup4\n        /* \"#utility.yul\":8901:8968   */\n      tag_437\n      jump\t// in\n    tag_457:\n        /* \"#utility.yul\":8894:8968   */\n      swap2\n      pop\n        /* \"#utility.yul\":8977:9070   */\n      tag_458\n        /* \"#utility.yul\":9066:9069   */\n      dup3\n        /* \"#utility.yul\":8977:9070   */\n      tag_459\n      jump\t// in\n    tag_458:\n        /* \"#utility.yul\":9095:9097   */\n      0x40\n        /* \"#utility.yul\":9090:9093   */\n      dup3\n        /* \"#utility.yul\":9086:9098   */\n      add\n        /* \"#utility.yul\":9079:9098   */\n      swap1\n      pop\n        /* \"#utility.yul\":8738:9104   */\n      swap2\n      swap1\n      pop\n      jump\t// out\n        /* \"#utility.yul\":9170:10419   */\n    tag_356:\n        /* \"#utility.yul\":9309:9313   */\n      0xc0\n        /* \"#utility.yul\":9304:9307   */\n      dup3\n        /* \"#utility.yul\":9300:9314   */\n      add\n        /* \"#utility.yul\":9400:9404   */\n      0x00\n        /* \"#utility.yul\":9393:9398   */\n      dup3\n        /* \"#utility.yul\":9389:9405   */\n      add\n        /* \"#utility.yul\":9383:9406   */\n      mload\n        /* \"#utility.yul\":9419:9482   */\n      tag_461\n        /* \"#utility.yul\":9476:9480   */\n      0x00\n        /* \"#utility.yul\":9471:9474   */\n      dup6\n        /* \"#utility.yul\":9467:9481   */\n      add\n        /* \"#utility.yul\":9453:9465   */\n      dup3\n        /* \"#utility.yul\":9419:9482   */\n      tag_352\n      jump\t// in\n    tag_461:\n        /* \"#utility.yul\":9324:9492   */\n      pop\n        /* \"#utility.yul\":9585:9589   */\n      0x20\n        /* \"#utility.yul\":9578:9583   */\n      dup3\n        /* \"#utility.yul\":9574:9590   */\n      add\n        /* \"#utility.yul\":9568:9591   */\n      mload\n        /* \"#utility.yul\":9604:9667   */\n      tag_462\n        /* \"#utility.yul\":9661:9665   */\n      0x20\n        /* \"#utility.yul\":9656:9659   */\n      dup6\n        /* \"#utility.yul\":9652:9666   */\n      add\n        /* \"#utility.yul\":9638:9650   */\n      dup3\n        /* \"#utility.yul\":9604:9667   */\n      tag_364\n      jump\t// in\n    tag_462:\n        /* \"#utility.yul\":9502:9677   */\n      pop\n        /* \"#utility.yul\":9761:9765   */\n      0x40\n        /* \"#utility.yul\":9754:9759   */\n      dup3\n        /* \"#utility.yul\":9750:9766   */\n      add\n        /* \"#utility.yul\":9744:9767   */\n      mload\n        /* \"#utility.yul\":9780:9843   */\n      tag_463\n        /* \"#utility.yul\":9837:9841   */\n      0x40\n        /* \"#utility.yul\":9832:9835   */\n      dup6\n        /* \"#utility.yul\":9828:9842   */\n      add\n        /* \"#utility.yul\":9814:9826   */\n      dup3\n        /* \"#utility.yul\":9780:9843   */\n      tag_364\n      jump\t// in\n    tag_463:\n        /* \"#utility.yul\":9687:9853   */\n      pop\n        /* \"#utility.yul\":9945:9949   */\n      0x60\n        /* \"#utility.yul\":9938:9943   */\n      dup3\n        /* \"#utility.yul\":9934:9950   */\n      add\n        /* \"#utility.yul\":9928:9951   */\n      mload\n        /* \"#utility.yul\":9964:10027   */\n      tag_464\n        /* \"#utility.yul\":10021:10025   */\n      0x60\n        /* \"#utility.yul\":10016:10019   */\n      dup6\n        /* \"#utility.yul\":10012:10026   */\n      add\n        /* \"#utility.yul\":9998:10010   */\n      dup3\n        /* \"#utility.yul\":9964:10027   */\n      tag_364\n      jump\t// in\n    tag_464:\n        /* \"#utility.yul\":9863:10037   */\n      pop\n        /* \"#utility.yul\":10135:10139   */\n      0x80\n        /* \"#utility.yul\":10128:10133   */\n      dup3\n        /* \"#utility.yul\":10124:10140   */\n      add\n        /* \"#utility.yul\":10118:10141   */\n      mload\n        /* \"#utility.yul\":10154:10217   */\n      tag_465\n        /* \"#utility.yul\":10211:10215   */\n      0x80\n        /* \"#utility.yul\":10206:10209   */\n      dup6\n        /* \"#utility.yul\":10202:10216   */\n      add\n        /* \"#utility.yul\":10188:10200   */\n      dup3\n        /* \"#utility.yul\":10154:10217   */\n      tag_364\n      jump\t// in\n    tag_465:\n        /* \"#utility.yul\":10047:10227   */\n      pop\n        /* \"#utility.yul\":10320:10324   */\n      0xa0\n        /* \"#utility.yul\":10313:10318   */\n      dup3\n        /* \"#utility.yul\":10309:10325   */\n      add\n        /* \"#utility.yul\":10303:10326   */\n      mload\n        /* \"#utility.yul\":10339:10402   */\n      tag_466\n        /* \"#utility.yul\":10396:10400   */\n      0xa0\n        /* \"#utility.yul\":10391:10394   */\n      dup6\n        /* \"#utility.yul\":10387:10401   */\n      add\n        /* \"#utility.yul\":10373:10385   */\n      dup3\n        /* \"#utility.yul\":10339:10402   */\n      tag_364\n      jump\t// in\n    tag_466:\n        /* \"#utility.yul\":10237:10412   */\n      pop\n        /* \"#utility.yul\":9278:10419   */\n      pop\n        /* \"#utility.yul\":9170:10419   */\n      pop\n      pop\n      jump\t// out\n        /* \"#utility.yul\":10493:11735   */\n    tag_360:\n        /* \"#utility.yul\":10640:10644   */\n      0xc0\n        /* \"#utility.yul\":10635:10638   */\n      dup3\n        /* \"#utility.yul\":10631:10645   */\n      add\n        /* \"#utility.yul\":10737:10741   */\n      0x00\n        /* \"#utility.yul\":10730:10735   */\n      dup3\n        /* \"#utility.yul\":10726:10742   */\n      add\n        /* \"#utility.yul\":10720:10743   */\n      mload\n        /* \"#utility.yul\":10756:10819   */\n      tag_468\n        /* \"#utility.yul\":10813:10817   */\n      0x00\n        /* \"#utility.yul\":10808:10811   */\n      dup6\n        /* \"#utility.yul\":10804:10818   */\n      add\n        /* \"#utility.yul\":10790:10802   */\n      dup3\n        /* \"#utility.yul\":10756:10819   */\n      tag_364\n      jump\t// in\n    tag_468:\n        /* \"#utility.yul\":10655:10829   */\n      pop\n        /* \"#utility.yul\":10920:10924   */\n      0x20\n        /* \"#utility.yul\":10913:10918   */\n      dup3\n        /* \"#utility.yul\":10909:10925   */\n      add\n        /* \"#utility.yul\":10903:10926   */\n      mload\n        /* \"#utility.yul\":10939:11002   */\n      tag_469\n        /* \"#utility.yul\":10996:11000   */\n      0x20\n        /* \"#utility.yul\":10991:10994   */\n      dup6\n        /* \"#utility.yul\":10987:11001   */\n      add\n        /* \"#utility.yul\":10973:10985   */\n      dup3\n        /* \"#utility.yul\":10939:11002   */\n      tag_364\n      jump\t// in\n    tag_469:\n        /* \"#utility.yul\":10839:11012   */\n      pop\n        /* \"#utility.yul\":11101:11105   */\n      0x40\n        /* \"#utility.yul\":11094:11099   */\n      dup3\n        /* \"#utility.yul\":11090:11106   */\n      add\n        /* \"#utility.yul\":11084:11107   */\n      mload\n        /* \"#utility.yul\":11120:11183   */\n      tag_470\n        /* \"#utility.yul\":11177:11181   */\n      0x40\n        /* \"#utility.yul\":11172:11175   */\n      dup6\n        /* \"#utility.yul\":11168:11182   */\n      add\n        /* \"#utility.yul\":11154:11166   */\n      dup3\n        /* \"#utility.yul\":11120:11183   */\n      tag_364\n      jump\t// in\n    tag_470:\n        /* \"#utility.yul\":11022:11193   */\n      pop\n        /* \"#utility.yul\":11284:11288   */\n      0x60\n        /* \"#utility.yul\":11277:11282   */\n      dup3\n        /* \"#utility.yul\":11273:11289   */\n      add\n        /* \"#utility.yul\":11267:11290   */\n      mload\n        /* \"#utility.yul\":11303:11366   */\n      tag_471\n        /* \"#utility.yul\":11360:11364   */\n      0x60\n        /* \"#utility.yul\":11355:11358   */\n      dup6\n        /* \"#utility.yul\":11351:11365   */\n      add\n        /* \"#utility.yul\":11337:11349   */\n      dup3\n        /* \"#utility.yul\":11303:11366   */\n      tag_364\n      jump\t// in\n    tag_471:\n        /* \"#utility.yul\":11203:11376   */\n      pop\n        /* \"#utility.yul\":11465:11469   */\n      0x80\n        /* \"#utility.yul\":11458:11463   */\n      dup3\n        /* \"#utility.yul\":11454:11470   */\n      add\n        /* \"#utility.yul\":11448:11471   */\n      mload\n        /* \"#utility.yul\":11484:11547   */\n      tag_472\n        /* \"#utility.yul\":11541:11545   */\n      0x80\n        /* \"#utility.yul\":11536:11539   */\n      dup6\n        /* \"#utility.yul\":11532:11546   */\n      add\n        /* \"#utility.yul\":11518:11530   */\n      dup3\n        /* \"#utility.yul\":11484:11547   */\n      tag_364\n      jump\t// in\n    tag_472:\n        /* \"#utility.yul\":11386:11557   */\n      pop\n        /* \"#utility.yul\":11642:11646   */\n      0xa0\n        /* \"#utility.yul\":11635:11640   */\n      dup3\n        /* \"#utility.yul\":11631:11647   */\n      add\n        /* \"#utility.yul\":11625:11648   */\n      mload\n        /* \"#utility.yul\":11661:11718   */\n      tag_473\n        /* \"#utility.yul\":11712:11716   */\n      0xa0\n        /* \"#utility.yul\":11707:11710   */\n      dup6\n        /* \"#utility.yul\":11703:11717   */\n      add\n        /* \"#utility.yul\":11689:11701   */\n      dup3\n        /* \"#utility.yul\":11661:11718   */\n      tag_427\n      jump\t// in\n    tag_473:\n        /* \"#utility.yul\":11567:11728   */\n      pop\n        /* \"#utility.yul\":10609:11735   */\n      pop\n        /* \"#utility.yul\":10493:11735   */\n      pop\n      pop\n      jump\t// out\n        /* \"#utility.yul\":11741:11849   */\n    tag_364:\n        /* \"#utility.yul\":11818:11842   */\n      tag_475\n        /* \"#utility.yul\":11836:11841   */\n      dup2\n        /* \"#utility.yul\":11818:11842   */\n      tag_476\n      jump\t// in\n    tag_475:\n        /* \"#utility.yul\":11813:11816   */\n      dup3\n        /* \"#utility.yul\":11806:11843   */\n      mstore\n        /* \"#utility.yul\":11741:11849   */\n      pop\n      pop\n      jump\t// out\n        /* \"#utility.yul\":11855:11973   */\n    tag_477:\n        /* \"#utility.yul\":11942:11966   */\n      tag_479\n        /* \"#utility.yul\":11960:11965   */\n      dup2\n        /* \"#utility.yul\":11942:11966   */\n      tag_476\n      jump\t// in\n    tag_479:\n        /* \"#utility.yul\":11937:11940   */\n      dup3\n        /* \"#utility.yul\":11930:11967   */\n      mstore\n        /* \"#utility.yul\":11855:11973   */\n      pop\n      pop\n      jump\t// out\n        /* \"#utility.yul\":11979:12201   */\n    tag_81:\n        /* \"#utility.yul\":12072:12076   */\n      0x00\n        /* \"#utility.yul\":12110:12112   */\n      0x20\n        /* \"#utility.yul\":12099:12108   */\n      dup3\n        /* \"#utility.yul\":12095:12113   */\n      add\n        /* \"#utility.yul\":12087:12113   */\n      swap1\n      pop\n        /* \"#utility.yul\":12123:12194   */\n      tag_481\n        /* \"#utility.yul\":12191:12192   */\n      0x00\n        /* \"#utility.yul\":12180:12189   */\n      dup4\n        /* \"#utility.yul\":12176:12193   */\n      add\n        /* \"#utility.yul\":12167:12173   */\n      dup5\n        /* \"#utility.yul\":12123:12194   */\n      tag_368\n      jump\t// in\n    tag_481:\n        /* \"#utility.yul\":11979:12201   */\n      swap3\n      swap2\n      pop\n      pop\n      jump\t// out\n        /* \"#utility.yul\":12207:12649   */\n    tag_153:\n        /* \"#utility.yul\":12356:12360   */\n      0x00\n        /* \"#utility.yul\":12394:12396   */\n      0x60\n        /* \"#utility.yul\":12383:12392   */\n      dup3\n        /* \"#utility.yul\":12379:12397   */\n      add\n        /* \"#utility.yul\":12371:12397   */\n      swap1\n      pop\n        /* \"#utility.yul\":12407:12478   */\n      tag_483\n        /* \"#utility.yul\":12475:12476   */\n      0x00\n        /* \"#utility.yul\":12464:12473   */\n      dup4\n        /* \"#utility.yul\":12460:12477   */\n      add\n        /* \"#utility.yul\":12451:12457   */\n      dup7\n        /* \"#utility.yul\":12407:12478   */\n      tag_368\n      jump\t// in\n    tag_483:\n        /* \"#utility.yul\":12488:12560   */\n      tag_484\n        /* \"#utility.yul\":12556:12558   */\n      0x20\n        /* \"#utility.yul\":12545:12554   */\n      dup4\n        /* \"#utility.yul\":12541:12559   */\n      add\n        /* \"#utility.yul\":12532:12538   */\n      dup6\n        /* \"#utility.yul\":12488:12560   */\n      tag_368\n      jump\t// in\n    tag_484:\n        /* \"#utility.yul\":12570:12642   */\n      tag_485\n        /* \"#utility.yul\":12638:12640   */\n      0x40\n        /* \"#utility.yul\":12627:12636   */\n      dup4\n        /* \"#utility.yul\":12623:12641   */\n      add\n        /* \"#utility.yul\":12614:12620   */\n      dup5\n        /* \"#utility.yul\":12570:12642   */\n      tag_477\n      jump\t// in\n    tag_485:\n        /* \"#utility.yul\":12207:12649   */\n      swap5\n      swap4\n      pop\n      pop\n      pop\n      pop\n      jump\t// out\n        /* \"#utility.yul\":12655:12987   */\n    tag_243:\n        /* \"#utility.yul\":12776:12780   */\n      0x00\n        /* \"#utility.yul\":12814:12816   */\n      0x40\n        /* \"#utility.yul\":12803:12812   */\n      dup3\n        /* \"#utility.yul\":12799:12817   */\n      add\n        /* \"#utility.yul\":12791:12817   */\n      swap1\n      pop\n        /* \"#utility.yul\":12827:12898   */\n      tag_487\n        /* \"#utility.yul\":12895:12896   */\n      0x00\n        /* \"#utility.yul\":12884:12893   */\n      dup4\n        /* \"#utility.yul\":12880:12897   */\n      add\n        /* \"#utility.yul\":12871:12877   */\n      dup6\n        /* \"#utility.yul\":12827:12898   */\n      tag_368\n      jump\t// in\n    tag_487:\n        /* \"#utility.yul\":12908:12980   */\n      tag_488\n        /* \"#utility.yul\":12976:12978   */\n      0x20\n        /* \"#utility.yul\":12965:12974   */\n      dup4\n        /* \"#utility.yul\":12961:12979   */\n      add\n        /* \"#utility.yul\":12952:12958   */\n      dup5\n        /* \"#utility.yul\":12908:12980   */\n      tag_477\n      jump\t// in\n    tag_488:\n        /* \"#utility.yul\":12655:12987   */\n      swap4\n      swap3\n      pop\n      pop\n      pop\n      jump\t// out\n        /* \"#utility.yul\":12993:13867   */\n    tag_115:\n        /* \"#utility.yul\":13248:13252   */\n      0x00\n        /* \"#utility.yul\":13286:13289   */\n      0xe0\n        /* \"#utility.yul\":13275:13284   */\n      dup3\n        /* \"#utility.yul\":13271:13290   */\n      add\n        /* \"#utility.yul\":13263:13290   */\n      swap1\n      pop\n        /* \"#utility.yul\":13300:13371   */\n      tag_490\n        /* \"#utility.yul\":13368:13369   */\n      0x00\n        /* \"#utility.yul\":13357:13366   */\n      dup4\n        /* \"#utility.yul\":13353:13370   */\n      add\n        /* \"#utility.yul\":13344:13350   */\n      dup11\n        /* \"#utility.yul\":13300:13371   */\n      tag_368\n      jump\t// in\n    tag_490:\n        /* \"#utility.yul\":13381:13453   */\n      tag_491\n        /* \"#utility.yul\":13449:13451   */\n      0x20\n        /* \"#utility.yul\":13438:13447   */\n      dup4\n        /* \"#utility.yul\":13434:13452   */\n      add\n        /* \"#utility.yul\":13425:13431   */\n      dup10\n        /* \"#utility.yul\":13381:13453   */\n      tag_477\n      jump\t// in\n    tag_491:\n        /* \"#utility.yul\":13463:13535   */\n      tag_492\n        /* \"#utility.yul\":13531:13533   */\n      0x40\n        /* \"#utility.yul\":13520:13529   */\n      dup4\n        /* \"#utility.yul\":13516:13534   */\n      add\n        /* \"#utility.yul\":13507:13513   */\n      dup9\n        /* \"#utility.yul\":13463:13535   */\n      tag_477\n      jump\t// in\n    tag_492:\n        /* \"#utility.yul\":13545:13617   */\n      tag_493\n        /* \"#utility.yul\":13613:13615   */\n      0x60\n        /* \"#utility.yul\":13602:13611   */\n      dup4\n        /* \"#utility.yul\":13598:13616   */\n      add\n        /* \"#utility.yul\":13589:13595   */\n      dup8\n        /* \"#utility.yul\":13545:13617   */\n      tag_477\n      jump\t// in\n    tag_493:\n        /* \"#utility.yul\":13627:13700   */\n      tag_494\n        /* \"#utility.yul\":13695:13698   */\n      0x80\n        /* \"#utility.yul\":13684:13693   */\n      dup4\n        /* \"#utility.yul\":13680:13699   */\n      add\n        /* \"#utility.yul\":13671:13677   */\n      dup7\n        /* \"#utility.yul\":13627:13700   */\n      tag_477\n      jump\t// in\n    tag_494:\n        /* \"#utility.yul\":13710:13777   */\n      tag_495\n        /* \"#utility.yul\":13772:13775   */\n      0xa0\n        /* \"#utility.yul\":13761:13770   */\n      dup4\n        /* \"#utility.yul\":13757:13776   */\n      add\n        /* \"#utility.yul\":13748:13754   */\n      dup6\n        /* \"#utility.yul\":13710:13777   */\n      tag_431\n      jump\t// in\n    tag_495:\n        /* \"#utility.yul\":13787:13860   */\n      tag_496\n        /* \"#utility.yul\":13855:13858   */\n      0xc0\n        /* \"#utility.yul\":13844:13853   */\n      dup4\n        /* \"#utility.yul\":13840:13859   */\n      add\n        /* \"#utility.yul\":13831:13837   */\n      dup5\n        /* \"#utility.yul\":13787:13860   */\n      tag_477\n      jump\t// in\n    tag_496:\n        /* \"#utility.yul\":12993:13867   */\n      swap9\n      swap8\n      pop\n      pop\n      pop\n      pop\n      pop\n      pop\n      pop\n      pop\n      jump\t// out\n        /* \"#utility.yul\":13873:14246   */\n    tag_39:\n        /* \"#utility.yul\":14016:14020   */\n      0x00\n        /* \"#utility.yul\":14054:14056   */\n      0x20\n        /* \"#utility.yul\":14043:14052   */\n      dup3\n        /* \"#utility.yul\":14039:14057   */\n      add\n        /* \"#utility.yul\":14031:14057   */\n      swap1\n      pop\n        /* \"#utility.yul\":14103:14112   */\n      dup2\n        /* \"#utility.yul\":14097:14101   */\n      dup2\n        /* \"#utility.yul\":14093:14113   */\n      sub\n        /* \"#utility.yul\":14089:14090   */\n      0x00\n        /* \"#utility.yul\":14078:14087   */\n      dup4\n        /* \"#utility.yul\":14074:14091   */\n      add\n        /* \"#utility.yul\":14067:14114   */\n      mstore\n        /* \"#utility.yul\":14131:14239   */\n      tag_498\n        /* \"#utility.yul\":14234:14238   */\n      dup2\n        /* \"#utility.yul\":14225:14231   */\n      dup5\n        /* \"#utility.yul\":14131:14239   */\n      tag_371\n      jump\t// in\n    tag_498:\n        /* \"#utility.yul\":14123:14239   */\n      swap1\n      pop\n        /* \"#utility.yul\":13873:14246   */\n      swap3\n      swap2\n      pop\n      pop\n      jump\t// out\n        /* \"#utility.yul\":14252:14729   */\n    tag_69:\n        /* \"#utility.yul\":14447:14451   */\n      0x00\n        /* \"#utility.yul\":14485:14487   */\n      0x20\n        /* \"#utility.yul\":14474:14483   */\n      dup3\n        /* \"#utility.yul\":14470:14488   */\n      add\n        /* \"#utility.yul\":14462:14488   */\n      swap1\n      pop\n        /* \"#utility.yul\":14534:14543   */\n      dup2\n        /* \"#utility.yul\":14528:14532   */\n      dup2\n        /* \"#utility.yul\":14524:14544   */\n      sub\n        /* \"#utility.yul\":14520:14521   */\n      0x00\n        /* \"#utility.yul\":14509:14518   */\n      dup4\n        /* \"#utility.yul\":14505:14522   */\n      add\n        /* \"#utility.yul\":14498:14545   */\n      mstore\n        /* \"#utility.yul\":14562:14722   */\n      tag_500\n        /* \"#utility.yul\":14717:14721   */\n      dup2\n        /* \"#utility.yul\":14708:14714   */\n      dup5\n        /* \"#utility.yul\":14562:14722   */\n      tag_385\n      jump\t// in\n    tag_500:\n        /* \"#utility.yul\":14554:14722   */\n      swap1\n      pop\n        /* \"#utility.yul\":14252:14729   */\n      swap3\n      swap2\n      pop\n      pop\n      jump\t// out\n        /* \"#utility.yul\":14735:15228   */\n    tag_62:\n        /* \"#utility.yul\":14938:14942   */\n      0x00\n        /* \"#utility.yul\":14976:14978   */\n      0x20\n        /* \"#utility.yul\":14965:14974   */\n      dup3\n        /* \"#utility.yul\":14961:14979   */\n      add\n        /* \"#utility.yul\":14953:14979   */\n      swap1\n      pop\n        /* \"#utility.yul\":15025:15034   */\n      dup2\n        /* \"#utility.yul\":15019:15023   */\n      dup2\n        /* \"#utility.yul\":15015:15035   */\n      sub\n        /* \"#utility.yul\":15011:15012   */\n      0x00\n        /* \"#utility.yul\":15000:15009   */\n      dup4\n        /* \"#utility.yul\":14996:15013   */\n      add\n        /* \"#utility.yul\":14989:15036   */\n      mstore\n        /* \"#utility.yul\":15053:15221   */\n      tag_502\n        /* \"#utility.yul\":15216:15220   */\n      dup2\n        /* \"#utility.yul\":15207:15213   */\n      dup5\n        /* \"#utility.yul\":15053:15221   */\n      tag_399\n      jump\t// in\n    tag_502:\n        /* \"#utility.yul\":15045:15221   */\n      swap1\n      pop\n        /* \"#utility.yul\":14735:15228   */\n      swap3\n      swap2\n      pop\n      pop\n      jump\t// out\n        /* \"#utility.yul\":15234:15607   */\n    tag_103:\n        /* \"#utility.yul\":15377:15381   */\n      0x00\n        /* \"#utility.yul\":15415:15417   */\n      0x20\n        /* \"#utility.yul\":15404:15413   */\n      dup3\n        /* \"#utility.yul\":15400:15418   */\n      add\n        /* \"#utility.yul\":15392:15418   */\n      swap1\n      pop\n        /* \"#utility.yul\":15464:15473   */\n      dup2\n        /* \"#utility.yul\":15458:15462   */\n      dup2\n        /* \"#utility.yul\":15454:15474   */\n      sub\n        /* \"#utility.yul\":15450:15451   */\n      0x00\n        /* \"#utility.yul\":15439:15448   */\n      dup4\n        /* \"#utility.yul\":15435:15452   */\n      add\n        /* \"#utility.yul\":15428:15475   */\n      mstore\n        /* \"#utility.yul\":15492:15600   */\n      tag_504\n        /* \"#utility.yul\":15595:15599   */\n      dup2\n        /* \"#utility.yul\":15586:15592   */\n      dup5\n        /* \"#utility.yul\":15492:15600   */\n      tag_413\n      jump\t// in\n    tag_504:\n        /* \"#utility.yul\":15484:15600   */\n      swap1\n      pop\n        /* \"#utility.yul\":15234:15607   */\n      swap3\n      swap2\n      pop\n      pop\n      jump\t// out\n        /* \"#utility.yul\":15613:15823   */\n    tag_52:\n        /* \"#utility.yul\":15700:15704   */\n      0x00\n        /* \"#utility.yul\":15738:15740   */\n      0x20\n        /* \"#utility.yul\":15727:15736   */\n      dup3\n        /* \"#utility.yul\":15723:15741   */\n      add\n        /* \"#utility.yul\":15715:15741   */\n      swap1\n      pop\n        /* \"#utility.yul\":15751:15816   */\n      tag_506\n        /* \"#utility.yul\":15813:15814   */\n      0x00\n        /* \"#utility.yul\":15802:15811   */\n      dup4\n        /* \"#utility.yul\":15798:15815   */\n      add\n        /* \"#utility.yul\":15789:15795   */\n      dup5\n        /* \"#utility.yul\":15751:15816   */\n      tag_431\n      jump\t// in\n    tag_506:\n        /* \"#utility.yul\":15613:15823   */\n      swap3\n      swap2\n      pop\n      pop\n      jump\t// out\n        /* \"#utility.yul\":15829:16248   */\n    tag_237:\n        /* \"#utility.yul\":15995:15999   */\n      0x00\n        /* \"#utility.yul\":16033:16035   */\n      0x20\n        /* \"#utility.yul\":16022:16031   */\n      dup3\n        /* \"#utility.yul\":16018:16036   */\n      add\n        /* \"#utility.yul\":16010:16036   */\n      swap1\n      pop\n        /* \"#utility.yul\":16082:16091   */\n      dup2\n        /* \"#utility.yul\":16076:16080   */\n      dup2\n        /* \"#utility.yul\":16072:16092   */\n      sub\n        /* \"#utility.yul\":16068:16069   */\n      0x00\n        /* \"#utility.yul\":16057:16066   */\n      dup4\n        /* \"#utility.yul\":16053:16070   */\n      add\n        /* \"#utility.yul\":16046:16093   */\n      mstore\n        /* \"#utility.yul\":16110:16241   */\n      tag_508\n        /* \"#utility.yul\":16236:16240   */\n      dup2\n        /* \"#utility.yul\":16110:16241   */\n      tag_434\n      jump\t// in\n    tag_508:\n        /* \"#utility.yul\":16102:16241   */\n      swap1\n      pop\n        /* \"#utility.yul\":15829:16248   */\n      swap2\n      swap1\n      pop\n      jump\t// out\n        /* \"#utility.yul\":16254:16673   */\n    tag_139:\n        /* \"#utility.yul\":16420:16424   */\n      0x00\n        /* \"#utility.yul\":16458:16460   */\n      0x20\n        /* \"#utility.yul\":16447:16456   */\n      dup3\n        /* \"#utility.yul\":16443:16461   */\n      add\n        /* \"#utility.yul\":16435:16461   */\n      swap1\n      pop\n        /* \"#utility.yul\":16507:16516   */\n      dup2\n        /* \"#utility.yul\":16501:16505   */\n      dup2\n        /* \"#utility.yul\":16497:16517   */\n      sub\n        /* \"#utility.yul\":16493:16494   */\n      0x00\n        /* \"#utility.yul\":16482:16491   */\n      dup4\n        /* \"#utility.yul\":16478:16495   */\n      add\n        /* \"#utility.yul\":16471:16518   */\n      mstore\n        /* \"#utility.yul\":16535:16666   */\n      tag_510\n        /* \"#utility.yul\":16661:16665   */\n      dup2\n        /* \"#utility.yul\":16535:16666   */\n      tag_440\n      jump\t// in\n    tag_510:\n        /* \"#utility.yul\":16527:16666   */\n      swap1\n      pop\n        /* \"#utility.yul\":16254:16673   */\n      swap2\n      swap1\n      pop\n      jump\t// out\n        /* \"#utility.yul\":16679:17098   */\n    tag_271:\n        /* \"#utility.yul\":16845:16849   */\n      0x00\n        /* \"#utility.yul\":16883:16885   */\n      0x20\n        /* \"#utility.yul\":16872:16881   */\n      dup3\n        /* \"#utility.yul\":16868:16886   */\n      add\n        /* \"#utility.yul\":16860:16886   */\n      swap1\n      pop\n        /* \"#utility.yul\":16932:16941   */\n      dup2\n        /* \"#utility.yul\":16926:16930   */\n      dup2\n        /* \"#utility.yul\":16922:16942   */\n      sub\n        /* \"#utility.yul\":16918:16919   */\n      0x00\n        /* \"#utility.yul\":16907:16916   */\n      dup4\n        /* \"#utility.yul\":16903:16920   */\n      add\n        /* \"#utility.yul\":16896:16943   */\n      mstore\n        /* \"#utility.yul\":16960:17091   */\n      tag_512\n        /* \"#utility.yul\":17086:17090   */\n      dup2\n        /* \"#utility.yul\":16960:17091   */\n      tag_445\n      jump\t// in\n    tag_512:\n        /* \"#utility.yul\":16952:17091   */\n      swap1\n      pop\n        /* \"#utility.yul\":16679:17098   */\n      swap2\n      swap1\n      pop\n      jump\t// out\n        /* \"#utility.yul\":17104:17523   */\n    tag_240:\n        /* \"#utility.yul\":17270:17274   */\n      0x00\n        /* \"#utility.yul\":17308:17310   */\n      0x20\n        /* \"#utility.yul\":17297:17306   */\n      dup3\n        /* \"#utility.yul\":17293:17311   */\n      add\n        /* \"#utility.yul\":17285:17311   */\n      swap1\n      pop\n        /* \"#utility.yul\":17357:17366   */\n      dup2\n        /* \"#utility.yul\":17351:17355   */\n      dup2\n        /* \"#utility.yul\":17347:17367   */\n      sub\n        /* \"#utility.yul\":17343:17344   */\n      0x00\n        /* \"#utility.yul\":17332:17341   */\n      dup4\n        /* \"#utility.yul\":17328:17345   */\n      add\n        /* \"#utility.yul\":17321:17368   */\n      mstore\n        /* \"#utility.yul\":17385:17516   */\n      tag_514\n        /* \"#utility.yul\":17511:17515   */\n      dup2\n        /* \"#utility.yul\":17385:17516   */\n      tag_450\n      jump\t// in\n    tag_514:\n        /* \"#utility.yul\":17377:17516   */\n      swap1\n      pop\n        /* \"#utility.yul\":17104:17523   */\n      swap2\n      swap1\n      pop\n      jump\t// out\n        /* \"#utility.yul\":17529:17948   */\n    tag_282:\n        /* \"#utility.yul\":17695:17699   */\n      0x00\n        /* \"#utility.yul\":17733:17735   */\n      0x20\n        /* \"#utility.yul\":17722:17731   */\n      dup3\n        /* \"#utility.yul\":17718:17736   */\n      add\n        /* \"#utility.yul\":17710:17736   */\n      swap1\n      pop\n        /* \"#utility.yul\":17782:17791   */\n      dup2\n        /* \"#utility.yul\":17776:17780   */\n      dup2\n        /* \"#utility.yul\":17772:17792   */\n      sub\n        /* \"#utility.yul\":17768:17769   */\n      0x00\n        /* \"#utility.yul\":17757:17766   */\n      dup4\n        /* \"#utility.yul\":17753:17770   */\n      add\n        /* \"#utility.yul\":17746:17793   */\n      mstore\n        /* \"#utility.yul\":17810:17941   */\n      tag_516\n        /* \"#utility.yul\":17936:17940   */\n      dup2\n        /* \"#utility.yul\":17810:17941   */\n      tag_455\n      jump\t// in\n    tag_516:\n        /* \"#utility.yul\":17802:17941   */\n      swap1\n      pop\n        /* \"#utility.yul\":17529:17948   */\n      swap2\n      swap1\n      pop\n      jump\t// out\n        /* \"#utility.yul\":17954:18176   */\n    tag_43:\n        /* \"#utility.yul\":18047:18051   */\n      0x00\n        /* \"#utility.yul\":18085:18087   */\n      0x20\n        /* \"#utility.yul\":18074:18083   */\n      dup3\n        /* \"#utility.yul\":18070:18088   */\n      add\n        /* \"#utility.yul\":18062:18088   */\n      swap1\n      pop\n        /* \"#utility.yul\":18098:18169   */\n      tag_518\n        /* \"#utility.yul\":18166:18167   */\n      0x00\n        /* \"#utility.yul\":18155:18164   */\n      dup4\n        /* \"#utility.yul\":18151:18168   */\n      add\n        /* \"#utility.yul\":18142:18148   */\n      dup5\n        /* \"#utility.yul\":18098:18169   */\n      tag_477\n      jump\t// in\n    tag_518:\n        /* \"#utility.yul\":17954:18176   */\n      swap3\n      swap2\n      pop\n      pop\n      jump\t// out\n        /* \"#utility.yul\":18263:18395   */\n    tag_378:\n        /* \"#utility.yul\":18330:18334   */\n      0x00\n        /* \"#utility.yul\":18353:18356   */\n      dup2\n        /* \"#utility.yul\":18345:18356   */\n      swap1\n      pop\n        /* \"#utility.yul\":18383:18387   */\n      0x20\n        /* \"#utility.yul\":18378:18381   */\n      dup3\n        /* \"#utility.yul\":18374:18388   */\n      add\n        /* \"#utility.yul\":18366:18388   */\n      swap1\n      pop\n        /* \"#utility.yul\":18263:18395   */\n      swap2\n      swap1\n      pop\n      jump\t// out\n        /* \"#utility.yul\":18401:18559   */\n    tag_392:\n        /* \"#utility.yul\":18494:18498   */\n      0x00\n        /* \"#utility.yul\":18517:18520   */\n      dup2\n        /* \"#utility.yul\":18509:18520   */\n      swap1\n      pop\n        /* \"#utility.yul\":18547:18551   */\n      0x20\n        /* \"#utility.yul\":18542:18545   */\n      dup3\n        /* \"#utility.yul\":18538:18552   */\n      add\n        /* \"#utility.yul\":18530:18552   */\n      swap1\n      pop\n        /* \"#utility.yul\":18401:18559   */\n      swap2\n      swap1\n      pop\n      jump\t// out\n        /* \"#utility.yul\":18565:18727   */\n    tag_406:\n        /* \"#utility.yul\":18662:18666   */\n      0x00\n        /* \"#utility.yul\":18685:18688   */\n      dup2\n        /* \"#utility.yul\":18677:18688   */\n      swap1\n      pop\n        /* \"#utility.yul\":18715:18719   */\n      0x20\n        /* \"#utility.yul\":18710:18713   */\n      dup3\n        /* \"#utility.yul\":18706:18720   */\n      add\n        /* \"#utility.yul\":18698:18720   */\n      swap1\n      pop\n        /* \"#utility.yul\":18565:18727   */\n      swap2\n      swap1\n      pop\n      jump\t// out\n        /* \"#utility.yul\":18733:18865   */\n    tag_420:\n        /* \"#utility.yul\":18800:18804   */\n      0x00\n        /* \"#utility.yul\":18823:18826   */\n      dup2\n        /* \"#utility.yul\":18815:18826   */\n      swap1\n      pop\n        /* \"#utility.yul\":18853:18857   */\n      0x20\n        /* \"#utility.yul\":18848:18851   */\n      dup3\n        /* \"#utility.yul\":18844:18858   */\n      add\n        /* \"#utility.yul\":18836:18858   */\n      swap1\n      pop\n        /* \"#utility.yul\":18733:18865   */\n      swap2\n      swap1\n      pop\n      jump\t// out\n        /* \"#utility.yul\":18871:18985   */\n    tag_374:\n        /* \"#utility.yul\":18938:18944   */\n      0x00\n        /* \"#utility.yul\":18972:18977   */\n      dup2\n        /* \"#utility.yul\":18966:18978   */\n      mload\n        /* \"#utility.yul\":18956:18978   */\n      swap1\n      pop\n        /* \"#utility.yul\":18871:18985   */\n      swap2\n      swap1\n      pop\n      jump\t// out\n        /* \"#utility.yul\":18991:19131   */\n    tag_388:\n        /* \"#utility.yul\":19084:19090   */\n      0x00\n        /* \"#utility.yul\":19118:19123   */\n      dup2\n        /* \"#utility.yul\":19112:19124   */\n      mload\n        /* \"#utility.yul\":19102:19124   */\n      swap1\n      pop\n        /* \"#utility.yul\":18991:19131   */\n      swap2\n      swap1\n      pop\n      jump\t// out\n        /* \"#utility.yul\":19137:19281   */\n    tag_402:\n        /* \"#utility.yul\":19234:19240   */\n      0x00\n        /* \"#utility.yul\":19268:19273   */\n      dup2\n        /* \"#utility.yul\":19262:19274   */\n      mload\n        /* \"#utility.yul\":19252:19274   */\n      swap1\n      pop\n        /* \"#utility.yul\":19137:19281   */\n      swap2\n      swap1\n      pop\n      jump\t// out\n        /* \"#utility.yul\":19287:19401   */\n    tag_416:\n        /* \"#utility.yul\":19354:19360   */\n      0x00\n        /* \"#utility.yul\":19388:19393   */\n      dup2\n        /* \"#utility.yul\":19382:19394   */\n      mload\n        /* \"#utility.yul\":19372:19394   */\n      swap1\n      pop\n        /* \"#utility.yul\":19287:19401   */\n      swap2\n      swap1\n      pop\n      jump\t// out\n        /* \"#utility.yul\":19407:19520   */\n    tag_384:\n        /* \"#utility.yul\":19477:19481   */\n      0x00\n        /* \"#utility.yul\":19509:19513   */\n      0x20\n        /* \"#utility.yul\":19504:19507   */\n      dup3\n        /* \"#utility.yul\":19500:19514   */\n      add\n        /* \"#utility.yul\":19492:19514   */\n      swap1\n      pop\n        /* \"#utility.yul\":19407:19520   */\n      swap2\n      swap1\n      pop\n      jump\t// out\n        /* \"#utility.yul\":19526:19665   */\n    tag_398:\n        /* \"#utility.yul\":19622:19626   */\n      0x00\n        /* \"#utility.yul\":19654:19658   */\n      0x20\n        /* \"#utility.yul\":19649:19652   */\n      dup3\n        /* \"#utility.yul\":19645:19659   */\n      add\n        /* \"#utility.yul\":19637:19659   */\n      swap1\n      pop\n        /* \"#utility.yul\":19526:19665   */\n      swap2\n      swap1\n      pop\n      jump\t// out\n        /* \"#utility.yul\":19671:19814   */\n    tag_412:\n        /* \"#utility.yul\":19771:19775   */\n      0x00\n        /* \"#utility.yul\":19803:19807   */\n      0x20\n        /* \"#utility.yul\":19798:19801   */\n      dup3\n        /* \"#utility.yul\":19794:19808   */\n      add\n        /* \"#utility.yul\":19786:19808   */\n      swap1\n      pop\n        /* \"#utility.yul\":19671:19814   */\n      swap2\n      swap1\n      pop\n      jump\t// out\n        /* \"#utility.yul\":19820:19933   */\n    tag_426:\n        /* \"#utility.yul\":19890:19894   */\n      0x00\n        /* \"#utility.yul\":19922:19926   */\n      0x20\n        /* \"#utility.yul\":19917:19920   */\n      dup3\n        /* \"#utility.yul\":19913:19927   */\n      add\n        /* \"#utility.yul\":19905:19927   */\n      swap1\n      pop\n        /* \"#utility.yul\":19820:19933   */\n      swap2\n      swap1\n      pop\n      jump\t// out\n        /* \"#utility.yul\":19939:20123   */\n    tag_376:\n        /* \"#utility.yul\":20038:20049   */\n      0x00\n        /* \"#utility.yul\":20072:20078   */\n      dup3\n        /* \"#utility.yul\":20067:20070   */\n      dup3\n        /* \"#utility.yul\":20060:20079   */\n      mstore\n        /* \"#utility.yul\":20112:20116   */\n      0x20\n        /* \"#utility.yul\":20107:20110   */\n      dup3\n        /* \"#utility.yul\":20103:20117   */\n      add\n        /* \"#utility.yul\":20088:20117   */\n      swap1\n      pop\n        /* \"#utility.yul\":19939:20123   */\n      swap3\n      swap2\n      pop\n      pop\n      jump\t// out\n        /* \"#utility.yul\":20129:20339   */\n    tag_390:\n        /* \"#utility.yul\":20254:20265   */\n      0x00\n        /* \"#utility.yul\":20288:20294   */\n      dup3\n        /* \"#utility.yul\":20283:20286   */\n      dup3\n        /* \"#utility.yul\":20276:20295   */\n      mstore\n        /* \"#utility.yul\":20328:20332   */\n      0x20\n        /* \"#utility.yul\":20323:20326   */\n      dup3\n        /* \"#utility.yul\":20319:20333   */\n      add\n        /* \"#utility.yul\":20304:20333   */\n      swap1\n      pop\n        /* \"#utility.yul\":20129:20339   */\n      swap3\n      swap2\n      pop\n      pop\n      jump\t// out\n        /* \"#utility.yul\":20345:20559   */\n    tag_404:\n        /* \"#utility.yul\":20474:20485   */\n      0x00\n        /* \"#utility.yul\":20508:20514   */\n      dup3\n        /* \"#utility.yul\":20503:20506   */\n      dup3\n        /* \"#utility.yul\":20496:20515   */\n      mstore\n        /* \"#utility.yul\":20548:20552   */\n      0x20\n        /* \"#utility.yul\":20543:20546   */\n      dup3\n        /* \"#utility.yul\":20539:20553   */\n      add\n        /* \"#utility.yul\":20524:20553   */\n      swap1\n      pop\n        /* \"#utility.yul\":20345:20559   */\n      swap3\n      swap2\n      pop\n      pop\n      jump\t// out\n        /* \"#utility.yul\":20565:20749   */\n    tag_418:\n        /* \"#utility.yul\":20664:20675   */\n      0x00\n        /* \"#utility.yul\":20698:20704   */\n      dup3\n        /* \"#utility.yul\":20693:20696   */\n      dup3\n        /* \"#utility.yul\":20686:20705   */\n      mstore\n        /* \"#utility.yul\":20738:20742   */\n      0x20\n        /* \"#utility.yul\":20733:20736   */\n      dup3\n        /* \"#utility.yul\":20729:20743   */\n      add\n        /* \"#utility.yul\":20714:20743   */\n      swap1\n      pop\n        /* \"#utility.yul\":20565:20749   */\n      swap3\n      swap2\n      pop\n      pop\n      jump\t// out\n        /* \"#utility.yul\":20755:20924   */\n    tag_437:\n        /* \"#utility.yul\":20839:20850   */\n      0x00\n        /* \"#utility.yul\":20873:20879   */\n      dup3\n        /* \"#utility.yul\":20868:20871   */\n      dup3\n        /* \"#utility.yul\":20861:20880   */\n      mstore\n        /* \"#utility.yul\":20913:20917   */\n      0x20\n        /* \"#utility.yul\":20908:20911   */\n      dup3\n        /* \"#utility.yul\":20904:20918   */\n      add\n        /* \"#utility.yul\":20889:20918   */\n      swap1\n      pop\n        /* \"#utility.yul\":20755:20924   */\n      swap3\n      swap2\n      pop\n      pop\n      jump\t// out\n        /* \"#utility.yul\":20930:21235   */\n    tag_145:\n        /* \"#utility.yul\":20970:20973   */\n      0x00\n        /* \"#utility.yul\":20989:21009   */\n      tag_539\n        /* \"#utility.yul\":21007:21008   */\n      dup3\n        /* \"#utility.yul\":20989:21009   */\n      tag_476\n      jump\t// in\n    tag_539:\n        /* \"#utility.yul\":20984:21009   */\n      swap2\n      pop\n        /* \"#utility.yul\":21023:21043   */\n      tag_540\n        /* \"#utility.yul\":21041:21042   */\n      dup4\n        /* \"#utility.yul\":21023:21043   */\n      tag_476\n      jump\t// in\n    tag_540:\n        /* \"#utility.yul\":21018:21043   */\n      swap3\n      pop\n        /* \"#utility.yul\":21177:21178   */\n      dup3\n        /* \"#utility.yul\":21109:21175   */\n      0xffffffffffffffffffffffffffffffffffffffffffffffffffffffffffffffff\n        /* \"#utility.yul\":21105:21179   */\n      sub\n        /* \"#utility.yul\":21102:21103   */\n      dup3\n        /* \"#utility.yul\":21099:21180   */\n      gt\n        /* \"#utility.yul\":21096:21203   */\n      iszero\n      tag_541\n      jumpi\n        /* \"#utility.yul\":21183:21201   */\n      tag_542\n      tag_543\n      jump\t// in\n    tag_542:\n        /* \"#utility.yul\":21096:21203   */\n    tag_541:\n        /* \"#utility.yul\":21227:21228   */\n      dup3\n        /* \"#utility.yul\":21224:21225   */\n      dup3\n        /* \"#utility.yul\":21220:21229   */\n      add\n        /* \"#utility.yul\":21213:21229   */\n      swap1\n      pop\n        /* \"#utility.yul\":20930:21235   */\n      swap3\n      swap2\n      pop\n      pop\n      jump\t// out\n        /* \"#utility.yul\":21241:21426   */\n    tag_194:\n        /* \"#utility.yul\":21281:21282   */\n      0x00\n        /* \"#utility.yul\":21298:21318   */\n      tag_545\n        /* \"#utility.yul\":21316:21317   */\n      dup3\n        /* \"#utility.yul\":21298:21318   */\n      tag_476\n      jump\t// in\n    tag_545:\n        /* \"#utility.yul\":21293:21318   */\n      swap2\n      pop\n        /* \"#utility.yul\":21332:21352   */\n      tag_546\n        /* \"#utility.yul\":21350:21351   */\n      dup4\n        /* \"#utility.yul\":21332:21352   */\n      tag_476\n      jump\t// in\n    tag_546:\n        /* \"#utility.yul\":21327:21352   */\n      swap3\n      pop\n        /* \"#utility.yul\":21371:21372   */\n      dup3\n        /* \"#utility.yul\":21361:21396   */\n      tag_547\n      jumpi\n        /* \"#utility.yul\":21376:21394   */\n      tag_548\n      tag_549\n      jump\t// in\n    tag_548:\n        /* \"#utility.yul\":21361:21396   */\n    tag_547:\n        /* \"#utility.yul\":21418:21419   */\n      dup3\n        /* \"#utility.yul\":21415:21416   */\n      dup3\n        /* \"#utility.yul\":21411:21420   */\n      div\n        /* \"#utility.yul\":21406:21420   */\n      swap1\n      pop\n        /* \"#utility.yul\":21241:21426   */\n      swap3\n      swap2\n      pop\n      pop\n      jump\t// out\n        /* \"#utility.yul\":21432:21780   */\n    tag_151:\n        /* \"#utility.yul\":21472:21479   */\n      0x00\n        /* \"#utility.yul\":21495:21515   */\n      tag_551\n        /* \"#utility.yul\":21513:21514   */\n      dup3\n        /* \"#utility.yul\":21495:21515   */\n      tag_476\n      jump\t// in\n    tag_551:\n        /* \"#utility.yul\":21490:21515   */\n      swap2\n      pop\n        /* \"#utility.yul\":21529:21549   */\n      tag_552\n        /* \"#utility.yul\":21547:21548   */\n      dup4\n        /* \"#utility.yul\":21529:21549   */\n      tag_476\n      jump\t// in\n    tag_552:\n        /* \"#utility.yul\":21524:21549   */\n      swap3\n      pop\n        /* \"#utility.yul\":21717:21718   */\n      dup2\n        /* \"#utility.yul\":21649:21715   */\n      0xffffffffffffffffffffffffffffffffffffffffffffffffffffffffffffffff\n        /* \"#utility.yul\":21645:21719   */\n      div\n        /* \"#utility.yul\":21642:21643   */\n      dup4\n        /* \"#utility.yul\":21639:21720   */\n      gt\n        /* \"#utility.yul\":21634:21635   */\n      dup3\n        /* \"#utility.yul\":21627:21636   */\n      iszero\n        /* \"#utility.yul\":21620:21637   */\n      iszero\n        /* \"#utility.yul\":21616:21721   */\n      and\n        /* \"#utility.yul\":21613:21744   */\n      iszero\n      tag_553\n      jumpi\n        /* \"#utility.yul\":21724:21742   */\n      tag_554\n      tag_543\n      jump\t// in\n    tag_554:\n        /* \"#utility.yul\":21613:21744   */\n    tag_553:\n        /* \"#utility.yul\":21772:21773   */\n      dup3\n        /* \"#utility.yul\":21769:21770   */\n      dup3\n        /* \"#utility.yul\":21765:21774   */\n      mul\n        /* \"#utility.yul\":21754:21774   */\n      swap1\n      pop\n        /* \"#utility.yul\":21432:21780   */\n      swap3\n      swap2\n      pop\n      pop\n      jump\t// out\n        /* \"#utility.yul\":21786:21977   */\n    tag_190:\n        /* \"#utility.yul\":21826:21830   */\n      0x00\n        /* \"#utility.yul\":21846:21866   */\n      tag_556\n        /* \"#utility.yul\":21864:21865   */\n      dup3\n        /* \"#utility.yul\":21846:21866   */\n      tag_476\n      jump\t// in\n    tag_556:\n        /* \"#utility.yul\":21841:21866   */\n      swap2\n      pop\n        /* \"#utility.yul\":21880:21900   */\n      tag_557\n        /* \"#utility.yul\":21898:21899   */\n      dup4\n        /* \"#utility.yul\":21880:21900   */\n      tag_476\n      jump\t// in\n    tag_557:\n        /* \"#utility.yul\":21875:21900   */\n      swap3\n      pop\n        /* \"#utility.yul\":21919:21920   */\n      dup3\n        /* \"#utility.yul\":21916:21917   */\n      dup3\n        /* \"#utility.yul\":21913:21921   */\n      lt\n        /* \"#utility.yul\":21910:21944   */\n      iszero\n      tag_558\n      jumpi\n        /* \"#utility.yul\":21924:21942   */\n      tag_559\n      tag_543\n      jump\t// in\n    tag_559:\n        /* \"#utility.yul\":21910:21944   */\n    tag_558:\n        /* \"#utility.yul\":21969:21970   */\n      dup3\n        /* \"#utility.yul\":21966:21967   */\n      dup3\n        /* \"#utility.yul\":21962:21971   */\n      sub\n        /* \"#utility.yul\":21954:21971   */\n      swap1\n      pop\n        /* \"#utility.yul\":21786:21977   */\n      swap3\n      swap2\n      pop\n      pop\n      jump\t// out\n        /* \"#utility.yul\":21983:22079   */\n    tag_367:\n        /* \"#utility.yul\":22020:22027   */\n      0x00\n        /* \"#utility.yul\":22049:22073   */\n      tag_561\n        /* \"#utility.yul\":22067:22072   */\n      dup3\n        /* \"#utility.yul\":22049:22073   */\n      tag_562\n      jump\t// in\n    tag_561:\n        /* \"#utility.yul\":22038:22073   */\n      swap1\n      pop\n        /* \"#utility.yul\":21983:22079   */\n      swap2\n      swap1\n      pop\n      jump\t// out\n        /* \"#utility.yul\":22085:22175   */\n    tag_430:\n        /* \"#utility.yul\":22119:22126   */\n      0x00\n        /* \"#utility.yul\":22162:22167   */\n      dup2\n        /* \"#utility.yul\":22155:22168   */\n      iszero\n        /* \"#utility.yul\":22148:22169   */\n      iszero\n        /* \"#utility.yul\":22137:22169   */\n      swap1\n      pop\n        /* \"#utility.yul\":22085:22175   */\n      swap2\n      swap1\n      pop\n      jump\t// out\n        /* \"#utility.yul\":22181:22307   */\n    tag_562:\n        /* \"#utility.yul\":22218:22225   */\n      0x00\n        /* \"#utility.yul\":22258:22300   */\n      0xffffffffffffffffffffffffffffffffffffffff\n        /* \"#utility.yul\":22251:22256   */\n      dup3\n        /* \"#utility.yul\":22247:22301   */\n      and\n        /* \"#utility.yul\":22236:22301   */\n      swap1\n      pop\n        /* \"#utility.yul\":22181:22307   */\n      swap2\n      swap1\n      pop\n      jump\t// out\n        /* \"#utility.yul\":22313:22390   */\n    tag_476:\n        /* \"#utility.yul\":22350:22357   */\n      0x00\n        /* \"#utility.yul\":22379:22384   */\n      dup2\n        /* \"#utility.yul\":22368:22384   */\n      swap1\n      pop\n        /* \"#utility.yul\":22313:22390   */\n      swap2\n      swap1\n      pop\n      jump\t// out\n        /* \"#utility.yul\":22396:22629   */\n    tag_142:\n        /* \"#utility.yul\":22435:22438   */\n      0x00\n        /* \"#utility.yul\":22458:22482   */\n      tag_567\n        /* \"#utility.yul\":22476:22481   */\n      dup3\n        /* \"#utility.yul\":22458:22482   */\n      tag_476\n      jump\t// in\n    tag_567:\n        /* \"#utility.yul\":22449:22482   */\n      swap2\n      pop\n        /* \"#utility.yul\":22504:22570   */\n      0xffffffffffffffffffffffffffffffffffffffffffffffffffffffffffffffff\n        /* \"#utility.yul\":22497:22502   */\n      dup3\n        /* \"#utility.yul\":22494:22571   */\n      eq\n        /* \"#utility.yul\":22491:22594   */\n      iszero\n      tag_568\n      jumpi\n        /* \"#utility.yul\":22574:22592   */\n      tag_569\n      tag_543\n      jump\t// in\n    tag_569:\n        /* \"#utility.yul\":22491:22594   */\n    tag_568:\n        /* \"#utility.yul\":22621:22622   */\n      0x01\n        /* \"#utility.yul\":22614:22619   */\n      dup3\n        /* \"#utility.yul\":22610:22623   */\n      add\n        /* \"#utility.yul\":22603:22623   */\n      swap1\n      pop\n        /* \"#utility.yul\":22396:22629   */\n      swap2\n      swap1\n      pop\n      jump\t// out\n        /* \"#utility.yul\":22635:22815   */\n    tag_543:\n        /* \"#utility.yul\":22683:22760   */\n      0x4e487b7100000000000000000000000000000000000000000000000000000000\n        /* \"#utility.yul\":22680:22681   */\n      0x00\n        /* \"#utility.yul\":22673:22761   */\n      mstore\n        /* \"#utility.yul\":22780:22784   */\n      0x11\n        /* \"#utility.yul\":22777:22778   */\n      0x04\n        /* \"#utility.yul\":22770:22785   */\n      mstore\n        /* \"#utility.yul\":22804:22808   */\n      0x24\n        /* \"#utility.yul\":22801:22802   */\n      0x00\n        /* \"#utility.yul\":22794:22809   */\n      revert\n        /* \"#utility.yul\":22821:23001   */\n    tag_549:\n        /* \"#utility.yul\":22869:22946   */\n      0x4e487b7100000000000000000000000000000000000000000000000000000000\n        /* \"#utility.yul\":22866:22867   */\n      0x00\n        /* \"#utility.yul\":22859:22947   */\n      mstore\n        /* \"#utility.yul\":22966:22970   */\n      0x12\n        /* \"#utility.yul\":22963:22964   */\n      0x04\n        /* \"#utility.yul\":22956:22971   */\n      mstore\n        /* \"#utility.yul\":22990:22994   */\n      0x24\n        /* \"#utility.yul\":22987:22988   */\n      0x00\n        /* \"#utility.yul\":22980:22995   */\n      revert\n        /* \"#utility.yul\":23007:23187   */\n    tag_181:\n        /* \"#utility.yul\":23055:23132   */\n      0x4e487b7100000000000000000000000000000000000000000000000000000000\n        /* \"#utility.yul\":23052:23053   */\n      0x00\n        /* \"#utility.yul\":23045:23133   */\n      mstore\n        /* \"#utility.yul\":23152:23156   */\n      0x32\n        /* \"#utility.yul\":23149:23150   */\n      0x04\n        /* \"#utility.yul\":23142:23157   */\n      mstore\n        /* \"#utility.yul\":23176:23180   */\n      0x24\n        /* \"#utility.yul\":23173:23174   */\n      0x00\n        /* \"#utility.yul\":23166:23181   */\n      revert\n        /* \"#utility.yul\":23193:23373   */\n    tag_170:\n        /* \"#utility.yul\":23241:23318   */\n      0x4e487b7100000000000000000000000000000000000000000000000000000000\n        /* \"#utility.yul\":23238:23239   */\n      0x00\n        /* \"#utility.yul\":23231:23319   */\n      mstore\n        /* \"#utility.yul\":23338:23342   */\n      0x41\n        /* \"#utility.yul\":23335:23336   */\n      0x04\n        /* \"#utility.yul\":23328:23343   */\n      mstore\n        /* \"#utility.yul\":23362:23366   */\n      0x24\n        /* \"#utility.yul\":23359:23360   */\n      0x00\n        /* \"#utility.yul\":23352:23367   */\n      revert\n        /* \"#utility.yul\":23502:23619   */\n    tag_332:\n        /* \"#utility.yul\":23611:23612   */\n      0x00\n        /* \"#utility.yul\":23608:23609   */\n      dup1\n        /* \"#utility.yul\":23601:23613   */\n      revert\n        /* \"#utility.yul\":23625:23849   */\n    tag_439:\n        /* \"#utility.yul\":23765:23799   */\n      0x796f7520646f6e74206861766520696e766573746d656e7420746f2077697468\n        /* \"#utility.yul\":23761:23762   */\n      0x00\n        /* \"#utility.yul\":23753:23759   */\n      dup3\n        /* \"#utility.yul\":23749:23763   */\n      add\n        /* \"#utility.yul\":23742:23800   */\n      mstore\n        /* \"#utility.yul\":23834:23841   */\n      0x647261776e000000000000000000000000000000000000000000000000000000\n        /* \"#utility.yul\":23829:23831   */\n      0x20\n        /* \"#utility.yul\":23821:23827   */\n      dup3\n        /* \"#utility.yul\":23817:23832   */\n      add\n        /* \"#utility.yul\":23810:23842   */\n      mstore\n        /* \"#utility.yul\":23625:23849   */\n      pop\n      jump\t// out\n        /* \"#utility.yul\":23855:24095   */\n    tag_444:\n        /* \"#utility.yul\":23995:24029   */\n      0x76616c7565206973206e6f742067726561746572207468616e20313030303020\n        /* \"#utility.yul\":23991:23992   */\n      0x00\n        /* \"#utility.yul\":23983:23989   */\n      dup3\n        /* \"#utility.yul\":23979:23993   */\n      add\n        /* \"#utility.yul\":23972:24030   */\n      mstore\n        /* \"#utility.yul\":24064:24087   */\n      0x616e64206c657373207468616e20353030303030300000000000000000000000\n        /* \"#utility.yul\":24059:24061   */\n      0x20\n        /* \"#utility.yul\":24051:24057   */\n      dup3\n        /* \"#utility.yul\":24047:24062   */\n      add\n        /* \"#utility.yul\":24040:24088   */\n      mstore\n        /* \"#utility.yul\":23855:24095   */\n      pop\n      jump\t// out\n        /* \"#utility.yul\":24101:24322   */\n    tag_449:\n        /* \"#utility.yul\":24241:24275   */\n      0x796f7520646f6e742068617665207265776172647320746f2077697468647261\n        /* \"#utility.yul\":24237:24238   */\n      0x00\n        /* \"#utility.yul\":24229:24235   */\n      dup3\n        /* \"#utility.yul\":24225:24239   */\n      add\n        /* \"#utility.yul\":24218:24276   */\n      mstore\n        /* \"#utility.yul\":24310:24314   */\n      0x776e000000000000000000000000000000000000000000000000000000000000\n        /* \"#utility.yul\":24305:24307   */\n      0x20\n        /* \"#utility.yul\":24297:24303   */\n      dup3\n        /* \"#utility.yul\":24293:24308   */\n      add\n        /* \"#utility.yul\":24286:24315   */\n      mstore\n        /* \"#utility.yul\":24101:24322   */\n      pop\n      jump\t// out\n        /* \"#utility.yul\":24328:24509   */\n    tag_454:\n        /* \"#utility.yul\":24468:24501   */\n      0x796f752063616e74207769746864726177206265666f72652031207965617200\n        /* \"#utility.yul\":24464:24465   */\n      0x00\n        /* \"#utility.yul\":24456:24462   */\n      dup3\n        /* \"#utility.yul\":24452:24466   */\n      add\n        /* \"#utility.yul\":24445:24502   */\n      mstore\n        /* \"#utility.yul\":24328:24509   */\n      pop\n      jump\t// out\n        /* \"#utility.yul\":24515:24735   */\n    tag_459:\n        /* \"#utility.yul\":24655:24689   */\n      0x6f6e6c79204f776e65722063616e2063616c6c20746869732066756e6374696f\n        /* \"#utility.yul\":24651:24652   */\n      0x00\n        /* \"#utility.yul\":24643:24649   */\n      dup3\n        /* \"#utility.yul\":24639:24653   */\n      add\n        /* \"#utility.yul\":24632:24690   */\n      mstore\n        /* \"#utility.yul\":24724:24727   */\n      0x6e00000000000000000000000000000000000000000000000000000000000000\n        /* \"#utility.yul\":24719:24721   */\n      0x20\n        /* \"#utility.yul\":24711:24717   */\n      dup3\n        /* \"#utility.yul\":24707:24722   */\n      add\n        /* \"#utility.yul\":24700:24728   */\n      mstore\n        /* \"#utility.yul\":24515:24735   */\n      pop\n      jump\t// out\n        /* \"#utility.yul\":24741:24863   */\n    tag_320:\n        /* \"#utility.yul\":24814:24838   */\n      tag_583\n        /* \"#utility.yul\":24832:24837   */\n      dup2\n        /* \"#utility.yul\":24814:24838   */\n      tag_367\n      jump\t// in\n    tag_583:\n        /* \"#utility.yul\":24807:24812   */\n      dup2\n        /* \"#utility.yul\":24804:24839   */\n      eq\n        /* \"#utility.yul\":24794:24857   */\n      tag_584\n      jumpi\n        /* \"#utility.yul\":24853:24854   */\n      0x00\n        /* \"#utility.yul\":24850:24851   */\n      dup1\n        /* \"#utility.yul\":24843:24855   */\n      revert\n        /* \"#utility.yul\":24794:24857   */\n    tag_584:\n        /* \"#utility.yul\":24741:24863   */\n      pop\n      jump\t// out\n        /* \"#utility.yul\":24869:24985   */\n    tag_324:\n        /* \"#utility.yul\":24939:24960   */\n      tag_586\n        /* \"#utility.yul\":24954:24959   */\n      dup2\n        /* \"#utility.yul\":24939:24960   */\n      tag_430\n      jump\t// in\n    tag_586:\n        /* \"#utility.yul\":24932:24937   */\n      dup2\n        /* \"#utility.yul\":24929:24961   */\n      eq\n        /* \"#utility.yul\":24919:24979   */\n      tag_587\n      jumpi\n        /* \"#utility.yul\":24975:24976   */\n      0x00\n        /* \"#utility.yul\":24972:24973   */\n      dup1\n        /* \"#utility.yul\":24965:24977   */\n      revert\n        /* \"#utility.yul\":24919:24979   */\n    tag_587:\n        /* \"#utility.yul\":24869:24985   */\n      pop\n      jump\t// out\n        /* \"#utility.yul\":24991:25113   */\n    tag_328:\n        /* \"#utility.yul\":25064:25088   */\n      tag_589\n        /* \"#utility.yul\":25082:25087   */\n      dup2\n        /* \"#utility.yul\":25064:25088   */\n      tag_476\n      jump\t// in\n    tag_589:\n        /* \"#utility.yul\":25057:25062   */\n      dup2\n        /* \"#utility.yul\":25054:25089   */\n      eq\n        /* \"#utility.yul\":25044:25107   */\n      tag_590\n      jumpi\n        /* \"#utility.yul\":25103:25104   */\n      0x00\n        /* \"#utility.yul\":25100:25101   */\n      dup1\n        /* \"#utility.yul\":25093:25105   */\n      revert\n        /* \"#utility.yul\":25044:25107   */\n    tag_590:\n        /* \"#utility.yul\":24991:25113   */\n      pop\n      jump\t// out\n\n    auxdata: 0xa26469706673582212201331db1fadbd526f36ce8d4797eeed9eeff46298e2d1a1e06fa3e1cb4281f97e64736f6c63430008070033\n}\n",
				"bytecode": {
					"linkReferences": {},
					"object": "608060405273e9e7cea3dedca5984780bafc599bd69add087d56600160006101000a81548173ffffffffffffffffffffffffffffffffffffffff021916908373ffffffffffffffffffffffffffffffffffffffff16021790555073e9e7cea3dedca5984780bafc599bd69add087d56600260006101000a81548173ffffffffffffffffffffffffffffffffffffffff021916908373ffffffffffffffffffffffffffffffffffffffff16021790555060bf600355674563918244f40000600555612710600655624c4b40600755620186a06008556301e133806009553480156100e757600080fd5b50336000806101000a81548173ffffffffffffffffffffffffffffffffffffffff021916908373ffffffffffffffffffffffffffffffffffffffff16021790555061302e806101376000396000f3fe608060405234801561001057600080fd5b50600436106101a95760003560e01c80635a4a0192116100f9578063c885bc5811610097578063f2fde38b11610071578063f2fde38b14610494578063f790b81a146104b0578063f7c618c1146104ce578063fae730bc146104ec576101a9565b8063c885bc5814610422578063d3560ee814610440578063e2033fcb14610476576101a9565b8063929f6bbe116100d3578063929f6bbe146103aa5780639740a1bc146103c8578063a61be99d146103e6578063bc67eaff14610404576101a9565b80635a4a01921461035057806373cf575a1461036e5780638da5cb5b1461038c576101a9565b80633a1e0833116101665780634eb1ecc9116101405780634eb1ecc9146102ca578063500cb85f146102e6578063502c6bfa14610302578063523cddfe14610332576101a9565b80633a1e0833146102705780633d18b9121461028e57806342508f66146102ac576101a9565b80630c5f58f4146101ae57806310cde60a146101cc5780631e8aba35146101ea578063227a473b14610208578063293be4561461023857806332d4e78314610254575b600080fd5b6101b661050a565b6040516101c39190612994565b60405180910390f35b6101d46105d8565b6040516101e19190612ad7565b60405180910390f35b6101f26105de565b6040516101ff9190612ad7565b60405180910390f35b610222600480360381019061021d919061243f565b61062b565b60405161022f9190612a1c565b60405180910390f35b610252600480360381019061024d919061243f565b610bbf565b005b61026e6004803603810190610269919061243f565b610bc9565b005b610278610bd3565b60405161028591906129d8565b60405180910390f35b610296610e64565b6040516102a39190612ad7565b60405180910390f35b6102b4611173565b6040516102c191906129b6565b60405180910390f35b6102e460048036038101906102df919061246c565b611505565b005b61030060048036038101906102fb919061243f565b611527565b005b61031c6004803603810190610317919061243f565b611531565b60405161032991906128aa565b60405180910390f35b61033a611564565b6040516103479190612ad7565b60405180910390f35b61035861156a565b6040516103659190612ad7565b60405180910390f35b6103766115b9565b6040516103839190612a1c565b60405180910390f35b61039461199c565b6040516103a191906128aa565b60405180910390f35b6103b26119c0565b6040516103bf9190612ad7565b60405180910390f35b6103d0611a0a565b6040516103dd9190612ad7565b60405180910390f35b6103ee611a10565b6040516103fb91906129fa565b60405180910390f35b61040c611b83565b6040516104199190612ad7565b60405180910390f35b61042a611b89565b6040516104379190612a1c565b60405180910390f35b61045a600480360381019061045591906123e5565b611cfd565b60405161046d9796959493929190612925565b60405180910390f35b61047e611d6c565b60405161048b9190612ad7565b60405180910390f35b6104ae60048036038101906104a991906123e5565b611d72565b005b6104b8611e43565b6040516104c591906129fa565b60405180910390f35b6104d6611fb6565b6040516104e39190612ad7565b60405180910390f35b6104f4611fbc565b6040516105019190612ad7565b60405180910390f35b6060600d60003373ffffffffffffffffffffffffffffffffffffffff1673ffffffffffffffffffffffffffffffffffffffff1681526020019081526020016000206001018054806020026020016040519081016040528092919081815260200182805480156105ce57602002820191906000526020600020905b8160009054906101000a900473ffffffffffffffffffffffffffffffffffffffff1673ffffffffffffffffffffffffffffffffffffffff1681526020019060010190808311610584575b5050505050905090565b60045481565b6000600d60003373ffffffffffffffffffffffffffffffffffffffff1673ffffffffffffffffffffffffffffffffffffffff16815260200190815260200160002060010180549050905090565b6000600654821015801561064157506007548211155b610680576040517f08c379a000000000000000000000000000000000000000000000000000000000815260040161067790612a57565b60405180910390fd5b60001515600d60003373ffffffffffffffffffffffffffffffffffffffff1673ffffffffffffffffffffffffffffffffffffffff16815260200190815260200160002060080160009054906101000a900460ff16151514156107495733600c6000600454815260200190815260200160002060006101000a81548173ffffffffffffffffffffffffffffffffffffffff021916908373ffffffffffffffffffffffffffffffffffffffff1602179055506004600081548092919061074390612d44565b91905055505b6000600d60003373ffffffffffffffffffffffffffffffffffffffff1673ffffffffffffffffffffffffffffffffffffffff1681526020019081526020016000206006015414156107eb576301e13380426107a49190612be7565b600d60003373ffffffffffffffffffffffffffffffffffffffff1673ffffffffffffffffffffffffffffffffffffffff168152602001908152602001600020600901819055505b6000600d60003373ffffffffffffffffffffffffffffffffffffffff1673ffffffffffffffffffffffffffffffffffffffff16815260200190815260200160002060050154905082600d60003373ffffffffffffffffffffffffffffffffffffffff1673ffffffffffffffffffffffffffffffffffffffff16815260200190815260200160002060000160008381526020019081526020016000206000018190555042600d60003373ffffffffffffffffffffffffffffffffffffffff1673ffffffffffffffffffffffffffffffffffffffff168152602001908152602001600020600001600083815260200190815260200160002060020181905550600954426108f69190612be7565b600d60003373ffffffffffffffffffffffffffffffffffffffff1673ffffffffffffffffffffffffffffffffffffffff16815260200190815260200160002060000160008381526020019081526020016000206001018190555080600d60003373ffffffffffffffffffffffffffffffffffffffff1673ffffffffffffffffffffffffffffffffffffffff16815260200190815260200160002060000160008381526020019081526020016000206003018190555082600d60003373ffffffffffffffffffffffffffffffffffffffff1673ffffffffffffffffffffffffffffffffffffffff16815260200190815260200160002060060160008282546109fd9190612be7565b92505081905550600d60003373ffffffffffffffffffffffffffffffffffffffff1673ffffffffffffffffffffffffffffffffffffffff1681526020019081526020016000206005016000815480929190610a5790612d44565b919050555082600a6000828254610a6e9190612be7565b92505081905550600160009054906101000a900473ffffffffffffffffffffffffffffffffffffffff1673ffffffffffffffffffffffffffffffffffffffff166323b872dd3360008054906101000a900473ffffffffffffffffffffffffffffffffffffffff16670de0b6b3a764000087610ae99190612c6e565b6040518463ffffffff1660e01b8152600401610b07939291906128c5565b602060405180830381600087803b158015610b2157600080fd5b505af1158015610b35573d6000803e3d6000fd5b505050506040513d601f19601f82011682018060405250810190610b599190612412565b506001600d60003373ffffffffffffffffffffffffffffffffffffffff1673ffffffffffffffffffffffffffffffffffffffff16815260200190815260200160002060080160006101000a81548160ff0219169083151502179055506001915050919050565b8060038190555050565b8060068190555050565b60606000600d60003373ffffffffffffffffffffffffffffffffffffffff1673ffffffffffffffffffffffffffffffffffffffff16815260200190815260200160002060050154905060008060005b83811015610cab576000600d60003373ffffffffffffffffffffffffffffffffffffffff1673ffffffffffffffffffffffffffffffffffffffff1681526020019081526020016000206000016000838152602001908152602001600020600001541115610c98578280610c9490612d44565b9350505b8080610ca390612d44565b915050610c22565b5060008267ffffffffffffffff811115610cc857610cc7612e1a565b5b604051908082528060200260200182016040528015610d0157816020015b610cee612322565b815260200190600190039081610ce65790505b50905060005b84811015610e59576000600d60003373ffffffffffffffffffffffffffffffffffffffff1673ffffffffffffffffffffffffffffffffffffffff1681526020019081526020016000206000016000838152602001908152602001600020600001541115610e4657600d60003373ffffffffffffffffffffffffffffffffffffffff1673ffffffffffffffffffffffffffffffffffffffff16815260200190815260200160002060000160008281526020019081526020016000206040518060c001604052908160008201548152602001600182015481526020016002820154815260200160038201548152602001600482015481526020016005820160009054906101000a900460ff161515151581525050828481518110610e2c57610e2b612deb565b5b60200260200101819052508280610e4290612d44565b9350505b8080610e5190612d44565b915050610d07565b508094505050505090565b6000806000806000600d60003373ffffffffffffffffffffffffffffffffffffffff1673ffffffffffffffffffffffffffffffffffffffff16815260200190815260200160002060050154905060005b8181101561111857600d60003373ffffffffffffffffffffffffffffffffffffffff1673ffffffffffffffffffffffffffffffffffffffff168152602001908152602001600020600001600082815260200190815260200160002060050160009054906101000a900460ff16610f8d57600d60003373ffffffffffffffffffffffffffffffffffffffff1673ffffffffffffffffffffffffffffffffffffffff16815260200190815260200160002060000160008281526020019081526020016000206002015442610f869190612cc8565b9350611048565b600d60003373ffffffffffffffffffffffffffffffffffffffff1673ffffffffffffffffffffffffffffffffffffffff168152602001908152602001600020600001600082815260200190815260200160002060020154600d60003373ffffffffffffffffffffffffffffffffffffffff1673ffffffffffffffffffffffffffffffffffffffff1681526020019081526020016000206000016000838152602001908152602001600020600401546110459190612cc8565b93505b603c846110559190612c3d565b93506000841115611105576064600a546064600d60003373ffffffffffffffffffffffffffffffffffffffff1673ffffffffffffffffffffffffffffffffffffffff1681526020019081526020016000206000016000858152602001908152602001600020600001546110c89190612c6e565b6110d29190612c3d565b6003546110df9190612c6e565b6110e99190612c3d565b925082846110f79190612c6e565b856111029190612be7565b94505b808061111090612d44565b915050610eb4565b50600d60003373ffffffffffffffffffffffffffffffffffffffff1673ffffffffffffffffffffffffffffffffffffffff16815260200190815260200160002060070154846111679190612cc8565b93508394505050505090565b6060600060045467ffffffffffffffff81111561119357611192612e1a565b5b6040519080825280602002602001820160405280156111cc57816020015b6111b961235a565b8152602001906001900390816111b15790505b50905060005b6004548110156114fd57600c600082815260200190815260200160002060009054906101000a900473ffffffffffffffffffffffffffffffffffffffff1682828151811061122357611222612deb565b5b60200260200101516000019073ffffffffffffffffffffffffffffffffffffffff16908173ffffffffffffffffffffffffffffffffffffffff1681525050600d6000600c600084815260200190815260200160002060009054906101000a900473ffffffffffffffffffffffffffffffffffffffff1673ffffffffffffffffffffffffffffffffffffffff1673ffffffffffffffffffffffffffffffffffffffff168152602001908152602001600020600601548282815181106112ea576112e9612deb565b5b60200260200101516020018181525050611336600c600083815260200190815260200160002060009054906101000a900473ffffffffffffffffffffffffffffffffffffffff16611fc2565b82828151811061134957611348612deb565b5b60200260200101516040018181525050600d6000600c600084815260200190815260200160002060009054906101000a900473ffffffffffffffffffffffffffffffffffffffff1673ffffffffffffffffffffffffffffffffffffffff1673ffffffffffffffffffffffffffffffffffffffff168152602001908152602001600020600501548282815181106113e2576113e1612deb565b5b60200260200101516060018181525050600d6000600c600084815260200190815260200160002060009054906101000a900473ffffffffffffffffffffffffffffffffffffffff1673ffffffffffffffffffffffffffffffffffffffff1673ffffffffffffffffffffffffffffffffffffffff1681526020019081526020016000206007015482828151811061147b5761147a612deb565b5b602002602001015160800181815250506114c7600c600083815260200190815260200160002060009054906101000a900473ffffffffffffffffffffffffffffffffffffffff166122d3565b8282815181106114da576114d9612deb565b5b602002602001015160a001818152505080806114f590612d44565b9150506111d2565b508091505090565b8260078190555083600681905550816005819055508060088190555050505050565b8060078190555050565b600c6020528060005260406000206000915054906101000a900473ffffffffffffffffffffffffffffffffffffffff1681565b60095481565b600080600d60003373ffffffffffffffffffffffffffffffffffffffff1673ffffffffffffffffffffffffffffffffffffffff1681526020019081526020016000206007015490508091505090565b600080600d60003373ffffffffffffffffffffffffffffffffffffffff1673ffffffffffffffffffffffffffffffffffffffff168152602001908152602001600020600601541161163f576040517f08c379a000000000000000000000000000000000000000000000000000000000815260040161163690612a37565b60405180910390fd5b42600d60003373ffffffffffffffffffffffffffffffffffffffff1673ffffffffffffffffffffffffffffffffffffffff16815260200190815260200160002060090154106116c3576040517f08c379a00000000000000000000000000000000000000000000000000000000081526004016116ba90612a97565b60405180910390fd5b6000600d60003373ffffffffffffffffffffffffffffffffffffffff1673ffffffffffffffffffffffffffffffffffffffff1681526020019081526020016000206006015490506000600d60003373ffffffffffffffffffffffffffffffffffffffff1673ffffffffffffffffffffffffffffffffffffffff1681526020019081526020016000206005015490506000600b549050600160009054906101000a900473ffffffffffffffffffffffffffffffffffffffff1673ffffffffffffffffffffffffffffffffffffffff1663a9059cbb336305f5e100866117a79190612c6e565b6040518363ffffffff1660e01b81526004016117c49291906128fc565b602060405180830381600087803b1580156117de57600080fd5b505af11580156117f2573d6000803e3d6000fd5b505050506040513d601f19601f820116820180604052508101906118169190612412565b50600090505b81811015611901576001600d60003373ffffffffffffffffffffffffffffffffffffffff1673ffffffffffffffffffffffffffffffffffffffff168152602001908152602001600020600001600083815260200190815260200160002060050160006101000a81548160ff02191690831515021790555042600d60003373ffffffffffffffffffffffffffffffffffffffff1673ffffffffffffffffffffffffffffffffffffffff16815260200190815260200160002060000160008381526020019081526020016000206004018190555080806118f990612d44565b91505061181c565b600d60003373ffffffffffffffffffffffffffffffffffffffff1673ffffffffffffffffffffffffffffffffffffffff16815260200190815260200160002060050154600b819055506000600d60003373ffffffffffffffffffffffffffffffffffffffff1673ffffffffffffffffffffffffffffffffffffffff168152602001908152602001600020600601819055506001935050505090565b60008054906101000a900473ffffffffffffffffffffffffffffffffffffffff1681565b6000600d60003373ffffffffffffffffffffffffffffffffffffffff1673ffffffffffffffffffffffffffffffffffffffff16815260200190815260200160002060060154905090565b60085481565b60606000601467ffffffffffffffff811115611a2f57611a2e612e1a565b5b604051908082528060200260200182016040528015611a5d5781602001602082028036833780820191505090505b50905060005b6014811015611b7b576000600d60003373ffffffffffffffffffffffffffffffffffffffff1673ffffffffffffffffffffffffffffffffffffffff1681526020019081526020016000206003016000838152602001908152602001600020600001541115611b4657600d60003373ffffffffffffffffffffffffffffffffffffffff1673ffffffffffffffffffffffffffffffffffffffff168152602001908152602001600020600301600082815260200190815260200160002060000154828281518110611b3557611b34612deb565b5b602002602001018181525050611b68565b6000828281518110611b5b57611b5a612deb565b5b6020026020010181815250505b8080611b7390612d44565b915050611a63565b508091505090565b60065481565b600080611b94610e64565b905060008111611bd9576040517f08c379a0000000000000000000000000000000000000000000000000000000008152600401611bd090612a77565b60405180910390fd5b600260009054906101000a900473ffffffffffffffffffffffffffffffffffffffff1673ffffffffffffffffffffffffffffffffffffffff1663a9059cbb33670de0b6b3a764000084611c2c9190612c6e565b6040518363ffffffff1660e01b8152600401611c499291906128fc565b602060405180830381600087803b158015611c6357600080fd5b505af1158015611c77573d6000803e3d6000fd5b505050506040513d601f19601f82011682018060405250810190611c9b9190612412565b5080600d60003373ffffffffffffffffffffffffffffffffffffffff1673ffffffffffffffffffffffffffffffffffffffff1681526020019081526020016000206007016000828254611cee9190612be7565b92505081905550600191505090565b600d6020528060005260406000206000915090508060020160009054906101000a900473ffffffffffffffffffffffffffffffffffffffff16908060040154908060050154908060060154908060070154908060080160009054906101000a900460ff16908060090154905087565b600a5481565b60008054906101000a900473ffffffffffffffffffffffffffffffffffffffff1673ffffffffffffffffffffffffffffffffffffffff163373ffffffffffffffffffffffffffffffffffffffff1614611e00576040517f08c379a0000000000000000000000000000000000000000000000000000000008152600401611df790612ab7565b60405180910390fd5b806000806101000a81548173ffffffffffffffffffffffffffffffffffffffff021916908373ffffffffffffffffffffffffffffffffffffffff16021790555050565b60606000601467ffffffffffffffff811115611e6257611e61612e1a565b5b604051908082528060200260200182016040528015611e905781602001602082028036833780820191505090505b50905060005b6014811015611fae576000600d60003373ffffffffffffffffffffffffffffffffffffffff1673ffffffffffffffffffffffffffffffffffffffff1681526020019081526020016000206003016000838152602001908152602001600020600001541115611f7957600d60003373ffffffffffffffffffffffffffffffffffffffff1673ffffffffffffffffffffffffffffffffffffffff168152602001908152602001600020600301600082815260200190815260200160002060010154828281518110611f6857611f67612deb565b5b602002602001018181525050611f9b565b6000828281518110611f8e57611f8d612deb565b5b6020026020010181815250505b8080611fa690612d44565b915050611e96565b508091505090565b60055481565b60075481565b6000806000806000600d60008773ffffffffffffffffffffffffffffffffffffffff1673ffffffffffffffffffffffffffffffffffffffff16815260200190815260200160002060050154905060005b8181101561227657600d60008873ffffffffffffffffffffffffffffffffffffffff1673ffffffffffffffffffffffffffffffffffffffff168152602001908152602001600020600001600082815260200190815260200160002060050160009054906101000a900460ff166120eb57600d60008873ffffffffffffffffffffffffffffffffffffffff1673ffffffffffffffffffffffffffffffffffffffff168152602001908152602001600020600001600082815260200190815260200160002060020154426120e49190612cc8565b93506121a6565b600d60008873ffffffffffffffffffffffffffffffffffffffff1673ffffffffffffffffffffffffffffffffffffffff168152602001908152602001600020600001600082815260200190815260200160002060020154600d60008973ffffffffffffffffffffffffffffffffffffffff1673ffffffffffffffffffffffffffffffffffffffff1681526020019081526020016000206000016000838152602001908152602001600020600401546121a39190612cc8565b93505b603c846121b39190612c3d565b93506000841115612263576064600a546064600d60008b73ffffffffffffffffffffffffffffffffffffffff1673ffffffffffffffffffffffffffffffffffffffff1681526020019081526020016000206000016000858152602001908152602001600020600001546122269190612c6e565b6122309190612c3d565b60035461223d9190612c6e565b6122479190612c3d565b925082846122559190612c6e565b856122609190612be7565b94505b808061226e90612d44565b915050612012565b50600d60008773ffffffffffffffffffffffffffffffffffffffff1673ffffffffffffffffffffffffffffffffffffffff16815260200190815260200160002060070154846122c59190612cc8565b935083945050505050919050565b6000600d60008373ffffffffffffffffffffffffffffffffffffffff1673ffffffffffffffffffffffffffffffffffffffff168152602001908152602001600020600101805490509050919050565b6040518060c0016040528060008152602001600081526020016000815260200160008152602001600081526020016000151581525090565b6040518060c00160405280600073ffffffffffffffffffffffffffffffffffffffff16815260200160008152602001600081526020016000815260200160008152602001600081525090565b6000813590506123b581612fb3565b92915050565b6000815190506123ca81612fca565b92915050565b6000813590506123df81612fe1565b92915050565b6000602082840312156123fb576123fa612e49565b5b6000612409848285016123a6565b91505092915050565b60006020828403121561242857612427612e49565b5b6000612436848285016123bb565b91505092915050565b60006020828403121561245557612454612e49565b5b6000612463848285016123d0565b91505092915050565b6000806000806080858703121561248657612485612e49565b5b6000612494878288016123d0565b94505060206124a5878288016123d0565b93505060406124b6878288016123d0565b92505060606124c7878288016123d0565b91505092959194509250565b60006124df8383612533565b60208301905092915050565b60006124f78383612796565b60c08301905092915050565b600061250f8383612811565b60c08301905092915050565b6000612527838361288c565b60208301905092915050565b61253c81612cfc565b82525050565b61254b81612cfc565b82525050565b600061255c82612b32565b6125668185612b92565b935061257183612af2565b8060005b838110156125a257815161258988826124d3565b975061259483612b5e565b925050600181019050612575565b5085935050505092915050565b60006125ba82612b3d565b6125c48185612ba3565b93506125cf83612b02565b8060005b838110156126005781516125e788826124eb565b97506125f283612b6b565b9250506001810190506125d3565b5085935050505092915050565b600061261882612b48565b6126228185612bb4565b935061262d83612b12565b8060005b8381101561265e5781516126458882612503565b975061265083612b78565b925050600181019050612631565b5085935050505092915050565b600061267682612b53565b6126808185612bc5565b935061268b83612b22565b8060005b838110156126bc5781516126a3888261251b565b97506126ae83612b85565b92505060018101905061268f565b5085935050505092915050565b6126d281612d0e565b82525050565b6126e181612d0e565b82525050565b60006126f4602583612bd6565b91506126ff82612e4e565b604082019050919050565b6000612717603583612bd6565b915061272282612e9d565b604082019050919050565b600061273a602283612bd6565b915061274582612eec565b604082019050919050565b600061275d601f83612bd6565b915061276882612f3b565b602082019050919050565b6000612780602183612bd6565b915061278b82612f64565b604082019050919050565b60c0820160008201516127ac6000850182612533565b5060208201516127bf602085018261288c565b5060408201516127d2604085018261288c565b5060608201516127e5606085018261288c565b5060808201516127f8608085018261288c565b5060a082015161280b60a085018261288c565b50505050565b60c082016000820151612827600085018261288c565b50602082015161283a602085018261288c565b50604082015161284d604085018261288c565b506060820151612860606085018261288c565b506080820151612873608085018261288c565b5060a082015161288660a08501826126c9565b50505050565b61289581612d3a565b82525050565b6128a481612d3a565b82525050565b60006020820190506128bf6000830184612542565b92915050565b60006060820190506128da6000830186612542565b6128e76020830185612542565b6128f4604083018461289b565b949350505050565b60006040820190506129116000830185612542565b61291e602083018461289b565b9392505050565b600060e08201905061293a600083018a612542565b612947602083018961289b565b612954604083018861289b565b612961606083018761289b565b61296e608083018661289b565b61297b60a08301856126d8565b61298860c083018461289b565b98975050505050505050565b600060208201905081810360008301526129ae8184612551565b905092915050565b600060208201905081810360008301526129d081846125af565b905092915050565b600060208201905081810360008301526129f2818461260d565b905092915050565b60006020820190508181036000830152612a14818461266b565b905092915050565b6000602082019050612a3160008301846126d8565b92915050565b60006020820190508181036000830152612a50816126e7565b9050919050565b60006020820190508181036000830152612a708161270a565b9050919050565b60006020820190508181036000830152612a908161272d565b9050919050565b60006020820190508181036000830152612ab081612750565b9050919050565b60006020820190508181036000830152612ad081612773565b9050919050565b6000602082019050612aec600083018461289b565b92915050565b6000819050602082019050919050565b6000819050602082019050919050565b6000819050602082019050919050565b6000819050602082019050919050565b600081519050919050565b600081519050919050565b600081519050919050565b600081519050919050565b6000602082019050919050565b6000602082019050919050565b6000602082019050919050565b6000602082019050919050565b600082825260208201905092915050565b600082825260208201905092915050565b600082825260208201905092915050565b600082825260208201905092915050565b600082825260208201905092915050565b6000612bf282612d3a565b9150612bfd83612d3a565b9250827fffffffffffffffffffffffffffffffffffffffffffffffffffffffffffffffff03821115612c3257612c31612d8d565b5b828201905092915050565b6000612c4882612d3a565b9150612c5383612d3a565b925082612c6357612c62612dbc565b5b828204905092915050565b6000612c7982612d3a565b9150612c8483612d3a565b9250817fffffffffffffffffffffffffffffffffffffffffffffffffffffffffffffffff0483118215151615612cbd57612cbc612d8d565b5b828202905092915050565b6000612cd382612d3a565b9150612cde83612d3a565b925082821015612cf157612cf0612d8d565b5b828203905092915050565b6000612d0782612d1a565b9050919050565b60008115159050919050565b600073ffffffffffffffffffffffffffffffffffffffff82169050919050565b6000819050919050565b6000612d4f82612d3a565b91507fffffffffffffffffffffffffffffffffffffffffffffffffffffffffffffffff821415612d8257612d81612d8d565b5b600182019050919050565b7f4e487b7100000000000000000000000000000000000000000000000000000000600052601160045260246000fd5b7f4e487b7100000000000000000000000000000000000000000000000000000000600052601260045260246000fd5b7f4e487b7100000000000000000000000000000000000000000000000000000000600052603260045260246000fd5b7f4e487b7100000000000000000000000000000000000000000000000000000000600052604160045260246000fd5b600080fd5b7f796f7520646f6e74206861766520696e766573746d656e7420746f207769746860008201527f647261776e000000000000000000000000000000000000000000000000000000602082015250565b7f76616c7565206973206e6f742067726561746572207468616e2031303030302060008201527f616e64206c657373207468616e20353030303030300000000000000000000000602082015250565b7f796f7520646f6e742068617665207265776172647320746f207769746864726160008201527f776e000000000000000000000000000000000000000000000000000000000000602082015250565b7f796f752063616e74207769746864726177206265666f72652031207965617200600082015250565b7f6f6e6c79204f776e65722063616e2063616c6c20746869732066756e6374696f60008201527f6e00000000000000000000000000000000000000000000000000000000000000602082015250565b612fbc81612cfc565b8114612fc757600080fd5b50565b612fd381612d0e565b8114612fde57600080fd5b50565b612fea81612d3a565b8114612ff557600080fd5b5056fea26469706673582212201331db1fadbd526f36ce8d4797eeed9eeff46298e2d1a1e06fa3e1cb4281f97e64736f6c63430008070033",
					"opcodes": "PUSH1 0x80 PUSH1 0x40 MSTORE PUSH20 0xE9E7CEA3DEDCA5984780BAFC599BD69ADD087D56 PUSH1 0x1 PUSH1 0x0 PUSH2 0x100 EXP DUP2 SLOAD DUP2 PUSH20 0xFFFFFFFFFFFFFFFFFFFFFFFFFFFFFFFFFFFFFFFF MUL NOT AND SWAP1 DUP4 PUSH20 0xFFFFFFFFFFFFFFFFFFFFFFFFFFFFFFFFFFFFFFFF AND MUL OR SWAP1 SSTORE POP PUSH20 0xE9E7CEA3DEDCA5984780BAFC599BD69ADD087D56 PUSH1 0x2 PUSH1 0x0 PUSH2 0x100 EXP DUP2 SLOAD DUP2 PUSH20 0xFFFFFFFFFFFFFFFFFFFFFFFFFFFFFFFFFFFFFFFF MUL NOT AND SWAP1 DUP4 PUSH20 0xFFFFFFFFFFFFFFFFFFFFFFFFFFFFFFFFFFFFFFFF AND MUL OR SWAP1 SSTORE POP PUSH1 0xBF PUSH1 0x3 SSTORE PUSH8 0x4563918244F40000 PUSH1 0x5 SSTORE PUSH2 0x2710 PUSH1 0x6 SSTORE PUSH3 0x4C4B40 PUSH1 0x7 SSTORE PUSH3 0x186A0 PUSH1 0x8 SSTORE PUSH4 0x1E13380 PUSH1 0x9 SSTORE CALLVALUE DUP1 ISZERO PUSH2 0xE7 JUMPI PUSH1 0x0 DUP1 REVERT JUMPDEST POP CALLER PUSH1 0x0 DUP1 PUSH2 0x100 EXP DUP2 SLOAD DUP2 PUSH20 0xFFFFFFFFFFFFFFFFFFFFFFFFFFFFFFFFFFFFFFFF MUL NOT AND SWAP1 DUP4 PUSH20 0xFFFFFFFFFFFFFFFFFFFFFFFFFFFFFFFFFFFFFFFF AND MUL OR SWAP1 SSTORE POP PUSH2 0x302E DUP1 PUSH2 0x137 PUSH1 0x0 CODECOPY PUSH1 0x0 RETURN INVALID PUSH1 0x80 PUSH1 0x40 MSTORE CALLVALUE DUP1 ISZERO PUSH2 0x10 JUMPI PUSH1 0x0 DUP1 REVERT JUMPDEST POP PUSH1 0x4 CALLDATASIZE LT PUSH2 0x1A9 JUMPI PUSH1 0x0 CALLDATALOAD PUSH1 0xE0 SHR DUP1 PUSH4 0x5A4A0192 GT PUSH2 0xF9 JUMPI DUP1 PUSH4 0xC885BC58 GT PUSH2 0x97 JUMPI DUP1 PUSH4 0xF2FDE38B GT PUSH2 0x71 JUMPI DUP1 PUSH4 0xF2FDE38B EQ PUSH2 0x494 JUMPI DUP1 PUSH4 0xF790B81A EQ PUSH2 0x4B0 JUMPI DUP1 PUSH4 0xF7C618C1 EQ PUSH2 0x4CE JUMPI DUP1 PUSH4 0xFAE730BC EQ PUSH2 0x4EC JUMPI PUSH2 0x1A9 JUMP JUMPDEST DUP1 PUSH4 0xC885BC58 EQ PUSH2 0x422 JUMPI DUP1 PUSH4 0xD3560EE8 EQ PUSH2 0x440 JUMPI DUP1 PUSH4 0xE2033FCB EQ PUSH2 0x476 JUMPI PUSH2 0x1A9 JUMP JUMPDEST DUP1 PUSH4 0x929F6BBE GT PUSH2 0xD3 JUMPI DUP1 PUSH4 0x929F6BBE EQ PUSH2 0x3AA JUMPI DUP1 PUSH4 0x9740A1BC EQ PUSH2 0x3C8 JUMPI DUP1 PUSH4 0xA61BE99D EQ PUSH2 0x3E6 JUMPI DUP1 PUSH4 0xBC67EAFF EQ PUSH2 0x404 JUMPI PUSH2 0x1A9 JUMP JUMPDEST DUP1 PUSH4 0x5A4A0192 EQ PUSH2 0x350 JUMPI DUP1 PUSH4 0x73CF575A EQ PUSH2 0x36E JUMPI DUP1 PUSH4 0x8DA5CB5B EQ PUSH2 0x38C JUMPI PUSH2 0x1A9 JUMP JUMPDEST DUP1 PUSH4 0x3A1E0833 GT PUSH2 0x166 JUMPI DUP1 PUSH4 0x4EB1ECC9 GT PUSH2 0x140 JUMPI DUP1 PUSH4 0x4EB1ECC9 EQ PUSH2 0x2CA JUMPI DUP1 PUSH4 0x500CB85F EQ PUSH2 0x2E6 JUMPI DUP1 PUSH4 0x502C6BFA EQ PUSH2 0x302 JUMPI DUP1 PUSH4 0x523CDDFE EQ PUSH2 0x332 JUMPI PUSH2 0x1A9 JUMP JUMPDEST DUP1 PUSH4 0x3A1E0833 EQ PUSH2 0x270 JUMPI DUP1 PUSH4 0x3D18B912 EQ PUSH2 0x28E JUMPI DUP1 PUSH4 0x42508F66 EQ PUSH2 0x2AC JUMPI PUSH2 0x1A9 JUMP JUMPDEST DUP1 PUSH4 0xC5F58F4 EQ PUSH2 0x1AE JUMPI DUP1 PUSH4 0x10CDE60A EQ PUSH2 0x1CC JUMPI DUP1 PUSH4 0x1E8ABA35 EQ PUSH2 0x1EA JUMPI DUP1 PUSH4 0x227A473B EQ PUSH2 0x208 JUMPI DUP1 PUSH4 0x293BE456 EQ PUSH2 0x238 JUMPI DUP1 PUSH4 0x32D4E783 EQ PUSH2 0x254 JUMPI JUMPDEST PUSH1 0x0 DUP1 REVERT JUMPDEST PUSH2 0x1B6 PUSH2 0x50A JUMP JUMPDEST PUSH1 0x40 MLOAD PUSH2 0x1C3 SWAP2 SWAP1 PUSH2 0x2994 JUMP JUMPDEST PUSH1 0x40 MLOAD DUP1 SWAP2 SUB SWAP1 RETURN JUMPDEST PUSH2 0x1D4 PUSH2 0x5D8 JUMP JUMPDEST PUSH1 0x40 MLOAD PUSH2 0x1E1 SWAP2 SWAP1 PUSH2 0x2AD7 JUMP JUMPDEST PUSH1 0x40 MLOAD DUP1 SWAP2 SUB SWAP1 RETURN JUMPDEST PUSH2 0x1F2 PUSH2 0x5DE JUMP JUMPDEST PUSH1 0x40 MLOAD PUSH2 0x1FF SWAP2 SWAP1 PUSH2 0x2AD7 JUMP JUMPDEST PUSH1 0x40 MLOAD DUP1 SWAP2 SUB SWAP1 RETURN JUMPDEST PUSH2 0x222 PUSH1 0x4 DUP1 CALLDATASIZE SUB DUP2 ADD SWAP1 PUSH2 0x21D SWAP2 SWAP1 PUSH2 0x243F JUMP JUMPDEST PUSH2 0x62B JUMP JUMPDEST PUSH1 0x40 MLOAD PUSH2 0x22F SWAP2 SWAP1 PUSH2 0x2A1C JUMP JUMPDEST PUSH1 0x40 MLOAD DUP1 SWAP2 SUB SWAP1 RETURN JUMPDEST PUSH2 0x252 PUSH1 0x4 DUP1 CALLDATASIZE SUB DUP2 ADD SWAP1 PUSH2 0x24D SWAP2 SWAP1 PUSH2 0x243F JUMP JUMPDEST PUSH2 0xBBF JUMP JUMPDEST STOP JUMPDEST PUSH2 0x26E PUSH1 0x4 DUP1 CALLDATASIZE SUB DUP2 ADD SWAP1 PUSH2 0x269 SWAP2 SWAP1 PUSH2 0x243F JUMP JUMPDEST PUSH2 0xBC9 JUMP JUMPDEST STOP JUMPDEST PUSH2 0x278 PUSH2 0xBD3 JUMP JUMPDEST PUSH1 0x40 MLOAD PUSH2 0x285 SWAP2 SWAP1 PUSH2 0x29D8 JUMP JUMPDEST PUSH1 0x40 MLOAD DUP1 SWAP2 SUB SWAP1 RETURN JUMPDEST PUSH2 0x296 PUSH2 0xE64 JUMP JUMPDEST PUSH1 0x40 MLOAD PUSH2 0x2A3 SWAP2 SWAP1 PUSH2 0x2AD7 JUMP JUMPDEST PUSH1 0x40 MLOAD DUP1 SWAP2 SUB SWAP1 RETURN JUMPDEST PUSH2 0x2B4 PUSH2 0x1173 JUMP JUMPDEST PUSH1 0x40 MLOAD PUSH2 0x2C1 SWAP2 SWAP1 PUSH2 0x29B6 JUMP JUMPDEST PUSH1 0x40 MLOAD DUP1 SWAP2 SUB SWAP1 RETURN JUMPDEST PUSH2 0x2E4 PUSH1 0x4 DUP1 CALLDATASIZE SUB DUP2 ADD SWAP1 PUSH2 0x2DF SWAP2 SWAP1 PUSH2 0x246C JUMP JUMPDEST PUSH2 0x1505 JUMP JUMPDEST STOP JUMPDEST PUSH2 0x300 PUSH1 0x4 DUP1 CALLDATASIZE SUB DUP2 ADD SWAP1 PUSH2 0x2FB SWAP2 SWAP1 PUSH2 0x243F JUMP JUMPDEST PUSH2 0x1527 JUMP JUMPDEST STOP JUMPDEST PUSH2 0x31C PUSH1 0x4 DUP1 CALLDATASIZE SUB DUP2 ADD SWAP1 PUSH2 0x317 SWAP2 SWAP1 PUSH2 0x243F JUMP JUMPDEST PUSH2 0x1531 JUMP JUMPDEST PUSH1 0x40 MLOAD PUSH2 0x329 SWAP2 SWAP1 PUSH2 0x28AA JUMP JUMPDEST PUSH1 0x40 MLOAD DUP1 SWAP2 SUB SWAP1 RETURN JUMPDEST PUSH2 0x33A PUSH2 0x1564 JUMP JUMPDEST PUSH1 0x40 MLOAD PUSH2 0x347 SWAP2 SWAP1 PUSH2 0x2AD7 JUMP JUMPDEST PUSH1 0x40 MLOAD DUP1 SWAP2 SUB SWAP1 RETURN JUMPDEST PUSH2 0x358 PUSH2 0x156A JUMP JUMPDEST PUSH1 0x40 MLOAD PUSH2 0x365 SWAP2 SWAP1 PUSH2 0x2AD7 JUMP JUMPDEST PUSH1 0x40 MLOAD DUP1 SWAP2 SUB SWAP1 RETURN JUMPDEST PUSH2 0x376 PUSH2 0x15B9 JUMP JUMPDEST PUSH1 0x40 MLOAD PUSH2 0x383 SWAP2 SWAP1 PUSH2 0x2A1C JUMP JUMPDEST PUSH1 0x40 MLOAD DUP1 SWAP2 SUB SWAP1 RETURN JUMPDEST PUSH2 0x394 PUSH2 0x199C JUMP JUMPDEST PUSH1 0x40 MLOAD PUSH2 0x3A1 SWAP2 SWAP1 PUSH2 0x28AA JUMP JUMPDEST PUSH1 0x40 MLOAD DUP1 SWAP2 SUB SWAP1 RETURN JUMPDEST PUSH2 0x3B2 PUSH2 0x19C0 JUMP JUMPDEST PUSH1 0x40 MLOAD PUSH2 0x3BF SWAP2 SWAP1 PUSH2 0x2AD7 JUMP JUMPDEST PUSH1 0x40 MLOAD DUP1 SWAP2 SUB SWAP1 RETURN JUMPDEST PUSH2 0x3D0 PUSH2 0x1A0A JUMP JUMPDEST PUSH1 0x40 MLOAD PUSH2 0x3DD SWAP2 SWAP1 PUSH2 0x2AD7 JUMP JUMPDEST PUSH1 0x40 MLOAD DUP1 SWAP2 SUB SWAP1 RETURN JUMPDEST PUSH2 0x3EE PUSH2 0x1A10 JUMP JUMPDEST PUSH1 0x40 MLOAD PUSH2 0x3FB SWAP2 SWAP1 PUSH2 0x29FA JUMP JUMPDEST PUSH1 0x40 MLOAD DUP1 SWAP2 SUB SWAP1 RETURN JUMPDEST PUSH2 0x40C PUSH2 0x1B83 JUMP JUMPDEST PUSH1 0x40 MLOAD PUSH2 0x419 SWAP2 SWAP1 PUSH2 0x2AD7 JUMP JUMPDEST PUSH1 0x40 MLOAD DUP1 SWAP2 SUB SWAP1 RETURN JUMPDEST PUSH2 0x42A PUSH2 0x1B89 JUMP JUMPDEST PUSH1 0x40 MLOAD PUSH2 0x437 SWAP2 SWAP1 PUSH2 0x2A1C JUMP JUMPDEST PUSH1 0x40 MLOAD DUP1 SWAP2 SUB SWAP1 RETURN JUMPDEST PUSH2 0x45A PUSH1 0x4 DUP1 CALLDATASIZE SUB DUP2 ADD SWAP1 PUSH2 0x455 SWAP2 SWAP1 PUSH2 0x23E5 JUMP JUMPDEST PUSH2 0x1CFD JUMP JUMPDEST PUSH1 0x40 MLOAD PUSH2 0x46D SWAP8 SWAP7 SWAP6 SWAP5 SWAP4 SWAP3 SWAP2 SWAP1 PUSH2 0x2925 JUMP JUMPDEST PUSH1 0x40 MLOAD DUP1 SWAP2 SUB SWAP1 RETURN JUMPDEST PUSH2 0x47E PUSH2 0x1D6C JUMP JUMPDEST PUSH1 0x40 MLOAD PUSH2 0x48B SWAP2 SWAP1 PUSH2 0x2AD7 JUMP JUMPDEST PUSH1 0x40 MLOAD DUP1 SWAP2 SUB SWAP1 RETURN JUMPDEST PUSH2 0x4AE PUSH1 0x4 DUP1 CALLDATASIZE SUB DUP2 ADD SWAP1 PUSH2 0x4A9 SWAP2 SWAP1 PUSH2 0x23E5 JUMP JUMPDEST PUSH2 0x1D72 JUMP JUMPDEST STOP JUMPDEST PUSH2 0x4B8 PUSH2 0x1E43 JUMP JUMPDEST PUSH1 0x40 MLOAD PUSH2 0x4C5 SWAP2 SWAP1 PUSH2 0x29FA JUMP JUMPDEST PUSH1 0x40 MLOAD DUP1 SWAP2 SUB SWAP1 RETURN JUMPDEST PUSH2 0x4D6 PUSH2 0x1FB6 JUMP JUMPDEST PUSH1 0x40 MLOAD PUSH2 0x4E3 SWAP2 SWAP1 PUSH2 0x2AD7 JUMP JUMPDEST PUSH1 0x40 MLOAD DUP1 SWAP2 SUB SWAP1 RETURN JUMPDEST PUSH2 0x4F4 PUSH2 0x1FBC JUMP JUMPDEST PUSH1 0x40 MLOAD PUSH2 0x501 SWAP2 SWAP1 PUSH2 0x2AD7 JUMP JUMPDEST PUSH1 0x40 MLOAD DUP1 SWAP2 SUB SWAP1 RETURN JUMPDEST PUSH1 0x60 PUSH1 0xD PUSH1 0x0 CALLER PUSH20 0xFFFFFFFFFFFFFFFFFFFFFFFFFFFFFFFFFFFFFFFF AND PUSH20 0xFFFFFFFFFFFFFFFFFFFFFFFFFFFFFFFFFFFFFFFF AND DUP2 MSTORE PUSH1 0x20 ADD SWAP1 DUP2 MSTORE PUSH1 0x20 ADD PUSH1 0x0 KECCAK256 PUSH1 0x1 ADD DUP1 SLOAD DUP1 PUSH1 0x20 MUL PUSH1 0x20 ADD PUSH1 0x40 MLOAD SWAP1 DUP2 ADD PUSH1 0x40 MSTORE DUP1 SWAP3 SWAP2 SWAP1 DUP2 DUP2 MSTORE PUSH1 0x20 ADD DUP3 DUP1 SLOAD DUP1 ISZERO PUSH2 0x5CE JUMPI PUSH1 0x20 MUL DUP3 ADD SWAP2 SWAP1 PUSH1 0x0 MSTORE PUSH1 0x20 PUSH1 0x0 KECCAK256 SWAP1 JUMPDEST DUP2 PUSH1 0x0 SWAP1 SLOAD SWAP1 PUSH2 0x100 EXP SWAP1 DIV PUSH20 0xFFFFFFFFFFFFFFFFFFFFFFFFFFFFFFFFFFFFFFFF AND PUSH20 0xFFFFFFFFFFFFFFFFFFFFFFFFFFFFFFFFFFFFFFFF AND DUP2 MSTORE PUSH1 0x20 ADD SWAP1 PUSH1 0x1 ADD SWAP1 DUP1 DUP4 GT PUSH2 0x584 JUMPI JUMPDEST POP POP POP POP POP SWAP1 POP SWAP1 JUMP JUMPDEST PUSH1 0x4 SLOAD DUP2 JUMP JUMPDEST PUSH1 0x0 PUSH1 0xD PUSH1 0x0 CALLER PUSH20 0xFFFFFFFFFFFFFFFFFFFFFFFFFFFFFFFFFFFFFFFF AND PUSH20 0xFFFFFFFFFFFFFFFFFFFFFFFFFFFFFFFFFFFFFFFF AND DUP2 MSTORE PUSH1 0x20 ADD SWAP1 DUP2 MSTORE PUSH1 0x20 ADD PUSH1 0x0 KECCAK256 PUSH1 0x1 ADD DUP1 SLOAD SWAP1 POP SWAP1 POP SWAP1 JUMP JUMPDEST PUSH1 0x0 PUSH1 0x6 SLOAD DUP3 LT ISZERO DUP1 ISZERO PUSH2 0x641 JUMPI POP PUSH1 0x7 SLOAD DUP3 GT ISZERO JUMPDEST PUSH2 0x680 JUMPI PUSH1 0x40 MLOAD PUSH32 0x8C379A000000000000000000000000000000000000000000000000000000000 DUP2 MSTORE PUSH1 0x4 ADD PUSH2 0x677 SWAP1 PUSH2 0x2A57 JUMP JUMPDEST PUSH1 0x40 MLOAD DUP1 SWAP2 SUB SWAP1 REVERT JUMPDEST PUSH1 0x0 ISZERO ISZERO PUSH1 0xD PUSH1 0x0 CALLER PUSH20 0xFFFFFFFFFFFFFFFFFFFFFFFFFFFFFFFFFFFFFFFF AND PUSH20 0xFFFFFFFFFFFFFFFFFFFFFFFFFFFFFFFFFFFFFFFF AND DUP2 MSTORE PUSH1 0x20 ADD SWAP1 DUP2 MSTORE PUSH1 0x20 ADD PUSH1 0x0 KECCAK256 PUSH1 0x8 ADD PUSH1 0x0 SWAP1 SLOAD SWAP1 PUSH2 0x100 EXP SWAP1 DIV PUSH1 0xFF AND ISZERO ISZERO EQ ISZERO PUSH2 0x749 JUMPI CALLER PUSH1 0xC PUSH1 0x0 PUSH1 0x4 SLOAD DUP2 MSTORE PUSH1 0x20 ADD SWAP1 DUP2 MSTORE PUSH1 0x20 ADD PUSH1 0x0 KECCAK256 PUSH1 0x0 PUSH2 0x100 EXP DUP2 SLOAD DUP2 PUSH20 0xFFFFFFFFFFFFFFFFFFFFFFFFFFFFFFFFFFFFFFFF MUL NOT AND SWAP1 DUP4 PUSH20 0xFFFFFFFFFFFFFFFFFFFFFFFFFFFFFFFFFFFFFFFF AND MUL OR SWAP1 SSTORE POP PUSH1 0x4 PUSH1 0x0 DUP2 SLOAD DUP1 SWAP3 SWAP2 SWAP1 PUSH2 0x743 SWAP1 PUSH2 0x2D44 JUMP JUMPDEST SWAP2 SWAP1 POP SSTORE POP JUMPDEST PUSH1 0x0 PUSH1 0xD PUSH1 0x0 CALLER PUSH20 0xFFFFFFFFFFFFFFFFFFFFFFFFFFFFFFFFFFFFFFFF AND PUSH20 0xFFFFFFFFFFFFFFFFFFFFFFFFFFFFFFFFFFFFFFFF AND DUP2 MSTORE PUSH1 0x20 ADD SWAP1 DUP2 MSTORE PUSH1 0x20 ADD PUSH1 0x0 KECCAK256 PUSH1 0x6 ADD SLOAD EQ ISZERO PUSH2 0x7EB JUMPI PUSH4 0x1E13380 TIMESTAMP PUSH2 0x7A4 SWAP2 SWAP1 PUSH2 0x2BE7 JUMP JUMPDEST PUSH1 0xD PUSH1 0x0 CALLER PUSH20 0xFFFFFFFFFFFFFFFFFFFFFFFFFFFFFFFFFFFFFFFF AND PUSH20 0xFFFFFFFFFFFFFFFFFFFFFFFFFFFFFFFFFFFFFFFF AND DUP2 MSTORE PUSH1 0x20 ADD SWAP1 DUP2 MSTORE PUSH1 0x20 ADD PUSH1 0x0 KECCAK256 PUSH1 0x9 ADD DUP2 SWAP1 SSTORE POP JUMPDEST PUSH1 0x0 PUSH1 0xD PUSH1 0x0 CALLER PUSH20 0xFFFFFFFFFFFFFFFFFFFFFFFFFFFFFFFFFFFFFFFF AND PUSH20 0xFFFFFFFFFFFFFFFFFFFFFFFFFFFFFFFFFFFFFFFF AND DUP2 MSTORE PUSH1 0x20 ADD SWAP1 DUP2 MSTORE PUSH1 0x20 ADD PUSH1 0x0 KECCAK256 PUSH1 0x5 ADD SLOAD SWAP1 POP DUP3 PUSH1 0xD PUSH1 0x0 CALLER PUSH20 0xFFFFFFFFFFFFFFFFFFFFFFFFFFFFFFFFFFFFFFFF AND PUSH20 0xFFFFFFFFFFFFFFFFFFFFFFFFFFFFFFFFFFFFFFFF AND DUP2 MSTORE PUSH1 0x20 ADD SWAP1 DUP2 MSTORE PUSH1 0x20 ADD PUSH1 0x0 KECCAK256 PUSH1 0x0 ADD PUSH1 0x0 DUP4 DUP2 MSTORE PUSH1 0x20 ADD SWAP1 DUP2 MSTORE PUSH1 0x20 ADD PUSH1 0x0 KECCAK256 PUSH1 0x0 ADD DUP2 SWAP1 SSTORE POP TIMESTAMP PUSH1 0xD PUSH1 0x0 CALLER PUSH20 0xFFFFFFFFFFFFFFFFFFFFFFFFFFFFFFFFFFFFFFFF AND PUSH20 0xFFFFFFFFFFFFFFFFFFFFFFFFFFFFFFFFFFFFFFFF AND DUP2 MSTORE PUSH1 0x20 ADD SWAP1 DUP2 MSTORE PUSH1 0x20 ADD PUSH1 0x0 KECCAK256 PUSH1 0x0 ADD PUSH1 0x0 DUP4 DUP2 MSTORE PUSH1 0x20 ADD SWAP1 DUP2 MSTORE PUSH1 0x20 ADD PUSH1 0x0 KECCAK256 PUSH1 0x2 ADD DUP2 SWAP1 SSTORE POP PUSH1 0x9 SLOAD TIMESTAMP PUSH2 0x8F6 SWAP2 SWAP1 PUSH2 0x2BE7 JUMP JUMPDEST PUSH1 0xD PUSH1 0x0 CALLER PUSH20 0xFFFFFFFFFFFFFFFFFFFFFFFFFFFFFFFFFFFFFFFF AND PUSH20 0xFFFFFFFFFFFFFFFFFFFFFFFFFFFFFFFFFFFFFFFF AND DUP2 MSTORE PUSH1 0x20 ADD SWAP1 DUP2 MSTORE PUSH1 0x20 ADD PUSH1 0x0 KECCAK256 PUSH1 0x0 ADD PUSH1 0x0 DUP4 DUP2 MSTORE PUSH1 0x20 ADD SWAP1 DUP2 MSTORE PUSH1 0x20 ADD PUSH1 0x0 KECCAK256 PUSH1 0x1 ADD DUP2 SWAP1 SSTORE POP DUP1 PUSH1 0xD PUSH1 0x0 CALLER PUSH20 0xFFFFFFFFFFFFFFFFFFFFFFFFFFFFFFFFFFFFFFFF AND PUSH20 0xFFFFFFFFFFFFFFFFFFFFFFFFFFFFFFFFFFFFFFFF AND DUP2 MSTORE PUSH1 0x20 ADD SWAP1 DUP2 MSTORE PUSH1 0x20 ADD PUSH1 0x0 KECCAK256 PUSH1 0x0 ADD PUSH1 0x0 DUP4 DUP2 MSTORE PUSH1 0x20 ADD SWAP1 DUP2 MSTORE PUSH1 0x20 ADD PUSH1 0x0 KECCAK256 PUSH1 0x3 ADD DUP2 SWAP1 SSTORE POP DUP3 PUSH1 0xD PUSH1 0x0 CALLER PUSH20 0xFFFFFFFFFFFFFFFFFFFFFFFFFFFFFFFFFFFFFFFF AND PUSH20 0xFFFFFFFFFFFFFFFFFFFFFFFFFFFFFFFFFFFFFFFF AND DUP2 MSTORE PUSH1 0x20 ADD SWAP1 DUP2 MSTORE PUSH1 0x20 ADD PUSH1 0x0 KECCAK256 PUSH1 0x6 ADD PUSH1 0x0 DUP3 DUP3 SLOAD PUSH2 0x9FD SWAP2 SWAP1 PUSH2 0x2BE7 JUMP JUMPDEST SWAP3 POP POP DUP2 SWAP1 SSTORE POP PUSH1 0xD PUSH1 0x0 CALLER PUSH20 0xFFFFFFFFFFFFFFFFFFFFFFFFFFFFFFFFFFFFFFFF AND PUSH20 0xFFFFFFFFFFFFFFFFFFFFFFFFFFFFFFFFFFFFFFFF AND DUP2 MSTORE PUSH1 0x20 ADD SWAP1 DUP2 MSTORE PUSH1 0x20 ADD PUSH1 0x0 KECCAK256 PUSH1 0x5 ADD PUSH1 0x0 DUP2 SLOAD DUP1 SWAP3 SWAP2 SWAP1 PUSH2 0xA57 SWAP1 PUSH2 0x2D44 JUMP JUMPDEST SWAP2 SWAP1 POP SSTORE POP DUP3 PUSH1 0xA PUSH1 0x0 DUP3 DUP3 SLOAD PUSH2 0xA6E SWAP2 SWAP1 PUSH2 0x2BE7 JUMP JUMPDEST SWAP3 POP POP DUP2 SWAP1 SSTORE POP PUSH1 0x1 PUSH1 0x0 SWAP1 SLOAD SWAP1 PUSH2 0x100 EXP SWAP1 DIV PUSH20 0xFFFFFFFFFFFFFFFFFFFFFFFFFFFFFFFFFFFFFFFF AND PUSH20 0xFFFFFFFFFFFFFFFFFFFFFFFFFFFFFFFFFFFFFFFF AND PUSH4 0x23B872DD CALLER PUSH1 0x0 DUP1 SLOAD SWAP1 PUSH2 0x100 EXP SWAP1 DIV PUSH20 0xFFFFFFFFFFFFFFFFFFFFFFFFFFFFFFFFFFFFFFFF AND PUSH8 0xDE0B6B3A7640000 DUP8 PUSH2 0xAE9 SWAP2 SWAP1 PUSH2 0x2C6E JUMP JUMPDEST PUSH1 0x40 MLOAD DUP5 PUSH4 0xFFFFFFFF AND PUSH1 0xE0 SHL DUP2 MSTORE PUSH1 0x4 ADD PUSH2 0xB07 SWAP4 SWAP3 SWAP2 SWAP1 PUSH2 0x28C5 JUMP JUMPDEST PUSH1 0x20 PUSH1 0x40 MLOAD DUP1 DUP4 SUB DUP2 PUSH1 0x0 DUP8 DUP1 EXTCODESIZE ISZERO DUP1 ISZERO PUSH2 0xB21 JUMPI PUSH1 0x0 DUP1 REVERT JUMPDEST POP GAS CALL ISZERO DUP1 ISZERO PUSH2 0xB35 JUMPI RETURNDATASIZE PUSH1 0x0 DUP1 RETURNDATACOPY RETURNDATASIZE PUSH1 0x0 REVERT JUMPDEST POP POP POP POP PUSH1 0x40 MLOAD RETURNDATASIZE PUSH1 0x1F NOT PUSH1 0x1F DUP3 ADD AND DUP3 ADD DUP1 PUSH1 0x40 MSTORE POP DUP2 ADD SWAP1 PUSH2 0xB59 SWAP2 SWAP1 PUSH2 0x2412 JUMP JUMPDEST POP PUSH1 0x1 PUSH1 0xD PUSH1 0x0 CALLER PUSH20 0xFFFFFFFFFFFFFFFFFFFFFFFFFFFFFFFFFFFFFFFF AND PUSH20 0xFFFFFFFFFFFFFFFFFFFFFFFFFFFFFFFFFFFFFFFF AND DUP2 MSTORE PUSH1 0x20 ADD SWAP1 DUP2 MSTORE PUSH1 0x20 ADD PUSH1 0x0 KECCAK256 PUSH1 0x8 ADD PUSH1 0x0 PUSH2 0x100 EXP DUP2 SLOAD DUP2 PUSH1 0xFF MUL NOT AND SWAP1 DUP4 ISZERO ISZERO MUL OR SWAP1 SSTORE POP PUSH1 0x1 SWAP2 POP POP SWAP2 SWAP1 POP JUMP JUMPDEST DUP1 PUSH1 0x3 DUP2 SWAP1 SSTORE POP POP JUMP JUMPDEST DUP1 PUSH1 0x6 DUP2 SWAP1 SSTORE POP POP JUMP JUMPDEST PUSH1 0x60 PUSH1 0x0 PUSH1 0xD PUSH1 0x0 CALLER PUSH20 0xFFFFFFFFFFFFFFFFFFFFFFFFFFFFFFFFFFFFFFFF AND PUSH20 0xFFFFFFFFFFFFFFFFFFFFFFFFFFFFFFFFFFFFFFFF AND DUP2 MSTORE PUSH1 0x20 ADD SWAP1 DUP2 MSTORE PUSH1 0x20 ADD PUSH1 0x0 KECCAK256 PUSH1 0x5 ADD SLOAD SWAP1 POP PUSH1 0x0 DUP1 PUSH1 0x0 JUMPDEST DUP4 DUP2 LT ISZERO PUSH2 0xCAB JUMPI PUSH1 0x0 PUSH1 0xD PUSH1 0x0 CALLER PUSH20 0xFFFFFFFFFFFFFFFFFFFFFFFFFFFFFFFFFFFFFFFF AND PUSH20 0xFFFFFFFFFFFFFFFFFFFFFFFFFFFFFFFFFFFFFFFF AND DUP2 MSTORE PUSH1 0x20 ADD SWAP1 DUP2 MSTORE PUSH1 0x20 ADD PUSH1 0x0 KECCAK256 PUSH1 0x0 ADD PUSH1 0x0 DUP4 DUP2 MSTORE PUSH1 0x20 ADD SWAP1 DUP2 MSTORE PUSH1 0x20 ADD PUSH1 0x0 KECCAK256 PUSH1 0x0 ADD SLOAD GT ISZERO PUSH2 0xC98 JUMPI DUP3 DUP1 PUSH2 0xC94 SWAP1 PUSH2 0x2D44 JUMP JUMPDEST SWAP4 POP POP JUMPDEST DUP1 DUP1 PUSH2 0xCA3 SWAP1 PUSH2 0x2D44 JUMP JUMPDEST SWAP2 POP POP PUSH2 0xC22 JUMP JUMPDEST POP PUSH1 0x0 DUP3 PUSH8 0xFFFFFFFFFFFFFFFF DUP2 GT ISZERO PUSH2 0xCC8 JUMPI PUSH2 0xCC7 PUSH2 0x2E1A JUMP JUMPDEST JUMPDEST PUSH1 0x40 MLOAD SWAP1 DUP1 DUP3 MSTORE DUP1 PUSH1 0x20 MUL PUSH1 0x20 ADD DUP3 ADD PUSH1 0x40 MSTORE DUP1 ISZERO PUSH2 0xD01 JUMPI DUP2 PUSH1 0x20 ADD JUMPDEST PUSH2 0xCEE PUSH2 0x2322 JUMP JUMPDEST DUP2 MSTORE PUSH1 0x20 ADD SWAP1 PUSH1 0x1 SWAP1 SUB SWAP1 DUP2 PUSH2 0xCE6 JUMPI SWAP1 POP JUMPDEST POP SWAP1 POP PUSH1 0x0 JUMPDEST DUP5 DUP2 LT ISZERO PUSH2 0xE59 JUMPI PUSH1 0x0 PUSH1 0xD PUSH1 0x0 CALLER PUSH20 0xFFFFFFFFFFFFFFFFFFFFFFFFFFFFFFFFFFFFFFFF AND PUSH20 0xFFFFFFFFFFFFFFFFFFFFFFFFFFFFFFFFFFFFFFFF AND DUP2 MSTORE PUSH1 0x20 ADD SWAP1 DUP2 MSTORE PUSH1 0x20 ADD PUSH1 0x0 KECCAK256 PUSH1 0x0 ADD PUSH1 0x0 DUP4 DUP2 MSTORE PUSH1 0x20 ADD SWAP1 DUP2 MSTORE PUSH1 0x20 ADD PUSH1 0x0 KECCAK256 PUSH1 0x0 ADD SLOAD GT ISZERO PUSH2 0xE46 JUMPI PUSH1 0xD PUSH1 0x0 CALLER PUSH20 0xFFFFFFFFFFFFFFFFFFFFFFFFFFFFFFFFFFFFFFFF AND PUSH20 0xFFFFFFFFFFFFFFFFFFFFFFFFFFFFFFFFFFFFFFFF AND DUP2 MSTORE PUSH1 0x20 ADD SWAP1 DUP2 MSTORE PUSH1 0x20 ADD PUSH1 0x0 KECCAK256 PUSH1 0x0 ADD PUSH1 0x0 DUP3 DUP2 MSTORE PUSH1 0x20 ADD SWAP1 DUP2 MSTORE PUSH1 0x20 ADD PUSH1 0x0 KECCAK256 PUSH1 0x40 MLOAD DUP1 PUSH1 0xC0 ADD PUSH1 0x40 MSTORE SWAP1 DUP2 PUSH1 0x0 DUP3 ADD SLOAD DUP2 MSTORE PUSH1 0x20 ADD PUSH1 0x1 DUP3 ADD SLOAD DUP2 MSTORE PUSH1 0x20 ADD PUSH1 0x2 DUP3 ADD SLOAD DUP2 MSTORE PUSH1 0x20 ADD PUSH1 0x3 DUP3 ADD SLOAD DUP2 MSTORE PUSH1 0x20 ADD PUSH1 0x4 DUP3 ADD SLOAD DUP2 MSTORE PUSH1 0x20 ADD PUSH1 0x5 DUP3 ADD PUSH1 0x0 SWAP1 SLOAD SWAP1 PUSH2 0x100 EXP SWAP1 DIV PUSH1 0xFF AND ISZERO ISZERO ISZERO ISZERO DUP2 MSTORE POP POP DUP3 DUP5 DUP2 MLOAD DUP2 LT PUSH2 0xE2C JUMPI PUSH2 0xE2B PUSH2 0x2DEB JUMP JUMPDEST JUMPDEST PUSH1 0x20 MUL PUSH1 0x20 ADD ADD DUP2 SWAP1 MSTORE POP DUP3 DUP1 PUSH2 0xE42 SWAP1 PUSH2 0x2D44 JUMP JUMPDEST SWAP4 POP POP JUMPDEST DUP1 DUP1 PUSH2 0xE51 SWAP1 PUSH2 0x2D44 JUMP JUMPDEST SWAP2 POP POP PUSH2 0xD07 JUMP JUMPDEST POP DUP1 SWAP5 POP POP POP POP POP SWAP1 JUMP JUMPDEST PUSH1 0x0 DUP1 PUSH1 0x0 DUP1 PUSH1 0x0 PUSH1 0xD PUSH1 0x0 CALLER PUSH20 0xFFFFFFFFFFFFFFFFFFFFFFFFFFFFFFFFFFFFFFFF AND PUSH20 0xFFFFFFFFFFFFFFFFFFFFFFFFFFFFFFFFFFFFFFFF AND DUP2 MSTORE PUSH1 0x20 ADD SWAP1 DUP2 MSTORE PUSH1 0x20 ADD PUSH1 0x0 KECCAK256 PUSH1 0x5 ADD SLOAD SWAP1 POP PUSH1 0x0 JUMPDEST DUP2 DUP2 LT ISZERO PUSH2 0x1118 JUMPI PUSH1 0xD PUSH1 0x0 CALLER PUSH20 0xFFFFFFFFFFFFFFFFFFFFFFFFFFFFFFFFFFFFFFFF AND PUSH20 0xFFFFFFFFFFFFFFFFFFFFFFFFFFFFFFFFFFFFFFFF AND DUP2 MSTORE PUSH1 0x20 ADD SWAP1 DUP2 MSTORE PUSH1 0x20 ADD PUSH1 0x0 KECCAK256 PUSH1 0x0 ADD PUSH1 0x0 DUP3 DUP2 MSTORE PUSH1 0x20 ADD SWAP1 DUP2 MSTORE PUSH1 0x20 ADD PUSH1 0x0 KECCAK256 PUSH1 0x5 ADD PUSH1 0x0 SWAP1 SLOAD SWAP1 PUSH2 0x100 EXP SWAP1 DIV PUSH1 0xFF AND PUSH2 0xF8D JUMPI PUSH1 0xD PUSH1 0x0 CALLER PUSH20 0xFFFFFFFFFFFFFFFFFFFFFFFFFFFFFFFFFFFFFFFF AND PUSH20 0xFFFFFFFFFFFFFFFFFFFFFFFFFFFFFFFFFFFFFFFF AND DUP2 MSTORE PUSH1 0x20 ADD SWAP1 DUP2 MSTORE PUSH1 0x20 ADD PUSH1 0x0 KECCAK256 PUSH1 0x0 ADD PUSH1 0x0 DUP3 DUP2 MSTORE PUSH1 0x20 ADD SWAP1 DUP2 MSTORE PUSH1 0x20 ADD PUSH1 0x0 KECCAK256 PUSH1 0x2 ADD SLOAD TIMESTAMP PUSH2 0xF86 SWAP2 SWAP1 PUSH2 0x2CC8 JUMP JUMPDEST SWAP4 POP PUSH2 0x1048 JUMP JUMPDEST PUSH1 0xD PUSH1 0x0 CALLER PUSH20 0xFFFFFFFFFFFFFFFFFFFFFFFFFFFFFFFFFFFFFFFF AND PUSH20 0xFFFFFFFFFFFFFFFFFFFFFFFFFFFFFFFFFFFFFFFF AND DUP2 MSTORE PUSH1 0x20 ADD SWAP1 DUP2 MSTORE PUSH1 0x20 ADD PUSH1 0x0 KECCAK256 PUSH1 0x0 ADD PUSH1 0x0 DUP3 DUP2 MSTORE PUSH1 0x20 ADD SWAP1 DUP2 MSTORE PUSH1 0x20 ADD PUSH1 0x0 KECCAK256 PUSH1 0x2 ADD SLOAD PUSH1 0xD PUSH1 0x0 CALLER PUSH20 0xFFFFFFFFFFFFFFFFFFFFFFFFFFFFFFFFFFFFFFFF AND PUSH20 0xFFFFFFFFFFFFFFFFFFFFFFFFFFFFFFFFFFFFFFFF AND DUP2 MSTORE PUSH1 0x20 ADD SWAP1 DUP2 MSTORE PUSH1 0x20 ADD PUSH1 0x0 KECCAK256 PUSH1 0x0 ADD PUSH1 0x0 DUP4 DUP2 MSTORE PUSH1 0x20 ADD SWAP1 DUP2 MSTORE PUSH1 0x20 ADD PUSH1 0x0 KECCAK256 PUSH1 0x4 ADD SLOAD PUSH2 0x1045 SWAP2 SWAP1 PUSH2 0x2CC8 JUMP JUMPDEST SWAP4 POP JUMPDEST PUSH1 0x3C DUP5 PUSH2 0x1055 SWAP2 SWAP1 PUSH2 0x2C3D JUMP JUMPDEST SWAP4 POP PUSH1 0x0 DUP5 GT ISZERO PUSH2 0x1105 JUMPI PUSH1 0x64 PUSH1 0xA SLOAD PUSH1 0x64 PUSH1 0xD PUSH1 0x0 CALLER PUSH20 0xFFFFFFFFFFFFFFFFFFFFFFFFFFFFFFFFFFFFFFFF AND PUSH20 0xFFFFFFFFFFFFFFFFFFFFFFFFFFFFFFFFFFFFFFFF AND DUP2 MSTORE PUSH1 0x20 ADD SWAP1 DUP2 MSTORE PUSH1 0x20 ADD PUSH1 0x0 KECCAK256 PUSH1 0x0 ADD PUSH1 0x0 DUP6 DUP2 MSTORE PUSH1 0x20 ADD SWAP1 DUP2 MSTORE PUSH1 0x20 ADD PUSH1 0x0 KECCAK256 PUSH1 0x0 ADD SLOAD PUSH2 0x10C8 SWAP2 SWAP1 PUSH2 0x2C6E JUMP JUMPDEST PUSH2 0x10D2 SWAP2 SWAP1 PUSH2 0x2C3D JUMP JUMPDEST PUSH1 0x3 SLOAD PUSH2 0x10DF SWAP2 SWAP1 PUSH2 0x2C6E JUMP JUMPDEST PUSH2 0x10E9 SWAP2 SWAP1 PUSH2 0x2C3D JUMP JUMPDEST SWAP3 POP DUP3 DUP5 PUSH2 0x10F7 SWAP2 SWAP1 PUSH2 0x2C6E JUMP JUMPDEST DUP6 PUSH2 0x1102 SWAP2 SWAP1 PUSH2 0x2BE7 JUMP JUMPDEST SWAP5 POP JUMPDEST DUP1 DUP1 PUSH2 0x1110 SWAP1 PUSH2 0x2D44 JUMP JUMPDEST SWAP2 POP POP PUSH2 0xEB4 JUMP JUMPDEST POP PUSH1 0xD PUSH1 0x0 CALLER PUSH20 0xFFFFFFFFFFFFFFFFFFFFFFFFFFFFFFFFFFFFFFFF AND PUSH20 0xFFFFFFFFFFFFFFFFFFFFFFFFFFFFFFFFFFFFFFFF AND DUP2 MSTORE PUSH1 0x20 ADD SWAP1 DUP2 MSTORE PUSH1 0x20 ADD PUSH1 0x0 KECCAK256 PUSH1 0x7 ADD SLOAD DUP5 PUSH2 0x1167 SWAP2 SWAP1 PUSH2 0x2CC8 JUMP JUMPDEST SWAP4 POP DUP4 SWAP5 POP POP POP POP POP SWAP1 JUMP JUMPDEST PUSH1 0x60 PUSH1 0x0 PUSH1 0x4 SLOAD PUSH8 0xFFFFFFFFFFFFFFFF DUP2 GT ISZERO PUSH2 0x1193 JUMPI PUSH2 0x1192 PUSH2 0x2E1A JUMP JUMPDEST JUMPDEST PUSH1 0x40 MLOAD SWAP1 DUP1 DUP3 MSTORE DUP1 PUSH1 0x20 MUL PUSH1 0x20 ADD DUP3 ADD PUSH1 0x40 MSTORE DUP1 ISZERO PUSH2 0x11CC JUMPI DUP2 PUSH1 0x20 ADD JUMPDEST PUSH2 0x11B9 PUSH2 0x235A JUMP JUMPDEST DUP2 MSTORE PUSH1 0x20 ADD SWAP1 PUSH1 0x1 SWAP1 SUB SWAP1 DUP2 PUSH2 0x11B1 JUMPI SWAP1 POP JUMPDEST POP SWAP1 POP PUSH1 0x0 JUMPDEST PUSH1 0x4 SLOAD DUP2 LT ISZERO PUSH2 0x14FD JUMPI PUSH1 0xC PUSH1 0x0 DUP3 DUP2 MSTORE PUSH1 0x20 ADD SWAP1 DUP2 MSTORE PUSH1 0x20 ADD PUSH1 0x0 KECCAK256 PUSH1 0x0 SWAP1 SLOAD SWAP1 PUSH2 0x100 EXP SWAP1 DIV PUSH20 0xFFFFFFFFFFFFFFFFFFFFFFFFFFFFFFFFFFFFFFFF AND DUP3 DUP3 DUP2 MLOAD DUP2 LT PUSH2 0x1223 JUMPI PUSH2 0x1222 PUSH2 0x2DEB JUMP JUMPDEST JUMPDEST PUSH1 0x20 MUL PUSH1 0x20 ADD ADD MLOAD PUSH1 0x0 ADD SWAP1 PUSH20 0xFFFFFFFFFFFFFFFFFFFFFFFFFFFFFFFFFFFFFFFF AND SWAP1 DUP2 PUSH20 0xFFFFFFFFFFFFFFFFFFFFFFFFFFFFFFFFFFFFFFFF AND DUP2 MSTORE POP POP PUSH1 0xD PUSH1 0x0 PUSH1 0xC PUSH1 0x0 DUP5 DUP2 MSTORE PUSH1 0x20 ADD SWAP1 DUP2 MSTORE PUSH1 0x20 ADD PUSH1 0x0 KECCAK256 PUSH1 0x0 SWAP1 SLOAD SWAP1 PUSH2 0x100 EXP SWAP1 DIV PUSH20 0xFFFFFFFFFFFFFFFFFFFFFFFFFFFFFFFFFFFFFFFF AND PUSH20 0xFFFFFFFFFFFFFFFFFFFFFFFFFFFFFFFFFFFFFFFF AND PUSH20 0xFFFFFFFFFFFFFFFFFFFFFFFFFFFFFFFFFFFFFFFF AND DUP2 MSTORE PUSH1 0x20 ADD SWAP1 DUP2 MSTORE PUSH1 0x20 ADD PUSH1 0x0 KECCAK256 PUSH1 0x6 ADD SLOAD DUP3 DUP3 DUP2 MLOAD DUP2 LT PUSH2 0x12EA JUMPI PUSH2 0x12E9 PUSH2 0x2DEB JUMP JUMPDEST JUMPDEST PUSH1 0x20 MUL PUSH1 0x20 ADD ADD MLOAD PUSH1 0x20 ADD DUP2 DUP2 MSTORE POP POP PUSH2 0x1336 PUSH1 0xC PUSH1 0x0 DUP4 DUP2 MSTORE PUSH1 0x20 ADD SWAP1 DUP2 MSTORE PUSH1 0x20 ADD PUSH1 0x0 KECCAK256 PUSH1 0x0 SWAP1 SLOAD SWAP1 PUSH2 0x100 EXP SWAP1 DIV PUSH20 0xFFFFFFFFFFFFFFFFFFFFFFFFFFFFFFFFFFFFFFFF AND PUSH2 0x1FC2 JUMP JUMPDEST DUP3 DUP3 DUP2 MLOAD DUP2 LT PUSH2 0x1349 JUMPI PUSH2 0x1348 PUSH2 0x2DEB JUMP JUMPDEST JUMPDEST PUSH1 0x20 MUL PUSH1 0x20 ADD ADD MLOAD PUSH1 0x40 ADD DUP2 DUP2 MSTORE POP POP PUSH1 0xD PUSH1 0x0 PUSH1 0xC PUSH1 0x0 DUP5 DUP2 MSTORE PUSH1 0x20 ADD SWAP1 DUP2 MSTORE PUSH1 0x20 ADD PUSH1 0x0 KECCAK256 PUSH1 0x0 SWAP1 SLOAD SWAP1 PUSH2 0x100 EXP SWAP1 DIV PUSH20 0xFFFFFFFFFFFFFFFFFFFFFFFFFFFFFFFFFFFFFFFF AND PUSH20 0xFFFFFFFFFFFFFFFFFFFFFFFFFFFFFFFFFFFFFFFF AND PUSH20 0xFFFFFFFFFFFFFFFFFFFFFFFFFFFFFFFFFFFFFFFF AND DUP2 MSTORE PUSH1 0x20 ADD SWAP1 DUP2 MSTORE PUSH1 0x20 ADD PUSH1 0x0 KECCAK256 PUSH1 0x5 ADD SLOAD DUP3 DUP3 DUP2 MLOAD DUP2 LT PUSH2 0x13E2 JUMPI PUSH2 0x13E1 PUSH2 0x2DEB JUMP JUMPDEST JUMPDEST PUSH1 0x20 MUL PUSH1 0x20 ADD ADD MLOAD PUSH1 0x60 ADD DUP2 DUP2 MSTORE POP POP PUSH1 0xD PUSH1 0x0 PUSH1 0xC PUSH1 0x0 DUP5 DUP2 MSTORE PUSH1 0x20 ADD SWAP1 DUP2 MSTORE PUSH1 0x20 ADD PUSH1 0x0 KECCAK256 PUSH1 0x0 SWAP1 SLOAD SWAP1 PUSH2 0x100 EXP SWAP1 DIV PUSH20 0xFFFFFFFFFFFFFFFFFFFFFFFFFFFFFFFFFFFFFFFF AND PUSH20 0xFFFFFFFFFFFFFFFFFFFFFFFFFFFFFFFFFFFFFFFF AND PUSH20 0xFFFFFFFFFFFFFFFFFFFFFFFFFFFFFFFFFFFFFFFF AND DUP2 MSTORE PUSH1 0x20 ADD SWAP1 DUP2 MSTORE PUSH1 0x20 ADD PUSH1 0x0 KECCAK256 PUSH1 0x7 ADD SLOAD DUP3 DUP3 DUP2 MLOAD DUP2 LT PUSH2 0x147B JUMPI PUSH2 0x147A PUSH2 0x2DEB JUMP JUMPDEST JUMPDEST PUSH1 0x20 MUL PUSH1 0x20 ADD ADD MLOAD PUSH1 0x80 ADD DUP2 DUP2 MSTORE POP POP PUSH2 0x14C7 PUSH1 0xC PUSH1 0x0 DUP4 DUP2 MSTORE PUSH1 0x20 ADD SWAP1 DUP2 MSTORE PUSH1 0x20 ADD PUSH1 0x0 KECCAK256 PUSH1 0x0 SWAP1 SLOAD SWAP1 PUSH2 0x100 EXP SWAP1 DIV PUSH20 0xFFFFFFFFFFFFFFFFFFFFFFFFFFFFFFFFFFFFFFFF AND PUSH2 0x22D3 JUMP JUMPDEST DUP3 DUP3 DUP2 MLOAD DUP2 LT PUSH2 0x14DA JUMPI PUSH2 0x14D9 PUSH2 0x2DEB JUMP JUMPDEST JUMPDEST PUSH1 0x20 MUL PUSH1 0x20 ADD ADD MLOAD PUSH1 0xA0 ADD DUP2 DUP2 MSTORE POP POP DUP1 DUP1 PUSH2 0x14F5 SWAP1 PUSH2 0x2D44 JUMP JUMPDEST SWAP2 POP POP PUSH2 0x11D2 JUMP JUMPDEST POP DUP1 SWAP2 POP POP SWAP1 JUMP JUMPDEST DUP3 PUSH1 0x7 DUP2 SWAP1 SSTORE POP DUP4 PUSH1 0x6 DUP2 SWAP1 SSTORE POP DUP2 PUSH1 0x5 DUP2 SWAP1 SSTORE POP DUP1 PUSH1 0x8 DUP2 SWAP1 SSTORE POP POP POP POP POP JUMP JUMPDEST DUP1 PUSH1 0x7 DUP2 SWAP1 SSTORE POP POP JUMP JUMPDEST PUSH1 0xC PUSH1 0x20 MSTORE DUP1 PUSH1 0x0 MSTORE PUSH1 0x40 PUSH1 0x0 KECCAK256 PUSH1 0x0 SWAP2 POP SLOAD SWAP1 PUSH2 0x100 EXP SWAP1 DIV PUSH20 0xFFFFFFFFFFFFFFFFFFFFFFFFFFFFFFFFFFFFFFFF AND DUP2 JUMP JUMPDEST PUSH1 0x9 SLOAD DUP2 JUMP JUMPDEST PUSH1 0x0 DUP1 PUSH1 0xD PUSH1 0x0 CALLER PUSH20 0xFFFFFFFFFFFFFFFFFFFFFFFFFFFFFFFFFFFFFFFF AND PUSH20 0xFFFFFFFFFFFFFFFFFFFFFFFFFFFFFFFFFFFFFFFF AND DUP2 MSTORE PUSH1 0x20 ADD SWAP1 DUP2 MSTORE PUSH1 0x20 ADD PUSH1 0x0 KECCAK256 PUSH1 0x7 ADD SLOAD SWAP1 POP DUP1 SWAP2 POP POP SWAP1 JUMP JUMPDEST PUSH1 0x0 DUP1 PUSH1 0xD PUSH1 0x0 CALLER PUSH20 0xFFFFFFFFFFFFFFFFFFFFFFFFFFFFFFFFFFFFFFFF AND PUSH20 0xFFFFFFFFFFFFFFFFFFFFFFFFFFFFFFFFFFFFFFFF AND DUP2 MSTORE PUSH1 0x20 ADD SWAP1 DUP2 MSTORE PUSH1 0x20 ADD PUSH1 0x0 KECCAK256 PUSH1 0x6 ADD SLOAD GT PUSH2 0x163F JUMPI PUSH1 0x40 MLOAD PUSH32 0x8C379A000000000000000000000000000000000000000000000000000000000 DUP2 MSTORE PUSH1 0x4 ADD PUSH2 0x1636 SWAP1 PUSH2 0x2A37 JUMP JUMPDEST PUSH1 0x40 MLOAD DUP1 SWAP2 SUB SWAP1 REVERT JUMPDEST TIMESTAMP PUSH1 0xD PUSH1 0x0 CALLER PUSH20 0xFFFFFFFFFFFFFFFFFFFFFFFFFFFFFFFFFFFFFFFF AND PUSH20 0xFFFFFFFFFFFFFFFFFFFFFFFFFFFFFFFFFFFFFFFF AND DUP2 MSTORE PUSH1 0x20 ADD SWAP1 DUP2 MSTORE PUSH1 0x20 ADD PUSH1 0x0 KECCAK256 PUSH1 0x9 ADD SLOAD LT PUSH2 0x16C3 JUMPI PUSH1 0x40 MLOAD PUSH32 0x8C379A000000000000000000000000000000000000000000000000000000000 DUP2 MSTORE PUSH1 0x4 ADD PUSH2 0x16BA SWAP1 PUSH2 0x2A97 JUMP JUMPDEST PUSH1 0x40 MLOAD DUP1 SWAP2 SUB SWAP1 REVERT JUMPDEST PUSH1 0x0 PUSH1 0xD PUSH1 0x0 CALLER PUSH20 0xFFFFFFFFFFFFFFFFFFFFFFFFFFFFFFFFFFFFFFFF AND PUSH20 0xFFFFFFFFFFFFFFFFFFFFFFFFFFFFFFFFFFFFFFFF AND DUP2 MSTORE PUSH1 0x20 ADD SWAP1 DUP2 MSTORE PUSH1 0x20 ADD PUSH1 0x0 KECCAK256 PUSH1 0x6 ADD SLOAD SWAP1 POP PUSH1 0x0 PUSH1 0xD PUSH1 0x0 CALLER PUSH20 0xFFFFFFFFFFFFFFFFFFFFFFFFFFFFFFFFFFFFFFFF AND PUSH20 0xFFFFFFFFFFFFFFFFFFFFFFFFFFFFFFFFFFFFFFFF AND DUP2 MSTORE PUSH1 0x20 ADD SWAP1 DUP2 MSTORE PUSH1 0x20 ADD PUSH1 0x0 KECCAK256 PUSH1 0x5 ADD SLOAD SWAP1 POP PUSH1 0x0 PUSH1 0xB SLOAD SWAP1 POP PUSH1 0x1 PUSH1 0x0 SWAP1 SLOAD SWAP1 PUSH2 0x100 EXP SWAP1 DIV PUSH20 0xFFFFFFFFFFFFFFFFFFFFFFFFFFFFFFFFFFFFFFFF AND PUSH20 0xFFFFFFFFFFFFFFFFFFFFFFFFFFFFFFFFFFFFFFFF AND PUSH4 0xA9059CBB CALLER PUSH4 0x5F5E100 DUP7 PUSH2 0x17A7 SWAP2 SWAP1 PUSH2 0x2C6E JUMP JUMPDEST PUSH1 0x40 MLOAD DUP4 PUSH4 0xFFFFFFFF AND PUSH1 0xE0 SHL DUP2 MSTORE PUSH1 0x4 ADD PUSH2 0x17C4 SWAP3 SWAP2 SWAP1 PUSH2 0x28FC JUMP JUMPDEST PUSH1 0x20 PUSH1 0x40 MLOAD DUP1 DUP4 SUB DUP2 PUSH1 0x0 DUP8 DUP1 EXTCODESIZE ISZERO DUP1 ISZERO PUSH2 0x17DE JUMPI PUSH1 0x0 DUP1 REVERT JUMPDEST POP GAS CALL ISZERO DUP1 ISZERO PUSH2 0x17F2 JUMPI RETURNDATASIZE PUSH1 0x0 DUP1 RETURNDATACOPY RETURNDATASIZE PUSH1 0x0 REVERT JUMPDEST POP POP POP POP PUSH1 0x40 MLOAD RETURNDATASIZE PUSH1 0x1F NOT PUSH1 0x1F DUP3 ADD AND DUP3 ADD DUP1 PUSH1 0x40 MSTORE POP DUP2 ADD SWAP1 PUSH2 0x1816 SWAP2 SWAP1 PUSH2 0x2412 JUMP JUMPDEST POP PUSH1 0x0 SWAP1 POP JUMPDEST DUP2 DUP2 LT ISZERO PUSH2 0x1901 JUMPI PUSH1 0x1 PUSH1 0xD PUSH1 0x0 CALLER PUSH20 0xFFFFFFFFFFFFFFFFFFFFFFFFFFFFFFFFFFFFFFFF AND PUSH20 0xFFFFFFFFFFFFFFFFFFFFFFFFFFFFFFFFFFFFFFFF AND DUP2 MSTORE PUSH1 0x20 ADD SWAP1 DUP2 MSTORE PUSH1 0x20 ADD PUSH1 0x0 KECCAK256 PUSH1 0x0 ADD PUSH1 0x0 DUP4 DUP2 MSTORE PUSH1 0x20 ADD SWAP1 DUP2 MSTORE PUSH1 0x20 ADD PUSH1 0x0 KECCAK256 PUSH1 0x5 ADD PUSH1 0x0 PUSH2 0x100 EXP DUP2 SLOAD DUP2 PUSH1 0xFF MUL NOT AND SWAP1 DUP4 ISZERO ISZERO MUL OR SWAP1 SSTORE POP TIMESTAMP PUSH1 0xD PUSH1 0x0 CALLER PUSH20 0xFFFFFFFFFFFFFFFFFFFFFFFFFFFFFFFFFFFFFFFF AND PUSH20 0xFFFFFFFFFFFFFFFFFFFFFFFFFFFFFFFFFFFFFFFF AND DUP2 MSTORE PUSH1 0x20 ADD SWAP1 DUP2 MSTORE PUSH1 0x20 ADD PUSH1 0x0 KECCAK256 PUSH1 0x0 ADD PUSH1 0x0 DUP4 DUP2 MSTORE PUSH1 0x20 ADD SWAP1 DUP2 MSTORE PUSH1 0x20 ADD PUSH1 0x0 KECCAK256 PUSH1 0x4 ADD DUP2 SWAP1 SSTORE POP DUP1 DUP1 PUSH2 0x18F9 SWAP1 PUSH2 0x2D44 JUMP JUMPDEST SWAP2 POP POP PUSH2 0x181C JUMP JUMPDEST PUSH1 0xD PUSH1 0x0 CALLER PUSH20 0xFFFFFFFFFFFFFFFFFFFFFFFFFFFFFFFFFFFFFFFF AND PUSH20 0xFFFFFFFFFFFFFFFFFFFFFFFFFFFFFFFFFFFFFFFF AND DUP2 MSTORE PUSH1 0x20 ADD SWAP1 DUP2 MSTORE PUSH1 0x20 ADD PUSH1 0x0 KECCAK256 PUSH1 0x5 ADD SLOAD PUSH1 0xB DUP2 SWAP1 SSTORE POP PUSH1 0x0 PUSH1 0xD PUSH1 0x0 CALLER PUSH20 0xFFFFFFFFFFFFFFFFFFFFFFFFFFFFFFFFFFFFFFFF AND PUSH20 0xFFFFFFFFFFFFFFFFFFFFFFFFFFFFFFFFFFFFFFFF AND DUP2 MSTORE PUSH1 0x20 ADD SWAP1 DUP2 MSTORE PUSH1 0x20 ADD PUSH1 0x0 KECCAK256 PUSH1 0x6 ADD DUP2 SWAP1 SSTORE POP PUSH1 0x1 SWAP4 POP POP POP POP SWAP1 JUMP JUMPDEST PUSH1 0x0 DUP1 SLOAD SWAP1 PUSH2 0x100 EXP SWAP1 DIV PUSH20 0xFFFFFFFFFFFFFFFFFFFFFFFFFFFFFFFFFFFFFFFF AND DUP2 JUMP JUMPDEST PUSH1 0x0 PUSH1 0xD PUSH1 0x0 CALLER PUSH20 0xFFFFFFFFFFFFFFFFFFFFFFFFFFFFFFFFFFFFFFFF AND PUSH20 0xFFFFFFFFFFFFFFFFFFFFFFFFFFFFFFFFFFFFFFFF AND DUP2 MSTORE PUSH1 0x20 ADD SWAP1 DUP2 MSTORE PUSH1 0x20 ADD PUSH1 0x0 KECCAK256 PUSH1 0x6 ADD SLOAD SWAP1 POP SWAP1 JUMP JUMPDEST PUSH1 0x8 SLOAD DUP2 JUMP JUMPDEST PUSH1 0x60 PUSH1 0x0 PUSH1 0x14 PUSH8 0xFFFFFFFFFFFFFFFF DUP2 GT ISZERO PUSH2 0x1A2F JUMPI PUSH2 0x1A2E PUSH2 0x2E1A JUMP JUMPDEST JUMPDEST PUSH1 0x40 MLOAD SWAP1 DUP1 DUP3 MSTORE DUP1 PUSH1 0x20 MUL PUSH1 0x20 ADD DUP3 ADD PUSH1 0x40 MSTORE DUP1 ISZERO PUSH2 0x1A5D JUMPI DUP2 PUSH1 0x20 ADD PUSH1 0x20 DUP3 MUL DUP1 CALLDATASIZE DUP4 CALLDATACOPY DUP1 DUP3 ADD SWAP2 POP POP SWAP1 POP JUMPDEST POP SWAP1 POP PUSH1 0x0 JUMPDEST PUSH1 0x14 DUP2 LT ISZERO PUSH2 0x1B7B JUMPI PUSH1 0x0 PUSH1 0xD PUSH1 0x0 CALLER PUSH20 0xFFFFFFFFFFFFFFFFFFFFFFFFFFFFFFFFFFFFFFFF AND PUSH20 0xFFFFFFFFFFFFFFFFFFFFFFFFFFFFFFFFFFFFFFFF AND DUP2 MSTORE PUSH1 0x20 ADD SWAP1 DUP2 MSTORE PUSH1 0x20 ADD PUSH1 0x0 KECCAK256 PUSH1 0x3 ADD PUSH1 0x0 DUP4 DUP2 MSTORE PUSH1 0x20 ADD SWAP1 DUP2 MSTORE PUSH1 0x20 ADD PUSH1 0x0 KECCAK256 PUSH1 0x0 ADD SLOAD GT ISZERO PUSH2 0x1B46 JUMPI PUSH1 0xD PUSH1 0x0 CALLER PUSH20 0xFFFFFFFFFFFFFFFFFFFFFFFFFFFFFFFFFFFFFFFF AND PUSH20 0xFFFFFFFFFFFFFFFFFFFFFFFFFFFFFFFFFFFFFFFF AND DUP2 MSTORE PUSH1 0x20 ADD SWAP1 DUP2 MSTORE PUSH1 0x20 ADD PUSH1 0x0 KECCAK256 PUSH1 0x3 ADD PUSH1 0x0 DUP3 DUP2 MSTORE PUSH1 0x20 ADD SWAP1 DUP2 MSTORE PUSH1 0x20 ADD PUSH1 0x0 KECCAK256 PUSH1 0x0 ADD SLOAD DUP3 DUP3 DUP2 MLOAD DUP2 LT PUSH2 0x1B35 JUMPI PUSH2 0x1B34 PUSH2 0x2DEB JUMP JUMPDEST JUMPDEST PUSH1 0x20 MUL PUSH1 0x20 ADD ADD DUP2 DUP2 MSTORE POP POP PUSH2 0x1B68 JUMP JUMPDEST PUSH1 0x0 DUP3 DUP3 DUP2 MLOAD DUP2 LT PUSH2 0x1B5B JUMPI PUSH2 0x1B5A PUSH2 0x2DEB JUMP JUMPDEST JUMPDEST PUSH1 0x20 MUL PUSH1 0x20 ADD ADD DUP2 DUP2 MSTORE POP POP JUMPDEST DUP1 DUP1 PUSH2 0x1B73 SWAP1 PUSH2 0x2D44 JUMP JUMPDEST SWAP2 POP POP PUSH2 0x1A63 JUMP JUMPDEST POP DUP1 SWAP2 POP POP SWAP1 JUMP JUMPDEST PUSH1 0x6 SLOAD DUP2 JUMP JUMPDEST PUSH1 0x0 DUP1 PUSH2 0x1B94 PUSH2 0xE64 JUMP JUMPDEST SWAP1 POP PUSH1 0x0 DUP2 GT PUSH2 0x1BD9 JUMPI PUSH1 0x40 MLOAD PUSH32 0x8C379A000000000000000000000000000000000000000000000000000000000 DUP2 MSTORE PUSH1 0x4 ADD PUSH2 0x1BD0 SWAP1 PUSH2 0x2A77 JUMP JUMPDEST PUSH1 0x40 MLOAD DUP1 SWAP2 SUB SWAP1 REVERT JUMPDEST PUSH1 0x2 PUSH1 0x0 SWAP1 SLOAD SWAP1 PUSH2 0x100 EXP SWAP1 DIV PUSH20 0xFFFFFFFFFFFFFFFFFFFFFFFFFFFFFFFFFFFFFFFF AND PUSH20 0xFFFFFFFFFFFFFFFFFFFFFFFFFFFFFFFFFFFFFFFF AND PUSH4 0xA9059CBB CALLER PUSH8 0xDE0B6B3A7640000 DUP5 PUSH2 0x1C2C SWAP2 SWAP1 PUSH2 0x2C6E JUMP JUMPDEST PUSH1 0x40 MLOAD DUP4 PUSH4 0xFFFFFFFF AND PUSH1 0xE0 SHL DUP2 MSTORE PUSH1 0x4 ADD PUSH2 0x1C49 SWAP3 SWAP2 SWAP1 PUSH2 0x28FC JUMP JUMPDEST PUSH1 0x20 PUSH1 0x40 MLOAD DUP1 DUP4 SUB DUP2 PUSH1 0x0 DUP8 DUP1 EXTCODESIZE ISZERO DUP1 ISZERO PUSH2 0x1C63 JUMPI PUSH1 0x0 DUP1 REVERT JUMPDEST POP GAS CALL ISZERO DUP1 ISZERO PUSH2 0x1C77 JUMPI RETURNDATASIZE PUSH1 0x0 DUP1 RETURNDATACOPY RETURNDATASIZE PUSH1 0x0 REVERT JUMPDEST POP POP POP POP PUSH1 0x40 MLOAD RETURNDATASIZE PUSH1 0x1F NOT PUSH1 0x1F DUP3 ADD AND DUP3 ADD DUP1 PUSH1 0x40 MSTORE POP DUP2 ADD SWAP1 PUSH2 0x1C9B SWAP2 SWAP1 PUSH2 0x2412 JUMP JUMPDEST POP DUP1 PUSH1 0xD PUSH1 0x0 CALLER PUSH20 0xFFFFFFFFFFFFFFFFFFFFFFFFFFFFFFFFFFFFFFFF AND PUSH20 0xFFFFFFFFFFFFFFFFFFFFFFFFFFFFFFFFFFFFFFFF AND DUP2 MSTORE PUSH1 0x20 ADD SWAP1 DUP2 MSTORE PUSH1 0x20 ADD PUSH1 0x0 KECCAK256 PUSH1 0x7 ADD PUSH1 0x0 DUP3 DUP3 SLOAD PUSH2 0x1CEE SWAP2 SWAP1 PUSH2 0x2BE7 JUMP JUMPDEST SWAP3 POP POP DUP2 SWAP1 SSTORE POP PUSH1 0x1 SWAP2 POP POP SWAP1 JUMP JUMPDEST PUSH1 0xD PUSH1 0x20 MSTORE DUP1 PUSH1 0x0 MSTORE PUSH1 0x40 PUSH1 0x0 KECCAK256 PUSH1 0x0 SWAP2 POP SWAP1 POP DUP1 PUSH1 0x2 ADD PUSH1 0x0 SWAP1 SLOAD SWAP1 PUSH2 0x100 EXP SWAP1 DIV PUSH20 0xFFFFFFFFFFFFFFFFFFFFFFFFFFFFFFFFFFFFFFFF AND SWAP1 DUP1 PUSH1 0x4 ADD SLOAD SWAP1 DUP1 PUSH1 0x5 ADD SLOAD SWAP1 DUP1 PUSH1 0x6 ADD SLOAD SWAP1 DUP1 PUSH1 0x7 ADD SLOAD SWAP1 DUP1 PUSH1 0x8 ADD PUSH1 0x0 SWAP1 SLOAD SWAP1 PUSH2 0x100 EXP SWAP1 DIV PUSH1 0xFF AND SWAP1 DUP1 PUSH1 0x9 ADD SLOAD SWAP1 POP DUP8 JUMP JUMPDEST PUSH1 0xA SLOAD DUP2 JUMP JUMPDEST PUSH1 0x0 DUP1 SLOAD SWAP1 PUSH2 0x100 EXP SWAP1 DIV PUSH20 0xFFFFFFFFFFFFFFFFFFFFFFFFFFFFFFFFFFFFFFFF AND PUSH20 0xFFFFFFFFFFFFFFFFFFFFFFFFFFFFFFFFFFFFFFFF AND CALLER PUSH20 0xFFFFFFFFFFFFFFFFFFFFFFFFFFFFFFFFFFFFFFFF AND EQ PUSH2 0x1E00 JUMPI PUSH1 0x40 MLOAD PUSH32 0x8C379A000000000000000000000000000000000000000000000000000000000 DUP2 MSTORE PUSH1 0x4 ADD PUSH2 0x1DF7 SWAP1 PUSH2 0x2AB7 JUMP JUMPDEST PUSH1 0x40 MLOAD DUP1 SWAP2 SUB SWAP1 REVERT JUMPDEST DUP1 PUSH1 0x0 DUP1 PUSH2 0x100 EXP DUP2 SLOAD DUP2 PUSH20 0xFFFFFFFFFFFFFFFFFFFFFFFFFFFFFFFFFFFFFFFF MUL NOT AND SWAP1 DUP4 PUSH20 0xFFFFFFFFFFFFFFFFFFFFFFFFFFFFFFFFFFFFFFFF AND MUL OR SWAP1 SSTORE POP POP JUMP JUMPDEST PUSH1 0x60 PUSH1 0x0 PUSH1 0x14 PUSH8 0xFFFFFFFFFFFFFFFF DUP2 GT ISZERO PUSH2 0x1E62 JUMPI PUSH2 0x1E61 PUSH2 0x2E1A JUMP JUMPDEST JUMPDEST PUSH1 0x40 MLOAD SWAP1 DUP1 DUP3 MSTORE DUP1 PUSH1 0x20 MUL PUSH1 0x20 ADD DUP3 ADD PUSH1 0x40 MSTORE DUP1 ISZERO PUSH2 0x1E90 JUMPI DUP2 PUSH1 0x20 ADD PUSH1 0x20 DUP3 MUL DUP1 CALLDATASIZE DUP4 CALLDATACOPY DUP1 DUP3 ADD SWAP2 POP POP SWAP1 POP JUMPDEST POP SWAP1 POP PUSH1 0x0 JUMPDEST PUSH1 0x14 DUP2 LT ISZERO PUSH2 0x1FAE JUMPI PUSH1 0x0 PUSH1 0xD PUSH1 0x0 CALLER PUSH20 0xFFFFFFFFFFFFFFFFFFFFFFFFFFFFFFFFFFFFFFFF AND PUSH20 0xFFFFFFFFFFFFFFFFFFFFFFFFFFFFFFFFFFFFFFFF AND DUP2 MSTORE PUSH1 0x20 ADD SWAP1 DUP2 MSTORE PUSH1 0x20 ADD PUSH1 0x0 KECCAK256 PUSH1 0x3 ADD PUSH1 0x0 DUP4 DUP2 MSTORE PUSH1 0x20 ADD SWAP1 DUP2 MSTORE PUSH1 0x20 ADD PUSH1 0x0 KECCAK256 PUSH1 0x0 ADD SLOAD GT ISZERO PUSH2 0x1F79 JUMPI PUSH1 0xD PUSH1 0x0 CALLER PUSH20 0xFFFFFFFFFFFFFFFFFFFFFFFFFFFFFFFFFFFFFFFF AND PUSH20 0xFFFFFFFFFFFFFFFFFFFFFFFFFFFFFFFFFFFFFFFF AND DUP2 MSTORE PUSH1 0x20 ADD SWAP1 DUP2 MSTORE PUSH1 0x20 ADD PUSH1 0x0 KECCAK256 PUSH1 0x3 ADD PUSH1 0x0 DUP3 DUP2 MSTORE PUSH1 0x20 ADD SWAP1 DUP2 MSTORE PUSH1 0x20 ADD PUSH1 0x0 KECCAK256 PUSH1 0x1 ADD SLOAD DUP3 DUP3 DUP2 MLOAD DUP2 LT PUSH2 0x1F68 JUMPI PUSH2 0x1F67 PUSH2 0x2DEB JUMP JUMPDEST JUMPDEST PUSH1 0x20 MUL PUSH1 0x20 ADD ADD DUP2 DUP2 MSTORE POP POP PUSH2 0x1F9B JUMP JUMPDEST PUSH1 0x0 DUP3 DUP3 DUP2 MLOAD DUP2 LT PUSH2 0x1F8E JUMPI PUSH2 0x1F8D PUSH2 0x2DEB JUMP JUMPDEST JUMPDEST PUSH1 0x20 MUL PUSH1 0x20 ADD ADD DUP2 DUP2 MSTORE POP POP JUMPDEST DUP1 DUP1 PUSH2 0x1FA6 SWAP1 PUSH2 0x2D44 JUMP JUMPDEST SWAP2 POP POP PUSH2 0x1E96 JUMP JUMPDEST POP DUP1 SWAP2 POP POP SWAP1 JUMP JUMPDEST PUSH1 0x5 SLOAD DUP2 JUMP JUMPDEST PUSH1 0x7 SLOAD DUP2 JUMP JUMPDEST PUSH1 0x0 DUP1 PUSH1 0x0 DUP1 PUSH1 0x0 PUSH1 0xD PUSH1 0x0 DUP8 PUSH20 0xFFFFFFFFFFFFFFFFFFFFFFFFFFFFFFFFFFFFFFFF AND PUSH20 0xFFFFFFFFFFFFFFFFFFFFFFFFFFFFFFFFFFFFFFFF AND DUP2 MSTORE PUSH1 0x20 ADD SWAP1 DUP2 MSTORE PUSH1 0x20 ADD PUSH1 0x0 KECCAK256 PUSH1 0x5 ADD SLOAD SWAP1 POP PUSH1 0x0 JUMPDEST DUP2 DUP2 LT ISZERO PUSH2 0x2276 JUMPI PUSH1 0xD PUSH1 0x0 DUP9 PUSH20 0xFFFFFFFFFFFFFFFFFFFFFFFFFFFFFFFFFFFFFFFF AND PUSH20 0xFFFFFFFFFFFFFFFFFFFFFFFFFFFFFFFFFFFFFFFF AND DUP2 MSTORE PUSH1 0x20 ADD SWAP1 DUP2 MSTORE PUSH1 0x20 ADD PUSH1 0x0 KECCAK256 PUSH1 0x0 ADD PUSH1 0x0 DUP3 DUP2 MSTORE PUSH1 0x20 ADD SWAP1 DUP2 MSTORE PUSH1 0x20 ADD PUSH1 0x0 KECCAK256 PUSH1 0x5 ADD PUSH1 0x0 SWAP1 SLOAD SWAP1 PUSH2 0x100 EXP SWAP1 DIV PUSH1 0xFF AND PUSH2 0x20EB JUMPI PUSH1 0xD PUSH1 0x0 DUP9 PUSH20 0xFFFFFFFFFFFFFFFFFFFFFFFFFFFFFFFFFFFFFFFF AND PUSH20 0xFFFFFFFFFFFFFFFFFFFFFFFFFFFFFFFFFFFFFFFF AND DUP2 MSTORE PUSH1 0x20 ADD SWAP1 DUP2 MSTORE PUSH1 0x20 ADD PUSH1 0x0 KECCAK256 PUSH1 0x0 ADD PUSH1 0x0 DUP3 DUP2 MSTORE PUSH1 0x20 ADD SWAP1 DUP2 MSTORE PUSH1 0x20 ADD PUSH1 0x0 KECCAK256 PUSH1 0x2 ADD SLOAD TIMESTAMP PUSH2 0x20E4 SWAP2 SWAP1 PUSH2 0x2CC8 JUMP JUMPDEST SWAP4 POP PUSH2 0x21A6 JUMP JUMPDEST PUSH1 0xD PUSH1 0x0 DUP9 PUSH20 0xFFFFFFFFFFFFFFFFFFFFFFFFFFFFFFFFFFFFFFFF AND PUSH20 0xFFFFFFFFFFFFFFFFFFFFFFFFFFFFFFFFFFFFFFFF AND DUP2 MSTORE PUSH1 0x20 ADD SWAP1 DUP2 MSTORE PUSH1 0x20 ADD PUSH1 0x0 KECCAK256 PUSH1 0x0 ADD PUSH1 0x0 DUP3 DUP2 MSTORE PUSH1 0x20 ADD SWAP1 DUP2 MSTORE PUSH1 0x20 ADD PUSH1 0x0 KECCAK256 PUSH1 0x2 ADD SLOAD PUSH1 0xD PUSH1 0x0 DUP10 PUSH20 0xFFFFFFFFFFFFFFFFFFFFFFFFFFFFFFFFFFFFFFFF AND PUSH20 0xFFFFFFFFFFFFFFFFFFFFFFFFFFFFFFFFFFFFFFFF AND DUP2 MSTORE PUSH1 0x20 ADD SWAP1 DUP2 MSTORE PUSH1 0x20 ADD PUSH1 0x0 KECCAK256 PUSH1 0x0 ADD PUSH1 0x0 DUP4 DUP2 MSTORE PUSH1 0x20 ADD SWAP1 DUP2 MSTORE PUSH1 0x20 ADD PUSH1 0x0 KECCAK256 PUSH1 0x4 ADD SLOAD PUSH2 0x21A3 SWAP2 SWAP1 PUSH2 0x2CC8 JUMP JUMPDEST SWAP4 POP JUMPDEST PUSH1 0x3C DUP5 PUSH2 0x21B3 SWAP2 SWAP1 PUSH2 0x2C3D JUMP JUMPDEST SWAP4 POP PUSH1 0x0 DUP5 GT ISZERO PUSH2 0x2263 JUMPI PUSH1 0x64 PUSH1 0xA SLOAD PUSH1 0x64 PUSH1 0xD PUSH1 0x0 DUP12 PUSH20 0xFFFFFFFFFFFFFFFFFFFFFFFFFFFFFFFFFFFFFFFF AND PUSH20 0xFFFFFFFFFFFFFFFFFFFFFFFFFFFFFFFFFFFFFFFF AND DUP2 MSTORE PUSH1 0x20 ADD SWAP1 DUP2 MSTORE PUSH1 0x20 ADD PUSH1 0x0 KECCAK256 PUSH1 0x0 ADD PUSH1 0x0 DUP6 DUP2 MSTORE PUSH1 0x20 ADD SWAP1 DUP2 MSTORE PUSH1 0x20 ADD PUSH1 0x0 KECCAK256 PUSH1 0x0 ADD SLOAD PUSH2 0x2226 SWAP2 SWAP1 PUSH2 0x2C6E JUMP JUMPDEST PUSH2 0x2230 SWAP2 SWAP1 PUSH2 0x2C3D JUMP JUMPDEST PUSH1 0x3 SLOAD PUSH2 0x223D SWAP2 SWAP1 PUSH2 0x2C6E JUMP JUMPDEST PUSH2 0x2247 SWAP2 SWAP1 PUSH2 0x2C3D JUMP JUMPDEST SWAP3 POP DUP3 DUP5 PUSH2 0x2255 SWAP2 SWAP1 PUSH2 0x2C6E JUMP JUMPDEST DUP6 PUSH2 0x2260 SWAP2 SWAP1 PUSH2 0x2BE7 JUMP JUMPDEST SWAP5 POP JUMPDEST DUP1 DUP1 PUSH2 0x226E SWAP1 PUSH2 0x2D44 JUMP JUMPDEST SWAP2 POP POP PUSH2 0x2012 JUMP JUMPDEST POP PUSH1 0xD PUSH1 0x0 DUP8 PUSH20 0xFFFFFFFFFFFFFFFFFFFFFFFFFFFFFFFFFFFFFFFF AND PUSH20 0xFFFFFFFFFFFFFFFFFFFFFFFFFFFFFFFFFFFFFFFF AND DUP2 MSTORE PUSH1 0x20 ADD SWAP1 DUP2 MSTORE PUSH1 0x20 ADD PUSH1 0x0 KECCAK256 PUSH1 0x7 ADD SLOAD DUP5 PUSH2 0x22C5 SWAP2 SWAP1 PUSH2 0x2CC8 JUMP JUMPDEST SWAP4 POP DUP4 SWAP5 POP POP POP POP POP SWAP2 SWAP1 POP JUMP JUMPDEST PUSH1 0x0 PUSH1 0xD PUSH1 0x0 DUP4 PUSH20 0xFFFFFFFFFFFFFFFFFFFFFFFFFFFFFFFFFFFFFFFF AND PUSH20 0xFFFFFFFFFFFFFFFFFFFFFFFFFFFFFFFFFFFFFFFF AND DUP2 MSTORE PUSH1 0x20 ADD SWAP1 DUP2 MSTORE PUSH1 0x20 ADD PUSH1 0x0 KECCAK256 PUSH1 0x1 ADD DUP1 SLOAD SWAP1 POP SWAP1 POP SWAP2 SWAP1 POP JUMP JUMPDEST PUSH1 0x40 MLOAD DUP1 PUSH1 0xC0 ADD PUSH1 0x40 MSTORE DUP1 PUSH1 0x0 DUP2 MSTORE PUSH1 0x20 ADD PUSH1 0x0 DUP2 MSTORE PUSH1 0x20 ADD PUSH1 0x0 DUP2 MSTORE PUSH1 0x20 ADD PUSH1 0x0 DUP2 MSTORE PUSH1 0x20 ADD PUSH1 0x0 DUP2 MSTORE PUSH1 0x20 ADD PUSH1 0x0 ISZERO ISZERO DUP2 MSTORE POP SWAP1 JUMP JUMPDEST PUSH1 0x40 MLOAD DUP1 PUSH1 0xC0 ADD PUSH1 0x40 MSTORE DUP1 PUSH1 0x0 PUSH20 0xFFFFFFFFFFFFFFFFFFFFFFFFFFFFFFFFFFFFFFFF AND DUP2 MSTORE PUSH1 0x20 ADD PUSH1 0x0 DUP2 MSTORE PUSH1 0x20 ADD PUSH1 0x0 DUP2 MSTORE PUSH1 0x20 ADD PUSH1 0x0 DUP2 MSTORE PUSH1 0x20 ADD PUSH1 0x0 DUP2 MSTORE PUSH1 0x20 ADD PUSH1 0x0 DUP2 MSTORE POP SWAP1 JUMP JUMPDEST PUSH1 0x0 DUP2 CALLDATALOAD SWAP1 POP PUSH2 0x23B5 DUP2 PUSH2 0x2FB3 JUMP JUMPDEST SWAP3 SWAP2 POP POP JUMP JUMPDEST PUSH1 0x0 DUP2 MLOAD SWAP1 POP PUSH2 0x23CA DUP2 PUSH2 0x2FCA JUMP JUMPDEST SWAP3 SWAP2 POP POP JUMP JUMPDEST PUSH1 0x0 DUP2 CALLDATALOAD SWAP1 POP PUSH2 0x23DF DUP2 PUSH2 0x2FE1 JUMP JUMPDEST SWAP3 SWAP2 POP POP JUMP JUMPDEST PUSH1 0x0 PUSH1 0x20 DUP3 DUP5 SUB SLT ISZERO PUSH2 0x23FB JUMPI PUSH2 0x23FA PUSH2 0x2E49 JUMP JUMPDEST JUMPDEST PUSH1 0x0 PUSH2 0x2409 DUP5 DUP3 DUP6 ADD PUSH2 0x23A6 JUMP JUMPDEST SWAP2 POP POP SWAP3 SWAP2 POP POP JUMP JUMPDEST PUSH1 0x0 PUSH1 0x20 DUP3 DUP5 SUB SLT ISZERO PUSH2 0x2428 JUMPI PUSH2 0x2427 PUSH2 0x2E49 JUMP JUMPDEST JUMPDEST PUSH1 0x0 PUSH2 0x2436 DUP5 DUP3 DUP6 ADD PUSH2 0x23BB JUMP JUMPDEST SWAP2 POP POP SWAP3 SWAP2 POP POP JUMP JUMPDEST PUSH1 0x0 PUSH1 0x20 DUP3 DUP5 SUB SLT ISZERO PUSH2 0x2455 JUMPI PUSH2 0x2454 PUSH2 0x2E49 JUMP JUMPDEST JUMPDEST PUSH1 0x0 PUSH2 0x2463 DUP5 DUP3 DUP6 ADD PUSH2 0x23D0 JUMP JUMPDEST SWAP2 POP POP SWAP3 SWAP2 POP POP JUMP JUMPDEST PUSH1 0x0 DUP1 PUSH1 0x0 DUP1 PUSH1 0x80 DUP6 DUP8 SUB SLT ISZERO PUSH2 0x2486 JUMPI PUSH2 0x2485 PUSH2 0x2E49 JUMP JUMPDEST JUMPDEST PUSH1 0x0 PUSH2 0x2494 DUP8 DUP3 DUP9 ADD PUSH2 0x23D0 JUMP JUMPDEST SWAP5 POP POP PUSH1 0x20 PUSH2 0x24A5 DUP8 DUP3 DUP9 ADD PUSH2 0x23D0 JUMP JUMPDEST SWAP4 POP POP PUSH1 0x40 PUSH2 0x24B6 DUP8 DUP3 DUP9 ADD PUSH2 0x23D0 JUMP JUMPDEST SWAP3 POP POP PUSH1 0x60 PUSH2 0x24C7 DUP8 DUP3 DUP9 ADD PUSH2 0x23D0 JUMP JUMPDEST SWAP2 POP POP SWAP3 SWAP6 SWAP2 SWAP5 POP SWAP3 POP JUMP JUMPDEST PUSH1 0x0 PUSH2 0x24DF DUP4 DUP4 PUSH2 0x2533 JUMP JUMPDEST PUSH1 0x20 DUP4 ADD SWAP1 POP SWAP3 SWAP2 POP POP JUMP JUMPDEST PUSH1 0x0 PUSH2 0x24F7 DUP4 DUP4 PUSH2 0x2796 JUMP JUMPDEST PUSH1 0xC0 DUP4 ADD SWAP1 POP SWAP3 SWAP2 POP POP JUMP JUMPDEST PUSH1 0x0 PUSH2 0x250F DUP4 DUP4 PUSH2 0x2811 JUMP JUMPDEST PUSH1 0xC0 DUP4 ADD SWAP1 POP SWAP3 SWAP2 POP POP JUMP JUMPDEST PUSH1 0x0 PUSH2 0x2527 DUP4 DUP4 PUSH2 0x288C JUMP JUMPDEST PUSH1 0x20 DUP4 ADD SWAP1 POP SWAP3 SWAP2 POP POP JUMP JUMPDEST PUSH2 0x253C DUP2 PUSH2 0x2CFC JUMP JUMPDEST DUP3 MSTORE POP POP JUMP JUMPDEST PUSH2 0x254B DUP2 PUSH2 0x2CFC JUMP JUMPDEST DUP3 MSTORE POP POP JUMP JUMPDEST PUSH1 0x0 PUSH2 0x255C DUP3 PUSH2 0x2B32 JUMP JUMPDEST PUSH2 0x2566 DUP2 DUP6 PUSH2 0x2B92 JUMP JUMPDEST SWAP4 POP PUSH2 0x2571 DUP4 PUSH2 0x2AF2 JUMP JUMPDEST DUP1 PUSH1 0x0 JUMPDEST DUP4 DUP2 LT ISZERO PUSH2 0x25A2 JUMPI DUP2 MLOAD PUSH2 0x2589 DUP9 DUP3 PUSH2 0x24D3 JUMP JUMPDEST SWAP8 POP PUSH2 0x2594 DUP4 PUSH2 0x2B5E JUMP JUMPDEST SWAP3 POP POP PUSH1 0x1 DUP2 ADD SWAP1 POP PUSH2 0x2575 JUMP JUMPDEST POP DUP6 SWAP4 POP POP POP POP SWAP3 SWAP2 POP POP JUMP JUMPDEST PUSH1 0x0 PUSH2 0x25BA DUP3 PUSH2 0x2B3D JUMP JUMPDEST PUSH2 0x25C4 DUP2 DUP6 PUSH2 0x2BA3 JUMP JUMPDEST SWAP4 POP PUSH2 0x25CF DUP4 PUSH2 0x2B02 JUMP JUMPDEST DUP1 PUSH1 0x0 JUMPDEST DUP4 DUP2 LT ISZERO PUSH2 0x2600 JUMPI DUP2 MLOAD PUSH2 0x25E7 DUP9 DUP3 PUSH2 0x24EB JUMP JUMPDEST SWAP8 POP PUSH2 0x25F2 DUP4 PUSH2 0x2B6B JUMP JUMPDEST SWAP3 POP POP PUSH1 0x1 DUP2 ADD SWAP1 POP PUSH2 0x25D3 JUMP JUMPDEST POP DUP6 SWAP4 POP POP POP POP SWAP3 SWAP2 POP POP JUMP JUMPDEST PUSH1 0x0 PUSH2 0x2618 DUP3 PUSH2 0x2B48 JUMP JUMPDEST PUSH2 0x2622 DUP2 DUP6 PUSH2 0x2BB4 JUMP JUMPDEST SWAP4 POP PUSH2 0x262D DUP4 PUSH2 0x2B12 JUMP JUMPDEST DUP1 PUSH1 0x0 JUMPDEST DUP4 DUP2 LT ISZERO PUSH2 0x265E JUMPI DUP2 MLOAD PUSH2 0x2645 DUP9 DUP3 PUSH2 0x2503 JUMP JUMPDEST SWAP8 POP PUSH2 0x2650 DUP4 PUSH2 0x2B78 JUMP JUMPDEST SWAP3 POP POP PUSH1 0x1 DUP2 ADD SWAP1 POP PUSH2 0x2631 JUMP JUMPDEST POP DUP6 SWAP4 POP POP POP POP SWAP3 SWAP2 POP POP JUMP JUMPDEST PUSH1 0x0 PUSH2 0x2676 DUP3 PUSH2 0x2B53 JUMP JUMPDEST PUSH2 0x2680 DUP2 DUP6 PUSH2 0x2BC5 JUMP JUMPDEST SWAP4 POP PUSH2 0x268B DUP4 PUSH2 0x2B22 JUMP JUMPDEST DUP1 PUSH1 0x0 JUMPDEST DUP4 DUP2 LT ISZERO PUSH2 0x26BC JUMPI DUP2 MLOAD PUSH2 0x26A3 DUP9 DUP3 PUSH2 0x251B JUMP JUMPDEST SWAP8 POP PUSH2 0x26AE DUP4 PUSH2 0x2B85 JUMP JUMPDEST SWAP3 POP POP PUSH1 0x1 DUP2 ADD SWAP1 POP PUSH2 0x268F JUMP JUMPDEST POP DUP6 SWAP4 POP POP POP POP SWAP3 SWAP2 POP POP JUMP JUMPDEST PUSH2 0x26D2 DUP2 PUSH2 0x2D0E JUMP JUMPDEST DUP3 MSTORE POP POP JUMP JUMPDEST PUSH2 0x26E1 DUP2 PUSH2 0x2D0E JUMP JUMPDEST DUP3 MSTORE POP POP JUMP JUMPDEST PUSH1 0x0 PUSH2 0x26F4 PUSH1 0x25 DUP4 PUSH2 0x2BD6 JUMP JUMPDEST SWAP2 POP PUSH2 0x26FF DUP3 PUSH2 0x2E4E JUMP JUMPDEST PUSH1 0x40 DUP3 ADD SWAP1 POP SWAP2 SWAP1 POP JUMP JUMPDEST PUSH1 0x0 PUSH2 0x2717 PUSH1 0x35 DUP4 PUSH2 0x2BD6 JUMP JUMPDEST SWAP2 POP PUSH2 0x2722 DUP3 PUSH2 0x2E9D JUMP JUMPDEST PUSH1 0x40 DUP3 ADD SWAP1 POP SWAP2 SWAP1 POP JUMP JUMPDEST PUSH1 0x0 PUSH2 0x273A PUSH1 0x22 DUP4 PUSH2 0x2BD6 JUMP JUMPDEST SWAP2 POP PUSH2 0x2745 DUP3 PUSH2 0x2EEC JUMP JUMPDEST PUSH1 0x40 DUP3 ADD SWAP1 POP SWAP2 SWAP1 POP JUMP JUMPDEST PUSH1 0x0 PUSH2 0x275D PUSH1 0x1F DUP4 PUSH2 0x2BD6 JUMP JUMPDEST SWAP2 POP PUSH2 0x2768 DUP3 PUSH2 0x2F3B JUMP JUMPDEST PUSH1 0x20 DUP3 ADD SWAP1 POP SWAP2 SWAP1 POP JUMP JUMPDEST PUSH1 0x0 PUSH2 0x2780 PUSH1 0x21 DUP4 PUSH2 0x2BD6 JUMP JUMPDEST SWAP2 POP PUSH2 0x278B DUP3 PUSH2 0x2F64 JUMP JUMPDEST PUSH1 0x40 DUP3 ADD SWAP1 POP SWAP2 SWAP1 POP JUMP JUMPDEST PUSH1 0xC0 DUP3 ADD PUSH1 0x0 DUP3 ADD MLOAD PUSH2 0x27AC PUSH1 0x0 DUP6 ADD DUP3 PUSH2 0x2533 JUMP JUMPDEST POP PUSH1 0x20 DUP3 ADD MLOAD PUSH2 0x27BF PUSH1 0x20 DUP6 ADD DUP3 PUSH2 0x288C JUMP JUMPDEST POP PUSH1 0x40 DUP3 ADD MLOAD PUSH2 0x27D2 PUSH1 0x40 DUP6 ADD DUP3 PUSH2 0x288C JUMP JUMPDEST POP PUSH1 0x60 DUP3 ADD MLOAD PUSH2 0x27E5 PUSH1 0x60 DUP6 ADD DUP3 PUSH2 0x288C JUMP JUMPDEST POP PUSH1 0x80 DUP3 ADD MLOAD PUSH2 0x27F8 PUSH1 0x80 DUP6 ADD DUP3 PUSH2 0x288C JUMP JUMPDEST POP PUSH1 0xA0 DUP3 ADD MLOAD PUSH2 0x280B PUSH1 0xA0 DUP6 ADD DUP3 PUSH2 0x288C JUMP JUMPDEST POP POP POP POP JUMP JUMPDEST PUSH1 0xC0 DUP3 ADD PUSH1 0x0 DUP3 ADD MLOAD PUSH2 0x2827 PUSH1 0x0 DUP6 ADD DUP3 PUSH2 0x288C JUMP JUMPDEST POP PUSH1 0x20 DUP3 ADD MLOAD PUSH2 0x283A PUSH1 0x20 DUP6 ADD DUP3 PUSH2 0x288C JUMP JUMPDEST POP PUSH1 0x40 DUP3 ADD MLOAD PUSH2 0x284D PUSH1 0x40 DUP6 ADD DUP3 PUSH2 0x288C JUMP JUMPDEST POP PUSH1 0x60 DUP3 ADD MLOAD PUSH2 0x2860 PUSH1 0x60 DUP6 ADD DUP3 PUSH2 0x288C JUMP JUMPDEST POP PUSH1 0x80 DUP3 ADD MLOAD PUSH2 0x2873 PUSH1 0x80 DUP6 ADD DUP3 PUSH2 0x288C JUMP JUMPDEST POP PUSH1 0xA0 DUP3 ADD MLOAD PUSH2 0x2886 PUSH1 0xA0 DUP6 ADD DUP3 PUSH2 0x26C9 JUMP JUMPDEST POP POP POP POP JUMP JUMPDEST PUSH2 0x2895 DUP2 PUSH2 0x2D3A JUMP JUMPDEST DUP3 MSTORE POP POP JUMP JUMPDEST PUSH2 0x28A4 DUP2 PUSH2 0x2D3A JUMP JUMPDEST DUP3 MSTORE POP POP JUMP JUMPDEST PUSH1 0x0 PUSH1 0x20 DUP3 ADD SWAP1 POP PUSH2 0x28BF PUSH1 0x0 DUP4 ADD DUP5 PUSH2 0x2542 JUMP JUMPDEST SWAP3 SWAP2 POP POP JUMP JUMPDEST PUSH1 0x0 PUSH1 0x60 DUP3 ADD SWAP1 POP PUSH2 0x28DA PUSH1 0x0 DUP4 ADD DUP7 PUSH2 0x2542 JUMP JUMPDEST PUSH2 0x28E7 PUSH1 0x20 DUP4 ADD DUP6 PUSH2 0x2542 JUMP JUMPDEST PUSH2 0x28F4 PUSH1 0x40 DUP4 ADD DUP5 PUSH2 0x289B JUMP JUMPDEST SWAP5 SWAP4 POP POP POP POP JUMP JUMPDEST PUSH1 0x0 PUSH1 0x40 DUP3 ADD SWAP1 POP PUSH2 0x2911 PUSH1 0x0 DUP4 ADD DUP6 PUSH2 0x2542 JUMP JUMPDEST PUSH2 0x291E PUSH1 0x20 DUP4 ADD DUP5 PUSH2 0x289B JUMP JUMPDEST SWAP4 SWAP3 POP POP POP JUMP JUMPDEST PUSH1 0x0 PUSH1 0xE0 DUP3 ADD SWAP1 POP PUSH2 0x293A PUSH1 0x0 DUP4 ADD DUP11 PUSH2 0x2542 JUMP JUMPDEST PUSH2 0x2947 PUSH1 0x20 DUP4 ADD DUP10 PUSH2 0x289B JUMP JUMPDEST PUSH2 0x2954 PUSH1 0x40 DUP4 ADD DUP9 PUSH2 0x289B JUMP JUMPDEST PUSH2 0x2961 PUSH1 0x60 DUP4 ADD DUP8 PUSH2 0x289B JUMP JUMPDEST PUSH2 0x296E PUSH1 0x80 DUP4 ADD DUP7 PUSH2 0x289B JUMP JUMPDEST PUSH2 0x297B PUSH1 0xA0 DUP4 ADD DUP6 PUSH2 0x26D8 JUMP JUMPDEST PUSH2 0x2988 PUSH1 0xC0 DUP4 ADD DUP5 PUSH2 0x289B JUMP JUMPDEST SWAP9 SWAP8 POP POP POP POP POP POP POP POP JUMP JUMPDEST PUSH1 0x0 PUSH1 0x20 DUP3 ADD SWAP1 POP DUP2 DUP2 SUB PUSH1 0x0 DUP4 ADD MSTORE PUSH2 0x29AE DUP2 DUP5 PUSH2 0x2551 JUMP JUMPDEST SWAP1 POP SWAP3 SWAP2 POP POP JUMP JUMPDEST PUSH1 0x0 PUSH1 0x20 DUP3 ADD SWAP1 POP DUP2 DUP2 SUB PUSH1 0x0 DUP4 ADD MSTORE PUSH2 0x29D0 DUP2 DUP5 PUSH2 0x25AF JUMP JUMPDEST SWAP1 POP SWAP3 SWAP2 POP POP JUMP JUMPDEST PUSH1 0x0 PUSH1 0x20 DUP3 ADD SWAP1 POP DUP2 DUP2 SUB PUSH1 0x0 DUP4 ADD MSTORE PUSH2 0x29F2 DUP2 DUP5 PUSH2 0x260D JUMP JUMPDEST SWAP1 POP SWAP3 SWAP2 POP POP JUMP JUMPDEST PUSH1 0x0 PUSH1 0x20 DUP3 ADD SWAP1 POP DUP2 DUP2 SUB PUSH1 0x0 DUP4 ADD MSTORE PUSH2 0x2A14 DUP2 DUP5 PUSH2 0x266B JUMP JUMPDEST SWAP1 POP SWAP3 SWAP2 POP POP JUMP JUMPDEST PUSH1 0x0 PUSH1 0x20 DUP3 ADD SWAP1 POP PUSH2 0x2A31 PUSH1 0x0 DUP4 ADD DUP5 PUSH2 0x26D8 JUMP JUMPDEST SWAP3 SWAP2 POP POP JUMP JUMPDEST PUSH1 0x0 PUSH1 0x20 DUP3 ADD SWAP1 POP DUP2 DUP2 SUB PUSH1 0x0 DUP4 ADD MSTORE PUSH2 0x2A50 DUP2 PUSH2 0x26E7 JUMP JUMPDEST SWAP1 POP SWAP2 SWAP1 POP JUMP JUMPDEST PUSH1 0x0 PUSH1 0x20 DUP3 ADD SWAP1 POP DUP2 DUP2 SUB PUSH1 0x0 DUP4 ADD MSTORE PUSH2 0x2A70 DUP2 PUSH2 0x270A JUMP JUMPDEST SWAP1 POP SWAP2 SWAP1 POP JUMP JUMPDEST PUSH1 0x0 PUSH1 0x20 DUP3 ADD SWAP1 POP DUP2 DUP2 SUB PUSH1 0x0 DUP4 ADD MSTORE PUSH2 0x2A90 DUP2 PUSH2 0x272D JUMP JUMPDEST SWAP1 POP SWAP2 SWAP1 POP JUMP JUMPDEST PUSH1 0x0 PUSH1 0x20 DUP3 ADD SWAP1 POP DUP2 DUP2 SUB PUSH1 0x0 DUP4 ADD MSTORE PUSH2 0x2AB0 DUP2 PUSH2 0x2750 JUMP JUMPDEST SWAP1 POP SWAP2 SWAP1 POP JUMP JUMPDEST PUSH1 0x0 PUSH1 0x20 DUP3 ADD SWAP1 POP DUP2 DUP2 SUB PUSH1 0x0 DUP4 ADD MSTORE PUSH2 0x2AD0 DUP2 PUSH2 0x2773 JUMP JUMPDEST SWAP1 POP SWAP2 SWAP1 POP JUMP JUMPDEST PUSH1 0x0 PUSH1 0x20 DUP3 ADD SWAP1 POP PUSH2 0x2AEC PUSH1 0x0 DUP4 ADD DUP5 PUSH2 0x289B JUMP JUMPDEST SWAP3 SWAP2 POP POP JUMP JUMPDEST PUSH1 0x0 DUP2 SWAP1 POP PUSH1 0x20 DUP3 ADD SWAP1 POP SWAP2 SWAP1 POP JUMP JUMPDEST PUSH1 0x0 DUP2 SWAP1 POP PUSH1 0x20 DUP3 ADD SWAP1 POP SWAP2 SWAP1 POP JUMP JUMPDEST PUSH1 0x0 DUP2 SWAP1 POP PUSH1 0x20 DUP3 ADD SWAP1 POP SWAP2 SWAP1 POP JUMP JUMPDEST PUSH1 0x0 DUP2 SWAP1 POP PUSH1 0x20 DUP3 ADD SWAP1 POP SWAP2 SWAP1 POP JUMP JUMPDEST PUSH1 0x0 DUP2 MLOAD SWAP1 POP SWAP2 SWAP1 POP JUMP JUMPDEST PUSH1 0x0 DUP2 MLOAD SWAP1 POP SWAP2 SWAP1 POP JUMP JUMPDEST PUSH1 0x0 DUP2 MLOAD SWAP1 POP SWAP2 SWAP1 POP JUMP JUMPDEST PUSH1 0x0 DUP2 MLOAD SWAP1 POP SWAP2 SWAP1 POP JUMP JUMPDEST PUSH1 0x0 PUSH1 0x20 DUP3 ADD SWAP1 POP SWAP2 SWAP1 POP JUMP JUMPDEST PUSH1 0x0 PUSH1 0x20 DUP3 ADD SWAP1 POP SWAP2 SWAP1 POP JUMP JUMPDEST PUSH1 0x0 PUSH1 0x20 DUP3 ADD SWAP1 POP SWAP2 SWAP1 POP JUMP JUMPDEST PUSH1 0x0 PUSH1 0x20 DUP3 ADD SWAP1 POP SWAP2 SWAP1 POP JUMP JUMPDEST PUSH1 0x0 DUP3 DUP3 MSTORE PUSH1 0x20 DUP3 ADD SWAP1 POP SWAP3 SWAP2 POP POP JUMP JUMPDEST PUSH1 0x0 DUP3 DUP3 MSTORE PUSH1 0x20 DUP3 ADD SWAP1 POP SWAP3 SWAP2 POP POP JUMP JUMPDEST PUSH1 0x0 DUP3 DUP3 MSTORE PUSH1 0x20 DUP3 ADD SWAP1 POP SWAP3 SWAP2 POP POP JUMP JUMPDEST PUSH1 0x0 DUP3 DUP3 MSTORE PUSH1 0x20 DUP3 ADD SWAP1 POP SWAP3 SWAP2 POP POP JUMP JUMPDEST PUSH1 0x0 DUP3 DUP3 MSTORE PUSH1 0x20 DUP3 ADD SWAP1 POP SWAP3 SWAP2 POP POP JUMP JUMPDEST PUSH1 0x0 PUSH2 0x2BF2 DUP3 PUSH2 0x2D3A JUMP JUMPDEST SWAP2 POP PUSH2 0x2BFD DUP4 PUSH2 0x2D3A JUMP JUMPDEST SWAP3 POP DUP3 PUSH32 0xFFFFFFFFFFFFFFFFFFFFFFFFFFFFFFFFFFFFFFFFFFFFFFFFFFFFFFFFFFFFFFFF SUB DUP3 GT ISZERO PUSH2 0x2C32 JUMPI PUSH2 0x2C31 PUSH2 0x2D8D JUMP JUMPDEST JUMPDEST DUP3 DUP3 ADD SWAP1 POP SWAP3 SWAP2 POP POP JUMP JUMPDEST PUSH1 0x0 PUSH2 0x2C48 DUP3 PUSH2 0x2D3A JUMP JUMPDEST SWAP2 POP PUSH2 0x2C53 DUP4 PUSH2 0x2D3A JUMP JUMPDEST SWAP3 POP DUP3 PUSH2 0x2C63 JUMPI PUSH2 0x2C62 PUSH2 0x2DBC JUMP JUMPDEST JUMPDEST DUP3 DUP3 DIV SWAP1 POP SWAP3 SWAP2 POP POP JUMP JUMPDEST PUSH1 0x0 PUSH2 0x2C79 DUP3 PUSH2 0x2D3A JUMP JUMPDEST SWAP2 POP PUSH2 0x2C84 DUP4 PUSH2 0x2D3A JUMP JUMPDEST SWAP3 POP DUP2 PUSH32 0xFFFFFFFFFFFFFFFFFFFFFFFFFFFFFFFFFFFFFFFFFFFFFFFFFFFFFFFFFFFFFFFF DIV DUP4 GT DUP3 ISZERO ISZERO AND ISZERO PUSH2 0x2CBD JUMPI PUSH2 0x2CBC PUSH2 0x2D8D JUMP JUMPDEST JUMPDEST DUP3 DUP3 MUL SWAP1 POP SWAP3 SWAP2 POP POP JUMP JUMPDEST PUSH1 0x0 PUSH2 0x2CD3 DUP3 PUSH2 0x2D3A JUMP JUMPDEST SWAP2 POP PUSH2 0x2CDE DUP4 PUSH2 0x2D3A JUMP JUMPDEST SWAP3 POP DUP3 DUP3 LT ISZERO PUSH2 0x2CF1 JUMPI PUSH2 0x2CF0 PUSH2 0x2D8D JUMP JUMPDEST JUMPDEST DUP3 DUP3 SUB SWAP1 POP SWAP3 SWAP2 POP POP JUMP JUMPDEST PUSH1 0x0 PUSH2 0x2D07 DUP3 PUSH2 0x2D1A JUMP JUMPDEST SWAP1 POP SWAP2 SWAP1 POP JUMP JUMPDEST PUSH1 0x0 DUP2 ISZERO ISZERO SWAP1 POP SWAP2 SWAP1 POP JUMP JUMPDEST PUSH1 0x0 PUSH20 0xFFFFFFFFFFFFFFFFFFFFFFFFFFFFFFFFFFFFFFFF DUP3 AND SWAP1 POP SWAP2 SWAP1 POP JUMP JUMPDEST PUSH1 0x0 DUP2 SWAP1 POP SWAP2 SWAP1 POP JUMP JUMPDEST PUSH1 0x0 PUSH2 0x2D4F DUP3 PUSH2 0x2D3A JUMP JUMPDEST SWAP2 POP PUSH32 0xFFFFFFFFFFFFFFFFFFFFFFFFFFFFFFFFFFFFFFFFFFFFFFFFFFFFFFFFFFFFFFFF DUP3 EQ ISZERO PUSH2 0x2D82 JUMPI PUSH2 0x2D81 PUSH2 0x2D8D JUMP JUMPDEST JUMPDEST PUSH1 0x1 DUP3 ADD SWAP1 POP SWAP2 SWAP1 POP JUMP JUMPDEST PUSH32 0x4E487B7100000000000000000000000000000000000000000000000000000000 PUSH1 0x0 MSTORE PUSH1 0x11 PUSH1 0x4 MSTORE PUSH1 0x24 PUSH1 0x0 REVERT JUMPDEST PUSH32 0x4E487B7100000000000000000000000000000000000000000000000000000000 PUSH1 0x0 MSTORE PUSH1 0x12 PUSH1 0x4 MSTORE PUSH1 0x24 PUSH1 0x0 REVERT JUMPDEST PUSH32 0x4E487B7100000000000000000000000000000000000000000000000000000000 PUSH1 0x0 MSTORE PUSH1 0x32 PUSH1 0x4 MSTORE PUSH1 0x24 PUSH1 0x0 REVERT JUMPDEST PUSH32 0x4E487B7100000000000000000000000000000000000000000000000000000000 PUSH1 0x0 MSTORE PUSH1 0x41 PUSH1 0x4 MSTORE PUSH1 0x24 PUSH1 0x0 REVERT JUMPDEST PUSH1 0x0 DUP1 REVERT JUMPDEST PUSH32 0x796F7520646F6E74206861766520696E766573746D656E7420746F2077697468 PUSH1 0x0 DUP3 ADD MSTORE PUSH32 0x647261776E000000000000000000000000000000000000000000000000000000 PUSH1 0x20 DUP3 ADD MSTORE POP JUMP JUMPDEST PUSH32 0x76616C7565206973206E6F742067726561746572207468616E20313030303020 PUSH1 0x0 DUP3 ADD MSTORE PUSH32 0x616E64206C657373207468616E20353030303030300000000000000000000000 PUSH1 0x20 DUP3 ADD MSTORE POP JUMP JUMPDEST PUSH32 0x796F7520646F6E742068617665207265776172647320746F2077697468647261 PUSH1 0x0 DUP3 ADD MSTORE PUSH32 0x776E000000000000000000000000000000000000000000000000000000000000 PUSH1 0x20 DUP3 ADD MSTORE POP JUMP JUMPDEST PUSH32 0x796F752063616E74207769746864726177206265666F72652031207965617200 PUSH1 0x0 DUP3 ADD MSTORE POP JUMP JUMPDEST PUSH32 0x6F6E6C79204F776E65722063616E2063616C6C20746869732066756E6374696F PUSH1 0x0 DUP3 ADD MSTORE PUSH32 0x6E00000000000000000000000000000000000000000000000000000000000000 PUSH1 0x20 DUP3 ADD MSTORE POP JUMP JUMPDEST PUSH2 0x2FBC DUP2 PUSH2 0x2CFC JUMP JUMPDEST DUP2 EQ PUSH2 0x2FC7 JUMPI PUSH1 0x0 DUP1 REVERT JUMPDEST POP JUMP JUMPDEST PUSH2 0x2FD3 DUP2 PUSH2 0x2D0E JUMP JUMPDEST DUP2 EQ PUSH2 0x2FDE JUMPI PUSH1 0x0 DUP1 REVERT JUMPDEST POP JUMP JUMPDEST PUSH2 0x2FEA DUP2 PUSH2 0x2D3A JUMP JUMPDEST DUP2 EQ PUSH2 0x2FF5 JUMPI PUSH1 0x0 DUP1 REVERT JUMPDEST POP JUMP INVALID LOG2 PUSH5 0x6970667358 0x22 SLT KECCAK256 SGT BALANCE 0xDB 0x1F 0xAD 0xBD MSTORE PUSH16 0x36CE8D4797EEED9EEFF46298E2D1A1E0 PUSH16 0xA3E1CB4281F97E64736F6C6343000807 STOP CALLER "
				},
				"gasEstimates": {
					"creation": {
						"codeDepositCost": "2466800",
						"executionCost": "208094",
						"totalCost": "2674894"
					},
					"external": {
						"Admin_data()": "infinite",
						"All_investors(uint256)": "2928",
						"DUSDReferralsList()": "infinite",
						"DUSDTotalReferrals()": "2608",
						"DUSDinvestor(address)": "infinite",
						"Stake(uint256)": "infinite",
						"denomenator()": "2496",
						"getAllDUSDinvestments()": "infinite",
						"getReward()": "infinite",
						"getTotalInvestmentDUSD()": "2577",
						"investmentPeriod()": "2540",
						"max_Stake_amount()": "2539",
						"min_Stake_amount()": "2540",
						"owner()": "2601",
						"referralLevel_count()": "infinite",
						"referralLevel_earning()": "infinite",
						"rewardToken()": "2517",
						"setReward(uint256)": "22632",
						"set_max_Stake_amount(uint256)": "22587",
						"set_min_Stake_amount(uint256)": "22654",
						"set_values(uint256,uint256,uint256,uint256)": "infinite",
						"totalDUSDInvestors()": "2475",
						"total_withdraw_reaward()": "2591",
						"totalbusiness()": "2518",
						"transferOwnership(address)": "26933",
						"unStake()": "infinite",
						"withdrawReward()": "infinite"
					},
					"internal": {
						"DUSDTotalReferrals_inside(address)": "2238",
						"get_investor_Reward(address)": "infinite"
					}
				},
				"methodIdentifiers": {
					"Admin_data()": "42508f66",
					"All_investors(uint256)": "502c6bfa",
					"DUSDReferralsList()": "0c5f58f4",
					"DUSDTotalReferrals()": "1e8aba35",
					"DUSDinvestor(address)": "d3560ee8",
					"Stake(uint256)": "227a473b",
					"denomenator()": "9740a1bc",
					"getAllDUSDinvestments()": "3a1e0833",
					"getReward()": "3d18b912",
					"getTotalInvestmentDUSD()": "929f6bbe",
					"investmentPeriod()": "523cddfe",
					"max_Stake_amount()": "fae730bc",
					"min_Stake_amount()": "bc67eaff",
					"owner()": "8da5cb5b",
					"referralLevel_count()": "f790b81a",
					"referralLevel_earning()": "a61be99d",
					"rewardToken()": "f7c618c1",
					"setReward(uint256)": "293be456",
					"set_max_Stake_amount(uint256)": "500cb85f",
					"set_min_Stake_amount(uint256)": "32d4e783",
					"set_values(uint256,uint256,uint256,uint256)": "4eb1ecc9",
					"totalDUSDInvestors()": "10cde60a",
					"total_withdraw_reaward()": "5a4a0192",
					"totalbusiness()": "e2033fcb",
					"transferOwnership(address)": "f2fde38b",
					"unStake()": "73cf575a",
					"withdrawReward()": "c885bc58"
				}
			},
			"storageLayout": {
				"storage": [
					{
						"astId": 24,
						"contract": "contracts/contractsCopy/khaledulsaleh_staking.sol:Invest",
						"label": "owner",
						"offset": 0,
						"slot": "0",
						"type": "t_address"
					},
					{
						"astId": 27,
						"contract": "contracts/contractsCopy/khaledulsaleh_staking.sol:Invest",
						"label": "SMCcontract",
						"offset": 0,
						"slot": "1",
						"type": "t_address"
					},
					{
						"astId": 30,
						"contract": "contracts/contractsCopy/khaledulsaleh_staking.sol:Invest",
						"label": "BUSDcontract",
						"offset": 0,
						"slot": "2",
						"type": "t_address"
					},
					{
						"astId": 33,
						"contract": "contracts/contractsCopy/khaledulsaleh_staking.sol:Invest",
						"label": "reward_per_day",
						"offset": 0,
						"slot": "3",
						"type": "t_uint256"
					},
					{
						"astId": 35,
						"contract": "contracts/contractsCopy/khaledulsaleh_staking.sol:Invest",
						"label": "totalDUSDInvestors",
						"offset": 0,
						"slot": "4",
						"type": "t_uint256"
					},
					{
						"astId": 38,
						"contract": "contracts/contractsCopy/khaledulsaleh_staking.sol:Invest",
						"label": "rewardToken",
						"offset": 0,
						"slot": "5",
						"type": "t_uint256"
					},
					{
						"astId": 41,
						"contract": "contracts/contractsCopy/khaledulsaleh_staking.sol:Invest",
						"label": "min_Stake_amount",
						"offset": 0,
						"slot": "6",
						"type": "t_uint256"
					},
					{
						"astId": 44,
						"contract": "contracts/contractsCopy/khaledulsaleh_staking.sol:Invest",
						"label": "max_Stake_amount",
						"offset": 0,
						"slot": "7",
						"type": "t_uint256"
					},
					{
						"astId": 47,
						"contract": "contracts/contractsCopy/khaledulsaleh_staking.sol:Invest",
						"label": "denomenator",
						"offset": 0,
						"slot": "8",
						"type": "t_uint256"
					},
					{
						"astId": 50,
						"contract": "contracts/contractsCopy/khaledulsaleh_staking.sol:Invest",
						"label": "investmentPeriod",
						"offset": 0,
						"slot": "9",
						"type": "t_uint256"
					},
					{
						"astId": 52,
						"contract": "contracts/contractsCopy/khaledulsaleh_staking.sol:Invest",
						"label": "totalbusiness",
						"offset": 0,
						"slot": "10",
						"type": "t_uint256"
					},
					{
						"astId": 54,
						"contract": "contracts/contractsCopy/khaledulsaleh_staking.sol:Invest",
						"label": "rew_till_done",
						"offset": 0,
						"slot": "11",
						"type": "t_uint256"
					},
					{
						"astId": 58,
						"contract": "contracts/contractsCopy/khaledulsaleh_staking.sol:Invest",
						"label": "All_investors",
						"offset": 0,
						"slot": "12",
						"type": "t_mapping(t_uint256,t_address)"
					},
					{
						"astId": 122,
						"contract": "contracts/contractsCopy/khaledulsaleh_staking.sol:Invest",
						"label": "DUSDinvestor",
						"offset": 0,
						"slot": "13",
						"type": "t_mapping(t_address,t_struct(Data)117_storage)"
					}
				],
				"types": {
					"t_address": {
						"encoding": "inplace",
						"label": "address",
						"numberOfBytes": "20"
					},
					"t_array(t_address)dyn_storage": {
						"base": "t_address",
						"encoding": "dynamic_array",
						"label": "address[]",
						"numberOfBytes": "32"
					},
					"t_bool": {
						"encoding": "inplace",
						"label": "bool",
						"numberOfBytes": "1"
					},
					"t_mapping(t_address,t_struct(Data)117_storage)": {
						"encoding": "mapping",
						"key": "t_address",
						"label": "mapping(address => struct Invest.Data)",
						"numberOfBytes": "32",
						"value": "t_struct(Data)117_storage"
					},
					"t_mapping(t_uint256,t_address)": {
						"encoding": "mapping",
						"key": "t_uint256",
						"label": "mapping(uint256 => address)",
						"numberOfBytes": "32",
						"value": "t_address"
					},
					"t_mapping(t_uint256,t_struct(allInvestments)71_storage)": {
						"encoding": "mapping",
						"key": "t_uint256",
						"label": "mapping(uint256 => struct Invest.allInvestments)",
						"numberOfBytes": "32",
						"value": "t_struct(allInvestments)71_storage"
					},
					"t_mapping(t_uint256,t_struct(ref_data)76_storage)": {
						"encoding": "mapping",
						"key": "t_uint256",
						"label": "mapping(uint256 => struct Invest.ref_data)",
						"numberOfBytes": "32",
						"value": "t_struct(ref_data)76_storage"
					},
					"t_struct(Data)117_storage": {
						"encoding": "inplace",
						"label": "struct Invest.Data",
						"members": [
							{
								"astId": 94,
								"contract": "contracts/contractsCopy/khaledulsaleh_staking.sol:Invest",
								"label": "investment",
								"offset": 0,
								"slot": "0",
								"type": "t_mapping(t_uint256,t_struct(allInvestments)71_storage)"
							},
							{
								"astId": 97,
								"contract": "contracts/contractsCopy/khaledulsaleh_staking.sol:Invest",
								"label": "hisReferrals",
								"offset": 0,
								"slot": "1",
								"type": "t_array(t_address)dyn_storage"
							},
							{
								"astId": 99,
								"contract": "contracts/contractsCopy/khaledulsaleh_staking.sol:Invest",
								"label": "referralFrom",
								"offset": 0,
								"slot": "2",
								"type": "t_address"
							},
							{
								"astId": 104,
								"contract": "contracts/contractsCopy/khaledulsaleh_staking.sol:Invest",
								"label": "referralLevel",
								"offset": 0,
								"slot": "3",
								"type": "t_mapping(t_uint256,t_struct(ref_data)76_storage)"
							},
							{
								"astId": 106,
								"contract": "contracts/contractsCopy/khaledulsaleh_staking.sol:Invest",
								"label": "reward",
								"offset": 0,
								"slot": "4",
								"type": "t_uint256"
							},
							{
								"astId": 108,
								"contract": "contracts/contractsCopy/khaledulsaleh_staking.sol:Invest",
								"label": "noOfInvestment",
								"offset": 0,
								"slot": "5",
								"type": "t_uint256"
							},
							{
								"astId": 110,
								"contract": "contracts/contractsCopy/khaledulsaleh_staking.sol:Invest",
								"label": "totalInvestment",
								"offset": 0,
								"slot": "6",
								"type": "t_uint256"
							},
							{
								"astId": 112,
								"contract": "contracts/contractsCopy/khaledulsaleh_staking.sol:Invest",
								"label": "totalWithdraw_reward",
								"offset": 0,
								"slot": "7",
								"type": "t_uint256"
							},
							{
								"astId": 114,
								"contract": "contracts/contractsCopy/khaledulsaleh_staking.sol:Invest",
								"label": "investBefore",
								"offset": 0,
								"slot": "8",
								"type": "t_bool"
							},
							{
								"astId": 116,
								"contract": "contracts/contractsCopy/khaledulsaleh_staking.sol:Invest",
								"label": "stakeTime",
								"offset": 0,
								"slot": "9",
								"type": "t_uint256"
							}
						],
						"numberOfBytes": "320"
					},
					"t_struct(allInvestments)71_storage": {
						"encoding": "inplace",
						"label": "struct Invest.allInvestments",
						"members": [
							{
								"astId": 60,
								"contract": "contracts/contractsCopy/khaledulsaleh_staking.sol:Invest",
								"label": "investedAmount",
								"offset": 0,
								"slot": "0",
								"type": "t_uint256"
							},
							{
								"astId": 62,
								"contract": "contracts/contractsCopy/khaledulsaleh_staking.sol:Invest",
								"label": "withdrawnTime",
								"offset": 0,
								"slot": "1",
								"type": "t_uint256"
							},
							{
								"astId": 64,
								"contract": "contracts/contractsCopy/khaledulsaleh_staking.sol:Invest",
								"label": "DepositTime",
								"offset": 0,
								"slot": "2",
								"type": "t_uint256"
							},
							{
								"astId": 66,
								"contract": "contracts/contractsCopy/khaledulsaleh_staking.sol:Invest",
								"label": "investmentNum",
								"offset": 0,
								"slot": "3",
								"type": "t_uint256"
							},
							{
								"astId": 68,
								"contract": "contracts/contractsCopy/khaledulsaleh_staking.sol:Invest",
								"label": "unstakeTime",
								"offset": 0,
								"slot": "4",
								"type": "t_uint256"
							},
							{
								"astId": 70,
								"contract": "contracts/contractsCopy/khaledulsaleh_staking.sol:Invest",
								"label": "unstake",
								"offset": 0,
								"slot": "5",
								"type": "t_bool"
							}
						],
						"numberOfBytes": "192"
					},
					"t_struct(ref_data)76_storage": {
						"encoding": "inplace",
						"label": "struct Invest.ref_data",
						"members": [
							{
								"astId": 73,
								"contract": "contracts/contractsCopy/khaledulsaleh_staking.sol:Invest",
								"label": "reward",
								"offset": 0,
								"slot": "0",
								"type": "t_uint256"
							},
							{
								"astId": 75,
								"contract": "contracts/contractsCopy/khaledulsaleh_staking.sol:Invest",
								"label": "count",
								"offset": 0,
								"slot": "1",
								"type": "t_uint256"
							}
						],
						"numberOfBytes": "64"
					},
					"t_uint256": {
						"encoding": "inplace",
						"label": "uint256",
						"numberOfBytes": "32"
					}
				}
			},
			"userdoc": {
				"kind": "user",
				"methods": {},
				"version": 1
			}
		}
	}
}