{
	"contracts/contractsCopy/khaledulsaleh_staking.sol": {
		"Invest": {
			"abi": [
				{
					"inputs": [],
					"stateMutability": "nonpayable",
					"type": "constructor"
				},
				{
					"inputs": [],
					"name": "Admin_data",
					"outputs": [
						{
							"components": [
								{
									"internalType": "address",
									"name": "investor",
									"type": "address"
								},
								{
									"internalType": "uint256",
									"name": "totalInvestment",
									"type": "uint256"
								},
								{
									"internalType": "uint256",
									"name": "reward",
									"type": "uint256"
								},
								{
									"internalType": "uint256",
									"name": "noOfInvestment",
									"type": "uint256"
								},
								{
									"internalType": "uint256",
									"name": "totalWithdraw_reward",
									"type": "uint256"
								},
								{
									"internalType": "uint256",
									"name": "Total_referrals",
									"type": "uint256"
								}
							],
							"internalType": "struct Invest.Admin_Data[]",
							"name": "",
							"type": "tuple[]"
						}
					],
					"stateMutability": "view",
					"type": "function"
				},
				{
					"inputs": [
						{
							"internalType": "uint256",
							"name": "",
							"type": "uint256"
						}
					],
					"name": "All_investors",
					"outputs": [
						{
							"internalType": "address",
							"name": "",
							"type": "address"
						}
					],
					"stateMutability": "view",
					"type": "function"
				},
				{
					"inputs": [],
					"name": "DUSDReferralsList",
					"outputs": [
						{
							"internalType": "address[]",
							"name": "",
							"type": "address[]"
						}
					],
					"stateMutability": "view",
					"type": "function"
				},
				{
					"inputs": [],
					"name": "DUSDTotalReferrals",
					"outputs": [
						{
							"internalType": "uint256",
							"name": "",
							"type": "uint256"
						}
					],
					"stateMutability": "view",
					"type": "function"
				},
				{
					"inputs": [
						{
							"internalType": "address",
							"name": "",
							"type": "address"
						}
					],
					"name": "DUSDinvestor",
					"outputs": [
						{
							"internalType": "address",
							"name": "referralFrom",
							"type": "address"
						},
						{
							"internalType": "uint256",
							"name": "reward",
							"type": "uint256"
						},
						{
							"internalType": "uint256",
							"name": "noOfInvestment",
							"type": "uint256"
						},
						{
							"internalType": "uint256",
							"name": "totalInvestment",
							"type": "uint256"
						},
						{
							"internalType": "uint256",
							"name": "totalWithdraw_reward",
							"type": "uint256"
						},
						{
							"internalType": "bool",
							"name": "investBefore",
							"type": "bool"
						},
						{
							"internalType": "uint256",
							"name": "stakeTime",
							"type": "uint256"
						}
					],
					"stateMutability": "view",
					"type": "function"
				},
				{
					"inputs": [
						{
							"internalType": "uint256",
							"name": "_investedamount",
							"type": "uint256"
						},
						{
							"internalType": "address",
							"name": "_referral",
							"type": "address"
						}
					],
					"name": "Stake",
					"outputs": [
						{
							"internalType": "bool",
							"name": "success",
							"type": "bool"
						}
					],
					"stateMutability": "nonpayable",
					"type": "function"
				},
				{
					"inputs": [],
					"name": "denomenator",
					"outputs": [
						{
							"internalType": "uint256",
							"name": "",
							"type": "uint256"
						}
					],
					"stateMutability": "view",
					"type": "function"
				},
				{
					"inputs": [],
					"name": "getAllDUSDinvestments",
					"outputs": [
						{
							"components": [
								{
									"internalType": "uint256",
									"name": "investedAmount",
									"type": "uint256"
								},
								{
									"internalType": "uint256",
									"name": "withdrawnTime",
									"type": "uint256"
								},
								{
									"internalType": "uint256",
									"name": "DepositTime",
									"type": "uint256"
								},
								{
									"internalType": "uint256",
									"name": "investmentNum",
									"type": "uint256"
								},
								{
									"internalType": "uint256",
									"name": "unstakeTime",
									"type": "uint256"
								},
								{
									"internalType": "bool",
									"name": "unstake",
									"type": "bool"
								}
							],
							"internalType": "struct Invest.allInvestments[]",
							"name": "",
							"type": "tuple[]"
						}
					],
					"stateMutability": "view",
					"type": "function"
				},
				{
					"inputs": [],
					"name": "getReward",
					"outputs": [
						{
							"internalType": "uint256",
							"name": "",
							"type": "uint256"
						}
					],
					"stateMutability": "view",
					"type": "function"
				},
				{
					"inputs": [],
					"name": "getTotalInvestmentDUSD",
					"outputs": [
						{
							"internalType": "uint256",
							"name": "",
							"type": "uint256"
						}
					],
					"stateMutability": "view",
					"type": "function"
				},
				{
					"inputs": [
						{
							"internalType": "address",
							"name": "investor",
							"type": "address"
						}
					],
					"name": "get_investor_Reward",
					"outputs": [
						{
							"internalType": "uint256",
							"name": "",
							"type": "uint256"
						}
					],
					"stateMutability": "view",
					"type": "function"
				},
				{
					"inputs": [],
					"name": "investmentPeriod",
					"outputs": [
						{
							"internalType": "uint256",
							"name": "",
							"type": "uint256"
						}
					],
					"stateMutability": "view",
					"type": "function"
				},
				{
					"inputs": [],
					"name": "max_Stake_amount",
					"outputs": [
						{
							"internalType": "uint256",
							"name": "",
							"type": "uint256"
						}
					],
					"stateMutability": "view",
					"type": "function"
				},
				{
					"inputs": [],
					"name": "min_Stake_amount",
					"outputs": [
						{
							"internalType": "uint256",
							"name": "",
							"type": "uint256"
						}
					],
					"stateMutability": "view",
					"type": "function"
				},
				{
					"inputs": [],
					"name": "owner",
					"outputs": [
						{
							"internalType": "address",
							"name": "",
							"type": "address"
						}
					],
					"stateMutability": "view",
					"type": "function"
				},
				{
					"inputs": [],
					"name": "referralLevel_count",
					"outputs": [
						{
							"internalType": "uint256[]",
							"name": "arr",
							"type": "uint256[]"
						}
					],
					"stateMutability": "view",
					"type": "function"
				},
				{
					"inputs": [],
					"name": "referralLevel_earning",
					"outputs": [
						{
							"internalType": "uint256[]",
							"name": "arr",
							"type": "uint256[]"
						}
					],
					"stateMutability": "view",
					"type": "function"
				},
				{
					"inputs": [],
					"name": "rewardToken",
					"outputs": [
						{
							"internalType": "uint256",
							"name": "",
							"type": "uint256"
						}
					],
					"stateMutability": "view",
					"type": "function"
				},
				{
					"inputs": [
						{
							"internalType": "uint256",
							"name": "_amount",
							"type": "uint256"
						},
						{
							"internalType": "uint256",
							"name": "_denomenator",
							"type": "uint256"
						}
					],
					"name": "setReward",
					"outputs": [],
					"stateMutability": "nonpayable",
					"type": "function"
				},
				{
					"inputs": [
						{
							"internalType": "uint256",
							"name": "_amount",
							"type": "uint256"
						}
					],
					"name": "set_max_Stake_amount",
					"outputs": [],
					"stateMutability": "nonpayable",
					"type": "function"
				},
				{
					"inputs": [
						{
							"internalType": "uint256",
							"name": "_amount",
							"type": "uint256"
						}
					],
					"name": "set_min_Stake_amount",
					"outputs": [],
					"stateMutability": "nonpayable",
					"type": "function"
				},
				{
					"inputs": [
						{
							"internalType": "uint256",
							"name": "min_stake",
							"type": "uint256"
						},
						{
							"internalType": "uint256",
							"name": "max_stake",
							"type": "uint256"
						},
						{
							"internalType": "uint256",
							"name": "_reward_per_day",
							"type": "uint256"
						},
						{
							"internalType": "uint256",
							"name": "_denomenator",
							"type": "uint256"
						}
					],
					"name": "set_values",
					"outputs": [],
					"stateMutability": "nonpayable",
					"type": "function"
				},
				{
					"inputs": [],
					"name": "totalDUSDInvestors",
					"outputs": [
						{
							"internalType": "uint256",
							"name": "",
							"type": "uint256"
						}
					],
					"stateMutability": "view",
					"type": "function"
				},
				{
					"inputs": [],
					"name": "total_withdraw_reaward",
					"outputs": [
						{
							"internalType": "uint256",
							"name": "",
							"type": "uint256"
						}
					],
					"stateMutability": "view",
					"type": "function"
				},
				{
					"inputs": [],
					"name": "totalbusiness",
					"outputs": [
						{
							"internalType": "uint256",
							"name": "",
							"type": "uint256"
						}
					],
					"stateMutability": "view",
					"type": "function"
				},
				{
					"inputs": [
						{
							"internalType": "address",
							"name": "_owner",
							"type": "address"
						}
					],
					"name": "transferOwnership",
					"outputs": [],
					"stateMutability": "nonpayable",
					"type": "function"
				},
				{
					"inputs": [],
					"name": "unStake",
					"outputs": [
						{
							"internalType": "bool",
							"name": "success",
							"type": "bool"
						}
					],
					"stateMutability": "nonpayable",
					"type": "function"
				},
				{
					"inputs": [],
					"name": "withdrawReward",
					"outputs": [
						{
							"internalType": "bool",
							"name": "success",
							"type": "bool"
						}
					],
					"stateMutability": "nonpayable",
					"type": "function"
				}
			],
			"devdoc": {
				"kind": "dev",
				"methods": {},
				"version": 1
			},
			"evm": {
				"assembly": "    /* \"contracts/contractsCopy/khaledulsaleh_staking.sol\":262:13704  contract Invest... */\n  mstore(0x40, 0x80)\n    /* \"contracts/contractsCopy/khaledulsaleh_staking.sol\":504:546  0x9462A065c980693808405eB4f2851f0FfA1d3016 */\n  0x9462a065c980693808405eb4f2851f0ffa1d3016\n    /* \"contracts/contractsCopy/khaledulsaleh_staking.sol\":484:546  address SMCcontract=0x9462A065c980693808405eB4f2851f0FfA1d3016 */\n  0x01\n  exp(0x0100, 0x00)\n  dup2\n  sload\n  dup2\n  0xffffffffffffffffffffffffffffffffffffffff\n  mul\n  not\n  and\n  swap1\n  dup4\n  0xffffffffffffffffffffffffffffffffffffffff\n  and\n  mul\n  or\n  swap1\n  sstore\n  pop\n    /* \"contracts/contractsCopy/khaledulsaleh_staking.sol\":577:619  0xc8BbA86A801Cd87ca72222d5A43639592fbAA6EC */\n  0xc8bba86a801cd87ca72222d5a43639592fbaa6ec\n    /* \"contracts/contractsCopy/khaledulsaleh_staking.sol\":556:619  address BUSDcontract=0xc8BbA86A801Cd87ca72222d5A43639592fbAA6EC */\n  0x02\n  exp(0x0100, 0x00)\n  dup2\n  sload\n  dup2\n  0xffffffffffffffffffffffffffffffffffffffff\n  mul\n  not\n  and\n  swap1\n  dup4\n  0xffffffffffffffffffffffffffffffffffffffff\n  and\n  mul\n  or\n  swap1\n  sstore\n  pop\n    /* \"contracts/contractsCopy/khaledulsaleh_staking.sol\":649:652  191 */\n  0xbf\n    /* \"contracts/contractsCopy/khaledulsaleh_staking.sol\":629:652  uint reward_per_day=191 */\n  0x03\n  sstore\n    /* \"contracts/contractsCopy/khaledulsaleh_staking.sol\":726:745  5000000000000000000 */\n  0x4563918244f40000\n    /* \"contracts/contractsCopy/khaledulsaleh_staking.sol\":702:745  uint public rewardToken=5000000000000000000 */\n  0x05\n  sstore\n    /* \"contracts/contractsCopy/khaledulsaleh_staking.sol\":794:799  10000 */\n  0x2710\n    /* \"contracts/contractsCopy/khaledulsaleh_staking.sol\":765:799  uint public min_Stake_amount=10000 */\n  0x06\n  sstore\n    /* \"contracts/contractsCopy/khaledulsaleh_staking.sol\":865:872  5000000 */\n  0x4c4b40\n    /* \"contracts/contractsCopy/khaledulsaleh_staking.sol\":836:872  uint public max_Stake_amount=5000000 */\n  0x07\n  sstore\n    /* \"contracts/contractsCopy/khaledulsaleh_staking.sol\":934:940  100000 */\n  0x0186a0\n    /* \"contracts/contractsCopy/khaledulsaleh_staking.sol\":910:940  uint public denomenator=100000 */\n  0x08\n  sstore\n    /* \"contracts/contractsCopy/khaledulsaleh_staking.sol\":1007:1015  365 days */\n  0x01e13380\n    /* \"contracts/contractsCopy/khaledulsaleh_staking.sol\":978:1015  uint public investmentPeriod=365 days */\n  0x09\n  sstore\n    /* \"contracts/contractsCopy/khaledulsaleh_staking.sol\":2144:2274  constructor(){... */\n  callvalue\n  dup1\n  iszero\n  tag_1\n  jumpi\n  0x00\n  dup1\n  revert\ntag_1:\n  pop\n    /* \"contracts/contractsCopy/khaledulsaleh_staking.sol\":2190:2200  msg.sender */\n  caller\n    /* \"contracts/contractsCopy/khaledulsaleh_staking.sol\":2184:2189  owner */\n  0x00\n  dup1\n    /* \"contracts/contractsCopy/khaledulsaleh_staking.sol\":2184:2200  owner=msg.sender */\n  0x0100\n  exp\n  dup2\n  sload\n  dup2\n  0xffffffffffffffffffffffffffffffffffffffff\n  mul\n  not\n  and\n  swap1\n  dup4\n  0xffffffffffffffffffffffffffffffffffffffff\n  and\n  mul\n  or\n  swap1\n  sstore\n  pop\n    /* \"contracts/contractsCopy/khaledulsaleh_staking.sol\":262:13704  contract Invest... */\n  dataSize(sub_0)\n  dup1\n  dataOffset(sub_0)\n  0x00\n  codecopy\n  0x00\n  return\nstop\n\nsub_0: assembly {\n        /* \"contracts/contractsCopy/khaledulsaleh_staking.sol\":262:13704  contract Invest... */\n      mstore(0x40, 0x80)\n      callvalue\n      dup1\n      iszero\n      tag_1\n      jumpi\n      0x00\n      dup1\n      revert\n    tag_1:\n      pop\n      jumpi(tag_2, lt(calldatasize, 0x04))\n      shr(0xe0, calldataload(0x00))\n      dup1\n      0x8da5cb5b\n      gt\n      tag_31\n      jumpi\n      dup1\n      0xc885bc58\n      gt\n      tag_32\n      jumpi\n      dup1\n      0xf2fde38b\n      gt\n      tag_33\n      jumpi\n      dup1\n      0xf2fde38b\n      eq\n      tag_27\n      jumpi\n      dup1\n      0xf790b81a\n      eq\n      tag_28\n      jumpi\n      dup1\n      0xf7c618c1\n      eq\n      tag_29\n      jumpi\n      dup1\n      0xfae730bc\n      eq\n      tag_30\n      jumpi\n      jump(tag_2)\n    tag_33:\n      dup1\n      0xc885bc58\n      eq\n      tag_24\n      jumpi\n      dup1\n      0xd3560ee8\n      eq\n      tag_25\n      jumpi\n      dup1\n      0xe2033fcb\n      eq\n      tag_26\n      jumpi\n      jump(tag_2)\n    tag_32:\n      dup1\n      0xa47bd496\n      gt\n      tag_34\n      jumpi\n      dup1\n      0xa47bd496\n      eq\n      tag_20\n      jumpi\n      dup1\n      0xa61be99d\n      eq\n      tag_21\n      jumpi\n      dup1\n      0xbc2fd830\n      eq\n      tag_22\n      jumpi\n      dup1\n      0xbc67eaff\n      eq\n      tag_23\n      jumpi\n      jump(tag_2)\n    tag_34:\n      dup1\n      0x8da5cb5b\n      eq\n      tag_17\n      jumpi\n      dup1\n      0x929f6bbe\n      eq\n      tag_18\n      jumpi\n      dup1\n      0x9740a1bc\n      eq\n      tag_19\n      jumpi\n      jump(tag_2)\n    tag_31:\n      dup1\n      0x42508f66\n      gt\n      tag_35\n      jumpi\n      dup1\n      0x502c6bfa\n      gt\n      tag_36\n      jumpi\n      dup1\n      0x502c6bfa\n      eq\n      tag_13\n      jumpi\n      dup1\n      0x523cddfe\n      eq\n      tag_14\n      jumpi\n      dup1\n      0x5a4a0192\n      eq\n      tag_15\n      jumpi\n      dup1\n      0x73cf575a\n      eq\n      tag_16\n      jumpi\n      jump(tag_2)\n    tag_36:\n      dup1\n      0x42508f66\n      eq\n      tag_10\n      jumpi\n      dup1\n      0x4eb1ecc9\n      eq\n      tag_11\n      jumpi\n      dup1\n      0x500cb85f\n      eq\n      tag_12\n      jumpi\n      jump(tag_2)\n    tag_35:\n      dup1\n      0x2bccdce6\n      gt\n      tag_37\n      jumpi\n      dup1\n      0x2bccdce6\n      eq\n      tag_6\n      jumpi\n      dup1\n      0x32d4e783\n      eq\n      tag_7\n      jumpi\n      dup1\n      0x3a1e0833\n      eq\n      tag_8\n      jumpi\n      dup1\n      0x3d18b912\n      eq\n      tag_9\n      jumpi\n      jump(tag_2)\n    tag_37:\n      dup1\n      0x0c5f58f4\n      eq\n      tag_3\n      jumpi\n      dup1\n      0x10cde60a\n      eq\n      tag_4\n      jumpi\n      dup1\n      0x1e8aba35\n      eq\n      tag_5\n      jumpi\n    tag_2:\n      0x00\n      dup1\n      revert\n        /* \"contracts/contractsCopy/khaledulsaleh_staking.sol\":10481:10690  function DUSDReferralsList() public view returns(address[] memory){ //this function is to get the all investors list with there account number... */\n    tag_3:\n      tag_38\n      tag_39\n      jump\t// in\n    tag_38:\n      mload(0x40)\n      tag_40\n      swap2\n      swap1\n      tag_41\n      jump\t// in\n    tag_40:\n      mload(0x40)\n      dup1\n      swap2\n      sub\n      swap1\n      return\n        /* \"contracts/contractsCopy/khaledulsaleh_staking.sol\":662:692  uint public totalDUSDInvestors */\n    tag_4:\n      tag_42\n      tag_43\n      jump\t// in\n    tag_42:\n      mload(0x40)\n      tag_44\n      swap2\n      swap1\n      tag_45\n      jump\t// in\n    tag_44:\n      mload(0x40)\n      dup1\n      swap2\n      sub\n      swap1\n      return\n        /* \"contracts/contractsCopy/khaledulsaleh_staking.sol\":10057:10248  function DUSDTotalReferrals() public view returns(uint){ // this function is to get the total number of referrals ... */\n    tag_5:\n      tag_46\n      tag_47\n      jump\t// in\n    tag_46:\n      mload(0x40)\n      tag_48\n      swap2\n      swap1\n      tag_45\n      jump\t// in\n    tag_48:\n      mload(0x40)\n      dup1\n      swap2\n      sub\n      swap1\n      return\n        /* \"contracts/contractsCopy/khaledulsaleh_staking.sol\":3958:6321  function Stake(uint _investedamount,address _referral) external returns(bool success){... */\n    tag_6:\n      tag_49\n      0x04\n      dup1\n      calldatasize\n      sub\n      dup2\n      add\n      swap1\n      tag_50\n      swap2\n      swap1\n      tag_51\n      jump\t// in\n    tag_50:\n      tag_52\n      jump\t// in\n    tag_49:\n      mload(0x40)\n      tag_53\n      swap2\n      swap1\n      tag_54\n      jump\t// in\n    tag_53:\n      mload(0x40)\n      dup1\n      swap2\n      sub\n      swap1\n      return\n        /* \"contracts/contractsCopy/khaledulsaleh_staking.sol\":10862:10973  function set_min_Stake_amount(uint _amount) public ... */\n    tag_7:\n      tag_55\n      0x04\n      dup1\n      calldatasize\n      sub\n      dup2\n      add\n      swap1\n      tag_56\n      swap2\n      swap1\n      tag_57\n      jump\t// in\n    tag_56:\n      tag_58\n      jump\t// in\n    tag_55:\n      stop\n        /* \"contracts/contractsCopy/khaledulsaleh_staking.sol\":9062:10045  function getAllDUSDinvestments() public view returns (allInvestments[] memory) { //this function will return the all investments of the investor and withware date... */\n    tag_8:\n      tag_59\n      tag_60\n      jump\t// in\n    tag_59:\n      mload(0x40)\n      tag_61\n      swap2\n      swap1\n      tag_62\n      jump\t// in\n    tag_61:\n      mload(0x40)\n      dup1\n      swap2\n      sub\n      swap1\n      return\n        /* \"contracts/contractsCopy/khaledulsaleh_staking.sol\":6331:6706  function getReward() view public returns(uint){ //this function is get the total reward balance of the investor... */\n    tag_9:\n      tag_63\n      tag_64\n      jump\t// in\n    tag_63:\n      mload(0x40)\n      tag_65\n      swap2\n      swap1\n      tag_45\n      jump\t// in\n    tag_65:\n      mload(0x40)\n      dup1\n      swap2\n      sub\n      swap1\n      return\n        /* \"contracts/contractsCopy/khaledulsaleh_staking.sol\":12724:13503  function Admin_data() view public returns(Admin_Data[] memory){... */\n    tag_10:\n      tag_66\n      tag_67\n      jump\t// in\n    tag_66:\n      mload(0x40)\n      tag_68\n      swap2\n      swap1\n      tag_69\n      jump\t// in\n    tag_68:\n      mload(0x40)\n      dup1\n      swap2\n      sub\n      swap1\n      return\n        /* \"contracts/contractsCopy/khaledulsaleh_staking.sol\":11102:11386  function set_values(uint min_stake,uint max_stake,uint _reward_per_day,uint _denomenator) public ... */\n    tag_11:\n      tag_70\n      0x04\n      dup1\n      calldatasize\n      sub\n      dup2\n      add\n      swap1\n      tag_71\n      swap2\n      swap1\n      tag_72\n      jump\t// in\n    tag_71:\n      tag_73\n      jump\t// in\n    tag_70:\n      stop\n        /* \"contracts/contractsCopy/khaledulsaleh_staking.sol\":10982:11093  function set_max_Stake_amount(uint _amount) public ... */\n    tag_12:\n      tag_74\n      0x04\n      dup1\n      calldatasize\n      sub\n      dup2\n      add\n      swap1\n      tag_75\n      swap2\n      swap1\n      tag_57\n      jump\t// in\n    tag_75:\n      tag_76\n      jump\t// in\n    tag_74:\n      stop\n        /* \"contracts/contractsCopy/khaledulsaleh_staking.sol\":1089:1132  mapping(uint=>address) public All_investors */\n    tag_13:\n      tag_77\n      0x04\n      dup1\n      calldatasize\n      sub\n      dup2\n      add\n      swap1\n      tag_78\n      swap2\n      swap1\n      tag_57\n      jump\t// in\n    tag_78:\n      tag_79\n      jump\t// in\n    tag_77:\n      mload(0x40)\n      tag_80\n      swap2\n      swap1\n      tag_81\n      jump\t// in\n    tag_80:\n      mload(0x40)\n      dup1\n      swap2\n      sub\n      swap1\n      return\n        /* \"contracts/contractsCopy/khaledulsaleh_staking.sol\":978:1015  uint public investmentPeriod=365 days */\n    tag_14:\n      tag_82\n      tag_83\n      jump\t// in\n    tag_82:\n      mload(0x40)\n      tag_84\n      swap2\n      swap1\n      tag_45\n      jump\t// in\n    tag_84:\n      mload(0x40)\n      dup1\n      swap2\n      sub\n      swap1\n      return\n        /* \"contracts/contractsCopy/khaledulsaleh_staking.sol\":13513:13696  function total_withdraw_reaward() view public returns(uint){... */\n    tag_15:\n      tag_85\n      tag_86\n      jump\t// in\n    tag_85:\n      mload(0x40)\n      tag_87\n      swap2\n      swap1\n      tag_45\n      jump\t// in\n    tag_87:\n      mload(0x40)\n      dup1\n      swap2\n      sub\n      swap1\n      return\n        /* \"contracts/contractsCopy/khaledulsaleh_staking.sol\":7636:8832  function unStake() external  returns (bool success){... */\n    tag_16:\n      tag_88\n      tag_89\n      jump\t// in\n    tag_88:\n      mload(0x40)\n      tag_90\n      swap2\n      swap1\n      tag_54\n      jump\t// in\n    tag_90:\n      mload(0x40)\n      dup1\n      swap2\n      sub\n      swap1\n      return\n        /* \"contracts/contractsCopy/khaledulsaleh_staking.sol\":300:321  address  public owner */\n    tag_17:\n      tag_91\n      tag_92\n      jump\t// in\n    tag_91:\n      mload(0x40)\n      tag_93\n      swap2\n      swap1\n      tag_81\n      jump\t// in\n    tag_93:\n      mload(0x40)\n      dup1\n      swap2\n      sub\n      swap1\n      return\n        /* \"contracts/contractsCopy/khaledulsaleh_staking.sol\":8842:9052  function getTotalInvestmentDUSD() public view returns(uint) {   //this function is to get the total investment of the ivestor... */\n    tag_18:\n      tag_94\n      tag_95\n      jump\t// in\n    tag_94:\n      mload(0x40)\n      tag_96\n      swap2\n      swap1\n      tag_45\n      jump\t// in\n    tag_96:\n      mload(0x40)\n      dup1\n      swap2\n      sub\n      swap1\n      return\n        /* \"contracts/contractsCopy/khaledulsaleh_staking.sol\":910:940  uint public denomenator=100000 */\n    tag_19:\n      tag_97\n      tag_98\n      jump\t// in\n    tag_97:\n      mload(0x40)\n      tag_99\n      swap2\n      swap1\n      tag_45\n      jump\t// in\n    tag_99:\n      mload(0x40)\n      dup1\n      swap2\n      sub\n      swap1\n      return\n        /* \"contracts/contractsCopy/khaledulsaleh_staking.sol\":10699:10853  function setReward(uint _amount,uint _denomenator) public ... */\n    tag_20:\n      tag_100\n      0x04\n      dup1\n      calldatasize\n      sub\n      dup2\n      add\n      swap1\n      tag_101\n      swap2\n      swap1\n      tag_102\n      jump\t// in\n    tag_101:\n      tag_103\n      jump\t// in\n    tag_100:\n      stop\n        /* \"contracts/contractsCopy/khaledulsaleh_staking.sol\":11579:12144  function referralLevel_earning() public view returns( uint[] memory arr )... */\n    tag_21:\n      tag_104\n      tag_105\n      jump\t// in\n    tag_104:\n      mload(0x40)\n      tag_106\n      swap2\n      swap1\n      tag_107\n      jump\t// in\n    tag_106:\n      mload(0x40)\n      dup1\n      swap2\n      sub\n      swap1\n      return\n        /* \"contracts/contractsCopy/khaledulsaleh_staking.sol\":6719:7116  function get_investor_Reward(address investor) view public returns(uint){ //this function is get the total reward balance of the investor... */\n    tag_22:\n      tag_108\n      0x04\n      dup1\n      calldatasize\n      sub\n      dup2\n      add\n      swap1\n      tag_109\n      swap2\n      swap1\n      tag_110\n      jump\t// in\n    tag_109:\n      tag_111\n      jump\t// in\n    tag_108:\n      mload(0x40)\n      tag_112\n      swap2\n      swap1\n      tag_45\n      jump\t// in\n    tag_112:\n      mload(0x40)\n      dup1\n      swap2\n      sub\n      swap1\n      return\n        /* \"contracts/contractsCopy/khaledulsaleh_staking.sol\":765:799  uint public min_Stake_amount=10000 */\n    tag_23:\n      tag_113\n      tag_114\n      jump\t// in\n    tag_113:\n      mload(0x40)\n      tag_115\n      swap2\n      swap1\n      tag_45\n      jump\t// in\n    tag_115:\n      mload(0x40)\n      dup1\n      swap2\n      sub\n      swap1\n      return\n        /* \"contracts/contractsCopy/khaledulsaleh_staking.sol\":7128:7625  function withdrawReward() external returns (bool success){... */\n    tag_24:\n      tag_116\n      tag_117\n      jump\t// in\n    tag_116:\n      mload(0x40)\n      tag_118\n      swap2\n      swap1\n      tag_54\n      jump\t// in\n    tag_118:\n      mload(0x40)\n      dup1\n      swap2\n      sub\n      swap1\n      return\n        /* \"contracts/contractsCopy/khaledulsaleh_staking.sol\":2091:2133  mapping(address=>Data) public DUSDinvestor */\n    tag_25:\n      tag_119\n      0x04\n      dup1\n      calldatasize\n      sub\n      dup2\n      add\n      swap1\n      tag_120\n      swap2\n      swap1\n      tag_110\n      jump\t// in\n    tag_120:\n      tag_121\n      jump\t// in\n    tag_119:\n      mload(0x40)\n      tag_122\n      swap8\n      swap7\n      swap6\n      swap5\n      swap4\n      swap3\n      swap2\n      swap1\n      tag_123\n      jump\t// in\n    tag_122:\n      mload(0x40)\n      dup1\n      swap2\n      sub\n      swap1\n      return\n        /* \"contracts/contractsCopy/khaledulsaleh_staking.sol\":1025:1050  uint public totalbusiness */\n    tag_26:\n      tag_124\n      tag_125\n      jump\t// in\n    tag_124:\n      mload(0x40)\n      tag_126\n      swap2\n      swap1\n      tag_45\n      jump\t// in\n    tag_126:\n      mload(0x40)\n      dup1\n      swap2\n      sub\n      swap1\n      return\n        /* \"contracts/contractsCopy/khaledulsaleh_staking.sol\":11395:11569  function transferOwnership(address _owner)  public... */\n    tag_27:\n      tag_127\n      0x04\n      dup1\n      calldatasize\n      sub\n      dup2\n      add\n      swap1\n      tag_128\n      swap2\n      swap1\n      tag_110\n      jump\t// in\n    tag_128:\n      tag_129\n      jump\t// in\n    tag_127:\n      stop\n        /* \"contracts/contractsCopy/khaledulsaleh_staking.sol\":12153:12714  function referralLevel_count() public view returns( uint[] memory arr )... */\n    tag_28:\n      tag_130\n      tag_131\n      jump\t// in\n    tag_130:\n      mload(0x40)\n      tag_132\n      swap2\n      swap1\n      tag_107\n      jump\t// in\n    tag_132:\n      mload(0x40)\n      dup1\n      swap2\n      sub\n      swap1\n      return\n        /* \"contracts/contractsCopy/khaledulsaleh_staking.sol\":702:745  uint public rewardToken=5000000000000000000 */\n    tag_29:\n      tag_133\n      tag_134\n      jump\t// in\n    tag_133:\n      mload(0x40)\n      tag_135\n      swap2\n      swap1\n      tag_45\n      jump\t// in\n    tag_135:\n      mload(0x40)\n      dup1\n      swap2\n      sub\n      swap1\n      return\n        /* \"contracts/contractsCopy/khaledulsaleh_staking.sol\":836:872  uint public max_Stake_amount=5000000 */\n    tag_30:\n      tag_136\n      tag_137\n      jump\t// in\n    tag_136:\n      mload(0x40)\n      tag_138\n      swap2\n      swap1\n      tag_45\n      jump\t// in\n    tag_138:\n      mload(0x40)\n      dup1\n      swap2\n      sub\n      swap1\n      return\n        /* \"contracts/contractsCopy/khaledulsaleh_staking.sol\":10481:10690  function DUSDReferralsList() public view returns(address[] memory){ //this function is to get the all investors list with there account number... */\n    tag_39:\n        /* \"contracts/contractsCopy/khaledulsaleh_staking.sol\":10530:10546  address[] memory */\n      0x60\n        /* \"contracts/contractsCopy/khaledulsaleh_staking.sol\":10642:10654  DUSDinvestor */\n      0x0d\n        /* \"contracts/contractsCopy/khaledulsaleh_staking.sol\":10642:10666  DUSDinvestor[msg.sender] */\n      0x00\n        /* \"contracts/contractsCopy/khaledulsaleh_staking.sol\":10655:10665  msg.sender */\n      caller\n        /* \"contracts/contractsCopy/khaledulsaleh_staking.sol\":10642:10666  DUSDinvestor[msg.sender] */\n      0xffffffffffffffffffffffffffffffffffffffff\n      and\n      0xffffffffffffffffffffffffffffffffffffffff\n      and\n      dup2\n      mstore\n      0x20\n      add\n      swap1\n      dup2\n      mstore\n      0x20\n      add\n      0x00\n      keccak256\n        /* \"contracts/contractsCopy/khaledulsaleh_staking.sol\":10642:10679  DUSDinvestor[msg.sender].hisReferrals */\n      0x01\n      add\n        /* \"contracts/contractsCopy/khaledulsaleh_staking.sol\":10635:10679  return DUSDinvestor[msg.sender].hisReferrals */\n      dup1\n      sload\n      dup1\n      0x20\n      mul\n      0x20\n      add\n      mload(0x40)\n      swap1\n      dup2\n      add\n      0x40\n      mstore\n      dup1\n      swap3\n      swap2\n      swap1\n      dup2\n      dup2\n      mstore\n      0x20\n      add\n      dup3\n      dup1\n      sload\n      dup1\n      iszero\n      tag_140\n      jumpi\n      0x20\n      mul\n      dup3\n      add\n      swap2\n      swap1\n      0x00\n      mstore\n      keccak256(0x00, 0x20)\n      swap1\n    tag_141:\n      dup2\n      0x00\n      swap1\n      sload\n      swap1\n      0x0100\n      exp\n      swap1\n      div\n      0xffffffffffffffffffffffffffffffffffffffff\n      and\n      0xffffffffffffffffffffffffffffffffffffffff\n      and\n      dup2\n      mstore\n      0x20\n      add\n      swap1\n      0x01\n      add\n      swap1\n      dup1\n      dup4\n      gt\n      tag_141\n      jumpi\n    tag_140:\n      pop\n      pop\n      pop\n      pop\n      pop\n      swap1\n      pop\n        /* \"contracts/contractsCopy/khaledulsaleh_staking.sol\":10481:10690  function DUSDReferralsList() public view returns(address[] memory){ //this function is to get the all investors list with there account number... */\n      swap1\n      jump\t// out\n        /* \"contracts/contractsCopy/khaledulsaleh_staking.sol\":662:692  uint public totalDUSDInvestors */\n    tag_43:\n      sload(0x04)\n      dup2\n      jump\t// out\n        /* \"contracts/contractsCopy/khaledulsaleh_staking.sol\":10057:10248  function DUSDTotalReferrals() public view returns(uint){ // this function is to get the total number of referrals ... */\n    tag_47:\n        /* \"contracts/contractsCopy/khaledulsaleh_staking.sol\":10107:10111  uint */\n      0x00\n        /* \"contracts/contractsCopy/khaledulsaleh_staking.sol\":10192:10204  DUSDinvestor */\n      0x0d\n        /* \"contracts/contractsCopy/khaledulsaleh_staking.sol\":10192:10216  DUSDinvestor[msg.sender] */\n      0x00\n        /* \"contracts/contractsCopy/khaledulsaleh_staking.sol\":10205:10215  msg.sender */\n      caller\n        /* \"contracts/contractsCopy/khaledulsaleh_staking.sol\":10192:10216  DUSDinvestor[msg.sender] */\n      0xffffffffffffffffffffffffffffffffffffffff\n      and\n      0xffffffffffffffffffffffffffffffffffffffff\n      and\n      dup2\n      mstore\n      0x20\n      add\n      swap1\n      dup2\n      mstore\n      0x20\n      add\n      0x00\n      keccak256\n        /* \"contracts/contractsCopy/khaledulsaleh_staking.sol\":10192:10229  DUSDinvestor[msg.sender].hisReferrals */\n      0x01\n      add\n        /* \"contracts/contractsCopy/khaledulsaleh_staking.sol\":10191:10237  (DUSDinvestor[msg.sender].hisReferrals).length */\n      dup1\n      sload\n      swap1\n      pop\n        /* \"contracts/contractsCopy/khaledulsaleh_staking.sol\":10184:10237  return (DUSDinvestor[msg.sender].hisReferrals).length */\n      swap1\n      pop\n        /* \"contracts/contractsCopy/khaledulsaleh_staking.sol\":10057:10248  function DUSDTotalReferrals() public view returns(uint){ // this function is to get the total number of referrals ... */\n      swap1\n      jump\t// out\n        /* \"contracts/contractsCopy/khaledulsaleh_staking.sol\":3958:6321  function Stake(uint _investedamount,address _referral) external returns(bool success){... */\n    tag_52:\n        /* \"contracts/contractsCopy/khaledulsaleh_staking.sol\":4030:4042  bool success */\n      0x00\n        /* \"contracts/contractsCopy/khaledulsaleh_staking.sol\":4084:4100  min_Stake_amount */\n      sload(0x06)\n        /* \"contracts/contractsCopy/khaledulsaleh_staking.sol\":4065:4080  _investedamount */\n      dup4\n        /* \"contracts/contractsCopy/khaledulsaleh_staking.sol\":4065:4100  _investedamount >= min_Stake_amount */\n      lt\n      iszero\n        /* \"contracts/contractsCopy/khaledulsaleh_staking.sol\":4065:4139  _investedamount >= min_Stake_amount && _investedamount <= max_Stake_amount */\n      dup1\n      iszero\n      tag_144\n      jumpi\n      pop\n        /* \"contracts/contractsCopy/khaledulsaleh_staking.sol\":4123:4139  max_Stake_amount */\n      sload(0x07)\n        /* \"contracts/contractsCopy/khaledulsaleh_staking.sol\":4104:4119  _investedamount */\n      dup4\n        /* \"contracts/contractsCopy/khaledulsaleh_staking.sol\":4104:4139  _investedamount <= max_Stake_amount */\n      gt\n      iszero\n        /* \"contracts/contractsCopy/khaledulsaleh_staking.sol\":4065:4139  _investedamount >= min_Stake_amount && _investedamount <= max_Stake_amount */\n    tag_144:\n        /* \"contracts/contractsCopy/khaledulsaleh_staking.sol\":4057:4196  require(_investedamount >= min_Stake_amount && _investedamount <= max_Stake_amount,\"value is not greater than 10000 and less than 5000000\") */\n      tag_145\n      jumpi\n      mload(0x40)\n      0x08c379a000000000000000000000000000000000000000000000000000000000\n      dup2\n      mstore\n      0x04\n      add\n      tag_146\n      swap1\n      tag_147\n      jump\t// in\n    tag_146:\n      mload(0x40)\n      dup1\n      swap2\n      sub\n      swap1\n      revert\n    tag_145:\n        /* \"contracts/contractsCopy/khaledulsaleh_staking.sol\":4325:4330  false */\n      0x00\n        /* \"contracts/contractsCopy/khaledulsaleh_staking.sol\":4284:4330  DUSDinvestor[msg.sender].investBefore == false */\n      iszero\n      iszero\n        /* \"contracts/contractsCopy/khaledulsaleh_staking.sol\":4284:4296  DUSDinvestor */\n      0x0d\n        /* \"contracts/contractsCopy/khaledulsaleh_staking.sol\":4284:4308  DUSDinvestor[msg.sender] */\n      0x00\n        /* \"contracts/contractsCopy/khaledulsaleh_staking.sol\":4297:4307  msg.sender */\n      caller\n        /* \"contracts/contractsCopy/khaledulsaleh_staking.sol\":4284:4308  DUSDinvestor[msg.sender] */\n      0xffffffffffffffffffffffffffffffffffffffff\n      and\n      0xffffffffffffffffffffffffffffffffffffffff\n      and\n      dup2\n      mstore\n      0x20\n      add\n      swap1\n      dup2\n      mstore\n      0x20\n      add\n      0x00\n      keccak256\n        /* \"contracts/contractsCopy/khaledulsaleh_staking.sol\":4284:4321  DUSDinvestor[msg.sender].investBefore */\n      0x08\n      add\n      0x00\n      swap1\n      sload\n      swap1\n      0x0100\n      exp\n      swap1\n      div\n      0xff\n      and\n        /* \"contracts/contractsCopy/khaledulsaleh_staking.sol\":4284:4330  DUSDinvestor[msg.sender].investBefore == false */\n      iszero\n      iszero\n      eq\n        /* \"contracts/contractsCopy/khaledulsaleh_staking.sol\":4281:4599  if(DUSDinvestor[msg.sender].investBefore == false)... */\n      iszero\n      tag_148\n      jumpi\n        /* \"contracts/contractsCopy/khaledulsaleh_staking.sol\":4397:4407  msg.sender */\n      caller\n        /* \"contracts/contractsCopy/khaledulsaleh_staking.sol\":4363:4376  All_investors */\n      0x0c\n        /* \"contracts/contractsCopy/khaledulsaleh_staking.sol\":4363:4396  All_investors[totalDUSDInvestors] */\n      0x00\n        /* \"contracts/contractsCopy/khaledulsaleh_staking.sol\":4377:4395  totalDUSDInvestors */\n      sload(0x04)\n        /* \"contracts/contractsCopy/khaledulsaleh_staking.sol\":4363:4396  All_investors[totalDUSDInvestors] */\n      dup2\n      mstore\n      0x20\n      add\n      swap1\n      dup2\n      mstore\n      0x20\n      add\n      0x00\n      keccak256\n      0x00\n        /* \"contracts/contractsCopy/khaledulsaleh_staking.sol\":4363:4407  All_investors[totalDUSDInvestors]=msg.sender */\n      0x0100\n      exp\n      dup2\n      sload\n      dup2\n      0xffffffffffffffffffffffffffffffffffffffff\n      mul\n      not\n      and\n      swap1\n      dup4\n      0xffffffffffffffffffffffffffffffffffffffff\n      and\n      mul\n      or\n      swap1\n      sstore\n      pop\n        /* \"contracts/contractsCopy/khaledulsaleh_staking.sol\":4426:4444  totalDUSDInvestors */\n      0x04\n      0x00\n        /* \"contracts/contractsCopy/khaledulsaleh_staking.sol\":4426:4446  totalDUSDInvestors++ */\n      dup2\n      sload\n      dup1\n      swap3\n      swap2\n      swap1\n      tag_149\n      swap1\n      tag_150\n      jump\t// in\n    tag_149:\n      swap2\n      swap1\n      pop\n      sstore\n      pop\n        /* \"contracts/contractsCopy/khaledulsaleh_staking.sol\":4281:4599  if(DUSDinvestor[msg.sender].investBefore == false)... */\n      jump(tag_151)\n    tag_148:\n        /* \"contracts/contractsCopy/khaledulsaleh_staking.sol\":4546:4558  DUSDinvestor */\n      0x0d\n        /* \"contracts/contractsCopy/khaledulsaleh_staking.sol\":4546:4570  DUSDinvestor[msg.sender] */\n      0x00\n        /* \"contracts/contractsCopy/khaledulsaleh_staking.sol\":4559:4569  msg.sender */\n      caller\n        /* \"contracts/contractsCopy/khaledulsaleh_staking.sol\":4546:4570  DUSDinvestor[msg.sender] */\n      0xffffffffffffffffffffffffffffffffffffffff\n      and\n      0xffffffffffffffffffffffffffffffffffffffff\n      and\n      dup2\n      mstore\n      0x20\n      add\n      swap1\n      dup2\n      mstore\n      0x20\n      add\n      0x00\n      keccak256\n        /* \"contracts/contractsCopy/khaledulsaleh_staking.sol\":4546:4583  DUSDinvestor[msg.sender].referralFrom */\n      0x02\n      add\n      0x00\n      swap1\n      sload\n      swap1\n      0x0100\n      exp\n      swap1\n      div\n      0xffffffffffffffffffffffffffffffffffffffff\n      and\n        /* \"contracts/contractsCopy/khaledulsaleh_staking.sol\":4534:4583  _referral = DUSDinvestor[msg.sender].referralFrom */\n      swap2\n      pop\n        /* \"contracts/contractsCopy/khaledulsaleh_staking.sol\":4281:4599  if(DUSDinvestor[msg.sender].investBefore == false)... */\n    tag_151:\n        /* \"contracts/contractsCopy/khaledulsaleh_staking.sol\":4660:4661  0 */\n      0x00\n        /* \"contracts/contractsCopy/khaledulsaleh_staking.sol\":4616:4628  DUSDinvestor */\n      0x0d\n        /* \"contracts/contractsCopy/khaledulsaleh_staking.sol\":4616:4640  DUSDinvestor[msg.sender] */\n      0x00\n        /* \"contracts/contractsCopy/khaledulsaleh_staking.sol\":4629:4639  msg.sender */\n      caller\n        /* \"contracts/contractsCopy/khaledulsaleh_staking.sol\":4616:4640  DUSDinvestor[msg.sender] */\n      0xffffffffffffffffffffffffffffffffffffffff\n      and\n      0xffffffffffffffffffffffffffffffffffffffff\n      and\n      dup2\n      mstore\n      0x20\n      add\n      swap1\n      dup2\n      mstore\n      0x20\n      add\n      0x00\n      keccak256\n        /* \"contracts/contractsCopy/khaledulsaleh_staking.sol\":4616:4656  DUSDinvestor[msg.sender].totalInvestment */\n      0x06\n      add\n      sload\n        /* \"contracts/contractsCopy/khaledulsaleh_staking.sol\":4616:4661  DUSDinvestor[msg.sender].totalInvestment == 0 */\n      eq\n        /* \"contracts/contractsCopy/khaledulsaleh_staking.sol\":4613:4772  if(DUSDinvestor[msg.sender].totalInvestment == 0)... */\n      iszero\n      tag_152\n      jumpi\n        /* \"contracts/contractsCopy/khaledulsaleh_staking.sol\":4749:4757  365 days */\n      0x01e13380\n        /* \"contracts/contractsCopy/khaledulsaleh_staking.sol\":4731:4746  block.timestamp */\n      timestamp\n        /* \"contracts/contractsCopy/khaledulsaleh_staking.sol\":4731:4757  block.timestamp + 365 days */\n      tag_153\n      swap2\n      swap1\n      tag_154\n      jump\t// in\n    tag_153:\n        /* \"contracts/contractsCopy/khaledulsaleh_staking.sol\":4694:4706  DUSDinvestor */\n      0x0d\n        /* \"contracts/contractsCopy/khaledulsaleh_staking.sol\":4694:4718  DUSDinvestor[msg.sender] */\n      0x00\n        /* \"contracts/contractsCopy/khaledulsaleh_staking.sol\":4707:4717  msg.sender */\n      caller\n        /* \"contracts/contractsCopy/khaledulsaleh_staking.sol\":4694:4718  DUSDinvestor[msg.sender] */\n      0xffffffffffffffffffffffffffffffffffffffff\n      and\n      0xffffffffffffffffffffffffffffffffffffffff\n      and\n      dup2\n      mstore\n      0x20\n      add\n      swap1\n      dup2\n      mstore\n      0x20\n      add\n      0x00\n      keccak256\n        /* \"contracts/contractsCopy/khaledulsaleh_staking.sol\":4694:4728  DUSDinvestor[msg.sender].stakeTime */\n      0x09\n      add\n        /* \"contracts/contractsCopy/khaledulsaleh_staking.sol\":4694:4757  DUSDinvestor[msg.sender].stakeTime = block.timestamp + 365 days */\n      dup2\n      swap1\n      sstore\n      pop\n        /* \"contracts/contractsCopy/khaledulsaleh_staking.sol\":4613:4772  if(DUSDinvestor[msg.sender].totalInvestment == 0)... */\n    tag_152:\n        /* \"contracts/contractsCopy/khaledulsaleh_staking.sol\":4785:4793  uint num */\n      0x00\n        /* \"contracts/contractsCopy/khaledulsaleh_staking.sol\":4796:4808  DUSDinvestor */\n      0x0d\n        /* \"contracts/contractsCopy/khaledulsaleh_staking.sol\":4796:4820  DUSDinvestor[msg.sender] */\n      0x00\n        /* \"contracts/contractsCopy/khaledulsaleh_staking.sol\":4809:4819  msg.sender */\n      caller\n        /* \"contracts/contractsCopy/khaledulsaleh_staking.sol\":4796:4820  DUSDinvestor[msg.sender] */\n      0xffffffffffffffffffffffffffffffffffffffff\n      and\n      0xffffffffffffffffffffffffffffffffffffffff\n      and\n      dup2\n      mstore\n      0x20\n      add\n      swap1\n      dup2\n      mstore\n      0x20\n      add\n      0x00\n      keccak256\n        /* \"contracts/contractsCopy/khaledulsaleh_staking.sol\":4796:4835  DUSDinvestor[msg.sender].noOfInvestment */\n      0x05\n      add\n      sload\n        /* \"contracts/contractsCopy/khaledulsaleh_staking.sol\":4785:4835  uint num = DUSDinvestor[msg.sender].noOfInvestment */\n      swap1\n      pop\n        /* \"contracts/contractsCopy/khaledulsaleh_staking.sol\":4906:4921  _investedamount */\n      dup4\n        /* \"contracts/contractsCopy/khaledulsaleh_staking.sol\":4849:4861  DUSDinvestor */\n      0x0d\n        /* \"contracts/contractsCopy/khaledulsaleh_staking.sol\":4849:4873  DUSDinvestor[msg.sender] */\n      0x00\n        /* \"contracts/contractsCopy/khaledulsaleh_staking.sol\":4862:4872  msg.sender */\n      caller\n        /* \"contracts/contractsCopy/khaledulsaleh_staking.sol\":4849:4873  DUSDinvestor[msg.sender] */\n      0xffffffffffffffffffffffffffffffffffffffff\n      and\n      0xffffffffffffffffffffffffffffffffffffffff\n      and\n      dup2\n      mstore\n      0x20\n      add\n      swap1\n      dup2\n      mstore\n      0x20\n      add\n      0x00\n      keccak256\n        /* \"contracts/contractsCopy/khaledulsaleh_staking.sol\":4849:4884  DUSDinvestor[msg.sender].investment */\n      0x00\n      add\n        /* \"contracts/contractsCopy/khaledulsaleh_staking.sol\":4849:4889  DUSDinvestor[msg.sender].investment[num] */\n      0x00\n        /* \"contracts/contractsCopy/khaledulsaleh_staking.sol\":4885:4888  num */\n      dup4\n        /* \"contracts/contractsCopy/khaledulsaleh_staking.sol\":4849:4889  DUSDinvestor[msg.sender].investment[num] */\n      dup2\n      mstore\n      0x20\n      add\n      swap1\n      dup2\n      mstore\n      0x20\n      add\n      0x00\n      keccak256\n        /* \"contracts/contractsCopy/khaledulsaleh_staking.sol\":4849:4904  DUSDinvestor[msg.sender].investment[num].investedAmount */\n      0x00\n      add\n        /* \"contracts/contractsCopy/khaledulsaleh_staking.sol\":4849:4921  DUSDinvestor[msg.sender].investment[num].investedAmount =_investedamount */\n      dup2\n      swap1\n      sstore\n      pop\n        /* \"contracts/contractsCopy/khaledulsaleh_staking.sol\":4988:5003  block.timestamp */\n      timestamp\n        /* \"contracts/contractsCopy/khaledulsaleh_staking.sol\":4935:4947  DUSDinvestor */\n      0x0d\n        /* \"contracts/contractsCopy/khaledulsaleh_staking.sol\":4935:4959  DUSDinvestor[msg.sender] */\n      0x00\n        /* \"contracts/contractsCopy/khaledulsaleh_staking.sol\":4948:4958  msg.sender */\n      caller\n        /* \"contracts/contractsCopy/khaledulsaleh_staking.sol\":4935:4959  DUSDinvestor[msg.sender] */\n      0xffffffffffffffffffffffffffffffffffffffff\n      and\n      0xffffffffffffffffffffffffffffffffffffffff\n      and\n      dup2\n      mstore\n      0x20\n      add\n      swap1\n      dup2\n      mstore\n      0x20\n      add\n      0x00\n      keccak256\n        /* \"contracts/contractsCopy/khaledulsaleh_staking.sol\":4935:4970  DUSDinvestor[msg.sender].investment */\n      0x00\n      add\n        /* \"contracts/contractsCopy/khaledulsaleh_staking.sol\":4935:4975  DUSDinvestor[msg.sender].investment[num] */\n      0x00\n        /* \"contracts/contractsCopy/khaledulsaleh_staking.sol\":4971:4974  num */\n      dup4\n        /* \"contracts/contractsCopy/khaledulsaleh_staking.sol\":4935:4975  DUSDinvestor[msg.sender].investment[num] */\n      dup2\n      mstore\n      0x20\n      add\n      swap1\n      dup2\n      mstore\n      0x20\n      add\n      0x00\n      keccak256\n        /* \"contracts/contractsCopy/khaledulsaleh_staking.sol\":4935:4987  DUSDinvestor[msg.sender].investment[num].DepositTime */\n      0x02\n      add\n        /* \"contracts/contractsCopy/khaledulsaleh_staking.sol\":4935:5003  DUSDinvestor[msg.sender].investment[num].DepositTime=block.timestamp */\n      dup2\n      swap1\n      sstore\n      pop\n        /* \"contracts/contractsCopy/khaledulsaleh_staking.sol\":5090:5106  investmentPeriod */\n      sload(0x09)\n        /* \"contracts/contractsCopy/khaledulsaleh_staking.sol\":5072:5087  block.timestamp */\n      timestamp\n        /* \"contracts/contractsCopy/khaledulsaleh_staking.sol\":5072:5106  block.timestamp + investmentPeriod */\n      tag_155\n      swap2\n      swap1\n      tag_154\n      jump\t// in\n    tag_155:\n        /* \"contracts/contractsCopy/khaledulsaleh_staking.sol\":5017:5029  DUSDinvestor */\n      0x0d\n        /* \"contracts/contractsCopy/khaledulsaleh_staking.sol\":5017:5041  DUSDinvestor[msg.sender] */\n      0x00\n        /* \"contracts/contractsCopy/khaledulsaleh_staking.sol\":5030:5040  msg.sender */\n      caller\n        /* \"contracts/contractsCopy/khaledulsaleh_staking.sol\":5017:5041  DUSDinvestor[msg.sender] */\n      0xffffffffffffffffffffffffffffffffffffffff\n      and\n      0xffffffffffffffffffffffffffffffffffffffff\n      and\n      dup2\n      mstore\n      0x20\n      add\n      swap1\n      dup2\n      mstore\n      0x20\n      add\n      0x00\n      keccak256\n        /* \"contracts/contractsCopy/khaledulsaleh_staking.sol\":5017:5052  DUSDinvestor[msg.sender].investment */\n      0x00\n      add\n        /* \"contracts/contractsCopy/khaledulsaleh_staking.sol\":5017:5057  DUSDinvestor[msg.sender].investment[num] */\n      0x00\n        /* \"contracts/contractsCopy/khaledulsaleh_staking.sol\":5053:5056  num */\n      dup4\n        /* \"contracts/contractsCopy/khaledulsaleh_staking.sol\":5017:5057  DUSDinvestor[msg.sender].investment[num] */\n      dup2\n      mstore\n      0x20\n      add\n      swap1\n      dup2\n      mstore\n      0x20\n      add\n      0x00\n      keccak256\n        /* \"contracts/contractsCopy/khaledulsaleh_staking.sol\":5017:5071  DUSDinvestor[msg.sender].investment[num].withdrawnTime */\n      0x01\n      add\n        /* \"contracts/contractsCopy/khaledulsaleh_staking.sol\":5017:5106  DUSDinvestor[msg.sender].investment[num].withdrawnTime=block.timestamp + investmentPeriod */\n      dup2\n      swap1\n      sstore\n      pop\n        /* \"contracts/contractsCopy/khaledulsaleh_staking.sol\":5189:5192  num */\n      dup1\n        /* \"contracts/contractsCopy/khaledulsaleh_staking.sol\":5134:5146  DUSDinvestor */\n      0x0d\n        /* \"contracts/contractsCopy/khaledulsaleh_staking.sol\":5134:5158  DUSDinvestor[msg.sender] */\n      0x00\n        /* \"contracts/contractsCopy/khaledulsaleh_staking.sol\":5147:5157  msg.sender */\n      caller\n        /* \"contracts/contractsCopy/khaledulsaleh_staking.sol\":5134:5158  DUSDinvestor[msg.sender] */\n      0xffffffffffffffffffffffffffffffffffffffff\n      and\n      0xffffffffffffffffffffffffffffffffffffffff\n      and\n      dup2\n      mstore\n      0x20\n      add\n      swap1\n      dup2\n      mstore\n      0x20\n      add\n      0x00\n      keccak256\n        /* \"contracts/contractsCopy/khaledulsaleh_staking.sol\":5134:5169  DUSDinvestor[msg.sender].investment */\n      0x00\n      add\n        /* \"contracts/contractsCopy/khaledulsaleh_staking.sol\":5134:5174  DUSDinvestor[msg.sender].investment[num] */\n      0x00\n        /* \"contracts/contractsCopy/khaledulsaleh_staking.sol\":5170:5173  num */\n      dup4\n        /* \"contracts/contractsCopy/khaledulsaleh_staking.sol\":5134:5174  DUSDinvestor[msg.sender].investment[num] */\n      dup2\n      mstore\n      0x20\n      add\n      swap1\n      dup2\n      mstore\n      0x20\n      add\n      0x00\n      keccak256\n        /* \"contracts/contractsCopy/khaledulsaleh_staking.sol\":5134:5188  DUSDinvestor[msg.sender].investment[num].investmentNum */\n      0x03\n      add\n        /* \"contracts/contractsCopy/khaledulsaleh_staking.sol\":5134:5192  DUSDinvestor[msg.sender].investment[num].investmentNum=num */\n      dup2\n      swap1\n      sstore\n      pop\n        /* \"contracts/contractsCopy/khaledulsaleh_staking.sol\":5248:5263  _investedamount */\n      dup4\n        /* \"contracts/contractsCopy/khaledulsaleh_staking.sol\":5206:5218  DUSDinvestor */\n      0x0d\n        /* \"contracts/contractsCopy/khaledulsaleh_staking.sol\":5206:5230  DUSDinvestor[msg.sender] */\n      0x00\n        /* \"contracts/contractsCopy/khaledulsaleh_staking.sol\":5219:5229  msg.sender */\n      caller\n        /* \"contracts/contractsCopy/khaledulsaleh_staking.sol\":5206:5230  DUSDinvestor[msg.sender] */\n      0xffffffffffffffffffffffffffffffffffffffff\n      and\n      0xffffffffffffffffffffffffffffffffffffffff\n      and\n      dup2\n      mstore\n      0x20\n      add\n      swap1\n      dup2\n      mstore\n      0x20\n      add\n      0x00\n      keccak256\n        /* \"contracts/contractsCopy/khaledulsaleh_staking.sol\":5206:5246  DUSDinvestor[msg.sender].totalInvestment */\n      0x06\n      add\n      0x00\n        /* \"contracts/contractsCopy/khaledulsaleh_staking.sol\":5206:5263  DUSDinvestor[msg.sender].totalInvestment+=_investedamount */\n      dup3\n      dup3\n      sload\n      tag_156\n      swap2\n      swap1\n      tag_154\n      jump\t// in\n    tag_156:\n      swap3\n      pop\n      pop\n      dup2\n      swap1\n      sstore\n      pop\n        /* \"contracts/contractsCopy/khaledulsaleh_staking.sol\":5277:5289  DUSDinvestor */\n      0x0d\n        /* \"contracts/contractsCopy/khaledulsaleh_staking.sol\":5277:5301  DUSDinvestor[msg.sender] */\n      0x00\n        /* \"contracts/contractsCopy/khaledulsaleh_staking.sol\":5290:5300  msg.sender */\n      caller\n        /* \"contracts/contractsCopy/khaledulsaleh_staking.sol\":5277:5301  DUSDinvestor[msg.sender] */\n      0xffffffffffffffffffffffffffffffffffffffff\n      and\n      0xffffffffffffffffffffffffffffffffffffffff\n      and\n      dup2\n      mstore\n      0x20\n      add\n      swap1\n      dup2\n      mstore\n      0x20\n      add\n      0x00\n      keccak256\n        /* \"contracts/contractsCopy/khaledulsaleh_staking.sol\":5277:5316  DUSDinvestor[msg.sender].noOfInvestment */\n      0x05\n      add\n      0x00\n        /* \"contracts/contractsCopy/khaledulsaleh_staking.sol\":5277:5318  DUSDinvestor[msg.sender].noOfInvestment++ */\n      dup2\n      sload\n      dup1\n      swap3\n      swap2\n      swap1\n      tag_157\n      swap1\n      tag_150\n      jump\t// in\n    tag_157:\n      swap2\n      swap1\n      pop\n      sstore\n      pop\n        /* \"contracts/contractsCopy/khaledulsaleh_staking.sol\":5347:5362  _investedamount */\n      dup4\n        /* \"contracts/contractsCopy/khaledulsaleh_staking.sol\":5332:5345  totalbusiness */\n      0x0a\n      0x00\n        /* \"contracts/contractsCopy/khaledulsaleh_staking.sol\":5332:5362  totalbusiness+=_investedamount */\n      dup3\n      dup3\n      sload\n      tag_158\n      swap2\n      swap1\n      tag_154\n      jump\t// in\n    tag_158:\n      swap3\n      pop\n      pop\n      dup2\n      swap1\n      sstore\n      pop\n        /* \"contracts/contractsCopy/khaledulsaleh_staking.sol\":5381:5392  SMCcontract */\n      0x01\n      0x00\n      swap1\n      sload\n      swap1\n      0x0100\n      exp\n      swap1\n      div\n      0xffffffffffffffffffffffffffffffffffffffff\n      and\n        /* \"contracts/contractsCopy/khaledulsaleh_staking.sol\":5376:5406  DUSD(SMCcontract).transferFrom */\n      0xffffffffffffffffffffffffffffffffffffffff\n      and\n      0x23b872dd\n        /* \"contracts/contractsCopy/khaledulsaleh_staking.sol\":5407:5417  msg.sender */\n      caller\n        /* \"contracts/contractsCopy/khaledulsaleh_staking.sol\":5426:5430  this */\n      address\n        /* \"contracts/contractsCopy/khaledulsaleh_staking.sol\":5448:5453  10**8 */\n      0x05f5e100\n        /* \"contracts/contractsCopy/khaledulsaleh_staking.sol\":5432:5447  _investedamount */\n      dup9\n        /* \"contracts/contractsCopy/khaledulsaleh_staking.sol\":5432:5453  _investedamount*10**8 */\n      tag_159\n      swap2\n      swap1\n      tag_160\n      jump\t// in\n    tag_159:\n        /* \"contracts/contractsCopy/khaledulsaleh_staking.sol\":5376:5454  DUSD(SMCcontract).transferFrom(msg.sender,address(this),_investedamount*10**8) */\n      mload(0x40)\n      dup5\n      0xffffffff\n      and\n      0xe0\n      shl\n      dup2\n      mstore\n      0x04\n      add\n      tag_161\n      swap4\n      swap3\n      swap2\n      swap1\n      tag_162\n      jump\t// in\n    tag_161:\n      0x20\n      mload(0x40)\n      dup1\n      dup4\n      sub\n      dup2\n      0x00\n      dup8\n      dup1\n      extcodesize\n      iszero\n      dup1\n      iszero\n      tag_163\n      jumpi\n      0x00\n      dup1\n      revert\n    tag_163:\n      pop\n      gas\n      call\n      iszero\n      dup1\n      iszero\n      tag_165\n      jumpi\n      returndatasize\n      0x00\n      dup1\n      returndatacopy\n      revert(0x00, returndatasize)\n    tag_165:\n      pop\n      pop\n      pop\n      pop\n      mload(0x40)\n      returndatasize\n      not(0x1f)\n      0x1f\n      dup3\n      add\n      and\n      dup3\n      add\n      dup1\n      0x40\n      mstore\n      pop\n      dup2\n      add\n      swap1\n      tag_166\n      swap2\n      swap1\n      tag_167\n      jump\t// in\n    tag_166:\n      pop\n        /* \"contracts/contractsCopy/khaledulsaleh_staking.sol\":6267:6271  true */\n      0x01\n        /* \"contracts/contractsCopy/khaledulsaleh_staking.sol\":6229:6241  DUSDinvestor */\n      0x0d\n        /* \"contracts/contractsCopy/khaledulsaleh_staking.sol\":6229:6253  DUSDinvestor[msg.sender] */\n      0x00\n        /* \"contracts/contractsCopy/khaledulsaleh_staking.sol\":6242:6252  msg.sender */\n      caller\n        /* \"contracts/contractsCopy/khaledulsaleh_staking.sol\":6229:6253  DUSDinvestor[msg.sender] */\n      0xffffffffffffffffffffffffffffffffffffffff\n      and\n      0xffffffffffffffffffffffffffffffffffffffff\n      and\n      dup2\n      mstore\n      0x20\n      add\n      swap1\n      dup2\n      mstore\n      0x20\n      add\n      0x00\n      keccak256\n        /* \"contracts/contractsCopy/khaledulsaleh_staking.sol\":6229:6266  DUSDinvestor[msg.sender].investBefore */\n      0x08\n      add\n      0x00\n        /* \"contracts/contractsCopy/khaledulsaleh_staking.sol\":6229:6271  DUSDinvestor[msg.sender].investBefore=true */\n      0x0100\n      exp\n      dup2\n      sload\n      dup2\n      0xff\n      mul\n      not\n      and\n      swap1\n      dup4\n      iszero\n      iszero\n      mul\n      or\n      swap1\n      sstore\n      pop\n        /* \"contracts/contractsCopy/khaledulsaleh_staking.sol\":6293:6297  true */\n      0x01\n        /* \"contracts/contractsCopy/khaledulsaleh_staking.sol\":6286:6297  return true */\n      swap2\n      pop\n      pop\n        /* \"contracts/contractsCopy/khaledulsaleh_staking.sol\":3958:6321  function Stake(uint _investedamount,address _referral) external returns(bool success){... */\n      swap3\n      swap2\n      pop\n      pop\n      jump\t// out\n        /* \"contracts/contractsCopy/khaledulsaleh_staking.sol\":10862:10973  function set_min_Stake_amount(uint _amount) public ... */\n    tag_58:\n        /* \"contracts/contractsCopy/khaledulsaleh_staking.sol\":10955:10962  _amount */\n      dup1\n        /* \"contracts/contractsCopy/khaledulsaleh_staking.sol\":10936:10952  min_Stake_amount */\n      0x06\n        /* \"contracts/contractsCopy/khaledulsaleh_staking.sol\":10936:10962  min_Stake_amount = _amount */\n      dup2\n      swap1\n      sstore\n      pop\n        /* \"contracts/contractsCopy/khaledulsaleh_staking.sol\":10862:10973  function set_min_Stake_amount(uint _amount) public ... */\n      pop\n      jump\t// out\n        /* \"contracts/contractsCopy/khaledulsaleh_staking.sol\":9062:10045  function getAllDUSDinvestments() public view returns (allInvestments[] memory) { //this function will return the all investments of the investor and withware date... */\n    tag_60:\n        /* \"contracts/contractsCopy/khaledulsaleh_staking.sol\":9116:9139  allInvestments[] memory */\n      0x60\n        /* \"contracts/contractsCopy/khaledulsaleh_staking.sol\":9237:9245  uint num */\n      0x00\n        /* \"contracts/contractsCopy/khaledulsaleh_staking.sol\":9248:9260  DUSDinvestor */\n      0x0d\n        /* \"contracts/contractsCopy/khaledulsaleh_staking.sol\":9248:9272  DUSDinvestor[msg.sender] */\n      0x00\n        /* \"contracts/contractsCopy/khaledulsaleh_staking.sol\":9261:9271  msg.sender */\n      caller\n        /* \"contracts/contractsCopy/khaledulsaleh_staking.sol\":9248:9272  DUSDinvestor[msg.sender] */\n      0xffffffffffffffffffffffffffffffffffffffff\n      and\n      0xffffffffffffffffffffffffffffffffffffffff\n      and\n      dup2\n      mstore\n      0x20\n      add\n      swap1\n      dup2\n      mstore\n      0x20\n      add\n      0x00\n      keccak256\n        /* \"contracts/contractsCopy/khaledulsaleh_staking.sol\":9248:9287  DUSDinvestor[msg.sender].noOfInvestment */\n      0x05\n      add\n      sload\n        /* \"contracts/contractsCopy/khaledulsaleh_staking.sol\":9237:9287  uint num = DUSDinvestor[msg.sender].noOfInvestment */\n      swap1\n      pop\n        /* \"contracts/contractsCopy/khaledulsaleh_staking.sol\":9301:9310  uint temp */\n      0x00\n        /* \"contracts/contractsCopy/khaledulsaleh_staking.sol\":9324:9341  uint currentIndex */\n      dup1\n        /* \"contracts/contractsCopy/khaledulsaleh_staking.sol\":9372:9378  uint i */\n      0x00\n        /* \"contracts/contractsCopy/khaledulsaleh_staking.sol\":9368:9544  for(uint i=0;i<num;i++)... */\n    tag_170:\n        /* \"contracts/contractsCopy/khaledulsaleh_staking.sol\":9383:9386  num */\n      dup4\n        /* \"contracts/contractsCopy/khaledulsaleh_staking.sol\":9381:9382  i */\n      dup2\n        /* \"contracts/contractsCopy/khaledulsaleh_staking.sol\":9381:9386  i<num */\n      lt\n        /* \"contracts/contractsCopy/khaledulsaleh_staking.sol\":9368:9544  for(uint i=0;i<num;i++)... */\n      iszero\n      tag_171\n      jumpi\n        /* \"contracts/contractsCopy/khaledulsaleh_staking.sol\":9481:9482  0 */\n      0x00\n        /* \"contracts/contractsCopy/khaledulsaleh_staking.sol\":9425:9437  DUSDinvestor */\n      0x0d\n        /* \"contracts/contractsCopy/khaledulsaleh_staking.sol\":9425:9449  DUSDinvestor[msg.sender] */\n      0x00\n        /* \"contracts/contractsCopy/khaledulsaleh_staking.sol\":9438:9448  msg.sender */\n      caller\n        /* \"contracts/contractsCopy/khaledulsaleh_staking.sol\":9425:9449  DUSDinvestor[msg.sender] */\n      0xffffffffffffffffffffffffffffffffffffffff\n      and\n      0xffffffffffffffffffffffffffffffffffffffff\n      and\n      dup2\n      mstore\n      0x20\n      add\n      swap1\n      dup2\n      mstore\n      0x20\n      add\n      0x00\n      keccak256\n        /* \"contracts/contractsCopy/khaledulsaleh_staking.sol\":9425:9460  DUSDinvestor[msg.sender].investment */\n      0x00\n      add\n        /* \"contracts/contractsCopy/khaledulsaleh_staking.sol\":9425:9463  DUSDinvestor[msg.sender].investment[i] */\n      0x00\n        /* \"contracts/contractsCopy/khaledulsaleh_staking.sol\":9461:9462  i */\n      dup4\n        /* \"contracts/contractsCopy/khaledulsaleh_staking.sol\":9425:9463  DUSDinvestor[msg.sender].investment[i] */\n      dup2\n      mstore\n      0x20\n      add\n      swap1\n      dup2\n      mstore\n      0x20\n      add\n      0x00\n      keccak256\n        /* \"contracts/contractsCopy/khaledulsaleh_staking.sol\":9425:9478  DUSDinvestor[msg.sender].investment[i].investedAmount */\n      0x00\n      add\n      sload\n        /* \"contracts/contractsCopy/khaledulsaleh_staking.sol\":9425:9482  DUSDinvestor[msg.sender].investment[i].investedAmount > 0 */\n      gt\n        /* \"contracts/contractsCopy/khaledulsaleh_staking.sol\":9421:9529  if( DUSDinvestor[msg.sender].investment[i].investedAmount > 0 ){... */\n      iszero\n      tag_173\n      jumpi\n        /* \"contracts/contractsCopy/khaledulsaleh_staking.sol\":9505:9511  temp++ */\n      dup3\n      dup1\n      tag_174\n      swap1\n      tag_150\n      jump\t// in\n    tag_174:\n      swap4\n      pop\n      pop\n        /* \"contracts/contractsCopy/khaledulsaleh_staking.sol\":9421:9529  if( DUSDinvestor[msg.sender].investment[i].investedAmount > 0 ){... */\n    tag_173:\n        /* \"contracts/contractsCopy/khaledulsaleh_staking.sol\":9387:9390  i++ */\n      dup1\n      dup1\n      tag_175\n      swap1\n      tag_150\n      jump\t// in\n    tag_175:\n      swap2\n      pop\n      pop\n        /* \"contracts/contractsCopy/khaledulsaleh_staking.sol\":9368:9544  for(uint i=0;i<num;i++)... */\n      jump(tag_170)\n    tag_171:\n      pop\n        /* \"contracts/contractsCopy/khaledulsaleh_staking.sol\":9567:9599  allInvestments[] memory Invested */\n      0x00\n        /* \"contracts/contractsCopy/khaledulsaleh_staking.sol\":9624:9628  temp */\n      dup3\n        /* \"contracts/contractsCopy/khaledulsaleh_staking.sol\":9603:9629  new allInvestments[](temp) */\n      0xffffffffffffffff\n      dup2\n      gt\n      iszero\n      tag_176\n      jumpi\n      tag_177\n      tag_178\n      jump\t// in\n    tag_177:\n    tag_176:\n      mload(0x40)\n      swap1\n      dup1\n      dup3\n      mstore\n      dup1\n      0x20\n      mul\n      0x20\n      add\n      dup3\n      add\n      0x40\n      mstore\n      dup1\n      iszero\n      tag_179\n      jumpi\n      dup2\n      0x20\n      add\n    tag_180:\n      tag_181\n      tag_182\n      jump\t// in\n    tag_181:\n      dup2\n      mstore\n      0x20\n      add\n      swap1\n      0x01\n      swap1\n      sub\n      swap1\n      dup2\n      tag_180\n      jumpi\n      swap1\n      pop\n    tag_179:\n      pop\n        /* \"contracts/contractsCopy/khaledulsaleh_staking.sol\":9567:9629  allInvestments[] memory Invested =  new allInvestments[](temp) */\n      swap1\n      pop\n        /* \"contracts/contractsCopy/khaledulsaleh_staking.sol\":9649:9655  uint i */\n      0x00\n        /* \"contracts/contractsCopy/khaledulsaleh_staking.sol\":9645:10005  for(uint i=0;i<num;i++)... */\n    tag_183:\n        /* \"contracts/contractsCopy/khaledulsaleh_staking.sol\":9660:9663  num */\n      dup5\n        /* \"contracts/contractsCopy/khaledulsaleh_staking.sol\":9658:9659  i */\n      dup2\n        /* \"contracts/contractsCopy/khaledulsaleh_staking.sol\":9658:9663  i<num */\n      lt\n        /* \"contracts/contractsCopy/khaledulsaleh_staking.sol\":9645:10005  for(uint i=0;i<num;i++)... */\n      iszero\n      tag_184\n      jumpi\n        /* \"contracts/contractsCopy/khaledulsaleh_staking.sol\":9758:9759  0 */\n      0x00\n        /* \"contracts/contractsCopy/khaledulsaleh_staking.sol\":9702:9714  DUSDinvestor */\n      0x0d\n        /* \"contracts/contractsCopy/khaledulsaleh_staking.sol\":9702:9726  DUSDinvestor[msg.sender] */\n      0x00\n        /* \"contracts/contractsCopy/khaledulsaleh_staking.sol\":9715:9725  msg.sender */\n      caller\n        /* \"contracts/contractsCopy/khaledulsaleh_staking.sol\":9702:9726  DUSDinvestor[msg.sender] */\n      0xffffffffffffffffffffffffffffffffffffffff\n      and\n      0xffffffffffffffffffffffffffffffffffffffff\n      and\n      dup2\n      mstore\n      0x20\n      add\n      swap1\n      dup2\n      mstore\n      0x20\n      add\n      0x00\n      keccak256\n        /* \"contracts/contractsCopy/khaledulsaleh_staking.sol\":9702:9737  DUSDinvestor[msg.sender].investment */\n      0x00\n      add\n        /* \"contracts/contractsCopy/khaledulsaleh_staking.sol\":9702:9740  DUSDinvestor[msg.sender].investment[i] */\n      0x00\n        /* \"contracts/contractsCopy/khaledulsaleh_staking.sol\":9738:9739  i */\n      dup4\n        /* \"contracts/contractsCopy/khaledulsaleh_staking.sol\":9702:9740  DUSDinvestor[msg.sender].investment[i] */\n      dup2\n      mstore\n      0x20\n      add\n      swap1\n      dup2\n      mstore\n      0x20\n      add\n      0x00\n      keccak256\n        /* \"contracts/contractsCopy/khaledulsaleh_staking.sol\":9702:9755  DUSDinvestor[msg.sender].investment[i].investedAmount */\n      0x00\n      add\n      sload\n        /* \"contracts/contractsCopy/khaledulsaleh_staking.sol\":9702:9759  DUSDinvestor[msg.sender].investment[i].investedAmount > 0 */\n      gt\n        /* \"contracts/contractsCopy/khaledulsaleh_staking.sol\":9698:9990  if( DUSDinvestor[msg.sender].investment[i].investedAmount > 0 ){... */\n      iszero\n      tag_186\n      jumpi\n        /* \"contracts/contractsCopy/khaledulsaleh_staking.sol\":9899:9911  DUSDinvestor */\n      0x0d\n        /* \"contracts/contractsCopy/khaledulsaleh_staking.sol\":9899:9923  DUSDinvestor[msg.sender] */\n      0x00\n        /* \"contracts/contractsCopy/khaledulsaleh_staking.sol\":9912:9922  msg.sender */\n      caller\n        /* \"contracts/contractsCopy/khaledulsaleh_staking.sol\":9899:9923  DUSDinvestor[msg.sender] */\n      0xffffffffffffffffffffffffffffffffffffffff\n      and\n      0xffffffffffffffffffffffffffffffffffffffff\n      and\n      dup2\n      mstore\n      0x20\n      add\n      swap1\n      dup2\n      mstore\n      0x20\n      add\n      0x00\n      keccak256\n        /* \"contracts/contractsCopy/khaledulsaleh_staking.sol\":9899:9934  DUSDinvestor[msg.sender].investment */\n      0x00\n      add\n        /* \"contracts/contractsCopy/khaledulsaleh_staking.sol\":9899:9937  DUSDinvestor[msg.sender].investment[i] */\n      0x00\n        /* \"contracts/contractsCopy/khaledulsaleh_staking.sol\":9935:9936  i */\n      dup3\n        /* \"contracts/contractsCopy/khaledulsaleh_staking.sol\":9899:9937  DUSDinvestor[msg.sender].investment[i] */\n      dup2\n      mstore\n      0x20\n      add\n      swap1\n      dup2\n      mstore\n      0x20\n      add\n      0x00\n      keccak256\n        /* \"contracts/contractsCopy/khaledulsaleh_staking.sol\":9876:9937  Invested[currentIndex]=DUSDinvestor[msg.sender].investment[i] */\n      mload(0x40)\n      dup1\n      0xc0\n      add\n      0x40\n      mstore\n      swap1\n      dup2\n      0x00\n      dup3\n      add\n      sload\n      dup2\n      mstore\n      0x20\n      add\n      0x01\n      dup3\n      add\n      sload\n      dup2\n      mstore\n      0x20\n      add\n      0x02\n      dup3\n      add\n      sload\n      dup2\n      mstore\n      0x20\n      add\n      0x03\n      dup3\n      add\n      sload\n      dup2\n      mstore\n      0x20\n      add\n      0x04\n      dup3\n      add\n      sload\n      dup2\n      mstore\n      0x20\n      add\n      0x05\n      dup3\n      add\n      0x00\n      swap1\n      sload\n      swap1\n      0x0100\n      exp\n      swap1\n      div\n      0xff\n      and\n      iszero\n      iszero\n      iszero\n      iszero\n      dup2\n      mstore\n      pop\n      pop\n        /* \"contracts/contractsCopy/khaledulsaleh_staking.sol\":9876:9884  Invested */\n      dup3\n        /* \"contracts/contractsCopy/khaledulsaleh_staking.sol\":9885:9897  currentIndex */\n      dup5\n        /* \"contracts/contractsCopy/khaledulsaleh_staking.sol\":9876:9898  Invested[currentIndex] */\n      dup2\n      mload\n      dup2\n      lt\n      tag_187\n      jumpi\n      tag_188\n      tag_189\n      jump\t// in\n    tag_188:\n    tag_187:\n      0x20\n      mul\n      0x20\n      add\n      add\n        /* \"contracts/contractsCopy/khaledulsaleh_staking.sol\":9876:9937  Invested[currentIndex]=DUSDinvestor[msg.sender].investment[i] */\n      dup2\n      swap1\n      mstore\n      pop\n        /* \"contracts/contractsCopy/khaledulsaleh_staking.sol\":9958:9972  currentIndex++ */\n      dup3\n      dup1\n      tag_190\n      swap1\n      tag_150\n      jump\t// in\n    tag_190:\n      swap4\n      pop\n      pop\n        /* \"contracts/contractsCopy/khaledulsaleh_staking.sol\":9698:9990  if( DUSDinvestor[msg.sender].investment[i].investedAmount > 0 ){... */\n    tag_186:\n        /* \"contracts/contractsCopy/khaledulsaleh_staking.sol\":9664:9667  i++ */\n      dup1\n      dup1\n      tag_191\n      swap1\n      tag_150\n      jump\t// in\n    tag_191:\n      swap2\n      pop\n      pop\n        /* \"contracts/contractsCopy/khaledulsaleh_staking.sol\":9645:10005  for(uint i=0;i<num;i++)... */\n      jump(tag_183)\n    tag_184:\n      pop\n        /* \"contracts/contractsCopy/khaledulsaleh_staking.sol\":10025:10033  Invested */\n      dup1\n        /* \"contracts/contractsCopy/khaledulsaleh_staking.sol\":10018:10033  return Invested */\n      swap5\n      pop\n      pop\n      pop\n      pop\n      pop\n        /* \"contracts/contractsCopy/khaledulsaleh_staking.sol\":9062:10045  function getAllDUSDinvestments() public view returns (allInvestments[] memory) { //this function will return the all investments of the investor and withware date... */\n      swap1\n      jump\t// out\n        /* \"contracts/contractsCopy/khaledulsaleh_staking.sol\":6331:6706  function getReward() view public returns(uint){ //this function is get the total reward balance of the investor... */\n    tag_64:\n        /* \"contracts/contractsCopy/khaledulsaleh_staking.sol\":6372:6376  uint */\n      0x00\n        /* \"contracts/contractsCopy/khaledulsaleh_staking.sol\":6455:6471  uint totalReward */\n      dup1\n        /* \"contracts/contractsCopy/khaledulsaleh_staking.sol\":6583:6586  100 */\n      0x64\n        /* \"contracts/contractsCopy/khaledulsaleh_staking.sol\":6566:6579  totalbusiness */\n      sload(0x0a)\n        /* \"contracts/contractsCopy/khaledulsaleh_staking.sol\":6523:6535  DUSDinvestor */\n      0x0d\n        /* \"contracts/contractsCopy/khaledulsaleh_staking.sol\":6523:6547  DUSDinvestor[msg.sender] */\n      0x00\n        /* \"contracts/contractsCopy/khaledulsaleh_staking.sol\":6536:6546  msg.sender */\n      caller\n        /* \"contracts/contractsCopy/khaledulsaleh_staking.sol\":6523:6547  DUSDinvestor[msg.sender] */\n      0xffffffffffffffffffffffffffffffffffffffff\n      and\n      0xffffffffffffffffffffffffffffffffffffffff\n      and\n      dup2\n      mstore\n      0x20\n      add\n      swap1\n      dup2\n      mstore\n      0x20\n      add\n      0x00\n      keccak256\n        /* \"contracts/contractsCopy/khaledulsaleh_staking.sol\":6523:6563  DUSDinvestor[msg.sender].totalInvestment */\n      0x06\n      add\n      sload\n        /* \"contracts/contractsCopy/khaledulsaleh_staking.sol\":6523:6579  DUSDinvestor[msg.sender].totalInvestment / totalbusiness */\n      tag_193\n      swap2\n      swap1\n      tag_194\n      jump\t// in\n    tag_193:\n        /* \"contracts/contractsCopy/khaledulsaleh_staking.sol\":6522:6586  (DUSDinvestor[msg.sender].totalInvestment / totalbusiness )* 100 */\n      tag_195\n      swap2\n      swap1\n      tag_160\n      jump\t// in\n    tag_195:\n        /* \"contracts/contractsCopy/khaledulsaleh_staking.sol\":6515:6518  100 */\n      0x64\n        /* \"contracts/contractsCopy/khaledulsaleh_staking.sol\":6500:6514  reward_per_day */\n      sload(0x03)\n        /* \"contracts/contractsCopy/khaledulsaleh_staking.sol\":6500:6518  reward_per_day/100 */\n      tag_196\n      swap2\n      swap1\n      tag_194\n      jump\t// in\n    tag_196:\n        /* \"contracts/contractsCopy/khaledulsaleh_staking.sol\":6500:6587  reward_per_day/100 * ((DUSDinvestor[msg.sender].totalInvestment / totalbusiness )* 100) */\n      tag_197\n      swap2\n      swap1\n      tag_160\n      jump\t// in\n    tag_197:\n        /* \"contracts/contractsCopy/khaledulsaleh_staking.sol\":6486:6587  totalReward = reward_per_day/100 * ((DUSDinvestor[msg.sender].totalInvestment / totalbusiness )* 100) */\n      swap1\n      pop\n        /* \"contracts/contractsCopy/khaledulsaleh_staking.sol\":6617:6629  DUSDinvestor */\n      0x0d\n        /* \"contracts/contractsCopy/khaledulsaleh_staking.sol\":6617:6641  DUSDinvestor[msg.sender] */\n      0x00\n        /* \"contracts/contractsCopy/khaledulsaleh_staking.sol\":6630:6640  msg.sender */\n      caller\n        /* \"contracts/contractsCopy/khaledulsaleh_staking.sol\":6617:6641  DUSDinvestor[msg.sender] */\n      0xffffffffffffffffffffffffffffffffffffffff\n      and\n      0xffffffffffffffffffffffffffffffffffffffff\n      and\n      dup2\n      mstore\n      0x20\n      add\n      swap1\n      dup2\n      mstore\n      0x20\n      add\n      0x00\n      keccak256\n        /* \"contracts/contractsCopy/khaledulsaleh_staking.sol\":6617:6662  DUSDinvestor[msg.sender].totalWithdraw_reward */\n      0x07\n      add\n      sload\n        /* \"contracts/contractsCopy/khaledulsaleh_staking.sol\":6602:6662  totalReward -= DUSDinvestor[msg.sender].totalWithdraw_reward */\n      dup2\n      tag_198\n      swap2\n      swap1\n      tag_199\n      jump\t// in\n    tag_198:\n      swap1\n      pop\n        /* \"contracts/contractsCopy/khaledulsaleh_staking.sol\":6684:6695  totalReward */\n      dup1\n        /* \"contracts/contractsCopy/khaledulsaleh_staking.sol\":6677:6695  return totalReward */\n      swap2\n      pop\n      pop\n        /* \"contracts/contractsCopy/khaledulsaleh_staking.sol\":6331:6706  function getReward() view public returns(uint){ //this function is get the total reward balance of the investor... */\n      swap1\n      jump\t// out\n        /* \"contracts/contractsCopy/khaledulsaleh_staking.sol\":12724:13503  function Admin_data() view public returns(Admin_Data[] memory){... */\n    tag_67:\n        /* \"contracts/contractsCopy/khaledulsaleh_staking.sol\":12766:12785  Admin_Data[] memory */\n      0x60\n        /* \"contracts/contractsCopy/khaledulsaleh_staking.sol\":12801:12825  Admin_Data[] memory Temp */\n      0x00\n        /* \"contracts/contractsCopy/khaledulsaleh_staking.sol\":12843:12861  totalDUSDInvestors */\n      sload(0x04)\n        /* \"contracts/contractsCopy/khaledulsaleh_staking.sol\":12826:12862  new Admin_Data[](totalDUSDInvestors) */\n      0xffffffffffffffff\n      dup2\n      gt\n      iszero\n      tag_201\n      jumpi\n      tag_202\n      tag_178\n      jump\t// in\n    tag_202:\n    tag_201:\n      mload(0x40)\n      swap1\n      dup1\n      dup3\n      mstore\n      dup1\n      0x20\n      mul\n      0x20\n      add\n      dup3\n      add\n      0x40\n      mstore\n      dup1\n      iszero\n      tag_203\n      jumpi\n      dup2\n      0x20\n      add\n    tag_204:\n      tag_205\n      tag_206\n      jump\t// in\n    tag_205:\n      dup2\n      mstore\n      0x20\n      add\n      swap1\n      0x01\n      swap1\n      sub\n      swap1\n      dup2\n      tag_204\n      jumpi\n      swap1\n      pop\n    tag_203:\n      pop\n        /* \"contracts/contractsCopy/khaledulsaleh_staking.sol\":12801:12862  Admin_Data[] memory Temp=new Admin_Data[](totalDUSDInvestors) */\n      swap1\n      pop\n        /* \"contracts/contractsCopy/khaledulsaleh_staking.sol\":12893:12899  uint i */\n      0x00\n        /* \"contracts/contractsCopy/khaledulsaleh_staking.sol\":12889:13454  for(uint i=0;i<totalDUSDInvestors;i++)... */\n    tag_207:\n        /* \"contracts/contractsCopy/khaledulsaleh_staking.sol\":12904:12922  totalDUSDInvestors */\n      sload(0x04)\n        /* \"contracts/contractsCopy/khaledulsaleh_staking.sol\":12902:12903  i */\n      dup2\n        /* \"contracts/contractsCopy/khaledulsaleh_staking.sol\":12902:12922  i<totalDUSDInvestors */\n      lt\n        /* \"contracts/contractsCopy/khaledulsaleh_staking.sol\":12889:13454  for(uint i=0;i<totalDUSDInvestors;i++)... */\n      iszero\n      tag_208\n      jumpi\n        /* \"contracts/contractsCopy/khaledulsaleh_staking.sol\":12976:12989  All_investors */\n      0x0c\n        /* \"contracts/contractsCopy/khaledulsaleh_staking.sol\":12976:12992  All_investors[i] */\n      0x00\n        /* \"contracts/contractsCopy/khaledulsaleh_staking.sol\":12990:12991  i */\n      dup3\n        /* \"contracts/contractsCopy/khaledulsaleh_staking.sol\":12976:12992  All_investors[i] */\n      dup2\n      mstore\n      0x20\n      add\n      swap1\n      dup2\n      mstore\n      0x20\n      add\n      0x00\n      keccak256\n      0x00\n      swap1\n      sload\n      swap1\n      0x0100\n      exp\n      swap1\n      div\n      0xffffffffffffffffffffffffffffffffffffffff\n      and\n        /* \"contracts/contractsCopy/khaledulsaleh_staking.sol\":12957:12961  Temp */\n      dup3\n        /* \"contracts/contractsCopy/khaledulsaleh_staking.sol\":12962:12963  i */\n      dup3\n        /* \"contracts/contractsCopy/khaledulsaleh_staking.sol\":12957:12964  Temp[i] */\n      dup2\n      mload\n      dup2\n      lt\n      tag_210\n      jumpi\n      tag_211\n      tag_189\n      jump\t// in\n    tag_211:\n    tag_210:\n      0x20\n      mul\n      0x20\n      add\n      add\n      mload\n        /* \"contracts/contractsCopy/khaledulsaleh_staking.sol\":12957:12973  Temp[i].investor */\n      0x00\n      add\n        /* \"contracts/contractsCopy/khaledulsaleh_staking.sol\":12957:12992  Temp[i].investor = All_investors[i] */\n      swap1\n      0xffffffffffffffffffffffffffffffffffffffff\n      and\n      swap1\n      dup2\n      0xffffffffffffffffffffffffffffffffffffffff\n      and\n      dup2\n      mstore\n      pop\n      pop\n        /* \"contracts/contractsCopy/khaledulsaleh_staking.sol\":13035:13047  DUSDinvestor */\n      0x0d\n        /* \"contracts/contractsCopy/khaledulsaleh_staking.sol\":13035:13065  DUSDinvestor[All_investors[i]] */\n      0x00\n        /* \"contracts/contractsCopy/khaledulsaleh_staking.sol\":13048:13061  All_investors */\n      0x0c\n        /* \"contracts/contractsCopy/khaledulsaleh_staking.sol\":13048:13064  All_investors[i] */\n      0x00\n        /* \"contracts/contractsCopy/khaledulsaleh_staking.sol\":13062:13063  i */\n      dup5\n        /* \"contracts/contractsCopy/khaledulsaleh_staking.sol\":13048:13064  All_investors[i] */\n      dup2\n      mstore\n      0x20\n      add\n      swap1\n      dup2\n      mstore\n      0x20\n      add\n      0x00\n      keccak256\n      0x00\n      swap1\n      sload\n      swap1\n      0x0100\n      exp\n      swap1\n      div\n      0xffffffffffffffffffffffffffffffffffffffff\n      and\n        /* \"contracts/contractsCopy/khaledulsaleh_staking.sol\":13035:13065  DUSDinvestor[All_investors[i]] */\n      0xffffffffffffffffffffffffffffffffffffffff\n      and\n      0xffffffffffffffffffffffffffffffffffffffff\n      and\n      dup2\n      mstore\n      0x20\n      add\n      swap1\n      dup2\n      mstore\n      0x20\n      add\n      0x00\n      keccak256\n        /* \"contracts/contractsCopy/khaledulsaleh_staking.sol\":13035:13081  DUSDinvestor[All_investors[i]].totalInvestment */\n      0x06\n      add\n      sload\n        /* \"contracts/contractsCopy/khaledulsaleh_staking.sol\":13009:13013  Temp */\n      dup3\n        /* \"contracts/contractsCopy/khaledulsaleh_staking.sol\":13014:13015  i */\n      dup3\n        /* \"contracts/contractsCopy/khaledulsaleh_staking.sol\":13009:13016  Temp[i] */\n      dup2\n      mload\n      dup2\n      lt\n      tag_212\n      jumpi\n      tag_213\n      tag_189\n      jump\t// in\n    tag_213:\n    tag_212:\n      0x20\n      mul\n      0x20\n      add\n      add\n      mload\n        /* \"contracts/contractsCopy/khaledulsaleh_staking.sol\":13009:13032  Temp[i].totalInvestment */\n      0x20\n      add\n        /* \"contracts/contractsCopy/khaledulsaleh_staking.sol\":13009:13081  Temp[i].totalInvestment = DUSDinvestor[All_investors[i]].totalInvestment */\n      dup2\n      dup2\n      mstore\n      pop\n      pop\n        /* \"contracts/contractsCopy/khaledulsaleh_staking.sol\":13113:13150  get_investor_Reward(All_investors[i]) */\n      tag_214\n        /* \"contracts/contractsCopy/khaledulsaleh_staking.sol\":13133:13146  All_investors */\n      0x0c\n        /* \"contracts/contractsCopy/khaledulsaleh_staking.sol\":13133:13149  All_investors[i] */\n      0x00\n        /* \"contracts/contractsCopy/khaledulsaleh_staking.sol\":13147:13148  i */\n      dup4\n        /* \"contracts/contractsCopy/khaledulsaleh_staking.sol\":13133:13149  All_investors[i] */\n      dup2\n      mstore\n      0x20\n      add\n      swap1\n      dup2\n      mstore\n      0x20\n      add\n      0x00\n      keccak256\n      0x00\n      swap1\n      sload\n      swap1\n      0x0100\n      exp\n      swap1\n      div\n      0xffffffffffffffffffffffffffffffffffffffff\n      and\n        /* \"contracts/contractsCopy/khaledulsaleh_staking.sol\":13113:13132  get_investor_Reward */\n      tag_111\n        /* \"contracts/contractsCopy/khaledulsaleh_staking.sol\":13113:13150  get_investor_Reward(All_investors[i]) */\n      jump\t// in\n    tag_214:\n        /* \"contracts/contractsCopy/khaledulsaleh_staking.sol\":13098:13102  Temp */\n      dup3\n        /* \"contracts/contractsCopy/khaledulsaleh_staking.sol\":13103:13104  i */\n      dup3\n        /* \"contracts/contractsCopy/khaledulsaleh_staking.sol\":13098:13105  Temp[i] */\n      dup2\n      mload\n      dup2\n      lt\n      tag_215\n      jumpi\n      tag_216\n      tag_189\n      jump\t// in\n    tag_216:\n    tag_215:\n      0x20\n      mul\n      0x20\n      add\n      add\n      mload\n        /* \"contracts/contractsCopy/khaledulsaleh_staking.sol\":13098:13112  Temp[i].reward */\n      0x40\n      add\n        /* \"contracts/contractsCopy/khaledulsaleh_staking.sol\":13098:13150  Temp[i].reward=get_investor_Reward(All_investors[i]) */\n      dup2\n      dup2\n      mstore\n      pop\n      pop\n        /* \"contracts/contractsCopy/khaledulsaleh_staking.sol\":13192:13204  DUSDinvestor */\n      0x0d\n        /* \"contracts/contractsCopy/khaledulsaleh_staking.sol\":13192:13222  DUSDinvestor[All_investors[i]] */\n      0x00\n        /* \"contracts/contractsCopy/khaledulsaleh_staking.sol\":13205:13218  All_investors */\n      0x0c\n        /* \"contracts/contractsCopy/khaledulsaleh_staking.sol\":13205:13221  All_investors[i] */\n      0x00\n        /* \"contracts/contractsCopy/khaledulsaleh_staking.sol\":13219:13220  i */\n      dup5\n        /* \"contracts/contractsCopy/khaledulsaleh_staking.sol\":13205:13221  All_investors[i] */\n      dup2\n      mstore\n      0x20\n      add\n      swap1\n      dup2\n      mstore\n      0x20\n      add\n      0x00\n      keccak256\n      0x00\n      swap1\n      sload\n      swap1\n      0x0100\n      exp\n      swap1\n      div\n      0xffffffffffffffffffffffffffffffffffffffff\n      and\n        /* \"contracts/contractsCopy/khaledulsaleh_staking.sol\":13192:13222  DUSDinvestor[All_investors[i]] */\n      0xffffffffffffffffffffffffffffffffffffffff\n      and\n      0xffffffffffffffffffffffffffffffffffffffff\n      and\n      dup2\n      mstore\n      0x20\n      add\n      swap1\n      dup2\n      mstore\n      0x20\n      add\n      0x00\n      keccak256\n        /* \"contracts/contractsCopy/khaledulsaleh_staking.sol\":13192:13237  DUSDinvestor[All_investors[i]].noOfInvestment */\n      0x05\n      add\n      sload\n        /* \"contracts/contractsCopy/khaledulsaleh_staking.sol\":13167:13171  Temp */\n      dup3\n        /* \"contracts/contractsCopy/khaledulsaleh_staking.sol\":13172:13173  i */\n      dup3\n        /* \"contracts/contractsCopy/khaledulsaleh_staking.sol\":13167:13174  Temp[i] */\n      dup2\n      mload\n      dup2\n      lt\n      tag_217\n      jumpi\n      tag_218\n      tag_189\n      jump\t// in\n    tag_218:\n    tag_217:\n      0x20\n      mul\n      0x20\n      add\n      add\n      mload\n        /* \"contracts/contractsCopy/khaledulsaleh_staking.sol\":13167:13189  Temp[i].noOfInvestment */\n      0x60\n      add\n        /* \"contracts/contractsCopy/khaledulsaleh_staking.sol\":13167:13237  Temp[i].noOfInvestment = DUSDinvestor[All_investors[i]].noOfInvestment */\n      dup2\n      dup2\n      mstore\n      pop\n      pop\n        /* \"contracts/contractsCopy/khaledulsaleh_staking.sol\":13285:13297  DUSDinvestor */\n      0x0d\n        /* \"contracts/contractsCopy/khaledulsaleh_staking.sol\":13285:13315  DUSDinvestor[All_investors[i]] */\n      0x00\n        /* \"contracts/contractsCopy/khaledulsaleh_staking.sol\":13298:13311  All_investors */\n      0x0c\n        /* \"contracts/contractsCopy/khaledulsaleh_staking.sol\":13298:13314  All_investors[i] */\n      0x00\n        /* \"contracts/contractsCopy/khaledulsaleh_staking.sol\":13312:13313  i */\n      dup5\n        /* \"contracts/contractsCopy/khaledulsaleh_staking.sol\":13298:13314  All_investors[i] */\n      dup2\n      mstore\n      0x20\n      add\n      swap1\n      dup2\n      mstore\n      0x20\n      add\n      0x00\n      keccak256\n      0x00\n      swap1\n      sload\n      swap1\n      0x0100\n      exp\n      swap1\n      div\n      0xffffffffffffffffffffffffffffffffffffffff\n      and\n        /* \"contracts/contractsCopy/khaledulsaleh_staking.sol\":13285:13315  DUSDinvestor[All_investors[i]] */\n      0xffffffffffffffffffffffffffffffffffffffff\n      and\n      0xffffffffffffffffffffffffffffffffffffffff\n      and\n      dup2\n      mstore\n      0x20\n      add\n      swap1\n      dup2\n      mstore\n      0x20\n      add\n      0x00\n      keccak256\n        /* \"contracts/contractsCopy/khaledulsaleh_staking.sol\":13285:13336  DUSDinvestor[All_investors[i]].totalWithdraw_reward */\n      0x07\n      add\n      sload\n        /* \"contracts/contractsCopy/khaledulsaleh_staking.sol\":13254:13258  Temp */\n      dup3\n        /* \"contracts/contractsCopy/khaledulsaleh_staking.sol\":13259:13260  i */\n      dup3\n        /* \"contracts/contractsCopy/khaledulsaleh_staking.sol\":13254:13261  Temp[i] */\n      dup2\n      mload\n      dup2\n      lt\n      tag_219\n      jumpi\n      tag_220\n      tag_189\n      jump\t// in\n    tag_220:\n    tag_219:\n      0x20\n      mul\n      0x20\n      add\n      add\n      mload\n        /* \"contracts/contractsCopy/khaledulsaleh_staking.sol\":13254:13282  Temp[i].totalWithdraw_reward */\n      0x80\n      add\n        /* \"contracts/contractsCopy/khaledulsaleh_staking.sol\":13254:13336  Temp[i].totalWithdraw_reward = DUSDinvestor[All_investors[i]].totalWithdraw_reward */\n      dup2\n      dup2\n      mstore\n      pop\n      pop\n        /* \"contracts/contractsCopy/khaledulsaleh_staking.sol\":13379:13422  DUSDTotalReferrals_inside(All_investors[i]) */\n      tag_221\n        /* \"contracts/contractsCopy/khaledulsaleh_staking.sol\":13405:13418  All_investors */\n      0x0c\n        /* \"contracts/contractsCopy/khaledulsaleh_staking.sol\":13405:13421  All_investors[i] */\n      0x00\n        /* \"contracts/contractsCopy/khaledulsaleh_staking.sol\":13419:13420  i */\n      dup4\n        /* \"contracts/contractsCopy/khaledulsaleh_staking.sol\":13405:13421  All_investors[i] */\n      dup2\n      mstore\n      0x20\n      add\n      swap1\n      dup2\n      mstore\n      0x20\n      add\n      0x00\n      keccak256\n      0x00\n      swap1\n      sload\n      swap1\n      0x0100\n      exp\n      swap1\n      div\n      0xffffffffffffffffffffffffffffffffffffffff\n      and\n        /* \"contracts/contractsCopy/khaledulsaleh_staking.sol\":13379:13404  DUSDTotalReferrals_inside */\n      tag_222\n        /* \"contracts/contractsCopy/khaledulsaleh_staking.sol\":13379:13422  DUSDTotalReferrals_inside(All_investors[i]) */\n      jump\t// in\n    tag_221:\n        /* \"contracts/contractsCopy/khaledulsaleh_staking.sol\":13353:13357  Temp */\n      dup3\n        /* \"contracts/contractsCopy/khaledulsaleh_staking.sol\":13358:13359  i */\n      dup3\n        /* \"contracts/contractsCopy/khaledulsaleh_staking.sol\":13353:13360  Temp[i] */\n      dup2\n      mload\n      dup2\n      lt\n      tag_223\n      jumpi\n      tag_224\n      tag_189\n      jump\t// in\n    tag_224:\n    tag_223:\n      0x20\n      mul\n      0x20\n      add\n      add\n      mload\n        /* \"contracts/contractsCopy/khaledulsaleh_staking.sol\":13353:13376  Temp[i].Total_referrals */\n      0xa0\n      add\n        /* \"contracts/contractsCopy/khaledulsaleh_staking.sol\":13353:13422  Temp[i].Total_referrals = DUSDTotalReferrals_inside(All_investors[i]) */\n      dup2\n      dup2\n      mstore\n      pop\n      pop\n        /* \"contracts/contractsCopy/khaledulsaleh_staking.sol\":12923:12926  i++ */\n      dup1\n      dup1\n      tag_225\n      swap1\n      tag_150\n      jump\t// in\n    tag_225:\n      swap2\n      pop\n      pop\n        /* \"contracts/contractsCopy/khaledulsaleh_staking.sol\":12889:13454  for(uint i=0;i<totalDUSDInvestors;i++)... */\n      jump(tag_207)\n    tag_208:\n      pop\n        /* \"contracts/contractsCopy/khaledulsaleh_staking.sol\":13474:13478  Temp */\n      dup1\n        /* \"contracts/contractsCopy/khaledulsaleh_staking.sol\":13467:13478  return Temp */\n      swap2\n      pop\n      pop\n        /* \"contracts/contractsCopy/khaledulsaleh_staking.sol\":12724:13503  function Admin_data() view public returns(Admin_Data[] memory){... */\n      swap1\n      jump\t// out\n        /* \"contracts/contractsCopy/khaledulsaleh_staking.sol\":11102:11386  function set_values(uint min_stake,uint max_stake,uint _reward_per_day,uint _denomenator) public ... */\n    tag_73:\n        /* \"contracts/contractsCopy/khaledulsaleh_staking.sol\":11241:11250  max_stake */\n      dup3\n        /* \"contracts/contractsCopy/khaledulsaleh_staking.sol\":11222:11238  max_Stake_amount */\n      0x07\n        /* \"contracts/contractsCopy/khaledulsaleh_staking.sol\":11222:11250  max_Stake_amount = max_stake */\n      dup2\n      swap1\n      sstore\n      pop\n        /* \"contracts/contractsCopy/khaledulsaleh_staking.sol\":11283:11292  min_stake */\n      dup4\n        /* \"contracts/contractsCopy/khaledulsaleh_staking.sol\":11264:11280  min_Stake_amount */\n      0x06\n        /* \"contracts/contractsCopy/khaledulsaleh_staking.sol\":11264:11292  min_Stake_amount = min_stake */\n      dup2\n      swap1\n      sstore\n      pop\n        /* \"contracts/contractsCopy/khaledulsaleh_staking.sol\":11320:11335  _reward_per_day */\n      dup2\n        /* \"contracts/contractsCopy/khaledulsaleh_staking.sol\":11306:11317  rewardToken */\n      0x05\n        /* \"contracts/contractsCopy/khaledulsaleh_staking.sol\":11306:11335  rewardToken = _reward_per_day */\n      dup2\n      swap1\n      sstore\n      pop\n        /* \"contracts/contractsCopy/khaledulsaleh_staking.sol\":11363:11375  _denomenator */\n      dup1\n        /* \"contracts/contractsCopy/khaledulsaleh_staking.sol\":11349:11360  denomenator */\n      0x08\n        /* \"contracts/contractsCopy/khaledulsaleh_staking.sol\":11349:11375  denomenator = _denomenator */\n      dup2\n      swap1\n      sstore\n      pop\n        /* \"contracts/contractsCopy/khaledulsaleh_staking.sol\":11102:11386  function set_values(uint min_stake,uint max_stake,uint _reward_per_day,uint _denomenator) public ... */\n      pop\n      pop\n      pop\n      pop\n      jump\t// out\n        /* \"contracts/contractsCopy/khaledulsaleh_staking.sol\":10982:11093  function set_max_Stake_amount(uint _amount) public ... */\n    tag_76:\n        /* \"contracts/contractsCopy/khaledulsaleh_staking.sol\":11075:11082  _amount */\n      dup1\n        /* \"contracts/contractsCopy/khaledulsaleh_staking.sol\":11056:11072  max_Stake_amount */\n      0x07\n        /* \"contracts/contractsCopy/khaledulsaleh_staking.sol\":11056:11082  max_Stake_amount = _amount */\n      dup2\n      swap1\n      sstore\n      pop\n        /* \"contracts/contractsCopy/khaledulsaleh_staking.sol\":10982:11093  function set_max_Stake_amount(uint _amount) public ... */\n      pop\n      jump\t// out\n        /* \"contracts/contractsCopy/khaledulsaleh_staking.sol\":1089:1132  mapping(uint=>address) public All_investors */\n    tag_79:\n      mstore(0x20, 0x0c)\n      dup1\n      0x00\n      mstore\n      keccak256(0x00, 0x40)\n      0x00\n      swap2\n      pop\n      sload\n      swap1\n      0x0100\n      exp\n      swap1\n      div\n      0xffffffffffffffffffffffffffffffffffffffff\n      and\n      dup2\n      jump\t// out\n        /* \"contracts/contractsCopy/khaledulsaleh_staking.sol\":978:1015  uint public investmentPeriod=365 days */\n    tag_83:\n      sload(0x09)\n      dup2\n      jump\t// out\n        /* \"contracts/contractsCopy/khaledulsaleh_staking.sol\":13513:13696  function total_withdraw_reaward() view public returns(uint){... */\n    tag_86:\n        /* \"contracts/contractsCopy/khaledulsaleh_staking.sol\":13567:13571  uint */\n      0x00\n        /* \"contracts/contractsCopy/khaledulsaleh_staking.sol\":13588:13597  uint Temp */\n      dup1\n        /* \"contracts/contractsCopy/khaledulsaleh_staking.sol\":13600:13612  DUSDinvestor */\n      0x0d\n        /* \"contracts/contractsCopy/khaledulsaleh_staking.sol\":13600:13624  DUSDinvestor[msg.sender] */\n      0x00\n        /* \"contracts/contractsCopy/khaledulsaleh_staking.sol\":13613:13623  msg.sender */\n      caller\n        /* \"contracts/contractsCopy/khaledulsaleh_staking.sol\":13600:13624  DUSDinvestor[msg.sender] */\n      0xffffffffffffffffffffffffffffffffffffffff\n      and\n      0xffffffffffffffffffffffffffffffffffffffff\n      and\n      dup2\n      mstore\n      0x20\n      add\n      swap1\n      dup2\n      mstore\n      0x20\n      add\n      0x00\n      keccak256\n        /* \"contracts/contractsCopy/khaledulsaleh_staking.sol\":13600:13645  DUSDinvestor[msg.sender].totalWithdraw_reward */\n      0x07\n      add\n      sload\n        /* \"contracts/contractsCopy/khaledulsaleh_staking.sol\":13588:13645  uint Temp = DUSDinvestor[msg.sender].totalWithdraw_reward */\n      swap1\n      pop\n        /* \"contracts/contractsCopy/khaledulsaleh_staking.sol\":13667:13671  Temp */\n      dup1\n        /* \"contracts/contractsCopy/khaledulsaleh_staking.sol\":13660:13671  return Temp */\n      swap2\n      pop\n      pop\n        /* \"contracts/contractsCopy/khaledulsaleh_staking.sol\":13513:13696  function total_withdraw_reaward() view public returns(uint){... */\n      swap1\n      jump\t// out\n        /* \"contracts/contractsCopy/khaledulsaleh_staking.sol\":7636:8832  function unStake() external  returns (bool success){... */\n    tag_89:\n        /* \"contracts/contractsCopy/khaledulsaleh_staking.sol\":7674:7686  bool success */\n      0x00\n        /* \"contracts/contractsCopy/khaledulsaleh_staking.sol\":7750:7751  0 */\n      dup1\n        /* \"contracts/contractsCopy/khaledulsaleh_staking.sol\":7709:7721  DUSDinvestor */\n      0x0d\n        /* \"contracts/contractsCopy/khaledulsaleh_staking.sol\":7709:7733  DUSDinvestor[msg.sender] */\n      0x00\n        /* \"contracts/contractsCopy/khaledulsaleh_staking.sol\":7722:7732  msg.sender */\n      caller\n        /* \"contracts/contractsCopy/khaledulsaleh_staking.sol\":7709:7733  DUSDinvestor[msg.sender] */\n      0xffffffffffffffffffffffffffffffffffffffff\n      and\n      0xffffffffffffffffffffffffffffffffffffffff\n      and\n      dup2\n      mstore\n      0x20\n      add\n      swap1\n      dup2\n      mstore\n      0x20\n      add\n      0x00\n      keccak256\n        /* \"contracts/contractsCopy/khaledulsaleh_staking.sol\":7709:7749  DUSDinvestor[msg.sender].totalInvestment */\n      0x06\n      add\n      sload\n        /* \"contracts/contractsCopy/khaledulsaleh_staking.sol\":7709:7751  DUSDinvestor[msg.sender].totalInvestment>0 */\n      gt\n        /* \"contracts/contractsCopy/khaledulsaleh_staking.sol\":7701:7792  require(DUSDinvestor[msg.sender].totalInvestment>0,\"you dont have investment to withdrawn\") */\n      tag_230\n      jumpi\n      mload(0x40)\n      0x08c379a000000000000000000000000000000000000000000000000000000000\n      dup2\n      mstore\n      0x04\n      add\n      tag_231\n      swap1\n      tag_232\n      jump\t// in\n    tag_231:\n      mload(0x40)\n      dup1\n      swap2\n      sub\n      swap1\n      revert\n    tag_230:\n        /* \"contracts/contractsCopy/khaledulsaleh_staking.sol\":7909:7924  block.timestamp */\n      timestamp\n        /* \"contracts/contractsCopy/khaledulsaleh_staking.sol\":7872:7884  DUSDinvestor */\n      0x0d\n        /* \"contracts/contractsCopy/khaledulsaleh_staking.sol\":7872:7896  DUSDinvestor[msg.sender] */\n      0x00\n        /* \"contracts/contractsCopy/khaledulsaleh_staking.sol\":7885:7895  msg.sender */\n      caller\n        /* \"contracts/contractsCopy/khaledulsaleh_staking.sol\":7872:7896  DUSDinvestor[msg.sender] */\n      0xffffffffffffffffffffffffffffffffffffffff\n      and\n      0xffffffffffffffffffffffffffffffffffffffff\n      and\n      dup2\n      mstore\n      0x20\n      add\n      swap1\n      dup2\n      mstore\n      0x20\n      add\n      0x00\n      keccak256\n        /* \"contracts/contractsCopy/khaledulsaleh_staking.sol\":7872:7906  DUSDinvestor[msg.sender].stakeTime */\n      0x09\n      add\n      sload\n        /* \"contracts/contractsCopy/khaledulsaleh_staking.sol\":7872:7924  DUSDinvestor[msg.sender].stakeTime < block.timestamp */\n      lt\n        /* \"contracts/contractsCopy/khaledulsaleh_staking.sol\":7864:7959  require(DUSDinvestor[msg.sender].stakeTime < block.timestamp,\"you cant withdraw before 1 year\") */\n      tag_233\n      jumpi\n      mload(0x40)\n      0x08c379a000000000000000000000000000000000000000000000000000000000\n      dup2\n      mstore\n      0x04\n      add\n      tag_234\n      swap1\n      tag_235\n      jump\t// in\n    tag_234:\n      mload(0x40)\n      dup1\n      swap2\n      sub\n      swap1\n      revert\n    tag_233:\n        /* \"contracts/contractsCopy/khaledulsaleh_staking.sol\":7973:7984  uint amount */\n      0x00\n        /* \"contracts/contractsCopy/khaledulsaleh_staking.sol\":7985:7997  DUSDinvestor */\n      0x0d\n        /* \"contracts/contractsCopy/khaledulsaleh_staking.sol\":7985:8009  DUSDinvestor[msg.sender] */\n      0x00\n        /* \"contracts/contractsCopy/khaledulsaleh_staking.sol\":7998:8008  msg.sender */\n      caller\n        /* \"contracts/contractsCopy/khaledulsaleh_staking.sol\":7985:8009  DUSDinvestor[msg.sender] */\n      0xffffffffffffffffffffffffffffffffffffffff\n      and\n      0xffffffffffffffffffffffffffffffffffffffff\n      and\n      dup2\n      mstore\n      0x20\n      add\n      swap1\n      dup2\n      mstore\n      0x20\n      add\n      0x00\n      keccak256\n        /* \"contracts/contractsCopy/khaledulsaleh_staking.sol\":7985:8025  DUSDinvestor[msg.sender].totalInvestment */\n      0x06\n      add\n      sload\n        /* \"contracts/contractsCopy/khaledulsaleh_staking.sol\":7973:8025  uint amount=DUSDinvestor[msg.sender].totalInvestment */\n      swap1\n      pop\n        /* \"contracts/contractsCopy/khaledulsaleh_staking.sol\":8039:8048  uint temp */\n      0x00\n        /* \"contracts/contractsCopy/khaledulsaleh_staking.sol\":8051:8063  DUSDinvestor */\n      0x0d\n        /* \"contracts/contractsCopy/khaledulsaleh_staking.sol\":8051:8075  DUSDinvestor[msg.sender] */\n      0x00\n        /* \"contracts/contractsCopy/khaledulsaleh_staking.sol\":8064:8074  msg.sender */\n      caller\n        /* \"contracts/contractsCopy/khaledulsaleh_staking.sol\":8051:8075  DUSDinvestor[msg.sender] */\n      0xffffffffffffffffffffffffffffffffffffffff\n      and\n      0xffffffffffffffffffffffffffffffffffffffff\n      and\n      dup2\n      mstore\n      0x20\n      add\n      swap1\n      dup2\n      mstore\n      0x20\n      add\n      0x00\n      keccak256\n        /* \"contracts/contractsCopy/khaledulsaleh_staking.sol\":8051:8090  DUSDinvestor[msg.sender].noOfInvestment */\n      0x05\n      add\n      sload\n        /* \"contracts/contractsCopy/khaledulsaleh_staking.sol\":8039:8090  uint temp = DUSDinvestor[msg.sender].noOfInvestment */\n      swap1\n      pop\n        /* \"contracts/contractsCopy/khaledulsaleh_staking.sol\":8104:8113  uint from */\n      0x00\n        /* \"contracts/contractsCopy/khaledulsaleh_staking.sol\":8116:8129  rew_till_done */\n      sload(0x0b)\n        /* \"contracts/contractsCopy/khaledulsaleh_staking.sol\":8104:8129  uint from = rew_till_done */\n      swap1\n      pop\n        /* \"contracts/contractsCopy/khaledulsaleh_staking.sol\":8159:8170  SMCcontract */\n      0x01\n      0x00\n      swap1\n      sload\n      swap1\n      0x0100\n      exp\n      swap1\n      div\n      0xffffffffffffffffffffffffffffffffffffffff\n      and\n        /* \"contracts/contractsCopy/khaledulsaleh_staking.sol\":8154:8180  DUSD(SMCcontract).transfer */\n      0xffffffffffffffffffffffffffffffffffffffff\n      and\n      0xa9059cbb\n        /* \"contracts/contractsCopy/khaledulsaleh_staking.sol\":8181:8191  msg.sender */\n      caller\n        /* \"contracts/contractsCopy/khaledulsaleh_staking.sol\":8200:8205  10**8 */\n      0x05f5e100\n        /* \"contracts/contractsCopy/khaledulsaleh_staking.sol\":8192:8198  amount */\n      dup7\n        /* \"contracts/contractsCopy/khaledulsaleh_staking.sol\":8192:8205  amount* 10**8 */\n      tag_236\n      swap2\n      swap1\n      tag_160\n      jump\t// in\n    tag_236:\n        /* \"contracts/contractsCopy/khaledulsaleh_staking.sol\":8154:8206  DUSD(SMCcontract).transfer(msg.sender,amount* 10**8) */\n      mload(0x40)\n      dup4\n      0xffffffff\n      and\n      0xe0\n      shl\n      dup2\n      mstore\n      0x04\n      add\n      tag_237\n      swap3\n      swap2\n      swap1\n      tag_238\n      jump\t// in\n    tag_237:\n      0x20\n      mload(0x40)\n      dup1\n      dup4\n      sub\n      dup2\n      0x00\n      dup8\n      dup1\n      extcodesize\n      iszero\n      dup1\n      iszero\n      tag_239\n      jumpi\n      0x00\n      dup1\n      revert\n    tag_239:\n      pop\n      gas\n      call\n      iszero\n      dup1\n      iszero\n      tag_241\n      jumpi\n      returndatasize\n      0x00\n      dup1\n      returndatacopy\n      revert(0x00, returndatasize)\n    tag_241:\n      pop\n      pop\n      pop\n      pop\n      mload(0x40)\n      returndatasize\n      not(0x1f)\n      0x1f\n      dup3\n      add\n      and\n      dup3\n      add\n      dup1\n      0x40\n      mstore\n      pop\n      dup2\n      add\n      swap1\n      tag_242\n      swap2\n      swap1\n      tag_167\n      jump\t// in\n    tag_242:\n      pop\n        /* \"contracts/contractsCopy/khaledulsaleh_staking.sol\":8311:8312  0 */\n      0x00\n        /* \"contracts/contractsCopy/khaledulsaleh_staking.sol\":8306:8312  from=0 */\n      swap1\n      pop\n        /* \"contracts/contractsCopy/khaledulsaleh_staking.sol\":8301:8563  for( from=0;from < temp;from++)... */\n    tag_243:\n        /* \"contracts/contractsCopy/khaledulsaleh_staking.sol\":8320:8324  temp */\n      dup2\n        /* \"contracts/contractsCopy/khaledulsaleh_staking.sol\":8313:8317  from */\n      dup2\n        /* \"contracts/contractsCopy/khaledulsaleh_staking.sol\":8313:8324  from < temp */\n      lt\n        /* \"contracts/contractsCopy/khaledulsaleh_staking.sol\":8301:8563  for( from=0;from < temp;from++)... */\n      iszero\n      tag_244\n      jumpi\n        /* \"contracts/contractsCopy/khaledulsaleh_staking.sol\":8417:8421  true */\n      0x01\n        /* \"contracts/contractsCopy/khaledulsaleh_staking.sol\":8366:8378  DUSDinvestor */\n      0x0d\n        /* \"contracts/contractsCopy/khaledulsaleh_staking.sol\":8366:8390  DUSDinvestor[msg.sender] */\n      0x00\n        /* \"contracts/contractsCopy/khaledulsaleh_staking.sol\":8379:8389  msg.sender */\n      caller\n        /* \"contracts/contractsCopy/khaledulsaleh_staking.sol\":8366:8390  DUSDinvestor[msg.sender] */\n      0xffffffffffffffffffffffffffffffffffffffff\n      and\n      0xffffffffffffffffffffffffffffffffffffffff\n      and\n      dup2\n      mstore\n      0x20\n      add\n      swap1\n      dup2\n      mstore\n      0x20\n      add\n      0x00\n      keccak256\n        /* \"contracts/contractsCopy/khaledulsaleh_staking.sol\":8366:8401  DUSDinvestor[msg.sender].investment */\n      0x00\n      add\n        /* \"contracts/contractsCopy/khaledulsaleh_staking.sol\":8366:8407  DUSDinvestor[msg.sender].investment[from] */\n      0x00\n        /* \"contracts/contractsCopy/khaledulsaleh_staking.sol\":8402:8406  from */\n      dup4\n        /* \"contracts/contractsCopy/khaledulsaleh_staking.sol\":8366:8407  DUSDinvestor[msg.sender].investment[from] */\n      dup2\n      mstore\n      0x20\n      add\n      swap1\n      dup2\n      mstore\n      0x20\n      add\n      0x00\n      keccak256\n        /* \"contracts/contractsCopy/khaledulsaleh_staking.sol\":8366:8415  DUSDinvestor[msg.sender].investment[from].unstake */\n      0x05\n      add\n      0x00\n        /* \"contracts/contractsCopy/khaledulsaleh_staking.sol\":8366:8421  DUSDinvestor[msg.sender].investment[from].unstake =true */\n      0x0100\n      exp\n      dup2\n      sload\n      dup2\n      0xff\n      mul\n      not\n      and\n      swap1\n      dup4\n      iszero\n      iszero\n      mul\n      or\n      swap1\n      sstore\n      pop\n        /* \"contracts/contractsCopy/khaledulsaleh_staking.sol\":8498:8513  block.timestamp */\n      timestamp\n        /* \"contracts/contractsCopy/khaledulsaleh_staking.sol\":8443:8455  DUSDinvestor */\n      0x0d\n        /* \"contracts/contractsCopy/khaledulsaleh_staking.sol\":8443:8467  DUSDinvestor[msg.sender] */\n      0x00\n        /* \"contracts/contractsCopy/khaledulsaleh_staking.sol\":8456:8466  msg.sender */\n      caller\n        /* \"contracts/contractsCopy/khaledulsaleh_staking.sol\":8443:8467  DUSDinvestor[msg.sender] */\n      0xffffffffffffffffffffffffffffffffffffffff\n      and\n      0xffffffffffffffffffffffffffffffffffffffff\n      and\n      dup2\n      mstore\n      0x20\n      add\n      swap1\n      dup2\n      mstore\n      0x20\n      add\n      0x00\n      keccak256\n        /* \"contracts/contractsCopy/khaledulsaleh_staking.sol\":8443:8478  DUSDinvestor[msg.sender].investment */\n      0x00\n      add\n        /* \"contracts/contractsCopy/khaledulsaleh_staking.sol\":8443:8484  DUSDinvestor[msg.sender].investment[from] */\n      0x00\n        /* \"contracts/contractsCopy/khaledulsaleh_staking.sol\":8479:8483  from */\n      dup4\n        /* \"contracts/contractsCopy/khaledulsaleh_staking.sol\":8443:8484  DUSDinvestor[msg.sender].investment[from] */\n      dup2\n      mstore\n      0x20\n      add\n      swap1\n      dup2\n      mstore\n      0x20\n      add\n      0x00\n      keccak256\n        /* \"contracts/contractsCopy/khaledulsaleh_staking.sol\":8443:8496  DUSDinvestor[msg.sender].investment[from].unstakeTime */\n      0x04\n      add\n        /* \"contracts/contractsCopy/khaledulsaleh_staking.sol\":8443:8513  DUSDinvestor[msg.sender].investment[from].unstakeTime =block.timestamp */\n      dup2\n      swap1\n      sstore\n      pop\n        /* \"contracts/contractsCopy/khaledulsaleh_staking.sol\":8325:8331  from++ */\n      dup1\n      dup1\n      tag_246\n      swap1\n      tag_150\n      jump\t// in\n    tag_246:\n      swap2\n      pop\n      pop\n        /* \"contracts/contractsCopy/khaledulsaleh_staking.sol\":8301:8563  for( from=0;from < temp;from++)... */\n      jump(tag_243)\n    tag_244:\n        /* \"contracts/contractsCopy/khaledulsaleh_staking.sol\":8591:8603  DUSDinvestor */\n      0x0d\n        /* \"contracts/contractsCopy/khaledulsaleh_staking.sol\":8591:8615  DUSDinvestor[msg.sender] */\n      0x00\n        /* \"contracts/contractsCopy/khaledulsaleh_staking.sol\":8604:8614  msg.sender */\n      caller\n        /* \"contracts/contractsCopy/khaledulsaleh_staking.sol\":8591:8615  DUSDinvestor[msg.sender] */\n      0xffffffffffffffffffffffffffffffffffffffff\n      and\n      0xffffffffffffffffffffffffffffffffffffffff\n      and\n      dup2\n      mstore\n      0x20\n      add\n      swap1\n      dup2\n      mstore\n      0x20\n      add\n      0x00\n      keccak256\n        /* \"contracts/contractsCopy/khaledulsaleh_staking.sol\":8591:8630  DUSDinvestor[msg.sender].noOfInvestment */\n      0x05\n      add\n      sload\n        /* \"contracts/contractsCopy/khaledulsaleh_staking.sol\":8576:8589  rew_till_done */\n      0x0b\n        /* \"contracts/contractsCopy/khaledulsaleh_staking.sol\":8576:8630  rew_till_done =DUSDinvestor[msg.sender].noOfInvestment */\n      dup2\n      swap1\n      sstore\n      pop\n        /* \"contracts/contractsCopy/khaledulsaleh_staking.sol\":8724:8725  0 */\n      0x00\n        /* \"contracts/contractsCopy/khaledulsaleh_staking.sol\":8683:8695  DUSDinvestor */\n      0x0d\n        /* \"contracts/contractsCopy/khaledulsaleh_staking.sol\":8683:8707  DUSDinvestor[msg.sender] */\n      0x00\n        /* \"contracts/contractsCopy/khaledulsaleh_staking.sol\":8696:8706  msg.sender */\n      caller\n        /* \"contracts/contractsCopy/khaledulsaleh_staking.sol\":8683:8707  DUSDinvestor[msg.sender] */\n      0xffffffffffffffffffffffffffffffffffffffff\n      and\n      0xffffffffffffffffffffffffffffffffffffffff\n      and\n      dup2\n      mstore\n      0x20\n      add\n      swap1\n      dup2\n      mstore\n      0x20\n      add\n      0x00\n      keccak256\n        /* \"contracts/contractsCopy/khaledulsaleh_staking.sol\":8683:8723  DUSDinvestor[msg.sender].totalInvestment */\n      0x06\n      add\n        /* \"contracts/contractsCopy/khaledulsaleh_staking.sol\":8683:8725  DUSDinvestor[msg.sender].totalInvestment=0 */\n      dup2\n      swap1\n      sstore\n      pop\n        /* \"contracts/contractsCopy/khaledulsaleh_staking.sol\":8816:8820  true */\n      0x01\n        /* \"contracts/contractsCopy/khaledulsaleh_staking.sol\":8809:8820  return true */\n      swap4\n      pop\n      pop\n      pop\n      pop\n        /* \"contracts/contractsCopy/khaledulsaleh_staking.sol\":7636:8832  function unStake() external  returns (bool success){... */\n      swap1\n      jump\t// out\n        /* \"contracts/contractsCopy/khaledulsaleh_staking.sol\":300:321  address  public owner */\n    tag_92:\n      0x00\n      dup1\n      sload\n      swap1\n      0x0100\n      exp\n      swap1\n      div\n      0xffffffffffffffffffffffffffffffffffffffff\n      and\n      dup2\n      jump\t// out\n        /* \"contracts/contractsCopy/khaledulsaleh_staking.sol\":8842:9052  function getTotalInvestmentDUSD() public view returns(uint) {   //this function is to get the total investment of the ivestor... */\n    tag_95:\n        /* \"contracts/contractsCopy/khaledulsaleh_staking.sol\":8896:8900  uint */\n      0x00\n        /* \"contracts/contractsCopy/khaledulsaleh_staking.sol\":9000:9012  DUSDinvestor */\n      0x0d\n        /* \"contracts/contractsCopy/khaledulsaleh_staking.sol\":9000:9024  DUSDinvestor[msg.sender] */\n      0x00\n        /* \"contracts/contractsCopy/khaledulsaleh_staking.sol\":9013:9023  msg.sender */\n      caller\n        /* \"contracts/contractsCopy/khaledulsaleh_staking.sol\":9000:9024  DUSDinvestor[msg.sender] */\n      0xffffffffffffffffffffffffffffffffffffffff\n      and\n      0xffffffffffffffffffffffffffffffffffffffff\n      and\n      dup2\n      mstore\n      0x20\n      add\n      swap1\n      dup2\n      mstore\n      0x20\n      add\n      0x00\n      keccak256\n        /* \"contracts/contractsCopy/khaledulsaleh_staking.sol\":9000:9040  DUSDinvestor[msg.sender].totalInvestment */\n      0x06\n      add\n      sload\n        /* \"contracts/contractsCopy/khaledulsaleh_staking.sol\":8993:9040  return DUSDinvestor[msg.sender].totalInvestment */\n      swap1\n      pop\n        /* \"contracts/contractsCopy/khaledulsaleh_staking.sol\":8842:9052  function getTotalInvestmentDUSD() public view returns(uint) {   //this function is to get the total investment of the ivestor... */\n      swap1\n      jump\t// out\n        /* \"contracts/contractsCopy/khaledulsaleh_staking.sol\":910:940  uint public denomenator=100000 */\n    tag_98:\n      sload(0x08)\n      dup2\n      jump\t// out\n        /* \"contracts/contractsCopy/khaledulsaleh_staking.sol\":10699:10853  function setReward(uint _amount,uint _denomenator) public ... */\n    tag_103:\n        /* \"contracts/contractsCopy/khaledulsaleh_staking.sol\":10794:10801  _amount */\n      dup2\n        /* \"contracts/contractsCopy/khaledulsaleh_staking.sol\":10780:10791  rewardToken */\n      0x05\n        /* \"contracts/contractsCopy/khaledulsaleh_staking.sol\":10780:10801  rewardToken = _amount */\n      dup2\n      swap1\n      sstore\n      pop\n        /* \"contracts/contractsCopy/khaledulsaleh_staking.sol\":10829:10841  _denomenator */\n      dup1\n        /* \"contracts/contractsCopy/khaledulsaleh_staking.sol\":10815:10826  denomenator */\n      0x08\n        /* \"contracts/contractsCopy/khaledulsaleh_staking.sol\":10815:10841  denomenator = _denomenator */\n      dup2\n      swap1\n      sstore\n      pop\n        /* \"contracts/contractsCopy/khaledulsaleh_staking.sol\":10699:10853  function setReward(uint _amount,uint _denomenator) public ... */\n      pop\n      pop\n      jump\t// out\n        /* \"contracts/contractsCopy/khaledulsaleh_staking.sol\":11579:12144  function referralLevel_earning() public view returns( uint[] memory arr )... */\n    tag_105:\n        /* \"contracts/contractsCopy/khaledulsaleh_staking.sol\":11633:11650  uint[] memory arr */\n      0x60\n        /* \"contracts/contractsCopy/khaledulsaleh_staking.sol\":11675:11710  uint[] memory referralLevels_reward */\n      0x00\n        /* \"contracts/contractsCopy/khaledulsaleh_staking.sol\":11722:11724  20 */\n      0x14\n        /* \"contracts/contractsCopy/khaledulsaleh_staking.sol\":11711:11725  new uint[](20) */\n      0xffffffffffffffff\n      dup2\n      gt\n      iszero\n      tag_250\n      jumpi\n      tag_251\n      tag_178\n      jump\t// in\n    tag_251:\n    tag_250:\n      mload(0x40)\n      swap1\n      dup1\n      dup3\n      mstore\n      dup1\n      0x20\n      mul\n      0x20\n      add\n      dup3\n      add\n      0x40\n      mstore\n      dup1\n      iszero\n      tag_252\n      jumpi\n      dup2\n      0x20\n      add\n      0x20\n      dup3\n      mul\n      dup1\n      calldatasize\n      dup4\n      calldatacopy\n      dup1\n      dup3\n      add\n      swap2\n      pop\n      pop\n      swap1\n      pop\n    tag_252:\n      pop\n        /* \"contracts/contractsCopy/khaledulsaleh_staking.sol\":11675:11725  uint[] memory referralLevels_reward=new uint[](20) */\n      swap1\n      pop\n        /* \"contracts/contractsCopy/khaledulsaleh_staking.sol\":11743:11749  uint i */\n      0x00\n        /* \"contracts/contractsCopy/khaledulsaleh_staking.sol\":11739:12089  for(uint i=0;i<20;i++)... */\n    tag_253:\n        /* \"contracts/contractsCopy/khaledulsaleh_staking.sol\":11754:11756  20 */\n      0x14\n        /* \"contracts/contractsCopy/khaledulsaleh_staking.sol\":11752:11753  i */\n      dup2\n        /* \"contracts/contractsCopy/khaledulsaleh_staking.sol\":11752:11756  i<20 */\n      lt\n        /* \"contracts/contractsCopy/khaledulsaleh_staking.sol\":11739:12089  for(uint i=0;i<20;i++)... */\n      iszero\n      tag_254\n      jumpi\n        /* \"contracts/contractsCopy/khaledulsaleh_staking.sol\":11844:11845  0 */\n      0x00\n        /* \"contracts/contractsCopy/khaledulsaleh_staking.sol\":11795:11807  DUSDinvestor */\n      0x0d\n        /* \"contracts/contractsCopy/khaledulsaleh_staking.sol\":11795:11819  DUSDinvestor[msg.sender] */\n      0x00\n        /* \"contracts/contractsCopy/khaledulsaleh_staking.sol\":11808:11818  msg.sender */\n      caller\n        /* \"contracts/contractsCopy/khaledulsaleh_staking.sol\":11795:11819  DUSDinvestor[msg.sender] */\n      0xffffffffffffffffffffffffffffffffffffffff\n      and\n      0xffffffffffffffffffffffffffffffffffffffff\n      and\n      dup2\n      mstore\n      0x20\n      add\n      swap1\n      dup2\n      mstore\n      0x20\n      add\n      0x00\n      keccak256\n        /* \"contracts/contractsCopy/khaledulsaleh_staking.sol\":11795:11833  DUSDinvestor[msg.sender].referralLevel */\n      0x03\n      add\n        /* \"contracts/contractsCopy/khaledulsaleh_staking.sol\":11795:11836  DUSDinvestor[msg.sender].referralLevel[i] */\n      0x00\n        /* \"contracts/contractsCopy/khaledulsaleh_staking.sol\":11834:11835  i */\n      dup4\n        /* \"contracts/contractsCopy/khaledulsaleh_staking.sol\":11795:11836  DUSDinvestor[msg.sender].referralLevel[i] */\n      dup2\n      mstore\n      0x20\n      add\n      swap1\n      dup2\n      mstore\n      0x20\n      add\n      0x00\n      keccak256\n        /* \"contracts/contractsCopy/khaledulsaleh_staking.sol\":11795:11843  DUSDinvestor[msg.sender].referralLevel[i].reward */\n      0x00\n      add\n      sload\n        /* \"contracts/contractsCopy/khaledulsaleh_staking.sol\":11795:11845  DUSDinvestor[msg.sender].referralLevel[i].reward>0 */\n      gt\n        /* \"contracts/contractsCopy/khaledulsaleh_staking.sol\":11792:12073  if(DUSDinvestor[msg.sender].referralLevel[i].reward>0)... */\n      iszero\n      tag_256\n      jumpi\n        /* \"contracts/contractsCopy/khaledulsaleh_staking.sol\":11912:11924  DUSDinvestor */\n      0x0d\n        /* \"contracts/contractsCopy/khaledulsaleh_staking.sol\":11912:11936  DUSDinvestor[msg.sender] */\n      0x00\n        /* \"contracts/contractsCopy/khaledulsaleh_staking.sol\":11925:11935  msg.sender */\n      caller\n        /* \"contracts/contractsCopy/khaledulsaleh_staking.sol\":11912:11936  DUSDinvestor[msg.sender] */\n      0xffffffffffffffffffffffffffffffffffffffff\n      and\n      0xffffffffffffffffffffffffffffffffffffffff\n      and\n      dup2\n      mstore\n      0x20\n      add\n      swap1\n      dup2\n      mstore\n      0x20\n      add\n      0x00\n      keccak256\n        /* \"contracts/contractsCopy/khaledulsaleh_staking.sol\":11912:11950  DUSDinvestor[msg.sender].referralLevel */\n      0x03\n      add\n        /* \"contracts/contractsCopy/khaledulsaleh_staking.sol\":11912:11953  DUSDinvestor[msg.sender].referralLevel[i] */\n      0x00\n        /* \"contracts/contractsCopy/khaledulsaleh_staking.sol\":11951:11952  i */\n      dup3\n        /* \"contracts/contractsCopy/khaledulsaleh_staking.sol\":11912:11953  DUSDinvestor[msg.sender].referralLevel[i] */\n      dup2\n      mstore\n      0x20\n      add\n      swap1\n      dup2\n      mstore\n      0x20\n      add\n      0x00\n      keccak256\n        /* \"contracts/contractsCopy/khaledulsaleh_staking.sol\":11912:11960  DUSDinvestor[msg.sender].referralLevel[i].reward */\n      0x00\n      add\n      sload\n        /* \"contracts/contractsCopy/khaledulsaleh_staking.sol\":11885:11906  referralLevels_reward */\n      dup3\n        /* \"contracts/contractsCopy/khaledulsaleh_staking.sol\":11907:11908  i */\n      dup3\n        /* \"contracts/contractsCopy/khaledulsaleh_staking.sol\":11885:11909  referralLevels_reward[i] */\n      dup2\n      mload\n      dup2\n      lt\n      tag_257\n      jumpi\n      tag_258\n      tag_189\n      jump\t// in\n    tag_258:\n    tag_257:\n      0x20\n      mul\n      0x20\n      add\n      add\n        /* \"contracts/contractsCopy/khaledulsaleh_staking.sol\":11885:11960  referralLevels_reward[i] = DUSDinvestor[msg.sender].referralLevel[i].reward */\n      dup2\n      dup2\n      mstore\n      pop\n      pop\n        /* \"contracts/contractsCopy/khaledulsaleh_staking.sol\":11792:12073  if(DUSDinvestor[msg.sender].referralLevel[i].reward>0)... */\n      jump(tag_259)\n    tag_256:\n        /* \"contracts/contractsCopy/khaledulsaleh_staking.sol\":12052:12053  0 */\n      0x00\n        /* \"contracts/contractsCopy/khaledulsaleh_staking.sol\":12025:12046  referralLevels_reward */\n      dup3\n        /* \"contracts/contractsCopy/khaledulsaleh_staking.sol\":12047:12048  i */\n      dup3\n        /* \"contracts/contractsCopy/khaledulsaleh_staking.sol\":12025:12049  referralLevels_reward[i] */\n      dup2\n      mload\n      dup2\n      lt\n      tag_260\n      jumpi\n      tag_261\n      tag_189\n      jump\t// in\n    tag_261:\n    tag_260:\n      0x20\n      mul\n      0x20\n      add\n      add\n        /* \"contracts/contractsCopy/khaledulsaleh_staking.sol\":12025:12053  referralLevels_reward[i] = 0 */\n      dup2\n      dup2\n      mstore\n      pop\n      pop\n        /* \"contracts/contractsCopy/khaledulsaleh_staking.sol\":11792:12073  if(DUSDinvestor[msg.sender].referralLevel[i].reward>0)... */\n    tag_259:\n        /* \"contracts/contractsCopy/khaledulsaleh_staking.sol\":11757:11760  i++ */\n      dup1\n      dup1\n      tag_262\n      swap1\n      tag_150\n      jump\t// in\n    tag_262:\n      swap2\n      pop\n      pop\n        /* \"contracts/contractsCopy/khaledulsaleh_staking.sol\":11739:12089  for(uint i=0;i<20;i++)... */\n      jump(tag_253)\n    tag_254:\n      pop\n        /* \"contracts/contractsCopy/khaledulsaleh_staking.sol\":12109:12130  referralLevels_reward */\n      dup1\n        /* \"contracts/contractsCopy/khaledulsaleh_staking.sol\":12102:12130  return referralLevels_reward */\n      swap2\n      pop\n      pop\n        /* \"contracts/contractsCopy/khaledulsaleh_staking.sol\":11579:12144  function referralLevel_earning() public view returns( uint[] memory arr )... */\n      swap1\n      jump\t// out\n        /* \"contracts/contractsCopy/khaledulsaleh_staking.sol\":6719:7116  function get_investor_Reward(address investor) view public returns(uint){ //this function is get the total reward balance of the investor... */\n    tag_111:\n        /* \"contracts/contractsCopy/khaledulsaleh_staking.sol\":6786:6790  uint */\n      0x00\n        /* \"contracts/contractsCopy/khaledulsaleh_staking.sol\":6869:6885  uint totalReward */\n      dup1\n        /* \"contracts/contractsCopy/khaledulsaleh_staking.sol\":6995:6998  100 */\n      0x64\n        /* \"contracts/contractsCopy/khaledulsaleh_staking.sol\":6978:6991  totalbusiness */\n      sload(0x0a)\n        /* \"contracts/contractsCopy/khaledulsaleh_staking.sol\":6937:6949  DUSDinvestor */\n      0x0d\n        /* \"contracts/contractsCopy/khaledulsaleh_staking.sol\":6937:6959  DUSDinvestor[investor] */\n      0x00\n        /* \"contracts/contractsCopy/khaledulsaleh_staking.sol\":6950:6958  investor */\n      dup7\n        /* \"contracts/contractsCopy/khaledulsaleh_staking.sol\":6937:6959  DUSDinvestor[investor] */\n      0xffffffffffffffffffffffffffffffffffffffff\n      and\n      0xffffffffffffffffffffffffffffffffffffffff\n      and\n      dup2\n      mstore\n      0x20\n      add\n      swap1\n      dup2\n      mstore\n      0x20\n      add\n      0x00\n      keccak256\n        /* \"contracts/contractsCopy/khaledulsaleh_staking.sol\":6937:6975  DUSDinvestor[investor].totalInvestment */\n      0x06\n      add\n      sload\n        /* \"contracts/contractsCopy/khaledulsaleh_staking.sol\":6937:6991  DUSDinvestor[investor].totalInvestment / totalbusiness */\n      tag_264\n      swap2\n      swap1\n      tag_194\n      jump\t// in\n    tag_264:\n        /* \"contracts/contractsCopy/khaledulsaleh_staking.sol\":6936:6998  (DUSDinvestor[investor].totalInvestment / totalbusiness )* 100 */\n      tag_265\n      swap2\n      swap1\n      tag_160\n      jump\t// in\n    tag_265:\n        /* \"contracts/contractsCopy/khaledulsaleh_staking.sol\":6929:6932  100 */\n      0x64\n        /* \"contracts/contractsCopy/khaledulsaleh_staking.sol\":6914:6928  reward_per_day */\n      sload(0x03)\n        /* \"contracts/contractsCopy/khaledulsaleh_staking.sol\":6914:6932  reward_per_day/100 */\n      tag_266\n      swap2\n      swap1\n      tag_194\n      jump\t// in\n    tag_266:\n        /* \"contracts/contractsCopy/khaledulsaleh_staking.sol\":6914:6999  reward_per_day/100 * ((DUSDinvestor[investor].totalInvestment / totalbusiness )* 100) */\n      tag_267\n      swap2\n      swap1\n      tag_160\n      jump\t// in\n    tag_267:\n        /* \"contracts/contractsCopy/khaledulsaleh_staking.sol\":6900:6999  totalReward = reward_per_day/100 * ((DUSDinvestor[investor].totalInvestment / totalbusiness )* 100) */\n      swap1\n      pop\n        /* \"contracts/contractsCopy/khaledulsaleh_staking.sol\":7029:7041  DUSDinvestor */\n      0x0d\n        /* \"contracts/contractsCopy/khaledulsaleh_staking.sol\":7029:7051  DUSDinvestor[investor] */\n      0x00\n        /* \"contracts/contractsCopy/khaledulsaleh_staking.sol\":7042:7050  investor */\n      dup5\n        /* \"contracts/contractsCopy/khaledulsaleh_staking.sol\":7029:7051  DUSDinvestor[investor] */\n      0xffffffffffffffffffffffffffffffffffffffff\n      and\n      0xffffffffffffffffffffffffffffffffffffffff\n      and\n      dup2\n      mstore\n      0x20\n      add\n      swap1\n      dup2\n      mstore\n      0x20\n      add\n      0x00\n      keccak256\n        /* \"contracts/contractsCopy/khaledulsaleh_staking.sol\":7029:7072  DUSDinvestor[investor].totalWithdraw_reward */\n      0x07\n      add\n      sload\n        /* \"contracts/contractsCopy/khaledulsaleh_staking.sol\":7014:7072  totalReward -= DUSDinvestor[investor].totalWithdraw_reward */\n      dup2\n      tag_268\n      swap2\n      swap1\n      tag_199\n      jump\t// in\n    tag_268:\n      swap1\n      pop\n        /* \"contracts/contractsCopy/khaledulsaleh_staking.sol\":7094:7105  totalReward */\n      dup1\n        /* \"contracts/contractsCopy/khaledulsaleh_staking.sol\":7087:7105  return totalReward */\n      swap2\n      pop\n      pop\n        /* \"contracts/contractsCopy/khaledulsaleh_staking.sol\":6719:7116  function get_investor_Reward(address investor) view public returns(uint){ //this function is get the total reward balance of the investor... */\n      swap2\n      swap1\n      pop\n      jump\t// out\n        /* \"contracts/contractsCopy/khaledulsaleh_staking.sol\":765:799  uint public min_Stake_amount=10000 */\n    tag_114:\n      sload(0x06)\n      dup2\n      jump\t// out\n        /* \"contracts/contractsCopy/khaledulsaleh_staking.sol\":7128:7625  function withdrawReward() external returns (bool success){... */\n    tag_117:\n        /* \"contracts/contractsCopy/khaledulsaleh_staking.sol\":7172:7184  bool success */\n      0x00\n        /* \"contracts/contractsCopy/khaledulsaleh_staking.sol\":7199:7216  uint Total_reward */\n      dup1\n        /* \"contracts/contractsCopy/khaledulsaleh_staking.sol\":7219:7230  getReward() */\n      tag_270\n        /* \"contracts/contractsCopy/khaledulsaleh_staking.sol\":7219:7228  getReward */\n      tag_64\n        /* \"contracts/contractsCopy/khaledulsaleh_staking.sol\":7219:7230  getReward() */\n      jump\t// in\n    tag_270:\n        /* \"contracts/contractsCopy/khaledulsaleh_staking.sol\":7199:7230  uint Total_reward = getReward() */\n      swap1\n      pop\n        /* \"contracts/contractsCopy/khaledulsaleh_staking.sol\":7265:7266  0 */\n      0x00\n        /* \"contracts/contractsCopy/khaledulsaleh_staking.sol\":7252:7264  Total_reward */\n      dup2\n        /* \"contracts/contractsCopy/khaledulsaleh_staking.sol\":7252:7266  Total_reward>0 */\n      gt\n        /* \"contracts/contractsCopy/khaledulsaleh_staking.sol\":7244:7304  require(Total_reward>0,\"you dont have rewards to withdrawn\") */\n      tag_271\n      jumpi\n      mload(0x40)\n      0x08c379a000000000000000000000000000000000000000000000000000000000\n      dup2\n      mstore\n      0x04\n      add\n      tag_272\n      swap1\n      tag_273\n      jump\t// in\n    tag_272:\n      mload(0x40)\n      dup1\n      swap2\n      sub\n      swap1\n      revert\n    tag_271:\n        /* \"contracts/contractsCopy/khaledulsaleh_staking.sol\":7397:7409  BUSDcontract */\n      0x02\n      0x00\n      swap1\n      sload\n      swap1\n      0x0100\n      exp\n      swap1\n      div\n      0xffffffffffffffffffffffffffffffffffffffff\n      and\n        /* \"contracts/contractsCopy/khaledulsaleh_staking.sol\":7392:7419  DUSD(BUSDcontract).transfer */\n      0xffffffffffffffffffffffffffffffffffffffff\n      and\n      0xa9059cbb\n        /* \"contracts/contractsCopy/khaledulsaleh_staking.sol\":7420:7430  msg.sender */\n      caller\n        /* \"contracts/contractsCopy/khaledulsaleh_staking.sol\":7444:7450  10**18 */\n      0x0de0b6b3a7640000\n        /* \"contracts/contractsCopy/khaledulsaleh_staking.sol\":7431:7443  Total_reward */\n      dup5\n        /* \"contracts/contractsCopy/khaledulsaleh_staking.sol\":7431:7450  Total_reward*10**18 */\n      tag_274\n      swap2\n      swap1\n      tag_160\n      jump\t// in\n    tag_274:\n        /* \"contracts/contractsCopy/khaledulsaleh_staking.sol\":7392:7451  DUSD(BUSDcontract).transfer(msg.sender,Total_reward*10**18) */\n      mload(0x40)\n      dup4\n      0xffffffff\n      and\n      0xe0\n      shl\n      dup2\n      mstore\n      0x04\n      add\n      tag_275\n      swap3\n      swap2\n      swap1\n      tag_238\n      jump\t// in\n    tag_275:\n      0x20\n      mload(0x40)\n      dup1\n      dup4\n      sub\n      dup2\n      0x00\n      dup8\n      dup1\n      extcodesize\n      iszero\n      dup1\n      iszero\n      tag_276\n      jumpi\n      0x00\n      dup1\n      revert\n    tag_276:\n      pop\n      gas\n      call\n      iszero\n      dup1\n      iszero\n      tag_278\n      jumpi\n      returndatasize\n      0x00\n      dup1\n      returndatacopy\n      revert(0x00, returndatasize)\n    tag_278:\n      pop\n      pop\n      pop\n      pop\n      mload(0x40)\n      returndatasize\n      not(0x1f)\n      0x1f\n      dup3\n      add\n      and\n      dup3\n      add\n      dup1\n      0x40\n      mstore\n      pop\n      dup2\n      add\n      swap1\n      tag_279\n      swap2\n      swap1\n      tag_167\n      jump\t// in\n    tag_279:\n      pop\n        /* \"contracts/contractsCopy/khaledulsaleh_staking.sol\":7575:7587  Total_reward */\n      dup1\n        /* \"contracts/contractsCopy/khaledulsaleh_staking.sol\":7528:7540  DUSDinvestor */\n      0x0d\n        /* \"contracts/contractsCopy/khaledulsaleh_staking.sol\":7528:7552  DUSDinvestor[msg.sender] */\n      0x00\n        /* \"contracts/contractsCopy/khaledulsaleh_staking.sol\":7541:7551  msg.sender */\n      caller\n        /* \"contracts/contractsCopy/khaledulsaleh_staking.sol\":7528:7552  DUSDinvestor[msg.sender] */\n      0xffffffffffffffffffffffffffffffffffffffff\n      and\n      0xffffffffffffffffffffffffffffffffffffffff\n      and\n      dup2\n      mstore\n      0x20\n      add\n      swap1\n      dup2\n      mstore\n      0x20\n      add\n      0x00\n      keccak256\n        /* \"contracts/contractsCopy/khaledulsaleh_staking.sol\":7528:7573  DUSDinvestor[msg.sender].totalWithdraw_reward */\n      0x07\n      add\n      0x00\n        /* \"contracts/contractsCopy/khaledulsaleh_staking.sol\":7528:7587  DUSDinvestor[msg.sender].totalWithdraw_reward+=Total_reward */\n      dup3\n      dup3\n      sload\n      tag_280\n      swap2\n      swap1\n      tag_154\n      jump\t// in\n    tag_280:\n      swap3\n      pop\n      pop\n      dup2\n      swap1\n      sstore\n      pop\n        /* \"contracts/contractsCopy/khaledulsaleh_staking.sol\":7609:7613  true */\n      0x01\n        /* \"contracts/contractsCopy/khaledulsaleh_staking.sol\":7602:7613  return true */\n      swap2\n      pop\n      pop\n        /* \"contracts/contractsCopy/khaledulsaleh_staking.sol\":7128:7625  function withdrawReward() external returns (bool success){... */\n      swap1\n      jump\t// out\n        /* \"contracts/contractsCopy/khaledulsaleh_staking.sol\":2091:2133  mapping(address=>Data) public DUSDinvestor */\n    tag_121:\n      mstore(0x20, 0x0d)\n      dup1\n      0x00\n      mstore\n      keccak256(0x00, 0x40)\n      0x00\n      swap2\n      pop\n      swap1\n      pop\n      dup1\n      0x02\n      add\n      0x00\n      swap1\n      sload\n      swap1\n      0x0100\n      exp\n      swap1\n      div\n      0xffffffffffffffffffffffffffffffffffffffff\n      and\n      swap1\n      dup1\n      0x04\n      add\n      sload\n      swap1\n      dup1\n      0x05\n      add\n      sload\n      swap1\n      dup1\n      0x06\n      add\n      sload\n      swap1\n      dup1\n      0x07\n      add\n      sload\n      swap1\n      dup1\n      0x08\n      add\n      0x00\n      swap1\n      sload\n      swap1\n      0x0100\n      exp\n      swap1\n      div\n      0xff\n      and\n      swap1\n      dup1\n      0x09\n      add\n      sload\n      swap1\n      pop\n      dup8\n      jump\t// out\n        /* \"contracts/contractsCopy/khaledulsaleh_staking.sol\":1025:1050  uint public totalbusiness */\n    tag_125:\n      sload(0x0a)\n      dup2\n      jump\t// out\n        /* \"contracts/contractsCopy/khaledulsaleh_staking.sol\":11395:11569  function transferOwnership(address _owner)  public... */\n    tag_129:\n        /* \"contracts/contractsCopy/khaledulsaleh_staking.sol\":11488:11493  owner */\n      0x00\n      dup1\n      sload\n      swap1\n      0x0100\n      exp\n      swap1\n      div\n      0xffffffffffffffffffffffffffffffffffffffff\n      and\n        /* \"contracts/contractsCopy/khaledulsaleh_staking.sol\":11476:11493  msg.sender==owner */\n      0xffffffffffffffffffffffffffffffffffffffff\n      and\n        /* \"contracts/contractsCopy/khaledulsaleh_staking.sol\":11476:11486  msg.sender */\n      caller\n        /* \"contracts/contractsCopy/khaledulsaleh_staking.sol\":11476:11493  msg.sender==owner */\n      0xffffffffffffffffffffffffffffffffffffffff\n      and\n      eq\n        /* \"contracts/contractsCopy/khaledulsaleh_staking.sol\":11468:11530  require(msg.sender==owner,\"only Owner can call this function\") */\n      tag_282\n      jumpi\n      mload(0x40)\n      0x08c379a000000000000000000000000000000000000000000000000000000000\n      dup2\n      mstore\n      0x04\n      add\n      tag_283\n      swap1\n      tag_284\n      jump\t// in\n    tag_283:\n      mload(0x40)\n      dup1\n      swap2\n      sub\n      swap1\n      revert\n    tag_282:\n        /* \"contracts/contractsCopy/khaledulsaleh_staking.sol\":11552:11558  _owner */\n      dup1\n        /* \"contracts/contractsCopy/khaledulsaleh_staking.sol\":11544:11549  owner */\n      0x00\n      dup1\n        /* \"contracts/contractsCopy/khaledulsaleh_staking.sol\":11544:11558  owner = _owner */\n      0x0100\n      exp\n      dup2\n      sload\n      dup2\n      0xffffffffffffffffffffffffffffffffffffffff\n      mul\n      not\n      and\n      swap1\n      dup4\n      0xffffffffffffffffffffffffffffffffffffffff\n      and\n      mul\n      or\n      swap1\n      sstore\n      pop\n        /* \"contracts/contractsCopy/khaledulsaleh_staking.sol\":11395:11569  function transferOwnership(address _owner)  public... */\n      pop\n      jump\t// out\n        /* \"contracts/contractsCopy/khaledulsaleh_staking.sol\":12153:12714  function referralLevel_count() public view returns( uint[] memory arr )... */\n    tag_131:\n        /* \"contracts/contractsCopy/khaledulsaleh_staking.sol\":12205:12222  uint[] memory arr */\n      0x60\n        /* \"contracts/contractsCopy/khaledulsaleh_staking.sol\":12247:12282  uint[] memory referralLevels_reward */\n      0x00\n        /* \"contracts/contractsCopy/khaledulsaleh_staking.sol\":12294:12296  20 */\n      0x14\n        /* \"contracts/contractsCopy/khaledulsaleh_staking.sol\":12283:12297  new uint[](20) */\n      0xffffffffffffffff\n      dup2\n      gt\n      iszero\n      tag_286\n      jumpi\n      tag_287\n      tag_178\n      jump\t// in\n    tag_287:\n    tag_286:\n      mload(0x40)\n      swap1\n      dup1\n      dup3\n      mstore\n      dup1\n      0x20\n      mul\n      0x20\n      add\n      dup3\n      add\n      0x40\n      mstore\n      dup1\n      iszero\n      tag_288\n      jumpi\n      dup2\n      0x20\n      add\n      0x20\n      dup3\n      mul\n      dup1\n      calldatasize\n      dup4\n      calldatacopy\n      dup1\n      dup3\n      add\n      swap2\n      pop\n      pop\n      swap1\n      pop\n    tag_288:\n      pop\n        /* \"contracts/contractsCopy/khaledulsaleh_staking.sol\":12247:12297  uint[] memory referralLevels_reward=new uint[](20) */\n      swap1\n      pop\n        /* \"contracts/contractsCopy/khaledulsaleh_staking.sol\":12315:12321  uint i */\n      0x00\n        /* \"contracts/contractsCopy/khaledulsaleh_staking.sol\":12311:12659  for(uint i=0;i<20;i++)... */\n    tag_289:\n        /* \"contracts/contractsCopy/khaledulsaleh_staking.sol\":12326:12328  20 */\n      0x14\n        /* \"contracts/contractsCopy/khaledulsaleh_staking.sol\":12324:12325  i */\n      dup2\n        /* \"contracts/contractsCopy/khaledulsaleh_staking.sol\":12324:12328  i<20 */\n      lt\n        /* \"contracts/contractsCopy/khaledulsaleh_staking.sol\":12311:12659  for(uint i=0;i<20;i++)... */\n      iszero\n      tag_290\n      jumpi\n        /* \"contracts/contractsCopy/khaledulsaleh_staking.sol\":12416:12417  0 */\n      0x00\n        /* \"contracts/contractsCopy/khaledulsaleh_staking.sol\":12367:12379  DUSDinvestor */\n      0x0d\n        /* \"contracts/contractsCopy/khaledulsaleh_staking.sol\":12367:12391  DUSDinvestor[msg.sender] */\n      0x00\n        /* \"contracts/contractsCopy/khaledulsaleh_staking.sol\":12380:12390  msg.sender */\n      caller\n        /* \"contracts/contractsCopy/khaledulsaleh_staking.sol\":12367:12391  DUSDinvestor[msg.sender] */\n      0xffffffffffffffffffffffffffffffffffffffff\n      and\n      0xffffffffffffffffffffffffffffffffffffffff\n      and\n      dup2\n      mstore\n      0x20\n      add\n      swap1\n      dup2\n      mstore\n      0x20\n      add\n      0x00\n      keccak256\n        /* \"contracts/contractsCopy/khaledulsaleh_staking.sol\":12367:12405  DUSDinvestor[msg.sender].referralLevel */\n      0x03\n      add\n        /* \"contracts/contractsCopy/khaledulsaleh_staking.sol\":12367:12408  DUSDinvestor[msg.sender].referralLevel[i] */\n      0x00\n        /* \"contracts/contractsCopy/khaledulsaleh_staking.sol\":12406:12407  i */\n      dup4\n        /* \"contracts/contractsCopy/khaledulsaleh_staking.sol\":12367:12408  DUSDinvestor[msg.sender].referralLevel[i] */\n      dup2\n      mstore\n      0x20\n      add\n      swap1\n      dup2\n      mstore\n      0x20\n      add\n      0x00\n      keccak256\n        /* \"contracts/contractsCopy/khaledulsaleh_staking.sol\":12367:12415  DUSDinvestor[msg.sender].referralLevel[i].reward */\n      0x00\n      add\n      sload\n        /* \"contracts/contractsCopy/khaledulsaleh_staking.sol\":12367:12417  DUSDinvestor[msg.sender].referralLevel[i].reward>0 */\n      gt\n        /* \"contracts/contractsCopy/khaledulsaleh_staking.sol\":12364:12643  if(DUSDinvestor[msg.sender].referralLevel[i].reward>0)... */\n      iszero\n      tag_292\n      jumpi\n        /* \"contracts/contractsCopy/khaledulsaleh_staking.sol\":12484:12496  DUSDinvestor */\n      0x0d\n        /* \"contracts/contractsCopy/khaledulsaleh_staking.sol\":12484:12508  DUSDinvestor[msg.sender] */\n      0x00\n        /* \"contracts/contractsCopy/khaledulsaleh_staking.sol\":12497:12507  msg.sender */\n      caller\n        /* \"contracts/contractsCopy/khaledulsaleh_staking.sol\":12484:12508  DUSDinvestor[msg.sender] */\n      0xffffffffffffffffffffffffffffffffffffffff\n      and\n      0xffffffffffffffffffffffffffffffffffffffff\n      and\n      dup2\n      mstore\n      0x20\n      add\n      swap1\n      dup2\n      mstore\n      0x20\n      add\n      0x00\n      keccak256\n        /* \"contracts/contractsCopy/khaledulsaleh_staking.sol\":12484:12522  DUSDinvestor[msg.sender].referralLevel */\n      0x03\n      add\n        /* \"contracts/contractsCopy/khaledulsaleh_staking.sol\":12484:12525  DUSDinvestor[msg.sender].referralLevel[i] */\n      0x00\n        /* \"contracts/contractsCopy/khaledulsaleh_staking.sol\":12523:12524  i */\n      dup3\n        /* \"contracts/contractsCopy/khaledulsaleh_staking.sol\":12484:12525  DUSDinvestor[msg.sender].referralLevel[i] */\n      dup2\n      mstore\n      0x20\n      add\n      swap1\n      dup2\n      mstore\n      0x20\n      add\n      0x00\n      keccak256\n        /* \"contracts/contractsCopy/khaledulsaleh_staking.sol\":12484:12531  DUSDinvestor[msg.sender].referralLevel[i].count */\n      0x01\n      add\n      sload\n        /* \"contracts/contractsCopy/khaledulsaleh_staking.sol\":12457:12478  referralLevels_reward */\n      dup3\n        /* \"contracts/contractsCopy/khaledulsaleh_staking.sol\":12479:12480  i */\n      dup3\n        /* \"contracts/contractsCopy/khaledulsaleh_staking.sol\":12457:12481  referralLevels_reward[i] */\n      dup2\n      mload\n      dup2\n      lt\n      tag_293\n      jumpi\n      tag_294\n      tag_189\n      jump\t// in\n    tag_294:\n    tag_293:\n      0x20\n      mul\n      0x20\n      add\n      add\n        /* \"contracts/contractsCopy/khaledulsaleh_staking.sol\":12457:12531  referralLevels_reward[i] = DUSDinvestor[msg.sender].referralLevel[i].count */\n      dup2\n      dup2\n      mstore\n      pop\n      pop\n        /* \"contracts/contractsCopy/khaledulsaleh_staking.sol\":12364:12643  if(DUSDinvestor[msg.sender].referralLevel[i].reward>0)... */\n      jump(tag_295)\n    tag_292:\n        /* \"contracts/contractsCopy/khaledulsaleh_staking.sol\":12622:12623  0 */\n      0x00\n        /* \"contracts/contractsCopy/khaledulsaleh_staking.sol\":12595:12616  referralLevels_reward */\n      dup3\n        /* \"contracts/contractsCopy/khaledulsaleh_staking.sol\":12617:12618  i */\n      dup3\n        /* \"contracts/contractsCopy/khaledulsaleh_staking.sol\":12595:12619  referralLevels_reward[i] */\n      dup2\n      mload\n      dup2\n      lt\n      tag_296\n      jumpi\n      tag_297\n      tag_189\n      jump\t// in\n    tag_297:\n    tag_296:\n      0x20\n      mul\n      0x20\n      add\n      add\n        /* \"contracts/contractsCopy/khaledulsaleh_staking.sol\":12595:12623  referralLevels_reward[i] = 0 */\n      dup2\n      dup2\n      mstore\n      pop\n      pop\n        /* \"contracts/contractsCopy/khaledulsaleh_staking.sol\":12364:12643  if(DUSDinvestor[msg.sender].referralLevel[i].reward>0)... */\n    tag_295:\n        /* \"contracts/contractsCopy/khaledulsaleh_staking.sol\":12329:12332  i++ */\n      dup1\n      dup1\n      tag_298\n      swap1\n      tag_150\n      jump\t// in\n    tag_298:\n      swap2\n      pop\n      pop\n        /* \"contracts/contractsCopy/khaledulsaleh_staking.sol\":12311:12659  for(uint i=0;i<20;i++)... */\n      jump(tag_289)\n    tag_290:\n      pop\n        /* \"contracts/contractsCopy/khaledulsaleh_staking.sol\":12679:12700  referralLevels_reward */\n      dup1\n        /* \"contracts/contractsCopy/khaledulsaleh_staking.sol\":12672:12700  return referralLevels_reward */\n      swap2\n      pop\n      pop\n        /* \"contracts/contractsCopy/khaledulsaleh_staking.sol\":12153:12714  function referralLevel_count() public view returns( uint[] memory arr )... */\n      swap1\n      jump\t// out\n        /* \"contracts/contractsCopy/khaledulsaleh_staking.sol\":702:745  uint public rewardToken=5000000000000000000 */\n    tag_134:\n      sload(0x05)\n      dup2\n      jump\t// out\n        /* \"contracts/contractsCopy/khaledulsaleh_staking.sol\":836:872  uint public max_Stake_amount=5000000 */\n    tag_137:\n      sload(0x07)\n      dup2\n      jump\t// out\n        /* \"contracts/contractsCopy/khaledulsaleh_staking.sol\":10257:10471  function DUSDTotalReferrals_inside(address investor) internal view returns(uint){ // this function is to get the total number of referrals ... */\n    tag_222:\n        /* \"contracts/contractsCopy/khaledulsaleh_staking.sol\":10332:10336  uint */\n      0x00\n        /* \"contracts/contractsCopy/khaledulsaleh_staking.sol\":10417:10429  DUSDinvestor */\n      0x0d\n        /* \"contracts/contractsCopy/khaledulsaleh_staking.sol\":10417:10439  DUSDinvestor[investor] */\n      0x00\n        /* \"contracts/contractsCopy/khaledulsaleh_staking.sol\":10430:10438  investor */\n      dup4\n        /* \"contracts/contractsCopy/khaledulsaleh_staking.sol\":10417:10439  DUSDinvestor[investor] */\n      0xffffffffffffffffffffffffffffffffffffffff\n      and\n      0xffffffffffffffffffffffffffffffffffffffff\n      and\n      dup2\n      mstore\n      0x20\n      add\n      swap1\n      dup2\n      mstore\n      0x20\n      add\n      0x00\n      keccak256\n        /* \"contracts/contractsCopy/khaledulsaleh_staking.sol\":10417:10452  DUSDinvestor[investor].hisReferrals */\n      0x01\n      add\n        /* \"contracts/contractsCopy/khaledulsaleh_staking.sol\":10416:10460  (DUSDinvestor[investor].hisReferrals).length */\n      dup1\n      sload\n      swap1\n      pop\n        /* \"contracts/contractsCopy/khaledulsaleh_staking.sol\":10409:10460  return (DUSDinvestor[investor].hisReferrals).length */\n      swap1\n      pop\n        /* \"contracts/contractsCopy/khaledulsaleh_staking.sol\":10257:10471  function DUSDTotalReferrals_inside(address investor) internal view returns(uint){ // this function is to get the total number of referrals ... */\n      swap2\n      swap1\n      pop\n      jump\t// out\n    tag_182:\n      mload(0x40)\n      dup1\n      0xc0\n      add\n      0x40\n      mstore\n      dup1\n      0x00\n      dup2\n      mstore\n      0x20\n      add\n      0x00\n      dup2\n      mstore\n      0x20\n      add\n      0x00\n      dup2\n      mstore\n      0x20\n      add\n      0x00\n      dup2\n      mstore\n      0x20\n      add\n      0x00\n      dup2\n      mstore\n      0x20\n      add\n      iszero(iszero(0x00))\n      dup2\n      mstore\n      pop\n      swap1\n      jump\t// out\n    tag_206:\n      mload(0x40)\n      dup1\n      0xc0\n      add\n      0x40\n      mstore\n      dup1\n      and(0xffffffffffffffffffffffffffffffffffffffff, 0x00)\n      dup2\n      mstore\n      0x20\n      add\n      0x00\n      dup2\n      mstore\n      0x20\n      add\n      0x00\n      dup2\n      mstore\n      0x20\n      add\n      0x00\n      dup2\n      mstore\n      0x20\n      add\n      0x00\n      dup2\n      mstore\n      0x20\n      add\n      0x00\n      dup2\n      mstore\n      pop\n      swap1\n      jump\t// out\n        /* \"#utility.yul\":7:146   */\n    tag_301:\n        /* \"#utility.yul\":53:58   */\n      0x00\n        /* \"#utility.yul\":91:97   */\n      dup2\n        /* \"#utility.yul\":78:98   */\n      calldataload\n        /* \"#utility.yul\":69:98   */\n      swap1\n      pop\n        /* \"#utility.yul\":107:140   */\n      tag_303\n        /* \"#utility.yul\":134:139   */\n      dup2\n        /* \"#utility.yul\":107:140   */\n      tag_304\n      jump\t// in\n    tag_303:\n        /* \"#utility.yul\":7:146   */\n      swap3\n      swap2\n      pop\n      pop\n      jump\t// out\n        /* \"#utility.yul\":152:289   */\n    tag_305:\n        /* \"#utility.yul\":206:211   */\n      0x00\n        /* \"#utility.yul\":237:243   */\n      dup2\n        /* \"#utility.yul\":231:244   */\n      mload\n        /* \"#utility.yul\":222:244   */\n      swap1\n      pop\n        /* \"#utility.yul\":253:283   */\n      tag_307\n        /* \"#utility.yul\":277:282   */\n      dup2\n        /* \"#utility.yul\":253:283   */\n      tag_308\n      jump\t// in\n    tag_307:\n        /* \"#utility.yul\":152:289   */\n      swap3\n      swap2\n      pop\n      pop\n      jump\t// out\n        /* \"#utility.yul\":295:434   */\n    tag_309:\n        /* \"#utility.yul\":341:346   */\n      0x00\n        /* \"#utility.yul\":379:385   */\n      dup2\n        /* \"#utility.yul\":366:386   */\n      calldataload\n        /* \"#utility.yul\":357:386   */\n      swap1\n      pop\n        /* \"#utility.yul\":395:428   */\n      tag_311\n        /* \"#utility.yul\":422:427   */\n      dup2\n        /* \"#utility.yul\":395:428   */\n      tag_312\n      jump\t// in\n    tag_311:\n        /* \"#utility.yul\":295:434   */\n      swap3\n      swap2\n      pop\n      pop\n      jump\t// out\n        /* \"#utility.yul\":440:769   */\n    tag_110:\n        /* \"#utility.yul\":499:505   */\n      0x00\n        /* \"#utility.yul\":548:550   */\n      0x20\n        /* \"#utility.yul\":536:545   */\n      dup3\n        /* \"#utility.yul\":527:534   */\n      dup5\n        /* \"#utility.yul\":523:546   */\n      sub\n        /* \"#utility.yul\":519:551   */\n      slt\n        /* \"#utility.yul\":516:635   */\n      iszero\n      tag_314\n      jumpi\n        /* \"#utility.yul\":554:633   */\n      tag_315\n      tag_316\n      jump\t// in\n    tag_315:\n        /* \"#utility.yul\":516:635   */\n    tag_314:\n        /* \"#utility.yul\":674:675   */\n      0x00\n        /* \"#utility.yul\":699:752   */\n      tag_317\n        /* \"#utility.yul\":744:751   */\n      dup5\n        /* \"#utility.yul\":735:741   */\n      dup3\n        /* \"#utility.yul\":724:733   */\n      dup6\n        /* \"#utility.yul\":720:742   */\n      add\n        /* \"#utility.yul\":699:752   */\n      tag_301\n      jump\t// in\n    tag_317:\n        /* \"#utility.yul\":689:752   */\n      swap2\n      pop\n        /* \"#utility.yul\":645:762   */\n      pop\n        /* \"#utility.yul\":440:769   */\n      swap3\n      swap2\n      pop\n      pop\n      jump\t// out\n        /* \"#utility.yul\":775:1120   */\n    tag_167:\n        /* \"#utility.yul\":842:848   */\n      0x00\n        /* \"#utility.yul\":891:893   */\n      0x20\n        /* \"#utility.yul\":879:888   */\n      dup3\n        /* \"#utility.yul\":870:877   */\n      dup5\n        /* \"#utility.yul\":866:889   */\n      sub\n        /* \"#utility.yul\":862:894   */\n      slt\n        /* \"#utility.yul\":859:978   */\n      iszero\n      tag_319\n      jumpi\n        /* \"#utility.yul\":897:976   */\n      tag_320\n      tag_316\n      jump\t// in\n    tag_320:\n        /* \"#utility.yul\":859:978   */\n    tag_319:\n        /* \"#utility.yul\":1017:1018   */\n      0x00\n        /* \"#utility.yul\":1042:1103   */\n      tag_321\n        /* \"#utility.yul\":1095:1102   */\n      dup5\n        /* \"#utility.yul\":1086:1092   */\n      dup3\n        /* \"#utility.yul\":1075:1084   */\n      dup6\n        /* \"#utility.yul\":1071:1093   */\n      add\n        /* \"#utility.yul\":1042:1103   */\n      tag_305\n      jump\t// in\n    tag_321:\n        /* \"#utility.yul\":1032:1103   */\n      swap2\n      pop\n        /* \"#utility.yul\":988:1113   */\n      pop\n        /* \"#utility.yul\":775:1120   */\n      swap3\n      swap2\n      pop\n      pop\n      jump\t// out\n        /* \"#utility.yul\":1126:1455   */\n    tag_57:\n        /* \"#utility.yul\":1185:1191   */\n      0x00\n        /* \"#utility.yul\":1234:1236   */\n      0x20\n        /* \"#utility.yul\":1222:1231   */\n      dup3\n        /* \"#utility.yul\":1213:1220   */\n      dup5\n        /* \"#utility.yul\":1209:1232   */\n      sub\n        /* \"#utility.yul\":1205:1237   */\n      slt\n        /* \"#utility.yul\":1202:1321   */\n      iszero\n      tag_323\n      jumpi\n        /* \"#utility.yul\":1240:1319   */\n      tag_324\n      tag_316\n      jump\t// in\n    tag_324:\n        /* \"#utility.yul\":1202:1321   */\n    tag_323:\n        /* \"#utility.yul\":1360:1361   */\n      0x00\n        /* \"#utility.yul\":1385:1438   */\n      tag_325\n        /* \"#utility.yul\":1430:1437   */\n      dup5\n        /* \"#utility.yul\":1421:1427   */\n      dup3\n        /* \"#utility.yul\":1410:1419   */\n      dup6\n        /* \"#utility.yul\":1406:1428   */\n      add\n        /* \"#utility.yul\":1385:1438   */\n      tag_309\n      jump\t// in\n    tag_325:\n        /* \"#utility.yul\":1375:1438   */\n      swap2\n      pop\n        /* \"#utility.yul\":1331:1448   */\n      pop\n        /* \"#utility.yul\":1126:1455   */\n      swap3\n      swap2\n      pop\n      pop\n      jump\t// out\n        /* \"#utility.yul\":1461:1935   */\n    tag_51:\n        /* \"#utility.yul\":1529:1535   */\n      0x00\n        /* \"#utility.yul\":1537:1543   */\n      dup1\n        /* \"#utility.yul\":1586:1588   */\n      0x40\n        /* \"#utility.yul\":1574:1583   */\n      dup4\n        /* \"#utility.yul\":1565:1572   */\n      dup6\n        /* \"#utility.yul\":1561:1584   */\n      sub\n        /* \"#utility.yul\":1557:1589   */\n      slt\n        /* \"#utility.yul\":1554:1673   */\n      iszero\n      tag_327\n      jumpi\n        /* \"#utility.yul\":1592:1671   */\n      tag_328\n      tag_316\n      jump\t// in\n    tag_328:\n        /* \"#utility.yul\":1554:1673   */\n    tag_327:\n        /* \"#utility.yul\":1712:1713   */\n      0x00\n        /* \"#utility.yul\":1737:1790   */\n      tag_329\n        /* \"#utility.yul\":1782:1789   */\n      dup6\n        /* \"#utility.yul\":1773:1779   */\n      dup3\n        /* \"#utility.yul\":1762:1771   */\n      dup7\n        /* \"#utility.yul\":1758:1780   */\n      add\n        /* \"#utility.yul\":1737:1790   */\n      tag_309\n      jump\t// in\n    tag_329:\n        /* \"#utility.yul\":1727:1790   */\n      swap3\n      pop\n        /* \"#utility.yul\":1683:1800   */\n      pop\n        /* \"#utility.yul\":1839:1841   */\n      0x20\n        /* \"#utility.yul\":1865:1918   */\n      tag_330\n        /* \"#utility.yul\":1910:1917   */\n      dup6\n        /* \"#utility.yul\":1901:1907   */\n      dup3\n        /* \"#utility.yul\":1890:1899   */\n      dup7\n        /* \"#utility.yul\":1886:1908   */\n      add\n        /* \"#utility.yul\":1865:1918   */\n      tag_301\n      jump\t// in\n    tag_330:\n        /* \"#utility.yul\":1855:1918   */\n      swap2\n      pop\n        /* \"#utility.yul\":1810:1928   */\n      pop\n        /* \"#utility.yul\":1461:1935   */\n      swap3\n      pop\n      swap3\n      swap1\n      pop\n      jump\t// out\n        /* \"#utility.yul\":1941:2415   */\n    tag_102:\n        /* \"#utility.yul\":2009:2015   */\n      0x00\n        /* \"#utility.yul\":2017:2023   */\n      dup1\n        /* \"#utility.yul\":2066:2068   */\n      0x40\n        /* \"#utility.yul\":2054:2063   */\n      dup4\n        /* \"#utility.yul\":2045:2052   */\n      dup6\n        /* \"#utility.yul\":2041:2064   */\n      sub\n        /* \"#utility.yul\":2037:2069   */\n      slt\n        /* \"#utility.yul\":2034:2153   */\n      iszero\n      tag_332\n      jumpi\n        /* \"#utility.yul\":2072:2151   */\n      tag_333\n      tag_316\n      jump\t// in\n    tag_333:\n        /* \"#utility.yul\":2034:2153   */\n    tag_332:\n        /* \"#utility.yul\":2192:2193   */\n      0x00\n        /* \"#utility.yul\":2217:2270   */\n      tag_334\n        /* \"#utility.yul\":2262:2269   */\n      dup6\n        /* \"#utility.yul\":2253:2259   */\n      dup3\n        /* \"#utility.yul\":2242:2251   */\n      dup7\n        /* \"#utility.yul\":2238:2260   */\n      add\n        /* \"#utility.yul\":2217:2270   */\n      tag_309\n      jump\t// in\n    tag_334:\n        /* \"#utility.yul\":2207:2270   */\n      swap3\n      pop\n        /* \"#utility.yul\":2163:2280   */\n      pop\n        /* \"#utility.yul\":2319:2321   */\n      0x20\n        /* \"#utility.yul\":2345:2398   */\n      tag_335\n        /* \"#utility.yul\":2390:2397   */\n      dup6\n        /* \"#utility.yul\":2381:2387   */\n      dup3\n        /* \"#utility.yul\":2370:2379   */\n      dup7\n        /* \"#utility.yul\":2366:2388   */\n      add\n        /* \"#utility.yul\":2345:2398   */\n      tag_309\n      jump\t// in\n    tag_335:\n        /* \"#utility.yul\":2335:2398   */\n      swap2\n      pop\n        /* \"#utility.yul\":2290:2408   */\n      pop\n        /* \"#utility.yul\":1941:2415   */\n      swap3\n      pop\n      swap3\n      swap1\n      pop\n      jump\t// out\n        /* \"#utility.yul\":2421:3186   */\n    tag_72:\n        /* \"#utility.yul\":2507:2513   */\n      0x00\n        /* \"#utility.yul\":2515:2521   */\n      dup1\n        /* \"#utility.yul\":2523:2529   */\n      0x00\n        /* \"#utility.yul\":2531:2537   */\n      dup1\n        /* \"#utility.yul\":2580:2583   */\n      0x80\n        /* \"#utility.yul\":2568:2577   */\n      dup6\n        /* \"#utility.yul\":2559:2566   */\n      dup8\n        /* \"#utility.yul\":2555:2578   */\n      sub\n        /* \"#utility.yul\":2551:2584   */\n      slt\n        /* \"#utility.yul\":2548:2668   */\n      iszero\n      tag_337\n      jumpi\n        /* \"#utility.yul\":2587:2666   */\n      tag_338\n      tag_316\n      jump\t// in\n    tag_338:\n        /* \"#utility.yul\":2548:2668   */\n    tag_337:\n        /* \"#utility.yul\":2707:2708   */\n      0x00\n        /* \"#utility.yul\":2732:2785   */\n      tag_339\n        /* \"#utility.yul\":2777:2784   */\n      dup8\n        /* \"#utility.yul\":2768:2774   */\n      dup3\n        /* \"#utility.yul\":2757:2766   */\n      dup9\n        /* \"#utility.yul\":2753:2775   */\n      add\n        /* \"#utility.yul\":2732:2785   */\n      tag_309\n      jump\t// in\n    tag_339:\n        /* \"#utility.yul\":2722:2785   */\n      swap5\n      pop\n        /* \"#utility.yul\":2678:2795   */\n      pop\n        /* \"#utility.yul\":2834:2836   */\n      0x20\n        /* \"#utility.yul\":2860:2913   */\n      tag_340\n        /* \"#utility.yul\":2905:2912   */\n      dup8\n        /* \"#utility.yul\":2896:2902   */\n      dup3\n        /* \"#utility.yul\":2885:2894   */\n      dup9\n        /* \"#utility.yul\":2881:2903   */\n      add\n        /* \"#utility.yul\":2860:2913   */\n      tag_309\n      jump\t// in\n    tag_340:\n        /* \"#utility.yul\":2850:2913   */\n      swap4\n      pop\n        /* \"#utility.yul\":2805:2923   */\n      pop\n        /* \"#utility.yul\":2962:2964   */\n      0x40\n        /* \"#utility.yul\":2988:3041   */\n      tag_341\n        /* \"#utility.yul\":3033:3040   */\n      dup8\n        /* \"#utility.yul\":3024:3030   */\n      dup3\n        /* \"#utility.yul\":3013:3022   */\n      dup9\n        /* \"#utility.yul\":3009:3031   */\n      add\n        /* \"#utility.yul\":2988:3041   */\n      tag_309\n      jump\t// in\n    tag_341:\n        /* \"#utility.yul\":2978:3041   */\n      swap3\n      pop\n        /* \"#utility.yul\":2933:3051   */\n      pop\n        /* \"#utility.yul\":3090:3092   */\n      0x60\n        /* \"#utility.yul\":3116:3169   */\n      tag_342\n        /* \"#utility.yul\":3161:3168   */\n      dup8\n        /* \"#utility.yul\":3152:3158   */\n      dup3\n        /* \"#utility.yul\":3141:3150   */\n      dup9\n        /* \"#utility.yul\":3137:3159   */\n      add\n        /* \"#utility.yul\":3116:3169   */\n      tag_309\n      jump\t// in\n    tag_342:\n        /* \"#utility.yul\":3106:3169   */\n      swap2\n      pop\n        /* \"#utility.yul\":3061:3179   */\n      pop\n        /* \"#utility.yul\":2421:3186   */\n      swap3\n      swap6\n      swap2\n      swap5\n      pop\n      swap3\n      pop\n      jump\t// out\n        /* \"#utility.yul\":3192:3371   */\n    tag_343:\n        /* \"#utility.yul\":3261:3271   */\n      0x00\n        /* \"#utility.yul\":3282:3328   */\n      tag_345\n        /* \"#utility.yul\":3324:3327   */\n      dup4\n        /* \"#utility.yul\":3316:3322   */\n      dup4\n        /* \"#utility.yul\":3282:3328   */\n      tag_346\n      jump\t// in\n    tag_345:\n        /* \"#utility.yul\":3360:3364   */\n      0x20\n        /* \"#utility.yul\":3355:3358   */\n      dup4\n        /* \"#utility.yul\":3351:3365   */\n      add\n        /* \"#utility.yul\":3337:3365   */\n      swap1\n      pop\n        /* \"#utility.yul\":3192:3371   */\n      swap3\n      swap2\n      pop\n      pop\n      jump\t// out\n        /* \"#utility.yul\":3377:3660   */\n    tag_347:\n        /* \"#utility.yul\":3498:3508   */\n      0x00\n        /* \"#utility.yul\":3519:3617   */\n      tag_349\n        /* \"#utility.yul\":3613:3616   */\n      dup4\n        /* \"#utility.yul\":3605:3611   */\n      dup4\n        /* \"#utility.yul\":3519:3617   */\n      tag_350\n      jump\t// in\n    tag_349:\n        /* \"#utility.yul\":3649:3653   */\n      0xc0\n        /* \"#utility.yul\":3644:3647   */\n      dup4\n        /* \"#utility.yul\":3640:3654   */\n      add\n        /* \"#utility.yul\":3626:3654   */\n      swap1\n      pop\n        /* \"#utility.yul\":3377:3660   */\n      swap3\n      swap2\n      pop\n      pop\n      jump\t// out\n        /* \"#utility.yul\":3666:3965   */\n    tag_351:\n        /* \"#utility.yul\":3795:3805   */\n      0x00\n        /* \"#utility.yul\":3816:3922   */\n      tag_353\n        /* \"#utility.yul\":3918:3921   */\n      dup4\n        /* \"#utility.yul\":3910:3916   */\n      dup4\n        /* \"#utility.yul\":3816:3922   */\n      tag_354\n      jump\t// in\n    tag_353:\n        /* \"#utility.yul\":3954:3958   */\n      0xc0\n        /* \"#utility.yul\":3949:3952   */\n      dup4\n        /* \"#utility.yul\":3945:3959   */\n      add\n        /* \"#utility.yul\":3931:3959   */\n      swap1\n      pop\n        /* \"#utility.yul\":3666:3965   */\n      swap3\n      swap2\n      pop\n      pop\n      jump\t// out\n        /* \"#utility.yul\":3971:4150   */\n    tag_355:\n        /* \"#utility.yul\":4040:4050   */\n      0x00\n        /* \"#utility.yul\":4061:4107   */\n      tag_357\n        /* \"#utility.yul\":4103:4106   */\n      dup4\n        /* \"#utility.yul\":4095:4101   */\n      dup4\n        /* \"#utility.yul\":4061:4107   */\n      tag_358\n      jump\t// in\n    tag_357:\n        /* \"#utility.yul\":4139:4143   */\n      0x20\n        /* \"#utility.yul\":4134:4137   */\n      dup4\n        /* \"#utility.yul\":4130:4144   */\n      add\n        /* \"#utility.yul\":4116:4144   */\n      swap1\n      pop\n        /* \"#utility.yul\":3971:4150   */\n      swap3\n      swap2\n      pop\n      pop\n      jump\t// out\n        /* \"#utility.yul\":4156:4264   */\n    tag_346:\n        /* \"#utility.yul\":4233:4257   */\n      tag_360\n        /* \"#utility.yul\":4251:4256   */\n      dup2\n        /* \"#utility.yul\":4233:4257   */\n      tag_361\n      jump\t// in\n    tag_360:\n        /* \"#utility.yul\":4228:4231   */\n      dup3\n        /* \"#utility.yul\":4221:4258   */\n      mstore\n        /* \"#utility.yul\":4156:4264   */\n      pop\n      pop\n      jump\t// out\n        /* \"#utility.yul\":4270:4388   */\n    tag_362:\n        /* \"#utility.yul\":4357:4381   */\n      tag_364\n        /* \"#utility.yul\":4375:4380   */\n      dup2\n        /* \"#utility.yul\":4357:4381   */\n      tag_361\n      jump\t// in\n    tag_364:\n        /* \"#utility.yul\":4352:4355   */\n      dup3\n        /* \"#utility.yul\":4345:4382   */\n      mstore\n        /* \"#utility.yul\":4270:4388   */\n      pop\n      pop\n      jump\t// out\n        /* \"#utility.yul\":4424:5156   */\n    tag_365:\n        /* \"#utility.yul\":4543:4546   */\n      0x00\n        /* \"#utility.yul\":4572:4626   */\n      tag_367\n        /* \"#utility.yul\":4620:4625   */\n      dup3\n        /* \"#utility.yul\":4572:4626   */\n      tag_368\n      jump\t// in\n    tag_367:\n        /* \"#utility.yul\":4642:4728   */\n      tag_369\n        /* \"#utility.yul\":4721:4727   */\n      dup2\n        /* \"#utility.yul\":4716:4719   */\n      dup6\n        /* \"#utility.yul\":4642:4728   */\n      tag_370\n      jump\t// in\n    tag_369:\n        /* \"#utility.yul\":4635:4728   */\n      swap4\n      pop\n        /* \"#utility.yul\":4752:4808   */\n      tag_371\n        /* \"#utility.yul\":4802:4807   */\n      dup4\n        /* \"#utility.yul\":4752:4808   */\n      tag_372\n      jump\t// in\n    tag_371:\n        /* \"#utility.yul\":4831:4838   */\n      dup1\n        /* \"#utility.yul\":4862:4863   */\n      0x00\n        /* \"#utility.yul\":4847:5131   */\n    tag_373:\n        /* \"#utility.yul\":4872:4878   */\n      dup4\n        /* \"#utility.yul\":4869:4870   */\n      dup2\n        /* \"#utility.yul\":4866:4879   */\n      lt\n        /* \"#utility.yul\":4847:5131   */\n      iszero\n      tag_375\n      jumpi\n        /* \"#utility.yul\":4948:4954   */\n      dup2\n        /* \"#utility.yul\":4942:4955   */\n      mload\n        /* \"#utility.yul\":4975:5038   */\n      tag_376\n        /* \"#utility.yul\":5034:5037   */\n      dup9\n        /* \"#utility.yul\":5019:5032   */\n      dup3\n        /* \"#utility.yul\":4975:5038   */\n      tag_343\n      jump\t// in\n    tag_376:\n        /* \"#utility.yul\":4968:5038   */\n      swap8\n      pop\n        /* \"#utility.yul\":5061:5121   */\n      tag_377\n        /* \"#utility.yul\":5114:5120   */\n      dup4\n        /* \"#utility.yul\":5061:5121   */\n      tag_378\n      jump\t// in\n    tag_377:\n        /* \"#utility.yul\":5051:5121   */\n      swap3\n      pop\n        /* \"#utility.yul\":4907:5131   */\n      pop\n        /* \"#utility.yul\":4894:4895   */\n      0x01\n        /* \"#utility.yul\":4891:4892   */\n      dup2\n        /* \"#utility.yul\":4887:4896   */\n      add\n        /* \"#utility.yul\":4882:4896   */\n      swap1\n      pop\n        /* \"#utility.yul\":4847:5131   */\n      jump(tag_373)\n    tag_375:\n        /* \"#utility.yul\":4851:4865   */\n      pop\n        /* \"#utility.yul\":5147:5150   */\n      dup6\n        /* \"#utility.yul\":5140:5150   */\n      swap4\n      pop\n        /* \"#utility.yul\":4548:5156   */\n      pop\n      pop\n      pop\n        /* \"#utility.yul\":4424:5156   */\n      swap3\n      swap2\n      pop\n      pop\n      jump\t// out\n        /* \"#utility.yul\":5226:6166   */\n    tag_379:\n        /* \"#utility.yul\":5397:5400   */\n      0x00\n        /* \"#utility.yul\":5426:5506   */\n      tag_381\n        /* \"#utility.yul\":5500:5505   */\n      dup3\n        /* \"#utility.yul\":5426:5506   */\n      tag_382\n      jump\t// in\n    tag_381:\n        /* \"#utility.yul\":5522:5634   */\n      tag_383\n        /* \"#utility.yul\":5627:5633   */\n      dup2\n        /* \"#utility.yul\":5622:5625   */\n      dup6\n        /* \"#utility.yul\":5522:5634   */\n      tag_384\n      jump\t// in\n    tag_383:\n        /* \"#utility.yul\":5515:5634   */\n      swap4\n      pop\n        /* \"#utility.yul\":5658:5740   */\n      tag_385\n        /* \"#utility.yul\":5734:5739   */\n      dup4\n        /* \"#utility.yul\":5658:5740   */\n      tag_386\n      jump\t// in\n    tag_385:\n        /* \"#utility.yul\":5763:5770   */\n      dup1\n        /* \"#utility.yul\":5794:5795   */\n      0x00\n        /* \"#utility.yul\":5779:6141   */\n    tag_387:\n        /* \"#utility.yul\":5804:5810   */\n      dup4\n        /* \"#utility.yul\":5801:5802   */\n      dup2\n        /* \"#utility.yul\":5798:5811   */\n      lt\n        /* \"#utility.yul\":5779:6141   */\n      iszero\n      tag_389\n      jumpi\n        /* \"#utility.yul\":5880:5886   */\n      dup2\n        /* \"#utility.yul\":5874:5887   */\n      mload\n        /* \"#utility.yul\":5907:6022   */\n      tag_390\n        /* \"#utility.yul\":6018:6021   */\n      dup9\n        /* \"#utility.yul\":6003:6016   */\n      dup3\n        /* \"#utility.yul\":5907:6022   */\n      tag_347\n      jump\t// in\n    tag_390:\n        /* \"#utility.yul\":5900:6022   */\n      swap8\n      pop\n        /* \"#utility.yul\":6045:6131   */\n      tag_391\n        /* \"#utility.yul\":6124:6130   */\n      dup4\n        /* \"#utility.yul\":6045:6131   */\n      tag_392\n      jump\t// in\n    tag_391:\n        /* \"#utility.yul\":6035:6131   */\n      swap3\n      pop\n        /* \"#utility.yul\":5839:6141   */\n      pop\n        /* \"#utility.yul\":5826:5827   */\n      0x01\n        /* \"#utility.yul\":5823:5824   */\n      dup2\n        /* \"#utility.yul\":5819:5828   */\n      add\n        /* \"#utility.yul\":5814:5828   */\n      swap1\n      pop\n        /* \"#utility.yul\":5779:6141   */\n      jump(tag_387)\n    tag_389:\n        /* \"#utility.yul\":5783:5797   */\n      pop\n        /* \"#utility.yul\":6157:6160   */\n      dup6\n        /* \"#utility.yul\":6150:6160   */\n      swap4\n      pop\n        /* \"#utility.yul\":5402:6166   */\n      pop\n      pop\n      pop\n        /* \"#utility.yul\":5226:6166   */\n      swap3\n      swap2\n      pop\n      pop\n      jump\t// out\n        /* \"#utility.yul\":6244:7216   */\n    tag_393:\n        /* \"#utility.yul\":6423:6426   */\n      0x00\n        /* \"#utility.yul\":6452:6536   */\n      tag_395\n        /* \"#utility.yul\":6530:6535   */\n      dup3\n        /* \"#utility.yul\":6452:6536   */\n      tag_396\n      jump\t// in\n    tag_395:\n        /* \"#utility.yul\":6552:6668   */\n      tag_397\n        /* \"#utility.yul\":6661:6667   */\n      dup2\n        /* \"#utility.yul\":6656:6659   */\n      dup6\n        /* \"#utility.yul\":6552:6668   */\n      tag_398\n      jump\t// in\n    tag_397:\n        /* \"#utility.yul\":6545:6668   */\n      swap4\n      pop\n        /* \"#utility.yul\":6692:6778   */\n      tag_399\n        /* \"#utility.yul\":6772:6777   */\n      dup4\n        /* \"#utility.yul\":6692:6778   */\n      tag_400\n      jump\t// in\n    tag_399:\n        /* \"#utility.yul\":6801:6808   */\n      dup1\n        /* \"#utility.yul\":6832:6833   */\n      0x00\n        /* \"#utility.yul\":6817:7191   */\n    tag_401:\n        /* \"#utility.yul\":6842:6848   */\n      dup4\n        /* \"#utility.yul\":6839:6840   */\n      dup2\n        /* \"#utility.yul\":6836:6849   */\n      lt\n        /* \"#utility.yul\":6817:7191   */\n      iszero\n      tag_403\n      jumpi\n        /* \"#utility.yul\":6918:6924   */\n      dup2\n        /* \"#utility.yul\":6912:6925   */\n      mload\n        /* \"#utility.yul\":6945:7068   */\n      tag_404\n        /* \"#utility.yul\":7064:7067   */\n      dup9\n        /* \"#utility.yul\":7049:7062   */\n      dup3\n        /* \"#utility.yul\":6945:7068   */\n      tag_351\n      jump\t// in\n    tag_404:\n        /* \"#utility.yul\":6938:7068   */\n      swap8\n      pop\n        /* \"#utility.yul\":7091:7181   */\n      tag_405\n        /* \"#utility.yul\":7174:7180   */\n      dup4\n        /* \"#utility.yul\":7091:7181   */\n      tag_406\n      jump\t// in\n    tag_405:\n        /* \"#utility.yul\":7081:7181   */\n      swap3\n      pop\n        /* \"#utility.yul\":6877:7191   */\n      pop\n        /* \"#utility.yul\":6864:6865   */\n      0x01\n        /* \"#utility.yul\":6861:6862   */\n      dup2\n        /* \"#utility.yul\":6857:6866   */\n      add\n        /* \"#utility.yul\":6852:6866   */\n      swap1\n      pop\n        /* \"#utility.yul\":6817:7191   */\n      jump(tag_401)\n    tag_403:\n        /* \"#utility.yul\":6821:6835   */\n      pop\n        /* \"#utility.yul\":7207:7210   */\n      dup6\n        /* \"#utility.yul\":7200:7210   */\n      swap4\n      pop\n        /* \"#utility.yul\":6428:7216   */\n      pop\n      pop\n      pop\n        /* \"#utility.yul\":6244:7216   */\n      swap3\n      swap2\n      pop\n      pop\n      jump\t// out\n        /* \"#utility.yul\":7252:7984   */\n    tag_407:\n        /* \"#utility.yul\":7371:7374   */\n      0x00\n        /* \"#utility.yul\":7400:7454   */\n      tag_409\n        /* \"#utility.yul\":7448:7453   */\n      dup3\n        /* \"#utility.yul\":7400:7454   */\n      tag_410\n      jump\t// in\n    tag_409:\n        /* \"#utility.yul\":7470:7556   */\n      tag_411\n        /* \"#utility.yul\":7549:7555   */\n      dup2\n        /* \"#utility.yul\":7544:7547   */\n      dup6\n        /* \"#utility.yul\":7470:7556   */\n      tag_412\n      jump\t// in\n    tag_411:\n        /* \"#utility.yul\":7463:7556   */\n      swap4\n      pop\n        /* \"#utility.yul\":7580:7636   */\n      tag_413\n        /* \"#utility.yul\":7630:7635   */\n      dup4\n        /* \"#utility.yul\":7580:7636   */\n      tag_414\n      jump\t// in\n    tag_413:\n        /* \"#utility.yul\":7659:7666   */\n      dup1\n        /* \"#utility.yul\":7690:7691   */\n      0x00\n        /* \"#utility.yul\":7675:7959   */\n    tag_415:\n        /* \"#utility.yul\":7700:7706   */\n      dup4\n        /* \"#utility.yul\":7697:7698   */\n      dup2\n        /* \"#utility.yul\":7694:7707   */\n      lt\n        /* \"#utility.yul\":7675:7959   */\n      iszero\n      tag_417\n      jumpi\n        /* \"#utility.yul\":7776:7782   */\n      dup2\n        /* \"#utility.yul\":7770:7783   */\n      mload\n        /* \"#utility.yul\":7803:7866   */\n      tag_418\n        /* \"#utility.yul\":7862:7865   */\n      dup9\n        /* \"#utility.yul\":7847:7860   */\n      dup3\n        /* \"#utility.yul\":7803:7866   */\n      tag_355\n      jump\t// in\n    tag_418:\n        /* \"#utility.yul\":7796:7866   */\n      swap8\n      pop\n        /* \"#utility.yul\":7889:7949   */\n      tag_419\n        /* \"#utility.yul\":7942:7948   */\n      dup4\n        /* \"#utility.yul\":7889:7949   */\n      tag_420\n      jump\t// in\n    tag_419:\n        /* \"#utility.yul\":7879:7949   */\n      swap3\n      pop\n        /* \"#utility.yul\":7735:7959   */\n      pop\n        /* \"#utility.yul\":7722:7723   */\n      0x01\n        /* \"#utility.yul\":7719:7720   */\n      dup2\n        /* \"#utility.yul\":7715:7724   */\n      add\n        /* \"#utility.yul\":7710:7724   */\n      swap1\n      pop\n        /* \"#utility.yul\":7675:7959   */\n      jump(tag_415)\n    tag_417:\n        /* \"#utility.yul\":7679:7693   */\n      pop\n        /* \"#utility.yul\":7975:7978   */\n      dup6\n        /* \"#utility.yul\":7968:7978   */\n      swap4\n      pop\n        /* \"#utility.yul\":7376:7984   */\n      pop\n      pop\n      pop\n        /* \"#utility.yul\":7252:7984   */\n      swap3\n      swap2\n      pop\n      pop\n      jump\t// out\n        /* \"#utility.yul\":7990:8089   */\n    tag_421:\n        /* \"#utility.yul\":8061:8082   */\n      tag_423\n        /* \"#utility.yul\":8076:8081   */\n      dup2\n        /* \"#utility.yul\":8061:8082   */\n      tag_424\n      jump\t// in\n    tag_423:\n        /* \"#utility.yul\":8056:8059   */\n      dup3\n        /* \"#utility.yul\":8049:8083   */\n      mstore\n        /* \"#utility.yul\":7990:8089   */\n      pop\n      pop\n      jump\t// out\n        /* \"#utility.yul\":8095:8204   */\n    tag_425:\n        /* \"#utility.yul\":8176:8197   */\n      tag_427\n        /* \"#utility.yul\":8191:8196   */\n      dup2\n        /* \"#utility.yul\":8176:8197   */\n      tag_424\n      jump\t// in\n    tag_427:\n        /* \"#utility.yul\":8171:8174   */\n      dup3\n        /* \"#utility.yul\":8164:8198   */\n      mstore\n        /* \"#utility.yul\":8095:8204   */\n      pop\n      pop\n      jump\t// out\n        /* \"#utility.yul\":8210:8576   */\n    tag_428:\n        /* \"#utility.yul\":8352:8355   */\n      0x00\n        /* \"#utility.yul\":8373:8440   */\n      tag_430\n        /* \"#utility.yul\":8437:8439   */\n      0x25\n        /* \"#utility.yul\":8432:8435   */\n      dup4\n        /* \"#utility.yul\":8373:8440   */\n      tag_431\n      jump\t// in\n    tag_430:\n        /* \"#utility.yul\":8366:8440   */\n      swap2\n      pop\n        /* \"#utility.yul\":8449:8542   */\n      tag_432\n        /* \"#utility.yul\":8538:8541   */\n      dup3\n        /* \"#utility.yul\":8449:8542   */\n      tag_433\n      jump\t// in\n    tag_432:\n        /* \"#utility.yul\":8567:8569   */\n      0x40\n        /* \"#utility.yul\":8562:8565   */\n      dup3\n        /* \"#utility.yul\":8558:8570   */\n      add\n        /* \"#utility.yul\":8551:8570   */\n      swap1\n      pop\n        /* \"#utility.yul\":8210:8576   */\n      swap2\n      swap1\n      pop\n      jump\t// out\n        /* \"#utility.yul\":8582:8948   */\n    tag_434:\n        /* \"#utility.yul\":8724:8727   */\n      0x00\n        /* \"#utility.yul\":8745:8812   */\n      tag_436\n        /* \"#utility.yul\":8809:8811   */\n      0x35\n        /* \"#utility.yul\":8804:8807   */\n      dup4\n        /* \"#utility.yul\":8745:8812   */\n      tag_431\n      jump\t// in\n    tag_436:\n        /* \"#utility.yul\":8738:8812   */\n      swap2\n      pop\n        /* \"#utility.yul\":8821:8914   */\n      tag_437\n        /* \"#utility.yul\":8910:8913   */\n      dup3\n        /* \"#utility.yul\":8821:8914   */\n      tag_438\n      jump\t// in\n    tag_437:\n        /* \"#utility.yul\":8939:8941   */\n      0x40\n        /* \"#utility.yul\":8934:8937   */\n      dup3\n        /* \"#utility.yul\":8930:8942   */\n      add\n        /* \"#utility.yul\":8923:8942   */\n      swap1\n      pop\n        /* \"#utility.yul\":8582:8948   */\n      swap2\n      swap1\n      pop\n      jump\t// out\n        /* \"#utility.yul\":8954:9320   */\n    tag_439:\n        /* \"#utility.yul\":9096:9099   */\n      0x00\n        /* \"#utility.yul\":9117:9184   */\n      tag_441\n        /* \"#utility.yul\":9181:9183   */\n      0x22\n        /* \"#utility.yul\":9176:9179   */\n      dup4\n        /* \"#utility.yul\":9117:9184   */\n      tag_431\n      jump\t// in\n    tag_441:\n        /* \"#utility.yul\":9110:9184   */\n      swap2\n      pop\n        /* \"#utility.yul\":9193:9286   */\n      tag_442\n        /* \"#utility.yul\":9282:9285   */\n      dup3\n        /* \"#utility.yul\":9193:9286   */\n      tag_443\n      jump\t// in\n    tag_442:\n        /* \"#utility.yul\":9311:9313   */\n      0x40\n        /* \"#utility.yul\":9306:9309   */\n      dup3\n        /* \"#utility.yul\":9302:9314   */\n      add\n        /* \"#utility.yul\":9295:9314   */\n      swap1\n      pop\n        /* \"#utility.yul\":8954:9320   */\n      swap2\n      swap1\n      pop\n      jump\t// out\n        /* \"#utility.yul\":9326:9692   */\n    tag_444:\n        /* \"#utility.yul\":9468:9471   */\n      0x00\n        /* \"#utility.yul\":9489:9556   */\n      tag_446\n        /* \"#utility.yul\":9553:9555   */\n      0x1f\n        /* \"#utility.yul\":9548:9551   */\n      dup4\n        /* \"#utility.yul\":9489:9556   */\n      tag_431\n      jump\t// in\n    tag_446:\n        /* \"#utility.yul\":9482:9556   */\n      swap2\n      pop\n        /* \"#utility.yul\":9565:9658   */\n      tag_447\n        /* \"#utility.yul\":9654:9657   */\n      dup3\n        /* \"#utility.yul\":9565:9658   */\n      tag_448\n      jump\t// in\n    tag_447:\n        /* \"#utility.yul\":9683:9685   */\n      0x20\n        /* \"#utility.yul\":9678:9681   */\n      dup3\n        /* \"#utility.yul\":9674:9686   */\n      add\n        /* \"#utility.yul\":9667:9686   */\n      swap1\n      pop\n        /* \"#utility.yul\":9326:9692   */\n      swap2\n      swap1\n      pop\n      jump\t// out\n        /* \"#utility.yul\":9698:10064   */\n    tag_449:\n        /* \"#utility.yul\":9840:9843   */\n      0x00\n        /* \"#utility.yul\":9861:9928   */\n      tag_451\n        /* \"#utility.yul\":9925:9927   */\n      0x21\n        /* \"#utility.yul\":9920:9923   */\n      dup4\n        /* \"#utility.yul\":9861:9928   */\n      tag_431\n      jump\t// in\n    tag_451:\n        /* \"#utility.yul\":9854:9928   */\n      swap2\n      pop\n        /* \"#utility.yul\":9937:10030   */\n      tag_452\n        /* \"#utility.yul\":10026:10029   */\n      dup3\n        /* \"#utility.yul\":9937:10030   */\n      tag_453\n      jump\t// in\n    tag_452:\n        /* \"#utility.yul\":10055:10057   */\n      0x40\n        /* \"#utility.yul\":10050:10053   */\n      dup3\n        /* \"#utility.yul\":10046:10058   */\n      add\n        /* \"#utility.yul\":10039:10058   */\n      swap1\n      pop\n        /* \"#utility.yul\":9698:10064   */\n      swap2\n      swap1\n      pop\n      jump\t// out\n        /* \"#utility.yul\":10130:11379   */\n    tag_350:\n        /* \"#utility.yul\":10269:10273   */\n      0xc0\n        /* \"#utility.yul\":10264:10267   */\n      dup3\n        /* \"#utility.yul\":10260:10274   */\n      add\n        /* \"#utility.yul\":10360:10364   */\n      0x00\n        /* \"#utility.yul\":10353:10358   */\n      dup3\n        /* \"#utility.yul\":10349:10365   */\n      add\n        /* \"#utility.yul\":10343:10366   */\n      mload\n        /* \"#utility.yul\":10379:10442   */\n      tag_455\n        /* \"#utility.yul\":10436:10440   */\n      0x00\n        /* \"#utility.yul\":10431:10434   */\n      dup6\n        /* \"#utility.yul\":10427:10441   */\n      add\n        /* \"#utility.yul\":10413:10425   */\n      dup3\n        /* \"#utility.yul\":10379:10442   */\n      tag_346\n      jump\t// in\n    tag_455:\n        /* \"#utility.yul\":10284:10452   */\n      pop\n        /* \"#utility.yul\":10545:10549   */\n      0x20\n        /* \"#utility.yul\":10538:10543   */\n      dup3\n        /* \"#utility.yul\":10534:10550   */\n      add\n        /* \"#utility.yul\":10528:10551   */\n      mload\n        /* \"#utility.yul\":10564:10627   */\n      tag_456\n        /* \"#utility.yul\":10621:10625   */\n      0x20\n        /* \"#utility.yul\":10616:10619   */\n      dup6\n        /* \"#utility.yul\":10612:10626   */\n      add\n        /* \"#utility.yul\":10598:10610   */\n      dup3\n        /* \"#utility.yul\":10564:10627   */\n      tag_358\n      jump\t// in\n    tag_456:\n        /* \"#utility.yul\":10462:10637   */\n      pop\n        /* \"#utility.yul\":10721:10725   */\n      0x40\n        /* \"#utility.yul\":10714:10719   */\n      dup3\n        /* \"#utility.yul\":10710:10726   */\n      add\n        /* \"#utility.yul\":10704:10727   */\n      mload\n        /* \"#utility.yul\":10740:10803   */\n      tag_457\n        /* \"#utility.yul\":10797:10801   */\n      0x40\n        /* \"#utility.yul\":10792:10795   */\n      dup6\n        /* \"#utility.yul\":10788:10802   */\n      add\n        /* \"#utility.yul\":10774:10786   */\n      dup3\n        /* \"#utility.yul\":10740:10803   */\n      tag_358\n      jump\t// in\n    tag_457:\n        /* \"#utility.yul\":10647:10813   */\n      pop\n        /* \"#utility.yul\":10905:10909   */\n      0x60\n        /* \"#utility.yul\":10898:10903   */\n      dup3\n        /* \"#utility.yul\":10894:10910   */\n      add\n        /* \"#utility.yul\":10888:10911   */\n      mload\n        /* \"#utility.yul\":10924:10987   */\n      tag_458\n        /* \"#utility.yul\":10981:10985   */\n      0x60\n        /* \"#utility.yul\":10976:10979   */\n      dup6\n        /* \"#utility.yul\":10972:10986   */\n      add\n        /* \"#utility.yul\":10958:10970   */\n      dup3\n        /* \"#utility.yul\":10924:10987   */\n      tag_358\n      jump\t// in\n    tag_458:\n        /* \"#utility.yul\":10823:10997   */\n      pop\n        /* \"#utility.yul\":11095:11099   */\n      0x80\n        /* \"#utility.yul\":11088:11093   */\n      dup3\n        /* \"#utility.yul\":11084:11100   */\n      add\n        /* \"#utility.yul\":11078:11101   */\n      mload\n        /* \"#utility.yul\":11114:11177   */\n      tag_459\n        /* \"#utility.yul\":11171:11175   */\n      0x80\n        /* \"#utility.yul\":11166:11169   */\n      dup6\n        /* \"#utility.yul\":11162:11176   */\n      add\n        /* \"#utility.yul\":11148:11160   */\n      dup3\n        /* \"#utility.yul\":11114:11177   */\n      tag_358\n      jump\t// in\n    tag_459:\n        /* \"#utility.yul\":11007:11187   */\n      pop\n        /* \"#utility.yul\":11280:11284   */\n      0xa0\n        /* \"#utility.yul\":11273:11278   */\n      dup3\n        /* \"#utility.yul\":11269:11285   */\n      add\n        /* \"#utility.yul\":11263:11286   */\n      mload\n        /* \"#utility.yul\":11299:11362   */\n      tag_460\n        /* \"#utility.yul\":11356:11360   */\n      0xa0\n        /* \"#utility.yul\":11351:11354   */\n      dup6\n        /* \"#utility.yul\":11347:11361   */\n      add\n        /* \"#utility.yul\":11333:11345   */\n      dup3\n        /* \"#utility.yul\":11299:11362   */\n      tag_358\n      jump\t// in\n    tag_460:\n        /* \"#utility.yul\":11197:11372   */\n      pop\n        /* \"#utility.yul\":10238:11379   */\n      pop\n        /* \"#utility.yul\":10130:11379   */\n      pop\n      pop\n      jump\t// out\n        /* \"#utility.yul\":11453:12695   */\n    tag_354:\n        /* \"#utility.yul\":11600:11604   */\n      0xc0\n        /* \"#utility.yul\":11595:11598   */\n      dup3\n        /* \"#utility.yul\":11591:11605   */\n      add\n        /* \"#utility.yul\":11697:11701   */\n      0x00\n        /* \"#utility.yul\":11690:11695   */\n      dup3\n        /* \"#utility.yul\":11686:11702   */\n      add\n        /* \"#utility.yul\":11680:11703   */\n      mload\n        /* \"#utility.yul\":11716:11779   */\n      tag_462\n        /* \"#utility.yul\":11773:11777   */\n      0x00\n        /* \"#utility.yul\":11768:11771   */\n      dup6\n        /* \"#utility.yul\":11764:11778   */\n      add\n        /* \"#utility.yul\":11750:11762   */\n      dup3\n        /* \"#utility.yul\":11716:11779   */\n      tag_358\n      jump\t// in\n    tag_462:\n        /* \"#utility.yul\":11615:11789   */\n      pop\n        /* \"#utility.yul\":11880:11884   */\n      0x20\n        /* \"#utility.yul\":11873:11878   */\n      dup3\n        /* \"#utility.yul\":11869:11885   */\n      add\n        /* \"#utility.yul\":11863:11886   */\n      mload\n        /* \"#utility.yul\":11899:11962   */\n      tag_463\n        /* \"#utility.yul\":11956:11960   */\n      0x20\n        /* \"#utility.yul\":11951:11954   */\n      dup6\n        /* \"#utility.yul\":11947:11961   */\n      add\n        /* \"#utility.yul\":11933:11945   */\n      dup3\n        /* \"#utility.yul\":11899:11962   */\n      tag_358\n      jump\t// in\n    tag_463:\n        /* \"#utility.yul\":11799:11972   */\n      pop\n        /* \"#utility.yul\":12061:12065   */\n      0x40\n        /* \"#utility.yul\":12054:12059   */\n      dup3\n        /* \"#utility.yul\":12050:12066   */\n      add\n        /* \"#utility.yul\":12044:12067   */\n      mload\n        /* \"#utility.yul\":12080:12143   */\n      tag_464\n        /* \"#utility.yul\":12137:12141   */\n      0x40\n        /* \"#utility.yul\":12132:12135   */\n      dup6\n        /* \"#utility.yul\":12128:12142   */\n      add\n        /* \"#utility.yul\":12114:12126   */\n      dup3\n        /* \"#utility.yul\":12080:12143   */\n      tag_358\n      jump\t// in\n    tag_464:\n        /* \"#utility.yul\":11982:12153   */\n      pop\n        /* \"#utility.yul\":12244:12248   */\n      0x60\n        /* \"#utility.yul\":12237:12242   */\n      dup3\n        /* \"#utility.yul\":12233:12249   */\n      add\n        /* \"#utility.yul\":12227:12250   */\n      mload\n        /* \"#utility.yul\":12263:12326   */\n      tag_465\n        /* \"#utility.yul\":12320:12324   */\n      0x60\n        /* \"#utility.yul\":12315:12318   */\n      dup6\n        /* \"#utility.yul\":12311:12325   */\n      add\n        /* \"#utility.yul\":12297:12309   */\n      dup3\n        /* \"#utility.yul\":12263:12326   */\n      tag_358\n      jump\t// in\n    tag_465:\n        /* \"#utility.yul\":12163:12336   */\n      pop\n        /* \"#utility.yul\":12425:12429   */\n      0x80\n        /* \"#utility.yul\":12418:12423   */\n      dup3\n        /* \"#utility.yul\":12414:12430   */\n      add\n        /* \"#utility.yul\":12408:12431   */\n      mload\n        /* \"#utility.yul\":12444:12507   */\n      tag_466\n        /* \"#utility.yul\":12501:12505   */\n      0x80\n        /* \"#utility.yul\":12496:12499   */\n      dup6\n        /* \"#utility.yul\":12492:12506   */\n      add\n        /* \"#utility.yul\":12478:12490   */\n      dup3\n        /* \"#utility.yul\":12444:12507   */\n      tag_358\n      jump\t// in\n    tag_466:\n        /* \"#utility.yul\":12346:12517   */\n      pop\n        /* \"#utility.yul\":12602:12606   */\n      0xa0\n        /* \"#utility.yul\":12595:12600   */\n      dup3\n        /* \"#utility.yul\":12591:12607   */\n      add\n        /* \"#utility.yul\":12585:12608   */\n      mload\n        /* \"#utility.yul\":12621:12678   */\n      tag_467\n        /* \"#utility.yul\":12672:12676   */\n      0xa0\n        /* \"#utility.yul\":12667:12670   */\n      dup6\n        /* \"#utility.yul\":12663:12677   */\n      add\n        /* \"#utility.yul\":12649:12661   */\n      dup3\n        /* \"#utility.yul\":12621:12678   */\n      tag_421\n      jump\t// in\n    tag_467:\n        /* \"#utility.yul\":12527:12688   */\n      pop\n        /* \"#utility.yul\":11569:12695   */\n      pop\n        /* \"#utility.yul\":11453:12695   */\n      pop\n      pop\n      jump\t// out\n        /* \"#utility.yul\":12701:12809   */\n    tag_358:\n        /* \"#utility.yul\":12778:12802   */\n      tag_469\n        /* \"#utility.yul\":12796:12801   */\n      dup2\n        /* \"#utility.yul\":12778:12802   */\n      tag_470\n      jump\t// in\n    tag_469:\n        /* \"#utility.yul\":12773:12776   */\n      dup3\n        /* \"#utility.yul\":12766:12803   */\n      mstore\n        /* \"#utility.yul\":12701:12809   */\n      pop\n      pop\n      jump\t// out\n        /* \"#utility.yul\":12815:12933   */\n    tag_471:\n        /* \"#utility.yul\":12902:12926   */\n      tag_473\n        /* \"#utility.yul\":12920:12925   */\n      dup2\n        /* \"#utility.yul\":12902:12926   */\n      tag_470\n      jump\t// in\n    tag_473:\n        /* \"#utility.yul\":12897:12900   */\n      dup3\n        /* \"#utility.yul\":12890:12927   */\n      mstore\n        /* \"#utility.yul\":12815:12933   */\n      pop\n      pop\n      jump\t// out\n        /* \"#utility.yul\":12939:13161   */\n    tag_81:\n        /* \"#utility.yul\":13032:13036   */\n      0x00\n        /* \"#utility.yul\":13070:13072   */\n      0x20\n        /* \"#utility.yul\":13059:13068   */\n      dup3\n        /* \"#utility.yul\":13055:13073   */\n      add\n        /* \"#utility.yul\":13047:13073   */\n      swap1\n      pop\n        /* \"#utility.yul\":13083:13154   */\n      tag_475\n        /* \"#utility.yul\":13151:13152   */\n      0x00\n        /* \"#utility.yul\":13140:13149   */\n      dup4\n        /* \"#utility.yul\":13136:13153   */\n      add\n        /* \"#utility.yul\":13127:13133   */\n      dup5\n        /* \"#utility.yul\":13083:13154   */\n      tag_362\n      jump\t// in\n    tag_475:\n        /* \"#utility.yul\":12939:13161   */\n      swap3\n      swap2\n      pop\n      pop\n      jump\t// out\n        /* \"#utility.yul\":13167:13609   */\n    tag_162:\n        /* \"#utility.yul\":13316:13320   */\n      0x00\n        /* \"#utility.yul\":13354:13356   */\n      0x60\n        /* \"#utility.yul\":13343:13352   */\n      dup3\n        /* \"#utility.yul\":13339:13357   */\n      add\n        /* \"#utility.yul\":13331:13357   */\n      swap1\n      pop\n        /* \"#utility.yul\":13367:13438   */\n      tag_477\n        /* \"#utility.yul\":13435:13436   */\n      0x00\n        /* \"#utility.yul\":13424:13433   */\n      dup4\n        /* \"#utility.yul\":13420:13437   */\n      add\n        /* \"#utility.yul\":13411:13417   */\n      dup7\n        /* \"#utility.yul\":13367:13438   */\n      tag_362\n      jump\t// in\n    tag_477:\n        /* \"#utility.yul\":13448:13520   */\n      tag_478\n        /* \"#utility.yul\":13516:13518   */\n      0x20\n        /* \"#utility.yul\":13505:13514   */\n      dup4\n        /* \"#utility.yul\":13501:13519   */\n      add\n        /* \"#utility.yul\":13492:13498   */\n      dup6\n        /* \"#utility.yul\":13448:13520   */\n      tag_362\n      jump\t// in\n    tag_478:\n        /* \"#utility.yul\":13530:13602   */\n      tag_479\n        /* \"#utility.yul\":13598:13600   */\n      0x40\n        /* \"#utility.yul\":13587:13596   */\n      dup4\n        /* \"#utility.yul\":13583:13601   */\n      add\n        /* \"#utility.yul\":13574:13580   */\n      dup5\n        /* \"#utility.yul\":13530:13602   */\n      tag_471\n      jump\t// in\n    tag_479:\n        /* \"#utility.yul\":13167:13609   */\n      swap5\n      swap4\n      pop\n      pop\n      pop\n      pop\n      jump\t// out\n        /* \"#utility.yul\":13615:13947   */\n    tag_238:\n        /* \"#utility.yul\":13736:13740   */\n      0x00\n        /* \"#utility.yul\":13774:13776   */\n      0x40\n        /* \"#utility.yul\":13763:13772   */\n      dup3\n        /* \"#utility.yul\":13759:13777   */\n      add\n        /* \"#utility.yul\":13751:13777   */\n      swap1\n      pop\n        /* \"#utility.yul\":13787:13858   */\n      tag_481\n        /* \"#utility.yul\":13855:13856   */\n      0x00\n        /* \"#utility.yul\":13844:13853   */\n      dup4\n        /* \"#utility.yul\":13840:13857   */\n      add\n        /* \"#utility.yul\":13831:13837   */\n      dup6\n        /* \"#utility.yul\":13787:13858   */\n      tag_362\n      jump\t// in\n    tag_481:\n        /* \"#utility.yul\":13868:13940   */\n      tag_482\n        /* \"#utility.yul\":13936:13938   */\n      0x20\n        /* \"#utility.yul\":13925:13934   */\n      dup4\n        /* \"#utility.yul\":13921:13939   */\n      add\n        /* \"#utility.yul\":13912:13918   */\n      dup5\n        /* \"#utility.yul\":13868:13940   */\n      tag_471\n      jump\t// in\n    tag_482:\n        /* \"#utility.yul\":13615:13947   */\n      swap4\n      swap3\n      pop\n      pop\n      pop\n      jump\t// out\n        /* \"#utility.yul\":13953:14827   */\n    tag_123:\n        /* \"#utility.yul\":14208:14212   */\n      0x00\n        /* \"#utility.yul\":14246:14249   */\n      0xe0\n        /* \"#utility.yul\":14235:14244   */\n      dup3\n        /* \"#utility.yul\":14231:14250   */\n      add\n        /* \"#utility.yul\":14223:14250   */\n      swap1\n      pop\n        /* \"#utility.yul\":14260:14331   */\n      tag_484\n        /* \"#utility.yul\":14328:14329   */\n      0x00\n        /* \"#utility.yul\":14317:14326   */\n      dup4\n        /* \"#utility.yul\":14313:14330   */\n      add\n        /* \"#utility.yul\":14304:14310   */\n      dup11\n        /* \"#utility.yul\":14260:14331   */\n      tag_362\n      jump\t// in\n    tag_484:\n        /* \"#utility.yul\":14341:14413   */\n      tag_485\n        /* \"#utility.yul\":14409:14411   */\n      0x20\n        /* \"#utility.yul\":14398:14407   */\n      dup4\n        /* \"#utility.yul\":14394:14412   */\n      add\n        /* \"#utility.yul\":14385:14391   */\n      dup10\n        /* \"#utility.yul\":14341:14413   */\n      tag_471\n      jump\t// in\n    tag_485:\n        /* \"#utility.yul\":14423:14495   */\n      tag_486\n        /* \"#utility.yul\":14491:14493   */\n      0x40\n        /* \"#utility.yul\":14480:14489   */\n      dup4\n        /* \"#utility.yul\":14476:14494   */\n      add\n        /* \"#utility.yul\":14467:14473   */\n      dup9\n        /* \"#utility.yul\":14423:14495   */\n      tag_471\n      jump\t// in\n    tag_486:\n        /* \"#utility.yul\":14505:14577   */\n      tag_487\n        /* \"#utility.yul\":14573:14575   */\n      0x60\n        /* \"#utility.yul\":14562:14571   */\n      dup4\n        /* \"#utility.yul\":14558:14576   */\n      add\n        /* \"#utility.yul\":14549:14555   */\n      dup8\n        /* \"#utility.yul\":14505:14577   */\n      tag_471\n      jump\t// in\n    tag_487:\n        /* \"#utility.yul\":14587:14660   */\n      tag_488\n        /* \"#utility.yul\":14655:14658   */\n      0x80\n        /* \"#utility.yul\":14644:14653   */\n      dup4\n        /* \"#utility.yul\":14640:14659   */\n      add\n        /* \"#utility.yul\":14631:14637   */\n      dup7\n        /* \"#utility.yul\":14587:14660   */\n      tag_471\n      jump\t// in\n    tag_488:\n        /* \"#utility.yul\":14670:14737   */\n      tag_489\n        /* \"#utility.yul\":14732:14735   */\n      0xa0\n        /* \"#utility.yul\":14721:14730   */\n      dup4\n        /* \"#utility.yul\":14717:14736   */\n      add\n        /* \"#utility.yul\":14708:14714   */\n      dup6\n        /* \"#utility.yul\":14670:14737   */\n      tag_425\n      jump\t// in\n    tag_489:\n        /* \"#utility.yul\":14747:14820   */\n      tag_490\n        /* \"#utility.yul\":14815:14818   */\n      0xc0\n        /* \"#utility.yul\":14804:14813   */\n      dup4\n        /* \"#utility.yul\":14800:14819   */\n      add\n        /* \"#utility.yul\":14791:14797   */\n      dup5\n        /* \"#utility.yul\":14747:14820   */\n      tag_471\n      jump\t// in\n    tag_490:\n        /* \"#utility.yul\":13953:14827   */\n      swap9\n      swap8\n      pop\n      pop\n      pop\n      pop\n      pop\n      pop\n      pop\n      pop\n      jump\t// out\n        /* \"#utility.yul\":14833:15206   */\n    tag_41:\n        /* \"#utility.yul\":14976:14980   */\n      0x00\n        /* \"#utility.yul\":15014:15016   */\n      0x20\n        /* \"#utility.yul\":15003:15012   */\n      dup3\n        /* \"#utility.yul\":14999:15017   */\n      add\n        /* \"#utility.yul\":14991:15017   */\n      swap1\n      pop\n        /* \"#utility.yul\":15063:15072   */\n      dup2\n        /* \"#utility.yul\":15057:15061   */\n      dup2\n        /* \"#utility.yul\":15053:15073   */\n      sub\n        /* \"#utility.yul\":15049:15050   */\n      0x00\n        /* \"#utility.yul\":15038:15047   */\n      dup4\n        /* \"#utility.yul\":15034:15051   */\n      add\n        /* \"#utility.yul\":15027:15074   */\n      mstore\n        /* \"#utility.yul\":15091:15199   */\n      tag_492\n        /* \"#utility.yul\":15194:15198   */\n      dup2\n        /* \"#utility.yul\":15185:15191   */\n      dup5\n        /* \"#utility.yul\":15091:15199   */\n      tag_365\n      jump\t// in\n    tag_492:\n        /* \"#utility.yul\":15083:15199   */\n      swap1\n      pop\n        /* \"#utility.yul\":14833:15206   */\n      swap3\n      swap2\n      pop\n      pop\n      jump\t// out\n        /* \"#utility.yul\":15212:15689   */\n    tag_69:\n        /* \"#utility.yul\":15407:15411   */\n      0x00\n        /* \"#utility.yul\":15445:15447   */\n      0x20\n        /* \"#utility.yul\":15434:15443   */\n      dup3\n        /* \"#utility.yul\":15430:15448   */\n      add\n        /* \"#utility.yul\":15422:15448   */\n      swap1\n      pop\n        /* \"#utility.yul\":15494:15503   */\n      dup2\n        /* \"#utility.yul\":15488:15492   */\n      dup2\n        /* \"#utility.yul\":15484:15504   */\n      sub\n        /* \"#utility.yul\":15480:15481   */\n      0x00\n        /* \"#utility.yul\":15469:15478   */\n      dup4\n        /* \"#utility.yul\":15465:15482   */\n      add\n        /* \"#utility.yul\":15458:15505   */\n      mstore\n        /* \"#utility.yul\":15522:15682   */\n      tag_494\n        /* \"#utility.yul\":15677:15681   */\n      dup2\n        /* \"#utility.yul\":15668:15674   */\n      dup5\n        /* \"#utility.yul\":15522:15682   */\n      tag_379\n      jump\t// in\n    tag_494:\n        /* \"#utility.yul\":15514:15682   */\n      swap1\n      pop\n        /* \"#utility.yul\":15212:15689   */\n      swap3\n      swap2\n      pop\n      pop\n      jump\t// out\n        /* \"#utility.yul\":15695:16188   */\n    tag_62:\n        /* \"#utility.yul\":15898:15902   */\n      0x00\n        /* \"#utility.yul\":15936:15938   */\n      0x20\n        /* \"#utility.yul\":15925:15934   */\n      dup3\n        /* \"#utility.yul\":15921:15939   */\n      add\n        /* \"#utility.yul\":15913:15939   */\n      swap1\n      pop\n        /* \"#utility.yul\":15985:15994   */\n      dup2\n        /* \"#utility.yul\":15979:15983   */\n      dup2\n        /* \"#utility.yul\":15975:15995   */\n      sub\n        /* \"#utility.yul\":15971:15972   */\n      0x00\n        /* \"#utility.yul\":15960:15969   */\n      dup4\n        /* \"#utility.yul\":15956:15973   */\n      add\n        /* \"#utility.yul\":15949:15996   */\n      mstore\n        /* \"#utility.yul\":16013:16181   */\n      tag_496\n        /* \"#utility.yul\":16176:16180   */\n      dup2\n        /* \"#utility.yul\":16167:16173   */\n      dup5\n        /* \"#utility.yul\":16013:16181   */\n      tag_393\n      jump\t// in\n    tag_496:\n        /* \"#utility.yul\":16005:16181   */\n      swap1\n      pop\n        /* \"#utility.yul\":15695:16188   */\n      swap3\n      swap2\n      pop\n      pop\n      jump\t// out\n        /* \"#utility.yul\":16194:16567   */\n    tag_107:\n        /* \"#utility.yul\":16337:16341   */\n      0x00\n        /* \"#utility.yul\":16375:16377   */\n      0x20\n        /* \"#utility.yul\":16364:16373   */\n      dup3\n        /* \"#utility.yul\":16360:16378   */\n      add\n        /* \"#utility.yul\":16352:16378   */\n      swap1\n      pop\n        /* \"#utility.yul\":16424:16433   */\n      dup2\n        /* \"#utility.yul\":16418:16422   */\n      dup2\n        /* \"#utility.yul\":16414:16434   */\n      sub\n        /* \"#utility.yul\":16410:16411   */\n      0x00\n        /* \"#utility.yul\":16399:16408   */\n      dup4\n        /* \"#utility.yul\":16395:16412   */\n      add\n        /* \"#utility.yul\":16388:16435   */\n      mstore\n        /* \"#utility.yul\":16452:16560   */\n      tag_498\n        /* \"#utility.yul\":16555:16559   */\n      dup2\n        /* \"#utility.yul\":16546:16552   */\n      dup5\n        /* \"#utility.yul\":16452:16560   */\n      tag_407\n      jump\t// in\n    tag_498:\n        /* \"#utility.yul\":16444:16560   */\n      swap1\n      pop\n        /* \"#utility.yul\":16194:16567   */\n      swap3\n      swap2\n      pop\n      pop\n      jump\t// out\n        /* \"#utility.yul\":16573:16783   */\n    tag_54:\n        /* \"#utility.yul\":16660:16664   */\n      0x00\n        /* \"#utility.yul\":16698:16700   */\n      0x20\n        /* \"#utility.yul\":16687:16696   */\n      dup3\n        /* \"#utility.yul\":16683:16701   */\n      add\n        /* \"#utility.yul\":16675:16701   */\n      swap1\n      pop\n        /* \"#utility.yul\":16711:16776   */\n      tag_500\n        /* \"#utility.yul\":16773:16774   */\n      0x00\n        /* \"#utility.yul\":16762:16771   */\n      dup4\n        /* \"#utility.yul\":16758:16775   */\n      add\n        /* \"#utility.yul\":16749:16755   */\n      dup5\n        /* \"#utility.yul\":16711:16776   */\n      tag_425\n      jump\t// in\n    tag_500:\n        /* \"#utility.yul\":16573:16783   */\n      swap3\n      swap2\n      pop\n      pop\n      jump\t// out\n        /* \"#utility.yul\":16789:17208   */\n    tag_232:\n        /* \"#utility.yul\":16955:16959   */\n      0x00\n        /* \"#utility.yul\":16993:16995   */\n      0x20\n        /* \"#utility.yul\":16982:16991   */\n      dup3\n        /* \"#utility.yul\":16978:16996   */\n      add\n        /* \"#utility.yul\":16970:16996   */\n      swap1\n      pop\n        /* \"#utility.yul\":17042:17051   */\n      dup2\n        /* \"#utility.yul\":17036:17040   */\n      dup2\n        /* \"#utility.yul\":17032:17052   */\n      sub\n        /* \"#utility.yul\":17028:17029   */\n      0x00\n        /* \"#utility.yul\":17017:17026   */\n      dup4\n        /* \"#utility.yul\":17013:17030   */\n      add\n        /* \"#utility.yul\":17006:17053   */\n      mstore\n        /* \"#utility.yul\":17070:17201   */\n      tag_502\n        /* \"#utility.yul\":17196:17200   */\n      dup2\n        /* \"#utility.yul\":17070:17201   */\n      tag_428\n      jump\t// in\n    tag_502:\n        /* \"#utility.yul\":17062:17201   */\n      swap1\n      pop\n        /* \"#utility.yul\":16789:17208   */\n      swap2\n      swap1\n      pop\n      jump\t// out\n        /* \"#utility.yul\":17214:17633   */\n    tag_147:\n        /* \"#utility.yul\":17380:17384   */\n      0x00\n        /* \"#utility.yul\":17418:17420   */\n      0x20\n        /* \"#utility.yul\":17407:17416   */\n      dup3\n        /* \"#utility.yul\":17403:17421   */\n      add\n        /* \"#utility.yul\":17395:17421   */\n      swap1\n      pop\n        /* \"#utility.yul\":17467:17476   */\n      dup2\n        /* \"#utility.yul\":17461:17465   */\n      dup2\n        /* \"#utility.yul\":17457:17477   */\n      sub\n        /* \"#utility.yul\":17453:17454   */\n      0x00\n        /* \"#utility.yul\":17442:17451   */\n      dup4\n        /* \"#utility.yul\":17438:17455   */\n      add\n        /* \"#utility.yul\":17431:17478   */\n      mstore\n        /* \"#utility.yul\":17495:17626   */\n      tag_504\n        /* \"#utility.yul\":17621:17625   */\n      dup2\n        /* \"#utility.yul\":17495:17626   */\n      tag_434\n      jump\t// in\n    tag_504:\n        /* \"#utility.yul\":17487:17626   */\n      swap1\n      pop\n        /* \"#utility.yul\":17214:17633   */\n      swap2\n      swap1\n      pop\n      jump\t// out\n        /* \"#utility.yul\":17639:18058   */\n    tag_273:\n        /* \"#utility.yul\":17805:17809   */\n      0x00\n        /* \"#utility.yul\":17843:17845   */\n      0x20\n        /* \"#utility.yul\":17832:17841   */\n      dup3\n        /* \"#utility.yul\":17828:17846   */\n      add\n        /* \"#utility.yul\":17820:17846   */\n      swap1\n      pop\n        /* \"#utility.yul\":17892:17901   */\n      dup2\n        /* \"#utility.yul\":17886:17890   */\n      dup2\n        /* \"#utility.yul\":17882:17902   */\n      sub\n        /* \"#utility.yul\":17878:17879   */\n      0x00\n        /* \"#utility.yul\":17867:17876   */\n      dup4\n        /* \"#utility.yul\":17863:17880   */\n      add\n        /* \"#utility.yul\":17856:17903   */\n      mstore\n        /* \"#utility.yul\":17920:18051   */\n      tag_506\n        /* \"#utility.yul\":18046:18050   */\n      dup2\n        /* \"#utility.yul\":17920:18051   */\n      tag_439\n      jump\t// in\n    tag_506:\n        /* \"#utility.yul\":17912:18051   */\n      swap1\n      pop\n        /* \"#utility.yul\":17639:18058   */\n      swap2\n      swap1\n      pop\n      jump\t// out\n        /* \"#utility.yul\":18064:18483   */\n    tag_235:\n        /* \"#utility.yul\":18230:18234   */\n      0x00\n        /* \"#utility.yul\":18268:18270   */\n      0x20\n        /* \"#utility.yul\":18257:18266   */\n      dup3\n        /* \"#utility.yul\":18253:18271   */\n      add\n        /* \"#utility.yul\":18245:18271   */\n      swap1\n      pop\n        /* \"#utility.yul\":18317:18326   */\n      dup2\n        /* \"#utility.yul\":18311:18315   */\n      dup2\n        /* \"#utility.yul\":18307:18327   */\n      sub\n        /* \"#utility.yul\":18303:18304   */\n      0x00\n        /* \"#utility.yul\":18292:18301   */\n      dup4\n        /* \"#utility.yul\":18288:18305   */\n      add\n        /* \"#utility.yul\":18281:18328   */\n      mstore\n        /* \"#utility.yul\":18345:18476   */\n      tag_508\n        /* \"#utility.yul\":18471:18475   */\n      dup2\n        /* \"#utility.yul\":18345:18476   */\n      tag_444\n      jump\t// in\n    tag_508:\n        /* \"#utility.yul\":18337:18476   */\n      swap1\n      pop\n        /* \"#utility.yul\":18064:18483   */\n      swap2\n      swap1\n      pop\n      jump\t// out\n        /* \"#utility.yul\":18489:18908   */\n    tag_284:\n        /* \"#utility.yul\":18655:18659   */\n      0x00\n        /* \"#utility.yul\":18693:18695   */\n      0x20\n        /* \"#utility.yul\":18682:18691   */\n      dup3\n        /* \"#utility.yul\":18678:18696   */\n      add\n        /* \"#utility.yul\":18670:18696   */\n      swap1\n      pop\n        /* \"#utility.yul\":18742:18751   */\n      dup2\n        /* \"#utility.yul\":18736:18740   */\n      dup2\n        /* \"#utility.yul\":18732:18752   */\n      sub\n        /* \"#utility.yul\":18728:18729   */\n      0x00\n        /* \"#utility.yul\":18717:18726   */\n      dup4\n        /* \"#utility.yul\":18713:18730   */\n      add\n        /* \"#utility.yul\":18706:18753   */\n      mstore\n        /* \"#utility.yul\":18770:18901   */\n      tag_510\n        /* \"#utility.yul\":18896:18900   */\n      dup2\n        /* \"#utility.yul\":18770:18901   */\n      tag_449\n      jump\t// in\n    tag_510:\n        /* \"#utility.yul\":18762:18901   */\n      swap1\n      pop\n        /* \"#utility.yul\":18489:18908   */\n      swap2\n      swap1\n      pop\n      jump\t// out\n        /* \"#utility.yul\":18914:19136   */\n    tag_45:\n        /* \"#utility.yul\":19007:19011   */\n      0x00\n        /* \"#utility.yul\":19045:19047   */\n      0x20\n        /* \"#utility.yul\":19034:19043   */\n      dup3\n        /* \"#utility.yul\":19030:19048   */\n      add\n        /* \"#utility.yul\":19022:19048   */\n      swap1\n      pop\n        /* \"#utility.yul\":19058:19129   */\n      tag_512\n        /* \"#utility.yul\":19126:19127   */\n      0x00\n        /* \"#utility.yul\":19115:19124   */\n      dup4\n        /* \"#utility.yul\":19111:19128   */\n      add\n        /* \"#utility.yul\":19102:19108   */\n      dup5\n        /* \"#utility.yul\":19058:19129   */\n      tag_471\n      jump\t// in\n    tag_512:\n        /* \"#utility.yul\":18914:19136   */\n      swap3\n      swap2\n      pop\n      pop\n      jump\t// out\n        /* \"#utility.yul\":19223:19355   */\n    tag_372:\n        /* \"#utility.yul\":19290:19294   */\n      0x00\n        /* \"#utility.yul\":19313:19316   */\n      dup2\n        /* \"#utility.yul\":19305:19316   */\n      swap1\n      pop\n        /* \"#utility.yul\":19343:19347   */\n      0x20\n        /* \"#utility.yul\":19338:19341   */\n      dup3\n        /* \"#utility.yul\":19334:19348   */\n      add\n        /* \"#utility.yul\":19326:19348   */\n      swap1\n      pop\n        /* \"#utility.yul\":19223:19355   */\n      swap2\n      swap1\n      pop\n      jump\t// out\n        /* \"#utility.yul\":19361:19519   */\n    tag_386:\n        /* \"#utility.yul\":19454:19458   */\n      0x00\n        /* \"#utility.yul\":19477:19480   */\n      dup2\n        /* \"#utility.yul\":19469:19480   */\n      swap1\n      pop\n        /* \"#utility.yul\":19507:19511   */\n      0x20\n        /* \"#utility.yul\":19502:19505   */\n      dup3\n        /* \"#utility.yul\":19498:19512   */\n      add\n        /* \"#utility.yul\":19490:19512   */\n      swap1\n      pop\n        /* \"#utility.yul\":19361:19519   */\n      swap2\n      swap1\n      pop\n      jump\t// out\n        /* \"#utility.yul\":19525:19687   */\n    tag_400:\n        /* \"#utility.yul\":19622:19626   */\n      0x00\n        /* \"#utility.yul\":19645:19648   */\n      dup2\n        /* \"#utility.yul\":19637:19648   */\n      swap1\n      pop\n        /* \"#utility.yul\":19675:19679   */\n      0x20\n        /* \"#utility.yul\":19670:19673   */\n      dup3\n        /* \"#utility.yul\":19666:19680   */\n      add\n        /* \"#utility.yul\":19658:19680   */\n      swap1\n      pop\n        /* \"#utility.yul\":19525:19687   */\n      swap2\n      swap1\n      pop\n      jump\t// out\n        /* \"#utility.yul\":19693:19825   */\n    tag_414:\n        /* \"#utility.yul\":19760:19764   */\n      0x00\n        /* \"#utility.yul\":19783:19786   */\n      dup2\n        /* \"#utility.yul\":19775:19786   */\n      swap1\n      pop\n        /* \"#utility.yul\":19813:19817   */\n      0x20\n        /* \"#utility.yul\":19808:19811   */\n      dup3\n        /* \"#utility.yul\":19804:19818   */\n      add\n        /* \"#utility.yul\":19796:19818   */\n      swap1\n      pop\n        /* \"#utility.yul\":19693:19825   */\n      swap2\n      swap1\n      pop\n      jump\t// out\n        /* \"#utility.yul\":19831:19945   */\n    tag_368:\n        /* \"#utility.yul\":19898:19904   */\n      0x00\n        /* \"#utility.yul\":19932:19937   */\n      dup2\n        /* \"#utility.yul\":19926:19938   */\n      mload\n        /* \"#utility.yul\":19916:19938   */\n      swap1\n      pop\n        /* \"#utility.yul\":19831:19945   */\n      swap2\n      swap1\n      pop\n      jump\t// out\n        /* \"#utility.yul\":19951:20091   */\n    tag_382:\n        /* \"#utility.yul\":20044:20050   */\n      0x00\n        /* \"#utility.yul\":20078:20083   */\n      dup2\n        /* \"#utility.yul\":20072:20084   */\n      mload\n        /* \"#utility.yul\":20062:20084   */\n      swap1\n      pop\n        /* \"#utility.yul\":19951:20091   */\n      swap2\n      swap1\n      pop\n      jump\t// out\n        /* \"#utility.yul\":20097:20241   */\n    tag_396:\n        /* \"#utility.yul\":20194:20200   */\n      0x00\n        /* \"#utility.yul\":20228:20233   */\n      dup2\n        /* \"#utility.yul\":20222:20234   */\n      mload\n        /* \"#utility.yul\":20212:20234   */\n      swap1\n      pop\n        /* \"#utility.yul\":20097:20241   */\n      swap2\n      swap1\n      pop\n      jump\t// out\n        /* \"#utility.yul\":20247:20361   */\n    tag_410:\n        /* \"#utility.yul\":20314:20320   */\n      0x00\n        /* \"#utility.yul\":20348:20353   */\n      dup2\n        /* \"#utility.yul\":20342:20354   */\n      mload\n        /* \"#utility.yul\":20332:20354   */\n      swap1\n      pop\n        /* \"#utility.yul\":20247:20361   */\n      swap2\n      swap1\n      pop\n      jump\t// out\n        /* \"#utility.yul\":20367:20480   */\n    tag_378:\n        /* \"#utility.yul\":20437:20441   */\n      0x00\n        /* \"#utility.yul\":20469:20473   */\n      0x20\n        /* \"#utility.yul\":20464:20467   */\n      dup3\n        /* \"#utility.yul\":20460:20474   */\n      add\n        /* \"#utility.yul\":20452:20474   */\n      swap1\n      pop\n        /* \"#utility.yul\":20367:20480   */\n      swap2\n      swap1\n      pop\n      jump\t// out\n        /* \"#utility.yul\":20486:20625   */\n    tag_392:\n        /* \"#utility.yul\":20582:20586   */\n      0x00\n        /* \"#utility.yul\":20614:20618   */\n      0x20\n        /* \"#utility.yul\":20609:20612   */\n      dup3\n        /* \"#utility.yul\":20605:20619   */\n      add\n        /* \"#utility.yul\":20597:20619   */\n      swap1\n      pop\n        /* \"#utility.yul\":20486:20625   */\n      swap2\n      swap1\n      pop\n      jump\t// out\n        /* \"#utility.yul\":20631:20774   */\n    tag_406:\n        /* \"#utility.yul\":20731:20735   */\n      0x00\n        /* \"#utility.yul\":20763:20767   */\n      0x20\n        /* \"#utility.yul\":20758:20761   */\n      dup3\n        /* \"#utility.yul\":20754:20768   */\n      add\n        /* \"#utility.yul\":20746:20768   */\n      swap1\n      pop\n        /* \"#utility.yul\":20631:20774   */\n      swap2\n      swap1\n      pop\n      jump\t// out\n        /* \"#utility.yul\":20780:20893   */\n    tag_420:\n        /* \"#utility.yul\":20850:20854   */\n      0x00\n        /* \"#utility.yul\":20882:20886   */\n      0x20\n        /* \"#utility.yul\":20877:20880   */\n      dup3\n        /* \"#utility.yul\":20873:20887   */\n      add\n        /* \"#utility.yul\":20865:20887   */\n      swap1\n      pop\n        /* \"#utility.yul\":20780:20893   */\n      swap2\n      swap1\n      pop\n      jump\t// out\n        /* \"#utility.yul\":20899:21083   */\n    tag_370:\n        /* \"#utility.yul\":20998:21009   */\n      0x00\n        /* \"#utility.yul\":21032:21038   */\n      dup3\n        /* \"#utility.yul\":21027:21030   */\n      dup3\n        /* \"#utility.yul\":21020:21039   */\n      mstore\n        /* \"#utility.yul\":21072:21076   */\n      0x20\n        /* \"#utility.yul\":21067:21070   */\n      dup3\n        /* \"#utility.yul\":21063:21077   */\n      add\n        /* \"#utility.yul\":21048:21077   */\n      swap1\n      pop\n        /* \"#utility.yul\":20899:21083   */\n      swap3\n      swap2\n      pop\n      pop\n      jump\t// out\n        /* \"#utility.yul\":21089:21299   */\n    tag_384:\n        /* \"#utility.yul\":21214:21225   */\n      0x00\n        /* \"#utility.yul\":21248:21254   */\n      dup3\n        /* \"#utility.yul\":21243:21246   */\n      dup3\n        /* \"#utility.yul\":21236:21255   */\n      mstore\n        /* \"#utility.yul\":21288:21292   */\n      0x20\n        /* \"#utility.yul\":21283:21286   */\n      dup3\n        /* \"#utility.yul\":21279:21293   */\n      add\n        /* \"#utility.yul\":21264:21293   */\n      swap1\n      pop\n        /* \"#utility.yul\":21089:21299   */\n      swap3\n      swap2\n      pop\n      pop\n      jump\t// out\n        /* \"#utility.yul\":21305:21519   */\n    tag_398:\n        /* \"#utility.yul\":21434:21445   */\n      0x00\n        /* \"#utility.yul\":21468:21474   */\n      dup3\n        /* \"#utility.yul\":21463:21466   */\n      dup3\n        /* \"#utility.yul\":21456:21475   */\n      mstore\n        /* \"#utility.yul\":21508:21512   */\n      0x20\n        /* \"#utility.yul\":21503:21506   */\n      dup3\n        /* \"#utility.yul\":21499:21513   */\n      add\n        /* \"#utility.yul\":21484:21513   */\n      swap1\n      pop\n        /* \"#utility.yul\":21305:21519   */\n      swap3\n      swap2\n      pop\n      pop\n      jump\t// out\n        /* \"#utility.yul\":21525:21709   */\n    tag_412:\n        /* \"#utility.yul\":21624:21635   */\n      0x00\n        /* \"#utility.yul\":21658:21664   */\n      dup3\n        /* \"#utility.yul\":21653:21656   */\n      dup3\n        /* \"#utility.yul\":21646:21665   */\n      mstore\n        /* \"#utility.yul\":21698:21702   */\n      0x20\n        /* \"#utility.yul\":21693:21696   */\n      dup3\n        /* \"#utility.yul\":21689:21703   */\n      add\n        /* \"#utility.yul\":21674:21703   */\n      swap1\n      pop\n        /* \"#utility.yul\":21525:21709   */\n      swap3\n      swap2\n      pop\n      pop\n      jump\t// out\n        /* \"#utility.yul\":21715:21884   */\n    tag_431:\n        /* \"#utility.yul\":21799:21810   */\n      0x00\n        /* \"#utility.yul\":21833:21839   */\n      dup3\n        /* \"#utility.yul\":21828:21831   */\n      dup3\n        /* \"#utility.yul\":21821:21840   */\n      mstore\n        /* \"#utility.yul\":21873:21877   */\n      0x20\n        /* \"#utility.yul\":21868:21871   */\n      dup3\n        /* \"#utility.yul\":21864:21878   */\n      add\n        /* \"#utility.yul\":21849:21878   */\n      swap1\n      pop\n        /* \"#utility.yul\":21715:21884   */\n      swap3\n      swap2\n      pop\n      pop\n      jump\t// out\n        /* \"#utility.yul\":21890:22195   */\n    tag_154:\n        /* \"#utility.yul\":21930:21933   */\n      0x00\n        /* \"#utility.yul\":21949:21969   */\n      tag_533\n        /* \"#utility.yul\":21967:21968   */\n      dup3\n        /* \"#utility.yul\":21949:21969   */\n      tag_470\n      jump\t// in\n    tag_533:\n        /* \"#utility.yul\":21944:21969   */\n      swap2\n      pop\n        /* \"#utility.yul\":21983:22003   */\n      tag_534\n        /* \"#utility.yul\":22001:22002   */\n      dup4\n        /* \"#utility.yul\":21983:22003   */\n      tag_470\n      jump\t// in\n    tag_534:\n        /* \"#utility.yul\":21978:22003   */\n      swap3\n      pop\n        /* \"#utility.yul\":22137:22138   */\n      dup3\n        /* \"#utility.yul\":22069:22135   */\n      0xffffffffffffffffffffffffffffffffffffffffffffffffffffffffffffffff\n        /* \"#utility.yul\":22065:22139   */\n      sub\n        /* \"#utility.yul\":22062:22063   */\n      dup3\n        /* \"#utility.yul\":22059:22140   */\n      gt\n        /* \"#utility.yul\":22056:22163   */\n      iszero\n      tag_535\n      jumpi\n        /* \"#utility.yul\":22143:22161   */\n      tag_536\n      tag_537\n      jump\t// in\n    tag_536:\n        /* \"#utility.yul\":22056:22163   */\n    tag_535:\n        /* \"#utility.yul\":22187:22188   */\n      dup3\n        /* \"#utility.yul\":22184:22185   */\n      dup3\n        /* \"#utility.yul\":22180:22189   */\n      add\n        /* \"#utility.yul\":22173:22189   */\n      swap1\n      pop\n        /* \"#utility.yul\":21890:22195   */\n      swap3\n      swap2\n      pop\n      pop\n      jump\t// out\n        /* \"#utility.yul\":22201:22386   */\n    tag_194:\n        /* \"#utility.yul\":22241:22242   */\n      0x00\n        /* \"#utility.yul\":22258:22278   */\n      tag_539\n        /* \"#utility.yul\":22276:22277   */\n      dup3\n        /* \"#utility.yul\":22258:22278   */\n      tag_470\n      jump\t// in\n    tag_539:\n        /* \"#utility.yul\":22253:22278   */\n      swap2\n      pop\n        /* \"#utility.yul\":22292:22312   */\n      tag_540\n        /* \"#utility.yul\":22310:22311   */\n      dup4\n        /* \"#utility.yul\":22292:22312   */\n      tag_470\n      jump\t// in\n    tag_540:\n        /* \"#utility.yul\":22287:22312   */\n      swap3\n      pop\n        /* \"#utility.yul\":22331:22332   */\n      dup3\n        /* \"#utility.yul\":22321:22356   */\n      tag_541\n      jumpi\n        /* \"#utility.yul\":22336:22354   */\n      tag_542\n      tag_543\n      jump\t// in\n    tag_542:\n        /* \"#utility.yul\":22321:22356   */\n    tag_541:\n        /* \"#utility.yul\":22378:22379   */\n      dup3\n        /* \"#utility.yul\":22375:22376   */\n      dup3\n        /* \"#utility.yul\":22371:22380   */\n      div\n        /* \"#utility.yul\":22366:22380   */\n      swap1\n      pop\n        /* \"#utility.yul\":22201:22386   */\n      swap3\n      swap2\n      pop\n      pop\n      jump\t// out\n        /* \"#utility.yul\":22392:22740   */\n    tag_160:\n        /* \"#utility.yul\":22432:22439   */\n      0x00\n        /* \"#utility.yul\":22455:22475   */\n      tag_545\n        /* \"#utility.yul\":22473:22474   */\n      dup3\n        /* \"#utility.yul\":22455:22475   */\n      tag_470\n      jump\t// in\n    tag_545:\n        /* \"#utility.yul\":22450:22475   */\n      swap2\n      pop\n        /* \"#utility.yul\":22489:22509   */\n      tag_546\n        /* \"#utility.yul\":22507:22508   */\n      dup4\n        /* \"#utility.yul\":22489:22509   */\n      tag_470\n      jump\t// in\n    tag_546:\n        /* \"#utility.yul\":22484:22509   */\n      swap3\n      pop\n        /* \"#utility.yul\":22677:22678   */\n      dup2\n        /* \"#utility.yul\":22609:22675   */\n      0xffffffffffffffffffffffffffffffffffffffffffffffffffffffffffffffff\n        /* \"#utility.yul\":22605:22679   */\n      div\n        /* \"#utility.yul\":22602:22603   */\n      dup4\n        /* \"#utility.yul\":22599:22680   */\n      gt\n        /* \"#utility.yul\":22594:22595   */\n      dup3\n        /* \"#utility.yul\":22587:22596   */\n      iszero\n        /* \"#utility.yul\":22580:22597   */\n      iszero\n        /* \"#utility.yul\":22576:22681   */\n      and\n        /* \"#utility.yul\":22573:22704   */\n      iszero\n      tag_547\n      jumpi\n        /* \"#utility.yul\":22684:22702   */\n      tag_548\n      tag_537\n      jump\t// in\n    tag_548:\n        /* \"#utility.yul\":22573:22704   */\n    tag_547:\n        /* \"#utility.yul\":22732:22733   */\n      dup3\n        /* \"#utility.yul\":22729:22730   */\n      dup3\n        /* \"#utility.yul\":22725:22734   */\n      mul\n        /* \"#utility.yul\":22714:22734   */\n      swap1\n      pop\n        /* \"#utility.yul\":22392:22740   */\n      swap3\n      swap2\n      pop\n      pop\n      jump\t// out\n        /* \"#utility.yul\":22746:22937   */\n    tag_199:\n        /* \"#utility.yul\":22786:22790   */\n      0x00\n        /* \"#utility.yul\":22806:22826   */\n      tag_550\n        /* \"#utility.yul\":22824:22825   */\n      dup3\n        /* \"#utility.yul\":22806:22826   */\n      tag_470\n      jump\t// in\n    tag_550:\n        /* \"#utility.yul\":22801:22826   */\n      swap2\n      pop\n        /* \"#utility.yul\":22840:22860   */\n      tag_551\n        /* \"#utility.yul\":22858:22859   */\n      dup4\n        /* \"#utility.yul\":22840:22860   */\n      tag_470\n      jump\t// in\n    tag_551:\n        /* \"#utility.yul\":22835:22860   */\n      swap3\n      pop\n        /* \"#utility.yul\":22879:22880   */\n      dup3\n        /* \"#utility.yul\":22876:22877   */\n      dup3\n        /* \"#utility.yul\":22873:22881   */\n      lt\n        /* \"#utility.yul\":22870:22904   */\n      iszero\n      tag_552\n      jumpi\n        /* \"#utility.yul\":22884:22902   */\n      tag_553\n      tag_537\n      jump\t// in\n    tag_553:\n        /* \"#utility.yul\":22870:22904   */\n    tag_552:\n        /* \"#utility.yul\":22929:22930   */\n      dup3\n        /* \"#utility.yul\":22926:22927   */\n      dup3\n        /* \"#utility.yul\":22922:22931   */\n      sub\n        /* \"#utility.yul\":22914:22931   */\n      swap1\n      pop\n        /* \"#utility.yul\":22746:22937   */\n      swap3\n      swap2\n      pop\n      pop\n      jump\t// out\n        /* \"#utility.yul\":22943:23039   */\n    tag_361:\n        /* \"#utility.yul\":22980:22987   */\n      0x00\n        /* \"#utility.yul\":23009:23033   */\n      tag_555\n        /* \"#utility.yul\":23027:23032   */\n      dup3\n        /* \"#utility.yul\":23009:23033   */\n      tag_556\n      jump\t// in\n    tag_555:\n        /* \"#utility.yul\":22998:23033   */\n      swap1\n      pop\n        /* \"#utility.yul\":22943:23039   */\n      swap2\n      swap1\n      pop\n      jump\t// out\n        /* \"#utility.yul\":23045:23135   */\n    tag_424:\n        /* \"#utility.yul\":23079:23086   */\n      0x00\n        /* \"#utility.yul\":23122:23127   */\n      dup2\n        /* \"#utility.yul\":23115:23128   */\n      iszero\n        /* \"#utility.yul\":23108:23129   */\n      iszero\n        /* \"#utility.yul\":23097:23129   */\n      swap1\n      pop\n        /* \"#utility.yul\":23045:23135   */\n      swap2\n      swap1\n      pop\n      jump\t// out\n        /* \"#utility.yul\":23141:23267   */\n    tag_556:\n        /* \"#utility.yul\":23178:23185   */\n      0x00\n        /* \"#utility.yul\":23218:23260   */\n      0xffffffffffffffffffffffffffffffffffffffff\n        /* \"#utility.yul\":23211:23216   */\n      dup3\n        /* \"#utility.yul\":23207:23261   */\n      and\n        /* \"#utility.yul\":23196:23261   */\n      swap1\n      pop\n        /* \"#utility.yul\":23141:23267   */\n      swap2\n      swap1\n      pop\n      jump\t// out\n        /* \"#utility.yul\":23273:23350   */\n    tag_470:\n        /* \"#utility.yul\":23310:23317   */\n      0x00\n        /* \"#utility.yul\":23339:23344   */\n      dup2\n        /* \"#utility.yul\":23328:23344   */\n      swap1\n      pop\n        /* \"#utility.yul\":23273:23350   */\n      swap2\n      swap1\n      pop\n      jump\t// out\n        /* \"#utility.yul\":23356:23589   */\n    tag_150:\n        /* \"#utility.yul\":23395:23398   */\n      0x00\n        /* \"#utility.yul\":23418:23442   */\n      tag_561\n        /* \"#utility.yul\":23436:23441   */\n      dup3\n        /* \"#utility.yul\":23418:23442   */\n      tag_470\n      jump\t// in\n    tag_561:\n        /* \"#utility.yul\":23409:23442   */\n      swap2\n      pop\n        /* \"#utility.yul\":23464:23530   */\n      0xffffffffffffffffffffffffffffffffffffffffffffffffffffffffffffffff\n        /* \"#utility.yul\":23457:23462   */\n      dup3\n        /* \"#utility.yul\":23454:23531   */\n      eq\n        /* \"#utility.yul\":23451:23554   */\n      iszero\n      tag_562\n      jumpi\n        /* \"#utility.yul\":23534:23552   */\n      tag_563\n      tag_537\n      jump\t// in\n    tag_563:\n        /* \"#utility.yul\":23451:23554   */\n    tag_562:\n        /* \"#utility.yul\":23581:23582   */\n      0x01\n        /* \"#utility.yul\":23574:23579   */\n      dup3\n        /* \"#utility.yul\":23570:23583   */\n      add\n        /* \"#utility.yul\":23563:23583   */\n      swap1\n      pop\n        /* \"#utility.yul\":23356:23589   */\n      swap2\n      swap1\n      pop\n      jump\t// out\n        /* \"#utility.yul\":23595:23775   */\n    tag_537:\n        /* \"#utility.yul\":23643:23720   */\n      0x4e487b7100000000000000000000000000000000000000000000000000000000\n        /* \"#utility.yul\":23640:23641   */\n      0x00\n        /* \"#utility.yul\":23633:23721   */\n      mstore\n        /* \"#utility.yul\":23740:23744   */\n      0x11\n        /* \"#utility.yul\":23737:23738   */\n      0x04\n        /* \"#utility.yul\":23730:23745   */\n      mstore\n        /* \"#utility.yul\":23764:23768   */\n      0x24\n        /* \"#utility.yul\":23761:23762   */\n      0x00\n        /* \"#utility.yul\":23754:23769   */\n      revert\n        /* \"#utility.yul\":23781:23961   */\n    tag_543:\n        /* \"#utility.yul\":23829:23906   */\n      0x4e487b7100000000000000000000000000000000000000000000000000000000\n        /* \"#utility.yul\":23826:23827   */\n      0x00\n        /* \"#utility.yul\":23819:23907   */\n      mstore\n        /* \"#utility.yul\":23926:23930   */\n      0x12\n        /* \"#utility.yul\":23923:23924   */\n      0x04\n        /* \"#utility.yul\":23916:23931   */\n      mstore\n        /* \"#utility.yul\":23950:23954   */\n      0x24\n        /* \"#utility.yul\":23947:23948   */\n      0x00\n        /* \"#utility.yul\":23940:23955   */\n      revert\n        /* \"#utility.yul\":23967:24147   */\n    tag_189:\n        /* \"#utility.yul\":24015:24092   */\n      0x4e487b7100000000000000000000000000000000000000000000000000000000\n        /* \"#utility.yul\":24012:24013   */\n      0x00\n        /* \"#utility.yul\":24005:24093   */\n      mstore\n        /* \"#utility.yul\":24112:24116   */\n      0x32\n        /* \"#utility.yul\":24109:24110   */\n      0x04\n        /* \"#utility.yul\":24102:24117   */\n      mstore\n        /* \"#utility.yul\":24136:24140   */\n      0x24\n        /* \"#utility.yul\":24133:24134   */\n      0x00\n        /* \"#utility.yul\":24126:24141   */\n      revert\n        /* \"#utility.yul\":24153:24333   */\n    tag_178:\n        /* \"#utility.yul\":24201:24278   */\n      0x4e487b7100000000000000000000000000000000000000000000000000000000\n        /* \"#utility.yul\":24198:24199   */\n      0x00\n        /* \"#utility.yul\":24191:24279   */\n      mstore\n        /* \"#utility.yul\":24298:24302   */\n      0x41\n        /* \"#utility.yul\":24295:24296   */\n      0x04\n        /* \"#utility.yul\":24288:24303   */\n      mstore\n        /* \"#utility.yul\":24322:24326   */\n      0x24\n        /* \"#utility.yul\":24319:24320   */\n      0x00\n        /* \"#utility.yul\":24312:24327   */\n      revert\n        /* \"#utility.yul\":24462:24579   */\n    tag_316:\n        /* \"#utility.yul\":24571:24572   */\n      0x00\n        /* \"#utility.yul\":24568:24569   */\n      dup1\n        /* \"#utility.yul\":24561:24573   */\n      revert\n        /* \"#utility.yul\":24585:24809   */\n    tag_433:\n        /* \"#utility.yul\":24725:24759   */\n      0x796f7520646f6e74206861766520696e766573746d656e7420746f2077697468\n        /* \"#utility.yul\":24721:24722   */\n      0x00\n        /* \"#utility.yul\":24713:24719   */\n      dup3\n        /* \"#utility.yul\":24709:24723   */\n      add\n        /* \"#utility.yul\":24702:24760   */\n      mstore\n        /* \"#utility.yul\":24794:24801   */\n      0x647261776e000000000000000000000000000000000000000000000000000000\n        /* \"#utility.yul\":24789:24791   */\n      0x20\n        /* \"#utility.yul\":24781:24787   */\n      dup3\n        /* \"#utility.yul\":24777:24792   */\n      add\n        /* \"#utility.yul\":24770:24802   */\n      mstore\n        /* \"#utility.yul\":24585:24809   */\n      pop\n      jump\t// out\n        /* \"#utility.yul\":24815:25055   */\n    tag_438:\n        /* \"#utility.yul\":24955:24989   */\n      0x76616c7565206973206e6f742067726561746572207468616e20313030303020\n        /* \"#utility.yul\":24951:24952   */\n      0x00\n        /* \"#utility.yul\":24943:24949   */\n      dup3\n        /* \"#utility.yul\":24939:24953   */\n      add\n        /* \"#utility.yul\":24932:24990   */\n      mstore\n        /* \"#utility.yul\":25024:25047   */\n      0x616e64206c657373207468616e20353030303030300000000000000000000000\n        /* \"#utility.yul\":25019:25021   */\n      0x20\n        /* \"#utility.yul\":25011:25017   */\n      dup3\n        /* \"#utility.yul\":25007:25022   */\n      add\n        /* \"#utility.yul\":25000:25048   */\n      mstore\n        /* \"#utility.yul\":24815:25055   */\n      pop\n      jump\t// out\n        /* \"#utility.yul\":25061:25282   */\n    tag_443:\n        /* \"#utility.yul\":25201:25235   */\n      0x796f7520646f6e742068617665207265776172647320746f2077697468647261\n        /* \"#utility.yul\":25197:25198   */\n      0x00\n        /* \"#utility.yul\":25189:25195   */\n      dup3\n        /* \"#utility.yul\":25185:25199   */\n      add\n        /* \"#utility.yul\":25178:25236   */\n      mstore\n        /* \"#utility.yul\":25270:25274   */\n      0x776e000000000000000000000000000000000000000000000000000000000000\n        /* \"#utility.yul\":25265:25267   */\n      0x20\n        /* \"#utility.yul\":25257:25263   */\n      dup3\n        /* \"#utility.yul\":25253:25268   */\n      add\n        /* \"#utility.yul\":25246:25275   */\n      mstore\n        /* \"#utility.yul\":25061:25282   */\n      pop\n      jump\t// out\n        /* \"#utility.yul\":25288:25469   */\n    tag_448:\n        /* \"#utility.yul\":25428:25461   */\n      0x796f752063616e74207769746864726177206265666f72652031207965617200\n        /* \"#utility.yul\":25424:25425   */\n      0x00\n        /* \"#utility.yul\":25416:25422   */\n      dup3\n        /* \"#utility.yul\":25412:25426   */\n      add\n        /* \"#utility.yul\":25405:25462   */\n      mstore\n        /* \"#utility.yul\":25288:25469   */\n      pop\n      jump\t// out\n        /* \"#utility.yul\":25475:25695   */\n    tag_453:\n        /* \"#utility.yul\":25615:25649   */\n      0x6f6e6c79204f776e65722063616e2063616c6c20746869732066756e6374696f\n        /* \"#utility.yul\":25611:25612   */\n      0x00\n        /* \"#utility.yul\":25603:25609   */\n      dup3\n        /* \"#utility.yul\":25599:25613   */\n      add\n        /* \"#utility.yul\":25592:25650   */\n      mstore\n        /* \"#utility.yul\":25684:25687   */\n      0x6e00000000000000000000000000000000000000000000000000000000000000\n        /* \"#utility.yul\":25679:25681   */\n      0x20\n        /* \"#utility.yul\":25671:25677   */\n      dup3\n        /* \"#utility.yul\":25667:25682   */\n      add\n        /* \"#utility.yul\":25660:25688   */\n      mstore\n        /* \"#utility.yul\":25475:25695   */\n      pop\n      jump\t// out\n        /* \"#utility.yul\":25701:25823   */\n    tag_304:\n        /* \"#utility.yul\":25774:25798   */\n      tag_577\n        /* \"#utility.yul\":25792:25797   */\n      dup2\n        /* \"#utility.yul\":25774:25798   */\n      tag_361\n      jump\t// in\n    tag_577:\n        /* \"#utility.yul\":25767:25772   */\n      dup2\n        /* \"#utility.yul\":25764:25799   */\n      eq\n        /* \"#utility.yul\":25754:25817   */\n      tag_578\n      jumpi\n        /* \"#utility.yul\":25813:25814   */\n      0x00\n        /* \"#utility.yul\":25810:25811   */\n      dup1\n        /* \"#utility.yul\":25803:25815   */\n      revert\n        /* \"#utility.yul\":25754:25817   */\n    tag_578:\n        /* \"#utility.yul\":25701:25823   */\n      pop\n      jump\t// out\n        /* \"#utility.yul\":25829:25945   */\n    tag_308:\n        /* \"#utility.yul\":25899:25920   */\n      tag_580\n        /* \"#utility.yul\":25914:25919   */\n      dup2\n        /* \"#utility.yul\":25899:25920   */\n      tag_424\n      jump\t// in\n    tag_580:\n        /* \"#utility.yul\":25892:25897   */\n      dup2\n        /* \"#utility.yul\":25889:25921   */\n      eq\n        /* \"#utility.yul\":25879:25939   */\n      tag_581\n      jumpi\n        /* \"#utility.yul\":25935:25936   */\n      0x00\n        /* \"#utility.yul\":25932:25933   */\n      dup1\n        /* \"#utility.yul\":25925:25937   */\n      revert\n        /* \"#utility.yul\":25879:25939   */\n    tag_581:\n        /* \"#utility.yul\":25829:25945   */\n      pop\n      jump\t// out\n        /* \"#utility.yul\":25951:26073   */\n    tag_312:\n        /* \"#utility.yul\":26024:26048   */\n      tag_583\n        /* \"#utility.yul\":26042:26047   */\n      dup2\n        /* \"#utility.yul\":26024:26048   */\n      tag_470\n      jump\t// in\n    tag_583:\n        /* \"#utility.yul\":26017:26022   */\n      dup2\n        /* \"#utility.yul\":26014:26049   */\n      eq\n        /* \"#utility.yul\":26004:26067   */\n      tag_584\n      jumpi\n        /* \"#utility.yul\":26063:26064   */\n      0x00\n        /* \"#utility.yul\":26060:26061   */\n      dup1\n        /* \"#utility.yul\":26053:26065   */\n      revert\n        /* \"#utility.yul\":26004:26067   */\n    tag_584:\n        /* \"#utility.yul\":25951:26073   */\n      pop\n      jump\t// out\n\n    auxdata: 0xa264697066735822122056acfa95ac5f9fd27eec0c180b61c2ab778d5188c17c0124630851832e36ae4064736f6c63430008070033\n}\n",
				"bytecode": {
					"linkReferences": {},
					"object": "6080604052739462a065c980693808405eb4f2851f0ffa1d3016600160006101000a81548173ffffffffffffffffffffffffffffffffffffffff021916908373ffffffffffffffffffffffffffffffffffffffff16021790555073c8bba86a801cd87ca72222d5a43639592fbaa6ec600260006101000a81548173ffffffffffffffffffffffffffffffffffffffff021916908373ffffffffffffffffffffffffffffffffffffffff16021790555060bf600355674563918244f40000600555612710600655624c4b40600755620186a06008556301e133806009553480156100e757600080fd5b50336000806101000a81548173ffffffffffffffffffffffffffffffffffffffff021916908373ffffffffffffffffffffffffffffffffffffffff160217905550612ccc806101376000396000f3fe608060405234801561001057600080fd5b50600436106101c45760003560e01c80638da5cb5b116100f9578063c885bc5811610097578063f2fde38b11610071578063f2fde38b146104df578063f790b81a146104fb578063f7c618c114610519578063fae730bc14610537576101c4565b8063c885bc581461046d578063d3560ee81461048b578063e2033fcb146104c1576101c4565b8063a47bd496116100d3578063a47bd496146103e5578063a61be99d14610401578063bc2fd8301461041f578063bc67eaff1461044f576101c4565b80638da5cb5b1461038b578063929f6bbe146103a95780639740a1bc146103c7576101c4565b806342508f6611610166578063502c6bfa11610140578063502c6bfa14610301578063523cddfe146103315780635a4a01921461034f57806373cf575a1461036d576101c4565b806342508f66146102ab5780634eb1ecc9146102c9578063500cb85f146102e5576101c4565b80632bccdce6116101a25780632bccdce61461022357806332d4e783146102535780633a1e08331461026f5780633d18b9121461028d576101c4565b80630c5f58f4146101c957806310cde60a146101e75780631e8aba3514610205575b600080fd5b6101d1610555565b6040516101de9190612632565b60405180910390f35b6101ef610623565b6040516101fc9190612775565b60405180910390f35b61020d610629565b60405161021a9190612775565b60405180910390f35b61023d6004803603810190610238919061208a565b610676565b60405161024a91906126ba565b60405180910390f35b61026d6004803603810190610268919061205d565b610c51565b005b610277610c5b565b6040516102849190612676565b60405180910390f35b610295610eec565b6040516102a29190612775565b60405180910390f35b6102b3610fbd565b6040516102c09190612654565b60405180910390f35b6102e360048036038101906102de919061210a565b61134f565b005b6102ff60048036038101906102fa919061205d565b611371565b005b61031b6004803603810190610316919061205d565b61137b565b6040516103289190612548565b60405180910390f35b6103396113ae565b6040516103469190612775565b60405180910390f35b6103576113b4565b6040516103649190612775565b60405180910390f35b610375611403565b60405161038291906126ba565b60405180910390f35b6103936117e6565b6040516103a09190612548565b60405180910390f35b6103b161180a565b6040516103be9190612775565b60405180910390f35b6103cf611854565b6040516103dc9190612775565b60405180910390f35b6103ff60048036038101906103fa91906120ca565b61185a565b005b61040961186c565b6040516104169190612698565b60405180910390f35b61043960048036038101906104349190612003565b6119df565b6040516104469190612775565b60405180910390f35b610457611ab2565b6040516104649190612775565b60405180910390f35b610475611ab8565b60405161048291906126ba565b60405180910390f35b6104a560048036038101906104a09190612003565b611c2c565b6040516104b897969594939291906125c3565b60405180910390f35b6104c9611c9b565b6040516104d69190612775565b60405180910390f35b6104f960048036038101906104f49190612003565b611ca1565b005b610503611d72565b6040516105109190612698565b60405180910390f35b610521611ee5565b60405161052e9190612775565b60405180910390f35b61053f611eeb565b60405161054c9190612775565b60405180910390f35b6060600d60003373ffffffffffffffffffffffffffffffffffffffff1673ffffffffffffffffffffffffffffffffffffffff16815260200190815260200160002060010180548060200260200160405190810160405280929190818152602001828054801561061957602002820191906000526020600020905b8160009054906101000a900473ffffffffffffffffffffffffffffffffffffffff1673ffffffffffffffffffffffffffffffffffffffff16815260200190600101908083116105cf575b5050505050905090565b60045481565b6000600d60003373ffffffffffffffffffffffffffffffffffffffff1673ffffffffffffffffffffffffffffffffffffffff16815260200190815260200160002060010180549050905090565b6000600654831015801561068c57506007548311155b6106cb576040517f08c379a00000000000000000000000000000000000000000000000000000000081526004016106c2906126f5565b60405180910390fd5b60001515600d60003373ffffffffffffffffffffffffffffffffffffffff1673ffffffffffffffffffffffffffffffffffffffff16815260200190815260200160002060080160009054906101000a900460ff16151514156107985733600c6000600454815260200190815260200160002060006101000a81548173ffffffffffffffffffffffffffffffffffffffff021916908373ffffffffffffffffffffffffffffffffffffffff1602179055506004600081548092919061078e906129e2565b91905055506107fe565b600d60003373ffffffffffffffffffffffffffffffffffffffff1673ffffffffffffffffffffffffffffffffffffffff16815260200190815260200160002060020160009054906101000a900473ffffffffffffffffffffffffffffffffffffffff1691505b6000600d60003373ffffffffffffffffffffffffffffffffffffffff1673ffffffffffffffffffffffffffffffffffffffff1681526020019081526020016000206006015414156108a0576301e13380426108599190612885565b600d60003373ffffffffffffffffffffffffffffffffffffffff1673ffffffffffffffffffffffffffffffffffffffff168152602001908152602001600020600901819055505b6000600d60003373ffffffffffffffffffffffffffffffffffffffff1673ffffffffffffffffffffffffffffffffffffffff16815260200190815260200160002060050154905083600d60003373ffffffffffffffffffffffffffffffffffffffff1673ffffffffffffffffffffffffffffffffffffffff16815260200190815260200160002060000160008381526020019081526020016000206000018190555042600d60003373ffffffffffffffffffffffffffffffffffffffff1673ffffffffffffffffffffffffffffffffffffffff168152602001908152602001600020600001600083815260200190815260200160002060020181905550600954426109ab9190612885565b600d60003373ffffffffffffffffffffffffffffffffffffffff1673ffffffffffffffffffffffffffffffffffffffff16815260200190815260200160002060000160008381526020019081526020016000206001018190555080600d60003373ffffffffffffffffffffffffffffffffffffffff1673ffffffffffffffffffffffffffffffffffffffff16815260200190815260200160002060000160008381526020019081526020016000206003018190555083600d60003373ffffffffffffffffffffffffffffffffffffffff1673ffffffffffffffffffffffffffffffffffffffff1681526020019081526020016000206006016000828254610ab29190612885565b92505081905550600d60003373ffffffffffffffffffffffffffffffffffffffff1673ffffffffffffffffffffffffffffffffffffffff1681526020019081526020016000206005016000815480929190610b0c906129e2565b919050555083600a6000828254610b239190612885565b92505081905550600160009054906101000a900473ffffffffffffffffffffffffffffffffffffffff1673ffffffffffffffffffffffffffffffffffffffff166323b872dd33306305f5e10088610b7a919061290c565b6040518463ffffffff1660e01b8152600401610b9893929190612563565b602060405180830381600087803b158015610bb257600080fd5b505af1158015610bc6573d6000803e3d6000fd5b505050506040513d601f19601f82011682018060405250810190610bea9190612030565b506001600d60003373ffffffffffffffffffffffffffffffffffffffff1673ffffffffffffffffffffffffffffffffffffffff16815260200190815260200160002060080160006101000a81548160ff021916908315150217905550600191505092915050565b8060068190555050565b60606000600d60003373ffffffffffffffffffffffffffffffffffffffff1673ffffffffffffffffffffffffffffffffffffffff16815260200190815260200160002060050154905060008060005b83811015610d33576000600d60003373ffffffffffffffffffffffffffffffffffffffff1673ffffffffffffffffffffffffffffffffffffffff1681526020019081526020016000206000016000838152602001908152602001600020600001541115610d20578280610d1c906129e2565b9350505b8080610d2b906129e2565b915050610caa565b5060008267ffffffffffffffff811115610d5057610d4f612ab8565b5b604051908082528060200260200182016040528015610d8957816020015b610d76611f40565b815260200190600190039081610d6e5790505b50905060005b84811015610ee1576000600d60003373ffffffffffffffffffffffffffffffffffffffff1673ffffffffffffffffffffffffffffffffffffffff1681526020019081526020016000206000016000838152602001908152602001600020600001541115610ece57600d60003373ffffffffffffffffffffffffffffffffffffffff1673ffffffffffffffffffffffffffffffffffffffff16815260200190815260200160002060000160008281526020019081526020016000206040518060c001604052908160008201548152602001600182015481526020016002820154815260200160038201548152602001600482015481526020016005820160009054906101000a900460ff161515151581525050828481518110610eb457610eb3612a89565b5b60200260200101819052508280610eca906129e2565b9350505b8080610ed9906129e2565b915050610d8f565b508094505050505090565b6000806064600a54600d60003373ffffffffffffffffffffffffffffffffffffffff1673ffffffffffffffffffffffffffffffffffffffff16815260200190815260200160002060060154610f4191906128db565b610f4b919061290c565b6064600354610f5a91906128db565b610f64919061290c565b9050600d60003373ffffffffffffffffffffffffffffffffffffffff1673ffffffffffffffffffffffffffffffffffffffff1681526020019081526020016000206007015481610fb49190612966565b90508091505090565b6060600060045467ffffffffffffffff811115610fdd57610fdc612ab8565b5b60405190808252806020026020018201604052801561101657816020015b611003611f78565b815260200190600190039081610ffb5790505b50905060005b60045481101561134757600c600082815260200190815260200160002060009054906101000a900473ffffffffffffffffffffffffffffffffffffffff1682828151811061106d5761106c612a89565b5b60200260200101516000019073ffffffffffffffffffffffffffffffffffffffff16908173ffffffffffffffffffffffffffffffffffffffff1681525050600d6000600c600084815260200190815260200160002060009054906101000a900473ffffffffffffffffffffffffffffffffffffffff1673ffffffffffffffffffffffffffffffffffffffff1673ffffffffffffffffffffffffffffffffffffffff1681526020019081526020016000206006015482828151811061113457611133612a89565b5b60200260200101516020018181525050611180600c600083815260200190815260200160002060009054906101000a900473ffffffffffffffffffffffffffffffffffffffff166119df565b82828151811061119357611192612a89565b5b60200260200101516040018181525050600d6000600c600084815260200190815260200160002060009054906101000a900473ffffffffffffffffffffffffffffffffffffffff1673ffffffffffffffffffffffffffffffffffffffff1673ffffffffffffffffffffffffffffffffffffffff1681526020019081526020016000206005015482828151811061122c5761122b612a89565b5b60200260200101516060018181525050600d6000600c600084815260200190815260200160002060009054906101000a900473ffffffffffffffffffffffffffffffffffffffff1673ffffffffffffffffffffffffffffffffffffffff1673ffffffffffffffffffffffffffffffffffffffff168152602001908152602001600020600701548282815181106112c5576112c4612a89565b5b60200260200101516080018181525050611311600c600083815260200190815260200160002060009054906101000a900473ffffffffffffffffffffffffffffffffffffffff16611ef1565b82828151811061132457611323612a89565b5b602002602001015160a0018181525050808061133f906129e2565b91505061101c565b508091505090565b8260078190555083600681905550816005819055508060088190555050505050565b8060078190555050565b600c6020528060005260406000206000915054906101000a900473ffffffffffffffffffffffffffffffffffffffff1681565b60095481565b600080600d60003373ffffffffffffffffffffffffffffffffffffffff1673ffffffffffffffffffffffffffffffffffffffff1681526020019081526020016000206007015490508091505090565b600080600d60003373ffffffffffffffffffffffffffffffffffffffff1673ffffffffffffffffffffffffffffffffffffffff1681526020019081526020016000206006015411611489576040517f08c379a0000000000000000000000000000000000000000000000000000000008152600401611480906126d5565b60405180910390fd5b42600d60003373ffffffffffffffffffffffffffffffffffffffff1673ffffffffffffffffffffffffffffffffffffffff168152602001908152602001600020600901541061150d576040517f08c379a000000000000000000000000000000000000000000000000000000000815260040161150490612735565b60405180910390fd5b6000600d60003373ffffffffffffffffffffffffffffffffffffffff1673ffffffffffffffffffffffffffffffffffffffff1681526020019081526020016000206006015490506000600d60003373ffffffffffffffffffffffffffffffffffffffff1673ffffffffffffffffffffffffffffffffffffffff1681526020019081526020016000206005015490506000600b549050600160009054906101000a900473ffffffffffffffffffffffffffffffffffffffff1673ffffffffffffffffffffffffffffffffffffffff1663a9059cbb336305f5e100866115f1919061290c565b6040518363ffffffff1660e01b815260040161160e92919061259a565b602060405180830381600087803b15801561162857600080fd5b505af115801561163c573d6000803e3d6000fd5b505050506040513d601f19601f820116820180604052508101906116609190612030565b50600090505b8181101561174b576001600d60003373ffffffffffffffffffffffffffffffffffffffff1673ffffffffffffffffffffffffffffffffffffffff168152602001908152602001600020600001600083815260200190815260200160002060050160006101000a81548160ff02191690831515021790555042600d60003373ffffffffffffffffffffffffffffffffffffffff1673ffffffffffffffffffffffffffffffffffffffff1681526020019081526020016000206000016000838152602001908152602001600020600401819055508080611743906129e2565b915050611666565b600d60003373ffffffffffffffffffffffffffffffffffffffff1673ffffffffffffffffffffffffffffffffffffffff16815260200190815260200160002060050154600b819055506000600d60003373ffffffffffffffffffffffffffffffffffffffff1673ffffffffffffffffffffffffffffffffffffffff168152602001908152602001600020600601819055506001935050505090565b60008054906101000a900473ffffffffffffffffffffffffffffffffffffffff1681565b6000600d60003373ffffffffffffffffffffffffffffffffffffffff1673ffffffffffffffffffffffffffffffffffffffff16815260200190815260200160002060060154905090565b60085481565b81600581905550806008819055505050565b60606000601467ffffffffffffffff81111561188b5761188a612ab8565b5b6040519080825280602002602001820160405280156118b95781602001602082028036833780820191505090505b50905060005b60148110156119d7576000600d60003373ffffffffffffffffffffffffffffffffffffffff1673ffffffffffffffffffffffffffffffffffffffff16815260200190815260200160002060030160008381526020019081526020016000206000015411156119a257600d60003373ffffffffffffffffffffffffffffffffffffffff1673ffffffffffffffffffffffffffffffffffffffff16815260200190815260200160002060030160008281526020019081526020016000206000015482828151811061199157611990612a89565b5b6020026020010181815250506119c4565b60008282815181106119b7576119b6612a89565b5b6020026020010181815250505b80806119cf906129e2565b9150506118bf565b508091505090565b6000806064600a54600d60008673ffffffffffffffffffffffffffffffffffffffff1673ffffffffffffffffffffffffffffffffffffffff16815260200190815260200160002060060154611a3491906128db565b611a3e919061290c565b6064600354611a4d91906128db565b611a57919061290c565b9050600d60008473ffffffffffffffffffffffffffffffffffffffff1673ffffffffffffffffffffffffffffffffffffffff1681526020019081526020016000206007015481611aa79190612966565b905080915050919050565b60065481565b600080611ac3610eec565b905060008111611b08576040517f08c379a0000000000000000000000000000000000000000000000000000000008152600401611aff90612715565b60405180910390fd5b600260009054906101000a900473ffffffffffffffffffffffffffffffffffffffff1673ffffffffffffffffffffffffffffffffffffffff1663a9059cbb33670de0b6b3a764000084611b5b919061290c565b6040518363ffffffff1660e01b8152600401611b7892919061259a565b602060405180830381600087803b158015611b9257600080fd5b505af1158015611ba6573d6000803e3d6000fd5b505050506040513d601f19601f82011682018060405250810190611bca9190612030565b5080600d60003373ffffffffffffffffffffffffffffffffffffffff1673ffffffffffffffffffffffffffffffffffffffff1681526020019081526020016000206007016000828254611c1d9190612885565b92505081905550600191505090565b600d6020528060005260406000206000915090508060020160009054906101000a900473ffffffffffffffffffffffffffffffffffffffff16908060040154908060050154908060060154908060070154908060080160009054906101000a900460ff16908060090154905087565b600a5481565b60008054906101000a900473ffffffffffffffffffffffffffffffffffffffff1673ffffffffffffffffffffffffffffffffffffffff163373ffffffffffffffffffffffffffffffffffffffff1614611d2f576040517f08c379a0000000000000000000000000000000000000000000000000000000008152600401611d2690612755565b60405180910390fd5b806000806101000a81548173ffffffffffffffffffffffffffffffffffffffff021916908373ffffffffffffffffffffffffffffffffffffffff16021790555050565b60606000601467ffffffffffffffff811115611d9157611d90612ab8565b5b604051908082528060200260200182016040528015611dbf5781602001602082028036833780820191505090505b50905060005b6014811015611edd576000600d60003373ffffffffffffffffffffffffffffffffffffffff1673ffffffffffffffffffffffffffffffffffffffff1681526020019081526020016000206003016000838152602001908152602001600020600001541115611ea857600d60003373ffffffffffffffffffffffffffffffffffffffff1673ffffffffffffffffffffffffffffffffffffffff168152602001908152602001600020600301600082815260200190815260200160002060010154828281518110611e9757611e96612a89565b5b602002602001018181525050611eca565b6000828281518110611ebd57611ebc612a89565b5b6020026020010181815250505b8080611ed5906129e2565b915050611dc5565b508091505090565b60055481565b60075481565b6000600d60008373ffffffffffffffffffffffffffffffffffffffff1673ffffffffffffffffffffffffffffffffffffffff168152602001908152602001600020600101805490509050919050565b6040518060c0016040528060008152602001600081526020016000815260200160008152602001600081526020016000151581525090565b6040518060c00160405280600073ffffffffffffffffffffffffffffffffffffffff16815260200160008152602001600081526020016000815260200160008152602001600081525090565b600081359050611fd381612c51565b92915050565b600081519050611fe881612c68565b92915050565b600081359050611ffd81612c7f565b92915050565b60006020828403121561201957612018612ae7565b5b600061202784828501611fc4565b91505092915050565b60006020828403121561204657612045612ae7565b5b600061205484828501611fd9565b91505092915050565b60006020828403121561207357612072612ae7565b5b600061208184828501611fee565b91505092915050565b600080604083850312156120a1576120a0612ae7565b5b60006120af85828601611fee565b92505060206120c085828601611fc4565b9150509250929050565b600080604083850312156120e1576120e0612ae7565b5b60006120ef85828601611fee565b925050602061210085828601611fee565b9150509250929050565b6000806000806080858703121561212457612123612ae7565b5b600061213287828801611fee565b945050602061214387828801611fee565b935050604061215487828801611fee565b925050606061216587828801611fee565b91505092959194509250565b600061217d83836121d1565b60208301905092915050565b60006121958383612434565b60c08301905092915050565b60006121ad83836124af565b60c08301905092915050565b60006121c5838361252a565b60208301905092915050565b6121da8161299a565b82525050565b6121e98161299a565b82525050565b60006121fa826127d0565b6122048185612830565b935061220f83612790565b8060005b838110156122405781516122278882612171565b9750612232836127fc565b925050600181019050612213565b5085935050505092915050565b6000612258826127db565b6122628185612841565b935061226d836127a0565b8060005b8381101561229e5781516122858882612189565b975061229083612809565b925050600181019050612271565b5085935050505092915050565b60006122b6826127e6565b6122c08185612852565b93506122cb836127b0565b8060005b838110156122fc5781516122e388826121a1565b97506122ee83612816565b9250506001810190506122cf565b5085935050505092915050565b6000612314826127f1565b61231e8185612863565b9350612329836127c0565b8060005b8381101561235a57815161234188826121b9565b975061234c83612823565b92505060018101905061232d565b5085935050505092915050565b612370816129ac565b82525050565b61237f816129ac565b82525050565b6000612392602583612874565b915061239d82612aec565b604082019050919050565b60006123b5603583612874565b91506123c082612b3b565b604082019050919050565b60006123d8602283612874565b91506123e382612b8a565b604082019050919050565b60006123fb601f83612874565b915061240682612bd9565b602082019050919050565b600061241e602183612874565b915061242982612c02565b604082019050919050565b60c08201600082015161244a60008501826121d1565b50602082015161245d602085018261252a565b506040820151612470604085018261252a565b506060820151612483606085018261252a565b506080820151612496608085018261252a565b5060a08201516124a960a085018261252a565b50505050565b60c0820160008201516124c5600085018261252a565b5060208201516124d8602085018261252a565b5060408201516124eb604085018261252a565b5060608201516124fe606085018261252a565b506080820151612511608085018261252a565b5060a082015161252460a0850182612367565b50505050565b612533816129d8565b82525050565b612542816129d8565b82525050565b600060208201905061255d60008301846121e0565b92915050565b600060608201905061257860008301866121e0565b61258560208301856121e0565b6125926040830184612539565b949350505050565b60006040820190506125af60008301856121e0565b6125bc6020830184612539565b9392505050565b600060e0820190506125d8600083018a6121e0565b6125e56020830189612539565b6125f26040830188612539565b6125ff6060830187612539565b61260c6080830186612539565b61261960a0830185612376565b61262660c0830184612539565b98975050505050505050565b6000602082019050818103600083015261264c81846121ef565b905092915050565b6000602082019050818103600083015261266e818461224d565b905092915050565b6000602082019050818103600083015261269081846122ab565b905092915050565b600060208201905081810360008301526126b28184612309565b905092915050565b60006020820190506126cf6000830184612376565b92915050565b600060208201905081810360008301526126ee81612385565b9050919050565b6000602082019050818103600083015261270e816123a8565b9050919050565b6000602082019050818103600083015261272e816123cb565b9050919050565b6000602082019050818103600083015261274e816123ee565b9050919050565b6000602082019050818103600083015261276e81612411565b9050919050565b600060208201905061278a6000830184612539565b92915050565b6000819050602082019050919050565b6000819050602082019050919050565b6000819050602082019050919050565b6000819050602082019050919050565b600081519050919050565b600081519050919050565b600081519050919050565b600081519050919050565b6000602082019050919050565b6000602082019050919050565b6000602082019050919050565b6000602082019050919050565b600082825260208201905092915050565b600082825260208201905092915050565b600082825260208201905092915050565b600082825260208201905092915050565b600082825260208201905092915050565b6000612890826129d8565b915061289b836129d8565b9250827fffffffffffffffffffffffffffffffffffffffffffffffffffffffffffffffff038211156128d0576128cf612a2b565b5b828201905092915050565b60006128e6826129d8565b91506128f1836129d8565b92508261290157612900612a5a565b5b828204905092915050565b6000612917826129d8565b9150612922836129d8565b9250817fffffffffffffffffffffffffffffffffffffffffffffffffffffffffffffffff048311821515161561295b5761295a612a2b565b5b828202905092915050565b6000612971826129d8565b915061297c836129d8565b92508282101561298f5761298e612a2b565b5b828203905092915050565b60006129a5826129b8565b9050919050565b60008115159050919050565b600073ffffffffffffffffffffffffffffffffffffffff82169050919050565b6000819050919050565b60006129ed826129d8565b91507fffffffffffffffffffffffffffffffffffffffffffffffffffffffffffffffff821415612a2057612a1f612a2b565b5b600182019050919050565b7f4e487b7100000000000000000000000000000000000000000000000000000000600052601160045260246000fd5b7f4e487b7100000000000000000000000000000000000000000000000000000000600052601260045260246000fd5b7f4e487b7100000000000000000000000000000000000000000000000000000000600052603260045260246000fd5b7f4e487b7100000000000000000000000000000000000000000000000000000000600052604160045260246000fd5b600080fd5b7f796f7520646f6e74206861766520696e766573746d656e7420746f207769746860008201527f647261776e000000000000000000000000000000000000000000000000000000602082015250565b7f76616c7565206973206e6f742067726561746572207468616e2031303030302060008201527f616e64206c657373207468616e20353030303030300000000000000000000000602082015250565b7f796f7520646f6e742068617665207265776172647320746f207769746864726160008201527f776e000000000000000000000000000000000000000000000000000000000000602082015250565b7f796f752063616e74207769746864726177206265666f72652031207965617200600082015250565b7f6f6e6c79204f776e65722063616e2063616c6c20746869732066756e6374696f60008201527f6e00000000000000000000000000000000000000000000000000000000000000602082015250565b612c5a8161299a565b8114612c6557600080fd5b50565b612c71816129ac565b8114612c7c57600080fd5b50565b612c88816129d8565b8114612c9357600080fd5b5056fea264697066735822122056acfa95ac5f9fd27eec0c180b61c2ab778d5188c17c0124630851832e36ae4064736f6c63430008070033",
					"opcodes": "PUSH1 0x80 PUSH1 0x40 MSTORE PUSH20 0x9462A065C980693808405EB4F2851F0FFA1D3016 PUSH1 0x1 PUSH1 0x0 PUSH2 0x100 EXP DUP2 SLOAD DUP2 PUSH20 0xFFFFFFFFFFFFFFFFFFFFFFFFFFFFFFFFFFFFFFFF MUL NOT AND SWAP1 DUP4 PUSH20 0xFFFFFFFFFFFFFFFFFFFFFFFFFFFFFFFFFFFFFFFF AND MUL OR SWAP1 SSTORE POP PUSH20 0xC8BBA86A801CD87CA72222D5A43639592FBAA6EC PUSH1 0x2 PUSH1 0x0 PUSH2 0x100 EXP DUP2 SLOAD DUP2 PUSH20 0xFFFFFFFFFFFFFFFFFFFFFFFFFFFFFFFFFFFFFFFF MUL NOT AND SWAP1 DUP4 PUSH20 0xFFFFFFFFFFFFFFFFFFFFFFFFFFFFFFFFFFFFFFFF AND MUL OR SWAP1 SSTORE POP PUSH1 0xBF PUSH1 0x3 SSTORE PUSH8 0x4563918244F40000 PUSH1 0x5 SSTORE PUSH2 0x2710 PUSH1 0x6 SSTORE PUSH3 0x4C4B40 PUSH1 0x7 SSTORE PUSH3 0x186A0 PUSH1 0x8 SSTORE PUSH4 0x1E13380 PUSH1 0x9 SSTORE CALLVALUE DUP1 ISZERO PUSH2 0xE7 JUMPI PUSH1 0x0 DUP1 REVERT JUMPDEST POP CALLER PUSH1 0x0 DUP1 PUSH2 0x100 EXP DUP2 SLOAD DUP2 PUSH20 0xFFFFFFFFFFFFFFFFFFFFFFFFFFFFFFFFFFFFFFFF MUL NOT AND SWAP1 DUP4 PUSH20 0xFFFFFFFFFFFFFFFFFFFFFFFFFFFFFFFFFFFFFFFF AND MUL OR SWAP1 SSTORE POP PUSH2 0x2CCC DUP1 PUSH2 0x137 PUSH1 0x0 CODECOPY PUSH1 0x0 RETURN INVALID PUSH1 0x80 PUSH1 0x40 MSTORE CALLVALUE DUP1 ISZERO PUSH2 0x10 JUMPI PUSH1 0x0 DUP1 REVERT JUMPDEST POP PUSH1 0x4 CALLDATASIZE LT PUSH2 0x1C4 JUMPI PUSH1 0x0 CALLDATALOAD PUSH1 0xE0 SHR DUP1 PUSH4 0x8DA5CB5B GT PUSH2 0xF9 JUMPI DUP1 PUSH4 0xC885BC58 GT PUSH2 0x97 JUMPI DUP1 PUSH4 0xF2FDE38B GT PUSH2 0x71 JUMPI DUP1 PUSH4 0xF2FDE38B EQ PUSH2 0x4DF JUMPI DUP1 PUSH4 0xF790B81A EQ PUSH2 0x4FB JUMPI DUP1 PUSH4 0xF7C618C1 EQ PUSH2 0x519 JUMPI DUP1 PUSH4 0xFAE730BC EQ PUSH2 0x537 JUMPI PUSH2 0x1C4 JUMP JUMPDEST DUP1 PUSH4 0xC885BC58 EQ PUSH2 0x46D JUMPI DUP1 PUSH4 0xD3560EE8 EQ PUSH2 0x48B JUMPI DUP1 PUSH4 0xE2033FCB EQ PUSH2 0x4C1 JUMPI PUSH2 0x1C4 JUMP JUMPDEST DUP1 PUSH4 0xA47BD496 GT PUSH2 0xD3 JUMPI DUP1 PUSH4 0xA47BD496 EQ PUSH2 0x3E5 JUMPI DUP1 PUSH4 0xA61BE99D EQ PUSH2 0x401 JUMPI DUP1 PUSH4 0xBC2FD830 EQ PUSH2 0x41F JUMPI DUP1 PUSH4 0xBC67EAFF EQ PUSH2 0x44F JUMPI PUSH2 0x1C4 JUMP JUMPDEST DUP1 PUSH4 0x8DA5CB5B EQ PUSH2 0x38B JUMPI DUP1 PUSH4 0x929F6BBE EQ PUSH2 0x3A9 JUMPI DUP1 PUSH4 0x9740A1BC EQ PUSH2 0x3C7 JUMPI PUSH2 0x1C4 JUMP JUMPDEST DUP1 PUSH4 0x42508F66 GT PUSH2 0x166 JUMPI DUP1 PUSH4 0x502C6BFA GT PUSH2 0x140 JUMPI DUP1 PUSH4 0x502C6BFA EQ PUSH2 0x301 JUMPI DUP1 PUSH4 0x523CDDFE EQ PUSH2 0x331 JUMPI DUP1 PUSH4 0x5A4A0192 EQ PUSH2 0x34F JUMPI DUP1 PUSH4 0x73CF575A EQ PUSH2 0x36D JUMPI PUSH2 0x1C4 JUMP JUMPDEST DUP1 PUSH4 0x42508F66 EQ PUSH2 0x2AB JUMPI DUP1 PUSH4 0x4EB1ECC9 EQ PUSH2 0x2C9 JUMPI DUP1 PUSH4 0x500CB85F EQ PUSH2 0x2E5 JUMPI PUSH2 0x1C4 JUMP JUMPDEST DUP1 PUSH4 0x2BCCDCE6 GT PUSH2 0x1A2 JUMPI DUP1 PUSH4 0x2BCCDCE6 EQ PUSH2 0x223 JUMPI DUP1 PUSH4 0x32D4E783 EQ PUSH2 0x253 JUMPI DUP1 PUSH4 0x3A1E0833 EQ PUSH2 0x26F JUMPI DUP1 PUSH4 0x3D18B912 EQ PUSH2 0x28D JUMPI PUSH2 0x1C4 JUMP JUMPDEST DUP1 PUSH4 0xC5F58F4 EQ PUSH2 0x1C9 JUMPI DUP1 PUSH4 0x10CDE60A EQ PUSH2 0x1E7 JUMPI DUP1 PUSH4 0x1E8ABA35 EQ PUSH2 0x205 JUMPI JUMPDEST PUSH1 0x0 DUP1 REVERT JUMPDEST PUSH2 0x1D1 PUSH2 0x555 JUMP JUMPDEST PUSH1 0x40 MLOAD PUSH2 0x1DE SWAP2 SWAP1 PUSH2 0x2632 JUMP JUMPDEST PUSH1 0x40 MLOAD DUP1 SWAP2 SUB SWAP1 RETURN JUMPDEST PUSH2 0x1EF PUSH2 0x623 JUMP JUMPDEST PUSH1 0x40 MLOAD PUSH2 0x1FC SWAP2 SWAP1 PUSH2 0x2775 JUMP JUMPDEST PUSH1 0x40 MLOAD DUP1 SWAP2 SUB SWAP1 RETURN JUMPDEST PUSH2 0x20D PUSH2 0x629 JUMP JUMPDEST PUSH1 0x40 MLOAD PUSH2 0x21A SWAP2 SWAP1 PUSH2 0x2775 JUMP JUMPDEST PUSH1 0x40 MLOAD DUP1 SWAP2 SUB SWAP1 RETURN JUMPDEST PUSH2 0x23D PUSH1 0x4 DUP1 CALLDATASIZE SUB DUP2 ADD SWAP1 PUSH2 0x238 SWAP2 SWAP1 PUSH2 0x208A JUMP JUMPDEST PUSH2 0x676 JUMP JUMPDEST PUSH1 0x40 MLOAD PUSH2 0x24A SWAP2 SWAP1 PUSH2 0x26BA JUMP JUMPDEST PUSH1 0x40 MLOAD DUP1 SWAP2 SUB SWAP1 RETURN JUMPDEST PUSH2 0x26D PUSH1 0x4 DUP1 CALLDATASIZE SUB DUP2 ADD SWAP1 PUSH2 0x268 SWAP2 SWAP1 PUSH2 0x205D JUMP JUMPDEST PUSH2 0xC51 JUMP JUMPDEST STOP JUMPDEST PUSH2 0x277 PUSH2 0xC5B JUMP JUMPDEST PUSH1 0x40 MLOAD PUSH2 0x284 SWAP2 SWAP1 PUSH2 0x2676 JUMP JUMPDEST PUSH1 0x40 MLOAD DUP1 SWAP2 SUB SWAP1 RETURN JUMPDEST PUSH2 0x295 PUSH2 0xEEC JUMP JUMPDEST PUSH1 0x40 MLOAD PUSH2 0x2A2 SWAP2 SWAP1 PUSH2 0x2775 JUMP JUMPDEST PUSH1 0x40 MLOAD DUP1 SWAP2 SUB SWAP1 RETURN JUMPDEST PUSH2 0x2B3 PUSH2 0xFBD JUMP JUMPDEST PUSH1 0x40 MLOAD PUSH2 0x2C0 SWAP2 SWAP1 PUSH2 0x2654 JUMP JUMPDEST PUSH1 0x40 MLOAD DUP1 SWAP2 SUB SWAP1 RETURN JUMPDEST PUSH2 0x2E3 PUSH1 0x4 DUP1 CALLDATASIZE SUB DUP2 ADD SWAP1 PUSH2 0x2DE SWAP2 SWAP1 PUSH2 0x210A JUMP JUMPDEST PUSH2 0x134F JUMP JUMPDEST STOP JUMPDEST PUSH2 0x2FF PUSH1 0x4 DUP1 CALLDATASIZE SUB DUP2 ADD SWAP1 PUSH2 0x2FA SWAP2 SWAP1 PUSH2 0x205D JUMP JUMPDEST PUSH2 0x1371 JUMP JUMPDEST STOP JUMPDEST PUSH2 0x31B PUSH1 0x4 DUP1 CALLDATASIZE SUB DUP2 ADD SWAP1 PUSH2 0x316 SWAP2 SWAP1 PUSH2 0x205D JUMP JUMPDEST PUSH2 0x137B JUMP JUMPDEST PUSH1 0x40 MLOAD PUSH2 0x328 SWAP2 SWAP1 PUSH2 0x2548 JUMP JUMPDEST PUSH1 0x40 MLOAD DUP1 SWAP2 SUB SWAP1 RETURN JUMPDEST PUSH2 0x339 PUSH2 0x13AE JUMP JUMPDEST PUSH1 0x40 MLOAD PUSH2 0x346 SWAP2 SWAP1 PUSH2 0x2775 JUMP JUMPDEST PUSH1 0x40 MLOAD DUP1 SWAP2 SUB SWAP1 RETURN JUMPDEST PUSH2 0x357 PUSH2 0x13B4 JUMP JUMPDEST PUSH1 0x40 MLOAD PUSH2 0x364 SWAP2 SWAP1 PUSH2 0x2775 JUMP JUMPDEST PUSH1 0x40 MLOAD DUP1 SWAP2 SUB SWAP1 RETURN JUMPDEST PUSH2 0x375 PUSH2 0x1403 JUMP JUMPDEST PUSH1 0x40 MLOAD PUSH2 0x382 SWAP2 SWAP1 PUSH2 0x26BA JUMP JUMPDEST PUSH1 0x40 MLOAD DUP1 SWAP2 SUB SWAP1 RETURN JUMPDEST PUSH2 0x393 PUSH2 0x17E6 JUMP JUMPDEST PUSH1 0x40 MLOAD PUSH2 0x3A0 SWAP2 SWAP1 PUSH2 0x2548 JUMP JUMPDEST PUSH1 0x40 MLOAD DUP1 SWAP2 SUB SWAP1 RETURN JUMPDEST PUSH2 0x3B1 PUSH2 0x180A JUMP JUMPDEST PUSH1 0x40 MLOAD PUSH2 0x3BE SWAP2 SWAP1 PUSH2 0x2775 JUMP JUMPDEST PUSH1 0x40 MLOAD DUP1 SWAP2 SUB SWAP1 RETURN JUMPDEST PUSH2 0x3CF PUSH2 0x1854 JUMP JUMPDEST PUSH1 0x40 MLOAD PUSH2 0x3DC SWAP2 SWAP1 PUSH2 0x2775 JUMP JUMPDEST PUSH1 0x40 MLOAD DUP1 SWAP2 SUB SWAP1 RETURN JUMPDEST PUSH2 0x3FF PUSH1 0x4 DUP1 CALLDATASIZE SUB DUP2 ADD SWAP1 PUSH2 0x3FA SWAP2 SWAP1 PUSH2 0x20CA JUMP JUMPDEST PUSH2 0x185A JUMP JUMPDEST STOP JUMPDEST PUSH2 0x409 PUSH2 0x186C JUMP JUMPDEST PUSH1 0x40 MLOAD PUSH2 0x416 SWAP2 SWAP1 PUSH2 0x2698 JUMP JUMPDEST PUSH1 0x40 MLOAD DUP1 SWAP2 SUB SWAP1 RETURN JUMPDEST PUSH2 0x439 PUSH1 0x4 DUP1 CALLDATASIZE SUB DUP2 ADD SWAP1 PUSH2 0x434 SWAP2 SWAP1 PUSH2 0x2003 JUMP JUMPDEST PUSH2 0x19DF JUMP JUMPDEST PUSH1 0x40 MLOAD PUSH2 0x446 SWAP2 SWAP1 PUSH2 0x2775 JUMP JUMPDEST PUSH1 0x40 MLOAD DUP1 SWAP2 SUB SWAP1 RETURN JUMPDEST PUSH2 0x457 PUSH2 0x1AB2 JUMP JUMPDEST PUSH1 0x40 MLOAD PUSH2 0x464 SWAP2 SWAP1 PUSH2 0x2775 JUMP JUMPDEST PUSH1 0x40 MLOAD DUP1 SWAP2 SUB SWAP1 RETURN JUMPDEST PUSH2 0x475 PUSH2 0x1AB8 JUMP JUMPDEST PUSH1 0x40 MLOAD PUSH2 0x482 SWAP2 SWAP1 PUSH2 0x26BA JUMP JUMPDEST PUSH1 0x40 MLOAD DUP1 SWAP2 SUB SWAP1 RETURN JUMPDEST PUSH2 0x4A5 PUSH1 0x4 DUP1 CALLDATASIZE SUB DUP2 ADD SWAP1 PUSH2 0x4A0 SWAP2 SWAP1 PUSH2 0x2003 JUMP JUMPDEST PUSH2 0x1C2C JUMP JUMPDEST PUSH1 0x40 MLOAD PUSH2 0x4B8 SWAP8 SWAP7 SWAP6 SWAP5 SWAP4 SWAP3 SWAP2 SWAP1 PUSH2 0x25C3 JUMP JUMPDEST PUSH1 0x40 MLOAD DUP1 SWAP2 SUB SWAP1 RETURN JUMPDEST PUSH2 0x4C9 PUSH2 0x1C9B JUMP JUMPDEST PUSH1 0x40 MLOAD PUSH2 0x4D6 SWAP2 SWAP1 PUSH2 0x2775 JUMP JUMPDEST PUSH1 0x40 MLOAD DUP1 SWAP2 SUB SWAP1 RETURN JUMPDEST PUSH2 0x4F9 PUSH1 0x4 DUP1 CALLDATASIZE SUB DUP2 ADD SWAP1 PUSH2 0x4F4 SWAP2 SWAP1 PUSH2 0x2003 JUMP JUMPDEST PUSH2 0x1CA1 JUMP JUMPDEST STOP JUMPDEST PUSH2 0x503 PUSH2 0x1D72 JUMP JUMPDEST PUSH1 0x40 MLOAD PUSH2 0x510 SWAP2 SWAP1 PUSH2 0x2698 JUMP JUMPDEST PUSH1 0x40 MLOAD DUP1 SWAP2 SUB SWAP1 RETURN JUMPDEST PUSH2 0x521 PUSH2 0x1EE5 JUMP JUMPDEST PUSH1 0x40 MLOAD PUSH2 0x52E SWAP2 SWAP1 PUSH2 0x2775 JUMP JUMPDEST PUSH1 0x40 MLOAD DUP1 SWAP2 SUB SWAP1 RETURN JUMPDEST PUSH2 0x53F PUSH2 0x1EEB JUMP JUMPDEST PUSH1 0x40 MLOAD PUSH2 0x54C SWAP2 SWAP1 PUSH2 0x2775 JUMP JUMPDEST PUSH1 0x40 MLOAD DUP1 SWAP2 SUB SWAP1 RETURN JUMPDEST PUSH1 0x60 PUSH1 0xD PUSH1 0x0 CALLER PUSH20 0xFFFFFFFFFFFFFFFFFFFFFFFFFFFFFFFFFFFFFFFF AND PUSH20 0xFFFFFFFFFFFFFFFFFFFFFFFFFFFFFFFFFFFFFFFF AND DUP2 MSTORE PUSH1 0x20 ADD SWAP1 DUP2 MSTORE PUSH1 0x20 ADD PUSH1 0x0 KECCAK256 PUSH1 0x1 ADD DUP1 SLOAD DUP1 PUSH1 0x20 MUL PUSH1 0x20 ADD PUSH1 0x40 MLOAD SWAP1 DUP2 ADD PUSH1 0x40 MSTORE DUP1 SWAP3 SWAP2 SWAP1 DUP2 DUP2 MSTORE PUSH1 0x20 ADD DUP3 DUP1 SLOAD DUP1 ISZERO PUSH2 0x619 JUMPI PUSH1 0x20 MUL DUP3 ADD SWAP2 SWAP1 PUSH1 0x0 MSTORE PUSH1 0x20 PUSH1 0x0 KECCAK256 SWAP1 JUMPDEST DUP2 PUSH1 0x0 SWAP1 SLOAD SWAP1 PUSH2 0x100 EXP SWAP1 DIV PUSH20 0xFFFFFFFFFFFFFFFFFFFFFFFFFFFFFFFFFFFFFFFF AND PUSH20 0xFFFFFFFFFFFFFFFFFFFFFFFFFFFFFFFFFFFFFFFF AND DUP2 MSTORE PUSH1 0x20 ADD SWAP1 PUSH1 0x1 ADD SWAP1 DUP1 DUP4 GT PUSH2 0x5CF JUMPI JUMPDEST POP POP POP POP POP SWAP1 POP SWAP1 JUMP JUMPDEST PUSH1 0x4 SLOAD DUP2 JUMP JUMPDEST PUSH1 0x0 PUSH1 0xD PUSH1 0x0 CALLER PUSH20 0xFFFFFFFFFFFFFFFFFFFFFFFFFFFFFFFFFFFFFFFF AND PUSH20 0xFFFFFFFFFFFFFFFFFFFFFFFFFFFFFFFFFFFFFFFF AND DUP2 MSTORE PUSH1 0x20 ADD SWAP1 DUP2 MSTORE PUSH1 0x20 ADD PUSH1 0x0 KECCAK256 PUSH1 0x1 ADD DUP1 SLOAD SWAP1 POP SWAP1 POP SWAP1 JUMP JUMPDEST PUSH1 0x0 PUSH1 0x6 SLOAD DUP4 LT ISZERO DUP1 ISZERO PUSH2 0x68C JUMPI POP PUSH1 0x7 SLOAD DUP4 GT ISZERO JUMPDEST PUSH2 0x6CB JUMPI PUSH1 0x40 MLOAD PUSH32 0x8C379A000000000000000000000000000000000000000000000000000000000 DUP2 MSTORE PUSH1 0x4 ADD PUSH2 0x6C2 SWAP1 PUSH2 0x26F5 JUMP JUMPDEST PUSH1 0x40 MLOAD DUP1 SWAP2 SUB SWAP1 REVERT JUMPDEST PUSH1 0x0 ISZERO ISZERO PUSH1 0xD PUSH1 0x0 CALLER PUSH20 0xFFFFFFFFFFFFFFFFFFFFFFFFFFFFFFFFFFFFFFFF AND PUSH20 0xFFFFFFFFFFFFFFFFFFFFFFFFFFFFFFFFFFFFFFFF AND DUP2 MSTORE PUSH1 0x20 ADD SWAP1 DUP2 MSTORE PUSH1 0x20 ADD PUSH1 0x0 KECCAK256 PUSH1 0x8 ADD PUSH1 0x0 SWAP1 SLOAD SWAP1 PUSH2 0x100 EXP SWAP1 DIV PUSH1 0xFF AND ISZERO ISZERO EQ ISZERO PUSH2 0x798 JUMPI CALLER PUSH1 0xC PUSH1 0x0 PUSH1 0x4 SLOAD DUP2 MSTORE PUSH1 0x20 ADD SWAP1 DUP2 MSTORE PUSH1 0x20 ADD PUSH1 0x0 KECCAK256 PUSH1 0x0 PUSH2 0x100 EXP DUP2 SLOAD DUP2 PUSH20 0xFFFFFFFFFFFFFFFFFFFFFFFFFFFFFFFFFFFFFFFF MUL NOT AND SWAP1 DUP4 PUSH20 0xFFFFFFFFFFFFFFFFFFFFFFFFFFFFFFFFFFFFFFFF AND MUL OR SWAP1 SSTORE POP PUSH1 0x4 PUSH1 0x0 DUP2 SLOAD DUP1 SWAP3 SWAP2 SWAP1 PUSH2 0x78E SWAP1 PUSH2 0x29E2 JUMP JUMPDEST SWAP2 SWAP1 POP SSTORE POP PUSH2 0x7FE JUMP JUMPDEST PUSH1 0xD PUSH1 0x0 CALLER PUSH20 0xFFFFFFFFFFFFFFFFFFFFFFFFFFFFFFFFFFFFFFFF AND PUSH20 0xFFFFFFFFFFFFFFFFFFFFFFFFFFFFFFFFFFFFFFFF AND DUP2 MSTORE PUSH1 0x20 ADD SWAP1 DUP2 MSTORE PUSH1 0x20 ADD PUSH1 0x0 KECCAK256 PUSH1 0x2 ADD PUSH1 0x0 SWAP1 SLOAD SWAP1 PUSH2 0x100 EXP SWAP1 DIV PUSH20 0xFFFFFFFFFFFFFFFFFFFFFFFFFFFFFFFFFFFFFFFF AND SWAP2 POP JUMPDEST PUSH1 0x0 PUSH1 0xD PUSH1 0x0 CALLER PUSH20 0xFFFFFFFFFFFFFFFFFFFFFFFFFFFFFFFFFFFFFFFF AND PUSH20 0xFFFFFFFFFFFFFFFFFFFFFFFFFFFFFFFFFFFFFFFF AND DUP2 MSTORE PUSH1 0x20 ADD SWAP1 DUP2 MSTORE PUSH1 0x20 ADD PUSH1 0x0 KECCAK256 PUSH1 0x6 ADD SLOAD EQ ISZERO PUSH2 0x8A0 JUMPI PUSH4 0x1E13380 TIMESTAMP PUSH2 0x859 SWAP2 SWAP1 PUSH2 0x2885 JUMP JUMPDEST PUSH1 0xD PUSH1 0x0 CALLER PUSH20 0xFFFFFFFFFFFFFFFFFFFFFFFFFFFFFFFFFFFFFFFF AND PUSH20 0xFFFFFFFFFFFFFFFFFFFFFFFFFFFFFFFFFFFFFFFF AND DUP2 MSTORE PUSH1 0x20 ADD SWAP1 DUP2 MSTORE PUSH1 0x20 ADD PUSH1 0x0 KECCAK256 PUSH1 0x9 ADD DUP2 SWAP1 SSTORE POP JUMPDEST PUSH1 0x0 PUSH1 0xD PUSH1 0x0 CALLER PUSH20 0xFFFFFFFFFFFFFFFFFFFFFFFFFFFFFFFFFFFFFFFF AND PUSH20 0xFFFFFFFFFFFFFFFFFFFFFFFFFFFFFFFFFFFFFFFF AND DUP2 MSTORE PUSH1 0x20 ADD SWAP1 DUP2 MSTORE PUSH1 0x20 ADD PUSH1 0x0 KECCAK256 PUSH1 0x5 ADD SLOAD SWAP1 POP DUP4 PUSH1 0xD PUSH1 0x0 CALLER PUSH20 0xFFFFFFFFFFFFFFFFFFFFFFFFFFFFFFFFFFFFFFFF AND PUSH20 0xFFFFFFFFFFFFFFFFFFFFFFFFFFFFFFFFFFFFFFFF AND DUP2 MSTORE PUSH1 0x20 ADD SWAP1 DUP2 MSTORE PUSH1 0x20 ADD PUSH1 0x0 KECCAK256 PUSH1 0x0 ADD PUSH1 0x0 DUP4 DUP2 MSTORE PUSH1 0x20 ADD SWAP1 DUP2 MSTORE PUSH1 0x20 ADD PUSH1 0x0 KECCAK256 PUSH1 0x0 ADD DUP2 SWAP1 SSTORE POP TIMESTAMP PUSH1 0xD PUSH1 0x0 CALLER PUSH20 0xFFFFFFFFFFFFFFFFFFFFFFFFFFFFFFFFFFFFFFFF AND PUSH20 0xFFFFFFFFFFFFFFFFFFFFFFFFFFFFFFFFFFFFFFFF AND DUP2 MSTORE PUSH1 0x20 ADD SWAP1 DUP2 MSTORE PUSH1 0x20 ADD PUSH1 0x0 KECCAK256 PUSH1 0x0 ADD PUSH1 0x0 DUP4 DUP2 MSTORE PUSH1 0x20 ADD SWAP1 DUP2 MSTORE PUSH1 0x20 ADD PUSH1 0x0 KECCAK256 PUSH1 0x2 ADD DUP2 SWAP1 SSTORE POP PUSH1 0x9 SLOAD TIMESTAMP PUSH2 0x9AB SWAP2 SWAP1 PUSH2 0x2885 JUMP JUMPDEST PUSH1 0xD PUSH1 0x0 CALLER PUSH20 0xFFFFFFFFFFFFFFFFFFFFFFFFFFFFFFFFFFFFFFFF AND PUSH20 0xFFFFFFFFFFFFFFFFFFFFFFFFFFFFFFFFFFFFFFFF AND DUP2 MSTORE PUSH1 0x20 ADD SWAP1 DUP2 MSTORE PUSH1 0x20 ADD PUSH1 0x0 KECCAK256 PUSH1 0x0 ADD PUSH1 0x0 DUP4 DUP2 MSTORE PUSH1 0x20 ADD SWAP1 DUP2 MSTORE PUSH1 0x20 ADD PUSH1 0x0 KECCAK256 PUSH1 0x1 ADD DUP2 SWAP1 SSTORE POP DUP1 PUSH1 0xD PUSH1 0x0 CALLER PUSH20 0xFFFFFFFFFFFFFFFFFFFFFFFFFFFFFFFFFFFFFFFF AND PUSH20 0xFFFFFFFFFFFFFFFFFFFFFFFFFFFFFFFFFFFFFFFF AND DUP2 MSTORE PUSH1 0x20 ADD SWAP1 DUP2 MSTORE PUSH1 0x20 ADD PUSH1 0x0 KECCAK256 PUSH1 0x0 ADD PUSH1 0x0 DUP4 DUP2 MSTORE PUSH1 0x20 ADD SWAP1 DUP2 MSTORE PUSH1 0x20 ADD PUSH1 0x0 KECCAK256 PUSH1 0x3 ADD DUP2 SWAP1 SSTORE POP DUP4 PUSH1 0xD PUSH1 0x0 CALLER PUSH20 0xFFFFFFFFFFFFFFFFFFFFFFFFFFFFFFFFFFFFFFFF AND PUSH20 0xFFFFFFFFFFFFFFFFFFFFFFFFFFFFFFFFFFFFFFFF AND DUP2 MSTORE PUSH1 0x20 ADD SWAP1 DUP2 MSTORE PUSH1 0x20 ADD PUSH1 0x0 KECCAK256 PUSH1 0x6 ADD PUSH1 0x0 DUP3 DUP3 SLOAD PUSH2 0xAB2 SWAP2 SWAP1 PUSH2 0x2885 JUMP JUMPDEST SWAP3 POP POP DUP2 SWAP1 SSTORE POP PUSH1 0xD PUSH1 0x0 CALLER PUSH20 0xFFFFFFFFFFFFFFFFFFFFFFFFFFFFFFFFFFFFFFFF AND PUSH20 0xFFFFFFFFFFFFFFFFFFFFFFFFFFFFFFFFFFFFFFFF AND DUP2 MSTORE PUSH1 0x20 ADD SWAP1 DUP2 MSTORE PUSH1 0x20 ADD PUSH1 0x0 KECCAK256 PUSH1 0x5 ADD PUSH1 0x0 DUP2 SLOAD DUP1 SWAP3 SWAP2 SWAP1 PUSH2 0xB0C SWAP1 PUSH2 0x29E2 JUMP JUMPDEST SWAP2 SWAP1 POP SSTORE POP DUP4 PUSH1 0xA PUSH1 0x0 DUP3 DUP3 SLOAD PUSH2 0xB23 SWAP2 SWAP1 PUSH2 0x2885 JUMP JUMPDEST SWAP3 POP POP DUP2 SWAP1 SSTORE POP PUSH1 0x1 PUSH1 0x0 SWAP1 SLOAD SWAP1 PUSH2 0x100 EXP SWAP1 DIV PUSH20 0xFFFFFFFFFFFFFFFFFFFFFFFFFFFFFFFFFFFFFFFF AND PUSH20 0xFFFFFFFFFFFFFFFFFFFFFFFFFFFFFFFFFFFFFFFF AND PUSH4 0x23B872DD CALLER ADDRESS PUSH4 0x5F5E100 DUP9 PUSH2 0xB7A SWAP2 SWAP1 PUSH2 0x290C JUMP JUMPDEST PUSH1 0x40 MLOAD DUP5 PUSH4 0xFFFFFFFF AND PUSH1 0xE0 SHL DUP2 MSTORE PUSH1 0x4 ADD PUSH2 0xB98 SWAP4 SWAP3 SWAP2 SWAP1 PUSH2 0x2563 JUMP JUMPDEST PUSH1 0x20 PUSH1 0x40 MLOAD DUP1 DUP4 SUB DUP2 PUSH1 0x0 DUP8 DUP1 EXTCODESIZE ISZERO DUP1 ISZERO PUSH2 0xBB2 JUMPI PUSH1 0x0 DUP1 REVERT JUMPDEST POP GAS CALL ISZERO DUP1 ISZERO PUSH2 0xBC6 JUMPI RETURNDATASIZE PUSH1 0x0 DUP1 RETURNDATACOPY RETURNDATASIZE PUSH1 0x0 REVERT JUMPDEST POP POP POP POP PUSH1 0x40 MLOAD RETURNDATASIZE PUSH1 0x1F NOT PUSH1 0x1F DUP3 ADD AND DUP3 ADD DUP1 PUSH1 0x40 MSTORE POP DUP2 ADD SWAP1 PUSH2 0xBEA SWAP2 SWAP1 PUSH2 0x2030 JUMP JUMPDEST POP PUSH1 0x1 PUSH1 0xD PUSH1 0x0 CALLER PUSH20 0xFFFFFFFFFFFFFFFFFFFFFFFFFFFFFFFFFFFFFFFF AND PUSH20 0xFFFFFFFFFFFFFFFFFFFFFFFFFFFFFFFFFFFFFFFF AND DUP2 MSTORE PUSH1 0x20 ADD SWAP1 DUP2 MSTORE PUSH1 0x20 ADD PUSH1 0x0 KECCAK256 PUSH1 0x8 ADD PUSH1 0x0 PUSH2 0x100 EXP DUP2 SLOAD DUP2 PUSH1 0xFF MUL NOT AND SWAP1 DUP4 ISZERO ISZERO MUL OR SWAP1 SSTORE POP PUSH1 0x1 SWAP2 POP POP SWAP3 SWAP2 POP POP JUMP JUMPDEST DUP1 PUSH1 0x6 DUP2 SWAP1 SSTORE POP POP JUMP JUMPDEST PUSH1 0x60 PUSH1 0x0 PUSH1 0xD PUSH1 0x0 CALLER PUSH20 0xFFFFFFFFFFFFFFFFFFFFFFFFFFFFFFFFFFFFFFFF AND PUSH20 0xFFFFFFFFFFFFFFFFFFFFFFFFFFFFFFFFFFFFFFFF AND DUP2 MSTORE PUSH1 0x20 ADD SWAP1 DUP2 MSTORE PUSH1 0x20 ADD PUSH1 0x0 KECCAK256 PUSH1 0x5 ADD SLOAD SWAP1 POP PUSH1 0x0 DUP1 PUSH1 0x0 JUMPDEST DUP4 DUP2 LT ISZERO PUSH2 0xD33 JUMPI PUSH1 0x0 PUSH1 0xD PUSH1 0x0 CALLER PUSH20 0xFFFFFFFFFFFFFFFFFFFFFFFFFFFFFFFFFFFFFFFF AND PUSH20 0xFFFFFFFFFFFFFFFFFFFFFFFFFFFFFFFFFFFFFFFF AND DUP2 MSTORE PUSH1 0x20 ADD SWAP1 DUP2 MSTORE PUSH1 0x20 ADD PUSH1 0x0 KECCAK256 PUSH1 0x0 ADD PUSH1 0x0 DUP4 DUP2 MSTORE PUSH1 0x20 ADD SWAP1 DUP2 MSTORE PUSH1 0x20 ADD PUSH1 0x0 KECCAK256 PUSH1 0x0 ADD SLOAD GT ISZERO PUSH2 0xD20 JUMPI DUP3 DUP1 PUSH2 0xD1C SWAP1 PUSH2 0x29E2 JUMP JUMPDEST SWAP4 POP POP JUMPDEST DUP1 DUP1 PUSH2 0xD2B SWAP1 PUSH2 0x29E2 JUMP JUMPDEST SWAP2 POP POP PUSH2 0xCAA JUMP JUMPDEST POP PUSH1 0x0 DUP3 PUSH8 0xFFFFFFFFFFFFFFFF DUP2 GT ISZERO PUSH2 0xD50 JUMPI PUSH2 0xD4F PUSH2 0x2AB8 JUMP JUMPDEST JUMPDEST PUSH1 0x40 MLOAD SWAP1 DUP1 DUP3 MSTORE DUP1 PUSH1 0x20 MUL PUSH1 0x20 ADD DUP3 ADD PUSH1 0x40 MSTORE DUP1 ISZERO PUSH2 0xD89 JUMPI DUP2 PUSH1 0x20 ADD JUMPDEST PUSH2 0xD76 PUSH2 0x1F40 JUMP JUMPDEST DUP2 MSTORE PUSH1 0x20 ADD SWAP1 PUSH1 0x1 SWAP1 SUB SWAP1 DUP2 PUSH2 0xD6E JUMPI SWAP1 POP JUMPDEST POP SWAP1 POP PUSH1 0x0 JUMPDEST DUP5 DUP2 LT ISZERO PUSH2 0xEE1 JUMPI PUSH1 0x0 PUSH1 0xD PUSH1 0x0 CALLER PUSH20 0xFFFFFFFFFFFFFFFFFFFFFFFFFFFFFFFFFFFFFFFF AND PUSH20 0xFFFFFFFFFFFFFFFFFFFFFFFFFFFFFFFFFFFFFFFF AND DUP2 MSTORE PUSH1 0x20 ADD SWAP1 DUP2 MSTORE PUSH1 0x20 ADD PUSH1 0x0 KECCAK256 PUSH1 0x0 ADD PUSH1 0x0 DUP4 DUP2 MSTORE PUSH1 0x20 ADD SWAP1 DUP2 MSTORE PUSH1 0x20 ADD PUSH1 0x0 KECCAK256 PUSH1 0x0 ADD SLOAD GT ISZERO PUSH2 0xECE JUMPI PUSH1 0xD PUSH1 0x0 CALLER PUSH20 0xFFFFFFFFFFFFFFFFFFFFFFFFFFFFFFFFFFFFFFFF AND PUSH20 0xFFFFFFFFFFFFFFFFFFFFFFFFFFFFFFFFFFFFFFFF AND DUP2 MSTORE PUSH1 0x20 ADD SWAP1 DUP2 MSTORE PUSH1 0x20 ADD PUSH1 0x0 KECCAK256 PUSH1 0x0 ADD PUSH1 0x0 DUP3 DUP2 MSTORE PUSH1 0x20 ADD SWAP1 DUP2 MSTORE PUSH1 0x20 ADD PUSH1 0x0 KECCAK256 PUSH1 0x40 MLOAD DUP1 PUSH1 0xC0 ADD PUSH1 0x40 MSTORE SWAP1 DUP2 PUSH1 0x0 DUP3 ADD SLOAD DUP2 MSTORE PUSH1 0x20 ADD PUSH1 0x1 DUP3 ADD SLOAD DUP2 MSTORE PUSH1 0x20 ADD PUSH1 0x2 DUP3 ADD SLOAD DUP2 MSTORE PUSH1 0x20 ADD PUSH1 0x3 DUP3 ADD SLOAD DUP2 MSTORE PUSH1 0x20 ADD PUSH1 0x4 DUP3 ADD SLOAD DUP2 MSTORE PUSH1 0x20 ADD PUSH1 0x5 DUP3 ADD PUSH1 0x0 SWAP1 SLOAD SWAP1 PUSH2 0x100 EXP SWAP1 DIV PUSH1 0xFF AND ISZERO ISZERO ISZERO ISZERO DUP2 MSTORE POP POP DUP3 DUP5 DUP2 MLOAD DUP2 LT PUSH2 0xEB4 JUMPI PUSH2 0xEB3 PUSH2 0x2A89 JUMP JUMPDEST JUMPDEST PUSH1 0x20 MUL PUSH1 0x20 ADD ADD DUP2 SWAP1 MSTORE POP DUP3 DUP1 PUSH2 0xECA SWAP1 PUSH2 0x29E2 JUMP JUMPDEST SWAP4 POP POP JUMPDEST DUP1 DUP1 PUSH2 0xED9 SWAP1 PUSH2 0x29E2 JUMP JUMPDEST SWAP2 POP POP PUSH2 0xD8F JUMP JUMPDEST POP DUP1 SWAP5 POP POP POP POP POP SWAP1 JUMP JUMPDEST PUSH1 0x0 DUP1 PUSH1 0x64 PUSH1 0xA SLOAD PUSH1 0xD PUSH1 0x0 CALLER PUSH20 0xFFFFFFFFFFFFFFFFFFFFFFFFFFFFFFFFFFFFFFFF AND PUSH20 0xFFFFFFFFFFFFFFFFFFFFFFFFFFFFFFFFFFFFFFFF AND DUP2 MSTORE PUSH1 0x20 ADD SWAP1 DUP2 MSTORE PUSH1 0x20 ADD PUSH1 0x0 KECCAK256 PUSH1 0x6 ADD SLOAD PUSH2 0xF41 SWAP2 SWAP1 PUSH2 0x28DB JUMP JUMPDEST PUSH2 0xF4B SWAP2 SWAP1 PUSH2 0x290C JUMP JUMPDEST PUSH1 0x64 PUSH1 0x3 SLOAD PUSH2 0xF5A SWAP2 SWAP1 PUSH2 0x28DB JUMP JUMPDEST PUSH2 0xF64 SWAP2 SWAP1 PUSH2 0x290C JUMP JUMPDEST SWAP1 POP PUSH1 0xD PUSH1 0x0 CALLER PUSH20 0xFFFFFFFFFFFFFFFFFFFFFFFFFFFFFFFFFFFFFFFF AND PUSH20 0xFFFFFFFFFFFFFFFFFFFFFFFFFFFFFFFFFFFFFFFF AND DUP2 MSTORE PUSH1 0x20 ADD SWAP1 DUP2 MSTORE PUSH1 0x20 ADD PUSH1 0x0 KECCAK256 PUSH1 0x7 ADD SLOAD DUP2 PUSH2 0xFB4 SWAP2 SWAP1 PUSH2 0x2966 JUMP JUMPDEST SWAP1 POP DUP1 SWAP2 POP POP SWAP1 JUMP JUMPDEST PUSH1 0x60 PUSH1 0x0 PUSH1 0x4 SLOAD PUSH8 0xFFFFFFFFFFFFFFFF DUP2 GT ISZERO PUSH2 0xFDD JUMPI PUSH2 0xFDC PUSH2 0x2AB8 JUMP JUMPDEST JUMPDEST PUSH1 0x40 MLOAD SWAP1 DUP1 DUP3 MSTORE DUP1 PUSH1 0x20 MUL PUSH1 0x20 ADD DUP3 ADD PUSH1 0x40 MSTORE DUP1 ISZERO PUSH2 0x1016 JUMPI DUP2 PUSH1 0x20 ADD JUMPDEST PUSH2 0x1003 PUSH2 0x1F78 JUMP JUMPDEST DUP2 MSTORE PUSH1 0x20 ADD SWAP1 PUSH1 0x1 SWAP1 SUB SWAP1 DUP2 PUSH2 0xFFB JUMPI SWAP1 POP JUMPDEST POP SWAP1 POP PUSH1 0x0 JUMPDEST PUSH1 0x4 SLOAD DUP2 LT ISZERO PUSH2 0x1347 JUMPI PUSH1 0xC PUSH1 0x0 DUP3 DUP2 MSTORE PUSH1 0x20 ADD SWAP1 DUP2 MSTORE PUSH1 0x20 ADD PUSH1 0x0 KECCAK256 PUSH1 0x0 SWAP1 SLOAD SWAP1 PUSH2 0x100 EXP SWAP1 DIV PUSH20 0xFFFFFFFFFFFFFFFFFFFFFFFFFFFFFFFFFFFFFFFF AND DUP3 DUP3 DUP2 MLOAD DUP2 LT PUSH2 0x106D JUMPI PUSH2 0x106C PUSH2 0x2A89 JUMP JUMPDEST JUMPDEST PUSH1 0x20 MUL PUSH1 0x20 ADD ADD MLOAD PUSH1 0x0 ADD SWAP1 PUSH20 0xFFFFFFFFFFFFFFFFFFFFFFFFFFFFFFFFFFFFFFFF AND SWAP1 DUP2 PUSH20 0xFFFFFFFFFFFFFFFFFFFFFFFFFFFFFFFFFFFFFFFF AND DUP2 MSTORE POP POP PUSH1 0xD PUSH1 0x0 PUSH1 0xC PUSH1 0x0 DUP5 DUP2 MSTORE PUSH1 0x20 ADD SWAP1 DUP2 MSTORE PUSH1 0x20 ADD PUSH1 0x0 KECCAK256 PUSH1 0x0 SWAP1 SLOAD SWAP1 PUSH2 0x100 EXP SWAP1 DIV PUSH20 0xFFFFFFFFFFFFFFFFFFFFFFFFFFFFFFFFFFFFFFFF AND PUSH20 0xFFFFFFFFFFFFFFFFFFFFFFFFFFFFFFFFFFFFFFFF AND PUSH20 0xFFFFFFFFFFFFFFFFFFFFFFFFFFFFFFFFFFFFFFFF AND DUP2 MSTORE PUSH1 0x20 ADD SWAP1 DUP2 MSTORE PUSH1 0x20 ADD PUSH1 0x0 KECCAK256 PUSH1 0x6 ADD SLOAD DUP3 DUP3 DUP2 MLOAD DUP2 LT PUSH2 0x1134 JUMPI PUSH2 0x1133 PUSH2 0x2A89 JUMP JUMPDEST JUMPDEST PUSH1 0x20 MUL PUSH1 0x20 ADD ADD MLOAD PUSH1 0x20 ADD DUP2 DUP2 MSTORE POP POP PUSH2 0x1180 PUSH1 0xC PUSH1 0x0 DUP4 DUP2 MSTORE PUSH1 0x20 ADD SWAP1 DUP2 MSTORE PUSH1 0x20 ADD PUSH1 0x0 KECCAK256 PUSH1 0x0 SWAP1 SLOAD SWAP1 PUSH2 0x100 EXP SWAP1 DIV PUSH20 0xFFFFFFFFFFFFFFFFFFFFFFFFFFFFFFFFFFFFFFFF AND PUSH2 0x19DF JUMP JUMPDEST DUP3 DUP3 DUP2 MLOAD DUP2 LT PUSH2 0x1193 JUMPI PUSH2 0x1192 PUSH2 0x2A89 JUMP JUMPDEST JUMPDEST PUSH1 0x20 MUL PUSH1 0x20 ADD ADD MLOAD PUSH1 0x40 ADD DUP2 DUP2 MSTORE POP POP PUSH1 0xD PUSH1 0x0 PUSH1 0xC PUSH1 0x0 DUP5 DUP2 MSTORE PUSH1 0x20 ADD SWAP1 DUP2 MSTORE PUSH1 0x20 ADD PUSH1 0x0 KECCAK256 PUSH1 0x0 SWAP1 SLOAD SWAP1 PUSH2 0x100 EXP SWAP1 DIV PUSH20 0xFFFFFFFFFFFFFFFFFFFFFFFFFFFFFFFFFFFFFFFF AND PUSH20 0xFFFFFFFFFFFFFFFFFFFFFFFFFFFFFFFFFFFFFFFF AND PUSH20 0xFFFFFFFFFFFFFFFFFFFFFFFFFFFFFFFFFFFFFFFF AND DUP2 MSTORE PUSH1 0x20 ADD SWAP1 DUP2 MSTORE PUSH1 0x20 ADD PUSH1 0x0 KECCAK256 PUSH1 0x5 ADD SLOAD DUP3 DUP3 DUP2 MLOAD DUP2 LT PUSH2 0x122C JUMPI PUSH2 0x122B PUSH2 0x2A89 JUMP JUMPDEST JUMPDEST PUSH1 0x20 MUL PUSH1 0x20 ADD ADD MLOAD PUSH1 0x60 ADD DUP2 DUP2 MSTORE POP POP PUSH1 0xD PUSH1 0x0 PUSH1 0xC PUSH1 0x0 DUP5 DUP2 MSTORE PUSH1 0x20 ADD SWAP1 DUP2 MSTORE PUSH1 0x20 ADD PUSH1 0x0 KECCAK256 PUSH1 0x0 SWAP1 SLOAD SWAP1 PUSH2 0x100 EXP SWAP1 DIV PUSH20 0xFFFFFFFFFFFFFFFFFFFFFFFFFFFFFFFFFFFFFFFF AND PUSH20 0xFFFFFFFFFFFFFFFFFFFFFFFFFFFFFFFFFFFFFFFF AND PUSH20 0xFFFFFFFFFFFFFFFFFFFFFFFFFFFFFFFFFFFFFFFF AND DUP2 MSTORE PUSH1 0x20 ADD SWAP1 DUP2 MSTORE PUSH1 0x20 ADD PUSH1 0x0 KECCAK256 PUSH1 0x7 ADD SLOAD DUP3 DUP3 DUP2 MLOAD DUP2 LT PUSH2 0x12C5 JUMPI PUSH2 0x12C4 PUSH2 0x2A89 JUMP JUMPDEST JUMPDEST PUSH1 0x20 MUL PUSH1 0x20 ADD ADD MLOAD PUSH1 0x80 ADD DUP2 DUP2 MSTORE POP POP PUSH2 0x1311 PUSH1 0xC PUSH1 0x0 DUP4 DUP2 MSTORE PUSH1 0x20 ADD SWAP1 DUP2 MSTORE PUSH1 0x20 ADD PUSH1 0x0 KECCAK256 PUSH1 0x0 SWAP1 SLOAD SWAP1 PUSH2 0x100 EXP SWAP1 DIV PUSH20 0xFFFFFFFFFFFFFFFFFFFFFFFFFFFFFFFFFFFFFFFF AND PUSH2 0x1EF1 JUMP JUMPDEST DUP3 DUP3 DUP2 MLOAD DUP2 LT PUSH2 0x1324 JUMPI PUSH2 0x1323 PUSH2 0x2A89 JUMP JUMPDEST JUMPDEST PUSH1 0x20 MUL PUSH1 0x20 ADD ADD MLOAD PUSH1 0xA0 ADD DUP2 DUP2 MSTORE POP POP DUP1 DUP1 PUSH2 0x133F SWAP1 PUSH2 0x29E2 JUMP JUMPDEST SWAP2 POP POP PUSH2 0x101C JUMP JUMPDEST POP DUP1 SWAP2 POP POP SWAP1 JUMP JUMPDEST DUP3 PUSH1 0x7 DUP2 SWAP1 SSTORE POP DUP4 PUSH1 0x6 DUP2 SWAP1 SSTORE POP DUP2 PUSH1 0x5 DUP2 SWAP1 SSTORE POP DUP1 PUSH1 0x8 DUP2 SWAP1 SSTORE POP POP POP POP POP JUMP JUMPDEST DUP1 PUSH1 0x7 DUP2 SWAP1 SSTORE POP POP JUMP JUMPDEST PUSH1 0xC PUSH1 0x20 MSTORE DUP1 PUSH1 0x0 MSTORE PUSH1 0x40 PUSH1 0x0 KECCAK256 PUSH1 0x0 SWAP2 POP SLOAD SWAP1 PUSH2 0x100 EXP SWAP1 DIV PUSH20 0xFFFFFFFFFFFFFFFFFFFFFFFFFFFFFFFFFFFFFFFF AND DUP2 JUMP JUMPDEST PUSH1 0x9 SLOAD DUP2 JUMP JUMPDEST PUSH1 0x0 DUP1 PUSH1 0xD PUSH1 0x0 CALLER PUSH20 0xFFFFFFFFFFFFFFFFFFFFFFFFFFFFFFFFFFFFFFFF AND PUSH20 0xFFFFFFFFFFFFFFFFFFFFFFFFFFFFFFFFFFFFFFFF AND DUP2 MSTORE PUSH1 0x20 ADD SWAP1 DUP2 MSTORE PUSH1 0x20 ADD PUSH1 0x0 KECCAK256 PUSH1 0x7 ADD SLOAD SWAP1 POP DUP1 SWAP2 POP POP SWAP1 JUMP JUMPDEST PUSH1 0x0 DUP1 PUSH1 0xD PUSH1 0x0 CALLER PUSH20 0xFFFFFFFFFFFFFFFFFFFFFFFFFFFFFFFFFFFFFFFF AND PUSH20 0xFFFFFFFFFFFFFFFFFFFFFFFFFFFFFFFFFFFFFFFF AND DUP2 MSTORE PUSH1 0x20 ADD SWAP1 DUP2 MSTORE PUSH1 0x20 ADD PUSH1 0x0 KECCAK256 PUSH1 0x6 ADD SLOAD GT PUSH2 0x1489 JUMPI PUSH1 0x40 MLOAD PUSH32 0x8C379A000000000000000000000000000000000000000000000000000000000 DUP2 MSTORE PUSH1 0x4 ADD PUSH2 0x1480 SWAP1 PUSH2 0x26D5 JUMP JUMPDEST PUSH1 0x40 MLOAD DUP1 SWAP2 SUB SWAP1 REVERT JUMPDEST TIMESTAMP PUSH1 0xD PUSH1 0x0 CALLER PUSH20 0xFFFFFFFFFFFFFFFFFFFFFFFFFFFFFFFFFFFFFFFF AND PUSH20 0xFFFFFFFFFFFFFFFFFFFFFFFFFFFFFFFFFFFFFFFF AND DUP2 MSTORE PUSH1 0x20 ADD SWAP1 DUP2 MSTORE PUSH1 0x20 ADD PUSH1 0x0 KECCAK256 PUSH1 0x9 ADD SLOAD LT PUSH2 0x150D JUMPI PUSH1 0x40 MLOAD PUSH32 0x8C379A000000000000000000000000000000000000000000000000000000000 DUP2 MSTORE PUSH1 0x4 ADD PUSH2 0x1504 SWAP1 PUSH2 0x2735 JUMP JUMPDEST PUSH1 0x40 MLOAD DUP1 SWAP2 SUB SWAP1 REVERT JUMPDEST PUSH1 0x0 PUSH1 0xD PUSH1 0x0 CALLER PUSH20 0xFFFFFFFFFFFFFFFFFFFFFFFFFFFFFFFFFFFFFFFF AND PUSH20 0xFFFFFFFFFFFFFFFFFFFFFFFFFFFFFFFFFFFFFFFF AND DUP2 MSTORE PUSH1 0x20 ADD SWAP1 DUP2 MSTORE PUSH1 0x20 ADD PUSH1 0x0 KECCAK256 PUSH1 0x6 ADD SLOAD SWAP1 POP PUSH1 0x0 PUSH1 0xD PUSH1 0x0 CALLER PUSH20 0xFFFFFFFFFFFFFFFFFFFFFFFFFFFFFFFFFFFFFFFF AND PUSH20 0xFFFFFFFFFFFFFFFFFFFFFFFFFFFFFFFFFFFFFFFF AND DUP2 MSTORE PUSH1 0x20 ADD SWAP1 DUP2 MSTORE PUSH1 0x20 ADD PUSH1 0x0 KECCAK256 PUSH1 0x5 ADD SLOAD SWAP1 POP PUSH1 0x0 PUSH1 0xB SLOAD SWAP1 POP PUSH1 0x1 PUSH1 0x0 SWAP1 SLOAD SWAP1 PUSH2 0x100 EXP SWAP1 DIV PUSH20 0xFFFFFFFFFFFFFFFFFFFFFFFFFFFFFFFFFFFFFFFF AND PUSH20 0xFFFFFFFFFFFFFFFFFFFFFFFFFFFFFFFFFFFFFFFF AND PUSH4 0xA9059CBB CALLER PUSH4 0x5F5E100 DUP7 PUSH2 0x15F1 SWAP2 SWAP1 PUSH2 0x290C JUMP JUMPDEST PUSH1 0x40 MLOAD DUP4 PUSH4 0xFFFFFFFF AND PUSH1 0xE0 SHL DUP2 MSTORE PUSH1 0x4 ADD PUSH2 0x160E SWAP3 SWAP2 SWAP1 PUSH2 0x259A JUMP JUMPDEST PUSH1 0x20 PUSH1 0x40 MLOAD DUP1 DUP4 SUB DUP2 PUSH1 0x0 DUP8 DUP1 EXTCODESIZE ISZERO DUP1 ISZERO PUSH2 0x1628 JUMPI PUSH1 0x0 DUP1 REVERT JUMPDEST POP GAS CALL ISZERO DUP1 ISZERO PUSH2 0x163C JUMPI RETURNDATASIZE PUSH1 0x0 DUP1 RETURNDATACOPY RETURNDATASIZE PUSH1 0x0 REVERT JUMPDEST POP POP POP POP PUSH1 0x40 MLOAD RETURNDATASIZE PUSH1 0x1F NOT PUSH1 0x1F DUP3 ADD AND DUP3 ADD DUP1 PUSH1 0x40 MSTORE POP DUP2 ADD SWAP1 PUSH2 0x1660 SWAP2 SWAP1 PUSH2 0x2030 JUMP JUMPDEST POP PUSH1 0x0 SWAP1 POP JUMPDEST DUP2 DUP2 LT ISZERO PUSH2 0x174B JUMPI PUSH1 0x1 PUSH1 0xD PUSH1 0x0 CALLER PUSH20 0xFFFFFFFFFFFFFFFFFFFFFFFFFFFFFFFFFFFFFFFF AND PUSH20 0xFFFFFFFFFFFFFFFFFFFFFFFFFFFFFFFFFFFFFFFF AND DUP2 MSTORE PUSH1 0x20 ADD SWAP1 DUP2 MSTORE PUSH1 0x20 ADD PUSH1 0x0 KECCAK256 PUSH1 0x0 ADD PUSH1 0x0 DUP4 DUP2 MSTORE PUSH1 0x20 ADD SWAP1 DUP2 MSTORE PUSH1 0x20 ADD PUSH1 0x0 KECCAK256 PUSH1 0x5 ADD PUSH1 0x0 PUSH2 0x100 EXP DUP2 SLOAD DUP2 PUSH1 0xFF MUL NOT AND SWAP1 DUP4 ISZERO ISZERO MUL OR SWAP1 SSTORE POP TIMESTAMP PUSH1 0xD PUSH1 0x0 CALLER PUSH20 0xFFFFFFFFFFFFFFFFFFFFFFFFFFFFFFFFFFFFFFFF AND PUSH20 0xFFFFFFFFFFFFFFFFFFFFFFFFFFFFFFFFFFFFFFFF AND DUP2 MSTORE PUSH1 0x20 ADD SWAP1 DUP2 MSTORE PUSH1 0x20 ADD PUSH1 0x0 KECCAK256 PUSH1 0x0 ADD PUSH1 0x0 DUP4 DUP2 MSTORE PUSH1 0x20 ADD SWAP1 DUP2 MSTORE PUSH1 0x20 ADD PUSH1 0x0 KECCAK256 PUSH1 0x4 ADD DUP2 SWAP1 SSTORE POP DUP1 DUP1 PUSH2 0x1743 SWAP1 PUSH2 0x29E2 JUMP JUMPDEST SWAP2 POP POP PUSH2 0x1666 JUMP JUMPDEST PUSH1 0xD PUSH1 0x0 CALLER PUSH20 0xFFFFFFFFFFFFFFFFFFFFFFFFFFFFFFFFFFFFFFFF AND PUSH20 0xFFFFFFFFFFFFFFFFFFFFFFFFFFFFFFFFFFFFFFFF AND DUP2 MSTORE PUSH1 0x20 ADD SWAP1 DUP2 MSTORE PUSH1 0x20 ADD PUSH1 0x0 KECCAK256 PUSH1 0x5 ADD SLOAD PUSH1 0xB DUP2 SWAP1 SSTORE POP PUSH1 0x0 PUSH1 0xD PUSH1 0x0 CALLER PUSH20 0xFFFFFFFFFFFFFFFFFFFFFFFFFFFFFFFFFFFFFFFF AND PUSH20 0xFFFFFFFFFFFFFFFFFFFFFFFFFFFFFFFFFFFFFFFF AND DUP2 MSTORE PUSH1 0x20 ADD SWAP1 DUP2 MSTORE PUSH1 0x20 ADD PUSH1 0x0 KECCAK256 PUSH1 0x6 ADD DUP2 SWAP1 SSTORE POP PUSH1 0x1 SWAP4 POP POP POP POP SWAP1 JUMP JUMPDEST PUSH1 0x0 DUP1 SLOAD SWAP1 PUSH2 0x100 EXP SWAP1 DIV PUSH20 0xFFFFFFFFFFFFFFFFFFFFFFFFFFFFFFFFFFFFFFFF AND DUP2 JUMP JUMPDEST PUSH1 0x0 PUSH1 0xD PUSH1 0x0 CALLER PUSH20 0xFFFFFFFFFFFFFFFFFFFFFFFFFFFFFFFFFFFFFFFF AND PUSH20 0xFFFFFFFFFFFFFFFFFFFFFFFFFFFFFFFFFFFFFFFF AND DUP2 MSTORE PUSH1 0x20 ADD SWAP1 DUP2 MSTORE PUSH1 0x20 ADD PUSH1 0x0 KECCAK256 PUSH1 0x6 ADD SLOAD SWAP1 POP SWAP1 JUMP JUMPDEST PUSH1 0x8 SLOAD DUP2 JUMP JUMPDEST DUP2 PUSH1 0x5 DUP2 SWAP1 SSTORE POP DUP1 PUSH1 0x8 DUP2 SWAP1 SSTORE POP POP POP JUMP JUMPDEST PUSH1 0x60 PUSH1 0x0 PUSH1 0x14 PUSH8 0xFFFFFFFFFFFFFFFF DUP2 GT ISZERO PUSH2 0x188B JUMPI PUSH2 0x188A PUSH2 0x2AB8 JUMP JUMPDEST JUMPDEST PUSH1 0x40 MLOAD SWAP1 DUP1 DUP3 MSTORE DUP1 PUSH1 0x20 MUL PUSH1 0x20 ADD DUP3 ADD PUSH1 0x40 MSTORE DUP1 ISZERO PUSH2 0x18B9 JUMPI DUP2 PUSH1 0x20 ADD PUSH1 0x20 DUP3 MUL DUP1 CALLDATASIZE DUP4 CALLDATACOPY DUP1 DUP3 ADD SWAP2 POP POP SWAP1 POP JUMPDEST POP SWAP1 POP PUSH1 0x0 JUMPDEST PUSH1 0x14 DUP2 LT ISZERO PUSH2 0x19D7 JUMPI PUSH1 0x0 PUSH1 0xD PUSH1 0x0 CALLER PUSH20 0xFFFFFFFFFFFFFFFFFFFFFFFFFFFFFFFFFFFFFFFF AND PUSH20 0xFFFFFFFFFFFFFFFFFFFFFFFFFFFFFFFFFFFFFFFF AND DUP2 MSTORE PUSH1 0x20 ADD SWAP1 DUP2 MSTORE PUSH1 0x20 ADD PUSH1 0x0 KECCAK256 PUSH1 0x3 ADD PUSH1 0x0 DUP4 DUP2 MSTORE PUSH1 0x20 ADD SWAP1 DUP2 MSTORE PUSH1 0x20 ADD PUSH1 0x0 KECCAK256 PUSH1 0x0 ADD SLOAD GT ISZERO PUSH2 0x19A2 JUMPI PUSH1 0xD PUSH1 0x0 CALLER PUSH20 0xFFFFFFFFFFFFFFFFFFFFFFFFFFFFFFFFFFFFFFFF AND PUSH20 0xFFFFFFFFFFFFFFFFFFFFFFFFFFFFFFFFFFFFFFFF AND DUP2 MSTORE PUSH1 0x20 ADD SWAP1 DUP2 MSTORE PUSH1 0x20 ADD PUSH1 0x0 KECCAK256 PUSH1 0x3 ADD PUSH1 0x0 DUP3 DUP2 MSTORE PUSH1 0x20 ADD SWAP1 DUP2 MSTORE PUSH1 0x20 ADD PUSH1 0x0 KECCAK256 PUSH1 0x0 ADD SLOAD DUP3 DUP3 DUP2 MLOAD DUP2 LT PUSH2 0x1991 JUMPI PUSH2 0x1990 PUSH2 0x2A89 JUMP JUMPDEST JUMPDEST PUSH1 0x20 MUL PUSH1 0x20 ADD ADD DUP2 DUP2 MSTORE POP POP PUSH2 0x19C4 JUMP JUMPDEST PUSH1 0x0 DUP3 DUP3 DUP2 MLOAD DUP2 LT PUSH2 0x19B7 JUMPI PUSH2 0x19B6 PUSH2 0x2A89 JUMP JUMPDEST JUMPDEST PUSH1 0x20 MUL PUSH1 0x20 ADD ADD DUP2 DUP2 MSTORE POP POP JUMPDEST DUP1 DUP1 PUSH2 0x19CF SWAP1 PUSH2 0x29E2 JUMP JUMPDEST SWAP2 POP POP PUSH2 0x18BF JUMP JUMPDEST POP DUP1 SWAP2 POP POP SWAP1 JUMP JUMPDEST PUSH1 0x0 DUP1 PUSH1 0x64 PUSH1 0xA SLOAD PUSH1 0xD PUSH1 0x0 DUP7 PUSH20 0xFFFFFFFFFFFFFFFFFFFFFFFFFFFFFFFFFFFFFFFF AND PUSH20 0xFFFFFFFFFFFFFFFFFFFFFFFFFFFFFFFFFFFFFFFF AND DUP2 MSTORE PUSH1 0x20 ADD SWAP1 DUP2 MSTORE PUSH1 0x20 ADD PUSH1 0x0 KECCAK256 PUSH1 0x6 ADD SLOAD PUSH2 0x1A34 SWAP2 SWAP1 PUSH2 0x28DB JUMP JUMPDEST PUSH2 0x1A3E SWAP2 SWAP1 PUSH2 0x290C JUMP JUMPDEST PUSH1 0x64 PUSH1 0x3 SLOAD PUSH2 0x1A4D SWAP2 SWAP1 PUSH2 0x28DB JUMP JUMPDEST PUSH2 0x1A57 SWAP2 SWAP1 PUSH2 0x290C JUMP JUMPDEST SWAP1 POP PUSH1 0xD PUSH1 0x0 DUP5 PUSH20 0xFFFFFFFFFFFFFFFFFFFFFFFFFFFFFFFFFFFFFFFF AND PUSH20 0xFFFFFFFFFFFFFFFFFFFFFFFFFFFFFFFFFFFFFFFF AND DUP2 MSTORE PUSH1 0x20 ADD SWAP1 DUP2 MSTORE PUSH1 0x20 ADD PUSH1 0x0 KECCAK256 PUSH1 0x7 ADD SLOAD DUP2 PUSH2 0x1AA7 SWAP2 SWAP1 PUSH2 0x2966 JUMP JUMPDEST SWAP1 POP DUP1 SWAP2 POP POP SWAP2 SWAP1 POP JUMP JUMPDEST PUSH1 0x6 SLOAD DUP2 JUMP JUMPDEST PUSH1 0x0 DUP1 PUSH2 0x1AC3 PUSH2 0xEEC JUMP JUMPDEST SWAP1 POP PUSH1 0x0 DUP2 GT PUSH2 0x1B08 JUMPI PUSH1 0x40 MLOAD PUSH32 0x8C379A000000000000000000000000000000000000000000000000000000000 DUP2 MSTORE PUSH1 0x4 ADD PUSH2 0x1AFF SWAP1 PUSH2 0x2715 JUMP JUMPDEST PUSH1 0x40 MLOAD DUP1 SWAP2 SUB SWAP1 REVERT JUMPDEST PUSH1 0x2 PUSH1 0x0 SWAP1 SLOAD SWAP1 PUSH2 0x100 EXP SWAP1 DIV PUSH20 0xFFFFFFFFFFFFFFFFFFFFFFFFFFFFFFFFFFFFFFFF AND PUSH20 0xFFFFFFFFFFFFFFFFFFFFFFFFFFFFFFFFFFFFFFFF AND PUSH4 0xA9059CBB CALLER PUSH8 0xDE0B6B3A7640000 DUP5 PUSH2 0x1B5B SWAP2 SWAP1 PUSH2 0x290C JUMP JUMPDEST PUSH1 0x40 MLOAD DUP4 PUSH4 0xFFFFFFFF AND PUSH1 0xE0 SHL DUP2 MSTORE PUSH1 0x4 ADD PUSH2 0x1B78 SWAP3 SWAP2 SWAP1 PUSH2 0x259A JUMP JUMPDEST PUSH1 0x20 PUSH1 0x40 MLOAD DUP1 DUP4 SUB DUP2 PUSH1 0x0 DUP8 DUP1 EXTCODESIZE ISZERO DUP1 ISZERO PUSH2 0x1B92 JUMPI PUSH1 0x0 DUP1 REVERT JUMPDEST POP GAS CALL ISZERO DUP1 ISZERO PUSH2 0x1BA6 JUMPI RETURNDATASIZE PUSH1 0x0 DUP1 RETURNDATACOPY RETURNDATASIZE PUSH1 0x0 REVERT JUMPDEST POP POP POP POP PUSH1 0x40 MLOAD RETURNDATASIZE PUSH1 0x1F NOT PUSH1 0x1F DUP3 ADD AND DUP3 ADD DUP1 PUSH1 0x40 MSTORE POP DUP2 ADD SWAP1 PUSH2 0x1BCA SWAP2 SWAP1 PUSH2 0x2030 JUMP JUMPDEST POP DUP1 PUSH1 0xD PUSH1 0x0 CALLER PUSH20 0xFFFFFFFFFFFFFFFFFFFFFFFFFFFFFFFFFFFFFFFF AND PUSH20 0xFFFFFFFFFFFFFFFFFFFFFFFFFFFFFFFFFFFFFFFF AND DUP2 MSTORE PUSH1 0x20 ADD SWAP1 DUP2 MSTORE PUSH1 0x20 ADD PUSH1 0x0 KECCAK256 PUSH1 0x7 ADD PUSH1 0x0 DUP3 DUP3 SLOAD PUSH2 0x1C1D SWAP2 SWAP1 PUSH2 0x2885 JUMP JUMPDEST SWAP3 POP POP DUP2 SWAP1 SSTORE POP PUSH1 0x1 SWAP2 POP POP SWAP1 JUMP JUMPDEST PUSH1 0xD PUSH1 0x20 MSTORE DUP1 PUSH1 0x0 MSTORE PUSH1 0x40 PUSH1 0x0 KECCAK256 PUSH1 0x0 SWAP2 POP SWAP1 POP DUP1 PUSH1 0x2 ADD PUSH1 0x0 SWAP1 SLOAD SWAP1 PUSH2 0x100 EXP SWAP1 DIV PUSH20 0xFFFFFFFFFFFFFFFFFFFFFFFFFFFFFFFFFFFFFFFF AND SWAP1 DUP1 PUSH1 0x4 ADD SLOAD SWAP1 DUP1 PUSH1 0x5 ADD SLOAD SWAP1 DUP1 PUSH1 0x6 ADD SLOAD SWAP1 DUP1 PUSH1 0x7 ADD SLOAD SWAP1 DUP1 PUSH1 0x8 ADD PUSH1 0x0 SWAP1 SLOAD SWAP1 PUSH2 0x100 EXP SWAP1 DIV PUSH1 0xFF AND SWAP1 DUP1 PUSH1 0x9 ADD SLOAD SWAP1 POP DUP8 JUMP JUMPDEST PUSH1 0xA SLOAD DUP2 JUMP JUMPDEST PUSH1 0x0 DUP1 SLOAD SWAP1 PUSH2 0x100 EXP SWAP1 DIV PUSH20 0xFFFFFFFFFFFFFFFFFFFFFFFFFFFFFFFFFFFFFFFF AND PUSH20 0xFFFFFFFFFFFFFFFFFFFFFFFFFFFFFFFFFFFFFFFF AND CALLER PUSH20 0xFFFFFFFFFFFFFFFFFFFFFFFFFFFFFFFFFFFFFFFF AND EQ PUSH2 0x1D2F JUMPI PUSH1 0x40 MLOAD PUSH32 0x8C379A000000000000000000000000000000000000000000000000000000000 DUP2 MSTORE PUSH1 0x4 ADD PUSH2 0x1D26 SWAP1 PUSH2 0x2755 JUMP JUMPDEST PUSH1 0x40 MLOAD DUP1 SWAP2 SUB SWAP1 REVERT JUMPDEST DUP1 PUSH1 0x0 DUP1 PUSH2 0x100 EXP DUP2 SLOAD DUP2 PUSH20 0xFFFFFFFFFFFFFFFFFFFFFFFFFFFFFFFFFFFFFFFF MUL NOT AND SWAP1 DUP4 PUSH20 0xFFFFFFFFFFFFFFFFFFFFFFFFFFFFFFFFFFFFFFFF AND MUL OR SWAP1 SSTORE POP POP JUMP JUMPDEST PUSH1 0x60 PUSH1 0x0 PUSH1 0x14 PUSH8 0xFFFFFFFFFFFFFFFF DUP2 GT ISZERO PUSH2 0x1D91 JUMPI PUSH2 0x1D90 PUSH2 0x2AB8 JUMP JUMPDEST JUMPDEST PUSH1 0x40 MLOAD SWAP1 DUP1 DUP3 MSTORE DUP1 PUSH1 0x20 MUL PUSH1 0x20 ADD DUP3 ADD PUSH1 0x40 MSTORE DUP1 ISZERO PUSH2 0x1DBF JUMPI DUP2 PUSH1 0x20 ADD PUSH1 0x20 DUP3 MUL DUP1 CALLDATASIZE DUP4 CALLDATACOPY DUP1 DUP3 ADD SWAP2 POP POP SWAP1 POP JUMPDEST POP SWAP1 POP PUSH1 0x0 JUMPDEST PUSH1 0x14 DUP2 LT ISZERO PUSH2 0x1EDD JUMPI PUSH1 0x0 PUSH1 0xD PUSH1 0x0 CALLER PUSH20 0xFFFFFFFFFFFFFFFFFFFFFFFFFFFFFFFFFFFFFFFF AND PUSH20 0xFFFFFFFFFFFFFFFFFFFFFFFFFFFFFFFFFFFFFFFF AND DUP2 MSTORE PUSH1 0x20 ADD SWAP1 DUP2 MSTORE PUSH1 0x20 ADD PUSH1 0x0 KECCAK256 PUSH1 0x3 ADD PUSH1 0x0 DUP4 DUP2 MSTORE PUSH1 0x20 ADD SWAP1 DUP2 MSTORE PUSH1 0x20 ADD PUSH1 0x0 KECCAK256 PUSH1 0x0 ADD SLOAD GT ISZERO PUSH2 0x1EA8 JUMPI PUSH1 0xD PUSH1 0x0 CALLER PUSH20 0xFFFFFFFFFFFFFFFFFFFFFFFFFFFFFFFFFFFFFFFF AND PUSH20 0xFFFFFFFFFFFFFFFFFFFFFFFFFFFFFFFFFFFFFFFF AND DUP2 MSTORE PUSH1 0x20 ADD SWAP1 DUP2 MSTORE PUSH1 0x20 ADD PUSH1 0x0 KECCAK256 PUSH1 0x3 ADD PUSH1 0x0 DUP3 DUP2 MSTORE PUSH1 0x20 ADD SWAP1 DUP2 MSTORE PUSH1 0x20 ADD PUSH1 0x0 KECCAK256 PUSH1 0x1 ADD SLOAD DUP3 DUP3 DUP2 MLOAD DUP2 LT PUSH2 0x1E97 JUMPI PUSH2 0x1E96 PUSH2 0x2A89 JUMP JUMPDEST JUMPDEST PUSH1 0x20 MUL PUSH1 0x20 ADD ADD DUP2 DUP2 MSTORE POP POP PUSH2 0x1ECA JUMP JUMPDEST PUSH1 0x0 DUP3 DUP3 DUP2 MLOAD DUP2 LT PUSH2 0x1EBD JUMPI PUSH2 0x1EBC PUSH2 0x2A89 JUMP JUMPDEST JUMPDEST PUSH1 0x20 MUL PUSH1 0x20 ADD ADD DUP2 DUP2 MSTORE POP POP JUMPDEST DUP1 DUP1 PUSH2 0x1ED5 SWAP1 PUSH2 0x29E2 JUMP JUMPDEST SWAP2 POP POP PUSH2 0x1DC5 JUMP JUMPDEST POP DUP1 SWAP2 POP POP SWAP1 JUMP JUMPDEST PUSH1 0x5 SLOAD DUP2 JUMP JUMPDEST PUSH1 0x7 SLOAD DUP2 JUMP JUMPDEST PUSH1 0x0 PUSH1 0xD PUSH1 0x0 DUP4 PUSH20 0xFFFFFFFFFFFFFFFFFFFFFFFFFFFFFFFFFFFFFFFF AND PUSH20 0xFFFFFFFFFFFFFFFFFFFFFFFFFFFFFFFFFFFFFFFF AND DUP2 MSTORE PUSH1 0x20 ADD SWAP1 DUP2 MSTORE PUSH1 0x20 ADD PUSH1 0x0 KECCAK256 PUSH1 0x1 ADD DUP1 SLOAD SWAP1 POP SWAP1 POP SWAP2 SWAP1 POP JUMP JUMPDEST PUSH1 0x40 MLOAD DUP1 PUSH1 0xC0 ADD PUSH1 0x40 MSTORE DUP1 PUSH1 0x0 DUP2 MSTORE PUSH1 0x20 ADD PUSH1 0x0 DUP2 MSTORE PUSH1 0x20 ADD PUSH1 0x0 DUP2 MSTORE PUSH1 0x20 ADD PUSH1 0x0 DUP2 MSTORE PUSH1 0x20 ADD PUSH1 0x0 DUP2 MSTORE PUSH1 0x20 ADD PUSH1 0x0 ISZERO ISZERO DUP2 MSTORE POP SWAP1 JUMP JUMPDEST PUSH1 0x40 MLOAD DUP1 PUSH1 0xC0 ADD PUSH1 0x40 MSTORE DUP1 PUSH1 0x0 PUSH20 0xFFFFFFFFFFFFFFFFFFFFFFFFFFFFFFFFFFFFFFFF AND DUP2 MSTORE PUSH1 0x20 ADD PUSH1 0x0 DUP2 MSTORE PUSH1 0x20 ADD PUSH1 0x0 DUP2 MSTORE PUSH1 0x20 ADD PUSH1 0x0 DUP2 MSTORE PUSH1 0x20 ADD PUSH1 0x0 DUP2 MSTORE PUSH1 0x20 ADD PUSH1 0x0 DUP2 MSTORE POP SWAP1 JUMP JUMPDEST PUSH1 0x0 DUP2 CALLDATALOAD SWAP1 POP PUSH2 0x1FD3 DUP2 PUSH2 0x2C51 JUMP JUMPDEST SWAP3 SWAP2 POP POP JUMP JUMPDEST PUSH1 0x0 DUP2 MLOAD SWAP1 POP PUSH2 0x1FE8 DUP2 PUSH2 0x2C68 JUMP JUMPDEST SWAP3 SWAP2 POP POP JUMP JUMPDEST PUSH1 0x0 DUP2 CALLDATALOAD SWAP1 POP PUSH2 0x1FFD DUP2 PUSH2 0x2C7F JUMP JUMPDEST SWAP3 SWAP2 POP POP JUMP JUMPDEST PUSH1 0x0 PUSH1 0x20 DUP3 DUP5 SUB SLT ISZERO PUSH2 0x2019 JUMPI PUSH2 0x2018 PUSH2 0x2AE7 JUMP JUMPDEST JUMPDEST PUSH1 0x0 PUSH2 0x2027 DUP5 DUP3 DUP6 ADD PUSH2 0x1FC4 JUMP JUMPDEST SWAP2 POP POP SWAP3 SWAP2 POP POP JUMP JUMPDEST PUSH1 0x0 PUSH1 0x20 DUP3 DUP5 SUB SLT ISZERO PUSH2 0x2046 JUMPI PUSH2 0x2045 PUSH2 0x2AE7 JUMP JUMPDEST JUMPDEST PUSH1 0x0 PUSH2 0x2054 DUP5 DUP3 DUP6 ADD PUSH2 0x1FD9 JUMP JUMPDEST SWAP2 POP POP SWAP3 SWAP2 POP POP JUMP JUMPDEST PUSH1 0x0 PUSH1 0x20 DUP3 DUP5 SUB SLT ISZERO PUSH2 0x2073 JUMPI PUSH2 0x2072 PUSH2 0x2AE7 JUMP JUMPDEST JUMPDEST PUSH1 0x0 PUSH2 0x2081 DUP5 DUP3 DUP6 ADD PUSH2 0x1FEE JUMP JUMPDEST SWAP2 POP POP SWAP3 SWAP2 POP POP JUMP JUMPDEST PUSH1 0x0 DUP1 PUSH1 0x40 DUP4 DUP6 SUB SLT ISZERO PUSH2 0x20A1 JUMPI PUSH2 0x20A0 PUSH2 0x2AE7 JUMP JUMPDEST JUMPDEST PUSH1 0x0 PUSH2 0x20AF DUP6 DUP3 DUP7 ADD PUSH2 0x1FEE JUMP JUMPDEST SWAP3 POP POP PUSH1 0x20 PUSH2 0x20C0 DUP6 DUP3 DUP7 ADD PUSH2 0x1FC4 JUMP JUMPDEST SWAP2 POP POP SWAP3 POP SWAP3 SWAP1 POP JUMP JUMPDEST PUSH1 0x0 DUP1 PUSH1 0x40 DUP4 DUP6 SUB SLT ISZERO PUSH2 0x20E1 JUMPI PUSH2 0x20E0 PUSH2 0x2AE7 JUMP JUMPDEST JUMPDEST PUSH1 0x0 PUSH2 0x20EF DUP6 DUP3 DUP7 ADD PUSH2 0x1FEE JUMP JUMPDEST SWAP3 POP POP PUSH1 0x20 PUSH2 0x2100 DUP6 DUP3 DUP7 ADD PUSH2 0x1FEE JUMP JUMPDEST SWAP2 POP POP SWAP3 POP SWAP3 SWAP1 POP JUMP JUMPDEST PUSH1 0x0 DUP1 PUSH1 0x0 DUP1 PUSH1 0x80 DUP6 DUP8 SUB SLT ISZERO PUSH2 0x2124 JUMPI PUSH2 0x2123 PUSH2 0x2AE7 JUMP JUMPDEST JUMPDEST PUSH1 0x0 PUSH2 0x2132 DUP8 DUP3 DUP9 ADD PUSH2 0x1FEE JUMP JUMPDEST SWAP5 POP POP PUSH1 0x20 PUSH2 0x2143 DUP8 DUP3 DUP9 ADD PUSH2 0x1FEE JUMP JUMPDEST SWAP4 POP POP PUSH1 0x40 PUSH2 0x2154 DUP8 DUP3 DUP9 ADD PUSH2 0x1FEE JUMP JUMPDEST SWAP3 POP POP PUSH1 0x60 PUSH2 0x2165 DUP8 DUP3 DUP9 ADD PUSH2 0x1FEE JUMP JUMPDEST SWAP2 POP POP SWAP3 SWAP6 SWAP2 SWAP5 POP SWAP3 POP JUMP JUMPDEST PUSH1 0x0 PUSH2 0x217D DUP4 DUP4 PUSH2 0x21D1 JUMP JUMPDEST PUSH1 0x20 DUP4 ADD SWAP1 POP SWAP3 SWAP2 POP POP JUMP JUMPDEST PUSH1 0x0 PUSH2 0x2195 DUP4 DUP4 PUSH2 0x2434 JUMP JUMPDEST PUSH1 0xC0 DUP4 ADD SWAP1 POP SWAP3 SWAP2 POP POP JUMP JUMPDEST PUSH1 0x0 PUSH2 0x21AD DUP4 DUP4 PUSH2 0x24AF JUMP JUMPDEST PUSH1 0xC0 DUP4 ADD SWAP1 POP SWAP3 SWAP2 POP POP JUMP JUMPDEST PUSH1 0x0 PUSH2 0x21C5 DUP4 DUP4 PUSH2 0x252A JUMP JUMPDEST PUSH1 0x20 DUP4 ADD SWAP1 POP SWAP3 SWAP2 POP POP JUMP JUMPDEST PUSH2 0x21DA DUP2 PUSH2 0x299A JUMP JUMPDEST DUP3 MSTORE POP POP JUMP JUMPDEST PUSH2 0x21E9 DUP2 PUSH2 0x299A JUMP JUMPDEST DUP3 MSTORE POP POP JUMP JUMPDEST PUSH1 0x0 PUSH2 0x21FA DUP3 PUSH2 0x27D0 JUMP JUMPDEST PUSH2 0x2204 DUP2 DUP6 PUSH2 0x2830 JUMP JUMPDEST SWAP4 POP PUSH2 0x220F DUP4 PUSH2 0x2790 JUMP JUMPDEST DUP1 PUSH1 0x0 JUMPDEST DUP4 DUP2 LT ISZERO PUSH2 0x2240 JUMPI DUP2 MLOAD PUSH2 0x2227 DUP9 DUP3 PUSH2 0x2171 JUMP JUMPDEST SWAP8 POP PUSH2 0x2232 DUP4 PUSH2 0x27FC JUMP JUMPDEST SWAP3 POP POP PUSH1 0x1 DUP2 ADD SWAP1 POP PUSH2 0x2213 JUMP JUMPDEST POP DUP6 SWAP4 POP POP POP POP SWAP3 SWAP2 POP POP JUMP JUMPDEST PUSH1 0x0 PUSH2 0x2258 DUP3 PUSH2 0x27DB JUMP JUMPDEST PUSH2 0x2262 DUP2 DUP6 PUSH2 0x2841 JUMP JUMPDEST SWAP4 POP PUSH2 0x226D DUP4 PUSH2 0x27A0 JUMP JUMPDEST DUP1 PUSH1 0x0 JUMPDEST DUP4 DUP2 LT ISZERO PUSH2 0x229E JUMPI DUP2 MLOAD PUSH2 0x2285 DUP9 DUP3 PUSH2 0x2189 JUMP JUMPDEST SWAP8 POP PUSH2 0x2290 DUP4 PUSH2 0x2809 JUMP JUMPDEST SWAP3 POP POP PUSH1 0x1 DUP2 ADD SWAP1 POP PUSH2 0x2271 JUMP JUMPDEST POP DUP6 SWAP4 POP POP POP POP SWAP3 SWAP2 POP POP JUMP JUMPDEST PUSH1 0x0 PUSH2 0x22B6 DUP3 PUSH2 0x27E6 JUMP JUMPDEST PUSH2 0x22C0 DUP2 DUP6 PUSH2 0x2852 JUMP JUMPDEST SWAP4 POP PUSH2 0x22CB DUP4 PUSH2 0x27B0 JUMP JUMPDEST DUP1 PUSH1 0x0 JUMPDEST DUP4 DUP2 LT ISZERO PUSH2 0x22FC JUMPI DUP2 MLOAD PUSH2 0x22E3 DUP9 DUP3 PUSH2 0x21A1 JUMP JUMPDEST SWAP8 POP PUSH2 0x22EE DUP4 PUSH2 0x2816 JUMP JUMPDEST SWAP3 POP POP PUSH1 0x1 DUP2 ADD SWAP1 POP PUSH2 0x22CF JUMP JUMPDEST POP DUP6 SWAP4 POP POP POP POP SWAP3 SWAP2 POP POP JUMP JUMPDEST PUSH1 0x0 PUSH2 0x2314 DUP3 PUSH2 0x27F1 JUMP JUMPDEST PUSH2 0x231E DUP2 DUP6 PUSH2 0x2863 JUMP JUMPDEST SWAP4 POP PUSH2 0x2329 DUP4 PUSH2 0x27C0 JUMP JUMPDEST DUP1 PUSH1 0x0 JUMPDEST DUP4 DUP2 LT ISZERO PUSH2 0x235A JUMPI DUP2 MLOAD PUSH2 0x2341 DUP9 DUP3 PUSH2 0x21B9 JUMP JUMPDEST SWAP8 POP PUSH2 0x234C DUP4 PUSH2 0x2823 JUMP JUMPDEST SWAP3 POP POP PUSH1 0x1 DUP2 ADD SWAP1 POP PUSH2 0x232D JUMP JUMPDEST POP DUP6 SWAP4 POP POP POP POP SWAP3 SWAP2 POP POP JUMP JUMPDEST PUSH2 0x2370 DUP2 PUSH2 0x29AC JUMP JUMPDEST DUP3 MSTORE POP POP JUMP JUMPDEST PUSH2 0x237F DUP2 PUSH2 0x29AC JUMP JUMPDEST DUP3 MSTORE POP POP JUMP JUMPDEST PUSH1 0x0 PUSH2 0x2392 PUSH1 0x25 DUP4 PUSH2 0x2874 JUMP JUMPDEST SWAP2 POP PUSH2 0x239D DUP3 PUSH2 0x2AEC JUMP JUMPDEST PUSH1 0x40 DUP3 ADD SWAP1 POP SWAP2 SWAP1 POP JUMP JUMPDEST PUSH1 0x0 PUSH2 0x23B5 PUSH1 0x35 DUP4 PUSH2 0x2874 JUMP JUMPDEST SWAP2 POP PUSH2 0x23C0 DUP3 PUSH2 0x2B3B JUMP JUMPDEST PUSH1 0x40 DUP3 ADD SWAP1 POP SWAP2 SWAP1 POP JUMP JUMPDEST PUSH1 0x0 PUSH2 0x23D8 PUSH1 0x22 DUP4 PUSH2 0x2874 JUMP JUMPDEST SWAP2 POP PUSH2 0x23E3 DUP3 PUSH2 0x2B8A JUMP JUMPDEST PUSH1 0x40 DUP3 ADD SWAP1 POP SWAP2 SWAP1 POP JUMP JUMPDEST PUSH1 0x0 PUSH2 0x23FB PUSH1 0x1F DUP4 PUSH2 0x2874 JUMP JUMPDEST SWAP2 POP PUSH2 0x2406 DUP3 PUSH2 0x2BD9 JUMP JUMPDEST PUSH1 0x20 DUP3 ADD SWAP1 POP SWAP2 SWAP1 POP JUMP JUMPDEST PUSH1 0x0 PUSH2 0x241E PUSH1 0x21 DUP4 PUSH2 0x2874 JUMP JUMPDEST SWAP2 POP PUSH2 0x2429 DUP3 PUSH2 0x2C02 JUMP JUMPDEST PUSH1 0x40 DUP3 ADD SWAP1 POP SWAP2 SWAP1 POP JUMP JUMPDEST PUSH1 0xC0 DUP3 ADD PUSH1 0x0 DUP3 ADD MLOAD PUSH2 0x244A PUSH1 0x0 DUP6 ADD DUP3 PUSH2 0x21D1 JUMP JUMPDEST POP PUSH1 0x20 DUP3 ADD MLOAD PUSH2 0x245D PUSH1 0x20 DUP6 ADD DUP3 PUSH2 0x252A JUMP JUMPDEST POP PUSH1 0x40 DUP3 ADD MLOAD PUSH2 0x2470 PUSH1 0x40 DUP6 ADD DUP3 PUSH2 0x252A JUMP JUMPDEST POP PUSH1 0x60 DUP3 ADD MLOAD PUSH2 0x2483 PUSH1 0x60 DUP6 ADD DUP3 PUSH2 0x252A JUMP JUMPDEST POP PUSH1 0x80 DUP3 ADD MLOAD PUSH2 0x2496 PUSH1 0x80 DUP6 ADD DUP3 PUSH2 0x252A JUMP JUMPDEST POP PUSH1 0xA0 DUP3 ADD MLOAD PUSH2 0x24A9 PUSH1 0xA0 DUP6 ADD DUP3 PUSH2 0x252A JUMP JUMPDEST POP POP POP POP JUMP JUMPDEST PUSH1 0xC0 DUP3 ADD PUSH1 0x0 DUP3 ADD MLOAD PUSH2 0x24C5 PUSH1 0x0 DUP6 ADD DUP3 PUSH2 0x252A JUMP JUMPDEST POP PUSH1 0x20 DUP3 ADD MLOAD PUSH2 0x24D8 PUSH1 0x20 DUP6 ADD DUP3 PUSH2 0x252A JUMP JUMPDEST POP PUSH1 0x40 DUP3 ADD MLOAD PUSH2 0x24EB PUSH1 0x40 DUP6 ADD DUP3 PUSH2 0x252A JUMP JUMPDEST POP PUSH1 0x60 DUP3 ADD MLOAD PUSH2 0x24FE PUSH1 0x60 DUP6 ADD DUP3 PUSH2 0x252A JUMP JUMPDEST POP PUSH1 0x80 DUP3 ADD MLOAD PUSH2 0x2511 PUSH1 0x80 DUP6 ADD DUP3 PUSH2 0x252A JUMP JUMPDEST POP PUSH1 0xA0 DUP3 ADD MLOAD PUSH2 0x2524 PUSH1 0xA0 DUP6 ADD DUP3 PUSH2 0x2367 JUMP JUMPDEST POP POP POP POP JUMP JUMPDEST PUSH2 0x2533 DUP2 PUSH2 0x29D8 JUMP JUMPDEST DUP3 MSTORE POP POP JUMP JUMPDEST PUSH2 0x2542 DUP2 PUSH2 0x29D8 JUMP JUMPDEST DUP3 MSTORE POP POP JUMP JUMPDEST PUSH1 0x0 PUSH1 0x20 DUP3 ADD SWAP1 POP PUSH2 0x255D PUSH1 0x0 DUP4 ADD DUP5 PUSH2 0x21E0 JUMP JUMPDEST SWAP3 SWAP2 POP POP JUMP JUMPDEST PUSH1 0x0 PUSH1 0x60 DUP3 ADD SWAP1 POP PUSH2 0x2578 PUSH1 0x0 DUP4 ADD DUP7 PUSH2 0x21E0 JUMP JUMPDEST PUSH2 0x2585 PUSH1 0x20 DUP4 ADD DUP6 PUSH2 0x21E0 JUMP JUMPDEST PUSH2 0x2592 PUSH1 0x40 DUP4 ADD DUP5 PUSH2 0x2539 JUMP JUMPDEST SWAP5 SWAP4 POP POP POP POP JUMP JUMPDEST PUSH1 0x0 PUSH1 0x40 DUP3 ADD SWAP1 POP PUSH2 0x25AF PUSH1 0x0 DUP4 ADD DUP6 PUSH2 0x21E0 JUMP JUMPDEST PUSH2 0x25BC PUSH1 0x20 DUP4 ADD DUP5 PUSH2 0x2539 JUMP JUMPDEST SWAP4 SWAP3 POP POP POP JUMP JUMPDEST PUSH1 0x0 PUSH1 0xE0 DUP3 ADD SWAP1 POP PUSH2 0x25D8 PUSH1 0x0 DUP4 ADD DUP11 PUSH2 0x21E0 JUMP JUMPDEST PUSH2 0x25E5 PUSH1 0x20 DUP4 ADD DUP10 PUSH2 0x2539 JUMP JUMPDEST PUSH2 0x25F2 PUSH1 0x40 DUP4 ADD DUP9 PUSH2 0x2539 JUMP JUMPDEST PUSH2 0x25FF PUSH1 0x60 DUP4 ADD DUP8 PUSH2 0x2539 JUMP JUMPDEST PUSH2 0x260C PUSH1 0x80 DUP4 ADD DUP7 PUSH2 0x2539 JUMP JUMPDEST PUSH2 0x2619 PUSH1 0xA0 DUP4 ADD DUP6 PUSH2 0x2376 JUMP JUMPDEST PUSH2 0x2626 PUSH1 0xC0 DUP4 ADD DUP5 PUSH2 0x2539 JUMP JUMPDEST SWAP9 SWAP8 POP POP POP POP POP POP POP POP JUMP JUMPDEST PUSH1 0x0 PUSH1 0x20 DUP3 ADD SWAP1 POP DUP2 DUP2 SUB PUSH1 0x0 DUP4 ADD MSTORE PUSH2 0x264C DUP2 DUP5 PUSH2 0x21EF JUMP JUMPDEST SWAP1 POP SWAP3 SWAP2 POP POP JUMP JUMPDEST PUSH1 0x0 PUSH1 0x20 DUP3 ADD SWAP1 POP DUP2 DUP2 SUB PUSH1 0x0 DUP4 ADD MSTORE PUSH2 0x266E DUP2 DUP5 PUSH2 0x224D JUMP JUMPDEST SWAP1 POP SWAP3 SWAP2 POP POP JUMP JUMPDEST PUSH1 0x0 PUSH1 0x20 DUP3 ADD SWAP1 POP DUP2 DUP2 SUB PUSH1 0x0 DUP4 ADD MSTORE PUSH2 0x2690 DUP2 DUP5 PUSH2 0x22AB JUMP JUMPDEST SWAP1 POP SWAP3 SWAP2 POP POP JUMP JUMPDEST PUSH1 0x0 PUSH1 0x20 DUP3 ADD SWAP1 POP DUP2 DUP2 SUB PUSH1 0x0 DUP4 ADD MSTORE PUSH2 0x26B2 DUP2 DUP5 PUSH2 0x2309 JUMP JUMPDEST SWAP1 POP SWAP3 SWAP2 POP POP JUMP JUMPDEST PUSH1 0x0 PUSH1 0x20 DUP3 ADD SWAP1 POP PUSH2 0x26CF PUSH1 0x0 DUP4 ADD DUP5 PUSH2 0x2376 JUMP JUMPDEST SWAP3 SWAP2 POP POP JUMP JUMPDEST PUSH1 0x0 PUSH1 0x20 DUP3 ADD SWAP1 POP DUP2 DUP2 SUB PUSH1 0x0 DUP4 ADD MSTORE PUSH2 0x26EE DUP2 PUSH2 0x2385 JUMP JUMPDEST SWAP1 POP SWAP2 SWAP1 POP JUMP JUMPDEST PUSH1 0x0 PUSH1 0x20 DUP3 ADD SWAP1 POP DUP2 DUP2 SUB PUSH1 0x0 DUP4 ADD MSTORE PUSH2 0x270E DUP2 PUSH2 0x23A8 JUMP JUMPDEST SWAP1 POP SWAP2 SWAP1 POP JUMP JUMPDEST PUSH1 0x0 PUSH1 0x20 DUP3 ADD SWAP1 POP DUP2 DUP2 SUB PUSH1 0x0 DUP4 ADD MSTORE PUSH2 0x272E DUP2 PUSH2 0x23CB JUMP JUMPDEST SWAP1 POP SWAP2 SWAP1 POP JUMP JUMPDEST PUSH1 0x0 PUSH1 0x20 DUP3 ADD SWAP1 POP DUP2 DUP2 SUB PUSH1 0x0 DUP4 ADD MSTORE PUSH2 0x274E DUP2 PUSH2 0x23EE JUMP JUMPDEST SWAP1 POP SWAP2 SWAP1 POP JUMP JUMPDEST PUSH1 0x0 PUSH1 0x20 DUP3 ADD SWAP1 POP DUP2 DUP2 SUB PUSH1 0x0 DUP4 ADD MSTORE PUSH2 0x276E DUP2 PUSH2 0x2411 JUMP JUMPDEST SWAP1 POP SWAP2 SWAP1 POP JUMP JUMPDEST PUSH1 0x0 PUSH1 0x20 DUP3 ADD SWAP1 POP PUSH2 0x278A PUSH1 0x0 DUP4 ADD DUP5 PUSH2 0x2539 JUMP JUMPDEST SWAP3 SWAP2 POP POP JUMP JUMPDEST PUSH1 0x0 DUP2 SWAP1 POP PUSH1 0x20 DUP3 ADD SWAP1 POP SWAP2 SWAP1 POP JUMP JUMPDEST PUSH1 0x0 DUP2 SWAP1 POP PUSH1 0x20 DUP3 ADD SWAP1 POP SWAP2 SWAP1 POP JUMP JUMPDEST PUSH1 0x0 DUP2 SWAP1 POP PUSH1 0x20 DUP3 ADD SWAP1 POP SWAP2 SWAP1 POP JUMP JUMPDEST PUSH1 0x0 DUP2 SWAP1 POP PUSH1 0x20 DUP3 ADD SWAP1 POP SWAP2 SWAP1 POP JUMP JUMPDEST PUSH1 0x0 DUP2 MLOAD SWAP1 POP SWAP2 SWAP1 POP JUMP JUMPDEST PUSH1 0x0 DUP2 MLOAD SWAP1 POP SWAP2 SWAP1 POP JUMP JUMPDEST PUSH1 0x0 DUP2 MLOAD SWAP1 POP SWAP2 SWAP1 POP JUMP JUMPDEST PUSH1 0x0 DUP2 MLOAD SWAP1 POP SWAP2 SWAP1 POP JUMP JUMPDEST PUSH1 0x0 PUSH1 0x20 DUP3 ADD SWAP1 POP SWAP2 SWAP1 POP JUMP JUMPDEST PUSH1 0x0 PUSH1 0x20 DUP3 ADD SWAP1 POP SWAP2 SWAP1 POP JUMP JUMPDEST PUSH1 0x0 PUSH1 0x20 DUP3 ADD SWAP1 POP SWAP2 SWAP1 POP JUMP JUMPDEST PUSH1 0x0 PUSH1 0x20 DUP3 ADD SWAP1 POP SWAP2 SWAP1 POP JUMP JUMPDEST PUSH1 0x0 DUP3 DUP3 MSTORE PUSH1 0x20 DUP3 ADD SWAP1 POP SWAP3 SWAP2 POP POP JUMP JUMPDEST PUSH1 0x0 DUP3 DUP3 MSTORE PUSH1 0x20 DUP3 ADD SWAP1 POP SWAP3 SWAP2 POP POP JUMP JUMPDEST PUSH1 0x0 DUP3 DUP3 MSTORE PUSH1 0x20 DUP3 ADD SWAP1 POP SWAP3 SWAP2 POP POP JUMP JUMPDEST PUSH1 0x0 DUP3 DUP3 MSTORE PUSH1 0x20 DUP3 ADD SWAP1 POP SWAP3 SWAP2 POP POP JUMP JUMPDEST PUSH1 0x0 DUP3 DUP3 MSTORE PUSH1 0x20 DUP3 ADD SWAP1 POP SWAP3 SWAP2 POP POP JUMP JUMPDEST PUSH1 0x0 PUSH2 0x2890 DUP3 PUSH2 0x29D8 JUMP JUMPDEST SWAP2 POP PUSH2 0x289B DUP4 PUSH2 0x29D8 JUMP JUMPDEST SWAP3 POP DUP3 PUSH32 0xFFFFFFFFFFFFFFFFFFFFFFFFFFFFFFFFFFFFFFFFFFFFFFFFFFFFFFFFFFFFFFFF SUB DUP3 GT ISZERO PUSH2 0x28D0 JUMPI PUSH2 0x28CF PUSH2 0x2A2B JUMP JUMPDEST JUMPDEST DUP3 DUP3 ADD SWAP1 POP SWAP3 SWAP2 POP POP JUMP JUMPDEST PUSH1 0x0 PUSH2 0x28E6 DUP3 PUSH2 0x29D8 JUMP JUMPDEST SWAP2 POP PUSH2 0x28F1 DUP4 PUSH2 0x29D8 JUMP JUMPDEST SWAP3 POP DUP3 PUSH2 0x2901 JUMPI PUSH2 0x2900 PUSH2 0x2A5A JUMP JUMPDEST JUMPDEST DUP3 DUP3 DIV SWAP1 POP SWAP3 SWAP2 POP POP JUMP JUMPDEST PUSH1 0x0 PUSH2 0x2917 DUP3 PUSH2 0x29D8 JUMP JUMPDEST SWAP2 POP PUSH2 0x2922 DUP4 PUSH2 0x29D8 JUMP JUMPDEST SWAP3 POP DUP2 PUSH32 0xFFFFFFFFFFFFFFFFFFFFFFFFFFFFFFFFFFFFFFFFFFFFFFFFFFFFFFFFFFFFFFFF DIV DUP4 GT DUP3 ISZERO ISZERO AND ISZERO PUSH2 0x295B JUMPI PUSH2 0x295A PUSH2 0x2A2B JUMP JUMPDEST JUMPDEST DUP3 DUP3 MUL SWAP1 POP SWAP3 SWAP2 POP POP JUMP JUMPDEST PUSH1 0x0 PUSH2 0x2971 DUP3 PUSH2 0x29D8 JUMP JUMPDEST SWAP2 POP PUSH2 0x297C DUP4 PUSH2 0x29D8 JUMP JUMPDEST SWAP3 POP DUP3 DUP3 LT ISZERO PUSH2 0x298F JUMPI PUSH2 0x298E PUSH2 0x2A2B JUMP JUMPDEST JUMPDEST DUP3 DUP3 SUB SWAP1 POP SWAP3 SWAP2 POP POP JUMP JUMPDEST PUSH1 0x0 PUSH2 0x29A5 DUP3 PUSH2 0x29B8 JUMP JUMPDEST SWAP1 POP SWAP2 SWAP1 POP JUMP JUMPDEST PUSH1 0x0 DUP2 ISZERO ISZERO SWAP1 POP SWAP2 SWAP1 POP JUMP JUMPDEST PUSH1 0x0 PUSH20 0xFFFFFFFFFFFFFFFFFFFFFFFFFFFFFFFFFFFFFFFF DUP3 AND SWAP1 POP SWAP2 SWAP1 POP JUMP JUMPDEST PUSH1 0x0 DUP2 SWAP1 POP SWAP2 SWAP1 POP JUMP JUMPDEST PUSH1 0x0 PUSH2 0x29ED DUP3 PUSH2 0x29D8 JUMP JUMPDEST SWAP2 POP PUSH32 0xFFFFFFFFFFFFFFFFFFFFFFFFFFFFFFFFFFFFFFFFFFFFFFFFFFFFFFFFFFFFFFFF DUP3 EQ ISZERO PUSH2 0x2A20 JUMPI PUSH2 0x2A1F PUSH2 0x2A2B JUMP JUMPDEST JUMPDEST PUSH1 0x1 DUP3 ADD SWAP1 POP SWAP2 SWAP1 POP JUMP JUMPDEST PUSH32 0x4E487B7100000000000000000000000000000000000000000000000000000000 PUSH1 0x0 MSTORE PUSH1 0x11 PUSH1 0x4 MSTORE PUSH1 0x24 PUSH1 0x0 REVERT JUMPDEST PUSH32 0x4E487B7100000000000000000000000000000000000000000000000000000000 PUSH1 0x0 MSTORE PUSH1 0x12 PUSH1 0x4 MSTORE PUSH1 0x24 PUSH1 0x0 REVERT JUMPDEST PUSH32 0x4E487B7100000000000000000000000000000000000000000000000000000000 PUSH1 0x0 MSTORE PUSH1 0x32 PUSH1 0x4 MSTORE PUSH1 0x24 PUSH1 0x0 REVERT JUMPDEST PUSH32 0x4E487B7100000000000000000000000000000000000000000000000000000000 PUSH1 0x0 MSTORE PUSH1 0x41 PUSH1 0x4 MSTORE PUSH1 0x24 PUSH1 0x0 REVERT JUMPDEST PUSH1 0x0 DUP1 REVERT JUMPDEST PUSH32 0x796F7520646F6E74206861766520696E766573746D656E7420746F2077697468 PUSH1 0x0 DUP3 ADD MSTORE PUSH32 0x647261776E000000000000000000000000000000000000000000000000000000 PUSH1 0x20 DUP3 ADD MSTORE POP JUMP JUMPDEST PUSH32 0x76616C7565206973206E6F742067726561746572207468616E20313030303020 PUSH1 0x0 DUP3 ADD MSTORE PUSH32 0x616E64206C657373207468616E20353030303030300000000000000000000000 PUSH1 0x20 DUP3 ADD MSTORE POP JUMP JUMPDEST PUSH32 0x796F7520646F6E742068617665207265776172647320746F2077697468647261 PUSH1 0x0 DUP3 ADD MSTORE PUSH32 0x776E000000000000000000000000000000000000000000000000000000000000 PUSH1 0x20 DUP3 ADD MSTORE POP JUMP JUMPDEST PUSH32 0x796F752063616E74207769746864726177206265666F72652031207965617200 PUSH1 0x0 DUP3 ADD MSTORE POP JUMP JUMPDEST PUSH32 0x6F6E6C79204F776E65722063616E2063616C6C20746869732066756E6374696F PUSH1 0x0 DUP3 ADD MSTORE PUSH32 0x6E00000000000000000000000000000000000000000000000000000000000000 PUSH1 0x20 DUP3 ADD MSTORE POP JUMP JUMPDEST PUSH2 0x2C5A DUP2 PUSH2 0x299A JUMP JUMPDEST DUP2 EQ PUSH2 0x2C65 JUMPI PUSH1 0x0 DUP1 REVERT JUMPDEST POP JUMP JUMPDEST PUSH2 0x2C71 DUP2 PUSH2 0x29AC JUMP JUMPDEST DUP2 EQ PUSH2 0x2C7C JUMPI PUSH1 0x0 DUP1 REVERT JUMPDEST POP JUMP JUMPDEST PUSH2 0x2C88 DUP2 PUSH2 0x29D8 JUMP JUMPDEST DUP2 EQ PUSH2 0x2C93 JUMPI PUSH1 0x0 DUP1 REVERT JUMPDEST POP JUMP INVALID LOG2 PUSH5 0x6970667358 0x22 SLT KECCAK256 JUMP 0xAC STATICCALL SWAP6 0xAC 0x5F SWAP16 0xD2 PUSH31 0xEC0C180B61C2AB778D5188C17C0124630851832E36AE4064736F6C63430008 SMOD STOP CALLER "
				},
				"gasEstimates": {
					"creation": {
						"codeDepositCost": "2293600",
						"executionCost": "207892",
						"totalCost": "2501492"
					},
					"external": {
						"Admin_data()": "infinite",
						"All_investors(uint256)": "2884",
						"DUSDReferralsList()": "infinite",
						"DUSDTotalReferrals()": "2631",
						"DUSDinvestor(address)": "infinite",
						"Stake(uint256,address)": "infinite",
						"denomenator()": "2519",
						"getAllDUSDinvestments()": "infinite",
						"getReward()": "infinite",
						"getTotalInvestmentDUSD()": "2600",
						"get_investor_Reward(address)": "infinite",
						"investmentPeriod()": "2496",
						"max_Stake_amount()": "2539",
						"min_Stake_amount()": "2540",
						"owner()": "2557",
						"referralLevel_count()": "infinite",
						"referralLevel_earning()": "infinite",
						"rewardToken()": "2517",
						"setReward(uint256,uint256)": "infinite",
						"set_max_Stake_amount(uint256)": "22610",
						"set_min_Stake_amount(uint256)": "22588",
						"set_values(uint256,uint256,uint256,uint256)": "infinite",
						"totalDUSDInvestors()": "2498",
						"total_withdraw_reaward()": "2634",
						"totalbusiness()": "2518",
						"transferOwnership(address)": "26933",
						"unStake()": "infinite",
						"withdrawReward()": "infinite"
					},
					"internal": {
						"DUSDTotalReferrals_inside(address)": "2238",
						"sendRewardToDUSDReferrals(address,uint256)": "infinite"
					}
				},
				"methodIdentifiers": {
					"Admin_data()": "42508f66",
					"All_investors(uint256)": "502c6bfa",
					"DUSDReferralsList()": "0c5f58f4",
					"DUSDTotalReferrals()": "1e8aba35",
					"DUSDinvestor(address)": "d3560ee8",
					"Stake(uint256,address)": "2bccdce6",
					"denomenator()": "9740a1bc",
					"getAllDUSDinvestments()": "3a1e0833",
					"getReward()": "3d18b912",
					"getTotalInvestmentDUSD()": "929f6bbe",
					"get_investor_Reward(address)": "bc2fd830",
					"investmentPeriod()": "523cddfe",
					"max_Stake_amount()": "fae730bc",
					"min_Stake_amount()": "bc67eaff",
					"owner()": "8da5cb5b",
					"referralLevel_count()": "f790b81a",
					"referralLevel_earning()": "a61be99d",
					"rewardToken()": "f7c618c1",
					"setReward(uint256,uint256)": "a47bd496",
					"set_max_Stake_amount(uint256)": "500cb85f",
					"set_min_Stake_amount(uint256)": "32d4e783",
					"set_values(uint256,uint256,uint256,uint256)": "4eb1ecc9",
					"totalDUSDInvestors()": "10cde60a",
					"total_withdraw_reaward()": "5a4a0192",
					"totalbusiness()": "e2033fcb",
					"transferOwnership(address)": "f2fde38b",
					"unStake()": "73cf575a",
					"withdrawReward()": "c885bc58"
				}
			},
			"storageLayout": {
				"storage": [
					{
						"astId": 24,
						"contract": "contracts/contractsCopy/khaledulsaleh_staking.sol:Invest",
						"label": "owner",
						"offset": 0,
						"slot": "0",
						"type": "t_address"
					},
					{
						"astId": 27,
						"contract": "contracts/contractsCopy/khaledulsaleh_staking.sol:Invest",
						"label": "SMCcontract",
						"offset": 0,
						"slot": "1",
						"type": "t_address"
					},
					{
						"astId": 30,
						"contract": "contracts/contractsCopy/khaledulsaleh_staking.sol:Invest",
						"label": "BUSDcontract",
						"offset": 0,
						"slot": "2",
						"type": "t_address"
					},
					{
						"astId": 33,
						"contract": "contracts/contractsCopy/khaledulsaleh_staking.sol:Invest",
						"label": "reward_per_day",
						"offset": 0,
						"slot": "3",
						"type": "t_uint256"
					},
					{
						"astId": 35,
						"contract": "contracts/contractsCopy/khaledulsaleh_staking.sol:Invest",
						"label": "totalDUSDInvestors",
						"offset": 0,
						"slot": "4",
						"type": "t_uint256"
					},
					{
						"astId": 38,
						"contract": "contracts/contractsCopy/khaledulsaleh_staking.sol:Invest",
						"label": "rewardToken",
						"offset": 0,
						"slot": "5",
						"type": "t_uint256"
					},
					{
						"astId": 41,
						"contract": "contracts/contractsCopy/khaledulsaleh_staking.sol:Invest",
						"label": "min_Stake_amount",
						"offset": 0,
						"slot": "6",
						"type": "t_uint256"
					},
					{
						"astId": 44,
						"contract": "contracts/contractsCopy/khaledulsaleh_staking.sol:Invest",
						"label": "max_Stake_amount",
						"offset": 0,
						"slot": "7",
						"type": "t_uint256"
					},
					{
						"astId": 47,
						"contract": "contracts/contractsCopy/khaledulsaleh_staking.sol:Invest",
						"label": "denomenator",
						"offset": 0,
						"slot": "8",
						"type": "t_uint256"
					},
					{
						"astId": 50,
						"contract": "contracts/contractsCopy/khaledulsaleh_staking.sol:Invest",
						"label": "investmentPeriod",
						"offset": 0,
						"slot": "9",
						"type": "t_uint256"
					},
					{
						"astId": 52,
						"contract": "contracts/contractsCopy/khaledulsaleh_staking.sol:Invest",
						"label": "totalbusiness",
						"offset": 0,
						"slot": "10",
						"type": "t_uint256"
					},
					{
						"astId": 54,
						"contract": "contracts/contractsCopy/khaledulsaleh_staking.sol:Invest",
						"label": "rew_till_done",
						"offset": 0,
						"slot": "11",
						"type": "t_uint256"
					},
					{
						"astId": 58,
						"contract": "contracts/contractsCopy/khaledulsaleh_staking.sol:Invest",
						"label": "All_investors",
						"offset": 0,
						"slot": "12",
						"type": "t_mapping(t_uint256,t_address)"
					},
					{
						"astId": 122,
						"contract": "contracts/contractsCopy/khaledulsaleh_staking.sol:Invest",
						"label": "DUSDinvestor",
						"offset": 0,
						"slot": "13",
						"type": "t_mapping(t_address,t_struct(Data)117_storage)"
					}
				],
				"types": {
					"t_address": {
						"encoding": "inplace",
						"label": "address",
						"numberOfBytes": "20"
					},
					"t_array(t_address)dyn_storage": {
						"base": "t_address",
						"encoding": "dynamic_array",
						"label": "address[]",
						"numberOfBytes": "32"
					},
					"t_bool": {
						"encoding": "inplace",
						"label": "bool",
						"numberOfBytes": "1"
					},
					"t_mapping(t_address,t_struct(Data)117_storage)": {
						"encoding": "mapping",
						"key": "t_address",
						"label": "mapping(address => struct Invest.Data)",
						"numberOfBytes": "32",
						"value": "t_struct(Data)117_storage"
					},
					"t_mapping(t_uint256,t_address)": {
						"encoding": "mapping",
						"key": "t_uint256",
						"label": "mapping(uint256 => address)",
						"numberOfBytes": "32",
						"value": "t_address"
					},
					"t_mapping(t_uint256,t_struct(allInvestments)71_storage)": {
						"encoding": "mapping",
						"key": "t_uint256",
						"label": "mapping(uint256 => struct Invest.allInvestments)",
						"numberOfBytes": "32",
						"value": "t_struct(allInvestments)71_storage"
					},
					"t_mapping(t_uint256,t_struct(ref_data)76_storage)": {
						"encoding": "mapping",
						"key": "t_uint256",
						"label": "mapping(uint256 => struct Invest.ref_data)",
						"numberOfBytes": "32",
						"value": "t_struct(ref_data)76_storage"
					},
					"t_struct(Data)117_storage": {
						"encoding": "inplace",
						"label": "struct Invest.Data",
						"members": [
							{
								"astId": 94,
								"contract": "contracts/contractsCopy/khaledulsaleh_staking.sol:Invest",
								"label": "investment",
								"offset": 0,
								"slot": "0",
								"type": "t_mapping(t_uint256,t_struct(allInvestments)71_storage)"
							},
							{
								"astId": 97,
								"contract": "contracts/contractsCopy/khaledulsaleh_staking.sol:Invest",
								"label": "hisReferrals",
								"offset": 0,
								"slot": "1",
								"type": "t_array(t_address)dyn_storage"
							},
							{
								"astId": 99,
								"contract": "contracts/contractsCopy/khaledulsaleh_staking.sol:Invest",
								"label": "referralFrom",
								"offset": 0,
								"slot": "2",
								"type": "t_address"
							},
							{
								"astId": 104,
								"contract": "contracts/contractsCopy/khaledulsaleh_staking.sol:Invest",
								"label": "referralLevel",
								"offset": 0,
								"slot": "3",
								"type": "t_mapping(t_uint256,t_struct(ref_data)76_storage)"
							},
							{
								"astId": 106,
								"contract": "contracts/contractsCopy/khaledulsaleh_staking.sol:Invest",
								"label": "reward",
								"offset": 0,
								"slot": "4",
								"type": "t_uint256"
							},
							{
								"astId": 108,
								"contract": "contracts/contractsCopy/khaledulsaleh_staking.sol:Invest",
								"label": "noOfInvestment",
								"offset": 0,
								"slot": "5",
								"type": "t_uint256"
							},
							{
								"astId": 110,
								"contract": "contracts/contractsCopy/khaledulsaleh_staking.sol:Invest",
								"label": "totalInvestment",
								"offset": 0,
								"slot": "6",
								"type": "t_uint256"
							},
							{
								"astId": 112,
								"contract": "contracts/contractsCopy/khaledulsaleh_staking.sol:Invest",
								"label": "totalWithdraw_reward",
								"offset": 0,
								"slot": "7",
								"type": "t_uint256"
							},
							{
								"astId": 114,
								"contract": "contracts/contractsCopy/khaledulsaleh_staking.sol:Invest",
								"label": "investBefore",
								"offset": 0,
								"slot": "8",
								"type": "t_bool"
							},
							{
								"astId": 116,
								"contract": "contracts/contractsCopy/khaledulsaleh_staking.sol:Invest",
								"label": "stakeTime",
								"offset": 0,
								"slot": "9",
								"type": "t_uint256"
							}
						],
						"numberOfBytes": "320"
					},
					"t_struct(allInvestments)71_storage": {
						"encoding": "inplace",
						"label": "struct Invest.allInvestments",
						"members": [
							{
								"astId": 60,
								"contract": "contracts/contractsCopy/khaledulsaleh_staking.sol:Invest",
								"label": "investedAmount",
								"offset": 0,
								"slot": "0",
								"type": "t_uint256"
							},
							{
								"astId": 62,
								"contract": "contracts/contractsCopy/khaledulsaleh_staking.sol:Invest",
								"label": "withdrawnTime",
								"offset": 0,
								"slot": "1",
								"type": "t_uint256"
							},
							{
								"astId": 64,
								"contract": "contracts/contractsCopy/khaledulsaleh_staking.sol:Invest",
								"label": "DepositTime",
								"offset": 0,
								"slot": "2",
								"type": "t_uint256"
							},
							{
								"astId": 66,
								"contract": "contracts/contractsCopy/khaledulsaleh_staking.sol:Invest",
								"label": "investmentNum",
								"offset": 0,
								"slot": "3",
								"type": "t_uint256"
							},
							{
								"astId": 68,
								"contract": "contracts/contractsCopy/khaledulsaleh_staking.sol:Invest",
								"label": "unstakeTime",
								"offset": 0,
								"slot": "4",
								"type": "t_uint256"
							},
							{
								"astId": 70,
								"contract": "contracts/contractsCopy/khaledulsaleh_staking.sol:Invest",
								"label": "unstake",
								"offset": 0,
								"slot": "5",
								"type": "t_bool"
							}
						],
						"numberOfBytes": "192"
					},
					"t_struct(ref_data)76_storage": {
						"encoding": "inplace",
						"label": "struct Invest.ref_data",
						"members": [
							{
								"astId": 73,
								"contract": "contracts/contractsCopy/khaledulsaleh_staking.sol:Invest",
								"label": "reward",
								"offset": 0,
								"slot": "0",
								"type": "t_uint256"
							},
							{
								"astId": 75,
								"contract": "contracts/contractsCopy/khaledulsaleh_staking.sol:Invest",
								"label": "count",
								"offset": 0,
								"slot": "1",
								"type": "t_uint256"
							}
						],
						"numberOfBytes": "64"
					},
					"t_uint256": {
						"encoding": "inplace",
						"label": "uint256",
						"numberOfBytes": "32"
					}
				}
			},
			"userdoc": {
				"kind": "user",
				"methods": {},
				"version": 1
			}
		}
	}
}